{
	"contracts/Utils.sol": {
		"Utils": {
			"abi": [
				{
					"inputs": [
						{
							"internalType": "contract Router",
							"name": "_routerAddress",
							"type": "address"
						},
						{
							"internalType": "address",
							"name": "_WBNB",
							"type": "address"
						},
						{
							"internalType": "address",
							"name": "_BUSD",
							"type": "address"
						}
					],
					"stateMutability": "nonpayable",
					"type": "constructor"
				},
				{
					"anonymous": false,
					"inputs": [
						{
							"indexed": true,
							"internalType": "address",
							"name": "previousOwner",
							"type": "address"
						},
						{
							"indexed": true,
							"internalType": "address",
							"name": "newOwner",
							"type": "address"
						}
					],
					"name": "OwnershipTransferred",
					"type": "event"
				},
				{
					"inputs": [],
					"name": "BUSD",
					"outputs": [
						{
							"internalType": "address",
							"name": "",
							"type": "address"
						}
					],
					"stateMutability": "view",
					"type": "function"
				},
				{
					"inputs": [
						{
							"internalType": "uint256",
							"name": "pid",
							"type": "uint256"
						},
						{
							"internalType": "contract LP",
							"name": "lpAddress",
							"type": "address"
						},
						{
							"internalType": "uint256",
							"name": "isLp",
							"type": "uint256"
						},
						{
							"internalType": "contract MetaMasterChef",
							"name": "MasterChef",
							"type": "address"
						}
					],
					"name": "CalcApy",
					"outputs": [
						{
							"internalType": "uint256",
							"name": "",
							"type": "uint256"
						}
					],
					"stateMutability": "view",
					"type": "function"
				},
				{
					"inputs": [
						{
							"internalType": "uint256",
							"name": "pid",
							"type": "uint256"
						},
						{
							"internalType": "uint256",
							"name": "isLp",
							"type": "uint256"
						},
						{
							"internalType": "contract NFTMasterChef",
							"name": "MasterChef",
							"type": "address"
						}
					],
					"name": "CalcApyNFTFarm",
					"outputs": [
						{
							"internalType": "uint256",
							"name": "",
							"type": "uint256"
						}
					],
					"stateMutability": "view",
					"type": "function"
				},
				{
					"inputs": [
						{
							"internalType": "contract LP",
							"name": "lpAddress",
							"type": "address"
						}
					],
					"name": "CalcLpPrice",
					"outputs": [
						{
							"internalType": "uint256",
							"name": "",
							"type": "uint256"
						}
					],
					"stateMutability": "view",
					"type": "function"
				},
				{
					"inputs": [
						{
							"internalType": "contract MetaMasterChef",
							"name": "MasterChef",
							"type": "address"
						},
						{
							"internalType": "contract LP[]",
							"name": "lpAddress",
							"type": "address[]"
						}
					],
					"name": "CalcTotalTVL",
					"outputs": [
						{
							"internalType": "uint256",
							"name": "",
							"type": "uint256"
						}
					],
					"stateMutability": "view",
					"type": "function"
				},
				{
					"inputs": [
						{
							"internalType": "contract MetaMasterChef",
							"name": "MasterChef",
							"type": "address"
						},
						{
							"internalType": "contract LP[]",
							"name": "lpAddress",
							"type": "address[]"
						}
					],
					"name": "CalcTotalTVLNFTFarm",
					"outputs": [
						{
							"internalType": "uint256",
							"name": "",
							"type": "uint256"
						}
					],
					"stateMutability": "view",
					"type": "function"
				},
				{
					"inputs": [
						{
							"internalType": "address",
							"name": "token",
							"type": "address"
						}
					],
					"name": "Tokenprice",
					"outputs": [
						{
							"internalType": "uint256",
							"name": "",
							"type": "uint256"
						}
					],
					"stateMutability": "view",
					"type": "function"
				},
				{
					"inputs": [],
					"name": "WBNB",
					"outputs": [
						{
							"internalType": "address",
							"name": "",
							"type": "address"
						}
					],
					"stateMutability": "view",
					"type": "function"
				},
				{
					"inputs": [
						{
							"internalType": "address",
							"name": "token",
							"type": "address"
						}
					],
					"name": "WBNBPrice",
					"outputs": [
						{
							"internalType": "uint256",
							"name": "",
							"type": "uint256"
						}
					],
					"stateMutability": "view",
					"type": "function"
				},
				{
					"inputs": [
						{
							"internalType": "uint256",
							"name": "pid",
							"type": "uint256"
						},
						{
							"internalType": "contract LP",
							"name": "lpAddress",
							"type": "address"
						},
						{
							"internalType": "uint256",
							"name": "isLp",
							"type": "uint256"
						},
						{
							"internalType": "contract MetaMasterChef",
							"name": "MasterChef",
							"type": "address"
						}
					],
					"name": "calcPoolTVLInUSD",
					"outputs": [
						{
							"internalType": "uint256",
							"name": "",
							"type": "uint256"
						}
					],
					"stateMutability": "view",
					"type": "function"
				},
				{
					"inputs": [
						{
							"internalType": "contract LP",
							"name": "lpAddress",
							"type": "address"
						},
						{
							"internalType": "uint256",
							"name": "isLp",
							"type": "uint256"
						},
						{
							"internalType": "contract MetaMasterChef",
							"name": "MasterChef",
							"type": "address"
						}
					],
					"name": "calcPoolTVLInUSDNFTFarm",
					"outputs": [
						{
							"internalType": "uint256",
							"name": "",
							"type": "uint256"
						}
					],
					"stateMutability": "view",
					"type": "function"
				},
				{
					"inputs": [
						{
							"internalType": "contract LP",
							"name": "lpAddress",
							"type": "address"
						}
					],
					"name": "isLpAddress",
					"outputs": [
						{
							"internalType": "uint256",
							"name": "",
							"type": "uint256"
						}
					],
					"stateMutability": "view",
					"type": "function"
				},
				{
					"inputs": [],
					"name": "owner",
					"outputs": [
						{
							"internalType": "address",
							"name": "",
							"type": "address"
						}
					],
					"stateMutability": "view",
					"type": "function"
				},
				{
					"inputs": [],
					"name": "renounceOwnership",
					"outputs": [],
					"stateMutability": "nonpayable",
					"type": "function"
				},
				{
					"inputs": [],
					"name": "routerAddress",
					"outputs": [
						{
							"internalType": "contract Router",
							"name": "",
							"type": "address"
						}
					],
					"stateMutability": "view",
					"type": "function"
				},
				{
					"inputs": [
						{
							"internalType": "contract Router",
							"name": "_routerAddress",
							"type": "address"
						}
					],
					"name": "setRouter",
					"outputs": [],
					"stateMutability": "nonpayable",
					"type": "function"
				},
				{
					"inputs": [
						{
							"internalType": "address",
							"name": "newOwner",
							"type": "address"
						}
					],
					"name": "transferOwnership",
					"outputs": [],
					"stateMutability": "nonpayable",
					"type": "function"
				}
			],
			"devdoc": {
				"kind": "dev",
				"methods": {
					"owner()": {
						"details": "Returns the address of the current owner."
					},
					"renounceOwnership()": {
						"details": "Leaves the contract without owner. It will not be possible to call `onlyOwner` functions anymore. Can only be called by the current owner. NOTE: Renouncing ownership will leave the contract without an owner, thereby removing any functionality that is only available to the owner."
					},
					"transferOwnership(address)": {
						"details": "Transfers ownership of the contract to a new account (`newOwner`). Can only be called by the current owner."
					}
				},
				"version": 1
			},
			"evm": {
				"assembly": "    /* \"contracts/Utils.sol\":17761:23320  contract Utils is Ownable{... */\n  mstore(0x40, 0x80)\n    /* \"contracts/Utils.sol\":18011:18030  1000000000000000000 */\n  0x0de0b6b3a7640000\n    /* \"contracts/Utils.sol\":17994:18030  uint256 amount = 1000000000000000000 */\n  0x03\n  sstore\n    /* \"contracts/Utils.sol\":18099:18107  10512000 */\n  0xa06680\n    /* \"contracts/Utils.sol\":18073:18107  uint256 BLOCKS_PER_YEAR = 10512000 */\n  0x05\n  sstore\n    /* \"contracts/Utils.sol\":18117:18280  constructor(Router _routerAddress, address _WBNB, address _BUSD) {... */\n  callvalue\n  dup1\n  iszero\n  tag_1\n  jumpi\n  0x00\n  dup1\n  revert\ntag_1:\n  pop\n  mload(0x40)\n  sub(codesize, bytecodeSize)\n  dup1\n  bytecodeSize\n  dup4\n  codecopy\n  dup2\n  dup2\n  add\n  0x40\n  mstore\n  dup2\n  add\n  swap1\n  tag_2\n  swap2\n  swap1\n  tag_3\n  jump\t// in\ntag_2:\n    /* \"contracts/Utils.sol\":13728:13760  _transferOwnership(_msgSender()) */\n  tag_7\n    /* \"contracts/Utils.sol\":13747:13759  _msgSender() */\n  tag_8\n    /* \"contracts/Utils.sol\":13747:13757  _msgSender */\n  shl(0x20, tag_9)\n    /* \"contracts/Utils.sol\":13747:13759  _msgSender() */\n  0x20\n  shr\n  jump\t// in\ntag_8:\n    /* \"contracts/Utils.sol\":13728:13746  _transferOwnership */\n  shl(0x20, tag_10)\n    /* \"contracts/Utils.sol\":13728:13760  _transferOwnership(_msgSender()) */\n  0x20\n  shr\n  jump\t// in\ntag_7:\n    /* \"contracts/Utils.sol\":18210:18224  _routerAddress */\n  dup3\n    /* \"contracts/Utils.sol\":18194:18207  routerAddress */\n  0x04\n  0x00\n    /* \"contracts/Utils.sol\":18194:18224  routerAddress = _routerAddress */\n  0x0100\n  exp\n  dup2\n  sload\n  dup2\n  0xffffffffffffffffffffffffffffffffffffffff\n  mul\n  not\n  and\n  swap1\n  dup4\n  0xffffffffffffffffffffffffffffffffffffffff\n  and\n  mul\n  or\n  swap1\n  sstore\n  pop\n    /* \"contracts/Utils.sol\":18243:18248  _WBNB */\n  dup2\n    /* \"contracts/Utils.sol\":18236:18240  WBNB */\n  0x01\n  0x00\n    /* \"contracts/Utils.sol\":18236:18248  WBNB = _WBNB */\n  0x0100\n  exp\n  dup2\n  sload\n  dup2\n  0xffffffffffffffffffffffffffffffffffffffff\n  mul\n  not\n  and\n  swap1\n  dup4\n  0xffffffffffffffffffffffffffffffffffffffff\n  and\n  mul\n  or\n  swap1\n  sstore\n  pop\n    /* \"contracts/Utils.sol\":18267:18272  _BUSD */\n  dup1\n    /* \"contracts/Utils.sol\":18260:18264  BUSD */\n  0x02\n  0x00\n    /* \"contracts/Utils.sol\":18260:18272  BUSD = _BUSD */\n  0x0100\n  exp\n  dup2\n  sload\n  dup2\n  0xffffffffffffffffffffffffffffffffffffffff\n  mul\n  not\n  and\n  swap1\n  dup4\n  0xffffffffffffffffffffffffffffffffffffffff\n  and\n  mul\n  or\n  swap1\n  sstore\n  pop\n    /* \"contracts/Utils.sol\":18117:18280  constructor(Router _routerAddress, address _WBNB, address _BUSD) {... */\n  pop\n  pop\n  pop\n    /* \"contracts/Utils.sol\":17761:23320  contract Utils is Ownable{... */\n  jump(tag_12)\n    /* \"contracts/Utils.sol\":13223:13321  function _msgSender() internal view virtual returns (address) {... */\ntag_9:\n    /* \"contracts/Utils.sol\":13276:13283  address */\n  0x00\n    /* \"contracts/Utils.sol\":13303:13313  msg.sender */\n  caller\n    /* \"contracts/Utils.sol\":13296:13313  return msg.sender */\n  swap1\n  pop\n    /* \"contracts/Utils.sol\":13223:13321  function _msgSender() internal view virtual returns (address) {... */\n  swap1\n  jump\t// out\n    /* \"contracts/Utils.sol\":15119:15310  function _transferOwnership(address newOwner) internal virtual {... */\ntag_10:\n    /* \"contracts/Utils.sol\":15193:15209  address oldOwner */\n  0x00\n    /* \"contracts/Utils.sol\":15212:15218  _owner */\n  dup1\n  0x00\n  swap1\n  sload\n  swap1\n  0x0100\n  exp\n  swap1\n  div\n  0xffffffffffffffffffffffffffffffffffffffff\n  and\n    /* \"contracts/Utils.sol\":15193:15218  address oldOwner = _owner */\n  swap1\n  pop\n    /* \"contracts/Utils.sol\":15238:15246  newOwner */\n  dup2\n    /* \"contracts/Utils.sol\":15229:15235  _owner */\n  0x00\n  dup1\n    /* \"contracts/Utils.sol\":15229:15246  _owner = newOwner */\n  0x0100\n  exp\n  dup2\n  sload\n  dup2\n  0xffffffffffffffffffffffffffffffffffffffff\n  mul\n  not\n  and\n  swap1\n  dup4\n  0xffffffffffffffffffffffffffffffffffffffff\n  and\n  mul\n  or\n  swap1\n  sstore\n  pop\n    /* \"contracts/Utils.sol\":15293:15301  newOwner */\n  dup2\n    /* \"contracts/Utils.sol\":15262:15302  OwnershipTransferred(oldOwner, newOwner) */\n  0xffffffffffffffffffffffffffffffffffffffff\n  and\n    /* \"contracts/Utils.sol\":15283:15291  oldOwner */\n  dup2\n    /* \"contracts/Utils.sol\":15262:15302  OwnershipTransferred(oldOwner, newOwner) */\n  0xffffffffffffffffffffffffffffffffffffffff\n  and\n  0x8be0079c531659141344cd1fd0a4f28419497f9722a3daafe3b4186f6b6457e0\n  mload(0x40)\n  mload(0x40)\n  dup1\n  swap2\n  sub\n  swap1\n  log3\n    /* \"contracts/Utils.sol\":15182:15310  {... */\n  pop\n    /* \"contracts/Utils.sol\":15119:15310  function _transferOwnership(address newOwner) internal virtual {... */\n  pop\n  jump\t// out\n    /* \"#utility.yul\":88:205   */\ntag_16:\n    /* \"#utility.yul\":197:198   */\n  0x00\n    /* \"#utility.yul\":194:195   */\n  dup1\n    /* \"#utility.yul\":187:199   */\n  revert\n    /* \"#utility.yul\":334:460   */\ntag_18:\n    /* \"#utility.yul\":371:378   */\n  0x00\n    /* \"#utility.yul\":411:453   */\n  0xffffffffffffffffffffffffffffffffffffffff\n    /* \"#utility.yul\":404:409   */\n  dup3\n    /* \"#utility.yul\":400:454   */\n  and\n    /* \"#utility.yul\":389:454   */\n  swap1\n  pop\n    /* \"#utility.yul\":334:460   */\n  swap2\n  swap1\n  pop\n  jump\t// out\n    /* \"#utility.yul\":466:562   */\ntag_19:\n    /* \"#utility.yul\":503:510   */\n  0x00\n    /* \"#utility.yul\":532:556   */\n  tag_31\n    /* \"#utility.yul\":550:555   */\n  dup3\n    /* \"#utility.yul\":532:556   */\n  tag_18\n  jump\t// in\ntag_31:\n    /* \"#utility.yul\":521:556   */\n  swap1\n  pop\n    /* \"#utility.yul\":466:562   */\n  swap2\n  swap1\n  pop\n  jump\t// out\n    /* \"#utility.yul\":568:678   */\ntag_20:\n    /* \"#utility.yul\":619:626   */\n  0x00\n    /* \"#utility.yul\":648:672   */\n  tag_33\n    /* \"#utility.yul\":666:671   */\n  dup3\n    /* \"#utility.yul\":648:672   */\n  tag_19\n  jump\t// in\ntag_33:\n    /* \"#utility.yul\":637:672   */\n  swap1\n  pop\n    /* \"#utility.yul\":568:678   */\n  swap2\n  swap1\n  pop\n  jump\t// out\n    /* \"#utility.yul\":684:834   */\ntag_21:\n    /* \"#utility.yul\":771:809   */\n  tag_35\n    /* \"#utility.yul\":803:808   */\n  dup2\n    /* \"#utility.yul\":771:809   */\n  tag_20\n  jump\t// in\ntag_35:\n    /* \"#utility.yul\":764:769   */\n  dup2\n    /* \"#utility.yul\":761:810   */\n  eq\n    /* \"#utility.yul\":751:828   */\n  tag_36\n  jumpi\n    /* \"#utility.yul\":824:825   */\n  0x00\n    /* \"#utility.yul\":821:822   */\n  dup1\n    /* \"#utility.yul\":814:826   */\n  revert\n    /* \"#utility.yul\":751:828   */\ntag_36:\n    /* \"#utility.yul\":684:834   */\n  pop\n  jump\t// out\n    /* \"#utility.yul\":840:1011   */\ntag_22:\n    /* \"#utility.yul\":911:916   */\n  0x00\n    /* \"#utility.yul\":942:948   */\n  dup2\n    /* \"#utility.yul\":936:949   */\n  mload\n    /* \"#utility.yul\":927:949   */\n  swap1\n  pop\n    /* \"#utility.yul\":958:1005   */\n  tag_38\n    /* \"#utility.yul\":999:1004   */\n  dup2\n    /* \"#utility.yul\":958:1005   */\n  tag_21\n  jump\t// in\ntag_38:\n    /* \"#utility.yul\":840:1011   */\n  swap3\n  swap2\n  pop\n  pop\n  jump\t// out\n    /* \"#utility.yul\":1017:1139   */\ntag_23:\n    /* \"#utility.yul\":1090:1114   */\n  tag_40\n    /* \"#utility.yul\":1108:1113   */\n  dup2\n    /* \"#utility.yul\":1090:1114   */\n  tag_19\n  jump\t// in\ntag_40:\n    /* \"#utility.yul\":1083:1088   */\n  dup2\n    /* \"#utility.yul\":1080:1115   */\n  eq\n    /* \"#utility.yul\":1070:1133   */\n  tag_41\n  jumpi\n    /* \"#utility.yul\":1129:1130   */\n  0x00\n    /* \"#utility.yul\":1126:1127   */\n  dup1\n    /* \"#utility.yul\":1119:1131   */\n  revert\n    /* \"#utility.yul\":1070:1133   */\ntag_41:\n    /* \"#utility.yul\":1017:1139   */\n  pop\n  jump\t// out\n    /* \"#utility.yul\":1145:1288   */\ntag_24:\n    /* \"#utility.yul\":1202:1207   */\n  0x00\n    /* \"#utility.yul\":1233:1239   */\n  dup2\n    /* \"#utility.yul\":1227:1240   */\n  mload\n    /* \"#utility.yul\":1218:1240   */\n  swap1\n  pop\n    /* \"#utility.yul\":1249:1282   */\n  tag_43\n    /* \"#utility.yul\":1276:1281   */\n  dup2\n    /* \"#utility.yul\":1249:1282   */\n  tag_23\n  jump\t// in\ntag_43:\n    /* \"#utility.yul\":1145:1288   */\n  swap3\n  swap2\n  pop\n  pop\n  jump\t// out\n    /* \"#utility.yul\":1294:1985   */\ntag_3:\n    /* \"#utility.yul\":1396:1402   */\n  0x00\n    /* \"#utility.yul\":1404:1410   */\n  dup1\n    /* \"#utility.yul\":1412:1418   */\n  0x00\n    /* \"#utility.yul\":1461:1463   */\n  0x60\n    /* \"#utility.yul\":1449:1458   */\n  dup5\n    /* \"#utility.yul\":1440:1447   */\n  dup7\n    /* \"#utility.yul\":1436:1459   */\n  sub\n    /* \"#utility.yul\":1432:1464   */\n  slt\n    /* \"#utility.yul\":1429:1548   */\n  iszero\n  tag_45\n  jumpi\n    /* \"#utility.yul\":1467:1546   */\n  tag_46\n  tag_16\n  jump\t// in\ntag_46:\n    /* \"#utility.yul\":1429:1548   */\ntag_45:\n    /* \"#utility.yul\":1587:1588   */\n  0x00\n    /* \"#utility.yul\":1612:1690   */\n  tag_47\n    /* \"#utility.yul\":1682:1689   */\n  dup7\n    /* \"#utility.yul\":1673:1679   */\n  dup3\n    /* \"#utility.yul\":1662:1671   */\n  dup8\n    /* \"#utility.yul\":1658:1680   */\n  add\n    /* \"#utility.yul\":1612:1690   */\n  tag_22\n  jump\t// in\ntag_47:\n    /* \"#utility.yul\":1602:1690   */\n  swap4\n  pop\n    /* \"#utility.yul\":1558:1700   */\n  pop\n    /* \"#utility.yul\":1739:1741   */\n  0x20\n    /* \"#utility.yul\":1765:1829   */\n  tag_48\n    /* \"#utility.yul\":1821:1828   */\n  dup7\n    /* \"#utility.yul\":1812:1818   */\n  dup3\n    /* \"#utility.yul\":1801:1810   */\n  dup8\n    /* \"#utility.yul\":1797:1819   */\n  add\n    /* \"#utility.yul\":1765:1829   */\n  tag_24\n  jump\t// in\ntag_48:\n    /* \"#utility.yul\":1755:1829   */\n  swap3\n  pop\n    /* \"#utility.yul\":1710:1839   */\n  pop\n    /* \"#utility.yul\":1878:1880   */\n  0x40\n    /* \"#utility.yul\":1904:1968   */\n  tag_49\n    /* \"#utility.yul\":1960:1967   */\n  dup7\n    /* \"#utility.yul\":1951:1957   */\n  dup3\n    /* \"#utility.yul\":1940:1949   */\n  dup8\n    /* \"#utility.yul\":1936:1958   */\n  add\n    /* \"#utility.yul\":1904:1968   */\n  tag_24\n  jump\t// in\ntag_49:\n    /* \"#utility.yul\":1894:1968   */\n  swap2\n  pop\n    /* \"#utility.yul\":1849:1978   */\n  pop\n    /* \"#utility.yul\":1294:1985   */\n  swap3\n  pop\n  swap3\n  pop\n  swap3\n  jump\t// out\n    /* \"contracts/Utils.sol\":17761:23320  contract Utils is Ownable{... */\ntag_12:\n  dataSize(sub_0)\n  dup1\n  dataOffset(sub_0)\n  0x00\n  codecopy\n  0x00\n  return\nstop\n\nsub_0: assembly {\n        /* \"contracts/Utils.sol\":17761:23320  contract Utils is Ownable{... */\n      mstore(0x40, 0x80)\n      callvalue\n      dup1\n      iszero\n      tag_1\n      jumpi\n      0x00\n      dup1\n      revert\n    tag_1:\n      pop\n      jumpi(tag_2, lt(calldatasize, 0x04))\n      shr(0xe0, calldataload(0x00))\n      dup1\n      0x484f4ea9\n      gt\n      tag_20\n      jumpi\n      dup1\n      0x8dd95002\n      gt\n      tag_21\n      jumpi\n      dup1\n      0x8dd95002\n      eq\n      tag_15\n      jumpi\n      dup1\n      0xc0d78655\n      eq\n      tag_16\n      jumpi\n      dup1\n      0xd979fb5f\n      eq\n      tag_17\n      jumpi\n      dup1\n      0xdbb79348\n      eq\n      tag_18\n      jumpi\n      dup1\n      0xf2fde38b\n      eq\n      tag_19\n      jumpi\n      jump(tag_2)\n    tag_21:\n      dup1\n      0x484f4ea9\n      eq\n      tag_11\n      jumpi\n      dup1\n      0x55b44eaf\n      eq\n      tag_12\n      jumpi\n      dup1\n      0x715018a6\n      eq\n      tag_13\n      jumpi\n      dup1\n      0x8da5cb5b\n      eq\n      tag_14\n      jumpi\n      jump(tag_2)\n    tag_20:\n      dup1\n      0x215cc989\n      gt\n      tag_22\n      jumpi\n      dup1\n      0x215cc989\n      eq\n      tag_7\n      jumpi\n      dup1\n      0x2f7c5980\n      eq\n      tag_8\n      jumpi\n      dup1\n      0x3268cc56\n      eq\n      tag_9\n      jumpi\n      dup1\n      0x3b979d45\n      eq\n      tag_10\n      jumpi\n      jump(tag_2)\n    tag_22:\n      dup1\n      0x0ce0e3f5\n      eq\n      tag_3\n      jumpi\n      dup1\n      0x1616f124\n      eq\n      tag_4\n      jumpi\n      dup1\n      0x1858882b\n      eq\n      tag_5\n      jumpi\n      dup1\n      0x19047f8a\n      eq\n      tag_6\n      jumpi\n    tag_2:\n      0x00\n      dup1\n      revert\n        /* \"contracts/Utils.sol\":21708:22191  function CalcApyNFTFarm(uint256 pid,uint256 isLp, NFTMasterChef MasterChef) external view returns(uint256){... */\n    tag_3:\n      tag_23\n      0x04\n      dup1\n      calldatasize\n      sub\n      dup2\n      add\n      swap1\n      tag_24\n      swap2\n      swap1\n      tag_25\n      jump\t// in\n    tag_24:\n      tag_26\n      jump\t// in\n    tag_23:\n      mload(0x40)\n      tag_27\n      swap2\n      swap1\n      tag_28\n      jump\t// in\n    tag_27:\n      mload(0x40)\n      dup1\n      swap2\n      sub\n      swap1\n      return\n        /* \"contracts/Utils.sol\":20412:20990  function calcPoolTVLInUSDNFTFarm(LP lpAddress, uint256 isLp, MetaMasterChef MasterChef) public view returns(uint256){... */\n    tag_4:\n      tag_29\n      0x04\n      dup1\n      calldatasize\n      sub\n      dup2\n      add\n      swap1\n      tag_30\n      swap2\n      swap1\n      tag_31\n      jump\t// in\n    tag_30:\n      tag_32\n      jump\t// in\n    tag_29:\n      mload(0x40)\n      tag_33\n      swap2\n      swap1\n      tag_28\n      jump\t// in\n    tag_33:\n      mload(0x40)\n      dup1\n      swap2\n      sub\n      swap1\n      return\n        /* \"contracts/Utils.sol\":22848:23317  function CalcTotalTVLNFTFarm(MetaMasterChef MasterChef,LP[] memory lpAddress) external view returns(uint256){... */\n    tag_5:\n      tag_34\n      0x04\n      dup1\n      calldatasize\n      sub\n      dup2\n      add\n      swap1\n      tag_35\n      swap2\n      swap1\n      tag_36\n      jump\t// in\n    tag_35:\n      tag_37\n      jump\t// in\n    tag_34:\n      mload(0x40)\n      tag_38\n      swap2\n      swap1\n      tag_28\n      jump\t// in\n    tag_38:\n      mload(0x40)\n      dup1\n      swap2\n      sub\n      swap1\n      return\n        /* \"contracts/Utils.sol\":18420:18679  function Tokenprice(address token) public view returns(uint256){... */\n    tag_6:\n      tag_39\n      0x04\n      dup1\n      calldatasize\n      sub\n      dup2\n      add\n      swap1\n      tag_40\n      swap2\n      swap1\n      tag_41\n      jump\t// in\n    tag_40:\n      tag_42\n      jump\t// in\n    tag_39:\n      mload(0x40)\n      tag_43\n      swap2\n      swap1\n      tag_28\n      jump\t// in\n    tag_43:\n      mload(0x40)\n      dup1\n      swap2\n      sub\n      swap1\n      return\n        /* \"contracts/Utils.sol\":18962:19810  function CalcLpPrice(LP lpAddress) public view returns(uint256){... */\n    tag_7:\n      tag_44\n      0x04\n      dup1\n      calldatasize\n      sub\n      dup2\n      add\n      swap1\n      tag_45\n      swap2\n      swap1\n      tag_46\n      jump\t// in\n    tag_45:\n      tag_47\n      jump\t// in\n    tag_44:\n      mload(0x40)\n      tag_48\n      swap2\n      swap1\n      tag_28\n      jump\t// in\n    tag_48:\n      mload(0x40)\n      dup1\n      swap2\n      sub\n      swap1\n      return\n        /* \"contracts/Utils.sol\":22199:22378  function isLpAddress(LP lpAddress) public view returns(uint256){... */\n    tag_8:\n      tag_49\n      0x04\n      dup1\n      calldatasize\n      sub\n      dup2\n      add\n      swap1\n      tag_50\n      swap2\n      swap1\n      tag_46\n      jump\t// in\n    tag_50:\n      tag_51\n      jump\t// in\n    tag_49:\n      mload(0x40)\n      tag_52\n      swap2\n      swap1\n      tag_28\n      jump\t// in\n    tag_52:\n      mload(0x40)\n      dup1\n      swap2\n      sub\n      swap1\n      return\n        /* \"contracts/Utils.sol\":18037:18064  Router public routerAddress */\n    tag_9:\n      tag_53\n      tag_54\n      jump\t// in\n    tag_53:\n      mload(0x40)\n      tag_55\n      swap2\n      swap1\n      tag_56\n      jump\t// in\n    tag_55:\n      mload(0x40)\n      dup1\n      swap2\n      sub\n      swap1\n      return\n        /* \"contracts/Utils.sol\":18704:18937  function WBNBPrice(address token) public view returns(uint256){... */\n    tag_10:\n      tag_57\n      0x04\n      dup1\n      calldatasize\n      sub\n      dup2\n      add\n      swap1\n      tag_58\n      swap2\n      swap1\n      tag_41\n      jump\t// in\n    tag_58:\n      tag_59\n      jump\t// in\n    tag_57:\n      mload(0x40)\n      tag_60\n      swap2\n      swap1\n      tag_28\n      jump\t// in\n    tag_60:\n      mload(0x40)\n      dup1\n      swap2\n      sub\n      swap1\n      return\n        /* \"contracts/Utils.sol\":17968:17987  address public BUSD */\n    tag_11:\n      tag_61\n      tag_62\n      jump\t// in\n    tag_61:\n      mload(0x40)\n      tag_63\n      swap2\n      swap1\n      tag_64\n      jump\t// in\n    tag_63:\n      mload(0x40)\n      dup1\n      swap2\n      sub\n      swap1\n      return\n        /* \"contracts/Utils.sol\":22386:22840  function CalcTotalTVL(MetaMasterChef MasterChef,LP[] memory lpAddress) external view returns(uint256){... */\n    tag_12:\n      tag_65\n      0x04\n      dup1\n      calldatasize\n      sub\n      dup2\n      add\n      swap1\n      tag_66\n      swap2\n      swap1\n      tag_36\n      jump\t// in\n    tag_66:\n      tag_67\n      jump\t// in\n    tag_65:\n      mload(0x40)\n      tag_68\n      swap2\n      swap1\n      tag_28\n      jump\t// in\n    tag_68:\n      mload(0x40)\n      dup1\n      swap2\n      sub\n      swap1\n      return\n        /* \"contracts/Utils.sol\":14500:14603  function renounceOwnership() public virtual onlyOwner {... */\n    tag_13:\n      tag_69\n      tag_70\n      jump\t// in\n    tag_69:\n      stop\n        /* \"contracts/Utils.sol\":13849:13936  function owner() public view virtual returns (address) {... */\n    tag_14:\n      tag_71\n      tag_72\n      jump\t// in\n    tag_71:\n      mload(0x40)\n      tag_73\n      swap2\n      swap1\n      tag_64\n      jump\t// in\n    tag_73:\n      mload(0x40)\n      dup1\n      swap2\n      sub\n      swap1\n      return\n        /* \"contracts/Utils.sol\":17942:17961  address public WBNB */\n    tag_15:\n      tag_74\n      tag_75\n      jump\t// in\n    tag_74:\n      mload(0x40)\n      tag_76\n      swap2\n      swap1\n      tag_64\n      jump\t// in\n    tag_76:\n      mload(0x40)\n      dup1\n      swap2\n      sub\n      swap1\n      return\n        /* \"contracts/Utils.sol\":18288:18395  function setRouter(Router _routerAddress) public onlyOwner{... */\n    tag_16:\n      tag_77\n      0x04\n      dup1\n      calldatasize\n      sub\n      dup2\n      add\n      swap1\n      tag_78\n      swap2\n      swap1\n      tag_79\n      jump\t// in\n    tag_78:\n      tag_80\n      jump\t// in\n    tag_77:\n      stop\n        /* \"contracts/Utils.sol\":19833:20404  function calcPoolTVLInUSD(uint256 pid, LP lpAddress, uint256 isLp, MetaMasterChef MasterChef) public view returns(uint256){... */\n    tag_17:\n      tag_81\n      0x04\n      dup1\n      calldatasize\n      sub\n      dup2\n      add\n      swap1\n      tag_82\n      swap2\n      swap1\n      tag_83\n      jump\t// in\n    tag_82:\n      tag_84\n      jump\t// in\n    tag_81:\n      mload(0x40)\n      tag_85\n      swap2\n      swap1\n      tag_28\n      jump\t// in\n    tag_85:\n      mload(0x40)\n      dup1\n      swap2\n      sub\n      swap1\n      return\n        /* \"contracts/Utils.sol\":20998:21700  function CalcApy(uint256 pid, LP lpAddress,uint256 isLp, MetaMasterChef MasterChef) external view returns(uint256){... */\n    tag_18:\n      tag_86\n      0x04\n      dup1\n      calldatasize\n      sub\n      dup2\n      add\n      swap1\n      tag_87\n      swap2\n      swap1\n      tag_83\n      jump\t// in\n    tag_87:\n      tag_88\n      jump\t// in\n    tag_86:\n      mload(0x40)\n      tag_89\n      swap2\n      swap1\n      tag_28\n      jump\t// in\n    tag_89:\n      mload(0x40)\n      dup1\n      swap2\n      sub\n      swap1\n      return\n        /* \"contracts/Utils.sol\":14758:14959  function transferOwnership(address newOwner) public virtual onlyOwner {... */\n    tag_19:\n      tag_90\n      0x04\n      dup1\n      calldatasize\n      sub\n      dup2\n      add\n      swap1\n      tag_91\n      swap2\n      swap1\n      tag_41\n      jump\t// in\n    tag_91:\n      tag_92\n      jump\t// in\n    tag_90:\n      stop\n        /* \"contracts/Utils.sol\":21708:22191  function CalcApyNFTFarm(uint256 pid,uint256 isLp, NFTMasterChef MasterChef) external view returns(uint256){... */\n    tag_26:\n        /* \"contracts/Utils.sol\":21806:21813  uint256 */\n      0x00\n        /* \"contracts/Utils.sol\":21825:21845  PoolInfo memory pool */\n      dup1\n        /* \"contracts/Utils.sol\":21848:21858  MasterChef */\n      dup3\n        /* \"contracts/Utils.sol\":21848:21867  MasterChef.poolInfo */\n      0xffffffffffffffffffffffffffffffffffffffff\n      and\n      0x1526fe27\n        /* \"contracts/Utils.sol\":21868:21871  pid */\n      dup7\n        /* \"contracts/Utils.sol\":21848:21872  MasterChef.poolInfo(pid) */\n      mload(0x40)\n      dup3\n      0xffffffff\n      and\n      0xe0\n      shl\n      dup2\n      mstore\n      0x04\n      add\n      tag_94\n      swap2\n      swap1\n      tag_28\n      jump\t// in\n    tag_94:\n      0xc0\n      mload(0x40)\n      dup1\n      dup4\n      sub\n      dup2\n      dup7\n      gas\n      staticcall\n      iszero\n      dup1\n      iszero\n      tag_96\n      jumpi\n      returndatasize\n      0x00\n      dup1\n      returndatacopy\n      revert(0x00, returndatasize)\n    tag_96:\n      pop\n      pop\n      pop\n      pop\n      mload(0x40)\n      returndatasize\n      not(0x1f)\n      0x1f\n      dup3\n      add\n      and\n      dup3\n      add\n      dup1\n      0x40\n      mstore\n      pop\n      dup2\n      add\n      swap1\n      tag_97\n      swap2\n      swap1\n      tag_98\n      jump\t// in\n    tag_97:\n        /* \"contracts/Utils.sol\":21825:21872  PoolInfo memory pool = MasterChef.poolInfo(pid) */\n      swap1\n      pop\n        /* \"contracts/Utils.sol\":21883:21901  uint256 allocPoint */\n      0x00\n        /* \"contracts/Utils.sol\":21904:21908  pool */\n      dup2\n        /* \"contracts/Utils.sol\":21904:21919  pool.allocPoint */\n      0x20\n      add\n      mload\n        /* \"contracts/Utils.sol\":21883:21919  uint256 allocPoint = pool.allocPoint */\n      swap1\n      pop\n        /* \"contracts/Utils.sol\":21930:21953  uint256 totalAllocPoint */\n      0x00\n        /* \"contracts/Utils.sol\":21956:21966  MasterChef */\n      dup5\n        /* \"contracts/Utils.sol\":21956:21982  MasterChef.totalAllocPoint */\n      0xffffffffffffffffffffffffffffffffffffffff\n      and\n      0x17caf6f1\n        /* \"contracts/Utils.sol\":21956:21984  MasterChef.totalAllocPoint() */\n      mload(0x40)\n      dup2\n      0xffffffff\n      and\n      0xe0\n      shl\n      dup2\n      mstore\n      0x04\n      add\n      0x20\n      mload(0x40)\n      dup1\n      dup4\n      sub\n      dup2\n      dup7\n      gas\n      staticcall\n      iszero\n      dup1\n      iszero\n      tag_100\n      jumpi\n      returndatasize\n      0x00\n      dup1\n      returndatacopy\n      revert(0x00, returndatasize)\n    tag_100:\n      pop\n      pop\n      pop\n      pop\n      mload(0x40)\n      returndatasize\n      not(0x1f)\n      0x1f\n      dup3\n      add\n      and\n      dup3\n      add\n      dup1\n      0x40\n      mstore\n      pop\n      dup2\n      add\n      swap1\n      tag_101\n      swap2\n      swap1\n      tag_102\n      jump\t// in\n    tag_101:\n        /* \"contracts/Utils.sol\":21930:21984  uint256 totalAllocPoint = MasterChef.totalAllocPoint() */\n      swap1\n      pop\n        /* \"contracts/Utils.sol\":21995:22016  uint256 PowerPerBlock */\n      0x00\n        /* \"contracts/Utils.sol\":22019:22029  MasterChef */\n      dup6\n        /* \"contracts/Utils.sol\":22019:22043  MasterChef.PowerPerBlock */\n      0xffffffffffffffffffffffffffffffffffffffff\n      and\n      0x5990c569\n        /* \"contracts/Utils.sol\":22019:22045  MasterChef.PowerPerBlock() */\n      mload(0x40)\n      dup2\n      0xffffffff\n      and\n      0xe0\n      shl\n      dup2\n      mstore\n      0x04\n      add\n      0x20\n      mload(0x40)\n      dup1\n      dup4\n      sub\n      dup2\n      dup7\n      gas\n      staticcall\n      iszero\n      dup1\n      iszero\n      tag_104\n      jumpi\n      returndatasize\n      0x00\n      dup1\n      returndatacopy\n      revert(0x00, returndatasize)\n    tag_104:\n      pop\n      pop\n      pop\n      pop\n      mload(0x40)\n      returndatasize\n      not(0x1f)\n      0x1f\n      dup3\n      add\n      and\n      dup3\n      add\n      dup1\n      0x40\n      mstore\n      pop\n      dup2\n      add\n      swap1\n      tag_105\n      swap2\n      swap1\n      tag_102\n      jump\t// in\n    tag_105:\n        /* \"contracts/Utils.sol\":21995:22045  uint256 PowerPerBlock = MasterChef.PowerPerBlock() */\n      swap1\n      pop\n        /* \"contracts/Utils.sol\":22056:22077  uint256 Power_PER_DAY */\n      0x00\n        /* \"contracts/Utils.sol\":22114:22117  365 */\n      0x016d\n        /* \"contracts/Utils.sol\":22099:22112  PowerPerBlock */\n      dup3\n        /* \"contracts/Utils.sol\":22081:22096  BLOCKS_PER_YEAR */\n      sload(0x05)\n        /* \"contracts/Utils.sol\":22081:22112  BLOCKS_PER_YEAR * PowerPerBlock */\n      tag_106\n      swap2\n      swap1\n      tag_107\n      jump\t// in\n    tag_106:\n        /* \"contracts/Utils.sol\":22080:22117  (BLOCKS_PER_YEAR * PowerPerBlock)/365 */\n      tag_108\n      swap2\n      swap1\n      tag_109\n      jump\t// in\n    tag_108:\n        /* \"contracts/Utils.sol\":22056:22117  uint256 Power_PER_DAY = (BLOCKS_PER_YEAR * PowerPerBlock)/365 */\n      swap1\n      pop\n        /* \"contracts/Utils.sol\":22168:22183  totalAllocPoint */\n      dup3\n        /* \"contracts/Utils.sol\":22154:22164  allocPoint */\n      dup5\n        /* \"contracts/Utils.sol\":22138:22151  Power_PER_DAY */\n      dup3\n        /* \"contracts/Utils.sol\":22138:22164  Power_PER_DAY * allocPoint */\n      tag_110\n      swap2\n      swap1\n      tag_107\n      jump\t// in\n    tag_110:\n        /* \"contracts/Utils.sol\":22137:22183  (Power_PER_DAY * allocPoint) / totalAllocPoint */\n      tag_111\n      swap2\n      swap1\n      tag_109\n      jump\t// in\n    tag_111:\n        /* \"contracts/Utils.sol\":22130:22183  return (Power_PER_DAY * allocPoint) / totalAllocPoint */\n      swap6\n      pop\n      pop\n      pop\n      pop\n      pop\n      pop\n        /* \"contracts/Utils.sol\":21708:22191  function CalcApyNFTFarm(uint256 pid,uint256 isLp, NFTMasterChef MasterChef) external view returns(uint256){... */\n      swap4\n      swap3\n      pop\n      pop\n      pop\n      jump\t// out\n        /* \"contracts/Utils.sol\":20412:20990  function calcPoolTVLInUSDNFTFarm(LP lpAddress, uint256 isLp, MetaMasterChef MasterChef) public view returns(uint256){... */\n    tag_32:\n        /* \"contracts/Utils.sol\":20520:20527  uint256 */\n      0x00\n        /* \"contracts/Utils.sol\":20539:20554  uint256 Balance */\n      dup1\n        /* \"contracts/Utils.sol\":20557:20566  lpAddress */\n      dup5\n        /* \"contracts/Utils.sol\":20557:20576  lpAddress.balanceOf */\n      0xffffffffffffffffffffffffffffffffffffffff\n      and\n      0x70a08231\n        /* \"contracts/Utils.sol\":20585:20595  MasterChef */\n      dup5\n        /* \"contracts/Utils.sol\":20557:20597  lpAddress.balanceOf(address(MasterChef)) */\n      mload(0x40)\n      dup3\n      0xffffffff\n      and\n      0xe0\n      shl\n      dup2\n      mstore\n      0x04\n      add\n      tag_113\n      swap2\n      swap1\n      tag_64\n      jump\t// in\n    tag_113:\n      0x20\n      mload(0x40)\n      dup1\n      dup4\n      sub\n      dup2\n      dup7\n      gas\n      staticcall\n      iszero\n      dup1\n      iszero\n      tag_115\n      jumpi\n      returndatasize\n      0x00\n      dup1\n      returndatacopy\n      revert(0x00, returndatasize)\n    tag_115:\n      pop\n      pop\n      pop\n      pop\n      mload(0x40)\n      returndatasize\n      not(0x1f)\n      0x1f\n      dup3\n      add\n      and\n      dup3\n      add\n      dup1\n      0x40\n      mstore\n      pop\n      dup2\n      add\n      swap1\n      tag_116\n      swap2\n      swap1\n      tag_102\n      jump\t// in\n    tag_116:\n        /* \"contracts/Utils.sol\":20539:20597  uint256 Balance = lpAddress.balanceOf(address(MasterChef)) */\n      swap1\n      pop\n        /* \"contracts/Utils.sol\":20608:20621  uint256 price */\n      0x00\n        /* \"contracts/Utils.sol\":20643:20644  1 */\n      0x01\n        /* \"contracts/Utils.sol\":20635:20639  isLp */\n      dup6\n        /* \"contracts/Utils.sol\":20635:20644  isLp == 1 */\n      sub\n        /* \"contracts/Utils.sol\":20632:20934  if(isLp == 1){... */\n      tag_117\n      jumpi\n        /* \"contracts/Utils.sol\":20668:20690  CalcLpPrice(lpAddress) */\n      tag_118\n        /* \"contracts/Utils.sol\":20680:20689  lpAddress */\n      dup7\n        /* \"contracts/Utils.sol\":20668:20679  CalcLpPrice */\n      tag_47\n        /* \"contracts/Utils.sol\":20668:20690  CalcLpPrice(lpAddress) */\n      jump\t// in\n    tag_118:\n        /* \"contracts/Utils.sol\":20660:20690  price = CalcLpPrice(lpAddress) */\n      swap1\n      pop\n        /* \"contracts/Utils.sol\":20632:20934  if(isLp == 1){... */\n      jump(tag_119)\n    tag_117:\n        /* \"contracts/Utils.sol\":20718:20719  0 */\n      0x00\n        /* \"contracts/Utils.sol\":20710:20714  isLp */\n      dup6\n        /* \"contracts/Utils.sol\":20710:20719  isLp == 0 */\n      sub\n        /* \"contracts/Utils.sol\":20707:20934  if(isLp == 0){... */\n      tag_120\n      jumpi\n        /* \"contracts/Utils.sol\":20763:20772  lpAddress */\n      dup6\n        /* \"contracts/Utils.sol\":20738:20773  address(WBNB) == address(lpAddress) */\n      0xffffffffffffffffffffffffffffffffffffffff\n      and\n        /* \"contracts/Utils.sol\":20746:20750  WBNB */\n      0x01\n      0x00\n      swap1\n      sload\n      swap1\n      0x0100\n      exp\n      swap1\n      div\n      0xffffffffffffffffffffffffffffffffffffffff\n      and\n        /* \"contracts/Utils.sol\":20738:20773  address(WBNB) == address(lpAddress) */\n      0xffffffffffffffffffffffffffffffffffffffff\n      and\n      sub\n        /* \"contracts/Utils.sol\":20735:20923  if(address(WBNB) == address(lpAddress)){... */\n      tag_121\n      jumpi\n        /* \"contracts/Utils.sol\":20801:20830  WBNBPrice(address(lpAddress)) */\n      tag_122\n        /* \"contracts/Utils.sol\":20819:20828  lpAddress */\n      dup7\n        /* \"contracts/Utils.sol\":20801:20810  WBNBPrice */\n      tag_59\n        /* \"contracts/Utils.sol\":20801:20830  WBNBPrice(address(lpAddress)) */\n      jump\t// in\n    tag_122:\n        /* \"contracts/Utils.sol\":20793:20830  price = WBNBPrice(address(lpAddress)) */\n      swap1\n      pop\n        /* \"contracts/Utils.sol\":20735:20923  if(address(WBNB) == address(lpAddress)){... */\n      jump(tag_123)\n    tag_121:\n        /* \"contracts/Utils.sol\":20877:20907  Tokenprice(address(lpAddress)) */\n      tag_124\n        /* \"contracts/Utils.sol\":20896:20905  lpAddress */\n      dup7\n        /* \"contracts/Utils.sol\":20877:20887  Tokenprice */\n      tag_42\n        /* \"contracts/Utils.sol\":20877:20907  Tokenprice(address(lpAddress)) */\n      jump\t// in\n    tag_124:\n        /* \"contracts/Utils.sol\":20869:20907  price = Tokenprice(address(lpAddress)) */\n      swap1\n      pop\n        /* \"contracts/Utils.sol\":20735:20923  if(address(WBNB) == address(lpAddress)){... */\n    tag_123:\n        /* \"contracts/Utils.sol\":20707:20934  if(isLp == 0){... */\n    tag_120:\n        /* \"contracts/Utils.sol\":20632:20934  if(isLp == 1){... */\n    tag_119:\n        /* \"contracts/Utils.sol\":20953:20982  (Balance * price).div(amount) */\n      tag_125\n        /* \"contracts/Utils.sol\":20975:20981  amount */\n      sload(0x03)\n        /* \"contracts/Utils.sol\":20964:20969  price */\n      dup3\n        /* \"contracts/Utils.sol\":20954:20961  Balance */\n      dup5\n        /* \"contracts/Utils.sol\":20954:20969  Balance * price */\n      tag_126\n      swap2\n      swap1\n      tag_107\n      jump\t// in\n    tag_126:\n        /* \"contracts/Utils.sol\":20953:20974  (Balance * price).div */\n      tag_127\n      swap1\n        /* \"contracts/Utils.sol\":20953:20982  (Balance * price).div(amount) */\n      swap2\n      swap1\n      0xffffffff\n      and\n      jump\t// in\n    tag_125:\n        /* \"contracts/Utils.sol\":20946:20982  return (Balance * price).div(amount) */\n      swap3\n      pop\n      pop\n      pop\n        /* \"contracts/Utils.sol\":20412:20990  function calcPoolTVLInUSDNFTFarm(LP lpAddress, uint256 isLp, MetaMasterChef MasterChef) public view returns(uint256){... */\n      swap4\n      swap3\n      pop\n      pop\n      pop\n      jump\t// out\n        /* \"contracts/Utils.sol\":22848:23317  function CalcTotalTVLNFTFarm(MetaMasterChef MasterChef,LP[] memory lpAddress) external view returns(uint256){... */\n    tag_37:\n        /* \"contracts/Utils.sol\":22948:22955  uint256 */\n      0x00\n        /* \"contracts/Utils.sol\":22967:22978  uint256 TVL */\n      dup1\n        /* \"contracts/Utils.sol\":22981:22982  0 */\n      0x00\n        /* \"contracts/Utils.sol\":22967:22982  uint256 TVL = 0 */\n      swap1\n      pop\n        /* \"contracts/Utils.sol\":22997:23006  uint256 i */\n      0x00\n        /* \"contracts/Utils.sol\":22993:23287  for(uint256 i=0; i< lpAddress.length; i++){... */\n    tag_129:\n        /* \"contracts/Utils.sol\":23013:23022  lpAddress */\n      dup4\n        /* \"contracts/Utils.sol\":23013:23029  lpAddress.length */\n      mload\n        /* \"contracts/Utils.sol\":23010:23011  i */\n      dup2\n        /* \"contracts/Utils.sol\":23010:23029  i< lpAddress.length */\n      lt\n        /* \"contracts/Utils.sol\":22993:23287  for(uint256 i=0; i< lpAddress.length; i++){... */\n      iszero\n      tag_130\n      jumpi\n        /* \"contracts/Utils.sol\":23082:23083  1 */\n      0x01\n        /* \"contracts/Utils.sol\":23053:23078  isLpAddress(lpAddress[i]) */\n      tag_132\n        /* \"contracts/Utils.sol\":23065:23074  lpAddress */\n      dup6\n        /* \"contracts/Utils.sol\":23075:23076  i */\n      dup4\n        /* \"contracts/Utils.sol\":23065:23077  lpAddress[i] */\n      dup2\n      mload\n      dup2\n      lt\n      tag_133\n      jumpi\n      tag_134\n      tag_135\n      jump\t// in\n    tag_134:\n    tag_133:\n      0x20\n      mul\n      0x20\n      add\n      add\n      mload\n        /* \"contracts/Utils.sol\":23053:23064  isLpAddress */\n      tag_51\n        /* \"contracts/Utils.sol\":23053:23078  isLpAddress(lpAddress[i]) */\n      jump\t// in\n    tag_132:\n        /* \"contracts/Utils.sol\":23053:23083  isLpAddress(lpAddress[i]) == 1 */\n      sub\n        /* \"contracts/Utils.sol\":23050:23276  if(isLpAddress(lpAddress[i]) == 1){... */\n      tag_136\n      jumpi\n        /* \"contracts/Utils.sol\":23110:23162  calcPoolTVLInUSDNFTFarm(lpAddress[i], 1, MasterChef) */\n      tag_137\n        /* \"contracts/Utils.sol\":23134:23143  lpAddress */\n      dup5\n        /* \"contracts/Utils.sol\":23144:23145  i */\n      dup3\n        /* \"contracts/Utils.sol\":23134:23146  lpAddress[i] */\n      dup2\n      mload\n      dup2\n      lt\n      tag_138\n      jumpi\n      tag_139\n      tag_135\n      jump\t// in\n    tag_139:\n    tag_138:\n      0x20\n      mul\n      0x20\n      add\n      add\n      mload\n        /* \"contracts/Utils.sol\":23148:23149  1 */\n      0x01\n        /* \"contracts/Utils.sol\":23151:23161  MasterChef */\n      dup8\n        /* \"contracts/Utils.sol\":23110:23133  calcPoolTVLInUSDNFTFarm */\n      tag_32\n        /* \"contracts/Utils.sol\":23110:23162  calcPoolTVLInUSDNFTFarm(lpAddress[i], 1, MasterChef) */\n      jump\t// in\n    tag_137:\n        /* \"contracts/Utils.sol\":23103:23162  TVL += calcPoolTVLInUSDNFTFarm(lpAddress[i], 1, MasterChef) */\n      dup3\n      tag_140\n      swap2\n      swap1\n      tag_141\n      jump\t// in\n    tag_140:\n      swap2\n      pop\n        /* \"contracts/Utils.sol\":23050:23276  if(isLpAddress(lpAddress[i]) == 1){... */\n      jump(tag_142)\n    tag_136:\n        /* \"contracts/Utils.sol\":23208:23260  calcPoolTVLInUSDNFTFarm(lpAddress[i], 0, MasterChef) */\n      tag_143\n        /* \"contracts/Utils.sol\":23232:23241  lpAddress */\n      dup5\n        /* \"contracts/Utils.sol\":23242:23243  i */\n      dup3\n        /* \"contracts/Utils.sol\":23232:23244  lpAddress[i] */\n      dup2\n      mload\n      dup2\n      lt\n      tag_144\n      jumpi\n      tag_145\n      tag_135\n      jump\t// in\n    tag_145:\n    tag_144:\n      0x20\n      mul\n      0x20\n      add\n      add\n      mload\n        /* \"contracts/Utils.sol\":23246:23247  0 */\n      0x00\n        /* \"contracts/Utils.sol\":23249:23259  MasterChef */\n      dup8\n        /* \"contracts/Utils.sol\":23208:23231  calcPoolTVLInUSDNFTFarm */\n      tag_32\n        /* \"contracts/Utils.sol\":23208:23260  calcPoolTVLInUSDNFTFarm(lpAddress[i], 0, MasterChef) */\n      jump\t// in\n    tag_143:\n        /* \"contracts/Utils.sol\":23201:23260  TVL += calcPoolTVLInUSDNFTFarm(lpAddress[i], 0, MasterChef) */\n      dup3\n      tag_146\n      swap2\n      swap1\n      tag_141\n      jump\t// in\n    tag_146:\n      swap2\n      pop\n        /* \"contracts/Utils.sol\":23050:23276  if(isLpAddress(lpAddress[i]) == 1){... */\n    tag_142:\n        /* \"contracts/Utils.sol\":23031:23034  i++ */\n      dup1\n      dup1\n      tag_147\n      swap1\n      tag_148\n      jump\t// in\n    tag_147:\n      swap2\n      pop\n      pop\n        /* \"contracts/Utils.sol\":22993:23287  for(uint256 i=0; i< lpAddress.length; i++){... */\n      jump(tag_129)\n    tag_130:\n      pop\n        /* \"contracts/Utils.sol\":23306:23309  TVL */\n      dup1\n        /* \"contracts/Utils.sol\":23299:23309  return TVL */\n      swap2\n      pop\n      pop\n        /* \"contracts/Utils.sol\":22848:23317  function CalcTotalTVLNFTFarm(MetaMasterChef MasterChef,LP[] memory lpAddress) external view returns(uint256){... */\n      swap3\n      swap2\n      pop\n      pop\n      jump\t// out\n        /* \"contracts/Utils.sol\":18420:18679  function Tokenprice(address token) public view returns(uint256){... */\n    tag_42:\n        /* \"contracts/Utils.sol\":18475:18482  uint256 */\n      0x00\n        /* \"contracts/Utils.sol\":18494:18515  address[] memory path */\n      dup1\n        /* \"contracts/Utils.sol\":18532:18533  3 */\n      0x03\n        /* \"contracts/Utils.sol\":18518:18534  new address[](3) */\n      0xffffffffffffffff\n      dup2\n      gt\n      iszero\n      tag_150\n      jumpi\n      tag_151\n      tag_152\n      jump\t// in\n    tag_151:\n    tag_150:\n      mload(0x40)\n      swap1\n      dup1\n      dup3\n      mstore\n      dup1\n      0x20\n      mul\n      0x20\n      add\n      dup3\n      add\n      0x40\n      mstore\n      dup1\n      iszero\n      tag_153\n      jumpi\n      dup2\n      0x20\n      add\n      0x20\n      dup3\n      mul\n      dup1\n      calldatasize\n      dup4\n      calldatacopy\n      dup1\n      dup3\n      add\n      swap2\n      pop\n      pop\n      swap1\n      pop\n    tag_153:\n      pop\n        /* \"contracts/Utils.sol\":18494:18534  address[] memory path = new address[](3) */\n      swap1\n      pop\n        /* \"contracts/Utils.sol\":18555:18560  token */\n      dup3\n        /* \"contracts/Utils.sol\":18545:18549  path */\n      dup2\n        /* \"contracts/Utils.sol\":18550:18551  0 */\n      0x00\n        /* \"contracts/Utils.sol\":18545:18552  path[0] */\n      dup2\n      mload\n      dup2\n      lt\n      tag_154\n      jumpi\n      tag_155\n      tag_135\n      jump\t// in\n    tag_155:\n    tag_154:\n      0x20\n      mul\n      0x20\n      add\n      add\n        /* \"contracts/Utils.sol\":18545:18560  path[0] = token */\n      swap1\n      0xffffffffffffffffffffffffffffffffffffffff\n      and\n      swap1\n      dup2\n      0xffffffffffffffffffffffffffffffffffffffff\n      and\n      dup2\n      mstore\n      pop\n      pop\n        /* \"contracts/Utils.sol\":18581:18585  WBNB */\n      0x01\n      0x00\n      swap1\n      sload\n      swap1\n      0x0100\n      exp\n      swap1\n      div\n      0xffffffffffffffffffffffffffffffffffffffff\n      and\n        /* \"contracts/Utils.sol\":18571:18575  path */\n      dup2\n        /* \"contracts/Utils.sol\":18576:18577  1 */\n      0x01\n        /* \"contracts/Utils.sol\":18571:18578  path[1] */\n      dup2\n      mload\n      dup2\n      lt\n      tag_156\n      jumpi\n      tag_157\n      tag_135\n      jump\t// in\n    tag_157:\n    tag_156:\n      0x20\n      mul\n      0x20\n      add\n      add\n        /* \"contracts/Utils.sol\":18571:18585  path[1] = WBNB */\n      swap1\n      0xffffffffffffffffffffffffffffffffffffffff\n      and\n      swap1\n      dup2\n      0xffffffffffffffffffffffffffffffffffffffff\n      and\n      dup2\n      mstore\n      pop\n      pop\n        /* \"contracts/Utils.sol\":18606:18610  BUSD */\n      0x02\n      0x00\n      swap1\n      sload\n      swap1\n      0x0100\n      exp\n      swap1\n      div\n      0xffffffffffffffffffffffffffffffffffffffff\n      and\n        /* \"contracts/Utils.sol\":18596:18600  path */\n      dup2\n        /* \"contracts/Utils.sol\":18601:18602  2 */\n      0x02\n        /* \"contracts/Utils.sol\":18596:18603  path[2] */\n      dup2\n      mload\n      dup2\n      lt\n      tag_158\n      jumpi\n      tag_159\n      tag_135\n      jump\t// in\n    tag_159:\n    tag_158:\n      0x20\n      mul\n      0x20\n      add\n      add\n        /* \"contracts/Utils.sol\":18596:18610  path[2] = BUSD */\n      swap1\n      0xffffffffffffffffffffffffffffffffffffffff\n      and\n      swap1\n      dup2\n      0xffffffffffffffffffffffffffffffffffffffff\n      and\n      dup2\n      mstore\n      pop\n      pop\n        /* \"contracts/Utils.sol\":18628:18641  routerAddress */\n      0x04\n      0x00\n      swap1\n      sload\n      swap1\n      0x0100\n      exp\n      swap1\n      div\n      0xffffffffffffffffffffffffffffffffffffffff\n      and\n        /* \"contracts/Utils.sol\":18628:18655  routerAddress.getAmountsOut */\n      0xffffffffffffffffffffffffffffffffffffffff\n      and\n      0xd06ca61f\n        /* \"contracts/Utils.sol\":18656:18662  amount */\n      sload(0x03)\n        /* \"contracts/Utils.sol\":18663:18667  path */\n      dup4\n        /* \"contracts/Utils.sol\":18628:18668  routerAddress.getAmountsOut(amount,path) */\n      mload(0x40)\n      dup4\n      0xffffffff\n      and\n      0xe0\n      shl\n      dup2\n      mstore\n      0x04\n      add\n      tag_160\n      swap3\n      swap2\n      swap1\n      tag_161\n      jump\t// in\n    tag_160:\n      0x00\n      mload(0x40)\n      dup1\n      dup4\n      sub\n      dup2\n      dup7\n      gas\n      staticcall\n      iszero\n      dup1\n      iszero\n      tag_163\n      jumpi\n      returndatasize\n      0x00\n      dup1\n      returndatacopy\n      revert(0x00, returndatasize)\n    tag_163:\n      pop\n      pop\n      pop\n      pop\n      mload(0x40)\n      returndatasize\n      0x00\n      dup3\n      returndatacopy\n      returndatasize\n      not(0x1f)\n      0x1f\n      dup3\n      add\n      and\n      dup3\n      add\n      dup1\n      0x40\n      mstore\n      pop\n      dup2\n      add\n      swap1\n      tag_164\n      swap2\n      swap1\n      tag_165\n      jump\t// in\n    tag_164:\n        /* \"contracts/Utils.sol\":18669:18670  2 */\n      0x02\n        /* \"contracts/Utils.sol\":18628:18671  routerAddress.getAmountsOut(amount,path)[2] */\n      dup2\n      mload\n      dup2\n      lt\n      tag_166\n      jumpi\n      tag_167\n      tag_135\n      jump\t// in\n    tag_167:\n    tag_166:\n      0x20\n      mul\n      0x20\n      add\n      add\n      mload\n        /* \"contracts/Utils.sol\":18621:18671  return routerAddress.getAmountsOut(amount,path)[2] */\n      swap2\n      pop\n      pop\n        /* \"contracts/Utils.sol\":18420:18679  function Tokenprice(address token) public view returns(uint256){... */\n      swap2\n      swap1\n      pop\n      jump\t// out\n        /* \"contracts/Utils.sol\":18962:19810  function CalcLpPrice(LP lpAddress) public view returns(uint256){... */\n    tag_47:\n        /* \"contracts/Utils.sol\":19017:19024  uint256 */\n      0x00\n        /* \"contracts/Utils.sol\":19036:19050  uint256 phase1 */\n      dup1\n        /* \"contracts/Utils.sol\":19061:19075  uint256 phase2 */\n      0x00\n        /* \"contracts/Utils.sol\":19114:19123  lpAddress */\n      dup4\n        /* \"contracts/Utils.sol\":19114:19130  lpAddress.token0 */\n      0xffffffffffffffffffffffffffffffffffffffff\n      and\n      0x0dfe1681\n        /* \"contracts/Utils.sol\":19114:19132  lpAddress.token0() */\n      mload(0x40)\n      dup2\n      0xffffffff\n      and\n      0xe0\n      shl\n      dup2\n      mstore\n      0x04\n      add\n      0x20\n      mload(0x40)\n      dup1\n      dup4\n      sub\n      dup2\n      dup7\n      gas\n      staticcall\n      iszero\n      dup1\n      iszero\n      tag_170\n      jumpi\n      returndatasize\n      0x00\n      dup1\n      returndatacopy\n      revert(0x00, returndatasize)\n    tag_170:\n      pop\n      pop\n      pop\n      pop\n      mload(0x40)\n      returndatasize\n      not(0x1f)\n      0x1f\n      dup3\n      add\n      and\n      dup3\n      add\n      dup1\n      0x40\n      mstore\n      pop\n      dup2\n      add\n      swap1\n      tag_171\n      swap2\n      swap1\n      tag_172\n      jump\t// in\n    tag_171:\n        /* \"contracts/Utils.sol\":19089:19133  address(WBNB) == address(lpAddress.token0()) */\n      0xffffffffffffffffffffffffffffffffffffffff\n      and\n        /* \"contracts/Utils.sol\":19097:19101  WBNB */\n      0x01\n      0x00\n      swap1\n      sload\n      swap1\n      0x0100\n      exp\n      swap1\n      div\n      0xffffffffffffffffffffffffffffffffffffffff\n      and\n        /* \"contracts/Utils.sol\":19089:19133  address(WBNB) == address(lpAddress.token0()) */\n      0xffffffffffffffffffffffffffffffffffffffff\n      and\n      sub\n        /* \"contracts/Utils.sol\":19086:19399  if(address(WBNB) == address(lpAddress.token0())){... */\n      tag_173\n      jumpi\n        /* \"contracts/Utils.sol\":19159:19251  lpAddress.token0().balanceOf(address(lpAddress)).mul(WBNBPrice(address(lpAddress.token0()))) */\n      tag_174\n        /* \"contracts/Utils.sol\":19212:19250  WBNBPrice(address(lpAddress.token0())) */\n      tag_175\n        /* \"contracts/Utils.sol\":19230:19239  lpAddress */\n      dup6\n        /* \"contracts/Utils.sol\":19230:19246  lpAddress.token0 */\n      0xffffffffffffffffffffffffffffffffffffffff\n      and\n      0x0dfe1681\n        /* \"contracts/Utils.sol\":19230:19248  lpAddress.token0() */\n      mload(0x40)\n      dup2\n      0xffffffff\n      and\n      0xe0\n      shl\n      dup2\n      mstore\n      0x04\n      add\n      0x20\n      mload(0x40)\n      dup1\n      dup4\n      sub\n      dup2\n      dup7\n      gas\n      staticcall\n      iszero\n      dup1\n      iszero\n      tag_177\n      jumpi\n      returndatasize\n      0x00\n      dup1\n      returndatacopy\n      revert(0x00, returndatasize)\n    tag_177:\n      pop\n      pop\n      pop\n      pop\n      mload(0x40)\n      returndatasize\n      not(0x1f)\n      0x1f\n      dup3\n      add\n      and\n      dup3\n      add\n      dup1\n      0x40\n      mstore\n      pop\n      dup2\n      add\n      swap1\n      tag_178\n      swap2\n      swap1\n      tag_172\n      jump\t// in\n    tag_178:\n        /* \"contracts/Utils.sol\":19212:19221  WBNBPrice */\n      tag_59\n        /* \"contracts/Utils.sol\":19212:19250  WBNBPrice(address(lpAddress.token0())) */\n      jump\t// in\n    tag_175:\n        /* \"contracts/Utils.sol\":19159:19168  lpAddress */\n      dup6\n        /* \"contracts/Utils.sol\":19159:19175  lpAddress.token0 */\n      0xffffffffffffffffffffffffffffffffffffffff\n      and\n      0x0dfe1681\n        /* \"contracts/Utils.sol\":19159:19177  lpAddress.token0() */\n      mload(0x40)\n      dup2\n      0xffffffff\n      and\n      0xe0\n      shl\n      dup2\n      mstore\n      0x04\n      add\n      0x20\n      mload(0x40)\n      dup1\n      dup4\n      sub\n      dup2\n      dup7\n      gas\n      staticcall\n      iszero\n      dup1\n      iszero\n      tag_180\n      jumpi\n      returndatasize\n      0x00\n      dup1\n      returndatacopy\n      revert(0x00, returndatasize)\n    tag_180:\n      pop\n      pop\n      pop\n      pop\n      mload(0x40)\n      returndatasize\n      not(0x1f)\n      0x1f\n      dup3\n      add\n      and\n      dup3\n      add\n      dup1\n      0x40\n      mstore\n      pop\n      dup2\n      add\n      swap1\n      tag_181\n      swap2\n      swap1\n      tag_172\n      jump\t// in\n    tag_181:\n        /* \"contracts/Utils.sol\":19159:19187  lpAddress.token0().balanceOf */\n      0xffffffffffffffffffffffffffffffffffffffff\n      and\n      0x70a08231\n        /* \"contracts/Utils.sol\":19196:19205  lpAddress */\n      dup8\n        /* \"contracts/Utils.sol\":19159:19207  lpAddress.token0().balanceOf(address(lpAddress)) */\n      mload(0x40)\n      dup3\n      0xffffffff\n      and\n      0xe0\n      shl\n      dup2\n      mstore\n      0x04\n      add\n      tag_182\n      swap2\n      swap1\n      tag_64\n      jump\t// in\n    tag_182:\n      0x20\n      mload(0x40)\n      dup1\n      dup4\n      sub\n      dup2\n      dup7\n      gas\n      staticcall\n      iszero\n      dup1\n      iszero\n      tag_184\n      jumpi\n      returndatasize\n      0x00\n      dup1\n      returndatacopy\n      revert(0x00, returndatasize)\n    tag_184:\n      pop\n      pop\n      pop\n      pop\n      mload(0x40)\n      returndatasize\n      not(0x1f)\n      0x1f\n      dup3\n      add\n      and\n      dup3\n      add\n      dup1\n      0x40\n      mstore\n      pop\n      dup2\n      add\n      swap1\n      tag_185\n      swap2\n      swap1\n      tag_102\n      jump\t// in\n    tag_185:\n        /* \"contracts/Utils.sol\":19159:19211  lpAddress.token0().balanceOf(address(lpAddress)).mul */\n      tag_186\n      swap1\n        /* \"contracts/Utils.sol\":19159:19251  lpAddress.token0().balanceOf(address(lpAddress)).mul(WBNBPrice(address(lpAddress.token0()))) */\n      swap2\n      swap1\n      0xffffffff\n      and\n      jump\t// in\n    tag_174:\n        /* \"contracts/Utils.sol\":19149:19252  phase1 = (lpAddress.token0().balanceOf(address(lpAddress)).mul(WBNBPrice(address(lpAddress.token0())))) */\n      swap2\n      pop\n        /* \"contracts/Utils.sol\":19086:19399  if(address(WBNB) == address(lpAddress.token0())){... */\n      jump(tag_187)\n    tag_173:\n        /* \"contracts/Utils.sol\":19293:19386  lpAddress.token0().balanceOf(address(lpAddress)).mul(Tokenprice(address(lpAddress.token0()))) */\n      tag_188\n        /* \"contracts/Utils.sol\":19346:19385  Tokenprice(address(lpAddress.token0())) */\n      tag_189\n        /* \"contracts/Utils.sol\":19365:19374  lpAddress */\n      dup6\n        /* \"contracts/Utils.sol\":19365:19381  lpAddress.token0 */\n      0xffffffffffffffffffffffffffffffffffffffff\n      and\n      0x0dfe1681\n        /* \"contracts/Utils.sol\":19365:19383  lpAddress.token0() */\n      mload(0x40)\n      dup2\n      0xffffffff\n      and\n      0xe0\n      shl\n      dup2\n      mstore\n      0x04\n      add\n      0x20\n      mload(0x40)\n      dup1\n      dup4\n      sub\n      dup2\n      dup7\n      gas\n      staticcall\n      iszero\n      dup1\n      iszero\n      tag_191\n      jumpi\n      returndatasize\n      0x00\n      dup1\n      returndatacopy\n      revert(0x00, returndatasize)\n    tag_191:\n      pop\n      pop\n      pop\n      pop\n      mload(0x40)\n      returndatasize\n      not(0x1f)\n      0x1f\n      dup3\n      add\n      and\n      dup3\n      add\n      dup1\n      0x40\n      mstore\n      pop\n      dup2\n      add\n      swap1\n      tag_192\n      swap2\n      swap1\n      tag_172\n      jump\t// in\n    tag_192:\n        /* \"contracts/Utils.sol\":19346:19356  Tokenprice */\n      tag_42\n        /* \"contracts/Utils.sol\":19346:19385  Tokenprice(address(lpAddress.token0())) */\n      jump\t// in\n    tag_189:\n        /* \"contracts/Utils.sol\":19293:19302  lpAddress */\n      dup6\n        /* \"contracts/Utils.sol\":19293:19309  lpAddress.token0 */\n      0xffffffffffffffffffffffffffffffffffffffff\n      and\n      0x0dfe1681\n        /* \"contracts/Utils.sol\":19293:19311  lpAddress.token0() */\n      mload(0x40)\n      dup2\n      0xffffffff\n      and\n      0xe0\n      shl\n      dup2\n      mstore\n      0x04\n      add\n      0x20\n      mload(0x40)\n      dup1\n      dup4\n      sub\n      dup2\n      dup7\n      gas\n      staticcall\n      iszero\n      dup1\n      iszero\n      tag_194\n      jumpi\n      returndatasize\n      0x00\n      dup1\n      returndatacopy\n      revert(0x00, returndatasize)\n    tag_194:\n      pop\n      pop\n      pop\n      pop\n      mload(0x40)\n      returndatasize\n      not(0x1f)\n      0x1f\n      dup3\n      add\n      and\n      dup3\n      add\n      dup1\n      0x40\n      mstore\n      pop\n      dup2\n      add\n      swap1\n      tag_195\n      swap2\n      swap1\n      tag_172\n      jump\t// in\n    tag_195:\n        /* \"contracts/Utils.sol\":19293:19321  lpAddress.token0().balanceOf */\n      0xffffffffffffffffffffffffffffffffffffffff\n      and\n      0x70a08231\n        /* \"contracts/Utils.sol\":19330:19339  lpAddress */\n      dup8\n        /* \"contracts/Utils.sol\":19293:19341  lpAddress.token0().balanceOf(address(lpAddress)) */\n      mload(0x40)\n      dup3\n      0xffffffff\n      and\n      0xe0\n      shl\n      dup2\n      mstore\n      0x04\n      add\n      tag_196\n      swap2\n      swap1\n      tag_64\n      jump\t// in\n    tag_196:\n      0x20\n      mload(0x40)\n      dup1\n      dup4\n      sub\n      dup2\n      dup7\n      gas\n      staticcall\n      iszero\n      dup1\n      iszero\n      tag_198\n      jumpi\n      returndatasize\n      0x00\n      dup1\n      returndatacopy\n      revert(0x00, returndatasize)\n    tag_198:\n      pop\n      pop\n      pop\n      pop\n      mload(0x40)\n      returndatasize\n      not(0x1f)\n      0x1f\n      dup3\n      add\n      and\n      dup3\n      add\n      dup1\n      0x40\n      mstore\n      pop\n      dup2\n      add\n      swap1\n      tag_199\n      swap2\n      swap1\n      tag_102\n      jump\t// in\n    tag_199:\n        /* \"contracts/Utils.sol\":19293:19345  lpAddress.token0().balanceOf(address(lpAddress)).mul */\n      tag_186\n      swap1\n        /* \"contracts/Utils.sol\":19293:19386  lpAddress.token0().balanceOf(address(lpAddress)).mul(Tokenprice(address(lpAddress.token0()))) */\n      swap2\n      swap1\n      0xffffffff\n      and\n      jump\t// in\n    tag_188:\n        /* \"contracts/Utils.sol\":19283:19387  phase1 = (lpAddress.token0().balanceOf(address(lpAddress)).mul(Tokenprice(address(lpAddress.token0())))) */\n      swap2\n      pop\n        /* \"contracts/Utils.sol\":19086:19399  if(address(WBNB) == address(lpAddress.token0())){... */\n    tag_187:\n        /* \"contracts/Utils.sol\":19439:19448  lpAddress */\n      dup4\n        /* \"contracts/Utils.sol\":19439:19455  lpAddress.token1 */\n      0xffffffffffffffffffffffffffffffffffffffff\n      and\n      0xd21220a7\n        /* \"contracts/Utils.sol\":19439:19457  lpAddress.token1() */\n      mload(0x40)\n      dup2\n      0xffffffff\n      and\n      0xe0\n      shl\n      dup2\n      mstore\n      0x04\n      add\n      0x20\n      mload(0x40)\n      dup1\n      dup4\n      sub\n      dup2\n      dup7\n      gas\n      staticcall\n      iszero\n      dup1\n      iszero\n      tag_201\n      jumpi\n      returndatasize\n      0x00\n      dup1\n      returndatacopy\n      revert(0x00, returndatasize)\n    tag_201:\n      pop\n      pop\n      pop\n      pop\n      mload(0x40)\n      returndatasize\n      not(0x1f)\n      0x1f\n      dup3\n      add\n      and\n      dup3\n      add\n      dup1\n      0x40\n      mstore\n      pop\n      dup2\n      add\n      swap1\n      tag_202\n      swap2\n      swap1\n      tag_172\n      jump\t// in\n    tag_202:\n        /* \"contracts/Utils.sol\":19414:19458  address(WBNB) == address(lpAddress.token1()) */\n      0xffffffffffffffffffffffffffffffffffffffff\n      and\n        /* \"contracts/Utils.sol\":19422:19426  WBNB */\n      0x01\n      0x00\n      swap1\n      sload\n      swap1\n      0x0100\n      exp\n      swap1\n      div\n      0xffffffffffffffffffffffffffffffffffffffff\n      and\n        /* \"contracts/Utils.sol\":19414:19458  address(WBNB) == address(lpAddress.token1()) */\n      0xffffffffffffffffffffffffffffffffffffffff\n      and\n      sub\n        /* \"contracts/Utils.sol\":19411:19724  if(address(WBNB) == address(lpAddress.token1())){... */\n      tag_203\n      jumpi\n        /* \"contracts/Utils.sol\":19484:19576  lpAddress.token1().balanceOf(address(lpAddress)).mul(WBNBPrice(address(lpAddress.token1()))) */\n      tag_204\n        /* \"contracts/Utils.sol\":19537:19575  WBNBPrice(address(lpAddress.token1())) */\n      tag_205\n        /* \"contracts/Utils.sol\":19555:19564  lpAddress */\n      dup6\n        /* \"contracts/Utils.sol\":19555:19571  lpAddress.token1 */\n      0xffffffffffffffffffffffffffffffffffffffff\n      and\n      0xd21220a7\n        /* \"contracts/Utils.sol\":19555:19573  lpAddress.token1() */\n      mload(0x40)\n      dup2\n      0xffffffff\n      and\n      0xe0\n      shl\n      dup2\n      mstore\n      0x04\n      add\n      0x20\n      mload(0x40)\n      dup1\n      dup4\n      sub\n      dup2\n      dup7\n      gas\n      staticcall\n      iszero\n      dup1\n      iszero\n      tag_207\n      jumpi\n      returndatasize\n      0x00\n      dup1\n      returndatacopy\n      revert(0x00, returndatasize)\n    tag_207:\n      pop\n      pop\n      pop\n      pop\n      mload(0x40)\n      returndatasize\n      not(0x1f)\n      0x1f\n      dup3\n      add\n      and\n      dup3\n      add\n      dup1\n      0x40\n      mstore\n      pop\n      dup2\n      add\n      swap1\n      tag_208\n      swap2\n      swap1\n      tag_172\n      jump\t// in\n    tag_208:\n        /* \"contracts/Utils.sol\":19537:19546  WBNBPrice */\n      tag_59\n        /* \"contracts/Utils.sol\":19537:19575  WBNBPrice(address(lpAddress.token1())) */\n      jump\t// in\n    tag_205:\n        /* \"contracts/Utils.sol\":19484:19493  lpAddress */\n      dup6\n        /* \"contracts/Utils.sol\":19484:19500  lpAddress.token1 */\n      0xffffffffffffffffffffffffffffffffffffffff\n      and\n      0xd21220a7\n        /* \"contracts/Utils.sol\":19484:19502  lpAddress.token1() */\n      mload(0x40)\n      dup2\n      0xffffffff\n      and\n      0xe0\n      shl\n      dup2\n      mstore\n      0x04\n      add\n      0x20\n      mload(0x40)\n      dup1\n      dup4\n      sub\n      dup2\n      dup7\n      gas\n      staticcall\n      iszero\n      dup1\n      iszero\n      tag_210\n      jumpi\n      returndatasize\n      0x00\n      dup1\n      returndatacopy\n      revert(0x00, returndatasize)\n    tag_210:\n      pop\n      pop\n      pop\n      pop\n      mload(0x40)\n      returndatasize\n      not(0x1f)\n      0x1f\n      dup3\n      add\n      and\n      dup3\n      add\n      dup1\n      0x40\n      mstore\n      pop\n      dup2\n      add\n      swap1\n      tag_211\n      swap2\n      swap1\n      tag_172\n      jump\t// in\n    tag_211:\n        /* \"contracts/Utils.sol\":19484:19512  lpAddress.token1().balanceOf */\n      0xffffffffffffffffffffffffffffffffffffffff\n      and\n      0x70a08231\n        /* \"contracts/Utils.sol\":19521:19530  lpAddress */\n      dup8\n        /* \"contracts/Utils.sol\":19484:19532  lpAddress.token1().balanceOf(address(lpAddress)) */\n      mload(0x40)\n      dup3\n      0xffffffff\n      and\n      0xe0\n      shl\n      dup2\n      mstore\n      0x04\n      add\n      tag_212\n      swap2\n      swap1\n      tag_64\n      jump\t// in\n    tag_212:\n      0x20\n      mload(0x40)\n      dup1\n      dup4\n      sub\n      dup2\n      dup7\n      gas\n      staticcall\n      iszero\n      dup1\n      iszero\n      tag_214\n      jumpi\n      returndatasize\n      0x00\n      dup1\n      returndatacopy\n      revert(0x00, returndatasize)\n    tag_214:\n      pop\n      pop\n      pop\n      pop\n      mload(0x40)\n      returndatasize\n      not(0x1f)\n      0x1f\n      dup3\n      add\n      and\n      dup3\n      add\n      dup1\n      0x40\n      mstore\n      pop\n      dup2\n      add\n      swap1\n      tag_215\n      swap2\n      swap1\n      tag_102\n      jump\t// in\n    tag_215:\n        /* \"contracts/Utils.sol\":19484:19536  lpAddress.token1().balanceOf(address(lpAddress)).mul */\n      tag_186\n      swap1\n        /* \"contracts/Utils.sol\":19484:19576  lpAddress.token1().balanceOf(address(lpAddress)).mul(WBNBPrice(address(lpAddress.token1()))) */\n      swap2\n      swap1\n      0xffffffff\n      and\n      jump\t// in\n    tag_204:\n        /* \"contracts/Utils.sol\":19474:19577  phase2 = (lpAddress.token1().balanceOf(address(lpAddress)).mul(WBNBPrice(address(lpAddress.token1())))) */\n      swap1\n      pop\n        /* \"contracts/Utils.sol\":19411:19724  if(address(WBNB) == address(lpAddress.token1())){... */\n      jump(tag_216)\n    tag_203:\n        /* \"contracts/Utils.sol\":19618:19711  lpAddress.token1().balanceOf(address(lpAddress)).mul(Tokenprice(address(lpAddress.token1()))) */\n      tag_217\n        /* \"contracts/Utils.sol\":19671:19710  Tokenprice(address(lpAddress.token1())) */\n      tag_218\n        /* \"contracts/Utils.sol\":19690:19699  lpAddress */\n      dup6\n        /* \"contracts/Utils.sol\":19690:19706  lpAddress.token1 */\n      0xffffffffffffffffffffffffffffffffffffffff\n      and\n      0xd21220a7\n        /* \"contracts/Utils.sol\":19690:19708  lpAddress.token1() */\n      mload(0x40)\n      dup2\n      0xffffffff\n      and\n      0xe0\n      shl\n      dup2\n      mstore\n      0x04\n      add\n      0x20\n      mload(0x40)\n      dup1\n      dup4\n      sub\n      dup2\n      dup7\n      gas\n      staticcall\n      iszero\n      dup1\n      iszero\n      tag_220\n      jumpi\n      returndatasize\n      0x00\n      dup1\n      returndatacopy\n      revert(0x00, returndatasize)\n    tag_220:\n      pop\n      pop\n      pop\n      pop\n      mload(0x40)\n      returndatasize\n      not(0x1f)\n      0x1f\n      dup3\n      add\n      and\n      dup3\n      add\n      dup1\n      0x40\n      mstore\n      pop\n      dup2\n      add\n      swap1\n      tag_221\n      swap2\n      swap1\n      tag_172\n      jump\t// in\n    tag_221:\n        /* \"contracts/Utils.sol\":19671:19681  Tokenprice */\n      tag_42\n        /* \"contracts/Utils.sol\":19671:19710  Tokenprice(address(lpAddress.token1())) */\n      jump\t// in\n    tag_218:\n        /* \"contracts/Utils.sol\":19618:19627  lpAddress */\n      dup6\n        /* \"contracts/Utils.sol\":19618:19634  lpAddress.token1 */\n      0xffffffffffffffffffffffffffffffffffffffff\n      and\n      0xd21220a7\n        /* \"contracts/Utils.sol\":19618:19636  lpAddress.token1() */\n      mload(0x40)\n      dup2\n      0xffffffff\n      and\n      0xe0\n      shl\n      dup2\n      mstore\n      0x04\n      add\n      0x20\n      mload(0x40)\n      dup1\n      dup4\n      sub\n      dup2\n      dup7\n      gas\n      staticcall\n      iszero\n      dup1\n      iszero\n      tag_223\n      jumpi\n      returndatasize\n      0x00\n      dup1\n      returndatacopy\n      revert(0x00, returndatasize)\n    tag_223:\n      pop\n      pop\n      pop\n      pop\n      mload(0x40)\n      returndatasize\n      not(0x1f)\n      0x1f\n      dup3\n      add\n      and\n      dup3\n      add\n      dup1\n      0x40\n      mstore\n      pop\n      dup2\n      add\n      swap1\n      tag_224\n      swap2\n      swap1\n      tag_172\n      jump\t// in\n    tag_224:\n        /* \"contracts/Utils.sol\":19618:19646  lpAddress.token1().balanceOf */\n      0xffffffffffffffffffffffffffffffffffffffff\n      and\n      0x70a08231\n        /* \"contracts/Utils.sol\":19655:19664  lpAddress */\n      dup8\n        /* \"contracts/Utils.sol\":19618:19666  lpAddress.token1().balanceOf(address(lpAddress)) */\n      mload(0x40)\n      dup3\n      0xffffffff\n      and\n      0xe0\n      shl\n      dup2\n      mstore\n      0x04\n      add\n      tag_225\n      swap2\n      swap1\n      tag_64\n      jump\t// in\n    tag_225:\n      0x20\n      mload(0x40)\n      dup1\n      dup4\n      sub\n      dup2\n      dup7\n      gas\n      staticcall\n      iszero\n      dup1\n      iszero\n      tag_227\n      jumpi\n      returndatasize\n      0x00\n      dup1\n      returndatacopy\n      revert(0x00, returndatasize)\n    tag_227:\n      pop\n      pop\n      pop\n      pop\n      mload(0x40)\n      returndatasize\n      not(0x1f)\n      0x1f\n      dup3\n      add\n      and\n      dup3\n      add\n      dup1\n      0x40\n      mstore\n      pop\n      dup2\n      add\n      swap1\n      tag_228\n      swap2\n      swap1\n      tag_102\n      jump\t// in\n    tag_228:\n        /* \"contracts/Utils.sol\":19618:19670  lpAddress.token1().balanceOf(address(lpAddress)).mul */\n      tag_186\n      swap1\n        /* \"contracts/Utils.sol\":19618:19711  lpAddress.token1().balanceOf(address(lpAddress)).mul(Tokenprice(address(lpAddress.token1()))) */\n      swap2\n      swap1\n      0xffffffff\n      and\n      jump\t// in\n    tag_217:\n        /* \"contracts/Utils.sol\":19608:19712  phase2 = (lpAddress.token1().balanceOf(address(lpAddress)).mul(Tokenprice(address(lpAddress.token1())))) */\n      swap1\n      pop\n        /* \"contracts/Utils.sol\":19411:19724  if(address(WBNB) == address(lpAddress.token1())){... */\n    tag_216:\n        /* \"contracts/Utils.sol\":19752:19801  (phase1.add(phase2)).div(lpAddress.totalSupply()) */\n      tag_229\n        /* \"contracts/Utils.sol\":19777:19786  lpAddress */\n      dup5\n        /* \"contracts/Utils.sol\":19777:19798  lpAddress.totalSupply */\n      0xffffffffffffffffffffffffffffffffffffffff\n      and\n      0x18160ddd\n        /* \"contracts/Utils.sol\":19777:19800  lpAddress.totalSupply() */\n      mload(0x40)\n      dup2\n      0xffffffff\n      and\n      0xe0\n      shl\n      dup2\n      mstore\n      0x04\n      add\n      0x20\n      mload(0x40)\n      dup1\n      dup4\n      sub\n      dup2\n      dup7\n      gas\n      staticcall\n      iszero\n      dup1\n      iszero\n      tag_231\n      jumpi\n      returndatasize\n      0x00\n      dup1\n      returndatacopy\n      revert(0x00, returndatasize)\n    tag_231:\n      pop\n      pop\n      pop\n      pop\n      mload(0x40)\n      returndatasize\n      not(0x1f)\n      0x1f\n      dup3\n      add\n      and\n      dup3\n      add\n      dup1\n      0x40\n      mstore\n      pop\n      dup2\n      add\n      swap1\n      tag_232\n      swap2\n      swap1\n      tag_102\n      jump\t// in\n    tag_232:\n        /* \"contracts/Utils.sol\":19753:19771  phase1.add(phase2) */\n      tag_233\n        /* \"contracts/Utils.sol\":19764:19770  phase2 */\n      dup4\n        /* \"contracts/Utils.sol\":19753:19759  phase1 */\n      dup6\n        /* \"contracts/Utils.sol\":19753:19763  phase1.add */\n      tag_234\n      swap1\n        /* \"contracts/Utils.sol\":19753:19771  phase1.add(phase2) */\n      swap2\n      swap1\n      0xffffffff\n      and\n      jump\t// in\n    tag_233:\n        /* \"contracts/Utils.sol\":19752:19776  (phase1.add(phase2)).div */\n      tag_127\n      swap1\n        /* \"contracts/Utils.sol\":19752:19801  (phase1.add(phase2)).div(lpAddress.totalSupply()) */\n      swap2\n      swap1\n      0xffffffff\n      and\n      jump\t// in\n    tag_229:\n        /* \"contracts/Utils.sol\":19744:19802  return ((phase1.add(phase2)).div(lpAddress.totalSupply())) */\n      swap3\n      pop\n      pop\n      pop\n        /* \"contracts/Utils.sol\":18962:19810  function CalcLpPrice(LP lpAddress) public view returns(uint256){... */\n      swap2\n      swap1\n      pop\n      jump\t// out\n        /* \"contracts/Utils.sol\":22199:22378  function isLpAddress(LP lpAddress) public view returns(uint256){... */\n    tag_51:\n        /* \"contracts/Utils.sol\":22254:22261  uint256 */\n      0x00\n        /* \"contracts/Utils.sol\":22277:22286  lpAddress */\n      dup2\n        /* \"contracts/Utils.sol\":22277:22293  lpAddress.token0 */\n      0xffffffffffffffffffffffffffffffffffffffff\n      and\n      0x0dfe1681\n        /* \"contracts/Utils.sol\":22277:22295  lpAddress.token0() */\n      mload(0x40)\n      dup2\n      0xffffffff\n      and\n      0xe0\n      shl\n      dup2\n      mstore\n      0x04\n      add\n      0x20\n      mload(0x40)\n      dup1\n      dup4\n      sub\n      dup2\n      dup7\n      gas\n      staticcall\n      swap3\n      pop\n      pop\n      pop\n      dup1\n      iszero\n      tag_236\n      jumpi\n      pop\n      mload(0x40)\n      returndatasize\n      not(0x1f)\n      0x1f\n      dup3\n      add\n      and\n      dup3\n      add\n      dup1\n      0x40\n      mstore\n      pop\n      dup2\n      add\n      swap1\n      tag_237\n      swap2\n      swap1\n      tag_172\n      jump\t// in\n    tag_237:\n      0x01\n    tag_236:\n        /* \"contracts/Utils.sol\":22273:22371  try lpAddress.token0() {... */\n      tag_238\n      jumpi\n        /* \"contracts/Utils.sol\":22358:22359  0 */\n      0x00\n        /* \"contracts/Utils.sol\":22351:22359  return 0 */\n      swap1\n      pop\n      jump(tag_235)\n        /* \"contracts/Utils.sol\":22273:22371  try lpAddress.token0() {... */\n    tag_238:\n      pop\n        /* \"contracts/Utils.sol\":22318:22319  1 */\n      0x01\n        /* \"contracts/Utils.sol\":22311:22319  return 1 */\n      swap1\n      pop\n        /* \"contracts/Utils.sol\":22199:22378  function isLpAddress(LP lpAddress) public view returns(uint256){... */\n    tag_235:\n      swap2\n      swap1\n      pop\n      jump\t// out\n        /* \"contracts/Utils.sol\":18037:18064  Router public routerAddress */\n    tag_54:\n      0x04\n      0x00\n      swap1\n      sload\n      swap1\n      0x0100\n      exp\n      swap1\n      div\n      0xffffffffffffffffffffffffffffffffffffffff\n      and\n      dup2\n      jump\t// out\n        /* \"contracts/Utils.sol\":18704:18937  function WBNBPrice(address token) public view returns(uint256){... */\n    tag_59:\n        /* \"contracts/Utils.sol\":18758:18765  uint256 */\n      0x00\n        /* \"contracts/Utils.sol\":18777:18798  address[] memory path */\n      dup1\n        /* \"contracts/Utils.sol\":18815:18816  2 */\n      0x02\n        /* \"contracts/Utils.sol\":18801:18817  new address[](2) */\n      0xffffffffffffffff\n      dup2\n      gt\n      iszero\n      tag_244\n      jumpi\n      tag_245\n      tag_152\n      jump\t// in\n    tag_245:\n    tag_244:\n      mload(0x40)\n      swap1\n      dup1\n      dup3\n      mstore\n      dup1\n      0x20\n      mul\n      0x20\n      add\n      dup3\n      add\n      0x40\n      mstore\n      dup1\n      iszero\n      tag_246\n      jumpi\n      dup2\n      0x20\n      add\n      0x20\n      dup3\n      mul\n      dup1\n      calldatasize\n      dup4\n      calldatacopy\n      dup1\n      dup3\n      add\n      swap2\n      pop\n      pop\n      swap1\n      pop\n    tag_246:\n      pop\n        /* \"contracts/Utils.sol\":18777:18817  address[] memory path = new address[](2) */\n      swap1\n      pop\n        /* \"contracts/Utils.sol\":18838:18843  token */\n      dup3\n        /* \"contracts/Utils.sol\":18828:18832  path */\n      dup2\n        /* \"contracts/Utils.sol\":18833:18834  0 */\n      0x00\n        /* \"contracts/Utils.sol\":18828:18835  path[0] */\n      dup2\n      mload\n      dup2\n      lt\n      tag_247\n      jumpi\n      tag_248\n      tag_135\n      jump\t// in\n    tag_248:\n    tag_247:\n      0x20\n      mul\n      0x20\n      add\n      add\n        /* \"contracts/Utils.sol\":18828:18843  path[0] = token */\n      swap1\n      0xffffffffffffffffffffffffffffffffffffffff\n      and\n      swap1\n      dup2\n      0xffffffffffffffffffffffffffffffffffffffff\n      and\n      dup2\n      mstore\n      pop\n      pop\n        /* \"contracts/Utils.sol\":18864:18868  BUSD */\n      0x02\n      0x00\n      swap1\n      sload\n      swap1\n      0x0100\n      exp\n      swap1\n      div\n      0xffffffffffffffffffffffffffffffffffffffff\n      and\n        /* \"contracts/Utils.sol\":18854:18858  path */\n      dup2\n        /* \"contracts/Utils.sol\":18859:18860  1 */\n      0x01\n        /* \"contracts/Utils.sol\":18854:18861  path[1] */\n      dup2\n      mload\n      dup2\n      lt\n      tag_249\n      jumpi\n      tag_250\n      tag_135\n      jump\t// in\n    tag_250:\n    tag_249:\n      0x20\n      mul\n      0x20\n      add\n      add\n        /* \"contracts/Utils.sol\":18854:18868  path[1] = BUSD */\n      swap1\n      0xffffffffffffffffffffffffffffffffffffffff\n      and\n      swap1\n      dup2\n      0xffffffffffffffffffffffffffffffffffffffff\n      and\n      dup2\n      mstore\n      pop\n      pop\n        /* \"contracts/Utils.sol\":18886:18899  routerAddress */\n      0x04\n      0x00\n      swap1\n      sload\n      swap1\n      0x0100\n      exp\n      swap1\n      div\n      0xffffffffffffffffffffffffffffffffffffffff\n      and\n        /* \"contracts/Utils.sol\":18886:18913  routerAddress.getAmountsOut */\n      0xffffffffffffffffffffffffffffffffffffffff\n      and\n      0xd06ca61f\n        /* \"contracts/Utils.sol\":18914:18920  amount */\n      sload(0x03)\n        /* \"contracts/Utils.sol\":18921:18925  path */\n      dup4\n        /* \"contracts/Utils.sol\":18886:18926  routerAddress.getAmountsOut(amount,path) */\n      mload(0x40)\n      dup4\n      0xffffffff\n      and\n      0xe0\n      shl\n      dup2\n      mstore\n      0x04\n      add\n      tag_251\n      swap3\n      swap2\n      swap1\n      tag_161\n      jump\t// in\n    tag_251:\n      0x00\n      mload(0x40)\n      dup1\n      dup4\n      sub\n      dup2\n      dup7\n      gas\n      staticcall\n      iszero\n      dup1\n      iszero\n      tag_253\n      jumpi\n      returndatasize\n      0x00\n      dup1\n      returndatacopy\n      revert(0x00, returndatasize)\n    tag_253:\n      pop\n      pop\n      pop\n      pop\n      mload(0x40)\n      returndatasize\n      0x00\n      dup3\n      returndatacopy\n      returndatasize\n      not(0x1f)\n      0x1f\n      dup3\n      add\n      and\n      dup3\n      add\n      dup1\n      0x40\n      mstore\n      pop\n      dup2\n      add\n      swap1\n      tag_254\n      swap2\n      swap1\n      tag_165\n      jump\t// in\n    tag_254:\n        /* \"contracts/Utils.sol\":18927:18928  1 */\n      0x01\n        /* \"contracts/Utils.sol\":18886:18929  routerAddress.getAmountsOut(amount,path)[1] */\n      dup2\n      mload\n      dup2\n      lt\n      tag_255\n      jumpi\n      tag_256\n      tag_135\n      jump\t// in\n    tag_256:\n    tag_255:\n      0x20\n      mul\n      0x20\n      add\n      add\n      mload\n        /* \"contracts/Utils.sol\":18879:18929  return routerAddress.getAmountsOut(amount,path)[1] */\n      swap2\n      pop\n      pop\n        /* \"contracts/Utils.sol\":18704:18937  function WBNBPrice(address token) public view returns(uint256){... */\n      swap2\n      swap1\n      pop\n      jump\t// out\n        /* \"contracts/Utils.sol\":17968:17987  address public BUSD */\n    tag_62:\n      0x02\n      0x00\n      swap1\n      sload\n      swap1\n      0x0100\n      exp\n      swap1\n      div\n      0xffffffffffffffffffffffffffffffffffffffff\n      and\n      dup2\n      jump\t// out\n        /* \"contracts/Utils.sol\":22386:22840  function CalcTotalTVL(MetaMasterChef MasterChef,LP[] memory lpAddress) external view returns(uint256){... */\n    tag_67:\n        /* \"contracts/Utils.sol\":22479:22486  uint256 */\n      0x00\n        /* \"contracts/Utils.sol\":22498:22509  uint256 TVL */\n      dup1\n        /* \"contracts/Utils.sol\":22512:22513  0 */\n      0x00\n        /* \"contracts/Utils.sol\":22498:22513  uint256 TVL = 0 */\n      swap1\n      pop\n        /* \"contracts/Utils.sol\":22528:22537  uint256 i */\n      0x00\n        /* \"contracts/Utils.sol\":22524:22810  for(uint256 i=0; i< lpAddress.length; i++){... */\n    tag_258:\n        /* \"contracts/Utils.sol\":22544:22553  lpAddress */\n      dup4\n        /* \"contracts/Utils.sol\":22544:22560  lpAddress.length */\n      mload\n        /* \"contracts/Utils.sol\":22541:22542  i */\n      dup2\n        /* \"contracts/Utils.sol\":22541:22560  i< lpAddress.length */\n      lt\n        /* \"contracts/Utils.sol\":22524:22810  for(uint256 i=0; i< lpAddress.length; i++){... */\n      iszero\n      tag_259\n      jumpi\n        /* \"contracts/Utils.sol\":22613:22614  1 */\n      0x01\n        /* \"contracts/Utils.sol\":22584:22609  isLpAddress(lpAddress[i]) */\n      tag_261\n        /* \"contracts/Utils.sol\":22596:22605  lpAddress */\n      dup6\n        /* \"contracts/Utils.sol\":22606:22607  i */\n      dup4\n        /* \"contracts/Utils.sol\":22596:22608  lpAddress[i] */\n      dup2\n      mload\n      dup2\n      lt\n      tag_262\n      jumpi\n      tag_263\n      tag_135\n      jump\t// in\n    tag_263:\n    tag_262:\n      0x20\n      mul\n      0x20\n      add\n      add\n      mload\n        /* \"contracts/Utils.sol\":22584:22595  isLpAddress */\n      tag_51\n        /* \"contracts/Utils.sol\":22584:22609  isLpAddress(lpAddress[i]) */\n      jump\t// in\n    tag_261:\n        /* \"contracts/Utils.sol\":22584:22614  isLpAddress(lpAddress[i]) == 1 */\n      sub\n        /* \"contracts/Utils.sol\":22581:22799  if(isLpAddress(lpAddress[i]) == 1){... */\n      tag_264\n      jumpi\n        /* \"contracts/Utils.sol\":22641:22689  calcPoolTVLInUSD(i, lpAddress[i], 1, MasterChef) */\n      tag_265\n        /* \"contracts/Utils.sol\":22658:22659  i */\n      dup2\n        /* \"contracts/Utils.sol\":22661:22670  lpAddress */\n      dup6\n        /* \"contracts/Utils.sol\":22671:22672  i */\n      dup4\n        /* \"contracts/Utils.sol\":22661:22673  lpAddress[i] */\n      dup2\n      mload\n      dup2\n      lt\n      tag_266\n      jumpi\n      tag_267\n      tag_135\n      jump\t// in\n    tag_267:\n    tag_266:\n      0x20\n      mul\n      0x20\n      add\n      add\n      mload\n        /* \"contracts/Utils.sol\":22675:22676  1 */\n      0x01\n        /* \"contracts/Utils.sol\":22678:22688  MasterChef */\n      dup9\n        /* \"contracts/Utils.sol\":22641:22657  calcPoolTVLInUSD */\n      tag_84\n        /* \"contracts/Utils.sol\":22641:22689  calcPoolTVLInUSD(i, lpAddress[i], 1, MasterChef) */\n      jump\t// in\n    tag_265:\n        /* \"contracts/Utils.sol\":22634:22689  TVL += calcPoolTVLInUSD(i, lpAddress[i], 1, MasterChef) */\n      dup3\n      tag_268\n      swap2\n      swap1\n      tag_141\n      jump\t// in\n    tag_268:\n      swap2\n      pop\n        /* \"contracts/Utils.sol\":22581:22799  if(isLpAddress(lpAddress[i]) == 1){... */\n      jump(tag_269)\n    tag_264:\n        /* \"contracts/Utils.sol\":22735:22783  calcPoolTVLInUSD(i, lpAddress[i], 0, MasterChef) */\n      tag_270\n        /* \"contracts/Utils.sol\":22752:22753  i */\n      dup2\n        /* \"contracts/Utils.sol\":22755:22764  lpAddress */\n      dup6\n        /* \"contracts/Utils.sol\":22765:22766  i */\n      dup4\n        /* \"contracts/Utils.sol\":22755:22767  lpAddress[i] */\n      dup2\n      mload\n      dup2\n      lt\n      tag_271\n      jumpi\n      tag_272\n      tag_135\n      jump\t// in\n    tag_272:\n    tag_271:\n      0x20\n      mul\n      0x20\n      add\n      add\n      mload\n        /* \"contracts/Utils.sol\":22769:22770  0 */\n      0x00\n        /* \"contracts/Utils.sol\":22772:22782  MasterChef */\n      dup9\n        /* \"contracts/Utils.sol\":22735:22751  calcPoolTVLInUSD */\n      tag_84\n        /* \"contracts/Utils.sol\":22735:22783  calcPoolTVLInUSD(i, lpAddress[i], 0, MasterChef) */\n      jump\t// in\n    tag_270:\n        /* \"contracts/Utils.sol\":22728:22783  TVL += calcPoolTVLInUSD(i, lpAddress[i], 0, MasterChef) */\n      dup3\n      tag_273\n      swap2\n      swap1\n      tag_141\n      jump\t// in\n    tag_273:\n      swap2\n      pop\n        /* \"contracts/Utils.sol\":22581:22799  if(isLpAddress(lpAddress[i]) == 1){... */\n    tag_269:\n        /* \"contracts/Utils.sol\":22562:22565  i++ */\n      dup1\n      dup1\n      tag_274\n      swap1\n      tag_148\n      jump\t// in\n    tag_274:\n      swap2\n      pop\n      pop\n        /* \"contracts/Utils.sol\":22524:22810  for(uint256 i=0; i< lpAddress.length; i++){... */\n      jump(tag_258)\n    tag_259:\n      pop\n        /* \"contracts/Utils.sol\":22829:22832  TVL */\n      dup1\n        /* \"contracts/Utils.sol\":22822:22832  return TVL */\n      swap2\n      pop\n      pop\n        /* \"contracts/Utils.sol\":22386:22840  function CalcTotalTVL(MetaMasterChef MasterChef,LP[] memory lpAddress) external view returns(uint256){... */\n      swap3\n      swap2\n      pop\n      pop\n      jump\t// out\n        /* \"contracts/Utils.sol\":14500:14603  function renounceOwnership() public virtual onlyOwner {... */\n    tag_70:\n        /* \"contracts/Utils.sol\":14080:14092  _msgSender() */\n      tag_276\n        /* \"contracts/Utils.sol\":14080:14090  _msgSender */\n      tag_277\n        /* \"contracts/Utils.sol\":14080:14092  _msgSender() */\n      jump\t// in\n    tag_276:\n        /* \"contracts/Utils.sol\":14069:14092  owner() == _msgSender() */\n      0xffffffffffffffffffffffffffffffffffffffff\n      and\n        /* \"contracts/Utils.sol\":14069:14076  owner() */\n      tag_278\n        /* \"contracts/Utils.sol\":14069:14074  owner */\n      tag_72\n        /* \"contracts/Utils.sol\":14069:14076  owner() */\n      jump\t// in\n    tag_278:\n        /* \"contracts/Utils.sol\":14069:14092  owner() == _msgSender() */\n      0xffffffffffffffffffffffffffffffffffffffff\n      and\n      eq\n        /* \"contracts/Utils.sol\":14061:14129  require(owner() == _msgSender(), \"Ownable: caller is not the owner\") */\n      tag_279\n      jumpi\n      mload(0x40)\n      0x08c379a000000000000000000000000000000000000000000000000000000000\n      dup2\n      mstore\n      0x04\n      add\n      tag_280\n      swap1\n      tag_281\n      jump\t// in\n    tag_280:\n      mload(0x40)\n      dup1\n      swap2\n      sub\n      swap1\n      revert\n    tag_279:\n        /* \"contracts/Utils.sol\":14565:14595  _transferOwnership(address(0)) */\n      tag_283\n        /* \"contracts/Utils.sol\":14592:14593  0 */\n      0x00\n        /* \"contracts/Utils.sol\":14565:14583  _transferOwnership */\n      tag_284\n        /* \"contracts/Utils.sol\":14565:14595  _transferOwnership(address(0)) */\n      jump\t// in\n    tag_283:\n        /* \"contracts/Utils.sol\":14500:14603  function renounceOwnership() public virtual onlyOwner {... */\n      jump\t// out\n        /* \"contracts/Utils.sol\":13849:13936  function owner() public view virtual returns (address) {... */\n    tag_72:\n        /* \"contracts/Utils.sol\":13895:13902  address */\n      0x00\n        /* \"contracts/Utils.sol\":13922:13928  _owner */\n      dup1\n      0x00\n      swap1\n      sload\n      swap1\n      0x0100\n      exp\n      swap1\n      div\n      0xffffffffffffffffffffffffffffffffffffffff\n      and\n        /* \"contracts/Utils.sol\":13915:13928  return _owner */\n      swap1\n      pop\n        /* \"contracts/Utils.sol\":13849:13936  function owner() public view virtual returns (address) {... */\n      swap1\n      jump\t// out\n        /* \"contracts/Utils.sol\":17942:17961  address public WBNB */\n    tag_75:\n      0x01\n      0x00\n      swap1\n      sload\n      swap1\n      0x0100\n      exp\n      swap1\n      div\n      0xffffffffffffffffffffffffffffffffffffffff\n      and\n      dup2\n      jump\t// out\n        /* \"contracts/Utils.sol\":18288:18395  function setRouter(Router _routerAddress) public onlyOwner{... */\n    tag_80:\n        /* \"contracts/Utils.sol\":14080:14092  _msgSender() */\n      tag_287\n        /* \"contracts/Utils.sol\":14080:14090  _msgSender */\n      tag_277\n        /* \"contracts/Utils.sol\":14080:14092  _msgSender() */\n      jump\t// in\n    tag_287:\n        /* \"contracts/Utils.sol\":14069:14092  owner() == _msgSender() */\n      0xffffffffffffffffffffffffffffffffffffffff\n      and\n        /* \"contracts/Utils.sol\":14069:14076  owner() */\n      tag_288\n        /* \"contracts/Utils.sol\":14069:14074  owner */\n      tag_72\n        /* \"contracts/Utils.sol\":14069:14076  owner() */\n      jump\t// in\n    tag_288:\n        /* \"contracts/Utils.sol\":14069:14092  owner() == _msgSender() */\n      0xffffffffffffffffffffffffffffffffffffffff\n      and\n      eq\n        /* \"contracts/Utils.sol\":14061:14129  require(owner() == _msgSender(), \"Ownable: caller is not the owner\") */\n      tag_289\n      jumpi\n      mload(0x40)\n      0x08c379a000000000000000000000000000000000000000000000000000000000\n      dup2\n      mstore\n      0x04\n      add\n      tag_290\n      swap1\n      tag_281\n      jump\t// in\n    tag_290:\n      mload(0x40)\n      dup1\n      swap2\n      sub\n      swap1\n      revert\n    tag_289:\n        /* \"contracts/Utils.sol\":18373:18387  _routerAddress */\n      dup1\n        /* \"contracts/Utils.sol\":18357:18370  routerAddress */\n      0x04\n      0x00\n        /* \"contracts/Utils.sol\":18357:18387  routerAddress = _routerAddress */\n      0x0100\n      exp\n      dup2\n      sload\n      dup2\n      0xffffffffffffffffffffffffffffffffffffffff\n      mul\n      not\n      and\n      swap1\n      dup4\n      0xffffffffffffffffffffffffffffffffffffffff\n      and\n      mul\n      or\n      swap1\n      sstore\n      pop\n        /* \"contracts/Utils.sol\":18288:18395  function setRouter(Router _routerAddress) public onlyOwner{... */\n      pop\n      jump\t// out\n        /* \"contracts/Utils.sol\":19833:20404  function calcPoolTVLInUSD(uint256 pid, LP lpAddress, uint256 isLp, MetaMasterChef MasterChef) public view returns(uint256){... */\n    tag_84:\n        /* \"contracts/Utils.sol\":19947:19954  uint256 */\n      0x00\n        /* \"contracts/Utils.sol\":19966:19981  uint256 Balance */\n      dup1\n        /* \"contracts/Utils.sol\":19984:19994  MasterChef */\n      dup3\n        /* \"contracts/Utils.sol\":19984:20006  MasterChef.poolBalance */\n      0xffffffffffffffffffffffffffffffffffffffff\n      and\n      0x6a6d964e\n        /* \"contracts/Utils.sol\":20007:20010  pid */\n      dup8\n        /* \"contracts/Utils.sol\":19984:20011  MasterChef.poolBalance(pid) */\n      mload(0x40)\n      dup3\n      0xffffffff\n      and\n      0xe0\n      shl\n      dup2\n      mstore\n      0x04\n      add\n      tag_293\n      swap2\n      swap1\n      tag_28\n      jump\t// in\n    tag_293:\n      0x20\n      mload(0x40)\n      dup1\n      dup4\n      sub\n      dup2\n      dup7\n      gas\n      staticcall\n      iszero\n      dup1\n      iszero\n      tag_295\n      jumpi\n      returndatasize\n      0x00\n      dup1\n      returndatacopy\n      revert(0x00, returndatasize)\n    tag_295:\n      pop\n      pop\n      pop\n      pop\n      mload(0x40)\n      returndatasize\n      not(0x1f)\n      0x1f\n      dup3\n      add\n      and\n      dup3\n      add\n      dup1\n      0x40\n      mstore\n      pop\n      dup2\n      add\n      swap1\n      tag_296\n      swap2\n      swap1\n      tag_102\n      jump\t// in\n    tag_296:\n        /* \"contracts/Utils.sol\":19966:20011  uint256 Balance = MasterChef.poolBalance(pid) */\n      swap1\n      pop\n        /* \"contracts/Utils.sol\":20022:20035  uint256 price */\n      0x00\n        /* \"contracts/Utils.sol\":20057:20058  1 */\n      0x01\n        /* \"contracts/Utils.sol\":20049:20053  isLp */\n      dup6\n        /* \"contracts/Utils.sol\":20049:20058  isLp == 1 */\n      sub\n        /* \"contracts/Utils.sol\":20046:20348  if(isLp == 1){... */\n      tag_297\n      jumpi\n        /* \"contracts/Utils.sol\":20082:20104  CalcLpPrice(lpAddress) */\n      tag_298\n        /* \"contracts/Utils.sol\":20094:20103  lpAddress */\n      dup7\n        /* \"contracts/Utils.sol\":20082:20093  CalcLpPrice */\n      tag_47\n        /* \"contracts/Utils.sol\":20082:20104  CalcLpPrice(lpAddress) */\n      jump\t// in\n    tag_298:\n        /* \"contracts/Utils.sol\":20074:20104  price = CalcLpPrice(lpAddress) */\n      swap1\n      pop\n        /* \"contracts/Utils.sol\":20046:20348  if(isLp == 1){... */\n      jump(tag_299)\n    tag_297:\n        /* \"contracts/Utils.sol\":20132:20133  0 */\n      0x00\n        /* \"contracts/Utils.sol\":20124:20128  isLp */\n      dup6\n        /* \"contracts/Utils.sol\":20124:20133  isLp == 0 */\n      sub\n        /* \"contracts/Utils.sol\":20121:20348  if(isLp == 0){... */\n      tag_300\n      jumpi\n        /* \"contracts/Utils.sol\":20177:20186  lpAddress */\n      dup6\n        /* \"contracts/Utils.sol\":20152:20187  address(WBNB) == address(lpAddress) */\n      0xffffffffffffffffffffffffffffffffffffffff\n      and\n        /* \"contracts/Utils.sol\":20160:20164  WBNB */\n      0x01\n      0x00\n      swap1\n      sload\n      swap1\n      0x0100\n      exp\n      swap1\n      div\n      0xffffffffffffffffffffffffffffffffffffffff\n      and\n        /* \"contracts/Utils.sol\":20152:20187  address(WBNB) == address(lpAddress) */\n      0xffffffffffffffffffffffffffffffffffffffff\n      and\n      sub\n        /* \"contracts/Utils.sol\":20149:20337  if(address(WBNB) == address(lpAddress)){... */\n      tag_301\n      jumpi\n        /* \"contracts/Utils.sol\":20215:20244  WBNBPrice(address(lpAddress)) */\n      tag_302\n        /* \"contracts/Utils.sol\":20233:20242  lpAddress */\n      dup7\n        /* \"contracts/Utils.sol\":20215:20224  WBNBPrice */\n      tag_59\n        /* \"contracts/Utils.sol\":20215:20244  WBNBPrice(address(lpAddress)) */\n      jump\t// in\n    tag_302:\n        /* \"contracts/Utils.sol\":20207:20244  price = WBNBPrice(address(lpAddress)) */\n      swap1\n      pop\n        /* \"contracts/Utils.sol\":20149:20337  if(address(WBNB) == address(lpAddress)){... */\n      jump(tag_303)\n    tag_301:\n        /* \"contracts/Utils.sol\":20291:20321  Tokenprice(address(lpAddress)) */\n      tag_304\n        /* \"contracts/Utils.sol\":20310:20319  lpAddress */\n      dup7\n        /* \"contracts/Utils.sol\":20291:20301  Tokenprice */\n      tag_42\n        /* \"contracts/Utils.sol\":20291:20321  Tokenprice(address(lpAddress)) */\n      jump\t// in\n    tag_304:\n        /* \"contracts/Utils.sol\":20283:20321  price = Tokenprice(address(lpAddress)) */\n      swap1\n      pop\n        /* \"contracts/Utils.sol\":20149:20337  if(address(WBNB) == address(lpAddress)){... */\n    tag_303:\n        /* \"contracts/Utils.sol\":20121:20348  if(isLp == 0){... */\n    tag_300:\n        /* \"contracts/Utils.sol\":20046:20348  if(isLp == 1){... */\n    tag_299:\n        /* \"contracts/Utils.sol\":20367:20396  (Balance * price).div(amount) */\n      tag_305\n        /* \"contracts/Utils.sol\":20389:20395  amount */\n      sload(0x03)\n        /* \"contracts/Utils.sol\":20378:20383  price */\n      dup3\n        /* \"contracts/Utils.sol\":20368:20375  Balance */\n      dup5\n        /* \"contracts/Utils.sol\":20368:20383  Balance * price */\n      tag_306\n      swap2\n      swap1\n      tag_107\n      jump\t// in\n    tag_306:\n        /* \"contracts/Utils.sol\":20367:20388  (Balance * price).div */\n      tag_127\n      swap1\n        /* \"contracts/Utils.sol\":20367:20396  (Balance * price).div(amount) */\n      swap2\n      swap1\n      0xffffffff\n      and\n      jump\t// in\n    tag_305:\n        /* \"contracts/Utils.sol\":20360:20396  return (Balance * price).div(amount) */\n      swap3\n      pop\n      pop\n      pop\n        /* \"contracts/Utils.sol\":19833:20404  function calcPoolTVLInUSD(uint256 pid, LP lpAddress, uint256 isLp, MetaMasterChef MasterChef) public view returns(uint256){... */\n      swap5\n      swap4\n      pop\n      pop\n      pop\n      pop\n      jump\t// out\n        /* \"contracts/Utils.sol\":20998:21700  function CalcApy(uint256 pid, LP lpAddress,uint256 isLp, MetaMasterChef MasterChef) external view returns(uint256){... */\n    tag_88:\n        /* \"contracts/Utils.sol\":21104:21111  uint256 */\n      0x00\n        /* \"contracts/Utils.sol\":21123:21143  PoolInfo memory pool */\n      dup1\n        /* \"contracts/Utils.sol\":21146:21156  MasterChef */\n      dup3\n        /* \"contracts/Utils.sol\":21146:21165  MasterChef.poolInfo */\n      0xffffffffffffffffffffffffffffffffffffffff\n      and\n      0x1526fe27\n        /* \"contracts/Utils.sol\":21166:21169  pid */\n      dup8\n        /* \"contracts/Utils.sol\":21146:21170  MasterChef.poolInfo(pid) */\n      mload(0x40)\n      dup3\n      0xffffffff\n      and\n      0xe0\n      shl\n      dup2\n      mstore\n      0x04\n      add\n      tag_308\n      swap2\n      swap1\n      tag_28\n      jump\t// in\n    tag_308:\n      0xc0\n      mload(0x40)\n      dup1\n      dup4\n      sub\n      dup2\n      dup7\n      gas\n      staticcall\n      iszero\n      dup1\n      iszero\n      tag_310\n      jumpi\n      returndatasize\n      0x00\n      dup1\n      returndatacopy\n      revert(0x00, returndatasize)\n    tag_310:\n      pop\n      pop\n      pop\n      pop\n      mload(0x40)\n      returndatasize\n      not(0x1f)\n      0x1f\n      dup3\n      add\n      and\n      dup3\n      add\n      dup1\n      0x40\n      mstore\n      pop\n      dup2\n      add\n      swap1\n      tag_311\n      swap2\n      swap1\n      tag_98\n      jump\t// in\n    tag_311:\n        /* \"contracts/Utils.sol\":21123:21170  PoolInfo memory pool = MasterChef.poolInfo(pid) */\n      swap1\n      pop\n        /* \"contracts/Utils.sol\":21181:21199  uint256 poolWeight */\n      0x00\n        /* \"contracts/Utils.sol\":21202:21267  ((pool.allocPoint).mul(amount)).div(MasterChef.totalAllocPoint()) */\n      tag_312\n        /* \"contracts/Utils.sol\":21238:21248  MasterChef */\n      dup5\n        /* \"contracts/Utils.sol\":21238:21264  MasterChef.totalAllocPoint */\n      0xffffffffffffffffffffffffffffffffffffffff\n      and\n      0x17caf6f1\n        /* \"contracts/Utils.sol\":21238:21266  MasterChef.totalAllocPoint() */\n      mload(0x40)\n      dup2\n      0xffffffff\n      and\n      0xe0\n      shl\n      dup2\n      mstore\n      0x04\n      add\n      0x20\n      mload(0x40)\n      dup1\n      dup4\n      sub\n      dup2\n      dup7\n      gas\n      staticcall\n      iszero\n      dup1\n      iszero\n      tag_314\n      jumpi\n      returndatasize\n      0x00\n      dup1\n      returndatacopy\n      revert(0x00, returndatasize)\n    tag_314:\n      pop\n      pop\n      pop\n      pop\n      mload(0x40)\n      returndatasize\n      not(0x1f)\n      0x1f\n      dup3\n      add\n      and\n      dup3\n      add\n      dup1\n      0x40\n      mstore\n      pop\n      dup2\n      add\n      swap1\n      tag_315\n      swap2\n      swap1\n      tag_102\n      jump\t// in\n    tag_315:\n        /* \"contracts/Utils.sol\":21203:21232  (pool.allocPoint).mul(amount) */\n      tag_316\n        /* \"contracts/Utils.sol\":21225:21231  amount */\n      sload(0x03)\n        /* \"contracts/Utils.sol\":21204:21208  pool */\n      dup6\n        /* \"contracts/Utils.sol\":21204:21219  pool.allocPoint */\n      0x20\n      add\n      mload\n        /* \"contracts/Utils.sol\":21203:21224  (pool.allocPoint).mul */\n      tag_186\n      swap1\n        /* \"contracts/Utils.sol\":21203:21232  (pool.allocPoint).mul(amount) */\n      swap2\n      swap1\n      0xffffffff\n      and\n      jump\t// in\n    tag_316:\n        /* \"contracts/Utils.sol\":21202:21237  ((pool.allocPoint).mul(amount)).div */\n      tag_127\n      swap1\n        /* \"contracts/Utils.sol\":21202:21267  ((pool.allocPoint).mul(amount)).div(MasterChef.totalAllocPoint()) */\n      swap2\n      swap1\n      0xffffffff\n      and\n      jump\t// in\n    tag_312:\n        /* \"contracts/Utils.sol\":21181:21267  uint256 poolWeight = ((pool.allocPoint).mul(amount)).div(MasterChef.totalAllocPoint()) */\n      swap1\n      pop\n        /* \"contracts/Utils.sol\":21278:21302  uint256 rewardTokenPrice */\n      0x00\n        /* \"contracts/Utils.sol\":21305:21333  Tokenprice(MasterChef.DRG()) */\n      tag_317\n        /* \"contracts/Utils.sol\":21316:21326  MasterChef */\n      dup6\n        /* \"contracts/Utils.sol\":21316:21330  MasterChef.DRG */\n      0xffffffffffffffffffffffffffffffffffffffff\n      and\n      0x141aa0ba\n        /* \"contracts/Utils.sol\":21316:21332  MasterChef.DRG() */\n      mload(0x40)\n      dup2\n      0xffffffff\n      and\n      0xe0\n      shl\n      dup2\n      mstore\n      0x04\n      add\n      0x20\n      mload(0x40)\n      dup1\n      dup4\n      sub\n      dup2\n      dup7\n      gas\n      staticcall\n      iszero\n      dup1\n      iszero\n      tag_319\n      jumpi\n      returndatasize\n      0x00\n      dup1\n      returndatacopy\n      revert(0x00, returndatasize)\n    tag_319:\n      pop\n      pop\n      pop\n      pop\n      mload(0x40)\n      returndatasize\n      not(0x1f)\n      0x1f\n      dup3\n      add\n      and\n      dup3\n      add\n      dup1\n      0x40\n      mstore\n      pop\n      dup2\n      add\n      swap1\n      tag_320\n      swap2\n      swap1\n      tag_321\n      jump\t// in\n    tag_320:\n        /* \"contracts/Utils.sol\":21305:21315  Tokenprice */\n      tag_42\n        /* \"contracts/Utils.sol\":21305:21333  Tokenprice(MasterChef.DRG()) */\n      jump\t// in\n    tag_317:\n        /* \"contracts/Utils.sol\":21278:21333  uint256 rewardTokenPrice = Tokenprice(MasterChef.DRG()) */\n      swap1\n      pop\n        /* \"contracts/Utils.sol\":21344:21364  uint256 DRG_PER_YEAR */\n      0x00\n        /* \"contracts/Utils.sol\":21367:21412  BLOCKS_PER_YEAR.mul(MasterChef.DRGPerBlock()) */\n      tag_322\n        /* \"contracts/Utils.sol\":21387:21397  MasterChef */\n      dup7\n        /* \"contracts/Utils.sol\":21387:21409  MasterChef.DRGPerBlock */\n      0xffffffffffffffffffffffffffffffffffffffff\n      and\n      0xa1eef821\n        /* \"contracts/Utils.sol\":21387:21411  MasterChef.DRGPerBlock() */\n      mload(0x40)\n      dup2\n      0xffffffff\n      and\n      0xe0\n      shl\n      dup2\n      mstore\n      0x04\n      add\n      0x20\n      mload(0x40)\n      dup1\n      dup4\n      sub\n      dup2\n      dup7\n      gas\n      staticcall\n      iszero\n      dup1\n      iszero\n      tag_324\n      jumpi\n      returndatasize\n      0x00\n      dup1\n      returndatacopy\n      revert(0x00, returndatasize)\n    tag_324:\n      pop\n      pop\n      pop\n      pop\n      mload(0x40)\n      returndatasize\n      not(0x1f)\n      0x1f\n      dup3\n      add\n      and\n      dup3\n      add\n      dup1\n      0x40\n      mstore\n      pop\n      dup2\n      add\n      swap1\n      tag_325\n      swap2\n      swap1\n      tag_102\n      jump\t// in\n    tag_325:\n        /* \"contracts/Utils.sol\":21367:21382  BLOCKS_PER_YEAR */\n      sload(0x05)\n        /* \"contracts/Utils.sol\":21367:21386  BLOCKS_PER_YEAR.mul */\n      tag_186\n      swap1\n        /* \"contracts/Utils.sol\":21367:21412  BLOCKS_PER_YEAR.mul(MasterChef.DRGPerBlock()) */\n      swap2\n      swap1\n      0xffffffff\n      and\n      jump\t// in\n    tag_322:\n        /* \"contracts/Utils.sol\":21344:21412  uint256 DRG_PER_YEAR = BLOCKS_PER_YEAR.mul(MasterChef.DRGPerBlock()) */\n      swap1\n      pop\n        /* \"contracts/Utils.sol\":21423:21456  uint256 yearlyDRGRewardAllocation */\n      0x00\n        /* \"contracts/Utils.sol\":21459:21501  (DRG_PER_YEAR.mul(poolWeight)).div(amount) */\n      tag_326\n        /* \"contracts/Utils.sol\":21494:21500  amount */\n      sload(0x03)\n        /* \"contracts/Utils.sol\":21460:21488  DRG_PER_YEAR.mul(poolWeight) */\n      tag_327\n        /* \"contracts/Utils.sol\":21477:21487  poolWeight */\n      dup7\n        /* \"contracts/Utils.sol\":21460:21472  DRG_PER_YEAR */\n      dup6\n        /* \"contracts/Utils.sol\":21460:21476  DRG_PER_YEAR.mul */\n      tag_186\n      swap1\n        /* \"contracts/Utils.sol\":21460:21488  DRG_PER_YEAR.mul(poolWeight) */\n      swap2\n      swap1\n      0xffffffff\n      and\n      jump\t// in\n    tag_327:\n        /* \"contracts/Utils.sol\":21459:21493  (DRG_PER_YEAR.mul(poolWeight)).div */\n      tag_127\n      swap1\n        /* \"contracts/Utils.sol\":21459:21501  (DRG_PER_YEAR.mul(poolWeight)).div(amount) */\n      swap2\n      swap1\n      0xffffffff\n      and\n      jump\t// in\n    tag_326:\n        /* \"contracts/Utils.sol\":21423:21501  uint256 yearlyDRGRewardAllocation = (DRG_PER_YEAR.mul(poolWeight)).div(amount) */\n      swap1\n      pop\n        /* \"contracts/Utils.sol\":21512:21536  uint256 poolLiquidityUsd */\n      0x00\n        /* \"contracts/Utils.sol\":21539:21589  calcPoolTVLInUSD(pid, lpAddress, isLp, MasterChef) */\n      tag_328\n        /* \"contracts/Utils.sol\":21556:21559  pid */\n      dup12\n        /* \"contracts/Utils.sol\":21561:21570  lpAddress */\n      dup12\n        /* \"contracts/Utils.sol\":21572:21576  isLp */\n      dup12\n        /* \"contracts/Utils.sol\":21578:21588  MasterChef */\n      dup12\n        /* \"contracts/Utils.sol\":21539:21555  calcPoolTVLInUSD */\n      tag_84\n        /* \"contracts/Utils.sol\":21539:21589  calcPoolTVLInUSD(pid, lpAddress, isLp, MasterChef) */\n      jump\t// in\n    tag_328:\n        /* \"contracts/Utils.sol\":21512:21589  uint256 poolLiquidityUsd = calcPoolTVLInUSD(pid, lpAddress, isLp, MasterChef) */\n      swap1\n      pop\n        /* \"contracts/Utils.sol\":21608:21692  (((yearlyDRGRewardAllocation.mul(rewardTokenPrice))).div(poolLiquidityUsd)).mul(100) */\n      tag_329\n        /* \"contracts/Utils.sol\":21688:21691  100 */\n      0x64\n        /* \"contracts/Utils.sol\":21609:21682  ((yearlyDRGRewardAllocation.mul(rewardTokenPrice))).div(poolLiquidityUsd) */\n      tag_330\n        /* \"contracts/Utils.sol\":21665:21681  poolLiquidityUsd */\n      dup4\n        /* \"contracts/Utils.sol\":21611:21658  yearlyDRGRewardAllocation.mul(rewardTokenPrice) */\n      tag_331\n        /* \"contracts/Utils.sol\":21641:21657  rewardTokenPrice */\n      dup9\n        /* \"contracts/Utils.sol\":21611:21636  yearlyDRGRewardAllocation */\n      dup8\n        /* \"contracts/Utils.sol\":21611:21640  yearlyDRGRewardAllocation.mul */\n      tag_186\n      swap1\n        /* \"contracts/Utils.sol\":21611:21658  yearlyDRGRewardAllocation.mul(rewardTokenPrice) */\n      swap2\n      swap1\n      0xffffffff\n      and\n      jump\t// in\n    tag_331:\n        /* \"contracts/Utils.sol\":21609:21664  ((yearlyDRGRewardAllocation.mul(rewardTokenPrice))).div */\n      tag_127\n      swap1\n        /* \"contracts/Utils.sol\":21609:21682  ((yearlyDRGRewardAllocation.mul(rewardTokenPrice))).div(poolLiquidityUsd) */\n      swap2\n      swap1\n      0xffffffff\n      and\n      jump\t// in\n    tag_330:\n        /* \"contracts/Utils.sol\":21608:21687  (((yearlyDRGRewardAllocation.mul(rewardTokenPrice))).div(poolLiquidityUsd)).mul */\n      tag_186\n      swap1\n        /* \"contracts/Utils.sol\":21608:21692  (((yearlyDRGRewardAllocation.mul(rewardTokenPrice))).div(poolLiquidityUsd)).mul(100) */\n      swap2\n      swap1\n      0xffffffff\n      and\n      jump\t// in\n    tag_329:\n        /* \"contracts/Utils.sol\":21602:21692  return(((yearlyDRGRewardAllocation.mul(rewardTokenPrice))).div(poolLiquidityUsd)).mul(100) */\n      swap7\n      pop\n      pop\n      pop\n      pop\n      pop\n      pop\n      pop\n        /* \"contracts/Utils.sol\":20998:21700  function CalcApy(uint256 pid, LP lpAddress,uint256 isLp, MetaMasterChef MasterChef) external view returns(uint256){... */\n      swap5\n      swap4\n      pop\n      pop\n      pop\n      pop\n      jump\t// out\n        /* \"contracts/Utils.sol\":14758:14959  function transferOwnership(address newOwner) public virtual onlyOwner {... */\n    tag_92:\n        /* \"contracts/Utils.sol\":14080:14092  _msgSender() */\n      tag_333\n        /* \"contracts/Utils.sol\":14080:14090  _msgSender */\n      tag_277\n        /* \"contracts/Utils.sol\":14080:14092  _msgSender() */\n      jump\t// in\n    tag_333:\n        /* \"contracts/Utils.sol\":14069:14092  owner() == _msgSender() */\n      0xffffffffffffffffffffffffffffffffffffffff\n      and\n        /* \"contracts/Utils.sol\":14069:14076  owner() */\n      tag_334\n        /* \"contracts/Utils.sol\":14069:14074  owner */\n      tag_72\n        /* \"contracts/Utils.sol\":14069:14076  owner() */\n      jump\t// in\n    tag_334:\n        /* \"contracts/Utils.sol\":14069:14092  owner() == _msgSender() */\n      0xffffffffffffffffffffffffffffffffffffffff\n      and\n      eq\n        /* \"contracts/Utils.sol\":14061:14129  require(owner() == _msgSender(), \"Ownable: caller is not the owner\") */\n      tag_335\n      jumpi\n      mload(0x40)\n      0x08c379a000000000000000000000000000000000000000000000000000000000\n      dup2\n      mstore\n      0x04\n      add\n      tag_336\n      swap1\n      tag_281\n      jump\t// in\n    tag_336:\n      mload(0x40)\n      dup1\n      swap2\n      sub\n      swap1\n      revert\n    tag_335:\n        /* \"contracts/Utils.sol\":14867:14868  0 */\n      0x00\n        /* \"contracts/Utils.sol\":14847:14869  newOwner != address(0) */\n      0xffffffffffffffffffffffffffffffffffffffff\n      and\n        /* \"contracts/Utils.sol\":14847:14855  newOwner */\n      dup2\n        /* \"contracts/Utils.sol\":14847:14869  newOwner != address(0) */\n      0xffffffffffffffffffffffffffffffffffffffff\n      and\n      sub\n        /* \"contracts/Utils.sol\":14839:14912  require(newOwner != address(0), \"Ownable: new owner is the zero address\") */\n      tag_338\n      jumpi\n      mload(0x40)\n      0x08c379a000000000000000000000000000000000000000000000000000000000\n      dup2\n      mstore\n      0x04\n      add\n      tag_339\n      swap1\n      tag_340\n      jump\t// in\n    tag_339:\n      mload(0x40)\n      dup1\n      swap2\n      sub\n      swap1\n      revert\n    tag_338:\n        /* \"contracts/Utils.sol\":14923:14951  _transferOwnership(newOwner) */\n      tag_341\n        /* \"contracts/Utils.sol\":14942:14950  newOwner */\n      dup2\n        /* \"contracts/Utils.sol\":14923:14941  _transferOwnership */\n      tag_284\n        /* \"contracts/Utils.sol\":14923:14951  _transferOwnership(newOwner) */\n      jump\t// in\n    tag_341:\n        /* \"contracts/Utils.sol\":14758:14959  function transferOwnership(address newOwner) public virtual onlyOwner {... */\n      pop\n      jump\t// out\n        /* \"contracts/Utils.sol\":10904:11036  function div(uint256 a, uint256 b) internal pure returns (uint256) {... */\n    tag_127:\n        /* \"contracts/Utils.sol\":10962:10969  uint256 */\n      0x00\n        /* \"contracts/Utils.sol\":10989:11028  div(a, b, \"SafeMath: division by zero\") */\n      tag_343\n        /* \"contracts/Utils.sol\":10993:10994  a */\n      dup4\n        /* \"contracts/Utils.sol\":10996:10997  b */\n      dup4\n        /* \"contracts/Utils.sol\":10989:11028  div(a, b, \"SafeMath: division by zero\") */\n      mload(0x40)\n      dup1\n      0x40\n      add\n      0x40\n      mstore\n      dup1\n      0x1a\n      dup2\n      mstore\n      0x20\n      add\n      0x536166654d6174683a206469766973696f6e206279207a65726f000000000000\n      dup2\n      mstore\n      pop\n        /* \"contracts/Utils.sol\":10989:10992  div */\n      tag_344\n        /* \"contracts/Utils.sol\":10989:11028  div(a, b, \"SafeMath: division by zero\") */\n      jump\t// in\n    tag_343:\n        /* \"contracts/Utils.sol\":10982:11028  return div(a, b, \"SafeMath: division by zero\") */\n      swap1\n      pop\n        /* \"contracts/Utils.sol\":10904:11036  function div(uint256 a, uint256 b) internal pure returns (uint256) {... */\n      swap3\n      swap2\n      pop\n      pop\n      jump\t// out\n        /* \"contracts/Utils.sol\":9965:10436  function mul(uint256 a, uint256 b) internal pure returns (uint256) {... */\n    tag_186:\n        /* \"contracts/Utils.sol\":10023:10030  uint256 */\n      0x00\n        /* \"contracts/Utils.sol\":10273:10274  0 */\n      dup1\n        /* \"contracts/Utils.sol\":10268:10269  a */\n      dup4\n        /* \"contracts/Utils.sol\":10268:10274  a == 0 */\n      sub\n        /* \"contracts/Utils.sol\":10264:10311  if (a == 0) {... */\n      tag_346\n      jumpi\n        /* \"contracts/Utils.sol\":10298:10299  0 */\n      0x00\n        /* \"contracts/Utils.sol\":10291:10299  return 0 */\n      swap1\n      pop\n      jump(tag_345)\n        /* \"contracts/Utils.sol\":10264:10311  if (a == 0) {... */\n    tag_346:\n        /* \"contracts/Utils.sol\":10323:10332  uint256 c */\n      0x00\n        /* \"contracts/Utils.sol\":10339:10340  b */\n      dup3\n        /* \"contracts/Utils.sol\":10335:10336  a */\n      dup5\n        /* \"contracts/Utils.sol\":10335:10340  a * b */\n      tag_347\n      swap2\n      swap1\n      tag_107\n      jump\t// in\n    tag_347:\n        /* \"contracts/Utils.sol\":10323:10340  uint256 c = a * b */\n      swap1\n      pop\n        /* \"contracts/Utils.sol\":10368:10369  b */\n      dup3\n        /* \"contracts/Utils.sol\":10363:10364  a */\n      dup5\n        /* \"contracts/Utils.sol\":10359:10360  c */\n      dup3\n        /* \"contracts/Utils.sol\":10359:10364  c / a */\n      tag_348\n      swap2\n      swap1\n      tag_109\n      jump\t// in\n    tag_348:\n        /* \"contracts/Utils.sol\":10359:10369  c / a == b */\n      eq\n        /* \"contracts/Utils.sol\":10351:10407  require(c / a == b, \"SafeMath: multiplication overflow\") */\n      tag_349\n      jumpi\n      mload(0x40)\n      0x08c379a000000000000000000000000000000000000000000000000000000000\n      dup2\n      mstore\n      0x04\n      add\n      tag_350\n      swap1\n      tag_351\n      jump\t// in\n    tag_350:\n      mload(0x40)\n      dup1\n      swap2\n      sub\n      swap1\n      revert\n    tag_349:\n        /* \"contracts/Utils.sol\":10427:10428  c */\n      dup1\n        /* \"contracts/Utils.sol\":10420:10428  return c */\n      swap2\n      pop\n      pop\n        /* \"contracts/Utils.sol\":9965:10436  function mul(uint256 a, uint256 b) internal pure returns (uint256) {... */\n    tag_345:\n      swap3\n      swap2\n      pop\n      pop\n      jump\t// out\n        /* \"contracts/Utils.sol\":8593:8774  function add(uint256 a, uint256 b) internal pure returns (uint256) {... */\n    tag_234:\n        /* \"contracts/Utils.sol\":8651:8658  uint256 */\n      0x00\n        /* \"contracts/Utils.sol\":8671:8680  uint256 c */\n      dup1\n        /* \"contracts/Utils.sol\":8687:8688  b */\n      dup3\n        /* \"contracts/Utils.sol\":8683:8684  a */\n      dup5\n        /* \"contracts/Utils.sol\":8683:8688  a + b */\n      tag_353\n      swap2\n      swap1\n      tag_141\n      jump\t// in\n    tag_353:\n        /* \"contracts/Utils.sol\":8671:8688  uint256 c = a + b */\n      swap1\n      pop\n        /* \"contracts/Utils.sol\":8712:8713  a */\n      dup4\n        /* \"contracts/Utils.sol\":8707:8708  c */\n      dup2\n        /* \"contracts/Utils.sol\":8707:8713  c >= a */\n      lt\n      iszero\n        /* \"contracts/Utils.sol\":8699:8745  require(c >= a, \"SafeMath: addition overflow\") */\n      tag_354\n      jumpi\n      mload(0x40)\n      0x08c379a000000000000000000000000000000000000000000000000000000000\n      dup2\n      mstore\n      0x04\n      add\n      tag_355\n      swap1\n      tag_356\n      jump\t// in\n    tag_355:\n      mload(0x40)\n      dup1\n      swap2\n      sub\n      swap1\n      revert\n    tag_354:\n        /* \"contracts/Utils.sol\":8765:8766  c */\n      dup1\n        /* \"contracts/Utils.sol\":8758:8766  return c */\n      swap2\n      pop\n      pop\n        /* \"contracts/Utils.sol\":8593:8774  function add(uint256 a, uint256 b) internal pure returns (uint256) {... */\n      swap3\n      swap2\n      pop\n      pop\n      jump\t// out\n        /* \"contracts/Utils.sol\":13223:13321  function _msgSender() internal view virtual returns (address) {... */\n    tag_277:\n        /* \"contracts/Utils.sol\":13276:13283  address */\n      0x00\n        /* \"contracts/Utils.sol\":13303:13313  msg.sender */\n      caller\n        /* \"contracts/Utils.sol\":13296:13313  return msg.sender */\n      swap1\n      pop\n        /* \"contracts/Utils.sol\":13223:13321  function _msgSender() internal view virtual returns (address) {... */\n      swap1\n      jump\t// out\n        /* \"contracts/Utils.sol\":15119:15310  function _transferOwnership(address newOwner) internal virtual {... */\n    tag_284:\n        /* \"contracts/Utils.sol\":15193:15209  address oldOwner */\n      0x00\n        /* \"contracts/Utils.sol\":15212:15218  _owner */\n      dup1\n      0x00\n      swap1\n      sload\n      swap1\n      0x0100\n      exp\n      swap1\n      div\n      0xffffffffffffffffffffffffffffffffffffffff\n      and\n        /* \"contracts/Utils.sol\":15193:15218  address oldOwner = _owner */\n      swap1\n      pop\n        /* \"contracts/Utils.sol\":15238:15246  newOwner */\n      dup2\n        /* \"contracts/Utils.sol\":15229:15235  _owner */\n      0x00\n      dup1\n        /* \"contracts/Utils.sol\":15229:15246  _owner = newOwner */\n      0x0100\n      exp\n      dup2\n      sload\n      dup2\n      0xffffffffffffffffffffffffffffffffffffffff\n      mul\n      not\n      and\n      swap1\n      dup4\n      0xffffffffffffffffffffffffffffffffffffffff\n      and\n      mul\n      or\n      swap1\n      sstore\n      pop\n        /* \"contracts/Utils.sol\":15293:15301  newOwner */\n      dup2\n        /* \"contracts/Utils.sol\":15262:15302  OwnershipTransferred(oldOwner, newOwner) */\n      0xffffffffffffffffffffffffffffffffffffffff\n      and\n        /* \"contracts/Utils.sol\":15283:15291  oldOwner */\n      dup2\n        /* \"contracts/Utils.sol\":15262:15302  OwnershipTransferred(oldOwner, newOwner) */\n      0xffffffffffffffffffffffffffffffffffffffff\n      and\n      0x8be0079c531659141344cd1fd0a4f28419497f9722a3daafe3b4186f6b6457e0\n      mload(0x40)\n      mload(0x40)\n      dup1\n      swap2\n      sub\n      swap1\n      log3\n        /* \"contracts/Utils.sol\":15182:15310  {... */\n      pop\n        /* \"contracts/Utils.sol\":15119:15310  function _transferOwnership(address newOwner) internal virtual {... */\n      pop\n      jump\t// out\n        /* \"contracts/Utils.sol\":11566:11911  function div(uint256 a, uint256 b, string memory errorMessage) internal pure returns (uint256) {... */\n    tag_344:\n        /* \"contracts/Utils.sol\":11652:11659  uint256 */\n      0x00\n        /* \"contracts/Utils.sol\":11751:11752  0 */\n      dup1\n        /* \"contracts/Utils.sol\":11747:11748  b */\n      dup4\n        /* \"contracts/Utils.sol\":11747:11752  b > 0 */\n      gt\n        /* \"contracts/Utils.sol\":11754:11766  errorMessage */\n      dup3\n        /* \"contracts/Utils.sol\":11739:11767  require(b > 0, errorMessage) */\n      swap1\n      tag_360\n      jumpi\n      mload(0x40)\n      0x08c379a000000000000000000000000000000000000000000000000000000000\n      dup2\n      mstore\n      0x04\n      add\n      tag_361\n      swap2\n      swap1\n      tag_362\n      jump\t// in\n    tag_361:\n      mload(0x40)\n      dup1\n      swap2\n      sub\n      swap1\n      revert\n    tag_360:\n      pop\n        /* \"contracts/Utils.sol\":11778:11787  uint256 c */\n      0x00\n        /* \"contracts/Utils.sol\":11794:11795  b */\n      dup4\n        /* \"contracts/Utils.sol\":11790:11791  a */\n      dup6\n        /* \"contracts/Utils.sol\":11790:11795  a / b */\n      tag_363\n      swap2\n      swap1\n      tag_109\n      jump\t// in\n    tag_363:\n        /* \"contracts/Utils.sol\":11778:11795  uint256 c = a / b */\n      swap1\n      pop\n        /* \"contracts/Utils.sol\":11902:11903  c */\n      dup1\n        /* \"contracts/Utils.sol\":11895:11903  return c */\n      swap2\n      pop\n      pop\n        /* \"contracts/Utils.sol\":11566:11911  function div(uint256 a, uint256 b, string memory errorMessage) internal pure returns (uint256) {... */\n      swap4\n      swap3\n      pop\n      pop\n      pop\n      jump\t// out\n        /* \"#utility.yul\":7:82   */\n    tag_364:\n        /* \"#utility.yul\":40:46   */\n      0x00\n        /* \"#utility.yul\":73:75   */\n      0x40\n        /* \"#utility.yul\":67:76   */\n      mload\n        /* \"#utility.yul\":57:76   */\n      swap1\n      pop\n        /* \"#utility.yul\":7:82   */\n      swap1\n      jump\t// out\n        /* \"#utility.yul\":88:205   */\n    tag_365:\n        /* \"#utility.yul\":197:198   */\n      0x00\n        /* \"#utility.yul\":194:195   */\n      dup1\n        /* \"#utility.yul\":187:199   */\n      revert\n        /* \"#utility.yul\":211:328   */\n    tag_366:\n        /* \"#utility.yul\":320:321   */\n      0x00\n        /* \"#utility.yul\":317:318   */\n      dup1\n        /* \"#utility.yul\":310:322   */\n      revert\n        /* \"#utility.yul\":334:411   */\n    tag_367:\n        /* \"#utility.yul\":371:378   */\n      0x00\n        /* \"#utility.yul\":400:405   */\n      dup2\n        /* \"#utility.yul\":389:405   */\n      swap1\n      pop\n        /* \"#utility.yul\":334:411   */\n      swap2\n      swap1\n      pop\n      jump\t// out\n        /* \"#utility.yul\":417:539   */\n    tag_368:\n        /* \"#utility.yul\":490:514   */\n      tag_442\n        /* \"#utility.yul\":508:513   */\n      dup2\n        /* \"#utility.yul\":490:514   */\n      tag_367\n      jump\t// in\n    tag_442:\n        /* \"#utility.yul\":483:488   */\n      dup2\n        /* \"#utility.yul\":480:515   */\n      eq\n        /* \"#utility.yul\":470:533   */\n      tag_443\n      jumpi\n        /* \"#utility.yul\":529:530   */\n      0x00\n        /* \"#utility.yul\":526:527   */\n      dup1\n        /* \"#utility.yul\":519:531   */\n      revert\n        /* \"#utility.yul\":470:533   */\n    tag_443:\n        /* \"#utility.yul\":417:539   */\n      pop\n      jump\t// out\n        /* \"#utility.yul\":545:684   */\n    tag_369:\n        /* \"#utility.yul\":591:596   */\n      0x00\n        /* \"#utility.yul\":629:635   */\n      dup2\n        /* \"#utility.yul\":616:636   */\n      calldataload\n        /* \"#utility.yul\":607:636   */\n      swap1\n      pop\n        /* \"#utility.yul\":645:678   */\n      tag_445\n        /* \"#utility.yul\":672:677   */\n      dup2\n        /* \"#utility.yul\":645:678   */\n      tag_368\n      jump\t// in\n    tag_445:\n        /* \"#utility.yul\":545:684   */\n      swap3\n      swap2\n      pop\n      pop\n      jump\t// out\n        /* \"#utility.yul\":690:816   */\n    tag_370:\n        /* \"#utility.yul\":727:734   */\n      0x00\n        /* \"#utility.yul\":767:809   */\n      0xffffffffffffffffffffffffffffffffffffffff\n        /* \"#utility.yul\":760:765   */\n      dup3\n        /* \"#utility.yul\":756:810   */\n      and\n        /* \"#utility.yul\":745:810   */\n      swap1\n      pop\n        /* \"#utility.yul\":690:816   */\n      swap2\n      swap1\n      pop\n      jump\t// out\n        /* \"#utility.yul\":822:918   */\n    tag_371:\n        /* \"#utility.yul\":859:866   */\n      0x00\n        /* \"#utility.yul\":888:912   */\n      tag_448\n        /* \"#utility.yul\":906:911   */\n      dup3\n        /* \"#utility.yul\":888:912   */\n      tag_370\n      jump\t// in\n    tag_448:\n        /* \"#utility.yul\":877:912   */\n      swap1\n      pop\n        /* \"#utility.yul\":822:918   */\n      swap2\n      swap1\n      pop\n      jump\t// out\n        /* \"#utility.yul\":924:1041   */\n    tag_372:\n        /* \"#utility.yul\":982:989   */\n      0x00\n        /* \"#utility.yul\":1011:1035   */\n      tag_450\n        /* \"#utility.yul\":1029:1034   */\n      dup3\n        /* \"#utility.yul\":1011:1035   */\n      tag_371\n      jump\t// in\n    tag_450:\n        /* \"#utility.yul\":1000:1035   */\n      swap1\n      pop\n        /* \"#utility.yul\":924:1041   */\n      swap2\n      swap1\n      pop\n      jump\t// out\n        /* \"#utility.yul\":1047:1211   */\n    tag_373:\n        /* \"#utility.yul\":1141:1186   */\n      tag_452\n        /* \"#utility.yul\":1180:1185   */\n      dup2\n        /* \"#utility.yul\":1141:1186   */\n      tag_372\n      jump\t// in\n    tag_452:\n        /* \"#utility.yul\":1134:1139   */\n      dup2\n        /* \"#utility.yul\":1131:1187   */\n      eq\n        /* \"#utility.yul\":1121:1205   */\n      tag_453\n      jumpi\n        /* \"#utility.yul\":1201:1202   */\n      0x00\n        /* \"#utility.yul\":1198:1199   */\n      dup1\n        /* \"#utility.yul\":1191:1203   */\n      revert\n        /* \"#utility.yul\":1121:1205   */\n    tag_453:\n        /* \"#utility.yul\":1047:1211   */\n      pop\n      jump\t// out\n        /* \"#utility.yul\":1217:1398   */\n    tag_374:\n        /* \"#utility.yul\":1284:1289   */\n      0x00\n        /* \"#utility.yul\":1322:1328   */\n      dup2\n        /* \"#utility.yul\":1309:1329   */\n      calldataload\n        /* \"#utility.yul\":1300:1329   */\n      swap1\n      pop\n        /* \"#utility.yul\":1338:1392   */\n      tag_455\n        /* \"#utility.yul\":1386:1391   */\n      dup2\n        /* \"#utility.yul\":1338:1392   */\n      tag_373\n      jump\t// in\n    tag_455:\n        /* \"#utility.yul\":1217:1398   */\n      swap3\n      swap2\n      pop\n      pop\n      jump\t// out\n        /* \"#utility.yul\":1404:2065   */\n    tag_25:\n        /* \"#utility.yul\":1502:1508   */\n      0x00\n        /* \"#utility.yul\":1510:1516   */\n      dup1\n        /* \"#utility.yul\":1518:1524   */\n      0x00\n        /* \"#utility.yul\":1567:1569   */\n      0x60\n        /* \"#utility.yul\":1555:1564   */\n      dup5\n        /* \"#utility.yul\":1546:1553   */\n      dup7\n        /* \"#utility.yul\":1542:1565   */\n      sub\n        /* \"#utility.yul\":1538:1570   */\n      slt\n        /* \"#utility.yul\":1535:1654   */\n      iszero\n      tag_457\n      jumpi\n        /* \"#utility.yul\":1573:1652   */\n      tag_458\n      tag_365\n      jump\t// in\n    tag_458:\n        /* \"#utility.yul\":1535:1654   */\n    tag_457:\n        /* \"#utility.yul\":1693:1694   */\n      0x00\n        /* \"#utility.yul\":1718:1771   */\n      tag_459\n        /* \"#utility.yul\":1763:1770   */\n      dup7\n        /* \"#utility.yul\":1754:1760   */\n      dup3\n        /* \"#utility.yul\":1743:1752   */\n      dup8\n        /* \"#utility.yul\":1739:1761   */\n      add\n        /* \"#utility.yul\":1718:1771   */\n      tag_369\n      jump\t// in\n    tag_459:\n        /* \"#utility.yul\":1708:1771   */\n      swap4\n      pop\n        /* \"#utility.yul\":1664:1781   */\n      pop\n        /* \"#utility.yul\":1820:1822   */\n      0x20\n        /* \"#utility.yul\":1846:1899   */\n      tag_460\n        /* \"#utility.yul\":1891:1898   */\n      dup7\n        /* \"#utility.yul\":1882:1888   */\n      dup3\n        /* \"#utility.yul\":1871:1880   */\n      dup8\n        /* \"#utility.yul\":1867:1889   */\n      add\n        /* \"#utility.yul\":1846:1899   */\n      tag_369\n      jump\t// in\n    tag_460:\n        /* \"#utility.yul\":1836:1899   */\n      swap3\n      pop\n        /* \"#utility.yul\":1791:1909   */\n      pop\n        /* \"#utility.yul\":1948:1950   */\n      0x40\n        /* \"#utility.yul\":1974:2048   */\n      tag_461\n        /* \"#utility.yul\":2040:2047   */\n      dup7\n        /* \"#utility.yul\":2031:2037   */\n      dup3\n        /* \"#utility.yul\":2020:2029   */\n      dup8\n        /* \"#utility.yul\":2016:2038   */\n      add\n        /* \"#utility.yul\":1974:2048   */\n      tag_374\n      jump\t// in\n    tag_461:\n        /* \"#utility.yul\":1964:2048   */\n      swap2\n      pop\n        /* \"#utility.yul\":1919:2058   */\n      pop\n        /* \"#utility.yul\":1404:2065   */\n      swap3\n      pop\n      swap3\n      pop\n      swap3\n      jump\t// out\n        /* \"#utility.yul\":2071:2189   */\n    tag_375:\n        /* \"#utility.yul\":2158:2182   */\n      tag_463\n        /* \"#utility.yul\":2176:2181   */\n      dup2\n        /* \"#utility.yul\":2158:2182   */\n      tag_367\n      jump\t// in\n    tag_463:\n        /* \"#utility.yul\":2153:2156   */\n      dup3\n        /* \"#utility.yul\":2146:2183   */\n      mstore\n        /* \"#utility.yul\":2071:2189   */\n      pop\n      pop\n      jump\t// out\n        /* \"#utility.yul\":2195:2417   */\n    tag_28:\n        /* \"#utility.yul\":2288:2292   */\n      0x00\n        /* \"#utility.yul\":2326:2328   */\n      0x20\n        /* \"#utility.yul\":2315:2324   */\n      dup3\n        /* \"#utility.yul\":2311:2329   */\n      add\n        /* \"#utility.yul\":2303:2329   */\n      swap1\n      pop\n        /* \"#utility.yul\":2339:2410   */\n      tag_465\n        /* \"#utility.yul\":2407:2408   */\n      0x00\n        /* \"#utility.yul\":2396:2405   */\n      dup4\n        /* \"#utility.yul\":2392:2409   */\n      add\n        /* \"#utility.yul\":2383:2389   */\n      dup5\n        /* \"#utility.yul\":2339:2410   */\n      tag_375\n      jump\t// in\n    tag_465:\n        /* \"#utility.yul\":2195:2417   */\n      swap3\n      swap2\n      pop\n      pop\n      jump\t// out\n        /* \"#utility.yul\":2423:2529   */\n    tag_376:\n        /* \"#utility.yul\":2470:2477   */\n      0x00\n        /* \"#utility.yul\":2499:2523   */\n      tag_467\n        /* \"#utility.yul\":2517:2522   */\n      dup3\n        /* \"#utility.yul\":2499:2523   */\n      tag_371\n      jump\t// in\n    tag_467:\n        /* \"#utility.yul\":2488:2523   */\n      swap1\n      pop\n        /* \"#utility.yul\":2423:2529   */\n      swap2\n      swap1\n      pop\n      jump\t// out\n        /* \"#utility.yul\":2535:2677   */\n    tag_377:\n        /* \"#utility.yul\":2618:2652   */\n      tag_469\n        /* \"#utility.yul\":2646:2651   */\n      dup2\n        /* \"#utility.yul\":2618:2652   */\n      tag_376\n      jump\t// in\n    tag_469:\n        /* \"#utility.yul\":2611:2616   */\n      dup2\n        /* \"#utility.yul\":2608:2653   */\n      eq\n        /* \"#utility.yul\":2598:2671   */\n      tag_470\n      jumpi\n        /* \"#utility.yul\":2667:2668   */\n      0x00\n        /* \"#utility.yul\":2664:2665   */\n      dup1\n        /* \"#utility.yul\":2657:2669   */\n      revert\n        /* \"#utility.yul\":2598:2671   */\n    tag_470:\n        /* \"#utility.yul\":2535:2677   */\n      pop\n      jump\t// out\n        /* \"#utility.yul\":2683:2842   */\n    tag_378:\n        /* \"#utility.yul\":2739:2744   */\n      0x00\n        /* \"#utility.yul\":2777:2783   */\n      dup2\n        /* \"#utility.yul\":2764:2784   */\n      calldataload\n        /* \"#utility.yul\":2755:2784   */\n      swap1\n      pop\n        /* \"#utility.yul\":2793:2836   */\n      tag_472\n        /* \"#utility.yul\":2830:2835   */\n      dup2\n        /* \"#utility.yul\":2793:2836   */\n      tag_377\n      jump\t// in\n    tag_472:\n        /* \"#utility.yul\":2683:2842   */\n      swap3\n      swap2\n      pop\n      pop\n      jump\t// out\n        /* \"#utility.yul\":2848:2966   */\n    tag_379:\n        /* \"#utility.yul\":2907:2914   */\n      0x00\n        /* \"#utility.yul\":2936:2960   */\n      tag_474\n        /* \"#utility.yul\":2954:2959   */\n      dup3\n        /* \"#utility.yul\":2936:2960   */\n      tag_371\n      jump\t// in\n    tag_474:\n        /* \"#utility.yul\":2925:2960   */\n      swap1\n      pop\n        /* \"#utility.yul\":2848:2966   */\n      swap2\n      swap1\n      pop\n      jump\t// out\n        /* \"#utility.yul\":2972:3138   */\n    tag_380:\n        /* \"#utility.yul\":3067:3113   */\n      tag_476\n        /* \"#utility.yul\":3107:3112   */\n      dup2\n        /* \"#utility.yul\":3067:3113   */\n      tag_379\n      jump\t// in\n    tag_476:\n        /* \"#utility.yul\":3060:3065   */\n      dup2\n        /* \"#utility.yul\":3057:3114   */\n      eq\n        /* \"#utility.yul\":3047:3132   */\n      tag_477\n      jumpi\n        /* \"#utility.yul\":3128:3129   */\n      0x00\n        /* \"#utility.yul\":3125:3126   */\n      dup1\n        /* \"#utility.yul\":3118:3130   */\n      revert\n        /* \"#utility.yul\":3047:3132   */\n    tag_477:\n        /* \"#utility.yul\":2972:3138   */\n      pop\n      jump\t// out\n        /* \"#utility.yul\":3144:3327   */\n    tag_381:\n        /* \"#utility.yul\":3212:3217   */\n      0x00\n        /* \"#utility.yul\":3250:3256   */\n      dup2\n        /* \"#utility.yul\":3237:3257   */\n      calldataload\n        /* \"#utility.yul\":3228:3257   */\n      swap1\n      pop\n        /* \"#utility.yul\":3266:3321   */\n      tag_479\n        /* \"#utility.yul\":3315:3320   */\n      dup2\n        /* \"#utility.yul\":3266:3321   */\n      tag_380\n      jump\t// in\n    tag_479:\n        /* \"#utility.yul\":3144:3327   */\n      swap3\n      swap2\n      pop\n      pop\n      jump\t// out\n        /* \"#utility.yul\":3333:4016   */\n    tag_31:\n        /* \"#utility.yul\":3442:3448   */\n      0x00\n        /* \"#utility.yul\":3450:3456   */\n      dup1\n        /* \"#utility.yul\":3458:3464   */\n      0x00\n        /* \"#utility.yul\":3507:3509   */\n      0x60\n        /* \"#utility.yul\":3495:3504   */\n      dup5\n        /* \"#utility.yul\":3486:3493   */\n      dup7\n        /* \"#utility.yul\":3482:3505   */\n      sub\n        /* \"#utility.yul\":3478:3510   */\n      slt\n        /* \"#utility.yul\":3475:3594   */\n      iszero\n      tag_481\n      jumpi\n        /* \"#utility.yul\":3513:3592   */\n      tag_482\n      tag_365\n      jump\t// in\n    tag_482:\n        /* \"#utility.yul\":3475:3594   */\n    tag_481:\n        /* \"#utility.yul\":3633:3634   */\n      0x00\n        /* \"#utility.yul\":3658:3721   */\n      tag_483\n        /* \"#utility.yul\":3713:3720   */\n      dup7\n        /* \"#utility.yul\":3704:3710   */\n      dup3\n        /* \"#utility.yul\":3693:3702   */\n      dup8\n        /* \"#utility.yul\":3689:3711   */\n      add\n        /* \"#utility.yul\":3658:3721   */\n      tag_378\n      jump\t// in\n    tag_483:\n        /* \"#utility.yul\":3648:3721   */\n      swap4\n      pop\n        /* \"#utility.yul\":3604:3731   */\n      pop\n        /* \"#utility.yul\":3770:3772   */\n      0x20\n        /* \"#utility.yul\":3796:3849   */\n      tag_484\n        /* \"#utility.yul\":3841:3848   */\n      dup7\n        /* \"#utility.yul\":3832:3838   */\n      dup3\n        /* \"#utility.yul\":3821:3830   */\n      dup8\n        /* \"#utility.yul\":3817:3839   */\n      add\n        /* \"#utility.yul\":3796:3849   */\n      tag_369\n      jump\t// in\n    tag_484:\n        /* \"#utility.yul\":3786:3849   */\n      swap3\n      pop\n        /* \"#utility.yul\":3741:3859   */\n      pop\n        /* \"#utility.yul\":3898:3900   */\n      0x40\n        /* \"#utility.yul\":3924:3999   */\n      tag_485\n        /* \"#utility.yul\":3991:3998   */\n      dup7\n        /* \"#utility.yul\":3982:3988   */\n      dup3\n        /* \"#utility.yul\":3971:3980   */\n      dup8\n        /* \"#utility.yul\":3967:3989   */\n      add\n        /* \"#utility.yul\":3924:3999   */\n      tag_381\n      jump\t// in\n    tag_485:\n        /* \"#utility.yul\":3914:3999   */\n      swap2\n      pop\n        /* \"#utility.yul\":3869:4009   */\n      pop\n        /* \"#utility.yul\":3333:4016   */\n      swap3\n      pop\n      swap3\n      pop\n      swap3\n      jump\t// out\n        /* \"#utility.yul\":4022:4139   */\n    tag_382:\n        /* \"#utility.yul\":4131:4132   */\n      0x00\n        /* \"#utility.yul\":4128:4129   */\n      dup1\n        /* \"#utility.yul\":4121:4133   */\n      revert\n        /* \"#utility.yul\":4145:4247   */\n    tag_383:\n        /* \"#utility.yul\":4186:4192   */\n      0x00\n        /* \"#utility.yul\":4237:4239   */\n      0x1f\n        /* \"#utility.yul\":4233:4240   */\n      not\n        /* \"#utility.yul\":4228:4230   */\n      0x1f\n        /* \"#utility.yul\":4221:4226   */\n      dup4\n        /* \"#utility.yul\":4217:4231   */\n      add\n        /* \"#utility.yul\":4213:4241   */\n      and\n        /* \"#utility.yul\":4203:4241   */\n      swap1\n      pop\n        /* \"#utility.yul\":4145:4247   */\n      swap2\n      swap1\n      pop\n      jump\t// out\n        /* \"#utility.yul\":4253:4433   */\n    tag_152:\n        /* \"#utility.yul\":4301:4378   */\n      0x4e487b7100000000000000000000000000000000000000000000000000000000\n        /* \"#utility.yul\":4298:4299   */\n      0x00\n        /* \"#utility.yul\":4291:4379   */\n      mstore\n        /* \"#utility.yul\":4398:4402   */\n      0x41\n        /* \"#utility.yul\":4395:4396   */\n      0x04\n        /* \"#utility.yul\":4388:4403   */\n      mstore\n        /* \"#utility.yul\":4422:4426   */\n      0x24\n        /* \"#utility.yul\":4419:4420   */\n      0x00\n        /* \"#utility.yul\":4412:4427   */\n      revert\n        /* \"#utility.yul\":4439:4720   */\n    tag_384:\n        /* \"#utility.yul\":4522:4549   */\n      tag_490\n        /* \"#utility.yul\":4544:4548   */\n      dup3\n        /* \"#utility.yul\":4522:4549   */\n      tag_383\n      jump\t// in\n    tag_490:\n        /* \"#utility.yul\":4514:4520   */\n      dup2\n        /* \"#utility.yul\":4510:4550   */\n      add\n        /* \"#utility.yul\":4652:4658   */\n      dup2\n        /* \"#utility.yul\":4640:4650   */\n      dup2\n        /* \"#utility.yul\":4637:4659   */\n      lt\n        /* \"#utility.yul\":4616:4634   */\n      0xffffffffffffffff\n        /* \"#utility.yul\":4604:4614   */\n      dup3\n        /* \"#utility.yul\":4601:4635   */\n      gt\n        /* \"#utility.yul\":4598:4660   */\n      or\n        /* \"#utility.yul\":4595:4683   */\n      iszero\n      tag_491\n      jumpi\n        /* \"#utility.yul\":4663:4681   */\n      tag_492\n      tag_152\n      jump\t// in\n    tag_492:\n        /* \"#utility.yul\":4595:4683   */\n    tag_491:\n        /* \"#utility.yul\":4703:4713   */\n      dup1\n        /* \"#utility.yul\":4699:4701   */\n      0x40\n        /* \"#utility.yul\":4692:4714   */\n      mstore\n        /* \"#utility.yul\":4482:4720   */\n      pop\n        /* \"#utility.yul\":4439:4720   */\n      pop\n      pop\n      jump\t// out\n        /* \"#utility.yul\":4726:4855   */\n    tag_385:\n        /* \"#utility.yul\":4760:4766   */\n      0x00\n        /* \"#utility.yul\":4787:4807   */\n      tag_494\n      tag_364\n      jump\t// in\n    tag_494:\n        /* \"#utility.yul\":4777:4807   */\n      swap1\n      pop\n        /* \"#utility.yul\":4816:4849   */\n      tag_495\n        /* \"#utility.yul\":4844:4848   */\n      dup3\n        /* \"#utility.yul\":4836:4842   */\n      dup3\n        /* \"#utility.yul\":4816:4849   */\n      tag_384\n      jump\t// in\n    tag_495:\n        /* \"#utility.yul\":4726:4855   */\n      swap2\n      swap1\n      pop\n      jump\t// out\n        /* \"#utility.yul\":4861:5182   */\n    tag_386:\n        /* \"#utility.yul\":4948:4952   */\n      0x00\n        /* \"#utility.yul\":5038:5056   */\n      0xffffffffffffffff\n        /* \"#utility.yul\":5030:5036   */\n      dup3\n        /* \"#utility.yul\":5027:5057   */\n      gt\n        /* \"#utility.yul\":5024:5080   */\n      iszero\n      tag_497\n      jumpi\n        /* \"#utility.yul\":5060:5078   */\n      tag_498\n      tag_152\n      jump\t// in\n    tag_498:\n        /* \"#utility.yul\":5024:5080   */\n    tag_497:\n        /* \"#utility.yul\":5110:5114   */\n      0x20\n        /* \"#utility.yul\":5102:5108   */\n      dup3\n        /* \"#utility.yul\":5098:5115   */\n      mul\n        /* \"#utility.yul\":5090:5115   */\n      swap1\n      pop\n        /* \"#utility.yul\":5170:5174   */\n      0x20\n        /* \"#utility.yul\":5164:5168   */\n      dup2\n        /* \"#utility.yul\":5160:5175   */\n      add\n        /* \"#utility.yul\":5152:5175   */\n      swap1\n      pop\n        /* \"#utility.yul\":4861:5182   */\n      swap2\n      swap1\n      pop\n      jump\t// out\n        /* \"#utility.yul\":5188:5305   */\n    tag_387:\n        /* \"#utility.yul\":5297:5298   */\n      0x00\n        /* \"#utility.yul\":5294:5295   */\n      dup1\n        /* \"#utility.yul\":5287:5299   */\n      revert\n        /* \"#utility.yul\":5332:6072   */\n    tag_388:\n        /* \"#utility.yul\":5438:5443   */\n      0x00\n        /* \"#utility.yul\":5463:5554   */\n      tag_501\n        /* \"#utility.yul\":5479:5553   */\n      tag_502\n        /* \"#utility.yul\":5546:5552   */\n      dup5\n        /* \"#utility.yul\":5479:5553   */\n      tag_386\n      jump\t// in\n    tag_502:\n        /* \"#utility.yul\":5463:5554   */\n      tag_385\n      jump\t// in\n    tag_501:\n        /* \"#utility.yul\":5454:5554   */\n      swap1\n      pop\n        /* \"#utility.yul\":5574:5579   */\n      dup1\n        /* \"#utility.yul\":5603:5609   */\n      dup4\n        /* \"#utility.yul\":5596:5601   */\n      dup3\n        /* \"#utility.yul\":5589:5610   */\n      mstore\n        /* \"#utility.yul\":5637:5641   */\n      0x20\n        /* \"#utility.yul\":5630:5635   */\n      dup3\n        /* \"#utility.yul\":5626:5642   */\n      add\n        /* \"#utility.yul\":5619:5642   */\n      swap1\n      pop\n        /* \"#utility.yul\":5690:5694   */\n      0x20\n        /* \"#utility.yul\":5682:5688   */\n      dup5\n        /* \"#utility.yul\":5678:5695   */\n      mul\n        /* \"#utility.yul\":5670:5676   */\n      dup4\n        /* \"#utility.yul\":5666:5696   */\n      add\n        /* \"#utility.yul\":5719:5722   */\n      dup6\n        /* \"#utility.yul\":5711:5717   */\n      dup2\n        /* \"#utility.yul\":5708:5723   */\n      gt\n        /* \"#utility.yul\":5705:5827   */\n      iszero\n      tag_503\n      jumpi\n        /* \"#utility.yul\":5738:5817   */\n      tag_504\n      tag_387\n      jump\t// in\n    tag_504:\n        /* \"#utility.yul\":5705:5827   */\n    tag_503:\n        /* \"#utility.yul\":5853:5859   */\n      dup4\n        /* \"#utility.yul\":5836:6066   */\n    tag_505:\n        /* \"#utility.yul\":5870:5876   */\n      dup2\n        /* \"#utility.yul\":5865:5868   */\n      dup2\n        /* \"#utility.yul\":5862:5877   */\n      lt\n        /* \"#utility.yul\":5836:6066   */\n      iszero\n      tag_507\n      jumpi\n        /* \"#utility.yul\":5945:5948   */\n      dup1\n        /* \"#utility.yul\":5974:6021   */\n      tag_508\n        /* \"#utility.yul\":6017:6020   */\n      dup9\n        /* \"#utility.yul\":6005:6015   */\n      dup3\n        /* \"#utility.yul\":5974:6021   */\n      tag_378\n      jump\t// in\n    tag_508:\n        /* \"#utility.yul\":5969:5972   */\n      dup5\n        /* \"#utility.yul\":5962:6022   */\n      mstore\n        /* \"#utility.yul\":6051:6055   */\n      0x20\n        /* \"#utility.yul\":6046:6049   */\n      dup5\n        /* \"#utility.yul\":6042:6056   */\n      add\n        /* \"#utility.yul\":6035:6056   */\n      swap4\n      pop\n        /* \"#utility.yul\":5912:6066   */\n      pop\n        /* \"#utility.yul\":5896:5900   */\n      0x20\n        /* \"#utility.yul\":5891:5894   */\n      dup2\n        /* \"#utility.yul\":5887:5901   */\n      add\n        /* \"#utility.yul\":5880:5901   */\n      swap1\n      pop\n        /* \"#utility.yul\":5836:6066   */\n      jump(tag_505)\n    tag_507:\n        /* \"#utility.yul\":5840:5861   */\n      pop\n        /* \"#utility.yul\":5444:6072   */\n      pop\n      pop\n        /* \"#utility.yul\":5332:6072   */\n      swap4\n      swap3\n      pop\n      pop\n      pop\n      jump\t// out\n        /* \"#utility.yul\":6099:6489   */\n    tag_389:\n        /* \"#utility.yul\":6180:6185   */\n      0x00\n        /* \"#utility.yul\":6229:6232   */\n      dup3\n        /* \"#utility.yul\":6222:6226   */\n      0x1f\n        /* \"#utility.yul\":6214:6220   */\n      dup4\n        /* \"#utility.yul\":6210:6227   */\n      add\n        /* \"#utility.yul\":6206:6233   */\n      slt\n        /* \"#utility.yul\":6196:6318   */\n      tag_510\n      jumpi\n        /* \"#utility.yul\":6237:6316   */\n      tag_511\n      tag_382\n      jump\t// in\n    tag_511:\n        /* \"#utility.yul\":6196:6318   */\n    tag_510:\n        /* \"#utility.yul\":6354:6360   */\n      dup2\n        /* \"#utility.yul\":6341:6361   */\n      calldataload\n        /* \"#utility.yul\":6379:6483   */\n      tag_512\n        /* \"#utility.yul\":6479:6482   */\n      dup5\n        /* \"#utility.yul\":6471:6477   */\n      dup3\n        /* \"#utility.yul\":6464:6468   */\n      0x20\n        /* \"#utility.yul\":6456:6462   */\n      dup7\n        /* \"#utility.yul\":6452:6469   */\n      add\n        /* \"#utility.yul\":6379:6483   */\n      tag_388\n      jump\t// in\n    tag_512:\n        /* \"#utility.yul\":6370:6483   */\n      swap2\n      pop\n        /* \"#utility.yul\":6186:6489   */\n      pop\n        /* \"#utility.yul\":6099:6489   */\n      swap3\n      swap2\n      pop\n      pop\n      jump\t// out\n        /* \"#utility.yul\":6495:7243   */\n    tag_36:\n        /* \"#utility.yul\":6620:6626   */\n      0x00\n        /* \"#utility.yul\":6628:6634   */\n      dup1\n        /* \"#utility.yul\":6677:6679   */\n      0x40\n        /* \"#utility.yul\":6665:6674   */\n      dup4\n        /* \"#utility.yul\":6656:6663   */\n      dup6\n        /* \"#utility.yul\":6652:6675   */\n      sub\n        /* \"#utility.yul\":6648:6680   */\n      slt\n        /* \"#utility.yul\":6645:6764   */\n      iszero\n      tag_514\n      jumpi\n        /* \"#utility.yul\":6683:6762   */\n      tag_515\n      tag_365\n      jump\t// in\n    tag_515:\n        /* \"#utility.yul\":6645:6764   */\n    tag_514:\n        /* \"#utility.yul\":6803:6804   */\n      0x00\n        /* \"#utility.yul\":6828:6903   */\n      tag_516\n        /* \"#utility.yul\":6895:6902   */\n      dup6\n        /* \"#utility.yul\":6886:6892   */\n      dup3\n        /* \"#utility.yul\":6875:6884   */\n      dup7\n        /* \"#utility.yul\":6871:6893   */\n      add\n        /* \"#utility.yul\":6828:6903   */\n      tag_381\n      jump\t// in\n    tag_516:\n        /* \"#utility.yul\":6818:6903   */\n      swap3\n      pop\n        /* \"#utility.yul\":6774:6913   */\n      pop\n        /* \"#utility.yul\":6980:6982   */\n      0x20\n        /* \"#utility.yul\":6969:6978   */\n      dup4\n        /* \"#utility.yul\":6965:6983   */\n      add\n        /* \"#utility.yul\":6952:6984   */\n      calldataload\n        /* \"#utility.yul\":7011:7029   */\n      0xffffffffffffffff\n        /* \"#utility.yul\":7003:7009   */\n      dup2\n        /* \"#utility.yul\":7000:7030   */\n      gt\n        /* \"#utility.yul\":6997:7114   */\n      iszero\n      tag_517\n      jumpi\n        /* \"#utility.yul\":7033:7112   */\n      tag_518\n      tag_366\n      jump\t// in\n    tag_518:\n        /* \"#utility.yul\":6997:7114   */\n    tag_517:\n        /* \"#utility.yul\":7138:7226   */\n      tag_519\n        /* \"#utility.yul\":7218:7225   */\n      dup6\n        /* \"#utility.yul\":7209:7215   */\n      dup3\n        /* \"#utility.yul\":7198:7207   */\n      dup7\n        /* \"#utility.yul\":7194:7216   */\n      add\n        /* \"#utility.yul\":7138:7226   */\n      tag_389\n      jump\t// in\n    tag_519:\n        /* \"#utility.yul\":7128:7226   */\n      swap2\n      pop\n        /* \"#utility.yul\":6923:7236   */\n      pop\n        /* \"#utility.yul\":6495:7243   */\n      swap3\n      pop\n      swap3\n      swap1\n      pop\n      jump\t// out\n        /* \"#utility.yul\":7249:7371   */\n    tag_390:\n        /* \"#utility.yul\":7322:7346   */\n      tag_521\n        /* \"#utility.yul\":7340:7345   */\n      dup2\n        /* \"#utility.yul\":7322:7346   */\n      tag_371\n      jump\t// in\n    tag_521:\n        /* \"#utility.yul\":7315:7320   */\n      dup2\n        /* \"#utility.yul\":7312:7347   */\n      eq\n        /* \"#utility.yul\":7302:7365   */\n      tag_522\n      jumpi\n        /* \"#utility.yul\":7361:7362   */\n      0x00\n        /* \"#utility.yul\":7358:7359   */\n      dup1\n        /* \"#utility.yul\":7351:7363   */\n      revert\n        /* \"#utility.yul\":7302:7365   */\n    tag_522:\n        /* \"#utility.yul\":7249:7371   */\n      pop\n      jump\t// out\n        /* \"#utility.yul\":7377:7516   */\n    tag_391:\n        /* \"#utility.yul\":7423:7428   */\n      0x00\n        /* \"#utility.yul\":7461:7467   */\n      dup2\n        /* \"#utility.yul\":7448:7468   */\n      calldataload\n        /* \"#utility.yul\":7439:7468   */\n      swap1\n      pop\n        /* \"#utility.yul\":7477:7510   */\n      tag_524\n        /* \"#utility.yul\":7504:7509   */\n      dup2\n        /* \"#utility.yul\":7477:7510   */\n      tag_390\n      jump\t// in\n    tag_524:\n        /* \"#utility.yul\":7377:7516   */\n      swap3\n      swap2\n      pop\n      pop\n      jump\t// out\n        /* \"#utility.yul\":7522:7851   */\n    tag_41:\n        /* \"#utility.yul\":7581:7587   */\n      0x00\n        /* \"#utility.yul\":7630:7632   */\n      0x20\n        /* \"#utility.yul\":7618:7627   */\n      dup3\n        /* \"#utility.yul\":7609:7616   */\n      dup5\n        /* \"#utility.yul\":7605:7628   */\n      sub\n        /* \"#utility.yul\":7601:7633   */\n      slt\n        /* \"#utility.yul\":7598:7717   */\n      iszero\n      tag_526\n      jumpi\n        /* \"#utility.yul\":7636:7715   */\n      tag_527\n      tag_365\n      jump\t// in\n    tag_527:\n        /* \"#utility.yul\":7598:7717   */\n    tag_526:\n        /* \"#utility.yul\":7756:7757   */\n      0x00\n        /* \"#utility.yul\":7781:7834   */\n      tag_528\n        /* \"#utility.yul\":7826:7833   */\n      dup5\n        /* \"#utility.yul\":7817:7823   */\n      dup3\n        /* \"#utility.yul\":7806:7815   */\n      dup6\n        /* \"#utility.yul\":7802:7824   */\n      add\n        /* \"#utility.yul\":7781:7834   */\n      tag_391\n      jump\t// in\n    tag_528:\n        /* \"#utility.yul\":7771:7834   */\n      swap2\n      pop\n        /* \"#utility.yul\":7727:7844   */\n      pop\n        /* \"#utility.yul\":7522:7851   */\n      swap3\n      swap2\n      pop\n      pop\n      jump\t// out\n        /* \"#utility.yul\":7857:8206   */\n    tag_46:\n        /* \"#utility.yul\":7926:7932   */\n      0x00\n        /* \"#utility.yul\":7975:7977   */\n      0x20\n        /* \"#utility.yul\":7963:7972   */\n      dup3\n        /* \"#utility.yul\":7954:7961   */\n      dup5\n        /* \"#utility.yul\":7950:7973   */\n      sub\n        /* \"#utility.yul\":7946:7978   */\n      slt\n        /* \"#utility.yul\":7943:8062   */\n      iszero\n      tag_530\n      jumpi\n        /* \"#utility.yul\":7981:8060   */\n      tag_531\n      tag_365\n      jump\t// in\n    tag_531:\n        /* \"#utility.yul\":7943:8062   */\n    tag_530:\n        /* \"#utility.yul\":8101:8102   */\n      0x00\n        /* \"#utility.yul\":8126:8189   */\n      tag_532\n        /* \"#utility.yul\":8181:8188   */\n      dup5\n        /* \"#utility.yul\":8172:8178   */\n      dup3\n        /* \"#utility.yul\":8161:8170   */\n      dup6\n        /* \"#utility.yul\":8157:8179   */\n      add\n        /* \"#utility.yul\":8126:8189   */\n      tag_378\n      jump\t// in\n    tag_532:\n        /* \"#utility.yul\":8116:8189   */\n      swap2\n      pop\n        /* \"#utility.yul\":8072:8199   */\n      pop\n        /* \"#utility.yul\":7857:8206   */\n      swap3\n      swap2\n      pop\n      pop\n      jump\t// out\n        /* \"#utility.yul\":8212:8272   */\n    tag_392:\n        /* \"#utility.yul\":8240:8243   */\n      0x00\n        /* \"#utility.yul\":8261:8266   */\n      dup2\n        /* \"#utility.yul\":8254:8266   */\n      swap1\n      pop\n        /* \"#utility.yul\":8212:8272   */\n      swap2\n      swap1\n      pop\n      jump\t// out\n        /* \"#utility.yul\":8278:8420   */\n    tag_393:\n        /* \"#utility.yul\":8328:8337   */\n      0x00\n        /* \"#utility.yul\":8361:8414   */\n      tag_535\n        /* \"#utility.yul\":8379:8413   */\n      tag_536\n        /* \"#utility.yul\":8388:8412   */\n      tag_537\n        /* \"#utility.yul\":8406:8411   */\n      dup5\n        /* \"#utility.yul\":8388:8412   */\n      tag_370\n      jump\t// in\n    tag_537:\n        /* \"#utility.yul\":8379:8413   */\n      tag_392\n      jump\t// in\n    tag_536:\n        /* \"#utility.yul\":8361:8414   */\n      tag_370\n      jump\t// in\n    tag_535:\n        /* \"#utility.yul\":8348:8414   */\n      swap1\n      pop\n        /* \"#utility.yul\":8278:8420   */\n      swap2\n      swap1\n      pop\n      jump\t// out\n        /* \"#utility.yul\":8426:8552   */\n    tag_394:\n        /* \"#utility.yul\":8476:8485   */\n      0x00\n        /* \"#utility.yul\":8509:8546   */\n      tag_539\n        /* \"#utility.yul\":8540:8545   */\n      dup3\n        /* \"#utility.yul\":8509:8546   */\n      tag_393\n      jump\t// in\n    tag_539:\n        /* \"#utility.yul\":8496:8546   */\n      swap1\n      pop\n        /* \"#utility.yul\":8426:8552   */\n      swap2\n      swap1\n      pop\n      jump\t// out\n        /* \"#utility.yul\":8558:8698   */\n    tag_395:\n        /* \"#utility.yul\":8622:8631   */\n      0x00\n        /* \"#utility.yul\":8655:8692   */\n      tag_541\n        /* \"#utility.yul\":8686:8691   */\n      dup3\n        /* \"#utility.yul\":8655:8692   */\n      tag_394\n      jump\t// in\n    tag_541:\n        /* \"#utility.yul\":8642:8692   */\n      swap1\n      pop\n        /* \"#utility.yul\":8558:8698   */\n      swap2\n      swap1\n      pop\n      jump\t// out\n        /* \"#utility.yul\":8704:8863   */\n    tag_396:\n        /* \"#utility.yul\":8805:8856   */\n      tag_543\n        /* \"#utility.yul\":8850:8855   */\n      dup2\n        /* \"#utility.yul\":8805:8856   */\n      tag_395\n      jump\t// in\n    tag_543:\n        /* \"#utility.yul\":8800:8803   */\n      dup3\n        /* \"#utility.yul\":8793:8857   */\n      mstore\n        /* \"#utility.yul\":8704:8863   */\n      pop\n      pop\n      jump\t// out\n        /* \"#utility.yul\":8869:9119   */\n    tag_56:\n        /* \"#utility.yul\":8976:8980   */\n      0x00\n        /* \"#utility.yul\":9014:9016   */\n      0x20\n        /* \"#utility.yul\":9003:9012   */\n      dup3\n        /* \"#utility.yul\":8999:9017   */\n      add\n        /* \"#utility.yul\":8991:9017   */\n      swap1\n      pop\n        /* \"#utility.yul\":9027:9112   */\n      tag_545\n        /* \"#utility.yul\":9109:9110   */\n      0x00\n        /* \"#utility.yul\":9098:9107   */\n      dup4\n        /* \"#utility.yul\":9094:9111   */\n      add\n        /* \"#utility.yul\":9085:9091   */\n      dup5\n        /* \"#utility.yul\":9027:9112   */\n      tag_396\n      jump\t// in\n    tag_545:\n        /* \"#utility.yul\":8869:9119   */\n      swap3\n      swap2\n      pop\n      pop\n      jump\t// out\n        /* \"#utility.yul\":9125:9243   */\n    tag_397:\n        /* \"#utility.yul\":9212:9236   */\n      tag_547\n        /* \"#utility.yul\":9230:9235   */\n      dup2\n        /* \"#utility.yul\":9212:9236   */\n      tag_371\n      jump\t// in\n    tag_547:\n        /* \"#utility.yul\":9207:9210   */\n      dup3\n        /* \"#utility.yul\":9200:9237   */\n      mstore\n        /* \"#utility.yul\":9125:9243   */\n      pop\n      pop\n      jump\t// out\n        /* \"#utility.yul\":9249:9471   */\n    tag_64:\n        /* \"#utility.yul\":9342:9346   */\n      0x00\n        /* \"#utility.yul\":9380:9382   */\n      0x20\n        /* \"#utility.yul\":9369:9378   */\n      dup3\n        /* \"#utility.yul\":9365:9383   */\n      add\n        /* \"#utility.yul\":9357:9383   */\n      swap1\n      pop\n        /* \"#utility.yul\":9393:9464   */\n      tag_549\n        /* \"#utility.yul\":9461:9462   */\n      0x00\n        /* \"#utility.yul\":9450:9459   */\n      dup4\n        /* \"#utility.yul\":9446:9463   */\n      add\n        /* \"#utility.yul\":9437:9443   */\n      dup5\n        /* \"#utility.yul\":9393:9464   */\n      tag_397\n      jump\t// in\n    tag_549:\n        /* \"#utility.yul\":9249:9471   */\n      swap3\n      swap2\n      pop\n      pop\n      jump\t// out\n        /* \"#utility.yul\":9477:9587   */\n    tag_398:\n        /* \"#utility.yul\":9528:9535   */\n      0x00\n        /* \"#utility.yul\":9557:9581   */\n      tag_551\n        /* \"#utility.yul\":9575:9580   */\n      dup3\n        /* \"#utility.yul\":9557:9581   */\n      tag_371\n      jump\t// in\n    tag_551:\n        /* \"#utility.yul\":9546:9581   */\n      swap1\n      pop\n        /* \"#utility.yul\":9477:9587   */\n      swap2\n      swap1\n      pop\n      jump\t// out\n        /* \"#utility.yul\":9593:9743   */\n    tag_399:\n        /* \"#utility.yul\":9680:9718   */\n      tag_553\n        /* \"#utility.yul\":9712:9717   */\n      dup2\n        /* \"#utility.yul\":9680:9718   */\n      tag_398\n      jump\t// in\n    tag_553:\n        /* \"#utility.yul\":9673:9678   */\n      dup2\n        /* \"#utility.yul\":9670:9719   */\n      eq\n        /* \"#utility.yul\":9660:9737   */\n      tag_554\n      jumpi\n        /* \"#utility.yul\":9733:9734   */\n      0x00\n        /* \"#utility.yul\":9730:9731   */\n      dup1\n        /* \"#utility.yul\":9723:9735   */\n      revert\n        /* \"#utility.yul\":9660:9737   */\n    tag_554:\n        /* \"#utility.yul\":9593:9743   */\n      pop\n      jump\t// out\n        /* \"#utility.yul\":9749:9916   */\n    tag_400:\n        /* \"#utility.yul\":9809:9814   */\n      0x00\n        /* \"#utility.yul\":9847:9853   */\n      dup2\n        /* \"#utility.yul\":9834:9854   */\n      calldataload\n        /* \"#utility.yul\":9825:9854   */\n      swap1\n      pop\n        /* \"#utility.yul\":9863:9910   */\n      tag_556\n        /* \"#utility.yul\":9904:9909   */\n      dup2\n        /* \"#utility.yul\":9863:9910   */\n      tag_399\n      jump\t// in\n    tag_556:\n        /* \"#utility.yul\":9749:9916   */\n      swap3\n      swap2\n      pop\n      pop\n      jump\t// out\n        /* \"#utility.yul\":9922:10279   */\n    tag_79:\n        /* \"#utility.yul\":9995:10001   */\n      0x00\n        /* \"#utility.yul\":10044:10046   */\n      0x20\n        /* \"#utility.yul\":10032:10041   */\n      dup3\n        /* \"#utility.yul\":10023:10030   */\n      dup5\n        /* \"#utility.yul\":10019:10042   */\n      sub\n        /* \"#utility.yul\":10015:10047   */\n      slt\n        /* \"#utility.yul\":10012:10131   */\n      iszero\n      tag_558\n      jumpi\n        /* \"#utility.yul\":10050:10129   */\n      tag_559\n      tag_365\n      jump\t// in\n    tag_559:\n        /* \"#utility.yul\":10012:10131   */\n    tag_558:\n        /* \"#utility.yul\":10170:10171   */\n      0x00\n        /* \"#utility.yul\":10195:10262   */\n      tag_560\n        /* \"#utility.yul\":10254:10261   */\n      dup5\n        /* \"#utility.yul\":10245:10251   */\n      dup3\n        /* \"#utility.yul\":10234:10243   */\n      dup6\n        /* \"#utility.yul\":10230:10252   */\n      add\n        /* \"#utility.yul\":10195:10262   */\n      tag_400\n      jump\t// in\n    tag_560:\n        /* \"#utility.yul\":10185:10262   */\n      swap2\n      pop\n        /* \"#utility.yul\":10141:10272   */\n      pop\n        /* \"#utility.yul\":9922:10279   */\n      swap3\n      swap2\n      pop\n      pop\n      jump\t// out\n        /* \"#utility.yul\":10285:11114   */\n    tag_83:\n        /* \"#utility.yul\":10403:10409   */\n      0x00\n        /* \"#utility.yul\":10411:10417   */\n      dup1\n        /* \"#utility.yul\":10419:10425   */\n      0x00\n        /* \"#utility.yul\":10427:10433   */\n      dup1\n        /* \"#utility.yul\":10476:10479   */\n      0x80\n        /* \"#utility.yul\":10464:10473   */\n      dup6\n        /* \"#utility.yul\":10455:10462   */\n      dup8\n        /* \"#utility.yul\":10451:10474   */\n      sub\n        /* \"#utility.yul\":10447:10480   */\n      slt\n        /* \"#utility.yul\":10444:10564   */\n      iszero\n      tag_562\n      jumpi\n        /* \"#utility.yul\":10483:10562   */\n      tag_563\n      tag_365\n      jump\t// in\n    tag_563:\n        /* \"#utility.yul\":10444:10564   */\n    tag_562:\n        /* \"#utility.yul\":10603:10604   */\n      0x00\n        /* \"#utility.yul\":10628:10681   */\n      tag_564\n        /* \"#utility.yul\":10673:10680   */\n      dup8\n        /* \"#utility.yul\":10664:10670   */\n      dup3\n        /* \"#utility.yul\":10653:10662   */\n      dup9\n        /* \"#utility.yul\":10649:10671   */\n      add\n        /* \"#utility.yul\":10628:10681   */\n      tag_369\n      jump\t// in\n    tag_564:\n        /* \"#utility.yul\":10618:10681   */\n      swap5\n      pop\n        /* \"#utility.yul\":10574:10691   */\n      pop\n        /* \"#utility.yul\":10730:10732   */\n      0x20\n        /* \"#utility.yul\":10756:10819   */\n      tag_565\n        /* \"#utility.yul\":10811:10818   */\n      dup8\n        /* \"#utility.yul\":10802:10808   */\n      dup3\n        /* \"#utility.yul\":10791:10800   */\n      dup9\n        /* \"#utility.yul\":10787:10809   */\n      add\n        /* \"#utility.yul\":10756:10819   */\n      tag_378\n      jump\t// in\n    tag_565:\n        /* \"#utility.yul\":10746:10819   */\n      swap4\n      pop\n        /* \"#utility.yul\":10701:10829   */\n      pop\n        /* \"#utility.yul\":10868:10870   */\n      0x40\n        /* \"#utility.yul\":10894:10947   */\n      tag_566\n        /* \"#utility.yul\":10939:10946   */\n      dup8\n        /* \"#utility.yul\":10930:10936   */\n      dup3\n        /* \"#utility.yul\":10919:10928   */\n      dup9\n        /* \"#utility.yul\":10915:10937   */\n      add\n        /* \"#utility.yul\":10894:10947   */\n      tag_369\n      jump\t// in\n    tag_566:\n        /* \"#utility.yul\":10884:10947   */\n      swap3\n      pop\n        /* \"#utility.yul\":10839:10957   */\n      pop\n        /* \"#utility.yul\":10996:10998   */\n      0x60\n        /* \"#utility.yul\":11022:11097   */\n      tag_567\n        /* \"#utility.yul\":11089:11096   */\n      dup8\n        /* \"#utility.yul\":11080:11086   */\n      dup3\n        /* \"#utility.yul\":11069:11078   */\n      dup9\n        /* \"#utility.yul\":11065:11087   */\n      add\n        /* \"#utility.yul\":11022:11097   */\n      tag_381\n      jump\t// in\n    tag_567:\n        /* \"#utility.yul\":11012:11097   */\n      swap2\n      pop\n        /* \"#utility.yul\":10967:11107   */\n      pop\n        /* \"#utility.yul\":10285:11114   */\n      swap3\n      swap6\n      swap2\n      swap5\n      pop\n      swap3\n      pop\n      jump\t// out\n        /* \"#utility.yul\":11120:11237   */\n    tag_401:\n        /* \"#utility.yul\":11229:11230   */\n      0x00\n        /* \"#utility.yul\":11226:11227   */\n      dup1\n        /* \"#utility.yul\":11219:11231   */\n      revert\n        /* \"#utility.yul\":11366:11476   */\n    tag_403:\n        /* \"#utility.yul\":11417:11424   */\n      0x00\n        /* \"#utility.yul\":11446:11470   */\n      tag_571\n        /* \"#utility.yul\":11464:11469   */\n      dup3\n        /* \"#utility.yul\":11446:11470   */\n      tag_371\n      jump\t// in\n    tag_571:\n        /* \"#utility.yul\":11435:11470   */\n      swap1\n      pop\n        /* \"#utility.yul\":11366:11476   */\n      swap2\n      swap1\n      pop\n      jump\t// out\n        /* \"#utility.yul\":11482:11632   */\n    tag_404:\n        /* \"#utility.yul\":11569:11607   */\n      tag_573\n        /* \"#utility.yul\":11601:11606   */\n      dup2\n        /* \"#utility.yul\":11569:11607   */\n      tag_403\n      jump\t// in\n    tag_573:\n        /* \"#utility.yul\":11562:11567   */\n      dup2\n        /* \"#utility.yul\":11559:11608   */\n      eq\n        /* \"#utility.yul\":11549:11626   */\n      tag_574\n      jumpi\n        /* \"#utility.yul\":11622:11623   */\n      0x00\n        /* \"#utility.yul\":11619:11620   */\n      dup1\n        /* \"#utility.yul\":11612:11624   */\n      revert\n        /* \"#utility.yul\":11549:11626   */\n    tag_574:\n        /* \"#utility.yul\":11482:11632   */\n      pop\n      jump\t// out\n        /* \"#utility.yul\":11638:11809   */\n    tag_405:\n        /* \"#utility.yul\":11709:11714   */\n      0x00\n        /* \"#utility.yul\":11740:11746   */\n      dup2\n        /* \"#utility.yul\":11734:11747   */\n      mload\n        /* \"#utility.yul\":11725:11747   */\n      swap1\n      pop\n        /* \"#utility.yul\":11756:11803   */\n      tag_576\n        /* \"#utility.yul\":11797:11802   */\n      dup2\n        /* \"#utility.yul\":11756:11803   */\n      tag_404\n      jump\t// in\n    tag_576:\n        /* \"#utility.yul\":11638:11809   */\n      swap3\n      swap2\n      pop\n      pop\n      jump\t// out\n        /* \"#utility.yul\":11815:11958   */\n    tag_406:\n        /* \"#utility.yul\":11872:11877   */\n      0x00\n        /* \"#utility.yul\":11903:11909   */\n      dup2\n        /* \"#utility.yul\":11897:11910   */\n      mload\n        /* \"#utility.yul\":11888:11910   */\n      swap1\n      pop\n        /* \"#utility.yul\":11919:11952   */\n      tag_578\n        /* \"#utility.yul\":11946:11951   */\n      dup2\n        /* \"#utility.yul\":11919:11952   */\n      tag_368\n      jump\t// in\n    tag_578:\n        /* \"#utility.yul\":11815:11958   */\n      swap3\n      swap2\n      pop\n      pop\n      jump\t// out\n        /* \"#utility.yul\":11964:12079   */\n    tag_407:\n        /* \"#utility.yul\":12020:12027   */\n      0x00\n        /* \"#utility.yul\":12049:12073   */\n      tag_580\n        /* \"#utility.yul\":12067:12072   */\n      dup3\n        /* \"#utility.yul\":12049:12073   */\n      tag_371\n      jump\t// in\n    tag_580:\n        /* \"#utility.yul\":12038:12073   */\n      swap1\n      pop\n        /* \"#utility.yul\":11964:12079   */\n      swap2\n      swap1\n      pop\n      jump\t// out\n        /* \"#utility.yul\":12085:12245   */\n    tag_408:\n        /* \"#utility.yul\":12177:12220   */\n      tag_582\n        /* \"#utility.yul\":12214:12219   */\n      dup2\n        /* \"#utility.yul\":12177:12220   */\n      tag_407\n      jump\t// in\n    tag_582:\n        /* \"#utility.yul\":12170:12175   */\n      dup2\n        /* \"#utility.yul\":12167:12221   */\n      eq\n        /* \"#utility.yul\":12157:12239   */\n      tag_583\n      jumpi\n        /* \"#utility.yul\":12235:12236   */\n      0x00\n        /* \"#utility.yul\":12232:12233   */\n      dup1\n        /* \"#utility.yul\":12225:12237   */\n      revert\n        /* \"#utility.yul\":12157:12239   */\n    tag_583:\n        /* \"#utility.yul\":12085:12245   */\n      pop\n      jump\t// out\n        /* \"#utility.yul\":12251:12432   */\n    tag_409:\n        /* \"#utility.yul\":12327:12332   */\n      0x00\n        /* \"#utility.yul\":12358:12364   */\n      dup2\n        /* \"#utility.yul\":12352:12365   */\n      mload\n        /* \"#utility.yul\":12343:12365   */\n      swap1\n      pop\n        /* \"#utility.yul\":12374:12426   */\n      tag_585\n        /* \"#utility.yul\":12420:12425   */\n      dup2\n        /* \"#utility.yul\":12374:12426   */\n      tag_408\n      jump\t// in\n    tag_585:\n        /* \"#utility.yul\":12251:12432   */\n      swap3\n      swap2\n      pop\n      pop\n      jump\t// out\n        /* \"#utility.yul\":12461:13852   */\n    tag_410:\n        /* \"#utility.yul\":12546:12551   */\n      0x00\n        /* \"#utility.yul\":12590:12594   */\n      0xc0\n        /* \"#utility.yul\":12578:12587   */\n      dup3\n        /* \"#utility.yul\":12573:12576   */\n      dup5\n        /* \"#utility.yul\":12569:12588   */\n      sub\n        /* \"#utility.yul\":12565:12595   */\n      slt\n        /* \"#utility.yul\":12562:12679   */\n      iszero\n      tag_587\n      jumpi\n        /* \"#utility.yul\":12598:12677   */\n      tag_588\n      tag_401\n      jump\t// in\n    tag_588:\n        /* \"#utility.yul\":12562:12679   */\n    tag_587:\n        /* \"#utility.yul\":12697:12718   */\n      tag_589\n        /* \"#utility.yul\":12713:12717   */\n      0xc0\n        /* \"#utility.yul\":12697:12718   */\n      tag_385\n      jump\t// in\n    tag_589:\n        /* \"#utility.yul\":12688:12718   */\n      swap1\n      pop\n        /* \"#utility.yul\":12780:12781   */\n      0x00\n        /* \"#utility.yul\":12820:12894   */\n      tag_590\n        /* \"#utility.yul\":12890:12893   */\n      dup5\n        /* \"#utility.yul\":12881:12887   */\n      dup3\n        /* \"#utility.yul\":12870:12879   */\n      dup6\n        /* \"#utility.yul\":12866:12888   */\n      add\n        /* \"#utility.yul\":12820:12894   */\n      tag_405\n      jump\t// in\n    tag_590:\n        /* \"#utility.yul\":12813:12817   */\n      0x00\n        /* \"#utility.yul\":12806:12811   */\n      dup4\n        /* \"#utility.yul\":12802:12818   */\n      add\n        /* \"#utility.yul\":12795:12895   */\n      mstore\n        /* \"#utility.yul\":12728:12906   */\n      pop\n        /* \"#utility.yul\":12971:12973   */\n      0x20\n        /* \"#utility.yul\":13012:13072   */\n      tag_591\n        /* \"#utility.yul\":13068:13071   */\n      dup5\n        /* \"#utility.yul\":13059:13065   */\n      dup3\n        /* \"#utility.yul\":13048:13057   */\n      dup6\n        /* \"#utility.yul\":13044:13066   */\n      add\n        /* \"#utility.yul\":13012:13072   */\n      tag_406\n      jump\t// in\n    tag_591:\n        /* \"#utility.yul\":13005:13009   */\n      0x20\n        /* \"#utility.yul\":12998:13003   */\n      dup4\n        /* \"#utility.yul\":12994:13010   */\n      add\n        /* \"#utility.yul\":12987:13073   */\n      mstore\n        /* \"#utility.yul\":12916:13084   */\n      pop\n        /* \"#utility.yul\":13154:13156   */\n      0x40\n        /* \"#utility.yul\":13195:13255   */\n      tag_592\n        /* \"#utility.yul\":13251:13254   */\n      dup5\n        /* \"#utility.yul\":13242:13248   */\n      dup3\n        /* \"#utility.yul\":13231:13240   */\n      dup6\n        /* \"#utility.yul\":13227:13249   */\n      add\n        /* \"#utility.yul\":13195:13255   */\n      tag_406\n      jump\t// in\n    tag_592:\n        /* \"#utility.yul\":13188:13192   */\n      0x40\n        /* \"#utility.yul\":13181:13186   */\n      dup4\n        /* \"#utility.yul\":13177:13193   */\n      add\n        /* \"#utility.yul\":13170:13256   */\n      mstore\n        /* \"#utility.yul\":13094:13267   */\n      pop\n        /* \"#utility.yul\":13336:13338   */\n      0x60\n        /* \"#utility.yul\":13377:13437   */\n      tag_593\n        /* \"#utility.yul\":13433:13436   */\n      dup5\n        /* \"#utility.yul\":13424:13430   */\n      dup3\n        /* \"#utility.yul\":13413:13422   */\n      dup6\n        /* \"#utility.yul\":13409:13431   */\n      add\n        /* \"#utility.yul\":13377:13437   */\n      tag_406\n      jump\t// in\n    tag_593:\n        /* \"#utility.yul\":13370:13374   */\n      0x60\n        /* \"#utility.yul\":13363:13368   */\n      dup4\n        /* \"#utility.yul\":13359:13375   */\n      add\n        /* \"#utility.yul\":13352:13438   */\n      mstore\n        /* \"#utility.yul\":13277:13449   */\n      pop\n        /* \"#utility.yul\":13518:13521   */\n      0x80\n        /* \"#utility.yul\":13560:13639   */\n      tag_594\n        /* \"#utility.yul\":13635:13638   */\n      dup5\n        /* \"#utility.yul\":13626:13632   */\n      dup3\n        /* \"#utility.yul\":13615:13624   */\n      dup6\n        /* \"#utility.yul\":13611:13633   */\n      add\n        /* \"#utility.yul\":13560:13639   */\n      tag_409\n      jump\t// in\n    tag_594:\n        /* \"#utility.yul\":13553:13557   */\n      0x80\n        /* \"#utility.yul\":13546:13551   */\n      dup4\n        /* \"#utility.yul\":13542:13558   */\n      add\n        /* \"#utility.yul\":13535:13640   */\n      mstore\n        /* \"#utility.yul\":13459:13651   */\n      pop\n        /* \"#utility.yul\":13717:13720   */\n      0xa0\n        /* \"#utility.yul\":13759:13833   */\n      tag_595\n        /* \"#utility.yul\":13829:13832   */\n      dup5\n        /* \"#utility.yul\":13820:13826   */\n      dup3\n        /* \"#utility.yul\":13809:13818   */\n      dup6\n        /* \"#utility.yul\":13805:13827   */\n      add\n        /* \"#utility.yul\":13759:13833   */\n      tag_405\n      jump\t// in\n    tag_595:\n        /* \"#utility.yul\":13752:13756   */\n      0xa0\n        /* \"#utility.yul\":13745:13750   */\n      dup4\n        /* \"#utility.yul\":13741:13757   */\n      add\n        /* \"#utility.yul\":13734:13834   */\n      mstore\n        /* \"#utility.yul\":13661:13845   */\n      pop\n        /* \"#utility.yul\":12461:13852   */\n      swap3\n      swap2\n      pop\n      pop\n      jump\t// out\n        /* \"#utility.yul\":13858:14260   */\n    tag_98:\n        /* \"#utility.yul\":13953:13959   */\n      0x00\n        /* \"#utility.yul\":14002:14005   */\n      0xc0\n        /* \"#utility.yul\":13990:13999   */\n      dup3\n        /* \"#utility.yul\":13981:13988   */\n      dup5\n        /* \"#utility.yul\":13977:14000   */\n      sub\n        /* \"#utility.yul\":13973:14006   */\n      slt\n        /* \"#utility.yul\":13970:14090   */\n      iszero\n      tag_597\n      jumpi\n        /* \"#utility.yul\":14009:14088   */\n      tag_598\n      tag_365\n      jump\t// in\n    tag_598:\n        /* \"#utility.yul\":13970:14090   */\n    tag_597:\n        /* \"#utility.yul\":14129:14130   */\n      0x00\n        /* \"#utility.yul\":14154:14243   */\n      tag_599\n        /* \"#utility.yul\":14235:14242   */\n      dup5\n        /* \"#utility.yul\":14226:14232   */\n      dup3\n        /* \"#utility.yul\":14215:14224   */\n      dup6\n        /* \"#utility.yul\":14211:14233   */\n      add\n        /* \"#utility.yul\":14154:14243   */\n      tag_410\n      jump\t// in\n    tag_599:\n        /* \"#utility.yul\":14144:14243   */\n      swap2\n      pop\n        /* \"#utility.yul\":14100:14253   */\n      pop\n        /* \"#utility.yul\":13858:14260   */\n      swap3\n      swap2\n      pop\n      pop\n      jump\t// out\n        /* \"#utility.yul\":14266:14617   */\n    tag_102:\n        /* \"#utility.yul\":14336:14342   */\n      0x00\n        /* \"#utility.yul\":14385:14387   */\n      0x20\n        /* \"#utility.yul\":14373:14382   */\n      dup3\n        /* \"#utility.yul\":14364:14371   */\n      dup5\n        /* \"#utility.yul\":14360:14383   */\n      sub\n        /* \"#utility.yul\":14356:14388   */\n      slt\n        /* \"#utility.yul\":14353:14472   */\n      iszero\n      tag_601\n      jumpi\n        /* \"#utility.yul\":14391:14470   */\n      tag_602\n      tag_365\n      jump\t// in\n    tag_602:\n        /* \"#utility.yul\":14353:14472   */\n    tag_601:\n        /* \"#utility.yul\":14511:14512   */\n      0x00\n        /* \"#utility.yul\":14536:14600   */\n      tag_603\n        /* \"#utility.yul\":14592:14599   */\n      dup5\n        /* \"#utility.yul\":14583:14589   */\n      dup3\n        /* \"#utility.yul\":14572:14581   */\n      dup6\n        /* \"#utility.yul\":14568:14590   */\n      add\n        /* \"#utility.yul\":14536:14600   */\n      tag_406\n      jump\t// in\n    tag_603:\n        /* \"#utility.yul\":14526:14600   */\n      swap2\n      pop\n        /* \"#utility.yul\":14482:14610   */\n      pop\n        /* \"#utility.yul\":14266:14617   */\n      swap3\n      swap2\n      pop\n      pop\n      jump\t// out\n        /* \"#utility.yul\":14623:14803   */\n    tag_411:\n        /* \"#utility.yul\":14671:14748   */\n      0x4e487b7100000000000000000000000000000000000000000000000000000000\n        /* \"#utility.yul\":14668:14669   */\n      0x00\n        /* \"#utility.yul\":14661:14749   */\n      mstore\n        /* \"#utility.yul\":14768:14772   */\n      0x11\n        /* \"#utility.yul\":14765:14766   */\n      0x04\n        /* \"#utility.yul\":14758:14773   */\n      mstore\n        /* \"#utility.yul\":14792:14796   */\n      0x24\n        /* \"#utility.yul\":14789:14790   */\n      0x00\n        /* \"#utility.yul\":14782:14797   */\n      revert\n        /* \"#utility.yul\":14809:15157   */\n    tag_107:\n        /* \"#utility.yul\":14849:14856   */\n      0x00\n        /* \"#utility.yul\":14872:14892   */\n      tag_606\n        /* \"#utility.yul\":14890:14891   */\n      dup3\n        /* \"#utility.yul\":14872:14892   */\n      tag_367\n      jump\t// in\n    tag_606:\n        /* \"#utility.yul\":14867:14892   */\n      swap2\n      pop\n        /* \"#utility.yul\":14906:14926   */\n      tag_607\n        /* \"#utility.yul\":14924:14925   */\n      dup4\n        /* \"#utility.yul\":14906:14926   */\n      tag_367\n      jump\t// in\n    tag_607:\n        /* \"#utility.yul\":14901:14926   */\n      swap3\n      pop\n        /* \"#utility.yul\":15094:15095   */\n      dup2\n        /* \"#utility.yul\":15026:15092   */\n      0xffffffffffffffffffffffffffffffffffffffffffffffffffffffffffffffff\n        /* \"#utility.yul\":15022:15096   */\n      div\n        /* \"#utility.yul\":15019:15020   */\n      dup4\n        /* \"#utility.yul\":15016:15097   */\n      gt\n        /* \"#utility.yul\":15011:15012   */\n      dup3\n        /* \"#utility.yul\":15004:15013   */\n      iszero\n        /* \"#utility.yul\":14997:15014   */\n      iszero\n        /* \"#utility.yul\":14993:15098   */\n      and\n        /* \"#utility.yul\":14990:15121   */\n      iszero\n      tag_608\n      jumpi\n        /* \"#utility.yul\":15101:15119   */\n      tag_609\n      tag_411\n      jump\t// in\n    tag_609:\n        /* \"#utility.yul\":14990:15121   */\n    tag_608:\n        /* \"#utility.yul\":15149:15150   */\n      dup3\n        /* \"#utility.yul\":15146:15147   */\n      dup3\n        /* \"#utility.yul\":15142:15151   */\n      mul\n        /* \"#utility.yul\":15131:15151   */\n      swap1\n      pop\n        /* \"#utility.yul\":14809:15157   */\n      swap3\n      swap2\n      pop\n      pop\n      jump\t// out\n        /* \"#utility.yul\":15163:15343   */\n    tag_412:\n        /* \"#utility.yul\":15211:15288   */\n      0x4e487b7100000000000000000000000000000000000000000000000000000000\n        /* \"#utility.yul\":15208:15209   */\n      0x00\n        /* \"#utility.yul\":15201:15289   */\n      mstore\n        /* \"#utility.yul\":15308:15312   */\n      0x12\n        /* \"#utility.yul\":15305:15306   */\n      0x04\n        /* \"#utility.yul\":15298:15313   */\n      mstore\n        /* \"#utility.yul\":15332:15336   */\n      0x24\n        /* \"#utility.yul\":15329:15330   */\n      0x00\n        /* \"#utility.yul\":15322:15337   */\n      revert\n        /* \"#utility.yul\":15349:15534   */\n    tag_109:\n        /* \"#utility.yul\":15389:15390   */\n      0x00\n        /* \"#utility.yul\":15406:15426   */\n      tag_612\n        /* \"#utility.yul\":15424:15425   */\n      dup3\n        /* \"#utility.yul\":15406:15426   */\n      tag_367\n      jump\t// in\n    tag_612:\n        /* \"#utility.yul\":15401:15426   */\n      swap2\n      pop\n        /* \"#utility.yul\":15440:15460   */\n      tag_613\n        /* \"#utility.yul\":15458:15459   */\n      dup4\n        /* \"#utility.yul\":15440:15460   */\n      tag_367\n      jump\t// in\n    tag_613:\n        /* \"#utility.yul\":15435:15460   */\n      swap3\n      pop\n        /* \"#utility.yul\":15479:15480   */\n      dup3\n        /* \"#utility.yul\":15469:15504   */\n      tag_614\n      jumpi\n        /* \"#utility.yul\":15484:15502   */\n      tag_615\n      tag_412\n      jump\t// in\n    tag_615:\n        /* \"#utility.yul\":15469:15504   */\n    tag_614:\n        /* \"#utility.yul\":15526:15527   */\n      dup3\n        /* \"#utility.yul\":15523:15524   */\n      dup3\n        /* \"#utility.yul\":15519:15528   */\n      div\n        /* \"#utility.yul\":15514:15528   */\n      swap1\n      pop\n        /* \"#utility.yul\":15349:15534   */\n      swap3\n      swap2\n      pop\n      pop\n      jump\t// out\n        /* \"#utility.yul\":15540:15720   */\n    tag_135:\n        /* \"#utility.yul\":15588:15665   */\n      0x4e487b7100000000000000000000000000000000000000000000000000000000\n        /* \"#utility.yul\":15585:15586   */\n      0x00\n        /* \"#utility.yul\":15578:15666   */\n      mstore\n        /* \"#utility.yul\":15685:15689   */\n      0x32\n        /* \"#utility.yul\":15682:15683   */\n      0x04\n        /* \"#utility.yul\":15675:15690   */\n      mstore\n        /* \"#utility.yul\":15709:15713   */\n      0x24\n        /* \"#utility.yul\":15706:15707   */\n      0x00\n        /* \"#utility.yul\":15699:15714   */\n      revert\n        /* \"#utility.yul\":15726:16031   */\n    tag_141:\n        /* \"#utility.yul\":15766:15769   */\n      0x00\n        /* \"#utility.yul\":15785:15805   */\n      tag_618\n        /* \"#utility.yul\":15803:15804   */\n      dup3\n        /* \"#utility.yul\":15785:15805   */\n      tag_367\n      jump\t// in\n    tag_618:\n        /* \"#utility.yul\":15780:15805   */\n      swap2\n      pop\n        /* \"#utility.yul\":15819:15839   */\n      tag_619\n        /* \"#utility.yul\":15837:15838   */\n      dup4\n        /* \"#utility.yul\":15819:15839   */\n      tag_367\n      jump\t// in\n    tag_619:\n        /* \"#utility.yul\":15814:15839   */\n      swap3\n      pop\n        /* \"#utility.yul\":15973:15974   */\n      dup3\n        /* \"#utility.yul\":15905:15971   */\n      0xffffffffffffffffffffffffffffffffffffffffffffffffffffffffffffffff\n        /* \"#utility.yul\":15901:15975   */\n      sub\n        /* \"#utility.yul\":15898:15899   */\n      dup3\n        /* \"#utility.yul\":15895:15976   */\n      gt\n        /* \"#utility.yul\":15892:15999   */\n      iszero\n      tag_620\n      jumpi\n        /* \"#utility.yul\":15979:15997   */\n      tag_621\n      tag_411\n      jump\t// in\n    tag_621:\n        /* \"#utility.yul\":15892:15999   */\n    tag_620:\n        /* \"#utility.yul\":16023:16024   */\n      dup3\n        /* \"#utility.yul\":16020:16021   */\n      dup3\n        /* \"#utility.yul\":16016:16025   */\n      add\n        /* \"#utility.yul\":16009:16025   */\n      swap1\n      pop\n        /* \"#utility.yul\":15726:16031   */\n      swap3\n      swap2\n      pop\n      pop\n      jump\t// out\n        /* \"#utility.yul\":16037:16270   */\n    tag_148:\n        /* \"#utility.yul\":16076:16079   */\n      0x00\n        /* \"#utility.yul\":16099:16123   */\n      tag_623\n        /* \"#utility.yul\":16117:16122   */\n      dup3\n        /* \"#utility.yul\":16099:16123   */\n      tag_367\n      jump\t// in\n    tag_623:\n        /* \"#utility.yul\":16090:16123   */\n      swap2\n      pop\n        /* \"#utility.yul\":16145:16211   */\n      0xffffffffffffffffffffffffffffffffffffffffffffffffffffffffffffffff\n        /* \"#utility.yul\":16138:16143   */\n      dup3\n        /* \"#utility.yul\":16135:16212   */\n      sub\n        /* \"#utility.yul\":16132:16235   */\n      tag_624\n      jumpi\n        /* \"#utility.yul\":16215:16233   */\n      tag_625\n      tag_411\n      jump\t// in\n    tag_625:\n        /* \"#utility.yul\":16132:16235   */\n    tag_624:\n        /* \"#utility.yul\":16262:16263   */\n      0x01\n        /* \"#utility.yul\":16255:16260   */\n      dup3\n        /* \"#utility.yul\":16251:16264   */\n      add\n        /* \"#utility.yul\":16244:16264   */\n      swap1\n      pop\n        /* \"#utility.yul\":16037:16270   */\n      swap2\n      swap1\n      pop\n      jump\t// out\n        /* \"#utility.yul\":16276:16390   */\n    tag_413:\n        /* \"#utility.yul\":16343:16349   */\n      0x00\n        /* \"#utility.yul\":16377:16382   */\n      dup2\n        /* \"#utility.yul\":16371:16383   */\n      mload\n        /* \"#utility.yul\":16361:16383   */\n      swap1\n      pop\n        /* \"#utility.yul\":16276:16390   */\n      swap2\n      swap1\n      pop\n      jump\t// out\n        /* \"#utility.yul\":16396:16580   */\n    tag_414:\n        /* \"#utility.yul\":16495:16506   */\n      0x00\n        /* \"#utility.yul\":16529:16535   */\n      dup3\n        /* \"#utility.yul\":16524:16527   */\n      dup3\n        /* \"#utility.yul\":16517:16536   */\n      mstore\n        /* \"#utility.yul\":16569:16573   */\n      0x20\n        /* \"#utility.yul\":16564:16567   */\n      dup3\n        /* \"#utility.yul\":16560:16574   */\n      add\n        /* \"#utility.yul\":16545:16574   */\n      swap1\n      pop\n        /* \"#utility.yul\":16396:16580   */\n      swap3\n      swap2\n      pop\n      pop\n      jump\t// out\n        /* \"#utility.yul\":16586:16718   */\n    tag_415:\n        /* \"#utility.yul\":16653:16657   */\n      0x00\n        /* \"#utility.yul\":16676:16679   */\n      dup2\n        /* \"#utility.yul\":16668:16679   */\n      swap1\n      pop\n        /* \"#utility.yul\":16706:16710   */\n      0x20\n        /* \"#utility.yul\":16701:16704   */\n      dup3\n        /* \"#utility.yul\":16697:16711   */\n      add\n        /* \"#utility.yul\":16689:16711   */\n      swap1\n      pop\n        /* \"#utility.yul\":16586:16718   */\n      swap2\n      swap1\n      pop\n      jump\t// out\n        /* \"#utility.yul\":16724:16832   */\n    tag_416:\n        /* \"#utility.yul\":16801:16825   */\n      tag_630\n        /* \"#utility.yul\":16819:16824   */\n      dup2\n        /* \"#utility.yul\":16801:16825   */\n      tag_371\n      jump\t// in\n    tag_630:\n        /* \"#utility.yul\":16796:16799   */\n      dup3\n        /* \"#utility.yul\":16789:16826   */\n      mstore\n        /* \"#utility.yul\":16724:16832   */\n      pop\n      pop\n      jump\t// out\n        /* \"#utility.yul\":16838:17017   */\n    tag_417:\n        /* \"#utility.yul\":16907:16917   */\n      0x00\n        /* \"#utility.yul\":16928:16974   */\n      tag_632\n        /* \"#utility.yul\":16970:16973   */\n      dup4\n        /* \"#utility.yul\":16962:16968   */\n      dup4\n        /* \"#utility.yul\":16928:16974   */\n      tag_416\n      jump\t// in\n    tag_632:\n        /* \"#utility.yul\":17006:17010   */\n      0x20\n        /* \"#utility.yul\":17001:17004   */\n      dup4\n        /* \"#utility.yul\":16997:17011   */\n      add\n        /* \"#utility.yul\":16983:17011   */\n      swap1\n      pop\n        /* \"#utility.yul\":16838:17017   */\n      swap3\n      swap2\n      pop\n      pop\n      jump\t// out\n        /* \"#utility.yul\":17023:17136   */\n    tag_418:\n        /* \"#utility.yul\":17093:17097   */\n      0x00\n        /* \"#utility.yul\":17125:17129   */\n      0x20\n        /* \"#utility.yul\":17120:17123   */\n      dup3\n        /* \"#utility.yul\":17116:17130   */\n      add\n        /* \"#utility.yul\":17108:17130   */\n      swap1\n      pop\n        /* \"#utility.yul\":17023:17136   */\n      swap2\n      swap1\n      pop\n      jump\t// out\n        /* \"#utility.yul\":17172:17904   */\n    tag_419:\n        /* \"#utility.yul\":17291:17294   */\n      0x00\n        /* \"#utility.yul\":17320:17374   */\n      tag_635\n        /* \"#utility.yul\":17368:17373   */\n      dup3\n        /* \"#utility.yul\":17320:17374   */\n      tag_413\n      jump\t// in\n    tag_635:\n        /* \"#utility.yul\":17390:17476   */\n      tag_636\n        /* \"#utility.yul\":17469:17475   */\n      dup2\n        /* \"#utility.yul\":17464:17467   */\n      dup6\n        /* \"#utility.yul\":17390:17476   */\n      tag_414\n      jump\t// in\n    tag_636:\n        /* \"#utility.yul\":17383:17476   */\n      swap4\n      pop\n        /* \"#utility.yul\":17500:17556   */\n      tag_637\n        /* \"#utility.yul\":17550:17555   */\n      dup4\n        /* \"#utility.yul\":17500:17556   */\n      tag_415\n      jump\t// in\n    tag_637:\n        /* \"#utility.yul\":17579:17586   */\n      dup1\n        /* \"#utility.yul\":17610:17611   */\n      0x00\n        /* \"#utility.yul\":17595:17879   */\n    tag_638:\n        /* \"#utility.yul\":17620:17626   */\n      dup4\n        /* \"#utility.yul\":17617:17618   */\n      dup2\n        /* \"#utility.yul\":17614:17627   */\n      lt\n        /* \"#utility.yul\":17595:17879   */\n      iszero\n      tag_640\n      jumpi\n        /* \"#utility.yul\":17696:17702   */\n      dup2\n        /* \"#utility.yul\":17690:17703   */\n      mload\n        /* \"#utility.yul\":17723:17786   */\n      tag_641\n        /* \"#utility.yul\":17782:17785   */\n      dup9\n        /* \"#utility.yul\":17767:17780   */\n      dup3\n        /* \"#utility.yul\":17723:17786   */\n      tag_417\n      jump\t// in\n    tag_641:\n        /* \"#utility.yul\":17716:17786   */\n      swap8\n      pop\n        /* \"#utility.yul\":17809:17869   */\n      tag_642\n        /* \"#utility.yul\":17862:17868   */\n      dup4\n        /* \"#utility.yul\":17809:17869   */\n      tag_418\n      jump\t// in\n    tag_642:\n        /* \"#utility.yul\":17799:17869   */\n      swap3\n      pop\n        /* \"#utility.yul\":17655:17879   */\n      pop\n        /* \"#utility.yul\":17642:17643   */\n      0x01\n        /* \"#utility.yul\":17639:17640   */\n      dup2\n        /* \"#utility.yul\":17635:17644   */\n      add\n        /* \"#utility.yul\":17630:17644   */\n      swap1\n      pop\n        /* \"#utility.yul\":17595:17879   */\n      jump(tag_638)\n    tag_640:\n        /* \"#utility.yul\":17599:17613   */\n      pop\n        /* \"#utility.yul\":17895:17898   */\n      dup6\n        /* \"#utility.yul\":17888:17898   */\n      swap4\n      pop\n        /* \"#utility.yul\":17296:17904   */\n      pop\n      pop\n      pop\n        /* \"#utility.yul\":17172:17904   */\n      swap3\n      swap2\n      pop\n      pop\n      jump\t// out\n        /* \"#utility.yul\":17910:18393   */\n    tag_161:\n        /* \"#utility.yul\":18081:18085   */\n      0x00\n        /* \"#utility.yul\":18119:18121   */\n      0x40\n        /* \"#utility.yul\":18108:18117   */\n      dup3\n        /* \"#utility.yul\":18104:18122   */\n      add\n        /* \"#utility.yul\":18096:18122   */\n      swap1\n      pop\n        /* \"#utility.yul\":18132:18203   */\n      tag_644\n        /* \"#utility.yul\":18200:18201   */\n      0x00\n        /* \"#utility.yul\":18189:18198   */\n      dup4\n        /* \"#utility.yul\":18185:18202   */\n      add\n        /* \"#utility.yul\":18176:18182   */\n      dup6\n        /* \"#utility.yul\":18132:18203   */\n      tag_375\n      jump\t// in\n    tag_644:\n        /* \"#utility.yul\":18250:18259   */\n      dup2\n        /* \"#utility.yul\":18244:18248   */\n      dup2\n        /* \"#utility.yul\":18240:18260   */\n      sub\n        /* \"#utility.yul\":18235:18237   */\n      0x20\n        /* \"#utility.yul\":18224:18233   */\n      dup4\n        /* \"#utility.yul\":18220:18238   */\n      add\n        /* \"#utility.yul\":18213:18261   */\n      mstore\n        /* \"#utility.yul\":18278:18386   */\n      tag_645\n        /* \"#utility.yul\":18381:18385   */\n      dup2\n        /* \"#utility.yul\":18372:18378   */\n      dup5\n        /* \"#utility.yul\":18278:18386   */\n      tag_419\n      jump\t// in\n    tag_645:\n        /* \"#utility.yul\":18270:18386   */\n      swap1\n      pop\n        /* \"#utility.yul\":17910:18393   */\n      swap4\n      swap3\n      pop\n      pop\n      pop\n      jump\t// out\n        /* \"#utility.yul\":18399:18710   */\n    tag_420:\n        /* \"#utility.yul\":18476:18480   */\n      0x00\n        /* \"#utility.yul\":18566:18584   */\n      0xffffffffffffffff\n        /* \"#utility.yul\":18558:18564   */\n      dup3\n        /* \"#utility.yul\":18555:18585   */\n      gt\n        /* \"#utility.yul\":18552:18608   */\n      iszero\n      tag_647\n      jumpi\n        /* \"#utility.yul\":18588:18606   */\n      tag_648\n      tag_152\n      jump\t// in\n    tag_648:\n        /* \"#utility.yul\":18552:18608   */\n    tag_647:\n        /* \"#utility.yul\":18638:18642   */\n      0x20\n        /* \"#utility.yul\":18630:18636   */\n      dup3\n        /* \"#utility.yul\":18626:18643   */\n      mul\n        /* \"#utility.yul\":18618:18643   */\n      swap1\n      pop\n        /* \"#utility.yul\":18698:18702   */\n      0x20\n        /* \"#utility.yul\":18692:18696   */\n      dup2\n        /* \"#utility.yul\":18688:18703   */\n      add\n        /* \"#utility.yul\":18680:18703   */\n      swap1\n      pop\n        /* \"#utility.yul\":18399:18710   */\n      swap2\n      swap1\n      pop\n      jump\t// out\n        /* \"#utility.yul\":18733:19465   */\n    tag_421:\n        /* \"#utility.yul\":18840:18845   */\n      0x00\n        /* \"#utility.yul\":18865:18946   */\n      tag_650\n        /* \"#utility.yul\":18881:18945   */\n      tag_651\n        /* \"#utility.yul\":18938:18944   */\n      dup5\n        /* \"#utility.yul\":18881:18945   */\n      tag_420\n      jump\t// in\n    tag_651:\n        /* \"#utility.yul\":18865:18946   */\n      tag_385\n      jump\t// in\n    tag_650:\n        /* \"#utility.yul\":18856:18946   */\n      swap1\n      pop\n        /* \"#utility.yul\":18966:18971   */\n      dup1\n        /* \"#utility.yul\":18995:19001   */\n      dup4\n        /* \"#utility.yul\":18988:18993   */\n      dup3\n        /* \"#utility.yul\":18981:19002   */\n      mstore\n        /* \"#utility.yul\":19029:19033   */\n      0x20\n        /* \"#utility.yul\":19022:19027   */\n      dup3\n        /* \"#utility.yul\":19018:19034   */\n      add\n        /* \"#utility.yul\":19011:19034   */\n      swap1\n      pop\n        /* \"#utility.yul\":19082:19086   */\n      0x20\n        /* \"#utility.yul\":19074:19080   */\n      dup5\n        /* \"#utility.yul\":19070:19087   */\n      mul\n        /* \"#utility.yul\":19062:19068   */\n      dup4\n        /* \"#utility.yul\":19058:19088   */\n      add\n        /* \"#utility.yul\":19111:19114   */\n      dup6\n        /* \"#utility.yul\":19103:19109   */\n      dup2\n        /* \"#utility.yul\":19100:19115   */\n      gt\n        /* \"#utility.yul\":19097:19219   */\n      iszero\n      tag_652\n      jumpi\n        /* \"#utility.yul\":19130:19209   */\n      tag_653\n      tag_387\n      jump\t// in\n    tag_653:\n        /* \"#utility.yul\":19097:19219   */\n    tag_652:\n        /* \"#utility.yul\":19245:19251   */\n      dup4\n        /* \"#utility.yul\":19228:19459   */\n    tag_654:\n        /* \"#utility.yul\":19262:19268   */\n      dup2\n        /* \"#utility.yul\":19257:19260   */\n      dup2\n        /* \"#utility.yul\":19254:19269   */\n      lt\n        /* \"#utility.yul\":19228:19459   */\n      iszero\n      tag_656\n      jumpi\n        /* \"#utility.yul\":19337:19340   */\n      dup1\n        /* \"#utility.yul\":19366:19414   */\n      tag_657\n        /* \"#utility.yul\":19410:19413   */\n      dup9\n        /* \"#utility.yul\":19398:19408   */\n      dup3\n        /* \"#utility.yul\":19366:19414   */\n      tag_406\n      jump\t// in\n    tag_657:\n        /* \"#utility.yul\":19361:19364   */\n      dup5\n        /* \"#utility.yul\":19354:19415   */\n      mstore\n        /* \"#utility.yul\":19444:19448   */\n      0x20\n        /* \"#utility.yul\":19439:19442   */\n      dup5\n        /* \"#utility.yul\":19435:19449   */\n      add\n        /* \"#utility.yul\":19428:19449   */\n      swap4\n      pop\n        /* \"#utility.yul\":19304:19459   */\n      pop\n        /* \"#utility.yul\":19288:19292   */\n      0x20\n        /* \"#utility.yul\":19283:19286   */\n      dup2\n        /* \"#utility.yul\":19279:19293   */\n      add\n        /* \"#utility.yul\":19272:19293   */\n      swap1\n      pop\n        /* \"#utility.yul\":19228:19459   */\n      jump(tag_654)\n    tag_656:\n        /* \"#utility.yul\":19232:19253   */\n      pop\n        /* \"#utility.yul\":18846:19465   */\n      pop\n      pop\n        /* \"#utility.yul\":18733:19465   */\n      swap4\n      swap3\n      pop\n      pop\n      pop\n      jump\t// out\n        /* \"#utility.yul\":19488:19873   */\n    tag_422:\n        /* \"#utility.yul\":19570:19575   */\n      0x00\n        /* \"#utility.yul\":19619:19622   */\n      dup3\n        /* \"#utility.yul\":19612:19616   */\n      0x1f\n        /* \"#utility.yul\":19604:19610   */\n      dup4\n        /* \"#utility.yul\":19600:19617   */\n      add\n        /* \"#utility.yul\":19596:19623   */\n      slt\n        /* \"#utility.yul\":19586:19708   */\n      tag_659\n      jumpi\n        /* \"#utility.yul\":19627:19706   */\n      tag_660\n      tag_382\n      jump\t// in\n    tag_660:\n        /* \"#utility.yul\":19586:19708   */\n    tag_659:\n        /* \"#utility.yul\":19737:19743   */\n      dup2\n        /* \"#utility.yul\":19731:19744   */\n      mload\n        /* \"#utility.yul\":19762:19867   */\n      tag_661\n        /* \"#utility.yul\":19863:19866   */\n      dup5\n        /* \"#utility.yul\":19855:19861   */\n      dup3\n        /* \"#utility.yul\":19848:19852   */\n      0x20\n        /* \"#utility.yul\":19840:19846   */\n      dup7\n        /* \"#utility.yul\":19836:19853   */\n      add\n        /* \"#utility.yul\":19762:19867   */\n      tag_421\n      jump\t// in\n    tag_661:\n        /* \"#utility.yul\":19753:19867   */\n      swap2\n      pop\n        /* \"#utility.yul\":19576:19873   */\n      pop\n        /* \"#utility.yul\":19488:19873   */\n      swap3\n      swap2\n      pop\n      pop\n      jump\t// out\n        /* \"#utility.yul\":19879:20433   */\n    tag_165:\n        /* \"#utility.yul\":19974:19980   */\n      0x00\n        /* \"#utility.yul\":20023:20025   */\n      0x20\n        /* \"#utility.yul\":20011:20020   */\n      dup3\n        /* \"#utility.yul\":20002:20009   */\n      dup5\n        /* \"#utility.yul\":19998:20021   */\n      sub\n        /* \"#utility.yul\":19994:20026   */\n      slt\n        /* \"#utility.yul\":19991:20110   */\n      iszero\n      tag_663\n      jumpi\n        /* \"#utility.yul\":20029:20108   */\n      tag_664\n      tag_365\n      jump\t// in\n    tag_664:\n        /* \"#utility.yul\":19991:20110   */\n    tag_663:\n        /* \"#utility.yul\":20170:20171   */\n      0x00\n        /* \"#utility.yul\":20159:20168   */\n      dup3\n        /* \"#utility.yul\":20155:20172   */\n      add\n        /* \"#utility.yul\":20149:20173   */\n      mload\n        /* \"#utility.yul\":20200:20218   */\n      0xffffffffffffffff\n        /* \"#utility.yul\":20192:20198   */\n      dup2\n        /* \"#utility.yul\":20189:20219   */\n      gt\n        /* \"#utility.yul\":20186:20303   */\n      iszero\n      tag_665\n      jumpi\n        /* \"#utility.yul\":20222:20301   */\n      tag_666\n      tag_366\n      jump\t// in\n    tag_666:\n        /* \"#utility.yul\":20186:20303   */\n    tag_665:\n        /* \"#utility.yul\":20327:20416   */\n      tag_667\n        /* \"#utility.yul\":20408:20415   */\n      dup5\n        /* \"#utility.yul\":20399:20405   */\n      dup3\n        /* \"#utility.yul\":20388:20397   */\n      dup6\n        /* \"#utility.yul\":20384:20406   */\n      add\n        /* \"#utility.yul\":20327:20416   */\n      tag_422\n      jump\t// in\n    tag_667:\n        /* \"#utility.yul\":20317:20416   */\n      swap2\n      pop\n        /* \"#utility.yul\":20120:20426   */\n      pop\n        /* \"#utility.yul\":19879:20433   */\n      swap3\n      swap2\n      pop\n      pop\n      jump\t// out\n        /* \"#utility.yul\":20439:20818   */\n    tag_172:\n        /* \"#utility.yul\":20523:20529   */\n      0x00\n        /* \"#utility.yul\":20572:20574   */\n      0x20\n        /* \"#utility.yul\":20560:20569   */\n      dup3\n        /* \"#utility.yul\":20551:20558   */\n      dup5\n        /* \"#utility.yul\":20547:20570   */\n      sub\n        /* \"#utility.yul\":20543:20575   */\n      slt\n        /* \"#utility.yul\":20540:20659   */\n      iszero\n      tag_669\n      jumpi\n        /* \"#utility.yul\":20578:20657   */\n      tag_670\n      tag_365\n      jump\t// in\n    tag_670:\n        /* \"#utility.yul\":20540:20659   */\n    tag_669:\n        /* \"#utility.yul\":20698:20699   */\n      0x00\n        /* \"#utility.yul\":20723:20801   */\n      tag_671\n        /* \"#utility.yul\":20793:20800   */\n      dup5\n        /* \"#utility.yul\":20784:20790   */\n      dup3\n        /* \"#utility.yul\":20773:20782   */\n      dup6\n        /* \"#utility.yul\":20769:20791   */\n      add\n        /* \"#utility.yul\":20723:20801   */\n      tag_405\n      jump\t// in\n    tag_671:\n        /* \"#utility.yul\":20713:20801   */\n      swap2\n      pop\n        /* \"#utility.yul\":20669:20811   */\n      pop\n        /* \"#utility.yul\":20439:20818   */\n      swap3\n      swap2\n      pop\n      pop\n      jump\t// out\n        /* \"#utility.yul\":20824:20993   */\n    tag_423:\n        /* \"#utility.yul\":20908:20919   */\n      0x00\n        /* \"#utility.yul\":20942:20948   */\n      dup3\n        /* \"#utility.yul\":20937:20940   */\n      dup3\n        /* \"#utility.yul\":20930:20949   */\n      mstore\n        /* \"#utility.yul\":20982:20986   */\n      0x20\n        /* \"#utility.yul\":20977:20980   */\n      dup3\n        /* \"#utility.yul\":20973:20987   */\n      add\n        /* \"#utility.yul\":20958:20987   */\n      swap1\n      pop\n        /* \"#utility.yul\":20824:20993   */\n      swap3\n      swap2\n      pop\n      pop\n      jump\t// out\n        /* \"#utility.yul\":20999:21181   */\n    tag_424:\n        /* \"#utility.yul\":21139:21173   */\n      0x4f776e61626c653a2063616c6c6572206973206e6f7420746865206f776e6572\n        /* \"#utility.yul\":21135:21136   */\n      0x00\n        /* \"#utility.yul\":21127:21133   */\n      dup3\n        /* \"#utility.yul\":21123:21137   */\n      add\n        /* \"#utility.yul\":21116:21174   */\n      mstore\n        /* \"#utility.yul\":20999:21181   */\n      pop\n      jump\t// out\n        /* \"#utility.yul\":21187:21553   */\n    tag_425:\n        /* \"#utility.yul\":21329:21332   */\n      0x00\n        /* \"#utility.yul\":21350:21417   */\n      tag_675\n        /* \"#utility.yul\":21414:21416   */\n      0x20\n        /* \"#utility.yul\":21409:21412   */\n      dup4\n        /* \"#utility.yul\":21350:21417   */\n      tag_423\n      jump\t// in\n    tag_675:\n        /* \"#utility.yul\":21343:21417   */\n      swap2\n      pop\n        /* \"#utility.yul\":21426:21519   */\n      tag_676\n        /* \"#utility.yul\":21515:21518   */\n      dup3\n        /* \"#utility.yul\":21426:21519   */\n      tag_424\n      jump\t// in\n    tag_676:\n        /* \"#utility.yul\":21544:21546   */\n      0x20\n        /* \"#utility.yul\":21539:21542   */\n      dup3\n        /* \"#utility.yul\":21535:21547   */\n      add\n        /* \"#utility.yul\":21528:21547   */\n      swap1\n      pop\n        /* \"#utility.yul\":21187:21553   */\n      swap2\n      swap1\n      pop\n      jump\t// out\n        /* \"#utility.yul\":21559:21978   */\n    tag_281:\n        /* \"#utility.yul\":21725:21729   */\n      0x00\n        /* \"#utility.yul\":21763:21765   */\n      0x20\n        /* \"#utility.yul\":21752:21761   */\n      dup3\n        /* \"#utility.yul\":21748:21766   */\n      add\n        /* \"#utility.yul\":21740:21766   */\n      swap1\n      pop\n        /* \"#utility.yul\":21812:21821   */\n      dup2\n        /* \"#utility.yul\":21806:21810   */\n      dup2\n        /* \"#utility.yul\":21802:21822   */\n      sub\n        /* \"#utility.yul\":21798:21799   */\n      0x00\n        /* \"#utility.yul\":21787:21796   */\n      dup4\n        /* \"#utility.yul\":21783:21800   */\n      add\n        /* \"#utility.yul\":21776:21823   */\n      mstore\n        /* \"#utility.yul\":21840:21971   */\n      tag_678\n        /* \"#utility.yul\":21966:21970   */\n      dup2\n        /* \"#utility.yul\":21840:21971   */\n      tag_425\n      jump\t// in\n    tag_678:\n        /* \"#utility.yul\":21832:21971   */\n      swap1\n      pop\n        /* \"#utility.yul\":21559:21978   */\n      swap2\n      swap1\n      pop\n      jump\t// out\n        /* \"#utility.yul\":21984:22127   */\n    tag_426:\n        /* \"#utility.yul\":22041:22046   */\n      0x00\n        /* \"#utility.yul\":22072:22078   */\n      dup2\n        /* \"#utility.yul\":22066:22079   */\n      mload\n        /* \"#utility.yul\":22057:22079   */\n      swap1\n      pop\n        /* \"#utility.yul\":22088:22121   */\n      tag_680\n        /* \"#utility.yul\":22115:22120   */\n      dup2\n        /* \"#utility.yul\":22088:22121   */\n      tag_390\n      jump\t// in\n    tag_680:\n        /* \"#utility.yul\":21984:22127   */\n      swap3\n      swap2\n      pop\n      pop\n      jump\t// out\n        /* \"#utility.yul\":22133:22484   */\n    tag_321:\n        /* \"#utility.yul\":22203:22209   */\n      0x00\n        /* \"#utility.yul\":22252:22254   */\n      0x20\n        /* \"#utility.yul\":22240:22249   */\n      dup3\n        /* \"#utility.yul\":22231:22238   */\n      dup5\n        /* \"#utility.yul\":22227:22250   */\n      sub\n        /* \"#utility.yul\":22223:22255   */\n      slt\n        /* \"#utility.yul\":22220:22339   */\n      iszero\n      tag_682\n      jumpi\n        /* \"#utility.yul\":22258:22337   */\n      tag_683\n      tag_365\n      jump\t// in\n    tag_683:\n        /* \"#utility.yul\":22220:22339   */\n    tag_682:\n        /* \"#utility.yul\":22378:22379   */\n      0x00\n        /* \"#utility.yul\":22403:22467   */\n      tag_684\n        /* \"#utility.yul\":22459:22466   */\n      dup5\n        /* \"#utility.yul\":22450:22456   */\n      dup3\n        /* \"#utility.yul\":22439:22448   */\n      dup6\n        /* \"#utility.yul\":22435:22457   */\n      add\n        /* \"#utility.yul\":22403:22467   */\n      tag_426\n      jump\t// in\n    tag_684:\n        /* \"#utility.yul\":22393:22467   */\n      swap2\n      pop\n        /* \"#utility.yul\":22349:22477   */\n      pop\n        /* \"#utility.yul\":22133:22484   */\n      swap3\n      swap2\n      pop\n      pop\n      jump\t// out\n        /* \"#utility.yul\":22490:22715   */\n    tag_427:\n        /* \"#utility.yul\":22630:22664   */\n      0x4f776e61626c653a206e6577206f776e657220697320746865207a65726f2061\n        /* \"#utility.yul\":22626:22627   */\n      0x00\n        /* \"#utility.yul\":22618:22624   */\n      dup3\n        /* \"#utility.yul\":22614:22628   */\n      add\n        /* \"#utility.yul\":22607:22665   */\n      mstore\n        /* \"#utility.yul\":22699:22707   */\n      0x6464726573730000000000000000000000000000000000000000000000000000\n        /* \"#utility.yul\":22694:22696   */\n      0x20\n        /* \"#utility.yul\":22686:22692   */\n      dup3\n        /* \"#utility.yul\":22682:22697   */\n      add\n        /* \"#utility.yul\":22675:22708   */\n      mstore\n        /* \"#utility.yul\":22490:22715   */\n      pop\n      jump\t// out\n        /* \"#utility.yul\":22721:23087   */\n    tag_428:\n        /* \"#utility.yul\":22863:22866   */\n      0x00\n        /* \"#utility.yul\":22884:22951   */\n      tag_687\n        /* \"#utility.yul\":22948:22950   */\n      0x26\n        /* \"#utility.yul\":22943:22946   */\n      dup4\n        /* \"#utility.yul\":22884:22951   */\n      tag_423\n      jump\t// in\n    tag_687:\n        /* \"#utility.yul\":22877:22951   */\n      swap2\n      pop\n        /* \"#utility.yul\":22960:23053   */\n      tag_688\n        /* \"#utility.yul\":23049:23052   */\n      dup3\n        /* \"#utility.yul\":22960:23053   */\n      tag_427\n      jump\t// in\n    tag_688:\n        /* \"#utility.yul\":23078:23080   */\n      0x40\n        /* \"#utility.yul\":23073:23076   */\n      dup3\n        /* \"#utility.yul\":23069:23081   */\n      add\n        /* \"#utility.yul\":23062:23081   */\n      swap1\n      pop\n        /* \"#utility.yul\":22721:23087   */\n      swap2\n      swap1\n      pop\n      jump\t// out\n        /* \"#utility.yul\":23093:23512   */\n    tag_340:\n        /* \"#utility.yul\":23259:23263   */\n      0x00\n        /* \"#utility.yul\":23297:23299   */\n      0x20\n        /* \"#utility.yul\":23286:23295   */\n      dup3\n        /* \"#utility.yul\":23282:23300   */\n      add\n        /* \"#utility.yul\":23274:23300   */\n      swap1\n      pop\n        /* \"#utility.yul\":23346:23355   */\n      dup2\n        /* \"#utility.yul\":23340:23344   */\n      dup2\n        /* \"#utility.yul\":23336:23356   */\n      sub\n        /* \"#utility.yul\":23332:23333   */\n      0x00\n        /* \"#utility.yul\":23321:23330   */\n      dup4\n        /* \"#utility.yul\":23317:23334   */\n      add\n        /* \"#utility.yul\":23310:23357   */\n      mstore\n        /* \"#utility.yul\":23374:23505   */\n      tag_690\n        /* \"#utility.yul\":23500:23504   */\n      dup2\n        /* \"#utility.yul\":23374:23505   */\n      tag_428\n      jump\t// in\n    tag_690:\n        /* \"#utility.yul\":23366:23505   */\n      swap1\n      pop\n        /* \"#utility.yul\":23093:23512   */\n      swap2\n      swap1\n      pop\n      jump\t// out\n        /* \"#utility.yul\":23518:23738   */\n    tag_429:\n        /* \"#utility.yul\":23658:23692   */\n      0x536166654d6174683a206d756c7469706c69636174696f6e206f766572666c6f\n        /* \"#utility.yul\":23654:23655   */\n      0x00\n        /* \"#utility.yul\":23646:23652   */\n      dup3\n        /* \"#utility.yul\":23642:23656   */\n      add\n        /* \"#utility.yul\":23635:23693   */\n      mstore\n        /* \"#utility.yul\":23727:23730   */\n      0x7700000000000000000000000000000000000000000000000000000000000000\n        /* \"#utility.yul\":23722:23724   */\n      0x20\n        /* \"#utility.yul\":23714:23720   */\n      dup3\n        /* \"#utility.yul\":23710:23725   */\n      add\n        /* \"#utility.yul\":23703:23731   */\n      mstore\n        /* \"#utility.yul\":23518:23738   */\n      pop\n      jump\t// out\n        /* \"#utility.yul\":23744:24110   */\n    tag_430:\n        /* \"#utility.yul\":23886:23889   */\n      0x00\n        /* \"#utility.yul\":23907:23974   */\n      tag_693\n        /* \"#utility.yul\":23971:23973   */\n      0x21\n        /* \"#utility.yul\":23966:23969   */\n      dup4\n        /* \"#utility.yul\":23907:23974   */\n      tag_423\n      jump\t// in\n    tag_693:\n        /* \"#utility.yul\":23900:23974   */\n      swap2\n      pop\n        /* \"#utility.yul\":23983:24076   */\n      tag_694\n        /* \"#utility.yul\":24072:24075   */\n      dup3\n        /* \"#utility.yul\":23983:24076   */\n      tag_429\n      jump\t// in\n    tag_694:\n        /* \"#utility.yul\":24101:24103   */\n      0x40\n        /* \"#utility.yul\":24096:24099   */\n      dup3\n        /* \"#utility.yul\":24092:24104   */\n      add\n        /* \"#utility.yul\":24085:24104   */\n      swap1\n      pop\n        /* \"#utility.yul\":23744:24110   */\n      swap2\n      swap1\n      pop\n      jump\t// out\n        /* \"#utility.yul\":24116:24535   */\n    tag_351:\n        /* \"#utility.yul\":24282:24286   */\n      0x00\n        /* \"#utility.yul\":24320:24322   */\n      0x20\n        /* \"#utility.yul\":24309:24318   */\n      dup3\n        /* \"#utility.yul\":24305:24323   */\n      add\n        /* \"#utility.yul\":24297:24323   */\n      swap1\n      pop\n        /* \"#utility.yul\":24369:24378   */\n      dup2\n        /* \"#utility.yul\":24363:24367   */\n      dup2\n        /* \"#utility.yul\":24359:24379   */\n      sub\n        /* \"#utility.yul\":24355:24356   */\n      0x00\n        /* \"#utility.yul\":24344:24353   */\n      dup4\n        /* \"#utility.yul\":24340:24357   */\n      add\n        /* \"#utility.yul\":24333:24380   */\n      mstore\n        /* \"#utility.yul\":24397:24528   */\n      tag_696\n        /* \"#utility.yul\":24523:24527   */\n      dup2\n        /* \"#utility.yul\":24397:24528   */\n      tag_430\n      jump\t// in\n    tag_696:\n        /* \"#utility.yul\":24389:24528   */\n      swap1\n      pop\n        /* \"#utility.yul\":24116:24535   */\n      swap2\n      swap1\n      pop\n      jump\t// out\n        /* \"#utility.yul\":24541:24718   */\n    tag_431:\n        /* \"#utility.yul\":24681:24710   */\n      0x536166654d6174683a206164646974696f6e206f766572666c6f770000000000\n        /* \"#utility.yul\":24677:24678   */\n      0x00\n        /* \"#utility.yul\":24669:24675   */\n      dup3\n        /* \"#utility.yul\":24665:24679   */\n      add\n        /* \"#utility.yul\":24658:24711   */\n      mstore\n        /* \"#utility.yul\":24541:24718   */\n      pop\n      jump\t// out\n        /* \"#utility.yul\":24724:25090   */\n    tag_432:\n        /* \"#utility.yul\":24866:24869   */\n      0x00\n        /* \"#utility.yul\":24887:24954   */\n      tag_699\n        /* \"#utility.yul\":24951:24953   */\n      0x1b\n        /* \"#utility.yul\":24946:24949   */\n      dup4\n        /* \"#utility.yul\":24887:24954   */\n      tag_423\n      jump\t// in\n    tag_699:\n        /* \"#utility.yul\":24880:24954   */\n      swap2\n      pop\n        /* \"#utility.yul\":24963:25056   */\n      tag_700\n        /* \"#utility.yul\":25052:25055   */\n      dup3\n        /* \"#utility.yul\":24963:25056   */\n      tag_431\n      jump\t// in\n    tag_700:\n        /* \"#utility.yul\":25081:25083   */\n      0x20\n        /* \"#utility.yul\":25076:25079   */\n      dup3\n        /* \"#utility.yul\":25072:25084   */\n      add\n        /* \"#utility.yul\":25065:25084   */\n      swap1\n      pop\n        /* \"#utility.yul\":24724:25090   */\n      swap2\n      swap1\n      pop\n      jump\t// out\n        /* \"#utility.yul\":25096:25515   */\n    tag_356:\n        /* \"#utility.yul\":25262:25266   */\n      0x00\n        /* \"#utility.yul\":25300:25302   */\n      0x20\n        /* \"#utility.yul\":25289:25298   */\n      dup3\n        /* \"#utility.yul\":25285:25303   */\n      add\n        /* \"#utility.yul\":25277:25303   */\n      swap1\n      pop\n        /* \"#utility.yul\":25349:25358   */\n      dup2\n        /* \"#utility.yul\":25343:25347   */\n      dup2\n        /* \"#utility.yul\":25339:25359   */\n      sub\n        /* \"#utility.yul\":25335:25336   */\n      0x00\n        /* \"#utility.yul\":25324:25333   */\n      dup4\n        /* \"#utility.yul\":25320:25337   */\n      add\n        /* \"#utility.yul\":25313:25360   */\n      mstore\n        /* \"#utility.yul\":25377:25508   */\n      tag_702\n        /* \"#utility.yul\":25503:25507   */\n      dup2\n        /* \"#utility.yul\":25377:25508   */\n      tag_432\n      jump\t// in\n    tag_702:\n        /* \"#utility.yul\":25369:25508   */\n      swap1\n      pop\n        /* \"#utility.yul\":25096:25515   */\n      swap2\n      swap1\n      pop\n      jump\t// out\n        /* \"#utility.yul\":25521:25620   */\n    tag_433:\n        /* \"#utility.yul\":25573:25579   */\n      0x00\n        /* \"#utility.yul\":25607:25612   */\n      dup2\n        /* \"#utility.yul\":25601:25613   */\n      mload\n        /* \"#utility.yul\":25591:25613   */\n      swap1\n      pop\n        /* \"#utility.yul\":25521:25620   */\n      swap2\n      swap1\n      pop\n      jump\t// out\n        /* \"#utility.yul\":25626:25933   */\n    tag_434:\n        /* \"#utility.yul\":25694:25695   */\n      0x00\n        /* \"#utility.yul\":25704:25817   */\n    tag_705:\n        /* \"#utility.yul\":25718:25724   */\n      dup4\n        /* \"#utility.yul\":25715:25716   */\n      dup2\n        /* \"#utility.yul\":25712:25725   */\n      lt\n        /* \"#utility.yul\":25704:25817   */\n      iszero\n      tag_707\n      jumpi\n        /* \"#utility.yul\":25803:25804   */\n      dup1\n        /* \"#utility.yul\":25798:25801   */\n      dup3\n        /* \"#utility.yul\":25794:25805   */\n      add\n        /* \"#utility.yul\":25788:25806   */\n      mload\n        /* \"#utility.yul\":25784:25785   */\n      dup2\n        /* \"#utility.yul\":25779:25782   */\n      dup5\n        /* \"#utility.yul\":25775:25786   */\n      add\n        /* \"#utility.yul\":25768:25807   */\n      mstore\n        /* \"#utility.yul\":25740:25742   */\n      0x20\n        /* \"#utility.yul\":25737:25738   */\n      dup2\n        /* \"#utility.yul\":25733:25743   */\n      add\n        /* \"#utility.yul\":25728:25743   */\n      swap1\n      pop\n        /* \"#utility.yul\":25704:25817   */\n      jump(tag_705)\n    tag_707:\n        /* \"#utility.yul\":25835:25841   */\n      dup4\n        /* \"#utility.yul\":25832:25833   */\n      dup2\n        /* \"#utility.yul\":25829:25842   */\n      gt\n        /* \"#utility.yul\":25826:25927   */\n      iszero\n      tag_708\n      jumpi\n        /* \"#utility.yul\":25915:25916   */\n      0x00\n        /* \"#utility.yul\":25906:25912   */\n      dup5\n        /* \"#utility.yul\":25901:25904   */\n      dup5\n        /* \"#utility.yul\":25897:25913   */\n      add\n        /* \"#utility.yul\":25890:25917   */\n      mstore\n        /* \"#utility.yul\":25826:25927   */\n    tag_708:\n        /* \"#utility.yul\":25675:25933   */\n      pop\n        /* \"#utility.yul\":25626:25933   */\n      pop\n      pop\n      pop\n      jump\t// out\n        /* \"#utility.yul\":25939:26303   */\n    tag_435:\n        /* \"#utility.yul\":26027:26030   */\n      0x00\n        /* \"#utility.yul\":26055:26094   */\n      tag_710\n        /* \"#utility.yul\":26088:26093   */\n      dup3\n        /* \"#utility.yul\":26055:26094   */\n      tag_433\n      jump\t// in\n    tag_710:\n        /* \"#utility.yul\":26110:26181   */\n      tag_711\n        /* \"#utility.yul\":26174:26180   */\n      dup2\n        /* \"#utility.yul\":26169:26172   */\n      dup6\n        /* \"#utility.yul\":26110:26181   */\n      tag_423\n      jump\t// in\n    tag_711:\n        /* \"#utility.yul\":26103:26181   */\n      swap4\n      pop\n        /* \"#utility.yul\":26190:26242   */\n      tag_712\n        /* \"#utility.yul\":26235:26241   */\n      dup2\n        /* \"#utility.yul\":26230:26233   */\n      dup6\n        /* \"#utility.yul\":26223:26227   */\n      0x20\n        /* \"#utility.yul\":26216:26221   */\n      dup7\n        /* \"#utility.yul\":26212:26228   */\n      add\n        /* \"#utility.yul\":26190:26242   */\n      tag_434\n      jump\t// in\n    tag_712:\n        /* \"#utility.yul\":26267:26296   */\n      tag_713\n        /* \"#utility.yul\":26289:26295   */\n      dup2\n        /* \"#utility.yul\":26267:26296   */\n      tag_383\n      jump\t// in\n    tag_713:\n        /* \"#utility.yul\":26262:26265   */\n      dup5\n        /* \"#utility.yul\":26258:26297   */\n      add\n        /* \"#utility.yul\":26251:26297   */\n      swap2\n      pop\n        /* \"#utility.yul\":26031:26303   */\n      pop\n        /* \"#utility.yul\":25939:26303   */\n      swap3\n      swap2\n      pop\n      pop\n      jump\t// out\n        /* \"#utility.yul\":26309:26622   */\n    tag_362:\n        /* \"#utility.yul\":26422:26426   */\n      0x00\n        /* \"#utility.yul\":26460:26462   */\n      0x20\n        /* \"#utility.yul\":26449:26458   */\n      dup3\n        /* \"#utility.yul\":26445:26463   */\n      add\n        /* \"#utility.yul\":26437:26463   */\n      swap1\n      pop\n        /* \"#utility.yul\":26509:26518   */\n      dup2\n        /* \"#utility.yul\":26503:26507   */\n      dup2\n        /* \"#utility.yul\":26499:26519   */\n      sub\n        /* \"#utility.yul\":26495:26496   */\n      0x00\n        /* \"#utility.yul\":26484:26493   */\n      dup4\n        /* \"#utility.yul\":26480:26497   */\n      add\n        /* \"#utility.yul\":26473:26520   */\n      mstore\n        /* \"#utility.yul\":26537:26615   */\n      tag_715\n        /* \"#utility.yul\":26610:26614   */\n      dup2\n        /* \"#utility.yul\":26601:26607   */\n      dup5\n        /* \"#utility.yul\":26537:26615   */\n      tag_435\n      jump\t// in\n    tag_715:\n        /* \"#utility.yul\":26529:26615   */\n      swap1\n      pop\n        /* \"#utility.yul\":26309:26622   */\n      swap3\n      swap2\n      pop\n      pop\n      jump\t// out\n\n    auxdata: 0xa264697066735822122095b733ef8f06a0be394bf63a9b1c2f50cc34138966f14cd69f77cd094d1c239a64736f6c634300080f0033\n}\n",
				"bytecode": {
					"linkReferences": {},
					"object": "6080604052670de0b6b3a764000060035562a066806005553480156200002457600080fd5b5060405162002f3238038062002f3283398181016040528101906200004a9190620002b1565b6200006a6200005e6200013660201b60201c565b6200013e60201b60201c565b82600460006101000a81548173ffffffffffffffffffffffffffffffffffffffff021916908373ffffffffffffffffffffffffffffffffffffffff16021790555081600160006101000a81548173ffffffffffffffffffffffffffffffffffffffff021916908373ffffffffffffffffffffffffffffffffffffffff16021790555080600260006101000a81548173ffffffffffffffffffffffffffffffffffffffff021916908373ffffffffffffffffffffffffffffffffffffffff1602179055505050506200030d565b600033905090565b60008060009054906101000a900473ffffffffffffffffffffffffffffffffffffffff169050816000806101000a81548173ffffffffffffffffffffffffffffffffffffffff021916908373ffffffffffffffffffffffffffffffffffffffff1602179055508173ffffffffffffffffffffffffffffffffffffffff168173ffffffffffffffffffffffffffffffffffffffff167f8be0079c531659141344cd1fd0a4f28419497f9722a3daafe3b4186f6b6457e060405160405180910390a35050565b600080fd5b600073ffffffffffffffffffffffffffffffffffffffff82169050919050565b6000620002348262000207565b9050919050565b6000620002488262000227565b9050919050565b6200025a816200023b565b81146200026657600080fd5b50565b6000815190506200027a816200024f565b92915050565b6200028b8162000227565b81146200029757600080fd5b50565b600081519050620002ab8162000280565b92915050565b600080600060608486031215620002cd57620002cc62000202565b5b6000620002dd8682870162000269565b9350506020620002f0868287016200029a565b925050604062000303868287016200029a565b9150509250925092565b612c15806200031d6000396000f3fe608060405234801561001057600080fd5b506004361061010b5760003560e01c8063484f4ea9116100a25780638dd95002116100715780638dd95002146102f4578063c0d7865514610312578063d979fb5f1461032e578063dbb793481461035e578063f2fde38b1461038e5761010b565b8063484f4ea91461027e57806355b44eaf1461029c578063715018a6146102cc5780638da5cb5b146102d65761010b565b8063215cc989116100de578063215cc989146101d05780632f7c5980146102005780633268cc56146102305780633b979d451461024e5761010b565b80630ce0e3f5146101105780631616f124146101405780631858882b1461017057806319047f8a146101a0575b600080fd5b61012a60048036038101906101259190611e8d565b6103aa565b6040516101379190611eef565b60405180910390f35b61015a60048036038101906101559190611f86565b61055c565b6040516101679190611eef565b60405180910390f35b61018a60048036038101906101859190612132565b61069b565b6040516101979190611eef565b60405180910390f35b6101ba60048036038101906101b591906121ba565b610762565b6040516101c79190611eef565b60405180910390f35b6101ea60048036038101906101e591906121e7565b6109aa565b6040516101f79190611eef565b60405180910390f35b61021a600480360381019061021591906121e7565b6111a5565b6040516102279190611eef565b60405180910390f35b610238611227565b6040516102459190612273565b60405180910390f35b610268600480360381019061026391906121ba565b61124d565b6040516102759190611eef565b60405180910390f35b610286611424565b604051610293919061229d565b60405180910390f35b6102b660048036038101906102b19190612132565b61144a565b6040516102c39190611eef565b60405180910390f35b6102d4611513565b005b6102de61159b565b6040516102eb919061229d565b60405180910390f35b6102fc6115c4565b604051610309919061229d565b60405180910390f35b61032c600480360381019061032791906122f6565b6115ea565b005b61034860048036038101906103439190612323565b6116aa565b6040516103559190611eef565b60405180910390f35b61037860048036038101906103739190612323565b6117ea565b6040516103859190611eef565b60405180910390f35b6103a860048036038101906103a391906121ba565b611a8b565b005b6000808273ffffffffffffffffffffffffffffffffffffffff16631526fe27866040518263ffffffff1660e01b81526004016103e69190611eef565b60c060405180830381865afa158015610403573d6000803e3d6000fd5b505050506040513d601f19601f8201168201806040525081019061042791906124c0565b905060008160200151905060008473ffffffffffffffffffffffffffffffffffffffff166317caf6f16040518163ffffffff1660e01b8152600401602060405180830381865afa15801561047f573d6000803e3d6000fd5b505050506040513d601f19601f820116820180604052508101906104a391906124ed565b905060008573ffffffffffffffffffffffffffffffffffffffff16635990c5696040518163ffffffff1660e01b8152600401602060405180830381865afa1580156104f2573d6000803e3d6000fd5b505050506040513d601f19601f8201168201806040525081019061051691906124ed565b9050600061016d8260055461052b9190612549565b61053591906125d2565b90508284826105449190612549565b61054e91906125d2565b955050505050509392505050565b6000808473ffffffffffffffffffffffffffffffffffffffff166370a08231846040518263ffffffff1660e01b8152600401610598919061229d565b602060405180830381865afa1580156105b5573d6000803e3d6000fd5b505050506040513d601f19601f820116820180604052508101906105d991906124ed565b90506000600185036105f5576105ee866109aa565b9050610670565b6000850361066f578573ffffffffffffffffffffffffffffffffffffffff16600160009054906101000a900473ffffffffffffffffffffffffffffffffffffffff1673ffffffffffffffffffffffffffffffffffffffff16036106625761065b8661124d565b905061066e565b61066b86610762565b90505b5b5b61069060035482846106829190612549565b611b8290919063ffffffff16565b925050509392505050565b6000806000905060005b83518110156107575760016106d38583815181106106c6576106c5612603565b5b60200260200101516111a5565b03610710576106fe8482815181106106ee576106ed612603565b5b602002602001015160018761055c565b826107099190612632565b9150610744565b61073684828151811061072657610725612603565b5b602002602001015160008761055c565b826107419190612632565b91505b808061074f90612688565b9150506106a5565b508091505092915050565b600080600367ffffffffffffffff8111156107805761077f611fef565b5b6040519080825280602002602001820160405280156107ae5781602001602082028036833780820191505090505b50905082816000815181106107c6576107c5612603565b5b602002602001019073ffffffffffffffffffffffffffffffffffffffff16908173ffffffffffffffffffffffffffffffffffffffff1681525050600160009054906101000a900473ffffffffffffffffffffffffffffffffffffffff168160018151811061083757610836612603565b5b602002602001019073ffffffffffffffffffffffffffffffffffffffff16908173ffffffffffffffffffffffffffffffffffffffff1681525050600260009054906101000a900473ffffffffffffffffffffffffffffffffffffffff16816002815181106108a8576108a7612603565b5b602002602001019073ffffffffffffffffffffffffffffffffffffffff16908173ffffffffffffffffffffffffffffffffffffffff1681525050600460009054906101000a900473ffffffffffffffffffffffffffffffffffffffff1673ffffffffffffffffffffffffffffffffffffffff1663d06ca61f600354836040518363ffffffff1660e01b815260040161094192919061278e565b600060405180830381865afa15801561095e573d6000803e3d6000fd5b505050506040513d6000823e3d601f19601f820116820180604052508101906109879190612881565b60028151811061099a57610999612603565b5b6020026020010151915050919050565b60008060008373ffffffffffffffffffffffffffffffffffffffff16630dfe16816040518163ffffffff1660e01b8152600401602060405180830381865afa1580156109fa573d6000803e3d6000fd5b505050506040513d601f19601f82011682018060405250810190610a1e91906128ca565b73ffffffffffffffffffffffffffffffffffffffff16600160009054906101000a900473ffffffffffffffffffffffffffffffffffffffff1673ffffffffffffffffffffffffffffffffffffffff1603610be957610be2610aec8573ffffffffffffffffffffffffffffffffffffffff16630dfe16816040518163ffffffff1660e01b8152600401602060405180830381865afa158015610ac3573d6000803e3d6000fd5b505050506040513d601f19601f82011682018060405250810190610ae791906128ca565b61124d565b8573ffffffffffffffffffffffffffffffffffffffff16630dfe16816040518163ffffffff1660e01b8152600401602060405180830381865afa158015610b37573d6000803e3d6000fd5b505050506040513d601f19601f82011682018060405250810190610b5b91906128ca565b73ffffffffffffffffffffffffffffffffffffffff166370a08231876040518263ffffffff1660e01b8152600401610b93919061229d565b602060405180830381865afa158015610bb0573d6000803e3d6000fd5b505050506040513d601f19601f82011682018060405250810190610bd491906124ed565b611bcc90919063ffffffff16565b9150610d5c565b610d59610c638573ffffffffffffffffffffffffffffffffffffffff16630dfe16816040518163ffffffff1660e01b8152600401602060405180830381865afa158015610c3a573d6000803e3d6000fd5b505050506040513d601f19601f82011682018060405250810190610c5e91906128ca565b610762565b8573ffffffffffffffffffffffffffffffffffffffff16630dfe16816040518163ffffffff1660e01b8152600401602060405180830381865afa158015610cae573d6000803e3d6000fd5b505050506040513d601f19601f82011682018060405250810190610cd291906128ca565b73ffffffffffffffffffffffffffffffffffffffff166370a08231876040518263ffffffff1660e01b8152600401610d0a919061229d565b602060405180830381865afa158015610d27573d6000803e3d6000fd5b505050506040513d601f19601f82011682018060405250810190610d4b91906124ed565b611bcc90919063ffffffff16565b91505b8373ffffffffffffffffffffffffffffffffffffffff1663d21220a76040518163ffffffff1660e01b8152600401602060405180830381865afa158015610da7573d6000803e3d6000fd5b505050506040513d601f19601f82011682018060405250810190610dcb91906128ca565b73ffffffffffffffffffffffffffffffffffffffff16600160009054906101000a900473ffffffffffffffffffffffffffffffffffffffff1673ffffffffffffffffffffffffffffffffffffffff1603610f9657610f8f610e998573ffffffffffffffffffffffffffffffffffffffff1663d21220a76040518163ffffffff1660e01b8152600401602060405180830381865afa158015610e70573d6000803e3d6000fd5b505050506040513d601f19601f82011682018060405250810190610e9491906128ca565b61124d565b8573ffffffffffffffffffffffffffffffffffffffff1663d21220a76040518163ffffffff1660e01b8152600401602060405180830381865afa158015610ee4573d6000803e3d6000fd5b505050506040513d601f19601f82011682018060405250810190610f0891906128ca565b73ffffffffffffffffffffffffffffffffffffffff166370a08231876040518263ffffffff1660e01b8152600401610f40919061229d565b602060405180830381865afa158015610f5d573d6000803e3d6000fd5b505050506040513d601f19601f82011682018060405250810190610f8191906124ed565b611bcc90919063ffffffff16565b9050611109565b6111066110108573ffffffffffffffffffffffffffffffffffffffff1663d21220a76040518163ffffffff1660e01b8152600401602060405180830381865afa158015610fe7573d6000803e3d6000fd5b505050506040513d601f19601f8201168201806040525081019061100b91906128ca565b610762565b8573ffffffffffffffffffffffffffffffffffffffff1663d21220a76040518163ffffffff1660e01b8152600401602060405180830381865afa15801561105b573d6000803e3d6000fd5b505050506040513d601f19601f8201168201806040525081019061107f91906128ca565b73ffffffffffffffffffffffffffffffffffffffff166370a08231876040518263ffffffff1660e01b81526004016110b7919061229d565b602060405180830381865afa1580156110d4573d6000803e3d6000fd5b505050506040513d601f19601f820116820180604052508101906110f891906124ed565b611bcc90919063ffffffff16565b90505b61119c8473ffffffffffffffffffffffffffffffffffffffff166318160ddd6040518163ffffffff1660e01b8152600401602060405180830381865afa158015611157573d6000803e3d6000fd5b505050506040513d601f19601f8201168201806040525081019061117b91906124ed565b61118e8385611c4690919063ffffffff16565b611b8290919063ffffffff16565b92505050919050565b60008173ffffffffffffffffffffffffffffffffffffffff16630dfe16816040518163ffffffff1660e01b8152600401602060405180830381865afa92505050801561120f57506040513d601f19601f8201168201806040525081019061120c91906128ca565b60015b61121c5760009050611222565b50600190505b919050565b600460009054906101000a900473ffffffffffffffffffffffffffffffffffffffff1681565b600080600267ffffffffffffffff81111561126b5761126a611fef565b5b6040519080825280602002602001820160405280156112995781602001602082028036833780820191505090505b50905082816000815181106112b1576112b0612603565b5b602002602001019073ffffffffffffffffffffffffffffffffffffffff16908173ffffffffffffffffffffffffffffffffffffffff1681525050600260009054906101000a900473ffffffffffffffffffffffffffffffffffffffff168160018151811061132257611321612603565b5b602002602001019073ffffffffffffffffffffffffffffffffffffffff16908173ffffffffffffffffffffffffffffffffffffffff1681525050600460009054906101000a900473ffffffffffffffffffffffffffffffffffffffff1673ffffffffffffffffffffffffffffffffffffffff1663d06ca61f600354836040518363ffffffff1660e01b81526004016113bb92919061278e565b600060405180830381865afa1580156113d8573d6000803e3d6000fd5b505050506040513d6000823e3d601f19601f820116820180604052508101906114019190612881565b60018151811061141457611413612603565b5b6020026020010151915050919050565b600260009054906101000a900473ffffffffffffffffffffffffffffffffffffffff1681565b6000806000905060005b835181101561150857600161148285838151811061147557611474612603565b5b60200260200101516111a5565b036114c0576114ae8185838151811061149e5761149d612603565b5b60200260200101516001886116aa565b826114b99190612632565b91506114f5565b6114e7818583815181106114d7576114d6612603565b5b60200260200101516000886116aa565b826114f29190612632565b91505b808061150090612688565b915050611454565b508091505092915050565b61151b611ca4565b73ffffffffffffffffffffffffffffffffffffffff1661153961159b565b73ffffffffffffffffffffffffffffffffffffffff161461158f576040517f08c379a000000000000000000000000000000000000000000000000000000000815260040161158690612954565b60405180910390fd5b6115996000611cac565b565b60008060009054906101000a900473ffffffffffffffffffffffffffffffffffffffff16905090565b600160009054906101000a900473ffffffffffffffffffffffffffffffffffffffff1681565b6115f2611ca4565b73ffffffffffffffffffffffffffffffffffffffff1661161061159b565b73ffffffffffffffffffffffffffffffffffffffff1614611666576040517f08c379a000000000000000000000000000000000000000000000000000000000815260040161165d90612954565b60405180910390fd5b80600460006101000a81548173ffffffffffffffffffffffffffffffffffffffff021916908373ffffffffffffffffffffffffffffffffffffffff16021790555050565b6000808273ffffffffffffffffffffffffffffffffffffffff16636a6d964e876040518263ffffffff1660e01b81526004016116e69190611eef565b602060405180830381865afa158015611703573d6000803e3d6000fd5b505050506040513d601f19601f8201168201806040525081019061172791906124ed565b90506000600185036117435761173c866109aa565b90506117be565b600085036117bd578573ffffffffffffffffffffffffffffffffffffffff16600160009054906101000a900473ffffffffffffffffffffffffffffffffffffffff1673ffffffffffffffffffffffffffffffffffffffff16036117b0576117a98661124d565b90506117bc565b6117b986610762565b90505b5b5b6117de60035482846117d09190612549565b611b8290919063ffffffff16565b92505050949350505050565b6000808273ffffffffffffffffffffffffffffffffffffffff16631526fe27876040518263ffffffff1660e01b81526004016118269190611eef565b60c060405180830381865afa158015611843573d6000803e3d6000fd5b505050506040513d601f19601f8201168201806040525081019061186791906124c0565b905060006119048473ffffffffffffffffffffffffffffffffffffffff166317caf6f16040518163ffffffff1660e01b8152600401602060405180830381865afa1580156118b9573d6000803e3d6000fd5b505050506040513d601f19601f820116820180604052508101906118dd91906124ed565b6118f66003548560200151611bcc90919063ffffffff16565b611b8290919063ffffffff16565b9050600061197f8573ffffffffffffffffffffffffffffffffffffffff1663141aa0ba6040518163ffffffff1660e01b8152600401602060405180830381865afa158015611956573d6000803e3d6000fd5b505050506040513d601f19601f8201168201806040525081019061197a9190612989565b610762565b90506000611a068673ffffffffffffffffffffffffffffffffffffffff1663a1eef8216040518163ffffffff1660e01b8152600401602060405180830381865afa1580156119d1573d6000803e3d6000fd5b505050506040513d601f19601f820116820180604052508101906119f591906124ed565b600554611bcc90919063ffffffff16565b90506000611a31600354611a238685611bcc90919063ffffffff16565b611b8290919063ffffffff16565b90506000611a418b8b8b8b6116aa565b9050611a7b6064611a6d83611a5f8887611bcc90919063ffffffff16565b611b8290919063ffffffff16565b611bcc90919063ffffffff16565b9650505050505050949350505050565b611a93611ca4565b73ffffffffffffffffffffffffffffffffffffffff16611ab161159b565b73ffffffffffffffffffffffffffffffffffffffff1614611b07576040517f08c379a0000000000000000000000000000000000000000000000000000000008152600401611afe90612954565b60405180910390fd5b600073ffffffffffffffffffffffffffffffffffffffff168173ffffffffffffffffffffffffffffffffffffffff1603611b76576040517f08c379a0000000000000000000000000000000000000000000000000000000008152600401611b6d90612a28565b60405180910390fd5b611b7f81611cac565b50565b6000611bc483836040518060400160405280601a81526020017f536166654d6174683a206469766973696f6e206279207a65726f000000000000815250611d70565b905092915050565b6000808303611bde5760009050611c40565b60008284611bec9190612549565b9050828482611bfb91906125d2565b14611c3b576040517f08c379a0000000000000000000000000000000000000000000000000000000008152600401611c3290612aba565b60405180910390fd5b809150505b92915050565b6000808284611c559190612632565b905083811015611c9a576040517f08c379a0000000000000000000000000000000000000000000000000000000008152600401611c9190612b26565b60405180910390fd5b8091505092915050565b600033905090565b60008060009054906101000a900473ffffffffffffffffffffffffffffffffffffffff169050816000806101000a81548173ffffffffffffffffffffffffffffffffffffffff021916908373ffffffffffffffffffffffffffffffffffffffff1602179055508173ffffffffffffffffffffffffffffffffffffffff168173ffffffffffffffffffffffffffffffffffffffff167f8be0079c531659141344cd1fd0a4f28419497f9722a3daafe3b4186f6b6457e060405160405180910390a35050565b60008083118290611db7576040517f08c379a0000000000000000000000000000000000000000000000000000000008152600401611dae9190612bbd565b60405180910390fd5b5060008385611dc691906125d2565b9050809150509392505050565b6000604051905090565b600080fd5b600080fd5b6000819050919050565b611dfa81611de7565b8114611e0557600080fd5b50565b600081359050611e1781611df1565b92915050565b600073ffffffffffffffffffffffffffffffffffffffff82169050919050565b6000611e4882611e1d565b9050919050565b6000611e5a82611e3d565b9050919050565b611e6a81611e4f565b8114611e7557600080fd5b50565b600081359050611e8781611e61565b92915050565b600080600060608486031215611ea657611ea5611ddd565b5b6000611eb486828701611e08565b9350506020611ec586828701611e08565b9250506040611ed686828701611e78565b9150509250925092565b611ee981611de7565b82525050565b6000602082019050611f046000830184611ee0565b92915050565b6000611f1582611e3d565b9050919050565b611f2581611f0a565b8114611f3057600080fd5b50565b600081359050611f4281611f1c565b92915050565b6000611f5382611e3d565b9050919050565b611f6381611f48565b8114611f6e57600080fd5b50565b600081359050611f8081611f5a565b92915050565b600080600060608486031215611f9f57611f9e611ddd565b5b6000611fad86828701611f33565b9350506020611fbe86828701611e08565b9250506040611fcf86828701611f71565b9150509250925092565b600080fd5b6000601f19601f8301169050919050565b7f4e487b7100000000000000000000000000000000000000000000000000000000600052604160045260246000fd5b61202782611fde565b810181811067ffffffffffffffff8211171561204657612045611fef565b5b80604052505050565b6000612059611dd3565b9050612065828261201e565b919050565b600067ffffffffffffffff82111561208557612084611fef565b5b602082029050602081019050919050565b600080fd5b60006120ae6120a98461206a565b61204f565b905080838252602082019050602084028301858111156120d1576120d0612096565b5b835b818110156120fa57806120e68882611f33565b8452602084019350506020810190506120d3565b5050509392505050565b600082601f83011261211957612118611fd9565b5b813561212984826020860161209b565b91505092915050565b6000806040838503121561214957612148611ddd565b5b600061215785828601611f71565b925050602083013567ffffffffffffffff81111561217857612177611de2565b5b61218485828601612104565b9150509250929050565b61219781611e3d565b81146121a257600080fd5b50565b6000813590506121b48161218e565b92915050565b6000602082840312156121d0576121cf611ddd565b5b60006121de848285016121a5565b91505092915050565b6000602082840312156121fd576121fc611ddd565b5b600061220b84828501611f33565b91505092915050565b6000819050919050565b600061223961223461222f84611e1d565b612214565b611e1d565b9050919050565b600061224b8261221e565b9050919050565b600061225d82612240565b9050919050565b61226d81612252565b82525050565b60006020820190506122886000830184612264565b92915050565b61229781611e3d565b82525050565b60006020820190506122b2600083018461228e565b92915050565b60006122c382611e3d565b9050919050565b6122d3816122b8565b81146122de57600080fd5b50565b6000813590506122f0816122ca565b92915050565b60006020828403121561230c5761230b611ddd565b5b600061231a848285016122e1565b91505092915050565b6000806000806080858703121561233d5761233c611ddd565b5b600061234b87828801611e08565b945050602061235c87828801611f33565b935050604061236d87828801611e08565b925050606061237e87828801611f71565b91505092959194509250565b600080fd5b600061239a82611e3d565b9050919050565b6123aa8161238f565b81146123b557600080fd5b50565b6000815190506123c7816123a1565b92915050565b6000815190506123dc81611df1565b92915050565b60006123ed82611e3d565b9050919050565b6123fd816123e2565b811461240857600080fd5b50565b60008151905061241a816123f4565b92915050565b600060c082840312156124365761243561238a565b5b61244060c061204f565b90506000612450848285016123b8565b6000830152506020612464848285016123cd565b6020830152506040612478848285016123cd565b604083015250606061248c848285016123cd565b60608301525060806124a08482850161240b565b60808301525060a06124b4848285016123b8565b60a08301525092915050565b600060c082840312156124d6576124d5611ddd565b5b60006124e484828501612420565b91505092915050565b60006020828403121561250357612502611ddd565b5b6000612511848285016123cd565b91505092915050565b7f4e487b7100000000000000000000000000000000000000000000000000000000600052601160045260246000fd5b600061255482611de7565b915061255f83611de7565b9250817fffffffffffffffffffffffffffffffffffffffffffffffffffffffffffffffff04831182151516156125985761259761251a565b5b828202905092915050565b7f4e487b7100000000000000000000000000000000000000000000000000000000600052601260045260246000fd5b60006125dd82611de7565b91506125e883611de7565b9250826125f8576125f76125a3565b5b828204905092915050565b7f4e487b7100000000000000000000000000000000000000000000000000000000600052603260045260246000fd5b600061263d82611de7565b915061264883611de7565b9250827fffffffffffffffffffffffffffffffffffffffffffffffffffffffffffffffff0382111561267d5761267c61251a565b5b828201905092915050565b600061269382611de7565b91507fffffffffffffffffffffffffffffffffffffffffffffffffffffffffffffffff82036126c5576126c461251a565b5b600182019050919050565b600081519050919050565b600082825260208201905092915050565b6000819050602082019050919050565b61270581611e3d565b82525050565b600061271783836126fc565b60208301905092915050565b6000602082019050919050565b600061273b826126d0565b61274581856126db565b9350612750836126ec565b8060005b83811015612781578151612768888261270b565b975061277383612723565b925050600181019050612754565b5085935050505092915050565b60006040820190506127a36000830185611ee0565b81810360208301526127b58184612730565b90509392505050565b600067ffffffffffffffff8211156127d9576127d8611fef565b5b602082029050602081019050919050565b60006127fd6127f8846127be565b61204f565b905080838252602082019050602084028301858111156128205761281f612096565b5b835b81811015612849578061283588826123cd565b845260208401935050602081019050612822565b5050509392505050565b600082601f83011261286857612867611fd9565b5b81516128788482602086016127ea565b91505092915050565b60006020828403121561289757612896611ddd565b5b600082015167ffffffffffffffff8111156128b5576128b4611de2565b5b6128c184828501612853565b91505092915050565b6000602082840312156128e0576128df611ddd565b5b60006128ee848285016123b8565b91505092915050565b600082825260208201905092915050565b7f4f776e61626c653a2063616c6c6572206973206e6f7420746865206f776e6572600082015250565b600061293e6020836128f7565b915061294982612908565b602082019050919050565b6000602082019050818103600083015261296d81612931565b9050919050565b6000815190506129838161218e565b92915050565b60006020828403121561299f5761299e611ddd565b5b60006129ad84828501612974565b91505092915050565b7f4f776e61626c653a206e6577206f776e657220697320746865207a65726f206160008201527f6464726573730000000000000000000000000000000000000000000000000000602082015250565b6000612a126026836128f7565b9150612a1d826129b6565b604082019050919050565b60006020820190508181036000830152612a4181612a05565b9050919050565b7f536166654d6174683a206d756c7469706c69636174696f6e206f766572666c6f60008201527f7700000000000000000000000000000000000000000000000000000000000000602082015250565b6000612aa46021836128f7565b9150612aaf82612a48565b604082019050919050565b60006020820190508181036000830152612ad381612a97565b9050919050565b7f536166654d6174683a206164646974696f6e206f766572666c6f770000000000600082015250565b6000612b10601b836128f7565b9150612b1b82612ada565b602082019050919050565b60006020820190508181036000830152612b3f81612b03565b9050919050565b600081519050919050565b60005b83811015612b6f578082015181840152602081019050612b54565b83811115612b7e576000848401525b50505050565b6000612b8f82612b46565b612b9981856128f7565b9350612ba9818560208601612b51565b612bb281611fde565b840191505092915050565b60006020820190508181036000830152612bd78184612b84565b90509291505056fea264697066735822122095b733ef8f06a0be394bf63a9b1c2f50cc34138966f14cd69f77cd094d1c239a64736f6c634300080f0033",
					"opcodes": "PUSH1 0x80 PUSH1 0x40 MSTORE PUSH8 0xDE0B6B3A7640000 PUSH1 0x3 SSTORE PUSH3 0xA06680 PUSH1 0x5 SSTORE CALLVALUE DUP1 ISZERO PUSH3 0x24 JUMPI PUSH1 0x0 DUP1 REVERT JUMPDEST POP PUSH1 0x40 MLOAD PUSH3 0x2F32 CODESIZE SUB DUP1 PUSH3 0x2F32 DUP4 CODECOPY DUP2 DUP2 ADD PUSH1 0x40 MSTORE DUP2 ADD SWAP1 PUSH3 0x4A SWAP2 SWAP1 PUSH3 0x2B1 JUMP JUMPDEST PUSH3 0x6A PUSH3 0x5E PUSH3 0x136 PUSH1 0x20 SHL PUSH1 0x20 SHR JUMP JUMPDEST PUSH3 0x13E PUSH1 0x20 SHL PUSH1 0x20 SHR JUMP JUMPDEST DUP3 PUSH1 0x4 PUSH1 0x0 PUSH2 0x100 EXP DUP2 SLOAD DUP2 PUSH20 0xFFFFFFFFFFFFFFFFFFFFFFFFFFFFFFFFFFFFFFFF MUL NOT AND SWAP1 DUP4 PUSH20 0xFFFFFFFFFFFFFFFFFFFFFFFFFFFFFFFFFFFFFFFF AND MUL OR SWAP1 SSTORE POP DUP2 PUSH1 0x1 PUSH1 0x0 PUSH2 0x100 EXP DUP2 SLOAD DUP2 PUSH20 0xFFFFFFFFFFFFFFFFFFFFFFFFFFFFFFFFFFFFFFFF MUL NOT AND SWAP1 DUP4 PUSH20 0xFFFFFFFFFFFFFFFFFFFFFFFFFFFFFFFFFFFFFFFF AND MUL OR SWAP1 SSTORE POP DUP1 PUSH1 0x2 PUSH1 0x0 PUSH2 0x100 EXP DUP2 SLOAD DUP2 PUSH20 0xFFFFFFFFFFFFFFFFFFFFFFFFFFFFFFFFFFFFFFFF MUL NOT AND SWAP1 DUP4 PUSH20 0xFFFFFFFFFFFFFFFFFFFFFFFFFFFFFFFFFFFFFFFF AND MUL OR SWAP1 SSTORE POP POP POP POP PUSH3 0x30D JUMP JUMPDEST PUSH1 0x0 CALLER SWAP1 POP SWAP1 JUMP JUMPDEST PUSH1 0x0 DUP1 PUSH1 0x0 SWAP1 SLOAD SWAP1 PUSH2 0x100 EXP SWAP1 DIV PUSH20 0xFFFFFFFFFFFFFFFFFFFFFFFFFFFFFFFFFFFFFFFF AND SWAP1 POP DUP2 PUSH1 0x0 DUP1 PUSH2 0x100 EXP DUP2 SLOAD DUP2 PUSH20 0xFFFFFFFFFFFFFFFFFFFFFFFFFFFFFFFFFFFFFFFF MUL NOT AND SWAP1 DUP4 PUSH20 0xFFFFFFFFFFFFFFFFFFFFFFFFFFFFFFFFFFFFFFFF AND MUL OR SWAP1 SSTORE POP DUP2 PUSH20 0xFFFFFFFFFFFFFFFFFFFFFFFFFFFFFFFFFFFFFFFF AND DUP2 PUSH20 0xFFFFFFFFFFFFFFFFFFFFFFFFFFFFFFFFFFFFFFFF AND PUSH32 0x8BE0079C531659141344CD1FD0A4F28419497F9722A3DAAFE3B4186F6B6457E0 PUSH1 0x40 MLOAD PUSH1 0x40 MLOAD DUP1 SWAP2 SUB SWAP1 LOG3 POP POP JUMP JUMPDEST PUSH1 0x0 DUP1 REVERT JUMPDEST PUSH1 0x0 PUSH20 0xFFFFFFFFFFFFFFFFFFFFFFFFFFFFFFFFFFFFFFFF DUP3 AND SWAP1 POP SWAP2 SWAP1 POP JUMP JUMPDEST PUSH1 0x0 PUSH3 0x234 DUP3 PUSH3 0x207 JUMP JUMPDEST SWAP1 POP SWAP2 SWAP1 POP JUMP JUMPDEST PUSH1 0x0 PUSH3 0x248 DUP3 PUSH3 0x227 JUMP JUMPDEST SWAP1 POP SWAP2 SWAP1 POP JUMP JUMPDEST PUSH3 0x25A DUP2 PUSH3 0x23B JUMP JUMPDEST DUP2 EQ PUSH3 0x266 JUMPI PUSH1 0x0 DUP1 REVERT JUMPDEST POP JUMP JUMPDEST PUSH1 0x0 DUP2 MLOAD SWAP1 POP PUSH3 0x27A DUP2 PUSH3 0x24F JUMP JUMPDEST SWAP3 SWAP2 POP POP JUMP JUMPDEST PUSH3 0x28B DUP2 PUSH3 0x227 JUMP JUMPDEST DUP2 EQ PUSH3 0x297 JUMPI PUSH1 0x0 DUP1 REVERT JUMPDEST POP JUMP JUMPDEST PUSH1 0x0 DUP2 MLOAD SWAP1 POP PUSH3 0x2AB DUP2 PUSH3 0x280 JUMP JUMPDEST SWAP3 SWAP2 POP POP JUMP JUMPDEST PUSH1 0x0 DUP1 PUSH1 0x0 PUSH1 0x60 DUP5 DUP7 SUB SLT ISZERO PUSH3 0x2CD JUMPI PUSH3 0x2CC PUSH3 0x202 JUMP JUMPDEST JUMPDEST PUSH1 0x0 PUSH3 0x2DD DUP7 DUP3 DUP8 ADD PUSH3 0x269 JUMP JUMPDEST SWAP4 POP POP PUSH1 0x20 PUSH3 0x2F0 DUP7 DUP3 DUP8 ADD PUSH3 0x29A JUMP JUMPDEST SWAP3 POP POP PUSH1 0x40 PUSH3 0x303 DUP7 DUP3 DUP8 ADD PUSH3 0x29A JUMP JUMPDEST SWAP2 POP POP SWAP3 POP SWAP3 POP SWAP3 JUMP JUMPDEST PUSH2 0x2C15 DUP1 PUSH3 0x31D PUSH1 0x0 CODECOPY PUSH1 0x0 RETURN INVALID PUSH1 0x80 PUSH1 0x40 MSTORE CALLVALUE DUP1 ISZERO PUSH2 0x10 JUMPI PUSH1 0x0 DUP1 REVERT JUMPDEST POP PUSH1 0x4 CALLDATASIZE LT PUSH2 0x10B JUMPI PUSH1 0x0 CALLDATALOAD PUSH1 0xE0 SHR DUP1 PUSH4 0x484F4EA9 GT PUSH2 0xA2 JUMPI DUP1 PUSH4 0x8DD95002 GT PUSH2 0x71 JUMPI DUP1 PUSH4 0x8DD95002 EQ PUSH2 0x2F4 JUMPI DUP1 PUSH4 0xC0D78655 EQ PUSH2 0x312 JUMPI DUP1 PUSH4 0xD979FB5F EQ PUSH2 0x32E JUMPI DUP1 PUSH4 0xDBB79348 EQ PUSH2 0x35E JUMPI DUP1 PUSH4 0xF2FDE38B EQ PUSH2 0x38E JUMPI PUSH2 0x10B JUMP JUMPDEST DUP1 PUSH4 0x484F4EA9 EQ PUSH2 0x27E JUMPI DUP1 PUSH4 0x55B44EAF EQ PUSH2 0x29C JUMPI DUP1 PUSH4 0x715018A6 EQ PUSH2 0x2CC JUMPI DUP1 PUSH4 0x8DA5CB5B EQ PUSH2 0x2D6 JUMPI PUSH2 0x10B JUMP JUMPDEST DUP1 PUSH4 0x215CC989 GT PUSH2 0xDE JUMPI DUP1 PUSH4 0x215CC989 EQ PUSH2 0x1D0 JUMPI DUP1 PUSH4 0x2F7C5980 EQ PUSH2 0x200 JUMPI DUP1 PUSH4 0x3268CC56 EQ PUSH2 0x230 JUMPI DUP1 PUSH4 0x3B979D45 EQ PUSH2 0x24E JUMPI PUSH2 0x10B JUMP JUMPDEST DUP1 PUSH4 0xCE0E3F5 EQ PUSH2 0x110 JUMPI DUP1 PUSH4 0x1616F124 EQ PUSH2 0x140 JUMPI DUP1 PUSH4 0x1858882B EQ PUSH2 0x170 JUMPI DUP1 PUSH4 0x19047F8A EQ PUSH2 0x1A0 JUMPI JUMPDEST PUSH1 0x0 DUP1 REVERT JUMPDEST PUSH2 0x12A PUSH1 0x4 DUP1 CALLDATASIZE SUB DUP2 ADD SWAP1 PUSH2 0x125 SWAP2 SWAP1 PUSH2 0x1E8D JUMP JUMPDEST PUSH2 0x3AA JUMP JUMPDEST PUSH1 0x40 MLOAD PUSH2 0x137 SWAP2 SWAP1 PUSH2 0x1EEF JUMP JUMPDEST PUSH1 0x40 MLOAD DUP1 SWAP2 SUB SWAP1 RETURN JUMPDEST PUSH2 0x15A PUSH1 0x4 DUP1 CALLDATASIZE SUB DUP2 ADD SWAP1 PUSH2 0x155 SWAP2 SWAP1 PUSH2 0x1F86 JUMP JUMPDEST PUSH2 0x55C JUMP JUMPDEST PUSH1 0x40 MLOAD PUSH2 0x167 SWAP2 SWAP1 PUSH2 0x1EEF JUMP JUMPDEST PUSH1 0x40 MLOAD DUP1 SWAP2 SUB SWAP1 RETURN JUMPDEST PUSH2 0x18A PUSH1 0x4 DUP1 CALLDATASIZE SUB DUP2 ADD SWAP1 PUSH2 0x185 SWAP2 SWAP1 PUSH2 0x2132 JUMP JUMPDEST PUSH2 0x69B JUMP JUMPDEST PUSH1 0x40 MLOAD PUSH2 0x197 SWAP2 SWAP1 PUSH2 0x1EEF JUMP JUMPDEST PUSH1 0x40 MLOAD DUP1 SWAP2 SUB SWAP1 RETURN JUMPDEST PUSH2 0x1BA PUSH1 0x4 DUP1 CALLDATASIZE SUB DUP2 ADD SWAP1 PUSH2 0x1B5 SWAP2 SWAP1 PUSH2 0x21BA JUMP JUMPDEST PUSH2 0x762 JUMP JUMPDEST PUSH1 0x40 MLOAD PUSH2 0x1C7 SWAP2 SWAP1 PUSH2 0x1EEF JUMP JUMPDEST PUSH1 0x40 MLOAD DUP1 SWAP2 SUB SWAP1 RETURN JUMPDEST PUSH2 0x1EA PUSH1 0x4 DUP1 CALLDATASIZE SUB DUP2 ADD SWAP1 PUSH2 0x1E5 SWAP2 SWAP1 PUSH2 0x21E7 JUMP JUMPDEST PUSH2 0x9AA JUMP JUMPDEST PUSH1 0x40 MLOAD PUSH2 0x1F7 SWAP2 SWAP1 PUSH2 0x1EEF JUMP JUMPDEST PUSH1 0x40 MLOAD DUP1 SWAP2 SUB SWAP1 RETURN JUMPDEST PUSH2 0x21A PUSH1 0x4 DUP1 CALLDATASIZE SUB DUP2 ADD SWAP1 PUSH2 0x215 SWAP2 SWAP1 PUSH2 0x21E7 JUMP JUMPDEST PUSH2 0x11A5 JUMP JUMPDEST PUSH1 0x40 MLOAD PUSH2 0x227 SWAP2 SWAP1 PUSH2 0x1EEF JUMP JUMPDEST PUSH1 0x40 MLOAD DUP1 SWAP2 SUB SWAP1 RETURN JUMPDEST PUSH2 0x238 PUSH2 0x1227 JUMP JUMPDEST PUSH1 0x40 MLOAD PUSH2 0x245 SWAP2 SWAP1 PUSH2 0x2273 JUMP JUMPDEST PUSH1 0x40 MLOAD DUP1 SWAP2 SUB SWAP1 RETURN JUMPDEST PUSH2 0x268 PUSH1 0x4 DUP1 CALLDATASIZE SUB DUP2 ADD SWAP1 PUSH2 0x263 SWAP2 SWAP1 PUSH2 0x21BA JUMP JUMPDEST PUSH2 0x124D JUMP JUMPDEST PUSH1 0x40 MLOAD PUSH2 0x275 SWAP2 SWAP1 PUSH2 0x1EEF JUMP JUMPDEST PUSH1 0x40 MLOAD DUP1 SWAP2 SUB SWAP1 RETURN JUMPDEST PUSH2 0x286 PUSH2 0x1424 JUMP JUMPDEST PUSH1 0x40 MLOAD PUSH2 0x293 SWAP2 SWAP1 PUSH2 0x229D JUMP JUMPDEST PUSH1 0x40 MLOAD DUP1 SWAP2 SUB SWAP1 RETURN JUMPDEST PUSH2 0x2B6 PUSH1 0x4 DUP1 CALLDATASIZE SUB DUP2 ADD SWAP1 PUSH2 0x2B1 SWAP2 SWAP1 PUSH2 0x2132 JUMP JUMPDEST PUSH2 0x144A JUMP JUMPDEST PUSH1 0x40 MLOAD PUSH2 0x2C3 SWAP2 SWAP1 PUSH2 0x1EEF JUMP JUMPDEST PUSH1 0x40 MLOAD DUP1 SWAP2 SUB SWAP1 RETURN JUMPDEST PUSH2 0x2D4 PUSH2 0x1513 JUMP JUMPDEST STOP JUMPDEST PUSH2 0x2DE PUSH2 0x159B JUMP JUMPDEST PUSH1 0x40 MLOAD PUSH2 0x2EB SWAP2 SWAP1 PUSH2 0x229D JUMP JUMPDEST PUSH1 0x40 MLOAD DUP1 SWAP2 SUB SWAP1 RETURN JUMPDEST PUSH2 0x2FC PUSH2 0x15C4 JUMP JUMPDEST PUSH1 0x40 MLOAD PUSH2 0x309 SWAP2 SWAP1 PUSH2 0x229D JUMP JUMPDEST PUSH1 0x40 MLOAD DUP1 SWAP2 SUB SWAP1 RETURN JUMPDEST PUSH2 0x32C PUSH1 0x4 DUP1 CALLDATASIZE SUB DUP2 ADD SWAP1 PUSH2 0x327 SWAP2 SWAP1 PUSH2 0x22F6 JUMP JUMPDEST PUSH2 0x15EA JUMP JUMPDEST STOP JUMPDEST PUSH2 0x348 PUSH1 0x4 DUP1 CALLDATASIZE SUB DUP2 ADD SWAP1 PUSH2 0x343 SWAP2 SWAP1 PUSH2 0x2323 JUMP JUMPDEST PUSH2 0x16AA JUMP JUMPDEST PUSH1 0x40 MLOAD PUSH2 0x355 SWAP2 SWAP1 PUSH2 0x1EEF JUMP JUMPDEST PUSH1 0x40 MLOAD DUP1 SWAP2 SUB SWAP1 RETURN JUMPDEST PUSH2 0x378 PUSH1 0x4 DUP1 CALLDATASIZE SUB DUP2 ADD SWAP1 PUSH2 0x373 SWAP2 SWAP1 PUSH2 0x2323 JUMP JUMPDEST PUSH2 0x17EA JUMP JUMPDEST PUSH1 0x40 MLOAD PUSH2 0x385 SWAP2 SWAP1 PUSH2 0x1EEF JUMP JUMPDEST PUSH1 0x40 MLOAD DUP1 SWAP2 SUB SWAP1 RETURN JUMPDEST PUSH2 0x3A8 PUSH1 0x4 DUP1 CALLDATASIZE SUB DUP2 ADD SWAP1 PUSH2 0x3A3 SWAP2 SWAP1 PUSH2 0x21BA JUMP JUMPDEST PUSH2 0x1A8B JUMP JUMPDEST STOP JUMPDEST PUSH1 0x0 DUP1 DUP3 PUSH20 0xFFFFFFFFFFFFFFFFFFFFFFFFFFFFFFFFFFFFFFFF AND PUSH4 0x1526FE27 DUP7 PUSH1 0x40 MLOAD DUP3 PUSH4 0xFFFFFFFF AND PUSH1 0xE0 SHL DUP2 MSTORE PUSH1 0x4 ADD PUSH2 0x3E6 SWAP2 SWAP1 PUSH2 0x1EEF JUMP JUMPDEST PUSH1 0xC0 PUSH1 0x40 MLOAD DUP1 DUP4 SUB DUP2 DUP7 GAS STATICCALL ISZERO DUP1 ISZERO PUSH2 0x403 JUMPI RETURNDATASIZE PUSH1 0x0 DUP1 RETURNDATACOPY RETURNDATASIZE PUSH1 0x0 REVERT JUMPDEST POP POP POP POP PUSH1 0x40 MLOAD RETURNDATASIZE PUSH1 0x1F NOT PUSH1 0x1F DUP3 ADD AND DUP3 ADD DUP1 PUSH1 0x40 MSTORE POP DUP2 ADD SWAP1 PUSH2 0x427 SWAP2 SWAP1 PUSH2 0x24C0 JUMP JUMPDEST SWAP1 POP PUSH1 0x0 DUP2 PUSH1 0x20 ADD MLOAD SWAP1 POP PUSH1 0x0 DUP5 PUSH20 0xFFFFFFFFFFFFFFFFFFFFFFFFFFFFFFFFFFFFFFFF AND PUSH4 0x17CAF6F1 PUSH1 0x40 MLOAD DUP2 PUSH4 0xFFFFFFFF AND PUSH1 0xE0 SHL DUP2 MSTORE PUSH1 0x4 ADD PUSH1 0x20 PUSH1 0x40 MLOAD DUP1 DUP4 SUB DUP2 DUP7 GAS STATICCALL ISZERO DUP1 ISZERO PUSH2 0x47F JUMPI RETURNDATASIZE PUSH1 0x0 DUP1 RETURNDATACOPY RETURNDATASIZE PUSH1 0x0 REVERT JUMPDEST POP POP POP POP PUSH1 0x40 MLOAD RETURNDATASIZE PUSH1 0x1F NOT PUSH1 0x1F DUP3 ADD AND DUP3 ADD DUP1 PUSH1 0x40 MSTORE POP DUP2 ADD SWAP1 PUSH2 0x4A3 SWAP2 SWAP1 PUSH2 0x24ED JUMP JUMPDEST SWAP1 POP PUSH1 0x0 DUP6 PUSH20 0xFFFFFFFFFFFFFFFFFFFFFFFFFFFFFFFFFFFFFFFF AND PUSH4 0x5990C569 PUSH1 0x40 MLOAD DUP2 PUSH4 0xFFFFFFFF AND PUSH1 0xE0 SHL DUP2 MSTORE PUSH1 0x4 ADD PUSH1 0x20 PUSH1 0x40 MLOAD DUP1 DUP4 SUB DUP2 DUP7 GAS STATICCALL ISZERO DUP1 ISZERO PUSH2 0x4F2 JUMPI RETURNDATASIZE PUSH1 0x0 DUP1 RETURNDATACOPY RETURNDATASIZE PUSH1 0x0 REVERT JUMPDEST POP POP POP POP PUSH1 0x40 MLOAD RETURNDATASIZE PUSH1 0x1F NOT PUSH1 0x1F DUP3 ADD AND DUP3 ADD DUP1 PUSH1 0x40 MSTORE POP DUP2 ADD SWAP1 PUSH2 0x516 SWAP2 SWAP1 PUSH2 0x24ED JUMP JUMPDEST SWAP1 POP PUSH1 0x0 PUSH2 0x16D DUP3 PUSH1 0x5 SLOAD PUSH2 0x52B SWAP2 SWAP1 PUSH2 0x2549 JUMP JUMPDEST PUSH2 0x535 SWAP2 SWAP1 PUSH2 0x25D2 JUMP JUMPDEST SWAP1 POP DUP3 DUP5 DUP3 PUSH2 0x544 SWAP2 SWAP1 PUSH2 0x2549 JUMP JUMPDEST PUSH2 0x54E SWAP2 SWAP1 PUSH2 0x25D2 JUMP JUMPDEST SWAP6 POP POP POP POP POP POP SWAP4 SWAP3 POP POP POP JUMP JUMPDEST PUSH1 0x0 DUP1 DUP5 PUSH20 0xFFFFFFFFFFFFFFFFFFFFFFFFFFFFFFFFFFFFFFFF AND PUSH4 0x70A08231 DUP5 PUSH1 0x40 MLOAD DUP3 PUSH4 0xFFFFFFFF AND PUSH1 0xE0 SHL DUP2 MSTORE PUSH1 0x4 ADD PUSH2 0x598 SWAP2 SWAP1 PUSH2 0x229D JUMP JUMPDEST PUSH1 0x20 PUSH1 0x40 MLOAD DUP1 DUP4 SUB DUP2 DUP7 GAS STATICCALL ISZERO DUP1 ISZERO PUSH2 0x5B5 JUMPI RETURNDATASIZE PUSH1 0x0 DUP1 RETURNDATACOPY RETURNDATASIZE PUSH1 0x0 REVERT JUMPDEST POP POP POP POP PUSH1 0x40 MLOAD RETURNDATASIZE PUSH1 0x1F NOT PUSH1 0x1F DUP3 ADD AND DUP3 ADD DUP1 PUSH1 0x40 MSTORE POP DUP2 ADD SWAP1 PUSH2 0x5D9 SWAP2 SWAP1 PUSH2 0x24ED JUMP JUMPDEST SWAP1 POP PUSH1 0x0 PUSH1 0x1 DUP6 SUB PUSH2 0x5F5 JUMPI PUSH2 0x5EE DUP7 PUSH2 0x9AA JUMP JUMPDEST SWAP1 POP PUSH2 0x670 JUMP JUMPDEST PUSH1 0x0 DUP6 SUB PUSH2 0x66F JUMPI DUP6 PUSH20 0xFFFFFFFFFFFFFFFFFFFFFFFFFFFFFFFFFFFFFFFF AND PUSH1 0x1 PUSH1 0x0 SWAP1 SLOAD SWAP1 PUSH2 0x100 EXP SWAP1 DIV PUSH20 0xFFFFFFFFFFFFFFFFFFFFFFFFFFFFFFFFFFFFFFFF AND PUSH20 0xFFFFFFFFFFFFFFFFFFFFFFFFFFFFFFFFFFFFFFFF AND SUB PUSH2 0x662 JUMPI PUSH2 0x65B DUP7 PUSH2 0x124D JUMP JUMPDEST SWAP1 POP PUSH2 0x66E JUMP JUMPDEST PUSH2 0x66B DUP7 PUSH2 0x762 JUMP JUMPDEST SWAP1 POP JUMPDEST JUMPDEST JUMPDEST PUSH2 0x690 PUSH1 0x3 SLOAD DUP3 DUP5 PUSH2 0x682 SWAP2 SWAP1 PUSH2 0x2549 JUMP JUMPDEST PUSH2 0x1B82 SWAP1 SWAP2 SWAP1 PUSH4 0xFFFFFFFF AND JUMP JUMPDEST SWAP3 POP POP POP SWAP4 SWAP3 POP POP POP JUMP JUMPDEST PUSH1 0x0 DUP1 PUSH1 0x0 SWAP1 POP PUSH1 0x0 JUMPDEST DUP4 MLOAD DUP2 LT ISZERO PUSH2 0x757 JUMPI PUSH1 0x1 PUSH2 0x6D3 DUP6 DUP4 DUP2 MLOAD DUP2 LT PUSH2 0x6C6 JUMPI PUSH2 0x6C5 PUSH2 0x2603 JUMP JUMPDEST JUMPDEST PUSH1 0x20 MUL PUSH1 0x20 ADD ADD MLOAD PUSH2 0x11A5 JUMP JUMPDEST SUB PUSH2 0x710 JUMPI PUSH2 0x6FE DUP5 DUP3 DUP2 MLOAD DUP2 LT PUSH2 0x6EE JUMPI PUSH2 0x6ED PUSH2 0x2603 JUMP JUMPDEST JUMPDEST PUSH1 0x20 MUL PUSH1 0x20 ADD ADD MLOAD PUSH1 0x1 DUP8 PUSH2 0x55C JUMP JUMPDEST DUP3 PUSH2 0x709 SWAP2 SWAP1 PUSH2 0x2632 JUMP JUMPDEST SWAP2 POP PUSH2 0x744 JUMP JUMPDEST PUSH2 0x736 DUP5 DUP3 DUP2 MLOAD DUP2 LT PUSH2 0x726 JUMPI PUSH2 0x725 PUSH2 0x2603 JUMP JUMPDEST JUMPDEST PUSH1 0x20 MUL PUSH1 0x20 ADD ADD MLOAD PUSH1 0x0 DUP8 PUSH2 0x55C JUMP JUMPDEST DUP3 PUSH2 0x741 SWAP2 SWAP1 PUSH2 0x2632 JUMP JUMPDEST SWAP2 POP JUMPDEST DUP1 DUP1 PUSH2 0x74F SWAP1 PUSH2 0x2688 JUMP JUMPDEST SWAP2 POP POP PUSH2 0x6A5 JUMP JUMPDEST POP DUP1 SWAP2 POP POP SWAP3 SWAP2 POP POP JUMP JUMPDEST PUSH1 0x0 DUP1 PUSH1 0x3 PUSH8 0xFFFFFFFFFFFFFFFF DUP2 GT ISZERO PUSH2 0x780 JUMPI PUSH2 0x77F PUSH2 0x1FEF JUMP JUMPDEST JUMPDEST PUSH1 0x40 MLOAD SWAP1 DUP1 DUP3 MSTORE DUP1 PUSH1 0x20 MUL PUSH1 0x20 ADD DUP3 ADD PUSH1 0x40 MSTORE DUP1 ISZERO PUSH2 0x7AE JUMPI DUP2 PUSH1 0x20 ADD PUSH1 0x20 DUP3 MUL DUP1 CALLDATASIZE DUP4 CALLDATACOPY DUP1 DUP3 ADD SWAP2 POP POP SWAP1 POP JUMPDEST POP SWAP1 POP DUP3 DUP2 PUSH1 0x0 DUP2 MLOAD DUP2 LT PUSH2 0x7C6 JUMPI PUSH2 0x7C5 PUSH2 0x2603 JUMP JUMPDEST JUMPDEST PUSH1 0x20 MUL PUSH1 0x20 ADD ADD SWAP1 PUSH20 0xFFFFFFFFFFFFFFFFFFFFFFFFFFFFFFFFFFFFFFFF AND SWAP1 DUP2 PUSH20 0xFFFFFFFFFFFFFFFFFFFFFFFFFFFFFFFFFFFFFFFF AND DUP2 MSTORE POP POP PUSH1 0x1 PUSH1 0x0 SWAP1 SLOAD SWAP1 PUSH2 0x100 EXP SWAP1 DIV PUSH20 0xFFFFFFFFFFFFFFFFFFFFFFFFFFFFFFFFFFFFFFFF AND DUP2 PUSH1 0x1 DUP2 MLOAD DUP2 LT PUSH2 0x837 JUMPI PUSH2 0x836 PUSH2 0x2603 JUMP JUMPDEST JUMPDEST PUSH1 0x20 MUL PUSH1 0x20 ADD ADD SWAP1 PUSH20 0xFFFFFFFFFFFFFFFFFFFFFFFFFFFFFFFFFFFFFFFF AND SWAP1 DUP2 PUSH20 0xFFFFFFFFFFFFFFFFFFFFFFFFFFFFFFFFFFFFFFFF AND DUP2 MSTORE POP POP PUSH1 0x2 PUSH1 0x0 SWAP1 SLOAD SWAP1 PUSH2 0x100 EXP SWAP1 DIV PUSH20 0xFFFFFFFFFFFFFFFFFFFFFFFFFFFFFFFFFFFFFFFF AND DUP2 PUSH1 0x2 DUP2 MLOAD DUP2 LT PUSH2 0x8A8 JUMPI PUSH2 0x8A7 PUSH2 0x2603 JUMP JUMPDEST JUMPDEST PUSH1 0x20 MUL PUSH1 0x20 ADD ADD SWAP1 PUSH20 0xFFFFFFFFFFFFFFFFFFFFFFFFFFFFFFFFFFFFFFFF AND SWAP1 DUP2 PUSH20 0xFFFFFFFFFFFFFFFFFFFFFFFFFFFFFFFFFFFFFFFF AND DUP2 MSTORE POP POP PUSH1 0x4 PUSH1 0x0 SWAP1 SLOAD SWAP1 PUSH2 0x100 EXP SWAP1 DIV PUSH20 0xFFFFFFFFFFFFFFFFFFFFFFFFFFFFFFFFFFFFFFFF AND PUSH20 0xFFFFFFFFFFFFFFFFFFFFFFFFFFFFFFFFFFFFFFFF AND PUSH4 0xD06CA61F PUSH1 0x3 SLOAD DUP4 PUSH1 0x40 MLOAD DUP4 PUSH4 0xFFFFFFFF AND PUSH1 0xE0 SHL DUP2 MSTORE PUSH1 0x4 ADD PUSH2 0x941 SWAP3 SWAP2 SWAP1 PUSH2 0x278E JUMP JUMPDEST PUSH1 0x0 PUSH1 0x40 MLOAD DUP1 DUP4 SUB DUP2 DUP7 GAS STATICCALL ISZERO DUP1 ISZERO PUSH2 0x95E JUMPI RETURNDATASIZE PUSH1 0x0 DUP1 RETURNDATACOPY RETURNDATASIZE PUSH1 0x0 REVERT JUMPDEST POP POP POP POP PUSH1 0x40 MLOAD RETURNDATASIZE PUSH1 0x0 DUP3 RETURNDATACOPY RETURNDATASIZE PUSH1 0x1F NOT PUSH1 0x1F DUP3 ADD AND DUP3 ADD DUP1 PUSH1 0x40 MSTORE POP DUP2 ADD SWAP1 PUSH2 0x987 SWAP2 SWAP1 PUSH2 0x2881 JUMP JUMPDEST PUSH1 0x2 DUP2 MLOAD DUP2 LT PUSH2 0x99A JUMPI PUSH2 0x999 PUSH2 0x2603 JUMP JUMPDEST JUMPDEST PUSH1 0x20 MUL PUSH1 0x20 ADD ADD MLOAD SWAP2 POP POP SWAP2 SWAP1 POP JUMP JUMPDEST PUSH1 0x0 DUP1 PUSH1 0x0 DUP4 PUSH20 0xFFFFFFFFFFFFFFFFFFFFFFFFFFFFFFFFFFFFFFFF AND PUSH4 0xDFE1681 PUSH1 0x40 MLOAD DUP2 PUSH4 0xFFFFFFFF AND PUSH1 0xE0 SHL DUP2 MSTORE PUSH1 0x4 ADD PUSH1 0x20 PUSH1 0x40 MLOAD DUP1 DUP4 SUB DUP2 DUP7 GAS STATICCALL ISZERO DUP1 ISZERO PUSH2 0x9FA JUMPI RETURNDATASIZE PUSH1 0x0 DUP1 RETURNDATACOPY RETURNDATASIZE PUSH1 0x0 REVERT JUMPDEST POP POP POP POP PUSH1 0x40 MLOAD RETURNDATASIZE PUSH1 0x1F NOT PUSH1 0x1F DUP3 ADD AND DUP3 ADD DUP1 PUSH1 0x40 MSTORE POP DUP2 ADD SWAP1 PUSH2 0xA1E SWAP2 SWAP1 PUSH2 0x28CA JUMP JUMPDEST PUSH20 0xFFFFFFFFFFFFFFFFFFFFFFFFFFFFFFFFFFFFFFFF AND PUSH1 0x1 PUSH1 0x0 SWAP1 SLOAD SWAP1 PUSH2 0x100 EXP SWAP1 DIV PUSH20 0xFFFFFFFFFFFFFFFFFFFFFFFFFFFFFFFFFFFFFFFF AND PUSH20 0xFFFFFFFFFFFFFFFFFFFFFFFFFFFFFFFFFFFFFFFF AND SUB PUSH2 0xBE9 JUMPI PUSH2 0xBE2 PUSH2 0xAEC DUP6 PUSH20 0xFFFFFFFFFFFFFFFFFFFFFFFFFFFFFFFFFFFFFFFF AND PUSH4 0xDFE1681 PUSH1 0x40 MLOAD DUP2 PUSH4 0xFFFFFFFF AND PUSH1 0xE0 SHL DUP2 MSTORE PUSH1 0x4 ADD PUSH1 0x20 PUSH1 0x40 MLOAD DUP1 DUP4 SUB DUP2 DUP7 GAS STATICCALL ISZERO DUP1 ISZERO PUSH2 0xAC3 JUMPI RETURNDATASIZE PUSH1 0x0 DUP1 RETURNDATACOPY RETURNDATASIZE PUSH1 0x0 REVERT JUMPDEST POP POP POP POP PUSH1 0x40 MLOAD RETURNDATASIZE PUSH1 0x1F NOT PUSH1 0x1F DUP3 ADD AND DUP3 ADD DUP1 PUSH1 0x40 MSTORE POP DUP2 ADD SWAP1 PUSH2 0xAE7 SWAP2 SWAP1 PUSH2 0x28CA JUMP JUMPDEST PUSH2 0x124D JUMP JUMPDEST DUP6 PUSH20 0xFFFFFFFFFFFFFFFFFFFFFFFFFFFFFFFFFFFFFFFF AND PUSH4 0xDFE1681 PUSH1 0x40 MLOAD DUP2 PUSH4 0xFFFFFFFF AND PUSH1 0xE0 SHL DUP2 MSTORE PUSH1 0x4 ADD PUSH1 0x20 PUSH1 0x40 MLOAD DUP1 DUP4 SUB DUP2 DUP7 GAS STATICCALL ISZERO DUP1 ISZERO PUSH2 0xB37 JUMPI RETURNDATASIZE PUSH1 0x0 DUP1 RETURNDATACOPY RETURNDATASIZE PUSH1 0x0 REVERT JUMPDEST POP POP POP POP PUSH1 0x40 MLOAD RETURNDATASIZE PUSH1 0x1F NOT PUSH1 0x1F DUP3 ADD AND DUP3 ADD DUP1 PUSH1 0x40 MSTORE POP DUP2 ADD SWAP1 PUSH2 0xB5B SWAP2 SWAP1 PUSH2 0x28CA JUMP JUMPDEST PUSH20 0xFFFFFFFFFFFFFFFFFFFFFFFFFFFFFFFFFFFFFFFF AND PUSH4 0x70A08231 DUP8 PUSH1 0x40 MLOAD DUP3 PUSH4 0xFFFFFFFF AND PUSH1 0xE0 SHL DUP2 MSTORE PUSH1 0x4 ADD PUSH2 0xB93 SWAP2 SWAP1 PUSH2 0x229D JUMP JUMPDEST PUSH1 0x20 PUSH1 0x40 MLOAD DUP1 DUP4 SUB DUP2 DUP7 GAS STATICCALL ISZERO DUP1 ISZERO PUSH2 0xBB0 JUMPI RETURNDATASIZE PUSH1 0x0 DUP1 RETURNDATACOPY RETURNDATASIZE PUSH1 0x0 REVERT JUMPDEST POP POP POP POP PUSH1 0x40 MLOAD RETURNDATASIZE PUSH1 0x1F NOT PUSH1 0x1F DUP3 ADD AND DUP3 ADD DUP1 PUSH1 0x40 MSTORE POP DUP2 ADD SWAP1 PUSH2 0xBD4 SWAP2 SWAP1 PUSH2 0x24ED JUMP JUMPDEST PUSH2 0x1BCC SWAP1 SWAP2 SWAP1 PUSH4 0xFFFFFFFF AND JUMP JUMPDEST SWAP2 POP PUSH2 0xD5C JUMP JUMPDEST PUSH2 0xD59 PUSH2 0xC63 DUP6 PUSH20 0xFFFFFFFFFFFFFFFFFFFFFFFFFFFFFFFFFFFFFFFF AND PUSH4 0xDFE1681 PUSH1 0x40 MLOAD DUP2 PUSH4 0xFFFFFFFF AND PUSH1 0xE0 SHL DUP2 MSTORE PUSH1 0x4 ADD PUSH1 0x20 PUSH1 0x40 MLOAD DUP1 DUP4 SUB DUP2 DUP7 GAS STATICCALL ISZERO DUP1 ISZERO PUSH2 0xC3A JUMPI RETURNDATASIZE PUSH1 0x0 DUP1 RETURNDATACOPY RETURNDATASIZE PUSH1 0x0 REVERT JUMPDEST POP POP POP POP PUSH1 0x40 MLOAD RETURNDATASIZE PUSH1 0x1F NOT PUSH1 0x1F DUP3 ADD AND DUP3 ADD DUP1 PUSH1 0x40 MSTORE POP DUP2 ADD SWAP1 PUSH2 0xC5E SWAP2 SWAP1 PUSH2 0x28CA JUMP JUMPDEST PUSH2 0x762 JUMP JUMPDEST DUP6 PUSH20 0xFFFFFFFFFFFFFFFFFFFFFFFFFFFFFFFFFFFFFFFF AND PUSH4 0xDFE1681 PUSH1 0x40 MLOAD DUP2 PUSH4 0xFFFFFFFF AND PUSH1 0xE0 SHL DUP2 MSTORE PUSH1 0x4 ADD PUSH1 0x20 PUSH1 0x40 MLOAD DUP1 DUP4 SUB DUP2 DUP7 GAS STATICCALL ISZERO DUP1 ISZERO PUSH2 0xCAE JUMPI RETURNDATASIZE PUSH1 0x0 DUP1 RETURNDATACOPY RETURNDATASIZE PUSH1 0x0 REVERT JUMPDEST POP POP POP POP PUSH1 0x40 MLOAD RETURNDATASIZE PUSH1 0x1F NOT PUSH1 0x1F DUP3 ADD AND DUP3 ADD DUP1 PUSH1 0x40 MSTORE POP DUP2 ADD SWAP1 PUSH2 0xCD2 SWAP2 SWAP1 PUSH2 0x28CA JUMP JUMPDEST PUSH20 0xFFFFFFFFFFFFFFFFFFFFFFFFFFFFFFFFFFFFFFFF AND PUSH4 0x70A08231 DUP8 PUSH1 0x40 MLOAD DUP3 PUSH4 0xFFFFFFFF AND PUSH1 0xE0 SHL DUP2 MSTORE PUSH1 0x4 ADD PUSH2 0xD0A SWAP2 SWAP1 PUSH2 0x229D JUMP JUMPDEST PUSH1 0x20 PUSH1 0x40 MLOAD DUP1 DUP4 SUB DUP2 DUP7 GAS STATICCALL ISZERO DUP1 ISZERO PUSH2 0xD27 JUMPI RETURNDATASIZE PUSH1 0x0 DUP1 RETURNDATACOPY RETURNDATASIZE PUSH1 0x0 REVERT JUMPDEST POP POP POP POP PUSH1 0x40 MLOAD RETURNDATASIZE PUSH1 0x1F NOT PUSH1 0x1F DUP3 ADD AND DUP3 ADD DUP1 PUSH1 0x40 MSTORE POP DUP2 ADD SWAP1 PUSH2 0xD4B SWAP2 SWAP1 PUSH2 0x24ED JUMP JUMPDEST PUSH2 0x1BCC SWAP1 SWAP2 SWAP1 PUSH4 0xFFFFFFFF AND JUMP JUMPDEST SWAP2 POP JUMPDEST DUP4 PUSH20 0xFFFFFFFFFFFFFFFFFFFFFFFFFFFFFFFFFFFFFFFF AND PUSH4 0xD21220A7 PUSH1 0x40 MLOAD DUP2 PUSH4 0xFFFFFFFF AND PUSH1 0xE0 SHL DUP2 MSTORE PUSH1 0x4 ADD PUSH1 0x20 PUSH1 0x40 MLOAD DUP1 DUP4 SUB DUP2 DUP7 GAS STATICCALL ISZERO DUP1 ISZERO PUSH2 0xDA7 JUMPI RETURNDATASIZE PUSH1 0x0 DUP1 RETURNDATACOPY RETURNDATASIZE PUSH1 0x0 REVERT JUMPDEST POP POP POP POP PUSH1 0x40 MLOAD RETURNDATASIZE PUSH1 0x1F NOT PUSH1 0x1F DUP3 ADD AND DUP3 ADD DUP1 PUSH1 0x40 MSTORE POP DUP2 ADD SWAP1 PUSH2 0xDCB SWAP2 SWAP1 PUSH2 0x28CA JUMP JUMPDEST PUSH20 0xFFFFFFFFFFFFFFFFFFFFFFFFFFFFFFFFFFFFFFFF AND PUSH1 0x1 PUSH1 0x0 SWAP1 SLOAD SWAP1 PUSH2 0x100 EXP SWAP1 DIV PUSH20 0xFFFFFFFFFFFFFFFFFFFFFFFFFFFFFFFFFFFFFFFF AND PUSH20 0xFFFFFFFFFFFFFFFFFFFFFFFFFFFFFFFFFFFFFFFF AND SUB PUSH2 0xF96 JUMPI PUSH2 0xF8F PUSH2 0xE99 DUP6 PUSH20 0xFFFFFFFFFFFFFFFFFFFFFFFFFFFFFFFFFFFFFFFF AND PUSH4 0xD21220A7 PUSH1 0x40 MLOAD DUP2 PUSH4 0xFFFFFFFF AND PUSH1 0xE0 SHL DUP2 MSTORE PUSH1 0x4 ADD PUSH1 0x20 PUSH1 0x40 MLOAD DUP1 DUP4 SUB DUP2 DUP7 GAS STATICCALL ISZERO DUP1 ISZERO PUSH2 0xE70 JUMPI RETURNDATASIZE PUSH1 0x0 DUP1 RETURNDATACOPY RETURNDATASIZE PUSH1 0x0 REVERT JUMPDEST POP POP POP POP PUSH1 0x40 MLOAD RETURNDATASIZE PUSH1 0x1F NOT PUSH1 0x1F DUP3 ADD AND DUP3 ADD DUP1 PUSH1 0x40 MSTORE POP DUP2 ADD SWAP1 PUSH2 0xE94 SWAP2 SWAP1 PUSH2 0x28CA JUMP JUMPDEST PUSH2 0x124D JUMP JUMPDEST DUP6 PUSH20 0xFFFFFFFFFFFFFFFFFFFFFFFFFFFFFFFFFFFFFFFF AND PUSH4 0xD21220A7 PUSH1 0x40 MLOAD DUP2 PUSH4 0xFFFFFFFF AND PUSH1 0xE0 SHL DUP2 MSTORE PUSH1 0x4 ADD PUSH1 0x20 PUSH1 0x40 MLOAD DUP1 DUP4 SUB DUP2 DUP7 GAS STATICCALL ISZERO DUP1 ISZERO PUSH2 0xEE4 JUMPI RETURNDATASIZE PUSH1 0x0 DUP1 RETURNDATACOPY RETURNDATASIZE PUSH1 0x0 REVERT JUMPDEST POP POP POP POP PUSH1 0x40 MLOAD RETURNDATASIZE PUSH1 0x1F NOT PUSH1 0x1F DUP3 ADD AND DUP3 ADD DUP1 PUSH1 0x40 MSTORE POP DUP2 ADD SWAP1 PUSH2 0xF08 SWAP2 SWAP1 PUSH2 0x28CA JUMP JUMPDEST PUSH20 0xFFFFFFFFFFFFFFFFFFFFFFFFFFFFFFFFFFFFFFFF AND PUSH4 0x70A08231 DUP8 PUSH1 0x40 MLOAD DUP3 PUSH4 0xFFFFFFFF AND PUSH1 0xE0 SHL DUP2 MSTORE PUSH1 0x4 ADD PUSH2 0xF40 SWAP2 SWAP1 PUSH2 0x229D JUMP JUMPDEST PUSH1 0x20 PUSH1 0x40 MLOAD DUP1 DUP4 SUB DUP2 DUP7 GAS STATICCALL ISZERO DUP1 ISZERO PUSH2 0xF5D JUMPI RETURNDATASIZE PUSH1 0x0 DUP1 RETURNDATACOPY RETURNDATASIZE PUSH1 0x0 REVERT JUMPDEST POP POP POP POP PUSH1 0x40 MLOAD RETURNDATASIZE PUSH1 0x1F NOT PUSH1 0x1F DUP3 ADD AND DUP3 ADD DUP1 PUSH1 0x40 MSTORE POP DUP2 ADD SWAP1 PUSH2 0xF81 SWAP2 SWAP1 PUSH2 0x24ED JUMP JUMPDEST PUSH2 0x1BCC SWAP1 SWAP2 SWAP1 PUSH4 0xFFFFFFFF AND JUMP JUMPDEST SWAP1 POP PUSH2 0x1109 JUMP JUMPDEST PUSH2 0x1106 PUSH2 0x1010 DUP6 PUSH20 0xFFFFFFFFFFFFFFFFFFFFFFFFFFFFFFFFFFFFFFFF AND PUSH4 0xD21220A7 PUSH1 0x40 MLOAD DUP2 PUSH4 0xFFFFFFFF AND PUSH1 0xE0 SHL DUP2 MSTORE PUSH1 0x4 ADD PUSH1 0x20 PUSH1 0x40 MLOAD DUP1 DUP4 SUB DUP2 DUP7 GAS STATICCALL ISZERO DUP1 ISZERO PUSH2 0xFE7 JUMPI RETURNDATASIZE PUSH1 0x0 DUP1 RETURNDATACOPY RETURNDATASIZE PUSH1 0x0 REVERT JUMPDEST POP POP POP POP PUSH1 0x40 MLOAD RETURNDATASIZE PUSH1 0x1F NOT PUSH1 0x1F DUP3 ADD AND DUP3 ADD DUP1 PUSH1 0x40 MSTORE POP DUP2 ADD SWAP1 PUSH2 0x100B SWAP2 SWAP1 PUSH2 0x28CA JUMP JUMPDEST PUSH2 0x762 JUMP JUMPDEST DUP6 PUSH20 0xFFFFFFFFFFFFFFFFFFFFFFFFFFFFFFFFFFFFFFFF AND PUSH4 0xD21220A7 PUSH1 0x40 MLOAD DUP2 PUSH4 0xFFFFFFFF AND PUSH1 0xE0 SHL DUP2 MSTORE PUSH1 0x4 ADD PUSH1 0x20 PUSH1 0x40 MLOAD DUP1 DUP4 SUB DUP2 DUP7 GAS STATICCALL ISZERO DUP1 ISZERO PUSH2 0x105B JUMPI RETURNDATASIZE PUSH1 0x0 DUP1 RETURNDATACOPY RETURNDATASIZE PUSH1 0x0 REVERT JUMPDEST POP POP POP POP PUSH1 0x40 MLOAD RETURNDATASIZE PUSH1 0x1F NOT PUSH1 0x1F DUP3 ADD AND DUP3 ADD DUP1 PUSH1 0x40 MSTORE POP DUP2 ADD SWAP1 PUSH2 0x107F SWAP2 SWAP1 PUSH2 0x28CA JUMP JUMPDEST PUSH20 0xFFFFFFFFFFFFFFFFFFFFFFFFFFFFFFFFFFFFFFFF AND PUSH4 0x70A08231 DUP8 PUSH1 0x40 MLOAD DUP3 PUSH4 0xFFFFFFFF AND PUSH1 0xE0 SHL DUP2 MSTORE PUSH1 0x4 ADD PUSH2 0x10B7 SWAP2 SWAP1 PUSH2 0x229D JUMP JUMPDEST PUSH1 0x20 PUSH1 0x40 MLOAD DUP1 DUP4 SUB DUP2 DUP7 GAS STATICCALL ISZERO DUP1 ISZERO PUSH2 0x10D4 JUMPI RETURNDATASIZE PUSH1 0x0 DUP1 RETURNDATACOPY RETURNDATASIZE PUSH1 0x0 REVERT JUMPDEST POP POP POP POP PUSH1 0x40 MLOAD RETURNDATASIZE PUSH1 0x1F NOT PUSH1 0x1F DUP3 ADD AND DUP3 ADD DUP1 PUSH1 0x40 MSTORE POP DUP2 ADD SWAP1 PUSH2 0x10F8 SWAP2 SWAP1 PUSH2 0x24ED JUMP JUMPDEST PUSH2 0x1BCC SWAP1 SWAP2 SWAP1 PUSH4 0xFFFFFFFF AND JUMP JUMPDEST SWAP1 POP JUMPDEST PUSH2 0x119C DUP5 PUSH20 0xFFFFFFFFFFFFFFFFFFFFFFFFFFFFFFFFFFFFFFFF AND PUSH4 0x18160DDD PUSH1 0x40 MLOAD DUP2 PUSH4 0xFFFFFFFF AND PUSH1 0xE0 SHL DUP2 MSTORE PUSH1 0x4 ADD PUSH1 0x20 PUSH1 0x40 MLOAD DUP1 DUP4 SUB DUP2 DUP7 GAS STATICCALL ISZERO DUP1 ISZERO PUSH2 0x1157 JUMPI RETURNDATASIZE PUSH1 0x0 DUP1 RETURNDATACOPY RETURNDATASIZE PUSH1 0x0 REVERT JUMPDEST POP POP POP POP PUSH1 0x40 MLOAD RETURNDATASIZE PUSH1 0x1F NOT PUSH1 0x1F DUP3 ADD AND DUP3 ADD DUP1 PUSH1 0x40 MSTORE POP DUP2 ADD SWAP1 PUSH2 0x117B SWAP2 SWAP1 PUSH2 0x24ED JUMP JUMPDEST PUSH2 0x118E DUP4 DUP6 PUSH2 0x1C46 SWAP1 SWAP2 SWAP1 PUSH4 0xFFFFFFFF AND JUMP JUMPDEST PUSH2 0x1B82 SWAP1 SWAP2 SWAP1 PUSH4 0xFFFFFFFF AND JUMP JUMPDEST SWAP3 POP POP POP SWAP2 SWAP1 POP JUMP JUMPDEST PUSH1 0x0 DUP2 PUSH20 0xFFFFFFFFFFFFFFFFFFFFFFFFFFFFFFFFFFFFFFFF AND PUSH4 0xDFE1681 PUSH1 0x40 MLOAD DUP2 PUSH4 0xFFFFFFFF AND PUSH1 0xE0 SHL DUP2 MSTORE PUSH1 0x4 ADD PUSH1 0x20 PUSH1 0x40 MLOAD DUP1 DUP4 SUB DUP2 DUP7 GAS STATICCALL SWAP3 POP POP POP DUP1 ISZERO PUSH2 0x120F JUMPI POP PUSH1 0x40 MLOAD RETURNDATASIZE PUSH1 0x1F NOT PUSH1 0x1F DUP3 ADD AND DUP3 ADD DUP1 PUSH1 0x40 MSTORE POP DUP2 ADD SWAP1 PUSH2 0x120C SWAP2 SWAP1 PUSH2 0x28CA JUMP JUMPDEST PUSH1 0x1 JUMPDEST PUSH2 0x121C JUMPI PUSH1 0x0 SWAP1 POP PUSH2 0x1222 JUMP JUMPDEST POP PUSH1 0x1 SWAP1 POP JUMPDEST SWAP2 SWAP1 POP JUMP JUMPDEST PUSH1 0x4 PUSH1 0x0 SWAP1 SLOAD SWAP1 PUSH2 0x100 EXP SWAP1 DIV PUSH20 0xFFFFFFFFFFFFFFFFFFFFFFFFFFFFFFFFFFFFFFFF AND DUP2 JUMP JUMPDEST PUSH1 0x0 DUP1 PUSH1 0x2 PUSH8 0xFFFFFFFFFFFFFFFF DUP2 GT ISZERO PUSH2 0x126B JUMPI PUSH2 0x126A PUSH2 0x1FEF JUMP JUMPDEST JUMPDEST PUSH1 0x40 MLOAD SWAP1 DUP1 DUP3 MSTORE DUP1 PUSH1 0x20 MUL PUSH1 0x20 ADD DUP3 ADD PUSH1 0x40 MSTORE DUP1 ISZERO PUSH2 0x1299 JUMPI DUP2 PUSH1 0x20 ADD PUSH1 0x20 DUP3 MUL DUP1 CALLDATASIZE DUP4 CALLDATACOPY DUP1 DUP3 ADD SWAP2 POP POP SWAP1 POP JUMPDEST POP SWAP1 POP DUP3 DUP2 PUSH1 0x0 DUP2 MLOAD DUP2 LT PUSH2 0x12B1 JUMPI PUSH2 0x12B0 PUSH2 0x2603 JUMP JUMPDEST JUMPDEST PUSH1 0x20 MUL PUSH1 0x20 ADD ADD SWAP1 PUSH20 0xFFFFFFFFFFFFFFFFFFFFFFFFFFFFFFFFFFFFFFFF AND SWAP1 DUP2 PUSH20 0xFFFFFFFFFFFFFFFFFFFFFFFFFFFFFFFFFFFFFFFF AND DUP2 MSTORE POP POP PUSH1 0x2 PUSH1 0x0 SWAP1 SLOAD SWAP1 PUSH2 0x100 EXP SWAP1 DIV PUSH20 0xFFFFFFFFFFFFFFFFFFFFFFFFFFFFFFFFFFFFFFFF AND DUP2 PUSH1 0x1 DUP2 MLOAD DUP2 LT PUSH2 0x1322 JUMPI PUSH2 0x1321 PUSH2 0x2603 JUMP JUMPDEST JUMPDEST PUSH1 0x20 MUL PUSH1 0x20 ADD ADD SWAP1 PUSH20 0xFFFFFFFFFFFFFFFFFFFFFFFFFFFFFFFFFFFFFFFF AND SWAP1 DUP2 PUSH20 0xFFFFFFFFFFFFFFFFFFFFFFFFFFFFFFFFFFFFFFFF AND DUP2 MSTORE POP POP PUSH1 0x4 PUSH1 0x0 SWAP1 SLOAD SWAP1 PUSH2 0x100 EXP SWAP1 DIV PUSH20 0xFFFFFFFFFFFFFFFFFFFFFFFFFFFFFFFFFFFFFFFF AND PUSH20 0xFFFFFFFFFFFFFFFFFFFFFFFFFFFFFFFFFFFFFFFF AND PUSH4 0xD06CA61F PUSH1 0x3 SLOAD DUP4 PUSH1 0x40 MLOAD DUP4 PUSH4 0xFFFFFFFF AND PUSH1 0xE0 SHL DUP2 MSTORE PUSH1 0x4 ADD PUSH2 0x13BB SWAP3 SWAP2 SWAP1 PUSH2 0x278E JUMP JUMPDEST PUSH1 0x0 PUSH1 0x40 MLOAD DUP1 DUP4 SUB DUP2 DUP7 GAS STATICCALL ISZERO DUP1 ISZERO PUSH2 0x13D8 JUMPI RETURNDATASIZE PUSH1 0x0 DUP1 RETURNDATACOPY RETURNDATASIZE PUSH1 0x0 REVERT JUMPDEST POP POP POP POP PUSH1 0x40 MLOAD RETURNDATASIZE PUSH1 0x0 DUP3 RETURNDATACOPY RETURNDATASIZE PUSH1 0x1F NOT PUSH1 0x1F DUP3 ADD AND DUP3 ADD DUP1 PUSH1 0x40 MSTORE POP DUP2 ADD SWAP1 PUSH2 0x1401 SWAP2 SWAP1 PUSH2 0x2881 JUMP JUMPDEST PUSH1 0x1 DUP2 MLOAD DUP2 LT PUSH2 0x1414 JUMPI PUSH2 0x1413 PUSH2 0x2603 JUMP JUMPDEST JUMPDEST PUSH1 0x20 MUL PUSH1 0x20 ADD ADD MLOAD SWAP2 POP POP SWAP2 SWAP1 POP JUMP JUMPDEST PUSH1 0x2 PUSH1 0x0 SWAP1 SLOAD SWAP1 PUSH2 0x100 EXP SWAP1 DIV PUSH20 0xFFFFFFFFFFFFFFFFFFFFFFFFFFFFFFFFFFFFFFFF AND DUP2 JUMP JUMPDEST PUSH1 0x0 DUP1 PUSH1 0x0 SWAP1 POP PUSH1 0x0 JUMPDEST DUP4 MLOAD DUP2 LT ISZERO PUSH2 0x1508 JUMPI PUSH1 0x1 PUSH2 0x1482 DUP6 DUP4 DUP2 MLOAD DUP2 LT PUSH2 0x1475 JUMPI PUSH2 0x1474 PUSH2 0x2603 JUMP JUMPDEST JUMPDEST PUSH1 0x20 MUL PUSH1 0x20 ADD ADD MLOAD PUSH2 0x11A5 JUMP JUMPDEST SUB PUSH2 0x14C0 JUMPI PUSH2 0x14AE DUP2 DUP6 DUP4 DUP2 MLOAD DUP2 LT PUSH2 0x149E JUMPI PUSH2 0x149D PUSH2 0x2603 JUMP JUMPDEST JUMPDEST PUSH1 0x20 MUL PUSH1 0x20 ADD ADD MLOAD PUSH1 0x1 DUP9 PUSH2 0x16AA JUMP JUMPDEST DUP3 PUSH2 0x14B9 SWAP2 SWAP1 PUSH2 0x2632 JUMP JUMPDEST SWAP2 POP PUSH2 0x14F5 JUMP JUMPDEST PUSH2 0x14E7 DUP2 DUP6 DUP4 DUP2 MLOAD DUP2 LT PUSH2 0x14D7 JUMPI PUSH2 0x14D6 PUSH2 0x2603 JUMP JUMPDEST JUMPDEST PUSH1 0x20 MUL PUSH1 0x20 ADD ADD MLOAD PUSH1 0x0 DUP9 PUSH2 0x16AA JUMP JUMPDEST DUP3 PUSH2 0x14F2 SWAP2 SWAP1 PUSH2 0x2632 JUMP JUMPDEST SWAP2 POP JUMPDEST DUP1 DUP1 PUSH2 0x1500 SWAP1 PUSH2 0x2688 JUMP JUMPDEST SWAP2 POP POP PUSH2 0x1454 JUMP JUMPDEST POP DUP1 SWAP2 POP POP SWAP3 SWAP2 POP POP JUMP JUMPDEST PUSH2 0x151B PUSH2 0x1CA4 JUMP JUMPDEST PUSH20 0xFFFFFFFFFFFFFFFFFFFFFFFFFFFFFFFFFFFFFFFF AND PUSH2 0x1539 PUSH2 0x159B JUMP JUMPDEST PUSH20 0xFFFFFFFFFFFFFFFFFFFFFFFFFFFFFFFFFFFFFFFF AND EQ PUSH2 0x158F JUMPI PUSH1 0x40 MLOAD PUSH32 0x8C379A000000000000000000000000000000000000000000000000000000000 DUP2 MSTORE PUSH1 0x4 ADD PUSH2 0x1586 SWAP1 PUSH2 0x2954 JUMP JUMPDEST PUSH1 0x40 MLOAD DUP1 SWAP2 SUB SWAP1 REVERT JUMPDEST PUSH2 0x1599 PUSH1 0x0 PUSH2 0x1CAC JUMP JUMPDEST JUMP JUMPDEST PUSH1 0x0 DUP1 PUSH1 0x0 SWAP1 SLOAD SWAP1 PUSH2 0x100 EXP SWAP1 DIV PUSH20 0xFFFFFFFFFFFFFFFFFFFFFFFFFFFFFFFFFFFFFFFF AND SWAP1 POP SWAP1 JUMP JUMPDEST PUSH1 0x1 PUSH1 0x0 SWAP1 SLOAD SWAP1 PUSH2 0x100 EXP SWAP1 DIV PUSH20 0xFFFFFFFFFFFFFFFFFFFFFFFFFFFFFFFFFFFFFFFF AND DUP2 JUMP JUMPDEST PUSH2 0x15F2 PUSH2 0x1CA4 JUMP JUMPDEST PUSH20 0xFFFFFFFFFFFFFFFFFFFFFFFFFFFFFFFFFFFFFFFF AND PUSH2 0x1610 PUSH2 0x159B JUMP JUMPDEST PUSH20 0xFFFFFFFFFFFFFFFFFFFFFFFFFFFFFFFFFFFFFFFF AND EQ PUSH2 0x1666 JUMPI PUSH1 0x40 MLOAD PUSH32 0x8C379A000000000000000000000000000000000000000000000000000000000 DUP2 MSTORE PUSH1 0x4 ADD PUSH2 0x165D SWAP1 PUSH2 0x2954 JUMP JUMPDEST PUSH1 0x40 MLOAD DUP1 SWAP2 SUB SWAP1 REVERT JUMPDEST DUP1 PUSH1 0x4 PUSH1 0x0 PUSH2 0x100 EXP DUP2 SLOAD DUP2 PUSH20 0xFFFFFFFFFFFFFFFFFFFFFFFFFFFFFFFFFFFFFFFF MUL NOT AND SWAP1 DUP4 PUSH20 0xFFFFFFFFFFFFFFFFFFFFFFFFFFFFFFFFFFFFFFFF AND MUL OR SWAP1 SSTORE POP POP JUMP JUMPDEST PUSH1 0x0 DUP1 DUP3 PUSH20 0xFFFFFFFFFFFFFFFFFFFFFFFFFFFFFFFFFFFFFFFF AND PUSH4 0x6A6D964E DUP8 PUSH1 0x40 MLOAD DUP3 PUSH4 0xFFFFFFFF AND PUSH1 0xE0 SHL DUP2 MSTORE PUSH1 0x4 ADD PUSH2 0x16E6 SWAP2 SWAP1 PUSH2 0x1EEF JUMP JUMPDEST PUSH1 0x20 PUSH1 0x40 MLOAD DUP1 DUP4 SUB DUP2 DUP7 GAS STATICCALL ISZERO DUP1 ISZERO PUSH2 0x1703 JUMPI RETURNDATASIZE PUSH1 0x0 DUP1 RETURNDATACOPY RETURNDATASIZE PUSH1 0x0 REVERT JUMPDEST POP POP POP POP PUSH1 0x40 MLOAD RETURNDATASIZE PUSH1 0x1F NOT PUSH1 0x1F DUP3 ADD AND DUP3 ADD DUP1 PUSH1 0x40 MSTORE POP DUP2 ADD SWAP1 PUSH2 0x1727 SWAP2 SWAP1 PUSH2 0x24ED JUMP JUMPDEST SWAP1 POP PUSH1 0x0 PUSH1 0x1 DUP6 SUB PUSH2 0x1743 JUMPI PUSH2 0x173C DUP7 PUSH2 0x9AA JUMP JUMPDEST SWAP1 POP PUSH2 0x17BE JUMP JUMPDEST PUSH1 0x0 DUP6 SUB PUSH2 0x17BD JUMPI DUP6 PUSH20 0xFFFFFFFFFFFFFFFFFFFFFFFFFFFFFFFFFFFFFFFF AND PUSH1 0x1 PUSH1 0x0 SWAP1 SLOAD SWAP1 PUSH2 0x100 EXP SWAP1 DIV PUSH20 0xFFFFFFFFFFFFFFFFFFFFFFFFFFFFFFFFFFFFFFFF AND PUSH20 0xFFFFFFFFFFFFFFFFFFFFFFFFFFFFFFFFFFFFFFFF AND SUB PUSH2 0x17B0 JUMPI PUSH2 0x17A9 DUP7 PUSH2 0x124D JUMP JUMPDEST SWAP1 POP PUSH2 0x17BC JUMP JUMPDEST PUSH2 0x17B9 DUP7 PUSH2 0x762 JUMP JUMPDEST SWAP1 POP JUMPDEST JUMPDEST JUMPDEST PUSH2 0x17DE PUSH1 0x3 SLOAD DUP3 DUP5 PUSH2 0x17D0 SWAP2 SWAP1 PUSH2 0x2549 JUMP JUMPDEST PUSH2 0x1B82 SWAP1 SWAP2 SWAP1 PUSH4 0xFFFFFFFF AND JUMP JUMPDEST SWAP3 POP POP POP SWAP5 SWAP4 POP POP POP POP JUMP JUMPDEST PUSH1 0x0 DUP1 DUP3 PUSH20 0xFFFFFFFFFFFFFFFFFFFFFFFFFFFFFFFFFFFFFFFF AND PUSH4 0x1526FE27 DUP8 PUSH1 0x40 MLOAD DUP3 PUSH4 0xFFFFFFFF AND PUSH1 0xE0 SHL DUP2 MSTORE PUSH1 0x4 ADD PUSH2 0x1826 SWAP2 SWAP1 PUSH2 0x1EEF JUMP JUMPDEST PUSH1 0xC0 PUSH1 0x40 MLOAD DUP1 DUP4 SUB DUP2 DUP7 GAS STATICCALL ISZERO DUP1 ISZERO PUSH2 0x1843 JUMPI RETURNDATASIZE PUSH1 0x0 DUP1 RETURNDATACOPY RETURNDATASIZE PUSH1 0x0 REVERT JUMPDEST POP POP POP POP PUSH1 0x40 MLOAD RETURNDATASIZE PUSH1 0x1F NOT PUSH1 0x1F DUP3 ADD AND DUP3 ADD DUP1 PUSH1 0x40 MSTORE POP DUP2 ADD SWAP1 PUSH2 0x1867 SWAP2 SWAP1 PUSH2 0x24C0 JUMP JUMPDEST SWAP1 POP PUSH1 0x0 PUSH2 0x1904 DUP5 PUSH20 0xFFFFFFFFFFFFFFFFFFFFFFFFFFFFFFFFFFFFFFFF AND PUSH4 0x17CAF6F1 PUSH1 0x40 MLOAD DUP2 PUSH4 0xFFFFFFFF AND PUSH1 0xE0 SHL DUP2 MSTORE PUSH1 0x4 ADD PUSH1 0x20 PUSH1 0x40 MLOAD DUP1 DUP4 SUB DUP2 DUP7 GAS STATICCALL ISZERO DUP1 ISZERO PUSH2 0x18B9 JUMPI RETURNDATASIZE PUSH1 0x0 DUP1 RETURNDATACOPY RETURNDATASIZE PUSH1 0x0 REVERT JUMPDEST POP POP POP POP PUSH1 0x40 MLOAD RETURNDATASIZE PUSH1 0x1F NOT PUSH1 0x1F DUP3 ADD AND DUP3 ADD DUP1 PUSH1 0x40 MSTORE POP DUP2 ADD SWAP1 PUSH2 0x18DD SWAP2 SWAP1 PUSH2 0x24ED JUMP JUMPDEST PUSH2 0x18F6 PUSH1 0x3 SLOAD DUP6 PUSH1 0x20 ADD MLOAD PUSH2 0x1BCC SWAP1 SWAP2 SWAP1 PUSH4 0xFFFFFFFF AND JUMP JUMPDEST PUSH2 0x1B82 SWAP1 SWAP2 SWAP1 PUSH4 0xFFFFFFFF AND JUMP JUMPDEST SWAP1 POP PUSH1 0x0 PUSH2 0x197F DUP6 PUSH20 0xFFFFFFFFFFFFFFFFFFFFFFFFFFFFFFFFFFFFFFFF AND PUSH4 0x141AA0BA PUSH1 0x40 MLOAD DUP2 PUSH4 0xFFFFFFFF AND PUSH1 0xE0 SHL DUP2 MSTORE PUSH1 0x4 ADD PUSH1 0x20 PUSH1 0x40 MLOAD DUP1 DUP4 SUB DUP2 DUP7 GAS STATICCALL ISZERO DUP1 ISZERO PUSH2 0x1956 JUMPI RETURNDATASIZE PUSH1 0x0 DUP1 RETURNDATACOPY RETURNDATASIZE PUSH1 0x0 REVERT JUMPDEST POP POP POP POP PUSH1 0x40 MLOAD RETURNDATASIZE PUSH1 0x1F NOT PUSH1 0x1F DUP3 ADD AND DUP3 ADD DUP1 PUSH1 0x40 MSTORE POP DUP2 ADD SWAP1 PUSH2 0x197A SWAP2 SWAP1 PUSH2 0x2989 JUMP JUMPDEST PUSH2 0x762 JUMP JUMPDEST SWAP1 POP PUSH1 0x0 PUSH2 0x1A06 DUP7 PUSH20 0xFFFFFFFFFFFFFFFFFFFFFFFFFFFFFFFFFFFFFFFF AND PUSH4 0xA1EEF821 PUSH1 0x40 MLOAD DUP2 PUSH4 0xFFFFFFFF AND PUSH1 0xE0 SHL DUP2 MSTORE PUSH1 0x4 ADD PUSH1 0x20 PUSH1 0x40 MLOAD DUP1 DUP4 SUB DUP2 DUP7 GAS STATICCALL ISZERO DUP1 ISZERO PUSH2 0x19D1 JUMPI RETURNDATASIZE PUSH1 0x0 DUP1 RETURNDATACOPY RETURNDATASIZE PUSH1 0x0 REVERT JUMPDEST POP POP POP POP PUSH1 0x40 MLOAD RETURNDATASIZE PUSH1 0x1F NOT PUSH1 0x1F DUP3 ADD AND DUP3 ADD DUP1 PUSH1 0x40 MSTORE POP DUP2 ADD SWAP1 PUSH2 0x19F5 SWAP2 SWAP1 PUSH2 0x24ED JUMP JUMPDEST PUSH1 0x5 SLOAD PUSH2 0x1BCC SWAP1 SWAP2 SWAP1 PUSH4 0xFFFFFFFF AND JUMP JUMPDEST SWAP1 POP PUSH1 0x0 PUSH2 0x1A31 PUSH1 0x3 SLOAD PUSH2 0x1A23 DUP7 DUP6 PUSH2 0x1BCC SWAP1 SWAP2 SWAP1 PUSH4 0xFFFFFFFF AND JUMP JUMPDEST PUSH2 0x1B82 SWAP1 SWAP2 SWAP1 PUSH4 0xFFFFFFFF AND JUMP JUMPDEST SWAP1 POP PUSH1 0x0 PUSH2 0x1A41 DUP12 DUP12 DUP12 DUP12 PUSH2 0x16AA JUMP JUMPDEST SWAP1 POP PUSH2 0x1A7B PUSH1 0x64 PUSH2 0x1A6D DUP4 PUSH2 0x1A5F DUP9 DUP8 PUSH2 0x1BCC SWAP1 SWAP2 SWAP1 PUSH4 0xFFFFFFFF AND JUMP JUMPDEST PUSH2 0x1B82 SWAP1 SWAP2 SWAP1 PUSH4 0xFFFFFFFF AND JUMP JUMPDEST PUSH2 0x1BCC SWAP1 SWAP2 SWAP1 PUSH4 0xFFFFFFFF AND JUMP JUMPDEST SWAP7 POP POP POP POP POP POP POP SWAP5 SWAP4 POP POP POP POP JUMP JUMPDEST PUSH2 0x1A93 PUSH2 0x1CA4 JUMP JUMPDEST PUSH20 0xFFFFFFFFFFFFFFFFFFFFFFFFFFFFFFFFFFFFFFFF AND PUSH2 0x1AB1 PUSH2 0x159B JUMP JUMPDEST PUSH20 0xFFFFFFFFFFFFFFFFFFFFFFFFFFFFFFFFFFFFFFFF AND EQ PUSH2 0x1B07 JUMPI PUSH1 0x40 MLOAD PUSH32 0x8C379A000000000000000000000000000000000000000000000000000000000 DUP2 MSTORE PUSH1 0x4 ADD PUSH2 0x1AFE SWAP1 PUSH2 0x2954 JUMP JUMPDEST PUSH1 0x40 MLOAD DUP1 SWAP2 SUB SWAP1 REVERT JUMPDEST PUSH1 0x0 PUSH20 0xFFFFFFFFFFFFFFFFFFFFFFFFFFFFFFFFFFFFFFFF AND DUP2 PUSH20 0xFFFFFFFFFFFFFFFFFFFFFFFFFFFFFFFFFFFFFFFF AND SUB PUSH2 0x1B76 JUMPI PUSH1 0x40 MLOAD PUSH32 0x8C379A000000000000000000000000000000000000000000000000000000000 DUP2 MSTORE PUSH1 0x4 ADD PUSH2 0x1B6D SWAP1 PUSH2 0x2A28 JUMP JUMPDEST PUSH1 0x40 MLOAD DUP1 SWAP2 SUB SWAP1 REVERT JUMPDEST PUSH2 0x1B7F DUP2 PUSH2 0x1CAC JUMP JUMPDEST POP JUMP JUMPDEST PUSH1 0x0 PUSH2 0x1BC4 DUP4 DUP4 PUSH1 0x40 MLOAD DUP1 PUSH1 0x40 ADD PUSH1 0x40 MSTORE DUP1 PUSH1 0x1A DUP2 MSTORE PUSH1 0x20 ADD PUSH32 0x536166654D6174683A206469766973696F6E206279207A65726F000000000000 DUP2 MSTORE POP PUSH2 0x1D70 JUMP JUMPDEST SWAP1 POP SWAP3 SWAP2 POP POP JUMP JUMPDEST PUSH1 0x0 DUP1 DUP4 SUB PUSH2 0x1BDE JUMPI PUSH1 0x0 SWAP1 POP PUSH2 0x1C40 JUMP JUMPDEST PUSH1 0x0 DUP3 DUP5 PUSH2 0x1BEC SWAP2 SWAP1 PUSH2 0x2549 JUMP JUMPDEST SWAP1 POP DUP3 DUP5 DUP3 PUSH2 0x1BFB SWAP2 SWAP1 PUSH2 0x25D2 JUMP JUMPDEST EQ PUSH2 0x1C3B JUMPI PUSH1 0x40 MLOAD PUSH32 0x8C379A000000000000000000000000000000000000000000000000000000000 DUP2 MSTORE PUSH1 0x4 ADD PUSH2 0x1C32 SWAP1 PUSH2 0x2ABA JUMP JUMPDEST PUSH1 0x40 MLOAD DUP1 SWAP2 SUB SWAP1 REVERT JUMPDEST DUP1 SWAP2 POP POP JUMPDEST SWAP3 SWAP2 POP POP JUMP JUMPDEST PUSH1 0x0 DUP1 DUP3 DUP5 PUSH2 0x1C55 SWAP2 SWAP1 PUSH2 0x2632 JUMP JUMPDEST SWAP1 POP DUP4 DUP2 LT ISZERO PUSH2 0x1C9A JUMPI PUSH1 0x40 MLOAD PUSH32 0x8C379A000000000000000000000000000000000000000000000000000000000 DUP2 MSTORE PUSH1 0x4 ADD PUSH2 0x1C91 SWAP1 PUSH2 0x2B26 JUMP JUMPDEST PUSH1 0x40 MLOAD DUP1 SWAP2 SUB SWAP1 REVERT JUMPDEST DUP1 SWAP2 POP POP SWAP3 SWAP2 POP POP JUMP JUMPDEST PUSH1 0x0 CALLER SWAP1 POP SWAP1 JUMP JUMPDEST PUSH1 0x0 DUP1 PUSH1 0x0 SWAP1 SLOAD SWAP1 PUSH2 0x100 EXP SWAP1 DIV PUSH20 0xFFFFFFFFFFFFFFFFFFFFFFFFFFFFFFFFFFFFFFFF AND SWAP1 POP DUP2 PUSH1 0x0 DUP1 PUSH2 0x100 EXP DUP2 SLOAD DUP2 PUSH20 0xFFFFFFFFFFFFFFFFFFFFFFFFFFFFFFFFFFFFFFFF MUL NOT AND SWAP1 DUP4 PUSH20 0xFFFFFFFFFFFFFFFFFFFFFFFFFFFFFFFFFFFFFFFF AND MUL OR SWAP1 SSTORE POP DUP2 PUSH20 0xFFFFFFFFFFFFFFFFFFFFFFFFFFFFFFFFFFFFFFFF AND DUP2 PUSH20 0xFFFFFFFFFFFFFFFFFFFFFFFFFFFFFFFFFFFFFFFF AND PUSH32 0x8BE0079C531659141344CD1FD0A4F28419497F9722A3DAAFE3B4186F6B6457E0 PUSH1 0x40 MLOAD PUSH1 0x40 MLOAD DUP1 SWAP2 SUB SWAP1 LOG3 POP POP JUMP JUMPDEST PUSH1 0x0 DUP1 DUP4 GT DUP3 SWAP1 PUSH2 0x1DB7 JUMPI PUSH1 0x40 MLOAD PUSH32 0x8C379A000000000000000000000000000000000000000000000000000000000 DUP2 MSTORE PUSH1 0x4 ADD PUSH2 0x1DAE SWAP2 SWAP1 PUSH2 0x2BBD JUMP JUMPDEST PUSH1 0x40 MLOAD DUP1 SWAP2 SUB SWAP1 REVERT JUMPDEST POP PUSH1 0x0 DUP4 DUP6 PUSH2 0x1DC6 SWAP2 SWAP1 PUSH2 0x25D2 JUMP JUMPDEST SWAP1 POP DUP1 SWAP2 POP POP SWAP4 SWAP3 POP POP POP JUMP JUMPDEST PUSH1 0x0 PUSH1 0x40 MLOAD SWAP1 POP SWAP1 JUMP JUMPDEST PUSH1 0x0 DUP1 REVERT JUMPDEST PUSH1 0x0 DUP1 REVERT JUMPDEST PUSH1 0x0 DUP2 SWAP1 POP SWAP2 SWAP1 POP JUMP JUMPDEST PUSH2 0x1DFA DUP2 PUSH2 0x1DE7 JUMP JUMPDEST DUP2 EQ PUSH2 0x1E05 JUMPI PUSH1 0x0 DUP1 REVERT JUMPDEST POP JUMP JUMPDEST PUSH1 0x0 DUP2 CALLDATALOAD SWAP1 POP PUSH2 0x1E17 DUP2 PUSH2 0x1DF1 JUMP JUMPDEST SWAP3 SWAP2 POP POP JUMP JUMPDEST PUSH1 0x0 PUSH20 0xFFFFFFFFFFFFFFFFFFFFFFFFFFFFFFFFFFFFFFFF DUP3 AND SWAP1 POP SWAP2 SWAP1 POP JUMP JUMPDEST PUSH1 0x0 PUSH2 0x1E48 DUP3 PUSH2 0x1E1D JUMP JUMPDEST SWAP1 POP SWAP2 SWAP1 POP JUMP JUMPDEST PUSH1 0x0 PUSH2 0x1E5A DUP3 PUSH2 0x1E3D JUMP JUMPDEST SWAP1 POP SWAP2 SWAP1 POP JUMP JUMPDEST PUSH2 0x1E6A DUP2 PUSH2 0x1E4F JUMP JUMPDEST DUP2 EQ PUSH2 0x1E75 JUMPI PUSH1 0x0 DUP1 REVERT JUMPDEST POP JUMP JUMPDEST PUSH1 0x0 DUP2 CALLDATALOAD SWAP1 POP PUSH2 0x1E87 DUP2 PUSH2 0x1E61 JUMP JUMPDEST SWAP3 SWAP2 POP POP JUMP JUMPDEST PUSH1 0x0 DUP1 PUSH1 0x0 PUSH1 0x60 DUP5 DUP7 SUB SLT ISZERO PUSH2 0x1EA6 JUMPI PUSH2 0x1EA5 PUSH2 0x1DDD JUMP JUMPDEST JUMPDEST PUSH1 0x0 PUSH2 0x1EB4 DUP7 DUP3 DUP8 ADD PUSH2 0x1E08 JUMP JUMPDEST SWAP4 POP POP PUSH1 0x20 PUSH2 0x1EC5 DUP7 DUP3 DUP8 ADD PUSH2 0x1E08 JUMP JUMPDEST SWAP3 POP POP PUSH1 0x40 PUSH2 0x1ED6 DUP7 DUP3 DUP8 ADD PUSH2 0x1E78 JUMP JUMPDEST SWAP2 POP POP SWAP3 POP SWAP3 POP SWAP3 JUMP JUMPDEST PUSH2 0x1EE9 DUP2 PUSH2 0x1DE7 JUMP JUMPDEST DUP3 MSTORE POP POP JUMP JUMPDEST PUSH1 0x0 PUSH1 0x20 DUP3 ADD SWAP1 POP PUSH2 0x1F04 PUSH1 0x0 DUP4 ADD DUP5 PUSH2 0x1EE0 JUMP JUMPDEST SWAP3 SWAP2 POP POP JUMP JUMPDEST PUSH1 0x0 PUSH2 0x1F15 DUP3 PUSH2 0x1E3D JUMP JUMPDEST SWAP1 POP SWAP2 SWAP1 POP JUMP JUMPDEST PUSH2 0x1F25 DUP2 PUSH2 0x1F0A JUMP JUMPDEST DUP2 EQ PUSH2 0x1F30 JUMPI PUSH1 0x0 DUP1 REVERT JUMPDEST POP JUMP JUMPDEST PUSH1 0x0 DUP2 CALLDATALOAD SWAP1 POP PUSH2 0x1F42 DUP2 PUSH2 0x1F1C JUMP JUMPDEST SWAP3 SWAP2 POP POP JUMP JUMPDEST PUSH1 0x0 PUSH2 0x1F53 DUP3 PUSH2 0x1E3D JUMP JUMPDEST SWAP1 POP SWAP2 SWAP1 POP JUMP JUMPDEST PUSH2 0x1F63 DUP2 PUSH2 0x1F48 JUMP JUMPDEST DUP2 EQ PUSH2 0x1F6E JUMPI PUSH1 0x0 DUP1 REVERT JUMPDEST POP JUMP JUMPDEST PUSH1 0x0 DUP2 CALLDATALOAD SWAP1 POP PUSH2 0x1F80 DUP2 PUSH2 0x1F5A JUMP JUMPDEST SWAP3 SWAP2 POP POP JUMP JUMPDEST PUSH1 0x0 DUP1 PUSH1 0x0 PUSH1 0x60 DUP5 DUP7 SUB SLT ISZERO PUSH2 0x1F9F JUMPI PUSH2 0x1F9E PUSH2 0x1DDD JUMP JUMPDEST JUMPDEST PUSH1 0x0 PUSH2 0x1FAD DUP7 DUP3 DUP8 ADD PUSH2 0x1F33 JUMP JUMPDEST SWAP4 POP POP PUSH1 0x20 PUSH2 0x1FBE DUP7 DUP3 DUP8 ADD PUSH2 0x1E08 JUMP JUMPDEST SWAP3 POP POP PUSH1 0x40 PUSH2 0x1FCF DUP7 DUP3 DUP8 ADD PUSH2 0x1F71 JUMP JUMPDEST SWAP2 POP POP SWAP3 POP SWAP3 POP SWAP3 JUMP JUMPDEST PUSH1 0x0 DUP1 REVERT JUMPDEST PUSH1 0x0 PUSH1 0x1F NOT PUSH1 0x1F DUP4 ADD AND SWAP1 POP SWAP2 SWAP1 POP JUMP JUMPDEST PUSH32 0x4E487B7100000000000000000000000000000000000000000000000000000000 PUSH1 0x0 MSTORE PUSH1 0x41 PUSH1 0x4 MSTORE PUSH1 0x24 PUSH1 0x0 REVERT JUMPDEST PUSH2 0x2027 DUP3 PUSH2 0x1FDE JUMP JUMPDEST DUP2 ADD DUP2 DUP2 LT PUSH8 0xFFFFFFFFFFFFFFFF DUP3 GT OR ISZERO PUSH2 0x2046 JUMPI PUSH2 0x2045 PUSH2 0x1FEF JUMP JUMPDEST JUMPDEST DUP1 PUSH1 0x40 MSTORE POP POP POP JUMP JUMPDEST PUSH1 0x0 PUSH2 0x2059 PUSH2 0x1DD3 JUMP JUMPDEST SWAP1 POP PUSH2 0x2065 DUP3 DUP3 PUSH2 0x201E JUMP JUMPDEST SWAP2 SWAP1 POP JUMP JUMPDEST PUSH1 0x0 PUSH8 0xFFFFFFFFFFFFFFFF DUP3 GT ISZERO PUSH2 0x2085 JUMPI PUSH2 0x2084 PUSH2 0x1FEF JUMP JUMPDEST JUMPDEST PUSH1 0x20 DUP3 MUL SWAP1 POP PUSH1 0x20 DUP2 ADD SWAP1 POP SWAP2 SWAP1 POP JUMP JUMPDEST PUSH1 0x0 DUP1 REVERT JUMPDEST PUSH1 0x0 PUSH2 0x20AE PUSH2 0x20A9 DUP5 PUSH2 0x206A JUMP JUMPDEST PUSH2 0x204F JUMP JUMPDEST SWAP1 POP DUP1 DUP4 DUP3 MSTORE PUSH1 0x20 DUP3 ADD SWAP1 POP PUSH1 0x20 DUP5 MUL DUP4 ADD DUP6 DUP2 GT ISZERO PUSH2 0x20D1 JUMPI PUSH2 0x20D0 PUSH2 0x2096 JUMP JUMPDEST JUMPDEST DUP4 JUMPDEST DUP2 DUP2 LT ISZERO PUSH2 0x20FA JUMPI DUP1 PUSH2 0x20E6 DUP9 DUP3 PUSH2 0x1F33 JUMP JUMPDEST DUP5 MSTORE PUSH1 0x20 DUP5 ADD SWAP4 POP POP PUSH1 0x20 DUP2 ADD SWAP1 POP PUSH2 0x20D3 JUMP JUMPDEST POP POP POP SWAP4 SWAP3 POP POP POP JUMP JUMPDEST PUSH1 0x0 DUP3 PUSH1 0x1F DUP4 ADD SLT PUSH2 0x2119 JUMPI PUSH2 0x2118 PUSH2 0x1FD9 JUMP JUMPDEST JUMPDEST DUP2 CALLDATALOAD PUSH2 0x2129 DUP5 DUP3 PUSH1 0x20 DUP7 ADD PUSH2 0x209B JUMP JUMPDEST SWAP2 POP POP SWAP3 SWAP2 POP POP JUMP JUMPDEST PUSH1 0x0 DUP1 PUSH1 0x40 DUP4 DUP6 SUB SLT ISZERO PUSH2 0x2149 JUMPI PUSH2 0x2148 PUSH2 0x1DDD JUMP JUMPDEST JUMPDEST PUSH1 0x0 PUSH2 0x2157 DUP6 DUP3 DUP7 ADD PUSH2 0x1F71 JUMP JUMPDEST SWAP3 POP POP PUSH1 0x20 DUP4 ADD CALLDATALOAD PUSH8 0xFFFFFFFFFFFFFFFF DUP2 GT ISZERO PUSH2 0x2178 JUMPI PUSH2 0x2177 PUSH2 0x1DE2 JUMP JUMPDEST JUMPDEST PUSH2 0x2184 DUP6 DUP3 DUP7 ADD PUSH2 0x2104 JUMP JUMPDEST SWAP2 POP POP SWAP3 POP SWAP3 SWAP1 POP JUMP JUMPDEST PUSH2 0x2197 DUP2 PUSH2 0x1E3D JUMP JUMPDEST DUP2 EQ PUSH2 0x21A2 JUMPI PUSH1 0x0 DUP1 REVERT JUMPDEST POP JUMP JUMPDEST PUSH1 0x0 DUP2 CALLDATALOAD SWAP1 POP PUSH2 0x21B4 DUP2 PUSH2 0x218E JUMP JUMPDEST SWAP3 SWAP2 POP POP JUMP JUMPDEST PUSH1 0x0 PUSH1 0x20 DUP3 DUP5 SUB SLT ISZERO PUSH2 0x21D0 JUMPI PUSH2 0x21CF PUSH2 0x1DDD JUMP JUMPDEST JUMPDEST PUSH1 0x0 PUSH2 0x21DE DUP5 DUP3 DUP6 ADD PUSH2 0x21A5 JUMP JUMPDEST SWAP2 POP POP SWAP3 SWAP2 POP POP JUMP JUMPDEST PUSH1 0x0 PUSH1 0x20 DUP3 DUP5 SUB SLT ISZERO PUSH2 0x21FD JUMPI PUSH2 0x21FC PUSH2 0x1DDD JUMP JUMPDEST JUMPDEST PUSH1 0x0 PUSH2 0x220B DUP5 DUP3 DUP6 ADD PUSH2 0x1F33 JUMP JUMPDEST SWAP2 POP POP SWAP3 SWAP2 POP POP JUMP JUMPDEST PUSH1 0x0 DUP2 SWAP1 POP SWAP2 SWAP1 POP JUMP JUMPDEST PUSH1 0x0 PUSH2 0x2239 PUSH2 0x2234 PUSH2 0x222F DUP5 PUSH2 0x1E1D JUMP JUMPDEST PUSH2 0x2214 JUMP JUMPDEST PUSH2 0x1E1D JUMP JUMPDEST SWAP1 POP SWAP2 SWAP1 POP JUMP JUMPDEST PUSH1 0x0 PUSH2 0x224B DUP3 PUSH2 0x221E JUMP JUMPDEST SWAP1 POP SWAP2 SWAP1 POP JUMP JUMPDEST PUSH1 0x0 PUSH2 0x225D DUP3 PUSH2 0x2240 JUMP JUMPDEST SWAP1 POP SWAP2 SWAP1 POP JUMP JUMPDEST PUSH2 0x226D DUP2 PUSH2 0x2252 JUMP JUMPDEST DUP3 MSTORE POP POP JUMP JUMPDEST PUSH1 0x0 PUSH1 0x20 DUP3 ADD SWAP1 POP PUSH2 0x2288 PUSH1 0x0 DUP4 ADD DUP5 PUSH2 0x2264 JUMP JUMPDEST SWAP3 SWAP2 POP POP JUMP JUMPDEST PUSH2 0x2297 DUP2 PUSH2 0x1E3D JUMP JUMPDEST DUP3 MSTORE POP POP JUMP JUMPDEST PUSH1 0x0 PUSH1 0x20 DUP3 ADD SWAP1 POP PUSH2 0x22B2 PUSH1 0x0 DUP4 ADD DUP5 PUSH2 0x228E JUMP JUMPDEST SWAP3 SWAP2 POP POP JUMP JUMPDEST PUSH1 0x0 PUSH2 0x22C3 DUP3 PUSH2 0x1E3D JUMP JUMPDEST SWAP1 POP SWAP2 SWAP1 POP JUMP JUMPDEST PUSH2 0x22D3 DUP2 PUSH2 0x22B8 JUMP JUMPDEST DUP2 EQ PUSH2 0x22DE JUMPI PUSH1 0x0 DUP1 REVERT JUMPDEST POP JUMP JUMPDEST PUSH1 0x0 DUP2 CALLDATALOAD SWAP1 POP PUSH2 0x22F0 DUP2 PUSH2 0x22CA JUMP JUMPDEST SWAP3 SWAP2 POP POP JUMP JUMPDEST PUSH1 0x0 PUSH1 0x20 DUP3 DUP5 SUB SLT ISZERO PUSH2 0x230C JUMPI PUSH2 0x230B PUSH2 0x1DDD JUMP JUMPDEST JUMPDEST PUSH1 0x0 PUSH2 0x231A DUP5 DUP3 DUP6 ADD PUSH2 0x22E1 JUMP JUMPDEST SWAP2 POP POP SWAP3 SWAP2 POP POP JUMP JUMPDEST PUSH1 0x0 DUP1 PUSH1 0x0 DUP1 PUSH1 0x80 DUP6 DUP8 SUB SLT ISZERO PUSH2 0x233D JUMPI PUSH2 0x233C PUSH2 0x1DDD JUMP JUMPDEST JUMPDEST PUSH1 0x0 PUSH2 0x234B DUP8 DUP3 DUP9 ADD PUSH2 0x1E08 JUMP JUMPDEST SWAP5 POP POP PUSH1 0x20 PUSH2 0x235C DUP8 DUP3 DUP9 ADD PUSH2 0x1F33 JUMP JUMPDEST SWAP4 POP POP PUSH1 0x40 PUSH2 0x236D DUP8 DUP3 DUP9 ADD PUSH2 0x1E08 JUMP JUMPDEST SWAP3 POP POP PUSH1 0x60 PUSH2 0x237E DUP8 DUP3 DUP9 ADD PUSH2 0x1F71 JUMP JUMPDEST SWAP2 POP POP SWAP3 SWAP6 SWAP2 SWAP5 POP SWAP3 POP JUMP JUMPDEST PUSH1 0x0 DUP1 REVERT JUMPDEST PUSH1 0x0 PUSH2 0x239A DUP3 PUSH2 0x1E3D JUMP JUMPDEST SWAP1 POP SWAP2 SWAP1 POP JUMP JUMPDEST PUSH2 0x23AA DUP2 PUSH2 0x238F JUMP JUMPDEST DUP2 EQ PUSH2 0x23B5 JUMPI PUSH1 0x0 DUP1 REVERT JUMPDEST POP JUMP JUMPDEST PUSH1 0x0 DUP2 MLOAD SWAP1 POP PUSH2 0x23C7 DUP2 PUSH2 0x23A1 JUMP JUMPDEST SWAP3 SWAP2 POP POP JUMP JUMPDEST PUSH1 0x0 DUP2 MLOAD SWAP1 POP PUSH2 0x23DC DUP2 PUSH2 0x1DF1 JUMP JUMPDEST SWAP3 SWAP2 POP POP JUMP JUMPDEST PUSH1 0x0 PUSH2 0x23ED DUP3 PUSH2 0x1E3D JUMP JUMPDEST SWAP1 POP SWAP2 SWAP1 POP JUMP JUMPDEST PUSH2 0x23FD DUP2 PUSH2 0x23E2 JUMP JUMPDEST DUP2 EQ PUSH2 0x2408 JUMPI PUSH1 0x0 DUP1 REVERT JUMPDEST POP JUMP JUMPDEST PUSH1 0x0 DUP2 MLOAD SWAP1 POP PUSH2 0x241A DUP2 PUSH2 0x23F4 JUMP JUMPDEST SWAP3 SWAP2 POP POP JUMP JUMPDEST PUSH1 0x0 PUSH1 0xC0 DUP3 DUP5 SUB SLT ISZERO PUSH2 0x2436 JUMPI PUSH2 0x2435 PUSH2 0x238A JUMP JUMPDEST JUMPDEST PUSH2 0x2440 PUSH1 0xC0 PUSH2 0x204F JUMP JUMPDEST SWAP1 POP PUSH1 0x0 PUSH2 0x2450 DUP5 DUP3 DUP6 ADD PUSH2 0x23B8 JUMP JUMPDEST PUSH1 0x0 DUP4 ADD MSTORE POP PUSH1 0x20 PUSH2 0x2464 DUP5 DUP3 DUP6 ADD PUSH2 0x23CD JUMP JUMPDEST PUSH1 0x20 DUP4 ADD MSTORE POP PUSH1 0x40 PUSH2 0x2478 DUP5 DUP3 DUP6 ADD PUSH2 0x23CD JUMP JUMPDEST PUSH1 0x40 DUP4 ADD MSTORE POP PUSH1 0x60 PUSH2 0x248C DUP5 DUP3 DUP6 ADD PUSH2 0x23CD JUMP JUMPDEST PUSH1 0x60 DUP4 ADD MSTORE POP PUSH1 0x80 PUSH2 0x24A0 DUP5 DUP3 DUP6 ADD PUSH2 0x240B JUMP JUMPDEST PUSH1 0x80 DUP4 ADD MSTORE POP PUSH1 0xA0 PUSH2 0x24B4 DUP5 DUP3 DUP6 ADD PUSH2 0x23B8 JUMP JUMPDEST PUSH1 0xA0 DUP4 ADD MSTORE POP SWAP3 SWAP2 POP POP JUMP JUMPDEST PUSH1 0x0 PUSH1 0xC0 DUP3 DUP5 SUB SLT ISZERO PUSH2 0x24D6 JUMPI PUSH2 0x24D5 PUSH2 0x1DDD JUMP JUMPDEST JUMPDEST PUSH1 0x0 PUSH2 0x24E4 DUP5 DUP3 DUP6 ADD PUSH2 0x2420 JUMP JUMPDEST SWAP2 POP POP SWAP3 SWAP2 POP POP JUMP JUMPDEST PUSH1 0x0 PUSH1 0x20 DUP3 DUP5 SUB SLT ISZERO PUSH2 0x2503 JUMPI PUSH2 0x2502 PUSH2 0x1DDD JUMP JUMPDEST JUMPDEST PUSH1 0x0 PUSH2 0x2511 DUP5 DUP3 DUP6 ADD PUSH2 0x23CD JUMP JUMPDEST SWAP2 POP POP SWAP3 SWAP2 POP POP JUMP JUMPDEST PUSH32 0x4E487B7100000000000000000000000000000000000000000000000000000000 PUSH1 0x0 MSTORE PUSH1 0x11 PUSH1 0x4 MSTORE PUSH1 0x24 PUSH1 0x0 REVERT JUMPDEST PUSH1 0x0 PUSH2 0x2554 DUP3 PUSH2 0x1DE7 JUMP JUMPDEST SWAP2 POP PUSH2 0x255F DUP4 PUSH2 0x1DE7 JUMP JUMPDEST SWAP3 POP DUP2 PUSH32 0xFFFFFFFFFFFFFFFFFFFFFFFFFFFFFFFFFFFFFFFFFFFFFFFFFFFFFFFFFFFFFFFF DIV DUP4 GT DUP3 ISZERO ISZERO AND ISZERO PUSH2 0x2598 JUMPI PUSH2 0x2597 PUSH2 0x251A JUMP JUMPDEST JUMPDEST DUP3 DUP3 MUL SWAP1 POP SWAP3 SWAP2 POP POP JUMP JUMPDEST PUSH32 0x4E487B7100000000000000000000000000000000000000000000000000000000 PUSH1 0x0 MSTORE PUSH1 0x12 PUSH1 0x4 MSTORE PUSH1 0x24 PUSH1 0x0 REVERT JUMPDEST PUSH1 0x0 PUSH2 0x25DD DUP3 PUSH2 0x1DE7 JUMP JUMPDEST SWAP2 POP PUSH2 0x25E8 DUP4 PUSH2 0x1DE7 JUMP JUMPDEST SWAP3 POP DUP3 PUSH2 0x25F8 JUMPI PUSH2 0x25F7 PUSH2 0x25A3 JUMP JUMPDEST JUMPDEST DUP3 DUP3 DIV SWAP1 POP SWAP3 SWAP2 POP POP JUMP JUMPDEST PUSH32 0x4E487B7100000000000000000000000000000000000000000000000000000000 PUSH1 0x0 MSTORE PUSH1 0x32 PUSH1 0x4 MSTORE PUSH1 0x24 PUSH1 0x0 REVERT JUMPDEST PUSH1 0x0 PUSH2 0x263D DUP3 PUSH2 0x1DE7 JUMP JUMPDEST SWAP2 POP PUSH2 0x2648 DUP4 PUSH2 0x1DE7 JUMP JUMPDEST SWAP3 POP DUP3 PUSH32 0xFFFFFFFFFFFFFFFFFFFFFFFFFFFFFFFFFFFFFFFFFFFFFFFFFFFFFFFFFFFFFFFF SUB DUP3 GT ISZERO PUSH2 0x267D JUMPI PUSH2 0x267C PUSH2 0x251A JUMP JUMPDEST JUMPDEST DUP3 DUP3 ADD SWAP1 POP SWAP3 SWAP2 POP POP JUMP JUMPDEST PUSH1 0x0 PUSH2 0x2693 DUP3 PUSH2 0x1DE7 JUMP JUMPDEST SWAP2 POP PUSH32 0xFFFFFFFFFFFFFFFFFFFFFFFFFFFFFFFFFFFFFFFFFFFFFFFFFFFFFFFFFFFFFFFF DUP3 SUB PUSH2 0x26C5 JUMPI PUSH2 0x26C4 PUSH2 0x251A JUMP JUMPDEST JUMPDEST PUSH1 0x1 DUP3 ADD SWAP1 POP SWAP2 SWAP1 POP JUMP JUMPDEST PUSH1 0x0 DUP2 MLOAD SWAP1 POP SWAP2 SWAP1 POP JUMP JUMPDEST PUSH1 0x0 DUP3 DUP3 MSTORE PUSH1 0x20 DUP3 ADD SWAP1 POP SWAP3 SWAP2 POP POP JUMP JUMPDEST PUSH1 0x0 DUP2 SWAP1 POP PUSH1 0x20 DUP3 ADD SWAP1 POP SWAP2 SWAP1 POP JUMP JUMPDEST PUSH2 0x2705 DUP2 PUSH2 0x1E3D JUMP JUMPDEST DUP3 MSTORE POP POP JUMP JUMPDEST PUSH1 0x0 PUSH2 0x2717 DUP4 DUP4 PUSH2 0x26FC JUMP JUMPDEST PUSH1 0x20 DUP4 ADD SWAP1 POP SWAP3 SWAP2 POP POP JUMP JUMPDEST PUSH1 0x0 PUSH1 0x20 DUP3 ADD SWAP1 POP SWAP2 SWAP1 POP JUMP JUMPDEST PUSH1 0x0 PUSH2 0x273B DUP3 PUSH2 0x26D0 JUMP JUMPDEST PUSH2 0x2745 DUP2 DUP6 PUSH2 0x26DB JUMP JUMPDEST SWAP4 POP PUSH2 0x2750 DUP4 PUSH2 0x26EC JUMP JUMPDEST DUP1 PUSH1 0x0 JUMPDEST DUP4 DUP2 LT ISZERO PUSH2 0x2781 JUMPI DUP2 MLOAD PUSH2 0x2768 DUP9 DUP3 PUSH2 0x270B JUMP JUMPDEST SWAP8 POP PUSH2 0x2773 DUP4 PUSH2 0x2723 JUMP JUMPDEST SWAP3 POP POP PUSH1 0x1 DUP2 ADD SWAP1 POP PUSH2 0x2754 JUMP JUMPDEST POP DUP6 SWAP4 POP POP POP POP SWAP3 SWAP2 POP POP JUMP JUMPDEST PUSH1 0x0 PUSH1 0x40 DUP3 ADD SWAP1 POP PUSH2 0x27A3 PUSH1 0x0 DUP4 ADD DUP6 PUSH2 0x1EE0 JUMP JUMPDEST DUP2 DUP2 SUB PUSH1 0x20 DUP4 ADD MSTORE PUSH2 0x27B5 DUP2 DUP5 PUSH2 0x2730 JUMP JUMPDEST SWAP1 POP SWAP4 SWAP3 POP POP POP JUMP JUMPDEST PUSH1 0x0 PUSH8 0xFFFFFFFFFFFFFFFF DUP3 GT ISZERO PUSH2 0x27D9 JUMPI PUSH2 0x27D8 PUSH2 0x1FEF JUMP JUMPDEST JUMPDEST PUSH1 0x20 DUP3 MUL SWAP1 POP PUSH1 0x20 DUP2 ADD SWAP1 POP SWAP2 SWAP1 POP JUMP JUMPDEST PUSH1 0x0 PUSH2 0x27FD PUSH2 0x27F8 DUP5 PUSH2 0x27BE JUMP JUMPDEST PUSH2 0x204F JUMP JUMPDEST SWAP1 POP DUP1 DUP4 DUP3 MSTORE PUSH1 0x20 DUP3 ADD SWAP1 POP PUSH1 0x20 DUP5 MUL DUP4 ADD DUP6 DUP2 GT ISZERO PUSH2 0x2820 JUMPI PUSH2 0x281F PUSH2 0x2096 JUMP JUMPDEST JUMPDEST DUP4 JUMPDEST DUP2 DUP2 LT ISZERO PUSH2 0x2849 JUMPI DUP1 PUSH2 0x2835 DUP9 DUP3 PUSH2 0x23CD JUMP JUMPDEST DUP5 MSTORE PUSH1 0x20 DUP5 ADD SWAP4 POP POP PUSH1 0x20 DUP2 ADD SWAP1 POP PUSH2 0x2822 JUMP JUMPDEST POP POP POP SWAP4 SWAP3 POP POP POP JUMP JUMPDEST PUSH1 0x0 DUP3 PUSH1 0x1F DUP4 ADD SLT PUSH2 0x2868 JUMPI PUSH2 0x2867 PUSH2 0x1FD9 JUMP JUMPDEST JUMPDEST DUP2 MLOAD PUSH2 0x2878 DUP5 DUP3 PUSH1 0x20 DUP7 ADD PUSH2 0x27EA JUMP JUMPDEST SWAP2 POP POP SWAP3 SWAP2 POP POP JUMP JUMPDEST PUSH1 0x0 PUSH1 0x20 DUP3 DUP5 SUB SLT ISZERO PUSH2 0x2897 JUMPI PUSH2 0x2896 PUSH2 0x1DDD JUMP JUMPDEST JUMPDEST PUSH1 0x0 DUP3 ADD MLOAD PUSH8 0xFFFFFFFFFFFFFFFF DUP2 GT ISZERO PUSH2 0x28B5 JUMPI PUSH2 0x28B4 PUSH2 0x1DE2 JUMP JUMPDEST JUMPDEST PUSH2 0x28C1 DUP5 DUP3 DUP6 ADD PUSH2 0x2853 JUMP JUMPDEST SWAP2 POP POP SWAP3 SWAP2 POP POP JUMP JUMPDEST PUSH1 0x0 PUSH1 0x20 DUP3 DUP5 SUB SLT ISZERO PUSH2 0x28E0 JUMPI PUSH2 0x28DF PUSH2 0x1DDD JUMP JUMPDEST JUMPDEST PUSH1 0x0 PUSH2 0x28EE DUP5 DUP3 DUP6 ADD PUSH2 0x23B8 JUMP JUMPDEST SWAP2 POP POP SWAP3 SWAP2 POP POP JUMP JUMPDEST PUSH1 0x0 DUP3 DUP3 MSTORE PUSH1 0x20 DUP3 ADD SWAP1 POP SWAP3 SWAP2 POP POP JUMP JUMPDEST PUSH32 0x4F776E61626C653A2063616C6C6572206973206E6F7420746865206F776E6572 PUSH1 0x0 DUP3 ADD MSTORE POP JUMP JUMPDEST PUSH1 0x0 PUSH2 0x293E PUSH1 0x20 DUP4 PUSH2 0x28F7 JUMP JUMPDEST SWAP2 POP PUSH2 0x2949 DUP3 PUSH2 0x2908 JUMP JUMPDEST PUSH1 0x20 DUP3 ADD SWAP1 POP SWAP2 SWAP1 POP JUMP JUMPDEST PUSH1 0x0 PUSH1 0x20 DUP3 ADD SWAP1 POP DUP2 DUP2 SUB PUSH1 0x0 DUP4 ADD MSTORE PUSH2 0x296D DUP2 PUSH2 0x2931 JUMP JUMPDEST SWAP1 POP SWAP2 SWAP1 POP JUMP JUMPDEST PUSH1 0x0 DUP2 MLOAD SWAP1 POP PUSH2 0x2983 DUP2 PUSH2 0x218E JUMP JUMPDEST SWAP3 SWAP2 POP POP JUMP JUMPDEST PUSH1 0x0 PUSH1 0x20 DUP3 DUP5 SUB SLT ISZERO PUSH2 0x299F JUMPI PUSH2 0x299E PUSH2 0x1DDD JUMP JUMPDEST JUMPDEST PUSH1 0x0 PUSH2 0x29AD DUP5 DUP3 DUP6 ADD PUSH2 0x2974 JUMP JUMPDEST SWAP2 POP POP SWAP3 SWAP2 POP POP JUMP JUMPDEST PUSH32 0x4F776E61626C653A206E6577206F776E657220697320746865207A65726F2061 PUSH1 0x0 DUP3 ADD MSTORE PUSH32 0x6464726573730000000000000000000000000000000000000000000000000000 PUSH1 0x20 DUP3 ADD MSTORE POP JUMP JUMPDEST PUSH1 0x0 PUSH2 0x2A12 PUSH1 0x26 DUP4 PUSH2 0x28F7 JUMP JUMPDEST SWAP2 POP PUSH2 0x2A1D DUP3 PUSH2 0x29B6 JUMP JUMPDEST PUSH1 0x40 DUP3 ADD SWAP1 POP SWAP2 SWAP1 POP JUMP JUMPDEST PUSH1 0x0 PUSH1 0x20 DUP3 ADD SWAP1 POP DUP2 DUP2 SUB PUSH1 0x0 DUP4 ADD MSTORE PUSH2 0x2A41 DUP2 PUSH2 0x2A05 JUMP JUMPDEST SWAP1 POP SWAP2 SWAP1 POP JUMP JUMPDEST PUSH32 0x536166654D6174683A206D756C7469706C69636174696F6E206F766572666C6F PUSH1 0x0 DUP3 ADD MSTORE PUSH32 0x7700000000000000000000000000000000000000000000000000000000000000 PUSH1 0x20 DUP3 ADD MSTORE POP JUMP JUMPDEST PUSH1 0x0 PUSH2 0x2AA4 PUSH1 0x21 DUP4 PUSH2 0x28F7 JUMP JUMPDEST SWAP2 POP PUSH2 0x2AAF DUP3 PUSH2 0x2A48 JUMP JUMPDEST PUSH1 0x40 DUP3 ADD SWAP1 POP SWAP2 SWAP1 POP JUMP JUMPDEST PUSH1 0x0 PUSH1 0x20 DUP3 ADD SWAP1 POP DUP2 DUP2 SUB PUSH1 0x0 DUP4 ADD MSTORE PUSH2 0x2AD3 DUP2 PUSH2 0x2A97 JUMP JUMPDEST SWAP1 POP SWAP2 SWAP1 POP JUMP JUMPDEST PUSH32 0x536166654D6174683A206164646974696F6E206F766572666C6F770000000000 PUSH1 0x0 DUP3 ADD MSTORE POP JUMP JUMPDEST PUSH1 0x0 PUSH2 0x2B10 PUSH1 0x1B DUP4 PUSH2 0x28F7 JUMP JUMPDEST SWAP2 POP PUSH2 0x2B1B DUP3 PUSH2 0x2ADA JUMP JUMPDEST PUSH1 0x20 DUP3 ADD SWAP1 POP SWAP2 SWAP1 POP JUMP JUMPDEST PUSH1 0x0 PUSH1 0x20 DUP3 ADD SWAP1 POP DUP2 DUP2 SUB PUSH1 0x0 DUP4 ADD MSTORE PUSH2 0x2B3F DUP2 PUSH2 0x2B03 JUMP JUMPDEST SWAP1 POP SWAP2 SWAP1 POP JUMP JUMPDEST PUSH1 0x0 DUP2 MLOAD SWAP1 POP SWAP2 SWAP1 POP JUMP JUMPDEST PUSH1 0x0 JUMPDEST DUP4 DUP2 LT ISZERO PUSH2 0x2B6F JUMPI DUP1 DUP3 ADD MLOAD DUP2 DUP5 ADD MSTORE PUSH1 0x20 DUP2 ADD SWAP1 POP PUSH2 0x2B54 JUMP JUMPDEST DUP4 DUP2 GT ISZERO PUSH2 0x2B7E JUMPI PUSH1 0x0 DUP5 DUP5 ADD MSTORE JUMPDEST POP POP POP POP JUMP JUMPDEST PUSH1 0x0 PUSH2 0x2B8F DUP3 PUSH2 0x2B46 JUMP JUMPDEST PUSH2 0x2B99 DUP2 DUP6 PUSH2 0x28F7 JUMP JUMPDEST SWAP4 POP PUSH2 0x2BA9 DUP2 DUP6 PUSH1 0x20 DUP7 ADD PUSH2 0x2B51 JUMP JUMPDEST PUSH2 0x2BB2 DUP2 PUSH2 0x1FDE JUMP JUMPDEST DUP5 ADD SWAP2 POP POP SWAP3 SWAP2 POP POP JUMP JUMPDEST PUSH1 0x0 PUSH1 0x20 DUP3 ADD SWAP1 POP DUP2 DUP2 SUB PUSH1 0x0 DUP4 ADD MSTORE PUSH2 0x2BD7 DUP2 DUP5 PUSH2 0x2B84 JUMP JUMPDEST SWAP1 POP SWAP3 SWAP2 POP POP JUMP INVALID LOG2 PUSH5 0x6970667358 0x22 SLT KECCAK256 SWAP6 0xB7 CALLER 0xEF DUP16 MOD LOG0 0xBE CODECOPY 0x4B 0xF6 GASPRICE SWAP12 SHR 0x2F POP 0xCC CALLVALUE SGT DUP10 PUSH7 0xF14CD69F77CD09 0x4D SHR 0x23 SWAP11 PUSH5 0x736F6C6343 STOP ADDMOD 0xF STOP CALLER "
				},
				"gasEstimates": {
					"creation": {
						"codeDepositCost": "2257000",
						"executionCost": "infinite",
						"totalCost": "infinite"
					},
					"external": {
						"BUSD()": "2537",
						"CalcApy(uint256,address,uint256,address)": "infinite",
						"CalcApyNFTFarm(uint256,uint256,address)": "infinite",
						"CalcLpPrice(address)": "infinite",
						"CalcTotalTVL(address,address[])": "infinite",
						"CalcTotalTVLNFTFarm(address,address[])": "infinite",
						"Tokenprice(address)": "infinite",
						"WBNB()": "2536",
						"WBNBPrice(address)": "infinite",
						"calcPoolTVLInUSD(uint256,address,uint256,address)": "infinite",
						"calcPoolTVLInUSDNFTFarm(address,uint256,address)": "infinite",
						"isLpAddress(address)": "infinite",
						"owner()": "2611",
						"renounceOwnership()": "30441",
						"routerAddress()": "infinite",
						"setRouter(address)": "27049",
						"transferOwnership(address)": "30830"
					}
				},
				"methodIdentifiers": {
					"BUSD()": "484f4ea9",
					"CalcApy(uint256,address,uint256,address)": "dbb79348",
					"CalcApyNFTFarm(uint256,uint256,address)": "0ce0e3f5",
					"CalcLpPrice(address)": "215cc989",
					"CalcTotalTVL(address,address[])": "55b44eaf",
					"CalcTotalTVLNFTFarm(address,address[])": "1858882b",
					"Tokenprice(address)": "19047f8a",
					"WBNB()": "8dd95002",
					"WBNBPrice(address)": "3b979d45",
					"calcPoolTVLInUSD(uint256,address,uint256,address)": "d979fb5f",
					"calcPoolTVLInUSDNFTFarm(address,uint256,address)": "1616f124",
					"isLpAddress(address)": "2f7c5980",
					"owner()": "8da5cb5b",
					"renounceOwnership()": "715018a6",
					"routerAddress()": "3268cc56",
					"setRouter(address)": "c0d78655",
					"transferOwnership(address)": "f2fde38b"
				}
			},
			"storageLayout": {
				"storage": [
					{
						"astId": 509,
						"contract": "contracts/Utils.sol:Utils",
						"label": "_owner",
						"offset": 0,
						"slot": "0",
						"type": "t_address"
					},
					{
						"astId": 800,
						"contract": "contracts/Utils.sol:Utils",
						"label": "WBNB",
						"offset": 0,
						"slot": "1",
						"type": "t_address"
					},
					{
						"astId": 802,
						"contract": "contracts/Utils.sol:Utils",
						"label": "BUSD",
						"offset": 0,
						"slot": "2",
						"type": "t_address"
					},
					{
						"astId": 805,
						"contract": "contracts/Utils.sol:Utils",
						"label": "amount",
						"offset": 0,
						"slot": "3",
						"type": "t_uint256"
					},
					{
						"astId": 808,
						"contract": "contracts/Utils.sol:Utils",
						"label": "routerAddress",
						"offset": 0,
						"slot": "4",
						"type": "t_contract(Router)651"
					},
					{
						"astId": 811,
						"contract": "contracts/Utils.sol:Utils",
						"label": "BLOCKS_PER_YEAR",
						"offset": 0,
						"slot": "5",
						"type": "t_uint256"
					}
				],
				"types": {
					"t_address": {
						"encoding": "inplace",
						"label": "address",
						"numberOfBytes": "20"
					},
					"t_contract(Router)651": {
						"encoding": "inplace",
						"label": "contract Router",
						"numberOfBytes": "20"
					},
					"t_uint256": {
						"encoding": "inplace",
						"label": "uint256",
						"numberOfBytes": "32"
					}
				}
			},
			"userdoc": {
				"kind": "user",
				"methods": {},
				"version": 1
			}
		}
	}
}