{
	"contracts/Utils.sol": {
		"Utils": {
			"abi": [
				{
					"inputs": [
						{
							"internalType": "contract Router",
							"name": "_routerAddress",
							"type": "address"
						},
						{
							"internalType": "address",
							"name": "_WBNB",
							"type": "address"
						},
						{
							"internalType": "address",
							"name": "_BUSD",
							"type": "address"
						}
					],
					"stateMutability": "nonpayable",
					"type": "constructor"
				},
				{
					"anonymous": false,
					"inputs": [
						{
							"indexed": true,
							"internalType": "address",
							"name": "previousOwner",
							"type": "address"
						},
						{
							"indexed": true,
							"internalType": "address",
							"name": "newOwner",
							"type": "address"
						}
					],
					"name": "OwnershipTransferred",
					"type": "event"
				},
				{
					"inputs": [],
					"name": "BUSD",
					"outputs": [
						{
							"internalType": "address",
							"name": "",
							"type": "address"
						}
					],
					"stateMutability": "view",
					"type": "function"
				},
				{
					"inputs": [
						{
							"internalType": "uint256",
							"name": "pid",
							"type": "uint256"
						},
						{
							"internalType": "contract LP",
							"name": "lpAddress",
							"type": "address"
						},
						{
							"internalType": "uint256",
							"name": "isLp",
							"type": "uint256"
						},
						{
							"internalType": "contract MetaMasterChef",
							"name": "MasterChef",
							"type": "address"
						}
					],
					"name": "CalcApy",
					"outputs": [
						{
							"internalType": "uint256",
							"name": "",
							"type": "uint256"
						}
					],
					"stateMutability": "view",
					"type": "function"
				},
				{
					"inputs": [
						{
							"internalType": "contract LP",
							"name": "lpAddress",
							"type": "address"
						}
					],
					"name": "CalcLpPrice",
					"outputs": [
						{
							"internalType": "uint256",
							"name": "",
							"type": "uint256"
						}
					],
					"stateMutability": "view",
					"type": "function"
				},
				{
					"inputs": [
						{
							"internalType": "contract MetaMasterChef",
							"name": "MasterChef",
							"type": "address"
						}
					],
					"name": "CalcTotalTVL",
					"outputs": [
						{
							"internalType": "uint256",
							"name": "",
							"type": "uint256"
						}
					],
					"stateMutability": "view",
					"type": "function"
				},
				{
					"inputs": [
						{
							"internalType": "address",
							"name": "token",
							"type": "address"
						}
					],
					"name": "Tokenprice",
					"outputs": [
						{
							"internalType": "uint256",
							"name": "",
							"type": "uint256"
						}
					],
					"stateMutability": "view",
					"type": "function"
				},
				{
					"inputs": [],
					"name": "WBNB",
					"outputs": [
						{
							"internalType": "address",
							"name": "",
							"type": "address"
						}
					],
					"stateMutability": "view",
					"type": "function"
				},
				{
					"inputs": [
						{
							"internalType": "address",
							"name": "token",
							"type": "address"
						}
					],
					"name": "WBNBPrice",
					"outputs": [
						{
							"internalType": "uint256",
							"name": "",
							"type": "uint256"
						}
					],
					"stateMutability": "view",
					"type": "function"
				},
				{
					"inputs": [
						{
							"internalType": "uint256",
							"name": "pid",
							"type": "uint256"
						},
						{
							"internalType": "contract LP",
							"name": "lpAddress",
							"type": "address"
						},
						{
							"internalType": "uint256",
							"name": "isLp",
							"type": "uint256"
						},
						{
							"internalType": "contract MetaMasterChef",
							"name": "MasterChef",
							"type": "address"
						}
					],
					"name": "calcPoolTVLInUSD",
					"outputs": [
						{
							"internalType": "uint256",
							"name": "",
							"type": "uint256"
						}
					],
					"stateMutability": "view",
					"type": "function"
				},
				{
					"inputs": [
						{
							"internalType": "contract IERC20",
							"name": "lpAddress",
							"type": "address"
						}
					],
					"name": "isLpAddress",
					"outputs": [
						{
							"internalType": "uint256",
							"name": "",
							"type": "uint256"
						}
					],
					"stateMutability": "view",
					"type": "function"
				},
				{
					"inputs": [],
					"name": "owner",
					"outputs": [
						{
							"internalType": "address",
							"name": "",
							"type": "address"
						}
					],
					"stateMutability": "view",
					"type": "function"
				},
				{
					"inputs": [],
					"name": "renounceOwnership",
					"outputs": [],
					"stateMutability": "nonpayable",
					"type": "function"
				},
				{
					"inputs": [],
					"name": "routerAddress",
					"outputs": [
						{
							"internalType": "contract Router",
							"name": "",
							"type": "address"
						}
					],
					"stateMutability": "view",
					"type": "function"
				},
				{
					"inputs": [
						{
							"internalType": "contract Router",
							"name": "_routerAddress",
							"type": "address"
						}
					],
					"name": "setRouter",
					"outputs": [],
					"stateMutability": "nonpayable",
					"type": "function"
				},
				{
					"inputs": [
						{
							"internalType": "address",
							"name": "newOwner",
							"type": "address"
						}
					],
					"name": "transferOwnership",
					"outputs": [],
					"stateMutability": "nonpayable",
					"type": "function"
				}
			],
			"devdoc": {
				"kind": "dev",
				"methods": {
					"owner()": {
						"details": "Returns the address of the current owner."
					},
					"renounceOwnership()": {
						"details": "Leaves the contract without owner. It will not be possible to call `onlyOwner` functions anymore. Can only be called by the current owner. NOTE: Renouncing ownership will leave the contract without an owner, thereby removing any functionality that is only available to the owner."
					},
					"transferOwnership(address)": {
						"details": "Transfers ownership of the contract to a new account (`newOwner`). Can only be called by the current owner."
					}
				},
				"version": 1
			},
			"evm": {
				"assembly": "    /* \"contracts/Utils.sol\":17379:21294  contract Utils is Ownable{... */\n  mstore(0x40, 0x80)\n    /* \"contracts/Utils.sol\":17629:17648  1000000000000000000 */\n  0x0de0b6b3a7640000\n    /* \"contracts/Utils.sol\":17612:17648  uint256 amount = 1000000000000000000 */\n  0x03\n  sstore\n    /* \"contracts/Utils.sol\":17717:17725  10512000 */\n  0xa06680\n    /* \"contracts/Utils.sol\":17691:17725  uint256 BLOCKS_PER_YEAR = 10512000 */\n  0x05\n  sstore\n    /* \"contracts/Utils.sol\":17735:17898  constructor(Router _routerAddress, address _WBNB, address _BUSD) {... */\n  callvalue\n  dup1\n  iszero\n  tag_1\n  jumpi\n  0x00\n  dup1\n  revert\ntag_1:\n  pop\n  mload(0x40)\n  sub(codesize, bytecodeSize)\n  dup1\n  bytecodeSize\n  dup4\n  codecopy\n  dup2\n  dup2\n  add\n  0x40\n  mstore\n  dup2\n  add\n  swap1\n  tag_2\n  swap2\n  swap1\n  tag_3\n  jump\t// in\ntag_2:\n    /* \"contracts/Utils.sol\":13728:13760  _transferOwnership(_msgSender()) */\n  tag_7\n    /* \"contracts/Utils.sol\":13747:13759  _msgSender() */\n  tag_8\n    /* \"contracts/Utils.sol\":13747:13757  _msgSender */\n  shl(0x20, tag_9)\n    /* \"contracts/Utils.sol\":13747:13759  _msgSender() */\n  0x20\n  shr\n  jump\t// in\ntag_8:\n    /* \"contracts/Utils.sol\":13728:13746  _transferOwnership */\n  shl(0x20, tag_10)\n    /* \"contracts/Utils.sol\":13728:13760  _transferOwnership(_msgSender()) */\n  0x20\n  shr\n  jump\t// in\ntag_7:\n    /* \"contracts/Utils.sol\":17828:17842  _routerAddress */\n  dup3\n    /* \"contracts/Utils.sol\":17812:17825  routerAddress */\n  0x04\n  0x00\n    /* \"contracts/Utils.sol\":17812:17842  routerAddress = _routerAddress */\n  0x0100\n  exp\n  dup2\n  sload\n  dup2\n  0xffffffffffffffffffffffffffffffffffffffff\n  mul\n  not\n  and\n  swap1\n  dup4\n  0xffffffffffffffffffffffffffffffffffffffff\n  and\n  mul\n  or\n  swap1\n  sstore\n  pop\n    /* \"contracts/Utils.sol\":17861:17866  _WBNB */\n  dup2\n    /* \"contracts/Utils.sol\":17854:17858  WBNB */\n  0x01\n  0x00\n    /* \"contracts/Utils.sol\":17854:17866  WBNB = _WBNB */\n  0x0100\n  exp\n  dup2\n  sload\n  dup2\n  0xffffffffffffffffffffffffffffffffffffffff\n  mul\n  not\n  and\n  swap1\n  dup4\n  0xffffffffffffffffffffffffffffffffffffffff\n  and\n  mul\n  or\n  swap1\n  sstore\n  pop\n    /* \"contracts/Utils.sol\":17885:17890  _BUSD */\n  dup1\n    /* \"contracts/Utils.sol\":17878:17882  BUSD */\n  0x02\n  0x00\n    /* \"contracts/Utils.sol\":17878:17890  BUSD = _BUSD */\n  0x0100\n  exp\n  dup2\n  sload\n  dup2\n  0xffffffffffffffffffffffffffffffffffffffff\n  mul\n  not\n  and\n  swap1\n  dup4\n  0xffffffffffffffffffffffffffffffffffffffff\n  and\n  mul\n  or\n  swap1\n  sstore\n  pop\n    /* \"contracts/Utils.sol\":17735:17898  constructor(Router _routerAddress, address _WBNB, address _BUSD) {... */\n  pop\n  pop\n  pop\n    /* \"contracts/Utils.sol\":17379:21294  contract Utils is Ownable{... */\n  jump(tag_12)\n    /* \"contracts/Utils.sol\":13223:13321  function _msgSender() internal view virtual returns (address) {... */\ntag_9:\n    /* \"contracts/Utils.sol\":13276:13283  address */\n  0x00\n    /* \"contracts/Utils.sol\":13303:13313  msg.sender */\n  caller\n    /* \"contracts/Utils.sol\":13296:13313  return msg.sender */\n  swap1\n  pop\n    /* \"contracts/Utils.sol\":13223:13321  function _msgSender() internal view virtual returns (address) {... */\n  swap1\n  jump\t// out\n    /* \"contracts/Utils.sol\":15119:15310  function _transferOwnership(address newOwner) internal virtual {... */\ntag_10:\n    /* \"contracts/Utils.sol\":15193:15209  address oldOwner */\n  0x00\n    /* \"contracts/Utils.sol\":15212:15218  _owner */\n  dup1\n  0x00\n  swap1\n  sload\n  swap1\n  0x0100\n  exp\n  swap1\n  div\n  0xffffffffffffffffffffffffffffffffffffffff\n  and\n    /* \"contracts/Utils.sol\":15193:15218  address oldOwner = _owner */\n  swap1\n  pop\n    /* \"contracts/Utils.sol\":15238:15246  newOwner */\n  dup2\n    /* \"contracts/Utils.sol\":15229:15235  _owner */\n  0x00\n  dup1\n    /* \"contracts/Utils.sol\":15229:15246  _owner = newOwner */\n  0x0100\n  exp\n  dup2\n  sload\n  dup2\n  0xffffffffffffffffffffffffffffffffffffffff\n  mul\n  not\n  and\n  swap1\n  dup4\n  0xffffffffffffffffffffffffffffffffffffffff\n  and\n  mul\n  or\n  swap1\n  sstore\n  pop\n    /* \"contracts/Utils.sol\":15293:15301  newOwner */\n  dup2\n    /* \"contracts/Utils.sol\":15262:15302  OwnershipTransferred(oldOwner, newOwner) */\n  0xffffffffffffffffffffffffffffffffffffffff\n  and\n    /* \"contracts/Utils.sol\":15283:15291  oldOwner */\n  dup2\n    /* \"contracts/Utils.sol\":15262:15302  OwnershipTransferred(oldOwner, newOwner) */\n  0xffffffffffffffffffffffffffffffffffffffff\n  and\n  0x8be0079c531659141344cd1fd0a4f28419497f9722a3daafe3b4186f6b6457e0\n  mload(0x40)\n  mload(0x40)\n  dup1\n  swap2\n  sub\n  swap1\n  log3\n    /* \"contracts/Utils.sol\":15182:15310  {... */\n  pop\n    /* \"contracts/Utils.sol\":15119:15310  function _transferOwnership(address newOwner) internal virtual {... */\n  pop\n  jump\t// out\n    /* \"#utility.yul\":88:205   */\ntag_16:\n    /* \"#utility.yul\":197:198   */\n  0x00\n    /* \"#utility.yul\":194:195   */\n  dup1\n    /* \"#utility.yul\":187:199   */\n  revert\n    /* \"#utility.yul\":334:460   */\ntag_18:\n    /* \"#utility.yul\":371:378   */\n  0x00\n    /* \"#utility.yul\":411:453   */\n  0xffffffffffffffffffffffffffffffffffffffff\n    /* \"#utility.yul\":404:409   */\n  dup3\n    /* \"#utility.yul\":400:454   */\n  and\n    /* \"#utility.yul\":389:454   */\n  swap1\n  pop\n    /* \"#utility.yul\":334:460   */\n  swap2\n  swap1\n  pop\n  jump\t// out\n    /* \"#utility.yul\":466:562   */\ntag_19:\n    /* \"#utility.yul\":503:510   */\n  0x00\n    /* \"#utility.yul\":532:556   */\n  tag_31\n    /* \"#utility.yul\":550:555   */\n  dup3\n    /* \"#utility.yul\":532:556   */\n  tag_18\n  jump\t// in\ntag_31:\n    /* \"#utility.yul\":521:556   */\n  swap1\n  pop\n    /* \"#utility.yul\":466:562   */\n  swap2\n  swap1\n  pop\n  jump\t// out\n    /* \"#utility.yul\":568:678   */\ntag_20:\n    /* \"#utility.yul\":619:626   */\n  0x00\n    /* \"#utility.yul\":648:672   */\n  tag_33\n    /* \"#utility.yul\":666:671   */\n  dup3\n    /* \"#utility.yul\":648:672   */\n  tag_19\n  jump\t// in\ntag_33:\n    /* \"#utility.yul\":637:672   */\n  swap1\n  pop\n    /* \"#utility.yul\":568:678   */\n  swap2\n  swap1\n  pop\n  jump\t// out\n    /* \"#utility.yul\":684:834   */\ntag_21:\n    /* \"#utility.yul\":771:809   */\n  tag_35\n    /* \"#utility.yul\":803:808   */\n  dup2\n    /* \"#utility.yul\":771:809   */\n  tag_20\n  jump\t// in\ntag_35:\n    /* \"#utility.yul\":764:769   */\n  dup2\n    /* \"#utility.yul\":761:810   */\n  eq\n    /* \"#utility.yul\":751:828   */\n  tag_36\n  jumpi\n    /* \"#utility.yul\":824:825   */\n  0x00\n    /* \"#utility.yul\":821:822   */\n  dup1\n    /* \"#utility.yul\":814:826   */\n  revert\n    /* \"#utility.yul\":751:828   */\ntag_36:\n    /* \"#utility.yul\":684:834   */\n  pop\n  jump\t// out\n    /* \"#utility.yul\":840:1011   */\ntag_22:\n    /* \"#utility.yul\":911:916   */\n  0x00\n    /* \"#utility.yul\":942:948   */\n  dup2\n    /* \"#utility.yul\":936:949   */\n  mload\n    /* \"#utility.yul\":927:949   */\n  swap1\n  pop\n    /* \"#utility.yul\":958:1005   */\n  tag_38\n    /* \"#utility.yul\":999:1004   */\n  dup2\n    /* \"#utility.yul\":958:1005   */\n  tag_21\n  jump\t// in\ntag_38:\n    /* \"#utility.yul\":840:1011   */\n  swap3\n  swap2\n  pop\n  pop\n  jump\t// out\n    /* \"#utility.yul\":1017:1139   */\ntag_23:\n    /* \"#utility.yul\":1090:1114   */\n  tag_40\n    /* \"#utility.yul\":1108:1113   */\n  dup2\n    /* \"#utility.yul\":1090:1114   */\n  tag_19\n  jump\t// in\ntag_40:\n    /* \"#utility.yul\":1083:1088   */\n  dup2\n    /* \"#utility.yul\":1080:1115   */\n  eq\n    /* \"#utility.yul\":1070:1133   */\n  tag_41\n  jumpi\n    /* \"#utility.yul\":1129:1130   */\n  0x00\n    /* \"#utility.yul\":1126:1127   */\n  dup1\n    /* \"#utility.yul\":1119:1131   */\n  revert\n    /* \"#utility.yul\":1070:1133   */\ntag_41:\n    /* \"#utility.yul\":1017:1139   */\n  pop\n  jump\t// out\n    /* \"#utility.yul\":1145:1288   */\ntag_24:\n    /* \"#utility.yul\":1202:1207   */\n  0x00\n    /* \"#utility.yul\":1233:1239   */\n  dup2\n    /* \"#utility.yul\":1227:1240   */\n  mload\n    /* \"#utility.yul\":1218:1240   */\n  swap1\n  pop\n    /* \"#utility.yul\":1249:1282   */\n  tag_43\n    /* \"#utility.yul\":1276:1281   */\n  dup2\n    /* \"#utility.yul\":1249:1282   */\n  tag_23\n  jump\t// in\ntag_43:\n    /* \"#utility.yul\":1145:1288   */\n  swap3\n  swap2\n  pop\n  pop\n  jump\t// out\n    /* \"#utility.yul\":1294:1985   */\ntag_3:\n    /* \"#utility.yul\":1396:1402   */\n  0x00\n    /* \"#utility.yul\":1404:1410   */\n  dup1\n    /* \"#utility.yul\":1412:1418   */\n  0x00\n    /* \"#utility.yul\":1461:1463   */\n  0x60\n    /* \"#utility.yul\":1449:1458   */\n  dup5\n    /* \"#utility.yul\":1440:1447   */\n  dup7\n    /* \"#utility.yul\":1436:1459   */\n  sub\n    /* \"#utility.yul\":1432:1464   */\n  slt\n    /* \"#utility.yul\":1429:1548   */\n  iszero\n  tag_45\n  jumpi\n    /* \"#utility.yul\":1467:1546   */\n  tag_46\n  tag_16\n  jump\t// in\ntag_46:\n    /* \"#utility.yul\":1429:1548   */\ntag_45:\n    /* \"#utility.yul\":1587:1588   */\n  0x00\n    /* \"#utility.yul\":1612:1690   */\n  tag_47\n    /* \"#utility.yul\":1682:1689   */\n  dup7\n    /* \"#utility.yul\":1673:1679   */\n  dup3\n    /* \"#utility.yul\":1662:1671   */\n  dup8\n    /* \"#utility.yul\":1658:1680   */\n  add\n    /* \"#utility.yul\":1612:1690   */\n  tag_22\n  jump\t// in\ntag_47:\n    /* \"#utility.yul\":1602:1690   */\n  swap4\n  pop\n    /* \"#utility.yul\":1558:1700   */\n  pop\n    /* \"#utility.yul\":1739:1741   */\n  0x20\n    /* \"#utility.yul\":1765:1829   */\n  tag_48\n    /* \"#utility.yul\":1821:1828   */\n  dup7\n    /* \"#utility.yul\":1812:1818   */\n  dup3\n    /* \"#utility.yul\":1801:1810   */\n  dup8\n    /* \"#utility.yul\":1797:1819   */\n  add\n    /* \"#utility.yul\":1765:1829   */\n  tag_24\n  jump\t// in\ntag_48:\n    /* \"#utility.yul\":1755:1829   */\n  swap3\n  pop\n    /* \"#utility.yul\":1710:1839   */\n  pop\n    /* \"#utility.yul\":1878:1880   */\n  0x40\n    /* \"#utility.yul\":1904:1968   */\n  tag_49\n    /* \"#utility.yul\":1960:1967   */\n  dup7\n    /* \"#utility.yul\":1951:1957   */\n  dup3\n    /* \"#utility.yul\":1940:1949   */\n  dup8\n    /* \"#utility.yul\":1936:1958   */\n  add\n    /* \"#utility.yul\":1904:1968   */\n  tag_24\n  jump\t// in\ntag_49:\n    /* \"#utility.yul\":1894:1968   */\n  swap2\n  pop\n    /* \"#utility.yul\":1849:1978   */\n  pop\n    /* \"#utility.yul\":1294:1985   */\n  swap3\n  pop\n  swap3\n  pop\n  swap3\n  jump\t// out\n    /* \"contracts/Utils.sol\":17379:21294  contract Utils is Ownable{... */\ntag_12:\n  dataSize(sub_0)\n  dup1\n  dataOffset(sub_0)\n  0x00\n  codecopy\n  0x00\n  return\nstop\n\nsub_0: assembly {\n        /* \"contracts/Utils.sol\":17379:21294  contract Utils is Ownable{... */\n      mstore(0x40, 0x80)\n      callvalue\n      dup1\n      iszero\n      tag_1\n      jumpi\n      0x00\n      dup1\n      revert\n    tag_1:\n      pop\n      jumpi(tag_2, lt(calldatasize, 0x04))\n      shr(0xe0, calldataload(0x00))\n      dup1\n      0x81c7f1fc\n      gt\n      tag_17\n      jumpi\n      dup1\n      0xc0d78655\n      gt\n      tag_18\n      jumpi\n      dup1\n      0xc0d78655\n      eq\n      tag_13\n      jumpi\n      dup1\n      0xd979fb5f\n      eq\n      tag_14\n      jumpi\n      dup1\n      0xdbb79348\n      eq\n      tag_15\n      jumpi\n      dup1\n      0xf2fde38b\n      eq\n      tag_16\n      jumpi\n      jump(tag_2)\n    tag_18:\n      dup1\n      0x81c7f1fc\n      eq\n      tag_10\n      jumpi\n      dup1\n      0x8da5cb5b\n      eq\n      tag_11\n      jumpi\n      dup1\n      0x8dd95002\n      eq\n      tag_12\n      jumpi\n      jump(tag_2)\n    tag_17:\n      dup1\n      0x3268cc56\n      gt\n      tag_19\n      jumpi\n      dup1\n      0x3268cc56\n      eq\n      tag_6\n      jumpi\n      dup1\n      0x3b979d45\n      eq\n      tag_7\n      jumpi\n      dup1\n      0x484f4ea9\n      eq\n      tag_8\n      jumpi\n      dup1\n      0x715018a6\n      eq\n      tag_9\n      jumpi\n      jump(tag_2)\n    tag_19:\n      dup1\n      0x19047f8a\n      eq\n      tag_3\n      jumpi\n      dup1\n      0x215cc989\n      eq\n      tag_4\n      jumpi\n      dup1\n      0x2f7c5980\n      eq\n      tag_5\n      jumpi\n    tag_2:\n      0x00\n      dup1\n      revert\n        /* \"contracts/Utils.sol\":18038:18297  function Tokenprice(address token) public view returns(uint256){... */\n    tag_3:\n      tag_20\n      0x04\n      dup1\n      calldatasize\n      sub\n      dup2\n      add\n      swap1\n      tag_21\n      swap2\n      swap1\n      tag_22\n      jump\t// in\n    tag_21:\n      tag_23\n      jump\t// in\n    tag_20:\n      mload(0x40)\n      tag_24\n      swap2\n      swap1\n      tag_25\n      jump\t// in\n    tag_24:\n      mload(0x40)\n      dup1\n      swap2\n      sub\n      swap1\n      return\n        /* \"contracts/Utils.sol\":18580:19428  function CalcLpPrice(LP lpAddress) public view returns(uint256){... */\n    tag_4:\n      tag_26\n      0x04\n      dup1\n      calldatasize\n      sub\n      dup2\n      add\n      swap1\n      tag_27\n      swap2\n      swap1\n      tag_28\n      jump\t// in\n    tag_27:\n      tag_29\n      jump\t// in\n    tag_26:\n      mload(0x40)\n      tag_30\n      swap2\n      swap1\n      tag_25\n      jump\t// in\n    tag_30:\n      mload(0x40)\n      dup1\n      swap2\n      sub\n      swap1\n      return\n        /* \"contracts/Utils.sol\":20740:20923  function isLpAddress(IERC20 lpAddress) public view returns(uint256){... */\n    tag_5:\n      tag_31\n      0x04\n      dup1\n      calldatasize\n      sub\n      dup2\n      add\n      swap1\n      tag_32\n      swap2\n      swap1\n      tag_33\n      jump\t// in\n    tag_32:\n      tag_34\n      jump\t// in\n    tag_31:\n      mload(0x40)\n      tag_35\n      swap2\n      swap1\n      tag_25\n      jump\t// in\n    tag_35:\n      mload(0x40)\n      dup1\n      swap2\n      sub\n      swap1\n      return\n        /* \"contracts/Utils.sol\":17655:17682  Router public routerAddress */\n    tag_6:\n      tag_36\n      tag_37\n      jump\t// in\n    tag_36:\n      mload(0x40)\n      tag_38\n      swap2\n      swap1\n      tag_39\n      jump\t// in\n    tag_38:\n      mload(0x40)\n      dup1\n      swap2\n      sub\n      swap1\n      return\n        /* \"contracts/Utils.sol\":18322:18555  function WBNBPrice(address token) public view returns(uint256){... */\n    tag_7:\n      tag_40\n      0x04\n      dup1\n      calldatasize\n      sub\n      dup2\n      add\n      swap1\n      tag_41\n      swap2\n      swap1\n      tag_22\n      jump\t// in\n    tag_41:\n      tag_42\n      jump\t// in\n    tag_40:\n      mload(0x40)\n      tag_43\n      swap2\n      swap1\n      tag_25\n      jump\t// in\n    tag_43:\n      mload(0x40)\n      dup1\n      swap2\n      sub\n      swap1\n      return\n        /* \"contracts/Utils.sol\":17586:17605  address public BUSD */\n    tag_8:\n      tag_44\n      tag_45\n      jump\t// in\n    tag_44:\n      mload(0x40)\n      tag_46\n      swap2\n      swap1\n      tag_47\n      jump\t// in\n    tag_46:\n      mload(0x40)\n      dup1\n      swap2\n      sub\n      swap1\n      return\n        /* \"contracts/Utils.sol\":14500:14603  function renounceOwnership() public virtual onlyOwner {... */\n    tag_9:\n      tag_48\n      tag_49\n      jump\t// in\n    tag_48:\n      stop\n        /* \"contracts/Utils.sol\":20931:21291  function CalcTotalTVL(MetaMasterChef MasterChef) external view returns(uint256){... */\n    tag_10:\n      tag_50\n      0x04\n      dup1\n      calldatasize\n      sub\n      dup2\n      add\n      swap1\n      tag_51\n      swap2\n      swap1\n      tag_52\n      jump\t// in\n    tag_51:\n      tag_53\n      jump\t// in\n    tag_50:\n      mload(0x40)\n      tag_54\n      swap2\n      swap1\n      tag_25\n      jump\t// in\n    tag_54:\n      mload(0x40)\n      dup1\n      swap2\n      sub\n      swap1\n      return\n        /* \"contracts/Utils.sol\":13849:13936  function owner() public view virtual returns (address) {... */\n    tag_11:\n      tag_55\n      tag_56\n      jump\t// in\n    tag_55:\n      mload(0x40)\n      tag_57\n      swap2\n      swap1\n      tag_47\n      jump\t// in\n    tag_57:\n      mload(0x40)\n      dup1\n      swap2\n      sub\n      swap1\n      return\n        /* \"contracts/Utils.sol\":17560:17579  address public WBNB */\n    tag_12:\n      tag_58\n      tag_59\n      jump\t// in\n    tag_58:\n      mload(0x40)\n      tag_60\n      swap2\n      swap1\n      tag_47\n      jump\t// in\n    tag_60:\n      mload(0x40)\n      dup1\n      swap2\n      sub\n      swap1\n      return\n        /* \"contracts/Utils.sol\":17906:18013  function setRouter(Router _routerAddress) public onlyOwner{... */\n    tag_13:\n      tag_61\n      0x04\n      dup1\n      calldatasize\n      sub\n      dup2\n      add\n      swap1\n      tag_62\n      swap2\n      swap1\n      tag_63\n      jump\t// in\n    tag_62:\n      tag_64\n      jump\t// in\n    tag_61:\n      stop\n        /* \"contracts/Utils.sol\":19451:20022  function calcPoolTVLInUSD(uint256 pid, LP lpAddress, uint256 isLp, MetaMasterChef MasterChef) public view returns(uint256){... */\n    tag_14:\n      tag_65\n      0x04\n      dup1\n      calldatasize\n      sub\n      dup2\n      add\n      swap1\n      tag_66\n      swap2\n      swap1\n      tag_67\n      jump\t// in\n    tag_66:\n      tag_68\n      jump\t// in\n    tag_65:\n      mload(0x40)\n      tag_69\n      swap2\n      swap1\n      tag_25\n      jump\t// in\n    tag_69:\n      mload(0x40)\n      dup1\n      swap2\n      sub\n      swap1\n      return\n        /* \"contracts/Utils.sol\":20030:20732  function CalcApy(uint256 pid, LP lpAddress,uint256 isLp, MetaMasterChef MasterChef) external view returns(uint256){... */\n    tag_15:\n      tag_70\n      0x04\n      dup1\n      calldatasize\n      sub\n      dup2\n      add\n      swap1\n      tag_71\n      swap2\n      swap1\n      tag_67\n      jump\t// in\n    tag_71:\n      tag_72\n      jump\t// in\n    tag_70:\n      mload(0x40)\n      tag_73\n      swap2\n      swap1\n      tag_25\n      jump\t// in\n    tag_73:\n      mload(0x40)\n      dup1\n      swap2\n      sub\n      swap1\n      return\n        /* \"contracts/Utils.sol\":14758:14959  function transferOwnership(address newOwner) public virtual onlyOwner {... */\n    tag_16:\n      tag_74\n      0x04\n      dup1\n      calldatasize\n      sub\n      dup2\n      add\n      swap1\n      tag_75\n      swap2\n      swap1\n      tag_22\n      jump\t// in\n    tag_75:\n      tag_76\n      jump\t// in\n    tag_74:\n      stop\n        /* \"contracts/Utils.sol\":18038:18297  function Tokenprice(address token) public view returns(uint256){... */\n    tag_23:\n        /* \"contracts/Utils.sol\":18093:18100  uint256 */\n      0x00\n        /* \"contracts/Utils.sol\":18112:18133  address[] memory path */\n      dup1\n        /* \"contracts/Utils.sol\":18150:18151  3 */\n      0x03\n        /* \"contracts/Utils.sol\":18136:18152  new address[](3) */\n      0xffffffffffffffff\n      dup2\n      gt\n      iszero\n      tag_78\n      jumpi\n      tag_79\n      tag_80\n      jump\t// in\n    tag_79:\n    tag_78:\n      mload(0x40)\n      swap1\n      dup1\n      dup3\n      mstore\n      dup1\n      0x20\n      mul\n      0x20\n      add\n      dup3\n      add\n      0x40\n      mstore\n      dup1\n      iszero\n      tag_81\n      jumpi\n      dup2\n      0x20\n      add\n      0x20\n      dup3\n      mul\n      dup1\n      calldatasize\n      dup4\n      calldatacopy\n      dup1\n      dup3\n      add\n      swap2\n      pop\n      pop\n      swap1\n      pop\n    tag_81:\n      pop\n        /* \"contracts/Utils.sol\":18112:18152  address[] memory path = new address[](3) */\n      swap1\n      pop\n        /* \"contracts/Utils.sol\":18173:18178  token */\n      dup3\n        /* \"contracts/Utils.sol\":18163:18167  path */\n      dup2\n        /* \"contracts/Utils.sol\":18168:18169  0 */\n      0x00\n        /* \"contracts/Utils.sol\":18163:18170  path[0] */\n      dup2\n      mload\n      dup2\n      lt\n      tag_82\n      jumpi\n      tag_83\n      tag_84\n      jump\t// in\n    tag_83:\n    tag_82:\n      0x20\n      mul\n      0x20\n      add\n      add\n        /* \"contracts/Utils.sol\":18163:18178  path[0] = token */\n      swap1\n      0xffffffffffffffffffffffffffffffffffffffff\n      and\n      swap1\n      dup2\n      0xffffffffffffffffffffffffffffffffffffffff\n      and\n      dup2\n      mstore\n      pop\n      pop\n        /* \"contracts/Utils.sol\":18199:18203  WBNB */\n      0x01\n      0x00\n      swap1\n      sload\n      swap1\n      0x0100\n      exp\n      swap1\n      div\n      0xffffffffffffffffffffffffffffffffffffffff\n      and\n        /* \"contracts/Utils.sol\":18189:18193  path */\n      dup2\n        /* \"contracts/Utils.sol\":18194:18195  1 */\n      0x01\n        /* \"contracts/Utils.sol\":18189:18196  path[1] */\n      dup2\n      mload\n      dup2\n      lt\n      tag_85\n      jumpi\n      tag_86\n      tag_84\n      jump\t// in\n    tag_86:\n    tag_85:\n      0x20\n      mul\n      0x20\n      add\n      add\n        /* \"contracts/Utils.sol\":18189:18203  path[1] = WBNB */\n      swap1\n      0xffffffffffffffffffffffffffffffffffffffff\n      and\n      swap1\n      dup2\n      0xffffffffffffffffffffffffffffffffffffffff\n      and\n      dup2\n      mstore\n      pop\n      pop\n        /* \"contracts/Utils.sol\":18224:18228  BUSD */\n      0x02\n      0x00\n      swap1\n      sload\n      swap1\n      0x0100\n      exp\n      swap1\n      div\n      0xffffffffffffffffffffffffffffffffffffffff\n      and\n        /* \"contracts/Utils.sol\":18214:18218  path */\n      dup2\n        /* \"contracts/Utils.sol\":18219:18220  2 */\n      0x02\n        /* \"contracts/Utils.sol\":18214:18221  path[2] */\n      dup2\n      mload\n      dup2\n      lt\n      tag_87\n      jumpi\n      tag_88\n      tag_84\n      jump\t// in\n    tag_88:\n    tag_87:\n      0x20\n      mul\n      0x20\n      add\n      add\n        /* \"contracts/Utils.sol\":18214:18228  path[2] = BUSD */\n      swap1\n      0xffffffffffffffffffffffffffffffffffffffff\n      and\n      swap1\n      dup2\n      0xffffffffffffffffffffffffffffffffffffffff\n      and\n      dup2\n      mstore\n      pop\n      pop\n        /* \"contracts/Utils.sol\":18246:18259  routerAddress */\n      0x04\n      0x00\n      swap1\n      sload\n      swap1\n      0x0100\n      exp\n      swap1\n      div\n      0xffffffffffffffffffffffffffffffffffffffff\n      and\n        /* \"contracts/Utils.sol\":18246:18273  routerAddress.getAmountsOut */\n      0xffffffffffffffffffffffffffffffffffffffff\n      and\n      0xd06ca61f\n        /* \"contracts/Utils.sol\":18274:18280  amount */\n      sload(0x03)\n        /* \"contracts/Utils.sol\":18281:18285  path */\n      dup4\n        /* \"contracts/Utils.sol\":18246:18286  routerAddress.getAmountsOut(amount,path) */\n      mload(0x40)\n      dup4\n      0xffffffff\n      and\n      0xe0\n      shl\n      dup2\n      mstore\n      0x04\n      add\n      tag_89\n      swap3\n      swap2\n      swap1\n      tag_90\n      jump\t// in\n    tag_89:\n      0x00\n      mload(0x40)\n      dup1\n      dup4\n      sub\n      dup2\n      dup7\n      gas\n      staticcall\n      iszero\n      dup1\n      iszero\n      tag_92\n      jumpi\n      returndatasize\n      0x00\n      dup1\n      returndatacopy\n      revert(0x00, returndatasize)\n    tag_92:\n      pop\n      pop\n      pop\n      pop\n      mload(0x40)\n      returndatasize\n      0x00\n      dup3\n      returndatacopy\n      returndatasize\n      not(0x1f)\n      0x1f\n      dup3\n      add\n      and\n      dup3\n      add\n      dup1\n      0x40\n      mstore\n      pop\n      dup2\n      add\n      swap1\n      tag_93\n      swap2\n      swap1\n      tag_94\n      jump\t// in\n    tag_93:\n        /* \"contracts/Utils.sol\":18287:18288  2 */\n      0x02\n        /* \"contracts/Utils.sol\":18246:18289  routerAddress.getAmountsOut(amount,path)[2] */\n      dup2\n      mload\n      dup2\n      lt\n      tag_95\n      jumpi\n      tag_96\n      tag_84\n      jump\t// in\n    tag_96:\n    tag_95:\n      0x20\n      mul\n      0x20\n      add\n      add\n      mload\n        /* \"contracts/Utils.sol\":18239:18289  return routerAddress.getAmountsOut(amount,path)[2] */\n      swap2\n      pop\n      pop\n        /* \"contracts/Utils.sol\":18038:18297  function Tokenprice(address token) public view returns(uint256){... */\n      swap2\n      swap1\n      pop\n      jump\t// out\n        /* \"contracts/Utils.sol\":18580:19428  function CalcLpPrice(LP lpAddress) public view returns(uint256){... */\n    tag_29:\n        /* \"contracts/Utils.sol\":18635:18642  uint256 */\n      0x00\n        /* \"contracts/Utils.sol\":18654:18668  uint256 phase1 */\n      dup1\n        /* \"contracts/Utils.sol\":18679:18693  uint256 phase2 */\n      0x00\n        /* \"contracts/Utils.sol\":18732:18741  lpAddress */\n      dup4\n        /* \"contracts/Utils.sol\":18732:18748  lpAddress.token0 */\n      0xffffffffffffffffffffffffffffffffffffffff\n      and\n      0x0dfe1681\n        /* \"contracts/Utils.sol\":18732:18750  lpAddress.token0() */\n      mload(0x40)\n      dup2\n      0xffffffff\n      and\n      0xe0\n      shl\n      dup2\n      mstore\n      0x04\n      add\n      0x20\n      mload(0x40)\n      dup1\n      dup4\n      sub\n      dup2\n      dup7\n      gas\n      staticcall\n      iszero\n      dup1\n      iszero\n      tag_99\n      jumpi\n      returndatasize\n      0x00\n      dup1\n      returndatacopy\n      revert(0x00, returndatasize)\n    tag_99:\n      pop\n      pop\n      pop\n      pop\n      mload(0x40)\n      returndatasize\n      not(0x1f)\n      0x1f\n      dup3\n      add\n      and\n      dup3\n      add\n      dup1\n      0x40\n      mstore\n      pop\n      dup2\n      add\n      swap1\n      tag_100\n      swap2\n      swap1\n      tag_101\n      jump\t// in\n    tag_100:\n        /* \"contracts/Utils.sol\":18707:18751  address(WBNB) == address(lpAddress.token0()) */\n      0xffffffffffffffffffffffffffffffffffffffff\n      and\n        /* \"contracts/Utils.sol\":18715:18719  WBNB */\n      0x01\n      0x00\n      swap1\n      sload\n      swap1\n      0x0100\n      exp\n      swap1\n      div\n      0xffffffffffffffffffffffffffffffffffffffff\n      and\n        /* \"contracts/Utils.sol\":18707:18751  address(WBNB) == address(lpAddress.token0()) */\n      0xffffffffffffffffffffffffffffffffffffffff\n      and\n      sub\n        /* \"contracts/Utils.sol\":18704:19017  if(address(WBNB) == address(lpAddress.token0())){... */\n      tag_102\n      jumpi\n        /* \"contracts/Utils.sol\":18777:18869  lpAddress.token0().balanceOf(address(lpAddress)).mul(WBNBPrice(address(lpAddress.token0()))) */\n      tag_103\n        /* \"contracts/Utils.sol\":18830:18868  WBNBPrice(address(lpAddress.token0())) */\n      tag_104\n        /* \"contracts/Utils.sol\":18848:18857  lpAddress */\n      dup6\n        /* \"contracts/Utils.sol\":18848:18864  lpAddress.token0 */\n      0xffffffffffffffffffffffffffffffffffffffff\n      and\n      0x0dfe1681\n        /* \"contracts/Utils.sol\":18848:18866  lpAddress.token0() */\n      mload(0x40)\n      dup2\n      0xffffffff\n      and\n      0xe0\n      shl\n      dup2\n      mstore\n      0x04\n      add\n      0x20\n      mload(0x40)\n      dup1\n      dup4\n      sub\n      dup2\n      dup7\n      gas\n      staticcall\n      iszero\n      dup1\n      iszero\n      tag_106\n      jumpi\n      returndatasize\n      0x00\n      dup1\n      returndatacopy\n      revert(0x00, returndatasize)\n    tag_106:\n      pop\n      pop\n      pop\n      pop\n      mload(0x40)\n      returndatasize\n      not(0x1f)\n      0x1f\n      dup3\n      add\n      and\n      dup3\n      add\n      dup1\n      0x40\n      mstore\n      pop\n      dup2\n      add\n      swap1\n      tag_107\n      swap2\n      swap1\n      tag_101\n      jump\t// in\n    tag_107:\n        /* \"contracts/Utils.sol\":18830:18839  WBNBPrice */\n      tag_42\n        /* \"contracts/Utils.sol\":18830:18868  WBNBPrice(address(lpAddress.token0())) */\n      jump\t// in\n    tag_104:\n        /* \"contracts/Utils.sol\":18777:18786  lpAddress */\n      dup6\n        /* \"contracts/Utils.sol\":18777:18793  lpAddress.token0 */\n      0xffffffffffffffffffffffffffffffffffffffff\n      and\n      0x0dfe1681\n        /* \"contracts/Utils.sol\":18777:18795  lpAddress.token0() */\n      mload(0x40)\n      dup2\n      0xffffffff\n      and\n      0xe0\n      shl\n      dup2\n      mstore\n      0x04\n      add\n      0x20\n      mload(0x40)\n      dup1\n      dup4\n      sub\n      dup2\n      dup7\n      gas\n      staticcall\n      iszero\n      dup1\n      iszero\n      tag_109\n      jumpi\n      returndatasize\n      0x00\n      dup1\n      returndatacopy\n      revert(0x00, returndatasize)\n    tag_109:\n      pop\n      pop\n      pop\n      pop\n      mload(0x40)\n      returndatasize\n      not(0x1f)\n      0x1f\n      dup3\n      add\n      and\n      dup3\n      add\n      dup1\n      0x40\n      mstore\n      pop\n      dup2\n      add\n      swap1\n      tag_110\n      swap2\n      swap1\n      tag_101\n      jump\t// in\n    tag_110:\n        /* \"contracts/Utils.sol\":18777:18805  lpAddress.token0().balanceOf */\n      0xffffffffffffffffffffffffffffffffffffffff\n      and\n      0x70a08231\n        /* \"contracts/Utils.sol\":18814:18823  lpAddress */\n      dup8\n        /* \"contracts/Utils.sol\":18777:18825  lpAddress.token0().balanceOf(address(lpAddress)) */\n      mload(0x40)\n      dup3\n      0xffffffff\n      and\n      0xe0\n      shl\n      dup2\n      mstore\n      0x04\n      add\n      tag_111\n      swap2\n      swap1\n      tag_47\n      jump\t// in\n    tag_111:\n      0x20\n      mload(0x40)\n      dup1\n      dup4\n      sub\n      dup2\n      dup7\n      gas\n      staticcall\n      iszero\n      dup1\n      iszero\n      tag_113\n      jumpi\n      returndatasize\n      0x00\n      dup1\n      returndatacopy\n      revert(0x00, returndatasize)\n    tag_113:\n      pop\n      pop\n      pop\n      pop\n      mload(0x40)\n      returndatasize\n      not(0x1f)\n      0x1f\n      dup3\n      add\n      and\n      dup3\n      add\n      dup1\n      0x40\n      mstore\n      pop\n      dup2\n      add\n      swap1\n      tag_114\n      swap2\n      swap1\n      tag_115\n      jump\t// in\n    tag_114:\n        /* \"contracts/Utils.sol\":18777:18829  lpAddress.token0().balanceOf(address(lpAddress)).mul */\n      tag_116\n      swap1\n        /* \"contracts/Utils.sol\":18777:18869  lpAddress.token0().balanceOf(address(lpAddress)).mul(WBNBPrice(address(lpAddress.token0()))) */\n      swap2\n      swap1\n      0xffffffff\n      and\n      jump\t// in\n    tag_103:\n        /* \"contracts/Utils.sol\":18767:18870  phase1 = (lpAddress.token0().balanceOf(address(lpAddress)).mul(WBNBPrice(address(lpAddress.token0())))) */\n      swap2\n      pop\n        /* \"contracts/Utils.sol\":18704:19017  if(address(WBNB) == address(lpAddress.token0())){... */\n      jump(tag_117)\n    tag_102:\n        /* \"contracts/Utils.sol\":18911:19004  lpAddress.token0().balanceOf(address(lpAddress)).mul(Tokenprice(address(lpAddress.token0()))) */\n      tag_118\n        /* \"contracts/Utils.sol\":18964:19003  Tokenprice(address(lpAddress.token0())) */\n      tag_119\n        /* \"contracts/Utils.sol\":18983:18992  lpAddress */\n      dup6\n        /* \"contracts/Utils.sol\":18983:18999  lpAddress.token0 */\n      0xffffffffffffffffffffffffffffffffffffffff\n      and\n      0x0dfe1681\n        /* \"contracts/Utils.sol\":18983:19001  lpAddress.token0() */\n      mload(0x40)\n      dup2\n      0xffffffff\n      and\n      0xe0\n      shl\n      dup2\n      mstore\n      0x04\n      add\n      0x20\n      mload(0x40)\n      dup1\n      dup4\n      sub\n      dup2\n      dup7\n      gas\n      staticcall\n      iszero\n      dup1\n      iszero\n      tag_121\n      jumpi\n      returndatasize\n      0x00\n      dup1\n      returndatacopy\n      revert(0x00, returndatasize)\n    tag_121:\n      pop\n      pop\n      pop\n      pop\n      mload(0x40)\n      returndatasize\n      not(0x1f)\n      0x1f\n      dup3\n      add\n      and\n      dup3\n      add\n      dup1\n      0x40\n      mstore\n      pop\n      dup2\n      add\n      swap1\n      tag_122\n      swap2\n      swap1\n      tag_101\n      jump\t// in\n    tag_122:\n        /* \"contracts/Utils.sol\":18964:18974  Tokenprice */\n      tag_23\n        /* \"contracts/Utils.sol\":18964:19003  Tokenprice(address(lpAddress.token0())) */\n      jump\t// in\n    tag_119:\n        /* \"contracts/Utils.sol\":18911:18920  lpAddress */\n      dup6\n        /* \"contracts/Utils.sol\":18911:18927  lpAddress.token0 */\n      0xffffffffffffffffffffffffffffffffffffffff\n      and\n      0x0dfe1681\n        /* \"contracts/Utils.sol\":18911:18929  lpAddress.token0() */\n      mload(0x40)\n      dup2\n      0xffffffff\n      and\n      0xe0\n      shl\n      dup2\n      mstore\n      0x04\n      add\n      0x20\n      mload(0x40)\n      dup1\n      dup4\n      sub\n      dup2\n      dup7\n      gas\n      staticcall\n      iszero\n      dup1\n      iszero\n      tag_124\n      jumpi\n      returndatasize\n      0x00\n      dup1\n      returndatacopy\n      revert(0x00, returndatasize)\n    tag_124:\n      pop\n      pop\n      pop\n      pop\n      mload(0x40)\n      returndatasize\n      not(0x1f)\n      0x1f\n      dup3\n      add\n      and\n      dup3\n      add\n      dup1\n      0x40\n      mstore\n      pop\n      dup2\n      add\n      swap1\n      tag_125\n      swap2\n      swap1\n      tag_101\n      jump\t// in\n    tag_125:\n        /* \"contracts/Utils.sol\":18911:18939  lpAddress.token0().balanceOf */\n      0xffffffffffffffffffffffffffffffffffffffff\n      and\n      0x70a08231\n        /* \"contracts/Utils.sol\":18948:18957  lpAddress */\n      dup8\n        /* \"contracts/Utils.sol\":18911:18959  lpAddress.token0().balanceOf(address(lpAddress)) */\n      mload(0x40)\n      dup3\n      0xffffffff\n      and\n      0xe0\n      shl\n      dup2\n      mstore\n      0x04\n      add\n      tag_126\n      swap2\n      swap1\n      tag_47\n      jump\t// in\n    tag_126:\n      0x20\n      mload(0x40)\n      dup1\n      dup4\n      sub\n      dup2\n      dup7\n      gas\n      staticcall\n      iszero\n      dup1\n      iszero\n      tag_128\n      jumpi\n      returndatasize\n      0x00\n      dup1\n      returndatacopy\n      revert(0x00, returndatasize)\n    tag_128:\n      pop\n      pop\n      pop\n      pop\n      mload(0x40)\n      returndatasize\n      not(0x1f)\n      0x1f\n      dup3\n      add\n      and\n      dup3\n      add\n      dup1\n      0x40\n      mstore\n      pop\n      dup2\n      add\n      swap1\n      tag_129\n      swap2\n      swap1\n      tag_115\n      jump\t// in\n    tag_129:\n        /* \"contracts/Utils.sol\":18911:18963  lpAddress.token0().balanceOf(address(lpAddress)).mul */\n      tag_116\n      swap1\n        /* \"contracts/Utils.sol\":18911:19004  lpAddress.token0().balanceOf(address(lpAddress)).mul(Tokenprice(address(lpAddress.token0()))) */\n      swap2\n      swap1\n      0xffffffff\n      and\n      jump\t// in\n    tag_118:\n        /* \"contracts/Utils.sol\":18901:19005  phase1 = (lpAddress.token0().balanceOf(address(lpAddress)).mul(Tokenprice(address(lpAddress.token0())))) */\n      swap2\n      pop\n        /* \"contracts/Utils.sol\":18704:19017  if(address(WBNB) == address(lpAddress.token0())){... */\n    tag_117:\n        /* \"contracts/Utils.sol\":19057:19066  lpAddress */\n      dup4\n        /* \"contracts/Utils.sol\":19057:19073  lpAddress.token1 */\n      0xffffffffffffffffffffffffffffffffffffffff\n      and\n      0xd21220a7\n        /* \"contracts/Utils.sol\":19057:19075  lpAddress.token1() */\n      mload(0x40)\n      dup2\n      0xffffffff\n      and\n      0xe0\n      shl\n      dup2\n      mstore\n      0x04\n      add\n      0x20\n      mload(0x40)\n      dup1\n      dup4\n      sub\n      dup2\n      dup7\n      gas\n      staticcall\n      iszero\n      dup1\n      iszero\n      tag_131\n      jumpi\n      returndatasize\n      0x00\n      dup1\n      returndatacopy\n      revert(0x00, returndatasize)\n    tag_131:\n      pop\n      pop\n      pop\n      pop\n      mload(0x40)\n      returndatasize\n      not(0x1f)\n      0x1f\n      dup3\n      add\n      and\n      dup3\n      add\n      dup1\n      0x40\n      mstore\n      pop\n      dup2\n      add\n      swap1\n      tag_132\n      swap2\n      swap1\n      tag_101\n      jump\t// in\n    tag_132:\n        /* \"contracts/Utils.sol\":19032:19076  address(WBNB) == address(lpAddress.token1()) */\n      0xffffffffffffffffffffffffffffffffffffffff\n      and\n        /* \"contracts/Utils.sol\":19040:19044  WBNB */\n      0x01\n      0x00\n      swap1\n      sload\n      swap1\n      0x0100\n      exp\n      swap1\n      div\n      0xffffffffffffffffffffffffffffffffffffffff\n      and\n        /* \"contracts/Utils.sol\":19032:19076  address(WBNB) == address(lpAddress.token1()) */\n      0xffffffffffffffffffffffffffffffffffffffff\n      and\n      sub\n        /* \"contracts/Utils.sol\":19029:19342  if(address(WBNB) == address(lpAddress.token1())){... */\n      tag_133\n      jumpi\n        /* \"contracts/Utils.sol\":19102:19194  lpAddress.token1().balanceOf(address(lpAddress)).mul(WBNBPrice(address(lpAddress.token1()))) */\n      tag_134\n        /* \"contracts/Utils.sol\":19155:19193  WBNBPrice(address(lpAddress.token1())) */\n      tag_135\n        /* \"contracts/Utils.sol\":19173:19182  lpAddress */\n      dup6\n        /* \"contracts/Utils.sol\":19173:19189  lpAddress.token1 */\n      0xffffffffffffffffffffffffffffffffffffffff\n      and\n      0xd21220a7\n        /* \"contracts/Utils.sol\":19173:19191  lpAddress.token1() */\n      mload(0x40)\n      dup2\n      0xffffffff\n      and\n      0xe0\n      shl\n      dup2\n      mstore\n      0x04\n      add\n      0x20\n      mload(0x40)\n      dup1\n      dup4\n      sub\n      dup2\n      dup7\n      gas\n      staticcall\n      iszero\n      dup1\n      iszero\n      tag_137\n      jumpi\n      returndatasize\n      0x00\n      dup1\n      returndatacopy\n      revert(0x00, returndatasize)\n    tag_137:\n      pop\n      pop\n      pop\n      pop\n      mload(0x40)\n      returndatasize\n      not(0x1f)\n      0x1f\n      dup3\n      add\n      and\n      dup3\n      add\n      dup1\n      0x40\n      mstore\n      pop\n      dup2\n      add\n      swap1\n      tag_138\n      swap2\n      swap1\n      tag_101\n      jump\t// in\n    tag_138:\n        /* \"contracts/Utils.sol\":19155:19164  WBNBPrice */\n      tag_42\n        /* \"contracts/Utils.sol\":19155:19193  WBNBPrice(address(lpAddress.token1())) */\n      jump\t// in\n    tag_135:\n        /* \"contracts/Utils.sol\":19102:19111  lpAddress */\n      dup6\n        /* \"contracts/Utils.sol\":19102:19118  lpAddress.token1 */\n      0xffffffffffffffffffffffffffffffffffffffff\n      and\n      0xd21220a7\n        /* \"contracts/Utils.sol\":19102:19120  lpAddress.token1() */\n      mload(0x40)\n      dup2\n      0xffffffff\n      and\n      0xe0\n      shl\n      dup2\n      mstore\n      0x04\n      add\n      0x20\n      mload(0x40)\n      dup1\n      dup4\n      sub\n      dup2\n      dup7\n      gas\n      staticcall\n      iszero\n      dup1\n      iszero\n      tag_140\n      jumpi\n      returndatasize\n      0x00\n      dup1\n      returndatacopy\n      revert(0x00, returndatasize)\n    tag_140:\n      pop\n      pop\n      pop\n      pop\n      mload(0x40)\n      returndatasize\n      not(0x1f)\n      0x1f\n      dup3\n      add\n      and\n      dup3\n      add\n      dup1\n      0x40\n      mstore\n      pop\n      dup2\n      add\n      swap1\n      tag_141\n      swap2\n      swap1\n      tag_101\n      jump\t// in\n    tag_141:\n        /* \"contracts/Utils.sol\":19102:19130  lpAddress.token1().balanceOf */\n      0xffffffffffffffffffffffffffffffffffffffff\n      and\n      0x70a08231\n        /* \"contracts/Utils.sol\":19139:19148  lpAddress */\n      dup8\n        /* \"contracts/Utils.sol\":19102:19150  lpAddress.token1().balanceOf(address(lpAddress)) */\n      mload(0x40)\n      dup3\n      0xffffffff\n      and\n      0xe0\n      shl\n      dup2\n      mstore\n      0x04\n      add\n      tag_142\n      swap2\n      swap1\n      tag_47\n      jump\t// in\n    tag_142:\n      0x20\n      mload(0x40)\n      dup1\n      dup4\n      sub\n      dup2\n      dup7\n      gas\n      staticcall\n      iszero\n      dup1\n      iszero\n      tag_144\n      jumpi\n      returndatasize\n      0x00\n      dup1\n      returndatacopy\n      revert(0x00, returndatasize)\n    tag_144:\n      pop\n      pop\n      pop\n      pop\n      mload(0x40)\n      returndatasize\n      not(0x1f)\n      0x1f\n      dup3\n      add\n      and\n      dup3\n      add\n      dup1\n      0x40\n      mstore\n      pop\n      dup2\n      add\n      swap1\n      tag_145\n      swap2\n      swap1\n      tag_115\n      jump\t// in\n    tag_145:\n        /* \"contracts/Utils.sol\":19102:19154  lpAddress.token1().balanceOf(address(lpAddress)).mul */\n      tag_116\n      swap1\n        /* \"contracts/Utils.sol\":19102:19194  lpAddress.token1().balanceOf(address(lpAddress)).mul(WBNBPrice(address(lpAddress.token1()))) */\n      swap2\n      swap1\n      0xffffffff\n      and\n      jump\t// in\n    tag_134:\n        /* \"contracts/Utils.sol\":19092:19195  phase2 = (lpAddress.token1().balanceOf(address(lpAddress)).mul(WBNBPrice(address(lpAddress.token1())))) */\n      swap1\n      pop\n        /* \"contracts/Utils.sol\":19029:19342  if(address(WBNB) == address(lpAddress.token1())){... */\n      jump(tag_146)\n    tag_133:\n        /* \"contracts/Utils.sol\":19236:19329  lpAddress.token1().balanceOf(address(lpAddress)).mul(Tokenprice(address(lpAddress.token1()))) */\n      tag_147\n        /* \"contracts/Utils.sol\":19289:19328  Tokenprice(address(lpAddress.token1())) */\n      tag_148\n        /* \"contracts/Utils.sol\":19308:19317  lpAddress */\n      dup6\n        /* \"contracts/Utils.sol\":19308:19324  lpAddress.token1 */\n      0xffffffffffffffffffffffffffffffffffffffff\n      and\n      0xd21220a7\n        /* \"contracts/Utils.sol\":19308:19326  lpAddress.token1() */\n      mload(0x40)\n      dup2\n      0xffffffff\n      and\n      0xe0\n      shl\n      dup2\n      mstore\n      0x04\n      add\n      0x20\n      mload(0x40)\n      dup1\n      dup4\n      sub\n      dup2\n      dup7\n      gas\n      staticcall\n      iszero\n      dup1\n      iszero\n      tag_150\n      jumpi\n      returndatasize\n      0x00\n      dup1\n      returndatacopy\n      revert(0x00, returndatasize)\n    tag_150:\n      pop\n      pop\n      pop\n      pop\n      mload(0x40)\n      returndatasize\n      not(0x1f)\n      0x1f\n      dup3\n      add\n      and\n      dup3\n      add\n      dup1\n      0x40\n      mstore\n      pop\n      dup2\n      add\n      swap1\n      tag_151\n      swap2\n      swap1\n      tag_101\n      jump\t// in\n    tag_151:\n        /* \"contracts/Utils.sol\":19289:19299  Tokenprice */\n      tag_23\n        /* \"contracts/Utils.sol\":19289:19328  Tokenprice(address(lpAddress.token1())) */\n      jump\t// in\n    tag_148:\n        /* \"contracts/Utils.sol\":19236:19245  lpAddress */\n      dup6\n        /* \"contracts/Utils.sol\":19236:19252  lpAddress.token1 */\n      0xffffffffffffffffffffffffffffffffffffffff\n      and\n      0xd21220a7\n        /* \"contracts/Utils.sol\":19236:19254  lpAddress.token1() */\n      mload(0x40)\n      dup2\n      0xffffffff\n      and\n      0xe0\n      shl\n      dup2\n      mstore\n      0x04\n      add\n      0x20\n      mload(0x40)\n      dup1\n      dup4\n      sub\n      dup2\n      dup7\n      gas\n      staticcall\n      iszero\n      dup1\n      iszero\n      tag_153\n      jumpi\n      returndatasize\n      0x00\n      dup1\n      returndatacopy\n      revert(0x00, returndatasize)\n    tag_153:\n      pop\n      pop\n      pop\n      pop\n      mload(0x40)\n      returndatasize\n      not(0x1f)\n      0x1f\n      dup3\n      add\n      and\n      dup3\n      add\n      dup1\n      0x40\n      mstore\n      pop\n      dup2\n      add\n      swap1\n      tag_154\n      swap2\n      swap1\n      tag_101\n      jump\t// in\n    tag_154:\n        /* \"contracts/Utils.sol\":19236:19264  lpAddress.token1().balanceOf */\n      0xffffffffffffffffffffffffffffffffffffffff\n      and\n      0x70a08231\n        /* \"contracts/Utils.sol\":19273:19282  lpAddress */\n      dup8\n        /* \"contracts/Utils.sol\":19236:19284  lpAddress.token1().balanceOf(address(lpAddress)) */\n      mload(0x40)\n      dup3\n      0xffffffff\n      and\n      0xe0\n      shl\n      dup2\n      mstore\n      0x04\n      add\n      tag_155\n      swap2\n      swap1\n      tag_47\n      jump\t// in\n    tag_155:\n      0x20\n      mload(0x40)\n      dup1\n      dup4\n      sub\n      dup2\n      dup7\n      gas\n      staticcall\n      iszero\n      dup1\n      iszero\n      tag_157\n      jumpi\n      returndatasize\n      0x00\n      dup1\n      returndatacopy\n      revert(0x00, returndatasize)\n    tag_157:\n      pop\n      pop\n      pop\n      pop\n      mload(0x40)\n      returndatasize\n      not(0x1f)\n      0x1f\n      dup3\n      add\n      and\n      dup3\n      add\n      dup1\n      0x40\n      mstore\n      pop\n      dup2\n      add\n      swap1\n      tag_158\n      swap2\n      swap1\n      tag_115\n      jump\t// in\n    tag_158:\n        /* \"contracts/Utils.sol\":19236:19288  lpAddress.token1().balanceOf(address(lpAddress)).mul */\n      tag_116\n      swap1\n        /* \"contracts/Utils.sol\":19236:19329  lpAddress.token1().balanceOf(address(lpAddress)).mul(Tokenprice(address(lpAddress.token1()))) */\n      swap2\n      swap1\n      0xffffffff\n      and\n      jump\t// in\n    tag_147:\n        /* \"contracts/Utils.sol\":19226:19330  phase2 = (lpAddress.token1().balanceOf(address(lpAddress)).mul(Tokenprice(address(lpAddress.token1())))) */\n      swap1\n      pop\n        /* \"contracts/Utils.sol\":19029:19342  if(address(WBNB) == address(lpAddress.token1())){... */\n    tag_146:\n        /* \"contracts/Utils.sol\":19370:19419  (phase1.add(phase2)).div(lpAddress.totalSupply()) */\n      tag_159\n        /* \"contracts/Utils.sol\":19395:19404  lpAddress */\n      dup5\n        /* \"contracts/Utils.sol\":19395:19416  lpAddress.totalSupply */\n      0xffffffffffffffffffffffffffffffffffffffff\n      and\n      0x18160ddd\n        /* \"contracts/Utils.sol\":19395:19418  lpAddress.totalSupply() */\n      mload(0x40)\n      dup2\n      0xffffffff\n      and\n      0xe0\n      shl\n      dup2\n      mstore\n      0x04\n      add\n      0x20\n      mload(0x40)\n      dup1\n      dup4\n      sub\n      dup2\n      dup7\n      gas\n      staticcall\n      iszero\n      dup1\n      iszero\n      tag_161\n      jumpi\n      returndatasize\n      0x00\n      dup1\n      returndatacopy\n      revert(0x00, returndatasize)\n    tag_161:\n      pop\n      pop\n      pop\n      pop\n      mload(0x40)\n      returndatasize\n      not(0x1f)\n      0x1f\n      dup3\n      add\n      and\n      dup3\n      add\n      dup1\n      0x40\n      mstore\n      pop\n      dup2\n      add\n      swap1\n      tag_162\n      swap2\n      swap1\n      tag_115\n      jump\t// in\n    tag_162:\n        /* \"contracts/Utils.sol\":19371:19389  phase1.add(phase2) */\n      tag_163\n        /* \"contracts/Utils.sol\":19382:19388  phase2 */\n      dup4\n        /* \"contracts/Utils.sol\":19371:19377  phase1 */\n      dup6\n        /* \"contracts/Utils.sol\":19371:19381  phase1.add */\n      tag_164\n      swap1\n        /* \"contracts/Utils.sol\":19371:19389  phase1.add(phase2) */\n      swap2\n      swap1\n      0xffffffff\n      and\n      jump\t// in\n    tag_163:\n        /* \"contracts/Utils.sol\":19370:19394  (phase1.add(phase2)).div */\n      tag_165\n      swap1\n        /* \"contracts/Utils.sol\":19370:19419  (phase1.add(phase2)).div(lpAddress.totalSupply()) */\n      swap2\n      swap1\n      0xffffffff\n      and\n      jump\t// in\n    tag_159:\n        /* \"contracts/Utils.sol\":19362:19420  return ((phase1.add(phase2)).div(lpAddress.totalSupply())) */\n      swap3\n      pop\n      pop\n      pop\n        /* \"contracts/Utils.sol\":18580:19428  function CalcLpPrice(LP lpAddress) public view returns(uint256){... */\n      swap2\n      swap1\n      pop\n      jump\t// out\n        /* \"contracts/Utils.sol\":20740:20923  function isLpAddress(IERC20 lpAddress) public view returns(uint256){... */\n    tag_34:\n        /* \"contracts/Utils.sol\":20799:20806  uint256 */\n      0x00\n        /* \"contracts/Utils.sol\":20822:20831  lpAddress */\n      dup2\n        /* \"contracts/Utils.sol\":20822:20838  lpAddress.token0 */\n      0xffffffffffffffffffffffffffffffffffffffff\n      and\n      0x0dfe1681\n        /* \"contracts/Utils.sol\":20822:20840  lpAddress.token0() */\n      mload(0x40)\n      dup2\n      0xffffffff\n      and\n      0xe0\n      shl\n      dup2\n      mstore\n      0x04\n      add\n      0x20\n      mload(0x40)\n      dup1\n      dup4\n      sub\n      dup2\n      dup7\n      gas\n      staticcall\n      swap3\n      pop\n      pop\n      pop\n      dup1\n      iszero\n      tag_167\n      jumpi\n      pop\n      mload(0x40)\n      returndatasize\n      not(0x1f)\n      0x1f\n      dup3\n      add\n      and\n      dup3\n      add\n      dup1\n      0x40\n      mstore\n      pop\n      dup2\n      add\n      swap1\n      tag_168\n      swap2\n      swap1\n      tag_101\n      jump\t// in\n    tag_168:\n      0x01\n    tag_167:\n        /* \"contracts/Utils.sol\":20818:20916  try lpAddress.token0() {... */\n      tag_169\n      jumpi\n        /* \"contracts/Utils.sol\":20903:20904  0 */\n      0x00\n        /* \"contracts/Utils.sol\":20896:20904  return 0 */\n      swap1\n      pop\n      jump(tag_166)\n        /* \"contracts/Utils.sol\":20818:20916  try lpAddress.token0() {... */\n    tag_169:\n      pop\n        /* \"contracts/Utils.sol\":20863:20864  1 */\n      0x01\n        /* \"contracts/Utils.sol\":20856:20864  return 1 */\n      swap1\n      pop\n        /* \"contracts/Utils.sol\":20740:20923  function isLpAddress(IERC20 lpAddress) public view returns(uint256){... */\n    tag_166:\n      swap2\n      swap1\n      pop\n      jump\t// out\n        /* \"contracts/Utils.sol\":17655:17682  Router public routerAddress */\n    tag_37:\n      0x04\n      0x00\n      swap1\n      sload\n      swap1\n      0x0100\n      exp\n      swap1\n      div\n      0xffffffffffffffffffffffffffffffffffffffff\n      and\n      dup2\n      jump\t// out\n        /* \"contracts/Utils.sol\":18322:18555  function WBNBPrice(address token) public view returns(uint256){... */\n    tag_42:\n        /* \"contracts/Utils.sol\":18376:18383  uint256 */\n      0x00\n        /* \"contracts/Utils.sol\":18395:18416  address[] memory path */\n      dup1\n        /* \"contracts/Utils.sol\":18433:18434  2 */\n      0x02\n        /* \"contracts/Utils.sol\":18419:18435  new address[](2) */\n      0xffffffffffffffff\n      dup2\n      gt\n      iszero\n      tag_175\n      jumpi\n      tag_176\n      tag_80\n      jump\t// in\n    tag_176:\n    tag_175:\n      mload(0x40)\n      swap1\n      dup1\n      dup3\n      mstore\n      dup1\n      0x20\n      mul\n      0x20\n      add\n      dup3\n      add\n      0x40\n      mstore\n      dup1\n      iszero\n      tag_177\n      jumpi\n      dup2\n      0x20\n      add\n      0x20\n      dup3\n      mul\n      dup1\n      calldatasize\n      dup4\n      calldatacopy\n      dup1\n      dup3\n      add\n      swap2\n      pop\n      pop\n      swap1\n      pop\n    tag_177:\n      pop\n        /* \"contracts/Utils.sol\":18395:18435  address[] memory path = new address[](2) */\n      swap1\n      pop\n        /* \"contracts/Utils.sol\":18456:18461  token */\n      dup3\n        /* \"contracts/Utils.sol\":18446:18450  path */\n      dup2\n        /* \"contracts/Utils.sol\":18451:18452  0 */\n      0x00\n        /* \"contracts/Utils.sol\":18446:18453  path[0] */\n      dup2\n      mload\n      dup2\n      lt\n      tag_178\n      jumpi\n      tag_179\n      tag_84\n      jump\t// in\n    tag_179:\n    tag_178:\n      0x20\n      mul\n      0x20\n      add\n      add\n        /* \"contracts/Utils.sol\":18446:18461  path[0] = token */\n      swap1\n      0xffffffffffffffffffffffffffffffffffffffff\n      and\n      swap1\n      dup2\n      0xffffffffffffffffffffffffffffffffffffffff\n      and\n      dup2\n      mstore\n      pop\n      pop\n        /* \"contracts/Utils.sol\":18482:18486  BUSD */\n      0x02\n      0x00\n      swap1\n      sload\n      swap1\n      0x0100\n      exp\n      swap1\n      div\n      0xffffffffffffffffffffffffffffffffffffffff\n      and\n        /* \"contracts/Utils.sol\":18472:18476  path */\n      dup2\n        /* \"contracts/Utils.sol\":18477:18478  1 */\n      0x01\n        /* \"contracts/Utils.sol\":18472:18479  path[1] */\n      dup2\n      mload\n      dup2\n      lt\n      tag_180\n      jumpi\n      tag_181\n      tag_84\n      jump\t// in\n    tag_181:\n    tag_180:\n      0x20\n      mul\n      0x20\n      add\n      add\n        /* \"contracts/Utils.sol\":18472:18486  path[1] = BUSD */\n      swap1\n      0xffffffffffffffffffffffffffffffffffffffff\n      and\n      swap1\n      dup2\n      0xffffffffffffffffffffffffffffffffffffffff\n      and\n      dup2\n      mstore\n      pop\n      pop\n        /* \"contracts/Utils.sol\":18504:18517  routerAddress */\n      0x04\n      0x00\n      swap1\n      sload\n      swap1\n      0x0100\n      exp\n      swap1\n      div\n      0xffffffffffffffffffffffffffffffffffffffff\n      and\n        /* \"contracts/Utils.sol\":18504:18531  routerAddress.getAmountsOut */\n      0xffffffffffffffffffffffffffffffffffffffff\n      and\n      0xd06ca61f\n        /* \"contracts/Utils.sol\":18532:18538  amount */\n      sload(0x03)\n        /* \"contracts/Utils.sol\":18539:18543  path */\n      dup4\n        /* \"contracts/Utils.sol\":18504:18544  routerAddress.getAmountsOut(amount,path) */\n      mload(0x40)\n      dup4\n      0xffffffff\n      and\n      0xe0\n      shl\n      dup2\n      mstore\n      0x04\n      add\n      tag_182\n      swap3\n      swap2\n      swap1\n      tag_90\n      jump\t// in\n    tag_182:\n      0x00\n      mload(0x40)\n      dup1\n      dup4\n      sub\n      dup2\n      dup7\n      gas\n      staticcall\n      iszero\n      dup1\n      iszero\n      tag_184\n      jumpi\n      returndatasize\n      0x00\n      dup1\n      returndatacopy\n      revert(0x00, returndatasize)\n    tag_184:\n      pop\n      pop\n      pop\n      pop\n      mload(0x40)\n      returndatasize\n      0x00\n      dup3\n      returndatacopy\n      returndatasize\n      not(0x1f)\n      0x1f\n      dup3\n      add\n      and\n      dup3\n      add\n      dup1\n      0x40\n      mstore\n      pop\n      dup2\n      add\n      swap1\n      tag_185\n      swap2\n      swap1\n      tag_94\n      jump\t// in\n    tag_185:\n        /* \"contracts/Utils.sol\":18545:18546  1 */\n      0x01\n        /* \"contracts/Utils.sol\":18504:18547  routerAddress.getAmountsOut(amount,path)[1] */\n      dup2\n      mload\n      dup2\n      lt\n      tag_186\n      jumpi\n      tag_187\n      tag_84\n      jump\t// in\n    tag_187:\n    tag_186:\n      0x20\n      mul\n      0x20\n      add\n      add\n      mload\n        /* \"contracts/Utils.sol\":18497:18547  return routerAddress.getAmountsOut(amount,path)[1] */\n      swap2\n      pop\n      pop\n        /* \"contracts/Utils.sol\":18322:18555  function WBNBPrice(address token) public view returns(uint256){... */\n      swap2\n      swap1\n      pop\n      jump\t// out\n        /* \"contracts/Utils.sol\":17586:17605  address public BUSD */\n    tag_45:\n      0x02\n      0x00\n      swap1\n      sload\n      swap1\n      0x0100\n      exp\n      swap1\n      div\n      0xffffffffffffffffffffffffffffffffffffffff\n      and\n      dup2\n      jump\t// out\n        /* \"contracts/Utils.sol\":14500:14603  function renounceOwnership() public virtual onlyOwner {... */\n    tag_49:\n        /* \"contracts/Utils.sol\":14080:14092  _msgSender() */\n      tag_189\n        /* \"contracts/Utils.sol\":14080:14090  _msgSender */\n      tag_190\n        /* \"contracts/Utils.sol\":14080:14092  _msgSender() */\n      jump\t// in\n    tag_189:\n        /* \"contracts/Utils.sol\":14069:14092  owner() == _msgSender() */\n      0xffffffffffffffffffffffffffffffffffffffff\n      and\n        /* \"contracts/Utils.sol\":14069:14076  owner() */\n      tag_191\n        /* \"contracts/Utils.sol\":14069:14074  owner */\n      tag_56\n        /* \"contracts/Utils.sol\":14069:14076  owner() */\n      jump\t// in\n    tag_191:\n        /* \"contracts/Utils.sol\":14069:14092  owner() == _msgSender() */\n      0xffffffffffffffffffffffffffffffffffffffff\n      and\n      eq\n        /* \"contracts/Utils.sol\":14061:14129  require(owner() == _msgSender(), \"Ownable: caller is not the owner\") */\n      tag_192\n      jumpi\n      mload(0x40)\n      0x08c379a000000000000000000000000000000000000000000000000000000000\n      dup2\n      mstore\n      0x04\n      add\n      tag_193\n      swap1\n      tag_194\n      jump\t// in\n    tag_193:\n      mload(0x40)\n      dup1\n      swap2\n      sub\n      swap1\n      revert\n    tag_192:\n        /* \"contracts/Utils.sol\":14565:14595  _transferOwnership(address(0)) */\n      tag_196\n        /* \"contracts/Utils.sol\":14592:14593  0 */\n      0x00\n        /* \"contracts/Utils.sol\":14565:14583  _transferOwnership */\n      tag_197\n        /* \"contracts/Utils.sol\":14565:14595  _transferOwnership(address(0)) */\n      jump\t// in\n    tag_196:\n        /* \"contracts/Utils.sol\":14500:14603  function renounceOwnership() public virtual onlyOwner {... */\n      jump\t// out\n        /* \"contracts/Utils.sol\":20931:21291  function CalcTotalTVL(MetaMasterChef MasterChef) external view returns(uint256){... */\n    tag_53:\n        /* \"contracts/Utils.sol\":21002:21009  uint256 */\n      0x00\n        /* \"contracts/Utils.sol\":21021:21041  PoolInfo memory pool */\n      tag_199\n      tag_200\n      jump\t// in\n    tag_199:\n        /* \"contracts/Utils.sol\":21052:21064  LP lpAddress */\n      0x00\n        /* \"contracts/Utils.sol\":21079:21088  uint256 i */\n      dup1\n        /* \"contracts/Utils.sol\":21089:21090  0 */\n      0x00\n        /* \"contracts/Utils.sol\":21079:21090  uint256 i=0 */\n      swap1\n      pop\n        /* \"contracts/Utils.sol\":21075:21284  for(uint256 i=0; i< MasterChef.poolLength(); i++){... */\n    tag_201:\n        /* \"contracts/Utils.sol\":21095:21105  MasterChef */\n      dup5\n        /* \"contracts/Utils.sol\":21095:21116  MasterChef.poolLength */\n      0xffffffffffffffffffffffffffffffffffffffff\n      and\n      0x081e3eda\n        /* \"contracts/Utils.sol\":21095:21118  MasterChef.poolLength() */\n      mload(0x40)\n      dup2\n      0xffffffff\n      and\n      0xe0\n      shl\n      dup2\n      mstore\n      0x04\n      add\n      0x20\n      mload(0x40)\n      dup1\n      dup4\n      sub\n      dup2\n      dup7\n      gas\n      staticcall\n      iszero\n      dup1\n      iszero\n      tag_205\n      jumpi\n      returndatasize\n      0x00\n      dup1\n      returndatacopy\n      revert(0x00, returndatasize)\n    tag_205:\n      pop\n      pop\n      pop\n      pop\n      mload(0x40)\n      returndatasize\n      not(0x1f)\n      0x1f\n      dup3\n      add\n      and\n      dup3\n      add\n      dup1\n      0x40\n      mstore\n      pop\n      dup2\n      add\n      swap1\n      tag_206\n      swap2\n      swap1\n      tag_115\n      jump\t// in\n    tag_206:\n        /* \"contracts/Utils.sol\":21092:21093  i */\n      dup2\n        /* \"contracts/Utils.sol\":21092:21118  i< MasterChef.poolLength() */\n      lt\n        /* \"contracts/Utils.sol\":21075:21284  for(uint256 i=0; i< MasterChef.poolLength(); i++){... */\n      iszero\n      tag_202\n      jumpi\n        /* \"contracts/Utils.sol\":21146:21156  MasterChef */\n      dup5\n        /* \"contracts/Utils.sol\":21146:21165  MasterChef.poolInfo */\n      0xffffffffffffffffffffffffffffffffffffffff\n      and\n      0x1526fe27\n        /* \"contracts/Utils.sol\":21166:21167  i */\n      dup3\n        /* \"contracts/Utils.sol\":21146:21168  MasterChef.poolInfo(i) */\n      mload(0x40)\n      dup3\n      0xffffffff\n      and\n      0xe0\n      shl\n      dup2\n      mstore\n      0x04\n      add\n      tag_207\n      swap2\n      swap1\n      tag_25\n      jump\t// in\n    tag_207:\n      0xc0\n      mload(0x40)\n      dup1\n      dup4\n      sub\n      dup2\n      dup7\n      gas\n      staticcall\n      iszero\n      dup1\n      iszero\n      tag_209\n      jumpi\n      returndatasize\n      0x00\n      dup1\n      returndatacopy\n      revert(0x00, returndatasize)\n    tag_209:\n      pop\n      pop\n      pop\n      pop\n      mload(0x40)\n      returndatasize\n      not(0x1f)\n      0x1f\n      dup3\n      add\n      and\n      dup3\n      add\n      dup1\n      0x40\n      mstore\n      pop\n      dup2\n      add\n      swap1\n      tag_210\n      swap2\n      swap1\n      tag_211\n      jump\t// in\n    tag_210:\n        /* \"contracts/Utils.sol\":21139:21168  pool = MasterChef.poolInfo(i) */\n      swap3\n      pop\n        /* \"contracts/Utils.sol\":21215:21216  1 */\n      0x01\n        /* \"contracts/Utils.sol\":21186:21211  isLpAddress(pool.lpToken) */\n      tag_212\n        /* \"contracts/Utils.sol\":21198:21202  pool */\n      dup5\n        /* \"contracts/Utils.sol\":21198:21210  pool.lpToken */\n      0x00\n      add\n      mload\n        /* \"contracts/Utils.sol\":21186:21197  isLpAddress */\n      tag_34\n        /* \"contracts/Utils.sol\":21186:21211  isLpAddress(pool.lpToken) */\n      jump\t// in\n    tag_212:\n        /* \"contracts/Utils.sol\":21186:21216  isLpAddress(pool.lpToken) == 1 */\n      pop\n      pop\n        /* \"contracts/Utils.sol\":21120:21123  i++ */\n      dup1\n      dup1\n      tag_215\n      swap1\n      tag_216\n      jump\t// in\n    tag_215:\n      swap2\n      pop\n      pop\n        /* \"contracts/Utils.sol\":21075:21284  for(uint256 i=0; i< MasterChef.poolLength(); i++){... */\n      jump(tag_201)\n    tag_202:\n      pop\n        /* \"contracts/Utils.sol\":21010:21291  {... */\n      pop\n      pop\n        /* \"contracts/Utils.sol\":20931:21291  function CalcTotalTVL(MetaMasterChef MasterChef) external view returns(uint256){... */\n      swap2\n      swap1\n      pop\n      jump\t// out\n        /* \"contracts/Utils.sol\":13849:13936  function owner() public view virtual returns (address) {... */\n    tag_56:\n        /* \"contracts/Utils.sol\":13895:13902  address */\n      0x00\n        /* \"contracts/Utils.sol\":13922:13928  _owner */\n      dup1\n      0x00\n      swap1\n      sload\n      swap1\n      0x0100\n      exp\n      swap1\n      div\n      0xffffffffffffffffffffffffffffffffffffffff\n      and\n        /* \"contracts/Utils.sol\":13915:13928  return _owner */\n      swap1\n      pop\n        /* \"contracts/Utils.sol\":13849:13936  function owner() public view virtual returns (address) {... */\n      swap1\n      jump\t// out\n        /* \"contracts/Utils.sol\":17560:17579  address public WBNB */\n    tag_59:\n      0x01\n      0x00\n      swap1\n      sload\n      swap1\n      0x0100\n      exp\n      swap1\n      div\n      0xffffffffffffffffffffffffffffffffffffffff\n      and\n      dup2\n      jump\t// out\n        /* \"contracts/Utils.sol\":17906:18013  function setRouter(Router _routerAddress) public onlyOwner{... */\n    tag_64:\n        /* \"contracts/Utils.sol\":14080:14092  _msgSender() */\n      tag_219\n        /* \"contracts/Utils.sol\":14080:14090  _msgSender */\n      tag_190\n        /* \"contracts/Utils.sol\":14080:14092  _msgSender() */\n      jump\t// in\n    tag_219:\n        /* \"contracts/Utils.sol\":14069:14092  owner() == _msgSender() */\n      0xffffffffffffffffffffffffffffffffffffffff\n      and\n        /* \"contracts/Utils.sol\":14069:14076  owner() */\n      tag_220\n        /* \"contracts/Utils.sol\":14069:14074  owner */\n      tag_56\n        /* \"contracts/Utils.sol\":14069:14076  owner() */\n      jump\t// in\n    tag_220:\n        /* \"contracts/Utils.sol\":14069:14092  owner() == _msgSender() */\n      0xffffffffffffffffffffffffffffffffffffffff\n      and\n      eq\n        /* \"contracts/Utils.sol\":14061:14129  require(owner() == _msgSender(), \"Ownable: caller is not the owner\") */\n      tag_221\n      jumpi\n      mload(0x40)\n      0x08c379a000000000000000000000000000000000000000000000000000000000\n      dup2\n      mstore\n      0x04\n      add\n      tag_222\n      swap1\n      tag_194\n      jump\t// in\n    tag_222:\n      mload(0x40)\n      dup1\n      swap2\n      sub\n      swap1\n      revert\n    tag_221:\n        /* \"contracts/Utils.sol\":17991:18005  _routerAddress */\n      dup1\n        /* \"contracts/Utils.sol\":17975:17988  routerAddress */\n      0x04\n      0x00\n        /* \"contracts/Utils.sol\":17975:18005  routerAddress = _routerAddress */\n      0x0100\n      exp\n      dup2\n      sload\n      dup2\n      0xffffffffffffffffffffffffffffffffffffffff\n      mul\n      not\n      and\n      swap1\n      dup4\n      0xffffffffffffffffffffffffffffffffffffffff\n      and\n      mul\n      or\n      swap1\n      sstore\n      pop\n        /* \"contracts/Utils.sol\":17906:18013  function setRouter(Router _routerAddress) public onlyOwner{... */\n      pop\n      jump\t// out\n        /* \"contracts/Utils.sol\":19451:20022  function calcPoolTVLInUSD(uint256 pid, LP lpAddress, uint256 isLp, MetaMasterChef MasterChef) public view returns(uint256){... */\n    tag_68:\n        /* \"contracts/Utils.sol\":19565:19572  uint256 */\n      0x00\n        /* \"contracts/Utils.sol\":19584:19599  uint256 Balance */\n      dup1\n        /* \"contracts/Utils.sol\":19602:19612  MasterChef */\n      dup3\n        /* \"contracts/Utils.sol\":19602:19624  MasterChef.poolBalance */\n      0xffffffffffffffffffffffffffffffffffffffff\n      and\n      0x6a6d964e\n        /* \"contracts/Utils.sol\":19625:19628  pid */\n      dup8\n        /* \"contracts/Utils.sol\":19602:19629  MasterChef.poolBalance(pid) */\n      mload(0x40)\n      dup3\n      0xffffffff\n      and\n      0xe0\n      shl\n      dup2\n      mstore\n      0x04\n      add\n      tag_225\n      swap2\n      swap1\n      tag_25\n      jump\t// in\n    tag_225:\n      0x20\n      mload(0x40)\n      dup1\n      dup4\n      sub\n      dup2\n      dup7\n      gas\n      staticcall\n      iszero\n      dup1\n      iszero\n      tag_227\n      jumpi\n      returndatasize\n      0x00\n      dup1\n      returndatacopy\n      revert(0x00, returndatasize)\n    tag_227:\n      pop\n      pop\n      pop\n      pop\n      mload(0x40)\n      returndatasize\n      not(0x1f)\n      0x1f\n      dup3\n      add\n      and\n      dup3\n      add\n      dup1\n      0x40\n      mstore\n      pop\n      dup2\n      add\n      swap1\n      tag_228\n      swap2\n      swap1\n      tag_115\n      jump\t// in\n    tag_228:\n        /* \"contracts/Utils.sol\":19584:19629  uint256 Balance = MasterChef.poolBalance(pid) */\n      swap1\n      pop\n        /* \"contracts/Utils.sol\":19640:19653  uint256 price */\n      0x00\n        /* \"contracts/Utils.sol\":19675:19676  1 */\n      0x01\n        /* \"contracts/Utils.sol\":19667:19671  isLp */\n      dup6\n        /* \"contracts/Utils.sol\":19667:19676  isLp == 1 */\n      sub\n        /* \"contracts/Utils.sol\":19664:19966  if(isLp == 1){... */\n      tag_229\n      jumpi\n        /* \"contracts/Utils.sol\":19700:19722  CalcLpPrice(lpAddress) */\n      tag_230\n        /* \"contracts/Utils.sol\":19712:19721  lpAddress */\n      dup7\n        /* \"contracts/Utils.sol\":19700:19711  CalcLpPrice */\n      tag_29\n        /* \"contracts/Utils.sol\":19700:19722  CalcLpPrice(lpAddress) */\n      jump\t// in\n    tag_230:\n        /* \"contracts/Utils.sol\":19692:19722  price = CalcLpPrice(lpAddress) */\n      swap1\n      pop\n        /* \"contracts/Utils.sol\":19664:19966  if(isLp == 1){... */\n      jump(tag_231)\n    tag_229:\n        /* \"contracts/Utils.sol\":19750:19751  0 */\n      0x00\n        /* \"contracts/Utils.sol\":19742:19746  isLp */\n      dup6\n        /* \"contracts/Utils.sol\":19742:19751  isLp == 0 */\n      sub\n        /* \"contracts/Utils.sol\":19739:19966  if(isLp == 0){... */\n      tag_232\n      jumpi\n        /* \"contracts/Utils.sol\":19795:19804  lpAddress */\n      dup6\n        /* \"contracts/Utils.sol\":19770:19805  address(WBNB) == address(lpAddress) */\n      0xffffffffffffffffffffffffffffffffffffffff\n      and\n        /* \"contracts/Utils.sol\":19778:19782  WBNB */\n      0x01\n      0x00\n      swap1\n      sload\n      swap1\n      0x0100\n      exp\n      swap1\n      div\n      0xffffffffffffffffffffffffffffffffffffffff\n      and\n        /* \"contracts/Utils.sol\":19770:19805  address(WBNB) == address(lpAddress) */\n      0xffffffffffffffffffffffffffffffffffffffff\n      and\n      sub\n        /* \"contracts/Utils.sol\":19767:19955  if(address(WBNB) == address(lpAddress)){... */\n      tag_233\n      jumpi\n        /* \"contracts/Utils.sol\":19833:19862  WBNBPrice(address(lpAddress)) */\n      tag_234\n        /* \"contracts/Utils.sol\":19851:19860  lpAddress */\n      dup7\n        /* \"contracts/Utils.sol\":19833:19842  WBNBPrice */\n      tag_42\n        /* \"contracts/Utils.sol\":19833:19862  WBNBPrice(address(lpAddress)) */\n      jump\t// in\n    tag_234:\n        /* \"contracts/Utils.sol\":19825:19862  price = WBNBPrice(address(lpAddress)) */\n      swap1\n      pop\n        /* \"contracts/Utils.sol\":19767:19955  if(address(WBNB) == address(lpAddress)){... */\n      jump(tag_235)\n    tag_233:\n        /* \"contracts/Utils.sol\":19909:19939  Tokenprice(address(lpAddress)) */\n      tag_236\n        /* \"contracts/Utils.sol\":19928:19937  lpAddress */\n      dup7\n        /* \"contracts/Utils.sol\":19909:19919  Tokenprice */\n      tag_23\n        /* \"contracts/Utils.sol\":19909:19939  Tokenprice(address(lpAddress)) */\n      jump\t// in\n    tag_236:\n        /* \"contracts/Utils.sol\":19901:19939  price = Tokenprice(address(lpAddress)) */\n      swap1\n      pop\n        /* \"contracts/Utils.sol\":19767:19955  if(address(WBNB) == address(lpAddress)){... */\n    tag_235:\n        /* \"contracts/Utils.sol\":19739:19966  if(isLp == 0){... */\n    tag_232:\n        /* \"contracts/Utils.sol\":19664:19966  if(isLp == 1){... */\n    tag_231:\n        /* \"contracts/Utils.sol\":19985:20014  (Balance * price).div(amount) */\n      tag_237\n        /* \"contracts/Utils.sol\":20007:20013  amount */\n      sload(0x03)\n        /* \"contracts/Utils.sol\":19996:20001  price */\n      dup3\n        /* \"contracts/Utils.sol\":19986:19993  Balance */\n      dup5\n        /* \"contracts/Utils.sol\":19986:20001  Balance * price */\n      tag_238\n      swap2\n      swap1\n      tag_239\n      jump\t// in\n    tag_238:\n        /* \"contracts/Utils.sol\":19985:20006  (Balance * price).div */\n      tag_165\n      swap1\n        /* \"contracts/Utils.sol\":19985:20014  (Balance * price).div(amount) */\n      swap2\n      swap1\n      0xffffffff\n      and\n      jump\t// in\n    tag_237:\n        /* \"contracts/Utils.sol\":19978:20014  return (Balance * price).div(amount) */\n      swap3\n      pop\n      pop\n      pop\n        /* \"contracts/Utils.sol\":19451:20022  function calcPoolTVLInUSD(uint256 pid, LP lpAddress, uint256 isLp, MetaMasterChef MasterChef) public view returns(uint256){... */\n      swap5\n      swap4\n      pop\n      pop\n      pop\n      pop\n      jump\t// out\n        /* \"contracts/Utils.sol\":20030:20732  function CalcApy(uint256 pid, LP lpAddress,uint256 isLp, MetaMasterChef MasterChef) external view returns(uint256){... */\n    tag_72:\n        /* \"contracts/Utils.sol\":20136:20143  uint256 */\n      0x00\n        /* \"contracts/Utils.sol\":20155:20175  PoolInfo memory pool */\n      dup1\n        /* \"contracts/Utils.sol\":20178:20188  MasterChef */\n      dup3\n        /* \"contracts/Utils.sol\":20178:20197  MasterChef.poolInfo */\n      0xffffffffffffffffffffffffffffffffffffffff\n      and\n      0x1526fe27\n        /* \"contracts/Utils.sol\":20198:20201  pid */\n      dup8\n        /* \"contracts/Utils.sol\":20178:20202  MasterChef.poolInfo(pid) */\n      mload(0x40)\n      dup3\n      0xffffffff\n      and\n      0xe0\n      shl\n      dup2\n      mstore\n      0x04\n      add\n      tag_241\n      swap2\n      swap1\n      tag_25\n      jump\t// in\n    tag_241:\n      0xc0\n      mload(0x40)\n      dup1\n      dup4\n      sub\n      dup2\n      dup7\n      gas\n      staticcall\n      iszero\n      dup1\n      iszero\n      tag_243\n      jumpi\n      returndatasize\n      0x00\n      dup1\n      returndatacopy\n      revert(0x00, returndatasize)\n    tag_243:\n      pop\n      pop\n      pop\n      pop\n      mload(0x40)\n      returndatasize\n      not(0x1f)\n      0x1f\n      dup3\n      add\n      and\n      dup3\n      add\n      dup1\n      0x40\n      mstore\n      pop\n      dup2\n      add\n      swap1\n      tag_244\n      swap2\n      swap1\n      tag_211\n      jump\t// in\n    tag_244:\n        /* \"contracts/Utils.sol\":20155:20202  PoolInfo memory pool = MasterChef.poolInfo(pid) */\n      swap1\n      pop\n        /* \"contracts/Utils.sol\":20213:20231  uint256 poolWeight */\n      0x00\n        /* \"contracts/Utils.sol\":20234:20299  ((pool.allocPoint).mul(amount)).div(MasterChef.totalAllocPoint()) */\n      tag_245\n        /* \"contracts/Utils.sol\":20270:20280  MasterChef */\n      dup5\n        /* \"contracts/Utils.sol\":20270:20296  MasterChef.totalAllocPoint */\n      0xffffffffffffffffffffffffffffffffffffffff\n      and\n      0x17caf6f1\n        /* \"contracts/Utils.sol\":20270:20298  MasterChef.totalAllocPoint() */\n      mload(0x40)\n      dup2\n      0xffffffff\n      and\n      0xe0\n      shl\n      dup2\n      mstore\n      0x04\n      add\n      0x20\n      mload(0x40)\n      dup1\n      dup4\n      sub\n      dup2\n      dup7\n      gas\n      staticcall\n      iszero\n      dup1\n      iszero\n      tag_247\n      jumpi\n      returndatasize\n      0x00\n      dup1\n      returndatacopy\n      revert(0x00, returndatasize)\n    tag_247:\n      pop\n      pop\n      pop\n      pop\n      mload(0x40)\n      returndatasize\n      not(0x1f)\n      0x1f\n      dup3\n      add\n      and\n      dup3\n      add\n      dup1\n      0x40\n      mstore\n      pop\n      dup2\n      add\n      swap1\n      tag_248\n      swap2\n      swap1\n      tag_115\n      jump\t// in\n    tag_248:\n        /* \"contracts/Utils.sol\":20235:20264  (pool.allocPoint).mul(amount) */\n      tag_249\n        /* \"contracts/Utils.sol\":20257:20263  amount */\n      sload(0x03)\n        /* \"contracts/Utils.sol\":20236:20240  pool */\n      dup6\n        /* \"contracts/Utils.sol\":20236:20251  pool.allocPoint */\n      0x20\n      add\n      mload\n        /* \"contracts/Utils.sol\":20235:20256  (pool.allocPoint).mul */\n      tag_116\n      swap1\n        /* \"contracts/Utils.sol\":20235:20264  (pool.allocPoint).mul(amount) */\n      swap2\n      swap1\n      0xffffffff\n      and\n      jump\t// in\n    tag_249:\n        /* \"contracts/Utils.sol\":20234:20269  ((pool.allocPoint).mul(amount)).div */\n      tag_165\n      swap1\n        /* \"contracts/Utils.sol\":20234:20299  ((pool.allocPoint).mul(amount)).div(MasterChef.totalAllocPoint()) */\n      swap2\n      swap1\n      0xffffffff\n      and\n      jump\t// in\n    tag_245:\n        /* \"contracts/Utils.sol\":20213:20299  uint256 poolWeight = ((pool.allocPoint).mul(amount)).div(MasterChef.totalAllocPoint()) */\n      swap1\n      pop\n        /* \"contracts/Utils.sol\":20310:20334  uint256 rewardTokenPrice */\n      0x00\n        /* \"contracts/Utils.sol\":20337:20365  Tokenprice(MasterChef.DRG()) */\n      tag_250\n        /* \"contracts/Utils.sol\":20348:20358  MasterChef */\n      dup6\n        /* \"contracts/Utils.sol\":20348:20362  MasterChef.DRG */\n      0xffffffffffffffffffffffffffffffffffffffff\n      and\n      0x141aa0ba\n        /* \"contracts/Utils.sol\":20348:20364  MasterChef.DRG() */\n      mload(0x40)\n      dup2\n      0xffffffff\n      and\n      0xe0\n      shl\n      dup2\n      mstore\n      0x04\n      add\n      0x20\n      mload(0x40)\n      dup1\n      dup4\n      sub\n      dup2\n      dup7\n      gas\n      staticcall\n      iszero\n      dup1\n      iszero\n      tag_252\n      jumpi\n      returndatasize\n      0x00\n      dup1\n      returndatacopy\n      revert(0x00, returndatasize)\n    tag_252:\n      pop\n      pop\n      pop\n      pop\n      mload(0x40)\n      returndatasize\n      not(0x1f)\n      0x1f\n      dup3\n      add\n      and\n      dup3\n      add\n      dup1\n      0x40\n      mstore\n      pop\n      dup2\n      add\n      swap1\n      tag_253\n      swap2\n      swap1\n      tag_254\n      jump\t// in\n    tag_253:\n        /* \"contracts/Utils.sol\":20337:20347  Tokenprice */\n      tag_23\n        /* \"contracts/Utils.sol\":20337:20365  Tokenprice(MasterChef.DRG()) */\n      jump\t// in\n    tag_250:\n        /* \"contracts/Utils.sol\":20310:20365  uint256 rewardTokenPrice = Tokenprice(MasterChef.DRG()) */\n      swap1\n      pop\n        /* \"contracts/Utils.sol\":20376:20396  uint256 DRG_PER_YEAR */\n      0x00\n        /* \"contracts/Utils.sol\":20399:20444  BLOCKS_PER_YEAR.mul(MasterChef.DRGPerBlock()) */\n      tag_255\n        /* \"contracts/Utils.sol\":20419:20429  MasterChef */\n      dup7\n        /* \"contracts/Utils.sol\":20419:20441  MasterChef.DRGPerBlock */\n      0xffffffffffffffffffffffffffffffffffffffff\n      and\n      0xa1eef821\n        /* \"contracts/Utils.sol\":20419:20443  MasterChef.DRGPerBlock() */\n      mload(0x40)\n      dup2\n      0xffffffff\n      and\n      0xe0\n      shl\n      dup2\n      mstore\n      0x04\n      add\n      0x20\n      mload(0x40)\n      dup1\n      dup4\n      sub\n      dup2\n      dup7\n      gas\n      staticcall\n      iszero\n      dup1\n      iszero\n      tag_257\n      jumpi\n      returndatasize\n      0x00\n      dup1\n      returndatacopy\n      revert(0x00, returndatasize)\n    tag_257:\n      pop\n      pop\n      pop\n      pop\n      mload(0x40)\n      returndatasize\n      not(0x1f)\n      0x1f\n      dup3\n      add\n      and\n      dup3\n      add\n      dup1\n      0x40\n      mstore\n      pop\n      dup2\n      add\n      swap1\n      tag_258\n      swap2\n      swap1\n      tag_115\n      jump\t// in\n    tag_258:\n        /* \"contracts/Utils.sol\":20399:20414  BLOCKS_PER_YEAR */\n      sload(0x05)\n        /* \"contracts/Utils.sol\":20399:20418  BLOCKS_PER_YEAR.mul */\n      tag_116\n      swap1\n        /* \"contracts/Utils.sol\":20399:20444  BLOCKS_PER_YEAR.mul(MasterChef.DRGPerBlock()) */\n      swap2\n      swap1\n      0xffffffff\n      and\n      jump\t// in\n    tag_255:\n        /* \"contracts/Utils.sol\":20376:20444  uint256 DRG_PER_YEAR = BLOCKS_PER_YEAR.mul(MasterChef.DRGPerBlock()) */\n      swap1\n      pop\n        /* \"contracts/Utils.sol\":20455:20488  uint256 yearlyDRGRewardAllocation */\n      0x00\n        /* \"contracts/Utils.sol\":20491:20533  (DRG_PER_YEAR.mul(poolWeight)).div(amount) */\n      tag_259\n        /* \"contracts/Utils.sol\":20526:20532  amount */\n      sload(0x03)\n        /* \"contracts/Utils.sol\":20492:20520  DRG_PER_YEAR.mul(poolWeight) */\n      tag_260\n        /* \"contracts/Utils.sol\":20509:20519  poolWeight */\n      dup7\n        /* \"contracts/Utils.sol\":20492:20504  DRG_PER_YEAR */\n      dup6\n        /* \"contracts/Utils.sol\":20492:20508  DRG_PER_YEAR.mul */\n      tag_116\n      swap1\n        /* \"contracts/Utils.sol\":20492:20520  DRG_PER_YEAR.mul(poolWeight) */\n      swap2\n      swap1\n      0xffffffff\n      and\n      jump\t// in\n    tag_260:\n        /* \"contracts/Utils.sol\":20491:20525  (DRG_PER_YEAR.mul(poolWeight)).div */\n      tag_165\n      swap1\n        /* \"contracts/Utils.sol\":20491:20533  (DRG_PER_YEAR.mul(poolWeight)).div(amount) */\n      swap2\n      swap1\n      0xffffffff\n      and\n      jump\t// in\n    tag_259:\n        /* \"contracts/Utils.sol\":20455:20533  uint256 yearlyDRGRewardAllocation = (DRG_PER_YEAR.mul(poolWeight)).div(amount) */\n      swap1\n      pop\n        /* \"contracts/Utils.sol\":20544:20568  uint256 poolLiquidityUsd */\n      0x00\n        /* \"contracts/Utils.sol\":20571:20621  calcPoolTVLInUSD(pid, lpAddress, isLp, MasterChef) */\n      tag_261\n        /* \"contracts/Utils.sol\":20588:20591  pid */\n      dup12\n        /* \"contracts/Utils.sol\":20593:20602  lpAddress */\n      dup12\n        /* \"contracts/Utils.sol\":20604:20608  isLp */\n      dup12\n        /* \"contracts/Utils.sol\":20610:20620  MasterChef */\n      dup12\n        /* \"contracts/Utils.sol\":20571:20587  calcPoolTVLInUSD */\n      tag_68\n        /* \"contracts/Utils.sol\":20571:20621  calcPoolTVLInUSD(pid, lpAddress, isLp, MasterChef) */\n      jump\t// in\n    tag_261:\n        /* \"contracts/Utils.sol\":20544:20621  uint256 poolLiquidityUsd = calcPoolTVLInUSD(pid, lpAddress, isLp, MasterChef) */\n      swap1\n      pop\n        /* \"contracts/Utils.sol\":20640:20724  (((yearlyDRGRewardAllocation.mul(rewardTokenPrice))).div(poolLiquidityUsd)).mul(100) */\n      tag_262\n        /* \"contracts/Utils.sol\":20720:20723  100 */\n      0x64\n        /* \"contracts/Utils.sol\":20641:20714  ((yearlyDRGRewardAllocation.mul(rewardTokenPrice))).div(poolLiquidityUsd) */\n      tag_263\n        /* \"contracts/Utils.sol\":20697:20713  poolLiquidityUsd */\n      dup4\n        /* \"contracts/Utils.sol\":20643:20690  yearlyDRGRewardAllocation.mul(rewardTokenPrice) */\n      tag_264\n        /* \"contracts/Utils.sol\":20673:20689  rewardTokenPrice */\n      dup9\n        /* \"contracts/Utils.sol\":20643:20668  yearlyDRGRewardAllocation */\n      dup8\n        /* \"contracts/Utils.sol\":20643:20672  yearlyDRGRewardAllocation.mul */\n      tag_116\n      swap1\n        /* \"contracts/Utils.sol\":20643:20690  yearlyDRGRewardAllocation.mul(rewardTokenPrice) */\n      swap2\n      swap1\n      0xffffffff\n      and\n      jump\t// in\n    tag_264:\n        /* \"contracts/Utils.sol\":20641:20696  ((yearlyDRGRewardAllocation.mul(rewardTokenPrice))).div */\n      tag_165\n      swap1\n        /* \"contracts/Utils.sol\":20641:20714  ((yearlyDRGRewardAllocation.mul(rewardTokenPrice))).div(poolLiquidityUsd) */\n      swap2\n      swap1\n      0xffffffff\n      and\n      jump\t// in\n    tag_263:\n        /* \"contracts/Utils.sol\":20640:20719  (((yearlyDRGRewardAllocation.mul(rewardTokenPrice))).div(poolLiquidityUsd)).mul */\n      tag_116\n      swap1\n        /* \"contracts/Utils.sol\":20640:20724  (((yearlyDRGRewardAllocation.mul(rewardTokenPrice))).div(poolLiquidityUsd)).mul(100) */\n      swap2\n      swap1\n      0xffffffff\n      and\n      jump\t// in\n    tag_262:\n        /* \"contracts/Utils.sol\":20634:20724  return(((yearlyDRGRewardAllocation.mul(rewardTokenPrice))).div(poolLiquidityUsd)).mul(100) */\n      swap7\n      pop\n      pop\n      pop\n      pop\n      pop\n      pop\n      pop\n        /* \"contracts/Utils.sol\":20030:20732  function CalcApy(uint256 pid, LP lpAddress,uint256 isLp, MetaMasterChef MasterChef) external view returns(uint256){... */\n      swap5\n      swap4\n      pop\n      pop\n      pop\n      pop\n      jump\t// out\n        /* \"contracts/Utils.sol\":14758:14959  function transferOwnership(address newOwner) public virtual onlyOwner {... */\n    tag_76:\n        /* \"contracts/Utils.sol\":14080:14092  _msgSender() */\n      tag_266\n        /* \"contracts/Utils.sol\":14080:14090  _msgSender */\n      tag_190\n        /* \"contracts/Utils.sol\":14080:14092  _msgSender() */\n      jump\t// in\n    tag_266:\n        /* \"contracts/Utils.sol\":14069:14092  owner() == _msgSender() */\n      0xffffffffffffffffffffffffffffffffffffffff\n      and\n        /* \"contracts/Utils.sol\":14069:14076  owner() */\n      tag_267\n        /* \"contracts/Utils.sol\":14069:14074  owner */\n      tag_56\n        /* \"contracts/Utils.sol\":14069:14076  owner() */\n      jump\t// in\n    tag_267:\n        /* \"contracts/Utils.sol\":14069:14092  owner() == _msgSender() */\n      0xffffffffffffffffffffffffffffffffffffffff\n      and\n      eq\n        /* \"contracts/Utils.sol\":14061:14129  require(owner() == _msgSender(), \"Ownable: caller is not the owner\") */\n      tag_268\n      jumpi\n      mload(0x40)\n      0x08c379a000000000000000000000000000000000000000000000000000000000\n      dup2\n      mstore\n      0x04\n      add\n      tag_269\n      swap1\n      tag_194\n      jump\t// in\n    tag_269:\n      mload(0x40)\n      dup1\n      swap2\n      sub\n      swap1\n      revert\n    tag_268:\n        /* \"contracts/Utils.sol\":14867:14868  0 */\n      0x00\n        /* \"contracts/Utils.sol\":14847:14869  newOwner != address(0) */\n      0xffffffffffffffffffffffffffffffffffffffff\n      and\n        /* \"contracts/Utils.sol\":14847:14855  newOwner */\n      dup2\n        /* \"contracts/Utils.sol\":14847:14869  newOwner != address(0) */\n      0xffffffffffffffffffffffffffffffffffffffff\n      and\n      sub\n        /* \"contracts/Utils.sol\":14839:14912  require(newOwner != address(0), \"Ownable: new owner is the zero address\") */\n      tag_271\n      jumpi\n      mload(0x40)\n      0x08c379a000000000000000000000000000000000000000000000000000000000\n      dup2\n      mstore\n      0x04\n      add\n      tag_272\n      swap1\n      tag_273\n      jump\t// in\n    tag_272:\n      mload(0x40)\n      dup1\n      swap2\n      sub\n      swap1\n      revert\n    tag_271:\n        /* \"contracts/Utils.sol\":14923:14951  _transferOwnership(newOwner) */\n      tag_274\n        /* \"contracts/Utils.sol\":14942:14950  newOwner */\n      dup2\n        /* \"contracts/Utils.sol\":14923:14941  _transferOwnership */\n      tag_197\n        /* \"contracts/Utils.sol\":14923:14951  _transferOwnership(newOwner) */\n      jump\t// in\n    tag_274:\n        /* \"contracts/Utils.sol\":14758:14959  function transferOwnership(address newOwner) public virtual onlyOwner {... */\n      pop\n      jump\t// out\n        /* \"contracts/Utils.sol\":9965:10436  function mul(uint256 a, uint256 b) internal pure returns (uint256) {... */\n    tag_116:\n        /* \"contracts/Utils.sol\":10023:10030  uint256 */\n      0x00\n        /* \"contracts/Utils.sol\":10273:10274  0 */\n      dup1\n        /* \"contracts/Utils.sol\":10268:10269  a */\n      dup4\n        /* \"contracts/Utils.sol\":10268:10274  a == 0 */\n      sub\n        /* \"contracts/Utils.sol\":10264:10311  if (a == 0) {... */\n      tag_276\n      jumpi\n        /* \"contracts/Utils.sol\":10298:10299  0 */\n      0x00\n        /* \"contracts/Utils.sol\":10291:10299  return 0 */\n      swap1\n      pop\n      jump(tag_275)\n        /* \"contracts/Utils.sol\":10264:10311  if (a == 0) {... */\n    tag_276:\n        /* \"contracts/Utils.sol\":10323:10332  uint256 c */\n      0x00\n        /* \"contracts/Utils.sol\":10339:10340  b */\n      dup3\n        /* \"contracts/Utils.sol\":10335:10336  a */\n      dup5\n        /* \"contracts/Utils.sol\":10335:10340  a * b */\n      tag_277\n      swap2\n      swap1\n      tag_239\n      jump\t// in\n    tag_277:\n        /* \"contracts/Utils.sol\":10323:10340  uint256 c = a * b */\n      swap1\n      pop\n        /* \"contracts/Utils.sol\":10368:10369  b */\n      dup3\n        /* \"contracts/Utils.sol\":10363:10364  a */\n      dup5\n        /* \"contracts/Utils.sol\":10359:10360  c */\n      dup3\n        /* \"contracts/Utils.sol\":10359:10364  c / a */\n      tag_278\n      swap2\n      swap1\n      tag_279\n      jump\t// in\n    tag_278:\n        /* \"contracts/Utils.sol\":10359:10369  c / a == b */\n      eq\n        /* \"contracts/Utils.sol\":10351:10407  require(c / a == b, \"SafeMath: multiplication overflow\") */\n      tag_280\n      jumpi\n      mload(0x40)\n      0x08c379a000000000000000000000000000000000000000000000000000000000\n      dup2\n      mstore\n      0x04\n      add\n      tag_281\n      swap1\n      tag_282\n      jump\t// in\n    tag_281:\n      mload(0x40)\n      dup1\n      swap2\n      sub\n      swap1\n      revert\n    tag_280:\n        /* \"contracts/Utils.sol\":10427:10428  c */\n      dup1\n        /* \"contracts/Utils.sol\":10420:10428  return c */\n      swap2\n      pop\n      pop\n        /* \"contracts/Utils.sol\":9965:10436  function mul(uint256 a, uint256 b) internal pure returns (uint256) {... */\n    tag_275:\n      swap3\n      swap2\n      pop\n      pop\n      jump\t// out\n        /* \"contracts/Utils.sol\":8593:8774  function add(uint256 a, uint256 b) internal pure returns (uint256) {... */\n    tag_164:\n        /* \"contracts/Utils.sol\":8651:8658  uint256 */\n      0x00\n        /* \"contracts/Utils.sol\":8671:8680  uint256 c */\n      dup1\n        /* \"contracts/Utils.sol\":8687:8688  b */\n      dup3\n        /* \"contracts/Utils.sol\":8683:8684  a */\n      dup5\n        /* \"contracts/Utils.sol\":8683:8688  a + b */\n      tag_284\n      swap2\n      swap1\n      tag_285\n      jump\t// in\n    tag_284:\n        /* \"contracts/Utils.sol\":8671:8688  uint256 c = a + b */\n      swap1\n      pop\n        /* \"contracts/Utils.sol\":8712:8713  a */\n      dup4\n        /* \"contracts/Utils.sol\":8707:8708  c */\n      dup2\n        /* \"contracts/Utils.sol\":8707:8713  c >= a */\n      lt\n      iszero\n        /* \"contracts/Utils.sol\":8699:8745  require(c >= a, \"SafeMath: addition overflow\") */\n      tag_286\n      jumpi\n      mload(0x40)\n      0x08c379a000000000000000000000000000000000000000000000000000000000\n      dup2\n      mstore\n      0x04\n      add\n      tag_287\n      swap1\n      tag_288\n      jump\t// in\n    tag_287:\n      mload(0x40)\n      dup1\n      swap2\n      sub\n      swap1\n      revert\n    tag_286:\n        /* \"contracts/Utils.sol\":8765:8766  c */\n      dup1\n        /* \"contracts/Utils.sol\":8758:8766  return c */\n      swap2\n      pop\n      pop\n        /* \"contracts/Utils.sol\":8593:8774  function add(uint256 a, uint256 b) internal pure returns (uint256) {... */\n      swap3\n      swap2\n      pop\n      pop\n      jump\t// out\n        /* \"contracts/Utils.sol\":10904:11036  function div(uint256 a, uint256 b) internal pure returns (uint256) {... */\n    tag_165:\n        /* \"contracts/Utils.sol\":10962:10969  uint256 */\n      0x00\n        /* \"contracts/Utils.sol\":10989:11028  div(a, b, \"SafeMath: division by zero\") */\n      tag_290\n        /* \"contracts/Utils.sol\":10993:10994  a */\n      dup4\n        /* \"contracts/Utils.sol\":10996:10997  b */\n      dup4\n        /* \"contracts/Utils.sol\":10989:11028  div(a, b, \"SafeMath: division by zero\") */\n      mload(0x40)\n      dup1\n      0x40\n      add\n      0x40\n      mstore\n      dup1\n      0x1a\n      dup2\n      mstore\n      0x20\n      add\n      0x536166654d6174683a206469766973696f6e206279207a65726f000000000000\n      dup2\n      mstore\n      pop\n        /* \"contracts/Utils.sol\":10989:10992  div */\n      tag_291\n        /* \"contracts/Utils.sol\":10989:11028  div(a, b, \"SafeMath: division by zero\") */\n      jump\t// in\n    tag_290:\n        /* \"contracts/Utils.sol\":10982:11028  return div(a, b, \"SafeMath: division by zero\") */\n      swap1\n      pop\n        /* \"contracts/Utils.sol\":10904:11036  function div(uint256 a, uint256 b) internal pure returns (uint256) {... */\n      swap3\n      swap2\n      pop\n      pop\n      jump\t// out\n        /* \"contracts/Utils.sol\":13223:13321  function _msgSender() internal view virtual returns (address) {... */\n    tag_190:\n        /* \"contracts/Utils.sol\":13276:13283  address */\n      0x00\n        /* \"contracts/Utils.sol\":13303:13313  msg.sender */\n      caller\n        /* \"contracts/Utils.sol\":13296:13313  return msg.sender */\n      swap1\n      pop\n        /* \"contracts/Utils.sol\":13223:13321  function _msgSender() internal view virtual returns (address) {... */\n      swap1\n      jump\t// out\n        /* \"contracts/Utils.sol\":15119:15310  function _transferOwnership(address newOwner) internal virtual {... */\n    tag_197:\n        /* \"contracts/Utils.sol\":15193:15209  address oldOwner */\n      0x00\n        /* \"contracts/Utils.sol\":15212:15218  _owner */\n      dup1\n      0x00\n      swap1\n      sload\n      swap1\n      0x0100\n      exp\n      swap1\n      div\n      0xffffffffffffffffffffffffffffffffffffffff\n      and\n        /* \"contracts/Utils.sol\":15193:15218  address oldOwner = _owner */\n      swap1\n      pop\n        /* \"contracts/Utils.sol\":15238:15246  newOwner */\n      dup2\n        /* \"contracts/Utils.sol\":15229:15235  _owner */\n      0x00\n      dup1\n        /* \"contracts/Utils.sol\":15229:15246  _owner = newOwner */\n      0x0100\n      exp\n      dup2\n      sload\n      dup2\n      0xffffffffffffffffffffffffffffffffffffffff\n      mul\n      not\n      and\n      swap1\n      dup4\n      0xffffffffffffffffffffffffffffffffffffffff\n      and\n      mul\n      or\n      swap1\n      sstore\n      pop\n        /* \"contracts/Utils.sol\":15293:15301  newOwner */\n      dup2\n        /* \"contracts/Utils.sol\":15262:15302  OwnershipTransferred(oldOwner, newOwner) */\n      0xffffffffffffffffffffffffffffffffffffffff\n      and\n        /* \"contracts/Utils.sol\":15283:15291  oldOwner */\n      dup2\n        /* \"contracts/Utils.sol\":15262:15302  OwnershipTransferred(oldOwner, newOwner) */\n      0xffffffffffffffffffffffffffffffffffffffff\n      and\n      0x8be0079c531659141344cd1fd0a4f28419497f9722a3daafe3b4186f6b6457e0\n      mload(0x40)\n      mload(0x40)\n      dup1\n      swap2\n      sub\n      swap1\n      log3\n        /* \"contracts/Utils.sol\":15182:15310  {... */\n      pop\n        /* \"contracts/Utils.sol\":15119:15310  function _transferOwnership(address newOwner) internal virtual {... */\n      pop\n      jump\t// out\n        /* \"contracts/Utils.sol\":11566:11911  function div(uint256 a, uint256 b, string memory errorMessage) internal pure returns (uint256) {... */\n    tag_291:\n        /* \"contracts/Utils.sol\":11652:11659  uint256 */\n      0x00\n        /* \"contracts/Utils.sol\":11751:11752  0 */\n      dup1\n        /* \"contracts/Utils.sol\":11747:11748  b */\n      dup4\n        /* \"contracts/Utils.sol\":11747:11752  b > 0 */\n      gt\n        /* \"contracts/Utils.sol\":11754:11766  errorMessage */\n      dup3\n        /* \"contracts/Utils.sol\":11739:11767  require(b > 0, errorMessage) */\n      swap1\n      tag_295\n      jumpi\n      mload(0x40)\n      0x08c379a000000000000000000000000000000000000000000000000000000000\n      dup2\n      mstore\n      0x04\n      add\n      tag_296\n      swap2\n      swap1\n      tag_297\n      jump\t// in\n    tag_296:\n      mload(0x40)\n      dup1\n      swap2\n      sub\n      swap1\n      revert\n    tag_295:\n      pop\n        /* \"contracts/Utils.sol\":11778:11787  uint256 c */\n      0x00\n        /* \"contracts/Utils.sol\":11794:11795  b */\n      dup4\n        /* \"contracts/Utils.sol\":11790:11791  a */\n      dup6\n        /* \"contracts/Utils.sol\":11790:11795  a / b */\n      tag_298\n      swap2\n      swap1\n      tag_279\n      jump\t// in\n    tag_298:\n        /* \"contracts/Utils.sol\":11778:11795  uint256 c = a / b */\n      swap1\n      pop\n        /* \"contracts/Utils.sol\":11902:11903  c */\n      dup1\n        /* \"contracts/Utils.sol\":11895:11903  return c */\n      swap2\n      pop\n      pop\n        /* \"contracts/Utils.sol\":11566:11911  function div(uint256 a, uint256 b, string memory errorMessage) internal pure returns (uint256) {... */\n      swap4\n      swap3\n      pop\n      pop\n      pop\n      jump\t// out\n    tag_200:\n      mload(0x40)\n      dup1\n      0xc0\n      add\n      0x40\n      mstore\n      dup1\n      and(0xffffffffffffffffffffffffffffffffffffffff, 0x00)\n      dup2\n      mstore\n      0x20\n      add\n      0x00\n      dup2\n      mstore\n      0x20\n      add\n      0x00\n      dup2\n      mstore\n      0x20\n      add\n      0x00\n      dup2\n      mstore\n      0x20\n      add\n      and(0xffffffffffffffffffffffffffffffffffffffff, 0x00)\n      dup2\n      mstore\n      0x20\n      add\n      and(0xffffffffffffffffffffffffffffffffffffffff, 0x00)\n      dup2\n      mstore\n      pop\n      swap1\n      jump\t// out\n        /* \"#utility.yul\":7:82   */\n    tag_299:\n        /* \"#utility.yul\":40:46   */\n      0x00\n        /* \"#utility.yul\":73:75   */\n      0x40\n        /* \"#utility.yul\":67:76   */\n      mload\n        /* \"#utility.yul\":57:76   */\n      swap1\n      pop\n        /* \"#utility.yul\":7:82   */\n      swap1\n      jump\t// out\n        /* \"#utility.yul\":88:205   */\n    tag_300:\n        /* \"#utility.yul\":197:198   */\n      0x00\n        /* \"#utility.yul\":194:195   */\n      dup1\n        /* \"#utility.yul\":187:199   */\n      revert\n        /* \"#utility.yul\":211:328   */\n    tag_301:\n        /* \"#utility.yul\":320:321   */\n      0x00\n        /* \"#utility.yul\":317:318   */\n      dup1\n        /* \"#utility.yul\":310:322   */\n      revert\n        /* \"#utility.yul\":334:460   */\n    tag_302:\n        /* \"#utility.yul\":371:378   */\n      0x00\n        /* \"#utility.yul\":411:453   */\n      0xffffffffffffffffffffffffffffffffffffffff\n        /* \"#utility.yul\":404:409   */\n      dup3\n        /* \"#utility.yul\":400:454   */\n      and\n        /* \"#utility.yul\":389:454   */\n      swap1\n      pop\n        /* \"#utility.yul\":334:460   */\n      swap2\n      swap1\n      pop\n      jump\t// out\n        /* \"#utility.yul\":466:562   */\n    tag_303:\n        /* \"#utility.yul\":503:510   */\n      0x00\n        /* \"#utility.yul\":532:556   */\n      tag_372\n        /* \"#utility.yul\":550:555   */\n      dup3\n        /* \"#utility.yul\":532:556   */\n      tag_302\n      jump\t// in\n    tag_372:\n        /* \"#utility.yul\":521:556   */\n      swap1\n      pop\n        /* \"#utility.yul\":466:562   */\n      swap2\n      swap1\n      pop\n      jump\t// out\n        /* \"#utility.yul\":568:690   */\n    tag_304:\n        /* \"#utility.yul\":641:665   */\n      tag_374\n        /* \"#utility.yul\":659:664   */\n      dup2\n        /* \"#utility.yul\":641:665   */\n      tag_303\n      jump\t// in\n    tag_374:\n        /* \"#utility.yul\":634:639   */\n      dup2\n        /* \"#utility.yul\":631:666   */\n      eq\n        /* \"#utility.yul\":621:684   */\n      tag_375\n      jumpi\n        /* \"#utility.yul\":680:681   */\n      0x00\n        /* \"#utility.yul\":677:678   */\n      dup1\n        /* \"#utility.yul\":670:682   */\n      revert\n        /* \"#utility.yul\":621:684   */\n    tag_375:\n        /* \"#utility.yul\":568:690   */\n      pop\n      jump\t// out\n        /* \"#utility.yul\":696:835   */\n    tag_305:\n        /* \"#utility.yul\":742:747   */\n      0x00\n        /* \"#utility.yul\":780:786   */\n      dup2\n        /* \"#utility.yul\":767:787   */\n      calldataload\n        /* \"#utility.yul\":758:787   */\n      swap1\n      pop\n        /* \"#utility.yul\":796:829   */\n      tag_377\n        /* \"#utility.yul\":823:828   */\n      dup2\n        /* \"#utility.yul\":796:829   */\n      tag_304\n      jump\t// in\n    tag_377:\n        /* \"#utility.yul\":696:835   */\n      swap3\n      swap2\n      pop\n      pop\n      jump\t// out\n        /* \"#utility.yul\":841:1170   */\n    tag_22:\n        /* \"#utility.yul\":900:906   */\n      0x00\n        /* \"#utility.yul\":949:951   */\n      0x20\n        /* \"#utility.yul\":937:946   */\n      dup3\n        /* \"#utility.yul\":928:935   */\n      dup5\n        /* \"#utility.yul\":924:947   */\n      sub\n        /* \"#utility.yul\":920:952   */\n      slt\n        /* \"#utility.yul\":917:1036   */\n      iszero\n      tag_379\n      jumpi\n        /* \"#utility.yul\":955:1034   */\n      tag_380\n      tag_300\n      jump\t// in\n    tag_380:\n        /* \"#utility.yul\":917:1036   */\n    tag_379:\n        /* \"#utility.yul\":1075:1076   */\n      0x00\n        /* \"#utility.yul\":1100:1153   */\n      tag_381\n        /* \"#utility.yul\":1145:1152   */\n      dup5\n        /* \"#utility.yul\":1136:1142   */\n      dup3\n        /* \"#utility.yul\":1125:1134   */\n      dup6\n        /* \"#utility.yul\":1121:1143   */\n      add\n        /* \"#utility.yul\":1100:1153   */\n      tag_305\n      jump\t// in\n    tag_381:\n        /* \"#utility.yul\":1090:1153   */\n      swap2\n      pop\n        /* \"#utility.yul\":1046:1163   */\n      pop\n        /* \"#utility.yul\":841:1170   */\n      swap3\n      swap2\n      pop\n      pop\n      jump\t// out\n        /* \"#utility.yul\":1176:1253   */\n    tag_306:\n        /* \"#utility.yul\":1213:1220   */\n      0x00\n        /* \"#utility.yul\":1242:1247   */\n      dup2\n        /* \"#utility.yul\":1231:1247   */\n      swap1\n      pop\n        /* \"#utility.yul\":1176:1253   */\n      swap2\n      swap1\n      pop\n      jump\t// out\n        /* \"#utility.yul\":1259:1377   */\n    tag_307:\n        /* \"#utility.yul\":1346:1370   */\n      tag_384\n        /* \"#utility.yul\":1364:1369   */\n      dup2\n        /* \"#utility.yul\":1346:1370   */\n      tag_306\n      jump\t// in\n    tag_384:\n        /* \"#utility.yul\":1341:1344   */\n      dup3\n        /* \"#utility.yul\":1334:1371   */\n      mstore\n        /* \"#utility.yul\":1259:1377   */\n      pop\n      pop\n      jump\t// out\n        /* \"#utility.yul\":1383:1605   */\n    tag_25:\n        /* \"#utility.yul\":1476:1480   */\n      0x00\n        /* \"#utility.yul\":1514:1516   */\n      0x20\n        /* \"#utility.yul\":1503:1512   */\n      dup3\n        /* \"#utility.yul\":1499:1517   */\n      add\n        /* \"#utility.yul\":1491:1517   */\n      swap1\n      pop\n        /* \"#utility.yul\":1527:1598   */\n      tag_386\n        /* \"#utility.yul\":1595:1596   */\n      0x00\n        /* \"#utility.yul\":1584:1593   */\n      dup4\n        /* \"#utility.yul\":1580:1597   */\n      add\n        /* \"#utility.yul\":1571:1577   */\n      dup5\n        /* \"#utility.yul\":1527:1598   */\n      tag_307\n      jump\t// in\n    tag_386:\n        /* \"#utility.yul\":1383:1605   */\n      swap3\n      swap2\n      pop\n      pop\n      jump\t// out\n        /* \"#utility.yul\":1611:1717   */\n    tag_308:\n        /* \"#utility.yul\":1658:1665   */\n      0x00\n        /* \"#utility.yul\":1687:1711   */\n      tag_388\n        /* \"#utility.yul\":1705:1710   */\n      dup3\n        /* \"#utility.yul\":1687:1711   */\n      tag_303\n      jump\t// in\n    tag_388:\n        /* \"#utility.yul\":1676:1711   */\n      swap1\n      pop\n        /* \"#utility.yul\":1611:1717   */\n      swap2\n      swap1\n      pop\n      jump\t// out\n        /* \"#utility.yul\":1723:1865   */\n    tag_309:\n        /* \"#utility.yul\":1806:1840   */\n      tag_390\n        /* \"#utility.yul\":1834:1839   */\n      dup2\n        /* \"#utility.yul\":1806:1840   */\n      tag_308\n      jump\t// in\n    tag_390:\n        /* \"#utility.yul\":1799:1804   */\n      dup2\n        /* \"#utility.yul\":1796:1841   */\n      eq\n        /* \"#utility.yul\":1786:1859   */\n      tag_391\n      jumpi\n        /* \"#utility.yul\":1855:1856   */\n      0x00\n        /* \"#utility.yul\":1852:1853   */\n      dup1\n        /* \"#utility.yul\":1845:1857   */\n      revert\n        /* \"#utility.yul\":1786:1859   */\n    tag_391:\n        /* \"#utility.yul\":1723:1865   */\n      pop\n      jump\t// out\n        /* \"#utility.yul\":1871:2030   */\n    tag_310:\n        /* \"#utility.yul\":1927:1932   */\n      0x00\n        /* \"#utility.yul\":1965:1971   */\n      dup2\n        /* \"#utility.yul\":1952:1972   */\n      calldataload\n        /* \"#utility.yul\":1943:1972   */\n      swap1\n      pop\n        /* \"#utility.yul\":1981:2024   */\n      tag_393\n        /* \"#utility.yul\":2018:2023   */\n      dup2\n        /* \"#utility.yul\":1981:2024   */\n      tag_309\n      jump\t// in\n    tag_393:\n        /* \"#utility.yul\":1871:2030   */\n      swap3\n      swap2\n      pop\n      pop\n      jump\t// out\n        /* \"#utility.yul\":2036:2385   */\n    tag_28:\n        /* \"#utility.yul\":2105:2111   */\n      0x00\n        /* \"#utility.yul\":2154:2156   */\n      0x20\n        /* \"#utility.yul\":2142:2151   */\n      dup3\n        /* \"#utility.yul\":2133:2140   */\n      dup5\n        /* \"#utility.yul\":2129:2152   */\n      sub\n        /* \"#utility.yul\":2125:2157   */\n      slt\n        /* \"#utility.yul\":2122:2241   */\n      iszero\n      tag_395\n      jumpi\n        /* \"#utility.yul\":2160:2239   */\n      tag_396\n      tag_300\n      jump\t// in\n    tag_396:\n        /* \"#utility.yul\":2122:2241   */\n    tag_395:\n        /* \"#utility.yul\":2280:2281   */\n      0x00\n        /* \"#utility.yul\":2305:2368   */\n      tag_397\n        /* \"#utility.yul\":2360:2367   */\n      dup5\n        /* \"#utility.yul\":2351:2357   */\n      dup3\n        /* \"#utility.yul\":2340:2349   */\n      dup6\n        /* \"#utility.yul\":2336:2358   */\n      add\n        /* \"#utility.yul\":2305:2368   */\n      tag_310\n      jump\t// in\n    tag_397:\n        /* \"#utility.yul\":2295:2368   */\n      swap2\n      pop\n        /* \"#utility.yul\":2251:2378   */\n      pop\n        /* \"#utility.yul\":2036:2385   */\n      swap3\n      swap2\n      pop\n      pop\n      jump\t// out\n        /* \"#utility.yul\":2391:2501   */\n    tag_311:\n        /* \"#utility.yul\":2442:2449   */\n      0x00\n        /* \"#utility.yul\":2471:2495   */\n      tag_399\n        /* \"#utility.yul\":2489:2494   */\n      dup3\n        /* \"#utility.yul\":2471:2495   */\n      tag_303\n      jump\t// in\n    tag_399:\n        /* \"#utility.yul\":2460:2495   */\n      swap1\n      pop\n        /* \"#utility.yul\":2391:2501   */\n      swap2\n      swap1\n      pop\n      jump\t// out\n        /* \"#utility.yul\":2507:2657   */\n    tag_312:\n        /* \"#utility.yul\":2594:2632   */\n      tag_401\n        /* \"#utility.yul\":2626:2631   */\n      dup2\n        /* \"#utility.yul\":2594:2632   */\n      tag_311\n      jump\t// in\n    tag_401:\n        /* \"#utility.yul\":2587:2592   */\n      dup2\n        /* \"#utility.yul\":2584:2633   */\n      eq\n        /* \"#utility.yul\":2574:2651   */\n      tag_402\n      jumpi\n        /* \"#utility.yul\":2647:2648   */\n      0x00\n        /* \"#utility.yul\":2644:2645   */\n      dup1\n        /* \"#utility.yul\":2637:2649   */\n      revert\n        /* \"#utility.yul\":2574:2651   */\n    tag_402:\n        /* \"#utility.yul\":2507:2657   */\n      pop\n      jump\t// out\n        /* \"#utility.yul\":2663:2830   */\n    tag_313:\n        /* \"#utility.yul\":2723:2728   */\n      0x00\n        /* \"#utility.yul\":2761:2767   */\n      dup2\n        /* \"#utility.yul\":2748:2768   */\n      calldataload\n        /* \"#utility.yul\":2739:2768   */\n      swap1\n      pop\n        /* \"#utility.yul\":2777:2824   */\n      tag_404\n        /* \"#utility.yul\":2818:2823   */\n      dup2\n        /* \"#utility.yul\":2777:2824   */\n      tag_312\n      jump\t// in\n    tag_404:\n        /* \"#utility.yul\":2663:2830   */\n      swap3\n      swap2\n      pop\n      pop\n      jump\t// out\n        /* \"#utility.yul\":2836:3193   */\n    tag_33:\n        /* \"#utility.yul\":2909:2915   */\n      0x00\n        /* \"#utility.yul\":2958:2960   */\n      0x20\n        /* \"#utility.yul\":2946:2955   */\n      dup3\n        /* \"#utility.yul\":2937:2944   */\n      dup5\n        /* \"#utility.yul\":2933:2956   */\n      sub\n        /* \"#utility.yul\":2929:2961   */\n      slt\n        /* \"#utility.yul\":2926:3045   */\n      iszero\n      tag_406\n      jumpi\n        /* \"#utility.yul\":2964:3043   */\n      tag_407\n      tag_300\n      jump\t// in\n    tag_407:\n        /* \"#utility.yul\":2926:3045   */\n    tag_406:\n        /* \"#utility.yul\":3084:3085   */\n      0x00\n        /* \"#utility.yul\":3109:3176   */\n      tag_408\n        /* \"#utility.yul\":3168:3175   */\n      dup5\n        /* \"#utility.yul\":3159:3165   */\n      dup3\n        /* \"#utility.yul\":3148:3157   */\n      dup6\n        /* \"#utility.yul\":3144:3166   */\n      add\n        /* \"#utility.yul\":3109:3176   */\n      tag_313\n      jump\t// in\n    tag_408:\n        /* \"#utility.yul\":3099:3176   */\n      swap2\n      pop\n        /* \"#utility.yul\":3055:3186   */\n      pop\n        /* \"#utility.yul\":2836:3193   */\n      swap3\n      swap2\n      pop\n      pop\n      jump\t// out\n        /* \"#utility.yul\":3199:3259   */\n    tag_314:\n        /* \"#utility.yul\":3227:3230   */\n      0x00\n        /* \"#utility.yul\":3248:3253   */\n      dup2\n        /* \"#utility.yul\":3241:3253   */\n      swap1\n      pop\n        /* \"#utility.yul\":3199:3259   */\n      swap2\n      swap1\n      pop\n      jump\t// out\n        /* \"#utility.yul\":3265:3407   */\n    tag_315:\n        /* \"#utility.yul\":3315:3324   */\n      0x00\n        /* \"#utility.yul\":3348:3401   */\n      tag_411\n        /* \"#utility.yul\":3366:3400   */\n      tag_412\n        /* \"#utility.yul\":3375:3399   */\n      tag_413\n        /* \"#utility.yul\":3393:3398   */\n      dup5\n        /* \"#utility.yul\":3375:3399   */\n      tag_302\n      jump\t// in\n    tag_413:\n        /* \"#utility.yul\":3366:3400   */\n      tag_314\n      jump\t// in\n    tag_412:\n        /* \"#utility.yul\":3348:3401   */\n      tag_302\n      jump\t// in\n    tag_411:\n        /* \"#utility.yul\":3335:3401   */\n      swap1\n      pop\n        /* \"#utility.yul\":3265:3407   */\n      swap2\n      swap1\n      pop\n      jump\t// out\n        /* \"#utility.yul\":3413:3539   */\n    tag_316:\n        /* \"#utility.yul\":3463:3472   */\n      0x00\n        /* \"#utility.yul\":3496:3533   */\n      tag_415\n        /* \"#utility.yul\":3527:3532   */\n      dup3\n        /* \"#utility.yul\":3496:3533   */\n      tag_315\n      jump\t// in\n    tag_415:\n        /* \"#utility.yul\":3483:3533   */\n      swap1\n      pop\n        /* \"#utility.yul\":3413:3539   */\n      swap2\n      swap1\n      pop\n      jump\t// out\n        /* \"#utility.yul\":3545:3685   */\n    tag_317:\n        /* \"#utility.yul\":3609:3618   */\n      0x00\n        /* \"#utility.yul\":3642:3679   */\n      tag_417\n        /* \"#utility.yul\":3673:3678   */\n      dup3\n        /* \"#utility.yul\":3642:3679   */\n      tag_316\n      jump\t// in\n    tag_417:\n        /* \"#utility.yul\":3629:3679   */\n      swap1\n      pop\n        /* \"#utility.yul\":3545:3685   */\n      swap2\n      swap1\n      pop\n      jump\t// out\n        /* \"#utility.yul\":3691:3850   */\n    tag_318:\n        /* \"#utility.yul\":3792:3843   */\n      tag_419\n        /* \"#utility.yul\":3837:3842   */\n      dup2\n        /* \"#utility.yul\":3792:3843   */\n      tag_317\n      jump\t// in\n    tag_419:\n        /* \"#utility.yul\":3787:3790   */\n      dup3\n        /* \"#utility.yul\":3780:3844   */\n      mstore\n        /* \"#utility.yul\":3691:3850   */\n      pop\n      pop\n      jump\t// out\n        /* \"#utility.yul\":3856:4106   */\n    tag_39:\n        /* \"#utility.yul\":3963:3967   */\n      0x00\n        /* \"#utility.yul\":4001:4003   */\n      0x20\n        /* \"#utility.yul\":3990:3999   */\n      dup3\n        /* \"#utility.yul\":3986:4004   */\n      add\n        /* \"#utility.yul\":3978:4004   */\n      swap1\n      pop\n        /* \"#utility.yul\":4014:4099   */\n      tag_421\n        /* \"#utility.yul\":4096:4097   */\n      0x00\n        /* \"#utility.yul\":4085:4094   */\n      dup4\n        /* \"#utility.yul\":4081:4098   */\n      add\n        /* \"#utility.yul\":4072:4078   */\n      dup5\n        /* \"#utility.yul\":4014:4099   */\n      tag_318\n      jump\t// in\n    tag_421:\n        /* \"#utility.yul\":3856:4106   */\n      swap3\n      swap2\n      pop\n      pop\n      jump\t// out\n        /* \"#utility.yul\":4112:4230   */\n    tag_319:\n        /* \"#utility.yul\":4199:4223   */\n      tag_423\n        /* \"#utility.yul\":4217:4222   */\n      dup2\n        /* \"#utility.yul\":4199:4223   */\n      tag_303\n      jump\t// in\n    tag_423:\n        /* \"#utility.yul\":4194:4197   */\n      dup3\n        /* \"#utility.yul\":4187:4224   */\n      mstore\n        /* \"#utility.yul\":4112:4230   */\n      pop\n      pop\n      jump\t// out\n        /* \"#utility.yul\":4236:4458   */\n    tag_47:\n        /* \"#utility.yul\":4329:4333   */\n      0x00\n        /* \"#utility.yul\":4367:4369   */\n      0x20\n        /* \"#utility.yul\":4356:4365   */\n      dup3\n        /* \"#utility.yul\":4352:4370   */\n      add\n        /* \"#utility.yul\":4344:4370   */\n      swap1\n      pop\n        /* \"#utility.yul\":4380:4451   */\n      tag_425\n        /* \"#utility.yul\":4448:4449   */\n      0x00\n        /* \"#utility.yul\":4437:4446   */\n      dup4\n        /* \"#utility.yul\":4433:4450   */\n      add\n        /* \"#utility.yul\":4424:4430   */\n      dup5\n        /* \"#utility.yul\":4380:4451   */\n      tag_319\n      jump\t// in\n    tag_425:\n        /* \"#utility.yul\":4236:4458   */\n      swap3\n      swap2\n      pop\n      pop\n      jump\t// out\n        /* \"#utility.yul\":4464:4582   */\n    tag_320:\n        /* \"#utility.yul\":4523:4530   */\n      0x00\n        /* \"#utility.yul\":4552:4576   */\n      tag_427\n        /* \"#utility.yul\":4570:4575   */\n      dup3\n        /* \"#utility.yul\":4552:4576   */\n      tag_303\n      jump\t// in\n    tag_427:\n        /* \"#utility.yul\":4541:4576   */\n      swap1\n      pop\n        /* \"#utility.yul\":4464:4582   */\n      swap2\n      swap1\n      pop\n      jump\t// out\n        /* \"#utility.yul\":4588:4754   */\n    tag_321:\n        /* \"#utility.yul\":4683:4729   */\n      tag_429\n        /* \"#utility.yul\":4723:4728   */\n      dup2\n        /* \"#utility.yul\":4683:4729   */\n      tag_320\n      jump\t// in\n    tag_429:\n        /* \"#utility.yul\":4676:4681   */\n      dup2\n        /* \"#utility.yul\":4673:4730   */\n      eq\n        /* \"#utility.yul\":4663:4748   */\n      tag_430\n      jumpi\n        /* \"#utility.yul\":4744:4745   */\n      0x00\n        /* \"#utility.yul\":4741:4742   */\n      dup1\n        /* \"#utility.yul\":4734:4746   */\n      revert\n        /* \"#utility.yul\":4663:4748   */\n    tag_430:\n        /* \"#utility.yul\":4588:4754   */\n      pop\n      jump\t// out\n        /* \"#utility.yul\":4760:4943   */\n    tag_322:\n        /* \"#utility.yul\":4828:4833   */\n      0x00\n        /* \"#utility.yul\":4866:4872   */\n      dup2\n        /* \"#utility.yul\":4853:4873   */\n      calldataload\n        /* \"#utility.yul\":4844:4873   */\n      swap1\n      pop\n        /* \"#utility.yul\":4882:4937   */\n      tag_432\n        /* \"#utility.yul\":4931:4936   */\n      dup2\n        /* \"#utility.yul\":4882:4937   */\n      tag_321\n      jump\t// in\n    tag_432:\n        /* \"#utility.yul\":4760:4943   */\n      swap3\n      swap2\n      pop\n      pop\n      jump\t// out\n        /* \"#utility.yul\":4949:5322   */\n    tag_52:\n        /* \"#utility.yul\":5030:5036   */\n      0x00\n        /* \"#utility.yul\":5079:5081   */\n      0x20\n        /* \"#utility.yul\":5067:5076   */\n      dup3\n        /* \"#utility.yul\":5058:5065   */\n      dup5\n        /* \"#utility.yul\":5054:5077   */\n      sub\n        /* \"#utility.yul\":5050:5082   */\n      slt\n        /* \"#utility.yul\":5047:5166   */\n      iszero\n      tag_434\n      jumpi\n        /* \"#utility.yul\":5085:5164   */\n      tag_435\n      tag_300\n      jump\t// in\n    tag_435:\n        /* \"#utility.yul\":5047:5166   */\n    tag_434:\n        /* \"#utility.yul\":5205:5206   */\n      0x00\n        /* \"#utility.yul\":5230:5305   */\n      tag_436\n        /* \"#utility.yul\":5297:5304   */\n      dup5\n        /* \"#utility.yul\":5288:5294   */\n      dup3\n        /* \"#utility.yul\":5277:5286   */\n      dup6\n        /* \"#utility.yul\":5273:5295   */\n      add\n        /* \"#utility.yul\":5230:5305   */\n      tag_322\n      jump\t// in\n    tag_436:\n        /* \"#utility.yul\":5220:5305   */\n      swap2\n      pop\n        /* \"#utility.yul\":5176:5315   */\n      pop\n        /* \"#utility.yul\":4949:5322   */\n      swap3\n      swap2\n      pop\n      pop\n      jump\t// out\n        /* \"#utility.yul\":5328:5438   */\n    tag_323:\n        /* \"#utility.yul\":5379:5386   */\n      0x00\n        /* \"#utility.yul\":5408:5432   */\n      tag_438\n        /* \"#utility.yul\":5426:5431   */\n      dup3\n        /* \"#utility.yul\":5408:5432   */\n      tag_303\n      jump\t// in\n    tag_438:\n        /* \"#utility.yul\":5397:5432   */\n      swap1\n      pop\n        /* \"#utility.yul\":5328:5438   */\n      swap2\n      swap1\n      pop\n      jump\t// out\n        /* \"#utility.yul\":5444:5594   */\n    tag_324:\n        /* \"#utility.yul\":5531:5569   */\n      tag_440\n        /* \"#utility.yul\":5563:5568   */\n      dup2\n        /* \"#utility.yul\":5531:5569   */\n      tag_323\n      jump\t// in\n    tag_440:\n        /* \"#utility.yul\":5524:5529   */\n      dup2\n        /* \"#utility.yul\":5521:5570   */\n      eq\n        /* \"#utility.yul\":5511:5588   */\n      tag_441\n      jumpi\n        /* \"#utility.yul\":5584:5585   */\n      0x00\n        /* \"#utility.yul\":5581:5582   */\n      dup1\n        /* \"#utility.yul\":5574:5586   */\n      revert\n        /* \"#utility.yul\":5511:5588   */\n    tag_441:\n        /* \"#utility.yul\":5444:5594   */\n      pop\n      jump\t// out\n        /* \"#utility.yul\":5600:5767   */\n    tag_325:\n        /* \"#utility.yul\":5660:5665   */\n      0x00\n        /* \"#utility.yul\":5698:5704   */\n      dup2\n        /* \"#utility.yul\":5685:5705   */\n      calldataload\n        /* \"#utility.yul\":5676:5705   */\n      swap1\n      pop\n        /* \"#utility.yul\":5714:5761   */\n      tag_443\n        /* \"#utility.yul\":5755:5760   */\n      dup2\n        /* \"#utility.yul\":5714:5761   */\n      tag_324\n      jump\t// in\n    tag_443:\n        /* \"#utility.yul\":5600:5767   */\n      swap3\n      swap2\n      pop\n      pop\n      jump\t// out\n        /* \"#utility.yul\":5773:6130   */\n    tag_63:\n        /* \"#utility.yul\":5846:5852   */\n      0x00\n        /* \"#utility.yul\":5895:5897   */\n      0x20\n        /* \"#utility.yul\":5883:5892   */\n      dup3\n        /* \"#utility.yul\":5874:5881   */\n      dup5\n        /* \"#utility.yul\":5870:5893   */\n      sub\n        /* \"#utility.yul\":5866:5898   */\n      slt\n        /* \"#utility.yul\":5863:5982   */\n      iszero\n      tag_445\n      jumpi\n        /* \"#utility.yul\":5901:5980   */\n      tag_446\n      tag_300\n      jump\t// in\n    tag_446:\n        /* \"#utility.yul\":5863:5982   */\n    tag_445:\n        /* \"#utility.yul\":6021:6022   */\n      0x00\n        /* \"#utility.yul\":6046:6113   */\n      tag_447\n        /* \"#utility.yul\":6105:6112   */\n      dup5\n        /* \"#utility.yul\":6096:6102   */\n      dup3\n        /* \"#utility.yul\":6085:6094   */\n      dup6\n        /* \"#utility.yul\":6081:6103   */\n      add\n        /* \"#utility.yul\":6046:6113   */\n      tag_325\n      jump\t// in\n    tag_447:\n        /* \"#utility.yul\":6036:6113   */\n      swap2\n      pop\n        /* \"#utility.yul\":5992:6123   */\n      pop\n        /* \"#utility.yul\":5773:6130   */\n      swap3\n      swap2\n      pop\n      pop\n      jump\t// out\n        /* \"#utility.yul\":6136:6258   */\n    tag_326:\n        /* \"#utility.yul\":6209:6233   */\n      tag_449\n        /* \"#utility.yul\":6227:6232   */\n      dup2\n        /* \"#utility.yul\":6209:6233   */\n      tag_306\n      jump\t// in\n    tag_449:\n        /* \"#utility.yul\":6202:6207   */\n      dup2\n        /* \"#utility.yul\":6199:6234   */\n      eq\n        /* \"#utility.yul\":6189:6252   */\n      tag_450\n      jumpi\n        /* \"#utility.yul\":6248:6249   */\n      0x00\n        /* \"#utility.yul\":6245:6246   */\n      dup1\n        /* \"#utility.yul\":6238:6250   */\n      revert\n        /* \"#utility.yul\":6189:6252   */\n    tag_450:\n        /* \"#utility.yul\":6136:6258   */\n      pop\n      jump\t// out\n        /* \"#utility.yul\":6264:6403   */\n    tag_327:\n        /* \"#utility.yul\":6310:6315   */\n      0x00\n        /* \"#utility.yul\":6348:6354   */\n      dup2\n        /* \"#utility.yul\":6335:6355   */\n      calldataload\n        /* \"#utility.yul\":6326:6355   */\n      swap1\n      pop\n        /* \"#utility.yul\":6364:6397   */\n      tag_452\n        /* \"#utility.yul\":6391:6396   */\n      dup2\n        /* \"#utility.yul\":6364:6397   */\n      tag_326\n      jump\t// in\n    tag_452:\n        /* \"#utility.yul\":6264:6403   */\n      swap3\n      swap2\n      pop\n      pop\n      jump\t// out\n        /* \"#utility.yul\":6409:7238   */\n    tag_67:\n        /* \"#utility.yul\":6527:6533   */\n      0x00\n        /* \"#utility.yul\":6535:6541   */\n      dup1\n        /* \"#utility.yul\":6543:6549   */\n      0x00\n        /* \"#utility.yul\":6551:6557   */\n      dup1\n        /* \"#utility.yul\":6600:6603   */\n      0x80\n        /* \"#utility.yul\":6588:6597   */\n      dup6\n        /* \"#utility.yul\":6579:6586   */\n      dup8\n        /* \"#utility.yul\":6575:6598   */\n      sub\n        /* \"#utility.yul\":6571:6604   */\n      slt\n        /* \"#utility.yul\":6568:6688   */\n      iszero\n      tag_454\n      jumpi\n        /* \"#utility.yul\":6607:6686   */\n      tag_455\n      tag_300\n      jump\t// in\n    tag_455:\n        /* \"#utility.yul\":6568:6688   */\n    tag_454:\n        /* \"#utility.yul\":6727:6728   */\n      0x00\n        /* \"#utility.yul\":6752:6805   */\n      tag_456\n        /* \"#utility.yul\":6797:6804   */\n      dup8\n        /* \"#utility.yul\":6788:6794   */\n      dup3\n        /* \"#utility.yul\":6777:6786   */\n      dup9\n        /* \"#utility.yul\":6773:6795   */\n      add\n        /* \"#utility.yul\":6752:6805   */\n      tag_327\n      jump\t// in\n    tag_456:\n        /* \"#utility.yul\":6742:6805   */\n      swap5\n      pop\n        /* \"#utility.yul\":6698:6815   */\n      pop\n        /* \"#utility.yul\":6854:6856   */\n      0x20\n        /* \"#utility.yul\":6880:6943   */\n      tag_457\n        /* \"#utility.yul\":6935:6942   */\n      dup8\n        /* \"#utility.yul\":6926:6932   */\n      dup3\n        /* \"#utility.yul\":6915:6924   */\n      dup9\n        /* \"#utility.yul\":6911:6933   */\n      add\n        /* \"#utility.yul\":6880:6943   */\n      tag_310\n      jump\t// in\n    tag_457:\n        /* \"#utility.yul\":6870:6943   */\n      swap4\n      pop\n        /* \"#utility.yul\":6825:6953   */\n      pop\n        /* \"#utility.yul\":6992:6994   */\n      0x40\n        /* \"#utility.yul\":7018:7071   */\n      tag_458\n        /* \"#utility.yul\":7063:7070   */\n      dup8\n        /* \"#utility.yul\":7054:7060   */\n      dup3\n        /* \"#utility.yul\":7043:7052   */\n      dup9\n        /* \"#utility.yul\":7039:7061   */\n      add\n        /* \"#utility.yul\":7018:7071   */\n      tag_327\n      jump\t// in\n    tag_458:\n        /* \"#utility.yul\":7008:7071   */\n      swap3\n      pop\n        /* \"#utility.yul\":6963:7081   */\n      pop\n        /* \"#utility.yul\":7120:7122   */\n      0x60\n        /* \"#utility.yul\":7146:7221   */\n      tag_459\n        /* \"#utility.yul\":7213:7220   */\n      dup8\n        /* \"#utility.yul\":7204:7210   */\n      dup3\n        /* \"#utility.yul\":7193:7202   */\n      dup9\n        /* \"#utility.yul\":7189:7211   */\n      add\n        /* \"#utility.yul\":7146:7221   */\n      tag_322\n      jump\t// in\n    tag_459:\n        /* \"#utility.yul\":7136:7221   */\n      swap2\n      pop\n        /* \"#utility.yul\":7091:7231   */\n      pop\n        /* \"#utility.yul\":6409:7238   */\n      swap3\n      swap6\n      swap2\n      swap5\n      pop\n      swap3\n      pop\n      jump\t// out\n        /* \"#utility.yul\":7244:7424   */\n    tag_80:\n        /* \"#utility.yul\":7292:7369   */\n      0x4e487b7100000000000000000000000000000000000000000000000000000000\n        /* \"#utility.yul\":7289:7290   */\n      0x00\n        /* \"#utility.yul\":7282:7370   */\n      mstore\n        /* \"#utility.yul\":7389:7393   */\n      0x41\n        /* \"#utility.yul\":7386:7387   */\n      0x04\n        /* \"#utility.yul\":7379:7394   */\n      mstore\n        /* \"#utility.yul\":7413:7417   */\n      0x24\n        /* \"#utility.yul\":7410:7411   */\n      0x00\n        /* \"#utility.yul\":7403:7418   */\n      revert\n        /* \"#utility.yul\":7430:7610   */\n    tag_84:\n        /* \"#utility.yul\":7478:7555   */\n      0x4e487b7100000000000000000000000000000000000000000000000000000000\n        /* \"#utility.yul\":7475:7476   */\n      0x00\n        /* \"#utility.yul\":7468:7556   */\n      mstore\n        /* \"#utility.yul\":7575:7579   */\n      0x32\n        /* \"#utility.yul\":7572:7573   */\n      0x04\n        /* \"#utility.yul\":7565:7580   */\n      mstore\n        /* \"#utility.yul\":7599:7603   */\n      0x24\n        /* \"#utility.yul\":7596:7597   */\n      0x00\n        /* \"#utility.yul\":7589:7604   */\n      revert\n        /* \"#utility.yul\":7616:7730   */\n    tag_328:\n        /* \"#utility.yul\":7683:7689   */\n      0x00\n        /* \"#utility.yul\":7717:7722   */\n      dup2\n        /* \"#utility.yul\":7711:7723   */\n      mload\n        /* \"#utility.yul\":7701:7723   */\n      swap1\n      pop\n        /* \"#utility.yul\":7616:7730   */\n      swap2\n      swap1\n      pop\n      jump\t// out\n        /* \"#utility.yul\":7736:7920   */\n    tag_329:\n        /* \"#utility.yul\":7835:7846   */\n      0x00\n        /* \"#utility.yul\":7869:7875   */\n      dup3\n        /* \"#utility.yul\":7864:7867   */\n      dup3\n        /* \"#utility.yul\":7857:7876   */\n      mstore\n        /* \"#utility.yul\":7909:7913   */\n      0x20\n        /* \"#utility.yul\":7904:7907   */\n      dup3\n        /* \"#utility.yul\":7900:7914   */\n      add\n        /* \"#utility.yul\":7885:7914   */\n      swap1\n      pop\n        /* \"#utility.yul\":7736:7920   */\n      swap3\n      swap2\n      pop\n      pop\n      jump\t// out\n        /* \"#utility.yul\":7926:8058   */\n    tag_330:\n        /* \"#utility.yul\":7993:7997   */\n      0x00\n        /* \"#utility.yul\":8016:8019   */\n      dup2\n        /* \"#utility.yul\":8008:8019   */\n      swap1\n      pop\n        /* \"#utility.yul\":8046:8050   */\n      0x20\n        /* \"#utility.yul\":8041:8044   */\n      dup3\n        /* \"#utility.yul\":8037:8051   */\n      add\n        /* \"#utility.yul\":8029:8051   */\n      swap1\n      pop\n        /* \"#utility.yul\":7926:8058   */\n      swap2\n      swap1\n      pop\n      jump\t// out\n        /* \"#utility.yul\":8064:8172   */\n    tag_331:\n        /* \"#utility.yul\":8141:8165   */\n      tag_466\n        /* \"#utility.yul\":8159:8164   */\n      dup2\n        /* \"#utility.yul\":8141:8165   */\n      tag_303\n      jump\t// in\n    tag_466:\n        /* \"#utility.yul\":8136:8139   */\n      dup3\n        /* \"#utility.yul\":8129:8166   */\n      mstore\n        /* \"#utility.yul\":8064:8172   */\n      pop\n      pop\n      jump\t// out\n        /* \"#utility.yul\":8178:8357   */\n    tag_332:\n        /* \"#utility.yul\":8247:8257   */\n      0x00\n        /* \"#utility.yul\":8268:8314   */\n      tag_468\n        /* \"#utility.yul\":8310:8313   */\n      dup4\n        /* \"#utility.yul\":8302:8308   */\n      dup4\n        /* \"#utility.yul\":8268:8314   */\n      tag_331\n      jump\t// in\n    tag_468:\n        /* \"#utility.yul\":8346:8350   */\n      0x20\n        /* \"#utility.yul\":8341:8344   */\n      dup4\n        /* \"#utility.yul\":8337:8351   */\n      add\n        /* \"#utility.yul\":8323:8351   */\n      swap1\n      pop\n        /* \"#utility.yul\":8178:8357   */\n      swap3\n      swap2\n      pop\n      pop\n      jump\t// out\n        /* \"#utility.yul\":8363:8476   */\n    tag_333:\n        /* \"#utility.yul\":8433:8437   */\n      0x00\n        /* \"#utility.yul\":8465:8469   */\n      0x20\n        /* \"#utility.yul\":8460:8463   */\n      dup3\n        /* \"#utility.yul\":8456:8470   */\n      add\n        /* \"#utility.yul\":8448:8470   */\n      swap1\n      pop\n        /* \"#utility.yul\":8363:8476   */\n      swap2\n      swap1\n      pop\n      jump\t// out\n        /* \"#utility.yul\":8512:9244   */\n    tag_334:\n        /* \"#utility.yul\":8631:8634   */\n      0x00\n        /* \"#utility.yul\":8660:8714   */\n      tag_471\n        /* \"#utility.yul\":8708:8713   */\n      dup3\n        /* \"#utility.yul\":8660:8714   */\n      tag_328\n      jump\t// in\n    tag_471:\n        /* \"#utility.yul\":8730:8816   */\n      tag_472\n        /* \"#utility.yul\":8809:8815   */\n      dup2\n        /* \"#utility.yul\":8804:8807   */\n      dup6\n        /* \"#utility.yul\":8730:8816   */\n      tag_329\n      jump\t// in\n    tag_472:\n        /* \"#utility.yul\":8723:8816   */\n      swap4\n      pop\n        /* \"#utility.yul\":8840:8896   */\n      tag_473\n        /* \"#utility.yul\":8890:8895   */\n      dup4\n        /* \"#utility.yul\":8840:8896   */\n      tag_330\n      jump\t// in\n    tag_473:\n        /* \"#utility.yul\":8919:8926   */\n      dup1\n        /* \"#utility.yul\":8950:8951   */\n      0x00\n        /* \"#utility.yul\":8935:9219   */\n    tag_474:\n        /* \"#utility.yul\":8960:8966   */\n      dup4\n        /* \"#utility.yul\":8957:8958   */\n      dup2\n        /* \"#utility.yul\":8954:8967   */\n      lt\n        /* \"#utility.yul\":8935:9219   */\n      iszero\n      tag_476\n      jumpi\n        /* \"#utility.yul\":9036:9042   */\n      dup2\n        /* \"#utility.yul\":9030:9043   */\n      mload\n        /* \"#utility.yul\":9063:9126   */\n      tag_477\n        /* \"#utility.yul\":9122:9125   */\n      dup9\n        /* \"#utility.yul\":9107:9120   */\n      dup3\n        /* \"#utility.yul\":9063:9126   */\n      tag_332\n      jump\t// in\n    tag_477:\n        /* \"#utility.yul\":9056:9126   */\n      swap8\n      pop\n        /* \"#utility.yul\":9149:9209   */\n      tag_478\n        /* \"#utility.yul\":9202:9208   */\n      dup4\n        /* \"#utility.yul\":9149:9209   */\n      tag_333\n      jump\t// in\n    tag_478:\n        /* \"#utility.yul\":9139:9209   */\n      swap3\n      pop\n        /* \"#utility.yul\":8995:9219   */\n      pop\n        /* \"#utility.yul\":8982:8983   */\n      0x01\n        /* \"#utility.yul\":8979:8980   */\n      dup2\n        /* \"#utility.yul\":8975:8984   */\n      add\n        /* \"#utility.yul\":8970:8984   */\n      swap1\n      pop\n        /* \"#utility.yul\":8935:9219   */\n      jump(tag_474)\n    tag_476:\n        /* \"#utility.yul\":8939:8953   */\n      pop\n        /* \"#utility.yul\":9235:9238   */\n      dup6\n        /* \"#utility.yul\":9228:9238   */\n      swap4\n      pop\n        /* \"#utility.yul\":8636:9244   */\n      pop\n      pop\n      pop\n        /* \"#utility.yul\":8512:9244   */\n      swap3\n      swap2\n      pop\n      pop\n      jump\t// out\n        /* \"#utility.yul\":9250:9733   */\n    tag_90:\n        /* \"#utility.yul\":9421:9425   */\n      0x00\n        /* \"#utility.yul\":9459:9461   */\n      0x40\n        /* \"#utility.yul\":9448:9457   */\n      dup3\n        /* \"#utility.yul\":9444:9462   */\n      add\n        /* \"#utility.yul\":9436:9462   */\n      swap1\n      pop\n        /* \"#utility.yul\":9472:9543   */\n      tag_480\n        /* \"#utility.yul\":9540:9541   */\n      0x00\n        /* \"#utility.yul\":9529:9538   */\n      dup4\n        /* \"#utility.yul\":9525:9542   */\n      add\n        /* \"#utility.yul\":9516:9522   */\n      dup6\n        /* \"#utility.yul\":9472:9543   */\n      tag_307\n      jump\t// in\n    tag_480:\n        /* \"#utility.yul\":9590:9599   */\n      dup2\n        /* \"#utility.yul\":9584:9588   */\n      dup2\n        /* \"#utility.yul\":9580:9600   */\n      sub\n        /* \"#utility.yul\":9575:9577   */\n      0x20\n        /* \"#utility.yul\":9564:9573   */\n      dup4\n        /* \"#utility.yul\":9560:9578   */\n      add\n        /* \"#utility.yul\":9553:9601   */\n      mstore\n        /* \"#utility.yul\":9618:9726   */\n      tag_481\n        /* \"#utility.yul\":9721:9725   */\n      dup2\n        /* \"#utility.yul\":9712:9718   */\n      dup5\n        /* \"#utility.yul\":9618:9726   */\n      tag_334\n      jump\t// in\n    tag_481:\n        /* \"#utility.yul\":9610:9726   */\n      swap1\n      pop\n        /* \"#utility.yul\":9250:9733   */\n      swap4\n      swap3\n      pop\n      pop\n      pop\n      jump\t// out\n        /* \"#utility.yul\":9739:9856   */\n    tag_335:\n        /* \"#utility.yul\":9848:9849   */\n      0x00\n        /* \"#utility.yul\":9845:9846   */\n      dup1\n        /* \"#utility.yul\":9838:9850   */\n      revert\n        /* \"#utility.yul\":9862:9964   */\n    tag_336:\n        /* \"#utility.yul\":9903:9909   */\n      0x00\n        /* \"#utility.yul\":9954:9956   */\n      0x1f\n        /* \"#utility.yul\":9950:9957   */\n      not\n        /* \"#utility.yul\":9945:9947   */\n      0x1f\n        /* \"#utility.yul\":9938:9943   */\n      dup4\n        /* \"#utility.yul\":9934:9948   */\n      add\n        /* \"#utility.yul\":9930:9958   */\n      and\n        /* \"#utility.yul\":9920:9958   */\n      swap1\n      pop\n        /* \"#utility.yul\":9862:9964   */\n      swap2\n      swap1\n      pop\n      jump\t// out\n        /* \"#utility.yul\":9970:10251   */\n    tag_337:\n        /* \"#utility.yul\":10053:10080   */\n      tag_485\n        /* \"#utility.yul\":10075:10079   */\n      dup3\n        /* \"#utility.yul\":10053:10080   */\n      tag_336\n      jump\t// in\n    tag_485:\n        /* \"#utility.yul\":10045:10051   */\n      dup2\n        /* \"#utility.yul\":10041:10081   */\n      add\n        /* \"#utility.yul\":10183:10189   */\n      dup2\n        /* \"#utility.yul\":10171:10181   */\n      dup2\n        /* \"#utility.yul\":10168:10190   */\n      lt\n        /* \"#utility.yul\":10147:10165   */\n      0xffffffffffffffff\n        /* \"#utility.yul\":10135:10145   */\n      dup3\n        /* \"#utility.yul\":10132:10166   */\n      gt\n        /* \"#utility.yul\":10129:10191   */\n      or\n        /* \"#utility.yul\":10126:10214   */\n      iszero\n      tag_486\n      jumpi\n        /* \"#utility.yul\":10194:10212   */\n      tag_487\n      tag_80\n      jump\t// in\n    tag_487:\n        /* \"#utility.yul\":10126:10214   */\n    tag_486:\n        /* \"#utility.yul\":10234:10244   */\n      dup1\n        /* \"#utility.yul\":10230:10232   */\n      0x40\n        /* \"#utility.yul\":10223:10245   */\n      mstore\n        /* \"#utility.yul\":10013:10251   */\n      pop\n        /* \"#utility.yul\":9970:10251   */\n      pop\n      pop\n      jump\t// out\n        /* \"#utility.yul\":10257:10386   */\n    tag_338:\n        /* \"#utility.yul\":10291:10297   */\n      0x00\n        /* \"#utility.yul\":10318:10338   */\n      tag_489\n      tag_299\n      jump\t// in\n    tag_489:\n        /* \"#utility.yul\":10308:10338   */\n      swap1\n      pop\n        /* \"#utility.yul\":10347:10380   */\n      tag_490\n        /* \"#utility.yul\":10375:10379   */\n      dup3\n        /* \"#utility.yul\":10367:10373   */\n      dup3\n        /* \"#utility.yul\":10347:10380   */\n      tag_337\n      jump\t// in\n    tag_490:\n        /* \"#utility.yul\":10257:10386   */\n      swap2\n      swap1\n      pop\n      jump\t// out\n        /* \"#utility.yul\":10392:10703   */\n    tag_339:\n        /* \"#utility.yul\":10469:10473   */\n      0x00\n        /* \"#utility.yul\":10559:10577   */\n      0xffffffffffffffff\n        /* \"#utility.yul\":10551:10557   */\n      dup3\n        /* \"#utility.yul\":10548:10578   */\n      gt\n        /* \"#utility.yul\":10545:10601   */\n      iszero\n      tag_492\n      jumpi\n        /* \"#utility.yul\":10581:10599   */\n      tag_493\n      tag_80\n      jump\t// in\n    tag_493:\n        /* \"#utility.yul\":10545:10601   */\n    tag_492:\n        /* \"#utility.yul\":10631:10635   */\n      0x20\n        /* \"#utility.yul\":10623:10629   */\n      dup3\n        /* \"#utility.yul\":10619:10636   */\n      mul\n        /* \"#utility.yul\":10611:10636   */\n      swap1\n      pop\n        /* \"#utility.yul\":10691:10695   */\n      0x20\n        /* \"#utility.yul\":10685:10689   */\n      dup2\n        /* \"#utility.yul\":10681:10696   */\n      add\n        /* \"#utility.yul\":10673:10696   */\n      swap1\n      pop\n        /* \"#utility.yul\":10392:10703   */\n      swap2\n      swap1\n      pop\n      jump\t// out\n        /* \"#utility.yul\":10709:10826   */\n    tag_340:\n        /* \"#utility.yul\":10818:10819   */\n      0x00\n        /* \"#utility.yul\":10815:10816   */\n      dup1\n        /* \"#utility.yul\":10808:10820   */\n      revert\n        /* \"#utility.yul\":10832:10975   */\n    tag_341:\n        /* \"#utility.yul\":10889:10894   */\n      0x00\n        /* \"#utility.yul\":10920:10926   */\n      dup2\n        /* \"#utility.yul\":10914:10927   */\n      mload\n        /* \"#utility.yul\":10905:10927   */\n      swap1\n      pop\n        /* \"#utility.yul\":10936:10969   */\n      tag_496\n        /* \"#utility.yul\":10963:10968   */\n      dup2\n        /* \"#utility.yul\":10936:10969   */\n      tag_326\n      jump\t// in\n    tag_496:\n        /* \"#utility.yul\":10832:10975   */\n      swap3\n      swap2\n      pop\n      pop\n      jump\t// out\n        /* \"#utility.yul\":10998:11730   */\n    tag_342:\n        /* \"#utility.yul\":11105:11110   */\n      0x00\n        /* \"#utility.yul\":11130:11211   */\n      tag_498\n        /* \"#utility.yul\":11146:11210   */\n      tag_499\n        /* \"#utility.yul\":11203:11209   */\n      dup5\n        /* \"#utility.yul\":11146:11210   */\n      tag_339\n      jump\t// in\n    tag_499:\n        /* \"#utility.yul\":11130:11211   */\n      tag_338\n      jump\t// in\n    tag_498:\n        /* \"#utility.yul\":11121:11211   */\n      swap1\n      pop\n        /* \"#utility.yul\":11231:11236   */\n      dup1\n        /* \"#utility.yul\":11260:11266   */\n      dup4\n        /* \"#utility.yul\":11253:11258   */\n      dup3\n        /* \"#utility.yul\":11246:11267   */\n      mstore\n        /* \"#utility.yul\":11294:11298   */\n      0x20\n        /* \"#utility.yul\":11287:11292   */\n      dup3\n        /* \"#utility.yul\":11283:11299   */\n      add\n        /* \"#utility.yul\":11276:11299   */\n      swap1\n      pop\n        /* \"#utility.yul\":11347:11351   */\n      0x20\n        /* \"#utility.yul\":11339:11345   */\n      dup5\n        /* \"#utility.yul\":11335:11352   */\n      mul\n        /* \"#utility.yul\":11327:11333   */\n      dup4\n        /* \"#utility.yul\":11323:11353   */\n      add\n        /* \"#utility.yul\":11376:11379   */\n      dup6\n        /* \"#utility.yul\":11368:11374   */\n      dup2\n        /* \"#utility.yul\":11365:11380   */\n      gt\n        /* \"#utility.yul\":11362:11484   */\n      iszero\n      tag_500\n      jumpi\n        /* \"#utility.yul\":11395:11474   */\n      tag_501\n      tag_340\n      jump\t// in\n    tag_501:\n        /* \"#utility.yul\":11362:11484   */\n    tag_500:\n        /* \"#utility.yul\":11510:11516   */\n      dup4\n        /* \"#utility.yul\":11493:11724   */\n    tag_502:\n        /* \"#utility.yul\":11527:11533   */\n      dup2\n        /* \"#utility.yul\":11522:11525   */\n      dup2\n        /* \"#utility.yul\":11519:11534   */\n      lt\n        /* \"#utility.yul\":11493:11724   */\n      iszero\n      tag_504\n      jumpi\n        /* \"#utility.yul\":11602:11605   */\n      dup1\n        /* \"#utility.yul\":11631:11679   */\n      tag_505\n        /* \"#utility.yul\":11675:11678   */\n      dup9\n        /* \"#utility.yul\":11663:11673   */\n      dup3\n        /* \"#utility.yul\":11631:11679   */\n      tag_341\n      jump\t// in\n    tag_505:\n        /* \"#utility.yul\":11626:11629   */\n      dup5\n        /* \"#utility.yul\":11619:11680   */\n      mstore\n        /* \"#utility.yul\":11709:11713   */\n      0x20\n        /* \"#utility.yul\":11704:11707   */\n      dup5\n        /* \"#utility.yul\":11700:11714   */\n      add\n        /* \"#utility.yul\":11693:11714   */\n      swap4\n      pop\n        /* \"#utility.yul\":11569:11724   */\n      pop\n        /* \"#utility.yul\":11553:11557   */\n      0x20\n        /* \"#utility.yul\":11548:11551   */\n      dup2\n        /* \"#utility.yul\":11544:11558   */\n      add\n        /* \"#utility.yul\":11537:11558   */\n      swap1\n      pop\n        /* \"#utility.yul\":11493:11724   */\n      jump(tag_502)\n    tag_504:\n        /* \"#utility.yul\":11497:11518   */\n      pop\n        /* \"#utility.yul\":11111:11730   */\n      pop\n      pop\n        /* \"#utility.yul\":10998:11730   */\n      swap4\n      swap3\n      pop\n      pop\n      pop\n      jump\t// out\n        /* \"#utility.yul\":11753:12138   */\n    tag_343:\n        /* \"#utility.yul\":11835:11840   */\n      0x00\n        /* \"#utility.yul\":11884:11887   */\n      dup3\n        /* \"#utility.yul\":11877:11881   */\n      0x1f\n        /* \"#utility.yul\":11869:11875   */\n      dup4\n        /* \"#utility.yul\":11865:11882   */\n      add\n        /* \"#utility.yul\":11861:11888   */\n      slt\n        /* \"#utility.yul\":11851:11973   */\n      tag_507\n      jumpi\n        /* \"#utility.yul\":11892:11971   */\n      tag_508\n      tag_335\n      jump\t// in\n    tag_508:\n        /* \"#utility.yul\":11851:11973   */\n    tag_507:\n        /* \"#utility.yul\":12002:12008   */\n      dup2\n        /* \"#utility.yul\":11996:12009   */\n      mload\n        /* \"#utility.yul\":12027:12132   */\n      tag_509\n        /* \"#utility.yul\":12128:12131   */\n      dup5\n        /* \"#utility.yul\":12120:12126   */\n      dup3\n        /* \"#utility.yul\":12113:12117   */\n      0x20\n        /* \"#utility.yul\":12105:12111   */\n      dup7\n        /* \"#utility.yul\":12101:12118   */\n      add\n        /* \"#utility.yul\":12027:12132   */\n      tag_342\n      jump\t// in\n    tag_509:\n        /* \"#utility.yul\":12018:12132   */\n      swap2\n      pop\n        /* \"#utility.yul\":11841:12138   */\n      pop\n        /* \"#utility.yul\":11753:12138   */\n      swap3\n      swap2\n      pop\n      pop\n      jump\t// out\n        /* \"#utility.yul\":12144:12698   */\n    tag_94:\n        /* \"#utility.yul\":12239:12245   */\n      0x00\n        /* \"#utility.yul\":12288:12290   */\n      0x20\n        /* \"#utility.yul\":12276:12285   */\n      dup3\n        /* \"#utility.yul\":12267:12274   */\n      dup5\n        /* \"#utility.yul\":12263:12286   */\n      sub\n        /* \"#utility.yul\":12259:12291   */\n      slt\n        /* \"#utility.yul\":12256:12375   */\n      iszero\n      tag_511\n      jumpi\n        /* \"#utility.yul\":12294:12373   */\n      tag_512\n      tag_300\n      jump\t// in\n    tag_512:\n        /* \"#utility.yul\":12256:12375   */\n    tag_511:\n        /* \"#utility.yul\":12435:12436   */\n      0x00\n        /* \"#utility.yul\":12424:12433   */\n      dup3\n        /* \"#utility.yul\":12420:12437   */\n      add\n        /* \"#utility.yul\":12414:12438   */\n      mload\n        /* \"#utility.yul\":12465:12483   */\n      0xffffffffffffffff\n        /* \"#utility.yul\":12457:12463   */\n      dup2\n        /* \"#utility.yul\":12454:12484   */\n      gt\n        /* \"#utility.yul\":12451:12568   */\n      iszero\n      tag_513\n      jumpi\n        /* \"#utility.yul\":12487:12566   */\n      tag_514\n      tag_301\n      jump\t// in\n    tag_514:\n        /* \"#utility.yul\":12451:12568   */\n    tag_513:\n        /* \"#utility.yul\":12592:12681   */\n      tag_515\n        /* \"#utility.yul\":12673:12680   */\n      dup5\n        /* \"#utility.yul\":12664:12670   */\n      dup3\n        /* \"#utility.yul\":12653:12662   */\n      dup6\n        /* \"#utility.yul\":12649:12671   */\n      add\n        /* \"#utility.yul\":12592:12681   */\n      tag_343\n      jump\t// in\n    tag_515:\n        /* \"#utility.yul\":12582:12681   */\n      swap2\n      pop\n        /* \"#utility.yul\":12385:12691   */\n      pop\n        /* \"#utility.yul\":12144:12698   */\n      swap3\n      swap2\n      pop\n      pop\n      jump\t// out\n        /* \"#utility.yul\":12704:12875   */\n    tag_344:\n        /* \"#utility.yul\":12775:12780   */\n      0x00\n        /* \"#utility.yul\":12806:12812   */\n      dup2\n        /* \"#utility.yul\":12800:12813   */\n      mload\n        /* \"#utility.yul\":12791:12813   */\n      swap1\n      pop\n        /* \"#utility.yul\":12822:12869   */\n      tag_517\n        /* \"#utility.yul\":12863:12868   */\n      dup2\n        /* \"#utility.yul\":12822:12869   */\n      tag_312\n      jump\t// in\n    tag_517:\n        /* \"#utility.yul\":12704:12875   */\n      swap3\n      swap2\n      pop\n      pop\n      jump\t// out\n        /* \"#utility.yul\":12881:13260   */\n    tag_101:\n        /* \"#utility.yul\":12965:12971   */\n      0x00\n        /* \"#utility.yul\":13014:13016   */\n      0x20\n        /* \"#utility.yul\":13002:13011   */\n      dup3\n        /* \"#utility.yul\":12993:13000   */\n      dup5\n        /* \"#utility.yul\":12989:13012   */\n      sub\n        /* \"#utility.yul\":12985:13017   */\n      slt\n        /* \"#utility.yul\":12982:13101   */\n      iszero\n      tag_519\n      jumpi\n        /* \"#utility.yul\":13020:13099   */\n      tag_520\n      tag_300\n      jump\t// in\n    tag_520:\n        /* \"#utility.yul\":12982:13101   */\n    tag_519:\n        /* \"#utility.yul\":13140:13141   */\n      0x00\n        /* \"#utility.yul\":13165:13243   */\n      tag_521\n        /* \"#utility.yul\":13235:13242   */\n      dup5\n        /* \"#utility.yul\":13226:13232   */\n      dup3\n        /* \"#utility.yul\":13215:13224   */\n      dup6\n        /* \"#utility.yul\":13211:13233   */\n      add\n        /* \"#utility.yul\":13165:13243   */\n      tag_344\n      jump\t// in\n    tag_521:\n        /* \"#utility.yul\":13155:13243   */\n      swap2\n      pop\n        /* \"#utility.yul\":13111:13253   */\n      pop\n        /* \"#utility.yul\":12881:13260   */\n      swap3\n      swap2\n      pop\n      pop\n      jump\t// out\n        /* \"#utility.yul\":13266:13617   */\n    tag_115:\n        /* \"#utility.yul\":13336:13342   */\n      0x00\n        /* \"#utility.yul\":13385:13387   */\n      0x20\n        /* \"#utility.yul\":13373:13382   */\n      dup3\n        /* \"#utility.yul\":13364:13371   */\n      dup5\n        /* \"#utility.yul\":13360:13383   */\n      sub\n        /* \"#utility.yul\":13356:13388   */\n      slt\n        /* \"#utility.yul\":13353:13472   */\n      iszero\n      tag_523\n      jumpi\n        /* \"#utility.yul\":13391:13470   */\n      tag_524\n      tag_300\n      jump\t// in\n    tag_524:\n        /* \"#utility.yul\":13353:13472   */\n    tag_523:\n        /* \"#utility.yul\":13511:13512   */\n      0x00\n        /* \"#utility.yul\":13536:13600   */\n      tag_525\n        /* \"#utility.yul\":13592:13599   */\n      dup5\n        /* \"#utility.yul\":13583:13589   */\n      dup3\n        /* \"#utility.yul\":13572:13581   */\n      dup6\n        /* \"#utility.yul\":13568:13590   */\n      add\n        /* \"#utility.yul\":13536:13600   */\n      tag_341\n      jump\t// in\n    tag_525:\n        /* \"#utility.yul\":13526:13600   */\n      swap2\n      pop\n        /* \"#utility.yul\":13482:13610   */\n      pop\n        /* \"#utility.yul\":13266:13617   */\n      swap3\n      swap2\n      pop\n      pop\n      jump\t// out\n        /* \"#utility.yul\":13623:13792   */\n    tag_345:\n        /* \"#utility.yul\":13707:13718   */\n      0x00\n        /* \"#utility.yul\":13741:13747   */\n      dup3\n        /* \"#utility.yul\":13736:13739   */\n      dup3\n        /* \"#utility.yul\":13729:13748   */\n      mstore\n        /* \"#utility.yul\":13781:13785   */\n      0x20\n        /* \"#utility.yul\":13776:13779   */\n      dup3\n        /* \"#utility.yul\":13772:13786   */\n      add\n        /* \"#utility.yul\":13757:13786   */\n      swap1\n      pop\n        /* \"#utility.yul\":13623:13792   */\n      swap3\n      swap2\n      pop\n      pop\n      jump\t// out\n        /* \"#utility.yul\":13798:13980   */\n    tag_346:\n        /* \"#utility.yul\":13938:13972   */\n      0x4f776e61626c653a2063616c6c6572206973206e6f7420746865206f776e6572\n        /* \"#utility.yul\":13934:13935   */\n      0x00\n        /* \"#utility.yul\":13926:13932   */\n      dup3\n        /* \"#utility.yul\":13922:13936   */\n      add\n        /* \"#utility.yul\":13915:13973   */\n      mstore\n        /* \"#utility.yul\":13798:13980   */\n      pop\n      jump\t// out\n        /* \"#utility.yul\":13986:14352   */\n    tag_347:\n        /* \"#utility.yul\":14128:14131   */\n      0x00\n        /* \"#utility.yul\":14149:14216   */\n      tag_529\n        /* \"#utility.yul\":14213:14215   */\n      0x20\n        /* \"#utility.yul\":14208:14211   */\n      dup4\n        /* \"#utility.yul\":14149:14216   */\n      tag_345\n      jump\t// in\n    tag_529:\n        /* \"#utility.yul\":14142:14216   */\n      swap2\n      pop\n        /* \"#utility.yul\":14225:14318   */\n      tag_530\n        /* \"#utility.yul\":14314:14317   */\n      dup3\n        /* \"#utility.yul\":14225:14318   */\n      tag_346\n      jump\t// in\n    tag_530:\n        /* \"#utility.yul\":14343:14345   */\n      0x20\n        /* \"#utility.yul\":14338:14341   */\n      dup3\n        /* \"#utility.yul\":14334:14346   */\n      add\n        /* \"#utility.yul\":14327:14346   */\n      swap1\n      pop\n        /* \"#utility.yul\":13986:14352   */\n      swap2\n      swap1\n      pop\n      jump\t// out\n        /* \"#utility.yul\":14358:14777   */\n    tag_194:\n        /* \"#utility.yul\":14524:14528   */\n      0x00\n        /* \"#utility.yul\":14562:14564   */\n      0x20\n        /* \"#utility.yul\":14551:14560   */\n      dup3\n        /* \"#utility.yul\":14547:14565   */\n      add\n        /* \"#utility.yul\":14539:14565   */\n      swap1\n      pop\n        /* \"#utility.yul\":14611:14620   */\n      dup2\n        /* \"#utility.yul\":14605:14609   */\n      dup2\n        /* \"#utility.yul\":14601:14621   */\n      sub\n        /* \"#utility.yul\":14597:14598   */\n      0x00\n        /* \"#utility.yul\":14586:14595   */\n      dup4\n        /* \"#utility.yul\":14582:14599   */\n      add\n        /* \"#utility.yul\":14575:14622   */\n      mstore\n        /* \"#utility.yul\":14639:14770   */\n      tag_532\n        /* \"#utility.yul\":14765:14769   */\n      dup2\n        /* \"#utility.yul\":14639:14770   */\n      tag_347\n      jump\t// in\n    tag_532:\n        /* \"#utility.yul\":14631:14770   */\n      swap1\n      pop\n        /* \"#utility.yul\":14358:14777   */\n      swap2\n      swap1\n      pop\n      jump\t// out\n        /* \"#utility.yul\":14783:14900   */\n    tag_348:\n        /* \"#utility.yul\":14892:14893   */\n      0x00\n        /* \"#utility.yul\":14889:14890   */\n      dup1\n        /* \"#utility.yul\":14882:14894   */\n      revert\n        /* \"#utility.yul\":15029:15144   */\n    tag_350:\n        /* \"#utility.yul\":15085:15092   */\n      0x00\n        /* \"#utility.yul\":15114:15138   */\n      tag_536\n        /* \"#utility.yul\":15132:15137   */\n      dup3\n        /* \"#utility.yul\":15114:15138   */\n      tag_303\n      jump\t// in\n    tag_536:\n        /* \"#utility.yul\":15103:15138   */\n      swap1\n      pop\n        /* \"#utility.yul\":15029:15144   */\n      swap2\n      swap1\n      pop\n      jump\t// out\n        /* \"#utility.yul\":15150:15310   */\n    tag_351:\n        /* \"#utility.yul\":15242:15285   */\n      tag_538\n        /* \"#utility.yul\":15279:15284   */\n      dup2\n        /* \"#utility.yul\":15242:15285   */\n      tag_350\n      jump\t// in\n    tag_538:\n        /* \"#utility.yul\":15235:15240   */\n      dup2\n        /* \"#utility.yul\":15232:15286   */\n      eq\n        /* \"#utility.yul\":15222:15304   */\n      tag_539\n      jumpi\n        /* \"#utility.yul\":15300:15301   */\n      0x00\n        /* \"#utility.yul\":15297:15298   */\n      dup1\n        /* \"#utility.yul\":15290:15302   */\n      revert\n        /* \"#utility.yul\":15222:15304   */\n    tag_539:\n        /* \"#utility.yul\":15150:15310   */\n      pop\n      jump\t// out\n        /* \"#utility.yul\":15316:15497   */\n    tag_352:\n        /* \"#utility.yul\":15392:15397   */\n      0x00\n        /* \"#utility.yul\":15423:15429   */\n      dup2\n        /* \"#utility.yul\":15417:15430   */\n      mload\n        /* \"#utility.yul\":15408:15430   */\n      swap1\n      pop\n        /* \"#utility.yul\":15439:15491   */\n      tag_541\n        /* \"#utility.yul\":15485:15490   */\n      dup2\n        /* \"#utility.yul\":15439:15491   */\n      tag_351\n      jump\t// in\n    tag_541:\n        /* \"#utility.yul\":15316:15497   */\n      swap3\n      swap2\n      pop\n      pop\n      jump\t// out\n        /* \"#utility.yul\":15526:16917   */\n    tag_353:\n        /* \"#utility.yul\":15611:15616   */\n      0x00\n        /* \"#utility.yul\":15655:15659   */\n      0xc0\n        /* \"#utility.yul\":15643:15652   */\n      dup3\n        /* \"#utility.yul\":15638:15641   */\n      dup5\n        /* \"#utility.yul\":15634:15653   */\n      sub\n        /* \"#utility.yul\":15630:15660   */\n      slt\n        /* \"#utility.yul\":15627:15744   */\n      iszero\n      tag_543\n      jumpi\n        /* \"#utility.yul\":15663:15742   */\n      tag_544\n      tag_348\n      jump\t// in\n    tag_544:\n        /* \"#utility.yul\":15627:15744   */\n    tag_543:\n        /* \"#utility.yul\":15762:15783   */\n      tag_545\n        /* \"#utility.yul\":15778:15782   */\n      0xc0\n        /* \"#utility.yul\":15762:15783   */\n      tag_338\n      jump\t// in\n    tag_545:\n        /* \"#utility.yul\":15753:15783   */\n      swap1\n      pop\n        /* \"#utility.yul\":15845:15846   */\n      0x00\n        /* \"#utility.yul\":15885:15959   */\n      tag_546\n        /* \"#utility.yul\":15955:15958   */\n      dup5\n        /* \"#utility.yul\":15946:15952   */\n      dup3\n        /* \"#utility.yul\":15935:15944   */\n      dup6\n        /* \"#utility.yul\":15931:15953   */\n      add\n        /* \"#utility.yul\":15885:15959   */\n      tag_344\n      jump\t// in\n    tag_546:\n        /* \"#utility.yul\":15878:15882   */\n      0x00\n        /* \"#utility.yul\":15871:15876   */\n      dup4\n        /* \"#utility.yul\":15867:15883   */\n      add\n        /* \"#utility.yul\":15860:15960   */\n      mstore\n        /* \"#utility.yul\":15793:15971   */\n      pop\n        /* \"#utility.yul\":16036:16038   */\n      0x20\n        /* \"#utility.yul\":16077:16137   */\n      tag_547\n        /* \"#utility.yul\":16133:16136   */\n      dup5\n        /* \"#utility.yul\":16124:16130   */\n      dup3\n        /* \"#utility.yul\":16113:16122   */\n      dup6\n        /* \"#utility.yul\":16109:16131   */\n      add\n        /* \"#utility.yul\":16077:16137   */\n      tag_341\n      jump\t// in\n    tag_547:\n        /* \"#utility.yul\":16070:16074   */\n      0x20\n        /* \"#utility.yul\":16063:16068   */\n      dup4\n        /* \"#utility.yul\":16059:16075   */\n      add\n        /* \"#utility.yul\":16052:16138   */\n      mstore\n        /* \"#utility.yul\":15981:16149   */\n      pop\n        /* \"#utility.yul\":16219:16221   */\n      0x40\n        /* \"#utility.yul\":16260:16320   */\n      tag_548\n        /* \"#utility.yul\":16316:16319   */\n      dup5\n        /* \"#utility.yul\":16307:16313   */\n      dup3\n        /* \"#utility.yul\":16296:16305   */\n      dup6\n        /* \"#utility.yul\":16292:16314   */\n      add\n        /* \"#utility.yul\":16260:16320   */\n      tag_341\n      jump\t// in\n    tag_548:\n        /* \"#utility.yul\":16253:16257   */\n      0x40\n        /* \"#utility.yul\":16246:16251   */\n      dup4\n        /* \"#utility.yul\":16242:16258   */\n      add\n        /* \"#utility.yul\":16235:16321   */\n      mstore\n        /* \"#utility.yul\":16159:16332   */\n      pop\n        /* \"#utility.yul\":16401:16403   */\n      0x60\n        /* \"#utility.yul\":16442:16502   */\n      tag_549\n        /* \"#utility.yul\":16498:16501   */\n      dup5\n        /* \"#utility.yul\":16489:16495   */\n      dup3\n        /* \"#utility.yul\":16478:16487   */\n      dup6\n        /* \"#utility.yul\":16474:16496   */\n      add\n        /* \"#utility.yul\":16442:16502   */\n      tag_341\n      jump\t// in\n    tag_549:\n        /* \"#utility.yul\":16435:16439   */\n      0x60\n        /* \"#utility.yul\":16428:16433   */\n      dup4\n        /* \"#utility.yul\":16424:16440   */\n      add\n        /* \"#utility.yul\":16417:16503   */\n      mstore\n        /* \"#utility.yul\":16342:16514   */\n      pop\n        /* \"#utility.yul\":16583:16586   */\n      0x80\n        /* \"#utility.yul\":16625:16704   */\n      tag_550\n        /* \"#utility.yul\":16700:16703   */\n      dup5\n        /* \"#utility.yul\":16691:16697   */\n      dup3\n        /* \"#utility.yul\":16680:16689   */\n      dup6\n        /* \"#utility.yul\":16676:16698   */\n      add\n        /* \"#utility.yul\":16625:16704   */\n      tag_352\n      jump\t// in\n    tag_550:\n        /* \"#utility.yul\":16618:16622   */\n      0x80\n        /* \"#utility.yul\":16611:16616   */\n      dup4\n        /* \"#utility.yul\":16607:16623   */\n      add\n        /* \"#utility.yul\":16600:16705   */\n      mstore\n        /* \"#utility.yul\":16524:16716   */\n      pop\n        /* \"#utility.yul\":16782:16785   */\n      0xa0\n        /* \"#utility.yul\":16824:16898   */\n      tag_551\n        /* \"#utility.yul\":16894:16897   */\n      dup5\n        /* \"#utility.yul\":16885:16891   */\n      dup3\n        /* \"#utility.yul\":16874:16883   */\n      dup6\n        /* \"#utility.yul\":16870:16892   */\n      add\n        /* \"#utility.yul\":16824:16898   */\n      tag_344\n      jump\t// in\n    tag_551:\n        /* \"#utility.yul\":16817:16821   */\n      0xa0\n        /* \"#utility.yul\":16810:16815   */\n      dup4\n        /* \"#utility.yul\":16806:16822   */\n      add\n        /* \"#utility.yul\":16799:16899   */\n      mstore\n        /* \"#utility.yul\":16726:16910   */\n      pop\n        /* \"#utility.yul\":15526:16917   */\n      swap3\n      swap2\n      pop\n      pop\n      jump\t// out\n        /* \"#utility.yul\":16923:17325   */\n    tag_211:\n        /* \"#utility.yul\":17018:17024   */\n      0x00\n        /* \"#utility.yul\":17067:17070   */\n      0xc0\n        /* \"#utility.yul\":17055:17064   */\n      dup3\n        /* \"#utility.yul\":17046:17053   */\n      dup5\n        /* \"#utility.yul\":17042:17065   */\n      sub\n        /* \"#utility.yul\":17038:17071   */\n      slt\n        /* \"#utility.yul\":17035:17155   */\n      iszero\n      tag_553\n      jumpi\n        /* \"#utility.yul\":17074:17153   */\n      tag_554\n      tag_300\n      jump\t// in\n    tag_554:\n        /* \"#utility.yul\":17035:17155   */\n    tag_553:\n        /* \"#utility.yul\":17194:17195   */\n      0x00\n        /* \"#utility.yul\":17219:17308   */\n      tag_555\n        /* \"#utility.yul\":17300:17307   */\n      dup5\n        /* \"#utility.yul\":17291:17297   */\n      dup3\n        /* \"#utility.yul\":17280:17289   */\n      dup6\n        /* \"#utility.yul\":17276:17298   */\n      add\n        /* \"#utility.yul\":17219:17308   */\n      tag_353\n      jump\t// in\n    tag_555:\n        /* \"#utility.yul\":17209:17308   */\n      swap2\n      pop\n        /* \"#utility.yul\":17165:17318   */\n      pop\n        /* \"#utility.yul\":16923:17325   */\n      swap3\n      swap2\n      pop\n      pop\n      jump\t// out\n        /* \"#utility.yul\":17331:17511   */\n    tag_354:\n        /* \"#utility.yul\":17379:17456   */\n      0x4e487b7100000000000000000000000000000000000000000000000000000000\n        /* \"#utility.yul\":17376:17377   */\n      0x00\n        /* \"#utility.yul\":17369:17457   */\n      mstore\n        /* \"#utility.yul\":17476:17480   */\n      0x11\n        /* \"#utility.yul\":17473:17474   */\n      0x04\n        /* \"#utility.yul\":17466:17481   */\n      mstore\n        /* \"#utility.yul\":17500:17504   */\n      0x24\n        /* \"#utility.yul\":17497:17498   */\n      0x00\n        /* \"#utility.yul\":17490:17505   */\n      revert\n        /* \"#utility.yul\":17517:17750   */\n    tag_216:\n        /* \"#utility.yul\":17556:17559   */\n      0x00\n        /* \"#utility.yul\":17579:17603   */\n      tag_558\n        /* \"#utility.yul\":17597:17602   */\n      dup3\n        /* \"#utility.yul\":17579:17603   */\n      tag_306\n      jump\t// in\n    tag_558:\n        /* \"#utility.yul\":17570:17603   */\n      swap2\n      pop\n        /* \"#utility.yul\":17625:17691   */\n      0xffffffffffffffffffffffffffffffffffffffffffffffffffffffffffffffff\n        /* \"#utility.yul\":17618:17623   */\n      dup3\n        /* \"#utility.yul\":17615:17692   */\n      sub\n        /* \"#utility.yul\":17612:17715   */\n      tag_559\n      jumpi\n        /* \"#utility.yul\":17695:17713   */\n      tag_560\n      tag_354\n      jump\t// in\n    tag_560:\n        /* \"#utility.yul\":17612:17715   */\n    tag_559:\n        /* \"#utility.yul\":17742:17743   */\n      0x01\n        /* \"#utility.yul\":17735:17740   */\n      dup3\n        /* \"#utility.yul\":17731:17744   */\n      add\n        /* \"#utility.yul\":17724:17744   */\n      swap1\n      pop\n        /* \"#utility.yul\":17517:17750   */\n      swap2\n      swap1\n      pop\n      jump\t// out\n        /* \"#utility.yul\":17756:18104   */\n    tag_239:\n        /* \"#utility.yul\":17796:17803   */\n      0x00\n        /* \"#utility.yul\":17819:17839   */\n      tag_562\n        /* \"#utility.yul\":17837:17838   */\n      dup3\n        /* \"#utility.yul\":17819:17839   */\n      tag_306\n      jump\t// in\n    tag_562:\n        /* \"#utility.yul\":17814:17839   */\n      swap2\n      pop\n        /* \"#utility.yul\":17853:17873   */\n      tag_563\n        /* \"#utility.yul\":17871:17872   */\n      dup4\n        /* \"#utility.yul\":17853:17873   */\n      tag_306\n      jump\t// in\n    tag_563:\n        /* \"#utility.yul\":17848:17873   */\n      swap3\n      pop\n        /* \"#utility.yul\":18041:18042   */\n      dup2\n        /* \"#utility.yul\":17973:18039   */\n      0xffffffffffffffffffffffffffffffffffffffffffffffffffffffffffffffff\n        /* \"#utility.yul\":17969:18043   */\n      div\n        /* \"#utility.yul\":17966:17967   */\n      dup4\n        /* \"#utility.yul\":17963:18044   */\n      gt\n        /* \"#utility.yul\":17958:17959   */\n      dup3\n        /* \"#utility.yul\":17951:17960   */\n      iszero\n        /* \"#utility.yul\":17944:17961   */\n      iszero\n        /* \"#utility.yul\":17940:18045   */\n      and\n        /* \"#utility.yul\":17937:18068   */\n      iszero\n      tag_564\n      jumpi\n        /* \"#utility.yul\":18048:18066   */\n      tag_565\n      tag_354\n      jump\t// in\n    tag_565:\n        /* \"#utility.yul\":17937:18068   */\n    tag_564:\n        /* \"#utility.yul\":18096:18097   */\n      dup3\n        /* \"#utility.yul\":18093:18094   */\n      dup3\n        /* \"#utility.yul\":18089:18098   */\n      mul\n        /* \"#utility.yul\":18078:18098   */\n      swap1\n      pop\n        /* \"#utility.yul\":17756:18104   */\n      swap3\n      swap2\n      pop\n      pop\n      jump\t// out\n        /* \"#utility.yul\":18110:18253   */\n    tag_355:\n        /* \"#utility.yul\":18167:18172   */\n      0x00\n        /* \"#utility.yul\":18198:18204   */\n      dup2\n        /* \"#utility.yul\":18192:18205   */\n      mload\n        /* \"#utility.yul\":18183:18205   */\n      swap1\n      pop\n        /* \"#utility.yul\":18214:18247   */\n      tag_567\n        /* \"#utility.yul\":18241:18246   */\n      dup2\n        /* \"#utility.yul\":18214:18247   */\n      tag_304\n      jump\t// in\n    tag_567:\n        /* \"#utility.yul\":18110:18253   */\n      swap3\n      swap2\n      pop\n      pop\n      jump\t// out\n        /* \"#utility.yul\":18259:18610   */\n    tag_254:\n        /* \"#utility.yul\":18329:18335   */\n      0x00\n        /* \"#utility.yul\":18378:18380   */\n      0x20\n        /* \"#utility.yul\":18366:18375   */\n      dup3\n        /* \"#utility.yul\":18357:18364   */\n      dup5\n        /* \"#utility.yul\":18353:18376   */\n      sub\n        /* \"#utility.yul\":18349:18381   */\n      slt\n        /* \"#utility.yul\":18346:18465   */\n      iszero\n      tag_569\n      jumpi\n        /* \"#utility.yul\":18384:18463   */\n      tag_570\n      tag_300\n      jump\t// in\n    tag_570:\n        /* \"#utility.yul\":18346:18465   */\n    tag_569:\n        /* \"#utility.yul\":18504:18505   */\n      0x00\n        /* \"#utility.yul\":18529:18593   */\n      tag_571\n        /* \"#utility.yul\":18585:18592   */\n      dup5\n        /* \"#utility.yul\":18576:18582   */\n      dup3\n        /* \"#utility.yul\":18565:18574   */\n      dup6\n        /* \"#utility.yul\":18561:18583   */\n      add\n        /* \"#utility.yul\":18529:18593   */\n      tag_355\n      jump\t// in\n    tag_571:\n        /* \"#utility.yul\":18519:18593   */\n      swap2\n      pop\n        /* \"#utility.yul\":18475:18603   */\n      pop\n        /* \"#utility.yul\":18259:18610   */\n      swap3\n      swap2\n      pop\n      pop\n      jump\t// out\n        /* \"#utility.yul\":18616:18841   */\n    tag_356:\n        /* \"#utility.yul\":18756:18790   */\n      0x4f776e61626c653a206e6577206f776e657220697320746865207a65726f2061\n        /* \"#utility.yul\":18752:18753   */\n      0x00\n        /* \"#utility.yul\":18744:18750   */\n      dup3\n        /* \"#utility.yul\":18740:18754   */\n      add\n        /* \"#utility.yul\":18733:18791   */\n      mstore\n        /* \"#utility.yul\":18825:18833   */\n      0x6464726573730000000000000000000000000000000000000000000000000000\n        /* \"#utility.yul\":18820:18822   */\n      0x20\n        /* \"#utility.yul\":18812:18818   */\n      dup3\n        /* \"#utility.yul\":18808:18823   */\n      add\n        /* \"#utility.yul\":18801:18834   */\n      mstore\n        /* \"#utility.yul\":18616:18841   */\n      pop\n      jump\t// out\n        /* \"#utility.yul\":18847:19213   */\n    tag_357:\n        /* \"#utility.yul\":18989:18992   */\n      0x00\n        /* \"#utility.yul\":19010:19077   */\n      tag_574\n        /* \"#utility.yul\":19074:19076   */\n      0x26\n        /* \"#utility.yul\":19069:19072   */\n      dup4\n        /* \"#utility.yul\":19010:19077   */\n      tag_345\n      jump\t// in\n    tag_574:\n        /* \"#utility.yul\":19003:19077   */\n      swap2\n      pop\n        /* \"#utility.yul\":19086:19179   */\n      tag_575\n        /* \"#utility.yul\":19175:19178   */\n      dup3\n        /* \"#utility.yul\":19086:19179   */\n      tag_356\n      jump\t// in\n    tag_575:\n        /* \"#utility.yul\":19204:19206   */\n      0x40\n        /* \"#utility.yul\":19199:19202   */\n      dup3\n        /* \"#utility.yul\":19195:19207   */\n      add\n        /* \"#utility.yul\":19188:19207   */\n      swap1\n      pop\n        /* \"#utility.yul\":18847:19213   */\n      swap2\n      swap1\n      pop\n      jump\t// out\n        /* \"#utility.yul\":19219:19638   */\n    tag_273:\n        /* \"#utility.yul\":19385:19389   */\n      0x00\n        /* \"#utility.yul\":19423:19425   */\n      0x20\n        /* \"#utility.yul\":19412:19421   */\n      dup3\n        /* \"#utility.yul\":19408:19426   */\n      add\n        /* \"#utility.yul\":19400:19426   */\n      swap1\n      pop\n        /* \"#utility.yul\":19472:19481   */\n      dup2\n        /* \"#utility.yul\":19466:19470   */\n      dup2\n        /* \"#utility.yul\":19462:19482   */\n      sub\n        /* \"#utility.yul\":19458:19459   */\n      0x00\n        /* \"#utility.yul\":19447:19456   */\n      dup4\n        /* \"#utility.yul\":19443:19460   */\n      add\n        /* \"#utility.yul\":19436:19483   */\n      mstore\n        /* \"#utility.yul\":19500:19631   */\n      tag_577\n        /* \"#utility.yul\":19626:19630   */\n      dup2\n        /* \"#utility.yul\":19500:19631   */\n      tag_357\n      jump\t// in\n    tag_577:\n        /* \"#utility.yul\":19492:19631   */\n      swap1\n      pop\n        /* \"#utility.yul\":19219:19638   */\n      swap2\n      swap1\n      pop\n      jump\t// out\n        /* \"#utility.yul\":19644:19824   */\n    tag_358:\n        /* \"#utility.yul\":19692:19769   */\n      0x4e487b7100000000000000000000000000000000000000000000000000000000\n        /* \"#utility.yul\":19689:19690   */\n      0x00\n        /* \"#utility.yul\":19682:19770   */\n      mstore\n        /* \"#utility.yul\":19789:19793   */\n      0x12\n        /* \"#utility.yul\":19786:19787   */\n      0x04\n        /* \"#utility.yul\":19779:19794   */\n      mstore\n        /* \"#utility.yul\":19813:19817   */\n      0x24\n        /* \"#utility.yul\":19810:19811   */\n      0x00\n        /* \"#utility.yul\":19803:19818   */\n      revert\n        /* \"#utility.yul\":19830:20015   */\n    tag_279:\n        /* \"#utility.yul\":19870:19871   */\n      0x00\n        /* \"#utility.yul\":19887:19907   */\n      tag_580\n        /* \"#utility.yul\":19905:19906   */\n      dup3\n        /* \"#utility.yul\":19887:19907   */\n      tag_306\n      jump\t// in\n    tag_580:\n        /* \"#utility.yul\":19882:19907   */\n      swap2\n      pop\n        /* \"#utility.yul\":19921:19941   */\n      tag_581\n        /* \"#utility.yul\":19939:19940   */\n      dup4\n        /* \"#utility.yul\":19921:19941   */\n      tag_306\n      jump\t// in\n    tag_581:\n        /* \"#utility.yul\":19916:19941   */\n      swap3\n      pop\n        /* \"#utility.yul\":19960:19961   */\n      dup3\n        /* \"#utility.yul\":19950:19985   */\n      tag_582\n      jumpi\n        /* \"#utility.yul\":19965:19983   */\n      tag_583\n      tag_358\n      jump\t// in\n    tag_583:\n        /* \"#utility.yul\":19950:19985   */\n    tag_582:\n        /* \"#utility.yul\":20007:20008   */\n      dup3\n        /* \"#utility.yul\":20004:20005   */\n      dup3\n        /* \"#utility.yul\":20000:20009   */\n      div\n        /* \"#utility.yul\":19995:20009   */\n      swap1\n      pop\n        /* \"#utility.yul\":19830:20015   */\n      swap3\n      swap2\n      pop\n      pop\n      jump\t// out\n        /* \"#utility.yul\":20021:20241   */\n    tag_359:\n        /* \"#utility.yul\":20161:20195   */\n      0x536166654d6174683a206d756c7469706c69636174696f6e206f766572666c6f\n        /* \"#utility.yul\":20157:20158   */\n      0x00\n        /* \"#utility.yul\":20149:20155   */\n      dup3\n        /* \"#utility.yul\":20145:20159   */\n      add\n        /* \"#utility.yul\":20138:20196   */\n      mstore\n        /* \"#utility.yul\":20230:20233   */\n      0x7700000000000000000000000000000000000000000000000000000000000000\n        /* \"#utility.yul\":20225:20227   */\n      0x20\n        /* \"#utility.yul\":20217:20223   */\n      dup3\n        /* \"#utility.yul\":20213:20228   */\n      add\n        /* \"#utility.yul\":20206:20234   */\n      mstore\n        /* \"#utility.yul\":20021:20241   */\n      pop\n      jump\t// out\n        /* \"#utility.yul\":20247:20613   */\n    tag_360:\n        /* \"#utility.yul\":20389:20392   */\n      0x00\n        /* \"#utility.yul\":20410:20477   */\n      tag_586\n        /* \"#utility.yul\":20474:20476   */\n      0x21\n        /* \"#utility.yul\":20469:20472   */\n      dup4\n        /* \"#utility.yul\":20410:20477   */\n      tag_345\n      jump\t// in\n    tag_586:\n        /* \"#utility.yul\":20403:20477   */\n      swap2\n      pop\n        /* \"#utility.yul\":20486:20579   */\n      tag_587\n        /* \"#utility.yul\":20575:20578   */\n      dup3\n        /* \"#utility.yul\":20486:20579   */\n      tag_359\n      jump\t// in\n    tag_587:\n        /* \"#utility.yul\":20604:20606   */\n      0x40\n        /* \"#utility.yul\":20599:20602   */\n      dup3\n        /* \"#utility.yul\":20595:20607   */\n      add\n        /* \"#utility.yul\":20588:20607   */\n      swap1\n      pop\n        /* \"#utility.yul\":20247:20613   */\n      swap2\n      swap1\n      pop\n      jump\t// out\n        /* \"#utility.yul\":20619:21038   */\n    tag_282:\n        /* \"#utility.yul\":20785:20789   */\n      0x00\n        /* \"#utility.yul\":20823:20825   */\n      0x20\n        /* \"#utility.yul\":20812:20821   */\n      dup3\n        /* \"#utility.yul\":20808:20826   */\n      add\n        /* \"#utility.yul\":20800:20826   */\n      swap1\n      pop\n        /* \"#utility.yul\":20872:20881   */\n      dup2\n        /* \"#utility.yul\":20866:20870   */\n      dup2\n        /* \"#utility.yul\":20862:20882   */\n      sub\n        /* \"#utility.yul\":20858:20859   */\n      0x00\n        /* \"#utility.yul\":20847:20856   */\n      dup4\n        /* \"#utility.yul\":20843:20860   */\n      add\n        /* \"#utility.yul\":20836:20883   */\n      mstore\n        /* \"#utility.yul\":20900:21031   */\n      tag_589\n        /* \"#utility.yul\":21026:21030   */\n      dup2\n        /* \"#utility.yul\":20900:21031   */\n      tag_360\n      jump\t// in\n    tag_589:\n        /* \"#utility.yul\":20892:21031   */\n      swap1\n      pop\n        /* \"#utility.yul\":20619:21038   */\n      swap2\n      swap1\n      pop\n      jump\t// out\n        /* \"#utility.yul\":21044:21349   */\n    tag_285:\n        /* \"#utility.yul\":21084:21087   */\n      0x00\n        /* \"#utility.yul\":21103:21123   */\n      tag_591\n        /* \"#utility.yul\":21121:21122   */\n      dup3\n        /* \"#utility.yul\":21103:21123   */\n      tag_306\n      jump\t// in\n    tag_591:\n        /* \"#utility.yul\":21098:21123   */\n      swap2\n      pop\n        /* \"#utility.yul\":21137:21157   */\n      tag_592\n        /* \"#utility.yul\":21155:21156   */\n      dup4\n        /* \"#utility.yul\":21137:21157   */\n      tag_306\n      jump\t// in\n    tag_592:\n        /* \"#utility.yul\":21132:21157   */\n      swap3\n      pop\n        /* \"#utility.yul\":21291:21292   */\n      dup3\n        /* \"#utility.yul\":21223:21289   */\n      0xffffffffffffffffffffffffffffffffffffffffffffffffffffffffffffffff\n        /* \"#utility.yul\":21219:21293   */\n      sub\n        /* \"#utility.yul\":21216:21217   */\n      dup3\n        /* \"#utility.yul\":21213:21294   */\n      gt\n        /* \"#utility.yul\":21210:21317   */\n      iszero\n      tag_593\n      jumpi\n        /* \"#utility.yul\":21297:21315   */\n      tag_594\n      tag_354\n      jump\t// in\n    tag_594:\n        /* \"#utility.yul\":21210:21317   */\n    tag_593:\n        /* \"#utility.yul\":21341:21342   */\n      dup3\n        /* \"#utility.yul\":21338:21339   */\n      dup3\n        /* \"#utility.yul\":21334:21343   */\n      add\n        /* \"#utility.yul\":21327:21343   */\n      swap1\n      pop\n        /* \"#utility.yul\":21044:21349   */\n      swap3\n      swap2\n      pop\n      pop\n      jump\t// out\n        /* \"#utility.yul\":21355:21532   */\n    tag_361:\n        /* \"#utility.yul\":21495:21524   */\n      0x536166654d6174683a206164646974696f6e206f766572666c6f770000000000\n        /* \"#utility.yul\":21491:21492   */\n      0x00\n        /* \"#utility.yul\":21483:21489   */\n      dup3\n        /* \"#utility.yul\":21479:21493   */\n      add\n        /* \"#utility.yul\":21472:21525   */\n      mstore\n        /* \"#utility.yul\":21355:21532   */\n      pop\n      jump\t// out\n        /* \"#utility.yul\":21538:21904   */\n    tag_362:\n        /* \"#utility.yul\":21680:21683   */\n      0x00\n        /* \"#utility.yul\":21701:21768   */\n      tag_597\n        /* \"#utility.yul\":21765:21767   */\n      0x1b\n        /* \"#utility.yul\":21760:21763   */\n      dup4\n        /* \"#utility.yul\":21701:21768   */\n      tag_345\n      jump\t// in\n    tag_597:\n        /* \"#utility.yul\":21694:21768   */\n      swap2\n      pop\n        /* \"#utility.yul\":21777:21870   */\n      tag_598\n        /* \"#utility.yul\":21866:21869   */\n      dup3\n        /* \"#utility.yul\":21777:21870   */\n      tag_361\n      jump\t// in\n    tag_598:\n        /* \"#utility.yul\":21895:21897   */\n      0x20\n        /* \"#utility.yul\":21890:21893   */\n      dup3\n        /* \"#utility.yul\":21886:21898   */\n      add\n        /* \"#utility.yul\":21879:21898   */\n      swap1\n      pop\n        /* \"#utility.yul\":21538:21904   */\n      swap2\n      swap1\n      pop\n      jump\t// out\n        /* \"#utility.yul\":21910:22329   */\n    tag_288:\n        /* \"#utility.yul\":22076:22080   */\n      0x00\n        /* \"#utility.yul\":22114:22116   */\n      0x20\n        /* \"#utility.yul\":22103:22112   */\n      dup3\n        /* \"#utility.yul\":22099:22117   */\n      add\n        /* \"#utility.yul\":22091:22117   */\n      swap1\n      pop\n        /* \"#utility.yul\":22163:22172   */\n      dup2\n        /* \"#utility.yul\":22157:22161   */\n      dup2\n        /* \"#utility.yul\":22153:22173   */\n      sub\n        /* \"#utility.yul\":22149:22150   */\n      0x00\n        /* \"#utility.yul\":22138:22147   */\n      dup4\n        /* \"#utility.yul\":22134:22151   */\n      add\n        /* \"#utility.yul\":22127:22174   */\n      mstore\n        /* \"#utility.yul\":22191:22322   */\n      tag_600\n        /* \"#utility.yul\":22317:22321   */\n      dup2\n        /* \"#utility.yul\":22191:22322   */\n      tag_362\n      jump\t// in\n    tag_600:\n        /* \"#utility.yul\":22183:22322   */\n      swap1\n      pop\n        /* \"#utility.yul\":21910:22329   */\n      swap2\n      swap1\n      pop\n      jump\t// out\n        /* \"#utility.yul\":22335:22434   */\n    tag_363:\n        /* \"#utility.yul\":22387:22393   */\n      0x00\n        /* \"#utility.yul\":22421:22426   */\n      dup2\n        /* \"#utility.yul\":22415:22427   */\n      mload\n        /* \"#utility.yul\":22405:22427   */\n      swap1\n      pop\n        /* \"#utility.yul\":22335:22434   */\n      swap2\n      swap1\n      pop\n      jump\t// out\n        /* \"#utility.yul\":22440:22747   */\n    tag_364:\n        /* \"#utility.yul\":22508:22509   */\n      0x00\n        /* \"#utility.yul\":22518:22631   */\n    tag_603:\n        /* \"#utility.yul\":22532:22538   */\n      dup4\n        /* \"#utility.yul\":22529:22530   */\n      dup2\n        /* \"#utility.yul\":22526:22539   */\n      lt\n        /* \"#utility.yul\":22518:22631   */\n      iszero\n      tag_605\n      jumpi\n        /* \"#utility.yul\":22617:22618   */\n      dup1\n        /* \"#utility.yul\":22612:22615   */\n      dup3\n        /* \"#utility.yul\":22608:22619   */\n      add\n        /* \"#utility.yul\":22602:22620   */\n      mload\n        /* \"#utility.yul\":22598:22599   */\n      dup2\n        /* \"#utility.yul\":22593:22596   */\n      dup5\n        /* \"#utility.yul\":22589:22600   */\n      add\n        /* \"#utility.yul\":22582:22621   */\n      mstore\n        /* \"#utility.yul\":22554:22556   */\n      0x20\n        /* \"#utility.yul\":22551:22552   */\n      dup2\n        /* \"#utility.yul\":22547:22557   */\n      add\n        /* \"#utility.yul\":22542:22557   */\n      swap1\n      pop\n        /* \"#utility.yul\":22518:22631   */\n      jump(tag_603)\n    tag_605:\n        /* \"#utility.yul\":22649:22655   */\n      dup4\n        /* \"#utility.yul\":22646:22647   */\n      dup2\n        /* \"#utility.yul\":22643:22656   */\n      gt\n        /* \"#utility.yul\":22640:22741   */\n      iszero\n      tag_606\n      jumpi\n        /* \"#utility.yul\":22729:22730   */\n      0x00\n        /* \"#utility.yul\":22720:22726   */\n      dup5\n        /* \"#utility.yul\":22715:22718   */\n      dup5\n        /* \"#utility.yul\":22711:22727   */\n      add\n        /* \"#utility.yul\":22704:22731   */\n      mstore\n        /* \"#utility.yul\":22640:22741   */\n    tag_606:\n        /* \"#utility.yul\":22489:22747   */\n      pop\n        /* \"#utility.yul\":22440:22747   */\n      pop\n      pop\n      pop\n      jump\t// out\n        /* \"#utility.yul\":22753:23117   */\n    tag_365:\n        /* \"#utility.yul\":22841:22844   */\n      0x00\n        /* \"#utility.yul\":22869:22908   */\n      tag_608\n        /* \"#utility.yul\":22902:22907   */\n      dup3\n        /* \"#utility.yul\":22869:22908   */\n      tag_363\n      jump\t// in\n    tag_608:\n        /* \"#utility.yul\":22924:22995   */\n      tag_609\n        /* \"#utility.yul\":22988:22994   */\n      dup2\n        /* \"#utility.yul\":22983:22986   */\n      dup6\n        /* \"#utility.yul\":22924:22995   */\n      tag_345\n      jump\t// in\n    tag_609:\n        /* \"#utility.yul\":22917:22995   */\n      swap4\n      pop\n        /* \"#utility.yul\":23004:23056   */\n      tag_610\n        /* \"#utility.yul\":23049:23055   */\n      dup2\n        /* \"#utility.yul\":23044:23047   */\n      dup6\n        /* \"#utility.yul\":23037:23041   */\n      0x20\n        /* \"#utility.yul\":23030:23035   */\n      dup7\n        /* \"#utility.yul\":23026:23042   */\n      add\n        /* \"#utility.yul\":23004:23056   */\n      tag_364\n      jump\t// in\n    tag_610:\n        /* \"#utility.yul\":23081:23110   */\n      tag_611\n        /* \"#utility.yul\":23103:23109   */\n      dup2\n        /* \"#utility.yul\":23081:23110   */\n      tag_336\n      jump\t// in\n    tag_611:\n        /* \"#utility.yul\":23076:23079   */\n      dup5\n        /* \"#utility.yul\":23072:23111   */\n      add\n        /* \"#utility.yul\":23065:23111   */\n      swap2\n      pop\n        /* \"#utility.yul\":22845:23117   */\n      pop\n        /* \"#utility.yul\":22753:23117   */\n      swap3\n      swap2\n      pop\n      pop\n      jump\t// out\n        /* \"#utility.yul\":23123:23436   */\n    tag_297:\n        /* \"#utility.yul\":23236:23240   */\n      0x00\n        /* \"#utility.yul\":23274:23276   */\n      0x20\n        /* \"#utility.yul\":23263:23272   */\n      dup3\n        /* \"#utility.yul\":23259:23277   */\n      add\n        /* \"#utility.yul\":23251:23277   */\n      swap1\n      pop\n        /* \"#utility.yul\":23323:23332   */\n      dup2\n        /* \"#utility.yul\":23317:23321   */\n      dup2\n        /* \"#utility.yul\":23313:23333   */\n      sub\n        /* \"#utility.yul\":23309:23310   */\n      0x00\n        /* \"#utility.yul\":23298:23307   */\n      dup4\n        /* \"#utility.yul\":23294:23311   */\n      add\n        /* \"#utility.yul\":23287:23334   */\n      mstore\n        /* \"#utility.yul\":23351:23429   */\n      tag_613\n        /* \"#utility.yul\":23424:23428   */\n      dup2\n        /* \"#utility.yul\":23415:23421   */\n      dup5\n        /* \"#utility.yul\":23351:23429   */\n      tag_365\n      jump\t// in\n    tag_613:\n        /* \"#utility.yul\":23343:23429   */\n      swap1\n      pop\n        /* \"#utility.yul\":23123:23436   */\n      swap3\n      swap2\n      pop\n      pop\n      jump\t// out\n\n    auxdata: 0xa26469706673582212206603366e6fb59b99ec268384ac4373ef6fc9ffe3930e59d1190a599f0b5cf3cb64736f6c634300080f0033\n}\n",
				"bytecode": {
					"linkReferences": {},
					"object": "6080604052670de0b6b3a764000060035562a066806005553480156200002457600080fd5b5060405162002a1438038062002a1483398181016040528101906200004a9190620002b1565b6200006a6200005e6200013660201b60201c565b6200013e60201b60201c565b82600460006101000a81548173ffffffffffffffffffffffffffffffffffffffff021916908373ffffffffffffffffffffffffffffffffffffffff16021790555081600160006101000a81548173ffffffffffffffffffffffffffffffffffffffff021916908373ffffffffffffffffffffffffffffffffffffffff16021790555080600260006101000a81548173ffffffffffffffffffffffffffffffffffffffff021916908373ffffffffffffffffffffffffffffffffffffffff1602179055505050506200030d565b600033905090565b60008060009054906101000a900473ffffffffffffffffffffffffffffffffffffffff169050816000806101000a81548173ffffffffffffffffffffffffffffffffffffffff021916908373ffffffffffffffffffffffffffffffffffffffff1602179055508173ffffffffffffffffffffffffffffffffffffffff168173ffffffffffffffffffffffffffffffffffffffff167f8be0079c531659141344cd1fd0a4f28419497f9722a3daafe3b4186f6b6457e060405160405180910390a35050565b600080fd5b600073ffffffffffffffffffffffffffffffffffffffff82169050919050565b6000620002348262000207565b9050919050565b6000620002488262000227565b9050919050565b6200025a816200023b565b81146200026657600080fd5b50565b6000815190506200027a816200024f565b92915050565b6200028b8162000227565b81146200029757600080fd5b50565b600081519050620002ab8162000280565b92915050565b600080600060608486031215620002cd57620002cc62000202565b5b6000620002dd8682870162000269565b9350506020620002f0868287016200029a565b925050604062000303868287016200029a565b9150509250925092565b6126f7806200031d6000396000f3fe608060405234801561001057600080fd5b50600436106100ea5760003560e01c806381c7f1fc1161008c578063c0d7865511610066578063c0d7865514610261578063d979fb5f1461027d578063dbb79348146102ad578063f2fde38b146102dd576100ea565b806381c7f1fc146101f55780638da5cb5b146102255780638dd9500214610243576100ea565b80633268cc56116100c85780633268cc561461017f5780633b979d451461019d578063484f4ea9146101cd578063715018a6146101eb576100ea565b806319047f8a146100ef578063215cc9891461011f5780632f7c59801461014f575b600080fd5b61010960048036038101906101049190611abb565b6102f9565b6040516101169190611b01565b60405180910390f35b61013960048036038101906101349190611b5a565b610541565b6040516101469190611b01565b60405180910390f35b61016960048036038101906101649190611bc5565b610d3c565b6040516101769190611b01565b60405180910390f35b610187610dbe565b6040516101949190611c51565b60405180910390f35b6101b760048036038101906101b29190611abb565b610de4565b6040516101c49190611b01565b60405180910390f35b6101d5610fbb565b6040516101e29190611c7b565b60405180910390f35b6101f3610fe1565b005b61020f600480360381019061020a9190611cd4565b611069565b60405161021c9190611b01565b60405180910390f35b61022d611199565b60405161023a9190611c7b565b60405180910390f35b61024b6111c2565b6040516102589190611c7b565b60405180910390f35b61027b60048036038101906102769190611d3f565b6111e8565b005b61029760048036038101906102929190611d98565b6112a8565b6040516102a49190611b01565b60405180910390f35b6102c760048036038101906102c29190611d98565b6113e8565b6040516102d49190611b01565b60405180910390f35b6102f760048036038101906102f29190611abb565b611689565b005b600080600367ffffffffffffffff81111561031757610316611dff565b5b6040519080825280602002602001820160405280156103455781602001602082028036833780820191505090505b509050828160008151811061035d5761035c611e2e565b5b602002602001019073ffffffffffffffffffffffffffffffffffffffff16908173ffffffffffffffffffffffffffffffffffffffff1681525050600160009054906101000a900473ffffffffffffffffffffffffffffffffffffffff16816001815181106103ce576103cd611e2e565b5b602002602001019073ffffffffffffffffffffffffffffffffffffffff16908173ffffffffffffffffffffffffffffffffffffffff1681525050600260009054906101000a900473ffffffffffffffffffffffffffffffffffffffff168160028151811061043f5761043e611e2e565b5b602002602001019073ffffffffffffffffffffffffffffffffffffffff16908173ffffffffffffffffffffffffffffffffffffffff1681525050600460009054906101000a900473ffffffffffffffffffffffffffffffffffffffff1673ffffffffffffffffffffffffffffffffffffffff1663d06ca61f600354836040518363ffffffff1660e01b81526004016104d8929190611f1b565b600060405180830381865afa1580156104f5573d6000803e3d6000fd5b505050506040513d6000823e3d601f19601f8201168201806040525081019061051e919061208a565b60028151811061053157610530611e2e565b5b6020026020010151915050919050565b60008060008373ffffffffffffffffffffffffffffffffffffffff16630dfe16816040518163ffffffff1660e01b8152600401602060405180830381865afa158015610591573d6000803e3d6000fd5b505050506040513d601f19601f820116820180604052508101906105b591906120e8565b73ffffffffffffffffffffffffffffffffffffffff16600160009054906101000a900473ffffffffffffffffffffffffffffffffffffffff1673ffffffffffffffffffffffffffffffffffffffff1603610780576107796106838573ffffffffffffffffffffffffffffffffffffffff16630dfe16816040518163ffffffff1660e01b8152600401602060405180830381865afa15801561065a573d6000803e3d6000fd5b505050506040513d601f19601f8201168201806040525081019061067e91906120e8565b610de4565b8573ffffffffffffffffffffffffffffffffffffffff16630dfe16816040518163ffffffff1660e01b8152600401602060405180830381865afa1580156106ce573d6000803e3d6000fd5b505050506040513d601f19601f820116820180604052508101906106f291906120e8565b73ffffffffffffffffffffffffffffffffffffffff166370a08231876040518263ffffffff1660e01b815260040161072a9190611c7b565b602060405180830381865afa158015610747573d6000803e3d6000fd5b505050506040513d601f19601f8201168201806040525081019061076b9190612115565b61178090919063ffffffff16565b91506108f3565b6108f06107fa8573ffffffffffffffffffffffffffffffffffffffff16630dfe16816040518163ffffffff1660e01b8152600401602060405180830381865afa1580156107d1573d6000803e3d6000fd5b505050506040513d601f19601f820116820180604052508101906107f591906120e8565b6102f9565b8573ffffffffffffffffffffffffffffffffffffffff16630dfe16816040518163ffffffff1660e01b8152600401602060405180830381865afa158015610845573d6000803e3d6000fd5b505050506040513d601f19601f8201168201806040525081019061086991906120e8565b73ffffffffffffffffffffffffffffffffffffffff166370a08231876040518263ffffffff1660e01b81526004016108a19190611c7b565b602060405180830381865afa1580156108be573d6000803e3d6000fd5b505050506040513d601f19601f820116820180604052508101906108e29190612115565b61178090919063ffffffff16565b91505b8373ffffffffffffffffffffffffffffffffffffffff1663d21220a76040518163ffffffff1660e01b8152600401602060405180830381865afa15801561093e573d6000803e3d6000fd5b505050506040513d601f19601f8201168201806040525081019061096291906120e8565b73ffffffffffffffffffffffffffffffffffffffff16600160009054906101000a900473ffffffffffffffffffffffffffffffffffffffff1673ffffffffffffffffffffffffffffffffffffffff1603610b2d57610b26610a308573ffffffffffffffffffffffffffffffffffffffff1663d21220a76040518163ffffffff1660e01b8152600401602060405180830381865afa158015610a07573d6000803e3d6000fd5b505050506040513d601f19601f82011682018060405250810190610a2b91906120e8565b610de4565b8573ffffffffffffffffffffffffffffffffffffffff1663d21220a76040518163ffffffff1660e01b8152600401602060405180830381865afa158015610a7b573d6000803e3d6000fd5b505050506040513d601f19601f82011682018060405250810190610a9f91906120e8565b73ffffffffffffffffffffffffffffffffffffffff166370a08231876040518263ffffffff1660e01b8152600401610ad79190611c7b565b602060405180830381865afa158015610af4573d6000803e3d6000fd5b505050506040513d601f19601f82011682018060405250810190610b189190612115565b61178090919063ffffffff16565b9050610ca0565b610c9d610ba78573ffffffffffffffffffffffffffffffffffffffff1663d21220a76040518163ffffffff1660e01b8152600401602060405180830381865afa158015610b7e573d6000803e3d6000fd5b505050506040513d601f19601f82011682018060405250810190610ba291906120e8565b6102f9565b8573ffffffffffffffffffffffffffffffffffffffff1663d21220a76040518163ffffffff1660e01b8152600401602060405180830381865afa158015610bf2573d6000803e3d6000fd5b505050506040513d601f19601f82011682018060405250810190610c1691906120e8565b73ffffffffffffffffffffffffffffffffffffffff166370a08231876040518263ffffffff1660e01b8152600401610c4e9190611c7b565b602060405180830381865afa158015610c6b573d6000803e3d6000fd5b505050506040513d601f19601f82011682018060405250810190610c8f9190612115565b61178090919063ffffffff16565b90505b610d338473ffffffffffffffffffffffffffffffffffffffff166318160ddd6040518163ffffffff1660e01b8152600401602060405180830381865afa158015610cee573d6000803e3d6000fd5b505050506040513d601f19601f82011682018060405250810190610d129190612115565b610d2583856117fa90919063ffffffff16565b61185890919063ffffffff16565b92505050919050565b60008173ffffffffffffffffffffffffffffffffffffffff16630dfe16816040518163ffffffff1660e01b8152600401602060405180830381865afa925050508015610da657506040513d601f19601f82011682018060405250810190610da391906120e8565b60015b610db35760009050610db9565b50600190505b919050565b600460009054906101000a900473ffffffffffffffffffffffffffffffffffffffff1681565b600080600267ffffffffffffffff811115610e0257610e01611dff565b5b604051908082528060200260200182016040528015610e305781602001602082028036833780820191505090505b5090508281600081518110610e4857610e47611e2e565b5b602002602001019073ffffffffffffffffffffffffffffffffffffffff16908173ffffffffffffffffffffffffffffffffffffffff1681525050600260009054906101000a900473ffffffffffffffffffffffffffffffffffffffff1681600181518110610eb957610eb8611e2e565b5b602002602001019073ffffffffffffffffffffffffffffffffffffffff16908173ffffffffffffffffffffffffffffffffffffffff1681525050600460009054906101000a900473ffffffffffffffffffffffffffffffffffffffff1673ffffffffffffffffffffffffffffffffffffffff1663d06ca61f600354836040518363ffffffff1660e01b8152600401610f52929190611f1b565b600060405180830381865afa158015610f6f573d6000803e3d6000fd5b505050506040513d6000823e3d601f19601f82011682018060405250810190610f98919061208a565b600181518110610fab57610faa611e2e565b5b6020026020010151915050919050565b600260009054906101000a900473ffffffffffffffffffffffffffffffffffffffff1681565b610fe96118a2565b73ffffffffffffffffffffffffffffffffffffffff16611007611199565b73ffffffffffffffffffffffffffffffffffffffff161461105d576040517f08c379a00000000000000000000000000000000000000000000000000000000081526004016110549061219f565b60405180910390fd5b61106760006118aa565b565b60006110736119d1565b600080600090505b8473ffffffffffffffffffffffffffffffffffffffff1663081e3eda6040518163ffffffff1660e01b8152600401602060405180830381865afa1580156110c6573d6000803e3d6000fd5b505050506040513d601f19601f820116820180604052508101906110ea9190612115565b811015611191578473ffffffffffffffffffffffffffffffffffffffff16631526fe27826040518263ffffffff1660e01b815260040161112a9190611b01565b60c060405180830381865afa158015611147573d6000803e3d6000fd5b505050506040513d601f19601f8201168201806040525081019061116b91906122a2565b9250600161117c8460000151610d3c565b50508080611189906122fe565b91505061107b565b505050919050565b60008060009054906101000a900473ffffffffffffffffffffffffffffffffffffffff16905090565b600160009054906101000a900473ffffffffffffffffffffffffffffffffffffffff1681565b6111f06118a2565b73ffffffffffffffffffffffffffffffffffffffff1661120e611199565b73ffffffffffffffffffffffffffffffffffffffff1614611264576040517f08c379a000000000000000000000000000000000000000000000000000000000815260040161125b9061219f565b60405180910390fd5b80600460006101000a81548173ffffffffffffffffffffffffffffffffffffffff021916908373ffffffffffffffffffffffffffffffffffffffff16021790555050565b6000808273ffffffffffffffffffffffffffffffffffffffff16636a6d964e876040518263ffffffff1660e01b81526004016112e49190611b01565b602060405180830381865afa158015611301573d6000803e3d6000fd5b505050506040513d601f19601f820116820180604052508101906113259190612115565b90506000600185036113415761133a86610541565b90506113bc565b600085036113bb578573ffffffffffffffffffffffffffffffffffffffff16600160009054906101000a900473ffffffffffffffffffffffffffffffffffffffff1673ffffffffffffffffffffffffffffffffffffffff16036113ae576113a786610de4565b90506113ba565b6113b7866102f9565b90505b5b5b6113dc60035482846113ce9190612346565b61185890919063ffffffff16565b92505050949350505050565b6000808273ffffffffffffffffffffffffffffffffffffffff16631526fe27876040518263ffffffff1660e01b81526004016114249190611b01565b60c060405180830381865afa158015611441573d6000803e3d6000fd5b505050506040513d601f19601f8201168201806040525081019061146591906122a2565b905060006115028473ffffffffffffffffffffffffffffffffffffffff166317caf6f16040518163ffffffff1660e01b8152600401602060405180830381865afa1580156114b7573d6000803e3d6000fd5b505050506040513d601f19601f820116820180604052508101906114db9190612115565b6114f4600354856020015161178090919063ffffffff16565b61185890919063ffffffff16565b9050600061157d8573ffffffffffffffffffffffffffffffffffffffff1663141aa0ba6040518163ffffffff1660e01b8152600401602060405180830381865afa158015611554573d6000803e3d6000fd5b505050506040513d601f19601f8201168201806040525081019061157891906123b5565b6102f9565b905060006116048673ffffffffffffffffffffffffffffffffffffffff1663a1eef8216040518163ffffffff1660e01b8152600401602060405180830381865afa1580156115cf573d6000803e3d6000fd5b505050506040513d601f19601f820116820180604052508101906115f39190612115565b60055461178090919063ffffffff16565b9050600061162f600354611621868561178090919063ffffffff16565b61185890919063ffffffff16565b9050600061163f8b8b8b8b6112a8565b9050611679606461166b8361165d888761178090919063ffffffff16565b61185890919063ffffffff16565b61178090919063ffffffff16565b9650505050505050949350505050565b6116916118a2565b73ffffffffffffffffffffffffffffffffffffffff166116af611199565b73ffffffffffffffffffffffffffffffffffffffff1614611705576040517f08c379a00000000000000000000000000000000000000000000000000000000081526004016116fc9061219f565b60405180910390fd5b600073ffffffffffffffffffffffffffffffffffffffff168173ffffffffffffffffffffffffffffffffffffffff1603611774576040517f08c379a000000000000000000000000000000000000000000000000000000000815260040161176b90612454565b60405180910390fd5b61177d816118aa565b50565b600080830361179257600090506117f4565b600082846117a09190612346565b90508284826117af91906124a3565b146117ef576040517f08c379a00000000000000000000000000000000000000000000000000000000081526004016117e690612546565b60405180910390fd5b809150505b92915050565b60008082846118099190612566565b90508381101561184e576040517f08c379a000000000000000000000000000000000000000000000000000000000815260040161184590612608565b60405180910390fd5b8091505092915050565b600061189a83836040518060400160405280601a81526020017f536166654d6174683a206469766973696f6e206279207a65726f00000000000081525061196e565b905092915050565b600033905090565b60008060009054906101000a900473ffffffffffffffffffffffffffffffffffffffff169050816000806101000a81548173ffffffffffffffffffffffffffffffffffffffff021916908373ffffffffffffffffffffffffffffffffffffffff1602179055508173ffffffffffffffffffffffffffffffffffffffff168173ffffffffffffffffffffffffffffffffffffffff167f8be0079c531659141344cd1fd0a4f28419497f9722a3daafe3b4186f6b6457e060405160405180910390a35050565b600080831182906119b5576040517f08c379a00000000000000000000000000000000000000000000000000000000081526004016119ac919061269f565b60405180910390fd5b50600083856119c491906124a3565b9050809150509392505050565b6040518060c00160405280600073ffffffffffffffffffffffffffffffffffffffff168152602001600081526020016000815260200160008152602001600073ffffffffffffffffffffffffffffffffffffffff168152602001600073ffffffffffffffffffffffffffffffffffffffff1681525090565b6000604051905090565b600080fd5b600080fd5b600073ffffffffffffffffffffffffffffffffffffffff82169050919050565b6000611a8882611a5d565b9050919050565b611a9881611a7d565b8114611aa357600080fd5b50565b600081359050611ab581611a8f565b92915050565b600060208284031215611ad157611ad0611a53565b5b6000611adf84828501611aa6565b91505092915050565b6000819050919050565b611afb81611ae8565b82525050565b6000602082019050611b166000830184611af2565b92915050565b6000611b2782611a7d565b9050919050565b611b3781611b1c565b8114611b4257600080fd5b50565b600081359050611b5481611b2e565b92915050565b600060208284031215611b7057611b6f611a53565b5b6000611b7e84828501611b45565b91505092915050565b6000611b9282611a7d565b9050919050565b611ba281611b87565b8114611bad57600080fd5b50565b600081359050611bbf81611b99565b92915050565b600060208284031215611bdb57611bda611a53565b5b6000611be984828501611bb0565b91505092915050565b6000819050919050565b6000611c17611c12611c0d84611a5d565b611bf2565b611a5d565b9050919050565b6000611c2982611bfc565b9050919050565b6000611c3b82611c1e565b9050919050565b611c4b81611c30565b82525050565b6000602082019050611c666000830184611c42565b92915050565b611c7581611a7d565b82525050565b6000602082019050611c906000830184611c6c565b92915050565b6000611ca182611a7d565b9050919050565b611cb181611c96565b8114611cbc57600080fd5b50565b600081359050611cce81611ca8565b92915050565b600060208284031215611cea57611ce9611a53565b5b6000611cf884828501611cbf565b91505092915050565b6000611d0c82611a7d565b9050919050565b611d1c81611d01565b8114611d2757600080fd5b50565b600081359050611d3981611d13565b92915050565b600060208284031215611d5557611d54611a53565b5b6000611d6384828501611d2a565b91505092915050565b611d7581611ae8565b8114611d8057600080fd5b50565b600081359050611d9281611d6c565b92915050565b60008060008060808587031215611db257611db1611a53565b5b6000611dc087828801611d83565b9450506020611dd187828801611b45565b9350506040611de287828801611d83565b9250506060611df387828801611cbf565b91505092959194509250565b7f4e487b7100000000000000000000000000000000000000000000000000000000600052604160045260246000fd5b7f4e487b7100000000000000000000000000000000000000000000000000000000600052603260045260246000fd5b600081519050919050565b600082825260208201905092915050565b6000819050602082019050919050565b611e9281611a7d565b82525050565b6000611ea48383611e89565b60208301905092915050565b6000602082019050919050565b6000611ec882611e5d565b611ed28185611e68565b9350611edd83611e79565b8060005b83811015611f0e578151611ef58882611e98565b9750611f0083611eb0565b925050600181019050611ee1565b5085935050505092915050565b6000604082019050611f306000830185611af2565b8181036020830152611f428184611ebd565b90509392505050565b600080fd5b6000601f19601f8301169050919050565b611f6a82611f50565b810181811067ffffffffffffffff82111715611f8957611f88611dff565b5b80604052505050565b6000611f9c611a49565b9050611fa88282611f61565b919050565b600067ffffffffffffffff821115611fc857611fc7611dff565b5b602082029050602081019050919050565b600080fd5b600081519050611fed81611d6c565b92915050565b600061200661200184611fad565b611f92565b9050808382526020820190506020840283018581111561202957612028611fd9565b5b835b81811015612052578061203e8882611fde565b84526020840193505060208101905061202b565b5050509392505050565b600082601f83011261207157612070611f4b565b5b8151612081848260208601611ff3565b91505092915050565b6000602082840312156120a05761209f611a53565b5b600082015167ffffffffffffffff8111156120be576120bd611a58565b5b6120ca8482850161205c565b91505092915050565b6000815190506120e281611b99565b92915050565b6000602082840312156120fe576120fd611a53565b5b600061210c848285016120d3565b91505092915050565b60006020828403121561212b5761212a611a53565b5b600061213984828501611fde565b91505092915050565b600082825260208201905092915050565b7f4f776e61626c653a2063616c6c6572206973206e6f7420746865206f776e6572600082015250565b6000612189602083612142565b915061219482612153565b602082019050919050565b600060208201905081810360008301526121b88161217c565b9050919050565b600080fd5b60006121cf82611a7d565b9050919050565b6121df816121c4565b81146121ea57600080fd5b50565b6000815190506121fc816121d6565b92915050565b600060c08284031215612218576122176121bf565b5b61222260c0611f92565b90506000612232848285016120d3565b600083015250602061224684828501611fde565b602083015250604061225a84828501611fde565b604083015250606061226e84828501611fde565b6060830152506080612282848285016121ed565b60808301525060a0612296848285016120d3565b60a08301525092915050565b600060c082840312156122b8576122b7611a53565b5b60006122c684828501612202565b91505092915050565b7f4e487b7100000000000000000000000000000000000000000000000000000000600052601160045260246000fd5b600061230982611ae8565b91507fffffffffffffffffffffffffffffffffffffffffffffffffffffffffffffffff820361233b5761233a6122cf565b5b600182019050919050565b600061235182611ae8565b915061235c83611ae8565b9250817fffffffffffffffffffffffffffffffffffffffffffffffffffffffffffffffff0483118215151615612395576123946122cf565b5b828202905092915050565b6000815190506123af81611a8f565b92915050565b6000602082840312156123cb576123ca611a53565b5b60006123d9848285016123a0565b91505092915050565b7f4f776e61626c653a206e6577206f776e657220697320746865207a65726f206160008201527f6464726573730000000000000000000000000000000000000000000000000000602082015250565b600061243e602683612142565b9150612449826123e2565b604082019050919050565b6000602082019050818103600083015261246d81612431565b9050919050565b7f4e487b7100000000000000000000000000000000000000000000000000000000600052601260045260246000fd5b60006124ae82611ae8565b91506124b983611ae8565b9250826124c9576124c8612474565b5b828204905092915050565b7f536166654d6174683a206d756c7469706c69636174696f6e206f766572666c6f60008201527f7700000000000000000000000000000000000000000000000000000000000000602082015250565b6000612530602183612142565b915061253b826124d4565b604082019050919050565b6000602082019050818103600083015261255f81612523565b9050919050565b600061257182611ae8565b915061257c83611ae8565b9250827fffffffffffffffffffffffffffffffffffffffffffffffffffffffffffffffff038211156125b1576125b06122cf565b5b828201905092915050565b7f536166654d6174683a206164646974696f6e206f766572666c6f770000000000600082015250565b60006125f2601b83612142565b91506125fd826125bc565b602082019050919050565b60006020820190508181036000830152612621816125e5565b9050919050565b600081519050919050565b60005b83811015612651578082015181840152602081019050612636565b83811115612660576000848401525b50505050565b600061267182612628565b61267b8185612142565b935061268b818560208601612633565b61269481611f50565b840191505092915050565b600060208201905081810360008301526126b98184612666565b90509291505056fea26469706673582212206603366e6fb59b99ec268384ac4373ef6fc9ffe3930e59d1190a599f0b5cf3cb64736f6c634300080f0033",
					"opcodes": "PUSH1 0x80 PUSH1 0x40 MSTORE PUSH8 0xDE0B6B3A7640000 PUSH1 0x3 SSTORE PUSH3 0xA06680 PUSH1 0x5 SSTORE CALLVALUE DUP1 ISZERO PUSH3 0x24 JUMPI PUSH1 0x0 DUP1 REVERT JUMPDEST POP PUSH1 0x40 MLOAD PUSH3 0x2A14 CODESIZE SUB DUP1 PUSH3 0x2A14 DUP4 CODECOPY DUP2 DUP2 ADD PUSH1 0x40 MSTORE DUP2 ADD SWAP1 PUSH3 0x4A SWAP2 SWAP1 PUSH3 0x2B1 JUMP JUMPDEST PUSH3 0x6A PUSH3 0x5E PUSH3 0x136 PUSH1 0x20 SHL PUSH1 0x20 SHR JUMP JUMPDEST PUSH3 0x13E PUSH1 0x20 SHL PUSH1 0x20 SHR JUMP JUMPDEST DUP3 PUSH1 0x4 PUSH1 0x0 PUSH2 0x100 EXP DUP2 SLOAD DUP2 PUSH20 0xFFFFFFFFFFFFFFFFFFFFFFFFFFFFFFFFFFFFFFFF MUL NOT AND SWAP1 DUP4 PUSH20 0xFFFFFFFFFFFFFFFFFFFFFFFFFFFFFFFFFFFFFFFF AND MUL OR SWAP1 SSTORE POP DUP2 PUSH1 0x1 PUSH1 0x0 PUSH2 0x100 EXP DUP2 SLOAD DUP2 PUSH20 0xFFFFFFFFFFFFFFFFFFFFFFFFFFFFFFFFFFFFFFFF MUL NOT AND SWAP1 DUP4 PUSH20 0xFFFFFFFFFFFFFFFFFFFFFFFFFFFFFFFFFFFFFFFF AND MUL OR SWAP1 SSTORE POP DUP1 PUSH1 0x2 PUSH1 0x0 PUSH2 0x100 EXP DUP2 SLOAD DUP2 PUSH20 0xFFFFFFFFFFFFFFFFFFFFFFFFFFFFFFFFFFFFFFFF MUL NOT AND SWAP1 DUP4 PUSH20 0xFFFFFFFFFFFFFFFFFFFFFFFFFFFFFFFFFFFFFFFF AND MUL OR SWAP1 SSTORE POP POP POP POP PUSH3 0x30D JUMP JUMPDEST PUSH1 0x0 CALLER SWAP1 POP SWAP1 JUMP JUMPDEST PUSH1 0x0 DUP1 PUSH1 0x0 SWAP1 SLOAD SWAP1 PUSH2 0x100 EXP SWAP1 DIV PUSH20 0xFFFFFFFFFFFFFFFFFFFFFFFFFFFFFFFFFFFFFFFF AND SWAP1 POP DUP2 PUSH1 0x0 DUP1 PUSH2 0x100 EXP DUP2 SLOAD DUP2 PUSH20 0xFFFFFFFFFFFFFFFFFFFFFFFFFFFFFFFFFFFFFFFF MUL NOT AND SWAP1 DUP4 PUSH20 0xFFFFFFFFFFFFFFFFFFFFFFFFFFFFFFFFFFFFFFFF AND MUL OR SWAP1 SSTORE POP DUP2 PUSH20 0xFFFFFFFFFFFFFFFFFFFFFFFFFFFFFFFFFFFFFFFF AND DUP2 PUSH20 0xFFFFFFFFFFFFFFFFFFFFFFFFFFFFFFFFFFFFFFFF AND PUSH32 0x8BE0079C531659141344CD1FD0A4F28419497F9722A3DAAFE3B4186F6B6457E0 PUSH1 0x40 MLOAD PUSH1 0x40 MLOAD DUP1 SWAP2 SUB SWAP1 LOG3 POP POP JUMP JUMPDEST PUSH1 0x0 DUP1 REVERT JUMPDEST PUSH1 0x0 PUSH20 0xFFFFFFFFFFFFFFFFFFFFFFFFFFFFFFFFFFFFFFFF DUP3 AND SWAP1 POP SWAP2 SWAP1 POP JUMP JUMPDEST PUSH1 0x0 PUSH3 0x234 DUP3 PUSH3 0x207 JUMP JUMPDEST SWAP1 POP SWAP2 SWAP1 POP JUMP JUMPDEST PUSH1 0x0 PUSH3 0x248 DUP3 PUSH3 0x227 JUMP JUMPDEST SWAP1 POP SWAP2 SWAP1 POP JUMP JUMPDEST PUSH3 0x25A DUP2 PUSH3 0x23B JUMP JUMPDEST DUP2 EQ PUSH3 0x266 JUMPI PUSH1 0x0 DUP1 REVERT JUMPDEST POP JUMP JUMPDEST PUSH1 0x0 DUP2 MLOAD SWAP1 POP PUSH3 0x27A DUP2 PUSH3 0x24F JUMP JUMPDEST SWAP3 SWAP2 POP POP JUMP JUMPDEST PUSH3 0x28B DUP2 PUSH3 0x227 JUMP JUMPDEST DUP2 EQ PUSH3 0x297 JUMPI PUSH1 0x0 DUP1 REVERT JUMPDEST POP JUMP JUMPDEST PUSH1 0x0 DUP2 MLOAD SWAP1 POP PUSH3 0x2AB DUP2 PUSH3 0x280 JUMP JUMPDEST SWAP3 SWAP2 POP POP JUMP JUMPDEST PUSH1 0x0 DUP1 PUSH1 0x0 PUSH1 0x60 DUP5 DUP7 SUB SLT ISZERO PUSH3 0x2CD JUMPI PUSH3 0x2CC PUSH3 0x202 JUMP JUMPDEST JUMPDEST PUSH1 0x0 PUSH3 0x2DD DUP7 DUP3 DUP8 ADD PUSH3 0x269 JUMP JUMPDEST SWAP4 POP POP PUSH1 0x20 PUSH3 0x2F0 DUP7 DUP3 DUP8 ADD PUSH3 0x29A JUMP JUMPDEST SWAP3 POP POP PUSH1 0x40 PUSH3 0x303 DUP7 DUP3 DUP8 ADD PUSH3 0x29A JUMP JUMPDEST SWAP2 POP POP SWAP3 POP SWAP3 POP SWAP3 JUMP JUMPDEST PUSH2 0x26F7 DUP1 PUSH3 0x31D PUSH1 0x0 CODECOPY PUSH1 0x0 RETURN INVALID PUSH1 0x80 PUSH1 0x40 MSTORE CALLVALUE DUP1 ISZERO PUSH2 0x10 JUMPI PUSH1 0x0 DUP1 REVERT JUMPDEST POP PUSH1 0x4 CALLDATASIZE LT PUSH2 0xEA JUMPI PUSH1 0x0 CALLDATALOAD PUSH1 0xE0 SHR DUP1 PUSH4 0x81C7F1FC GT PUSH2 0x8C JUMPI DUP1 PUSH4 0xC0D78655 GT PUSH2 0x66 JUMPI DUP1 PUSH4 0xC0D78655 EQ PUSH2 0x261 JUMPI DUP1 PUSH4 0xD979FB5F EQ PUSH2 0x27D JUMPI DUP1 PUSH4 0xDBB79348 EQ PUSH2 0x2AD JUMPI DUP1 PUSH4 0xF2FDE38B EQ PUSH2 0x2DD JUMPI PUSH2 0xEA JUMP JUMPDEST DUP1 PUSH4 0x81C7F1FC EQ PUSH2 0x1F5 JUMPI DUP1 PUSH4 0x8DA5CB5B EQ PUSH2 0x225 JUMPI DUP1 PUSH4 0x8DD95002 EQ PUSH2 0x243 JUMPI PUSH2 0xEA JUMP JUMPDEST DUP1 PUSH4 0x3268CC56 GT PUSH2 0xC8 JUMPI DUP1 PUSH4 0x3268CC56 EQ PUSH2 0x17F JUMPI DUP1 PUSH4 0x3B979D45 EQ PUSH2 0x19D JUMPI DUP1 PUSH4 0x484F4EA9 EQ PUSH2 0x1CD JUMPI DUP1 PUSH4 0x715018A6 EQ PUSH2 0x1EB JUMPI PUSH2 0xEA JUMP JUMPDEST DUP1 PUSH4 0x19047F8A EQ PUSH2 0xEF JUMPI DUP1 PUSH4 0x215CC989 EQ PUSH2 0x11F JUMPI DUP1 PUSH4 0x2F7C5980 EQ PUSH2 0x14F JUMPI JUMPDEST PUSH1 0x0 DUP1 REVERT JUMPDEST PUSH2 0x109 PUSH1 0x4 DUP1 CALLDATASIZE SUB DUP2 ADD SWAP1 PUSH2 0x104 SWAP2 SWAP1 PUSH2 0x1ABB JUMP JUMPDEST PUSH2 0x2F9 JUMP JUMPDEST PUSH1 0x40 MLOAD PUSH2 0x116 SWAP2 SWAP1 PUSH2 0x1B01 JUMP JUMPDEST PUSH1 0x40 MLOAD DUP1 SWAP2 SUB SWAP1 RETURN JUMPDEST PUSH2 0x139 PUSH1 0x4 DUP1 CALLDATASIZE SUB DUP2 ADD SWAP1 PUSH2 0x134 SWAP2 SWAP1 PUSH2 0x1B5A JUMP JUMPDEST PUSH2 0x541 JUMP JUMPDEST PUSH1 0x40 MLOAD PUSH2 0x146 SWAP2 SWAP1 PUSH2 0x1B01 JUMP JUMPDEST PUSH1 0x40 MLOAD DUP1 SWAP2 SUB SWAP1 RETURN JUMPDEST PUSH2 0x169 PUSH1 0x4 DUP1 CALLDATASIZE SUB DUP2 ADD SWAP1 PUSH2 0x164 SWAP2 SWAP1 PUSH2 0x1BC5 JUMP JUMPDEST PUSH2 0xD3C JUMP JUMPDEST PUSH1 0x40 MLOAD PUSH2 0x176 SWAP2 SWAP1 PUSH2 0x1B01 JUMP JUMPDEST PUSH1 0x40 MLOAD DUP1 SWAP2 SUB SWAP1 RETURN JUMPDEST PUSH2 0x187 PUSH2 0xDBE JUMP JUMPDEST PUSH1 0x40 MLOAD PUSH2 0x194 SWAP2 SWAP1 PUSH2 0x1C51 JUMP JUMPDEST PUSH1 0x40 MLOAD DUP1 SWAP2 SUB SWAP1 RETURN JUMPDEST PUSH2 0x1B7 PUSH1 0x4 DUP1 CALLDATASIZE SUB DUP2 ADD SWAP1 PUSH2 0x1B2 SWAP2 SWAP1 PUSH2 0x1ABB JUMP JUMPDEST PUSH2 0xDE4 JUMP JUMPDEST PUSH1 0x40 MLOAD PUSH2 0x1C4 SWAP2 SWAP1 PUSH2 0x1B01 JUMP JUMPDEST PUSH1 0x40 MLOAD DUP1 SWAP2 SUB SWAP1 RETURN JUMPDEST PUSH2 0x1D5 PUSH2 0xFBB JUMP JUMPDEST PUSH1 0x40 MLOAD PUSH2 0x1E2 SWAP2 SWAP1 PUSH2 0x1C7B JUMP JUMPDEST PUSH1 0x40 MLOAD DUP1 SWAP2 SUB SWAP1 RETURN JUMPDEST PUSH2 0x1F3 PUSH2 0xFE1 JUMP JUMPDEST STOP JUMPDEST PUSH2 0x20F PUSH1 0x4 DUP1 CALLDATASIZE SUB DUP2 ADD SWAP1 PUSH2 0x20A SWAP2 SWAP1 PUSH2 0x1CD4 JUMP JUMPDEST PUSH2 0x1069 JUMP JUMPDEST PUSH1 0x40 MLOAD PUSH2 0x21C SWAP2 SWAP1 PUSH2 0x1B01 JUMP JUMPDEST PUSH1 0x40 MLOAD DUP1 SWAP2 SUB SWAP1 RETURN JUMPDEST PUSH2 0x22D PUSH2 0x1199 JUMP JUMPDEST PUSH1 0x40 MLOAD PUSH2 0x23A SWAP2 SWAP1 PUSH2 0x1C7B JUMP JUMPDEST PUSH1 0x40 MLOAD DUP1 SWAP2 SUB SWAP1 RETURN JUMPDEST PUSH2 0x24B PUSH2 0x11C2 JUMP JUMPDEST PUSH1 0x40 MLOAD PUSH2 0x258 SWAP2 SWAP1 PUSH2 0x1C7B JUMP JUMPDEST PUSH1 0x40 MLOAD DUP1 SWAP2 SUB SWAP1 RETURN JUMPDEST PUSH2 0x27B PUSH1 0x4 DUP1 CALLDATASIZE SUB DUP2 ADD SWAP1 PUSH2 0x276 SWAP2 SWAP1 PUSH2 0x1D3F JUMP JUMPDEST PUSH2 0x11E8 JUMP JUMPDEST STOP JUMPDEST PUSH2 0x297 PUSH1 0x4 DUP1 CALLDATASIZE SUB DUP2 ADD SWAP1 PUSH2 0x292 SWAP2 SWAP1 PUSH2 0x1D98 JUMP JUMPDEST PUSH2 0x12A8 JUMP JUMPDEST PUSH1 0x40 MLOAD PUSH2 0x2A4 SWAP2 SWAP1 PUSH2 0x1B01 JUMP JUMPDEST PUSH1 0x40 MLOAD DUP1 SWAP2 SUB SWAP1 RETURN JUMPDEST PUSH2 0x2C7 PUSH1 0x4 DUP1 CALLDATASIZE SUB DUP2 ADD SWAP1 PUSH2 0x2C2 SWAP2 SWAP1 PUSH2 0x1D98 JUMP JUMPDEST PUSH2 0x13E8 JUMP JUMPDEST PUSH1 0x40 MLOAD PUSH2 0x2D4 SWAP2 SWAP1 PUSH2 0x1B01 JUMP JUMPDEST PUSH1 0x40 MLOAD DUP1 SWAP2 SUB SWAP1 RETURN JUMPDEST PUSH2 0x2F7 PUSH1 0x4 DUP1 CALLDATASIZE SUB DUP2 ADD SWAP1 PUSH2 0x2F2 SWAP2 SWAP1 PUSH2 0x1ABB JUMP JUMPDEST PUSH2 0x1689 JUMP JUMPDEST STOP JUMPDEST PUSH1 0x0 DUP1 PUSH1 0x3 PUSH8 0xFFFFFFFFFFFFFFFF DUP2 GT ISZERO PUSH2 0x317 JUMPI PUSH2 0x316 PUSH2 0x1DFF JUMP JUMPDEST JUMPDEST PUSH1 0x40 MLOAD SWAP1 DUP1 DUP3 MSTORE DUP1 PUSH1 0x20 MUL PUSH1 0x20 ADD DUP3 ADD PUSH1 0x40 MSTORE DUP1 ISZERO PUSH2 0x345 JUMPI DUP2 PUSH1 0x20 ADD PUSH1 0x20 DUP3 MUL DUP1 CALLDATASIZE DUP4 CALLDATACOPY DUP1 DUP3 ADD SWAP2 POP POP SWAP1 POP JUMPDEST POP SWAP1 POP DUP3 DUP2 PUSH1 0x0 DUP2 MLOAD DUP2 LT PUSH2 0x35D JUMPI PUSH2 0x35C PUSH2 0x1E2E JUMP JUMPDEST JUMPDEST PUSH1 0x20 MUL PUSH1 0x20 ADD ADD SWAP1 PUSH20 0xFFFFFFFFFFFFFFFFFFFFFFFFFFFFFFFFFFFFFFFF AND SWAP1 DUP2 PUSH20 0xFFFFFFFFFFFFFFFFFFFFFFFFFFFFFFFFFFFFFFFF AND DUP2 MSTORE POP POP PUSH1 0x1 PUSH1 0x0 SWAP1 SLOAD SWAP1 PUSH2 0x100 EXP SWAP1 DIV PUSH20 0xFFFFFFFFFFFFFFFFFFFFFFFFFFFFFFFFFFFFFFFF AND DUP2 PUSH1 0x1 DUP2 MLOAD DUP2 LT PUSH2 0x3CE JUMPI PUSH2 0x3CD PUSH2 0x1E2E JUMP JUMPDEST JUMPDEST PUSH1 0x20 MUL PUSH1 0x20 ADD ADD SWAP1 PUSH20 0xFFFFFFFFFFFFFFFFFFFFFFFFFFFFFFFFFFFFFFFF AND SWAP1 DUP2 PUSH20 0xFFFFFFFFFFFFFFFFFFFFFFFFFFFFFFFFFFFFFFFF AND DUP2 MSTORE POP POP PUSH1 0x2 PUSH1 0x0 SWAP1 SLOAD SWAP1 PUSH2 0x100 EXP SWAP1 DIV PUSH20 0xFFFFFFFFFFFFFFFFFFFFFFFFFFFFFFFFFFFFFFFF AND DUP2 PUSH1 0x2 DUP2 MLOAD DUP2 LT PUSH2 0x43F JUMPI PUSH2 0x43E PUSH2 0x1E2E JUMP JUMPDEST JUMPDEST PUSH1 0x20 MUL PUSH1 0x20 ADD ADD SWAP1 PUSH20 0xFFFFFFFFFFFFFFFFFFFFFFFFFFFFFFFFFFFFFFFF AND SWAP1 DUP2 PUSH20 0xFFFFFFFFFFFFFFFFFFFFFFFFFFFFFFFFFFFFFFFF AND DUP2 MSTORE POP POP PUSH1 0x4 PUSH1 0x0 SWAP1 SLOAD SWAP1 PUSH2 0x100 EXP SWAP1 DIV PUSH20 0xFFFFFFFFFFFFFFFFFFFFFFFFFFFFFFFFFFFFFFFF AND PUSH20 0xFFFFFFFFFFFFFFFFFFFFFFFFFFFFFFFFFFFFFFFF AND PUSH4 0xD06CA61F PUSH1 0x3 SLOAD DUP4 PUSH1 0x40 MLOAD DUP4 PUSH4 0xFFFFFFFF AND PUSH1 0xE0 SHL DUP2 MSTORE PUSH1 0x4 ADD PUSH2 0x4D8 SWAP3 SWAP2 SWAP1 PUSH2 0x1F1B JUMP JUMPDEST PUSH1 0x0 PUSH1 0x40 MLOAD DUP1 DUP4 SUB DUP2 DUP7 GAS STATICCALL ISZERO DUP1 ISZERO PUSH2 0x4F5 JUMPI RETURNDATASIZE PUSH1 0x0 DUP1 RETURNDATACOPY RETURNDATASIZE PUSH1 0x0 REVERT JUMPDEST POP POP POP POP PUSH1 0x40 MLOAD RETURNDATASIZE PUSH1 0x0 DUP3 RETURNDATACOPY RETURNDATASIZE PUSH1 0x1F NOT PUSH1 0x1F DUP3 ADD AND DUP3 ADD DUP1 PUSH1 0x40 MSTORE POP DUP2 ADD SWAP1 PUSH2 0x51E SWAP2 SWAP1 PUSH2 0x208A JUMP JUMPDEST PUSH1 0x2 DUP2 MLOAD DUP2 LT PUSH2 0x531 JUMPI PUSH2 0x530 PUSH2 0x1E2E JUMP JUMPDEST JUMPDEST PUSH1 0x20 MUL PUSH1 0x20 ADD ADD MLOAD SWAP2 POP POP SWAP2 SWAP1 POP JUMP JUMPDEST PUSH1 0x0 DUP1 PUSH1 0x0 DUP4 PUSH20 0xFFFFFFFFFFFFFFFFFFFFFFFFFFFFFFFFFFFFFFFF AND PUSH4 0xDFE1681 PUSH1 0x40 MLOAD DUP2 PUSH4 0xFFFFFFFF AND PUSH1 0xE0 SHL DUP2 MSTORE PUSH1 0x4 ADD PUSH1 0x20 PUSH1 0x40 MLOAD DUP1 DUP4 SUB DUP2 DUP7 GAS STATICCALL ISZERO DUP1 ISZERO PUSH2 0x591 JUMPI RETURNDATASIZE PUSH1 0x0 DUP1 RETURNDATACOPY RETURNDATASIZE PUSH1 0x0 REVERT JUMPDEST POP POP POP POP PUSH1 0x40 MLOAD RETURNDATASIZE PUSH1 0x1F NOT PUSH1 0x1F DUP3 ADD AND DUP3 ADD DUP1 PUSH1 0x40 MSTORE POP DUP2 ADD SWAP1 PUSH2 0x5B5 SWAP2 SWAP1 PUSH2 0x20E8 JUMP JUMPDEST PUSH20 0xFFFFFFFFFFFFFFFFFFFFFFFFFFFFFFFFFFFFFFFF AND PUSH1 0x1 PUSH1 0x0 SWAP1 SLOAD SWAP1 PUSH2 0x100 EXP SWAP1 DIV PUSH20 0xFFFFFFFFFFFFFFFFFFFFFFFFFFFFFFFFFFFFFFFF AND PUSH20 0xFFFFFFFFFFFFFFFFFFFFFFFFFFFFFFFFFFFFFFFF AND SUB PUSH2 0x780 JUMPI PUSH2 0x779 PUSH2 0x683 DUP6 PUSH20 0xFFFFFFFFFFFFFFFFFFFFFFFFFFFFFFFFFFFFFFFF AND PUSH4 0xDFE1681 PUSH1 0x40 MLOAD DUP2 PUSH4 0xFFFFFFFF AND PUSH1 0xE0 SHL DUP2 MSTORE PUSH1 0x4 ADD PUSH1 0x20 PUSH1 0x40 MLOAD DUP1 DUP4 SUB DUP2 DUP7 GAS STATICCALL ISZERO DUP1 ISZERO PUSH2 0x65A JUMPI RETURNDATASIZE PUSH1 0x0 DUP1 RETURNDATACOPY RETURNDATASIZE PUSH1 0x0 REVERT JUMPDEST POP POP POP POP PUSH1 0x40 MLOAD RETURNDATASIZE PUSH1 0x1F NOT PUSH1 0x1F DUP3 ADD AND DUP3 ADD DUP1 PUSH1 0x40 MSTORE POP DUP2 ADD SWAP1 PUSH2 0x67E SWAP2 SWAP1 PUSH2 0x20E8 JUMP JUMPDEST PUSH2 0xDE4 JUMP JUMPDEST DUP6 PUSH20 0xFFFFFFFFFFFFFFFFFFFFFFFFFFFFFFFFFFFFFFFF AND PUSH4 0xDFE1681 PUSH1 0x40 MLOAD DUP2 PUSH4 0xFFFFFFFF AND PUSH1 0xE0 SHL DUP2 MSTORE PUSH1 0x4 ADD PUSH1 0x20 PUSH1 0x40 MLOAD DUP1 DUP4 SUB DUP2 DUP7 GAS STATICCALL ISZERO DUP1 ISZERO PUSH2 0x6CE JUMPI RETURNDATASIZE PUSH1 0x0 DUP1 RETURNDATACOPY RETURNDATASIZE PUSH1 0x0 REVERT JUMPDEST POP POP POP POP PUSH1 0x40 MLOAD RETURNDATASIZE PUSH1 0x1F NOT PUSH1 0x1F DUP3 ADD AND DUP3 ADD DUP1 PUSH1 0x40 MSTORE POP DUP2 ADD SWAP1 PUSH2 0x6F2 SWAP2 SWAP1 PUSH2 0x20E8 JUMP JUMPDEST PUSH20 0xFFFFFFFFFFFFFFFFFFFFFFFFFFFFFFFFFFFFFFFF AND PUSH4 0x70A08231 DUP8 PUSH1 0x40 MLOAD DUP3 PUSH4 0xFFFFFFFF AND PUSH1 0xE0 SHL DUP2 MSTORE PUSH1 0x4 ADD PUSH2 0x72A SWAP2 SWAP1 PUSH2 0x1C7B JUMP JUMPDEST PUSH1 0x20 PUSH1 0x40 MLOAD DUP1 DUP4 SUB DUP2 DUP7 GAS STATICCALL ISZERO DUP1 ISZERO PUSH2 0x747 JUMPI RETURNDATASIZE PUSH1 0x0 DUP1 RETURNDATACOPY RETURNDATASIZE PUSH1 0x0 REVERT JUMPDEST POP POP POP POP PUSH1 0x40 MLOAD RETURNDATASIZE PUSH1 0x1F NOT PUSH1 0x1F DUP3 ADD AND DUP3 ADD DUP1 PUSH1 0x40 MSTORE POP DUP2 ADD SWAP1 PUSH2 0x76B SWAP2 SWAP1 PUSH2 0x2115 JUMP JUMPDEST PUSH2 0x1780 SWAP1 SWAP2 SWAP1 PUSH4 0xFFFFFFFF AND JUMP JUMPDEST SWAP2 POP PUSH2 0x8F3 JUMP JUMPDEST PUSH2 0x8F0 PUSH2 0x7FA DUP6 PUSH20 0xFFFFFFFFFFFFFFFFFFFFFFFFFFFFFFFFFFFFFFFF AND PUSH4 0xDFE1681 PUSH1 0x40 MLOAD DUP2 PUSH4 0xFFFFFFFF AND PUSH1 0xE0 SHL DUP2 MSTORE PUSH1 0x4 ADD PUSH1 0x20 PUSH1 0x40 MLOAD DUP1 DUP4 SUB DUP2 DUP7 GAS STATICCALL ISZERO DUP1 ISZERO PUSH2 0x7D1 JUMPI RETURNDATASIZE PUSH1 0x0 DUP1 RETURNDATACOPY RETURNDATASIZE PUSH1 0x0 REVERT JUMPDEST POP POP POP POP PUSH1 0x40 MLOAD RETURNDATASIZE PUSH1 0x1F NOT PUSH1 0x1F DUP3 ADD AND DUP3 ADD DUP1 PUSH1 0x40 MSTORE POP DUP2 ADD SWAP1 PUSH2 0x7F5 SWAP2 SWAP1 PUSH2 0x20E8 JUMP JUMPDEST PUSH2 0x2F9 JUMP JUMPDEST DUP6 PUSH20 0xFFFFFFFFFFFFFFFFFFFFFFFFFFFFFFFFFFFFFFFF AND PUSH4 0xDFE1681 PUSH1 0x40 MLOAD DUP2 PUSH4 0xFFFFFFFF AND PUSH1 0xE0 SHL DUP2 MSTORE PUSH1 0x4 ADD PUSH1 0x20 PUSH1 0x40 MLOAD DUP1 DUP4 SUB DUP2 DUP7 GAS STATICCALL ISZERO DUP1 ISZERO PUSH2 0x845 JUMPI RETURNDATASIZE PUSH1 0x0 DUP1 RETURNDATACOPY RETURNDATASIZE PUSH1 0x0 REVERT JUMPDEST POP POP POP POP PUSH1 0x40 MLOAD RETURNDATASIZE PUSH1 0x1F NOT PUSH1 0x1F DUP3 ADD AND DUP3 ADD DUP1 PUSH1 0x40 MSTORE POP DUP2 ADD SWAP1 PUSH2 0x869 SWAP2 SWAP1 PUSH2 0x20E8 JUMP JUMPDEST PUSH20 0xFFFFFFFFFFFFFFFFFFFFFFFFFFFFFFFFFFFFFFFF AND PUSH4 0x70A08231 DUP8 PUSH1 0x40 MLOAD DUP3 PUSH4 0xFFFFFFFF AND PUSH1 0xE0 SHL DUP2 MSTORE PUSH1 0x4 ADD PUSH2 0x8A1 SWAP2 SWAP1 PUSH2 0x1C7B JUMP JUMPDEST PUSH1 0x20 PUSH1 0x40 MLOAD DUP1 DUP4 SUB DUP2 DUP7 GAS STATICCALL ISZERO DUP1 ISZERO PUSH2 0x8BE JUMPI RETURNDATASIZE PUSH1 0x0 DUP1 RETURNDATACOPY RETURNDATASIZE PUSH1 0x0 REVERT JUMPDEST POP POP POP POP PUSH1 0x40 MLOAD RETURNDATASIZE PUSH1 0x1F NOT PUSH1 0x1F DUP3 ADD AND DUP3 ADD DUP1 PUSH1 0x40 MSTORE POP DUP2 ADD SWAP1 PUSH2 0x8E2 SWAP2 SWAP1 PUSH2 0x2115 JUMP JUMPDEST PUSH2 0x1780 SWAP1 SWAP2 SWAP1 PUSH4 0xFFFFFFFF AND JUMP JUMPDEST SWAP2 POP JUMPDEST DUP4 PUSH20 0xFFFFFFFFFFFFFFFFFFFFFFFFFFFFFFFFFFFFFFFF AND PUSH4 0xD21220A7 PUSH1 0x40 MLOAD DUP2 PUSH4 0xFFFFFFFF AND PUSH1 0xE0 SHL DUP2 MSTORE PUSH1 0x4 ADD PUSH1 0x20 PUSH1 0x40 MLOAD DUP1 DUP4 SUB DUP2 DUP7 GAS STATICCALL ISZERO DUP1 ISZERO PUSH2 0x93E JUMPI RETURNDATASIZE PUSH1 0x0 DUP1 RETURNDATACOPY RETURNDATASIZE PUSH1 0x0 REVERT JUMPDEST POP POP POP POP PUSH1 0x40 MLOAD RETURNDATASIZE PUSH1 0x1F NOT PUSH1 0x1F DUP3 ADD AND DUP3 ADD DUP1 PUSH1 0x40 MSTORE POP DUP2 ADD SWAP1 PUSH2 0x962 SWAP2 SWAP1 PUSH2 0x20E8 JUMP JUMPDEST PUSH20 0xFFFFFFFFFFFFFFFFFFFFFFFFFFFFFFFFFFFFFFFF AND PUSH1 0x1 PUSH1 0x0 SWAP1 SLOAD SWAP1 PUSH2 0x100 EXP SWAP1 DIV PUSH20 0xFFFFFFFFFFFFFFFFFFFFFFFFFFFFFFFFFFFFFFFF AND PUSH20 0xFFFFFFFFFFFFFFFFFFFFFFFFFFFFFFFFFFFFFFFF AND SUB PUSH2 0xB2D JUMPI PUSH2 0xB26 PUSH2 0xA30 DUP6 PUSH20 0xFFFFFFFFFFFFFFFFFFFFFFFFFFFFFFFFFFFFFFFF AND PUSH4 0xD21220A7 PUSH1 0x40 MLOAD DUP2 PUSH4 0xFFFFFFFF AND PUSH1 0xE0 SHL DUP2 MSTORE PUSH1 0x4 ADD PUSH1 0x20 PUSH1 0x40 MLOAD DUP1 DUP4 SUB DUP2 DUP7 GAS STATICCALL ISZERO DUP1 ISZERO PUSH2 0xA07 JUMPI RETURNDATASIZE PUSH1 0x0 DUP1 RETURNDATACOPY RETURNDATASIZE PUSH1 0x0 REVERT JUMPDEST POP POP POP POP PUSH1 0x40 MLOAD RETURNDATASIZE PUSH1 0x1F NOT PUSH1 0x1F DUP3 ADD AND DUP3 ADD DUP1 PUSH1 0x40 MSTORE POP DUP2 ADD SWAP1 PUSH2 0xA2B SWAP2 SWAP1 PUSH2 0x20E8 JUMP JUMPDEST PUSH2 0xDE4 JUMP JUMPDEST DUP6 PUSH20 0xFFFFFFFFFFFFFFFFFFFFFFFFFFFFFFFFFFFFFFFF AND PUSH4 0xD21220A7 PUSH1 0x40 MLOAD DUP2 PUSH4 0xFFFFFFFF AND PUSH1 0xE0 SHL DUP2 MSTORE PUSH1 0x4 ADD PUSH1 0x20 PUSH1 0x40 MLOAD DUP1 DUP4 SUB DUP2 DUP7 GAS STATICCALL ISZERO DUP1 ISZERO PUSH2 0xA7B JUMPI RETURNDATASIZE PUSH1 0x0 DUP1 RETURNDATACOPY RETURNDATASIZE PUSH1 0x0 REVERT JUMPDEST POP POP POP POP PUSH1 0x40 MLOAD RETURNDATASIZE PUSH1 0x1F NOT PUSH1 0x1F DUP3 ADD AND DUP3 ADD DUP1 PUSH1 0x40 MSTORE POP DUP2 ADD SWAP1 PUSH2 0xA9F SWAP2 SWAP1 PUSH2 0x20E8 JUMP JUMPDEST PUSH20 0xFFFFFFFFFFFFFFFFFFFFFFFFFFFFFFFFFFFFFFFF AND PUSH4 0x70A08231 DUP8 PUSH1 0x40 MLOAD DUP3 PUSH4 0xFFFFFFFF AND PUSH1 0xE0 SHL DUP2 MSTORE PUSH1 0x4 ADD PUSH2 0xAD7 SWAP2 SWAP1 PUSH2 0x1C7B JUMP JUMPDEST PUSH1 0x20 PUSH1 0x40 MLOAD DUP1 DUP4 SUB DUP2 DUP7 GAS STATICCALL ISZERO DUP1 ISZERO PUSH2 0xAF4 JUMPI RETURNDATASIZE PUSH1 0x0 DUP1 RETURNDATACOPY RETURNDATASIZE PUSH1 0x0 REVERT JUMPDEST POP POP POP POP PUSH1 0x40 MLOAD RETURNDATASIZE PUSH1 0x1F NOT PUSH1 0x1F DUP3 ADD AND DUP3 ADD DUP1 PUSH1 0x40 MSTORE POP DUP2 ADD SWAP1 PUSH2 0xB18 SWAP2 SWAP1 PUSH2 0x2115 JUMP JUMPDEST PUSH2 0x1780 SWAP1 SWAP2 SWAP1 PUSH4 0xFFFFFFFF AND JUMP JUMPDEST SWAP1 POP PUSH2 0xCA0 JUMP JUMPDEST PUSH2 0xC9D PUSH2 0xBA7 DUP6 PUSH20 0xFFFFFFFFFFFFFFFFFFFFFFFFFFFFFFFFFFFFFFFF AND PUSH4 0xD21220A7 PUSH1 0x40 MLOAD DUP2 PUSH4 0xFFFFFFFF AND PUSH1 0xE0 SHL DUP2 MSTORE PUSH1 0x4 ADD PUSH1 0x20 PUSH1 0x40 MLOAD DUP1 DUP4 SUB DUP2 DUP7 GAS STATICCALL ISZERO DUP1 ISZERO PUSH2 0xB7E JUMPI RETURNDATASIZE PUSH1 0x0 DUP1 RETURNDATACOPY RETURNDATASIZE PUSH1 0x0 REVERT JUMPDEST POP POP POP POP PUSH1 0x40 MLOAD RETURNDATASIZE PUSH1 0x1F NOT PUSH1 0x1F DUP3 ADD AND DUP3 ADD DUP1 PUSH1 0x40 MSTORE POP DUP2 ADD SWAP1 PUSH2 0xBA2 SWAP2 SWAP1 PUSH2 0x20E8 JUMP JUMPDEST PUSH2 0x2F9 JUMP JUMPDEST DUP6 PUSH20 0xFFFFFFFFFFFFFFFFFFFFFFFFFFFFFFFFFFFFFFFF AND PUSH4 0xD21220A7 PUSH1 0x40 MLOAD DUP2 PUSH4 0xFFFFFFFF AND PUSH1 0xE0 SHL DUP2 MSTORE PUSH1 0x4 ADD PUSH1 0x20 PUSH1 0x40 MLOAD DUP1 DUP4 SUB DUP2 DUP7 GAS STATICCALL ISZERO DUP1 ISZERO PUSH2 0xBF2 JUMPI RETURNDATASIZE PUSH1 0x0 DUP1 RETURNDATACOPY RETURNDATASIZE PUSH1 0x0 REVERT JUMPDEST POP POP POP POP PUSH1 0x40 MLOAD RETURNDATASIZE PUSH1 0x1F NOT PUSH1 0x1F DUP3 ADD AND DUP3 ADD DUP1 PUSH1 0x40 MSTORE POP DUP2 ADD SWAP1 PUSH2 0xC16 SWAP2 SWAP1 PUSH2 0x20E8 JUMP JUMPDEST PUSH20 0xFFFFFFFFFFFFFFFFFFFFFFFFFFFFFFFFFFFFFFFF AND PUSH4 0x70A08231 DUP8 PUSH1 0x40 MLOAD DUP3 PUSH4 0xFFFFFFFF AND PUSH1 0xE0 SHL DUP2 MSTORE PUSH1 0x4 ADD PUSH2 0xC4E SWAP2 SWAP1 PUSH2 0x1C7B JUMP JUMPDEST PUSH1 0x20 PUSH1 0x40 MLOAD DUP1 DUP4 SUB DUP2 DUP7 GAS STATICCALL ISZERO DUP1 ISZERO PUSH2 0xC6B JUMPI RETURNDATASIZE PUSH1 0x0 DUP1 RETURNDATACOPY RETURNDATASIZE PUSH1 0x0 REVERT JUMPDEST POP POP POP POP PUSH1 0x40 MLOAD RETURNDATASIZE PUSH1 0x1F NOT PUSH1 0x1F DUP3 ADD AND DUP3 ADD DUP1 PUSH1 0x40 MSTORE POP DUP2 ADD SWAP1 PUSH2 0xC8F SWAP2 SWAP1 PUSH2 0x2115 JUMP JUMPDEST PUSH2 0x1780 SWAP1 SWAP2 SWAP1 PUSH4 0xFFFFFFFF AND JUMP JUMPDEST SWAP1 POP JUMPDEST PUSH2 0xD33 DUP5 PUSH20 0xFFFFFFFFFFFFFFFFFFFFFFFFFFFFFFFFFFFFFFFF AND PUSH4 0x18160DDD PUSH1 0x40 MLOAD DUP2 PUSH4 0xFFFFFFFF AND PUSH1 0xE0 SHL DUP2 MSTORE PUSH1 0x4 ADD PUSH1 0x20 PUSH1 0x40 MLOAD DUP1 DUP4 SUB DUP2 DUP7 GAS STATICCALL ISZERO DUP1 ISZERO PUSH2 0xCEE JUMPI RETURNDATASIZE PUSH1 0x0 DUP1 RETURNDATACOPY RETURNDATASIZE PUSH1 0x0 REVERT JUMPDEST POP POP POP POP PUSH1 0x40 MLOAD RETURNDATASIZE PUSH1 0x1F NOT PUSH1 0x1F DUP3 ADD AND DUP3 ADD DUP1 PUSH1 0x40 MSTORE POP DUP2 ADD SWAP1 PUSH2 0xD12 SWAP2 SWAP1 PUSH2 0x2115 JUMP JUMPDEST PUSH2 0xD25 DUP4 DUP6 PUSH2 0x17FA SWAP1 SWAP2 SWAP1 PUSH4 0xFFFFFFFF AND JUMP JUMPDEST PUSH2 0x1858 SWAP1 SWAP2 SWAP1 PUSH4 0xFFFFFFFF AND JUMP JUMPDEST SWAP3 POP POP POP SWAP2 SWAP1 POP JUMP JUMPDEST PUSH1 0x0 DUP2 PUSH20 0xFFFFFFFFFFFFFFFFFFFFFFFFFFFFFFFFFFFFFFFF AND PUSH4 0xDFE1681 PUSH1 0x40 MLOAD DUP2 PUSH4 0xFFFFFFFF AND PUSH1 0xE0 SHL DUP2 MSTORE PUSH1 0x4 ADD PUSH1 0x20 PUSH1 0x40 MLOAD DUP1 DUP4 SUB DUP2 DUP7 GAS STATICCALL SWAP3 POP POP POP DUP1 ISZERO PUSH2 0xDA6 JUMPI POP PUSH1 0x40 MLOAD RETURNDATASIZE PUSH1 0x1F NOT PUSH1 0x1F DUP3 ADD AND DUP3 ADD DUP1 PUSH1 0x40 MSTORE POP DUP2 ADD SWAP1 PUSH2 0xDA3 SWAP2 SWAP1 PUSH2 0x20E8 JUMP JUMPDEST PUSH1 0x1 JUMPDEST PUSH2 0xDB3 JUMPI PUSH1 0x0 SWAP1 POP PUSH2 0xDB9 JUMP JUMPDEST POP PUSH1 0x1 SWAP1 POP JUMPDEST SWAP2 SWAP1 POP JUMP JUMPDEST PUSH1 0x4 PUSH1 0x0 SWAP1 SLOAD SWAP1 PUSH2 0x100 EXP SWAP1 DIV PUSH20 0xFFFFFFFFFFFFFFFFFFFFFFFFFFFFFFFFFFFFFFFF AND DUP2 JUMP JUMPDEST PUSH1 0x0 DUP1 PUSH1 0x2 PUSH8 0xFFFFFFFFFFFFFFFF DUP2 GT ISZERO PUSH2 0xE02 JUMPI PUSH2 0xE01 PUSH2 0x1DFF JUMP JUMPDEST JUMPDEST PUSH1 0x40 MLOAD SWAP1 DUP1 DUP3 MSTORE DUP1 PUSH1 0x20 MUL PUSH1 0x20 ADD DUP3 ADD PUSH1 0x40 MSTORE DUP1 ISZERO PUSH2 0xE30 JUMPI DUP2 PUSH1 0x20 ADD PUSH1 0x20 DUP3 MUL DUP1 CALLDATASIZE DUP4 CALLDATACOPY DUP1 DUP3 ADD SWAP2 POP POP SWAP1 POP JUMPDEST POP SWAP1 POP DUP3 DUP2 PUSH1 0x0 DUP2 MLOAD DUP2 LT PUSH2 0xE48 JUMPI PUSH2 0xE47 PUSH2 0x1E2E JUMP JUMPDEST JUMPDEST PUSH1 0x20 MUL PUSH1 0x20 ADD ADD SWAP1 PUSH20 0xFFFFFFFFFFFFFFFFFFFFFFFFFFFFFFFFFFFFFFFF AND SWAP1 DUP2 PUSH20 0xFFFFFFFFFFFFFFFFFFFFFFFFFFFFFFFFFFFFFFFF AND DUP2 MSTORE POP POP PUSH1 0x2 PUSH1 0x0 SWAP1 SLOAD SWAP1 PUSH2 0x100 EXP SWAP1 DIV PUSH20 0xFFFFFFFFFFFFFFFFFFFFFFFFFFFFFFFFFFFFFFFF AND DUP2 PUSH1 0x1 DUP2 MLOAD DUP2 LT PUSH2 0xEB9 JUMPI PUSH2 0xEB8 PUSH2 0x1E2E JUMP JUMPDEST JUMPDEST PUSH1 0x20 MUL PUSH1 0x20 ADD ADD SWAP1 PUSH20 0xFFFFFFFFFFFFFFFFFFFFFFFFFFFFFFFFFFFFFFFF AND SWAP1 DUP2 PUSH20 0xFFFFFFFFFFFFFFFFFFFFFFFFFFFFFFFFFFFFFFFF AND DUP2 MSTORE POP POP PUSH1 0x4 PUSH1 0x0 SWAP1 SLOAD SWAP1 PUSH2 0x100 EXP SWAP1 DIV PUSH20 0xFFFFFFFFFFFFFFFFFFFFFFFFFFFFFFFFFFFFFFFF AND PUSH20 0xFFFFFFFFFFFFFFFFFFFFFFFFFFFFFFFFFFFFFFFF AND PUSH4 0xD06CA61F PUSH1 0x3 SLOAD DUP4 PUSH1 0x40 MLOAD DUP4 PUSH4 0xFFFFFFFF AND PUSH1 0xE0 SHL DUP2 MSTORE PUSH1 0x4 ADD PUSH2 0xF52 SWAP3 SWAP2 SWAP1 PUSH2 0x1F1B JUMP JUMPDEST PUSH1 0x0 PUSH1 0x40 MLOAD DUP1 DUP4 SUB DUP2 DUP7 GAS STATICCALL ISZERO DUP1 ISZERO PUSH2 0xF6F JUMPI RETURNDATASIZE PUSH1 0x0 DUP1 RETURNDATACOPY RETURNDATASIZE PUSH1 0x0 REVERT JUMPDEST POP POP POP POP PUSH1 0x40 MLOAD RETURNDATASIZE PUSH1 0x0 DUP3 RETURNDATACOPY RETURNDATASIZE PUSH1 0x1F NOT PUSH1 0x1F DUP3 ADD AND DUP3 ADD DUP1 PUSH1 0x40 MSTORE POP DUP2 ADD SWAP1 PUSH2 0xF98 SWAP2 SWAP1 PUSH2 0x208A JUMP JUMPDEST PUSH1 0x1 DUP2 MLOAD DUP2 LT PUSH2 0xFAB JUMPI PUSH2 0xFAA PUSH2 0x1E2E JUMP JUMPDEST JUMPDEST PUSH1 0x20 MUL PUSH1 0x20 ADD ADD MLOAD SWAP2 POP POP SWAP2 SWAP1 POP JUMP JUMPDEST PUSH1 0x2 PUSH1 0x0 SWAP1 SLOAD SWAP1 PUSH2 0x100 EXP SWAP1 DIV PUSH20 0xFFFFFFFFFFFFFFFFFFFFFFFFFFFFFFFFFFFFFFFF AND DUP2 JUMP JUMPDEST PUSH2 0xFE9 PUSH2 0x18A2 JUMP JUMPDEST PUSH20 0xFFFFFFFFFFFFFFFFFFFFFFFFFFFFFFFFFFFFFFFF AND PUSH2 0x1007 PUSH2 0x1199 JUMP JUMPDEST PUSH20 0xFFFFFFFFFFFFFFFFFFFFFFFFFFFFFFFFFFFFFFFF AND EQ PUSH2 0x105D JUMPI PUSH1 0x40 MLOAD PUSH32 0x8C379A000000000000000000000000000000000000000000000000000000000 DUP2 MSTORE PUSH1 0x4 ADD PUSH2 0x1054 SWAP1 PUSH2 0x219F JUMP JUMPDEST PUSH1 0x40 MLOAD DUP1 SWAP2 SUB SWAP1 REVERT JUMPDEST PUSH2 0x1067 PUSH1 0x0 PUSH2 0x18AA JUMP JUMPDEST JUMP JUMPDEST PUSH1 0x0 PUSH2 0x1073 PUSH2 0x19D1 JUMP JUMPDEST PUSH1 0x0 DUP1 PUSH1 0x0 SWAP1 POP JUMPDEST DUP5 PUSH20 0xFFFFFFFFFFFFFFFFFFFFFFFFFFFFFFFFFFFFFFFF AND PUSH4 0x81E3EDA PUSH1 0x40 MLOAD DUP2 PUSH4 0xFFFFFFFF AND PUSH1 0xE0 SHL DUP2 MSTORE PUSH1 0x4 ADD PUSH1 0x20 PUSH1 0x40 MLOAD DUP1 DUP4 SUB DUP2 DUP7 GAS STATICCALL ISZERO DUP1 ISZERO PUSH2 0x10C6 JUMPI RETURNDATASIZE PUSH1 0x0 DUP1 RETURNDATACOPY RETURNDATASIZE PUSH1 0x0 REVERT JUMPDEST POP POP POP POP PUSH1 0x40 MLOAD RETURNDATASIZE PUSH1 0x1F NOT PUSH1 0x1F DUP3 ADD AND DUP3 ADD DUP1 PUSH1 0x40 MSTORE POP DUP2 ADD SWAP1 PUSH2 0x10EA SWAP2 SWAP1 PUSH2 0x2115 JUMP JUMPDEST DUP2 LT ISZERO PUSH2 0x1191 JUMPI DUP5 PUSH20 0xFFFFFFFFFFFFFFFFFFFFFFFFFFFFFFFFFFFFFFFF AND PUSH4 0x1526FE27 DUP3 PUSH1 0x40 MLOAD DUP3 PUSH4 0xFFFFFFFF AND PUSH1 0xE0 SHL DUP2 MSTORE PUSH1 0x4 ADD PUSH2 0x112A SWAP2 SWAP1 PUSH2 0x1B01 JUMP JUMPDEST PUSH1 0xC0 PUSH1 0x40 MLOAD DUP1 DUP4 SUB DUP2 DUP7 GAS STATICCALL ISZERO DUP1 ISZERO PUSH2 0x1147 JUMPI RETURNDATASIZE PUSH1 0x0 DUP1 RETURNDATACOPY RETURNDATASIZE PUSH1 0x0 REVERT JUMPDEST POP POP POP POP PUSH1 0x40 MLOAD RETURNDATASIZE PUSH1 0x1F NOT PUSH1 0x1F DUP3 ADD AND DUP3 ADD DUP1 PUSH1 0x40 MSTORE POP DUP2 ADD SWAP1 PUSH2 0x116B SWAP2 SWAP1 PUSH2 0x22A2 JUMP JUMPDEST SWAP3 POP PUSH1 0x1 PUSH2 0x117C DUP5 PUSH1 0x0 ADD MLOAD PUSH2 0xD3C JUMP JUMPDEST POP POP DUP1 DUP1 PUSH2 0x1189 SWAP1 PUSH2 0x22FE JUMP JUMPDEST SWAP2 POP POP PUSH2 0x107B JUMP JUMPDEST POP POP POP SWAP2 SWAP1 POP JUMP JUMPDEST PUSH1 0x0 DUP1 PUSH1 0x0 SWAP1 SLOAD SWAP1 PUSH2 0x100 EXP SWAP1 DIV PUSH20 0xFFFFFFFFFFFFFFFFFFFFFFFFFFFFFFFFFFFFFFFF AND SWAP1 POP SWAP1 JUMP JUMPDEST PUSH1 0x1 PUSH1 0x0 SWAP1 SLOAD SWAP1 PUSH2 0x100 EXP SWAP1 DIV PUSH20 0xFFFFFFFFFFFFFFFFFFFFFFFFFFFFFFFFFFFFFFFF AND DUP2 JUMP JUMPDEST PUSH2 0x11F0 PUSH2 0x18A2 JUMP JUMPDEST PUSH20 0xFFFFFFFFFFFFFFFFFFFFFFFFFFFFFFFFFFFFFFFF AND PUSH2 0x120E PUSH2 0x1199 JUMP JUMPDEST PUSH20 0xFFFFFFFFFFFFFFFFFFFFFFFFFFFFFFFFFFFFFFFF AND EQ PUSH2 0x1264 JUMPI PUSH1 0x40 MLOAD PUSH32 0x8C379A000000000000000000000000000000000000000000000000000000000 DUP2 MSTORE PUSH1 0x4 ADD PUSH2 0x125B SWAP1 PUSH2 0x219F JUMP JUMPDEST PUSH1 0x40 MLOAD DUP1 SWAP2 SUB SWAP1 REVERT JUMPDEST DUP1 PUSH1 0x4 PUSH1 0x0 PUSH2 0x100 EXP DUP2 SLOAD DUP2 PUSH20 0xFFFFFFFFFFFFFFFFFFFFFFFFFFFFFFFFFFFFFFFF MUL NOT AND SWAP1 DUP4 PUSH20 0xFFFFFFFFFFFFFFFFFFFFFFFFFFFFFFFFFFFFFFFF AND MUL OR SWAP1 SSTORE POP POP JUMP JUMPDEST PUSH1 0x0 DUP1 DUP3 PUSH20 0xFFFFFFFFFFFFFFFFFFFFFFFFFFFFFFFFFFFFFFFF AND PUSH4 0x6A6D964E DUP8 PUSH1 0x40 MLOAD DUP3 PUSH4 0xFFFFFFFF AND PUSH1 0xE0 SHL DUP2 MSTORE PUSH1 0x4 ADD PUSH2 0x12E4 SWAP2 SWAP1 PUSH2 0x1B01 JUMP JUMPDEST PUSH1 0x20 PUSH1 0x40 MLOAD DUP1 DUP4 SUB DUP2 DUP7 GAS STATICCALL ISZERO DUP1 ISZERO PUSH2 0x1301 JUMPI RETURNDATASIZE PUSH1 0x0 DUP1 RETURNDATACOPY RETURNDATASIZE PUSH1 0x0 REVERT JUMPDEST POP POP POP POP PUSH1 0x40 MLOAD RETURNDATASIZE PUSH1 0x1F NOT PUSH1 0x1F DUP3 ADD AND DUP3 ADD DUP1 PUSH1 0x40 MSTORE POP DUP2 ADD SWAP1 PUSH2 0x1325 SWAP2 SWAP1 PUSH2 0x2115 JUMP JUMPDEST SWAP1 POP PUSH1 0x0 PUSH1 0x1 DUP6 SUB PUSH2 0x1341 JUMPI PUSH2 0x133A DUP7 PUSH2 0x541 JUMP JUMPDEST SWAP1 POP PUSH2 0x13BC JUMP JUMPDEST PUSH1 0x0 DUP6 SUB PUSH2 0x13BB JUMPI DUP6 PUSH20 0xFFFFFFFFFFFFFFFFFFFFFFFFFFFFFFFFFFFFFFFF AND PUSH1 0x1 PUSH1 0x0 SWAP1 SLOAD SWAP1 PUSH2 0x100 EXP SWAP1 DIV PUSH20 0xFFFFFFFFFFFFFFFFFFFFFFFFFFFFFFFFFFFFFFFF AND PUSH20 0xFFFFFFFFFFFFFFFFFFFFFFFFFFFFFFFFFFFFFFFF AND SUB PUSH2 0x13AE JUMPI PUSH2 0x13A7 DUP7 PUSH2 0xDE4 JUMP JUMPDEST SWAP1 POP PUSH2 0x13BA JUMP JUMPDEST PUSH2 0x13B7 DUP7 PUSH2 0x2F9 JUMP JUMPDEST SWAP1 POP JUMPDEST JUMPDEST JUMPDEST PUSH2 0x13DC PUSH1 0x3 SLOAD DUP3 DUP5 PUSH2 0x13CE SWAP2 SWAP1 PUSH2 0x2346 JUMP JUMPDEST PUSH2 0x1858 SWAP1 SWAP2 SWAP1 PUSH4 0xFFFFFFFF AND JUMP JUMPDEST SWAP3 POP POP POP SWAP5 SWAP4 POP POP POP POP JUMP JUMPDEST PUSH1 0x0 DUP1 DUP3 PUSH20 0xFFFFFFFFFFFFFFFFFFFFFFFFFFFFFFFFFFFFFFFF AND PUSH4 0x1526FE27 DUP8 PUSH1 0x40 MLOAD DUP3 PUSH4 0xFFFFFFFF AND PUSH1 0xE0 SHL DUP2 MSTORE PUSH1 0x4 ADD PUSH2 0x1424 SWAP2 SWAP1 PUSH2 0x1B01 JUMP JUMPDEST PUSH1 0xC0 PUSH1 0x40 MLOAD DUP1 DUP4 SUB DUP2 DUP7 GAS STATICCALL ISZERO DUP1 ISZERO PUSH2 0x1441 JUMPI RETURNDATASIZE PUSH1 0x0 DUP1 RETURNDATACOPY RETURNDATASIZE PUSH1 0x0 REVERT JUMPDEST POP POP POP POP PUSH1 0x40 MLOAD RETURNDATASIZE PUSH1 0x1F NOT PUSH1 0x1F DUP3 ADD AND DUP3 ADD DUP1 PUSH1 0x40 MSTORE POP DUP2 ADD SWAP1 PUSH2 0x1465 SWAP2 SWAP1 PUSH2 0x22A2 JUMP JUMPDEST SWAP1 POP PUSH1 0x0 PUSH2 0x1502 DUP5 PUSH20 0xFFFFFFFFFFFFFFFFFFFFFFFFFFFFFFFFFFFFFFFF AND PUSH4 0x17CAF6F1 PUSH1 0x40 MLOAD DUP2 PUSH4 0xFFFFFFFF AND PUSH1 0xE0 SHL DUP2 MSTORE PUSH1 0x4 ADD PUSH1 0x20 PUSH1 0x40 MLOAD DUP1 DUP4 SUB DUP2 DUP7 GAS STATICCALL ISZERO DUP1 ISZERO PUSH2 0x14B7 JUMPI RETURNDATASIZE PUSH1 0x0 DUP1 RETURNDATACOPY RETURNDATASIZE PUSH1 0x0 REVERT JUMPDEST POP POP POP POP PUSH1 0x40 MLOAD RETURNDATASIZE PUSH1 0x1F NOT PUSH1 0x1F DUP3 ADD AND DUP3 ADD DUP1 PUSH1 0x40 MSTORE POP DUP2 ADD SWAP1 PUSH2 0x14DB SWAP2 SWAP1 PUSH2 0x2115 JUMP JUMPDEST PUSH2 0x14F4 PUSH1 0x3 SLOAD DUP6 PUSH1 0x20 ADD MLOAD PUSH2 0x1780 SWAP1 SWAP2 SWAP1 PUSH4 0xFFFFFFFF AND JUMP JUMPDEST PUSH2 0x1858 SWAP1 SWAP2 SWAP1 PUSH4 0xFFFFFFFF AND JUMP JUMPDEST SWAP1 POP PUSH1 0x0 PUSH2 0x157D DUP6 PUSH20 0xFFFFFFFFFFFFFFFFFFFFFFFFFFFFFFFFFFFFFFFF AND PUSH4 0x141AA0BA PUSH1 0x40 MLOAD DUP2 PUSH4 0xFFFFFFFF AND PUSH1 0xE0 SHL DUP2 MSTORE PUSH1 0x4 ADD PUSH1 0x20 PUSH1 0x40 MLOAD DUP1 DUP4 SUB DUP2 DUP7 GAS STATICCALL ISZERO DUP1 ISZERO PUSH2 0x1554 JUMPI RETURNDATASIZE PUSH1 0x0 DUP1 RETURNDATACOPY RETURNDATASIZE PUSH1 0x0 REVERT JUMPDEST POP POP POP POP PUSH1 0x40 MLOAD RETURNDATASIZE PUSH1 0x1F NOT PUSH1 0x1F DUP3 ADD AND DUP3 ADD DUP1 PUSH1 0x40 MSTORE POP DUP2 ADD SWAP1 PUSH2 0x1578 SWAP2 SWAP1 PUSH2 0x23B5 JUMP JUMPDEST PUSH2 0x2F9 JUMP JUMPDEST SWAP1 POP PUSH1 0x0 PUSH2 0x1604 DUP7 PUSH20 0xFFFFFFFFFFFFFFFFFFFFFFFFFFFFFFFFFFFFFFFF AND PUSH4 0xA1EEF821 PUSH1 0x40 MLOAD DUP2 PUSH4 0xFFFFFFFF AND PUSH1 0xE0 SHL DUP2 MSTORE PUSH1 0x4 ADD PUSH1 0x20 PUSH1 0x40 MLOAD DUP1 DUP4 SUB DUP2 DUP7 GAS STATICCALL ISZERO DUP1 ISZERO PUSH2 0x15CF JUMPI RETURNDATASIZE PUSH1 0x0 DUP1 RETURNDATACOPY RETURNDATASIZE PUSH1 0x0 REVERT JUMPDEST POP POP POP POP PUSH1 0x40 MLOAD RETURNDATASIZE PUSH1 0x1F NOT PUSH1 0x1F DUP3 ADD AND DUP3 ADD DUP1 PUSH1 0x40 MSTORE POP DUP2 ADD SWAP1 PUSH2 0x15F3 SWAP2 SWAP1 PUSH2 0x2115 JUMP JUMPDEST PUSH1 0x5 SLOAD PUSH2 0x1780 SWAP1 SWAP2 SWAP1 PUSH4 0xFFFFFFFF AND JUMP JUMPDEST SWAP1 POP PUSH1 0x0 PUSH2 0x162F PUSH1 0x3 SLOAD PUSH2 0x1621 DUP7 DUP6 PUSH2 0x1780 SWAP1 SWAP2 SWAP1 PUSH4 0xFFFFFFFF AND JUMP JUMPDEST PUSH2 0x1858 SWAP1 SWAP2 SWAP1 PUSH4 0xFFFFFFFF AND JUMP JUMPDEST SWAP1 POP PUSH1 0x0 PUSH2 0x163F DUP12 DUP12 DUP12 DUP12 PUSH2 0x12A8 JUMP JUMPDEST SWAP1 POP PUSH2 0x1679 PUSH1 0x64 PUSH2 0x166B DUP4 PUSH2 0x165D DUP9 DUP8 PUSH2 0x1780 SWAP1 SWAP2 SWAP1 PUSH4 0xFFFFFFFF AND JUMP JUMPDEST PUSH2 0x1858 SWAP1 SWAP2 SWAP1 PUSH4 0xFFFFFFFF AND JUMP JUMPDEST PUSH2 0x1780 SWAP1 SWAP2 SWAP1 PUSH4 0xFFFFFFFF AND JUMP JUMPDEST SWAP7 POP POP POP POP POP POP POP SWAP5 SWAP4 POP POP POP POP JUMP JUMPDEST PUSH2 0x1691 PUSH2 0x18A2 JUMP JUMPDEST PUSH20 0xFFFFFFFFFFFFFFFFFFFFFFFFFFFFFFFFFFFFFFFF AND PUSH2 0x16AF PUSH2 0x1199 JUMP JUMPDEST PUSH20 0xFFFFFFFFFFFFFFFFFFFFFFFFFFFFFFFFFFFFFFFF AND EQ PUSH2 0x1705 JUMPI PUSH1 0x40 MLOAD PUSH32 0x8C379A000000000000000000000000000000000000000000000000000000000 DUP2 MSTORE PUSH1 0x4 ADD PUSH2 0x16FC SWAP1 PUSH2 0x219F JUMP JUMPDEST PUSH1 0x40 MLOAD DUP1 SWAP2 SUB SWAP1 REVERT JUMPDEST PUSH1 0x0 PUSH20 0xFFFFFFFFFFFFFFFFFFFFFFFFFFFFFFFFFFFFFFFF AND DUP2 PUSH20 0xFFFFFFFFFFFFFFFFFFFFFFFFFFFFFFFFFFFFFFFF AND SUB PUSH2 0x1774 JUMPI PUSH1 0x40 MLOAD PUSH32 0x8C379A000000000000000000000000000000000000000000000000000000000 DUP2 MSTORE PUSH1 0x4 ADD PUSH2 0x176B SWAP1 PUSH2 0x2454 JUMP JUMPDEST PUSH1 0x40 MLOAD DUP1 SWAP2 SUB SWAP1 REVERT JUMPDEST PUSH2 0x177D DUP2 PUSH2 0x18AA JUMP JUMPDEST POP JUMP JUMPDEST PUSH1 0x0 DUP1 DUP4 SUB PUSH2 0x1792 JUMPI PUSH1 0x0 SWAP1 POP PUSH2 0x17F4 JUMP JUMPDEST PUSH1 0x0 DUP3 DUP5 PUSH2 0x17A0 SWAP2 SWAP1 PUSH2 0x2346 JUMP JUMPDEST SWAP1 POP DUP3 DUP5 DUP3 PUSH2 0x17AF SWAP2 SWAP1 PUSH2 0x24A3 JUMP JUMPDEST EQ PUSH2 0x17EF JUMPI PUSH1 0x40 MLOAD PUSH32 0x8C379A000000000000000000000000000000000000000000000000000000000 DUP2 MSTORE PUSH1 0x4 ADD PUSH2 0x17E6 SWAP1 PUSH2 0x2546 JUMP JUMPDEST PUSH1 0x40 MLOAD DUP1 SWAP2 SUB SWAP1 REVERT JUMPDEST DUP1 SWAP2 POP POP JUMPDEST SWAP3 SWAP2 POP POP JUMP JUMPDEST PUSH1 0x0 DUP1 DUP3 DUP5 PUSH2 0x1809 SWAP2 SWAP1 PUSH2 0x2566 JUMP JUMPDEST SWAP1 POP DUP4 DUP2 LT ISZERO PUSH2 0x184E JUMPI PUSH1 0x40 MLOAD PUSH32 0x8C379A000000000000000000000000000000000000000000000000000000000 DUP2 MSTORE PUSH1 0x4 ADD PUSH2 0x1845 SWAP1 PUSH2 0x2608 JUMP JUMPDEST PUSH1 0x40 MLOAD DUP1 SWAP2 SUB SWAP1 REVERT JUMPDEST DUP1 SWAP2 POP POP SWAP3 SWAP2 POP POP JUMP JUMPDEST PUSH1 0x0 PUSH2 0x189A DUP4 DUP4 PUSH1 0x40 MLOAD DUP1 PUSH1 0x40 ADD PUSH1 0x40 MSTORE DUP1 PUSH1 0x1A DUP2 MSTORE PUSH1 0x20 ADD PUSH32 0x536166654D6174683A206469766973696F6E206279207A65726F000000000000 DUP2 MSTORE POP PUSH2 0x196E JUMP JUMPDEST SWAP1 POP SWAP3 SWAP2 POP POP JUMP JUMPDEST PUSH1 0x0 CALLER SWAP1 POP SWAP1 JUMP JUMPDEST PUSH1 0x0 DUP1 PUSH1 0x0 SWAP1 SLOAD SWAP1 PUSH2 0x100 EXP SWAP1 DIV PUSH20 0xFFFFFFFFFFFFFFFFFFFFFFFFFFFFFFFFFFFFFFFF AND SWAP1 POP DUP2 PUSH1 0x0 DUP1 PUSH2 0x100 EXP DUP2 SLOAD DUP2 PUSH20 0xFFFFFFFFFFFFFFFFFFFFFFFFFFFFFFFFFFFFFFFF MUL NOT AND SWAP1 DUP4 PUSH20 0xFFFFFFFFFFFFFFFFFFFFFFFFFFFFFFFFFFFFFFFF AND MUL OR SWAP1 SSTORE POP DUP2 PUSH20 0xFFFFFFFFFFFFFFFFFFFFFFFFFFFFFFFFFFFFFFFF AND DUP2 PUSH20 0xFFFFFFFFFFFFFFFFFFFFFFFFFFFFFFFFFFFFFFFF AND PUSH32 0x8BE0079C531659141344CD1FD0A4F28419497F9722A3DAAFE3B4186F6B6457E0 PUSH1 0x40 MLOAD PUSH1 0x40 MLOAD DUP1 SWAP2 SUB SWAP1 LOG3 POP POP JUMP JUMPDEST PUSH1 0x0 DUP1 DUP4 GT DUP3 SWAP1 PUSH2 0x19B5 JUMPI PUSH1 0x40 MLOAD PUSH32 0x8C379A000000000000000000000000000000000000000000000000000000000 DUP2 MSTORE PUSH1 0x4 ADD PUSH2 0x19AC SWAP2 SWAP1 PUSH2 0x269F JUMP JUMPDEST PUSH1 0x40 MLOAD DUP1 SWAP2 SUB SWAP1 REVERT JUMPDEST POP PUSH1 0x0 DUP4 DUP6 PUSH2 0x19C4 SWAP2 SWAP1 PUSH2 0x24A3 JUMP JUMPDEST SWAP1 POP DUP1 SWAP2 POP POP SWAP4 SWAP3 POP POP POP JUMP JUMPDEST PUSH1 0x40 MLOAD DUP1 PUSH1 0xC0 ADD PUSH1 0x40 MSTORE DUP1 PUSH1 0x0 PUSH20 0xFFFFFFFFFFFFFFFFFFFFFFFFFFFFFFFFFFFFFFFF AND DUP2 MSTORE PUSH1 0x20 ADD PUSH1 0x0 DUP2 MSTORE PUSH1 0x20 ADD PUSH1 0x0 DUP2 MSTORE PUSH1 0x20 ADD PUSH1 0x0 DUP2 MSTORE PUSH1 0x20 ADD PUSH1 0x0 PUSH20 0xFFFFFFFFFFFFFFFFFFFFFFFFFFFFFFFFFFFFFFFF AND DUP2 MSTORE PUSH1 0x20 ADD PUSH1 0x0 PUSH20 0xFFFFFFFFFFFFFFFFFFFFFFFFFFFFFFFFFFFFFFFF AND DUP2 MSTORE POP SWAP1 JUMP JUMPDEST PUSH1 0x0 PUSH1 0x40 MLOAD SWAP1 POP SWAP1 JUMP JUMPDEST PUSH1 0x0 DUP1 REVERT JUMPDEST PUSH1 0x0 DUP1 REVERT JUMPDEST PUSH1 0x0 PUSH20 0xFFFFFFFFFFFFFFFFFFFFFFFFFFFFFFFFFFFFFFFF DUP3 AND SWAP1 POP SWAP2 SWAP1 POP JUMP JUMPDEST PUSH1 0x0 PUSH2 0x1A88 DUP3 PUSH2 0x1A5D JUMP JUMPDEST SWAP1 POP SWAP2 SWAP1 POP JUMP JUMPDEST PUSH2 0x1A98 DUP2 PUSH2 0x1A7D JUMP JUMPDEST DUP2 EQ PUSH2 0x1AA3 JUMPI PUSH1 0x0 DUP1 REVERT JUMPDEST POP JUMP JUMPDEST PUSH1 0x0 DUP2 CALLDATALOAD SWAP1 POP PUSH2 0x1AB5 DUP2 PUSH2 0x1A8F JUMP JUMPDEST SWAP3 SWAP2 POP POP JUMP JUMPDEST PUSH1 0x0 PUSH1 0x20 DUP3 DUP5 SUB SLT ISZERO PUSH2 0x1AD1 JUMPI PUSH2 0x1AD0 PUSH2 0x1A53 JUMP JUMPDEST JUMPDEST PUSH1 0x0 PUSH2 0x1ADF DUP5 DUP3 DUP6 ADD PUSH2 0x1AA6 JUMP JUMPDEST SWAP2 POP POP SWAP3 SWAP2 POP POP JUMP JUMPDEST PUSH1 0x0 DUP2 SWAP1 POP SWAP2 SWAP1 POP JUMP JUMPDEST PUSH2 0x1AFB DUP2 PUSH2 0x1AE8 JUMP JUMPDEST DUP3 MSTORE POP POP JUMP JUMPDEST PUSH1 0x0 PUSH1 0x20 DUP3 ADD SWAP1 POP PUSH2 0x1B16 PUSH1 0x0 DUP4 ADD DUP5 PUSH2 0x1AF2 JUMP JUMPDEST SWAP3 SWAP2 POP POP JUMP JUMPDEST PUSH1 0x0 PUSH2 0x1B27 DUP3 PUSH2 0x1A7D JUMP JUMPDEST SWAP1 POP SWAP2 SWAP1 POP JUMP JUMPDEST PUSH2 0x1B37 DUP2 PUSH2 0x1B1C JUMP JUMPDEST DUP2 EQ PUSH2 0x1B42 JUMPI PUSH1 0x0 DUP1 REVERT JUMPDEST POP JUMP JUMPDEST PUSH1 0x0 DUP2 CALLDATALOAD SWAP1 POP PUSH2 0x1B54 DUP2 PUSH2 0x1B2E JUMP JUMPDEST SWAP3 SWAP2 POP POP JUMP JUMPDEST PUSH1 0x0 PUSH1 0x20 DUP3 DUP5 SUB SLT ISZERO PUSH2 0x1B70 JUMPI PUSH2 0x1B6F PUSH2 0x1A53 JUMP JUMPDEST JUMPDEST PUSH1 0x0 PUSH2 0x1B7E DUP5 DUP3 DUP6 ADD PUSH2 0x1B45 JUMP JUMPDEST SWAP2 POP POP SWAP3 SWAP2 POP POP JUMP JUMPDEST PUSH1 0x0 PUSH2 0x1B92 DUP3 PUSH2 0x1A7D JUMP JUMPDEST SWAP1 POP SWAP2 SWAP1 POP JUMP JUMPDEST PUSH2 0x1BA2 DUP2 PUSH2 0x1B87 JUMP JUMPDEST DUP2 EQ PUSH2 0x1BAD JUMPI PUSH1 0x0 DUP1 REVERT JUMPDEST POP JUMP JUMPDEST PUSH1 0x0 DUP2 CALLDATALOAD SWAP1 POP PUSH2 0x1BBF DUP2 PUSH2 0x1B99 JUMP JUMPDEST SWAP3 SWAP2 POP POP JUMP JUMPDEST PUSH1 0x0 PUSH1 0x20 DUP3 DUP5 SUB SLT ISZERO PUSH2 0x1BDB JUMPI PUSH2 0x1BDA PUSH2 0x1A53 JUMP JUMPDEST JUMPDEST PUSH1 0x0 PUSH2 0x1BE9 DUP5 DUP3 DUP6 ADD PUSH2 0x1BB0 JUMP JUMPDEST SWAP2 POP POP SWAP3 SWAP2 POP POP JUMP JUMPDEST PUSH1 0x0 DUP2 SWAP1 POP SWAP2 SWAP1 POP JUMP JUMPDEST PUSH1 0x0 PUSH2 0x1C17 PUSH2 0x1C12 PUSH2 0x1C0D DUP5 PUSH2 0x1A5D JUMP JUMPDEST PUSH2 0x1BF2 JUMP JUMPDEST PUSH2 0x1A5D JUMP JUMPDEST SWAP1 POP SWAP2 SWAP1 POP JUMP JUMPDEST PUSH1 0x0 PUSH2 0x1C29 DUP3 PUSH2 0x1BFC JUMP JUMPDEST SWAP1 POP SWAP2 SWAP1 POP JUMP JUMPDEST PUSH1 0x0 PUSH2 0x1C3B DUP3 PUSH2 0x1C1E JUMP JUMPDEST SWAP1 POP SWAP2 SWAP1 POP JUMP JUMPDEST PUSH2 0x1C4B DUP2 PUSH2 0x1C30 JUMP JUMPDEST DUP3 MSTORE POP POP JUMP JUMPDEST PUSH1 0x0 PUSH1 0x20 DUP3 ADD SWAP1 POP PUSH2 0x1C66 PUSH1 0x0 DUP4 ADD DUP5 PUSH2 0x1C42 JUMP JUMPDEST SWAP3 SWAP2 POP POP JUMP JUMPDEST PUSH2 0x1C75 DUP2 PUSH2 0x1A7D JUMP JUMPDEST DUP3 MSTORE POP POP JUMP JUMPDEST PUSH1 0x0 PUSH1 0x20 DUP3 ADD SWAP1 POP PUSH2 0x1C90 PUSH1 0x0 DUP4 ADD DUP5 PUSH2 0x1C6C JUMP JUMPDEST SWAP3 SWAP2 POP POP JUMP JUMPDEST PUSH1 0x0 PUSH2 0x1CA1 DUP3 PUSH2 0x1A7D JUMP JUMPDEST SWAP1 POP SWAP2 SWAP1 POP JUMP JUMPDEST PUSH2 0x1CB1 DUP2 PUSH2 0x1C96 JUMP JUMPDEST DUP2 EQ PUSH2 0x1CBC JUMPI PUSH1 0x0 DUP1 REVERT JUMPDEST POP JUMP JUMPDEST PUSH1 0x0 DUP2 CALLDATALOAD SWAP1 POP PUSH2 0x1CCE DUP2 PUSH2 0x1CA8 JUMP JUMPDEST SWAP3 SWAP2 POP POP JUMP JUMPDEST PUSH1 0x0 PUSH1 0x20 DUP3 DUP5 SUB SLT ISZERO PUSH2 0x1CEA JUMPI PUSH2 0x1CE9 PUSH2 0x1A53 JUMP JUMPDEST JUMPDEST PUSH1 0x0 PUSH2 0x1CF8 DUP5 DUP3 DUP6 ADD PUSH2 0x1CBF JUMP JUMPDEST SWAP2 POP POP SWAP3 SWAP2 POP POP JUMP JUMPDEST PUSH1 0x0 PUSH2 0x1D0C DUP3 PUSH2 0x1A7D JUMP JUMPDEST SWAP1 POP SWAP2 SWAP1 POP JUMP JUMPDEST PUSH2 0x1D1C DUP2 PUSH2 0x1D01 JUMP JUMPDEST DUP2 EQ PUSH2 0x1D27 JUMPI PUSH1 0x0 DUP1 REVERT JUMPDEST POP JUMP JUMPDEST PUSH1 0x0 DUP2 CALLDATALOAD SWAP1 POP PUSH2 0x1D39 DUP2 PUSH2 0x1D13 JUMP JUMPDEST SWAP3 SWAP2 POP POP JUMP JUMPDEST PUSH1 0x0 PUSH1 0x20 DUP3 DUP5 SUB SLT ISZERO PUSH2 0x1D55 JUMPI PUSH2 0x1D54 PUSH2 0x1A53 JUMP JUMPDEST JUMPDEST PUSH1 0x0 PUSH2 0x1D63 DUP5 DUP3 DUP6 ADD PUSH2 0x1D2A JUMP JUMPDEST SWAP2 POP POP SWAP3 SWAP2 POP POP JUMP JUMPDEST PUSH2 0x1D75 DUP2 PUSH2 0x1AE8 JUMP JUMPDEST DUP2 EQ PUSH2 0x1D80 JUMPI PUSH1 0x0 DUP1 REVERT JUMPDEST POP JUMP JUMPDEST PUSH1 0x0 DUP2 CALLDATALOAD SWAP1 POP PUSH2 0x1D92 DUP2 PUSH2 0x1D6C JUMP JUMPDEST SWAP3 SWAP2 POP POP JUMP JUMPDEST PUSH1 0x0 DUP1 PUSH1 0x0 DUP1 PUSH1 0x80 DUP6 DUP8 SUB SLT ISZERO PUSH2 0x1DB2 JUMPI PUSH2 0x1DB1 PUSH2 0x1A53 JUMP JUMPDEST JUMPDEST PUSH1 0x0 PUSH2 0x1DC0 DUP8 DUP3 DUP9 ADD PUSH2 0x1D83 JUMP JUMPDEST SWAP5 POP POP PUSH1 0x20 PUSH2 0x1DD1 DUP8 DUP3 DUP9 ADD PUSH2 0x1B45 JUMP JUMPDEST SWAP4 POP POP PUSH1 0x40 PUSH2 0x1DE2 DUP8 DUP3 DUP9 ADD PUSH2 0x1D83 JUMP JUMPDEST SWAP3 POP POP PUSH1 0x60 PUSH2 0x1DF3 DUP8 DUP3 DUP9 ADD PUSH2 0x1CBF JUMP JUMPDEST SWAP2 POP POP SWAP3 SWAP6 SWAP2 SWAP5 POP SWAP3 POP JUMP JUMPDEST PUSH32 0x4E487B7100000000000000000000000000000000000000000000000000000000 PUSH1 0x0 MSTORE PUSH1 0x41 PUSH1 0x4 MSTORE PUSH1 0x24 PUSH1 0x0 REVERT JUMPDEST PUSH32 0x4E487B7100000000000000000000000000000000000000000000000000000000 PUSH1 0x0 MSTORE PUSH1 0x32 PUSH1 0x4 MSTORE PUSH1 0x24 PUSH1 0x0 REVERT JUMPDEST PUSH1 0x0 DUP2 MLOAD SWAP1 POP SWAP2 SWAP1 POP JUMP JUMPDEST PUSH1 0x0 DUP3 DUP3 MSTORE PUSH1 0x20 DUP3 ADD SWAP1 POP SWAP3 SWAP2 POP POP JUMP JUMPDEST PUSH1 0x0 DUP2 SWAP1 POP PUSH1 0x20 DUP3 ADD SWAP1 POP SWAP2 SWAP1 POP JUMP JUMPDEST PUSH2 0x1E92 DUP2 PUSH2 0x1A7D JUMP JUMPDEST DUP3 MSTORE POP POP JUMP JUMPDEST PUSH1 0x0 PUSH2 0x1EA4 DUP4 DUP4 PUSH2 0x1E89 JUMP JUMPDEST PUSH1 0x20 DUP4 ADD SWAP1 POP SWAP3 SWAP2 POP POP JUMP JUMPDEST PUSH1 0x0 PUSH1 0x20 DUP3 ADD SWAP1 POP SWAP2 SWAP1 POP JUMP JUMPDEST PUSH1 0x0 PUSH2 0x1EC8 DUP3 PUSH2 0x1E5D JUMP JUMPDEST PUSH2 0x1ED2 DUP2 DUP6 PUSH2 0x1E68 JUMP JUMPDEST SWAP4 POP PUSH2 0x1EDD DUP4 PUSH2 0x1E79 JUMP JUMPDEST DUP1 PUSH1 0x0 JUMPDEST DUP4 DUP2 LT ISZERO PUSH2 0x1F0E JUMPI DUP2 MLOAD PUSH2 0x1EF5 DUP9 DUP3 PUSH2 0x1E98 JUMP JUMPDEST SWAP8 POP PUSH2 0x1F00 DUP4 PUSH2 0x1EB0 JUMP JUMPDEST SWAP3 POP POP PUSH1 0x1 DUP2 ADD SWAP1 POP PUSH2 0x1EE1 JUMP JUMPDEST POP DUP6 SWAP4 POP POP POP POP SWAP3 SWAP2 POP POP JUMP JUMPDEST PUSH1 0x0 PUSH1 0x40 DUP3 ADD SWAP1 POP PUSH2 0x1F30 PUSH1 0x0 DUP4 ADD DUP6 PUSH2 0x1AF2 JUMP JUMPDEST DUP2 DUP2 SUB PUSH1 0x20 DUP4 ADD MSTORE PUSH2 0x1F42 DUP2 DUP5 PUSH2 0x1EBD JUMP JUMPDEST SWAP1 POP SWAP4 SWAP3 POP POP POP JUMP JUMPDEST PUSH1 0x0 DUP1 REVERT JUMPDEST PUSH1 0x0 PUSH1 0x1F NOT PUSH1 0x1F DUP4 ADD AND SWAP1 POP SWAP2 SWAP1 POP JUMP JUMPDEST PUSH2 0x1F6A DUP3 PUSH2 0x1F50 JUMP JUMPDEST DUP2 ADD DUP2 DUP2 LT PUSH8 0xFFFFFFFFFFFFFFFF DUP3 GT OR ISZERO PUSH2 0x1F89 JUMPI PUSH2 0x1F88 PUSH2 0x1DFF JUMP JUMPDEST JUMPDEST DUP1 PUSH1 0x40 MSTORE POP POP POP JUMP JUMPDEST PUSH1 0x0 PUSH2 0x1F9C PUSH2 0x1A49 JUMP JUMPDEST SWAP1 POP PUSH2 0x1FA8 DUP3 DUP3 PUSH2 0x1F61 JUMP JUMPDEST SWAP2 SWAP1 POP JUMP JUMPDEST PUSH1 0x0 PUSH8 0xFFFFFFFFFFFFFFFF DUP3 GT ISZERO PUSH2 0x1FC8 JUMPI PUSH2 0x1FC7 PUSH2 0x1DFF JUMP JUMPDEST JUMPDEST PUSH1 0x20 DUP3 MUL SWAP1 POP PUSH1 0x20 DUP2 ADD SWAP1 POP SWAP2 SWAP1 POP JUMP JUMPDEST PUSH1 0x0 DUP1 REVERT JUMPDEST PUSH1 0x0 DUP2 MLOAD SWAP1 POP PUSH2 0x1FED DUP2 PUSH2 0x1D6C JUMP JUMPDEST SWAP3 SWAP2 POP POP JUMP JUMPDEST PUSH1 0x0 PUSH2 0x2006 PUSH2 0x2001 DUP5 PUSH2 0x1FAD JUMP JUMPDEST PUSH2 0x1F92 JUMP JUMPDEST SWAP1 POP DUP1 DUP4 DUP3 MSTORE PUSH1 0x20 DUP3 ADD SWAP1 POP PUSH1 0x20 DUP5 MUL DUP4 ADD DUP6 DUP2 GT ISZERO PUSH2 0x2029 JUMPI PUSH2 0x2028 PUSH2 0x1FD9 JUMP JUMPDEST JUMPDEST DUP4 JUMPDEST DUP2 DUP2 LT ISZERO PUSH2 0x2052 JUMPI DUP1 PUSH2 0x203E DUP9 DUP3 PUSH2 0x1FDE JUMP JUMPDEST DUP5 MSTORE PUSH1 0x20 DUP5 ADD SWAP4 POP POP PUSH1 0x20 DUP2 ADD SWAP1 POP PUSH2 0x202B JUMP JUMPDEST POP POP POP SWAP4 SWAP3 POP POP POP JUMP JUMPDEST PUSH1 0x0 DUP3 PUSH1 0x1F DUP4 ADD SLT PUSH2 0x2071 JUMPI PUSH2 0x2070 PUSH2 0x1F4B JUMP JUMPDEST JUMPDEST DUP2 MLOAD PUSH2 0x2081 DUP5 DUP3 PUSH1 0x20 DUP7 ADD PUSH2 0x1FF3 JUMP JUMPDEST SWAP2 POP POP SWAP3 SWAP2 POP POP JUMP JUMPDEST PUSH1 0x0 PUSH1 0x20 DUP3 DUP5 SUB SLT ISZERO PUSH2 0x20A0 JUMPI PUSH2 0x209F PUSH2 0x1A53 JUMP JUMPDEST JUMPDEST PUSH1 0x0 DUP3 ADD MLOAD PUSH8 0xFFFFFFFFFFFFFFFF DUP2 GT ISZERO PUSH2 0x20BE JUMPI PUSH2 0x20BD PUSH2 0x1A58 JUMP JUMPDEST JUMPDEST PUSH2 0x20CA DUP5 DUP3 DUP6 ADD PUSH2 0x205C JUMP JUMPDEST SWAP2 POP POP SWAP3 SWAP2 POP POP JUMP JUMPDEST PUSH1 0x0 DUP2 MLOAD SWAP1 POP PUSH2 0x20E2 DUP2 PUSH2 0x1B99 JUMP JUMPDEST SWAP3 SWAP2 POP POP JUMP JUMPDEST PUSH1 0x0 PUSH1 0x20 DUP3 DUP5 SUB SLT ISZERO PUSH2 0x20FE JUMPI PUSH2 0x20FD PUSH2 0x1A53 JUMP JUMPDEST JUMPDEST PUSH1 0x0 PUSH2 0x210C DUP5 DUP3 DUP6 ADD PUSH2 0x20D3 JUMP JUMPDEST SWAP2 POP POP SWAP3 SWAP2 POP POP JUMP JUMPDEST PUSH1 0x0 PUSH1 0x20 DUP3 DUP5 SUB SLT ISZERO PUSH2 0x212B JUMPI PUSH2 0x212A PUSH2 0x1A53 JUMP JUMPDEST JUMPDEST PUSH1 0x0 PUSH2 0x2139 DUP5 DUP3 DUP6 ADD PUSH2 0x1FDE JUMP JUMPDEST SWAP2 POP POP SWAP3 SWAP2 POP POP JUMP JUMPDEST PUSH1 0x0 DUP3 DUP3 MSTORE PUSH1 0x20 DUP3 ADD SWAP1 POP SWAP3 SWAP2 POP POP JUMP JUMPDEST PUSH32 0x4F776E61626C653A2063616C6C6572206973206E6F7420746865206F776E6572 PUSH1 0x0 DUP3 ADD MSTORE POP JUMP JUMPDEST PUSH1 0x0 PUSH2 0x2189 PUSH1 0x20 DUP4 PUSH2 0x2142 JUMP JUMPDEST SWAP2 POP PUSH2 0x2194 DUP3 PUSH2 0x2153 JUMP JUMPDEST PUSH1 0x20 DUP3 ADD SWAP1 POP SWAP2 SWAP1 POP JUMP JUMPDEST PUSH1 0x0 PUSH1 0x20 DUP3 ADD SWAP1 POP DUP2 DUP2 SUB PUSH1 0x0 DUP4 ADD MSTORE PUSH2 0x21B8 DUP2 PUSH2 0x217C JUMP JUMPDEST SWAP1 POP SWAP2 SWAP1 POP JUMP JUMPDEST PUSH1 0x0 DUP1 REVERT JUMPDEST PUSH1 0x0 PUSH2 0x21CF DUP3 PUSH2 0x1A7D JUMP JUMPDEST SWAP1 POP SWAP2 SWAP1 POP JUMP JUMPDEST PUSH2 0x21DF DUP2 PUSH2 0x21C4 JUMP JUMPDEST DUP2 EQ PUSH2 0x21EA JUMPI PUSH1 0x0 DUP1 REVERT JUMPDEST POP JUMP JUMPDEST PUSH1 0x0 DUP2 MLOAD SWAP1 POP PUSH2 0x21FC DUP2 PUSH2 0x21D6 JUMP JUMPDEST SWAP3 SWAP2 POP POP JUMP JUMPDEST PUSH1 0x0 PUSH1 0xC0 DUP3 DUP5 SUB SLT ISZERO PUSH2 0x2218 JUMPI PUSH2 0x2217 PUSH2 0x21BF JUMP JUMPDEST JUMPDEST PUSH2 0x2222 PUSH1 0xC0 PUSH2 0x1F92 JUMP JUMPDEST SWAP1 POP PUSH1 0x0 PUSH2 0x2232 DUP5 DUP3 DUP6 ADD PUSH2 0x20D3 JUMP JUMPDEST PUSH1 0x0 DUP4 ADD MSTORE POP PUSH1 0x20 PUSH2 0x2246 DUP5 DUP3 DUP6 ADD PUSH2 0x1FDE JUMP JUMPDEST PUSH1 0x20 DUP4 ADD MSTORE POP PUSH1 0x40 PUSH2 0x225A DUP5 DUP3 DUP6 ADD PUSH2 0x1FDE JUMP JUMPDEST PUSH1 0x40 DUP4 ADD MSTORE POP PUSH1 0x60 PUSH2 0x226E DUP5 DUP3 DUP6 ADD PUSH2 0x1FDE JUMP JUMPDEST PUSH1 0x60 DUP4 ADD MSTORE POP PUSH1 0x80 PUSH2 0x2282 DUP5 DUP3 DUP6 ADD PUSH2 0x21ED JUMP JUMPDEST PUSH1 0x80 DUP4 ADD MSTORE POP PUSH1 0xA0 PUSH2 0x2296 DUP5 DUP3 DUP6 ADD PUSH2 0x20D3 JUMP JUMPDEST PUSH1 0xA0 DUP4 ADD MSTORE POP SWAP3 SWAP2 POP POP JUMP JUMPDEST PUSH1 0x0 PUSH1 0xC0 DUP3 DUP5 SUB SLT ISZERO PUSH2 0x22B8 JUMPI PUSH2 0x22B7 PUSH2 0x1A53 JUMP JUMPDEST JUMPDEST PUSH1 0x0 PUSH2 0x22C6 DUP5 DUP3 DUP6 ADD PUSH2 0x2202 JUMP JUMPDEST SWAP2 POP POP SWAP3 SWAP2 POP POP JUMP JUMPDEST PUSH32 0x4E487B7100000000000000000000000000000000000000000000000000000000 PUSH1 0x0 MSTORE PUSH1 0x11 PUSH1 0x4 MSTORE PUSH1 0x24 PUSH1 0x0 REVERT JUMPDEST PUSH1 0x0 PUSH2 0x2309 DUP3 PUSH2 0x1AE8 JUMP JUMPDEST SWAP2 POP PUSH32 0xFFFFFFFFFFFFFFFFFFFFFFFFFFFFFFFFFFFFFFFFFFFFFFFFFFFFFFFFFFFFFFFF DUP3 SUB PUSH2 0x233B JUMPI PUSH2 0x233A PUSH2 0x22CF JUMP JUMPDEST JUMPDEST PUSH1 0x1 DUP3 ADD SWAP1 POP SWAP2 SWAP1 POP JUMP JUMPDEST PUSH1 0x0 PUSH2 0x2351 DUP3 PUSH2 0x1AE8 JUMP JUMPDEST SWAP2 POP PUSH2 0x235C DUP4 PUSH2 0x1AE8 JUMP JUMPDEST SWAP3 POP DUP2 PUSH32 0xFFFFFFFFFFFFFFFFFFFFFFFFFFFFFFFFFFFFFFFFFFFFFFFFFFFFFFFFFFFFFFFF DIV DUP4 GT DUP3 ISZERO ISZERO AND ISZERO PUSH2 0x2395 JUMPI PUSH2 0x2394 PUSH2 0x22CF JUMP JUMPDEST JUMPDEST DUP3 DUP3 MUL SWAP1 POP SWAP3 SWAP2 POP POP JUMP JUMPDEST PUSH1 0x0 DUP2 MLOAD SWAP1 POP PUSH2 0x23AF DUP2 PUSH2 0x1A8F JUMP JUMPDEST SWAP3 SWAP2 POP POP JUMP JUMPDEST PUSH1 0x0 PUSH1 0x20 DUP3 DUP5 SUB SLT ISZERO PUSH2 0x23CB JUMPI PUSH2 0x23CA PUSH2 0x1A53 JUMP JUMPDEST JUMPDEST PUSH1 0x0 PUSH2 0x23D9 DUP5 DUP3 DUP6 ADD PUSH2 0x23A0 JUMP JUMPDEST SWAP2 POP POP SWAP3 SWAP2 POP POP JUMP JUMPDEST PUSH32 0x4F776E61626C653A206E6577206F776E657220697320746865207A65726F2061 PUSH1 0x0 DUP3 ADD MSTORE PUSH32 0x6464726573730000000000000000000000000000000000000000000000000000 PUSH1 0x20 DUP3 ADD MSTORE POP JUMP JUMPDEST PUSH1 0x0 PUSH2 0x243E PUSH1 0x26 DUP4 PUSH2 0x2142 JUMP JUMPDEST SWAP2 POP PUSH2 0x2449 DUP3 PUSH2 0x23E2 JUMP JUMPDEST PUSH1 0x40 DUP3 ADD SWAP1 POP SWAP2 SWAP1 POP JUMP JUMPDEST PUSH1 0x0 PUSH1 0x20 DUP3 ADD SWAP1 POP DUP2 DUP2 SUB PUSH1 0x0 DUP4 ADD MSTORE PUSH2 0x246D DUP2 PUSH2 0x2431 JUMP JUMPDEST SWAP1 POP SWAP2 SWAP1 POP JUMP JUMPDEST PUSH32 0x4E487B7100000000000000000000000000000000000000000000000000000000 PUSH1 0x0 MSTORE PUSH1 0x12 PUSH1 0x4 MSTORE PUSH1 0x24 PUSH1 0x0 REVERT JUMPDEST PUSH1 0x0 PUSH2 0x24AE DUP3 PUSH2 0x1AE8 JUMP JUMPDEST SWAP2 POP PUSH2 0x24B9 DUP4 PUSH2 0x1AE8 JUMP JUMPDEST SWAP3 POP DUP3 PUSH2 0x24C9 JUMPI PUSH2 0x24C8 PUSH2 0x2474 JUMP JUMPDEST JUMPDEST DUP3 DUP3 DIV SWAP1 POP SWAP3 SWAP2 POP POP JUMP JUMPDEST PUSH32 0x536166654D6174683A206D756C7469706C69636174696F6E206F766572666C6F PUSH1 0x0 DUP3 ADD MSTORE PUSH32 0x7700000000000000000000000000000000000000000000000000000000000000 PUSH1 0x20 DUP3 ADD MSTORE POP JUMP JUMPDEST PUSH1 0x0 PUSH2 0x2530 PUSH1 0x21 DUP4 PUSH2 0x2142 JUMP JUMPDEST SWAP2 POP PUSH2 0x253B DUP3 PUSH2 0x24D4 JUMP JUMPDEST PUSH1 0x40 DUP3 ADD SWAP1 POP SWAP2 SWAP1 POP JUMP JUMPDEST PUSH1 0x0 PUSH1 0x20 DUP3 ADD SWAP1 POP DUP2 DUP2 SUB PUSH1 0x0 DUP4 ADD MSTORE PUSH2 0x255F DUP2 PUSH2 0x2523 JUMP JUMPDEST SWAP1 POP SWAP2 SWAP1 POP JUMP JUMPDEST PUSH1 0x0 PUSH2 0x2571 DUP3 PUSH2 0x1AE8 JUMP JUMPDEST SWAP2 POP PUSH2 0x257C DUP4 PUSH2 0x1AE8 JUMP JUMPDEST SWAP3 POP DUP3 PUSH32 0xFFFFFFFFFFFFFFFFFFFFFFFFFFFFFFFFFFFFFFFFFFFFFFFFFFFFFFFFFFFFFFFF SUB DUP3 GT ISZERO PUSH2 0x25B1 JUMPI PUSH2 0x25B0 PUSH2 0x22CF JUMP JUMPDEST JUMPDEST DUP3 DUP3 ADD SWAP1 POP SWAP3 SWAP2 POP POP JUMP JUMPDEST PUSH32 0x536166654D6174683A206164646974696F6E206F766572666C6F770000000000 PUSH1 0x0 DUP3 ADD MSTORE POP JUMP JUMPDEST PUSH1 0x0 PUSH2 0x25F2 PUSH1 0x1B DUP4 PUSH2 0x2142 JUMP JUMPDEST SWAP2 POP PUSH2 0x25FD DUP3 PUSH2 0x25BC JUMP JUMPDEST PUSH1 0x20 DUP3 ADD SWAP1 POP SWAP2 SWAP1 POP JUMP JUMPDEST PUSH1 0x0 PUSH1 0x20 DUP3 ADD SWAP1 POP DUP2 DUP2 SUB PUSH1 0x0 DUP4 ADD MSTORE PUSH2 0x2621 DUP2 PUSH2 0x25E5 JUMP JUMPDEST SWAP1 POP SWAP2 SWAP1 POP JUMP JUMPDEST PUSH1 0x0 DUP2 MLOAD SWAP1 POP SWAP2 SWAP1 POP JUMP JUMPDEST PUSH1 0x0 JUMPDEST DUP4 DUP2 LT ISZERO PUSH2 0x2651 JUMPI DUP1 DUP3 ADD MLOAD DUP2 DUP5 ADD MSTORE PUSH1 0x20 DUP2 ADD SWAP1 POP PUSH2 0x2636 JUMP JUMPDEST DUP4 DUP2 GT ISZERO PUSH2 0x2660 JUMPI PUSH1 0x0 DUP5 DUP5 ADD MSTORE JUMPDEST POP POP POP POP JUMP JUMPDEST PUSH1 0x0 PUSH2 0x2671 DUP3 PUSH2 0x2628 JUMP JUMPDEST PUSH2 0x267B DUP2 DUP6 PUSH2 0x2142 JUMP JUMPDEST SWAP4 POP PUSH2 0x268B DUP2 DUP6 PUSH1 0x20 DUP7 ADD PUSH2 0x2633 JUMP JUMPDEST PUSH2 0x2694 DUP2 PUSH2 0x1F50 JUMP JUMPDEST DUP5 ADD SWAP2 POP POP SWAP3 SWAP2 POP POP JUMP JUMPDEST PUSH1 0x0 PUSH1 0x20 DUP3 ADD SWAP1 POP DUP2 DUP2 SUB PUSH1 0x0 DUP4 ADD MSTORE PUSH2 0x26B9 DUP2 DUP5 PUSH2 0x2666 JUMP JUMPDEST SWAP1 POP SWAP3 SWAP2 POP POP JUMP INVALID LOG2 PUSH5 0x6970667358 0x22 SLT KECCAK256 PUSH7 0x3366E6FB59B99 0xEC 0x26 DUP4 DUP5 0xAC NUMBER PUSH20 0xEF6FC9FFE3930E59D1190A599F0B5CF3CB64736F PUSH13 0x634300080F0033000000000000 "
				},
				"gasEstimates": {
					"creation": {
						"codeDepositCost": "1995000",
						"executionCost": "infinite",
						"totalCost": "infinite"
					},
					"external": {
						"BUSD()": "2581",
						"CalcApy(uint256,address,uint256,address)": "infinite",
						"CalcLpPrice(address)": "infinite",
						"CalcTotalTVL(address)": "infinite",
						"Tokenprice(address)": "infinite",
						"WBNB()": "2581",
						"WBNBPrice(address)": "infinite",
						"calcPoolTVLInUSD(uint256,address,uint256,address)": "infinite",
						"isLpAddress(address)": "infinite",
						"owner()": "2567",
						"renounceOwnership()": "30463",
						"routerAddress()": "infinite",
						"setRouter(address)": "27027",
						"transferOwnership(address)": "30808"
					}
				},
				"methodIdentifiers": {
					"BUSD()": "484f4ea9",
					"CalcApy(uint256,address,uint256,address)": "dbb79348",
					"CalcLpPrice(address)": "215cc989",
					"CalcTotalTVL(address)": "81c7f1fc",
					"Tokenprice(address)": "19047f8a",
					"WBNB()": "8dd95002",
					"WBNBPrice(address)": "3b979d45",
					"calcPoolTVLInUSD(uint256,address,uint256,address)": "d979fb5f",
					"isLpAddress(address)": "2f7c5980",
					"owner()": "8da5cb5b",
					"renounceOwnership()": "715018a6",
					"routerAddress()": "3268cc56",
					"setRouter(address)": "c0d78655",
					"transferOwnership(address)": "f2fde38b"
				}
			},
			"storageLayout": {
				"storage": [
					{
						"astId": 509,
						"contract": "contracts/Utils.sol:Utils",
						"label": "_owner",
						"offset": 0,
						"slot": "0",
						"type": "t_address"
					},
					{
						"astId": 768,
						"contract": "contracts/Utils.sol:Utils",
						"label": "WBNB",
						"offset": 0,
						"slot": "1",
						"type": "t_address"
					},
					{
						"astId": 770,
						"contract": "contracts/Utils.sol:Utils",
						"label": "BUSD",
						"offset": 0,
						"slot": "2",
						"type": "t_address"
					},
					{
						"astId": 773,
						"contract": "contracts/Utils.sol:Utils",
						"label": "amount",
						"offset": 0,
						"slot": "3",
						"type": "t_uint256"
					},
					{
						"astId": 776,
						"contract": "contracts/Utils.sol:Utils",
						"label": "routerAddress",
						"offset": 0,
						"slot": "4",
						"type": "t_contract(Router)655"
					},
					{
						"astId": 779,
						"contract": "contracts/Utils.sol:Utils",
						"label": "BLOCKS_PER_YEAR",
						"offset": 0,
						"slot": "5",
						"type": "t_uint256"
					}
				],
				"types": {
					"t_address": {
						"encoding": "inplace",
						"label": "address",
						"numberOfBytes": "20"
					},
					"t_contract(Router)655": {
						"encoding": "inplace",
						"label": "contract Router",
						"numberOfBytes": "20"
					},
					"t_uint256": {
						"encoding": "inplace",
						"label": "uint256",
						"numberOfBytes": "32"
					}
				}
			},
			"userdoc": {
				"kind": "user",
				"methods": {},
				"version": 1
			}
		}
	}
}