{
	"contracts/LpPrice.sol": {
		"LpUtils": {
			"abi": [
				{
					"inputs": [],
					"name": "BUSD",
					"outputs": [
						{
							"internalType": "address",
							"name": "",
							"type": "address"
						}
					],
					"stateMutability": "view",
					"type": "function"
				},
				{
					"inputs": [
						{
							"internalType": "contract IERC20",
							"name": "lpAddress",
							"type": "address"
						},
						{
							"internalType": "contract Router",
							"name": "routerAddress",
							"type": "address"
						},
						{
							"internalType": "address",
							"name": "busd",
							"type": "address"
						}
					],
					"name": "CalcLpPrice",
					"outputs": [
						{
							"internalType": "uint256",
							"name": "",
							"type": "uint256"
						}
					],
					"stateMutability": "view",
					"type": "function"
				},
				{
					"inputs": [],
					"name": "WBNB",
					"outputs": [
						{
							"internalType": "address",
							"name": "",
							"type": "address"
						}
					],
					"stateMutability": "view",
					"type": "function"
				}
			],
			"devdoc": {
				"kind": "dev",
				"methods": {},
				"version": 1
			},
			"evm": {
				"assembly": "    /* \"contracts/LpPrice.sol\":8846:9558  contract LpUtils {\r... */\n  mstore(0x40, 0x80)\n    /* \"contracts/LpPrice.sol\":8892:8934  0xae13d989daC2f0dEbFf460aC112a837C89BAa7cd */\n  0xae13d989dac2f0debff460ac112a837c89baa7cd\n    /* \"contracts/LpPrice.sol\":8870:8934  address public WBNB = 0xae13d989daC2f0dEbFf460aC112a837C89BAa7cd */\n  0x00\n  dup1\n  0x0100\n  exp\n  dup2\n  sload\n  dup2\n  0xffffffffffffffffffffffffffffffffffffffff\n  mul\n  not\n  and\n  swap1\n  dup4\n  0xffffffffffffffffffffffffffffffffffffffff\n  and\n  mul\n  or\n  swap1\n  sstore\n  pop\n    /* \"contracts/LpPrice.sol\":8963:9005  0x78867BbEeF44f2326bF8DDd1941a4439382EF2A7 */\n  0x78867bbeef44f2326bf8ddd1941a4439382ef2a7\n    /* \"contracts/LpPrice.sol\":8941:9005  address public BUSD = 0x78867BbEeF44f2326bF8DDd1941a4439382EF2A7 */\n  0x01\n  exp(0x0100, 0x00)\n  dup2\n  sload\n  dup2\n  0xffffffffffffffffffffffffffffffffffffffff\n  mul\n  not\n  and\n  swap1\n  dup4\n  0xffffffffffffffffffffffffffffffffffffffff\n  and\n  mul\n  or\n  swap1\n  sstore\n  pop\n    /* \"contracts/LpPrice.sol\":9029:9048  1000000000000000000 */\n  0x0de0b6b3a7640000\n    /* \"contracts/LpPrice.sol\":9012:9048  uint256 amount = 1000000000000000000 */\n  0x02\n  sstore\n    /* \"contracts/LpPrice.sol\":8846:9558  contract LpUtils {\r... */\n  callvalue\n  dup1\n  iszero\n  tag_1\n  jumpi\n  0x00\n  dup1\n  revert\ntag_1:\n  pop\n  dataSize(sub_0)\n  dup1\n  dataOffset(sub_0)\n  0x00\n  codecopy\n  0x00\n  return\nstop\n\nsub_0: assembly {\n        /* \"contracts/LpPrice.sol\":8846:9558  contract LpUtils {\r... */\n      mstore(0x40, 0x80)\n      callvalue\n      dup1\n      iszero\n      tag_1\n      jumpi\n      0x00\n      dup1\n      revert\n    tag_1:\n      pop\n      jumpi(tag_2, lt(calldatasize, 0x04))\n      shr(0xe0, calldataload(0x00))\n      dup1\n      0x20ae0b6d\n      eq\n      tag_3\n      jumpi\n      dup1\n      0x484f4ea9\n      eq\n      tag_4\n      jumpi\n      dup1\n      0x8dd95002\n      eq\n      tag_5\n      jumpi\n    tag_2:\n      0x00\n      dup1\n      revert\n        /* \"contracts/LpPrice.sol\":9340:9555  function CalcLpPrice(IERC20 lpAddress, Router routerAddress, address busd) external view returns(uint256){\r... */\n    tag_3:\n      tag_6\n      0x04\n      dup1\n      calldatasize\n      sub\n      dup2\n      add\n      swap1\n      tag_7\n      swap2\n      swap1\n      tag_8\n      jump\t// in\n    tag_7:\n      tag_9\n      jump\t// in\n    tag_6:\n      mload(0x40)\n      tag_10\n      swap2\n      swap1\n      tag_11\n      jump\t// in\n    tag_10:\n      mload(0x40)\n      dup1\n      swap2\n      sub\n      swap1\n      return\n        /* \"contracts/LpPrice.sol\":8941:9005  address public BUSD = 0x78867BbEeF44f2326bF8DDd1941a4439382EF2A7 */\n    tag_4:\n      tag_12\n      tag_13\n      jump\t// in\n    tag_12:\n      mload(0x40)\n      tag_14\n      swap2\n      swap1\n      tag_15\n      jump\t// in\n    tag_14:\n      mload(0x40)\n      dup1\n      swap2\n      sub\n      swap1\n      return\n        /* \"contracts/LpPrice.sol\":8870:8934  address public WBNB = 0xae13d989daC2f0dEbFf460aC112a837C89BAa7cd */\n    tag_5:\n      tag_16\n      tag_17\n      jump\t// in\n    tag_16:\n      mload(0x40)\n      tag_18\n      swap2\n      swap1\n      tag_15\n      jump\t// in\n    tag_18:\n      mload(0x40)\n      dup1\n      swap2\n      sub\n      swap1\n      return\n        /* \"contracts/LpPrice.sol\":9340:9555  function CalcLpPrice(IERC20 lpAddress, Router routerAddress, address busd) external view returns(uint256){\r... */\n    tag_9:\n        /* \"contracts/LpPrice.sol\":9437:9444  uint256 */\n      0x00\n        /* \"contracts/LpPrice.sol\":9505:9544  price(routerAddress,lpAddress.token0()) */\n      tag_20\n        /* \"contracts/LpPrice.sol\":9511:9524  routerAddress */\n      dup4\n        /* \"contracts/LpPrice.sol\":9525:9534  lpAddress */\n      dup6\n        /* \"contracts/LpPrice.sol\":9525:9541  lpAddress.token0 */\n      0xffffffffffffffffffffffffffffffffffffffff\n      and\n      0x0dfe1681\n        /* \"contracts/LpPrice.sol\":9525:9543  lpAddress.token0() */\n      mload(0x40)\n      dup2\n      0xffffffff\n      and\n      0xe0\n      shl\n      dup2\n      mstore\n      0x04\n      add\n      0x20\n      mload(0x40)\n      dup1\n      dup4\n      sub\n      dup2\n      dup7\n      dup1\n      extcodesize\n      iszero\n      dup1\n      iszero\n      tag_21\n      jumpi\n      0x00\n      dup1\n      revert\n    tag_21:\n      pop\n      gas\n      staticcall\n      iszero\n      dup1\n      iszero\n      tag_23\n      jumpi\n      returndatasize\n      0x00\n      dup1\n      returndatacopy\n      revert(0x00, returndatasize)\n    tag_23:\n      pop\n      pop\n      pop\n      pop\n      mload(0x40)\n      returndatasize\n      not(0x1f)\n      0x1f\n      dup3\n      add\n      and\n      dup3\n      add\n      dup1\n      0x40\n      mstore\n      pop\n      dup2\n      add\n      swap1\n      tag_24\n      swap2\n      swap1\n      tag_25\n      jump\t// in\n    tag_24:\n        /* \"contracts/LpPrice.sol\":9505:9510  price */\n      tag_26\n        /* \"contracts/LpPrice.sol\":9505:9544  price(routerAddress,lpAddress.token0()) */\n      jump\t// in\n    tag_20:\n        /* \"contracts/LpPrice.sol\":9465:9474  lpAddress */\n      dup5\n        /* \"contracts/LpPrice.sol\":9465:9484  lpAddress.balanceOf */\n      0xffffffffffffffffffffffffffffffffffffffff\n      and\n      0x70a08231\n        /* \"contracts/LpPrice.sol\":9485:9494  lpAddress */\n      dup7\n        /* \"contracts/LpPrice.sol\":9485:9501  lpAddress.token0 */\n      0xffffffffffffffffffffffffffffffffffffffff\n      and\n      0x0dfe1681\n        /* \"contracts/LpPrice.sol\":9485:9503  lpAddress.token0() */\n      mload(0x40)\n      dup2\n      0xffffffff\n      and\n      0xe0\n      shl\n      dup2\n      mstore\n      0x04\n      add\n      0x20\n      mload(0x40)\n      dup1\n      dup4\n      sub\n      dup2\n      dup7\n      dup1\n      extcodesize\n      iszero\n      dup1\n      iszero\n      tag_27\n      jumpi\n      0x00\n      dup1\n      revert\n    tag_27:\n      pop\n      gas\n      staticcall\n      iszero\n      dup1\n      iszero\n      tag_29\n      jumpi\n      returndatasize\n      0x00\n      dup1\n      returndatacopy\n      revert(0x00, returndatasize)\n    tag_29:\n      pop\n      pop\n      pop\n      pop\n      mload(0x40)\n      returndatasize\n      not(0x1f)\n      0x1f\n      dup3\n      add\n      and\n      dup3\n      add\n      dup1\n      0x40\n      mstore\n      pop\n      dup2\n      add\n      swap1\n      tag_30\n      swap2\n      swap1\n      tag_25\n      jump\t// in\n    tag_30:\n        /* \"contracts/LpPrice.sol\":9465:9504  lpAddress.balanceOf(lpAddress.token0()) */\n      mload(0x40)\n      dup3\n      0xffffffff\n      and\n      0xe0\n      shl\n      dup2\n      mstore\n      0x04\n      add\n      tag_31\n      swap2\n      swap1\n      tag_15\n      jump\t// in\n    tag_31:\n      0x20\n      mload(0x40)\n      dup1\n      dup4\n      sub\n      dup2\n      dup7\n      dup1\n      extcodesize\n      iszero\n      dup1\n      iszero\n      tag_32\n      jumpi\n      0x00\n      dup1\n      revert\n    tag_32:\n      pop\n      gas\n      staticcall\n      iszero\n      dup1\n      iszero\n      tag_34\n      jumpi\n      returndatasize\n      0x00\n      dup1\n      returndatacopy\n      revert(0x00, returndatasize)\n    tag_34:\n      pop\n      pop\n      pop\n      pop\n      mload(0x40)\n      returndatasize\n      not(0x1f)\n      0x1f\n      dup3\n      add\n      and\n      dup3\n      add\n      dup1\n      0x40\n      mstore\n      pop\n      dup2\n      add\n      swap1\n      tag_35\n      swap2\n      swap1\n      tag_36\n      jump\t// in\n    tag_35:\n        /* \"contracts/LpPrice.sol\":9465:9544  lpAddress.balanceOf(lpAddress.token0())*price(routerAddress,lpAddress.token0()) */\n      tag_37\n      swap2\n      swap1\n      tag_38\n      jump\t// in\n    tag_37:\n        /* \"contracts/LpPrice.sol\":9456:9547  return ((lpAddress.balanceOf(lpAddress.token0())*price(routerAddress,lpAddress.token0())) ) */\n      swap1\n      pop\n        /* \"contracts/LpPrice.sol\":9340:9555  function CalcLpPrice(IERC20 lpAddress, Router routerAddress, address busd) external view returns(uint256){\r... */\n      swap4\n      swap3\n      pop\n      pop\n      pop\n      jump\t// out\n        /* \"contracts/LpPrice.sol\":8941:9005  address public BUSD = 0x78867BbEeF44f2326bF8DDd1941a4439382EF2A7 */\n    tag_13:\n      0x01\n      0x00\n      swap1\n      sload\n      swap1\n      0x0100\n      exp\n      swap1\n      div\n      0xffffffffffffffffffffffffffffffffffffffff\n      and\n      dup2\n      jump\t// out\n        /* \"contracts/LpPrice.sol\":8870:8934  address public WBNB = 0xae13d989daC2f0dEbFf460aC112a837C89BAa7cd */\n    tag_17:\n      0x00\n      dup1\n      sload\n      swap1\n      0x0100\n      exp\n      swap1\n      div\n      0xffffffffffffffffffffffffffffffffffffffff\n      and\n      dup2\n      jump\t// out\n        /* \"contracts/LpPrice.sol\":9057:9332  function price(Router routerAddress, address token) internal view returns(uint){\r... */\n    tag_26:\n        /* \"contracts/LpPrice.sol\":9131:9135  uint */\n      0x00\n        /* \"contracts/LpPrice.sol\":9147:9168  address[] memory path */\n      dup1\n        /* \"contracts/LpPrice.sol\":9185:9186  3 */\n      0x03\n        /* \"contracts/LpPrice.sol\":9171:9187  new address[](3) */\n      0xffffffffffffffff\n      dup2\n      gt\n      iszero\n      tag_40\n      jumpi\n      tag_41\n      tag_42\n      jump\t// in\n    tag_41:\n    tag_40:\n      mload(0x40)\n      swap1\n      dup1\n      dup3\n      mstore\n      dup1\n      0x20\n      mul\n      0x20\n      add\n      dup3\n      add\n      0x40\n      mstore\n      dup1\n      iszero\n      tag_43\n      jumpi\n      dup2\n      0x20\n      add\n      0x20\n      dup3\n      mul\n      dup1\n      calldatasize\n      dup4\n      calldatacopy\n      dup1\n      dup3\n      add\n      swap2\n      pop\n      pop\n      swap1\n      pop\n    tag_43:\n      pop\n        /* \"contracts/LpPrice.sol\":9147:9187  address[] memory path = new address[](3) */\n      swap1\n      pop\n        /* \"contracts/LpPrice.sol\":9208:9213  token */\n      dup3\n        /* \"contracts/LpPrice.sol\":9198:9202  path */\n      dup2\n        /* \"contracts/LpPrice.sol\":9203:9204  0 */\n      0x00\n        /* \"contracts/LpPrice.sol\":9198:9205  path[0] */\n      dup2\n      mload\n      dup2\n      lt\n      tag_44\n      jumpi\n      tag_45\n      tag_46\n      jump\t// in\n    tag_45:\n    tag_44:\n      0x20\n      mul\n      0x20\n      add\n      add\n        /* \"contracts/LpPrice.sol\":9198:9213  path[0] = token */\n      swap1\n      0xffffffffffffffffffffffffffffffffffffffff\n      and\n      swap1\n      dup2\n      0xffffffffffffffffffffffffffffffffffffffff\n      and\n      dup2\n      mstore\n      pop\n      pop\n        /* \"contracts/LpPrice.sol\":9234:9238  WBNB */\n      0x00\n      dup1\n      sload\n      swap1\n      0x0100\n      exp\n      swap1\n      div\n      0xffffffffffffffffffffffffffffffffffffffff\n      and\n        /* \"contracts/LpPrice.sol\":9224:9228  path */\n      dup2\n        /* \"contracts/LpPrice.sol\":9229:9230  1 */\n      0x01\n        /* \"contracts/LpPrice.sol\":9224:9231  path[1] */\n      dup2\n      mload\n      dup2\n      lt\n      tag_47\n      jumpi\n      tag_48\n      tag_46\n      jump\t// in\n    tag_48:\n    tag_47:\n      0x20\n      mul\n      0x20\n      add\n      add\n        /* \"contracts/LpPrice.sol\":9224:9238  path[1] = WBNB */\n      swap1\n      0xffffffffffffffffffffffffffffffffffffffff\n      and\n      swap1\n      dup2\n      0xffffffffffffffffffffffffffffffffffffffff\n      and\n      dup2\n      mstore\n      pop\n      pop\n        /* \"contracts/LpPrice.sol\":9259:9263  BUSD */\n      0x01\n      0x00\n      swap1\n      sload\n      swap1\n      0x0100\n      exp\n      swap1\n      div\n      0xffffffffffffffffffffffffffffffffffffffff\n      and\n        /* \"contracts/LpPrice.sol\":9249:9253  path */\n      dup2\n        /* \"contracts/LpPrice.sol\":9254:9255  2 */\n      0x02\n        /* \"contracts/LpPrice.sol\":9249:9256  path[2] */\n      dup2\n      mload\n      dup2\n      lt\n      tag_49\n      jumpi\n      tag_50\n      tag_46\n      jump\t// in\n    tag_50:\n    tag_49:\n      0x20\n      mul\n      0x20\n      add\n      add\n        /* \"contracts/LpPrice.sol\":9249:9263  path[2] = BUSD */\n      swap1\n      0xffffffffffffffffffffffffffffffffffffffff\n      and\n      swap1\n      dup2\n      0xffffffffffffffffffffffffffffffffffffffff\n      and\n      dup2\n      mstore\n      pop\n      pop\n        /* \"contracts/LpPrice.sol\":9281:9294  routerAddress */\n      dup4\n        /* \"contracts/LpPrice.sol\":9281:9308  routerAddress.getAmountsOut */\n      0xffffffffffffffffffffffffffffffffffffffff\n      and\n      0xd06ca61f\n        /* \"contracts/LpPrice.sol\":9309:9315  amount */\n      sload(0x02)\n        /* \"contracts/LpPrice.sol\":9316:9320  path */\n      dup4\n        /* \"contracts/LpPrice.sol\":9281:9321  routerAddress.getAmountsOut(amount,path) */\n      mload(0x40)\n      dup4\n      0xffffffff\n      and\n      0xe0\n      shl\n      dup2\n      mstore\n      0x04\n      add\n      tag_51\n      swap3\n      swap2\n      swap1\n      tag_52\n      jump\t// in\n    tag_51:\n      0x00\n      mload(0x40)\n      dup1\n      dup4\n      sub\n      dup2\n      dup7\n      dup1\n      extcodesize\n      iszero\n      dup1\n      iszero\n      tag_53\n      jumpi\n      0x00\n      dup1\n      revert\n    tag_53:\n      pop\n      gas\n      staticcall\n      iszero\n      dup1\n      iszero\n      tag_55\n      jumpi\n      returndatasize\n      0x00\n      dup1\n      returndatacopy\n      revert(0x00, returndatasize)\n    tag_55:\n      pop\n      pop\n      pop\n      pop\n      mload(0x40)\n      returndatasize\n      0x00\n      dup3\n      returndatacopy\n      returndatasize\n      not(0x1f)\n      0x1f\n      dup3\n      add\n      and\n      dup3\n      add\n      dup1\n      0x40\n      mstore\n      pop\n      dup2\n      add\n      swap1\n      tag_56\n      swap2\n      swap1\n      tag_57\n      jump\t// in\n    tag_56:\n        /* \"contracts/LpPrice.sol\":9322:9323  2 */\n      0x02\n        /* \"contracts/LpPrice.sol\":9281:9324  routerAddress.getAmountsOut(amount,path)[2] */\n      dup2\n      mload\n      dup2\n      lt\n      tag_58\n      jumpi\n      tag_59\n      tag_46\n      jump\t// in\n    tag_59:\n    tag_58:\n      0x20\n      mul\n      0x20\n      add\n      add\n      mload\n        /* \"contracts/LpPrice.sol\":9274:9324  return routerAddress.getAmountsOut(amount,path)[2] */\n      swap2\n      pop\n      pop\n        /* \"contracts/LpPrice.sol\":9057:9332  function price(Router routerAddress, address token) internal view returns(uint){\r... */\n      swap3\n      swap2\n      pop\n      pop\n      jump\t// out\n        /* \"#utility.yul\":24:768   */\n    tag_61:\n        /* \"#utility.yul\":131:136   */\n      0x00\n        /* \"#utility.yul\":156:237   */\n      tag_63\n        /* \"#utility.yul\":172:236   */\n      tag_64\n        /* \"#utility.yul\":229:235   */\n      dup5\n        /* \"#utility.yul\":172:236   */\n      tag_65\n      jump\t// in\n    tag_64:\n        /* \"#utility.yul\":156:237   */\n      tag_66\n      jump\t// in\n    tag_63:\n        /* \"#utility.yul\":147:237   */\n      swap1\n      pop\n        /* \"#utility.yul\":257:262   */\n      dup1\n        /* \"#utility.yul\":286:292   */\n      dup4\n        /* \"#utility.yul\":279:284   */\n      dup3\n        /* \"#utility.yul\":272:293   */\n      mstore\n        /* \"#utility.yul\":320:324   */\n      0x20\n        /* \"#utility.yul\":313:318   */\n      dup3\n        /* \"#utility.yul\":309:325   */\n      add\n        /* \"#utility.yul\":302:325   */\n      swap1\n      pop\n        /* \"#utility.yul\":346:352   */\n      dup3\n        /* \"#utility.yul\":396:399   */\n      dup6\n        /* \"#utility.yul\":388:392   */\n      0x20\n        /* \"#utility.yul\":380:386   */\n      dup7\n        /* \"#utility.yul\":376:393   */\n      mul\n        /* \"#utility.yul\":371:374   */\n      dup3\n        /* \"#utility.yul\":367:394   */\n      add\n        /* \"#utility.yul\":364:400   */\n      gt\n        /* \"#utility.yul\":361:504   */\n      iszero\n      tag_67\n      jumpi\n        /* \"#utility.yul\":415:494   */\n      tag_68\n      tag_69\n      jump\t// in\n    tag_68:\n        /* \"#utility.yul\":361:504   */\n    tag_67:\n        /* \"#utility.yul\":528:529   */\n      0x00\n        /* \"#utility.yul\":513:762   */\n    tag_70:\n        /* \"#utility.yul\":538:544   */\n      dup6\n        /* \"#utility.yul\":535:536   */\n      dup2\n        /* \"#utility.yul\":532:545   */\n      lt\n        /* \"#utility.yul\":513:762   */\n      iszero\n      tag_72\n      jumpi\n        /* \"#utility.yul\":606:609   */\n      dup2\n        /* \"#utility.yul\":635:683   */\n      tag_73\n        /* \"#utility.yul\":679:682   */\n      dup9\n        /* \"#utility.yul\":667:677   */\n      dup3\n        /* \"#utility.yul\":635:683   */\n      tag_74\n      jump\t// in\n    tag_73:\n        /* \"#utility.yul\":630:633   */\n      dup5\n        /* \"#utility.yul\":623:684   */\n      mstore\n        /* \"#utility.yul\":713:717   */\n      0x20\n        /* \"#utility.yul\":708:711   */\n      dup5\n        /* \"#utility.yul\":704:718   */\n      add\n        /* \"#utility.yul\":697:718   */\n      swap4\n      pop\n        /* \"#utility.yul\":747:751   */\n      0x20\n        /* \"#utility.yul\":742:745   */\n      dup4\n        /* \"#utility.yul\":738:752   */\n      add\n        /* \"#utility.yul\":731:752   */\n      swap3\n      pop\n        /* \"#utility.yul\":573:762   */\n      pop\n        /* \"#utility.yul\":560:561   */\n      0x01\n        /* \"#utility.yul\":557:558   */\n      dup2\n        /* \"#utility.yul\":553:562   */\n      add\n        /* \"#utility.yul\":548:562   */\n      swap1\n      pop\n        /* \"#utility.yul\":513:762   */\n      jump(tag_70)\n    tag_72:\n        /* \"#utility.yul\":517:531   */\n      pop\n        /* \"#utility.yul\":137:768   */\n      pop\n      pop\n        /* \"#utility.yul\":24:768   */\n      swap4\n      swap3\n      pop\n      pop\n      pop\n      jump\t// out\n        /* \"#utility.yul\":774:913   */\n    tag_75:\n        /* \"#utility.yul\":820:825   */\n      0x00\n        /* \"#utility.yul\":858:864   */\n      dup2\n        /* \"#utility.yul\":845:865   */\n      calldataload\n        /* \"#utility.yul\":836:865   */\n      swap1\n      pop\n        /* \"#utility.yul\":874:907   */\n      tag_77\n        /* \"#utility.yul\":901:906   */\n      dup2\n        /* \"#utility.yul\":874:907   */\n      tag_78\n      jump\t// in\n    tag_77:\n        /* \"#utility.yul\":774:913   */\n      swap3\n      swap2\n      pop\n      pop\n      jump\t// out\n        /* \"#utility.yul\":919:1062   */\n    tag_79:\n        /* \"#utility.yul\":976:981   */\n      0x00\n        /* \"#utility.yul\":1007:1013   */\n      dup2\n        /* \"#utility.yul\":1001:1014   */\n      mload\n        /* \"#utility.yul\":992:1014   */\n      swap1\n      pop\n        /* \"#utility.yul\":1023:1056   */\n      tag_81\n        /* \"#utility.yul\":1050:1055   */\n      dup2\n        /* \"#utility.yul\":1023:1056   */\n      tag_78\n      jump\t// in\n    tag_81:\n        /* \"#utility.yul\":919:1062   */\n      swap3\n      swap2\n      pop\n      pop\n      jump\t// out\n        /* \"#utility.yul\":1085:1470   */\n    tag_82:\n        /* \"#utility.yul\":1167:1172   */\n      0x00\n        /* \"#utility.yul\":1216:1219   */\n      dup3\n        /* \"#utility.yul\":1209:1213   */\n      0x1f\n        /* \"#utility.yul\":1201:1207   */\n      dup4\n        /* \"#utility.yul\":1197:1214   */\n      add\n        /* \"#utility.yul\":1193:1220   */\n      slt\n        /* \"#utility.yul\":1183:1305   */\n      tag_84\n      jumpi\n        /* \"#utility.yul\":1224:1303   */\n      tag_85\n      tag_86\n      jump\t// in\n    tag_85:\n        /* \"#utility.yul\":1183:1305   */\n    tag_84:\n        /* \"#utility.yul\":1334:1340   */\n      dup2\n        /* \"#utility.yul\":1328:1341   */\n      mload\n        /* \"#utility.yul\":1359:1464   */\n      tag_87\n        /* \"#utility.yul\":1460:1463   */\n      dup5\n        /* \"#utility.yul\":1452:1458   */\n      dup3\n        /* \"#utility.yul\":1445:1449   */\n      0x20\n        /* \"#utility.yul\":1437:1443   */\n      dup7\n        /* \"#utility.yul\":1433:1450   */\n      add\n        /* \"#utility.yul\":1359:1464   */\n      tag_61\n      jump\t// in\n    tag_87:\n        /* \"#utility.yul\":1350:1464   */\n      swap2\n      pop\n        /* \"#utility.yul\":1173:1470   */\n      pop\n        /* \"#utility.yul\":1085:1470   */\n      swap3\n      swap2\n      pop\n      pop\n      jump\t// out\n        /* \"#utility.yul\":1476:1643   */\n    tag_88:\n        /* \"#utility.yul\":1536:1541   */\n      0x00\n        /* \"#utility.yul\":1574:1580   */\n      dup2\n        /* \"#utility.yul\":1561:1581   */\n      calldataload\n        /* \"#utility.yul\":1552:1581   */\n      swap1\n      pop\n        /* \"#utility.yul\":1590:1637   */\n      tag_90\n        /* \"#utility.yul\":1631:1636   */\n      dup2\n        /* \"#utility.yul\":1590:1637   */\n      tag_91\n      jump\t// in\n    tag_90:\n        /* \"#utility.yul\":1476:1643   */\n      swap3\n      swap2\n      pop\n      pop\n      jump\t// out\n        /* \"#utility.yul\":1649:1816   */\n    tag_92:\n        /* \"#utility.yul\":1709:1714   */\n      0x00\n        /* \"#utility.yul\":1747:1753   */\n      dup2\n        /* \"#utility.yul\":1734:1754   */\n      calldataload\n        /* \"#utility.yul\":1725:1754   */\n      swap1\n      pop\n        /* \"#utility.yul\":1763:1810   */\n      tag_94\n        /* \"#utility.yul\":1804:1809   */\n      dup2\n        /* \"#utility.yul\":1763:1810   */\n      tag_95\n      jump\t// in\n    tag_94:\n        /* \"#utility.yul\":1649:1816   */\n      swap3\n      swap2\n      pop\n      pop\n      jump\t// out\n        /* \"#utility.yul\":1822:1965   */\n    tag_74:\n        /* \"#utility.yul\":1879:1884   */\n      0x00\n        /* \"#utility.yul\":1910:1916   */\n      dup2\n        /* \"#utility.yul\":1904:1917   */\n      mload\n        /* \"#utility.yul\":1895:1917   */\n      swap1\n      pop\n        /* \"#utility.yul\":1926:1959   */\n      tag_97\n        /* \"#utility.yul\":1953:1958   */\n      dup2\n        /* \"#utility.yul\":1926:1959   */\n      tag_98\n      jump\t// in\n    tag_97:\n        /* \"#utility.yul\":1822:1965   */\n      swap3\n      swap2\n      pop\n      pop\n      jump\t// out\n        /* \"#utility.yul\":1971:2322   */\n    tag_25:\n        /* \"#utility.yul\":2041:2047   */\n      0x00\n        /* \"#utility.yul\":2090:2092   */\n      0x20\n        /* \"#utility.yul\":2078:2087   */\n      dup3\n        /* \"#utility.yul\":2069:2076   */\n      dup5\n        /* \"#utility.yul\":2065:2088   */\n      sub\n        /* \"#utility.yul\":2061:2093   */\n      slt\n        /* \"#utility.yul\":2058:2177   */\n      iszero\n      tag_100\n      jumpi\n        /* \"#utility.yul\":2096:2175   */\n      tag_101\n      tag_102\n      jump\t// in\n    tag_101:\n        /* \"#utility.yul\":2058:2177   */\n    tag_100:\n        /* \"#utility.yul\":2216:2217   */\n      0x00\n        /* \"#utility.yul\":2241:2305   */\n      tag_103\n        /* \"#utility.yul\":2297:2304   */\n      dup5\n        /* \"#utility.yul\":2288:2294   */\n      dup3\n        /* \"#utility.yul\":2277:2286   */\n      dup6\n        /* \"#utility.yul\":2273:2295   */\n      add\n        /* \"#utility.yul\":2241:2305   */\n      tag_79\n      jump\t// in\n    tag_103:\n        /* \"#utility.yul\":2231:2305   */\n      swap2\n      pop\n        /* \"#utility.yul\":2187:2315   */\n      pop\n        /* \"#utility.yul\":1971:2322   */\n      swap3\n      swap2\n      pop\n      pop\n      jump\t// out\n        /* \"#utility.yul\":2328:2882   */\n    tag_57:\n        /* \"#utility.yul\":2423:2429   */\n      0x00\n        /* \"#utility.yul\":2472:2474   */\n      0x20\n        /* \"#utility.yul\":2460:2469   */\n      dup3\n        /* \"#utility.yul\":2451:2458   */\n      dup5\n        /* \"#utility.yul\":2447:2470   */\n      sub\n        /* \"#utility.yul\":2443:2475   */\n      slt\n        /* \"#utility.yul\":2440:2559   */\n      iszero\n      tag_105\n      jumpi\n        /* \"#utility.yul\":2478:2557   */\n      tag_106\n      tag_102\n      jump\t// in\n    tag_106:\n        /* \"#utility.yul\":2440:2559   */\n    tag_105:\n        /* \"#utility.yul\":2619:2620   */\n      0x00\n        /* \"#utility.yul\":2608:2617   */\n      dup3\n        /* \"#utility.yul\":2604:2621   */\n      add\n        /* \"#utility.yul\":2598:2622   */\n      mload\n        /* \"#utility.yul\":2649:2667   */\n      0xffffffffffffffff\n        /* \"#utility.yul\":2641:2647   */\n      dup2\n        /* \"#utility.yul\":2638:2668   */\n      gt\n        /* \"#utility.yul\":2635:2752   */\n      iszero\n      tag_107\n      jumpi\n        /* \"#utility.yul\":2671:2750   */\n      tag_108\n      tag_109\n      jump\t// in\n    tag_108:\n        /* \"#utility.yul\":2635:2752   */\n    tag_107:\n        /* \"#utility.yul\":2776:2865   */\n      tag_110\n        /* \"#utility.yul\":2857:2864   */\n      dup5\n        /* \"#utility.yul\":2848:2854   */\n      dup3\n        /* \"#utility.yul\":2837:2846   */\n      dup6\n        /* \"#utility.yul\":2833:2855   */\n      add\n        /* \"#utility.yul\":2776:2865   */\n      tag_82\n      jump\t// in\n    tag_110:\n        /* \"#utility.yul\":2766:2865   */\n      swap2\n      pop\n        /* \"#utility.yul\":2569:2875   */\n      pop\n        /* \"#utility.yul\":2328:2882   */\n      swap3\n      swap2\n      pop\n      pop\n      jump\t// out\n        /* \"#utility.yul\":2888:3563   */\n    tag_8:\n        /* \"#utility.yul\":2993:2999   */\n      0x00\n        /* \"#utility.yul\":3001:3007   */\n      dup1\n        /* \"#utility.yul\":3009:3015   */\n      0x00\n        /* \"#utility.yul\":3058:3060   */\n      0x60\n        /* \"#utility.yul\":3046:3055   */\n      dup5\n        /* \"#utility.yul\":3037:3044   */\n      dup7\n        /* \"#utility.yul\":3033:3056   */\n      sub\n        /* \"#utility.yul\":3029:3061   */\n      slt\n        /* \"#utility.yul\":3026:3145   */\n      iszero\n      tag_112\n      jumpi\n        /* \"#utility.yul\":3064:3143   */\n      tag_113\n      tag_102\n      jump\t// in\n    tag_113:\n        /* \"#utility.yul\":3026:3145   */\n    tag_112:\n        /* \"#utility.yul\":3184:3185   */\n      0x00\n        /* \"#utility.yul\":3209:3276   */\n      tag_114\n        /* \"#utility.yul\":3268:3275   */\n      dup7\n        /* \"#utility.yul\":3259:3265   */\n      dup3\n        /* \"#utility.yul\":3248:3257   */\n      dup8\n        /* \"#utility.yul\":3244:3266   */\n      add\n        /* \"#utility.yul\":3209:3276   */\n      tag_88\n      jump\t// in\n    tag_114:\n        /* \"#utility.yul\":3199:3276   */\n      swap4\n      pop\n        /* \"#utility.yul\":3155:3286   */\n      pop\n        /* \"#utility.yul\":3325:3327   */\n      0x20\n        /* \"#utility.yul\":3351:3418   */\n      tag_115\n        /* \"#utility.yul\":3410:3417   */\n      dup7\n        /* \"#utility.yul\":3401:3407   */\n      dup3\n        /* \"#utility.yul\":3390:3399   */\n      dup8\n        /* \"#utility.yul\":3386:3408   */\n      add\n        /* \"#utility.yul\":3351:3418   */\n      tag_92\n      jump\t// in\n    tag_115:\n        /* \"#utility.yul\":3341:3418   */\n      swap3\n      pop\n        /* \"#utility.yul\":3296:3428   */\n      pop\n        /* \"#utility.yul\":3467:3469   */\n      0x40\n        /* \"#utility.yul\":3493:3546   */\n      tag_116\n        /* \"#utility.yul\":3538:3545   */\n      dup7\n        /* \"#utility.yul\":3529:3535   */\n      dup3\n        /* \"#utility.yul\":3518:3527   */\n      dup8\n        /* \"#utility.yul\":3514:3536   */\n      add\n        /* \"#utility.yul\":3493:3546   */\n      tag_75\n      jump\t// in\n    tag_116:\n        /* \"#utility.yul\":3483:3546   */\n      swap2\n      pop\n        /* \"#utility.yul\":3438:3556   */\n      pop\n        /* \"#utility.yul\":2888:3563   */\n      swap3\n      pop\n      swap3\n      pop\n      swap3\n      jump\t// out\n        /* \"#utility.yul\":3569:3920   */\n    tag_36:\n        /* \"#utility.yul\":3639:3645   */\n      0x00\n        /* \"#utility.yul\":3688:3690   */\n      0x20\n        /* \"#utility.yul\":3676:3685   */\n      dup3\n        /* \"#utility.yul\":3667:3674   */\n      dup5\n        /* \"#utility.yul\":3663:3686   */\n      sub\n        /* \"#utility.yul\":3659:3691   */\n      slt\n        /* \"#utility.yul\":3656:3775   */\n      iszero\n      tag_118\n      jumpi\n        /* \"#utility.yul\":3694:3773   */\n      tag_119\n      tag_102\n      jump\t// in\n    tag_119:\n        /* \"#utility.yul\":3656:3775   */\n    tag_118:\n        /* \"#utility.yul\":3814:3815   */\n      0x00\n        /* \"#utility.yul\":3839:3903   */\n      tag_120\n        /* \"#utility.yul\":3895:3902   */\n      dup5\n        /* \"#utility.yul\":3886:3892   */\n      dup3\n        /* \"#utility.yul\":3875:3884   */\n      dup6\n        /* \"#utility.yul\":3871:3893   */\n      add\n        /* \"#utility.yul\":3839:3903   */\n      tag_74\n      jump\t// in\n    tag_120:\n        /* \"#utility.yul\":3829:3903   */\n      swap2\n      pop\n        /* \"#utility.yul\":3785:3913   */\n      pop\n        /* \"#utility.yul\":3569:3920   */\n      swap3\n      swap2\n      pop\n      pop\n      jump\t// out\n        /* \"#utility.yul\":3926:4105   */\n    tag_121:\n        /* \"#utility.yul\":3995:4005   */\n      0x00\n        /* \"#utility.yul\":4016:4062   */\n      tag_123\n        /* \"#utility.yul\":4058:4061   */\n      dup4\n        /* \"#utility.yul\":4050:4056   */\n      dup4\n        /* \"#utility.yul\":4016:4062   */\n      tag_124\n      jump\t// in\n    tag_123:\n        /* \"#utility.yul\":4094:4098   */\n      0x20\n        /* \"#utility.yul\":4089:4092   */\n      dup4\n        /* \"#utility.yul\":4085:4099   */\n      add\n        /* \"#utility.yul\":4071:4099   */\n      swap1\n      pop\n        /* \"#utility.yul\":3926:4105   */\n      swap3\n      swap2\n      pop\n      pop\n      jump\t// out\n        /* \"#utility.yul\":4111:4219   */\n    tag_124:\n        /* \"#utility.yul\":4188:4212   */\n      tag_126\n        /* \"#utility.yul\":4206:4211   */\n      dup2\n        /* \"#utility.yul\":4188:4212   */\n      tag_127\n      jump\t// in\n    tag_126:\n        /* \"#utility.yul\":4183:4186   */\n      dup3\n        /* \"#utility.yul\":4176:4213   */\n      mstore\n        /* \"#utility.yul\":4111:4219   */\n      pop\n      pop\n      jump\t// out\n        /* \"#utility.yul\":4225:4343   */\n    tag_128:\n        /* \"#utility.yul\":4312:4336   */\n      tag_130\n        /* \"#utility.yul\":4330:4335   */\n      dup2\n        /* \"#utility.yul\":4312:4336   */\n      tag_127\n      jump\t// in\n    tag_130:\n        /* \"#utility.yul\":4307:4310   */\n      dup3\n        /* \"#utility.yul\":4300:4337   */\n      mstore\n        /* \"#utility.yul\":4225:4343   */\n      pop\n      pop\n      jump\t// out\n        /* \"#utility.yul\":4379:5111   */\n    tag_131:\n        /* \"#utility.yul\":4498:4501   */\n      0x00\n        /* \"#utility.yul\":4527:4581   */\n      tag_133\n        /* \"#utility.yul\":4575:4580   */\n      dup3\n        /* \"#utility.yul\":4527:4581   */\n      tag_134\n      jump\t// in\n    tag_133:\n        /* \"#utility.yul\":4597:4683   */\n      tag_135\n        /* \"#utility.yul\":4676:4682   */\n      dup2\n        /* \"#utility.yul\":4671:4674   */\n      dup6\n        /* \"#utility.yul\":4597:4683   */\n      tag_136\n      jump\t// in\n    tag_135:\n        /* \"#utility.yul\":4590:4683   */\n      swap4\n      pop\n        /* \"#utility.yul\":4707:4763   */\n      tag_137\n        /* \"#utility.yul\":4757:4762   */\n      dup4\n        /* \"#utility.yul\":4707:4763   */\n      tag_138\n      jump\t// in\n    tag_137:\n        /* \"#utility.yul\":4786:4793   */\n      dup1\n        /* \"#utility.yul\":4817:4818   */\n      0x00\n        /* \"#utility.yul\":4802:5086   */\n    tag_139:\n        /* \"#utility.yul\":4827:4833   */\n      dup4\n        /* \"#utility.yul\":4824:4825   */\n      dup2\n        /* \"#utility.yul\":4821:4834   */\n      lt\n        /* \"#utility.yul\":4802:5086   */\n      iszero\n      tag_141\n      jumpi\n        /* \"#utility.yul\":4903:4909   */\n      dup2\n        /* \"#utility.yul\":4897:4910   */\n      mload\n        /* \"#utility.yul\":4930:4993   */\n      tag_142\n        /* \"#utility.yul\":4989:4992   */\n      dup9\n        /* \"#utility.yul\":4974:4987   */\n      dup3\n        /* \"#utility.yul\":4930:4993   */\n      tag_121\n      jump\t// in\n    tag_142:\n        /* \"#utility.yul\":4923:4993   */\n      swap8\n      pop\n        /* \"#utility.yul\":5016:5076   */\n      tag_143\n        /* \"#utility.yul\":5069:5075   */\n      dup4\n        /* \"#utility.yul\":5016:5076   */\n      tag_144\n      jump\t// in\n    tag_143:\n        /* \"#utility.yul\":5006:5076   */\n      swap3\n      pop\n        /* \"#utility.yul\":4862:5086   */\n      pop\n        /* \"#utility.yul\":4849:4850   */\n      0x01\n        /* \"#utility.yul\":4846:4847   */\n      dup2\n        /* \"#utility.yul\":4842:4851   */\n      add\n        /* \"#utility.yul\":4837:4851   */\n      swap1\n      pop\n        /* \"#utility.yul\":4802:5086   */\n      jump(tag_139)\n    tag_141:\n        /* \"#utility.yul\":4806:4820   */\n      pop\n        /* \"#utility.yul\":5102:5105   */\n      dup6\n        /* \"#utility.yul\":5095:5105   */\n      swap4\n      pop\n        /* \"#utility.yul\":4503:5111   */\n      pop\n      pop\n      pop\n        /* \"#utility.yul\":4379:5111   */\n      swap3\n      swap2\n      pop\n      pop\n      jump\t// out\n        /* \"#utility.yul\":5117:5235   */\n    tag_145:\n        /* \"#utility.yul\":5204:5228   */\n      tag_147\n        /* \"#utility.yul\":5222:5227   */\n      dup2\n        /* \"#utility.yul\":5204:5228   */\n      tag_148\n      jump\t// in\n    tag_147:\n        /* \"#utility.yul\":5199:5202   */\n      dup3\n        /* \"#utility.yul\":5192:5229   */\n      mstore\n        /* \"#utility.yul\":5117:5235   */\n      pop\n      pop\n      jump\t// out\n        /* \"#utility.yul\":5241:5463   */\n    tag_15:\n        /* \"#utility.yul\":5334:5338   */\n      0x00\n        /* \"#utility.yul\":5372:5374   */\n      0x20\n        /* \"#utility.yul\":5361:5370   */\n      dup3\n        /* \"#utility.yul\":5357:5375   */\n      add\n        /* \"#utility.yul\":5349:5375   */\n      swap1\n      pop\n        /* \"#utility.yul\":5385:5456   */\n      tag_150\n        /* \"#utility.yul\":5453:5454   */\n      0x00\n        /* \"#utility.yul\":5442:5451   */\n      dup4\n        /* \"#utility.yul\":5438:5455   */\n      add\n        /* \"#utility.yul\":5429:5435   */\n      dup5\n        /* \"#utility.yul\":5385:5456   */\n      tag_128\n      jump\t// in\n    tag_150:\n        /* \"#utility.yul\":5241:5463   */\n      swap3\n      swap2\n      pop\n      pop\n      jump\t// out\n        /* \"#utility.yul\":5469:5691   */\n    tag_11:\n        /* \"#utility.yul\":5562:5566   */\n      0x00\n        /* \"#utility.yul\":5600:5602   */\n      0x20\n        /* \"#utility.yul\":5589:5598   */\n      dup3\n        /* \"#utility.yul\":5585:5603   */\n      add\n        /* \"#utility.yul\":5577:5603   */\n      swap1\n      pop\n        /* \"#utility.yul\":5613:5684   */\n      tag_152\n        /* \"#utility.yul\":5681:5682   */\n      0x00\n        /* \"#utility.yul\":5670:5679   */\n      dup4\n        /* \"#utility.yul\":5666:5683   */\n      add\n        /* \"#utility.yul\":5657:5663   */\n      dup5\n        /* \"#utility.yul\":5613:5684   */\n      tag_145\n      jump\t// in\n    tag_152:\n        /* \"#utility.yul\":5469:5691   */\n      swap3\n      swap2\n      pop\n      pop\n      jump\t// out\n        /* \"#utility.yul\":5697:6180   */\n    tag_52:\n        /* \"#utility.yul\":5868:5872   */\n      0x00\n        /* \"#utility.yul\":5906:5908   */\n      0x40\n        /* \"#utility.yul\":5895:5904   */\n      dup3\n        /* \"#utility.yul\":5891:5909   */\n      add\n        /* \"#utility.yul\":5883:5909   */\n      swap1\n      pop\n        /* \"#utility.yul\":5919:5990   */\n      tag_154\n        /* \"#utility.yul\":5987:5988   */\n      0x00\n        /* \"#utility.yul\":5976:5985   */\n      dup4\n        /* \"#utility.yul\":5972:5989   */\n      add\n        /* \"#utility.yul\":5963:5969   */\n      dup6\n        /* \"#utility.yul\":5919:5990   */\n      tag_145\n      jump\t// in\n    tag_154:\n        /* \"#utility.yul\":6037:6046   */\n      dup2\n        /* \"#utility.yul\":6031:6035   */\n      dup2\n        /* \"#utility.yul\":6027:6047   */\n      sub\n        /* \"#utility.yul\":6022:6024   */\n      0x20\n        /* \"#utility.yul\":6011:6020   */\n      dup4\n        /* \"#utility.yul\":6007:6025   */\n      add\n        /* \"#utility.yul\":6000:6048   */\n      mstore\n        /* \"#utility.yul\":6065:6173   */\n      tag_155\n        /* \"#utility.yul\":6168:6172   */\n      dup2\n        /* \"#utility.yul\":6159:6165   */\n      dup5\n        /* \"#utility.yul\":6065:6173   */\n      tag_131\n      jump\t// in\n    tag_155:\n        /* \"#utility.yul\":6057:6173   */\n      swap1\n      pop\n        /* \"#utility.yul\":5697:6180   */\n      swap4\n      swap3\n      pop\n      pop\n      pop\n      jump\t// out\n        /* \"#utility.yul\":6186:6315   */\n    tag_66:\n        /* \"#utility.yul\":6220:6226   */\n      0x00\n        /* \"#utility.yul\":6247:6267   */\n      tag_157\n      tag_158\n      jump\t// in\n    tag_157:\n        /* \"#utility.yul\":6237:6267   */\n      swap1\n      pop\n        /* \"#utility.yul\":6276:6309   */\n      tag_159\n        /* \"#utility.yul\":6304:6308   */\n      dup3\n        /* \"#utility.yul\":6296:6302   */\n      dup3\n        /* \"#utility.yul\":6276:6309   */\n      tag_160\n      jump\t// in\n    tag_159:\n        /* \"#utility.yul\":6186:6315   */\n      swap2\n      swap1\n      pop\n      jump\t// out\n        /* \"#utility.yul\":6321:6396   */\n    tag_158:\n        /* \"#utility.yul\":6354:6360   */\n      0x00\n        /* \"#utility.yul\":6387:6389   */\n      0x40\n        /* \"#utility.yul\":6381:6390   */\n      mload\n        /* \"#utility.yul\":6371:6390   */\n      swap1\n      pop\n        /* \"#utility.yul\":6321:6396   */\n      swap1\n      jump\t// out\n        /* \"#utility.yul\":6402:6713   */\n    tag_65:\n        /* \"#utility.yul\":6479:6483   */\n      0x00\n        /* \"#utility.yul\":6569:6587   */\n      0xffffffffffffffff\n        /* \"#utility.yul\":6561:6567   */\n      dup3\n        /* \"#utility.yul\":6558:6588   */\n      gt\n        /* \"#utility.yul\":6555:6611   */\n      iszero\n      tag_163\n      jumpi\n        /* \"#utility.yul\":6591:6609   */\n      tag_164\n      tag_42\n      jump\t// in\n    tag_164:\n        /* \"#utility.yul\":6555:6611   */\n    tag_163:\n        /* \"#utility.yul\":6641:6645   */\n      0x20\n        /* \"#utility.yul\":6633:6639   */\n      dup3\n        /* \"#utility.yul\":6629:6646   */\n      mul\n        /* \"#utility.yul\":6621:6646   */\n      swap1\n      pop\n        /* \"#utility.yul\":6701:6705   */\n      0x20\n        /* \"#utility.yul\":6695:6699   */\n      dup2\n        /* \"#utility.yul\":6691:6706   */\n      add\n        /* \"#utility.yul\":6683:6706   */\n      swap1\n      pop\n        /* \"#utility.yul\":6402:6713   */\n      swap2\n      swap1\n      pop\n      jump\t// out\n        /* \"#utility.yul\":6719:6851   */\n    tag_138:\n        /* \"#utility.yul\":6786:6790   */\n      0x00\n        /* \"#utility.yul\":6809:6812   */\n      dup2\n        /* \"#utility.yul\":6801:6812   */\n      swap1\n      pop\n        /* \"#utility.yul\":6839:6843   */\n      0x20\n        /* \"#utility.yul\":6834:6837   */\n      dup3\n        /* \"#utility.yul\":6830:6844   */\n      add\n        /* \"#utility.yul\":6822:6844   */\n      swap1\n      pop\n        /* \"#utility.yul\":6719:6851   */\n      swap2\n      swap1\n      pop\n      jump\t// out\n        /* \"#utility.yul\":6857:6971   */\n    tag_134:\n        /* \"#utility.yul\":6924:6930   */\n      0x00\n        /* \"#utility.yul\":6958:6963   */\n      dup2\n        /* \"#utility.yul\":6952:6964   */\n      mload\n        /* \"#utility.yul\":6942:6964   */\n      swap1\n      pop\n        /* \"#utility.yul\":6857:6971   */\n      swap2\n      swap1\n      pop\n      jump\t// out\n        /* \"#utility.yul\":6977:7090   */\n    tag_144:\n        /* \"#utility.yul\":7047:7051   */\n      0x00\n        /* \"#utility.yul\":7079:7083   */\n      0x20\n        /* \"#utility.yul\":7074:7077   */\n      dup3\n        /* \"#utility.yul\":7070:7084   */\n      add\n        /* \"#utility.yul\":7062:7084   */\n      swap1\n      pop\n        /* \"#utility.yul\":6977:7090   */\n      swap2\n      swap1\n      pop\n      jump\t// out\n        /* \"#utility.yul\":7096:7280   */\n    tag_136:\n        /* \"#utility.yul\":7195:7206   */\n      0x00\n        /* \"#utility.yul\":7229:7235   */\n      dup3\n        /* \"#utility.yul\":7224:7227   */\n      dup3\n        /* \"#utility.yul\":7217:7236   */\n      mstore\n        /* \"#utility.yul\":7269:7273   */\n      0x20\n        /* \"#utility.yul\":7264:7267   */\n      dup3\n        /* \"#utility.yul\":7260:7274   */\n      add\n        /* \"#utility.yul\":7245:7274   */\n      swap1\n      pop\n        /* \"#utility.yul\":7096:7280   */\n      swap3\n      swap2\n      pop\n      pop\n      jump\t// out\n        /* \"#utility.yul\":7286:7634   */\n    tag_38:\n        /* \"#utility.yul\":7326:7333   */\n      0x00\n        /* \"#utility.yul\":7349:7369   */\n      tag_170\n        /* \"#utility.yul\":7367:7368   */\n      dup3\n        /* \"#utility.yul\":7349:7369   */\n      tag_148\n      jump\t// in\n    tag_170:\n        /* \"#utility.yul\":7344:7369   */\n      swap2\n      pop\n        /* \"#utility.yul\":7383:7403   */\n      tag_171\n        /* \"#utility.yul\":7401:7402   */\n      dup4\n        /* \"#utility.yul\":7383:7403   */\n      tag_148\n      jump\t// in\n    tag_171:\n        /* \"#utility.yul\":7378:7403   */\n      swap3\n      pop\n        /* \"#utility.yul\":7571:7572   */\n      dup2\n        /* \"#utility.yul\":7503:7569   */\n      0xffffffffffffffffffffffffffffffffffffffffffffffffffffffffffffffff\n        /* \"#utility.yul\":7499:7573   */\n      div\n        /* \"#utility.yul\":7496:7497   */\n      dup4\n        /* \"#utility.yul\":7493:7574   */\n      gt\n        /* \"#utility.yul\":7488:7489   */\n      dup3\n        /* \"#utility.yul\":7481:7490   */\n      iszero\n        /* \"#utility.yul\":7474:7491   */\n      iszero\n        /* \"#utility.yul\":7470:7575   */\n      and\n        /* \"#utility.yul\":7467:7598   */\n      iszero\n      tag_172\n      jumpi\n        /* \"#utility.yul\":7578:7596   */\n      tag_173\n      tag_174\n      jump\t// in\n    tag_173:\n        /* \"#utility.yul\":7467:7598   */\n    tag_172:\n        /* \"#utility.yul\":7626:7627   */\n      dup3\n        /* \"#utility.yul\":7623:7624   */\n      dup3\n        /* \"#utility.yul\":7619:7628   */\n      mul\n        /* \"#utility.yul\":7608:7628   */\n      swap1\n      pop\n        /* \"#utility.yul\":7286:7634   */\n      swap3\n      swap2\n      pop\n      pop\n      jump\t// out\n        /* \"#utility.yul\":7640:7736   */\n    tag_127:\n        /* \"#utility.yul\":7677:7684   */\n      0x00\n        /* \"#utility.yul\":7706:7730   */\n      tag_176\n        /* \"#utility.yul\":7724:7729   */\n      dup3\n        /* \"#utility.yul\":7706:7730   */\n      tag_177\n      jump\t// in\n    tag_176:\n        /* \"#utility.yul\":7695:7730   */\n      swap1\n      pop\n        /* \"#utility.yul\":7640:7736   */\n      swap2\n      swap1\n      pop\n      jump\t// out\n        /* \"#utility.yul\":7742:7852   */\n    tag_178:\n        /* \"#utility.yul\":7793:7800   */\n      0x00\n        /* \"#utility.yul\":7822:7846   */\n      tag_180\n        /* \"#utility.yul\":7840:7845   */\n      dup3\n        /* \"#utility.yul\":7822:7846   */\n      tag_127\n      jump\t// in\n    tag_180:\n        /* \"#utility.yul\":7811:7846   */\n      swap1\n      pop\n        /* \"#utility.yul\":7742:7852   */\n      swap2\n      swap1\n      pop\n      jump\t// out\n        /* \"#utility.yul\":7858:7968   */\n    tag_181:\n        /* \"#utility.yul\":7909:7916   */\n      0x00\n        /* \"#utility.yul\":7938:7962   */\n      tag_183\n        /* \"#utility.yul\":7956:7961   */\n      dup3\n        /* \"#utility.yul\":7938:7962   */\n      tag_127\n      jump\t// in\n    tag_183:\n        /* \"#utility.yul\":7927:7962   */\n      swap1\n      pop\n        /* \"#utility.yul\":7858:7968   */\n      swap2\n      swap1\n      pop\n      jump\t// out\n        /* \"#utility.yul\":7974:8100   */\n    tag_177:\n        /* \"#utility.yul\":8011:8018   */\n      0x00\n        /* \"#utility.yul\":8051:8093   */\n      0xffffffffffffffffffffffffffffffffffffffff\n        /* \"#utility.yul\":8044:8049   */\n      dup3\n        /* \"#utility.yul\":8040:8094   */\n      and\n        /* \"#utility.yul\":8029:8094   */\n      swap1\n      pop\n        /* \"#utility.yul\":7974:8100   */\n      swap2\n      swap1\n      pop\n      jump\t// out\n        /* \"#utility.yul\":8106:8183   */\n    tag_148:\n        /* \"#utility.yul\":8143:8150   */\n      0x00\n        /* \"#utility.yul\":8172:8177   */\n      dup2\n        /* \"#utility.yul\":8161:8177   */\n      swap1\n      pop\n        /* \"#utility.yul\":8106:8183   */\n      swap2\n      swap1\n      pop\n      jump\t// out\n        /* \"#utility.yul\":8189:8470   */\n    tag_160:\n        /* \"#utility.yul\":8272:8299   */\n      tag_187\n        /* \"#utility.yul\":8294:8298   */\n      dup3\n        /* \"#utility.yul\":8272:8299   */\n      tag_188\n      jump\t// in\n    tag_187:\n        /* \"#utility.yul\":8264:8270   */\n      dup2\n        /* \"#utility.yul\":8260:8300   */\n      add\n        /* \"#utility.yul\":8402:8408   */\n      dup2\n        /* \"#utility.yul\":8390:8400   */\n      dup2\n        /* \"#utility.yul\":8387:8409   */\n      lt\n        /* \"#utility.yul\":8366:8384   */\n      0xffffffffffffffff\n        /* \"#utility.yul\":8354:8364   */\n      dup3\n        /* \"#utility.yul\":8351:8385   */\n      gt\n        /* \"#utility.yul\":8348:8410   */\n      or\n        /* \"#utility.yul\":8345:8433   */\n      iszero\n      tag_189\n      jumpi\n        /* \"#utility.yul\":8413:8431   */\n      tag_190\n      tag_42\n      jump\t// in\n    tag_190:\n        /* \"#utility.yul\":8345:8433   */\n    tag_189:\n        /* \"#utility.yul\":8453:8463   */\n      dup1\n        /* \"#utility.yul\":8449:8451   */\n      0x40\n        /* \"#utility.yul\":8442:8464   */\n      mstore\n        /* \"#utility.yul\":8232:8470   */\n      pop\n        /* \"#utility.yul\":8189:8470   */\n      pop\n      pop\n      jump\t// out\n        /* \"#utility.yul\":8476:8656   */\n    tag_174:\n        /* \"#utility.yul\":8524:8601   */\n      0x4e487b7100000000000000000000000000000000000000000000000000000000\n        /* \"#utility.yul\":8521:8522   */\n      0x00\n        /* \"#utility.yul\":8514:8602   */\n      mstore\n        /* \"#utility.yul\":8621:8625   */\n      0x11\n        /* \"#utility.yul\":8618:8619   */\n      0x04\n        /* \"#utility.yul\":8611:8626   */\n      mstore\n        /* \"#utility.yul\":8645:8649   */\n      0x24\n        /* \"#utility.yul\":8642:8643   */\n      0x00\n        /* \"#utility.yul\":8635:8650   */\n      revert\n        /* \"#utility.yul\":8662:8842   */\n    tag_46:\n        /* \"#utility.yul\":8710:8787   */\n      0x4e487b7100000000000000000000000000000000000000000000000000000000\n        /* \"#utility.yul\":8707:8708   */\n      0x00\n        /* \"#utility.yul\":8700:8788   */\n      mstore\n        /* \"#utility.yul\":8807:8811   */\n      0x32\n        /* \"#utility.yul\":8804:8805   */\n      0x04\n        /* \"#utility.yul\":8797:8812   */\n      mstore\n        /* \"#utility.yul\":8831:8835   */\n      0x24\n        /* \"#utility.yul\":8828:8829   */\n      0x00\n        /* \"#utility.yul\":8821:8836   */\n      revert\n        /* \"#utility.yul\":8848:9028   */\n    tag_42:\n        /* \"#utility.yul\":8896:8973   */\n      0x4e487b7100000000000000000000000000000000000000000000000000000000\n        /* \"#utility.yul\":8893:8894   */\n      0x00\n        /* \"#utility.yul\":8886:8974   */\n      mstore\n        /* \"#utility.yul\":8993:8997   */\n      0x41\n        /* \"#utility.yul\":8990:8991   */\n      0x04\n        /* \"#utility.yul\":8983:8998   */\n      mstore\n        /* \"#utility.yul\":9017:9021   */\n      0x24\n        /* \"#utility.yul\":9014:9015   */\n      0x00\n        /* \"#utility.yul\":9007:9022   */\n      revert\n        /* \"#utility.yul\":9034:9151   */\n    tag_86:\n        /* \"#utility.yul\":9143:9144   */\n      0x00\n        /* \"#utility.yul\":9140:9141   */\n      dup1\n        /* \"#utility.yul\":9133:9145   */\n      revert\n        /* \"#utility.yul\":9157:9274   */\n    tag_69:\n        /* \"#utility.yul\":9266:9267   */\n      0x00\n        /* \"#utility.yul\":9263:9264   */\n      dup1\n        /* \"#utility.yul\":9256:9268   */\n      revert\n        /* \"#utility.yul\":9280:9397   */\n    tag_109:\n        /* \"#utility.yul\":9389:9390   */\n      0x00\n        /* \"#utility.yul\":9386:9387   */\n      dup1\n        /* \"#utility.yul\":9379:9391   */\n      revert\n        /* \"#utility.yul\":9403:9520   */\n    tag_102:\n        /* \"#utility.yul\":9512:9513   */\n      0x00\n        /* \"#utility.yul\":9509:9510   */\n      dup1\n        /* \"#utility.yul\":9502:9514   */\n      revert\n        /* \"#utility.yul\":9526:9628   */\n    tag_188:\n        /* \"#utility.yul\":9567:9573   */\n      0x00\n        /* \"#utility.yul\":9618:9620   */\n      0x1f\n        /* \"#utility.yul\":9614:9621   */\n      not\n        /* \"#utility.yul\":9609:9611   */\n      0x1f\n        /* \"#utility.yul\":9602:9607   */\n      dup4\n        /* \"#utility.yul\":9598:9612   */\n      add\n        /* \"#utility.yul\":9594:9622   */\n      and\n        /* \"#utility.yul\":9584:9622   */\n      swap1\n      pop\n        /* \"#utility.yul\":9526:9628   */\n      swap2\n      swap1\n      pop\n      jump\t// out\n        /* \"#utility.yul\":9634:9756   */\n    tag_78:\n        /* \"#utility.yul\":9707:9731   */\n      tag_200\n        /* \"#utility.yul\":9725:9730   */\n      dup2\n        /* \"#utility.yul\":9707:9731   */\n      tag_127\n      jump\t// in\n    tag_200:\n        /* \"#utility.yul\":9700:9705   */\n      dup2\n        /* \"#utility.yul\":9697:9732   */\n      eq\n        /* \"#utility.yul\":9687:9750   */\n      tag_201\n      jumpi\n        /* \"#utility.yul\":9746:9747   */\n      0x00\n        /* \"#utility.yul\":9743:9744   */\n      dup1\n        /* \"#utility.yul\":9736:9748   */\n      revert\n        /* \"#utility.yul\":9687:9750   */\n    tag_201:\n        /* \"#utility.yul\":9634:9756   */\n      pop\n      jump\t// out\n        /* \"#utility.yul\":9762:9912   */\n    tag_91:\n        /* \"#utility.yul\":9849:9887   */\n      tag_203\n        /* \"#utility.yul\":9881:9886   */\n      dup2\n        /* \"#utility.yul\":9849:9887   */\n      tag_178\n      jump\t// in\n    tag_203:\n        /* \"#utility.yul\":9842:9847   */\n      dup2\n        /* \"#utility.yul\":9839:9888   */\n      eq\n        /* \"#utility.yul\":9829:9906   */\n      tag_204\n      jumpi\n        /* \"#utility.yul\":9902:9903   */\n      0x00\n        /* \"#utility.yul\":9899:9900   */\n      dup1\n        /* \"#utility.yul\":9892:9904   */\n      revert\n        /* \"#utility.yul\":9829:9906   */\n    tag_204:\n        /* \"#utility.yul\":9762:9912   */\n      pop\n      jump\t// out\n        /* \"#utility.yul\":9918:10068   */\n    tag_95:\n        /* \"#utility.yul\":10005:10043   */\n      tag_206\n        /* \"#utility.yul\":10037:10042   */\n      dup2\n        /* \"#utility.yul\":10005:10043   */\n      tag_181\n      jump\t// in\n    tag_206:\n        /* \"#utility.yul\":9998:10003   */\n      dup2\n        /* \"#utility.yul\":9995:10044   */\n      eq\n        /* \"#utility.yul\":9985:10062   */\n      tag_207\n      jumpi\n        /* \"#utility.yul\":10058:10059   */\n      0x00\n        /* \"#utility.yul\":10055:10056   */\n      dup1\n        /* \"#utility.yul\":10048:10060   */\n      revert\n        /* \"#utility.yul\":9985:10062   */\n    tag_207:\n        /* \"#utility.yul\":9918:10068   */\n      pop\n      jump\t// out\n        /* \"#utility.yul\":10074:10196   */\n    tag_98:\n        /* \"#utility.yul\":10147:10171   */\n      tag_209\n        /* \"#utility.yul\":10165:10170   */\n      dup2\n        /* \"#utility.yul\":10147:10171   */\n      tag_148\n      jump\t// in\n    tag_209:\n        /* \"#utility.yul\":10140:10145   */\n      dup2\n        /* \"#utility.yul\":10137:10172   */\n      eq\n        /* \"#utility.yul\":10127:10190   */\n      tag_210\n      jumpi\n        /* \"#utility.yul\":10186:10187   */\n      0x00\n        /* \"#utility.yul\":10183:10184   */\n      dup1\n        /* \"#utility.yul\":10176:10188   */\n      revert\n        /* \"#utility.yul\":10127:10190   */\n    tag_210:\n        /* \"#utility.yul\":10074:10196   */\n      pop\n      jump\t// out\n\n    auxdata: 0xa264697066735822122008ce865198629ba41f9ccf2fb5dce08bd9ae69d4e7205f5723284fdf802734a164736f6c63430008070033\n}\n",
				"bytecode": {
					"linkReferences": {},
					"object": "608060405273ae13d989dac2f0debff460ac112a837c89baa7cd6000806101000a81548173ffffffffffffffffffffffffffffffffffffffff021916908373ffffffffffffffffffffffffffffffffffffffff1602179055507378867bbeef44f2326bf8ddd1941a4439382ef2a7600160006101000a81548173ffffffffffffffffffffffffffffffffffffffff021916908373ffffffffffffffffffffffffffffffffffffffff160217905550670de0b6b3a76400006002553480156100c557600080fd5b50610a91806100d56000396000f3fe608060405234801561001057600080fd5b50600436106100415760003560e01c806320ae0b6d14610046578063484f4ea9146100765780638dd9500214610094575b600080fd5b610060600480360381019061005b919061064f565b6100b2565b60405161006d919061078d565b60405180910390f35b61007e610254565b60405161008b9190610772565b60405180910390f35b61009c61027a565b6040516100a99190610772565b60405180910390f35b600061013b838573ffffffffffffffffffffffffffffffffffffffff16630dfe16816040518163ffffffff1660e01b815260040160206040518083038186803b1580156100fe57600080fd5b505afa158015610112573d6000803e3d6000fd5b505050506040513d601f19601f8201168201806040525081019061013691906105d9565b61029e565b8473ffffffffffffffffffffffffffffffffffffffff166370a082318673ffffffffffffffffffffffffffffffffffffffff16630dfe16816040518163ffffffff1660e01b815260040160206040518083038186803b15801561019d57600080fd5b505afa1580156101b1573d6000803e3d6000fd5b505050506040513d601f19601f820116820180604052508101906101d591906105d9565b6040518263ffffffff1660e01b81526004016101f19190610772565b60206040518083038186803b15801561020957600080fd5b505afa15801561021d573d6000803e3d6000fd5b505050506040513d601f19601f8201168201806040525081019061024191906106a2565b61024b9190610862565b90509392505050565b600160009054906101000a900473ffffffffffffffffffffffffffffffffffffffff1681565b60008054906101000a900473ffffffffffffffffffffffffffffffffffffffff1681565b600080600367ffffffffffffffff8111156102bc576102bb6109ab565b5b6040519080825280602002602001820160405280156102ea5781602001602082028036833780820191505090505b50905082816000815181106103025761030161097c565b5b602002602001019073ffffffffffffffffffffffffffffffffffffffff16908173ffffffffffffffffffffffffffffffffffffffff168152505060008054906101000a900473ffffffffffffffffffffffffffffffffffffffff16816001815181106103715761037061097c565b5b602002602001019073ffffffffffffffffffffffffffffffffffffffff16908173ffffffffffffffffffffffffffffffffffffffff1681525050600160009054906101000a900473ffffffffffffffffffffffffffffffffffffffff16816002815181106103e2576103e161097c565b5b602002602001019073ffffffffffffffffffffffffffffffffffffffff16908173ffffffffffffffffffffffffffffffffffffffff16815250508373ffffffffffffffffffffffffffffffffffffffff1663d06ca61f600254836040518363ffffffff1660e01b81526004016104599291906107a8565b60006040518083038186803b15801561047157600080fd5b505afa158015610485573d6000803e3d6000fd5b505050506040513d6000823e3d601f19601f820116820180604052508101906104ae9190610606565b6002815181106104c1576104c061097c565b5b602002602001015191505092915050565b60006104e56104e0846107fd565b6107d8565b90508083825260208201905082856020860282011115610508576105076109df565b5b60005b85811015610538578161051e88826105c4565b84526020840193506020830192505060018101905061050b565b5050509392505050565b600081359050610551816109ff565b92915050565b600081519050610566816109ff565b92915050565b600082601f830112610581576105806109da565b5b81516105918482602086016104d2565b91505092915050565b6000813590506105a981610a16565b92915050565b6000813590506105be81610a2d565b92915050565b6000815190506105d381610a44565b92915050565b6000602082840312156105ef576105ee6109e9565b5b60006105fd84828501610557565b91505092915050565b60006020828403121561061c5761061b6109e9565b5b600082015167ffffffffffffffff81111561063a576106396109e4565b5b6106468482850161056c565b91505092915050565b600080600060608486031215610668576106676109e9565b5b60006106768682870161059a565b9350506020610687868287016105af565b925050604061069886828701610542565b9150509250925092565b6000602082840312156106b8576106b76109e9565b5b60006106c6848285016105c4565b91505092915050565b60006106db83836106e7565b60208301905092915050565b6106f0816108bc565b82525050565b6106ff816108bc565b82525050565b600061071082610839565b61071a8185610851565b935061072583610829565b8060005b8381101561075657815161073d88826106cf565b975061074883610844565b925050600181019050610729565b5085935050505092915050565b61076c81610912565b82525050565b600060208201905061078760008301846106f6565b92915050565b60006020820190506107a26000830184610763565b92915050565b60006040820190506107bd6000830185610763565b81810360208301526107cf8184610705565b90509392505050565b60006107e26107f3565b90506107ee828261091c565b919050565b6000604051905090565b600067ffffffffffffffff821115610818576108176109ab565b5b602082029050602081019050919050565b6000819050602082019050919050565b600081519050919050565b6000602082019050919050565b600082825260208201905092915050565b600061086d82610912565b915061087883610912565b9250817fffffffffffffffffffffffffffffffffffffffffffffffffffffffffffffffff04831182151516156108b1576108b061094d565b5b828202905092915050565b60006108c7826108f2565b9050919050565b60006108d9826108bc565b9050919050565b60006108eb826108bc565b9050919050565b600073ffffffffffffffffffffffffffffffffffffffff82169050919050565b6000819050919050565b610925826109ee565b810181811067ffffffffffffffff82111715610944576109436109ab565b5b80604052505050565b7f4e487b7100000000000000000000000000000000000000000000000000000000600052601160045260246000fd5b7f4e487b7100000000000000000000000000000000000000000000000000000000600052603260045260246000fd5b7f4e487b7100000000000000000000000000000000000000000000000000000000600052604160045260246000fd5b600080fd5b600080fd5b600080fd5b600080fd5b6000601f19601f8301169050919050565b610a08816108bc565b8114610a1357600080fd5b50565b610a1f816108ce565b8114610a2a57600080fd5b50565b610a36816108e0565b8114610a4157600080fd5b50565b610a4d81610912565b8114610a5857600080fd5b5056fea264697066735822122008ce865198629ba41f9ccf2fb5dce08bd9ae69d4e7205f5723284fdf802734a164736f6c63430008070033",
					"opcodes": "PUSH1 0x80 PUSH1 0x40 MSTORE PUSH20 0xAE13D989DAC2F0DEBFF460AC112A837C89BAA7CD PUSH1 0x0 DUP1 PUSH2 0x100 EXP DUP2 SLOAD DUP2 PUSH20 0xFFFFFFFFFFFFFFFFFFFFFFFFFFFFFFFFFFFFFFFF MUL NOT AND SWAP1 DUP4 PUSH20 0xFFFFFFFFFFFFFFFFFFFFFFFFFFFFFFFFFFFFFFFF AND MUL OR SWAP1 SSTORE POP PUSH20 0x78867BBEEF44F2326BF8DDD1941A4439382EF2A7 PUSH1 0x1 PUSH1 0x0 PUSH2 0x100 EXP DUP2 SLOAD DUP2 PUSH20 0xFFFFFFFFFFFFFFFFFFFFFFFFFFFFFFFFFFFFFFFF MUL NOT AND SWAP1 DUP4 PUSH20 0xFFFFFFFFFFFFFFFFFFFFFFFFFFFFFFFFFFFFFFFF AND MUL OR SWAP1 SSTORE POP PUSH8 0xDE0B6B3A7640000 PUSH1 0x2 SSTORE CALLVALUE DUP1 ISZERO PUSH2 0xC5 JUMPI PUSH1 0x0 DUP1 REVERT JUMPDEST POP PUSH2 0xA91 DUP1 PUSH2 0xD5 PUSH1 0x0 CODECOPY PUSH1 0x0 RETURN INVALID PUSH1 0x80 PUSH1 0x40 MSTORE CALLVALUE DUP1 ISZERO PUSH2 0x10 JUMPI PUSH1 0x0 DUP1 REVERT JUMPDEST POP PUSH1 0x4 CALLDATASIZE LT PUSH2 0x41 JUMPI PUSH1 0x0 CALLDATALOAD PUSH1 0xE0 SHR DUP1 PUSH4 0x20AE0B6D EQ PUSH2 0x46 JUMPI DUP1 PUSH4 0x484F4EA9 EQ PUSH2 0x76 JUMPI DUP1 PUSH4 0x8DD95002 EQ PUSH2 0x94 JUMPI JUMPDEST PUSH1 0x0 DUP1 REVERT JUMPDEST PUSH2 0x60 PUSH1 0x4 DUP1 CALLDATASIZE SUB DUP2 ADD SWAP1 PUSH2 0x5B SWAP2 SWAP1 PUSH2 0x64F JUMP JUMPDEST PUSH2 0xB2 JUMP JUMPDEST PUSH1 0x40 MLOAD PUSH2 0x6D SWAP2 SWAP1 PUSH2 0x78D JUMP JUMPDEST PUSH1 0x40 MLOAD DUP1 SWAP2 SUB SWAP1 RETURN JUMPDEST PUSH2 0x7E PUSH2 0x254 JUMP JUMPDEST PUSH1 0x40 MLOAD PUSH2 0x8B SWAP2 SWAP1 PUSH2 0x772 JUMP JUMPDEST PUSH1 0x40 MLOAD DUP1 SWAP2 SUB SWAP1 RETURN JUMPDEST PUSH2 0x9C PUSH2 0x27A JUMP JUMPDEST PUSH1 0x40 MLOAD PUSH2 0xA9 SWAP2 SWAP1 PUSH2 0x772 JUMP JUMPDEST PUSH1 0x40 MLOAD DUP1 SWAP2 SUB SWAP1 RETURN JUMPDEST PUSH1 0x0 PUSH2 0x13B DUP4 DUP6 PUSH20 0xFFFFFFFFFFFFFFFFFFFFFFFFFFFFFFFFFFFFFFFF AND PUSH4 0xDFE1681 PUSH1 0x40 MLOAD DUP2 PUSH4 0xFFFFFFFF AND PUSH1 0xE0 SHL DUP2 MSTORE PUSH1 0x4 ADD PUSH1 0x20 PUSH1 0x40 MLOAD DUP1 DUP4 SUB DUP2 DUP7 DUP1 EXTCODESIZE ISZERO DUP1 ISZERO PUSH2 0xFE JUMPI PUSH1 0x0 DUP1 REVERT JUMPDEST POP GAS STATICCALL ISZERO DUP1 ISZERO PUSH2 0x112 JUMPI RETURNDATASIZE PUSH1 0x0 DUP1 RETURNDATACOPY RETURNDATASIZE PUSH1 0x0 REVERT JUMPDEST POP POP POP POP PUSH1 0x40 MLOAD RETURNDATASIZE PUSH1 0x1F NOT PUSH1 0x1F DUP3 ADD AND DUP3 ADD DUP1 PUSH1 0x40 MSTORE POP DUP2 ADD SWAP1 PUSH2 0x136 SWAP2 SWAP1 PUSH2 0x5D9 JUMP JUMPDEST PUSH2 0x29E JUMP JUMPDEST DUP5 PUSH20 0xFFFFFFFFFFFFFFFFFFFFFFFFFFFFFFFFFFFFFFFF AND PUSH4 0x70A08231 DUP7 PUSH20 0xFFFFFFFFFFFFFFFFFFFFFFFFFFFFFFFFFFFFFFFF AND PUSH4 0xDFE1681 PUSH1 0x40 MLOAD DUP2 PUSH4 0xFFFFFFFF AND PUSH1 0xE0 SHL DUP2 MSTORE PUSH1 0x4 ADD PUSH1 0x20 PUSH1 0x40 MLOAD DUP1 DUP4 SUB DUP2 DUP7 DUP1 EXTCODESIZE ISZERO DUP1 ISZERO PUSH2 0x19D JUMPI PUSH1 0x0 DUP1 REVERT JUMPDEST POP GAS STATICCALL ISZERO DUP1 ISZERO PUSH2 0x1B1 JUMPI RETURNDATASIZE PUSH1 0x0 DUP1 RETURNDATACOPY RETURNDATASIZE PUSH1 0x0 REVERT JUMPDEST POP POP POP POP PUSH1 0x40 MLOAD RETURNDATASIZE PUSH1 0x1F NOT PUSH1 0x1F DUP3 ADD AND DUP3 ADD DUP1 PUSH1 0x40 MSTORE POP DUP2 ADD SWAP1 PUSH2 0x1D5 SWAP2 SWAP1 PUSH2 0x5D9 JUMP JUMPDEST PUSH1 0x40 MLOAD DUP3 PUSH4 0xFFFFFFFF AND PUSH1 0xE0 SHL DUP2 MSTORE PUSH1 0x4 ADD PUSH2 0x1F1 SWAP2 SWAP1 PUSH2 0x772 JUMP JUMPDEST PUSH1 0x20 PUSH1 0x40 MLOAD DUP1 DUP4 SUB DUP2 DUP7 DUP1 EXTCODESIZE ISZERO DUP1 ISZERO PUSH2 0x209 JUMPI PUSH1 0x0 DUP1 REVERT JUMPDEST POP GAS STATICCALL ISZERO DUP1 ISZERO PUSH2 0x21D JUMPI RETURNDATASIZE PUSH1 0x0 DUP1 RETURNDATACOPY RETURNDATASIZE PUSH1 0x0 REVERT JUMPDEST POP POP POP POP PUSH1 0x40 MLOAD RETURNDATASIZE PUSH1 0x1F NOT PUSH1 0x1F DUP3 ADD AND DUP3 ADD DUP1 PUSH1 0x40 MSTORE POP DUP2 ADD SWAP1 PUSH2 0x241 SWAP2 SWAP1 PUSH2 0x6A2 JUMP JUMPDEST PUSH2 0x24B SWAP2 SWAP1 PUSH2 0x862 JUMP JUMPDEST SWAP1 POP SWAP4 SWAP3 POP POP POP JUMP JUMPDEST PUSH1 0x1 PUSH1 0x0 SWAP1 SLOAD SWAP1 PUSH2 0x100 EXP SWAP1 DIV PUSH20 0xFFFFFFFFFFFFFFFFFFFFFFFFFFFFFFFFFFFFFFFF AND DUP2 JUMP JUMPDEST PUSH1 0x0 DUP1 SLOAD SWAP1 PUSH2 0x100 EXP SWAP1 DIV PUSH20 0xFFFFFFFFFFFFFFFFFFFFFFFFFFFFFFFFFFFFFFFF AND DUP2 JUMP JUMPDEST PUSH1 0x0 DUP1 PUSH1 0x3 PUSH8 0xFFFFFFFFFFFFFFFF DUP2 GT ISZERO PUSH2 0x2BC JUMPI PUSH2 0x2BB PUSH2 0x9AB JUMP JUMPDEST JUMPDEST PUSH1 0x40 MLOAD SWAP1 DUP1 DUP3 MSTORE DUP1 PUSH1 0x20 MUL PUSH1 0x20 ADD DUP3 ADD PUSH1 0x40 MSTORE DUP1 ISZERO PUSH2 0x2EA JUMPI DUP2 PUSH1 0x20 ADD PUSH1 0x20 DUP3 MUL DUP1 CALLDATASIZE DUP4 CALLDATACOPY DUP1 DUP3 ADD SWAP2 POP POP SWAP1 POP JUMPDEST POP SWAP1 POP DUP3 DUP2 PUSH1 0x0 DUP2 MLOAD DUP2 LT PUSH2 0x302 JUMPI PUSH2 0x301 PUSH2 0x97C JUMP JUMPDEST JUMPDEST PUSH1 0x20 MUL PUSH1 0x20 ADD ADD SWAP1 PUSH20 0xFFFFFFFFFFFFFFFFFFFFFFFFFFFFFFFFFFFFFFFF AND SWAP1 DUP2 PUSH20 0xFFFFFFFFFFFFFFFFFFFFFFFFFFFFFFFFFFFFFFFF AND DUP2 MSTORE POP POP PUSH1 0x0 DUP1 SLOAD SWAP1 PUSH2 0x100 EXP SWAP1 DIV PUSH20 0xFFFFFFFFFFFFFFFFFFFFFFFFFFFFFFFFFFFFFFFF AND DUP2 PUSH1 0x1 DUP2 MLOAD DUP2 LT PUSH2 0x371 JUMPI PUSH2 0x370 PUSH2 0x97C JUMP JUMPDEST JUMPDEST PUSH1 0x20 MUL PUSH1 0x20 ADD ADD SWAP1 PUSH20 0xFFFFFFFFFFFFFFFFFFFFFFFFFFFFFFFFFFFFFFFF AND SWAP1 DUP2 PUSH20 0xFFFFFFFFFFFFFFFFFFFFFFFFFFFFFFFFFFFFFFFF AND DUP2 MSTORE POP POP PUSH1 0x1 PUSH1 0x0 SWAP1 SLOAD SWAP1 PUSH2 0x100 EXP SWAP1 DIV PUSH20 0xFFFFFFFFFFFFFFFFFFFFFFFFFFFFFFFFFFFFFFFF AND DUP2 PUSH1 0x2 DUP2 MLOAD DUP2 LT PUSH2 0x3E2 JUMPI PUSH2 0x3E1 PUSH2 0x97C JUMP JUMPDEST JUMPDEST PUSH1 0x20 MUL PUSH1 0x20 ADD ADD SWAP1 PUSH20 0xFFFFFFFFFFFFFFFFFFFFFFFFFFFFFFFFFFFFFFFF AND SWAP1 DUP2 PUSH20 0xFFFFFFFFFFFFFFFFFFFFFFFFFFFFFFFFFFFFFFFF AND DUP2 MSTORE POP POP DUP4 PUSH20 0xFFFFFFFFFFFFFFFFFFFFFFFFFFFFFFFFFFFFFFFF AND PUSH4 0xD06CA61F PUSH1 0x2 SLOAD DUP4 PUSH1 0x40 MLOAD DUP4 PUSH4 0xFFFFFFFF AND PUSH1 0xE0 SHL DUP2 MSTORE PUSH1 0x4 ADD PUSH2 0x459 SWAP3 SWAP2 SWAP1 PUSH2 0x7A8 JUMP JUMPDEST PUSH1 0x0 PUSH1 0x40 MLOAD DUP1 DUP4 SUB DUP2 DUP7 DUP1 EXTCODESIZE ISZERO DUP1 ISZERO PUSH2 0x471 JUMPI PUSH1 0x0 DUP1 REVERT JUMPDEST POP GAS STATICCALL ISZERO DUP1 ISZERO PUSH2 0x485 JUMPI RETURNDATASIZE PUSH1 0x0 DUP1 RETURNDATACOPY RETURNDATASIZE PUSH1 0x0 REVERT JUMPDEST POP POP POP POP PUSH1 0x40 MLOAD RETURNDATASIZE PUSH1 0x0 DUP3 RETURNDATACOPY RETURNDATASIZE PUSH1 0x1F NOT PUSH1 0x1F DUP3 ADD AND DUP3 ADD DUP1 PUSH1 0x40 MSTORE POP DUP2 ADD SWAP1 PUSH2 0x4AE SWAP2 SWAP1 PUSH2 0x606 JUMP JUMPDEST PUSH1 0x2 DUP2 MLOAD DUP2 LT PUSH2 0x4C1 JUMPI PUSH2 0x4C0 PUSH2 0x97C JUMP JUMPDEST JUMPDEST PUSH1 0x20 MUL PUSH1 0x20 ADD ADD MLOAD SWAP2 POP POP SWAP3 SWAP2 POP POP JUMP JUMPDEST PUSH1 0x0 PUSH2 0x4E5 PUSH2 0x4E0 DUP5 PUSH2 0x7FD JUMP JUMPDEST PUSH2 0x7D8 JUMP JUMPDEST SWAP1 POP DUP1 DUP4 DUP3 MSTORE PUSH1 0x20 DUP3 ADD SWAP1 POP DUP3 DUP6 PUSH1 0x20 DUP7 MUL DUP3 ADD GT ISZERO PUSH2 0x508 JUMPI PUSH2 0x507 PUSH2 0x9DF JUMP JUMPDEST JUMPDEST PUSH1 0x0 JUMPDEST DUP6 DUP2 LT ISZERO PUSH2 0x538 JUMPI DUP2 PUSH2 0x51E DUP9 DUP3 PUSH2 0x5C4 JUMP JUMPDEST DUP5 MSTORE PUSH1 0x20 DUP5 ADD SWAP4 POP PUSH1 0x20 DUP4 ADD SWAP3 POP POP PUSH1 0x1 DUP2 ADD SWAP1 POP PUSH2 0x50B JUMP JUMPDEST POP POP POP SWAP4 SWAP3 POP POP POP JUMP JUMPDEST PUSH1 0x0 DUP2 CALLDATALOAD SWAP1 POP PUSH2 0x551 DUP2 PUSH2 0x9FF JUMP JUMPDEST SWAP3 SWAP2 POP POP JUMP JUMPDEST PUSH1 0x0 DUP2 MLOAD SWAP1 POP PUSH2 0x566 DUP2 PUSH2 0x9FF JUMP JUMPDEST SWAP3 SWAP2 POP POP JUMP JUMPDEST PUSH1 0x0 DUP3 PUSH1 0x1F DUP4 ADD SLT PUSH2 0x581 JUMPI PUSH2 0x580 PUSH2 0x9DA JUMP JUMPDEST JUMPDEST DUP2 MLOAD PUSH2 0x591 DUP5 DUP3 PUSH1 0x20 DUP7 ADD PUSH2 0x4D2 JUMP JUMPDEST SWAP2 POP POP SWAP3 SWAP2 POP POP JUMP JUMPDEST PUSH1 0x0 DUP2 CALLDATALOAD SWAP1 POP PUSH2 0x5A9 DUP2 PUSH2 0xA16 JUMP JUMPDEST SWAP3 SWAP2 POP POP JUMP JUMPDEST PUSH1 0x0 DUP2 CALLDATALOAD SWAP1 POP PUSH2 0x5BE DUP2 PUSH2 0xA2D JUMP JUMPDEST SWAP3 SWAP2 POP POP JUMP JUMPDEST PUSH1 0x0 DUP2 MLOAD SWAP1 POP PUSH2 0x5D3 DUP2 PUSH2 0xA44 JUMP JUMPDEST SWAP3 SWAP2 POP POP JUMP JUMPDEST PUSH1 0x0 PUSH1 0x20 DUP3 DUP5 SUB SLT ISZERO PUSH2 0x5EF JUMPI PUSH2 0x5EE PUSH2 0x9E9 JUMP JUMPDEST JUMPDEST PUSH1 0x0 PUSH2 0x5FD DUP5 DUP3 DUP6 ADD PUSH2 0x557 JUMP JUMPDEST SWAP2 POP POP SWAP3 SWAP2 POP POP JUMP JUMPDEST PUSH1 0x0 PUSH1 0x20 DUP3 DUP5 SUB SLT ISZERO PUSH2 0x61C JUMPI PUSH2 0x61B PUSH2 0x9E9 JUMP JUMPDEST JUMPDEST PUSH1 0x0 DUP3 ADD MLOAD PUSH8 0xFFFFFFFFFFFFFFFF DUP2 GT ISZERO PUSH2 0x63A JUMPI PUSH2 0x639 PUSH2 0x9E4 JUMP JUMPDEST JUMPDEST PUSH2 0x646 DUP5 DUP3 DUP6 ADD PUSH2 0x56C JUMP JUMPDEST SWAP2 POP POP SWAP3 SWAP2 POP POP JUMP JUMPDEST PUSH1 0x0 DUP1 PUSH1 0x0 PUSH1 0x60 DUP5 DUP7 SUB SLT ISZERO PUSH2 0x668 JUMPI PUSH2 0x667 PUSH2 0x9E9 JUMP JUMPDEST JUMPDEST PUSH1 0x0 PUSH2 0x676 DUP7 DUP3 DUP8 ADD PUSH2 0x59A JUMP JUMPDEST SWAP4 POP POP PUSH1 0x20 PUSH2 0x687 DUP7 DUP3 DUP8 ADD PUSH2 0x5AF JUMP JUMPDEST SWAP3 POP POP PUSH1 0x40 PUSH2 0x698 DUP7 DUP3 DUP8 ADD PUSH2 0x542 JUMP JUMPDEST SWAP2 POP POP SWAP3 POP SWAP3 POP SWAP3 JUMP JUMPDEST PUSH1 0x0 PUSH1 0x20 DUP3 DUP5 SUB SLT ISZERO PUSH2 0x6B8 JUMPI PUSH2 0x6B7 PUSH2 0x9E9 JUMP JUMPDEST JUMPDEST PUSH1 0x0 PUSH2 0x6C6 DUP5 DUP3 DUP6 ADD PUSH2 0x5C4 JUMP JUMPDEST SWAP2 POP POP SWAP3 SWAP2 POP POP JUMP JUMPDEST PUSH1 0x0 PUSH2 0x6DB DUP4 DUP4 PUSH2 0x6E7 JUMP JUMPDEST PUSH1 0x20 DUP4 ADD SWAP1 POP SWAP3 SWAP2 POP POP JUMP JUMPDEST PUSH2 0x6F0 DUP2 PUSH2 0x8BC JUMP JUMPDEST DUP3 MSTORE POP POP JUMP JUMPDEST PUSH2 0x6FF DUP2 PUSH2 0x8BC JUMP JUMPDEST DUP3 MSTORE POP POP JUMP JUMPDEST PUSH1 0x0 PUSH2 0x710 DUP3 PUSH2 0x839 JUMP JUMPDEST PUSH2 0x71A DUP2 DUP6 PUSH2 0x851 JUMP JUMPDEST SWAP4 POP PUSH2 0x725 DUP4 PUSH2 0x829 JUMP JUMPDEST DUP1 PUSH1 0x0 JUMPDEST DUP4 DUP2 LT ISZERO PUSH2 0x756 JUMPI DUP2 MLOAD PUSH2 0x73D DUP9 DUP3 PUSH2 0x6CF JUMP JUMPDEST SWAP8 POP PUSH2 0x748 DUP4 PUSH2 0x844 JUMP JUMPDEST SWAP3 POP POP PUSH1 0x1 DUP2 ADD SWAP1 POP PUSH2 0x729 JUMP JUMPDEST POP DUP6 SWAP4 POP POP POP POP SWAP3 SWAP2 POP POP JUMP JUMPDEST PUSH2 0x76C DUP2 PUSH2 0x912 JUMP JUMPDEST DUP3 MSTORE POP POP JUMP JUMPDEST PUSH1 0x0 PUSH1 0x20 DUP3 ADD SWAP1 POP PUSH2 0x787 PUSH1 0x0 DUP4 ADD DUP5 PUSH2 0x6F6 JUMP JUMPDEST SWAP3 SWAP2 POP POP JUMP JUMPDEST PUSH1 0x0 PUSH1 0x20 DUP3 ADD SWAP1 POP PUSH2 0x7A2 PUSH1 0x0 DUP4 ADD DUP5 PUSH2 0x763 JUMP JUMPDEST SWAP3 SWAP2 POP POP JUMP JUMPDEST PUSH1 0x0 PUSH1 0x40 DUP3 ADD SWAP1 POP PUSH2 0x7BD PUSH1 0x0 DUP4 ADD DUP6 PUSH2 0x763 JUMP JUMPDEST DUP2 DUP2 SUB PUSH1 0x20 DUP4 ADD MSTORE PUSH2 0x7CF DUP2 DUP5 PUSH2 0x705 JUMP JUMPDEST SWAP1 POP SWAP4 SWAP3 POP POP POP JUMP JUMPDEST PUSH1 0x0 PUSH2 0x7E2 PUSH2 0x7F3 JUMP JUMPDEST SWAP1 POP PUSH2 0x7EE DUP3 DUP3 PUSH2 0x91C JUMP JUMPDEST SWAP2 SWAP1 POP JUMP JUMPDEST PUSH1 0x0 PUSH1 0x40 MLOAD SWAP1 POP SWAP1 JUMP JUMPDEST PUSH1 0x0 PUSH8 0xFFFFFFFFFFFFFFFF DUP3 GT ISZERO PUSH2 0x818 JUMPI PUSH2 0x817 PUSH2 0x9AB JUMP JUMPDEST JUMPDEST PUSH1 0x20 DUP3 MUL SWAP1 POP PUSH1 0x20 DUP2 ADD SWAP1 POP SWAP2 SWAP1 POP JUMP JUMPDEST PUSH1 0x0 DUP2 SWAP1 POP PUSH1 0x20 DUP3 ADD SWAP1 POP SWAP2 SWAP1 POP JUMP JUMPDEST PUSH1 0x0 DUP2 MLOAD SWAP1 POP SWAP2 SWAP1 POP JUMP JUMPDEST PUSH1 0x0 PUSH1 0x20 DUP3 ADD SWAP1 POP SWAP2 SWAP1 POP JUMP JUMPDEST PUSH1 0x0 DUP3 DUP3 MSTORE PUSH1 0x20 DUP3 ADD SWAP1 POP SWAP3 SWAP2 POP POP JUMP JUMPDEST PUSH1 0x0 PUSH2 0x86D DUP3 PUSH2 0x912 JUMP JUMPDEST SWAP2 POP PUSH2 0x878 DUP4 PUSH2 0x912 JUMP JUMPDEST SWAP3 POP DUP2 PUSH32 0xFFFFFFFFFFFFFFFFFFFFFFFFFFFFFFFFFFFFFFFFFFFFFFFFFFFFFFFFFFFFFFFF DIV DUP4 GT DUP3 ISZERO ISZERO AND ISZERO PUSH2 0x8B1 JUMPI PUSH2 0x8B0 PUSH2 0x94D JUMP JUMPDEST JUMPDEST DUP3 DUP3 MUL SWAP1 POP SWAP3 SWAP2 POP POP JUMP JUMPDEST PUSH1 0x0 PUSH2 0x8C7 DUP3 PUSH2 0x8F2 JUMP JUMPDEST SWAP1 POP SWAP2 SWAP1 POP JUMP JUMPDEST PUSH1 0x0 PUSH2 0x8D9 DUP3 PUSH2 0x8BC JUMP JUMPDEST SWAP1 POP SWAP2 SWAP1 POP JUMP JUMPDEST PUSH1 0x0 PUSH2 0x8EB DUP3 PUSH2 0x8BC JUMP JUMPDEST SWAP1 POP SWAP2 SWAP1 POP JUMP JUMPDEST PUSH1 0x0 PUSH20 0xFFFFFFFFFFFFFFFFFFFFFFFFFFFFFFFFFFFFFFFF DUP3 AND SWAP1 POP SWAP2 SWAP1 POP JUMP JUMPDEST PUSH1 0x0 DUP2 SWAP1 POP SWAP2 SWAP1 POP JUMP JUMPDEST PUSH2 0x925 DUP3 PUSH2 0x9EE JUMP JUMPDEST DUP2 ADD DUP2 DUP2 LT PUSH8 0xFFFFFFFFFFFFFFFF DUP3 GT OR ISZERO PUSH2 0x944 JUMPI PUSH2 0x943 PUSH2 0x9AB JUMP JUMPDEST JUMPDEST DUP1 PUSH1 0x40 MSTORE POP POP POP JUMP JUMPDEST PUSH32 0x4E487B7100000000000000000000000000000000000000000000000000000000 PUSH1 0x0 MSTORE PUSH1 0x11 PUSH1 0x4 MSTORE PUSH1 0x24 PUSH1 0x0 REVERT JUMPDEST PUSH32 0x4E487B7100000000000000000000000000000000000000000000000000000000 PUSH1 0x0 MSTORE PUSH1 0x32 PUSH1 0x4 MSTORE PUSH1 0x24 PUSH1 0x0 REVERT JUMPDEST PUSH32 0x4E487B7100000000000000000000000000000000000000000000000000000000 PUSH1 0x0 MSTORE PUSH1 0x41 PUSH1 0x4 MSTORE PUSH1 0x24 PUSH1 0x0 REVERT JUMPDEST PUSH1 0x0 DUP1 REVERT JUMPDEST PUSH1 0x0 DUP1 REVERT JUMPDEST PUSH1 0x0 DUP1 REVERT JUMPDEST PUSH1 0x0 DUP1 REVERT JUMPDEST PUSH1 0x0 PUSH1 0x1F NOT PUSH1 0x1F DUP4 ADD AND SWAP1 POP SWAP2 SWAP1 POP JUMP JUMPDEST PUSH2 0xA08 DUP2 PUSH2 0x8BC JUMP JUMPDEST DUP2 EQ PUSH2 0xA13 JUMPI PUSH1 0x0 DUP1 REVERT JUMPDEST POP JUMP JUMPDEST PUSH2 0xA1F DUP2 PUSH2 0x8CE JUMP JUMPDEST DUP2 EQ PUSH2 0xA2A JUMPI PUSH1 0x0 DUP1 REVERT JUMPDEST POP JUMP JUMPDEST PUSH2 0xA36 DUP2 PUSH2 0x8E0 JUMP JUMPDEST DUP2 EQ PUSH2 0xA41 JUMPI PUSH1 0x0 DUP1 REVERT JUMPDEST POP JUMP JUMPDEST PUSH2 0xA4D DUP2 PUSH2 0x912 JUMP JUMPDEST DUP2 EQ PUSH2 0xA58 JUMPI PUSH1 0x0 DUP1 REVERT JUMPDEST POP JUMP INVALID LOG2 PUSH5 0x6970667358 0x22 SLT KECCAK256 ADDMOD 0xCE DUP7 MLOAD SWAP9 PUSH3 0x9BA41F SWAP13 0xCF 0x2F 0xB5 0xDC 0xE0 DUP12 0xD9 0xAE PUSH10 0xD4E7205F5723284FDF80 0x27 CALLVALUE LOG1 PUSH5 0x736F6C6343 STOP ADDMOD SMOD STOP CALLER "
				},
				"gasEstimates": {
					"creation": {
						"codeDepositCost": "541000",
						"executionCost": "71215",
						"totalCost": "612215"
					},
					"external": {
						"BUSD()": "2514",
						"CalcLpPrice(address,address,address)": "infinite",
						"WBNB()": "2533"
					},
					"internal": {
						"price(contract Router,address)": "infinite"
					}
				},
				"methodIdentifiers": {
					"BUSD()": "484f4ea9",
					"CalcLpPrice(address,address,address)": "20ae0b6d",
					"WBNB()": "8dd95002"
				}
			},
			"storageLayout": {
				"storage": [
					{
						"astId": 332,
						"contract": "contracts/LpPrice.sol:LpUtils",
						"label": "WBNB",
						"offset": 0,
						"slot": "0",
						"type": "t_address"
					},
					{
						"astId": 335,
						"contract": "contracts/LpPrice.sol:LpUtils",
						"label": "BUSD",
						"offset": 0,
						"slot": "1",
						"type": "t_address"
					},
					{
						"astId": 338,
						"contract": "contracts/LpPrice.sol:LpUtils",
						"label": "amount",
						"offset": 0,
						"slot": "2",
						"type": "t_uint256"
					}
				],
				"types": {
					"t_address": {
						"encoding": "inplace",
						"label": "address",
						"numberOfBytes": "20"
					},
					"t_uint256": {
						"encoding": "inplace",
						"label": "uint256",
						"numberOfBytes": "32"
					}
				}
			},
			"userdoc": {
				"kind": "user",
				"methods": {},
				"version": 1
			}
		}
	}
}