{
	"contracts/Utils.sol": {
		"Utils": {
			"abi": [
				{
					"inputs": [
						{
							"internalType": "contract Router",
							"name": "_routerAddress",
							"type": "address"
						},
						{
							"internalType": "address",
							"name": "_WBNB",
							"type": "address"
						},
						{
							"internalType": "address",
							"name": "_BUSD",
							"type": "address"
						}
					],
					"stateMutability": "nonpayable",
					"type": "constructor"
				},
				{
					"anonymous": false,
					"inputs": [
						{
							"indexed": true,
							"internalType": "address",
							"name": "previousOwner",
							"type": "address"
						},
						{
							"indexed": true,
							"internalType": "address",
							"name": "newOwner",
							"type": "address"
						}
					],
					"name": "OwnershipTransferred",
					"type": "event"
				},
				{
					"inputs": [],
					"name": "BUSD",
					"outputs": [
						{
							"internalType": "address",
							"name": "",
							"type": "address"
						}
					],
					"stateMutability": "view",
					"type": "function"
				},
				{
					"inputs": [
						{
							"internalType": "uint256",
							"name": "pid",
							"type": "uint256"
						},
						{
							"internalType": "contract LP",
							"name": "lpAddress",
							"type": "address"
						},
						{
							"internalType": "uint256",
							"name": "isLp",
							"type": "uint256"
						},
						{
							"internalType": "contract MetaMasterChef",
							"name": "MasterChef",
							"type": "address"
						}
					],
					"name": "CalcApy",
					"outputs": [
						{
							"internalType": "uint256",
							"name": "",
							"type": "uint256"
						}
					],
					"stateMutability": "view",
					"type": "function"
				},
				{
					"inputs": [
						{
							"internalType": "uint256",
							"name": "pid",
							"type": "uint256"
						},
						{
							"internalType": "contract NFTMasterChef",
							"name": "MasterChef",
							"type": "address"
						}
					],
					"name": "CalcApyNFTFarm",
					"outputs": [
						{
							"internalType": "uint256",
							"name": "",
							"type": "uint256"
						}
					],
					"stateMutability": "view",
					"type": "function"
				},
				{
					"inputs": [
						{
							"internalType": "contract LP",
							"name": "lpAddress",
							"type": "address"
						}
					],
					"name": "CalcLpPrice",
					"outputs": [
						{
							"internalType": "uint256",
							"name": "",
							"type": "uint256"
						}
					],
					"stateMutability": "view",
					"type": "function"
				},
				{
					"inputs": [
						{
							"internalType": "contract MetaMasterChef",
							"name": "MasterChef",
							"type": "address"
						},
						{
							"internalType": "contract LP[]",
							"name": "lpAddress",
							"type": "address[]"
						}
					],
					"name": "CalcTotalTVL",
					"outputs": [
						{
							"internalType": "uint256",
							"name": "",
							"type": "uint256"
						}
					],
					"stateMutability": "view",
					"type": "function"
				},
				{
					"inputs": [
						{
							"internalType": "contract MetaMasterChef",
							"name": "MasterChef",
							"type": "address"
						},
						{
							"internalType": "contract LP[]",
							"name": "lpAddress",
							"type": "address[]"
						}
					],
					"name": "CalcTotalTVLNFTFarm",
					"outputs": [
						{
							"internalType": "uint256",
							"name": "",
							"type": "uint256"
						}
					],
					"stateMutability": "view",
					"type": "function"
				},
				{
					"inputs": [
						{
							"internalType": "address",
							"name": "token",
							"type": "address"
						}
					],
					"name": "Tokenprice",
					"outputs": [
						{
							"internalType": "uint256",
							"name": "",
							"type": "uint256"
						}
					],
					"stateMutability": "view",
					"type": "function"
				},
				{
					"inputs": [],
					"name": "WBNB",
					"outputs": [
						{
							"internalType": "address",
							"name": "",
							"type": "address"
						}
					],
					"stateMutability": "view",
					"type": "function"
				},
				{
					"inputs": [
						{
							"internalType": "address",
							"name": "token",
							"type": "address"
						}
					],
					"name": "WBNBPrice",
					"outputs": [
						{
							"internalType": "uint256",
							"name": "",
							"type": "uint256"
						}
					],
					"stateMutability": "view",
					"type": "function"
				},
				{
					"inputs": [
						{
							"internalType": "uint256",
							"name": "pid",
							"type": "uint256"
						},
						{
							"internalType": "contract LP",
							"name": "lpAddress",
							"type": "address"
						},
						{
							"internalType": "uint256",
							"name": "isLp",
							"type": "uint256"
						},
						{
							"internalType": "contract MetaMasterChef",
							"name": "MasterChef",
							"type": "address"
						}
					],
					"name": "calcPoolTVLInUSD",
					"outputs": [
						{
							"internalType": "uint256",
							"name": "",
							"type": "uint256"
						}
					],
					"stateMutability": "view",
					"type": "function"
				},
				{
					"inputs": [
						{
							"internalType": "contract LP",
							"name": "lpAddress",
							"type": "address"
						},
						{
							"internalType": "uint256",
							"name": "isLp",
							"type": "uint256"
						},
						{
							"internalType": "contract MetaMasterChef",
							"name": "MasterChef",
							"type": "address"
						}
					],
					"name": "calcPoolTVLInUSDNFTFarm",
					"outputs": [
						{
							"internalType": "uint256",
							"name": "",
							"type": "uint256"
						}
					],
					"stateMutability": "view",
					"type": "function"
				},
				{
					"inputs": [
						{
							"internalType": "contract LP",
							"name": "lpAddress",
							"type": "address"
						}
					],
					"name": "isLpAddress",
					"outputs": [
						{
							"internalType": "uint256",
							"name": "",
							"type": "uint256"
						}
					],
					"stateMutability": "view",
					"type": "function"
				},
				{
					"inputs": [],
					"name": "owner",
					"outputs": [
						{
							"internalType": "address",
							"name": "",
							"type": "address"
						}
					],
					"stateMutability": "view",
					"type": "function"
				},
				{
					"inputs": [],
					"name": "renounceOwnership",
					"outputs": [],
					"stateMutability": "nonpayable",
					"type": "function"
				},
				{
					"inputs": [],
					"name": "routerAddress",
					"outputs": [
						{
							"internalType": "contract Router",
							"name": "",
							"type": "address"
						}
					],
					"stateMutability": "view",
					"type": "function"
				},
				{
					"inputs": [
						{
							"internalType": "contract Router",
							"name": "_routerAddress",
							"type": "address"
						}
					],
					"name": "setRouter",
					"outputs": [],
					"stateMutability": "nonpayable",
					"type": "function"
				},
				{
					"inputs": [
						{
							"internalType": "address",
							"name": "newOwner",
							"type": "address"
						}
					],
					"name": "transferOwnership",
					"outputs": [],
					"stateMutability": "nonpayable",
					"type": "function"
				}
			],
			"devdoc": {
				"kind": "dev",
				"methods": {
					"owner()": {
						"details": "Returns the address of the current owner."
					},
					"renounceOwnership()": {
						"details": "Leaves the contract without owner. It will not be possible to call `onlyOwner` functions anymore. Can only be called by the current owner. NOTE: Renouncing ownership will leave the contract without an owner, thereby removing any functionality that is only available to the owner."
					},
					"transferOwnership(address)": {
						"details": "Transfers ownership of the contract to a new account (`newOwner`). Can only be called by the current owner."
					}
				},
				"version": 1
			},
			"evm": {
				"assembly": "    /* \"contracts/Utils.sol\":18154:23757  contract Utils is Ownable{... */\n  mstore(0x40, 0x80)\n    /* \"contracts/Utils.sol\":18404:18423  1000000000000000000 */\n  0x0de0b6b3a7640000\n    /* \"contracts/Utils.sol\":18387:18423  uint256 amount = 1000000000000000000 */\n  0x03\n  sstore\n    /* \"contracts/Utils.sol\":18492:18500  10512000 */\n  0xa06680\n    /* \"contracts/Utils.sol\":18466:18500  uint256 BLOCKS_PER_YEAR = 10512000 */\n  0x05\n  sstore\n    /* \"contracts/Utils.sol\":18510:18673  constructor(Router _routerAddress, address _WBNB, address _BUSD) {... */\n  callvalue\n  dup1\n  iszero\n  tag_1\n  jumpi\n  0x00\n  dup1\n  revert\ntag_1:\n  pop\n  mload(0x40)\n  sub(codesize, bytecodeSize)\n  dup1\n  bytecodeSize\n  dup4\n  codecopy\n  dup2\n  dup2\n  add\n  0x40\n  mstore\n  dup2\n  add\n  swap1\n  tag_2\n  swap2\n  swap1\n  tag_3\n  jump\t// in\ntag_2:\n    /* \"contracts/Utils.sol\":13728:13760  _transferOwnership(_msgSender()) */\n  tag_7\n    /* \"contracts/Utils.sol\":13747:13759  _msgSender() */\n  tag_8\n    /* \"contracts/Utils.sol\":13747:13757  _msgSender */\n  shl(0x20, tag_9)\n    /* \"contracts/Utils.sol\":13747:13759  _msgSender() */\n  0x20\n  shr\n  jump\t// in\ntag_8:\n    /* \"contracts/Utils.sol\":13728:13746  _transferOwnership */\n  shl(0x20, tag_10)\n    /* \"contracts/Utils.sol\":13728:13760  _transferOwnership(_msgSender()) */\n  0x20\n  shr\n  jump\t// in\ntag_7:\n    /* \"contracts/Utils.sol\":18603:18617  _routerAddress */\n  dup3\n    /* \"contracts/Utils.sol\":18587:18600  routerAddress */\n  0x04\n  0x00\n    /* \"contracts/Utils.sol\":18587:18617  routerAddress = _routerAddress */\n  0x0100\n  exp\n  dup2\n  sload\n  dup2\n  0xffffffffffffffffffffffffffffffffffffffff\n  mul\n  not\n  and\n  swap1\n  dup4\n  0xffffffffffffffffffffffffffffffffffffffff\n  and\n  mul\n  or\n  swap1\n  sstore\n  pop\n    /* \"contracts/Utils.sol\":18636:18641  _WBNB */\n  dup2\n    /* \"contracts/Utils.sol\":18629:18633  WBNB */\n  0x01\n  0x00\n    /* \"contracts/Utils.sol\":18629:18641  WBNB = _WBNB */\n  0x0100\n  exp\n  dup2\n  sload\n  dup2\n  0xffffffffffffffffffffffffffffffffffffffff\n  mul\n  not\n  and\n  swap1\n  dup4\n  0xffffffffffffffffffffffffffffffffffffffff\n  and\n  mul\n  or\n  swap1\n  sstore\n  pop\n    /* \"contracts/Utils.sol\":18660:18665  _BUSD */\n  dup1\n    /* \"contracts/Utils.sol\":18653:18657  BUSD */\n  0x02\n  0x00\n    /* \"contracts/Utils.sol\":18653:18665  BUSD = _BUSD */\n  0x0100\n  exp\n  dup2\n  sload\n  dup2\n  0xffffffffffffffffffffffffffffffffffffffff\n  mul\n  not\n  and\n  swap1\n  dup4\n  0xffffffffffffffffffffffffffffffffffffffff\n  and\n  mul\n  or\n  swap1\n  sstore\n  pop\n    /* \"contracts/Utils.sol\":18510:18673  constructor(Router _routerAddress, address _WBNB, address _BUSD) {... */\n  pop\n  pop\n  pop\n    /* \"contracts/Utils.sol\":18154:23757  contract Utils is Ownable{... */\n  jump(tag_12)\n    /* \"contracts/Utils.sol\":13223:13321  function _msgSender() internal view virtual returns (address) {... */\ntag_9:\n    /* \"contracts/Utils.sol\":13276:13283  address */\n  0x00\n    /* \"contracts/Utils.sol\":13303:13313  msg.sender */\n  caller\n    /* \"contracts/Utils.sol\":13296:13313  return msg.sender */\n  swap1\n  pop\n    /* \"contracts/Utils.sol\":13223:13321  function _msgSender() internal view virtual returns (address) {... */\n  swap1\n  jump\t// out\n    /* \"contracts/Utils.sol\":15119:15310  function _transferOwnership(address newOwner) internal virtual {... */\ntag_10:\n    /* \"contracts/Utils.sol\":15193:15209  address oldOwner */\n  0x00\n    /* \"contracts/Utils.sol\":15212:15218  _owner */\n  dup1\n  0x00\n  swap1\n  sload\n  swap1\n  0x0100\n  exp\n  swap1\n  div\n  0xffffffffffffffffffffffffffffffffffffffff\n  and\n    /* \"contracts/Utils.sol\":15193:15218  address oldOwner = _owner */\n  swap1\n  pop\n    /* \"contracts/Utils.sol\":15238:15246  newOwner */\n  dup2\n    /* \"contracts/Utils.sol\":15229:15235  _owner */\n  0x00\n  dup1\n    /* \"contracts/Utils.sol\":15229:15246  _owner = newOwner */\n  0x0100\n  exp\n  dup2\n  sload\n  dup2\n  0xffffffffffffffffffffffffffffffffffffffff\n  mul\n  not\n  and\n  swap1\n  dup4\n  0xffffffffffffffffffffffffffffffffffffffff\n  and\n  mul\n  or\n  swap1\n  sstore\n  pop\n    /* \"contracts/Utils.sol\":15293:15301  newOwner */\n  dup2\n    /* \"contracts/Utils.sol\":15262:15302  OwnershipTransferred(oldOwner, newOwner) */\n  0xffffffffffffffffffffffffffffffffffffffff\n  and\n    /* \"contracts/Utils.sol\":15283:15291  oldOwner */\n  dup2\n    /* \"contracts/Utils.sol\":15262:15302  OwnershipTransferred(oldOwner, newOwner) */\n  0xffffffffffffffffffffffffffffffffffffffff\n  and\n  0x8be0079c531659141344cd1fd0a4f28419497f9722a3daafe3b4186f6b6457e0\n  mload(0x40)\n  mload(0x40)\n  dup1\n  swap2\n  sub\n  swap1\n  log3\n    /* \"contracts/Utils.sol\":15182:15310  {... */\n  pop\n    /* \"contracts/Utils.sol\":15119:15310  function _transferOwnership(address newOwner) internal virtual {... */\n  pop\n  jump\t// out\n    /* \"#utility.yul\":88:205   */\ntag_16:\n    /* \"#utility.yul\":197:198   */\n  0x00\n    /* \"#utility.yul\":194:195   */\n  dup1\n    /* \"#utility.yul\":187:199   */\n  revert\n    /* \"#utility.yul\":334:460   */\ntag_18:\n    /* \"#utility.yul\":371:378   */\n  0x00\n    /* \"#utility.yul\":411:453   */\n  0xffffffffffffffffffffffffffffffffffffffff\n    /* \"#utility.yul\":404:409   */\n  dup3\n    /* \"#utility.yul\":400:454   */\n  and\n    /* \"#utility.yul\":389:454   */\n  swap1\n  pop\n    /* \"#utility.yul\":334:460   */\n  swap2\n  swap1\n  pop\n  jump\t// out\n    /* \"#utility.yul\":466:562   */\ntag_19:\n    /* \"#utility.yul\":503:510   */\n  0x00\n    /* \"#utility.yul\":532:556   */\n  tag_31\n    /* \"#utility.yul\":550:555   */\n  dup3\n    /* \"#utility.yul\":532:556   */\n  tag_18\n  jump\t// in\ntag_31:\n    /* \"#utility.yul\":521:556   */\n  swap1\n  pop\n    /* \"#utility.yul\":466:562   */\n  swap2\n  swap1\n  pop\n  jump\t// out\n    /* \"#utility.yul\":568:678   */\ntag_20:\n    /* \"#utility.yul\":619:626   */\n  0x00\n    /* \"#utility.yul\":648:672   */\n  tag_33\n    /* \"#utility.yul\":666:671   */\n  dup3\n    /* \"#utility.yul\":648:672   */\n  tag_19\n  jump\t// in\ntag_33:\n    /* \"#utility.yul\":637:672   */\n  swap1\n  pop\n    /* \"#utility.yul\":568:678   */\n  swap2\n  swap1\n  pop\n  jump\t// out\n    /* \"#utility.yul\":684:834   */\ntag_21:\n    /* \"#utility.yul\":771:809   */\n  tag_35\n    /* \"#utility.yul\":803:808   */\n  dup2\n    /* \"#utility.yul\":771:809   */\n  tag_20\n  jump\t// in\ntag_35:\n    /* \"#utility.yul\":764:769   */\n  dup2\n    /* \"#utility.yul\":761:810   */\n  eq\n    /* \"#utility.yul\":751:828   */\n  tag_36\n  jumpi\n    /* \"#utility.yul\":824:825   */\n  0x00\n    /* \"#utility.yul\":821:822   */\n  dup1\n    /* \"#utility.yul\":814:826   */\n  revert\n    /* \"#utility.yul\":751:828   */\ntag_36:\n    /* \"#utility.yul\":684:834   */\n  pop\n  jump\t// out\n    /* \"#utility.yul\":840:1011   */\ntag_22:\n    /* \"#utility.yul\":911:916   */\n  0x00\n    /* \"#utility.yul\":942:948   */\n  dup2\n    /* \"#utility.yul\":936:949   */\n  mload\n    /* \"#utility.yul\":927:949   */\n  swap1\n  pop\n    /* \"#utility.yul\":958:1005   */\n  tag_38\n    /* \"#utility.yul\":999:1004   */\n  dup2\n    /* \"#utility.yul\":958:1005   */\n  tag_21\n  jump\t// in\ntag_38:\n    /* \"#utility.yul\":840:1011   */\n  swap3\n  swap2\n  pop\n  pop\n  jump\t// out\n    /* \"#utility.yul\":1017:1139   */\ntag_23:\n    /* \"#utility.yul\":1090:1114   */\n  tag_40\n    /* \"#utility.yul\":1108:1113   */\n  dup2\n    /* \"#utility.yul\":1090:1114   */\n  tag_19\n  jump\t// in\ntag_40:\n    /* \"#utility.yul\":1083:1088   */\n  dup2\n    /* \"#utility.yul\":1080:1115   */\n  eq\n    /* \"#utility.yul\":1070:1133   */\n  tag_41\n  jumpi\n    /* \"#utility.yul\":1129:1130   */\n  0x00\n    /* \"#utility.yul\":1126:1127   */\n  dup1\n    /* \"#utility.yul\":1119:1131   */\n  revert\n    /* \"#utility.yul\":1070:1133   */\ntag_41:\n    /* \"#utility.yul\":1017:1139   */\n  pop\n  jump\t// out\n    /* \"#utility.yul\":1145:1288   */\ntag_24:\n    /* \"#utility.yul\":1202:1207   */\n  0x00\n    /* \"#utility.yul\":1233:1239   */\n  dup2\n    /* \"#utility.yul\":1227:1240   */\n  mload\n    /* \"#utility.yul\":1218:1240   */\n  swap1\n  pop\n    /* \"#utility.yul\":1249:1282   */\n  tag_43\n    /* \"#utility.yul\":1276:1281   */\n  dup2\n    /* \"#utility.yul\":1249:1282   */\n  tag_23\n  jump\t// in\ntag_43:\n    /* \"#utility.yul\":1145:1288   */\n  swap3\n  swap2\n  pop\n  pop\n  jump\t// out\n    /* \"#utility.yul\":1294:1985   */\ntag_3:\n    /* \"#utility.yul\":1396:1402   */\n  0x00\n    /* \"#utility.yul\":1404:1410   */\n  dup1\n    /* \"#utility.yul\":1412:1418   */\n  0x00\n    /* \"#utility.yul\":1461:1463   */\n  0x60\n    /* \"#utility.yul\":1449:1458   */\n  dup5\n    /* \"#utility.yul\":1440:1447   */\n  dup7\n    /* \"#utility.yul\":1436:1459   */\n  sub\n    /* \"#utility.yul\":1432:1464   */\n  slt\n    /* \"#utility.yul\":1429:1548   */\n  iszero\n  tag_45\n  jumpi\n    /* \"#utility.yul\":1467:1546   */\n  tag_46\n  tag_16\n  jump\t// in\ntag_46:\n    /* \"#utility.yul\":1429:1548   */\ntag_45:\n    /* \"#utility.yul\":1587:1588   */\n  0x00\n    /* \"#utility.yul\":1612:1690   */\n  tag_47\n    /* \"#utility.yul\":1682:1689   */\n  dup7\n    /* \"#utility.yul\":1673:1679   */\n  dup3\n    /* \"#utility.yul\":1662:1671   */\n  dup8\n    /* \"#utility.yul\":1658:1680   */\n  add\n    /* \"#utility.yul\":1612:1690   */\n  tag_22\n  jump\t// in\ntag_47:\n    /* \"#utility.yul\":1602:1690   */\n  swap4\n  pop\n    /* \"#utility.yul\":1558:1700   */\n  pop\n    /* \"#utility.yul\":1739:1741   */\n  0x20\n    /* \"#utility.yul\":1765:1829   */\n  tag_48\n    /* \"#utility.yul\":1821:1828   */\n  dup7\n    /* \"#utility.yul\":1812:1818   */\n  dup3\n    /* \"#utility.yul\":1801:1810   */\n  dup8\n    /* \"#utility.yul\":1797:1819   */\n  add\n    /* \"#utility.yul\":1765:1829   */\n  tag_24\n  jump\t// in\ntag_48:\n    /* \"#utility.yul\":1755:1829   */\n  swap3\n  pop\n    /* \"#utility.yul\":1710:1839   */\n  pop\n    /* \"#utility.yul\":1878:1880   */\n  0x40\n    /* \"#utility.yul\":1904:1968   */\n  tag_49\n    /* \"#utility.yul\":1960:1967   */\n  dup7\n    /* \"#utility.yul\":1951:1957   */\n  dup3\n    /* \"#utility.yul\":1940:1949   */\n  dup8\n    /* \"#utility.yul\":1936:1958   */\n  add\n    /* \"#utility.yul\":1904:1968   */\n  tag_24\n  jump\t// in\ntag_49:\n    /* \"#utility.yul\":1894:1968   */\n  swap2\n  pop\n    /* \"#utility.yul\":1849:1978   */\n  pop\n    /* \"#utility.yul\":1294:1985   */\n  swap3\n  pop\n  swap3\n  pop\n  swap3\n  jump\t// out\n    /* \"contracts/Utils.sol\":18154:23757  contract Utils is Ownable{... */\ntag_12:\n  dataSize(sub_0)\n  dup1\n  dataOffset(sub_0)\n  0x00\n  codecopy\n  0x00\n  return\nstop\n\nsub_0: assembly {\n        /* \"contracts/Utils.sol\":18154:23757  contract Utils is Ownable{... */\n      mstore(0x40, 0x80)\n      callvalue\n      dup1\n      iszero\n      tag_1\n      jumpi\n      0x00\n      dup1\n      revert\n    tag_1:\n      pop\n      jumpi(tag_2, lt(calldatasize, 0x04))\n      shr(0xe0, calldataload(0x00))\n      dup1\n      0x55b44eaf\n      gt\n      tag_20\n      jumpi\n      dup1\n      0xc0d78655\n      gt\n      tag_21\n      jumpi\n      dup1\n      0xc0d78655\n      eq\n      tag_15\n      jumpi\n      dup1\n      0xd979fb5f\n      eq\n      tag_16\n      jumpi\n      dup1\n      0xdbb79348\n      eq\n      tag_17\n      jumpi\n      dup1\n      0xe085f38e\n      eq\n      tag_18\n      jumpi\n      dup1\n      0xf2fde38b\n      eq\n      tag_19\n      jumpi\n      jump(tag_2)\n    tag_21:\n      dup1\n      0x55b44eaf\n      eq\n      tag_11\n      jumpi\n      dup1\n      0x715018a6\n      eq\n      tag_12\n      jumpi\n      dup1\n      0x8da5cb5b\n      eq\n      tag_13\n      jumpi\n      dup1\n      0x8dd95002\n      eq\n      tag_14\n      jumpi\n      jump(tag_2)\n    tag_20:\n      dup1\n      0x2f7c5980\n      gt\n      tag_22\n      jumpi\n      dup1\n      0x2f7c5980\n      eq\n      tag_7\n      jumpi\n      dup1\n      0x3268cc56\n      eq\n      tag_8\n      jumpi\n      dup1\n      0x3b979d45\n      eq\n      tag_9\n      jumpi\n      dup1\n      0x484f4ea9\n      eq\n      tag_10\n      jumpi\n      jump(tag_2)\n    tag_22:\n      dup1\n      0x1616f124\n      eq\n      tag_3\n      jumpi\n      dup1\n      0x1858882b\n      eq\n      tag_4\n      jumpi\n      dup1\n      0x19047f8a\n      eq\n      tag_5\n      jumpi\n      dup1\n      0x215cc989\n      eq\n      tag_6\n      jumpi\n    tag_2:\n      0x00\n      dup1\n      revert\n        /* \"contracts/Utils.sol\":20805:21383  function calcPoolTVLInUSDNFTFarm(LP lpAddress, uint256 isLp, MetaMasterChef MasterChef) public view returns(uint256){... */\n    tag_3:\n      tag_23\n      0x04\n      dup1\n      calldatasize\n      sub\n      dup2\n      add\n      swap1\n      tag_24\n      swap2\n      swap1\n      tag_25\n      jump\t// in\n    tag_24:\n      tag_26\n      jump\t// in\n    tag_23:\n      mload(0x40)\n      tag_27\n      swap2\n      swap1\n      tag_28\n      jump\t// in\n    tag_27:\n      mload(0x40)\n      dup1\n      swap2\n      sub\n      swap1\n      return\n        /* \"contracts/Utils.sol\":23285:23754  function CalcTotalTVLNFTFarm(MetaMasterChef MasterChef,LP[] memory lpAddress) external view returns(uint256){... */\n    tag_4:\n      tag_29\n      0x04\n      dup1\n      calldatasize\n      sub\n      dup2\n      add\n      swap1\n      tag_30\n      swap2\n      swap1\n      tag_31\n      jump\t// in\n    tag_30:\n      tag_32\n      jump\t// in\n    tag_29:\n      mload(0x40)\n      tag_33\n      swap2\n      swap1\n      tag_28\n      jump\t// in\n    tag_33:\n      mload(0x40)\n      dup1\n      swap2\n      sub\n      swap1\n      return\n        /* \"contracts/Utils.sol\":18813:19072  function Tokenprice(address token) public view returns(uint256){... */\n    tag_5:\n      tag_34\n      0x04\n      dup1\n      calldatasize\n      sub\n      dup2\n      add\n      swap1\n      tag_35\n      swap2\n      swap1\n      tag_36\n      jump\t// in\n    tag_35:\n      tag_37\n      jump\t// in\n    tag_34:\n      mload(0x40)\n      tag_38\n      swap2\n      swap1\n      tag_28\n      jump\t// in\n    tag_38:\n      mload(0x40)\n      dup1\n      swap2\n      sub\n      swap1\n      return\n        /* \"contracts/Utils.sol\":19355:20203  function CalcLpPrice(LP lpAddress) public view returns(uint256){... */\n    tag_6:\n      tag_39\n      0x04\n      dup1\n      calldatasize\n      sub\n      dup2\n      add\n      swap1\n      tag_40\n      swap2\n      swap1\n      tag_41\n      jump\t// in\n    tag_40:\n      tag_42\n      jump\t// in\n    tag_39:\n      mload(0x40)\n      tag_43\n      swap2\n      swap1\n      tag_28\n      jump\t// in\n    tag_43:\n      mload(0x40)\n      dup1\n      swap2\n      sub\n      swap1\n      return\n        /* \"contracts/Utils.sol\":22636:22815  function isLpAddress(LP lpAddress) public view returns(uint256){... */\n    tag_7:\n      tag_44\n      0x04\n      dup1\n      calldatasize\n      sub\n      dup2\n      add\n      swap1\n      tag_45\n      swap2\n      swap1\n      tag_41\n      jump\t// in\n    tag_45:\n      tag_46\n      jump\t// in\n    tag_44:\n      mload(0x40)\n      tag_47\n      swap2\n      swap1\n      tag_28\n      jump\t// in\n    tag_47:\n      mload(0x40)\n      dup1\n      swap2\n      sub\n      swap1\n      return\n        /* \"contracts/Utils.sol\":18430:18457  Router public routerAddress */\n    tag_8:\n      tag_48\n      tag_49\n      jump\t// in\n    tag_48:\n      mload(0x40)\n      tag_50\n      swap2\n      swap1\n      tag_51\n      jump\t// in\n    tag_50:\n      mload(0x40)\n      dup1\n      swap2\n      sub\n      swap1\n      return\n        /* \"contracts/Utils.sol\":19097:19330  function WBNBPrice(address token) public view returns(uint256){... */\n    tag_9:\n      tag_52\n      0x04\n      dup1\n      calldatasize\n      sub\n      dup2\n      add\n      swap1\n      tag_53\n      swap2\n      swap1\n      tag_36\n      jump\t// in\n    tag_53:\n      tag_54\n      jump\t// in\n    tag_52:\n      mload(0x40)\n      tag_55\n      swap2\n      swap1\n      tag_28\n      jump\t// in\n    tag_55:\n      mload(0x40)\n      dup1\n      swap2\n      sub\n      swap1\n      return\n        /* \"contracts/Utils.sol\":18361:18380  address public BUSD */\n    tag_10:\n      tag_56\n      tag_57\n      jump\t// in\n    tag_56:\n      mload(0x40)\n      tag_58\n      swap2\n      swap1\n      tag_59\n      jump\t// in\n    tag_58:\n      mload(0x40)\n      dup1\n      swap2\n      sub\n      swap1\n      return\n        /* \"contracts/Utils.sol\":22823:23277  function CalcTotalTVL(MetaMasterChef MasterChef,LP[] memory lpAddress) external view returns(uint256){... */\n    tag_11:\n      tag_60\n      0x04\n      dup1\n      calldatasize\n      sub\n      dup2\n      add\n      swap1\n      tag_61\n      swap2\n      swap1\n      tag_31\n      jump\t// in\n    tag_61:\n      tag_62\n      jump\t// in\n    tag_60:\n      mload(0x40)\n      tag_63\n      swap2\n      swap1\n      tag_28\n      jump\t// in\n    tag_63:\n      mload(0x40)\n      dup1\n      swap2\n      sub\n      swap1\n      return\n        /* \"contracts/Utils.sol\":14500:14603  function renounceOwnership() public virtual onlyOwner {... */\n    tag_12:\n      tag_64\n      tag_65\n      jump\t// in\n    tag_64:\n      stop\n        /* \"contracts/Utils.sol\":13849:13936  function owner() public view virtual returns (address) {... */\n    tag_13:\n      tag_66\n      tag_67\n      jump\t// in\n    tag_66:\n      mload(0x40)\n      tag_68\n      swap2\n      swap1\n      tag_59\n      jump\t// in\n    tag_68:\n      mload(0x40)\n      dup1\n      swap2\n      sub\n      swap1\n      return\n        /* \"contracts/Utils.sol\":18335:18354  address public WBNB */\n    tag_14:\n      tag_69\n      tag_70\n      jump\t// in\n    tag_69:\n      mload(0x40)\n      tag_71\n      swap2\n      swap1\n      tag_59\n      jump\t// in\n    tag_71:\n      mload(0x40)\n      dup1\n      swap2\n      sub\n      swap1\n      return\n        /* \"contracts/Utils.sol\":18681:18788  function setRouter(Router _routerAddress) public onlyOwner{... */\n    tag_15:\n      tag_72\n      0x04\n      dup1\n      calldatasize\n      sub\n      dup2\n      add\n      swap1\n      tag_73\n      swap2\n      swap1\n      tag_74\n      jump\t// in\n    tag_73:\n      tag_75\n      jump\t// in\n    tag_72:\n      stop\n        /* \"contracts/Utils.sol\":20226:20797  function calcPoolTVLInUSD(uint256 pid, LP lpAddress, uint256 isLp, MetaMasterChef MasterChef) public view returns(uint256){... */\n    tag_16:\n      tag_76\n      0x04\n      dup1\n      calldatasize\n      sub\n      dup2\n      add\n      swap1\n      tag_77\n      swap2\n      swap1\n      tag_78\n      jump\t// in\n    tag_77:\n      tag_79\n      jump\t// in\n    tag_76:\n      mload(0x40)\n      tag_80\n      swap2\n      swap1\n      tag_28\n      jump\t// in\n    tag_80:\n      mload(0x40)\n      dup1\n      swap2\n      sub\n      swap1\n      return\n        /* \"contracts/Utils.sol\":21391:22093  function CalcApy(uint256 pid, LP lpAddress,uint256 isLp, MetaMasterChef MasterChef) external view returns(uint256){... */\n    tag_17:\n      tag_81\n      0x04\n      dup1\n      calldatasize\n      sub\n      dup2\n      add\n      swap1\n      tag_82\n      swap2\n      swap1\n      tag_78\n      jump\t// in\n    tag_82:\n      tag_83\n      jump\t// in\n    tag_81:\n      mload(0x40)\n      tag_84\n      swap2\n      swap1\n      tag_28\n      jump\t// in\n    tag_84:\n      mload(0x40)\n      dup1\n      swap2\n      sub\n      swap1\n      return\n        /* \"contracts/Utils.sol\":22101:22628  function CalcApyNFTFarm(uint256 pid, NFTMasterChef MasterChef) external view returns(uint256){... */\n    tag_18:\n      tag_85\n      0x04\n      dup1\n      calldatasize\n      sub\n      dup2\n      add\n      swap1\n      tag_86\n      swap2\n      swap1\n      tag_87\n      jump\t// in\n    tag_86:\n      tag_88\n      jump\t// in\n    tag_85:\n      mload(0x40)\n      tag_89\n      swap2\n      swap1\n      tag_28\n      jump\t// in\n    tag_89:\n      mload(0x40)\n      dup1\n      swap2\n      sub\n      swap1\n      return\n        /* \"contracts/Utils.sol\":14758:14959  function transferOwnership(address newOwner) public virtual onlyOwner {... */\n    tag_19:\n      tag_90\n      0x04\n      dup1\n      calldatasize\n      sub\n      dup2\n      add\n      swap1\n      tag_91\n      swap2\n      swap1\n      tag_36\n      jump\t// in\n    tag_91:\n      tag_92\n      jump\t// in\n    tag_90:\n      stop\n        /* \"contracts/Utils.sol\":20805:21383  function calcPoolTVLInUSDNFTFarm(LP lpAddress, uint256 isLp, MetaMasterChef MasterChef) public view returns(uint256){... */\n    tag_26:\n        /* \"contracts/Utils.sol\":20913:20920  uint256 */\n      0x00\n        /* \"contracts/Utils.sol\":20932:20947  uint256 Balance */\n      dup1\n        /* \"contracts/Utils.sol\":20950:20959  lpAddress */\n      dup5\n        /* \"contracts/Utils.sol\":20950:20969  lpAddress.balanceOf */\n      0xffffffffffffffffffffffffffffffffffffffff\n      and\n      0x70a08231\n        /* \"contracts/Utils.sol\":20978:20988  MasterChef */\n      dup5\n        /* \"contracts/Utils.sol\":20950:20990  lpAddress.balanceOf(address(MasterChef)) */\n      mload(0x40)\n      dup3\n      0xffffffff\n      and\n      0xe0\n      shl\n      dup2\n      mstore\n      0x04\n      add\n      tag_94\n      swap2\n      swap1\n      tag_59\n      jump\t// in\n    tag_94:\n      0x20\n      mload(0x40)\n      dup1\n      dup4\n      sub\n      dup2\n      dup7\n      gas\n      staticcall\n      iszero\n      dup1\n      iszero\n      tag_96\n      jumpi\n      returndatasize\n      0x00\n      dup1\n      returndatacopy\n      revert(0x00, returndatasize)\n    tag_96:\n      pop\n      pop\n      pop\n      pop\n      mload(0x40)\n      returndatasize\n      not(0x1f)\n      0x1f\n      dup3\n      add\n      and\n      dup3\n      add\n      dup1\n      0x40\n      mstore\n      pop\n      dup2\n      add\n      swap1\n      tag_97\n      swap2\n      swap1\n      tag_98\n      jump\t// in\n    tag_97:\n        /* \"contracts/Utils.sol\":20932:20990  uint256 Balance = lpAddress.balanceOf(address(MasterChef)) */\n      swap1\n      pop\n        /* \"contracts/Utils.sol\":21001:21014  uint256 price */\n      0x00\n        /* \"contracts/Utils.sol\":21036:21037  1 */\n      0x01\n        /* \"contracts/Utils.sol\":21028:21032  isLp */\n      dup6\n        /* \"contracts/Utils.sol\":21028:21037  isLp == 1 */\n      sub\n        /* \"contracts/Utils.sol\":21025:21327  if(isLp == 1){... */\n      tag_99\n      jumpi\n        /* \"contracts/Utils.sol\":21061:21083  CalcLpPrice(lpAddress) */\n      tag_100\n        /* \"contracts/Utils.sol\":21073:21082  lpAddress */\n      dup7\n        /* \"contracts/Utils.sol\":21061:21072  CalcLpPrice */\n      tag_42\n        /* \"contracts/Utils.sol\":21061:21083  CalcLpPrice(lpAddress) */\n      jump\t// in\n    tag_100:\n        /* \"contracts/Utils.sol\":21053:21083  price = CalcLpPrice(lpAddress) */\n      swap1\n      pop\n        /* \"contracts/Utils.sol\":21025:21327  if(isLp == 1){... */\n      jump(tag_101)\n    tag_99:\n        /* \"contracts/Utils.sol\":21111:21112  0 */\n      0x00\n        /* \"contracts/Utils.sol\":21103:21107  isLp */\n      dup6\n        /* \"contracts/Utils.sol\":21103:21112  isLp == 0 */\n      sub\n        /* \"contracts/Utils.sol\":21100:21327  if(isLp == 0){... */\n      tag_102\n      jumpi\n        /* \"contracts/Utils.sol\":21156:21165  lpAddress */\n      dup6\n        /* \"contracts/Utils.sol\":21131:21166  address(WBNB) == address(lpAddress) */\n      0xffffffffffffffffffffffffffffffffffffffff\n      and\n        /* \"contracts/Utils.sol\":21139:21143  WBNB */\n      0x01\n      0x00\n      swap1\n      sload\n      swap1\n      0x0100\n      exp\n      swap1\n      div\n      0xffffffffffffffffffffffffffffffffffffffff\n      and\n        /* \"contracts/Utils.sol\":21131:21166  address(WBNB) == address(lpAddress) */\n      0xffffffffffffffffffffffffffffffffffffffff\n      and\n      sub\n        /* \"contracts/Utils.sol\":21128:21316  if(address(WBNB) == address(lpAddress)){... */\n      tag_103\n      jumpi\n        /* \"contracts/Utils.sol\":21194:21223  WBNBPrice(address(lpAddress)) */\n      tag_104\n        /* \"contracts/Utils.sol\":21212:21221  lpAddress */\n      dup7\n        /* \"contracts/Utils.sol\":21194:21203  WBNBPrice */\n      tag_54\n        /* \"contracts/Utils.sol\":21194:21223  WBNBPrice(address(lpAddress)) */\n      jump\t// in\n    tag_104:\n        /* \"contracts/Utils.sol\":21186:21223  price = WBNBPrice(address(lpAddress)) */\n      swap1\n      pop\n        /* \"contracts/Utils.sol\":21128:21316  if(address(WBNB) == address(lpAddress)){... */\n      jump(tag_105)\n    tag_103:\n        /* \"contracts/Utils.sol\":21270:21300  Tokenprice(address(lpAddress)) */\n      tag_106\n        /* \"contracts/Utils.sol\":21289:21298  lpAddress */\n      dup7\n        /* \"contracts/Utils.sol\":21270:21280  Tokenprice */\n      tag_37\n        /* \"contracts/Utils.sol\":21270:21300  Tokenprice(address(lpAddress)) */\n      jump\t// in\n    tag_106:\n        /* \"contracts/Utils.sol\":21262:21300  price = Tokenprice(address(lpAddress)) */\n      swap1\n      pop\n        /* \"contracts/Utils.sol\":21128:21316  if(address(WBNB) == address(lpAddress)){... */\n    tag_105:\n        /* \"contracts/Utils.sol\":21100:21327  if(isLp == 0){... */\n    tag_102:\n        /* \"contracts/Utils.sol\":21025:21327  if(isLp == 1){... */\n    tag_101:\n        /* \"contracts/Utils.sol\":21346:21375  (Balance * price).div(amount) */\n      tag_107\n        /* \"contracts/Utils.sol\":21368:21374  amount */\n      sload(0x03)\n        /* \"contracts/Utils.sol\":21357:21362  price */\n      dup3\n        /* \"contracts/Utils.sol\":21347:21354  Balance */\n      dup5\n        /* \"contracts/Utils.sol\":21347:21362  Balance * price */\n      tag_108\n      swap2\n      swap1\n      tag_109\n      jump\t// in\n    tag_108:\n        /* \"contracts/Utils.sol\":21346:21367  (Balance * price).div */\n      tag_110\n      swap1\n        /* \"contracts/Utils.sol\":21346:21375  (Balance * price).div(amount) */\n      swap2\n      swap1\n      0xffffffff\n      and\n      jump\t// in\n    tag_107:\n        /* \"contracts/Utils.sol\":21339:21375  return (Balance * price).div(amount) */\n      swap3\n      pop\n      pop\n      pop\n        /* \"contracts/Utils.sol\":20805:21383  function calcPoolTVLInUSDNFTFarm(LP lpAddress, uint256 isLp, MetaMasterChef MasterChef) public view returns(uint256){... */\n      swap4\n      swap3\n      pop\n      pop\n      pop\n      jump\t// out\n        /* \"contracts/Utils.sol\":23285:23754  function CalcTotalTVLNFTFarm(MetaMasterChef MasterChef,LP[] memory lpAddress) external view returns(uint256){... */\n    tag_32:\n        /* \"contracts/Utils.sol\":23385:23392  uint256 */\n      0x00\n        /* \"contracts/Utils.sol\":23404:23415  uint256 TVL */\n      dup1\n        /* \"contracts/Utils.sol\":23418:23419  0 */\n      0x00\n        /* \"contracts/Utils.sol\":23404:23419  uint256 TVL = 0 */\n      swap1\n      pop\n        /* \"contracts/Utils.sol\":23434:23443  uint256 i */\n      0x00\n        /* \"contracts/Utils.sol\":23430:23724  for(uint256 i=0; i< lpAddress.length; i++){... */\n    tag_112:\n        /* \"contracts/Utils.sol\":23450:23459  lpAddress */\n      dup4\n        /* \"contracts/Utils.sol\":23450:23466  lpAddress.length */\n      mload\n        /* \"contracts/Utils.sol\":23447:23448  i */\n      dup2\n        /* \"contracts/Utils.sol\":23447:23466  i< lpAddress.length */\n      lt\n        /* \"contracts/Utils.sol\":23430:23724  for(uint256 i=0; i< lpAddress.length; i++){... */\n      iszero\n      tag_113\n      jumpi\n        /* \"contracts/Utils.sol\":23519:23520  1 */\n      0x01\n        /* \"contracts/Utils.sol\":23490:23515  isLpAddress(lpAddress[i]) */\n      tag_115\n        /* \"contracts/Utils.sol\":23502:23511  lpAddress */\n      dup6\n        /* \"contracts/Utils.sol\":23512:23513  i */\n      dup4\n        /* \"contracts/Utils.sol\":23502:23514  lpAddress[i] */\n      dup2\n      mload\n      dup2\n      lt\n      tag_116\n      jumpi\n      tag_117\n      tag_118\n      jump\t// in\n    tag_117:\n    tag_116:\n      0x20\n      mul\n      0x20\n      add\n      add\n      mload\n        /* \"contracts/Utils.sol\":23490:23501  isLpAddress */\n      tag_46\n        /* \"contracts/Utils.sol\":23490:23515  isLpAddress(lpAddress[i]) */\n      jump\t// in\n    tag_115:\n        /* \"contracts/Utils.sol\":23490:23520  isLpAddress(lpAddress[i]) == 1 */\n      sub\n        /* \"contracts/Utils.sol\":23487:23713  if(isLpAddress(lpAddress[i]) == 1){... */\n      tag_119\n      jumpi\n        /* \"contracts/Utils.sol\":23547:23599  calcPoolTVLInUSDNFTFarm(lpAddress[i], 1, MasterChef) */\n      tag_120\n        /* \"contracts/Utils.sol\":23571:23580  lpAddress */\n      dup5\n        /* \"contracts/Utils.sol\":23581:23582  i */\n      dup3\n        /* \"contracts/Utils.sol\":23571:23583  lpAddress[i] */\n      dup2\n      mload\n      dup2\n      lt\n      tag_121\n      jumpi\n      tag_122\n      tag_118\n      jump\t// in\n    tag_122:\n    tag_121:\n      0x20\n      mul\n      0x20\n      add\n      add\n      mload\n        /* \"contracts/Utils.sol\":23585:23586  1 */\n      0x01\n        /* \"contracts/Utils.sol\":23588:23598  MasterChef */\n      dup8\n        /* \"contracts/Utils.sol\":23547:23570  calcPoolTVLInUSDNFTFarm */\n      tag_26\n        /* \"contracts/Utils.sol\":23547:23599  calcPoolTVLInUSDNFTFarm(lpAddress[i], 1, MasterChef) */\n      jump\t// in\n    tag_120:\n        /* \"contracts/Utils.sol\":23540:23599  TVL += calcPoolTVLInUSDNFTFarm(lpAddress[i], 1, MasterChef) */\n      dup3\n      tag_123\n      swap2\n      swap1\n      tag_124\n      jump\t// in\n    tag_123:\n      swap2\n      pop\n        /* \"contracts/Utils.sol\":23487:23713  if(isLpAddress(lpAddress[i]) == 1){... */\n      jump(tag_125)\n    tag_119:\n        /* \"contracts/Utils.sol\":23645:23697  calcPoolTVLInUSDNFTFarm(lpAddress[i], 0, MasterChef) */\n      tag_126\n        /* \"contracts/Utils.sol\":23669:23678  lpAddress */\n      dup5\n        /* \"contracts/Utils.sol\":23679:23680  i */\n      dup3\n        /* \"contracts/Utils.sol\":23669:23681  lpAddress[i] */\n      dup2\n      mload\n      dup2\n      lt\n      tag_127\n      jumpi\n      tag_128\n      tag_118\n      jump\t// in\n    tag_128:\n    tag_127:\n      0x20\n      mul\n      0x20\n      add\n      add\n      mload\n        /* \"contracts/Utils.sol\":23683:23684  0 */\n      0x00\n        /* \"contracts/Utils.sol\":23686:23696  MasterChef */\n      dup8\n        /* \"contracts/Utils.sol\":23645:23668  calcPoolTVLInUSDNFTFarm */\n      tag_26\n        /* \"contracts/Utils.sol\":23645:23697  calcPoolTVLInUSDNFTFarm(lpAddress[i], 0, MasterChef) */\n      jump\t// in\n    tag_126:\n        /* \"contracts/Utils.sol\":23638:23697  TVL += calcPoolTVLInUSDNFTFarm(lpAddress[i], 0, MasterChef) */\n      dup3\n      tag_129\n      swap2\n      swap1\n      tag_124\n      jump\t// in\n    tag_129:\n      swap2\n      pop\n        /* \"contracts/Utils.sol\":23487:23713  if(isLpAddress(lpAddress[i]) == 1){... */\n    tag_125:\n        /* \"contracts/Utils.sol\":23468:23471  i++ */\n      dup1\n      dup1\n      tag_130\n      swap1\n      tag_131\n      jump\t// in\n    tag_130:\n      swap2\n      pop\n      pop\n        /* \"contracts/Utils.sol\":23430:23724  for(uint256 i=0; i< lpAddress.length; i++){... */\n      jump(tag_112)\n    tag_113:\n      pop\n        /* \"contracts/Utils.sol\":23743:23746  TVL */\n      dup1\n        /* \"contracts/Utils.sol\":23736:23746  return TVL */\n      swap2\n      pop\n      pop\n        /* \"contracts/Utils.sol\":23285:23754  function CalcTotalTVLNFTFarm(MetaMasterChef MasterChef,LP[] memory lpAddress) external view returns(uint256){... */\n      swap3\n      swap2\n      pop\n      pop\n      jump\t// out\n        /* \"contracts/Utils.sol\":18813:19072  function Tokenprice(address token) public view returns(uint256){... */\n    tag_37:\n        /* \"contracts/Utils.sol\":18868:18875  uint256 */\n      0x00\n        /* \"contracts/Utils.sol\":18887:18908  address[] memory path */\n      dup1\n        /* \"contracts/Utils.sol\":18925:18926  3 */\n      0x03\n        /* \"contracts/Utils.sol\":18911:18927  new address[](3) */\n      0xffffffffffffffff\n      dup2\n      gt\n      iszero\n      tag_133\n      jumpi\n      tag_134\n      tag_135\n      jump\t// in\n    tag_134:\n    tag_133:\n      mload(0x40)\n      swap1\n      dup1\n      dup3\n      mstore\n      dup1\n      0x20\n      mul\n      0x20\n      add\n      dup3\n      add\n      0x40\n      mstore\n      dup1\n      iszero\n      tag_136\n      jumpi\n      dup2\n      0x20\n      add\n      0x20\n      dup3\n      mul\n      dup1\n      calldatasize\n      dup4\n      calldatacopy\n      dup1\n      dup3\n      add\n      swap2\n      pop\n      pop\n      swap1\n      pop\n    tag_136:\n      pop\n        /* \"contracts/Utils.sol\":18887:18927  address[] memory path = new address[](3) */\n      swap1\n      pop\n        /* \"contracts/Utils.sol\":18948:18953  token */\n      dup3\n        /* \"contracts/Utils.sol\":18938:18942  path */\n      dup2\n        /* \"contracts/Utils.sol\":18943:18944  0 */\n      0x00\n        /* \"contracts/Utils.sol\":18938:18945  path[0] */\n      dup2\n      mload\n      dup2\n      lt\n      tag_137\n      jumpi\n      tag_138\n      tag_118\n      jump\t// in\n    tag_138:\n    tag_137:\n      0x20\n      mul\n      0x20\n      add\n      add\n        /* \"contracts/Utils.sol\":18938:18953  path[0] = token */\n      swap1\n      0xffffffffffffffffffffffffffffffffffffffff\n      and\n      swap1\n      dup2\n      0xffffffffffffffffffffffffffffffffffffffff\n      and\n      dup2\n      mstore\n      pop\n      pop\n        /* \"contracts/Utils.sol\":18974:18978  WBNB */\n      0x01\n      0x00\n      swap1\n      sload\n      swap1\n      0x0100\n      exp\n      swap1\n      div\n      0xffffffffffffffffffffffffffffffffffffffff\n      and\n        /* \"contracts/Utils.sol\":18964:18968  path */\n      dup2\n        /* \"contracts/Utils.sol\":18969:18970  1 */\n      0x01\n        /* \"contracts/Utils.sol\":18964:18971  path[1] */\n      dup2\n      mload\n      dup2\n      lt\n      tag_139\n      jumpi\n      tag_140\n      tag_118\n      jump\t// in\n    tag_140:\n    tag_139:\n      0x20\n      mul\n      0x20\n      add\n      add\n        /* \"contracts/Utils.sol\":18964:18978  path[1] = WBNB */\n      swap1\n      0xffffffffffffffffffffffffffffffffffffffff\n      and\n      swap1\n      dup2\n      0xffffffffffffffffffffffffffffffffffffffff\n      and\n      dup2\n      mstore\n      pop\n      pop\n        /* \"contracts/Utils.sol\":18999:19003  BUSD */\n      0x02\n      0x00\n      swap1\n      sload\n      swap1\n      0x0100\n      exp\n      swap1\n      div\n      0xffffffffffffffffffffffffffffffffffffffff\n      and\n        /* \"contracts/Utils.sol\":18989:18993  path */\n      dup2\n        /* \"contracts/Utils.sol\":18994:18995  2 */\n      0x02\n        /* \"contracts/Utils.sol\":18989:18996  path[2] */\n      dup2\n      mload\n      dup2\n      lt\n      tag_141\n      jumpi\n      tag_142\n      tag_118\n      jump\t// in\n    tag_142:\n    tag_141:\n      0x20\n      mul\n      0x20\n      add\n      add\n        /* \"contracts/Utils.sol\":18989:19003  path[2] = BUSD */\n      swap1\n      0xffffffffffffffffffffffffffffffffffffffff\n      and\n      swap1\n      dup2\n      0xffffffffffffffffffffffffffffffffffffffff\n      and\n      dup2\n      mstore\n      pop\n      pop\n        /* \"contracts/Utils.sol\":19021:19034  routerAddress */\n      0x04\n      0x00\n      swap1\n      sload\n      swap1\n      0x0100\n      exp\n      swap1\n      div\n      0xffffffffffffffffffffffffffffffffffffffff\n      and\n        /* \"contracts/Utils.sol\":19021:19048  routerAddress.getAmountsOut */\n      0xffffffffffffffffffffffffffffffffffffffff\n      and\n      0xd06ca61f\n        /* \"contracts/Utils.sol\":19049:19055  amount */\n      sload(0x03)\n        /* \"contracts/Utils.sol\":19056:19060  path */\n      dup4\n        /* \"contracts/Utils.sol\":19021:19061  routerAddress.getAmountsOut(amount,path) */\n      mload(0x40)\n      dup4\n      0xffffffff\n      and\n      0xe0\n      shl\n      dup2\n      mstore\n      0x04\n      add\n      tag_143\n      swap3\n      swap2\n      swap1\n      tag_144\n      jump\t// in\n    tag_143:\n      0x00\n      mload(0x40)\n      dup1\n      dup4\n      sub\n      dup2\n      dup7\n      gas\n      staticcall\n      iszero\n      dup1\n      iszero\n      tag_146\n      jumpi\n      returndatasize\n      0x00\n      dup1\n      returndatacopy\n      revert(0x00, returndatasize)\n    tag_146:\n      pop\n      pop\n      pop\n      pop\n      mload(0x40)\n      returndatasize\n      0x00\n      dup3\n      returndatacopy\n      returndatasize\n      not(0x1f)\n      0x1f\n      dup3\n      add\n      and\n      dup3\n      add\n      dup1\n      0x40\n      mstore\n      pop\n      dup2\n      add\n      swap1\n      tag_147\n      swap2\n      swap1\n      tag_148\n      jump\t// in\n    tag_147:\n        /* \"contracts/Utils.sol\":19062:19063  2 */\n      0x02\n        /* \"contracts/Utils.sol\":19021:19064  routerAddress.getAmountsOut(amount,path)[2] */\n      dup2\n      mload\n      dup2\n      lt\n      tag_149\n      jumpi\n      tag_150\n      tag_118\n      jump\t// in\n    tag_150:\n    tag_149:\n      0x20\n      mul\n      0x20\n      add\n      add\n      mload\n        /* \"contracts/Utils.sol\":19014:19064  return routerAddress.getAmountsOut(amount,path)[2] */\n      swap2\n      pop\n      pop\n        /* \"contracts/Utils.sol\":18813:19072  function Tokenprice(address token) public view returns(uint256){... */\n      swap2\n      swap1\n      pop\n      jump\t// out\n        /* \"contracts/Utils.sol\":19355:20203  function CalcLpPrice(LP lpAddress) public view returns(uint256){... */\n    tag_42:\n        /* \"contracts/Utils.sol\":19410:19417  uint256 */\n      0x00\n        /* \"contracts/Utils.sol\":19429:19443  uint256 phase1 */\n      dup1\n        /* \"contracts/Utils.sol\":19454:19468  uint256 phase2 */\n      0x00\n        /* \"contracts/Utils.sol\":19507:19516  lpAddress */\n      dup4\n        /* \"contracts/Utils.sol\":19507:19523  lpAddress.token0 */\n      0xffffffffffffffffffffffffffffffffffffffff\n      and\n      0x0dfe1681\n        /* \"contracts/Utils.sol\":19507:19525  lpAddress.token0() */\n      mload(0x40)\n      dup2\n      0xffffffff\n      and\n      0xe0\n      shl\n      dup2\n      mstore\n      0x04\n      add\n      0x20\n      mload(0x40)\n      dup1\n      dup4\n      sub\n      dup2\n      dup7\n      gas\n      staticcall\n      iszero\n      dup1\n      iszero\n      tag_153\n      jumpi\n      returndatasize\n      0x00\n      dup1\n      returndatacopy\n      revert(0x00, returndatasize)\n    tag_153:\n      pop\n      pop\n      pop\n      pop\n      mload(0x40)\n      returndatasize\n      not(0x1f)\n      0x1f\n      dup3\n      add\n      and\n      dup3\n      add\n      dup1\n      0x40\n      mstore\n      pop\n      dup2\n      add\n      swap1\n      tag_154\n      swap2\n      swap1\n      tag_155\n      jump\t// in\n    tag_154:\n        /* \"contracts/Utils.sol\":19482:19526  address(WBNB) == address(lpAddress.token0()) */\n      0xffffffffffffffffffffffffffffffffffffffff\n      and\n        /* \"contracts/Utils.sol\":19490:19494  WBNB */\n      0x01\n      0x00\n      swap1\n      sload\n      swap1\n      0x0100\n      exp\n      swap1\n      div\n      0xffffffffffffffffffffffffffffffffffffffff\n      and\n        /* \"contracts/Utils.sol\":19482:19526  address(WBNB) == address(lpAddress.token0()) */\n      0xffffffffffffffffffffffffffffffffffffffff\n      and\n      sub\n        /* \"contracts/Utils.sol\":19479:19792  if(address(WBNB) == address(lpAddress.token0())){... */\n      tag_156\n      jumpi\n        /* \"contracts/Utils.sol\":19552:19644  lpAddress.token0().balanceOf(address(lpAddress)).mul(WBNBPrice(address(lpAddress.token0()))) */\n      tag_157\n        /* \"contracts/Utils.sol\":19605:19643  WBNBPrice(address(lpAddress.token0())) */\n      tag_158\n        /* \"contracts/Utils.sol\":19623:19632  lpAddress */\n      dup6\n        /* \"contracts/Utils.sol\":19623:19639  lpAddress.token0 */\n      0xffffffffffffffffffffffffffffffffffffffff\n      and\n      0x0dfe1681\n        /* \"contracts/Utils.sol\":19623:19641  lpAddress.token0() */\n      mload(0x40)\n      dup2\n      0xffffffff\n      and\n      0xe0\n      shl\n      dup2\n      mstore\n      0x04\n      add\n      0x20\n      mload(0x40)\n      dup1\n      dup4\n      sub\n      dup2\n      dup7\n      gas\n      staticcall\n      iszero\n      dup1\n      iszero\n      tag_160\n      jumpi\n      returndatasize\n      0x00\n      dup1\n      returndatacopy\n      revert(0x00, returndatasize)\n    tag_160:\n      pop\n      pop\n      pop\n      pop\n      mload(0x40)\n      returndatasize\n      not(0x1f)\n      0x1f\n      dup3\n      add\n      and\n      dup3\n      add\n      dup1\n      0x40\n      mstore\n      pop\n      dup2\n      add\n      swap1\n      tag_161\n      swap2\n      swap1\n      tag_155\n      jump\t// in\n    tag_161:\n        /* \"contracts/Utils.sol\":19605:19614  WBNBPrice */\n      tag_54\n        /* \"contracts/Utils.sol\":19605:19643  WBNBPrice(address(lpAddress.token0())) */\n      jump\t// in\n    tag_158:\n        /* \"contracts/Utils.sol\":19552:19561  lpAddress */\n      dup6\n        /* \"contracts/Utils.sol\":19552:19568  lpAddress.token0 */\n      0xffffffffffffffffffffffffffffffffffffffff\n      and\n      0x0dfe1681\n        /* \"contracts/Utils.sol\":19552:19570  lpAddress.token0() */\n      mload(0x40)\n      dup2\n      0xffffffff\n      and\n      0xe0\n      shl\n      dup2\n      mstore\n      0x04\n      add\n      0x20\n      mload(0x40)\n      dup1\n      dup4\n      sub\n      dup2\n      dup7\n      gas\n      staticcall\n      iszero\n      dup1\n      iszero\n      tag_163\n      jumpi\n      returndatasize\n      0x00\n      dup1\n      returndatacopy\n      revert(0x00, returndatasize)\n    tag_163:\n      pop\n      pop\n      pop\n      pop\n      mload(0x40)\n      returndatasize\n      not(0x1f)\n      0x1f\n      dup3\n      add\n      and\n      dup3\n      add\n      dup1\n      0x40\n      mstore\n      pop\n      dup2\n      add\n      swap1\n      tag_164\n      swap2\n      swap1\n      tag_155\n      jump\t// in\n    tag_164:\n        /* \"contracts/Utils.sol\":19552:19580  lpAddress.token0().balanceOf */\n      0xffffffffffffffffffffffffffffffffffffffff\n      and\n      0x70a08231\n        /* \"contracts/Utils.sol\":19589:19598  lpAddress */\n      dup8\n        /* \"contracts/Utils.sol\":19552:19600  lpAddress.token0().balanceOf(address(lpAddress)) */\n      mload(0x40)\n      dup3\n      0xffffffff\n      and\n      0xe0\n      shl\n      dup2\n      mstore\n      0x04\n      add\n      tag_165\n      swap2\n      swap1\n      tag_59\n      jump\t// in\n    tag_165:\n      0x20\n      mload(0x40)\n      dup1\n      dup4\n      sub\n      dup2\n      dup7\n      gas\n      staticcall\n      iszero\n      dup1\n      iszero\n      tag_167\n      jumpi\n      returndatasize\n      0x00\n      dup1\n      returndatacopy\n      revert(0x00, returndatasize)\n    tag_167:\n      pop\n      pop\n      pop\n      pop\n      mload(0x40)\n      returndatasize\n      not(0x1f)\n      0x1f\n      dup3\n      add\n      and\n      dup3\n      add\n      dup1\n      0x40\n      mstore\n      pop\n      dup2\n      add\n      swap1\n      tag_168\n      swap2\n      swap1\n      tag_98\n      jump\t// in\n    tag_168:\n        /* \"contracts/Utils.sol\":19552:19604  lpAddress.token0().balanceOf(address(lpAddress)).mul */\n      tag_169\n      swap1\n        /* \"contracts/Utils.sol\":19552:19644  lpAddress.token0().balanceOf(address(lpAddress)).mul(WBNBPrice(address(lpAddress.token0()))) */\n      swap2\n      swap1\n      0xffffffff\n      and\n      jump\t// in\n    tag_157:\n        /* \"contracts/Utils.sol\":19542:19645  phase1 = (lpAddress.token0().balanceOf(address(lpAddress)).mul(WBNBPrice(address(lpAddress.token0())))) */\n      swap2\n      pop\n        /* \"contracts/Utils.sol\":19479:19792  if(address(WBNB) == address(lpAddress.token0())){... */\n      jump(tag_170)\n    tag_156:\n        /* \"contracts/Utils.sol\":19686:19779  lpAddress.token0().balanceOf(address(lpAddress)).mul(Tokenprice(address(lpAddress.token0()))) */\n      tag_171\n        /* \"contracts/Utils.sol\":19739:19778  Tokenprice(address(lpAddress.token0())) */\n      tag_172\n        /* \"contracts/Utils.sol\":19758:19767  lpAddress */\n      dup6\n        /* \"contracts/Utils.sol\":19758:19774  lpAddress.token0 */\n      0xffffffffffffffffffffffffffffffffffffffff\n      and\n      0x0dfe1681\n        /* \"contracts/Utils.sol\":19758:19776  lpAddress.token0() */\n      mload(0x40)\n      dup2\n      0xffffffff\n      and\n      0xe0\n      shl\n      dup2\n      mstore\n      0x04\n      add\n      0x20\n      mload(0x40)\n      dup1\n      dup4\n      sub\n      dup2\n      dup7\n      gas\n      staticcall\n      iszero\n      dup1\n      iszero\n      tag_174\n      jumpi\n      returndatasize\n      0x00\n      dup1\n      returndatacopy\n      revert(0x00, returndatasize)\n    tag_174:\n      pop\n      pop\n      pop\n      pop\n      mload(0x40)\n      returndatasize\n      not(0x1f)\n      0x1f\n      dup3\n      add\n      and\n      dup3\n      add\n      dup1\n      0x40\n      mstore\n      pop\n      dup2\n      add\n      swap1\n      tag_175\n      swap2\n      swap1\n      tag_155\n      jump\t// in\n    tag_175:\n        /* \"contracts/Utils.sol\":19739:19749  Tokenprice */\n      tag_37\n        /* \"contracts/Utils.sol\":19739:19778  Tokenprice(address(lpAddress.token0())) */\n      jump\t// in\n    tag_172:\n        /* \"contracts/Utils.sol\":19686:19695  lpAddress */\n      dup6\n        /* \"contracts/Utils.sol\":19686:19702  lpAddress.token0 */\n      0xffffffffffffffffffffffffffffffffffffffff\n      and\n      0x0dfe1681\n        /* \"contracts/Utils.sol\":19686:19704  lpAddress.token0() */\n      mload(0x40)\n      dup2\n      0xffffffff\n      and\n      0xe0\n      shl\n      dup2\n      mstore\n      0x04\n      add\n      0x20\n      mload(0x40)\n      dup1\n      dup4\n      sub\n      dup2\n      dup7\n      gas\n      staticcall\n      iszero\n      dup1\n      iszero\n      tag_177\n      jumpi\n      returndatasize\n      0x00\n      dup1\n      returndatacopy\n      revert(0x00, returndatasize)\n    tag_177:\n      pop\n      pop\n      pop\n      pop\n      mload(0x40)\n      returndatasize\n      not(0x1f)\n      0x1f\n      dup3\n      add\n      and\n      dup3\n      add\n      dup1\n      0x40\n      mstore\n      pop\n      dup2\n      add\n      swap1\n      tag_178\n      swap2\n      swap1\n      tag_155\n      jump\t// in\n    tag_178:\n        /* \"contracts/Utils.sol\":19686:19714  lpAddress.token0().balanceOf */\n      0xffffffffffffffffffffffffffffffffffffffff\n      and\n      0x70a08231\n        /* \"contracts/Utils.sol\":19723:19732  lpAddress */\n      dup8\n        /* \"contracts/Utils.sol\":19686:19734  lpAddress.token0().balanceOf(address(lpAddress)) */\n      mload(0x40)\n      dup3\n      0xffffffff\n      and\n      0xe0\n      shl\n      dup2\n      mstore\n      0x04\n      add\n      tag_179\n      swap2\n      swap1\n      tag_59\n      jump\t// in\n    tag_179:\n      0x20\n      mload(0x40)\n      dup1\n      dup4\n      sub\n      dup2\n      dup7\n      gas\n      staticcall\n      iszero\n      dup1\n      iszero\n      tag_181\n      jumpi\n      returndatasize\n      0x00\n      dup1\n      returndatacopy\n      revert(0x00, returndatasize)\n    tag_181:\n      pop\n      pop\n      pop\n      pop\n      mload(0x40)\n      returndatasize\n      not(0x1f)\n      0x1f\n      dup3\n      add\n      and\n      dup3\n      add\n      dup1\n      0x40\n      mstore\n      pop\n      dup2\n      add\n      swap1\n      tag_182\n      swap2\n      swap1\n      tag_98\n      jump\t// in\n    tag_182:\n        /* \"contracts/Utils.sol\":19686:19738  lpAddress.token0().balanceOf(address(lpAddress)).mul */\n      tag_169\n      swap1\n        /* \"contracts/Utils.sol\":19686:19779  lpAddress.token0().balanceOf(address(lpAddress)).mul(Tokenprice(address(lpAddress.token0()))) */\n      swap2\n      swap1\n      0xffffffff\n      and\n      jump\t// in\n    tag_171:\n        /* \"contracts/Utils.sol\":19676:19780  phase1 = (lpAddress.token0().balanceOf(address(lpAddress)).mul(Tokenprice(address(lpAddress.token0())))) */\n      swap2\n      pop\n        /* \"contracts/Utils.sol\":19479:19792  if(address(WBNB) == address(lpAddress.token0())){... */\n    tag_170:\n        /* \"contracts/Utils.sol\":19832:19841  lpAddress */\n      dup4\n        /* \"contracts/Utils.sol\":19832:19848  lpAddress.token1 */\n      0xffffffffffffffffffffffffffffffffffffffff\n      and\n      0xd21220a7\n        /* \"contracts/Utils.sol\":19832:19850  lpAddress.token1() */\n      mload(0x40)\n      dup2\n      0xffffffff\n      and\n      0xe0\n      shl\n      dup2\n      mstore\n      0x04\n      add\n      0x20\n      mload(0x40)\n      dup1\n      dup4\n      sub\n      dup2\n      dup7\n      gas\n      staticcall\n      iszero\n      dup1\n      iszero\n      tag_184\n      jumpi\n      returndatasize\n      0x00\n      dup1\n      returndatacopy\n      revert(0x00, returndatasize)\n    tag_184:\n      pop\n      pop\n      pop\n      pop\n      mload(0x40)\n      returndatasize\n      not(0x1f)\n      0x1f\n      dup3\n      add\n      and\n      dup3\n      add\n      dup1\n      0x40\n      mstore\n      pop\n      dup2\n      add\n      swap1\n      tag_185\n      swap2\n      swap1\n      tag_155\n      jump\t// in\n    tag_185:\n        /* \"contracts/Utils.sol\":19807:19851  address(WBNB) == address(lpAddress.token1()) */\n      0xffffffffffffffffffffffffffffffffffffffff\n      and\n        /* \"contracts/Utils.sol\":19815:19819  WBNB */\n      0x01\n      0x00\n      swap1\n      sload\n      swap1\n      0x0100\n      exp\n      swap1\n      div\n      0xffffffffffffffffffffffffffffffffffffffff\n      and\n        /* \"contracts/Utils.sol\":19807:19851  address(WBNB) == address(lpAddress.token1()) */\n      0xffffffffffffffffffffffffffffffffffffffff\n      and\n      sub\n        /* \"contracts/Utils.sol\":19804:20117  if(address(WBNB) == address(lpAddress.token1())){... */\n      tag_186\n      jumpi\n        /* \"contracts/Utils.sol\":19877:19969  lpAddress.token1().balanceOf(address(lpAddress)).mul(WBNBPrice(address(lpAddress.token1()))) */\n      tag_187\n        /* \"contracts/Utils.sol\":19930:19968  WBNBPrice(address(lpAddress.token1())) */\n      tag_188\n        /* \"contracts/Utils.sol\":19948:19957  lpAddress */\n      dup6\n        /* \"contracts/Utils.sol\":19948:19964  lpAddress.token1 */\n      0xffffffffffffffffffffffffffffffffffffffff\n      and\n      0xd21220a7\n        /* \"contracts/Utils.sol\":19948:19966  lpAddress.token1() */\n      mload(0x40)\n      dup2\n      0xffffffff\n      and\n      0xe0\n      shl\n      dup2\n      mstore\n      0x04\n      add\n      0x20\n      mload(0x40)\n      dup1\n      dup4\n      sub\n      dup2\n      dup7\n      gas\n      staticcall\n      iszero\n      dup1\n      iszero\n      tag_190\n      jumpi\n      returndatasize\n      0x00\n      dup1\n      returndatacopy\n      revert(0x00, returndatasize)\n    tag_190:\n      pop\n      pop\n      pop\n      pop\n      mload(0x40)\n      returndatasize\n      not(0x1f)\n      0x1f\n      dup3\n      add\n      and\n      dup3\n      add\n      dup1\n      0x40\n      mstore\n      pop\n      dup2\n      add\n      swap1\n      tag_191\n      swap2\n      swap1\n      tag_155\n      jump\t// in\n    tag_191:\n        /* \"contracts/Utils.sol\":19930:19939  WBNBPrice */\n      tag_54\n        /* \"contracts/Utils.sol\":19930:19968  WBNBPrice(address(lpAddress.token1())) */\n      jump\t// in\n    tag_188:\n        /* \"contracts/Utils.sol\":19877:19886  lpAddress */\n      dup6\n        /* \"contracts/Utils.sol\":19877:19893  lpAddress.token1 */\n      0xffffffffffffffffffffffffffffffffffffffff\n      and\n      0xd21220a7\n        /* \"contracts/Utils.sol\":19877:19895  lpAddress.token1() */\n      mload(0x40)\n      dup2\n      0xffffffff\n      and\n      0xe0\n      shl\n      dup2\n      mstore\n      0x04\n      add\n      0x20\n      mload(0x40)\n      dup1\n      dup4\n      sub\n      dup2\n      dup7\n      gas\n      staticcall\n      iszero\n      dup1\n      iszero\n      tag_193\n      jumpi\n      returndatasize\n      0x00\n      dup1\n      returndatacopy\n      revert(0x00, returndatasize)\n    tag_193:\n      pop\n      pop\n      pop\n      pop\n      mload(0x40)\n      returndatasize\n      not(0x1f)\n      0x1f\n      dup3\n      add\n      and\n      dup3\n      add\n      dup1\n      0x40\n      mstore\n      pop\n      dup2\n      add\n      swap1\n      tag_194\n      swap2\n      swap1\n      tag_155\n      jump\t// in\n    tag_194:\n        /* \"contracts/Utils.sol\":19877:19905  lpAddress.token1().balanceOf */\n      0xffffffffffffffffffffffffffffffffffffffff\n      and\n      0x70a08231\n        /* \"contracts/Utils.sol\":19914:19923  lpAddress */\n      dup8\n        /* \"contracts/Utils.sol\":19877:19925  lpAddress.token1().balanceOf(address(lpAddress)) */\n      mload(0x40)\n      dup3\n      0xffffffff\n      and\n      0xe0\n      shl\n      dup2\n      mstore\n      0x04\n      add\n      tag_195\n      swap2\n      swap1\n      tag_59\n      jump\t// in\n    tag_195:\n      0x20\n      mload(0x40)\n      dup1\n      dup4\n      sub\n      dup2\n      dup7\n      gas\n      staticcall\n      iszero\n      dup1\n      iszero\n      tag_197\n      jumpi\n      returndatasize\n      0x00\n      dup1\n      returndatacopy\n      revert(0x00, returndatasize)\n    tag_197:\n      pop\n      pop\n      pop\n      pop\n      mload(0x40)\n      returndatasize\n      not(0x1f)\n      0x1f\n      dup3\n      add\n      and\n      dup3\n      add\n      dup1\n      0x40\n      mstore\n      pop\n      dup2\n      add\n      swap1\n      tag_198\n      swap2\n      swap1\n      tag_98\n      jump\t// in\n    tag_198:\n        /* \"contracts/Utils.sol\":19877:19929  lpAddress.token1().balanceOf(address(lpAddress)).mul */\n      tag_169\n      swap1\n        /* \"contracts/Utils.sol\":19877:19969  lpAddress.token1().balanceOf(address(lpAddress)).mul(WBNBPrice(address(lpAddress.token1()))) */\n      swap2\n      swap1\n      0xffffffff\n      and\n      jump\t// in\n    tag_187:\n        /* \"contracts/Utils.sol\":19867:19970  phase2 = (lpAddress.token1().balanceOf(address(lpAddress)).mul(WBNBPrice(address(lpAddress.token1())))) */\n      swap1\n      pop\n        /* \"contracts/Utils.sol\":19804:20117  if(address(WBNB) == address(lpAddress.token1())){... */\n      jump(tag_199)\n    tag_186:\n        /* \"contracts/Utils.sol\":20011:20104  lpAddress.token1().balanceOf(address(lpAddress)).mul(Tokenprice(address(lpAddress.token1()))) */\n      tag_200\n        /* \"contracts/Utils.sol\":20064:20103  Tokenprice(address(lpAddress.token1())) */\n      tag_201\n        /* \"contracts/Utils.sol\":20083:20092  lpAddress */\n      dup6\n        /* \"contracts/Utils.sol\":20083:20099  lpAddress.token1 */\n      0xffffffffffffffffffffffffffffffffffffffff\n      and\n      0xd21220a7\n        /* \"contracts/Utils.sol\":20083:20101  lpAddress.token1() */\n      mload(0x40)\n      dup2\n      0xffffffff\n      and\n      0xe0\n      shl\n      dup2\n      mstore\n      0x04\n      add\n      0x20\n      mload(0x40)\n      dup1\n      dup4\n      sub\n      dup2\n      dup7\n      gas\n      staticcall\n      iszero\n      dup1\n      iszero\n      tag_203\n      jumpi\n      returndatasize\n      0x00\n      dup1\n      returndatacopy\n      revert(0x00, returndatasize)\n    tag_203:\n      pop\n      pop\n      pop\n      pop\n      mload(0x40)\n      returndatasize\n      not(0x1f)\n      0x1f\n      dup3\n      add\n      and\n      dup3\n      add\n      dup1\n      0x40\n      mstore\n      pop\n      dup2\n      add\n      swap1\n      tag_204\n      swap2\n      swap1\n      tag_155\n      jump\t// in\n    tag_204:\n        /* \"contracts/Utils.sol\":20064:20074  Tokenprice */\n      tag_37\n        /* \"contracts/Utils.sol\":20064:20103  Tokenprice(address(lpAddress.token1())) */\n      jump\t// in\n    tag_201:\n        /* \"contracts/Utils.sol\":20011:20020  lpAddress */\n      dup6\n        /* \"contracts/Utils.sol\":20011:20027  lpAddress.token1 */\n      0xffffffffffffffffffffffffffffffffffffffff\n      and\n      0xd21220a7\n        /* \"contracts/Utils.sol\":20011:20029  lpAddress.token1() */\n      mload(0x40)\n      dup2\n      0xffffffff\n      and\n      0xe0\n      shl\n      dup2\n      mstore\n      0x04\n      add\n      0x20\n      mload(0x40)\n      dup1\n      dup4\n      sub\n      dup2\n      dup7\n      gas\n      staticcall\n      iszero\n      dup1\n      iszero\n      tag_206\n      jumpi\n      returndatasize\n      0x00\n      dup1\n      returndatacopy\n      revert(0x00, returndatasize)\n    tag_206:\n      pop\n      pop\n      pop\n      pop\n      mload(0x40)\n      returndatasize\n      not(0x1f)\n      0x1f\n      dup3\n      add\n      and\n      dup3\n      add\n      dup1\n      0x40\n      mstore\n      pop\n      dup2\n      add\n      swap1\n      tag_207\n      swap2\n      swap1\n      tag_155\n      jump\t// in\n    tag_207:\n        /* \"contracts/Utils.sol\":20011:20039  lpAddress.token1().balanceOf */\n      0xffffffffffffffffffffffffffffffffffffffff\n      and\n      0x70a08231\n        /* \"contracts/Utils.sol\":20048:20057  lpAddress */\n      dup8\n        /* \"contracts/Utils.sol\":20011:20059  lpAddress.token1().balanceOf(address(lpAddress)) */\n      mload(0x40)\n      dup3\n      0xffffffff\n      and\n      0xe0\n      shl\n      dup2\n      mstore\n      0x04\n      add\n      tag_208\n      swap2\n      swap1\n      tag_59\n      jump\t// in\n    tag_208:\n      0x20\n      mload(0x40)\n      dup1\n      dup4\n      sub\n      dup2\n      dup7\n      gas\n      staticcall\n      iszero\n      dup1\n      iszero\n      tag_210\n      jumpi\n      returndatasize\n      0x00\n      dup1\n      returndatacopy\n      revert(0x00, returndatasize)\n    tag_210:\n      pop\n      pop\n      pop\n      pop\n      mload(0x40)\n      returndatasize\n      not(0x1f)\n      0x1f\n      dup3\n      add\n      and\n      dup3\n      add\n      dup1\n      0x40\n      mstore\n      pop\n      dup2\n      add\n      swap1\n      tag_211\n      swap2\n      swap1\n      tag_98\n      jump\t// in\n    tag_211:\n        /* \"contracts/Utils.sol\":20011:20063  lpAddress.token1().balanceOf(address(lpAddress)).mul */\n      tag_169\n      swap1\n        /* \"contracts/Utils.sol\":20011:20104  lpAddress.token1().balanceOf(address(lpAddress)).mul(Tokenprice(address(lpAddress.token1()))) */\n      swap2\n      swap1\n      0xffffffff\n      and\n      jump\t// in\n    tag_200:\n        /* \"contracts/Utils.sol\":20001:20105  phase2 = (lpAddress.token1().balanceOf(address(lpAddress)).mul(Tokenprice(address(lpAddress.token1())))) */\n      swap1\n      pop\n        /* \"contracts/Utils.sol\":19804:20117  if(address(WBNB) == address(lpAddress.token1())){... */\n    tag_199:\n        /* \"contracts/Utils.sol\":20145:20194  (phase1.add(phase2)).div(lpAddress.totalSupply()) */\n      tag_212\n        /* \"contracts/Utils.sol\":20170:20179  lpAddress */\n      dup5\n        /* \"contracts/Utils.sol\":20170:20191  lpAddress.totalSupply */\n      0xffffffffffffffffffffffffffffffffffffffff\n      and\n      0x18160ddd\n        /* \"contracts/Utils.sol\":20170:20193  lpAddress.totalSupply() */\n      mload(0x40)\n      dup2\n      0xffffffff\n      and\n      0xe0\n      shl\n      dup2\n      mstore\n      0x04\n      add\n      0x20\n      mload(0x40)\n      dup1\n      dup4\n      sub\n      dup2\n      dup7\n      gas\n      staticcall\n      iszero\n      dup1\n      iszero\n      tag_214\n      jumpi\n      returndatasize\n      0x00\n      dup1\n      returndatacopy\n      revert(0x00, returndatasize)\n    tag_214:\n      pop\n      pop\n      pop\n      pop\n      mload(0x40)\n      returndatasize\n      not(0x1f)\n      0x1f\n      dup3\n      add\n      and\n      dup3\n      add\n      dup1\n      0x40\n      mstore\n      pop\n      dup2\n      add\n      swap1\n      tag_215\n      swap2\n      swap1\n      tag_98\n      jump\t// in\n    tag_215:\n        /* \"contracts/Utils.sol\":20146:20164  phase1.add(phase2) */\n      tag_216\n        /* \"contracts/Utils.sol\":20157:20163  phase2 */\n      dup4\n        /* \"contracts/Utils.sol\":20146:20152  phase1 */\n      dup6\n        /* \"contracts/Utils.sol\":20146:20156  phase1.add */\n      tag_217\n      swap1\n        /* \"contracts/Utils.sol\":20146:20164  phase1.add(phase2) */\n      swap2\n      swap1\n      0xffffffff\n      and\n      jump\t// in\n    tag_216:\n        /* \"contracts/Utils.sol\":20145:20169  (phase1.add(phase2)).div */\n      tag_110\n      swap1\n        /* \"contracts/Utils.sol\":20145:20194  (phase1.add(phase2)).div(lpAddress.totalSupply()) */\n      swap2\n      swap1\n      0xffffffff\n      and\n      jump\t// in\n    tag_212:\n        /* \"contracts/Utils.sol\":20137:20195  return ((phase1.add(phase2)).div(lpAddress.totalSupply())) */\n      swap3\n      pop\n      pop\n      pop\n        /* \"contracts/Utils.sol\":19355:20203  function CalcLpPrice(LP lpAddress) public view returns(uint256){... */\n      swap2\n      swap1\n      pop\n      jump\t// out\n        /* \"contracts/Utils.sol\":22636:22815  function isLpAddress(LP lpAddress) public view returns(uint256){... */\n    tag_46:\n        /* \"contracts/Utils.sol\":22691:22698  uint256 */\n      0x00\n        /* \"contracts/Utils.sol\":22714:22723  lpAddress */\n      dup2\n        /* \"contracts/Utils.sol\":22714:22730  lpAddress.token0 */\n      0xffffffffffffffffffffffffffffffffffffffff\n      and\n      0x0dfe1681\n        /* \"contracts/Utils.sol\":22714:22732  lpAddress.token0() */\n      mload(0x40)\n      dup2\n      0xffffffff\n      and\n      0xe0\n      shl\n      dup2\n      mstore\n      0x04\n      add\n      0x20\n      mload(0x40)\n      dup1\n      dup4\n      sub\n      dup2\n      dup7\n      gas\n      staticcall\n      swap3\n      pop\n      pop\n      pop\n      dup1\n      iszero\n      tag_219\n      jumpi\n      pop\n      mload(0x40)\n      returndatasize\n      not(0x1f)\n      0x1f\n      dup3\n      add\n      and\n      dup3\n      add\n      dup1\n      0x40\n      mstore\n      pop\n      dup2\n      add\n      swap1\n      tag_220\n      swap2\n      swap1\n      tag_155\n      jump\t// in\n    tag_220:\n      0x01\n    tag_219:\n        /* \"contracts/Utils.sol\":22710:22808  try lpAddress.token0() {... */\n      tag_221\n      jumpi\n        /* \"contracts/Utils.sol\":22795:22796  0 */\n      0x00\n        /* \"contracts/Utils.sol\":22788:22796  return 0 */\n      swap1\n      pop\n      jump(tag_218)\n        /* \"contracts/Utils.sol\":22710:22808  try lpAddress.token0() {... */\n    tag_221:\n      pop\n        /* \"contracts/Utils.sol\":22755:22756  1 */\n      0x01\n        /* \"contracts/Utils.sol\":22748:22756  return 1 */\n      swap1\n      pop\n        /* \"contracts/Utils.sol\":22636:22815  function isLpAddress(LP lpAddress) public view returns(uint256){... */\n    tag_218:\n      swap2\n      swap1\n      pop\n      jump\t// out\n        /* \"contracts/Utils.sol\":18430:18457  Router public routerAddress */\n    tag_49:\n      0x04\n      0x00\n      swap1\n      sload\n      swap1\n      0x0100\n      exp\n      swap1\n      div\n      0xffffffffffffffffffffffffffffffffffffffff\n      and\n      dup2\n      jump\t// out\n        /* \"contracts/Utils.sol\":19097:19330  function WBNBPrice(address token) public view returns(uint256){... */\n    tag_54:\n        /* \"contracts/Utils.sol\":19151:19158  uint256 */\n      0x00\n        /* \"contracts/Utils.sol\":19170:19191  address[] memory path */\n      dup1\n        /* \"contracts/Utils.sol\":19208:19209  2 */\n      0x02\n        /* \"contracts/Utils.sol\":19194:19210  new address[](2) */\n      0xffffffffffffffff\n      dup2\n      gt\n      iszero\n      tag_227\n      jumpi\n      tag_228\n      tag_135\n      jump\t// in\n    tag_228:\n    tag_227:\n      mload(0x40)\n      swap1\n      dup1\n      dup3\n      mstore\n      dup1\n      0x20\n      mul\n      0x20\n      add\n      dup3\n      add\n      0x40\n      mstore\n      dup1\n      iszero\n      tag_229\n      jumpi\n      dup2\n      0x20\n      add\n      0x20\n      dup3\n      mul\n      dup1\n      calldatasize\n      dup4\n      calldatacopy\n      dup1\n      dup3\n      add\n      swap2\n      pop\n      pop\n      swap1\n      pop\n    tag_229:\n      pop\n        /* \"contracts/Utils.sol\":19170:19210  address[] memory path = new address[](2) */\n      swap1\n      pop\n        /* \"contracts/Utils.sol\":19231:19236  token */\n      dup3\n        /* \"contracts/Utils.sol\":19221:19225  path */\n      dup2\n        /* \"contracts/Utils.sol\":19226:19227  0 */\n      0x00\n        /* \"contracts/Utils.sol\":19221:19228  path[0] */\n      dup2\n      mload\n      dup2\n      lt\n      tag_230\n      jumpi\n      tag_231\n      tag_118\n      jump\t// in\n    tag_231:\n    tag_230:\n      0x20\n      mul\n      0x20\n      add\n      add\n        /* \"contracts/Utils.sol\":19221:19236  path[0] = token */\n      swap1\n      0xffffffffffffffffffffffffffffffffffffffff\n      and\n      swap1\n      dup2\n      0xffffffffffffffffffffffffffffffffffffffff\n      and\n      dup2\n      mstore\n      pop\n      pop\n        /* \"contracts/Utils.sol\":19257:19261  BUSD */\n      0x02\n      0x00\n      swap1\n      sload\n      swap1\n      0x0100\n      exp\n      swap1\n      div\n      0xffffffffffffffffffffffffffffffffffffffff\n      and\n        /* \"contracts/Utils.sol\":19247:19251  path */\n      dup2\n        /* \"contracts/Utils.sol\":19252:19253  1 */\n      0x01\n        /* \"contracts/Utils.sol\":19247:19254  path[1] */\n      dup2\n      mload\n      dup2\n      lt\n      tag_232\n      jumpi\n      tag_233\n      tag_118\n      jump\t// in\n    tag_233:\n    tag_232:\n      0x20\n      mul\n      0x20\n      add\n      add\n        /* \"contracts/Utils.sol\":19247:19261  path[1] = BUSD */\n      swap1\n      0xffffffffffffffffffffffffffffffffffffffff\n      and\n      swap1\n      dup2\n      0xffffffffffffffffffffffffffffffffffffffff\n      and\n      dup2\n      mstore\n      pop\n      pop\n        /* \"contracts/Utils.sol\":19279:19292  routerAddress */\n      0x04\n      0x00\n      swap1\n      sload\n      swap1\n      0x0100\n      exp\n      swap1\n      div\n      0xffffffffffffffffffffffffffffffffffffffff\n      and\n        /* \"contracts/Utils.sol\":19279:19306  routerAddress.getAmountsOut */\n      0xffffffffffffffffffffffffffffffffffffffff\n      and\n      0xd06ca61f\n        /* \"contracts/Utils.sol\":19307:19313  amount */\n      sload(0x03)\n        /* \"contracts/Utils.sol\":19314:19318  path */\n      dup4\n        /* \"contracts/Utils.sol\":19279:19319  routerAddress.getAmountsOut(amount,path) */\n      mload(0x40)\n      dup4\n      0xffffffff\n      and\n      0xe0\n      shl\n      dup2\n      mstore\n      0x04\n      add\n      tag_234\n      swap3\n      swap2\n      swap1\n      tag_144\n      jump\t// in\n    tag_234:\n      0x00\n      mload(0x40)\n      dup1\n      dup4\n      sub\n      dup2\n      dup7\n      gas\n      staticcall\n      iszero\n      dup1\n      iszero\n      tag_236\n      jumpi\n      returndatasize\n      0x00\n      dup1\n      returndatacopy\n      revert(0x00, returndatasize)\n    tag_236:\n      pop\n      pop\n      pop\n      pop\n      mload(0x40)\n      returndatasize\n      0x00\n      dup3\n      returndatacopy\n      returndatasize\n      not(0x1f)\n      0x1f\n      dup3\n      add\n      and\n      dup3\n      add\n      dup1\n      0x40\n      mstore\n      pop\n      dup2\n      add\n      swap1\n      tag_237\n      swap2\n      swap1\n      tag_148\n      jump\t// in\n    tag_237:\n        /* \"contracts/Utils.sol\":19320:19321  1 */\n      0x01\n        /* \"contracts/Utils.sol\":19279:19322  routerAddress.getAmountsOut(amount,path)[1] */\n      dup2\n      mload\n      dup2\n      lt\n      tag_238\n      jumpi\n      tag_239\n      tag_118\n      jump\t// in\n    tag_239:\n    tag_238:\n      0x20\n      mul\n      0x20\n      add\n      add\n      mload\n        /* \"contracts/Utils.sol\":19272:19322  return routerAddress.getAmountsOut(amount,path)[1] */\n      swap2\n      pop\n      pop\n        /* \"contracts/Utils.sol\":19097:19330  function WBNBPrice(address token) public view returns(uint256){... */\n      swap2\n      swap1\n      pop\n      jump\t// out\n        /* \"contracts/Utils.sol\":18361:18380  address public BUSD */\n    tag_57:\n      0x02\n      0x00\n      swap1\n      sload\n      swap1\n      0x0100\n      exp\n      swap1\n      div\n      0xffffffffffffffffffffffffffffffffffffffff\n      and\n      dup2\n      jump\t// out\n        /* \"contracts/Utils.sol\":22823:23277  function CalcTotalTVL(MetaMasterChef MasterChef,LP[] memory lpAddress) external view returns(uint256){... */\n    tag_62:\n        /* \"contracts/Utils.sol\":22916:22923  uint256 */\n      0x00\n        /* \"contracts/Utils.sol\":22935:22946  uint256 TVL */\n      dup1\n        /* \"contracts/Utils.sol\":22949:22950  0 */\n      0x00\n        /* \"contracts/Utils.sol\":22935:22950  uint256 TVL = 0 */\n      swap1\n      pop\n        /* \"contracts/Utils.sol\":22965:22974  uint256 i */\n      0x00\n        /* \"contracts/Utils.sol\":22961:23247  for(uint256 i=0; i< lpAddress.length; i++){... */\n    tag_241:\n        /* \"contracts/Utils.sol\":22981:22990  lpAddress */\n      dup4\n        /* \"contracts/Utils.sol\":22981:22997  lpAddress.length */\n      mload\n        /* \"contracts/Utils.sol\":22978:22979  i */\n      dup2\n        /* \"contracts/Utils.sol\":22978:22997  i< lpAddress.length */\n      lt\n        /* \"contracts/Utils.sol\":22961:23247  for(uint256 i=0; i< lpAddress.length; i++){... */\n      iszero\n      tag_242\n      jumpi\n        /* \"contracts/Utils.sol\":23050:23051  1 */\n      0x01\n        /* \"contracts/Utils.sol\":23021:23046  isLpAddress(lpAddress[i]) */\n      tag_244\n        /* \"contracts/Utils.sol\":23033:23042  lpAddress */\n      dup6\n        /* \"contracts/Utils.sol\":23043:23044  i */\n      dup4\n        /* \"contracts/Utils.sol\":23033:23045  lpAddress[i] */\n      dup2\n      mload\n      dup2\n      lt\n      tag_245\n      jumpi\n      tag_246\n      tag_118\n      jump\t// in\n    tag_246:\n    tag_245:\n      0x20\n      mul\n      0x20\n      add\n      add\n      mload\n        /* \"contracts/Utils.sol\":23021:23032  isLpAddress */\n      tag_46\n        /* \"contracts/Utils.sol\":23021:23046  isLpAddress(lpAddress[i]) */\n      jump\t// in\n    tag_244:\n        /* \"contracts/Utils.sol\":23021:23051  isLpAddress(lpAddress[i]) == 1 */\n      sub\n        /* \"contracts/Utils.sol\":23018:23236  if(isLpAddress(lpAddress[i]) == 1){... */\n      tag_247\n      jumpi\n        /* \"contracts/Utils.sol\":23078:23126  calcPoolTVLInUSD(i, lpAddress[i], 1, MasterChef) */\n      tag_248\n        /* \"contracts/Utils.sol\":23095:23096  i */\n      dup2\n        /* \"contracts/Utils.sol\":23098:23107  lpAddress */\n      dup6\n        /* \"contracts/Utils.sol\":23108:23109  i */\n      dup4\n        /* \"contracts/Utils.sol\":23098:23110  lpAddress[i] */\n      dup2\n      mload\n      dup2\n      lt\n      tag_249\n      jumpi\n      tag_250\n      tag_118\n      jump\t// in\n    tag_250:\n    tag_249:\n      0x20\n      mul\n      0x20\n      add\n      add\n      mload\n        /* \"contracts/Utils.sol\":23112:23113  1 */\n      0x01\n        /* \"contracts/Utils.sol\":23115:23125  MasterChef */\n      dup9\n        /* \"contracts/Utils.sol\":23078:23094  calcPoolTVLInUSD */\n      tag_79\n        /* \"contracts/Utils.sol\":23078:23126  calcPoolTVLInUSD(i, lpAddress[i], 1, MasterChef) */\n      jump\t// in\n    tag_248:\n        /* \"contracts/Utils.sol\":23071:23126  TVL += calcPoolTVLInUSD(i, lpAddress[i], 1, MasterChef) */\n      dup3\n      tag_251\n      swap2\n      swap1\n      tag_124\n      jump\t// in\n    tag_251:\n      swap2\n      pop\n        /* \"contracts/Utils.sol\":23018:23236  if(isLpAddress(lpAddress[i]) == 1){... */\n      jump(tag_252)\n    tag_247:\n        /* \"contracts/Utils.sol\":23172:23220  calcPoolTVLInUSD(i, lpAddress[i], 0, MasterChef) */\n      tag_253\n        /* \"contracts/Utils.sol\":23189:23190  i */\n      dup2\n        /* \"contracts/Utils.sol\":23192:23201  lpAddress */\n      dup6\n        /* \"contracts/Utils.sol\":23202:23203  i */\n      dup4\n        /* \"contracts/Utils.sol\":23192:23204  lpAddress[i] */\n      dup2\n      mload\n      dup2\n      lt\n      tag_254\n      jumpi\n      tag_255\n      tag_118\n      jump\t// in\n    tag_255:\n    tag_254:\n      0x20\n      mul\n      0x20\n      add\n      add\n      mload\n        /* \"contracts/Utils.sol\":23206:23207  0 */\n      0x00\n        /* \"contracts/Utils.sol\":23209:23219  MasterChef */\n      dup9\n        /* \"contracts/Utils.sol\":23172:23188  calcPoolTVLInUSD */\n      tag_79\n        /* \"contracts/Utils.sol\":23172:23220  calcPoolTVLInUSD(i, lpAddress[i], 0, MasterChef) */\n      jump\t// in\n    tag_253:\n        /* \"contracts/Utils.sol\":23165:23220  TVL += calcPoolTVLInUSD(i, lpAddress[i], 0, MasterChef) */\n      dup3\n      tag_256\n      swap2\n      swap1\n      tag_124\n      jump\t// in\n    tag_256:\n      swap2\n      pop\n        /* \"contracts/Utils.sol\":23018:23236  if(isLpAddress(lpAddress[i]) == 1){... */\n    tag_252:\n        /* \"contracts/Utils.sol\":22999:23002  i++ */\n      dup1\n      dup1\n      tag_257\n      swap1\n      tag_131\n      jump\t// in\n    tag_257:\n      swap2\n      pop\n      pop\n        /* \"contracts/Utils.sol\":22961:23247  for(uint256 i=0; i< lpAddress.length; i++){... */\n      jump(tag_241)\n    tag_242:\n      pop\n        /* \"contracts/Utils.sol\":23266:23269  TVL */\n      dup1\n        /* \"contracts/Utils.sol\":23259:23269  return TVL */\n      swap2\n      pop\n      pop\n        /* \"contracts/Utils.sol\":22823:23277  function CalcTotalTVL(MetaMasterChef MasterChef,LP[] memory lpAddress) external view returns(uint256){... */\n      swap3\n      swap2\n      pop\n      pop\n      jump\t// out\n        /* \"contracts/Utils.sol\":14500:14603  function renounceOwnership() public virtual onlyOwner {... */\n    tag_65:\n        /* \"contracts/Utils.sol\":14080:14092  _msgSender() */\n      tag_259\n        /* \"contracts/Utils.sol\":14080:14090  _msgSender */\n      tag_260\n        /* \"contracts/Utils.sol\":14080:14092  _msgSender() */\n      jump\t// in\n    tag_259:\n        /* \"contracts/Utils.sol\":14069:14092  owner() == _msgSender() */\n      0xffffffffffffffffffffffffffffffffffffffff\n      and\n        /* \"contracts/Utils.sol\":14069:14076  owner() */\n      tag_261\n        /* \"contracts/Utils.sol\":14069:14074  owner */\n      tag_67\n        /* \"contracts/Utils.sol\":14069:14076  owner() */\n      jump\t// in\n    tag_261:\n        /* \"contracts/Utils.sol\":14069:14092  owner() == _msgSender() */\n      0xffffffffffffffffffffffffffffffffffffffff\n      and\n      eq\n        /* \"contracts/Utils.sol\":14061:14129  require(owner() == _msgSender(), \"Ownable: caller is not the owner\") */\n      tag_262\n      jumpi\n      mload(0x40)\n      0x08c379a000000000000000000000000000000000000000000000000000000000\n      dup2\n      mstore\n      0x04\n      add\n      tag_263\n      swap1\n      tag_264\n      jump\t// in\n    tag_263:\n      mload(0x40)\n      dup1\n      swap2\n      sub\n      swap1\n      revert\n    tag_262:\n        /* \"contracts/Utils.sol\":14565:14595  _transferOwnership(address(0)) */\n      tag_266\n        /* \"contracts/Utils.sol\":14592:14593  0 */\n      0x00\n        /* \"contracts/Utils.sol\":14565:14583  _transferOwnership */\n      tag_267\n        /* \"contracts/Utils.sol\":14565:14595  _transferOwnership(address(0)) */\n      jump\t// in\n    tag_266:\n        /* \"contracts/Utils.sol\":14500:14603  function renounceOwnership() public virtual onlyOwner {... */\n      jump\t// out\n        /* \"contracts/Utils.sol\":13849:13936  function owner() public view virtual returns (address) {... */\n    tag_67:\n        /* \"contracts/Utils.sol\":13895:13902  address */\n      0x00\n        /* \"contracts/Utils.sol\":13922:13928  _owner */\n      dup1\n      0x00\n      swap1\n      sload\n      swap1\n      0x0100\n      exp\n      swap1\n      div\n      0xffffffffffffffffffffffffffffffffffffffff\n      and\n        /* \"contracts/Utils.sol\":13915:13928  return _owner */\n      swap1\n      pop\n        /* \"contracts/Utils.sol\":13849:13936  function owner() public view virtual returns (address) {... */\n      swap1\n      jump\t// out\n        /* \"contracts/Utils.sol\":18335:18354  address public WBNB */\n    tag_70:\n      0x01\n      0x00\n      swap1\n      sload\n      swap1\n      0x0100\n      exp\n      swap1\n      div\n      0xffffffffffffffffffffffffffffffffffffffff\n      and\n      dup2\n      jump\t// out\n        /* \"contracts/Utils.sol\":18681:18788  function setRouter(Router _routerAddress) public onlyOwner{... */\n    tag_75:\n        /* \"contracts/Utils.sol\":14080:14092  _msgSender() */\n      tag_270\n        /* \"contracts/Utils.sol\":14080:14090  _msgSender */\n      tag_260\n        /* \"contracts/Utils.sol\":14080:14092  _msgSender() */\n      jump\t// in\n    tag_270:\n        /* \"contracts/Utils.sol\":14069:14092  owner() == _msgSender() */\n      0xffffffffffffffffffffffffffffffffffffffff\n      and\n        /* \"contracts/Utils.sol\":14069:14076  owner() */\n      tag_271\n        /* \"contracts/Utils.sol\":14069:14074  owner */\n      tag_67\n        /* \"contracts/Utils.sol\":14069:14076  owner() */\n      jump\t// in\n    tag_271:\n        /* \"contracts/Utils.sol\":14069:14092  owner() == _msgSender() */\n      0xffffffffffffffffffffffffffffffffffffffff\n      and\n      eq\n        /* \"contracts/Utils.sol\":14061:14129  require(owner() == _msgSender(), \"Ownable: caller is not the owner\") */\n      tag_272\n      jumpi\n      mload(0x40)\n      0x08c379a000000000000000000000000000000000000000000000000000000000\n      dup2\n      mstore\n      0x04\n      add\n      tag_273\n      swap1\n      tag_264\n      jump\t// in\n    tag_273:\n      mload(0x40)\n      dup1\n      swap2\n      sub\n      swap1\n      revert\n    tag_272:\n        /* \"contracts/Utils.sol\":18766:18780  _routerAddress */\n      dup1\n        /* \"contracts/Utils.sol\":18750:18763  routerAddress */\n      0x04\n      0x00\n        /* \"contracts/Utils.sol\":18750:18780  routerAddress = _routerAddress */\n      0x0100\n      exp\n      dup2\n      sload\n      dup2\n      0xffffffffffffffffffffffffffffffffffffffff\n      mul\n      not\n      and\n      swap1\n      dup4\n      0xffffffffffffffffffffffffffffffffffffffff\n      and\n      mul\n      or\n      swap1\n      sstore\n      pop\n        /* \"contracts/Utils.sol\":18681:18788  function setRouter(Router _routerAddress) public onlyOwner{... */\n      pop\n      jump\t// out\n        /* \"contracts/Utils.sol\":20226:20797  function calcPoolTVLInUSD(uint256 pid, LP lpAddress, uint256 isLp, MetaMasterChef MasterChef) public view returns(uint256){... */\n    tag_79:\n        /* \"contracts/Utils.sol\":20340:20347  uint256 */\n      0x00\n        /* \"contracts/Utils.sol\":20359:20374  uint256 Balance */\n      dup1\n        /* \"contracts/Utils.sol\":20377:20387  MasterChef */\n      dup3\n        /* \"contracts/Utils.sol\":20377:20399  MasterChef.poolBalance */\n      0xffffffffffffffffffffffffffffffffffffffff\n      and\n      0x6a6d964e\n        /* \"contracts/Utils.sol\":20400:20403  pid */\n      dup8\n        /* \"contracts/Utils.sol\":20377:20404  MasterChef.poolBalance(pid) */\n      mload(0x40)\n      dup3\n      0xffffffff\n      and\n      0xe0\n      shl\n      dup2\n      mstore\n      0x04\n      add\n      tag_276\n      swap2\n      swap1\n      tag_28\n      jump\t// in\n    tag_276:\n      0x20\n      mload(0x40)\n      dup1\n      dup4\n      sub\n      dup2\n      dup7\n      gas\n      staticcall\n      iszero\n      dup1\n      iszero\n      tag_278\n      jumpi\n      returndatasize\n      0x00\n      dup1\n      returndatacopy\n      revert(0x00, returndatasize)\n    tag_278:\n      pop\n      pop\n      pop\n      pop\n      mload(0x40)\n      returndatasize\n      not(0x1f)\n      0x1f\n      dup3\n      add\n      and\n      dup3\n      add\n      dup1\n      0x40\n      mstore\n      pop\n      dup2\n      add\n      swap1\n      tag_279\n      swap2\n      swap1\n      tag_98\n      jump\t// in\n    tag_279:\n        /* \"contracts/Utils.sol\":20359:20404  uint256 Balance = MasterChef.poolBalance(pid) */\n      swap1\n      pop\n        /* \"contracts/Utils.sol\":20415:20428  uint256 price */\n      0x00\n        /* \"contracts/Utils.sol\":20450:20451  1 */\n      0x01\n        /* \"contracts/Utils.sol\":20442:20446  isLp */\n      dup6\n        /* \"contracts/Utils.sol\":20442:20451  isLp == 1 */\n      sub\n        /* \"contracts/Utils.sol\":20439:20741  if(isLp == 1){... */\n      tag_280\n      jumpi\n        /* \"contracts/Utils.sol\":20475:20497  CalcLpPrice(lpAddress) */\n      tag_281\n        /* \"contracts/Utils.sol\":20487:20496  lpAddress */\n      dup7\n        /* \"contracts/Utils.sol\":20475:20486  CalcLpPrice */\n      tag_42\n        /* \"contracts/Utils.sol\":20475:20497  CalcLpPrice(lpAddress) */\n      jump\t// in\n    tag_281:\n        /* \"contracts/Utils.sol\":20467:20497  price = CalcLpPrice(lpAddress) */\n      swap1\n      pop\n        /* \"contracts/Utils.sol\":20439:20741  if(isLp == 1){... */\n      jump(tag_282)\n    tag_280:\n        /* \"contracts/Utils.sol\":20525:20526  0 */\n      0x00\n        /* \"contracts/Utils.sol\":20517:20521  isLp */\n      dup6\n        /* \"contracts/Utils.sol\":20517:20526  isLp == 0 */\n      sub\n        /* \"contracts/Utils.sol\":20514:20741  if(isLp == 0){... */\n      tag_283\n      jumpi\n        /* \"contracts/Utils.sol\":20570:20579  lpAddress */\n      dup6\n        /* \"contracts/Utils.sol\":20545:20580  address(WBNB) == address(lpAddress) */\n      0xffffffffffffffffffffffffffffffffffffffff\n      and\n        /* \"contracts/Utils.sol\":20553:20557  WBNB */\n      0x01\n      0x00\n      swap1\n      sload\n      swap1\n      0x0100\n      exp\n      swap1\n      div\n      0xffffffffffffffffffffffffffffffffffffffff\n      and\n        /* \"contracts/Utils.sol\":20545:20580  address(WBNB) == address(lpAddress) */\n      0xffffffffffffffffffffffffffffffffffffffff\n      and\n      sub\n        /* \"contracts/Utils.sol\":20542:20730  if(address(WBNB) == address(lpAddress)){... */\n      tag_284\n      jumpi\n        /* \"contracts/Utils.sol\":20608:20637  WBNBPrice(address(lpAddress)) */\n      tag_285\n        /* \"contracts/Utils.sol\":20626:20635  lpAddress */\n      dup7\n        /* \"contracts/Utils.sol\":20608:20617  WBNBPrice */\n      tag_54\n        /* \"contracts/Utils.sol\":20608:20637  WBNBPrice(address(lpAddress)) */\n      jump\t// in\n    tag_285:\n        /* \"contracts/Utils.sol\":20600:20637  price = WBNBPrice(address(lpAddress)) */\n      swap1\n      pop\n        /* \"contracts/Utils.sol\":20542:20730  if(address(WBNB) == address(lpAddress)){... */\n      jump(tag_286)\n    tag_284:\n        /* \"contracts/Utils.sol\":20684:20714  Tokenprice(address(lpAddress)) */\n      tag_287\n        /* \"contracts/Utils.sol\":20703:20712  lpAddress */\n      dup7\n        /* \"contracts/Utils.sol\":20684:20694  Tokenprice */\n      tag_37\n        /* \"contracts/Utils.sol\":20684:20714  Tokenprice(address(lpAddress)) */\n      jump\t// in\n    tag_287:\n        /* \"contracts/Utils.sol\":20676:20714  price = Tokenprice(address(lpAddress)) */\n      swap1\n      pop\n        /* \"contracts/Utils.sol\":20542:20730  if(address(WBNB) == address(lpAddress)){... */\n    tag_286:\n        /* \"contracts/Utils.sol\":20514:20741  if(isLp == 0){... */\n    tag_283:\n        /* \"contracts/Utils.sol\":20439:20741  if(isLp == 1){... */\n    tag_282:\n        /* \"contracts/Utils.sol\":20760:20789  (Balance * price).div(amount) */\n      tag_288\n        /* \"contracts/Utils.sol\":20782:20788  amount */\n      sload(0x03)\n        /* \"contracts/Utils.sol\":20771:20776  price */\n      dup3\n        /* \"contracts/Utils.sol\":20761:20768  Balance */\n      dup5\n        /* \"contracts/Utils.sol\":20761:20776  Balance * price */\n      tag_289\n      swap2\n      swap1\n      tag_109\n      jump\t// in\n    tag_289:\n        /* \"contracts/Utils.sol\":20760:20781  (Balance * price).div */\n      tag_110\n      swap1\n        /* \"contracts/Utils.sol\":20760:20789  (Balance * price).div(amount) */\n      swap2\n      swap1\n      0xffffffff\n      and\n      jump\t// in\n    tag_288:\n        /* \"contracts/Utils.sol\":20753:20789  return (Balance * price).div(amount) */\n      swap3\n      pop\n      pop\n      pop\n        /* \"contracts/Utils.sol\":20226:20797  function calcPoolTVLInUSD(uint256 pid, LP lpAddress, uint256 isLp, MetaMasterChef MasterChef) public view returns(uint256){... */\n      swap5\n      swap4\n      pop\n      pop\n      pop\n      pop\n      jump\t// out\n        /* \"contracts/Utils.sol\":21391:22093  function CalcApy(uint256 pid, LP lpAddress,uint256 isLp, MetaMasterChef MasterChef) external view returns(uint256){... */\n    tag_83:\n        /* \"contracts/Utils.sol\":21497:21504  uint256 */\n      0x00\n        /* \"contracts/Utils.sol\":21516:21536  PoolInfo memory pool */\n      dup1\n        /* \"contracts/Utils.sol\":21539:21549  MasterChef */\n      dup3\n        /* \"contracts/Utils.sol\":21539:21558  MasterChef.poolInfo */\n      0xffffffffffffffffffffffffffffffffffffffff\n      and\n      0x1526fe27\n        /* \"contracts/Utils.sol\":21559:21562  pid */\n      dup8\n        /* \"contracts/Utils.sol\":21539:21563  MasterChef.poolInfo(pid) */\n      mload(0x40)\n      dup3\n      0xffffffff\n      and\n      0xe0\n      shl\n      dup2\n      mstore\n      0x04\n      add\n      tag_291\n      swap2\n      swap1\n      tag_28\n      jump\t// in\n    tag_291:\n      0xc0\n      mload(0x40)\n      dup1\n      dup4\n      sub\n      dup2\n      dup7\n      gas\n      staticcall\n      iszero\n      dup1\n      iszero\n      tag_293\n      jumpi\n      returndatasize\n      0x00\n      dup1\n      returndatacopy\n      revert(0x00, returndatasize)\n    tag_293:\n      pop\n      pop\n      pop\n      pop\n      mload(0x40)\n      returndatasize\n      not(0x1f)\n      0x1f\n      dup3\n      add\n      and\n      dup3\n      add\n      dup1\n      0x40\n      mstore\n      pop\n      dup2\n      add\n      swap1\n      tag_294\n      swap2\n      swap1\n      tag_295\n      jump\t// in\n    tag_294:\n        /* \"contracts/Utils.sol\":21516:21563  PoolInfo memory pool = MasterChef.poolInfo(pid) */\n      swap1\n      pop\n        /* \"contracts/Utils.sol\":21574:21592  uint256 poolWeight */\n      0x00\n        /* \"contracts/Utils.sol\":21595:21660  ((pool.allocPoint).mul(amount)).div(MasterChef.totalAllocPoint()) */\n      tag_296\n        /* \"contracts/Utils.sol\":21631:21641  MasterChef */\n      dup5\n        /* \"contracts/Utils.sol\":21631:21657  MasterChef.totalAllocPoint */\n      0xffffffffffffffffffffffffffffffffffffffff\n      and\n      0x17caf6f1\n        /* \"contracts/Utils.sol\":21631:21659  MasterChef.totalAllocPoint() */\n      mload(0x40)\n      dup2\n      0xffffffff\n      and\n      0xe0\n      shl\n      dup2\n      mstore\n      0x04\n      add\n      0x20\n      mload(0x40)\n      dup1\n      dup4\n      sub\n      dup2\n      dup7\n      gas\n      staticcall\n      iszero\n      dup1\n      iszero\n      tag_298\n      jumpi\n      returndatasize\n      0x00\n      dup1\n      returndatacopy\n      revert(0x00, returndatasize)\n    tag_298:\n      pop\n      pop\n      pop\n      pop\n      mload(0x40)\n      returndatasize\n      not(0x1f)\n      0x1f\n      dup3\n      add\n      and\n      dup3\n      add\n      dup1\n      0x40\n      mstore\n      pop\n      dup2\n      add\n      swap1\n      tag_299\n      swap2\n      swap1\n      tag_98\n      jump\t// in\n    tag_299:\n        /* \"contracts/Utils.sol\":21596:21625  (pool.allocPoint).mul(amount) */\n      tag_300\n        /* \"contracts/Utils.sol\":21618:21624  amount */\n      sload(0x03)\n        /* \"contracts/Utils.sol\":21597:21601  pool */\n      dup6\n        /* \"contracts/Utils.sol\":21597:21612  pool.allocPoint */\n      0x20\n      add\n      mload\n        /* \"contracts/Utils.sol\":21596:21617  (pool.allocPoint).mul */\n      tag_169\n      swap1\n        /* \"contracts/Utils.sol\":21596:21625  (pool.allocPoint).mul(amount) */\n      swap2\n      swap1\n      0xffffffff\n      and\n      jump\t// in\n    tag_300:\n        /* \"contracts/Utils.sol\":21595:21630  ((pool.allocPoint).mul(amount)).div */\n      tag_110\n      swap1\n        /* \"contracts/Utils.sol\":21595:21660  ((pool.allocPoint).mul(amount)).div(MasterChef.totalAllocPoint()) */\n      swap2\n      swap1\n      0xffffffff\n      and\n      jump\t// in\n    tag_296:\n        /* \"contracts/Utils.sol\":21574:21660  uint256 poolWeight = ((pool.allocPoint).mul(amount)).div(MasterChef.totalAllocPoint()) */\n      swap1\n      pop\n        /* \"contracts/Utils.sol\":21671:21695  uint256 rewardTokenPrice */\n      0x00\n        /* \"contracts/Utils.sol\":21698:21726  Tokenprice(MasterChef.DRG()) */\n      tag_301\n        /* \"contracts/Utils.sol\":21709:21719  MasterChef */\n      dup6\n        /* \"contracts/Utils.sol\":21709:21723  MasterChef.DRG */\n      0xffffffffffffffffffffffffffffffffffffffff\n      and\n      0x141aa0ba\n        /* \"contracts/Utils.sol\":21709:21725  MasterChef.DRG() */\n      mload(0x40)\n      dup2\n      0xffffffff\n      and\n      0xe0\n      shl\n      dup2\n      mstore\n      0x04\n      add\n      0x20\n      mload(0x40)\n      dup1\n      dup4\n      sub\n      dup2\n      dup7\n      gas\n      staticcall\n      iszero\n      dup1\n      iszero\n      tag_303\n      jumpi\n      returndatasize\n      0x00\n      dup1\n      returndatacopy\n      revert(0x00, returndatasize)\n    tag_303:\n      pop\n      pop\n      pop\n      pop\n      mload(0x40)\n      returndatasize\n      not(0x1f)\n      0x1f\n      dup3\n      add\n      and\n      dup3\n      add\n      dup1\n      0x40\n      mstore\n      pop\n      dup2\n      add\n      swap1\n      tag_304\n      swap2\n      swap1\n      tag_305\n      jump\t// in\n    tag_304:\n        /* \"contracts/Utils.sol\":21698:21708  Tokenprice */\n      tag_37\n        /* \"contracts/Utils.sol\":21698:21726  Tokenprice(MasterChef.DRG()) */\n      jump\t// in\n    tag_301:\n        /* \"contracts/Utils.sol\":21671:21726  uint256 rewardTokenPrice = Tokenprice(MasterChef.DRG()) */\n      swap1\n      pop\n        /* \"contracts/Utils.sol\":21737:21757  uint256 DRG_PER_YEAR */\n      0x00\n        /* \"contracts/Utils.sol\":21760:21805  BLOCKS_PER_YEAR.mul(MasterChef.DRGPerBlock()) */\n      tag_306\n        /* \"contracts/Utils.sol\":21780:21790  MasterChef */\n      dup7\n        /* \"contracts/Utils.sol\":21780:21802  MasterChef.DRGPerBlock */\n      0xffffffffffffffffffffffffffffffffffffffff\n      and\n      0xa1eef821\n        /* \"contracts/Utils.sol\":21780:21804  MasterChef.DRGPerBlock() */\n      mload(0x40)\n      dup2\n      0xffffffff\n      and\n      0xe0\n      shl\n      dup2\n      mstore\n      0x04\n      add\n      0x20\n      mload(0x40)\n      dup1\n      dup4\n      sub\n      dup2\n      dup7\n      gas\n      staticcall\n      iszero\n      dup1\n      iszero\n      tag_308\n      jumpi\n      returndatasize\n      0x00\n      dup1\n      returndatacopy\n      revert(0x00, returndatasize)\n    tag_308:\n      pop\n      pop\n      pop\n      pop\n      mload(0x40)\n      returndatasize\n      not(0x1f)\n      0x1f\n      dup3\n      add\n      and\n      dup3\n      add\n      dup1\n      0x40\n      mstore\n      pop\n      dup2\n      add\n      swap1\n      tag_309\n      swap2\n      swap1\n      tag_98\n      jump\t// in\n    tag_309:\n        /* \"contracts/Utils.sol\":21760:21775  BLOCKS_PER_YEAR */\n      sload(0x05)\n        /* \"contracts/Utils.sol\":21760:21779  BLOCKS_PER_YEAR.mul */\n      tag_169\n      swap1\n        /* \"contracts/Utils.sol\":21760:21805  BLOCKS_PER_YEAR.mul(MasterChef.DRGPerBlock()) */\n      swap2\n      swap1\n      0xffffffff\n      and\n      jump\t// in\n    tag_306:\n        /* \"contracts/Utils.sol\":21737:21805  uint256 DRG_PER_YEAR = BLOCKS_PER_YEAR.mul(MasterChef.DRGPerBlock()) */\n      swap1\n      pop\n        /* \"contracts/Utils.sol\":21816:21849  uint256 yearlyDRGRewardAllocation */\n      0x00\n        /* \"contracts/Utils.sol\":21852:21894  (DRG_PER_YEAR.mul(poolWeight)).div(amount) */\n      tag_310\n        /* \"contracts/Utils.sol\":21887:21893  amount */\n      sload(0x03)\n        /* \"contracts/Utils.sol\":21853:21881  DRG_PER_YEAR.mul(poolWeight) */\n      tag_311\n        /* \"contracts/Utils.sol\":21870:21880  poolWeight */\n      dup7\n        /* \"contracts/Utils.sol\":21853:21865  DRG_PER_YEAR */\n      dup6\n        /* \"contracts/Utils.sol\":21853:21869  DRG_PER_YEAR.mul */\n      tag_169\n      swap1\n        /* \"contracts/Utils.sol\":21853:21881  DRG_PER_YEAR.mul(poolWeight) */\n      swap2\n      swap1\n      0xffffffff\n      and\n      jump\t// in\n    tag_311:\n        /* \"contracts/Utils.sol\":21852:21886  (DRG_PER_YEAR.mul(poolWeight)).div */\n      tag_110\n      swap1\n        /* \"contracts/Utils.sol\":21852:21894  (DRG_PER_YEAR.mul(poolWeight)).div(amount) */\n      swap2\n      swap1\n      0xffffffff\n      and\n      jump\t// in\n    tag_310:\n        /* \"contracts/Utils.sol\":21816:21894  uint256 yearlyDRGRewardAllocation = (DRG_PER_YEAR.mul(poolWeight)).div(amount) */\n      swap1\n      pop\n        /* \"contracts/Utils.sol\":21905:21929  uint256 poolLiquidityUsd */\n      0x00\n        /* \"contracts/Utils.sol\":21932:21982  calcPoolTVLInUSD(pid, lpAddress, isLp, MasterChef) */\n      tag_312\n        /* \"contracts/Utils.sol\":21949:21952  pid */\n      dup12\n        /* \"contracts/Utils.sol\":21954:21963  lpAddress */\n      dup12\n        /* \"contracts/Utils.sol\":21965:21969  isLp */\n      dup12\n        /* \"contracts/Utils.sol\":21971:21981  MasterChef */\n      dup12\n        /* \"contracts/Utils.sol\":21932:21948  calcPoolTVLInUSD */\n      tag_79\n        /* \"contracts/Utils.sol\":21932:21982  calcPoolTVLInUSD(pid, lpAddress, isLp, MasterChef) */\n      jump\t// in\n    tag_312:\n        /* \"contracts/Utils.sol\":21905:21982  uint256 poolLiquidityUsd = calcPoolTVLInUSD(pid, lpAddress, isLp, MasterChef) */\n      swap1\n      pop\n        /* \"contracts/Utils.sol\":22001:22085  (((yearlyDRGRewardAllocation.mul(rewardTokenPrice))).div(poolLiquidityUsd)).mul(100) */\n      tag_313\n        /* \"contracts/Utils.sol\":22081:22084  100 */\n      0x64\n        /* \"contracts/Utils.sol\":22002:22075  ((yearlyDRGRewardAllocation.mul(rewardTokenPrice))).div(poolLiquidityUsd) */\n      tag_314\n        /* \"contracts/Utils.sol\":22058:22074  poolLiquidityUsd */\n      dup4\n        /* \"contracts/Utils.sol\":22004:22051  yearlyDRGRewardAllocation.mul(rewardTokenPrice) */\n      tag_315\n        /* \"contracts/Utils.sol\":22034:22050  rewardTokenPrice */\n      dup9\n        /* \"contracts/Utils.sol\":22004:22029  yearlyDRGRewardAllocation */\n      dup8\n        /* \"contracts/Utils.sol\":22004:22033  yearlyDRGRewardAllocation.mul */\n      tag_169\n      swap1\n        /* \"contracts/Utils.sol\":22004:22051  yearlyDRGRewardAllocation.mul(rewardTokenPrice) */\n      swap2\n      swap1\n      0xffffffff\n      and\n      jump\t// in\n    tag_315:\n        /* \"contracts/Utils.sol\":22002:22057  ((yearlyDRGRewardAllocation.mul(rewardTokenPrice))).div */\n      tag_110\n      swap1\n        /* \"contracts/Utils.sol\":22002:22075  ((yearlyDRGRewardAllocation.mul(rewardTokenPrice))).div(poolLiquidityUsd) */\n      swap2\n      swap1\n      0xffffffff\n      and\n      jump\t// in\n    tag_314:\n        /* \"contracts/Utils.sol\":22001:22080  (((yearlyDRGRewardAllocation.mul(rewardTokenPrice))).div(poolLiquidityUsd)).mul */\n      tag_169\n      swap1\n        /* \"contracts/Utils.sol\":22001:22085  (((yearlyDRGRewardAllocation.mul(rewardTokenPrice))).div(poolLiquidityUsd)).mul(100) */\n      swap2\n      swap1\n      0xffffffff\n      and\n      jump\t// in\n    tag_313:\n        /* \"contracts/Utils.sol\":21995:22085  return(((yearlyDRGRewardAllocation.mul(rewardTokenPrice))).div(poolLiquidityUsd)).mul(100) */\n      swap7\n      pop\n      pop\n      pop\n      pop\n      pop\n      pop\n      pop\n        /* \"contracts/Utils.sol\":21391:22093  function CalcApy(uint256 pid, LP lpAddress,uint256 isLp, MetaMasterChef MasterChef) external view returns(uint256){... */\n      swap5\n      swap4\n      pop\n      pop\n      pop\n      pop\n      jump\t// out\n        /* \"contracts/Utils.sol\":22101:22628  function CalcApyNFTFarm(uint256 pid, NFTMasterChef MasterChef) external view returns(uint256){... */\n    tag_88:\n        /* \"contracts/Utils.sol\":22186:22193  uint256 */\n      0x00\n        /* \"contracts/Utils.sol\":22205:22228  PoolNFTInfo memory pool */\n      dup1\n        /* \"contracts/Utils.sol\":22231:22241  MasterChef */\n      dup3\n        /* \"contracts/Utils.sol\":22231:22250  MasterChef.poolInfo */\n      0xffffffffffffffffffffffffffffffffffffffff\n      and\n      0x1526fe27\n        /* \"contracts/Utils.sol\":22251:22254  pid */\n      dup6\n        /* \"contracts/Utils.sol\":22231:22255  MasterChef.poolInfo(pid) */\n      mload(0x40)\n      dup3\n      0xffffffff\n      and\n      0xe0\n      shl\n      dup2\n      mstore\n      0x04\n      add\n      tag_317\n      swap2\n      swap1\n      tag_28\n      jump\t// in\n    tag_317:\n      0x80\n      mload(0x40)\n      dup1\n      dup4\n      sub\n      dup2\n      dup7\n      gas\n      staticcall\n      iszero\n      dup1\n      iszero\n      tag_319\n      jumpi\n      returndatasize\n      0x00\n      dup1\n      returndatacopy\n      revert(0x00, returndatasize)\n    tag_319:\n      pop\n      pop\n      pop\n      pop\n      mload(0x40)\n      returndatasize\n      not(0x1f)\n      0x1f\n      dup3\n      add\n      and\n      dup3\n      add\n      dup1\n      0x40\n      mstore\n      pop\n      dup2\n      add\n      swap1\n      tag_320\n      swap2\n      swap1\n      tag_321\n      jump\t// in\n    tag_320:\n        /* \"contracts/Utils.sol\":22205:22255  PoolNFTInfo memory pool = MasterChef.poolInfo(pid) */\n      swap1\n      pop\n        /* \"contracts/Utils.sol\":22266:22284  uint256 allocPoint */\n      0x00\n        /* \"contracts/Utils.sol\":22287:22291  pool */\n      dup2\n        /* \"contracts/Utils.sol\":22287:22302  pool.allocPoint */\n      0x20\n      add\n      mload\n        /* \"contracts/Utils.sol\":22266:22302  uint256 allocPoint = pool.allocPoint */\n      swap1\n      pop\n        /* \"contracts/Utils.sol\":22610:22620  allocPoint */\n      dup1\n        /* \"contracts/Utils.sol\":22603:22620  return allocPoint */\n      swap3\n      pop\n      pop\n      pop\n        /* \"contracts/Utils.sol\":22101:22628  function CalcApyNFTFarm(uint256 pid, NFTMasterChef MasterChef) external view returns(uint256){... */\n      swap3\n      swap2\n      pop\n      pop\n      jump\t// out\n        /* \"contracts/Utils.sol\":14758:14959  function transferOwnership(address newOwner) public virtual onlyOwner {... */\n    tag_92:\n        /* \"contracts/Utils.sol\":14080:14092  _msgSender() */\n      tag_323\n        /* \"contracts/Utils.sol\":14080:14090  _msgSender */\n      tag_260\n        /* \"contracts/Utils.sol\":14080:14092  _msgSender() */\n      jump\t// in\n    tag_323:\n        /* \"contracts/Utils.sol\":14069:14092  owner() == _msgSender() */\n      0xffffffffffffffffffffffffffffffffffffffff\n      and\n        /* \"contracts/Utils.sol\":14069:14076  owner() */\n      tag_324\n        /* \"contracts/Utils.sol\":14069:14074  owner */\n      tag_67\n        /* \"contracts/Utils.sol\":14069:14076  owner() */\n      jump\t// in\n    tag_324:\n        /* \"contracts/Utils.sol\":14069:14092  owner() == _msgSender() */\n      0xffffffffffffffffffffffffffffffffffffffff\n      and\n      eq\n        /* \"contracts/Utils.sol\":14061:14129  require(owner() == _msgSender(), \"Ownable: caller is not the owner\") */\n      tag_325\n      jumpi\n      mload(0x40)\n      0x08c379a000000000000000000000000000000000000000000000000000000000\n      dup2\n      mstore\n      0x04\n      add\n      tag_326\n      swap1\n      tag_264\n      jump\t// in\n    tag_326:\n      mload(0x40)\n      dup1\n      swap2\n      sub\n      swap1\n      revert\n    tag_325:\n        /* \"contracts/Utils.sol\":14867:14868  0 */\n      0x00\n        /* \"contracts/Utils.sol\":14847:14869  newOwner != address(0) */\n      0xffffffffffffffffffffffffffffffffffffffff\n      and\n        /* \"contracts/Utils.sol\":14847:14855  newOwner */\n      dup2\n        /* \"contracts/Utils.sol\":14847:14869  newOwner != address(0) */\n      0xffffffffffffffffffffffffffffffffffffffff\n      and\n      sub\n        /* \"contracts/Utils.sol\":14839:14912  require(newOwner != address(0), \"Ownable: new owner is the zero address\") */\n      tag_328\n      jumpi\n      mload(0x40)\n      0x08c379a000000000000000000000000000000000000000000000000000000000\n      dup2\n      mstore\n      0x04\n      add\n      tag_329\n      swap1\n      tag_330\n      jump\t// in\n    tag_329:\n      mload(0x40)\n      dup1\n      swap2\n      sub\n      swap1\n      revert\n    tag_328:\n        /* \"contracts/Utils.sol\":14923:14951  _transferOwnership(newOwner) */\n      tag_331\n        /* \"contracts/Utils.sol\":14942:14950  newOwner */\n      dup2\n        /* \"contracts/Utils.sol\":14923:14941  _transferOwnership */\n      tag_267\n        /* \"contracts/Utils.sol\":14923:14951  _transferOwnership(newOwner) */\n      jump\t// in\n    tag_331:\n        /* \"contracts/Utils.sol\":14758:14959  function transferOwnership(address newOwner) public virtual onlyOwner {... */\n      pop\n      jump\t// out\n        /* \"contracts/Utils.sol\":10904:11036  function div(uint256 a, uint256 b) internal pure returns (uint256) {... */\n    tag_110:\n        /* \"contracts/Utils.sol\":10962:10969  uint256 */\n      0x00\n        /* \"contracts/Utils.sol\":10989:11028  div(a, b, \"SafeMath: division by zero\") */\n      tag_333\n        /* \"contracts/Utils.sol\":10993:10994  a */\n      dup4\n        /* \"contracts/Utils.sol\":10996:10997  b */\n      dup4\n        /* \"contracts/Utils.sol\":10989:11028  div(a, b, \"SafeMath: division by zero\") */\n      mload(0x40)\n      dup1\n      0x40\n      add\n      0x40\n      mstore\n      dup1\n      0x1a\n      dup2\n      mstore\n      0x20\n      add\n      0x536166654d6174683a206469766973696f6e206279207a65726f000000000000\n      dup2\n      mstore\n      pop\n        /* \"contracts/Utils.sol\":10989:10992  div */\n      tag_334\n        /* \"contracts/Utils.sol\":10989:11028  div(a, b, \"SafeMath: division by zero\") */\n      jump\t// in\n    tag_333:\n        /* \"contracts/Utils.sol\":10982:11028  return div(a, b, \"SafeMath: division by zero\") */\n      swap1\n      pop\n        /* \"contracts/Utils.sol\":10904:11036  function div(uint256 a, uint256 b) internal pure returns (uint256) {... */\n      swap3\n      swap2\n      pop\n      pop\n      jump\t// out\n        /* \"contracts/Utils.sol\":9965:10436  function mul(uint256 a, uint256 b) internal pure returns (uint256) {... */\n    tag_169:\n        /* \"contracts/Utils.sol\":10023:10030  uint256 */\n      0x00\n        /* \"contracts/Utils.sol\":10273:10274  0 */\n      dup1\n        /* \"contracts/Utils.sol\":10268:10269  a */\n      dup4\n        /* \"contracts/Utils.sol\":10268:10274  a == 0 */\n      sub\n        /* \"contracts/Utils.sol\":10264:10311  if (a == 0) {... */\n      tag_336\n      jumpi\n        /* \"contracts/Utils.sol\":10298:10299  0 */\n      0x00\n        /* \"contracts/Utils.sol\":10291:10299  return 0 */\n      swap1\n      pop\n      jump(tag_335)\n        /* \"contracts/Utils.sol\":10264:10311  if (a == 0) {... */\n    tag_336:\n        /* \"contracts/Utils.sol\":10323:10332  uint256 c */\n      0x00\n        /* \"contracts/Utils.sol\":10339:10340  b */\n      dup3\n        /* \"contracts/Utils.sol\":10335:10336  a */\n      dup5\n        /* \"contracts/Utils.sol\":10335:10340  a * b */\n      tag_337\n      swap2\n      swap1\n      tag_109\n      jump\t// in\n    tag_337:\n        /* \"contracts/Utils.sol\":10323:10340  uint256 c = a * b */\n      swap1\n      pop\n        /* \"contracts/Utils.sol\":10368:10369  b */\n      dup3\n        /* \"contracts/Utils.sol\":10363:10364  a */\n      dup5\n        /* \"contracts/Utils.sol\":10359:10360  c */\n      dup3\n        /* \"contracts/Utils.sol\":10359:10364  c / a */\n      tag_338\n      swap2\n      swap1\n      tag_339\n      jump\t// in\n    tag_338:\n        /* \"contracts/Utils.sol\":10359:10369  c / a == b */\n      eq\n        /* \"contracts/Utils.sol\":10351:10407  require(c / a == b, \"SafeMath: multiplication overflow\") */\n      tag_340\n      jumpi\n      mload(0x40)\n      0x08c379a000000000000000000000000000000000000000000000000000000000\n      dup2\n      mstore\n      0x04\n      add\n      tag_341\n      swap1\n      tag_342\n      jump\t// in\n    tag_341:\n      mload(0x40)\n      dup1\n      swap2\n      sub\n      swap1\n      revert\n    tag_340:\n        /* \"contracts/Utils.sol\":10427:10428  c */\n      dup1\n        /* \"contracts/Utils.sol\":10420:10428  return c */\n      swap2\n      pop\n      pop\n        /* \"contracts/Utils.sol\":9965:10436  function mul(uint256 a, uint256 b) internal pure returns (uint256) {... */\n    tag_335:\n      swap3\n      swap2\n      pop\n      pop\n      jump\t// out\n        /* \"contracts/Utils.sol\":8593:8774  function add(uint256 a, uint256 b) internal pure returns (uint256) {... */\n    tag_217:\n        /* \"contracts/Utils.sol\":8651:8658  uint256 */\n      0x00\n        /* \"contracts/Utils.sol\":8671:8680  uint256 c */\n      dup1\n        /* \"contracts/Utils.sol\":8687:8688  b */\n      dup3\n        /* \"contracts/Utils.sol\":8683:8684  a */\n      dup5\n        /* \"contracts/Utils.sol\":8683:8688  a + b */\n      tag_344\n      swap2\n      swap1\n      tag_124\n      jump\t// in\n    tag_344:\n        /* \"contracts/Utils.sol\":8671:8688  uint256 c = a + b */\n      swap1\n      pop\n        /* \"contracts/Utils.sol\":8712:8713  a */\n      dup4\n        /* \"contracts/Utils.sol\":8707:8708  c */\n      dup2\n        /* \"contracts/Utils.sol\":8707:8713  c >= a */\n      lt\n      iszero\n        /* \"contracts/Utils.sol\":8699:8745  require(c >= a, \"SafeMath: addition overflow\") */\n      tag_345\n      jumpi\n      mload(0x40)\n      0x08c379a000000000000000000000000000000000000000000000000000000000\n      dup2\n      mstore\n      0x04\n      add\n      tag_346\n      swap1\n      tag_347\n      jump\t// in\n    tag_346:\n      mload(0x40)\n      dup1\n      swap2\n      sub\n      swap1\n      revert\n    tag_345:\n        /* \"contracts/Utils.sol\":8765:8766  c */\n      dup1\n        /* \"contracts/Utils.sol\":8758:8766  return c */\n      swap2\n      pop\n      pop\n        /* \"contracts/Utils.sol\":8593:8774  function add(uint256 a, uint256 b) internal pure returns (uint256) {... */\n      swap3\n      swap2\n      pop\n      pop\n      jump\t// out\n        /* \"contracts/Utils.sol\":13223:13321  function _msgSender() internal view virtual returns (address) {... */\n    tag_260:\n        /* \"contracts/Utils.sol\":13276:13283  address */\n      0x00\n        /* \"contracts/Utils.sol\":13303:13313  msg.sender */\n      caller\n        /* \"contracts/Utils.sol\":13296:13313  return msg.sender */\n      swap1\n      pop\n        /* \"contracts/Utils.sol\":13223:13321  function _msgSender() internal view virtual returns (address) {... */\n      swap1\n      jump\t// out\n        /* \"contracts/Utils.sol\":15119:15310  function _transferOwnership(address newOwner) internal virtual {... */\n    tag_267:\n        /* \"contracts/Utils.sol\":15193:15209  address oldOwner */\n      0x00\n        /* \"contracts/Utils.sol\":15212:15218  _owner */\n      dup1\n      0x00\n      swap1\n      sload\n      swap1\n      0x0100\n      exp\n      swap1\n      div\n      0xffffffffffffffffffffffffffffffffffffffff\n      and\n        /* \"contracts/Utils.sol\":15193:15218  address oldOwner = _owner */\n      swap1\n      pop\n        /* \"contracts/Utils.sol\":15238:15246  newOwner */\n      dup2\n        /* \"contracts/Utils.sol\":15229:15235  _owner */\n      0x00\n      dup1\n        /* \"contracts/Utils.sol\":15229:15246  _owner = newOwner */\n      0x0100\n      exp\n      dup2\n      sload\n      dup2\n      0xffffffffffffffffffffffffffffffffffffffff\n      mul\n      not\n      and\n      swap1\n      dup4\n      0xffffffffffffffffffffffffffffffffffffffff\n      and\n      mul\n      or\n      swap1\n      sstore\n      pop\n        /* \"contracts/Utils.sol\":15293:15301  newOwner */\n      dup2\n        /* \"contracts/Utils.sol\":15262:15302  OwnershipTransferred(oldOwner, newOwner) */\n      0xffffffffffffffffffffffffffffffffffffffff\n      and\n        /* \"contracts/Utils.sol\":15283:15291  oldOwner */\n      dup2\n        /* \"contracts/Utils.sol\":15262:15302  OwnershipTransferred(oldOwner, newOwner) */\n      0xffffffffffffffffffffffffffffffffffffffff\n      and\n      0x8be0079c531659141344cd1fd0a4f28419497f9722a3daafe3b4186f6b6457e0\n      mload(0x40)\n      mload(0x40)\n      dup1\n      swap2\n      sub\n      swap1\n      log3\n        /* \"contracts/Utils.sol\":15182:15310  {... */\n      pop\n        /* \"contracts/Utils.sol\":15119:15310  function _transferOwnership(address newOwner) internal virtual {... */\n      pop\n      jump\t// out\n        /* \"contracts/Utils.sol\":11566:11911  function div(uint256 a, uint256 b, string memory errorMessage) internal pure returns (uint256) {... */\n    tag_334:\n        /* \"contracts/Utils.sol\":11652:11659  uint256 */\n      0x00\n        /* \"contracts/Utils.sol\":11751:11752  0 */\n      dup1\n        /* \"contracts/Utils.sol\":11747:11748  b */\n      dup4\n        /* \"contracts/Utils.sol\":11747:11752  b > 0 */\n      gt\n        /* \"contracts/Utils.sol\":11754:11766  errorMessage */\n      dup3\n        /* \"contracts/Utils.sol\":11739:11767  require(b > 0, errorMessage) */\n      swap1\n      tag_351\n      jumpi\n      mload(0x40)\n      0x08c379a000000000000000000000000000000000000000000000000000000000\n      dup2\n      mstore\n      0x04\n      add\n      tag_352\n      swap2\n      swap1\n      tag_353\n      jump\t// in\n    tag_352:\n      mload(0x40)\n      dup1\n      swap2\n      sub\n      swap1\n      revert\n    tag_351:\n      pop\n        /* \"contracts/Utils.sol\":11778:11787  uint256 c */\n      0x00\n        /* \"contracts/Utils.sol\":11794:11795  b */\n      dup4\n        /* \"contracts/Utils.sol\":11790:11791  a */\n      dup6\n        /* \"contracts/Utils.sol\":11790:11795  a / b */\n      tag_354\n      swap2\n      swap1\n      tag_339\n      jump\t// in\n    tag_354:\n        /* \"contracts/Utils.sol\":11778:11795  uint256 c = a / b */\n      swap1\n      pop\n        /* \"contracts/Utils.sol\":11902:11903  c */\n      dup1\n        /* \"contracts/Utils.sol\":11895:11903  return c */\n      swap2\n      pop\n      pop\n        /* \"contracts/Utils.sol\":11566:11911  function div(uint256 a, uint256 b, string memory errorMessage) internal pure returns (uint256) {... */\n      swap4\n      swap3\n      pop\n      pop\n      pop\n      jump\t// out\n        /* \"#utility.yul\":7:82   */\n    tag_355:\n        /* \"#utility.yul\":40:46   */\n      0x00\n        /* \"#utility.yul\":73:75   */\n      0x40\n        /* \"#utility.yul\":67:76   */\n      mload\n        /* \"#utility.yul\":57:76   */\n      swap1\n      pop\n        /* \"#utility.yul\":7:82   */\n      swap1\n      jump\t// out\n        /* \"#utility.yul\":88:205   */\n    tag_356:\n        /* \"#utility.yul\":197:198   */\n      0x00\n        /* \"#utility.yul\":194:195   */\n      dup1\n        /* \"#utility.yul\":187:199   */\n      revert\n        /* \"#utility.yul\":211:328   */\n    tag_357:\n        /* \"#utility.yul\":320:321   */\n      0x00\n        /* \"#utility.yul\":317:318   */\n      dup1\n        /* \"#utility.yul\":310:322   */\n      revert\n        /* \"#utility.yul\":334:460   */\n    tag_358:\n        /* \"#utility.yul\":371:378   */\n      0x00\n        /* \"#utility.yul\":411:453   */\n      0xffffffffffffffffffffffffffffffffffffffff\n        /* \"#utility.yul\":404:409   */\n      dup3\n        /* \"#utility.yul\":400:454   */\n      and\n        /* \"#utility.yul\":389:454   */\n      swap1\n      pop\n        /* \"#utility.yul\":334:460   */\n      swap2\n      swap1\n      pop\n      jump\t// out\n        /* \"#utility.yul\":466:562   */\n    tag_359:\n        /* \"#utility.yul\":503:510   */\n      0x00\n        /* \"#utility.yul\":532:556   */\n      tag_434\n        /* \"#utility.yul\":550:555   */\n      dup3\n        /* \"#utility.yul\":532:556   */\n      tag_358\n      jump\t// in\n    tag_434:\n        /* \"#utility.yul\":521:556   */\n      swap1\n      pop\n        /* \"#utility.yul\":466:562   */\n      swap2\n      swap1\n      pop\n      jump\t// out\n        /* \"#utility.yul\":568:674   */\n    tag_360:\n        /* \"#utility.yul\":615:622   */\n      0x00\n        /* \"#utility.yul\":644:668   */\n      tag_436\n        /* \"#utility.yul\":662:667   */\n      dup3\n        /* \"#utility.yul\":644:668   */\n      tag_359\n      jump\t// in\n    tag_436:\n        /* \"#utility.yul\":633:668   */\n      swap1\n      pop\n        /* \"#utility.yul\":568:674   */\n      swap2\n      swap1\n      pop\n      jump\t// out\n        /* \"#utility.yul\":680:822   */\n    tag_361:\n        /* \"#utility.yul\":763:797   */\n      tag_438\n        /* \"#utility.yul\":791:796   */\n      dup2\n        /* \"#utility.yul\":763:797   */\n      tag_360\n      jump\t// in\n    tag_438:\n        /* \"#utility.yul\":756:761   */\n      dup2\n        /* \"#utility.yul\":753:798   */\n      eq\n        /* \"#utility.yul\":743:816   */\n      tag_439\n      jumpi\n        /* \"#utility.yul\":812:813   */\n      0x00\n        /* \"#utility.yul\":809:810   */\n      dup1\n        /* \"#utility.yul\":802:814   */\n      revert\n        /* \"#utility.yul\":743:816   */\n    tag_439:\n        /* \"#utility.yul\":680:822   */\n      pop\n      jump\t// out\n        /* \"#utility.yul\":828:987   */\n    tag_362:\n        /* \"#utility.yul\":884:889   */\n      0x00\n        /* \"#utility.yul\":922:928   */\n      dup2\n        /* \"#utility.yul\":909:929   */\n      calldataload\n        /* \"#utility.yul\":900:929   */\n      swap1\n      pop\n        /* \"#utility.yul\":938:981   */\n      tag_441\n        /* \"#utility.yul\":975:980   */\n      dup2\n        /* \"#utility.yul\":938:981   */\n      tag_361\n      jump\t// in\n    tag_441:\n        /* \"#utility.yul\":828:987   */\n      swap3\n      swap2\n      pop\n      pop\n      jump\t// out\n        /* \"#utility.yul\":993:1070   */\n    tag_363:\n        /* \"#utility.yul\":1030:1037   */\n      0x00\n        /* \"#utility.yul\":1059:1064   */\n      dup2\n        /* \"#utility.yul\":1048:1064   */\n      swap1\n      pop\n        /* \"#utility.yul\":993:1070   */\n      swap2\n      swap1\n      pop\n      jump\t// out\n        /* \"#utility.yul\":1076:1198   */\n    tag_364:\n        /* \"#utility.yul\":1149:1173   */\n      tag_444\n        /* \"#utility.yul\":1167:1172   */\n      dup2\n        /* \"#utility.yul\":1149:1173   */\n      tag_363\n      jump\t// in\n    tag_444:\n        /* \"#utility.yul\":1142:1147   */\n      dup2\n        /* \"#utility.yul\":1139:1174   */\n      eq\n        /* \"#utility.yul\":1129:1192   */\n      tag_445\n      jumpi\n        /* \"#utility.yul\":1188:1189   */\n      0x00\n        /* \"#utility.yul\":1185:1186   */\n      dup1\n        /* \"#utility.yul\":1178:1190   */\n      revert\n        /* \"#utility.yul\":1129:1192   */\n    tag_445:\n        /* \"#utility.yul\":1076:1198   */\n      pop\n      jump\t// out\n        /* \"#utility.yul\":1204:1343   */\n    tag_365:\n        /* \"#utility.yul\":1250:1255   */\n      0x00\n        /* \"#utility.yul\":1288:1294   */\n      dup2\n        /* \"#utility.yul\":1275:1295   */\n      calldataload\n        /* \"#utility.yul\":1266:1295   */\n      swap1\n      pop\n        /* \"#utility.yul\":1304:1337   */\n      tag_447\n        /* \"#utility.yul\":1331:1336   */\n      dup2\n        /* \"#utility.yul\":1304:1337   */\n      tag_364\n      jump\t// in\n    tag_447:\n        /* \"#utility.yul\":1204:1343   */\n      swap3\n      swap2\n      pop\n      pop\n      jump\t// out\n        /* \"#utility.yul\":1349:1467   */\n    tag_366:\n        /* \"#utility.yul\":1408:1415   */\n      0x00\n        /* \"#utility.yul\":1437:1461   */\n      tag_449\n        /* \"#utility.yul\":1455:1460   */\n      dup3\n        /* \"#utility.yul\":1437:1461   */\n      tag_359\n      jump\t// in\n    tag_449:\n        /* \"#utility.yul\":1426:1461   */\n      swap1\n      pop\n        /* \"#utility.yul\":1349:1467   */\n      swap2\n      swap1\n      pop\n      jump\t// out\n        /* \"#utility.yul\":1473:1639   */\n    tag_367:\n        /* \"#utility.yul\":1568:1614   */\n      tag_451\n        /* \"#utility.yul\":1608:1613   */\n      dup2\n        /* \"#utility.yul\":1568:1614   */\n      tag_366\n      jump\t// in\n    tag_451:\n        /* \"#utility.yul\":1561:1566   */\n      dup2\n        /* \"#utility.yul\":1558:1615   */\n      eq\n        /* \"#utility.yul\":1548:1633   */\n      tag_452\n      jumpi\n        /* \"#utility.yul\":1629:1630   */\n      0x00\n        /* \"#utility.yul\":1626:1627   */\n      dup1\n        /* \"#utility.yul\":1619:1631   */\n      revert\n        /* \"#utility.yul\":1548:1633   */\n    tag_452:\n        /* \"#utility.yul\":1473:1639   */\n      pop\n      jump\t// out\n        /* \"#utility.yul\":1645:1828   */\n    tag_368:\n        /* \"#utility.yul\":1713:1718   */\n      0x00\n        /* \"#utility.yul\":1751:1757   */\n      dup2\n        /* \"#utility.yul\":1738:1758   */\n      calldataload\n        /* \"#utility.yul\":1729:1758   */\n      swap1\n      pop\n        /* \"#utility.yul\":1767:1822   */\n      tag_454\n        /* \"#utility.yul\":1816:1821   */\n      dup2\n        /* \"#utility.yul\":1767:1822   */\n      tag_367\n      jump\t// in\n    tag_454:\n        /* \"#utility.yul\":1645:1828   */\n      swap3\n      swap2\n      pop\n      pop\n      jump\t// out\n        /* \"#utility.yul\":1834:2517   */\n    tag_25:\n        /* \"#utility.yul\":1943:1949   */\n      0x00\n        /* \"#utility.yul\":1951:1957   */\n      dup1\n        /* \"#utility.yul\":1959:1965   */\n      0x00\n        /* \"#utility.yul\":2008:2010   */\n      0x60\n        /* \"#utility.yul\":1996:2005   */\n      dup5\n        /* \"#utility.yul\":1987:1994   */\n      dup7\n        /* \"#utility.yul\":1983:2006   */\n      sub\n        /* \"#utility.yul\":1979:2011   */\n      slt\n        /* \"#utility.yul\":1976:2095   */\n      iszero\n      tag_456\n      jumpi\n        /* \"#utility.yul\":2014:2093   */\n      tag_457\n      tag_356\n      jump\t// in\n    tag_457:\n        /* \"#utility.yul\":1976:2095   */\n    tag_456:\n        /* \"#utility.yul\":2134:2135   */\n      0x00\n        /* \"#utility.yul\":2159:2222   */\n      tag_458\n        /* \"#utility.yul\":2214:2221   */\n      dup7\n        /* \"#utility.yul\":2205:2211   */\n      dup3\n        /* \"#utility.yul\":2194:2203   */\n      dup8\n        /* \"#utility.yul\":2190:2212   */\n      add\n        /* \"#utility.yul\":2159:2222   */\n      tag_362\n      jump\t// in\n    tag_458:\n        /* \"#utility.yul\":2149:2222   */\n      swap4\n      pop\n        /* \"#utility.yul\":2105:2232   */\n      pop\n        /* \"#utility.yul\":2271:2273   */\n      0x20\n        /* \"#utility.yul\":2297:2350   */\n      tag_459\n        /* \"#utility.yul\":2342:2349   */\n      dup7\n        /* \"#utility.yul\":2333:2339   */\n      dup3\n        /* \"#utility.yul\":2322:2331   */\n      dup8\n        /* \"#utility.yul\":2318:2340   */\n      add\n        /* \"#utility.yul\":2297:2350   */\n      tag_365\n      jump\t// in\n    tag_459:\n        /* \"#utility.yul\":2287:2350   */\n      swap3\n      pop\n        /* \"#utility.yul\":2242:2360   */\n      pop\n        /* \"#utility.yul\":2399:2401   */\n      0x40\n        /* \"#utility.yul\":2425:2500   */\n      tag_460\n        /* \"#utility.yul\":2492:2499   */\n      dup7\n        /* \"#utility.yul\":2483:2489   */\n      dup3\n        /* \"#utility.yul\":2472:2481   */\n      dup8\n        /* \"#utility.yul\":2468:2490   */\n      add\n        /* \"#utility.yul\":2425:2500   */\n      tag_368\n      jump\t// in\n    tag_460:\n        /* \"#utility.yul\":2415:2500   */\n      swap2\n      pop\n        /* \"#utility.yul\":2370:2510   */\n      pop\n        /* \"#utility.yul\":1834:2517   */\n      swap3\n      pop\n      swap3\n      pop\n      swap3\n      jump\t// out\n        /* \"#utility.yul\":2523:2641   */\n    tag_369:\n        /* \"#utility.yul\":2610:2634   */\n      tag_462\n        /* \"#utility.yul\":2628:2633   */\n      dup2\n        /* \"#utility.yul\":2610:2634   */\n      tag_363\n      jump\t// in\n    tag_462:\n        /* \"#utility.yul\":2605:2608   */\n      dup3\n        /* \"#utility.yul\":2598:2635   */\n      mstore\n        /* \"#utility.yul\":2523:2641   */\n      pop\n      pop\n      jump\t// out\n        /* \"#utility.yul\":2647:2869   */\n    tag_28:\n        /* \"#utility.yul\":2740:2744   */\n      0x00\n        /* \"#utility.yul\":2778:2780   */\n      0x20\n        /* \"#utility.yul\":2767:2776   */\n      dup3\n        /* \"#utility.yul\":2763:2781   */\n      add\n        /* \"#utility.yul\":2755:2781   */\n      swap1\n      pop\n        /* \"#utility.yul\":2791:2862   */\n      tag_464\n        /* \"#utility.yul\":2859:2860   */\n      0x00\n        /* \"#utility.yul\":2848:2857   */\n      dup4\n        /* \"#utility.yul\":2844:2861   */\n      add\n        /* \"#utility.yul\":2835:2841   */\n      dup5\n        /* \"#utility.yul\":2791:2862   */\n      tag_369\n      jump\t// in\n    tag_464:\n        /* \"#utility.yul\":2647:2869   */\n      swap3\n      swap2\n      pop\n      pop\n      jump\t// out\n        /* \"#utility.yul\":2875:2992   */\n    tag_370:\n        /* \"#utility.yul\":2984:2985   */\n      0x00\n        /* \"#utility.yul\":2981:2982   */\n      dup1\n        /* \"#utility.yul\":2974:2986   */\n      revert\n        /* \"#utility.yul\":2998:3100   */\n    tag_371:\n        /* \"#utility.yul\":3039:3045   */\n      0x00\n        /* \"#utility.yul\":3090:3092   */\n      0x1f\n        /* \"#utility.yul\":3086:3093   */\n      not\n        /* \"#utility.yul\":3081:3083   */\n      0x1f\n        /* \"#utility.yul\":3074:3079   */\n      dup4\n        /* \"#utility.yul\":3070:3084   */\n      add\n        /* \"#utility.yul\":3066:3094   */\n      and\n        /* \"#utility.yul\":3056:3094   */\n      swap1\n      pop\n        /* \"#utility.yul\":2998:3100   */\n      swap2\n      swap1\n      pop\n      jump\t// out\n        /* \"#utility.yul\":3106:3286   */\n    tag_135:\n        /* \"#utility.yul\":3154:3231   */\n      0x4e487b7100000000000000000000000000000000000000000000000000000000\n        /* \"#utility.yul\":3151:3152   */\n      0x00\n        /* \"#utility.yul\":3144:3232   */\n      mstore\n        /* \"#utility.yul\":3251:3255   */\n      0x41\n        /* \"#utility.yul\":3248:3249   */\n      0x04\n        /* \"#utility.yul\":3241:3256   */\n      mstore\n        /* \"#utility.yul\":3275:3279   */\n      0x24\n        /* \"#utility.yul\":3272:3273   */\n      0x00\n        /* \"#utility.yul\":3265:3280   */\n      revert\n        /* \"#utility.yul\":3292:3573   */\n    tag_372:\n        /* \"#utility.yul\":3375:3402   */\n      tag_469\n        /* \"#utility.yul\":3397:3401   */\n      dup3\n        /* \"#utility.yul\":3375:3402   */\n      tag_371\n      jump\t// in\n    tag_469:\n        /* \"#utility.yul\":3367:3373   */\n      dup2\n        /* \"#utility.yul\":3363:3403   */\n      add\n        /* \"#utility.yul\":3505:3511   */\n      dup2\n        /* \"#utility.yul\":3493:3503   */\n      dup2\n        /* \"#utility.yul\":3490:3512   */\n      lt\n        /* \"#utility.yul\":3469:3487   */\n      0xffffffffffffffff\n        /* \"#utility.yul\":3457:3467   */\n      dup3\n        /* \"#utility.yul\":3454:3488   */\n      gt\n        /* \"#utility.yul\":3451:3513   */\n      or\n        /* \"#utility.yul\":3448:3536   */\n      iszero\n      tag_470\n      jumpi\n        /* \"#utility.yul\":3516:3534   */\n      tag_471\n      tag_135\n      jump\t// in\n    tag_471:\n        /* \"#utility.yul\":3448:3536   */\n    tag_470:\n        /* \"#utility.yul\":3556:3566   */\n      dup1\n        /* \"#utility.yul\":3552:3554   */\n      0x40\n        /* \"#utility.yul\":3545:3567   */\n      mstore\n        /* \"#utility.yul\":3335:3573   */\n      pop\n        /* \"#utility.yul\":3292:3573   */\n      pop\n      pop\n      jump\t// out\n        /* \"#utility.yul\":3579:3708   */\n    tag_373:\n        /* \"#utility.yul\":3613:3619   */\n      0x00\n        /* \"#utility.yul\":3640:3660   */\n      tag_473\n      tag_355\n      jump\t// in\n    tag_473:\n        /* \"#utility.yul\":3630:3660   */\n      swap1\n      pop\n        /* \"#utility.yul\":3669:3702   */\n      tag_474\n        /* \"#utility.yul\":3697:3701   */\n      dup3\n        /* \"#utility.yul\":3689:3695   */\n      dup3\n        /* \"#utility.yul\":3669:3702   */\n      tag_372\n      jump\t// in\n    tag_474:\n        /* \"#utility.yul\":3579:3708   */\n      swap2\n      swap1\n      pop\n      jump\t// out\n        /* \"#utility.yul\":3714:4035   */\n    tag_374:\n        /* \"#utility.yul\":3801:3805   */\n      0x00\n        /* \"#utility.yul\":3891:3909   */\n      0xffffffffffffffff\n        /* \"#utility.yul\":3883:3889   */\n      dup3\n        /* \"#utility.yul\":3880:3910   */\n      gt\n        /* \"#utility.yul\":3877:3933   */\n      iszero\n      tag_476\n      jumpi\n        /* \"#utility.yul\":3913:3931   */\n      tag_477\n      tag_135\n      jump\t// in\n    tag_477:\n        /* \"#utility.yul\":3877:3933   */\n    tag_476:\n        /* \"#utility.yul\":3963:3967   */\n      0x20\n        /* \"#utility.yul\":3955:3961   */\n      dup3\n        /* \"#utility.yul\":3951:3968   */\n      mul\n        /* \"#utility.yul\":3943:3968   */\n      swap1\n      pop\n        /* \"#utility.yul\":4023:4027   */\n      0x20\n        /* \"#utility.yul\":4017:4021   */\n      dup2\n        /* \"#utility.yul\":4013:4028   */\n      add\n        /* \"#utility.yul\":4005:4028   */\n      swap1\n      pop\n        /* \"#utility.yul\":3714:4035   */\n      swap2\n      swap1\n      pop\n      jump\t// out\n        /* \"#utility.yul\":4041:4158   */\n    tag_375:\n        /* \"#utility.yul\":4150:4151   */\n      0x00\n        /* \"#utility.yul\":4147:4148   */\n      dup1\n        /* \"#utility.yul\":4140:4152   */\n      revert\n        /* \"#utility.yul\":4185:4925   */\n    tag_376:\n        /* \"#utility.yul\":4291:4296   */\n      0x00\n        /* \"#utility.yul\":4316:4407   */\n      tag_480\n        /* \"#utility.yul\":4332:4406   */\n      tag_481\n        /* \"#utility.yul\":4399:4405   */\n      dup5\n        /* \"#utility.yul\":4332:4406   */\n      tag_374\n      jump\t// in\n    tag_481:\n        /* \"#utility.yul\":4316:4407   */\n      tag_373\n      jump\t// in\n    tag_480:\n        /* \"#utility.yul\":4307:4407   */\n      swap1\n      pop\n        /* \"#utility.yul\":4427:4432   */\n      dup1\n        /* \"#utility.yul\":4456:4462   */\n      dup4\n        /* \"#utility.yul\":4449:4454   */\n      dup3\n        /* \"#utility.yul\":4442:4463   */\n      mstore\n        /* \"#utility.yul\":4490:4494   */\n      0x20\n        /* \"#utility.yul\":4483:4488   */\n      dup3\n        /* \"#utility.yul\":4479:4495   */\n      add\n        /* \"#utility.yul\":4472:4495   */\n      swap1\n      pop\n        /* \"#utility.yul\":4543:4547   */\n      0x20\n        /* \"#utility.yul\":4535:4541   */\n      dup5\n        /* \"#utility.yul\":4531:4548   */\n      mul\n        /* \"#utility.yul\":4523:4529   */\n      dup4\n        /* \"#utility.yul\":4519:4549   */\n      add\n        /* \"#utility.yul\":4572:4575   */\n      dup6\n        /* \"#utility.yul\":4564:4570   */\n      dup2\n        /* \"#utility.yul\":4561:4576   */\n      gt\n        /* \"#utility.yul\":4558:4680   */\n      iszero\n      tag_482\n      jumpi\n        /* \"#utility.yul\":4591:4670   */\n      tag_483\n      tag_375\n      jump\t// in\n    tag_483:\n        /* \"#utility.yul\":4558:4680   */\n    tag_482:\n        /* \"#utility.yul\":4706:4712   */\n      dup4\n        /* \"#utility.yul\":4689:4919   */\n    tag_484:\n        /* \"#utility.yul\":4723:4729   */\n      dup2\n        /* \"#utility.yul\":4718:4721   */\n      dup2\n        /* \"#utility.yul\":4715:4730   */\n      lt\n        /* \"#utility.yul\":4689:4919   */\n      iszero\n      tag_486\n      jumpi\n        /* \"#utility.yul\":4798:4801   */\n      dup1\n        /* \"#utility.yul\":4827:4874   */\n      tag_487\n        /* \"#utility.yul\":4870:4873   */\n      dup9\n        /* \"#utility.yul\":4858:4868   */\n      dup3\n        /* \"#utility.yul\":4827:4874   */\n      tag_362\n      jump\t// in\n    tag_487:\n        /* \"#utility.yul\":4822:4825   */\n      dup5\n        /* \"#utility.yul\":4815:4875   */\n      mstore\n        /* \"#utility.yul\":4904:4908   */\n      0x20\n        /* \"#utility.yul\":4899:4902   */\n      dup5\n        /* \"#utility.yul\":4895:4909   */\n      add\n        /* \"#utility.yul\":4888:4909   */\n      swap4\n      pop\n        /* \"#utility.yul\":4765:4919   */\n      pop\n        /* \"#utility.yul\":4749:4753   */\n      0x20\n        /* \"#utility.yul\":4744:4747   */\n      dup2\n        /* \"#utility.yul\":4740:4754   */\n      add\n        /* \"#utility.yul\":4733:4754   */\n      swap1\n      pop\n        /* \"#utility.yul\":4689:4919   */\n      jump(tag_484)\n    tag_486:\n        /* \"#utility.yul\":4693:4714   */\n      pop\n        /* \"#utility.yul\":4297:4925   */\n      pop\n      pop\n        /* \"#utility.yul\":4185:4925   */\n      swap4\n      swap3\n      pop\n      pop\n      pop\n      jump\t// out\n        /* \"#utility.yul\":4952:5342   */\n    tag_377:\n        /* \"#utility.yul\":5033:5038   */\n      0x00\n        /* \"#utility.yul\":5082:5085   */\n      dup3\n        /* \"#utility.yul\":5075:5079   */\n      0x1f\n        /* \"#utility.yul\":5067:5073   */\n      dup4\n        /* \"#utility.yul\":5063:5080   */\n      add\n        /* \"#utility.yul\":5059:5086   */\n      slt\n        /* \"#utility.yul\":5049:5171   */\n      tag_489\n      jumpi\n        /* \"#utility.yul\":5090:5169   */\n      tag_490\n      tag_370\n      jump\t// in\n    tag_490:\n        /* \"#utility.yul\":5049:5171   */\n    tag_489:\n        /* \"#utility.yul\":5207:5213   */\n      dup2\n        /* \"#utility.yul\":5194:5214   */\n      calldataload\n        /* \"#utility.yul\":5232:5336   */\n      tag_491\n        /* \"#utility.yul\":5332:5335   */\n      dup5\n        /* \"#utility.yul\":5324:5330   */\n      dup3\n        /* \"#utility.yul\":5317:5321   */\n      0x20\n        /* \"#utility.yul\":5309:5315   */\n      dup7\n        /* \"#utility.yul\":5305:5322   */\n      add\n        /* \"#utility.yul\":5232:5336   */\n      tag_376\n      jump\t// in\n    tag_491:\n        /* \"#utility.yul\":5223:5336   */\n      swap2\n      pop\n        /* \"#utility.yul\":5039:5342   */\n      pop\n        /* \"#utility.yul\":4952:5342   */\n      swap3\n      swap2\n      pop\n      pop\n      jump\t// out\n        /* \"#utility.yul\":5348:6096   */\n    tag_31:\n        /* \"#utility.yul\":5473:5479   */\n      0x00\n        /* \"#utility.yul\":5481:5487   */\n      dup1\n        /* \"#utility.yul\":5530:5532   */\n      0x40\n        /* \"#utility.yul\":5518:5527   */\n      dup4\n        /* \"#utility.yul\":5509:5516   */\n      dup6\n        /* \"#utility.yul\":5505:5528   */\n      sub\n        /* \"#utility.yul\":5501:5533   */\n      slt\n        /* \"#utility.yul\":5498:5617   */\n      iszero\n      tag_493\n      jumpi\n        /* \"#utility.yul\":5536:5615   */\n      tag_494\n      tag_356\n      jump\t// in\n    tag_494:\n        /* \"#utility.yul\":5498:5617   */\n    tag_493:\n        /* \"#utility.yul\":5656:5657   */\n      0x00\n        /* \"#utility.yul\":5681:5756   */\n      tag_495\n        /* \"#utility.yul\":5748:5755   */\n      dup6\n        /* \"#utility.yul\":5739:5745   */\n      dup3\n        /* \"#utility.yul\":5728:5737   */\n      dup7\n        /* \"#utility.yul\":5724:5746   */\n      add\n        /* \"#utility.yul\":5681:5756   */\n      tag_368\n      jump\t// in\n    tag_495:\n        /* \"#utility.yul\":5671:5756   */\n      swap3\n      pop\n        /* \"#utility.yul\":5627:5766   */\n      pop\n        /* \"#utility.yul\":5833:5835   */\n      0x20\n        /* \"#utility.yul\":5822:5831   */\n      dup4\n        /* \"#utility.yul\":5818:5836   */\n      add\n        /* \"#utility.yul\":5805:5837   */\n      calldataload\n        /* \"#utility.yul\":5864:5882   */\n      0xffffffffffffffff\n        /* \"#utility.yul\":5856:5862   */\n      dup2\n        /* \"#utility.yul\":5853:5883   */\n      gt\n        /* \"#utility.yul\":5850:5967   */\n      iszero\n      tag_496\n      jumpi\n        /* \"#utility.yul\":5886:5965   */\n      tag_497\n      tag_357\n      jump\t// in\n    tag_497:\n        /* \"#utility.yul\":5850:5967   */\n    tag_496:\n        /* \"#utility.yul\":5991:6079   */\n      tag_498\n        /* \"#utility.yul\":6071:6078   */\n      dup6\n        /* \"#utility.yul\":6062:6068   */\n      dup3\n        /* \"#utility.yul\":6051:6060   */\n      dup7\n        /* \"#utility.yul\":6047:6069   */\n      add\n        /* \"#utility.yul\":5991:6079   */\n      tag_377\n      jump\t// in\n    tag_498:\n        /* \"#utility.yul\":5981:6079   */\n      swap2\n      pop\n        /* \"#utility.yul\":5776:6089   */\n      pop\n        /* \"#utility.yul\":5348:6096   */\n      swap3\n      pop\n      swap3\n      swap1\n      pop\n      jump\t// out\n        /* \"#utility.yul\":6102:6224   */\n    tag_378:\n        /* \"#utility.yul\":6175:6199   */\n      tag_500\n        /* \"#utility.yul\":6193:6198   */\n      dup2\n        /* \"#utility.yul\":6175:6199   */\n      tag_359\n      jump\t// in\n    tag_500:\n        /* \"#utility.yul\":6168:6173   */\n      dup2\n        /* \"#utility.yul\":6165:6200   */\n      eq\n        /* \"#utility.yul\":6155:6218   */\n      tag_501\n      jumpi\n        /* \"#utility.yul\":6214:6215   */\n      0x00\n        /* \"#utility.yul\":6211:6212   */\n      dup1\n        /* \"#utility.yul\":6204:6216   */\n      revert\n        /* \"#utility.yul\":6155:6218   */\n    tag_501:\n        /* \"#utility.yul\":6102:6224   */\n      pop\n      jump\t// out\n        /* \"#utility.yul\":6230:6369   */\n    tag_379:\n        /* \"#utility.yul\":6276:6281   */\n      0x00\n        /* \"#utility.yul\":6314:6320   */\n      dup2\n        /* \"#utility.yul\":6301:6321   */\n      calldataload\n        /* \"#utility.yul\":6292:6321   */\n      swap1\n      pop\n        /* \"#utility.yul\":6330:6363   */\n      tag_503\n        /* \"#utility.yul\":6357:6362   */\n      dup2\n        /* \"#utility.yul\":6330:6363   */\n      tag_378\n      jump\t// in\n    tag_503:\n        /* \"#utility.yul\":6230:6369   */\n      swap3\n      swap2\n      pop\n      pop\n      jump\t// out\n        /* \"#utility.yul\":6375:6704   */\n    tag_36:\n        /* \"#utility.yul\":6434:6440   */\n      0x00\n        /* \"#utility.yul\":6483:6485   */\n      0x20\n        /* \"#utility.yul\":6471:6480   */\n      dup3\n        /* \"#utility.yul\":6462:6469   */\n      dup5\n        /* \"#utility.yul\":6458:6481   */\n      sub\n        /* \"#utility.yul\":6454:6486   */\n      slt\n        /* \"#utility.yul\":6451:6570   */\n      iszero\n      tag_505\n      jumpi\n        /* \"#utility.yul\":6489:6568   */\n      tag_506\n      tag_356\n      jump\t// in\n    tag_506:\n        /* \"#utility.yul\":6451:6570   */\n    tag_505:\n        /* \"#utility.yul\":6609:6610   */\n      0x00\n        /* \"#utility.yul\":6634:6687   */\n      tag_507\n        /* \"#utility.yul\":6679:6686   */\n      dup5\n        /* \"#utility.yul\":6670:6676   */\n      dup3\n        /* \"#utility.yul\":6659:6668   */\n      dup6\n        /* \"#utility.yul\":6655:6677   */\n      add\n        /* \"#utility.yul\":6634:6687   */\n      tag_379\n      jump\t// in\n    tag_507:\n        /* \"#utility.yul\":6624:6687   */\n      swap2\n      pop\n        /* \"#utility.yul\":6580:6697   */\n      pop\n        /* \"#utility.yul\":6375:6704   */\n      swap3\n      swap2\n      pop\n      pop\n      jump\t// out\n        /* \"#utility.yul\":6710:7059   */\n    tag_41:\n        /* \"#utility.yul\":6779:6785   */\n      0x00\n        /* \"#utility.yul\":6828:6830   */\n      0x20\n        /* \"#utility.yul\":6816:6825   */\n      dup3\n        /* \"#utility.yul\":6807:6814   */\n      dup5\n        /* \"#utility.yul\":6803:6826   */\n      sub\n        /* \"#utility.yul\":6799:6831   */\n      slt\n        /* \"#utility.yul\":6796:6915   */\n      iszero\n      tag_509\n      jumpi\n        /* \"#utility.yul\":6834:6913   */\n      tag_510\n      tag_356\n      jump\t// in\n    tag_510:\n        /* \"#utility.yul\":6796:6915   */\n    tag_509:\n        /* \"#utility.yul\":6954:6955   */\n      0x00\n        /* \"#utility.yul\":6979:7042   */\n      tag_511\n        /* \"#utility.yul\":7034:7041   */\n      dup5\n        /* \"#utility.yul\":7025:7031   */\n      dup3\n        /* \"#utility.yul\":7014:7023   */\n      dup6\n        /* \"#utility.yul\":7010:7032   */\n      add\n        /* \"#utility.yul\":6979:7042   */\n      tag_362\n      jump\t// in\n    tag_511:\n        /* \"#utility.yul\":6969:7042   */\n      swap2\n      pop\n        /* \"#utility.yul\":6925:7052   */\n      pop\n        /* \"#utility.yul\":6710:7059   */\n      swap3\n      swap2\n      pop\n      pop\n      jump\t// out\n        /* \"#utility.yul\":7065:7125   */\n    tag_380:\n        /* \"#utility.yul\":7093:7096   */\n      0x00\n        /* \"#utility.yul\":7114:7119   */\n      dup2\n        /* \"#utility.yul\":7107:7119   */\n      swap1\n      pop\n        /* \"#utility.yul\":7065:7125   */\n      swap2\n      swap1\n      pop\n      jump\t// out\n        /* \"#utility.yul\":7131:7273   */\n    tag_381:\n        /* \"#utility.yul\":7181:7190   */\n      0x00\n        /* \"#utility.yul\":7214:7267   */\n      tag_514\n        /* \"#utility.yul\":7232:7266   */\n      tag_515\n        /* \"#utility.yul\":7241:7265   */\n      tag_516\n        /* \"#utility.yul\":7259:7264   */\n      dup5\n        /* \"#utility.yul\":7241:7265   */\n      tag_358\n      jump\t// in\n    tag_516:\n        /* \"#utility.yul\":7232:7266   */\n      tag_380\n      jump\t// in\n    tag_515:\n        /* \"#utility.yul\":7214:7267   */\n      tag_358\n      jump\t// in\n    tag_514:\n        /* \"#utility.yul\":7201:7267   */\n      swap1\n      pop\n        /* \"#utility.yul\":7131:7273   */\n      swap2\n      swap1\n      pop\n      jump\t// out\n        /* \"#utility.yul\":7279:7405   */\n    tag_382:\n        /* \"#utility.yul\":7329:7338   */\n      0x00\n        /* \"#utility.yul\":7362:7399   */\n      tag_518\n        /* \"#utility.yul\":7393:7398   */\n      dup3\n        /* \"#utility.yul\":7362:7399   */\n      tag_381\n      jump\t// in\n    tag_518:\n        /* \"#utility.yul\":7349:7399   */\n      swap1\n      pop\n        /* \"#utility.yul\":7279:7405   */\n      swap2\n      swap1\n      pop\n      jump\t// out\n        /* \"#utility.yul\":7411:7551   */\n    tag_383:\n        /* \"#utility.yul\":7475:7484   */\n      0x00\n        /* \"#utility.yul\":7508:7545   */\n      tag_520\n        /* \"#utility.yul\":7539:7544   */\n      dup3\n        /* \"#utility.yul\":7508:7545   */\n      tag_382\n      jump\t// in\n    tag_520:\n        /* \"#utility.yul\":7495:7545   */\n      swap1\n      pop\n        /* \"#utility.yul\":7411:7551   */\n      swap2\n      swap1\n      pop\n      jump\t// out\n        /* \"#utility.yul\":7557:7716   */\n    tag_384:\n        /* \"#utility.yul\":7658:7709   */\n      tag_522\n        /* \"#utility.yul\":7703:7708   */\n      dup2\n        /* \"#utility.yul\":7658:7709   */\n      tag_383\n      jump\t// in\n    tag_522:\n        /* \"#utility.yul\":7653:7656   */\n      dup3\n        /* \"#utility.yul\":7646:7710   */\n      mstore\n        /* \"#utility.yul\":7557:7716   */\n      pop\n      pop\n      jump\t// out\n        /* \"#utility.yul\":7722:7972   */\n    tag_51:\n        /* \"#utility.yul\":7829:7833   */\n      0x00\n        /* \"#utility.yul\":7867:7869   */\n      0x20\n        /* \"#utility.yul\":7856:7865   */\n      dup3\n        /* \"#utility.yul\":7852:7870   */\n      add\n        /* \"#utility.yul\":7844:7870   */\n      swap1\n      pop\n        /* \"#utility.yul\":7880:7965   */\n      tag_524\n        /* \"#utility.yul\":7962:7963   */\n      0x00\n        /* \"#utility.yul\":7951:7960   */\n      dup4\n        /* \"#utility.yul\":7947:7964   */\n      add\n        /* \"#utility.yul\":7938:7944   */\n      dup5\n        /* \"#utility.yul\":7880:7965   */\n      tag_384\n      jump\t// in\n    tag_524:\n        /* \"#utility.yul\":7722:7972   */\n      swap3\n      swap2\n      pop\n      pop\n      jump\t// out\n        /* \"#utility.yul\":7978:8096   */\n    tag_385:\n        /* \"#utility.yul\":8065:8089   */\n      tag_526\n        /* \"#utility.yul\":8083:8088   */\n      dup2\n        /* \"#utility.yul\":8065:8089   */\n      tag_359\n      jump\t// in\n    tag_526:\n        /* \"#utility.yul\":8060:8063   */\n      dup3\n        /* \"#utility.yul\":8053:8090   */\n      mstore\n        /* \"#utility.yul\":7978:8096   */\n      pop\n      pop\n      jump\t// out\n        /* \"#utility.yul\":8102:8324   */\n    tag_59:\n        /* \"#utility.yul\":8195:8199   */\n      0x00\n        /* \"#utility.yul\":8233:8235   */\n      0x20\n        /* \"#utility.yul\":8222:8231   */\n      dup3\n        /* \"#utility.yul\":8218:8236   */\n      add\n        /* \"#utility.yul\":8210:8236   */\n      swap1\n      pop\n        /* \"#utility.yul\":8246:8317   */\n      tag_528\n        /* \"#utility.yul\":8314:8315   */\n      0x00\n        /* \"#utility.yul\":8303:8312   */\n      dup4\n        /* \"#utility.yul\":8299:8316   */\n      add\n        /* \"#utility.yul\":8290:8296   */\n      dup5\n        /* \"#utility.yul\":8246:8317   */\n      tag_385\n      jump\t// in\n    tag_528:\n        /* \"#utility.yul\":8102:8324   */\n      swap3\n      swap2\n      pop\n      pop\n      jump\t// out\n        /* \"#utility.yul\":8330:8440   */\n    tag_386:\n        /* \"#utility.yul\":8381:8388   */\n      0x00\n        /* \"#utility.yul\":8410:8434   */\n      tag_530\n        /* \"#utility.yul\":8428:8433   */\n      dup3\n        /* \"#utility.yul\":8410:8434   */\n      tag_359\n      jump\t// in\n    tag_530:\n        /* \"#utility.yul\":8399:8434   */\n      swap1\n      pop\n        /* \"#utility.yul\":8330:8440   */\n      swap2\n      swap1\n      pop\n      jump\t// out\n        /* \"#utility.yul\":8446:8596   */\n    tag_387:\n        /* \"#utility.yul\":8533:8571   */\n      tag_532\n        /* \"#utility.yul\":8565:8570   */\n      dup2\n        /* \"#utility.yul\":8533:8571   */\n      tag_386\n      jump\t// in\n    tag_532:\n        /* \"#utility.yul\":8526:8531   */\n      dup2\n        /* \"#utility.yul\":8523:8572   */\n      eq\n        /* \"#utility.yul\":8513:8590   */\n      tag_533\n      jumpi\n        /* \"#utility.yul\":8586:8587   */\n      0x00\n        /* \"#utility.yul\":8583:8584   */\n      dup1\n        /* \"#utility.yul\":8576:8588   */\n      revert\n        /* \"#utility.yul\":8513:8590   */\n    tag_533:\n        /* \"#utility.yul\":8446:8596   */\n      pop\n      jump\t// out\n        /* \"#utility.yul\":8602:8769   */\n    tag_388:\n        /* \"#utility.yul\":8662:8667   */\n      0x00\n        /* \"#utility.yul\":8700:8706   */\n      dup2\n        /* \"#utility.yul\":8687:8707   */\n      calldataload\n        /* \"#utility.yul\":8678:8707   */\n      swap1\n      pop\n        /* \"#utility.yul\":8716:8763   */\n      tag_535\n        /* \"#utility.yul\":8757:8762   */\n      dup2\n        /* \"#utility.yul\":8716:8763   */\n      tag_387\n      jump\t// in\n    tag_535:\n        /* \"#utility.yul\":8602:8769   */\n      swap3\n      swap2\n      pop\n      pop\n      jump\t// out\n        /* \"#utility.yul\":8775:9132   */\n    tag_74:\n        /* \"#utility.yul\":8848:8854   */\n      0x00\n        /* \"#utility.yul\":8897:8899   */\n      0x20\n        /* \"#utility.yul\":8885:8894   */\n      dup3\n        /* \"#utility.yul\":8876:8883   */\n      dup5\n        /* \"#utility.yul\":8872:8895   */\n      sub\n        /* \"#utility.yul\":8868:8900   */\n      slt\n        /* \"#utility.yul\":8865:8984   */\n      iszero\n      tag_537\n      jumpi\n        /* \"#utility.yul\":8903:8982   */\n      tag_538\n      tag_356\n      jump\t// in\n    tag_538:\n        /* \"#utility.yul\":8865:8984   */\n    tag_537:\n        /* \"#utility.yul\":9023:9024   */\n      0x00\n        /* \"#utility.yul\":9048:9115   */\n      tag_539\n        /* \"#utility.yul\":9107:9114   */\n      dup5\n        /* \"#utility.yul\":9098:9104   */\n      dup3\n        /* \"#utility.yul\":9087:9096   */\n      dup6\n        /* \"#utility.yul\":9083:9105   */\n      add\n        /* \"#utility.yul\":9048:9115   */\n      tag_388\n      jump\t// in\n    tag_539:\n        /* \"#utility.yul\":9038:9115   */\n      swap2\n      pop\n        /* \"#utility.yul\":8994:9125   */\n      pop\n        /* \"#utility.yul\":8775:9132   */\n      swap3\n      swap2\n      pop\n      pop\n      jump\t// out\n        /* \"#utility.yul\":9138:9967   */\n    tag_78:\n        /* \"#utility.yul\":9256:9262   */\n      0x00\n        /* \"#utility.yul\":9264:9270   */\n      dup1\n        /* \"#utility.yul\":9272:9278   */\n      0x00\n        /* \"#utility.yul\":9280:9286   */\n      dup1\n        /* \"#utility.yul\":9329:9332   */\n      0x80\n        /* \"#utility.yul\":9317:9326   */\n      dup6\n        /* \"#utility.yul\":9308:9315   */\n      dup8\n        /* \"#utility.yul\":9304:9327   */\n      sub\n        /* \"#utility.yul\":9300:9333   */\n      slt\n        /* \"#utility.yul\":9297:9417   */\n      iszero\n      tag_541\n      jumpi\n        /* \"#utility.yul\":9336:9415   */\n      tag_542\n      tag_356\n      jump\t// in\n    tag_542:\n        /* \"#utility.yul\":9297:9417   */\n    tag_541:\n        /* \"#utility.yul\":9456:9457   */\n      0x00\n        /* \"#utility.yul\":9481:9534   */\n      tag_543\n        /* \"#utility.yul\":9526:9533   */\n      dup8\n        /* \"#utility.yul\":9517:9523   */\n      dup3\n        /* \"#utility.yul\":9506:9515   */\n      dup9\n        /* \"#utility.yul\":9502:9524   */\n      add\n        /* \"#utility.yul\":9481:9534   */\n      tag_365\n      jump\t// in\n    tag_543:\n        /* \"#utility.yul\":9471:9534   */\n      swap5\n      pop\n        /* \"#utility.yul\":9427:9544   */\n      pop\n        /* \"#utility.yul\":9583:9585   */\n      0x20\n        /* \"#utility.yul\":9609:9672   */\n      tag_544\n        /* \"#utility.yul\":9664:9671   */\n      dup8\n        /* \"#utility.yul\":9655:9661   */\n      dup3\n        /* \"#utility.yul\":9644:9653   */\n      dup9\n        /* \"#utility.yul\":9640:9662   */\n      add\n        /* \"#utility.yul\":9609:9672   */\n      tag_362\n      jump\t// in\n    tag_544:\n        /* \"#utility.yul\":9599:9672   */\n      swap4\n      pop\n        /* \"#utility.yul\":9554:9682   */\n      pop\n        /* \"#utility.yul\":9721:9723   */\n      0x40\n        /* \"#utility.yul\":9747:9800   */\n      tag_545\n        /* \"#utility.yul\":9792:9799   */\n      dup8\n        /* \"#utility.yul\":9783:9789   */\n      dup3\n        /* \"#utility.yul\":9772:9781   */\n      dup9\n        /* \"#utility.yul\":9768:9790   */\n      add\n        /* \"#utility.yul\":9747:9800   */\n      tag_365\n      jump\t// in\n    tag_545:\n        /* \"#utility.yul\":9737:9800   */\n      swap3\n      pop\n        /* \"#utility.yul\":9692:9810   */\n      pop\n        /* \"#utility.yul\":9849:9851   */\n      0x60\n        /* \"#utility.yul\":9875:9950   */\n      tag_546\n        /* \"#utility.yul\":9942:9949   */\n      dup8\n        /* \"#utility.yul\":9933:9939   */\n      dup3\n        /* \"#utility.yul\":9922:9931   */\n      dup9\n        /* \"#utility.yul\":9918:9940   */\n      add\n        /* \"#utility.yul\":9875:9950   */\n      tag_368\n      jump\t// in\n    tag_546:\n        /* \"#utility.yul\":9865:9950   */\n      swap2\n      pop\n        /* \"#utility.yul\":9820:9960   */\n      pop\n        /* \"#utility.yul\":9138:9967   */\n      swap3\n      swap6\n      swap2\n      swap5\n      pop\n      swap3\n      pop\n      jump\t// out\n        /* \"#utility.yul\":9973:10090   */\n    tag_389:\n        /* \"#utility.yul\":10031:10038   */\n      0x00\n        /* \"#utility.yul\":10060:10084   */\n      tag_548\n        /* \"#utility.yul\":10078:10083   */\n      dup3\n        /* \"#utility.yul\":10060:10084   */\n      tag_359\n      jump\t// in\n    tag_548:\n        /* \"#utility.yul\":10049:10084   */\n      swap1\n      pop\n        /* \"#utility.yul\":9973:10090   */\n      swap2\n      swap1\n      pop\n      jump\t// out\n        /* \"#utility.yul\":10096:10260   */\n    tag_390:\n        /* \"#utility.yul\":10190:10235   */\n      tag_550\n        /* \"#utility.yul\":10229:10234   */\n      dup2\n        /* \"#utility.yul\":10190:10235   */\n      tag_389\n      jump\t// in\n    tag_550:\n        /* \"#utility.yul\":10183:10188   */\n      dup2\n        /* \"#utility.yul\":10180:10236   */\n      eq\n        /* \"#utility.yul\":10170:10254   */\n      tag_551\n      jumpi\n        /* \"#utility.yul\":10250:10251   */\n      0x00\n        /* \"#utility.yul\":10247:10248   */\n      dup1\n        /* \"#utility.yul\":10240:10252   */\n      revert\n        /* \"#utility.yul\":10170:10254   */\n    tag_551:\n        /* \"#utility.yul\":10096:10260   */\n      pop\n      jump\t// out\n        /* \"#utility.yul\":10266:10447   */\n    tag_391:\n        /* \"#utility.yul\":10333:10338   */\n      0x00\n        /* \"#utility.yul\":10371:10377   */\n      dup2\n        /* \"#utility.yul\":10358:10378   */\n      calldataload\n        /* \"#utility.yul\":10349:10378   */\n      swap1\n      pop\n        /* \"#utility.yul\":10387:10441   */\n      tag_553\n        /* \"#utility.yul\":10435:10440   */\n      dup2\n        /* \"#utility.yul\":10387:10441   */\n      tag_390\n      jump\t// in\n    tag_553:\n        /* \"#utility.yul\":10266:10447   */\n      swap3\n      swap2\n      pop\n      pop\n      jump\t// out\n        /* \"#utility.yul\":10453:10969   */\n    tag_87:\n        /* \"#utility.yul\":10542:10548   */\n      0x00\n        /* \"#utility.yul\":10550:10556   */\n      dup1\n        /* \"#utility.yul\":10599:10601   */\n      0x40\n        /* \"#utility.yul\":10587:10596   */\n      dup4\n        /* \"#utility.yul\":10578:10585   */\n      dup6\n        /* \"#utility.yul\":10574:10597   */\n      sub\n        /* \"#utility.yul\":10570:10602   */\n      slt\n        /* \"#utility.yul\":10567:10686   */\n      iszero\n      tag_555\n      jumpi\n        /* \"#utility.yul\":10605:10684   */\n      tag_556\n      tag_356\n      jump\t// in\n    tag_556:\n        /* \"#utility.yul\":10567:10686   */\n    tag_555:\n        /* \"#utility.yul\":10725:10726   */\n      0x00\n        /* \"#utility.yul\":10750:10803   */\n      tag_557\n        /* \"#utility.yul\":10795:10802   */\n      dup6\n        /* \"#utility.yul\":10786:10792   */\n      dup3\n        /* \"#utility.yul\":10775:10784   */\n      dup7\n        /* \"#utility.yul\":10771:10793   */\n      add\n        /* \"#utility.yul\":10750:10803   */\n      tag_365\n      jump\t// in\n    tag_557:\n        /* \"#utility.yul\":10740:10803   */\n      swap3\n      pop\n        /* \"#utility.yul\":10696:10813   */\n      pop\n        /* \"#utility.yul\":10852:10854   */\n      0x20\n        /* \"#utility.yul\":10878:10952   */\n      tag_558\n        /* \"#utility.yul\":10944:10951   */\n      dup6\n        /* \"#utility.yul\":10935:10941   */\n      dup3\n        /* \"#utility.yul\":10924:10933   */\n      dup7\n        /* \"#utility.yul\":10920:10942   */\n      add\n        /* \"#utility.yul\":10878:10952   */\n      tag_391\n      jump\t// in\n    tag_558:\n        /* \"#utility.yul\":10868:10952   */\n      swap2\n      pop\n        /* \"#utility.yul\":10823:10962   */\n      pop\n        /* \"#utility.yul\":10453:10969   */\n      swap3\n      pop\n      swap3\n      swap1\n      pop\n      jump\t// out\n        /* \"#utility.yul\":10975:11118   */\n    tag_392:\n        /* \"#utility.yul\":11032:11037   */\n      0x00\n        /* \"#utility.yul\":11063:11069   */\n      dup2\n        /* \"#utility.yul\":11057:11070   */\n      mload\n        /* \"#utility.yul\":11048:11070   */\n      swap1\n      pop\n        /* \"#utility.yul\":11079:11112   */\n      tag_560\n        /* \"#utility.yul\":11106:11111   */\n      dup2\n        /* \"#utility.yul\":11079:11112   */\n      tag_364\n      jump\t// in\n    tag_560:\n        /* \"#utility.yul\":10975:11118   */\n      swap3\n      swap2\n      pop\n      pop\n      jump\t// out\n        /* \"#utility.yul\":11124:11475   */\n    tag_98:\n        /* \"#utility.yul\":11194:11200   */\n      0x00\n        /* \"#utility.yul\":11243:11245   */\n      0x20\n        /* \"#utility.yul\":11231:11240   */\n      dup3\n        /* \"#utility.yul\":11222:11229   */\n      dup5\n        /* \"#utility.yul\":11218:11241   */\n      sub\n        /* \"#utility.yul\":11214:11246   */\n      slt\n        /* \"#utility.yul\":11211:11330   */\n      iszero\n      tag_562\n      jumpi\n        /* \"#utility.yul\":11249:11328   */\n      tag_563\n      tag_356\n      jump\t// in\n    tag_563:\n        /* \"#utility.yul\":11211:11330   */\n    tag_562:\n        /* \"#utility.yul\":11369:11370   */\n      0x00\n        /* \"#utility.yul\":11394:11458   */\n      tag_564\n        /* \"#utility.yul\":11450:11457   */\n      dup5\n        /* \"#utility.yul\":11441:11447   */\n      dup3\n        /* \"#utility.yul\":11430:11439   */\n      dup6\n        /* \"#utility.yul\":11426:11448   */\n      add\n        /* \"#utility.yul\":11394:11458   */\n      tag_392\n      jump\t// in\n    tag_564:\n        /* \"#utility.yul\":11384:11458   */\n      swap2\n      pop\n        /* \"#utility.yul\":11340:11468   */\n      pop\n        /* \"#utility.yul\":11124:11475   */\n      swap3\n      swap2\n      pop\n      pop\n      jump\t// out\n        /* \"#utility.yul\":11481:11661   */\n    tag_393:\n        /* \"#utility.yul\":11529:11606   */\n      0x4e487b7100000000000000000000000000000000000000000000000000000000\n        /* \"#utility.yul\":11526:11527   */\n      0x00\n        /* \"#utility.yul\":11519:11607   */\n      mstore\n        /* \"#utility.yul\":11626:11630   */\n      0x11\n        /* \"#utility.yul\":11623:11624   */\n      0x04\n        /* \"#utility.yul\":11616:11631   */\n      mstore\n        /* \"#utility.yul\":11650:11654   */\n      0x24\n        /* \"#utility.yul\":11647:11648   */\n      0x00\n        /* \"#utility.yul\":11640:11655   */\n      revert\n        /* \"#utility.yul\":11667:12015   */\n    tag_109:\n        /* \"#utility.yul\":11707:11714   */\n      0x00\n        /* \"#utility.yul\":11730:11750   */\n      tag_567\n        /* \"#utility.yul\":11748:11749   */\n      dup3\n        /* \"#utility.yul\":11730:11750   */\n      tag_363\n      jump\t// in\n    tag_567:\n        /* \"#utility.yul\":11725:11750   */\n      swap2\n      pop\n        /* \"#utility.yul\":11764:11784   */\n      tag_568\n        /* \"#utility.yul\":11782:11783   */\n      dup4\n        /* \"#utility.yul\":11764:11784   */\n      tag_363\n      jump\t// in\n    tag_568:\n        /* \"#utility.yul\":11759:11784   */\n      swap3\n      pop\n        /* \"#utility.yul\":11952:11953   */\n      dup2\n        /* \"#utility.yul\":11884:11950   */\n      0xffffffffffffffffffffffffffffffffffffffffffffffffffffffffffffffff\n        /* \"#utility.yul\":11880:11954   */\n      div\n        /* \"#utility.yul\":11877:11878   */\n      dup4\n        /* \"#utility.yul\":11874:11955   */\n      gt\n        /* \"#utility.yul\":11869:11870   */\n      dup3\n        /* \"#utility.yul\":11862:11871   */\n      iszero\n        /* \"#utility.yul\":11855:11872   */\n      iszero\n        /* \"#utility.yul\":11851:11956   */\n      and\n        /* \"#utility.yul\":11848:11979   */\n      iszero\n      tag_569\n      jumpi\n        /* \"#utility.yul\":11959:11977   */\n      tag_570\n      tag_393\n      jump\t// in\n    tag_570:\n        /* \"#utility.yul\":11848:11979   */\n    tag_569:\n        /* \"#utility.yul\":12007:12008   */\n      dup3\n        /* \"#utility.yul\":12004:12005   */\n      dup3\n        /* \"#utility.yul\":12000:12009   */\n      mul\n        /* \"#utility.yul\":11989:12009   */\n      swap1\n      pop\n        /* \"#utility.yul\":11667:12015   */\n      swap3\n      swap2\n      pop\n      pop\n      jump\t// out\n        /* \"#utility.yul\":12021:12201   */\n    tag_118:\n        /* \"#utility.yul\":12069:12146   */\n      0x4e487b7100000000000000000000000000000000000000000000000000000000\n        /* \"#utility.yul\":12066:12067   */\n      0x00\n        /* \"#utility.yul\":12059:12147   */\n      mstore\n        /* \"#utility.yul\":12166:12170   */\n      0x32\n        /* \"#utility.yul\":12163:12164   */\n      0x04\n        /* \"#utility.yul\":12156:12171   */\n      mstore\n        /* \"#utility.yul\":12190:12194   */\n      0x24\n        /* \"#utility.yul\":12187:12188   */\n      0x00\n        /* \"#utility.yul\":12180:12195   */\n      revert\n        /* \"#utility.yul\":12207:12512   */\n    tag_124:\n        /* \"#utility.yul\":12247:12250   */\n      0x00\n        /* \"#utility.yul\":12266:12286   */\n      tag_573\n        /* \"#utility.yul\":12284:12285   */\n      dup3\n        /* \"#utility.yul\":12266:12286   */\n      tag_363\n      jump\t// in\n    tag_573:\n        /* \"#utility.yul\":12261:12286   */\n      swap2\n      pop\n        /* \"#utility.yul\":12300:12320   */\n      tag_574\n        /* \"#utility.yul\":12318:12319   */\n      dup4\n        /* \"#utility.yul\":12300:12320   */\n      tag_363\n      jump\t// in\n    tag_574:\n        /* \"#utility.yul\":12295:12320   */\n      swap3\n      pop\n        /* \"#utility.yul\":12454:12455   */\n      dup3\n        /* \"#utility.yul\":12386:12452   */\n      0xffffffffffffffffffffffffffffffffffffffffffffffffffffffffffffffff\n        /* \"#utility.yul\":12382:12456   */\n      sub\n        /* \"#utility.yul\":12379:12380   */\n      dup3\n        /* \"#utility.yul\":12376:12457   */\n      gt\n        /* \"#utility.yul\":12373:12480   */\n      iszero\n      tag_575\n      jumpi\n        /* \"#utility.yul\":12460:12478   */\n      tag_576\n      tag_393\n      jump\t// in\n    tag_576:\n        /* \"#utility.yul\":12373:12480   */\n    tag_575:\n        /* \"#utility.yul\":12504:12505   */\n      dup3\n        /* \"#utility.yul\":12501:12502   */\n      dup3\n        /* \"#utility.yul\":12497:12506   */\n      add\n        /* \"#utility.yul\":12490:12506   */\n      swap1\n      pop\n        /* \"#utility.yul\":12207:12512   */\n      swap3\n      swap2\n      pop\n      pop\n      jump\t// out\n        /* \"#utility.yul\":12518:12751   */\n    tag_131:\n        /* \"#utility.yul\":12557:12560   */\n      0x00\n        /* \"#utility.yul\":12580:12604   */\n      tag_578\n        /* \"#utility.yul\":12598:12603   */\n      dup3\n        /* \"#utility.yul\":12580:12604   */\n      tag_363\n      jump\t// in\n    tag_578:\n        /* \"#utility.yul\":12571:12604   */\n      swap2\n      pop\n        /* \"#utility.yul\":12626:12692   */\n      0xffffffffffffffffffffffffffffffffffffffffffffffffffffffffffffffff\n        /* \"#utility.yul\":12619:12624   */\n      dup3\n        /* \"#utility.yul\":12616:12693   */\n      sub\n        /* \"#utility.yul\":12613:12716   */\n      tag_579\n      jumpi\n        /* \"#utility.yul\":12696:12714   */\n      tag_580\n      tag_393\n      jump\t// in\n    tag_580:\n        /* \"#utility.yul\":12613:12716   */\n    tag_579:\n        /* \"#utility.yul\":12743:12744   */\n      0x01\n        /* \"#utility.yul\":12736:12741   */\n      dup3\n        /* \"#utility.yul\":12732:12745   */\n      add\n        /* \"#utility.yul\":12725:12745   */\n      swap1\n      pop\n        /* \"#utility.yul\":12518:12751   */\n      swap2\n      swap1\n      pop\n      jump\t// out\n        /* \"#utility.yul\":12757:12871   */\n    tag_394:\n        /* \"#utility.yul\":12824:12830   */\n      0x00\n        /* \"#utility.yul\":12858:12863   */\n      dup2\n        /* \"#utility.yul\":12852:12864   */\n      mload\n        /* \"#utility.yul\":12842:12864   */\n      swap1\n      pop\n        /* \"#utility.yul\":12757:12871   */\n      swap2\n      swap1\n      pop\n      jump\t// out\n        /* \"#utility.yul\":12877:13061   */\n    tag_395:\n        /* \"#utility.yul\":12976:12987   */\n      0x00\n        /* \"#utility.yul\":13010:13016   */\n      dup3\n        /* \"#utility.yul\":13005:13008   */\n      dup3\n        /* \"#utility.yul\":12998:13017   */\n      mstore\n        /* \"#utility.yul\":13050:13054   */\n      0x20\n        /* \"#utility.yul\":13045:13048   */\n      dup3\n        /* \"#utility.yul\":13041:13055   */\n      add\n        /* \"#utility.yul\":13026:13055   */\n      swap1\n      pop\n        /* \"#utility.yul\":12877:13061   */\n      swap3\n      swap2\n      pop\n      pop\n      jump\t// out\n        /* \"#utility.yul\":13067:13199   */\n    tag_396:\n        /* \"#utility.yul\":13134:13138   */\n      0x00\n        /* \"#utility.yul\":13157:13160   */\n      dup2\n        /* \"#utility.yul\":13149:13160   */\n      swap1\n      pop\n        /* \"#utility.yul\":13187:13191   */\n      0x20\n        /* \"#utility.yul\":13182:13185   */\n      dup3\n        /* \"#utility.yul\":13178:13192   */\n      add\n        /* \"#utility.yul\":13170:13192   */\n      swap1\n      pop\n        /* \"#utility.yul\":13067:13199   */\n      swap2\n      swap1\n      pop\n      jump\t// out\n        /* \"#utility.yul\":13205:13313   */\n    tag_397:\n        /* \"#utility.yul\":13282:13306   */\n      tag_585\n        /* \"#utility.yul\":13300:13305   */\n      dup2\n        /* \"#utility.yul\":13282:13306   */\n      tag_359\n      jump\t// in\n    tag_585:\n        /* \"#utility.yul\":13277:13280   */\n      dup3\n        /* \"#utility.yul\":13270:13307   */\n      mstore\n        /* \"#utility.yul\":13205:13313   */\n      pop\n      pop\n      jump\t// out\n        /* \"#utility.yul\":13319:13498   */\n    tag_398:\n        /* \"#utility.yul\":13388:13398   */\n      0x00\n        /* \"#utility.yul\":13409:13455   */\n      tag_587\n        /* \"#utility.yul\":13451:13454   */\n      dup4\n        /* \"#utility.yul\":13443:13449   */\n      dup4\n        /* \"#utility.yul\":13409:13455   */\n      tag_397\n      jump\t// in\n    tag_587:\n        /* \"#utility.yul\":13487:13491   */\n      0x20\n        /* \"#utility.yul\":13482:13485   */\n      dup4\n        /* \"#utility.yul\":13478:13492   */\n      add\n        /* \"#utility.yul\":13464:13492   */\n      swap1\n      pop\n        /* \"#utility.yul\":13319:13498   */\n      swap3\n      swap2\n      pop\n      pop\n      jump\t// out\n        /* \"#utility.yul\":13504:13617   */\n    tag_399:\n        /* \"#utility.yul\":13574:13578   */\n      0x00\n        /* \"#utility.yul\":13606:13610   */\n      0x20\n        /* \"#utility.yul\":13601:13604   */\n      dup3\n        /* \"#utility.yul\":13597:13611   */\n      add\n        /* \"#utility.yul\":13589:13611   */\n      swap1\n      pop\n        /* \"#utility.yul\":13504:13617   */\n      swap2\n      swap1\n      pop\n      jump\t// out\n        /* \"#utility.yul\":13653:14385   */\n    tag_400:\n        /* \"#utility.yul\":13772:13775   */\n      0x00\n        /* \"#utility.yul\":13801:13855   */\n      tag_590\n        /* \"#utility.yul\":13849:13854   */\n      dup3\n        /* \"#utility.yul\":13801:13855   */\n      tag_394\n      jump\t// in\n    tag_590:\n        /* \"#utility.yul\":13871:13957   */\n      tag_591\n        /* \"#utility.yul\":13950:13956   */\n      dup2\n        /* \"#utility.yul\":13945:13948   */\n      dup6\n        /* \"#utility.yul\":13871:13957   */\n      tag_395\n      jump\t// in\n    tag_591:\n        /* \"#utility.yul\":13864:13957   */\n      swap4\n      pop\n        /* \"#utility.yul\":13981:14037   */\n      tag_592\n        /* \"#utility.yul\":14031:14036   */\n      dup4\n        /* \"#utility.yul\":13981:14037   */\n      tag_396\n      jump\t// in\n    tag_592:\n        /* \"#utility.yul\":14060:14067   */\n      dup1\n        /* \"#utility.yul\":14091:14092   */\n      0x00\n        /* \"#utility.yul\":14076:14360   */\n    tag_593:\n        /* \"#utility.yul\":14101:14107   */\n      dup4\n        /* \"#utility.yul\":14098:14099   */\n      dup2\n        /* \"#utility.yul\":14095:14108   */\n      lt\n        /* \"#utility.yul\":14076:14360   */\n      iszero\n      tag_595\n      jumpi\n        /* \"#utility.yul\":14177:14183   */\n      dup2\n        /* \"#utility.yul\":14171:14184   */\n      mload\n        /* \"#utility.yul\":14204:14267   */\n      tag_596\n        /* \"#utility.yul\":14263:14266   */\n      dup9\n        /* \"#utility.yul\":14248:14261   */\n      dup3\n        /* \"#utility.yul\":14204:14267   */\n      tag_398\n      jump\t// in\n    tag_596:\n        /* \"#utility.yul\":14197:14267   */\n      swap8\n      pop\n        /* \"#utility.yul\":14290:14350   */\n      tag_597\n        /* \"#utility.yul\":14343:14349   */\n      dup4\n        /* \"#utility.yul\":14290:14350   */\n      tag_399\n      jump\t// in\n    tag_597:\n        /* \"#utility.yul\":14280:14350   */\n      swap3\n      pop\n        /* \"#utility.yul\":14136:14360   */\n      pop\n        /* \"#utility.yul\":14123:14124   */\n      0x01\n        /* \"#utility.yul\":14120:14121   */\n      dup2\n        /* \"#utility.yul\":14116:14125   */\n      add\n        /* \"#utility.yul\":14111:14125   */\n      swap1\n      pop\n        /* \"#utility.yul\":14076:14360   */\n      jump(tag_593)\n    tag_595:\n        /* \"#utility.yul\":14080:14094   */\n      pop\n        /* \"#utility.yul\":14376:14379   */\n      dup6\n        /* \"#utility.yul\":14369:14379   */\n      swap4\n      pop\n        /* \"#utility.yul\":13777:14385   */\n      pop\n      pop\n      pop\n        /* \"#utility.yul\":13653:14385   */\n      swap3\n      swap2\n      pop\n      pop\n      jump\t// out\n        /* \"#utility.yul\":14391:14874   */\n    tag_144:\n        /* \"#utility.yul\":14562:14566   */\n      0x00\n        /* \"#utility.yul\":14600:14602   */\n      0x40\n        /* \"#utility.yul\":14589:14598   */\n      dup3\n        /* \"#utility.yul\":14585:14603   */\n      add\n        /* \"#utility.yul\":14577:14603   */\n      swap1\n      pop\n        /* \"#utility.yul\":14613:14684   */\n      tag_599\n        /* \"#utility.yul\":14681:14682   */\n      0x00\n        /* \"#utility.yul\":14670:14679   */\n      dup4\n        /* \"#utility.yul\":14666:14683   */\n      add\n        /* \"#utility.yul\":14657:14663   */\n      dup6\n        /* \"#utility.yul\":14613:14684   */\n      tag_369\n      jump\t// in\n    tag_599:\n        /* \"#utility.yul\":14731:14740   */\n      dup2\n        /* \"#utility.yul\":14725:14729   */\n      dup2\n        /* \"#utility.yul\":14721:14741   */\n      sub\n        /* \"#utility.yul\":14716:14718   */\n      0x20\n        /* \"#utility.yul\":14705:14714   */\n      dup4\n        /* \"#utility.yul\":14701:14719   */\n      add\n        /* \"#utility.yul\":14694:14742   */\n      mstore\n        /* \"#utility.yul\":14759:14867   */\n      tag_600\n        /* \"#utility.yul\":14862:14866   */\n      dup2\n        /* \"#utility.yul\":14853:14859   */\n      dup5\n        /* \"#utility.yul\":14759:14867   */\n      tag_400\n      jump\t// in\n    tag_600:\n        /* \"#utility.yul\":14751:14867   */\n      swap1\n      pop\n        /* \"#utility.yul\":14391:14874   */\n      swap4\n      swap3\n      pop\n      pop\n      pop\n      jump\t// out\n        /* \"#utility.yul\":14880:15191   */\n    tag_401:\n        /* \"#utility.yul\":14957:14961   */\n      0x00\n        /* \"#utility.yul\":15047:15065   */\n      0xffffffffffffffff\n        /* \"#utility.yul\":15039:15045   */\n      dup3\n        /* \"#utility.yul\":15036:15066   */\n      gt\n        /* \"#utility.yul\":15033:15089   */\n      iszero\n      tag_602\n      jumpi\n        /* \"#utility.yul\":15069:15087   */\n      tag_603\n      tag_135\n      jump\t// in\n    tag_603:\n        /* \"#utility.yul\":15033:15089   */\n    tag_602:\n        /* \"#utility.yul\":15119:15123   */\n      0x20\n        /* \"#utility.yul\":15111:15117   */\n      dup3\n        /* \"#utility.yul\":15107:15124   */\n      mul\n        /* \"#utility.yul\":15099:15124   */\n      swap1\n      pop\n        /* \"#utility.yul\":15179:15183   */\n      0x20\n        /* \"#utility.yul\":15173:15177   */\n      dup2\n        /* \"#utility.yul\":15169:15184   */\n      add\n        /* \"#utility.yul\":15161:15184   */\n      swap1\n      pop\n        /* \"#utility.yul\":14880:15191   */\n      swap2\n      swap1\n      pop\n      jump\t// out\n        /* \"#utility.yul\":15214:15946   */\n    tag_402:\n        /* \"#utility.yul\":15321:15326   */\n      0x00\n        /* \"#utility.yul\":15346:15427   */\n      tag_605\n        /* \"#utility.yul\":15362:15426   */\n      tag_606\n        /* \"#utility.yul\":15419:15425   */\n      dup5\n        /* \"#utility.yul\":15362:15426   */\n      tag_401\n      jump\t// in\n    tag_606:\n        /* \"#utility.yul\":15346:15427   */\n      tag_373\n      jump\t// in\n    tag_605:\n        /* \"#utility.yul\":15337:15427   */\n      swap1\n      pop\n        /* \"#utility.yul\":15447:15452   */\n      dup1\n        /* \"#utility.yul\":15476:15482   */\n      dup4\n        /* \"#utility.yul\":15469:15474   */\n      dup3\n        /* \"#utility.yul\":15462:15483   */\n      mstore\n        /* \"#utility.yul\":15510:15514   */\n      0x20\n        /* \"#utility.yul\":15503:15508   */\n      dup3\n        /* \"#utility.yul\":15499:15515   */\n      add\n        /* \"#utility.yul\":15492:15515   */\n      swap1\n      pop\n        /* \"#utility.yul\":15563:15567   */\n      0x20\n        /* \"#utility.yul\":15555:15561   */\n      dup5\n        /* \"#utility.yul\":15551:15568   */\n      mul\n        /* \"#utility.yul\":15543:15549   */\n      dup4\n        /* \"#utility.yul\":15539:15569   */\n      add\n        /* \"#utility.yul\":15592:15595   */\n      dup6\n        /* \"#utility.yul\":15584:15590   */\n      dup2\n        /* \"#utility.yul\":15581:15596   */\n      gt\n        /* \"#utility.yul\":15578:15700   */\n      iszero\n      tag_607\n      jumpi\n        /* \"#utility.yul\":15611:15690   */\n      tag_608\n      tag_375\n      jump\t// in\n    tag_608:\n        /* \"#utility.yul\":15578:15700   */\n    tag_607:\n        /* \"#utility.yul\":15726:15732   */\n      dup4\n        /* \"#utility.yul\":15709:15940   */\n    tag_609:\n        /* \"#utility.yul\":15743:15749   */\n      dup2\n        /* \"#utility.yul\":15738:15741   */\n      dup2\n        /* \"#utility.yul\":15735:15750   */\n      lt\n        /* \"#utility.yul\":15709:15940   */\n      iszero\n      tag_611\n      jumpi\n        /* \"#utility.yul\":15818:15821   */\n      dup1\n        /* \"#utility.yul\":15847:15895   */\n      tag_612\n        /* \"#utility.yul\":15891:15894   */\n      dup9\n        /* \"#utility.yul\":15879:15889   */\n      dup3\n        /* \"#utility.yul\":15847:15895   */\n      tag_392\n      jump\t// in\n    tag_612:\n        /* \"#utility.yul\":15842:15845   */\n      dup5\n        /* \"#utility.yul\":15835:15896   */\n      mstore\n        /* \"#utility.yul\":15925:15929   */\n      0x20\n        /* \"#utility.yul\":15920:15923   */\n      dup5\n        /* \"#utility.yul\":15916:15930   */\n      add\n        /* \"#utility.yul\":15909:15930   */\n      swap4\n      pop\n        /* \"#utility.yul\":15785:15940   */\n      pop\n        /* \"#utility.yul\":15769:15773   */\n      0x20\n        /* \"#utility.yul\":15764:15767   */\n      dup2\n        /* \"#utility.yul\":15760:15774   */\n      add\n        /* \"#utility.yul\":15753:15774   */\n      swap1\n      pop\n        /* \"#utility.yul\":15709:15940   */\n      jump(tag_609)\n    tag_611:\n        /* \"#utility.yul\":15713:15734   */\n      pop\n        /* \"#utility.yul\":15327:15946   */\n      pop\n      pop\n        /* \"#utility.yul\":15214:15946   */\n      swap4\n      swap3\n      pop\n      pop\n      pop\n      jump\t// out\n        /* \"#utility.yul\":15969:16354   */\n    tag_403:\n        /* \"#utility.yul\":16051:16056   */\n      0x00\n        /* \"#utility.yul\":16100:16103   */\n      dup3\n        /* \"#utility.yul\":16093:16097   */\n      0x1f\n        /* \"#utility.yul\":16085:16091   */\n      dup4\n        /* \"#utility.yul\":16081:16098   */\n      add\n        /* \"#utility.yul\":16077:16104   */\n      slt\n        /* \"#utility.yul\":16067:16189   */\n      tag_614\n      jumpi\n        /* \"#utility.yul\":16108:16187   */\n      tag_615\n      tag_370\n      jump\t// in\n    tag_615:\n        /* \"#utility.yul\":16067:16189   */\n    tag_614:\n        /* \"#utility.yul\":16218:16224   */\n      dup2\n        /* \"#utility.yul\":16212:16225   */\n      mload\n        /* \"#utility.yul\":16243:16348   */\n      tag_616\n        /* \"#utility.yul\":16344:16347   */\n      dup5\n        /* \"#utility.yul\":16336:16342   */\n      dup3\n        /* \"#utility.yul\":16329:16333   */\n      0x20\n        /* \"#utility.yul\":16321:16327   */\n      dup7\n        /* \"#utility.yul\":16317:16334   */\n      add\n        /* \"#utility.yul\":16243:16348   */\n      tag_402\n      jump\t// in\n    tag_616:\n        /* \"#utility.yul\":16234:16348   */\n      swap2\n      pop\n        /* \"#utility.yul\":16057:16354   */\n      pop\n        /* \"#utility.yul\":15969:16354   */\n      swap3\n      swap2\n      pop\n      pop\n      jump\t// out\n        /* \"#utility.yul\":16360:16914   */\n    tag_148:\n        /* \"#utility.yul\":16455:16461   */\n      0x00\n        /* \"#utility.yul\":16504:16506   */\n      0x20\n        /* \"#utility.yul\":16492:16501   */\n      dup3\n        /* \"#utility.yul\":16483:16490   */\n      dup5\n        /* \"#utility.yul\":16479:16502   */\n      sub\n        /* \"#utility.yul\":16475:16507   */\n      slt\n        /* \"#utility.yul\":16472:16591   */\n      iszero\n      tag_618\n      jumpi\n        /* \"#utility.yul\":16510:16589   */\n      tag_619\n      tag_356\n      jump\t// in\n    tag_619:\n        /* \"#utility.yul\":16472:16591   */\n    tag_618:\n        /* \"#utility.yul\":16651:16652   */\n      0x00\n        /* \"#utility.yul\":16640:16649   */\n      dup3\n        /* \"#utility.yul\":16636:16653   */\n      add\n        /* \"#utility.yul\":16630:16654   */\n      mload\n        /* \"#utility.yul\":16681:16699   */\n      0xffffffffffffffff\n        /* \"#utility.yul\":16673:16679   */\n      dup2\n        /* \"#utility.yul\":16670:16700   */\n      gt\n        /* \"#utility.yul\":16667:16784   */\n      iszero\n      tag_620\n      jumpi\n        /* \"#utility.yul\":16703:16782   */\n      tag_621\n      tag_357\n      jump\t// in\n    tag_621:\n        /* \"#utility.yul\":16667:16784   */\n    tag_620:\n        /* \"#utility.yul\":16808:16897   */\n      tag_622\n        /* \"#utility.yul\":16889:16896   */\n      dup5\n        /* \"#utility.yul\":16880:16886   */\n      dup3\n        /* \"#utility.yul\":16869:16878   */\n      dup6\n        /* \"#utility.yul\":16865:16887   */\n      add\n        /* \"#utility.yul\":16808:16897   */\n      tag_403\n      jump\t// in\n    tag_622:\n        /* \"#utility.yul\":16798:16897   */\n      swap2\n      pop\n        /* \"#utility.yul\":16601:16907   */\n      pop\n        /* \"#utility.yul\":16360:16914   */\n      swap3\n      swap2\n      pop\n      pop\n      jump\t// out\n        /* \"#utility.yul\":16920:17030   */\n    tag_404:\n        /* \"#utility.yul\":16971:16978   */\n      0x00\n        /* \"#utility.yul\":17000:17024   */\n      tag_624\n        /* \"#utility.yul\":17018:17023   */\n      dup3\n        /* \"#utility.yul\":17000:17024   */\n      tag_359\n      jump\t// in\n    tag_624:\n        /* \"#utility.yul\":16989:17024   */\n      swap1\n      pop\n        /* \"#utility.yul\":16920:17030   */\n      swap2\n      swap1\n      pop\n      jump\t// out\n        /* \"#utility.yul\":17036:17186   */\n    tag_405:\n        /* \"#utility.yul\":17123:17161   */\n      tag_626\n        /* \"#utility.yul\":17155:17160   */\n      dup2\n        /* \"#utility.yul\":17123:17161   */\n      tag_404\n      jump\t// in\n    tag_626:\n        /* \"#utility.yul\":17116:17121   */\n      dup2\n        /* \"#utility.yul\":17113:17162   */\n      eq\n        /* \"#utility.yul\":17103:17180   */\n      tag_627\n      jumpi\n        /* \"#utility.yul\":17176:17177   */\n      0x00\n        /* \"#utility.yul\":17173:17174   */\n      dup1\n        /* \"#utility.yul\":17166:17178   */\n      revert\n        /* \"#utility.yul\":17103:17180   */\n    tag_627:\n        /* \"#utility.yul\":17036:17186   */\n      pop\n      jump\t// out\n        /* \"#utility.yul\":17192:17363   */\n    tag_406:\n        /* \"#utility.yul\":17263:17268   */\n      0x00\n        /* \"#utility.yul\":17294:17300   */\n      dup2\n        /* \"#utility.yul\":17288:17301   */\n      mload\n        /* \"#utility.yul\":17279:17301   */\n      swap1\n      pop\n        /* \"#utility.yul\":17310:17357   */\n      tag_629\n        /* \"#utility.yul\":17351:17356   */\n      dup2\n        /* \"#utility.yul\":17310:17357   */\n      tag_405\n      jump\t// in\n    tag_629:\n        /* \"#utility.yul\":17192:17363   */\n      swap3\n      swap2\n      pop\n      pop\n      jump\t// out\n        /* \"#utility.yul\":17369:17748   */\n    tag_155:\n        /* \"#utility.yul\":17453:17459   */\n      0x00\n        /* \"#utility.yul\":17502:17504   */\n      0x20\n        /* \"#utility.yul\":17490:17499   */\n      dup3\n        /* \"#utility.yul\":17481:17488   */\n      dup5\n        /* \"#utility.yul\":17477:17500   */\n      sub\n        /* \"#utility.yul\":17473:17505   */\n      slt\n        /* \"#utility.yul\":17470:17589   */\n      iszero\n      tag_631\n      jumpi\n        /* \"#utility.yul\":17508:17587   */\n      tag_632\n      tag_356\n      jump\t// in\n    tag_632:\n        /* \"#utility.yul\":17470:17589   */\n    tag_631:\n        /* \"#utility.yul\":17628:17629   */\n      0x00\n        /* \"#utility.yul\":17653:17731   */\n      tag_633\n        /* \"#utility.yul\":17723:17730   */\n      dup5\n        /* \"#utility.yul\":17714:17720   */\n      dup3\n        /* \"#utility.yul\":17703:17712   */\n      dup6\n        /* \"#utility.yul\":17699:17721   */\n      add\n        /* \"#utility.yul\":17653:17731   */\n      tag_406\n      jump\t// in\n    tag_633:\n        /* \"#utility.yul\":17643:17731   */\n      swap2\n      pop\n        /* \"#utility.yul\":17599:17741   */\n      pop\n        /* \"#utility.yul\":17369:17748   */\n      swap3\n      swap2\n      pop\n      pop\n      jump\t// out\n        /* \"#utility.yul\":17754:17923   */\n    tag_407:\n        /* \"#utility.yul\":17838:17849   */\n      0x00\n        /* \"#utility.yul\":17872:17878   */\n      dup3\n        /* \"#utility.yul\":17867:17870   */\n      dup3\n        /* \"#utility.yul\":17860:17879   */\n      mstore\n        /* \"#utility.yul\":17912:17916   */\n      0x20\n        /* \"#utility.yul\":17907:17910   */\n      dup3\n        /* \"#utility.yul\":17903:17917   */\n      add\n        /* \"#utility.yul\":17888:17917   */\n      swap1\n      pop\n        /* \"#utility.yul\":17754:17923   */\n      swap3\n      swap2\n      pop\n      pop\n      jump\t// out\n        /* \"#utility.yul\":17929:18111   */\n    tag_408:\n        /* \"#utility.yul\":18069:18103   */\n      0x4f776e61626c653a2063616c6c6572206973206e6f7420746865206f776e6572\n        /* \"#utility.yul\":18065:18066   */\n      0x00\n        /* \"#utility.yul\":18057:18063   */\n      dup3\n        /* \"#utility.yul\":18053:18067   */\n      add\n        /* \"#utility.yul\":18046:18104   */\n      mstore\n        /* \"#utility.yul\":17929:18111   */\n      pop\n      jump\t// out\n        /* \"#utility.yul\":18117:18483   */\n    tag_409:\n        /* \"#utility.yul\":18259:18262   */\n      0x00\n        /* \"#utility.yul\":18280:18347   */\n      tag_637\n        /* \"#utility.yul\":18344:18346   */\n      0x20\n        /* \"#utility.yul\":18339:18342   */\n      dup4\n        /* \"#utility.yul\":18280:18347   */\n      tag_407\n      jump\t// in\n    tag_637:\n        /* \"#utility.yul\":18273:18347   */\n      swap2\n      pop\n        /* \"#utility.yul\":18356:18449   */\n      tag_638\n        /* \"#utility.yul\":18445:18448   */\n      dup3\n        /* \"#utility.yul\":18356:18449   */\n      tag_408\n      jump\t// in\n    tag_638:\n        /* \"#utility.yul\":18474:18476   */\n      0x20\n        /* \"#utility.yul\":18469:18472   */\n      dup3\n        /* \"#utility.yul\":18465:18477   */\n      add\n        /* \"#utility.yul\":18458:18477   */\n      swap1\n      pop\n        /* \"#utility.yul\":18117:18483   */\n      swap2\n      swap1\n      pop\n      jump\t// out\n        /* \"#utility.yul\":18489:18908   */\n    tag_264:\n        /* \"#utility.yul\":18655:18659   */\n      0x00\n        /* \"#utility.yul\":18693:18695   */\n      0x20\n        /* \"#utility.yul\":18682:18691   */\n      dup3\n        /* \"#utility.yul\":18678:18696   */\n      add\n        /* \"#utility.yul\":18670:18696   */\n      swap1\n      pop\n        /* \"#utility.yul\":18742:18751   */\n      dup2\n        /* \"#utility.yul\":18736:18740   */\n      dup2\n        /* \"#utility.yul\":18732:18752   */\n      sub\n        /* \"#utility.yul\":18728:18729   */\n      0x00\n        /* \"#utility.yul\":18717:18726   */\n      dup4\n        /* \"#utility.yul\":18713:18730   */\n      add\n        /* \"#utility.yul\":18706:18753   */\n      mstore\n        /* \"#utility.yul\":18770:18901   */\n      tag_640\n        /* \"#utility.yul\":18896:18900   */\n      dup2\n        /* \"#utility.yul\":18770:18901   */\n      tag_409\n      jump\t// in\n    tag_640:\n        /* \"#utility.yul\":18762:18901   */\n      swap1\n      pop\n        /* \"#utility.yul\":18489:18908   */\n      swap2\n      swap1\n      pop\n      jump\t// out\n        /* \"#utility.yul\":18914:19031   */\n    tag_410:\n        /* \"#utility.yul\":19023:19024   */\n      0x00\n        /* \"#utility.yul\":19020:19021   */\n      dup1\n        /* \"#utility.yul\":19013:19025   */\n      revert\n        /* \"#utility.yul\":19160:19275   */\n    tag_412:\n        /* \"#utility.yul\":19216:19223   */\n      0x00\n        /* \"#utility.yul\":19245:19269   */\n      tag_644\n        /* \"#utility.yul\":19263:19268   */\n      dup3\n        /* \"#utility.yul\":19245:19269   */\n      tag_359\n      jump\t// in\n    tag_644:\n        /* \"#utility.yul\":19234:19269   */\n      swap1\n      pop\n        /* \"#utility.yul\":19160:19275   */\n      swap2\n      swap1\n      pop\n      jump\t// out\n        /* \"#utility.yul\":19281:19441   */\n    tag_413:\n        /* \"#utility.yul\":19373:19416   */\n      tag_646\n        /* \"#utility.yul\":19410:19415   */\n      dup2\n        /* \"#utility.yul\":19373:19416   */\n      tag_412\n      jump\t// in\n    tag_646:\n        /* \"#utility.yul\":19366:19371   */\n      dup2\n        /* \"#utility.yul\":19363:19417   */\n      eq\n        /* \"#utility.yul\":19353:19435   */\n      tag_647\n      jumpi\n        /* \"#utility.yul\":19431:19432   */\n      0x00\n        /* \"#utility.yul\":19428:19429   */\n      dup1\n        /* \"#utility.yul\":19421:19433   */\n      revert\n        /* \"#utility.yul\":19353:19435   */\n    tag_647:\n        /* \"#utility.yul\":19281:19441   */\n      pop\n      jump\t// out\n        /* \"#utility.yul\":19447:19628   */\n    tag_414:\n        /* \"#utility.yul\":19523:19528   */\n      0x00\n        /* \"#utility.yul\":19554:19560   */\n      dup2\n        /* \"#utility.yul\":19548:19561   */\n      mload\n        /* \"#utility.yul\":19539:19561   */\n      swap1\n      pop\n        /* \"#utility.yul\":19570:19622   */\n      tag_649\n        /* \"#utility.yul\":19616:19621   */\n      dup2\n        /* \"#utility.yul\":19570:19622   */\n      tag_413\n      jump\t// in\n    tag_649:\n        /* \"#utility.yul\":19447:19628   */\n      swap3\n      swap2\n      pop\n      pop\n      jump\t// out\n        /* \"#utility.yul\":19657:21048   */\n    tag_415:\n        /* \"#utility.yul\":19742:19747   */\n      0x00\n        /* \"#utility.yul\":19786:19790   */\n      0xc0\n        /* \"#utility.yul\":19774:19783   */\n      dup3\n        /* \"#utility.yul\":19769:19772   */\n      dup5\n        /* \"#utility.yul\":19765:19784   */\n      sub\n        /* \"#utility.yul\":19761:19791   */\n      slt\n        /* \"#utility.yul\":19758:19875   */\n      iszero\n      tag_651\n      jumpi\n        /* \"#utility.yul\":19794:19873   */\n      tag_652\n      tag_410\n      jump\t// in\n    tag_652:\n        /* \"#utility.yul\":19758:19875   */\n    tag_651:\n        /* \"#utility.yul\":19893:19914   */\n      tag_653\n        /* \"#utility.yul\":19909:19913   */\n      0xc0\n        /* \"#utility.yul\":19893:19914   */\n      tag_373\n      jump\t// in\n    tag_653:\n        /* \"#utility.yul\":19884:19914   */\n      swap1\n      pop\n        /* \"#utility.yul\":19976:19977   */\n      0x00\n        /* \"#utility.yul\":20016:20090   */\n      tag_654\n        /* \"#utility.yul\":20086:20089   */\n      dup5\n        /* \"#utility.yul\":20077:20083   */\n      dup3\n        /* \"#utility.yul\":20066:20075   */\n      dup6\n        /* \"#utility.yul\":20062:20084   */\n      add\n        /* \"#utility.yul\":20016:20090   */\n      tag_406\n      jump\t// in\n    tag_654:\n        /* \"#utility.yul\":20009:20013   */\n      0x00\n        /* \"#utility.yul\":20002:20007   */\n      dup4\n        /* \"#utility.yul\":19998:20014   */\n      add\n        /* \"#utility.yul\":19991:20091   */\n      mstore\n        /* \"#utility.yul\":19924:20102   */\n      pop\n        /* \"#utility.yul\":20167:20169   */\n      0x20\n        /* \"#utility.yul\":20208:20268   */\n      tag_655\n        /* \"#utility.yul\":20264:20267   */\n      dup5\n        /* \"#utility.yul\":20255:20261   */\n      dup3\n        /* \"#utility.yul\":20244:20253   */\n      dup6\n        /* \"#utility.yul\":20240:20262   */\n      add\n        /* \"#utility.yul\":20208:20268   */\n      tag_392\n      jump\t// in\n    tag_655:\n        /* \"#utility.yul\":20201:20205   */\n      0x20\n        /* \"#utility.yul\":20194:20199   */\n      dup4\n        /* \"#utility.yul\":20190:20206   */\n      add\n        /* \"#utility.yul\":20183:20269   */\n      mstore\n        /* \"#utility.yul\":20112:20280   */\n      pop\n        /* \"#utility.yul\":20350:20352   */\n      0x40\n        /* \"#utility.yul\":20391:20451   */\n      tag_656\n        /* \"#utility.yul\":20447:20450   */\n      dup5\n        /* \"#utility.yul\":20438:20444   */\n      dup3\n        /* \"#utility.yul\":20427:20436   */\n      dup6\n        /* \"#utility.yul\":20423:20445   */\n      add\n        /* \"#utility.yul\":20391:20451   */\n      tag_392\n      jump\t// in\n    tag_656:\n        /* \"#utility.yul\":20384:20388   */\n      0x40\n        /* \"#utility.yul\":20377:20382   */\n      dup4\n        /* \"#utility.yul\":20373:20389   */\n      add\n        /* \"#utility.yul\":20366:20452   */\n      mstore\n        /* \"#utility.yul\":20290:20463   */\n      pop\n        /* \"#utility.yul\":20532:20534   */\n      0x60\n        /* \"#utility.yul\":20573:20633   */\n      tag_657\n        /* \"#utility.yul\":20629:20632   */\n      dup5\n        /* \"#utility.yul\":20620:20626   */\n      dup3\n        /* \"#utility.yul\":20609:20618   */\n      dup6\n        /* \"#utility.yul\":20605:20627   */\n      add\n        /* \"#utility.yul\":20573:20633   */\n      tag_392\n      jump\t// in\n    tag_657:\n        /* \"#utility.yul\":20566:20570   */\n      0x60\n        /* \"#utility.yul\":20559:20564   */\n      dup4\n        /* \"#utility.yul\":20555:20571   */\n      add\n        /* \"#utility.yul\":20548:20634   */\n      mstore\n        /* \"#utility.yul\":20473:20645   */\n      pop\n        /* \"#utility.yul\":20714:20717   */\n      0x80\n        /* \"#utility.yul\":20756:20835   */\n      tag_658\n        /* \"#utility.yul\":20831:20834   */\n      dup5\n        /* \"#utility.yul\":20822:20828   */\n      dup3\n        /* \"#utility.yul\":20811:20820   */\n      dup6\n        /* \"#utility.yul\":20807:20829   */\n      add\n        /* \"#utility.yul\":20756:20835   */\n      tag_414\n      jump\t// in\n    tag_658:\n        /* \"#utility.yul\":20749:20753   */\n      0x80\n        /* \"#utility.yul\":20742:20747   */\n      dup4\n        /* \"#utility.yul\":20738:20754   */\n      add\n        /* \"#utility.yul\":20731:20836   */\n      mstore\n        /* \"#utility.yul\":20655:20847   */\n      pop\n        /* \"#utility.yul\":20913:20916   */\n      0xa0\n        /* \"#utility.yul\":20955:21029   */\n      tag_659\n        /* \"#utility.yul\":21025:21028   */\n      dup5\n        /* \"#utility.yul\":21016:21022   */\n      dup3\n        /* \"#utility.yul\":21005:21014   */\n      dup6\n        /* \"#utility.yul\":21001:21023   */\n      add\n        /* \"#utility.yul\":20955:21029   */\n      tag_406\n      jump\t// in\n    tag_659:\n        /* \"#utility.yul\":20948:20952   */\n      0xa0\n        /* \"#utility.yul\":20941:20946   */\n      dup4\n        /* \"#utility.yul\":20937:20953   */\n      add\n        /* \"#utility.yul\":20930:21030   */\n      mstore\n        /* \"#utility.yul\":20857:21041   */\n      pop\n        /* \"#utility.yul\":19657:21048   */\n      swap3\n      swap2\n      pop\n      pop\n      jump\t// out\n        /* \"#utility.yul\":21054:21456   */\n    tag_295:\n        /* \"#utility.yul\":21149:21155   */\n      0x00\n        /* \"#utility.yul\":21198:21201   */\n      0xc0\n        /* \"#utility.yul\":21186:21195   */\n      dup3\n        /* \"#utility.yul\":21177:21184   */\n      dup5\n        /* \"#utility.yul\":21173:21196   */\n      sub\n        /* \"#utility.yul\":21169:21202   */\n      slt\n        /* \"#utility.yul\":21166:21286   */\n      iszero\n      tag_661\n      jumpi\n        /* \"#utility.yul\":21205:21284   */\n      tag_662\n      tag_356\n      jump\t// in\n    tag_662:\n        /* \"#utility.yul\":21166:21286   */\n    tag_661:\n        /* \"#utility.yul\":21325:21326   */\n      0x00\n        /* \"#utility.yul\":21350:21439   */\n      tag_663\n        /* \"#utility.yul\":21431:21438   */\n      dup5\n        /* \"#utility.yul\":21422:21428   */\n      dup3\n        /* \"#utility.yul\":21411:21420   */\n      dup6\n        /* \"#utility.yul\":21407:21429   */\n      add\n        /* \"#utility.yul\":21350:21439   */\n      tag_415\n      jump\t// in\n    tag_663:\n        /* \"#utility.yul\":21340:21439   */\n      swap2\n      pop\n        /* \"#utility.yul\":21296:21449   */\n      pop\n        /* \"#utility.yul\":21054:21456   */\n      swap3\n      swap2\n      pop\n      pop\n      jump\t// out\n        /* \"#utility.yul\":21462:21605   */\n    tag_416:\n        /* \"#utility.yul\":21519:21524   */\n      0x00\n        /* \"#utility.yul\":21550:21556   */\n      dup2\n        /* \"#utility.yul\":21544:21557   */\n      mload\n        /* \"#utility.yul\":21535:21557   */\n      swap1\n      pop\n        /* \"#utility.yul\":21566:21599   */\n      tag_665\n        /* \"#utility.yul\":21593:21598   */\n      dup2\n        /* \"#utility.yul\":21566:21599   */\n      tag_378\n      jump\t// in\n    tag_665:\n        /* \"#utility.yul\":21462:21605   */\n      swap3\n      swap2\n      pop\n      pop\n      jump\t// out\n        /* \"#utility.yul\":21611:21962   */\n    tag_305:\n        /* \"#utility.yul\":21681:21687   */\n      0x00\n        /* \"#utility.yul\":21730:21732   */\n      0x20\n        /* \"#utility.yul\":21718:21727   */\n      dup3\n        /* \"#utility.yul\":21709:21716   */\n      dup5\n        /* \"#utility.yul\":21705:21728   */\n      sub\n        /* \"#utility.yul\":21701:21733   */\n      slt\n        /* \"#utility.yul\":21698:21817   */\n      iszero\n      tag_667\n      jumpi\n        /* \"#utility.yul\":21736:21815   */\n      tag_668\n      tag_356\n      jump\t// in\n    tag_668:\n        /* \"#utility.yul\":21698:21817   */\n    tag_667:\n        /* \"#utility.yul\":21856:21857   */\n      0x00\n        /* \"#utility.yul\":21881:21945   */\n      tag_669\n        /* \"#utility.yul\":21937:21944   */\n      dup5\n        /* \"#utility.yul\":21928:21934   */\n      dup3\n        /* \"#utility.yul\":21917:21926   */\n      dup6\n        /* \"#utility.yul\":21913:21935   */\n      add\n        /* \"#utility.yul\":21881:21945   */\n      tag_416\n      jump\t// in\n    tag_669:\n        /* \"#utility.yul\":21871:21945   */\n      swap2\n      pop\n        /* \"#utility.yul\":21827:21955   */\n      pop\n        /* \"#utility.yul\":21611:21962   */\n      swap3\n      swap2\n      pop\n      pop\n      jump\t// out\n        /* \"#utility.yul\":21994:22994   */\n    tag_417:\n        /* \"#utility.yul\":22082:22087   */\n      0x00\n        /* \"#utility.yul\":22126:22130   */\n      0x80\n        /* \"#utility.yul\":22114:22123   */\n      dup3\n        /* \"#utility.yul\":22109:22112   */\n      dup5\n        /* \"#utility.yul\":22105:22124   */\n      sub\n        /* \"#utility.yul\":22101:22131   */\n      slt\n        /* \"#utility.yul\":22098:22215   */\n      iszero\n      tag_671\n      jumpi\n        /* \"#utility.yul\":22134:22213   */\n      tag_672\n      tag_410\n      jump\t// in\n    tag_672:\n        /* \"#utility.yul\":22098:22215   */\n    tag_671:\n        /* \"#utility.yul\":22233:22254   */\n      tag_673\n        /* \"#utility.yul\":22249:22253   */\n      0x80\n        /* \"#utility.yul\":22233:22254   */\n      tag_373\n      jump\t// in\n    tag_673:\n        /* \"#utility.yul\":22224:22254   */\n      swap1\n      pop\n        /* \"#utility.yul\":22316:22317   */\n      0x00\n        /* \"#utility.yul\":22356:22430   */\n      tag_674\n        /* \"#utility.yul\":22426:22429   */\n      dup5\n        /* \"#utility.yul\":22417:22423   */\n      dup3\n        /* \"#utility.yul\":22406:22415   */\n      dup6\n        /* \"#utility.yul\":22402:22424   */\n      add\n        /* \"#utility.yul\":22356:22430   */\n      tag_406\n      jump\t// in\n    tag_674:\n        /* \"#utility.yul\":22349:22353   */\n      0x00\n        /* \"#utility.yul\":22342:22347   */\n      dup4\n        /* \"#utility.yul\":22338:22354   */\n      add\n        /* \"#utility.yul\":22331:22431   */\n      mstore\n        /* \"#utility.yul\":22264:22442   */\n      pop\n        /* \"#utility.yul\":22507:22509   */\n      0x20\n        /* \"#utility.yul\":22548:22608   */\n      tag_675\n        /* \"#utility.yul\":22604:22607   */\n      dup5\n        /* \"#utility.yul\":22595:22601   */\n      dup3\n        /* \"#utility.yul\":22584:22593   */\n      dup6\n        /* \"#utility.yul\":22580:22602   */\n      add\n        /* \"#utility.yul\":22548:22608   */\n      tag_392\n      jump\t// in\n    tag_675:\n        /* \"#utility.yul\":22541:22545   */\n      0x20\n        /* \"#utility.yul\":22534:22539   */\n      dup4\n        /* \"#utility.yul\":22530:22546   */\n      add\n        /* \"#utility.yul\":22523:22609   */\n      mstore\n        /* \"#utility.yul\":22452:22620   */\n      pop\n        /* \"#utility.yul\":22690:22692   */\n      0x40\n        /* \"#utility.yul\":22731:22791   */\n      tag_676\n        /* \"#utility.yul\":22787:22790   */\n      dup5\n        /* \"#utility.yul\":22778:22784   */\n      dup3\n        /* \"#utility.yul\":22767:22776   */\n      dup6\n        /* \"#utility.yul\":22763:22785   */\n      add\n        /* \"#utility.yul\":22731:22791   */\n      tag_392\n      jump\t// in\n    tag_676:\n        /* \"#utility.yul\":22724:22728   */\n      0x40\n        /* \"#utility.yul\":22717:22722   */\n      dup4\n        /* \"#utility.yul\":22713:22729   */\n      add\n        /* \"#utility.yul\":22706:22792   */\n      mstore\n        /* \"#utility.yul\":22630:22803   */\n      pop\n        /* \"#utility.yul\":22874:22876   */\n      0x60\n        /* \"#utility.yul\":22915:22975   */\n      tag_677\n        /* \"#utility.yul\":22971:22974   */\n      dup5\n        /* \"#utility.yul\":22962:22968   */\n      dup3\n        /* \"#utility.yul\":22951:22960   */\n      dup6\n        /* \"#utility.yul\":22947:22969   */\n      add\n        /* \"#utility.yul\":22915:22975   */\n      tag_392\n      jump\t// in\n    tag_677:\n        /* \"#utility.yul\":22908:22912   */\n      0x60\n        /* \"#utility.yul\":22901:22906   */\n      dup4\n        /* \"#utility.yul\":22897:22913   */\n      add\n        /* \"#utility.yul\":22890:22976   */\n      mstore\n        /* \"#utility.yul\":22813:22987   */\n      pop\n        /* \"#utility.yul\":21994:22994   */\n      swap3\n      swap2\n      pop\n      pop\n      jump\t// out\n        /* \"#utility.yul\":23000:23408   */\n    tag_321:\n        /* \"#utility.yul\":23098:23104   */\n      0x00\n        /* \"#utility.yul\":23147:23150   */\n      0x80\n        /* \"#utility.yul\":23135:23144   */\n      dup3\n        /* \"#utility.yul\":23126:23133   */\n      dup5\n        /* \"#utility.yul\":23122:23145   */\n      sub\n        /* \"#utility.yul\":23118:23151   */\n      slt\n        /* \"#utility.yul\":23115:23235   */\n      iszero\n      tag_679\n      jumpi\n        /* \"#utility.yul\":23154:23233   */\n      tag_680\n      tag_356\n      jump\t// in\n    tag_680:\n        /* \"#utility.yul\":23115:23235   */\n    tag_679:\n        /* \"#utility.yul\":23274:23275   */\n      0x00\n        /* \"#utility.yul\":23299:23391   */\n      tag_681\n        /* \"#utility.yul\":23383:23390   */\n      dup5\n        /* \"#utility.yul\":23374:23380   */\n      dup3\n        /* \"#utility.yul\":23363:23372   */\n      dup6\n        /* \"#utility.yul\":23359:23381   */\n      add\n        /* \"#utility.yul\":23299:23391   */\n      tag_417\n      jump\t// in\n    tag_681:\n        /* \"#utility.yul\":23289:23391   */\n      swap2\n      pop\n        /* \"#utility.yul\":23245:23401   */\n      pop\n        /* \"#utility.yul\":23000:23408   */\n      swap3\n      swap2\n      pop\n      pop\n      jump\t// out\n        /* \"#utility.yul\":23414:23639   */\n    tag_418:\n        /* \"#utility.yul\":23554:23588   */\n      0x4f776e61626c653a206e6577206f776e657220697320746865207a65726f2061\n        /* \"#utility.yul\":23550:23551   */\n      0x00\n        /* \"#utility.yul\":23542:23548   */\n      dup3\n        /* \"#utility.yul\":23538:23552   */\n      add\n        /* \"#utility.yul\":23531:23589   */\n      mstore\n        /* \"#utility.yul\":23623:23631   */\n      0x6464726573730000000000000000000000000000000000000000000000000000\n        /* \"#utility.yul\":23618:23620   */\n      0x20\n        /* \"#utility.yul\":23610:23616   */\n      dup3\n        /* \"#utility.yul\":23606:23621   */\n      add\n        /* \"#utility.yul\":23599:23632   */\n      mstore\n        /* \"#utility.yul\":23414:23639   */\n      pop\n      jump\t// out\n        /* \"#utility.yul\":23645:24011   */\n    tag_419:\n        /* \"#utility.yul\":23787:23790   */\n      0x00\n        /* \"#utility.yul\":23808:23875   */\n      tag_684\n        /* \"#utility.yul\":23872:23874   */\n      0x26\n        /* \"#utility.yul\":23867:23870   */\n      dup4\n        /* \"#utility.yul\":23808:23875   */\n      tag_407\n      jump\t// in\n    tag_684:\n        /* \"#utility.yul\":23801:23875   */\n      swap2\n      pop\n        /* \"#utility.yul\":23884:23977   */\n      tag_685\n        /* \"#utility.yul\":23973:23976   */\n      dup3\n        /* \"#utility.yul\":23884:23977   */\n      tag_418\n      jump\t// in\n    tag_685:\n        /* \"#utility.yul\":24002:24004   */\n      0x40\n        /* \"#utility.yul\":23997:24000   */\n      dup3\n        /* \"#utility.yul\":23993:24005   */\n      add\n        /* \"#utility.yul\":23986:24005   */\n      swap1\n      pop\n        /* \"#utility.yul\":23645:24011   */\n      swap2\n      swap1\n      pop\n      jump\t// out\n        /* \"#utility.yul\":24017:24436   */\n    tag_330:\n        /* \"#utility.yul\":24183:24187   */\n      0x00\n        /* \"#utility.yul\":24221:24223   */\n      0x20\n        /* \"#utility.yul\":24210:24219   */\n      dup3\n        /* \"#utility.yul\":24206:24224   */\n      add\n        /* \"#utility.yul\":24198:24224   */\n      swap1\n      pop\n        /* \"#utility.yul\":24270:24279   */\n      dup2\n        /* \"#utility.yul\":24264:24268   */\n      dup2\n        /* \"#utility.yul\":24260:24280   */\n      sub\n        /* \"#utility.yul\":24256:24257   */\n      0x00\n        /* \"#utility.yul\":24245:24254   */\n      dup4\n        /* \"#utility.yul\":24241:24258   */\n      add\n        /* \"#utility.yul\":24234:24281   */\n      mstore\n        /* \"#utility.yul\":24298:24429   */\n      tag_687\n        /* \"#utility.yul\":24424:24428   */\n      dup2\n        /* \"#utility.yul\":24298:24429   */\n      tag_419\n      jump\t// in\n    tag_687:\n        /* \"#utility.yul\":24290:24429   */\n      swap1\n      pop\n        /* \"#utility.yul\":24017:24436   */\n      swap2\n      swap1\n      pop\n      jump\t// out\n        /* \"#utility.yul\":24442:24622   */\n    tag_420:\n        /* \"#utility.yul\":24490:24567   */\n      0x4e487b7100000000000000000000000000000000000000000000000000000000\n        /* \"#utility.yul\":24487:24488   */\n      0x00\n        /* \"#utility.yul\":24480:24568   */\n      mstore\n        /* \"#utility.yul\":24587:24591   */\n      0x12\n        /* \"#utility.yul\":24584:24585   */\n      0x04\n        /* \"#utility.yul\":24577:24592   */\n      mstore\n        /* \"#utility.yul\":24611:24615   */\n      0x24\n        /* \"#utility.yul\":24608:24609   */\n      0x00\n        /* \"#utility.yul\":24601:24616   */\n      revert\n        /* \"#utility.yul\":24628:24813   */\n    tag_339:\n        /* \"#utility.yul\":24668:24669   */\n      0x00\n        /* \"#utility.yul\":24685:24705   */\n      tag_690\n        /* \"#utility.yul\":24703:24704   */\n      dup3\n        /* \"#utility.yul\":24685:24705   */\n      tag_363\n      jump\t// in\n    tag_690:\n        /* \"#utility.yul\":24680:24705   */\n      swap2\n      pop\n        /* \"#utility.yul\":24719:24739   */\n      tag_691\n        /* \"#utility.yul\":24737:24738   */\n      dup4\n        /* \"#utility.yul\":24719:24739   */\n      tag_363\n      jump\t// in\n    tag_691:\n        /* \"#utility.yul\":24714:24739   */\n      swap3\n      pop\n        /* \"#utility.yul\":24758:24759   */\n      dup3\n        /* \"#utility.yul\":24748:24783   */\n      tag_692\n      jumpi\n        /* \"#utility.yul\":24763:24781   */\n      tag_693\n      tag_420\n      jump\t// in\n    tag_693:\n        /* \"#utility.yul\":24748:24783   */\n    tag_692:\n        /* \"#utility.yul\":24805:24806   */\n      dup3\n        /* \"#utility.yul\":24802:24803   */\n      dup3\n        /* \"#utility.yul\":24798:24807   */\n      div\n        /* \"#utility.yul\":24793:24807   */\n      swap1\n      pop\n        /* \"#utility.yul\":24628:24813   */\n      swap3\n      swap2\n      pop\n      pop\n      jump\t// out\n        /* \"#utility.yul\":24819:25039   */\n    tag_421:\n        /* \"#utility.yul\":24959:24993   */\n      0x536166654d6174683a206d756c7469706c69636174696f6e206f766572666c6f\n        /* \"#utility.yul\":24955:24956   */\n      0x00\n        /* \"#utility.yul\":24947:24953   */\n      dup3\n        /* \"#utility.yul\":24943:24957   */\n      add\n        /* \"#utility.yul\":24936:24994   */\n      mstore\n        /* \"#utility.yul\":25028:25031   */\n      0x7700000000000000000000000000000000000000000000000000000000000000\n        /* \"#utility.yul\":25023:25025   */\n      0x20\n        /* \"#utility.yul\":25015:25021   */\n      dup3\n        /* \"#utility.yul\":25011:25026   */\n      add\n        /* \"#utility.yul\":25004:25032   */\n      mstore\n        /* \"#utility.yul\":24819:25039   */\n      pop\n      jump\t// out\n        /* \"#utility.yul\":25045:25411   */\n    tag_422:\n        /* \"#utility.yul\":25187:25190   */\n      0x00\n        /* \"#utility.yul\":25208:25275   */\n      tag_696\n        /* \"#utility.yul\":25272:25274   */\n      0x21\n        /* \"#utility.yul\":25267:25270   */\n      dup4\n        /* \"#utility.yul\":25208:25275   */\n      tag_407\n      jump\t// in\n    tag_696:\n        /* \"#utility.yul\":25201:25275   */\n      swap2\n      pop\n        /* \"#utility.yul\":25284:25377   */\n      tag_697\n        /* \"#utility.yul\":25373:25376   */\n      dup3\n        /* \"#utility.yul\":25284:25377   */\n      tag_421\n      jump\t// in\n    tag_697:\n        /* \"#utility.yul\":25402:25404   */\n      0x40\n        /* \"#utility.yul\":25397:25400   */\n      dup3\n        /* \"#utility.yul\":25393:25405   */\n      add\n        /* \"#utility.yul\":25386:25405   */\n      swap1\n      pop\n        /* \"#utility.yul\":25045:25411   */\n      swap2\n      swap1\n      pop\n      jump\t// out\n        /* \"#utility.yul\":25417:25836   */\n    tag_342:\n        /* \"#utility.yul\":25583:25587   */\n      0x00\n        /* \"#utility.yul\":25621:25623   */\n      0x20\n        /* \"#utility.yul\":25610:25619   */\n      dup3\n        /* \"#utility.yul\":25606:25624   */\n      add\n        /* \"#utility.yul\":25598:25624   */\n      swap1\n      pop\n        /* \"#utility.yul\":25670:25679   */\n      dup2\n        /* \"#utility.yul\":25664:25668   */\n      dup2\n        /* \"#utility.yul\":25660:25680   */\n      sub\n        /* \"#utility.yul\":25656:25657   */\n      0x00\n        /* \"#utility.yul\":25645:25654   */\n      dup4\n        /* \"#utility.yul\":25641:25658   */\n      add\n        /* \"#utility.yul\":25634:25681   */\n      mstore\n        /* \"#utility.yul\":25698:25829   */\n      tag_699\n        /* \"#utility.yul\":25824:25828   */\n      dup2\n        /* \"#utility.yul\":25698:25829   */\n      tag_422\n      jump\t// in\n    tag_699:\n        /* \"#utility.yul\":25690:25829   */\n      swap1\n      pop\n        /* \"#utility.yul\":25417:25836   */\n      swap2\n      swap1\n      pop\n      jump\t// out\n        /* \"#utility.yul\":25842:26019   */\n    tag_423:\n        /* \"#utility.yul\":25982:26011   */\n      0x536166654d6174683a206164646974696f6e206f766572666c6f770000000000\n        /* \"#utility.yul\":25978:25979   */\n      0x00\n        /* \"#utility.yul\":25970:25976   */\n      dup3\n        /* \"#utility.yul\":25966:25980   */\n      add\n        /* \"#utility.yul\":25959:26012   */\n      mstore\n        /* \"#utility.yul\":25842:26019   */\n      pop\n      jump\t// out\n        /* \"#utility.yul\":26025:26391   */\n    tag_424:\n        /* \"#utility.yul\":26167:26170   */\n      0x00\n        /* \"#utility.yul\":26188:26255   */\n      tag_702\n        /* \"#utility.yul\":26252:26254   */\n      0x1b\n        /* \"#utility.yul\":26247:26250   */\n      dup4\n        /* \"#utility.yul\":26188:26255   */\n      tag_407\n      jump\t// in\n    tag_702:\n        /* \"#utility.yul\":26181:26255   */\n      swap2\n      pop\n        /* \"#utility.yul\":26264:26357   */\n      tag_703\n        /* \"#utility.yul\":26353:26356   */\n      dup3\n        /* \"#utility.yul\":26264:26357   */\n      tag_423\n      jump\t// in\n    tag_703:\n        /* \"#utility.yul\":26382:26384   */\n      0x20\n        /* \"#utility.yul\":26377:26380   */\n      dup3\n        /* \"#utility.yul\":26373:26385   */\n      add\n        /* \"#utility.yul\":26366:26385   */\n      swap1\n      pop\n        /* \"#utility.yul\":26025:26391   */\n      swap2\n      swap1\n      pop\n      jump\t// out\n        /* \"#utility.yul\":26397:26816   */\n    tag_347:\n        /* \"#utility.yul\":26563:26567   */\n      0x00\n        /* \"#utility.yul\":26601:26603   */\n      0x20\n        /* \"#utility.yul\":26590:26599   */\n      dup3\n        /* \"#utility.yul\":26586:26604   */\n      add\n        /* \"#utility.yul\":26578:26604   */\n      swap1\n      pop\n        /* \"#utility.yul\":26650:26659   */\n      dup2\n        /* \"#utility.yul\":26644:26648   */\n      dup2\n        /* \"#utility.yul\":26640:26660   */\n      sub\n        /* \"#utility.yul\":26636:26637   */\n      0x00\n        /* \"#utility.yul\":26625:26634   */\n      dup4\n        /* \"#utility.yul\":26621:26638   */\n      add\n        /* \"#utility.yul\":26614:26661   */\n      mstore\n        /* \"#utility.yul\":26678:26809   */\n      tag_705\n        /* \"#utility.yul\":26804:26808   */\n      dup2\n        /* \"#utility.yul\":26678:26809   */\n      tag_424\n      jump\t// in\n    tag_705:\n        /* \"#utility.yul\":26670:26809   */\n      swap1\n      pop\n        /* \"#utility.yul\":26397:26816   */\n      swap2\n      swap1\n      pop\n      jump\t// out\n        /* \"#utility.yul\":26822:26921   */\n    tag_425:\n        /* \"#utility.yul\":26874:26880   */\n      0x00\n        /* \"#utility.yul\":26908:26913   */\n      dup2\n        /* \"#utility.yul\":26902:26914   */\n      mload\n        /* \"#utility.yul\":26892:26914   */\n      swap1\n      pop\n        /* \"#utility.yul\":26822:26921   */\n      swap2\n      swap1\n      pop\n      jump\t// out\n        /* \"#utility.yul\":26927:27234   */\n    tag_426:\n        /* \"#utility.yul\":26995:26996   */\n      0x00\n        /* \"#utility.yul\":27005:27118   */\n    tag_708:\n        /* \"#utility.yul\":27019:27025   */\n      dup4\n        /* \"#utility.yul\":27016:27017   */\n      dup2\n        /* \"#utility.yul\":27013:27026   */\n      lt\n        /* \"#utility.yul\":27005:27118   */\n      iszero\n      tag_710\n      jumpi\n        /* \"#utility.yul\":27104:27105   */\n      dup1\n        /* \"#utility.yul\":27099:27102   */\n      dup3\n        /* \"#utility.yul\":27095:27106   */\n      add\n        /* \"#utility.yul\":27089:27107   */\n      mload\n        /* \"#utility.yul\":27085:27086   */\n      dup2\n        /* \"#utility.yul\":27080:27083   */\n      dup5\n        /* \"#utility.yul\":27076:27087   */\n      add\n        /* \"#utility.yul\":27069:27108   */\n      mstore\n        /* \"#utility.yul\":27041:27043   */\n      0x20\n        /* \"#utility.yul\":27038:27039   */\n      dup2\n        /* \"#utility.yul\":27034:27044   */\n      add\n        /* \"#utility.yul\":27029:27044   */\n      swap1\n      pop\n        /* \"#utility.yul\":27005:27118   */\n      jump(tag_708)\n    tag_710:\n        /* \"#utility.yul\":27136:27142   */\n      dup4\n        /* \"#utility.yul\":27133:27134   */\n      dup2\n        /* \"#utility.yul\":27130:27143   */\n      gt\n        /* \"#utility.yul\":27127:27228   */\n      iszero\n      tag_711\n      jumpi\n        /* \"#utility.yul\":27216:27217   */\n      0x00\n        /* \"#utility.yul\":27207:27213   */\n      dup5\n        /* \"#utility.yul\":27202:27205   */\n      dup5\n        /* \"#utility.yul\":27198:27214   */\n      add\n        /* \"#utility.yul\":27191:27218   */\n      mstore\n        /* \"#utility.yul\":27127:27228   */\n    tag_711:\n        /* \"#utility.yul\":26976:27234   */\n      pop\n        /* \"#utility.yul\":26927:27234   */\n      pop\n      pop\n      pop\n      jump\t// out\n        /* \"#utility.yul\":27240:27604   */\n    tag_427:\n        /* \"#utility.yul\":27328:27331   */\n      0x00\n        /* \"#utility.yul\":27356:27395   */\n      tag_713\n        /* \"#utility.yul\":27389:27394   */\n      dup3\n        /* \"#utility.yul\":27356:27395   */\n      tag_425\n      jump\t// in\n    tag_713:\n        /* \"#utility.yul\":27411:27482   */\n      tag_714\n        /* \"#utility.yul\":27475:27481   */\n      dup2\n        /* \"#utility.yul\":27470:27473   */\n      dup6\n        /* \"#utility.yul\":27411:27482   */\n      tag_407\n      jump\t// in\n    tag_714:\n        /* \"#utility.yul\":27404:27482   */\n      swap4\n      pop\n        /* \"#utility.yul\":27491:27543   */\n      tag_715\n        /* \"#utility.yul\":27536:27542   */\n      dup2\n        /* \"#utility.yul\":27531:27534   */\n      dup6\n        /* \"#utility.yul\":27524:27528   */\n      0x20\n        /* \"#utility.yul\":27517:27522   */\n      dup7\n        /* \"#utility.yul\":27513:27529   */\n      add\n        /* \"#utility.yul\":27491:27543   */\n      tag_426\n      jump\t// in\n    tag_715:\n        /* \"#utility.yul\":27568:27597   */\n      tag_716\n        /* \"#utility.yul\":27590:27596   */\n      dup2\n        /* \"#utility.yul\":27568:27597   */\n      tag_371\n      jump\t// in\n    tag_716:\n        /* \"#utility.yul\":27563:27566   */\n      dup5\n        /* \"#utility.yul\":27559:27598   */\n      add\n        /* \"#utility.yul\":27552:27598   */\n      swap2\n      pop\n        /* \"#utility.yul\":27332:27604   */\n      pop\n        /* \"#utility.yul\":27240:27604   */\n      swap3\n      swap2\n      pop\n      pop\n      jump\t// out\n        /* \"#utility.yul\":27610:27923   */\n    tag_353:\n        /* \"#utility.yul\":27723:27727   */\n      0x00\n        /* \"#utility.yul\":27761:27763   */\n      0x20\n        /* \"#utility.yul\":27750:27759   */\n      dup3\n        /* \"#utility.yul\":27746:27764   */\n      add\n        /* \"#utility.yul\":27738:27764   */\n      swap1\n      pop\n        /* \"#utility.yul\":27810:27819   */\n      dup2\n        /* \"#utility.yul\":27804:27808   */\n      dup2\n        /* \"#utility.yul\":27800:27820   */\n      sub\n        /* \"#utility.yul\":27796:27797   */\n      0x00\n        /* \"#utility.yul\":27785:27794   */\n      dup4\n        /* \"#utility.yul\":27781:27798   */\n      add\n        /* \"#utility.yul\":27774:27821   */\n      mstore\n        /* \"#utility.yul\":27838:27916   */\n      tag_718\n        /* \"#utility.yul\":27911:27915   */\n      dup2\n        /* \"#utility.yul\":27902:27908   */\n      dup5\n        /* \"#utility.yul\":27838:27916   */\n      tag_427\n      jump\t// in\n    tag_718:\n        /* \"#utility.yul\":27830:27916   */\n      swap1\n      pop\n        /* \"#utility.yul\":27610:27923   */\n      swap3\n      swap2\n      pop\n      pop\n      jump\t// out\n\n    auxdata: 0xa2646970667358221220482b5a9187428b85ecd013df8ab0f85dff3120c3ec03d8ecf455b1f30dbf456564736f6c634300080f0033\n}\n",
				"bytecode": {
					"linkReferences": {},
					"object": "6080604052670de0b6b3a764000060035562a066806005553480156200002457600080fd5b5060405162002ea538038062002ea583398181016040528101906200004a9190620002b1565b6200006a6200005e6200013660201b60201c565b6200013e60201b60201c565b82600460006101000a81548173ffffffffffffffffffffffffffffffffffffffff021916908373ffffffffffffffffffffffffffffffffffffffff16021790555081600160006101000a81548173ffffffffffffffffffffffffffffffffffffffff021916908373ffffffffffffffffffffffffffffffffffffffff16021790555080600260006101000a81548173ffffffffffffffffffffffffffffffffffffffff021916908373ffffffffffffffffffffffffffffffffffffffff1602179055505050506200030d565b600033905090565b60008060009054906101000a900473ffffffffffffffffffffffffffffffffffffffff169050816000806101000a81548173ffffffffffffffffffffffffffffffffffffffff021916908373ffffffffffffffffffffffffffffffffffffffff1602179055508173ffffffffffffffffffffffffffffffffffffffff168173ffffffffffffffffffffffffffffffffffffffff167f8be0079c531659141344cd1fd0a4f28419497f9722a3daafe3b4186f6b6457e060405160405180910390a35050565b600080fd5b600073ffffffffffffffffffffffffffffffffffffffff82169050919050565b6000620002348262000207565b9050919050565b6000620002488262000227565b9050919050565b6200025a816200023b565b81146200026657600080fd5b50565b6000815190506200027a816200024f565b92915050565b6200028b8162000227565b81146200029757600080fd5b50565b600081519050620002ab8162000280565b92915050565b600080600060608486031215620002cd57620002cc62000202565b5b6000620002dd8682870162000269565b9350506020620002f0868287016200029a565b925050604062000303868287016200029a565b9150509250925092565b612b88806200031d6000396000f3fe608060405234801561001057600080fd5b506004361061010b5760003560e01c806355b44eaf116100a2578063c0d7865511610071578063c0d78655146102e2578063d979fb5f146102fe578063dbb793481461032e578063e085f38e1461035e578063f2fde38b1461038e5761010b565b806355b44eaf1461026c578063715018a61461029c5780638da5cb5b146102a65780638dd95002146102c45761010b565b80632f7c5980116100de5780632f7c5980146101d05780633268cc56146102005780633b979d451461021e578063484f4ea91461024e5761010b565b80631616f124146101105780631858882b1461014057806319047f8a14610170578063215cc989146101a0575b600080fd5b61012a60048036038101906101259190611dac565b6103aa565b6040516101379190611e0e565b60405180910390f35b61015a60048036038101906101559190611f82565b6104e9565b6040516101679190611e0e565b60405180910390f35b61018a6004803603810190610185919061200a565b6105b0565b6040516101979190611e0e565b60405180910390f35b6101ba60048036038101906101b59190612037565b6107f8565b6040516101c79190611e0e565b60405180910390f35b6101ea60048036038101906101e59190612037565b610ff3565b6040516101f79190611e0e565b60405180910390f35b610208611075565b60405161021591906120c3565b60405180910390f35b6102386004803603810190610233919061200a565b61109b565b6040516102459190611e0e565b60405180910390f35b610256611272565b60405161026391906120ed565b60405180910390f35b61028660048036038101906102819190611f82565b611298565b6040516102939190611e0e565b60405180910390f35b6102a4611361565b005b6102ae6113e9565b6040516102bb91906120ed565b60405180910390f35b6102cc611412565b6040516102d991906120ed565b60405180910390f35b6102fc60048036038101906102f79190612146565b611438565b005b61031860048036038101906103139190612173565b6114f8565b6040516103259190611e0e565b60405180910390f35b61034860048036038101906103439190612173565b611638565b6040516103559190611e0e565b60405180910390f35b61037860048036038101906103739190612218565b6118d9565b6040516103859190611e0e565b60405180910390f35b6103a860048036038101906103a3919061200a565b61196c565b005b6000808473ffffffffffffffffffffffffffffffffffffffff166370a08231846040518263ffffffff1660e01b81526004016103e691906120ed565b602060405180830381865afa158015610403573d6000803e3d6000fd5b505050506040513d601f19601f82011682018060405250810190610427919061226d565b90506000600185036104435761043c866107f8565b90506104be565b600085036104bd578573ffffffffffffffffffffffffffffffffffffffff16600160009054906101000a900473ffffffffffffffffffffffffffffffffffffffff1673ffffffffffffffffffffffffffffffffffffffff16036104b0576104a98661109b565b90506104bc565b6104b9866105b0565b90505b5b5b6104de60035482846104d091906122c9565b611a6390919063ffffffff16565b925050509392505050565b6000806000905060005b83518110156105a557600161052185838151811061051457610513612323565b5b6020026020010151610ff3565b0361055e5761054c84828151811061053c5761053b612323565b5b60200260200101516001876103aa565b826105579190612352565b9150610592565b61058484828151811061057457610573612323565b5b60200260200101516000876103aa565b8261058f9190612352565b91505b808061059d906123a8565b9150506104f3565b508091505092915050565b600080600367ffffffffffffffff8111156105ce576105cd611e3f565b5b6040519080825280602002602001820160405280156105fc5781602001602082028036833780820191505090505b509050828160008151811061061457610613612323565b5b602002602001019073ffffffffffffffffffffffffffffffffffffffff16908173ffffffffffffffffffffffffffffffffffffffff1681525050600160009054906101000a900473ffffffffffffffffffffffffffffffffffffffff168160018151811061068557610684612323565b5b602002602001019073ffffffffffffffffffffffffffffffffffffffff16908173ffffffffffffffffffffffffffffffffffffffff1681525050600260009054906101000a900473ffffffffffffffffffffffffffffffffffffffff16816002815181106106f6576106f5612323565b5b602002602001019073ffffffffffffffffffffffffffffffffffffffff16908173ffffffffffffffffffffffffffffffffffffffff1681525050600460009054906101000a900473ffffffffffffffffffffffffffffffffffffffff1673ffffffffffffffffffffffffffffffffffffffff1663d06ca61f600354836040518363ffffffff1660e01b815260040161078f9291906124ae565b600060405180830381865afa1580156107ac573d6000803e3d6000fd5b505050506040513d6000823e3d601f19601f820116820180604052508101906107d591906125a1565b6002815181106107e8576107e7612323565b5b6020026020010151915050919050565b60008060008373ffffffffffffffffffffffffffffffffffffffff16630dfe16816040518163ffffffff1660e01b8152600401602060405180830381865afa158015610848573d6000803e3d6000fd5b505050506040513d601f19601f8201168201806040525081019061086c9190612628565b73ffffffffffffffffffffffffffffffffffffffff16600160009054906101000a900473ffffffffffffffffffffffffffffffffffffffff1673ffffffffffffffffffffffffffffffffffffffff1603610a3757610a3061093a8573ffffffffffffffffffffffffffffffffffffffff16630dfe16816040518163ffffffff1660e01b8152600401602060405180830381865afa158015610911573d6000803e3d6000fd5b505050506040513d601f19601f820116820180604052508101906109359190612628565b61109b565b8573ffffffffffffffffffffffffffffffffffffffff16630dfe16816040518163ffffffff1660e01b8152600401602060405180830381865afa158015610985573d6000803e3d6000fd5b505050506040513d601f19601f820116820180604052508101906109a99190612628565b73ffffffffffffffffffffffffffffffffffffffff166370a08231876040518263ffffffff1660e01b81526004016109e191906120ed565b602060405180830381865afa1580156109fe573d6000803e3d6000fd5b505050506040513d601f19601f82011682018060405250810190610a22919061226d565b611aad90919063ffffffff16565b9150610baa565b610ba7610ab18573ffffffffffffffffffffffffffffffffffffffff16630dfe16816040518163ffffffff1660e01b8152600401602060405180830381865afa158015610a88573d6000803e3d6000fd5b505050506040513d601f19601f82011682018060405250810190610aac9190612628565b6105b0565b8573ffffffffffffffffffffffffffffffffffffffff16630dfe16816040518163ffffffff1660e01b8152600401602060405180830381865afa158015610afc573d6000803e3d6000fd5b505050506040513d601f19601f82011682018060405250810190610b209190612628565b73ffffffffffffffffffffffffffffffffffffffff166370a08231876040518263ffffffff1660e01b8152600401610b5891906120ed565b602060405180830381865afa158015610b75573d6000803e3d6000fd5b505050506040513d601f19601f82011682018060405250810190610b99919061226d565b611aad90919063ffffffff16565b91505b8373ffffffffffffffffffffffffffffffffffffffff1663d21220a76040518163ffffffff1660e01b8152600401602060405180830381865afa158015610bf5573d6000803e3d6000fd5b505050506040513d601f19601f82011682018060405250810190610c199190612628565b73ffffffffffffffffffffffffffffffffffffffff16600160009054906101000a900473ffffffffffffffffffffffffffffffffffffffff1673ffffffffffffffffffffffffffffffffffffffff1603610de457610ddd610ce78573ffffffffffffffffffffffffffffffffffffffff1663d21220a76040518163ffffffff1660e01b8152600401602060405180830381865afa158015610cbe573d6000803e3d6000fd5b505050506040513d601f19601f82011682018060405250810190610ce29190612628565b61109b565b8573ffffffffffffffffffffffffffffffffffffffff1663d21220a76040518163ffffffff1660e01b8152600401602060405180830381865afa158015610d32573d6000803e3d6000fd5b505050506040513d601f19601f82011682018060405250810190610d569190612628565b73ffffffffffffffffffffffffffffffffffffffff166370a08231876040518263ffffffff1660e01b8152600401610d8e91906120ed565b602060405180830381865afa158015610dab573d6000803e3d6000fd5b505050506040513d601f19601f82011682018060405250810190610dcf919061226d565b611aad90919063ffffffff16565b9050610f57565b610f54610e5e8573ffffffffffffffffffffffffffffffffffffffff1663d21220a76040518163ffffffff1660e01b8152600401602060405180830381865afa158015610e35573d6000803e3d6000fd5b505050506040513d601f19601f82011682018060405250810190610e599190612628565b6105b0565b8573ffffffffffffffffffffffffffffffffffffffff1663d21220a76040518163ffffffff1660e01b8152600401602060405180830381865afa158015610ea9573d6000803e3d6000fd5b505050506040513d601f19601f82011682018060405250810190610ecd9190612628565b73ffffffffffffffffffffffffffffffffffffffff166370a08231876040518263ffffffff1660e01b8152600401610f0591906120ed565b602060405180830381865afa158015610f22573d6000803e3d6000fd5b505050506040513d601f19601f82011682018060405250810190610f46919061226d565b611aad90919063ffffffff16565b90505b610fea8473ffffffffffffffffffffffffffffffffffffffff166318160ddd6040518163ffffffff1660e01b8152600401602060405180830381865afa158015610fa5573d6000803e3d6000fd5b505050506040513d601f19601f82011682018060405250810190610fc9919061226d565b610fdc8385611b2790919063ffffffff16565b611a6390919063ffffffff16565b92505050919050565b60008173ffffffffffffffffffffffffffffffffffffffff16630dfe16816040518163ffffffff1660e01b8152600401602060405180830381865afa92505050801561105d57506040513d601f19601f8201168201806040525081019061105a9190612628565b60015b61106a5760009050611070565b50600190505b919050565b600460009054906101000a900473ffffffffffffffffffffffffffffffffffffffff1681565b600080600267ffffffffffffffff8111156110b9576110b8611e3f565b5b6040519080825280602002602001820160405280156110e75781602001602082028036833780820191505090505b50905082816000815181106110ff576110fe612323565b5b602002602001019073ffffffffffffffffffffffffffffffffffffffff16908173ffffffffffffffffffffffffffffffffffffffff1681525050600260009054906101000a900473ffffffffffffffffffffffffffffffffffffffff16816001815181106111705761116f612323565b5b602002602001019073ffffffffffffffffffffffffffffffffffffffff16908173ffffffffffffffffffffffffffffffffffffffff1681525050600460009054906101000a900473ffffffffffffffffffffffffffffffffffffffff1673ffffffffffffffffffffffffffffffffffffffff1663d06ca61f600354836040518363ffffffff1660e01b81526004016112099291906124ae565b600060405180830381865afa158015611226573d6000803e3d6000fd5b505050506040513d6000823e3d601f19601f8201168201806040525081019061124f91906125a1565b60018151811061126257611261612323565b5b6020026020010151915050919050565b600260009054906101000a900473ffffffffffffffffffffffffffffffffffffffff1681565b6000806000905060005b83518110156113565760016112d08583815181106112c3576112c2612323565b5b6020026020010151610ff3565b0361130e576112fc818583815181106112ec576112eb612323565b5b60200260200101516001886114f8565b826113079190612352565b9150611343565b6113358185838151811061132557611324612323565b5b60200260200101516000886114f8565b826113409190612352565b91505b808061134e906123a8565b9150506112a2565b508091505092915050565b611369611b85565b73ffffffffffffffffffffffffffffffffffffffff166113876113e9565b73ffffffffffffffffffffffffffffffffffffffff16146113dd576040517f08c379a00000000000000000000000000000000000000000000000000000000081526004016113d4906126b2565b60405180910390fd5b6113e76000611b8d565b565b60008060009054906101000a900473ffffffffffffffffffffffffffffffffffffffff16905090565b600160009054906101000a900473ffffffffffffffffffffffffffffffffffffffff1681565b611440611b85565b73ffffffffffffffffffffffffffffffffffffffff1661145e6113e9565b73ffffffffffffffffffffffffffffffffffffffff16146114b4576040517f08c379a00000000000000000000000000000000000000000000000000000000081526004016114ab906126b2565b60405180910390fd5b80600460006101000a81548173ffffffffffffffffffffffffffffffffffffffff021916908373ffffffffffffffffffffffffffffffffffffffff16021790555050565b6000808273ffffffffffffffffffffffffffffffffffffffff16636a6d964e876040518263ffffffff1660e01b81526004016115349190611e0e565b602060405180830381865afa158015611551573d6000803e3d6000fd5b505050506040513d601f19601f82011682018060405250810190611575919061226d565b90506000600185036115915761158a866107f8565b905061160c565b6000850361160b578573ffffffffffffffffffffffffffffffffffffffff16600160009054906101000a900473ffffffffffffffffffffffffffffffffffffffff1673ffffffffffffffffffffffffffffffffffffffff16036115fe576115f78661109b565b905061160a565b611607866105b0565b90505b5b5b61162c600354828461161e91906122c9565b611a6390919063ffffffff16565b92505050949350505050565b6000808273ffffffffffffffffffffffffffffffffffffffff16631526fe27876040518263ffffffff1660e01b81526004016116749190611e0e565b60c060405180830381865afa158015611691573d6000803e3d6000fd5b505050506040513d601f19601f820116820180604052508101906116b591906127b5565b905060006117528473ffffffffffffffffffffffffffffffffffffffff166317caf6f16040518163ffffffff1660e01b8152600401602060405180830381865afa158015611707573d6000803e3d6000fd5b505050506040513d601f19601f8201168201806040525081019061172b919061226d565b6117446003548560200151611aad90919063ffffffff16565b611a6390919063ffffffff16565b905060006117cd8573ffffffffffffffffffffffffffffffffffffffff1663141aa0ba6040518163ffffffff1660e01b8152600401602060405180830381865afa1580156117a4573d6000803e3d6000fd5b505050506040513d601f19601f820116820180604052508101906117c891906127f7565b6105b0565b905060006118548673ffffffffffffffffffffffffffffffffffffffff1663a1eef8216040518163ffffffff1660e01b8152600401602060405180830381865afa15801561181f573d6000803e3d6000fd5b505050506040513d601f19601f82011682018060405250810190611843919061226d565b600554611aad90919063ffffffff16565b9050600061187f6003546118718685611aad90919063ffffffff16565b611a6390919063ffffffff16565b9050600061188f8b8b8b8b6114f8565b90506118c960646118bb836118ad8887611aad90919063ffffffff16565b611a6390919063ffffffff16565b611aad90919063ffffffff16565b9650505050505050949350505050565b6000808273ffffffffffffffffffffffffffffffffffffffff16631526fe27856040518263ffffffff1660e01b81526004016119159190611e0e565b608060405180830381865afa158015611932573d6000803e3d6000fd5b505050506040513d601f19601f82011682018060405250810190611956919061289c565b9050600081602001519050809250505092915050565b611974611b85565b73ffffffffffffffffffffffffffffffffffffffff166119926113e9565b73ffffffffffffffffffffffffffffffffffffffff16146119e8576040517f08c379a00000000000000000000000000000000000000000000000000000000081526004016119df906126b2565b60405180910390fd5b600073ffffffffffffffffffffffffffffffffffffffff168173ffffffffffffffffffffffffffffffffffffffff1603611a57576040517f08c379a0000000000000000000000000000000000000000000000000000000008152600401611a4e9061293b565b60405180910390fd5b611a6081611b8d565b50565b6000611aa583836040518060400160405280601a81526020017f536166654d6174683a206469766973696f6e206279207a65726f000000000000815250611c51565b905092915050565b6000808303611abf5760009050611b21565b60008284611acd91906122c9565b9050828482611adc919061298a565b14611b1c576040517f08c379a0000000000000000000000000000000000000000000000000000000008152600401611b1390612a2d565b60405180910390fd5b809150505b92915050565b6000808284611b369190612352565b905083811015611b7b576040517f08c379a0000000000000000000000000000000000000000000000000000000008152600401611b7290612a99565b60405180910390fd5b8091505092915050565b600033905090565b60008060009054906101000a900473ffffffffffffffffffffffffffffffffffffffff169050816000806101000a81548173ffffffffffffffffffffffffffffffffffffffff021916908373ffffffffffffffffffffffffffffffffffffffff1602179055508173ffffffffffffffffffffffffffffffffffffffff168173ffffffffffffffffffffffffffffffffffffffff167f8be0079c531659141344cd1fd0a4f28419497f9722a3daafe3b4186f6b6457e060405160405180910390a35050565b60008083118290611c98576040517f08c379a0000000000000000000000000000000000000000000000000000000008152600401611c8f9190612b30565b60405180910390fd5b5060008385611ca7919061298a565b9050809150509392505050565b6000604051905090565b600080fd5b600080fd5b600073ffffffffffffffffffffffffffffffffffffffff82169050919050565b6000611cf382611cc8565b9050919050565b6000611d0582611ce8565b9050919050565b611d1581611cfa565b8114611d2057600080fd5b50565b600081359050611d3281611d0c565b92915050565b6000819050919050565b611d4b81611d38565b8114611d5657600080fd5b50565b600081359050611d6881611d42565b92915050565b6000611d7982611ce8565b9050919050565b611d8981611d6e565b8114611d9457600080fd5b50565b600081359050611da681611d80565b92915050565b600080600060608486031215611dc557611dc4611cbe565b5b6000611dd386828701611d23565b9350506020611de486828701611d59565b9250506040611df586828701611d97565b9150509250925092565b611e0881611d38565b82525050565b6000602082019050611e236000830184611dff565b92915050565b600080fd5b6000601f19601f8301169050919050565b7f4e487b7100000000000000000000000000000000000000000000000000000000600052604160045260246000fd5b611e7782611e2e565b810181811067ffffffffffffffff82111715611e9657611e95611e3f565b5b80604052505050565b6000611ea9611cb4565b9050611eb58282611e6e565b919050565b600067ffffffffffffffff821115611ed557611ed4611e3f565b5b602082029050602081019050919050565b600080fd5b6000611efe611ef984611eba565b611e9f565b90508083825260208201905060208402830185811115611f2157611f20611ee6565b5b835b81811015611f4a5780611f368882611d23565b845260208401935050602081019050611f23565b5050509392505050565b600082601f830112611f6957611f68611e29565b5b8135611f79848260208601611eeb565b91505092915050565b60008060408385031215611f9957611f98611cbe565b5b6000611fa785828601611d97565b925050602083013567ffffffffffffffff811115611fc857611fc7611cc3565b5b611fd485828601611f54565b9150509250929050565b611fe781611ce8565b8114611ff257600080fd5b50565b60008135905061200481611fde565b92915050565b6000602082840312156120205761201f611cbe565b5b600061202e84828501611ff5565b91505092915050565b60006020828403121561204d5761204c611cbe565b5b600061205b84828501611d23565b91505092915050565b6000819050919050565b600061208961208461207f84611cc8565b612064565b611cc8565b9050919050565b600061209b8261206e565b9050919050565b60006120ad82612090565b9050919050565b6120bd816120a2565b82525050565b60006020820190506120d860008301846120b4565b92915050565b6120e781611ce8565b82525050565b600060208201905061210260008301846120de565b92915050565b600061211382611ce8565b9050919050565b61212381612108565b811461212e57600080fd5b50565b6000813590506121408161211a565b92915050565b60006020828403121561215c5761215b611cbe565b5b600061216a84828501612131565b91505092915050565b6000806000806080858703121561218d5761218c611cbe565b5b600061219b87828801611d59565b94505060206121ac87828801611d23565b93505060406121bd87828801611d59565b92505060606121ce87828801611d97565b91505092959194509250565b60006121e582611ce8565b9050919050565b6121f5816121da565b811461220057600080fd5b50565b600081359050612212816121ec565b92915050565b6000806040838503121561222f5761222e611cbe565b5b600061223d85828601611d59565b925050602061224e85828601612203565b9150509250929050565b60008151905061226781611d42565b92915050565b60006020828403121561228357612282611cbe565b5b600061229184828501612258565b91505092915050565b7f4e487b7100000000000000000000000000000000000000000000000000000000600052601160045260246000fd5b60006122d482611d38565b91506122df83611d38565b9250817fffffffffffffffffffffffffffffffffffffffffffffffffffffffffffffffff04831182151516156123185761231761229a565b5b828202905092915050565b7f4e487b7100000000000000000000000000000000000000000000000000000000600052603260045260246000fd5b600061235d82611d38565b915061236883611d38565b9250827fffffffffffffffffffffffffffffffffffffffffffffffffffffffffffffffff0382111561239d5761239c61229a565b5b828201905092915050565b60006123b382611d38565b91507fffffffffffffffffffffffffffffffffffffffffffffffffffffffffffffffff82036123e5576123e461229a565b5b600182019050919050565b600081519050919050565b600082825260208201905092915050565b6000819050602082019050919050565b61242581611ce8565b82525050565b6000612437838361241c565b60208301905092915050565b6000602082019050919050565b600061245b826123f0565b61246581856123fb565b93506124708361240c565b8060005b838110156124a1578151612488888261242b565b975061249383612443565b925050600181019050612474565b5085935050505092915050565b60006040820190506124c36000830185611dff565b81810360208301526124d58184612450565b90509392505050565b600067ffffffffffffffff8211156124f9576124f8611e3f565b5b602082029050602081019050919050565b600061251d612518846124de565b611e9f565b905080838252602082019050602084028301858111156125405761253f611ee6565b5b835b8181101561256957806125558882612258565b845260208401935050602081019050612542565b5050509392505050565b600082601f83011261258857612587611e29565b5b815161259884826020860161250a565b91505092915050565b6000602082840312156125b7576125b6611cbe565b5b600082015167ffffffffffffffff8111156125d5576125d4611cc3565b5b6125e184828501612573565b91505092915050565b60006125f582611ce8565b9050919050565b612605816125ea565b811461261057600080fd5b50565b600081519050612622816125fc565b92915050565b60006020828403121561263e5761263d611cbe565b5b600061264c84828501612613565b91505092915050565b600082825260208201905092915050565b7f4f776e61626c653a2063616c6c6572206973206e6f7420746865206f776e6572600082015250565b600061269c602083612655565b91506126a782612666565b602082019050919050565b600060208201905081810360008301526126cb8161268f565b9050919050565b600080fd5b60006126e282611ce8565b9050919050565b6126f2816126d7565b81146126fd57600080fd5b50565b60008151905061270f816126e9565b92915050565b600060c0828403121561272b5761272a6126d2565b5b61273560c0611e9f565b9050600061274584828501612613565b600083015250602061275984828501612258565b602083015250604061276d84828501612258565b604083015250606061278184828501612258565b606083015250608061279584828501612700565b60808301525060a06127a984828501612613565b60a08301525092915050565b600060c082840312156127cb576127ca611cbe565b5b60006127d984828501612715565b91505092915050565b6000815190506127f181611fde565b92915050565b60006020828403121561280d5761280c611cbe565b5b600061281b848285016127e2565b91505092915050565b60006080828403121561283a576128396126d2565b5b6128446080611e9f565b9050600061285484828501612613565b600083015250602061286884828501612258565b602083015250604061287c84828501612258565b604083015250606061289084828501612258565b60608301525092915050565b6000608082840312156128b2576128b1611cbe565b5b60006128c084828501612824565b91505092915050565b7f4f776e61626c653a206e6577206f776e657220697320746865207a65726f206160008201527f6464726573730000000000000000000000000000000000000000000000000000602082015250565b6000612925602683612655565b9150612930826128c9565b604082019050919050565b6000602082019050818103600083015261295481612918565b9050919050565b7f4e487b7100000000000000000000000000000000000000000000000000000000600052601260045260246000fd5b600061299582611d38565b91506129a083611d38565b9250826129b0576129af61295b565b5b828204905092915050565b7f536166654d6174683a206d756c7469706c69636174696f6e206f766572666c6f60008201527f7700000000000000000000000000000000000000000000000000000000000000602082015250565b6000612a17602183612655565b9150612a22826129bb565b604082019050919050565b60006020820190508181036000830152612a4681612a0a565b9050919050565b7f536166654d6174683a206164646974696f6e206f766572666c6f770000000000600082015250565b6000612a83601b83612655565b9150612a8e82612a4d565b602082019050919050565b60006020820190508181036000830152612ab281612a76565b9050919050565b600081519050919050565b60005b83811015612ae2578082015181840152602081019050612ac7565b83811115612af1576000848401525b50505050565b6000612b0282612ab9565b612b0c8185612655565b9350612b1c818560208601612ac4565b612b2581611e2e565b840191505092915050565b60006020820190508181036000830152612b4a8184612af7565b90509291505056fea2646970667358221220482b5a9187428b85ecd013df8ab0f85dff3120c3ec03d8ecf455b1f30dbf456564736f6c634300080f0033",
					"opcodes": "PUSH1 0x80 PUSH1 0x40 MSTORE PUSH8 0xDE0B6B3A7640000 PUSH1 0x3 SSTORE PUSH3 0xA06680 PUSH1 0x5 SSTORE CALLVALUE DUP1 ISZERO PUSH3 0x24 JUMPI PUSH1 0x0 DUP1 REVERT JUMPDEST POP PUSH1 0x40 MLOAD PUSH3 0x2EA5 CODESIZE SUB DUP1 PUSH3 0x2EA5 DUP4 CODECOPY DUP2 DUP2 ADD PUSH1 0x40 MSTORE DUP2 ADD SWAP1 PUSH3 0x4A SWAP2 SWAP1 PUSH3 0x2B1 JUMP JUMPDEST PUSH3 0x6A PUSH3 0x5E PUSH3 0x136 PUSH1 0x20 SHL PUSH1 0x20 SHR JUMP JUMPDEST PUSH3 0x13E PUSH1 0x20 SHL PUSH1 0x20 SHR JUMP JUMPDEST DUP3 PUSH1 0x4 PUSH1 0x0 PUSH2 0x100 EXP DUP2 SLOAD DUP2 PUSH20 0xFFFFFFFFFFFFFFFFFFFFFFFFFFFFFFFFFFFFFFFF MUL NOT AND SWAP1 DUP4 PUSH20 0xFFFFFFFFFFFFFFFFFFFFFFFFFFFFFFFFFFFFFFFF AND MUL OR SWAP1 SSTORE POP DUP2 PUSH1 0x1 PUSH1 0x0 PUSH2 0x100 EXP DUP2 SLOAD DUP2 PUSH20 0xFFFFFFFFFFFFFFFFFFFFFFFFFFFFFFFFFFFFFFFF MUL NOT AND SWAP1 DUP4 PUSH20 0xFFFFFFFFFFFFFFFFFFFFFFFFFFFFFFFFFFFFFFFF AND MUL OR SWAP1 SSTORE POP DUP1 PUSH1 0x2 PUSH1 0x0 PUSH2 0x100 EXP DUP2 SLOAD DUP2 PUSH20 0xFFFFFFFFFFFFFFFFFFFFFFFFFFFFFFFFFFFFFFFF MUL NOT AND SWAP1 DUP4 PUSH20 0xFFFFFFFFFFFFFFFFFFFFFFFFFFFFFFFFFFFFFFFF AND MUL OR SWAP1 SSTORE POP POP POP POP PUSH3 0x30D JUMP JUMPDEST PUSH1 0x0 CALLER SWAP1 POP SWAP1 JUMP JUMPDEST PUSH1 0x0 DUP1 PUSH1 0x0 SWAP1 SLOAD SWAP1 PUSH2 0x100 EXP SWAP1 DIV PUSH20 0xFFFFFFFFFFFFFFFFFFFFFFFFFFFFFFFFFFFFFFFF AND SWAP1 POP DUP2 PUSH1 0x0 DUP1 PUSH2 0x100 EXP DUP2 SLOAD DUP2 PUSH20 0xFFFFFFFFFFFFFFFFFFFFFFFFFFFFFFFFFFFFFFFF MUL NOT AND SWAP1 DUP4 PUSH20 0xFFFFFFFFFFFFFFFFFFFFFFFFFFFFFFFFFFFFFFFF AND MUL OR SWAP1 SSTORE POP DUP2 PUSH20 0xFFFFFFFFFFFFFFFFFFFFFFFFFFFFFFFFFFFFFFFF AND DUP2 PUSH20 0xFFFFFFFFFFFFFFFFFFFFFFFFFFFFFFFFFFFFFFFF AND PUSH32 0x8BE0079C531659141344CD1FD0A4F28419497F9722A3DAAFE3B4186F6B6457E0 PUSH1 0x40 MLOAD PUSH1 0x40 MLOAD DUP1 SWAP2 SUB SWAP1 LOG3 POP POP JUMP JUMPDEST PUSH1 0x0 DUP1 REVERT JUMPDEST PUSH1 0x0 PUSH20 0xFFFFFFFFFFFFFFFFFFFFFFFFFFFFFFFFFFFFFFFF DUP3 AND SWAP1 POP SWAP2 SWAP1 POP JUMP JUMPDEST PUSH1 0x0 PUSH3 0x234 DUP3 PUSH3 0x207 JUMP JUMPDEST SWAP1 POP SWAP2 SWAP1 POP JUMP JUMPDEST PUSH1 0x0 PUSH3 0x248 DUP3 PUSH3 0x227 JUMP JUMPDEST SWAP1 POP SWAP2 SWAP1 POP JUMP JUMPDEST PUSH3 0x25A DUP2 PUSH3 0x23B JUMP JUMPDEST DUP2 EQ PUSH3 0x266 JUMPI PUSH1 0x0 DUP1 REVERT JUMPDEST POP JUMP JUMPDEST PUSH1 0x0 DUP2 MLOAD SWAP1 POP PUSH3 0x27A DUP2 PUSH3 0x24F JUMP JUMPDEST SWAP3 SWAP2 POP POP JUMP JUMPDEST PUSH3 0x28B DUP2 PUSH3 0x227 JUMP JUMPDEST DUP2 EQ PUSH3 0x297 JUMPI PUSH1 0x0 DUP1 REVERT JUMPDEST POP JUMP JUMPDEST PUSH1 0x0 DUP2 MLOAD SWAP1 POP PUSH3 0x2AB DUP2 PUSH3 0x280 JUMP JUMPDEST SWAP3 SWAP2 POP POP JUMP JUMPDEST PUSH1 0x0 DUP1 PUSH1 0x0 PUSH1 0x60 DUP5 DUP7 SUB SLT ISZERO PUSH3 0x2CD JUMPI PUSH3 0x2CC PUSH3 0x202 JUMP JUMPDEST JUMPDEST PUSH1 0x0 PUSH3 0x2DD DUP7 DUP3 DUP8 ADD PUSH3 0x269 JUMP JUMPDEST SWAP4 POP POP PUSH1 0x20 PUSH3 0x2F0 DUP7 DUP3 DUP8 ADD PUSH3 0x29A JUMP JUMPDEST SWAP3 POP POP PUSH1 0x40 PUSH3 0x303 DUP7 DUP3 DUP8 ADD PUSH3 0x29A JUMP JUMPDEST SWAP2 POP POP SWAP3 POP SWAP3 POP SWAP3 JUMP JUMPDEST PUSH2 0x2B88 DUP1 PUSH3 0x31D PUSH1 0x0 CODECOPY PUSH1 0x0 RETURN INVALID PUSH1 0x80 PUSH1 0x40 MSTORE CALLVALUE DUP1 ISZERO PUSH2 0x10 JUMPI PUSH1 0x0 DUP1 REVERT JUMPDEST POP PUSH1 0x4 CALLDATASIZE LT PUSH2 0x10B JUMPI PUSH1 0x0 CALLDATALOAD PUSH1 0xE0 SHR DUP1 PUSH4 0x55B44EAF GT PUSH2 0xA2 JUMPI DUP1 PUSH4 0xC0D78655 GT PUSH2 0x71 JUMPI DUP1 PUSH4 0xC0D78655 EQ PUSH2 0x2E2 JUMPI DUP1 PUSH4 0xD979FB5F EQ PUSH2 0x2FE JUMPI DUP1 PUSH4 0xDBB79348 EQ PUSH2 0x32E JUMPI DUP1 PUSH4 0xE085F38E EQ PUSH2 0x35E JUMPI DUP1 PUSH4 0xF2FDE38B EQ PUSH2 0x38E JUMPI PUSH2 0x10B JUMP JUMPDEST DUP1 PUSH4 0x55B44EAF EQ PUSH2 0x26C JUMPI DUP1 PUSH4 0x715018A6 EQ PUSH2 0x29C JUMPI DUP1 PUSH4 0x8DA5CB5B EQ PUSH2 0x2A6 JUMPI DUP1 PUSH4 0x8DD95002 EQ PUSH2 0x2C4 JUMPI PUSH2 0x10B JUMP JUMPDEST DUP1 PUSH4 0x2F7C5980 GT PUSH2 0xDE JUMPI DUP1 PUSH4 0x2F7C5980 EQ PUSH2 0x1D0 JUMPI DUP1 PUSH4 0x3268CC56 EQ PUSH2 0x200 JUMPI DUP1 PUSH4 0x3B979D45 EQ PUSH2 0x21E JUMPI DUP1 PUSH4 0x484F4EA9 EQ PUSH2 0x24E JUMPI PUSH2 0x10B JUMP JUMPDEST DUP1 PUSH4 0x1616F124 EQ PUSH2 0x110 JUMPI DUP1 PUSH4 0x1858882B EQ PUSH2 0x140 JUMPI DUP1 PUSH4 0x19047F8A EQ PUSH2 0x170 JUMPI DUP1 PUSH4 0x215CC989 EQ PUSH2 0x1A0 JUMPI JUMPDEST PUSH1 0x0 DUP1 REVERT JUMPDEST PUSH2 0x12A PUSH1 0x4 DUP1 CALLDATASIZE SUB DUP2 ADD SWAP1 PUSH2 0x125 SWAP2 SWAP1 PUSH2 0x1DAC JUMP JUMPDEST PUSH2 0x3AA JUMP JUMPDEST PUSH1 0x40 MLOAD PUSH2 0x137 SWAP2 SWAP1 PUSH2 0x1E0E JUMP JUMPDEST PUSH1 0x40 MLOAD DUP1 SWAP2 SUB SWAP1 RETURN JUMPDEST PUSH2 0x15A PUSH1 0x4 DUP1 CALLDATASIZE SUB DUP2 ADD SWAP1 PUSH2 0x155 SWAP2 SWAP1 PUSH2 0x1F82 JUMP JUMPDEST PUSH2 0x4E9 JUMP JUMPDEST PUSH1 0x40 MLOAD PUSH2 0x167 SWAP2 SWAP1 PUSH2 0x1E0E JUMP JUMPDEST PUSH1 0x40 MLOAD DUP1 SWAP2 SUB SWAP1 RETURN JUMPDEST PUSH2 0x18A PUSH1 0x4 DUP1 CALLDATASIZE SUB DUP2 ADD SWAP1 PUSH2 0x185 SWAP2 SWAP1 PUSH2 0x200A JUMP JUMPDEST PUSH2 0x5B0 JUMP JUMPDEST PUSH1 0x40 MLOAD PUSH2 0x197 SWAP2 SWAP1 PUSH2 0x1E0E JUMP JUMPDEST PUSH1 0x40 MLOAD DUP1 SWAP2 SUB SWAP1 RETURN JUMPDEST PUSH2 0x1BA PUSH1 0x4 DUP1 CALLDATASIZE SUB DUP2 ADD SWAP1 PUSH2 0x1B5 SWAP2 SWAP1 PUSH2 0x2037 JUMP JUMPDEST PUSH2 0x7F8 JUMP JUMPDEST PUSH1 0x40 MLOAD PUSH2 0x1C7 SWAP2 SWAP1 PUSH2 0x1E0E JUMP JUMPDEST PUSH1 0x40 MLOAD DUP1 SWAP2 SUB SWAP1 RETURN JUMPDEST PUSH2 0x1EA PUSH1 0x4 DUP1 CALLDATASIZE SUB DUP2 ADD SWAP1 PUSH2 0x1E5 SWAP2 SWAP1 PUSH2 0x2037 JUMP JUMPDEST PUSH2 0xFF3 JUMP JUMPDEST PUSH1 0x40 MLOAD PUSH2 0x1F7 SWAP2 SWAP1 PUSH2 0x1E0E JUMP JUMPDEST PUSH1 0x40 MLOAD DUP1 SWAP2 SUB SWAP1 RETURN JUMPDEST PUSH2 0x208 PUSH2 0x1075 JUMP JUMPDEST PUSH1 0x40 MLOAD PUSH2 0x215 SWAP2 SWAP1 PUSH2 0x20C3 JUMP JUMPDEST PUSH1 0x40 MLOAD DUP1 SWAP2 SUB SWAP1 RETURN JUMPDEST PUSH2 0x238 PUSH1 0x4 DUP1 CALLDATASIZE SUB DUP2 ADD SWAP1 PUSH2 0x233 SWAP2 SWAP1 PUSH2 0x200A JUMP JUMPDEST PUSH2 0x109B JUMP JUMPDEST PUSH1 0x40 MLOAD PUSH2 0x245 SWAP2 SWAP1 PUSH2 0x1E0E JUMP JUMPDEST PUSH1 0x40 MLOAD DUP1 SWAP2 SUB SWAP1 RETURN JUMPDEST PUSH2 0x256 PUSH2 0x1272 JUMP JUMPDEST PUSH1 0x40 MLOAD PUSH2 0x263 SWAP2 SWAP1 PUSH2 0x20ED JUMP JUMPDEST PUSH1 0x40 MLOAD DUP1 SWAP2 SUB SWAP1 RETURN JUMPDEST PUSH2 0x286 PUSH1 0x4 DUP1 CALLDATASIZE SUB DUP2 ADD SWAP1 PUSH2 0x281 SWAP2 SWAP1 PUSH2 0x1F82 JUMP JUMPDEST PUSH2 0x1298 JUMP JUMPDEST PUSH1 0x40 MLOAD PUSH2 0x293 SWAP2 SWAP1 PUSH2 0x1E0E JUMP JUMPDEST PUSH1 0x40 MLOAD DUP1 SWAP2 SUB SWAP1 RETURN JUMPDEST PUSH2 0x2A4 PUSH2 0x1361 JUMP JUMPDEST STOP JUMPDEST PUSH2 0x2AE PUSH2 0x13E9 JUMP JUMPDEST PUSH1 0x40 MLOAD PUSH2 0x2BB SWAP2 SWAP1 PUSH2 0x20ED JUMP JUMPDEST PUSH1 0x40 MLOAD DUP1 SWAP2 SUB SWAP1 RETURN JUMPDEST PUSH2 0x2CC PUSH2 0x1412 JUMP JUMPDEST PUSH1 0x40 MLOAD PUSH2 0x2D9 SWAP2 SWAP1 PUSH2 0x20ED JUMP JUMPDEST PUSH1 0x40 MLOAD DUP1 SWAP2 SUB SWAP1 RETURN JUMPDEST PUSH2 0x2FC PUSH1 0x4 DUP1 CALLDATASIZE SUB DUP2 ADD SWAP1 PUSH2 0x2F7 SWAP2 SWAP1 PUSH2 0x2146 JUMP JUMPDEST PUSH2 0x1438 JUMP JUMPDEST STOP JUMPDEST PUSH2 0x318 PUSH1 0x4 DUP1 CALLDATASIZE SUB DUP2 ADD SWAP1 PUSH2 0x313 SWAP2 SWAP1 PUSH2 0x2173 JUMP JUMPDEST PUSH2 0x14F8 JUMP JUMPDEST PUSH1 0x40 MLOAD PUSH2 0x325 SWAP2 SWAP1 PUSH2 0x1E0E JUMP JUMPDEST PUSH1 0x40 MLOAD DUP1 SWAP2 SUB SWAP1 RETURN JUMPDEST PUSH2 0x348 PUSH1 0x4 DUP1 CALLDATASIZE SUB DUP2 ADD SWAP1 PUSH2 0x343 SWAP2 SWAP1 PUSH2 0x2173 JUMP JUMPDEST PUSH2 0x1638 JUMP JUMPDEST PUSH1 0x40 MLOAD PUSH2 0x355 SWAP2 SWAP1 PUSH2 0x1E0E JUMP JUMPDEST PUSH1 0x40 MLOAD DUP1 SWAP2 SUB SWAP1 RETURN JUMPDEST PUSH2 0x378 PUSH1 0x4 DUP1 CALLDATASIZE SUB DUP2 ADD SWAP1 PUSH2 0x373 SWAP2 SWAP1 PUSH2 0x2218 JUMP JUMPDEST PUSH2 0x18D9 JUMP JUMPDEST PUSH1 0x40 MLOAD PUSH2 0x385 SWAP2 SWAP1 PUSH2 0x1E0E JUMP JUMPDEST PUSH1 0x40 MLOAD DUP1 SWAP2 SUB SWAP1 RETURN JUMPDEST PUSH2 0x3A8 PUSH1 0x4 DUP1 CALLDATASIZE SUB DUP2 ADD SWAP1 PUSH2 0x3A3 SWAP2 SWAP1 PUSH2 0x200A JUMP JUMPDEST PUSH2 0x196C JUMP JUMPDEST STOP JUMPDEST PUSH1 0x0 DUP1 DUP5 PUSH20 0xFFFFFFFFFFFFFFFFFFFFFFFFFFFFFFFFFFFFFFFF AND PUSH4 0x70A08231 DUP5 PUSH1 0x40 MLOAD DUP3 PUSH4 0xFFFFFFFF AND PUSH1 0xE0 SHL DUP2 MSTORE PUSH1 0x4 ADD PUSH2 0x3E6 SWAP2 SWAP1 PUSH2 0x20ED JUMP JUMPDEST PUSH1 0x20 PUSH1 0x40 MLOAD DUP1 DUP4 SUB DUP2 DUP7 GAS STATICCALL ISZERO DUP1 ISZERO PUSH2 0x403 JUMPI RETURNDATASIZE PUSH1 0x0 DUP1 RETURNDATACOPY RETURNDATASIZE PUSH1 0x0 REVERT JUMPDEST POP POP POP POP PUSH1 0x40 MLOAD RETURNDATASIZE PUSH1 0x1F NOT PUSH1 0x1F DUP3 ADD AND DUP3 ADD DUP1 PUSH1 0x40 MSTORE POP DUP2 ADD SWAP1 PUSH2 0x427 SWAP2 SWAP1 PUSH2 0x226D JUMP JUMPDEST SWAP1 POP PUSH1 0x0 PUSH1 0x1 DUP6 SUB PUSH2 0x443 JUMPI PUSH2 0x43C DUP7 PUSH2 0x7F8 JUMP JUMPDEST SWAP1 POP PUSH2 0x4BE JUMP JUMPDEST PUSH1 0x0 DUP6 SUB PUSH2 0x4BD JUMPI DUP6 PUSH20 0xFFFFFFFFFFFFFFFFFFFFFFFFFFFFFFFFFFFFFFFF AND PUSH1 0x1 PUSH1 0x0 SWAP1 SLOAD SWAP1 PUSH2 0x100 EXP SWAP1 DIV PUSH20 0xFFFFFFFFFFFFFFFFFFFFFFFFFFFFFFFFFFFFFFFF AND PUSH20 0xFFFFFFFFFFFFFFFFFFFFFFFFFFFFFFFFFFFFFFFF AND SUB PUSH2 0x4B0 JUMPI PUSH2 0x4A9 DUP7 PUSH2 0x109B JUMP JUMPDEST SWAP1 POP PUSH2 0x4BC JUMP JUMPDEST PUSH2 0x4B9 DUP7 PUSH2 0x5B0 JUMP JUMPDEST SWAP1 POP JUMPDEST JUMPDEST JUMPDEST PUSH2 0x4DE PUSH1 0x3 SLOAD DUP3 DUP5 PUSH2 0x4D0 SWAP2 SWAP1 PUSH2 0x22C9 JUMP JUMPDEST PUSH2 0x1A63 SWAP1 SWAP2 SWAP1 PUSH4 0xFFFFFFFF AND JUMP JUMPDEST SWAP3 POP POP POP SWAP4 SWAP3 POP POP POP JUMP JUMPDEST PUSH1 0x0 DUP1 PUSH1 0x0 SWAP1 POP PUSH1 0x0 JUMPDEST DUP4 MLOAD DUP2 LT ISZERO PUSH2 0x5A5 JUMPI PUSH1 0x1 PUSH2 0x521 DUP6 DUP4 DUP2 MLOAD DUP2 LT PUSH2 0x514 JUMPI PUSH2 0x513 PUSH2 0x2323 JUMP JUMPDEST JUMPDEST PUSH1 0x20 MUL PUSH1 0x20 ADD ADD MLOAD PUSH2 0xFF3 JUMP JUMPDEST SUB PUSH2 0x55E JUMPI PUSH2 0x54C DUP5 DUP3 DUP2 MLOAD DUP2 LT PUSH2 0x53C JUMPI PUSH2 0x53B PUSH2 0x2323 JUMP JUMPDEST JUMPDEST PUSH1 0x20 MUL PUSH1 0x20 ADD ADD MLOAD PUSH1 0x1 DUP8 PUSH2 0x3AA JUMP JUMPDEST DUP3 PUSH2 0x557 SWAP2 SWAP1 PUSH2 0x2352 JUMP JUMPDEST SWAP2 POP PUSH2 0x592 JUMP JUMPDEST PUSH2 0x584 DUP5 DUP3 DUP2 MLOAD DUP2 LT PUSH2 0x574 JUMPI PUSH2 0x573 PUSH2 0x2323 JUMP JUMPDEST JUMPDEST PUSH1 0x20 MUL PUSH1 0x20 ADD ADD MLOAD PUSH1 0x0 DUP8 PUSH2 0x3AA JUMP JUMPDEST DUP3 PUSH2 0x58F SWAP2 SWAP1 PUSH2 0x2352 JUMP JUMPDEST SWAP2 POP JUMPDEST DUP1 DUP1 PUSH2 0x59D SWAP1 PUSH2 0x23A8 JUMP JUMPDEST SWAP2 POP POP PUSH2 0x4F3 JUMP JUMPDEST POP DUP1 SWAP2 POP POP SWAP3 SWAP2 POP POP JUMP JUMPDEST PUSH1 0x0 DUP1 PUSH1 0x3 PUSH8 0xFFFFFFFFFFFFFFFF DUP2 GT ISZERO PUSH2 0x5CE JUMPI PUSH2 0x5CD PUSH2 0x1E3F JUMP JUMPDEST JUMPDEST PUSH1 0x40 MLOAD SWAP1 DUP1 DUP3 MSTORE DUP1 PUSH1 0x20 MUL PUSH1 0x20 ADD DUP3 ADD PUSH1 0x40 MSTORE DUP1 ISZERO PUSH2 0x5FC JUMPI DUP2 PUSH1 0x20 ADD PUSH1 0x20 DUP3 MUL DUP1 CALLDATASIZE DUP4 CALLDATACOPY DUP1 DUP3 ADD SWAP2 POP POP SWAP1 POP JUMPDEST POP SWAP1 POP DUP3 DUP2 PUSH1 0x0 DUP2 MLOAD DUP2 LT PUSH2 0x614 JUMPI PUSH2 0x613 PUSH2 0x2323 JUMP JUMPDEST JUMPDEST PUSH1 0x20 MUL PUSH1 0x20 ADD ADD SWAP1 PUSH20 0xFFFFFFFFFFFFFFFFFFFFFFFFFFFFFFFFFFFFFFFF AND SWAP1 DUP2 PUSH20 0xFFFFFFFFFFFFFFFFFFFFFFFFFFFFFFFFFFFFFFFF AND DUP2 MSTORE POP POP PUSH1 0x1 PUSH1 0x0 SWAP1 SLOAD SWAP1 PUSH2 0x100 EXP SWAP1 DIV PUSH20 0xFFFFFFFFFFFFFFFFFFFFFFFFFFFFFFFFFFFFFFFF AND DUP2 PUSH1 0x1 DUP2 MLOAD DUP2 LT PUSH2 0x685 JUMPI PUSH2 0x684 PUSH2 0x2323 JUMP JUMPDEST JUMPDEST PUSH1 0x20 MUL PUSH1 0x20 ADD ADD SWAP1 PUSH20 0xFFFFFFFFFFFFFFFFFFFFFFFFFFFFFFFFFFFFFFFF AND SWAP1 DUP2 PUSH20 0xFFFFFFFFFFFFFFFFFFFFFFFFFFFFFFFFFFFFFFFF AND DUP2 MSTORE POP POP PUSH1 0x2 PUSH1 0x0 SWAP1 SLOAD SWAP1 PUSH2 0x100 EXP SWAP1 DIV PUSH20 0xFFFFFFFFFFFFFFFFFFFFFFFFFFFFFFFFFFFFFFFF AND DUP2 PUSH1 0x2 DUP2 MLOAD DUP2 LT PUSH2 0x6F6 JUMPI PUSH2 0x6F5 PUSH2 0x2323 JUMP JUMPDEST JUMPDEST PUSH1 0x20 MUL PUSH1 0x20 ADD ADD SWAP1 PUSH20 0xFFFFFFFFFFFFFFFFFFFFFFFFFFFFFFFFFFFFFFFF AND SWAP1 DUP2 PUSH20 0xFFFFFFFFFFFFFFFFFFFFFFFFFFFFFFFFFFFFFFFF AND DUP2 MSTORE POP POP PUSH1 0x4 PUSH1 0x0 SWAP1 SLOAD SWAP1 PUSH2 0x100 EXP SWAP1 DIV PUSH20 0xFFFFFFFFFFFFFFFFFFFFFFFFFFFFFFFFFFFFFFFF AND PUSH20 0xFFFFFFFFFFFFFFFFFFFFFFFFFFFFFFFFFFFFFFFF AND PUSH4 0xD06CA61F PUSH1 0x3 SLOAD DUP4 PUSH1 0x40 MLOAD DUP4 PUSH4 0xFFFFFFFF AND PUSH1 0xE0 SHL DUP2 MSTORE PUSH1 0x4 ADD PUSH2 0x78F SWAP3 SWAP2 SWAP1 PUSH2 0x24AE JUMP JUMPDEST PUSH1 0x0 PUSH1 0x40 MLOAD DUP1 DUP4 SUB DUP2 DUP7 GAS STATICCALL ISZERO DUP1 ISZERO PUSH2 0x7AC JUMPI RETURNDATASIZE PUSH1 0x0 DUP1 RETURNDATACOPY RETURNDATASIZE PUSH1 0x0 REVERT JUMPDEST POP POP POP POP PUSH1 0x40 MLOAD RETURNDATASIZE PUSH1 0x0 DUP3 RETURNDATACOPY RETURNDATASIZE PUSH1 0x1F NOT PUSH1 0x1F DUP3 ADD AND DUP3 ADD DUP1 PUSH1 0x40 MSTORE POP DUP2 ADD SWAP1 PUSH2 0x7D5 SWAP2 SWAP1 PUSH2 0x25A1 JUMP JUMPDEST PUSH1 0x2 DUP2 MLOAD DUP2 LT PUSH2 0x7E8 JUMPI PUSH2 0x7E7 PUSH2 0x2323 JUMP JUMPDEST JUMPDEST PUSH1 0x20 MUL PUSH1 0x20 ADD ADD MLOAD SWAP2 POP POP SWAP2 SWAP1 POP JUMP JUMPDEST PUSH1 0x0 DUP1 PUSH1 0x0 DUP4 PUSH20 0xFFFFFFFFFFFFFFFFFFFFFFFFFFFFFFFFFFFFFFFF AND PUSH4 0xDFE1681 PUSH1 0x40 MLOAD DUP2 PUSH4 0xFFFFFFFF AND PUSH1 0xE0 SHL DUP2 MSTORE PUSH1 0x4 ADD PUSH1 0x20 PUSH1 0x40 MLOAD DUP1 DUP4 SUB DUP2 DUP7 GAS STATICCALL ISZERO DUP1 ISZERO PUSH2 0x848 JUMPI RETURNDATASIZE PUSH1 0x0 DUP1 RETURNDATACOPY RETURNDATASIZE PUSH1 0x0 REVERT JUMPDEST POP POP POP POP PUSH1 0x40 MLOAD RETURNDATASIZE PUSH1 0x1F NOT PUSH1 0x1F DUP3 ADD AND DUP3 ADD DUP1 PUSH1 0x40 MSTORE POP DUP2 ADD SWAP1 PUSH2 0x86C SWAP2 SWAP1 PUSH2 0x2628 JUMP JUMPDEST PUSH20 0xFFFFFFFFFFFFFFFFFFFFFFFFFFFFFFFFFFFFFFFF AND PUSH1 0x1 PUSH1 0x0 SWAP1 SLOAD SWAP1 PUSH2 0x100 EXP SWAP1 DIV PUSH20 0xFFFFFFFFFFFFFFFFFFFFFFFFFFFFFFFFFFFFFFFF AND PUSH20 0xFFFFFFFFFFFFFFFFFFFFFFFFFFFFFFFFFFFFFFFF AND SUB PUSH2 0xA37 JUMPI PUSH2 0xA30 PUSH2 0x93A DUP6 PUSH20 0xFFFFFFFFFFFFFFFFFFFFFFFFFFFFFFFFFFFFFFFF AND PUSH4 0xDFE1681 PUSH1 0x40 MLOAD DUP2 PUSH4 0xFFFFFFFF AND PUSH1 0xE0 SHL DUP2 MSTORE PUSH1 0x4 ADD PUSH1 0x20 PUSH1 0x40 MLOAD DUP1 DUP4 SUB DUP2 DUP7 GAS STATICCALL ISZERO DUP1 ISZERO PUSH2 0x911 JUMPI RETURNDATASIZE PUSH1 0x0 DUP1 RETURNDATACOPY RETURNDATASIZE PUSH1 0x0 REVERT JUMPDEST POP POP POP POP PUSH1 0x40 MLOAD RETURNDATASIZE PUSH1 0x1F NOT PUSH1 0x1F DUP3 ADD AND DUP3 ADD DUP1 PUSH1 0x40 MSTORE POP DUP2 ADD SWAP1 PUSH2 0x935 SWAP2 SWAP1 PUSH2 0x2628 JUMP JUMPDEST PUSH2 0x109B JUMP JUMPDEST DUP6 PUSH20 0xFFFFFFFFFFFFFFFFFFFFFFFFFFFFFFFFFFFFFFFF AND PUSH4 0xDFE1681 PUSH1 0x40 MLOAD DUP2 PUSH4 0xFFFFFFFF AND PUSH1 0xE0 SHL DUP2 MSTORE PUSH1 0x4 ADD PUSH1 0x20 PUSH1 0x40 MLOAD DUP1 DUP4 SUB DUP2 DUP7 GAS STATICCALL ISZERO DUP1 ISZERO PUSH2 0x985 JUMPI RETURNDATASIZE PUSH1 0x0 DUP1 RETURNDATACOPY RETURNDATASIZE PUSH1 0x0 REVERT JUMPDEST POP POP POP POP PUSH1 0x40 MLOAD RETURNDATASIZE PUSH1 0x1F NOT PUSH1 0x1F DUP3 ADD AND DUP3 ADD DUP1 PUSH1 0x40 MSTORE POP DUP2 ADD SWAP1 PUSH2 0x9A9 SWAP2 SWAP1 PUSH2 0x2628 JUMP JUMPDEST PUSH20 0xFFFFFFFFFFFFFFFFFFFFFFFFFFFFFFFFFFFFFFFF AND PUSH4 0x70A08231 DUP8 PUSH1 0x40 MLOAD DUP3 PUSH4 0xFFFFFFFF AND PUSH1 0xE0 SHL DUP2 MSTORE PUSH1 0x4 ADD PUSH2 0x9E1 SWAP2 SWAP1 PUSH2 0x20ED JUMP JUMPDEST PUSH1 0x20 PUSH1 0x40 MLOAD DUP1 DUP4 SUB DUP2 DUP7 GAS STATICCALL ISZERO DUP1 ISZERO PUSH2 0x9FE JUMPI RETURNDATASIZE PUSH1 0x0 DUP1 RETURNDATACOPY RETURNDATASIZE PUSH1 0x0 REVERT JUMPDEST POP POP POP POP PUSH1 0x40 MLOAD RETURNDATASIZE PUSH1 0x1F NOT PUSH1 0x1F DUP3 ADD AND DUP3 ADD DUP1 PUSH1 0x40 MSTORE POP DUP2 ADD SWAP1 PUSH2 0xA22 SWAP2 SWAP1 PUSH2 0x226D JUMP JUMPDEST PUSH2 0x1AAD SWAP1 SWAP2 SWAP1 PUSH4 0xFFFFFFFF AND JUMP JUMPDEST SWAP2 POP PUSH2 0xBAA JUMP JUMPDEST PUSH2 0xBA7 PUSH2 0xAB1 DUP6 PUSH20 0xFFFFFFFFFFFFFFFFFFFFFFFFFFFFFFFFFFFFFFFF AND PUSH4 0xDFE1681 PUSH1 0x40 MLOAD DUP2 PUSH4 0xFFFFFFFF AND PUSH1 0xE0 SHL DUP2 MSTORE PUSH1 0x4 ADD PUSH1 0x20 PUSH1 0x40 MLOAD DUP1 DUP4 SUB DUP2 DUP7 GAS STATICCALL ISZERO DUP1 ISZERO PUSH2 0xA88 JUMPI RETURNDATASIZE PUSH1 0x0 DUP1 RETURNDATACOPY RETURNDATASIZE PUSH1 0x0 REVERT JUMPDEST POP POP POP POP PUSH1 0x40 MLOAD RETURNDATASIZE PUSH1 0x1F NOT PUSH1 0x1F DUP3 ADD AND DUP3 ADD DUP1 PUSH1 0x40 MSTORE POP DUP2 ADD SWAP1 PUSH2 0xAAC SWAP2 SWAP1 PUSH2 0x2628 JUMP JUMPDEST PUSH2 0x5B0 JUMP JUMPDEST DUP6 PUSH20 0xFFFFFFFFFFFFFFFFFFFFFFFFFFFFFFFFFFFFFFFF AND PUSH4 0xDFE1681 PUSH1 0x40 MLOAD DUP2 PUSH4 0xFFFFFFFF AND PUSH1 0xE0 SHL DUP2 MSTORE PUSH1 0x4 ADD PUSH1 0x20 PUSH1 0x40 MLOAD DUP1 DUP4 SUB DUP2 DUP7 GAS STATICCALL ISZERO DUP1 ISZERO PUSH2 0xAFC JUMPI RETURNDATASIZE PUSH1 0x0 DUP1 RETURNDATACOPY RETURNDATASIZE PUSH1 0x0 REVERT JUMPDEST POP POP POP POP PUSH1 0x40 MLOAD RETURNDATASIZE PUSH1 0x1F NOT PUSH1 0x1F DUP3 ADD AND DUP3 ADD DUP1 PUSH1 0x40 MSTORE POP DUP2 ADD SWAP1 PUSH2 0xB20 SWAP2 SWAP1 PUSH2 0x2628 JUMP JUMPDEST PUSH20 0xFFFFFFFFFFFFFFFFFFFFFFFFFFFFFFFFFFFFFFFF AND PUSH4 0x70A08231 DUP8 PUSH1 0x40 MLOAD DUP3 PUSH4 0xFFFFFFFF AND PUSH1 0xE0 SHL DUP2 MSTORE PUSH1 0x4 ADD PUSH2 0xB58 SWAP2 SWAP1 PUSH2 0x20ED JUMP JUMPDEST PUSH1 0x20 PUSH1 0x40 MLOAD DUP1 DUP4 SUB DUP2 DUP7 GAS STATICCALL ISZERO DUP1 ISZERO PUSH2 0xB75 JUMPI RETURNDATASIZE PUSH1 0x0 DUP1 RETURNDATACOPY RETURNDATASIZE PUSH1 0x0 REVERT JUMPDEST POP POP POP POP PUSH1 0x40 MLOAD RETURNDATASIZE PUSH1 0x1F NOT PUSH1 0x1F DUP3 ADD AND DUP3 ADD DUP1 PUSH1 0x40 MSTORE POP DUP2 ADD SWAP1 PUSH2 0xB99 SWAP2 SWAP1 PUSH2 0x226D JUMP JUMPDEST PUSH2 0x1AAD SWAP1 SWAP2 SWAP1 PUSH4 0xFFFFFFFF AND JUMP JUMPDEST SWAP2 POP JUMPDEST DUP4 PUSH20 0xFFFFFFFFFFFFFFFFFFFFFFFFFFFFFFFFFFFFFFFF AND PUSH4 0xD21220A7 PUSH1 0x40 MLOAD DUP2 PUSH4 0xFFFFFFFF AND PUSH1 0xE0 SHL DUP2 MSTORE PUSH1 0x4 ADD PUSH1 0x20 PUSH1 0x40 MLOAD DUP1 DUP4 SUB DUP2 DUP7 GAS STATICCALL ISZERO DUP1 ISZERO PUSH2 0xBF5 JUMPI RETURNDATASIZE PUSH1 0x0 DUP1 RETURNDATACOPY RETURNDATASIZE PUSH1 0x0 REVERT JUMPDEST POP POP POP POP PUSH1 0x40 MLOAD RETURNDATASIZE PUSH1 0x1F NOT PUSH1 0x1F DUP3 ADD AND DUP3 ADD DUP1 PUSH1 0x40 MSTORE POP DUP2 ADD SWAP1 PUSH2 0xC19 SWAP2 SWAP1 PUSH2 0x2628 JUMP JUMPDEST PUSH20 0xFFFFFFFFFFFFFFFFFFFFFFFFFFFFFFFFFFFFFFFF AND PUSH1 0x1 PUSH1 0x0 SWAP1 SLOAD SWAP1 PUSH2 0x100 EXP SWAP1 DIV PUSH20 0xFFFFFFFFFFFFFFFFFFFFFFFFFFFFFFFFFFFFFFFF AND PUSH20 0xFFFFFFFFFFFFFFFFFFFFFFFFFFFFFFFFFFFFFFFF AND SUB PUSH2 0xDE4 JUMPI PUSH2 0xDDD PUSH2 0xCE7 DUP6 PUSH20 0xFFFFFFFFFFFFFFFFFFFFFFFFFFFFFFFFFFFFFFFF AND PUSH4 0xD21220A7 PUSH1 0x40 MLOAD DUP2 PUSH4 0xFFFFFFFF AND PUSH1 0xE0 SHL DUP2 MSTORE PUSH1 0x4 ADD PUSH1 0x20 PUSH1 0x40 MLOAD DUP1 DUP4 SUB DUP2 DUP7 GAS STATICCALL ISZERO DUP1 ISZERO PUSH2 0xCBE JUMPI RETURNDATASIZE PUSH1 0x0 DUP1 RETURNDATACOPY RETURNDATASIZE PUSH1 0x0 REVERT JUMPDEST POP POP POP POP PUSH1 0x40 MLOAD RETURNDATASIZE PUSH1 0x1F NOT PUSH1 0x1F DUP3 ADD AND DUP3 ADD DUP1 PUSH1 0x40 MSTORE POP DUP2 ADD SWAP1 PUSH2 0xCE2 SWAP2 SWAP1 PUSH2 0x2628 JUMP JUMPDEST PUSH2 0x109B JUMP JUMPDEST DUP6 PUSH20 0xFFFFFFFFFFFFFFFFFFFFFFFFFFFFFFFFFFFFFFFF AND PUSH4 0xD21220A7 PUSH1 0x40 MLOAD DUP2 PUSH4 0xFFFFFFFF AND PUSH1 0xE0 SHL DUP2 MSTORE PUSH1 0x4 ADD PUSH1 0x20 PUSH1 0x40 MLOAD DUP1 DUP4 SUB DUP2 DUP7 GAS STATICCALL ISZERO DUP1 ISZERO PUSH2 0xD32 JUMPI RETURNDATASIZE PUSH1 0x0 DUP1 RETURNDATACOPY RETURNDATASIZE PUSH1 0x0 REVERT JUMPDEST POP POP POP POP PUSH1 0x40 MLOAD RETURNDATASIZE PUSH1 0x1F NOT PUSH1 0x1F DUP3 ADD AND DUP3 ADD DUP1 PUSH1 0x40 MSTORE POP DUP2 ADD SWAP1 PUSH2 0xD56 SWAP2 SWAP1 PUSH2 0x2628 JUMP JUMPDEST PUSH20 0xFFFFFFFFFFFFFFFFFFFFFFFFFFFFFFFFFFFFFFFF AND PUSH4 0x70A08231 DUP8 PUSH1 0x40 MLOAD DUP3 PUSH4 0xFFFFFFFF AND PUSH1 0xE0 SHL DUP2 MSTORE PUSH1 0x4 ADD PUSH2 0xD8E SWAP2 SWAP1 PUSH2 0x20ED JUMP JUMPDEST PUSH1 0x20 PUSH1 0x40 MLOAD DUP1 DUP4 SUB DUP2 DUP7 GAS STATICCALL ISZERO DUP1 ISZERO PUSH2 0xDAB JUMPI RETURNDATASIZE PUSH1 0x0 DUP1 RETURNDATACOPY RETURNDATASIZE PUSH1 0x0 REVERT JUMPDEST POP POP POP POP PUSH1 0x40 MLOAD RETURNDATASIZE PUSH1 0x1F NOT PUSH1 0x1F DUP3 ADD AND DUP3 ADD DUP1 PUSH1 0x40 MSTORE POP DUP2 ADD SWAP1 PUSH2 0xDCF SWAP2 SWAP1 PUSH2 0x226D JUMP JUMPDEST PUSH2 0x1AAD SWAP1 SWAP2 SWAP1 PUSH4 0xFFFFFFFF AND JUMP JUMPDEST SWAP1 POP PUSH2 0xF57 JUMP JUMPDEST PUSH2 0xF54 PUSH2 0xE5E DUP6 PUSH20 0xFFFFFFFFFFFFFFFFFFFFFFFFFFFFFFFFFFFFFFFF AND PUSH4 0xD21220A7 PUSH1 0x40 MLOAD DUP2 PUSH4 0xFFFFFFFF AND PUSH1 0xE0 SHL DUP2 MSTORE PUSH1 0x4 ADD PUSH1 0x20 PUSH1 0x40 MLOAD DUP1 DUP4 SUB DUP2 DUP7 GAS STATICCALL ISZERO DUP1 ISZERO PUSH2 0xE35 JUMPI RETURNDATASIZE PUSH1 0x0 DUP1 RETURNDATACOPY RETURNDATASIZE PUSH1 0x0 REVERT JUMPDEST POP POP POP POP PUSH1 0x40 MLOAD RETURNDATASIZE PUSH1 0x1F NOT PUSH1 0x1F DUP3 ADD AND DUP3 ADD DUP1 PUSH1 0x40 MSTORE POP DUP2 ADD SWAP1 PUSH2 0xE59 SWAP2 SWAP1 PUSH2 0x2628 JUMP JUMPDEST PUSH2 0x5B0 JUMP JUMPDEST DUP6 PUSH20 0xFFFFFFFFFFFFFFFFFFFFFFFFFFFFFFFFFFFFFFFF AND PUSH4 0xD21220A7 PUSH1 0x40 MLOAD DUP2 PUSH4 0xFFFFFFFF AND PUSH1 0xE0 SHL DUP2 MSTORE PUSH1 0x4 ADD PUSH1 0x20 PUSH1 0x40 MLOAD DUP1 DUP4 SUB DUP2 DUP7 GAS STATICCALL ISZERO DUP1 ISZERO PUSH2 0xEA9 JUMPI RETURNDATASIZE PUSH1 0x0 DUP1 RETURNDATACOPY RETURNDATASIZE PUSH1 0x0 REVERT JUMPDEST POP POP POP POP PUSH1 0x40 MLOAD RETURNDATASIZE PUSH1 0x1F NOT PUSH1 0x1F DUP3 ADD AND DUP3 ADD DUP1 PUSH1 0x40 MSTORE POP DUP2 ADD SWAP1 PUSH2 0xECD SWAP2 SWAP1 PUSH2 0x2628 JUMP JUMPDEST PUSH20 0xFFFFFFFFFFFFFFFFFFFFFFFFFFFFFFFFFFFFFFFF AND PUSH4 0x70A08231 DUP8 PUSH1 0x40 MLOAD DUP3 PUSH4 0xFFFFFFFF AND PUSH1 0xE0 SHL DUP2 MSTORE PUSH1 0x4 ADD PUSH2 0xF05 SWAP2 SWAP1 PUSH2 0x20ED JUMP JUMPDEST PUSH1 0x20 PUSH1 0x40 MLOAD DUP1 DUP4 SUB DUP2 DUP7 GAS STATICCALL ISZERO DUP1 ISZERO PUSH2 0xF22 JUMPI RETURNDATASIZE PUSH1 0x0 DUP1 RETURNDATACOPY RETURNDATASIZE PUSH1 0x0 REVERT JUMPDEST POP POP POP POP PUSH1 0x40 MLOAD RETURNDATASIZE PUSH1 0x1F NOT PUSH1 0x1F DUP3 ADD AND DUP3 ADD DUP1 PUSH1 0x40 MSTORE POP DUP2 ADD SWAP1 PUSH2 0xF46 SWAP2 SWAP1 PUSH2 0x226D JUMP JUMPDEST PUSH2 0x1AAD SWAP1 SWAP2 SWAP1 PUSH4 0xFFFFFFFF AND JUMP JUMPDEST SWAP1 POP JUMPDEST PUSH2 0xFEA DUP5 PUSH20 0xFFFFFFFFFFFFFFFFFFFFFFFFFFFFFFFFFFFFFFFF AND PUSH4 0x18160DDD PUSH1 0x40 MLOAD DUP2 PUSH4 0xFFFFFFFF AND PUSH1 0xE0 SHL DUP2 MSTORE PUSH1 0x4 ADD PUSH1 0x20 PUSH1 0x40 MLOAD DUP1 DUP4 SUB DUP2 DUP7 GAS STATICCALL ISZERO DUP1 ISZERO PUSH2 0xFA5 JUMPI RETURNDATASIZE PUSH1 0x0 DUP1 RETURNDATACOPY RETURNDATASIZE PUSH1 0x0 REVERT JUMPDEST POP POP POP POP PUSH1 0x40 MLOAD RETURNDATASIZE PUSH1 0x1F NOT PUSH1 0x1F DUP3 ADD AND DUP3 ADD DUP1 PUSH1 0x40 MSTORE POP DUP2 ADD SWAP1 PUSH2 0xFC9 SWAP2 SWAP1 PUSH2 0x226D JUMP JUMPDEST PUSH2 0xFDC DUP4 DUP6 PUSH2 0x1B27 SWAP1 SWAP2 SWAP1 PUSH4 0xFFFFFFFF AND JUMP JUMPDEST PUSH2 0x1A63 SWAP1 SWAP2 SWAP1 PUSH4 0xFFFFFFFF AND JUMP JUMPDEST SWAP3 POP POP POP SWAP2 SWAP1 POP JUMP JUMPDEST PUSH1 0x0 DUP2 PUSH20 0xFFFFFFFFFFFFFFFFFFFFFFFFFFFFFFFFFFFFFFFF AND PUSH4 0xDFE1681 PUSH1 0x40 MLOAD DUP2 PUSH4 0xFFFFFFFF AND PUSH1 0xE0 SHL DUP2 MSTORE PUSH1 0x4 ADD PUSH1 0x20 PUSH1 0x40 MLOAD DUP1 DUP4 SUB DUP2 DUP7 GAS STATICCALL SWAP3 POP POP POP DUP1 ISZERO PUSH2 0x105D JUMPI POP PUSH1 0x40 MLOAD RETURNDATASIZE PUSH1 0x1F NOT PUSH1 0x1F DUP3 ADD AND DUP3 ADD DUP1 PUSH1 0x40 MSTORE POP DUP2 ADD SWAP1 PUSH2 0x105A SWAP2 SWAP1 PUSH2 0x2628 JUMP JUMPDEST PUSH1 0x1 JUMPDEST PUSH2 0x106A JUMPI PUSH1 0x0 SWAP1 POP PUSH2 0x1070 JUMP JUMPDEST POP PUSH1 0x1 SWAP1 POP JUMPDEST SWAP2 SWAP1 POP JUMP JUMPDEST PUSH1 0x4 PUSH1 0x0 SWAP1 SLOAD SWAP1 PUSH2 0x100 EXP SWAP1 DIV PUSH20 0xFFFFFFFFFFFFFFFFFFFFFFFFFFFFFFFFFFFFFFFF AND DUP2 JUMP JUMPDEST PUSH1 0x0 DUP1 PUSH1 0x2 PUSH8 0xFFFFFFFFFFFFFFFF DUP2 GT ISZERO PUSH2 0x10B9 JUMPI PUSH2 0x10B8 PUSH2 0x1E3F JUMP JUMPDEST JUMPDEST PUSH1 0x40 MLOAD SWAP1 DUP1 DUP3 MSTORE DUP1 PUSH1 0x20 MUL PUSH1 0x20 ADD DUP3 ADD PUSH1 0x40 MSTORE DUP1 ISZERO PUSH2 0x10E7 JUMPI DUP2 PUSH1 0x20 ADD PUSH1 0x20 DUP3 MUL DUP1 CALLDATASIZE DUP4 CALLDATACOPY DUP1 DUP3 ADD SWAP2 POP POP SWAP1 POP JUMPDEST POP SWAP1 POP DUP3 DUP2 PUSH1 0x0 DUP2 MLOAD DUP2 LT PUSH2 0x10FF JUMPI PUSH2 0x10FE PUSH2 0x2323 JUMP JUMPDEST JUMPDEST PUSH1 0x20 MUL PUSH1 0x20 ADD ADD SWAP1 PUSH20 0xFFFFFFFFFFFFFFFFFFFFFFFFFFFFFFFFFFFFFFFF AND SWAP1 DUP2 PUSH20 0xFFFFFFFFFFFFFFFFFFFFFFFFFFFFFFFFFFFFFFFF AND DUP2 MSTORE POP POP PUSH1 0x2 PUSH1 0x0 SWAP1 SLOAD SWAP1 PUSH2 0x100 EXP SWAP1 DIV PUSH20 0xFFFFFFFFFFFFFFFFFFFFFFFFFFFFFFFFFFFFFFFF AND DUP2 PUSH1 0x1 DUP2 MLOAD DUP2 LT PUSH2 0x1170 JUMPI PUSH2 0x116F PUSH2 0x2323 JUMP JUMPDEST JUMPDEST PUSH1 0x20 MUL PUSH1 0x20 ADD ADD SWAP1 PUSH20 0xFFFFFFFFFFFFFFFFFFFFFFFFFFFFFFFFFFFFFFFF AND SWAP1 DUP2 PUSH20 0xFFFFFFFFFFFFFFFFFFFFFFFFFFFFFFFFFFFFFFFF AND DUP2 MSTORE POP POP PUSH1 0x4 PUSH1 0x0 SWAP1 SLOAD SWAP1 PUSH2 0x100 EXP SWAP1 DIV PUSH20 0xFFFFFFFFFFFFFFFFFFFFFFFFFFFFFFFFFFFFFFFF AND PUSH20 0xFFFFFFFFFFFFFFFFFFFFFFFFFFFFFFFFFFFFFFFF AND PUSH4 0xD06CA61F PUSH1 0x3 SLOAD DUP4 PUSH1 0x40 MLOAD DUP4 PUSH4 0xFFFFFFFF AND PUSH1 0xE0 SHL DUP2 MSTORE PUSH1 0x4 ADD PUSH2 0x1209 SWAP3 SWAP2 SWAP1 PUSH2 0x24AE JUMP JUMPDEST PUSH1 0x0 PUSH1 0x40 MLOAD DUP1 DUP4 SUB DUP2 DUP7 GAS STATICCALL ISZERO DUP1 ISZERO PUSH2 0x1226 JUMPI RETURNDATASIZE PUSH1 0x0 DUP1 RETURNDATACOPY RETURNDATASIZE PUSH1 0x0 REVERT JUMPDEST POP POP POP POP PUSH1 0x40 MLOAD RETURNDATASIZE PUSH1 0x0 DUP3 RETURNDATACOPY RETURNDATASIZE PUSH1 0x1F NOT PUSH1 0x1F DUP3 ADD AND DUP3 ADD DUP1 PUSH1 0x40 MSTORE POP DUP2 ADD SWAP1 PUSH2 0x124F SWAP2 SWAP1 PUSH2 0x25A1 JUMP JUMPDEST PUSH1 0x1 DUP2 MLOAD DUP2 LT PUSH2 0x1262 JUMPI PUSH2 0x1261 PUSH2 0x2323 JUMP JUMPDEST JUMPDEST PUSH1 0x20 MUL PUSH1 0x20 ADD ADD MLOAD SWAP2 POP POP SWAP2 SWAP1 POP JUMP JUMPDEST PUSH1 0x2 PUSH1 0x0 SWAP1 SLOAD SWAP1 PUSH2 0x100 EXP SWAP1 DIV PUSH20 0xFFFFFFFFFFFFFFFFFFFFFFFFFFFFFFFFFFFFFFFF AND DUP2 JUMP JUMPDEST PUSH1 0x0 DUP1 PUSH1 0x0 SWAP1 POP PUSH1 0x0 JUMPDEST DUP4 MLOAD DUP2 LT ISZERO PUSH2 0x1356 JUMPI PUSH1 0x1 PUSH2 0x12D0 DUP6 DUP4 DUP2 MLOAD DUP2 LT PUSH2 0x12C3 JUMPI PUSH2 0x12C2 PUSH2 0x2323 JUMP JUMPDEST JUMPDEST PUSH1 0x20 MUL PUSH1 0x20 ADD ADD MLOAD PUSH2 0xFF3 JUMP JUMPDEST SUB PUSH2 0x130E JUMPI PUSH2 0x12FC DUP2 DUP6 DUP4 DUP2 MLOAD DUP2 LT PUSH2 0x12EC JUMPI PUSH2 0x12EB PUSH2 0x2323 JUMP JUMPDEST JUMPDEST PUSH1 0x20 MUL PUSH1 0x20 ADD ADD MLOAD PUSH1 0x1 DUP9 PUSH2 0x14F8 JUMP JUMPDEST DUP3 PUSH2 0x1307 SWAP2 SWAP1 PUSH2 0x2352 JUMP JUMPDEST SWAP2 POP PUSH2 0x1343 JUMP JUMPDEST PUSH2 0x1335 DUP2 DUP6 DUP4 DUP2 MLOAD DUP2 LT PUSH2 0x1325 JUMPI PUSH2 0x1324 PUSH2 0x2323 JUMP JUMPDEST JUMPDEST PUSH1 0x20 MUL PUSH1 0x20 ADD ADD MLOAD PUSH1 0x0 DUP9 PUSH2 0x14F8 JUMP JUMPDEST DUP3 PUSH2 0x1340 SWAP2 SWAP1 PUSH2 0x2352 JUMP JUMPDEST SWAP2 POP JUMPDEST DUP1 DUP1 PUSH2 0x134E SWAP1 PUSH2 0x23A8 JUMP JUMPDEST SWAP2 POP POP PUSH2 0x12A2 JUMP JUMPDEST POP DUP1 SWAP2 POP POP SWAP3 SWAP2 POP POP JUMP JUMPDEST PUSH2 0x1369 PUSH2 0x1B85 JUMP JUMPDEST PUSH20 0xFFFFFFFFFFFFFFFFFFFFFFFFFFFFFFFFFFFFFFFF AND PUSH2 0x1387 PUSH2 0x13E9 JUMP JUMPDEST PUSH20 0xFFFFFFFFFFFFFFFFFFFFFFFFFFFFFFFFFFFFFFFF AND EQ PUSH2 0x13DD JUMPI PUSH1 0x40 MLOAD PUSH32 0x8C379A000000000000000000000000000000000000000000000000000000000 DUP2 MSTORE PUSH1 0x4 ADD PUSH2 0x13D4 SWAP1 PUSH2 0x26B2 JUMP JUMPDEST PUSH1 0x40 MLOAD DUP1 SWAP2 SUB SWAP1 REVERT JUMPDEST PUSH2 0x13E7 PUSH1 0x0 PUSH2 0x1B8D JUMP JUMPDEST JUMP JUMPDEST PUSH1 0x0 DUP1 PUSH1 0x0 SWAP1 SLOAD SWAP1 PUSH2 0x100 EXP SWAP1 DIV PUSH20 0xFFFFFFFFFFFFFFFFFFFFFFFFFFFFFFFFFFFFFFFF AND SWAP1 POP SWAP1 JUMP JUMPDEST PUSH1 0x1 PUSH1 0x0 SWAP1 SLOAD SWAP1 PUSH2 0x100 EXP SWAP1 DIV PUSH20 0xFFFFFFFFFFFFFFFFFFFFFFFFFFFFFFFFFFFFFFFF AND DUP2 JUMP JUMPDEST PUSH2 0x1440 PUSH2 0x1B85 JUMP JUMPDEST PUSH20 0xFFFFFFFFFFFFFFFFFFFFFFFFFFFFFFFFFFFFFFFF AND PUSH2 0x145E PUSH2 0x13E9 JUMP JUMPDEST PUSH20 0xFFFFFFFFFFFFFFFFFFFFFFFFFFFFFFFFFFFFFFFF AND EQ PUSH2 0x14B4 JUMPI PUSH1 0x40 MLOAD PUSH32 0x8C379A000000000000000000000000000000000000000000000000000000000 DUP2 MSTORE PUSH1 0x4 ADD PUSH2 0x14AB SWAP1 PUSH2 0x26B2 JUMP JUMPDEST PUSH1 0x40 MLOAD DUP1 SWAP2 SUB SWAP1 REVERT JUMPDEST DUP1 PUSH1 0x4 PUSH1 0x0 PUSH2 0x100 EXP DUP2 SLOAD DUP2 PUSH20 0xFFFFFFFFFFFFFFFFFFFFFFFFFFFFFFFFFFFFFFFF MUL NOT AND SWAP1 DUP4 PUSH20 0xFFFFFFFFFFFFFFFFFFFFFFFFFFFFFFFFFFFFFFFF AND MUL OR SWAP1 SSTORE POP POP JUMP JUMPDEST PUSH1 0x0 DUP1 DUP3 PUSH20 0xFFFFFFFFFFFFFFFFFFFFFFFFFFFFFFFFFFFFFFFF AND PUSH4 0x6A6D964E DUP8 PUSH1 0x40 MLOAD DUP3 PUSH4 0xFFFFFFFF AND PUSH1 0xE0 SHL DUP2 MSTORE PUSH1 0x4 ADD PUSH2 0x1534 SWAP2 SWAP1 PUSH2 0x1E0E JUMP JUMPDEST PUSH1 0x20 PUSH1 0x40 MLOAD DUP1 DUP4 SUB DUP2 DUP7 GAS STATICCALL ISZERO DUP1 ISZERO PUSH2 0x1551 JUMPI RETURNDATASIZE PUSH1 0x0 DUP1 RETURNDATACOPY RETURNDATASIZE PUSH1 0x0 REVERT JUMPDEST POP POP POP POP PUSH1 0x40 MLOAD RETURNDATASIZE PUSH1 0x1F NOT PUSH1 0x1F DUP3 ADD AND DUP3 ADD DUP1 PUSH1 0x40 MSTORE POP DUP2 ADD SWAP1 PUSH2 0x1575 SWAP2 SWAP1 PUSH2 0x226D JUMP JUMPDEST SWAP1 POP PUSH1 0x0 PUSH1 0x1 DUP6 SUB PUSH2 0x1591 JUMPI PUSH2 0x158A DUP7 PUSH2 0x7F8 JUMP JUMPDEST SWAP1 POP PUSH2 0x160C JUMP JUMPDEST PUSH1 0x0 DUP6 SUB PUSH2 0x160B JUMPI DUP6 PUSH20 0xFFFFFFFFFFFFFFFFFFFFFFFFFFFFFFFFFFFFFFFF AND PUSH1 0x1 PUSH1 0x0 SWAP1 SLOAD SWAP1 PUSH2 0x100 EXP SWAP1 DIV PUSH20 0xFFFFFFFFFFFFFFFFFFFFFFFFFFFFFFFFFFFFFFFF AND PUSH20 0xFFFFFFFFFFFFFFFFFFFFFFFFFFFFFFFFFFFFFFFF AND SUB PUSH2 0x15FE JUMPI PUSH2 0x15F7 DUP7 PUSH2 0x109B JUMP JUMPDEST SWAP1 POP PUSH2 0x160A JUMP JUMPDEST PUSH2 0x1607 DUP7 PUSH2 0x5B0 JUMP JUMPDEST SWAP1 POP JUMPDEST JUMPDEST JUMPDEST PUSH2 0x162C PUSH1 0x3 SLOAD DUP3 DUP5 PUSH2 0x161E SWAP2 SWAP1 PUSH2 0x22C9 JUMP JUMPDEST PUSH2 0x1A63 SWAP1 SWAP2 SWAP1 PUSH4 0xFFFFFFFF AND JUMP JUMPDEST SWAP3 POP POP POP SWAP5 SWAP4 POP POP POP POP JUMP JUMPDEST PUSH1 0x0 DUP1 DUP3 PUSH20 0xFFFFFFFFFFFFFFFFFFFFFFFFFFFFFFFFFFFFFFFF AND PUSH4 0x1526FE27 DUP8 PUSH1 0x40 MLOAD DUP3 PUSH4 0xFFFFFFFF AND PUSH1 0xE0 SHL DUP2 MSTORE PUSH1 0x4 ADD PUSH2 0x1674 SWAP2 SWAP1 PUSH2 0x1E0E JUMP JUMPDEST PUSH1 0xC0 PUSH1 0x40 MLOAD DUP1 DUP4 SUB DUP2 DUP7 GAS STATICCALL ISZERO DUP1 ISZERO PUSH2 0x1691 JUMPI RETURNDATASIZE PUSH1 0x0 DUP1 RETURNDATACOPY RETURNDATASIZE PUSH1 0x0 REVERT JUMPDEST POP POP POP POP PUSH1 0x40 MLOAD RETURNDATASIZE PUSH1 0x1F NOT PUSH1 0x1F DUP3 ADD AND DUP3 ADD DUP1 PUSH1 0x40 MSTORE POP DUP2 ADD SWAP1 PUSH2 0x16B5 SWAP2 SWAP1 PUSH2 0x27B5 JUMP JUMPDEST SWAP1 POP PUSH1 0x0 PUSH2 0x1752 DUP5 PUSH20 0xFFFFFFFFFFFFFFFFFFFFFFFFFFFFFFFFFFFFFFFF AND PUSH4 0x17CAF6F1 PUSH1 0x40 MLOAD DUP2 PUSH4 0xFFFFFFFF AND PUSH1 0xE0 SHL DUP2 MSTORE PUSH1 0x4 ADD PUSH1 0x20 PUSH1 0x40 MLOAD DUP1 DUP4 SUB DUP2 DUP7 GAS STATICCALL ISZERO DUP1 ISZERO PUSH2 0x1707 JUMPI RETURNDATASIZE PUSH1 0x0 DUP1 RETURNDATACOPY RETURNDATASIZE PUSH1 0x0 REVERT JUMPDEST POP POP POP POP PUSH1 0x40 MLOAD RETURNDATASIZE PUSH1 0x1F NOT PUSH1 0x1F DUP3 ADD AND DUP3 ADD DUP1 PUSH1 0x40 MSTORE POP DUP2 ADD SWAP1 PUSH2 0x172B SWAP2 SWAP1 PUSH2 0x226D JUMP JUMPDEST PUSH2 0x1744 PUSH1 0x3 SLOAD DUP6 PUSH1 0x20 ADD MLOAD PUSH2 0x1AAD SWAP1 SWAP2 SWAP1 PUSH4 0xFFFFFFFF AND JUMP JUMPDEST PUSH2 0x1A63 SWAP1 SWAP2 SWAP1 PUSH4 0xFFFFFFFF AND JUMP JUMPDEST SWAP1 POP PUSH1 0x0 PUSH2 0x17CD DUP6 PUSH20 0xFFFFFFFFFFFFFFFFFFFFFFFFFFFFFFFFFFFFFFFF AND PUSH4 0x141AA0BA PUSH1 0x40 MLOAD DUP2 PUSH4 0xFFFFFFFF AND PUSH1 0xE0 SHL DUP2 MSTORE PUSH1 0x4 ADD PUSH1 0x20 PUSH1 0x40 MLOAD DUP1 DUP4 SUB DUP2 DUP7 GAS STATICCALL ISZERO DUP1 ISZERO PUSH2 0x17A4 JUMPI RETURNDATASIZE PUSH1 0x0 DUP1 RETURNDATACOPY RETURNDATASIZE PUSH1 0x0 REVERT JUMPDEST POP POP POP POP PUSH1 0x40 MLOAD RETURNDATASIZE PUSH1 0x1F NOT PUSH1 0x1F DUP3 ADD AND DUP3 ADD DUP1 PUSH1 0x40 MSTORE POP DUP2 ADD SWAP1 PUSH2 0x17C8 SWAP2 SWAP1 PUSH2 0x27F7 JUMP JUMPDEST PUSH2 0x5B0 JUMP JUMPDEST SWAP1 POP PUSH1 0x0 PUSH2 0x1854 DUP7 PUSH20 0xFFFFFFFFFFFFFFFFFFFFFFFFFFFFFFFFFFFFFFFF AND PUSH4 0xA1EEF821 PUSH1 0x40 MLOAD DUP2 PUSH4 0xFFFFFFFF AND PUSH1 0xE0 SHL DUP2 MSTORE PUSH1 0x4 ADD PUSH1 0x20 PUSH1 0x40 MLOAD DUP1 DUP4 SUB DUP2 DUP7 GAS STATICCALL ISZERO DUP1 ISZERO PUSH2 0x181F JUMPI RETURNDATASIZE PUSH1 0x0 DUP1 RETURNDATACOPY RETURNDATASIZE PUSH1 0x0 REVERT JUMPDEST POP POP POP POP PUSH1 0x40 MLOAD RETURNDATASIZE PUSH1 0x1F NOT PUSH1 0x1F DUP3 ADD AND DUP3 ADD DUP1 PUSH1 0x40 MSTORE POP DUP2 ADD SWAP1 PUSH2 0x1843 SWAP2 SWAP1 PUSH2 0x226D JUMP JUMPDEST PUSH1 0x5 SLOAD PUSH2 0x1AAD SWAP1 SWAP2 SWAP1 PUSH4 0xFFFFFFFF AND JUMP JUMPDEST SWAP1 POP PUSH1 0x0 PUSH2 0x187F PUSH1 0x3 SLOAD PUSH2 0x1871 DUP7 DUP6 PUSH2 0x1AAD SWAP1 SWAP2 SWAP1 PUSH4 0xFFFFFFFF AND JUMP JUMPDEST PUSH2 0x1A63 SWAP1 SWAP2 SWAP1 PUSH4 0xFFFFFFFF AND JUMP JUMPDEST SWAP1 POP PUSH1 0x0 PUSH2 0x188F DUP12 DUP12 DUP12 DUP12 PUSH2 0x14F8 JUMP JUMPDEST SWAP1 POP PUSH2 0x18C9 PUSH1 0x64 PUSH2 0x18BB DUP4 PUSH2 0x18AD DUP9 DUP8 PUSH2 0x1AAD SWAP1 SWAP2 SWAP1 PUSH4 0xFFFFFFFF AND JUMP JUMPDEST PUSH2 0x1A63 SWAP1 SWAP2 SWAP1 PUSH4 0xFFFFFFFF AND JUMP JUMPDEST PUSH2 0x1AAD SWAP1 SWAP2 SWAP1 PUSH4 0xFFFFFFFF AND JUMP JUMPDEST SWAP7 POP POP POP POP POP POP POP SWAP5 SWAP4 POP POP POP POP JUMP JUMPDEST PUSH1 0x0 DUP1 DUP3 PUSH20 0xFFFFFFFFFFFFFFFFFFFFFFFFFFFFFFFFFFFFFFFF AND PUSH4 0x1526FE27 DUP6 PUSH1 0x40 MLOAD DUP3 PUSH4 0xFFFFFFFF AND PUSH1 0xE0 SHL DUP2 MSTORE PUSH1 0x4 ADD PUSH2 0x1915 SWAP2 SWAP1 PUSH2 0x1E0E JUMP JUMPDEST PUSH1 0x80 PUSH1 0x40 MLOAD DUP1 DUP4 SUB DUP2 DUP7 GAS STATICCALL ISZERO DUP1 ISZERO PUSH2 0x1932 JUMPI RETURNDATASIZE PUSH1 0x0 DUP1 RETURNDATACOPY RETURNDATASIZE PUSH1 0x0 REVERT JUMPDEST POP POP POP POP PUSH1 0x40 MLOAD RETURNDATASIZE PUSH1 0x1F NOT PUSH1 0x1F DUP3 ADD AND DUP3 ADD DUP1 PUSH1 0x40 MSTORE POP DUP2 ADD SWAP1 PUSH2 0x1956 SWAP2 SWAP1 PUSH2 0x289C JUMP JUMPDEST SWAP1 POP PUSH1 0x0 DUP2 PUSH1 0x20 ADD MLOAD SWAP1 POP DUP1 SWAP3 POP POP POP SWAP3 SWAP2 POP POP JUMP JUMPDEST PUSH2 0x1974 PUSH2 0x1B85 JUMP JUMPDEST PUSH20 0xFFFFFFFFFFFFFFFFFFFFFFFFFFFFFFFFFFFFFFFF AND PUSH2 0x1992 PUSH2 0x13E9 JUMP JUMPDEST PUSH20 0xFFFFFFFFFFFFFFFFFFFFFFFFFFFFFFFFFFFFFFFF AND EQ PUSH2 0x19E8 JUMPI PUSH1 0x40 MLOAD PUSH32 0x8C379A000000000000000000000000000000000000000000000000000000000 DUP2 MSTORE PUSH1 0x4 ADD PUSH2 0x19DF SWAP1 PUSH2 0x26B2 JUMP JUMPDEST PUSH1 0x40 MLOAD DUP1 SWAP2 SUB SWAP1 REVERT JUMPDEST PUSH1 0x0 PUSH20 0xFFFFFFFFFFFFFFFFFFFFFFFFFFFFFFFFFFFFFFFF AND DUP2 PUSH20 0xFFFFFFFFFFFFFFFFFFFFFFFFFFFFFFFFFFFFFFFF AND SUB PUSH2 0x1A57 JUMPI PUSH1 0x40 MLOAD PUSH32 0x8C379A000000000000000000000000000000000000000000000000000000000 DUP2 MSTORE PUSH1 0x4 ADD PUSH2 0x1A4E SWAP1 PUSH2 0x293B JUMP JUMPDEST PUSH1 0x40 MLOAD DUP1 SWAP2 SUB SWAP1 REVERT JUMPDEST PUSH2 0x1A60 DUP2 PUSH2 0x1B8D JUMP JUMPDEST POP JUMP JUMPDEST PUSH1 0x0 PUSH2 0x1AA5 DUP4 DUP4 PUSH1 0x40 MLOAD DUP1 PUSH1 0x40 ADD PUSH1 0x40 MSTORE DUP1 PUSH1 0x1A DUP2 MSTORE PUSH1 0x20 ADD PUSH32 0x536166654D6174683A206469766973696F6E206279207A65726F000000000000 DUP2 MSTORE POP PUSH2 0x1C51 JUMP JUMPDEST SWAP1 POP SWAP3 SWAP2 POP POP JUMP JUMPDEST PUSH1 0x0 DUP1 DUP4 SUB PUSH2 0x1ABF JUMPI PUSH1 0x0 SWAP1 POP PUSH2 0x1B21 JUMP JUMPDEST PUSH1 0x0 DUP3 DUP5 PUSH2 0x1ACD SWAP2 SWAP1 PUSH2 0x22C9 JUMP JUMPDEST SWAP1 POP DUP3 DUP5 DUP3 PUSH2 0x1ADC SWAP2 SWAP1 PUSH2 0x298A JUMP JUMPDEST EQ PUSH2 0x1B1C JUMPI PUSH1 0x40 MLOAD PUSH32 0x8C379A000000000000000000000000000000000000000000000000000000000 DUP2 MSTORE PUSH1 0x4 ADD PUSH2 0x1B13 SWAP1 PUSH2 0x2A2D JUMP JUMPDEST PUSH1 0x40 MLOAD DUP1 SWAP2 SUB SWAP1 REVERT JUMPDEST DUP1 SWAP2 POP POP JUMPDEST SWAP3 SWAP2 POP POP JUMP JUMPDEST PUSH1 0x0 DUP1 DUP3 DUP5 PUSH2 0x1B36 SWAP2 SWAP1 PUSH2 0x2352 JUMP JUMPDEST SWAP1 POP DUP4 DUP2 LT ISZERO PUSH2 0x1B7B JUMPI PUSH1 0x40 MLOAD PUSH32 0x8C379A000000000000000000000000000000000000000000000000000000000 DUP2 MSTORE PUSH1 0x4 ADD PUSH2 0x1B72 SWAP1 PUSH2 0x2A99 JUMP JUMPDEST PUSH1 0x40 MLOAD DUP1 SWAP2 SUB SWAP1 REVERT JUMPDEST DUP1 SWAP2 POP POP SWAP3 SWAP2 POP POP JUMP JUMPDEST PUSH1 0x0 CALLER SWAP1 POP SWAP1 JUMP JUMPDEST PUSH1 0x0 DUP1 PUSH1 0x0 SWAP1 SLOAD SWAP1 PUSH2 0x100 EXP SWAP1 DIV PUSH20 0xFFFFFFFFFFFFFFFFFFFFFFFFFFFFFFFFFFFFFFFF AND SWAP1 POP DUP2 PUSH1 0x0 DUP1 PUSH2 0x100 EXP DUP2 SLOAD DUP2 PUSH20 0xFFFFFFFFFFFFFFFFFFFFFFFFFFFFFFFFFFFFFFFF MUL NOT AND SWAP1 DUP4 PUSH20 0xFFFFFFFFFFFFFFFFFFFFFFFFFFFFFFFFFFFFFFFF AND MUL OR SWAP1 SSTORE POP DUP2 PUSH20 0xFFFFFFFFFFFFFFFFFFFFFFFFFFFFFFFFFFFFFFFF AND DUP2 PUSH20 0xFFFFFFFFFFFFFFFFFFFFFFFFFFFFFFFFFFFFFFFF AND PUSH32 0x8BE0079C531659141344CD1FD0A4F28419497F9722A3DAAFE3B4186F6B6457E0 PUSH1 0x40 MLOAD PUSH1 0x40 MLOAD DUP1 SWAP2 SUB SWAP1 LOG3 POP POP JUMP JUMPDEST PUSH1 0x0 DUP1 DUP4 GT DUP3 SWAP1 PUSH2 0x1C98 JUMPI PUSH1 0x40 MLOAD PUSH32 0x8C379A000000000000000000000000000000000000000000000000000000000 DUP2 MSTORE PUSH1 0x4 ADD PUSH2 0x1C8F SWAP2 SWAP1 PUSH2 0x2B30 JUMP JUMPDEST PUSH1 0x40 MLOAD DUP1 SWAP2 SUB SWAP1 REVERT JUMPDEST POP PUSH1 0x0 DUP4 DUP6 PUSH2 0x1CA7 SWAP2 SWAP1 PUSH2 0x298A JUMP JUMPDEST SWAP1 POP DUP1 SWAP2 POP POP SWAP4 SWAP3 POP POP POP JUMP JUMPDEST PUSH1 0x0 PUSH1 0x40 MLOAD SWAP1 POP SWAP1 JUMP JUMPDEST PUSH1 0x0 DUP1 REVERT JUMPDEST PUSH1 0x0 DUP1 REVERT JUMPDEST PUSH1 0x0 PUSH20 0xFFFFFFFFFFFFFFFFFFFFFFFFFFFFFFFFFFFFFFFF DUP3 AND SWAP1 POP SWAP2 SWAP1 POP JUMP JUMPDEST PUSH1 0x0 PUSH2 0x1CF3 DUP3 PUSH2 0x1CC8 JUMP JUMPDEST SWAP1 POP SWAP2 SWAP1 POP JUMP JUMPDEST PUSH1 0x0 PUSH2 0x1D05 DUP3 PUSH2 0x1CE8 JUMP JUMPDEST SWAP1 POP SWAP2 SWAP1 POP JUMP JUMPDEST PUSH2 0x1D15 DUP2 PUSH2 0x1CFA JUMP JUMPDEST DUP2 EQ PUSH2 0x1D20 JUMPI PUSH1 0x0 DUP1 REVERT JUMPDEST POP JUMP JUMPDEST PUSH1 0x0 DUP2 CALLDATALOAD SWAP1 POP PUSH2 0x1D32 DUP2 PUSH2 0x1D0C JUMP JUMPDEST SWAP3 SWAP2 POP POP JUMP JUMPDEST PUSH1 0x0 DUP2 SWAP1 POP SWAP2 SWAP1 POP JUMP JUMPDEST PUSH2 0x1D4B DUP2 PUSH2 0x1D38 JUMP JUMPDEST DUP2 EQ PUSH2 0x1D56 JUMPI PUSH1 0x0 DUP1 REVERT JUMPDEST POP JUMP JUMPDEST PUSH1 0x0 DUP2 CALLDATALOAD SWAP1 POP PUSH2 0x1D68 DUP2 PUSH2 0x1D42 JUMP JUMPDEST SWAP3 SWAP2 POP POP JUMP JUMPDEST PUSH1 0x0 PUSH2 0x1D79 DUP3 PUSH2 0x1CE8 JUMP JUMPDEST SWAP1 POP SWAP2 SWAP1 POP JUMP JUMPDEST PUSH2 0x1D89 DUP2 PUSH2 0x1D6E JUMP JUMPDEST DUP2 EQ PUSH2 0x1D94 JUMPI PUSH1 0x0 DUP1 REVERT JUMPDEST POP JUMP JUMPDEST PUSH1 0x0 DUP2 CALLDATALOAD SWAP1 POP PUSH2 0x1DA6 DUP2 PUSH2 0x1D80 JUMP JUMPDEST SWAP3 SWAP2 POP POP JUMP JUMPDEST PUSH1 0x0 DUP1 PUSH1 0x0 PUSH1 0x60 DUP5 DUP7 SUB SLT ISZERO PUSH2 0x1DC5 JUMPI PUSH2 0x1DC4 PUSH2 0x1CBE JUMP JUMPDEST JUMPDEST PUSH1 0x0 PUSH2 0x1DD3 DUP7 DUP3 DUP8 ADD PUSH2 0x1D23 JUMP JUMPDEST SWAP4 POP POP PUSH1 0x20 PUSH2 0x1DE4 DUP7 DUP3 DUP8 ADD PUSH2 0x1D59 JUMP JUMPDEST SWAP3 POP POP PUSH1 0x40 PUSH2 0x1DF5 DUP7 DUP3 DUP8 ADD PUSH2 0x1D97 JUMP JUMPDEST SWAP2 POP POP SWAP3 POP SWAP3 POP SWAP3 JUMP JUMPDEST PUSH2 0x1E08 DUP2 PUSH2 0x1D38 JUMP JUMPDEST DUP3 MSTORE POP POP JUMP JUMPDEST PUSH1 0x0 PUSH1 0x20 DUP3 ADD SWAP1 POP PUSH2 0x1E23 PUSH1 0x0 DUP4 ADD DUP5 PUSH2 0x1DFF JUMP JUMPDEST SWAP3 SWAP2 POP POP JUMP JUMPDEST PUSH1 0x0 DUP1 REVERT JUMPDEST PUSH1 0x0 PUSH1 0x1F NOT PUSH1 0x1F DUP4 ADD AND SWAP1 POP SWAP2 SWAP1 POP JUMP JUMPDEST PUSH32 0x4E487B7100000000000000000000000000000000000000000000000000000000 PUSH1 0x0 MSTORE PUSH1 0x41 PUSH1 0x4 MSTORE PUSH1 0x24 PUSH1 0x0 REVERT JUMPDEST PUSH2 0x1E77 DUP3 PUSH2 0x1E2E JUMP JUMPDEST DUP2 ADD DUP2 DUP2 LT PUSH8 0xFFFFFFFFFFFFFFFF DUP3 GT OR ISZERO PUSH2 0x1E96 JUMPI PUSH2 0x1E95 PUSH2 0x1E3F JUMP JUMPDEST JUMPDEST DUP1 PUSH1 0x40 MSTORE POP POP POP JUMP JUMPDEST PUSH1 0x0 PUSH2 0x1EA9 PUSH2 0x1CB4 JUMP JUMPDEST SWAP1 POP PUSH2 0x1EB5 DUP3 DUP3 PUSH2 0x1E6E JUMP JUMPDEST SWAP2 SWAP1 POP JUMP JUMPDEST PUSH1 0x0 PUSH8 0xFFFFFFFFFFFFFFFF DUP3 GT ISZERO PUSH2 0x1ED5 JUMPI PUSH2 0x1ED4 PUSH2 0x1E3F JUMP JUMPDEST JUMPDEST PUSH1 0x20 DUP3 MUL SWAP1 POP PUSH1 0x20 DUP2 ADD SWAP1 POP SWAP2 SWAP1 POP JUMP JUMPDEST PUSH1 0x0 DUP1 REVERT JUMPDEST PUSH1 0x0 PUSH2 0x1EFE PUSH2 0x1EF9 DUP5 PUSH2 0x1EBA JUMP JUMPDEST PUSH2 0x1E9F JUMP JUMPDEST SWAP1 POP DUP1 DUP4 DUP3 MSTORE PUSH1 0x20 DUP3 ADD SWAP1 POP PUSH1 0x20 DUP5 MUL DUP4 ADD DUP6 DUP2 GT ISZERO PUSH2 0x1F21 JUMPI PUSH2 0x1F20 PUSH2 0x1EE6 JUMP JUMPDEST JUMPDEST DUP4 JUMPDEST DUP2 DUP2 LT ISZERO PUSH2 0x1F4A JUMPI DUP1 PUSH2 0x1F36 DUP9 DUP3 PUSH2 0x1D23 JUMP JUMPDEST DUP5 MSTORE PUSH1 0x20 DUP5 ADD SWAP4 POP POP PUSH1 0x20 DUP2 ADD SWAP1 POP PUSH2 0x1F23 JUMP JUMPDEST POP POP POP SWAP4 SWAP3 POP POP POP JUMP JUMPDEST PUSH1 0x0 DUP3 PUSH1 0x1F DUP4 ADD SLT PUSH2 0x1F69 JUMPI PUSH2 0x1F68 PUSH2 0x1E29 JUMP JUMPDEST JUMPDEST DUP2 CALLDATALOAD PUSH2 0x1F79 DUP5 DUP3 PUSH1 0x20 DUP7 ADD PUSH2 0x1EEB JUMP JUMPDEST SWAP2 POP POP SWAP3 SWAP2 POP POP JUMP JUMPDEST PUSH1 0x0 DUP1 PUSH1 0x40 DUP4 DUP6 SUB SLT ISZERO PUSH2 0x1F99 JUMPI PUSH2 0x1F98 PUSH2 0x1CBE JUMP JUMPDEST JUMPDEST PUSH1 0x0 PUSH2 0x1FA7 DUP6 DUP3 DUP7 ADD PUSH2 0x1D97 JUMP JUMPDEST SWAP3 POP POP PUSH1 0x20 DUP4 ADD CALLDATALOAD PUSH8 0xFFFFFFFFFFFFFFFF DUP2 GT ISZERO PUSH2 0x1FC8 JUMPI PUSH2 0x1FC7 PUSH2 0x1CC3 JUMP JUMPDEST JUMPDEST PUSH2 0x1FD4 DUP6 DUP3 DUP7 ADD PUSH2 0x1F54 JUMP JUMPDEST SWAP2 POP POP SWAP3 POP SWAP3 SWAP1 POP JUMP JUMPDEST PUSH2 0x1FE7 DUP2 PUSH2 0x1CE8 JUMP JUMPDEST DUP2 EQ PUSH2 0x1FF2 JUMPI PUSH1 0x0 DUP1 REVERT JUMPDEST POP JUMP JUMPDEST PUSH1 0x0 DUP2 CALLDATALOAD SWAP1 POP PUSH2 0x2004 DUP2 PUSH2 0x1FDE JUMP JUMPDEST SWAP3 SWAP2 POP POP JUMP JUMPDEST PUSH1 0x0 PUSH1 0x20 DUP3 DUP5 SUB SLT ISZERO PUSH2 0x2020 JUMPI PUSH2 0x201F PUSH2 0x1CBE JUMP JUMPDEST JUMPDEST PUSH1 0x0 PUSH2 0x202E DUP5 DUP3 DUP6 ADD PUSH2 0x1FF5 JUMP JUMPDEST SWAP2 POP POP SWAP3 SWAP2 POP POP JUMP JUMPDEST PUSH1 0x0 PUSH1 0x20 DUP3 DUP5 SUB SLT ISZERO PUSH2 0x204D JUMPI PUSH2 0x204C PUSH2 0x1CBE JUMP JUMPDEST JUMPDEST PUSH1 0x0 PUSH2 0x205B DUP5 DUP3 DUP6 ADD PUSH2 0x1D23 JUMP JUMPDEST SWAP2 POP POP SWAP3 SWAP2 POP POP JUMP JUMPDEST PUSH1 0x0 DUP2 SWAP1 POP SWAP2 SWAP1 POP JUMP JUMPDEST PUSH1 0x0 PUSH2 0x2089 PUSH2 0x2084 PUSH2 0x207F DUP5 PUSH2 0x1CC8 JUMP JUMPDEST PUSH2 0x2064 JUMP JUMPDEST PUSH2 0x1CC8 JUMP JUMPDEST SWAP1 POP SWAP2 SWAP1 POP JUMP JUMPDEST PUSH1 0x0 PUSH2 0x209B DUP3 PUSH2 0x206E JUMP JUMPDEST SWAP1 POP SWAP2 SWAP1 POP JUMP JUMPDEST PUSH1 0x0 PUSH2 0x20AD DUP3 PUSH2 0x2090 JUMP JUMPDEST SWAP1 POP SWAP2 SWAP1 POP JUMP JUMPDEST PUSH2 0x20BD DUP2 PUSH2 0x20A2 JUMP JUMPDEST DUP3 MSTORE POP POP JUMP JUMPDEST PUSH1 0x0 PUSH1 0x20 DUP3 ADD SWAP1 POP PUSH2 0x20D8 PUSH1 0x0 DUP4 ADD DUP5 PUSH2 0x20B4 JUMP JUMPDEST SWAP3 SWAP2 POP POP JUMP JUMPDEST PUSH2 0x20E7 DUP2 PUSH2 0x1CE8 JUMP JUMPDEST DUP3 MSTORE POP POP JUMP JUMPDEST PUSH1 0x0 PUSH1 0x20 DUP3 ADD SWAP1 POP PUSH2 0x2102 PUSH1 0x0 DUP4 ADD DUP5 PUSH2 0x20DE JUMP JUMPDEST SWAP3 SWAP2 POP POP JUMP JUMPDEST PUSH1 0x0 PUSH2 0x2113 DUP3 PUSH2 0x1CE8 JUMP JUMPDEST SWAP1 POP SWAP2 SWAP1 POP JUMP JUMPDEST PUSH2 0x2123 DUP2 PUSH2 0x2108 JUMP JUMPDEST DUP2 EQ PUSH2 0x212E JUMPI PUSH1 0x0 DUP1 REVERT JUMPDEST POP JUMP JUMPDEST PUSH1 0x0 DUP2 CALLDATALOAD SWAP1 POP PUSH2 0x2140 DUP2 PUSH2 0x211A JUMP JUMPDEST SWAP3 SWAP2 POP POP JUMP JUMPDEST PUSH1 0x0 PUSH1 0x20 DUP3 DUP5 SUB SLT ISZERO PUSH2 0x215C JUMPI PUSH2 0x215B PUSH2 0x1CBE JUMP JUMPDEST JUMPDEST PUSH1 0x0 PUSH2 0x216A DUP5 DUP3 DUP6 ADD PUSH2 0x2131 JUMP JUMPDEST SWAP2 POP POP SWAP3 SWAP2 POP POP JUMP JUMPDEST PUSH1 0x0 DUP1 PUSH1 0x0 DUP1 PUSH1 0x80 DUP6 DUP8 SUB SLT ISZERO PUSH2 0x218D JUMPI PUSH2 0x218C PUSH2 0x1CBE JUMP JUMPDEST JUMPDEST PUSH1 0x0 PUSH2 0x219B DUP8 DUP3 DUP9 ADD PUSH2 0x1D59 JUMP JUMPDEST SWAP5 POP POP PUSH1 0x20 PUSH2 0x21AC DUP8 DUP3 DUP9 ADD PUSH2 0x1D23 JUMP JUMPDEST SWAP4 POP POP PUSH1 0x40 PUSH2 0x21BD DUP8 DUP3 DUP9 ADD PUSH2 0x1D59 JUMP JUMPDEST SWAP3 POP POP PUSH1 0x60 PUSH2 0x21CE DUP8 DUP3 DUP9 ADD PUSH2 0x1D97 JUMP JUMPDEST SWAP2 POP POP SWAP3 SWAP6 SWAP2 SWAP5 POP SWAP3 POP JUMP JUMPDEST PUSH1 0x0 PUSH2 0x21E5 DUP3 PUSH2 0x1CE8 JUMP JUMPDEST SWAP1 POP SWAP2 SWAP1 POP JUMP JUMPDEST PUSH2 0x21F5 DUP2 PUSH2 0x21DA JUMP JUMPDEST DUP2 EQ PUSH2 0x2200 JUMPI PUSH1 0x0 DUP1 REVERT JUMPDEST POP JUMP JUMPDEST PUSH1 0x0 DUP2 CALLDATALOAD SWAP1 POP PUSH2 0x2212 DUP2 PUSH2 0x21EC JUMP JUMPDEST SWAP3 SWAP2 POP POP JUMP JUMPDEST PUSH1 0x0 DUP1 PUSH1 0x40 DUP4 DUP6 SUB SLT ISZERO PUSH2 0x222F JUMPI PUSH2 0x222E PUSH2 0x1CBE JUMP JUMPDEST JUMPDEST PUSH1 0x0 PUSH2 0x223D DUP6 DUP3 DUP7 ADD PUSH2 0x1D59 JUMP JUMPDEST SWAP3 POP POP PUSH1 0x20 PUSH2 0x224E DUP6 DUP3 DUP7 ADD PUSH2 0x2203 JUMP JUMPDEST SWAP2 POP POP SWAP3 POP SWAP3 SWAP1 POP JUMP JUMPDEST PUSH1 0x0 DUP2 MLOAD SWAP1 POP PUSH2 0x2267 DUP2 PUSH2 0x1D42 JUMP JUMPDEST SWAP3 SWAP2 POP POP JUMP JUMPDEST PUSH1 0x0 PUSH1 0x20 DUP3 DUP5 SUB SLT ISZERO PUSH2 0x2283 JUMPI PUSH2 0x2282 PUSH2 0x1CBE JUMP JUMPDEST JUMPDEST PUSH1 0x0 PUSH2 0x2291 DUP5 DUP3 DUP6 ADD PUSH2 0x2258 JUMP JUMPDEST SWAP2 POP POP SWAP3 SWAP2 POP POP JUMP JUMPDEST PUSH32 0x4E487B7100000000000000000000000000000000000000000000000000000000 PUSH1 0x0 MSTORE PUSH1 0x11 PUSH1 0x4 MSTORE PUSH1 0x24 PUSH1 0x0 REVERT JUMPDEST PUSH1 0x0 PUSH2 0x22D4 DUP3 PUSH2 0x1D38 JUMP JUMPDEST SWAP2 POP PUSH2 0x22DF DUP4 PUSH2 0x1D38 JUMP JUMPDEST SWAP3 POP DUP2 PUSH32 0xFFFFFFFFFFFFFFFFFFFFFFFFFFFFFFFFFFFFFFFFFFFFFFFFFFFFFFFFFFFFFFFF DIV DUP4 GT DUP3 ISZERO ISZERO AND ISZERO PUSH2 0x2318 JUMPI PUSH2 0x2317 PUSH2 0x229A JUMP JUMPDEST JUMPDEST DUP3 DUP3 MUL SWAP1 POP SWAP3 SWAP2 POP POP JUMP JUMPDEST PUSH32 0x4E487B7100000000000000000000000000000000000000000000000000000000 PUSH1 0x0 MSTORE PUSH1 0x32 PUSH1 0x4 MSTORE PUSH1 0x24 PUSH1 0x0 REVERT JUMPDEST PUSH1 0x0 PUSH2 0x235D DUP3 PUSH2 0x1D38 JUMP JUMPDEST SWAP2 POP PUSH2 0x2368 DUP4 PUSH2 0x1D38 JUMP JUMPDEST SWAP3 POP DUP3 PUSH32 0xFFFFFFFFFFFFFFFFFFFFFFFFFFFFFFFFFFFFFFFFFFFFFFFFFFFFFFFFFFFFFFFF SUB DUP3 GT ISZERO PUSH2 0x239D JUMPI PUSH2 0x239C PUSH2 0x229A JUMP JUMPDEST JUMPDEST DUP3 DUP3 ADD SWAP1 POP SWAP3 SWAP2 POP POP JUMP JUMPDEST PUSH1 0x0 PUSH2 0x23B3 DUP3 PUSH2 0x1D38 JUMP JUMPDEST SWAP2 POP PUSH32 0xFFFFFFFFFFFFFFFFFFFFFFFFFFFFFFFFFFFFFFFFFFFFFFFFFFFFFFFFFFFFFFFF DUP3 SUB PUSH2 0x23E5 JUMPI PUSH2 0x23E4 PUSH2 0x229A JUMP JUMPDEST JUMPDEST PUSH1 0x1 DUP3 ADD SWAP1 POP SWAP2 SWAP1 POP JUMP JUMPDEST PUSH1 0x0 DUP2 MLOAD SWAP1 POP SWAP2 SWAP1 POP JUMP JUMPDEST PUSH1 0x0 DUP3 DUP3 MSTORE PUSH1 0x20 DUP3 ADD SWAP1 POP SWAP3 SWAP2 POP POP JUMP JUMPDEST PUSH1 0x0 DUP2 SWAP1 POP PUSH1 0x20 DUP3 ADD SWAP1 POP SWAP2 SWAP1 POP JUMP JUMPDEST PUSH2 0x2425 DUP2 PUSH2 0x1CE8 JUMP JUMPDEST DUP3 MSTORE POP POP JUMP JUMPDEST PUSH1 0x0 PUSH2 0x2437 DUP4 DUP4 PUSH2 0x241C JUMP JUMPDEST PUSH1 0x20 DUP4 ADD SWAP1 POP SWAP3 SWAP2 POP POP JUMP JUMPDEST PUSH1 0x0 PUSH1 0x20 DUP3 ADD SWAP1 POP SWAP2 SWAP1 POP JUMP JUMPDEST PUSH1 0x0 PUSH2 0x245B DUP3 PUSH2 0x23F0 JUMP JUMPDEST PUSH2 0x2465 DUP2 DUP6 PUSH2 0x23FB JUMP JUMPDEST SWAP4 POP PUSH2 0x2470 DUP4 PUSH2 0x240C JUMP JUMPDEST DUP1 PUSH1 0x0 JUMPDEST DUP4 DUP2 LT ISZERO PUSH2 0x24A1 JUMPI DUP2 MLOAD PUSH2 0x2488 DUP9 DUP3 PUSH2 0x242B JUMP JUMPDEST SWAP8 POP PUSH2 0x2493 DUP4 PUSH2 0x2443 JUMP JUMPDEST SWAP3 POP POP PUSH1 0x1 DUP2 ADD SWAP1 POP PUSH2 0x2474 JUMP JUMPDEST POP DUP6 SWAP4 POP POP POP POP SWAP3 SWAP2 POP POP JUMP JUMPDEST PUSH1 0x0 PUSH1 0x40 DUP3 ADD SWAP1 POP PUSH2 0x24C3 PUSH1 0x0 DUP4 ADD DUP6 PUSH2 0x1DFF JUMP JUMPDEST DUP2 DUP2 SUB PUSH1 0x20 DUP4 ADD MSTORE PUSH2 0x24D5 DUP2 DUP5 PUSH2 0x2450 JUMP JUMPDEST SWAP1 POP SWAP4 SWAP3 POP POP POP JUMP JUMPDEST PUSH1 0x0 PUSH8 0xFFFFFFFFFFFFFFFF DUP3 GT ISZERO PUSH2 0x24F9 JUMPI PUSH2 0x24F8 PUSH2 0x1E3F JUMP JUMPDEST JUMPDEST PUSH1 0x20 DUP3 MUL SWAP1 POP PUSH1 0x20 DUP2 ADD SWAP1 POP SWAP2 SWAP1 POP JUMP JUMPDEST PUSH1 0x0 PUSH2 0x251D PUSH2 0x2518 DUP5 PUSH2 0x24DE JUMP JUMPDEST PUSH2 0x1E9F JUMP JUMPDEST SWAP1 POP DUP1 DUP4 DUP3 MSTORE PUSH1 0x20 DUP3 ADD SWAP1 POP PUSH1 0x20 DUP5 MUL DUP4 ADD DUP6 DUP2 GT ISZERO PUSH2 0x2540 JUMPI PUSH2 0x253F PUSH2 0x1EE6 JUMP JUMPDEST JUMPDEST DUP4 JUMPDEST DUP2 DUP2 LT ISZERO PUSH2 0x2569 JUMPI DUP1 PUSH2 0x2555 DUP9 DUP3 PUSH2 0x2258 JUMP JUMPDEST DUP5 MSTORE PUSH1 0x20 DUP5 ADD SWAP4 POP POP PUSH1 0x20 DUP2 ADD SWAP1 POP PUSH2 0x2542 JUMP JUMPDEST POP POP POP SWAP4 SWAP3 POP POP POP JUMP JUMPDEST PUSH1 0x0 DUP3 PUSH1 0x1F DUP4 ADD SLT PUSH2 0x2588 JUMPI PUSH2 0x2587 PUSH2 0x1E29 JUMP JUMPDEST JUMPDEST DUP2 MLOAD PUSH2 0x2598 DUP5 DUP3 PUSH1 0x20 DUP7 ADD PUSH2 0x250A JUMP JUMPDEST SWAP2 POP POP SWAP3 SWAP2 POP POP JUMP JUMPDEST PUSH1 0x0 PUSH1 0x20 DUP3 DUP5 SUB SLT ISZERO PUSH2 0x25B7 JUMPI PUSH2 0x25B6 PUSH2 0x1CBE JUMP JUMPDEST JUMPDEST PUSH1 0x0 DUP3 ADD MLOAD PUSH8 0xFFFFFFFFFFFFFFFF DUP2 GT ISZERO PUSH2 0x25D5 JUMPI PUSH2 0x25D4 PUSH2 0x1CC3 JUMP JUMPDEST JUMPDEST PUSH2 0x25E1 DUP5 DUP3 DUP6 ADD PUSH2 0x2573 JUMP JUMPDEST SWAP2 POP POP SWAP3 SWAP2 POP POP JUMP JUMPDEST PUSH1 0x0 PUSH2 0x25F5 DUP3 PUSH2 0x1CE8 JUMP JUMPDEST SWAP1 POP SWAP2 SWAP1 POP JUMP JUMPDEST PUSH2 0x2605 DUP2 PUSH2 0x25EA JUMP JUMPDEST DUP2 EQ PUSH2 0x2610 JUMPI PUSH1 0x0 DUP1 REVERT JUMPDEST POP JUMP JUMPDEST PUSH1 0x0 DUP2 MLOAD SWAP1 POP PUSH2 0x2622 DUP2 PUSH2 0x25FC JUMP JUMPDEST SWAP3 SWAP2 POP POP JUMP JUMPDEST PUSH1 0x0 PUSH1 0x20 DUP3 DUP5 SUB SLT ISZERO PUSH2 0x263E JUMPI PUSH2 0x263D PUSH2 0x1CBE JUMP JUMPDEST JUMPDEST PUSH1 0x0 PUSH2 0x264C DUP5 DUP3 DUP6 ADD PUSH2 0x2613 JUMP JUMPDEST SWAP2 POP POP SWAP3 SWAP2 POP POP JUMP JUMPDEST PUSH1 0x0 DUP3 DUP3 MSTORE PUSH1 0x20 DUP3 ADD SWAP1 POP SWAP3 SWAP2 POP POP JUMP JUMPDEST PUSH32 0x4F776E61626C653A2063616C6C6572206973206E6F7420746865206F776E6572 PUSH1 0x0 DUP3 ADD MSTORE POP JUMP JUMPDEST PUSH1 0x0 PUSH2 0x269C PUSH1 0x20 DUP4 PUSH2 0x2655 JUMP JUMPDEST SWAP2 POP PUSH2 0x26A7 DUP3 PUSH2 0x2666 JUMP JUMPDEST PUSH1 0x20 DUP3 ADD SWAP1 POP SWAP2 SWAP1 POP JUMP JUMPDEST PUSH1 0x0 PUSH1 0x20 DUP3 ADD SWAP1 POP DUP2 DUP2 SUB PUSH1 0x0 DUP4 ADD MSTORE PUSH2 0x26CB DUP2 PUSH2 0x268F JUMP JUMPDEST SWAP1 POP SWAP2 SWAP1 POP JUMP JUMPDEST PUSH1 0x0 DUP1 REVERT JUMPDEST PUSH1 0x0 PUSH2 0x26E2 DUP3 PUSH2 0x1CE8 JUMP JUMPDEST SWAP1 POP SWAP2 SWAP1 POP JUMP JUMPDEST PUSH2 0x26F2 DUP2 PUSH2 0x26D7 JUMP JUMPDEST DUP2 EQ PUSH2 0x26FD JUMPI PUSH1 0x0 DUP1 REVERT JUMPDEST POP JUMP JUMPDEST PUSH1 0x0 DUP2 MLOAD SWAP1 POP PUSH2 0x270F DUP2 PUSH2 0x26E9 JUMP JUMPDEST SWAP3 SWAP2 POP POP JUMP JUMPDEST PUSH1 0x0 PUSH1 0xC0 DUP3 DUP5 SUB SLT ISZERO PUSH2 0x272B JUMPI PUSH2 0x272A PUSH2 0x26D2 JUMP JUMPDEST JUMPDEST PUSH2 0x2735 PUSH1 0xC0 PUSH2 0x1E9F JUMP JUMPDEST SWAP1 POP PUSH1 0x0 PUSH2 0x2745 DUP5 DUP3 DUP6 ADD PUSH2 0x2613 JUMP JUMPDEST PUSH1 0x0 DUP4 ADD MSTORE POP PUSH1 0x20 PUSH2 0x2759 DUP5 DUP3 DUP6 ADD PUSH2 0x2258 JUMP JUMPDEST PUSH1 0x20 DUP4 ADD MSTORE POP PUSH1 0x40 PUSH2 0x276D DUP5 DUP3 DUP6 ADD PUSH2 0x2258 JUMP JUMPDEST PUSH1 0x40 DUP4 ADD MSTORE POP PUSH1 0x60 PUSH2 0x2781 DUP5 DUP3 DUP6 ADD PUSH2 0x2258 JUMP JUMPDEST PUSH1 0x60 DUP4 ADD MSTORE POP PUSH1 0x80 PUSH2 0x2795 DUP5 DUP3 DUP6 ADD PUSH2 0x2700 JUMP JUMPDEST PUSH1 0x80 DUP4 ADD MSTORE POP PUSH1 0xA0 PUSH2 0x27A9 DUP5 DUP3 DUP6 ADD PUSH2 0x2613 JUMP JUMPDEST PUSH1 0xA0 DUP4 ADD MSTORE POP SWAP3 SWAP2 POP POP JUMP JUMPDEST PUSH1 0x0 PUSH1 0xC0 DUP3 DUP5 SUB SLT ISZERO PUSH2 0x27CB JUMPI PUSH2 0x27CA PUSH2 0x1CBE JUMP JUMPDEST JUMPDEST PUSH1 0x0 PUSH2 0x27D9 DUP5 DUP3 DUP6 ADD PUSH2 0x2715 JUMP JUMPDEST SWAP2 POP POP SWAP3 SWAP2 POP POP JUMP JUMPDEST PUSH1 0x0 DUP2 MLOAD SWAP1 POP PUSH2 0x27F1 DUP2 PUSH2 0x1FDE JUMP JUMPDEST SWAP3 SWAP2 POP POP JUMP JUMPDEST PUSH1 0x0 PUSH1 0x20 DUP3 DUP5 SUB SLT ISZERO PUSH2 0x280D JUMPI PUSH2 0x280C PUSH2 0x1CBE JUMP JUMPDEST JUMPDEST PUSH1 0x0 PUSH2 0x281B DUP5 DUP3 DUP6 ADD PUSH2 0x27E2 JUMP JUMPDEST SWAP2 POP POP SWAP3 SWAP2 POP POP JUMP JUMPDEST PUSH1 0x0 PUSH1 0x80 DUP3 DUP5 SUB SLT ISZERO PUSH2 0x283A JUMPI PUSH2 0x2839 PUSH2 0x26D2 JUMP JUMPDEST JUMPDEST PUSH2 0x2844 PUSH1 0x80 PUSH2 0x1E9F JUMP JUMPDEST SWAP1 POP PUSH1 0x0 PUSH2 0x2854 DUP5 DUP3 DUP6 ADD PUSH2 0x2613 JUMP JUMPDEST PUSH1 0x0 DUP4 ADD MSTORE POP PUSH1 0x20 PUSH2 0x2868 DUP5 DUP3 DUP6 ADD PUSH2 0x2258 JUMP JUMPDEST PUSH1 0x20 DUP4 ADD MSTORE POP PUSH1 0x40 PUSH2 0x287C DUP5 DUP3 DUP6 ADD PUSH2 0x2258 JUMP JUMPDEST PUSH1 0x40 DUP4 ADD MSTORE POP PUSH1 0x60 PUSH2 0x2890 DUP5 DUP3 DUP6 ADD PUSH2 0x2258 JUMP JUMPDEST PUSH1 0x60 DUP4 ADD MSTORE POP SWAP3 SWAP2 POP POP JUMP JUMPDEST PUSH1 0x0 PUSH1 0x80 DUP3 DUP5 SUB SLT ISZERO PUSH2 0x28B2 JUMPI PUSH2 0x28B1 PUSH2 0x1CBE JUMP JUMPDEST JUMPDEST PUSH1 0x0 PUSH2 0x28C0 DUP5 DUP3 DUP6 ADD PUSH2 0x2824 JUMP JUMPDEST SWAP2 POP POP SWAP3 SWAP2 POP POP JUMP JUMPDEST PUSH32 0x4F776E61626C653A206E6577206F776E657220697320746865207A65726F2061 PUSH1 0x0 DUP3 ADD MSTORE PUSH32 0x6464726573730000000000000000000000000000000000000000000000000000 PUSH1 0x20 DUP3 ADD MSTORE POP JUMP JUMPDEST PUSH1 0x0 PUSH2 0x2925 PUSH1 0x26 DUP4 PUSH2 0x2655 JUMP JUMPDEST SWAP2 POP PUSH2 0x2930 DUP3 PUSH2 0x28C9 JUMP JUMPDEST PUSH1 0x40 DUP3 ADD SWAP1 POP SWAP2 SWAP1 POP JUMP JUMPDEST PUSH1 0x0 PUSH1 0x20 DUP3 ADD SWAP1 POP DUP2 DUP2 SUB PUSH1 0x0 DUP4 ADD MSTORE PUSH2 0x2954 DUP2 PUSH2 0x2918 JUMP JUMPDEST SWAP1 POP SWAP2 SWAP1 POP JUMP JUMPDEST PUSH32 0x4E487B7100000000000000000000000000000000000000000000000000000000 PUSH1 0x0 MSTORE PUSH1 0x12 PUSH1 0x4 MSTORE PUSH1 0x24 PUSH1 0x0 REVERT JUMPDEST PUSH1 0x0 PUSH2 0x2995 DUP3 PUSH2 0x1D38 JUMP JUMPDEST SWAP2 POP PUSH2 0x29A0 DUP4 PUSH2 0x1D38 JUMP JUMPDEST SWAP3 POP DUP3 PUSH2 0x29B0 JUMPI PUSH2 0x29AF PUSH2 0x295B JUMP JUMPDEST JUMPDEST DUP3 DUP3 DIV SWAP1 POP SWAP3 SWAP2 POP POP JUMP JUMPDEST PUSH32 0x536166654D6174683A206D756C7469706C69636174696F6E206F766572666C6F PUSH1 0x0 DUP3 ADD MSTORE PUSH32 0x7700000000000000000000000000000000000000000000000000000000000000 PUSH1 0x20 DUP3 ADD MSTORE POP JUMP JUMPDEST PUSH1 0x0 PUSH2 0x2A17 PUSH1 0x21 DUP4 PUSH2 0x2655 JUMP JUMPDEST SWAP2 POP PUSH2 0x2A22 DUP3 PUSH2 0x29BB JUMP JUMPDEST PUSH1 0x40 DUP3 ADD SWAP1 POP SWAP2 SWAP1 POP JUMP JUMPDEST PUSH1 0x0 PUSH1 0x20 DUP3 ADD SWAP1 POP DUP2 DUP2 SUB PUSH1 0x0 DUP4 ADD MSTORE PUSH2 0x2A46 DUP2 PUSH2 0x2A0A JUMP JUMPDEST SWAP1 POP SWAP2 SWAP1 POP JUMP JUMPDEST PUSH32 0x536166654D6174683A206164646974696F6E206F766572666C6F770000000000 PUSH1 0x0 DUP3 ADD MSTORE POP JUMP JUMPDEST PUSH1 0x0 PUSH2 0x2A83 PUSH1 0x1B DUP4 PUSH2 0x2655 JUMP JUMPDEST SWAP2 POP PUSH2 0x2A8E DUP3 PUSH2 0x2A4D JUMP JUMPDEST PUSH1 0x20 DUP3 ADD SWAP1 POP SWAP2 SWAP1 POP JUMP JUMPDEST PUSH1 0x0 PUSH1 0x20 DUP3 ADD SWAP1 POP DUP2 DUP2 SUB PUSH1 0x0 DUP4 ADD MSTORE PUSH2 0x2AB2 DUP2 PUSH2 0x2A76 JUMP JUMPDEST SWAP1 POP SWAP2 SWAP1 POP JUMP JUMPDEST PUSH1 0x0 DUP2 MLOAD SWAP1 POP SWAP2 SWAP1 POP JUMP JUMPDEST PUSH1 0x0 JUMPDEST DUP4 DUP2 LT ISZERO PUSH2 0x2AE2 JUMPI DUP1 DUP3 ADD MLOAD DUP2 DUP5 ADD MSTORE PUSH1 0x20 DUP2 ADD SWAP1 POP PUSH2 0x2AC7 JUMP JUMPDEST DUP4 DUP2 GT ISZERO PUSH2 0x2AF1 JUMPI PUSH1 0x0 DUP5 DUP5 ADD MSTORE JUMPDEST POP POP POP POP JUMP JUMPDEST PUSH1 0x0 PUSH2 0x2B02 DUP3 PUSH2 0x2AB9 JUMP JUMPDEST PUSH2 0x2B0C DUP2 DUP6 PUSH2 0x2655 JUMP JUMPDEST SWAP4 POP PUSH2 0x2B1C DUP2 DUP6 PUSH1 0x20 DUP7 ADD PUSH2 0x2AC4 JUMP JUMPDEST PUSH2 0x2B25 DUP2 PUSH2 0x1E2E JUMP JUMPDEST DUP5 ADD SWAP2 POP POP SWAP3 SWAP2 POP POP JUMP JUMPDEST PUSH1 0x0 PUSH1 0x20 DUP3 ADD SWAP1 POP DUP2 DUP2 SUB PUSH1 0x0 DUP4 ADD MSTORE PUSH2 0x2B4A DUP2 DUP5 PUSH2 0x2AF7 JUMP JUMPDEST SWAP1 POP SWAP3 SWAP2 POP POP JUMP INVALID LOG2 PUSH5 0x6970667358 0x22 SLT KECCAK256 BASEFEE 0x2B GAS SWAP2 DUP8 TIMESTAMP DUP12 DUP6 0xEC 0xD0 SGT 0xDF DUP11 0xB0 0xF8 0x5D SELFDESTRUCT BALANCE KECCAK256 0xC3 0xEC SUB 0xD8 0xEC DELEGATECALL SSTORE 0xB1 RETURN 0xD 0xBF GASLIMIT PUSH6 0x64736F6C6343 STOP ADDMOD 0xF STOP CALLER "
				},
				"gasEstimates": {
					"creation": {
						"codeDepositCost": "2228800",
						"executionCost": "infinite",
						"totalCost": "infinite"
					},
					"external": {
						"BUSD()": "2603",
						"CalcApy(uint256,address,uint256,address)": "infinite",
						"CalcApyNFTFarm(uint256,address)": "infinite",
						"CalcLpPrice(address)": "infinite",
						"CalcTotalTVL(address,address[])": "infinite",
						"CalcTotalTVLNFTFarm(address,address[])": "infinite",
						"Tokenprice(address)": "infinite",
						"WBNB()": "2603",
						"WBNBPrice(address)": "infinite",
						"calcPoolTVLInUSD(uint256,address,uint256,address)": "infinite",
						"calcPoolTVLInUSDNFTFarm(address,uint256,address)": "infinite",
						"isLpAddress(address)": "infinite",
						"owner()": "2589",
						"renounceOwnership()": "30419",
						"routerAddress()": "infinite",
						"setRouter(address)": "27027",
						"transferOwnership(address)": "30830"
					}
				},
				"methodIdentifiers": {
					"BUSD()": "484f4ea9",
					"CalcApy(uint256,address,uint256,address)": "dbb79348",
					"CalcApyNFTFarm(uint256,address)": "e085f38e",
					"CalcLpPrice(address)": "215cc989",
					"CalcTotalTVL(address,address[])": "55b44eaf",
					"CalcTotalTVLNFTFarm(address,address[])": "1858882b",
					"Tokenprice(address)": "19047f8a",
					"WBNB()": "8dd95002",
					"WBNBPrice(address)": "3b979d45",
					"calcPoolTVLInUSD(uint256,address,uint256,address)": "d979fb5f",
					"calcPoolTVLInUSDNFTFarm(address,uint256,address)": "1616f124",
					"isLpAddress(address)": "2f7c5980",
					"owner()": "8da5cb5b",
					"renounceOwnership()": "715018a6",
					"routerAddress()": "3268cc56",
					"setRouter(address)": "c0d78655",
					"transferOwnership(address)": "f2fde38b"
				}
			},
			"storageLayout": {
				"storage": [
					{
						"astId": 509,
						"contract": "contracts/Utils.sol:Utils",
						"label": "_owner",
						"offset": 0,
						"slot": "0",
						"type": "t_address"
					},
					{
						"astId": 810,
						"contract": "contracts/Utils.sol:Utils",
						"label": "WBNB",
						"offset": 0,
						"slot": "1",
						"type": "t_address"
					},
					{
						"astId": 812,
						"contract": "contracts/Utils.sol:Utils",
						"label": "BUSD",
						"offset": 0,
						"slot": "2",
						"type": "t_address"
					},
					{
						"astId": 815,
						"contract": "contracts/Utils.sol:Utils",
						"label": "amount",
						"offset": 0,
						"slot": "3",
						"type": "t_uint256"
					},
					{
						"astId": 818,
						"contract": "contracts/Utils.sol:Utils",
						"label": "routerAddress",
						"offset": 0,
						"slot": "4",
						"type": "t_contract(Router)651"
					},
					{
						"astId": 821,
						"contract": "contracts/Utils.sol:Utils",
						"label": "BLOCKS_PER_YEAR",
						"offset": 0,
						"slot": "5",
						"type": "t_uint256"
					}
				],
				"types": {
					"t_address": {
						"encoding": "inplace",
						"label": "address",
						"numberOfBytes": "20"
					},
					"t_contract(Router)651": {
						"encoding": "inplace",
						"label": "contract Router",
						"numberOfBytes": "20"
					},
					"t_uint256": {
						"encoding": "inplace",
						"label": "uint256",
						"numberOfBytes": "32"
					}
				}
			},
			"userdoc": {
				"kind": "user",
				"methods": {},
				"version": 1
			}
		}
	}
}