{
	"contracts/LpPrice.sol": {
		"LpUtils": {
			"abi": [
				{
					"inputs": [],
					"name": "BUSD",
					"outputs": [
						{
							"internalType": "address",
							"name": "",
							"type": "address"
						}
					],
					"stateMutability": "view",
					"type": "function"
				},
				{
					"inputs": [],
					"name": "WBNB",
					"outputs": [
						{
							"internalType": "address",
							"name": "",
							"type": "address"
						}
					],
					"stateMutability": "view",
					"type": "function"
				},
				{
					"inputs": [
						{
							"internalType": "contract Router",
							"name": "routerAddress",
							"type": "address"
						},
						{
							"internalType": "address",
							"name": "token",
							"type": "address"
						}
					],
					"name": "price",
					"outputs": [
						{
							"internalType": "uint256",
							"name": "",
							"type": "uint256"
						}
					],
					"stateMutability": "view",
					"type": "function"
				},
				{
					"inputs": [
						{
							"internalType": "contract IERC20",
							"name": "lpAddress",
							"type": "address"
						}
					],
					"name": "token0",
					"outputs": [
						{
							"internalType": "address",
							"name": "",
							"type": "address"
						}
					],
					"stateMutability": "view",
					"type": "function"
				},
				{
					"inputs": [
						{
							"internalType": "contract IERC20",
							"name": "lpAddress",
							"type": "address"
						}
					],
					"name": "token1",
					"outputs": [
						{
							"internalType": "address",
							"name": "",
							"type": "address"
						}
					],
					"stateMutability": "view",
					"type": "function"
				},
				{
					"inputs": [
						{
							"internalType": "contract IERC20",
							"name": "lpAddress",
							"type": "address"
						}
					],
					"name": "totalSupply",
					"outputs": [
						{
							"internalType": "uint256",
							"name": "",
							"type": "uint256"
						}
					],
					"stateMutability": "view",
					"type": "function"
				}
			],
			"devdoc": {
				"kind": "dev",
				"methods": {},
				"version": 1
			},
			"evm": {
				"assembly": "    /* \"contracts/LpPrice.sol\":8847:9906  contract LpUtils {\r... */\n  mstore(0x40, 0x80)\n    /* \"contracts/LpPrice.sol\":8893:8935  0xae13d989daC2f0dEbFf460aC112a837C89BAa7cd */\n  0xae13d989dac2f0debff460ac112a837c89baa7cd\n    /* \"contracts/LpPrice.sol\":8871:8935  address public WBNB = 0xae13d989daC2f0dEbFf460aC112a837C89BAa7cd */\n  0x00\n  dup1\n  0x0100\n  exp\n  dup2\n  sload\n  dup2\n  0xffffffffffffffffffffffffffffffffffffffff\n  mul\n  not\n  and\n  swap1\n  dup4\n  0xffffffffffffffffffffffffffffffffffffffff\n  and\n  mul\n  or\n  swap1\n  sstore\n  pop\n    /* \"contracts/LpPrice.sol\":8964:9006  0x78867BbEeF44f2326bF8DDd1941a4439382EF2A7 */\n  0x78867bbeef44f2326bf8ddd1941a4439382ef2a7\n    /* \"contracts/LpPrice.sol\":8942:9006  address public BUSD = 0x78867BbEeF44f2326bF8DDd1941a4439382EF2A7 */\n  0x01\n  exp(0x0100, 0x00)\n  dup2\n  sload\n  dup2\n  0xffffffffffffffffffffffffffffffffffffffff\n  mul\n  not\n  and\n  swap1\n  dup4\n  0xffffffffffffffffffffffffffffffffffffffff\n  and\n  mul\n  or\n  swap1\n  sstore\n  pop\n    /* \"contracts/LpPrice.sol\":9030:9049  1000000000000000000 */\n  0x0de0b6b3a7640000\n    /* \"contracts/LpPrice.sol\":9013:9049  uint256 amount = 1000000000000000000 */\n  0x02\n  sstore\n    /* \"contracts/LpPrice.sol\":8847:9906  contract LpUtils {\r... */\n  callvalue\n  dup1\n  iszero\n  tag_1\n  jumpi\n  0x00\n  dup1\n  revert\ntag_1:\n  pop\n  dataSize(sub_0)\n  dup1\n  dataOffset(sub_0)\n  0x00\n  codecopy\n  0x00\n  return\nstop\n\nsub_0: assembly {\n        /* \"contracts/LpPrice.sol\":8847:9906  contract LpUtils {\r... */\n      mstore(0x40, 0x80)\n      callvalue\n      dup1\n      iszero\n      tag_1\n      jumpi\n      0x00\n      dup1\n      revert\n    tag_1:\n      pop\n      jumpi(tag_2, lt(calldatasize, 0x04))\n      shr(0xe0, calldataload(0x00))\n      dup1\n      0x2b00490d\n      eq\n      tag_3\n      jumpi\n      dup1\n      0x37823795\n      eq\n      tag_4\n      jumpi\n      dup1\n      0x484f4ea9\n      eq\n      tag_5\n      jumpi\n      dup1\n      0x76bf39a3\n      eq\n      tag_6\n      jumpi\n      dup1\n      0x8dd95002\n      eq\n      tag_7\n      jumpi\n      dup1\n      0xe4dc2aa4\n      eq\n      tag_8\n      jumpi\n    tag_2:\n      0x00\n      dup1\n      revert\n        /* \"contracts/LpPrice.sol\":9740:9903  function price(Router routerAddress, address token) external view returns(uint){\r... */\n    tag_3:\n      tag_9\n      0x04\n      dup1\n      calldatasize\n      sub\n      dup2\n      add\n      swap1\n      tag_10\n      swap2\n      swap1\n      tag_11\n      jump\t// in\n    tag_10:\n      tag_12\n      jump\t// in\n    tag_9:\n      mload(0x40)\n      tag_13\n      swap2\n      swap1\n      tag_14\n      jump\t// in\n    tag_13:\n      mload(0x40)\n      dup1\n      swap2\n      sub\n      swap1\n      return\n        /* \"contracts/LpPrice.sol\":9624:9732  function token1(IERC20 lpAddress) external view returns(address){\r... */\n    tag_4:\n      tag_15\n      0x04\n      dup1\n      calldatasize\n      sub\n      dup2\n      add\n      swap1\n      tag_16\n      swap2\n      swap1\n      tag_17\n      jump\t// in\n    tag_16:\n      tag_18\n      jump\t// in\n    tag_15:\n      mload(0x40)\n      tag_19\n      swap2\n      swap1\n      tag_20\n      jump\t// in\n    tag_19:\n      mload(0x40)\n      dup1\n      swap2\n      sub\n      swap1\n      return\n        /* \"contracts/LpPrice.sol\":8942:9006  address public BUSD = 0x78867BbEeF44f2326bF8DDd1941a4439382EF2A7 */\n    tag_5:\n      tag_21\n      tag_22\n      jump\t// in\n    tag_21:\n      mload(0x40)\n      tag_23\n      swap2\n      swap1\n      tag_20\n      jump\t// in\n    tag_23:\n      mload(0x40)\n      dup1\n      swap2\n      sub\n      swap1\n      return\n        /* \"contracts/LpPrice.sol\":9508:9616  function token0(IERC20 lpAddress) external view returns(address){\r... */\n    tag_6:\n      tag_24\n      0x04\n      dup1\n      calldatasize\n      sub\n      dup2\n      add\n      swap1\n      tag_25\n      swap2\n      swap1\n      tag_17\n      jump\t// in\n    tag_25:\n      tag_26\n      jump\t// in\n    tag_24:\n      mload(0x40)\n      tag_27\n      swap2\n      swap1\n      tag_20\n      jump\t// in\n    tag_27:\n      mload(0x40)\n      dup1\n      swap2\n      sub\n      swap1\n      return\n        /* \"contracts/LpPrice.sol\":8871:8935  address public WBNB = 0xae13d989daC2f0dEbFf460aC112a837C89BAa7cd */\n    tag_7:\n      tag_28\n      tag_29\n      jump\t// in\n    tag_28:\n      mload(0x40)\n      tag_30\n      swap2\n      swap1\n      tag_20\n      jump\t// in\n    tag_30:\n      mload(0x40)\n      dup1\n      swap2\n      sub\n      swap1\n      return\n        /* \"contracts/LpPrice.sol\":9382:9500  function totalSupply(IERC20 lpAddress) external view returns(uint256){\r... */\n    tag_8:\n      tag_31\n      0x04\n      dup1\n      calldatasize\n      sub\n      dup2\n      add\n      swap1\n      tag_32\n      swap2\n      swap1\n      tag_17\n      jump\t// in\n    tag_32:\n      tag_33\n      jump\t// in\n    tag_31:\n      mload(0x40)\n      tag_34\n      swap2\n      swap1\n      tag_14\n      jump\t// in\n    tag_34:\n      mload(0x40)\n      dup1\n      swap2\n      sub\n      swap1\n      return\n        /* \"contracts/LpPrice.sol\":9740:9903  function price(Router routerAddress, address token) external view returns(uint){\r... */\n    tag_12:\n        /* \"contracts/LpPrice.sol\":9814:9818  uint */\n      0x00\n        /* \"contracts/LpPrice.sol\":9837:9850  routerAddress */\n      dup3\n        /* \"contracts/LpPrice.sol\":9837:9864  routerAddress.getAmountsOut */\n      0xffffffffffffffffffffffffffffffffffffffff\n      and\n      0x57d7692a\n        /* \"contracts/LpPrice.sol\":9865:9871  amount */\n      sload(0x02)\n        /* \"contracts/LpPrice.sol\":9837:9892  routerAddress.getAmountsOut(amount,[token, WBNB, BUSD]) */\n      mload(0x40)\n      dup1\n      0x60\n      add\n      0x40\n      mstore\n      dup1\n        /* \"contracts/LpPrice.sol\":9873:9878  token */\n      dup7\n        /* \"contracts/LpPrice.sol\":9837:9892  routerAddress.getAmountsOut(amount,[token, WBNB, BUSD]) */\n      0xffffffffffffffffffffffffffffffffffffffff\n      and\n      0xffffffffffffffffffffffffffffffffffffffff\n      and\n      dup2\n      mstore\n      0x20\n      add\n        /* \"contracts/LpPrice.sol\":9880:9884  WBNB */\n      0x00\n      dup1\n      sload\n      swap1\n      0x0100\n      exp\n      swap1\n      div\n      0xffffffffffffffffffffffffffffffffffffffff\n      and\n        /* \"contracts/LpPrice.sol\":9837:9892  routerAddress.getAmountsOut(amount,[token, WBNB, BUSD]) */\n      0xffffffffffffffffffffffffffffffffffffffff\n      and\n      0xffffffffffffffffffffffffffffffffffffffff\n      and\n      dup2\n      mstore\n      0x20\n      add\n        /* \"contracts/LpPrice.sol\":9886:9890  BUSD */\n      0x01\n      0x00\n      swap1\n      sload\n      swap1\n      0x0100\n      exp\n      swap1\n      div\n      0xffffffffffffffffffffffffffffffffffffffff\n      and\n        /* \"contracts/LpPrice.sol\":9837:9892  routerAddress.getAmountsOut(amount,[token, WBNB, BUSD]) */\n      0xffffffffffffffffffffffffffffffffffffffff\n      and\n      0xffffffffffffffffffffffffffffffffffffffff\n      and\n      dup2\n      mstore\n      pop\n      mload(0x40)\n      dup4\n      0xffffffff\n      and\n      0xe0\n      shl\n      dup2\n      mstore\n      0x04\n      add\n      tag_36\n      swap3\n      swap2\n      swap1\n      tag_37\n      jump\t// in\n    tag_36:\n      0x00\n      mload(0x40)\n      dup1\n      dup4\n      sub\n      dup2\n      dup7\n      dup1\n      extcodesize\n      iszero\n      dup1\n      iszero\n      tag_38\n      jumpi\n      0x00\n      dup1\n      revert\n    tag_38:\n      pop\n      gas\n      staticcall\n      iszero\n      dup1\n      iszero\n      tag_40\n      jumpi\n      returndatasize\n      0x00\n      dup1\n      returndatacopy\n      revert(0x00, returndatasize)\n    tag_40:\n      pop\n      pop\n      pop\n      pop\n      mload(0x40)\n      returndatasize\n      0x00\n      dup3\n      returndatacopy\n      returndatasize\n      not(0x1f)\n      0x1f\n      dup3\n      add\n      and\n      dup3\n      add\n      dup1\n      0x40\n      mstore\n      pop\n      dup2\n      add\n      swap1\n      tag_41\n      swap2\n      swap1\n      tag_42\n      jump\t// in\n    tag_41:\n        /* \"contracts/LpPrice.sol\":9893:9894  2 */\n      0x02\n        /* \"contracts/LpPrice.sol\":9837:9895  routerAddress.getAmountsOut(amount,[token, WBNB, BUSD])[2] */\n      dup2\n      mload\n      dup2\n      lt\n      tag_43\n      jumpi\n      tag_44\n      tag_45\n      jump\t// in\n    tag_44:\n    tag_43:\n      0x20\n      mul\n      0x20\n      add\n      add\n      mload\n        /* \"contracts/LpPrice.sol\":9830:9895  return routerAddress.getAmountsOut(amount,[token, WBNB, BUSD])[2] */\n      swap1\n      pop\n        /* \"contracts/LpPrice.sol\":9740:9903  function price(Router routerAddress, address token) external view returns(uint){\r... */\n      swap3\n      swap2\n      pop\n      pop\n      jump\t// out\n        /* \"contracts/LpPrice.sol\":9624:9732  function token1(IERC20 lpAddress) external view returns(address){\r... */\n    tag_18:\n        /* \"contracts/LpPrice.sol\":9680:9687  address */\n      0x00\n        /* \"contracts/LpPrice.sol\":9706:9715  lpAddress */\n      dup2\n        /* \"contracts/LpPrice.sol\":9706:9722  lpAddress.token1 */\n      0xffffffffffffffffffffffffffffffffffffffff\n      and\n      0xd21220a7\n        /* \"contracts/LpPrice.sol\":9706:9724  lpAddress.token1() */\n      mload(0x40)\n      dup2\n      0xffffffff\n      and\n      0xe0\n      shl\n      dup2\n      mstore\n      0x04\n      add\n      0x20\n      mload(0x40)\n      dup1\n      dup4\n      sub\n      dup2\n      dup7\n      dup1\n      extcodesize\n      iszero\n      dup1\n      iszero\n      tag_47\n      jumpi\n      0x00\n      dup1\n      revert\n    tag_47:\n      pop\n      gas\n      staticcall\n      iszero\n      dup1\n      iszero\n      tag_49\n      jumpi\n      returndatasize\n      0x00\n      dup1\n      returndatacopy\n      revert(0x00, returndatasize)\n    tag_49:\n      pop\n      pop\n      pop\n      pop\n      mload(0x40)\n      returndatasize\n      not(0x1f)\n      0x1f\n      dup3\n      add\n      and\n      dup3\n      add\n      dup1\n      0x40\n      mstore\n      pop\n      dup2\n      add\n      swap1\n      tag_50\n      swap2\n      swap1\n      tag_51\n      jump\t// in\n    tag_50:\n        /* \"contracts/LpPrice.sol\":9699:9724  return lpAddress.token1() */\n      swap1\n      pop\n        /* \"contracts/LpPrice.sol\":9624:9732  function token1(IERC20 lpAddress) external view returns(address){\r... */\n      swap2\n      swap1\n      pop\n      jump\t// out\n        /* \"contracts/LpPrice.sol\":8942:9006  address public BUSD = 0x78867BbEeF44f2326bF8DDd1941a4439382EF2A7 */\n    tag_22:\n      0x01\n      0x00\n      swap1\n      sload\n      swap1\n      0x0100\n      exp\n      swap1\n      div\n      0xffffffffffffffffffffffffffffffffffffffff\n      and\n      dup2\n      jump\t// out\n        /* \"contracts/LpPrice.sol\":9508:9616  function token0(IERC20 lpAddress) external view returns(address){\r... */\n    tag_26:\n        /* \"contracts/LpPrice.sol\":9564:9571  address */\n      0x00\n        /* \"contracts/LpPrice.sol\":9590:9599  lpAddress */\n      dup2\n        /* \"contracts/LpPrice.sol\":9590:9606  lpAddress.token0 */\n      0xffffffffffffffffffffffffffffffffffffffff\n      and\n      0x0dfe1681\n        /* \"contracts/LpPrice.sol\":9590:9608  lpAddress.token0() */\n      mload(0x40)\n      dup2\n      0xffffffff\n      and\n      0xe0\n      shl\n      dup2\n      mstore\n      0x04\n      add\n      0x20\n      mload(0x40)\n      dup1\n      dup4\n      sub\n      dup2\n      dup7\n      dup1\n      extcodesize\n      iszero\n      dup1\n      iszero\n      tag_53\n      jumpi\n      0x00\n      dup1\n      revert\n    tag_53:\n      pop\n      gas\n      staticcall\n      iszero\n      dup1\n      iszero\n      tag_55\n      jumpi\n      returndatasize\n      0x00\n      dup1\n      returndatacopy\n      revert(0x00, returndatasize)\n    tag_55:\n      pop\n      pop\n      pop\n      pop\n      mload(0x40)\n      returndatasize\n      not(0x1f)\n      0x1f\n      dup3\n      add\n      and\n      dup3\n      add\n      dup1\n      0x40\n      mstore\n      pop\n      dup2\n      add\n      swap1\n      tag_56\n      swap2\n      swap1\n      tag_51\n      jump\t// in\n    tag_56:\n        /* \"contracts/LpPrice.sol\":9583:9608  return lpAddress.token0() */\n      swap1\n      pop\n        /* \"contracts/LpPrice.sol\":9508:9616  function token0(IERC20 lpAddress) external view returns(address){\r... */\n      swap2\n      swap1\n      pop\n      jump\t// out\n        /* \"contracts/LpPrice.sol\":8871:8935  address public WBNB = 0xae13d989daC2f0dEbFf460aC112a837C89BAa7cd */\n    tag_29:\n      0x00\n      dup1\n      sload\n      swap1\n      0x0100\n      exp\n      swap1\n      div\n      0xffffffffffffffffffffffffffffffffffffffff\n      and\n      dup2\n      jump\t// out\n        /* \"contracts/LpPrice.sol\":9382:9500  function totalSupply(IERC20 lpAddress) external view returns(uint256){\r... */\n    tag_33:\n        /* \"contracts/LpPrice.sol\":9443:9450  uint256 */\n      0x00\n        /* \"contracts/LpPrice.sol\":9469:9478  lpAddress */\n      dup2\n        /* \"contracts/LpPrice.sol\":9469:9490  lpAddress.totalSupply */\n      0xffffffffffffffffffffffffffffffffffffffff\n      and\n      0x18160ddd\n        /* \"contracts/LpPrice.sol\":9469:9492  lpAddress.totalSupply() */\n      mload(0x40)\n      dup2\n      0xffffffff\n      and\n      0xe0\n      shl\n      dup2\n      mstore\n      0x04\n      add\n      0x20\n      mload(0x40)\n      dup1\n      dup4\n      sub\n      dup2\n      dup7\n      dup1\n      extcodesize\n      iszero\n      dup1\n      iszero\n      tag_58\n      jumpi\n      0x00\n      dup1\n      revert\n    tag_58:\n      pop\n      gas\n      staticcall\n      iszero\n      dup1\n      iszero\n      tag_60\n      jumpi\n      returndatasize\n      0x00\n      dup1\n      returndatacopy\n      revert(0x00, returndatasize)\n    tag_60:\n      pop\n      pop\n      pop\n      pop\n      mload(0x40)\n      returndatasize\n      not(0x1f)\n      0x1f\n      dup3\n      add\n      and\n      dup3\n      add\n      dup1\n      0x40\n      mstore\n      pop\n      dup2\n      add\n      swap1\n      tag_61\n      swap2\n      swap1\n      tag_62\n      jump\t// in\n    tag_61:\n        /* \"contracts/LpPrice.sol\":9462:9492  return lpAddress.totalSupply() */\n      swap1\n      pop\n        /* \"contracts/LpPrice.sol\":9382:9500  function totalSupply(IERC20 lpAddress) external view returns(uint256){\r... */\n      swap2\n      swap1\n      pop\n      jump\t// out\n        /* \"#utility.yul\":24:768   */\n    tag_64:\n        /* \"#utility.yul\":131:136   */\n      0x00\n        /* \"#utility.yul\":156:237   */\n      tag_66\n        /* \"#utility.yul\":172:236   */\n      tag_67\n        /* \"#utility.yul\":229:235   */\n      dup5\n        /* \"#utility.yul\":172:236   */\n      tag_68\n      jump\t// in\n    tag_67:\n        /* \"#utility.yul\":156:237   */\n      tag_69\n      jump\t// in\n    tag_66:\n        /* \"#utility.yul\":147:237   */\n      swap1\n      pop\n        /* \"#utility.yul\":257:262   */\n      dup1\n        /* \"#utility.yul\":286:292   */\n      dup4\n        /* \"#utility.yul\":279:284   */\n      dup3\n        /* \"#utility.yul\":272:293   */\n      mstore\n        /* \"#utility.yul\":320:324   */\n      0x20\n        /* \"#utility.yul\":313:318   */\n      dup3\n        /* \"#utility.yul\":309:325   */\n      add\n        /* \"#utility.yul\":302:325   */\n      swap1\n      pop\n        /* \"#utility.yul\":346:352   */\n      dup3\n        /* \"#utility.yul\":396:399   */\n      dup6\n        /* \"#utility.yul\":388:392   */\n      0x20\n        /* \"#utility.yul\":380:386   */\n      dup7\n        /* \"#utility.yul\":376:393   */\n      mul\n        /* \"#utility.yul\":371:374   */\n      dup3\n        /* \"#utility.yul\":367:394   */\n      add\n        /* \"#utility.yul\":364:400   */\n      gt\n        /* \"#utility.yul\":361:504   */\n      iszero\n      tag_70\n      jumpi\n        /* \"#utility.yul\":415:494   */\n      tag_71\n      tag_72\n      jump\t// in\n    tag_71:\n        /* \"#utility.yul\":361:504   */\n    tag_70:\n        /* \"#utility.yul\":528:529   */\n      0x00\n        /* \"#utility.yul\":513:762   */\n    tag_73:\n        /* \"#utility.yul\":538:544   */\n      dup6\n        /* \"#utility.yul\":535:536   */\n      dup2\n        /* \"#utility.yul\":532:545   */\n      lt\n        /* \"#utility.yul\":513:762   */\n      iszero\n      tag_75\n      jumpi\n        /* \"#utility.yul\":606:609   */\n      dup2\n        /* \"#utility.yul\":635:683   */\n      tag_76\n        /* \"#utility.yul\":679:682   */\n      dup9\n        /* \"#utility.yul\":667:677   */\n      dup3\n        /* \"#utility.yul\":635:683   */\n      tag_77\n      jump\t// in\n    tag_76:\n        /* \"#utility.yul\":630:633   */\n      dup5\n        /* \"#utility.yul\":623:684   */\n      mstore\n        /* \"#utility.yul\":713:717   */\n      0x20\n        /* \"#utility.yul\":708:711   */\n      dup5\n        /* \"#utility.yul\":704:718   */\n      add\n        /* \"#utility.yul\":697:718   */\n      swap4\n      pop\n        /* \"#utility.yul\":747:751   */\n      0x20\n        /* \"#utility.yul\":742:745   */\n      dup4\n        /* \"#utility.yul\":738:752   */\n      add\n        /* \"#utility.yul\":731:752   */\n      swap3\n      pop\n        /* \"#utility.yul\":573:762   */\n      pop\n        /* \"#utility.yul\":560:561   */\n      0x01\n        /* \"#utility.yul\":557:558   */\n      dup2\n        /* \"#utility.yul\":553:562   */\n      add\n        /* \"#utility.yul\":548:562   */\n      swap1\n      pop\n        /* \"#utility.yul\":513:762   */\n      jump(tag_73)\n    tag_75:\n        /* \"#utility.yul\":517:531   */\n      pop\n        /* \"#utility.yul\":137:768   */\n      pop\n      pop\n        /* \"#utility.yul\":24:768   */\n      swap4\n      swap3\n      pop\n      pop\n      pop\n      jump\t// out\n        /* \"#utility.yul\":774:913   */\n    tag_78:\n        /* \"#utility.yul\":820:825   */\n      0x00\n        /* \"#utility.yul\":858:864   */\n      dup2\n        /* \"#utility.yul\":845:865   */\n      calldataload\n        /* \"#utility.yul\":836:865   */\n      swap1\n      pop\n        /* \"#utility.yul\":874:907   */\n      tag_80\n        /* \"#utility.yul\":901:906   */\n      dup2\n        /* \"#utility.yul\":874:907   */\n      tag_81\n      jump\t// in\n    tag_80:\n        /* \"#utility.yul\":774:913   */\n      swap3\n      swap2\n      pop\n      pop\n      jump\t// out\n        /* \"#utility.yul\":919:1062   */\n    tag_82:\n        /* \"#utility.yul\":976:981   */\n      0x00\n        /* \"#utility.yul\":1007:1013   */\n      dup2\n        /* \"#utility.yul\":1001:1014   */\n      mload\n        /* \"#utility.yul\":992:1014   */\n      swap1\n      pop\n        /* \"#utility.yul\":1023:1056   */\n      tag_84\n        /* \"#utility.yul\":1050:1055   */\n      dup2\n        /* \"#utility.yul\":1023:1056   */\n      tag_81\n      jump\t// in\n    tag_84:\n        /* \"#utility.yul\":919:1062   */\n      swap3\n      swap2\n      pop\n      pop\n      jump\t// out\n        /* \"#utility.yul\":1085:1470   */\n    tag_85:\n        /* \"#utility.yul\":1167:1172   */\n      0x00\n        /* \"#utility.yul\":1216:1219   */\n      dup3\n        /* \"#utility.yul\":1209:1213   */\n      0x1f\n        /* \"#utility.yul\":1201:1207   */\n      dup4\n        /* \"#utility.yul\":1197:1214   */\n      add\n        /* \"#utility.yul\":1193:1220   */\n      slt\n        /* \"#utility.yul\":1183:1305   */\n      tag_87\n      jumpi\n        /* \"#utility.yul\":1224:1303   */\n      tag_88\n      tag_89\n      jump\t// in\n    tag_88:\n        /* \"#utility.yul\":1183:1305   */\n    tag_87:\n        /* \"#utility.yul\":1334:1340   */\n      dup2\n        /* \"#utility.yul\":1328:1341   */\n      mload\n        /* \"#utility.yul\":1359:1464   */\n      tag_90\n        /* \"#utility.yul\":1460:1463   */\n      dup5\n        /* \"#utility.yul\":1452:1458   */\n      dup3\n        /* \"#utility.yul\":1445:1449   */\n      0x20\n        /* \"#utility.yul\":1437:1443   */\n      dup7\n        /* \"#utility.yul\":1433:1450   */\n      add\n        /* \"#utility.yul\":1359:1464   */\n      tag_64\n      jump\t// in\n    tag_90:\n        /* \"#utility.yul\":1350:1464   */\n      swap2\n      pop\n        /* \"#utility.yul\":1173:1470   */\n      pop\n        /* \"#utility.yul\":1085:1470   */\n      swap3\n      swap2\n      pop\n      pop\n      jump\t// out\n        /* \"#utility.yul\":1476:1641   */\n    tag_91:\n        /* \"#utility.yul\":1535:1540   */\n      0x00\n        /* \"#utility.yul\":1573:1579   */\n      dup2\n        /* \"#utility.yul\":1560:1580   */\n      calldataload\n        /* \"#utility.yul\":1551:1580   */\n      swap1\n      pop\n        /* \"#utility.yul\":1589:1635   */\n      tag_93\n        /* \"#utility.yul\":1629:1634   */\n      dup2\n        /* \"#utility.yul\":1589:1635   */\n      tag_94\n      jump\t// in\n    tag_93:\n        /* \"#utility.yul\":1476:1641   */\n      swap3\n      swap2\n      pop\n      pop\n      jump\t// out\n        /* \"#utility.yul\":1647:1814   */\n    tag_95:\n        /* \"#utility.yul\":1707:1712   */\n      0x00\n        /* \"#utility.yul\":1745:1751   */\n      dup2\n        /* \"#utility.yul\":1732:1752   */\n      calldataload\n        /* \"#utility.yul\":1723:1752   */\n      swap1\n      pop\n        /* \"#utility.yul\":1761:1808   */\n      tag_97\n        /* \"#utility.yul\":1802:1807   */\n      dup2\n        /* \"#utility.yul\":1761:1808   */\n      tag_98\n      jump\t// in\n    tag_97:\n        /* \"#utility.yul\":1647:1814   */\n      swap3\n      swap2\n      pop\n      pop\n      jump\t// out\n        /* \"#utility.yul\":1820:1963   */\n    tag_77:\n        /* \"#utility.yul\":1877:1882   */\n      0x00\n        /* \"#utility.yul\":1908:1914   */\n      dup2\n        /* \"#utility.yul\":1902:1915   */\n      mload\n        /* \"#utility.yul\":1893:1915   */\n      swap1\n      pop\n        /* \"#utility.yul\":1924:1957   */\n      tag_100\n        /* \"#utility.yul\":1951:1956   */\n      dup2\n        /* \"#utility.yul\":1924:1957   */\n      tag_101\n      jump\t// in\n    tag_100:\n        /* \"#utility.yul\":1820:1963   */\n      swap3\n      swap2\n      pop\n      pop\n      jump\t// out\n        /* \"#utility.yul\":1969:2320   */\n    tag_51:\n        /* \"#utility.yul\":2039:2045   */\n      0x00\n        /* \"#utility.yul\":2088:2090   */\n      0x20\n        /* \"#utility.yul\":2076:2085   */\n      dup3\n        /* \"#utility.yul\":2067:2074   */\n      dup5\n        /* \"#utility.yul\":2063:2086   */\n      sub\n        /* \"#utility.yul\":2059:2091   */\n      slt\n        /* \"#utility.yul\":2056:2175   */\n      iszero\n      tag_103\n      jumpi\n        /* \"#utility.yul\":2094:2173   */\n      tag_104\n      tag_105\n      jump\t// in\n    tag_104:\n        /* \"#utility.yul\":2056:2175   */\n    tag_103:\n        /* \"#utility.yul\":2214:2215   */\n      0x00\n        /* \"#utility.yul\":2239:2303   */\n      tag_106\n        /* \"#utility.yul\":2295:2302   */\n      dup5\n        /* \"#utility.yul\":2286:2292   */\n      dup3\n        /* \"#utility.yul\":2275:2284   */\n      dup6\n        /* \"#utility.yul\":2271:2293   */\n      add\n        /* \"#utility.yul\":2239:2303   */\n      tag_82\n      jump\t// in\n    tag_106:\n        /* \"#utility.yul\":2229:2303   */\n      swap2\n      pop\n        /* \"#utility.yul\":2185:2313   */\n      pop\n        /* \"#utility.yul\":1969:2320   */\n      swap3\n      swap2\n      pop\n      pop\n      jump\t// out\n        /* \"#utility.yul\":2326:2880   */\n    tag_42:\n        /* \"#utility.yul\":2421:2427   */\n      0x00\n        /* \"#utility.yul\":2470:2472   */\n      0x20\n        /* \"#utility.yul\":2458:2467   */\n      dup3\n        /* \"#utility.yul\":2449:2456   */\n      dup5\n        /* \"#utility.yul\":2445:2468   */\n      sub\n        /* \"#utility.yul\":2441:2473   */\n      slt\n        /* \"#utility.yul\":2438:2557   */\n      iszero\n      tag_108\n      jumpi\n        /* \"#utility.yul\":2476:2555   */\n      tag_109\n      tag_105\n      jump\t// in\n    tag_109:\n        /* \"#utility.yul\":2438:2557   */\n    tag_108:\n        /* \"#utility.yul\":2617:2618   */\n      0x00\n        /* \"#utility.yul\":2606:2615   */\n      dup3\n        /* \"#utility.yul\":2602:2619   */\n      add\n        /* \"#utility.yul\":2596:2620   */\n      mload\n        /* \"#utility.yul\":2647:2665   */\n      0xffffffffffffffff\n        /* \"#utility.yul\":2639:2645   */\n      dup2\n        /* \"#utility.yul\":2636:2666   */\n      gt\n        /* \"#utility.yul\":2633:2750   */\n      iszero\n      tag_110\n      jumpi\n        /* \"#utility.yul\":2669:2748   */\n      tag_111\n      tag_112\n      jump\t// in\n    tag_111:\n        /* \"#utility.yul\":2633:2750   */\n    tag_110:\n        /* \"#utility.yul\":2774:2863   */\n      tag_113\n        /* \"#utility.yul\":2855:2862   */\n      dup5\n        /* \"#utility.yul\":2846:2852   */\n      dup3\n        /* \"#utility.yul\":2835:2844   */\n      dup6\n        /* \"#utility.yul\":2831:2853   */\n      add\n        /* \"#utility.yul\":2774:2863   */\n      tag_85\n      jump\t// in\n    tag_113:\n        /* \"#utility.yul\":2764:2863   */\n      swap2\n      pop\n        /* \"#utility.yul\":2567:2873   */\n      pop\n        /* \"#utility.yul\":2326:2880   */\n      swap3\n      swap2\n      pop\n      pop\n      jump\t// out\n        /* \"#utility.yul\":2886:3241   */\n    tag_17:\n        /* \"#utility.yul\":2958:2964   */\n      0x00\n        /* \"#utility.yul\":3007:3009   */\n      0x20\n        /* \"#utility.yul\":2995:3004   */\n      dup3\n        /* \"#utility.yul\":2986:2993   */\n      dup5\n        /* \"#utility.yul\":2982:3005   */\n      sub\n        /* \"#utility.yul\":2978:3010   */\n      slt\n        /* \"#utility.yul\":2975:3094   */\n      iszero\n      tag_115\n      jumpi\n        /* \"#utility.yul\":3013:3092   */\n      tag_116\n      tag_105\n      jump\t// in\n    tag_116:\n        /* \"#utility.yul\":2975:3094   */\n    tag_115:\n        /* \"#utility.yul\":3133:3134   */\n      0x00\n        /* \"#utility.yul\":3158:3224   */\n      tag_117\n        /* \"#utility.yul\":3216:3223   */\n      dup5\n        /* \"#utility.yul\":3207:3213   */\n      dup3\n        /* \"#utility.yul\":3196:3205   */\n      dup6\n        /* \"#utility.yul\":3192:3214   */\n      add\n        /* \"#utility.yul\":3158:3224   */\n      tag_91\n      jump\t// in\n    tag_117:\n        /* \"#utility.yul\":3148:3224   */\n      swap2\n      pop\n        /* \"#utility.yul\":3104:3234   */\n      pop\n        /* \"#utility.yul\":2886:3241   */\n      swap3\n      swap2\n      pop\n      pop\n      jump\t// out\n        /* \"#utility.yul\":3247:3749   */\n    tag_11:\n        /* \"#utility.yul\":3329:3335   */\n      0x00\n        /* \"#utility.yul\":3337:3343   */\n      dup1\n        /* \"#utility.yul\":3386:3388   */\n      0x40\n        /* \"#utility.yul\":3374:3383   */\n      dup4\n        /* \"#utility.yul\":3365:3372   */\n      dup6\n        /* \"#utility.yul\":3361:3384   */\n      sub\n        /* \"#utility.yul\":3357:3389   */\n      slt\n        /* \"#utility.yul\":3354:3473   */\n      iszero\n      tag_119\n      jumpi\n        /* \"#utility.yul\":3392:3471   */\n      tag_120\n      tag_105\n      jump\t// in\n    tag_120:\n        /* \"#utility.yul\":3354:3473   */\n    tag_119:\n        /* \"#utility.yul\":3512:3513   */\n      0x00\n        /* \"#utility.yul\":3537:3604   */\n      tag_121\n        /* \"#utility.yul\":3596:3603   */\n      dup6\n        /* \"#utility.yul\":3587:3593   */\n      dup3\n        /* \"#utility.yul\":3576:3585   */\n      dup7\n        /* \"#utility.yul\":3572:3594   */\n      add\n        /* \"#utility.yul\":3537:3604   */\n      tag_95\n      jump\t// in\n    tag_121:\n        /* \"#utility.yul\":3527:3604   */\n      swap3\n      pop\n        /* \"#utility.yul\":3483:3614   */\n      pop\n        /* \"#utility.yul\":3653:3655   */\n      0x20\n        /* \"#utility.yul\":3679:3732   */\n      tag_122\n        /* \"#utility.yul\":3724:3731   */\n      dup6\n        /* \"#utility.yul\":3715:3721   */\n      dup3\n        /* \"#utility.yul\":3704:3713   */\n      dup7\n        /* \"#utility.yul\":3700:3722   */\n      add\n        /* \"#utility.yul\":3679:3732   */\n      tag_78\n      jump\t// in\n    tag_122:\n        /* \"#utility.yul\":3669:3732   */\n      swap2\n      pop\n        /* \"#utility.yul\":3624:3742   */\n      pop\n        /* \"#utility.yul\":3247:3749   */\n      swap3\n      pop\n      swap3\n      swap1\n      pop\n      jump\t// out\n        /* \"#utility.yul\":3755:4106   */\n    tag_62:\n        /* \"#utility.yul\":3825:3831   */\n      0x00\n        /* \"#utility.yul\":3874:3876   */\n      0x20\n        /* \"#utility.yul\":3862:3871   */\n      dup3\n        /* \"#utility.yul\":3853:3860   */\n      dup5\n        /* \"#utility.yul\":3849:3872   */\n      sub\n        /* \"#utility.yul\":3845:3877   */\n      slt\n        /* \"#utility.yul\":3842:3961   */\n      iszero\n      tag_124\n      jumpi\n        /* \"#utility.yul\":3880:3959   */\n      tag_125\n      tag_105\n      jump\t// in\n    tag_125:\n        /* \"#utility.yul\":3842:3961   */\n    tag_124:\n        /* \"#utility.yul\":4000:4001   */\n      0x00\n        /* \"#utility.yul\":4025:4089   */\n      tag_126\n        /* \"#utility.yul\":4081:4088   */\n      dup5\n        /* \"#utility.yul\":4072:4078   */\n      dup3\n        /* \"#utility.yul\":4061:4070   */\n      dup6\n        /* \"#utility.yul\":4057:4079   */\n      add\n        /* \"#utility.yul\":4025:4089   */\n      tag_77\n      jump\t// in\n    tag_126:\n        /* \"#utility.yul\":4015:4089   */\n      swap2\n      pop\n        /* \"#utility.yul\":3971:4099   */\n      pop\n        /* \"#utility.yul\":3755:4106   */\n      swap3\n      swap2\n      pop\n      pop\n      jump\t// out\n        /* \"#utility.yul\":4112:4291   */\n    tag_127:\n        /* \"#utility.yul\":4181:4191   */\n      0x00\n        /* \"#utility.yul\":4202:4248   */\n      tag_129\n        /* \"#utility.yul\":4244:4247   */\n      dup4\n        /* \"#utility.yul\":4236:4242   */\n      dup4\n        /* \"#utility.yul\":4202:4248   */\n      tag_130\n      jump\t// in\n    tag_129:\n        /* \"#utility.yul\":4280:4284   */\n      0x20\n        /* \"#utility.yul\":4275:4278   */\n      dup4\n        /* \"#utility.yul\":4271:4285   */\n      add\n        /* \"#utility.yul\":4257:4285   */\n      swap1\n      pop\n        /* \"#utility.yul\":4112:4291   */\n      swap3\n      swap2\n      pop\n      pop\n      jump\t// out\n        /* \"#utility.yul\":4297:4405   */\n    tag_130:\n        /* \"#utility.yul\":4374:4398   */\n      tag_132\n        /* \"#utility.yul\":4392:4397   */\n      dup2\n        /* \"#utility.yul\":4374:4398   */\n      tag_133\n      jump\t// in\n    tag_132:\n        /* \"#utility.yul\":4369:4372   */\n      dup3\n        /* \"#utility.yul\":4362:4399   */\n      mstore\n        /* \"#utility.yul\":4297:4405   */\n      pop\n      pop\n      jump\t// out\n        /* \"#utility.yul\":4411:4529   */\n    tag_134:\n        /* \"#utility.yul\":4498:4522   */\n      tag_136\n        /* \"#utility.yul\":4516:4521   */\n      dup2\n        /* \"#utility.yul\":4498:4522   */\n      tag_133\n      jump\t// in\n    tag_136:\n        /* \"#utility.yul\":4493:4496   */\n      dup3\n        /* \"#utility.yul\":4486:4523   */\n      mstore\n        /* \"#utility.yul\":4411:4529   */\n      pop\n      pop\n      jump\t// out\n        /* \"#utility.yul\":4567:5261   */\n    tag_137:\n        /* \"#utility.yul\":4703:4755   */\n      tag_139\n        /* \"#utility.yul\":4749:4754   */\n      dup2\n        /* \"#utility.yul\":4703:4755   */\n      tag_140\n      jump\t// in\n    tag_139:\n        /* \"#utility.yul\":4771:4855   */\n      tag_141\n        /* \"#utility.yul\":4848:4854   */\n      dup2\n        /* \"#utility.yul\":4843:4846   */\n      dup5\n        /* \"#utility.yul\":4771:4855   */\n      tag_142\n      jump\t// in\n    tag_141:\n        /* \"#utility.yul\":4764:4855   */\n      swap3\n      pop\n        /* \"#utility.yul\":4879:4933   */\n      tag_143\n        /* \"#utility.yul\":4927:4932   */\n      dup3\n        /* \"#utility.yul\":4879:4933   */\n      tag_144\n      jump\t// in\n    tag_143:\n        /* \"#utility.yul\":4956:4963   */\n      dup1\n        /* \"#utility.yul\":4987:4988   */\n      0x00\n        /* \"#utility.yul\":4972:5254   */\n    tag_145:\n        /* \"#utility.yul\":4997:5003   */\n      dup4\n        /* \"#utility.yul\":4994:4995   */\n      dup2\n        /* \"#utility.yul\":4991:5004   */\n      lt\n        /* \"#utility.yul\":4972:5254   */\n      iszero\n      tag_147\n      jumpi\n        /* \"#utility.yul\":5073:5079   */\n      dup2\n        /* \"#utility.yul\":5067:5080   */\n      mload\n        /* \"#utility.yul\":5100:5163   */\n      tag_148\n        /* \"#utility.yul\":5159:5162   */\n      dup8\n        /* \"#utility.yul\":5144:5157   */\n      dup3\n        /* \"#utility.yul\":5100:5163   */\n      tag_127\n      jump\t// in\n    tag_148:\n        /* \"#utility.yul\":5093:5163   */\n      swap7\n      pop\n        /* \"#utility.yul\":5186:5244   */\n      tag_149\n        /* \"#utility.yul\":5237:5243   */\n      dup4\n        /* \"#utility.yul\":5186:5244   */\n      tag_150\n      jump\t// in\n    tag_149:\n        /* \"#utility.yul\":5176:5244   */\n      swap3\n      pop\n        /* \"#utility.yul\":5032:5254   */\n      pop\n        /* \"#utility.yul\":5019:5020   */\n      0x01\n        /* \"#utility.yul\":5016:5017   */\n      dup2\n        /* \"#utility.yul\":5012:5021   */\n      add\n        /* \"#utility.yul\":5007:5021   */\n      swap1\n      pop\n        /* \"#utility.yul\":4972:5254   */\n      jump(tag_145)\n    tag_147:\n        /* \"#utility.yul\":4976:4990   */\n      pop\n        /* \"#utility.yul\":4679:5261   */\n      pop\n      pop\n      pop\n        /* \"#utility.yul\":4567:5261   */\n      pop\n      pop\n      jump\t// out\n        /* \"#utility.yul\":5267:5385   */\n    tag_151:\n        /* \"#utility.yul\":5354:5378   */\n      tag_153\n        /* \"#utility.yul\":5372:5377   */\n      dup2\n        /* \"#utility.yul\":5354:5378   */\n      tag_154\n      jump\t// in\n    tag_153:\n        /* \"#utility.yul\":5349:5352   */\n      dup3\n        /* \"#utility.yul\":5342:5379   */\n      mstore\n        /* \"#utility.yul\":5267:5385   */\n      pop\n      pop\n      jump\t// out\n        /* \"#utility.yul\":5391:5613   */\n    tag_20:\n        /* \"#utility.yul\":5484:5488   */\n      0x00\n        /* \"#utility.yul\":5522:5524   */\n      0x20\n        /* \"#utility.yul\":5511:5520   */\n      dup3\n        /* \"#utility.yul\":5507:5525   */\n      add\n        /* \"#utility.yul\":5499:5525   */\n      swap1\n      pop\n        /* \"#utility.yul\":5535:5606   */\n      tag_156\n        /* \"#utility.yul\":5603:5604   */\n      0x00\n        /* \"#utility.yul\":5592:5601   */\n      dup4\n        /* \"#utility.yul\":5588:5605   */\n      add\n        /* \"#utility.yul\":5579:5585   */\n      dup5\n        /* \"#utility.yul\":5535:5606   */\n      tag_134\n      jump\t// in\n    tag_156:\n        /* \"#utility.yul\":5391:5613   */\n      swap3\n      swap2\n      pop\n      pop\n      jump\t// out\n        /* \"#utility.yul\":5619:5841   */\n    tag_14:\n        /* \"#utility.yul\":5712:5716   */\n      0x00\n        /* \"#utility.yul\":5750:5752   */\n      0x20\n        /* \"#utility.yul\":5739:5748   */\n      dup3\n        /* \"#utility.yul\":5735:5753   */\n      add\n        /* \"#utility.yul\":5727:5753   */\n      swap1\n      pop\n        /* \"#utility.yul\":5763:5834   */\n      tag_158\n        /* \"#utility.yul\":5831:5832   */\n      0x00\n        /* \"#utility.yul\":5820:5829   */\n      dup4\n        /* \"#utility.yul\":5816:5833   */\n      add\n        /* \"#utility.yul\":5807:5813   */\n      dup5\n        /* \"#utility.yul\":5763:5834   */\n      tag_151\n      jump\t// in\n    tag_158:\n        /* \"#utility.yul\":5619:5841   */\n      swap3\n      swap2\n      pop\n      pop\n      jump\t// out\n        /* \"#utility.yul\":5847:6272   */\n    tag_37:\n        /* \"#utility.yul\":6014:6018   */\n      0x00\n        /* \"#utility.yul\":6052:6055   */\n      0x80\n        /* \"#utility.yul\":6041:6050   */\n      dup3\n        /* \"#utility.yul\":6037:6056   */\n      add\n        /* \"#utility.yul\":6029:6056   */\n      swap1\n      pop\n        /* \"#utility.yul\":6066:6137   */\n      tag_160\n        /* \"#utility.yul\":6134:6135   */\n      0x00\n        /* \"#utility.yul\":6123:6132   */\n      dup4\n        /* \"#utility.yul\":6119:6136   */\n      add\n        /* \"#utility.yul\":6110:6116   */\n      dup6\n        /* \"#utility.yul\":6066:6137   */\n      tag_151\n      jump\t// in\n    tag_160:\n        /* \"#utility.yul\":6147:6265   */\n      tag_161\n        /* \"#utility.yul\":6261:6263   */\n      0x20\n        /* \"#utility.yul\":6250:6259   */\n      dup4\n        /* \"#utility.yul\":6246:6264   */\n      add\n        /* \"#utility.yul\":6237:6243   */\n      dup5\n        /* \"#utility.yul\":6147:6265   */\n      tag_137\n      jump\t// in\n    tag_161:\n        /* \"#utility.yul\":5847:6272   */\n      swap4\n      swap3\n      pop\n      pop\n      pop\n      jump\t// out\n        /* \"#utility.yul\":6278:6407   */\n    tag_69:\n        /* \"#utility.yul\":6312:6318   */\n      0x00\n        /* \"#utility.yul\":6339:6359   */\n      tag_163\n      tag_164\n      jump\t// in\n    tag_163:\n        /* \"#utility.yul\":6329:6359   */\n      swap1\n      pop\n        /* \"#utility.yul\":6368:6401   */\n      tag_165\n        /* \"#utility.yul\":6396:6400   */\n      dup3\n        /* \"#utility.yul\":6388:6394   */\n      dup3\n        /* \"#utility.yul\":6368:6401   */\n      tag_166\n      jump\t// in\n    tag_165:\n        /* \"#utility.yul\":6278:6407   */\n      swap2\n      swap1\n      pop\n      jump\t// out\n        /* \"#utility.yul\":6413:6488   */\n    tag_164:\n        /* \"#utility.yul\":6446:6452   */\n      0x00\n        /* \"#utility.yul\":6479:6481   */\n      0x40\n        /* \"#utility.yul\":6473:6482   */\n      mload\n        /* \"#utility.yul\":6463:6482   */\n      swap1\n      pop\n        /* \"#utility.yul\":6413:6488   */\n      swap1\n      jump\t// out\n        /* \"#utility.yul\":6494:6805   */\n    tag_68:\n        /* \"#utility.yul\":6571:6575   */\n      0x00\n        /* \"#utility.yul\":6661:6679   */\n      0xffffffffffffffff\n        /* \"#utility.yul\":6653:6659   */\n      dup3\n        /* \"#utility.yul\":6650:6680   */\n      gt\n        /* \"#utility.yul\":6647:6703   */\n      iszero\n      tag_169\n      jumpi\n        /* \"#utility.yul\":6683:6701   */\n      tag_170\n      tag_171\n      jump\t// in\n    tag_170:\n        /* \"#utility.yul\":6647:6703   */\n    tag_169:\n        /* \"#utility.yul\":6733:6737   */\n      0x20\n        /* \"#utility.yul\":6725:6731   */\n      dup3\n        /* \"#utility.yul\":6721:6738   */\n      mul\n        /* \"#utility.yul\":6713:6738   */\n      swap1\n      pop\n        /* \"#utility.yul\":6793:6797   */\n      0x20\n        /* \"#utility.yul\":6787:6791   */\n      dup2\n        /* \"#utility.yul\":6783:6798   */\n      add\n        /* \"#utility.yul\":6775:6798   */\n      swap1\n      pop\n        /* \"#utility.yul\":6494:6805   */\n      swap2\n      swap1\n      pop\n      jump\t// out\n        /* \"#utility.yul\":6811:6909   */\n    tag_144:\n        /* \"#utility.yul\":6876:6880   */\n      0x00\n        /* \"#utility.yul\":6899:6902   */\n      dup2\n        /* \"#utility.yul\":6891:6902   */\n      swap1\n      pop\n        /* \"#utility.yul\":6811:6909   */\n      swap2\n      swap1\n      pop\n      jump\t// out\n        /* \"#utility.yul\":6915:7019   */\n    tag_140:\n        /* \"#utility.yul\":6980:6986   */\n      0x00\n        /* \"#utility.yul\":7008:7012   */\n      0x03\n        /* \"#utility.yul\":6998:7012   */\n      swap1\n      pop\n        /* \"#utility.yul\":6915:7019   */\n      swap2\n      swap1\n      pop\n      jump\t// out\n        /* \"#utility.yul\":7025:7136   */\n    tag_150:\n        /* \"#utility.yul\":7093:7097   */\n      0x00\n        /* \"#utility.yul\":7125:7129   */\n      0x20\n        /* \"#utility.yul\":7120:7123   */\n      dup3\n        /* \"#utility.yul\":7116:7130   */\n      add\n        /* \"#utility.yul\":7108:7130   */\n      swap1\n      pop\n        /* \"#utility.yul\":7025:7136   */\n      swap2\n      swap1\n      pop\n      jump\t// out\n        /* \"#utility.yul\":7142:7285   */\n    tag_142:\n        /* \"#utility.yul\":7239:7250   */\n      0x00\n        /* \"#utility.yul\":7276:7279   */\n      dup2\n        /* \"#utility.yul\":7261:7279   */\n      swap1\n      pop\n        /* \"#utility.yul\":7142:7285   */\n      swap3\n      swap2\n      pop\n      pop\n      jump\t// out\n        /* \"#utility.yul\":7291:7387   */\n    tag_133:\n        /* \"#utility.yul\":7328:7335   */\n      0x00\n        /* \"#utility.yul\":7357:7381   */\n      tag_177\n        /* \"#utility.yul\":7375:7380   */\n      dup3\n        /* \"#utility.yul\":7357:7381   */\n      tag_178\n      jump\t// in\n    tag_177:\n        /* \"#utility.yul\":7346:7381   */\n      swap1\n      pop\n        /* \"#utility.yul\":7291:7387   */\n      swap2\n      swap1\n      pop\n      jump\t// out\n        /* \"#utility.yul\":7393:7502   */\n    tag_179:\n        /* \"#utility.yul\":7443:7450   */\n      0x00\n        /* \"#utility.yul\":7472:7496   */\n      tag_181\n        /* \"#utility.yul\":7490:7495   */\n      dup3\n        /* \"#utility.yul\":7472:7496   */\n      tag_133\n      jump\t// in\n    tag_181:\n        /* \"#utility.yul\":7461:7496   */\n      swap1\n      pop\n        /* \"#utility.yul\":7393:7502   */\n      swap2\n      swap1\n      pop\n      jump\t// out\n        /* \"#utility.yul\":7508:7618   */\n    tag_182:\n        /* \"#utility.yul\":7559:7566   */\n      0x00\n        /* \"#utility.yul\":7588:7612   */\n      tag_184\n        /* \"#utility.yul\":7606:7611   */\n      dup3\n        /* \"#utility.yul\":7588:7612   */\n      tag_133\n      jump\t// in\n    tag_184:\n        /* \"#utility.yul\":7577:7612   */\n      swap1\n      pop\n        /* \"#utility.yul\":7508:7618   */\n      swap2\n      swap1\n      pop\n      jump\t// out\n        /* \"#utility.yul\":7624:7750   */\n    tag_178:\n        /* \"#utility.yul\":7661:7668   */\n      0x00\n        /* \"#utility.yul\":7701:7743   */\n      0xffffffffffffffffffffffffffffffffffffffff\n        /* \"#utility.yul\":7694:7699   */\n      dup3\n        /* \"#utility.yul\":7690:7744   */\n      and\n        /* \"#utility.yul\":7679:7744   */\n      swap1\n      pop\n        /* \"#utility.yul\":7624:7750   */\n      swap2\n      swap1\n      pop\n      jump\t// out\n        /* \"#utility.yul\":7756:7833   */\n    tag_154:\n        /* \"#utility.yul\":7793:7800   */\n      0x00\n        /* \"#utility.yul\":7822:7827   */\n      dup2\n        /* \"#utility.yul\":7811:7827   */\n      swap1\n      pop\n        /* \"#utility.yul\":7756:7833   */\n      swap2\n      swap1\n      pop\n      jump\t// out\n        /* \"#utility.yul\":7839:8120   */\n    tag_166:\n        /* \"#utility.yul\":7922:7949   */\n      tag_188\n        /* \"#utility.yul\":7944:7948   */\n      dup3\n        /* \"#utility.yul\":7922:7949   */\n      tag_189\n      jump\t// in\n    tag_188:\n        /* \"#utility.yul\":7914:7920   */\n      dup2\n        /* \"#utility.yul\":7910:7950   */\n      add\n        /* \"#utility.yul\":8052:8058   */\n      dup2\n        /* \"#utility.yul\":8040:8050   */\n      dup2\n        /* \"#utility.yul\":8037:8059   */\n      lt\n        /* \"#utility.yul\":8016:8034   */\n      0xffffffffffffffff\n        /* \"#utility.yul\":8004:8014   */\n      dup3\n        /* \"#utility.yul\":8001:8035   */\n      gt\n        /* \"#utility.yul\":7998:8060   */\n      or\n        /* \"#utility.yul\":7995:8083   */\n      iszero\n      tag_190\n      jumpi\n        /* \"#utility.yul\":8063:8081   */\n      tag_191\n      tag_171\n      jump\t// in\n    tag_191:\n        /* \"#utility.yul\":7995:8083   */\n    tag_190:\n        /* \"#utility.yul\":8103:8113   */\n      dup1\n        /* \"#utility.yul\":8099:8101   */\n      0x40\n        /* \"#utility.yul\":8092:8114   */\n      mstore\n        /* \"#utility.yul\":7882:8120   */\n      pop\n        /* \"#utility.yul\":7839:8120   */\n      pop\n      pop\n      jump\t// out\n        /* \"#utility.yul\":8126:8306   */\n    tag_45:\n        /* \"#utility.yul\":8174:8251   */\n      0x4e487b7100000000000000000000000000000000000000000000000000000000\n        /* \"#utility.yul\":8171:8172   */\n      0x00\n        /* \"#utility.yul\":8164:8252   */\n      mstore\n        /* \"#utility.yul\":8271:8275   */\n      0x32\n        /* \"#utility.yul\":8268:8269   */\n      0x04\n        /* \"#utility.yul\":8261:8276   */\n      mstore\n        /* \"#utility.yul\":8295:8299   */\n      0x24\n        /* \"#utility.yul\":8292:8293   */\n      0x00\n        /* \"#utility.yul\":8285:8300   */\n      revert\n        /* \"#utility.yul\":8312:8492   */\n    tag_171:\n        /* \"#utility.yul\":8360:8437   */\n      0x4e487b7100000000000000000000000000000000000000000000000000000000\n        /* \"#utility.yul\":8357:8358   */\n      0x00\n        /* \"#utility.yul\":8350:8438   */\n      mstore\n        /* \"#utility.yul\":8457:8461   */\n      0x41\n        /* \"#utility.yul\":8454:8455   */\n      0x04\n        /* \"#utility.yul\":8447:8462   */\n      mstore\n        /* \"#utility.yul\":8481:8485   */\n      0x24\n        /* \"#utility.yul\":8478:8479   */\n      0x00\n        /* \"#utility.yul\":8471:8486   */\n      revert\n        /* \"#utility.yul\":8498:8615   */\n    tag_89:\n        /* \"#utility.yul\":8607:8608   */\n      0x00\n        /* \"#utility.yul\":8604:8605   */\n      dup1\n        /* \"#utility.yul\":8597:8609   */\n      revert\n        /* \"#utility.yul\":8621:8738   */\n    tag_72:\n        /* \"#utility.yul\":8730:8731   */\n      0x00\n        /* \"#utility.yul\":8727:8728   */\n      dup1\n        /* \"#utility.yul\":8720:8732   */\n      revert\n        /* \"#utility.yul\":8744:8861   */\n    tag_112:\n        /* \"#utility.yul\":8853:8854   */\n      0x00\n        /* \"#utility.yul\":8850:8851   */\n      dup1\n        /* \"#utility.yul\":8843:8855   */\n      revert\n        /* \"#utility.yul\":8867:8984   */\n    tag_105:\n        /* \"#utility.yul\":8976:8977   */\n      0x00\n        /* \"#utility.yul\":8973:8974   */\n      dup1\n        /* \"#utility.yul\":8966:8978   */\n      revert\n        /* \"#utility.yul\":8990:9092   */\n    tag_189:\n        /* \"#utility.yul\":9031:9037   */\n      0x00\n        /* \"#utility.yul\":9082:9084   */\n      0x1f\n        /* \"#utility.yul\":9078:9085   */\n      not\n        /* \"#utility.yul\":9073:9075   */\n      0x1f\n        /* \"#utility.yul\":9066:9071   */\n      dup4\n        /* \"#utility.yul\":9062:9076   */\n      add\n        /* \"#utility.yul\":9058:9086   */\n      and\n        /* \"#utility.yul\":9048:9086   */\n      swap1\n      pop\n        /* \"#utility.yul\":8990:9092   */\n      swap2\n      swap1\n      pop\n      jump\t// out\n        /* \"#utility.yul\":9098:9220   */\n    tag_81:\n        /* \"#utility.yul\":9171:9195   */\n      tag_200\n        /* \"#utility.yul\":9189:9194   */\n      dup2\n        /* \"#utility.yul\":9171:9195   */\n      tag_133\n      jump\t// in\n    tag_200:\n        /* \"#utility.yul\":9164:9169   */\n      dup2\n        /* \"#utility.yul\":9161:9196   */\n      eq\n        /* \"#utility.yul\":9151:9214   */\n      tag_201\n      jumpi\n        /* \"#utility.yul\":9210:9211   */\n      0x00\n        /* \"#utility.yul\":9207:9208   */\n      dup1\n        /* \"#utility.yul\":9200:9212   */\n      revert\n        /* \"#utility.yul\":9151:9214   */\n    tag_201:\n        /* \"#utility.yul\":9098:9220   */\n      pop\n      jump\t// out\n        /* \"#utility.yul\":9226:9374   */\n    tag_94:\n        /* \"#utility.yul\":9312:9349   */\n      tag_203\n        /* \"#utility.yul\":9343:9348   */\n      dup2\n        /* \"#utility.yul\":9312:9349   */\n      tag_179\n      jump\t// in\n    tag_203:\n        /* \"#utility.yul\":9305:9310   */\n      dup2\n        /* \"#utility.yul\":9302:9350   */\n      eq\n        /* \"#utility.yul\":9292:9368   */\n      tag_204\n      jumpi\n        /* \"#utility.yul\":9364:9365   */\n      0x00\n        /* \"#utility.yul\":9361:9362   */\n      dup1\n        /* \"#utility.yul\":9354:9366   */\n      revert\n        /* \"#utility.yul\":9292:9368   */\n    tag_204:\n        /* \"#utility.yul\":9226:9374   */\n      pop\n      jump\t// out\n        /* \"#utility.yul\":9380:9530   */\n    tag_98:\n        /* \"#utility.yul\":9467:9505   */\n      tag_206\n        /* \"#utility.yul\":9499:9504   */\n      dup2\n        /* \"#utility.yul\":9467:9505   */\n      tag_182\n      jump\t// in\n    tag_206:\n        /* \"#utility.yul\":9460:9465   */\n      dup2\n        /* \"#utility.yul\":9457:9506   */\n      eq\n        /* \"#utility.yul\":9447:9524   */\n      tag_207\n      jumpi\n        /* \"#utility.yul\":9520:9521   */\n      0x00\n        /* \"#utility.yul\":9517:9518   */\n      dup1\n        /* \"#utility.yul\":9510:9522   */\n      revert\n        /* \"#utility.yul\":9447:9524   */\n    tag_207:\n        /* \"#utility.yul\":9380:9530   */\n      pop\n      jump\t// out\n        /* \"#utility.yul\":9536:9658   */\n    tag_101:\n        /* \"#utility.yul\":9609:9633   */\n      tag_209\n        /* \"#utility.yul\":9627:9632   */\n      dup2\n        /* \"#utility.yul\":9609:9633   */\n      tag_154\n      jump\t// in\n    tag_209:\n        /* \"#utility.yul\":9602:9607   */\n      dup2\n        /* \"#utility.yul\":9599:9634   */\n      eq\n        /* \"#utility.yul\":9589:9652   */\n      tag_210\n      jumpi\n        /* \"#utility.yul\":9648:9649   */\n      0x00\n        /* \"#utility.yul\":9645:9646   */\n      dup1\n        /* \"#utility.yul\":9638:9650   */\n      revert\n        /* \"#utility.yul\":9589:9652   */\n    tag_210:\n        /* \"#utility.yul\":9536:9658   */\n      pop\n      jump\t// out\n\n    auxdata: 0xa2646970667358221220842c57154bed3dd05c10dc8f25e5e010555beac628ce71d6fceec7332de68f6a64736f6c63430008070033\n}\n",
				"bytecode": {
					"linkReferences": {},
					"object": "608060405273ae13d989dac2f0debff460ac112a837c89baa7cd6000806101000a81548173ffffffffffffffffffffffffffffffffffffffff021916908373ffffffffffffffffffffffffffffffffffffffff1602179055507378867bbeef44f2326bf8ddd1941a4439382ef2a7600160006101000a81548173ffffffffffffffffffffffffffffffffffffffff021916908373ffffffffffffffffffffffffffffffffffffffff160217905550670de0b6b3a76400006002553480156100c557600080fd5b50610a0f806100d56000396000f3fe608060405234801561001057600080fd5b50600436106100625760003560e01c80632b00490d146100675780633782379514610097578063484f4ea9146100c757806376bf39a3146100e55780638dd9500214610115578063e4dc2aa414610133575b600080fd5b610081600480360381019061007c9190610683565b610163565b60405161008e91906107a7565b60405180910390f35b6100b160048036038101906100ac9190610656565b6102fa565b6040516100be919061078c565b60405180910390f35b6100cf610381565b6040516100dc919061078c565b60405180910390f35b6100ff60048036038101906100fa9190610656565b6103a7565b60405161010c919061078c565b60405180910390f35b61011d61042e565b60405161012a919061078c565b60405180910390f35b61014d60048036038101906101489190610656565b610452565b60405161015a91906107a7565b60405180910390f35b60008273ffffffffffffffffffffffffffffffffffffffff166357d7692a60025460405180606001604052808673ffffffffffffffffffffffffffffffffffffffff1673ffffffffffffffffffffffffffffffffffffffff16815260200160008054906101000a900473ffffffffffffffffffffffffffffffffffffffff1673ffffffffffffffffffffffffffffffffffffffff1673ffffffffffffffffffffffffffffffffffffffff168152602001600160009054906101000a900473ffffffffffffffffffffffffffffffffffffffff1673ffffffffffffffffffffffffffffffffffffffff1673ffffffffffffffffffffffffffffffffffffffff168152506040518363ffffffff1660e01b81526004016102829291906107c2565b60006040518083038186803b15801561029a57600080fd5b505afa1580156102ae573d6000803e3d6000fd5b505050506040513d6000823e3d601f19601f820116820180604052508101906102d7919061060d565b6002815181106102ea576102e96108fa565b5b6020026020010151905092915050565b60008173ffffffffffffffffffffffffffffffffffffffff1663d21220a76040518163ffffffff1660e01b815260040160206040518083038186803b15801561034257600080fd5b505afa158015610356573d6000803e3d6000fd5b505050506040513d601f19601f8201168201806040525081019061037a91906105e0565b9050919050565b600160009054906101000a900473ffffffffffffffffffffffffffffffffffffffff1681565b60008173ffffffffffffffffffffffffffffffffffffffff16630dfe16816040518163ffffffff1660e01b815260040160206040518083038186803b1580156103ef57600080fd5b505afa158015610403573d6000803e3d6000fd5b505050506040513d601f19601f8201168201806040525081019061042791906105e0565b9050919050565b60008054906101000a900473ffffffffffffffffffffffffffffffffffffffff1681565b60008173ffffffffffffffffffffffffffffffffffffffff166318160ddd6040518163ffffffff1660e01b815260040160206040518083038186803b15801561049a57600080fd5b505afa1580156104ae573d6000803e3d6000fd5b505050506040513d601f19601f820116820180604052508101906104d291906106c3565b9050919050565b60006104ec6104e784610810565b6107eb565b9050808382526020820190508285602086028201111561050f5761050e61095d565b5b60005b8581101561053f578161052588826105cb565b845260208401935060208301925050600181019050610512565b5050509392505050565b6000813590506105588161097d565b92915050565b60008151905061056d8161097d565b92915050565b600082601f83011261058857610587610958565b5b81516105988482602086016104d9565b91505092915050565b6000813590506105b081610994565b92915050565b6000813590506105c5816109ab565b92915050565b6000815190506105da816109c2565b92915050565b6000602082840312156105f6576105f5610967565b5b60006106048482850161055e565b91505092915050565b60006020828403121561062357610622610967565b5b600082015167ffffffffffffffff81111561064157610640610962565b5b61064d84828501610573565b91505092915050565b60006020828403121561066c5761066b610967565b5b600061067a848285016105a1565b91505092915050565b6000806040838503121561069a57610699610967565b5b60006106a8858286016105b6565b92505060206106b985828601610549565b9150509250929050565b6000602082840312156106d9576106d8610967565b5b60006106e7848285016105cb565b91505092915050565b60006106fc8383610708565b60208301905092915050565b61071181610869565b82525050565b61072081610869565b82525050565b61072f81610846565b610739818461085e565b92506107448261083c565b8060005b8381101561077557815161075c87826106f0565b965061076783610851565b925050600181019050610748565b505050505050565b610786816108bf565b82525050565b60006020820190506107a16000830184610717565b92915050565b60006020820190506107bc600083018461077d565b92915050565b60006080820190506107d7600083018561077d565b6107e46020830184610726565b9392505050565b60006107f5610806565b905061080182826108c9565b919050565b6000604051905090565b600067ffffffffffffffff82111561082b5761082a610929565b5b602082029050602081019050919050565b6000819050919050565b600060039050919050565b6000602082019050919050565b600081905092915050565b60006108748261089f565b9050919050565b600061088682610869565b9050919050565b600061089882610869565b9050919050565b600073ffffffffffffffffffffffffffffffffffffffff82169050919050565b6000819050919050565b6108d28261096c565b810181811067ffffffffffffffff821117156108f1576108f0610929565b5b80604052505050565b7f4e487b7100000000000000000000000000000000000000000000000000000000600052603260045260246000fd5b7f4e487b7100000000000000000000000000000000000000000000000000000000600052604160045260246000fd5b600080fd5b600080fd5b600080fd5b600080fd5b6000601f19601f8301169050919050565b61098681610869565b811461099157600080fd5b50565b61099d8161087b565b81146109a857600080fd5b50565b6109b48161088d565b81146109bf57600080fd5b50565b6109cb816108bf565b81146109d657600080fd5b5056fea2646970667358221220842c57154bed3dd05c10dc8f25e5e010555beac628ce71d6fceec7332de68f6a64736f6c63430008070033",
					"opcodes": "PUSH1 0x80 PUSH1 0x40 MSTORE PUSH20 0xAE13D989DAC2F0DEBFF460AC112A837C89BAA7CD PUSH1 0x0 DUP1 PUSH2 0x100 EXP DUP2 SLOAD DUP2 PUSH20 0xFFFFFFFFFFFFFFFFFFFFFFFFFFFFFFFFFFFFFFFF MUL NOT AND SWAP1 DUP4 PUSH20 0xFFFFFFFFFFFFFFFFFFFFFFFFFFFFFFFFFFFFFFFF AND MUL OR SWAP1 SSTORE POP PUSH20 0x78867BBEEF44F2326BF8DDD1941A4439382EF2A7 PUSH1 0x1 PUSH1 0x0 PUSH2 0x100 EXP DUP2 SLOAD DUP2 PUSH20 0xFFFFFFFFFFFFFFFFFFFFFFFFFFFFFFFFFFFFFFFF MUL NOT AND SWAP1 DUP4 PUSH20 0xFFFFFFFFFFFFFFFFFFFFFFFFFFFFFFFFFFFFFFFF AND MUL OR SWAP1 SSTORE POP PUSH8 0xDE0B6B3A7640000 PUSH1 0x2 SSTORE CALLVALUE DUP1 ISZERO PUSH2 0xC5 JUMPI PUSH1 0x0 DUP1 REVERT JUMPDEST POP PUSH2 0xA0F DUP1 PUSH2 0xD5 PUSH1 0x0 CODECOPY PUSH1 0x0 RETURN INVALID PUSH1 0x80 PUSH1 0x40 MSTORE CALLVALUE DUP1 ISZERO PUSH2 0x10 JUMPI PUSH1 0x0 DUP1 REVERT JUMPDEST POP PUSH1 0x4 CALLDATASIZE LT PUSH2 0x62 JUMPI PUSH1 0x0 CALLDATALOAD PUSH1 0xE0 SHR DUP1 PUSH4 0x2B00490D EQ PUSH2 0x67 JUMPI DUP1 PUSH4 0x37823795 EQ PUSH2 0x97 JUMPI DUP1 PUSH4 0x484F4EA9 EQ PUSH2 0xC7 JUMPI DUP1 PUSH4 0x76BF39A3 EQ PUSH2 0xE5 JUMPI DUP1 PUSH4 0x8DD95002 EQ PUSH2 0x115 JUMPI DUP1 PUSH4 0xE4DC2AA4 EQ PUSH2 0x133 JUMPI JUMPDEST PUSH1 0x0 DUP1 REVERT JUMPDEST PUSH2 0x81 PUSH1 0x4 DUP1 CALLDATASIZE SUB DUP2 ADD SWAP1 PUSH2 0x7C SWAP2 SWAP1 PUSH2 0x683 JUMP JUMPDEST PUSH2 0x163 JUMP JUMPDEST PUSH1 0x40 MLOAD PUSH2 0x8E SWAP2 SWAP1 PUSH2 0x7A7 JUMP JUMPDEST PUSH1 0x40 MLOAD DUP1 SWAP2 SUB SWAP1 RETURN JUMPDEST PUSH2 0xB1 PUSH1 0x4 DUP1 CALLDATASIZE SUB DUP2 ADD SWAP1 PUSH2 0xAC SWAP2 SWAP1 PUSH2 0x656 JUMP JUMPDEST PUSH2 0x2FA JUMP JUMPDEST PUSH1 0x40 MLOAD PUSH2 0xBE SWAP2 SWAP1 PUSH2 0x78C JUMP JUMPDEST PUSH1 0x40 MLOAD DUP1 SWAP2 SUB SWAP1 RETURN JUMPDEST PUSH2 0xCF PUSH2 0x381 JUMP JUMPDEST PUSH1 0x40 MLOAD PUSH2 0xDC SWAP2 SWAP1 PUSH2 0x78C JUMP JUMPDEST PUSH1 0x40 MLOAD DUP1 SWAP2 SUB SWAP1 RETURN JUMPDEST PUSH2 0xFF PUSH1 0x4 DUP1 CALLDATASIZE SUB DUP2 ADD SWAP1 PUSH2 0xFA SWAP2 SWAP1 PUSH2 0x656 JUMP JUMPDEST PUSH2 0x3A7 JUMP JUMPDEST PUSH1 0x40 MLOAD PUSH2 0x10C SWAP2 SWAP1 PUSH2 0x78C JUMP JUMPDEST PUSH1 0x40 MLOAD DUP1 SWAP2 SUB SWAP1 RETURN JUMPDEST PUSH2 0x11D PUSH2 0x42E JUMP JUMPDEST PUSH1 0x40 MLOAD PUSH2 0x12A SWAP2 SWAP1 PUSH2 0x78C JUMP JUMPDEST PUSH1 0x40 MLOAD DUP1 SWAP2 SUB SWAP1 RETURN JUMPDEST PUSH2 0x14D PUSH1 0x4 DUP1 CALLDATASIZE SUB DUP2 ADD SWAP1 PUSH2 0x148 SWAP2 SWAP1 PUSH2 0x656 JUMP JUMPDEST PUSH2 0x452 JUMP JUMPDEST PUSH1 0x40 MLOAD PUSH2 0x15A SWAP2 SWAP1 PUSH2 0x7A7 JUMP JUMPDEST PUSH1 0x40 MLOAD DUP1 SWAP2 SUB SWAP1 RETURN JUMPDEST PUSH1 0x0 DUP3 PUSH20 0xFFFFFFFFFFFFFFFFFFFFFFFFFFFFFFFFFFFFFFFF AND PUSH4 0x57D7692A PUSH1 0x2 SLOAD PUSH1 0x40 MLOAD DUP1 PUSH1 0x60 ADD PUSH1 0x40 MSTORE DUP1 DUP7 PUSH20 0xFFFFFFFFFFFFFFFFFFFFFFFFFFFFFFFFFFFFFFFF AND PUSH20 0xFFFFFFFFFFFFFFFFFFFFFFFFFFFFFFFFFFFFFFFF AND DUP2 MSTORE PUSH1 0x20 ADD PUSH1 0x0 DUP1 SLOAD SWAP1 PUSH2 0x100 EXP SWAP1 DIV PUSH20 0xFFFFFFFFFFFFFFFFFFFFFFFFFFFFFFFFFFFFFFFF AND PUSH20 0xFFFFFFFFFFFFFFFFFFFFFFFFFFFFFFFFFFFFFFFF AND PUSH20 0xFFFFFFFFFFFFFFFFFFFFFFFFFFFFFFFFFFFFFFFF AND DUP2 MSTORE PUSH1 0x20 ADD PUSH1 0x1 PUSH1 0x0 SWAP1 SLOAD SWAP1 PUSH2 0x100 EXP SWAP1 DIV PUSH20 0xFFFFFFFFFFFFFFFFFFFFFFFFFFFFFFFFFFFFFFFF AND PUSH20 0xFFFFFFFFFFFFFFFFFFFFFFFFFFFFFFFFFFFFFFFF AND PUSH20 0xFFFFFFFFFFFFFFFFFFFFFFFFFFFFFFFFFFFFFFFF AND DUP2 MSTORE POP PUSH1 0x40 MLOAD DUP4 PUSH4 0xFFFFFFFF AND PUSH1 0xE0 SHL DUP2 MSTORE PUSH1 0x4 ADD PUSH2 0x282 SWAP3 SWAP2 SWAP1 PUSH2 0x7C2 JUMP JUMPDEST PUSH1 0x0 PUSH1 0x40 MLOAD DUP1 DUP4 SUB DUP2 DUP7 DUP1 EXTCODESIZE ISZERO DUP1 ISZERO PUSH2 0x29A JUMPI PUSH1 0x0 DUP1 REVERT JUMPDEST POP GAS STATICCALL ISZERO DUP1 ISZERO PUSH2 0x2AE JUMPI RETURNDATASIZE PUSH1 0x0 DUP1 RETURNDATACOPY RETURNDATASIZE PUSH1 0x0 REVERT JUMPDEST POP POP POP POP PUSH1 0x40 MLOAD RETURNDATASIZE PUSH1 0x0 DUP3 RETURNDATACOPY RETURNDATASIZE PUSH1 0x1F NOT PUSH1 0x1F DUP3 ADD AND DUP3 ADD DUP1 PUSH1 0x40 MSTORE POP DUP2 ADD SWAP1 PUSH2 0x2D7 SWAP2 SWAP1 PUSH2 0x60D JUMP JUMPDEST PUSH1 0x2 DUP2 MLOAD DUP2 LT PUSH2 0x2EA JUMPI PUSH2 0x2E9 PUSH2 0x8FA JUMP JUMPDEST JUMPDEST PUSH1 0x20 MUL PUSH1 0x20 ADD ADD MLOAD SWAP1 POP SWAP3 SWAP2 POP POP JUMP JUMPDEST PUSH1 0x0 DUP2 PUSH20 0xFFFFFFFFFFFFFFFFFFFFFFFFFFFFFFFFFFFFFFFF AND PUSH4 0xD21220A7 PUSH1 0x40 MLOAD DUP2 PUSH4 0xFFFFFFFF AND PUSH1 0xE0 SHL DUP2 MSTORE PUSH1 0x4 ADD PUSH1 0x20 PUSH1 0x40 MLOAD DUP1 DUP4 SUB DUP2 DUP7 DUP1 EXTCODESIZE ISZERO DUP1 ISZERO PUSH2 0x342 JUMPI PUSH1 0x0 DUP1 REVERT JUMPDEST POP GAS STATICCALL ISZERO DUP1 ISZERO PUSH2 0x356 JUMPI RETURNDATASIZE PUSH1 0x0 DUP1 RETURNDATACOPY RETURNDATASIZE PUSH1 0x0 REVERT JUMPDEST POP POP POP POP PUSH1 0x40 MLOAD RETURNDATASIZE PUSH1 0x1F NOT PUSH1 0x1F DUP3 ADD AND DUP3 ADD DUP1 PUSH1 0x40 MSTORE POP DUP2 ADD SWAP1 PUSH2 0x37A SWAP2 SWAP1 PUSH2 0x5E0 JUMP JUMPDEST SWAP1 POP SWAP2 SWAP1 POP JUMP JUMPDEST PUSH1 0x1 PUSH1 0x0 SWAP1 SLOAD SWAP1 PUSH2 0x100 EXP SWAP1 DIV PUSH20 0xFFFFFFFFFFFFFFFFFFFFFFFFFFFFFFFFFFFFFFFF AND DUP2 JUMP JUMPDEST PUSH1 0x0 DUP2 PUSH20 0xFFFFFFFFFFFFFFFFFFFFFFFFFFFFFFFFFFFFFFFF AND PUSH4 0xDFE1681 PUSH1 0x40 MLOAD DUP2 PUSH4 0xFFFFFFFF AND PUSH1 0xE0 SHL DUP2 MSTORE PUSH1 0x4 ADD PUSH1 0x20 PUSH1 0x40 MLOAD DUP1 DUP4 SUB DUP2 DUP7 DUP1 EXTCODESIZE ISZERO DUP1 ISZERO PUSH2 0x3EF JUMPI PUSH1 0x0 DUP1 REVERT JUMPDEST POP GAS STATICCALL ISZERO DUP1 ISZERO PUSH2 0x403 JUMPI RETURNDATASIZE PUSH1 0x0 DUP1 RETURNDATACOPY RETURNDATASIZE PUSH1 0x0 REVERT JUMPDEST POP POP POP POP PUSH1 0x40 MLOAD RETURNDATASIZE PUSH1 0x1F NOT PUSH1 0x1F DUP3 ADD AND DUP3 ADD DUP1 PUSH1 0x40 MSTORE POP DUP2 ADD SWAP1 PUSH2 0x427 SWAP2 SWAP1 PUSH2 0x5E0 JUMP JUMPDEST SWAP1 POP SWAP2 SWAP1 POP JUMP JUMPDEST PUSH1 0x0 DUP1 SLOAD SWAP1 PUSH2 0x100 EXP SWAP1 DIV PUSH20 0xFFFFFFFFFFFFFFFFFFFFFFFFFFFFFFFFFFFFFFFF AND DUP2 JUMP JUMPDEST PUSH1 0x0 DUP2 PUSH20 0xFFFFFFFFFFFFFFFFFFFFFFFFFFFFFFFFFFFFFFFF AND PUSH4 0x18160DDD PUSH1 0x40 MLOAD DUP2 PUSH4 0xFFFFFFFF AND PUSH1 0xE0 SHL DUP2 MSTORE PUSH1 0x4 ADD PUSH1 0x20 PUSH1 0x40 MLOAD DUP1 DUP4 SUB DUP2 DUP7 DUP1 EXTCODESIZE ISZERO DUP1 ISZERO PUSH2 0x49A JUMPI PUSH1 0x0 DUP1 REVERT JUMPDEST POP GAS STATICCALL ISZERO DUP1 ISZERO PUSH2 0x4AE JUMPI RETURNDATASIZE PUSH1 0x0 DUP1 RETURNDATACOPY RETURNDATASIZE PUSH1 0x0 REVERT JUMPDEST POP POP POP POP PUSH1 0x40 MLOAD RETURNDATASIZE PUSH1 0x1F NOT PUSH1 0x1F DUP3 ADD AND DUP3 ADD DUP1 PUSH1 0x40 MSTORE POP DUP2 ADD SWAP1 PUSH2 0x4D2 SWAP2 SWAP1 PUSH2 0x6C3 JUMP JUMPDEST SWAP1 POP SWAP2 SWAP1 POP JUMP JUMPDEST PUSH1 0x0 PUSH2 0x4EC PUSH2 0x4E7 DUP5 PUSH2 0x810 JUMP JUMPDEST PUSH2 0x7EB JUMP JUMPDEST SWAP1 POP DUP1 DUP4 DUP3 MSTORE PUSH1 0x20 DUP3 ADD SWAP1 POP DUP3 DUP6 PUSH1 0x20 DUP7 MUL DUP3 ADD GT ISZERO PUSH2 0x50F JUMPI PUSH2 0x50E PUSH2 0x95D JUMP JUMPDEST JUMPDEST PUSH1 0x0 JUMPDEST DUP6 DUP2 LT ISZERO PUSH2 0x53F JUMPI DUP2 PUSH2 0x525 DUP9 DUP3 PUSH2 0x5CB JUMP JUMPDEST DUP5 MSTORE PUSH1 0x20 DUP5 ADD SWAP4 POP PUSH1 0x20 DUP4 ADD SWAP3 POP POP PUSH1 0x1 DUP2 ADD SWAP1 POP PUSH2 0x512 JUMP JUMPDEST POP POP POP SWAP4 SWAP3 POP POP POP JUMP JUMPDEST PUSH1 0x0 DUP2 CALLDATALOAD SWAP1 POP PUSH2 0x558 DUP2 PUSH2 0x97D JUMP JUMPDEST SWAP3 SWAP2 POP POP JUMP JUMPDEST PUSH1 0x0 DUP2 MLOAD SWAP1 POP PUSH2 0x56D DUP2 PUSH2 0x97D JUMP JUMPDEST SWAP3 SWAP2 POP POP JUMP JUMPDEST PUSH1 0x0 DUP3 PUSH1 0x1F DUP4 ADD SLT PUSH2 0x588 JUMPI PUSH2 0x587 PUSH2 0x958 JUMP JUMPDEST JUMPDEST DUP2 MLOAD PUSH2 0x598 DUP5 DUP3 PUSH1 0x20 DUP7 ADD PUSH2 0x4D9 JUMP JUMPDEST SWAP2 POP POP SWAP3 SWAP2 POP POP JUMP JUMPDEST PUSH1 0x0 DUP2 CALLDATALOAD SWAP1 POP PUSH2 0x5B0 DUP2 PUSH2 0x994 JUMP JUMPDEST SWAP3 SWAP2 POP POP JUMP JUMPDEST PUSH1 0x0 DUP2 CALLDATALOAD SWAP1 POP PUSH2 0x5C5 DUP2 PUSH2 0x9AB JUMP JUMPDEST SWAP3 SWAP2 POP POP JUMP JUMPDEST PUSH1 0x0 DUP2 MLOAD SWAP1 POP PUSH2 0x5DA DUP2 PUSH2 0x9C2 JUMP JUMPDEST SWAP3 SWAP2 POP POP JUMP JUMPDEST PUSH1 0x0 PUSH1 0x20 DUP3 DUP5 SUB SLT ISZERO PUSH2 0x5F6 JUMPI PUSH2 0x5F5 PUSH2 0x967 JUMP JUMPDEST JUMPDEST PUSH1 0x0 PUSH2 0x604 DUP5 DUP3 DUP6 ADD PUSH2 0x55E JUMP JUMPDEST SWAP2 POP POP SWAP3 SWAP2 POP POP JUMP JUMPDEST PUSH1 0x0 PUSH1 0x20 DUP3 DUP5 SUB SLT ISZERO PUSH2 0x623 JUMPI PUSH2 0x622 PUSH2 0x967 JUMP JUMPDEST JUMPDEST PUSH1 0x0 DUP3 ADD MLOAD PUSH8 0xFFFFFFFFFFFFFFFF DUP2 GT ISZERO PUSH2 0x641 JUMPI PUSH2 0x640 PUSH2 0x962 JUMP JUMPDEST JUMPDEST PUSH2 0x64D DUP5 DUP3 DUP6 ADD PUSH2 0x573 JUMP JUMPDEST SWAP2 POP POP SWAP3 SWAP2 POP POP JUMP JUMPDEST PUSH1 0x0 PUSH1 0x20 DUP3 DUP5 SUB SLT ISZERO PUSH2 0x66C JUMPI PUSH2 0x66B PUSH2 0x967 JUMP JUMPDEST JUMPDEST PUSH1 0x0 PUSH2 0x67A DUP5 DUP3 DUP6 ADD PUSH2 0x5A1 JUMP JUMPDEST SWAP2 POP POP SWAP3 SWAP2 POP POP JUMP JUMPDEST PUSH1 0x0 DUP1 PUSH1 0x40 DUP4 DUP6 SUB SLT ISZERO PUSH2 0x69A JUMPI PUSH2 0x699 PUSH2 0x967 JUMP JUMPDEST JUMPDEST PUSH1 0x0 PUSH2 0x6A8 DUP6 DUP3 DUP7 ADD PUSH2 0x5B6 JUMP JUMPDEST SWAP3 POP POP PUSH1 0x20 PUSH2 0x6B9 DUP6 DUP3 DUP7 ADD PUSH2 0x549 JUMP JUMPDEST SWAP2 POP POP SWAP3 POP SWAP3 SWAP1 POP JUMP JUMPDEST PUSH1 0x0 PUSH1 0x20 DUP3 DUP5 SUB SLT ISZERO PUSH2 0x6D9 JUMPI PUSH2 0x6D8 PUSH2 0x967 JUMP JUMPDEST JUMPDEST PUSH1 0x0 PUSH2 0x6E7 DUP5 DUP3 DUP6 ADD PUSH2 0x5CB JUMP JUMPDEST SWAP2 POP POP SWAP3 SWAP2 POP POP JUMP JUMPDEST PUSH1 0x0 PUSH2 0x6FC DUP4 DUP4 PUSH2 0x708 JUMP JUMPDEST PUSH1 0x20 DUP4 ADD SWAP1 POP SWAP3 SWAP2 POP POP JUMP JUMPDEST PUSH2 0x711 DUP2 PUSH2 0x869 JUMP JUMPDEST DUP3 MSTORE POP POP JUMP JUMPDEST PUSH2 0x720 DUP2 PUSH2 0x869 JUMP JUMPDEST DUP3 MSTORE POP POP JUMP JUMPDEST PUSH2 0x72F DUP2 PUSH2 0x846 JUMP JUMPDEST PUSH2 0x739 DUP2 DUP5 PUSH2 0x85E JUMP JUMPDEST SWAP3 POP PUSH2 0x744 DUP3 PUSH2 0x83C JUMP JUMPDEST DUP1 PUSH1 0x0 JUMPDEST DUP4 DUP2 LT ISZERO PUSH2 0x775 JUMPI DUP2 MLOAD PUSH2 0x75C DUP8 DUP3 PUSH2 0x6F0 JUMP JUMPDEST SWAP7 POP PUSH2 0x767 DUP4 PUSH2 0x851 JUMP JUMPDEST SWAP3 POP POP PUSH1 0x1 DUP2 ADD SWAP1 POP PUSH2 0x748 JUMP JUMPDEST POP POP POP POP POP POP JUMP JUMPDEST PUSH2 0x786 DUP2 PUSH2 0x8BF JUMP JUMPDEST DUP3 MSTORE POP POP JUMP JUMPDEST PUSH1 0x0 PUSH1 0x20 DUP3 ADD SWAP1 POP PUSH2 0x7A1 PUSH1 0x0 DUP4 ADD DUP5 PUSH2 0x717 JUMP JUMPDEST SWAP3 SWAP2 POP POP JUMP JUMPDEST PUSH1 0x0 PUSH1 0x20 DUP3 ADD SWAP1 POP PUSH2 0x7BC PUSH1 0x0 DUP4 ADD DUP5 PUSH2 0x77D JUMP JUMPDEST SWAP3 SWAP2 POP POP JUMP JUMPDEST PUSH1 0x0 PUSH1 0x80 DUP3 ADD SWAP1 POP PUSH2 0x7D7 PUSH1 0x0 DUP4 ADD DUP6 PUSH2 0x77D JUMP JUMPDEST PUSH2 0x7E4 PUSH1 0x20 DUP4 ADD DUP5 PUSH2 0x726 JUMP JUMPDEST SWAP4 SWAP3 POP POP POP JUMP JUMPDEST PUSH1 0x0 PUSH2 0x7F5 PUSH2 0x806 JUMP JUMPDEST SWAP1 POP PUSH2 0x801 DUP3 DUP3 PUSH2 0x8C9 JUMP JUMPDEST SWAP2 SWAP1 POP JUMP JUMPDEST PUSH1 0x0 PUSH1 0x40 MLOAD SWAP1 POP SWAP1 JUMP JUMPDEST PUSH1 0x0 PUSH8 0xFFFFFFFFFFFFFFFF DUP3 GT ISZERO PUSH2 0x82B JUMPI PUSH2 0x82A PUSH2 0x929 JUMP JUMPDEST JUMPDEST PUSH1 0x20 DUP3 MUL SWAP1 POP PUSH1 0x20 DUP2 ADD SWAP1 POP SWAP2 SWAP1 POP JUMP JUMPDEST PUSH1 0x0 DUP2 SWAP1 POP SWAP2 SWAP1 POP JUMP JUMPDEST PUSH1 0x0 PUSH1 0x3 SWAP1 POP SWAP2 SWAP1 POP JUMP JUMPDEST PUSH1 0x0 PUSH1 0x20 DUP3 ADD SWAP1 POP SWAP2 SWAP1 POP JUMP JUMPDEST PUSH1 0x0 DUP2 SWAP1 POP SWAP3 SWAP2 POP POP JUMP JUMPDEST PUSH1 0x0 PUSH2 0x874 DUP3 PUSH2 0x89F JUMP JUMPDEST SWAP1 POP SWAP2 SWAP1 POP JUMP JUMPDEST PUSH1 0x0 PUSH2 0x886 DUP3 PUSH2 0x869 JUMP JUMPDEST SWAP1 POP SWAP2 SWAP1 POP JUMP JUMPDEST PUSH1 0x0 PUSH2 0x898 DUP3 PUSH2 0x869 JUMP JUMPDEST SWAP1 POP SWAP2 SWAP1 POP JUMP JUMPDEST PUSH1 0x0 PUSH20 0xFFFFFFFFFFFFFFFFFFFFFFFFFFFFFFFFFFFFFFFF DUP3 AND SWAP1 POP SWAP2 SWAP1 POP JUMP JUMPDEST PUSH1 0x0 DUP2 SWAP1 POP SWAP2 SWAP1 POP JUMP JUMPDEST PUSH2 0x8D2 DUP3 PUSH2 0x96C JUMP JUMPDEST DUP2 ADD DUP2 DUP2 LT PUSH8 0xFFFFFFFFFFFFFFFF DUP3 GT OR ISZERO PUSH2 0x8F1 JUMPI PUSH2 0x8F0 PUSH2 0x929 JUMP JUMPDEST JUMPDEST DUP1 PUSH1 0x40 MSTORE POP POP POP JUMP JUMPDEST PUSH32 0x4E487B7100000000000000000000000000000000000000000000000000000000 PUSH1 0x0 MSTORE PUSH1 0x32 PUSH1 0x4 MSTORE PUSH1 0x24 PUSH1 0x0 REVERT JUMPDEST PUSH32 0x4E487B7100000000000000000000000000000000000000000000000000000000 PUSH1 0x0 MSTORE PUSH1 0x41 PUSH1 0x4 MSTORE PUSH1 0x24 PUSH1 0x0 REVERT JUMPDEST PUSH1 0x0 DUP1 REVERT JUMPDEST PUSH1 0x0 DUP1 REVERT JUMPDEST PUSH1 0x0 DUP1 REVERT JUMPDEST PUSH1 0x0 DUP1 REVERT JUMPDEST PUSH1 0x0 PUSH1 0x1F NOT PUSH1 0x1F DUP4 ADD AND SWAP1 POP SWAP2 SWAP1 POP JUMP JUMPDEST PUSH2 0x986 DUP2 PUSH2 0x869 JUMP JUMPDEST DUP2 EQ PUSH2 0x991 JUMPI PUSH1 0x0 DUP1 REVERT JUMPDEST POP JUMP JUMPDEST PUSH2 0x99D DUP2 PUSH2 0x87B JUMP JUMPDEST DUP2 EQ PUSH2 0x9A8 JUMPI PUSH1 0x0 DUP1 REVERT JUMPDEST POP JUMP JUMPDEST PUSH2 0x9B4 DUP2 PUSH2 0x88D JUMP JUMPDEST DUP2 EQ PUSH2 0x9BF JUMPI PUSH1 0x0 DUP1 REVERT JUMPDEST POP JUMP JUMPDEST PUSH2 0x9CB DUP2 PUSH2 0x8BF JUMP JUMPDEST DUP2 EQ PUSH2 0x9D6 JUMPI PUSH1 0x0 DUP1 REVERT JUMPDEST POP JUMP INVALID LOG2 PUSH5 0x6970667358 0x22 SLT KECCAK256 DUP5 0x2C JUMPI ISZERO 0x4B 0xED RETURNDATASIZE 0xD0 0x5C LT 0xDC DUP16 0x25 0xE5 0xE0 LT SSTORE JUMPDEST 0xEA 0xC6 0x28 0xCE PUSH18 0xD6FCEEC7332DE68F6A64736F6C6343000807 STOP CALLER "
				},
				"gasEstimates": {
					"creation": {
						"codeDepositCost": "515000",
						"executionCost": "71189",
						"totalCost": "586189"
					},
					"external": {
						"BUSD()": "2536",
						"WBNB()": "2577",
						"price(address,address)": "infinite",
						"token0(address)": "infinite",
						"token1(address)": "infinite",
						"totalSupply(address)": "infinite"
					}
				},
				"methodIdentifiers": {
					"BUSD()": "484f4ea9",
					"WBNB()": "8dd95002",
					"price(address,address)": "2b00490d",
					"token0(address)": "76bf39a3",
					"token1(address)": "37823795",
					"totalSupply(address)": "e4dc2aa4"
				}
			},
			"storageLayout": {
				"storage": [
					{
						"astId": 333,
						"contract": "contracts/LpPrice.sol:LpUtils",
						"label": "WBNB",
						"offset": 0,
						"slot": "0",
						"type": "t_address"
					},
					{
						"astId": 336,
						"contract": "contracts/LpPrice.sol:LpUtils",
						"label": "BUSD",
						"offset": 0,
						"slot": "1",
						"type": "t_address"
					},
					{
						"astId": 339,
						"contract": "contracts/LpPrice.sol:LpUtils",
						"label": "amount",
						"offset": 0,
						"slot": "2",
						"type": "t_uint256"
					}
				],
				"types": {
					"t_address": {
						"encoding": "inplace",
						"label": "address",
						"numberOfBytes": "20"
					},
					"t_uint256": {
						"encoding": "inplace",
						"label": "uint256",
						"numberOfBytes": "32"
					}
				}
			},
			"userdoc": {
				"kind": "user",
				"methods": {},
				"version": 1
			}
		}
	}
}