{
	"contracts/Utils.sol": {
		"Utils": {
			"abi": [
				{
					"inputs": [
						{
							"internalType": "contract Router",
							"name": "_routerAddress",
							"type": "address"
						},
						{
							"internalType": "address",
							"name": "_WBNB",
							"type": "address"
						},
						{
							"internalType": "address",
							"name": "_BUSD",
							"type": "address"
						}
					],
					"stateMutability": "nonpayable",
					"type": "constructor"
				},
				{
					"anonymous": false,
					"inputs": [
						{
							"indexed": true,
							"internalType": "address",
							"name": "previousOwner",
							"type": "address"
						},
						{
							"indexed": true,
							"internalType": "address",
							"name": "newOwner",
							"type": "address"
						}
					],
					"name": "OwnershipTransferred",
					"type": "event"
				},
				{
					"inputs": [],
					"name": "BUSD",
					"outputs": [
						{
							"internalType": "address",
							"name": "",
							"type": "address"
						}
					],
					"stateMutability": "view",
					"type": "function"
				},
				{
					"inputs": [
						{
							"internalType": "uint256",
							"name": "pid",
							"type": "uint256"
						},
						{
							"internalType": "contract LP",
							"name": "lpAddress",
							"type": "address"
						},
						{
							"internalType": "uint256",
							"name": "isLp",
							"type": "uint256"
						},
						{
							"internalType": "contract MetaMasterChef",
							"name": "MasterChef",
							"type": "address"
						}
					],
					"name": "CalcApy",
					"outputs": [
						{
							"internalType": "uint256",
							"name": "",
							"type": "uint256"
						}
					],
					"stateMutability": "view",
					"type": "function"
				},
				{
					"inputs": [
						{
							"internalType": "uint256",
							"name": "pid",
							"type": "uint256"
						},
						{
							"internalType": "contract NFTMasterChef",
							"name": "MasterChef",
							"type": "address"
						}
					],
					"name": "CalcApyNFTFarm",
					"outputs": [
						{
							"internalType": "uint256",
							"name": "",
							"type": "uint256"
						}
					],
					"stateMutability": "view",
					"type": "function"
				},
				{
					"inputs": [
						{
							"internalType": "uint256",
							"name": "pid",
							"type": "uint256"
						},
						{
							"internalType": "contract IERC721",
							"name": "NFTAddress",
							"type": "address"
						},
						{
							"internalType": "contract NFTStake",
							"name": "NFTStakechef",
							"type": "address"
						}
					],
					"name": "CalcApyNFTStake",
					"outputs": [
						{
							"internalType": "uint256",
							"name": "",
							"type": "uint256"
						}
					],
					"stateMutability": "view",
					"type": "function"
				},
				{
					"inputs": [
						{
							"internalType": "contract LP",
							"name": "lpAddress",
							"type": "address"
						}
					],
					"name": "CalcLpPrice",
					"outputs": [
						{
							"internalType": "uint256",
							"name": "",
							"type": "uint256"
						}
					],
					"stateMutability": "view",
					"type": "function"
				},
				{
					"inputs": [
						{
							"internalType": "contract MetaMasterChef",
							"name": "MasterChef",
							"type": "address"
						},
						{
							"internalType": "contract LP[]",
							"name": "lpAddress",
							"type": "address[]"
						}
					],
					"name": "CalcTotalTVL",
					"outputs": [
						{
							"internalType": "uint256",
							"name": "",
							"type": "uint256"
						}
					],
					"stateMutability": "view",
					"type": "function"
				},
				{
					"inputs": [
						{
							"internalType": "contract MetaMasterChef",
							"name": "MasterChef",
							"type": "address"
						},
						{
							"internalType": "contract LP[]",
							"name": "lpAddress",
							"type": "address[]"
						}
					],
					"name": "CalcTotalTVLNFTFarm",
					"outputs": [
						{
							"internalType": "uint256",
							"name": "",
							"type": "uint256"
						}
					],
					"stateMutability": "view",
					"type": "function"
				},
				{
					"inputs": [
						{
							"internalType": "address",
							"name": "token",
							"type": "address"
						}
					],
					"name": "Tokenprice",
					"outputs": [
						{
							"internalType": "uint256",
							"name": "",
							"type": "uint256"
						}
					],
					"stateMutability": "view",
					"type": "function"
				},
				{
					"inputs": [],
					"name": "WBNB",
					"outputs": [
						{
							"internalType": "address",
							"name": "",
							"type": "address"
						}
					],
					"stateMutability": "view",
					"type": "function"
				},
				{
					"inputs": [
						{
							"internalType": "address",
							"name": "token",
							"type": "address"
						}
					],
					"name": "WBNBPrice",
					"outputs": [
						{
							"internalType": "uint256",
							"name": "",
							"type": "uint256"
						}
					],
					"stateMutability": "view",
					"type": "function"
				},
				{
					"inputs": [
						{
							"internalType": "uint256",
							"name": "pid",
							"type": "uint256"
						},
						{
							"internalType": "contract LP",
							"name": "lpAddress",
							"type": "address"
						},
						{
							"internalType": "uint256",
							"name": "isLp",
							"type": "uint256"
						},
						{
							"internalType": "contract MetaMasterChef",
							"name": "MasterChef",
							"type": "address"
						}
					],
					"name": "calcPoolTVLInUSD",
					"outputs": [
						{
							"internalType": "uint256",
							"name": "",
							"type": "uint256"
						}
					],
					"stateMutability": "view",
					"type": "function"
				},
				{
					"inputs": [
						{
							"internalType": "contract LP",
							"name": "lpAddress",
							"type": "address"
						},
						{
							"internalType": "uint256",
							"name": "isLp",
							"type": "uint256"
						},
						{
							"internalType": "contract MetaMasterChef",
							"name": "MasterChef",
							"type": "address"
						}
					],
					"name": "calcPoolTVLInUSDNFTFarm",
					"outputs": [
						{
							"internalType": "uint256",
							"name": "",
							"type": "uint256"
						}
					],
					"stateMutability": "view",
					"type": "function"
				},
				{
					"inputs": [
						{
							"internalType": "contract LP",
							"name": "lpAddress",
							"type": "address"
						}
					],
					"name": "isLpAddress",
					"outputs": [
						{
							"internalType": "uint256",
							"name": "",
							"type": "uint256"
						}
					],
					"stateMutability": "view",
					"type": "function"
				},
				{
					"inputs": [],
					"name": "owner",
					"outputs": [
						{
							"internalType": "address",
							"name": "",
							"type": "address"
						}
					],
					"stateMutability": "view",
					"type": "function"
				},
				{
					"inputs": [],
					"name": "renounceOwnership",
					"outputs": [],
					"stateMutability": "nonpayable",
					"type": "function"
				},
				{
					"inputs": [],
					"name": "routerAddress",
					"outputs": [
						{
							"internalType": "contract Router",
							"name": "",
							"type": "address"
						}
					],
					"stateMutability": "view",
					"type": "function"
				},
				{
					"inputs": [
						{
							"internalType": "contract Router",
							"name": "_routerAddress",
							"type": "address"
						}
					],
					"name": "setRouter",
					"outputs": [],
					"stateMutability": "nonpayable",
					"type": "function"
				},
				{
					"inputs": [
						{
							"internalType": "address",
							"name": "newOwner",
							"type": "address"
						}
					],
					"name": "transferOwnership",
					"outputs": [],
					"stateMutability": "nonpayable",
					"type": "function"
				}
			],
			"devdoc": {
				"kind": "dev",
				"methods": {
					"owner()": {
						"details": "Returns the address of the current owner."
					},
					"renounceOwnership()": {
						"details": "Leaves the contract without owner. It will not be possible to call `onlyOwner` functions anymore. Can only be called by the current owner. NOTE: Renouncing ownership will leave the contract without an owner, thereby removing any functionality that is only available to the owner."
					},
					"transferOwnership(address)": {
						"details": "Transfers ownership of the contract to a new account (`newOwner`). Can only be called by the current owner."
					}
				},
				"version": 1
			},
			"evm": {
				"assembly": "    /* \"contracts/Utils.sol\":18715:25179  contract Utils is Ownable{\r... */\n  mstore(0x40, 0x80)\n    /* \"contracts/Utils.sol\":18965:18984  1000000000000000000 */\n  0x0de0b6b3a7640000\n    /* \"contracts/Utils.sol\":18948:18984  uint256 amount = 1000000000000000000 */\n  0x03\n  sstore\n    /* \"contracts/Utils.sol\":19053:19061  10512000 */\n  0xa06680\n    /* \"contracts/Utils.sol\":19027:19061  uint256 BLOCKS_PER_YEAR = 10512000 */\n  0x05\n  sstore\n    /* \"contracts/Utils.sol\":19071:19234  constructor(Router _routerAddress, address _WBNB, address _BUSD) {\r... */\n  callvalue\n  dup1\n  iszero\n  tag_1\n  jumpi\n  0x00\n  dup1\n  revert\ntag_1:\n  pop\n  mload(0x40)\n  sub(codesize, bytecodeSize)\n  dup1\n  bytecodeSize\n  dup4\n  codecopy\n  dup2\n  dup2\n  add\n  0x40\n  mstore\n  dup2\n  add\n  swap1\n  tag_2\n  swap2\n  swap1\n  tag_3\n  jump\t// in\ntag_2:\n    /* \"contracts/Utils.sol\":13728:13760  _transferOwnership(_msgSender()) */\n  tag_7\n    /* \"contracts/Utils.sol\":13747:13759  _msgSender() */\n  tag_8\n    /* \"contracts/Utils.sol\":13747:13757  _msgSender */\n  shl(0x20, tag_9)\n    /* \"contracts/Utils.sol\":13747:13759  _msgSender() */\n  0x20\n  shr\n  jump\t// in\ntag_8:\n    /* \"contracts/Utils.sol\":13728:13746  _transferOwnership */\n  shl(0x20, tag_10)\n    /* \"contracts/Utils.sol\":13728:13760  _transferOwnership(_msgSender()) */\n  0x20\n  shr\n  jump\t// in\ntag_7:\n    /* \"contracts/Utils.sol\":19164:19178  _routerAddress */\n  dup3\n    /* \"contracts/Utils.sol\":19148:19161  routerAddress */\n  0x04\n  0x00\n    /* \"contracts/Utils.sol\":19148:19178  routerAddress = _routerAddress */\n  0x0100\n  exp\n  dup2\n  sload\n  dup2\n  0xffffffffffffffffffffffffffffffffffffffff\n  mul\n  not\n  and\n  swap1\n  dup4\n  0xffffffffffffffffffffffffffffffffffffffff\n  and\n  mul\n  or\n  swap1\n  sstore\n  pop\n    /* \"contracts/Utils.sol\":19197:19202  _WBNB */\n  dup2\n    /* \"contracts/Utils.sol\":19190:19194  WBNB */\n  0x01\n  0x00\n    /* \"contracts/Utils.sol\":19190:19202  WBNB = _WBNB */\n  0x0100\n  exp\n  dup2\n  sload\n  dup2\n  0xffffffffffffffffffffffffffffffffffffffff\n  mul\n  not\n  and\n  swap1\n  dup4\n  0xffffffffffffffffffffffffffffffffffffffff\n  and\n  mul\n  or\n  swap1\n  sstore\n  pop\n    /* \"contracts/Utils.sol\":19221:19226  _BUSD */\n  dup1\n    /* \"contracts/Utils.sol\":19214:19218  BUSD */\n  0x02\n  0x00\n    /* \"contracts/Utils.sol\":19214:19226  BUSD = _BUSD */\n  0x0100\n  exp\n  dup2\n  sload\n  dup2\n  0xffffffffffffffffffffffffffffffffffffffff\n  mul\n  not\n  and\n  swap1\n  dup4\n  0xffffffffffffffffffffffffffffffffffffffff\n  and\n  mul\n  or\n  swap1\n  sstore\n  pop\n    /* \"contracts/Utils.sol\":19071:19234  constructor(Router _routerAddress, address _WBNB, address _BUSD) {\r... */\n  pop\n  pop\n  pop\n    /* \"contracts/Utils.sol\":18715:25179  contract Utils is Ownable{\r... */\n  jump(tag_12)\n    /* \"contracts/Utils.sol\":13223:13321  function _msgSender() internal view virtual returns (address) {\r... */\ntag_9:\n    /* \"contracts/Utils.sol\":13276:13283  address */\n  0x00\n    /* \"contracts/Utils.sol\":13303:13313  msg.sender */\n  caller\n    /* \"contracts/Utils.sol\":13296:13313  return msg.sender */\n  swap1\n  pop\n    /* \"contracts/Utils.sol\":13223:13321  function _msgSender() internal view virtual returns (address) {\r... */\n  swap1\n  jump\t// out\n    /* \"contracts/Utils.sol\":15119:15310  function _transferOwnership(address newOwner) internal virtual {\r... */\ntag_10:\n    /* \"contracts/Utils.sol\":15193:15209  address oldOwner */\n  0x00\n    /* \"contracts/Utils.sol\":15212:15218  _owner */\n  dup1\n  0x00\n  swap1\n  sload\n  swap1\n  0x0100\n  exp\n  swap1\n  div\n  0xffffffffffffffffffffffffffffffffffffffff\n  and\n    /* \"contracts/Utils.sol\":15193:15218  address oldOwner = _owner */\n  swap1\n  pop\n    /* \"contracts/Utils.sol\":15238:15246  newOwner */\n  dup2\n    /* \"contracts/Utils.sol\":15229:15235  _owner */\n  0x00\n  dup1\n    /* \"contracts/Utils.sol\":15229:15246  _owner = newOwner */\n  0x0100\n  exp\n  dup2\n  sload\n  dup2\n  0xffffffffffffffffffffffffffffffffffffffff\n  mul\n  not\n  and\n  swap1\n  dup4\n  0xffffffffffffffffffffffffffffffffffffffff\n  and\n  mul\n  or\n  swap1\n  sstore\n  pop\n    /* \"contracts/Utils.sol\":15293:15301  newOwner */\n  dup2\n    /* \"contracts/Utils.sol\":15262:15302  OwnershipTransferred(oldOwner, newOwner) */\n  0xffffffffffffffffffffffffffffffffffffffff\n  and\n    /* \"contracts/Utils.sol\":15283:15291  oldOwner */\n  dup2\n    /* \"contracts/Utils.sol\":15262:15302  OwnershipTransferred(oldOwner, newOwner) */\n  0xffffffffffffffffffffffffffffffffffffffff\n  and\n  0x8be0079c531659141344cd1fd0a4f28419497f9722a3daafe3b4186f6b6457e0\n  mload(0x40)\n  mload(0x40)\n  dup1\n  swap2\n  sub\n  swap1\n  log3\n    /* \"contracts/Utils.sol\":15182:15310  {\r... */\n  pop\n    /* \"contracts/Utils.sol\":15119:15310  function _transferOwnership(address newOwner) internal virtual {\r... */\n  pop\n  jump\t// out\n    /* \"#utility.yul\":7:150   */\ntag_16:\n    /* \"#utility.yul\":64:69   */\n  0x00\n    /* \"#utility.yul\":95:101   */\n  dup2\n    /* \"#utility.yul\":89:102   */\n  mload\n    /* \"#utility.yul\":80:102   */\n  swap1\n  pop\n    /* \"#utility.yul\":111:144   */\n  tag_18\n    /* \"#utility.yul\":138:143   */\n  dup2\n    /* \"#utility.yul\":111:144   */\n  tag_19\n  jump\t// in\ntag_18:\n    /* \"#utility.yul\":7:150   */\n  swap3\n  swap2\n  pop\n  pop\n  jump\t// out\n    /* \"#utility.yul\":156:327   */\ntag_20:\n    /* \"#utility.yul\":227:232   */\n  0x00\n    /* \"#utility.yul\":258:264   */\n  dup2\n    /* \"#utility.yul\":252:265   */\n  mload\n    /* \"#utility.yul\":243:265   */\n  swap1\n  pop\n    /* \"#utility.yul\":274:321   */\n  tag_22\n    /* \"#utility.yul\":315:320   */\n  dup2\n    /* \"#utility.yul\":274:321   */\n  tag_23\n  jump\t// in\ntag_22:\n    /* \"#utility.yul\":156:327   */\n  swap3\n  swap2\n  pop\n  pop\n  jump\t// out\n    /* \"#utility.yul\":333:1024   */\ntag_3:\n    /* \"#utility.yul\":435:441   */\n  0x00\n    /* \"#utility.yul\":443:449   */\n  dup1\n    /* \"#utility.yul\":451:457   */\n  0x00\n    /* \"#utility.yul\":500:502   */\n  0x60\n    /* \"#utility.yul\":488:497   */\n  dup5\n    /* \"#utility.yul\":479:486   */\n  dup7\n    /* \"#utility.yul\":475:498   */\n  sub\n    /* \"#utility.yul\":471:503   */\n  slt\n    /* \"#utility.yul\":468:587   */\n  iszero\n  tag_25\n  jumpi\n    /* \"#utility.yul\":506:585   */\n  tag_26\n  tag_27\n  jump\t// in\ntag_26:\n    /* \"#utility.yul\":468:587   */\ntag_25:\n    /* \"#utility.yul\":626:627   */\n  0x00\n    /* \"#utility.yul\":651:729   */\n  tag_28\n    /* \"#utility.yul\":721:728   */\n  dup7\n    /* \"#utility.yul\":712:718   */\n  dup3\n    /* \"#utility.yul\":701:710   */\n  dup8\n    /* \"#utility.yul\":697:719   */\n  add\n    /* \"#utility.yul\":651:729   */\n  tag_20\n  jump\t// in\ntag_28:\n    /* \"#utility.yul\":641:729   */\n  swap4\n  pop\n    /* \"#utility.yul\":597:739   */\n  pop\n    /* \"#utility.yul\":778:780   */\n  0x20\n    /* \"#utility.yul\":804:868   */\n  tag_29\n    /* \"#utility.yul\":860:867   */\n  dup7\n    /* \"#utility.yul\":851:857   */\n  dup3\n    /* \"#utility.yul\":840:849   */\n  dup8\n    /* \"#utility.yul\":836:858   */\n  add\n    /* \"#utility.yul\":804:868   */\n  tag_16\n  jump\t// in\ntag_29:\n    /* \"#utility.yul\":794:868   */\n  swap3\n  pop\n    /* \"#utility.yul\":749:878   */\n  pop\n    /* \"#utility.yul\":917:919   */\n  0x40\n    /* \"#utility.yul\":943:1007   */\n  tag_30\n    /* \"#utility.yul\":999:1006   */\n  dup7\n    /* \"#utility.yul\":990:996   */\n  dup3\n    /* \"#utility.yul\":979:988   */\n  dup8\n    /* \"#utility.yul\":975:997   */\n  add\n    /* \"#utility.yul\":943:1007   */\n  tag_16\n  jump\t// in\ntag_30:\n    /* \"#utility.yul\":933:1007   */\n  swap2\n  pop\n    /* \"#utility.yul\":888:1017   */\n  pop\n    /* \"#utility.yul\":333:1024   */\n  swap3\n  pop\n  swap3\n  pop\n  swap3\n  jump\t// out\n    /* \"#utility.yul\":1111:1207   */\ntag_33:\n    /* \"#utility.yul\":1148:1155   */\n  0x00\n    /* \"#utility.yul\":1177:1201   */\n  tag_35\n    /* \"#utility.yul\":1195:1200   */\n  dup3\n    /* \"#utility.yul\":1177:1201   */\n  tag_36\n  jump\t// in\ntag_35:\n    /* \"#utility.yul\":1166:1201   */\n  swap1\n  pop\n    /* \"#utility.yul\":1111:1207   */\n  swap2\n  swap1\n  pop\n  jump\t// out\n    /* \"#utility.yul\":1213:1323   */\ntag_37:\n    /* \"#utility.yul\":1264:1271   */\n  0x00\n    /* \"#utility.yul\":1293:1317   */\n  tag_39\n    /* \"#utility.yul\":1311:1316   */\n  dup3\n    /* \"#utility.yul\":1293:1317   */\n  tag_33\n  jump\t// in\ntag_39:\n    /* \"#utility.yul\":1282:1317   */\n  swap1\n  pop\n    /* \"#utility.yul\":1213:1323   */\n  swap2\n  swap1\n  pop\n  jump\t// out\n    /* \"#utility.yul\":1329:1455   */\ntag_36:\n    /* \"#utility.yul\":1366:1373   */\n  0x00\n    /* \"#utility.yul\":1406:1448   */\n  0xffffffffffffffffffffffffffffffffffffffff\n    /* \"#utility.yul\":1399:1404   */\n  dup3\n    /* \"#utility.yul\":1395:1449   */\n  and\n    /* \"#utility.yul\":1384:1449   */\n  swap1\n  pop\n    /* \"#utility.yul\":1329:1455   */\n  swap2\n  swap1\n  pop\n  jump\t// out\n    /* \"#utility.yul\":1584:1701   */\ntag_27:\n    /* \"#utility.yul\":1693:1694   */\n  0x00\n    /* \"#utility.yul\":1690:1691   */\n  dup1\n    /* \"#utility.yul\":1683:1695   */\n  revert\n    /* \"#utility.yul\":1707:1829   */\ntag_19:\n    /* \"#utility.yul\":1780:1804   */\n  tag_45\n    /* \"#utility.yul\":1798:1803   */\n  dup2\n    /* \"#utility.yul\":1780:1804   */\n  tag_33\n  jump\t// in\ntag_45:\n    /* \"#utility.yul\":1773:1778   */\n  dup2\n    /* \"#utility.yul\":1770:1805   */\n  eq\n    /* \"#utility.yul\":1760:1823   */\n  tag_46\n  jumpi\n    /* \"#utility.yul\":1819:1820   */\n  0x00\n    /* \"#utility.yul\":1816:1817   */\n  dup1\n    /* \"#utility.yul\":1809:1821   */\n  revert\n    /* \"#utility.yul\":1760:1823   */\ntag_46:\n    /* \"#utility.yul\":1707:1829   */\n  pop\n  jump\t// out\n    /* \"#utility.yul\":1835:1985   */\ntag_23:\n    /* \"#utility.yul\":1922:1960   */\n  tag_48\n    /* \"#utility.yul\":1954:1959   */\n  dup2\n    /* \"#utility.yul\":1922:1960   */\n  tag_37\n  jump\t// in\ntag_48:\n    /* \"#utility.yul\":1915:1920   */\n  dup2\n    /* \"#utility.yul\":1912:1961   */\n  eq\n    /* \"#utility.yul\":1902:1979   */\n  tag_49\n  jumpi\n    /* \"#utility.yul\":1975:1976   */\n  0x00\n    /* \"#utility.yul\":1972:1973   */\n  dup1\n    /* \"#utility.yul\":1965:1977   */\n  revert\n    /* \"#utility.yul\":1902:1979   */\ntag_49:\n    /* \"#utility.yul\":1835:1985   */\n  pop\n  jump\t// out\n    /* \"contracts/Utils.sol\":18715:25179  contract Utils is Ownable{\r... */\ntag_12:\n  dataSize(sub_0)\n  dup1\n  dataOffset(sub_0)\n  0x00\n  codecopy\n  0x00\n  return\nstop\n\nsub_0: assembly {\n        /* \"contracts/Utils.sol\":18715:25179  contract Utils is Ownable{\r... */\n      mstore(0x40, 0x80)\n      callvalue\n      dup1\n      iszero\n      tag_1\n      jumpi\n      0x00\n      dup1\n      revert\n    tag_1:\n      pop\n      jumpi(tag_2, lt(calldatasize, 0x04))\n      shr(0xe0, calldataload(0x00))\n      dup1\n      0x55b44eaf\n      gt\n      tag_21\n      jumpi\n      dup1\n      0xc0d78655\n      gt\n      tag_22\n      jumpi\n      dup1\n      0xc0d78655\n      eq\n      tag_16\n      jumpi\n      dup1\n      0xd979fb5f\n      eq\n      tag_17\n      jumpi\n      dup1\n      0xdbb79348\n      eq\n      tag_18\n      jumpi\n      dup1\n      0xe085f38e\n      eq\n      tag_19\n      jumpi\n      dup1\n      0xf2fde38b\n      eq\n      tag_20\n      jumpi\n      jump(tag_2)\n    tag_22:\n      dup1\n      0x55b44eaf\n      eq\n      tag_12\n      jumpi\n      dup1\n      0x715018a6\n      eq\n      tag_13\n      jumpi\n      dup1\n      0x8da5cb5b\n      eq\n      tag_14\n      jumpi\n      dup1\n      0x8dd95002\n      eq\n      tag_15\n      jumpi\n      jump(tag_2)\n    tag_21:\n      dup1\n      0x215cc989\n      gt\n      tag_23\n      jumpi\n      dup1\n      0x215cc989\n      eq\n      tag_7\n      jumpi\n      dup1\n      0x2f7c5980\n      eq\n      tag_8\n      jumpi\n      dup1\n      0x3268cc56\n      eq\n      tag_9\n      jumpi\n      dup1\n      0x3b979d45\n      eq\n      tag_10\n      jumpi\n      dup1\n      0x484f4ea9\n      eq\n      tag_11\n      jumpi\n      jump(tag_2)\n    tag_23:\n      dup1\n      0x1616f124\n      eq\n      tag_3\n      jumpi\n      dup1\n      0x1858882b\n      eq\n      tag_4\n      jumpi\n      dup1\n      0x18b4ae20\n      eq\n      tag_5\n      jumpi\n      dup1\n      0x19047f8a\n      eq\n      tag_6\n      jumpi\n    tag_2:\n      0x00\n      dup1\n      revert\n        /* \"contracts/Utils.sol\":21366:21944  function calcPoolTVLInUSDNFTFarm(LP lpAddress, uint256 isLp, MetaMasterChef MasterChef) public view returns(uint256){\r... */\n    tag_3:\n      tag_24\n      0x04\n      dup1\n      calldatasize\n      sub\n      dup2\n      add\n      swap1\n      tag_25\n      swap2\n      swap1\n      tag_26\n      jump\t// in\n    tag_25:\n      tag_27\n      jump\t// in\n    tag_24:\n      mload(0x40)\n      tag_28\n      swap2\n      swap1\n      tag_29\n      jump\t// in\n    tag_28:\n      mload(0x40)\n      dup1\n      swap2\n      sub\n      swap1\n      return\n        /* \"contracts/Utils.sol\":24707:25176  function CalcTotalTVLNFTFarm(MetaMasterChef MasterChef,LP[] memory lpAddress) external view returns(uint256){\r... */\n    tag_4:\n      tag_30\n      0x04\n      dup1\n      calldatasize\n      sub\n      dup2\n      add\n      swap1\n      tag_31\n      swap2\n      swap1\n      tag_32\n      jump\t// in\n    tag_31:\n      tag_33\n      jump\t// in\n    tag_30:\n      mload(0x40)\n      tag_34\n      swap2\n      swap1\n      tag_29\n      jump\t// in\n    tag_34:\n      mload(0x40)\n      dup1\n      swap2\n      sub\n      swap1\n      return\n        /* \"contracts/Utils.sol\":23245:24050  function CalcApyNFTStake(uint256 pid, IERC721 NFTAddress, NFTStake NFTStakechef) external view returns(uint256){\r... */\n    tag_5:\n      tag_35\n      0x04\n      dup1\n      calldatasize\n      sub\n      dup2\n      add\n      swap1\n      tag_36\n      swap2\n      swap1\n      tag_37\n      jump\t// in\n    tag_36:\n      tag_38\n      jump\t// in\n    tag_35:\n      mload(0x40)\n      tag_39\n      swap2\n      swap1\n      tag_29\n      jump\t// in\n    tag_39:\n      mload(0x40)\n      dup1\n      swap2\n      sub\n      swap1\n      return\n        /* \"contracts/Utils.sol\":19374:19633  function Tokenprice(address token) public view returns(uint256){\r... */\n    tag_6:\n      tag_40\n      0x04\n      dup1\n      calldatasize\n      sub\n      dup2\n      add\n      swap1\n      tag_41\n      swap2\n      swap1\n      tag_42\n      jump\t// in\n    tag_41:\n      tag_43\n      jump\t// in\n    tag_40:\n      mload(0x40)\n      tag_44\n      swap2\n      swap1\n      tag_29\n      jump\t// in\n    tag_44:\n      mload(0x40)\n      dup1\n      swap2\n      sub\n      swap1\n      return\n        /* \"contracts/Utils.sol\":19916:20764  function CalcLpPrice(LP lpAddress) public view returns(uint256){\r... */\n    tag_7:\n      tag_45\n      0x04\n      dup1\n      calldatasize\n      sub\n      dup2\n      add\n      swap1\n      tag_46\n      swap2\n      swap1\n      tag_47\n      jump\t// in\n    tag_46:\n      tag_48\n      jump\t// in\n    tag_45:\n      mload(0x40)\n      tag_49\n      swap2\n      swap1\n      tag_29\n      jump\t// in\n    tag_49:\n      mload(0x40)\n      dup1\n      swap2\n      sub\n      swap1\n      return\n        /* \"contracts/Utils.sol\":24058:24237  function isLpAddress(LP lpAddress) public view returns(uint256){\r... */\n    tag_8:\n      tag_50\n      0x04\n      dup1\n      calldatasize\n      sub\n      dup2\n      add\n      swap1\n      tag_51\n      swap2\n      swap1\n      tag_47\n      jump\t// in\n    tag_51:\n      tag_52\n      jump\t// in\n    tag_50:\n      mload(0x40)\n      tag_53\n      swap2\n      swap1\n      tag_29\n      jump\t// in\n    tag_53:\n      mload(0x40)\n      dup1\n      swap2\n      sub\n      swap1\n      return\n        /* \"contracts/Utils.sol\":18991:19018  Router public routerAddress */\n    tag_9:\n      tag_54\n      tag_55\n      jump\t// in\n    tag_54:\n      mload(0x40)\n      tag_56\n      swap2\n      swap1\n      tag_57\n      jump\t// in\n    tag_56:\n      mload(0x40)\n      dup1\n      swap2\n      sub\n      swap1\n      return\n        /* \"contracts/Utils.sol\":19658:19891  function WBNBPrice(address token) public view returns(uint256){\r... */\n    tag_10:\n      tag_58\n      0x04\n      dup1\n      calldatasize\n      sub\n      dup2\n      add\n      swap1\n      tag_59\n      swap2\n      swap1\n      tag_42\n      jump\t// in\n    tag_59:\n      tag_60\n      jump\t// in\n    tag_58:\n      mload(0x40)\n      tag_61\n      swap2\n      swap1\n      tag_29\n      jump\t// in\n    tag_61:\n      mload(0x40)\n      dup1\n      swap2\n      sub\n      swap1\n      return\n        /* \"contracts/Utils.sol\":18922:18941  address public BUSD */\n    tag_11:\n      tag_62\n      tag_63\n      jump\t// in\n    tag_62:\n      mload(0x40)\n      tag_64\n      swap2\n      swap1\n      tag_65\n      jump\t// in\n    tag_64:\n      mload(0x40)\n      dup1\n      swap2\n      sub\n      swap1\n      return\n        /* \"contracts/Utils.sol\":24245:24699  function CalcTotalTVL(MetaMasterChef MasterChef,LP[] memory lpAddress) external view returns(uint256){\r... */\n    tag_12:\n      tag_66\n      0x04\n      dup1\n      calldatasize\n      sub\n      dup2\n      add\n      swap1\n      tag_67\n      swap2\n      swap1\n      tag_32\n      jump\t// in\n    tag_67:\n      tag_68\n      jump\t// in\n    tag_66:\n      mload(0x40)\n      tag_69\n      swap2\n      swap1\n      tag_29\n      jump\t// in\n    tag_69:\n      mload(0x40)\n      dup1\n      swap2\n      sub\n      swap1\n      return\n        /* \"contracts/Utils.sol\":14500:14603  function renounceOwnership() public virtual onlyOwner {\r... */\n    tag_13:\n      tag_70\n      tag_71\n      jump\t// in\n    tag_70:\n      stop\n        /* \"contracts/Utils.sol\":13849:13936  function owner() public view virtual returns (address) {\r... */\n    tag_14:\n      tag_72\n      tag_73\n      jump\t// in\n    tag_72:\n      mload(0x40)\n      tag_74\n      swap2\n      swap1\n      tag_65\n      jump\t// in\n    tag_74:\n      mload(0x40)\n      dup1\n      swap2\n      sub\n      swap1\n      return\n        /* \"contracts/Utils.sol\":18896:18915  address public WBNB */\n    tag_15:\n      tag_75\n      tag_76\n      jump\t// in\n    tag_75:\n      mload(0x40)\n      tag_77\n      swap2\n      swap1\n      tag_65\n      jump\t// in\n    tag_77:\n      mload(0x40)\n      dup1\n      swap2\n      sub\n      swap1\n      return\n        /* \"contracts/Utils.sol\":19242:19349  function setRouter(Router _routerAddress) public onlyOwner{\r... */\n    tag_16:\n      tag_78\n      0x04\n      dup1\n      calldatasize\n      sub\n      dup2\n      add\n      swap1\n      tag_79\n      swap2\n      swap1\n      tag_80\n      jump\t// in\n    tag_79:\n      tag_81\n      jump\t// in\n    tag_78:\n      stop\n        /* \"contracts/Utils.sol\":20787:21358  function calcPoolTVLInUSD(uint256 pid, LP lpAddress, uint256 isLp, MetaMasterChef MasterChef) public view returns(uint256){\r... */\n    tag_17:\n      tag_82\n      0x04\n      dup1\n      calldatasize\n      sub\n      dup2\n      add\n      swap1\n      tag_83\n      swap2\n      swap1\n      tag_84\n      jump\t// in\n    tag_83:\n      tag_85\n      jump\t// in\n    tag_82:\n      mload(0x40)\n      tag_86\n      swap2\n      swap1\n      tag_29\n      jump\t// in\n    tag_86:\n      mload(0x40)\n      dup1\n      swap2\n      sub\n      swap1\n      return\n        /* \"contracts/Utils.sol\":21952:22742  function CalcApy(uint256 pid, LP lpAddress,uint256 isLp, MetaMasterChef MasterChef) external view returns(uint256){\r... */\n    tag_18:\n      tag_87\n      0x04\n      dup1\n      calldatasize\n      sub\n      dup2\n      add\n      swap1\n      tag_88\n      swap2\n      swap1\n      tag_84\n      jump\t// in\n    tag_88:\n      tag_89\n      jump\t// in\n    tag_87:\n      mload(0x40)\n      tag_90\n      swap2\n      swap1\n      tag_29\n      jump\t// in\n    tag_90:\n      mload(0x40)\n      dup1\n      swap2\n      sub\n      swap1\n      return\n        /* \"contracts/Utils.sol\":22750:23237  function CalcApyNFTFarm(uint256 pid, NFTMasterChef MasterChef) external view returns(uint256){\r... */\n    tag_19:\n      tag_91\n      0x04\n      dup1\n      calldatasize\n      sub\n      dup2\n      add\n      swap1\n      tag_92\n      swap2\n      swap1\n      tag_93\n      jump\t// in\n    tag_92:\n      tag_94\n      jump\t// in\n    tag_91:\n      mload(0x40)\n      tag_95\n      swap2\n      swap1\n      tag_29\n      jump\t// in\n    tag_95:\n      mload(0x40)\n      dup1\n      swap2\n      sub\n      swap1\n      return\n        /* \"contracts/Utils.sol\":14758:14959  function transferOwnership(address newOwner) public virtual onlyOwner {\r... */\n    tag_20:\n      tag_96\n      0x04\n      dup1\n      calldatasize\n      sub\n      dup2\n      add\n      swap1\n      tag_97\n      swap2\n      swap1\n      tag_42\n      jump\t// in\n    tag_97:\n      tag_98\n      jump\t// in\n    tag_96:\n      stop\n        /* \"contracts/Utils.sol\":21366:21944  function calcPoolTVLInUSDNFTFarm(LP lpAddress, uint256 isLp, MetaMasterChef MasterChef) public view returns(uint256){\r... */\n    tag_27:\n        /* \"contracts/Utils.sol\":21474:21481  uint256 */\n      0x00\n        /* \"contracts/Utils.sol\":21493:21508  uint256 Balance */\n      dup1\n        /* \"contracts/Utils.sol\":21511:21520  lpAddress */\n      dup5\n        /* \"contracts/Utils.sol\":21511:21530  lpAddress.balanceOf */\n      0xffffffffffffffffffffffffffffffffffffffff\n      and\n      0x70a08231\n        /* \"contracts/Utils.sol\":21539:21549  MasterChef */\n      dup5\n        /* \"contracts/Utils.sol\":21511:21551  lpAddress.balanceOf(address(MasterChef)) */\n      mload(0x40)\n      dup3\n      0xffffffff\n      and\n      0xe0\n      shl\n      dup2\n      mstore\n      0x04\n      add\n      tag_100\n      swap2\n      swap1\n      tag_65\n      jump\t// in\n    tag_100:\n      0x20\n      mload(0x40)\n      dup1\n      dup4\n      sub\n      dup2\n      dup7\n      dup1\n      extcodesize\n      iszero\n      dup1\n      iszero\n      tag_101\n      jumpi\n      0x00\n      dup1\n      revert\n    tag_101:\n      pop\n      gas\n      staticcall\n      iszero\n      dup1\n      iszero\n      tag_103\n      jumpi\n      returndatasize\n      0x00\n      dup1\n      returndatacopy\n      revert(0x00, returndatasize)\n    tag_103:\n      pop\n      pop\n      pop\n      pop\n      mload(0x40)\n      returndatasize\n      not(0x1f)\n      0x1f\n      dup3\n      add\n      and\n      dup3\n      add\n      dup1\n      0x40\n      mstore\n      pop\n      dup2\n      add\n      swap1\n      tag_104\n      swap2\n      swap1\n      tag_105\n      jump\t// in\n    tag_104:\n        /* \"contracts/Utils.sol\":21493:21551  uint256 Balance = lpAddress.balanceOf(address(MasterChef)) */\n      swap1\n      pop\n        /* \"contracts/Utils.sol\":21562:21575  uint256 price */\n      0x00\n        /* \"contracts/Utils.sol\":21597:21598  1 */\n      0x01\n        /* \"contracts/Utils.sol\":21589:21593  isLp */\n      dup6\n        /* \"contracts/Utils.sol\":21589:21598  isLp == 1 */\n      eq\n        /* \"contracts/Utils.sol\":21586:21888  if(isLp == 1){\r... */\n      iszero\n      tag_106\n      jumpi\n        /* \"contracts/Utils.sol\":21622:21644  CalcLpPrice(lpAddress) */\n      tag_107\n        /* \"contracts/Utils.sol\":21634:21643  lpAddress */\n      dup7\n        /* \"contracts/Utils.sol\":21622:21633  CalcLpPrice */\n      tag_48\n        /* \"contracts/Utils.sol\":21622:21644  CalcLpPrice(lpAddress) */\n      jump\t// in\n    tag_107:\n        /* \"contracts/Utils.sol\":21614:21644  price = CalcLpPrice(lpAddress) */\n      swap1\n      pop\n        /* \"contracts/Utils.sol\":21586:21888  if(isLp == 1){\r... */\n      jump(tag_108)\n    tag_106:\n        /* \"contracts/Utils.sol\":21672:21673  0 */\n      0x00\n        /* \"contracts/Utils.sol\":21664:21668  isLp */\n      dup6\n        /* \"contracts/Utils.sol\":21664:21673  isLp == 0 */\n      eq\n        /* \"contracts/Utils.sol\":21661:21888  if(isLp == 0){\r... */\n      iszero\n      tag_109\n      jumpi\n        /* \"contracts/Utils.sol\":21717:21726  lpAddress */\n      dup6\n        /* \"contracts/Utils.sol\":21692:21727  address(WBNB) == address(lpAddress) */\n      0xffffffffffffffffffffffffffffffffffffffff\n      and\n        /* \"contracts/Utils.sol\":21700:21704  WBNB */\n      0x01\n      0x00\n      swap1\n      sload\n      swap1\n      0x0100\n      exp\n      swap1\n      div\n      0xffffffffffffffffffffffffffffffffffffffff\n      and\n        /* \"contracts/Utils.sol\":21692:21727  address(WBNB) == address(lpAddress) */\n      0xffffffffffffffffffffffffffffffffffffffff\n      and\n      eq\n        /* \"contracts/Utils.sol\":21689:21877  if(address(WBNB) == address(lpAddress)){\r... */\n      iszero\n      tag_110\n      jumpi\n        /* \"contracts/Utils.sol\":21755:21784  WBNBPrice(address(lpAddress)) */\n      tag_111\n        /* \"contracts/Utils.sol\":21773:21782  lpAddress */\n      dup7\n        /* \"contracts/Utils.sol\":21755:21764  WBNBPrice */\n      tag_60\n        /* \"contracts/Utils.sol\":21755:21784  WBNBPrice(address(lpAddress)) */\n      jump\t// in\n    tag_111:\n        /* \"contracts/Utils.sol\":21747:21784  price = WBNBPrice(address(lpAddress)) */\n      swap1\n      pop\n        /* \"contracts/Utils.sol\":21689:21877  if(address(WBNB) == address(lpAddress)){\r... */\n      jump(tag_112)\n    tag_110:\n        /* \"contracts/Utils.sol\":21831:21861  Tokenprice(address(lpAddress)) */\n      tag_113\n        /* \"contracts/Utils.sol\":21850:21859  lpAddress */\n      dup7\n        /* \"contracts/Utils.sol\":21831:21841  Tokenprice */\n      tag_43\n        /* \"contracts/Utils.sol\":21831:21861  Tokenprice(address(lpAddress)) */\n      jump\t// in\n    tag_113:\n        /* \"contracts/Utils.sol\":21823:21861  price = Tokenprice(address(lpAddress)) */\n      swap1\n      pop\n        /* \"contracts/Utils.sol\":21689:21877  if(address(WBNB) == address(lpAddress)){\r... */\n    tag_112:\n        /* \"contracts/Utils.sol\":21661:21888  if(isLp == 0){\r... */\n    tag_109:\n        /* \"contracts/Utils.sol\":21586:21888  if(isLp == 1){\r... */\n    tag_108:\n        /* \"contracts/Utils.sol\":21907:21936  (Balance * price).div(amount) */\n      tag_114\n        /* \"contracts/Utils.sol\":21929:21935  amount */\n      sload(0x03)\n        /* \"contracts/Utils.sol\":21918:21923  price */\n      dup3\n        /* \"contracts/Utils.sol\":21908:21915  Balance */\n      dup5\n        /* \"contracts/Utils.sol\":21908:21923  Balance * price */\n      tag_115\n      swap2\n      swap1\n      tag_116\n      jump\t// in\n    tag_115:\n        /* \"contracts/Utils.sol\":21907:21928  (Balance * price).div */\n      tag_117\n      swap1\n        /* \"contracts/Utils.sol\":21907:21936  (Balance * price).div(amount) */\n      swap2\n      swap1\n      0xffffffff\n      and\n      jump\t// in\n    tag_114:\n        /* \"contracts/Utils.sol\":21900:21936  return (Balance * price).div(amount) */\n      swap3\n      pop\n      pop\n      pop\n        /* \"contracts/Utils.sol\":21366:21944  function calcPoolTVLInUSDNFTFarm(LP lpAddress, uint256 isLp, MetaMasterChef MasterChef) public view returns(uint256){\r... */\n      swap4\n      swap3\n      pop\n      pop\n      pop\n      jump\t// out\n        /* \"contracts/Utils.sol\":24707:25176  function CalcTotalTVLNFTFarm(MetaMasterChef MasterChef,LP[] memory lpAddress) external view returns(uint256){\r... */\n    tag_33:\n        /* \"contracts/Utils.sol\":24807:24814  uint256 */\n      0x00\n        /* \"contracts/Utils.sol\":24826:24837  uint256 TVL */\n      dup1\n        /* \"contracts/Utils.sol\":24840:24841  0 */\n      0x00\n        /* \"contracts/Utils.sol\":24826:24841  uint256 TVL = 0 */\n      swap1\n      pop\n        /* \"contracts/Utils.sol\":24856:24865  uint256 i */\n      0x00\n        /* \"contracts/Utils.sol\":24852:25146  for(uint256 i=0; i< lpAddress.length; i++){\r... */\n    tag_119:\n        /* \"contracts/Utils.sol\":24872:24881  lpAddress */\n      dup4\n        /* \"contracts/Utils.sol\":24872:24888  lpAddress.length */\n      mload\n        /* \"contracts/Utils.sol\":24869:24870  i */\n      dup2\n        /* \"contracts/Utils.sol\":24869:24888  i< lpAddress.length */\n      lt\n        /* \"contracts/Utils.sol\":24852:25146  for(uint256 i=0; i< lpAddress.length; i++){\r... */\n      iszero\n      tag_120\n      jumpi\n        /* \"contracts/Utils.sol\":24941:24942  1 */\n      0x01\n        /* \"contracts/Utils.sol\":24912:24937  isLpAddress(lpAddress[i]) */\n      tag_122\n        /* \"contracts/Utils.sol\":24924:24933  lpAddress */\n      dup6\n        /* \"contracts/Utils.sol\":24934:24935  i */\n      dup4\n        /* \"contracts/Utils.sol\":24924:24936  lpAddress[i] */\n      dup2\n      mload\n      dup2\n      lt\n      tag_123\n      jumpi\n      tag_124\n      tag_125\n      jump\t// in\n    tag_124:\n    tag_123:\n      0x20\n      mul\n      0x20\n      add\n      add\n      mload\n        /* \"contracts/Utils.sol\":24912:24923  isLpAddress */\n      tag_52\n        /* \"contracts/Utils.sol\":24912:24937  isLpAddress(lpAddress[i]) */\n      jump\t// in\n    tag_122:\n        /* \"contracts/Utils.sol\":24912:24942  isLpAddress(lpAddress[i]) == 1 */\n      eq\n        /* \"contracts/Utils.sol\":24909:25135  if(isLpAddress(lpAddress[i]) == 1){\r... */\n      iszero\n      tag_126\n      jumpi\n        /* \"contracts/Utils.sol\":24969:25021  calcPoolTVLInUSDNFTFarm(lpAddress[i], 1, MasterChef) */\n      tag_127\n        /* \"contracts/Utils.sol\":24993:25002  lpAddress */\n      dup5\n        /* \"contracts/Utils.sol\":25003:25004  i */\n      dup3\n        /* \"contracts/Utils.sol\":24993:25005  lpAddress[i] */\n      dup2\n      mload\n      dup2\n      lt\n      tag_128\n      jumpi\n      tag_129\n      tag_125\n      jump\t// in\n    tag_129:\n    tag_128:\n      0x20\n      mul\n      0x20\n      add\n      add\n      mload\n        /* \"contracts/Utils.sol\":25007:25008  1 */\n      0x01\n        /* \"contracts/Utils.sol\":25010:25020  MasterChef */\n      dup8\n        /* \"contracts/Utils.sol\":24969:24992  calcPoolTVLInUSDNFTFarm */\n      tag_27\n        /* \"contracts/Utils.sol\":24969:25021  calcPoolTVLInUSDNFTFarm(lpAddress[i], 1, MasterChef) */\n      jump\t// in\n    tag_127:\n        /* \"contracts/Utils.sol\":24962:25021  TVL += calcPoolTVLInUSDNFTFarm(lpAddress[i], 1, MasterChef) */\n      dup3\n      tag_130\n      swap2\n      swap1\n      tag_131\n      jump\t// in\n    tag_130:\n      swap2\n      pop\n        /* \"contracts/Utils.sol\":24909:25135  if(isLpAddress(lpAddress[i]) == 1){\r... */\n      jump(tag_132)\n    tag_126:\n        /* \"contracts/Utils.sol\":25067:25119  calcPoolTVLInUSDNFTFarm(lpAddress[i], 0, MasterChef) */\n      tag_133\n        /* \"contracts/Utils.sol\":25091:25100  lpAddress */\n      dup5\n        /* \"contracts/Utils.sol\":25101:25102  i */\n      dup3\n        /* \"contracts/Utils.sol\":25091:25103  lpAddress[i] */\n      dup2\n      mload\n      dup2\n      lt\n      tag_134\n      jumpi\n      tag_135\n      tag_125\n      jump\t// in\n    tag_135:\n    tag_134:\n      0x20\n      mul\n      0x20\n      add\n      add\n      mload\n        /* \"contracts/Utils.sol\":25105:25106  0 */\n      0x00\n        /* \"contracts/Utils.sol\":25108:25118  MasterChef */\n      dup8\n        /* \"contracts/Utils.sol\":25067:25090  calcPoolTVLInUSDNFTFarm */\n      tag_27\n        /* \"contracts/Utils.sol\":25067:25119  calcPoolTVLInUSDNFTFarm(lpAddress[i], 0, MasterChef) */\n      jump\t// in\n    tag_133:\n        /* \"contracts/Utils.sol\":25060:25119  TVL += calcPoolTVLInUSDNFTFarm(lpAddress[i], 0, MasterChef) */\n      dup3\n      tag_136\n      swap2\n      swap1\n      tag_131\n      jump\t// in\n    tag_136:\n      swap2\n      pop\n        /* \"contracts/Utils.sol\":24909:25135  if(isLpAddress(lpAddress[i]) == 1){\r... */\n    tag_132:\n        /* \"contracts/Utils.sol\":24890:24893  i++ */\n      dup1\n      dup1\n      tag_137\n      swap1\n      tag_138\n      jump\t// in\n    tag_137:\n      swap2\n      pop\n      pop\n        /* \"contracts/Utils.sol\":24852:25146  for(uint256 i=0; i< lpAddress.length; i++){\r... */\n      jump(tag_119)\n    tag_120:\n      pop\n        /* \"contracts/Utils.sol\":25165:25168  TVL */\n      dup1\n        /* \"contracts/Utils.sol\":25158:25168  return TVL */\n      swap2\n      pop\n      pop\n        /* \"contracts/Utils.sol\":24707:25176  function CalcTotalTVLNFTFarm(MetaMasterChef MasterChef,LP[] memory lpAddress) external view returns(uint256){\r... */\n      swap3\n      swap2\n      pop\n      pop\n      jump\t// out\n        /* \"contracts/Utils.sol\":23245:24050  function CalcApyNFTStake(uint256 pid, IERC721 NFTAddress, NFTStake NFTStakechef) external view returns(uint256){\r... */\n    tag_38:\n        /* \"contracts/Utils.sol\":23348:23355  uint256 */\n      0x00\n        /* \"contracts/Utils.sol\":23367:23395  PoolNFTStakeInfo memory pool */\n      dup1\n        /* \"contracts/Utils.sol\":23398:23410  NFTStakechef */\n      dup3\n        /* \"contracts/Utils.sol\":23398:23419  NFTStakechef.poolInfo */\n      0xffffffffffffffffffffffffffffffffffffffff\n      and\n      0x1526fe27\n        /* \"contracts/Utils.sol\":23420:23423  pid */\n      dup7\n        /* \"contracts/Utils.sol\":23398:23424  NFTStakechef.poolInfo(pid) */\n      mload(0x40)\n      dup3\n      0xffffffff\n      and\n      0xe0\n      shl\n      dup2\n      mstore\n      0x04\n      add\n      tag_140\n      swap2\n      swap1\n      tag_29\n      jump\t// in\n    tag_140:\n      0x80\n      mload(0x40)\n      dup1\n      dup4\n      sub\n      dup2\n      dup7\n      dup1\n      extcodesize\n      iszero\n      dup1\n      iszero\n      tag_141\n      jumpi\n      0x00\n      dup1\n      revert\n    tag_141:\n      pop\n      gas\n      staticcall\n      iszero\n      dup1\n      iszero\n      tag_143\n      jumpi\n      returndatasize\n      0x00\n      dup1\n      returndatacopy\n      revert(0x00, returndatasize)\n    tag_143:\n      pop\n      pop\n      pop\n      pop\n      mload(0x40)\n      returndatasize\n      not(0x1f)\n      0x1f\n      dup3\n      add\n      and\n      dup3\n      add\n      dup1\n      0x40\n      mstore\n      pop\n      dup2\n      add\n      swap1\n      tag_144\n      swap2\n      swap1\n      tag_145\n      jump\t// in\n    tag_144:\n        /* \"contracts/Utils.sol\":23367:23424  PoolNFTStakeInfo memory pool = NFTStakechef.poolInfo(pid) */\n      swap1\n      pop\n        /* \"contracts/Utils.sol\":23435:23453  uint256 poolWeight */\n      0x00\n        /* \"contracts/Utils.sol\":23456:23523  ((pool.allocPoint).mul(amount)).div(NFTStakechef.totalAllocPoint()) */\n      tag_146\n        /* \"contracts/Utils.sol\":23492:23504  NFTStakechef */\n      dup5\n        /* \"contracts/Utils.sol\":23492:23520  NFTStakechef.totalAllocPoint */\n      0xffffffffffffffffffffffffffffffffffffffff\n      and\n      0x17caf6f1\n        /* \"contracts/Utils.sol\":23492:23522  NFTStakechef.totalAllocPoint() */\n      mload(0x40)\n      dup2\n      0xffffffff\n      and\n      0xe0\n      shl\n      dup2\n      mstore\n      0x04\n      add\n      0x20\n      mload(0x40)\n      dup1\n      dup4\n      sub\n      dup2\n      dup7\n      dup1\n      extcodesize\n      iszero\n      dup1\n      iszero\n      tag_147\n      jumpi\n      0x00\n      dup1\n      revert\n    tag_147:\n      pop\n      gas\n      staticcall\n      iszero\n      dup1\n      iszero\n      tag_149\n      jumpi\n      returndatasize\n      0x00\n      dup1\n      returndatacopy\n      revert(0x00, returndatasize)\n    tag_149:\n      pop\n      pop\n      pop\n      pop\n      mload(0x40)\n      returndatasize\n      not(0x1f)\n      0x1f\n      dup3\n      add\n      and\n      dup3\n      add\n      dup1\n      0x40\n      mstore\n      pop\n      dup2\n      add\n      swap1\n      tag_150\n      swap2\n      swap1\n      tag_105\n      jump\t// in\n    tag_150:\n        /* \"contracts/Utils.sol\":23457:23486  (pool.allocPoint).mul(amount) */\n      tag_151\n        /* \"contracts/Utils.sol\":23479:23485  amount */\n      sload(0x03)\n        /* \"contracts/Utils.sol\":23458:23462  pool */\n      dup6\n        /* \"contracts/Utils.sol\":23458:23473  pool.allocPoint */\n      0x20\n      add\n      mload\n        /* \"contracts/Utils.sol\":23457:23478  (pool.allocPoint).mul */\n      tag_152\n      swap1\n        /* \"contracts/Utils.sol\":23457:23486  (pool.allocPoint).mul(amount) */\n      swap2\n      swap1\n      0xffffffff\n      and\n      jump\t// in\n    tag_151:\n        /* \"contracts/Utils.sol\":23456:23491  ((pool.allocPoint).mul(amount)).div */\n      tag_117\n      swap1\n        /* \"contracts/Utils.sol\":23456:23523  ((pool.allocPoint).mul(amount)).div(NFTStakechef.totalAllocPoint()) */\n      swap2\n      swap1\n      0xffffffff\n      and\n      jump\t// in\n    tag_146:\n        /* \"contracts/Utils.sol\":23435:23523  uint256 poolWeight = ((pool.allocPoint).mul(amount)).div(NFTStakechef.totalAllocPoint()) */\n      swap1\n      pop\n        /* \"contracts/Utils.sol\":23534:23558  uint256 rewardTokenPrice */\n      0x00\n        /* \"contracts/Utils.sol\":23561:23591  Tokenprice(NFTStakechef.DDT()) */\n      tag_153\n        /* \"contracts/Utils.sol\":23572:23584  NFTStakechef */\n      dup6\n        /* \"contracts/Utils.sol\":23572:23588  NFTStakechef.DDT */\n      0xffffffffffffffffffffffffffffffffffffffff\n      and\n      0xcb3cba55\n        /* \"contracts/Utils.sol\":23572:23590  NFTStakechef.DDT() */\n      mload(0x40)\n      dup2\n      0xffffffff\n      and\n      0xe0\n      shl\n      dup2\n      mstore\n      0x04\n      add\n      0x20\n      mload(0x40)\n      dup1\n      dup4\n      sub\n      dup2\n      dup7\n      dup1\n      extcodesize\n      iszero\n      dup1\n      iszero\n      tag_154\n      jumpi\n      0x00\n      dup1\n      revert\n    tag_154:\n      pop\n      gas\n      staticcall\n      iszero\n      dup1\n      iszero\n      tag_156\n      jumpi\n      returndatasize\n      0x00\n      dup1\n      returndatacopy\n      revert(0x00, returndatasize)\n    tag_156:\n      pop\n      pop\n      pop\n      pop\n      mload(0x40)\n      returndatasize\n      not(0x1f)\n      0x1f\n      dup3\n      add\n      and\n      dup3\n      add\n      dup1\n      0x40\n      mstore\n      pop\n      dup2\n      add\n      swap1\n      tag_157\n      swap2\n      swap1\n      tag_158\n      jump\t// in\n    tag_157:\n        /* \"contracts/Utils.sol\":23561:23571  Tokenprice */\n      tag_43\n        /* \"contracts/Utils.sol\":23561:23591  Tokenprice(NFTStakechef.DDT()) */\n      jump\t// in\n    tag_153:\n        /* \"contracts/Utils.sol\":23534:23591  uint256 rewardTokenPrice = Tokenprice(NFTStakechef.DDT()) */\n      swap1\n      pop\n        /* \"contracts/Utils.sol\":23602:23622  uint256 DRG_PER_YEAR */\n      0x00\n        /* \"contracts/Utils.sol\":23625:23672  BLOCKS_PER_YEAR.mul(NFTStakechef.DDTPerBlock()) */\n      tag_159\n        /* \"contracts/Utils.sol\":23645:23657  NFTStakechef */\n      dup7\n        /* \"contracts/Utils.sol\":23645:23669  NFTStakechef.DDTPerBlock */\n      0xffffffffffffffffffffffffffffffffffffffff\n      and\n      0xf395db2c\n        /* \"contracts/Utils.sol\":23645:23671  NFTStakechef.DDTPerBlock() */\n      mload(0x40)\n      dup2\n      0xffffffff\n      and\n      0xe0\n      shl\n      dup2\n      mstore\n      0x04\n      add\n      0x20\n      mload(0x40)\n      dup1\n      dup4\n      sub\n      dup2\n      dup7\n      dup1\n      extcodesize\n      iszero\n      dup1\n      iszero\n      tag_160\n      jumpi\n      0x00\n      dup1\n      revert\n    tag_160:\n      pop\n      gas\n      staticcall\n      iszero\n      dup1\n      iszero\n      tag_162\n      jumpi\n      returndatasize\n      0x00\n      dup1\n      returndatacopy\n      revert(0x00, returndatasize)\n    tag_162:\n      pop\n      pop\n      pop\n      pop\n      mload(0x40)\n      returndatasize\n      not(0x1f)\n      0x1f\n      dup3\n      add\n      and\n      dup3\n      add\n      dup1\n      0x40\n      mstore\n      pop\n      dup2\n      add\n      swap1\n      tag_163\n      swap2\n      swap1\n      tag_105\n      jump\t// in\n    tag_163:\n        /* \"contracts/Utils.sol\":23625:23640  BLOCKS_PER_YEAR */\n      sload(0x05)\n        /* \"contracts/Utils.sol\":23625:23644  BLOCKS_PER_YEAR.mul */\n      tag_152\n      swap1\n        /* \"contracts/Utils.sol\":23625:23672  BLOCKS_PER_YEAR.mul(NFTStakechef.DDTPerBlock()) */\n      swap2\n      swap1\n      0xffffffff\n      and\n      jump\t// in\n    tag_159:\n        /* \"contracts/Utils.sol\":23602:23672  uint256 DRG_PER_YEAR = BLOCKS_PER_YEAR.mul(NFTStakechef.DDTPerBlock()) */\n      swap1\n      pop\n        /* \"contracts/Utils.sol\":23683:23716  uint256 yearlyDRGRewardAllocation */\n      0x00\n        /* \"contracts/Utils.sol\":23719:23761  (DRG_PER_YEAR.mul(poolWeight)).div(amount) */\n      tag_164\n        /* \"contracts/Utils.sol\":23754:23760  amount */\n      sload(0x03)\n        /* \"contracts/Utils.sol\":23720:23748  DRG_PER_YEAR.mul(poolWeight) */\n      tag_165\n        /* \"contracts/Utils.sol\":23737:23747  poolWeight */\n      dup7\n        /* \"contracts/Utils.sol\":23720:23732  DRG_PER_YEAR */\n      dup6\n        /* \"contracts/Utils.sol\":23720:23736  DRG_PER_YEAR.mul */\n      tag_152\n      swap1\n        /* \"contracts/Utils.sol\":23720:23748  DRG_PER_YEAR.mul(poolWeight) */\n      swap2\n      swap1\n      0xffffffff\n      and\n      jump\t// in\n    tag_165:\n        /* \"contracts/Utils.sol\":23719:23753  (DRG_PER_YEAR.mul(poolWeight)).div */\n      tag_117\n      swap1\n        /* \"contracts/Utils.sol\":23719:23761  (DRG_PER_YEAR.mul(poolWeight)).div(amount) */\n      swap2\n      swap1\n      0xffffffff\n      and\n      jump\t// in\n    tag_164:\n        /* \"contracts/Utils.sol\":23683:23761  uint256 yearlyDRGRewardAllocation = (DRG_PER_YEAR.mul(poolWeight)).div(amount) */\n      swap1\n      pop\n        /* \"contracts/Utils.sol\":23772:23796  uint256 poolLiquidityUsd */\n      0x00\n        /* \"contracts/Utils.sol\":23799:23851  NFTAddress.balanceOf(address(NFTStakechef)).mul(100) */\n      tag_166\n        /* \"contracts/Utils.sol\":23847:23850  100 */\n      0x64\n        /* \"contracts/Utils.sol\":23799:23809  NFTAddress */\n      dup11\n        /* \"contracts/Utils.sol\":23799:23819  NFTAddress.balanceOf */\n      0xffffffffffffffffffffffffffffffffffffffff\n      and\n      0x70a08231\n        /* \"contracts/Utils.sol\":23828:23840  NFTStakechef */\n      dup12\n        /* \"contracts/Utils.sol\":23799:23842  NFTAddress.balanceOf(address(NFTStakechef)) */\n      mload(0x40)\n      dup3\n      0xffffffff\n      and\n      0xe0\n      shl\n      dup2\n      mstore\n      0x04\n      add\n      tag_167\n      swap2\n      swap1\n      tag_65\n      jump\t// in\n    tag_167:\n      0x20\n      mload(0x40)\n      dup1\n      dup4\n      sub\n      dup2\n      dup7\n      dup1\n      extcodesize\n      iszero\n      dup1\n      iszero\n      tag_168\n      jumpi\n      0x00\n      dup1\n      revert\n    tag_168:\n      pop\n      gas\n      staticcall\n      iszero\n      dup1\n      iszero\n      tag_170\n      jumpi\n      returndatasize\n      0x00\n      dup1\n      returndatacopy\n      revert(0x00, returndatasize)\n    tag_170:\n      pop\n      pop\n      pop\n      pop\n      mload(0x40)\n      returndatasize\n      not(0x1f)\n      0x1f\n      dup3\n      add\n      and\n      dup3\n      add\n      dup1\n      0x40\n      mstore\n      pop\n      dup2\n      add\n      swap1\n      tag_171\n      swap2\n      swap1\n      tag_105\n      jump\t// in\n    tag_171:\n        /* \"contracts/Utils.sol\":23799:23846  NFTAddress.balanceOf(address(NFTStakechef)).mul */\n      tag_152\n      swap1\n        /* \"contracts/Utils.sol\":23799:23851  NFTAddress.balanceOf(address(NFTStakechef)).mul(100) */\n      swap2\n      swap1\n      0xffffffff\n      and\n      jump\t// in\n    tag_166:\n        /* \"contracts/Utils.sol\":23772:23851  uint256 poolLiquidityUsd = NFTAddress.balanceOf(address(NFTStakechef)).mul(100) */\n      swap1\n      pop\n        /* \"contracts/Utils.sol\":23885:23886  0 */\n      0x00\n        /* \"contracts/Utils.sol\":23865:23881  poolLiquidityUsd */\n      dup2\n        /* \"contracts/Utils.sol\":23865:23886  poolLiquidityUsd == 0 */\n      eq\n        /* \"contracts/Utils.sol\":23862:24043  if(poolLiquidityUsd == 0){\r... */\n      iszero\n      tag_172\n      jumpi\n        /* \"contracts/Utils.sol\":23909:23910  0 */\n      0x00\n        /* \"contracts/Utils.sol\":23902:23910  return 0 */\n      swap7\n      pop\n      pop\n      pop\n      pop\n      pop\n      pop\n      pop\n      jump(tag_139)\n        /* \"contracts/Utils.sol\":23862:24043  if(poolLiquidityUsd == 0){\r... */\n    tag_172:\n        /* \"contracts/Utils.sol\":23947:24031  (((yearlyDRGRewardAllocation.mul(rewardTokenPrice))).div(poolLiquidityUsd)).mul(100) */\n      tag_174\n        /* \"contracts/Utils.sol\":24027:24030  100 */\n      0x64\n        /* \"contracts/Utils.sol\":23948:24021  ((yearlyDRGRewardAllocation.mul(rewardTokenPrice))).div(poolLiquidityUsd) */\n      tag_175\n        /* \"contracts/Utils.sol\":24004:24020  poolLiquidityUsd */\n      dup4\n        /* \"contracts/Utils.sol\":23950:23997  yearlyDRGRewardAllocation.mul(rewardTokenPrice) */\n      tag_176\n        /* \"contracts/Utils.sol\":23980:23996  rewardTokenPrice */\n      dup9\n        /* \"contracts/Utils.sol\":23950:23975  yearlyDRGRewardAllocation */\n      dup8\n        /* \"contracts/Utils.sol\":23950:23979  yearlyDRGRewardAllocation.mul */\n      tag_152\n      swap1\n        /* \"contracts/Utils.sol\":23950:23997  yearlyDRGRewardAllocation.mul(rewardTokenPrice) */\n      swap2\n      swap1\n      0xffffffff\n      and\n      jump\t// in\n    tag_176:\n        /* \"contracts/Utils.sol\":23948:24003  ((yearlyDRGRewardAllocation.mul(rewardTokenPrice))).div */\n      tag_117\n      swap1\n        /* \"contracts/Utils.sol\":23948:24021  ((yearlyDRGRewardAllocation.mul(rewardTokenPrice))).div(poolLiquidityUsd) */\n      swap2\n      swap1\n      0xffffffff\n      and\n      jump\t// in\n    tag_175:\n        /* \"contracts/Utils.sol\":23947:24026  (((yearlyDRGRewardAllocation.mul(rewardTokenPrice))).div(poolLiquidityUsd)).mul */\n      tag_152\n      swap1\n        /* \"contracts/Utils.sol\":23947:24031  (((yearlyDRGRewardAllocation.mul(rewardTokenPrice))).div(poolLiquidityUsd)).mul(100) */\n      swap2\n      swap1\n      0xffffffff\n      and\n      jump\t// in\n    tag_174:\n        /* \"contracts/Utils.sol\":23941:24031  return(((yearlyDRGRewardAllocation.mul(rewardTokenPrice))).div(poolLiquidityUsd)).mul(100) */\n      swap7\n      pop\n      pop\n      pop\n      pop\n      pop\n      pop\n      pop\n        /* \"contracts/Utils.sol\":23245:24050  function CalcApyNFTStake(uint256 pid, IERC721 NFTAddress, NFTStake NFTStakechef) external view returns(uint256){\r... */\n    tag_139:\n      swap4\n      swap3\n      pop\n      pop\n      pop\n      jump\t// out\n        /* \"contracts/Utils.sol\":19374:19633  function Tokenprice(address token) public view returns(uint256){\r... */\n    tag_43:\n        /* \"contracts/Utils.sol\":19429:19436  uint256 */\n      0x00\n        /* \"contracts/Utils.sol\":19448:19469  address[] memory path */\n      dup1\n        /* \"contracts/Utils.sol\":19486:19487  3 */\n      0x03\n        /* \"contracts/Utils.sol\":19472:19488  new address[](3) */\n      0xffffffffffffffff\n      dup2\n      gt\n      iszero\n      tag_178\n      jumpi\n      tag_179\n      tag_180\n      jump\t// in\n    tag_179:\n    tag_178:\n      mload(0x40)\n      swap1\n      dup1\n      dup3\n      mstore\n      dup1\n      0x20\n      mul\n      0x20\n      add\n      dup3\n      add\n      0x40\n      mstore\n      dup1\n      iszero\n      tag_181\n      jumpi\n      dup2\n      0x20\n      add\n      0x20\n      dup3\n      mul\n      dup1\n      calldatasize\n      dup4\n      calldatacopy\n      dup1\n      dup3\n      add\n      swap2\n      pop\n      pop\n      swap1\n      pop\n    tag_181:\n      pop\n        /* \"contracts/Utils.sol\":19448:19488  address[] memory path = new address[](3) */\n      swap1\n      pop\n        /* \"contracts/Utils.sol\":19509:19514  token */\n      dup3\n        /* \"contracts/Utils.sol\":19499:19503  path */\n      dup2\n        /* \"contracts/Utils.sol\":19504:19505  0 */\n      0x00\n        /* \"contracts/Utils.sol\":19499:19506  path[0] */\n      dup2\n      mload\n      dup2\n      lt\n      tag_182\n      jumpi\n      tag_183\n      tag_125\n      jump\t// in\n    tag_183:\n    tag_182:\n      0x20\n      mul\n      0x20\n      add\n      add\n        /* \"contracts/Utils.sol\":19499:19514  path[0] = token */\n      swap1\n      0xffffffffffffffffffffffffffffffffffffffff\n      and\n      swap1\n      dup2\n      0xffffffffffffffffffffffffffffffffffffffff\n      and\n      dup2\n      mstore\n      pop\n      pop\n        /* \"contracts/Utils.sol\":19535:19539  WBNB */\n      0x01\n      0x00\n      swap1\n      sload\n      swap1\n      0x0100\n      exp\n      swap1\n      div\n      0xffffffffffffffffffffffffffffffffffffffff\n      and\n        /* \"contracts/Utils.sol\":19525:19529  path */\n      dup2\n        /* \"contracts/Utils.sol\":19530:19531  1 */\n      0x01\n        /* \"contracts/Utils.sol\":19525:19532  path[1] */\n      dup2\n      mload\n      dup2\n      lt\n      tag_184\n      jumpi\n      tag_185\n      tag_125\n      jump\t// in\n    tag_185:\n    tag_184:\n      0x20\n      mul\n      0x20\n      add\n      add\n        /* \"contracts/Utils.sol\":19525:19539  path[1] = WBNB */\n      swap1\n      0xffffffffffffffffffffffffffffffffffffffff\n      and\n      swap1\n      dup2\n      0xffffffffffffffffffffffffffffffffffffffff\n      and\n      dup2\n      mstore\n      pop\n      pop\n        /* \"contracts/Utils.sol\":19560:19564  BUSD */\n      0x02\n      0x00\n      swap1\n      sload\n      swap1\n      0x0100\n      exp\n      swap1\n      div\n      0xffffffffffffffffffffffffffffffffffffffff\n      and\n        /* \"contracts/Utils.sol\":19550:19554  path */\n      dup2\n        /* \"contracts/Utils.sol\":19555:19556  2 */\n      0x02\n        /* \"contracts/Utils.sol\":19550:19557  path[2] */\n      dup2\n      mload\n      dup2\n      lt\n      tag_186\n      jumpi\n      tag_187\n      tag_125\n      jump\t// in\n    tag_187:\n    tag_186:\n      0x20\n      mul\n      0x20\n      add\n      add\n        /* \"contracts/Utils.sol\":19550:19564  path[2] = BUSD */\n      swap1\n      0xffffffffffffffffffffffffffffffffffffffff\n      and\n      swap1\n      dup2\n      0xffffffffffffffffffffffffffffffffffffffff\n      and\n      dup2\n      mstore\n      pop\n      pop\n        /* \"contracts/Utils.sol\":19582:19595  routerAddress */\n      0x04\n      0x00\n      swap1\n      sload\n      swap1\n      0x0100\n      exp\n      swap1\n      div\n      0xffffffffffffffffffffffffffffffffffffffff\n      and\n        /* \"contracts/Utils.sol\":19582:19609  routerAddress.getAmountsOut */\n      0xffffffffffffffffffffffffffffffffffffffff\n      and\n      0xd06ca61f\n        /* \"contracts/Utils.sol\":19610:19616  amount */\n      sload(0x03)\n        /* \"contracts/Utils.sol\":19617:19621  path */\n      dup4\n        /* \"contracts/Utils.sol\":19582:19622  routerAddress.getAmountsOut(amount,path) */\n      mload(0x40)\n      dup4\n      0xffffffff\n      and\n      0xe0\n      shl\n      dup2\n      mstore\n      0x04\n      add\n      tag_188\n      swap3\n      swap2\n      swap1\n      tag_189\n      jump\t// in\n    tag_188:\n      0x00\n      mload(0x40)\n      dup1\n      dup4\n      sub\n      dup2\n      dup7\n      dup1\n      extcodesize\n      iszero\n      dup1\n      iszero\n      tag_190\n      jumpi\n      0x00\n      dup1\n      revert\n    tag_190:\n      pop\n      gas\n      staticcall\n      iszero\n      dup1\n      iszero\n      tag_192\n      jumpi\n      returndatasize\n      0x00\n      dup1\n      returndatacopy\n      revert(0x00, returndatasize)\n    tag_192:\n      pop\n      pop\n      pop\n      pop\n      mload(0x40)\n      returndatasize\n      0x00\n      dup3\n      returndatacopy\n      returndatasize\n      not(0x1f)\n      0x1f\n      dup3\n      add\n      and\n      dup3\n      add\n      dup1\n      0x40\n      mstore\n      pop\n      dup2\n      add\n      swap1\n      tag_193\n      swap2\n      swap1\n      tag_194\n      jump\t// in\n    tag_193:\n        /* \"contracts/Utils.sol\":19623:19624  2 */\n      0x02\n        /* \"contracts/Utils.sol\":19582:19625  routerAddress.getAmountsOut(amount,path)[2] */\n      dup2\n      mload\n      dup2\n      lt\n      tag_195\n      jumpi\n      tag_196\n      tag_125\n      jump\t// in\n    tag_196:\n    tag_195:\n      0x20\n      mul\n      0x20\n      add\n      add\n      mload\n        /* \"contracts/Utils.sol\":19575:19625  return routerAddress.getAmountsOut(amount,path)[2] */\n      swap2\n      pop\n      pop\n        /* \"contracts/Utils.sol\":19374:19633  function Tokenprice(address token) public view returns(uint256){\r... */\n      swap2\n      swap1\n      pop\n      jump\t// out\n        /* \"contracts/Utils.sol\":19916:20764  function CalcLpPrice(LP lpAddress) public view returns(uint256){\r... */\n    tag_48:\n        /* \"contracts/Utils.sol\":19971:19978  uint256 */\n      0x00\n        /* \"contracts/Utils.sol\":19990:20004  uint256 phase1 */\n      dup1\n        /* \"contracts/Utils.sol\":20015:20029  uint256 phase2 */\n      0x00\n        /* \"contracts/Utils.sol\":20068:20077  lpAddress */\n      dup4\n        /* \"contracts/Utils.sol\":20068:20084  lpAddress.token0 */\n      0xffffffffffffffffffffffffffffffffffffffff\n      and\n      0x0dfe1681\n        /* \"contracts/Utils.sol\":20068:20086  lpAddress.token0() */\n      mload(0x40)\n      dup2\n      0xffffffff\n      and\n      0xe0\n      shl\n      dup2\n      mstore\n      0x04\n      add\n      0x20\n      mload(0x40)\n      dup1\n      dup4\n      sub\n      dup2\n      dup7\n      dup1\n      extcodesize\n      iszero\n      dup1\n      iszero\n      tag_198\n      jumpi\n      0x00\n      dup1\n      revert\n    tag_198:\n      pop\n      gas\n      staticcall\n      iszero\n      dup1\n      iszero\n      tag_200\n      jumpi\n      returndatasize\n      0x00\n      dup1\n      returndatacopy\n      revert(0x00, returndatasize)\n    tag_200:\n      pop\n      pop\n      pop\n      pop\n      mload(0x40)\n      returndatasize\n      not(0x1f)\n      0x1f\n      dup3\n      add\n      and\n      dup3\n      add\n      dup1\n      0x40\n      mstore\n      pop\n      dup2\n      add\n      swap1\n      tag_201\n      swap2\n      swap1\n      tag_202\n      jump\t// in\n    tag_201:\n        /* \"contracts/Utils.sol\":20043:20087  address(WBNB) == address(lpAddress.token0()) */\n      0xffffffffffffffffffffffffffffffffffffffff\n      and\n        /* \"contracts/Utils.sol\":20051:20055  WBNB */\n      0x01\n      0x00\n      swap1\n      sload\n      swap1\n      0x0100\n      exp\n      swap1\n      div\n      0xffffffffffffffffffffffffffffffffffffffff\n      and\n        /* \"contracts/Utils.sol\":20043:20087  address(WBNB) == address(lpAddress.token0()) */\n      0xffffffffffffffffffffffffffffffffffffffff\n      and\n      eq\n        /* \"contracts/Utils.sol\":20040:20353  if(address(WBNB) == address(lpAddress.token0())){\r... */\n      iszero\n      tag_203\n      jumpi\n        /* \"contracts/Utils.sol\":20113:20205  lpAddress.token0().balanceOf(address(lpAddress)).mul(WBNBPrice(address(lpAddress.token0()))) */\n      tag_204\n        /* \"contracts/Utils.sol\":20166:20204  WBNBPrice(address(lpAddress.token0())) */\n      tag_205\n        /* \"contracts/Utils.sol\":20184:20193  lpAddress */\n      dup6\n        /* \"contracts/Utils.sol\":20184:20200  lpAddress.token0 */\n      0xffffffffffffffffffffffffffffffffffffffff\n      and\n      0x0dfe1681\n        /* \"contracts/Utils.sol\":20184:20202  lpAddress.token0() */\n      mload(0x40)\n      dup2\n      0xffffffff\n      and\n      0xe0\n      shl\n      dup2\n      mstore\n      0x04\n      add\n      0x20\n      mload(0x40)\n      dup1\n      dup4\n      sub\n      dup2\n      dup7\n      dup1\n      extcodesize\n      iszero\n      dup1\n      iszero\n      tag_206\n      jumpi\n      0x00\n      dup1\n      revert\n    tag_206:\n      pop\n      gas\n      staticcall\n      iszero\n      dup1\n      iszero\n      tag_208\n      jumpi\n      returndatasize\n      0x00\n      dup1\n      returndatacopy\n      revert(0x00, returndatasize)\n    tag_208:\n      pop\n      pop\n      pop\n      pop\n      mload(0x40)\n      returndatasize\n      not(0x1f)\n      0x1f\n      dup3\n      add\n      and\n      dup3\n      add\n      dup1\n      0x40\n      mstore\n      pop\n      dup2\n      add\n      swap1\n      tag_209\n      swap2\n      swap1\n      tag_202\n      jump\t// in\n    tag_209:\n        /* \"contracts/Utils.sol\":20166:20175  WBNBPrice */\n      tag_60\n        /* \"contracts/Utils.sol\":20166:20204  WBNBPrice(address(lpAddress.token0())) */\n      jump\t// in\n    tag_205:\n        /* \"contracts/Utils.sol\":20113:20122  lpAddress */\n      dup6\n        /* \"contracts/Utils.sol\":20113:20129  lpAddress.token0 */\n      0xffffffffffffffffffffffffffffffffffffffff\n      and\n      0x0dfe1681\n        /* \"contracts/Utils.sol\":20113:20131  lpAddress.token0() */\n      mload(0x40)\n      dup2\n      0xffffffff\n      and\n      0xe0\n      shl\n      dup2\n      mstore\n      0x04\n      add\n      0x20\n      mload(0x40)\n      dup1\n      dup4\n      sub\n      dup2\n      dup7\n      dup1\n      extcodesize\n      iszero\n      dup1\n      iszero\n      tag_210\n      jumpi\n      0x00\n      dup1\n      revert\n    tag_210:\n      pop\n      gas\n      staticcall\n      iszero\n      dup1\n      iszero\n      tag_212\n      jumpi\n      returndatasize\n      0x00\n      dup1\n      returndatacopy\n      revert(0x00, returndatasize)\n    tag_212:\n      pop\n      pop\n      pop\n      pop\n      mload(0x40)\n      returndatasize\n      not(0x1f)\n      0x1f\n      dup3\n      add\n      and\n      dup3\n      add\n      dup1\n      0x40\n      mstore\n      pop\n      dup2\n      add\n      swap1\n      tag_213\n      swap2\n      swap1\n      tag_202\n      jump\t// in\n    tag_213:\n        /* \"contracts/Utils.sol\":20113:20141  lpAddress.token0().balanceOf */\n      0xffffffffffffffffffffffffffffffffffffffff\n      and\n      0x70a08231\n        /* \"contracts/Utils.sol\":20150:20159  lpAddress */\n      dup8\n        /* \"contracts/Utils.sol\":20113:20161  lpAddress.token0().balanceOf(address(lpAddress)) */\n      mload(0x40)\n      dup3\n      0xffffffff\n      and\n      0xe0\n      shl\n      dup2\n      mstore\n      0x04\n      add\n      tag_214\n      swap2\n      swap1\n      tag_65\n      jump\t// in\n    tag_214:\n      0x20\n      mload(0x40)\n      dup1\n      dup4\n      sub\n      dup2\n      dup7\n      dup1\n      extcodesize\n      iszero\n      dup1\n      iszero\n      tag_215\n      jumpi\n      0x00\n      dup1\n      revert\n    tag_215:\n      pop\n      gas\n      staticcall\n      iszero\n      dup1\n      iszero\n      tag_217\n      jumpi\n      returndatasize\n      0x00\n      dup1\n      returndatacopy\n      revert(0x00, returndatasize)\n    tag_217:\n      pop\n      pop\n      pop\n      pop\n      mload(0x40)\n      returndatasize\n      not(0x1f)\n      0x1f\n      dup3\n      add\n      and\n      dup3\n      add\n      dup1\n      0x40\n      mstore\n      pop\n      dup2\n      add\n      swap1\n      tag_218\n      swap2\n      swap1\n      tag_105\n      jump\t// in\n    tag_218:\n        /* \"contracts/Utils.sol\":20113:20165  lpAddress.token0().balanceOf(address(lpAddress)).mul */\n      tag_152\n      swap1\n        /* \"contracts/Utils.sol\":20113:20205  lpAddress.token0().balanceOf(address(lpAddress)).mul(WBNBPrice(address(lpAddress.token0()))) */\n      swap2\n      swap1\n      0xffffffff\n      and\n      jump\t// in\n    tag_204:\n        /* \"contracts/Utils.sol\":20103:20206  phase1 = (lpAddress.token0().balanceOf(address(lpAddress)).mul(WBNBPrice(address(lpAddress.token0())))) */\n      swap2\n      pop\n        /* \"contracts/Utils.sol\":20040:20353  if(address(WBNB) == address(lpAddress.token0())){\r... */\n      jump(tag_219)\n    tag_203:\n        /* \"contracts/Utils.sol\":20247:20340  lpAddress.token0().balanceOf(address(lpAddress)).mul(Tokenprice(address(lpAddress.token0()))) */\n      tag_220\n        /* \"contracts/Utils.sol\":20300:20339  Tokenprice(address(lpAddress.token0())) */\n      tag_221\n        /* \"contracts/Utils.sol\":20319:20328  lpAddress */\n      dup6\n        /* \"contracts/Utils.sol\":20319:20335  lpAddress.token0 */\n      0xffffffffffffffffffffffffffffffffffffffff\n      and\n      0x0dfe1681\n        /* \"contracts/Utils.sol\":20319:20337  lpAddress.token0() */\n      mload(0x40)\n      dup2\n      0xffffffff\n      and\n      0xe0\n      shl\n      dup2\n      mstore\n      0x04\n      add\n      0x20\n      mload(0x40)\n      dup1\n      dup4\n      sub\n      dup2\n      dup7\n      dup1\n      extcodesize\n      iszero\n      dup1\n      iszero\n      tag_222\n      jumpi\n      0x00\n      dup1\n      revert\n    tag_222:\n      pop\n      gas\n      staticcall\n      iszero\n      dup1\n      iszero\n      tag_224\n      jumpi\n      returndatasize\n      0x00\n      dup1\n      returndatacopy\n      revert(0x00, returndatasize)\n    tag_224:\n      pop\n      pop\n      pop\n      pop\n      mload(0x40)\n      returndatasize\n      not(0x1f)\n      0x1f\n      dup3\n      add\n      and\n      dup3\n      add\n      dup1\n      0x40\n      mstore\n      pop\n      dup2\n      add\n      swap1\n      tag_225\n      swap2\n      swap1\n      tag_202\n      jump\t// in\n    tag_225:\n        /* \"contracts/Utils.sol\":20300:20310  Tokenprice */\n      tag_43\n        /* \"contracts/Utils.sol\":20300:20339  Tokenprice(address(lpAddress.token0())) */\n      jump\t// in\n    tag_221:\n        /* \"contracts/Utils.sol\":20247:20256  lpAddress */\n      dup6\n        /* \"contracts/Utils.sol\":20247:20263  lpAddress.token0 */\n      0xffffffffffffffffffffffffffffffffffffffff\n      and\n      0x0dfe1681\n        /* \"contracts/Utils.sol\":20247:20265  lpAddress.token0() */\n      mload(0x40)\n      dup2\n      0xffffffff\n      and\n      0xe0\n      shl\n      dup2\n      mstore\n      0x04\n      add\n      0x20\n      mload(0x40)\n      dup1\n      dup4\n      sub\n      dup2\n      dup7\n      dup1\n      extcodesize\n      iszero\n      dup1\n      iszero\n      tag_226\n      jumpi\n      0x00\n      dup1\n      revert\n    tag_226:\n      pop\n      gas\n      staticcall\n      iszero\n      dup1\n      iszero\n      tag_228\n      jumpi\n      returndatasize\n      0x00\n      dup1\n      returndatacopy\n      revert(0x00, returndatasize)\n    tag_228:\n      pop\n      pop\n      pop\n      pop\n      mload(0x40)\n      returndatasize\n      not(0x1f)\n      0x1f\n      dup3\n      add\n      and\n      dup3\n      add\n      dup1\n      0x40\n      mstore\n      pop\n      dup2\n      add\n      swap1\n      tag_229\n      swap2\n      swap1\n      tag_202\n      jump\t// in\n    tag_229:\n        /* \"contracts/Utils.sol\":20247:20275  lpAddress.token0().balanceOf */\n      0xffffffffffffffffffffffffffffffffffffffff\n      and\n      0x70a08231\n        /* \"contracts/Utils.sol\":20284:20293  lpAddress */\n      dup8\n        /* \"contracts/Utils.sol\":20247:20295  lpAddress.token0().balanceOf(address(lpAddress)) */\n      mload(0x40)\n      dup3\n      0xffffffff\n      and\n      0xe0\n      shl\n      dup2\n      mstore\n      0x04\n      add\n      tag_230\n      swap2\n      swap1\n      tag_65\n      jump\t// in\n    tag_230:\n      0x20\n      mload(0x40)\n      dup1\n      dup4\n      sub\n      dup2\n      dup7\n      dup1\n      extcodesize\n      iszero\n      dup1\n      iszero\n      tag_231\n      jumpi\n      0x00\n      dup1\n      revert\n    tag_231:\n      pop\n      gas\n      staticcall\n      iszero\n      dup1\n      iszero\n      tag_233\n      jumpi\n      returndatasize\n      0x00\n      dup1\n      returndatacopy\n      revert(0x00, returndatasize)\n    tag_233:\n      pop\n      pop\n      pop\n      pop\n      mload(0x40)\n      returndatasize\n      not(0x1f)\n      0x1f\n      dup3\n      add\n      and\n      dup3\n      add\n      dup1\n      0x40\n      mstore\n      pop\n      dup2\n      add\n      swap1\n      tag_234\n      swap2\n      swap1\n      tag_105\n      jump\t// in\n    tag_234:\n        /* \"contracts/Utils.sol\":20247:20299  lpAddress.token0().balanceOf(address(lpAddress)).mul */\n      tag_152\n      swap1\n        /* \"contracts/Utils.sol\":20247:20340  lpAddress.token0().balanceOf(address(lpAddress)).mul(Tokenprice(address(lpAddress.token0()))) */\n      swap2\n      swap1\n      0xffffffff\n      and\n      jump\t// in\n    tag_220:\n        /* \"contracts/Utils.sol\":20237:20341  phase1 = (lpAddress.token0().balanceOf(address(lpAddress)).mul(Tokenprice(address(lpAddress.token0())))) */\n      swap2\n      pop\n        /* \"contracts/Utils.sol\":20040:20353  if(address(WBNB) == address(lpAddress.token0())){\r... */\n    tag_219:\n        /* \"contracts/Utils.sol\":20393:20402  lpAddress */\n      dup4\n        /* \"contracts/Utils.sol\":20393:20409  lpAddress.token1 */\n      0xffffffffffffffffffffffffffffffffffffffff\n      and\n      0xd21220a7\n        /* \"contracts/Utils.sol\":20393:20411  lpAddress.token1() */\n      mload(0x40)\n      dup2\n      0xffffffff\n      and\n      0xe0\n      shl\n      dup2\n      mstore\n      0x04\n      add\n      0x20\n      mload(0x40)\n      dup1\n      dup4\n      sub\n      dup2\n      dup7\n      dup1\n      extcodesize\n      iszero\n      dup1\n      iszero\n      tag_235\n      jumpi\n      0x00\n      dup1\n      revert\n    tag_235:\n      pop\n      gas\n      staticcall\n      iszero\n      dup1\n      iszero\n      tag_237\n      jumpi\n      returndatasize\n      0x00\n      dup1\n      returndatacopy\n      revert(0x00, returndatasize)\n    tag_237:\n      pop\n      pop\n      pop\n      pop\n      mload(0x40)\n      returndatasize\n      not(0x1f)\n      0x1f\n      dup3\n      add\n      and\n      dup3\n      add\n      dup1\n      0x40\n      mstore\n      pop\n      dup2\n      add\n      swap1\n      tag_238\n      swap2\n      swap1\n      tag_202\n      jump\t// in\n    tag_238:\n        /* \"contracts/Utils.sol\":20368:20412  address(WBNB) == address(lpAddress.token1()) */\n      0xffffffffffffffffffffffffffffffffffffffff\n      and\n        /* \"contracts/Utils.sol\":20376:20380  WBNB */\n      0x01\n      0x00\n      swap1\n      sload\n      swap1\n      0x0100\n      exp\n      swap1\n      div\n      0xffffffffffffffffffffffffffffffffffffffff\n      and\n        /* \"contracts/Utils.sol\":20368:20412  address(WBNB) == address(lpAddress.token1()) */\n      0xffffffffffffffffffffffffffffffffffffffff\n      and\n      eq\n        /* \"contracts/Utils.sol\":20365:20678  if(address(WBNB) == address(lpAddress.token1())){\r... */\n      iszero\n      tag_239\n      jumpi\n        /* \"contracts/Utils.sol\":20438:20530  lpAddress.token1().balanceOf(address(lpAddress)).mul(WBNBPrice(address(lpAddress.token1()))) */\n      tag_240\n        /* \"contracts/Utils.sol\":20491:20529  WBNBPrice(address(lpAddress.token1())) */\n      tag_241\n        /* \"contracts/Utils.sol\":20509:20518  lpAddress */\n      dup6\n        /* \"contracts/Utils.sol\":20509:20525  lpAddress.token1 */\n      0xffffffffffffffffffffffffffffffffffffffff\n      and\n      0xd21220a7\n        /* \"contracts/Utils.sol\":20509:20527  lpAddress.token1() */\n      mload(0x40)\n      dup2\n      0xffffffff\n      and\n      0xe0\n      shl\n      dup2\n      mstore\n      0x04\n      add\n      0x20\n      mload(0x40)\n      dup1\n      dup4\n      sub\n      dup2\n      dup7\n      dup1\n      extcodesize\n      iszero\n      dup1\n      iszero\n      tag_242\n      jumpi\n      0x00\n      dup1\n      revert\n    tag_242:\n      pop\n      gas\n      staticcall\n      iszero\n      dup1\n      iszero\n      tag_244\n      jumpi\n      returndatasize\n      0x00\n      dup1\n      returndatacopy\n      revert(0x00, returndatasize)\n    tag_244:\n      pop\n      pop\n      pop\n      pop\n      mload(0x40)\n      returndatasize\n      not(0x1f)\n      0x1f\n      dup3\n      add\n      and\n      dup3\n      add\n      dup1\n      0x40\n      mstore\n      pop\n      dup2\n      add\n      swap1\n      tag_245\n      swap2\n      swap1\n      tag_202\n      jump\t// in\n    tag_245:\n        /* \"contracts/Utils.sol\":20491:20500  WBNBPrice */\n      tag_60\n        /* \"contracts/Utils.sol\":20491:20529  WBNBPrice(address(lpAddress.token1())) */\n      jump\t// in\n    tag_241:\n        /* \"contracts/Utils.sol\":20438:20447  lpAddress */\n      dup6\n        /* \"contracts/Utils.sol\":20438:20454  lpAddress.token1 */\n      0xffffffffffffffffffffffffffffffffffffffff\n      and\n      0xd21220a7\n        /* \"contracts/Utils.sol\":20438:20456  lpAddress.token1() */\n      mload(0x40)\n      dup2\n      0xffffffff\n      and\n      0xe0\n      shl\n      dup2\n      mstore\n      0x04\n      add\n      0x20\n      mload(0x40)\n      dup1\n      dup4\n      sub\n      dup2\n      dup7\n      dup1\n      extcodesize\n      iszero\n      dup1\n      iszero\n      tag_246\n      jumpi\n      0x00\n      dup1\n      revert\n    tag_246:\n      pop\n      gas\n      staticcall\n      iszero\n      dup1\n      iszero\n      tag_248\n      jumpi\n      returndatasize\n      0x00\n      dup1\n      returndatacopy\n      revert(0x00, returndatasize)\n    tag_248:\n      pop\n      pop\n      pop\n      pop\n      mload(0x40)\n      returndatasize\n      not(0x1f)\n      0x1f\n      dup3\n      add\n      and\n      dup3\n      add\n      dup1\n      0x40\n      mstore\n      pop\n      dup2\n      add\n      swap1\n      tag_249\n      swap2\n      swap1\n      tag_202\n      jump\t// in\n    tag_249:\n        /* \"contracts/Utils.sol\":20438:20466  lpAddress.token1().balanceOf */\n      0xffffffffffffffffffffffffffffffffffffffff\n      and\n      0x70a08231\n        /* \"contracts/Utils.sol\":20475:20484  lpAddress */\n      dup8\n        /* \"contracts/Utils.sol\":20438:20486  lpAddress.token1().balanceOf(address(lpAddress)) */\n      mload(0x40)\n      dup3\n      0xffffffff\n      and\n      0xe0\n      shl\n      dup2\n      mstore\n      0x04\n      add\n      tag_250\n      swap2\n      swap1\n      tag_65\n      jump\t// in\n    tag_250:\n      0x20\n      mload(0x40)\n      dup1\n      dup4\n      sub\n      dup2\n      dup7\n      dup1\n      extcodesize\n      iszero\n      dup1\n      iszero\n      tag_251\n      jumpi\n      0x00\n      dup1\n      revert\n    tag_251:\n      pop\n      gas\n      staticcall\n      iszero\n      dup1\n      iszero\n      tag_253\n      jumpi\n      returndatasize\n      0x00\n      dup1\n      returndatacopy\n      revert(0x00, returndatasize)\n    tag_253:\n      pop\n      pop\n      pop\n      pop\n      mload(0x40)\n      returndatasize\n      not(0x1f)\n      0x1f\n      dup3\n      add\n      and\n      dup3\n      add\n      dup1\n      0x40\n      mstore\n      pop\n      dup2\n      add\n      swap1\n      tag_254\n      swap2\n      swap1\n      tag_105\n      jump\t// in\n    tag_254:\n        /* \"contracts/Utils.sol\":20438:20490  lpAddress.token1().balanceOf(address(lpAddress)).mul */\n      tag_152\n      swap1\n        /* \"contracts/Utils.sol\":20438:20530  lpAddress.token1().balanceOf(address(lpAddress)).mul(WBNBPrice(address(lpAddress.token1()))) */\n      swap2\n      swap1\n      0xffffffff\n      and\n      jump\t// in\n    tag_240:\n        /* \"contracts/Utils.sol\":20428:20531  phase2 = (lpAddress.token1().balanceOf(address(lpAddress)).mul(WBNBPrice(address(lpAddress.token1())))) */\n      swap1\n      pop\n        /* \"contracts/Utils.sol\":20365:20678  if(address(WBNB) == address(lpAddress.token1())){\r... */\n      jump(tag_255)\n    tag_239:\n        /* \"contracts/Utils.sol\":20572:20665  lpAddress.token1().balanceOf(address(lpAddress)).mul(Tokenprice(address(lpAddress.token1()))) */\n      tag_256\n        /* \"contracts/Utils.sol\":20625:20664  Tokenprice(address(lpAddress.token1())) */\n      tag_257\n        /* \"contracts/Utils.sol\":20644:20653  lpAddress */\n      dup6\n        /* \"contracts/Utils.sol\":20644:20660  lpAddress.token1 */\n      0xffffffffffffffffffffffffffffffffffffffff\n      and\n      0xd21220a7\n        /* \"contracts/Utils.sol\":20644:20662  lpAddress.token1() */\n      mload(0x40)\n      dup2\n      0xffffffff\n      and\n      0xe0\n      shl\n      dup2\n      mstore\n      0x04\n      add\n      0x20\n      mload(0x40)\n      dup1\n      dup4\n      sub\n      dup2\n      dup7\n      dup1\n      extcodesize\n      iszero\n      dup1\n      iszero\n      tag_258\n      jumpi\n      0x00\n      dup1\n      revert\n    tag_258:\n      pop\n      gas\n      staticcall\n      iszero\n      dup1\n      iszero\n      tag_260\n      jumpi\n      returndatasize\n      0x00\n      dup1\n      returndatacopy\n      revert(0x00, returndatasize)\n    tag_260:\n      pop\n      pop\n      pop\n      pop\n      mload(0x40)\n      returndatasize\n      not(0x1f)\n      0x1f\n      dup3\n      add\n      and\n      dup3\n      add\n      dup1\n      0x40\n      mstore\n      pop\n      dup2\n      add\n      swap1\n      tag_261\n      swap2\n      swap1\n      tag_202\n      jump\t// in\n    tag_261:\n        /* \"contracts/Utils.sol\":20625:20635  Tokenprice */\n      tag_43\n        /* \"contracts/Utils.sol\":20625:20664  Tokenprice(address(lpAddress.token1())) */\n      jump\t// in\n    tag_257:\n        /* \"contracts/Utils.sol\":20572:20581  lpAddress */\n      dup6\n        /* \"contracts/Utils.sol\":20572:20588  lpAddress.token1 */\n      0xffffffffffffffffffffffffffffffffffffffff\n      and\n      0xd21220a7\n        /* \"contracts/Utils.sol\":20572:20590  lpAddress.token1() */\n      mload(0x40)\n      dup2\n      0xffffffff\n      and\n      0xe0\n      shl\n      dup2\n      mstore\n      0x04\n      add\n      0x20\n      mload(0x40)\n      dup1\n      dup4\n      sub\n      dup2\n      dup7\n      dup1\n      extcodesize\n      iszero\n      dup1\n      iszero\n      tag_262\n      jumpi\n      0x00\n      dup1\n      revert\n    tag_262:\n      pop\n      gas\n      staticcall\n      iszero\n      dup1\n      iszero\n      tag_264\n      jumpi\n      returndatasize\n      0x00\n      dup1\n      returndatacopy\n      revert(0x00, returndatasize)\n    tag_264:\n      pop\n      pop\n      pop\n      pop\n      mload(0x40)\n      returndatasize\n      not(0x1f)\n      0x1f\n      dup3\n      add\n      and\n      dup3\n      add\n      dup1\n      0x40\n      mstore\n      pop\n      dup2\n      add\n      swap1\n      tag_265\n      swap2\n      swap1\n      tag_202\n      jump\t// in\n    tag_265:\n        /* \"contracts/Utils.sol\":20572:20600  lpAddress.token1().balanceOf */\n      0xffffffffffffffffffffffffffffffffffffffff\n      and\n      0x70a08231\n        /* \"contracts/Utils.sol\":20609:20618  lpAddress */\n      dup8\n        /* \"contracts/Utils.sol\":20572:20620  lpAddress.token1().balanceOf(address(lpAddress)) */\n      mload(0x40)\n      dup3\n      0xffffffff\n      and\n      0xe0\n      shl\n      dup2\n      mstore\n      0x04\n      add\n      tag_266\n      swap2\n      swap1\n      tag_65\n      jump\t// in\n    tag_266:\n      0x20\n      mload(0x40)\n      dup1\n      dup4\n      sub\n      dup2\n      dup7\n      dup1\n      extcodesize\n      iszero\n      dup1\n      iszero\n      tag_267\n      jumpi\n      0x00\n      dup1\n      revert\n    tag_267:\n      pop\n      gas\n      staticcall\n      iszero\n      dup1\n      iszero\n      tag_269\n      jumpi\n      returndatasize\n      0x00\n      dup1\n      returndatacopy\n      revert(0x00, returndatasize)\n    tag_269:\n      pop\n      pop\n      pop\n      pop\n      mload(0x40)\n      returndatasize\n      not(0x1f)\n      0x1f\n      dup3\n      add\n      and\n      dup3\n      add\n      dup1\n      0x40\n      mstore\n      pop\n      dup2\n      add\n      swap1\n      tag_270\n      swap2\n      swap1\n      tag_105\n      jump\t// in\n    tag_270:\n        /* \"contracts/Utils.sol\":20572:20624  lpAddress.token1().balanceOf(address(lpAddress)).mul */\n      tag_152\n      swap1\n        /* \"contracts/Utils.sol\":20572:20665  lpAddress.token1().balanceOf(address(lpAddress)).mul(Tokenprice(address(lpAddress.token1()))) */\n      swap2\n      swap1\n      0xffffffff\n      and\n      jump\t// in\n    tag_256:\n        /* \"contracts/Utils.sol\":20562:20666  phase2 = (lpAddress.token1().balanceOf(address(lpAddress)).mul(Tokenprice(address(lpAddress.token1())))) */\n      swap1\n      pop\n        /* \"contracts/Utils.sol\":20365:20678  if(address(WBNB) == address(lpAddress.token1())){\r... */\n    tag_255:\n        /* \"contracts/Utils.sol\":20706:20755  (phase1.add(phase2)).div(lpAddress.totalSupply()) */\n      tag_271\n        /* \"contracts/Utils.sol\":20731:20740  lpAddress */\n      dup5\n        /* \"contracts/Utils.sol\":20731:20752  lpAddress.totalSupply */\n      0xffffffffffffffffffffffffffffffffffffffff\n      and\n      0x18160ddd\n        /* \"contracts/Utils.sol\":20731:20754  lpAddress.totalSupply() */\n      mload(0x40)\n      dup2\n      0xffffffff\n      and\n      0xe0\n      shl\n      dup2\n      mstore\n      0x04\n      add\n      0x20\n      mload(0x40)\n      dup1\n      dup4\n      sub\n      dup2\n      dup7\n      dup1\n      extcodesize\n      iszero\n      dup1\n      iszero\n      tag_272\n      jumpi\n      0x00\n      dup1\n      revert\n    tag_272:\n      pop\n      gas\n      staticcall\n      iszero\n      dup1\n      iszero\n      tag_274\n      jumpi\n      returndatasize\n      0x00\n      dup1\n      returndatacopy\n      revert(0x00, returndatasize)\n    tag_274:\n      pop\n      pop\n      pop\n      pop\n      mload(0x40)\n      returndatasize\n      not(0x1f)\n      0x1f\n      dup3\n      add\n      and\n      dup3\n      add\n      dup1\n      0x40\n      mstore\n      pop\n      dup2\n      add\n      swap1\n      tag_275\n      swap2\n      swap1\n      tag_105\n      jump\t// in\n    tag_275:\n        /* \"contracts/Utils.sol\":20707:20725  phase1.add(phase2) */\n      tag_276\n        /* \"contracts/Utils.sol\":20718:20724  phase2 */\n      dup4\n        /* \"contracts/Utils.sol\":20707:20713  phase1 */\n      dup6\n        /* \"contracts/Utils.sol\":20707:20717  phase1.add */\n      tag_277\n      swap1\n        /* \"contracts/Utils.sol\":20707:20725  phase1.add(phase2) */\n      swap2\n      swap1\n      0xffffffff\n      and\n      jump\t// in\n    tag_276:\n        /* \"contracts/Utils.sol\":20706:20730  (phase1.add(phase2)).div */\n      tag_117\n      swap1\n        /* \"contracts/Utils.sol\":20706:20755  (phase1.add(phase2)).div(lpAddress.totalSupply()) */\n      swap2\n      swap1\n      0xffffffff\n      and\n      jump\t// in\n    tag_271:\n        /* \"contracts/Utils.sol\":20698:20756  return ((phase1.add(phase2)).div(lpAddress.totalSupply())) */\n      swap3\n      pop\n      pop\n      pop\n        /* \"contracts/Utils.sol\":19916:20764  function CalcLpPrice(LP lpAddress) public view returns(uint256){\r... */\n      swap2\n      swap1\n      pop\n      jump\t// out\n        /* \"contracts/Utils.sol\":24058:24237  function isLpAddress(LP lpAddress) public view returns(uint256){\r... */\n    tag_52:\n        /* \"contracts/Utils.sol\":24113:24120  uint256 */\n      0x00\n        /* \"contracts/Utils.sol\":24136:24145  lpAddress */\n      dup2\n        /* \"contracts/Utils.sol\":24136:24152  lpAddress.token0 */\n      0xffffffffffffffffffffffffffffffffffffffff\n      and\n      0x0dfe1681\n        /* \"contracts/Utils.sol\":24136:24154  lpAddress.token0() */\n      mload(0x40)\n      dup2\n      0xffffffff\n      and\n      0xe0\n      shl\n      dup2\n      mstore\n      0x04\n      add\n      0x20\n      mload(0x40)\n      dup1\n      dup4\n      sub\n      dup2\n      dup7\n      dup1\n      extcodesize\n      iszero\n      dup1\n      iszero\n      tag_279\n      jumpi\n      0x00\n      dup1\n      revert\n    tag_279:\n      pop\n      gas\n      staticcall\n      swap3\n      pop\n      pop\n      pop\n      dup1\n      iszero\n      tag_280\n      jumpi\n      pop\n      mload(0x40)\n      returndatasize\n      not(0x1f)\n      0x1f\n      dup3\n      add\n      and\n      dup3\n      add\n      dup1\n      0x40\n      mstore\n      pop\n      dup2\n      add\n      swap1\n      tag_281\n      swap2\n      swap1\n      tag_202\n      jump\t// in\n    tag_281:\n      0x01\n    tag_280:\n        /* \"contracts/Utils.sol\":24132:24230  try lpAddress.token0() {\r... */\n      tag_282\n      jumpi\n        /* \"contracts/Utils.sol\":24217:24218  0 */\n      0x00\n        /* \"contracts/Utils.sol\":24210:24218  return 0 */\n      swap1\n      pop\n      jump(tag_278)\n        /* \"contracts/Utils.sol\":24132:24230  try lpAddress.token0() {\r... */\n    tag_282:\n      pop\n        /* \"contracts/Utils.sol\":24177:24178  1 */\n      0x01\n        /* \"contracts/Utils.sol\":24170:24178  return 1 */\n      swap1\n      pop\n        /* \"contracts/Utils.sol\":24058:24237  function isLpAddress(LP lpAddress) public view returns(uint256){\r... */\n    tag_278:\n      swap2\n      swap1\n      pop\n      jump\t// out\n        /* \"contracts/Utils.sol\":18991:19018  Router public routerAddress */\n    tag_55:\n      0x04\n      0x00\n      swap1\n      sload\n      swap1\n      0x0100\n      exp\n      swap1\n      div\n      0xffffffffffffffffffffffffffffffffffffffff\n      and\n      dup2\n      jump\t// out\n        /* \"contracts/Utils.sol\":19658:19891  function WBNBPrice(address token) public view returns(uint256){\r... */\n    tag_60:\n        /* \"contracts/Utils.sol\":19712:19719  uint256 */\n      0x00\n        /* \"contracts/Utils.sol\":19731:19752  address[] memory path */\n      dup1\n        /* \"contracts/Utils.sol\":19769:19770  2 */\n      0x02\n        /* \"contracts/Utils.sol\":19755:19771  new address[](2) */\n      0xffffffffffffffff\n      dup2\n      gt\n      iszero\n      tag_288\n      jumpi\n      tag_289\n      tag_180\n      jump\t// in\n    tag_289:\n    tag_288:\n      mload(0x40)\n      swap1\n      dup1\n      dup3\n      mstore\n      dup1\n      0x20\n      mul\n      0x20\n      add\n      dup3\n      add\n      0x40\n      mstore\n      dup1\n      iszero\n      tag_290\n      jumpi\n      dup2\n      0x20\n      add\n      0x20\n      dup3\n      mul\n      dup1\n      calldatasize\n      dup4\n      calldatacopy\n      dup1\n      dup3\n      add\n      swap2\n      pop\n      pop\n      swap1\n      pop\n    tag_290:\n      pop\n        /* \"contracts/Utils.sol\":19731:19771  address[] memory path = new address[](2) */\n      swap1\n      pop\n        /* \"contracts/Utils.sol\":19792:19797  token */\n      dup3\n        /* \"contracts/Utils.sol\":19782:19786  path */\n      dup2\n        /* \"contracts/Utils.sol\":19787:19788  0 */\n      0x00\n        /* \"contracts/Utils.sol\":19782:19789  path[0] */\n      dup2\n      mload\n      dup2\n      lt\n      tag_291\n      jumpi\n      tag_292\n      tag_125\n      jump\t// in\n    tag_292:\n    tag_291:\n      0x20\n      mul\n      0x20\n      add\n      add\n        /* \"contracts/Utils.sol\":19782:19797  path[0] = token */\n      swap1\n      0xffffffffffffffffffffffffffffffffffffffff\n      and\n      swap1\n      dup2\n      0xffffffffffffffffffffffffffffffffffffffff\n      and\n      dup2\n      mstore\n      pop\n      pop\n        /* \"contracts/Utils.sol\":19818:19822  BUSD */\n      0x02\n      0x00\n      swap1\n      sload\n      swap1\n      0x0100\n      exp\n      swap1\n      div\n      0xffffffffffffffffffffffffffffffffffffffff\n      and\n        /* \"contracts/Utils.sol\":19808:19812  path */\n      dup2\n        /* \"contracts/Utils.sol\":19813:19814  1 */\n      0x01\n        /* \"contracts/Utils.sol\":19808:19815  path[1] */\n      dup2\n      mload\n      dup2\n      lt\n      tag_293\n      jumpi\n      tag_294\n      tag_125\n      jump\t// in\n    tag_294:\n    tag_293:\n      0x20\n      mul\n      0x20\n      add\n      add\n        /* \"contracts/Utils.sol\":19808:19822  path[1] = BUSD */\n      swap1\n      0xffffffffffffffffffffffffffffffffffffffff\n      and\n      swap1\n      dup2\n      0xffffffffffffffffffffffffffffffffffffffff\n      and\n      dup2\n      mstore\n      pop\n      pop\n        /* \"contracts/Utils.sol\":19840:19853  routerAddress */\n      0x04\n      0x00\n      swap1\n      sload\n      swap1\n      0x0100\n      exp\n      swap1\n      div\n      0xffffffffffffffffffffffffffffffffffffffff\n      and\n        /* \"contracts/Utils.sol\":19840:19867  routerAddress.getAmountsOut */\n      0xffffffffffffffffffffffffffffffffffffffff\n      and\n      0xd06ca61f\n        /* \"contracts/Utils.sol\":19868:19874  amount */\n      sload(0x03)\n        /* \"contracts/Utils.sol\":19875:19879  path */\n      dup4\n        /* \"contracts/Utils.sol\":19840:19880  routerAddress.getAmountsOut(amount,path) */\n      mload(0x40)\n      dup4\n      0xffffffff\n      and\n      0xe0\n      shl\n      dup2\n      mstore\n      0x04\n      add\n      tag_295\n      swap3\n      swap2\n      swap1\n      tag_189\n      jump\t// in\n    tag_295:\n      0x00\n      mload(0x40)\n      dup1\n      dup4\n      sub\n      dup2\n      dup7\n      dup1\n      extcodesize\n      iszero\n      dup1\n      iszero\n      tag_296\n      jumpi\n      0x00\n      dup1\n      revert\n    tag_296:\n      pop\n      gas\n      staticcall\n      iszero\n      dup1\n      iszero\n      tag_298\n      jumpi\n      returndatasize\n      0x00\n      dup1\n      returndatacopy\n      revert(0x00, returndatasize)\n    tag_298:\n      pop\n      pop\n      pop\n      pop\n      mload(0x40)\n      returndatasize\n      0x00\n      dup3\n      returndatacopy\n      returndatasize\n      not(0x1f)\n      0x1f\n      dup3\n      add\n      and\n      dup3\n      add\n      dup1\n      0x40\n      mstore\n      pop\n      dup2\n      add\n      swap1\n      tag_299\n      swap2\n      swap1\n      tag_194\n      jump\t// in\n    tag_299:\n        /* \"contracts/Utils.sol\":19881:19882  1 */\n      0x01\n        /* \"contracts/Utils.sol\":19840:19883  routerAddress.getAmountsOut(amount,path)[1] */\n      dup2\n      mload\n      dup2\n      lt\n      tag_300\n      jumpi\n      tag_301\n      tag_125\n      jump\t// in\n    tag_301:\n    tag_300:\n      0x20\n      mul\n      0x20\n      add\n      add\n      mload\n        /* \"contracts/Utils.sol\":19833:19883  return routerAddress.getAmountsOut(amount,path)[1] */\n      swap2\n      pop\n      pop\n        /* \"contracts/Utils.sol\":19658:19891  function WBNBPrice(address token) public view returns(uint256){\r... */\n      swap2\n      swap1\n      pop\n      jump\t// out\n        /* \"contracts/Utils.sol\":18922:18941  address public BUSD */\n    tag_63:\n      0x02\n      0x00\n      swap1\n      sload\n      swap1\n      0x0100\n      exp\n      swap1\n      div\n      0xffffffffffffffffffffffffffffffffffffffff\n      and\n      dup2\n      jump\t// out\n        /* \"contracts/Utils.sol\":24245:24699  function CalcTotalTVL(MetaMasterChef MasterChef,LP[] memory lpAddress) external view returns(uint256){\r... */\n    tag_68:\n        /* \"contracts/Utils.sol\":24338:24345  uint256 */\n      0x00\n        /* \"contracts/Utils.sol\":24357:24368  uint256 TVL */\n      dup1\n        /* \"contracts/Utils.sol\":24371:24372  0 */\n      0x00\n        /* \"contracts/Utils.sol\":24357:24372  uint256 TVL = 0 */\n      swap1\n      pop\n        /* \"contracts/Utils.sol\":24387:24396  uint256 i */\n      0x00\n        /* \"contracts/Utils.sol\":24383:24669  for(uint256 i=0; i< lpAddress.length; i++){\r... */\n    tag_303:\n        /* \"contracts/Utils.sol\":24403:24412  lpAddress */\n      dup4\n        /* \"contracts/Utils.sol\":24403:24419  lpAddress.length */\n      mload\n        /* \"contracts/Utils.sol\":24400:24401  i */\n      dup2\n        /* \"contracts/Utils.sol\":24400:24419  i< lpAddress.length */\n      lt\n        /* \"contracts/Utils.sol\":24383:24669  for(uint256 i=0; i< lpAddress.length; i++){\r... */\n      iszero\n      tag_304\n      jumpi\n        /* \"contracts/Utils.sol\":24472:24473  1 */\n      0x01\n        /* \"contracts/Utils.sol\":24443:24468  isLpAddress(lpAddress[i]) */\n      tag_306\n        /* \"contracts/Utils.sol\":24455:24464  lpAddress */\n      dup6\n        /* \"contracts/Utils.sol\":24465:24466  i */\n      dup4\n        /* \"contracts/Utils.sol\":24455:24467  lpAddress[i] */\n      dup2\n      mload\n      dup2\n      lt\n      tag_307\n      jumpi\n      tag_308\n      tag_125\n      jump\t// in\n    tag_308:\n    tag_307:\n      0x20\n      mul\n      0x20\n      add\n      add\n      mload\n        /* \"contracts/Utils.sol\":24443:24454  isLpAddress */\n      tag_52\n        /* \"contracts/Utils.sol\":24443:24468  isLpAddress(lpAddress[i]) */\n      jump\t// in\n    tag_306:\n        /* \"contracts/Utils.sol\":24443:24473  isLpAddress(lpAddress[i]) == 1 */\n      eq\n        /* \"contracts/Utils.sol\":24440:24658  if(isLpAddress(lpAddress[i]) == 1){\r... */\n      iszero\n      tag_309\n      jumpi\n        /* \"contracts/Utils.sol\":24500:24548  calcPoolTVLInUSD(i, lpAddress[i], 1, MasterChef) */\n      tag_310\n        /* \"contracts/Utils.sol\":24517:24518  i */\n      dup2\n        /* \"contracts/Utils.sol\":24520:24529  lpAddress */\n      dup6\n        /* \"contracts/Utils.sol\":24530:24531  i */\n      dup4\n        /* \"contracts/Utils.sol\":24520:24532  lpAddress[i] */\n      dup2\n      mload\n      dup2\n      lt\n      tag_311\n      jumpi\n      tag_312\n      tag_125\n      jump\t// in\n    tag_312:\n    tag_311:\n      0x20\n      mul\n      0x20\n      add\n      add\n      mload\n        /* \"contracts/Utils.sol\":24534:24535  1 */\n      0x01\n        /* \"contracts/Utils.sol\":24537:24547  MasterChef */\n      dup9\n        /* \"contracts/Utils.sol\":24500:24516  calcPoolTVLInUSD */\n      tag_85\n        /* \"contracts/Utils.sol\":24500:24548  calcPoolTVLInUSD(i, lpAddress[i], 1, MasterChef) */\n      jump\t// in\n    tag_310:\n        /* \"contracts/Utils.sol\":24493:24548  TVL += calcPoolTVLInUSD(i, lpAddress[i], 1, MasterChef) */\n      dup3\n      tag_313\n      swap2\n      swap1\n      tag_131\n      jump\t// in\n    tag_313:\n      swap2\n      pop\n        /* \"contracts/Utils.sol\":24440:24658  if(isLpAddress(lpAddress[i]) == 1){\r... */\n      jump(tag_314)\n    tag_309:\n        /* \"contracts/Utils.sol\":24594:24642  calcPoolTVLInUSD(i, lpAddress[i], 0, MasterChef) */\n      tag_315\n        /* \"contracts/Utils.sol\":24611:24612  i */\n      dup2\n        /* \"contracts/Utils.sol\":24614:24623  lpAddress */\n      dup6\n        /* \"contracts/Utils.sol\":24624:24625  i */\n      dup4\n        /* \"contracts/Utils.sol\":24614:24626  lpAddress[i] */\n      dup2\n      mload\n      dup2\n      lt\n      tag_316\n      jumpi\n      tag_317\n      tag_125\n      jump\t// in\n    tag_317:\n    tag_316:\n      0x20\n      mul\n      0x20\n      add\n      add\n      mload\n        /* \"contracts/Utils.sol\":24628:24629  0 */\n      0x00\n        /* \"contracts/Utils.sol\":24631:24641  MasterChef */\n      dup9\n        /* \"contracts/Utils.sol\":24594:24610  calcPoolTVLInUSD */\n      tag_85\n        /* \"contracts/Utils.sol\":24594:24642  calcPoolTVLInUSD(i, lpAddress[i], 0, MasterChef) */\n      jump\t// in\n    tag_315:\n        /* \"contracts/Utils.sol\":24587:24642  TVL += calcPoolTVLInUSD(i, lpAddress[i], 0, MasterChef) */\n      dup3\n      tag_318\n      swap2\n      swap1\n      tag_131\n      jump\t// in\n    tag_318:\n      swap2\n      pop\n        /* \"contracts/Utils.sol\":24440:24658  if(isLpAddress(lpAddress[i]) == 1){\r... */\n    tag_314:\n        /* \"contracts/Utils.sol\":24421:24424  i++ */\n      dup1\n      dup1\n      tag_319\n      swap1\n      tag_138\n      jump\t// in\n    tag_319:\n      swap2\n      pop\n      pop\n        /* \"contracts/Utils.sol\":24383:24669  for(uint256 i=0; i< lpAddress.length; i++){\r... */\n      jump(tag_303)\n    tag_304:\n      pop\n        /* \"contracts/Utils.sol\":24688:24691  TVL */\n      dup1\n        /* \"contracts/Utils.sol\":24681:24691  return TVL */\n      swap2\n      pop\n      pop\n        /* \"contracts/Utils.sol\":24245:24699  function CalcTotalTVL(MetaMasterChef MasterChef,LP[] memory lpAddress) external view returns(uint256){\r... */\n      swap3\n      swap2\n      pop\n      pop\n      jump\t// out\n        /* \"contracts/Utils.sol\":14500:14603  function renounceOwnership() public virtual onlyOwner {\r... */\n    tag_71:\n        /* \"contracts/Utils.sol\":14080:14092  _msgSender() */\n      tag_321\n        /* \"contracts/Utils.sol\":14080:14090  _msgSender */\n      tag_322\n        /* \"contracts/Utils.sol\":14080:14092  _msgSender() */\n      jump\t// in\n    tag_321:\n        /* \"contracts/Utils.sol\":14069:14092  owner() == _msgSender() */\n      0xffffffffffffffffffffffffffffffffffffffff\n      and\n        /* \"contracts/Utils.sol\":14069:14076  owner() */\n      tag_323\n        /* \"contracts/Utils.sol\":14069:14074  owner */\n      tag_73\n        /* \"contracts/Utils.sol\":14069:14076  owner() */\n      jump\t// in\n    tag_323:\n        /* \"contracts/Utils.sol\":14069:14092  owner() == _msgSender() */\n      0xffffffffffffffffffffffffffffffffffffffff\n      and\n      eq\n        /* \"contracts/Utils.sol\":14061:14129  require(owner() == _msgSender(), \"Ownable: caller is not the owner\") */\n      tag_324\n      jumpi\n      mload(0x40)\n      0x08c379a000000000000000000000000000000000000000000000000000000000\n      dup2\n      mstore\n      0x04\n      add\n      tag_325\n      swap1\n      tag_326\n      jump\t// in\n    tag_325:\n      mload(0x40)\n      dup1\n      swap2\n      sub\n      swap1\n      revert\n    tag_324:\n        /* \"contracts/Utils.sol\":14565:14595  _transferOwnership(address(0)) */\n      tag_328\n        /* \"contracts/Utils.sol\":14592:14593  0 */\n      0x00\n        /* \"contracts/Utils.sol\":14565:14583  _transferOwnership */\n      tag_329\n        /* \"contracts/Utils.sol\":14565:14595  _transferOwnership(address(0)) */\n      jump\t// in\n    tag_328:\n        /* \"contracts/Utils.sol\":14500:14603  function renounceOwnership() public virtual onlyOwner {\r... */\n      jump\t// out\n        /* \"contracts/Utils.sol\":13849:13936  function owner() public view virtual returns (address) {\r... */\n    tag_73:\n        /* \"contracts/Utils.sol\":13895:13902  address */\n      0x00\n        /* \"contracts/Utils.sol\":13922:13928  _owner */\n      dup1\n      0x00\n      swap1\n      sload\n      swap1\n      0x0100\n      exp\n      swap1\n      div\n      0xffffffffffffffffffffffffffffffffffffffff\n      and\n        /* \"contracts/Utils.sol\":13915:13928  return _owner */\n      swap1\n      pop\n        /* \"contracts/Utils.sol\":13849:13936  function owner() public view virtual returns (address) {\r... */\n      swap1\n      jump\t// out\n        /* \"contracts/Utils.sol\":18896:18915  address public WBNB */\n    tag_76:\n      0x01\n      0x00\n      swap1\n      sload\n      swap1\n      0x0100\n      exp\n      swap1\n      div\n      0xffffffffffffffffffffffffffffffffffffffff\n      and\n      dup2\n      jump\t// out\n        /* \"contracts/Utils.sol\":19242:19349  function setRouter(Router _routerAddress) public onlyOwner{\r... */\n    tag_81:\n        /* \"contracts/Utils.sol\":14080:14092  _msgSender() */\n      tag_332\n        /* \"contracts/Utils.sol\":14080:14090  _msgSender */\n      tag_322\n        /* \"contracts/Utils.sol\":14080:14092  _msgSender() */\n      jump\t// in\n    tag_332:\n        /* \"contracts/Utils.sol\":14069:14092  owner() == _msgSender() */\n      0xffffffffffffffffffffffffffffffffffffffff\n      and\n        /* \"contracts/Utils.sol\":14069:14076  owner() */\n      tag_333\n        /* \"contracts/Utils.sol\":14069:14074  owner */\n      tag_73\n        /* \"contracts/Utils.sol\":14069:14076  owner() */\n      jump\t// in\n    tag_333:\n        /* \"contracts/Utils.sol\":14069:14092  owner() == _msgSender() */\n      0xffffffffffffffffffffffffffffffffffffffff\n      and\n      eq\n        /* \"contracts/Utils.sol\":14061:14129  require(owner() == _msgSender(), \"Ownable: caller is not the owner\") */\n      tag_334\n      jumpi\n      mload(0x40)\n      0x08c379a000000000000000000000000000000000000000000000000000000000\n      dup2\n      mstore\n      0x04\n      add\n      tag_335\n      swap1\n      tag_326\n      jump\t// in\n    tag_335:\n      mload(0x40)\n      dup1\n      swap2\n      sub\n      swap1\n      revert\n    tag_334:\n        /* \"contracts/Utils.sol\":19327:19341  _routerAddress */\n      dup1\n        /* \"contracts/Utils.sol\":19311:19324  routerAddress */\n      0x04\n      0x00\n        /* \"contracts/Utils.sol\":19311:19341  routerAddress = _routerAddress */\n      0x0100\n      exp\n      dup2\n      sload\n      dup2\n      0xffffffffffffffffffffffffffffffffffffffff\n      mul\n      not\n      and\n      swap1\n      dup4\n      0xffffffffffffffffffffffffffffffffffffffff\n      and\n      mul\n      or\n      swap1\n      sstore\n      pop\n        /* \"contracts/Utils.sol\":19242:19349  function setRouter(Router _routerAddress) public onlyOwner{\r... */\n      pop\n      jump\t// out\n        /* \"contracts/Utils.sol\":20787:21358  function calcPoolTVLInUSD(uint256 pid, LP lpAddress, uint256 isLp, MetaMasterChef MasterChef) public view returns(uint256){\r... */\n    tag_85:\n        /* \"contracts/Utils.sol\":20901:20908  uint256 */\n      0x00\n        /* \"contracts/Utils.sol\":20920:20935  uint256 Balance */\n      dup1\n        /* \"contracts/Utils.sol\":20938:20948  MasterChef */\n      dup3\n        /* \"contracts/Utils.sol\":20938:20960  MasterChef.poolBalance */\n      0xffffffffffffffffffffffffffffffffffffffff\n      and\n      0x6a6d964e\n        /* \"contracts/Utils.sol\":20961:20964  pid */\n      dup8\n        /* \"contracts/Utils.sol\":20938:20965  MasterChef.poolBalance(pid) */\n      mload(0x40)\n      dup3\n      0xffffffff\n      and\n      0xe0\n      shl\n      dup2\n      mstore\n      0x04\n      add\n      tag_338\n      swap2\n      swap1\n      tag_29\n      jump\t// in\n    tag_338:\n      0x20\n      mload(0x40)\n      dup1\n      dup4\n      sub\n      dup2\n      dup7\n      dup1\n      extcodesize\n      iszero\n      dup1\n      iszero\n      tag_339\n      jumpi\n      0x00\n      dup1\n      revert\n    tag_339:\n      pop\n      gas\n      staticcall\n      iszero\n      dup1\n      iszero\n      tag_341\n      jumpi\n      returndatasize\n      0x00\n      dup1\n      returndatacopy\n      revert(0x00, returndatasize)\n    tag_341:\n      pop\n      pop\n      pop\n      pop\n      mload(0x40)\n      returndatasize\n      not(0x1f)\n      0x1f\n      dup3\n      add\n      and\n      dup3\n      add\n      dup1\n      0x40\n      mstore\n      pop\n      dup2\n      add\n      swap1\n      tag_342\n      swap2\n      swap1\n      tag_105\n      jump\t// in\n    tag_342:\n        /* \"contracts/Utils.sol\":20920:20965  uint256 Balance = MasterChef.poolBalance(pid) */\n      swap1\n      pop\n        /* \"contracts/Utils.sol\":20976:20989  uint256 price */\n      0x00\n        /* \"contracts/Utils.sol\":21011:21012  1 */\n      0x01\n        /* \"contracts/Utils.sol\":21003:21007  isLp */\n      dup6\n        /* \"contracts/Utils.sol\":21003:21012  isLp == 1 */\n      eq\n        /* \"contracts/Utils.sol\":21000:21302  if(isLp == 1){\r... */\n      iszero\n      tag_343\n      jumpi\n        /* \"contracts/Utils.sol\":21036:21058  CalcLpPrice(lpAddress) */\n      tag_344\n        /* \"contracts/Utils.sol\":21048:21057  lpAddress */\n      dup7\n        /* \"contracts/Utils.sol\":21036:21047  CalcLpPrice */\n      tag_48\n        /* \"contracts/Utils.sol\":21036:21058  CalcLpPrice(lpAddress) */\n      jump\t// in\n    tag_344:\n        /* \"contracts/Utils.sol\":21028:21058  price = CalcLpPrice(lpAddress) */\n      swap1\n      pop\n        /* \"contracts/Utils.sol\":21000:21302  if(isLp == 1){\r... */\n      jump(tag_345)\n    tag_343:\n        /* \"contracts/Utils.sol\":21086:21087  0 */\n      0x00\n        /* \"contracts/Utils.sol\":21078:21082  isLp */\n      dup6\n        /* \"contracts/Utils.sol\":21078:21087  isLp == 0 */\n      eq\n        /* \"contracts/Utils.sol\":21075:21302  if(isLp == 0){\r... */\n      iszero\n      tag_346\n      jumpi\n        /* \"contracts/Utils.sol\":21131:21140  lpAddress */\n      dup6\n        /* \"contracts/Utils.sol\":21106:21141  address(WBNB) == address(lpAddress) */\n      0xffffffffffffffffffffffffffffffffffffffff\n      and\n        /* \"contracts/Utils.sol\":21114:21118  WBNB */\n      0x01\n      0x00\n      swap1\n      sload\n      swap1\n      0x0100\n      exp\n      swap1\n      div\n      0xffffffffffffffffffffffffffffffffffffffff\n      and\n        /* \"contracts/Utils.sol\":21106:21141  address(WBNB) == address(lpAddress) */\n      0xffffffffffffffffffffffffffffffffffffffff\n      and\n      eq\n        /* \"contracts/Utils.sol\":21103:21291  if(address(WBNB) == address(lpAddress)){\r... */\n      iszero\n      tag_347\n      jumpi\n        /* \"contracts/Utils.sol\":21169:21198  WBNBPrice(address(lpAddress)) */\n      tag_348\n        /* \"contracts/Utils.sol\":21187:21196  lpAddress */\n      dup7\n        /* \"contracts/Utils.sol\":21169:21178  WBNBPrice */\n      tag_60\n        /* \"contracts/Utils.sol\":21169:21198  WBNBPrice(address(lpAddress)) */\n      jump\t// in\n    tag_348:\n        /* \"contracts/Utils.sol\":21161:21198  price = WBNBPrice(address(lpAddress)) */\n      swap1\n      pop\n        /* \"contracts/Utils.sol\":21103:21291  if(address(WBNB) == address(lpAddress)){\r... */\n      jump(tag_349)\n    tag_347:\n        /* \"contracts/Utils.sol\":21245:21275  Tokenprice(address(lpAddress)) */\n      tag_350\n        /* \"contracts/Utils.sol\":21264:21273  lpAddress */\n      dup7\n        /* \"contracts/Utils.sol\":21245:21255  Tokenprice */\n      tag_43\n        /* \"contracts/Utils.sol\":21245:21275  Tokenprice(address(lpAddress)) */\n      jump\t// in\n    tag_350:\n        /* \"contracts/Utils.sol\":21237:21275  price = Tokenprice(address(lpAddress)) */\n      swap1\n      pop\n        /* \"contracts/Utils.sol\":21103:21291  if(address(WBNB) == address(lpAddress)){\r... */\n    tag_349:\n        /* \"contracts/Utils.sol\":21075:21302  if(isLp == 0){\r... */\n    tag_346:\n        /* \"contracts/Utils.sol\":21000:21302  if(isLp == 1){\r... */\n    tag_345:\n        /* \"contracts/Utils.sol\":21321:21350  (Balance * price).div(amount) */\n      tag_351\n        /* \"contracts/Utils.sol\":21343:21349  amount */\n      sload(0x03)\n        /* \"contracts/Utils.sol\":21332:21337  price */\n      dup3\n        /* \"contracts/Utils.sol\":21322:21329  Balance */\n      dup5\n        /* \"contracts/Utils.sol\":21322:21337  Balance * price */\n      tag_352\n      swap2\n      swap1\n      tag_116\n      jump\t// in\n    tag_352:\n        /* \"contracts/Utils.sol\":21321:21342  (Balance * price).div */\n      tag_117\n      swap1\n        /* \"contracts/Utils.sol\":21321:21350  (Balance * price).div(amount) */\n      swap2\n      swap1\n      0xffffffff\n      and\n      jump\t// in\n    tag_351:\n        /* \"contracts/Utils.sol\":21314:21350  return (Balance * price).div(amount) */\n      swap3\n      pop\n      pop\n      pop\n        /* \"contracts/Utils.sol\":20787:21358  function calcPoolTVLInUSD(uint256 pid, LP lpAddress, uint256 isLp, MetaMasterChef MasterChef) public view returns(uint256){\r... */\n      swap5\n      swap4\n      pop\n      pop\n      pop\n      pop\n      jump\t// out\n        /* \"contracts/Utils.sol\":21952:22742  function CalcApy(uint256 pid, LP lpAddress,uint256 isLp, MetaMasterChef MasterChef) external view returns(uint256){\r... */\n    tag_89:\n        /* \"contracts/Utils.sol\":22058:22065  uint256 */\n      0x00\n        /* \"contracts/Utils.sol\":22077:22097  PoolInfo memory pool */\n      dup1\n        /* \"contracts/Utils.sol\":22100:22110  MasterChef */\n      dup3\n        /* \"contracts/Utils.sol\":22100:22119  MasterChef.poolInfo */\n      0xffffffffffffffffffffffffffffffffffffffff\n      and\n      0x1526fe27\n        /* \"contracts/Utils.sol\":22120:22123  pid */\n      dup8\n        /* \"contracts/Utils.sol\":22100:22124  MasterChef.poolInfo(pid) */\n      mload(0x40)\n      dup3\n      0xffffffff\n      and\n      0xe0\n      shl\n      dup2\n      mstore\n      0x04\n      add\n      tag_354\n      swap2\n      swap1\n      tag_29\n      jump\t// in\n    tag_354:\n      0xc0\n      mload(0x40)\n      dup1\n      dup4\n      sub\n      dup2\n      dup7\n      dup1\n      extcodesize\n      iszero\n      dup1\n      iszero\n      tag_355\n      jumpi\n      0x00\n      dup1\n      revert\n    tag_355:\n      pop\n      gas\n      staticcall\n      iszero\n      dup1\n      iszero\n      tag_357\n      jumpi\n      returndatasize\n      0x00\n      dup1\n      returndatacopy\n      revert(0x00, returndatasize)\n    tag_357:\n      pop\n      pop\n      pop\n      pop\n      mload(0x40)\n      returndatasize\n      not(0x1f)\n      0x1f\n      dup3\n      add\n      and\n      dup3\n      add\n      dup1\n      0x40\n      mstore\n      pop\n      dup2\n      add\n      swap1\n      tag_358\n      swap2\n      swap1\n      tag_359\n      jump\t// in\n    tag_358:\n        /* \"contracts/Utils.sol\":22077:22124  PoolInfo memory pool = MasterChef.poolInfo(pid) */\n      swap1\n      pop\n        /* \"contracts/Utils.sol\":22135:22153  uint256 poolWeight */\n      0x00\n        /* \"contracts/Utils.sol\":22156:22221  ((pool.allocPoint).mul(amount)).div(MasterChef.totalAllocPoint()) */\n      tag_360\n        /* \"contracts/Utils.sol\":22192:22202  MasterChef */\n      dup5\n        /* \"contracts/Utils.sol\":22192:22218  MasterChef.totalAllocPoint */\n      0xffffffffffffffffffffffffffffffffffffffff\n      and\n      0x17caf6f1\n        /* \"contracts/Utils.sol\":22192:22220  MasterChef.totalAllocPoint() */\n      mload(0x40)\n      dup2\n      0xffffffff\n      and\n      0xe0\n      shl\n      dup2\n      mstore\n      0x04\n      add\n      0x20\n      mload(0x40)\n      dup1\n      dup4\n      sub\n      dup2\n      dup7\n      dup1\n      extcodesize\n      iszero\n      dup1\n      iszero\n      tag_361\n      jumpi\n      0x00\n      dup1\n      revert\n    tag_361:\n      pop\n      gas\n      staticcall\n      iszero\n      dup1\n      iszero\n      tag_363\n      jumpi\n      returndatasize\n      0x00\n      dup1\n      returndatacopy\n      revert(0x00, returndatasize)\n    tag_363:\n      pop\n      pop\n      pop\n      pop\n      mload(0x40)\n      returndatasize\n      not(0x1f)\n      0x1f\n      dup3\n      add\n      and\n      dup3\n      add\n      dup1\n      0x40\n      mstore\n      pop\n      dup2\n      add\n      swap1\n      tag_364\n      swap2\n      swap1\n      tag_105\n      jump\t// in\n    tag_364:\n        /* \"contracts/Utils.sol\":22157:22186  (pool.allocPoint).mul(amount) */\n      tag_365\n        /* \"contracts/Utils.sol\":22179:22185  amount */\n      sload(0x03)\n        /* \"contracts/Utils.sol\":22158:22162  pool */\n      dup6\n        /* \"contracts/Utils.sol\":22158:22173  pool.allocPoint */\n      0x20\n      add\n      mload\n        /* \"contracts/Utils.sol\":22157:22178  (pool.allocPoint).mul */\n      tag_152\n      swap1\n        /* \"contracts/Utils.sol\":22157:22186  (pool.allocPoint).mul(amount) */\n      swap2\n      swap1\n      0xffffffff\n      and\n      jump\t// in\n    tag_365:\n        /* \"contracts/Utils.sol\":22156:22191  ((pool.allocPoint).mul(amount)).div */\n      tag_117\n      swap1\n        /* \"contracts/Utils.sol\":22156:22221  ((pool.allocPoint).mul(amount)).div(MasterChef.totalAllocPoint()) */\n      swap2\n      swap1\n      0xffffffff\n      and\n      jump\t// in\n    tag_360:\n        /* \"contracts/Utils.sol\":22135:22221  uint256 poolWeight = ((pool.allocPoint).mul(amount)).div(MasterChef.totalAllocPoint()) */\n      swap1\n      pop\n        /* \"contracts/Utils.sol\":22232:22256  uint256 rewardTokenPrice */\n      0x00\n        /* \"contracts/Utils.sol\":22259:22287  Tokenprice(MasterChef.DDT()) */\n      tag_366\n        /* \"contracts/Utils.sol\":22270:22280  MasterChef */\n      dup6\n        /* \"contracts/Utils.sol\":22270:22284  MasterChef.DDT */\n      0xffffffffffffffffffffffffffffffffffffffff\n      and\n      0xcb3cba55\n        /* \"contracts/Utils.sol\":22270:22286  MasterChef.DDT() */\n      mload(0x40)\n      dup2\n      0xffffffff\n      and\n      0xe0\n      shl\n      dup2\n      mstore\n      0x04\n      add\n      0x20\n      mload(0x40)\n      dup1\n      dup4\n      sub\n      dup2\n      dup7\n      dup1\n      extcodesize\n      iszero\n      dup1\n      iszero\n      tag_367\n      jumpi\n      0x00\n      dup1\n      revert\n    tag_367:\n      pop\n      gas\n      staticcall\n      iszero\n      dup1\n      iszero\n      tag_369\n      jumpi\n      returndatasize\n      0x00\n      dup1\n      returndatacopy\n      revert(0x00, returndatasize)\n    tag_369:\n      pop\n      pop\n      pop\n      pop\n      mload(0x40)\n      returndatasize\n      not(0x1f)\n      0x1f\n      dup3\n      add\n      and\n      dup3\n      add\n      dup1\n      0x40\n      mstore\n      pop\n      dup2\n      add\n      swap1\n      tag_370\n      swap2\n      swap1\n      tag_158\n      jump\t// in\n    tag_370:\n        /* \"contracts/Utils.sol\":22259:22269  Tokenprice */\n      tag_43\n        /* \"contracts/Utils.sol\":22259:22287  Tokenprice(MasterChef.DDT()) */\n      jump\t// in\n    tag_366:\n        /* \"contracts/Utils.sol\":22232:22287  uint256 rewardTokenPrice = Tokenprice(MasterChef.DDT()) */\n      swap1\n      pop\n        /* \"contracts/Utils.sol\":22298:22318  uint256 DRG_PER_YEAR */\n      0x00\n        /* \"contracts/Utils.sol\":22321:22366  BLOCKS_PER_YEAR.mul(MasterChef.DDTPerBlock()) */\n      tag_371\n        /* \"contracts/Utils.sol\":22341:22351  MasterChef */\n      dup7\n        /* \"contracts/Utils.sol\":22341:22363  MasterChef.DDTPerBlock */\n      0xffffffffffffffffffffffffffffffffffffffff\n      and\n      0xf395db2c\n        /* \"contracts/Utils.sol\":22341:22365  MasterChef.DDTPerBlock() */\n      mload(0x40)\n      dup2\n      0xffffffff\n      and\n      0xe0\n      shl\n      dup2\n      mstore\n      0x04\n      add\n      0x20\n      mload(0x40)\n      dup1\n      dup4\n      sub\n      dup2\n      dup7\n      dup1\n      extcodesize\n      iszero\n      dup1\n      iszero\n      tag_372\n      jumpi\n      0x00\n      dup1\n      revert\n    tag_372:\n      pop\n      gas\n      staticcall\n      iszero\n      dup1\n      iszero\n      tag_374\n      jumpi\n      returndatasize\n      0x00\n      dup1\n      returndatacopy\n      revert(0x00, returndatasize)\n    tag_374:\n      pop\n      pop\n      pop\n      pop\n      mload(0x40)\n      returndatasize\n      not(0x1f)\n      0x1f\n      dup3\n      add\n      and\n      dup3\n      add\n      dup1\n      0x40\n      mstore\n      pop\n      dup2\n      add\n      swap1\n      tag_375\n      swap2\n      swap1\n      tag_105\n      jump\t// in\n    tag_375:\n        /* \"contracts/Utils.sol\":22321:22336  BLOCKS_PER_YEAR */\n      sload(0x05)\n        /* \"contracts/Utils.sol\":22321:22340  BLOCKS_PER_YEAR.mul */\n      tag_152\n      swap1\n        /* \"contracts/Utils.sol\":22321:22366  BLOCKS_PER_YEAR.mul(MasterChef.DDTPerBlock()) */\n      swap2\n      swap1\n      0xffffffff\n      and\n      jump\t// in\n    tag_371:\n        /* \"contracts/Utils.sol\":22298:22366  uint256 DRG_PER_YEAR = BLOCKS_PER_YEAR.mul(MasterChef.DDTPerBlock()) */\n      swap1\n      pop\n        /* \"contracts/Utils.sol\":22377:22410  uint256 yearlyDRGRewardAllocation */\n      0x00\n        /* \"contracts/Utils.sol\":22413:22455  (DRG_PER_YEAR.mul(poolWeight)).div(amount) */\n      tag_376\n        /* \"contracts/Utils.sol\":22448:22454  amount */\n      sload(0x03)\n        /* \"contracts/Utils.sol\":22414:22442  DRG_PER_YEAR.mul(poolWeight) */\n      tag_377\n        /* \"contracts/Utils.sol\":22431:22441  poolWeight */\n      dup7\n        /* \"contracts/Utils.sol\":22414:22426  DRG_PER_YEAR */\n      dup6\n        /* \"contracts/Utils.sol\":22414:22430  DRG_PER_YEAR.mul */\n      tag_152\n      swap1\n        /* \"contracts/Utils.sol\":22414:22442  DRG_PER_YEAR.mul(poolWeight) */\n      swap2\n      swap1\n      0xffffffff\n      and\n      jump\t// in\n    tag_377:\n        /* \"contracts/Utils.sol\":22413:22447  (DRG_PER_YEAR.mul(poolWeight)).div */\n      tag_117\n      swap1\n        /* \"contracts/Utils.sol\":22413:22455  (DRG_PER_YEAR.mul(poolWeight)).div(amount) */\n      swap2\n      swap1\n      0xffffffff\n      and\n      jump\t// in\n    tag_376:\n        /* \"contracts/Utils.sol\":22377:22455  uint256 yearlyDRGRewardAllocation = (DRG_PER_YEAR.mul(poolWeight)).div(amount) */\n      swap1\n      pop\n        /* \"contracts/Utils.sol\":22466:22490  uint256 poolLiquidityUsd */\n      0x00\n        /* \"contracts/Utils.sol\":22493:22543  calcPoolTVLInUSD(pid, lpAddress, isLp, MasterChef) */\n      tag_378\n        /* \"contracts/Utils.sol\":22510:22513  pid */\n      dup12\n        /* \"contracts/Utils.sol\":22515:22524  lpAddress */\n      dup12\n        /* \"contracts/Utils.sol\":22526:22530  isLp */\n      dup12\n        /* \"contracts/Utils.sol\":22532:22542  MasterChef */\n      dup12\n        /* \"contracts/Utils.sol\":22493:22509  calcPoolTVLInUSD */\n      tag_85\n        /* \"contracts/Utils.sol\":22493:22543  calcPoolTVLInUSD(pid, lpAddress, isLp, MasterChef) */\n      jump\t// in\n    tag_378:\n        /* \"contracts/Utils.sol\":22466:22543  uint256 poolLiquidityUsd = calcPoolTVLInUSD(pid, lpAddress, isLp, MasterChef) */\n      swap1\n      pop\n        /* \"contracts/Utils.sol\":22577:22578  0 */\n      0x00\n        /* \"contracts/Utils.sol\":22557:22573  poolLiquidityUsd */\n      dup2\n        /* \"contracts/Utils.sol\":22557:22578  poolLiquidityUsd == 0 */\n      eq\n        /* \"contracts/Utils.sol\":22554:22735  if(poolLiquidityUsd == 0){\r... */\n      iszero\n      tag_379\n      jumpi\n        /* \"contracts/Utils.sol\":22601:22602  0 */\n      0x00\n        /* \"contracts/Utils.sol\":22594:22602  return 0 */\n      swap7\n      pop\n      pop\n      pop\n      pop\n      pop\n      pop\n      pop\n      jump(tag_353)\n        /* \"contracts/Utils.sol\":22554:22735  if(poolLiquidityUsd == 0){\r... */\n    tag_379:\n        /* \"contracts/Utils.sol\":22639:22723  (((yearlyDRGRewardAllocation.mul(rewardTokenPrice))).div(poolLiquidityUsd)).mul(100) */\n      tag_381\n        /* \"contracts/Utils.sol\":22719:22722  100 */\n      0x64\n        /* \"contracts/Utils.sol\":22640:22713  ((yearlyDRGRewardAllocation.mul(rewardTokenPrice))).div(poolLiquidityUsd) */\n      tag_382\n        /* \"contracts/Utils.sol\":22696:22712  poolLiquidityUsd */\n      dup4\n        /* \"contracts/Utils.sol\":22642:22689  yearlyDRGRewardAllocation.mul(rewardTokenPrice) */\n      tag_383\n        /* \"contracts/Utils.sol\":22672:22688  rewardTokenPrice */\n      dup9\n        /* \"contracts/Utils.sol\":22642:22667  yearlyDRGRewardAllocation */\n      dup8\n        /* \"contracts/Utils.sol\":22642:22671  yearlyDRGRewardAllocation.mul */\n      tag_152\n      swap1\n        /* \"contracts/Utils.sol\":22642:22689  yearlyDRGRewardAllocation.mul(rewardTokenPrice) */\n      swap2\n      swap1\n      0xffffffff\n      and\n      jump\t// in\n    tag_383:\n        /* \"contracts/Utils.sol\":22640:22695  ((yearlyDRGRewardAllocation.mul(rewardTokenPrice))).div */\n      tag_117\n      swap1\n        /* \"contracts/Utils.sol\":22640:22713  ((yearlyDRGRewardAllocation.mul(rewardTokenPrice))).div(poolLiquidityUsd) */\n      swap2\n      swap1\n      0xffffffff\n      and\n      jump\t// in\n    tag_382:\n        /* \"contracts/Utils.sol\":22639:22718  (((yearlyDRGRewardAllocation.mul(rewardTokenPrice))).div(poolLiquidityUsd)).mul */\n      tag_152\n      swap1\n        /* \"contracts/Utils.sol\":22639:22723  (((yearlyDRGRewardAllocation.mul(rewardTokenPrice))).div(poolLiquidityUsd)).mul(100) */\n      swap2\n      swap1\n      0xffffffff\n      and\n      jump\t// in\n    tag_381:\n        /* \"contracts/Utils.sol\":22633:22723  return(((yearlyDRGRewardAllocation.mul(rewardTokenPrice))).div(poolLiquidityUsd)).mul(100) */\n      swap7\n      pop\n      pop\n      pop\n      pop\n      pop\n      pop\n      pop\n        /* \"contracts/Utils.sol\":21952:22742  function CalcApy(uint256 pid, LP lpAddress,uint256 isLp, MetaMasterChef MasterChef) external view returns(uint256){\r... */\n    tag_353:\n      swap5\n      swap4\n      pop\n      pop\n      pop\n      pop\n      jump\t// out\n        /* \"contracts/Utils.sol\":22750:23237  function CalcApyNFTFarm(uint256 pid, NFTMasterChef MasterChef) external view returns(uint256){\r... */\n    tag_94:\n        /* \"contracts/Utils.sol\":22835:22842  uint256 */\n      0x00\n        /* \"contracts/Utils.sol\":22854:22877  PoolNFTInfo memory pool */\n      dup1\n        /* \"contracts/Utils.sol\":22880:22890  MasterChef */\n      dup3\n        /* \"contracts/Utils.sol\":22880:22899  MasterChef.poolInfo */\n      0xffffffffffffffffffffffffffffffffffffffff\n      and\n      0x1526fe27\n        /* \"contracts/Utils.sol\":22900:22903  pid */\n      dup6\n        /* \"contracts/Utils.sol\":22880:22904  MasterChef.poolInfo(pid) */\n      mload(0x40)\n      dup3\n      0xffffffff\n      and\n      0xe0\n      shl\n      dup2\n      mstore\n      0x04\n      add\n      tag_385\n      swap2\n      swap1\n      tag_29\n      jump\t// in\n    tag_385:\n      0x80\n      mload(0x40)\n      dup1\n      dup4\n      sub\n      dup2\n      dup7\n      dup1\n      extcodesize\n      iszero\n      dup1\n      iszero\n      tag_386\n      jumpi\n      0x00\n      dup1\n      revert\n    tag_386:\n      pop\n      gas\n      staticcall\n      iszero\n      dup1\n      iszero\n      tag_388\n      jumpi\n      returndatasize\n      0x00\n      dup1\n      returndatacopy\n      revert(0x00, returndatasize)\n    tag_388:\n      pop\n      pop\n      pop\n      pop\n      mload(0x40)\n      returndatasize\n      not(0x1f)\n      0x1f\n      dup3\n      add\n      and\n      dup3\n      add\n      dup1\n      0x40\n      mstore\n      pop\n      dup2\n      add\n      swap1\n      tag_389\n      swap2\n      swap1\n      tag_390\n      jump\t// in\n    tag_389:\n        /* \"contracts/Utils.sol\":22854:22904  PoolNFTInfo memory pool = MasterChef.poolInfo(pid) */\n      swap1\n      pop\n        /* \"contracts/Utils.sol\":22915:22933  uint256 allocPoint */\n      0x00\n        /* \"contracts/Utils.sol\":22936:22940  pool */\n      dup2\n        /* \"contracts/Utils.sol\":22936:22951  pool.allocPoint */\n      0x20\n      add\n      mload\n        /* \"contracts/Utils.sol\":22915:22951  uint256 allocPoint = pool.allocPoint */\n      swap1\n      pop\n        /* \"contracts/Utils.sol\":22962:22985  uint256 totalAllocPoint */\n      0x00\n        /* \"contracts/Utils.sol\":22988:22998  MasterChef */\n      dup5\n        /* \"contracts/Utils.sol\":22988:23014  MasterChef.totalAllocPoint */\n      0xffffffffffffffffffffffffffffffffffffffff\n      and\n      0x17caf6f1\n        /* \"contracts/Utils.sol\":22988:23016  MasterChef.totalAllocPoint() */\n      mload(0x40)\n      dup2\n      0xffffffff\n      and\n      0xe0\n      shl\n      dup2\n      mstore\n      0x04\n      add\n      0x20\n      mload(0x40)\n      dup1\n      dup4\n      sub\n      dup2\n      dup7\n      dup1\n      extcodesize\n      iszero\n      dup1\n      iszero\n      tag_391\n      jumpi\n      0x00\n      dup1\n      revert\n    tag_391:\n      pop\n      gas\n      staticcall\n      iszero\n      dup1\n      iszero\n      tag_393\n      jumpi\n      returndatasize\n      0x00\n      dup1\n      returndatacopy\n      revert(0x00, returndatasize)\n    tag_393:\n      pop\n      pop\n      pop\n      pop\n      mload(0x40)\n      returndatasize\n      not(0x1f)\n      0x1f\n      dup3\n      add\n      and\n      dup3\n      add\n      dup1\n      0x40\n      mstore\n      pop\n      dup2\n      add\n      swap1\n      tag_394\n      swap2\n      swap1\n      tag_105\n      jump\t// in\n    tag_394:\n        /* \"contracts/Utils.sol\":22962:23016  uint256 totalAllocPoint = MasterChef.totalAllocPoint() */\n      swap1\n      pop\n        /* \"contracts/Utils.sol\":23027:23048  uint256 PowerPerBlock */\n      0x00\n        /* \"contracts/Utils.sol\":23051:23061  MasterChef */\n      dup6\n        /* \"contracts/Utils.sol\":23051:23075  MasterChef.PowerPerBlock */\n      0xffffffffffffffffffffffffffffffffffffffff\n      and\n      0x5990c569\n        /* \"contracts/Utils.sol\":23051:23077  MasterChef.PowerPerBlock() */\n      mload(0x40)\n      dup2\n      0xffffffff\n      and\n      0xe0\n      shl\n      dup2\n      mstore\n      0x04\n      add\n      0x20\n      mload(0x40)\n      dup1\n      dup4\n      sub\n      dup2\n      dup7\n      dup1\n      extcodesize\n      iszero\n      dup1\n      iszero\n      tag_395\n      jumpi\n      0x00\n      dup1\n      revert\n    tag_395:\n      pop\n      gas\n      staticcall\n      iszero\n      dup1\n      iszero\n      tag_397\n      jumpi\n      returndatasize\n      0x00\n      dup1\n      returndatacopy\n      revert(0x00, returndatasize)\n    tag_397:\n      pop\n      pop\n      pop\n      pop\n      mload(0x40)\n      returndatasize\n      not(0x1f)\n      0x1f\n      dup3\n      add\n      and\n      dup3\n      add\n      dup1\n      0x40\n      mstore\n      pop\n      dup2\n      add\n      swap1\n      tag_398\n      swap2\n      swap1\n      tag_105\n      jump\t// in\n    tag_398:\n        /* \"contracts/Utils.sol\":23027:23077  uint256 PowerPerBlock = MasterChef.PowerPerBlock() */\n      swap1\n      pop\n        /* \"contracts/Utils.sol\":23088:23109  uint256 Power_PER_DAY */\n      0x00\n        /* \"contracts/Utils.sol\":23112:23157  (BLOCKS_PER_YEAR.mul(PowerPerBlock)).div(365) */\n      tag_399\n        /* \"contracts/Utils.sol\":23153:23156  365 */\n      0x016d\n        /* \"contracts/Utils.sol\":23113:23147  BLOCKS_PER_YEAR.mul(PowerPerBlock) */\n      tag_400\n        /* \"contracts/Utils.sol\":23133:23146  PowerPerBlock */\n      dup5\n        /* \"contracts/Utils.sol\":23113:23128  BLOCKS_PER_YEAR */\n      sload(0x05)\n        /* \"contracts/Utils.sol\":23113:23132  BLOCKS_PER_YEAR.mul */\n      tag_152\n      swap1\n        /* \"contracts/Utils.sol\":23113:23147  BLOCKS_PER_YEAR.mul(PowerPerBlock) */\n      swap2\n      swap1\n      0xffffffff\n      and\n      jump\t// in\n    tag_400:\n        /* \"contracts/Utils.sol\":23112:23152  (BLOCKS_PER_YEAR.mul(PowerPerBlock)).div */\n      tag_117\n      swap1\n        /* \"contracts/Utils.sol\":23112:23157  (BLOCKS_PER_YEAR.mul(PowerPerBlock)).div(365) */\n      swap2\n      swap1\n      0xffffffff\n      and\n      jump\t// in\n    tag_399:\n        /* \"contracts/Utils.sol\":23088:23157  uint256 Power_PER_DAY = (BLOCKS_PER_YEAR.mul(PowerPerBlock)).div(365) */\n      swap1\n      pop\n        /* \"contracts/Utils.sol\":23177:23229  (Power_PER_DAY.mul(allocPoint)).div(totalAllocPoint) */\n      tag_401\n        /* \"contracts/Utils.sol\":23213:23228  totalAllocPoint */\n      dup4\n        /* \"contracts/Utils.sol\":23178:23207  Power_PER_DAY.mul(allocPoint) */\n      tag_402\n        /* \"contracts/Utils.sol\":23196:23206  allocPoint */\n      dup7\n        /* \"contracts/Utils.sol\":23178:23191  Power_PER_DAY */\n      dup5\n        /* \"contracts/Utils.sol\":23178:23195  Power_PER_DAY.mul */\n      tag_152\n      swap1\n        /* \"contracts/Utils.sol\":23178:23207  Power_PER_DAY.mul(allocPoint) */\n      swap2\n      swap1\n      0xffffffff\n      and\n      jump\t// in\n    tag_402:\n        /* \"contracts/Utils.sol\":23177:23212  (Power_PER_DAY.mul(allocPoint)).div */\n      tag_117\n      swap1\n        /* \"contracts/Utils.sol\":23177:23229  (Power_PER_DAY.mul(allocPoint)).div(totalAllocPoint) */\n      swap2\n      swap1\n      0xffffffff\n      and\n      jump\t// in\n    tag_401:\n        /* \"contracts/Utils.sol\":23170:23229  return (Power_PER_DAY.mul(allocPoint)).div(totalAllocPoint) */\n      swap6\n      pop\n      pop\n      pop\n      pop\n      pop\n      pop\n        /* \"contracts/Utils.sol\":22750:23237  function CalcApyNFTFarm(uint256 pid, NFTMasterChef MasterChef) external view returns(uint256){\r... */\n      swap3\n      swap2\n      pop\n      pop\n      jump\t// out\n        /* \"contracts/Utils.sol\":14758:14959  function transferOwnership(address newOwner) public virtual onlyOwner {\r... */\n    tag_98:\n        /* \"contracts/Utils.sol\":14080:14092  _msgSender() */\n      tag_404\n        /* \"contracts/Utils.sol\":14080:14090  _msgSender */\n      tag_322\n        /* \"contracts/Utils.sol\":14080:14092  _msgSender() */\n      jump\t// in\n    tag_404:\n        /* \"contracts/Utils.sol\":14069:14092  owner() == _msgSender() */\n      0xffffffffffffffffffffffffffffffffffffffff\n      and\n        /* \"contracts/Utils.sol\":14069:14076  owner() */\n      tag_405\n        /* \"contracts/Utils.sol\":14069:14074  owner */\n      tag_73\n        /* \"contracts/Utils.sol\":14069:14076  owner() */\n      jump\t// in\n    tag_405:\n        /* \"contracts/Utils.sol\":14069:14092  owner() == _msgSender() */\n      0xffffffffffffffffffffffffffffffffffffffff\n      and\n      eq\n        /* \"contracts/Utils.sol\":14061:14129  require(owner() == _msgSender(), \"Ownable: caller is not the owner\") */\n      tag_406\n      jumpi\n      mload(0x40)\n      0x08c379a000000000000000000000000000000000000000000000000000000000\n      dup2\n      mstore\n      0x04\n      add\n      tag_407\n      swap1\n      tag_326\n      jump\t// in\n    tag_407:\n      mload(0x40)\n      dup1\n      swap2\n      sub\n      swap1\n      revert\n    tag_406:\n        /* \"contracts/Utils.sol\":14867:14868  0 */\n      0x00\n        /* \"contracts/Utils.sol\":14847:14869  newOwner != address(0) */\n      0xffffffffffffffffffffffffffffffffffffffff\n      and\n        /* \"contracts/Utils.sol\":14847:14855  newOwner */\n      dup2\n        /* \"contracts/Utils.sol\":14847:14869  newOwner != address(0) */\n      0xffffffffffffffffffffffffffffffffffffffff\n      and\n      eq\n      iszero\n        /* \"contracts/Utils.sol\":14839:14912  require(newOwner != address(0), \"Ownable: new owner is the zero address\") */\n      tag_409\n      jumpi\n      mload(0x40)\n      0x08c379a000000000000000000000000000000000000000000000000000000000\n      dup2\n      mstore\n      0x04\n      add\n      tag_410\n      swap1\n      tag_411\n      jump\t// in\n    tag_410:\n      mload(0x40)\n      dup1\n      swap2\n      sub\n      swap1\n      revert\n    tag_409:\n        /* \"contracts/Utils.sol\":14923:14951  _transferOwnership(newOwner) */\n      tag_412\n        /* \"contracts/Utils.sol\":14942:14950  newOwner */\n      dup2\n        /* \"contracts/Utils.sol\":14923:14941  _transferOwnership */\n      tag_329\n        /* \"contracts/Utils.sol\":14923:14951  _transferOwnership(newOwner) */\n      jump\t// in\n    tag_412:\n        /* \"contracts/Utils.sol\":14758:14959  function transferOwnership(address newOwner) public virtual onlyOwner {\r... */\n      pop\n      jump\t// out\n        /* \"contracts/Utils.sol\":10904:11036  function div(uint256 a, uint256 b) internal pure returns (uint256) {\r... */\n    tag_117:\n        /* \"contracts/Utils.sol\":10962:10969  uint256 */\n      0x00\n        /* \"contracts/Utils.sol\":10989:11028  div(a, b, \"SafeMath: division by zero\") */\n      tag_414\n        /* \"contracts/Utils.sol\":10993:10994  a */\n      dup4\n        /* \"contracts/Utils.sol\":10996:10997  b */\n      dup4\n        /* \"contracts/Utils.sol\":10989:11028  div(a, b, \"SafeMath: division by zero\") */\n      mload(0x40)\n      dup1\n      0x40\n      add\n      0x40\n      mstore\n      dup1\n      0x1a\n      dup2\n      mstore\n      0x20\n      add\n      0x536166654d6174683a206469766973696f6e206279207a65726f000000000000\n      dup2\n      mstore\n      pop\n        /* \"contracts/Utils.sol\":10989:10992  div */\n      tag_415\n        /* \"contracts/Utils.sol\":10989:11028  div(a, b, \"SafeMath: division by zero\") */\n      jump\t// in\n    tag_414:\n        /* \"contracts/Utils.sol\":10982:11028  return div(a, b, \"SafeMath: division by zero\") */\n      swap1\n      pop\n        /* \"contracts/Utils.sol\":10904:11036  function div(uint256 a, uint256 b) internal pure returns (uint256) {\r... */\n      swap3\n      swap2\n      pop\n      pop\n      jump\t// out\n        /* \"contracts/Utils.sol\":9965:10436  function mul(uint256 a, uint256 b) internal pure returns (uint256) {\r... */\n    tag_152:\n        /* \"contracts/Utils.sol\":10023:10030  uint256 */\n      0x00\n        /* \"contracts/Utils.sol\":10273:10274  0 */\n      dup1\n        /* \"contracts/Utils.sol\":10268:10269  a */\n      dup4\n        /* \"contracts/Utils.sol\":10268:10274  a == 0 */\n      eq\n        /* \"contracts/Utils.sol\":10264:10311  if (a == 0) {\r... */\n      iszero\n      tag_417\n      jumpi\n        /* \"contracts/Utils.sol\":10298:10299  0 */\n      0x00\n        /* \"contracts/Utils.sol\":10291:10299  return 0 */\n      swap1\n      pop\n      jump(tag_416)\n        /* \"contracts/Utils.sol\":10264:10311  if (a == 0) {\r... */\n    tag_417:\n        /* \"contracts/Utils.sol\":10323:10332  uint256 c */\n      0x00\n        /* \"contracts/Utils.sol\":10339:10340  b */\n      dup3\n        /* \"contracts/Utils.sol\":10335:10336  a */\n      dup5\n        /* \"contracts/Utils.sol\":10335:10340  a * b */\n      tag_418\n      swap2\n      swap1\n      tag_116\n      jump\t// in\n    tag_418:\n        /* \"contracts/Utils.sol\":10323:10340  uint256 c = a * b */\n      swap1\n      pop\n        /* \"contracts/Utils.sol\":10368:10369  b */\n      dup3\n        /* \"contracts/Utils.sol\":10363:10364  a */\n      dup5\n        /* \"contracts/Utils.sol\":10359:10360  c */\n      dup3\n        /* \"contracts/Utils.sol\":10359:10364  c / a */\n      tag_419\n      swap2\n      swap1\n      tag_420\n      jump\t// in\n    tag_419:\n        /* \"contracts/Utils.sol\":10359:10369  c / a == b */\n      eq\n        /* \"contracts/Utils.sol\":10351:10407  require(c / a == b, \"SafeMath: multiplication overflow\") */\n      tag_421\n      jumpi\n      mload(0x40)\n      0x08c379a000000000000000000000000000000000000000000000000000000000\n      dup2\n      mstore\n      0x04\n      add\n      tag_422\n      swap1\n      tag_423\n      jump\t// in\n    tag_422:\n      mload(0x40)\n      dup1\n      swap2\n      sub\n      swap1\n      revert\n    tag_421:\n        /* \"contracts/Utils.sol\":10427:10428  c */\n      dup1\n        /* \"contracts/Utils.sol\":10420:10428  return c */\n      swap2\n      pop\n      pop\n        /* \"contracts/Utils.sol\":9965:10436  function mul(uint256 a, uint256 b) internal pure returns (uint256) {\r... */\n    tag_416:\n      swap3\n      swap2\n      pop\n      pop\n      jump\t// out\n        /* \"contracts/Utils.sol\":8593:8774  function add(uint256 a, uint256 b) internal pure returns (uint256) {\r... */\n    tag_277:\n        /* \"contracts/Utils.sol\":8651:8658  uint256 */\n      0x00\n        /* \"contracts/Utils.sol\":8671:8680  uint256 c */\n      dup1\n        /* \"contracts/Utils.sol\":8687:8688  b */\n      dup3\n        /* \"contracts/Utils.sol\":8683:8684  a */\n      dup5\n        /* \"contracts/Utils.sol\":8683:8688  a + b */\n      tag_425\n      swap2\n      swap1\n      tag_131\n      jump\t// in\n    tag_425:\n        /* \"contracts/Utils.sol\":8671:8688  uint256 c = a + b */\n      swap1\n      pop\n        /* \"contracts/Utils.sol\":8712:8713  a */\n      dup4\n        /* \"contracts/Utils.sol\":8707:8708  c */\n      dup2\n        /* \"contracts/Utils.sol\":8707:8713  c >= a */\n      lt\n      iszero\n        /* \"contracts/Utils.sol\":8699:8745  require(c >= a, \"SafeMath: addition overflow\") */\n      tag_426\n      jumpi\n      mload(0x40)\n      0x08c379a000000000000000000000000000000000000000000000000000000000\n      dup2\n      mstore\n      0x04\n      add\n      tag_427\n      swap1\n      tag_428\n      jump\t// in\n    tag_427:\n      mload(0x40)\n      dup1\n      swap2\n      sub\n      swap1\n      revert\n    tag_426:\n        /* \"contracts/Utils.sol\":8765:8766  c */\n      dup1\n        /* \"contracts/Utils.sol\":8758:8766  return c */\n      swap2\n      pop\n      pop\n        /* \"contracts/Utils.sol\":8593:8774  function add(uint256 a, uint256 b) internal pure returns (uint256) {\r... */\n      swap3\n      swap2\n      pop\n      pop\n      jump\t// out\n        /* \"contracts/Utils.sol\":13223:13321  function _msgSender() internal view virtual returns (address) {\r... */\n    tag_322:\n        /* \"contracts/Utils.sol\":13276:13283  address */\n      0x00\n        /* \"contracts/Utils.sol\":13303:13313  msg.sender */\n      caller\n        /* \"contracts/Utils.sol\":13296:13313  return msg.sender */\n      swap1\n      pop\n        /* \"contracts/Utils.sol\":13223:13321  function _msgSender() internal view virtual returns (address) {\r... */\n      swap1\n      jump\t// out\n        /* \"contracts/Utils.sol\":15119:15310  function _transferOwnership(address newOwner) internal virtual {\r... */\n    tag_329:\n        /* \"contracts/Utils.sol\":15193:15209  address oldOwner */\n      0x00\n        /* \"contracts/Utils.sol\":15212:15218  _owner */\n      dup1\n      0x00\n      swap1\n      sload\n      swap1\n      0x0100\n      exp\n      swap1\n      div\n      0xffffffffffffffffffffffffffffffffffffffff\n      and\n        /* \"contracts/Utils.sol\":15193:15218  address oldOwner = _owner */\n      swap1\n      pop\n        /* \"contracts/Utils.sol\":15238:15246  newOwner */\n      dup2\n        /* \"contracts/Utils.sol\":15229:15235  _owner */\n      0x00\n      dup1\n        /* \"contracts/Utils.sol\":15229:15246  _owner = newOwner */\n      0x0100\n      exp\n      dup2\n      sload\n      dup2\n      0xffffffffffffffffffffffffffffffffffffffff\n      mul\n      not\n      and\n      swap1\n      dup4\n      0xffffffffffffffffffffffffffffffffffffffff\n      and\n      mul\n      or\n      swap1\n      sstore\n      pop\n        /* \"contracts/Utils.sol\":15293:15301  newOwner */\n      dup2\n        /* \"contracts/Utils.sol\":15262:15302  OwnershipTransferred(oldOwner, newOwner) */\n      0xffffffffffffffffffffffffffffffffffffffff\n      and\n        /* \"contracts/Utils.sol\":15283:15291  oldOwner */\n      dup2\n        /* \"contracts/Utils.sol\":15262:15302  OwnershipTransferred(oldOwner, newOwner) */\n      0xffffffffffffffffffffffffffffffffffffffff\n      and\n      0x8be0079c531659141344cd1fd0a4f28419497f9722a3daafe3b4186f6b6457e0\n      mload(0x40)\n      mload(0x40)\n      dup1\n      swap2\n      sub\n      swap1\n      log3\n        /* \"contracts/Utils.sol\":15182:15310  {\r... */\n      pop\n        /* \"contracts/Utils.sol\":15119:15310  function _transferOwnership(address newOwner) internal virtual {\r... */\n      pop\n      jump\t// out\n        /* \"contracts/Utils.sol\":11566:11911  function div(uint256 a, uint256 b, string memory errorMessage) internal pure returns (uint256) {\r... */\n    tag_415:\n        /* \"contracts/Utils.sol\":11652:11659  uint256 */\n      0x00\n        /* \"contracts/Utils.sol\":11751:11752  0 */\n      dup1\n        /* \"contracts/Utils.sol\":11747:11748  b */\n      dup4\n        /* \"contracts/Utils.sol\":11747:11752  b > 0 */\n      gt\n        /* \"contracts/Utils.sol\":11754:11766  errorMessage */\n      dup3\n        /* \"contracts/Utils.sol\":11739:11767  require(b > 0, errorMessage) */\n      swap1\n      tag_432\n      jumpi\n      mload(0x40)\n      0x08c379a000000000000000000000000000000000000000000000000000000000\n      dup2\n      mstore\n      0x04\n      add\n      tag_433\n      swap2\n      swap1\n      tag_434\n      jump\t// in\n    tag_433:\n      mload(0x40)\n      dup1\n      swap2\n      sub\n      swap1\n      revert\n    tag_432:\n      pop\n        /* \"contracts/Utils.sol\":11778:11787  uint256 c */\n      0x00\n        /* \"contracts/Utils.sol\":11794:11795  b */\n      dup4\n        /* \"contracts/Utils.sol\":11790:11791  a */\n      dup6\n        /* \"contracts/Utils.sol\":11790:11795  a / b */\n      tag_435\n      swap2\n      swap1\n      tag_420\n      jump\t// in\n    tag_435:\n        /* \"contracts/Utils.sol\":11778:11795  uint256 c = a / b */\n      swap1\n      pop\n        /* \"contracts/Utils.sol\":11902:11903  c */\n      dup1\n        /* \"contracts/Utils.sol\":11895:11903  return c */\n      swap2\n      pop\n      pop\n        /* \"contracts/Utils.sol\":11566:11911  function div(uint256 a, uint256 b, string memory errorMessage) internal pure returns (uint256) {\r... */\n      swap4\n      swap3\n      pop\n      pop\n      pop\n      jump\t// out\n        /* \"#utility.yul\":28:780   */\n    tag_437:\n        /* \"#utility.yul\":134:139   */\n      0x00\n        /* \"#utility.yul\":159:250   */\n      tag_439\n        /* \"#utility.yul\":175:249   */\n      tag_440\n        /* \"#utility.yul\":242:248   */\n      dup5\n        /* \"#utility.yul\":175:249   */\n      tag_441\n      jump\t// in\n    tag_440:\n        /* \"#utility.yul\":159:250   */\n      tag_442\n      jump\t// in\n    tag_439:\n        /* \"#utility.yul\":150:250   */\n      swap1\n      pop\n        /* \"#utility.yul\":270:275   */\n      dup1\n        /* \"#utility.yul\":299:305   */\n      dup4\n        /* \"#utility.yul\":292:297   */\n      dup3\n        /* \"#utility.yul\":285:306   */\n      mstore\n        /* \"#utility.yul\":333:337   */\n      0x20\n        /* \"#utility.yul\":326:331   */\n      dup3\n        /* \"#utility.yul\":322:338   */\n      add\n        /* \"#utility.yul\":315:338   */\n      swap1\n      pop\n        /* \"#utility.yul\":359:365   */\n      dup3\n        /* \"#utility.yul\":409:412   */\n      dup6\n        /* \"#utility.yul\":401:405   */\n      0x20\n        /* \"#utility.yul\":393:399   */\n      dup7\n        /* \"#utility.yul\":389:406   */\n      mul\n        /* \"#utility.yul\":384:387   */\n      dup3\n        /* \"#utility.yul\":380:407   */\n      add\n        /* \"#utility.yul\":377:413   */\n      gt\n        /* \"#utility.yul\":374:517   */\n      iszero\n      tag_443\n      jumpi\n        /* \"#utility.yul\":428:507   */\n      tag_444\n      tag_445\n      jump\t// in\n    tag_444:\n        /* \"#utility.yul\":374:517   */\n    tag_443:\n        /* \"#utility.yul\":541:542   */\n      0x00\n        /* \"#utility.yul\":526:774   */\n    tag_446:\n        /* \"#utility.yul\":551:557   */\n      dup6\n        /* \"#utility.yul\":548:549   */\n      dup2\n        /* \"#utility.yul\":545:558   */\n      lt\n        /* \"#utility.yul\":526:774   */\n      iszero\n      tag_448\n      jumpi\n        /* \"#utility.yul\":619:622   */\n      dup2\n        /* \"#utility.yul\":648:695   */\n      tag_449\n        /* \"#utility.yul\":691:694   */\n      dup9\n        /* \"#utility.yul\":679:689   */\n      dup3\n        /* \"#utility.yul\":648:695   */\n      tag_450\n      jump\t// in\n    tag_449:\n        /* \"#utility.yul\":643:646   */\n      dup5\n        /* \"#utility.yul\":636:696   */\n      mstore\n        /* \"#utility.yul\":725:729   */\n      0x20\n        /* \"#utility.yul\":720:723   */\n      dup5\n        /* \"#utility.yul\":716:730   */\n      add\n        /* \"#utility.yul\":709:730   */\n      swap4\n      pop\n        /* \"#utility.yul\":759:763   */\n      0x20\n        /* \"#utility.yul\":754:757   */\n      dup4\n        /* \"#utility.yul\":750:764   */\n      add\n        /* \"#utility.yul\":743:764   */\n      swap3\n      pop\n        /* \"#utility.yul\":586:774   */\n      pop\n        /* \"#utility.yul\":573:574   */\n      0x01\n        /* \"#utility.yul\":570:571   */\n      dup2\n        /* \"#utility.yul\":566:575   */\n      add\n        /* \"#utility.yul\":561:575   */\n      swap1\n      pop\n        /* \"#utility.yul\":526:774   */\n      jump(tag_446)\n    tag_448:\n        /* \"#utility.yul\":530:544   */\n      pop\n        /* \"#utility.yul\":140:780   */\n      pop\n      pop\n        /* \"#utility.yul\":28:780   */\n      swap4\n      swap3\n      pop\n      pop\n      pop\n      jump\t// out\n        /* \"#utility.yul\":803:1547   */\n    tag_451:\n        /* \"#utility.yul\":910:915   */\n      0x00\n        /* \"#utility.yul\":935:1016   */\n      tag_453\n        /* \"#utility.yul\":951:1015   */\n      tag_454\n        /* \"#utility.yul\":1008:1014   */\n      dup5\n        /* \"#utility.yul\":951:1015   */\n      tag_455\n      jump\t// in\n    tag_454:\n        /* \"#utility.yul\":935:1016   */\n      tag_442\n      jump\t// in\n    tag_453:\n        /* \"#utility.yul\":926:1016   */\n      swap1\n      pop\n        /* \"#utility.yul\":1036:1041   */\n      dup1\n        /* \"#utility.yul\":1065:1071   */\n      dup4\n        /* \"#utility.yul\":1058:1063   */\n      dup3\n        /* \"#utility.yul\":1051:1072   */\n      mstore\n        /* \"#utility.yul\":1099:1103   */\n      0x20\n        /* \"#utility.yul\":1092:1097   */\n      dup3\n        /* \"#utility.yul\":1088:1104   */\n      add\n        /* \"#utility.yul\":1081:1104   */\n      swap1\n      pop\n        /* \"#utility.yul\":1125:1131   */\n      dup3\n        /* \"#utility.yul\":1175:1178   */\n      dup6\n        /* \"#utility.yul\":1167:1171   */\n      0x20\n        /* \"#utility.yul\":1159:1165   */\n      dup7\n        /* \"#utility.yul\":1155:1172   */\n      mul\n        /* \"#utility.yul\":1150:1153   */\n      dup3\n        /* \"#utility.yul\":1146:1173   */\n      add\n        /* \"#utility.yul\":1143:1179   */\n      gt\n        /* \"#utility.yul\":1140:1283   */\n      iszero\n      tag_456\n      jumpi\n        /* \"#utility.yul\":1194:1273   */\n      tag_457\n      tag_445\n      jump\t// in\n    tag_457:\n        /* \"#utility.yul\":1140:1283   */\n    tag_456:\n        /* \"#utility.yul\":1307:1308   */\n      0x00\n        /* \"#utility.yul\":1292:1541   */\n    tag_458:\n        /* \"#utility.yul\":1317:1323   */\n      dup6\n        /* \"#utility.yul\":1314:1315   */\n      dup2\n        /* \"#utility.yul\":1311:1324   */\n      lt\n        /* \"#utility.yul\":1292:1541   */\n      iszero\n      tag_460\n      jumpi\n        /* \"#utility.yul\":1385:1388   */\n      dup2\n        /* \"#utility.yul\":1414:1462   */\n      tag_461\n        /* \"#utility.yul\":1458:1461   */\n      dup9\n        /* \"#utility.yul\":1446:1456   */\n      dup3\n        /* \"#utility.yul\":1414:1462   */\n      tag_462\n      jump\t// in\n    tag_461:\n        /* \"#utility.yul\":1409:1412   */\n      dup5\n        /* \"#utility.yul\":1402:1463   */\n      mstore\n        /* \"#utility.yul\":1492:1496   */\n      0x20\n        /* \"#utility.yul\":1487:1490   */\n      dup5\n        /* \"#utility.yul\":1483:1497   */\n      add\n        /* \"#utility.yul\":1476:1497   */\n      swap4\n      pop\n        /* \"#utility.yul\":1526:1530   */\n      0x20\n        /* \"#utility.yul\":1521:1524   */\n      dup4\n        /* \"#utility.yul\":1517:1531   */\n      add\n        /* \"#utility.yul\":1510:1531   */\n      swap3\n      pop\n        /* \"#utility.yul\":1352:1541   */\n      pop\n        /* \"#utility.yul\":1339:1340   */\n      0x01\n        /* \"#utility.yul\":1336:1337   */\n      dup2\n        /* \"#utility.yul\":1332:1341   */\n      add\n        /* \"#utility.yul\":1327:1341   */\n      swap1\n      pop\n        /* \"#utility.yul\":1292:1541   */\n      jump(tag_458)\n    tag_460:\n        /* \"#utility.yul\":1296:1310   */\n      pop\n        /* \"#utility.yul\":916:1547   */\n      pop\n      pop\n        /* \"#utility.yul\":803:1547   */\n      swap4\n      swap3\n      pop\n      pop\n      pop\n      jump\t// out\n        /* \"#utility.yul\":1553:1692   */\n    tag_463:\n        /* \"#utility.yul\":1599:1604   */\n      0x00\n        /* \"#utility.yul\":1637:1643   */\n      dup2\n        /* \"#utility.yul\":1624:1644   */\n      calldataload\n        /* \"#utility.yul\":1615:1644   */\n      swap1\n      pop\n        /* \"#utility.yul\":1653:1686   */\n      tag_465\n        /* \"#utility.yul\":1680:1685   */\n      dup2\n        /* \"#utility.yul\":1653:1686   */\n      tag_466\n      jump\t// in\n    tag_465:\n        /* \"#utility.yul\":1553:1692   */\n      swap3\n      swap2\n      pop\n      pop\n      jump\t// out\n        /* \"#utility.yul\":1698:1841   */\n    tag_467:\n        /* \"#utility.yul\":1755:1760   */\n      0x00\n        /* \"#utility.yul\":1786:1792   */\n      dup2\n        /* \"#utility.yul\":1780:1793   */\n      mload\n        /* \"#utility.yul\":1771:1793   */\n      swap1\n      pop\n        /* \"#utility.yul\":1802:1835   */\n      tag_469\n        /* \"#utility.yul\":1829:1834   */\n      dup2\n        /* \"#utility.yul\":1802:1835   */\n      tag_466\n      jump\t// in\n    tag_469:\n        /* \"#utility.yul\":1698:1841   */\n      swap3\n      swap2\n      pop\n      pop\n      jump\t// out\n        /* \"#utility.yul\":1868:2258   */\n    tag_470:\n        /* \"#utility.yul\":1949:1954   */\n      0x00\n        /* \"#utility.yul\":1998:2001   */\n      dup3\n        /* \"#utility.yul\":1991:1995   */\n      0x1f\n        /* \"#utility.yul\":1983:1989   */\n      dup4\n        /* \"#utility.yul\":1979:1996   */\n      add\n        /* \"#utility.yul\":1975:2002   */\n      slt\n        /* \"#utility.yul\":1965:2087   */\n      tag_472\n      jumpi\n        /* \"#utility.yul\":2006:2085   */\n      tag_473\n      tag_474\n      jump\t// in\n    tag_473:\n        /* \"#utility.yul\":1965:2087   */\n    tag_472:\n        /* \"#utility.yul\":2123:2129   */\n      dup2\n        /* \"#utility.yul\":2110:2130   */\n      calldataload\n        /* \"#utility.yul\":2148:2252   */\n      tag_475\n        /* \"#utility.yul\":2248:2251   */\n      dup5\n        /* \"#utility.yul\":2240:2246   */\n      dup3\n        /* \"#utility.yul\":2233:2237   */\n      0x20\n        /* \"#utility.yul\":2225:2231   */\n      dup7\n        /* \"#utility.yul\":2221:2238   */\n      add\n        /* \"#utility.yul\":2148:2252   */\n      tag_437\n      jump\t// in\n    tag_475:\n        /* \"#utility.yul\":2139:2252   */\n      swap2\n      pop\n        /* \"#utility.yul\":1955:2258   */\n      pop\n        /* \"#utility.yul\":1868:2258   */\n      swap3\n      swap2\n      pop\n      pop\n      jump\t// out\n        /* \"#utility.yul\":2281:2666   */\n    tag_476:\n        /* \"#utility.yul\":2363:2368   */\n      0x00\n        /* \"#utility.yul\":2412:2415   */\n      dup3\n        /* \"#utility.yul\":2405:2409   */\n      0x1f\n        /* \"#utility.yul\":2397:2403   */\n      dup4\n        /* \"#utility.yul\":2393:2410   */\n      add\n        /* \"#utility.yul\":2389:2416   */\n      slt\n        /* \"#utility.yul\":2379:2501   */\n      tag_478\n      jumpi\n        /* \"#utility.yul\":2420:2499   */\n      tag_479\n      tag_474\n      jump\t// in\n    tag_479:\n        /* \"#utility.yul\":2379:2501   */\n    tag_478:\n        /* \"#utility.yul\":2530:2536   */\n      dup2\n        /* \"#utility.yul\":2524:2537   */\n      mload\n        /* \"#utility.yul\":2555:2660   */\n      tag_480\n        /* \"#utility.yul\":2656:2659   */\n      dup5\n        /* \"#utility.yul\":2648:2654   */\n      dup3\n        /* \"#utility.yul\":2641:2645   */\n      0x20\n        /* \"#utility.yul\":2633:2639   */\n      dup7\n        /* \"#utility.yul\":2629:2646   */\n      add\n        /* \"#utility.yul\":2555:2660   */\n      tag_451\n      jump\t// in\n    tag_480:\n        /* \"#utility.yul\":2546:2660   */\n      swap2\n      pop\n        /* \"#utility.yul\":2369:2666   */\n      pop\n        /* \"#utility.yul\":2281:2666   */\n      swap3\n      swap2\n      pop\n      pop\n      jump\t// out\n        /* \"#utility.yul\":2672:2843   */\n    tag_481:\n        /* \"#utility.yul\":2743:2748   */\n      0x00\n        /* \"#utility.yul\":2774:2780   */\n      dup2\n        /* \"#utility.yul\":2768:2781   */\n      mload\n        /* \"#utility.yul\":2759:2781   */\n      swap1\n      pop\n        /* \"#utility.yul\":2790:2837   */\n      tag_483\n        /* \"#utility.yul\":2831:2836   */\n      dup2\n        /* \"#utility.yul\":2790:2837   */\n      tag_484\n      jump\t// in\n    tag_483:\n        /* \"#utility.yul\":2672:2843   */\n      swap3\n      swap2\n      pop\n      pop\n      jump\t// out\n        /* \"#utility.yul\":2849:3018   */\n    tag_485:\n        /* \"#utility.yul\":2910:2915   */\n      0x00\n        /* \"#utility.yul\":2948:2954   */\n      dup2\n        /* \"#utility.yul\":2935:2955   */\n      calldataload\n        /* \"#utility.yul\":2926:2955   */\n      swap1\n      pop\n        /* \"#utility.yul\":2964:3012   */\n      tag_487\n        /* \"#utility.yul\":3006:3011   */\n      dup2\n        /* \"#utility.yul\":2964:3012   */\n      tag_488\n      jump\t// in\n    tag_487:\n        /* \"#utility.yul\":2849:3018   */\n      swap3\n      swap2\n      pop\n      pop\n      jump\t// out\n        /* \"#utility.yul\":3024:3197   */\n    tag_489:\n        /* \"#utility.yul\":3096:3101   */\n      0x00\n        /* \"#utility.yul\":3127:3133   */\n      dup2\n        /* \"#utility.yul\":3121:3134   */\n      mload\n        /* \"#utility.yul\":3112:3134   */\n      swap1\n      pop\n        /* \"#utility.yul\":3143:3191   */\n      tag_491\n        /* \"#utility.yul\":3185:3190   */\n      dup2\n        /* \"#utility.yul\":3143:3191   */\n      tag_488\n      jump\t// in\n    tag_491:\n        /* \"#utility.yul\":3024:3197   */\n      swap3\n      swap2\n      pop\n      pop\n      jump\t// out\n        /* \"#utility.yul\":3203:3384   */\n    tag_492:\n        /* \"#utility.yul\":3279:3284   */\n      0x00\n        /* \"#utility.yul\":3310:3316   */\n      dup2\n        /* \"#utility.yul\":3304:3317   */\n      mload\n        /* \"#utility.yul\":3295:3317   */\n      swap1\n      pop\n        /* \"#utility.yul\":3326:3378   */\n      tag_494\n        /* \"#utility.yul\":3372:3377   */\n      dup2\n        /* \"#utility.yul\":3326:3378   */\n      tag_495\n      jump\t// in\n    tag_494:\n        /* \"#utility.yul\":3203:3384   */\n      swap3\n      swap2\n      pop\n      pop\n      jump\t// out\n        /* \"#utility.yul\":3390:3549   */\n    tag_450:\n        /* \"#utility.yul\":3446:3451   */\n      0x00\n        /* \"#utility.yul\":3484:3490   */\n      dup2\n        /* \"#utility.yul\":3471:3491   */\n      calldataload\n        /* \"#utility.yul\":3462:3491   */\n      swap1\n      pop\n        /* \"#utility.yul\":3500:3543   */\n      tag_497\n        /* \"#utility.yul\":3537:3542   */\n      dup2\n        /* \"#utility.yul\":3500:3543   */\n      tag_498\n      jump\t// in\n    tag_497:\n        /* \"#utility.yul\":3390:3549   */\n      swap3\n      swap2\n      pop\n      pop\n      jump\t// out\n        /* \"#utility.yul\":3555:3738   */\n    tag_499:\n        /* \"#utility.yul\":3623:3628   */\n      0x00\n        /* \"#utility.yul\":3661:3667   */\n      dup2\n        /* \"#utility.yul\":3648:3668   */\n      calldataload\n        /* \"#utility.yul\":3639:3668   */\n      swap1\n      pop\n        /* \"#utility.yul\":3677:3732   */\n      tag_501\n        /* \"#utility.yul\":3726:3731   */\n      dup2\n        /* \"#utility.yul\":3677:3732   */\n      tag_502\n      jump\t// in\n    tag_501:\n        /* \"#utility.yul\":3555:3738   */\n      swap3\n      swap2\n      pop\n      pop\n      jump\t// out\n        /* \"#utility.yul\":3744:3925   */\n    tag_503:\n        /* \"#utility.yul\":3811:3816   */\n      0x00\n        /* \"#utility.yul\":3849:3855   */\n      dup2\n        /* \"#utility.yul\":3836:3856   */\n      calldataload\n        /* \"#utility.yul\":3827:3856   */\n      swap1\n      pop\n        /* \"#utility.yul\":3865:3919   */\n      tag_505\n        /* \"#utility.yul\":3913:3918   */\n      dup2\n        /* \"#utility.yul\":3865:3919   */\n      tag_506\n      jump\t// in\n    tag_505:\n        /* \"#utility.yul\":3744:3925   */\n      swap3\n      swap2\n      pop\n      pop\n      jump\t// out\n        /* \"#utility.yul\":3931:4102   */\n    tag_507:\n        /* \"#utility.yul\":3993:3998   */\n      0x00\n        /* \"#utility.yul\":4031:4037   */\n      dup2\n        /* \"#utility.yul\":4018:4038   */\n      calldataload\n        /* \"#utility.yul\":4009:4038   */\n      swap1\n      pop\n        /* \"#utility.yul\":4047:4096   */\n      tag_509\n        /* \"#utility.yul\":4090:4095   */\n      dup2\n        /* \"#utility.yul\":4047:4096   */\n      tag_510\n      jump\t// in\n    tag_509:\n        /* \"#utility.yul\":3931:4102   */\n      swap3\n      swap2\n      pop\n      pop\n      jump\t// out\n        /* \"#utility.yul\":4108:4275   */\n    tag_511:\n        /* \"#utility.yul\":4168:4173   */\n      0x00\n        /* \"#utility.yul\":4206:4212   */\n      dup2\n        /* \"#utility.yul\":4193:4213   */\n      calldataload\n        /* \"#utility.yul\":4184:4213   */\n      swap1\n      pop\n        /* \"#utility.yul\":4222:4269   */\n      tag_513\n        /* \"#utility.yul\":4263:4268   */\n      dup2\n        /* \"#utility.yul\":4222:4269   */\n      tag_514\n      jump\t// in\n    tag_513:\n        /* \"#utility.yul\":4108:4275   */\n      swap3\n      swap2\n      pop\n      pop\n      jump\t// out\n        /* \"#utility.yul\":4304:5695   */\n    tag_515:\n        /* \"#utility.yul\":4389:4394   */\n      0x00\n        /* \"#utility.yul\":4433:4437   */\n      0xc0\n        /* \"#utility.yul\":4421:4430   */\n      dup3\n        /* \"#utility.yul\":4416:4419   */\n      dup5\n        /* \"#utility.yul\":4412:4431   */\n      sub\n        /* \"#utility.yul\":4408:4438   */\n      slt\n        /* \"#utility.yul\":4405:4522   */\n      iszero\n      tag_517\n      jumpi\n        /* \"#utility.yul\":4441:4520   */\n      tag_518\n      tag_519\n      jump\t// in\n    tag_518:\n        /* \"#utility.yul\":4405:4522   */\n    tag_517:\n        /* \"#utility.yul\":4540:4561   */\n      tag_520\n        /* \"#utility.yul\":4556:4560   */\n      0xc0\n        /* \"#utility.yul\":4540:4561   */\n      tag_442\n      jump\t// in\n    tag_520:\n        /* \"#utility.yul\":4531:4561   */\n      swap1\n      pop\n        /* \"#utility.yul\":4623:4624   */\n      0x00\n        /* \"#utility.yul\":4663:4737   */\n      tag_521\n        /* \"#utility.yul\":4733:4736   */\n      dup5\n        /* \"#utility.yul\":4724:4730   */\n      dup3\n        /* \"#utility.yul\":4713:4722   */\n      dup6\n        /* \"#utility.yul\":4709:4731   */\n      add\n        /* \"#utility.yul\":4663:4737   */\n      tag_481\n      jump\t// in\n    tag_521:\n        /* \"#utility.yul\":4656:4660   */\n      0x00\n        /* \"#utility.yul\":4649:4654   */\n      dup4\n        /* \"#utility.yul\":4645:4661   */\n      add\n        /* \"#utility.yul\":4638:4738   */\n      mstore\n        /* \"#utility.yul\":4571:4749   */\n      pop\n        /* \"#utility.yul\":4814:4816   */\n      0x20\n        /* \"#utility.yul\":4855:4915   */\n      tag_522\n        /* \"#utility.yul\":4911:4914   */\n      dup5\n        /* \"#utility.yul\":4902:4908   */\n      dup3\n        /* \"#utility.yul\":4891:4900   */\n      dup6\n        /* \"#utility.yul\":4887:4909   */\n      add\n        /* \"#utility.yul\":4855:4915   */\n      tag_462\n      jump\t// in\n    tag_522:\n        /* \"#utility.yul\":4848:4852   */\n      0x20\n        /* \"#utility.yul\":4841:4846   */\n      dup4\n        /* \"#utility.yul\":4837:4853   */\n      add\n        /* \"#utility.yul\":4830:4916   */\n      mstore\n        /* \"#utility.yul\":4759:4927   */\n      pop\n        /* \"#utility.yul\":4997:4999   */\n      0x40\n        /* \"#utility.yul\":5038:5098   */\n      tag_523\n        /* \"#utility.yul\":5094:5097   */\n      dup5\n        /* \"#utility.yul\":5085:5091   */\n      dup3\n        /* \"#utility.yul\":5074:5083   */\n      dup6\n        /* \"#utility.yul\":5070:5092   */\n      add\n        /* \"#utility.yul\":5038:5098   */\n      tag_462\n      jump\t// in\n    tag_523:\n        /* \"#utility.yul\":5031:5035   */\n      0x40\n        /* \"#utility.yul\":5024:5029   */\n      dup4\n        /* \"#utility.yul\":5020:5036   */\n      add\n        /* \"#utility.yul\":5013:5099   */\n      mstore\n        /* \"#utility.yul\":4937:5110   */\n      pop\n        /* \"#utility.yul\":5179:5181   */\n      0x60\n        /* \"#utility.yul\":5220:5280   */\n      tag_524\n        /* \"#utility.yul\":5276:5279   */\n      dup5\n        /* \"#utility.yul\":5267:5273   */\n      dup3\n        /* \"#utility.yul\":5256:5265   */\n      dup6\n        /* \"#utility.yul\":5252:5274   */\n      add\n        /* \"#utility.yul\":5220:5280   */\n      tag_462\n      jump\t// in\n    tag_524:\n        /* \"#utility.yul\":5213:5217   */\n      0x60\n        /* \"#utility.yul\":5206:5211   */\n      dup4\n        /* \"#utility.yul\":5202:5218   */\n      add\n        /* \"#utility.yul\":5195:5281   */\n      mstore\n        /* \"#utility.yul\":5120:5292   */\n      pop\n        /* \"#utility.yul\":5361:5364   */\n      0x80\n        /* \"#utility.yul\":5403:5482   */\n      tag_525\n        /* \"#utility.yul\":5478:5481   */\n      dup5\n        /* \"#utility.yul\":5469:5475   */\n      dup3\n        /* \"#utility.yul\":5458:5467   */\n      dup6\n        /* \"#utility.yul\":5454:5476   */\n      add\n        /* \"#utility.yul\":5403:5482   */\n      tag_492\n      jump\t// in\n    tag_525:\n        /* \"#utility.yul\":5396:5400   */\n      0x80\n        /* \"#utility.yul\":5389:5394   */\n      dup4\n        /* \"#utility.yul\":5385:5401   */\n      add\n        /* \"#utility.yul\":5378:5483   */\n      mstore\n        /* \"#utility.yul\":5302:5494   */\n      pop\n        /* \"#utility.yul\":5560:5563   */\n      0xa0\n        /* \"#utility.yul\":5602:5676   */\n      tag_526\n        /* \"#utility.yul\":5672:5675   */\n      dup5\n        /* \"#utility.yul\":5663:5669   */\n      dup3\n        /* \"#utility.yul\":5652:5661   */\n      dup6\n        /* \"#utility.yul\":5648:5670   */\n      add\n        /* \"#utility.yul\":5602:5676   */\n      tag_481\n      jump\t// in\n    tag_526:\n        /* \"#utility.yul\":5595:5599   */\n      0xa0\n        /* \"#utility.yul\":5588:5593   */\n      dup4\n        /* \"#utility.yul\":5584:5600   */\n      add\n        /* \"#utility.yul\":5577:5677   */\n      mstore\n        /* \"#utility.yul\":5504:5688   */\n      pop\n        /* \"#utility.yul\":4304:5695   */\n      swap3\n      swap2\n      pop\n      pop\n      jump\t// out\n        /* \"#utility.yul\":5727:6727   */\n    tag_527:\n        /* \"#utility.yul\":5815:5820   */\n      0x00\n        /* \"#utility.yul\":5859:5863   */\n      0x80\n        /* \"#utility.yul\":5847:5856   */\n      dup3\n        /* \"#utility.yul\":5842:5845   */\n      dup5\n        /* \"#utility.yul\":5838:5857   */\n      sub\n        /* \"#utility.yul\":5834:5864   */\n      slt\n        /* \"#utility.yul\":5831:5948   */\n      iszero\n      tag_529\n      jumpi\n        /* \"#utility.yul\":5867:5946   */\n      tag_530\n      tag_519\n      jump\t// in\n    tag_530:\n        /* \"#utility.yul\":5831:5948   */\n    tag_529:\n        /* \"#utility.yul\":5966:5987   */\n      tag_531\n        /* \"#utility.yul\":5982:5986   */\n      0x80\n        /* \"#utility.yul\":5966:5987   */\n      tag_442\n      jump\t// in\n    tag_531:\n        /* \"#utility.yul\":5957:5987   */\n      swap1\n      pop\n        /* \"#utility.yul\":6049:6050   */\n      0x00\n        /* \"#utility.yul\":6089:6163   */\n      tag_532\n        /* \"#utility.yul\":6159:6162   */\n      dup5\n        /* \"#utility.yul\":6150:6156   */\n      dup3\n        /* \"#utility.yul\":6139:6148   */\n      dup6\n        /* \"#utility.yul\":6135:6157   */\n      add\n        /* \"#utility.yul\":6089:6163   */\n      tag_481\n      jump\t// in\n    tag_532:\n        /* \"#utility.yul\":6082:6086   */\n      0x00\n        /* \"#utility.yul\":6075:6080   */\n      dup4\n        /* \"#utility.yul\":6071:6087   */\n      add\n        /* \"#utility.yul\":6064:6164   */\n      mstore\n        /* \"#utility.yul\":5997:6175   */\n      pop\n        /* \"#utility.yul\":6240:6242   */\n      0x20\n        /* \"#utility.yul\":6281:6341   */\n      tag_533\n        /* \"#utility.yul\":6337:6340   */\n      dup5\n        /* \"#utility.yul\":6328:6334   */\n      dup3\n        /* \"#utility.yul\":6317:6326   */\n      dup6\n        /* \"#utility.yul\":6313:6335   */\n      add\n        /* \"#utility.yul\":6281:6341   */\n      tag_462\n      jump\t// in\n    tag_533:\n        /* \"#utility.yul\":6274:6278   */\n      0x20\n        /* \"#utility.yul\":6267:6272   */\n      dup4\n        /* \"#utility.yul\":6263:6279   */\n      add\n        /* \"#utility.yul\":6256:6342   */\n      mstore\n        /* \"#utility.yul\":6185:6353   */\n      pop\n        /* \"#utility.yul\":6423:6425   */\n      0x40\n        /* \"#utility.yul\":6464:6524   */\n      tag_534\n        /* \"#utility.yul\":6520:6523   */\n      dup5\n        /* \"#utility.yul\":6511:6517   */\n      dup3\n        /* \"#utility.yul\":6500:6509   */\n      dup6\n        /* \"#utility.yul\":6496:6518   */\n      add\n        /* \"#utility.yul\":6464:6524   */\n      tag_462\n      jump\t// in\n    tag_534:\n        /* \"#utility.yul\":6457:6461   */\n      0x40\n        /* \"#utility.yul\":6450:6455   */\n      dup4\n        /* \"#utility.yul\":6446:6462   */\n      add\n        /* \"#utility.yul\":6439:6525   */\n      mstore\n        /* \"#utility.yul\":6363:6536   */\n      pop\n        /* \"#utility.yul\":6607:6609   */\n      0x60\n        /* \"#utility.yul\":6648:6708   */\n      tag_535\n        /* \"#utility.yul\":6704:6707   */\n      dup5\n        /* \"#utility.yul\":6695:6701   */\n      dup3\n        /* \"#utility.yul\":6684:6693   */\n      dup6\n        /* \"#utility.yul\":6680:6702   */\n      add\n        /* \"#utility.yul\":6648:6708   */\n      tag_462\n      jump\t// in\n    tag_535:\n        /* \"#utility.yul\":6641:6645   */\n      0x60\n        /* \"#utility.yul\":6634:6639   */\n      dup4\n        /* \"#utility.yul\":6630:6646   */\n      add\n        /* \"#utility.yul\":6623:6709   */\n      mstore\n        /* \"#utility.yul\":6546:6720   */\n      pop\n        /* \"#utility.yul\":5727:6727   */\n      swap3\n      swap2\n      pop\n      pop\n      jump\t// out\n        /* \"#utility.yul\":6764:7769   */\n    tag_536:\n        /* \"#utility.yul\":6857:6862   */\n      0x00\n        /* \"#utility.yul\":6901:6905   */\n      0x80\n        /* \"#utility.yul\":6889:6898   */\n      dup3\n        /* \"#utility.yul\":6884:6887   */\n      dup5\n        /* \"#utility.yul\":6880:6899   */\n      sub\n        /* \"#utility.yul\":6876:6906   */\n      slt\n        /* \"#utility.yul\":6873:6990   */\n      iszero\n      tag_538\n      jumpi\n        /* \"#utility.yul\":6909:6988   */\n      tag_539\n      tag_519\n      jump\t// in\n    tag_539:\n        /* \"#utility.yul\":6873:6990   */\n    tag_538:\n        /* \"#utility.yul\":7008:7029   */\n      tag_540\n        /* \"#utility.yul\":7024:7028   */\n      0x80\n        /* \"#utility.yul\":7008:7029   */\n      tag_442\n      jump\t// in\n    tag_540:\n        /* \"#utility.yul\":6999:7029   */\n      swap1\n      pop\n        /* \"#utility.yul\":7092:7093   */\n      0x00\n        /* \"#utility.yul\":7132:7207   */\n      tag_541\n        /* \"#utility.yul\":7203:7206   */\n      dup5\n        /* \"#utility.yul\":7194:7200   */\n      dup3\n        /* \"#utility.yul\":7183:7192   */\n      dup6\n        /* \"#utility.yul\":7179:7201   */\n      add\n        /* \"#utility.yul\":7132:7207   */\n      tag_489\n      jump\t// in\n    tag_541:\n        /* \"#utility.yul\":7125:7129   */\n      0x00\n        /* \"#utility.yul\":7118:7123   */\n      dup4\n        /* \"#utility.yul\":7114:7130   */\n      add\n        /* \"#utility.yul\":7107:7208   */\n      mstore\n        /* \"#utility.yul\":7039:7219   */\n      pop\n        /* \"#utility.yul\":7284:7286   */\n      0x20\n        /* \"#utility.yul\":7325:7385   */\n      tag_542\n        /* \"#utility.yul\":7381:7384   */\n      dup5\n        /* \"#utility.yul\":7372:7378   */\n      dup3\n        /* \"#utility.yul\":7361:7370   */\n      dup6\n        /* \"#utility.yul\":7357:7379   */\n      add\n        /* \"#utility.yul\":7325:7385   */\n      tag_462\n      jump\t// in\n    tag_542:\n        /* \"#utility.yul\":7318:7322   */\n      0x20\n        /* \"#utility.yul\":7311:7316   */\n      dup4\n        /* \"#utility.yul\":7307:7323   */\n      add\n        /* \"#utility.yul\":7300:7386   */\n      mstore\n        /* \"#utility.yul\":7229:7397   */\n      pop\n        /* \"#utility.yul\":7467:7469   */\n      0x40\n        /* \"#utility.yul\":7508:7568   */\n      tag_543\n        /* \"#utility.yul\":7564:7567   */\n      dup5\n        /* \"#utility.yul\":7555:7561   */\n      dup3\n        /* \"#utility.yul\":7544:7553   */\n      dup6\n        /* \"#utility.yul\":7540:7562   */\n      add\n        /* \"#utility.yul\":7508:7568   */\n      tag_462\n      jump\t// in\n    tag_543:\n        /* \"#utility.yul\":7501:7505   */\n      0x40\n        /* \"#utility.yul\":7494:7499   */\n      dup4\n        /* \"#utility.yul\":7490:7506   */\n      add\n        /* \"#utility.yul\":7483:7569   */\n      mstore\n        /* \"#utility.yul\":7407:7580   */\n      pop\n        /* \"#utility.yul\":7649:7651   */\n      0x60\n        /* \"#utility.yul\":7690:7750   */\n      tag_544\n        /* \"#utility.yul\":7746:7749   */\n      dup5\n        /* \"#utility.yul\":7737:7743   */\n      dup3\n        /* \"#utility.yul\":7726:7735   */\n      dup6\n        /* \"#utility.yul\":7722:7744   */\n      add\n        /* \"#utility.yul\":7690:7750   */\n      tag_462\n      jump\t// in\n    tag_544:\n        /* \"#utility.yul\":7683:7687   */\n      0x60\n        /* \"#utility.yul\":7676:7681   */\n      dup4\n        /* \"#utility.yul\":7672:7688   */\n      add\n        /* \"#utility.yul\":7665:7751   */\n      mstore\n        /* \"#utility.yul\":7590:7762   */\n      pop\n        /* \"#utility.yul\":6764:7769   */\n      swap3\n      swap2\n      pop\n      pop\n      jump\t// out\n        /* \"#utility.yul\":7775:7914   */\n    tag_545:\n        /* \"#utility.yul\":7821:7826   */\n      0x00\n        /* \"#utility.yul\":7859:7865   */\n      dup2\n        /* \"#utility.yul\":7846:7866   */\n      calldataload\n        /* \"#utility.yul\":7837:7866   */\n      swap1\n      pop\n        /* \"#utility.yul\":7875:7908   */\n      tag_547\n        /* \"#utility.yul\":7902:7907   */\n      dup2\n        /* \"#utility.yul\":7875:7908   */\n      tag_548\n      jump\t// in\n    tag_547:\n        /* \"#utility.yul\":7775:7914   */\n      swap3\n      swap2\n      pop\n      pop\n      jump\t// out\n        /* \"#utility.yul\":7920:8063   */\n    tag_462:\n        /* \"#utility.yul\":7977:7982   */\n      0x00\n        /* \"#utility.yul\":8008:8014   */\n      dup2\n        /* \"#utility.yul\":8002:8015   */\n      mload\n        /* \"#utility.yul\":7993:8015   */\n      swap1\n      pop\n        /* \"#utility.yul\":8024:8057   */\n      tag_550\n        /* \"#utility.yul\":8051:8056   */\n      dup2\n        /* \"#utility.yul\":8024:8057   */\n      tag_548\n      jump\t// in\n    tag_550:\n        /* \"#utility.yul\":7920:8063   */\n      swap3\n      swap2\n      pop\n      pop\n      jump\t// out\n        /* \"#utility.yul\":8069:8398   */\n    tag_42:\n        /* \"#utility.yul\":8128:8134   */\n      0x00\n        /* \"#utility.yul\":8177:8179   */\n      0x20\n        /* \"#utility.yul\":8165:8174   */\n      dup3\n        /* \"#utility.yul\":8156:8163   */\n      dup5\n        /* \"#utility.yul\":8152:8175   */\n      sub\n        /* \"#utility.yul\":8148:8180   */\n      slt\n        /* \"#utility.yul\":8145:8264   */\n      iszero\n      tag_552\n      jumpi\n        /* \"#utility.yul\":8183:8262   */\n      tag_553\n      tag_554\n      jump\t// in\n    tag_553:\n        /* \"#utility.yul\":8145:8264   */\n    tag_552:\n        /* \"#utility.yul\":8303:8304   */\n      0x00\n        /* \"#utility.yul\":8328:8381   */\n      tag_555\n        /* \"#utility.yul\":8373:8380   */\n      dup5\n        /* \"#utility.yul\":8364:8370   */\n      dup3\n        /* \"#utility.yul\":8353:8362   */\n      dup6\n        /* \"#utility.yul\":8349:8371   */\n      add\n        /* \"#utility.yul\":8328:8381   */\n      tag_463\n      jump\t// in\n    tag_555:\n        /* \"#utility.yul\":8318:8381   */\n      swap2\n      pop\n        /* \"#utility.yul\":8274:8391   */\n      pop\n        /* \"#utility.yul\":8069:8398   */\n      swap3\n      swap2\n      pop\n      pop\n      jump\t// out\n        /* \"#utility.yul\":8404:8755   */\n    tag_158:\n        /* \"#utility.yul\":8474:8480   */\n      0x00\n        /* \"#utility.yul\":8523:8525   */\n      0x20\n        /* \"#utility.yul\":8511:8520   */\n      dup3\n        /* \"#utility.yul\":8502:8509   */\n      dup5\n        /* \"#utility.yul\":8498:8521   */\n      sub\n        /* \"#utility.yul\":8494:8526   */\n      slt\n        /* \"#utility.yul\":8491:8610   */\n      iszero\n      tag_557\n      jumpi\n        /* \"#utility.yul\":8529:8608   */\n      tag_558\n      tag_554\n      jump\t// in\n    tag_558:\n        /* \"#utility.yul\":8491:8610   */\n    tag_557:\n        /* \"#utility.yul\":8649:8650   */\n      0x00\n        /* \"#utility.yul\":8674:8738   */\n      tag_559\n        /* \"#utility.yul\":8730:8737   */\n      dup5\n        /* \"#utility.yul\":8721:8727   */\n      dup3\n        /* \"#utility.yul\":8710:8719   */\n      dup6\n        /* \"#utility.yul\":8706:8728   */\n      add\n        /* \"#utility.yul\":8674:8738   */\n      tag_467\n      jump\t// in\n    tag_559:\n        /* \"#utility.yul\":8664:8738   */\n      swap2\n      pop\n        /* \"#utility.yul\":8620:8748   */\n      pop\n        /* \"#utility.yul\":8404:8755   */\n      swap3\n      swap2\n      pop\n      pop\n      jump\t// out\n        /* \"#utility.yul\":8761:9315   */\n    tag_194:\n        /* \"#utility.yul\":8856:8862   */\n      0x00\n        /* \"#utility.yul\":8905:8907   */\n      0x20\n        /* \"#utility.yul\":8893:8902   */\n      dup3\n        /* \"#utility.yul\":8884:8891   */\n      dup5\n        /* \"#utility.yul\":8880:8903   */\n      sub\n        /* \"#utility.yul\":8876:8908   */\n      slt\n        /* \"#utility.yul\":8873:8992   */\n      iszero\n      tag_561\n      jumpi\n        /* \"#utility.yul\":8911:8990   */\n      tag_562\n      tag_554\n      jump\t// in\n    tag_562:\n        /* \"#utility.yul\":8873:8992   */\n    tag_561:\n        /* \"#utility.yul\":9052:9053   */\n      0x00\n        /* \"#utility.yul\":9041:9050   */\n      dup3\n        /* \"#utility.yul\":9037:9054   */\n      add\n        /* \"#utility.yul\":9031:9055   */\n      mload\n        /* \"#utility.yul\":9082:9100   */\n      0xffffffffffffffff\n        /* \"#utility.yul\":9074:9080   */\n      dup2\n        /* \"#utility.yul\":9071:9101   */\n      gt\n        /* \"#utility.yul\":9068:9185   */\n      iszero\n      tag_563\n      jumpi\n        /* \"#utility.yul\":9104:9183   */\n      tag_564\n      tag_565\n      jump\t// in\n    tag_564:\n        /* \"#utility.yul\":9068:9185   */\n    tag_563:\n        /* \"#utility.yul\":9209:9298   */\n      tag_566\n        /* \"#utility.yul\":9290:9297   */\n      dup5\n        /* \"#utility.yul\":9281:9287   */\n      dup3\n        /* \"#utility.yul\":9270:9279   */\n      dup6\n        /* \"#utility.yul\":9266:9288   */\n      add\n        /* \"#utility.yul\":9209:9298   */\n      tag_476\n      jump\t// in\n    tag_566:\n        /* \"#utility.yul\":9199:9298   */\n      swap2\n      pop\n        /* \"#utility.yul\":9002:9308   */\n      pop\n        /* \"#utility.yul\":8761:9315   */\n      swap3\n      swap2\n      pop\n      pop\n      jump\t// out\n        /* \"#utility.yul\":9321:9700   */\n    tag_202:\n        /* \"#utility.yul\":9405:9411   */\n      0x00\n        /* \"#utility.yul\":9454:9456   */\n      0x20\n        /* \"#utility.yul\":9442:9451   */\n      dup3\n        /* \"#utility.yul\":9433:9440   */\n      dup5\n        /* \"#utility.yul\":9429:9452   */\n      sub\n        /* \"#utility.yul\":9425:9457   */\n      slt\n        /* \"#utility.yul\":9422:9541   */\n      iszero\n      tag_568\n      jumpi\n        /* \"#utility.yul\":9460:9539   */\n      tag_569\n      tag_554\n      jump\t// in\n    tag_569:\n        /* \"#utility.yul\":9422:9541   */\n    tag_568:\n        /* \"#utility.yul\":9580:9581   */\n      0x00\n        /* \"#utility.yul\":9605:9683   */\n      tag_570\n        /* \"#utility.yul\":9675:9682   */\n      dup5\n        /* \"#utility.yul\":9666:9672   */\n      dup3\n        /* \"#utility.yul\":9655:9664   */\n      dup6\n        /* \"#utility.yul\":9651:9673   */\n      add\n        /* \"#utility.yul\":9605:9683   */\n      tag_481\n      jump\t// in\n    tag_570:\n        /* \"#utility.yul\":9595:9683   */\n      swap2\n      pop\n        /* \"#utility.yul\":9551:9693   */\n      pop\n        /* \"#utility.yul\":9321:9700   */\n      swap3\n      swap2\n      pop\n      pop\n      jump\t// out\n        /* \"#utility.yul\":9706:10055   */\n    tag_47:\n        /* \"#utility.yul\":9775:9781   */\n      0x00\n        /* \"#utility.yul\":9824:9826   */\n      0x20\n        /* \"#utility.yul\":9812:9821   */\n      dup3\n        /* \"#utility.yul\":9803:9810   */\n      dup5\n        /* \"#utility.yul\":9799:9822   */\n      sub\n        /* \"#utility.yul\":9795:9827   */\n      slt\n        /* \"#utility.yul\":9792:9911   */\n      iszero\n      tag_572\n      jumpi\n        /* \"#utility.yul\":9830:9909   */\n      tag_573\n      tag_554\n      jump\t// in\n    tag_573:\n        /* \"#utility.yul\":9792:9911   */\n    tag_572:\n        /* \"#utility.yul\":9950:9951   */\n      0x00\n        /* \"#utility.yul\":9975:10038   */\n      tag_574\n        /* \"#utility.yul\":10030:10037   */\n      dup5\n        /* \"#utility.yul\":10021:10027   */\n      dup3\n        /* \"#utility.yul\":10010:10019   */\n      dup6\n        /* \"#utility.yul\":10006:10028   */\n      add\n        /* \"#utility.yul\":9975:10038   */\n      tag_450\n      jump\t// in\n    tag_574:\n        /* \"#utility.yul\":9965:10038   */\n      swap2\n      pop\n        /* \"#utility.yul\":9921:10048   */\n      pop\n        /* \"#utility.yul\":9706:10055   */\n      swap3\n      swap2\n      pop\n      pop\n      jump\t// out\n        /* \"#utility.yul\":10061:10744   */\n    tag_26:\n        /* \"#utility.yul\":10170:10176   */\n      0x00\n        /* \"#utility.yul\":10178:10184   */\n      dup1\n        /* \"#utility.yul\":10186:10192   */\n      0x00\n        /* \"#utility.yul\":10235:10237   */\n      0x60\n        /* \"#utility.yul\":10223:10232   */\n      dup5\n        /* \"#utility.yul\":10214:10221   */\n      dup7\n        /* \"#utility.yul\":10210:10233   */\n      sub\n        /* \"#utility.yul\":10206:10238   */\n      slt\n        /* \"#utility.yul\":10203:10322   */\n      iszero\n      tag_576\n      jumpi\n        /* \"#utility.yul\":10241:10320   */\n      tag_577\n      tag_554\n      jump\t// in\n    tag_577:\n        /* \"#utility.yul\":10203:10322   */\n    tag_576:\n        /* \"#utility.yul\":10361:10362   */\n      0x00\n        /* \"#utility.yul\":10386:10449   */\n      tag_578\n        /* \"#utility.yul\":10441:10448   */\n      dup7\n        /* \"#utility.yul\":10432:10438   */\n      dup3\n        /* \"#utility.yul\":10421:10430   */\n      dup8\n        /* \"#utility.yul\":10417:10439   */\n      add\n        /* \"#utility.yul\":10386:10449   */\n      tag_450\n      jump\t// in\n    tag_578:\n        /* \"#utility.yul\":10376:10449   */\n      swap4\n      pop\n        /* \"#utility.yul\":10332:10459   */\n      pop\n        /* \"#utility.yul\":10498:10500   */\n      0x20\n        /* \"#utility.yul\":10524:10577   */\n      tag_579\n        /* \"#utility.yul\":10569:10576   */\n      dup7\n        /* \"#utility.yul\":10560:10566   */\n      dup3\n        /* \"#utility.yul\":10549:10558   */\n      dup8\n        /* \"#utility.yul\":10545:10567   */\n      add\n        /* \"#utility.yul\":10524:10577   */\n      tag_545\n      jump\t// in\n    tag_579:\n        /* \"#utility.yul\":10514:10577   */\n      swap3\n      pop\n        /* \"#utility.yul\":10469:10587   */\n      pop\n        /* \"#utility.yul\":10626:10628   */\n      0x40\n        /* \"#utility.yul\":10652:10727   */\n      tag_580\n        /* \"#utility.yul\":10719:10726   */\n      dup7\n        /* \"#utility.yul\":10710:10716   */\n      dup3\n        /* \"#utility.yul\":10699:10708   */\n      dup8\n        /* \"#utility.yul\":10695:10717   */\n      add\n        /* \"#utility.yul\":10652:10727   */\n      tag_499\n      jump\t// in\n    tag_580:\n        /* \"#utility.yul\":10642:10727   */\n      swap2\n      pop\n        /* \"#utility.yul\":10597:10737   */\n      pop\n        /* \"#utility.yul\":10061:10744   */\n      swap3\n      pop\n      swap3\n      pop\n      swap3\n      jump\t// out\n        /* \"#utility.yul\":10750:11498   */\n    tag_32:\n        /* \"#utility.yul\":10875:10881   */\n      0x00\n        /* \"#utility.yul\":10883:10889   */\n      dup1\n        /* \"#utility.yul\":10932:10934   */\n      0x40\n        /* \"#utility.yul\":10920:10929   */\n      dup4\n        /* \"#utility.yul\":10911:10918   */\n      dup6\n        /* \"#utility.yul\":10907:10930   */\n      sub\n        /* \"#utility.yul\":10903:10935   */\n      slt\n        /* \"#utility.yul\":10900:11019   */\n      iszero\n      tag_582\n      jumpi\n        /* \"#utility.yul\":10938:11017   */\n      tag_583\n      tag_554\n      jump\t// in\n    tag_583:\n        /* \"#utility.yul\":10900:11019   */\n    tag_582:\n        /* \"#utility.yul\":11058:11059   */\n      0x00\n        /* \"#utility.yul\":11083:11158   */\n      tag_584\n        /* \"#utility.yul\":11150:11157   */\n      dup6\n        /* \"#utility.yul\":11141:11147   */\n      dup3\n        /* \"#utility.yul\":11130:11139   */\n      dup7\n        /* \"#utility.yul\":11126:11148   */\n      add\n        /* \"#utility.yul\":11083:11158   */\n      tag_499\n      jump\t// in\n    tag_584:\n        /* \"#utility.yul\":11073:11158   */\n      swap3\n      pop\n        /* \"#utility.yul\":11029:11168   */\n      pop\n        /* \"#utility.yul\":11235:11237   */\n      0x20\n        /* \"#utility.yul\":11224:11233   */\n      dup4\n        /* \"#utility.yul\":11220:11238   */\n      add\n        /* \"#utility.yul\":11207:11239   */\n      calldataload\n        /* \"#utility.yul\":11266:11284   */\n      0xffffffffffffffff\n        /* \"#utility.yul\":11258:11264   */\n      dup2\n        /* \"#utility.yul\":11255:11285   */\n      gt\n        /* \"#utility.yul\":11252:11369   */\n      iszero\n      tag_585\n      jumpi\n        /* \"#utility.yul\":11288:11367   */\n      tag_586\n      tag_565\n      jump\t// in\n    tag_586:\n        /* \"#utility.yul\":11252:11369   */\n    tag_585:\n        /* \"#utility.yul\":11393:11481   */\n      tag_587\n        /* \"#utility.yul\":11473:11480   */\n      dup6\n        /* \"#utility.yul\":11464:11470   */\n      dup3\n        /* \"#utility.yul\":11453:11462   */\n      dup7\n        /* \"#utility.yul\":11449:11471   */\n      add\n        /* \"#utility.yul\":11393:11481   */\n      tag_470\n      jump\t// in\n    tag_587:\n        /* \"#utility.yul\":11383:11481   */\n      swap2\n      pop\n        /* \"#utility.yul\":11178:11491   */\n      pop\n        /* \"#utility.yul\":10750:11498   */\n      swap3\n      pop\n      swap3\n      swap1\n      pop\n      jump\t// out\n        /* \"#utility.yul\":11504:11861   */\n    tag_80:\n        /* \"#utility.yul\":11577:11583   */\n      0x00\n        /* \"#utility.yul\":11626:11628   */\n      0x20\n        /* \"#utility.yul\":11614:11623   */\n      dup3\n        /* \"#utility.yul\":11605:11612   */\n      dup5\n        /* \"#utility.yul\":11601:11624   */\n      sub\n        /* \"#utility.yul\":11597:11629   */\n      slt\n        /* \"#utility.yul\":11594:11713   */\n      iszero\n      tag_589\n      jumpi\n        /* \"#utility.yul\":11632:11711   */\n      tag_590\n      tag_554\n      jump\t// in\n    tag_590:\n        /* \"#utility.yul\":11594:11713   */\n    tag_589:\n        /* \"#utility.yul\":11752:11753   */\n      0x00\n        /* \"#utility.yul\":11777:11844   */\n      tag_591\n        /* \"#utility.yul\":11836:11843   */\n      dup5\n        /* \"#utility.yul\":11827:11833   */\n      dup3\n        /* \"#utility.yul\":11816:11825   */\n      dup6\n        /* \"#utility.yul\":11812:11834   */\n      add\n        /* \"#utility.yul\":11777:11844   */\n      tag_511\n      jump\t// in\n    tag_591:\n        /* \"#utility.yul\":11767:11844   */\n      swap2\n      pop\n        /* \"#utility.yul\":11723:11854   */\n      pop\n        /* \"#utility.yul\":11504:11861   */\n      swap3\n      swap2\n      pop\n      pop\n      jump\t// out\n        /* \"#utility.yul\":11867:12269   */\n    tag_359:\n        /* \"#utility.yul\":11962:11968   */\n      0x00\n        /* \"#utility.yul\":12011:12014   */\n      0xc0\n        /* \"#utility.yul\":11999:12008   */\n      dup3\n        /* \"#utility.yul\":11990:11997   */\n      dup5\n        /* \"#utility.yul\":11986:12009   */\n      sub\n        /* \"#utility.yul\":11982:12015   */\n      slt\n        /* \"#utility.yul\":11979:12099   */\n      iszero\n      tag_593\n      jumpi\n        /* \"#utility.yul\":12018:12097   */\n      tag_594\n      tag_554\n      jump\t// in\n    tag_594:\n        /* \"#utility.yul\":11979:12099   */\n    tag_593:\n        /* \"#utility.yul\":12138:12139   */\n      0x00\n        /* \"#utility.yul\":12163:12252   */\n      tag_595\n        /* \"#utility.yul\":12244:12251   */\n      dup5\n        /* \"#utility.yul\":12235:12241   */\n      dup3\n        /* \"#utility.yul\":12224:12233   */\n      dup6\n        /* \"#utility.yul\":12220:12242   */\n      add\n        /* \"#utility.yul\":12163:12252   */\n      tag_515\n      jump\t// in\n    tag_595:\n        /* \"#utility.yul\":12153:12252   */\n      swap2\n      pop\n        /* \"#utility.yul\":12109:12262   */\n      pop\n        /* \"#utility.yul\":11867:12269   */\n      swap3\n      swap2\n      pop\n      pop\n      jump\t// out\n        /* \"#utility.yul\":12275:12683   */\n    tag_390:\n        /* \"#utility.yul\":12373:12379   */\n      0x00\n        /* \"#utility.yul\":12422:12425   */\n      0x80\n        /* \"#utility.yul\":12410:12419   */\n      dup3\n        /* \"#utility.yul\":12401:12408   */\n      dup5\n        /* \"#utility.yul\":12397:12420   */\n      sub\n        /* \"#utility.yul\":12393:12426   */\n      slt\n        /* \"#utility.yul\":12390:12510   */\n      iszero\n      tag_597\n      jumpi\n        /* \"#utility.yul\":12429:12508   */\n      tag_598\n      tag_554\n      jump\t// in\n    tag_598:\n        /* \"#utility.yul\":12390:12510   */\n    tag_597:\n        /* \"#utility.yul\":12549:12550   */\n      0x00\n        /* \"#utility.yul\":12574:12666   */\n      tag_599\n        /* \"#utility.yul\":12658:12665   */\n      dup5\n        /* \"#utility.yul\":12649:12655   */\n      dup3\n        /* \"#utility.yul\":12638:12647   */\n      dup6\n        /* \"#utility.yul\":12634:12656   */\n      add\n        /* \"#utility.yul\":12574:12666   */\n      tag_527\n      jump\t// in\n    tag_599:\n        /* \"#utility.yul\":12564:12666   */\n      swap2\n      pop\n        /* \"#utility.yul\":12520:12676   */\n      pop\n        /* \"#utility.yul\":12275:12683   */\n      swap3\n      swap2\n      pop\n      pop\n      jump\t// out\n        /* \"#utility.yul\":12689:13107   */\n    tag_145:\n        /* \"#utility.yul\":12792:12798   */\n      0x00\n        /* \"#utility.yul\":12841:12844   */\n      0x80\n        /* \"#utility.yul\":12829:12838   */\n      dup3\n        /* \"#utility.yul\":12820:12827   */\n      dup5\n        /* \"#utility.yul\":12816:12839   */\n      sub\n        /* \"#utility.yul\":12812:12845   */\n      slt\n        /* \"#utility.yul\":12809:12929   */\n      iszero\n      tag_601\n      jumpi\n        /* \"#utility.yul\":12848:12927   */\n      tag_602\n      tag_554\n      jump\t// in\n    tag_602:\n        /* \"#utility.yul\":12809:12929   */\n    tag_601:\n        /* \"#utility.yul\":12968:12969   */\n      0x00\n        /* \"#utility.yul\":12993:13090   */\n      tag_603\n        /* \"#utility.yul\":13082:13089   */\n      dup5\n        /* \"#utility.yul\":13073:13079   */\n      dup3\n        /* \"#utility.yul\":13062:13071   */\n      dup6\n        /* \"#utility.yul\":13058:13080   */\n      add\n        /* \"#utility.yul\":12993:13090   */\n      tag_536\n      jump\t// in\n    tag_603:\n        /* \"#utility.yul\":12983:13090   */\n      swap2\n      pop\n        /* \"#utility.yul\":12939:13100   */\n      pop\n        /* \"#utility.yul\":12689:13107   */\n      swap3\n      swap2\n      pop\n      pop\n      jump\t// out\n        /* \"#utility.yul\":13113:13464   */\n    tag_105:\n        /* \"#utility.yul\":13183:13189   */\n      0x00\n        /* \"#utility.yul\":13232:13234   */\n      0x20\n        /* \"#utility.yul\":13220:13229   */\n      dup3\n        /* \"#utility.yul\":13211:13218   */\n      dup5\n        /* \"#utility.yul\":13207:13230   */\n      sub\n        /* \"#utility.yul\":13203:13235   */\n      slt\n        /* \"#utility.yul\":13200:13319   */\n      iszero\n      tag_605\n      jumpi\n        /* \"#utility.yul\":13238:13317   */\n      tag_606\n      tag_554\n      jump\t// in\n    tag_606:\n        /* \"#utility.yul\":13200:13319   */\n    tag_605:\n        /* \"#utility.yul\":13358:13359   */\n      0x00\n        /* \"#utility.yul\":13383:13447   */\n      tag_607\n        /* \"#utility.yul\":13439:13446   */\n      dup5\n        /* \"#utility.yul\":13430:13436   */\n      dup3\n        /* \"#utility.yul\":13419:13428   */\n      dup6\n        /* \"#utility.yul\":13415:13437   */\n      add\n        /* \"#utility.yul\":13383:13447   */\n      tag_462\n      jump\t// in\n    tag_607:\n        /* \"#utility.yul\":13373:13447   */\n      swap2\n      pop\n        /* \"#utility.yul\":13329:13457   */\n      pop\n        /* \"#utility.yul\":13113:13464   */\n      swap3\n      swap2\n      pop\n      pop\n      jump\t// out\n        /* \"#utility.yul\":13470:14151   */\n    tag_37:\n        /* \"#utility.yul\":13578:13584   */\n      0x00\n        /* \"#utility.yul\":13586:13592   */\n      dup1\n        /* \"#utility.yul\":13594:13600   */\n      0x00\n        /* \"#utility.yul\":13643:13645   */\n      0x60\n        /* \"#utility.yul\":13631:13640   */\n      dup5\n        /* \"#utility.yul\":13622:13629   */\n      dup7\n        /* \"#utility.yul\":13618:13641   */\n      sub\n        /* \"#utility.yul\":13614:13646   */\n      slt\n        /* \"#utility.yul\":13611:13730   */\n      iszero\n      tag_609\n      jumpi\n        /* \"#utility.yul\":13649:13728   */\n      tag_610\n      tag_554\n      jump\t// in\n    tag_610:\n        /* \"#utility.yul\":13611:13730   */\n    tag_609:\n        /* \"#utility.yul\":13769:13770   */\n      0x00\n        /* \"#utility.yul\":13794:13847   */\n      tag_611\n        /* \"#utility.yul\":13839:13846   */\n      dup7\n        /* \"#utility.yul\":13830:13836   */\n      dup3\n        /* \"#utility.yul\":13819:13828   */\n      dup8\n        /* \"#utility.yul\":13815:13837   */\n      add\n        /* \"#utility.yul\":13794:13847   */\n      tag_545\n      jump\t// in\n    tag_611:\n        /* \"#utility.yul\":13784:13847   */\n      swap4\n      pop\n        /* \"#utility.yul\":13740:13857   */\n      pop\n        /* \"#utility.yul\":13896:13898   */\n      0x20\n        /* \"#utility.yul\":13922:13990   */\n      tag_612\n        /* \"#utility.yul\":13982:13989   */\n      dup7\n        /* \"#utility.yul\":13973:13979   */\n      dup3\n        /* \"#utility.yul\":13962:13971   */\n      dup8\n        /* \"#utility.yul\":13958:13980   */\n      add\n        /* \"#utility.yul\":13922:13990   */\n      tag_485\n      jump\t// in\n    tag_612:\n        /* \"#utility.yul\":13912:13990   */\n      swap3\n      pop\n        /* \"#utility.yul\":13867:14000   */\n      pop\n        /* \"#utility.yul\":14039:14041   */\n      0x40\n        /* \"#utility.yul\":14065:14134   */\n      tag_613\n        /* \"#utility.yul\":14126:14133   */\n      dup7\n        /* \"#utility.yul\":14117:14123   */\n      dup3\n        /* \"#utility.yul\":14106:14115   */\n      dup8\n        /* \"#utility.yul\":14102:14124   */\n      add\n        /* \"#utility.yul\":14065:14134   */\n      tag_507\n      jump\t// in\n    tag_613:\n        /* \"#utility.yul\":14055:14134   */\n      swap2\n      pop\n        /* \"#utility.yul\":14010:14144   */\n      pop\n        /* \"#utility.yul\":13470:14151   */\n      swap3\n      pop\n      swap3\n      pop\n      swap3\n      jump\t// out\n        /* \"#utility.yul\":14157:14986   */\n    tag_84:\n        /* \"#utility.yul\":14275:14281   */\n      0x00\n        /* \"#utility.yul\":14283:14289   */\n      dup1\n        /* \"#utility.yul\":14291:14297   */\n      0x00\n        /* \"#utility.yul\":14299:14305   */\n      dup1\n        /* \"#utility.yul\":14348:14351   */\n      0x80\n        /* \"#utility.yul\":14336:14345   */\n      dup6\n        /* \"#utility.yul\":14327:14334   */\n      dup8\n        /* \"#utility.yul\":14323:14346   */\n      sub\n        /* \"#utility.yul\":14319:14352   */\n      slt\n        /* \"#utility.yul\":14316:14436   */\n      iszero\n      tag_615\n      jumpi\n        /* \"#utility.yul\":14355:14434   */\n      tag_616\n      tag_554\n      jump\t// in\n    tag_616:\n        /* \"#utility.yul\":14316:14436   */\n    tag_615:\n        /* \"#utility.yul\":14475:14476   */\n      0x00\n        /* \"#utility.yul\":14500:14553   */\n      tag_617\n        /* \"#utility.yul\":14545:14552   */\n      dup8\n        /* \"#utility.yul\":14536:14542   */\n      dup3\n        /* \"#utility.yul\":14525:14534   */\n      dup9\n        /* \"#utility.yul\":14521:14543   */\n      add\n        /* \"#utility.yul\":14500:14553   */\n      tag_545\n      jump\t// in\n    tag_617:\n        /* \"#utility.yul\":14490:14553   */\n      swap5\n      pop\n        /* \"#utility.yul\":14446:14563   */\n      pop\n        /* \"#utility.yul\":14602:14604   */\n      0x20\n        /* \"#utility.yul\":14628:14691   */\n      tag_618\n        /* \"#utility.yul\":14683:14690   */\n      dup8\n        /* \"#utility.yul\":14674:14680   */\n      dup3\n        /* \"#utility.yul\":14663:14672   */\n      dup9\n        /* \"#utility.yul\":14659:14681   */\n      add\n        /* \"#utility.yul\":14628:14691   */\n      tag_450\n      jump\t// in\n    tag_618:\n        /* \"#utility.yul\":14618:14691   */\n      swap4\n      pop\n        /* \"#utility.yul\":14573:14701   */\n      pop\n        /* \"#utility.yul\":14740:14742   */\n      0x40\n        /* \"#utility.yul\":14766:14819   */\n      tag_619\n        /* \"#utility.yul\":14811:14818   */\n      dup8\n        /* \"#utility.yul\":14802:14808   */\n      dup3\n        /* \"#utility.yul\":14791:14800   */\n      dup9\n        /* \"#utility.yul\":14787:14809   */\n      add\n        /* \"#utility.yul\":14766:14819   */\n      tag_545\n      jump\t// in\n    tag_619:\n        /* \"#utility.yul\":14756:14819   */\n      swap3\n      pop\n        /* \"#utility.yul\":14711:14829   */\n      pop\n        /* \"#utility.yul\":14868:14870   */\n      0x60\n        /* \"#utility.yul\":14894:14969   */\n      tag_620\n        /* \"#utility.yul\":14961:14968   */\n      dup8\n        /* \"#utility.yul\":14952:14958   */\n      dup3\n        /* \"#utility.yul\":14941:14950   */\n      dup9\n        /* \"#utility.yul\":14937:14959   */\n      add\n        /* \"#utility.yul\":14894:14969   */\n      tag_499\n      jump\t// in\n    tag_620:\n        /* \"#utility.yul\":14884:14969   */\n      swap2\n      pop\n        /* \"#utility.yul\":14839:14979   */\n      pop\n        /* \"#utility.yul\":14157:14986   */\n      swap3\n      swap6\n      swap2\n      swap5\n      pop\n      swap3\n      pop\n      jump\t// out\n        /* \"#utility.yul\":14992:15508   */\n    tag_93:\n        /* \"#utility.yul\":15081:15087   */\n      0x00\n        /* \"#utility.yul\":15089:15095   */\n      dup1\n        /* \"#utility.yul\":15138:15140   */\n      0x40\n        /* \"#utility.yul\":15126:15135   */\n      dup4\n        /* \"#utility.yul\":15117:15124   */\n      dup6\n        /* \"#utility.yul\":15113:15136   */\n      sub\n        /* \"#utility.yul\":15109:15141   */\n      slt\n        /* \"#utility.yul\":15106:15225   */\n      iszero\n      tag_622\n      jumpi\n        /* \"#utility.yul\":15144:15223   */\n      tag_623\n      tag_554\n      jump\t// in\n    tag_623:\n        /* \"#utility.yul\":15106:15225   */\n    tag_622:\n        /* \"#utility.yul\":15264:15265   */\n      0x00\n        /* \"#utility.yul\":15289:15342   */\n      tag_624\n        /* \"#utility.yul\":15334:15341   */\n      dup6\n        /* \"#utility.yul\":15325:15331   */\n      dup3\n        /* \"#utility.yul\":15314:15323   */\n      dup7\n        /* \"#utility.yul\":15310:15332   */\n      add\n        /* \"#utility.yul\":15289:15342   */\n      tag_545\n      jump\t// in\n    tag_624:\n        /* \"#utility.yul\":15279:15342   */\n      swap3\n      pop\n        /* \"#utility.yul\":15235:15352   */\n      pop\n        /* \"#utility.yul\":15391:15393   */\n      0x20\n        /* \"#utility.yul\":15417:15491   */\n      tag_625\n        /* \"#utility.yul\":15483:15490   */\n      dup6\n        /* \"#utility.yul\":15474:15480   */\n      dup3\n        /* \"#utility.yul\":15463:15472   */\n      dup7\n        /* \"#utility.yul\":15459:15481   */\n      add\n        /* \"#utility.yul\":15417:15491   */\n      tag_503\n      jump\t// in\n    tag_625:\n        /* \"#utility.yul\":15407:15491   */\n      swap2\n      pop\n        /* \"#utility.yul\":15362:15501   */\n      pop\n        /* \"#utility.yul\":14992:15508   */\n      swap3\n      pop\n      swap3\n      swap1\n      pop\n      jump\t// out\n        /* \"#utility.yul\":15514:15693   */\n    tag_626:\n        /* \"#utility.yul\":15583:15593   */\n      0x00\n        /* \"#utility.yul\":15604:15650   */\n      tag_628\n        /* \"#utility.yul\":15646:15649   */\n      dup4\n        /* \"#utility.yul\":15638:15644   */\n      dup4\n        /* \"#utility.yul\":15604:15650   */\n      tag_629\n      jump\t// in\n    tag_628:\n        /* \"#utility.yul\":15682:15686   */\n      0x20\n        /* \"#utility.yul\":15677:15680   */\n      dup4\n        /* \"#utility.yul\":15673:15687   */\n      add\n        /* \"#utility.yul\":15659:15687   */\n      swap1\n      pop\n        /* \"#utility.yul\":15514:15693   */\n      swap3\n      swap2\n      pop\n      pop\n      jump\t// out\n        /* \"#utility.yul\":15699:15807   */\n    tag_629:\n        /* \"#utility.yul\":15776:15800   */\n      tag_631\n        /* \"#utility.yul\":15794:15799   */\n      dup2\n        /* \"#utility.yul\":15776:15800   */\n      tag_632\n      jump\t// in\n    tag_631:\n        /* \"#utility.yul\":15771:15774   */\n      dup3\n        /* \"#utility.yul\":15764:15801   */\n      mstore\n        /* \"#utility.yul\":15699:15807   */\n      pop\n      pop\n      jump\t// out\n        /* \"#utility.yul\":15813:15931   */\n    tag_633:\n        /* \"#utility.yul\":15900:15924   */\n      tag_635\n        /* \"#utility.yul\":15918:15923   */\n      dup2\n        /* \"#utility.yul\":15900:15924   */\n      tag_632\n      jump\t// in\n    tag_635:\n        /* \"#utility.yul\":15895:15898   */\n      dup3\n        /* \"#utility.yul\":15888:15925   */\n      mstore\n        /* \"#utility.yul\":15813:15931   */\n      pop\n      pop\n      jump\t// out\n        /* \"#utility.yul\":15967:16699   */\n    tag_636:\n        /* \"#utility.yul\":16086:16089   */\n      0x00\n        /* \"#utility.yul\":16115:16169   */\n      tag_638\n        /* \"#utility.yul\":16163:16168   */\n      dup3\n        /* \"#utility.yul\":16115:16169   */\n      tag_639\n      jump\t// in\n    tag_638:\n        /* \"#utility.yul\":16185:16271   */\n      tag_640\n        /* \"#utility.yul\":16264:16270   */\n      dup2\n        /* \"#utility.yul\":16259:16262   */\n      dup6\n        /* \"#utility.yul\":16185:16271   */\n      tag_641\n      jump\t// in\n    tag_640:\n        /* \"#utility.yul\":16178:16271   */\n      swap4\n      pop\n        /* \"#utility.yul\":16295:16351   */\n      tag_642\n        /* \"#utility.yul\":16345:16350   */\n      dup4\n        /* \"#utility.yul\":16295:16351   */\n      tag_643\n      jump\t// in\n    tag_642:\n        /* \"#utility.yul\":16374:16381   */\n      dup1\n        /* \"#utility.yul\":16405:16406   */\n      0x00\n        /* \"#utility.yul\":16390:16674   */\n    tag_644:\n        /* \"#utility.yul\":16415:16421   */\n      dup4\n        /* \"#utility.yul\":16412:16413   */\n      dup2\n        /* \"#utility.yul\":16409:16422   */\n      lt\n        /* \"#utility.yul\":16390:16674   */\n      iszero\n      tag_646\n      jumpi\n        /* \"#utility.yul\":16491:16497   */\n      dup2\n        /* \"#utility.yul\":16485:16498   */\n      mload\n        /* \"#utility.yul\":16518:16581   */\n      tag_647\n        /* \"#utility.yul\":16577:16580   */\n      dup9\n        /* \"#utility.yul\":16562:16575   */\n      dup3\n        /* \"#utility.yul\":16518:16581   */\n      tag_626\n      jump\t// in\n    tag_647:\n        /* \"#utility.yul\":16511:16581   */\n      swap8\n      pop\n        /* \"#utility.yul\":16604:16664   */\n      tag_648\n        /* \"#utility.yul\":16657:16663   */\n      dup4\n        /* \"#utility.yul\":16604:16664   */\n      tag_649\n      jump\t// in\n    tag_648:\n        /* \"#utility.yul\":16594:16664   */\n      swap3\n      pop\n        /* \"#utility.yul\":16450:16674   */\n      pop\n        /* \"#utility.yul\":16437:16438   */\n      0x01\n        /* \"#utility.yul\":16434:16435   */\n      dup2\n        /* \"#utility.yul\":16430:16439   */\n      add\n        /* \"#utility.yul\":16425:16439   */\n      swap1\n      pop\n        /* \"#utility.yul\":16390:16674   */\n      jump(tag_644)\n    tag_646:\n        /* \"#utility.yul\":16394:16408   */\n      pop\n        /* \"#utility.yul\":16690:16693   */\n      dup6\n        /* \"#utility.yul\":16683:16693   */\n      swap4\n      pop\n        /* \"#utility.yul\":16091:16699   */\n      pop\n      pop\n      pop\n        /* \"#utility.yul\":15967:16699   */\n      swap3\n      swap2\n      pop\n      pop\n      jump\t// out\n        /* \"#utility.yul\":16705:16864   */\n    tag_650:\n        /* \"#utility.yul\":16806:16857   */\n      tag_652\n        /* \"#utility.yul\":16851:16856   */\n      dup2\n        /* \"#utility.yul\":16806:16857   */\n      tag_653\n      jump\t// in\n    tag_652:\n        /* \"#utility.yul\":16801:16804   */\n      dup3\n        /* \"#utility.yul\":16794:16858   */\n      mstore\n        /* \"#utility.yul\":16705:16864   */\n      pop\n      pop\n      jump\t// out\n        /* \"#utility.yul\":16870:17234   */\n    tag_654:\n        /* \"#utility.yul\":16958:16961   */\n      0x00\n        /* \"#utility.yul\":16986:17025   */\n      tag_656\n        /* \"#utility.yul\":17019:17024   */\n      dup3\n        /* \"#utility.yul\":16986:17025   */\n      tag_657\n      jump\t// in\n    tag_656:\n        /* \"#utility.yul\":17041:17112   */\n      tag_658\n        /* \"#utility.yul\":17105:17111   */\n      dup2\n        /* \"#utility.yul\":17100:17103   */\n      dup6\n        /* \"#utility.yul\":17041:17112   */\n      tag_659\n      jump\t// in\n    tag_658:\n        /* \"#utility.yul\":17034:17112   */\n      swap4\n      pop\n        /* \"#utility.yul\":17121:17173   */\n      tag_660\n        /* \"#utility.yul\":17166:17172   */\n      dup2\n        /* \"#utility.yul\":17161:17164   */\n      dup6\n        /* \"#utility.yul\":17154:17158   */\n      0x20\n        /* \"#utility.yul\":17147:17152   */\n      dup7\n        /* \"#utility.yul\":17143:17159   */\n      add\n        /* \"#utility.yul\":17121:17173   */\n      tag_661\n      jump\t// in\n    tag_660:\n        /* \"#utility.yul\":17198:17227   */\n      tag_662\n        /* \"#utility.yul\":17220:17226   */\n      dup2\n        /* \"#utility.yul\":17198:17227   */\n      tag_663\n      jump\t// in\n    tag_662:\n        /* \"#utility.yul\":17193:17196   */\n      dup5\n        /* \"#utility.yul\":17189:17228   */\n      add\n        /* \"#utility.yul\":17182:17228   */\n      swap2\n      pop\n        /* \"#utility.yul\":16962:17234   */\n      pop\n        /* \"#utility.yul\":16870:17234   */\n      swap3\n      swap2\n      pop\n      pop\n      jump\t// out\n        /* \"#utility.yul\":17240:17606   */\n    tag_664:\n        /* \"#utility.yul\":17382:17385   */\n      0x00\n        /* \"#utility.yul\":17403:17470   */\n      tag_666\n        /* \"#utility.yul\":17467:17469   */\n      0x26\n        /* \"#utility.yul\":17462:17465   */\n      dup4\n        /* \"#utility.yul\":17403:17470   */\n      tag_659\n      jump\t// in\n    tag_666:\n        /* \"#utility.yul\":17396:17470   */\n      swap2\n      pop\n        /* \"#utility.yul\":17479:17572   */\n      tag_667\n        /* \"#utility.yul\":17568:17571   */\n      dup3\n        /* \"#utility.yul\":17479:17572   */\n      tag_668\n      jump\t// in\n    tag_667:\n        /* \"#utility.yul\":17597:17599   */\n      0x40\n        /* \"#utility.yul\":17592:17595   */\n      dup3\n        /* \"#utility.yul\":17588:17600   */\n      add\n        /* \"#utility.yul\":17581:17600   */\n      swap1\n      pop\n        /* \"#utility.yul\":17240:17606   */\n      swap2\n      swap1\n      pop\n      jump\t// out\n        /* \"#utility.yul\":17612:17978   */\n    tag_669:\n        /* \"#utility.yul\":17754:17757   */\n      0x00\n        /* \"#utility.yul\":17775:17842   */\n      tag_671\n        /* \"#utility.yul\":17839:17841   */\n      0x1b\n        /* \"#utility.yul\":17834:17837   */\n      dup4\n        /* \"#utility.yul\":17775:17842   */\n      tag_659\n      jump\t// in\n    tag_671:\n        /* \"#utility.yul\":17768:17842   */\n      swap2\n      pop\n        /* \"#utility.yul\":17851:17944   */\n      tag_672\n        /* \"#utility.yul\":17940:17943   */\n      dup3\n        /* \"#utility.yul\":17851:17944   */\n      tag_673\n      jump\t// in\n    tag_672:\n        /* \"#utility.yul\":17969:17971   */\n      0x20\n        /* \"#utility.yul\":17964:17967   */\n      dup3\n        /* \"#utility.yul\":17960:17972   */\n      add\n        /* \"#utility.yul\":17953:17972   */\n      swap1\n      pop\n        /* \"#utility.yul\":17612:17978   */\n      swap2\n      swap1\n      pop\n      jump\t// out\n        /* \"#utility.yul\":17984:18350   */\n    tag_674:\n        /* \"#utility.yul\":18126:18129   */\n      0x00\n        /* \"#utility.yul\":18147:18214   */\n      tag_676\n        /* \"#utility.yul\":18211:18213   */\n      0x21\n        /* \"#utility.yul\":18206:18209   */\n      dup4\n        /* \"#utility.yul\":18147:18214   */\n      tag_659\n      jump\t// in\n    tag_676:\n        /* \"#utility.yul\":18140:18214   */\n      swap2\n      pop\n        /* \"#utility.yul\":18223:18316   */\n      tag_677\n        /* \"#utility.yul\":18312:18315   */\n      dup3\n        /* \"#utility.yul\":18223:18316   */\n      tag_678\n      jump\t// in\n    tag_677:\n        /* \"#utility.yul\":18341:18343   */\n      0x40\n        /* \"#utility.yul\":18336:18339   */\n      dup3\n        /* \"#utility.yul\":18332:18344   */\n      add\n        /* \"#utility.yul\":18325:18344   */\n      swap1\n      pop\n        /* \"#utility.yul\":17984:18350   */\n      swap2\n      swap1\n      pop\n      jump\t// out\n        /* \"#utility.yul\":18356:18722   */\n    tag_679:\n        /* \"#utility.yul\":18498:18501   */\n      0x00\n        /* \"#utility.yul\":18519:18586   */\n      tag_681\n        /* \"#utility.yul\":18583:18585   */\n      0x20\n        /* \"#utility.yul\":18578:18581   */\n      dup4\n        /* \"#utility.yul\":18519:18586   */\n      tag_659\n      jump\t// in\n    tag_681:\n        /* \"#utility.yul\":18512:18586   */\n      swap2\n      pop\n        /* \"#utility.yul\":18595:18688   */\n      tag_682\n        /* \"#utility.yul\":18684:18687   */\n      dup3\n        /* \"#utility.yul\":18595:18688   */\n      tag_683\n      jump\t// in\n    tag_682:\n        /* \"#utility.yul\":18713:18715   */\n      0x20\n        /* \"#utility.yul\":18708:18711   */\n      dup3\n        /* \"#utility.yul\":18704:18716   */\n      add\n        /* \"#utility.yul\":18697:18716   */\n      swap1\n      pop\n        /* \"#utility.yul\":18356:18722   */\n      swap2\n      swap1\n      pop\n      jump\t// out\n        /* \"#utility.yul\":18728:18846   */\n    tag_684:\n        /* \"#utility.yul\":18815:18839   */\n      tag_686\n        /* \"#utility.yul\":18833:18838   */\n      dup2\n        /* \"#utility.yul\":18815:18839   */\n      tag_687\n      jump\t// in\n    tag_686:\n        /* \"#utility.yul\":18810:18813   */\n      dup3\n        /* \"#utility.yul\":18803:18840   */\n      mstore\n        /* \"#utility.yul\":18728:18846   */\n      pop\n      pop\n      jump\t// out\n        /* \"#utility.yul\":18852:19074   */\n    tag_65:\n        /* \"#utility.yul\":18945:18949   */\n      0x00\n        /* \"#utility.yul\":18983:18985   */\n      0x20\n        /* \"#utility.yul\":18972:18981   */\n      dup3\n        /* \"#utility.yul\":18968:18986   */\n      add\n        /* \"#utility.yul\":18960:18986   */\n      swap1\n      pop\n        /* \"#utility.yul\":18996:19067   */\n      tag_689\n        /* \"#utility.yul\":19064:19065   */\n      0x00\n        /* \"#utility.yul\":19053:19062   */\n      dup4\n        /* \"#utility.yul\":19049:19066   */\n      add\n        /* \"#utility.yul\":19040:19046   */\n      dup5\n        /* \"#utility.yul\":18996:19067   */\n      tag_633\n      jump\t// in\n    tag_689:\n        /* \"#utility.yul\":18852:19074   */\n      swap3\n      swap2\n      pop\n      pop\n      jump\t// out\n        /* \"#utility.yul\":19080:19330   */\n    tag_57:\n        /* \"#utility.yul\":19187:19191   */\n      0x00\n        /* \"#utility.yul\":19225:19227   */\n      0x20\n        /* \"#utility.yul\":19214:19223   */\n      dup3\n        /* \"#utility.yul\":19210:19228   */\n      add\n        /* \"#utility.yul\":19202:19228   */\n      swap1\n      pop\n        /* \"#utility.yul\":19238:19323   */\n      tag_691\n        /* \"#utility.yul\":19320:19321   */\n      0x00\n        /* \"#utility.yul\":19309:19318   */\n      dup4\n        /* \"#utility.yul\":19305:19322   */\n      add\n        /* \"#utility.yul\":19296:19302   */\n      dup5\n        /* \"#utility.yul\":19238:19323   */\n      tag_650\n      jump\t// in\n    tag_691:\n        /* \"#utility.yul\":19080:19330   */\n      swap3\n      swap2\n      pop\n      pop\n      jump\t// out\n        /* \"#utility.yul\":19336:19649   */\n    tag_434:\n        /* \"#utility.yul\":19449:19453   */\n      0x00\n        /* \"#utility.yul\":19487:19489   */\n      0x20\n        /* \"#utility.yul\":19476:19485   */\n      dup3\n        /* \"#utility.yul\":19472:19490   */\n      add\n        /* \"#utility.yul\":19464:19490   */\n      swap1\n      pop\n        /* \"#utility.yul\":19536:19545   */\n      dup2\n        /* \"#utility.yul\":19530:19534   */\n      dup2\n        /* \"#utility.yul\":19526:19546   */\n      sub\n        /* \"#utility.yul\":19522:19523   */\n      0x00\n        /* \"#utility.yul\":19511:19520   */\n      dup4\n        /* \"#utility.yul\":19507:19524   */\n      add\n        /* \"#utility.yul\":19500:19547   */\n      mstore\n        /* \"#utility.yul\":19564:19642   */\n      tag_693\n        /* \"#utility.yul\":19637:19641   */\n      dup2\n        /* \"#utility.yul\":19628:19634   */\n      dup5\n        /* \"#utility.yul\":19564:19642   */\n      tag_654\n      jump\t// in\n    tag_693:\n        /* \"#utility.yul\":19556:19642   */\n      swap1\n      pop\n        /* \"#utility.yul\":19336:19649   */\n      swap3\n      swap2\n      pop\n      pop\n      jump\t// out\n        /* \"#utility.yul\":19655:20074   */\n    tag_411:\n        /* \"#utility.yul\":19821:19825   */\n      0x00\n        /* \"#utility.yul\":19859:19861   */\n      0x20\n        /* \"#utility.yul\":19848:19857   */\n      dup3\n        /* \"#utility.yul\":19844:19862   */\n      add\n        /* \"#utility.yul\":19836:19862   */\n      swap1\n      pop\n        /* \"#utility.yul\":19908:19917   */\n      dup2\n        /* \"#utility.yul\":19902:19906   */\n      dup2\n        /* \"#utility.yul\":19898:19918   */\n      sub\n        /* \"#utility.yul\":19894:19895   */\n      0x00\n        /* \"#utility.yul\":19883:19892   */\n      dup4\n        /* \"#utility.yul\":19879:19896   */\n      add\n        /* \"#utility.yul\":19872:19919   */\n      mstore\n        /* \"#utility.yul\":19936:20067   */\n      tag_695\n        /* \"#utility.yul\":20062:20066   */\n      dup2\n        /* \"#utility.yul\":19936:20067   */\n      tag_664\n      jump\t// in\n    tag_695:\n        /* \"#utility.yul\":19928:20067   */\n      swap1\n      pop\n        /* \"#utility.yul\":19655:20074   */\n      swap2\n      swap1\n      pop\n      jump\t// out\n        /* \"#utility.yul\":20080:20499   */\n    tag_428:\n        /* \"#utility.yul\":20246:20250   */\n      0x00\n        /* \"#utility.yul\":20284:20286   */\n      0x20\n        /* \"#utility.yul\":20273:20282   */\n      dup3\n        /* \"#utility.yul\":20269:20287   */\n      add\n        /* \"#utility.yul\":20261:20287   */\n      swap1\n      pop\n        /* \"#utility.yul\":20333:20342   */\n      dup2\n        /* \"#utility.yul\":20327:20331   */\n      dup2\n        /* \"#utility.yul\":20323:20343   */\n      sub\n        /* \"#utility.yul\":20319:20320   */\n      0x00\n        /* \"#utility.yul\":20308:20317   */\n      dup4\n        /* \"#utility.yul\":20304:20321   */\n      add\n        /* \"#utility.yul\":20297:20344   */\n      mstore\n        /* \"#utility.yul\":20361:20492   */\n      tag_697\n        /* \"#utility.yul\":20487:20491   */\n      dup2\n        /* \"#utility.yul\":20361:20492   */\n      tag_669\n      jump\t// in\n    tag_697:\n        /* \"#utility.yul\":20353:20492   */\n      swap1\n      pop\n        /* \"#utility.yul\":20080:20499   */\n      swap2\n      swap1\n      pop\n      jump\t// out\n        /* \"#utility.yul\":20505:20924   */\n    tag_423:\n        /* \"#utility.yul\":20671:20675   */\n      0x00\n        /* \"#utility.yul\":20709:20711   */\n      0x20\n        /* \"#utility.yul\":20698:20707   */\n      dup3\n        /* \"#utility.yul\":20694:20712   */\n      add\n        /* \"#utility.yul\":20686:20712   */\n      swap1\n      pop\n        /* \"#utility.yul\":20758:20767   */\n      dup2\n        /* \"#utility.yul\":20752:20756   */\n      dup2\n        /* \"#utility.yul\":20748:20768   */\n      sub\n        /* \"#utility.yul\":20744:20745   */\n      0x00\n        /* \"#utility.yul\":20733:20742   */\n      dup4\n        /* \"#utility.yul\":20729:20746   */\n      add\n        /* \"#utility.yul\":20722:20769   */\n      mstore\n        /* \"#utility.yul\":20786:20917   */\n      tag_699\n        /* \"#utility.yul\":20912:20916   */\n      dup2\n        /* \"#utility.yul\":20786:20917   */\n      tag_674\n      jump\t// in\n    tag_699:\n        /* \"#utility.yul\":20778:20917   */\n      swap1\n      pop\n        /* \"#utility.yul\":20505:20924   */\n      swap2\n      swap1\n      pop\n      jump\t// out\n        /* \"#utility.yul\":20930:21349   */\n    tag_326:\n        /* \"#utility.yul\":21096:21100   */\n      0x00\n        /* \"#utility.yul\":21134:21136   */\n      0x20\n        /* \"#utility.yul\":21123:21132   */\n      dup3\n        /* \"#utility.yul\":21119:21137   */\n      add\n        /* \"#utility.yul\":21111:21137   */\n      swap1\n      pop\n        /* \"#utility.yul\":21183:21192   */\n      dup2\n        /* \"#utility.yul\":21177:21181   */\n      dup2\n        /* \"#utility.yul\":21173:21193   */\n      sub\n        /* \"#utility.yul\":21169:21170   */\n      0x00\n        /* \"#utility.yul\":21158:21167   */\n      dup4\n        /* \"#utility.yul\":21154:21171   */\n      add\n        /* \"#utility.yul\":21147:21194   */\n      mstore\n        /* \"#utility.yul\":21211:21342   */\n      tag_701\n        /* \"#utility.yul\":21337:21341   */\n      dup2\n        /* \"#utility.yul\":21211:21342   */\n      tag_679\n      jump\t// in\n    tag_701:\n        /* \"#utility.yul\":21203:21342   */\n      swap1\n      pop\n        /* \"#utility.yul\":20930:21349   */\n      swap2\n      swap1\n      pop\n      jump\t// out\n        /* \"#utility.yul\":21355:21577   */\n    tag_29:\n        /* \"#utility.yul\":21448:21452   */\n      0x00\n        /* \"#utility.yul\":21486:21488   */\n      0x20\n        /* \"#utility.yul\":21475:21484   */\n      dup3\n        /* \"#utility.yul\":21471:21489   */\n      add\n        /* \"#utility.yul\":21463:21489   */\n      swap1\n      pop\n        /* \"#utility.yul\":21499:21570   */\n      tag_703\n        /* \"#utility.yul\":21567:21568   */\n      0x00\n        /* \"#utility.yul\":21556:21565   */\n      dup4\n        /* \"#utility.yul\":21552:21569   */\n      add\n        /* \"#utility.yul\":21543:21549   */\n      dup5\n        /* \"#utility.yul\":21499:21570   */\n      tag_684\n      jump\t// in\n    tag_703:\n        /* \"#utility.yul\":21355:21577   */\n      swap3\n      swap2\n      pop\n      pop\n      jump\t// out\n        /* \"#utility.yul\":21583:22066   */\n    tag_189:\n        /* \"#utility.yul\":21754:21758   */\n      0x00\n        /* \"#utility.yul\":21792:21794   */\n      0x40\n        /* \"#utility.yul\":21781:21790   */\n      dup3\n        /* \"#utility.yul\":21777:21795   */\n      add\n        /* \"#utility.yul\":21769:21795   */\n      swap1\n      pop\n        /* \"#utility.yul\":21805:21876   */\n      tag_705\n        /* \"#utility.yul\":21873:21874   */\n      0x00\n        /* \"#utility.yul\":21862:21871   */\n      dup4\n        /* \"#utility.yul\":21858:21875   */\n      add\n        /* \"#utility.yul\":21849:21855   */\n      dup6\n        /* \"#utility.yul\":21805:21876   */\n      tag_684\n      jump\t// in\n    tag_705:\n        /* \"#utility.yul\":21923:21932   */\n      dup2\n        /* \"#utility.yul\":21917:21921   */\n      dup2\n        /* \"#utility.yul\":21913:21933   */\n      sub\n        /* \"#utility.yul\":21908:21910   */\n      0x20\n        /* \"#utility.yul\":21897:21906   */\n      dup4\n        /* \"#utility.yul\":21893:21911   */\n      add\n        /* \"#utility.yul\":21886:21934   */\n      mstore\n        /* \"#utility.yul\":21951:22059   */\n      tag_706\n        /* \"#utility.yul\":22054:22058   */\n      dup2\n        /* \"#utility.yul\":22045:22051   */\n      dup5\n        /* \"#utility.yul\":21951:22059   */\n      tag_636\n      jump\t// in\n    tag_706:\n        /* \"#utility.yul\":21943:22059   */\n      swap1\n      pop\n        /* \"#utility.yul\":21583:22066   */\n      swap4\n      swap3\n      pop\n      pop\n      pop\n      jump\t// out\n        /* \"#utility.yul\":22072:22201   */\n    tag_442:\n        /* \"#utility.yul\":22106:22112   */\n      0x00\n        /* \"#utility.yul\":22133:22153   */\n      tag_708\n      tag_709\n      jump\t// in\n    tag_708:\n        /* \"#utility.yul\":22123:22153   */\n      swap1\n      pop\n        /* \"#utility.yul\":22162:22195   */\n      tag_710\n        /* \"#utility.yul\":22190:22194   */\n      dup3\n        /* \"#utility.yul\":22182:22188   */\n      dup3\n        /* \"#utility.yul\":22162:22195   */\n      tag_711\n      jump\t// in\n    tag_710:\n        /* \"#utility.yul\":22072:22201   */\n      swap2\n      swap1\n      pop\n      jump\t// out\n        /* \"#utility.yul\":22207:22282   */\n    tag_709:\n        /* \"#utility.yul\":22240:22246   */\n      0x00\n        /* \"#utility.yul\":22273:22275   */\n      0x40\n        /* \"#utility.yul\":22267:22276   */\n      mload\n        /* \"#utility.yul\":22257:22276   */\n      swap1\n      pop\n        /* \"#utility.yul\":22207:22282   */\n      swap1\n      jump\t// out\n        /* \"#utility.yul\":22288:22609   */\n    tag_441:\n        /* \"#utility.yul\":22375:22379   */\n      0x00\n        /* \"#utility.yul\":22465:22483   */\n      0xffffffffffffffff\n        /* \"#utility.yul\":22457:22463   */\n      dup3\n        /* \"#utility.yul\":22454:22484   */\n      gt\n        /* \"#utility.yul\":22451:22507   */\n      iszero\n      tag_714\n      jumpi\n        /* \"#utility.yul\":22487:22505   */\n      tag_715\n      tag_180\n      jump\t// in\n    tag_715:\n        /* \"#utility.yul\":22451:22507   */\n    tag_714:\n        /* \"#utility.yul\":22537:22541   */\n      0x20\n        /* \"#utility.yul\":22529:22535   */\n      dup3\n        /* \"#utility.yul\":22525:22542   */\n      mul\n        /* \"#utility.yul\":22517:22542   */\n      swap1\n      pop\n        /* \"#utility.yul\":22597:22601   */\n      0x20\n        /* \"#utility.yul\":22591:22595   */\n      dup2\n        /* \"#utility.yul\":22587:22602   */\n      add\n        /* \"#utility.yul\":22579:22602   */\n      swap1\n      pop\n        /* \"#utility.yul\":22288:22609   */\n      swap2\n      swap1\n      pop\n      jump\t// out\n        /* \"#utility.yul\":22615:22926   */\n    tag_455:\n        /* \"#utility.yul\":22692:22696   */\n      0x00\n        /* \"#utility.yul\":22782:22800   */\n      0xffffffffffffffff\n        /* \"#utility.yul\":22774:22780   */\n      dup3\n        /* \"#utility.yul\":22771:22801   */\n      gt\n        /* \"#utility.yul\":22768:22824   */\n      iszero\n      tag_717\n      jumpi\n        /* \"#utility.yul\":22804:22822   */\n      tag_718\n      tag_180\n      jump\t// in\n    tag_718:\n        /* \"#utility.yul\":22768:22824   */\n    tag_717:\n        /* \"#utility.yul\":22854:22858   */\n      0x20\n        /* \"#utility.yul\":22846:22852   */\n      dup3\n        /* \"#utility.yul\":22842:22859   */\n      mul\n        /* \"#utility.yul\":22834:22859   */\n      swap1\n      pop\n        /* \"#utility.yul\":22914:22918   */\n      0x20\n        /* \"#utility.yul\":22908:22912   */\n      dup2\n        /* \"#utility.yul\":22904:22919   */\n      add\n        /* \"#utility.yul\":22896:22919   */\n      swap1\n      pop\n        /* \"#utility.yul\":22615:22926   */\n      swap2\n      swap1\n      pop\n      jump\t// out\n        /* \"#utility.yul\":22932:23064   */\n    tag_643:\n        /* \"#utility.yul\":22999:23003   */\n      0x00\n        /* \"#utility.yul\":23022:23025   */\n      dup2\n        /* \"#utility.yul\":23014:23025   */\n      swap1\n      pop\n        /* \"#utility.yul\":23052:23056   */\n      0x20\n        /* \"#utility.yul\":23047:23050   */\n      dup3\n        /* \"#utility.yul\":23043:23057   */\n      add\n        /* \"#utility.yul\":23035:23057   */\n      swap1\n      pop\n        /* \"#utility.yul\":22932:23064   */\n      swap2\n      swap1\n      pop\n      jump\t// out\n        /* \"#utility.yul\":23070:23184   */\n    tag_639:\n        /* \"#utility.yul\":23137:23143   */\n      0x00\n        /* \"#utility.yul\":23171:23176   */\n      dup2\n        /* \"#utility.yul\":23165:23177   */\n      mload\n        /* \"#utility.yul\":23155:23177   */\n      swap1\n      pop\n        /* \"#utility.yul\":23070:23184   */\n      swap2\n      swap1\n      pop\n      jump\t// out\n        /* \"#utility.yul\":23190:23289   */\n    tag_657:\n        /* \"#utility.yul\":23242:23248   */\n      0x00\n        /* \"#utility.yul\":23276:23281   */\n      dup2\n        /* \"#utility.yul\":23270:23282   */\n      mload\n        /* \"#utility.yul\":23260:23282   */\n      swap1\n      pop\n        /* \"#utility.yul\":23190:23289   */\n      swap2\n      swap1\n      pop\n      jump\t// out\n        /* \"#utility.yul\":23295:23408   */\n    tag_649:\n        /* \"#utility.yul\":23365:23369   */\n      0x00\n        /* \"#utility.yul\":23397:23401   */\n      0x20\n        /* \"#utility.yul\":23392:23395   */\n      dup3\n        /* \"#utility.yul\":23388:23402   */\n      add\n        /* \"#utility.yul\":23380:23402   */\n      swap1\n      pop\n        /* \"#utility.yul\":23295:23408   */\n      swap2\n      swap1\n      pop\n      jump\t// out\n        /* \"#utility.yul\":23414:23598   */\n    tag_641:\n        /* \"#utility.yul\":23513:23524   */\n      0x00\n        /* \"#utility.yul\":23547:23553   */\n      dup3\n        /* \"#utility.yul\":23542:23545   */\n      dup3\n        /* \"#utility.yul\":23535:23554   */\n      mstore\n        /* \"#utility.yul\":23587:23591   */\n      0x20\n        /* \"#utility.yul\":23582:23585   */\n      dup3\n        /* \"#utility.yul\":23578:23592   */\n      add\n        /* \"#utility.yul\":23563:23592   */\n      swap1\n      pop\n        /* \"#utility.yul\":23414:23598   */\n      swap3\n      swap2\n      pop\n      pop\n      jump\t// out\n        /* \"#utility.yul\":23604:23773   */\n    tag_659:\n        /* \"#utility.yul\":23688:23699   */\n      0x00\n        /* \"#utility.yul\":23722:23728   */\n      dup3\n        /* \"#utility.yul\":23717:23720   */\n      dup3\n        /* \"#utility.yul\":23710:23729   */\n      mstore\n        /* \"#utility.yul\":23762:23766   */\n      0x20\n        /* \"#utility.yul\":23757:23760   */\n      dup3\n        /* \"#utility.yul\":23753:23767   */\n      add\n        /* \"#utility.yul\":23738:23767   */\n      swap1\n      pop\n        /* \"#utility.yul\":23604:23773   */\n      swap3\n      swap2\n      pop\n      pop\n      jump\t// out\n        /* \"#utility.yul\":23779:24084   */\n    tag_131:\n        /* \"#utility.yul\":23819:23822   */\n      0x00\n        /* \"#utility.yul\":23838:23858   */\n      tag_726\n        /* \"#utility.yul\":23856:23857   */\n      dup3\n        /* \"#utility.yul\":23838:23858   */\n      tag_687\n      jump\t// in\n    tag_726:\n        /* \"#utility.yul\":23833:23858   */\n      swap2\n      pop\n        /* \"#utility.yul\":23872:23892   */\n      tag_727\n        /* \"#utility.yul\":23890:23891   */\n      dup4\n        /* \"#utility.yul\":23872:23892   */\n      tag_687\n      jump\t// in\n    tag_727:\n        /* \"#utility.yul\":23867:23892   */\n      swap3\n      pop\n        /* \"#utility.yul\":24026:24027   */\n      dup3\n        /* \"#utility.yul\":23958:24024   */\n      0xffffffffffffffffffffffffffffffffffffffffffffffffffffffffffffffff\n        /* \"#utility.yul\":23954:24028   */\n      sub\n        /* \"#utility.yul\":23951:23952   */\n      dup3\n        /* \"#utility.yul\":23948:24029   */\n      gt\n        /* \"#utility.yul\":23945:24052   */\n      iszero\n      tag_728\n      jumpi\n        /* \"#utility.yul\":24032:24050   */\n      tag_729\n      tag_730\n      jump\t// in\n    tag_729:\n        /* \"#utility.yul\":23945:24052   */\n    tag_728:\n        /* \"#utility.yul\":24076:24077   */\n      dup3\n        /* \"#utility.yul\":24073:24074   */\n      dup3\n        /* \"#utility.yul\":24069:24078   */\n      add\n        /* \"#utility.yul\":24062:24078   */\n      swap1\n      pop\n        /* \"#utility.yul\":23779:24084   */\n      swap3\n      swap2\n      pop\n      pop\n      jump\t// out\n        /* \"#utility.yul\":24090:24275   */\n    tag_420:\n        /* \"#utility.yul\":24130:24131   */\n      0x00\n        /* \"#utility.yul\":24147:24167   */\n      tag_732\n        /* \"#utility.yul\":24165:24166   */\n      dup3\n        /* \"#utility.yul\":24147:24167   */\n      tag_687\n      jump\t// in\n    tag_732:\n        /* \"#utility.yul\":24142:24167   */\n      swap2\n      pop\n        /* \"#utility.yul\":24181:24201   */\n      tag_733\n        /* \"#utility.yul\":24199:24200   */\n      dup4\n        /* \"#utility.yul\":24181:24201   */\n      tag_687\n      jump\t// in\n    tag_733:\n        /* \"#utility.yul\":24176:24201   */\n      swap3\n      pop\n        /* \"#utility.yul\":24220:24221   */\n      dup3\n        /* \"#utility.yul\":24210:24245   */\n      tag_734\n      jumpi\n        /* \"#utility.yul\":24225:24243   */\n      tag_735\n      tag_736\n      jump\t// in\n    tag_735:\n        /* \"#utility.yul\":24210:24245   */\n    tag_734:\n        /* \"#utility.yul\":24267:24268   */\n      dup3\n        /* \"#utility.yul\":24264:24265   */\n      dup3\n        /* \"#utility.yul\":24260:24269   */\n      div\n        /* \"#utility.yul\":24255:24269   */\n      swap1\n      pop\n        /* \"#utility.yul\":24090:24275   */\n      swap3\n      swap2\n      pop\n      pop\n      jump\t// out\n        /* \"#utility.yul\":24281:24629   */\n    tag_116:\n        /* \"#utility.yul\":24321:24328   */\n      0x00\n        /* \"#utility.yul\":24344:24364   */\n      tag_738\n        /* \"#utility.yul\":24362:24363   */\n      dup3\n        /* \"#utility.yul\":24344:24364   */\n      tag_687\n      jump\t// in\n    tag_738:\n        /* \"#utility.yul\":24339:24364   */\n      swap2\n      pop\n        /* \"#utility.yul\":24378:24398   */\n      tag_739\n        /* \"#utility.yul\":24396:24397   */\n      dup4\n        /* \"#utility.yul\":24378:24398   */\n      tag_687\n      jump\t// in\n    tag_739:\n        /* \"#utility.yul\":24373:24398   */\n      swap3\n      pop\n        /* \"#utility.yul\":24566:24567   */\n      dup2\n        /* \"#utility.yul\":24498:24564   */\n      0xffffffffffffffffffffffffffffffffffffffffffffffffffffffffffffffff\n        /* \"#utility.yul\":24494:24568   */\n      div\n        /* \"#utility.yul\":24491:24492   */\n      dup4\n        /* \"#utility.yul\":24488:24569   */\n      gt\n        /* \"#utility.yul\":24483:24484   */\n      dup3\n        /* \"#utility.yul\":24476:24485   */\n      iszero\n        /* \"#utility.yul\":24469:24486   */\n      iszero\n        /* \"#utility.yul\":24465:24570   */\n      and\n        /* \"#utility.yul\":24462:24593   */\n      iszero\n      tag_740\n      jumpi\n        /* \"#utility.yul\":24573:24591   */\n      tag_741\n      tag_730\n      jump\t// in\n    tag_741:\n        /* \"#utility.yul\":24462:24593   */\n    tag_740:\n        /* \"#utility.yul\":24621:24622   */\n      dup3\n        /* \"#utility.yul\":24618:24619   */\n      dup3\n        /* \"#utility.yul\":24614:24623   */\n      mul\n        /* \"#utility.yul\":24603:24623   */\n      swap1\n      pop\n        /* \"#utility.yul\":24281:24629   */\n      swap3\n      swap2\n      pop\n      pop\n      jump\t// out\n        /* \"#utility.yul\":24635:24731   */\n    tag_632:\n        /* \"#utility.yul\":24672:24679   */\n      0x00\n        /* \"#utility.yul\":24701:24725   */\n      tag_743\n        /* \"#utility.yul\":24719:24724   */\n      dup3\n        /* \"#utility.yul\":24701:24725   */\n      tag_744\n      jump\t// in\n    tag_743:\n        /* \"#utility.yul\":24690:24725   */\n      swap1\n      pop\n        /* \"#utility.yul\":24635:24731   */\n      swap2\n      swap1\n      pop\n      jump\t// out\n        /* \"#utility.yul\":24737:24847   */\n    tag_745:\n        /* \"#utility.yul\":24788:24795   */\n      0x00\n        /* \"#utility.yul\":24817:24841   */\n      tag_747\n        /* \"#utility.yul\":24835:24840   */\n      dup3\n        /* \"#utility.yul\":24817:24841   */\n      tag_632\n      jump\t// in\n    tag_747:\n        /* \"#utility.yul\":24806:24841   */\n      swap1\n      pop\n        /* \"#utility.yul\":24737:24847   */\n      swap2\n      swap1\n      pop\n      jump\t// out\n        /* \"#utility.yul\":24853:24964   */\n    tag_748:\n        /* \"#utility.yul\":24905:24912   */\n      0x00\n        /* \"#utility.yul\":24934:24958   */\n      tag_750\n        /* \"#utility.yul\":24952:24957   */\n      dup3\n        /* \"#utility.yul\":24934:24958   */\n      tag_632\n      jump\t// in\n    tag_750:\n        /* \"#utility.yul\":24923:24958   */\n      swap1\n      pop\n        /* \"#utility.yul\":24853:24964   */\n      swap2\n      swap1\n      pop\n      jump\t// out\n        /* \"#utility.yul\":24970:25085   */\n    tag_751:\n        /* \"#utility.yul\":25026:25033   */\n      0x00\n        /* \"#utility.yul\":25055:25079   */\n      tag_753\n        /* \"#utility.yul\":25073:25078   */\n      dup3\n        /* \"#utility.yul\":25055:25079   */\n      tag_632\n      jump\t// in\n    tag_753:\n        /* \"#utility.yul\":25044:25079   */\n      swap1\n      pop\n        /* \"#utility.yul\":24970:25085   */\n      swap2\n      swap1\n      pop\n      jump\t// out\n        /* \"#utility.yul\":25091:25197   */\n    tag_754:\n        /* \"#utility.yul\":25138:25145   */\n      0x00\n        /* \"#utility.yul\":25167:25191   */\n      tag_756\n        /* \"#utility.yul\":25185:25190   */\n      dup3\n        /* \"#utility.yul\":25167:25191   */\n      tag_632\n      jump\t// in\n    tag_756:\n        /* \"#utility.yul\":25156:25191   */\n      swap1\n      pop\n        /* \"#utility.yul\":25091:25197   */\n      swap2\n      swap1\n      pop\n      jump\t// out\n        /* \"#utility.yul\":25203:25321   */\n    tag_757:\n        /* \"#utility.yul\":25262:25269   */\n      0x00\n        /* \"#utility.yul\":25291:25315   */\n      tag_759\n        /* \"#utility.yul\":25309:25314   */\n      dup3\n        /* \"#utility.yul\":25291:25315   */\n      tag_632\n      jump\t// in\n    tag_759:\n        /* \"#utility.yul\":25280:25315   */\n      swap1\n      pop\n        /* \"#utility.yul\":25203:25321   */\n      swap2\n      swap1\n      pop\n      jump\t// out\n        /* \"#utility.yul\":25327:25444   */\n    tag_760:\n        /* \"#utility.yul\":25385:25392   */\n      0x00\n        /* \"#utility.yul\":25414:25438   */\n      tag_762\n        /* \"#utility.yul\":25432:25437   */\n      dup3\n        /* \"#utility.yul\":25414:25438   */\n      tag_632\n      jump\t// in\n    tag_762:\n        /* \"#utility.yul\":25403:25438   */\n      swap1\n      pop\n        /* \"#utility.yul\":25327:25444   */\n      swap2\n      swap1\n      pop\n      jump\t// out\n        /* \"#utility.yul\":25450:25562   */\n    tag_763:\n        /* \"#utility.yul\":25503:25510   */\n      0x00\n        /* \"#utility.yul\":25532:25556   */\n      tag_765\n        /* \"#utility.yul\":25550:25555   */\n      dup3\n        /* \"#utility.yul\":25532:25556   */\n      tag_632\n      jump\t// in\n    tag_765:\n        /* \"#utility.yul\":25521:25556   */\n      swap1\n      pop\n        /* \"#utility.yul\":25450:25562   */\n      swap2\n      swap1\n      pop\n      jump\t// out\n        /* \"#utility.yul\":25568:25678   */\n    tag_766:\n        /* \"#utility.yul\":25619:25626   */\n      0x00\n        /* \"#utility.yul\":25648:25672   */\n      tag_768\n        /* \"#utility.yul\":25666:25671   */\n      dup3\n        /* \"#utility.yul\":25648:25672   */\n      tag_632\n      jump\t// in\n    tag_768:\n        /* \"#utility.yul\":25637:25672   */\n      swap1\n      pop\n        /* \"#utility.yul\":25568:25678   */\n      swap2\n      swap1\n      pop\n      jump\t// out\n        /* \"#utility.yul\":25684:25810   */\n    tag_744:\n        /* \"#utility.yul\":25721:25728   */\n      0x00\n        /* \"#utility.yul\":25761:25803   */\n      0xffffffffffffffffffffffffffffffffffffffff\n        /* \"#utility.yul\":25754:25759   */\n      dup3\n        /* \"#utility.yul\":25750:25804   */\n      and\n        /* \"#utility.yul\":25739:25804   */\n      swap1\n      pop\n        /* \"#utility.yul\":25684:25810   */\n      swap2\n      swap1\n      pop\n      jump\t// out\n        /* \"#utility.yul\":25816:25893   */\n    tag_687:\n        /* \"#utility.yul\":25853:25860   */\n      0x00\n        /* \"#utility.yul\":25882:25887   */\n      dup2\n        /* \"#utility.yul\":25871:25887   */\n      swap1\n      pop\n        /* \"#utility.yul\":25816:25893   */\n      swap2\n      swap1\n      pop\n      jump\t// out\n        /* \"#utility.yul\":25899:26039   */\n    tag_653:\n        /* \"#utility.yul\":25963:25972   */\n      0x00\n        /* \"#utility.yul\":25996:26033   */\n      tag_772\n        /* \"#utility.yul\":26027:26032   */\n      dup3\n        /* \"#utility.yul\":25996:26033   */\n      tag_773\n      jump\t// in\n    tag_772:\n        /* \"#utility.yul\":25983:26033   */\n      swap1\n      pop\n        /* \"#utility.yul\":25899:26039   */\n      swap2\n      swap1\n      pop\n      jump\t// out\n        /* \"#utility.yul\":26045:26171   */\n    tag_773:\n        /* \"#utility.yul\":26095:26104   */\n      0x00\n        /* \"#utility.yul\":26128:26165   */\n      tag_775\n        /* \"#utility.yul\":26159:26164   */\n      dup3\n        /* \"#utility.yul\":26128:26165   */\n      tag_776\n      jump\t// in\n    tag_775:\n        /* \"#utility.yul\":26115:26165   */\n      swap1\n      pop\n        /* \"#utility.yul\":26045:26171   */\n      swap2\n      swap1\n      pop\n      jump\t// out\n        /* \"#utility.yul\":26177:26290   */\n    tag_776:\n        /* \"#utility.yul\":26227:26236   */\n      0x00\n        /* \"#utility.yul\":26260:26284   */\n      tag_778\n        /* \"#utility.yul\":26278:26283   */\n      dup3\n        /* \"#utility.yul\":26260:26284   */\n      tag_744\n      jump\t// in\n    tag_778:\n        /* \"#utility.yul\":26247:26284   */\n      swap1\n      pop\n        /* \"#utility.yul\":26177:26290   */\n      swap2\n      swap1\n      pop\n      jump\t// out\n        /* \"#utility.yul\":26296:26603   */\n    tag_661:\n        /* \"#utility.yul\":26364:26365   */\n      0x00\n        /* \"#utility.yul\":26374:26487   */\n    tag_780:\n        /* \"#utility.yul\":26388:26394   */\n      dup4\n        /* \"#utility.yul\":26385:26386   */\n      dup2\n        /* \"#utility.yul\":26382:26395   */\n      lt\n        /* \"#utility.yul\":26374:26487   */\n      iszero\n      tag_782\n      jumpi\n        /* \"#utility.yul\":26473:26474   */\n      dup1\n        /* \"#utility.yul\":26468:26471   */\n      dup3\n        /* \"#utility.yul\":26464:26475   */\n      add\n        /* \"#utility.yul\":26458:26476   */\n      mload\n        /* \"#utility.yul\":26454:26455   */\n      dup2\n        /* \"#utility.yul\":26449:26452   */\n      dup5\n        /* \"#utility.yul\":26445:26456   */\n      add\n        /* \"#utility.yul\":26438:26477   */\n      mstore\n        /* \"#utility.yul\":26410:26412   */\n      0x20\n        /* \"#utility.yul\":26407:26408   */\n      dup2\n        /* \"#utility.yul\":26403:26413   */\n      add\n        /* \"#utility.yul\":26398:26413   */\n      swap1\n      pop\n        /* \"#utility.yul\":26374:26487   */\n      jump(tag_780)\n    tag_782:\n        /* \"#utility.yul\":26505:26511   */\n      dup4\n        /* \"#utility.yul\":26502:26503   */\n      dup2\n        /* \"#utility.yul\":26499:26512   */\n      gt\n        /* \"#utility.yul\":26496:26597   */\n      iszero\n      tag_783\n      jumpi\n        /* \"#utility.yul\":26585:26586   */\n      0x00\n        /* \"#utility.yul\":26576:26582   */\n      dup5\n        /* \"#utility.yul\":26571:26574   */\n      dup5\n        /* \"#utility.yul\":26567:26583   */\n      add\n        /* \"#utility.yul\":26560:26587   */\n      mstore\n        /* \"#utility.yul\":26496:26597   */\n    tag_783:\n        /* \"#utility.yul\":26345:26603   */\n      pop\n        /* \"#utility.yul\":26296:26603   */\n      pop\n      pop\n      pop\n      jump\t// out\n        /* \"#utility.yul\":26609:26890   */\n    tag_711:\n        /* \"#utility.yul\":26692:26719   */\n      tag_785\n        /* \"#utility.yul\":26714:26718   */\n      dup3\n        /* \"#utility.yul\":26692:26719   */\n      tag_663\n      jump\t// in\n    tag_785:\n        /* \"#utility.yul\":26684:26690   */\n      dup2\n        /* \"#utility.yul\":26680:26720   */\n      add\n        /* \"#utility.yul\":26822:26828   */\n      dup2\n        /* \"#utility.yul\":26810:26820   */\n      dup2\n        /* \"#utility.yul\":26807:26829   */\n      lt\n        /* \"#utility.yul\":26786:26804   */\n      0xffffffffffffffff\n        /* \"#utility.yul\":26774:26784   */\n      dup3\n        /* \"#utility.yul\":26771:26805   */\n      gt\n        /* \"#utility.yul\":26768:26830   */\n      or\n        /* \"#utility.yul\":26765:26853   */\n      iszero\n      tag_786\n      jumpi\n        /* \"#utility.yul\":26833:26851   */\n      tag_787\n      tag_180\n      jump\t// in\n    tag_787:\n        /* \"#utility.yul\":26765:26853   */\n    tag_786:\n        /* \"#utility.yul\":26873:26883   */\n      dup1\n        /* \"#utility.yul\":26869:26871   */\n      0x40\n        /* \"#utility.yul\":26862:26884   */\n      mstore\n        /* \"#utility.yul\":26652:26890   */\n      pop\n        /* \"#utility.yul\":26609:26890   */\n      pop\n      pop\n      jump\t// out\n        /* \"#utility.yul\":26896:27129   */\n    tag_138:\n        /* \"#utility.yul\":26935:26938   */\n      0x00\n        /* \"#utility.yul\":26958:26982   */\n      tag_789\n        /* \"#utility.yul\":26976:26981   */\n      dup3\n        /* \"#utility.yul\":26958:26982   */\n      tag_687\n      jump\t// in\n    tag_789:\n        /* \"#utility.yul\":26949:26982   */\n      swap2\n      pop\n        /* \"#utility.yul\":27004:27070   */\n      0xffffffffffffffffffffffffffffffffffffffffffffffffffffffffffffffff\n        /* \"#utility.yul\":26997:27002   */\n      dup3\n        /* \"#utility.yul\":26994:27071   */\n      eq\n        /* \"#utility.yul\":26991:27094   */\n      iszero\n      tag_790\n      jumpi\n        /* \"#utility.yul\":27074:27092   */\n      tag_791\n      tag_730\n      jump\t// in\n    tag_791:\n        /* \"#utility.yul\":26991:27094   */\n    tag_790:\n        /* \"#utility.yul\":27121:27122   */\n      0x01\n        /* \"#utility.yul\":27114:27119   */\n      dup3\n        /* \"#utility.yul\":27110:27123   */\n      add\n        /* \"#utility.yul\":27103:27123   */\n      swap1\n      pop\n        /* \"#utility.yul\":26896:27129   */\n      swap2\n      swap1\n      pop\n      jump\t// out\n        /* \"#utility.yul\":27135:27315   */\n    tag_730:\n        /* \"#utility.yul\":27183:27260   */\n      0x4e487b7100000000000000000000000000000000000000000000000000000000\n        /* \"#utility.yul\":27180:27181   */\n      0x00\n        /* \"#utility.yul\":27173:27261   */\n      mstore\n        /* \"#utility.yul\":27280:27284   */\n      0x11\n        /* \"#utility.yul\":27277:27278   */\n      0x04\n        /* \"#utility.yul\":27270:27285   */\n      mstore\n        /* \"#utility.yul\":27304:27308   */\n      0x24\n        /* \"#utility.yul\":27301:27302   */\n      0x00\n        /* \"#utility.yul\":27294:27309   */\n      revert\n        /* \"#utility.yul\":27321:27501   */\n    tag_736:\n        /* \"#utility.yul\":27369:27446   */\n      0x4e487b7100000000000000000000000000000000000000000000000000000000\n        /* \"#utility.yul\":27366:27367   */\n      0x00\n        /* \"#utility.yul\":27359:27447   */\n      mstore\n        /* \"#utility.yul\":27466:27470   */\n      0x12\n        /* \"#utility.yul\":27463:27464   */\n      0x04\n        /* \"#utility.yul\":27456:27471   */\n      mstore\n        /* \"#utility.yul\":27490:27494   */\n      0x24\n        /* \"#utility.yul\":27487:27488   */\n      0x00\n        /* \"#utility.yul\":27480:27495   */\n      revert\n        /* \"#utility.yul\":27507:27687   */\n    tag_125:\n        /* \"#utility.yul\":27555:27632   */\n      0x4e487b7100000000000000000000000000000000000000000000000000000000\n        /* \"#utility.yul\":27552:27553   */\n      0x00\n        /* \"#utility.yul\":27545:27633   */\n      mstore\n        /* \"#utility.yul\":27652:27656   */\n      0x32\n        /* \"#utility.yul\":27649:27650   */\n      0x04\n        /* \"#utility.yul\":27642:27657   */\n      mstore\n        /* \"#utility.yul\":27676:27680   */\n      0x24\n        /* \"#utility.yul\":27673:27674   */\n      0x00\n        /* \"#utility.yul\":27666:27681   */\n      revert\n        /* \"#utility.yul\":27693:27873   */\n    tag_180:\n        /* \"#utility.yul\":27741:27818   */\n      0x4e487b7100000000000000000000000000000000000000000000000000000000\n        /* \"#utility.yul\":27738:27739   */\n      0x00\n        /* \"#utility.yul\":27731:27819   */\n      mstore\n        /* \"#utility.yul\":27838:27842   */\n      0x41\n        /* \"#utility.yul\":27835:27836   */\n      0x04\n        /* \"#utility.yul\":27828:27843   */\n      mstore\n        /* \"#utility.yul\":27862:27866   */\n      0x24\n        /* \"#utility.yul\":27859:27860   */\n      0x00\n        /* \"#utility.yul\":27852:27867   */\n      revert\n        /* \"#utility.yul\":27879:27996   */\n    tag_474:\n        /* \"#utility.yul\":27988:27989   */\n      0x00\n        /* \"#utility.yul\":27985:27986   */\n      dup1\n        /* \"#utility.yul\":27978:27990   */\n      revert\n        /* \"#utility.yul\":28002:28119   */\n    tag_519:\n        /* \"#utility.yul\":28111:28112   */\n      0x00\n        /* \"#utility.yul\":28108:28109   */\n      dup1\n        /* \"#utility.yul\":28101:28113   */\n      revert\n        /* \"#utility.yul\":28248:28365   */\n    tag_445:\n        /* \"#utility.yul\":28357:28358   */\n      0x00\n        /* \"#utility.yul\":28354:28355   */\n      dup1\n        /* \"#utility.yul\":28347:28359   */\n      revert\n        /* \"#utility.yul\":28371:28488   */\n    tag_565:\n        /* \"#utility.yul\":28480:28481   */\n      0x00\n        /* \"#utility.yul\":28477:28478   */\n      dup1\n        /* \"#utility.yul\":28470:28482   */\n      revert\n        /* \"#utility.yul\":28494:28611   */\n    tag_554:\n        /* \"#utility.yul\":28603:28604   */\n      0x00\n        /* \"#utility.yul\":28600:28601   */\n      dup1\n        /* \"#utility.yul\":28593:28605   */\n      revert\n        /* \"#utility.yul\":28617:28719   */\n    tag_663:\n        /* \"#utility.yul\":28658:28664   */\n      0x00\n        /* \"#utility.yul\":28709:28711   */\n      0x1f\n        /* \"#utility.yul\":28705:28712   */\n      not\n        /* \"#utility.yul\":28700:28702   */\n      0x1f\n        /* \"#utility.yul\":28693:28698   */\n      dup4\n        /* \"#utility.yul\":28689:28703   */\n      add\n        /* \"#utility.yul\":28685:28713   */\n      and\n        /* \"#utility.yul\":28675:28713   */\n      swap1\n      pop\n        /* \"#utility.yul\":28617:28719   */\n      swap2\n      swap1\n      pop\n      jump\t// out\n        /* \"#utility.yul\":28725:28950   */\n    tag_668:\n        /* \"#utility.yul\":28865:28899   */\n      0x4f776e61626c653a206e6577206f776e657220697320746865207a65726f2061\n        /* \"#utility.yul\":28861:28862   */\n      0x00\n        /* \"#utility.yul\":28853:28859   */\n      dup3\n        /* \"#utility.yul\":28849:28863   */\n      add\n        /* \"#utility.yul\":28842:28900   */\n      mstore\n        /* \"#utility.yul\":28934:28942   */\n      0x6464726573730000000000000000000000000000000000000000000000000000\n        /* \"#utility.yul\":28929:28931   */\n      0x20\n        /* \"#utility.yul\":28921:28927   */\n      dup3\n        /* \"#utility.yul\":28917:28932   */\n      add\n        /* \"#utility.yul\":28910:28943   */\n      mstore\n        /* \"#utility.yul\":28725:28950   */\n      pop\n      jump\t// out\n        /* \"#utility.yul\":28956:29133   */\n    tag_673:\n        /* \"#utility.yul\":29096:29125   */\n      0x536166654d6174683a206164646974696f6e206f766572666c6f770000000000\n        /* \"#utility.yul\":29092:29093   */\n      0x00\n        /* \"#utility.yul\":29084:29090   */\n      dup3\n        /* \"#utility.yul\":29080:29094   */\n      add\n        /* \"#utility.yul\":29073:29126   */\n      mstore\n        /* \"#utility.yul\":28956:29133   */\n      pop\n      jump\t// out\n        /* \"#utility.yul\":29139:29359   */\n    tag_678:\n        /* \"#utility.yul\":29279:29313   */\n      0x536166654d6174683a206d756c7469706c69636174696f6e206f766572666c6f\n        /* \"#utility.yul\":29275:29276   */\n      0x00\n        /* \"#utility.yul\":29267:29273   */\n      dup3\n        /* \"#utility.yul\":29263:29277   */\n      add\n        /* \"#utility.yul\":29256:29314   */\n      mstore\n        /* \"#utility.yul\":29348:29351   */\n      0x7700000000000000000000000000000000000000000000000000000000000000\n        /* \"#utility.yul\":29343:29345   */\n      0x20\n        /* \"#utility.yul\":29335:29341   */\n      dup3\n        /* \"#utility.yul\":29331:29346   */\n      add\n        /* \"#utility.yul\":29324:29352   */\n      mstore\n        /* \"#utility.yul\":29139:29359   */\n      pop\n      jump\t// out\n        /* \"#utility.yul\":29365:29547   */\n    tag_683:\n        /* \"#utility.yul\":29505:29539   */\n      0x4f776e61626c653a2063616c6c6572206973206e6f7420746865206f776e6572\n        /* \"#utility.yul\":29501:29502   */\n      0x00\n        /* \"#utility.yul\":29493:29499   */\n      dup3\n        /* \"#utility.yul\":29489:29503   */\n      add\n        /* \"#utility.yul\":29482:29540   */\n      mstore\n        /* \"#utility.yul\":29365:29547   */\n      pop\n      jump\t// out\n        /* \"#utility.yul\":29553:29675   */\n    tag_466:\n        /* \"#utility.yul\":29626:29650   */\n      tag_809\n        /* \"#utility.yul\":29644:29649   */\n      dup2\n        /* \"#utility.yul\":29626:29650   */\n      tag_632\n      jump\t// in\n    tag_809:\n        /* \"#utility.yul\":29619:29624   */\n      dup2\n        /* \"#utility.yul\":29616:29651   */\n      eq\n        /* \"#utility.yul\":29606:29669   */\n      tag_810\n      jumpi\n        /* \"#utility.yul\":29665:29666   */\n      0x00\n        /* \"#utility.yul\":29662:29663   */\n      dup1\n        /* \"#utility.yul\":29655:29667   */\n      revert\n        /* \"#utility.yul\":29606:29669   */\n    tag_810:\n        /* \"#utility.yul\":29553:29675   */\n      pop\n      jump\t// out\n        /* \"#utility.yul\":29681:29831   */\n    tag_484:\n        /* \"#utility.yul\":29768:29806   */\n      tag_812\n        /* \"#utility.yul\":29800:29805   */\n      dup2\n        /* \"#utility.yul\":29768:29806   */\n      tag_745\n      jump\t// in\n    tag_812:\n        /* \"#utility.yul\":29761:29766   */\n      dup2\n        /* \"#utility.yul\":29758:29807   */\n      eq\n        /* \"#utility.yul\":29748:29825   */\n      tag_813\n      jumpi\n        /* \"#utility.yul\":29821:29822   */\n      0x00\n        /* \"#utility.yul\":29818:29819   */\n      dup1\n        /* \"#utility.yul\":29811:29823   */\n      revert\n        /* \"#utility.yul\":29748:29825   */\n    tag_813:\n        /* \"#utility.yul\":29681:29831   */\n      pop\n      jump\t// out\n        /* \"#utility.yul\":29837:29989   */\n    tag_488:\n        /* \"#utility.yul\":29925:29964   */\n      tag_815\n        /* \"#utility.yul\":29958:29963   */\n      dup2\n        /* \"#utility.yul\":29925:29964   */\n      tag_748\n      jump\t// in\n    tag_815:\n        /* \"#utility.yul\":29918:29923   */\n      dup2\n        /* \"#utility.yul\":29915:29965   */\n      eq\n        /* \"#utility.yul\":29905:29983   */\n      tag_816\n      jumpi\n        /* \"#utility.yul\":29979:29980   */\n      0x00\n        /* \"#utility.yul\":29976:29977   */\n      dup1\n        /* \"#utility.yul\":29969:29981   */\n      revert\n        /* \"#utility.yul\":29905:29983   */\n    tag_816:\n        /* \"#utility.yul\":29837:29989   */\n      pop\n      jump\t// out\n        /* \"#utility.yul\":29995:30155   */\n    tag_495:\n        /* \"#utility.yul\":30087:30130   */\n      tag_818\n        /* \"#utility.yul\":30124:30129   */\n      dup2\n        /* \"#utility.yul\":30087:30130   */\n      tag_751\n      jump\t// in\n    tag_818:\n        /* \"#utility.yul\":30080:30085   */\n      dup2\n        /* \"#utility.yul\":30077:30131   */\n      eq\n        /* \"#utility.yul\":30067:30149   */\n      tag_819\n      jumpi\n        /* \"#utility.yul\":30145:30146   */\n      0x00\n        /* \"#utility.yul\":30142:30143   */\n      dup1\n        /* \"#utility.yul\":30135:30147   */\n      revert\n        /* \"#utility.yul\":30067:30149   */\n    tag_819:\n        /* \"#utility.yul\":29995:30155   */\n      pop\n      jump\t// out\n        /* \"#utility.yul\":30161:30303   */\n    tag_498:\n        /* \"#utility.yul\":30244:30278   */\n      tag_821\n        /* \"#utility.yul\":30272:30277   */\n      dup2\n        /* \"#utility.yul\":30244:30278   */\n      tag_754\n      jump\t// in\n    tag_821:\n        /* \"#utility.yul\":30237:30242   */\n      dup2\n        /* \"#utility.yul\":30234:30279   */\n      eq\n        /* \"#utility.yul\":30224:30297   */\n      tag_822\n      jumpi\n        /* \"#utility.yul\":30293:30294   */\n      0x00\n        /* \"#utility.yul\":30290:30291   */\n      dup1\n        /* \"#utility.yul\":30283:30295   */\n      revert\n        /* \"#utility.yul\":30224:30297   */\n    tag_822:\n        /* \"#utility.yul\":30161:30303   */\n      pop\n      jump\t// out\n        /* \"#utility.yul\":30309:30475   */\n    tag_502:\n        /* \"#utility.yul\":30404:30450   */\n      tag_824\n        /* \"#utility.yul\":30444:30449   */\n      dup2\n        /* \"#utility.yul\":30404:30450   */\n      tag_757\n      jump\t// in\n    tag_824:\n        /* \"#utility.yul\":30397:30402   */\n      dup2\n        /* \"#utility.yul\":30394:30451   */\n      eq\n        /* \"#utility.yul\":30384:30469   */\n      tag_825\n      jumpi\n        /* \"#utility.yul\":30465:30466   */\n      0x00\n        /* \"#utility.yul\":30462:30463   */\n      dup1\n        /* \"#utility.yul\":30455:30467   */\n      revert\n        /* \"#utility.yul\":30384:30469   */\n    tag_825:\n        /* \"#utility.yul\":30309:30475   */\n      pop\n      jump\t// out\n        /* \"#utility.yul\":30481:30645   */\n    tag_506:\n        /* \"#utility.yul\":30575:30620   */\n      tag_827\n        /* \"#utility.yul\":30614:30619   */\n      dup2\n        /* \"#utility.yul\":30575:30620   */\n      tag_760\n      jump\t// in\n    tag_827:\n        /* \"#utility.yul\":30568:30573   */\n      dup2\n        /* \"#utility.yul\":30565:30621   */\n      eq\n        /* \"#utility.yul\":30555:30639   */\n      tag_828\n      jumpi\n        /* \"#utility.yul\":30635:30636   */\n      0x00\n        /* \"#utility.yul\":30632:30633   */\n      dup1\n        /* \"#utility.yul\":30625:30637   */\n      revert\n        /* \"#utility.yul\":30555:30639   */\n    tag_828:\n        /* \"#utility.yul\":30481:30645   */\n      pop\n      jump\t// out\n        /* \"#utility.yul\":30651:30805   */\n    tag_510:\n        /* \"#utility.yul\":30740:30780   */\n      tag_830\n        /* \"#utility.yul\":30774:30779   */\n      dup2\n        /* \"#utility.yul\":30740:30780   */\n      tag_763\n      jump\t// in\n    tag_830:\n        /* \"#utility.yul\":30733:30738   */\n      dup2\n        /* \"#utility.yul\":30730:30781   */\n      eq\n        /* \"#utility.yul\":30720:30799   */\n      tag_831\n      jumpi\n        /* \"#utility.yul\":30795:30796   */\n      0x00\n        /* \"#utility.yul\":30792:30793   */\n      dup1\n        /* \"#utility.yul\":30785:30797   */\n      revert\n        /* \"#utility.yul\":30720:30799   */\n    tag_831:\n        /* \"#utility.yul\":30651:30805   */\n      pop\n      jump\t// out\n        /* \"#utility.yul\":30811:30961   */\n    tag_514:\n        /* \"#utility.yul\":30898:30936   */\n      tag_833\n        /* \"#utility.yul\":30930:30935   */\n      dup2\n        /* \"#utility.yul\":30898:30936   */\n      tag_766\n      jump\t// in\n    tag_833:\n        /* \"#utility.yul\":30891:30896   */\n      dup2\n        /* \"#utility.yul\":30888:30937   */\n      eq\n        /* \"#utility.yul\":30878:30955   */\n      tag_834\n      jumpi\n        /* \"#utility.yul\":30951:30952   */\n      0x00\n        /* \"#utility.yul\":30948:30949   */\n      dup1\n        /* \"#utility.yul\":30941:30953   */\n      revert\n        /* \"#utility.yul\":30878:30955   */\n    tag_834:\n        /* \"#utility.yul\":30811:30961   */\n      pop\n      jump\t// out\n        /* \"#utility.yul\":30967:31089   */\n    tag_548:\n        /* \"#utility.yul\":31040:31064   */\n      tag_836\n        /* \"#utility.yul\":31058:31063   */\n      dup2\n        /* \"#utility.yul\":31040:31064   */\n      tag_687\n      jump\t// in\n    tag_836:\n        /* \"#utility.yul\":31033:31038   */\n      dup2\n        /* \"#utility.yul\":31030:31065   */\n      eq\n        /* \"#utility.yul\":31020:31083   */\n      tag_837\n      jumpi\n        /* \"#utility.yul\":31079:31080   */\n      0x00\n        /* \"#utility.yul\":31076:31077   */\n      dup1\n        /* \"#utility.yul\":31069:31081   */\n      revert\n        /* \"#utility.yul\":31020:31083   */\n    tag_837:\n        /* \"#utility.yul\":30967:31089   */\n      pop\n      jump\t// out\n\n    auxdata: 0xa2646970667358221220f1f0383456122c61db19f6afe36945e9d7c4561e39541984c0926119533ca37664736f6c63430008070033\n}\n",
				"bytecode": {
					"linkReferences": {},
					"object": "6080604052670de0b6b3a764000060035562a066806005553480156200002457600080fd5b50604051620036d7380380620036d783398181016040528101906200004a919062000230565b6200006a6200005e6200013660201b60201c565b6200013e60201b60201c565b82600460006101000a81548173ffffffffffffffffffffffffffffffffffffffff021916908373ffffffffffffffffffffffffffffffffffffffff16021790555081600160006101000a81548173ffffffffffffffffffffffffffffffffffffffff021916908373ffffffffffffffffffffffffffffffffffffffff16021790555080600260006101000a81548173ffffffffffffffffffffffffffffffffffffffff021916908373ffffffffffffffffffffffffffffffffffffffff1602179055505050506200030d565b600033905090565b60008060009054906101000a900473ffffffffffffffffffffffffffffffffffffffff169050816000806101000a81548173ffffffffffffffffffffffffffffffffffffffff021916908373ffffffffffffffffffffffffffffffffffffffff1602179055508173ffffffffffffffffffffffffffffffffffffffff168173ffffffffffffffffffffffffffffffffffffffff167f8be0079c531659141344cd1fd0a4f28419497f9722a3daafe3b4186f6b6457e060405160405180910390a35050565b6000815190506200021381620002d9565b92915050565b6000815190506200022a81620002f3565b92915050565b6000806000606084860312156200024c576200024b620002d4565b5b60006200025c8682870162000219565b93505060206200026f8682870162000202565b9250506040620002828682870162000202565b9150509250925092565b60006200029982620002b4565b9050919050565b6000620002ad826200028c565b9050919050565b600073ffffffffffffffffffffffffffffffffffffffff82169050919050565b600080fd5b620002e4816200028c565b8114620002f057600080fd5b50565b620002fe81620002a0565b81146200030a57600080fd5b50565b6133ba806200031d6000396000f3fe608060405234801561001057600080fd5b50600436106101165760003560e01c806355b44eaf116100a2578063c0d7865511610071578063c0d786551461031d578063d979fb5f14610339578063dbb7934814610369578063e085f38e14610399578063f2fde38b146103c957610116565b806355b44eaf146102a7578063715018a6146102d75780638da5cb5b146102e15780638dd95002146102ff57610116565b8063215cc989116100e9578063215cc989146101db5780632f7c59801461020b5780633268cc561461023b5780633b979d4514610259578063484f4ea91461028957610116565b80631616f1241461011b5780631858882b1461014b57806318b4ae201461017b57806319047f8a146101ab575b600080fd5b61013560048036038101906101309190612842565b6103e5565b6040516101429190612d1b565b60405180910390f35b61016560048036038101906101609190612895565b610536565b6040516101729190612d1b565b60405180910390f35b610195600480360381019061019091906129d2565b6105fe565b6040516101a29190612d1b565b60405180910390f35b6101c560048036038101906101c09190612745565b610983565b6040516101d29190612d1b565b60405180910390f35b6101f560048036038101906101f09190612815565b610bda565b6040516102029190612d1b565b60405180910390f35b61022560048036038101906102209190612815565b6114b8565b6040516102329190612d1b565b60405180910390f35b610243611549565b6040516102509190612c5e565b60405180910390f35b610273600480360381019061026e9190612745565b61156f565b6040516102809190612d1b565b60405180910390f35b610291611755565b60405161029e9190612c43565b60405180910390f35b6102c160048036038101906102bc9190612895565b61177b565b6040516102ce9190612d1b565b60405180910390f35b6102df611845565b005b6102e96118cd565b6040516102f69190612c43565b60405180910390f35b6103076118f6565b6040516103149190612c43565b60405180910390f35b610337600480360381019061033291906128f1565b61191c565b005b610353600480360381019061034e9190612a25565b6119dc565b6040516103609190612d1b565b60405180910390f35b610383600480360381019061037e9190612a25565b611b2e565b6040516103909190612d1b565b60405180910390f35b6103b360048036038101906103ae9190612a8c565b611e24565b6040516103c09190612d1b565b60405180910390f35b6103e360048036038101906103de9190612745565b61201e565b005b6000808473ffffffffffffffffffffffffffffffffffffffff166370a08231846040518263ffffffff1660e01b81526004016104219190612c43565b60206040518083038186803b15801561043957600080fd5b505afa15801561044d573d6000803e3d6000fd5b505050506040513d601f19601f8201168201806040525081019061047191906129a5565b90506000600185141561048e5761048786610bda565b905061050b565b600085141561050a578573ffffffffffffffffffffffffffffffffffffffff16600160009054906101000a900473ffffffffffffffffffffffffffffffffffffffff1673ffffffffffffffffffffffffffffffffffffffff1614156104fd576104f68661156f565b9050610509565b61050686610983565b90505b5b5b61052b600354828461051d9190612ebf565b61211690919063ffffffff16565b925050509392505050565b6000806000905060005b83518110156105f357600161056e85838151811061056157610560613126565b5b60200260200101516114b8565b14156105ac5761059a84828151811061058a57610589613126565b5b60200260200101516001876103e5565b826105a59190612e38565b91506105e0565b6105d28482815181106105c2576105c1613126565b5b60200260200101516000876103e5565b826105dd9190612e38565b91505b80806105eb9061307f565b915050610540565b508091505092915050565b6000808273ffffffffffffffffffffffffffffffffffffffff16631526fe27866040518263ffffffff1660e01b815260040161063a9190612d1b565b60806040518083038186803b15801561065257600080fd5b505afa158015610666573d6000803e3d6000fd5b505050506040513d601f19601f8201168201806040525081019061068a9190612978565b905060006107368473ffffffffffffffffffffffffffffffffffffffff166317caf6f16040518163ffffffff1660e01b815260040160206040518083038186803b1580156106d757600080fd5b505afa1580156106eb573d6000803e3d6000fd5b505050506040513d601f19601f8201168201806040525081019061070f91906129a5565b610728600354856020015161216090919063ffffffff16565b61211690919063ffffffff16565b905060006107c08573ffffffffffffffffffffffffffffffffffffffff1663cb3cba556040518163ffffffff1660e01b815260040160206040518083038186803b15801561078357600080fd5b505afa158015610797573d6000803e3d6000fd5b505050506040513d601f19601f820116820180604052508101906107bb9190612772565b610983565b905060006108568673ffffffffffffffffffffffffffffffffffffffff1663f395db2c6040518163ffffffff1660e01b815260040160206040518083038186803b15801561080d57600080fd5b505afa158015610821573d6000803e3d6000fd5b505050506040513d601f19601f8201168201806040525081019061084591906129a5565b60055461216090919063ffffffff16565b90506000610881600354610873868561216090919063ffffffff16565b61211690919063ffffffff16565b9050600061092160648a73ffffffffffffffffffffffffffffffffffffffff166370a082318b6040518263ffffffff1660e01b81526004016108c39190612c43565b60206040518083038186803b1580156108db57600080fd5b505afa1580156108ef573d6000803e3d6000fd5b505050506040513d601f19601f8201168201806040525081019061091391906129a5565b61216090919063ffffffff16565b9050600081141561093b576000965050505050505061097c565b610973606461096583610957888761216090919063ffffffff16565b61211690919063ffffffff16565b61216090919063ffffffff16565b96505050505050505b9392505050565b600080600367ffffffffffffffff8111156109a1576109a0613155565b5b6040519080825280602002602001820160405280156109cf5781602001602082028036833780820191505090505b50905082816000815181106109e7576109e6613126565b5b602002602001019073ffffffffffffffffffffffffffffffffffffffff16908173ffffffffffffffffffffffffffffffffffffffff1681525050600160009054906101000a900473ffffffffffffffffffffffffffffffffffffffff1681600181518110610a5857610a57613126565b5b602002602001019073ffffffffffffffffffffffffffffffffffffffff16908173ffffffffffffffffffffffffffffffffffffffff1681525050600260009054906101000a900473ffffffffffffffffffffffffffffffffffffffff1681600281518110610ac957610ac8613126565b5b602002602001019073ffffffffffffffffffffffffffffffffffffffff16908173ffffffffffffffffffffffffffffffffffffffff1681525050600460009054906101000a900473ffffffffffffffffffffffffffffffffffffffff1673ffffffffffffffffffffffffffffffffffffffff1663d06ca61f600354836040518363ffffffff1660e01b8152600401610b62929190612d36565b60006040518083038186803b158015610b7a57600080fd5b505afa158015610b8e573d6000803e3d6000fd5b505050506040513d6000823e3d601f19601f82011682018060405250810190610bb7919061279f565b600281518110610bca57610bc9613126565b5b6020026020010151915050919050565b60008060008373ffffffffffffffffffffffffffffffffffffffff16630dfe16816040518163ffffffff1660e01b815260040160206040518083038186803b158015610c2557600080fd5b505afa158015610c39573d6000803e3d6000fd5b505050506040513d601f19601f82011682018060405250810190610c5d91906127e8565b73ffffffffffffffffffffffffffffffffffffffff16600160009054906101000a900473ffffffffffffffffffffffffffffffffffffffff1673ffffffffffffffffffffffffffffffffffffffff161415610e5657610e4f610d3b8573ffffffffffffffffffffffffffffffffffffffff16630dfe16816040518163ffffffff1660e01b815260040160206040518083038186803b158015610cfe57600080fd5b505afa158015610d12573d6000803e3d6000fd5b505050506040513d601f19601f82011682018060405250810190610d3691906127e8565b61156f565b8573ffffffffffffffffffffffffffffffffffffffff16630dfe16816040518163ffffffff1660e01b815260040160206040518083038186803b158015610d8157600080fd5b505afa158015610d95573d6000803e3d6000fd5b505050506040513d601f19601f82011682018060405250810190610db991906127e8565b73ffffffffffffffffffffffffffffffffffffffff166370a08231876040518263ffffffff1660e01b8152600401610df19190612c43565b60206040518083038186803b158015610e0957600080fd5b505afa158015610e1d573d6000803e3d6000fd5b505050506040513d601f19601f82011682018060405250810190610e4191906129a5565b61216090919063ffffffff16565b9150610ff6565b610ff3610edf8573ffffffffffffffffffffffffffffffffffffffff16630dfe16816040518163ffffffff1660e01b815260040160206040518083038186803b158015610ea257600080fd5b505afa158015610eb6573d6000803e3d6000fd5b505050506040513d601f19601f82011682018060405250810190610eda91906127e8565b610983565b8573ffffffffffffffffffffffffffffffffffffffff16630dfe16816040518163ffffffff1660e01b815260040160206040518083038186803b158015610f2557600080fd5b505afa158015610f39573d6000803e3d6000fd5b505050506040513d601f19601f82011682018060405250810190610f5d91906127e8565b73ffffffffffffffffffffffffffffffffffffffff166370a08231876040518263ffffffff1660e01b8152600401610f959190612c43565b60206040518083038186803b158015610fad57600080fd5b505afa158015610fc1573d6000803e3d6000fd5b505050506040513d601f19601f82011682018060405250810190610fe591906129a5565b61216090919063ffffffff16565b91505b8373ffffffffffffffffffffffffffffffffffffffff1663d21220a76040518163ffffffff1660e01b815260040160206040518083038186803b15801561103c57600080fd5b505afa158015611050573d6000803e3d6000fd5b505050506040513d601f19601f8201168201806040525081019061107491906127e8565b73ffffffffffffffffffffffffffffffffffffffff16600160009054906101000a900473ffffffffffffffffffffffffffffffffffffffff1673ffffffffffffffffffffffffffffffffffffffff16141561126d576112666111528573ffffffffffffffffffffffffffffffffffffffff1663d21220a76040518163ffffffff1660e01b815260040160206040518083038186803b15801561111557600080fd5b505afa158015611129573d6000803e3d6000fd5b505050506040513d601f19601f8201168201806040525081019061114d91906127e8565b61156f565b8573ffffffffffffffffffffffffffffffffffffffff1663d21220a76040518163ffffffff1660e01b815260040160206040518083038186803b15801561119857600080fd5b505afa1580156111ac573d6000803e3d6000fd5b505050506040513d601f19601f820116820180604052508101906111d091906127e8565b73ffffffffffffffffffffffffffffffffffffffff166370a08231876040518263ffffffff1660e01b81526004016112089190612c43565b60206040518083038186803b15801561122057600080fd5b505afa158015611234573d6000803e3d6000fd5b505050506040513d601f19601f8201168201806040525081019061125891906129a5565b61216090919063ffffffff16565b905061140d565b61140a6112f68573ffffffffffffffffffffffffffffffffffffffff1663d21220a76040518163ffffffff1660e01b815260040160206040518083038186803b1580156112b957600080fd5b505afa1580156112cd573d6000803e3d6000fd5b505050506040513d601f19601f820116820180604052508101906112f191906127e8565b610983565b8573ffffffffffffffffffffffffffffffffffffffff1663d21220a76040518163ffffffff1660e01b815260040160206040518083038186803b15801561133c57600080fd5b505afa158015611350573d6000803e3d6000fd5b505050506040513d601f19601f8201168201806040525081019061137491906127e8565b73ffffffffffffffffffffffffffffffffffffffff166370a08231876040518263ffffffff1660e01b81526004016113ac9190612c43565b60206040518083038186803b1580156113c457600080fd5b505afa1580156113d8573d6000803e3d6000fd5b505050506040513d601f19601f820116820180604052508101906113fc91906129a5565b61216090919063ffffffff16565b90505b6114af8473ffffffffffffffffffffffffffffffffffffffff166318160ddd6040518163ffffffff1660e01b815260040160206040518083038186803b15801561145657600080fd5b505afa15801561146a573d6000803e3d6000fd5b505050506040513d601f19601f8201168201806040525081019061148e91906129a5565b6114a183856121db90919063ffffffff16565b61211690919063ffffffff16565b92505050919050565b60008173ffffffffffffffffffffffffffffffffffffffff16630dfe16816040518163ffffffff1660e01b815260040160206040518083038186803b15801561150057600080fd5b505afa92505050801561153157506040513d601f19601f8201168201806040525081019061152e91906127e8565b60015b61153e5760009050611544565b50600190505b919050565b600460009054906101000a900473ffffffffffffffffffffffffffffffffffffffff1681565b600080600267ffffffffffffffff81111561158d5761158c613155565b5b6040519080825280602002602001820160405280156115bb5781602001602082028036833780820191505090505b50905082816000815181106115d3576115d2613126565b5b602002602001019073ffffffffffffffffffffffffffffffffffffffff16908173ffffffffffffffffffffffffffffffffffffffff1681525050600260009054906101000a900473ffffffffffffffffffffffffffffffffffffffff168160018151811061164457611643613126565b5b602002602001019073ffffffffffffffffffffffffffffffffffffffff16908173ffffffffffffffffffffffffffffffffffffffff1681525050600460009054906101000a900473ffffffffffffffffffffffffffffffffffffffff1673ffffffffffffffffffffffffffffffffffffffff1663d06ca61f600354836040518363ffffffff1660e01b81526004016116dd929190612d36565b60006040518083038186803b1580156116f557600080fd5b505afa158015611709573d6000803e3d6000fd5b505050506040513d6000823e3d601f19601f82011682018060405250810190611732919061279f565b60018151811061174557611744613126565b5b6020026020010151915050919050565b600260009054906101000a900473ffffffffffffffffffffffffffffffffffffffff1681565b6000806000905060005b835181101561183a5760016117b38583815181106117a6576117a5613126565b5b60200260200101516114b8565b14156117f2576117e0818583815181106117d0576117cf613126565b5b60200260200101516001886119dc565b826117eb9190612e38565b9150611827565b6118198185838151811061180957611808613126565b5b60200260200101516000886119dc565b826118249190612e38565b91505b80806118329061307f565b915050611785565b508091505092915050565b61184d612239565b73ffffffffffffffffffffffffffffffffffffffff1661186b6118cd565b73ffffffffffffffffffffffffffffffffffffffff16146118c1576040517f08c379a00000000000000000000000000000000000000000000000000000000081526004016118b890612cfb565b60405180910390fd5b6118cb6000612241565b565b60008060009054906101000a900473ffffffffffffffffffffffffffffffffffffffff16905090565b600160009054906101000a900473ffffffffffffffffffffffffffffffffffffffff1681565b611924612239565b73ffffffffffffffffffffffffffffffffffffffff166119426118cd565b73ffffffffffffffffffffffffffffffffffffffff1614611998576040517f08c379a000000000000000000000000000000000000000000000000000000000815260040161198f90612cfb565b60405180910390fd5b80600460006101000a81548173ffffffffffffffffffffffffffffffffffffffff021916908373ffffffffffffffffffffffffffffffffffffffff16021790555050565b6000808273ffffffffffffffffffffffffffffffffffffffff16636a6d964e876040518263ffffffff1660e01b8152600401611a189190612d1b565b60206040518083038186803b158015611a3057600080fd5b505afa158015611a44573d6000803e3d6000fd5b505050506040513d601f19601f82011682018060405250810190611a6891906129a5565b905060006001851415611a8557611a7e86610bda565b9050611b02565b6000851415611b01578573ffffffffffffffffffffffffffffffffffffffff16600160009054906101000a900473ffffffffffffffffffffffffffffffffffffffff1673ffffffffffffffffffffffffffffffffffffffff161415611af457611aed8661156f565b9050611b00565b611afd86610983565b90505b5b5b611b226003548284611b149190612ebf565b61211690919063ffffffff16565b92505050949350505050565b6000808273ffffffffffffffffffffffffffffffffffffffff16631526fe27876040518263ffffffff1660e01b8152600401611b6a9190612d1b565b60c06040518083038186803b158015611b8257600080fd5b505afa158015611b96573d6000803e3d6000fd5b505050506040513d601f19601f82011682018060405250810190611bba919061291e565b90506000611c668473ffffffffffffffffffffffffffffffffffffffff166317caf6f16040518163ffffffff1660e01b815260040160206040518083038186803b158015611c0757600080fd5b505afa158015611c1b573d6000803e3d6000fd5b505050506040513d601f19601f82011682018060405250810190611c3f91906129a5565b611c58600354856020015161216090919063ffffffff16565b61211690919063ffffffff16565b90506000611cf08573ffffffffffffffffffffffffffffffffffffffff1663cb3cba556040518163ffffffff1660e01b815260040160206040518083038186803b158015611cb357600080fd5b505afa158015611cc7573d6000803e3d6000fd5b505050506040513d601f19601f82011682018060405250810190611ceb9190612772565b610983565b90506000611d868673ffffffffffffffffffffffffffffffffffffffff1663f395db2c6040518163ffffffff1660e01b815260040160206040518083038186803b158015611d3d57600080fd5b505afa158015611d51573d6000803e3d6000fd5b505050506040513d601f19601f82011682018060405250810190611d7591906129a5565b60055461216090919063ffffffff16565b90506000611db1600354611da3868561216090919063ffffffff16565b61211690919063ffffffff16565b90506000611dc18b8b8b8b6119dc565b90506000811415611ddb5760009650505050505050611e1c565b611e136064611e0583611df7888761216090919063ffffffff16565b61211690919063ffffffff16565b61216090919063ffffffff16565b96505050505050505b949350505050565b6000808273ffffffffffffffffffffffffffffffffffffffff16631526fe27856040518263ffffffff1660e01b8152600401611e609190612d1b565b60806040518083038186803b158015611e7857600080fd5b505afa158015611e8c573d6000803e3d6000fd5b505050506040513d601f19601f82011682018060405250810190611eb0919061294b565b905060008160200151905060008473ffffffffffffffffffffffffffffffffffffffff166317caf6f16040518163ffffffff1660e01b815260040160206040518083038186803b158015611f0357600080fd5b505afa158015611f17573d6000803e3d6000fd5b505050506040513d601f19601f82011682018060405250810190611f3b91906129a5565b905060008573ffffffffffffffffffffffffffffffffffffffff16635990c5696040518163ffffffff1660e01b815260040160206040518083038186803b158015611f8557600080fd5b505afa158015611f99573d6000803e3d6000fd5b505050506040513d601f19601f82011682018060405250810190611fbd91906129a5565b90506000611fea61016d611fdc8460055461216090919063ffffffff16565b61211690919063ffffffff16565b905061201183612003868461216090919063ffffffff16565b61211690919063ffffffff16565b9550505050505092915050565b612026612239565b73ffffffffffffffffffffffffffffffffffffffff166120446118cd565b73ffffffffffffffffffffffffffffffffffffffff161461209a576040517f08c379a000000000000000000000000000000000000000000000000000000000815260040161209190612cfb565b60405180910390fd5b600073ffffffffffffffffffffffffffffffffffffffff168173ffffffffffffffffffffffffffffffffffffffff16141561210a576040517f08c379a000000000000000000000000000000000000000000000000000000000815260040161210190612c9b565b60405180910390fd5b61211381612241565b50565b600061215883836040518060400160405280601a81526020017f536166654d6174683a206469766973696f6e206279207a65726f000000000000815250612305565b905092915050565b60008083141561217357600090506121d5565b600082846121819190612ebf565b90508284826121909190612e8e565b146121d0576040517f08c379a00000000000000000000000000000000000000000000000000000000081526004016121c790612cdb565b60405180910390fd5b809150505b92915050565b60008082846121ea9190612e38565b90508381101561222f576040517f08c379a000000000000000000000000000000000000000000000000000000000815260040161222690612cbb565b60405180910390fd5b8091505092915050565b600033905090565b60008060009054906101000a900473ffffffffffffffffffffffffffffffffffffffff169050816000806101000a81548173ffffffffffffffffffffffffffffffffffffffff021916908373ffffffffffffffffffffffffffffffffffffffff1602179055508173ffffffffffffffffffffffffffffffffffffffff168173ffffffffffffffffffffffffffffffffffffffff167f8be0079c531659141344cd1fd0a4f28419497f9722a3daafe3b4186f6b6457e060405160405180910390a35050565b6000808311829061234c576040517f08c379a00000000000000000000000000000000000000000000000000000000081526004016123439190612c79565b60405180910390fd5b506000838561235b9190612e8e565b9050809150509392505050565b600061237b61237684612d8b565b612d66565b9050808382526020820190508285602086028201111561239e5761239d61318e565b5b60005b858110156123ce57816123b48882612522565b8452602084019350602083019250506001810190506123a1565b5050509392505050565b60006123eb6123e684612db7565b612d66565b9050808382526020820190508285602086028201111561240e5761240d61318e565b5b60005b8581101561243e57816124248882612730565b845260208401935060208301925050600181019050612411565b5050509392505050565b6000813590506124578161329e565b92915050565b60008151905061246c8161329e565b92915050565b600082601f83011261248757612486613184565b5b8135612497848260208601612368565b91505092915050565b600082601f8301126124b5576124b4613184565b5b81516124c58482602086016123d8565b91505092915050565b6000815190506124dd816132b5565b92915050565b6000813590506124f2816132cc565b92915050565b600081519050612507816132cc565b92915050565b60008151905061251c816132e3565b92915050565b600081359050612531816132fa565b92915050565b60008135905061254681613311565b92915050565b60008135905061255b81613328565b92915050565b6000813590506125708161333f565b92915050565b60008135905061258581613356565b92915050565b600060c082840312156125a1576125a0613189565b5b6125ab60c0612d66565b905060006125bb848285016124ce565b60008301525060206125cf84828501612730565b60208301525060406125e384828501612730565b60408301525060606125f784828501612730565b606083015250608061260b8482850161250d565b60808301525060a061261f848285016124ce565b60a08301525092915050565b60006080828403121561264157612640613189565b5b61264b6080612d66565b9050600061265b848285016124ce565b600083015250602061266f84828501612730565b602083015250604061268384828501612730565b604083015250606061269784828501612730565b60608301525092915050565b6000608082840312156126b9576126b8613189565b5b6126c36080612d66565b905060006126d3848285016124f8565b60008301525060206126e784828501612730565b60208301525060406126fb84828501612730565b604083015250606061270f84828501612730565b60608301525092915050565b60008135905061272a8161336d565b92915050565b60008151905061273f8161336d565b92915050565b60006020828403121561275b5761275a613198565b5b600061276984828501612448565b91505092915050565b60006020828403121561278857612787613198565b5b60006127968482850161245d565b91505092915050565b6000602082840312156127b5576127b4613198565b5b600082015167ffffffffffffffff8111156127d3576127d2613193565b5b6127df848285016124a0565b91505092915050565b6000602082840312156127fe576127fd613198565b5b600061280c848285016124ce565b91505092915050565b60006020828403121561282b5761282a613198565b5b600061283984828501612522565b91505092915050565b60008060006060848603121561285b5761285a613198565b5b600061286986828701612522565b935050602061287a8682870161271b565b925050604061288b86828701612537565b9150509250925092565b600080604083850312156128ac576128ab613198565b5b60006128ba85828601612537565b925050602083013567ffffffffffffffff8111156128db576128da613193565b5b6128e785828601612472565b9150509250929050565b60006020828403121561290757612906613198565b5b600061291584828501612576565b91505092915050565b600060c0828403121561293457612933613198565b5b60006129428482850161258b565b91505092915050565b60006080828403121561296157612960613198565b5b600061296f8482850161262b565b91505092915050565b60006080828403121561298e5761298d613198565b5b600061299c848285016126a3565b91505092915050565b6000602082840312156129bb576129ba613198565b5b60006129c984828501612730565b91505092915050565b6000806000606084860312156129eb576129ea613198565b5b60006129f98682870161271b565b9350506020612a0a868287016124e3565b9250506040612a1b86828701612561565b9150509250925092565b60008060008060808587031215612a3f57612a3e613198565b5b6000612a4d8782880161271b565b9450506020612a5e87828801612522565b9350506040612a6f8782880161271b565b9250506060612a8087828801612537565b91505092959194509250565b60008060408385031215612aa357612aa2613198565b5b6000612ab18582860161271b565b9250506020612ac28582860161254c565b9150509250929050565b6000612ad88383612ae4565b60208301905092915050565b612aed81612f19565b82525050565b612afc81612f19565b82525050565b6000612b0d82612df3565b612b178185612e16565b9350612b2283612de3565b8060005b83811015612b53578151612b3a8882612acc565b9750612b4583612e09565b925050600181019050612b26565b5085935050505092915050565b612b6981612fe5565b82525050565b6000612b7a82612dfe565b612b848185612e27565b9350612b9481856020860161301b565b612b9d8161319d565b840191505092915050565b6000612bb5602683612e27565b9150612bc0826131ae565b604082019050919050565b6000612bd8601b83612e27565b9150612be3826131fd565b602082019050919050565b6000612bfb602183612e27565b9150612c0682613226565b604082019050919050565b6000612c1e602083612e27565b9150612c2982613275565b602082019050919050565b612c3d81612fdb565b82525050565b6000602082019050612c586000830184612af3565b92915050565b6000602082019050612c736000830184612b60565b92915050565b60006020820190508181036000830152612c938184612b6f565b905092915050565b60006020820190508181036000830152612cb481612ba8565b9050919050565b60006020820190508181036000830152612cd481612bcb565b9050919050565b60006020820190508181036000830152612cf481612bee565b9050919050565b60006020820190508181036000830152612d1481612c11565b9050919050565b6000602082019050612d306000830184612c34565b92915050565b6000604082019050612d4b6000830185612c34565b8181036020830152612d5d8184612b02565b90509392505050565b6000612d70612d81565b9050612d7c828261304e565b919050565b6000604051905090565b600067ffffffffffffffff821115612da657612da5613155565b5b602082029050602081019050919050565b600067ffffffffffffffff821115612dd257612dd1613155565b5b602082029050602081019050919050565b6000819050602082019050919050565b600081519050919050565b600081519050919050565b6000602082019050919050565b600082825260208201905092915050565b600082825260208201905092915050565b6000612e4382612fdb565b9150612e4e83612fdb565b9250827fffffffffffffffffffffffffffffffffffffffffffffffffffffffffffffffff03821115612e8357612e826130c8565b5b828201905092915050565b6000612e9982612fdb565b9150612ea483612fdb565b925082612eb457612eb36130f7565b5b828204905092915050565b6000612eca82612fdb565b9150612ed583612fdb565b9250817fffffffffffffffffffffffffffffffffffffffffffffffffffffffffffffffff0483118215151615612f0e57612f0d6130c8565b5b828202905092915050565b6000612f2482612fbb565b9050919050565b6000612f3682612f19565b9050919050565b6000612f4882612f19565b9050919050565b6000612f5a82612f19565b9050919050565b6000612f6c82612f19565b9050919050565b6000612f7e82612f19565b9050919050565b6000612f9082612f19565b9050919050565b6000612fa282612f19565b9050919050565b6000612fb482612f19565b9050919050565b600073ffffffffffffffffffffffffffffffffffffffff82169050919050565b6000819050919050565b6000612ff082612ff7565b9050919050565b600061300282613009565b9050919050565b600061301482612fbb565b9050919050565b60005b8381101561303957808201518184015260208101905061301e565b83811115613048576000848401525b50505050565b6130578261319d565b810181811067ffffffffffffffff8211171561307657613075613155565b5b80604052505050565b600061308a82612fdb565b91507fffffffffffffffffffffffffffffffffffffffffffffffffffffffffffffffff8214156130bd576130bc6130c8565b5b600182019050919050565b7f4e487b7100000000000000000000000000000000000000000000000000000000600052601160045260246000fd5b7f4e487b7100000000000000000000000000000000000000000000000000000000600052601260045260246000fd5b7f4e487b7100000000000000000000000000000000000000000000000000000000600052603260045260246000fd5b7f4e487b7100000000000000000000000000000000000000000000000000000000600052604160045260246000fd5b600080fd5b600080fd5b600080fd5b600080fd5b600080fd5b6000601f19601f8301169050919050565b7f4f776e61626c653a206e6577206f776e657220697320746865207a65726f206160008201527f6464726573730000000000000000000000000000000000000000000000000000602082015250565b7f536166654d6174683a206164646974696f6e206f766572666c6f770000000000600082015250565b7f536166654d6174683a206d756c7469706c69636174696f6e206f766572666c6f60008201527f7700000000000000000000000000000000000000000000000000000000000000602082015250565b7f4f776e61626c653a2063616c6c6572206973206e6f7420746865206f776e6572600082015250565b6132a781612f19565b81146132b257600080fd5b50565b6132be81612f2b565b81146132c957600080fd5b50565b6132d581612f3d565b81146132e057600080fd5b50565b6132ec81612f4f565b81146132f757600080fd5b50565b61330381612f61565b811461330e57600080fd5b50565b61331a81612f73565b811461332557600080fd5b50565b61333181612f85565b811461333c57600080fd5b50565b61334881612f97565b811461335357600080fd5b50565b61335f81612fa9565b811461336a57600080fd5b50565b61337681612fdb565b811461338157600080fd5b5056fea2646970667358221220f1f0383456122c61db19f6afe36945e9d7c4561e39541984c0926119533ca37664736f6c63430008070033",
					"opcodes": "PUSH1 0x80 PUSH1 0x40 MSTORE PUSH8 0xDE0B6B3A7640000 PUSH1 0x3 SSTORE PUSH3 0xA06680 PUSH1 0x5 SSTORE CALLVALUE DUP1 ISZERO PUSH3 0x24 JUMPI PUSH1 0x0 DUP1 REVERT JUMPDEST POP PUSH1 0x40 MLOAD PUSH3 0x36D7 CODESIZE SUB DUP1 PUSH3 0x36D7 DUP4 CODECOPY DUP2 DUP2 ADD PUSH1 0x40 MSTORE DUP2 ADD SWAP1 PUSH3 0x4A SWAP2 SWAP1 PUSH3 0x230 JUMP JUMPDEST PUSH3 0x6A PUSH3 0x5E PUSH3 0x136 PUSH1 0x20 SHL PUSH1 0x20 SHR JUMP JUMPDEST PUSH3 0x13E PUSH1 0x20 SHL PUSH1 0x20 SHR JUMP JUMPDEST DUP3 PUSH1 0x4 PUSH1 0x0 PUSH2 0x100 EXP DUP2 SLOAD DUP2 PUSH20 0xFFFFFFFFFFFFFFFFFFFFFFFFFFFFFFFFFFFFFFFF MUL NOT AND SWAP1 DUP4 PUSH20 0xFFFFFFFFFFFFFFFFFFFFFFFFFFFFFFFFFFFFFFFF AND MUL OR SWAP1 SSTORE POP DUP2 PUSH1 0x1 PUSH1 0x0 PUSH2 0x100 EXP DUP2 SLOAD DUP2 PUSH20 0xFFFFFFFFFFFFFFFFFFFFFFFFFFFFFFFFFFFFFFFF MUL NOT AND SWAP1 DUP4 PUSH20 0xFFFFFFFFFFFFFFFFFFFFFFFFFFFFFFFFFFFFFFFF AND MUL OR SWAP1 SSTORE POP DUP1 PUSH1 0x2 PUSH1 0x0 PUSH2 0x100 EXP DUP2 SLOAD DUP2 PUSH20 0xFFFFFFFFFFFFFFFFFFFFFFFFFFFFFFFFFFFFFFFF MUL NOT AND SWAP1 DUP4 PUSH20 0xFFFFFFFFFFFFFFFFFFFFFFFFFFFFFFFFFFFFFFFF AND MUL OR SWAP1 SSTORE POP POP POP POP PUSH3 0x30D JUMP JUMPDEST PUSH1 0x0 CALLER SWAP1 POP SWAP1 JUMP JUMPDEST PUSH1 0x0 DUP1 PUSH1 0x0 SWAP1 SLOAD SWAP1 PUSH2 0x100 EXP SWAP1 DIV PUSH20 0xFFFFFFFFFFFFFFFFFFFFFFFFFFFFFFFFFFFFFFFF AND SWAP1 POP DUP2 PUSH1 0x0 DUP1 PUSH2 0x100 EXP DUP2 SLOAD DUP2 PUSH20 0xFFFFFFFFFFFFFFFFFFFFFFFFFFFFFFFFFFFFFFFF MUL NOT AND SWAP1 DUP4 PUSH20 0xFFFFFFFFFFFFFFFFFFFFFFFFFFFFFFFFFFFFFFFF AND MUL OR SWAP1 SSTORE POP DUP2 PUSH20 0xFFFFFFFFFFFFFFFFFFFFFFFFFFFFFFFFFFFFFFFF AND DUP2 PUSH20 0xFFFFFFFFFFFFFFFFFFFFFFFFFFFFFFFFFFFFFFFF AND PUSH32 0x8BE0079C531659141344CD1FD0A4F28419497F9722A3DAAFE3B4186F6B6457E0 PUSH1 0x40 MLOAD PUSH1 0x40 MLOAD DUP1 SWAP2 SUB SWAP1 LOG3 POP POP JUMP JUMPDEST PUSH1 0x0 DUP2 MLOAD SWAP1 POP PUSH3 0x213 DUP2 PUSH3 0x2D9 JUMP JUMPDEST SWAP3 SWAP2 POP POP JUMP JUMPDEST PUSH1 0x0 DUP2 MLOAD SWAP1 POP PUSH3 0x22A DUP2 PUSH3 0x2F3 JUMP JUMPDEST SWAP3 SWAP2 POP POP JUMP JUMPDEST PUSH1 0x0 DUP1 PUSH1 0x0 PUSH1 0x60 DUP5 DUP7 SUB SLT ISZERO PUSH3 0x24C JUMPI PUSH3 0x24B PUSH3 0x2D4 JUMP JUMPDEST JUMPDEST PUSH1 0x0 PUSH3 0x25C DUP7 DUP3 DUP8 ADD PUSH3 0x219 JUMP JUMPDEST SWAP4 POP POP PUSH1 0x20 PUSH3 0x26F DUP7 DUP3 DUP8 ADD PUSH3 0x202 JUMP JUMPDEST SWAP3 POP POP PUSH1 0x40 PUSH3 0x282 DUP7 DUP3 DUP8 ADD PUSH3 0x202 JUMP JUMPDEST SWAP2 POP POP SWAP3 POP SWAP3 POP SWAP3 JUMP JUMPDEST PUSH1 0x0 PUSH3 0x299 DUP3 PUSH3 0x2B4 JUMP JUMPDEST SWAP1 POP SWAP2 SWAP1 POP JUMP JUMPDEST PUSH1 0x0 PUSH3 0x2AD DUP3 PUSH3 0x28C JUMP JUMPDEST SWAP1 POP SWAP2 SWAP1 POP JUMP JUMPDEST PUSH1 0x0 PUSH20 0xFFFFFFFFFFFFFFFFFFFFFFFFFFFFFFFFFFFFFFFF DUP3 AND SWAP1 POP SWAP2 SWAP1 POP JUMP JUMPDEST PUSH1 0x0 DUP1 REVERT JUMPDEST PUSH3 0x2E4 DUP2 PUSH3 0x28C JUMP JUMPDEST DUP2 EQ PUSH3 0x2F0 JUMPI PUSH1 0x0 DUP1 REVERT JUMPDEST POP JUMP JUMPDEST PUSH3 0x2FE DUP2 PUSH3 0x2A0 JUMP JUMPDEST DUP2 EQ PUSH3 0x30A JUMPI PUSH1 0x0 DUP1 REVERT JUMPDEST POP JUMP JUMPDEST PUSH2 0x33BA DUP1 PUSH3 0x31D PUSH1 0x0 CODECOPY PUSH1 0x0 RETURN INVALID PUSH1 0x80 PUSH1 0x40 MSTORE CALLVALUE DUP1 ISZERO PUSH2 0x10 JUMPI PUSH1 0x0 DUP1 REVERT JUMPDEST POP PUSH1 0x4 CALLDATASIZE LT PUSH2 0x116 JUMPI PUSH1 0x0 CALLDATALOAD PUSH1 0xE0 SHR DUP1 PUSH4 0x55B44EAF GT PUSH2 0xA2 JUMPI DUP1 PUSH4 0xC0D78655 GT PUSH2 0x71 JUMPI DUP1 PUSH4 0xC0D78655 EQ PUSH2 0x31D JUMPI DUP1 PUSH4 0xD979FB5F EQ PUSH2 0x339 JUMPI DUP1 PUSH4 0xDBB79348 EQ PUSH2 0x369 JUMPI DUP1 PUSH4 0xE085F38E EQ PUSH2 0x399 JUMPI DUP1 PUSH4 0xF2FDE38B EQ PUSH2 0x3C9 JUMPI PUSH2 0x116 JUMP JUMPDEST DUP1 PUSH4 0x55B44EAF EQ PUSH2 0x2A7 JUMPI DUP1 PUSH4 0x715018A6 EQ PUSH2 0x2D7 JUMPI DUP1 PUSH4 0x8DA5CB5B EQ PUSH2 0x2E1 JUMPI DUP1 PUSH4 0x8DD95002 EQ PUSH2 0x2FF JUMPI PUSH2 0x116 JUMP JUMPDEST DUP1 PUSH4 0x215CC989 GT PUSH2 0xE9 JUMPI DUP1 PUSH4 0x215CC989 EQ PUSH2 0x1DB JUMPI DUP1 PUSH4 0x2F7C5980 EQ PUSH2 0x20B JUMPI DUP1 PUSH4 0x3268CC56 EQ PUSH2 0x23B JUMPI DUP1 PUSH4 0x3B979D45 EQ PUSH2 0x259 JUMPI DUP1 PUSH4 0x484F4EA9 EQ PUSH2 0x289 JUMPI PUSH2 0x116 JUMP JUMPDEST DUP1 PUSH4 0x1616F124 EQ PUSH2 0x11B JUMPI DUP1 PUSH4 0x1858882B EQ PUSH2 0x14B JUMPI DUP1 PUSH4 0x18B4AE20 EQ PUSH2 0x17B JUMPI DUP1 PUSH4 0x19047F8A EQ PUSH2 0x1AB JUMPI JUMPDEST PUSH1 0x0 DUP1 REVERT JUMPDEST PUSH2 0x135 PUSH1 0x4 DUP1 CALLDATASIZE SUB DUP2 ADD SWAP1 PUSH2 0x130 SWAP2 SWAP1 PUSH2 0x2842 JUMP JUMPDEST PUSH2 0x3E5 JUMP JUMPDEST PUSH1 0x40 MLOAD PUSH2 0x142 SWAP2 SWAP1 PUSH2 0x2D1B JUMP JUMPDEST PUSH1 0x40 MLOAD DUP1 SWAP2 SUB SWAP1 RETURN JUMPDEST PUSH2 0x165 PUSH1 0x4 DUP1 CALLDATASIZE SUB DUP2 ADD SWAP1 PUSH2 0x160 SWAP2 SWAP1 PUSH2 0x2895 JUMP JUMPDEST PUSH2 0x536 JUMP JUMPDEST PUSH1 0x40 MLOAD PUSH2 0x172 SWAP2 SWAP1 PUSH2 0x2D1B JUMP JUMPDEST PUSH1 0x40 MLOAD DUP1 SWAP2 SUB SWAP1 RETURN JUMPDEST PUSH2 0x195 PUSH1 0x4 DUP1 CALLDATASIZE SUB DUP2 ADD SWAP1 PUSH2 0x190 SWAP2 SWAP1 PUSH2 0x29D2 JUMP JUMPDEST PUSH2 0x5FE JUMP JUMPDEST PUSH1 0x40 MLOAD PUSH2 0x1A2 SWAP2 SWAP1 PUSH2 0x2D1B JUMP JUMPDEST PUSH1 0x40 MLOAD DUP1 SWAP2 SUB SWAP1 RETURN JUMPDEST PUSH2 0x1C5 PUSH1 0x4 DUP1 CALLDATASIZE SUB DUP2 ADD SWAP1 PUSH2 0x1C0 SWAP2 SWAP1 PUSH2 0x2745 JUMP JUMPDEST PUSH2 0x983 JUMP JUMPDEST PUSH1 0x40 MLOAD PUSH2 0x1D2 SWAP2 SWAP1 PUSH2 0x2D1B JUMP JUMPDEST PUSH1 0x40 MLOAD DUP1 SWAP2 SUB SWAP1 RETURN JUMPDEST PUSH2 0x1F5 PUSH1 0x4 DUP1 CALLDATASIZE SUB DUP2 ADD SWAP1 PUSH2 0x1F0 SWAP2 SWAP1 PUSH2 0x2815 JUMP JUMPDEST PUSH2 0xBDA JUMP JUMPDEST PUSH1 0x40 MLOAD PUSH2 0x202 SWAP2 SWAP1 PUSH2 0x2D1B JUMP JUMPDEST PUSH1 0x40 MLOAD DUP1 SWAP2 SUB SWAP1 RETURN JUMPDEST PUSH2 0x225 PUSH1 0x4 DUP1 CALLDATASIZE SUB DUP2 ADD SWAP1 PUSH2 0x220 SWAP2 SWAP1 PUSH2 0x2815 JUMP JUMPDEST PUSH2 0x14B8 JUMP JUMPDEST PUSH1 0x40 MLOAD PUSH2 0x232 SWAP2 SWAP1 PUSH2 0x2D1B JUMP JUMPDEST PUSH1 0x40 MLOAD DUP1 SWAP2 SUB SWAP1 RETURN JUMPDEST PUSH2 0x243 PUSH2 0x1549 JUMP JUMPDEST PUSH1 0x40 MLOAD PUSH2 0x250 SWAP2 SWAP1 PUSH2 0x2C5E JUMP JUMPDEST PUSH1 0x40 MLOAD DUP1 SWAP2 SUB SWAP1 RETURN JUMPDEST PUSH2 0x273 PUSH1 0x4 DUP1 CALLDATASIZE SUB DUP2 ADD SWAP1 PUSH2 0x26E SWAP2 SWAP1 PUSH2 0x2745 JUMP JUMPDEST PUSH2 0x156F JUMP JUMPDEST PUSH1 0x40 MLOAD PUSH2 0x280 SWAP2 SWAP1 PUSH2 0x2D1B JUMP JUMPDEST PUSH1 0x40 MLOAD DUP1 SWAP2 SUB SWAP1 RETURN JUMPDEST PUSH2 0x291 PUSH2 0x1755 JUMP JUMPDEST PUSH1 0x40 MLOAD PUSH2 0x29E SWAP2 SWAP1 PUSH2 0x2C43 JUMP JUMPDEST PUSH1 0x40 MLOAD DUP1 SWAP2 SUB SWAP1 RETURN JUMPDEST PUSH2 0x2C1 PUSH1 0x4 DUP1 CALLDATASIZE SUB DUP2 ADD SWAP1 PUSH2 0x2BC SWAP2 SWAP1 PUSH2 0x2895 JUMP JUMPDEST PUSH2 0x177B JUMP JUMPDEST PUSH1 0x40 MLOAD PUSH2 0x2CE SWAP2 SWAP1 PUSH2 0x2D1B JUMP JUMPDEST PUSH1 0x40 MLOAD DUP1 SWAP2 SUB SWAP1 RETURN JUMPDEST PUSH2 0x2DF PUSH2 0x1845 JUMP JUMPDEST STOP JUMPDEST PUSH2 0x2E9 PUSH2 0x18CD JUMP JUMPDEST PUSH1 0x40 MLOAD PUSH2 0x2F6 SWAP2 SWAP1 PUSH2 0x2C43 JUMP JUMPDEST PUSH1 0x40 MLOAD DUP1 SWAP2 SUB SWAP1 RETURN JUMPDEST PUSH2 0x307 PUSH2 0x18F6 JUMP JUMPDEST PUSH1 0x40 MLOAD PUSH2 0x314 SWAP2 SWAP1 PUSH2 0x2C43 JUMP JUMPDEST PUSH1 0x40 MLOAD DUP1 SWAP2 SUB SWAP1 RETURN JUMPDEST PUSH2 0x337 PUSH1 0x4 DUP1 CALLDATASIZE SUB DUP2 ADD SWAP1 PUSH2 0x332 SWAP2 SWAP1 PUSH2 0x28F1 JUMP JUMPDEST PUSH2 0x191C JUMP JUMPDEST STOP JUMPDEST PUSH2 0x353 PUSH1 0x4 DUP1 CALLDATASIZE SUB DUP2 ADD SWAP1 PUSH2 0x34E SWAP2 SWAP1 PUSH2 0x2A25 JUMP JUMPDEST PUSH2 0x19DC JUMP JUMPDEST PUSH1 0x40 MLOAD PUSH2 0x360 SWAP2 SWAP1 PUSH2 0x2D1B JUMP JUMPDEST PUSH1 0x40 MLOAD DUP1 SWAP2 SUB SWAP1 RETURN JUMPDEST PUSH2 0x383 PUSH1 0x4 DUP1 CALLDATASIZE SUB DUP2 ADD SWAP1 PUSH2 0x37E SWAP2 SWAP1 PUSH2 0x2A25 JUMP JUMPDEST PUSH2 0x1B2E JUMP JUMPDEST PUSH1 0x40 MLOAD PUSH2 0x390 SWAP2 SWAP1 PUSH2 0x2D1B JUMP JUMPDEST PUSH1 0x40 MLOAD DUP1 SWAP2 SUB SWAP1 RETURN JUMPDEST PUSH2 0x3B3 PUSH1 0x4 DUP1 CALLDATASIZE SUB DUP2 ADD SWAP1 PUSH2 0x3AE SWAP2 SWAP1 PUSH2 0x2A8C JUMP JUMPDEST PUSH2 0x1E24 JUMP JUMPDEST PUSH1 0x40 MLOAD PUSH2 0x3C0 SWAP2 SWAP1 PUSH2 0x2D1B JUMP JUMPDEST PUSH1 0x40 MLOAD DUP1 SWAP2 SUB SWAP1 RETURN JUMPDEST PUSH2 0x3E3 PUSH1 0x4 DUP1 CALLDATASIZE SUB DUP2 ADD SWAP1 PUSH2 0x3DE SWAP2 SWAP1 PUSH2 0x2745 JUMP JUMPDEST PUSH2 0x201E JUMP JUMPDEST STOP JUMPDEST PUSH1 0x0 DUP1 DUP5 PUSH20 0xFFFFFFFFFFFFFFFFFFFFFFFFFFFFFFFFFFFFFFFF AND PUSH4 0x70A08231 DUP5 PUSH1 0x40 MLOAD DUP3 PUSH4 0xFFFFFFFF AND PUSH1 0xE0 SHL DUP2 MSTORE PUSH1 0x4 ADD PUSH2 0x421 SWAP2 SWAP1 PUSH2 0x2C43 JUMP JUMPDEST PUSH1 0x20 PUSH1 0x40 MLOAD DUP1 DUP4 SUB DUP2 DUP7 DUP1 EXTCODESIZE ISZERO DUP1 ISZERO PUSH2 0x439 JUMPI PUSH1 0x0 DUP1 REVERT JUMPDEST POP GAS STATICCALL ISZERO DUP1 ISZERO PUSH2 0x44D JUMPI RETURNDATASIZE PUSH1 0x0 DUP1 RETURNDATACOPY RETURNDATASIZE PUSH1 0x0 REVERT JUMPDEST POP POP POP POP PUSH1 0x40 MLOAD RETURNDATASIZE PUSH1 0x1F NOT PUSH1 0x1F DUP3 ADD AND DUP3 ADD DUP1 PUSH1 0x40 MSTORE POP DUP2 ADD SWAP1 PUSH2 0x471 SWAP2 SWAP1 PUSH2 0x29A5 JUMP JUMPDEST SWAP1 POP PUSH1 0x0 PUSH1 0x1 DUP6 EQ ISZERO PUSH2 0x48E JUMPI PUSH2 0x487 DUP7 PUSH2 0xBDA JUMP JUMPDEST SWAP1 POP PUSH2 0x50B JUMP JUMPDEST PUSH1 0x0 DUP6 EQ ISZERO PUSH2 0x50A JUMPI DUP6 PUSH20 0xFFFFFFFFFFFFFFFFFFFFFFFFFFFFFFFFFFFFFFFF AND PUSH1 0x1 PUSH1 0x0 SWAP1 SLOAD SWAP1 PUSH2 0x100 EXP SWAP1 DIV PUSH20 0xFFFFFFFFFFFFFFFFFFFFFFFFFFFFFFFFFFFFFFFF AND PUSH20 0xFFFFFFFFFFFFFFFFFFFFFFFFFFFFFFFFFFFFFFFF AND EQ ISZERO PUSH2 0x4FD JUMPI PUSH2 0x4F6 DUP7 PUSH2 0x156F JUMP JUMPDEST SWAP1 POP PUSH2 0x509 JUMP JUMPDEST PUSH2 0x506 DUP7 PUSH2 0x983 JUMP JUMPDEST SWAP1 POP JUMPDEST JUMPDEST JUMPDEST PUSH2 0x52B PUSH1 0x3 SLOAD DUP3 DUP5 PUSH2 0x51D SWAP2 SWAP1 PUSH2 0x2EBF JUMP JUMPDEST PUSH2 0x2116 SWAP1 SWAP2 SWAP1 PUSH4 0xFFFFFFFF AND JUMP JUMPDEST SWAP3 POP POP POP SWAP4 SWAP3 POP POP POP JUMP JUMPDEST PUSH1 0x0 DUP1 PUSH1 0x0 SWAP1 POP PUSH1 0x0 JUMPDEST DUP4 MLOAD DUP2 LT ISZERO PUSH2 0x5F3 JUMPI PUSH1 0x1 PUSH2 0x56E DUP6 DUP4 DUP2 MLOAD DUP2 LT PUSH2 0x561 JUMPI PUSH2 0x560 PUSH2 0x3126 JUMP JUMPDEST JUMPDEST PUSH1 0x20 MUL PUSH1 0x20 ADD ADD MLOAD PUSH2 0x14B8 JUMP JUMPDEST EQ ISZERO PUSH2 0x5AC JUMPI PUSH2 0x59A DUP5 DUP3 DUP2 MLOAD DUP2 LT PUSH2 0x58A JUMPI PUSH2 0x589 PUSH2 0x3126 JUMP JUMPDEST JUMPDEST PUSH1 0x20 MUL PUSH1 0x20 ADD ADD MLOAD PUSH1 0x1 DUP8 PUSH2 0x3E5 JUMP JUMPDEST DUP3 PUSH2 0x5A5 SWAP2 SWAP1 PUSH2 0x2E38 JUMP JUMPDEST SWAP2 POP PUSH2 0x5E0 JUMP JUMPDEST PUSH2 0x5D2 DUP5 DUP3 DUP2 MLOAD DUP2 LT PUSH2 0x5C2 JUMPI PUSH2 0x5C1 PUSH2 0x3126 JUMP JUMPDEST JUMPDEST PUSH1 0x20 MUL PUSH1 0x20 ADD ADD MLOAD PUSH1 0x0 DUP8 PUSH2 0x3E5 JUMP JUMPDEST DUP3 PUSH2 0x5DD SWAP2 SWAP1 PUSH2 0x2E38 JUMP JUMPDEST SWAP2 POP JUMPDEST DUP1 DUP1 PUSH2 0x5EB SWAP1 PUSH2 0x307F JUMP JUMPDEST SWAP2 POP POP PUSH2 0x540 JUMP JUMPDEST POP DUP1 SWAP2 POP POP SWAP3 SWAP2 POP POP JUMP JUMPDEST PUSH1 0x0 DUP1 DUP3 PUSH20 0xFFFFFFFFFFFFFFFFFFFFFFFFFFFFFFFFFFFFFFFF AND PUSH4 0x1526FE27 DUP7 PUSH1 0x40 MLOAD DUP3 PUSH4 0xFFFFFFFF AND PUSH1 0xE0 SHL DUP2 MSTORE PUSH1 0x4 ADD PUSH2 0x63A SWAP2 SWAP1 PUSH2 0x2D1B JUMP JUMPDEST PUSH1 0x80 PUSH1 0x40 MLOAD DUP1 DUP4 SUB DUP2 DUP7 DUP1 EXTCODESIZE ISZERO DUP1 ISZERO PUSH2 0x652 JUMPI PUSH1 0x0 DUP1 REVERT JUMPDEST POP GAS STATICCALL ISZERO DUP1 ISZERO PUSH2 0x666 JUMPI RETURNDATASIZE PUSH1 0x0 DUP1 RETURNDATACOPY RETURNDATASIZE PUSH1 0x0 REVERT JUMPDEST POP POP POP POP PUSH1 0x40 MLOAD RETURNDATASIZE PUSH1 0x1F NOT PUSH1 0x1F DUP3 ADD AND DUP3 ADD DUP1 PUSH1 0x40 MSTORE POP DUP2 ADD SWAP1 PUSH2 0x68A SWAP2 SWAP1 PUSH2 0x2978 JUMP JUMPDEST SWAP1 POP PUSH1 0x0 PUSH2 0x736 DUP5 PUSH20 0xFFFFFFFFFFFFFFFFFFFFFFFFFFFFFFFFFFFFFFFF AND PUSH4 0x17CAF6F1 PUSH1 0x40 MLOAD DUP2 PUSH4 0xFFFFFFFF AND PUSH1 0xE0 SHL DUP2 MSTORE PUSH1 0x4 ADD PUSH1 0x20 PUSH1 0x40 MLOAD DUP1 DUP4 SUB DUP2 DUP7 DUP1 EXTCODESIZE ISZERO DUP1 ISZERO PUSH2 0x6D7 JUMPI PUSH1 0x0 DUP1 REVERT JUMPDEST POP GAS STATICCALL ISZERO DUP1 ISZERO PUSH2 0x6EB JUMPI RETURNDATASIZE PUSH1 0x0 DUP1 RETURNDATACOPY RETURNDATASIZE PUSH1 0x0 REVERT JUMPDEST POP POP POP POP PUSH1 0x40 MLOAD RETURNDATASIZE PUSH1 0x1F NOT PUSH1 0x1F DUP3 ADD AND DUP3 ADD DUP1 PUSH1 0x40 MSTORE POP DUP2 ADD SWAP1 PUSH2 0x70F SWAP2 SWAP1 PUSH2 0x29A5 JUMP JUMPDEST PUSH2 0x728 PUSH1 0x3 SLOAD DUP6 PUSH1 0x20 ADD MLOAD PUSH2 0x2160 SWAP1 SWAP2 SWAP1 PUSH4 0xFFFFFFFF AND JUMP JUMPDEST PUSH2 0x2116 SWAP1 SWAP2 SWAP1 PUSH4 0xFFFFFFFF AND JUMP JUMPDEST SWAP1 POP PUSH1 0x0 PUSH2 0x7C0 DUP6 PUSH20 0xFFFFFFFFFFFFFFFFFFFFFFFFFFFFFFFFFFFFFFFF AND PUSH4 0xCB3CBA55 PUSH1 0x40 MLOAD DUP2 PUSH4 0xFFFFFFFF AND PUSH1 0xE0 SHL DUP2 MSTORE PUSH1 0x4 ADD PUSH1 0x20 PUSH1 0x40 MLOAD DUP1 DUP4 SUB DUP2 DUP7 DUP1 EXTCODESIZE ISZERO DUP1 ISZERO PUSH2 0x783 JUMPI PUSH1 0x0 DUP1 REVERT JUMPDEST POP GAS STATICCALL ISZERO DUP1 ISZERO PUSH2 0x797 JUMPI RETURNDATASIZE PUSH1 0x0 DUP1 RETURNDATACOPY RETURNDATASIZE PUSH1 0x0 REVERT JUMPDEST POP POP POP POP PUSH1 0x40 MLOAD RETURNDATASIZE PUSH1 0x1F NOT PUSH1 0x1F DUP3 ADD AND DUP3 ADD DUP1 PUSH1 0x40 MSTORE POP DUP2 ADD SWAP1 PUSH2 0x7BB SWAP2 SWAP1 PUSH2 0x2772 JUMP JUMPDEST PUSH2 0x983 JUMP JUMPDEST SWAP1 POP PUSH1 0x0 PUSH2 0x856 DUP7 PUSH20 0xFFFFFFFFFFFFFFFFFFFFFFFFFFFFFFFFFFFFFFFF AND PUSH4 0xF395DB2C PUSH1 0x40 MLOAD DUP2 PUSH4 0xFFFFFFFF AND PUSH1 0xE0 SHL DUP2 MSTORE PUSH1 0x4 ADD PUSH1 0x20 PUSH1 0x40 MLOAD DUP1 DUP4 SUB DUP2 DUP7 DUP1 EXTCODESIZE ISZERO DUP1 ISZERO PUSH2 0x80D JUMPI PUSH1 0x0 DUP1 REVERT JUMPDEST POP GAS STATICCALL ISZERO DUP1 ISZERO PUSH2 0x821 JUMPI RETURNDATASIZE PUSH1 0x0 DUP1 RETURNDATACOPY RETURNDATASIZE PUSH1 0x0 REVERT JUMPDEST POP POP POP POP PUSH1 0x40 MLOAD RETURNDATASIZE PUSH1 0x1F NOT PUSH1 0x1F DUP3 ADD AND DUP3 ADD DUP1 PUSH1 0x40 MSTORE POP DUP2 ADD SWAP1 PUSH2 0x845 SWAP2 SWAP1 PUSH2 0x29A5 JUMP JUMPDEST PUSH1 0x5 SLOAD PUSH2 0x2160 SWAP1 SWAP2 SWAP1 PUSH4 0xFFFFFFFF AND JUMP JUMPDEST SWAP1 POP PUSH1 0x0 PUSH2 0x881 PUSH1 0x3 SLOAD PUSH2 0x873 DUP7 DUP6 PUSH2 0x2160 SWAP1 SWAP2 SWAP1 PUSH4 0xFFFFFFFF AND JUMP JUMPDEST PUSH2 0x2116 SWAP1 SWAP2 SWAP1 PUSH4 0xFFFFFFFF AND JUMP JUMPDEST SWAP1 POP PUSH1 0x0 PUSH2 0x921 PUSH1 0x64 DUP11 PUSH20 0xFFFFFFFFFFFFFFFFFFFFFFFFFFFFFFFFFFFFFFFF AND PUSH4 0x70A08231 DUP12 PUSH1 0x40 MLOAD DUP3 PUSH4 0xFFFFFFFF AND PUSH1 0xE0 SHL DUP2 MSTORE PUSH1 0x4 ADD PUSH2 0x8C3 SWAP2 SWAP1 PUSH2 0x2C43 JUMP JUMPDEST PUSH1 0x20 PUSH1 0x40 MLOAD DUP1 DUP4 SUB DUP2 DUP7 DUP1 EXTCODESIZE ISZERO DUP1 ISZERO PUSH2 0x8DB JUMPI PUSH1 0x0 DUP1 REVERT JUMPDEST POP GAS STATICCALL ISZERO DUP1 ISZERO PUSH2 0x8EF JUMPI RETURNDATASIZE PUSH1 0x0 DUP1 RETURNDATACOPY RETURNDATASIZE PUSH1 0x0 REVERT JUMPDEST POP POP POP POP PUSH1 0x40 MLOAD RETURNDATASIZE PUSH1 0x1F NOT PUSH1 0x1F DUP3 ADD AND DUP3 ADD DUP1 PUSH1 0x40 MSTORE POP DUP2 ADD SWAP1 PUSH2 0x913 SWAP2 SWAP1 PUSH2 0x29A5 JUMP JUMPDEST PUSH2 0x2160 SWAP1 SWAP2 SWAP1 PUSH4 0xFFFFFFFF AND JUMP JUMPDEST SWAP1 POP PUSH1 0x0 DUP2 EQ ISZERO PUSH2 0x93B JUMPI PUSH1 0x0 SWAP7 POP POP POP POP POP POP POP PUSH2 0x97C JUMP JUMPDEST PUSH2 0x973 PUSH1 0x64 PUSH2 0x965 DUP4 PUSH2 0x957 DUP9 DUP8 PUSH2 0x2160 SWAP1 SWAP2 SWAP1 PUSH4 0xFFFFFFFF AND JUMP JUMPDEST PUSH2 0x2116 SWAP1 SWAP2 SWAP1 PUSH4 0xFFFFFFFF AND JUMP JUMPDEST PUSH2 0x2160 SWAP1 SWAP2 SWAP1 PUSH4 0xFFFFFFFF AND JUMP JUMPDEST SWAP7 POP POP POP POP POP POP POP JUMPDEST SWAP4 SWAP3 POP POP POP JUMP JUMPDEST PUSH1 0x0 DUP1 PUSH1 0x3 PUSH8 0xFFFFFFFFFFFFFFFF DUP2 GT ISZERO PUSH2 0x9A1 JUMPI PUSH2 0x9A0 PUSH2 0x3155 JUMP JUMPDEST JUMPDEST PUSH1 0x40 MLOAD SWAP1 DUP1 DUP3 MSTORE DUP1 PUSH1 0x20 MUL PUSH1 0x20 ADD DUP3 ADD PUSH1 0x40 MSTORE DUP1 ISZERO PUSH2 0x9CF JUMPI DUP2 PUSH1 0x20 ADD PUSH1 0x20 DUP3 MUL DUP1 CALLDATASIZE DUP4 CALLDATACOPY DUP1 DUP3 ADD SWAP2 POP POP SWAP1 POP JUMPDEST POP SWAP1 POP DUP3 DUP2 PUSH1 0x0 DUP2 MLOAD DUP2 LT PUSH2 0x9E7 JUMPI PUSH2 0x9E6 PUSH2 0x3126 JUMP JUMPDEST JUMPDEST PUSH1 0x20 MUL PUSH1 0x20 ADD ADD SWAP1 PUSH20 0xFFFFFFFFFFFFFFFFFFFFFFFFFFFFFFFFFFFFFFFF AND SWAP1 DUP2 PUSH20 0xFFFFFFFFFFFFFFFFFFFFFFFFFFFFFFFFFFFFFFFF AND DUP2 MSTORE POP POP PUSH1 0x1 PUSH1 0x0 SWAP1 SLOAD SWAP1 PUSH2 0x100 EXP SWAP1 DIV PUSH20 0xFFFFFFFFFFFFFFFFFFFFFFFFFFFFFFFFFFFFFFFF AND DUP2 PUSH1 0x1 DUP2 MLOAD DUP2 LT PUSH2 0xA58 JUMPI PUSH2 0xA57 PUSH2 0x3126 JUMP JUMPDEST JUMPDEST PUSH1 0x20 MUL PUSH1 0x20 ADD ADD SWAP1 PUSH20 0xFFFFFFFFFFFFFFFFFFFFFFFFFFFFFFFFFFFFFFFF AND SWAP1 DUP2 PUSH20 0xFFFFFFFFFFFFFFFFFFFFFFFFFFFFFFFFFFFFFFFF AND DUP2 MSTORE POP POP PUSH1 0x2 PUSH1 0x0 SWAP1 SLOAD SWAP1 PUSH2 0x100 EXP SWAP1 DIV PUSH20 0xFFFFFFFFFFFFFFFFFFFFFFFFFFFFFFFFFFFFFFFF AND DUP2 PUSH1 0x2 DUP2 MLOAD DUP2 LT PUSH2 0xAC9 JUMPI PUSH2 0xAC8 PUSH2 0x3126 JUMP JUMPDEST JUMPDEST PUSH1 0x20 MUL PUSH1 0x20 ADD ADD SWAP1 PUSH20 0xFFFFFFFFFFFFFFFFFFFFFFFFFFFFFFFFFFFFFFFF AND SWAP1 DUP2 PUSH20 0xFFFFFFFFFFFFFFFFFFFFFFFFFFFFFFFFFFFFFFFF AND DUP2 MSTORE POP POP PUSH1 0x4 PUSH1 0x0 SWAP1 SLOAD SWAP1 PUSH2 0x100 EXP SWAP1 DIV PUSH20 0xFFFFFFFFFFFFFFFFFFFFFFFFFFFFFFFFFFFFFFFF AND PUSH20 0xFFFFFFFFFFFFFFFFFFFFFFFFFFFFFFFFFFFFFFFF AND PUSH4 0xD06CA61F PUSH1 0x3 SLOAD DUP4 PUSH1 0x40 MLOAD DUP4 PUSH4 0xFFFFFFFF AND PUSH1 0xE0 SHL DUP2 MSTORE PUSH1 0x4 ADD PUSH2 0xB62 SWAP3 SWAP2 SWAP1 PUSH2 0x2D36 JUMP JUMPDEST PUSH1 0x0 PUSH1 0x40 MLOAD DUP1 DUP4 SUB DUP2 DUP7 DUP1 EXTCODESIZE ISZERO DUP1 ISZERO PUSH2 0xB7A JUMPI PUSH1 0x0 DUP1 REVERT JUMPDEST POP GAS STATICCALL ISZERO DUP1 ISZERO PUSH2 0xB8E JUMPI RETURNDATASIZE PUSH1 0x0 DUP1 RETURNDATACOPY RETURNDATASIZE PUSH1 0x0 REVERT JUMPDEST POP POP POP POP PUSH1 0x40 MLOAD RETURNDATASIZE PUSH1 0x0 DUP3 RETURNDATACOPY RETURNDATASIZE PUSH1 0x1F NOT PUSH1 0x1F DUP3 ADD AND DUP3 ADD DUP1 PUSH1 0x40 MSTORE POP DUP2 ADD SWAP1 PUSH2 0xBB7 SWAP2 SWAP1 PUSH2 0x279F JUMP JUMPDEST PUSH1 0x2 DUP2 MLOAD DUP2 LT PUSH2 0xBCA JUMPI PUSH2 0xBC9 PUSH2 0x3126 JUMP JUMPDEST JUMPDEST PUSH1 0x20 MUL PUSH1 0x20 ADD ADD MLOAD SWAP2 POP POP SWAP2 SWAP1 POP JUMP JUMPDEST PUSH1 0x0 DUP1 PUSH1 0x0 DUP4 PUSH20 0xFFFFFFFFFFFFFFFFFFFFFFFFFFFFFFFFFFFFFFFF AND PUSH4 0xDFE1681 PUSH1 0x40 MLOAD DUP2 PUSH4 0xFFFFFFFF AND PUSH1 0xE0 SHL DUP2 MSTORE PUSH1 0x4 ADD PUSH1 0x20 PUSH1 0x40 MLOAD DUP1 DUP4 SUB DUP2 DUP7 DUP1 EXTCODESIZE ISZERO DUP1 ISZERO PUSH2 0xC25 JUMPI PUSH1 0x0 DUP1 REVERT JUMPDEST POP GAS STATICCALL ISZERO DUP1 ISZERO PUSH2 0xC39 JUMPI RETURNDATASIZE PUSH1 0x0 DUP1 RETURNDATACOPY RETURNDATASIZE PUSH1 0x0 REVERT JUMPDEST POP POP POP POP PUSH1 0x40 MLOAD RETURNDATASIZE PUSH1 0x1F NOT PUSH1 0x1F DUP3 ADD AND DUP3 ADD DUP1 PUSH1 0x40 MSTORE POP DUP2 ADD SWAP1 PUSH2 0xC5D SWAP2 SWAP1 PUSH2 0x27E8 JUMP JUMPDEST PUSH20 0xFFFFFFFFFFFFFFFFFFFFFFFFFFFFFFFFFFFFFFFF AND PUSH1 0x1 PUSH1 0x0 SWAP1 SLOAD SWAP1 PUSH2 0x100 EXP SWAP1 DIV PUSH20 0xFFFFFFFFFFFFFFFFFFFFFFFFFFFFFFFFFFFFFFFF AND PUSH20 0xFFFFFFFFFFFFFFFFFFFFFFFFFFFFFFFFFFFFFFFF AND EQ ISZERO PUSH2 0xE56 JUMPI PUSH2 0xE4F PUSH2 0xD3B DUP6 PUSH20 0xFFFFFFFFFFFFFFFFFFFFFFFFFFFFFFFFFFFFFFFF AND PUSH4 0xDFE1681 PUSH1 0x40 MLOAD DUP2 PUSH4 0xFFFFFFFF AND PUSH1 0xE0 SHL DUP2 MSTORE PUSH1 0x4 ADD PUSH1 0x20 PUSH1 0x40 MLOAD DUP1 DUP4 SUB DUP2 DUP7 DUP1 EXTCODESIZE ISZERO DUP1 ISZERO PUSH2 0xCFE JUMPI PUSH1 0x0 DUP1 REVERT JUMPDEST POP GAS STATICCALL ISZERO DUP1 ISZERO PUSH2 0xD12 JUMPI RETURNDATASIZE PUSH1 0x0 DUP1 RETURNDATACOPY RETURNDATASIZE PUSH1 0x0 REVERT JUMPDEST POP POP POP POP PUSH1 0x40 MLOAD RETURNDATASIZE PUSH1 0x1F NOT PUSH1 0x1F DUP3 ADD AND DUP3 ADD DUP1 PUSH1 0x40 MSTORE POP DUP2 ADD SWAP1 PUSH2 0xD36 SWAP2 SWAP1 PUSH2 0x27E8 JUMP JUMPDEST PUSH2 0x156F JUMP JUMPDEST DUP6 PUSH20 0xFFFFFFFFFFFFFFFFFFFFFFFFFFFFFFFFFFFFFFFF AND PUSH4 0xDFE1681 PUSH1 0x40 MLOAD DUP2 PUSH4 0xFFFFFFFF AND PUSH1 0xE0 SHL DUP2 MSTORE PUSH1 0x4 ADD PUSH1 0x20 PUSH1 0x40 MLOAD DUP1 DUP4 SUB DUP2 DUP7 DUP1 EXTCODESIZE ISZERO DUP1 ISZERO PUSH2 0xD81 JUMPI PUSH1 0x0 DUP1 REVERT JUMPDEST POP GAS STATICCALL ISZERO DUP1 ISZERO PUSH2 0xD95 JUMPI RETURNDATASIZE PUSH1 0x0 DUP1 RETURNDATACOPY RETURNDATASIZE PUSH1 0x0 REVERT JUMPDEST POP POP POP POP PUSH1 0x40 MLOAD RETURNDATASIZE PUSH1 0x1F NOT PUSH1 0x1F DUP3 ADD AND DUP3 ADD DUP1 PUSH1 0x40 MSTORE POP DUP2 ADD SWAP1 PUSH2 0xDB9 SWAP2 SWAP1 PUSH2 0x27E8 JUMP JUMPDEST PUSH20 0xFFFFFFFFFFFFFFFFFFFFFFFFFFFFFFFFFFFFFFFF AND PUSH4 0x70A08231 DUP8 PUSH1 0x40 MLOAD DUP3 PUSH4 0xFFFFFFFF AND PUSH1 0xE0 SHL DUP2 MSTORE PUSH1 0x4 ADD PUSH2 0xDF1 SWAP2 SWAP1 PUSH2 0x2C43 JUMP JUMPDEST PUSH1 0x20 PUSH1 0x40 MLOAD DUP1 DUP4 SUB DUP2 DUP7 DUP1 EXTCODESIZE ISZERO DUP1 ISZERO PUSH2 0xE09 JUMPI PUSH1 0x0 DUP1 REVERT JUMPDEST POP GAS STATICCALL ISZERO DUP1 ISZERO PUSH2 0xE1D JUMPI RETURNDATASIZE PUSH1 0x0 DUP1 RETURNDATACOPY RETURNDATASIZE PUSH1 0x0 REVERT JUMPDEST POP POP POP POP PUSH1 0x40 MLOAD RETURNDATASIZE PUSH1 0x1F NOT PUSH1 0x1F DUP3 ADD AND DUP3 ADD DUP1 PUSH1 0x40 MSTORE POP DUP2 ADD SWAP1 PUSH2 0xE41 SWAP2 SWAP1 PUSH2 0x29A5 JUMP JUMPDEST PUSH2 0x2160 SWAP1 SWAP2 SWAP1 PUSH4 0xFFFFFFFF AND JUMP JUMPDEST SWAP2 POP PUSH2 0xFF6 JUMP JUMPDEST PUSH2 0xFF3 PUSH2 0xEDF DUP6 PUSH20 0xFFFFFFFFFFFFFFFFFFFFFFFFFFFFFFFFFFFFFFFF AND PUSH4 0xDFE1681 PUSH1 0x40 MLOAD DUP2 PUSH4 0xFFFFFFFF AND PUSH1 0xE0 SHL DUP2 MSTORE PUSH1 0x4 ADD PUSH1 0x20 PUSH1 0x40 MLOAD DUP1 DUP4 SUB DUP2 DUP7 DUP1 EXTCODESIZE ISZERO DUP1 ISZERO PUSH2 0xEA2 JUMPI PUSH1 0x0 DUP1 REVERT JUMPDEST POP GAS STATICCALL ISZERO DUP1 ISZERO PUSH2 0xEB6 JUMPI RETURNDATASIZE PUSH1 0x0 DUP1 RETURNDATACOPY RETURNDATASIZE PUSH1 0x0 REVERT JUMPDEST POP POP POP POP PUSH1 0x40 MLOAD RETURNDATASIZE PUSH1 0x1F NOT PUSH1 0x1F DUP3 ADD AND DUP3 ADD DUP1 PUSH1 0x40 MSTORE POP DUP2 ADD SWAP1 PUSH2 0xEDA SWAP2 SWAP1 PUSH2 0x27E8 JUMP JUMPDEST PUSH2 0x983 JUMP JUMPDEST DUP6 PUSH20 0xFFFFFFFFFFFFFFFFFFFFFFFFFFFFFFFFFFFFFFFF AND PUSH4 0xDFE1681 PUSH1 0x40 MLOAD DUP2 PUSH4 0xFFFFFFFF AND PUSH1 0xE0 SHL DUP2 MSTORE PUSH1 0x4 ADD PUSH1 0x20 PUSH1 0x40 MLOAD DUP1 DUP4 SUB DUP2 DUP7 DUP1 EXTCODESIZE ISZERO DUP1 ISZERO PUSH2 0xF25 JUMPI PUSH1 0x0 DUP1 REVERT JUMPDEST POP GAS STATICCALL ISZERO DUP1 ISZERO PUSH2 0xF39 JUMPI RETURNDATASIZE PUSH1 0x0 DUP1 RETURNDATACOPY RETURNDATASIZE PUSH1 0x0 REVERT JUMPDEST POP POP POP POP PUSH1 0x40 MLOAD RETURNDATASIZE PUSH1 0x1F NOT PUSH1 0x1F DUP3 ADD AND DUP3 ADD DUP1 PUSH1 0x40 MSTORE POP DUP2 ADD SWAP1 PUSH2 0xF5D SWAP2 SWAP1 PUSH2 0x27E8 JUMP JUMPDEST PUSH20 0xFFFFFFFFFFFFFFFFFFFFFFFFFFFFFFFFFFFFFFFF AND PUSH4 0x70A08231 DUP8 PUSH1 0x40 MLOAD DUP3 PUSH4 0xFFFFFFFF AND PUSH1 0xE0 SHL DUP2 MSTORE PUSH1 0x4 ADD PUSH2 0xF95 SWAP2 SWAP1 PUSH2 0x2C43 JUMP JUMPDEST PUSH1 0x20 PUSH1 0x40 MLOAD DUP1 DUP4 SUB DUP2 DUP7 DUP1 EXTCODESIZE ISZERO DUP1 ISZERO PUSH2 0xFAD JUMPI PUSH1 0x0 DUP1 REVERT JUMPDEST POP GAS STATICCALL ISZERO DUP1 ISZERO PUSH2 0xFC1 JUMPI RETURNDATASIZE PUSH1 0x0 DUP1 RETURNDATACOPY RETURNDATASIZE PUSH1 0x0 REVERT JUMPDEST POP POP POP POP PUSH1 0x40 MLOAD RETURNDATASIZE PUSH1 0x1F NOT PUSH1 0x1F DUP3 ADD AND DUP3 ADD DUP1 PUSH1 0x40 MSTORE POP DUP2 ADD SWAP1 PUSH2 0xFE5 SWAP2 SWAP1 PUSH2 0x29A5 JUMP JUMPDEST PUSH2 0x2160 SWAP1 SWAP2 SWAP1 PUSH4 0xFFFFFFFF AND JUMP JUMPDEST SWAP2 POP JUMPDEST DUP4 PUSH20 0xFFFFFFFFFFFFFFFFFFFFFFFFFFFFFFFFFFFFFFFF AND PUSH4 0xD21220A7 PUSH1 0x40 MLOAD DUP2 PUSH4 0xFFFFFFFF AND PUSH1 0xE0 SHL DUP2 MSTORE PUSH1 0x4 ADD PUSH1 0x20 PUSH1 0x40 MLOAD DUP1 DUP4 SUB DUP2 DUP7 DUP1 EXTCODESIZE ISZERO DUP1 ISZERO PUSH2 0x103C JUMPI PUSH1 0x0 DUP1 REVERT JUMPDEST POP GAS STATICCALL ISZERO DUP1 ISZERO PUSH2 0x1050 JUMPI RETURNDATASIZE PUSH1 0x0 DUP1 RETURNDATACOPY RETURNDATASIZE PUSH1 0x0 REVERT JUMPDEST POP POP POP POP PUSH1 0x40 MLOAD RETURNDATASIZE PUSH1 0x1F NOT PUSH1 0x1F DUP3 ADD AND DUP3 ADD DUP1 PUSH1 0x40 MSTORE POP DUP2 ADD SWAP1 PUSH2 0x1074 SWAP2 SWAP1 PUSH2 0x27E8 JUMP JUMPDEST PUSH20 0xFFFFFFFFFFFFFFFFFFFFFFFFFFFFFFFFFFFFFFFF AND PUSH1 0x1 PUSH1 0x0 SWAP1 SLOAD SWAP1 PUSH2 0x100 EXP SWAP1 DIV PUSH20 0xFFFFFFFFFFFFFFFFFFFFFFFFFFFFFFFFFFFFFFFF AND PUSH20 0xFFFFFFFFFFFFFFFFFFFFFFFFFFFFFFFFFFFFFFFF AND EQ ISZERO PUSH2 0x126D JUMPI PUSH2 0x1266 PUSH2 0x1152 DUP6 PUSH20 0xFFFFFFFFFFFFFFFFFFFFFFFFFFFFFFFFFFFFFFFF AND PUSH4 0xD21220A7 PUSH1 0x40 MLOAD DUP2 PUSH4 0xFFFFFFFF AND PUSH1 0xE0 SHL DUP2 MSTORE PUSH1 0x4 ADD PUSH1 0x20 PUSH1 0x40 MLOAD DUP1 DUP4 SUB DUP2 DUP7 DUP1 EXTCODESIZE ISZERO DUP1 ISZERO PUSH2 0x1115 JUMPI PUSH1 0x0 DUP1 REVERT JUMPDEST POP GAS STATICCALL ISZERO DUP1 ISZERO PUSH2 0x1129 JUMPI RETURNDATASIZE PUSH1 0x0 DUP1 RETURNDATACOPY RETURNDATASIZE PUSH1 0x0 REVERT JUMPDEST POP POP POP POP PUSH1 0x40 MLOAD RETURNDATASIZE PUSH1 0x1F NOT PUSH1 0x1F DUP3 ADD AND DUP3 ADD DUP1 PUSH1 0x40 MSTORE POP DUP2 ADD SWAP1 PUSH2 0x114D SWAP2 SWAP1 PUSH2 0x27E8 JUMP JUMPDEST PUSH2 0x156F JUMP JUMPDEST DUP6 PUSH20 0xFFFFFFFFFFFFFFFFFFFFFFFFFFFFFFFFFFFFFFFF AND PUSH4 0xD21220A7 PUSH1 0x40 MLOAD DUP2 PUSH4 0xFFFFFFFF AND PUSH1 0xE0 SHL DUP2 MSTORE PUSH1 0x4 ADD PUSH1 0x20 PUSH1 0x40 MLOAD DUP1 DUP4 SUB DUP2 DUP7 DUP1 EXTCODESIZE ISZERO DUP1 ISZERO PUSH2 0x1198 JUMPI PUSH1 0x0 DUP1 REVERT JUMPDEST POP GAS STATICCALL ISZERO DUP1 ISZERO PUSH2 0x11AC JUMPI RETURNDATASIZE PUSH1 0x0 DUP1 RETURNDATACOPY RETURNDATASIZE PUSH1 0x0 REVERT JUMPDEST POP POP POP POP PUSH1 0x40 MLOAD RETURNDATASIZE PUSH1 0x1F NOT PUSH1 0x1F DUP3 ADD AND DUP3 ADD DUP1 PUSH1 0x40 MSTORE POP DUP2 ADD SWAP1 PUSH2 0x11D0 SWAP2 SWAP1 PUSH2 0x27E8 JUMP JUMPDEST PUSH20 0xFFFFFFFFFFFFFFFFFFFFFFFFFFFFFFFFFFFFFFFF AND PUSH4 0x70A08231 DUP8 PUSH1 0x40 MLOAD DUP3 PUSH4 0xFFFFFFFF AND PUSH1 0xE0 SHL DUP2 MSTORE PUSH1 0x4 ADD PUSH2 0x1208 SWAP2 SWAP1 PUSH2 0x2C43 JUMP JUMPDEST PUSH1 0x20 PUSH1 0x40 MLOAD DUP1 DUP4 SUB DUP2 DUP7 DUP1 EXTCODESIZE ISZERO DUP1 ISZERO PUSH2 0x1220 JUMPI PUSH1 0x0 DUP1 REVERT JUMPDEST POP GAS STATICCALL ISZERO DUP1 ISZERO PUSH2 0x1234 JUMPI RETURNDATASIZE PUSH1 0x0 DUP1 RETURNDATACOPY RETURNDATASIZE PUSH1 0x0 REVERT JUMPDEST POP POP POP POP PUSH1 0x40 MLOAD RETURNDATASIZE PUSH1 0x1F NOT PUSH1 0x1F DUP3 ADD AND DUP3 ADD DUP1 PUSH1 0x40 MSTORE POP DUP2 ADD SWAP1 PUSH2 0x1258 SWAP2 SWAP1 PUSH2 0x29A5 JUMP JUMPDEST PUSH2 0x2160 SWAP1 SWAP2 SWAP1 PUSH4 0xFFFFFFFF AND JUMP JUMPDEST SWAP1 POP PUSH2 0x140D JUMP JUMPDEST PUSH2 0x140A PUSH2 0x12F6 DUP6 PUSH20 0xFFFFFFFFFFFFFFFFFFFFFFFFFFFFFFFFFFFFFFFF AND PUSH4 0xD21220A7 PUSH1 0x40 MLOAD DUP2 PUSH4 0xFFFFFFFF AND PUSH1 0xE0 SHL DUP2 MSTORE PUSH1 0x4 ADD PUSH1 0x20 PUSH1 0x40 MLOAD DUP1 DUP4 SUB DUP2 DUP7 DUP1 EXTCODESIZE ISZERO DUP1 ISZERO PUSH2 0x12B9 JUMPI PUSH1 0x0 DUP1 REVERT JUMPDEST POP GAS STATICCALL ISZERO DUP1 ISZERO PUSH2 0x12CD JUMPI RETURNDATASIZE PUSH1 0x0 DUP1 RETURNDATACOPY RETURNDATASIZE PUSH1 0x0 REVERT JUMPDEST POP POP POP POP PUSH1 0x40 MLOAD RETURNDATASIZE PUSH1 0x1F NOT PUSH1 0x1F DUP3 ADD AND DUP3 ADD DUP1 PUSH1 0x40 MSTORE POP DUP2 ADD SWAP1 PUSH2 0x12F1 SWAP2 SWAP1 PUSH2 0x27E8 JUMP JUMPDEST PUSH2 0x983 JUMP JUMPDEST DUP6 PUSH20 0xFFFFFFFFFFFFFFFFFFFFFFFFFFFFFFFFFFFFFFFF AND PUSH4 0xD21220A7 PUSH1 0x40 MLOAD DUP2 PUSH4 0xFFFFFFFF AND PUSH1 0xE0 SHL DUP2 MSTORE PUSH1 0x4 ADD PUSH1 0x20 PUSH1 0x40 MLOAD DUP1 DUP4 SUB DUP2 DUP7 DUP1 EXTCODESIZE ISZERO DUP1 ISZERO PUSH2 0x133C JUMPI PUSH1 0x0 DUP1 REVERT JUMPDEST POP GAS STATICCALL ISZERO DUP1 ISZERO PUSH2 0x1350 JUMPI RETURNDATASIZE PUSH1 0x0 DUP1 RETURNDATACOPY RETURNDATASIZE PUSH1 0x0 REVERT JUMPDEST POP POP POP POP PUSH1 0x40 MLOAD RETURNDATASIZE PUSH1 0x1F NOT PUSH1 0x1F DUP3 ADD AND DUP3 ADD DUP1 PUSH1 0x40 MSTORE POP DUP2 ADD SWAP1 PUSH2 0x1374 SWAP2 SWAP1 PUSH2 0x27E8 JUMP JUMPDEST PUSH20 0xFFFFFFFFFFFFFFFFFFFFFFFFFFFFFFFFFFFFFFFF AND PUSH4 0x70A08231 DUP8 PUSH1 0x40 MLOAD DUP3 PUSH4 0xFFFFFFFF AND PUSH1 0xE0 SHL DUP2 MSTORE PUSH1 0x4 ADD PUSH2 0x13AC SWAP2 SWAP1 PUSH2 0x2C43 JUMP JUMPDEST PUSH1 0x20 PUSH1 0x40 MLOAD DUP1 DUP4 SUB DUP2 DUP7 DUP1 EXTCODESIZE ISZERO DUP1 ISZERO PUSH2 0x13C4 JUMPI PUSH1 0x0 DUP1 REVERT JUMPDEST POP GAS STATICCALL ISZERO DUP1 ISZERO PUSH2 0x13D8 JUMPI RETURNDATASIZE PUSH1 0x0 DUP1 RETURNDATACOPY RETURNDATASIZE PUSH1 0x0 REVERT JUMPDEST POP POP POP POP PUSH1 0x40 MLOAD RETURNDATASIZE PUSH1 0x1F NOT PUSH1 0x1F DUP3 ADD AND DUP3 ADD DUP1 PUSH1 0x40 MSTORE POP DUP2 ADD SWAP1 PUSH2 0x13FC SWAP2 SWAP1 PUSH2 0x29A5 JUMP JUMPDEST PUSH2 0x2160 SWAP1 SWAP2 SWAP1 PUSH4 0xFFFFFFFF AND JUMP JUMPDEST SWAP1 POP JUMPDEST PUSH2 0x14AF DUP5 PUSH20 0xFFFFFFFFFFFFFFFFFFFFFFFFFFFFFFFFFFFFFFFF AND PUSH4 0x18160DDD PUSH1 0x40 MLOAD DUP2 PUSH4 0xFFFFFFFF AND PUSH1 0xE0 SHL DUP2 MSTORE PUSH1 0x4 ADD PUSH1 0x20 PUSH1 0x40 MLOAD DUP1 DUP4 SUB DUP2 DUP7 DUP1 EXTCODESIZE ISZERO DUP1 ISZERO PUSH2 0x1456 JUMPI PUSH1 0x0 DUP1 REVERT JUMPDEST POP GAS STATICCALL ISZERO DUP1 ISZERO PUSH2 0x146A JUMPI RETURNDATASIZE PUSH1 0x0 DUP1 RETURNDATACOPY RETURNDATASIZE PUSH1 0x0 REVERT JUMPDEST POP POP POP POP PUSH1 0x40 MLOAD RETURNDATASIZE PUSH1 0x1F NOT PUSH1 0x1F DUP3 ADD AND DUP3 ADD DUP1 PUSH1 0x40 MSTORE POP DUP2 ADD SWAP1 PUSH2 0x148E SWAP2 SWAP1 PUSH2 0x29A5 JUMP JUMPDEST PUSH2 0x14A1 DUP4 DUP6 PUSH2 0x21DB SWAP1 SWAP2 SWAP1 PUSH4 0xFFFFFFFF AND JUMP JUMPDEST PUSH2 0x2116 SWAP1 SWAP2 SWAP1 PUSH4 0xFFFFFFFF AND JUMP JUMPDEST SWAP3 POP POP POP SWAP2 SWAP1 POP JUMP JUMPDEST PUSH1 0x0 DUP2 PUSH20 0xFFFFFFFFFFFFFFFFFFFFFFFFFFFFFFFFFFFFFFFF AND PUSH4 0xDFE1681 PUSH1 0x40 MLOAD DUP2 PUSH4 0xFFFFFFFF AND PUSH1 0xE0 SHL DUP2 MSTORE PUSH1 0x4 ADD PUSH1 0x20 PUSH1 0x40 MLOAD DUP1 DUP4 SUB DUP2 DUP7 DUP1 EXTCODESIZE ISZERO DUP1 ISZERO PUSH2 0x1500 JUMPI PUSH1 0x0 DUP1 REVERT JUMPDEST POP GAS STATICCALL SWAP3 POP POP POP DUP1 ISZERO PUSH2 0x1531 JUMPI POP PUSH1 0x40 MLOAD RETURNDATASIZE PUSH1 0x1F NOT PUSH1 0x1F DUP3 ADD AND DUP3 ADD DUP1 PUSH1 0x40 MSTORE POP DUP2 ADD SWAP1 PUSH2 0x152E SWAP2 SWAP1 PUSH2 0x27E8 JUMP JUMPDEST PUSH1 0x1 JUMPDEST PUSH2 0x153E JUMPI PUSH1 0x0 SWAP1 POP PUSH2 0x1544 JUMP JUMPDEST POP PUSH1 0x1 SWAP1 POP JUMPDEST SWAP2 SWAP1 POP JUMP JUMPDEST PUSH1 0x4 PUSH1 0x0 SWAP1 SLOAD SWAP1 PUSH2 0x100 EXP SWAP1 DIV PUSH20 0xFFFFFFFFFFFFFFFFFFFFFFFFFFFFFFFFFFFFFFFF AND DUP2 JUMP JUMPDEST PUSH1 0x0 DUP1 PUSH1 0x2 PUSH8 0xFFFFFFFFFFFFFFFF DUP2 GT ISZERO PUSH2 0x158D JUMPI PUSH2 0x158C PUSH2 0x3155 JUMP JUMPDEST JUMPDEST PUSH1 0x40 MLOAD SWAP1 DUP1 DUP3 MSTORE DUP1 PUSH1 0x20 MUL PUSH1 0x20 ADD DUP3 ADD PUSH1 0x40 MSTORE DUP1 ISZERO PUSH2 0x15BB JUMPI DUP2 PUSH1 0x20 ADD PUSH1 0x20 DUP3 MUL DUP1 CALLDATASIZE DUP4 CALLDATACOPY DUP1 DUP3 ADD SWAP2 POP POP SWAP1 POP JUMPDEST POP SWAP1 POP DUP3 DUP2 PUSH1 0x0 DUP2 MLOAD DUP2 LT PUSH2 0x15D3 JUMPI PUSH2 0x15D2 PUSH2 0x3126 JUMP JUMPDEST JUMPDEST PUSH1 0x20 MUL PUSH1 0x20 ADD ADD SWAP1 PUSH20 0xFFFFFFFFFFFFFFFFFFFFFFFFFFFFFFFFFFFFFFFF AND SWAP1 DUP2 PUSH20 0xFFFFFFFFFFFFFFFFFFFFFFFFFFFFFFFFFFFFFFFF AND DUP2 MSTORE POP POP PUSH1 0x2 PUSH1 0x0 SWAP1 SLOAD SWAP1 PUSH2 0x100 EXP SWAP1 DIV PUSH20 0xFFFFFFFFFFFFFFFFFFFFFFFFFFFFFFFFFFFFFFFF AND DUP2 PUSH1 0x1 DUP2 MLOAD DUP2 LT PUSH2 0x1644 JUMPI PUSH2 0x1643 PUSH2 0x3126 JUMP JUMPDEST JUMPDEST PUSH1 0x20 MUL PUSH1 0x20 ADD ADD SWAP1 PUSH20 0xFFFFFFFFFFFFFFFFFFFFFFFFFFFFFFFFFFFFFFFF AND SWAP1 DUP2 PUSH20 0xFFFFFFFFFFFFFFFFFFFFFFFFFFFFFFFFFFFFFFFF AND DUP2 MSTORE POP POP PUSH1 0x4 PUSH1 0x0 SWAP1 SLOAD SWAP1 PUSH2 0x100 EXP SWAP1 DIV PUSH20 0xFFFFFFFFFFFFFFFFFFFFFFFFFFFFFFFFFFFFFFFF AND PUSH20 0xFFFFFFFFFFFFFFFFFFFFFFFFFFFFFFFFFFFFFFFF AND PUSH4 0xD06CA61F PUSH1 0x3 SLOAD DUP4 PUSH1 0x40 MLOAD DUP4 PUSH4 0xFFFFFFFF AND PUSH1 0xE0 SHL DUP2 MSTORE PUSH1 0x4 ADD PUSH2 0x16DD SWAP3 SWAP2 SWAP1 PUSH2 0x2D36 JUMP JUMPDEST PUSH1 0x0 PUSH1 0x40 MLOAD DUP1 DUP4 SUB DUP2 DUP7 DUP1 EXTCODESIZE ISZERO DUP1 ISZERO PUSH2 0x16F5 JUMPI PUSH1 0x0 DUP1 REVERT JUMPDEST POP GAS STATICCALL ISZERO DUP1 ISZERO PUSH2 0x1709 JUMPI RETURNDATASIZE PUSH1 0x0 DUP1 RETURNDATACOPY RETURNDATASIZE PUSH1 0x0 REVERT JUMPDEST POP POP POP POP PUSH1 0x40 MLOAD RETURNDATASIZE PUSH1 0x0 DUP3 RETURNDATACOPY RETURNDATASIZE PUSH1 0x1F NOT PUSH1 0x1F DUP3 ADD AND DUP3 ADD DUP1 PUSH1 0x40 MSTORE POP DUP2 ADD SWAP1 PUSH2 0x1732 SWAP2 SWAP1 PUSH2 0x279F JUMP JUMPDEST PUSH1 0x1 DUP2 MLOAD DUP2 LT PUSH2 0x1745 JUMPI PUSH2 0x1744 PUSH2 0x3126 JUMP JUMPDEST JUMPDEST PUSH1 0x20 MUL PUSH1 0x20 ADD ADD MLOAD SWAP2 POP POP SWAP2 SWAP1 POP JUMP JUMPDEST PUSH1 0x2 PUSH1 0x0 SWAP1 SLOAD SWAP1 PUSH2 0x100 EXP SWAP1 DIV PUSH20 0xFFFFFFFFFFFFFFFFFFFFFFFFFFFFFFFFFFFFFFFF AND DUP2 JUMP JUMPDEST PUSH1 0x0 DUP1 PUSH1 0x0 SWAP1 POP PUSH1 0x0 JUMPDEST DUP4 MLOAD DUP2 LT ISZERO PUSH2 0x183A JUMPI PUSH1 0x1 PUSH2 0x17B3 DUP6 DUP4 DUP2 MLOAD DUP2 LT PUSH2 0x17A6 JUMPI PUSH2 0x17A5 PUSH2 0x3126 JUMP JUMPDEST JUMPDEST PUSH1 0x20 MUL PUSH1 0x20 ADD ADD MLOAD PUSH2 0x14B8 JUMP JUMPDEST EQ ISZERO PUSH2 0x17F2 JUMPI PUSH2 0x17E0 DUP2 DUP6 DUP4 DUP2 MLOAD DUP2 LT PUSH2 0x17D0 JUMPI PUSH2 0x17CF PUSH2 0x3126 JUMP JUMPDEST JUMPDEST PUSH1 0x20 MUL PUSH1 0x20 ADD ADD MLOAD PUSH1 0x1 DUP9 PUSH2 0x19DC JUMP JUMPDEST DUP3 PUSH2 0x17EB SWAP2 SWAP1 PUSH2 0x2E38 JUMP JUMPDEST SWAP2 POP PUSH2 0x1827 JUMP JUMPDEST PUSH2 0x1819 DUP2 DUP6 DUP4 DUP2 MLOAD DUP2 LT PUSH2 0x1809 JUMPI PUSH2 0x1808 PUSH2 0x3126 JUMP JUMPDEST JUMPDEST PUSH1 0x20 MUL PUSH1 0x20 ADD ADD MLOAD PUSH1 0x0 DUP9 PUSH2 0x19DC JUMP JUMPDEST DUP3 PUSH2 0x1824 SWAP2 SWAP1 PUSH2 0x2E38 JUMP JUMPDEST SWAP2 POP JUMPDEST DUP1 DUP1 PUSH2 0x1832 SWAP1 PUSH2 0x307F JUMP JUMPDEST SWAP2 POP POP PUSH2 0x1785 JUMP JUMPDEST POP DUP1 SWAP2 POP POP SWAP3 SWAP2 POP POP JUMP JUMPDEST PUSH2 0x184D PUSH2 0x2239 JUMP JUMPDEST PUSH20 0xFFFFFFFFFFFFFFFFFFFFFFFFFFFFFFFFFFFFFFFF AND PUSH2 0x186B PUSH2 0x18CD JUMP JUMPDEST PUSH20 0xFFFFFFFFFFFFFFFFFFFFFFFFFFFFFFFFFFFFFFFF AND EQ PUSH2 0x18C1 JUMPI PUSH1 0x40 MLOAD PUSH32 0x8C379A000000000000000000000000000000000000000000000000000000000 DUP2 MSTORE PUSH1 0x4 ADD PUSH2 0x18B8 SWAP1 PUSH2 0x2CFB JUMP JUMPDEST PUSH1 0x40 MLOAD DUP1 SWAP2 SUB SWAP1 REVERT JUMPDEST PUSH2 0x18CB PUSH1 0x0 PUSH2 0x2241 JUMP JUMPDEST JUMP JUMPDEST PUSH1 0x0 DUP1 PUSH1 0x0 SWAP1 SLOAD SWAP1 PUSH2 0x100 EXP SWAP1 DIV PUSH20 0xFFFFFFFFFFFFFFFFFFFFFFFFFFFFFFFFFFFFFFFF AND SWAP1 POP SWAP1 JUMP JUMPDEST PUSH1 0x1 PUSH1 0x0 SWAP1 SLOAD SWAP1 PUSH2 0x100 EXP SWAP1 DIV PUSH20 0xFFFFFFFFFFFFFFFFFFFFFFFFFFFFFFFFFFFFFFFF AND DUP2 JUMP JUMPDEST PUSH2 0x1924 PUSH2 0x2239 JUMP JUMPDEST PUSH20 0xFFFFFFFFFFFFFFFFFFFFFFFFFFFFFFFFFFFFFFFF AND PUSH2 0x1942 PUSH2 0x18CD JUMP JUMPDEST PUSH20 0xFFFFFFFFFFFFFFFFFFFFFFFFFFFFFFFFFFFFFFFF AND EQ PUSH2 0x1998 JUMPI PUSH1 0x40 MLOAD PUSH32 0x8C379A000000000000000000000000000000000000000000000000000000000 DUP2 MSTORE PUSH1 0x4 ADD PUSH2 0x198F SWAP1 PUSH2 0x2CFB JUMP JUMPDEST PUSH1 0x40 MLOAD DUP1 SWAP2 SUB SWAP1 REVERT JUMPDEST DUP1 PUSH1 0x4 PUSH1 0x0 PUSH2 0x100 EXP DUP2 SLOAD DUP2 PUSH20 0xFFFFFFFFFFFFFFFFFFFFFFFFFFFFFFFFFFFFFFFF MUL NOT AND SWAP1 DUP4 PUSH20 0xFFFFFFFFFFFFFFFFFFFFFFFFFFFFFFFFFFFFFFFF AND MUL OR SWAP1 SSTORE POP POP JUMP JUMPDEST PUSH1 0x0 DUP1 DUP3 PUSH20 0xFFFFFFFFFFFFFFFFFFFFFFFFFFFFFFFFFFFFFFFF AND PUSH4 0x6A6D964E DUP8 PUSH1 0x40 MLOAD DUP3 PUSH4 0xFFFFFFFF AND PUSH1 0xE0 SHL DUP2 MSTORE PUSH1 0x4 ADD PUSH2 0x1A18 SWAP2 SWAP1 PUSH2 0x2D1B JUMP JUMPDEST PUSH1 0x20 PUSH1 0x40 MLOAD DUP1 DUP4 SUB DUP2 DUP7 DUP1 EXTCODESIZE ISZERO DUP1 ISZERO PUSH2 0x1A30 JUMPI PUSH1 0x0 DUP1 REVERT JUMPDEST POP GAS STATICCALL ISZERO DUP1 ISZERO PUSH2 0x1A44 JUMPI RETURNDATASIZE PUSH1 0x0 DUP1 RETURNDATACOPY RETURNDATASIZE PUSH1 0x0 REVERT JUMPDEST POP POP POP POP PUSH1 0x40 MLOAD RETURNDATASIZE PUSH1 0x1F NOT PUSH1 0x1F DUP3 ADD AND DUP3 ADD DUP1 PUSH1 0x40 MSTORE POP DUP2 ADD SWAP1 PUSH2 0x1A68 SWAP2 SWAP1 PUSH2 0x29A5 JUMP JUMPDEST SWAP1 POP PUSH1 0x0 PUSH1 0x1 DUP6 EQ ISZERO PUSH2 0x1A85 JUMPI PUSH2 0x1A7E DUP7 PUSH2 0xBDA JUMP JUMPDEST SWAP1 POP PUSH2 0x1B02 JUMP JUMPDEST PUSH1 0x0 DUP6 EQ ISZERO PUSH2 0x1B01 JUMPI DUP6 PUSH20 0xFFFFFFFFFFFFFFFFFFFFFFFFFFFFFFFFFFFFFFFF AND PUSH1 0x1 PUSH1 0x0 SWAP1 SLOAD SWAP1 PUSH2 0x100 EXP SWAP1 DIV PUSH20 0xFFFFFFFFFFFFFFFFFFFFFFFFFFFFFFFFFFFFFFFF AND PUSH20 0xFFFFFFFFFFFFFFFFFFFFFFFFFFFFFFFFFFFFFFFF AND EQ ISZERO PUSH2 0x1AF4 JUMPI PUSH2 0x1AED DUP7 PUSH2 0x156F JUMP JUMPDEST SWAP1 POP PUSH2 0x1B00 JUMP JUMPDEST PUSH2 0x1AFD DUP7 PUSH2 0x983 JUMP JUMPDEST SWAP1 POP JUMPDEST JUMPDEST JUMPDEST PUSH2 0x1B22 PUSH1 0x3 SLOAD DUP3 DUP5 PUSH2 0x1B14 SWAP2 SWAP1 PUSH2 0x2EBF JUMP JUMPDEST PUSH2 0x2116 SWAP1 SWAP2 SWAP1 PUSH4 0xFFFFFFFF AND JUMP JUMPDEST SWAP3 POP POP POP SWAP5 SWAP4 POP POP POP POP JUMP JUMPDEST PUSH1 0x0 DUP1 DUP3 PUSH20 0xFFFFFFFFFFFFFFFFFFFFFFFFFFFFFFFFFFFFFFFF AND PUSH4 0x1526FE27 DUP8 PUSH1 0x40 MLOAD DUP3 PUSH4 0xFFFFFFFF AND PUSH1 0xE0 SHL DUP2 MSTORE PUSH1 0x4 ADD PUSH2 0x1B6A SWAP2 SWAP1 PUSH2 0x2D1B JUMP JUMPDEST PUSH1 0xC0 PUSH1 0x40 MLOAD DUP1 DUP4 SUB DUP2 DUP7 DUP1 EXTCODESIZE ISZERO DUP1 ISZERO PUSH2 0x1B82 JUMPI PUSH1 0x0 DUP1 REVERT JUMPDEST POP GAS STATICCALL ISZERO DUP1 ISZERO PUSH2 0x1B96 JUMPI RETURNDATASIZE PUSH1 0x0 DUP1 RETURNDATACOPY RETURNDATASIZE PUSH1 0x0 REVERT JUMPDEST POP POP POP POP PUSH1 0x40 MLOAD RETURNDATASIZE PUSH1 0x1F NOT PUSH1 0x1F DUP3 ADD AND DUP3 ADD DUP1 PUSH1 0x40 MSTORE POP DUP2 ADD SWAP1 PUSH2 0x1BBA SWAP2 SWAP1 PUSH2 0x291E JUMP JUMPDEST SWAP1 POP PUSH1 0x0 PUSH2 0x1C66 DUP5 PUSH20 0xFFFFFFFFFFFFFFFFFFFFFFFFFFFFFFFFFFFFFFFF AND PUSH4 0x17CAF6F1 PUSH1 0x40 MLOAD DUP2 PUSH4 0xFFFFFFFF AND PUSH1 0xE0 SHL DUP2 MSTORE PUSH1 0x4 ADD PUSH1 0x20 PUSH1 0x40 MLOAD DUP1 DUP4 SUB DUP2 DUP7 DUP1 EXTCODESIZE ISZERO DUP1 ISZERO PUSH2 0x1C07 JUMPI PUSH1 0x0 DUP1 REVERT JUMPDEST POP GAS STATICCALL ISZERO DUP1 ISZERO PUSH2 0x1C1B JUMPI RETURNDATASIZE PUSH1 0x0 DUP1 RETURNDATACOPY RETURNDATASIZE PUSH1 0x0 REVERT JUMPDEST POP POP POP POP PUSH1 0x40 MLOAD RETURNDATASIZE PUSH1 0x1F NOT PUSH1 0x1F DUP3 ADD AND DUP3 ADD DUP1 PUSH1 0x40 MSTORE POP DUP2 ADD SWAP1 PUSH2 0x1C3F SWAP2 SWAP1 PUSH2 0x29A5 JUMP JUMPDEST PUSH2 0x1C58 PUSH1 0x3 SLOAD DUP6 PUSH1 0x20 ADD MLOAD PUSH2 0x2160 SWAP1 SWAP2 SWAP1 PUSH4 0xFFFFFFFF AND JUMP JUMPDEST PUSH2 0x2116 SWAP1 SWAP2 SWAP1 PUSH4 0xFFFFFFFF AND JUMP JUMPDEST SWAP1 POP PUSH1 0x0 PUSH2 0x1CF0 DUP6 PUSH20 0xFFFFFFFFFFFFFFFFFFFFFFFFFFFFFFFFFFFFFFFF AND PUSH4 0xCB3CBA55 PUSH1 0x40 MLOAD DUP2 PUSH4 0xFFFFFFFF AND PUSH1 0xE0 SHL DUP2 MSTORE PUSH1 0x4 ADD PUSH1 0x20 PUSH1 0x40 MLOAD DUP1 DUP4 SUB DUP2 DUP7 DUP1 EXTCODESIZE ISZERO DUP1 ISZERO PUSH2 0x1CB3 JUMPI PUSH1 0x0 DUP1 REVERT JUMPDEST POP GAS STATICCALL ISZERO DUP1 ISZERO PUSH2 0x1CC7 JUMPI RETURNDATASIZE PUSH1 0x0 DUP1 RETURNDATACOPY RETURNDATASIZE PUSH1 0x0 REVERT JUMPDEST POP POP POP POP PUSH1 0x40 MLOAD RETURNDATASIZE PUSH1 0x1F NOT PUSH1 0x1F DUP3 ADD AND DUP3 ADD DUP1 PUSH1 0x40 MSTORE POP DUP2 ADD SWAP1 PUSH2 0x1CEB SWAP2 SWAP1 PUSH2 0x2772 JUMP JUMPDEST PUSH2 0x983 JUMP JUMPDEST SWAP1 POP PUSH1 0x0 PUSH2 0x1D86 DUP7 PUSH20 0xFFFFFFFFFFFFFFFFFFFFFFFFFFFFFFFFFFFFFFFF AND PUSH4 0xF395DB2C PUSH1 0x40 MLOAD DUP2 PUSH4 0xFFFFFFFF AND PUSH1 0xE0 SHL DUP2 MSTORE PUSH1 0x4 ADD PUSH1 0x20 PUSH1 0x40 MLOAD DUP1 DUP4 SUB DUP2 DUP7 DUP1 EXTCODESIZE ISZERO DUP1 ISZERO PUSH2 0x1D3D JUMPI PUSH1 0x0 DUP1 REVERT JUMPDEST POP GAS STATICCALL ISZERO DUP1 ISZERO PUSH2 0x1D51 JUMPI RETURNDATASIZE PUSH1 0x0 DUP1 RETURNDATACOPY RETURNDATASIZE PUSH1 0x0 REVERT JUMPDEST POP POP POP POP PUSH1 0x40 MLOAD RETURNDATASIZE PUSH1 0x1F NOT PUSH1 0x1F DUP3 ADD AND DUP3 ADD DUP1 PUSH1 0x40 MSTORE POP DUP2 ADD SWAP1 PUSH2 0x1D75 SWAP2 SWAP1 PUSH2 0x29A5 JUMP JUMPDEST PUSH1 0x5 SLOAD PUSH2 0x2160 SWAP1 SWAP2 SWAP1 PUSH4 0xFFFFFFFF AND JUMP JUMPDEST SWAP1 POP PUSH1 0x0 PUSH2 0x1DB1 PUSH1 0x3 SLOAD PUSH2 0x1DA3 DUP7 DUP6 PUSH2 0x2160 SWAP1 SWAP2 SWAP1 PUSH4 0xFFFFFFFF AND JUMP JUMPDEST PUSH2 0x2116 SWAP1 SWAP2 SWAP1 PUSH4 0xFFFFFFFF AND JUMP JUMPDEST SWAP1 POP PUSH1 0x0 PUSH2 0x1DC1 DUP12 DUP12 DUP12 DUP12 PUSH2 0x19DC JUMP JUMPDEST SWAP1 POP PUSH1 0x0 DUP2 EQ ISZERO PUSH2 0x1DDB JUMPI PUSH1 0x0 SWAP7 POP POP POP POP POP POP POP PUSH2 0x1E1C JUMP JUMPDEST PUSH2 0x1E13 PUSH1 0x64 PUSH2 0x1E05 DUP4 PUSH2 0x1DF7 DUP9 DUP8 PUSH2 0x2160 SWAP1 SWAP2 SWAP1 PUSH4 0xFFFFFFFF AND JUMP JUMPDEST PUSH2 0x2116 SWAP1 SWAP2 SWAP1 PUSH4 0xFFFFFFFF AND JUMP JUMPDEST PUSH2 0x2160 SWAP1 SWAP2 SWAP1 PUSH4 0xFFFFFFFF AND JUMP JUMPDEST SWAP7 POP POP POP POP POP POP POP JUMPDEST SWAP5 SWAP4 POP POP POP POP JUMP JUMPDEST PUSH1 0x0 DUP1 DUP3 PUSH20 0xFFFFFFFFFFFFFFFFFFFFFFFFFFFFFFFFFFFFFFFF AND PUSH4 0x1526FE27 DUP6 PUSH1 0x40 MLOAD DUP3 PUSH4 0xFFFFFFFF AND PUSH1 0xE0 SHL DUP2 MSTORE PUSH1 0x4 ADD PUSH2 0x1E60 SWAP2 SWAP1 PUSH2 0x2D1B JUMP JUMPDEST PUSH1 0x80 PUSH1 0x40 MLOAD DUP1 DUP4 SUB DUP2 DUP7 DUP1 EXTCODESIZE ISZERO DUP1 ISZERO PUSH2 0x1E78 JUMPI PUSH1 0x0 DUP1 REVERT JUMPDEST POP GAS STATICCALL ISZERO DUP1 ISZERO PUSH2 0x1E8C JUMPI RETURNDATASIZE PUSH1 0x0 DUP1 RETURNDATACOPY RETURNDATASIZE PUSH1 0x0 REVERT JUMPDEST POP POP POP POP PUSH1 0x40 MLOAD RETURNDATASIZE PUSH1 0x1F NOT PUSH1 0x1F DUP3 ADD AND DUP3 ADD DUP1 PUSH1 0x40 MSTORE POP DUP2 ADD SWAP1 PUSH2 0x1EB0 SWAP2 SWAP1 PUSH2 0x294B JUMP JUMPDEST SWAP1 POP PUSH1 0x0 DUP2 PUSH1 0x20 ADD MLOAD SWAP1 POP PUSH1 0x0 DUP5 PUSH20 0xFFFFFFFFFFFFFFFFFFFFFFFFFFFFFFFFFFFFFFFF AND PUSH4 0x17CAF6F1 PUSH1 0x40 MLOAD DUP2 PUSH4 0xFFFFFFFF AND PUSH1 0xE0 SHL DUP2 MSTORE PUSH1 0x4 ADD PUSH1 0x20 PUSH1 0x40 MLOAD DUP1 DUP4 SUB DUP2 DUP7 DUP1 EXTCODESIZE ISZERO DUP1 ISZERO PUSH2 0x1F03 JUMPI PUSH1 0x0 DUP1 REVERT JUMPDEST POP GAS STATICCALL ISZERO DUP1 ISZERO PUSH2 0x1F17 JUMPI RETURNDATASIZE PUSH1 0x0 DUP1 RETURNDATACOPY RETURNDATASIZE PUSH1 0x0 REVERT JUMPDEST POP POP POP POP PUSH1 0x40 MLOAD RETURNDATASIZE PUSH1 0x1F NOT PUSH1 0x1F DUP3 ADD AND DUP3 ADD DUP1 PUSH1 0x40 MSTORE POP DUP2 ADD SWAP1 PUSH2 0x1F3B SWAP2 SWAP1 PUSH2 0x29A5 JUMP JUMPDEST SWAP1 POP PUSH1 0x0 DUP6 PUSH20 0xFFFFFFFFFFFFFFFFFFFFFFFFFFFFFFFFFFFFFFFF AND PUSH4 0x5990C569 PUSH1 0x40 MLOAD DUP2 PUSH4 0xFFFFFFFF AND PUSH1 0xE0 SHL DUP2 MSTORE PUSH1 0x4 ADD PUSH1 0x20 PUSH1 0x40 MLOAD DUP1 DUP4 SUB DUP2 DUP7 DUP1 EXTCODESIZE ISZERO DUP1 ISZERO PUSH2 0x1F85 JUMPI PUSH1 0x0 DUP1 REVERT JUMPDEST POP GAS STATICCALL ISZERO DUP1 ISZERO PUSH2 0x1F99 JUMPI RETURNDATASIZE PUSH1 0x0 DUP1 RETURNDATACOPY RETURNDATASIZE PUSH1 0x0 REVERT JUMPDEST POP POP POP POP PUSH1 0x40 MLOAD RETURNDATASIZE PUSH1 0x1F NOT PUSH1 0x1F DUP3 ADD AND DUP3 ADD DUP1 PUSH1 0x40 MSTORE POP DUP2 ADD SWAP1 PUSH2 0x1FBD SWAP2 SWAP1 PUSH2 0x29A5 JUMP JUMPDEST SWAP1 POP PUSH1 0x0 PUSH2 0x1FEA PUSH2 0x16D PUSH2 0x1FDC DUP5 PUSH1 0x5 SLOAD PUSH2 0x2160 SWAP1 SWAP2 SWAP1 PUSH4 0xFFFFFFFF AND JUMP JUMPDEST PUSH2 0x2116 SWAP1 SWAP2 SWAP1 PUSH4 0xFFFFFFFF AND JUMP JUMPDEST SWAP1 POP PUSH2 0x2011 DUP4 PUSH2 0x2003 DUP7 DUP5 PUSH2 0x2160 SWAP1 SWAP2 SWAP1 PUSH4 0xFFFFFFFF AND JUMP JUMPDEST PUSH2 0x2116 SWAP1 SWAP2 SWAP1 PUSH4 0xFFFFFFFF AND JUMP JUMPDEST SWAP6 POP POP POP POP POP POP SWAP3 SWAP2 POP POP JUMP JUMPDEST PUSH2 0x2026 PUSH2 0x2239 JUMP JUMPDEST PUSH20 0xFFFFFFFFFFFFFFFFFFFFFFFFFFFFFFFFFFFFFFFF AND PUSH2 0x2044 PUSH2 0x18CD JUMP JUMPDEST PUSH20 0xFFFFFFFFFFFFFFFFFFFFFFFFFFFFFFFFFFFFFFFF AND EQ PUSH2 0x209A JUMPI PUSH1 0x40 MLOAD PUSH32 0x8C379A000000000000000000000000000000000000000000000000000000000 DUP2 MSTORE PUSH1 0x4 ADD PUSH2 0x2091 SWAP1 PUSH2 0x2CFB JUMP JUMPDEST PUSH1 0x40 MLOAD DUP1 SWAP2 SUB SWAP1 REVERT JUMPDEST PUSH1 0x0 PUSH20 0xFFFFFFFFFFFFFFFFFFFFFFFFFFFFFFFFFFFFFFFF AND DUP2 PUSH20 0xFFFFFFFFFFFFFFFFFFFFFFFFFFFFFFFFFFFFFFFF AND EQ ISZERO PUSH2 0x210A JUMPI PUSH1 0x40 MLOAD PUSH32 0x8C379A000000000000000000000000000000000000000000000000000000000 DUP2 MSTORE PUSH1 0x4 ADD PUSH2 0x2101 SWAP1 PUSH2 0x2C9B JUMP JUMPDEST PUSH1 0x40 MLOAD DUP1 SWAP2 SUB SWAP1 REVERT JUMPDEST PUSH2 0x2113 DUP2 PUSH2 0x2241 JUMP JUMPDEST POP JUMP JUMPDEST PUSH1 0x0 PUSH2 0x2158 DUP4 DUP4 PUSH1 0x40 MLOAD DUP1 PUSH1 0x40 ADD PUSH1 0x40 MSTORE DUP1 PUSH1 0x1A DUP2 MSTORE PUSH1 0x20 ADD PUSH32 0x536166654D6174683A206469766973696F6E206279207A65726F000000000000 DUP2 MSTORE POP PUSH2 0x2305 JUMP JUMPDEST SWAP1 POP SWAP3 SWAP2 POP POP JUMP JUMPDEST PUSH1 0x0 DUP1 DUP4 EQ ISZERO PUSH2 0x2173 JUMPI PUSH1 0x0 SWAP1 POP PUSH2 0x21D5 JUMP JUMPDEST PUSH1 0x0 DUP3 DUP5 PUSH2 0x2181 SWAP2 SWAP1 PUSH2 0x2EBF JUMP JUMPDEST SWAP1 POP DUP3 DUP5 DUP3 PUSH2 0x2190 SWAP2 SWAP1 PUSH2 0x2E8E JUMP JUMPDEST EQ PUSH2 0x21D0 JUMPI PUSH1 0x40 MLOAD PUSH32 0x8C379A000000000000000000000000000000000000000000000000000000000 DUP2 MSTORE PUSH1 0x4 ADD PUSH2 0x21C7 SWAP1 PUSH2 0x2CDB JUMP JUMPDEST PUSH1 0x40 MLOAD DUP1 SWAP2 SUB SWAP1 REVERT JUMPDEST DUP1 SWAP2 POP POP JUMPDEST SWAP3 SWAP2 POP POP JUMP JUMPDEST PUSH1 0x0 DUP1 DUP3 DUP5 PUSH2 0x21EA SWAP2 SWAP1 PUSH2 0x2E38 JUMP JUMPDEST SWAP1 POP DUP4 DUP2 LT ISZERO PUSH2 0x222F JUMPI PUSH1 0x40 MLOAD PUSH32 0x8C379A000000000000000000000000000000000000000000000000000000000 DUP2 MSTORE PUSH1 0x4 ADD PUSH2 0x2226 SWAP1 PUSH2 0x2CBB JUMP JUMPDEST PUSH1 0x40 MLOAD DUP1 SWAP2 SUB SWAP1 REVERT JUMPDEST DUP1 SWAP2 POP POP SWAP3 SWAP2 POP POP JUMP JUMPDEST PUSH1 0x0 CALLER SWAP1 POP SWAP1 JUMP JUMPDEST PUSH1 0x0 DUP1 PUSH1 0x0 SWAP1 SLOAD SWAP1 PUSH2 0x100 EXP SWAP1 DIV PUSH20 0xFFFFFFFFFFFFFFFFFFFFFFFFFFFFFFFFFFFFFFFF AND SWAP1 POP DUP2 PUSH1 0x0 DUP1 PUSH2 0x100 EXP DUP2 SLOAD DUP2 PUSH20 0xFFFFFFFFFFFFFFFFFFFFFFFFFFFFFFFFFFFFFFFF MUL NOT AND SWAP1 DUP4 PUSH20 0xFFFFFFFFFFFFFFFFFFFFFFFFFFFFFFFFFFFFFFFF AND MUL OR SWAP1 SSTORE POP DUP2 PUSH20 0xFFFFFFFFFFFFFFFFFFFFFFFFFFFFFFFFFFFFFFFF AND DUP2 PUSH20 0xFFFFFFFFFFFFFFFFFFFFFFFFFFFFFFFFFFFFFFFF AND PUSH32 0x8BE0079C531659141344CD1FD0A4F28419497F9722A3DAAFE3B4186F6B6457E0 PUSH1 0x40 MLOAD PUSH1 0x40 MLOAD DUP1 SWAP2 SUB SWAP1 LOG3 POP POP JUMP JUMPDEST PUSH1 0x0 DUP1 DUP4 GT DUP3 SWAP1 PUSH2 0x234C JUMPI PUSH1 0x40 MLOAD PUSH32 0x8C379A000000000000000000000000000000000000000000000000000000000 DUP2 MSTORE PUSH1 0x4 ADD PUSH2 0x2343 SWAP2 SWAP1 PUSH2 0x2C79 JUMP JUMPDEST PUSH1 0x40 MLOAD DUP1 SWAP2 SUB SWAP1 REVERT JUMPDEST POP PUSH1 0x0 DUP4 DUP6 PUSH2 0x235B SWAP2 SWAP1 PUSH2 0x2E8E JUMP JUMPDEST SWAP1 POP DUP1 SWAP2 POP POP SWAP4 SWAP3 POP POP POP JUMP JUMPDEST PUSH1 0x0 PUSH2 0x237B PUSH2 0x2376 DUP5 PUSH2 0x2D8B JUMP JUMPDEST PUSH2 0x2D66 JUMP JUMPDEST SWAP1 POP DUP1 DUP4 DUP3 MSTORE PUSH1 0x20 DUP3 ADD SWAP1 POP DUP3 DUP6 PUSH1 0x20 DUP7 MUL DUP3 ADD GT ISZERO PUSH2 0x239E JUMPI PUSH2 0x239D PUSH2 0x318E JUMP JUMPDEST JUMPDEST PUSH1 0x0 JUMPDEST DUP6 DUP2 LT ISZERO PUSH2 0x23CE JUMPI DUP2 PUSH2 0x23B4 DUP9 DUP3 PUSH2 0x2522 JUMP JUMPDEST DUP5 MSTORE PUSH1 0x20 DUP5 ADD SWAP4 POP PUSH1 0x20 DUP4 ADD SWAP3 POP POP PUSH1 0x1 DUP2 ADD SWAP1 POP PUSH2 0x23A1 JUMP JUMPDEST POP POP POP SWAP4 SWAP3 POP POP POP JUMP JUMPDEST PUSH1 0x0 PUSH2 0x23EB PUSH2 0x23E6 DUP5 PUSH2 0x2DB7 JUMP JUMPDEST PUSH2 0x2D66 JUMP JUMPDEST SWAP1 POP DUP1 DUP4 DUP3 MSTORE PUSH1 0x20 DUP3 ADD SWAP1 POP DUP3 DUP6 PUSH1 0x20 DUP7 MUL DUP3 ADD GT ISZERO PUSH2 0x240E JUMPI PUSH2 0x240D PUSH2 0x318E JUMP JUMPDEST JUMPDEST PUSH1 0x0 JUMPDEST DUP6 DUP2 LT ISZERO PUSH2 0x243E JUMPI DUP2 PUSH2 0x2424 DUP9 DUP3 PUSH2 0x2730 JUMP JUMPDEST DUP5 MSTORE PUSH1 0x20 DUP5 ADD SWAP4 POP PUSH1 0x20 DUP4 ADD SWAP3 POP POP PUSH1 0x1 DUP2 ADD SWAP1 POP PUSH2 0x2411 JUMP JUMPDEST POP POP POP SWAP4 SWAP3 POP POP POP JUMP JUMPDEST PUSH1 0x0 DUP2 CALLDATALOAD SWAP1 POP PUSH2 0x2457 DUP2 PUSH2 0x329E JUMP JUMPDEST SWAP3 SWAP2 POP POP JUMP JUMPDEST PUSH1 0x0 DUP2 MLOAD SWAP1 POP PUSH2 0x246C DUP2 PUSH2 0x329E JUMP JUMPDEST SWAP3 SWAP2 POP POP JUMP JUMPDEST PUSH1 0x0 DUP3 PUSH1 0x1F DUP4 ADD SLT PUSH2 0x2487 JUMPI PUSH2 0x2486 PUSH2 0x3184 JUMP JUMPDEST JUMPDEST DUP2 CALLDATALOAD PUSH2 0x2497 DUP5 DUP3 PUSH1 0x20 DUP7 ADD PUSH2 0x2368 JUMP JUMPDEST SWAP2 POP POP SWAP3 SWAP2 POP POP JUMP JUMPDEST PUSH1 0x0 DUP3 PUSH1 0x1F DUP4 ADD SLT PUSH2 0x24B5 JUMPI PUSH2 0x24B4 PUSH2 0x3184 JUMP JUMPDEST JUMPDEST DUP2 MLOAD PUSH2 0x24C5 DUP5 DUP3 PUSH1 0x20 DUP7 ADD PUSH2 0x23D8 JUMP JUMPDEST SWAP2 POP POP SWAP3 SWAP2 POP POP JUMP JUMPDEST PUSH1 0x0 DUP2 MLOAD SWAP1 POP PUSH2 0x24DD DUP2 PUSH2 0x32B5 JUMP JUMPDEST SWAP3 SWAP2 POP POP JUMP JUMPDEST PUSH1 0x0 DUP2 CALLDATALOAD SWAP1 POP PUSH2 0x24F2 DUP2 PUSH2 0x32CC JUMP JUMPDEST SWAP3 SWAP2 POP POP JUMP JUMPDEST PUSH1 0x0 DUP2 MLOAD SWAP1 POP PUSH2 0x2507 DUP2 PUSH2 0x32CC JUMP JUMPDEST SWAP3 SWAP2 POP POP JUMP JUMPDEST PUSH1 0x0 DUP2 MLOAD SWAP1 POP PUSH2 0x251C DUP2 PUSH2 0x32E3 JUMP JUMPDEST SWAP3 SWAP2 POP POP JUMP JUMPDEST PUSH1 0x0 DUP2 CALLDATALOAD SWAP1 POP PUSH2 0x2531 DUP2 PUSH2 0x32FA JUMP JUMPDEST SWAP3 SWAP2 POP POP JUMP JUMPDEST PUSH1 0x0 DUP2 CALLDATALOAD SWAP1 POP PUSH2 0x2546 DUP2 PUSH2 0x3311 JUMP JUMPDEST SWAP3 SWAP2 POP POP JUMP JUMPDEST PUSH1 0x0 DUP2 CALLDATALOAD SWAP1 POP PUSH2 0x255B DUP2 PUSH2 0x3328 JUMP JUMPDEST SWAP3 SWAP2 POP POP JUMP JUMPDEST PUSH1 0x0 DUP2 CALLDATALOAD SWAP1 POP PUSH2 0x2570 DUP2 PUSH2 0x333F JUMP JUMPDEST SWAP3 SWAP2 POP POP JUMP JUMPDEST PUSH1 0x0 DUP2 CALLDATALOAD SWAP1 POP PUSH2 0x2585 DUP2 PUSH2 0x3356 JUMP JUMPDEST SWAP3 SWAP2 POP POP JUMP JUMPDEST PUSH1 0x0 PUSH1 0xC0 DUP3 DUP5 SUB SLT ISZERO PUSH2 0x25A1 JUMPI PUSH2 0x25A0 PUSH2 0x3189 JUMP JUMPDEST JUMPDEST PUSH2 0x25AB PUSH1 0xC0 PUSH2 0x2D66 JUMP JUMPDEST SWAP1 POP PUSH1 0x0 PUSH2 0x25BB DUP5 DUP3 DUP6 ADD PUSH2 0x24CE JUMP JUMPDEST PUSH1 0x0 DUP4 ADD MSTORE POP PUSH1 0x20 PUSH2 0x25CF DUP5 DUP3 DUP6 ADD PUSH2 0x2730 JUMP JUMPDEST PUSH1 0x20 DUP4 ADD MSTORE POP PUSH1 0x40 PUSH2 0x25E3 DUP5 DUP3 DUP6 ADD PUSH2 0x2730 JUMP JUMPDEST PUSH1 0x40 DUP4 ADD MSTORE POP PUSH1 0x60 PUSH2 0x25F7 DUP5 DUP3 DUP6 ADD PUSH2 0x2730 JUMP JUMPDEST PUSH1 0x60 DUP4 ADD MSTORE POP PUSH1 0x80 PUSH2 0x260B DUP5 DUP3 DUP6 ADD PUSH2 0x250D JUMP JUMPDEST PUSH1 0x80 DUP4 ADD MSTORE POP PUSH1 0xA0 PUSH2 0x261F DUP5 DUP3 DUP6 ADD PUSH2 0x24CE JUMP JUMPDEST PUSH1 0xA0 DUP4 ADD MSTORE POP SWAP3 SWAP2 POP POP JUMP JUMPDEST PUSH1 0x0 PUSH1 0x80 DUP3 DUP5 SUB SLT ISZERO PUSH2 0x2641 JUMPI PUSH2 0x2640 PUSH2 0x3189 JUMP JUMPDEST JUMPDEST PUSH2 0x264B PUSH1 0x80 PUSH2 0x2D66 JUMP JUMPDEST SWAP1 POP PUSH1 0x0 PUSH2 0x265B DUP5 DUP3 DUP6 ADD PUSH2 0x24CE JUMP JUMPDEST PUSH1 0x0 DUP4 ADD MSTORE POP PUSH1 0x20 PUSH2 0x266F DUP5 DUP3 DUP6 ADD PUSH2 0x2730 JUMP JUMPDEST PUSH1 0x20 DUP4 ADD MSTORE POP PUSH1 0x40 PUSH2 0x2683 DUP5 DUP3 DUP6 ADD PUSH2 0x2730 JUMP JUMPDEST PUSH1 0x40 DUP4 ADD MSTORE POP PUSH1 0x60 PUSH2 0x2697 DUP5 DUP3 DUP6 ADD PUSH2 0x2730 JUMP JUMPDEST PUSH1 0x60 DUP4 ADD MSTORE POP SWAP3 SWAP2 POP POP JUMP JUMPDEST PUSH1 0x0 PUSH1 0x80 DUP3 DUP5 SUB SLT ISZERO PUSH2 0x26B9 JUMPI PUSH2 0x26B8 PUSH2 0x3189 JUMP JUMPDEST JUMPDEST PUSH2 0x26C3 PUSH1 0x80 PUSH2 0x2D66 JUMP JUMPDEST SWAP1 POP PUSH1 0x0 PUSH2 0x26D3 DUP5 DUP3 DUP6 ADD PUSH2 0x24F8 JUMP JUMPDEST PUSH1 0x0 DUP4 ADD MSTORE POP PUSH1 0x20 PUSH2 0x26E7 DUP5 DUP3 DUP6 ADD PUSH2 0x2730 JUMP JUMPDEST PUSH1 0x20 DUP4 ADD MSTORE POP PUSH1 0x40 PUSH2 0x26FB DUP5 DUP3 DUP6 ADD PUSH2 0x2730 JUMP JUMPDEST PUSH1 0x40 DUP4 ADD MSTORE POP PUSH1 0x60 PUSH2 0x270F DUP5 DUP3 DUP6 ADD PUSH2 0x2730 JUMP JUMPDEST PUSH1 0x60 DUP4 ADD MSTORE POP SWAP3 SWAP2 POP POP JUMP JUMPDEST PUSH1 0x0 DUP2 CALLDATALOAD SWAP1 POP PUSH2 0x272A DUP2 PUSH2 0x336D JUMP JUMPDEST SWAP3 SWAP2 POP POP JUMP JUMPDEST PUSH1 0x0 DUP2 MLOAD SWAP1 POP PUSH2 0x273F DUP2 PUSH2 0x336D JUMP JUMPDEST SWAP3 SWAP2 POP POP JUMP JUMPDEST PUSH1 0x0 PUSH1 0x20 DUP3 DUP5 SUB SLT ISZERO PUSH2 0x275B JUMPI PUSH2 0x275A PUSH2 0x3198 JUMP JUMPDEST JUMPDEST PUSH1 0x0 PUSH2 0x2769 DUP5 DUP3 DUP6 ADD PUSH2 0x2448 JUMP JUMPDEST SWAP2 POP POP SWAP3 SWAP2 POP POP JUMP JUMPDEST PUSH1 0x0 PUSH1 0x20 DUP3 DUP5 SUB SLT ISZERO PUSH2 0x2788 JUMPI PUSH2 0x2787 PUSH2 0x3198 JUMP JUMPDEST JUMPDEST PUSH1 0x0 PUSH2 0x2796 DUP5 DUP3 DUP6 ADD PUSH2 0x245D JUMP JUMPDEST SWAP2 POP POP SWAP3 SWAP2 POP POP JUMP JUMPDEST PUSH1 0x0 PUSH1 0x20 DUP3 DUP5 SUB SLT ISZERO PUSH2 0x27B5 JUMPI PUSH2 0x27B4 PUSH2 0x3198 JUMP JUMPDEST JUMPDEST PUSH1 0x0 DUP3 ADD MLOAD PUSH8 0xFFFFFFFFFFFFFFFF DUP2 GT ISZERO PUSH2 0x27D3 JUMPI PUSH2 0x27D2 PUSH2 0x3193 JUMP JUMPDEST JUMPDEST PUSH2 0x27DF DUP5 DUP3 DUP6 ADD PUSH2 0x24A0 JUMP JUMPDEST SWAP2 POP POP SWAP3 SWAP2 POP POP JUMP JUMPDEST PUSH1 0x0 PUSH1 0x20 DUP3 DUP5 SUB SLT ISZERO PUSH2 0x27FE JUMPI PUSH2 0x27FD PUSH2 0x3198 JUMP JUMPDEST JUMPDEST PUSH1 0x0 PUSH2 0x280C DUP5 DUP3 DUP6 ADD PUSH2 0x24CE JUMP JUMPDEST SWAP2 POP POP SWAP3 SWAP2 POP POP JUMP JUMPDEST PUSH1 0x0 PUSH1 0x20 DUP3 DUP5 SUB SLT ISZERO PUSH2 0x282B JUMPI PUSH2 0x282A PUSH2 0x3198 JUMP JUMPDEST JUMPDEST PUSH1 0x0 PUSH2 0x2839 DUP5 DUP3 DUP6 ADD PUSH2 0x2522 JUMP JUMPDEST SWAP2 POP POP SWAP3 SWAP2 POP POP JUMP JUMPDEST PUSH1 0x0 DUP1 PUSH1 0x0 PUSH1 0x60 DUP5 DUP7 SUB SLT ISZERO PUSH2 0x285B JUMPI PUSH2 0x285A PUSH2 0x3198 JUMP JUMPDEST JUMPDEST PUSH1 0x0 PUSH2 0x2869 DUP7 DUP3 DUP8 ADD PUSH2 0x2522 JUMP JUMPDEST SWAP4 POP POP PUSH1 0x20 PUSH2 0x287A DUP7 DUP3 DUP8 ADD PUSH2 0x271B JUMP JUMPDEST SWAP3 POP POP PUSH1 0x40 PUSH2 0x288B DUP7 DUP3 DUP8 ADD PUSH2 0x2537 JUMP JUMPDEST SWAP2 POP POP SWAP3 POP SWAP3 POP SWAP3 JUMP JUMPDEST PUSH1 0x0 DUP1 PUSH1 0x40 DUP4 DUP6 SUB SLT ISZERO PUSH2 0x28AC JUMPI PUSH2 0x28AB PUSH2 0x3198 JUMP JUMPDEST JUMPDEST PUSH1 0x0 PUSH2 0x28BA DUP6 DUP3 DUP7 ADD PUSH2 0x2537 JUMP JUMPDEST SWAP3 POP POP PUSH1 0x20 DUP4 ADD CALLDATALOAD PUSH8 0xFFFFFFFFFFFFFFFF DUP2 GT ISZERO PUSH2 0x28DB JUMPI PUSH2 0x28DA PUSH2 0x3193 JUMP JUMPDEST JUMPDEST PUSH2 0x28E7 DUP6 DUP3 DUP7 ADD PUSH2 0x2472 JUMP JUMPDEST SWAP2 POP POP SWAP3 POP SWAP3 SWAP1 POP JUMP JUMPDEST PUSH1 0x0 PUSH1 0x20 DUP3 DUP5 SUB SLT ISZERO PUSH2 0x2907 JUMPI PUSH2 0x2906 PUSH2 0x3198 JUMP JUMPDEST JUMPDEST PUSH1 0x0 PUSH2 0x2915 DUP5 DUP3 DUP6 ADD PUSH2 0x2576 JUMP JUMPDEST SWAP2 POP POP SWAP3 SWAP2 POP POP JUMP JUMPDEST PUSH1 0x0 PUSH1 0xC0 DUP3 DUP5 SUB SLT ISZERO PUSH2 0x2934 JUMPI PUSH2 0x2933 PUSH2 0x3198 JUMP JUMPDEST JUMPDEST PUSH1 0x0 PUSH2 0x2942 DUP5 DUP3 DUP6 ADD PUSH2 0x258B JUMP JUMPDEST SWAP2 POP POP SWAP3 SWAP2 POP POP JUMP JUMPDEST PUSH1 0x0 PUSH1 0x80 DUP3 DUP5 SUB SLT ISZERO PUSH2 0x2961 JUMPI PUSH2 0x2960 PUSH2 0x3198 JUMP JUMPDEST JUMPDEST PUSH1 0x0 PUSH2 0x296F DUP5 DUP3 DUP6 ADD PUSH2 0x262B JUMP JUMPDEST SWAP2 POP POP SWAP3 SWAP2 POP POP JUMP JUMPDEST PUSH1 0x0 PUSH1 0x80 DUP3 DUP5 SUB SLT ISZERO PUSH2 0x298E JUMPI PUSH2 0x298D PUSH2 0x3198 JUMP JUMPDEST JUMPDEST PUSH1 0x0 PUSH2 0x299C DUP5 DUP3 DUP6 ADD PUSH2 0x26A3 JUMP JUMPDEST SWAP2 POP POP SWAP3 SWAP2 POP POP JUMP JUMPDEST PUSH1 0x0 PUSH1 0x20 DUP3 DUP5 SUB SLT ISZERO PUSH2 0x29BB JUMPI PUSH2 0x29BA PUSH2 0x3198 JUMP JUMPDEST JUMPDEST PUSH1 0x0 PUSH2 0x29C9 DUP5 DUP3 DUP6 ADD PUSH2 0x2730 JUMP JUMPDEST SWAP2 POP POP SWAP3 SWAP2 POP POP JUMP JUMPDEST PUSH1 0x0 DUP1 PUSH1 0x0 PUSH1 0x60 DUP5 DUP7 SUB SLT ISZERO PUSH2 0x29EB JUMPI PUSH2 0x29EA PUSH2 0x3198 JUMP JUMPDEST JUMPDEST PUSH1 0x0 PUSH2 0x29F9 DUP7 DUP3 DUP8 ADD PUSH2 0x271B JUMP JUMPDEST SWAP4 POP POP PUSH1 0x20 PUSH2 0x2A0A DUP7 DUP3 DUP8 ADD PUSH2 0x24E3 JUMP JUMPDEST SWAP3 POP POP PUSH1 0x40 PUSH2 0x2A1B DUP7 DUP3 DUP8 ADD PUSH2 0x2561 JUMP JUMPDEST SWAP2 POP POP SWAP3 POP SWAP3 POP SWAP3 JUMP JUMPDEST PUSH1 0x0 DUP1 PUSH1 0x0 DUP1 PUSH1 0x80 DUP6 DUP8 SUB SLT ISZERO PUSH2 0x2A3F JUMPI PUSH2 0x2A3E PUSH2 0x3198 JUMP JUMPDEST JUMPDEST PUSH1 0x0 PUSH2 0x2A4D DUP8 DUP3 DUP9 ADD PUSH2 0x271B JUMP JUMPDEST SWAP5 POP POP PUSH1 0x20 PUSH2 0x2A5E DUP8 DUP3 DUP9 ADD PUSH2 0x2522 JUMP JUMPDEST SWAP4 POP POP PUSH1 0x40 PUSH2 0x2A6F DUP8 DUP3 DUP9 ADD PUSH2 0x271B JUMP JUMPDEST SWAP3 POP POP PUSH1 0x60 PUSH2 0x2A80 DUP8 DUP3 DUP9 ADD PUSH2 0x2537 JUMP JUMPDEST SWAP2 POP POP SWAP3 SWAP6 SWAP2 SWAP5 POP SWAP3 POP JUMP JUMPDEST PUSH1 0x0 DUP1 PUSH1 0x40 DUP4 DUP6 SUB SLT ISZERO PUSH2 0x2AA3 JUMPI PUSH2 0x2AA2 PUSH2 0x3198 JUMP JUMPDEST JUMPDEST PUSH1 0x0 PUSH2 0x2AB1 DUP6 DUP3 DUP7 ADD PUSH2 0x271B JUMP JUMPDEST SWAP3 POP POP PUSH1 0x20 PUSH2 0x2AC2 DUP6 DUP3 DUP7 ADD PUSH2 0x254C JUMP JUMPDEST SWAP2 POP POP SWAP3 POP SWAP3 SWAP1 POP JUMP JUMPDEST PUSH1 0x0 PUSH2 0x2AD8 DUP4 DUP4 PUSH2 0x2AE4 JUMP JUMPDEST PUSH1 0x20 DUP4 ADD SWAP1 POP SWAP3 SWAP2 POP POP JUMP JUMPDEST PUSH2 0x2AED DUP2 PUSH2 0x2F19 JUMP JUMPDEST DUP3 MSTORE POP POP JUMP JUMPDEST PUSH2 0x2AFC DUP2 PUSH2 0x2F19 JUMP JUMPDEST DUP3 MSTORE POP POP JUMP JUMPDEST PUSH1 0x0 PUSH2 0x2B0D DUP3 PUSH2 0x2DF3 JUMP JUMPDEST PUSH2 0x2B17 DUP2 DUP6 PUSH2 0x2E16 JUMP JUMPDEST SWAP4 POP PUSH2 0x2B22 DUP4 PUSH2 0x2DE3 JUMP JUMPDEST DUP1 PUSH1 0x0 JUMPDEST DUP4 DUP2 LT ISZERO PUSH2 0x2B53 JUMPI DUP2 MLOAD PUSH2 0x2B3A DUP9 DUP3 PUSH2 0x2ACC JUMP JUMPDEST SWAP8 POP PUSH2 0x2B45 DUP4 PUSH2 0x2E09 JUMP JUMPDEST SWAP3 POP POP PUSH1 0x1 DUP2 ADD SWAP1 POP PUSH2 0x2B26 JUMP JUMPDEST POP DUP6 SWAP4 POP POP POP POP SWAP3 SWAP2 POP POP JUMP JUMPDEST PUSH2 0x2B69 DUP2 PUSH2 0x2FE5 JUMP JUMPDEST DUP3 MSTORE POP POP JUMP JUMPDEST PUSH1 0x0 PUSH2 0x2B7A DUP3 PUSH2 0x2DFE JUMP JUMPDEST PUSH2 0x2B84 DUP2 DUP6 PUSH2 0x2E27 JUMP JUMPDEST SWAP4 POP PUSH2 0x2B94 DUP2 DUP6 PUSH1 0x20 DUP7 ADD PUSH2 0x301B JUMP JUMPDEST PUSH2 0x2B9D DUP2 PUSH2 0x319D JUMP JUMPDEST DUP5 ADD SWAP2 POP POP SWAP3 SWAP2 POP POP JUMP JUMPDEST PUSH1 0x0 PUSH2 0x2BB5 PUSH1 0x26 DUP4 PUSH2 0x2E27 JUMP JUMPDEST SWAP2 POP PUSH2 0x2BC0 DUP3 PUSH2 0x31AE JUMP JUMPDEST PUSH1 0x40 DUP3 ADD SWAP1 POP SWAP2 SWAP1 POP JUMP JUMPDEST PUSH1 0x0 PUSH2 0x2BD8 PUSH1 0x1B DUP4 PUSH2 0x2E27 JUMP JUMPDEST SWAP2 POP PUSH2 0x2BE3 DUP3 PUSH2 0x31FD JUMP JUMPDEST PUSH1 0x20 DUP3 ADD SWAP1 POP SWAP2 SWAP1 POP JUMP JUMPDEST PUSH1 0x0 PUSH2 0x2BFB PUSH1 0x21 DUP4 PUSH2 0x2E27 JUMP JUMPDEST SWAP2 POP PUSH2 0x2C06 DUP3 PUSH2 0x3226 JUMP JUMPDEST PUSH1 0x40 DUP3 ADD SWAP1 POP SWAP2 SWAP1 POP JUMP JUMPDEST PUSH1 0x0 PUSH2 0x2C1E PUSH1 0x20 DUP4 PUSH2 0x2E27 JUMP JUMPDEST SWAP2 POP PUSH2 0x2C29 DUP3 PUSH2 0x3275 JUMP JUMPDEST PUSH1 0x20 DUP3 ADD SWAP1 POP SWAP2 SWAP1 POP JUMP JUMPDEST PUSH2 0x2C3D DUP2 PUSH2 0x2FDB JUMP JUMPDEST DUP3 MSTORE POP POP JUMP JUMPDEST PUSH1 0x0 PUSH1 0x20 DUP3 ADD SWAP1 POP PUSH2 0x2C58 PUSH1 0x0 DUP4 ADD DUP5 PUSH2 0x2AF3 JUMP JUMPDEST SWAP3 SWAP2 POP POP JUMP JUMPDEST PUSH1 0x0 PUSH1 0x20 DUP3 ADD SWAP1 POP PUSH2 0x2C73 PUSH1 0x0 DUP4 ADD DUP5 PUSH2 0x2B60 JUMP JUMPDEST SWAP3 SWAP2 POP POP JUMP JUMPDEST PUSH1 0x0 PUSH1 0x20 DUP3 ADD SWAP1 POP DUP2 DUP2 SUB PUSH1 0x0 DUP4 ADD MSTORE PUSH2 0x2C93 DUP2 DUP5 PUSH2 0x2B6F JUMP JUMPDEST SWAP1 POP SWAP3 SWAP2 POP POP JUMP JUMPDEST PUSH1 0x0 PUSH1 0x20 DUP3 ADD SWAP1 POP DUP2 DUP2 SUB PUSH1 0x0 DUP4 ADD MSTORE PUSH2 0x2CB4 DUP2 PUSH2 0x2BA8 JUMP JUMPDEST SWAP1 POP SWAP2 SWAP1 POP JUMP JUMPDEST PUSH1 0x0 PUSH1 0x20 DUP3 ADD SWAP1 POP DUP2 DUP2 SUB PUSH1 0x0 DUP4 ADD MSTORE PUSH2 0x2CD4 DUP2 PUSH2 0x2BCB JUMP JUMPDEST SWAP1 POP SWAP2 SWAP1 POP JUMP JUMPDEST PUSH1 0x0 PUSH1 0x20 DUP3 ADD SWAP1 POP DUP2 DUP2 SUB PUSH1 0x0 DUP4 ADD MSTORE PUSH2 0x2CF4 DUP2 PUSH2 0x2BEE JUMP JUMPDEST SWAP1 POP SWAP2 SWAP1 POP JUMP JUMPDEST PUSH1 0x0 PUSH1 0x20 DUP3 ADD SWAP1 POP DUP2 DUP2 SUB PUSH1 0x0 DUP4 ADD MSTORE PUSH2 0x2D14 DUP2 PUSH2 0x2C11 JUMP JUMPDEST SWAP1 POP SWAP2 SWAP1 POP JUMP JUMPDEST PUSH1 0x0 PUSH1 0x20 DUP3 ADD SWAP1 POP PUSH2 0x2D30 PUSH1 0x0 DUP4 ADD DUP5 PUSH2 0x2C34 JUMP JUMPDEST SWAP3 SWAP2 POP POP JUMP JUMPDEST PUSH1 0x0 PUSH1 0x40 DUP3 ADD SWAP1 POP PUSH2 0x2D4B PUSH1 0x0 DUP4 ADD DUP6 PUSH2 0x2C34 JUMP JUMPDEST DUP2 DUP2 SUB PUSH1 0x20 DUP4 ADD MSTORE PUSH2 0x2D5D DUP2 DUP5 PUSH2 0x2B02 JUMP JUMPDEST SWAP1 POP SWAP4 SWAP3 POP POP POP JUMP JUMPDEST PUSH1 0x0 PUSH2 0x2D70 PUSH2 0x2D81 JUMP JUMPDEST SWAP1 POP PUSH2 0x2D7C DUP3 DUP3 PUSH2 0x304E JUMP JUMPDEST SWAP2 SWAP1 POP JUMP JUMPDEST PUSH1 0x0 PUSH1 0x40 MLOAD SWAP1 POP SWAP1 JUMP JUMPDEST PUSH1 0x0 PUSH8 0xFFFFFFFFFFFFFFFF DUP3 GT ISZERO PUSH2 0x2DA6 JUMPI PUSH2 0x2DA5 PUSH2 0x3155 JUMP JUMPDEST JUMPDEST PUSH1 0x20 DUP3 MUL SWAP1 POP PUSH1 0x20 DUP2 ADD SWAP1 POP SWAP2 SWAP1 POP JUMP JUMPDEST PUSH1 0x0 PUSH8 0xFFFFFFFFFFFFFFFF DUP3 GT ISZERO PUSH2 0x2DD2 JUMPI PUSH2 0x2DD1 PUSH2 0x3155 JUMP JUMPDEST JUMPDEST PUSH1 0x20 DUP3 MUL SWAP1 POP PUSH1 0x20 DUP2 ADD SWAP1 POP SWAP2 SWAP1 POP JUMP JUMPDEST PUSH1 0x0 DUP2 SWAP1 POP PUSH1 0x20 DUP3 ADD SWAP1 POP SWAP2 SWAP1 POP JUMP JUMPDEST PUSH1 0x0 DUP2 MLOAD SWAP1 POP SWAP2 SWAP1 POP JUMP JUMPDEST PUSH1 0x0 DUP2 MLOAD SWAP1 POP SWAP2 SWAP1 POP JUMP JUMPDEST PUSH1 0x0 PUSH1 0x20 DUP3 ADD SWAP1 POP SWAP2 SWAP1 POP JUMP JUMPDEST PUSH1 0x0 DUP3 DUP3 MSTORE PUSH1 0x20 DUP3 ADD SWAP1 POP SWAP3 SWAP2 POP POP JUMP JUMPDEST PUSH1 0x0 DUP3 DUP3 MSTORE PUSH1 0x20 DUP3 ADD SWAP1 POP SWAP3 SWAP2 POP POP JUMP JUMPDEST PUSH1 0x0 PUSH2 0x2E43 DUP3 PUSH2 0x2FDB JUMP JUMPDEST SWAP2 POP PUSH2 0x2E4E DUP4 PUSH2 0x2FDB JUMP JUMPDEST SWAP3 POP DUP3 PUSH32 0xFFFFFFFFFFFFFFFFFFFFFFFFFFFFFFFFFFFFFFFFFFFFFFFFFFFFFFFFFFFFFFFF SUB DUP3 GT ISZERO PUSH2 0x2E83 JUMPI PUSH2 0x2E82 PUSH2 0x30C8 JUMP JUMPDEST JUMPDEST DUP3 DUP3 ADD SWAP1 POP SWAP3 SWAP2 POP POP JUMP JUMPDEST PUSH1 0x0 PUSH2 0x2E99 DUP3 PUSH2 0x2FDB JUMP JUMPDEST SWAP2 POP PUSH2 0x2EA4 DUP4 PUSH2 0x2FDB JUMP JUMPDEST SWAP3 POP DUP3 PUSH2 0x2EB4 JUMPI PUSH2 0x2EB3 PUSH2 0x30F7 JUMP JUMPDEST JUMPDEST DUP3 DUP3 DIV SWAP1 POP SWAP3 SWAP2 POP POP JUMP JUMPDEST PUSH1 0x0 PUSH2 0x2ECA DUP3 PUSH2 0x2FDB JUMP JUMPDEST SWAP2 POP PUSH2 0x2ED5 DUP4 PUSH2 0x2FDB JUMP JUMPDEST SWAP3 POP DUP2 PUSH32 0xFFFFFFFFFFFFFFFFFFFFFFFFFFFFFFFFFFFFFFFFFFFFFFFFFFFFFFFFFFFFFFFF DIV DUP4 GT DUP3 ISZERO ISZERO AND ISZERO PUSH2 0x2F0E JUMPI PUSH2 0x2F0D PUSH2 0x30C8 JUMP JUMPDEST JUMPDEST DUP3 DUP3 MUL SWAP1 POP SWAP3 SWAP2 POP POP JUMP JUMPDEST PUSH1 0x0 PUSH2 0x2F24 DUP3 PUSH2 0x2FBB JUMP JUMPDEST SWAP1 POP SWAP2 SWAP1 POP JUMP JUMPDEST PUSH1 0x0 PUSH2 0x2F36 DUP3 PUSH2 0x2F19 JUMP JUMPDEST SWAP1 POP SWAP2 SWAP1 POP JUMP JUMPDEST PUSH1 0x0 PUSH2 0x2F48 DUP3 PUSH2 0x2F19 JUMP JUMPDEST SWAP1 POP SWAP2 SWAP1 POP JUMP JUMPDEST PUSH1 0x0 PUSH2 0x2F5A DUP3 PUSH2 0x2F19 JUMP JUMPDEST SWAP1 POP SWAP2 SWAP1 POP JUMP JUMPDEST PUSH1 0x0 PUSH2 0x2F6C DUP3 PUSH2 0x2F19 JUMP JUMPDEST SWAP1 POP SWAP2 SWAP1 POP JUMP JUMPDEST PUSH1 0x0 PUSH2 0x2F7E DUP3 PUSH2 0x2F19 JUMP JUMPDEST SWAP1 POP SWAP2 SWAP1 POP JUMP JUMPDEST PUSH1 0x0 PUSH2 0x2F90 DUP3 PUSH2 0x2F19 JUMP JUMPDEST SWAP1 POP SWAP2 SWAP1 POP JUMP JUMPDEST PUSH1 0x0 PUSH2 0x2FA2 DUP3 PUSH2 0x2F19 JUMP JUMPDEST SWAP1 POP SWAP2 SWAP1 POP JUMP JUMPDEST PUSH1 0x0 PUSH2 0x2FB4 DUP3 PUSH2 0x2F19 JUMP JUMPDEST SWAP1 POP SWAP2 SWAP1 POP JUMP JUMPDEST PUSH1 0x0 PUSH20 0xFFFFFFFFFFFFFFFFFFFFFFFFFFFFFFFFFFFFFFFF DUP3 AND SWAP1 POP SWAP2 SWAP1 POP JUMP JUMPDEST PUSH1 0x0 DUP2 SWAP1 POP SWAP2 SWAP1 POP JUMP JUMPDEST PUSH1 0x0 PUSH2 0x2FF0 DUP3 PUSH2 0x2FF7 JUMP JUMPDEST SWAP1 POP SWAP2 SWAP1 POP JUMP JUMPDEST PUSH1 0x0 PUSH2 0x3002 DUP3 PUSH2 0x3009 JUMP JUMPDEST SWAP1 POP SWAP2 SWAP1 POP JUMP JUMPDEST PUSH1 0x0 PUSH2 0x3014 DUP3 PUSH2 0x2FBB JUMP JUMPDEST SWAP1 POP SWAP2 SWAP1 POP JUMP JUMPDEST PUSH1 0x0 JUMPDEST DUP4 DUP2 LT ISZERO PUSH2 0x3039 JUMPI DUP1 DUP3 ADD MLOAD DUP2 DUP5 ADD MSTORE PUSH1 0x20 DUP2 ADD SWAP1 POP PUSH2 0x301E JUMP JUMPDEST DUP4 DUP2 GT ISZERO PUSH2 0x3048 JUMPI PUSH1 0x0 DUP5 DUP5 ADD MSTORE JUMPDEST POP POP POP POP JUMP JUMPDEST PUSH2 0x3057 DUP3 PUSH2 0x319D JUMP JUMPDEST DUP2 ADD DUP2 DUP2 LT PUSH8 0xFFFFFFFFFFFFFFFF DUP3 GT OR ISZERO PUSH2 0x3076 JUMPI PUSH2 0x3075 PUSH2 0x3155 JUMP JUMPDEST JUMPDEST DUP1 PUSH1 0x40 MSTORE POP POP POP JUMP JUMPDEST PUSH1 0x0 PUSH2 0x308A DUP3 PUSH2 0x2FDB JUMP JUMPDEST SWAP2 POP PUSH32 0xFFFFFFFFFFFFFFFFFFFFFFFFFFFFFFFFFFFFFFFFFFFFFFFFFFFFFFFFFFFFFFFF DUP3 EQ ISZERO PUSH2 0x30BD JUMPI PUSH2 0x30BC PUSH2 0x30C8 JUMP JUMPDEST JUMPDEST PUSH1 0x1 DUP3 ADD SWAP1 POP SWAP2 SWAP1 POP JUMP JUMPDEST PUSH32 0x4E487B7100000000000000000000000000000000000000000000000000000000 PUSH1 0x0 MSTORE PUSH1 0x11 PUSH1 0x4 MSTORE PUSH1 0x24 PUSH1 0x0 REVERT JUMPDEST PUSH32 0x4E487B7100000000000000000000000000000000000000000000000000000000 PUSH1 0x0 MSTORE PUSH1 0x12 PUSH1 0x4 MSTORE PUSH1 0x24 PUSH1 0x0 REVERT JUMPDEST PUSH32 0x4E487B7100000000000000000000000000000000000000000000000000000000 PUSH1 0x0 MSTORE PUSH1 0x32 PUSH1 0x4 MSTORE PUSH1 0x24 PUSH1 0x0 REVERT JUMPDEST PUSH32 0x4E487B7100000000000000000000000000000000000000000000000000000000 PUSH1 0x0 MSTORE PUSH1 0x41 PUSH1 0x4 MSTORE PUSH1 0x24 PUSH1 0x0 REVERT JUMPDEST PUSH1 0x0 DUP1 REVERT JUMPDEST PUSH1 0x0 DUP1 REVERT JUMPDEST PUSH1 0x0 DUP1 REVERT JUMPDEST PUSH1 0x0 DUP1 REVERT JUMPDEST PUSH1 0x0 DUP1 REVERT JUMPDEST PUSH1 0x0 PUSH1 0x1F NOT PUSH1 0x1F DUP4 ADD AND SWAP1 POP SWAP2 SWAP1 POP JUMP JUMPDEST PUSH32 0x4F776E61626C653A206E6577206F776E657220697320746865207A65726F2061 PUSH1 0x0 DUP3 ADD MSTORE PUSH32 0x6464726573730000000000000000000000000000000000000000000000000000 PUSH1 0x20 DUP3 ADD MSTORE POP JUMP JUMPDEST PUSH32 0x536166654D6174683A206164646974696F6E206F766572666C6F770000000000 PUSH1 0x0 DUP3 ADD MSTORE POP JUMP JUMPDEST PUSH32 0x536166654D6174683A206D756C7469706C69636174696F6E206F766572666C6F PUSH1 0x0 DUP3 ADD MSTORE PUSH32 0x7700000000000000000000000000000000000000000000000000000000000000 PUSH1 0x20 DUP3 ADD MSTORE POP JUMP JUMPDEST PUSH32 0x4F776E61626C653A2063616C6C6572206973206E6F7420746865206F776E6572 PUSH1 0x0 DUP3 ADD MSTORE POP JUMP JUMPDEST PUSH2 0x32A7 DUP2 PUSH2 0x2F19 JUMP JUMPDEST DUP2 EQ PUSH2 0x32B2 JUMPI PUSH1 0x0 DUP1 REVERT JUMPDEST POP JUMP JUMPDEST PUSH2 0x32BE DUP2 PUSH2 0x2F2B JUMP JUMPDEST DUP2 EQ PUSH2 0x32C9 JUMPI PUSH1 0x0 DUP1 REVERT JUMPDEST POP JUMP JUMPDEST PUSH2 0x32D5 DUP2 PUSH2 0x2F3D JUMP JUMPDEST DUP2 EQ PUSH2 0x32E0 JUMPI PUSH1 0x0 DUP1 REVERT JUMPDEST POP JUMP JUMPDEST PUSH2 0x32EC DUP2 PUSH2 0x2F4F JUMP JUMPDEST DUP2 EQ PUSH2 0x32F7 JUMPI PUSH1 0x0 DUP1 REVERT JUMPDEST POP JUMP JUMPDEST PUSH2 0x3303 DUP2 PUSH2 0x2F61 JUMP JUMPDEST DUP2 EQ PUSH2 0x330E JUMPI PUSH1 0x0 DUP1 REVERT JUMPDEST POP JUMP JUMPDEST PUSH2 0x331A DUP2 PUSH2 0x2F73 JUMP JUMPDEST DUP2 EQ PUSH2 0x3325 JUMPI PUSH1 0x0 DUP1 REVERT JUMPDEST POP JUMP JUMPDEST PUSH2 0x3331 DUP2 PUSH2 0x2F85 JUMP JUMPDEST DUP2 EQ PUSH2 0x333C JUMPI PUSH1 0x0 DUP1 REVERT JUMPDEST POP JUMP JUMPDEST PUSH2 0x3348 DUP2 PUSH2 0x2F97 JUMP JUMPDEST DUP2 EQ PUSH2 0x3353 JUMPI PUSH1 0x0 DUP1 REVERT JUMPDEST POP JUMP JUMPDEST PUSH2 0x335F DUP2 PUSH2 0x2FA9 JUMP JUMPDEST DUP2 EQ PUSH2 0x336A JUMPI PUSH1 0x0 DUP1 REVERT JUMPDEST POP JUMP JUMPDEST PUSH2 0x3376 DUP2 PUSH2 0x2FDB JUMP JUMPDEST DUP2 EQ PUSH2 0x3381 JUMPI PUSH1 0x0 DUP1 REVERT JUMPDEST POP JUMP INVALID LOG2 PUSH5 0x6970667358 0x22 SLT KECCAK256 CALL CREATE CODESIZE CALLVALUE JUMP SLT 0x2C PUSH2 0xDB19 0xF6 0xAF 0xE3 PUSH10 0x45E9D7C4561E39541984 0xC0 SWAP3 PUSH2 0x1953 EXTCODECOPY LOG3 PUSH23 0x64736F6C63430008070033000000000000000000000000 "
				},
				"gasEstimates": {
					"creation": {
						"codeDepositCost": "2648400",
						"executionCost": "infinite",
						"totalCost": "infinite"
					},
					"external": {
						"BUSD()": "2625",
						"CalcApy(uint256,address,uint256,address)": "infinite",
						"CalcApyNFTFarm(uint256,address)": "infinite",
						"CalcApyNFTStake(uint256,address,address)": "infinite",
						"CalcLpPrice(address)": "infinite",
						"CalcTotalTVL(address,address[])": "infinite",
						"CalcTotalTVLNFTFarm(address,address[])": "infinite",
						"Tokenprice(address)": "infinite",
						"WBNB()": "2603",
						"WBNBPrice(address)": "infinite",
						"calcPoolTVLInUSD(uint256,address,uint256,address)": "infinite",
						"calcPoolTVLInUSDNFTFarm(address,uint256,address)": "infinite",
						"isLpAddress(address)": "infinite",
						"owner()": "2589",
						"renounceOwnership()": "30419",
						"routerAddress()": "2667",
						"setRouter(address)": "27027",
						"transferOwnership(address)": "30833"
					}
				},
				"methodIdentifiers": {
					"BUSD()": "484f4ea9",
					"CalcApy(uint256,address,uint256,address)": "dbb79348",
					"CalcApyNFTFarm(uint256,address)": "e085f38e",
					"CalcApyNFTStake(uint256,address,address)": "18b4ae20",
					"CalcLpPrice(address)": "215cc989",
					"CalcTotalTVL(address,address[])": "55b44eaf",
					"CalcTotalTVLNFTFarm(address,address[])": "1858882b",
					"Tokenprice(address)": "19047f8a",
					"WBNB()": "8dd95002",
					"WBNBPrice(address)": "3b979d45",
					"calcPoolTVLInUSD(uint256,address,uint256,address)": "d979fb5f",
					"calcPoolTVLInUSDNFTFarm(address,uint256,address)": "1616f124",
					"isLpAddress(address)": "2f7c5980",
					"owner()": "8da5cb5b",
					"renounceOwnership()": "715018a6",
					"routerAddress()": "3268cc56",
					"setRouter(address)": "c0d78655",
					"transferOwnership(address)": "f2fde38b"
				}
			},
			"storageLayout": {
				"storage": [
					{
						"astId": 509,
						"contract": "contracts/Utils.sol:Utils",
						"label": "_owner",
						"offset": 0,
						"slot": "0",
						"type": "t_address"
					},
					{
						"astId": 852,
						"contract": "contracts/Utils.sol:Utils",
						"label": "WBNB",
						"offset": 0,
						"slot": "1",
						"type": "t_address"
					},
					{
						"astId": 854,
						"contract": "contracts/Utils.sol:Utils",
						"label": "BUSD",
						"offset": 0,
						"slot": "2",
						"type": "t_address"
					},
					{
						"astId": 857,
						"contract": "contracts/Utils.sol:Utils",
						"label": "amount",
						"offset": 0,
						"slot": "3",
						"type": "t_uint256"
					},
					{
						"astId": 860,
						"contract": "contracts/Utils.sol:Utils",
						"label": "routerAddress",
						"offset": 0,
						"slot": "4",
						"type": "t_contract(Router)659"
					},
					{
						"astId": 863,
						"contract": "contracts/Utils.sol:Utils",
						"label": "BLOCKS_PER_YEAR",
						"offset": 0,
						"slot": "5",
						"type": "t_uint256"
					}
				],
				"types": {
					"t_address": {
						"encoding": "inplace",
						"label": "address",
						"numberOfBytes": "20"
					},
					"t_contract(Router)659": {
						"encoding": "inplace",
						"label": "contract Router",
						"numberOfBytes": "20"
					},
					"t_uint256": {
						"encoding": "inplace",
						"label": "uint256",
						"numberOfBytes": "32"
					}
				}
			},
			"userdoc": {
				"kind": "user",
				"methods": {},
				"version": 1
			}
		}
	}
}