{
	"contracts/LpPrice.sol": {
		"LpUtils": {
			"abi": [
				{
					"inputs": [],
					"name": "BUSD",
					"outputs": [
						{
							"internalType": "address",
							"name": "",
							"type": "address"
						}
					],
					"stateMutability": "view",
					"type": "function"
				},
				{
					"inputs": [
						{
							"internalType": "contract IERC20",
							"name": "lpAddress",
							"type": "address"
						},
						{
							"internalType": "contract Router",
							"name": "routerAddress",
							"type": "address"
						}
					],
					"name": "CalcLpPrice",
					"outputs": [
						{
							"internalType": "uint256",
							"name": "",
							"type": "uint256"
						}
					],
					"stateMutability": "view",
					"type": "function"
				},
				{
					"inputs": [],
					"name": "WBNB",
					"outputs": [
						{
							"internalType": "address",
							"name": "",
							"type": "address"
						}
					],
					"stateMutability": "view",
					"type": "function"
				}
			],
			"devdoc": {
				"kind": "dev",
				"methods": {},
				"version": 1
			},
			"evm": {
				"assembly": "    /* \"contracts/LpPrice.sol\":8846:9776  contract LpUtils {\r... */\n  mstore(0x40, 0x80)\n    /* \"contracts/LpPrice.sol\":8892:8934  0xae13d989daC2f0dEbFf460aC112a837C89BAa7cd */\n  0xae13d989dac2f0debff460ac112a837c89baa7cd\n    /* \"contracts/LpPrice.sol\":8870:8934  address public WBNB = 0xae13d989daC2f0dEbFf460aC112a837C89BAa7cd */\n  0x00\n  dup1\n  0x0100\n  exp\n  dup2\n  sload\n  dup2\n  0xffffffffffffffffffffffffffffffffffffffff\n  mul\n  not\n  and\n  swap1\n  dup4\n  0xffffffffffffffffffffffffffffffffffffffff\n  and\n  mul\n  or\n  swap1\n  sstore\n  pop\n    /* \"contracts/LpPrice.sol\":8963:9005  0x78867BbEeF44f2326bF8DDd1941a4439382EF2A7 */\n  0x78867bbeef44f2326bf8ddd1941a4439382ef2a7\n    /* \"contracts/LpPrice.sol\":8941:9005  address public BUSD = 0x78867BbEeF44f2326bF8DDd1941a4439382EF2A7 */\n  0x01\n  exp(0x0100, 0x00)\n  dup2\n  sload\n  dup2\n  0xffffffffffffffffffffffffffffffffffffffff\n  mul\n  not\n  and\n  swap1\n  dup4\n  0xffffffffffffffffffffffffffffffffffffffff\n  and\n  mul\n  or\n  swap1\n  sstore\n  pop\n    /* \"contracts/LpPrice.sol\":9029:9048  1000000000000000000 */\n  0x0de0b6b3a7640000\n    /* \"contracts/LpPrice.sol\":9012:9048  uint256 amount = 1000000000000000000 */\n  0x02\n  sstore\n    /* \"contracts/LpPrice.sol\":8846:9776  contract LpUtils {\r... */\n  callvalue\n  dup1\n  iszero\n  tag_1\n  jumpi\n  0x00\n  dup1\n  revert\ntag_1:\n  pop\n  dataSize(sub_0)\n  dup1\n  dataOffset(sub_0)\n  0x00\n  codecopy\n  0x00\n  return\nstop\n\nsub_0: assembly {\n        /* \"contracts/LpPrice.sol\":8846:9776  contract LpUtils {\r... */\n      mstore(0x40, 0x80)\n      callvalue\n      dup1\n      iszero\n      tag_1\n      jumpi\n      0x00\n      dup1\n      revert\n    tag_1:\n      pop\n      jumpi(tag_2, lt(calldatasize, 0x04))\n      shr(0xe0, calldataload(0x00))\n      dup1\n      0x344e49d9\n      eq\n      tag_3\n      jumpi\n      dup1\n      0x484f4ea9\n      eq\n      tag_4\n      jumpi\n      dup1\n      0x8dd95002\n      eq\n      tag_5\n      jumpi\n    tag_2:\n      0x00\n      dup1\n      revert\n        /* \"contracts/LpPrice.sol\":9343:9773  function CalcLpPrice(IERC20 lpAddress, Router routerAddress) external view returns(uint256){\r... */\n    tag_3:\n      tag_6\n      0x04\n      dup1\n      calldatasize\n      sub\n      dup2\n      add\n      swap1\n      tag_7\n      swap2\n      swap1\n      tag_8\n      jump\t// in\n    tag_7:\n      tag_9\n      jump\t// in\n    tag_6:\n      mload(0x40)\n      tag_10\n      swap2\n      swap1\n      tag_11\n      jump\t// in\n    tag_10:\n      mload(0x40)\n      dup1\n      swap2\n      sub\n      swap1\n      return\n        /* \"contracts/LpPrice.sol\":8941:9005  address public BUSD = 0x78867BbEeF44f2326bF8DDd1941a4439382EF2A7 */\n    tag_4:\n      tag_12\n      tag_13\n      jump\t// in\n    tag_12:\n      mload(0x40)\n      tag_14\n      swap2\n      swap1\n      tag_15\n      jump\t// in\n    tag_14:\n      mload(0x40)\n      dup1\n      swap2\n      sub\n      swap1\n      return\n        /* \"contracts/LpPrice.sol\":8870:8934  address public WBNB = 0xae13d989daC2f0dEbFf460aC112a837C89BAa7cd */\n    tag_5:\n      tag_16\n      tag_17\n      jump\t// in\n    tag_16:\n      mload(0x40)\n      tag_18\n      swap2\n      swap1\n      tag_15\n      jump\t// in\n    tag_18:\n      mload(0x40)\n      dup1\n      swap2\n      sub\n      swap1\n      return\n        /* \"contracts/LpPrice.sol\":9343:9773  function CalcLpPrice(IERC20 lpAddress, Router routerAddress) external view returns(uint256){\r... */\n    tag_9:\n        /* \"contracts/LpPrice.sol\":9426:9433  uint256 */\n      0x00\n        /* \"contracts/LpPrice.sol\":9671:9685  address token0 */\n      dup1\n        /* \"contracts/LpPrice.sol\":9688:9697  lpAddress */\n      dup4\n        /* \"contracts/LpPrice.sol\":9688:9704  lpAddress.token0 */\n      0xffffffffffffffffffffffffffffffffffffffff\n      and\n      0x0dfe1681\n        /* \"contracts/LpPrice.sol\":9688:9706  lpAddress.token0() */\n      mload(0x40)\n      dup2\n      0xffffffff\n      and\n      0xe0\n      shl\n      dup2\n      mstore\n      0x04\n      add\n      0x20\n      mload(0x40)\n      dup1\n      dup4\n      sub\n      dup2\n      dup7\n      dup1\n      extcodesize\n      iszero\n      dup1\n      iszero\n      tag_20\n      jumpi\n      0x00\n      dup1\n      revert\n    tag_20:\n      pop\n      gas\n      staticcall\n      iszero\n      dup1\n      iszero\n      tag_22\n      jumpi\n      returndatasize\n      0x00\n      dup1\n      returndatacopy\n      revert(0x00, returndatasize)\n    tag_22:\n      pop\n      pop\n      pop\n      pop\n      mload(0x40)\n      returndatasize\n      not(0x1f)\n      0x1f\n      dup3\n      add\n      and\n      dup3\n      add\n      dup1\n      0x40\n      mstore\n      pop\n      dup2\n      add\n      swap1\n      tag_23\n      swap2\n      swap1\n      tag_24\n      jump\t// in\n    tag_23:\n        /* \"contracts/LpPrice.sol\":9671:9706  address token0 = lpAddress.token0() */\n      swap1\n      pop\n        /* \"contracts/LpPrice.sol\":9725:9764  price(routerAddress,lpAddress.token0()) */\n      tag_25\n        /* \"contracts/LpPrice.sol\":9731:9744  routerAddress */\n      dup4\n        /* \"contracts/LpPrice.sol\":9745:9754  lpAddress */\n      dup6\n        /* \"contracts/LpPrice.sol\":9745:9761  lpAddress.token0 */\n      0xffffffffffffffffffffffffffffffffffffffff\n      and\n      0x0dfe1681\n        /* \"contracts/LpPrice.sol\":9745:9763  lpAddress.token0() */\n      mload(0x40)\n      dup2\n      0xffffffff\n      and\n      0xe0\n      shl\n      dup2\n      mstore\n      0x04\n      add\n      0x20\n      mload(0x40)\n      dup1\n      dup4\n      sub\n      dup2\n      dup7\n      dup1\n      extcodesize\n      iszero\n      dup1\n      iszero\n      tag_26\n      jumpi\n      0x00\n      dup1\n      revert\n    tag_26:\n      pop\n      gas\n      staticcall\n      iszero\n      dup1\n      iszero\n      tag_28\n      jumpi\n      returndatasize\n      0x00\n      dup1\n      returndatacopy\n      revert(0x00, returndatasize)\n    tag_28:\n      pop\n      pop\n      pop\n      pop\n      mload(0x40)\n      returndatasize\n      not(0x1f)\n      0x1f\n      dup3\n      add\n      and\n      dup3\n      add\n      dup1\n      0x40\n      mstore\n      pop\n      dup2\n      add\n      swap1\n      tag_29\n      swap2\n      swap1\n      tag_24\n      jump\t// in\n    tag_29:\n        /* \"contracts/LpPrice.sol\":9725:9730  price */\n      tag_30\n        /* \"contracts/LpPrice.sol\":9725:9764  price(routerAddress,lpAddress.token0()) */\n      jump\t// in\n    tag_25:\n        /* \"contracts/LpPrice.sol\":9717:9765  return (price(routerAddress,lpAddress.token0())) */\n      swap2\n      pop\n      pop\n        /* \"contracts/LpPrice.sol\":9343:9773  function CalcLpPrice(IERC20 lpAddress, Router routerAddress) external view returns(uint256){\r... */\n      swap3\n      swap2\n      pop\n      pop\n      jump\t// out\n        /* \"contracts/LpPrice.sol\":8941:9005  address public BUSD = 0x78867BbEeF44f2326bF8DDd1941a4439382EF2A7 */\n    tag_13:\n      0x01\n      0x00\n      swap1\n      sload\n      swap1\n      0x0100\n      exp\n      swap1\n      div\n      0xffffffffffffffffffffffffffffffffffffffff\n      and\n      dup2\n      jump\t// out\n        /* \"contracts/LpPrice.sol\":8870:8934  address public WBNB = 0xae13d989daC2f0dEbFf460aC112a837C89BAa7cd */\n    tag_17:\n      0x00\n      dup1\n      sload\n      swap1\n      0x0100\n      exp\n      swap1\n      div\n      0xffffffffffffffffffffffffffffffffffffffff\n      and\n      dup2\n      jump\t// out\n        /* \"contracts/LpPrice.sol\":9057:9335  function price(Router routerAddress, address token) internal view returns(uint256){\r... */\n    tag_30:\n        /* \"contracts/LpPrice.sol\":9131:9138  uint256 */\n      0x00\n        /* \"contracts/LpPrice.sol\":9150:9171  address[] memory path */\n      dup1\n        /* \"contracts/LpPrice.sol\":9188:9189  3 */\n      0x03\n        /* \"contracts/LpPrice.sol\":9174:9190  new address[](3) */\n      0xffffffffffffffff\n      dup2\n      gt\n      iszero\n      tag_32\n      jumpi\n      tag_33\n      tag_34\n      jump\t// in\n    tag_33:\n    tag_32:\n      mload(0x40)\n      swap1\n      dup1\n      dup3\n      mstore\n      dup1\n      0x20\n      mul\n      0x20\n      add\n      dup3\n      add\n      0x40\n      mstore\n      dup1\n      iszero\n      tag_35\n      jumpi\n      dup2\n      0x20\n      add\n      0x20\n      dup3\n      mul\n      dup1\n      calldatasize\n      dup4\n      calldatacopy\n      dup1\n      dup3\n      add\n      swap2\n      pop\n      pop\n      swap1\n      pop\n    tag_35:\n      pop\n        /* \"contracts/LpPrice.sol\":9150:9190  address[] memory path = new address[](3) */\n      swap1\n      pop\n        /* \"contracts/LpPrice.sol\":9211:9216  token */\n      dup3\n        /* \"contracts/LpPrice.sol\":9201:9205  path */\n      dup2\n        /* \"contracts/LpPrice.sol\":9206:9207  0 */\n      0x00\n        /* \"contracts/LpPrice.sol\":9201:9208  path[0] */\n      dup2\n      mload\n      dup2\n      lt\n      tag_36\n      jumpi\n      tag_37\n      tag_38\n      jump\t// in\n    tag_37:\n    tag_36:\n      0x20\n      mul\n      0x20\n      add\n      add\n        /* \"contracts/LpPrice.sol\":9201:9216  path[0] = token */\n      swap1\n      0xffffffffffffffffffffffffffffffffffffffff\n      and\n      swap1\n      dup2\n      0xffffffffffffffffffffffffffffffffffffffff\n      and\n      dup2\n      mstore\n      pop\n      pop\n        /* \"contracts/LpPrice.sol\":9237:9241  WBNB */\n      0x00\n      dup1\n      sload\n      swap1\n      0x0100\n      exp\n      swap1\n      div\n      0xffffffffffffffffffffffffffffffffffffffff\n      and\n        /* \"contracts/LpPrice.sol\":9227:9231  path */\n      dup2\n        /* \"contracts/LpPrice.sol\":9232:9233  1 */\n      0x01\n        /* \"contracts/LpPrice.sol\":9227:9234  path[1] */\n      dup2\n      mload\n      dup2\n      lt\n      tag_39\n      jumpi\n      tag_40\n      tag_38\n      jump\t// in\n    tag_40:\n    tag_39:\n      0x20\n      mul\n      0x20\n      add\n      add\n        /* \"contracts/LpPrice.sol\":9227:9241  path[1] = WBNB */\n      swap1\n      0xffffffffffffffffffffffffffffffffffffffff\n      and\n      swap1\n      dup2\n      0xffffffffffffffffffffffffffffffffffffffff\n      and\n      dup2\n      mstore\n      pop\n      pop\n        /* \"contracts/LpPrice.sol\":9262:9266  BUSD */\n      0x01\n      0x00\n      swap1\n      sload\n      swap1\n      0x0100\n      exp\n      swap1\n      div\n      0xffffffffffffffffffffffffffffffffffffffff\n      and\n        /* \"contracts/LpPrice.sol\":9252:9256  path */\n      dup2\n        /* \"contracts/LpPrice.sol\":9257:9258  2 */\n      0x02\n        /* \"contracts/LpPrice.sol\":9252:9259  path[2] */\n      dup2\n      mload\n      dup2\n      lt\n      tag_41\n      jumpi\n      tag_42\n      tag_38\n      jump\t// in\n    tag_42:\n    tag_41:\n      0x20\n      mul\n      0x20\n      add\n      add\n        /* \"contracts/LpPrice.sol\":9252:9266  path[2] = BUSD */\n      swap1\n      0xffffffffffffffffffffffffffffffffffffffff\n      and\n      swap1\n      dup2\n      0xffffffffffffffffffffffffffffffffffffffff\n      and\n      dup2\n      mstore\n      pop\n      pop\n        /* \"contracts/LpPrice.sol\":9284:9297  routerAddress */\n      dup4\n        /* \"contracts/LpPrice.sol\":9284:9311  routerAddress.getAmountsOut */\n      0xffffffffffffffffffffffffffffffffffffffff\n      and\n      0xd06ca61f\n        /* \"contracts/LpPrice.sol\":9312:9318  amount */\n      sload(0x02)\n        /* \"contracts/LpPrice.sol\":9319:9323  path */\n      dup4\n        /* \"contracts/LpPrice.sol\":9284:9324  routerAddress.getAmountsOut(amount,path) */\n      mload(0x40)\n      dup4\n      0xffffffff\n      and\n      0xe0\n      shl\n      dup2\n      mstore\n      0x04\n      add\n      tag_43\n      swap3\n      swap2\n      swap1\n      tag_44\n      jump\t// in\n    tag_43:\n      0x00\n      mload(0x40)\n      dup1\n      dup4\n      sub\n      dup2\n      dup7\n      dup1\n      extcodesize\n      iszero\n      dup1\n      iszero\n      tag_45\n      jumpi\n      0x00\n      dup1\n      revert\n    tag_45:\n      pop\n      gas\n      staticcall\n      iszero\n      dup1\n      iszero\n      tag_47\n      jumpi\n      returndatasize\n      0x00\n      dup1\n      returndatacopy\n      revert(0x00, returndatasize)\n    tag_47:\n      pop\n      pop\n      pop\n      pop\n      mload(0x40)\n      returndatasize\n      0x00\n      dup3\n      returndatacopy\n      returndatasize\n      not(0x1f)\n      0x1f\n      dup3\n      add\n      and\n      dup3\n      add\n      dup1\n      0x40\n      mstore\n      pop\n      dup2\n      add\n      swap1\n      tag_48\n      swap2\n      swap1\n      tag_49\n      jump\t// in\n    tag_48:\n        /* \"contracts/LpPrice.sol\":9325:9326  2 */\n      0x02\n        /* \"contracts/LpPrice.sol\":9284:9327  routerAddress.getAmountsOut(amount,path)[2] */\n      dup2\n      mload\n      dup2\n      lt\n      tag_50\n      jumpi\n      tag_51\n      tag_38\n      jump\t// in\n    tag_51:\n    tag_50:\n      0x20\n      mul\n      0x20\n      add\n      add\n      mload\n        /* \"contracts/LpPrice.sol\":9277:9327  return routerAddress.getAmountsOut(amount,path)[2] */\n      swap2\n      pop\n      pop\n        /* \"contracts/LpPrice.sol\":9057:9335  function price(Router routerAddress, address token) internal view returns(uint256){\r... */\n      swap3\n      swap2\n      pop\n      pop\n      jump\t// out\n        /* \"#utility.yul\":24:768   */\n    tag_53:\n        /* \"#utility.yul\":131:136   */\n      0x00\n        /* \"#utility.yul\":156:237   */\n      tag_55\n        /* \"#utility.yul\":172:236   */\n      tag_56\n        /* \"#utility.yul\":229:235   */\n      dup5\n        /* \"#utility.yul\":172:236   */\n      tag_57\n      jump\t// in\n    tag_56:\n        /* \"#utility.yul\":156:237   */\n      tag_58\n      jump\t// in\n    tag_55:\n        /* \"#utility.yul\":147:237   */\n      swap1\n      pop\n        /* \"#utility.yul\":257:262   */\n      dup1\n        /* \"#utility.yul\":286:292   */\n      dup4\n        /* \"#utility.yul\":279:284   */\n      dup3\n        /* \"#utility.yul\":272:293   */\n      mstore\n        /* \"#utility.yul\":320:324   */\n      0x20\n        /* \"#utility.yul\":313:318   */\n      dup3\n        /* \"#utility.yul\":309:325   */\n      add\n        /* \"#utility.yul\":302:325   */\n      swap1\n      pop\n        /* \"#utility.yul\":346:352   */\n      dup3\n        /* \"#utility.yul\":396:399   */\n      dup6\n        /* \"#utility.yul\":388:392   */\n      0x20\n        /* \"#utility.yul\":380:386   */\n      dup7\n        /* \"#utility.yul\":376:393   */\n      mul\n        /* \"#utility.yul\":371:374   */\n      dup3\n        /* \"#utility.yul\":367:394   */\n      add\n        /* \"#utility.yul\":364:400   */\n      gt\n        /* \"#utility.yul\":361:504   */\n      iszero\n      tag_59\n      jumpi\n        /* \"#utility.yul\":415:494   */\n      tag_60\n      tag_61\n      jump\t// in\n    tag_60:\n        /* \"#utility.yul\":361:504   */\n    tag_59:\n        /* \"#utility.yul\":528:529   */\n      0x00\n        /* \"#utility.yul\":513:762   */\n    tag_62:\n        /* \"#utility.yul\":538:544   */\n      dup6\n        /* \"#utility.yul\":535:536   */\n      dup2\n        /* \"#utility.yul\":532:545   */\n      lt\n        /* \"#utility.yul\":513:762   */\n      iszero\n      tag_64\n      jumpi\n        /* \"#utility.yul\":606:609   */\n      dup2\n        /* \"#utility.yul\":635:683   */\n      tag_65\n        /* \"#utility.yul\":679:682   */\n      dup9\n        /* \"#utility.yul\":667:677   */\n      dup3\n        /* \"#utility.yul\":635:683   */\n      tag_66\n      jump\t// in\n    tag_65:\n        /* \"#utility.yul\":630:633   */\n      dup5\n        /* \"#utility.yul\":623:684   */\n      mstore\n        /* \"#utility.yul\":713:717   */\n      0x20\n        /* \"#utility.yul\":708:711   */\n      dup5\n        /* \"#utility.yul\":704:718   */\n      add\n        /* \"#utility.yul\":697:718   */\n      swap4\n      pop\n        /* \"#utility.yul\":747:751   */\n      0x20\n        /* \"#utility.yul\":742:745   */\n      dup4\n        /* \"#utility.yul\":738:752   */\n      add\n        /* \"#utility.yul\":731:752   */\n      swap3\n      pop\n        /* \"#utility.yul\":573:762   */\n      pop\n        /* \"#utility.yul\":560:561   */\n      0x01\n        /* \"#utility.yul\":557:558   */\n      dup2\n        /* \"#utility.yul\":553:562   */\n      add\n        /* \"#utility.yul\":548:562   */\n      swap1\n      pop\n        /* \"#utility.yul\":513:762   */\n      jump(tag_62)\n    tag_64:\n        /* \"#utility.yul\":517:531   */\n      pop\n        /* \"#utility.yul\":137:768   */\n      pop\n      pop\n        /* \"#utility.yul\":24:768   */\n      swap4\n      swap3\n      pop\n      pop\n      pop\n      jump\t// out\n        /* \"#utility.yul\":774:917   */\n    tag_67:\n        /* \"#utility.yul\":831:836   */\n      0x00\n        /* \"#utility.yul\":862:868   */\n      dup2\n        /* \"#utility.yul\":856:869   */\n      mload\n        /* \"#utility.yul\":847:869   */\n      swap1\n      pop\n        /* \"#utility.yul\":878:911   */\n      tag_69\n        /* \"#utility.yul\":905:910   */\n      dup2\n        /* \"#utility.yul\":878:911   */\n      tag_70\n      jump\t// in\n    tag_69:\n        /* \"#utility.yul\":774:917   */\n      swap3\n      swap2\n      pop\n      pop\n      jump\t// out\n        /* \"#utility.yul\":940:1325   */\n    tag_71:\n        /* \"#utility.yul\":1022:1027   */\n      0x00\n        /* \"#utility.yul\":1071:1074   */\n      dup3\n        /* \"#utility.yul\":1064:1068   */\n      0x1f\n        /* \"#utility.yul\":1056:1062   */\n      dup4\n        /* \"#utility.yul\":1052:1069   */\n      add\n        /* \"#utility.yul\":1048:1075   */\n      slt\n        /* \"#utility.yul\":1038:1160   */\n      tag_73\n      jumpi\n        /* \"#utility.yul\":1079:1158   */\n      tag_74\n      tag_75\n      jump\t// in\n    tag_74:\n        /* \"#utility.yul\":1038:1160   */\n    tag_73:\n        /* \"#utility.yul\":1189:1195   */\n      dup2\n        /* \"#utility.yul\":1183:1196   */\n      mload\n        /* \"#utility.yul\":1214:1319   */\n      tag_76\n        /* \"#utility.yul\":1315:1318   */\n      dup5\n        /* \"#utility.yul\":1307:1313   */\n      dup3\n        /* \"#utility.yul\":1300:1304   */\n      0x20\n        /* \"#utility.yul\":1292:1298   */\n      dup7\n        /* \"#utility.yul\":1288:1305   */\n      add\n        /* \"#utility.yul\":1214:1319   */\n      tag_53\n      jump\t// in\n    tag_76:\n        /* \"#utility.yul\":1205:1319   */\n      swap2\n      pop\n        /* \"#utility.yul\":1028:1325   */\n      pop\n        /* \"#utility.yul\":940:1325   */\n      swap3\n      swap2\n      pop\n      pop\n      jump\t// out\n        /* \"#utility.yul\":1331:1498   */\n    tag_77:\n        /* \"#utility.yul\":1391:1396   */\n      0x00\n        /* \"#utility.yul\":1429:1435   */\n      dup2\n        /* \"#utility.yul\":1416:1436   */\n      calldataload\n        /* \"#utility.yul\":1407:1436   */\n      swap1\n      pop\n        /* \"#utility.yul\":1445:1492   */\n      tag_79\n        /* \"#utility.yul\":1486:1491   */\n      dup2\n        /* \"#utility.yul\":1445:1492   */\n      tag_80\n      jump\t// in\n    tag_79:\n        /* \"#utility.yul\":1331:1498   */\n      swap3\n      swap2\n      pop\n      pop\n      jump\t// out\n        /* \"#utility.yul\":1504:1671   */\n    tag_81:\n        /* \"#utility.yul\":1564:1569   */\n      0x00\n        /* \"#utility.yul\":1602:1608   */\n      dup2\n        /* \"#utility.yul\":1589:1609   */\n      calldataload\n        /* \"#utility.yul\":1580:1609   */\n      swap1\n      pop\n        /* \"#utility.yul\":1618:1665   */\n      tag_83\n        /* \"#utility.yul\":1659:1664   */\n      dup2\n        /* \"#utility.yul\":1618:1665   */\n      tag_84\n      jump\t// in\n    tag_83:\n        /* \"#utility.yul\":1504:1671   */\n      swap3\n      swap2\n      pop\n      pop\n      jump\t// out\n        /* \"#utility.yul\":1677:1820   */\n    tag_66:\n        /* \"#utility.yul\":1734:1739   */\n      0x00\n        /* \"#utility.yul\":1765:1771   */\n      dup2\n        /* \"#utility.yul\":1759:1772   */\n      mload\n        /* \"#utility.yul\":1750:1772   */\n      swap1\n      pop\n        /* \"#utility.yul\":1781:1814   */\n      tag_86\n        /* \"#utility.yul\":1808:1813   */\n      dup2\n        /* \"#utility.yul\":1781:1814   */\n      tag_87\n      jump\t// in\n    tag_86:\n        /* \"#utility.yul\":1677:1820   */\n      swap3\n      swap2\n      pop\n      pop\n      jump\t// out\n        /* \"#utility.yul\":1826:2177   */\n    tag_24:\n        /* \"#utility.yul\":1896:1902   */\n      0x00\n        /* \"#utility.yul\":1945:1947   */\n      0x20\n        /* \"#utility.yul\":1933:1942   */\n      dup3\n        /* \"#utility.yul\":1924:1931   */\n      dup5\n        /* \"#utility.yul\":1920:1943   */\n      sub\n        /* \"#utility.yul\":1916:1948   */\n      slt\n        /* \"#utility.yul\":1913:2032   */\n      iszero\n      tag_89\n      jumpi\n        /* \"#utility.yul\":1951:2030   */\n      tag_90\n      tag_91\n      jump\t// in\n    tag_90:\n        /* \"#utility.yul\":1913:2032   */\n    tag_89:\n        /* \"#utility.yul\":2071:2072   */\n      0x00\n        /* \"#utility.yul\":2096:2160   */\n      tag_92\n        /* \"#utility.yul\":2152:2159   */\n      dup5\n        /* \"#utility.yul\":2143:2149   */\n      dup3\n        /* \"#utility.yul\":2132:2141   */\n      dup6\n        /* \"#utility.yul\":2128:2150   */\n      add\n        /* \"#utility.yul\":2096:2160   */\n      tag_67\n      jump\t// in\n    tag_92:\n        /* \"#utility.yul\":2086:2160   */\n      swap2\n      pop\n        /* \"#utility.yul\":2042:2170   */\n      pop\n        /* \"#utility.yul\":1826:2177   */\n      swap3\n      swap2\n      pop\n      pop\n      jump\t// out\n        /* \"#utility.yul\":2183:2737   */\n    tag_49:\n        /* \"#utility.yul\":2278:2284   */\n      0x00\n        /* \"#utility.yul\":2327:2329   */\n      0x20\n        /* \"#utility.yul\":2315:2324   */\n      dup3\n        /* \"#utility.yul\":2306:2313   */\n      dup5\n        /* \"#utility.yul\":2302:2325   */\n      sub\n        /* \"#utility.yul\":2298:2330   */\n      slt\n        /* \"#utility.yul\":2295:2414   */\n      iszero\n      tag_94\n      jumpi\n        /* \"#utility.yul\":2333:2412   */\n      tag_95\n      tag_91\n      jump\t// in\n    tag_95:\n        /* \"#utility.yul\":2295:2414   */\n    tag_94:\n        /* \"#utility.yul\":2474:2475   */\n      0x00\n        /* \"#utility.yul\":2463:2472   */\n      dup3\n        /* \"#utility.yul\":2459:2476   */\n      add\n        /* \"#utility.yul\":2453:2477   */\n      mload\n        /* \"#utility.yul\":2504:2522   */\n      0xffffffffffffffff\n        /* \"#utility.yul\":2496:2502   */\n      dup2\n        /* \"#utility.yul\":2493:2523   */\n      gt\n        /* \"#utility.yul\":2490:2607   */\n      iszero\n      tag_96\n      jumpi\n        /* \"#utility.yul\":2526:2605   */\n      tag_97\n      tag_98\n      jump\t// in\n    tag_97:\n        /* \"#utility.yul\":2490:2607   */\n    tag_96:\n        /* \"#utility.yul\":2631:2720   */\n      tag_99\n        /* \"#utility.yul\":2712:2719   */\n      dup5\n        /* \"#utility.yul\":2703:2709   */\n      dup3\n        /* \"#utility.yul\":2692:2701   */\n      dup6\n        /* \"#utility.yul\":2688:2710   */\n      add\n        /* \"#utility.yul\":2631:2720   */\n      tag_71\n      jump\t// in\n    tag_99:\n        /* \"#utility.yul\":2621:2720   */\n      swap2\n      pop\n        /* \"#utility.yul\":2424:2730   */\n      pop\n        /* \"#utility.yul\":2183:2737   */\n      swap3\n      swap2\n      pop\n      pop\n      jump\t// out\n        /* \"#utility.yul\":2743:3273   */\n    tag_8:\n        /* \"#utility.yul\":2839:2845   */\n      0x00\n        /* \"#utility.yul\":2847:2853   */\n      dup1\n        /* \"#utility.yul\":2896:2898   */\n      0x40\n        /* \"#utility.yul\":2884:2893   */\n      dup4\n        /* \"#utility.yul\":2875:2882   */\n      dup6\n        /* \"#utility.yul\":2871:2894   */\n      sub\n        /* \"#utility.yul\":2867:2899   */\n      slt\n        /* \"#utility.yul\":2864:2983   */\n      iszero\n      tag_101\n      jumpi\n        /* \"#utility.yul\":2902:2981   */\n      tag_102\n      tag_91\n      jump\t// in\n    tag_102:\n        /* \"#utility.yul\":2864:2983   */\n    tag_101:\n        /* \"#utility.yul\":3022:3023   */\n      0x00\n        /* \"#utility.yul\":3047:3114   */\n      tag_103\n        /* \"#utility.yul\":3106:3113   */\n      dup6\n        /* \"#utility.yul\":3097:3103   */\n      dup3\n        /* \"#utility.yul\":3086:3095   */\n      dup7\n        /* \"#utility.yul\":3082:3104   */\n      add\n        /* \"#utility.yul\":3047:3114   */\n      tag_77\n      jump\t// in\n    tag_103:\n        /* \"#utility.yul\":3037:3114   */\n      swap3\n      pop\n        /* \"#utility.yul\":2993:3124   */\n      pop\n        /* \"#utility.yul\":3163:3165   */\n      0x20\n        /* \"#utility.yul\":3189:3256   */\n      tag_104\n        /* \"#utility.yul\":3248:3255   */\n      dup6\n        /* \"#utility.yul\":3239:3245   */\n      dup3\n        /* \"#utility.yul\":3228:3237   */\n      dup7\n        /* \"#utility.yul\":3224:3246   */\n      add\n        /* \"#utility.yul\":3189:3256   */\n      tag_81\n      jump\t// in\n    tag_104:\n        /* \"#utility.yul\":3179:3256   */\n      swap2\n      pop\n        /* \"#utility.yul\":3134:3266   */\n      pop\n        /* \"#utility.yul\":2743:3273   */\n      swap3\n      pop\n      swap3\n      swap1\n      pop\n      jump\t// out\n        /* \"#utility.yul\":3279:3458   */\n    tag_105:\n        /* \"#utility.yul\":3348:3358   */\n      0x00\n        /* \"#utility.yul\":3369:3415   */\n      tag_107\n        /* \"#utility.yul\":3411:3414   */\n      dup4\n        /* \"#utility.yul\":3403:3409   */\n      dup4\n        /* \"#utility.yul\":3369:3415   */\n      tag_108\n      jump\t// in\n    tag_107:\n        /* \"#utility.yul\":3447:3451   */\n      0x20\n        /* \"#utility.yul\":3442:3445   */\n      dup4\n        /* \"#utility.yul\":3438:3452   */\n      add\n        /* \"#utility.yul\":3424:3452   */\n      swap1\n      pop\n        /* \"#utility.yul\":3279:3458   */\n      swap3\n      swap2\n      pop\n      pop\n      jump\t// out\n        /* \"#utility.yul\":3464:3572   */\n    tag_108:\n        /* \"#utility.yul\":3541:3565   */\n      tag_110\n        /* \"#utility.yul\":3559:3564   */\n      dup2\n        /* \"#utility.yul\":3541:3565   */\n      tag_111\n      jump\t// in\n    tag_110:\n        /* \"#utility.yul\":3536:3539   */\n      dup3\n        /* \"#utility.yul\":3529:3566   */\n      mstore\n        /* \"#utility.yul\":3464:3572   */\n      pop\n      pop\n      jump\t// out\n        /* \"#utility.yul\":3578:3696   */\n    tag_112:\n        /* \"#utility.yul\":3665:3689   */\n      tag_114\n        /* \"#utility.yul\":3683:3688   */\n      dup2\n        /* \"#utility.yul\":3665:3689   */\n      tag_111\n      jump\t// in\n    tag_114:\n        /* \"#utility.yul\":3660:3663   */\n      dup3\n        /* \"#utility.yul\":3653:3690   */\n      mstore\n        /* \"#utility.yul\":3578:3696   */\n      pop\n      pop\n      jump\t// out\n        /* \"#utility.yul\":3732:4464   */\n    tag_115:\n        /* \"#utility.yul\":3851:3854   */\n      0x00\n        /* \"#utility.yul\":3880:3934   */\n      tag_117\n        /* \"#utility.yul\":3928:3933   */\n      dup3\n        /* \"#utility.yul\":3880:3934   */\n      tag_118\n      jump\t// in\n    tag_117:\n        /* \"#utility.yul\":3950:4036   */\n      tag_119\n        /* \"#utility.yul\":4029:4035   */\n      dup2\n        /* \"#utility.yul\":4024:4027   */\n      dup6\n        /* \"#utility.yul\":3950:4036   */\n      tag_120\n      jump\t// in\n    tag_119:\n        /* \"#utility.yul\":3943:4036   */\n      swap4\n      pop\n        /* \"#utility.yul\":4060:4116   */\n      tag_121\n        /* \"#utility.yul\":4110:4115   */\n      dup4\n        /* \"#utility.yul\":4060:4116   */\n      tag_122\n      jump\t// in\n    tag_121:\n        /* \"#utility.yul\":4139:4146   */\n      dup1\n        /* \"#utility.yul\":4170:4171   */\n      0x00\n        /* \"#utility.yul\":4155:4439   */\n    tag_123:\n        /* \"#utility.yul\":4180:4186   */\n      dup4\n        /* \"#utility.yul\":4177:4178   */\n      dup2\n        /* \"#utility.yul\":4174:4187   */\n      lt\n        /* \"#utility.yul\":4155:4439   */\n      iszero\n      tag_125\n      jumpi\n        /* \"#utility.yul\":4256:4262   */\n      dup2\n        /* \"#utility.yul\":4250:4263   */\n      mload\n        /* \"#utility.yul\":4283:4346   */\n      tag_126\n        /* \"#utility.yul\":4342:4345   */\n      dup9\n        /* \"#utility.yul\":4327:4340   */\n      dup3\n        /* \"#utility.yul\":4283:4346   */\n      tag_105\n      jump\t// in\n    tag_126:\n        /* \"#utility.yul\":4276:4346   */\n      swap8\n      pop\n        /* \"#utility.yul\":4369:4429   */\n      tag_127\n        /* \"#utility.yul\":4422:4428   */\n      dup4\n        /* \"#utility.yul\":4369:4429   */\n      tag_128\n      jump\t// in\n    tag_127:\n        /* \"#utility.yul\":4359:4429   */\n      swap3\n      pop\n        /* \"#utility.yul\":4215:4439   */\n      pop\n        /* \"#utility.yul\":4202:4203   */\n      0x01\n        /* \"#utility.yul\":4199:4200   */\n      dup2\n        /* \"#utility.yul\":4195:4204   */\n      add\n        /* \"#utility.yul\":4190:4204   */\n      swap1\n      pop\n        /* \"#utility.yul\":4155:4439   */\n      jump(tag_123)\n    tag_125:\n        /* \"#utility.yul\":4159:4173   */\n      pop\n        /* \"#utility.yul\":4455:4458   */\n      dup6\n        /* \"#utility.yul\":4448:4458   */\n      swap4\n      pop\n        /* \"#utility.yul\":3856:4464   */\n      pop\n      pop\n      pop\n        /* \"#utility.yul\":3732:4464   */\n      swap3\n      swap2\n      pop\n      pop\n      jump\t// out\n        /* \"#utility.yul\":4470:4588   */\n    tag_129:\n        /* \"#utility.yul\":4557:4581   */\n      tag_131\n        /* \"#utility.yul\":4575:4580   */\n      dup2\n        /* \"#utility.yul\":4557:4581   */\n      tag_132\n      jump\t// in\n    tag_131:\n        /* \"#utility.yul\":4552:4555   */\n      dup3\n        /* \"#utility.yul\":4545:4582   */\n      mstore\n        /* \"#utility.yul\":4470:4588   */\n      pop\n      pop\n      jump\t// out\n        /* \"#utility.yul\":4594:4816   */\n    tag_15:\n        /* \"#utility.yul\":4687:4691   */\n      0x00\n        /* \"#utility.yul\":4725:4727   */\n      0x20\n        /* \"#utility.yul\":4714:4723   */\n      dup3\n        /* \"#utility.yul\":4710:4728   */\n      add\n        /* \"#utility.yul\":4702:4728   */\n      swap1\n      pop\n        /* \"#utility.yul\":4738:4809   */\n      tag_134\n        /* \"#utility.yul\":4806:4807   */\n      0x00\n        /* \"#utility.yul\":4795:4804   */\n      dup4\n        /* \"#utility.yul\":4791:4808   */\n      add\n        /* \"#utility.yul\":4782:4788   */\n      dup5\n        /* \"#utility.yul\":4738:4809   */\n      tag_112\n      jump\t// in\n    tag_134:\n        /* \"#utility.yul\":4594:4816   */\n      swap3\n      swap2\n      pop\n      pop\n      jump\t// out\n        /* \"#utility.yul\":4822:5044   */\n    tag_11:\n        /* \"#utility.yul\":4915:4919   */\n      0x00\n        /* \"#utility.yul\":4953:4955   */\n      0x20\n        /* \"#utility.yul\":4942:4951   */\n      dup3\n        /* \"#utility.yul\":4938:4956   */\n      add\n        /* \"#utility.yul\":4930:4956   */\n      swap1\n      pop\n        /* \"#utility.yul\":4966:5037   */\n      tag_136\n        /* \"#utility.yul\":5034:5035   */\n      0x00\n        /* \"#utility.yul\":5023:5032   */\n      dup4\n        /* \"#utility.yul\":5019:5036   */\n      add\n        /* \"#utility.yul\":5010:5016   */\n      dup5\n        /* \"#utility.yul\":4966:5037   */\n      tag_129\n      jump\t// in\n    tag_136:\n        /* \"#utility.yul\":4822:5044   */\n      swap3\n      swap2\n      pop\n      pop\n      jump\t// out\n        /* \"#utility.yul\":5050:5533   */\n    tag_44:\n        /* \"#utility.yul\":5221:5225   */\n      0x00\n        /* \"#utility.yul\":5259:5261   */\n      0x40\n        /* \"#utility.yul\":5248:5257   */\n      dup3\n        /* \"#utility.yul\":5244:5262   */\n      add\n        /* \"#utility.yul\":5236:5262   */\n      swap1\n      pop\n        /* \"#utility.yul\":5272:5343   */\n      tag_138\n        /* \"#utility.yul\":5340:5341   */\n      0x00\n        /* \"#utility.yul\":5329:5338   */\n      dup4\n        /* \"#utility.yul\":5325:5342   */\n      add\n        /* \"#utility.yul\":5316:5322   */\n      dup6\n        /* \"#utility.yul\":5272:5343   */\n      tag_129\n      jump\t// in\n    tag_138:\n        /* \"#utility.yul\":5390:5399   */\n      dup2\n        /* \"#utility.yul\":5384:5388   */\n      dup2\n        /* \"#utility.yul\":5380:5400   */\n      sub\n        /* \"#utility.yul\":5375:5377   */\n      0x20\n        /* \"#utility.yul\":5364:5373   */\n      dup4\n        /* \"#utility.yul\":5360:5378   */\n      add\n        /* \"#utility.yul\":5353:5401   */\n      mstore\n        /* \"#utility.yul\":5418:5526   */\n      tag_139\n        /* \"#utility.yul\":5521:5525   */\n      dup2\n        /* \"#utility.yul\":5512:5518   */\n      dup5\n        /* \"#utility.yul\":5418:5526   */\n      tag_115\n      jump\t// in\n    tag_139:\n        /* \"#utility.yul\":5410:5526   */\n      swap1\n      pop\n        /* \"#utility.yul\":5050:5533   */\n      swap4\n      swap3\n      pop\n      pop\n      pop\n      jump\t// out\n        /* \"#utility.yul\":5539:5668   */\n    tag_58:\n        /* \"#utility.yul\":5573:5579   */\n      0x00\n        /* \"#utility.yul\":5600:5620   */\n      tag_141\n      tag_142\n      jump\t// in\n    tag_141:\n        /* \"#utility.yul\":5590:5620   */\n      swap1\n      pop\n        /* \"#utility.yul\":5629:5662   */\n      tag_143\n        /* \"#utility.yul\":5657:5661   */\n      dup3\n        /* \"#utility.yul\":5649:5655   */\n      dup3\n        /* \"#utility.yul\":5629:5662   */\n      tag_144\n      jump\t// in\n    tag_143:\n        /* \"#utility.yul\":5539:5668   */\n      swap2\n      swap1\n      pop\n      jump\t// out\n        /* \"#utility.yul\":5674:5749   */\n    tag_142:\n        /* \"#utility.yul\":5707:5713   */\n      0x00\n        /* \"#utility.yul\":5740:5742   */\n      0x40\n        /* \"#utility.yul\":5734:5743   */\n      mload\n        /* \"#utility.yul\":5724:5743   */\n      swap1\n      pop\n        /* \"#utility.yul\":5674:5749   */\n      swap1\n      jump\t// out\n        /* \"#utility.yul\":5755:6066   */\n    tag_57:\n        /* \"#utility.yul\":5832:5836   */\n      0x00\n        /* \"#utility.yul\":5922:5940   */\n      0xffffffffffffffff\n        /* \"#utility.yul\":5914:5920   */\n      dup3\n        /* \"#utility.yul\":5911:5941   */\n      gt\n        /* \"#utility.yul\":5908:5964   */\n      iszero\n      tag_147\n      jumpi\n        /* \"#utility.yul\":5944:5962   */\n      tag_148\n      tag_34\n      jump\t// in\n    tag_148:\n        /* \"#utility.yul\":5908:5964   */\n    tag_147:\n        /* \"#utility.yul\":5994:5998   */\n      0x20\n        /* \"#utility.yul\":5986:5992   */\n      dup3\n        /* \"#utility.yul\":5982:5999   */\n      mul\n        /* \"#utility.yul\":5974:5999   */\n      swap1\n      pop\n        /* \"#utility.yul\":6054:6058   */\n      0x20\n        /* \"#utility.yul\":6048:6052   */\n      dup2\n        /* \"#utility.yul\":6044:6059   */\n      add\n        /* \"#utility.yul\":6036:6059   */\n      swap1\n      pop\n        /* \"#utility.yul\":5755:6066   */\n      swap2\n      swap1\n      pop\n      jump\t// out\n        /* \"#utility.yul\":6072:6204   */\n    tag_122:\n        /* \"#utility.yul\":6139:6143   */\n      0x00\n        /* \"#utility.yul\":6162:6165   */\n      dup2\n        /* \"#utility.yul\":6154:6165   */\n      swap1\n      pop\n        /* \"#utility.yul\":6192:6196   */\n      0x20\n        /* \"#utility.yul\":6187:6190   */\n      dup3\n        /* \"#utility.yul\":6183:6197   */\n      add\n        /* \"#utility.yul\":6175:6197   */\n      swap1\n      pop\n        /* \"#utility.yul\":6072:6204   */\n      swap2\n      swap1\n      pop\n      jump\t// out\n        /* \"#utility.yul\":6210:6324   */\n    tag_118:\n        /* \"#utility.yul\":6277:6283   */\n      0x00\n        /* \"#utility.yul\":6311:6316   */\n      dup2\n        /* \"#utility.yul\":6305:6317   */\n      mload\n        /* \"#utility.yul\":6295:6317   */\n      swap1\n      pop\n        /* \"#utility.yul\":6210:6324   */\n      swap2\n      swap1\n      pop\n      jump\t// out\n        /* \"#utility.yul\":6330:6443   */\n    tag_128:\n        /* \"#utility.yul\":6400:6404   */\n      0x00\n        /* \"#utility.yul\":6432:6436   */\n      0x20\n        /* \"#utility.yul\":6427:6430   */\n      dup3\n        /* \"#utility.yul\":6423:6437   */\n      add\n        /* \"#utility.yul\":6415:6437   */\n      swap1\n      pop\n        /* \"#utility.yul\":6330:6443   */\n      swap2\n      swap1\n      pop\n      jump\t// out\n        /* \"#utility.yul\":6449:6633   */\n    tag_120:\n        /* \"#utility.yul\":6548:6559   */\n      0x00\n        /* \"#utility.yul\":6582:6588   */\n      dup3\n        /* \"#utility.yul\":6577:6580   */\n      dup3\n        /* \"#utility.yul\":6570:6589   */\n      mstore\n        /* \"#utility.yul\":6622:6626   */\n      0x20\n        /* \"#utility.yul\":6617:6620   */\n      dup3\n        /* \"#utility.yul\":6613:6627   */\n      add\n        /* \"#utility.yul\":6598:6627   */\n      swap1\n      pop\n        /* \"#utility.yul\":6449:6633   */\n      swap3\n      swap2\n      pop\n      pop\n      jump\t// out\n        /* \"#utility.yul\":6639:6735   */\n    tag_111:\n        /* \"#utility.yul\":6676:6683   */\n      0x00\n        /* \"#utility.yul\":6705:6729   */\n      tag_154\n        /* \"#utility.yul\":6723:6728   */\n      dup3\n        /* \"#utility.yul\":6705:6729   */\n      tag_155\n      jump\t// in\n    tag_154:\n        /* \"#utility.yul\":6694:6729   */\n      swap1\n      pop\n        /* \"#utility.yul\":6639:6735   */\n      swap2\n      swap1\n      pop\n      jump\t// out\n        /* \"#utility.yul\":6741:6851   */\n    tag_156:\n        /* \"#utility.yul\":6792:6799   */\n      0x00\n        /* \"#utility.yul\":6821:6845   */\n      tag_158\n        /* \"#utility.yul\":6839:6844   */\n      dup3\n        /* \"#utility.yul\":6821:6845   */\n      tag_111\n      jump\t// in\n    tag_158:\n        /* \"#utility.yul\":6810:6845   */\n      swap1\n      pop\n        /* \"#utility.yul\":6741:6851   */\n      swap2\n      swap1\n      pop\n      jump\t// out\n        /* \"#utility.yul\":6857:6967   */\n    tag_159:\n        /* \"#utility.yul\":6908:6915   */\n      0x00\n        /* \"#utility.yul\":6937:6961   */\n      tag_161\n        /* \"#utility.yul\":6955:6960   */\n      dup3\n        /* \"#utility.yul\":6937:6961   */\n      tag_111\n      jump\t// in\n    tag_161:\n        /* \"#utility.yul\":6926:6961   */\n      swap1\n      pop\n        /* \"#utility.yul\":6857:6967   */\n      swap2\n      swap1\n      pop\n      jump\t// out\n        /* \"#utility.yul\":6973:7099   */\n    tag_155:\n        /* \"#utility.yul\":7010:7017   */\n      0x00\n        /* \"#utility.yul\":7050:7092   */\n      0xffffffffffffffffffffffffffffffffffffffff\n        /* \"#utility.yul\":7043:7048   */\n      dup3\n        /* \"#utility.yul\":7039:7093   */\n      and\n        /* \"#utility.yul\":7028:7093   */\n      swap1\n      pop\n        /* \"#utility.yul\":6973:7099   */\n      swap2\n      swap1\n      pop\n      jump\t// out\n        /* \"#utility.yul\":7105:7182   */\n    tag_132:\n        /* \"#utility.yul\":7142:7149   */\n      0x00\n        /* \"#utility.yul\":7171:7176   */\n      dup2\n        /* \"#utility.yul\":7160:7176   */\n      swap1\n      pop\n        /* \"#utility.yul\":7105:7182   */\n      swap2\n      swap1\n      pop\n      jump\t// out\n        /* \"#utility.yul\":7188:7469   */\n    tag_144:\n        /* \"#utility.yul\":7271:7298   */\n      tag_165\n        /* \"#utility.yul\":7293:7297   */\n      dup3\n        /* \"#utility.yul\":7271:7298   */\n      tag_166\n      jump\t// in\n    tag_165:\n        /* \"#utility.yul\":7263:7269   */\n      dup2\n        /* \"#utility.yul\":7259:7299   */\n      add\n        /* \"#utility.yul\":7401:7407   */\n      dup2\n        /* \"#utility.yul\":7389:7399   */\n      dup2\n        /* \"#utility.yul\":7386:7408   */\n      lt\n        /* \"#utility.yul\":7365:7383   */\n      0xffffffffffffffff\n        /* \"#utility.yul\":7353:7363   */\n      dup3\n        /* \"#utility.yul\":7350:7384   */\n      gt\n        /* \"#utility.yul\":7347:7409   */\n      or\n        /* \"#utility.yul\":7344:7432   */\n      iszero\n      tag_167\n      jumpi\n        /* \"#utility.yul\":7412:7430   */\n      tag_168\n      tag_34\n      jump\t// in\n    tag_168:\n        /* \"#utility.yul\":7344:7432   */\n    tag_167:\n        /* \"#utility.yul\":7452:7462   */\n      dup1\n        /* \"#utility.yul\":7448:7450   */\n      0x40\n        /* \"#utility.yul\":7441:7463   */\n      mstore\n        /* \"#utility.yul\":7231:7469   */\n      pop\n        /* \"#utility.yul\":7188:7469   */\n      pop\n      pop\n      jump\t// out\n        /* \"#utility.yul\":7475:7655   */\n    tag_38:\n        /* \"#utility.yul\":7523:7600   */\n      0x4e487b7100000000000000000000000000000000000000000000000000000000\n        /* \"#utility.yul\":7520:7521   */\n      0x00\n        /* \"#utility.yul\":7513:7601   */\n      mstore\n        /* \"#utility.yul\":7620:7624   */\n      0x32\n        /* \"#utility.yul\":7617:7618   */\n      0x04\n        /* \"#utility.yul\":7610:7625   */\n      mstore\n        /* \"#utility.yul\":7644:7648   */\n      0x24\n        /* \"#utility.yul\":7641:7642   */\n      0x00\n        /* \"#utility.yul\":7634:7649   */\n      revert\n        /* \"#utility.yul\":7661:7841   */\n    tag_34:\n        /* \"#utility.yul\":7709:7786   */\n      0x4e487b7100000000000000000000000000000000000000000000000000000000\n        /* \"#utility.yul\":7706:7707   */\n      0x00\n        /* \"#utility.yul\":7699:7787   */\n      mstore\n        /* \"#utility.yul\":7806:7810   */\n      0x41\n        /* \"#utility.yul\":7803:7804   */\n      0x04\n        /* \"#utility.yul\":7796:7811   */\n      mstore\n        /* \"#utility.yul\":7830:7834   */\n      0x24\n        /* \"#utility.yul\":7827:7828   */\n      0x00\n        /* \"#utility.yul\":7820:7835   */\n      revert\n        /* \"#utility.yul\":7847:7964   */\n    tag_75:\n        /* \"#utility.yul\":7956:7957   */\n      0x00\n        /* \"#utility.yul\":7953:7954   */\n      dup1\n        /* \"#utility.yul\":7946:7958   */\n      revert\n        /* \"#utility.yul\":7970:8087   */\n    tag_61:\n        /* \"#utility.yul\":8079:8080   */\n      0x00\n        /* \"#utility.yul\":8076:8077   */\n      dup1\n        /* \"#utility.yul\":8069:8081   */\n      revert\n        /* \"#utility.yul\":8093:8210   */\n    tag_98:\n        /* \"#utility.yul\":8202:8203   */\n      0x00\n        /* \"#utility.yul\":8199:8200   */\n      dup1\n        /* \"#utility.yul\":8192:8204   */\n      revert\n        /* \"#utility.yul\":8216:8333   */\n    tag_91:\n        /* \"#utility.yul\":8325:8326   */\n      0x00\n        /* \"#utility.yul\":8322:8323   */\n      dup1\n        /* \"#utility.yul\":8315:8327   */\n      revert\n        /* \"#utility.yul\":8339:8441   */\n    tag_166:\n        /* \"#utility.yul\":8380:8386   */\n      0x00\n        /* \"#utility.yul\":8431:8433   */\n      0x1f\n        /* \"#utility.yul\":8427:8434   */\n      not\n        /* \"#utility.yul\":8422:8424   */\n      0x1f\n        /* \"#utility.yul\":8415:8420   */\n      dup4\n        /* \"#utility.yul\":8411:8425   */\n      add\n        /* \"#utility.yul\":8407:8435   */\n      and\n        /* \"#utility.yul\":8397:8435   */\n      swap1\n      pop\n        /* \"#utility.yul\":8339:8441   */\n      swap2\n      swap1\n      pop\n      jump\t// out\n        /* \"#utility.yul\":8447:8569   */\n    tag_70:\n        /* \"#utility.yul\":8520:8544   */\n      tag_177\n        /* \"#utility.yul\":8538:8543   */\n      dup2\n        /* \"#utility.yul\":8520:8544   */\n      tag_111\n      jump\t// in\n    tag_177:\n        /* \"#utility.yul\":8513:8518   */\n      dup2\n        /* \"#utility.yul\":8510:8545   */\n      eq\n        /* \"#utility.yul\":8500:8563   */\n      tag_178\n      jumpi\n        /* \"#utility.yul\":8559:8560   */\n      0x00\n        /* \"#utility.yul\":8556:8557   */\n      dup1\n        /* \"#utility.yul\":8549:8561   */\n      revert\n        /* \"#utility.yul\":8500:8563   */\n    tag_178:\n        /* \"#utility.yul\":8447:8569   */\n      pop\n      jump\t// out\n        /* \"#utility.yul\":8575:8725   */\n    tag_80:\n        /* \"#utility.yul\":8662:8700   */\n      tag_180\n        /* \"#utility.yul\":8694:8699   */\n      dup2\n        /* \"#utility.yul\":8662:8700   */\n      tag_156\n      jump\t// in\n    tag_180:\n        /* \"#utility.yul\":8655:8660   */\n      dup2\n        /* \"#utility.yul\":8652:8701   */\n      eq\n        /* \"#utility.yul\":8642:8719   */\n      tag_181\n      jumpi\n        /* \"#utility.yul\":8715:8716   */\n      0x00\n        /* \"#utility.yul\":8712:8713   */\n      dup1\n        /* \"#utility.yul\":8705:8717   */\n      revert\n        /* \"#utility.yul\":8642:8719   */\n    tag_181:\n        /* \"#utility.yul\":8575:8725   */\n      pop\n      jump\t// out\n        /* \"#utility.yul\":8731:8881   */\n    tag_84:\n        /* \"#utility.yul\":8818:8856   */\n      tag_183\n        /* \"#utility.yul\":8850:8855   */\n      dup2\n        /* \"#utility.yul\":8818:8856   */\n      tag_159\n      jump\t// in\n    tag_183:\n        /* \"#utility.yul\":8811:8816   */\n      dup2\n        /* \"#utility.yul\":8808:8857   */\n      eq\n        /* \"#utility.yul\":8798:8875   */\n      tag_184\n      jumpi\n        /* \"#utility.yul\":8871:8872   */\n      0x00\n        /* \"#utility.yul\":8868:8869   */\n      dup1\n        /* \"#utility.yul\":8861:8873   */\n      revert\n        /* \"#utility.yul\":8798:8875   */\n    tag_184:\n        /* \"#utility.yul\":8731:8881   */\n      pop\n      jump\t// out\n        /* \"#utility.yul\":8887:9009   */\n    tag_87:\n        /* \"#utility.yul\":8960:8984   */\n      tag_186\n        /* \"#utility.yul\":8978:8983   */\n      dup2\n        /* \"#utility.yul\":8960:8984   */\n      tag_132\n      jump\t// in\n    tag_186:\n        /* \"#utility.yul\":8953:8958   */\n      dup2\n        /* \"#utility.yul\":8950:8985   */\n      eq\n        /* \"#utility.yul\":8940:9003   */\n      tag_187\n      jumpi\n        /* \"#utility.yul\":8999:9000   */\n      0x00\n        /* \"#utility.yul\":8996:8997   */\n      dup1\n        /* \"#utility.yul\":8989:9001   */\n      revert\n        /* \"#utility.yul\":8940:9003   */\n    tag_187:\n        /* \"#utility.yul\":8887:9009   */\n      pop\n      jump\t// out\n\n    auxdata: 0xa2646970667358221220f00c79924a8db52893dbc66728fc97cc018cb547c2aabb36556d3c8ece71d0c864736f6c63430008070033\n}\n",
				"bytecode": {
					"linkReferences": {},
					"object": "608060405273ae13d989dac2f0debff460ac112a837c89baa7cd6000806101000a81548173ffffffffffffffffffffffffffffffffffffffff021916908373ffffffffffffffffffffffffffffffffffffffff1602179055507378867bbeef44f2326bf8ddd1941a4439382ef2a7600160006101000a81548173ffffffffffffffffffffffffffffffffffffffff021916908373ffffffffffffffffffffffffffffffffffffffff160217905550670de0b6b3a76400006002553480156100c557600080fd5b50610924806100d56000396000f3fe608060405234801561001057600080fd5b50600436106100415760003560e01c8063344e49d914610046578063484f4ea9146100765780638dd9500214610094575b600080fd5b610060600480360381019061005b91906105ab565b6100b2565b60405161006d91906106a9565b60405180910390f35b61007e6101c5565b60405161008b919061068e565b60405180910390f35b61009c6101eb565b6040516100a9919061068e565b60405180910390f35b6000808373ffffffffffffffffffffffffffffffffffffffff16630dfe16816040518163ffffffff1660e01b815260040160206040518083038186803b1580156100fb57600080fd5b505afa15801561010f573d6000803e3d6000fd5b505050506040513d601f19601f820116820180604052508101906101339190610535565b90506101bc838573ffffffffffffffffffffffffffffffffffffffff16630dfe16816040518163ffffffff1660e01b815260040160206040518083038186803b15801561017f57600080fd5b505afa158015610193573d6000803e3d6000fd5b505050506040513d601f19601f820116820180604052508101906101b79190610535565b61020f565b91505092915050565b600160009054906101000a900473ffffffffffffffffffffffffffffffffffffffff1681565b60008054906101000a900473ffffffffffffffffffffffffffffffffffffffff1681565b600080600367ffffffffffffffff81111561022d5761022c61083e565b5b60405190808252806020026020018201604052801561025b5781602001602082028036833780820191505090505b50905082816000815181106102735761027261080f565b5b602002602001019073ffffffffffffffffffffffffffffffffffffffff16908173ffffffffffffffffffffffffffffffffffffffff168152505060008054906101000a900473ffffffffffffffffffffffffffffffffffffffff16816001815181106102e2576102e161080f565b5b602002602001019073ffffffffffffffffffffffffffffffffffffffff16908173ffffffffffffffffffffffffffffffffffffffff1681525050600160009054906101000a900473ffffffffffffffffffffffffffffffffffffffff16816002815181106103535761035261080f565b5b602002602001019073ffffffffffffffffffffffffffffffffffffffff16908173ffffffffffffffffffffffffffffffffffffffff16815250508373ffffffffffffffffffffffffffffffffffffffff1663d06ca61f600254836040518363ffffffff1660e01b81526004016103ca9291906106c4565b60006040518083038186803b1580156103e257600080fd5b505afa1580156103f6573d6000803e3d6000fd5b505050506040513d6000823e3d601f19601f8201168201806040525081019061041f9190610562565b6002815181106104325761043161080f565b5b602002602001015191505092915050565b600061045661045184610719565b6106f4565b9050808382526020820190508285602086028201111561047957610478610872565b5b60005b858110156104a9578161048f8882610520565b84526020840193506020830192505060018101905061047c565b5050509392505050565b6000815190506104c281610892565b92915050565b600082601f8301126104dd576104dc61086d565b5b81516104ed848260208601610443565b91505092915050565b600081359050610505816108a9565b92915050565b60008135905061051a816108c0565b92915050565b60008151905061052f816108d7565b92915050565b60006020828403121561054b5761054a61087c565b5b6000610559848285016104b3565b91505092915050565b6000602082840312156105785761057761087c565b5b600082015167ffffffffffffffff81111561059657610595610877565b5b6105a2848285016104c8565b91505092915050565b600080604083850312156105c2576105c161087c565b5b60006105d0858286016104f6565b92505060206105e18582860161050b565b9150509250929050565b60006105f78383610603565b60208301905092915050565b61060c8161077e565b82525050565b61061b8161077e565b82525050565b600061062c82610755565b610636818561076d565b935061064183610745565b8060005b8381101561067257815161065988826105eb565b975061066483610760565b925050600181019050610645565b5085935050505092915050565b610688816107d4565b82525050565b60006020820190506106a36000830184610612565b92915050565b60006020820190506106be600083018461067f565b92915050565b60006040820190506106d9600083018561067f565b81810360208301526106eb8184610621565b90509392505050565b60006106fe61070f565b905061070a82826107de565b919050565b6000604051905090565b600067ffffffffffffffff8211156107345761073361083e565b5b602082029050602081019050919050565b6000819050602082019050919050565b600081519050919050565b6000602082019050919050565b600082825260208201905092915050565b6000610789826107b4565b9050919050565b600061079b8261077e565b9050919050565b60006107ad8261077e565b9050919050565b600073ffffffffffffffffffffffffffffffffffffffff82169050919050565b6000819050919050565b6107e782610881565b810181811067ffffffffffffffff821117156108065761080561083e565b5b80604052505050565b7f4e487b7100000000000000000000000000000000000000000000000000000000600052603260045260246000fd5b7f4e487b7100000000000000000000000000000000000000000000000000000000600052604160045260246000fd5b600080fd5b600080fd5b600080fd5b600080fd5b6000601f19601f8301169050919050565b61089b8161077e565b81146108a657600080fd5b50565b6108b281610790565b81146108bd57600080fd5b50565b6108c9816107a2565b81146108d457600080fd5b50565b6108e0816107d4565b81146108eb57600080fd5b5056fea2646970667358221220f00c79924a8db52893dbc66728fc97cc018cb547c2aabb36556d3c8ece71d0c864736f6c63430008070033",
					"opcodes": "PUSH1 0x80 PUSH1 0x40 MSTORE PUSH20 0xAE13D989DAC2F0DEBFF460AC112A837C89BAA7CD PUSH1 0x0 DUP1 PUSH2 0x100 EXP DUP2 SLOAD DUP2 PUSH20 0xFFFFFFFFFFFFFFFFFFFFFFFFFFFFFFFFFFFFFFFF MUL NOT AND SWAP1 DUP4 PUSH20 0xFFFFFFFFFFFFFFFFFFFFFFFFFFFFFFFFFFFFFFFF AND MUL OR SWAP1 SSTORE POP PUSH20 0x78867BBEEF44F2326BF8DDD1941A4439382EF2A7 PUSH1 0x1 PUSH1 0x0 PUSH2 0x100 EXP DUP2 SLOAD DUP2 PUSH20 0xFFFFFFFFFFFFFFFFFFFFFFFFFFFFFFFFFFFFFFFF MUL NOT AND SWAP1 DUP4 PUSH20 0xFFFFFFFFFFFFFFFFFFFFFFFFFFFFFFFFFFFFFFFF AND MUL OR SWAP1 SSTORE POP PUSH8 0xDE0B6B3A7640000 PUSH1 0x2 SSTORE CALLVALUE DUP1 ISZERO PUSH2 0xC5 JUMPI PUSH1 0x0 DUP1 REVERT JUMPDEST POP PUSH2 0x924 DUP1 PUSH2 0xD5 PUSH1 0x0 CODECOPY PUSH1 0x0 RETURN INVALID PUSH1 0x80 PUSH1 0x40 MSTORE CALLVALUE DUP1 ISZERO PUSH2 0x10 JUMPI PUSH1 0x0 DUP1 REVERT JUMPDEST POP PUSH1 0x4 CALLDATASIZE LT PUSH2 0x41 JUMPI PUSH1 0x0 CALLDATALOAD PUSH1 0xE0 SHR DUP1 PUSH4 0x344E49D9 EQ PUSH2 0x46 JUMPI DUP1 PUSH4 0x484F4EA9 EQ PUSH2 0x76 JUMPI DUP1 PUSH4 0x8DD95002 EQ PUSH2 0x94 JUMPI JUMPDEST PUSH1 0x0 DUP1 REVERT JUMPDEST PUSH2 0x60 PUSH1 0x4 DUP1 CALLDATASIZE SUB DUP2 ADD SWAP1 PUSH2 0x5B SWAP2 SWAP1 PUSH2 0x5AB JUMP JUMPDEST PUSH2 0xB2 JUMP JUMPDEST PUSH1 0x40 MLOAD PUSH2 0x6D SWAP2 SWAP1 PUSH2 0x6A9 JUMP JUMPDEST PUSH1 0x40 MLOAD DUP1 SWAP2 SUB SWAP1 RETURN JUMPDEST PUSH2 0x7E PUSH2 0x1C5 JUMP JUMPDEST PUSH1 0x40 MLOAD PUSH2 0x8B SWAP2 SWAP1 PUSH2 0x68E JUMP JUMPDEST PUSH1 0x40 MLOAD DUP1 SWAP2 SUB SWAP1 RETURN JUMPDEST PUSH2 0x9C PUSH2 0x1EB JUMP JUMPDEST PUSH1 0x40 MLOAD PUSH2 0xA9 SWAP2 SWAP1 PUSH2 0x68E JUMP JUMPDEST PUSH1 0x40 MLOAD DUP1 SWAP2 SUB SWAP1 RETURN JUMPDEST PUSH1 0x0 DUP1 DUP4 PUSH20 0xFFFFFFFFFFFFFFFFFFFFFFFFFFFFFFFFFFFFFFFF AND PUSH4 0xDFE1681 PUSH1 0x40 MLOAD DUP2 PUSH4 0xFFFFFFFF AND PUSH1 0xE0 SHL DUP2 MSTORE PUSH1 0x4 ADD PUSH1 0x20 PUSH1 0x40 MLOAD DUP1 DUP4 SUB DUP2 DUP7 DUP1 EXTCODESIZE ISZERO DUP1 ISZERO PUSH2 0xFB JUMPI PUSH1 0x0 DUP1 REVERT JUMPDEST POP GAS STATICCALL ISZERO DUP1 ISZERO PUSH2 0x10F JUMPI RETURNDATASIZE PUSH1 0x0 DUP1 RETURNDATACOPY RETURNDATASIZE PUSH1 0x0 REVERT JUMPDEST POP POP POP POP PUSH1 0x40 MLOAD RETURNDATASIZE PUSH1 0x1F NOT PUSH1 0x1F DUP3 ADD AND DUP3 ADD DUP1 PUSH1 0x40 MSTORE POP DUP2 ADD SWAP1 PUSH2 0x133 SWAP2 SWAP1 PUSH2 0x535 JUMP JUMPDEST SWAP1 POP PUSH2 0x1BC DUP4 DUP6 PUSH20 0xFFFFFFFFFFFFFFFFFFFFFFFFFFFFFFFFFFFFFFFF AND PUSH4 0xDFE1681 PUSH1 0x40 MLOAD DUP2 PUSH4 0xFFFFFFFF AND PUSH1 0xE0 SHL DUP2 MSTORE PUSH1 0x4 ADD PUSH1 0x20 PUSH1 0x40 MLOAD DUP1 DUP4 SUB DUP2 DUP7 DUP1 EXTCODESIZE ISZERO DUP1 ISZERO PUSH2 0x17F JUMPI PUSH1 0x0 DUP1 REVERT JUMPDEST POP GAS STATICCALL ISZERO DUP1 ISZERO PUSH2 0x193 JUMPI RETURNDATASIZE PUSH1 0x0 DUP1 RETURNDATACOPY RETURNDATASIZE PUSH1 0x0 REVERT JUMPDEST POP POP POP POP PUSH1 0x40 MLOAD RETURNDATASIZE PUSH1 0x1F NOT PUSH1 0x1F DUP3 ADD AND DUP3 ADD DUP1 PUSH1 0x40 MSTORE POP DUP2 ADD SWAP1 PUSH2 0x1B7 SWAP2 SWAP1 PUSH2 0x535 JUMP JUMPDEST PUSH2 0x20F JUMP JUMPDEST SWAP2 POP POP SWAP3 SWAP2 POP POP JUMP JUMPDEST PUSH1 0x1 PUSH1 0x0 SWAP1 SLOAD SWAP1 PUSH2 0x100 EXP SWAP1 DIV PUSH20 0xFFFFFFFFFFFFFFFFFFFFFFFFFFFFFFFFFFFFFFFF AND DUP2 JUMP JUMPDEST PUSH1 0x0 DUP1 SLOAD SWAP1 PUSH2 0x100 EXP SWAP1 DIV PUSH20 0xFFFFFFFFFFFFFFFFFFFFFFFFFFFFFFFFFFFFFFFF AND DUP2 JUMP JUMPDEST PUSH1 0x0 DUP1 PUSH1 0x3 PUSH8 0xFFFFFFFFFFFFFFFF DUP2 GT ISZERO PUSH2 0x22D JUMPI PUSH2 0x22C PUSH2 0x83E JUMP JUMPDEST JUMPDEST PUSH1 0x40 MLOAD SWAP1 DUP1 DUP3 MSTORE DUP1 PUSH1 0x20 MUL PUSH1 0x20 ADD DUP3 ADD PUSH1 0x40 MSTORE DUP1 ISZERO PUSH2 0x25B JUMPI DUP2 PUSH1 0x20 ADD PUSH1 0x20 DUP3 MUL DUP1 CALLDATASIZE DUP4 CALLDATACOPY DUP1 DUP3 ADD SWAP2 POP POP SWAP1 POP JUMPDEST POP SWAP1 POP DUP3 DUP2 PUSH1 0x0 DUP2 MLOAD DUP2 LT PUSH2 0x273 JUMPI PUSH2 0x272 PUSH2 0x80F JUMP JUMPDEST JUMPDEST PUSH1 0x20 MUL PUSH1 0x20 ADD ADD SWAP1 PUSH20 0xFFFFFFFFFFFFFFFFFFFFFFFFFFFFFFFFFFFFFFFF AND SWAP1 DUP2 PUSH20 0xFFFFFFFFFFFFFFFFFFFFFFFFFFFFFFFFFFFFFFFF AND DUP2 MSTORE POP POP PUSH1 0x0 DUP1 SLOAD SWAP1 PUSH2 0x100 EXP SWAP1 DIV PUSH20 0xFFFFFFFFFFFFFFFFFFFFFFFFFFFFFFFFFFFFFFFF AND DUP2 PUSH1 0x1 DUP2 MLOAD DUP2 LT PUSH2 0x2E2 JUMPI PUSH2 0x2E1 PUSH2 0x80F JUMP JUMPDEST JUMPDEST PUSH1 0x20 MUL PUSH1 0x20 ADD ADD SWAP1 PUSH20 0xFFFFFFFFFFFFFFFFFFFFFFFFFFFFFFFFFFFFFFFF AND SWAP1 DUP2 PUSH20 0xFFFFFFFFFFFFFFFFFFFFFFFFFFFFFFFFFFFFFFFF AND DUP2 MSTORE POP POP PUSH1 0x1 PUSH1 0x0 SWAP1 SLOAD SWAP1 PUSH2 0x100 EXP SWAP1 DIV PUSH20 0xFFFFFFFFFFFFFFFFFFFFFFFFFFFFFFFFFFFFFFFF AND DUP2 PUSH1 0x2 DUP2 MLOAD DUP2 LT PUSH2 0x353 JUMPI PUSH2 0x352 PUSH2 0x80F JUMP JUMPDEST JUMPDEST PUSH1 0x20 MUL PUSH1 0x20 ADD ADD SWAP1 PUSH20 0xFFFFFFFFFFFFFFFFFFFFFFFFFFFFFFFFFFFFFFFF AND SWAP1 DUP2 PUSH20 0xFFFFFFFFFFFFFFFFFFFFFFFFFFFFFFFFFFFFFFFF AND DUP2 MSTORE POP POP DUP4 PUSH20 0xFFFFFFFFFFFFFFFFFFFFFFFFFFFFFFFFFFFFFFFF AND PUSH4 0xD06CA61F PUSH1 0x2 SLOAD DUP4 PUSH1 0x40 MLOAD DUP4 PUSH4 0xFFFFFFFF AND PUSH1 0xE0 SHL DUP2 MSTORE PUSH1 0x4 ADD PUSH2 0x3CA SWAP3 SWAP2 SWAP1 PUSH2 0x6C4 JUMP JUMPDEST PUSH1 0x0 PUSH1 0x40 MLOAD DUP1 DUP4 SUB DUP2 DUP7 DUP1 EXTCODESIZE ISZERO DUP1 ISZERO PUSH2 0x3E2 JUMPI PUSH1 0x0 DUP1 REVERT JUMPDEST POP GAS STATICCALL ISZERO DUP1 ISZERO PUSH2 0x3F6 JUMPI RETURNDATASIZE PUSH1 0x0 DUP1 RETURNDATACOPY RETURNDATASIZE PUSH1 0x0 REVERT JUMPDEST POP POP POP POP PUSH1 0x40 MLOAD RETURNDATASIZE PUSH1 0x0 DUP3 RETURNDATACOPY RETURNDATASIZE PUSH1 0x1F NOT PUSH1 0x1F DUP3 ADD AND DUP3 ADD DUP1 PUSH1 0x40 MSTORE POP DUP2 ADD SWAP1 PUSH2 0x41F SWAP2 SWAP1 PUSH2 0x562 JUMP JUMPDEST PUSH1 0x2 DUP2 MLOAD DUP2 LT PUSH2 0x432 JUMPI PUSH2 0x431 PUSH2 0x80F JUMP JUMPDEST JUMPDEST PUSH1 0x20 MUL PUSH1 0x20 ADD ADD MLOAD SWAP2 POP POP SWAP3 SWAP2 POP POP JUMP JUMPDEST PUSH1 0x0 PUSH2 0x456 PUSH2 0x451 DUP5 PUSH2 0x719 JUMP JUMPDEST PUSH2 0x6F4 JUMP JUMPDEST SWAP1 POP DUP1 DUP4 DUP3 MSTORE PUSH1 0x20 DUP3 ADD SWAP1 POP DUP3 DUP6 PUSH1 0x20 DUP7 MUL DUP3 ADD GT ISZERO PUSH2 0x479 JUMPI PUSH2 0x478 PUSH2 0x872 JUMP JUMPDEST JUMPDEST PUSH1 0x0 JUMPDEST DUP6 DUP2 LT ISZERO PUSH2 0x4A9 JUMPI DUP2 PUSH2 0x48F DUP9 DUP3 PUSH2 0x520 JUMP JUMPDEST DUP5 MSTORE PUSH1 0x20 DUP5 ADD SWAP4 POP PUSH1 0x20 DUP4 ADD SWAP3 POP POP PUSH1 0x1 DUP2 ADD SWAP1 POP PUSH2 0x47C JUMP JUMPDEST POP POP POP SWAP4 SWAP3 POP POP POP JUMP JUMPDEST PUSH1 0x0 DUP2 MLOAD SWAP1 POP PUSH2 0x4C2 DUP2 PUSH2 0x892 JUMP JUMPDEST SWAP3 SWAP2 POP POP JUMP JUMPDEST PUSH1 0x0 DUP3 PUSH1 0x1F DUP4 ADD SLT PUSH2 0x4DD JUMPI PUSH2 0x4DC PUSH2 0x86D JUMP JUMPDEST JUMPDEST DUP2 MLOAD PUSH2 0x4ED DUP5 DUP3 PUSH1 0x20 DUP7 ADD PUSH2 0x443 JUMP JUMPDEST SWAP2 POP POP SWAP3 SWAP2 POP POP JUMP JUMPDEST PUSH1 0x0 DUP2 CALLDATALOAD SWAP1 POP PUSH2 0x505 DUP2 PUSH2 0x8A9 JUMP JUMPDEST SWAP3 SWAP2 POP POP JUMP JUMPDEST PUSH1 0x0 DUP2 CALLDATALOAD SWAP1 POP PUSH2 0x51A DUP2 PUSH2 0x8C0 JUMP JUMPDEST SWAP3 SWAP2 POP POP JUMP JUMPDEST PUSH1 0x0 DUP2 MLOAD SWAP1 POP PUSH2 0x52F DUP2 PUSH2 0x8D7 JUMP JUMPDEST SWAP3 SWAP2 POP POP JUMP JUMPDEST PUSH1 0x0 PUSH1 0x20 DUP3 DUP5 SUB SLT ISZERO PUSH2 0x54B JUMPI PUSH2 0x54A PUSH2 0x87C JUMP JUMPDEST JUMPDEST PUSH1 0x0 PUSH2 0x559 DUP5 DUP3 DUP6 ADD PUSH2 0x4B3 JUMP JUMPDEST SWAP2 POP POP SWAP3 SWAP2 POP POP JUMP JUMPDEST PUSH1 0x0 PUSH1 0x20 DUP3 DUP5 SUB SLT ISZERO PUSH2 0x578 JUMPI PUSH2 0x577 PUSH2 0x87C JUMP JUMPDEST JUMPDEST PUSH1 0x0 DUP3 ADD MLOAD PUSH8 0xFFFFFFFFFFFFFFFF DUP2 GT ISZERO PUSH2 0x596 JUMPI PUSH2 0x595 PUSH2 0x877 JUMP JUMPDEST JUMPDEST PUSH2 0x5A2 DUP5 DUP3 DUP6 ADD PUSH2 0x4C8 JUMP JUMPDEST SWAP2 POP POP SWAP3 SWAP2 POP POP JUMP JUMPDEST PUSH1 0x0 DUP1 PUSH1 0x40 DUP4 DUP6 SUB SLT ISZERO PUSH2 0x5C2 JUMPI PUSH2 0x5C1 PUSH2 0x87C JUMP JUMPDEST JUMPDEST PUSH1 0x0 PUSH2 0x5D0 DUP6 DUP3 DUP7 ADD PUSH2 0x4F6 JUMP JUMPDEST SWAP3 POP POP PUSH1 0x20 PUSH2 0x5E1 DUP6 DUP3 DUP7 ADD PUSH2 0x50B JUMP JUMPDEST SWAP2 POP POP SWAP3 POP SWAP3 SWAP1 POP JUMP JUMPDEST PUSH1 0x0 PUSH2 0x5F7 DUP4 DUP4 PUSH2 0x603 JUMP JUMPDEST PUSH1 0x20 DUP4 ADD SWAP1 POP SWAP3 SWAP2 POP POP JUMP JUMPDEST PUSH2 0x60C DUP2 PUSH2 0x77E JUMP JUMPDEST DUP3 MSTORE POP POP JUMP JUMPDEST PUSH2 0x61B DUP2 PUSH2 0x77E JUMP JUMPDEST DUP3 MSTORE POP POP JUMP JUMPDEST PUSH1 0x0 PUSH2 0x62C DUP3 PUSH2 0x755 JUMP JUMPDEST PUSH2 0x636 DUP2 DUP6 PUSH2 0x76D JUMP JUMPDEST SWAP4 POP PUSH2 0x641 DUP4 PUSH2 0x745 JUMP JUMPDEST DUP1 PUSH1 0x0 JUMPDEST DUP4 DUP2 LT ISZERO PUSH2 0x672 JUMPI DUP2 MLOAD PUSH2 0x659 DUP9 DUP3 PUSH2 0x5EB JUMP JUMPDEST SWAP8 POP PUSH2 0x664 DUP4 PUSH2 0x760 JUMP JUMPDEST SWAP3 POP POP PUSH1 0x1 DUP2 ADD SWAP1 POP PUSH2 0x645 JUMP JUMPDEST POP DUP6 SWAP4 POP POP POP POP SWAP3 SWAP2 POP POP JUMP JUMPDEST PUSH2 0x688 DUP2 PUSH2 0x7D4 JUMP JUMPDEST DUP3 MSTORE POP POP JUMP JUMPDEST PUSH1 0x0 PUSH1 0x20 DUP3 ADD SWAP1 POP PUSH2 0x6A3 PUSH1 0x0 DUP4 ADD DUP5 PUSH2 0x612 JUMP JUMPDEST SWAP3 SWAP2 POP POP JUMP JUMPDEST PUSH1 0x0 PUSH1 0x20 DUP3 ADD SWAP1 POP PUSH2 0x6BE PUSH1 0x0 DUP4 ADD DUP5 PUSH2 0x67F JUMP JUMPDEST SWAP3 SWAP2 POP POP JUMP JUMPDEST PUSH1 0x0 PUSH1 0x40 DUP3 ADD SWAP1 POP PUSH2 0x6D9 PUSH1 0x0 DUP4 ADD DUP6 PUSH2 0x67F JUMP JUMPDEST DUP2 DUP2 SUB PUSH1 0x20 DUP4 ADD MSTORE PUSH2 0x6EB DUP2 DUP5 PUSH2 0x621 JUMP JUMPDEST SWAP1 POP SWAP4 SWAP3 POP POP POP JUMP JUMPDEST PUSH1 0x0 PUSH2 0x6FE PUSH2 0x70F JUMP JUMPDEST SWAP1 POP PUSH2 0x70A DUP3 DUP3 PUSH2 0x7DE JUMP JUMPDEST SWAP2 SWAP1 POP JUMP JUMPDEST PUSH1 0x0 PUSH1 0x40 MLOAD SWAP1 POP SWAP1 JUMP JUMPDEST PUSH1 0x0 PUSH8 0xFFFFFFFFFFFFFFFF DUP3 GT ISZERO PUSH2 0x734 JUMPI PUSH2 0x733 PUSH2 0x83E JUMP JUMPDEST JUMPDEST PUSH1 0x20 DUP3 MUL SWAP1 POP PUSH1 0x20 DUP2 ADD SWAP1 POP SWAP2 SWAP1 POP JUMP JUMPDEST PUSH1 0x0 DUP2 SWAP1 POP PUSH1 0x20 DUP3 ADD SWAP1 POP SWAP2 SWAP1 POP JUMP JUMPDEST PUSH1 0x0 DUP2 MLOAD SWAP1 POP SWAP2 SWAP1 POP JUMP JUMPDEST PUSH1 0x0 PUSH1 0x20 DUP3 ADD SWAP1 POP SWAP2 SWAP1 POP JUMP JUMPDEST PUSH1 0x0 DUP3 DUP3 MSTORE PUSH1 0x20 DUP3 ADD SWAP1 POP SWAP3 SWAP2 POP POP JUMP JUMPDEST PUSH1 0x0 PUSH2 0x789 DUP3 PUSH2 0x7B4 JUMP JUMPDEST SWAP1 POP SWAP2 SWAP1 POP JUMP JUMPDEST PUSH1 0x0 PUSH2 0x79B DUP3 PUSH2 0x77E JUMP JUMPDEST SWAP1 POP SWAP2 SWAP1 POP JUMP JUMPDEST PUSH1 0x0 PUSH2 0x7AD DUP3 PUSH2 0x77E JUMP JUMPDEST SWAP1 POP SWAP2 SWAP1 POP JUMP JUMPDEST PUSH1 0x0 PUSH20 0xFFFFFFFFFFFFFFFFFFFFFFFFFFFFFFFFFFFFFFFF DUP3 AND SWAP1 POP SWAP2 SWAP1 POP JUMP JUMPDEST PUSH1 0x0 DUP2 SWAP1 POP SWAP2 SWAP1 POP JUMP JUMPDEST PUSH2 0x7E7 DUP3 PUSH2 0x881 JUMP JUMPDEST DUP2 ADD DUP2 DUP2 LT PUSH8 0xFFFFFFFFFFFFFFFF DUP3 GT OR ISZERO PUSH2 0x806 JUMPI PUSH2 0x805 PUSH2 0x83E JUMP JUMPDEST JUMPDEST DUP1 PUSH1 0x40 MSTORE POP POP POP JUMP JUMPDEST PUSH32 0x4E487B7100000000000000000000000000000000000000000000000000000000 PUSH1 0x0 MSTORE PUSH1 0x32 PUSH1 0x4 MSTORE PUSH1 0x24 PUSH1 0x0 REVERT JUMPDEST PUSH32 0x4E487B7100000000000000000000000000000000000000000000000000000000 PUSH1 0x0 MSTORE PUSH1 0x41 PUSH1 0x4 MSTORE PUSH1 0x24 PUSH1 0x0 REVERT JUMPDEST PUSH1 0x0 DUP1 REVERT JUMPDEST PUSH1 0x0 DUP1 REVERT JUMPDEST PUSH1 0x0 DUP1 REVERT JUMPDEST PUSH1 0x0 DUP1 REVERT JUMPDEST PUSH1 0x0 PUSH1 0x1F NOT PUSH1 0x1F DUP4 ADD AND SWAP1 POP SWAP2 SWAP1 POP JUMP JUMPDEST PUSH2 0x89B DUP2 PUSH2 0x77E JUMP JUMPDEST DUP2 EQ PUSH2 0x8A6 JUMPI PUSH1 0x0 DUP1 REVERT JUMPDEST POP JUMP JUMPDEST PUSH2 0x8B2 DUP2 PUSH2 0x790 JUMP JUMPDEST DUP2 EQ PUSH2 0x8BD JUMPI PUSH1 0x0 DUP1 REVERT JUMPDEST POP JUMP JUMPDEST PUSH2 0x8C9 DUP2 PUSH2 0x7A2 JUMP JUMPDEST DUP2 EQ PUSH2 0x8D4 JUMPI PUSH1 0x0 DUP1 REVERT JUMPDEST POP JUMP JUMPDEST PUSH2 0x8E0 DUP2 PUSH2 0x7D4 JUMP JUMPDEST DUP2 EQ PUSH2 0x8EB JUMPI PUSH1 0x0 DUP1 REVERT JUMPDEST POP JUMP INVALID LOG2 PUSH5 0x6970667358 0x22 SLT KECCAK256 CREATE 0xC PUSH26 0x924A8DB52893DBC66728FC97CC018CB547C2AABB36556D3C8ECE PUSH18 0xD0C864736F6C634300080700330000000000 "
				},
				"gasEstimates": {
					"creation": {
						"codeDepositCost": "468000",
						"executionCost": "71145",
						"totalCost": "539145"
					},
					"external": {
						"BUSD()": "2514",
						"CalcLpPrice(address,address)": "infinite",
						"WBNB()": "2533"
					},
					"internal": {
						"price(contract Router,address)": "infinite"
					}
				},
				"methodIdentifiers": {
					"BUSD()": "484f4ea9",
					"CalcLpPrice(address,address)": "344e49d9",
					"WBNB()": "8dd95002"
				}
			},
			"storageLayout": {
				"storage": [
					{
						"astId": 332,
						"contract": "contracts/LpPrice.sol:LpUtils",
						"label": "WBNB",
						"offset": 0,
						"slot": "0",
						"type": "t_address"
					},
					{
						"astId": 335,
						"contract": "contracts/LpPrice.sol:LpUtils",
						"label": "BUSD",
						"offset": 0,
						"slot": "1",
						"type": "t_address"
					},
					{
						"astId": 338,
						"contract": "contracts/LpPrice.sol:LpUtils",
						"label": "amount",
						"offset": 0,
						"slot": "2",
						"type": "t_uint256"
					}
				],
				"types": {
					"t_address": {
						"encoding": "inplace",
						"label": "address",
						"numberOfBytes": "20"
					},
					"t_uint256": {
						"encoding": "inplace",
						"label": "uint256",
						"numberOfBytes": "32"
					}
				}
			},
			"userdoc": {
				"kind": "user",
				"methods": {},
				"version": 1
			}
		}
	}
}