{
	"contracts/LpPrice.sol": {
		"LpUtils": {
			"abi": [
				{
					"inputs": [],
					"name": "BUSD",
					"outputs": [
						{
							"internalType": "address",
							"name": "",
							"type": "address"
						}
					],
					"stateMutability": "view",
					"type": "function"
				},
				{
					"inputs": [
						{
							"internalType": "contract IERC20",
							"name": "lpAddress",
							"type": "address"
						},
						{
							"internalType": "contract Router",
							"name": "routerAddress",
							"type": "address"
						},
						{
							"internalType": "address",
							"name": "busd",
							"type": "address"
						}
					],
					"name": "CalcLpPrice",
					"outputs": [
						{
							"internalType": "uint256",
							"name": "",
							"type": "uint256"
						}
					],
					"stateMutability": "view",
					"type": "function"
				},
				{
					"inputs": [],
					"name": "WBNB",
					"outputs": [
						{
							"internalType": "address",
							"name": "",
							"type": "address"
						}
					],
					"stateMutability": "view",
					"type": "function"
				}
			],
			"devdoc": {
				"kind": "dev",
				"methods": {},
				"version": 1
			},
			"evm": {
				"assembly": "    /* \"contracts/LpPrice.sol\":8847:9348  contract LpUtils {\r... */\n  mstore(0x40, 0x80)\n    /* \"contracts/LpPrice.sol\":8893:8935  0xae13d989daC2f0dEbFf460aC112a837C89BAa7cd */\n  0xae13d989dac2f0debff460ac112a837c89baa7cd\n    /* \"contracts/LpPrice.sol\":8871:8935  address public WBNB = 0xae13d989daC2f0dEbFf460aC112a837C89BAa7cd */\n  0x00\n  dup1\n  0x0100\n  exp\n  dup2\n  sload\n  dup2\n  0xffffffffffffffffffffffffffffffffffffffff\n  mul\n  not\n  and\n  swap1\n  dup4\n  0xffffffffffffffffffffffffffffffffffffffff\n  and\n  mul\n  or\n  swap1\n  sstore\n  pop\n    /* \"contracts/LpPrice.sol\":8964:9006  0x78867BbEeF44f2326bF8DDd1941a4439382EF2A7 */\n  0x78867bbeef44f2326bf8ddd1941a4439382ef2a7\n    /* \"contracts/LpPrice.sol\":8942:9006  address public BUSD = 0x78867BbEeF44f2326bF8DDd1941a4439382EF2A7 */\n  0x01\n  exp(0x0100, 0x00)\n  dup2\n  sload\n  dup2\n  0xffffffffffffffffffffffffffffffffffffffff\n  mul\n  not\n  and\n  swap1\n  dup4\n  0xffffffffffffffffffffffffffffffffffffffff\n  and\n  mul\n  or\n  swap1\n  sstore\n  pop\n    /* \"contracts/LpPrice.sol\":9030:9049  1000000000000000000 */\n  0x0de0b6b3a7640000\n    /* \"contracts/LpPrice.sol\":9013:9049  uint256 amount = 1000000000000000000 */\n  0x02\n  sstore\n    /* \"contracts/LpPrice.sol\":8847:9348  contract LpUtils {\r... */\n  callvalue\n  dup1\n  iszero\n  tag_1\n  jumpi\n  0x00\n  dup1\n  revert\ntag_1:\n  pop\n  dataSize(sub_0)\n  dup1\n  dataOffset(sub_0)\n  0x00\n  codecopy\n  0x00\n  return\nstop\n\nsub_0: assembly {\n        /* \"contracts/LpPrice.sol\":8847:9348  contract LpUtils {\r... */\n      mstore(0x40, 0x80)\n      callvalue\n      dup1\n      iszero\n      tag_1\n      jumpi\n      0x00\n      dup1\n      revert\n    tag_1:\n      pop\n      jumpi(tag_2, lt(calldatasize, 0x04))\n      shr(0xe0, calldataload(0x00))\n      dup1\n      0x20ae0b6d\n      eq\n      tag_3\n      jumpi\n      dup1\n      0x484f4ea9\n      eq\n      tag_4\n      jumpi\n      dup1\n      0x8dd95002\n      eq\n      tag_5\n      jumpi\n    tag_2:\n      0x00\n      dup1\n      revert\n        /* \"contracts/LpPrice.sol\":9058:9345  function CalcLpPrice(IERC20 lpAddress, Router routerAddress, address busd) external view returns(uint256){\r... */\n    tag_3:\n      tag_6\n      0x04\n      dup1\n      calldatasize\n      sub\n      dup2\n      add\n      swap1\n      tag_7\n      swap2\n      swap1\n      tag_8\n      jump\t// in\n    tag_7:\n      tag_9\n      jump\t// in\n    tag_6:\n      mload(0x40)\n      tag_10\n      swap2\n      swap1\n      tag_11\n      jump\t// in\n    tag_10:\n      mload(0x40)\n      dup1\n      swap2\n      sub\n      swap1\n      return\n        /* \"contracts/LpPrice.sol\":8942:9006  address public BUSD = 0x78867BbEeF44f2326bF8DDd1941a4439382EF2A7 */\n    tag_4:\n      tag_12\n      tag_13\n      jump\t// in\n    tag_12:\n      mload(0x40)\n      tag_14\n      swap2\n      swap1\n      tag_15\n      jump\t// in\n    tag_14:\n      mload(0x40)\n      dup1\n      swap2\n      sub\n      swap1\n      return\n        /* \"contracts/LpPrice.sol\":8871:8935  address public WBNB = 0xae13d989daC2f0dEbFf460aC112a837C89BAa7cd */\n    tag_5:\n      tag_16\n      tag_17\n      jump\t// in\n    tag_16:\n      mload(0x40)\n      tag_18\n      swap2\n      swap1\n      tag_15\n      jump\t// in\n    tag_18:\n      mload(0x40)\n      dup1\n      swap2\n      sub\n      swap1\n      return\n        /* \"contracts/LpPrice.sol\":9058:9345  function CalcLpPrice(IERC20 lpAddress, Router routerAddress, address busd) external view returns(uint256){\r... */\n    tag_9:\n        /* \"contracts/LpPrice.sol\":9155:9162  uint256 */\n      0x00\n        /* \"contracts/LpPrice.sol\":9174:9193  uint256 totalSupply */\n      dup1\n        /* \"contracts/LpPrice.sol\":9196:9205  lpAddress */\n      dup5\n        /* \"contracts/LpPrice.sol\":9196:9217  lpAddress.totalSupply */\n      0xffffffffffffffffffffffffffffffffffffffff\n      and\n      0x18160ddd\n        /* \"contracts/LpPrice.sol\":9196:9219  lpAddress.totalSupply() */\n      mload(0x40)\n      dup2\n      0xffffffff\n      and\n      0xe0\n      shl\n      dup2\n      mstore\n      0x04\n      add\n      0x20\n      mload(0x40)\n      dup1\n      dup4\n      sub\n      dup2\n      dup7\n      dup1\n      extcodesize\n      iszero\n      dup1\n      iszero\n      tag_20\n      jumpi\n      0x00\n      dup1\n      revert\n    tag_20:\n      pop\n      gas\n      staticcall\n      iszero\n      dup1\n      iszero\n      tag_22\n      jumpi\n      returndatasize\n      0x00\n      dup1\n      returndatacopy\n      revert(0x00, returndatasize)\n    tag_22:\n      pop\n      pop\n      pop\n      pop\n      mload(0x40)\n      returndatasize\n      not(0x1f)\n      0x1f\n      dup3\n      add\n      and\n      dup3\n      add\n      dup1\n      0x40\n      mstore\n      pop\n      dup2\n      add\n      swap1\n      tag_23\n      swap2\n      swap1\n      tag_24\n      jump\t// in\n    tag_23:\n        /* \"contracts/LpPrice.sol\":9174:9219  uint256 totalSupply = lpAddress.totalSupply() */\n      swap1\n      pop\n        /* \"contracts/LpPrice.sol\":9232:9255  uint256[] memory price0 */\n      0x00\n        /* \"contracts/LpPrice.sol\":9258:9271  routerAddress */\n      dup5\n        /* \"contracts/LpPrice.sol\":9258:9285  routerAddress.getAmountsOut */\n      0xffffffffffffffffffffffffffffffffffffffff\n      and\n      0xbd5f68b0\n        /* \"contracts/LpPrice.sol\":9286:9292  amount */\n      sload(0x02)\n        /* \"contracts/LpPrice.sol\":9258:9306  routerAddress.getAmountsOut(amount,[busd, busd]) */\n      mload(0x40)\n      dup1\n      0x40\n      add\n      0x40\n      mstore\n      dup1\n        /* \"contracts/LpPrice.sol\":9294:9298  busd */\n      dup9\n        /* \"contracts/LpPrice.sol\":9258:9306  routerAddress.getAmountsOut(amount,[busd, busd]) */\n      0xffffffffffffffffffffffffffffffffffffffff\n      and\n      0xffffffffffffffffffffffffffffffffffffffff\n      and\n      dup2\n      mstore\n      0x20\n      add\n        /* \"contracts/LpPrice.sol\":9300:9304  busd */\n      dup9\n        /* \"contracts/LpPrice.sol\":9258:9306  routerAddress.getAmountsOut(amount,[busd, busd]) */\n      0xffffffffffffffffffffffffffffffffffffffff\n      and\n      0xffffffffffffffffffffffffffffffffffffffff\n      and\n      dup2\n      mstore\n      pop\n      mload(0x40)\n      dup4\n      0xffffffff\n      and\n      0xe0\n      shl\n      dup2\n      mstore\n      0x04\n      add\n      tag_25\n      swap3\n      swap2\n      swap1\n      tag_26\n      jump\t// in\n    tag_25:\n      0x00\n      mload(0x40)\n      dup1\n      dup4\n      sub\n      dup2\n      dup7\n      dup1\n      extcodesize\n      iszero\n      dup1\n      iszero\n      tag_27\n      jumpi\n      0x00\n      dup1\n      revert\n    tag_27:\n      pop\n      gas\n      staticcall\n      iszero\n      dup1\n      iszero\n      tag_29\n      jumpi\n      returndatasize\n      0x00\n      dup1\n      returndatacopy\n      revert(0x00, returndatasize)\n    tag_29:\n      pop\n      pop\n      pop\n      pop\n      mload(0x40)\n      returndatasize\n      0x00\n      dup3\n      returndatacopy\n      returndatasize\n      not(0x1f)\n      0x1f\n      dup3\n      add\n      and\n      dup3\n      add\n      dup1\n      0x40\n      mstore\n      pop\n      dup2\n      add\n      swap1\n      tag_30\n      swap2\n      swap1\n      tag_31\n      jump\t// in\n    tag_30:\n        /* \"contracts/LpPrice.sol\":9232:9306  uint256[] memory price0 = routerAddress.getAmountsOut(amount,[busd, busd]) */\n      swap1\n      pop\n        /* \"contracts/LpPrice.sol\":9326:9337  totalSupply */\n      dup2\n        /* \"contracts/LpPrice.sol\":9319:9337  return totalSupply */\n      swap3\n      pop\n      pop\n      pop\n        /* \"contracts/LpPrice.sol\":9058:9345  function CalcLpPrice(IERC20 lpAddress, Router routerAddress, address busd) external view returns(uint256){\r... */\n      swap4\n      swap3\n      pop\n      pop\n      pop\n      jump\t// out\n        /* \"contracts/LpPrice.sol\":8942:9006  address public BUSD = 0x78867BbEeF44f2326bF8DDd1941a4439382EF2A7 */\n    tag_13:\n      0x01\n      0x00\n      swap1\n      sload\n      swap1\n      0x0100\n      exp\n      swap1\n      div\n      0xffffffffffffffffffffffffffffffffffffffff\n      and\n      dup2\n      jump\t// out\n        /* \"contracts/LpPrice.sol\":8871:8935  address public WBNB = 0xae13d989daC2f0dEbFf460aC112a837C89BAa7cd */\n    tag_17:\n      0x00\n      dup1\n      sload\n      swap1\n      0x0100\n      exp\n      swap1\n      div\n      0xffffffffffffffffffffffffffffffffffffffff\n      and\n      dup2\n      jump\t// out\n        /* \"#utility.yul\":24:768   */\n    tag_33:\n        /* \"#utility.yul\":131:136   */\n      0x00\n        /* \"#utility.yul\":156:237   */\n      tag_35\n        /* \"#utility.yul\":172:236   */\n      tag_36\n        /* \"#utility.yul\":229:235   */\n      dup5\n        /* \"#utility.yul\":172:236   */\n      tag_37\n      jump\t// in\n    tag_36:\n        /* \"#utility.yul\":156:237   */\n      tag_38\n      jump\t// in\n    tag_35:\n        /* \"#utility.yul\":147:237   */\n      swap1\n      pop\n        /* \"#utility.yul\":257:262   */\n      dup1\n        /* \"#utility.yul\":286:292   */\n      dup4\n        /* \"#utility.yul\":279:284   */\n      dup3\n        /* \"#utility.yul\":272:293   */\n      mstore\n        /* \"#utility.yul\":320:324   */\n      0x20\n        /* \"#utility.yul\":313:318   */\n      dup3\n        /* \"#utility.yul\":309:325   */\n      add\n        /* \"#utility.yul\":302:325   */\n      swap1\n      pop\n        /* \"#utility.yul\":346:352   */\n      dup3\n        /* \"#utility.yul\":396:399   */\n      dup6\n        /* \"#utility.yul\":388:392   */\n      0x20\n        /* \"#utility.yul\":380:386   */\n      dup7\n        /* \"#utility.yul\":376:393   */\n      mul\n        /* \"#utility.yul\":371:374   */\n      dup3\n        /* \"#utility.yul\":367:394   */\n      add\n        /* \"#utility.yul\":364:400   */\n      gt\n        /* \"#utility.yul\":361:504   */\n      iszero\n      tag_39\n      jumpi\n        /* \"#utility.yul\":415:494   */\n      tag_40\n      tag_41\n      jump\t// in\n    tag_40:\n        /* \"#utility.yul\":361:504   */\n    tag_39:\n        /* \"#utility.yul\":528:529   */\n      0x00\n        /* \"#utility.yul\":513:762   */\n    tag_42:\n        /* \"#utility.yul\":538:544   */\n      dup6\n        /* \"#utility.yul\":535:536   */\n      dup2\n        /* \"#utility.yul\":532:545   */\n      lt\n        /* \"#utility.yul\":513:762   */\n      iszero\n      tag_44\n      jumpi\n        /* \"#utility.yul\":606:609   */\n      dup2\n        /* \"#utility.yul\":635:683   */\n      tag_45\n        /* \"#utility.yul\":679:682   */\n      dup9\n        /* \"#utility.yul\":667:677   */\n      dup3\n        /* \"#utility.yul\":635:683   */\n      tag_46\n      jump\t// in\n    tag_45:\n        /* \"#utility.yul\":630:633   */\n      dup5\n        /* \"#utility.yul\":623:684   */\n      mstore\n        /* \"#utility.yul\":713:717   */\n      0x20\n        /* \"#utility.yul\":708:711   */\n      dup5\n        /* \"#utility.yul\":704:718   */\n      add\n        /* \"#utility.yul\":697:718   */\n      swap4\n      pop\n        /* \"#utility.yul\":747:751   */\n      0x20\n        /* \"#utility.yul\":742:745   */\n      dup4\n        /* \"#utility.yul\":738:752   */\n      add\n        /* \"#utility.yul\":731:752   */\n      swap3\n      pop\n        /* \"#utility.yul\":573:762   */\n      pop\n        /* \"#utility.yul\":560:561   */\n      0x01\n        /* \"#utility.yul\":557:558   */\n      dup2\n        /* \"#utility.yul\":553:562   */\n      add\n        /* \"#utility.yul\":548:562   */\n      swap1\n      pop\n        /* \"#utility.yul\":513:762   */\n      jump(tag_42)\n    tag_44:\n        /* \"#utility.yul\":517:531   */\n      pop\n        /* \"#utility.yul\":137:768   */\n      pop\n      pop\n        /* \"#utility.yul\":24:768   */\n      swap4\n      swap3\n      pop\n      pop\n      pop\n      jump\t// out\n        /* \"#utility.yul\":774:913   */\n    tag_47:\n        /* \"#utility.yul\":820:825   */\n      0x00\n        /* \"#utility.yul\":858:864   */\n      dup2\n        /* \"#utility.yul\":845:865   */\n      calldataload\n        /* \"#utility.yul\":836:865   */\n      swap1\n      pop\n        /* \"#utility.yul\":874:907   */\n      tag_49\n        /* \"#utility.yul\":901:906   */\n      dup2\n        /* \"#utility.yul\":874:907   */\n      tag_50\n      jump\t// in\n    tag_49:\n        /* \"#utility.yul\":774:913   */\n      swap3\n      swap2\n      pop\n      pop\n      jump\t// out\n        /* \"#utility.yul\":936:1321   */\n    tag_51:\n        /* \"#utility.yul\":1018:1023   */\n      0x00\n        /* \"#utility.yul\":1067:1070   */\n      dup3\n        /* \"#utility.yul\":1060:1064   */\n      0x1f\n        /* \"#utility.yul\":1052:1058   */\n      dup4\n        /* \"#utility.yul\":1048:1065   */\n      add\n        /* \"#utility.yul\":1044:1071   */\n      slt\n        /* \"#utility.yul\":1034:1156   */\n      tag_53\n      jumpi\n        /* \"#utility.yul\":1075:1154   */\n      tag_54\n      tag_55\n      jump\t// in\n    tag_54:\n        /* \"#utility.yul\":1034:1156   */\n    tag_53:\n        /* \"#utility.yul\":1185:1191   */\n      dup2\n        /* \"#utility.yul\":1179:1192   */\n      mload\n        /* \"#utility.yul\":1210:1315   */\n      tag_56\n        /* \"#utility.yul\":1311:1314   */\n      dup5\n        /* \"#utility.yul\":1303:1309   */\n      dup3\n        /* \"#utility.yul\":1296:1300   */\n      0x20\n        /* \"#utility.yul\":1288:1294   */\n      dup7\n        /* \"#utility.yul\":1284:1301   */\n      add\n        /* \"#utility.yul\":1210:1315   */\n      tag_33\n      jump\t// in\n    tag_56:\n        /* \"#utility.yul\":1201:1315   */\n      swap2\n      pop\n        /* \"#utility.yul\":1024:1321   */\n      pop\n        /* \"#utility.yul\":936:1321   */\n      swap3\n      swap2\n      pop\n      pop\n      jump\t// out\n        /* \"#utility.yul\":1327:1492   */\n    tag_57:\n        /* \"#utility.yul\":1386:1391   */\n      0x00\n        /* \"#utility.yul\":1424:1430   */\n      dup2\n        /* \"#utility.yul\":1411:1431   */\n      calldataload\n        /* \"#utility.yul\":1402:1431   */\n      swap1\n      pop\n        /* \"#utility.yul\":1440:1486   */\n      tag_59\n        /* \"#utility.yul\":1480:1485   */\n      dup2\n        /* \"#utility.yul\":1440:1486   */\n      tag_60\n      jump\t// in\n    tag_59:\n        /* \"#utility.yul\":1327:1492   */\n      swap3\n      swap2\n      pop\n      pop\n      jump\t// out\n        /* \"#utility.yul\":1498:1665   */\n    tag_61:\n        /* \"#utility.yul\":1558:1563   */\n      0x00\n        /* \"#utility.yul\":1596:1602   */\n      dup2\n        /* \"#utility.yul\":1583:1603   */\n      calldataload\n        /* \"#utility.yul\":1574:1603   */\n      swap1\n      pop\n        /* \"#utility.yul\":1612:1659   */\n      tag_63\n        /* \"#utility.yul\":1653:1658   */\n      dup2\n        /* \"#utility.yul\":1612:1659   */\n      tag_64\n      jump\t// in\n    tag_63:\n        /* \"#utility.yul\":1498:1665   */\n      swap3\n      swap2\n      pop\n      pop\n      jump\t// out\n        /* \"#utility.yul\":1671:1814   */\n    tag_46:\n        /* \"#utility.yul\":1728:1733   */\n      0x00\n        /* \"#utility.yul\":1759:1765   */\n      dup2\n        /* \"#utility.yul\":1753:1766   */\n      mload\n        /* \"#utility.yul\":1744:1766   */\n      swap1\n      pop\n        /* \"#utility.yul\":1775:1808   */\n      tag_66\n        /* \"#utility.yul\":1802:1807   */\n      dup2\n        /* \"#utility.yul\":1775:1808   */\n      tag_67\n      jump\t// in\n    tag_66:\n        /* \"#utility.yul\":1671:1814   */\n      swap3\n      swap2\n      pop\n      pop\n      jump\t// out\n        /* \"#utility.yul\":1820:2374   */\n    tag_31:\n        /* \"#utility.yul\":1915:1921   */\n      0x00\n        /* \"#utility.yul\":1964:1966   */\n      0x20\n        /* \"#utility.yul\":1952:1961   */\n      dup3\n        /* \"#utility.yul\":1943:1950   */\n      dup5\n        /* \"#utility.yul\":1939:1962   */\n      sub\n        /* \"#utility.yul\":1935:1967   */\n      slt\n        /* \"#utility.yul\":1932:2051   */\n      iszero\n      tag_69\n      jumpi\n        /* \"#utility.yul\":1970:2049   */\n      tag_70\n      tag_71\n      jump\t// in\n    tag_70:\n        /* \"#utility.yul\":1932:2051   */\n    tag_69:\n        /* \"#utility.yul\":2111:2112   */\n      0x00\n        /* \"#utility.yul\":2100:2109   */\n      dup3\n        /* \"#utility.yul\":2096:2113   */\n      add\n        /* \"#utility.yul\":2090:2114   */\n      mload\n        /* \"#utility.yul\":2141:2159   */\n      0xffffffffffffffff\n        /* \"#utility.yul\":2133:2139   */\n      dup2\n        /* \"#utility.yul\":2130:2160   */\n      gt\n        /* \"#utility.yul\":2127:2244   */\n      iszero\n      tag_72\n      jumpi\n        /* \"#utility.yul\":2163:2242   */\n      tag_73\n      tag_74\n      jump\t// in\n    tag_73:\n        /* \"#utility.yul\":2127:2244   */\n    tag_72:\n        /* \"#utility.yul\":2268:2357   */\n      tag_75\n        /* \"#utility.yul\":2349:2356   */\n      dup5\n        /* \"#utility.yul\":2340:2346   */\n      dup3\n        /* \"#utility.yul\":2329:2338   */\n      dup6\n        /* \"#utility.yul\":2325:2347   */\n      add\n        /* \"#utility.yul\":2268:2357   */\n      tag_51\n      jump\t// in\n    tag_75:\n        /* \"#utility.yul\":2258:2357   */\n      swap2\n      pop\n        /* \"#utility.yul\":2061:2367   */\n      pop\n        /* \"#utility.yul\":1820:2374   */\n      swap3\n      swap2\n      pop\n      pop\n      jump\t// out\n        /* \"#utility.yul\":2380:3053   */\n    tag_8:\n        /* \"#utility.yul\":2484:2490   */\n      0x00\n        /* \"#utility.yul\":2492:2498   */\n      dup1\n        /* \"#utility.yul\":2500:2506   */\n      0x00\n        /* \"#utility.yul\":2549:2551   */\n      0x60\n        /* \"#utility.yul\":2537:2546   */\n      dup5\n        /* \"#utility.yul\":2528:2535   */\n      dup7\n        /* \"#utility.yul\":2524:2547   */\n      sub\n        /* \"#utility.yul\":2520:2552   */\n      slt\n        /* \"#utility.yul\":2517:2636   */\n      iszero\n      tag_77\n      jumpi\n        /* \"#utility.yul\":2555:2634   */\n      tag_78\n      tag_71\n      jump\t// in\n    tag_78:\n        /* \"#utility.yul\":2517:2636   */\n    tag_77:\n        /* \"#utility.yul\":2675:2676   */\n      0x00\n        /* \"#utility.yul\":2700:2766   */\n      tag_79\n        /* \"#utility.yul\":2758:2765   */\n      dup7\n        /* \"#utility.yul\":2749:2755   */\n      dup3\n        /* \"#utility.yul\":2738:2747   */\n      dup8\n        /* \"#utility.yul\":2734:2756   */\n      add\n        /* \"#utility.yul\":2700:2766   */\n      tag_57\n      jump\t// in\n    tag_79:\n        /* \"#utility.yul\":2690:2766   */\n      swap4\n      pop\n        /* \"#utility.yul\":2646:2776   */\n      pop\n        /* \"#utility.yul\":2815:2817   */\n      0x20\n        /* \"#utility.yul\":2841:2908   */\n      tag_80\n        /* \"#utility.yul\":2900:2907   */\n      dup7\n        /* \"#utility.yul\":2891:2897   */\n      dup3\n        /* \"#utility.yul\":2880:2889   */\n      dup8\n        /* \"#utility.yul\":2876:2898   */\n      add\n        /* \"#utility.yul\":2841:2908   */\n      tag_61\n      jump\t// in\n    tag_80:\n        /* \"#utility.yul\":2831:2908   */\n      swap3\n      pop\n        /* \"#utility.yul\":2786:2918   */\n      pop\n        /* \"#utility.yul\":2957:2959   */\n      0x40\n        /* \"#utility.yul\":2983:3036   */\n      tag_81\n        /* \"#utility.yul\":3028:3035   */\n      dup7\n        /* \"#utility.yul\":3019:3025   */\n      dup3\n        /* \"#utility.yul\":3008:3017   */\n      dup8\n        /* \"#utility.yul\":3004:3026   */\n      add\n        /* \"#utility.yul\":2983:3036   */\n      tag_47\n      jump\t// in\n    tag_81:\n        /* \"#utility.yul\":2973:3036   */\n      swap2\n      pop\n        /* \"#utility.yul\":2928:3046   */\n      pop\n        /* \"#utility.yul\":2380:3053   */\n      swap3\n      pop\n      swap3\n      pop\n      swap3\n      jump\t// out\n        /* \"#utility.yul\":3059:3410   */\n    tag_24:\n        /* \"#utility.yul\":3129:3135   */\n      0x00\n        /* \"#utility.yul\":3178:3180   */\n      0x20\n        /* \"#utility.yul\":3166:3175   */\n      dup3\n        /* \"#utility.yul\":3157:3164   */\n      dup5\n        /* \"#utility.yul\":3153:3176   */\n      sub\n        /* \"#utility.yul\":3149:3181   */\n      slt\n        /* \"#utility.yul\":3146:3265   */\n      iszero\n      tag_83\n      jumpi\n        /* \"#utility.yul\":3184:3263   */\n      tag_84\n      tag_71\n      jump\t// in\n    tag_84:\n        /* \"#utility.yul\":3146:3265   */\n    tag_83:\n        /* \"#utility.yul\":3304:3305   */\n      0x00\n        /* \"#utility.yul\":3329:3393   */\n      tag_85\n        /* \"#utility.yul\":3385:3392   */\n      dup5\n        /* \"#utility.yul\":3376:3382   */\n      dup3\n        /* \"#utility.yul\":3365:3374   */\n      dup6\n        /* \"#utility.yul\":3361:3383   */\n      add\n        /* \"#utility.yul\":3329:3393   */\n      tag_46\n      jump\t// in\n    tag_85:\n        /* \"#utility.yul\":3319:3393   */\n      swap2\n      pop\n        /* \"#utility.yul\":3275:3403   */\n      pop\n        /* \"#utility.yul\":3059:3410   */\n      swap3\n      swap2\n      pop\n      pop\n      jump\t// out\n        /* \"#utility.yul\":3416:3595   */\n    tag_86:\n        /* \"#utility.yul\":3485:3495   */\n      0x00\n        /* \"#utility.yul\":3506:3552   */\n      tag_88\n        /* \"#utility.yul\":3548:3551   */\n      dup4\n        /* \"#utility.yul\":3540:3546   */\n      dup4\n        /* \"#utility.yul\":3506:3552   */\n      tag_89\n      jump\t// in\n    tag_88:\n        /* \"#utility.yul\":3584:3588   */\n      0x20\n        /* \"#utility.yul\":3579:3582   */\n      dup4\n        /* \"#utility.yul\":3575:3589   */\n      add\n        /* \"#utility.yul\":3561:3589   */\n      swap1\n      pop\n        /* \"#utility.yul\":3416:3595   */\n      swap3\n      swap2\n      pop\n      pop\n      jump\t// out\n        /* \"#utility.yul\":3601:3709   */\n    tag_89:\n        /* \"#utility.yul\":3678:3702   */\n      tag_91\n        /* \"#utility.yul\":3696:3701   */\n      dup2\n        /* \"#utility.yul\":3678:3702   */\n      tag_92\n      jump\t// in\n    tag_91:\n        /* \"#utility.yul\":3673:3676   */\n      dup3\n        /* \"#utility.yul\":3666:3703   */\n      mstore\n        /* \"#utility.yul\":3601:3709   */\n      pop\n      pop\n      jump\t// out\n        /* \"#utility.yul\":3715:3833   */\n    tag_93:\n        /* \"#utility.yul\":3802:3826   */\n      tag_95\n        /* \"#utility.yul\":3820:3825   */\n      dup2\n        /* \"#utility.yul\":3802:3826   */\n      tag_92\n      jump\t// in\n    tag_95:\n        /* \"#utility.yul\":3797:3800   */\n      dup3\n        /* \"#utility.yul\":3790:3827   */\n      mstore\n        /* \"#utility.yul\":3715:3833   */\n      pop\n      pop\n      jump\t// out\n        /* \"#utility.yul\":3871:4565   */\n    tag_96:\n        /* \"#utility.yul\":4007:4059   */\n      tag_98\n        /* \"#utility.yul\":4053:4058   */\n      dup2\n        /* \"#utility.yul\":4007:4059   */\n      tag_99\n      jump\t// in\n    tag_98:\n        /* \"#utility.yul\":4075:4159   */\n      tag_100\n        /* \"#utility.yul\":4152:4158   */\n      dup2\n        /* \"#utility.yul\":4147:4150   */\n      dup5\n        /* \"#utility.yul\":4075:4159   */\n      tag_101\n      jump\t// in\n    tag_100:\n        /* \"#utility.yul\":4068:4159   */\n      swap3\n      pop\n        /* \"#utility.yul\":4183:4237   */\n      tag_102\n        /* \"#utility.yul\":4231:4236   */\n      dup3\n        /* \"#utility.yul\":4183:4237   */\n      tag_103\n      jump\t// in\n    tag_102:\n        /* \"#utility.yul\":4260:4267   */\n      dup1\n        /* \"#utility.yul\":4291:4292   */\n      0x00\n        /* \"#utility.yul\":4276:4558   */\n    tag_104:\n        /* \"#utility.yul\":4301:4307   */\n      dup4\n        /* \"#utility.yul\":4298:4299   */\n      dup2\n        /* \"#utility.yul\":4295:4308   */\n      lt\n        /* \"#utility.yul\":4276:4558   */\n      iszero\n      tag_106\n      jumpi\n        /* \"#utility.yul\":4377:4383   */\n      dup2\n        /* \"#utility.yul\":4371:4384   */\n      mload\n        /* \"#utility.yul\":4404:4467   */\n      tag_107\n        /* \"#utility.yul\":4463:4466   */\n      dup8\n        /* \"#utility.yul\":4448:4461   */\n      dup3\n        /* \"#utility.yul\":4404:4467   */\n      tag_86\n      jump\t// in\n    tag_107:\n        /* \"#utility.yul\":4397:4467   */\n      swap7\n      pop\n        /* \"#utility.yul\":4490:4548   */\n      tag_108\n        /* \"#utility.yul\":4541:4547   */\n      dup4\n        /* \"#utility.yul\":4490:4548   */\n      tag_109\n      jump\t// in\n    tag_108:\n        /* \"#utility.yul\":4480:4548   */\n      swap3\n      pop\n        /* \"#utility.yul\":4336:4558   */\n      pop\n        /* \"#utility.yul\":4323:4324   */\n      0x01\n        /* \"#utility.yul\":4320:4321   */\n      dup2\n        /* \"#utility.yul\":4316:4325   */\n      add\n        /* \"#utility.yul\":4311:4325   */\n      swap1\n      pop\n        /* \"#utility.yul\":4276:4558   */\n      jump(tag_104)\n    tag_106:\n        /* \"#utility.yul\":4280:4294   */\n      pop\n        /* \"#utility.yul\":3983:4565   */\n      pop\n      pop\n      pop\n        /* \"#utility.yul\":3871:4565   */\n      pop\n      pop\n      jump\t// out\n        /* \"#utility.yul\":4571:4689   */\n    tag_110:\n        /* \"#utility.yul\":4658:4682   */\n      tag_112\n        /* \"#utility.yul\":4676:4681   */\n      dup2\n        /* \"#utility.yul\":4658:4682   */\n      tag_113\n      jump\t// in\n    tag_112:\n        /* \"#utility.yul\":4653:4656   */\n      dup3\n        /* \"#utility.yul\":4646:4683   */\n      mstore\n        /* \"#utility.yul\":4571:4689   */\n      pop\n      pop\n      jump\t// out\n        /* \"#utility.yul\":4695:4917   */\n    tag_15:\n        /* \"#utility.yul\":4788:4792   */\n      0x00\n        /* \"#utility.yul\":4826:4828   */\n      0x20\n        /* \"#utility.yul\":4815:4824   */\n      dup3\n        /* \"#utility.yul\":4811:4829   */\n      add\n        /* \"#utility.yul\":4803:4829   */\n      swap1\n      pop\n        /* \"#utility.yul\":4839:4910   */\n      tag_115\n        /* \"#utility.yul\":4907:4908   */\n      0x00\n        /* \"#utility.yul\":4896:4905   */\n      dup4\n        /* \"#utility.yul\":4892:4909   */\n      add\n        /* \"#utility.yul\":4883:4889   */\n      dup5\n        /* \"#utility.yul\":4839:4910   */\n      tag_93\n      jump\t// in\n    tag_115:\n        /* \"#utility.yul\":4695:4917   */\n      swap3\n      swap2\n      pop\n      pop\n      jump\t// out\n        /* \"#utility.yul\":4923:5145   */\n    tag_11:\n        /* \"#utility.yul\":5016:5020   */\n      0x00\n        /* \"#utility.yul\":5054:5056   */\n      0x20\n        /* \"#utility.yul\":5043:5052   */\n      dup3\n        /* \"#utility.yul\":5039:5057   */\n      add\n        /* \"#utility.yul\":5031:5057   */\n      swap1\n      pop\n        /* \"#utility.yul\":5067:5138   */\n      tag_117\n        /* \"#utility.yul\":5135:5136   */\n      0x00\n        /* \"#utility.yul\":5124:5133   */\n      dup4\n        /* \"#utility.yul\":5120:5137   */\n      add\n        /* \"#utility.yul\":5111:5117   */\n      dup5\n        /* \"#utility.yul\":5067:5138   */\n      tag_110\n      jump\t// in\n    tag_117:\n        /* \"#utility.yul\":4923:5145   */\n      swap3\n      swap2\n      pop\n      pop\n      jump\t// out\n        /* \"#utility.yul\":5151:5575   */\n    tag_26:\n        /* \"#utility.yul\":5318:5322   */\n      0x00\n        /* \"#utility.yul\":5356:5358   */\n      0x60\n        /* \"#utility.yul\":5345:5354   */\n      dup3\n        /* \"#utility.yul\":5341:5359   */\n      add\n        /* \"#utility.yul\":5333:5359   */\n      swap1\n      pop\n        /* \"#utility.yul\":5369:5440   */\n      tag_119\n        /* \"#utility.yul\":5437:5438   */\n      0x00\n        /* \"#utility.yul\":5426:5435   */\n      dup4\n        /* \"#utility.yul\":5422:5439   */\n      add\n        /* \"#utility.yul\":5413:5419   */\n      dup6\n        /* \"#utility.yul\":5369:5440   */\n      tag_110\n      jump\t// in\n    tag_119:\n        /* \"#utility.yul\":5450:5568   */\n      tag_120\n        /* \"#utility.yul\":5564:5566   */\n      0x20\n        /* \"#utility.yul\":5553:5562   */\n      dup4\n        /* \"#utility.yul\":5549:5567   */\n      add\n        /* \"#utility.yul\":5540:5546   */\n      dup5\n        /* \"#utility.yul\":5450:5568   */\n      tag_96\n      jump\t// in\n    tag_120:\n        /* \"#utility.yul\":5151:5575   */\n      swap4\n      swap3\n      pop\n      pop\n      pop\n      jump\t// out\n        /* \"#utility.yul\":5581:5710   */\n    tag_38:\n        /* \"#utility.yul\":5615:5621   */\n      0x00\n        /* \"#utility.yul\":5642:5662   */\n      tag_122\n      tag_123\n      jump\t// in\n    tag_122:\n        /* \"#utility.yul\":5632:5662   */\n      swap1\n      pop\n        /* \"#utility.yul\":5671:5704   */\n      tag_124\n        /* \"#utility.yul\":5699:5703   */\n      dup3\n        /* \"#utility.yul\":5691:5697   */\n      dup3\n        /* \"#utility.yul\":5671:5704   */\n      tag_125\n      jump\t// in\n    tag_124:\n        /* \"#utility.yul\":5581:5710   */\n      swap2\n      swap1\n      pop\n      jump\t// out\n        /* \"#utility.yul\":5716:5791   */\n    tag_123:\n        /* \"#utility.yul\":5749:5755   */\n      0x00\n        /* \"#utility.yul\":5782:5784   */\n      0x40\n        /* \"#utility.yul\":5776:5785   */\n      mload\n        /* \"#utility.yul\":5766:5785   */\n      swap1\n      pop\n        /* \"#utility.yul\":5716:5791   */\n      swap1\n      jump\t// out\n        /* \"#utility.yul\":5797:6108   */\n    tag_37:\n        /* \"#utility.yul\":5874:5878   */\n      0x00\n        /* \"#utility.yul\":5964:5982   */\n      0xffffffffffffffff\n        /* \"#utility.yul\":5956:5962   */\n      dup3\n        /* \"#utility.yul\":5953:5983   */\n      gt\n        /* \"#utility.yul\":5950:6006   */\n      iszero\n      tag_128\n      jumpi\n        /* \"#utility.yul\":5986:6004   */\n      tag_129\n      tag_130\n      jump\t// in\n    tag_129:\n        /* \"#utility.yul\":5950:6006   */\n    tag_128:\n        /* \"#utility.yul\":6036:6040   */\n      0x20\n        /* \"#utility.yul\":6028:6034   */\n      dup3\n        /* \"#utility.yul\":6024:6041   */\n      mul\n        /* \"#utility.yul\":6016:6041   */\n      swap1\n      pop\n        /* \"#utility.yul\":6096:6100   */\n      0x20\n        /* \"#utility.yul\":6090:6094   */\n      dup2\n        /* \"#utility.yul\":6086:6101   */\n      add\n        /* \"#utility.yul\":6078:6101   */\n      swap1\n      pop\n        /* \"#utility.yul\":5797:6108   */\n      swap2\n      swap1\n      pop\n      jump\t// out\n        /* \"#utility.yul\":6114:6212   */\n    tag_103:\n        /* \"#utility.yul\":6179:6183   */\n      0x00\n        /* \"#utility.yul\":6202:6205   */\n      dup2\n        /* \"#utility.yul\":6194:6205   */\n      swap1\n      pop\n        /* \"#utility.yul\":6114:6212   */\n      swap2\n      swap1\n      pop\n      jump\t// out\n        /* \"#utility.yul\":6218:6322   */\n    tag_99:\n        /* \"#utility.yul\":6283:6289   */\n      0x00\n        /* \"#utility.yul\":6311:6315   */\n      0x02\n        /* \"#utility.yul\":6301:6315   */\n      swap1\n      pop\n        /* \"#utility.yul\":6218:6322   */\n      swap2\n      swap1\n      pop\n      jump\t// out\n        /* \"#utility.yul\":6328:6439   */\n    tag_109:\n        /* \"#utility.yul\":6396:6400   */\n      0x00\n        /* \"#utility.yul\":6428:6432   */\n      0x20\n        /* \"#utility.yul\":6423:6426   */\n      dup3\n        /* \"#utility.yul\":6419:6433   */\n      add\n        /* \"#utility.yul\":6411:6433   */\n      swap1\n      pop\n        /* \"#utility.yul\":6328:6439   */\n      swap2\n      swap1\n      pop\n      jump\t// out\n        /* \"#utility.yul\":6445:6588   */\n    tag_101:\n        /* \"#utility.yul\":6542:6553   */\n      0x00\n        /* \"#utility.yul\":6579:6582   */\n      dup2\n        /* \"#utility.yul\":6564:6582   */\n      swap1\n      pop\n        /* \"#utility.yul\":6445:6588   */\n      swap3\n      swap2\n      pop\n      pop\n      jump\t// out\n        /* \"#utility.yul\":6594:6690   */\n    tag_92:\n        /* \"#utility.yul\":6631:6638   */\n      0x00\n        /* \"#utility.yul\":6660:6684   */\n      tag_136\n        /* \"#utility.yul\":6678:6683   */\n      dup3\n        /* \"#utility.yul\":6660:6684   */\n      tag_137\n      jump\t// in\n    tag_136:\n        /* \"#utility.yul\":6649:6684   */\n      swap1\n      pop\n        /* \"#utility.yul\":6594:6690   */\n      swap2\n      swap1\n      pop\n      jump\t// out\n        /* \"#utility.yul\":6696:6805   */\n    tag_138:\n        /* \"#utility.yul\":6746:6753   */\n      0x00\n        /* \"#utility.yul\":6775:6799   */\n      tag_140\n        /* \"#utility.yul\":6793:6798   */\n      dup3\n        /* \"#utility.yul\":6775:6799   */\n      tag_92\n      jump\t// in\n    tag_140:\n        /* \"#utility.yul\":6764:6799   */\n      swap1\n      pop\n        /* \"#utility.yul\":6696:6805   */\n      swap2\n      swap1\n      pop\n      jump\t// out\n        /* \"#utility.yul\":6811:6921   */\n    tag_141:\n        /* \"#utility.yul\":6862:6869   */\n      0x00\n        /* \"#utility.yul\":6891:6915   */\n      tag_143\n        /* \"#utility.yul\":6909:6914   */\n      dup3\n        /* \"#utility.yul\":6891:6915   */\n      tag_92\n      jump\t// in\n    tag_143:\n        /* \"#utility.yul\":6880:6915   */\n      swap1\n      pop\n        /* \"#utility.yul\":6811:6921   */\n      swap2\n      swap1\n      pop\n      jump\t// out\n        /* \"#utility.yul\":6927:7053   */\n    tag_137:\n        /* \"#utility.yul\":6964:6971   */\n      0x00\n        /* \"#utility.yul\":7004:7046   */\n      0xffffffffffffffffffffffffffffffffffffffff\n        /* \"#utility.yul\":6997:7002   */\n      dup3\n        /* \"#utility.yul\":6993:7047   */\n      and\n        /* \"#utility.yul\":6982:7047   */\n      swap1\n      pop\n        /* \"#utility.yul\":6927:7053   */\n      swap2\n      swap1\n      pop\n      jump\t// out\n        /* \"#utility.yul\":7059:7136   */\n    tag_113:\n        /* \"#utility.yul\":7096:7103   */\n      0x00\n        /* \"#utility.yul\":7125:7130   */\n      dup2\n        /* \"#utility.yul\":7114:7130   */\n      swap1\n      pop\n        /* \"#utility.yul\":7059:7136   */\n      swap2\n      swap1\n      pop\n      jump\t// out\n        /* \"#utility.yul\":7142:7423   */\n    tag_125:\n        /* \"#utility.yul\":7225:7252   */\n      tag_147\n        /* \"#utility.yul\":7247:7251   */\n      dup3\n        /* \"#utility.yul\":7225:7252   */\n      tag_148\n      jump\t// in\n    tag_147:\n        /* \"#utility.yul\":7217:7223   */\n      dup2\n        /* \"#utility.yul\":7213:7253   */\n      add\n        /* \"#utility.yul\":7355:7361   */\n      dup2\n        /* \"#utility.yul\":7343:7353   */\n      dup2\n        /* \"#utility.yul\":7340:7362   */\n      lt\n        /* \"#utility.yul\":7319:7337   */\n      0xffffffffffffffff\n        /* \"#utility.yul\":7307:7317   */\n      dup3\n        /* \"#utility.yul\":7304:7338   */\n      gt\n        /* \"#utility.yul\":7301:7363   */\n      or\n        /* \"#utility.yul\":7298:7386   */\n      iszero\n      tag_149\n      jumpi\n        /* \"#utility.yul\":7366:7384   */\n      tag_150\n      tag_130\n      jump\t// in\n    tag_150:\n        /* \"#utility.yul\":7298:7386   */\n    tag_149:\n        /* \"#utility.yul\":7406:7416   */\n      dup1\n        /* \"#utility.yul\":7402:7404   */\n      0x40\n        /* \"#utility.yul\":7395:7417   */\n      mstore\n        /* \"#utility.yul\":7185:7423   */\n      pop\n        /* \"#utility.yul\":7142:7423   */\n      pop\n      pop\n      jump\t// out\n        /* \"#utility.yul\":7429:7609   */\n    tag_130:\n        /* \"#utility.yul\":7477:7554   */\n      0x4e487b7100000000000000000000000000000000000000000000000000000000\n        /* \"#utility.yul\":7474:7475   */\n      0x00\n        /* \"#utility.yul\":7467:7555   */\n      mstore\n        /* \"#utility.yul\":7574:7578   */\n      0x41\n        /* \"#utility.yul\":7571:7572   */\n      0x04\n        /* \"#utility.yul\":7564:7579   */\n      mstore\n        /* \"#utility.yul\":7598:7602   */\n      0x24\n        /* \"#utility.yul\":7595:7596   */\n      0x00\n        /* \"#utility.yul\":7588:7603   */\n      revert\n        /* \"#utility.yul\":7615:7732   */\n    tag_55:\n        /* \"#utility.yul\":7724:7725   */\n      0x00\n        /* \"#utility.yul\":7721:7722   */\n      dup1\n        /* \"#utility.yul\":7714:7726   */\n      revert\n        /* \"#utility.yul\":7738:7855   */\n    tag_41:\n        /* \"#utility.yul\":7847:7848   */\n      0x00\n        /* \"#utility.yul\":7844:7845   */\n      dup1\n        /* \"#utility.yul\":7837:7849   */\n      revert\n        /* \"#utility.yul\":7861:7978   */\n    tag_74:\n        /* \"#utility.yul\":7970:7971   */\n      0x00\n        /* \"#utility.yul\":7967:7968   */\n      dup1\n        /* \"#utility.yul\":7960:7972   */\n      revert\n        /* \"#utility.yul\":7984:8101   */\n    tag_71:\n        /* \"#utility.yul\":8093:8094   */\n      0x00\n        /* \"#utility.yul\":8090:8091   */\n      dup1\n        /* \"#utility.yul\":8083:8095   */\n      revert\n        /* \"#utility.yul\":8107:8209   */\n    tag_148:\n        /* \"#utility.yul\":8148:8154   */\n      0x00\n        /* \"#utility.yul\":8199:8201   */\n      0x1f\n        /* \"#utility.yul\":8195:8202   */\n      not\n        /* \"#utility.yul\":8190:8192   */\n      0x1f\n        /* \"#utility.yul\":8183:8188   */\n      dup4\n        /* \"#utility.yul\":8179:8193   */\n      add\n        /* \"#utility.yul\":8175:8203   */\n      and\n        /* \"#utility.yul\":8165:8203   */\n      swap1\n      pop\n        /* \"#utility.yul\":8107:8209   */\n      swap2\n      swap1\n      pop\n      jump\t// out\n        /* \"#utility.yul\":8215:8337   */\n    tag_50:\n        /* \"#utility.yul\":8288:8312   */\n      tag_158\n        /* \"#utility.yul\":8306:8311   */\n      dup2\n        /* \"#utility.yul\":8288:8312   */\n      tag_92\n      jump\t// in\n    tag_158:\n        /* \"#utility.yul\":8281:8286   */\n      dup2\n        /* \"#utility.yul\":8278:8313   */\n      eq\n        /* \"#utility.yul\":8268:8331   */\n      tag_159\n      jumpi\n        /* \"#utility.yul\":8327:8328   */\n      0x00\n        /* \"#utility.yul\":8324:8325   */\n      dup1\n        /* \"#utility.yul\":8317:8329   */\n      revert\n        /* \"#utility.yul\":8268:8331   */\n    tag_159:\n        /* \"#utility.yul\":8215:8337   */\n      pop\n      jump\t// out\n        /* \"#utility.yul\":8343:8491   */\n    tag_60:\n        /* \"#utility.yul\":8429:8466   */\n      tag_161\n        /* \"#utility.yul\":8460:8465   */\n      dup2\n        /* \"#utility.yul\":8429:8466   */\n      tag_138\n      jump\t// in\n    tag_161:\n        /* \"#utility.yul\":8422:8427   */\n      dup2\n        /* \"#utility.yul\":8419:8467   */\n      eq\n        /* \"#utility.yul\":8409:8485   */\n      tag_162\n      jumpi\n        /* \"#utility.yul\":8481:8482   */\n      0x00\n        /* \"#utility.yul\":8478:8479   */\n      dup1\n        /* \"#utility.yul\":8471:8483   */\n      revert\n        /* \"#utility.yul\":8409:8485   */\n    tag_162:\n        /* \"#utility.yul\":8343:8491   */\n      pop\n      jump\t// out\n        /* \"#utility.yul\":8497:8647   */\n    tag_64:\n        /* \"#utility.yul\":8584:8622   */\n      tag_164\n        /* \"#utility.yul\":8616:8621   */\n      dup2\n        /* \"#utility.yul\":8584:8622   */\n      tag_141\n      jump\t// in\n    tag_164:\n        /* \"#utility.yul\":8577:8582   */\n      dup2\n        /* \"#utility.yul\":8574:8623   */\n      eq\n        /* \"#utility.yul\":8564:8641   */\n      tag_165\n      jumpi\n        /* \"#utility.yul\":8637:8638   */\n      0x00\n        /* \"#utility.yul\":8634:8635   */\n      dup1\n        /* \"#utility.yul\":8627:8639   */\n      revert\n        /* \"#utility.yul\":8564:8641   */\n    tag_165:\n        /* \"#utility.yul\":8497:8647   */\n      pop\n      jump\t// out\n        /* \"#utility.yul\":8653:8775   */\n    tag_67:\n        /* \"#utility.yul\":8726:8750   */\n      tag_167\n        /* \"#utility.yul\":8744:8749   */\n      dup2\n        /* \"#utility.yul\":8726:8750   */\n      tag_113\n      jump\t// in\n    tag_167:\n        /* \"#utility.yul\":8719:8724   */\n      dup2\n        /* \"#utility.yul\":8716:8751   */\n      eq\n        /* \"#utility.yul\":8706:8769   */\n      tag_168\n      jumpi\n        /* \"#utility.yul\":8765:8766   */\n      0x00\n        /* \"#utility.yul\":8762:8763   */\n      dup1\n        /* \"#utility.yul\":8755:8767   */\n      revert\n        /* \"#utility.yul\":8706:8769   */\n    tag_168:\n        /* \"#utility.yul\":8653:8775   */\n      pop\n      jump\t// out\n\n    auxdata: 0xa2646970667358221220ad277dc79b03d5e704611fe322dc59972a4f596f0e28c009823ccfb21a8e5b4664736f6c63430008070033\n}\n",
				"bytecode": {
					"linkReferences": {},
					"object": "608060405273ae13d989dac2f0debff460ac112a837c89baa7cd6000806101000a81548173ffffffffffffffffffffffffffffffffffffffff021916908373ffffffffffffffffffffffffffffffffffffffff1602179055507378867bbeef44f2326bf8ddd1941a4439382ef2a7600160006101000a81548173ffffffffffffffffffffffffffffffffffffffff021916908373ffffffffffffffffffffffffffffffffffffffff160217905550670de0b6b3a76400006002553480156100c557600080fd5b50610738806100d56000396000f3fe608060405234801561001057600080fd5b50600436106100415760003560e01c806320ae0b6d14610046578063484f4ea9146100765780638dd9500214610094575b600080fd5b610060600480360381019061005b91906103c8565b6100b2565b60405161006d91906104ff565b60405180910390f35b61007e610243565b60405161008b91906104e4565b60405180910390f35b61009c610269565b6040516100a991906104e4565b60405180910390f35b6000808473ffffffffffffffffffffffffffffffffffffffff166318160ddd6040518163ffffffff1660e01b815260040160206040518083038186803b1580156100fb57600080fd5b505afa15801561010f573d6000803e3d6000fd5b505050506040513d601f19601f82011682018060405250810190610133919061041b565b905060008473ffffffffffffffffffffffffffffffffffffffff1663bd5f68b060025460405180604001604052808873ffffffffffffffffffffffffffffffffffffffff1673ffffffffffffffffffffffffffffffffffffffff1681526020018873ffffffffffffffffffffffffffffffffffffffff1673ffffffffffffffffffffffffffffffffffffffff168152506040518363ffffffff1660e01b81526004016101e092919061051a565b60006040518083038186803b1580156101f857600080fd5b505afa15801561020c573d6000803e3d6000fd5b505050506040513d6000823e3d601f19601f82011682018060405250810190610235919061037f565b905081925050509392505050565b600160009054906101000a900473ffffffffffffffffffffffffffffffffffffffff1681565b60008054906101000a900473ffffffffffffffffffffffffffffffffffffffff1681565b60006102a061029b84610568565b610543565b905080838252602082019050828560208602820111156102c3576102c2610686565b5b60005b858110156102f357816102d9888261036a565b8452602084019350602083019250506001810190506102c6565b5050509392505050565b60008135905061030c816106a6565b92915050565b600082601f83011261032757610326610681565b5b815161033784826020860161028d565b91505092915050565b60008135905061034f816106bd565b92915050565b600081359050610364816106d4565b92915050565b600081519050610379816106eb565b92915050565b60006020828403121561039557610394610690565b5b600082015167ffffffffffffffff8111156103b3576103b261068b565b5b6103bf84828501610312565b91505092915050565b6000806000606084860312156103e1576103e0610690565b5b60006103ef86828701610340565b935050602061040086828701610355565b9250506040610411868287016102fd565b9150509250925092565b60006020828403121561043157610430610690565b5b600061043f8482850161036a565b91505092915050565b60006104548383610460565b60208301905092915050565b610469816105c1565b82525050565b610478816105c1565b82525050565b6104878161059e565b61049181846105b6565b925061049c82610594565b8060005b838110156104cd5781516104b48782610448565b96506104bf836105a9565b9250506001810190506104a0565b505050505050565b6104de81610617565b82525050565b60006020820190506104f9600083018461046f565b92915050565b600060208201905061051460008301846104d5565b92915050565b600060608201905061052f60008301856104d5565b61053c602083018461047e565b9392505050565b600061054d61055e565b90506105598282610621565b919050565b6000604051905090565b600067ffffffffffffffff82111561058357610582610652565b5b602082029050602081019050919050565b6000819050919050565b600060029050919050565b6000602082019050919050565b600081905092915050565b60006105cc826105f7565b9050919050565b60006105de826105c1565b9050919050565b60006105f0826105c1565b9050919050565b600073ffffffffffffffffffffffffffffffffffffffff82169050919050565b6000819050919050565b61062a82610695565b810181811067ffffffffffffffff8211171561064957610648610652565b5b80604052505050565b7f4e487b7100000000000000000000000000000000000000000000000000000000600052604160045260246000fd5b600080fd5b600080fd5b600080fd5b600080fd5b6000601f19601f8301169050919050565b6106af816105c1565b81146106ba57600080fd5b50565b6106c6816105d3565b81146106d157600080fd5b50565b6106dd816105e5565b81146106e857600080fd5b50565b6106f481610617565b81146106ff57600080fd5b5056fea2646970667358221220ad277dc79b03d5e704611fe322dc59972a4f596f0e28c009823ccfb21a8e5b4664736f6c63430008070033",
					"opcodes": "PUSH1 0x80 PUSH1 0x40 MSTORE PUSH20 0xAE13D989DAC2F0DEBFF460AC112A837C89BAA7CD PUSH1 0x0 DUP1 PUSH2 0x100 EXP DUP2 SLOAD DUP2 PUSH20 0xFFFFFFFFFFFFFFFFFFFFFFFFFFFFFFFFFFFFFFFF MUL NOT AND SWAP1 DUP4 PUSH20 0xFFFFFFFFFFFFFFFFFFFFFFFFFFFFFFFFFFFFFFFF AND MUL OR SWAP1 SSTORE POP PUSH20 0x78867BBEEF44F2326BF8DDD1941A4439382EF2A7 PUSH1 0x1 PUSH1 0x0 PUSH2 0x100 EXP DUP2 SLOAD DUP2 PUSH20 0xFFFFFFFFFFFFFFFFFFFFFFFFFFFFFFFFFFFFFFFF MUL NOT AND SWAP1 DUP4 PUSH20 0xFFFFFFFFFFFFFFFFFFFFFFFFFFFFFFFFFFFFFFFF AND MUL OR SWAP1 SSTORE POP PUSH8 0xDE0B6B3A7640000 PUSH1 0x2 SSTORE CALLVALUE DUP1 ISZERO PUSH2 0xC5 JUMPI PUSH1 0x0 DUP1 REVERT JUMPDEST POP PUSH2 0x738 DUP1 PUSH2 0xD5 PUSH1 0x0 CODECOPY PUSH1 0x0 RETURN INVALID PUSH1 0x80 PUSH1 0x40 MSTORE CALLVALUE DUP1 ISZERO PUSH2 0x10 JUMPI PUSH1 0x0 DUP1 REVERT JUMPDEST POP PUSH1 0x4 CALLDATASIZE LT PUSH2 0x41 JUMPI PUSH1 0x0 CALLDATALOAD PUSH1 0xE0 SHR DUP1 PUSH4 0x20AE0B6D EQ PUSH2 0x46 JUMPI DUP1 PUSH4 0x484F4EA9 EQ PUSH2 0x76 JUMPI DUP1 PUSH4 0x8DD95002 EQ PUSH2 0x94 JUMPI JUMPDEST PUSH1 0x0 DUP1 REVERT JUMPDEST PUSH2 0x60 PUSH1 0x4 DUP1 CALLDATASIZE SUB DUP2 ADD SWAP1 PUSH2 0x5B SWAP2 SWAP1 PUSH2 0x3C8 JUMP JUMPDEST PUSH2 0xB2 JUMP JUMPDEST PUSH1 0x40 MLOAD PUSH2 0x6D SWAP2 SWAP1 PUSH2 0x4FF JUMP JUMPDEST PUSH1 0x40 MLOAD DUP1 SWAP2 SUB SWAP1 RETURN JUMPDEST PUSH2 0x7E PUSH2 0x243 JUMP JUMPDEST PUSH1 0x40 MLOAD PUSH2 0x8B SWAP2 SWAP1 PUSH2 0x4E4 JUMP JUMPDEST PUSH1 0x40 MLOAD DUP1 SWAP2 SUB SWAP1 RETURN JUMPDEST PUSH2 0x9C PUSH2 0x269 JUMP JUMPDEST PUSH1 0x40 MLOAD PUSH2 0xA9 SWAP2 SWAP1 PUSH2 0x4E4 JUMP JUMPDEST PUSH1 0x40 MLOAD DUP1 SWAP2 SUB SWAP1 RETURN JUMPDEST PUSH1 0x0 DUP1 DUP5 PUSH20 0xFFFFFFFFFFFFFFFFFFFFFFFFFFFFFFFFFFFFFFFF AND PUSH4 0x18160DDD PUSH1 0x40 MLOAD DUP2 PUSH4 0xFFFFFFFF AND PUSH1 0xE0 SHL DUP2 MSTORE PUSH1 0x4 ADD PUSH1 0x20 PUSH1 0x40 MLOAD DUP1 DUP4 SUB DUP2 DUP7 DUP1 EXTCODESIZE ISZERO DUP1 ISZERO PUSH2 0xFB JUMPI PUSH1 0x0 DUP1 REVERT JUMPDEST POP GAS STATICCALL ISZERO DUP1 ISZERO PUSH2 0x10F JUMPI RETURNDATASIZE PUSH1 0x0 DUP1 RETURNDATACOPY RETURNDATASIZE PUSH1 0x0 REVERT JUMPDEST POP POP POP POP PUSH1 0x40 MLOAD RETURNDATASIZE PUSH1 0x1F NOT PUSH1 0x1F DUP3 ADD AND DUP3 ADD DUP1 PUSH1 0x40 MSTORE POP DUP2 ADD SWAP1 PUSH2 0x133 SWAP2 SWAP1 PUSH2 0x41B JUMP JUMPDEST SWAP1 POP PUSH1 0x0 DUP5 PUSH20 0xFFFFFFFFFFFFFFFFFFFFFFFFFFFFFFFFFFFFFFFF AND PUSH4 0xBD5F68B0 PUSH1 0x2 SLOAD PUSH1 0x40 MLOAD DUP1 PUSH1 0x40 ADD PUSH1 0x40 MSTORE DUP1 DUP9 PUSH20 0xFFFFFFFFFFFFFFFFFFFFFFFFFFFFFFFFFFFFFFFF AND PUSH20 0xFFFFFFFFFFFFFFFFFFFFFFFFFFFFFFFFFFFFFFFF AND DUP2 MSTORE PUSH1 0x20 ADD DUP9 PUSH20 0xFFFFFFFFFFFFFFFFFFFFFFFFFFFFFFFFFFFFFFFF AND PUSH20 0xFFFFFFFFFFFFFFFFFFFFFFFFFFFFFFFFFFFFFFFF AND DUP2 MSTORE POP PUSH1 0x40 MLOAD DUP4 PUSH4 0xFFFFFFFF AND PUSH1 0xE0 SHL DUP2 MSTORE PUSH1 0x4 ADD PUSH2 0x1E0 SWAP3 SWAP2 SWAP1 PUSH2 0x51A JUMP JUMPDEST PUSH1 0x0 PUSH1 0x40 MLOAD DUP1 DUP4 SUB DUP2 DUP7 DUP1 EXTCODESIZE ISZERO DUP1 ISZERO PUSH2 0x1F8 JUMPI PUSH1 0x0 DUP1 REVERT JUMPDEST POP GAS STATICCALL ISZERO DUP1 ISZERO PUSH2 0x20C JUMPI RETURNDATASIZE PUSH1 0x0 DUP1 RETURNDATACOPY RETURNDATASIZE PUSH1 0x0 REVERT JUMPDEST POP POP POP POP PUSH1 0x40 MLOAD RETURNDATASIZE PUSH1 0x0 DUP3 RETURNDATACOPY RETURNDATASIZE PUSH1 0x1F NOT PUSH1 0x1F DUP3 ADD AND DUP3 ADD DUP1 PUSH1 0x40 MSTORE POP DUP2 ADD SWAP1 PUSH2 0x235 SWAP2 SWAP1 PUSH2 0x37F JUMP JUMPDEST SWAP1 POP DUP2 SWAP3 POP POP POP SWAP4 SWAP3 POP POP POP JUMP JUMPDEST PUSH1 0x1 PUSH1 0x0 SWAP1 SLOAD SWAP1 PUSH2 0x100 EXP SWAP1 DIV PUSH20 0xFFFFFFFFFFFFFFFFFFFFFFFFFFFFFFFFFFFFFFFF AND DUP2 JUMP JUMPDEST PUSH1 0x0 DUP1 SLOAD SWAP1 PUSH2 0x100 EXP SWAP1 DIV PUSH20 0xFFFFFFFFFFFFFFFFFFFFFFFFFFFFFFFFFFFFFFFF AND DUP2 JUMP JUMPDEST PUSH1 0x0 PUSH2 0x2A0 PUSH2 0x29B DUP5 PUSH2 0x568 JUMP JUMPDEST PUSH2 0x543 JUMP JUMPDEST SWAP1 POP DUP1 DUP4 DUP3 MSTORE PUSH1 0x20 DUP3 ADD SWAP1 POP DUP3 DUP6 PUSH1 0x20 DUP7 MUL DUP3 ADD GT ISZERO PUSH2 0x2C3 JUMPI PUSH2 0x2C2 PUSH2 0x686 JUMP JUMPDEST JUMPDEST PUSH1 0x0 JUMPDEST DUP6 DUP2 LT ISZERO PUSH2 0x2F3 JUMPI DUP2 PUSH2 0x2D9 DUP9 DUP3 PUSH2 0x36A JUMP JUMPDEST DUP5 MSTORE PUSH1 0x20 DUP5 ADD SWAP4 POP PUSH1 0x20 DUP4 ADD SWAP3 POP POP PUSH1 0x1 DUP2 ADD SWAP1 POP PUSH2 0x2C6 JUMP JUMPDEST POP POP POP SWAP4 SWAP3 POP POP POP JUMP JUMPDEST PUSH1 0x0 DUP2 CALLDATALOAD SWAP1 POP PUSH2 0x30C DUP2 PUSH2 0x6A6 JUMP JUMPDEST SWAP3 SWAP2 POP POP JUMP JUMPDEST PUSH1 0x0 DUP3 PUSH1 0x1F DUP4 ADD SLT PUSH2 0x327 JUMPI PUSH2 0x326 PUSH2 0x681 JUMP JUMPDEST JUMPDEST DUP2 MLOAD PUSH2 0x337 DUP5 DUP3 PUSH1 0x20 DUP7 ADD PUSH2 0x28D JUMP JUMPDEST SWAP2 POP POP SWAP3 SWAP2 POP POP JUMP JUMPDEST PUSH1 0x0 DUP2 CALLDATALOAD SWAP1 POP PUSH2 0x34F DUP2 PUSH2 0x6BD JUMP JUMPDEST SWAP3 SWAP2 POP POP JUMP JUMPDEST PUSH1 0x0 DUP2 CALLDATALOAD SWAP1 POP PUSH2 0x364 DUP2 PUSH2 0x6D4 JUMP JUMPDEST SWAP3 SWAP2 POP POP JUMP JUMPDEST PUSH1 0x0 DUP2 MLOAD SWAP1 POP PUSH2 0x379 DUP2 PUSH2 0x6EB JUMP JUMPDEST SWAP3 SWAP2 POP POP JUMP JUMPDEST PUSH1 0x0 PUSH1 0x20 DUP3 DUP5 SUB SLT ISZERO PUSH2 0x395 JUMPI PUSH2 0x394 PUSH2 0x690 JUMP JUMPDEST JUMPDEST PUSH1 0x0 DUP3 ADD MLOAD PUSH8 0xFFFFFFFFFFFFFFFF DUP2 GT ISZERO PUSH2 0x3B3 JUMPI PUSH2 0x3B2 PUSH2 0x68B JUMP JUMPDEST JUMPDEST PUSH2 0x3BF DUP5 DUP3 DUP6 ADD PUSH2 0x312 JUMP JUMPDEST SWAP2 POP POP SWAP3 SWAP2 POP POP JUMP JUMPDEST PUSH1 0x0 DUP1 PUSH1 0x0 PUSH1 0x60 DUP5 DUP7 SUB SLT ISZERO PUSH2 0x3E1 JUMPI PUSH2 0x3E0 PUSH2 0x690 JUMP JUMPDEST JUMPDEST PUSH1 0x0 PUSH2 0x3EF DUP7 DUP3 DUP8 ADD PUSH2 0x340 JUMP JUMPDEST SWAP4 POP POP PUSH1 0x20 PUSH2 0x400 DUP7 DUP3 DUP8 ADD PUSH2 0x355 JUMP JUMPDEST SWAP3 POP POP PUSH1 0x40 PUSH2 0x411 DUP7 DUP3 DUP8 ADD PUSH2 0x2FD JUMP JUMPDEST SWAP2 POP POP SWAP3 POP SWAP3 POP SWAP3 JUMP JUMPDEST PUSH1 0x0 PUSH1 0x20 DUP3 DUP5 SUB SLT ISZERO PUSH2 0x431 JUMPI PUSH2 0x430 PUSH2 0x690 JUMP JUMPDEST JUMPDEST PUSH1 0x0 PUSH2 0x43F DUP5 DUP3 DUP6 ADD PUSH2 0x36A JUMP JUMPDEST SWAP2 POP POP SWAP3 SWAP2 POP POP JUMP JUMPDEST PUSH1 0x0 PUSH2 0x454 DUP4 DUP4 PUSH2 0x460 JUMP JUMPDEST PUSH1 0x20 DUP4 ADD SWAP1 POP SWAP3 SWAP2 POP POP JUMP JUMPDEST PUSH2 0x469 DUP2 PUSH2 0x5C1 JUMP JUMPDEST DUP3 MSTORE POP POP JUMP JUMPDEST PUSH2 0x478 DUP2 PUSH2 0x5C1 JUMP JUMPDEST DUP3 MSTORE POP POP JUMP JUMPDEST PUSH2 0x487 DUP2 PUSH2 0x59E JUMP JUMPDEST PUSH2 0x491 DUP2 DUP5 PUSH2 0x5B6 JUMP JUMPDEST SWAP3 POP PUSH2 0x49C DUP3 PUSH2 0x594 JUMP JUMPDEST DUP1 PUSH1 0x0 JUMPDEST DUP4 DUP2 LT ISZERO PUSH2 0x4CD JUMPI DUP2 MLOAD PUSH2 0x4B4 DUP8 DUP3 PUSH2 0x448 JUMP JUMPDEST SWAP7 POP PUSH2 0x4BF DUP4 PUSH2 0x5A9 JUMP JUMPDEST SWAP3 POP POP PUSH1 0x1 DUP2 ADD SWAP1 POP PUSH2 0x4A0 JUMP JUMPDEST POP POP POP POP POP POP JUMP JUMPDEST PUSH2 0x4DE DUP2 PUSH2 0x617 JUMP JUMPDEST DUP3 MSTORE POP POP JUMP JUMPDEST PUSH1 0x0 PUSH1 0x20 DUP3 ADD SWAP1 POP PUSH2 0x4F9 PUSH1 0x0 DUP4 ADD DUP5 PUSH2 0x46F JUMP JUMPDEST SWAP3 SWAP2 POP POP JUMP JUMPDEST PUSH1 0x0 PUSH1 0x20 DUP3 ADD SWAP1 POP PUSH2 0x514 PUSH1 0x0 DUP4 ADD DUP5 PUSH2 0x4D5 JUMP JUMPDEST SWAP3 SWAP2 POP POP JUMP JUMPDEST PUSH1 0x0 PUSH1 0x60 DUP3 ADD SWAP1 POP PUSH2 0x52F PUSH1 0x0 DUP4 ADD DUP6 PUSH2 0x4D5 JUMP JUMPDEST PUSH2 0x53C PUSH1 0x20 DUP4 ADD DUP5 PUSH2 0x47E JUMP JUMPDEST SWAP4 SWAP3 POP POP POP JUMP JUMPDEST PUSH1 0x0 PUSH2 0x54D PUSH2 0x55E JUMP JUMPDEST SWAP1 POP PUSH2 0x559 DUP3 DUP3 PUSH2 0x621 JUMP JUMPDEST SWAP2 SWAP1 POP JUMP JUMPDEST PUSH1 0x0 PUSH1 0x40 MLOAD SWAP1 POP SWAP1 JUMP JUMPDEST PUSH1 0x0 PUSH8 0xFFFFFFFFFFFFFFFF DUP3 GT ISZERO PUSH2 0x583 JUMPI PUSH2 0x582 PUSH2 0x652 JUMP JUMPDEST JUMPDEST PUSH1 0x20 DUP3 MUL SWAP1 POP PUSH1 0x20 DUP2 ADD SWAP1 POP SWAP2 SWAP1 POP JUMP JUMPDEST PUSH1 0x0 DUP2 SWAP1 POP SWAP2 SWAP1 POP JUMP JUMPDEST PUSH1 0x0 PUSH1 0x2 SWAP1 POP SWAP2 SWAP1 POP JUMP JUMPDEST PUSH1 0x0 PUSH1 0x20 DUP3 ADD SWAP1 POP SWAP2 SWAP1 POP JUMP JUMPDEST PUSH1 0x0 DUP2 SWAP1 POP SWAP3 SWAP2 POP POP JUMP JUMPDEST PUSH1 0x0 PUSH2 0x5CC DUP3 PUSH2 0x5F7 JUMP JUMPDEST SWAP1 POP SWAP2 SWAP1 POP JUMP JUMPDEST PUSH1 0x0 PUSH2 0x5DE DUP3 PUSH2 0x5C1 JUMP JUMPDEST SWAP1 POP SWAP2 SWAP1 POP JUMP JUMPDEST PUSH1 0x0 PUSH2 0x5F0 DUP3 PUSH2 0x5C1 JUMP JUMPDEST SWAP1 POP SWAP2 SWAP1 POP JUMP JUMPDEST PUSH1 0x0 PUSH20 0xFFFFFFFFFFFFFFFFFFFFFFFFFFFFFFFFFFFFFFFF DUP3 AND SWAP1 POP SWAP2 SWAP1 POP JUMP JUMPDEST PUSH1 0x0 DUP2 SWAP1 POP SWAP2 SWAP1 POP JUMP JUMPDEST PUSH2 0x62A DUP3 PUSH2 0x695 JUMP JUMPDEST DUP2 ADD DUP2 DUP2 LT PUSH8 0xFFFFFFFFFFFFFFFF DUP3 GT OR ISZERO PUSH2 0x649 JUMPI PUSH2 0x648 PUSH2 0x652 JUMP JUMPDEST JUMPDEST DUP1 PUSH1 0x40 MSTORE POP POP POP JUMP JUMPDEST PUSH32 0x4E487B7100000000000000000000000000000000000000000000000000000000 PUSH1 0x0 MSTORE PUSH1 0x41 PUSH1 0x4 MSTORE PUSH1 0x24 PUSH1 0x0 REVERT JUMPDEST PUSH1 0x0 DUP1 REVERT JUMPDEST PUSH1 0x0 DUP1 REVERT JUMPDEST PUSH1 0x0 DUP1 REVERT JUMPDEST PUSH1 0x0 DUP1 REVERT JUMPDEST PUSH1 0x0 PUSH1 0x1F NOT PUSH1 0x1F DUP4 ADD AND SWAP1 POP SWAP2 SWAP1 POP JUMP JUMPDEST PUSH2 0x6AF DUP2 PUSH2 0x5C1 JUMP JUMPDEST DUP2 EQ PUSH2 0x6BA JUMPI PUSH1 0x0 DUP1 REVERT JUMPDEST POP JUMP JUMPDEST PUSH2 0x6C6 DUP2 PUSH2 0x5D3 JUMP JUMPDEST DUP2 EQ PUSH2 0x6D1 JUMPI PUSH1 0x0 DUP1 REVERT JUMPDEST POP JUMP JUMPDEST PUSH2 0x6DD DUP2 PUSH2 0x5E5 JUMP JUMPDEST DUP2 EQ PUSH2 0x6E8 JUMPI PUSH1 0x0 DUP1 REVERT JUMPDEST POP JUMP JUMPDEST PUSH2 0x6F4 DUP2 PUSH2 0x617 JUMP JUMPDEST DUP2 EQ PUSH2 0x6FF JUMPI PUSH1 0x0 DUP1 REVERT JUMPDEST POP JUMP INVALID LOG2 PUSH5 0x6970667358 0x22 SLT KECCAK256 0xAD 0x27 PUSH30 0xC79B03D5E704611FE322DC59972A4F596F0E28C009823CCFB21A8E5B4664 PUSH20 0x6F6C634300080700330000000000000000000000 "
				},
				"gasEstimates": {
					"creation": {
						"codeDepositCost": "369600",
						"executionCost": "71045",
						"totalCost": "440645"
					},
					"external": {
						"BUSD()": "2514",
						"CalcLpPrice(address,address,address)": "infinite",
						"WBNB()": "2533"
					}
				},
				"methodIdentifiers": {
					"BUSD()": "484f4ea9",
					"CalcLpPrice(address,address,address)": "20ae0b6d",
					"WBNB()": "8dd95002"
				}
			},
			"storageLayout": {
				"storage": [
					{
						"astId": 333,
						"contract": "contracts/LpPrice.sol:LpUtils",
						"label": "WBNB",
						"offset": 0,
						"slot": "0",
						"type": "t_address"
					},
					{
						"astId": 336,
						"contract": "contracts/LpPrice.sol:LpUtils",
						"label": "BUSD",
						"offset": 0,
						"slot": "1",
						"type": "t_address"
					},
					{
						"astId": 339,
						"contract": "contracts/LpPrice.sol:LpUtils",
						"label": "amount",
						"offset": 0,
						"slot": "2",
						"type": "t_uint256"
					}
				],
				"types": {
					"t_address": {
						"encoding": "inplace",
						"label": "address",
						"numberOfBytes": "20"
					},
					"t_uint256": {
						"encoding": "inplace",
						"label": "uint256",
						"numberOfBytes": "32"
					}
				}
			},
			"userdoc": {
				"kind": "user",
				"methods": {},
				"version": 1
			}
		}
	}
}