{
	"contracts/NFTMasterChef.sol": {
		"NFTMasterChef": {
			"abi": [
				{
					"inputs": [
						{
							"internalType": "contract IERC20",
							"name": "_DDT",
							"type": "address"
						},
						{
							"internalType": "uint256",
							"name": "_PowerPerBlock",
							"type": "uint256"
						},
						{
							"internalType": "uint256",
							"name": "_startBlock",
							"type": "uint256"
						}
					],
					"stateMutability": "nonpayable",
					"type": "constructor"
				},
				{
					"anonymous": false,
					"inputs": [
						{
							"indexed": true,
							"internalType": "address",
							"name": "user",
							"type": "address"
						},
						{
							"indexed": true,
							"internalType": "uint256",
							"name": "pid",
							"type": "uint256"
						},
						{
							"indexed": false,
							"internalType": "uint256",
							"name": "amount",
							"type": "uint256"
						}
					],
					"name": "Deposit",
					"type": "event"
				},
				{
					"anonymous": false,
					"inputs": [
						{
							"indexed": true,
							"internalType": "address",
							"name": "user",
							"type": "address"
						},
						{
							"indexed": true,
							"internalType": "uint256",
							"name": "pid",
							"type": "uint256"
						},
						{
							"indexed": false,
							"internalType": "uint256",
							"name": "amount",
							"type": "uint256"
						}
					],
					"name": "EmergencyWithdraw",
					"type": "event"
				},
				{
					"anonymous": false,
					"inputs": [
						{
							"indexed": true,
							"internalType": "address",
							"name": "previousOwner",
							"type": "address"
						},
						{
							"indexed": true,
							"internalType": "address",
							"name": "newOwner",
							"type": "address"
						}
					],
					"name": "OwnershipTransferred",
					"type": "event"
				},
				{
					"anonymous": false,
					"inputs": [
						{
							"indexed": true,
							"internalType": "address",
							"name": "user",
							"type": "address"
						},
						{
							"indexed": true,
							"internalType": "uint256",
							"name": "pid",
							"type": "uint256"
						},
						{
							"indexed": false,
							"internalType": "uint256",
							"name": "amount",
							"type": "uint256"
						}
					],
					"name": "Withdraw",
					"type": "event"
				},
				{
					"inputs": [],
					"name": "BONUS_MULTIPLIER",
					"outputs": [
						{
							"internalType": "uint256",
							"name": "",
							"type": "uint256"
						}
					],
					"stateMutability": "view",
					"type": "function"
				},
				{
					"inputs": [],
					"name": "DDT",
					"outputs": [
						{
							"internalType": "contract IERC20",
							"name": "",
							"type": "address"
						}
					],
					"stateMutability": "view",
					"type": "function"
				},
				{
					"inputs": [],
					"name": "DDTMasterchefAddress",
					"outputs": [
						{
							"internalType": "address",
							"name": "",
							"type": "address"
						}
					],
					"stateMutability": "view",
					"type": "function"
				},
				{
					"inputs": [],
					"name": "NFTStakeAddress",
					"outputs": [
						{
							"internalType": "address",
							"name": "",
							"type": "address"
						}
					],
					"stateMutability": "view",
					"type": "function"
				},
				{
					"inputs": [],
					"name": "PowerPerBlock",
					"outputs": [
						{
							"internalType": "uint256",
							"name": "",
							"type": "uint256"
						}
					],
					"stateMutability": "view",
					"type": "function"
				},
				{
					"inputs": [
						{
							"internalType": "uint256",
							"name": "_allocPoint",
							"type": "uint256"
						},
						{
							"internalType": "contract IERC20",
							"name": "_lpToken",
							"type": "address"
						},
						{
							"internalType": "bool",
							"name": "_withUpdate",
							"type": "bool"
						}
					],
					"name": "add",
					"outputs": [],
					"stateMutability": "nonpayable",
					"type": "function"
				},
				{
					"inputs": [
						{
							"internalType": "contract IERC721",
							"name": "_NFT",
							"type": "address"
						},
						{
							"internalType": "uint256",
							"name": "_power",
							"type": "uint256"
						}
					],
					"name": "addNFT",
					"outputs": [],
					"stateMutability": "nonpayable",
					"type": "function"
				},
				{
					"inputs": [
						{
							"internalType": "uint256",
							"name": "level",
							"type": "uint256"
						},
						{
							"internalType": "uint256",
							"name": "_pid",
							"type": "uint256"
						}
					],
					"name": "claimNFTReward",
					"outputs": [],
					"stateMutability": "nonpayable",
					"type": "function"
				},
				{
					"inputs": [
						{
							"internalType": "uint256",
							"name": "_pid",
							"type": "uint256"
						},
						{
							"internalType": "uint256",
							"name": "_amount",
							"type": "uint256"
						}
					],
					"name": "deposit",
					"outputs": [],
					"stateMutability": "nonpayable",
					"type": "function"
				},
				{
					"inputs": [
						{
							"internalType": "uint256",
							"name": "_pid",
							"type": "uint256"
						}
					],
					"name": "emergencyWithdraw",
					"outputs": [],
					"stateMutability": "nonpayable",
					"type": "function"
				},
				{
					"inputs": [
						{
							"internalType": "uint256",
							"name": "_amount",
							"type": "uint256"
						}
					],
					"name": "enterStaking",
					"outputs": [],
					"stateMutability": "nonpayable",
					"type": "function"
				},
				{
					"inputs": [
						{
							"internalType": "uint256",
							"name": "_amount",
							"type": "uint256"
						},
						{
							"internalType": "address",
							"name": "_account",
							"type": "address"
						}
					],
					"name": "enterStakingCompund",
					"outputs": [],
					"stateMutability": "nonpayable",
					"type": "function"
				},
				{
					"inputs": [
						{
							"internalType": "uint256",
							"name": "_from",
							"type": "uint256"
						},
						{
							"internalType": "uint256",
							"name": "_to",
							"type": "uint256"
						}
					],
					"name": "getMultiplier",
					"outputs": [
						{
							"internalType": "uint256",
							"name": "",
							"type": "uint256"
						}
					],
					"stateMutability": "view",
					"type": "function"
				},
				{
					"inputs": [
						{
							"internalType": "address",
							"name": "account",
							"type": "address"
						}
					],
					"name": "getPowerBalance",
					"outputs": [
						{
							"internalType": "uint256",
							"name": "",
							"type": "uint256"
						}
					],
					"stateMutability": "view",
					"type": "function"
				},
				{
					"inputs": [
						{
							"internalType": "uint256",
							"name": "_amount",
							"type": "uint256"
						}
					],
					"name": "leaveStaking",
					"outputs": [],
					"stateMutability": "nonpayable",
					"type": "function"
				},
				{
					"inputs": [],
					"name": "massUpdatePools",
					"outputs": [],
					"stateMutability": "nonpayable",
					"type": "function"
				},
				{
					"inputs": [
						{
							"internalType": "uint256",
							"name": "_pid",
							"type": "uint256"
						}
					],
					"name": "migrate",
					"outputs": [],
					"stateMutability": "nonpayable",
					"type": "function"
				},
				{
					"inputs": [],
					"name": "migrator",
					"outputs": [
						{
							"internalType": "contract IMigratorChef",
							"name": "",
							"type": "address"
						}
					],
					"stateMutability": "view",
					"type": "function"
				},
				{
					"inputs": [
						{
							"internalType": "uint256",
							"name": "",
							"type": "uint256"
						}
					],
					"name": "nftsInfo",
					"outputs": [
						{
							"internalType": "contract IERC721",
							"name": "NFT",
							"type": "address"
						},
						{
							"internalType": "uint256",
							"name": "power",
							"type": "uint256"
						}
					],
					"stateMutability": "view",
					"type": "function"
				},
				{
					"inputs": [],
					"name": "owner",
					"outputs": [
						{
							"internalType": "address",
							"name": "",
							"type": "address"
						}
					],
					"stateMutability": "view",
					"type": "function"
				},
				{
					"inputs": [
						{
							"internalType": "uint256",
							"name": "_pid",
							"type": "uint256"
						},
						{
							"internalType": "address",
							"name": "_user",
							"type": "address"
						}
					],
					"name": "pendingPower",
					"outputs": [
						{
							"internalType": "uint256",
							"name": "",
							"type": "uint256"
						}
					],
					"stateMutability": "view",
					"type": "function"
				},
				{
					"inputs": [
						{
							"internalType": "uint256",
							"name": "",
							"type": "uint256"
						}
					],
					"name": "poolInfo",
					"outputs": [
						{
							"internalType": "contract IERC20",
							"name": "lpToken",
							"type": "address"
						},
						{
							"internalType": "uint256",
							"name": "allocPoint",
							"type": "uint256"
						},
						{
							"internalType": "uint256",
							"name": "lastRewardBlock",
							"type": "uint256"
						},
						{
							"internalType": "uint256",
							"name": "accPowerPerShare",
							"type": "uint256"
						}
					],
					"stateMutability": "view",
					"type": "function"
				},
				{
					"inputs": [],
					"name": "poolLength",
					"outputs": [
						{
							"internalType": "uint256",
							"name": "",
							"type": "uint256"
						}
					],
					"stateMutability": "view",
					"type": "function"
				},
				{
					"inputs": [
						{
							"internalType": "address",
							"name": "",
							"type": "address"
						}
					],
					"name": "powerBalance",
					"outputs": [
						{
							"internalType": "uint256",
							"name": "",
							"type": "uint256"
						}
					],
					"stateMutability": "view",
					"type": "function"
				},
				{
					"inputs": [],
					"name": "renounceOwnership",
					"outputs": [],
					"stateMutability": "nonpayable",
					"type": "function"
				},
				{
					"inputs": [
						{
							"internalType": "uint256",
							"name": "_pid",
							"type": "uint256"
						},
						{
							"internalType": "uint256",
							"name": "_allocPoint",
							"type": "uint256"
						},
						{
							"internalType": "bool",
							"name": "_withUpdate",
							"type": "bool"
						}
					],
					"name": "set",
					"outputs": [],
					"stateMutability": "nonpayable",
					"type": "function"
				},
				{
					"inputs": [
						{
							"internalType": "contract IMigratorChef",
							"name": "_migrator",
							"type": "address"
						}
					],
					"name": "setMigrator",
					"outputs": [],
					"stateMutability": "nonpayable",
					"type": "function"
				},
				{
					"inputs": [],
					"name": "startBlock",
					"outputs": [
						{
							"internalType": "uint256",
							"name": "",
							"type": "uint256"
						}
					],
					"stateMutability": "view",
					"type": "function"
				},
				{
					"inputs": [],
					"name": "totalAllocPoint",
					"outputs": [
						{
							"internalType": "uint256",
							"name": "",
							"type": "uint256"
						}
					],
					"stateMutability": "view",
					"type": "function"
				},
				{
					"inputs": [
						{
							"internalType": "address",
							"name": "newOwner",
							"type": "address"
						}
					],
					"name": "transferOwnership",
					"outputs": [],
					"stateMutability": "nonpayable",
					"type": "function"
				},
				{
					"inputs": [
						{
							"internalType": "address",
							"name": "_DDTMasterchefAddress",
							"type": "address"
						}
					],
					"name": "updateDDTMasterchefAddress",
					"outputs": [],
					"stateMutability": "nonpayable",
					"type": "function"
				},
				{
					"inputs": [
						{
							"internalType": "uint256",
							"name": "multiplierNumber",
							"type": "uint256"
						}
					],
					"name": "updateMultiplier",
					"outputs": [],
					"stateMutability": "nonpayable",
					"type": "function"
				},
				{
					"inputs": [
						{
							"internalType": "uint256",
							"name": "level",
							"type": "uint256"
						},
						{
							"internalType": "uint256",
							"name": "_power",
							"type": "uint256"
						}
					],
					"name": "updateNFT",
					"outputs": [],
					"stateMutability": "nonpayable",
					"type": "function"
				},
				{
					"inputs": [
						{
							"internalType": "address",
							"name": "_NFTStakeAddress",
							"type": "address"
						}
					],
					"name": "updateNFTStakeAddress",
					"outputs": [],
					"stateMutability": "nonpayable",
					"type": "function"
				},
				{
					"inputs": [
						{
							"internalType": "uint256",
							"name": "_pid",
							"type": "uint256"
						}
					],
					"name": "updatePool",
					"outputs": [],
					"stateMutability": "nonpayable",
					"type": "function"
				},
				{
					"inputs": [
						{
							"internalType": "uint256",
							"name": "newAmount",
							"type": "uint256"
						}
					],
					"name": "updatePowerPerBlock",
					"outputs": [],
					"stateMutability": "nonpayable",
					"type": "function"
				},
				{
					"inputs": [
						{
							"internalType": "uint256",
							"name": "",
							"type": "uint256"
						},
						{
							"internalType": "address",
							"name": "",
							"type": "address"
						}
					],
					"name": "userInfo",
					"outputs": [
						{
							"internalType": "uint256",
							"name": "amount",
							"type": "uint256"
						},
						{
							"internalType": "uint256",
							"name": "rewardDebt",
							"type": "uint256"
						}
					],
					"stateMutability": "view",
					"type": "function"
				},
				{
					"inputs": [
						{
							"internalType": "uint256",
							"name": "_pid",
							"type": "uint256"
						},
						{
							"internalType": "uint256",
							"name": "_amount",
							"type": "uint256"
						}
					],
					"name": "withdraw",
					"outputs": [],
					"stateMutability": "nonpayable",
					"type": "function"
				}
			],
			"devdoc": {
				"kind": "dev",
				"methods": {
					"owner()": {
						"details": "Returns the address of the current owner."
					},
					"renounceOwnership()": {
						"details": "Leaves the contract without owner. It will not be possible to call `onlyOwner` functions anymore. Can only be called by the current owner. NOTE: Renouncing ownership will leave the contract without an owner, thereby removing any functionality that is only available to the owner."
					},
					"transferOwnership(address)": {
						"details": "Transfers ownership of the contract to a new account (`newOwner`). Can only be called by the current owner."
					}
				},
				"version": 1
			},
			"evm": {
				"assembly": "    /* \"contracts/NFTMasterChef.sol\":22111:36454  contract NFTMasterChef is Ownable {... */\n  mstore(0x40, 0x80)\n    /* \"contracts/NFTMasterChef.sol\":23774:23775  1 */\n  0x01\n    /* \"contracts/NFTMasterChef.sol\":23740:23775  uint256 public BONUS_MULTIPLIER = 1 */\n  0x04\n  sstore\n    /* \"contracts/NFTMasterChef.sol\":24217:24218  0 */\n  0x00\n    /* \"contracts/NFTMasterChef.sol\":24184:24218  uint256 public totalAllocPoint = 0 */\n  0x08\n  sstore\n    /* \"contracts/NFTMasterChef.sol\":24731:25193  constructor(... */\n  callvalue\n  dup1\n  iszero\n  tag_1\n  jumpi\n  0x00\n  dup1\n  revert\ntag_1:\n  pop\n  mload(0x40)\n  sub(codesize, bytecodeSize)\n  dup1\n  bytecodeSize\n  dup4\n  codecopy\n  dup2\n  dup2\n  add\n  0x40\n  mstore\n  dup2\n  add\n  swap1\n  tag_2\n  swap2\n  swap1\n  tag_3\n  jump\t// in\ntag_2:\n    /* \"contracts/NFTMasterChef.sol\":19984:20016  _transferOwnership(_msgSender()) */\n  tag_7\n    /* \"contracts/NFTMasterChef.sol\":20003:20015  _msgSender() */\n  tag_8\n    /* \"contracts/NFTMasterChef.sol\":20003:20013  _msgSender */\n  shl(0x20, tag_9)\n    /* \"contracts/NFTMasterChef.sol\":20003:20015  _msgSender() */\n  0x20\n  shr\n  jump\t// in\ntag_8:\n    /* \"contracts/NFTMasterChef.sol\":19984:20002  _transferOwnership */\n  shl(0x20, tag_10)\n    /* \"contracts/NFTMasterChef.sol\":19984:20016  _transferOwnership(_msgSender()) */\n  0x20\n  shr\n  jump\t// in\ntag_7:\n    /* \"contracts/NFTMasterChef.sol\":24852:24856  _DDT */\n  dup3\n    /* \"contracts/NFTMasterChef.sol\":24846:24849  DDT */\n  0x02\n  0x00\n    /* \"contracts/NFTMasterChef.sol\":24846:24856  DDT = _DDT */\n  0x0100\n  exp\n  dup2\n  sload\n  dup2\n  0xffffffffffffffffffffffffffffffffffffffff\n  mul\n  not\n  and\n  swap1\n  dup4\n  0xffffffffffffffffffffffffffffffffffffffff\n  and\n  mul\n  or\n  swap1\n  sstore\n  pop\n    /* \"contracts/NFTMasterChef.sol\":24883:24897  _PowerPerBlock */\n  dup2\n    /* \"contracts/NFTMasterChef.sol\":24867:24880  PowerPerBlock */\n  0x03\n    /* \"contracts/NFTMasterChef.sol\":24867:24897  PowerPerBlock = _PowerPerBlock */\n  dup2\n  swap1\n  sstore\n  pop\n    /* \"contracts/NFTMasterChef.sol\":24921:24932  _startBlock */\n  dup1\n    /* \"contracts/NFTMasterChef.sol\":24908:24918  startBlock */\n  0x09\n    /* \"contracts/NFTMasterChef.sol\":24908:24932  startBlock = _startBlock */\n  dup2\n  swap1\n  sstore\n  pop\n    /* \"contracts/NFTMasterChef.sol\":24978:24986  poolInfo */\n  0x06\n    /* \"contracts/NFTMasterChef.sol\":24992:25147  PoolInfo({... */\n  mload(0x40)\n  dup1\n  0x80\n  add\n  0x40\n  mstore\n  dup1\n    /* \"contracts/NFTMasterChef.sol\":25025:25028  DDT */\n  0x02\n  0x00\n  swap1\n  sload\n  swap1\n  0x0100\n  exp\n  swap1\n  div\n  0xffffffffffffffffffffffffffffffffffffffff\n  and\n    /* \"contracts/NFTMasterChef.sol\":24992:25147  PoolInfo({... */\n  0xffffffffffffffffffffffffffffffffffffffff\n  and\n  dup2\n  mstore\n  0x20\n  add\n    /* \"contracts/NFTMasterChef.sol\":25055:25059  1000 */\n  0x03e8\n    /* \"contracts/NFTMasterChef.sol\":24992:25147  PoolInfo({... */\n  dup2\n  mstore\n  0x20\n  add\n    /* \"contracts/NFTMasterChef.sol\":25091:25101  startBlock */\n  sload(0x09)\n    /* \"contracts/NFTMasterChef.sol\":24992:25147  PoolInfo({... */\n  dup2\n  mstore\n  0x20\n  add\n    /* \"contracts/NFTMasterChef.sol\":25134:25135  0 */\n  0x00\n    /* \"contracts/NFTMasterChef.sol\":24992:25147  PoolInfo({... */\n  dup2\n  mstore\n  pop\n    /* \"contracts/NFTMasterChef.sol\":24978:25148  poolInfo.push(PoolInfo({... */\n  swap1\n  dup1\n  0x01\n  dup2\n  sload\n  add\n  dup1\n  dup3\n  sstore\n  dup1\n  swap2\n  pop\n  pop\n  0x01\n  swap1\n  sub\n  swap1\n  0x00\n  mstore\n  keccak256(0x00, 0x20)\n  swap1\n  0x04\n  mul\n  add\n  0x00\n  swap1\n  swap2\n  swap1\n  swap2\n  swap1\n  swap2\n  pop\n  0x00\n  dup3\n  add\n  mload\n  dup2\n  0x00\n  add\n  exp(0x0100, 0x00)\n  dup2\n  sload\n  dup2\n  0xffffffffffffffffffffffffffffffffffffffff\n  mul\n  not\n  and\n  swap1\n  dup4\n  0xffffffffffffffffffffffffffffffffffffffff\n  and\n  mul\n  or\n  swap1\n  sstore\n  pop\n  0x20\n  dup3\n  add\n  mload\n  dup2\n  0x01\n  add\n  sstore\n  0x40\n  dup3\n  add\n  mload\n  dup2\n  0x02\n  add\n  sstore\n  0x60\n  dup3\n  add\n  mload\n  dup2\n  0x03\n  add\n  sstore\n  pop\n  pop\n    /* \"contracts/NFTMasterChef.sol\":25179:25183  1000 */\n  0x03e8\n    /* \"contracts/NFTMasterChef.sol\":25161:25176  totalAllocPoint */\n  0x08\n    /* \"contracts/NFTMasterChef.sol\":25161:25183  totalAllocPoint = 1000 */\n  dup2\n  swap1\n  sstore\n  pop\n    /* \"contracts/NFTMasterChef.sol\":24731:25193  constructor(... */\n  pop\n  pop\n  pop\n    /* \"contracts/NFTMasterChef.sol\":22111:36454  contract NFTMasterChef is Ownable {... */\n  jump(tag_13)\n    /* \"contracts/NFTMasterChef.sol\":19479:19577  function _msgSender() internal view virtual returns (address) {... */\ntag_9:\n    /* \"contracts/NFTMasterChef.sol\":19532:19539  address */\n  0x00\n    /* \"contracts/NFTMasterChef.sol\":19559:19569  msg.sender */\n  caller\n    /* \"contracts/NFTMasterChef.sol\":19552:19569  return msg.sender */\n  swap1\n  pop\n    /* \"contracts/NFTMasterChef.sol\":19479:19577  function _msgSender() internal view virtual returns (address) {... */\n  swap1\n  jump\t// out\n    /* \"contracts/NFTMasterChef.sol\":21375:21566  function _transferOwnership(address newOwner) internal virtual {... */\ntag_10:\n    /* \"contracts/NFTMasterChef.sol\":21449:21465  address oldOwner */\n  0x00\n    /* \"contracts/NFTMasterChef.sol\":21468:21474  _owner */\n  dup1\n  0x00\n  swap1\n  sload\n  swap1\n  0x0100\n  exp\n  swap1\n  div\n  0xffffffffffffffffffffffffffffffffffffffff\n  and\n    /* \"contracts/NFTMasterChef.sol\":21449:21474  address oldOwner = _owner */\n  swap1\n  pop\n    /* \"contracts/NFTMasterChef.sol\":21494:21502  newOwner */\n  dup2\n    /* \"contracts/NFTMasterChef.sol\":21485:21491  _owner */\n  0x00\n  dup1\n    /* \"contracts/NFTMasterChef.sol\":21485:21502  _owner = newOwner */\n  0x0100\n  exp\n  dup2\n  sload\n  dup2\n  0xffffffffffffffffffffffffffffffffffffffff\n  mul\n  not\n  and\n  swap1\n  dup4\n  0xffffffffffffffffffffffffffffffffffffffff\n  and\n  mul\n  or\n  swap1\n  sstore\n  pop\n    /* \"contracts/NFTMasterChef.sol\":21549:21557  newOwner */\n  dup2\n    /* \"contracts/NFTMasterChef.sol\":21518:21558  OwnershipTransferred(oldOwner, newOwner) */\n  0xffffffffffffffffffffffffffffffffffffffff\n  and\n    /* \"contracts/NFTMasterChef.sol\":21539:21547  oldOwner */\n  dup2\n    /* \"contracts/NFTMasterChef.sol\":21518:21558  OwnershipTransferred(oldOwner, newOwner) */\n  0xffffffffffffffffffffffffffffffffffffffff\n  and\n  0x8be0079c531659141344cd1fd0a4f28419497f9722a3daafe3b4186f6b6457e0\n  mload(0x40)\n  mload(0x40)\n  dup1\n  swap2\n  sub\n  swap1\n  log3\n    /* \"contracts/NFTMasterChef.sol\":21438:21566  {... */\n  pop\n    /* \"contracts/NFTMasterChef.sol\":21375:21566  function _transferOwnership(address newOwner) internal virtual {... */\n  pop\n  jump\t// out\n    /* \"#utility.yul\":88:205   */\ntag_17:\n    /* \"#utility.yul\":197:198   */\n  0x00\n    /* \"#utility.yul\":194:195   */\n  dup1\n    /* \"#utility.yul\":187:199   */\n  revert\n    /* \"#utility.yul\":334:460   */\ntag_19:\n    /* \"#utility.yul\":371:378   */\n  0x00\n    /* \"#utility.yul\":411:453   */\n  0xffffffffffffffffffffffffffffffffffffffff\n    /* \"#utility.yul\":404:409   */\n  dup3\n    /* \"#utility.yul\":400:454   */\n  and\n    /* \"#utility.yul\":389:454   */\n  swap1\n  pop\n    /* \"#utility.yul\":334:460   */\n  swap2\n  swap1\n  pop\n  jump\t// out\n    /* \"#utility.yul\":466:562   */\ntag_20:\n    /* \"#utility.yul\":503:510   */\n  0x00\n    /* \"#utility.yul\":532:556   */\n  tag_33\n    /* \"#utility.yul\":550:555   */\n  dup3\n    /* \"#utility.yul\":532:556   */\n  tag_19\n  jump\t// in\ntag_33:\n    /* \"#utility.yul\":521:556   */\n  swap1\n  pop\n    /* \"#utility.yul\":466:562   */\n  swap2\n  swap1\n  pop\n  jump\t// out\n    /* \"#utility.yul\":568:678   */\ntag_21:\n    /* \"#utility.yul\":619:626   */\n  0x00\n    /* \"#utility.yul\":648:672   */\n  tag_35\n    /* \"#utility.yul\":666:671   */\n  dup3\n    /* \"#utility.yul\":648:672   */\n  tag_20\n  jump\t// in\ntag_35:\n    /* \"#utility.yul\":637:672   */\n  swap1\n  pop\n    /* \"#utility.yul\":568:678   */\n  swap2\n  swap1\n  pop\n  jump\t// out\n    /* \"#utility.yul\":684:834   */\ntag_22:\n    /* \"#utility.yul\":771:809   */\n  tag_37\n    /* \"#utility.yul\":803:808   */\n  dup2\n    /* \"#utility.yul\":771:809   */\n  tag_21\n  jump\t// in\ntag_37:\n    /* \"#utility.yul\":764:769   */\n  dup2\n    /* \"#utility.yul\":761:810   */\n  eq\n    /* \"#utility.yul\":751:828   */\n  tag_38\n  jumpi\n    /* \"#utility.yul\":824:825   */\n  0x00\n    /* \"#utility.yul\":821:822   */\n  dup1\n    /* \"#utility.yul\":814:826   */\n  revert\n    /* \"#utility.yul\":751:828   */\ntag_38:\n    /* \"#utility.yul\":684:834   */\n  pop\n  jump\t// out\n    /* \"#utility.yul\":840:1011   */\ntag_23:\n    /* \"#utility.yul\":911:916   */\n  0x00\n    /* \"#utility.yul\":942:948   */\n  dup2\n    /* \"#utility.yul\":936:949   */\n  mload\n    /* \"#utility.yul\":927:949   */\n  swap1\n  pop\n    /* \"#utility.yul\":958:1005   */\n  tag_40\n    /* \"#utility.yul\":999:1004   */\n  dup2\n    /* \"#utility.yul\":958:1005   */\n  tag_22\n  jump\t// in\ntag_40:\n    /* \"#utility.yul\":840:1011   */\n  swap3\n  swap2\n  pop\n  pop\n  jump\t// out\n    /* \"#utility.yul\":1017:1094   */\ntag_24:\n    /* \"#utility.yul\":1054:1061   */\n  0x00\n    /* \"#utility.yul\":1083:1088   */\n  dup2\n    /* \"#utility.yul\":1072:1088   */\n  swap1\n  pop\n    /* \"#utility.yul\":1017:1094   */\n  swap2\n  swap1\n  pop\n  jump\t// out\n    /* \"#utility.yul\":1100:1222   */\ntag_25:\n    /* \"#utility.yul\":1173:1197   */\n  tag_43\n    /* \"#utility.yul\":1191:1196   */\n  dup2\n    /* \"#utility.yul\":1173:1197   */\n  tag_24\n  jump\t// in\ntag_43:\n    /* \"#utility.yul\":1166:1171   */\n  dup2\n    /* \"#utility.yul\":1163:1198   */\n  eq\n    /* \"#utility.yul\":1153:1216   */\n  tag_44\n  jumpi\n    /* \"#utility.yul\":1212:1213   */\n  0x00\n    /* \"#utility.yul\":1209:1210   */\n  dup1\n    /* \"#utility.yul\":1202:1214   */\n  revert\n    /* \"#utility.yul\":1153:1216   */\ntag_44:\n    /* \"#utility.yul\":1100:1222   */\n  pop\n  jump\t// out\n    /* \"#utility.yul\":1228:1371   */\ntag_26:\n    /* \"#utility.yul\":1285:1290   */\n  0x00\n    /* \"#utility.yul\":1316:1322   */\n  dup2\n    /* \"#utility.yul\":1310:1323   */\n  mload\n    /* \"#utility.yul\":1301:1323   */\n  swap1\n  pop\n    /* \"#utility.yul\":1332:1365   */\n  tag_46\n    /* \"#utility.yul\":1359:1364   */\n  dup2\n    /* \"#utility.yul\":1332:1365   */\n  tag_25\n  jump\t// in\ntag_46:\n    /* \"#utility.yul\":1228:1371   */\n  swap3\n  swap2\n  pop\n  pop\n  jump\t// out\n    /* \"#utility.yul\":1377:2068   */\ntag_3:\n    /* \"#utility.yul\":1479:1485   */\n  0x00\n    /* \"#utility.yul\":1487:1493   */\n  dup1\n    /* \"#utility.yul\":1495:1501   */\n  0x00\n    /* \"#utility.yul\":1544:1546   */\n  0x60\n    /* \"#utility.yul\":1532:1541   */\n  dup5\n    /* \"#utility.yul\":1523:1530   */\n  dup7\n    /* \"#utility.yul\":1519:1542   */\n  sub\n    /* \"#utility.yul\":1515:1547   */\n  slt\n    /* \"#utility.yul\":1512:1631   */\n  iszero\n  tag_48\n  jumpi\n    /* \"#utility.yul\":1550:1629   */\n  tag_49\n  tag_17\n  jump\t// in\ntag_49:\n    /* \"#utility.yul\":1512:1631   */\ntag_48:\n    /* \"#utility.yul\":1670:1671   */\n  0x00\n    /* \"#utility.yul\":1695:1773   */\n  tag_50\n    /* \"#utility.yul\":1765:1772   */\n  dup7\n    /* \"#utility.yul\":1756:1762   */\n  dup3\n    /* \"#utility.yul\":1745:1754   */\n  dup8\n    /* \"#utility.yul\":1741:1763   */\n  add\n    /* \"#utility.yul\":1695:1773   */\n  tag_23\n  jump\t// in\ntag_50:\n    /* \"#utility.yul\":1685:1773   */\n  swap4\n  pop\n    /* \"#utility.yul\":1641:1783   */\n  pop\n    /* \"#utility.yul\":1822:1824   */\n  0x20\n    /* \"#utility.yul\":1848:1912   */\n  tag_51\n    /* \"#utility.yul\":1904:1911   */\n  dup7\n    /* \"#utility.yul\":1895:1901   */\n  dup3\n    /* \"#utility.yul\":1884:1893   */\n  dup8\n    /* \"#utility.yul\":1880:1902   */\n  add\n    /* \"#utility.yul\":1848:1912   */\n  tag_26\n  jump\t// in\ntag_51:\n    /* \"#utility.yul\":1838:1912   */\n  swap3\n  pop\n    /* \"#utility.yul\":1793:1922   */\n  pop\n    /* \"#utility.yul\":1961:1963   */\n  0x40\n    /* \"#utility.yul\":1987:2051   */\n  tag_52\n    /* \"#utility.yul\":2043:2050   */\n  dup7\n    /* \"#utility.yul\":2034:2040   */\n  dup3\n    /* \"#utility.yul\":2023:2032   */\n  dup8\n    /* \"#utility.yul\":2019:2041   */\n  add\n    /* \"#utility.yul\":1987:2051   */\n  tag_26\n  jump\t// in\ntag_52:\n    /* \"#utility.yul\":1977:2051   */\n  swap2\n  pop\n    /* \"#utility.yul\":1932:2061   */\n  pop\n    /* \"#utility.yul\":1377:2068   */\n  swap3\n  pop\n  swap3\n  pop\n  swap3\n  jump\t// out\n    /* \"contracts/NFTMasterChef.sol\":22111:36454  contract NFTMasterChef is Ownable {... */\ntag_13:\n  dataSize(sub_0)\n  dup1\n  dataOffset(sub_0)\n  0x00\n  codecopy\n  0x00\n  return\nstop\n\nsub_0: assembly {\n        /* \"contracts/NFTMasterChef.sol\":22111:36454  contract NFTMasterChef is Ownable {... */\n      mstore(0x40, 0x80)\n      callvalue\n      dup1\n      iszero\n      tag_1\n      jumpi\n      0x00\n      dup1\n      revert\n    tag_1:\n      pop\n      jumpi(tag_2, lt(calldatasize, 0x04))\n      shr(0xe0, calldataload(0x00))\n      dup1\n      0x5ffe6146\n      gt\n      tag_41\n      jumpi\n      dup1\n      0x8da5cb5b\n      gt\n      tag_42\n      jumpi\n      dup1\n      0xcf35fddf\n      gt\n      tag_43\n      jumpi\n      dup1\n      0xcf35fddf\n      eq\n      tag_36\n      jumpi\n      dup1\n      0xd209db8c\n      eq\n      tag_37\n      jumpi\n      dup1\n      0xe2bbb158\n      eq\n      tag_38\n      jumpi\n      dup1\n      0xf2fde38b\n      eq\n      tag_39\n      jumpi\n      dup1\n      0xf3239ab5\n      eq\n      tag_40\n      jumpi\n      jump(tag_2)\n    tag_43:\n      dup1\n      0x8da5cb5b\n      eq\n      tag_31\n      jumpi\n      dup1\n      0x8dbb1e3a\n      eq\n      tag_32\n      jumpi\n      dup1\n      0x93f1a40b\n      eq\n      tag_33\n      jumpi\n      dup1\n      0xc11490cc\n      eq\n      tag_34\n      jumpi\n      dup1\n      0xcb3cba55\n      eq\n      tag_35\n      jumpi\n      jump(tag_2)\n    tag_42:\n      dup1\n      0x715018a6\n      gt\n      tag_44\n      jumpi\n      dup1\n      0x715018a6\n      eq\n      tag_26\n      jumpi\n      dup1\n      0x7cd07e47\n      eq\n      tag_27\n      jumpi\n      dup1\n      0x83e32135\n      eq\n      tag_28\n      jumpi\n      dup1\n      0x8aa28550\n      eq\n      tag_29\n      jumpi\n      dup1\n      0x8c51793b\n      eq\n      tag_30\n      jumpi\n      jump(tag_2)\n    tag_44:\n      dup1\n      0x5ffe6146\n      eq\n      tag_22\n      jumpi\n      dup1\n      0x61c1b724\n      eq\n      tag_23\n      jumpi\n      dup1\n      0x630b5ba1\n      eq\n      tag_24\n      jumpi\n      dup1\n      0x64482f79\n      eq\n      tag_25\n      jumpi\n      jump(tag_2)\n    tag_41:\n      dup1\n      0x3df7aff3\n      gt\n      tag_45\n      jumpi\n      dup1\n      0x4ea2813c\n      gt\n      tag_46\n      jumpi\n      dup1\n      0x4ea2813c\n      eq\n      tag_17\n      jumpi\n      dup1\n      0x51eb05a6\n      eq\n      tag_18\n      jumpi\n      dup1\n      0x5312ea8e\n      eq\n      tag_19\n      jumpi\n      dup1\n      0x56b4685f\n      eq\n      tag_20\n      jumpi\n      dup1\n      0x5990c569\n      eq\n      tag_21\n      jumpi\n      jump(tag_2)\n    tag_46:\n      dup1\n      0x3df7aff3\n      eq\n      tag_12\n      jumpi\n      dup1\n      0x41441d3b\n      eq\n      tag_13\n      jumpi\n      dup1\n      0x441a3e70\n      eq\n      tag_14\n      jumpi\n      dup1\n      0x454b0608\n      eq\n      tag_15\n      jumpi\n      dup1\n      0x48cd4cb1\n      eq\n      tag_16\n      jumpi\n      jump(tag_2)\n    tag_45:\n      dup1\n      0x17caf6f1\n      gt\n      tag_47\n      jumpi\n      dup1\n      0x17caf6f1\n      eq\n      tag_7\n      jumpi\n      dup1\n      0x1d5fbd87\n      eq\n      tag_8\n      jumpi\n      dup1\n      0x1eaaa045\n      eq\n      tag_9\n      jumpi\n      dup1\n      0x22f58541\n      eq\n      tag_10\n      jumpi\n      dup1\n      0x23cf3118\n      eq\n      tag_11\n      jumpi\n      jump(tag_2)\n    tag_47:\n      dup1\n      0x081e3eda\n      eq\n      tag_3\n      jumpi\n      dup1\n      0x0ba33a58\n      eq\n      tag_4\n      jumpi\n      dup1\n      0x1058d281\n      eq\n      tag_5\n      jumpi\n      dup1\n      0x1526fe27\n      eq\n      tag_6\n      jumpi\n    tag_2:\n      0x00\n      dup1\n      revert\n        /* \"contracts/NFTMasterChef.sol\":27360:27455  function poolLength() external view returns (uint256) {... */\n    tag_3:\n      tag_48\n      tag_49\n      jump\t// in\n    tag_48:\n      mload(0x40)\n      tag_50\n      swap2\n      swap1\n      tag_51\n      jump\t// in\n    tag_50:\n      mload(0x40)\n      dup1\n      swap2\n      sub\n      swap1\n      return\n        /* \"contracts/NFTMasterChef.sol\":25201:25327  function updateNFTStakeAddress(address _NFTStakeAddress) public onlyOwner{... */\n    tag_4:\n      tag_52\n      0x04\n      dup1\n      calldatasize\n      sub\n      dup2\n      add\n      swap1\n      tag_53\n      swap2\n      swap1\n      tag_54\n      jump\t// in\n    tag_53:\n      tag_55\n      jump\t// in\n    tag_52:\n      stop\n        /* \"contracts/NFTMasterChef.sol\":35146:35895  function leaveStaking(uint256 _amount) public {... */\n    tag_5:\n      tag_56\n      0x04\n      dup1\n      calldatasize\n      sub\n      dup2\n      add\n      swap1\n      tag_57\n      swap2\n      swap1\n      tag_58\n      jump\t// in\n    tag_57:\n      tag_59\n      jump\t// in\n    tag_56:\n      stop\n        /* \"contracts/NFTMasterChef.sol\":23943:23969  PoolInfo[] public poolInfo */\n    tag_6:\n      tag_60\n      0x04\n      dup1\n      calldatasize\n      sub\n      dup2\n      add\n      swap1\n      tag_61\n      swap2\n      swap1\n      tag_58\n      jump\t// in\n    tag_61:\n      tag_62\n      jump\t// in\n    tag_60:\n      mload(0x40)\n      tag_63\n      swap5\n      swap4\n      swap3\n      swap2\n      swap1\n      tag_64\n      jump\t// in\n    tag_63:\n      mload(0x40)\n      dup1\n      swap2\n      sub\n      swap1\n      return\n        /* \"contracts/NFTMasterChef.sol\":24184:24218  uint256 public totalAllocPoint = 0 */\n    tag_7:\n      tag_65\n      tag_66\n      jump\t// in\n    tag_65:\n      mload(0x40)\n      tag_67\n      swap2\n      swap1\n      tag_51\n      jump\t// in\n    tag_67:\n      mload(0x40)\n      dup1\n      swap2\n      sub\n      swap1\n      return\n        /* \"contracts/NFTMasterChef.sol\":25953:27221  function claimNFTReward(uint256 level, uint256 _pid) public {... */\n    tag_8:\n      tag_68\n      0x04\n      dup1\n      calldatasize\n      sub\n      dup2\n      add\n      swap1\n      tag_69\n      swap2\n      swap1\n      tag_70\n      jump\t// in\n    tag_69:\n      tag_71\n      jump\t// in\n    tag_68:\n      stop\n        /* \"contracts/NFTMasterChef.sol\":27624:28184  function add( uint256 _allocPoint, IERC20 _lpToken, bool _withUpdate ) public onlyOwner {... */\n    tag_9:\n      tag_72\n      0x04\n      dup1\n      calldatasize\n      sub\n      dup2\n      add\n      swap1\n      tag_73\n      swap2\n      swap1\n      tag_74\n      jump\t// in\n    tag_73:\n      tag_75\n      jump\t// in\n    tag_72:\n      stop\n        /* \"contracts/NFTMasterChef.sol\":24347:24382  address public DDTMasterchefAddress */\n    tag_10:\n      tag_76\n      tag_77\n      jump\t// in\n    tag_76:\n      mload(0x40)\n      tag_78\n      swap2\n      swap1\n      tag_79\n      jump\t// in\n    tag_78:\n      mload(0x40)\n      dup1\n      swap2\n      sub\n      swap1\n      return\n        /* \"contracts/NFTMasterChef.sol\":28662:28764  function setMigrator(IMigratorChef _migrator) public onlyOwner {... */\n    tag_11:\n      tag_80\n      0x04\n      dup1\n      calldatasize\n      sub\n      dup2\n      add\n      swap1\n      tag_81\n      swap2\n      swap1\n      tag_82\n      jump\t// in\n    tag_81:\n      tag_83\n      jump\t// in\n    tag_80:\n      stop\n        /* \"contracts/NFTMasterChef.sol\":36342:36451  function updatePowerPerBlock(uint256 newAmount) public onlyOwner {... */\n    tag_12:\n      tag_84\n      0x04\n      dup1\n      calldatasize\n      sub\n      dup2\n      add\n      swap1\n      tag_85\n      swap2\n      swap1\n      tag_58\n      jump\t// in\n    tag_85:\n      tag_86\n      jump\t// in\n    tag_84:\n      stop\n        /* \"contracts/NFTMasterChef.sol\":33264:34112  function enterStaking(uint256 _amount) public {... */\n    tag_13:\n      tag_87\n      0x04\n      dup1\n      calldatasize\n      sub\n      dup2\n      add\n      swap1\n      tag_88\n      swap2\n      swap1\n      tag_58\n      jump\t// in\n    tag_88:\n      tag_89\n      jump\t// in\n    tag_87:\n      stop\n        /* \"contracts/NFTMasterChef.sol\":32424:33211  function withdraw(uint256 _pid, uint256 _amount) public {... */\n    tag_14:\n      tag_90\n      0x04\n      dup1\n      calldatasize\n      sub\n      dup2\n      add\n      swap1\n      tag_91\n      swap2\n      swap1\n      tag_70\n      jump\t// in\n    tag_91:\n      tag_92\n      jump\t// in\n    tag_90:\n      stop\n        /* \"contracts/NFTMasterChef.sol\":28887:29378  function migrate(uint256 _pid) public {... */\n    tag_15:\n      tag_93\n      0x04\n      dup1\n      calldatasize\n      sub\n      dup2\n      add\n      swap1\n      tag_94\n      swap2\n      swap1\n      tag_58\n      jump\t// in\n    tag_94:\n      tag_95\n      jump\t// in\n    tag_93:\n      stop\n        /* \"contracts/NFTMasterChef.sol\":24276:24301  uint256 public startBlock */\n    tag_16:\n      tag_96\n      tag_97\n      jump\t// in\n    tag_96:\n      mload(0x40)\n      tag_98\n      swap2\n      swap1\n      tag_51\n      jump\t// in\n    tag_98:\n      mload(0x40)\n      dup1\n      swap2\n      sub\n      swap1\n      return\n        /* \"contracts/NFTMasterChef.sol\":25615:25821  function addNFT(IERC721 _NFT, uint256 _power) public onlyOwner {... */\n    tag_17:\n      tag_99\n      0x04\n      dup1\n      calldatasize\n      sub\n      dup2\n      add\n      swap1\n      tag_100\n      swap2\n      swap1\n      tag_101\n      jump\t// in\n    tag_100:\n      tag_102\n      jump\t// in\n    tag_99:\n      stop\n        /* \"contracts/NFTMasterChef.sol\":30769:31459  function updatePool(uint256 _pid) public {... */\n    tag_18:\n      tag_103\n      0x04\n      dup1\n      calldatasize\n      sub\n      dup2\n      add\n      swap1\n      tag_104\n      swap2\n      swap1\n      tag_58\n      jump\t// in\n    tag_104:\n      tag_105\n      jump\t// in\n    tag_103:\n      stop\n        /* \"contracts/NFTMasterChef.sol\":35974:36330  function emergencyWithdraw(uint256 _pid) public {... */\n    tag_19:\n      tag_106\n      0x04\n      dup1\n      calldatasize\n      sub\n      dup2\n      add\n      swap1\n      tag_107\n      swap2\n      swap1\n      tag_58\n      jump\t// in\n    tag_107:\n      tag_108\n      jump\t// in\n    tag_106:\n      stop\n        /* \"contracts/NFTMasterChef.sol\":25335:25481  function updateDDTMasterchefAddress(address _DDTMasterchefAddress) public onlyOwner{... */\n    tag_20:\n      tag_109\n      0x04\n      dup1\n      calldatasize\n      sub\n      dup2\n      add\n      swap1\n      tag_110\n      swap2\n      swap1\n      tag_54\n      jump\t// in\n    tag_110:\n      tag_111\n      jump\t// in\n    tag_109:\n      stop\n        /* \"contracts/NFTMasterChef.sol\":23657:23685  uint256 public PowerPerBlock */\n    tag_21:\n      tag_112\n      tag_113\n      jump\t// in\n    tag_112:\n      mload(0x40)\n      tag_114\n      swap2\n      swap1\n      tag_51\n      jump\t// in\n    tag_114:\n      mload(0x40)\n      dup1\n      swap2\n      sub\n      swap1\n      return\n        /* \"contracts/NFTMasterChef.sol\":27229:27352  function updateMultiplier(uint256 multiplierNumber) public onlyOwner {... */\n    tag_22:\n      tag_115\n      0x04\n      dup1\n      calldatasize\n      sub\n      dup2\n      add\n      swap1\n      tag_116\n      swap2\n      swap1\n      tag_58\n      jump\t// in\n    tag_116:\n      tag_117\n      jump\t// in\n    tag_115:\n      stop\n        /* \"contracts/NFTMasterChef.sol\":23533:23559  NFTsInfo[] public nftsInfo */\n    tag_23:\n      tag_118\n      0x04\n      dup1\n      calldatasize\n      sub\n      dup2\n      add\n      swap1\n      tag_119\n      swap2\n      swap1\n      tag_58\n      jump\t// in\n    tag_119:\n      tag_120\n      jump\t// in\n    tag_118:\n      mload(0x40)\n      tag_121\n      swap3\n      swap2\n      swap1\n      tag_122\n      jump\t// in\n    tag_121:\n      mload(0x40)\n      dup1\n      swap2\n      sub\n      swap1\n      return\n        /* \"contracts/NFTMasterChef.sol\":30513:30693  function massUpdatePools() public {... */\n    tag_24:\n      tag_123\n      tag_124\n      jump\t// in\n    tag_123:\n      stop\n        /* \"contracts/NFTMasterChef.sol\":28281:28586  function set( uint256 _pid, uint256 _allocPoint, bool _withUpdate) public onlyOwner {... */\n    tag_25:\n      tag_125\n      0x04\n      dup1\n      calldatasize\n      sub\n      dup2\n      add\n      swap1\n      tag_126\n      swap2\n      swap1\n      tag_127\n      jump\t// in\n    tag_126:\n      tag_128\n      jump\t// in\n    tag_125:\n      stop\n        /* \"contracts/NFTMasterChef.sol\":20756:20859  function renounceOwnership() public virtual onlyOwner {... */\n    tag_26:\n      tag_129\n      tag_130\n      jump\t// in\n    tag_129:\n      stop\n        /* \"contracts/NFTMasterChef.sol\":23880:23909  IMigratorChef public migrator */\n    tag_27:\n      tag_131\n      tag_132\n      jump\t// in\n    tag_131:\n      mload(0x40)\n      tag_133\n      swap2\n      swap1\n      tag_134\n      jump\t// in\n    tag_133:\n      mload(0x40)\n      dup1\n      swap2\n      sub\n      swap1\n      return\n        /* \"contracts/NFTMasterChef.sol\":24310:24340  address public NFTStakeAddress */\n    tag_28:\n      tag_135\n      tag_136\n      jump\t// in\n    tag_135:\n      mload(0x40)\n      tag_137\n      swap2\n      swap1\n      tag_79\n      jump\t// in\n    tag_137:\n      mload(0x40)\n      dup1\n      swap2\n      sub\n      swap1\n      return\n        /* \"contracts/NFTMasterChef.sol\":23740:23775  uint256 public BONUS_MULTIPLIER = 1 */\n    tag_29:\n      tag_138\n      tag_139\n      jump\t// in\n    tag_138:\n      mload(0x40)\n      tag_140\n      swap2\n      swap1\n      tag_51\n      jump\t// in\n    tag_140:\n      mload(0x40)\n      dup1\n      swap2\n      sub\n      swap1\n      return\n        /* \"contracts/NFTMasterChef.sol\":25489:25607  function getPowerBalance(address account) public view returns(uint256) {... */\n    tag_30:\n      tag_141\n      0x04\n      dup1\n      calldatasize\n      sub\n      dup2\n      add\n      swap1\n      tag_142\n      swap2\n      swap1\n      tag_54\n      jump\t// in\n    tag_142:\n      tag_143\n      jump\t// in\n    tag_141:\n      mload(0x40)\n      tag_144\n      swap2\n      swap1\n      tag_51\n      jump\t// in\n    tag_144:\n      mload(0x40)\n      dup1\n      swap2\n      sub\n      swap1\n      return\n        /* \"contracts/NFTMasterChef.sol\":20105:20192  function owner() public view virtual returns (address) {... */\n    tag_31:\n      tag_145\n      tag_146\n      jump\t// in\n    tag_145:\n      mload(0x40)\n      tag_147\n      swap2\n      swap1\n      tag_79\n      jump\t// in\n    tag_147:\n      mload(0x40)\n      dup1\n      swap2\n      sub\n      swap1\n      return\n        /* \"contracts/NFTMasterChef.sol\":29454:29598  function getMultiplier(uint256 _from, uint256 _to) public view returns (uint256) {... */\n    tag_32:\n      tag_148\n      0x04\n      dup1\n      calldatasize\n      sub\n      dup2\n      add\n      swap1\n      tag_149\n      swap2\n      swap1\n      tag_70\n      jump\t// in\n    tag_149:\n      tag_150\n      jump\t// in\n    tag_148:\n      mload(0x40)\n      tag_151\n      swap2\n      swap1\n      tag_51\n      jump\t// in\n    tag_151:\n      mload(0x40)\n      dup1\n      swap2\n      sub\n      swap1\n      return\n        /* \"contracts/NFTMasterChef.sol\":24025:24089  mapping(uint256 => mapping(address => UserInfo)) public userInfo */\n    tag_33:\n      tag_152\n      0x04\n      dup1\n      calldatasize\n      sub\n      dup2\n      add\n      swap1\n      tag_153\n      swap2\n      swap1\n      tag_154\n      jump\t// in\n    tag_153:\n      tag_155\n      jump\t// in\n    tag_152:\n      mload(0x40)\n      tag_156\n      swap3\n      swap2\n      swap1\n      tag_157\n      jump\t// in\n    tag_156:\n      mload(0x40)\n      dup1\n      swap2\n      sub\n      swap1\n      return\n        /* \"contracts/NFTMasterChef.sol\":25829:25945  function updateNFT(uint256 level, uint256 _power) public onlyOwner {... */\n    tag_34:\n      tag_158\n      0x04\n      dup1\n      calldatasize\n      sub\n      dup2\n      add\n      swap1\n      tag_159\n      swap2\n      swap1\n      tag_70\n      jump\t// in\n    tag_159:\n      tag_160\n      jump\t// in\n    tag_158:\n      stop\n        /* \"contracts/NFTMasterChef.sol\":23593:23610  IERC20 public DDT */\n    tag_35:\n      tag_161\n      tag_162\n      jump\t// in\n    tag_161:\n      mload(0x40)\n      tag_163\n      swap2\n      swap1\n      tag_164\n      jump\t// in\n    tag_163:\n      mload(0x40)\n      dup1\n      swap2\n      sub\n      swap1\n      return\n        /* \"contracts/NFTMasterChef.sol\":34120:35094  function enterStakingCompund(uint256 _amount, address _account) public {... */\n    tag_36:\n      tag_165\n      0x04\n      dup1\n      calldatasize\n      sub\n      dup2\n      add\n      swap1\n      tag_166\n      swap2\n      swap1\n      tag_154\n      jump\t// in\n    tag_166:\n      tag_167\n      jump\t// in\n    tag_165:\n      stop\n        /* \"contracts/NFTMasterChef.sol\":24391:24438  mapping(address => uint256) public powerBalance */\n    tag_37:\n      tag_168\n      0x04\n      dup1\n      calldatasize\n      sub\n      dup2\n      add\n      swap1\n      tag_169\n      swap2\n      swap1\n      tag_54\n      jump\t// in\n    tag_169:\n      tag_170\n      jump\t// in\n    tag_168:\n      mload(0x40)\n      tag_171\n      swap2\n      swap1\n      tag_51\n      jump\t// in\n    tag_171:\n      mload(0x40)\n      dup1\n      swap2\n      sub\n      swap1\n      return\n        /* \"contracts/NFTMasterChef.sol\":31529:32372  function deposit(uint256 _pid, uint256 _amount) public {... */\n    tag_38:\n      tag_172\n      0x04\n      dup1\n      calldatasize\n      sub\n      dup2\n      add\n      swap1\n      tag_173\n      swap2\n      swap1\n      tag_70\n      jump\t// in\n    tag_173:\n      tag_174\n      jump\t// in\n    tag_172:\n      stop\n        /* \"contracts/NFTMasterChef.sol\":21014:21215  function transferOwnership(address newOwner) public virtual onlyOwner {... */\n    tag_39:\n      tag_175\n      0x04\n      dup1\n      calldatasize\n      sub\n      dup2\n      add\n      swap1\n      tag_176\n      swap2\n      swap1\n      tag_54\n      jump\t// in\n    tag_176:\n      tag_177\n      jump\t// in\n    tag_175:\n      stop\n        /* \"contracts/NFTMasterChef.sol\":29663:30430  function pendingPower(uint256 _pid, address _user) external view returns (uint256){... */\n    tag_40:\n      tag_178\n      0x04\n      dup1\n      calldatasize\n      sub\n      dup2\n      add\n      swap1\n      tag_179\n      swap2\n      swap1\n      tag_154\n      jump\t// in\n    tag_179:\n      tag_180\n      jump\t// in\n    tag_178:\n      mload(0x40)\n      tag_181\n      swap2\n      swap1\n      tag_51\n      jump\t// in\n    tag_181:\n      mload(0x40)\n      dup1\n      swap2\n      sub\n      swap1\n      return\n        /* \"contracts/NFTMasterChef.sol\":27360:27455  function poolLength() external view returns (uint256) {... */\n    tag_49:\n        /* \"contracts/NFTMasterChef.sol\":27405:27412  uint256 */\n      0x00\n        /* \"contracts/NFTMasterChef.sol\":27432:27440  poolInfo */\n      0x06\n        /* \"contracts/NFTMasterChef.sol\":27432:27447  poolInfo.length */\n      dup1\n      sload\n      swap1\n      pop\n        /* \"contracts/NFTMasterChef.sol\":27425:27447  return poolInfo.length */\n      swap1\n      pop\n        /* \"contracts/NFTMasterChef.sol\":27360:27455  function poolLength() external view returns (uint256) {... */\n      swap1\n      jump\t// out\n        /* \"contracts/NFTMasterChef.sol\":25201:25327  function updateNFTStakeAddress(address _NFTStakeAddress) public onlyOwner{... */\n    tag_55:\n        /* \"contracts/NFTMasterChef.sol\":20336:20348  _msgSender() */\n      tag_184\n        /* \"contracts/NFTMasterChef.sol\":20336:20346  _msgSender */\n      tag_185\n        /* \"contracts/NFTMasterChef.sol\":20336:20348  _msgSender() */\n      jump\t// in\n    tag_184:\n        /* \"contracts/NFTMasterChef.sol\":20325:20348  owner() == _msgSender() */\n      0xffffffffffffffffffffffffffffffffffffffff\n      and\n        /* \"contracts/NFTMasterChef.sol\":20325:20332  owner() */\n      tag_186\n        /* \"contracts/NFTMasterChef.sol\":20325:20330  owner */\n      tag_146\n        /* \"contracts/NFTMasterChef.sol\":20325:20332  owner() */\n      jump\t// in\n    tag_186:\n        /* \"contracts/NFTMasterChef.sol\":20325:20348  owner() == _msgSender() */\n      0xffffffffffffffffffffffffffffffffffffffff\n      and\n      eq\n        /* \"contracts/NFTMasterChef.sol\":20317:20385  require(owner() == _msgSender(), \"Ownable: caller is not the owner\") */\n      tag_187\n      jumpi\n      mload(0x40)\n      0x08c379a000000000000000000000000000000000000000000000000000000000\n      dup2\n      mstore\n      0x04\n      add\n      tag_188\n      swap1\n      tag_189\n      jump\t// in\n    tag_188:\n      mload(0x40)\n      dup1\n      swap2\n      sub\n      swap1\n      revert\n    tag_187:\n        /* \"contracts/NFTMasterChef.sol\":25303:25319  _NFTStakeAddress */\n      dup1\n        /* \"contracts/NFTMasterChef.sol\":25285:25300  NFTStakeAddress */\n      0x0a\n      0x00\n        /* \"contracts/NFTMasterChef.sol\":25285:25319  NFTStakeAddress = _NFTStakeAddress */\n      0x0100\n      exp\n      dup2\n      sload\n      dup2\n      0xffffffffffffffffffffffffffffffffffffffff\n      mul\n      not\n      and\n      swap1\n      dup4\n      0xffffffffffffffffffffffffffffffffffffffff\n      and\n      mul\n      or\n      swap1\n      sstore\n      pop\n        /* \"contracts/NFTMasterChef.sol\":25201:25327  function updateNFTStakeAddress(address _NFTStakeAddress) public onlyOwner{... */\n      pop\n      jump\t// out\n        /* \"contracts/NFTMasterChef.sol\":35146:35895  function leaveStaking(uint256 _amount) public {... */\n    tag_59:\n        /* \"contracts/NFTMasterChef.sol\":35203:35224  PoolInfo storage pool */\n      0x00\n        /* \"contracts/NFTMasterChef.sol\":35227:35235  poolInfo */\n      0x06\n        /* \"contracts/NFTMasterChef.sol\":35236:35237  0 */\n      0x00\n        /* \"contracts/NFTMasterChef.sol\":35227:35238  poolInfo[0] */\n      dup2\n      sload\n      dup2\n      lt\n      tag_192\n      jumpi\n      tag_193\n      tag_194\n      jump\t// in\n    tag_193:\n    tag_192:\n      swap1\n      0x00\n      mstore\n      keccak256(0x00, 0x20)\n      swap1\n      0x04\n      mul\n      add\n        /* \"contracts/NFTMasterChef.sol\":35203:35238  PoolInfo storage pool = poolInfo[0] */\n      swap1\n      pop\n        /* \"contracts/NFTMasterChef.sol\":35249:35270  UserInfo storage user */\n      0x00\n        /* \"contracts/NFTMasterChef.sol\":35273:35281  userInfo */\n      0x07\n        /* \"contracts/NFTMasterChef.sol\":35273:35284  userInfo[0] */\n      0x00\n        /* \"contracts/NFTMasterChef.sol\":35282:35283  0 */\n      dup1\n        /* \"contracts/NFTMasterChef.sol\":35273:35284  userInfo[0] */\n      dup2\n      mstore\n      0x20\n      add\n      swap1\n      dup2\n      mstore\n      0x20\n      add\n      0x00\n      keccak256\n        /* \"contracts/NFTMasterChef.sol\":35273:35296  userInfo[0][msg.sender] */\n      0x00\n        /* \"contracts/NFTMasterChef.sol\":35285:35295  msg.sender */\n      caller\n        /* \"contracts/NFTMasterChef.sol\":35273:35296  userInfo[0][msg.sender] */\n      0xffffffffffffffffffffffffffffffffffffffff\n      and\n      0xffffffffffffffffffffffffffffffffffffffff\n      and\n      dup2\n      mstore\n      0x20\n      add\n      swap1\n      dup2\n      mstore\n      0x20\n      add\n      0x00\n      keccak256\n        /* \"contracts/NFTMasterChef.sol\":35249:35296  UserInfo storage user = userInfo[0][msg.sender] */\n      swap1\n      pop\n        /* \"contracts/NFTMasterChef.sol\":35332:35339  _amount */\n      dup3\n        /* \"contracts/NFTMasterChef.sol\":35317:35321  user */\n      dup2\n        /* \"contracts/NFTMasterChef.sol\":35317:35328  user.amount */\n      0x00\n      add\n      sload\n        /* \"contracts/NFTMasterChef.sol\":35317:35339  user.amount >= _amount */\n      lt\n      iszero\n        /* \"contracts/NFTMasterChef.sol\":35309:35362  require(user.amount >= _amount, \"withdraw: not good\") */\n      tag_196\n      jumpi\n      mload(0x40)\n      0x08c379a000000000000000000000000000000000000000000000000000000000\n      dup2\n      mstore\n      0x04\n      add\n      tag_197\n      swap1\n      tag_198\n      jump\t// in\n    tag_197:\n      mload(0x40)\n      dup1\n      swap2\n      sub\n      swap1\n      revert\n    tag_196:\n        /* \"contracts/NFTMasterChef.sol\":35373:35386  updatePool(0) */\n      tag_199\n        /* \"contracts/NFTMasterChef.sol\":35384:35385  0 */\n      0x00\n        /* \"contracts/NFTMasterChef.sol\":35373:35383  updatePool */\n      tag_105\n        /* \"contracts/NFTMasterChef.sol\":35373:35386  updatePool(0) */\n      jump\t// in\n    tag_199:\n        /* \"contracts/NFTMasterChef.sol\":35397:35412  uint256 pending */\n      0x00\n        /* \"contracts/NFTMasterChef.sol\":35415:35484  user.amount.mul(pool.accPowerPerShare).div(1e12).sub(user.rewardDebt) */\n      tag_200\n        /* \"contracts/NFTMasterChef.sol\":35468:35472  user */\n      dup3\n        /* \"contracts/NFTMasterChef.sol\":35468:35483  user.rewardDebt */\n      0x01\n      add\n      sload\n        /* \"contracts/NFTMasterChef.sol\":35415:35463  user.amount.mul(pool.accPowerPerShare).div(1e12) */\n      tag_201\n        /* \"contracts/NFTMasterChef.sol\":35458:35462  1e12 */\n      0xe8d4a51000\n        /* \"contracts/NFTMasterChef.sol\":35415:35453  user.amount.mul(pool.accPowerPerShare) */\n      tag_202\n        /* \"contracts/NFTMasterChef.sol\":35431:35435  pool */\n      dup8\n        /* \"contracts/NFTMasterChef.sol\":35431:35452  pool.accPowerPerShare */\n      0x03\n      add\n      sload\n        /* \"contracts/NFTMasterChef.sol\":35415:35419  user */\n      dup8\n        /* \"contracts/NFTMasterChef.sol\":35415:35426  user.amount */\n      0x00\n      add\n      sload\n        /* \"contracts/NFTMasterChef.sol\":35415:35430  user.amount.mul */\n      tag_203\n      swap1\n        /* \"contracts/NFTMasterChef.sol\":35415:35453  user.amount.mul(pool.accPowerPerShare) */\n      swap2\n      swap1\n      0xffffffff\n      and\n      jump\t// in\n    tag_202:\n        /* \"contracts/NFTMasterChef.sol\":35415:35457  user.amount.mul(pool.accPowerPerShare).div */\n      tag_204\n      swap1\n        /* \"contracts/NFTMasterChef.sol\":35415:35463  user.amount.mul(pool.accPowerPerShare).div(1e12) */\n      swap2\n      swap1\n      0xffffffff\n      and\n      jump\t// in\n    tag_201:\n        /* \"contracts/NFTMasterChef.sol\":35415:35467  user.amount.mul(pool.accPowerPerShare).div(1e12).sub */\n      tag_205\n      swap1\n        /* \"contracts/NFTMasterChef.sol\":35415:35484  user.amount.mul(pool.accPowerPerShare).div(1e12).sub(user.rewardDebt) */\n      swap2\n      swap1\n      0xffffffff\n      and\n      jump\t// in\n    tag_200:\n        /* \"contracts/NFTMasterChef.sol\":35397:35484  uint256 pending = user.amount.mul(pool.accPowerPerShare).div(1e12).sub(user.rewardDebt) */\n      swap1\n      pop\n        /* \"contracts/NFTMasterChef.sol\":35508:35509  0 */\n      0x00\n        /* \"contracts/NFTMasterChef.sol\":35498:35505  pending */\n      dup2\n        /* \"contracts/NFTMasterChef.sol\":35498:35509  pending > 0 */\n      gt\n        /* \"contracts/NFTMasterChef.sol\":35495:35602  if(pending > 0) {... */\n      iszero\n      tag_206\n      jumpi\n        /* \"contracts/NFTMasterChef.sol\":35553:35590  powerBalance[msg.sender].add(pending) */\n      tag_207\n        /* \"contracts/NFTMasterChef.sol\":35582:35589  pending */\n      dup2\n        /* \"contracts/NFTMasterChef.sol\":35553:35565  powerBalance */\n      0x0c\n        /* \"contracts/NFTMasterChef.sol\":35553:35577  powerBalance[msg.sender] */\n      0x00\n        /* \"contracts/NFTMasterChef.sol\":35566:35576  msg.sender */\n      caller\n        /* \"contracts/NFTMasterChef.sol\":35553:35577  powerBalance[msg.sender] */\n      0xffffffffffffffffffffffffffffffffffffffff\n      and\n      0xffffffffffffffffffffffffffffffffffffffff\n      and\n      dup2\n      mstore\n      0x20\n      add\n      swap1\n      dup2\n      mstore\n      0x20\n      add\n      0x00\n      keccak256\n      sload\n        /* \"contracts/NFTMasterChef.sol\":35553:35581  powerBalance[msg.sender].add */\n      tag_208\n      swap1\n        /* \"contracts/NFTMasterChef.sol\":35553:35590  powerBalance[msg.sender].add(pending) */\n      swap2\n      swap1\n      0xffffffff\n      and\n      jump\t// in\n    tag_207:\n        /* \"contracts/NFTMasterChef.sol\":35526:35538  powerBalance */\n      0x0c\n        /* \"contracts/NFTMasterChef.sol\":35526:35550  powerBalance[msg.sender] */\n      0x00\n        /* \"contracts/NFTMasterChef.sol\":35539:35549  msg.sender */\n      caller\n        /* \"contracts/NFTMasterChef.sol\":35526:35550  powerBalance[msg.sender] */\n      0xffffffffffffffffffffffffffffffffffffffff\n      and\n      0xffffffffffffffffffffffffffffffffffffffff\n      and\n      dup2\n      mstore\n      0x20\n      add\n      swap1\n      dup2\n      mstore\n      0x20\n      add\n      0x00\n      keccak256\n        /* \"contracts/NFTMasterChef.sol\":35526:35590  powerBalance[msg.sender] = powerBalance[msg.sender].add(pending) */\n      dup2\n      swap1\n      sstore\n      pop\n        /* \"contracts/NFTMasterChef.sol\":35495:35602  if(pending > 0) {... */\n    tag_206:\n        /* \"contracts/NFTMasterChef.sol\":35625:35626  0 */\n      0x00\n        /* \"contracts/NFTMasterChef.sol\":35615:35622  _amount */\n      dup5\n        /* \"contracts/NFTMasterChef.sol\":35615:35626  _amount > 0 */\n      gt\n        /* \"contracts/NFTMasterChef.sol\":35612:35763  if(_amount > 0) {... */\n      iszero\n      tag_209\n      jumpi\n        /* \"contracts/NFTMasterChef.sol\":35657:35681  user.amount.sub(_amount) */\n      tag_210\n        /* \"contracts/NFTMasterChef.sol\":35673:35680  _amount */\n      dup5\n        /* \"contracts/NFTMasterChef.sol\":35657:35661  user */\n      dup4\n        /* \"contracts/NFTMasterChef.sol\":35657:35668  user.amount */\n      0x00\n      add\n      sload\n        /* \"contracts/NFTMasterChef.sol\":35657:35672  user.amount.sub */\n      tag_205\n      swap1\n        /* \"contracts/NFTMasterChef.sol\":35657:35681  user.amount.sub(_amount) */\n      swap2\n      swap1\n      0xffffffff\n      and\n      jump\t// in\n    tag_210:\n        /* \"contracts/NFTMasterChef.sol\":35643:35647  user */\n      dup3\n        /* \"contracts/NFTMasterChef.sol\":35643:35654  user.amount */\n      0x00\n      add\n        /* \"contracts/NFTMasterChef.sol\":35643:35681  user.amount = user.amount.sub(_amount) */\n      dup2\n      swap1\n      sstore\n      pop\n        /* \"contracts/NFTMasterChef.sol\":35696:35751  pool.lpToken.safeTransfer(address(msg.sender), _amount) */\n      tag_211\n        /* \"contracts/NFTMasterChef.sol\":35730:35740  msg.sender */\n      caller\n        /* \"contracts/NFTMasterChef.sol\":35743:35750  _amount */\n      dup6\n        /* \"contracts/NFTMasterChef.sol\":35696:35700  pool */\n      dup6\n        /* \"contracts/NFTMasterChef.sol\":35696:35708  pool.lpToken */\n      0x00\n      add\n      0x00\n      swap1\n      sload\n      swap1\n      0x0100\n      exp\n      swap1\n      div\n      0xffffffffffffffffffffffffffffffffffffffff\n      and\n        /* \"contracts/NFTMasterChef.sol\":35696:35721  pool.lpToken.safeTransfer */\n      0xffffffffffffffffffffffffffffffffffffffff\n      and\n      tag_212\n      swap1\n        /* \"contracts/NFTMasterChef.sol\":35696:35751  pool.lpToken.safeTransfer(address(msg.sender), _amount) */\n      swap3\n      swap2\n      swap1\n      0xffffffff\n      and\n      jump\t// in\n    tag_211:\n        /* \"contracts/NFTMasterChef.sol\":35612:35763  if(_amount > 0) {... */\n    tag_209:\n        /* \"contracts/NFTMasterChef.sol\":35791:35839  user.amount.mul(pool.accPowerPerShare).div(1e12) */\n      tag_213\n        /* \"contracts/NFTMasterChef.sol\":35834:35838  1e12 */\n      0xe8d4a51000\n        /* \"contracts/NFTMasterChef.sol\":35791:35829  user.amount.mul(pool.accPowerPerShare) */\n      tag_214\n        /* \"contracts/NFTMasterChef.sol\":35807:35811  pool */\n      dup6\n        /* \"contracts/NFTMasterChef.sol\":35807:35828  pool.accPowerPerShare */\n      0x03\n      add\n      sload\n        /* \"contracts/NFTMasterChef.sol\":35791:35795  user */\n      dup6\n        /* \"contracts/NFTMasterChef.sol\":35791:35802  user.amount */\n      0x00\n      add\n      sload\n        /* \"contracts/NFTMasterChef.sol\":35791:35806  user.amount.mul */\n      tag_203\n      swap1\n        /* \"contracts/NFTMasterChef.sol\":35791:35829  user.amount.mul(pool.accPowerPerShare) */\n      swap2\n      swap1\n      0xffffffff\n      and\n      jump\t// in\n    tag_214:\n        /* \"contracts/NFTMasterChef.sol\":35791:35833  user.amount.mul(pool.accPowerPerShare).div */\n      tag_204\n      swap1\n        /* \"contracts/NFTMasterChef.sol\":35791:35839  user.amount.mul(pool.accPowerPerShare).div(1e12) */\n      swap2\n      swap1\n      0xffffffff\n      and\n      jump\t// in\n    tag_213:\n        /* \"contracts/NFTMasterChef.sol\":35773:35777  user */\n      dup3\n        /* \"contracts/NFTMasterChef.sol\":35773:35788  user.rewardDebt */\n      0x01\n      add\n        /* \"contracts/NFTMasterChef.sol\":35773:35839  user.rewardDebt = user.amount.mul(pool.accPowerPerShare).div(1e12) */\n      dup2\n      swap1\n      sstore\n      pop\n        /* \"contracts/NFTMasterChef.sol\":35876:35877  0 */\n      0x00\n        /* \"contracts/NFTMasterChef.sol\":35864:35874  msg.sender */\n      caller\n        /* \"contracts/NFTMasterChef.sol\":35855:35887  Withdraw(msg.sender, 0, _amount) */\n      0xffffffffffffffffffffffffffffffffffffffff\n      and\n      0xf279e6a1f5e320cca91135676d9cb6e44ca8a08c0b88342bcdb1144f6511b568\n        /* \"contracts/NFTMasterChef.sol\":35879:35886  _amount */\n      dup7\n        /* \"contracts/NFTMasterChef.sol\":35855:35887  Withdraw(msg.sender, 0, _amount) */\n      mload(0x40)\n      tag_215\n      swap2\n      swap1\n      tag_51\n      jump\t// in\n    tag_215:\n      mload(0x40)\n      dup1\n      swap2\n      sub\n      swap1\n      log3\n        /* \"contracts/NFTMasterChef.sol\":35192:35895  {... */\n      pop\n      pop\n      pop\n        /* \"contracts/NFTMasterChef.sol\":35146:35895  function leaveStaking(uint256 _amount) public {... */\n      pop\n      jump\t// out\n        /* \"contracts/NFTMasterChef.sol\":23943:23969  PoolInfo[] public poolInfo */\n    tag_62:\n      0x06\n      dup2\n      dup2\n      sload\n      dup2\n      lt\n      tag_216\n      jumpi\n      0x00\n      dup1\n      revert\n    tag_216:\n      swap1\n      0x00\n      mstore\n      keccak256(0x00, 0x20)\n      swap1\n      0x04\n      mul\n      add\n      0x00\n      swap2\n      pop\n      swap1\n      pop\n      dup1\n      0x00\n      add\n      0x00\n      swap1\n      sload\n      swap1\n      0x0100\n      exp\n      swap1\n      div\n      0xffffffffffffffffffffffffffffffffffffffff\n      and\n      swap1\n      dup1\n      0x01\n      add\n      sload\n      swap1\n      dup1\n      0x02\n      add\n      sload\n      swap1\n      dup1\n      0x03\n      add\n      sload\n      swap1\n      pop\n      dup5\n      jump\t// out\n        /* \"contracts/NFTMasterChef.sol\":24184:24218  uint256 public totalAllocPoint = 0 */\n    tag_66:\n      sload(0x08)\n      dup2\n      jump\t// out\n        /* \"contracts/NFTMasterChef.sol\":25953:27221  function claimNFTReward(uint256 level, uint256 _pid) public {... */\n    tag_71:\n        /* \"contracts/NFTMasterChef.sol\":26024:26045  PoolInfo storage pool */\n      0x00\n        /* \"contracts/NFTMasterChef.sol\":26048:26056  poolInfo */\n      0x06\n        /* \"contracts/NFTMasterChef.sol\":26057:26061  _pid */\n      dup3\n        /* \"contracts/NFTMasterChef.sol\":26048:26062  poolInfo[_pid] */\n      dup2\n      sload\n      dup2\n      lt\n      tag_219\n      jumpi\n      tag_220\n      tag_194\n      jump\t// in\n    tag_220:\n    tag_219:\n      swap1\n      0x00\n      mstore\n      keccak256(0x00, 0x20)\n      swap1\n      0x04\n      mul\n      add\n        /* \"contracts/NFTMasterChef.sol\":26024:26062  PoolInfo storage pool = poolInfo[_pid] */\n      swap1\n      pop\n        /* \"contracts/NFTMasterChef.sol\":26073:26094  UserInfo storage user */\n      0x00\n        /* \"contracts/NFTMasterChef.sol\":26097:26105  userInfo */\n      0x07\n        /* \"contracts/NFTMasterChef.sol\":26097:26111  userInfo[_pid] */\n      0x00\n        /* \"contracts/NFTMasterChef.sol\":26106:26110  _pid */\n      dup5\n        /* \"contracts/NFTMasterChef.sol\":26097:26111  userInfo[_pid] */\n      dup2\n      mstore\n      0x20\n      add\n      swap1\n      dup2\n      mstore\n      0x20\n      add\n      0x00\n      keccak256\n        /* \"contracts/NFTMasterChef.sol\":26097:26123  userInfo[_pid][msg.sender] */\n      0x00\n        /* \"contracts/NFTMasterChef.sol\":26112:26122  msg.sender */\n      caller\n        /* \"contracts/NFTMasterChef.sol\":26097:26123  userInfo[_pid][msg.sender] */\n      0xffffffffffffffffffffffffffffffffffffffff\n      and\n      0xffffffffffffffffffffffffffffffffffffffff\n      and\n      dup2\n      mstore\n      0x20\n      add\n      swap1\n      dup2\n      mstore\n      0x20\n      add\n      0x00\n      keccak256\n        /* \"contracts/NFTMasterChef.sol\":26073:26123  UserInfo storage user = userInfo[_pid][msg.sender] */\n      swap1\n      pop\n        /* \"contracts/NFTMasterChef.sol\":26134:26158  uint256 accPowerPerShare */\n      0x00\n        /* \"contracts/NFTMasterChef.sol\":26161:26165  pool */\n      dup3\n        /* \"contracts/NFTMasterChef.sol\":26161:26182  pool.accPowerPerShare */\n      0x03\n      add\n      sload\n        /* \"contracts/NFTMasterChef.sol\":26134:26182  uint256 accPowerPerShare = pool.accPowerPerShare */\n      swap1\n      pop\n        /* \"contracts/NFTMasterChef.sol\":26193:26209  uint256 lpSupply */\n      0x00\n        /* \"contracts/NFTMasterChef.sol\":26212:26216  pool */\n      dup4\n        /* \"contracts/NFTMasterChef.sol\":26212:26224  pool.lpToken */\n      0x00\n      add\n      0x00\n      swap1\n      sload\n      swap1\n      0x0100\n      exp\n      swap1\n      div\n      0xffffffffffffffffffffffffffffffffffffffff\n      and\n        /* \"contracts/NFTMasterChef.sol\":26212:26234  pool.lpToken.balanceOf */\n      0xffffffffffffffffffffffffffffffffffffffff\n      and\n      0x70a08231\n        /* \"contracts/NFTMasterChef.sol\":26243:26247  this */\n      address\n        /* \"contracts/NFTMasterChef.sol\":26212:26249  pool.lpToken.balanceOf(address(this)) */\n      mload(0x40)\n      dup3\n      0xffffffff\n      and\n      0xe0\n      shl\n      dup2\n      mstore\n      0x04\n      add\n      tag_222\n      swap2\n      swap1\n      tag_79\n      jump\t// in\n    tag_222:\n      0x20\n      mload(0x40)\n      dup1\n      dup4\n      sub\n      dup2\n      dup7\n      gas\n      staticcall\n      iszero\n      dup1\n      iszero\n      tag_224\n      jumpi\n      returndatasize\n      0x00\n      dup1\n      returndatacopy\n      revert(0x00, returndatasize)\n    tag_224:\n      pop\n      pop\n      pop\n      pop\n      mload(0x40)\n      returndatasize\n      not(0x1f)\n      0x1f\n      dup3\n      add\n      and\n      dup3\n      add\n      dup1\n      0x40\n      mstore\n      pop\n      dup2\n      add\n      swap1\n      tag_225\n      swap2\n      swap1\n      tag_226\n      jump\t// in\n    tag_225:\n        /* \"contracts/NFTMasterChef.sol\":26193:26249  uint256 lpSupply = pool.lpToken.balanceOf(address(this)) */\n      swap1\n      pop\n        /* \"contracts/NFTMasterChef.sol\":26279:26283  pool */\n      dup4\n        /* \"contracts/NFTMasterChef.sol\":26279:26299  pool.lastRewardBlock */\n      0x02\n      add\n      sload\n        /* \"contracts/NFTMasterChef.sol\":26264:26276  block.number */\n      number\n        /* \"contracts/NFTMasterChef.sol\":26264:26299  block.number > pool.lastRewardBlock */\n      gt\n        /* \"contracts/NFTMasterChef.sol\":26264:26316  block.number > pool.lastRewardBlock && lpSupply != 0 */\n      dup1\n      iszero\n      tag_227\n      jumpi\n      pop\n        /* \"contracts/NFTMasterChef.sol\":26315:26316  0 */\n      0x00\n        /* \"contracts/NFTMasterChef.sol\":26303:26311  lpSupply */\n      dup2\n        /* \"contracts/NFTMasterChef.sol\":26303:26316  lpSupply != 0 */\n      eq\n      iszero\n        /* \"contracts/NFTMasterChef.sol\":26264:26316  block.number > pool.lastRewardBlock && lpSupply != 0 */\n    tag_227:\n        /* \"contracts/NFTMasterChef.sol\":26260:26614  if (block.number > pool.lastRewardBlock && lpSupply != 0) {... */\n      iszero\n      tag_228\n      jumpi\n        /* \"contracts/NFTMasterChef.sol\":26333:26351  uint256 multiplier */\n      0x00\n        /* \"contracts/NFTMasterChef.sol\":26354:26403  getMultiplier(pool.lastRewardBlock, block.number) */\n      tag_229\n        /* \"contracts/NFTMasterChef.sol\":26368:26372  pool */\n      dup6\n        /* \"contracts/NFTMasterChef.sol\":26368:26388  pool.lastRewardBlock */\n      0x02\n      add\n      sload\n        /* \"contracts/NFTMasterChef.sol\":26390:26402  block.number */\n      number\n        /* \"contracts/NFTMasterChef.sol\":26354:26367  getMultiplier */\n      tag_150\n        /* \"contracts/NFTMasterChef.sol\":26354:26403  getMultiplier(pool.lastRewardBlock, block.number) */\n      jump\t// in\n    tag_229:\n        /* \"contracts/NFTMasterChef.sol\":26333:26403  uint256 multiplier = getMultiplier(pool.lastRewardBlock, block.number) */\n      swap1\n      pop\n        /* \"contracts/NFTMasterChef.sol\":26418:26437  uint256 PowerReward */\n      0x00\n        /* \"contracts/NFTMasterChef.sol\":26440:26511  multiplier.mul(PowerPerBlock).mul(pool.allocPoint).div(totalAllocPoint) */\n      tag_230\n        /* \"contracts/NFTMasterChef.sol\":26495:26510  totalAllocPoint */\n      sload(0x08)\n        /* \"contracts/NFTMasterChef.sol\":26440:26490  multiplier.mul(PowerPerBlock).mul(pool.allocPoint) */\n      tag_231\n        /* \"contracts/NFTMasterChef.sol\":26474:26478  pool */\n      dup9\n        /* \"contracts/NFTMasterChef.sol\":26474:26489  pool.allocPoint */\n      0x01\n      add\n      sload\n        /* \"contracts/NFTMasterChef.sol\":26440:26469  multiplier.mul(PowerPerBlock) */\n      tag_232\n        /* \"contracts/NFTMasterChef.sol\":26455:26468  PowerPerBlock */\n      sload(0x03)\n        /* \"contracts/NFTMasterChef.sol\":26440:26450  multiplier */\n      dup8\n        /* \"contracts/NFTMasterChef.sol\":26440:26454  multiplier.mul */\n      tag_203\n      swap1\n        /* \"contracts/NFTMasterChef.sol\":26440:26469  multiplier.mul(PowerPerBlock) */\n      swap2\n      swap1\n      0xffffffff\n      and\n      jump\t// in\n    tag_232:\n        /* \"contracts/NFTMasterChef.sol\":26440:26473  multiplier.mul(PowerPerBlock).mul */\n      tag_203\n      swap1\n        /* \"contracts/NFTMasterChef.sol\":26440:26490  multiplier.mul(PowerPerBlock).mul(pool.allocPoint) */\n      swap2\n      swap1\n      0xffffffff\n      and\n      jump\t// in\n    tag_231:\n        /* \"contracts/NFTMasterChef.sol\":26440:26494  multiplier.mul(PowerPerBlock).mul(pool.allocPoint).div */\n      tag_204\n      swap1\n        /* \"contracts/NFTMasterChef.sol\":26440:26511  multiplier.mul(PowerPerBlock).mul(pool.allocPoint).div(totalAllocPoint) */\n      swap2\n      swap1\n      0xffffffff\n      and\n      jump\t// in\n    tag_230:\n        /* \"contracts/NFTMasterChef.sol\":26418:26511  uint256 PowerReward = multiplier.mul(PowerPerBlock).mul(pool.allocPoint).div(totalAllocPoint) */\n      swap1\n      pop\n        /* \"contracts/NFTMasterChef.sol\":26545:26602  accPowerPerShare.add(PowerReward.mul(1e12).div(lpSupply)) */\n      tag_233\n        /* \"contracts/NFTMasterChef.sol\":26566:26601  PowerReward.mul(1e12).div(lpSupply) */\n      tag_234\n        /* \"contracts/NFTMasterChef.sol\":26592:26600  lpSupply */\n      dup5\n        /* \"contracts/NFTMasterChef.sol\":26566:26587  PowerReward.mul(1e12) */\n      tag_235\n        /* \"contracts/NFTMasterChef.sol\":26582:26586  1e12 */\n      0xe8d4a51000\n        /* \"contracts/NFTMasterChef.sol\":26566:26577  PowerReward */\n      dup6\n        /* \"contracts/NFTMasterChef.sol\":26566:26581  PowerReward.mul */\n      tag_203\n      swap1\n        /* \"contracts/NFTMasterChef.sol\":26566:26587  PowerReward.mul(1e12) */\n      swap2\n      swap1\n      0xffffffff\n      and\n      jump\t// in\n    tag_235:\n        /* \"contracts/NFTMasterChef.sol\":26566:26591  PowerReward.mul(1e12).div */\n      tag_204\n      swap1\n        /* \"contracts/NFTMasterChef.sol\":26566:26601  PowerReward.mul(1e12).div(lpSupply) */\n      swap2\n      swap1\n      0xffffffff\n      and\n      jump\t// in\n    tag_234:\n        /* \"contracts/NFTMasterChef.sol\":26545:26561  accPowerPerShare */\n      dup6\n        /* \"contracts/NFTMasterChef.sol\":26545:26565  accPowerPerShare.add */\n      tag_208\n      swap1\n        /* \"contracts/NFTMasterChef.sol\":26545:26602  accPowerPerShare.add(PowerReward.mul(1e12).div(lpSupply)) */\n      swap2\n      swap1\n      0xffffffff\n      and\n      jump\t// in\n    tag_233:\n        /* \"contracts/NFTMasterChef.sol\":26526:26602  accPowerPerShare = accPowerPerShare.add(PowerReward.mul(1e12).div(lpSupply)) */\n      swap4\n      pop\n        /* \"contracts/NFTMasterChef.sol\":26318:26614  {... */\n      pop\n      pop\n        /* \"contracts/NFTMasterChef.sol\":26260:26614  if (block.number > pool.lastRewardBlock && lpSupply != 0) {... */\n    tag_228:\n        /* \"contracts/NFTMasterChef.sol\":26624:26639  uint256 pending */\n      0x00\n        /* \"contracts/NFTMasterChef.sol\":26642:26706  user.amount.mul(accPowerPerShare).div(1e12).sub(user.rewardDebt) */\n      tag_236\n        /* \"contracts/NFTMasterChef.sol\":26690:26694  user */\n      dup5\n        /* \"contracts/NFTMasterChef.sol\":26690:26705  user.rewardDebt */\n      0x01\n      add\n      sload\n        /* \"contracts/NFTMasterChef.sol\":26642:26685  user.amount.mul(accPowerPerShare).div(1e12) */\n      tag_237\n        /* \"contracts/NFTMasterChef.sol\":26680:26684  1e12 */\n      0xe8d4a51000\n        /* \"contracts/NFTMasterChef.sol\":26642:26675  user.amount.mul(accPowerPerShare) */\n      tag_238\n        /* \"contracts/NFTMasterChef.sol\":26658:26674  accPowerPerShare */\n      dup8\n        /* \"contracts/NFTMasterChef.sol\":26642:26646  user */\n      dup10\n        /* \"contracts/NFTMasterChef.sol\":26642:26653  user.amount */\n      0x00\n      add\n      sload\n        /* \"contracts/NFTMasterChef.sol\":26642:26657  user.amount.mul */\n      tag_203\n      swap1\n        /* \"contracts/NFTMasterChef.sol\":26642:26675  user.amount.mul(accPowerPerShare) */\n      swap2\n      swap1\n      0xffffffff\n      and\n      jump\t// in\n    tag_238:\n        /* \"contracts/NFTMasterChef.sol\":26642:26679  user.amount.mul(accPowerPerShare).div */\n      tag_204\n      swap1\n        /* \"contracts/NFTMasterChef.sol\":26642:26685  user.amount.mul(accPowerPerShare).div(1e12) */\n      swap2\n      swap1\n      0xffffffff\n      and\n      jump\t// in\n    tag_237:\n        /* \"contracts/NFTMasterChef.sol\":26642:26689  user.amount.mul(accPowerPerShare).div(1e12).sub */\n      tag_205\n      swap1\n        /* \"contracts/NFTMasterChef.sol\":26642:26706  user.amount.mul(accPowerPerShare).div(1e12).sub(user.rewardDebt) */\n      swap2\n      swap1\n      0xffffffff\n      and\n      jump\t// in\n    tag_236:\n        /* \"contracts/NFTMasterChef.sol\":26624:26706  uint256 pending = user.amount.mul(accPowerPerShare).div(1e12).sub(user.rewardDebt) */\n      swap1\n      pop\n        /* \"contracts/NFTMasterChef.sol\":26717:26737  NFTsInfo storage nft */\n      0x00\n        /* \"contracts/NFTMasterChef.sol\":26740:26748  nftsInfo */\n      0x01\n        /* \"contracts/NFTMasterChef.sol\":26749:26754  level */\n      dup9\n        /* \"contracts/NFTMasterChef.sol\":26740:26755  nftsInfo[level] */\n      dup2\n      sload\n      dup2\n      lt\n      tag_239\n      jumpi\n      tag_240\n      tag_194\n      jump\t// in\n    tag_240:\n    tag_239:\n      swap1\n      0x00\n      mstore\n      keccak256(0x00, 0x20)\n      swap1\n      0x02\n      mul\n      add\n        /* \"contracts/NFTMasterChef.sol\":26717:26755  NFTsInfo storage nft = nftsInfo[level] */\n      swap1\n      pop\n        /* \"contracts/NFTMasterChef.sol\":26766:26779  uint256 total */\n      0x00\n        /* \"contracts/NFTMasterChef.sol\":26782:26819  pending.add(powerBalance[msg.sender]) */\n      tag_242\n        /* \"contracts/NFTMasterChef.sol\":26794:26806  powerBalance */\n      0x0c\n        /* \"contracts/NFTMasterChef.sol\":26794:26818  powerBalance[msg.sender] */\n      0x00\n        /* \"contracts/NFTMasterChef.sol\":26807:26817  msg.sender */\n      caller\n        /* \"contracts/NFTMasterChef.sol\":26794:26818  powerBalance[msg.sender] */\n      0xffffffffffffffffffffffffffffffffffffffff\n      and\n      0xffffffffffffffffffffffffffffffffffffffff\n      and\n      dup2\n      mstore\n      0x20\n      add\n      swap1\n      dup2\n      mstore\n      0x20\n      add\n      0x00\n      keccak256\n      sload\n        /* \"contracts/NFTMasterChef.sol\":26782:26789  pending */\n      dup5\n        /* \"contracts/NFTMasterChef.sol\":26782:26793  pending.add */\n      tag_208\n      swap1\n        /* \"contracts/NFTMasterChef.sol\":26782:26819  pending.add(powerBalance[msg.sender]) */\n      swap2\n      swap1\n      0xffffffff\n      and\n      jump\t// in\n    tag_242:\n        /* \"contracts/NFTMasterChef.sol\":26766:26819  uint256 total = pending.add(powerBalance[msg.sender]) */\n      swap1\n      pop\n        /* \"contracts/NFTMasterChef.sol\":26841:26844  nft */\n      dup2\n        /* \"contracts/NFTMasterChef.sol\":26841:26850  nft.power */\n      0x01\n      add\n      sload\n        /* \"contracts/NFTMasterChef.sol\":26833:26838  total */\n      dup2\n        /* \"contracts/NFTMasterChef.sol\":26833:26850  total > nft.power */\n      gt\n        /* \"contracts/NFTMasterChef.sol\":26830:27018  if(total > nft.power){... */\n      iszero\n      tag_243\n      jumpi\n        /* \"contracts/NFTMasterChef.sol\":26877:26878  0 */\n      0x00\n        /* \"contracts/NFTMasterChef.sol\":26869:26873  _pid */\n      dup9\n        /* \"contracts/NFTMasterChef.sol\":26869:26878  _pid == 0 */\n      sub\n        /* \"contracts/NFTMasterChef.sol\":26866:26929  if(_pid == 0){... */\n      tag_244\n      jumpi\n        /* \"contracts/NFTMasterChef.sol\":26898:26913  leaveStaking(0) */\n      tag_245\n        /* \"contracts/NFTMasterChef.sol\":26911:26912  0 */\n      0x00\n        /* \"contracts/NFTMasterChef.sol\":26898:26910  leaveStaking */\n      tag_59\n        /* \"contracts/NFTMasterChef.sol\":26898:26913  leaveStaking(0) */\n      jump\t// in\n    tag_245:\n        /* \"contracts/NFTMasterChef.sol\":26866:26929  if(_pid == 0){... */\n    tag_244:\n        /* \"contracts/NFTMasterChef.sol\":26954:26955  0 */\n      0x00\n        /* \"contracts/NFTMasterChef.sol\":26946:26950  _pid */\n      dup9\n        /* \"contracts/NFTMasterChef.sol\":26946:26955  _pid != 0 */\n      eq\n        /* \"contracts/NFTMasterChef.sol\":26943:27007  if(_pid != 0){... */\n      tag_246\n      jumpi\n        /* \"contracts/NFTMasterChef.sol\":26975:26991  withdraw(_pid,0) */\n      tag_247\n        /* \"contracts/NFTMasterChef.sol\":26984:26988  _pid */\n      dup9\n        /* \"contracts/NFTMasterChef.sol\":26989:26990  0 */\n      0x00\n        /* \"contracts/NFTMasterChef.sol\":26975:26983  withdraw */\n      tag_92\n        /* \"contracts/NFTMasterChef.sol\":26975:26991  withdraw(_pid,0) */\n      jump\t// in\n    tag_247:\n        /* \"contracts/NFTMasterChef.sol\":26943:27007  if(_pid != 0){... */\n    tag_246:\n        /* \"contracts/NFTMasterChef.sol\":26830:27018  if(total > nft.power){... */\n    tag_243:\n        /* \"contracts/NFTMasterChef.sol\":27048:27060  powerBalance */\n      0x0c\n        /* \"contracts/NFTMasterChef.sol\":27048:27072  powerBalance[msg.sender] */\n      0x00\n        /* \"contracts/NFTMasterChef.sol\":27061:27071  msg.sender */\n      caller\n        /* \"contracts/NFTMasterChef.sol\":27048:27072  powerBalance[msg.sender] */\n      0xffffffffffffffffffffffffffffffffffffffff\n      and\n      0xffffffffffffffffffffffffffffffffffffffff\n      and\n      dup2\n      mstore\n      0x20\n      add\n      swap1\n      dup2\n      mstore\n      0x20\n      add\n      0x00\n      keccak256\n      sload\n        /* \"contracts/NFTMasterChef.sol\":27036:27039  nft */\n      dup3\n        /* \"contracts/NFTMasterChef.sol\":27036:27045  nft.power */\n      0x01\n      add\n      sload\n        /* \"contracts/NFTMasterChef.sol\":27036:27072  nft.power < powerBalance[msg.sender] */\n      lt\n        /* \"contracts/NFTMasterChef.sol\":27028:27096  require(nft.power < powerBalance[msg.sender], 'Power is not enough') */\n      tag_248\n      jumpi\n      mload(0x40)\n      0x08c379a000000000000000000000000000000000000000000000000000000000\n      dup2\n      mstore\n      0x04\n      add\n      tag_249\n      swap1\n      tag_250\n      jump\t// in\n    tag_249:\n      mload(0x40)\n      dup1\n      swap2\n      sub\n      swap1\n      revert\n    tag_248:\n        /* \"contracts/NFTMasterChef.sol\":27134:27173  powerBalance[msg.sender].sub(nft.power) */\n      tag_251\n        /* \"contracts/NFTMasterChef.sol\":27163:27166  nft */\n      dup3\n        /* \"contracts/NFTMasterChef.sol\":27163:27172  nft.power */\n      0x01\n      add\n      sload\n        /* \"contracts/NFTMasterChef.sol\":27134:27146  powerBalance */\n      0x0c\n        /* \"contracts/NFTMasterChef.sol\":27134:27158  powerBalance[msg.sender] */\n      0x00\n        /* \"contracts/NFTMasterChef.sol\":27147:27157  msg.sender */\n      caller\n        /* \"contracts/NFTMasterChef.sol\":27134:27158  powerBalance[msg.sender] */\n      0xffffffffffffffffffffffffffffffffffffffff\n      and\n      0xffffffffffffffffffffffffffffffffffffffff\n      and\n      dup2\n      mstore\n      0x20\n      add\n      swap1\n      dup2\n      mstore\n      0x20\n      add\n      0x00\n      keccak256\n      sload\n        /* \"contracts/NFTMasterChef.sol\":27134:27162  powerBalance[msg.sender].sub */\n      tag_205\n      swap1\n        /* \"contracts/NFTMasterChef.sol\":27134:27173  powerBalance[msg.sender].sub(nft.power) */\n      swap2\n      swap1\n      0xffffffff\n      and\n      jump\t// in\n    tag_251:\n        /* \"contracts/NFTMasterChef.sol\":27107:27119  powerBalance */\n      0x0c\n        /* \"contracts/NFTMasterChef.sol\":27107:27131  powerBalance[msg.sender] */\n      0x00\n        /* \"contracts/NFTMasterChef.sol\":27120:27130  msg.sender */\n      caller\n        /* \"contracts/NFTMasterChef.sol\":27107:27131  powerBalance[msg.sender] */\n      0xffffffffffffffffffffffffffffffffffffffff\n      and\n      0xffffffffffffffffffffffffffffffffffffffff\n      and\n      dup2\n      mstore\n      0x20\n      add\n      swap1\n      dup2\n      mstore\n      0x20\n      add\n      0x00\n      keccak256\n        /* \"contracts/NFTMasterChef.sol\":27107:27173  powerBalance[msg.sender] = powerBalance[msg.sender].sub(nft.power) */\n      dup2\n      swap1\n      sstore\n      pop\n        /* \"contracts/NFTMasterChef.sol\":27184:27187  nft */\n      dup2\n        /* \"contracts/NFTMasterChef.sol\":27184:27191  nft.NFT */\n      0x00\n      add\n      0x00\n      swap1\n      sload\n      swap1\n      0x0100\n      exp\n      swap1\n      div\n      0xffffffffffffffffffffffffffffffffffffffff\n      and\n        /* \"contracts/NFTMasterChef.sol\":27184:27201  nft.NFT.createNFT */\n      0xffffffffffffffffffffffffffffffffffffffff\n      and\n      0x17e5883c\n        /* \"contracts/NFTMasterChef.sol\":27202:27212  msg.sender */\n      caller\n        /* \"contracts/NFTMasterChef.sol\":27184:27213  nft.NFT.createNFT(msg.sender) */\n      mload(0x40)\n      dup3\n      0xffffffff\n      and\n      0xe0\n      shl\n      dup2\n      mstore\n      0x04\n      add\n      tag_252\n      swap2\n      swap1\n      tag_79\n      jump\t// in\n    tag_252:\n      0x00\n      mload(0x40)\n      dup1\n      dup4\n      sub\n      dup2\n      0x00\n      dup8\n      dup1\n      extcodesize\n      iszero\n      dup1\n      iszero\n      tag_253\n      jumpi\n      0x00\n      dup1\n      revert\n    tag_253:\n      pop\n      gas\n      call\n      iszero\n      dup1\n      iszero\n      tag_255\n      jumpi\n      returndatasize\n      0x00\n      dup1\n      returndatacopy\n      revert(0x00, returndatasize)\n    tag_255:\n      pop\n      pop\n      pop\n      pop\n        /* \"contracts/NFTMasterChef.sol\":26013:27221  {... */\n      pop\n      pop\n      pop\n      pop\n      pop\n      pop\n      pop\n        /* \"contracts/NFTMasterChef.sol\":25953:27221  function claimNFTReward(uint256 level, uint256 _pid) public {... */\n      pop\n      pop\n      jump\t// out\n        /* \"contracts/NFTMasterChef.sol\":27624:28184  function add( uint256 _allocPoint, IERC20 _lpToken, bool _withUpdate ) public onlyOwner {... */\n    tag_75:\n        /* \"contracts/NFTMasterChef.sol\":20336:20348  _msgSender() */\n      tag_257\n        /* \"contracts/NFTMasterChef.sol\":20336:20346  _msgSender */\n      tag_185\n        /* \"contracts/NFTMasterChef.sol\":20336:20348  _msgSender() */\n      jump\t// in\n    tag_257:\n        /* \"contracts/NFTMasterChef.sol\":20325:20348  owner() == _msgSender() */\n      0xffffffffffffffffffffffffffffffffffffffff\n      and\n        /* \"contracts/NFTMasterChef.sol\":20325:20332  owner() */\n      tag_258\n        /* \"contracts/NFTMasterChef.sol\":20325:20330  owner */\n      tag_146\n        /* \"contracts/NFTMasterChef.sol\":20325:20332  owner() */\n      jump\t// in\n    tag_258:\n        /* \"contracts/NFTMasterChef.sol\":20325:20348  owner() == _msgSender() */\n      0xffffffffffffffffffffffffffffffffffffffff\n      and\n      eq\n        /* \"contracts/NFTMasterChef.sol\":20317:20385  require(owner() == _msgSender(), \"Ownable: caller is not the owner\") */\n      tag_259\n      jumpi\n      mload(0x40)\n      0x08c379a000000000000000000000000000000000000000000000000000000000\n      dup2\n      mstore\n      0x04\n      add\n      tag_260\n      swap1\n      tag_189\n      jump\t// in\n    tag_260:\n      mload(0x40)\n      dup1\n      swap2\n      sub\n      swap1\n      revert\n    tag_259:\n        /* \"contracts/NFTMasterChef.sol\":27727:27738  _withUpdate */\n      dup1\n        /* \"contracts/NFTMasterChef.sol\":27723:27784  if (_withUpdate) {... */\n      iszero\n      tag_262\n      jumpi\n        /* \"contracts/NFTMasterChef.sol\":27755:27772  massUpdatePools() */\n      tag_263\n        /* \"contracts/NFTMasterChef.sol\":27755:27770  massUpdatePools */\n      tag_124\n        /* \"contracts/NFTMasterChef.sol\":27755:27772  massUpdatePools() */\n      jump\t// in\n    tag_263:\n        /* \"contracts/NFTMasterChef.sol\":27723:27784  if (_withUpdate) {... */\n    tag_262:\n        /* \"contracts/NFTMasterChef.sol\":27794:27817  uint256 lastRewardBlock */\n      0x00\n        /* \"contracts/NFTMasterChef.sol\":27835:27845  startBlock */\n      sload(0x09)\n        /* \"contracts/NFTMasterChef.sol\":27820:27832  block.number */\n      number\n        /* \"contracts/NFTMasterChef.sol\":27820:27845  block.number > startBlock */\n      gt\n        /* \"contracts/NFTMasterChef.sol\":27820:27873  block.number > startBlock ? block.number : startBlock */\n      tag_264\n      jumpi\n        /* \"contracts/NFTMasterChef.sol\":27863:27873  startBlock */\n      sload(0x09)\n        /* \"contracts/NFTMasterChef.sol\":27820:27873  block.number > startBlock ? block.number : startBlock */\n      jump(tag_265)\n    tag_264:\n        /* \"contracts/NFTMasterChef.sol\":27848:27860  block.number */\n      number\n        /* \"contracts/NFTMasterChef.sol\":27820:27873  block.number > startBlock ? block.number : startBlock */\n    tag_265:\n        /* \"contracts/NFTMasterChef.sol\":27794:27873  uint256 lastRewardBlock = block.number > startBlock ? block.number : startBlock */\n      swap1\n      pop\n        /* \"contracts/NFTMasterChef.sol\":27902:27934  totalAllocPoint.add(_allocPoint) */\n      tag_266\n        /* \"contracts/NFTMasterChef.sol\":27922:27933  _allocPoint */\n      dup5\n        /* \"contracts/NFTMasterChef.sol\":27902:27917  totalAllocPoint */\n      sload(0x08)\n        /* \"contracts/NFTMasterChef.sol\":27902:27921  totalAllocPoint.add */\n      tag_208\n      swap1\n        /* \"contracts/NFTMasterChef.sol\":27902:27934  totalAllocPoint.add(_allocPoint) */\n      swap2\n      swap1\n      0xffffffff\n      and\n      jump\t// in\n    tag_266:\n        /* \"contracts/NFTMasterChef.sol\":27884:27899  totalAllocPoint */\n      0x08\n        /* \"contracts/NFTMasterChef.sol\":27884:27934  totalAllocPoint = totalAllocPoint.add(_allocPoint) */\n      dup2\n      swap1\n      sstore\n      pop\n        /* \"contracts/NFTMasterChef.sol\":27945:27953  poolInfo */\n      0x06\n        /* \"contracts/NFTMasterChef.sol\":27973:28165  PoolInfo({... */\n      mload(0x40)\n      dup1\n      0x80\n      add\n      0x40\n      mstore\n      dup1\n        /* \"contracts/NFTMasterChef.sol\":28010:28018  _lpToken */\n      dup6\n        /* \"contracts/NFTMasterChef.sol\":27973:28165  PoolInfo({... */\n      0xffffffffffffffffffffffffffffffffffffffff\n      and\n      dup2\n      mstore\n      0x20\n      add\n        /* \"contracts/NFTMasterChef.sol\":28049:28060  _allocPoint */\n      dup7\n        /* \"contracts/NFTMasterChef.sol\":27973:28165  PoolInfo({... */\n      dup2\n      mstore\n      0x20\n      add\n        /* \"contracts/NFTMasterChef.sol\":28096:28111  lastRewardBlock */\n      dup4\n        /* \"contracts/NFTMasterChef.sol\":27973:28165  PoolInfo({... */\n      dup2\n      mstore\n      0x20\n      add\n        /* \"contracts/NFTMasterChef.sol\":28148:28149  0 */\n      0x00\n        /* \"contracts/NFTMasterChef.sol\":27973:28165  PoolInfo({... */\n      dup2\n      mstore\n      pop\n        /* \"contracts/NFTMasterChef.sol\":27945:28176  poolInfo.push(... */\n      swap1\n      dup1\n      0x01\n      dup2\n      sload\n      add\n      dup1\n      dup3\n      sstore\n      dup1\n      swap2\n      pop\n      pop\n      0x01\n      swap1\n      sub\n      swap1\n      0x00\n      mstore\n      keccak256(0x00, 0x20)\n      swap1\n      0x04\n      mul\n      add\n      0x00\n      swap1\n      swap2\n      swap1\n      swap2\n      swap1\n      swap2\n      pop\n      0x00\n      dup3\n      add\n      mload\n      dup2\n      0x00\n      add\n      exp(0x0100, 0x00)\n      dup2\n      sload\n      dup2\n      0xffffffffffffffffffffffffffffffffffffffff\n      mul\n      not\n      and\n      swap1\n      dup4\n      0xffffffffffffffffffffffffffffffffffffffff\n      and\n      mul\n      or\n      swap1\n      sstore\n      pop\n      0x20\n      dup3\n      add\n      mload\n      dup2\n      0x01\n      add\n      sstore\n      0x40\n      dup3\n      add\n      mload\n      dup2\n      0x02\n      add\n      sstore\n      0x60\n      dup3\n      add\n      mload\n      dup2\n      0x03\n      add\n      sstore\n      pop\n      pop\n        /* \"contracts/NFTMasterChef.sol\":27712:28184  {... */\n      pop\n        /* \"contracts/NFTMasterChef.sol\":27624:28184  function add( uint256 _allocPoint, IERC20 _lpToken, bool _withUpdate ) public onlyOwner {... */\n      pop\n      pop\n      pop\n      jump\t// out\n        /* \"contracts/NFTMasterChef.sol\":24347:24382  address public DDTMasterchefAddress */\n    tag_77:\n      0x0b\n      0x00\n      swap1\n      sload\n      swap1\n      0x0100\n      exp\n      swap1\n      div\n      0xffffffffffffffffffffffffffffffffffffffff\n      and\n      dup2\n      jump\t// out\n        /* \"contracts/NFTMasterChef.sol\":28662:28764  function setMigrator(IMigratorChef _migrator) public onlyOwner {... */\n    tag_83:\n        /* \"contracts/NFTMasterChef.sol\":20336:20348  _msgSender() */\n      tag_269\n        /* \"contracts/NFTMasterChef.sol\":20336:20346  _msgSender */\n      tag_185\n        /* \"contracts/NFTMasterChef.sol\":20336:20348  _msgSender() */\n      jump\t// in\n    tag_269:\n        /* \"contracts/NFTMasterChef.sol\":20325:20348  owner() == _msgSender() */\n      0xffffffffffffffffffffffffffffffffffffffff\n      and\n        /* \"contracts/NFTMasterChef.sol\":20325:20332  owner() */\n      tag_270\n        /* \"contracts/NFTMasterChef.sol\":20325:20330  owner */\n      tag_146\n        /* \"contracts/NFTMasterChef.sol\":20325:20332  owner() */\n      jump\t// in\n    tag_270:\n        /* \"contracts/NFTMasterChef.sol\":20325:20348  owner() == _msgSender() */\n      0xffffffffffffffffffffffffffffffffffffffff\n      and\n      eq\n        /* \"contracts/NFTMasterChef.sol\":20317:20385  require(owner() == _msgSender(), \"Ownable: caller is not the owner\") */\n      tag_271\n      jumpi\n      mload(0x40)\n      0x08c379a000000000000000000000000000000000000000000000000000000000\n      dup2\n      mstore\n      0x04\n      add\n      tag_272\n      swap1\n      tag_189\n      jump\t// in\n    tag_272:\n      mload(0x40)\n      dup1\n      swap2\n      sub\n      swap1\n      revert\n    tag_271:\n        /* \"contracts/NFTMasterChef.sol\":28747:28756  _migrator */\n      dup1\n        /* \"contracts/NFTMasterChef.sol\":28736:28744  migrator */\n      0x05\n      0x00\n        /* \"contracts/NFTMasterChef.sol\":28736:28756  migrator = _migrator */\n      0x0100\n      exp\n      dup2\n      sload\n      dup2\n      0xffffffffffffffffffffffffffffffffffffffff\n      mul\n      not\n      and\n      swap1\n      dup4\n      0xffffffffffffffffffffffffffffffffffffffff\n      and\n      mul\n      or\n      swap1\n      sstore\n      pop\n        /* \"contracts/NFTMasterChef.sol\":28662:28764  function setMigrator(IMigratorChef _migrator) public onlyOwner {... */\n      pop\n      jump\t// out\n        /* \"contracts/NFTMasterChef.sol\":36342:36451  function updatePowerPerBlock(uint256 newAmount) public onlyOwner {... */\n    tag_86:\n        /* \"contracts/NFTMasterChef.sol\":20336:20348  _msgSender() */\n      tag_275\n        /* \"contracts/NFTMasterChef.sol\":20336:20346  _msgSender */\n      tag_185\n        /* \"contracts/NFTMasterChef.sol\":20336:20348  _msgSender() */\n      jump\t// in\n    tag_275:\n        /* \"contracts/NFTMasterChef.sol\":20325:20348  owner() == _msgSender() */\n      0xffffffffffffffffffffffffffffffffffffffff\n      and\n        /* \"contracts/NFTMasterChef.sol\":20325:20332  owner() */\n      tag_276\n        /* \"contracts/NFTMasterChef.sol\":20325:20330  owner */\n      tag_146\n        /* \"contracts/NFTMasterChef.sol\":20325:20332  owner() */\n      jump\t// in\n    tag_276:\n        /* \"contracts/NFTMasterChef.sol\":20325:20348  owner() == _msgSender() */\n      0xffffffffffffffffffffffffffffffffffffffff\n      and\n      eq\n        /* \"contracts/NFTMasterChef.sol\":20317:20385  require(owner() == _msgSender(), \"Ownable: caller is not the owner\") */\n      tag_277\n      jumpi\n      mload(0x40)\n      0x08c379a000000000000000000000000000000000000000000000000000000000\n      dup2\n      mstore\n      0x04\n      add\n      tag_278\n      swap1\n      tag_189\n      jump\t// in\n    tag_278:\n      mload(0x40)\n      dup1\n      swap2\n      sub\n      swap1\n      revert\n    tag_277:\n        /* \"contracts/NFTMasterChef.sol\":36434:36443  newAmount */\n      dup1\n        /* \"contracts/NFTMasterChef.sol\":36418:36431  PowerPerBlock */\n      0x03\n        /* \"contracts/NFTMasterChef.sol\":36418:36443  PowerPerBlock = newAmount */\n      dup2\n      swap1\n      sstore\n      pop\n        /* \"contracts/NFTMasterChef.sol\":36342:36451  function updatePowerPerBlock(uint256 newAmount) public onlyOwner {... */\n      pop\n      jump\t// out\n        /* \"contracts/NFTMasterChef.sol\":33264:34112  function enterStaking(uint256 _amount) public {... */\n    tag_89:\n        /* \"contracts/NFTMasterChef.sol\":33339:33340  0 */\n      0x00\n        /* \"contracts/NFTMasterChef.sol\":33329:33336  _amount */\n      dup2\n        /* \"contracts/NFTMasterChef.sol\":33329:33340  _amount > 0 */\n      gt\n        /* \"contracts/NFTMasterChef.sol\":33321:33359  require(_amount > 0, \"Amount is zero\") */\n      tag_281\n      jumpi\n      mload(0x40)\n      0x08c379a000000000000000000000000000000000000000000000000000000000\n      dup2\n      mstore\n      0x04\n      add\n      tag_282\n      swap1\n      tag_283\n      jump\t// in\n    tag_282:\n      mload(0x40)\n      dup1\n      swap2\n      sub\n      swap1\n      revert\n    tag_281:\n        /* \"contracts/NFTMasterChef.sol\":33372:33393  PoolInfo storage pool */\n      0x00\n        /* \"contracts/NFTMasterChef.sol\":33396:33404  poolInfo */\n      0x06\n        /* \"contracts/NFTMasterChef.sol\":33405:33406  0 */\n      0x00\n        /* \"contracts/NFTMasterChef.sol\":33396:33407  poolInfo[0] */\n      dup2\n      sload\n      dup2\n      lt\n      tag_284\n      jumpi\n      tag_285\n      tag_194\n      jump\t// in\n    tag_285:\n    tag_284:\n      swap1\n      0x00\n      mstore\n      keccak256(0x00, 0x20)\n      swap1\n      0x04\n      mul\n      add\n        /* \"contracts/NFTMasterChef.sol\":33372:33407  PoolInfo storage pool = poolInfo[0] */\n      swap1\n      pop\n        /* \"contracts/NFTMasterChef.sol\":33418:33439  UserInfo storage user */\n      0x00\n        /* \"contracts/NFTMasterChef.sol\":33442:33450  userInfo */\n      0x07\n        /* \"contracts/NFTMasterChef.sol\":33442:33453  userInfo[0] */\n      0x00\n        /* \"contracts/NFTMasterChef.sol\":33451:33452  0 */\n      dup1\n        /* \"contracts/NFTMasterChef.sol\":33442:33453  userInfo[0] */\n      dup2\n      mstore\n      0x20\n      add\n      swap1\n      dup2\n      mstore\n      0x20\n      add\n      0x00\n      keccak256\n        /* \"contracts/NFTMasterChef.sol\":33442:33474  userInfo[0][address(msg.sender)] */\n      0x00\n        /* \"contracts/NFTMasterChef.sol\":33462:33472  msg.sender */\n      caller\n        /* \"contracts/NFTMasterChef.sol\":33442:33474  userInfo[0][address(msg.sender)] */\n      0xffffffffffffffffffffffffffffffffffffffff\n      and\n      0xffffffffffffffffffffffffffffffffffffffff\n      and\n      dup2\n      mstore\n      0x20\n      add\n      swap1\n      dup2\n      mstore\n      0x20\n      add\n      0x00\n      keccak256\n        /* \"contracts/NFTMasterChef.sol\":33418:33474  UserInfo storage user = userInfo[0][address(msg.sender)] */\n      swap1\n      pop\n        /* \"contracts/NFTMasterChef.sol\":33495:33508  updatePool(0) */\n      tag_287\n        /* \"contracts/NFTMasterChef.sol\":33506:33507  0 */\n      0x00\n        /* \"contracts/NFTMasterChef.sol\":33495:33505  updatePool */\n      tag_105\n        /* \"contracts/NFTMasterChef.sol\":33495:33508  updatePool(0) */\n      jump\t// in\n    tag_287:\n        /* \"contracts/NFTMasterChef.sol\":33537:33538  0 */\n      0x00\n        /* \"contracts/NFTMasterChef.sol\":33523:33527  user */\n      dup2\n        /* \"contracts/NFTMasterChef.sol\":33523:33534  user.amount */\n      0x00\n      add\n      sload\n        /* \"contracts/NFTMasterChef.sol\":33523:33538  user.amount > 0 */\n      gt\n        /* \"contracts/NFTMasterChef.sol\":33519:33801  if (user.amount > 0) {... */\n      iszero\n      tag_288\n      jumpi\n        /* \"contracts/NFTMasterChef.sol\":33555:33570  uint256 pending */\n      0x00\n        /* \"contracts/NFTMasterChef.sol\":33573:33642  user.amount.mul(pool.accPowerPerShare).div(1e12).sub(user.rewardDebt) */\n      tag_289\n        /* \"contracts/NFTMasterChef.sol\":33626:33630  user */\n      dup3\n        /* \"contracts/NFTMasterChef.sol\":33626:33641  user.rewardDebt */\n      0x01\n      add\n      sload\n        /* \"contracts/NFTMasterChef.sol\":33573:33621  user.amount.mul(pool.accPowerPerShare).div(1e12) */\n      tag_290\n        /* \"contracts/NFTMasterChef.sol\":33616:33620  1e12 */\n      0xe8d4a51000\n        /* \"contracts/NFTMasterChef.sol\":33573:33611  user.amount.mul(pool.accPowerPerShare) */\n      tag_291\n        /* \"contracts/NFTMasterChef.sol\":33589:33593  pool */\n      dup8\n        /* \"contracts/NFTMasterChef.sol\":33589:33610  pool.accPowerPerShare */\n      0x03\n      add\n      sload\n        /* \"contracts/NFTMasterChef.sol\":33573:33577  user */\n      dup8\n        /* \"contracts/NFTMasterChef.sol\":33573:33584  user.amount */\n      0x00\n      add\n      sload\n        /* \"contracts/NFTMasterChef.sol\":33573:33588  user.amount.mul */\n      tag_203\n      swap1\n        /* \"contracts/NFTMasterChef.sol\":33573:33611  user.amount.mul(pool.accPowerPerShare) */\n      swap2\n      swap1\n      0xffffffff\n      and\n      jump\t// in\n    tag_291:\n        /* \"contracts/NFTMasterChef.sol\":33573:33615  user.amount.mul(pool.accPowerPerShare).div */\n      tag_204\n      swap1\n        /* \"contracts/NFTMasterChef.sol\":33573:33621  user.amount.mul(pool.accPowerPerShare).div(1e12) */\n      swap2\n      swap1\n      0xffffffff\n      and\n      jump\t// in\n    tag_290:\n        /* \"contracts/NFTMasterChef.sol\":33573:33625  user.amount.mul(pool.accPowerPerShare).div(1e12).sub */\n      tag_205\n      swap1\n        /* \"contracts/NFTMasterChef.sol\":33573:33642  user.amount.mul(pool.accPowerPerShare).div(1e12).sub(user.rewardDebt) */\n      swap2\n      swap1\n      0xffffffff\n      and\n      jump\t// in\n    tag_289:\n        /* \"contracts/NFTMasterChef.sol\":33555:33642  uint256 pending = user.amount.mul(pool.accPowerPerShare).div(1e12).sub(user.rewardDebt) */\n      swap1\n      pop\n        /* \"contracts/NFTMasterChef.sol\":33670:33671  0 */\n      0x00\n        /* \"contracts/NFTMasterChef.sol\":33660:33667  pending */\n      dup2\n        /* \"contracts/NFTMasterChef.sol\":33660:33671  pending > 0 */\n      gt\n        /* \"contracts/NFTMasterChef.sol\":33657:33790  if(pending > 0) {... */\n      iszero\n      tag_292\n      jumpi\n        /* \"contracts/NFTMasterChef.sol\":33728:33774  powerBalance[address(msg.sender)].add(pending) */\n      tag_293\n        /* \"contracts/NFTMasterChef.sol\":33766:33773  pending */\n      dup2\n        /* \"contracts/NFTMasterChef.sol\":33728:33740  powerBalance */\n      0x0c\n        /* \"contracts/NFTMasterChef.sol\":33728:33761  powerBalance[address(msg.sender)] */\n      0x00\n        /* \"contracts/NFTMasterChef.sol\":33749:33759  msg.sender */\n      caller\n        /* \"contracts/NFTMasterChef.sol\":33728:33761  powerBalance[address(msg.sender)] */\n      0xffffffffffffffffffffffffffffffffffffffff\n      and\n      0xffffffffffffffffffffffffffffffffffffffff\n      and\n      dup2\n      mstore\n      0x20\n      add\n      swap1\n      dup2\n      mstore\n      0x20\n      add\n      0x00\n      keccak256\n      sload\n        /* \"contracts/NFTMasterChef.sol\":33728:33765  powerBalance[address(msg.sender)].add */\n      tag_208\n      swap1\n        /* \"contracts/NFTMasterChef.sol\":33728:33774  powerBalance[address(msg.sender)].add(pending) */\n      swap2\n      swap1\n      0xffffffff\n      and\n      jump\t// in\n    tag_293:\n        /* \"contracts/NFTMasterChef.sol\":33692:33704  powerBalance */\n      0x0c\n        /* \"contracts/NFTMasterChef.sol\":33692:33725  powerBalance[address(msg.sender)] */\n      0x00\n        /* \"contracts/NFTMasterChef.sol\":33713:33723  msg.sender */\n      caller\n        /* \"contracts/NFTMasterChef.sol\":33692:33725  powerBalance[address(msg.sender)] */\n      0xffffffffffffffffffffffffffffffffffffffff\n      and\n      0xffffffffffffffffffffffffffffffffffffffff\n      and\n      dup2\n      mstore\n      0x20\n      add\n      swap1\n      dup2\n      mstore\n      0x20\n      add\n      0x00\n      keccak256\n        /* \"contracts/NFTMasterChef.sol\":33692:33774  powerBalance[address(msg.sender)] = powerBalance[address(msg.sender)].add(pending) */\n      dup2\n      swap1\n      sstore\n      pop\n        /* \"contracts/NFTMasterChef.sol\":33657:33790  if(pending > 0) {... */\n    tag_292:\n        /* \"contracts/NFTMasterChef.sol\":33540:33801  {... */\n      pop\n        /* \"contracts/NFTMasterChef.sol\":33519:33801  if (user.amount > 0) {... */\n    tag_288:\n        /* \"contracts/NFTMasterChef.sol\":33824:33825  0 */\n      0x00\n        /* \"contracts/NFTMasterChef.sol\":33814:33821  _amount */\n      dup4\n        /* \"contracts/NFTMasterChef.sol\":33814:33825  _amount > 0 */\n      gt\n        /* \"contracts/NFTMasterChef.sol\":33811:33981  if(_amount > 0) {... */\n      iszero\n      tag_294\n      jumpi\n        /* \"contracts/NFTMasterChef.sol\":33842:33916  pool.lpToken.safeTransferFrom(address(msg.sender), address(this), _amount) */\n      tag_295\n        /* \"contracts/NFTMasterChef.sol\":33880:33890  msg.sender */\n      caller\n        /* \"contracts/NFTMasterChef.sol\":33901:33905  this */\n      address\n        /* \"contracts/NFTMasterChef.sol\":33908:33915  _amount */\n      dup6\n        /* \"contracts/NFTMasterChef.sol\":33842:33846  pool */\n      dup6\n        /* \"contracts/NFTMasterChef.sol\":33842:33854  pool.lpToken */\n      0x00\n      add\n      0x00\n      swap1\n      sload\n      swap1\n      0x0100\n      exp\n      swap1\n      div\n      0xffffffffffffffffffffffffffffffffffffffff\n      and\n        /* \"contracts/NFTMasterChef.sol\":33842:33871  pool.lpToken.safeTransferFrom */\n      0xffffffffffffffffffffffffffffffffffffffff\n      and\n      tag_296\n      swap1\n        /* \"contracts/NFTMasterChef.sol\":33842:33916  pool.lpToken.safeTransferFrom(address(msg.sender), address(this), _amount) */\n      swap4\n      swap3\n      swap2\n      swap1\n      0xffffffff\n      and\n      jump\t// in\n    tag_295:\n        /* \"contracts/NFTMasterChef.sol\":33945:33969  user.amount.add(_amount) */\n      tag_297\n        /* \"contracts/NFTMasterChef.sol\":33961:33968  _amount */\n      dup4\n        /* \"contracts/NFTMasterChef.sol\":33945:33949  user */\n      dup3\n        /* \"contracts/NFTMasterChef.sol\":33945:33956  user.amount */\n      0x00\n      add\n      sload\n        /* \"contracts/NFTMasterChef.sol\":33945:33960  user.amount.add */\n      tag_208\n      swap1\n        /* \"contracts/NFTMasterChef.sol\":33945:33969  user.amount.add(_amount) */\n      swap2\n      swap1\n      0xffffffff\n      and\n      jump\t// in\n    tag_297:\n        /* \"contracts/NFTMasterChef.sol\":33931:33935  user */\n      dup2\n        /* \"contracts/NFTMasterChef.sol\":33931:33942  user.amount */\n      0x00\n      add\n        /* \"contracts/NFTMasterChef.sol\":33931:33969  user.amount = user.amount.add(_amount) */\n      dup2\n      swap1\n      sstore\n      pop\n        /* \"contracts/NFTMasterChef.sol\":33811:33981  if(_amount > 0) {... */\n    tag_294:\n        /* \"contracts/NFTMasterChef.sol\":34009:34057  user.amount.mul(pool.accPowerPerShare).div(1e12) */\n      tag_298\n        /* \"contracts/NFTMasterChef.sol\":34052:34056  1e12 */\n      0xe8d4a51000\n        /* \"contracts/NFTMasterChef.sol\":34009:34047  user.amount.mul(pool.accPowerPerShare) */\n      tag_299\n        /* \"contracts/NFTMasterChef.sol\":34025:34029  pool */\n      dup5\n        /* \"contracts/NFTMasterChef.sol\":34025:34046  pool.accPowerPerShare */\n      0x03\n      add\n      sload\n        /* \"contracts/NFTMasterChef.sol\":34009:34013  user */\n      dup5\n        /* \"contracts/NFTMasterChef.sol\":34009:34020  user.amount */\n      0x00\n      add\n      sload\n        /* \"contracts/NFTMasterChef.sol\":34009:34024  user.amount.mul */\n      tag_203\n      swap1\n        /* \"contracts/NFTMasterChef.sol\":34009:34047  user.amount.mul(pool.accPowerPerShare) */\n      swap2\n      swap1\n      0xffffffff\n      and\n      jump\t// in\n    tag_299:\n        /* \"contracts/NFTMasterChef.sol\":34009:34051  user.amount.mul(pool.accPowerPerShare).div */\n      tag_204\n      swap1\n        /* \"contracts/NFTMasterChef.sol\":34009:34057  user.amount.mul(pool.accPowerPerShare).div(1e12) */\n      swap2\n      swap1\n      0xffffffff\n      and\n      jump\t// in\n    tag_298:\n        /* \"contracts/NFTMasterChef.sol\":33991:33995  user */\n      dup2\n        /* \"contracts/NFTMasterChef.sol\":33991:34006  user.rewardDebt */\n      0x01\n      add\n        /* \"contracts/NFTMasterChef.sol\":33991:34057  user.rewardDebt = user.amount.mul(pool.accPowerPerShare).div(1e12) */\n      dup2\n      swap1\n      sstore\n      pop\n        /* \"contracts/NFTMasterChef.sol\":34093:34094  0 */\n      0x00\n        /* \"contracts/NFTMasterChef.sol\":34081:34091  msg.sender */\n      caller\n        /* \"contracts/NFTMasterChef.sol\":34073:34104  Deposit(msg.sender, 0, _amount) */\n      0xffffffffffffffffffffffffffffffffffffffff\n      and\n      0x90890809c654f11d6e72a28fa60149770a0d11ec6c92319d6ceb2bb0a4ea1a15\n        /* \"contracts/NFTMasterChef.sol\":34096:34103  _amount */\n      dup6\n        /* \"contracts/NFTMasterChef.sol\":34073:34104  Deposit(msg.sender, 0, _amount) */\n      mload(0x40)\n      tag_300\n      swap2\n      swap1\n      tag_51\n      jump\t// in\n    tag_300:\n      mload(0x40)\n      dup1\n      swap2\n      sub\n      swap1\n      log3\n        /* \"contracts/NFTMasterChef.sol\":33310:34112  {... */\n      pop\n      pop\n        /* \"contracts/NFTMasterChef.sol\":33264:34112  function enterStaking(uint256 _amount) public {... */\n      pop\n      jump\t// out\n        /* \"contracts/NFTMasterChef.sol\":32424:33211  function withdraw(uint256 _pid, uint256 _amount) public {... */\n    tag_92:\n        /* \"contracts/NFTMasterChef.sol\":32510:32511  0 */\n      0x00\n        /* \"contracts/NFTMasterChef.sol\":32502:32506  _pid */\n      dup3\n        /* \"contracts/NFTMasterChef.sol\":32502:32511  _pid != 0 */\n      sub\n        /* \"contracts/NFTMasterChef.sol\":32493:32543  require (_pid != 0, \"withdraw Power by unstaking\") */\n      tag_302\n      jumpi\n      mload(0x40)\n      0x08c379a000000000000000000000000000000000000000000000000000000000\n      dup2\n      mstore\n      0x04\n      add\n      tag_303\n      swap1\n      tag_304\n      jump\t// in\n    tag_303:\n      mload(0x40)\n      dup1\n      swap2\n      sub\n      swap1\n      revert\n    tag_302:\n        /* \"contracts/NFTMasterChef.sol\":32556:32577  PoolInfo storage pool */\n      0x00\n        /* \"contracts/NFTMasterChef.sol\":32580:32588  poolInfo */\n      0x06\n        /* \"contracts/NFTMasterChef.sol\":32589:32593  _pid */\n      dup4\n        /* \"contracts/NFTMasterChef.sol\":32580:32594  poolInfo[_pid] */\n      dup2\n      sload\n      dup2\n      lt\n      tag_305\n      jumpi\n      tag_306\n      tag_194\n      jump\t// in\n    tag_306:\n    tag_305:\n      swap1\n      0x00\n      mstore\n      keccak256(0x00, 0x20)\n      swap1\n      0x04\n      mul\n      add\n        /* \"contracts/NFTMasterChef.sol\":32556:32594  PoolInfo storage pool = poolInfo[_pid] */\n      swap1\n      pop\n        /* \"contracts/NFTMasterChef.sol\":32605:32626  UserInfo storage user */\n      0x00\n        /* \"contracts/NFTMasterChef.sol\":32629:32637  userInfo */\n      0x07\n        /* \"contracts/NFTMasterChef.sol\":32629:32643  userInfo[_pid] */\n      0x00\n        /* \"contracts/NFTMasterChef.sol\":32638:32642  _pid */\n      dup6\n        /* \"contracts/NFTMasterChef.sol\":32629:32643  userInfo[_pid] */\n      dup2\n      mstore\n      0x20\n      add\n      swap1\n      dup2\n      mstore\n      0x20\n      add\n      0x00\n      keccak256\n        /* \"contracts/NFTMasterChef.sol\":32629:32655  userInfo[_pid][msg.sender] */\n      0x00\n        /* \"contracts/NFTMasterChef.sol\":32644:32654  msg.sender */\n      caller\n        /* \"contracts/NFTMasterChef.sol\":32629:32655  userInfo[_pid][msg.sender] */\n      0xffffffffffffffffffffffffffffffffffffffff\n      and\n      0xffffffffffffffffffffffffffffffffffffffff\n      and\n      dup2\n      mstore\n      0x20\n      add\n      swap1\n      dup2\n      mstore\n      0x20\n      add\n      0x00\n      keccak256\n        /* \"contracts/NFTMasterChef.sol\":32605:32655  UserInfo storage user = userInfo[_pid][msg.sender] */\n      swap1\n      pop\n        /* \"contracts/NFTMasterChef.sol\":32689:32696  _amount */\n      dup3\n        /* \"contracts/NFTMasterChef.sol\":32674:32678  user */\n      dup2\n        /* \"contracts/NFTMasterChef.sol\":32674:32685  user.amount */\n      0x00\n      add\n      sload\n        /* \"contracts/NFTMasterChef.sol\":32674:32696  user.amount >= _amount */\n      lt\n      iszero\n        /* \"contracts/NFTMasterChef.sol\":32666:32719  require(user.amount >= _amount, \"withdraw: not good\") */\n      tag_308\n      jumpi\n      mload(0x40)\n      0x08c379a000000000000000000000000000000000000000000000000000000000\n      dup2\n      mstore\n      0x04\n      add\n      tag_309\n      swap1\n      tag_198\n      jump\t// in\n    tag_309:\n      mload(0x40)\n      dup1\n      swap2\n      sub\n      swap1\n      revert\n    tag_308:\n        /* \"contracts/NFTMasterChef.sol\":32730:32746  updatePool(_pid) */\n      tag_310\n        /* \"contracts/NFTMasterChef.sol\":32741:32745  _pid */\n      dup5\n        /* \"contracts/NFTMasterChef.sol\":32730:32740  updatePool */\n      tag_105\n        /* \"contracts/NFTMasterChef.sol\":32730:32746  updatePool(_pid) */\n      jump\t// in\n    tag_310:\n        /* \"contracts/NFTMasterChef.sol\":32757:32772  uint256 pending */\n      0x00\n        /* \"contracts/NFTMasterChef.sol\":32775:32844  user.amount.mul(pool.accPowerPerShare).div(1e12).sub(user.rewardDebt) */\n      tag_311\n        /* \"contracts/NFTMasterChef.sol\":32828:32832  user */\n      dup3\n        /* \"contracts/NFTMasterChef.sol\":32828:32843  user.rewardDebt */\n      0x01\n      add\n      sload\n        /* \"contracts/NFTMasterChef.sol\":32775:32823  user.amount.mul(pool.accPowerPerShare).div(1e12) */\n      tag_312\n        /* \"contracts/NFTMasterChef.sol\":32818:32822  1e12 */\n      0xe8d4a51000\n        /* \"contracts/NFTMasterChef.sol\":32775:32813  user.amount.mul(pool.accPowerPerShare) */\n      tag_313\n        /* \"contracts/NFTMasterChef.sol\":32791:32795  pool */\n      dup8\n        /* \"contracts/NFTMasterChef.sol\":32791:32812  pool.accPowerPerShare */\n      0x03\n      add\n      sload\n        /* \"contracts/NFTMasterChef.sol\":32775:32779  user */\n      dup8\n        /* \"contracts/NFTMasterChef.sol\":32775:32786  user.amount */\n      0x00\n      add\n      sload\n        /* \"contracts/NFTMasterChef.sol\":32775:32790  user.amount.mul */\n      tag_203\n      swap1\n        /* \"contracts/NFTMasterChef.sol\":32775:32813  user.amount.mul(pool.accPowerPerShare) */\n      swap2\n      swap1\n      0xffffffff\n      and\n      jump\t// in\n    tag_313:\n        /* \"contracts/NFTMasterChef.sol\":32775:32817  user.amount.mul(pool.accPowerPerShare).div */\n      tag_204\n      swap1\n        /* \"contracts/NFTMasterChef.sol\":32775:32823  user.amount.mul(pool.accPowerPerShare).div(1e12) */\n      swap2\n      swap1\n      0xffffffff\n      and\n      jump\t// in\n    tag_312:\n        /* \"contracts/NFTMasterChef.sol\":32775:32827  user.amount.mul(pool.accPowerPerShare).div(1e12).sub */\n      tag_205\n      swap1\n        /* \"contracts/NFTMasterChef.sol\":32775:32844  user.amount.mul(pool.accPowerPerShare).div(1e12).sub(user.rewardDebt) */\n      swap2\n      swap1\n      0xffffffff\n      and\n      jump\t// in\n    tag_311:\n        /* \"contracts/NFTMasterChef.sol\":32757:32844  uint256 pending = user.amount.mul(pool.accPowerPerShare).div(1e12).sub(user.rewardDebt) */\n      swap1\n      pop\n        /* \"contracts/NFTMasterChef.sol\":32868:32869  0 */\n      0x00\n        /* \"contracts/NFTMasterChef.sol\":32858:32865  pending */\n      dup2\n        /* \"contracts/NFTMasterChef.sol\":32858:32869  pending > 0 */\n      gt\n        /* \"contracts/NFTMasterChef.sol\":32855:32961  if(pending > 0){... */\n      iszero\n      tag_314\n      jumpi\n        /* \"contracts/NFTMasterChef.sol\":32912:32949  powerBalance[msg.sender].add(pending) */\n      tag_315\n        /* \"contracts/NFTMasterChef.sol\":32941:32948  pending */\n      dup2\n        /* \"contracts/NFTMasterChef.sol\":32912:32924  powerBalance */\n      0x0c\n        /* \"contracts/NFTMasterChef.sol\":32912:32936  powerBalance[msg.sender] */\n      0x00\n        /* \"contracts/NFTMasterChef.sol\":32925:32935  msg.sender */\n      caller\n        /* \"contracts/NFTMasterChef.sol\":32912:32936  powerBalance[msg.sender] */\n      0xffffffffffffffffffffffffffffffffffffffff\n      and\n      0xffffffffffffffffffffffffffffffffffffffff\n      and\n      dup2\n      mstore\n      0x20\n      add\n      swap1\n      dup2\n      mstore\n      0x20\n      add\n      0x00\n      keccak256\n      sload\n        /* \"contracts/NFTMasterChef.sol\":32912:32940  powerBalance[msg.sender].add */\n      tag_208\n      swap1\n        /* \"contracts/NFTMasterChef.sol\":32912:32949  powerBalance[msg.sender].add(pending) */\n      swap2\n      swap1\n      0xffffffff\n      and\n      jump\t// in\n    tag_315:\n        /* \"contracts/NFTMasterChef.sol\":32885:32897  powerBalance */\n      0x0c\n        /* \"contracts/NFTMasterChef.sol\":32885:32909  powerBalance[msg.sender] */\n      0x00\n        /* \"contracts/NFTMasterChef.sol\":32898:32908  msg.sender */\n      caller\n        /* \"contracts/NFTMasterChef.sol\":32885:32909  powerBalance[msg.sender] */\n      0xffffffffffffffffffffffffffffffffffffffff\n      and\n      0xffffffffffffffffffffffffffffffffffffffff\n      and\n      dup2\n      mstore\n      0x20\n      add\n      swap1\n      dup2\n      mstore\n      0x20\n      add\n      0x00\n      keccak256\n        /* \"contracts/NFTMasterChef.sol\":32885:32949  powerBalance[msg.sender] = powerBalance[msg.sender].add(pending) */\n      dup2\n      swap1\n      sstore\n      pop\n        /* \"contracts/NFTMasterChef.sol\":32855:32961  if(pending > 0){... */\n    tag_314:\n        /* \"contracts/NFTMasterChef.sol\":32985:33009  user.amount.sub(_amount) */\n      tag_316\n        /* \"contracts/NFTMasterChef.sol\":33001:33008  _amount */\n      dup5\n        /* \"contracts/NFTMasterChef.sol\":32985:32989  user */\n      dup4\n        /* \"contracts/NFTMasterChef.sol\":32985:32996  user.amount */\n      0x00\n      add\n      sload\n        /* \"contracts/NFTMasterChef.sol\":32985:33000  user.amount.sub */\n      tag_205\n      swap1\n        /* \"contracts/NFTMasterChef.sol\":32985:33009  user.amount.sub(_amount) */\n      swap2\n      swap1\n      0xffffffff\n      and\n      jump\t// in\n    tag_316:\n        /* \"contracts/NFTMasterChef.sol\":32971:32975  user */\n      dup3\n        /* \"contracts/NFTMasterChef.sol\":32971:32982  user.amount */\n      0x00\n      add\n        /* \"contracts/NFTMasterChef.sol\":32971:33009  user.amount = user.amount.sub(_amount) */\n      dup2\n      swap1\n      sstore\n      pop\n        /* \"contracts/NFTMasterChef.sol\":33038:33086  user.amount.mul(pool.accPowerPerShare).div(1e12) */\n      tag_317\n        /* \"contracts/NFTMasterChef.sol\":33081:33085  1e12 */\n      0xe8d4a51000\n        /* \"contracts/NFTMasterChef.sol\":33038:33076  user.amount.mul(pool.accPowerPerShare) */\n      tag_318\n        /* \"contracts/NFTMasterChef.sol\":33054:33058  pool */\n      dup6\n        /* \"contracts/NFTMasterChef.sol\":33054:33075  pool.accPowerPerShare */\n      0x03\n      add\n      sload\n        /* \"contracts/NFTMasterChef.sol\":33038:33042  user */\n      dup6\n        /* \"contracts/NFTMasterChef.sol\":33038:33049  user.amount */\n      0x00\n      add\n      sload\n        /* \"contracts/NFTMasterChef.sol\":33038:33053  user.amount.mul */\n      tag_203\n      swap1\n        /* \"contracts/NFTMasterChef.sol\":33038:33076  user.amount.mul(pool.accPowerPerShare) */\n      swap2\n      swap1\n      0xffffffff\n      and\n      jump\t// in\n    tag_318:\n        /* \"contracts/NFTMasterChef.sol\":33038:33080  user.amount.mul(pool.accPowerPerShare).div */\n      tag_204\n      swap1\n        /* \"contracts/NFTMasterChef.sol\":33038:33086  user.amount.mul(pool.accPowerPerShare).div(1e12) */\n      swap2\n      swap1\n      0xffffffff\n      and\n      jump\t// in\n    tag_317:\n        /* \"contracts/NFTMasterChef.sol\":33020:33024  user */\n      dup3\n        /* \"contracts/NFTMasterChef.sol\":33020:33035  user.rewardDebt */\n      0x01\n      add\n        /* \"contracts/NFTMasterChef.sol\":33020:33086  user.rewardDebt = user.amount.mul(pool.accPowerPerShare).div(1e12) */\n      dup2\n      swap1\n      sstore\n      pop\n        /* \"contracts/NFTMasterChef.sol\":33097:33152  pool.lpToken.safeTransfer(address(msg.sender), _amount) */\n      tag_319\n        /* \"contracts/NFTMasterChef.sol\":33131:33141  msg.sender */\n      caller\n        /* \"contracts/NFTMasterChef.sol\":33144:33151  _amount */\n      dup6\n        /* \"contracts/NFTMasterChef.sol\":33097:33101  pool */\n      dup6\n        /* \"contracts/NFTMasterChef.sol\":33097:33109  pool.lpToken */\n      0x00\n      add\n      0x00\n      swap1\n      sload\n      swap1\n      0x0100\n      exp\n      swap1\n      div\n      0xffffffffffffffffffffffffffffffffffffffff\n      and\n        /* \"contracts/NFTMasterChef.sol\":33097:33122  pool.lpToken.safeTransfer */\n      0xffffffffffffffffffffffffffffffffffffffff\n      and\n      tag_212\n      swap1\n        /* \"contracts/NFTMasterChef.sol\":33097:33152  pool.lpToken.safeTransfer(address(msg.sender), _amount) */\n      swap3\n      swap2\n      swap1\n      0xffffffff\n      and\n      jump\t// in\n    tag_319:\n        /* \"contracts/NFTMasterChef.sol\":33189:33193  _pid */\n      dup5\n        /* \"contracts/NFTMasterChef.sol\":33177:33187  msg.sender */\n      caller\n        /* \"contracts/NFTMasterChef.sol\":33168:33203  Withdraw(msg.sender, _pid, _amount) */\n      0xffffffffffffffffffffffffffffffffffffffff\n      and\n      0xf279e6a1f5e320cca91135676d9cb6e44ca8a08c0b88342bcdb1144f6511b568\n        /* \"contracts/NFTMasterChef.sol\":33195:33202  _amount */\n      dup7\n        /* \"contracts/NFTMasterChef.sol\":33168:33203  Withdraw(msg.sender, _pid, _amount) */\n      mload(0x40)\n      tag_320\n      swap2\n      swap1\n      tag_51\n      jump\t// in\n    tag_320:\n      mload(0x40)\n      dup1\n      swap2\n      sub\n      swap1\n      log3\n        /* \"contracts/NFTMasterChef.sol\":32480:33211  {... */\n      pop\n      pop\n      pop\n        /* \"contracts/NFTMasterChef.sol\":32424:33211  function withdraw(uint256 _pid, uint256 _amount) public {... */\n      pop\n      pop\n      jump\t// out\n        /* \"contracts/NFTMasterChef.sol\":28887:29378  function migrate(uint256 _pid) public {... */\n    tag_95:\n        /* \"contracts/NFTMasterChef.sol\":28973:28974  0 */\n      0x00\n        /* \"contracts/NFTMasterChef.sol\":28944:28975  address(migrator) != address(0) */\n      0xffffffffffffffffffffffffffffffffffffffff\n      and\n        /* \"contracts/NFTMasterChef.sol\":28952:28960  migrator */\n      0x05\n      0x00\n      swap1\n      sload\n      swap1\n      0x0100\n      exp\n      swap1\n      div\n      0xffffffffffffffffffffffffffffffffffffffff\n      and\n        /* \"contracts/NFTMasterChef.sol\":28944:28975  address(migrator) != address(0) */\n      0xffffffffffffffffffffffffffffffffffffffff\n      and\n      sub\n        /* \"contracts/NFTMasterChef.sol\":28936:29000  require(address(migrator) != address(0), 'migrate: no migrator') */\n      tag_322\n      jumpi\n      mload(0x40)\n      0x08c379a000000000000000000000000000000000000000000000000000000000\n      dup2\n      mstore\n      0x04\n      add\n      tag_323\n      swap1\n      tag_324\n      jump\t// in\n    tag_323:\n      mload(0x40)\n      dup1\n      swap2\n      sub\n      swap1\n      revert\n    tag_322:\n        /* \"contracts/NFTMasterChef.sol\":29011:29032  PoolInfo storage pool */\n      0x00\n        /* \"contracts/NFTMasterChef.sol\":29035:29043  poolInfo */\n      0x06\n        /* \"contracts/NFTMasterChef.sol\":29044:29048  _pid */\n      dup3\n        /* \"contracts/NFTMasterChef.sol\":29035:29049  poolInfo[_pid] */\n      dup2\n      sload\n      dup2\n      lt\n      tag_325\n      jumpi\n      tag_326\n      tag_194\n      jump\t// in\n    tag_326:\n    tag_325:\n      swap1\n      0x00\n      mstore\n      keccak256(0x00, 0x20)\n      swap1\n      0x04\n      mul\n      add\n        /* \"contracts/NFTMasterChef.sol\":29011:29049  PoolInfo storage pool = poolInfo[_pid] */\n      swap1\n      pop\n        /* \"contracts/NFTMasterChef.sol\":29060:29074  IERC20 lpToken */\n      0x00\n        /* \"contracts/NFTMasterChef.sol\":29077:29081  pool */\n      dup2\n        /* \"contracts/NFTMasterChef.sol\":29077:29089  pool.lpToken */\n      0x00\n      add\n      0x00\n      swap1\n      sload\n      swap1\n      0x0100\n      exp\n      swap1\n      div\n      0xffffffffffffffffffffffffffffffffffffffff\n      and\n        /* \"contracts/NFTMasterChef.sol\":29060:29089  IERC20 lpToken = pool.lpToken */\n      swap1\n      pop\n        /* \"contracts/NFTMasterChef.sol\":29100:29111  uint256 bal */\n      0x00\n        /* \"contracts/NFTMasterChef.sol\":29114:29121  lpToken */\n      dup2\n        /* \"contracts/NFTMasterChef.sol\":29114:29131  lpToken.balanceOf */\n      0xffffffffffffffffffffffffffffffffffffffff\n      and\n      0x70a08231\n        /* \"contracts/NFTMasterChef.sol\":29140:29144  this */\n      address\n        /* \"contracts/NFTMasterChef.sol\":29114:29146  lpToken.balanceOf(address(this)) */\n      mload(0x40)\n      dup3\n      0xffffffff\n      and\n      0xe0\n      shl\n      dup2\n      mstore\n      0x04\n      add\n      tag_328\n      swap2\n      swap1\n      tag_79\n      jump\t// in\n    tag_328:\n      0x20\n      mload(0x40)\n      dup1\n      dup4\n      sub\n      dup2\n      dup7\n      gas\n      staticcall\n      iszero\n      dup1\n      iszero\n      tag_330\n      jumpi\n      returndatasize\n      0x00\n      dup1\n      returndatacopy\n      revert(0x00, returndatasize)\n    tag_330:\n      pop\n      pop\n      pop\n      pop\n      mload(0x40)\n      returndatasize\n      not(0x1f)\n      0x1f\n      dup3\n      add\n      and\n      dup3\n      add\n      dup1\n      0x40\n      mstore\n      pop\n      dup2\n      add\n      swap1\n      tag_331\n      swap2\n      swap1\n      tag_226\n      jump\t// in\n    tag_331:\n        /* \"contracts/NFTMasterChef.sol\":29100:29146  uint256 bal = lpToken.balanceOf(address(this)) */\n      swap1\n      pop\n        /* \"contracts/NFTMasterChef.sol\":29157:29200  lpToken.safeApprove(address(migrator), bal) */\n      tag_332\n        /* \"contracts/NFTMasterChef.sol\":29185:29193  migrator */\n      0x05\n      0x00\n      swap1\n      sload\n      swap1\n      0x0100\n      exp\n      swap1\n      div\n      0xffffffffffffffffffffffffffffffffffffffff\n      and\n        /* \"contracts/NFTMasterChef.sol\":29196:29199  bal */\n      dup3\n        /* \"contracts/NFTMasterChef.sol\":29157:29164  lpToken */\n      dup5\n        /* \"contracts/NFTMasterChef.sol\":29157:29176  lpToken.safeApprove */\n      0xffffffffffffffffffffffffffffffffffffffff\n      and\n      tag_333\n      swap1\n        /* \"contracts/NFTMasterChef.sol\":29157:29200  lpToken.safeApprove(address(migrator), bal) */\n      swap3\n      swap2\n      swap1\n      0xffffffff\n      and\n      jump\t// in\n    tag_332:\n        /* \"contracts/NFTMasterChef.sol\":29211:29228  IERC20 newLpToken */\n      0x00\n        /* \"contracts/NFTMasterChef.sol\":29231:29239  migrator */\n      0x05\n      0x00\n      swap1\n      sload\n      swap1\n      0x0100\n      exp\n      swap1\n      div\n      0xffffffffffffffffffffffffffffffffffffffff\n      and\n        /* \"contracts/NFTMasterChef.sol\":29231:29247  migrator.migrate */\n      0xffffffffffffffffffffffffffffffffffffffff\n      and\n      0xce5494bb\n        /* \"contracts/NFTMasterChef.sol\":29248:29255  lpToken */\n      dup5\n        /* \"contracts/NFTMasterChef.sol\":29231:29256  migrator.migrate(lpToken) */\n      mload(0x40)\n      dup3\n      0xffffffff\n      and\n      0xe0\n      shl\n      dup2\n      mstore\n      0x04\n      add\n      tag_334\n      swap2\n      swap1\n      tag_164\n      jump\t// in\n    tag_334:\n      0x20\n      mload(0x40)\n      dup1\n      dup4\n      sub\n      dup2\n      0x00\n      dup8\n      gas\n      call\n      iszero\n      dup1\n      iszero\n      tag_336\n      jumpi\n      returndatasize\n      0x00\n      dup1\n      returndatacopy\n      revert(0x00, returndatasize)\n    tag_336:\n      pop\n      pop\n      pop\n      pop\n      mload(0x40)\n      returndatasize\n      not(0x1f)\n      0x1f\n      dup3\n      add\n      and\n      dup3\n      add\n      dup1\n      0x40\n      mstore\n      pop\n      dup2\n      add\n      swap1\n      tag_337\n      swap2\n      swap1\n      tag_338\n      jump\t// in\n    tag_337:\n        /* \"contracts/NFTMasterChef.sol\":29211:29256  IERC20 newLpToken = migrator.migrate(lpToken) */\n      swap1\n      pop\n        /* \"contracts/NFTMasterChef.sol\":29282:29292  newLpToken */\n      dup1\n        /* \"contracts/NFTMasterChef.sol\":29282:29302  newLpToken.balanceOf */\n      0xffffffffffffffffffffffffffffffffffffffff\n      and\n      0x70a08231\n        /* \"contracts/NFTMasterChef.sol\":29311:29315  this */\n      address\n        /* \"contracts/NFTMasterChef.sol\":29282:29317  newLpToken.balanceOf(address(this)) */\n      mload(0x40)\n      dup3\n      0xffffffff\n      and\n      0xe0\n      shl\n      dup2\n      mstore\n      0x04\n      add\n      tag_339\n      swap2\n      swap1\n      tag_79\n      jump\t// in\n    tag_339:\n      0x20\n      mload(0x40)\n      dup1\n      dup4\n      sub\n      dup2\n      dup7\n      gas\n      staticcall\n      iszero\n      dup1\n      iszero\n      tag_341\n      jumpi\n      returndatasize\n      0x00\n      dup1\n      returndatacopy\n      revert(0x00, returndatasize)\n    tag_341:\n      pop\n      pop\n      pop\n      pop\n      mload(0x40)\n      returndatasize\n      not(0x1f)\n      0x1f\n      dup3\n      add\n      and\n      dup3\n      add\n      dup1\n      0x40\n      mstore\n      pop\n      dup2\n      add\n      swap1\n      tag_342\n      swap2\n      swap1\n      tag_226\n      jump\t// in\n    tag_342:\n        /* \"contracts/NFTMasterChef.sol\":29275:29278  bal */\n      dup3\n        /* \"contracts/NFTMasterChef.sol\":29275:29317  bal == newLpToken.balanceOf(address(this)) */\n      eq\n        /* \"contracts/NFTMasterChef.sol\":29267:29334  require(bal == newLpToken.balanceOf(address(this)), 'migrate: bad') */\n      tag_343\n      jumpi\n      mload(0x40)\n      0x08c379a000000000000000000000000000000000000000000000000000000000\n      dup2\n      mstore\n      0x04\n      add\n      tag_344\n      swap1\n      tag_345\n      jump\t// in\n    tag_344:\n      mload(0x40)\n      dup1\n      swap2\n      sub\n      swap1\n      revert\n    tag_343:\n        /* \"contracts/NFTMasterChef.sol\":29360:29370  newLpToken */\n      dup1\n        /* \"contracts/NFTMasterChef.sol\":29345:29349  pool */\n      dup5\n        /* \"contracts/NFTMasterChef.sol\":29345:29357  pool.lpToken */\n      0x00\n      add\n      0x00\n        /* \"contracts/NFTMasterChef.sol\":29345:29370  pool.lpToken = newLpToken */\n      0x0100\n      exp\n      dup2\n      sload\n      dup2\n      0xffffffffffffffffffffffffffffffffffffffff\n      mul\n      not\n      and\n      swap1\n      dup4\n      0xffffffffffffffffffffffffffffffffffffffff\n      and\n      mul\n      or\n      swap1\n      sstore\n      pop\n        /* \"contracts/NFTMasterChef.sol\":28925:29378  {... */\n      pop\n      pop\n      pop\n      pop\n        /* \"contracts/NFTMasterChef.sol\":28887:29378  function migrate(uint256 _pid) public {... */\n      pop\n      jump\t// out\n        /* \"contracts/NFTMasterChef.sol\":24276:24301  uint256 public startBlock */\n    tag_97:\n      sload(0x09)\n      dup2\n      jump\t// out\n        /* \"contracts/NFTMasterChef.sol\":25615:25821  function addNFT(IERC721 _NFT, uint256 _power) public onlyOwner {... */\n    tag_102:\n        /* \"contracts/NFTMasterChef.sol\":20336:20348  _msgSender() */\n      tag_347\n        /* \"contracts/NFTMasterChef.sol\":20336:20346  _msgSender */\n      tag_185\n        /* \"contracts/NFTMasterChef.sol\":20336:20348  _msgSender() */\n      jump\t// in\n    tag_347:\n        /* \"contracts/NFTMasterChef.sol\":20325:20348  owner() == _msgSender() */\n      0xffffffffffffffffffffffffffffffffffffffff\n      and\n        /* \"contracts/NFTMasterChef.sol\":20325:20332  owner() */\n      tag_348\n        /* \"contracts/NFTMasterChef.sol\":20325:20330  owner */\n      tag_146\n        /* \"contracts/NFTMasterChef.sol\":20325:20332  owner() */\n      jump\t// in\n    tag_348:\n        /* \"contracts/NFTMasterChef.sol\":20325:20348  owner() == _msgSender() */\n      0xffffffffffffffffffffffffffffffffffffffff\n      and\n      eq\n        /* \"contracts/NFTMasterChef.sol\":20317:20385  require(owner() == _msgSender(), \"Ownable: caller is not the owner\") */\n      tag_349\n      jumpi\n      mload(0x40)\n      0x08c379a000000000000000000000000000000000000000000000000000000000\n      dup2\n      mstore\n      0x04\n      add\n      tag_350\n      swap1\n      tag_189\n      jump\t// in\n    tag_350:\n      mload(0x40)\n      dup1\n      swap2\n      sub\n      swap1\n      revert\n    tag_349:\n        /* \"contracts/NFTMasterChef.sol\":25689:25697  nftsInfo */\n      0x01\n        /* \"contracts/NFTMasterChef.sol\":25717:25802  NFTsInfo({... */\n      mload(0x40)\n      dup1\n      0x40\n      add\n      0x40\n      mstore\n      dup1\n        /* \"contracts/NFTMasterChef.sol\":25750:25754  _NFT */\n      dup5\n        /* \"contracts/NFTMasterChef.sol\":25717:25802  NFTsInfo({... */\n      0xffffffffffffffffffffffffffffffffffffffff\n      and\n      dup2\n      mstore\n      0x20\n      add\n        /* \"contracts/NFTMasterChef.sol\":25780:25786  _power */\n      dup4\n        /* \"contracts/NFTMasterChef.sol\":25717:25802  NFTsInfo({... */\n      dup2\n      mstore\n      pop\n        /* \"contracts/NFTMasterChef.sol\":25689:25813  nftsInfo.push(... */\n      swap1\n      dup1\n      0x01\n      dup2\n      sload\n      add\n      dup1\n      dup3\n      sstore\n      dup1\n      swap2\n      pop\n      pop\n      0x01\n      swap1\n      sub\n      swap1\n      0x00\n      mstore\n      keccak256(0x00, 0x20)\n      swap1\n      0x02\n      mul\n      add\n      0x00\n      swap1\n      swap2\n      swap1\n      swap2\n      swap1\n      swap2\n      pop\n      0x00\n      dup3\n      add\n      mload\n      dup2\n      0x00\n      add\n      exp(0x0100, 0x00)\n      dup2\n      sload\n      dup2\n      0xffffffffffffffffffffffffffffffffffffffff\n      mul\n      not\n      and\n      swap1\n      dup4\n      0xffffffffffffffffffffffffffffffffffffffff\n      and\n      mul\n      or\n      swap1\n      sstore\n      pop\n      0x20\n      dup3\n      add\n      mload\n      dup2\n      0x01\n      add\n      sstore\n      pop\n      pop\n        /* \"contracts/NFTMasterChef.sol\":25615:25821  function addNFT(IERC721 _NFT, uint256 _power) public onlyOwner {... */\n      pop\n      pop\n      jump\t// out\n        /* \"contracts/NFTMasterChef.sol\":30769:31459  function updatePool(uint256 _pid) public {... */\n    tag_105:\n        /* \"contracts/NFTMasterChef.sol\":30821:30842  PoolInfo storage pool */\n      0x00\n        /* \"contracts/NFTMasterChef.sol\":30845:30853  poolInfo */\n      0x06\n        /* \"contracts/NFTMasterChef.sol\":30854:30858  _pid */\n      dup3\n        /* \"contracts/NFTMasterChef.sol\":30845:30859  poolInfo[_pid] */\n      dup2\n      sload\n      dup2\n      lt\n      tag_354\n      jumpi\n      tag_355\n      tag_194\n      jump\t// in\n    tag_355:\n    tag_354:\n      swap1\n      0x00\n      mstore\n      keccak256(0x00, 0x20)\n      swap1\n      0x04\n      mul\n      add\n        /* \"contracts/NFTMasterChef.sol\":30821:30859  PoolInfo storage pool = poolInfo[_pid] */\n      swap1\n      pop\n        /* \"contracts/NFTMasterChef.sol\":30890:30894  pool */\n      dup1\n        /* \"contracts/NFTMasterChef.sol\":30890:30910  pool.lastRewardBlock */\n      0x02\n      add\n      sload\n        /* \"contracts/NFTMasterChef.sol\":30874:30886  block.number */\n      number\n        /* \"contracts/NFTMasterChef.sol\":30874:30910  block.number <= pool.lastRewardBlock */\n      gt\n        /* \"contracts/NFTMasterChef.sol\":30870:30945  if (block.number <= pool.lastRewardBlock) {... */\n      tag_357\n      jumpi\n        /* \"contracts/NFTMasterChef.sol\":30927:30934  return; */\n      pop\n      jump(tag_353)\n        /* \"contracts/NFTMasterChef.sol\":30870:30945  if (block.number <= pool.lastRewardBlock) {... */\n    tag_357:\n        /* \"contracts/NFTMasterChef.sol\":30955:30971  uint256 lpSupply */\n      0x00\n        /* \"contracts/NFTMasterChef.sol\":30974:30978  pool */\n      dup2\n        /* \"contracts/NFTMasterChef.sol\":30974:30986  pool.lpToken */\n      0x00\n      add\n      0x00\n      swap1\n      sload\n      swap1\n      0x0100\n      exp\n      swap1\n      div\n      0xffffffffffffffffffffffffffffffffffffffff\n      and\n        /* \"contracts/NFTMasterChef.sol\":30974:30996  pool.lpToken.balanceOf */\n      0xffffffffffffffffffffffffffffffffffffffff\n      and\n      0x70a08231\n        /* \"contracts/NFTMasterChef.sol\":31005:31009  this */\n      address\n        /* \"contracts/NFTMasterChef.sol\":30974:31011  pool.lpToken.balanceOf(address(this)) */\n      mload(0x40)\n      dup3\n      0xffffffff\n      and\n      0xe0\n      shl\n      dup2\n      mstore\n      0x04\n      add\n      tag_358\n      swap2\n      swap1\n      tag_79\n      jump\t// in\n    tag_358:\n      0x20\n      mload(0x40)\n      dup1\n      dup4\n      sub\n      dup2\n      dup7\n      gas\n      staticcall\n      iszero\n      dup1\n      iszero\n      tag_360\n      jumpi\n      returndatasize\n      0x00\n      dup1\n      returndatacopy\n      revert(0x00, returndatasize)\n    tag_360:\n      pop\n      pop\n      pop\n      pop\n      mload(0x40)\n      returndatasize\n      not(0x1f)\n      0x1f\n      dup3\n      add\n      and\n      dup3\n      add\n      dup1\n      0x40\n      mstore\n      pop\n      dup2\n      add\n      swap1\n      tag_361\n      swap2\n      swap1\n      tag_226\n      jump\t// in\n    tag_361:\n        /* \"contracts/NFTMasterChef.sol\":30955:31011  uint256 lpSupply = pool.lpToken.balanceOf(address(this)) */\n      swap1\n      pop\n        /* \"contracts/NFTMasterChef.sol\":31038:31039  0 */\n      0x00\n        /* \"contracts/NFTMasterChef.sol\":31026:31034  lpSupply */\n      dup2\n        /* \"contracts/NFTMasterChef.sol\":31026:31039  lpSupply <= 0 */\n      gt\n        /* \"contracts/NFTMasterChef.sol\":31022:31124  if (lpSupply <= 0) {... */\n      tag_362\n      jumpi\n        /* \"contracts/NFTMasterChef.sol\":31079:31091  block.number */\n      number\n        /* \"contracts/NFTMasterChef.sol\":31056:31060  pool */\n      dup3\n        /* \"contracts/NFTMasterChef.sol\":31056:31076  pool.lastRewardBlock */\n      0x02\n      add\n        /* \"contracts/NFTMasterChef.sol\":31056:31091  pool.lastRewardBlock = block.number */\n      dup2\n      swap1\n      sstore\n      pop\n        /* \"contracts/NFTMasterChef.sol\":31106:31113  return; */\n      pop\n      pop\n      jump(tag_353)\n        /* \"contracts/NFTMasterChef.sol\":31022:31124  if (lpSupply <= 0) {... */\n    tag_362:\n        /* \"contracts/NFTMasterChef.sol\":31134:31152  uint256 multiplier */\n      0x00\n        /* \"contracts/NFTMasterChef.sol\":31155:31204  getMultiplier(pool.lastRewardBlock, block.number) */\n      tag_363\n        /* \"contracts/NFTMasterChef.sol\":31169:31173  pool */\n      dup4\n        /* \"contracts/NFTMasterChef.sol\":31169:31189  pool.lastRewardBlock */\n      0x02\n      add\n      sload\n        /* \"contracts/NFTMasterChef.sol\":31191:31203  block.number */\n      number\n        /* \"contracts/NFTMasterChef.sol\":31155:31168  getMultiplier */\n      tag_150\n        /* \"contracts/NFTMasterChef.sol\":31155:31204  getMultiplier(pool.lastRewardBlock, block.number) */\n      jump\t// in\n    tag_363:\n        /* \"contracts/NFTMasterChef.sol\":31134:31204  uint256 multiplier = getMultiplier(pool.lastRewardBlock, block.number) */\n      swap1\n      pop\n        /* \"contracts/NFTMasterChef.sol\":31215:31234  uint256 PowerReward */\n      0x00\n        /* \"contracts/NFTMasterChef.sol\":31237:31308  multiplier.mul(PowerPerBlock).mul(pool.allocPoint).div(totalAllocPoint) */\n      tag_364\n        /* \"contracts/NFTMasterChef.sol\":31292:31307  totalAllocPoint */\n      sload(0x08)\n        /* \"contracts/NFTMasterChef.sol\":31237:31287  multiplier.mul(PowerPerBlock).mul(pool.allocPoint) */\n      tag_365\n        /* \"contracts/NFTMasterChef.sol\":31271:31275  pool */\n      dup7\n        /* \"contracts/NFTMasterChef.sol\":31271:31286  pool.allocPoint */\n      0x01\n      add\n      sload\n        /* \"contracts/NFTMasterChef.sol\":31237:31266  multiplier.mul(PowerPerBlock) */\n      tag_366\n        /* \"contracts/NFTMasterChef.sol\":31252:31265  PowerPerBlock */\n      sload(0x03)\n        /* \"contracts/NFTMasterChef.sol\":31237:31247  multiplier */\n      dup8\n        /* \"contracts/NFTMasterChef.sol\":31237:31251  multiplier.mul */\n      tag_203\n      swap1\n        /* \"contracts/NFTMasterChef.sol\":31237:31266  multiplier.mul(PowerPerBlock) */\n      swap2\n      swap1\n      0xffffffff\n      and\n      jump\t// in\n    tag_366:\n        /* \"contracts/NFTMasterChef.sol\":31237:31270  multiplier.mul(PowerPerBlock).mul */\n      tag_203\n      swap1\n        /* \"contracts/NFTMasterChef.sol\":31237:31287  multiplier.mul(PowerPerBlock).mul(pool.allocPoint) */\n      swap2\n      swap1\n      0xffffffff\n      and\n      jump\t// in\n    tag_365:\n        /* \"contracts/NFTMasterChef.sol\":31237:31291  multiplier.mul(PowerPerBlock).mul(pool.allocPoint).div */\n      tag_204\n      swap1\n        /* \"contracts/NFTMasterChef.sol\":31237:31308  multiplier.mul(PowerPerBlock).mul(pool.allocPoint).div(totalAllocPoint) */\n      swap2\n      swap1\n      0xffffffff\n      and\n      jump\t// in\n    tag_364:\n        /* \"contracts/NFTMasterChef.sol\":31215:31308  uint256 PowerReward = multiplier.mul(PowerPerBlock).mul(pool.allocPoint).div(totalAllocPoint) */\n      swap1\n      pop\n        /* \"contracts/NFTMasterChef.sol\":31343:31405  pool.accPowerPerShare.add(PowerReward.mul(1e12).div(lpSupply)) */\n      tag_367\n        /* \"contracts/NFTMasterChef.sol\":31369:31404  PowerReward.mul(1e12).div(lpSupply) */\n      tag_368\n        /* \"contracts/NFTMasterChef.sol\":31395:31403  lpSupply */\n      dup5\n        /* \"contracts/NFTMasterChef.sol\":31369:31390  PowerReward.mul(1e12) */\n      tag_369\n        /* \"contracts/NFTMasterChef.sol\":31385:31389  1e12 */\n      0xe8d4a51000\n        /* \"contracts/NFTMasterChef.sol\":31369:31380  PowerReward */\n      dup6\n        /* \"contracts/NFTMasterChef.sol\":31369:31384  PowerReward.mul */\n      tag_203\n      swap1\n        /* \"contracts/NFTMasterChef.sol\":31369:31390  PowerReward.mul(1e12) */\n      swap2\n      swap1\n      0xffffffff\n      and\n      jump\t// in\n    tag_369:\n        /* \"contracts/NFTMasterChef.sol\":31369:31394  PowerReward.mul(1e12).div */\n      tag_204\n      swap1\n        /* \"contracts/NFTMasterChef.sol\":31369:31404  PowerReward.mul(1e12).div(lpSupply) */\n      swap2\n      swap1\n      0xffffffff\n      and\n      jump\t// in\n    tag_368:\n        /* \"contracts/NFTMasterChef.sol\":31343:31347  pool */\n      dup6\n        /* \"contracts/NFTMasterChef.sol\":31343:31364  pool.accPowerPerShare */\n      0x03\n      add\n      sload\n        /* \"contracts/NFTMasterChef.sol\":31343:31368  pool.accPowerPerShare.add */\n      tag_208\n      swap1\n        /* \"contracts/NFTMasterChef.sol\":31343:31405  pool.accPowerPerShare.add(PowerReward.mul(1e12).div(lpSupply)) */\n      swap2\n      swap1\n      0xffffffff\n      and\n      jump\t// in\n    tag_367:\n        /* \"contracts/NFTMasterChef.sol\":31319:31323  pool */\n      dup5\n        /* \"contracts/NFTMasterChef.sol\":31319:31340  pool.accPowerPerShare */\n      0x03\n      add\n        /* \"contracts/NFTMasterChef.sol\":31319:31405  pool.accPowerPerShare = pool.accPowerPerShare.add(PowerReward.mul(1e12).div(lpSupply)) */\n      dup2\n      swap1\n      sstore\n      pop\n        /* \"contracts/NFTMasterChef.sol\":31439:31451  block.number */\n      number\n        /* \"contracts/NFTMasterChef.sol\":31416:31420  pool */\n      dup5\n        /* \"contracts/NFTMasterChef.sol\":31416:31436  pool.lastRewardBlock */\n      0x02\n      add\n        /* \"contracts/NFTMasterChef.sol\":31416:31451  pool.lastRewardBlock = block.number */\n      dup2\n      swap1\n      sstore\n      pop\n        /* \"contracts/NFTMasterChef.sol\":30810:31459  {... */\n      pop\n      pop\n      pop\n      pop\n        /* \"contracts/NFTMasterChef.sol\":30769:31459  function updatePool(uint256 _pid) public {... */\n    tag_353:\n      pop\n      jump\t// out\n        /* \"contracts/NFTMasterChef.sol\":35974:36330  function emergencyWithdraw(uint256 _pid) public {... */\n    tag_108:\n        /* \"contracts/NFTMasterChef.sol\":36033:36054  PoolInfo storage pool */\n      0x00\n        /* \"contracts/NFTMasterChef.sol\":36057:36065  poolInfo */\n      0x06\n        /* \"contracts/NFTMasterChef.sol\":36066:36070  _pid */\n      dup3\n        /* \"contracts/NFTMasterChef.sol\":36057:36071  poolInfo[_pid] */\n      dup2\n      sload\n      dup2\n      lt\n      tag_371\n      jumpi\n      tag_372\n      tag_194\n      jump\t// in\n    tag_372:\n    tag_371:\n      swap1\n      0x00\n      mstore\n      keccak256(0x00, 0x20)\n      swap1\n      0x04\n      mul\n      add\n        /* \"contracts/NFTMasterChef.sol\":36033:36071  PoolInfo storage pool = poolInfo[_pid] */\n      swap1\n      pop\n        /* \"contracts/NFTMasterChef.sol\":36082:36103  UserInfo storage user */\n      0x00\n        /* \"contracts/NFTMasterChef.sol\":36106:36114  userInfo */\n      0x07\n        /* \"contracts/NFTMasterChef.sol\":36106:36120  userInfo[_pid] */\n      0x00\n        /* \"contracts/NFTMasterChef.sol\":36115:36119  _pid */\n      dup5\n        /* \"contracts/NFTMasterChef.sol\":36106:36120  userInfo[_pid] */\n      dup2\n      mstore\n      0x20\n      add\n      swap1\n      dup2\n      mstore\n      0x20\n      add\n      0x00\n      keccak256\n        /* \"contracts/NFTMasterChef.sol\":36106:36132  userInfo[_pid][msg.sender] */\n      0x00\n        /* \"contracts/NFTMasterChef.sol\":36121:36131  msg.sender */\n      caller\n        /* \"contracts/NFTMasterChef.sol\":36106:36132  userInfo[_pid][msg.sender] */\n      0xffffffffffffffffffffffffffffffffffffffff\n      and\n      0xffffffffffffffffffffffffffffffffffffffff\n      and\n      dup2\n      mstore\n      0x20\n      add\n      swap1\n      dup2\n      mstore\n      0x20\n      add\n      0x00\n      keccak256\n        /* \"contracts/NFTMasterChef.sol\":36082:36132  UserInfo storage user = userInfo[_pid][msg.sender] */\n      swap1\n      pop\n        /* \"contracts/NFTMasterChef.sol\":36143:36202  pool.lpToken.safeTransfer(address(msg.sender), user.amount) */\n      tag_374\n        /* \"contracts/NFTMasterChef.sol\":36177:36187  msg.sender */\n      caller\n        /* \"contracts/NFTMasterChef.sol\":36190:36194  user */\n      dup3\n        /* \"contracts/NFTMasterChef.sol\":36190:36201  user.amount */\n      0x00\n      add\n      sload\n        /* \"contracts/NFTMasterChef.sol\":36143:36147  pool */\n      dup5\n        /* \"contracts/NFTMasterChef.sol\":36143:36155  pool.lpToken */\n      0x00\n      add\n      0x00\n      swap1\n      sload\n      swap1\n      0x0100\n      exp\n      swap1\n      div\n      0xffffffffffffffffffffffffffffffffffffffff\n      and\n        /* \"contracts/NFTMasterChef.sol\":36143:36168  pool.lpToken.safeTransfer */\n      0xffffffffffffffffffffffffffffffffffffffff\n      and\n      tag_212\n      swap1\n        /* \"contracts/NFTMasterChef.sol\":36143:36202  pool.lpToken.safeTransfer(address(msg.sender), user.amount) */\n      swap3\n      swap2\n      swap1\n      0xffffffff\n      and\n      jump\t// in\n    tag_374:\n        /* \"contracts/NFTMasterChef.sol\":36248:36252  _pid */\n      dup3\n        /* \"contracts/NFTMasterChef.sol\":36236:36246  msg.sender */\n      caller\n        /* \"contracts/NFTMasterChef.sol\":36218:36266  EmergencyWithdraw(msg.sender, _pid, user.amount) */\n      0xffffffffffffffffffffffffffffffffffffffff\n      and\n      0xbb757047c2b5f3974fe26b7c10f732e7bce710b0952a71082702781e62ae0595\n        /* \"contracts/NFTMasterChef.sol\":36254:36258  user */\n      dup4\n        /* \"contracts/NFTMasterChef.sol\":36254:36265  user.amount */\n      0x00\n      add\n      sload\n        /* \"contracts/NFTMasterChef.sol\":36218:36266  EmergencyWithdraw(msg.sender, _pid, user.amount) */\n      mload(0x40)\n      tag_375\n      swap2\n      swap1\n      tag_51\n      jump\t// in\n    tag_375:\n      mload(0x40)\n      dup1\n      swap2\n      sub\n      swap1\n      log3\n        /* \"contracts/NFTMasterChef.sol\":36291:36292  0 */\n      0x00\n        /* \"contracts/NFTMasterChef.sol\":36277:36281  user */\n      dup2\n        /* \"contracts/NFTMasterChef.sol\":36277:36288  user.amount */\n      0x00\n      add\n        /* \"contracts/NFTMasterChef.sol\":36277:36292  user.amount = 0 */\n      dup2\n      swap1\n      sstore\n      pop\n        /* \"contracts/NFTMasterChef.sol\":36321:36322  0 */\n      0x00\n        /* \"contracts/NFTMasterChef.sol\":36303:36307  user */\n      dup2\n        /* \"contracts/NFTMasterChef.sol\":36303:36318  user.rewardDebt */\n      0x01\n      add\n        /* \"contracts/NFTMasterChef.sol\":36303:36322  user.rewardDebt = 0 */\n      dup2\n      swap1\n      sstore\n      pop\n        /* \"contracts/NFTMasterChef.sol\":36022:36330  {... */\n      pop\n      pop\n        /* \"contracts/NFTMasterChef.sol\":35974:36330  function emergencyWithdraw(uint256 _pid) public {... */\n      pop\n      jump\t// out\n        /* \"contracts/NFTMasterChef.sol\":25335:25481  function updateDDTMasterchefAddress(address _DDTMasterchefAddress) public onlyOwner{... */\n    tag_111:\n        /* \"contracts/NFTMasterChef.sol\":20336:20348  _msgSender() */\n      tag_377\n        /* \"contracts/NFTMasterChef.sol\":20336:20346  _msgSender */\n      tag_185\n        /* \"contracts/NFTMasterChef.sol\":20336:20348  _msgSender() */\n      jump\t// in\n    tag_377:\n        /* \"contracts/NFTMasterChef.sol\":20325:20348  owner() == _msgSender() */\n      0xffffffffffffffffffffffffffffffffffffffff\n      and\n        /* \"contracts/NFTMasterChef.sol\":20325:20332  owner() */\n      tag_378\n        /* \"contracts/NFTMasterChef.sol\":20325:20330  owner */\n      tag_146\n        /* \"contracts/NFTMasterChef.sol\":20325:20332  owner() */\n      jump\t// in\n    tag_378:\n        /* \"contracts/NFTMasterChef.sol\":20325:20348  owner() == _msgSender() */\n      0xffffffffffffffffffffffffffffffffffffffff\n      and\n      eq\n        /* \"contracts/NFTMasterChef.sol\":20317:20385  require(owner() == _msgSender(), \"Ownable: caller is not the owner\") */\n      tag_379\n      jumpi\n      mload(0x40)\n      0x08c379a000000000000000000000000000000000000000000000000000000000\n      dup2\n      mstore\n      0x04\n      add\n      tag_380\n      swap1\n      tag_189\n      jump\t// in\n    tag_380:\n      mload(0x40)\n      dup1\n      swap2\n      sub\n      swap1\n      revert\n    tag_379:\n        /* \"contracts/NFTMasterChef.sol\":25452:25473  _DDTMasterchefAddress */\n      dup1\n        /* \"contracts/NFTMasterChef.sol\":25429:25449  DDTMasterchefAddress */\n      0x0b\n      0x00\n        /* \"contracts/NFTMasterChef.sol\":25429:25473  DDTMasterchefAddress = _DDTMasterchefAddress */\n      0x0100\n      exp\n      dup2\n      sload\n      dup2\n      0xffffffffffffffffffffffffffffffffffffffff\n      mul\n      not\n      and\n      swap1\n      dup4\n      0xffffffffffffffffffffffffffffffffffffffff\n      and\n      mul\n      or\n      swap1\n      sstore\n      pop\n        /* \"contracts/NFTMasterChef.sol\":25335:25481  function updateDDTMasterchefAddress(address _DDTMasterchefAddress) public onlyOwner{... */\n      pop\n      jump\t// out\n        /* \"contracts/NFTMasterChef.sol\":23657:23685  uint256 public PowerPerBlock */\n    tag_113:\n      sload(0x03)\n      dup2\n      jump\t// out\n        /* \"contracts/NFTMasterChef.sol\":27229:27352  function updateMultiplier(uint256 multiplierNumber) public onlyOwner {... */\n    tag_117:\n        /* \"contracts/NFTMasterChef.sol\":20336:20348  _msgSender() */\n      tag_383\n        /* \"contracts/NFTMasterChef.sol\":20336:20346  _msgSender */\n      tag_185\n        /* \"contracts/NFTMasterChef.sol\":20336:20348  _msgSender() */\n      jump\t// in\n    tag_383:\n        /* \"contracts/NFTMasterChef.sol\":20325:20348  owner() == _msgSender() */\n      0xffffffffffffffffffffffffffffffffffffffff\n      and\n        /* \"contracts/NFTMasterChef.sol\":20325:20332  owner() */\n      tag_384\n        /* \"contracts/NFTMasterChef.sol\":20325:20330  owner */\n      tag_146\n        /* \"contracts/NFTMasterChef.sol\":20325:20332  owner() */\n      jump\t// in\n    tag_384:\n        /* \"contracts/NFTMasterChef.sol\":20325:20348  owner() == _msgSender() */\n      0xffffffffffffffffffffffffffffffffffffffff\n      and\n      eq\n        /* \"contracts/NFTMasterChef.sol\":20317:20385  require(owner() == _msgSender(), \"Ownable: caller is not the owner\") */\n      tag_385\n      jumpi\n      mload(0x40)\n      0x08c379a000000000000000000000000000000000000000000000000000000000\n      dup2\n      mstore\n      0x04\n      add\n      tag_386\n      swap1\n      tag_189\n      jump\t// in\n    tag_386:\n      mload(0x40)\n      dup1\n      swap2\n      sub\n      swap1\n      revert\n    tag_385:\n        /* \"contracts/NFTMasterChef.sol\":27328:27344  multiplierNumber */\n      dup1\n        /* \"contracts/NFTMasterChef.sol\":27309:27325  BONUS_MULTIPLIER */\n      0x04\n        /* \"contracts/NFTMasterChef.sol\":27309:27344  BONUS_MULTIPLIER = multiplierNumber */\n      dup2\n      swap1\n      sstore\n      pop\n        /* \"contracts/NFTMasterChef.sol\":27229:27352  function updateMultiplier(uint256 multiplierNumber) public onlyOwner {... */\n      pop\n      jump\t// out\n        /* \"contracts/NFTMasterChef.sol\":23533:23559  NFTsInfo[] public nftsInfo */\n    tag_120:\n      0x01\n      dup2\n      dup2\n      sload\n      dup2\n      lt\n      tag_388\n      jumpi\n      0x00\n      dup1\n      revert\n    tag_388:\n      swap1\n      0x00\n      mstore\n      keccak256(0x00, 0x20)\n      swap1\n      0x02\n      mul\n      add\n      0x00\n      swap2\n      pop\n      swap1\n      pop\n      dup1\n      0x00\n      add\n      0x00\n      swap1\n      sload\n      swap1\n      0x0100\n      exp\n      swap1\n      div\n      0xffffffffffffffffffffffffffffffffffffffff\n      and\n      swap1\n      dup1\n      0x01\n      add\n      sload\n      swap1\n      pop\n      dup3\n      jump\t// out\n        /* \"contracts/NFTMasterChef.sol\":30513:30693  function massUpdatePools() public {... */\n    tag_124:\n        /* \"contracts/NFTMasterChef.sol\":30558:30572  uint256 length */\n      0x00\n        /* \"contracts/NFTMasterChef.sol\":30575:30583  poolInfo */\n      0x06\n        /* \"contracts/NFTMasterChef.sol\":30575:30590  poolInfo.length */\n      dup1\n      sload\n      swap1\n      pop\n        /* \"contracts/NFTMasterChef.sol\":30558:30590  uint256 length = poolInfo.length */\n      swap1\n      pop\n        /* \"contracts/NFTMasterChef.sol\":30606:30617  uint256 pid */\n      0x00\n        /* \"contracts/NFTMasterChef.sol\":30601:30686  for (uint256 pid = 0; pid < length; ++pid) {... */\n    tag_391:\n        /* \"contracts/NFTMasterChef.sol\":30629:30635  length */\n      dup2\n        /* \"contracts/NFTMasterChef.sol\":30623:30626  pid */\n      dup2\n        /* \"contracts/NFTMasterChef.sol\":30623:30635  pid < length */\n      lt\n        /* \"contracts/NFTMasterChef.sol\":30601:30686  for (uint256 pid = 0; pid < length; ++pid) {... */\n      iszero\n      tag_392\n      jumpi\n        /* \"contracts/NFTMasterChef.sol\":30659:30674  updatePool(pid) */\n      tag_394\n        /* \"contracts/NFTMasterChef.sol\":30670:30673  pid */\n      dup2\n        /* \"contracts/NFTMasterChef.sol\":30659:30669  updatePool */\n      tag_105\n        /* \"contracts/NFTMasterChef.sol\":30659:30674  updatePool(pid) */\n      jump\t// in\n    tag_394:\n        /* \"contracts/NFTMasterChef.sol\":30637:30642  ++pid */\n      dup1\n      tag_395\n      swap1\n      tag_396\n      jump\t// in\n    tag_395:\n      swap1\n      pop\n        /* \"contracts/NFTMasterChef.sol\":30601:30686  for (uint256 pid = 0; pid < length; ++pid) {... */\n      jump(tag_391)\n    tag_392:\n      pop\n        /* \"contracts/NFTMasterChef.sol\":30547:30693  {... */\n      pop\n        /* \"contracts/NFTMasterChef.sol\":30513:30693  function massUpdatePools() public {... */\n      jump\t// out\n        /* \"contracts/NFTMasterChef.sol\":28281:28586  function set( uint256 _pid, uint256 _allocPoint, bool _withUpdate) public onlyOwner {... */\n    tag_128:\n        /* \"contracts/NFTMasterChef.sol\":20336:20348  _msgSender() */\n      tag_398\n        /* \"contracts/NFTMasterChef.sol\":20336:20346  _msgSender */\n      tag_185\n        /* \"contracts/NFTMasterChef.sol\":20336:20348  _msgSender() */\n      jump\t// in\n    tag_398:\n        /* \"contracts/NFTMasterChef.sol\":20325:20348  owner() == _msgSender() */\n      0xffffffffffffffffffffffffffffffffffffffff\n      and\n        /* \"contracts/NFTMasterChef.sol\":20325:20332  owner() */\n      tag_399\n        /* \"contracts/NFTMasterChef.sol\":20325:20330  owner */\n      tag_146\n        /* \"contracts/NFTMasterChef.sol\":20325:20332  owner() */\n      jump\t// in\n    tag_399:\n        /* \"contracts/NFTMasterChef.sol\":20325:20348  owner() == _msgSender() */\n      0xffffffffffffffffffffffffffffffffffffffff\n      and\n      eq\n        /* \"contracts/NFTMasterChef.sol\":20317:20385  require(owner() == _msgSender(), \"Ownable: caller is not the owner\") */\n      tag_400\n      jumpi\n      mload(0x40)\n      0x08c379a000000000000000000000000000000000000000000000000000000000\n      dup2\n      mstore\n      0x04\n      add\n      tag_401\n      swap1\n      tag_189\n      jump\t// in\n    tag_401:\n      mload(0x40)\n      dup1\n      swap2\n      sub\n      swap1\n      revert\n    tag_400:\n        /* \"contracts/NFTMasterChef.sol\":28380:28391  _withUpdate */\n      dup1\n        /* \"contracts/NFTMasterChef.sol\":28376:28437  if (_withUpdate) {... */\n      iszero\n      tag_403\n      jumpi\n        /* \"contracts/NFTMasterChef.sol\":28408:28425  massUpdatePools() */\n      tag_404\n        /* \"contracts/NFTMasterChef.sol\":28408:28423  massUpdatePools */\n      tag_124\n        /* \"contracts/NFTMasterChef.sol\":28408:28425  massUpdatePools() */\n      jump\t// in\n    tag_404:\n        /* \"contracts/NFTMasterChef.sol\":28376:28437  if (_withUpdate) {... */\n    tag_403:\n        /* \"contracts/NFTMasterChef.sol\":28465:28528  totalAllocPoint.sub(poolInfo[_pid].allocPoint).add(_allocPoint) */\n      tag_405\n        /* \"contracts/NFTMasterChef.sol\":28516:28527  _allocPoint */\n      dup3\n        /* \"contracts/NFTMasterChef.sol\":28465:28511  totalAllocPoint.sub(poolInfo[_pid].allocPoint) */\n      tag_406\n        /* \"contracts/NFTMasterChef.sol\":28485:28493  poolInfo */\n      0x06\n        /* \"contracts/NFTMasterChef.sol\":28494:28498  _pid */\n      dup7\n        /* \"contracts/NFTMasterChef.sol\":28485:28499  poolInfo[_pid] */\n      dup2\n      sload\n      dup2\n      lt\n      tag_407\n      jumpi\n      tag_408\n      tag_194\n      jump\t// in\n    tag_408:\n    tag_407:\n      swap1\n      0x00\n      mstore\n      keccak256(0x00, 0x20)\n      swap1\n      0x04\n      mul\n      add\n        /* \"contracts/NFTMasterChef.sol\":28485:28510  poolInfo[_pid].allocPoint */\n      0x01\n      add\n      sload\n        /* \"contracts/NFTMasterChef.sol\":28465:28480  totalAllocPoint */\n      sload(0x08)\n        /* \"contracts/NFTMasterChef.sol\":28465:28484  totalAllocPoint.sub */\n      tag_205\n      swap1\n        /* \"contracts/NFTMasterChef.sol\":28465:28511  totalAllocPoint.sub(poolInfo[_pid].allocPoint) */\n      swap2\n      swap1\n      0xffffffff\n      and\n      jump\t// in\n    tag_406:\n        /* \"contracts/NFTMasterChef.sol\":28465:28515  totalAllocPoint.sub(poolInfo[_pid].allocPoint).add */\n      tag_208\n      swap1\n        /* \"contracts/NFTMasterChef.sol\":28465:28528  totalAllocPoint.sub(poolInfo[_pid].allocPoint).add(_allocPoint) */\n      swap2\n      swap1\n      0xffffffff\n      and\n      jump\t// in\n    tag_405:\n        /* \"contracts/NFTMasterChef.sol\":28447:28462  totalAllocPoint */\n      0x08\n        /* \"contracts/NFTMasterChef.sol\":28447:28528  totalAllocPoint = totalAllocPoint.sub(poolInfo[_pid].allocPoint).add(_allocPoint) */\n      dup2\n      swap1\n      sstore\n      pop\n        /* \"contracts/NFTMasterChef.sol\":28567:28578  _allocPoint */\n      dup2\n        /* \"contracts/NFTMasterChef.sol\":28539:28547  poolInfo */\n      0x06\n        /* \"contracts/NFTMasterChef.sol\":28548:28552  _pid */\n      dup5\n        /* \"contracts/NFTMasterChef.sol\":28539:28553  poolInfo[_pid] */\n      dup2\n      sload\n      dup2\n      lt\n      tag_410\n      jumpi\n      tag_411\n      tag_194\n      jump\t// in\n    tag_411:\n    tag_410:\n      swap1\n      0x00\n      mstore\n      keccak256(0x00, 0x20)\n      swap1\n      0x04\n      mul\n      add\n        /* \"contracts/NFTMasterChef.sol\":28539:28564  poolInfo[_pid].allocPoint */\n      0x01\n      add\n        /* \"contracts/NFTMasterChef.sol\":28539:28578  poolInfo[_pid].allocPoint = _allocPoint */\n      dup2\n      swap1\n      sstore\n      pop\n        /* \"contracts/NFTMasterChef.sol\":28281:28586  function set( uint256 _pid, uint256 _allocPoint, bool _withUpdate) public onlyOwner {... */\n      pop\n      pop\n      pop\n      jump\t// out\n        /* \"contracts/NFTMasterChef.sol\":20756:20859  function renounceOwnership() public virtual onlyOwner {... */\n    tag_130:\n        /* \"contracts/NFTMasterChef.sol\":20336:20348  _msgSender() */\n      tag_414\n        /* \"contracts/NFTMasterChef.sol\":20336:20346  _msgSender */\n      tag_185\n        /* \"contracts/NFTMasterChef.sol\":20336:20348  _msgSender() */\n      jump\t// in\n    tag_414:\n        /* \"contracts/NFTMasterChef.sol\":20325:20348  owner() == _msgSender() */\n      0xffffffffffffffffffffffffffffffffffffffff\n      and\n        /* \"contracts/NFTMasterChef.sol\":20325:20332  owner() */\n      tag_415\n        /* \"contracts/NFTMasterChef.sol\":20325:20330  owner */\n      tag_146\n        /* \"contracts/NFTMasterChef.sol\":20325:20332  owner() */\n      jump\t// in\n    tag_415:\n        /* \"contracts/NFTMasterChef.sol\":20325:20348  owner() == _msgSender() */\n      0xffffffffffffffffffffffffffffffffffffffff\n      and\n      eq\n        /* \"contracts/NFTMasterChef.sol\":20317:20385  require(owner() == _msgSender(), \"Ownable: caller is not the owner\") */\n      tag_416\n      jumpi\n      mload(0x40)\n      0x08c379a000000000000000000000000000000000000000000000000000000000\n      dup2\n      mstore\n      0x04\n      add\n      tag_417\n      swap1\n      tag_189\n      jump\t// in\n    tag_417:\n      mload(0x40)\n      dup1\n      swap2\n      sub\n      swap1\n      revert\n    tag_416:\n        /* \"contracts/NFTMasterChef.sol\":20821:20851  _transferOwnership(address(0)) */\n      tag_419\n        /* \"contracts/NFTMasterChef.sol\":20848:20849  0 */\n      0x00\n        /* \"contracts/NFTMasterChef.sol\":20821:20839  _transferOwnership */\n      tag_420\n        /* \"contracts/NFTMasterChef.sol\":20821:20851  _transferOwnership(address(0)) */\n      jump\t// in\n    tag_419:\n        /* \"contracts/NFTMasterChef.sol\":20756:20859  function renounceOwnership() public virtual onlyOwner {... */\n      jump\t// out\n        /* \"contracts/NFTMasterChef.sol\":23880:23909  IMigratorChef public migrator */\n    tag_132:\n      0x05\n      0x00\n      swap1\n      sload\n      swap1\n      0x0100\n      exp\n      swap1\n      div\n      0xffffffffffffffffffffffffffffffffffffffff\n      and\n      dup2\n      jump\t// out\n        /* \"contracts/NFTMasterChef.sol\":24310:24340  address public NFTStakeAddress */\n    tag_136:\n      0x0a\n      0x00\n      swap1\n      sload\n      swap1\n      0x0100\n      exp\n      swap1\n      div\n      0xffffffffffffffffffffffffffffffffffffffff\n      and\n      dup2\n      jump\t// out\n        /* \"contracts/NFTMasterChef.sol\":23740:23775  uint256 public BONUS_MULTIPLIER = 1 */\n    tag_139:\n      sload(0x04)\n      dup2\n      jump\t// out\n        /* \"contracts/NFTMasterChef.sol\":25489:25607  function getPowerBalance(address account) public view returns(uint256) {... */\n    tag_143:\n        /* \"contracts/NFTMasterChef.sol\":25551:25558  uint256 */\n      0x00\n        /* \"contracts/NFTMasterChef.sol\":25578:25590  powerBalance */\n      0x0c\n        /* \"contracts/NFTMasterChef.sol\":25578:25599  powerBalance[account] */\n      0x00\n        /* \"contracts/NFTMasterChef.sol\":25591:25598  account */\n      dup4\n        /* \"contracts/NFTMasterChef.sol\":25578:25599  powerBalance[account] */\n      0xffffffffffffffffffffffffffffffffffffffff\n      and\n      0xffffffffffffffffffffffffffffffffffffffff\n      and\n      dup2\n      mstore\n      0x20\n      add\n      swap1\n      dup2\n      mstore\n      0x20\n      add\n      0x00\n      keccak256\n      sload\n        /* \"contracts/NFTMasterChef.sol\":25571:25599  return powerBalance[account] */\n      swap1\n      pop\n        /* \"contracts/NFTMasterChef.sol\":25489:25607  function getPowerBalance(address account) public view returns(uint256) {... */\n      swap2\n      swap1\n      pop\n      jump\t// out\n        /* \"contracts/NFTMasterChef.sol\":20105:20192  function owner() public view virtual returns (address) {... */\n    tag_146:\n        /* \"contracts/NFTMasterChef.sol\":20151:20158  address */\n      0x00\n        /* \"contracts/NFTMasterChef.sol\":20178:20184  _owner */\n      dup1\n      0x00\n      swap1\n      sload\n      swap1\n      0x0100\n      exp\n      swap1\n      div\n      0xffffffffffffffffffffffffffffffffffffffff\n      and\n        /* \"contracts/NFTMasterChef.sol\":20171:20184  return _owner */\n      swap1\n      pop\n        /* \"contracts/NFTMasterChef.sol\":20105:20192  function owner() public view virtual returns (address) {... */\n      swap1\n      jump\t// out\n        /* \"contracts/NFTMasterChef.sol\":29454:29598  function getMultiplier(uint256 _from, uint256 _to) public view returns (uint256) {... */\n    tag_150:\n        /* \"contracts/NFTMasterChef.sol\":29526:29533  uint256 */\n      0x00\n        /* \"contracts/NFTMasterChef.sol\":29554:29590  _to.sub(_from).mul(BONUS_MULTIPLIER) */\n      tag_424\n        /* \"contracts/NFTMasterChef.sol\":29573:29589  BONUS_MULTIPLIER */\n      sload(0x04)\n        /* \"contracts/NFTMasterChef.sol\":29554:29568  _to.sub(_from) */\n      tag_425\n        /* \"contracts/NFTMasterChef.sol\":29562:29567  _from */\n      dup6\n        /* \"contracts/NFTMasterChef.sol\":29554:29557  _to */\n      dup6\n        /* \"contracts/NFTMasterChef.sol\":29554:29561  _to.sub */\n      tag_205\n      swap1\n        /* \"contracts/NFTMasterChef.sol\":29554:29568  _to.sub(_from) */\n      swap2\n      swap1\n      0xffffffff\n      and\n      jump\t// in\n    tag_425:\n        /* \"contracts/NFTMasterChef.sol\":29554:29572  _to.sub(_from).mul */\n      tag_203\n      swap1\n        /* \"contracts/NFTMasterChef.sol\":29554:29590  _to.sub(_from).mul(BONUS_MULTIPLIER) */\n      swap2\n      swap1\n      0xffffffff\n      and\n      jump\t// in\n    tag_424:\n        /* \"contracts/NFTMasterChef.sol\":29547:29590  return _to.sub(_from).mul(BONUS_MULTIPLIER) */\n      swap1\n      pop\n        /* \"contracts/NFTMasterChef.sol\":29454:29598  function getMultiplier(uint256 _from, uint256 _to) public view returns (uint256) {... */\n      swap3\n      swap2\n      pop\n      pop\n      jump\t// out\n        /* \"contracts/NFTMasterChef.sol\":24025:24089  mapping(uint256 => mapping(address => UserInfo)) public userInfo */\n    tag_155:\n      mstore(0x20, 0x07)\n      dup2\n      0x00\n      mstore\n      mstore(0x20, keccak256(0x00, 0x40))\n      dup1\n      0x00\n      mstore\n      keccak256(0x00, 0x40)\n      0x00\n      swap2\n      pop\n      swap2\n      pop\n      pop\n      dup1\n      0x00\n      add\n      sload\n      swap1\n      dup1\n      0x01\n      add\n      sload\n      swap1\n      pop\n      dup3\n      jump\t// out\n        /* \"contracts/NFTMasterChef.sol\":25829:25945  function updateNFT(uint256 level, uint256 _power) public onlyOwner {... */\n    tag_160:\n        /* \"contracts/NFTMasterChef.sol\":20336:20348  _msgSender() */\n      tag_427\n        /* \"contracts/NFTMasterChef.sol\":20336:20346  _msgSender */\n      tag_185\n        /* \"contracts/NFTMasterChef.sol\":20336:20348  _msgSender() */\n      jump\t// in\n    tag_427:\n        /* \"contracts/NFTMasterChef.sol\":20325:20348  owner() == _msgSender() */\n      0xffffffffffffffffffffffffffffffffffffffff\n      and\n        /* \"contracts/NFTMasterChef.sol\":20325:20332  owner() */\n      tag_428\n        /* \"contracts/NFTMasterChef.sol\":20325:20330  owner */\n      tag_146\n        /* \"contracts/NFTMasterChef.sol\":20325:20332  owner() */\n      jump\t// in\n    tag_428:\n        /* \"contracts/NFTMasterChef.sol\":20325:20348  owner() == _msgSender() */\n      0xffffffffffffffffffffffffffffffffffffffff\n      and\n      eq\n        /* \"contracts/NFTMasterChef.sol\":20317:20385  require(owner() == _msgSender(), \"Ownable: caller is not the owner\") */\n      tag_429\n      jumpi\n      mload(0x40)\n      0x08c379a000000000000000000000000000000000000000000000000000000000\n      dup2\n      mstore\n      0x04\n      add\n      tag_430\n      swap1\n      tag_189\n      jump\t// in\n    tag_430:\n      mload(0x40)\n      dup1\n      swap2\n      sub\n      swap1\n      revert\n    tag_429:\n        /* \"contracts/NFTMasterChef.sol\":25931:25937  _power */\n      dup1\n        /* \"contracts/NFTMasterChef.sol\":25907:25915  nftsInfo */\n      0x01\n        /* \"contracts/NFTMasterChef.sol\":25916:25921  level */\n      dup4\n        /* \"contracts/NFTMasterChef.sol\":25907:25922  nftsInfo[level] */\n      dup2\n      sload\n      dup2\n      lt\n      tag_432\n      jumpi\n      tag_433\n      tag_194\n      jump\t// in\n    tag_433:\n    tag_432:\n      swap1\n      0x00\n      mstore\n      keccak256(0x00, 0x20)\n      swap1\n      0x02\n      mul\n      add\n        /* \"contracts/NFTMasterChef.sol\":25907:25928  nftsInfo[level].power */\n      0x01\n      add\n        /* \"contracts/NFTMasterChef.sol\":25907:25937  nftsInfo[level].power = _power */\n      dup2\n      swap1\n      sstore\n      pop\n        /* \"contracts/NFTMasterChef.sol\":25829:25945  function updateNFT(uint256 level, uint256 _power) public onlyOwner {... */\n      pop\n      pop\n      jump\t// out\n        /* \"contracts/NFTMasterChef.sol\":23593:23610  IERC20 public DDT */\n    tag_162:\n      0x02\n      0x00\n      swap1\n      sload\n      swap1\n      0x0100\n      exp\n      swap1\n      div\n      0xffffffffffffffffffffffffffffffffffffffff\n      and\n      dup2\n      jump\t// out\n        /* \"contracts/NFTMasterChef.sol\":34120:35094  function enterStakingCompund(uint256 _amount, address _account) public {... */\n    tag_167:\n        /* \"contracts/NFTMasterChef.sol\":34220:34221  0 */\n      0x00\n        /* \"contracts/NFTMasterChef.sol\":34210:34217  _amount */\n      dup3\n        /* \"contracts/NFTMasterChef.sol\":34210:34221  _amount > 0 */\n      gt\n        /* \"contracts/NFTMasterChef.sol\":34202:34240  require(_amount > 0, \"Amount is zero\") */\n      tag_436\n      jumpi\n      mload(0x40)\n      0x08c379a000000000000000000000000000000000000000000000000000000000\n      dup2\n      mstore\n      0x04\n      add\n      tag_437\n      swap1\n      tag_283\n      jump\t// in\n    tag_437:\n      mload(0x40)\n      dup1\n      swap2\n      sub\n      swap1\n      revert\n    tag_436:\n        /* \"contracts/NFTMasterChef.sol\":34273:34288  NFTStakeAddress */\n      0x0a\n      0x00\n      swap1\n      sload\n      swap1\n      0x0100\n      exp\n      swap1\n      div\n      0xffffffffffffffffffffffffffffffffffffffff\n      and\n        /* \"contracts/NFTMasterChef.sol\":34259:34288  msg.sender == NFTStakeAddress */\n      0xffffffffffffffffffffffffffffffffffffffff\n      and\n        /* \"contracts/NFTMasterChef.sol\":34259:34269  msg.sender */\n      caller\n        /* \"contracts/NFTMasterChef.sol\":34259:34288  msg.sender == NFTStakeAddress */\n      0xffffffffffffffffffffffffffffffffffffffff\n      and\n      eq\n        /* \"contracts/NFTMasterChef.sol\":34259:34326  msg.sender == NFTStakeAddress || msg.sender == DDTMasterchefAddress */\n      dup1\n      tag_438\n      jumpi\n      pop\n        /* \"contracts/NFTMasterChef.sol\":34306:34326  DDTMasterchefAddress */\n      0x0b\n      0x00\n      swap1\n      sload\n      swap1\n      0x0100\n      exp\n      swap1\n      div\n      0xffffffffffffffffffffffffffffffffffffffff\n      and\n        /* \"contracts/NFTMasterChef.sol\":34292:34326  msg.sender == DDTMasterchefAddress */\n      0xffffffffffffffffffffffffffffffffffffffff\n      and\n        /* \"contracts/NFTMasterChef.sol\":34292:34302  msg.sender */\n      caller\n        /* \"contracts/NFTMasterChef.sol\":34292:34326  msg.sender == DDTMasterchefAddress */\n      0xffffffffffffffffffffffffffffffffffffffff\n      and\n      eq\n        /* \"contracts/NFTMasterChef.sol\":34259:34326  msg.sender == NFTStakeAddress || msg.sender == DDTMasterchefAddress */\n    tag_438:\n        /* \"contracts/NFTMasterChef.sol\":34251:34351  require(msg.sender == NFTStakeAddress || msg.sender == DDTMasterchefAddress, \"Caller is not family\") */\n      tag_439\n      jumpi\n      mload(0x40)\n      0x08c379a000000000000000000000000000000000000000000000000000000000\n      dup2\n      mstore\n      0x04\n      add\n      tag_440\n      swap1\n      tag_441\n      jump\t// in\n    tag_440:\n      mload(0x40)\n      dup1\n      swap2\n      sub\n      swap1\n      revert\n    tag_439:\n        /* \"contracts/NFTMasterChef.sol\":34362:34383  PoolInfo storage pool */\n      0x00\n        /* \"contracts/NFTMasterChef.sol\":34386:34394  poolInfo */\n      0x06\n        /* \"contracts/NFTMasterChef.sol\":34395:34396  0 */\n      0x00\n        /* \"contracts/NFTMasterChef.sol\":34386:34397  poolInfo[0] */\n      dup2\n      sload\n      dup2\n      lt\n      tag_442\n      jumpi\n      tag_443\n      tag_194\n      jump\t// in\n    tag_443:\n    tag_442:\n      swap1\n      0x00\n      mstore\n      keccak256(0x00, 0x20)\n      swap1\n      0x04\n      mul\n      add\n        /* \"contracts/NFTMasterChef.sol\":34362:34397  PoolInfo storage pool = poolInfo[0] */\n      swap1\n      pop\n        /* \"contracts/NFTMasterChef.sol\":34408:34429  UserInfo storage user */\n      0x00\n        /* \"contracts/NFTMasterChef.sol\":34432:34440  userInfo */\n      0x07\n        /* \"contracts/NFTMasterChef.sol\":34432:34443  userInfo[0] */\n      0x00\n        /* \"contracts/NFTMasterChef.sol\":34441:34442  0 */\n      dup1\n        /* \"contracts/NFTMasterChef.sol\":34432:34443  userInfo[0] */\n      dup2\n      mstore\n      0x20\n      add\n      swap1\n      dup2\n      mstore\n      0x20\n      add\n      0x00\n      keccak256\n        /* \"contracts/NFTMasterChef.sol\":34432:34462  userInfo[0][address(_account)] */\n      0x00\n        /* \"contracts/NFTMasterChef.sol\":34452:34460  _account */\n      dup5\n        /* \"contracts/NFTMasterChef.sol\":34432:34462  userInfo[0][address(_account)] */\n      0xffffffffffffffffffffffffffffffffffffffff\n      and\n      0xffffffffffffffffffffffffffffffffffffffff\n      and\n      dup2\n      mstore\n      0x20\n      add\n      swap1\n      dup2\n      mstore\n      0x20\n      add\n      0x00\n      keccak256\n        /* \"contracts/NFTMasterChef.sol\":34408:34462  UserInfo storage user = userInfo[0][address(_account)] */\n      swap1\n      pop\n        /* \"contracts/NFTMasterChef.sol\":34483:34496  updatePool(0) */\n      tag_445\n        /* \"contracts/NFTMasterChef.sol\":34494:34495  0 */\n      0x00\n        /* \"contracts/NFTMasterChef.sol\":34483:34493  updatePool */\n      tag_105\n        /* \"contracts/NFTMasterChef.sol\":34483:34496  updatePool(0) */\n      jump\t// in\n    tag_445:\n        /* \"contracts/NFTMasterChef.sol\":34525:34526  0 */\n      0x00\n        /* \"contracts/NFTMasterChef.sol\":34511:34515  user */\n      dup2\n        /* \"contracts/NFTMasterChef.sol\":34511:34522  user.amount */\n      0x00\n      add\n      sload\n        /* \"contracts/NFTMasterChef.sol\":34511:34526  user.amount > 0 */\n      gt\n        /* \"contracts/NFTMasterChef.sol\":34507:34785  if (user.amount > 0) {... */\n      iszero\n      tag_446\n      jumpi\n        /* \"contracts/NFTMasterChef.sol\":34543:34558  uint256 pending */\n      0x00\n        /* \"contracts/NFTMasterChef.sol\":34561:34630  user.amount.mul(pool.accPowerPerShare).div(1e12).sub(user.rewardDebt) */\n      tag_447\n        /* \"contracts/NFTMasterChef.sol\":34614:34618  user */\n      dup3\n        /* \"contracts/NFTMasterChef.sol\":34614:34629  user.rewardDebt */\n      0x01\n      add\n      sload\n        /* \"contracts/NFTMasterChef.sol\":34561:34609  user.amount.mul(pool.accPowerPerShare).div(1e12) */\n      tag_448\n        /* \"contracts/NFTMasterChef.sol\":34604:34608  1e12 */\n      0xe8d4a51000\n        /* \"contracts/NFTMasterChef.sol\":34561:34599  user.amount.mul(pool.accPowerPerShare) */\n      tag_449\n        /* \"contracts/NFTMasterChef.sol\":34577:34581  pool */\n      dup8\n        /* \"contracts/NFTMasterChef.sol\":34577:34598  pool.accPowerPerShare */\n      0x03\n      add\n      sload\n        /* \"contracts/NFTMasterChef.sol\":34561:34565  user */\n      dup8\n        /* \"contracts/NFTMasterChef.sol\":34561:34572  user.amount */\n      0x00\n      add\n      sload\n        /* \"contracts/NFTMasterChef.sol\":34561:34576  user.amount.mul */\n      tag_203\n      swap1\n        /* \"contracts/NFTMasterChef.sol\":34561:34599  user.amount.mul(pool.accPowerPerShare) */\n      swap2\n      swap1\n      0xffffffff\n      and\n      jump\t// in\n    tag_449:\n        /* \"contracts/NFTMasterChef.sol\":34561:34603  user.amount.mul(pool.accPowerPerShare).div */\n      tag_204\n      swap1\n        /* \"contracts/NFTMasterChef.sol\":34561:34609  user.amount.mul(pool.accPowerPerShare).div(1e12) */\n      swap2\n      swap1\n      0xffffffff\n      and\n      jump\t// in\n    tag_448:\n        /* \"contracts/NFTMasterChef.sol\":34561:34613  user.amount.mul(pool.accPowerPerShare).div(1e12).sub */\n      tag_205\n      swap1\n        /* \"contracts/NFTMasterChef.sol\":34561:34630  user.amount.mul(pool.accPowerPerShare).div(1e12).sub(user.rewardDebt) */\n      swap2\n      swap1\n      0xffffffff\n      and\n      jump\t// in\n    tag_447:\n        /* \"contracts/NFTMasterChef.sol\":34543:34630  uint256 pending = user.amount.mul(pool.accPowerPerShare).div(1e12).sub(user.rewardDebt) */\n      swap1\n      pop\n        /* \"contracts/NFTMasterChef.sol\":34658:34659  0 */\n      0x00\n        /* \"contracts/NFTMasterChef.sol\":34648:34655  pending */\n      dup2\n        /* \"contracts/NFTMasterChef.sol\":34648:34659  pending > 0 */\n      gt\n        /* \"contracts/NFTMasterChef.sol\":34645:34774  if(pending > 0) {... */\n      iszero\n      tag_450\n      jumpi\n        /* \"contracts/NFTMasterChef.sol\":34714:34758  powerBalance[address(_account)].add(pending) */\n      tag_451\n        /* \"contracts/NFTMasterChef.sol\":34750:34757  pending */\n      dup2\n        /* \"contracts/NFTMasterChef.sol\":34714:34726  powerBalance */\n      0x0c\n        /* \"contracts/NFTMasterChef.sol\":34714:34745  powerBalance[address(_account)] */\n      0x00\n        /* \"contracts/NFTMasterChef.sol\":34735:34743  _account */\n      dup8\n        /* \"contracts/NFTMasterChef.sol\":34714:34745  powerBalance[address(_account)] */\n      0xffffffffffffffffffffffffffffffffffffffff\n      and\n      0xffffffffffffffffffffffffffffffffffffffff\n      and\n      dup2\n      mstore\n      0x20\n      add\n      swap1\n      dup2\n      mstore\n      0x20\n      add\n      0x00\n      keccak256\n      sload\n        /* \"contracts/NFTMasterChef.sol\":34714:34749  powerBalance[address(_account)].add */\n      tag_208\n      swap1\n        /* \"contracts/NFTMasterChef.sol\":34714:34758  powerBalance[address(_account)].add(pending) */\n      swap2\n      swap1\n      0xffffffff\n      and\n      jump\t// in\n    tag_451:\n        /* \"contracts/NFTMasterChef.sol\":34680:34692  powerBalance */\n      0x0c\n        /* \"contracts/NFTMasterChef.sol\":34680:34711  powerBalance[address(_account)] */\n      0x00\n        /* \"contracts/NFTMasterChef.sol\":34701:34709  _account */\n      dup7\n        /* \"contracts/NFTMasterChef.sol\":34680:34711  powerBalance[address(_account)] */\n      0xffffffffffffffffffffffffffffffffffffffff\n      and\n      0xffffffffffffffffffffffffffffffffffffffff\n      and\n      dup2\n      mstore\n      0x20\n      add\n      swap1\n      dup2\n      mstore\n      0x20\n      add\n      0x00\n      keccak256\n        /* \"contracts/NFTMasterChef.sol\":34680:34758  powerBalance[address(_account)] = powerBalance[address(_account)].add(pending) */\n      dup2\n      swap1\n      sstore\n      pop\n        /* \"contracts/NFTMasterChef.sol\":34645:34774  if(pending > 0) {... */\n    tag_450:\n        /* \"contracts/NFTMasterChef.sol\":34528:34785  {... */\n      pop\n        /* \"contracts/NFTMasterChef.sol\":34507:34785  if (user.amount > 0) {... */\n    tag_446:\n        /* \"contracts/NFTMasterChef.sol\":34808:34809  0 */\n      0x00\n        /* \"contracts/NFTMasterChef.sol\":34798:34805  _amount */\n      dup5\n        /* \"contracts/NFTMasterChef.sol\":34798:34809  _amount > 0 */\n      gt\n        /* \"contracts/NFTMasterChef.sol\":34795:34965  if(_amount > 0) {... */\n      iszero\n      tag_452\n      jumpi\n        /* \"contracts/NFTMasterChef.sol\":34826:34900  pool.lpToken.safeTransferFrom(address(msg.sender), address(this), _amount) */\n      tag_453\n        /* \"contracts/NFTMasterChef.sol\":34864:34874  msg.sender */\n      caller\n        /* \"contracts/NFTMasterChef.sol\":34885:34889  this */\n      address\n        /* \"contracts/NFTMasterChef.sol\":34892:34899  _amount */\n      dup7\n        /* \"contracts/NFTMasterChef.sol\":34826:34830  pool */\n      dup6\n        /* \"contracts/NFTMasterChef.sol\":34826:34838  pool.lpToken */\n      0x00\n      add\n      0x00\n      swap1\n      sload\n      swap1\n      0x0100\n      exp\n      swap1\n      div\n      0xffffffffffffffffffffffffffffffffffffffff\n      and\n        /* \"contracts/NFTMasterChef.sol\":34826:34855  pool.lpToken.safeTransferFrom */\n      0xffffffffffffffffffffffffffffffffffffffff\n      and\n      tag_296\n      swap1\n        /* \"contracts/NFTMasterChef.sol\":34826:34900  pool.lpToken.safeTransferFrom(address(msg.sender), address(this), _amount) */\n      swap4\n      swap3\n      swap2\n      swap1\n      0xffffffff\n      and\n      jump\t// in\n    tag_453:\n        /* \"contracts/NFTMasterChef.sol\":34929:34953  user.amount.add(_amount) */\n      tag_454\n        /* \"contracts/NFTMasterChef.sol\":34945:34952  _amount */\n      dup5\n        /* \"contracts/NFTMasterChef.sol\":34929:34933  user */\n      dup3\n        /* \"contracts/NFTMasterChef.sol\":34929:34940  user.amount */\n      0x00\n      add\n      sload\n        /* \"contracts/NFTMasterChef.sol\":34929:34944  user.amount.add */\n      tag_208\n      swap1\n        /* \"contracts/NFTMasterChef.sol\":34929:34953  user.amount.add(_amount) */\n      swap2\n      swap1\n      0xffffffff\n      and\n      jump\t// in\n    tag_454:\n        /* \"contracts/NFTMasterChef.sol\":34915:34919  user */\n      dup2\n        /* \"contracts/NFTMasterChef.sol\":34915:34926  user.amount */\n      0x00\n      add\n        /* \"contracts/NFTMasterChef.sol\":34915:34953  user.amount = user.amount.add(_amount) */\n      dup2\n      swap1\n      sstore\n      pop\n        /* \"contracts/NFTMasterChef.sol\":34795:34965  if(_amount > 0) {... */\n    tag_452:\n        /* \"contracts/NFTMasterChef.sol\":34993:35041  user.amount.mul(pool.accPowerPerShare).div(1e12) */\n      tag_455\n        /* \"contracts/NFTMasterChef.sol\":35036:35040  1e12 */\n      0xe8d4a51000\n        /* \"contracts/NFTMasterChef.sol\":34993:35031  user.amount.mul(pool.accPowerPerShare) */\n      tag_456\n        /* \"contracts/NFTMasterChef.sol\":35009:35013  pool */\n      dup5\n        /* \"contracts/NFTMasterChef.sol\":35009:35030  pool.accPowerPerShare */\n      0x03\n      add\n      sload\n        /* \"contracts/NFTMasterChef.sol\":34993:34997  user */\n      dup5\n        /* \"contracts/NFTMasterChef.sol\":34993:35004  user.amount */\n      0x00\n      add\n      sload\n        /* \"contracts/NFTMasterChef.sol\":34993:35008  user.amount.mul */\n      tag_203\n      swap1\n        /* \"contracts/NFTMasterChef.sol\":34993:35031  user.amount.mul(pool.accPowerPerShare) */\n      swap2\n      swap1\n      0xffffffff\n      and\n      jump\t// in\n    tag_456:\n        /* \"contracts/NFTMasterChef.sol\":34993:35035  user.amount.mul(pool.accPowerPerShare).div */\n      tag_204\n      swap1\n        /* \"contracts/NFTMasterChef.sol\":34993:35041  user.amount.mul(pool.accPowerPerShare).div(1e12) */\n      swap2\n      swap1\n      0xffffffff\n      and\n      jump\t// in\n    tag_455:\n        /* \"contracts/NFTMasterChef.sol\":34975:34979  user */\n      dup2\n        /* \"contracts/NFTMasterChef.sol\":34975:34990  user.rewardDebt */\n      0x01\n      add\n        /* \"contracts/NFTMasterChef.sol\":34975:35041  user.rewardDebt = user.amount.mul(pool.accPowerPerShare).div(1e12) */\n      dup2\n      swap1\n      sstore\n      pop\n        /* \"contracts/NFTMasterChef.sol\":35075:35076  0 */\n      0x00\n        /* \"contracts/NFTMasterChef.sol\":35065:35073  _account */\n      dup4\n        /* \"contracts/NFTMasterChef.sol\":35057:35086  Deposit(_account, 0, _amount) */\n      0xffffffffffffffffffffffffffffffffffffffff\n      and\n      0x90890809c654f11d6e72a28fa60149770a0d11ec6c92319d6ceb2bb0a4ea1a15\n        /* \"contracts/NFTMasterChef.sol\":35078:35085  _amount */\n      dup7\n        /* \"contracts/NFTMasterChef.sol\":35057:35086  Deposit(_account, 0, _amount) */\n      mload(0x40)\n      tag_457\n      swap2\n      swap1\n      tag_51\n      jump\t// in\n    tag_457:\n      mload(0x40)\n      dup1\n      swap2\n      sub\n      swap1\n      log3\n        /* \"contracts/NFTMasterChef.sol\":34191:35094  {... */\n      pop\n      pop\n        /* \"contracts/NFTMasterChef.sol\":34120:35094  function enterStakingCompund(uint256 _amount, address _account) public {... */\n      pop\n      pop\n      jump\t// out\n        /* \"contracts/NFTMasterChef.sol\":24391:24438  mapping(address => uint256) public powerBalance */\n    tag_170:\n      mstore(0x20, 0x0c)\n      dup1\n      0x00\n      mstore\n      keccak256(0x00, 0x40)\n      0x00\n      swap2\n      pop\n      swap1\n      pop\n      sload\n      dup2\n      jump\t// out\n        /* \"contracts/NFTMasterChef.sol\":31529:32372  function deposit(uint256 _pid, uint256 _amount) public {... */\n    tag_174:\n        /* \"contracts/NFTMasterChef.sol\":31612:31613  0 */\n      0x00\n        /* \"contracts/NFTMasterChef.sol\":31604:31608  _pid */\n      dup3\n        /* \"contracts/NFTMasterChef.sol\":31604:31613  _pid != 0 */\n      sub\n        /* \"contracts/NFTMasterChef.sol\":31595:31642  require (_pid != 0, \"deposit Power by staking\") */\n      tag_459\n      jumpi\n      mload(0x40)\n      0x08c379a000000000000000000000000000000000000000000000000000000000\n      dup2\n      mstore\n      0x04\n      add\n      tag_460\n      swap1\n      tag_461\n      jump\t// in\n    tag_460:\n      mload(0x40)\n      dup1\n      swap2\n      sub\n      swap1\n      revert\n    tag_459:\n        /* \"contracts/NFTMasterChef.sol\":31671:31672  0 */\n      0x00\n        /* \"contracts/NFTMasterChef.sol\":31661:31668  _amount */\n      dup2\n        /* \"contracts/NFTMasterChef.sol\":31661:31672  _amount > 0 */\n      gt\n        /* \"contracts/NFTMasterChef.sol\":31653:31691  require(_amount > 0, \"Amount is zero\") */\n      tag_462\n      jumpi\n      mload(0x40)\n      0x08c379a000000000000000000000000000000000000000000000000000000000\n      dup2\n      mstore\n      0x04\n      add\n      tag_463\n      swap1\n      tag_283\n      jump\t// in\n    tag_463:\n      mload(0x40)\n      dup1\n      swap2\n      sub\n      swap1\n      revert\n    tag_462:\n        /* \"contracts/NFTMasterChef.sol\":31704:31725  PoolInfo storage pool */\n      0x00\n        /* \"contracts/NFTMasterChef.sol\":31728:31736  poolInfo */\n      0x06\n        /* \"contracts/NFTMasterChef.sol\":31737:31741  _pid */\n      dup4\n        /* \"contracts/NFTMasterChef.sol\":31728:31742  poolInfo[_pid] */\n      dup2\n      sload\n      dup2\n      lt\n      tag_464\n      jumpi\n      tag_465\n      tag_194\n      jump\t// in\n    tag_465:\n    tag_464:\n      swap1\n      0x00\n      mstore\n      keccak256(0x00, 0x20)\n      swap1\n      0x04\n      mul\n      add\n        /* \"contracts/NFTMasterChef.sol\":31704:31742  PoolInfo storage pool = poolInfo[_pid] */\n      swap1\n      pop\n        /* \"contracts/NFTMasterChef.sol\":31753:31774  UserInfo storage user */\n      0x00\n        /* \"contracts/NFTMasterChef.sol\":31777:31785  userInfo */\n      0x07\n        /* \"contracts/NFTMasterChef.sol\":31777:31791  userInfo[_pid] */\n      0x00\n        /* \"contracts/NFTMasterChef.sol\":31786:31790  _pid */\n      dup6\n        /* \"contracts/NFTMasterChef.sol\":31777:31791  userInfo[_pid] */\n      dup2\n      mstore\n      0x20\n      add\n      swap1\n      dup2\n      mstore\n      0x20\n      add\n      0x00\n      keccak256\n        /* \"contracts/NFTMasterChef.sol\":31777:31803  userInfo[_pid][msg.sender] */\n      0x00\n        /* \"contracts/NFTMasterChef.sol\":31792:31802  msg.sender */\n      caller\n        /* \"contracts/NFTMasterChef.sol\":31777:31803  userInfo[_pid][msg.sender] */\n      0xffffffffffffffffffffffffffffffffffffffff\n      and\n      0xffffffffffffffffffffffffffffffffffffffff\n      and\n      dup2\n      mstore\n      0x20\n      add\n      swap1\n      dup2\n      mstore\n      0x20\n      add\n      0x00\n      keccak256\n        /* \"contracts/NFTMasterChef.sol\":31753:31803  UserInfo storage user = userInfo[_pid][msg.sender] */\n      swap1\n      pop\n        /* \"contracts/NFTMasterChef.sol\":31814:31830  updatePool(_pid) */\n      tag_467\n        /* \"contracts/NFTMasterChef.sol\":31825:31829  _pid */\n      dup5\n        /* \"contracts/NFTMasterChef.sol\":31814:31824  updatePool */\n      tag_105\n        /* \"contracts/NFTMasterChef.sol\":31814:31830  updatePool(_pid) */\n      jump\t// in\n    tag_467:\n        /* \"contracts/NFTMasterChef.sol\":31859:31860  0 */\n      0x00\n        /* \"contracts/NFTMasterChef.sol\":31845:31849  user */\n      dup2\n        /* \"contracts/NFTMasterChef.sol\":31845:31856  user.amount */\n      0x00\n      add\n      sload\n        /* \"contracts/NFTMasterChef.sol\":31845:31860  user.amount > 0 */\n      gt\n        /* \"contracts/NFTMasterChef.sol\":31841:32104  if (user.amount > 0) {... */\n      iszero\n      tag_468\n      jumpi\n        /* \"contracts/NFTMasterChef.sol\":31877:31892  uint256 pending */\n      0x00\n        /* \"contracts/NFTMasterChef.sol\":31895:31964  user.amount.mul(pool.accPowerPerShare).div(1e12).sub(user.rewardDebt) */\n      tag_469\n        /* \"contracts/NFTMasterChef.sol\":31948:31952  user */\n      dup3\n        /* \"contracts/NFTMasterChef.sol\":31948:31963  user.rewardDebt */\n      0x01\n      add\n      sload\n        /* \"contracts/NFTMasterChef.sol\":31895:31943  user.amount.mul(pool.accPowerPerShare).div(1e12) */\n      tag_470\n        /* \"contracts/NFTMasterChef.sol\":31938:31942  1e12 */\n      0xe8d4a51000\n        /* \"contracts/NFTMasterChef.sol\":31895:31933  user.amount.mul(pool.accPowerPerShare) */\n      tag_471\n        /* \"contracts/NFTMasterChef.sol\":31911:31915  pool */\n      dup8\n        /* \"contracts/NFTMasterChef.sol\":31911:31932  pool.accPowerPerShare */\n      0x03\n      add\n      sload\n        /* \"contracts/NFTMasterChef.sol\":31895:31899  user */\n      dup8\n        /* \"contracts/NFTMasterChef.sol\":31895:31906  user.amount */\n      0x00\n      add\n      sload\n        /* \"contracts/NFTMasterChef.sol\":31895:31910  user.amount.mul */\n      tag_203\n      swap1\n        /* \"contracts/NFTMasterChef.sol\":31895:31933  user.amount.mul(pool.accPowerPerShare) */\n      swap2\n      swap1\n      0xffffffff\n      and\n      jump\t// in\n    tag_471:\n        /* \"contracts/NFTMasterChef.sol\":31895:31937  user.amount.mul(pool.accPowerPerShare).div */\n      tag_204\n      swap1\n        /* \"contracts/NFTMasterChef.sol\":31895:31943  user.amount.mul(pool.accPowerPerShare).div(1e12) */\n      swap2\n      swap1\n      0xffffffff\n      and\n      jump\t// in\n    tag_470:\n        /* \"contracts/NFTMasterChef.sol\":31895:31947  user.amount.mul(pool.accPowerPerShare).div(1e12).sub */\n      tag_205\n      swap1\n        /* \"contracts/NFTMasterChef.sol\":31895:31964  user.amount.mul(pool.accPowerPerShare).div(1e12).sub(user.rewardDebt) */\n      swap2\n      swap1\n      0xffffffff\n      and\n      jump\t// in\n    tag_469:\n        /* \"contracts/NFTMasterChef.sol\":31877:31964  uint256 pending = user.amount.mul(pool.accPowerPerShare).div(1e12).sub(user.rewardDebt) */\n      swap1\n      pop\n        /* \"contracts/NFTMasterChef.sol\":31992:31993  0 */\n      0x00\n        /* \"contracts/NFTMasterChef.sol\":31982:31989  pending */\n      dup2\n        /* \"contracts/NFTMasterChef.sol\":31982:31993  pending > 0 */\n      gt\n        /* \"contracts/NFTMasterChef.sol\":31979:32093  if(pending > 0){... */\n      iszero\n      tag_472\n      jumpi\n        /* \"contracts/NFTMasterChef.sol\":32040:32077  powerBalance[msg.sender].add(pending) */\n      tag_473\n        /* \"contracts/NFTMasterChef.sol\":32069:32076  pending */\n      dup2\n        /* \"contracts/NFTMasterChef.sol\":32040:32052  powerBalance */\n      0x0c\n        /* \"contracts/NFTMasterChef.sol\":32040:32064  powerBalance[msg.sender] */\n      0x00\n        /* \"contracts/NFTMasterChef.sol\":32053:32063  msg.sender */\n      caller\n        /* \"contracts/NFTMasterChef.sol\":32040:32064  powerBalance[msg.sender] */\n      0xffffffffffffffffffffffffffffffffffffffff\n      and\n      0xffffffffffffffffffffffffffffffffffffffff\n      and\n      dup2\n      mstore\n      0x20\n      add\n      swap1\n      dup2\n      mstore\n      0x20\n      add\n      0x00\n      keccak256\n      sload\n        /* \"contracts/NFTMasterChef.sol\":32040:32068  powerBalance[msg.sender].add */\n      tag_208\n      swap1\n        /* \"contracts/NFTMasterChef.sol\":32040:32077  powerBalance[msg.sender].add(pending) */\n      swap2\n      swap1\n      0xffffffff\n      and\n      jump\t// in\n    tag_473:\n        /* \"contracts/NFTMasterChef.sol\":32013:32025  powerBalance */\n      0x0c\n        /* \"contracts/NFTMasterChef.sol\":32013:32037  powerBalance[msg.sender] */\n      0x00\n        /* \"contracts/NFTMasterChef.sol\":32026:32036  msg.sender */\n      caller\n        /* \"contracts/NFTMasterChef.sol\":32013:32037  powerBalance[msg.sender] */\n      0xffffffffffffffffffffffffffffffffffffffff\n      and\n      0xffffffffffffffffffffffffffffffffffffffff\n      and\n      dup2\n      mstore\n      0x20\n      add\n      swap1\n      dup2\n      mstore\n      0x20\n      add\n      0x00\n      keccak256\n        /* \"contracts/NFTMasterChef.sol\":32013:32077  powerBalance[msg.sender] = powerBalance[msg.sender].add(pending) */\n      dup2\n      swap1\n      sstore\n      pop\n        /* \"contracts/NFTMasterChef.sol\":31979:32093  if(pending > 0){... */\n    tag_472:\n        /* \"contracts/NFTMasterChef.sol\":31862:32104  {... */\n      pop\n        /* \"contracts/NFTMasterChef.sol\":31841:32104  if (user.amount > 0) {... */\n    tag_468:\n        /* \"contracts/NFTMasterChef.sol\":32114:32188  pool.lpToken.safeTransferFrom(address(msg.sender), address(this), _amount) */\n      tag_474\n        /* \"contracts/NFTMasterChef.sol\":32152:32162  msg.sender */\n      caller\n        /* \"contracts/NFTMasterChef.sol\":32173:32177  this */\n      address\n        /* \"contracts/NFTMasterChef.sol\":32180:32187  _amount */\n      dup6\n        /* \"contracts/NFTMasterChef.sol\":32114:32118  pool */\n      dup6\n        /* \"contracts/NFTMasterChef.sol\":32114:32126  pool.lpToken */\n      0x00\n      add\n      0x00\n      swap1\n      sload\n      swap1\n      0x0100\n      exp\n      swap1\n      div\n      0xffffffffffffffffffffffffffffffffffffffff\n      and\n        /* \"contracts/NFTMasterChef.sol\":32114:32143  pool.lpToken.safeTransferFrom */\n      0xffffffffffffffffffffffffffffffffffffffff\n      and\n      tag_296\n      swap1\n        /* \"contracts/NFTMasterChef.sol\":32114:32188  pool.lpToken.safeTransferFrom(address(msg.sender), address(this), _amount) */\n      swap4\n      swap3\n      swap2\n      swap1\n      0xffffffff\n      and\n      jump\t// in\n    tag_474:\n        /* \"contracts/NFTMasterChef.sol\":32213:32237  user.amount.add(_amount) */\n      tag_475\n        /* \"contracts/NFTMasterChef.sol\":32229:32236  _amount */\n      dup4\n        /* \"contracts/NFTMasterChef.sol\":32213:32217  user */\n      dup3\n        /* \"contracts/NFTMasterChef.sol\":32213:32224  user.amount */\n      0x00\n      add\n      sload\n        /* \"contracts/NFTMasterChef.sol\":32213:32228  user.amount.add */\n      tag_208\n      swap1\n        /* \"contracts/NFTMasterChef.sol\":32213:32237  user.amount.add(_amount) */\n      swap2\n      swap1\n      0xffffffff\n      and\n      jump\t// in\n    tag_475:\n        /* \"contracts/NFTMasterChef.sol\":32199:32203  user */\n      dup2\n        /* \"contracts/NFTMasterChef.sol\":32199:32210  user.amount */\n      0x00\n      add\n        /* \"contracts/NFTMasterChef.sol\":32199:32237  user.amount = user.amount.add(_amount) */\n      dup2\n      swap1\n      sstore\n      pop\n        /* \"contracts/NFTMasterChef.sol\":32266:32314  user.amount.mul(pool.accPowerPerShare).div(1e12) */\n      tag_476\n        /* \"contracts/NFTMasterChef.sol\":32309:32313  1e12 */\n      0xe8d4a51000\n        /* \"contracts/NFTMasterChef.sol\":32266:32304  user.amount.mul(pool.accPowerPerShare) */\n      tag_477\n        /* \"contracts/NFTMasterChef.sol\":32282:32286  pool */\n      dup5\n        /* \"contracts/NFTMasterChef.sol\":32282:32303  pool.accPowerPerShare */\n      0x03\n      add\n      sload\n        /* \"contracts/NFTMasterChef.sol\":32266:32270  user */\n      dup5\n        /* \"contracts/NFTMasterChef.sol\":32266:32277  user.amount */\n      0x00\n      add\n      sload\n        /* \"contracts/NFTMasterChef.sol\":32266:32281  user.amount.mul */\n      tag_203\n      swap1\n        /* \"contracts/NFTMasterChef.sol\":32266:32304  user.amount.mul(pool.accPowerPerShare) */\n      swap2\n      swap1\n      0xffffffff\n      and\n      jump\t// in\n    tag_477:\n        /* \"contracts/NFTMasterChef.sol\":32266:32308  user.amount.mul(pool.accPowerPerShare).div */\n      tag_204\n      swap1\n        /* \"contracts/NFTMasterChef.sol\":32266:32314  user.amount.mul(pool.accPowerPerShare).div(1e12) */\n      swap2\n      swap1\n      0xffffffff\n      and\n      jump\t// in\n    tag_476:\n        /* \"contracts/NFTMasterChef.sol\":32248:32252  user */\n      dup2\n        /* \"contracts/NFTMasterChef.sol\":32248:32263  user.rewardDebt */\n      0x01\n      add\n        /* \"contracts/NFTMasterChef.sol\":32248:32314  user.rewardDebt = user.amount.mul(pool.accPowerPerShare).div(1e12) */\n      dup2\n      swap1\n      sstore\n      pop\n        /* \"contracts/NFTMasterChef.sol\":32350:32354  _pid */\n      dup4\n        /* \"contracts/NFTMasterChef.sol\":32338:32348  msg.sender */\n      caller\n        /* \"contracts/NFTMasterChef.sol\":32330:32364  Deposit(msg.sender, _pid, _amount) */\n      0xffffffffffffffffffffffffffffffffffffffff\n      and\n      0x90890809c654f11d6e72a28fa60149770a0d11ec6c92319d6ceb2bb0a4ea1a15\n        /* \"contracts/NFTMasterChef.sol\":32356:32363  _amount */\n      dup6\n        /* \"contracts/NFTMasterChef.sol\":32330:32364  Deposit(msg.sender, _pid, _amount) */\n      mload(0x40)\n      tag_478\n      swap2\n      swap1\n      tag_51\n      jump\t// in\n    tag_478:\n      mload(0x40)\n      dup1\n      swap2\n      sub\n      swap1\n      log3\n        /* \"contracts/NFTMasterChef.sol\":31584:32372  {... */\n      pop\n      pop\n        /* \"contracts/NFTMasterChef.sol\":31529:32372  function deposit(uint256 _pid, uint256 _amount) public {... */\n      pop\n      pop\n      jump\t// out\n        /* \"contracts/NFTMasterChef.sol\":21014:21215  function transferOwnership(address newOwner) public virtual onlyOwner {... */\n    tag_177:\n        /* \"contracts/NFTMasterChef.sol\":20336:20348  _msgSender() */\n      tag_480\n        /* \"contracts/NFTMasterChef.sol\":20336:20346  _msgSender */\n      tag_185\n        /* \"contracts/NFTMasterChef.sol\":20336:20348  _msgSender() */\n      jump\t// in\n    tag_480:\n        /* \"contracts/NFTMasterChef.sol\":20325:20348  owner() == _msgSender() */\n      0xffffffffffffffffffffffffffffffffffffffff\n      and\n        /* \"contracts/NFTMasterChef.sol\":20325:20332  owner() */\n      tag_481\n        /* \"contracts/NFTMasterChef.sol\":20325:20330  owner */\n      tag_146\n        /* \"contracts/NFTMasterChef.sol\":20325:20332  owner() */\n      jump\t// in\n    tag_481:\n        /* \"contracts/NFTMasterChef.sol\":20325:20348  owner() == _msgSender() */\n      0xffffffffffffffffffffffffffffffffffffffff\n      and\n      eq\n        /* \"contracts/NFTMasterChef.sol\":20317:20385  require(owner() == _msgSender(), \"Ownable: caller is not the owner\") */\n      tag_482\n      jumpi\n      mload(0x40)\n      0x08c379a000000000000000000000000000000000000000000000000000000000\n      dup2\n      mstore\n      0x04\n      add\n      tag_483\n      swap1\n      tag_189\n      jump\t// in\n    tag_483:\n      mload(0x40)\n      dup1\n      swap2\n      sub\n      swap1\n      revert\n    tag_482:\n        /* \"contracts/NFTMasterChef.sol\":21123:21124  0 */\n      0x00\n        /* \"contracts/NFTMasterChef.sol\":21103:21125  newOwner != address(0) */\n      0xffffffffffffffffffffffffffffffffffffffff\n      and\n        /* \"contracts/NFTMasterChef.sol\":21103:21111  newOwner */\n      dup2\n        /* \"contracts/NFTMasterChef.sol\":21103:21125  newOwner != address(0) */\n      0xffffffffffffffffffffffffffffffffffffffff\n      and\n      sub\n        /* \"contracts/NFTMasterChef.sol\":21095:21168  require(newOwner != address(0), \"Ownable: new owner is the zero address\") */\n      tag_485\n      jumpi\n      mload(0x40)\n      0x08c379a000000000000000000000000000000000000000000000000000000000\n      dup2\n      mstore\n      0x04\n      add\n      tag_486\n      swap1\n      tag_487\n      jump\t// in\n    tag_486:\n      mload(0x40)\n      dup1\n      swap2\n      sub\n      swap1\n      revert\n    tag_485:\n        /* \"contracts/NFTMasterChef.sol\":21179:21207  _transferOwnership(newOwner) */\n      tag_488\n        /* \"contracts/NFTMasterChef.sol\":21198:21206  newOwner */\n      dup2\n        /* \"contracts/NFTMasterChef.sol\":21179:21197  _transferOwnership */\n      tag_420\n        /* \"contracts/NFTMasterChef.sol\":21179:21207  _transferOwnership(newOwner) */\n      jump\t// in\n    tag_488:\n        /* \"contracts/NFTMasterChef.sol\":21014:21215  function transferOwnership(address newOwner) public virtual onlyOwner {... */\n      pop\n      jump\t// out\n        /* \"contracts/NFTMasterChef.sol\":29663:30430  function pendingPower(uint256 _pid, address _user) external view returns (uint256){... */\n    tag_180:\n        /* \"contracts/NFTMasterChef.sol\":29737:29744  uint256 */\n      0x00\n        /* \"contracts/NFTMasterChef.sol\":29756:29777  PoolInfo storage pool */\n      dup1\n        /* \"contracts/NFTMasterChef.sol\":29780:29788  poolInfo */\n      0x06\n        /* \"contracts/NFTMasterChef.sol\":29789:29793  _pid */\n      dup5\n        /* \"contracts/NFTMasterChef.sol\":29780:29794  poolInfo[_pid] */\n      dup2\n      sload\n      dup2\n      lt\n      tag_490\n      jumpi\n      tag_491\n      tag_194\n      jump\t// in\n    tag_491:\n    tag_490:\n      swap1\n      0x00\n      mstore\n      keccak256(0x00, 0x20)\n      swap1\n      0x04\n      mul\n      add\n        /* \"contracts/NFTMasterChef.sol\":29756:29794  PoolInfo storage pool = poolInfo[_pid] */\n      swap1\n      pop\n        /* \"contracts/NFTMasterChef.sol\":29805:29826  UserInfo storage user */\n      0x00\n        /* \"contracts/NFTMasterChef.sol\":29829:29837  userInfo */\n      0x07\n        /* \"contracts/NFTMasterChef.sol\":29829:29843  userInfo[_pid] */\n      0x00\n        /* \"contracts/NFTMasterChef.sol\":29838:29842  _pid */\n      dup7\n        /* \"contracts/NFTMasterChef.sol\":29829:29843  userInfo[_pid] */\n      dup2\n      mstore\n      0x20\n      add\n      swap1\n      dup2\n      mstore\n      0x20\n      add\n      0x00\n      keccak256\n        /* \"contracts/NFTMasterChef.sol\":29829:29850  userInfo[_pid][_user] */\n      0x00\n        /* \"contracts/NFTMasterChef.sol\":29844:29849  _user */\n      dup6\n        /* \"contracts/NFTMasterChef.sol\":29829:29850  userInfo[_pid][_user] */\n      0xffffffffffffffffffffffffffffffffffffffff\n      and\n      0xffffffffffffffffffffffffffffffffffffffff\n      and\n      dup2\n      mstore\n      0x20\n      add\n      swap1\n      dup2\n      mstore\n      0x20\n      add\n      0x00\n      keccak256\n        /* \"contracts/NFTMasterChef.sol\":29805:29850  UserInfo storage user = userInfo[_pid][_user] */\n      swap1\n      pop\n        /* \"contracts/NFTMasterChef.sol\":29861:29885  uint256 accPowerPerShare */\n      0x00\n        /* \"contracts/NFTMasterChef.sol\":29888:29892  pool */\n      dup3\n        /* \"contracts/NFTMasterChef.sol\":29888:29909  pool.accPowerPerShare */\n      0x03\n      add\n      sload\n        /* \"contracts/NFTMasterChef.sol\":29861:29909  uint256 accPowerPerShare = pool.accPowerPerShare */\n      swap1\n      pop\n        /* \"contracts/NFTMasterChef.sol\":29920:29936  uint256 lpSupply */\n      0x00\n        /* \"contracts/NFTMasterChef.sol\":29939:29943  pool */\n      dup4\n        /* \"contracts/NFTMasterChef.sol\":29939:29951  pool.lpToken */\n      0x00\n      add\n      0x00\n      swap1\n      sload\n      swap1\n      0x0100\n      exp\n      swap1\n      div\n      0xffffffffffffffffffffffffffffffffffffffff\n      and\n        /* \"contracts/NFTMasterChef.sol\":29939:29961  pool.lpToken.balanceOf */\n      0xffffffffffffffffffffffffffffffffffffffff\n      and\n      0x70a08231\n        /* \"contracts/NFTMasterChef.sol\":29970:29974  this */\n      address\n        /* \"contracts/NFTMasterChef.sol\":29939:29976  pool.lpToken.balanceOf(address(this)) */\n      mload(0x40)\n      dup3\n      0xffffffff\n      and\n      0xe0\n      shl\n      dup2\n      mstore\n      0x04\n      add\n      tag_493\n      swap2\n      swap1\n      tag_79\n      jump\t// in\n    tag_493:\n      0x20\n      mload(0x40)\n      dup1\n      dup4\n      sub\n      dup2\n      dup7\n      gas\n      staticcall\n      iszero\n      dup1\n      iszero\n      tag_495\n      jumpi\n      returndatasize\n      0x00\n      dup1\n      returndatacopy\n      revert(0x00, returndatasize)\n    tag_495:\n      pop\n      pop\n      pop\n      pop\n      mload(0x40)\n      returndatasize\n      not(0x1f)\n      0x1f\n      dup3\n      add\n      and\n      dup3\n      add\n      dup1\n      0x40\n      mstore\n      pop\n      dup2\n      add\n      swap1\n      tag_496\n      swap2\n      swap1\n      tag_226\n      jump\t// in\n    tag_496:\n        /* \"contracts/NFTMasterChef.sol\":29920:29976  uint256 lpSupply = pool.lpToken.balanceOf(address(this)) */\n      swap1\n      pop\n        /* \"contracts/NFTMasterChef.sol\":30006:30010  pool */\n      dup4\n        /* \"contracts/NFTMasterChef.sol\":30006:30026  pool.lastRewardBlock */\n      0x02\n      add\n      sload\n        /* \"contracts/NFTMasterChef.sol\":29991:30003  block.number */\n      number\n        /* \"contracts/NFTMasterChef.sol\":29991:30026  block.number > pool.lastRewardBlock */\n      gt\n        /* \"contracts/NFTMasterChef.sol\":29991:30043  block.number > pool.lastRewardBlock && lpSupply != 0 */\n      dup1\n      iszero\n      tag_497\n      jumpi\n      pop\n        /* \"contracts/NFTMasterChef.sol\":30042:30043  0 */\n      0x00\n        /* \"contracts/NFTMasterChef.sol\":30030:30038  lpSupply */\n      dup2\n        /* \"contracts/NFTMasterChef.sol\":30030:30043  lpSupply != 0 */\n      eq\n      iszero\n        /* \"contracts/NFTMasterChef.sol\":29991:30043  block.number > pool.lastRewardBlock && lpSupply != 0 */\n    tag_497:\n        /* \"contracts/NFTMasterChef.sol\":29987:30341  if (block.number > pool.lastRewardBlock && lpSupply != 0) {... */\n      iszero\n      tag_498\n      jumpi\n        /* \"contracts/NFTMasterChef.sol\":30060:30078  uint256 multiplier */\n      0x00\n        /* \"contracts/NFTMasterChef.sol\":30081:30130  getMultiplier(pool.lastRewardBlock, block.number) */\n      tag_499\n        /* \"contracts/NFTMasterChef.sol\":30095:30099  pool */\n      dup6\n        /* \"contracts/NFTMasterChef.sol\":30095:30115  pool.lastRewardBlock */\n      0x02\n      add\n      sload\n        /* \"contracts/NFTMasterChef.sol\":30117:30129  block.number */\n      number\n        /* \"contracts/NFTMasterChef.sol\":30081:30094  getMultiplier */\n      tag_150\n        /* \"contracts/NFTMasterChef.sol\":30081:30130  getMultiplier(pool.lastRewardBlock, block.number) */\n      jump\t// in\n    tag_499:\n        /* \"contracts/NFTMasterChef.sol\":30060:30130  uint256 multiplier = getMultiplier(pool.lastRewardBlock, block.number) */\n      swap1\n      pop\n        /* \"contracts/NFTMasterChef.sol\":30145:30164  uint256 PowerReward */\n      0x00\n        /* \"contracts/NFTMasterChef.sol\":30167:30238  multiplier.mul(PowerPerBlock).mul(pool.allocPoint).div(totalAllocPoint) */\n      tag_500\n        /* \"contracts/NFTMasterChef.sol\":30222:30237  totalAllocPoint */\n      sload(0x08)\n        /* \"contracts/NFTMasterChef.sol\":30167:30217  multiplier.mul(PowerPerBlock).mul(pool.allocPoint) */\n      tag_501\n        /* \"contracts/NFTMasterChef.sol\":30201:30205  pool */\n      dup9\n        /* \"contracts/NFTMasterChef.sol\":30201:30216  pool.allocPoint */\n      0x01\n      add\n      sload\n        /* \"contracts/NFTMasterChef.sol\":30167:30196  multiplier.mul(PowerPerBlock) */\n      tag_502\n        /* \"contracts/NFTMasterChef.sol\":30182:30195  PowerPerBlock */\n      sload(0x03)\n        /* \"contracts/NFTMasterChef.sol\":30167:30177  multiplier */\n      dup8\n        /* \"contracts/NFTMasterChef.sol\":30167:30181  multiplier.mul */\n      tag_203\n      swap1\n        /* \"contracts/NFTMasterChef.sol\":30167:30196  multiplier.mul(PowerPerBlock) */\n      swap2\n      swap1\n      0xffffffff\n      and\n      jump\t// in\n    tag_502:\n        /* \"contracts/NFTMasterChef.sol\":30167:30200  multiplier.mul(PowerPerBlock).mul */\n      tag_203\n      swap1\n        /* \"contracts/NFTMasterChef.sol\":30167:30217  multiplier.mul(PowerPerBlock).mul(pool.allocPoint) */\n      swap2\n      swap1\n      0xffffffff\n      and\n      jump\t// in\n    tag_501:\n        /* \"contracts/NFTMasterChef.sol\":30167:30221  multiplier.mul(PowerPerBlock).mul(pool.allocPoint).div */\n      tag_204\n      swap1\n        /* \"contracts/NFTMasterChef.sol\":30167:30238  multiplier.mul(PowerPerBlock).mul(pool.allocPoint).div(totalAllocPoint) */\n      swap2\n      swap1\n      0xffffffff\n      and\n      jump\t// in\n    tag_500:\n        /* \"contracts/NFTMasterChef.sol\":30145:30238  uint256 PowerReward = multiplier.mul(PowerPerBlock).mul(pool.allocPoint).div(totalAllocPoint) */\n      swap1\n      pop\n        /* \"contracts/NFTMasterChef.sol\":30272:30329  accPowerPerShare.add(PowerReward.mul(1e12).div(lpSupply)) */\n      tag_503\n        /* \"contracts/NFTMasterChef.sol\":30293:30328  PowerReward.mul(1e12).div(lpSupply) */\n      tag_504\n        /* \"contracts/NFTMasterChef.sol\":30319:30327  lpSupply */\n      dup5\n        /* \"contracts/NFTMasterChef.sol\":30293:30314  PowerReward.mul(1e12) */\n      tag_505\n        /* \"contracts/NFTMasterChef.sol\":30309:30313  1e12 */\n      0xe8d4a51000\n        /* \"contracts/NFTMasterChef.sol\":30293:30304  PowerReward */\n      dup6\n        /* \"contracts/NFTMasterChef.sol\":30293:30308  PowerReward.mul */\n      tag_203\n      swap1\n        /* \"contracts/NFTMasterChef.sol\":30293:30314  PowerReward.mul(1e12) */\n      swap2\n      swap1\n      0xffffffff\n      and\n      jump\t// in\n    tag_505:\n        /* \"contracts/NFTMasterChef.sol\":30293:30318  PowerReward.mul(1e12).div */\n      tag_204\n      swap1\n        /* \"contracts/NFTMasterChef.sol\":30293:30328  PowerReward.mul(1e12).div(lpSupply) */\n      swap2\n      swap1\n      0xffffffff\n      and\n      jump\t// in\n    tag_504:\n        /* \"contracts/NFTMasterChef.sol\":30272:30288  accPowerPerShare */\n      dup6\n        /* \"contracts/NFTMasterChef.sol\":30272:30292  accPowerPerShare.add */\n      tag_208\n      swap1\n        /* \"contracts/NFTMasterChef.sol\":30272:30329  accPowerPerShare.add(PowerReward.mul(1e12).div(lpSupply)) */\n      swap2\n      swap1\n      0xffffffff\n      and\n      jump\t// in\n    tag_503:\n        /* \"contracts/NFTMasterChef.sol\":30253:30329  accPowerPerShare = accPowerPerShare.add(PowerReward.mul(1e12).div(lpSupply)) */\n      swap4\n      pop\n        /* \"contracts/NFTMasterChef.sol\":30045:30341  {... */\n      pop\n      pop\n        /* \"contracts/NFTMasterChef.sol\":29987:30341  if (block.number > pool.lastRewardBlock && lpSupply != 0) {... */\n    tag_498:\n        /* \"contracts/NFTMasterChef.sol\":30358:30422  user.amount.mul(accPowerPerShare).div(1e12).sub(user.rewardDebt) */\n      tag_506\n        /* \"contracts/NFTMasterChef.sol\":30406:30410  user */\n      dup4\n        /* \"contracts/NFTMasterChef.sol\":30406:30421  user.rewardDebt */\n      0x01\n      add\n      sload\n        /* \"contracts/NFTMasterChef.sol\":30358:30401  user.amount.mul(accPowerPerShare).div(1e12) */\n      tag_507\n        /* \"contracts/NFTMasterChef.sol\":30396:30400  1e12 */\n      0xe8d4a51000\n        /* \"contracts/NFTMasterChef.sol\":30358:30391  user.amount.mul(accPowerPerShare) */\n      tag_508\n        /* \"contracts/NFTMasterChef.sol\":30374:30390  accPowerPerShare */\n      dup7\n        /* \"contracts/NFTMasterChef.sol\":30358:30362  user */\n      dup9\n        /* \"contracts/NFTMasterChef.sol\":30358:30369  user.amount */\n      0x00\n      add\n      sload\n        /* \"contracts/NFTMasterChef.sol\":30358:30373  user.amount.mul */\n      tag_203\n      swap1\n        /* \"contracts/NFTMasterChef.sol\":30358:30391  user.amount.mul(accPowerPerShare) */\n      swap2\n      swap1\n      0xffffffff\n      and\n      jump\t// in\n    tag_508:\n        /* \"contracts/NFTMasterChef.sol\":30358:30395  user.amount.mul(accPowerPerShare).div */\n      tag_204\n      swap1\n        /* \"contracts/NFTMasterChef.sol\":30358:30401  user.amount.mul(accPowerPerShare).div(1e12) */\n      swap2\n      swap1\n      0xffffffff\n      and\n      jump\t// in\n    tag_507:\n        /* \"contracts/NFTMasterChef.sol\":30358:30405  user.amount.mul(accPowerPerShare).div(1e12).sub */\n      tag_205\n      swap1\n        /* \"contracts/NFTMasterChef.sol\":30358:30422  user.amount.mul(accPowerPerShare).div(1e12).sub(user.rewardDebt) */\n      swap2\n      swap1\n      0xffffffff\n      and\n      jump\t// in\n    tag_506:\n        /* \"contracts/NFTMasterChef.sol\":30351:30422  return user.amount.mul(accPowerPerShare).div(1e12).sub(user.rewardDebt) */\n      swap5\n      pop\n      pop\n      pop\n      pop\n      pop\n        /* \"contracts/NFTMasterChef.sol\":29663:30430  function pendingPower(uint256 _pid, address _user) external view returns (uint256){... */\n      swap3\n      swap2\n      pop\n      pop\n      jump\t// out\n        /* \"contracts/NFTMasterChef.sol\":19479:19577  function _msgSender() internal view virtual returns (address) {... */\n    tag_185:\n        /* \"contracts/NFTMasterChef.sol\":19532:19539  address */\n      0x00\n        /* \"contracts/NFTMasterChef.sol\":19559:19569  msg.sender */\n      caller\n        /* \"contracts/NFTMasterChef.sol\":19552:19569  return msg.sender */\n      swap1\n      pop\n        /* \"contracts/NFTMasterChef.sol\":19479:19577  function _msgSender() internal view virtual returns (address) {... */\n      swap1\n      jump\t// out\n        /* \"contracts/NFTMasterChef.sol\":1757:2228  function mul(uint256 a, uint256 b) internal pure returns (uint256) {... */\n    tag_203:\n        /* \"contracts/NFTMasterChef.sol\":1815:1822  uint256 */\n      0x00\n        /* \"contracts/NFTMasterChef.sol\":2065:2066  0 */\n      dup1\n        /* \"contracts/NFTMasterChef.sol\":2060:2061  a */\n      dup4\n        /* \"contracts/NFTMasterChef.sol\":2060:2066  a == 0 */\n      sub\n        /* \"contracts/NFTMasterChef.sol\":2056:2103  if (a == 0) {... */\n      tag_511\n      jumpi\n        /* \"contracts/NFTMasterChef.sol\":2090:2091  0 */\n      0x00\n        /* \"contracts/NFTMasterChef.sol\":2083:2091  return 0 */\n      swap1\n      pop\n      jump(tag_510)\n        /* \"contracts/NFTMasterChef.sol\":2056:2103  if (a == 0) {... */\n    tag_511:\n        /* \"contracts/NFTMasterChef.sol\":2115:2124  uint256 c */\n      0x00\n        /* \"contracts/NFTMasterChef.sol\":2131:2132  b */\n      dup3\n        /* \"contracts/NFTMasterChef.sol\":2127:2128  a */\n      dup5\n        /* \"contracts/NFTMasterChef.sol\":2127:2132  a * b */\n      tag_512\n      swap2\n      swap1\n      tag_513\n      jump\t// in\n    tag_512:\n        /* \"contracts/NFTMasterChef.sol\":2115:2132  uint256 c = a * b */\n      swap1\n      pop\n        /* \"contracts/NFTMasterChef.sol\":2160:2161  b */\n      dup3\n        /* \"contracts/NFTMasterChef.sol\":2155:2156  a */\n      dup5\n        /* \"contracts/NFTMasterChef.sol\":2151:2152  c */\n      dup3\n        /* \"contracts/NFTMasterChef.sol\":2151:2156  c / a */\n      tag_514\n      swap2\n      swap1\n      tag_515\n      jump\t// in\n    tag_514:\n        /* \"contracts/NFTMasterChef.sol\":2151:2161  c / a == b */\n      eq\n        /* \"contracts/NFTMasterChef.sol\":2143:2199  require(c / a == b, \"SafeMath: multiplication overflow\") */\n      tag_516\n      jumpi\n      mload(0x40)\n      0x08c379a000000000000000000000000000000000000000000000000000000000\n      dup2\n      mstore\n      0x04\n      add\n      tag_517\n      swap1\n      tag_518\n      jump\t// in\n    tag_517:\n      mload(0x40)\n      dup1\n      swap2\n      sub\n      swap1\n      revert\n    tag_516:\n        /* \"contracts/NFTMasterChef.sol\":2219:2220  c */\n      dup1\n        /* \"contracts/NFTMasterChef.sol\":2212:2220  return c */\n      swap2\n      pop\n      pop\n        /* \"contracts/NFTMasterChef.sol\":1757:2228  function mul(uint256 a, uint256 b) internal pure returns (uint256) {... */\n    tag_510:\n      swap3\n      swap2\n      pop\n      pop\n      jump\t// out\n        /* \"contracts/NFTMasterChef.sol\":2696:2828  function div(uint256 a, uint256 b) internal pure returns (uint256) {... */\n    tag_204:\n        /* \"contracts/NFTMasterChef.sol\":2754:2761  uint256 */\n      0x00\n        /* \"contracts/NFTMasterChef.sol\":2781:2820  div(a, b, \"SafeMath: division by zero\") */\n      tag_520\n        /* \"contracts/NFTMasterChef.sol\":2785:2786  a */\n      dup4\n        /* \"contracts/NFTMasterChef.sol\":2788:2789  b */\n      dup4\n        /* \"contracts/NFTMasterChef.sol\":2781:2820  div(a, b, \"SafeMath: division by zero\") */\n      mload(0x40)\n      dup1\n      0x40\n      add\n      0x40\n      mstore\n      dup1\n      0x1a\n      dup2\n      mstore\n      0x20\n      add\n      0x536166654d6174683a206469766973696f6e206279207a65726f000000000000\n      dup2\n      mstore\n      pop\n        /* \"contracts/NFTMasterChef.sol\":2781:2784  div */\n      tag_521\n        /* \"contracts/NFTMasterChef.sol\":2781:2820  div(a, b, \"SafeMath: division by zero\") */\n      jump\t// in\n    tag_520:\n        /* \"contracts/NFTMasterChef.sol\":2774:2820  return div(a, b, \"SafeMath: division by zero\") */\n      swap1\n      pop\n        /* \"contracts/NFTMasterChef.sol\":2696:2828  function div(uint256 a, uint256 b) internal pure returns (uint256) {... */\n      swap3\n      swap2\n      pop\n      pop\n      jump\t// out\n        /* \"contracts/NFTMasterChef.sol\":841:977  function sub(uint256 a, uint256 b) internal pure returns (uint256) {... */\n    tag_205:\n        /* \"contracts/NFTMasterChef.sol\":899:906  uint256 */\n      0x00\n        /* \"contracts/NFTMasterChef.sol\":926:969  sub(a, b, \"SafeMath: subtraction overflow\") */\n      tag_523\n        /* \"contracts/NFTMasterChef.sol\":930:931  a */\n      dup4\n        /* \"contracts/NFTMasterChef.sol\":933:934  b */\n      dup4\n        /* \"contracts/NFTMasterChef.sol\":926:969  sub(a, b, \"SafeMath: subtraction overflow\") */\n      mload(0x40)\n      dup1\n      0x40\n      add\n      0x40\n      mstore\n      dup1\n      0x1e\n      dup2\n      mstore\n      0x20\n      add\n      0x536166654d6174683a207375627472616374696f6e206f766572666c6f770000\n      dup2\n      mstore\n      pop\n        /* \"contracts/NFTMasterChef.sol\":926:929  sub */\n      tag_524\n        /* \"contracts/NFTMasterChef.sol\":926:969  sub(a, b, \"SafeMath: subtraction overflow\") */\n      jump\t// in\n    tag_523:\n        /* \"contracts/NFTMasterChef.sol\":919:969  return sub(a, b, \"SafeMath: subtraction overflow\") */\n      swap1\n      pop\n        /* \"contracts/NFTMasterChef.sol\":841:977  function sub(uint256 a, uint256 b) internal pure returns (uint256) {... */\n      swap3\n      swap2\n      pop\n      pop\n      jump\t// out\n        /* \"contracts/NFTMasterChef.sol\":385:566  function add(uint256 a, uint256 b) internal pure returns (uint256) {... */\n    tag_208:\n        /* \"contracts/NFTMasterChef.sol\":443:450  uint256 */\n      0x00\n        /* \"contracts/NFTMasterChef.sol\":463:472  uint256 c */\n      dup1\n        /* \"contracts/NFTMasterChef.sol\":479:480  b */\n      dup3\n        /* \"contracts/NFTMasterChef.sol\":475:476  a */\n      dup5\n        /* \"contracts/NFTMasterChef.sol\":475:480  a + b */\n      tag_526\n      swap2\n      swap1\n      tag_527\n      jump\t// in\n    tag_526:\n        /* \"contracts/NFTMasterChef.sol\":463:480  uint256 c = a + b */\n      swap1\n      pop\n        /* \"contracts/NFTMasterChef.sol\":504:505  a */\n      dup4\n        /* \"contracts/NFTMasterChef.sol\":499:500  c */\n      dup2\n        /* \"contracts/NFTMasterChef.sol\":499:505  c >= a */\n      lt\n      iszero\n        /* \"contracts/NFTMasterChef.sol\":491:537  require(c >= a, \"SafeMath: addition overflow\") */\n      tag_528\n      jumpi\n      mload(0x40)\n      0x08c379a000000000000000000000000000000000000000000000000000000000\n      dup2\n      mstore\n      0x04\n      add\n      tag_529\n      swap1\n      tag_530\n      jump\t// in\n    tag_529:\n      mload(0x40)\n      dup1\n      swap2\n      sub\n      swap1\n      revert\n    tag_528:\n        /* \"contracts/NFTMasterChef.sol\":557:558  c */\n      dup1\n        /* \"contracts/NFTMasterChef.sol\":550:558  return c */\n      swap2\n      pop\n      pop\n        /* \"contracts/NFTMasterChef.sol\":385:566  function add(uint256 a, uint256 b) internal pure returns (uint256) {... */\n      swap3\n      swap2\n      pop\n      pop\n      jump\t// out\n        /* \"contracts/NFTMasterChef.sol\":16150:16361  function safeTransfer(... */\n    tag_212:\n        /* \"contracts/NFTMasterChef.sol\":16267:16353  _callOptionalReturn(token, abi.encodeWithSelector(token.transfer.selector, to, value)) */\n      tag_532\n        /* \"contracts/NFTMasterChef.sol\":16287:16292  token */\n      dup4\n        /* \"contracts/NFTMasterChef.sol\":16317:16340  token.transfer.selector */\n      shl(0xe0, 0xa9059cbb)\n        /* \"contracts/NFTMasterChef.sol\":16342:16344  to */\n      dup5\n        /* \"contracts/NFTMasterChef.sol\":16346:16351  value */\n      dup5\n        /* \"contracts/NFTMasterChef.sol\":16294:16352  abi.encodeWithSelector(token.transfer.selector, to, value) */\n      add(0x24, mload(0x40))\n      tag_533\n      swap3\n      swap2\n      swap1\n      tag_534\n      jump\t// in\n    tag_533:\n      mload(0x40)\n      0x20\n      dup2\n      dup4\n      sub\n      sub\n      dup2\n      mstore\n      swap1\n      0x40\n      mstore\n      swap1\n      not(0xffffffffffffffffffffffffffffffffffffffffffffffffffffffff)\n      and\n      0x20\n      dup3\n      add\n      dup1\n      mload\n      0xffffffffffffffffffffffffffffffffffffffffffffffffffffffff\n      dup4\n      dup2\n      dup4\n      and\n      or\n      dup4\n      mstore\n      pop\n      pop\n      pop\n      pop\n        /* \"contracts/NFTMasterChef.sol\":16267:16286  _callOptionalReturn */\n      tag_535\n        /* \"contracts/NFTMasterChef.sol\":16267:16353  _callOptionalReturn(token, abi.encodeWithSelector(token.transfer.selector, to, value)) */\n      jump\t// in\n    tag_532:\n        /* \"contracts/NFTMasterChef.sol\":16150:16361  function safeTransfer(... */\n      pop\n      pop\n      pop\n      jump\t// out\n        /* \"contracts/NFTMasterChef.sol\":16369:16617  function safeTransferFrom(... */\n    tag_296:\n        /* \"contracts/NFTMasterChef.sol\":16513:16609  _callOptionalReturn(token, abi.encodeWithSelector(token.transferFrom.selector, from, to, value)) */\n      tag_537\n        /* \"contracts/NFTMasterChef.sol\":16533:16538  token */\n      dup5\n        /* \"contracts/NFTMasterChef.sol\":16563:16590  token.transferFrom.selector */\n      shl(0xe0, 0x23b872dd)\n        /* \"contracts/NFTMasterChef.sol\":16592:16596  from */\n      dup6\n        /* \"contracts/NFTMasterChef.sol\":16598:16600  to */\n      dup6\n        /* \"contracts/NFTMasterChef.sol\":16602:16607  value */\n      dup6\n        /* \"contracts/NFTMasterChef.sol\":16540:16608  abi.encodeWithSelector(token.transferFrom.selector, from, to, value) */\n      add(0x24, mload(0x40))\n      tag_538\n      swap4\n      swap3\n      swap2\n      swap1\n      tag_539\n      jump\t// in\n    tag_538:\n      mload(0x40)\n      0x20\n      dup2\n      dup4\n      sub\n      sub\n      dup2\n      mstore\n      swap1\n      0x40\n      mstore\n      swap1\n      not(0xffffffffffffffffffffffffffffffffffffffffffffffffffffffff)\n      and\n      0x20\n      dup3\n      add\n      dup1\n      mload\n      0xffffffffffffffffffffffffffffffffffffffffffffffffffffffff\n      dup4\n      dup2\n      dup4\n      and\n      or\n      dup4\n      mstore\n      pop\n      pop\n      pop\n      pop\n        /* \"contracts/NFTMasterChef.sol\":16513:16532  _callOptionalReturn */\n      tag_535\n        /* \"contracts/NFTMasterChef.sol\":16513:16609  _callOptionalReturn(token, abi.encodeWithSelector(token.transferFrom.selector, from, to, value)) */\n      jump\t// in\n    tag_537:\n        /* \"contracts/NFTMasterChef.sol\":16369:16617  function safeTransferFrom(... */\n      pop\n      pop\n      pop\n      pop\n      jump\t// out\n        /* \"contracts/NFTMasterChef.sol\":16886:17502  function safeApprove(... */\n    tag_333:\n        /* \"contracts/NFTMasterChef.sol\":17259:17260  0 */\n      0x00\n        /* \"contracts/NFTMasterChef.sol\":17250:17255  value */\n      dup2\n        /* \"contracts/NFTMasterChef.sol\":17250:17260  value == 0 */\n      eq\n        /* \"contracts/NFTMasterChef.sol\":17249:17311  (value == 0) || (token.allowance(address(this), spender) == 0) */\n      dup1\n      tag_541\n      jumpi\n      pop\n        /* \"contracts/NFTMasterChef.sol\":17309:17310  0 */\n      0x00\n        /* \"contracts/NFTMasterChef.sol\":17266:17271  token */\n      dup4\n        /* \"contracts/NFTMasterChef.sol\":17266:17281  token.allowance */\n      0xffffffffffffffffffffffffffffffffffffffff\n      and\n      0xdd62ed3e\n        /* \"contracts/NFTMasterChef.sol\":17290:17294  this */\n      address\n        /* \"contracts/NFTMasterChef.sol\":17297:17304  spender */\n      dup6\n        /* \"contracts/NFTMasterChef.sol\":17266:17305  token.allowance(address(this), spender) */\n      mload(0x40)\n      dup4\n      0xffffffff\n      and\n      0xe0\n      shl\n      dup2\n      mstore\n      0x04\n      add\n      tag_542\n      swap3\n      swap2\n      swap1\n      tag_543\n      jump\t// in\n    tag_542:\n      0x20\n      mload(0x40)\n      dup1\n      dup4\n      sub\n      dup2\n      dup7\n      gas\n      staticcall\n      iszero\n      dup1\n      iszero\n      tag_545\n      jumpi\n      returndatasize\n      0x00\n      dup1\n      returndatacopy\n      revert(0x00, returndatasize)\n    tag_545:\n      pop\n      pop\n      pop\n      pop\n      mload(0x40)\n      returndatasize\n      not(0x1f)\n      0x1f\n      dup3\n      add\n      and\n      dup3\n      add\n      dup1\n      0x40\n      mstore\n      pop\n      dup2\n      add\n      swap1\n      tag_546\n      swap2\n      swap1\n      tag_226\n      jump\t// in\n    tag_546:\n        /* \"contracts/NFTMasterChef.sol\":17266:17310  token.allowance(address(this), spender) == 0 */\n      eq\n        /* \"contracts/NFTMasterChef.sol\":17249:17311  (value == 0) || (token.allowance(address(this), spender) == 0) */\n    tag_541:\n        /* \"contracts/NFTMasterChef.sol\":17227:17393  require(... */\n      tag_547\n      jumpi\n      mload(0x40)\n      0x08c379a000000000000000000000000000000000000000000000000000000000\n      dup2\n      mstore\n      0x04\n      add\n      tag_548\n      swap1\n      tag_549\n      jump\t// in\n    tag_548:\n      mload(0x40)\n      dup1\n      swap2\n      sub\n      swap1\n      revert\n    tag_547:\n        /* \"contracts/NFTMasterChef.sol\":17404:17494  _callOptionalReturn(token, abi.encodeWithSelector(token.approve.selector, spender, value)) */\n      tag_550\n        /* \"contracts/NFTMasterChef.sol\":17424:17429  token */\n      dup4\n        /* \"contracts/NFTMasterChef.sol\":17454:17476  token.approve.selector */\n      shl(0xe0, 0x095ea7b3)\n        /* \"contracts/NFTMasterChef.sol\":17478:17485  spender */\n      dup5\n        /* \"contracts/NFTMasterChef.sol\":17487:17492  value */\n      dup5\n        /* \"contracts/NFTMasterChef.sol\":17431:17493  abi.encodeWithSelector(token.approve.selector, spender, value) */\n      add(0x24, mload(0x40))\n      tag_551\n      swap3\n      swap2\n      swap1\n      tag_534\n      jump\t// in\n    tag_551:\n      mload(0x40)\n      0x20\n      dup2\n      dup4\n      sub\n      sub\n      dup2\n      mstore\n      swap1\n      0x40\n      mstore\n      swap1\n      not(0xffffffffffffffffffffffffffffffffffffffffffffffffffffffff)\n      and\n      0x20\n      dup3\n      add\n      dup1\n      mload\n      0xffffffffffffffffffffffffffffffffffffffffffffffffffffffff\n      dup4\n      dup2\n      dup4\n      and\n      or\n      dup4\n      mstore\n      pop\n      pop\n      pop\n      pop\n        /* \"contracts/NFTMasterChef.sol\":17404:17423  _callOptionalReturn */\n      tag_535\n        /* \"contracts/NFTMasterChef.sol\":17404:17494  _callOptionalReturn(token, abi.encodeWithSelector(token.approve.selector, spender, value)) */\n      jump\t// in\n    tag_550:\n        /* \"contracts/NFTMasterChef.sol\":16886:17502  function safeApprove(... */\n      pop\n      pop\n      pop\n      jump\t// out\n        /* \"contracts/NFTMasterChef.sol\":21375:21566  function _transferOwnership(address newOwner) internal virtual {... */\n    tag_420:\n        /* \"contracts/NFTMasterChef.sol\":21449:21465  address oldOwner */\n      0x00\n        /* \"contracts/NFTMasterChef.sol\":21468:21474  _owner */\n      dup1\n      0x00\n      swap1\n      sload\n      swap1\n      0x0100\n      exp\n      swap1\n      div\n      0xffffffffffffffffffffffffffffffffffffffff\n      and\n        /* \"contracts/NFTMasterChef.sol\":21449:21474  address oldOwner = _owner */\n      swap1\n      pop\n        /* \"contracts/NFTMasterChef.sol\":21494:21502  newOwner */\n      dup2\n        /* \"contracts/NFTMasterChef.sol\":21485:21491  _owner */\n      0x00\n      dup1\n        /* \"contracts/NFTMasterChef.sol\":21485:21502  _owner = newOwner */\n      0x0100\n      exp\n      dup2\n      sload\n      dup2\n      0xffffffffffffffffffffffffffffffffffffffff\n      mul\n      not\n      and\n      swap1\n      dup4\n      0xffffffffffffffffffffffffffffffffffffffff\n      and\n      mul\n      or\n      swap1\n      sstore\n      pop\n        /* \"contracts/NFTMasterChef.sol\":21549:21557  newOwner */\n      dup2\n        /* \"contracts/NFTMasterChef.sol\":21518:21558  OwnershipTransferred(oldOwner, newOwner) */\n      0xffffffffffffffffffffffffffffffffffffffff\n      and\n        /* \"contracts/NFTMasterChef.sol\":21539:21547  oldOwner */\n      dup2\n        /* \"contracts/NFTMasterChef.sol\":21518:21558  OwnershipTransferred(oldOwner, newOwner) */\n      0xffffffffffffffffffffffffffffffffffffffff\n      and\n      0x8be0079c531659141344cd1fd0a4f28419497f9722a3daafe3b4186f6b6457e0\n      mload(0x40)\n      mload(0x40)\n      dup1\n      swap2\n      sub\n      swap1\n      log3\n        /* \"contracts/NFTMasterChef.sol\":21438:21566  {... */\n      pop\n        /* \"contracts/NFTMasterChef.sol\":21375:21566  function _transferOwnership(address newOwner) internal virtual {... */\n      pop\n      jump\t// out\n        /* \"contracts/NFTMasterChef.sol\":3358:3703  function div(uint256 a, uint256 b, string memory errorMessage) internal pure returns (uint256) {... */\n    tag_521:\n        /* \"contracts/NFTMasterChef.sol\":3444:3451  uint256 */\n      0x00\n        /* \"contracts/NFTMasterChef.sol\":3543:3544  0 */\n      dup1\n        /* \"contracts/NFTMasterChef.sol\":3539:3540  b */\n      dup4\n        /* \"contracts/NFTMasterChef.sol\":3539:3544  b > 0 */\n      gt\n        /* \"contracts/NFTMasterChef.sol\":3546:3558  errorMessage */\n      dup3\n        /* \"contracts/NFTMasterChef.sol\":3531:3559  require(b > 0, errorMessage) */\n      swap1\n      tag_554\n      jumpi\n      mload(0x40)\n      0x08c379a000000000000000000000000000000000000000000000000000000000\n      dup2\n      mstore\n      0x04\n      add\n      tag_555\n      swap2\n      swap1\n      tag_556\n      jump\t// in\n    tag_555:\n      mload(0x40)\n      dup1\n      swap2\n      sub\n      swap1\n      revert\n    tag_554:\n      pop\n        /* \"contracts/NFTMasterChef.sol\":3570:3579  uint256 c */\n      0x00\n        /* \"contracts/NFTMasterChef.sol\":3586:3587  b */\n      dup4\n        /* \"contracts/NFTMasterChef.sol\":3582:3583  a */\n      dup6\n        /* \"contracts/NFTMasterChef.sol\":3582:3587  a / b */\n      tag_557\n      swap2\n      swap1\n      tag_515\n      jump\t// in\n    tag_557:\n        /* \"contracts/NFTMasterChef.sol\":3570:3587  uint256 c = a / b */\n      swap1\n      pop\n        /* \"contracts/NFTMasterChef.sol\":3694:3695  c */\n      dup1\n        /* \"contracts/NFTMasterChef.sol\":3687:3695  return c */\n      swap2\n      pop\n      pop\n        /* \"contracts/NFTMasterChef.sol\":3358:3703  function div(uint256 a, uint256 b, string memory errorMessage) internal pure returns (uint256) {... */\n      swap4\n      swap3\n      pop\n      pop\n      pop\n      jump\t// out\n        /* \"contracts/NFTMasterChef.sol\":1314:1506  function sub(uint256 a, uint256 b, string memory errorMessage) internal pure returns (uint256) {... */\n    tag_524:\n        /* \"contracts/NFTMasterChef.sol\":1400:1407  uint256 */\n      0x00\n        /* \"contracts/NFTMasterChef.sol\":1433:1434  a */\n      dup4\n        /* \"contracts/NFTMasterChef.sol\":1428:1429  b */\n      dup4\n        /* \"contracts/NFTMasterChef.sol\":1428:1434  b <= a */\n      gt\n      iszero\n        /* \"contracts/NFTMasterChef.sol\":1436:1448  errorMessage */\n      dup3\n        /* \"contracts/NFTMasterChef.sol\":1420:1449  require(b <= a, errorMessage) */\n      swap1\n      tag_559\n      jumpi\n      mload(0x40)\n      0x08c379a000000000000000000000000000000000000000000000000000000000\n      dup2\n      mstore\n      0x04\n      add\n      tag_560\n      swap2\n      swap1\n      tag_556\n      jump\t// in\n    tag_560:\n      mload(0x40)\n      dup1\n      swap2\n      sub\n      swap1\n      revert\n    tag_559:\n      pop\n        /* \"contracts/NFTMasterChef.sol\":1460:1469  uint256 c */\n      0x00\n        /* \"contracts/NFTMasterChef.sol\":1476:1477  b */\n      dup4\n        /* \"contracts/NFTMasterChef.sol\":1472:1473  a */\n      dup6\n        /* \"contracts/NFTMasterChef.sol\":1472:1477  a - b */\n      tag_561\n      swap2\n      swap1\n      tag_562\n      jump\t// in\n    tag_561:\n        /* \"contracts/NFTMasterChef.sol\":1460:1477  uint256 c = a - b */\n      swap1\n      pop\n        /* \"contracts/NFTMasterChef.sol\":1497:1498  c */\n      dup1\n        /* \"contracts/NFTMasterChef.sol\":1490:1498  return c */\n      swap2\n      pop\n      pop\n        /* \"contracts/NFTMasterChef.sol\":1314:1506  function sub(uint256 a, uint256 b, string memory errorMessage) internal pure returns (uint256) {... */\n      swap4\n      swap3\n      pop\n      pop\n      pop\n      jump\t// out\n        /* \"contracts/NFTMasterChef.sol\":18723:19439  function _callOptionalReturn(IERC20 token, bytes memory data) private {... */\n    tag_535:\n        /* \"contracts/NFTMasterChef.sol\":19147:19170  bytes memory returndata */\n      0x00\n        /* \"contracts/NFTMasterChef.sol\":19173:19242  address(token).functionCall(data, \"SafeERC20: low-level call failed\") */\n      tag_564\n        /* \"contracts/NFTMasterChef.sol\":19201:19205  data */\n      dup3\n        /* \"contracts/NFTMasterChef.sol\":19173:19242  address(token).functionCall(data, \"SafeERC20: low-level call failed\") */\n      mload(0x40)\n      dup1\n      0x40\n      add\n      0x40\n      mstore\n      dup1\n      0x20\n      dup2\n      mstore\n      0x20\n      add\n      0x5361666545524332303a206c6f772d6c6576656c2063616c6c206661696c6564\n      dup2\n      mstore\n      pop\n        /* \"contracts/NFTMasterChef.sol\":19181:19186  token */\n      dup6\n        /* \"contracts/NFTMasterChef.sol\":19173:19200  address(token).functionCall */\n      0xffffffffffffffffffffffffffffffffffffffff\n      and\n      tag_565\n      swap1\n        /* \"contracts/NFTMasterChef.sol\":19173:19242  address(token).functionCall(data, \"SafeERC20: low-level call failed\") */\n      swap3\n      swap2\n      swap1\n      0xffffffff\n      and\n      jump\t// in\n    tag_564:\n        /* \"contracts/NFTMasterChef.sol\":19147:19242  bytes memory returndata = address(token).functionCall(data, \"SafeERC20: low-level call failed\") */\n      swap1\n      pop\n        /* \"contracts/NFTMasterChef.sol\":19277:19278  0 */\n      0x00\n        /* \"contracts/NFTMasterChef.sol\":19257:19267  returndata */\n      dup2\n        /* \"contracts/NFTMasterChef.sol\":19257:19274  returndata.length */\n      mload\n        /* \"contracts/NFTMasterChef.sol\":19257:19278  returndata.length > 0 */\n      gt\n        /* \"contracts/NFTMasterChef.sol\":19253:19432  if (returndata.length > 0) {... */\n      iszero\n      tag_566\n      jumpi\n        /* \"contracts/NFTMasterChef.sol\":19354:19364  returndata */\n      dup1\n        /* \"contracts/NFTMasterChef.sol\":19343:19373  abi.decode(returndata, (bool)) */\n      dup1\n      0x20\n      add\n      swap1\n      mload\n      dup2\n      add\n      swap1\n      tag_567\n      swap2\n      swap1\n      tag_568\n      jump\t// in\n    tag_567:\n        /* \"contracts/NFTMasterChef.sol\":19335:19420  require(abi.decode(returndata, (bool)), \"SafeERC20: ERC20 operation did not succeed\") */\n      tag_569\n      jumpi\n      mload(0x40)\n      0x08c379a000000000000000000000000000000000000000000000000000000000\n      dup2\n      mstore\n      0x04\n      add\n      tag_570\n      swap1\n      tag_571\n      jump\t// in\n    tag_570:\n      mload(0x40)\n      dup1\n      swap2\n      sub\n      swap1\n      revert\n    tag_569:\n        /* \"contracts/NFTMasterChef.sol\":19253:19432  if (returndata.length > 0) {... */\n    tag_566:\n        /* \"contracts/NFTMasterChef.sol\":18793:19439  {... */\n      pop\n        /* \"contracts/NFTMasterChef.sol\":18723:19439  function _callOptionalReturn(IERC20 token, bytes memory data) private {... */\n      pop\n      pop\n      jump\t// out\n        /* \"contracts/NFTMasterChef.sol\":11566:11795  function functionCall(... */\n    tag_565:\n        /* \"contracts/NFTMasterChef.sol\":11703:11715  bytes memory */\n      0x60\n        /* \"contracts/NFTMasterChef.sol\":11735:11787  functionCallWithValue(target, data, 0, errorMessage) */\n      tag_573\n        /* \"contracts/NFTMasterChef.sol\":11757:11763  target */\n      dup5\n        /* \"contracts/NFTMasterChef.sol\":11765:11769  data */\n      dup5\n        /* \"contracts/NFTMasterChef.sol\":11771:11772  0 */\n      0x00\n        /* \"contracts/NFTMasterChef.sol\":11774:11786  errorMessage */\n      dup6\n        /* \"contracts/NFTMasterChef.sol\":11735:11756  functionCallWithValue */\n      tag_574\n        /* \"contracts/NFTMasterChef.sol\":11735:11787  functionCallWithValue(target, data, 0, errorMessage) */\n      jump\t// in\n    tag_573:\n        /* \"contracts/NFTMasterChef.sol\":11728:11787  return functionCallWithValue(target, data, 0, errorMessage) */\n      swap1\n      pop\n        /* \"contracts/NFTMasterChef.sol\":11566:11795  function functionCall(... */\n      swap4\n      swap3\n      pop\n      pop\n      pop\n      jump\t// out\n        /* \"contracts/NFTMasterChef.sol\":12686:13196  function functionCallWithValue(... */\n    tag_574:\n        /* \"contracts/NFTMasterChef.sol\":12856:12868  bytes memory */\n      0x60\n        /* \"contracts/NFTMasterChef.sol\":12914:12919  value */\n      dup3\n        /* \"contracts/NFTMasterChef.sol\":12889:12910  address(this).balance */\n      selfbalance\n        /* \"contracts/NFTMasterChef.sol\":12889:12919  address(this).balance >= value */\n      lt\n      iszero\n        /* \"contracts/NFTMasterChef.sol\":12881:12962  require(address(this).balance >= value, \"Address: insufficient balance for call\") */\n      tag_576\n      jumpi\n      mload(0x40)\n      0x08c379a000000000000000000000000000000000000000000000000000000000\n      dup2\n      mstore\n      0x04\n      add\n      tag_577\n      swap1\n      tag_578\n      jump\t// in\n    tag_577:\n      mload(0x40)\n      dup1\n      swap2\n      sub\n      swap1\n      revert\n    tag_576:\n        /* \"contracts/NFTMasterChef.sol\":12981:12999  isContract(target) */\n      tag_579\n        /* \"contracts/NFTMasterChef.sol\":12992:12998  target */\n      dup6\n        /* \"contracts/NFTMasterChef.sol\":12981:12991  isContract */\n      tag_580\n        /* \"contracts/NFTMasterChef.sol\":12981:12999  isContract(target) */\n      jump\t// in\n    tag_579:\n        /* \"contracts/NFTMasterChef.sol\":12973:13033  require(isContract(target), \"Address: call to non-contract\") */\n      tag_581\n      jumpi\n      mload(0x40)\n      0x08c379a000000000000000000000000000000000000000000000000000000000\n      dup2\n      mstore\n      0x04\n      add\n      tag_582\n      swap1\n      tag_583\n      jump\t// in\n    tag_582:\n      mload(0x40)\n      dup1\n      swap2\n      sub\n      swap1\n      revert\n    tag_581:\n        /* \"contracts/NFTMasterChef.sol\":13047:13059  bool success */\n      0x00\n        /* \"contracts/NFTMasterChef.sol\":13061:13084  bytes memory returndata */\n      dup1\n        /* \"contracts/NFTMasterChef.sol\":13088:13094  target */\n      dup7\n        /* \"contracts/NFTMasterChef.sol\":13088:13099  target.call */\n      0xffffffffffffffffffffffffffffffffffffffff\n      and\n        /* \"contracts/NFTMasterChef.sol\":13107:13112  value */\n      dup6\n        /* \"contracts/NFTMasterChef.sol\":13114:13118  data */\n      dup8\n        /* \"contracts/NFTMasterChef.sol\":13088:13119  target.call{value: value}(data) */\n      mload(0x40)\n      tag_584\n      swap2\n      swap1\n      tag_585\n      jump\t// in\n    tag_584:\n      0x00\n      mload(0x40)\n      dup1\n      dup4\n      sub\n      dup2\n      dup6\n      dup8\n      gas\n      call\n      swap3\n      pop\n      pop\n      pop\n      returndatasize\n      dup1\n      0x00\n      dup2\n      eq\n      tag_588\n      jumpi\n      mload(0x40)\n      swap2\n      pop\n      and(add(returndatasize, 0x3f), not(0x1f))\n      dup3\n      add\n      0x40\n      mstore\n      returndatasize\n      dup3\n      mstore\n      returndatasize\n      0x00\n      0x20\n      dup5\n      add\n      returndatacopy\n      jump(tag_587)\n    tag_588:\n      0x60\n      swap2\n      pop\n    tag_587:\n      pop\n        /* \"contracts/NFTMasterChef.sol\":13046:13119  (bool success, bytes memory returndata) = target.call{value: value}(data) */\n      swap2\n      pop\n      swap2\n      pop\n        /* \"contracts/NFTMasterChef.sol\":13137:13188  verifyCallResult(success, returndata, errorMessage) */\n      tag_589\n        /* \"contracts/NFTMasterChef.sol\":13154:13161  success */\n      dup3\n        /* \"contracts/NFTMasterChef.sol\":13163:13173  returndata */\n      dup3\n        /* \"contracts/NFTMasterChef.sol\":13175:13187  errorMessage */\n      dup7\n        /* \"contracts/NFTMasterChef.sol\":13137:13153  verifyCallResult */\n      tag_590\n        /* \"contracts/NFTMasterChef.sol\":13137:13188  verifyCallResult(success, returndata, errorMessage) */\n      jump\t// in\n    tag_589:\n        /* \"contracts/NFTMasterChef.sol\":13130:13188  return verifyCallResult(success, returndata, errorMessage) */\n      swap3\n      pop\n      pop\n      pop\n        /* \"contracts/NFTMasterChef.sol\":12686:13196  function functionCallWithValue(... */\n      swap5\n      swap4\n      pop\n      pop\n      pop\n      pop\n      jump\t// out\n        /* \"contracts/NFTMasterChef.sol\":8821:9147  function isContract(address account) internal view returns (bool) {... */\n    tag_580:\n        /* \"contracts/NFTMasterChef.sol\":8881:8885  bool */\n      0x00\n        /* \"contracts/NFTMasterChef.sol\":9138:9139  0 */\n      dup1\n        /* \"contracts/NFTMasterChef.sol\":9116:9123  account */\n      dup3\n        /* \"contracts/NFTMasterChef.sol\":9116:9135  account.code.length */\n      0xffffffffffffffffffffffffffffffffffffffff\n      and\n      extcodesize\n        /* \"contracts/NFTMasterChef.sol\":9116:9139  account.code.length > 0 */\n      gt\n        /* \"contracts/NFTMasterChef.sol\":9109:9139  return account.code.length > 0 */\n      swap1\n      pop\n        /* \"contracts/NFTMasterChef.sol\":8821:9147  function isContract(address account) internal view returns (bool) {... */\n      swap2\n      swap1\n      pop\n      jump\t// out\n        /* \"contracts/NFTMasterChef.sol\":15372:16084  function verifyCallResult(... */\n    tag_590:\n        /* \"contracts/NFTMasterChef.sol\":15522:15534  bytes memory */\n      0x60\n        /* \"contracts/NFTMasterChef.sol\":15551:15558  success */\n      dup4\n        /* \"contracts/NFTMasterChef.sol\":15547:16077  if (success) {... */\n      iszero\n      tag_593\n      jumpi\n        /* \"contracts/NFTMasterChef.sol\":15582:15592  returndata */\n      dup3\n        /* \"contracts/NFTMasterChef.sol\":15575:15592  return returndata */\n      swap1\n      pop\n      jump(tag_592)\n        /* \"contracts/NFTMasterChef.sol\":15547:16077  if (success) {... */\n    tag_593:\n        /* \"contracts/NFTMasterChef.sol\":15716:15717  0 */\n      0x00\n        /* \"contracts/NFTMasterChef.sol\":15696:15706  returndata */\n      dup4\n        /* \"contracts/NFTMasterChef.sol\":15696:15713  returndata.length */\n      mload\n        /* \"contracts/NFTMasterChef.sol\":15696:15717  returndata.length > 0 */\n      gt\n        /* \"contracts/NFTMasterChef.sol\":15692:16066  if (returndata.length > 0) {... */\n      iszero\n      tag_595\n      jumpi\n        /* \"contracts/NFTMasterChef.sol\":15894:15904  returndata */\n      dup3\n        /* \"contracts/NFTMasterChef.sol\":15888:15905  mload(returndata) */\n      mload\n        /* \"contracts/NFTMasterChef.sol\":15955:15970  returndata_size */\n      dup1\n        /* \"contracts/NFTMasterChef.sol\":15942:15952  returndata */\n      dup5\n        /* \"contracts/NFTMasterChef.sol\":15938:15940  32 */\n      0x20\n        /* \"contracts/NFTMasterChef.sol\":15934:15953  add(32, returndata) */\n      add\n        /* \"contracts/NFTMasterChef.sol\":15927:15971  revert(add(32, returndata), returndata_size) */\n      revert\n        /* \"contracts/NFTMasterChef.sol\":15692:16066  if (returndata.length > 0) {... */\n    tag_595:\n        /* \"contracts/NFTMasterChef.sol\":16037:16049  errorMessage */\n      dup2\n        /* \"contracts/NFTMasterChef.sol\":16030:16050  revert(errorMessage) */\n      mload(0x40)\n      0x08c379a000000000000000000000000000000000000000000000000000000000\n      dup2\n      mstore\n      0x04\n      add\n      tag_597\n      swap2\n      swap1\n      tag_556\n      jump\t// in\n    tag_597:\n      mload(0x40)\n      dup1\n      swap2\n      sub\n      swap1\n      revert\n        /* \"contracts/NFTMasterChef.sol\":15372:16084  function verifyCallResult(... */\n    tag_592:\n      swap4\n      swap3\n      pop\n      pop\n      pop\n      jump\t// out\n        /* \"#utility.yul\":7:84   */\n    tag_598:\n        /* \"#utility.yul\":44:51   */\n      0x00\n        /* \"#utility.yul\":73:78   */\n      dup2\n        /* \"#utility.yul\":62:78   */\n      swap1\n      pop\n        /* \"#utility.yul\":7:84   */\n      swap2\n      swap1\n      pop\n      jump\t// out\n        /* \"#utility.yul\":90:208   */\n    tag_599:\n        /* \"#utility.yul\":177:201   */\n      tag_679\n        /* \"#utility.yul\":195:200   */\n      dup2\n        /* \"#utility.yul\":177:201   */\n      tag_598\n      jump\t// in\n    tag_679:\n        /* \"#utility.yul\":172:175   */\n      dup3\n        /* \"#utility.yul\":165:202   */\n      mstore\n        /* \"#utility.yul\":90:208   */\n      pop\n      pop\n      jump\t// out\n        /* \"#utility.yul\":214:436   */\n    tag_51:\n        /* \"#utility.yul\":307:311   */\n      0x00\n        /* \"#utility.yul\":345:347   */\n      0x20\n        /* \"#utility.yul\":334:343   */\n      dup3\n        /* \"#utility.yul\":330:348   */\n      add\n        /* \"#utility.yul\":322:348   */\n      swap1\n      pop\n        /* \"#utility.yul\":358:429   */\n      tag_681\n        /* \"#utility.yul\":426:427   */\n      0x00\n        /* \"#utility.yul\":415:424   */\n      dup4\n        /* \"#utility.yul\":411:428   */\n      add\n        /* \"#utility.yul\":402:408   */\n      dup5\n        /* \"#utility.yul\":358:429   */\n      tag_599\n      jump\t// in\n    tag_681:\n        /* \"#utility.yul\":214:436   */\n      swap3\n      swap2\n      pop\n      pop\n      jump\t// out\n        /* \"#utility.yul\":523:640   */\n    tag_601:\n        /* \"#utility.yul\":632:633   */\n      0x00\n        /* \"#utility.yul\":629:630   */\n      dup1\n        /* \"#utility.yul\":622:634   */\n      revert\n        /* \"#utility.yul\":769:895   */\n    tag_603:\n        /* \"#utility.yul\":806:813   */\n      0x00\n        /* \"#utility.yul\":846:888   */\n      0xffffffffffffffffffffffffffffffffffffffff\n        /* \"#utility.yul\":839:844   */\n      dup3\n        /* \"#utility.yul\":835:889   */\n      and\n        /* \"#utility.yul\":824:889   */\n      swap1\n      pop\n        /* \"#utility.yul\":769:895   */\n      swap2\n      swap1\n      pop\n      jump\t// out\n        /* \"#utility.yul\":901:997   */\n    tag_604:\n        /* \"#utility.yul\":938:945   */\n      0x00\n        /* \"#utility.yul\":967:991   */\n      tag_687\n        /* \"#utility.yul\":985:990   */\n      dup3\n        /* \"#utility.yul\":967:991   */\n      tag_603\n      jump\t// in\n    tag_687:\n        /* \"#utility.yul\":956:991   */\n      swap1\n      pop\n        /* \"#utility.yul\":901:997   */\n      swap2\n      swap1\n      pop\n      jump\t// out\n        /* \"#utility.yul\":1003:1125   */\n    tag_605:\n        /* \"#utility.yul\":1076:1100   */\n      tag_689\n        /* \"#utility.yul\":1094:1099   */\n      dup2\n        /* \"#utility.yul\":1076:1100   */\n      tag_604\n      jump\t// in\n    tag_689:\n        /* \"#utility.yul\":1069:1074   */\n      dup2\n        /* \"#utility.yul\":1066:1101   */\n      eq\n        /* \"#utility.yul\":1056:1119   */\n      tag_690\n      jumpi\n        /* \"#utility.yul\":1115:1116   */\n      0x00\n        /* \"#utility.yul\":1112:1113   */\n      dup1\n        /* \"#utility.yul\":1105:1117   */\n      revert\n        /* \"#utility.yul\":1056:1119   */\n    tag_690:\n        /* \"#utility.yul\":1003:1125   */\n      pop\n      jump\t// out\n        /* \"#utility.yul\":1131:1270   */\n    tag_606:\n        /* \"#utility.yul\":1177:1182   */\n      0x00\n        /* \"#utility.yul\":1215:1221   */\n      dup2\n        /* \"#utility.yul\":1202:1222   */\n      calldataload\n        /* \"#utility.yul\":1193:1222   */\n      swap1\n      pop\n        /* \"#utility.yul\":1231:1264   */\n      tag_692\n        /* \"#utility.yul\":1258:1263   */\n      dup2\n        /* \"#utility.yul\":1231:1264   */\n      tag_605\n      jump\t// in\n    tag_692:\n        /* \"#utility.yul\":1131:1270   */\n      swap3\n      swap2\n      pop\n      pop\n      jump\t// out\n        /* \"#utility.yul\":1276:1605   */\n    tag_54:\n        /* \"#utility.yul\":1335:1341   */\n      0x00\n        /* \"#utility.yul\":1384:1386   */\n      0x20\n        /* \"#utility.yul\":1372:1381   */\n      dup3\n        /* \"#utility.yul\":1363:1370   */\n      dup5\n        /* \"#utility.yul\":1359:1382   */\n      sub\n        /* \"#utility.yul\":1355:1387   */\n      slt\n        /* \"#utility.yul\":1352:1471   */\n      iszero\n      tag_694\n      jumpi\n        /* \"#utility.yul\":1390:1469   */\n      tag_695\n      tag_601\n      jump\t// in\n    tag_695:\n        /* \"#utility.yul\":1352:1471   */\n    tag_694:\n        /* \"#utility.yul\":1510:1511   */\n      0x00\n        /* \"#utility.yul\":1535:1588   */\n      tag_696\n        /* \"#utility.yul\":1580:1587   */\n      dup5\n        /* \"#utility.yul\":1571:1577   */\n      dup3\n        /* \"#utility.yul\":1560:1569   */\n      dup6\n        /* \"#utility.yul\":1556:1578   */\n      add\n        /* \"#utility.yul\":1535:1588   */\n      tag_606\n      jump\t// in\n    tag_696:\n        /* \"#utility.yul\":1525:1588   */\n      swap2\n      pop\n        /* \"#utility.yul\":1481:1598   */\n      pop\n        /* \"#utility.yul\":1276:1605   */\n      swap3\n      swap2\n      pop\n      pop\n      jump\t// out\n        /* \"#utility.yul\":1611:1733   */\n    tag_607:\n        /* \"#utility.yul\":1684:1708   */\n      tag_698\n        /* \"#utility.yul\":1702:1707   */\n      dup2\n        /* \"#utility.yul\":1684:1708   */\n      tag_598\n      jump\t// in\n    tag_698:\n        /* \"#utility.yul\":1677:1682   */\n      dup2\n        /* \"#utility.yul\":1674:1709   */\n      eq\n        /* \"#utility.yul\":1664:1727   */\n      tag_699\n      jumpi\n        /* \"#utility.yul\":1723:1724   */\n      0x00\n        /* \"#utility.yul\":1720:1721   */\n      dup1\n        /* \"#utility.yul\":1713:1725   */\n      revert\n        /* \"#utility.yul\":1664:1727   */\n    tag_699:\n        /* \"#utility.yul\":1611:1733   */\n      pop\n      jump\t// out\n        /* \"#utility.yul\":1739:1878   */\n    tag_608:\n        /* \"#utility.yul\":1785:1790   */\n      0x00\n        /* \"#utility.yul\":1823:1829   */\n      dup2\n        /* \"#utility.yul\":1810:1830   */\n      calldataload\n        /* \"#utility.yul\":1801:1830   */\n      swap1\n      pop\n        /* \"#utility.yul\":1839:1872   */\n      tag_701\n        /* \"#utility.yul\":1866:1871   */\n      dup2\n        /* \"#utility.yul\":1839:1872   */\n      tag_607\n      jump\t// in\n    tag_701:\n        /* \"#utility.yul\":1739:1878   */\n      swap3\n      swap2\n      pop\n      pop\n      jump\t// out\n        /* \"#utility.yul\":1884:2213   */\n    tag_58:\n        /* \"#utility.yul\":1943:1949   */\n      0x00\n        /* \"#utility.yul\":1992:1994   */\n      0x20\n        /* \"#utility.yul\":1980:1989   */\n      dup3\n        /* \"#utility.yul\":1971:1978   */\n      dup5\n        /* \"#utility.yul\":1967:1990   */\n      sub\n        /* \"#utility.yul\":1963:1995   */\n      slt\n        /* \"#utility.yul\":1960:2079   */\n      iszero\n      tag_703\n      jumpi\n        /* \"#utility.yul\":1998:2077   */\n      tag_704\n      tag_601\n      jump\t// in\n    tag_704:\n        /* \"#utility.yul\":1960:2079   */\n    tag_703:\n        /* \"#utility.yul\":2118:2119   */\n      0x00\n        /* \"#utility.yul\":2143:2196   */\n      tag_705\n        /* \"#utility.yul\":2188:2195   */\n      dup5\n        /* \"#utility.yul\":2179:2185   */\n      dup3\n        /* \"#utility.yul\":2168:2177   */\n      dup6\n        /* \"#utility.yul\":2164:2186   */\n      add\n        /* \"#utility.yul\":2143:2196   */\n      tag_608\n      jump\t// in\n    tag_705:\n        /* \"#utility.yul\":2133:2196   */\n      swap2\n      pop\n        /* \"#utility.yul\":2089:2206   */\n      pop\n        /* \"#utility.yul\":1884:2213   */\n      swap3\n      swap2\n      pop\n      pop\n      jump\t// out\n        /* \"#utility.yul\":2219:2279   */\n    tag_609:\n        /* \"#utility.yul\":2247:2250   */\n      0x00\n        /* \"#utility.yul\":2268:2273   */\n      dup2\n        /* \"#utility.yul\":2261:2273   */\n      swap1\n      pop\n        /* \"#utility.yul\":2219:2279   */\n      swap2\n      swap1\n      pop\n      jump\t// out\n        /* \"#utility.yul\":2285:2427   */\n    tag_610:\n        /* \"#utility.yul\":2335:2344   */\n      0x00\n        /* \"#utility.yul\":2368:2421   */\n      tag_708\n        /* \"#utility.yul\":2386:2420   */\n      tag_709\n        /* \"#utility.yul\":2395:2419   */\n      tag_710\n        /* \"#utility.yul\":2413:2418   */\n      dup5\n        /* \"#utility.yul\":2395:2419   */\n      tag_603\n      jump\t// in\n    tag_710:\n        /* \"#utility.yul\":2386:2420   */\n      tag_609\n      jump\t// in\n    tag_709:\n        /* \"#utility.yul\":2368:2421   */\n      tag_603\n      jump\t// in\n    tag_708:\n        /* \"#utility.yul\":2355:2421   */\n      swap1\n      pop\n        /* \"#utility.yul\":2285:2427   */\n      swap2\n      swap1\n      pop\n      jump\t// out\n        /* \"#utility.yul\":2433:2559   */\n    tag_611:\n        /* \"#utility.yul\":2483:2492   */\n      0x00\n        /* \"#utility.yul\":2516:2553   */\n      tag_712\n        /* \"#utility.yul\":2547:2552   */\n      dup3\n        /* \"#utility.yul\":2516:2553   */\n      tag_610\n      jump\t// in\n    tag_712:\n        /* \"#utility.yul\":2503:2553   */\n      swap1\n      pop\n        /* \"#utility.yul\":2433:2559   */\n      swap2\n      swap1\n      pop\n      jump\t// out\n        /* \"#utility.yul\":2565:2705   */\n    tag_612:\n        /* \"#utility.yul\":2629:2638   */\n      0x00\n        /* \"#utility.yul\":2662:2699   */\n      tag_714\n        /* \"#utility.yul\":2693:2698   */\n      dup3\n        /* \"#utility.yul\":2662:2699   */\n      tag_611\n      jump\t// in\n    tag_714:\n        /* \"#utility.yul\":2649:2699   */\n      swap1\n      pop\n        /* \"#utility.yul\":2565:2705   */\n      swap2\n      swap1\n      pop\n      jump\t// out\n        /* \"#utility.yul\":2711:2870   */\n    tag_613:\n        /* \"#utility.yul\":2812:2863   */\n      tag_716\n        /* \"#utility.yul\":2857:2862   */\n      dup2\n        /* \"#utility.yul\":2812:2863   */\n      tag_612\n      jump\t// in\n    tag_716:\n        /* \"#utility.yul\":2807:2810   */\n      dup3\n        /* \"#utility.yul\":2800:2864   */\n      mstore\n        /* \"#utility.yul\":2711:2870   */\n      pop\n      pop\n      jump\t// out\n        /* \"#utility.yul\":2876:3457   */\n    tag_64:\n        /* \"#utility.yul\":3067:3071   */\n      0x00\n        /* \"#utility.yul\":3105:3108   */\n      0x80\n        /* \"#utility.yul\":3094:3103   */\n      dup3\n        /* \"#utility.yul\":3090:3109   */\n      add\n        /* \"#utility.yul\":3082:3109   */\n      swap1\n      pop\n        /* \"#utility.yul\":3119:3204   */\n      tag_718\n        /* \"#utility.yul\":3201:3202   */\n      0x00\n        /* \"#utility.yul\":3190:3199   */\n      dup4\n        /* \"#utility.yul\":3186:3203   */\n      add\n        /* \"#utility.yul\":3177:3183   */\n      dup8\n        /* \"#utility.yul\":3119:3204   */\n      tag_613\n      jump\t// in\n    tag_718:\n        /* \"#utility.yul\":3214:3286   */\n      tag_719\n        /* \"#utility.yul\":3282:3284   */\n      0x20\n        /* \"#utility.yul\":3271:3280   */\n      dup4\n        /* \"#utility.yul\":3267:3285   */\n      add\n        /* \"#utility.yul\":3258:3264   */\n      dup7\n        /* \"#utility.yul\":3214:3286   */\n      tag_599\n      jump\t// in\n    tag_719:\n        /* \"#utility.yul\":3296:3368   */\n      tag_720\n        /* \"#utility.yul\":3364:3366   */\n      0x40\n        /* \"#utility.yul\":3353:3362   */\n      dup4\n        /* \"#utility.yul\":3349:3367   */\n      add\n        /* \"#utility.yul\":3340:3346   */\n      dup6\n        /* \"#utility.yul\":3296:3368   */\n      tag_599\n      jump\t// in\n    tag_720:\n        /* \"#utility.yul\":3378:3450   */\n      tag_721\n        /* \"#utility.yul\":3446:3448   */\n      0x60\n        /* \"#utility.yul\":3435:3444   */\n      dup4\n        /* \"#utility.yul\":3431:3449   */\n      add\n        /* \"#utility.yul\":3422:3428   */\n      dup5\n        /* \"#utility.yul\":3378:3450   */\n      tag_599\n      jump\t// in\n    tag_721:\n        /* \"#utility.yul\":2876:3457   */\n      swap6\n      swap5\n      pop\n      pop\n      pop\n      pop\n      pop\n      jump\t// out\n        /* \"#utility.yul\":3463:3937   */\n    tag_70:\n        /* \"#utility.yul\":3531:3537   */\n      0x00\n        /* \"#utility.yul\":3539:3545   */\n      dup1\n        /* \"#utility.yul\":3588:3590   */\n      0x40\n        /* \"#utility.yul\":3576:3585   */\n      dup4\n        /* \"#utility.yul\":3567:3574   */\n      dup6\n        /* \"#utility.yul\":3563:3586   */\n      sub\n        /* \"#utility.yul\":3559:3591   */\n      slt\n        /* \"#utility.yul\":3556:3675   */\n      iszero\n      tag_723\n      jumpi\n        /* \"#utility.yul\":3594:3673   */\n      tag_724\n      tag_601\n      jump\t// in\n    tag_724:\n        /* \"#utility.yul\":3556:3675   */\n    tag_723:\n        /* \"#utility.yul\":3714:3715   */\n      0x00\n        /* \"#utility.yul\":3739:3792   */\n      tag_725\n        /* \"#utility.yul\":3784:3791   */\n      dup6\n        /* \"#utility.yul\":3775:3781   */\n      dup3\n        /* \"#utility.yul\":3764:3773   */\n      dup7\n        /* \"#utility.yul\":3760:3782   */\n      add\n        /* \"#utility.yul\":3739:3792   */\n      tag_608\n      jump\t// in\n    tag_725:\n        /* \"#utility.yul\":3729:3792   */\n      swap3\n      pop\n        /* \"#utility.yul\":3685:3802   */\n      pop\n        /* \"#utility.yul\":3841:3843   */\n      0x20\n        /* \"#utility.yul\":3867:3920   */\n      tag_726\n        /* \"#utility.yul\":3912:3919   */\n      dup6\n        /* \"#utility.yul\":3903:3909   */\n      dup3\n        /* \"#utility.yul\":3892:3901   */\n      dup7\n        /* \"#utility.yul\":3888:3910   */\n      add\n        /* \"#utility.yul\":3867:3920   */\n      tag_608\n      jump\t// in\n    tag_726:\n        /* \"#utility.yul\":3857:3920   */\n      swap2\n      pop\n        /* \"#utility.yul\":3812:3930   */\n      pop\n        /* \"#utility.yul\":3463:3937   */\n      swap3\n      pop\n      swap3\n      swap1\n      pop\n      jump\t// out\n        /* \"#utility.yul\":3943:4053   */\n    tag_614:\n        /* \"#utility.yul\":3994:4001   */\n      0x00\n        /* \"#utility.yul\":4023:4047   */\n      tag_728\n        /* \"#utility.yul\":4041:4046   */\n      dup3\n        /* \"#utility.yul\":4023:4047   */\n      tag_604\n      jump\t// in\n    tag_728:\n        /* \"#utility.yul\":4012:4047   */\n      swap1\n      pop\n        /* \"#utility.yul\":3943:4053   */\n      swap2\n      swap1\n      pop\n      jump\t// out\n        /* \"#utility.yul\":4059:4209   */\n    tag_615:\n        /* \"#utility.yul\":4146:4184   */\n      tag_730\n        /* \"#utility.yul\":4178:4183   */\n      dup2\n        /* \"#utility.yul\":4146:4184   */\n      tag_614\n      jump\t// in\n    tag_730:\n        /* \"#utility.yul\":4139:4144   */\n      dup2\n        /* \"#utility.yul\":4136:4185   */\n      eq\n        /* \"#utility.yul\":4126:4203   */\n      tag_731\n      jumpi\n        /* \"#utility.yul\":4199:4200   */\n      0x00\n        /* \"#utility.yul\":4196:4197   */\n      dup1\n        /* \"#utility.yul\":4189:4201   */\n      revert\n        /* \"#utility.yul\":4126:4203   */\n    tag_731:\n        /* \"#utility.yul\":4059:4209   */\n      pop\n      jump\t// out\n        /* \"#utility.yul\":4215:4382   */\n    tag_616:\n        /* \"#utility.yul\":4275:4280   */\n      0x00\n        /* \"#utility.yul\":4313:4319   */\n      dup2\n        /* \"#utility.yul\":4300:4320   */\n      calldataload\n        /* \"#utility.yul\":4291:4320   */\n      swap1\n      pop\n        /* \"#utility.yul\":4329:4376   */\n      tag_733\n        /* \"#utility.yul\":4370:4375   */\n      dup2\n        /* \"#utility.yul\":4329:4376   */\n      tag_615\n      jump\t// in\n    tag_733:\n        /* \"#utility.yul\":4215:4382   */\n      swap3\n      swap2\n      pop\n      pop\n      jump\t// out\n        /* \"#utility.yul\":4388:4478   */\n    tag_617:\n        /* \"#utility.yul\":4422:4429   */\n      0x00\n        /* \"#utility.yul\":4465:4470   */\n      dup2\n        /* \"#utility.yul\":4458:4471   */\n      iszero\n        /* \"#utility.yul\":4451:4472   */\n      iszero\n        /* \"#utility.yul\":4440:4472   */\n      swap1\n      pop\n        /* \"#utility.yul\":4388:4478   */\n      swap2\n      swap1\n      pop\n      jump\t// out\n        /* \"#utility.yul\":4484:4600   */\n    tag_618:\n        /* \"#utility.yul\":4554:4575   */\n      tag_736\n        /* \"#utility.yul\":4569:4574   */\n      dup2\n        /* \"#utility.yul\":4554:4575   */\n      tag_617\n      jump\t// in\n    tag_736:\n        /* \"#utility.yul\":4547:4552   */\n      dup2\n        /* \"#utility.yul\":4544:4576   */\n      eq\n        /* \"#utility.yul\":4534:4594   */\n      tag_737\n      jumpi\n        /* \"#utility.yul\":4590:4591   */\n      0x00\n        /* \"#utility.yul\":4587:4588   */\n      dup1\n        /* \"#utility.yul\":4580:4592   */\n      revert\n        /* \"#utility.yul\":4534:4594   */\n    tag_737:\n        /* \"#utility.yul\":4484:4600   */\n      pop\n      jump\t// out\n        /* \"#utility.yul\":4606:4739   */\n    tag_619:\n        /* \"#utility.yul\":4649:4654   */\n      0x00\n        /* \"#utility.yul\":4687:4693   */\n      dup2\n        /* \"#utility.yul\":4674:4694   */\n      calldataload\n        /* \"#utility.yul\":4665:4694   */\n      swap1\n      pop\n        /* \"#utility.yul\":4703:4733   */\n      tag_739\n        /* \"#utility.yul\":4727:4732   */\n      dup2\n        /* \"#utility.yul\":4703:4733   */\n      tag_618\n      jump\t// in\n    tag_739:\n        /* \"#utility.yul\":4606:4739   */\n      swap3\n      swap2\n      pop\n      pop\n      jump\t// out\n        /* \"#utility.yul\":4745:5386   */\n    tag_74:\n        /* \"#utility.yul\":4833:4839   */\n      0x00\n        /* \"#utility.yul\":4841:4847   */\n      dup1\n        /* \"#utility.yul\":4849:4855   */\n      0x00\n        /* \"#utility.yul\":4898:4900   */\n      0x60\n        /* \"#utility.yul\":4886:4895   */\n      dup5\n        /* \"#utility.yul\":4877:4884   */\n      dup7\n        /* \"#utility.yul\":4873:4896   */\n      sub\n        /* \"#utility.yul\":4869:4901   */\n      slt\n        /* \"#utility.yul\":4866:4985   */\n      iszero\n      tag_741\n      jumpi\n        /* \"#utility.yul\":4904:4983   */\n      tag_742\n      tag_601\n      jump\t// in\n    tag_742:\n        /* \"#utility.yul\":4866:4985   */\n    tag_741:\n        /* \"#utility.yul\":5024:5025   */\n      0x00\n        /* \"#utility.yul\":5049:5102   */\n      tag_743\n        /* \"#utility.yul\":5094:5101   */\n      dup7\n        /* \"#utility.yul\":5085:5091   */\n      dup3\n        /* \"#utility.yul\":5074:5083   */\n      dup8\n        /* \"#utility.yul\":5070:5092   */\n      add\n        /* \"#utility.yul\":5049:5102   */\n      tag_608\n      jump\t// in\n    tag_743:\n        /* \"#utility.yul\":5039:5102   */\n      swap4\n      pop\n        /* \"#utility.yul\":4995:5112   */\n      pop\n        /* \"#utility.yul\":5151:5153   */\n      0x20\n        /* \"#utility.yul\":5177:5244   */\n      tag_744\n        /* \"#utility.yul\":5236:5243   */\n      dup7\n        /* \"#utility.yul\":5227:5233   */\n      dup3\n        /* \"#utility.yul\":5216:5225   */\n      dup8\n        /* \"#utility.yul\":5212:5234   */\n      add\n        /* \"#utility.yul\":5177:5244   */\n      tag_616\n      jump\t// in\n    tag_744:\n        /* \"#utility.yul\":5167:5244   */\n      swap3\n      pop\n        /* \"#utility.yul\":5122:5254   */\n      pop\n        /* \"#utility.yul\":5293:5295   */\n      0x40\n        /* \"#utility.yul\":5319:5369   */\n      tag_745\n        /* \"#utility.yul\":5361:5368   */\n      dup7\n        /* \"#utility.yul\":5352:5358   */\n      dup3\n        /* \"#utility.yul\":5341:5350   */\n      dup8\n        /* \"#utility.yul\":5337:5359   */\n      add\n        /* \"#utility.yul\":5319:5369   */\n      tag_619\n      jump\t// in\n    tag_745:\n        /* \"#utility.yul\":5309:5369   */\n      swap2\n      pop\n        /* \"#utility.yul\":5264:5379   */\n      pop\n        /* \"#utility.yul\":4745:5386   */\n      swap3\n      pop\n      swap3\n      pop\n      swap3\n      jump\t// out\n        /* \"#utility.yul\":5392:5510   */\n    tag_620:\n        /* \"#utility.yul\":5479:5503   */\n      tag_747\n        /* \"#utility.yul\":5497:5502   */\n      dup2\n        /* \"#utility.yul\":5479:5503   */\n      tag_604\n      jump\t// in\n    tag_747:\n        /* \"#utility.yul\":5474:5477   */\n      dup3\n        /* \"#utility.yul\":5467:5504   */\n      mstore\n        /* \"#utility.yul\":5392:5510   */\n      pop\n      pop\n      jump\t// out\n        /* \"#utility.yul\":5516:5738   */\n    tag_79:\n        /* \"#utility.yul\":5609:5613   */\n      0x00\n        /* \"#utility.yul\":5647:5649   */\n      0x20\n        /* \"#utility.yul\":5636:5645   */\n      dup3\n        /* \"#utility.yul\":5632:5650   */\n      add\n        /* \"#utility.yul\":5624:5650   */\n      swap1\n      pop\n        /* \"#utility.yul\":5660:5731   */\n      tag_749\n        /* \"#utility.yul\":5728:5729   */\n      0x00\n        /* \"#utility.yul\":5717:5726   */\n      dup4\n        /* \"#utility.yul\":5713:5730   */\n      add\n        /* \"#utility.yul\":5704:5710   */\n      dup5\n        /* \"#utility.yul\":5660:5731   */\n      tag_620\n      jump\t// in\n    tag_749:\n        /* \"#utility.yul\":5516:5738   */\n      swap3\n      swap2\n      pop\n      pop\n      jump\t// out\n        /* \"#utility.yul\":5744:5861   */\n    tag_621:\n        /* \"#utility.yul\":5802:5809   */\n      0x00\n        /* \"#utility.yul\":5831:5855   */\n      tag_751\n        /* \"#utility.yul\":5849:5854   */\n      dup3\n        /* \"#utility.yul\":5831:5855   */\n      tag_604\n      jump\t// in\n    tag_751:\n        /* \"#utility.yul\":5820:5855   */\n      swap1\n      pop\n        /* \"#utility.yul\":5744:5861   */\n      swap2\n      swap1\n      pop\n      jump\t// out\n        /* \"#utility.yul\":5867:6031   */\n    tag_622:\n        /* \"#utility.yul\":5961:6006   */\n      tag_753\n        /* \"#utility.yul\":6000:6005   */\n      dup2\n        /* \"#utility.yul\":5961:6006   */\n      tag_621\n      jump\t// in\n    tag_753:\n        /* \"#utility.yul\":5954:5959   */\n      dup2\n        /* \"#utility.yul\":5951:6007   */\n      eq\n        /* \"#utility.yul\":5941:6025   */\n      tag_754\n      jumpi\n        /* \"#utility.yul\":6021:6022   */\n      0x00\n        /* \"#utility.yul\":6018:6019   */\n      dup1\n        /* \"#utility.yul\":6011:6023   */\n      revert\n        /* \"#utility.yul\":5941:6025   */\n    tag_754:\n        /* \"#utility.yul\":5867:6031   */\n      pop\n      jump\t// out\n        /* \"#utility.yul\":6037:6218   */\n    tag_623:\n        /* \"#utility.yul\":6104:6109   */\n      0x00\n        /* \"#utility.yul\":6142:6148   */\n      dup2\n        /* \"#utility.yul\":6129:6149   */\n      calldataload\n        /* \"#utility.yul\":6120:6149   */\n      swap1\n      pop\n        /* \"#utility.yul\":6158:6212   */\n      tag_756\n        /* \"#utility.yul\":6206:6211   */\n      dup2\n        /* \"#utility.yul\":6158:6212   */\n      tag_622\n      jump\t// in\n    tag_756:\n        /* \"#utility.yul\":6037:6218   */\n      swap3\n      swap2\n      pop\n      pop\n      jump\t// out\n        /* \"#utility.yul\":6224:6595   */\n    tag_82:\n        /* \"#utility.yul\":6304:6310   */\n      0x00\n        /* \"#utility.yul\":6353:6355   */\n      0x20\n        /* \"#utility.yul\":6341:6350   */\n      dup3\n        /* \"#utility.yul\":6332:6339   */\n      dup5\n        /* \"#utility.yul\":6328:6351   */\n      sub\n        /* \"#utility.yul\":6324:6356   */\n      slt\n        /* \"#utility.yul\":6321:6440   */\n      iszero\n      tag_758\n      jumpi\n        /* \"#utility.yul\":6359:6438   */\n      tag_759\n      tag_601\n      jump\t// in\n    tag_759:\n        /* \"#utility.yul\":6321:6440   */\n    tag_758:\n        /* \"#utility.yul\":6479:6480   */\n      0x00\n        /* \"#utility.yul\":6504:6578   */\n      tag_760\n        /* \"#utility.yul\":6570:6577   */\n      dup5\n        /* \"#utility.yul\":6561:6567   */\n      dup3\n        /* \"#utility.yul\":6550:6559   */\n      dup6\n        /* \"#utility.yul\":6546:6568   */\n      add\n        /* \"#utility.yul\":6504:6578   */\n      tag_623\n      jump\t// in\n    tag_760:\n        /* \"#utility.yul\":6494:6578   */\n      swap2\n      pop\n        /* \"#utility.yul\":6450:6588   */\n      pop\n        /* \"#utility.yul\":6224:6595   */\n      swap3\n      swap2\n      pop\n      pop\n      jump\t// out\n        /* \"#utility.yul\":6601:6712   */\n    tag_624:\n        /* \"#utility.yul\":6653:6660   */\n      0x00\n        /* \"#utility.yul\":6682:6706   */\n      tag_762\n        /* \"#utility.yul\":6700:6705   */\n      dup3\n        /* \"#utility.yul\":6682:6706   */\n      tag_604\n      jump\t// in\n    tag_762:\n        /* \"#utility.yul\":6671:6706   */\n      swap1\n      pop\n        /* \"#utility.yul\":6601:6712   */\n      swap2\n      swap1\n      pop\n      jump\t// out\n        /* \"#utility.yul\":6718:6870   */\n    tag_625:\n        /* \"#utility.yul\":6806:6845   */\n      tag_764\n        /* \"#utility.yul\":6839:6844   */\n      dup2\n        /* \"#utility.yul\":6806:6845   */\n      tag_624\n      jump\t// in\n    tag_764:\n        /* \"#utility.yul\":6799:6804   */\n      dup2\n        /* \"#utility.yul\":6796:6846   */\n      eq\n        /* \"#utility.yul\":6786:6864   */\n      tag_765\n      jumpi\n        /* \"#utility.yul\":6860:6861   */\n      0x00\n        /* \"#utility.yul\":6857:6858   */\n      dup1\n        /* \"#utility.yul\":6850:6862   */\n      revert\n        /* \"#utility.yul\":6786:6864   */\n    tag_765:\n        /* \"#utility.yul\":6718:6870   */\n      pop\n      jump\t// out\n        /* \"#utility.yul\":6876:7045   */\n    tag_626:\n        /* \"#utility.yul\":6937:6942   */\n      0x00\n        /* \"#utility.yul\":6975:6981   */\n      dup2\n        /* \"#utility.yul\":6962:6982   */\n      calldataload\n        /* \"#utility.yul\":6953:6982   */\n      swap1\n      pop\n        /* \"#utility.yul\":6991:7039   */\n      tag_767\n        /* \"#utility.yul\":7033:7038   */\n      dup2\n        /* \"#utility.yul\":6991:7039   */\n      tag_625\n      jump\t// in\n    tag_767:\n        /* \"#utility.yul\":6876:7045   */\n      swap3\n      swap2\n      pop\n      pop\n      jump\t// out\n        /* \"#utility.yul\":7051:7555   */\n    tag_101:\n        /* \"#utility.yul\":7134:7140   */\n      0x00\n        /* \"#utility.yul\":7142:7148   */\n      dup1\n        /* \"#utility.yul\":7191:7193   */\n      0x40\n        /* \"#utility.yul\":7179:7188   */\n      dup4\n        /* \"#utility.yul\":7170:7177   */\n      dup6\n        /* \"#utility.yul\":7166:7189   */\n      sub\n        /* \"#utility.yul\":7162:7194   */\n      slt\n        /* \"#utility.yul\":7159:7278   */\n      iszero\n      tag_769\n      jumpi\n        /* \"#utility.yul\":7197:7276   */\n      tag_770\n      tag_601\n      jump\t// in\n    tag_770:\n        /* \"#utility.yul\":7159:7278   */\n    tag_769:\n        /* \"#utility.yul\":7317:7318   */\n      0x00\n        /* \"#utility.yul\":7342:7410   */\n      tag_771\n        /* \"#utility.yul\":7402:7409   */\n      dup6\n        /* \"#utility.yul\":7393:7399   */\n      dup3\n        /* \"#utility.yul\":7382:7391   */\n      dup7\n        /* \"#utility.yul\":7378:7400   */\n      add\n        /* \"#utility.yul\":7342:7410   */\n      tag_626\n      jump\t// in\n    tag_771:\n        /* \"#utility.yul\":7332:7410   */\n      swap3\n      pop\n        /* \"#utility.yul\":7288:7420   */\n      pop\n        /* \"#utility.yul\":7459:7461   */\n      0x20\n        /* \"#utility.yul\":7485:7538   */\n      tag_772\n        /* \"#utility.yul\":7530:7537   */\n      dup6\n        /* \"#utility.yul\":7521:7527   */\n      dup3\n        /* \"#utility.yul\":7510:7519   */\n      dup7\n        /* \"#utility.yul\":7506:7528   */\n      add\n        /* \"#utility.yul\":7485:7538   */\n      tag_608\n      jump\t// in\n    tag_772:\n        /* \"#utility.yul\":7475:7538   */\n      swap2\n      pop\n        /* \"#utility.yul\":7430:7548   */\n      pop\n        /* \"#utility.yul\":7051:7555   */\n      swap3\n      pop\n      swap3\n      swap1\n      pop\n      jump\t// out\n        /* \"#utility.yul\":7561:7702   */\n    tag_627:\n        /* \"#utility.yul\":7626:7635   */\n      0x00\n        /* \"#utility.yul\":7659:7696   */\n      tag_774\n        /* \"#utility.yul\":7690:7695   */\n      dup3\n        /* \"#utility.yul\":7659:7696   */\n      tag_611\n      jump\t// in\n    tag_774:\n        /* \"#utility.yul\":7646:7696   */\n      swap1\n      pop\n        /* \"#utility.yul\":7561:7702   */\n      swap2\n      swap1\n      pop\n      jump\t// out\n        /* \"#utility.yul\":7708:7869   */\n    tag_628:\n        /* \"#utility.yul\":7810:7862   */\n      tag_776\n        /* \"#utility.yul\":7856:7861   */\n      dup2\n        /* \"#utility.yul\":7810:7862   */\n      tag_627\n      jump\t// in\n    tag_776:\n        /* \"#utility.yul\":7805:7808   */\n      dup3\n        /* \"#utility.yul\":7798:7863   */\n      mstore\n        /* \"#utility.yul\":7708:7869   */\n      pop\n      pop\n      jump\t// out\n        /* \"#utility.yul\":7875:8237   */\n    tag_122:\n        /* \"#utility.yul\":8011:8015   */\n      0x00\n        /* \"#utility.yul\":8049:8051   */\n      0x40\n        /* \"#utility.yul\":8038:8047   */\n      dup3\n        /* \"#utility.yul\":8034:8052   */\n      add\n        /* \"#utility.yul\":8026:8052   */\n      swap1\n      pop\n        /* \"#utility.yul\":8062:8148   */\n      tag_778\n        /* \"#utility.yul\":8145:8146   */\n      0x00\n        /* \"#utility.yul\":8134:8143   */\n      dup4\n        /* \"#utility.yul\":8130:8147   */\n      add\n        /* \"#utility.yul\":8121:8127   */\n      dup6\n        /* \"#utility.yul\":8062:8148   */\n      tag_628\n      jump\t// in\n    tag_778:\n        /* \"#utility.yul\":8158:8230   */\n      tag_779\n        /* \"#utility.yul\":8226:8228   */\n      0x20\n        /* \"#utility.yul\":8215:8224   */\n      dup4\n        /* \"#utility.yul\":8211:8229   */\n      add\n        /* \"#utility.yul\":8202:8208   */\n      dup5\n        /* \"#utility.yul\":8158:8230   */\n      tag_599\n      jump\t// in\n    tag_779:\n        /* \"#utility.yul\":7875:8237   */\n      swap4\n      swap3\n      pop\n      pop\n      pop\n      jump\t// out\n        /* \"#utility.yul\":8243:8856   */\n    tag_127:\n        /* \"#utility.yul\":8317:8323   */\n      0x00\n        /* \"#utility.yul\":8325:8331   */\n      dup1\n        /* \"#utility.yul\":8333:8339   */\n      0x00\n        /* \"#utility.yul\":8382:8384   */\n      0x60\n        /* \"#utility.yul\":8370:8379   */\n      dup5\n        /* \"#utility.yul\":8361:8368   */\n      dup7\n        /* \"#utility.yul\":8357:8380   */\n      sub\n        /* \"#utility.yul\":8353:8385   */\n      slt\n        /* \"#utility.yul\":8350:8469   */\n      iszero\n      tag_781\n      jumpi\n        /* \"#utility.yul\":8388:8467   */\n      tag_782\n      tag_601\n      jump\t// in\n    tag_782:\n        /* \"#utility.yul\":8350:8469   */\n    tag_781:\n        /* \"#utility.yul\":8508:8509   */\n      0x00\n        /* \"#utility.yul\":8533:8586   */\n      tag_783\n        /* \"#utility.yul\":8578:8585   */\n      dup7\n        /* \"#utility.yul\":8569:8575   */\n      dup3\n        /* \"#utility.yul\":8558:8567   */\n      dup8\n        /* \"#utility.yul\":8554:8576   */\n      add\n        /* \"#utility.yul\":8533:8586   */\n      tag_608\n      jump\t// in\n    tag_783:\n        /* \"#utility.yul\":8523:8586   */\n      swap4\n      pop\n        /* \"#utility.yul\":8479:8596   */\n      pop\n        /* \"#utility.yul\":8635:8637   */\n      0x20\n        /* \"#utility.yul\":8661:8714   */\n      tag_784\n        /* \"#utility.yul\":8706:8713   */\n      dup7\n        /* \"#utility.yul\":8697:8703   */\n      dup3\n        /* \"#utility.yul\":8686:8695   */\n      dup8\n        /* \"#utility.yul\":8682:8704   */\n      add\n        /* \"#utility.yul\":8661:8714   */\n      tag_608\n      jump\t// in\n    tag_784:\n        /* \"#utility.yul\":8651:8714   */\n      swap3\n      pop\n        /* \"#utility.yul\":8606:8724   */\n      pop\n        /* \"#utility.yul\":8763:8765   */\n      0x40\n        /* \"#utility.yul\":8789:8839   */\n      tag_785\n        /* \"#utility.yul\":8831:8838   */\n      dup7\n        /* \"#utility.yul\":8822:8828   */\n      dup3\n        /* \"#utility.yul\":8811:8820   */\n      dup8\n        /* \"#utility.yul\":8807:8829   */\n      add\n        /* \"#utility.yul\":8789:8839   */\n      tag_619\n      jump\t// in\n    tag_785:\n        /* \"#utility.yul\":8779:8839   */\n      swap2\n      pop\n        /* \"#utility.yul\":8734:8849   */\n      pop\n        /* \"#utility.yul\":8243:8856   */\n      swap3\n      pop\n      swap3\n      pop\n      swap3\n      jump\t// out\n        /* \"#utility.yul\":8862:9009   */\n    tag_629:\n        /* \"#utility.yul\":8933:8942   */\n      0x00\n        /* \"#utility.yul\":8966:9003   */\n      tag_787\n        /* \"#utility.yul\":8997:9002   */\n      dup3\n        /* \"#utility.yul\":8966:9003   */\n      tag_611\n      jump\t// in\n    tag_787:\n        /* \"#utility.yul\":8953:9003   */\n      swap1\n      pop\n        /* \"#utility.yul\":8862:9009   */\n      swap2\n      swap1\n      pop\n      jump\t// out\n        /* \"#utility.yul\":9015:9188   */\n    tag_630:\n        /* \"#utility.yul\":9123:9181   */\n      tag_789\n        /* \"#utility.yul\":9175:9180   */\n      dup2\n        /* \"#utility.yul\":9123:9181   */\n      tag_629\n      jump\t// in\n    tag_789:\n        /* \"#utility.yul\":9118:9121   */\n      dup3\n        /* \"#utility.yul\":9111:9182   */\n      mstore\n        /* \"#utility.yul\":9015:9188   */\n      pop\n      pop\n      jump\t// out\n        /* \"#utility.yul\":9194:9458   */\n    tag_134:\n        /* \"#utility.yul\":9308:9312   */\n      0x00\n        /* \"#utility.yul\":9346:9348   */\n      0x20\n        /* \"#utility.yul\":9335:9344   */\n      dup3\n        /* \"#utility.yul\":9331:9349   */\n      add\n        /* \"#utility.yul\":9323:9349   */\n      swap1\n      pop\n        /* \"#utility.yul\":9359:9451   */\n      tag_791\n        /* \"#utility.yul\":9448:9449   */\n      0x00\n        /* \"#utility.yul\":9437:9446   */\n      dup4\n        /* \"#utility.yul\":9433:9450   */\n      add\n        /* \"#utility.yul\":9424:9430   */\n      dup5\n        /* \"#utility.yul\":9359:9451   */\n      tag_630\n      jump\t// in\n    tag_791:\n        /* \"#utility.yul\":9194:9458   */\n      swap3\n      swap2\n      pop\n      pop\n      jump\t// out\n        /* \"#utility.yul\":9464:9938   */\n    tag_154:\n        /* \"#utility.yul\":9532:9538   */\n      0x00\n        /* \"#utility.yul\":9540:9546   */\n      dup1\n        /* \"#utility.yul\":9589:9591   */\n      0x40\n        /* \"#utility.yul\":9577:9586   */\n      dup4\n        /* \"#utility.yul\":9568:9575   */\n      dup6\n        /* \"#utility.yul\":9564:9587   */\n      sub\n        /* \"#utility.yul\":9560:9592   */\n      slt\n        /* \"#utility.yul\":9557:9676   */\n      iszero\n      tag_793\n      jumpi\n        /* \"#utility.yul\":9595:9674   */\n      tag_794\n      tag_601\n      jump\t// in\n    tag_794:\n        /* \"#utility.yul\":9557:9676   */\n    tag_793:\n        /* \"#utility.yul\":9715:9716   */\n      0x00\n        /* \"#utility.yul\":9740:9793   */\n      tag_795\n        /* \"#utility.yul\":9785:9792   */\n      dup6\n        /* \"#utility.yul\":9776:9782   */\n      dup3\n        /* \"#utility.yul\":9765:9774   */\n      dup7\n        /* \"#utility.yul\":9761:9783   */\n      add\n        /* \"#utility.yul\":9740:9793   */\n      tag_608\n      jump\t// in\n    tag_795:\n        /* \"#utility.yul\":9730:9793   */\n      swap3\n      pop\n        /* \"#utility.yul\":9686:9803   */\n      pop\n        /* \"#utility.yul\":9842:9844   */\n      0x20\n        /* \"#utility.yul\":9868:9921   */\n      tag_796\n        /* \"#utility.yul\":9913:9920   */\n      dup6\n        /* \"#utility.yul\":9904:9910   */\n      dup3\n        /* \"#utility.yul\":9893:9902   */\n      dup7\n        /* \"#utility.yul\":9889:9911   */\n      add\n        /* \"#utility.yul\":9868:9921   */\n      tag_606\n      jump\t// in\n    tag_796:\n        /* \"#utility.yul\":9858:9921   */\n      swap2\n      pop\n        /* \"#utility.yul\":9813:9931   */\n      pop\n        /* \"#utility.yul\":9464:9938   */\n      swap3\n      pop\n      swap3\n      swap1\n      pop\n      jump\t// out\n        /* \"#utility.yul\":9944:10276   */\n    tag_157:\n        /* \"#utility.yul\":10065:10069   */\n      0x00\n        /* \"#utility.yul\":10103:10105   */\n      0x40\n        /* \"#utility.yul\":10092:10101   */\n      dup3\n        /* \"#utility.yul\":10088:10106   */\n      add\n        /* \"#utility.yul\":10080:10106   */\n      swap1\n      pop\n        /* \"#utility.yul\":10116:10187   */\n      tag_798\n        /* \"#utility.yul\":10184:10185   */\n      0x00\n        /* \"#utility.yul\":10173:10182   */\n      dup4\n        /* \"#utility.yul\":10169:10186   */\n      add\n        /* \"#utility.yul\":10160:10166   */\n      dup6\n        /* \"#utility.yul\":10116:10187   */\n      tag_599\n      jump\t// in\n    tag_798:\n        /* \"#utility.yul\":10197:10269   */\n      tag_799\n        /* \"#utility.yul\":10265:10267   */\n      0x20\n        /* \"#utility.yul\":10254:10263   */\n      dup4\n        /* \"#utility.yul\":10250:10268   */\n      add\n        /* \"#utility.yul\":10241:10247   */\n      dup5\n        /* \"#utility.yul\":10197:10269   */\n      tag_599\n      jump\t// in\n    tag_799:\n        /* \"#utility.yul\":9944:10276   */\n      swap4\n      swap3\n      pop\n      pop\n      pop\n      jump\t// out\n        /* \"#utility.yul\":10282:10532   */\n    tag_164:\n        /* \"#utility.yul\":10389:10393   */\n      0x00\n        /* \"#utility.yul\":10427:10429   */\n      0x20\n        /* \"#utility.yul\":10416:10425   */\n      dup3\n        /* \"#utility.yul\":10412:10430   */\n      add\n        /* \"#utility.yul\":10404:10430   */\n      swap1\n      pop\n        /* \"#utility.yul\":10440:10525   */\n      tag_801\n        /* \"#utility.yul\":10522:10523   */\n      0x00\n        /* \"#utility.yul\":10511:10520   */\n      dup4\n        /* \"#utility.yul\":10507:10524   */\n      add\n        /* \"#utility.yul\":10498:10504   */\n      dup5\n        /* \"#utility.yul\":10440:10525   */\n      tag_613\n      jump\t// in\n    tag_801:\n        /* \"#utility.yul\":10282:10532   */\n      swap3\n      swap2\n      pop\n      pop\n      jump\t// out\n        /* \"#utility.yul\":10538:10707   */\n    tag_631:\n        /* \"#utility.yul\":10622:10633   */\n      0x00\n        /* \"#utility.yul\":10656:10662   */\n      dup3\n        /* \"#utility.yul\":10651:10654   */\n      dup3\n        /* \"#utility.yul\":10644:10663   */\n      mstore\n        /* \"#utility.yul\":10696:10700   */\n      0x20\n        /* \"#utility.yul\":10691:10694   */\n      dup3\n        /* \"#utility.yul\":10687:10701   */\n      add\n        /* \"#utility.yul\":10672:10701   */\n      swap1\n      pop\n        /* \"#utility.yul\":10538:10707   */\n      swap3\n      swap2\n      pop\n      pop\n      jump\t// out\n        /* \"#utility.yul\":10713:10895   */\n    tag_632:\n        /* \"#utility.yul\":10853:10887   */\n      0x4f776e61626c653a2063616c6c6572206973206e6f7420746865206f776e6572\n        /* \"#utility.yul\":10849:10850   */\n      0x00\n        /* \"#utility.yul\":10841:10847   */\n      dup3\n        /* \"#utility.yul\":10837:10851   */\n      add\n        /* \"#utility.yul\":10830:10888   */\n      mstore\n        /* \"#utility.yul\":10713:10895   */\n      pop\n      jump\t// out\n        /* \"#utility.yul\":10901:11267   */\n    tag_633:\n        /* \"#utility.yul\":11043:11046   */\n      0x00\n        /* \"#utility.yul\":11064:11131   */\n      tag_805\n        /* \"#utility.yul\":11128:11130   */\n      0x20\n        /* \"#utility.yul\":11123:11126   */\n      dup4\n        /* \"#utility.yul\":11064:11131   */\n      tag_631\n      jump\t// in\n    tag_805:\n        /* \"#utility.yul\":11057:11131   */\n      swap2\n      pop\n        /* \"#utility.yul\":11140:11233   */\n      tag_806\n        /* \"#utility.yul\":11229:11232   */\n      dup3\n        /* \"#utility.yul\":11140:11233   */\n      tag_632\n      jump\t// in\n    tag_806:\n        /* \"#utility.yul\":11258:11260   */\n      0x20\n        /* \"#utility.yul\":11253:11256   */\n      dup3\n        /* \"#utility.yul\":11249:11261   */\n      add\n        /* \"#utility.yul\":11242:11261   */\n      swap1\n      pop\n        /* \"#utility.yul\":10901:11267   */\n      swap2\n      swap1\n      pop\n      jump\t// out\n        /* \"#utility.yul\":11273:11692   */\n    tag_189:\n        /* \"#utility.yul\":11439:11443   */\n      0x00\n        /* \"#utility.yul\":11477:11479   */\n      0x20\n        /* \"#utility.yul\":11466:11475   */\n      dup3\n        /* \"#utility.yul\":11462:11480   */\n      add\n        /* \"#utility.yul\":11454:11480   */\n      swap1\n      pop\n        /* \"#utility.yul\":11526:11535   */\n      dup2\n        /* \"#utility.yul\":11520:11524   */\n      dup2\n        /* \"#utility.yul\":11516:11536   */\n      sub\n        /* \"#utility.yul\":11512:11513   */\n      0x00\n        /* \"#utility.yul\":11501:11510   */\n      dup4\n        /* \"#utility.yul\":11497:11514   */\n      add\n        /* \"#utility.yul\":11490:11537   */\n      mstore\n        /* \"#utility.yul\":11554:11685   */\n      tag_808\n        /* \"#utility.yul\":11680:11684   */\n      dup2\n        /* \"#utility.yul\":11554:11685   */\n      tag_633\n      jump\t// in\n    tag_808:\n        /* \"#utility.yul\":11546:11685   */\n      swap1\n      pop\n        /* \"#utility.yul\":11273:11692   */\n      swap2\n      swap1\n      pop\n      jump\t// out\n        /* \"#utility.yul\":11698:11878   */\n    tag_194:\n        /* \"#utility.yul\":11746:11823   */\n      0x4e487b7100000000000000000000000000000000000000000000000000000000\n        /* \"#utility.yul\":11743:11744   */\n      0x00\n        /* \"#utility.yul\":11736:11824   */\n      mstore\n        /* \"#utility.yul\":11843:11847   */\n      0x32\n        /* \"#utility.yul\":11840:11841   */\n      0x04\n        /* \"#utility.yul\":11833:11848   */\n      mstore\n        /* \"#utility.yul\":11867:11871   */\n      0x24\n        /* \"#utility.yul\":11864:11865   */\n      0x00\n        /* \"#utility.yul\":11857:11872   */\n      revert\n        /* \"#utility.yul\":11884:12052   */\n    tag_634:\n        /* \"#utility.yul\":12024:12044   */\n      0x77697468647261773a206e6f7420676f6f640000000000000000000000000000\n        /* \"#utility.yul\":12020:12021   */\n      0x00\n        /* \"#utility.yul\":12012:12018   */\n      dup3\n        /* \"#utility.yul\":12008:12022   */\n      add\n        /* \"#utility.yul\":12001:12045   */\n      mstore\n        /* \"#utility.yul\":11884:12052   */\n      pop\n      jump\t// out\n        /* \"#utility.yul\":12058:12424   */\n    tag_635:\n        /* \"#utility.yul\":12200:12203   */\n      0x00\n        /* \"#utility.yul\":12221:12288   */\n      tag_812\n        /* \"#utility.yul\":12285:12287   */\n      0x12\n        /* \"#utility.yul\":12280:12283   */\n      dup4\n        /* \"#utility.yul\":12221:12288   */\n      tag_631\n      jump\t// in\n    tag_812:\n        /* \"#utility.yul\":12214:12288   */\n      swap2\n      pop\n        /* \"#utility.yul\":12297:12390   */\n      tag_813\n        /* \"#utility.yul\":12386:12389   */\n      dup3\n        /* \"#utility.yul\":12297:12390   */\n      tag_634\n      jump\t// in\n    tag_813:\n        /* \"#utility.yul\":12415:12417   */\n      0x20\n        /* \"#utility.yul\":12410:12413   */\n      dup3\n        /* \"#utility.yul\":12406:12418   */\n      add\n        /* \"#utility.yul\":12399:12418   */\n      swap1\n      pop\n        /* \"#utility.yul\":12058:12424   */\n      swap2\n      swap1\n      pop\n      jump\t// out\n        /* \"#utility.yul\":12430:12849   */\n    tag_198:\n        /* \"#utility.yul\":12596:12600   */\n      0x00\n        /* \"#utility.yul\":12634:12636   */\n      0x20\n        /* \"#utility.yul\":12623:12632   */\n      dup3\n        /* \"#utility.yul\":12619:12637   */\n      add\n        /* \"#utility.yul\":12611:12637   */\n      swap1\n      pop\n        /* \"#utility.yul\":12683:12692   */\n      dup2\n        /* \"#utility.yul\":12677:12681   */\n      dup2\n        /* \"#utility.yul\":12673:12693   */\n      sub\n        /* \"#utility.yul\":12669:12670   */\n      0x00\n        /* \"#utility.yul\":12658:12667   */\n      dup4\n        /* \"#utility.yul\":12654:12671   */\n      add\n        /* \"#utility.yul\":12647:12694   */\n      mstore\n        /* \"#utility.yul\":12711:12842   */\n      tag_815\n        /* \"#utility.yul\":12837:12841   */\n      dup2\n        /* \"#utility.yul\":12711:12842   */\n      tag_635\n      jump\t// in\n    tag_815:\n        /* \"#utility.yul\":12703:12842   */\n      swap1\n      pop\n        /* \"#utility.yul\":12430:12849   */\n      swap2\n      swap1\n      pop\n      jump\t// out\n        /* \"#utility.yul\":12855:12998   */\n    tag_636:\n        /* \"#utility.yul\":12912:12917   */\n      0x00\n        /* \"#utility.yul\":12943:12949   */\n      dup2\n        /* \"#utility.yul\":12937:12950   */\n      mload\n        /* \"#utility.yul\":12928:12950   */\n      swap1\n      pop\n        /* \"#utility.yul\":12959:12992   */\n      tag_817\n        /* \"#utility.yul\":12986:12991   */\n      dup2\n        /* \"#utility.yul\":12959:12992   */\n      tag_607\n      jump\t// in\n    tag_817:\n        /* \"#utility.yul\":12855:12998   */\n      swap3\n      swap2\n      pop\n      pop\n      jump\t// out\n        /* \"#utility.yul\":13004:13355   */\n    tag_226:\n        /* \"#utility.yul\":13074:13080   */\n      0x00\n        /* \"#utility.yul\":13123:13125   */\n      0x20\n        /* \"#utility.yul\":13111:13120   */\n      dup3\n        /* \"#utility.yul\":13102:13109   */\n      dup5\n        /* \"#utility.yul\":13098:13121   */\n      sub\n        /* \"#utility.yul\":13094:13126   */\n      slt\n        /* \"#utility.yul\":13091:13210   */\n      iszero\n      tag_819\n      jumpi\n        /* \"#utility.yul\":13129:13208   */\n      tag_820\n      tag_601\n      jump\t// in\n    tag_820:\n        /* \"#utility.yul\":13091:13210   */\n    tag_819:\n        /* \"#utility.yul\":13249:13250   */\n      0x00\n        /* \"#utility.yul\":13274:13338   */\n      tag_821\n        /* \"#utility.yul\":13330:13337   */\n      dup5\n        /* \"#utility.yul\":13321:13327   */\n      dup3\n        /* \"#utility.yul\":13310:13319   */\n      dup6\n        /* \"#utility.yul\":13306:13328   */\n      add\n        /* \"#utility.yul\":13274:13338   */\n      tag_636\n      jump\t// in\n    tag_821:\n        /* \"#utility.yul\":13264:13338   */\n      swap2\n      pop\n        /* \"#utility.yul\":13220:13348   */\n      pop\n        /* \"#utility.yul\":13004:13355   */\n      swap3\n      swap2\n      pop\n      pop\n      jump\t// out\n        /* \"#utility.yul\":13361:13530   */\n    tag_637:\n        /* \"#utility.yul\":13501:13522   */\n      0x506f776572206973206e6f7420656e6f75676800000000000000000000000000\n        /* \"#utility.yul\":13497:13498   */\n      0x00\n        /* \"#utility.yul\":13489:13495   */\n      dup3\n        /* \"#utility.yul\":13485:13499   */\n      add\n        /* \"#utility.yul\":13478:13523   */\n      mstore\n        /* \"#utility.yul\":13361:13530   */\n      pop\n      jump\t// out\n        /* \"#utility.yul\":13536:13902   */\n    tag_638:\n        /* \"#utility.yul\":13678:13681   */\n      0x00\n        /* \"#utility.yul\":13699:13766   */\n      tag_824\n        /* \"#utility.yul\":13763:13765   */\n      0x13\n        /* \"#utility.yul\":13758:13761   */\n      dup4\n        /* \"#utility.yul\":13699:13766   */\n      tag_631\n      jump\t// in\n    tag_824:\n        /* \"#utility.yul\":13692:13766   */\n      swap2\n      pop\n        /* \"#utility.yul\":13775:13868   */\n      tag_825\n        /* \"#utility.yul\":13864:13867   */\n      dup3\n        /* \"#utility.yul\":13775:13868   */\n      tag_637\n      jump\t// in\n    tag_825:\n        /* \"#utility.yul\":13893:13895   */\n      0x20\n        /* \"#utility.yul\":13888:13891   */\n      dup3\n        /* \"#utility.yul\":13884:13896   */\n      add\n        /* \"#utility.yul\":13877:13896   */\n      swap1\n      pop\n        /* \"#utility.yul\":13536:13902   */\n      swap2\n      swap1\n      pop\n      jump\t// out\n        /* \"#utility.yul\":13908:14327   */\n    tag_250:\n        /* \"#utility.yul\":14074:14078   */\n      0x00\n        /* \"#utility.yul\":14112:14114   */\n      0x20\n        /* \"#utility.yul\":14101:14110   */\n      dup3\n        /* \"#utility.yul\":14097:14115   */\n      add\n        /* \"#utility.yul\":14089:14115   */\n      swap1\n      pop\n        /* \"#utility.yul\":14161:14170   */\n      dup2\n        /* \"#utility.yul\":14155:14159   */\n      dup2\n        /* \"#utility.yul\":14151:14171   */\n      sub\n        /* \"#utility.yul\":14147:14148   */\n      0x00\n        /* \"#utility.yul\":14136:14145   */\n      dup4\n        /* \"#utility.yul\":14132:14149   */\n      add\n        /* \"#utility.yul\":14125:14172   */\n      mstore\n        /* \"#utility.yul\":14189:14320   */\n      tag_827\n        /* \"#utility.yul\":14315:14319   */\n      dup2\n        /* \"#utility.yul\":14189:14320   */\n      tag_638\n      jump\t// in\n    tag_827:\n        /* \"#utility.yul\":14181:14320   */\n      swap1\n      pop\n        /* \"#utility.yul\":13908:14327   */\n      swap2\n      swap1\n      pop\n      jump\t// out\n        /* \"#utility.yul\":14333:14497   */\n    tag_639:\n        /* \"#utility.yul\":14473:14489   */\n      0x416d6f756e74206973207a65726f000000000000000000000000000000000000\n        /* \"#utility.yul\":14469:14470   */\n      0x00\n        /* \"#utility.yul\":14461:14467   */\n      dup3\n        /* \"#utility.yul\":14457:14471   */\n      add\n        /* \"#utility.yul\":14450:14490   */\n      mstore\n        /* \"#utility.yul\":14333:14497   */\n      pop\n      jump\t// out\n        /* \"#utility.yul\":14503:14869   */\n    tag_640:\n        /* \"#utility.yul\":14645:14648   */\n      0x00\n        /* \"#utility.yul\":14666:14733   */\n      tag_830\n        /* \"#utility.yul\":14730:14732   */\n      0x0e\n        /* \"#utility.yul\":14725:14728   */\n      dup4\n        /* \"#utility.yul\":14666:14733   */\n      tag_631\n      jump\t// in\n    tag_830:\n        /* \"#utility.yul\":14659:14733   */\n      swap2\n      pop\n        /* \"#utility.yul\":14742:14835   */\n      tag_831\n        /* \"#utility.yul\":14831:14834   */\n      dup3\n        /* \"#utility.yul\":14742:14835   */\n      tag_639\n      jump\t// in\n    tag_831:\n        /* \"#utility.yul\":14860:14862   */\n      0x20\n        /* \"#utility.yul\":14855:14858   */\n      dup3\n        /* \"#utility.yul\":14851:14863   */\n      add\n        /* \"#utility.yul\":14844:14863   */\n      swap1\n      pop\n        /* \"#utility.yul\":14503:14869   */\n      swap2\n      swap1\n      pop\n      jump\t// out\n        /* \"#utility.yul\":14875:15294   */\n    tag_283:\n        /* \"#utility.yul\":15041:15045   */\n      0x00\n        /* \"#utility.yul\":15079:15081   */\n      0x20\n        /* \"#utility.yul\":15068:15077   */\n      dup3\n        /* \"#utility.yul\":15064:15082   */\n      add\n        /* \"#utility.yul\":15056:15082   */\n      swap1\n      pop\n        /* \"#utility.yul\":15128:15137   */\n      dup2\n        /* \"#utility.yul\":15122:15126   */\n      dup2\n        /* \"#utility.yul\":15118:15138   */\n      sub\n        /* \"#utility.yul\":15114:15115   */\n      0x00\n        /* \"#utility.yul\":15103:15112   */\n      dup4\n        /* \"#utility.yul\":15099:15116   */\n      add\n        /* \"#utility.yul\":15092:15139   */\n      mstore\n        /* \"#utility.yul\":15156:15287   */\n      tag_833\n        /* \"#utility.yul\":15282:15286   */\n      dup2\n        /* \"#utility.yul\":15156:15287   */\n      tag_640\n      jump\t// in\n    tag_833:\n        /* \"#utility.yul\":15148:15287   */\n      swap1\n      pop\n        /* \"#utility.yul\":14875:15294   */\n      swap2\n      swap1\n      pop\n      jump\t// out\n        /* \"#utility.yul\":15300:15477   */\n    tag_641:\n        /* \"#utility.yul\":15440:15469   */\n      0x776974686472617720506f77657220627920756e7374616b696e670000000000\n        /* \"#utility.yul\":15436:15437   */\n      0x00\n        /* \"#utility.yul\":15428:15434   */\n      dup3\n        /* \"#utility.yul\":15424:15438   */\n      add\n        /* \"#utility.yul\":15417:15470   */\n      mstore\n        /* \"#utility.yul\":15300:15477   */\n      pop\n      jump\t// out\n        /* \"#utility.yul\":15483:15849   */\n    tag_642:\n        /* \"#utility.yul\":15625:15628   */\n      0x00\n        /* \"#utility.yul\":15646:15713   */\n      tag_836\n        /* \"#utility.yul\":15710:15712   */\n      0x1b\n        /* \"#utility.yul\":15705:15708   */\n      dup4\n        /* \"#utility.yul\":15646:15713   */\n      tag_631\n      jump\t// in\n    tag_836:\n        /* \"#utility.yul\":15639:15713   */\n      swap2\n      pop\n        /* \"#utility.yul\":15722:15815   */\n      tag_837\n        /* \"#utility.yul\":15811:15814   */\n      dup3\n        /* \"#utility.yul\":15722:15815   */\n      tag_641\n      jump\t// in\n    tag_837:\n        /* \"#utility.yul\":15840:15842   */\n      0x20\n        /* \"#utility.yul\":15835:15838   */\n      dup3\n        /* \"#utility.yul\":15831:15843   */\n      add\n        /* \"#utility.yul\":15824:15843   */\n      swap1\n      pop\n        /* \"#utility.yul\":15483:15849   */\n      swap2\n      swap1\n      pop\n      jump\t// out\n        /* \"#utility.yul\":15855:16274   */\n    tag_304:\n        /* \"#utility.yul\":16021:16025   */\n      0x00\n        /* \"#utility.yul\":16059:16061   */\n      0x20\n        /* \"#utility.yul\":16048:16057   */\n      dup3\n        /* \"#utility.yul\":16044:16062   */\n      add\n        /* \"#utility.yul\":16036:16062   */\n      swap1\n      pop\n        /* \"#utility.yul\":16108:16117   */\n      dup2\n        /* \"#utility.yul\":16102:16106   */\n      dup2\n        /* \"#utility.yul\":16098:16118   */\n      sub\n        /* \"#utility.yul\":16094:16095   */\n      0x00\n        /* \"#utility.yul\":16083:16092   */\n      dup4\n        /* \"#utility.yul\":16079:16096   */\n      add\n        /* \"#utility.yul\":16072:16119   */\n      mstore\n        /* \"#utility.yul\":16136:16267   */\n      tag_839\n        /* \"#utility.yul\":16262:16266   */\n      dup2\n        /* \"#utility.yul\":16136:16267   */\n      tag_642\n      jump\t// in\n    tag_839:\n        /* \"#utility.yul\":16128:16267   */\n      swap1\n      pop\n        /* \"#utility.yul\":15855:16274   */\n      swap2\n      swap1\n      pop\n      jump\t// out\n        /* \"#utility.yul\":16280:16450   */\n    tag_643:\n        /* \"#utility.yul\":16420:16442   */\n      0x6d6967726174653a206e6f206d69677261746f72000000000000000000000000\n        /* \"#utility.yul\":16416:16417   */\n      0x00\n        /* \"#utility.yul\":16408:16414   */\n      dup3\n        /* \"#utility.yul\":16404:16418   */\n      add\n        /* \"#utility.yul\":16397:16443   */\n      mstore\n        /* \"#utility.yul\":16280:16450   */\n      pop\n      jump\t// out\n        /* \"#utility.yul\":16456:16822   */\n    tag_644:\n        /* \"#utility.yul\":16598:16601   */\n      0x00\n        /* \"#utility.yul\":16619:16686   */\n      tag_842\n        /* \"#utility.yul\":16683:16685   */\n      0x14\n        /* \"#utility.yul\":16678:16681   */\n      dup4\n        /* \"#utility.yul\":16619:16686   */\n      tag_631\n      jump\t// in\n    tag_842:\n        /* \"#utility.yul\":16612:16686   */\n      swap2\n      pop\n        /* \"#utility.yul\":16695:16788   */\n      tag_843\n        /* \"#utility.yul\":16784:16787   */\n      dup3\n        /* \"#utility.yul\":16695:16788   */\n      tag_643\n      jump\t// in\n    tag_843:\n        /* \"#utility.yul\":16813:16815   */\n      0x20\n        /* \"#utility.yul\":16808:16811   */\n      dup3\n        /* \"#utility.yul\":16804:16816   */\n      add\n        /* \"#utility.yul\":16797:16816   */\n      swap1\n      pop\n        /* \"#utility.yul\":16456:16822   */\n      swap2\n      swap1\n      pop\n      jump\t// out\n        /* \"#utility.yul\":16828:17247   */\n    tag_324:\n        /* \"#utility.yul\":16994:16998   */\n      0x00\n        /* \"#utility.yul\":17032:17034   */\n      0x20\n        /* \"#utility.yul\":17021:17030   */\n      dup3\n        /* \"#utility.yul\":17017:17035   */\n      add\n        /* \"#utility.yul\":17009:17035   */\n      swap1\n      pop\n        /* \"#utility.yul\":17081:17090   */\n      dup2\n        /* \"#utility.yul\":17075:17079   */\n      dup2\n        /* \"#utility.yul\":17071:17091   */\n      sub\n        /* \"#utility.yul\":17067:17068   */\n      0x00\n        /* \"#utility.yul\":17056:17065   */\n      dup4\n        /* \"#utility.yul\":17052:17069   */\n      add\n        /* \"#utility.yul\":17045:17092   */\n      mstore\n        /* \"#utility.yul\":17109:17240   */\n      tag_845\n        /* \"#utility.yul\":17235:17239   */\n      dup2\n        /* \"#utility.yul\":17109:17240   */\n      tag_644\n      jump\t// in\n    tag_845:\n        /* \"#utility.yul\":17101:17240   */\n      swap1\n      pop\n        /* \"#utility.yul\":16828:17247   */\n      swap2\n      swap1\n      pop\n      jump\t// out\n        /* \"#utility.yul\":17253:17424   */\n    tag_645:\n        /* \"#utility.yul\":17324:17329   */\n      0x00\n        /* \"#utility.yul\":17355:17361   */\n      dup2\n        /* \"#utility.yul\":17349:17362   */\n      mload\n        /* \"#utility.yul\":17340:17362   */\n      swap1\n      pop\n        /* \"#utility.yul\":17371:17418   */\n      tag_847\n        /* \"#utility.yul\":17412:17417   */\n      dup2\n        /* \"#utility.yul\":17371:17418   */\n      tag_615\n      jump\t// in\n    tag_847:\n        /* \"#utility.yul\":17253:17424   */\n      swap3\n      swap2\n      pop\n      pop\n      jump\t// out\n        /* \"#utility.yul\":17430:17809   */\n    tag_338:\n        /* \"#utility.yul\":17514:17520   */\n      0x00\n        /* \"#utility.yul\":17563:17565   */\n      0x20\n        /* \"#utility.yul\":17551:17560   */\n      dup3\n        /* \"#utility.yul\":17542:17549   */\n      dup5\n        /* \"#utility.yul\":17538:17561   */\n      sub\n        /* \"#utility.yul\":17534:17566   */\n      slt\n        /* \"#utility.yul\":17531:17650   */\n      iszero\n      tag_849\n      jumpi\n        /* \"#utility.yul\":17569:17648   */\n      tag_850\n      tag_601\n      jump\t// in\n    tag_850:\n        /* \"#utility.yul\":17531:17650   */\n    tag_849:\n        /* \"#utility.yul\":17689:17690   */\n      0x00\n        /* \"#utility.yul\":17714:17792   */\n      tag_851\n        /* \"#utility.yul\":17784:17791   */\n      dup5\n        /* \"#utility.yul\":17775:17781   */\n      dup3\n        /* \"#utility.yul\":17764:17773   */\n      dup6\n        /* \"#utility.yul\":17760:17782   */\n      add\n        /* \"#utility.yul\":17714:17792   */\n      tag_645\n      jump\t// in\n    tag_851:\n        /* \"#utility.yul\":17704:17792   */\n      swap2\n      pop\n        /* \"#utility.yul\":17660:17802   */\n      pop\n        /* \"#utility.yul\":17430:17809   */\n      swap3\n      swap2\n      pop\n      pop\n      jump\t// out\n        /* \"#utility.yul\":17815:17977   */\n    tag_646:\n        /* \"#utility.yul\":17955:17969   */\n      0x6d6967726174653a206261640000000000000000000000000000000000000000\n        /* \"#utility.yul\":17951:17952   */\n      0x00\n        /* \"#utility.yul\":17943:17949   */\n      dup3\n        /* \"#utility.yul\":17939:17953   */\n      add\n        /* \"#utility.yul\":17932:17970   */\n      mstore\n        /* \"#utility.yul\":17815:17977   */\n      pop\n      jump\t// out\n        /* \"#utility.yul\":17983:18349   */\n    tag_647:\n        /* \"#utility.yul\":18125:18128   */\n      0x00\n        /* \"#utility.yul\":18146:18213   */\n      tag_854\n        /* \"#utility.yul\":18210:18212   */\n      0x0c\n        /* \"#utility.yul\":18205:18208   */\n      dup4\n        /* \"#utility.yul\":18146:18213   */\n      tag_631\n      jump\t// in\n    tag_854:\n        /* \"#utility.yul\":18139:18213   */\n      swap2\n      pop\n        /* \"#utility.yul\":18222:18315   */\n      tag_855\n        /* \"#utility.yul\":18311:18314   */\n      dup3\n        /* \"#utility.yul\":18222:18315   */\n      tag_646\n      jump\t// in\n    tag_855:\n        /* \"#utility.yul\":18340:18342   */\n      0x20\n        /* \"#utility.yul\":18335:18338   */\n      dup3\n        /* \"#utility.yul\":18331:18343   */\n      add\n        /* \"#utility.yul\":18324:18343   */\n      swap1\n      pop\n        /* \"#utility.yul\":17983:18349   */\n      swap2\n      swap1\n      pop\n      jump\t// out\n        /* \"#utility.yul\":18355:18774   */\n    tag_345:\n        /* \"#utility.yul\":18521:18525   */\n      0x00\n        /* \"#utility.yul\":18559:18561   */\n      0x20\n        /* \"#utility.yul\":18548:18557   */\n      dup3\n        /* \"#utility.yul\":18544:18562   */\n      add\n        /* \"#utility.yul\":18536:18562   */\n      swap1\n      pop\n        /* \"#utility.yul\":18608:18617   */\n      dup2\n        /* \"#utility.yul\":18602:18606   */\n      dup2\n        /* \"#utility.yul\":18598:18618   */\n      sub\n        /* \"#utility.yul\":18594:18595   */\n      0x00\n        /* \"#utility.yul\":18583:18592   */\n      dup4\n        /* \"#utility.yul\":18579:18596   */\n      add\n        /* \"#utility.yul\":18572:18619   */\n      mstore\n        /* \"#utility.yul\":18636:18767   */\n      tag_857\n        /* \"#utility.yul\":18762:18766   */\n      dup2\n        /* \"#utility.yul\":18636:18767   */\n      tag_647\n      jump\t// in\n    tag_857:\n        /* \"#utility.yul\":18628:18767   */\n      swap1\n      pop\n        /* \"#utility.yul\":18355:18774   */\n      swap2\n      swap1\n      pop\n      jump\t// out\n        /* \"#utility.yul\":18780:18960   */\n    tag_648:\n        /* \"#utility.yul\":18828:18905   */\n      0x4e487b7100000000000000000000000000000000000000000000000000000000\n        /* \"#utility.yul\":18825:18826   */\n      0x00\n        /* \"#utility.yul\":18818:18906   */\n      mstore\n        /* \"#utility.yul\":18925:18929   */\n      0x11\n        /* \"#utility.yul\":18922:18923   */\n      0x04\n        /* \"#utility.yul\":18915:18930   */\n      mstore\n        /* \"#utility.yul\":18949:18953   */\n      0x24\n        /* \"#utility.yul\":18946:18947   */\n      0x00\n        /* \"#utility.yul\":18939:18954   */\n      revert\n        /* \"#utility.yul\":18966:19199   */\n    tag_396:\n        /* \"#utility.yul\":19005:19008   */\n      0x00\n        /* \"#utility.yul\":19028:19052   */\n      tag_860\n        /* \"#utility.yul\":19046:19051   */\n      dup3\n        /* \"#utility.yul\":19028:19052   */\n      tag_598\n      jump\t// in\n    tag_860:\n        /* \"#utility.yul\":19019:19052   */\n      swap2\n      pop\n        /* \"#utility.yul\":19074:19140   */\n      0xffffffffffffffffffffffffffffffffffffffffffffffffffffffffffffffff\n        /* \"#utility.yul\":19067:19072   */\n      dup3\n        /* \"#utility.yul\":19064:19141   */\n      sub\n        /* \"#utility.yul\":19061:19164   */\n      tag_861\n      jumpi\n        /* \"#utility.yul\":19144:19162   */\n      tag_862\n      tag_648\n      jump\t// in\n    tag_862:\n        /* \"#utility.yul\":19061:19164   */\n    tag_861:\n        /* \"#utility.yul\":19191:19192   */\n      0x01\n        /* \"#utility.yul\":19184:19189   */\n      dup3\n        /* \"#utility.yul\":19180:19193   */\n      add\n        /* \"#utility.yul\":19173:19193   */\n      swap1\n      pop\n        /* \"#utility.yul\":18966:19199   */\n      swap2\n      swap1\n      pop\n      jump\t// out\n        /* \"#utility.yul\":19205:19375   */\n    tag_649:\n        /* \"#utility.yul\":19345:19367   */\n      0x43616c6c6572206973206e6f742066616d696c79000000000000000000000000\n        /* \"#utility.yul\":19341:19342   */\n      0x00\n        /* \"#utility.yul\":19333:19339   */\n      dup3\n        /* \"#utility.yul\":19329:19343   */\n      add\n        /* \"#utility.yul\":19322:19368   */\n      mstore\n        /* \"#utility.yul\":19205:19375   */\n      pop\n      jump\t// out\n        /* \"#utility.yul\":19381:19747   */\n    tag_650:\n        /* \"#utility.yul\":19523:19526   */\n      0x00\n        /* \"#utility.yul\":19544:19611   */\n      tag_865\n        /* \"#utility.yul\":19608:19610   */\n      0x14\n        /* \"#utility.yul\":19603:19606   */\n      dup4\n        /* \"#utility.yul\":19544:19611   */\n      tag_631\n      jump\t// in\n    tag_865:\n        /* \"#utility.yul\":19537:19611   */\n      swap2\n      pop\n        /* \"#utility.yul\":19620:19713   */\n      tag_866\n        /* \"#utility.yul\":19709:19712   */\n      dup3\n        /* \"#utility.yul\":19620:19713   */\n      tag_649\n      jump\t// in\n    tag_866:\n        /* \"#utility.yul\":19738:19740   */\n      0x20\n        /* \"#utility.yul\":19733:19736   */\n      dup3\n        /* \"#utility.yul\":19729:19741   */\n      add\n        /* \"#utility.yul\":19722:19741   */\n      swap1\n      pop\n        /* \"#utility.yul\":19381:19747   */\n      swap2\n      swap1\n      pop\n      jump\t// out\n        /* \"#utility.yul\":19753:20172   */\n    tag_441:\n        /* \"#utility.yul\":19919:19923   */\n      0x00\n        /* \"#utility.yul\":19957:19959   */\n      0x20\n        /* \"#utility.yul\":19946:19955   */\n      dup3\n        /* \"#utility.yul\":19942:19960   */\n      add\n        /* \"#utility.yul\":19934:19960   */\n      swap1\n      pop\n        /* \"#utility.yul\":20006:20015   */\n      dup2\n        /* \"#utility.yul\":20000:20004   */\n      dup2\n        /* \"#utility.yul\":19996:20016   */\n      sub\n        /* \"#utility.yul\":19992:19993   */\n      0x00\n        /* \"#utility.yul\":19981:19990   */\n      dup4\n        /* \"#utility.yul\":19977:19994   */\n      add\n        /* \"#utility.yul\":19970:20017   */\n      mstore\n        /* \"#utility.yul\":20034:20165   */\n      tag_868\n        /* \"#utility.yul\":20160:20164   */\n      dup2\n        /* \"#utility.yul\":20034:20165   */\n      tag_650\n      jump\t// in\n    tag_868:\n        /* \"#utility.yul\":20026:20165   */\n      swap1\n      pop\n        /* \"#utility.yul\":19753:20172   */\n      swap2\n      swap1\n      pop\n      jump\t// out\n        /* \"#utility.yul\":20178:20352   */\n    tag_651:\n        /* \"#utility.yul\":20318:20344   */\n      0x6465706f73697420506f776572206279207374616b696e670000000000000000\n        /* \"#utility.yul\":20314:20315   */\n      0x00\n        /* \"#utility.yul\":20306:20312   */\n      dup3\n        /* \"#utility.yul\":20302:20316   */\n      add\n        /* \"#utility.yul\":20295:20345   */\n      mstore\n        /* \"#utility.yul\":20178:20352   */\n      pop\n      jump\t// out\n        /* \"#utility.yul\":20358:20724   */\n    tag_652:\n        /* \"#utility.yul\":20500:20503   */\n      0x00\n        /* \"#utility.yul\":20521:20588   */\n      tag_871\n        /* \"#utility.yul\":20585:20587   */\n      0x18\n        /* \"#utility.yul\":20580:20583   */\n      dup4\n        /* \"#utility.yul\":20521:20588   */\n      tag_631\n      jump\t// in\n    tag_871:\n        /* \"#utility.yul\":20514:20588   */\n      swap2\n      pop\n        /* \"#utility.yul\":20597:20690   */\n      tag_872\n        /* \"#utility.yul\":20686:20689   */\n      dup3\n        /* \"#utility.yul\":20597:20690   */\n      tag_651\n      jump\t// in\n    tag_872:\n        /* \"#utility.yul\":20715:20717   */\n      0x20\n        /* \"#utility.yul\":20710:20713   */\n      dup3\n        /* \"#utility.yul\":20706:20718   */\n      add\n        /* \"#utility.yul\":20699:20718   */\n      swap1\n      pop\n        /* \"#utility.yul\":20358:20724   */\n      swap2\n      swap1\n      pop\n      jump\t// out\n        /* \"#utility.yul\":20730:21149   */\n    tag_461:\n        /* \"#utility.yul\":20896:20900   */\n      0x00\n        /* \"#utility.yul\":20934:20936   */\n      0x20\n        /* \"#utility.yul\":20923:20932   */\n      dup3\n        /* \"#utility.yul\":20919:20937   */\n      add\n        /* \"#utility.yul\":20911:20937   */\n      swap1\n      pop\n        /* \"#utility.yul\":20983:20992   */\n      dup2\n        /* \"#utility.yul\":20977:20981   */\n      dup2\n        /* \"#utility.yul\":20973:20993   */\n      sub\n        /* \"#utility.yul\":20969:20970   */\n      0x00\n        /* \"#utility.yul\":20958:20967   */\n      dup4\n        /* \"#utility.yul\":20954:20971   */\n      add\n        /* \"#utility.yul\":20947:20994   */\n      mstore\n        /* \"#utility.yul\":21011:21142   */\n      tag_874\n        /* \"#utility.yul\":21137:21141   */\n      dup2\n        /* \"#utility.yul\":21011:21142   */\n      tag_652\n      jump\t// in\n    tag_874:\n        /* \"#utility.yul\":21003:21142   */\n      swap1\n      pop\n        /* \"#utility.yul\":20730:21149   */\n      swap2\n      swap1\n      pop\n      jump\t// out\n        /* \"#utility.yul\":21155:21380   */\n    tag_653:\n        /* \"#utility.yul\":21295:21329   */\n      0x4f776e61626c653a206e6577206f776e657220697320746865207a65726f2061\n        /* \"#utility.yul\":21291:21292   */\n      0x00\n        /* \"#utility.yul\":21283:21289   */\n      dup3\n        /* \"#utility.yul\":21279:21293   */\n      add\n        /* \"#utility.yul\":21272:21330   */\n      mstore\n        /* \"#utility.yul\":21364:21372   */\n      0x6464726573730000000000000000000000000000000000000000000000000000\n        /* \"#utility.yul\":21359:21361   */\n      0x20\n        /* \"#utility.yul\":21351:21357   */\n      dup3\n        /* \"#utility.yul\":21347:21362   */\n      add\n        /* \"#utility.yul\":21340:21373   */\n      mstore\n        /* \"#utility.yul\":21155:21380   */\n      pop\n      jump\t// out\n        /* \"#utility.yul\":21386:21752   */\n    tag_654:\n        /* \"#utility.yul\":21528:21531   */\n      0x00\n        /* \"#utility.yul\":21549:21616   */\n      tag_877\n        /* \"#utility.yul\":21613:21615   */\n      0x26\n        /* \"#utility.yul\":21608:21611   */\n      dup4\n        /* \"#utility.yul\":21549:21616   */\n      tag_631\n      jump\t// in\n    tag_877:\n        /* \"#utility.yul\":21542:21616   */\n      swap2\n      pop\n        /* \"#utility.yul\":21625:21718   */\n      tag_878\n        /* \"#utility.yul\":21714:21717   */\n      dup3\n        /* \"#utility.yul\":21625:21718   */\n      tag_653\n      jump\t// in\n    tag_878:\n        /* \"#utility.yul\":21743:21745   */\n      0x40\n        /* \"#utility.yul\":21738:21741   */\n      dup3\n        /* \"#utility.yul\":21734:21746   */\n      add\n        /* \"#utility.yul\":21727:21746   */\n      swap1\n      pop\n        /* \"#utility.yul\":21386:21752   */\n      swap2\n      swap1\n      pop\n      jump\t// out\n        /* \"#utility.yul\":21758:22177   */\n    tag_487:\n        /* \"#utility.yul\":21924:21928   */\n      0x00\n        /* \"#utility.yul\":21962:21964   */\n      0x20\n        /* \"#utility.yul\":21951:21960   */\n      dup3\n        /* \"#utility.yul\":21947:21965   */\n      add\n        /* \"#utility.yul\":21939:21965   */\n      swap1\n      pop\n        /* \"#utility.yul\":22011:22020   */\n      dup2\n        /* \"#utility.yul\":22005:22009   */\n      dup2\n        /* \"#utility.yul\":22001:22021   */\n      sub\n        /* \"#utility.yul\":21997:21998   */\n      0x00\n        /* \"#utility.yul\":21986:21995   */\n      dup4\n        /* \"#utility.yul\":21982:21999   */\n      add\n        /* \"#utility.yul\":21975:22022   */\n      mstore\n        /* \"#utility.yul\":22039:22170   */\n      tag_880\n        /* \"#utility.yul\":22165:22169   */\n      dup2\n        /* \"#utility.yul\":22039:22170   */\n      tag_654\n      jump\t// in\n    tag_880:\n        /* \"#utility.yul\":22031:22170   */\n      swap1\n      pop\n        /* \"#utility.yul\":21758:22177   */\n      swap2\n      swap1\n      pop\n      jump\t// out\n        /* \"#utility.yul\":22183:22531   */\n    tag_513:\n        /* \"#utility.yul\":22223:22230   */\n      0x00\n        /* \"#utility.yul\":22246:22266   */\n      tag_882\n        /* \"#utility.yul\":22264:22265   */\n      dup3\n        /* \"#utility.yul\":22246:22266   */\n      tag_598\n      jump\t// in\n    tag_882:\n        /* \"#utility.yul\":22241:22266   */\n      swap2\n      pop\n        /* \"#utility.yul\":22280:22300   */\n      tag_883\n        /* \"#utility.yul\":22298:22299   */\n      dup4\n        /* \"#utility.yul\":22280:22300   */\n      tag_598\n      jump\t// in\n    tag_883:\n        /* \"#utility.yul\":22275:22300   */\n      swap3\n      pop\n        /* \"#utility.yul\":22468:22469   */\n      dup2\n        /* \"#utility.yul\":22400:22466   */\n      0xffffffffffffffffffffffffffffffffffffffffffffffffffffffffffffffff\n        /* \"#utility.yul\":22396:22470   */\n      div\n        /* \"#utility.yul\":22393:22394   */\n      dup4\n        /* \"#utility.yul\":22390:22471   */\n      gt\n        /* \"#utility.yul\":22385:22386   */\n      dup3\n        /* \"#utility.yul\":22378:22387   */\n      iszero\n        /* \"#utility.yul\":22371:22388   */\n      iszero\n        /* \"#utility.yul\":22367:22472   */\n      and\n        /* \"#utility.yul\":22364:22495   */\n      iszero\n      tag_884\n      jumpi\n        /* \"#utility.yul\":22475:22493   */\n      tag_885\n      tag_648\n      jump\t// in\n    tag_885:\n        /* \"#utility.yul\":22364:22495   */\n    tag_884:\n        /* \"#utility.yul\":22523:22524   */\n      dup3\n        /* \"#utility.yul\":22520:22521   */\n      dup3\n        /* \"#utility.yul\":22516:22525   */\n      mul\n        /* \"#utility.yul\":22505:22525   */\n      swap1\n      pop\n        /* \"#utility.yul\":22183:22531   */\n      swap3\n      swap2\n      pop\n      pop\n      jump\t// out\n        /* \"#utility.yul\":22537:22717   */\n    tag_655:\n        /* \"#utility.yul\":22585:22662   */\n      0x4e487b7100000000000000000000000000000000000000000000000000000000\n        /* \"#utility.yul\":22582:22583   */\n      0x00\n        /* \"#utility.yul\":22575:22663   */\n      mstore\n        /* \"#utility.yul\":22682:22686   */\n      0x12\n        /* \"#utility.yul\":22679:22680   */\n      0x04\n        /* \"#utility.yul\":22672:22687   */\n      mstore\n        /* \"#utility.yul\":22706:22710   */\n      0x24\n        /* \"#utility.yul\":22703:22704   */\n      0x00\n        /* \"#utility.yul\":22696:22711   */\n      revert\n        /* \"#utility.yul\":22723:22908   */\n    tag_515:\n        /* \"#utility.yul\":22763:22764   */\n      0x00\n        /* \"#utility.yul\":22780:22800   */\n      tag_888\n        /* \"#utility.yul\":22798:22799   */\n      dup3\n        /* \"#utility.yul\":22780:22800   */\n      tag_598\n      jump\t// in\n    tag_888:\n        /* \"#utility.yul\":22775:22800   */\n      swap2\n      pop\n        /* \"#utility.yul\":22814:22834   */\n      tag_889\n        /* \"#utility.yul\":22832:22833   */\n      dup4\n        /* \"#utility.yul\":22814:22834   */\n      tag_598\n      jump\t// in\n    tag_889:\n        /* \"#utility.yul\":22809:22834   */\n      swap3\n      pop\n        /* \"#utility.yul\":22853:22854   */\n      dup3\n        /* \"#utility.yul\":22843:22878   */\n      tag_890\n      jumpi\n        /* \"#utility.yul\":22858:22876   */\n      tag_891\n      tag_655\n      jump\t// in\n    tag_891:\n        /* \"#utility.yul\":22843:22878   */\n    tag_890:\n        /* \"#utility.yul\":22900:22901   */\n      dup3\n        /* \"#utility.yul\":22897:22898   */\n      dup3\n        /* \"#utility.yul\":22893:22902   */\n      div\n        /* \"#utility.yul\":22888:22902   */\n      swap1\n      pop\n        /* \"#utility.yul\":22723:22908   */\n      swap3\n      swap2\n      pop\n      pop\n      jump\t// out\n        /* \"#utility.yul\":22914:23134   */\n    tag_656:\n        /* \"#utility.yul\":23054:23088   */\n      0x536166654d6174683a206d756c7469706c69636174696f6e206f766572666c6f\n        /* \"#utility.yul\":23050:23051   */\n      0x00\n        /* \"#utility.yul\":23042:23048   */\n      dup3\n        /* \"#utility.yul\":23038:23052   */\n      add\n        /* \"#utility.yul\":23031:23089   */\n      mstore\n        /* \"#utility.yul\":23123:23126   */\n      0x7700000000000000000000000000000000000000000000000000000000000000\n        /* \"#utility.yul\":23118:23120   */\n      0x20\n        /* \"#utility.yul\":23110:23116   */\n      dup3\n        /* \"#utility.yul\":23106:23121   */\n      add\n        /* \"#utility.yul\":23099:23127   */\n      mstore\n        /* \"#utility.yul\":22914:23134   */\n      pop\n      jump\t// out\n        /* \"#utility.yul\":23140:23506   */\n    tag_657:\n        /* \"#utility.yul\":23282:23285   */\n      0x00\n        /* \"#utility.yul\":23303:23370   */\n      tag_894\n        /* \"#utility.yul\":23367:23369   */\n      0x21\n        /* \"#utility.yul\":23362:23365   */\n      dup4\n        /* \"#utility.yul\":23303:23370   */\n      tag_631\n      jump\t// in\n    tag_894:\n        /* \"#utility.yul\":23296:23370   */\n      swap2\n      pop\n        /* \"#utility.yul\":23379:23472   */\n      tag_895\n        /* \"#utility.yul\":23468:23471   */\n      dup3\n        /* \"#utility.yul\":23379:23472   */\n      tag_656\n      jump\t// in\n    tag_895:\n        /* \"#utility.yul\":23497:23499   */\n      0x40\n        /* \"#utility.yul\":23492:23495   */\n      dup3\n        /* \"#utility.yul\":23488:23500   */\n      add\n        /* \"#utility.yul\":23481:23500   */\n      swap1\n      pop\n        /* \"#utility.yul\":23140:23506   */\n      swap2\n      swap1\n      pop\n      jump\t// out\n        /* \"#utility.yul\":23512:23931   */\n    tag_518:\n        /* \"#utility.yul\":23678:23682   */\n      0x00\n        /* \"#utility.yul\":23716:23718   */\n      0x20\n        /* \"#utility.yul\":23705:23714   */\n      dup3\n        /* \"#utility.yul\":23701:23719   */\n      add\n        /* \"#utility.yul\":23693:23719   */\n      swap1\n      pop\n        /* \"#utility.yul\":23765:23774   */\n      dup2\n        /* \"#utility.yul\":23759:23763   */\n      dup2\n        /* \"#utility.yul\":23755:23775   */\n      sub\n        /* \"#utility.yul\":23751:23752   */\n      0x00\n        /* \"#utility.yul\":23740:23749   */\n      dup4\n        /* \"#utility.yul\":23736:23753   */\n      add\n        /* \"#utility.yul\":23729:23776   */\n      mstore\n        /* \"#utility.yul\":23793:23924   */\n      tag_897\n        /* \"#utility.yul\":23919:23923   */\n      dup2\n        /* \"#utility.yul\":23793:23924   */\n      tag_657\n      jump\t// in\n    tag_897:\n        /* \"#utility.yul\":23785:23924   */\n      swap1\n      pop\n        /* \"#utility.yul\":23512:23931   */\n      swap2\n      swap1\n      pop\n      jump\t// out\n        /* \"#utility.yul\":23937:24128   */\n    tag_527:\n        /* \"#utility.yul\":23977:23980   */\n      0x00\n        /* \"#utility.yul\":23996:24016   */\n      tag_899\n        /* \"#utility.yul\":24014:24015   */\n      dup3\n        /* \"#utility.yul\":23996:24016   */\n      tag_598\n      jump\t// in\n    tag_899:\n        /* \"#utility.yul\":23991:24016   */\n      swap2\n      pop\n        /* \"#utility.yul\":24030:24050   */\n      tag_900\n        /* \"#utility.yul\":24048:24049   */\n      dup4\n        /* \"#utility.yul\":24030:24050   */\n      tag_598\n      jump\t// in\n    tag_900:\n        /* \"#utility.yul\":24025:24050   */\n      swap3\n      pop\n        /* \"#utility.yul\":24073:24074   */\n      dup3\n        /* \"#utility.yul\":24070:24071   */\n      dup3\n        /* \"#utility.yul\":24066:24075   */\n      add\n        /* \"#utility.yul\":24059:24075   */\n      swap1\n      pop\n        /* \"#utility.yul\":24094:24097   */\n      dup1\n        /* \"#utility.yul\":24091:24092   */\n      dup3\n        /* \"#utility.yul\":24088:24098   */\n      gt\n        /* \"#utility.yul\":24085:24121   */\n      iszero\n      tag_901\n      jumpi\n        /* \"#utility.yul\":24101:24119   */\n      tag_902\n      tag_648\n      jump\t// in\n    tag_902:\n        /* \"#utility.yul\":24085:24121   */\n    tag_901:\n        /* \"#utility.yul\":23937:24128   */\n      swap3\n      swap2\n      pop\n      pop\n      jump\t// out\n        /* \"#utility.yul\":24134:24311   */\n    tag_658:\n        /* \"#utility.yul\":24274:24303   */\n      0x536166654d6174683a206164646974696f6e206f766572666c6f770000000000\n        /* \"#utility.yul\":24270:24271   */\n      0x00\n        /* \"#utility.yul\":24262:24268   */\n      dup3\n        /* \"#utility.yul\":24258:24272   */\n      add\n        /* \"#utility.yul\":24251:24304   */\n      mstore\n        /* \"#utility.yul\":24134:24311   */\n      pop\n      jump\t// out\n        /* \"#utility.yul\":24317:24683   */\n    tag_659:\n        /* \"#utility.yul\":24459:24462   */\n      0x00\n        /* \"#utility.yul\":24480:24547   */\n      tag_905\n        /* \"#utility.yul\":24544:24546   */\n      0x1b\n        /* \"#utility.yul\":24539:24542   */\n      dup4\n        /* \"#utility.yul\":24480:24547   */\n      tag_631\n      jump\t// in\n    tag_905:\n        /* \"#utility.yul\":24473:24547   */\n      swap2\n      pop\n        /* \"#utility.yul\":24556:24649   */\n      tag_906\n        /* \"#utility.yul\":24645:24648   */\n      dup3\n        /* \"#utility.yul\":24556:24649   */\n      tag_658\n      jump\t// in\n    tag_906:\n        /* \"#utility.yul\":24674:24676   */\n      0x20\n        /* \"#utility.yul\":24669:24672   */\n      dup3\n        /* \"#utility.yul\":24665:24677   */\n      add\n        /* \"#utility.yul\":24658:24677   */\n      swap1\n      pop\n        /* \"#utility.yul\":24317:24683   */\n      swap2\n      swap1\n      pop\n      jump\t// out\n        /* \"#utility.yul\":24689:25108   */\n    tag_530:\n        /* \"#utility.yul\":24855:24859   */\n      0x00\n        /* \"#utility.yul\":24893:24895   */\n      0x20\n        /* \"#utility.yul\":24882:24891   */\n      dup3\n        /* \"#utility.yul\":24878:24896   */\n      add\n        /* \"#utility.yul\":24870:24896   */\n      swap1\n      pop\n        /* \"#utility.yul\":24942:24951   */\n      dup2\n        /* \"#utility.yul\":24936:24940   */\n      dup2\n        /* \"#utility.yul\":24932:24952   */\n      sub\n        /* \"#utility.yul\":24928:24929   */\n      0x00\n        /* \"#utility.yul\":24917:24926   */\n      dup4\n        /* \"#utility.yul\":24913:24930   */\n      add\n        /* \"#utility.yul\":24906:24953   */\n      mstore\n        /* \"#utility.yul\":24970:25101   */\n      tag_908\n        /* \"#utility.yul\":25096:25100   */\n      dup2\n        /* \"#utility.yul\":24970:25101   */\n      tag_659\n      jump\t// in\n    tag_908:\n        /* \"#utility.yul\":24962:25101   */\n      swap1\n      pop\n        /* \"#utility.yul\":24689:25108   */\n      swap2\n      swap1\n      pop\n      jump\t// out\n        /* \"#utility.yul\":25114:25446   */\n    tag_534:\n        /* \"#utility.yul\":25235:25239   */\n      0x00\n        /* \"#utility.yul\":25273:25275   */\n      0x40\n        /* \"#utility.yul\":25262:25271   */\n      dup3\n        /* \"#utility.yul\":25258:25276   */\n      add\n        /* \"#utility.yul\":25250:25276   */\n      swap1\n      pop\n        /* \"#utility.yul\":25286:25357   */\n      tag_910\n        /* \"#utility.yul\":25354:25355   */\n      0x00\n        /* \"#utility.yul\":25343:25352   */\n      dup4\n        /* \"#utility.yul\":25339:25356   */\n      add\n        /* \"#utility.yul\":25330:25336   */\n      dup6\n        /* \"#utility.yul\":25286:25357   */\n      tag_620\n      jump\t// in\n    tag_910:\n        /* \"#utility.yul\":25367:25439   */\n      tag_911\n        /* \"#utility.yul\":25435:25437   */\n      0x20\n        /* \"#utility.yul\":25424:25433   */\n      dup4\n        /* \"#utility.yul\":25420:25438   */\n      add\n        /* \"#utility.yul\":25411:25417   */\n      dup5\n        /* \"#utility.yul\":25367:25439   */\n      tag_599\n      jump\t// in\n    tag_911:\n        /* \"#utility.yul\":25114:25446   */\n      swap4\n      swap3\n      pop\n      pop\n      pop\n      jump\t// out\n        /* \"#utility.yul\":25452:25894   */\n    tag_539:\n        /* \"#utility.yul\":25601:25605   */\n      0x00\n        /* \"#utility.yul\":25639:25641   */\n      0x60\n        /* \"#utility.yul\":25628:25637   */\n      dup3\n        /* \"#utility.yul\":25624:25642   */\n      add\n        /* \"#utility.yul\":25616:25642   */\n      swap1\n      pop\n        /* \"#utility.yul\":25652:25723   */\n      tag_913\n        /* \"#utility.yul\":25720:25721   */\n      0x00\n        /* \"#utility.yul\":25709:25718   */\n      dup4\n        /* \"#utility.yul\":25705:25722   */\n      add\n        /* \"#utility.yul\":25696:25702   */\n      dup7\n        /* \"#utility.yul\":25652:25723   */\n      tag_620\n      jump\t// in\n    tag_913:\n        /* \"#utility.yul\":25733:25805   */\n      tag_914\n        /* \"#utility.yul\":25801:25803   */\n      0x20\n        /* \"#utility.yul\":25790:25799   */\n      dup4\n        /* \"#utility.yul\":25786:25804   */\n      add\n        /* \"#utility.yul\":25777:25783   */\n      dup6\n        /* \"#utility.yul\":25733:25805   */\n      tag_620\n      jump\t// in\n    tag_914:\n        /* \"#utility.yul\":25815:25887   */\n      tag_915\n        /* \"#utility.yul\":25883:25885   */\n      0x40\n        /* \"#utility.yul\":25872:25881   */\n      dup4\n        /* \"#utility.yul\":25868:25886   */\n      add\n        /* \"#utility.yul\":25859:25865   */\n      dup5\n        /* \"#utility.yul\":25815:25887   */\n      tag_599\n      jump\t// in\n    tag_915:\n        /* \"#utility.yul\":25452:25894   */\n      swap5\n      swap4\n      pop\n      pop\n      pop\n      pop\n      jump\t// out\n        /* \"#utility.yul\":25900:26232   */\n    tag_543:\n        /* \"#utility.yul\":26021:26025   */\n      0x00\n        /* \"#utility.yul\":26059:26061   */\n      0x40\n        /* \"#utility.yul\":26048:26057   */\n      dup3\n        /* \"#utility.yul\":26044:26062   */\n      add\n        /* \"#utility.yul\":26036:26062   */\n      swap1\n      pop\n        /* \"#utility.yul\":26072:26143   */\n      tag_917\n        /* \"#utility.yul\":26140:26141   */\n      0x00\n        /* \"#utility.yul\":26129:26138   */\n      dup4\n        /* \"#utility.yul\":26125:26142   */\n      add\n        /* \"#utility.yul\":26116:26122   */\n      dup6\n        /* \"#utility.yul\":26072:26143   */\n      tag_620\n      jump\t// in\n    tag_917:\n        /* \"#utility.yul\":26153:26225   */\n      tag_918\n        /* \"#utility.yul\":26221:26223   */\n      0x20\n        /* \"#utility.yul\":26210:26219   */\n      dup4\n        /* \"#utility.yul\":26206:26224   */\n      add\n        /* \"#utility.yul\":26197:26203   */\n      dup5\n        /* \"#utility.yul\":26153:26225   */\n      tag_620\n      jump\t// in\n    tag_918:\n        /* \"#utility.yul\":25900:26232   */\n      swap4\n      swap3\n      pop\n      pop\n      pop\n      jump\t// out\n        /* \"#utility.yul\":26238:26479   */\n    tag_660:\n        /* \"#utility.yul\":26378:26412   */\n      0x5361666545524332303a20617070726f76652066726f6d206e6f6e2d7a65726f\n        /* \"#utility.yul\":26374:26375   */\n      0x00\n        /* \"#utility.yul\":26366:26372   */\n      dup3\n        /* \"#utility.yul\":26362:26376   */\n      add\n        /* \"#utility.yul\":26355:26413   */\n      mstore\n        /* \"#utility.yul\":26447:26471   */\n      0x20746f206e6f6e2d7a65726f20616c6c6f77616e636500000000000000000000\n        /* \"#utility.yul\":26442:26444   */\n      0x20\n        /* \"#utility.yul\":26434:26440   */\n      dup3\n        /* \"#utility.yul\":26430:26445   */\n      add\n        /* \"#utility.yul\":26423:26472   */\n      mstore\n        /* \"#utility.yul\":26238:26479   */\n      pop\n      jump\t// out\n        /* \"#utility.yul\":26485:26851   */\n    tag_661:\n        /* \"#utility.yul\":26627:26630   */\n      0x00\n        /* \"#utility.yul\":26648:26715   */\n      tag_921\n        /* \"#utility.yul\":26712:26714   */\n      0x36\n        /* \"#utility.yul\":26707:26710   */\n      dup4\n        /* \"#utility.yul\":26648:26715   */\n      tag_631\n      jump\t// in\n    tag_921:\n        /* \"#utility.yul\":26641:26715   */\n      swap2\n      pop\n        /* \"#utility.yul\":26724:26817   */\n      tag_922\n        /* \"#utility.yul\":26813:26816   */\n      dup3\n        /* \"#utility.yul\":26724:26817   */\n      tag_660\n      jump\t// in\n    tag_922:\n        /* \"#utility.yul\":26842:26844   */\n      0x40\n        /* \"#utility.yul\":26837:26840   */\n      dup3\n        /* \"#utility.yul\":26833:26845   */\n      add\n        /* \"#utility.yul\":26826:26845   */\n      swap1\n      pop\n        /* \"#utility.yul\":26485:26851   */\n      swap2\n      swap1\n      pop\n      jump\t// out\n        /* \"#utility.yul\":26857:27276   */\n    tag_549:\n        /* \"#utility.yul\":27023:27027   */\n      0x00\n        /* \"#utility.yul\":27061:27063   */\n      0x20\n        /* \"#utility.yul\":27050:27059   */\n      dup3\n        /* \"#utility.yul\":27046:27064   */\n      add\n        /* \"#utility.yul\":27038:27064   */\n      swap1\n      pop\n        /* \"#utility.yul\":27110:27119   */\n      dup2\n        /* \"#utility.yul\":27104:27108   */\n      dup2\n        /* \"#utility.yul\":27100:27120   */\n      sub\n        /* \"#utility.yul\":27096:27097   */\n      0x00\n        /* \"#utility.yul\":27085:27094   */\n      dup4\n        /* \"#utility.yul\":27081:27098   */\n      add\n        /* \"#utility.yul\":27074:27121   */\n      mstore\n        /* \"#utility.yul\":27138:27269   */\n      tag_924\n        /* \"#utility.yul\":27264:27268   */\n      dup2\n        /* \"#utility.yul\":27138:27269   */\n      tag_661\n      jump\t// in\n    tag_924:\n        /* \"#utility.yul\":27130:27269   */\n      swap1\n      pop\n        /* \"#utility.yul\":26857:27276   */\n      swap2\n      swap1\n      pop\n      jump\t// out\n        /* \"#utility.yul\":27282:27381   */\n    tag_662:\n        /* \"#utility.yul\":27334:27340   */\n      0x00\n        /* \"#utility.yul\":27368:27373   */\n      dup2\n        /* \"#utility.yul\":27362:27374   */\n      mload\n        /* \"#utility.yul\":27352:27374   */\n      swap1\n      pop\n        /* \"#utility.yul\":27282:27381   */\n      swap2\n      swap1\n      pop\n      jump\t// out\n        /* \"#utility.yul\":27387:27633   */\n    tag_663:\n        /* \"#utility.yul\":27468:27469   */\n      0x00\n        /* \"#utility.yul\":27478:27591   */\n    tag_927:\n        /* \"#utility.yul\":27492:27498   */\n      dup4\n        /* \"#utility.yul\":27489:27490   */\n      dup2\n        /* \"#utility.yul\":27486:27499   */\n      lt\n        /* \"#utility.yul\":27478:27591   */\n      iszero\n      tag_929\n      jumpi\n        /* \"#utility.yul\":27577:27578   */\n      dup1\n        /* \"#utility.yul\":27572:27575   */\n      dup3\n        /* \"#utility.yul\":27568:27579   */\n      add\n        /* \"#utility.yul\":27562:27580   */\n      mload\n        /* \"#utility.yul\":27558:27559   */\n      dup2\n        /* \"#utility.yul\":27553:27556   */\n      dup5\n        /* \"#utility.yul\":27549:27560   */\n      add\n        /* \"#utility.yul\":27542:27581   */\n      mstore\n        /* \"#utility.yul\":27514:27516   */\n      0x20\n        /* \"#utility.yul\":27511:27512   */\n      dup2\n        /* \"#utility.yul\":27507:27517   */\n      add\n        /* \"#utility.yul\":27502:27517   */\n      swap1\n      pop\n        /* \"#utility.yul\":27478:27591   */\n      jump(tag_927)\n    tag_929:\n        /* \"#utility.yul\":27625:27626   */\n      0x00\n        /* \"#utility.yul\":27616:27622   */\n      dup5\n        /* \"#utility.yul\":27611:27614   */\n      dup5\n        /* \"#utility.yul\":27607:27623   */\n      add\n        /* \"#utility.yul\":27600:27627   */\n      mstore\n        /* \"#utility.yul\":27449:27633   */\n      pop\n        /* \"#utility.yul\":27387:27633   */\n      pop\n      pop\n      pop\n      jump\t// out\n        /* \"#utility.yul\":27639:27741   */\n    tag_664:\n        /* \"#utility.yul\":27680:27686   */\n      0x00\n        /* \"#utility.yul\":27731:27733   */\n      0x1f\n        /* \"#utility.yul\":27727:27734   */\n      not\n        /* \"#utility.yul\":27722:27724   */\n      0x1f\n        /* \"#utility.yul\":27715:27720   */\n      dup4\n        /* \"#utility.yul\":27711:27725   */\n      add\n        /* \"#utility.yul\":27707:27735   */\n      and\n        /* \"#utility.yul\":27697:27735   */\n      swap1\n      pop\n        /* \"#utility.yul\":27639:27741   */\n      swap2\n      swap1\n      pop\n      jump\t// out\n        /* \"#utility.yul\":27747:28124   */\n    tag_665:\n        /* \"#utility.yul\":27835:27838   */\n      0x00\n        /* \"#utility.yul\":27863:27902   */\n      tag_932\n        /* \"#utility.yul\":27896:27901   */\n      dup3\n        /* \"#utility.yul\":27863:27902   */\n      tag_662\n      jump\t// in\n    tag_932:\n        /* \"#utility.yul\":27918:27989   */\n      tag_933\n        /* \"#utility.yul\":27982:27988   */\n      dup2\n        /* \"#utility.yul\":27977:27980   */\n      dup6\n        /* \"#utility.yul\":27918:27989   */\n      tag_631\n      jump\t// in\n    tag_933:\n        /* \"#utility.yul\":27911:27989   */\n      swap4\n      pop\n        /* \"#utility.yul\":27998:28063   */\n      tag_934\n        /* \"#utility.yul\":28056:28062   */\n      dup2\n        /* \"#utility.yul\":28051:28054   */\n      dup6\n        /* \"#utility.yul\":28044:28048   */\n      0x20\n        /* \"#utility.yul\":28037:28042   */\n      dup7\n        /* \"#utility.yul\":28033:28049   */\n      add\n        /* \"#utility.yul\":27998:28063   */\n      tag_663\n      jump\t// in\n    tag_934:\n        /* \"#utility.yul\":28088:28117   */\n      tag_935\n        /* \"#utility.yul\":28110:28116   */\n      dup2\n        /* \"#utility.yul\":28088:28117   */\n      tag_664\n      jump\t// in\n    tag_935:\n        /* \"#utility.yul\":28083:28086   */\n      dup5\n        /* \"#utility.yul\":28079:28118   */\n      add\n        /* \"#utility.yul\":28072:28118   */\n      swap2\n      pop\n        /* \"#utility.yul\":27839:28124   */\n      pop\n        /* \"#utility.yul\":27747:28124   */\n      swap3\n      swap2\n      pop\n      pop\n      jump\t// out\n        /* \"#utility.yul\":28130:28443   */\n    tag_556:\n        /* \"#utility.yul\":28243:28247   */\n      0x00\n        /* \"#utility.yul\":28281:28283   */\n      0x20\n        /* \"#utility.yul\":28270:28279   */\n      dup3\n        /* \"#utility.yul\":28266:28284   */\n      add\n        /* \"#utility.yul\":28258:28284   */\n      swap1\n      pop\n        /* \"#utility.yul\":28330:28339   */\n      dup2\n        /* \"#utility.yul\":28324:28328   */\n      dup2\n        /* \"#utility.yul\":28320:28340   */\n      sub\n        /* \"#utility.yul\":28316:28317   */\n      0x00\n        /* \"#utility.yul\":28305:28314   */\n      dup4\n        /* \"#utility.yul\":28301:28318   */\n      add\n        /* \"#utility.yul\":28294:28341   */\n      mstore\n        /* \"#utility.yul\":28358:28436   */\n      tag_937\n        /* \"#utility.yul\":28431:28435   */\n      dup2\n        /* \"#utility.yul\":28422:28428   */\n      dup5\n        /* \"#utility.yul\":28358:28436   */\n      tag_665\n      jump\t// in\n    tag_937:\n        /* \"#utility.yul\":28350:28436   */\n      swap1\n      pop\n        /* \"#utility.yul\":28130:28443   */\n      swap3\n      swap2\n      pop\n      pop\n      jump\t// out\n        /* \"#utility.yul\":28449:28643   */\n    tag_562:\n        /* \"#utility.yul\":28489:28493   */\n      0x00\n        /* \"#utility.yul\":28509:28529   */\n      tag_939\n        /* \"#utility.yul\":28527:28528   */\n      dup3\n        /* \"#utility.yul\":28509:28529   */\n      tag_598\n      jump\t// in\n    tag_939:\n        /* \"#utility.yul\":28504:28529   */\n      swap2\n      pop\n        /* \"#utility.yul\":28543:28563   */\n      tag_940\n        /* \"#utility.yul\":28561:28562   */\n      dup4\n        /* \"#utility.yul\":28543:28563   */\n      tag_598\n      jump\t// in\n    tag_940:\n        /* \"#utility.yul\":28538:28563   */\n      swap3\n      pop\n        /* \"#utility.yul\":28587:28588   */\n      dup3\n        /* \"#utility.yul\":28584:28585   */\n      dup3\n        /* \"#utility.yul\":28580:28589   */\n      sub\n        /* \"#utility.yul\":28572:28589   */\n      swap1\n      pop\n        /* \"#utility.yul\":28611:28612   */\n      dup2\n        /* \"#utility.yul\":28605:28609   */\n      dup2\n        /* \"#utility.yul\":28602:28613   */\n      gt\n        /* \"#utility.yul\":28599:28636   */\n      iszero\n      tag_941\n      jumpi\n        /* \"#utility.yul\":28616:28634   */\n      tag_942\n      tag_648\n      jump\t// in\n    tag_942:\n        /* \"#utility.yul\":28599:28636   */\n    tag_941:\n        /* \"#utility.yul\":28449:28643   */\n      swap3\n      swap2\n      pop\n      pop\n      jump\t// out\n        /* \"#utility.yul\":28649:28786   */\n    tag_666:\n        /* \"#utility.yul\":28703:28708   */\n      0x00\n        /* \"#utility.yul\":28734:28740   */\n      dup2\n        /* \"#utility.yul\":28728:28741   */\n      mload\n        /* \"#utility.yul\":28719:28741   */\n      swap1\n      pop\n        /* \"#utility.yul\":28750:28780   */\n      tag_944\n        /* \"#utility.yul\":28774:28779   */\n      dup2\n        /* \"#utility.yul\":28750:28780   */\n      tag_618\n      jump\t// in\n    tag_944:\n        /* \"#utility.yul\":28649:28786   */\n      swap3\n      swap2\n      pop\n      pop\n      jump\t// out\n        /* \"#utility.yul\":28792:29137   */\n    tag_568:\n        /* \"#utility.yul\":28859:28865   */\n      0x00\n        /* \"#utility.yul\":28908:28910   */\n      0x20\n        /* \"#utility.yul\":28896:28905   */\n      dup3\n        /* \"#utility.yul\":28887:28894   */\n      dup5\n        /* \"#utility.yul\":28883:28906   */\n      sub\n        /* \"#utility.yul\":28879:28911   */\n      slt\n        /* \"#utility.yul\":28876:28995   */\n      iszero\n      tag_946\n      jumpi\n        /* \"#utility.yul\":28914:28993   */\n      tag_947\n      tag_601\n      jump\t// in\n    tag_947:\n        /* \"#utility.yul\":28876:28995   */\n    tag_946:\n        /* \"#utility.yul\":29034:29035   */\n      0x00\n        /* \"#utility.yul\":29059:29120   */\n      tag_948\n        /* \"#utility.yul\":29112:29119   */\n      dup5\n        /* \"#utility.yul\":29103:29109   */\n      dup3\n        /* \"#utility.yul\":29092:29101   */\n      dup6\n        /* \"#utility.yul\":29088:29110   */\n      add\n        /* \"#utility.yul\":29059:29120   */\n      tag_666\n      jump\t// in\n    tag_948:\n        /* \"#utility.yul\":29049:29120   */\n      swap2\n      pop\n        /* \"#utility.yul\":29005:29130   */\n      pop\n        /* \"#utility.yul\":28792:29137   */\n      swap3\n      swap2\n      pop\n      pop\n      jump\t// out\n        /* \"#utility.yul\":29143:29372   */\n    tag_667:\n        /* \"#utility.yul\":29283:29317   */\n      0x5361666545524332303a204552433230206f7065726174696f6e20646964206e\n        /* \"#utility.yul\":29279:29280   */\n      0x00\n        /* \"#utility.yul\":29271:29277   */\n      dup3\n        /* \"#utility.yul\":29267:29281   */\n      add\n        /* \"#utility.yul\":29260:29318   */\n      mstore\n        /* \"#utility.yul\":29352:29364   */\n      0x6f74207375636365656400000000000000000000000000000000000000000000\n        /* \"#utility.yul\":29347:29349   */\n      0x20\n        /* \"#utility.yul\":29339:29345   */\n      dup3\n        /* \"#utility.yul\":29335:29350   */\n      add\n        /* \"#utility.yul\":29328:29365   */\n      mstore\n        /* \"#utility.yul\":29143:29372   */\n      pop\n      jump\t// out\n        /* \"#utility.yul\":29378:29744   */\n    tag_668:\n        /* \"#utility.yul\":29520:29523   */\n      0x00\n        /* \"#utility.yul\":29541:29608   */\n      tag_951\n        /* \"#utility.yul\":29605:29607   */\n      0x2a\n        /* \"#utility.yul\":29600:29603   */\n      dup4\n        /* \"#utility.yul\":29541:29608   */\n      tag_631\n      jump\t// in\n    tag_951:\n        /* \"#utility.yul\":29534:29608   */\n      swap2\n      pop\n        /* \"#utility.yul\":29617:29710   */\n      tag_952\n        /* \"#utility.yul\":29706:29709   */\n      dup3\n        /* \"#utility.yul\":29617:29710   */\n      tag_667\n      jump\t// in\n    tag_952:\n        /* \"#utility.yul\":29735:29737   */\n      0x40\n        /* \"#utility.yul\":29730:29733   */\n      dup3\n        /* \"#utility.yul\":29726:29738   */\n      add\n        /* \"#utility.yul\":29719:29738   */\n      swap1\n      pop\n        /* \"#utility.yul\":29378:29744   */\n      swap2\n      swap1\n      pop\n      jump\t// out\n        /* \"#utility.yul\":29750:30169   */\n    tag_571:\n        /* \"#utility.yul\":29916:29920   */\n      0x00\n        /* \"#utility.yul\":29954:29956   */\n      0x20\n        /* \"#utility.yul\":29943:29952   */\n      dup3\n        /* \"#utility.yul\":29939:29957   */\n      add\n        /* \"#utility.yul\":29931:29957   */\n      swap1\n      pop\n        /* \"#utility.yul\":30003:30012   */\n      dup2\n        /* \"#utility.yul\":29997:30001   */\n      dup2\n        /* \"#utility.yul\":29993:30013   */\n      sub\n        /* \"#utility.yul\":29989:29990   */\n      0x00\n        /* \"#utility.yul\":29978:29987   */\n      dup4\n        /* \"#utility.yul\":29974:29991   */\n      add\n        /* \"#utility.yul\":29967:30014   */\n      mstore\n        /* \"#utility.yul\":30031:30162   */\n      tag_954\n        /* \"#utility.yul\":30157:30161   */\n      dup2\n        /* \"#utility.yul\":30031:30162   */\n      tag_668\n      jump\t// in\n    tag_954:\n        /* \"#utility.yul\":30023:30162   */\n      swap1\n      pop\n        /* \"#utility.yul\":29750:30169   */\n      swap2\n      swap1\n      pop\n      jump\t// out\n        /* \"#utility.yul\":30175:30400   */\n    tag_669:\n        /* \"#utility.yul\":30315:30349   */\n      0x416464726573733a20696e73756666696369656e742062616c616e636520666f\n        /* \"#utility.yul\":30311:30312   */\n      0x00\n        /* \"#utility.yul\":30303:30309   */\n      dup3\n        /* \"#utility.yul\":30299:30313   */\n      add\n        /* \"#utility.yul\":30292:30350   */\n      mstore\n        /* \"#utility.yul\":30384:30392   */\n      0x722063616c6c0000000000000000000000000000000000000000000000000000\n        /* \"#utility.yul\":30379:30381   */\n      0x20\n        /* \"#utility.yul\":30371:30377   */\n      dup3\n        /* \"#utility.yul\":30367:30382   */\n      add\n        /* \"#utility.yul\":30360:30393   */\n      mstore\n        /* \"#utility.yul\":30175:30400   */\n      pop\n      jump\t// out\n        /* \"#utility.yul\":30406:30772   */\n    tag_670:\n        /* \"#utility.yul\":30548:30551   */\n      0x00\n        /* \"#utility.yul\":30569:30636   */\n      tag_957\n        /* \"#utility.yul\":30633:30635   */\n      0x26\n        /* \"#utility.yul\":30628:30631   */\n      dup4\n        /* \"#utility.yul\":30569:30636   */\n      tag_631\n      jump\t// in\n    tag_957:\n        /* \"#utility.yul\":30562:30636   */\n      swap2\n      pop\n        /* \"#utility.yul\":30645:30738   */\n      tag_958\n        /* \"#utility.yul\":30734:30737   */\n      dup3\n        /* \"#utility.yul\":30645:30738   */\n      tag_669\n      jump\t// in\n    tag_958:\n        /* \"#utility.yul\":30763:30765   */\n      0x40\n        /* \"#utility.yul\":30758:30761   */\n      dup3\n        /* \"#utility.yul\":30754:30766   */\n      add\n        /* \"#utility.yul\":30747:30766   */\n      swap1\n      pop\n        /* \"#utility.yul\":30406:30772   */\n      swap2\n      swap1\n      pop\n      jump\t// out\n        /* \"#utility.yul\":30778:31197   */\n    tag_578:\n        /* \"#utility.yul\":30944:30948   */\n      0x00\n        /* \"#utility.yul\":30982:30984   */\n      0x20\n        /* \"#utility.yul\":30971:30980   */\n      dup3\n        /* \"#utility.yul\":30967:30985   */\n      add\n        /* \"#utility.yul\":30959:30985   */\n      swap1\n      pop\n        /* \"#utility.yul\":31031:31040   */\n      dup2\n        /* \"#utility.yul\":31025:31029   */\n      dup2\n        /* \"#utility.yul\":31021:31041   */\n      sub\n        /* \"#utility.yul\":31017:31018   */\n      0x00\n        /* \"#utility.yul\":31006:31015   */\n      dup4\n        /* \"#utility.yul\":31002:31019   */\n      add\n        /* \"#utility.yul\":30995:31042   */\n      mstore\n        /* \"#utility.yul\":31059:31190   */\n      tag_960\n        /* \"#utility.yul\":31185:31189   */\n      dup2\n        /* \"#utility.yul\":31059:31190   */\n      tag_670\n      jump\t// in\n    tag_960:\n        /* \"#utility.yul\":31051:31190   */\n      swap1\n      pop\n        /* \"#utility.yul\":30778:31197   */\n      swap2\n      swap1\n      pop\n      jump\t// out\n        /* \"#utility.yul\":31203:31382   */\n    tag_671:\n        /* \"#utility.yul\":31343:31374   */\n      0x416464726573733a2063616c6c20746f206e6f6e2d636f6e7472616374000000\n        /* \"#utility.yul\":31339:31340   */\n      0x00\n        /* \"#utility.yul\":31331:31337   */\n      dup3\n        /* \"#utility.yul\":31327:31341   */\n      add\n        /* \"#utility.yul\":31320:31375   */\n      mstore\n        /* \"#utility.yul\":31203:31382   */\n      pop\n      jump\t// out\n        /* \"#utility.yul\":31388:31754   */\n    tag_672:\n        /* \"#utility.yul\":31530:31533   */\n      0x00\n        /* \"#utility.yul\":31551:31618   */\n      tag_963\n        /* \"#utility.yul\":31615:31617   */\n      0x1d\n        /* \"#utility.yul\":31610:31613   */\n      dup4\n        /* \"#utility.yul\":31551:31618   */\n      tag_631\n      jump\t// in\n    tag_963:\n        /* \"#utility.yul\":31544:31618   */\n      swap2\n      pop\n        /* \"#utility.yul\":31627:31720   */\n      tag_964\n        /* \"#utility.yul\":31716:31719   */\n      dup3\n        /* \"#utility.yul\":31627:31720   */\n      tag_671\n      jump\t// in\n    tag_964:\n        /* \"#utility.yul\":31745:31747   */\n      0x20\n        /* \"#utility.yul\":31740:31743   */\n      dup3\n        /* \"#utility.yul\":31736:31748   */\n      add\n        /* \"#utility.yul\":31729:31748   */\n      swap1\n      pop\n        /* \"#utility.yul\":31388:31754   */\n      swap2\n      swap1\n      pop\n      jump\t// out\n        /* \"#utility.yul\":31760:32179   */\n    tag_583:\n        /* \"#utility.yul\":31926:31930   */\n      0x00\n        /* \"#utility.yul\":31964:31966   */\n      0x20\n        /* \"#utility.yul\":31953:31962   */\n      dup3\n        /* \"#utility.yul\":31949:31967   */\n      add\n        /* \"#utility.yul\":31941:31967   */\n      swap1\n      pop\n        /* \"#utility.yul\":32013:32022   */\n      dup2\n        /* \"#utility.yul\":32007:32011   */\n      dup2\n        /* \"#utility.yul\":32003:32023   */\n      sub\n        /* \"#utility.yul\":31999:32000   */\n      0x00\n        /* \"#utility.yul\":31988:31997   */\n      dup4\n        /* \"#utility.yul\":31984:32001   */\n      add\n        /* \"#utility.yul\":31977:32024   */\n      mstore\n        /* \"#utility.yul\":32041:32172   */\n      tag_966\n        /* \"#utility.yul\":32167:32171   */\n      dup2\n        /* \"#utility.yul\":32041:32172   */\n      tag_672\n      jump\t// in\n    tag_966:\n        /* \"#utility.yul\":32033:32172   */\n      swap1\n      pop\n        /* \"#utility.yul\":31760:32179   */\n      swap2\n      swap1\n      pop\n      jump\t// out\n        /* \"#utility.yul\":32185:32283   */\n    tag_673:\n        /* \"#utility.yul\":32236:32242   */\n      0x00\n        /* \"#utility.yul\":32270:32275   */\n      dup2\n        /* \"#utility.yul\":32264:32276   */\n      mload\n        /* \"#utility.yul\":32254:32276   */\n      swap1\n      pop\n        /* \"#utility.yul\":32185:32283   */\n      swap2\n      swap1\n      pop\n      jump\t// out\n        /* \"#utility.yul\":32289:32436   */\n    tag_674:\n        /* \"#utility.yul\":32390:32401   */\n      0x00\n        /* \"#utility.yul\":32427:32430   */\n      dup2\n        /* \"#utility.yul\":32412:32430   */\n      swap1\n      pop\n        /* \"#utility.yul\":32289:32436   */\n      swap3\n      swap2\n      pop\n      pop\n      jump\t// out\n        /* \"#utility.yul\":32442:32828   */\n    tag_675:\n        /* \"#utility.yul\":32546:32549   */\n      0x00\n        /* \"#utility.yul\":32574:32612   */\n      tag_970\n        /* \"#utility.yul\":32606:32611   */\n      dup3\n        /* \"#utility.yul\":32574:32612   */\n      tag_673\n      jump\t// in\n    tag_970:\n        /* \"#utility.yul\":32628:32716   */\n      tag_971\n        /* \"#utility.yul\":32709:32715   */\n      dup2\n        /* \"#utility.yul\":32704:32707   */\n      dup6\n        /* \"#utility.yul\":32628:32716   */\n      tag_674\n      jump\t// in\n    tag_971:\n        /* \"#utility.yul\":32621:32716   */\n      swap4\n      pop\n        /* \"#utility.yul\":32725:32790   */\n      tag_972\n        /* \"#utility.yul\":32783:32789   */\n      dup2\n        /* \"#utility.yul\":32778:32781   */\n      dup6\n        /* \"#utility.yul\":32771:32775   */\n      0x20\n        /* \"#utility.yul\":32764:32769   */\n      dup7\n        /* \"#utility.yul\":32760:32776   */\n      add\n        /* \"#utility.yul\":32725:32790   */\n      tag_663\n      jump\t// in\n    tag_972:\n        /* \"#utility.yul\":32815:32821   */\n      dup1\n        /* \"#utility.yul\":32810:32813   */\n      dup5\n        /* \"#utility.yul\":32806:32822   */\n      add\n        /* \"#utility.yul\":32799:32822   */\n      swap2\n      pop\n        /* \"#utility.yul\":32550:32828   */\n      pop\n        /* \"#utility.yul\":32442:32828   */\n      swap3\n      swap2\n      pop\n      pop\n      jump\t// out\n        /* \"#utility.yul\":32834:33105   */\n    tag_585:\n        /* \"#utility.yul\":32964:32967   */\n      0x00\n        /* \"#utility.yul\":32986:33079   */\n      tag_974\n        /* \"#utility.yul\":33075:33078   */\n      dup3\n        /* \"#utility.yul\":33066:33072   */\n      dup5\n        /* \"#utility.yul\":32986:33079   */\n      tag_675\n      jump\t// in\n    tag_974:\n        /* \"#utility.yul\":32979:33079   */\n      swap2\n      pop\n        /* \"#utility.yul\":33096:33099   */\n      dup2\n        /* \"#utility.yul\":33089:33099   */\n      swap1\n      pop\n        /* \"#utility.yul\":32834:33105   */\n      swap3\n      swap2\n      pop\n      pop\n      jump\t// out\n\n    auxdata: 0xa264697066735822122060788b95bd3741226b6210d001709cdafdab6ac0a8524387fffb2f40a7d3a9cb64736f6c63430008100033\n}\n",
				"bytecode": {
					"linkReferences": {},
					"object": "6080604052600160045560006008553480156200001b57600080fd5b5060405162004b4238038062004b42833981810160405281019062000041919062000337565b6200006162000055620001b260201b60201c565b620001ba60201b60201c565b82600260006101000a81548173ffffffffffffffffffffffffffffffffffffffff021916908373ffffffffffffffffffffffffffffffffffffffff160217905550816003819055508060098190555060066040518060800160405280600260009054906101000a900473ffffffffffffffffffffffffffffffffffffffff1673ffffffffffffffffffffffffffffffffffffffff1681526020016103e8815260200160095481526020016000815250908060018154018082558091505060019003906000526020600020906004020160009091909190915060008201518160000160006101000a81548173ffffffffffffffffffffffffffffffffffffffff021916908373ffffffffffffffffffffffffffffffffffffffff16021790555060208201518160010155604082015181600201556060820151816003015550506103e860088190555050505062000393565b600033905090565b60008060009054906101000a900473ffffffffffffffffffffffffffffffffffffffff169050816000806101000a81548173ffffffffffffffffffffffffffffffffffffffff021916908373ffffffffffffffffffffffffffffffffffffffff1602179055508173ffffffffffffffffffffffffffffffffffffffff168173ffffffffffffffffffffffffffffffffffffffff167f8be0079c531659141344cd1fd0a4f28419497f9722a3daafe3b4186f6b6457e060405160405180910390a35050565b600080fd5b600073ffffffffffffffffffffffffffffffffffffffff82169050919050565b6000620002b08262000283565b9050919050565b6000620002c482620002a3565b9050919050565b620002d681620002b7565b8114620002e257600080fd5b50565b600081519050620002f681620002cb565b92915050565b6000819050919050565b6200031181620002fc565b81146200031d57600080fd5b50565b600081519050620003318162000306565b92915050565b6000806000606084860312156200035357620003526200027e565b5b60006200036386828701620002e5565b9350506020620003768682870162000320565b9250506040620003898682870162000320565b9150509250925092565b61479f80620003a36000396000f3fe608060405234801561001057600080fd5b50600436106102325760003560e01c80635ffe6146116101305780638da5cb5b116100b8578063cf35fddf1161007c578063cf35fddf1461062c578063d209db8c14610648578063e2bbb15814610678578063f2fde38b14610694578063f3239ab5146106b057610232565b80638da5cb5b146105735780638dbb1e3a1461059157806393f1a40b146105c1578063c11490cc146105f2578063cb3cba551461060e57610232565b8063715018a6116100ff578063715018a6146104df5780637cd07e47146104e957806383e32135146105075780638aa28550146105255780638c51793b1461054357610232565b80635ffe61461461046c57806361c1b72414610488578063630b5ba1146104b957806364482f79146104c357610232565b80633df7aff3116101be5780634ea2813c116101825780634ea2813c146103de57806351eb05a6146103fa5780635312ea8e1461041657806356b4685f146104325780635990c5691461044e57610232565b80633df7aff31461035057806341441d3b1461036c578063441a3e7014610388578063454b0608146103a457806348cd4cb1146103c057610232565b806317caf6f11161020557806317caf6f1146102c05780631d5fbd87146102de5780631eaaa045146102fa57806322f585411461031657806323cf31181461033457610232565b8063081e3eda146102375780630ba33a58146102555780631058d281146102715780631526fe271461028d575b600080fd5b61023f6106e0565b60405161024c91906136a3565b60405180910390f35b61026f600480360381019061026a9190613721565b6106ed565b005b61028b6004803603810190610286919061377a565b6107ad565b005b6102a760048036038101906102a2919061377a565b610a6c565b6040516102b79493929190613806565b60405180910390f35b6102c8610acc565b6040516102d591906136a3565b60405180910390f35b6102f860048036038101906102f3919061384b565b610ad2565b005b610314600480360381019061030f9190613901565b610f56565b005b61031e6110e3565b60405161032b9190613963565b60405180910390f35b61034e600480360381019061034991906139bc565b611109565b005b61036a6004803603810190610365919061377a565b6111c9565b005b6103866004803603810190610381919061377a565b61124f565b005b6103a2600480360381019061039d919061384b565b61151a565b005b6103be60048036038101906103b9919061377a565b611810565b005b6103c8611b62565b6040516103d591906136a3565b60405180910390f35b6103f860048036038101906103f39190613a27565b611b68565b005b610414600480360381019061040f919061377a565b611c91565b005b610430600480360381019061042b919061377a565b611e30565b005b61044c60048036038101906104479190613721565b611f69565b005b610456612029565b60405161046391906136a3565b60405180910390f35b6104866004803603810190610481919061377a565b61202f565b005b6104a2600480360381019061049d919061377a565b6120b5565b6040516104b0929190613a88565b60405180910390f35b6104c1612109565b005b6104dd60048036038101906104d89190613ab1565b61213c565b005b6104e7612248565b005b6104f16122d0565b6040516104fe9190613b25565b60405180910390f35b61050f6122f6565b60405161051c9190613963565b60405180910390f35b61052d61231c565b60405161053a91906136a3565b60405180910390f35b61055d60048036038101906105589190613721565b612322565b60405161056a91906136a3565b60405180910390f35b61057b61236b565b6040516105889190613963565b60405180910390f35b6105ab60048036038101906105a6919061384b565b612394565b6040516105b891906136a3565b60405180910390f35b6105db60048036038101906105d69190613b40565b6123c5565b6040516105e9929190613b80565b60405180910390f35b61060c6004803603810190610607919061384b565b6123f6565b005b6106166124a0565b6040516106239190613ba9565b60405180910390f35b61064660048036038101906106419190613b40565b6124c6565b005b610662600480360381019061065d9190613721565b61287a565b60405161066f91906136a3565b60405180910390f35b610692600480360381019061068d919061384b565b612892565b005b6106ae60048036038101906106a99190613721565b612b94565b005b6106ca60048036038101906106c59190613b40565b612c8b565b6040516106d791906136a3565b60405180910390f35b6000600680549050905090565b6106f5612eb0565b73ffffffffffffffffffffffffffffffffffffffff1661071361236b565b73ffffffffffffffffffffffffffffffffffffffff1614610769576040517f08c379a000000000000000000000000000000000000000000000000000000000815260040161076090613c21565b60405180910390fd5b80600a60006101000a81548173ffffffffffffffffffffffffffffffffffffffff021916908373ffffffffffffffffffffffffffffffffffffffff16021790555050565b600060066000815481106107c4576107c3613c41565b5b9060005260206000209060040201905060006007600080815260200190815260200160002060003373ffffffffffffffffffffffffffffffffffffffff1673ffffffffffffffffffffffffffffffffffffffff1681526020019081526020016000209050828160000154101561086f576040517f08c379a000000000000000000000000000000000000000000000000000000000815260040161086690613cbc565b60405180910390fd5b6108796000611c91565b60006108c382600101546108b564e8d4a510006108a787600301548760000154612eb890919063ffffffff16565b612f3290919063ffffffff16565b612f7c90919063ffffffff16565b905060008111156109645761092081600c60003373ffffffffffffffffffffffffffffffffffffffff1673ffffffffffffffffffffffffffffffffffffffff16815260200190815260200160002054612fc690919063ffffffff16565b600c60003373ffffffffffffffffffffffffffffffffffffffff1673ffffffffffffffffffffffffffffffffffffffff168152602001908152602001600020819055505b60008411156109dc57610984848360000154612f7c90919063ffffffff16565b82600001819055506109db33858560000160009054906101000a900473ffffffffffffffffffffffffffffffffffffffff1673ffffffffffffffffffffffffffffffffffffffff166130249092919063ffffffff16565b5b610a0e64e8d4a51000610a0085600301548560000154612eb890919063ffffffff16565b612f3290919063ffffffff16565b826001018190555060003373ffffffffffffffffffffffffffffffffffffffff167ff279e6a1f5e320cca91135676d9cb6e44ca8a08c0b88342bcdb1144f6511b56886604051610a5e91906136a3565b60405180910390a350505050565b60068181548110610a7c57600080fd5b90600052602060002090600402016000915090508060000160009054906101000a900473ffffffffffffffffffffffffffffffffffffffff16908060010154908060020154908060030154905084565b60085481565b600060068281548110610ae857610ae7613c41565b5b9060005260206000209060040201905060006007600084815260200190815260200160002060003373ffffffffffffffffffffffffffffffffffffffff1673ffffffffffffffffffffffffffffffffffffffff168152602001908152602001600020905060008260030154905060008360000160009054906101000a900473ffffffffffffffffffffffffffffffffffffffff1673ffffffffffffffffffffffffffffffffffffffff166370a08231306040518263ffffffff1660e01b8152600401610bb49190613963565b602060405180830381865afa158015610bd1573d6000803e3d6000fd5b505050506040513d601f19601f82011682018060405250810190610bf59190613cf1565b9050836002015443118015610c0b575060008114155b15610ca6576000610c20856002015443612394565b90506000610c63600854610c558860010154610c4760035487612eb890919063ffffffff16565b612eb890919063ffffffff16565b612f3290919063ffffffff16565b9050610ca1610c9284610c8464e8d4a5100085612eb890919063ffffffff16565b612f3290919063ffffffff16565b85612fc690919063ffffffff16565b935050505b6000610cec8460010154610cde64e8d4a51000610cd0878960000154612eb890919063ffffffff16565b612f3290919063ffffffff16565b612f7c90919063ffffffff16565b9050600060018881548110610d0457610d03613c41565b5b906000526020600020906002020190506000610d68600c60003373ffffffffffffffffffffffffffffffffffffffff1673ffffffffffffffffffffffffffffffffffffffff1681526020019081526020016000205484612fc690919063ffffffff16565b90508160010154811115610d9e5760008803610d8957610d8860006107ad565b5b60008814610d9d57610d9c88600061151a565b5b5b600c60003373ffffffffffffffffffffffffffffffffffffffff1673ffffffffffffffffffffffffffffffffffffffff16815260200190815260200160002054826001015410610e23576040517f08c379a0000000000000000000000000000000000000000000000000000000008152600401610e1a90613d6a565b60405180910390fd5b610e798260010154600c60003373ffffffffffffffffffffffffffffffffffffffff1673ffffffffffffffffffffffffffffffffffffffff16815260200190815260200160002054612f7c90919063ffffffff16565b600c60003373ffffffffffffffffffffffffffffffffffffffff1673ffffffffffffffffffffffffffffffffffffffff168152602001908152602001600020819055508160000160009054906101000a900473ffffffffffffffffffffffffffffffffffffffff1673ffffffffffffffffffffffffffffffffffffffff166317e5883c336040518263ffffffff1660e01b8152600401610f199190613963565b600060405180830381600087803b158015610f3357600080fd5b505af1158015610f47573d6000803e3d6000fd5b50505050505050505050505050565b610f5e612eb0565b73ffffffffffffffffffffffffffffffffffffffff16610f7c61236b565b73ffffffffffffffffffffffffffffffffffffffff1614610fd2576040517f08c379a0000000000000000000000000000000000000000000000000000000008152600401610fc990613c21565b60405180910390fd5b8015610fe157610fe0612109565b5b60006009544311610ff457600954610ff6565b435b905061100d84600854612fc690919063ffffffff16565b600881905550600660405180608001604052808573ffffffffffffffffffffffffffffffffffffffff1681526020018681526020018381526020016000815250908060018154018082558091505060019003906000526020600020906004020160009091909190915060008201518160000160006101000a81548173ffffffffffffffffffffffffffffffffffffffff021916908373ffffffffffffffffffffffffffffffffffffffff160217905550602082015181600101556040820151816002015560608201518160030155505050505050565b600b60009054906101000a900473ffffffffffffffffffffffffffffffffffffffff1681565b611111612eb0565b73ffffffffffffffffffffffffffffffffffffffff1661112f61236b565b73ffffffffffffffffffffffffffffffffffffffff1614611185576040517f08c379a000000000000000000000000000000000000000000000000000000000815260040161117c90613c21565b60405180910390fd5b80600560006101000a81548173ffffffffffffffffffffffffffffffffffffffff021916908373ffffffffffffffffffffffffffffffffffffffff16021790555050565b6111d1612eb0565b73ffffffffffffffffffffffffffffffffffffffff166111ef61236b565b73ffffffffffffffffffffffffffffffffffffffff1614611245576040517f08c379a000000000000000000000000000000000000000000000000000000000815260040161123c90613c21565b60405180910390fd5b8060038190555050565b60008111611292576040517f08c379a000000000000000000000000000000000000000000000000000000000815260040161128990613dd6565b60405180910390fd5b600060066000815481106112a9576112a8613c41565b5b9060005260206000209060040201905060006007600080815260200190815260200160002060003373ffffffffffffffffffffffffffffffffffffffff1673ffffffffffffffffffffffffffffffffffffffff16815260200190815260200160002090506113176000611c91565b60008160000154111561141157600061136e826001015461136064e8d4a5100061135287600301548760000154612eb890919063ffffffff16565b612f3290919063ffffffff16565b612f7c90919063ffffffff16565b9050600081111561140f576113cb81600c60003373ffffffffffffffffffffffffffffffffffffffff1673ffffffffffffffffffffffffffffffffffffffff16815260200190815260200160002054612fc690919063ffffffff16565b600c60003373ffffffffffffffffffffffffffffffffffffffff1673ffffffffffffffffffffffffffffffffffffffff168152602001908152602001600020819055505b505b600083111561148b5761146b3330858560000160009054906101000a900473ffffffffffffffffffffffffffffffffffffffff1673ffffffffffffffffffffffffffffffffffffffff166130aa909392919063ffffffff16565b611482838260000154612fc690919063ffffffff16565b81600001819055505b6114bd64e8d4a510006114af84600301548460000154612eb890919063ffffffff16565b612f3290919063ffffffff16565b816001018190555060003373ffffffffffffffffffffffffffffffffffffffff167f90890809c654f11d6e72a28fa60149770a0d11ec6c92319d6ceb2bb0a4ea1a158560405161150d91906136a3565b60405180910390a3505050565b6000820361155d576040517f08c379a000000000000000000000000000000000000000000000000000000000815260040161155490613e42565b60405180910390fd5b60006006838154811061157357611572613c41565b5b9060005260206000209060040201905060006007600085815260200190815260200160002060003373ffffffffffffffffffffffffffffffffffffffff1673ffffffffffffffffffffffffffffffffffffffff1681526020019081526020016000209050828160000154101561161e576040517f08c379a000000000000000000000000000000000000000000000000000000000815260040161161590613cbc565b60405180910390fd5b61162784611c91565b6000611671826001015461166364e8d4a5100061165587600301548760000154612eb890919063ffffffff16565b612f3290919063ffffffff16565b612f7c90919063ffffffff16565b90506000811115611712576116ce81600c60003373ffffffffffffffffffffffffffffffffffffffff1673ffffffffffffffffffffffffffffffffffffffff16815260200190815260200160002054612fc690919063ffffffff16565b600c60003373ffffffffffffffffffffffffffffffffffffffff1673ffffffffffffffffffffffffffffffffffffffff168152602001908152602001600020819055505b611729848360000154612f7c90919063ffffffff16565b826000018190555061176364e8d4a5100061175585600301548560000154612eb890919063ffffffff16565b612f3290919063ffffffff16565b82600101819055506117ba33858560000160009054906101000a900473ffffffffffffffffffffffffffffffffffffffff1673ffffffffffffffffffffffffffffffffffffffff166130249092919063ffffffff16565b843373ffffffffffffffffffffffffffffffffffffffff167ff279e6a1f5e320cca91135676d9cb6e44ca8a08c0b88342bcdb1144f6511b5688660405161180191906136a3565b60405180910390a35050505050565b600073ffffffffffffffffffffffffffffffffffffffff16600560009054906101000a900473ffffffffffffffffffffffffffffffffffffffff1673ffffffffffffffffffffffffffffffffffffffff16036118a1576040517f08c379a000000000000000000000000000000000000000000000000000000000815260040161189890613eae565b60405180910390fd5b6000600682815481106118b7576118b6613c41565b5b9060005260206000209060040201905060008160000160009054906101000a900473ffffffffffffffffffffffffffffffffffffffff16905060008173ffffffffffffffffffffffffffffffffffffffff166370a08231306040518263ffffffff1660e01b815260040161192b9190613963565b602060405180830381865afa158015611948573d6000803e3d6000fd5b505050506040513d601f19601f8201168201806040525081019061196c9190613cf1565b90506119bb600560009054906101000a900473ffffffffffffffffffffffffffffffffffffffff16828473ffffffffffffffffffffffffffffffffffffffff166131339092919063ffffffff16565b6000600560009054906101000a900473ffffffffffffffffffffffffffffffffffffffff1673ffffffffffffffffffffffffffffffffffffffff1663ce5494bb846040518263ffffffff1660e01b8152600401611a189190613ba9565b6020604051808303816000875af1158015611a37573d6000803e3d6000fd5b505050506040513d601f19601f82011682018060405250810190611a5b9190613ee3565b90508073ffffffffffffffffffffffffffffffffffffffff166370a08231306040518263ffffffff1660e01b8152600401611a969190613963565b602060405180830381865afa158015611ab3573d6000803e3d6000fd5b505050506040513d601f19601f82011682018060405250810190611ad79190613cf1565b8214611b18576040517f08c379a0000000000000000000000000000000000000000000000000000000008152600401611b0f90613f5c565b60405180910390fd5b808460000160006101000a81548173ffffffffffffffffffffffffffffffffffffffff021916908373ffffffffffffffffffffffffffffffffffffffff1602179055505050505050565b60095481565b611b70612eb0565b73ffffffffffffffffffffffffffffffffffffffff16611b8e61236b565b73ffffffffffffffffffffffffffffffffffffffff1614611be4576040517f08c379a0000000000000000000000000000000000000000000000000000000008152600401611bdb90613c21565b60405180910390fd5b600160405180604001604052808473ffffffffffffffffffffffffffffffffffffffff16815260200183815250908060018154018082558091505060019003906000526020600020906002020160009091909190915060008201518160000160006101000a81548173ffffffffffffffffffffffffffffffffffffffff021916908373ffffffffffffffffffffffffffffffffffffffff1602179055506020820151816001015550505050565b600060068281548110611ca757611ca6613c41565b5b9060005260206000209060040201905080600201544311611cc85750611e2d565b60008160000160009054906101000a900473ffffffffffffffffffffffffffffffffffffffff1673ffffffffffffffffffffffffffffffffffffffff166370a08231306040518263ffffffff1660e01b8152600401611d279190613963565b602060405180830381865afa158015611d44573d6000803e3d6000fd5b505050506040513d601f19601f82011682018060405250810190611d689190613cf1565b905060008111611d82574382600201819055505050611e2d565b6000611d92836002015443612394565b90506000611dd5600854611dc78660010154611db960035487612eb890919063ffffffff16565b612eb890919063ffffffff16565b612f3290919063ffffffff16565b9050611e17611e0484611df664e8d4a5100085612eb890919063ffffffff16565b612f3290919063ffffffff16565b8560030154612fc690919063ffffffff16565b8460030181905550438460020181905550505050505b50565b600060068281548110611e4657611e45613c41565b5b9060005260206000209060040201905060006007600084815260200190815260200160002060003373ffffffffffffffffffffffffffffffffffffffff1673ffffffffffffffffffffffffffffffffffffffff1681526020019081526020016000209050611efd3382600001548460000160009054906101000a900473ffffffffffffffffffffffffffffffffffffffff1673ffffffffffffffffffffffffffffffffffffffff166130249092919063ffffffff16565b823373ffffffffffffffffffffffffffffffffffffffff167fbb757047c2b5f3974fe26b7c10f732e7bce710b0952a71082702781e62ae05958360000154604051611f4891906136a3565b60405180910390a36000816000018190555060008160010181905550505050565b611f71612eb0565b73ffffffffffffffffffffffffffffffffffffffff16611f8f61236b565b73ffffffffffffffffffffffffffffffffffffffff1614611fe5576040517f08c379a0000000000000000000000000000000000000000000000000000000008152600401611fdc90613c21565b60405180910390fd5b80600b60006101000a81548173ffffffffffffffffffffffffffffffffffffffff021916908373ffffffffffffffffffffffffffffffffffffffff16021790555050565b60035481565b612037612eb0565b73ffffffffffffffffffffffffffffffffffffffff1661205561236b565b73ffffffffffffffffffffffffffffffffffffffff16146120ab576040517f08c379a00000000000000000000000000000000000000000000000000000000081526004016120a290613c21565b60405180910390fd5b8060048190555050565b600181815481106120c557600080fd5b90600052602060002090600202016000915090508060000160009054906101000a900473ffffffffffffffffffffffffffffffffffffffff16908060010154905082565b6000600680549050905060005b818110156121385761212781611c91565b8061213190613fab565b9050612116565b5050565b612144612eb0565b73ffffffffffffffffffffffffffffffffffffffff1661216261236b565b73ffffffffffffffffffffffffffffffffffffffff16146121b8576040517f08c379a00000000000000000000000000000000000000000000000000000000081526004016121af90613c21565b60405180910390fd5b80156121c7576121c6612109565b5b61221382612205600686815481106121e2576121e1613c41565b5b906000526020600020906004020160010154600854612f7c90919063ffffffff16565b612fc690919063ffffffff16565b600881905550816006848154811061222e5761222d613c41565b5b906000526020600020906004020160010181905550505050565b612250612eb0565b73ffffffffffffffffffffffffffffffffffffffff1661226e61236b565b73ffffffffffffffffffffffffffffffffffffffff16146122c4576040517f08c379a00000000000000000000000000000000000000000000000000000000081526004016122bb90613c21565b60405180910390fd5b6122ce6000613282565b565b600560009054906101000a900473ffffffffffffffffffffffffffffffffffffffff1681565b600a60009054906101000a900473ffffffffffffffffffffffffffffffffffffffff1681565b60045481565b6000600c60008373ffffffffffffffffffffffffffffffffffffffff1673ffffffffffffffffffffffffffffffffffffffff168152602001908152602001600020549050919050565b60008060009054906101000a900473ffffffffffffffffffffffffffffffffffffffff16905090565b60006123bd6004546123af8585612f7c90919063ffffffff16565b612eb890919063ffffffff16565b905092915050565b6007602052816000526040600020602052806000526040600020600091509150508060000154908060010154905082565b6123fe612eb0565b73ffffffffffffffffffffffffffffffffffffffff1661241c61236b565b73ffffffffffffffffffffffffffffffffffffffff1614612472576040517f08c379a000000000000000000000000000000000000000000000000000000000815260040161246990613c21565b60405180910390fd5b806001838154811061248757612486613c41565b5b9060005260206000209060020201600101819055505050565b600260009054906101000a900473ffffffffffffffffffffffffffffffffffffffff1681565b60008211612509576040517f08c379a000000000000000000000000000000000000000000000000000000000815260040161250090613dd6565b60405180910390fd5b600a60009054906101000a900473ffffffffffffffffffffffffffffffffffffffff1673ffffffffffffffffffffffffffffffffffffffff163373ffffffffffffffffffffffffffffffffffffffff1614806125b25750600b60009054906101000a900473ffffffffffffffffffffffffffffffffffffffff1673ffffffffffffffffffffffffffffffffffffffff163373ffffffffffffffffffffffffffffffffffffffff16145b6125f1576040517f08c379a00000000000000000000000000000000000000000000000000000000081526004016125e89061403f565b60405180910390fd5b6000600660008154811061260857612607613c41565b5b9060005260206000209060040201905060006007600080815260200190815260200160002060008473ffffffffffffffffffffffffffffffffffffffff1673ffffffffffffffffffffffffffffffffffffffff16815260200190815260200160002090506126766000611c91565b6000816000015411156127705760006126cd82600101546126bf64e8d4a510006126b187600301548760000154612eb890919063ffffffff16565b612f3290919063ffffffff16565b612f7c90919063ffffffff16565b9050600081111561276e5761272a81600c60008773ffffffffffffffffffffffffffffffffffffffff1673ffffffffffffffffffffffffffffffffffffffff16815260200190815260200160002054612fc690919063ffffffff16565b600c60008673ffffffffffffffffffffffffffffffffffffffff1673ffffffffffffffffffffffffffffffffffffffff168152602001908152602001600020819055505b505b60008411156127ea576127ca3330868560000160009054906101000a900473ffffffffffffffffffffffffffffffffffffffff1673ffffffffffffffffffffffffffffffffffffffff166130aa909392919063ffffffff16565b6127e1848260000154612fc690919063ffffffff16565b81600001819055505b61281c64e8d4a5100061280e84600301548460000154612eb890919063ffffffff16565b612f3290919063ffffffff16565b816001018190555060008373ffffffffffffffffffffffffffffffffffffffff167f90890809c654f11d6e72a28fa60149770a0d11ec6c92319d6ceb2bb0a4ea1a158660405161286c91906136a3565b60405180910390a350505050565b600c6020528060005260406000206000915090505481565b600082036128d5576040517f08c379a00000000000000000000000000000000000000000000000000000000081526004016128cc906140ab565b60405180910390fd5b60008111612918576040517f08c379a000000000000000000000000000000000000000000000000000000000815260040161290f90613dd6565b60405180910390fd5b60006006838154811061292e5761292d613c41565b5b9060005260206000209060040201905060006007600085815260200190815260200160002060003373ffffffffffffffffffffffffffffffffffffffff1673ffffffffffffffffffffffffffffffffffffffff168152602001908152602001600020905061299b84611c91565b600081600001541115612a955760006129f282600101546129e464e8d4a510006129d687600301548760000154612eb890919063ffffffff16565b612f3290919063ffffffff16565b612f7c90919063ffffffff16565b90506000811115612a9357612a4f81600c60003373ffffffffffffffffffffffffffffffffffffffff1673ffffffffffffffffffffffffffffffffffffffff16815260200190815260200160002054612fc690919063ffffffff16565b600c60003373ffffffffffffffffffffffffffffffffffffffff1673ffffffffffffffffffffffffffffffffffffffff168152602001908152602001600020819055505b505b612ae63330858560000160009054906101000a900473ffffffffffffffffffffffffffffffffffffffff1673ffffffffffffffffffffffffffffffffffffffff166130aa909392919063ffffffff16565b612afd838260000154612fc690919063ffffffff16565b8160000181905550612b3764e8d4a51000612b2984600301548460000154612eb890919063ffffffff16565b612f3290919063ffffffff16565b8160010181905550833373ffffffffffffffffffffffffffffffffffffffff167f90890809c654f11d6e72a28fa60149770a0d11ec6c92319d6ceb2bb0a4ea1a1585604051612b8691906136a3565b60405180910390a350505050565b612b9c612eb0565b73ffffffffffffffffffffffffffffffffffffffff16612bba61236b565b73ffffffffffffffffffffffffffffffffffffffff1614612c10576040517f08c379a0000000000000000000000000000000000000000000000000000000008152600401612c0790613c21565b60405180910390fd5b600073ffffffffffffffffffffffffffffffffffffffff168173ffffffffffffffffffffffffffffffffffffffff1603612c7f576040517f08c379a0000000000000000000000000000000000000000000000000000000008152600401612c769061413d565b60405180910390fd5b612c8881613282565b50565b60008060068481548110612ca257612ca1613c41565b5b9060005260206000209060040201905060006007600086815260200190815260200160002060008573ffffffffffffffffffffffffffffffffffffffff1673ffffffffffffffffffffffffffffffffffffffff168152602001908152602001600020905060008260030154905060008360000160009054906101000a900473ffffffffffffffffffffffffffffffffffffffff1673ffffffffffffffffffffffffffffffffffffffff166370a08231306040518263ffffffff1660e01b8152600401612d6e9190613963565b602060405180830381865afa158015612d8b573d6000803e3d6000fd5b505050506040513d601f19601f82011682018060405250810190612daf9190613cf1565b9050836002015443118015612dc5575060008114155b15612e60576000612dda856002015443612394565b90506000612e1d600854612e0f8860010154612e0160035487612eb890919063ffffffff16565b612eb890919063ffffffff16565b612f3290919063ffffffff16565b9050612e5b612e4c84612e3e64e8d4a5100085612eb890919063ffffffff16565b612f3290919063ffffffff16565b85612fc690919063ffffffff16565b935050505b612ea48360010154612e9664e8d4a51000612e88868860000154612eb890919063ffffffff16565b612f3290919063ffffffff16565b612f7c90919063ffffffff16565b94505050505092915050565b600033905090565b6000808303612eca5760009050612f2c565b60008284612ed8919061415d565b9050828482612ee791906141e6565b14612f27576040517f08c379a0000000000000000000000000000000000000000000000000000000008152600401612f1e90614289565b60405180910390fd5b809150505b92915050565b6000612f7483836040518060400160405280601a81526020017f536166654d6174683a206469766973696f6e206279207a65726f000000000000815250613346565b905092915050565b6000612fbe83836040518060400160405280601e81526020017f536166654d6174683a207375627472616374696f6e206f766572666c6f7700008152506133a9565b905092915050565b6000808284612fd591906142a9565b90508381101561301a576040517f08c379a000000000000000000000000000000000000000000000000000000000815260040161301190614329565b60405180910390fd5b8091505092915050565b6130a58363a9059cbb60e01b8484604051602401613043929190614349565b604051602081830303815290604052907bffffffffffffffffffffffffffffffffffffffffffffffffffffffff19166020820180517bffffffffffffffffffffffffffffffffffffffffffffffffffffffff838183161783525050505061340d565b505050565b61312d846323b872dd60e01b8585856040516024016130cb93929190614372565b604051602081830303815290604052907bffffffffffffffffffffffffffffffffffffffffffffffffffffffff19166020820180517bffffffffffffffffffffffffffffffffffffffffffffffffffffffff838183161783525050505061340d565b50505050565b60008114806131bd575060008373ffffffffffffffffffffffffffffffffffffffff1663dd62ed3e30856040518363ffffffff1660e01b815260040161317a9291906143a9565b602060405180830381865afa158015613197573d6000803e3d6000fd5b505050506040513d601f19601f820116820180604052508101906131bb9190613cf1565b145b6131fc576040517f08c379a00000000000000000000000000000000000000000000000000000000081526004016131f390614444565b60405180910390fd5b61327d8363095ea7b360e01b848460405160240161321b929190614349565b604051602081830303815290604052907bffffffffffffffffffffffffffffffffffffffffffffffffffffffff19166020820180517bffffffffffffffffffffffffffffffffffffffffffffffffffffffff838183161783525050505061340d565b505050565b60008060009054906101000a900473ffffffffffffffffffffffffffffffffffffffff169050816000806101000a81548173ffffffffffffffffffffffffffffffffffffffff021916908373ffffffffffffffffffffffffffffffffffffffff1602179055508173ffffffffffffffffffffffffffffffffffffffff168173ffffffffffffffffffffffffffffffffffffffff167f8be0079c531659141344cd1fd0a4f28419497f9722a3daafe3b4186f6b6457e060405160405180910390a35050565b6000808311829061338d576040517f08c379a000000000000000000000000000000000000000000000000000000000815260040161338491906144e3565b60405180910390fd5b506000838561339c91906141e6565b9050809150509392505050565b60008383111582906133f1576040517f08c379a00000000000000000000000000000000000000000000000000000000081526004016133e891906144e3565b60405180910390fd5b50600083856134009190614505565b9050809150509392505050565b600061346f826040518060400160405280602081526020017f5361666545524332303a206c6f772d6c6576656c2063616c6c206661696c65648152508573ffffffffffffffffffffffffffffffffffffffff166134d49092919063ffffffff16565b90506000815111156134cf578080602001905181019061348f919061454e565b6134ce576040517f08c379a00000000000000000000000000000000000000000000000000000000081526004016134c5906145ed565b60405180910390fd5b5b505050565b60606134e384846000856134ec565b90509392505050565b606082471015613531576040517f08c379a00000000000000000000000000000000000000000000000000000000081526004016135289061467f565b60405180910390fd5b61353a85613600565b613579576040517f08c379a0000000000000000000000000000000000000000000000000000000008152600401613570906146eb565b60405180910390fd5b6000808673ffffffffffffffffffffffffffffffffffffffff1685876040516135a29190614752565b60006040518083038185875af1925050503d80600081146135df576040519150601f19603f3d011682016040523d82523d6000602084013e6135e4565b606091505b50915091506135f4828286613623565b92505050949350505050565b6000808273ffffffffffffffffffffffffffffffffffffffff163b119050919050565b6060831561363357829050613683565b6000835111156136465782518084602001fd5b816040517f08c379a000000000000000000000000000000000000000000000000000000000815260040161367a91906144e3565b60405180910390fd5b9392505050565b6000819050919050565b61369d8161368a565b82525050565b60006020820190506136b86000830184613694565b92915050565b600080fd5b600073ffffffffffffffffffffffffffffffffffffffff82169050919050565b60006136ee826136c3565b9050919050565b6136fe816136e3565b811461370957600080fd5b50565b60008135905061371b816136f5565b92915050565b600060208284031215613737576137366136be565b5b60006137458482850161370c565b91505092915050565b6137578161368a565b811461376257600080fd5b50565b6000813590506137748161374e565b92915050565b6000602082840312156137905761378f6136be565b5b600061379e84828501613765565b91505092915050565b6000819050919050565b60006137cc6137c76137c2846136c3565b6137a7565b6136c3565b9050919050565b60006137de826137b1565b9050919050565b60006137f0826137d3565b9050919050565b613800816137e5565b82525050565b600060808201905061381b60008301876137f7565b6138286020830186613694565b6138356040830185613694565b6138426060830184613694565b95945050505050565b60008060408385031215613862576138616136be565b5b600061387085828601613765565b925050602061388185828601613765565b9150509250929050565b6000613896826136e3565b9050919050565b6138a68161388b565b81146138b157600080fd5b50565b6000813590506138c38161389d565b92915050565b60008115159050919050565b6138de816138c9565b81146138e957600080fd5b50565b6000813590506138fb816138d5565b92915050565b60008060006060848603121561391a576139196136be565b5b600061392886828701613765565b9350506020613939868287016138b4565b925050604061394a868287016138ec565b9150509250925092565b61395d816136e3565b82525050565b60006020820190506139786000830184613954565b92915050565b6000613989826136e3565b9050919050565b6139998161397e565b81146139a457600080fd5b50565b6000813590506139b681613990565b92915050565b6000602082840312156139d2576139d16136be565b5b60006139e0848285016139a7565b91505092915050565b60006139f4826136e3565b9050919050565b613a04816139e9565b8114613a0f57600080fd5b50565b600081359050613a21816139fb565b92915050565b60008060408385031215613a3e57613a3d6136be565b5b6000613a4c85828601613a12565b9250506020613a5d85828601613765565b9150509250929050565b6000613a72826137d3565b9050919050565b613a8281613a67565b82525050565b6000604082019050613a9d6000830185613a79565b613aaa6020830184613694565b9392505050565b600080600060608486031215613aca57613ac96136be565b5b6000613ad886828701613765565b9350506020613ae986828701613765565b9250506040613afa868287016138ec565b9150509250925092565b6000613b0f826137d3565b9050919050565b613b1f81613b04565b82525050565b6000602082019050613b3a6000830184613b16565b92915050565b60008060408385031215613b5757613b566136be565b5b6000613b6585828601613765565b9250506020613b768582860161370c565b9150509250929050565b6000604082019050613b956000830185613694565b613ba26020830184613694565b9392505050565b6000602082019050613bbe60008301846137f7565b92915050565b600082825260208201905092915050565b7f4f776e61626c653a2063616c6c6572206973206e6f7420746865206f776e6572600082015250565b6000613c0b602083613bc4565b9150613c1682613bd5565b602082019050919050565b60006020820190508181036000830152613c3a81613bfe565b9050919050565b7f4e487b7100000000000000000000000000000000000000000000000000000000600052603260045260246000fd5b7f77697468647261773a206e6f7420676f6f640000000000000000000000000000600082015250565b6000613ca6601283613bc4565b9150613cb182613c70565b602082019050919050565b60006020820190508181036000830152613cd581613c99565b9050919050565b600081519050613ceb8161374e565b92915050565b600060208284031215613d0757613d066136be565b5b6000613d1584828501613cdc565b91505092915050565b7f506f776572206973206e6f7420656e6f75676800000000000000000000000000600082015250565b6000613d54601383613bc4565b9150613d5f82613d1e565b602082019050919050565b60006020820190508181036000830152613d8381613d47565b9050919050565b7f416d6f756e74206973207a65726f000000000000000000000000000000000000600082015250565b6000613dc0600e83613bc4565b9150613dcb82613d8a565b602082019050919050565b60006020820190508181036000830152613def81613db3565b9050919050565b7f776974686472617720506f77657220627920756e7374616b696e670000000000600082015250565b6000613e2c601b83613bc4565b9150613e3782613df6565b602082019050919050565b60006020820190508181036000830152613e5b81613e1f565b9050919050565b7f6d6967726174653a206e6f206d69677261746f72000000000000000000000000600082015250565b6000613e98601483613bc4565b9150613ea382613e62565b602082019050919050565b60006020820190508181036000830152613ec781613e8b565b9050919050565b600081519050613edd8161389d565b92915050565b600060208284031215613ef957613ef86136be565b5b6000613f0784828501613ece565b91505092915050565b7f6d6967726174653a206261640000000000000000000000000000000000000000600082015250565b6000613f46600c83613bc4565b9150613f5182613f10565b602082019050919050565b60006020820190508181036000830152613f7581613f39565b9050919050565b7f4e487b7100000000000000000000000000000000000000000000000000000000600052601160045260246000fd5b6000613fb68261368a565b91507fffffffffffffffffffffffffffffffffffffffffffffffffffffffffffffffff8203613fe857613fe7613f7c565b5b600182019050919050565b7f43616c6c6572206973206e6f742066616d696c79000000000000000000000000600082015250565b6000614029601483613bc4565b915061403482613ff3565b602082019050919050565b600060208201905081810360008301526140588161401c565b9050919050565b7f6465706f73697420506f776572206279207374616b696e670000000000000000600082015250565b6000614095601883613bc4565b91506140a08261405f565b602082019050919050565b600060208201905081810360008301526140c481614088565b9050919050565b7f4f776e61626c653a206e6577206f776e657220697320746865207a65726f206160008201527f6464726573730000000000000000000000000000000000000000000000000000602082015250565b6000614127602683613bc4565b9150614132826140cb565b604082019050919050565b600060208201905081810360008301526141568161411a565b9050919050565b60006141688261368a565b91506141738361368a565b9250817fffffffffffffffffffffffffffffffffffffffffffffffffffffffffffffffff04831182151516156141ac576141ab613f7c565b5b828202905092915050565b7f4e487b7100000000000000000000000000000000000000000000000000000000600052601260045260246000fd5b60006141f18261368a565b91506141fc8361368a565b92508261420c5761420b6141b7565b5b828204905092915050565b7f536166654d6174683a206d756c7469706c69636174696f6e206f766572666c6f60008201527f7700000000000000000000000000000000000000000000000000000000000000602082015250565b6000614273602183613bc4565b915061427e82614217565b604082019050919050565b600060208201905081810360008301526142a281614266565b9050919050565b60006142b48261368a565b91506142bf8361368a565b92508282019050808211156142d7576142d6613f7c565b5b92915050565b7f536166654d6174683a206164646974696f6e206f766572666c6f770000000000600082015250565b6000614313601b83613bc4565b915061431e826142dd565b602082019050919050565b6000602082019050818103600083015261434281614306565b9050919050565b600060408201905061435e6000830185613954565b61436b6020830184613694565b9392505050565b60006060820190506143876000830186613954565b6143946020830185613954565b6143a16040830184613694565b949350505050565b60006040820190506143be6000830185613954565b6143cb6020830184613954565b9392505050565b7f5361666545524332303a20617070726f76652066726f6d206e6f6e2d7a65726f60008201527f20746f206e6f6e2d7a65726f20616c6c6f77616e636500000000000000000000602082015250565b600061442e603683613bc4565b9150614439826143d2565b604082019050919050565b6000602082019050818103600083015261445d81614421565b9050919050565b600081519050919050565b60005b8381101561448d578082015181840152602081019050614472565b60008484015250505050565b6000601f19601f8301169050919050565b60006144b582614464565b6144bf8185613bc4565b93506144cf81856020860161446f565b6144d881614499565b840191505092915050565b600060208201905081810360008301526144fd81846144aa565b905092915050565b60006145108261368a565b915061451b8361368a565b925082820390508181111561453357614532613f7c565b5b92915050565b600081519050614548816138d5565b92915050565b600060208284031215614564576145636136be565b5b600061457284828501614539565b91505092915050565b7f5361666545524332303a204552433230206f7065726174696f6e20646964206e60008201527f6f74207375636365656400000000000000000000000000000000000000000000602082015250565b60006145d7602a83613bc4565b91506145e28261457b565b604082019050919050565b60006020820190508181036000830152614606816145ca565b9050919050565b7f416464726573733a20696e73756666696369656e742062616c616e636520666f60008201527f722063616c6c0000000000000000000000000000000000000000000000000000602082015250565b6000614669602683613bc4565b91506146748261460d565b604082019050919050565b600060208201905081810360008301526146988161465c565b9050919050565b7f416464726573733a2063616c6c20746f206e6f6e2d636f6e7472616374000000600082015250565b60006146d5601d83613bc4565b91506146e08261469f565b602082019050919050565b60006020820190508181036000830152614704816146c8565b9050919050565b600081519050919050565b600081905092915050565b600061472c8261470b565b6147368185614716565b935061474681856020860161446f565b80840191505092915050565b600061475e8284614721565b91508190509291505056fea264697066735822122060788b95bd3741226b6210d001709cdafdab6ac0a8524387fffb2f40a7d3a9cb64736f6c63430008100033",
					"opcodes": "PUSH1 0x80 PUSH1 0x40 MSTORE PUSH1 0x1 PUSH1 0x4 SSTORE PUSH1 0x0 PUSH1 0x8 SSTORE CALLVALUE DUP1 ISZERO PUSH3 0x1B JUMPI PUSH1 0x0 DUP1 REVERT JUMPDEST POP PUSH1 0x40 MLOAD PUSH3 0x4B42 CODESIZE SUB DUP1 PUSH3 0x4B42 DUP4 CODECOPY DUP2 DUP2 ADD PUSH1 0x40 MSTORE DUP2 ADD SWAP1 PUSH3 0x41 SWAP2 SWAP1 PUSH3 0x337 JUMP JUMPDEST PUSH3 0x61 PUSH3 0x55 PUSH3 0x1B2 PUSH1 0x20 SHL PUSH1 0x20 SHR JUMP JUMPDEST PUSH3 0x1BA PUSH1 0x20 SHL PUSH1 0x20 SHR JUMP JUMPDEST DUP3 PUSH1 0x2 PUSH1 0x0 PUSH2 0x100 EXP DUP2 SLOAD DUP2 PUSH20 0xFFFFFFFFFFFFFFFFFFFFFFFFFFFFFFFFFFFFFFFF MUL NOT AND SWAP1 DUP4 PUSH20 0xFFFFFFFFFFFFFFFFFFFFFFFFFFFFFFFFFFFFFFFF AND MUL OR SWAP1 SSTORE POP DUP2 PUSH1 0x3 DUP2 SWAP1 SSTORE POP DUP1 PUSH1 0x9 DUP2 SWAP1 SSTORE POP PUSH1 0x6 PUSH1 0x40 MLOAD DUP1 PUSH1 0x80 ADD PUSH1 0x40 MSTORE DUP1 PUSH1 0x2 PUSH1 0x0 SWAP1 SLOAD SWAP1 PUSH2 0x100 EXP SWAP1 DIV PUSH20 0xFFFFFFFFFFFFFFFFFFFFFFFFFFFFFFFFFFFFFFFF AND PUSH20 0xFFFFFFFFFFFFFFFFFFFFFFFFFFFFFFFFFFFFFFFF AND DUP2 MSTORE PUSH1 0x20 ADD PUSH2 0x3E8 DUP2 MSTORE PUSH1 0x20 ADD PUSH1 0x9 SLOAD DUP2 MSTORE PUSH1 0x20 ADD PUSH1 0x0 DUP2 MSTORE POP SWAP1 DUP1 PUSH1 0x1 DUP2 SLOAD ADD DUP1 DUP3 SSTORE DUP1 SWAP2 POP POP PUSH1 0x1 SWAP1 SUB SWAP1 PUSH1 0x0 MSTORE PUSH1 0x20 PUSH1 0x0 KECCAK256 SWAP1 PUSH1 0x4 MUL ADD PUSH1 0x0 SWAP1 SWAP2 SWAP1 SWAP2 SWAP1 SWAP2 POP PUSH1 0x0 DUP3 ADD MLOAD DUP2 PUSH1 0x0 ADD PUSH1 0x0 PUSH2 0x100 EXP DUP2 SLOAD DUP2 PUSH20 0xFFFFFFFFFFFFFFFFFFFFFFFFFFFFFFFFFFFFFFFF MUL NOT AND SWAP1 DUP4 PUSH20 0xFFFFFFFFFFFFFFFFFFFFFFFFFFFFFFFFFFFFFFFF AND MUL OR SWAP1 SSTORE POP PUSH1 0x20 DUP3 ADD MLOAD DUP2 PUSH1 0x1 ADD SSTORE PUSH1 0x40 DUP3 ADD MLOAD DUP2 PUSH1 0x2 ADD SSTORE PUSH1 0x60 DUP3 ADD MLOAD DUP2 PUSH1 0x3 ADD SSTORE POP POP PUSH2 0x3E8 PUSH1 0x8 DUP2 SWAP1 SSTORE POP POP POP POP PUSH3 0x393 JUMP JUMPDEST PUSH1 0x0 CALLER SWAP1 POP SWAP1 JUMP JUMPDEST PUSH1 0x0 DUP1 PUSH1 0x0 SWAP1 SLOAD SWAP1 PUSH2 0x100 EXP SWAP1 DIV PUSH20 0xFFFFFFFFFFFFFFFFFFFFFFFFFFFFFFFFFFFFFFFF AND SWAP1 POP DUP2 PUSH1 0x0 DUP1 PUSH2 0x100 EXP DUP2 SLOAD DUP2 PUSH20 0xFFFFFFFFFFFFFFFFFFFFFFFFFFFFFFFFFFFFFFFF MUL NOT AND SWAP1 DUP4 PUSH20 0xFFFFFFFFFFFFFFFFFFFFFFFFFFFFFFFFFFFFFFFF AND MUL OR SWAP1 SSTORE POP DUP2 PUSH20 0xFFFFFFFFFFFFFFFFFFFFFFFFFFFFFFFFFFFFFFFF AND DUP2 PUSH20 0xFFFFFFFFFFFFFFFFFFFFFFFFFFFFFFFFFFFFFFFF AND PUSH32 0x8BE0079C531659141344CD1FD0A4F28419497F9722A3DAAFE3B4186F6B6457E0 PUSH1 0x40 MLOAD PUSH1 0x40 MLOAD DUP1 SWAP2 SUB SWAP1 LOG3 POP POP JUMP JUMPDEST PUSH1 0x0 DUP1 REVERT JUMPDEST PUSH1 0x0 PUSH20 0xFFFFFFFFFFFFFFFFFFFFFFFFFFFFFFFFFFFFFFFF DUP3 AND SWAP1 POP SWAP2 SWAP1 POP JUMP JUMPDEST PUSH1 0x0 PUSH3 0x2B0 DUP3 PUSH3 0x283 JUMP JUMPDEST SWAP1 POP SWAP2 SWAP1 POP JUMP JUMPDEST PUSH1 0x0 PUSH3 0x2C4 DUP3 PUSH3 0x2A3 JUMP JUMPDEST SWAP1 POP SWAP2 SWAP1 POP JUMP JUMPDEST PUSH3 0x2D6 DUP2 PUSH3 0x2B7 JUMP JUMPDEST DUP2 EQ PUSH3 0x2E2 JUMPI PUSH1 0x0 DUP1 REVERT JUMPDEST POP JUMP JUMPDEST PUSH1 0x0 DUP2 MLOAD SWAP1 POP PUSH3 0x2F6 DUP2 PUSH3 0x2CB JUMP JUMPDEST SWAP3 SWAP2 POP POP JUMP JUMPDEST PUSH1 0x0 DUP2 SWAP1 POP SWAP2 SWAP1 POP JUMP JUMPDEST PUSH3 0x311 DUP2 PUSH3 0x2FC JUMP JUMPDEST DUP2 EQ PUSH3 0x31D JUMPI PUSH1 0x0 DUP1 REVERT JUMPDEST POP JUMP JUMPDEST PUSH1 0x0 DUP2 MLOAD SWAP1 POP PUSH3 0x331 DUP2 PUSH3 0x306 JUMP JUMPDEST SWAP3 SWAP2 POP POP JUMP JUMPDEST PUSH1 0x0 DUP1 PUSH1 0x0 PUSH1 0x60 DUP5 DUP7 SUB SLT ISZERO PUSH3 0x353 JUMPI PUSH3 0x352 PUSH3 0x27E JUMP JUMPDEST JUMPDEST PUSH1 0x0 PUSH3 0x363 DUP7 DUP3 DUP8 ADD PUSH3 0x2E5 JUMP JUMPDEST SWAP4 POP POP PUSH1 0x20 PUSH3 0x376 DUP7 DUP3 DUP8 ADD PUSH3 0x320 JUMP JUMPDEST SWAP3 POP POP PUSH1 0x40 PUSH3 0x389 DUP7 DUP3 DUP8 ADD PUSH3 0x320 JUMP JUMPDEST SWAP2 POP POP SWAP3 POP SWAP3 POP SWAP3 JUMP JUMPDEST PUSH2 0x479F DUP1 PUSH3 0x3A3 PUSH1 0x0 CODECOPY PUSH1 0x0 RETURN INVALID PUSH1 0x80 PUSH1 0x40 MSTORE CALLVALUE DUP1 ISZERO PUSH2 0x10 JUMPI PUSH1 0x0 DUP1 REVERT JUMPDEST POP PUSH1 0x4 CALLDATASIZE LT PUSH2 0x232 JUMPI PUSH1 0x0 CALLDATALOAD PUSH1 0xE0 SHR DUP1 PUSH4 0x5FFE6146 GT PUSH2 0x130 JUMPI DUP1 PUSH4 0x8DA5CB5B GT PUSH2 0xB8 JUMPI DUP1 PUSH4 0xCF35FDDF GT PUSH2 0x7C JUMPI DUP1 PUSH4 0xCF35FDDF EQ PUSH2 0x62C JUMPI DUP1 PUSH4 0xD209DB8C EQ PUSH2 0x648 JUMPI DUP1 PUSH4 0xE2BBB158 EQ PUSH2 0x678 JUMPI DUP1 PUSH4 0xF2FDE38B EQ PUSH2 0x694 JUMPI DUP1 PUSH4 0xF3239AB5 EQ PUSH2 0x6B0 JUMPI PUSH2 0x232 JUMP JUMPDEST DUP1 PUSH4 0x8DA5CB5B EQ PUSH2 0x573 JUMPI DUP1 PUSH4 0x8DBB1E3A EQ PUSH2 0x591 JUMPI DUP1 PUSH4 0x93F1A40B EQ PUSH2 0x5C1 JUMPI DUP1 PUSH4 0xC11490CC EQ PUSH2 0x5F2 JUMPI DUP1 PUSH4 0xCB3CBA55 EQ PUSH2 0x60E JUMPI PUSH2 0x232 JUMP JUMPDEST DUP1 PUSH4 0x715018A6 GT PUSH2 0xFF JUMPI DUP1 PUSH4 0x715018A6 EQ PUSH2 0x4DF JUMPI DUP1 PUSH4 0x7CD07E47 EQ PUSH2 0x4E9 JUMPI DUP1 PUSH4 0x83E32135 EQ PUSH2 0x507 JUMPI DUP1 PUSH4 0x8AA28550 EQ PUSH2 0x525 JUMPI DUP1 PUSH4 0x8C51793B EQ PUSH2 0x543 JUMPI PUSH2 0x232 JUMP JUMPDEST DUP1 PUSH4 0x5FFE6146 EQ PUSH2 0x46C JUMPI DUP1 PUSH4 0x61C1B724 EQ PUSH2 0x488 JUMPI DUP1 PUSH4 0x630B5BA1 EQ PUSH2 0x4B9 JUMPI DUP1 PUSH4 0x64482F79 EQ PUSH2 0x4C3 JUMPI PUSH2 0x232 JUMP JUMPDEST DUP1 PUSH4 0x3DF7AFF3 GT PUSH2 0x1BE JUMPI DUP1 PUSH4 0x4EA2813C GT PUSH2 0x182 JUMPI DUP1 PUSH4 0x4EA2813C EQ PUSH2 0x3DE JUMPI DUP1 PUSH4 0x51EB05A6 EQ PUSH2 0x3FA JUMPI DUP1 PUSH4 0x5312EA8E EQ PUSH2 0x416 JUMPI DUP1 PUSH4 0x56B4685F EQ PUSH2 0x432 JUMPI DUP1 PUSH4 0x5990C569 EQ PUSH2 0x44E JUMPI PUSH2 0x232 JUMP JUMPDEST DUP1 PUSH4 0x3DF7AFF3 EQ PUSH2 0x350 JUMPI DUP1 PUSH4 0x41441D3B EQ PUSH2 0x36C JUMPI DUP1 PUSH4 0x441A3E70 EQ PUSH2 0x388 JUMPI DUP1 PUSH4 0x454B0608 EQ PUSH2 0x3A4 JUMPI DUP1 PUSH4 0x48CD4CB1 EQ PUSH2 0x3C0 JUMPI PUSH2 0x232 JUMP JUMPDEST DUP1 PUSH4 0x17CAF6F1 GT PUSH2 0x205 JUMPI DUP1 PUSH4 0x17CAF6F1 EQ PUSH2 0x2C0 JUMPI DUP1 PUSH4 0x1D5FBD87 EQ PUSH2 0x2DE JUMPI DUP1 PUSH4 0x1EAAA045 EQ PUSH2 0x2FA JUMPI DUP1 PUSH4 0x22F58541 EQ PUSH2 0x316 JUMPI DUP1 PUSH4 0x23CF3118 EQ PUSH2 0x334 JUMPI PUSH2 0x232 JUMP JUMPDEST DUP1 PUSH4 0x81E3EDA EQ PUSH2 0x237 JUMPI DUP1 PUSH4 0xBA33A58 EQ PUSH2 0x255 JUMPI DUP1 PUSH4 0x1058D281 EQ PUSH2 0x271 JUMPI DUP1 PUSH4 0x1526FE27 EQ PUSH2 0x28D JUMPI JUMPDEST PUSH1 0x0 DUP1 REVERT JUMPDEST PUSH2 0x23F PUSH2 0x6E0 JUMP JUMPDEST PUSH1 0x40 MLOAD PUSH2 0x24C SWAP2 SWAP1 PUSH2 0x36A3 JUMP JUMPDEST PUSH1 0x40 MLOAD DUP1 SWAP2 SUB SWAP1 RETURN JUMPDEST PUSH2 0x26F PUSH1 0x4 DUP1 CALLDATASIZE SUB DUP2 ADD SWAP1 PUSH2 0x26A SWAP2 SWAP1 PUSH2 0x3721 JUMP JUMPDEST PUSH2 0x6ED JUMP JUMPDEST STOP JUMPDEST PUSH2 0x28B PUSH1 0x4 DUP1 CALLDATASIZE SUB DUP2 ADD SWAP1 PUSH2 0x286 SWAP2 SWAP1 PUSH2 0x377A JUMP JUMPDEST PUSH2 0x7AD JUMP JUMPDEST STOP JUMPDEST PUSH2 0x2A7 PUSH1 0x4 DUP1 CALLDATASIZE SUB DUP2 ADD SWAP1 PUSH2 0x2A2 SWAP2 SWAP1 PUSH2 0x377A JUMP JUMPDEST PUSH2 0xA6C JUMP JUMPDEST PUSH1 0x40 MLOAD PUSH2 0x2B7 SWAP5 SWAP4 SWAP3 SWAP2 SWAP1 PUSH2 0x3806 JUMP JUMPDEST PUSH1 0x40 MLOAD DUP1 SWAP2 SUB SWAP1 RETURN JUMPDEST PUSH2 0x2C8 PUSH2 0xACC JUMP JUMPDEST PUSH1 0x40 MLOAD PUSH2 0x2D5 SWAP2 SWAP1 PUSH2 0x36A3 JUMP JUMPDEST PUSH1 0x40 MLOAD DUP1 SWAP2 SUB SWAP1 RETURN JUMPDEST PUSH2 0x2F8 PUSH1 0x4 DUP1 CALLDATASIZE SUB DUP2 ADD SWAP1 PUSH2 0x2F3 SWAP2 SWAP1 PUSH2 0x384B JUMP JUMPDEST PUSH2 0xAD2 JUMP JUMPDEST STOP JUMPDEST PUSH2 0x314 PUSH1 0x4 DUP1 CALLDATASIZE SUB DUP2 ADD SWAP1 PUSH2 0x30F SWAP2 SWAP1 PUSH2 0x3901 JUMP JUMPDEST PUSH2 0xF56 JUMP JUMPDEST STOP JUMPDEST PUSH2 0x31E PUSH2 0x10E3 JUMP JUMPDEST PUSH1 0x40 MLOAD PUSH2 0x32B SWAP2 SWAP1 PUSH2 0x3963 JUMP JUMPDEST PUSH1 0x40 MLOAD DUP1 SWAP2 SUB SWAP1 RETURN JUMPDEST PUSH2 0x34E PUSH1 0x4 DUP1 CALLDATASIZE SUB DUP2 ADD SWAP1 PUSH2 0x349 SWAP2 SWAP1 PUSH2 0x39BC JUMP JUMPDEST PUSH2 0x1109 JUMP JUMPDEST STOP JUMPDEST PUSH2 0x36A PUSH1 0x4 DUP1 CALLDATASIZE SUB DUP2 ADD SWAP1 PUSH2 0x365 SWAP2 SWAP1 PUSH2 0x377A JUMP JUMPDEST PUSH2 0x11C9 JUMP JUMPDEST STOP JUMPDEST PUSH2 0x386 PUSH1 0x4 DUP1 CALLDATASIZE SUB DUP2 ADD SWAP1 PUSH2 0x381 SWAP2 SWAP1 PUSH2 0x377A JUMP JUMPDEST PUSH2 0x124F JUMP JUMPDEST STOP JUMPDEST PUSH2 0x3A2 PUSH1 0x4 DUP1 CALLDATASIZE SUB DUP2 ADD SWAP1 PUSH2 0x39D SWAP2 SWAP1 PUSH2 0x384B JUMP JUMPDEST PUSH2 0x151A JUMP JUMPDEST STOP JUMPDEST PUSH2 0x3BE PUSH1 0x4 DUP1 CALLDATASIZE SUB DUP2 ADD SWAP1 PUSH2 0x3B9 SWAP2 SWAP1 PUSH2 0x377A JUMP JUMPDEST PUSH2 0x1810 JUMP JUMPDEST STOP JUMPDEST PUSH2 0x3C8 PUSH2 0x1B62 JUMP JUMPDEST PUSH1 0x40 MLOAD PUSH2 0x3D5 SWAP2 SWAP1 PUSH2 0x36A3 JUMP JUMPDEST PUSH1 0x40 MLOAD DUP1 SWAP2 SUB SWAP1 RETURN JUMPDEST PUSH2 0x3F8 PUSH1 0x4 DUP1 CALLDATASIZE SUB DUP2 ADD SWAP1 PUSH2 0x3F3 SWAP2 SWAP1 PUSH2 0x3A27 JUMP JUMPDEST PUSH2 0x1B68 JUMP JUMPDEST STOP JUMPDEST PUSH2 0x414 PUSH1 0x4 DUP1 CALLDATASIZE SUB DUP2 ADD SWAP1 PUSH2 0x40F SWAP2 SWAP1 PUSH2 0x377A JUMP JUMPDEST PUSH2 0x1C91 JUMP JUMPDEST STOP JUMPDEST PUSH2 0x430 PUSH1 0x4 DUP1 CALLDATASIZE SUB DUP2 ADD SWAP1 PUSH2 0x42B SWAP2 SWAP1 PUSH2 0x377A JUMP JUMPDEST PUSH2 0x1E30 JUMP JUMPDEST STOP JUMPDEST PUSH2 0x44C PUSH1 0x4 DUP1 CALLDATASIZE SUB DUP2 ADD SWAP1 PUSH2 0x447 SWAP2 SWAP1 PUSH2 0x3721 JUMP JUMPDEST PUSH2 0x1F69 JUMP JUMPDEST STOP JUMPDEST PUSH2 0x456 PUSH2 0x2029 JUMP JUMPDEST PUSH1 0x40 MLOAD PUSH2 0x463 SWAP2 SWAP1 PUSH2 0x36A3 JUMP JUMPDEST PUSH1 0x40 MLOAD DUP1 SWAP2 SUB SWAP1 RETURN JUMPDEST PUSH2 0x486 PUSH1 0x4 DUP1 CALLDATASIZE SUB DUP2 ADD SWAP1 PUSH2 0x481 SWAP2 SWAP1 PUSH2 0x377A JUMP JUMPDEST PUSH2 0x202F JUMP JUMPDEST STOP JUMPDEST PUSH2 0x4A2 PUSH1 0x4 DUP1 CALLDATASIZE SUB DUP2 ADD SWAP1 PUSH2 0x49D SWAP2 SWAP1 PUSH2 0x377A JUMP JUMPDEST PUSH2 0x20B5 JUMP JUMPDEST PUSH1 0x40 MLOAD PUSH2 0x4B0 SWAP3 SWAP2 SWAP1 PUSH2 0x3A88 JUMP JUMPDEST PUSH1 0x40 MLOAD DUP1 SWAP2 SUB SWAP1 RETURN JUMPDEST PUSH2 0x4C1 PUSH2 0x2109 JUMP JUMPDEST STOP JUMPDEST PUSH2 0x4DD PUSH1 0x4 DUP1 CALLDATASIZE SUB DUP2 ADD SWAP1 PUSH2 0x4D8 SWAP2 SWAP1 PUSH2 0x3AB1 JUMP JUMPDEST PUSH2 0x213C JUMP JUMPDEST STOP JUMPDEST PUSH2 0x4E7 PUSH2 0x2248 JUMP JUMPDEST STOP JUMPDEST PUSH2 0x4F1 PUSH2 0x22D0 JUMP JUMPDEST PUSH1 0x40 MLOAD PUSH2 0x4FE SWAP2 SWAP1 PUSH2 0x3B25 JUMP JUMPDEST PUSH1 0x40 MLOAD DUP1 SWAP2 SUB SWAP1 RETURN JUMPDEST PUSH2 0x50F PUSH2 0x22F6 JUMP JUMPDEST PUSH1 0x40 MLOAD PUSH2 0x51C SWAP2 SWAP1 PUSH2 0x3963 JUMP JUMPDEST PUSH1 0x40 MLOAD DUP1 SWAP2 SUB SWAP1 RETURN JUMPDEST PUSH2 0x52D PUSH2 0x231C JUMP JUMPDEST PUSH1 0x40 MLOAD PUSH2 0x53A SWAP2 SWAP1 PUSH2 0x36A3 JUMP JUMPDEST PUSH1 0x40 MLOAD DUP1 SWAP2 SUB SWAP1 RETURN JUMPDEST PUSH2 0x55D PUSH1 0x4 DUP1 CALLDATASIZE SUB DUP2 ADD SWAP1 PUSH2 0x558 SWAP2 SWAP1 PUSH2 0x3721 JUMP JUMPDEST PUSH2 0x2322 JUMP JUMPDEST PUSH1 0x40 MLOAD PUSH2 0x56A SWAP2 SWAP1 PUSH2 0x36A3 JUMP JUMPDEST PUSH1 0x40 MLOAD DUP1 SWAP2 SUB SWAP1 RETURN JUMPDEST PUSH2 0x57B PUSH2 0x236B JUMP JUMPDEST PUSH1 0x40 MLOAD PUSH2 0x588 SWAP2 SWAP1 PUSH2 0x3963 JUMP JUMPDEST PUSH1 0x40 MLOAD DUP1 SWAP2 SUB SWAP1 RETURN JUMPDEST PUSH2 0x5AB PUSH1 0x4 DUP1 CALLDATASIZE SUB DUP2 ADD SWAP1 PUSH2 0x5A6 SWAP2 SWAP1 PUSH2 0x384B JUMP JUMPDEST PUSH2 0x2394 JUMP JUMPDEST PUSH1 0x40 MLOAD PUSH2 0x5B8 SWAP2 SWAP1 PUSH2 0x36A3 JUMP JUMPDEST PUSH1 0x40 MLOAD DUP1 SWAP2 SUB SWAP1 RETURN JUMPDEST PUSH2 0x5DB PUSH1 0x4 DUP1 CALLDATASIZE SUB DUP2 ADD SWAP1 PUSH2 0x5D6 SWAP2 SWAP1 PUSH2 0x3B40 JUMP JUMPDEST PUSH2 0x23C5 JUMP JUMPDEST PUSH1 0x40 MLOAD PUSH2 0x5E9 SWAP3 SWAP2 SWAP1 PUSH2 0x3B80 JUMP JUMPDEST PUSH1 0x40 MLOAD DUP1 SWAP2 SUB SWAP1 RETURN JUMPDEST PUSH2 0x60C PUSH1 0x4 DUP1 CALLDATASIZE SUB DUP2 ADD SWAP1 PUSH2 0x607 SWAP2 SWAP1 PUSH2 0x384B JUMP JUMPDEST PUSH2 0x23F6 JUMP JUMPDEST STOP JUMPDEST PUSH2 0x616 PUSH2 0x24A0 JUMP JUMPDEST PUSH1 0x40 MLOAD PUSH2 0x623 SWAP2 SWAP1 PUSH2 0x3BA9 JUMP JUMPDEST PUSH1 0x40 MLOAD DUP1 SWAP2 SUB SWAP1 RETURN JUMPDEST PUSH2 0x646 PUSH1 0x4 DUP1 CALLDATASIZE SUB DUP2 ADD SWAP1 PUSH2 0x641 SWAP2 SWAP1 PUSH2 0x3B40 JUMP JUMPDEST PUSH2 0x24C6 JUMP JUMPDEST STOP JUMPDEST PUSH2 0x662 PUSH1 0x4 DUP1 CALLDATASIZE SUB DUP2 ADD SWAP1 PUSH2 0x65D SWAP2 SWAP1 PUSH2 0x3721 JUMP JUMPDEST PUSH2 0x287A JUMP JUMPDEST PUSH1 0x40 MLOAD PUSH2 0x66F SWAP2 SWAP1 PUSH2 0x36A3 JUMP JUMPDEST PUSH1 0x40 MLOAD DUP1 SWAP2 SUB SWAP1 RETURN JUMPDEST PUSH2 0x692 PUSH1 0x4 DUP1 CALLDATASIZE SUB DUP2 ADD SWAP1 PUSH2 0x68D SWAP2 SWAP1 PUSH2 0x384B JUMP JUMPDEST PUSH2 0x2892 JUMP JUMPDEST STOP JUMPDEST PUSH2 0x6AE PUSH1 0x4 DUP1 CALLDATASIZE SUB DUP2 ADD SWAP1 PUSH2 0x6A9 SWAP2 SWAP1 PUSH2 0x3721 JUMP JUMPDEST PUSH2 0x2B94 JUMP JUMPDEST STOP JUMPDEST PUSH2 0x6CA PUSH1 0x4 DUP1 CALLDATASIZE SUB DUP2 ADD SWAP1 PUSH2 0x6C5 SWAP2 SWAP1 PUSH2 0x3B40 JUMP JUMPDEST PUSH2 0x2C8B JUMP JUMPDEST PUSH1 0x40 MLOAD PUSH2 0x6D7 SWAP2 SWAP1 PUSH2 0x36A3 JUMP JUMPDEST PUSH1 0x40 MLOAD DUP1 SWAP2 SUB SWAP1 RETURN JUMPDEST PUSH1 0x0 PUSH1 0x6 DUP1 SLOAD SWAP1 POP SWAP1 POP SWAP1 JUMP JUMPDEST PUSH2 0x6F5 PUSH2 0x2EB0 JUMP JUMPDEST PUSH20 0xFFFFFFFFFFFFFFFFFFFFFFFFFFFFFFFFFFFFFFFF AND PUSH2 0x713 PUSH2 0x236B JUMP JUMPDEST PUSH20 0xFFFFFFFFFFFFFFFFFFFFFFFFFFFFFFFFFFFFFFFF AND EQ PUSH2 0x769 JUMPI PUSH1 0x40 MLOAD PUSH32 0x8C379A000000000000000000000000000000000000000000000000000000000 DUP2 MSTORE PUSH1 0x4 ADD PUSH2 0x760 SWAP1 PUSH2 0x3C21 JUMP JUMPDEST PUSH1 0x40 MLOAD DUP1 SWAP2 SUB SWAP1 REVERT JUMPDEST DUP1 PUSH1 0xA PUSH1 0x0 PUSH2 0x100 EXP DUP2 SLOAD DUP2 PUSH20 0xFFFFFFFFFFFFFFFFFFFFFFFFFFFFFFFFFFFFFFFF MUL NOT AND SWAP1 DUP4 PUSH20 0xFFFFFFFFFFFFFFFFFFFFFFFFFFFFFFFFFFFFFFFF AND MUL OR SWAP1 SSTORE POP POP JUMP JUMPDEST PUSH1 0x0 PUSH1 0x6 PUSH1 0x0 DUP2 SLOAD DUP2 LT PUSH2 0x7C4 JUMPI PUSH2 0x7C3 PUSH2 0x3C41 JUMP JUMPDEST JUMPDEST SWAP1 PUSH1 0x0 MSTORE PUSH1 0x20 PUSH1 0x0 KECCAK256 SWAP1 PUSH1 0x4 MUL ADD SWAP1 POP PUSH1 0x0 PUSH1 0x7 PUSH1 0x0 DUP1 DUP2 MSTORE PUSH1 0x20 ADD SWAP1 DUP2 MSTORE PUSH1 0x20 ADD PUSH1 0x0 KECCAK256 PUSH1 0x0 CALLER PUSH20 0xFFFFFFFFFFFFFFFFFFFFFFFFFFFFFFFFFFFFFFFF AND PUSH20 0xFFFFFFFFFFFFFFFFFFFFFFFFFFFFFFFFFFFFFFFF AND DUP2 MSTORE PUSH1 0x20 ADD SWAP1 DUP2 MSTORE PUSH1 0x20 ADD PUSH1 0x0 KECCAK256 SWAP1 POP DUP3 DUP2 PUSH1 0x0 ADD SLOAD LT ISZERO PUSH2 0x86F JUMPI PUSH1 0x40 MLOAD PUSH32 0x8C379A000000000000000000000000000000000000000000000000000000000 DUP2 MSTORE PUSH1 0x4 ADD PUSH2 0x866 SWAP1 PUSH2 0x3CBC JUMP JUMPDEST PUSH1 0x40 MLOAD DUP1 SWAP2 SUB SWAP1 REVERT JUMPDEST PUSH2 0x879 PUSH1 0x0 PUSH2 0x1C91 JUMP JUMPDEST PUSH1 0x0 PUSH2 0x8C3 DUP3 PUSH1 0x1 ADD SLOAD PUSH2 0x8B5 PUSH5 0xE8D4A51000 PUSH2 0x8A7 DUP8 PUSH1 0x3 ADD SLOAD DUP8 PUSH1 0x0 ADD SLOAD PUSH2 0x2EB8 SWAP1 SWAP2 SWAP1 PUSH4 0xFFFFFFFF AND JUMP JUMPDEST PUSH2 0x2F32 SWAP1 SWAP2 SWAP1 PUSH4 0xFFFFFFFF AND JUMP JUMPDEST PUSH2 0x2F7C SWAP1 SWAP2 SWAP1 PUSH4 0xFFFFFFFF AND JUMP JUMPDEST SWAP1 POP PUSH1 0x0 DUP2 GT ISZERO PUSH2 0x964 JUMPI PUSH2 0x920 DUP2 PUSH1 0xC PUSH1 0x0 CALLER PUSH20 0xFFFFFFFFFFFFFFFFFFFFFFFFFFFFFFFFFFFFFFFF AND PUSH20 0xFFFFFFFFFFFFFFFFFFFFFFFFFFFFFFFFFFFFFFFF AND DUP2 MSTORE PUSH1 0x20 ADD SWAP1 DUP2 MSTORE PUSH1 0x20 ADD PUSH1 0x0 KECCAK256 SLOAD PUSH2 0x2FC6 SWAP1 SWAP2 SWAP1 PUSH4 0xFFFFFFFF AND JUMP JUMPDEST PUSH1 0xC PUSH1 0x0 CALLER PUSH20 0xFFFFFFFFFFFFFFFFFFFFFFFFFFFFFFFFFFFFFFFF AND PUSH20 0xFFFFFFFFFFFFFFFFFFFFFFFFFFFFFFFFFFFFFFFF AND DUP2 MSTORE PUSH1 0x20 ADD SWAP1 DUP2 MSTORE PUSH1 0x20 ADD PUSH1 0x0 KECCAK256 DUP2 SWAP1 SSTORE POP JUMPDEST PUSH1 0x0 DUP5 GT ISZERO PUSH2 0x9DC JUMPI PUSH2 0x984 DUP5 DUP4 PUSH1 0x0 ADD SLOAD PUSH2 0x2F7C SWAP1 SWAP2 SWAP1 PUSH4 0xFFFFFFFF AND JUMP JUMPDEST DUP3 PUSH1 0x0 ADD DUP2 SWAP1 SSTORE POP PUSH2 0x9DB CALLER DUP6 DUP6 PUSH1 0x0 ADD PUSH1 0x0 SWAP1 SLOAD SWAP1 PUSH2 0x100 EXP SWAP1 DIV PUSH20 0xFFFFFFFFFFFFFFFFFFFFFFFFFFFFFFFFFFFFFFFF AND PUSH20 0xFFFFFFFFFFFFFFFFFFFFFFFFFFFFFFFFFFFFFFFF AND PUSH2 0x3024 SWAP1 SWAP3 SWAP2 SWAP1 PUSH4 0xFFFFFFFF AND JUMP JUMPDEST JUMPDEST PUSH2 0xA0E PUSH5 0xE8D4A51000 PUSH2 0xA00 DUP6 PUSH1 0x3 ADD SLOAD DUP6 PUSH1 0x0 ADD SLOAD PUSH2 0x2EB8 SWAP1 SWAP2 SWAP1 PUSH4 0xFFFFFFFF AND JUMP JUMPDEST PUSH2 0x2F32 SWAP1 SWAP2 SWAP1 PUSH4 0xFFFFFFFF AND JUMP JUMPDEST DUP3 PUSH1 0x1 ADD DUP2 SWAP1 SSTORE POP PUSH1 0x0 CALLER PUSH20 0xFFFFFFFFFFFFFFFFFFFFFFFFFFFFFFFFFFFFFFFF AND PUSH32 0xF279E6A1F5E320CCA91135676D9CB6E44CA8A08C0B88342BCDB1144F6511B568 DUP7 PUSH1 0x40 MLOAD PUSH2 0xA5E SWAP2 SWAP1 PUSH2 0x36A3 JUMP JUMPDEST PUSH1 0x40 MLOAD DUP1 SWAP2 SUB SWAP1 LOG3 POP POP POP POP JUMP JUMPDEST PUSH1 0x6 DUP2 DUP2 SLOAD DUP2 LT PUSH2 0xA7C JUMPI PUSH1 0x0 DUP1 REVERT JUMPDEST SWAP1 PUSH1 0x0 MSTORE PUSH1 0x20 PUSH1 0x0 KECCAK256 SWAP1 PUSH1 0x4 MUL ADD PUSH1 0x0 SWAP2 POP SWAP1 POP DUP1 PUSH1 0x0 ADD PUSH1 0x0 SWAP1 SLOAD SWAP1 PUSH2 0x100 EXP SWAP1 DIV PUSH20 0xFFFFFFFFFFFFFFFFFFFFFFFFFFFFFFFFFFFFFFFF AND SWAP1 DUP1 PUSH1 0x1 ADD SLOAD SWAP1 DUP1 PUSH1 0x2 ADD SLOAD SWAP1 DUP1 PUSH1 0x3 ADD SLOAD SWAP1 POP DUP5 JUMP JUMPDEST PUSH1 0x8 SLOAD DUP2 JUMP JUMPDEST PUSH1 0x0 PUSH1 0x6 DUP3 DUP2 SLOAD DUP2 LT PUSH2 0xAE8 JUMPI PUSH2 0xAE7 PUSH2 0x3C41 JUMP JUMPDEST JUMPDEST SWAP1 PUSH1 0x0 MSTORE PUSH1 0x20 PUSH1 0x0 KECCAK256 SWAP1 PUSH1 0x4 MUL ADD SWAP1 POP PUSH1 0x0 PUSH1 0x7 PUSH1 0x0 DUP5 DUP2 MSTORE PUSH1 0x20 ADD SWAP1 DUP2 MSTORE PUSH1 0x20 ADD PUSH1 0x0 KECCAK256 PUSH1 0x0 CALLER PUSH20 0xFFFFFFFFFFFFFFFFFFFFFFFFFFFFFFFFFFFFFFFF AND PUSH20 0xFFFFFFFFFFFFFFFFFFFFFFFFFFFFFFFFFFFFFFFF AND DUP2 MSTORE PUSH1 0x20 ADD SWAP1 DUP2 MSTORE PUSH1 0x20 ADD PUSH1 0x0 KECCAK256 SWAP1 POP PUSH1 0x0 DUP3 PUSH1 0x3 ADD SLOAD SWAP1 POP PUSH1 0x0 DUP4 PUSH1 0x0 ADD PUSH1 0x0 SWAP1 SLOAD SWAP1 PUSH2 0x100 EXP SWAP1 DIV PUSH20 0xFFFFFFFFFFFFFFFFFFFFFFFFFFFFFFFFFFFFFFFF AND PUSH20 0xFFFFFFFFFFFFFFFFFFFFFFFFFFFFFFFFFFFFFFFF AND PUSH4 0x70A08231 ADDRESS PUSH1 0x40 MLOAD DUP3 PUSH4 0xFFFFFFFF AND PUSH1 0xE0 SHL DUP2 MSTORE PUSH1 0x4 ADD PUSH2 0xBB4 SWAP2 SWAP1 PUSH2 0x3963 JUMP JUMPDEST PUSH1 0x20 PUSH1 0x40 MLOAD DUP1 DUP4 SUB DUP2 DUP7 GAS STATICCALL ISZERO DUP1 ISZERO PUSH2 0xBD1 JUMPI RETURNDATASIZE PUSH1 0x0 DUP1 RETURNDATACOPY RETURNDATASIZE PUSH1 0x0 REVERT JUMPDEST POP POP POP POP PUSH1 0x40 MLOAD RETURNDATASIZE PUSH1 0x1F NOT PUSH1 0x1F DUP3 ADD AND DUP3 ADD DUP1 PUSH1 0x40 MSTORE POP DUP2 ADD SWAP1 PUSH2 0xBF5 SWAP2 SWAP1 PUSH2 0x3CF1 JUMP JUMPDEST SWAP1 POP DUP4 PUSH1 0x2 ADD SLOAD NUMBER GT DUP1 ISZERO PUSH2 0xC0B JUMPI POP PUSH1 0x0 DUP2 EQ ISZERO JUMPDEST ISZERO PUSH2 0xCA6 JUMPI PUSH1 0x0 PUSH2 0xC20 DUP6 PUSH1 0x2 ADD SLOAD NUMBER PUSH2 0x2394 JUMP JUMPDEST SWAP1 POP PUSH1 0x0 PUSH2 0xC63 PUSH1 0x8 SLOAD PUSH2 0xC55 DUP9 PUSH1 0x1 ADD SLOAD PUSH2 0xC47 PUSH1 0x3 SLOAD DUP8 PUSH2 0x2EB8 SWAP1 SWAP2 SWAP1 PUSH4 0xFFFFFFFF AND JUMP JUMPDEST PUSH2 0x2EB8 SWAP1 SWAP2 SWAP1 PUSH4 0xFFFFFFFF AND JUMP JUMPDEST PUSH2 0x2F32 SWAP1 SWAP2 SWAP1 PUSH4 0xFFFFFFFF AND JUMP JUMPDEST SWAP1 POP PUSH2 0xCA1 PUSH2 0xC92 DUP5 PUSH2 0xC84 PUSH5 0xE8D4A51000 DUP6 PUSH2 0x2EB8 SWAP1 SWAP2 SWAP1 PUSH4 0xFFFFFFFF AND JUMP JUMPDEST PUSH2 0x2F32 SWAP1 SWAP2 SWAP1 PUSH4 0xFFFFFFFF AND JUMP JUMPDEST DUP6 PUSH2 0x2FC6 SWAP1 SWAP2 SWAP1 PUSH4 0xFFFFFFFF AND JUMP JUMPDEST SWAP4 POP POP POP JUMPDEST PUSH1 0x0 PUSH2 0xCEC DUP5 PUSH1 0x1 ADD SLOAD PUSH2 0xCDE PUSH5 0xE8D4A51000 PUSH2 0xCD0 DUP8 DUP10 PUSH1 0x0 ADD SLOAD PUSH2 0x2EB8 SWAP1 SWAP2 SWAP1 PUSH4 0xFFFFFFFF AND JUMP JUMPDEST PUSH2 0x2F32 SWAP1 SWAP2 SWAP1 PUSH4 0xFFFFFFFF AND JUMP JUMPDEST PUSH2 0x2F7C SWAP1 SWAP2 SWAP1 PUSH4 0xFFFFFFFF AND JUMP JUMPDEST SWAP1 POP PUSH1 0x0 PUSH1 0x1 DUP9 DUP2 SLOAD DUP2 LT PUSH2 0xD04 JUMPI PUSH2 0xD03 PUSH2 0x3C41 JUMP JUMPDEST JUMPDEST SWAP1 PUSH1 0x0 MSTORE PUSH1 0x20 PUSH1 0x0 KECCAK256 SWAP1 PUSH1 0x2 MUL ADD SWAP1 POP PUSH1 0x0 PUSH2 0xD68 PUSH1 0xC PUSH1 0x0 CALLER PUSH20 0xFFFFFFFFFFFFFFFFFFFFFFFFFFFFFFFFFFFFFFFF AND PUSH20 0xFFFFFFFFFFFFFFFFFFFFFFFFFFFFFFFFFFFFFFFF AND DUP2 MSTORE PUSH1 0x20 ADD SWAP1 DUP2 MSTORE PUSH1 0x20 ADD PUSH1 0x0 KECCAK256 SLOAD DUP5 PUSH2 0x2FC6 SWAP1 SWAP2 SWAP1 PUSH4 0xFFFFFFFF AND JUMP JUMPDEST SWAP1 POP DUP2 PUSH1 0x1 ADD SLOAD DUP2 GT ISZERO PUSH2 0xD9E JUMPI PUSH1 0x0 DUP9 SUB PUSH2 0xD89 JUMPI PUSH2 0xD88 PUSH1 0x0 PUSH2 0x7AD JUMP JUMPDEST JUMPDEST PUSH1 0x0 DUP9 EQ PUSH2 0xD9D JUMPI PUSH2 0xD9C DUP9 PUSH1 0x0 PUSH2 0x151A JUMP JUMPDEST JUMPDEST JUMPDEST PUSH1 0xC PUSH1 0x0 CALLER PUSH20 0xFFFFFFFFFFFFFFFFFFFFFFFFFFFFFFFFFFFFFFFF AND PUSH20 0xFFFFFFFFFFFFFFFFFFFFFFFFFFFFFFFFFFFFFFFF AND DUP2 MSTORE PUSH1 0x20 ADD SWAP1 DUP2 MSTORE PUSH1 0x20 ADD PUSH1 0x0 KECCAK256 SLOAD DUP3 PUSH1 0x1 ADD SLOAD LT PUSH2 0xE23 JUMPI PUSH1 0x40 MLOAD PUSH32 0x8C379A000000000000000000000000000000000000000000000000000000000 DUP2 MSTORE PUSH1 0x4 ADD PUSH2 0xE1A SWAP1 PUSH2 0x3D6A JUMP JUMPDEST PUSH1 0x40 MLOAD DUP1 SWAP2 SUB SWAP1 REVERT JUMPDEST PUSH2 0xE79 DUP3 PUSH1 0x1 ADD SLOAD PUSH1 0xC PUSH1 0x0 CALLER PUSH20 0xFFFFFFFFFFFFFFFFFFFFFFFFFFFFFFFFFFFFFFFF AND PUSH20 0xFFFFFFFFFFFFFFFFFFFFFFFFFFFFFFFFFFFFFFFF AND DUP2 MSTORE PUSH1 0x20 ADD SWAP1 DUP2 MSTORE PUSH1 0x20 ADD PUSH1 0x0 KECCAK256 SLOAD PUSH2 0x2F7C SWAP1 SWAP2 SWAP1 PUSH4 0xFFFFFFFF AND JUMP JUMPDEST PUSH1 0xC PUSH1 0x0 CALLER PUSH20 0xFFFFFFFFFFFFFFFFFFFFFFFFFFFFFFFFFFFFFFFF AND PUSH20 0xFFFFFFFFFFFFFFFFFFFFFFFFFFFFFFFFFFFFFFFF AND DUP2 MSTORE PUSH1 0x20 ADD SWAP1 DUP2 MSTORE PUSH1 0x20 ADD PUSH1 0x0 KECCAK256 DUP2 SWAP1 SSTORE POP DUP2 PUSH1 0x0 ADD PUSH1 0x0 SWAP1 SLOAD SWAP1 PUSH2 0x100 EXP SWAP1 DIV PUSH20 0xFFFFFFFFFFFFFFFFFFFFFFFFFFFFFFFFFFFFFFFF AND PUSH20 0xFFFFFFFFFFFFFFFFFFFFFFFFFFFFFFFFFFFFFFFF AND PUSH4 0x17E5883C CALLER PUSH1 0x40 MLOAD DUP3 PUSH4 0xFFFFFFFF AND PUSH1 0xE0 SHL DUP2 MSTORE PUSH1 0x4 ADD PUSH2 0xF19 SWAP2 SWAP1 PUSH2 0x3963 JUMP JUMPDEST PUSH1 0x0 PUSH1 0x40 MLOAD DUP1 DUP4 SUB DUP2 PUSH1 0x0 DUP8 DUP1 EXTCODESIZE ISZERO DUP1 ISZERO PUSH2 0xF33 JUMPI PUSH1 0x0 DUP1 REVERT JUMPDEST POP GAS CALL ISZERO DUP1 ISZERO PUSH2 0xF47 JUMPI RETURNDATASIZE PUSH1 0x0 DUP1 RETURNDATACOPY RETURNDATASIZE PUSH1 0x0 REVERT JUMPDEST POP POP POP POP POP POP POP POP POP POP POP POP POP JUMP JUMPDEST PUSH2 0xF5E PUSH2 0x2EB0 JUMP JUMPDEST PUSH20 0xFFFFFFFFFFFFFFFFFFFFFFFFFFFFFFFFFFFFFFFF AND PUSH2 0xF7C PUSH2 0x236B JUMP JUMPDEST PUSH20 0xFFFFFFFFFFFFFFFFFFFFFFFFFFFFFFFFFFFFFFFF AND EQ PUSH2 0xFD2 JUMPI PUSH1 0x40 MLOAD PUSH32 0x8C379A000000000000000000000000000000000000000000000000000000000 DUP2 MSTORE PUSH1 0x4 ADD PUSH2 0xFC9 SWAP1 PUSH2 0x3C21 JUMP JUMPDEST PUSH1 0x40 MLOAD DUP1 SWAP2 SUB SWAP1 REVERT JUMPDEST DUP1 ISZERO PUSH2 0xFE1 JUMPI PUSH2 0xFE0 PUSH2 0x2109 JUMP JUMPDEST JUMPDEST PUSH1 0x0 PUSH1 0x9 SLOAD NUMBER GT PUSH2 0xFF4 JUMPI PUSH1 0x9 SLOAD PUSH2 0xFF6 JUMP JUMPDEST NUMBER JUMPDEST SWAP1 POP PUSH2 0x100D DUP5 PUSH1 0x8 SLOAD PUSH2 0x2FC6 SWAP1 SWAP2 SWAP1 PUSH4 0xFFFFFFFF AND JUMP JUMPDEST PUSH1 0x8 DUP2 SWAP1 SSTORE POP PUSH1 0x6 PUSH1 0x40 MLOAD DUP1 PUSH1 0x80 ADD PUSH1 0x40 MSTORE DUP1 DUP6 PUSH20 0xFFFFFFFFFFFFFFFFFFFFFFFFFFFFFFFFFFFFFFFF AND DUP2 MSTORE PUSH1 0x20 ADD DUP7 DUP2 MSTORE PUSH1 0x20 ADD DUP4 DUP2 MSTORE PUSH1 0x20 ADD PUSH1 0x0 DUP2 MSTORE POP SWAP1 DUP1 PUSH1 0x1 DUP2 SLOAD ADD DUP1 DUP3 SSTORE DUP1 SWAP2 POP POP PUSH1 0x1 SWAP1 SUB SWAP1 PUSH1 0x0 MSTORE PUSH1 0x20 PUSH1 0x0 KECCAK256 SWAP1 PUSH1 0x4 MUL ADD PUSH1 0x0 SWAP1 SWAP2 SWAP1 SWAP2 SWAP1 SWAP2 POP PUSH1 0x0 DUP3 ADD MLOAD DUP2 PUSH1 0x0 ADD PUSH1 0x0 PUSH2 0x100 EXP DUP2 SLOAD DUP2 PUSH20 0xFFFFFFFFFFFFFFFFFFFFFFFFFFFFFFFFFFFFFFFF MUL NOT AND SWAP1 DUP4 PUSH20 0xFFFFFFFFFFFFFFFFFFFFFFFFFFFFFFFFFFFFFFFF AND MUL OR SWAP1 SSTORE POP PUSH1 0x20 DUP3 ADD MLOAD DUP2 PUSH1 0x1 ADD SSTORE PUSH1 0x40 DUP3 ADD MLOAD DUP2 PUSH1 0x2 ADD SSTORE PUSH1 0x60 DUP3 ADD MLOAD DUP2 PUSH1 0x3 ADD SSTORE POP POP POP POP POP POP JUMP JUMPDEST PUSH1 0xB PUSH1 0x0 SWAP1 SLOAD SWAP1 PUSH2 0x100 EXP SWAP1 DIV PUSH20 0xFFFFFFFFFFFFFFFFFFFFFFFFFFFFFFFFFFFFFFFF AND DUP2 JUMP JUMPDEST PUSH2 0x1111 PUSH2 0x2EB0 JUMP JUMPDEST PUSH20 0xFFFFFFFFFFFFFFFFFFFFFFFFFFFFFFFFFFFFFFFF AND PUSH2 0x112F PUSH2 0x236B JUMP JUMPDEST PUSH20 0xFFFFFFFFFFFFFFFFFFFFFFFFFFFFFFFFFFFFFFFF AND EQ PUSH2 0x1185 JUMPI PUSH1 0x40 MLOAD PUSH32 0x8C379A000000000000000000000000000000000000000000000000000000000 DUP2 MSTORE PUSH1 0x4 ADD PUSH2 0x117C SWAP1 PUSH2 0x3C21 JUMP JUMPDEST PUSH1 0x40 MLOAD DUP1 SWAP2 SUB SWAP1 REVERT JUMPDEST DUP1 PUSH1 0x5 PUSH1 0x0 PUSH2 0x100 EXP DUP2 SLOAD DUP2 PUSH20 0xFFFFFFFFFFFFFFFFFFFFFFFFFFFFFFFFFFFFFFFF MUL NOT AND SWAP1 DUP4 PUSH20 0xFFFFFFFFFFFFFFFFFFFFFFFFFFFFFFFFFFFFFFFF AND MUL OR SWAP1 SSTORE POP POP JUMP JUMPDEST PUSH2 0x11D1 PUSH2 0x2EB0 JUMP JUMPDEST PUSH20 0xFFFFFFFFFFFFFFFFFFFFFFFFFFFFFFFFFFFFFFFF AND PUSH2 0x11EF PUSH2 0x236B JUMP JUMPDEST PUSH20 0xFFFFFFFFFFFFFFFFFFFFFFFFFFFFFFFFFFFFFFFF AND EQ PUSH2 0x1245 JUMPI PUSH1 0x40 MLOAD PUSH32 0x8C379A000000000000000000000000000000000000000000000000000000000 DUP2 MSTORE PUSH1 0x4 ADD PUSH2 0x123C SWAP1 PUSH2 0x3C21 JUMP JUMPDEST PUSH1 0x40 MLOAD DUP1 SWAP2 SUB SWAP1 REVERT JUMPDEST DUP1 PUSH1 0x3 DUP2 SWAP1 SSTORE POP POP JUMP JUMPDEST PUSH1 0x0 DUP2 GT PUSH2 0x1292 JUMPI PUSH1 0x40 MLOAD PUSH32 0x8C379A000000000000000000000000000000000000000000000000000000000 DUP2 MSTORE PUSH1 0x4 ADD PUSH2 0x1289 SWAP1 PUSH2 0x3DD6 JUMP JUMPDEST PUSH1 0x40 MLOAD DUP1 SWAP2 SUB SWAP1 REVERT JUMPDEST PUSH1 0x0 PUSH1 0x6 PUSH1 0x0 DUP2 SLOAD DUP2 LT PUSH2 0x12A9 JUMPI PUSH2 0x12A8 PUSH2 0x3C41 JUMP JUMPDEST JUMPDEST SWAP1 PUSH1 0x0 MSTORE PUSH1 0x20 PUSH1 0x0 KECCAK256 SWAP1 PUSH1 0x4 MUL ADD SWAP1 POP PUSH1 0x0 PUSH1 0x7 PUSH1 0x0 DUP1 DUP2 MSTORE PUSH1 0x20 ADD SWAP1 DUP2 MSTORE PUSH1 0x20 ADD PUSH1 0x0 KECCAK256 PUSH1 0x0 CALLER PUSH20 0xFFFFFFFFFFFFFFFFFFFFFFFFFFFFFFFFFFFFFFFF AND PUSH20 0xFFFFFFFFFFFFFFFFFFFFFFFFFFFFFFFFFFFFFFFF AND DUP2 MSTORE PUSH1 0x20 ADD SWAP1 DUP2 MSTORE PUSH1 0x20 ADD PUSH1 0x0 KECCAK256 SWAP1 POP PUSH2 0x1317 PUSH1 0x0 PUSH2 0x1C91 JUMP JUMPDEST PUSH1 0x0 DUP2 PUSH1 0x0 ADD SLOAD GT ISZERO PUSH2 0x1411 JUMPI PUSH1 0x0 PUSH2 0x136E DUP3 PUSH1 0x1 ADD SLOAD PUSH2 0x1360 PUSH5 0xE8D4A51000 PUSH2 0x1352 DUP8 PUSH1 0x3 ADD SLOAD DUP8 PUSH1 0x0 ADD SLOAD PUSH2 0x2EB8 SWAP1 SWAP2 SWAP1 PUSH4 0xFFFFFFFF AND JUMP JUMPDEST PUSH2 0x2F32 SWAP1 SWAP2 SWAP1 PUSH4 0xFFFFFFFF AND JUMP JUMPDEST PUSH2 0x2F7C SWAP1 SWAP2 SWAP1 PUSH4 0xFFFFFFFF AND JUMP JUMPDEST SWAP1 POP PUSH1 0x0 DUP2 GT ISZERO PUSH2 0x140F JUMPI PUSH2 0x13CB DUP2 PUSH1 0xC PUSH1 0x0 CALLER PUSH20 0xFFFFFFFFFFFFFFFFFFFFFFFFFFFFFFFFFFFFFFFF AND PUSH20 0xFFFFFFFFFFFFFFFFFFFFFFFFFFFFFFFFFFFFFFFF AND DUP2 MSTORE PUSH1 0x20 ADD SWAP1 DUP2 MSTORE PUSH1 0x20 ADD PUSH1 0x0 KECCAK256 SLOAD PUSH2 0x2FC6 SWAP1 SWAP2 SWAP1 PUSH4 0xFFFFFFFF AND JUMP JUMPDEST PUSH1 0xC PUSH1 0x0 CALLER PUSH20 0xFFFFFFFFFFFFFFFFFFFFFFFFFFFFFFFFFFFFFFFF AND PUSH20 0xFFFFFFFFFFFFFFFFFFFFFFFFFFFFFFFFFFFFFFFF AND DUP2 MSTORE PUSH1 0x20 ADD SWAP1 DUP2 MSTORE PUSH1 0x20 ADD PUSH1 0x0 KECCAK256 DUP2 SWAP1 SSTORE POP JUMPDEST POP JUMPDEST PUSH1 0x0 DUP4 GT ISZERO PUSH2 0x148B JUMPI PUSH2 0x146B CALLER ADDRESS DUP6 DUP6 PUSH1 0x0 ADD PUSH1 0x0 SWAP1 SLOAD SWAP1 PUSH2 0x100 EXP SWAP1 DIV PUSH20 0xFFFFFFFFFFFFFFFFFFFFFFFFFFFFFFFFFFFFFFFF AND PUSH20 0xFFFFFFFFFFFFFFFFFFFFFFFFFFFFFFFFFFFFFFFF AND PUSH2 0x30AA SWAP1 SWAP4 SWAP3 SWAP2 SWAP1 PUSH4 0xFFFFFFFF AND JUMP JUMPDEST PUSH2 0x1482 DUP4 DUP3 PUSH1 0x0 ADD SLOAD PUSH2 0x2FC6 SWAP1 SWAP2 SWAP1 PUSH4 0xFFFFFFFF AND JUMP JUMPDEST DUP2 PUSH1 0x0 ADD DUP2 SWAP1 SSTORE POP JUMPDEST PUSH2 0x14BD PUSH5 0xE8D4A51000 PUSH2 0x14AF DUP5 PUSH1 0x3 ADD SLOAD DUP5 PUSH1 0x0 ADD SLOAD PUSH2 0x2EB8 SWAP1 SWAP2 SWAP1 PUSH4 0xFFFFFFFF AND JUMP JUMPDEST PUSH2 0x2F32 SWAP1 SWAP2 SWAP1 PUSH4 0xFFFFFFFF AND JUMP JUMPDEST DUP2 PUSH1 0x1 ADD DUP2 SWAP1 SSTORE POP PUSH1 0x0 CALLER PUSH20 0xFFFFFFFFFFFFFFFFFFFFFFFFFFFFFFFFFFFFFFFF AND PUSH32 0x90890809C654F11D6E72A28FA60149770A0D11EC6C92319D6CEB2BB0A4EA1A15 DUP6 PUSH1 0x40 MLOAD PUSH2 0x150D SWAP2 SWAP1 PUSH2 0x36A3 JUMP JUMPDEST PUSH1 0x40 MLOAD DUP1 SWAP2 SUB SWAP1 LOG3 POP POP POP JUMP JUMPDEST PUSH1 0x0 DUP3 SUB PUSH2 0x155D JUMPI PUSH1 0x40 MLOAD PUSH32 0x8C379A000000000000000000000000000000000000000000000000000000000 DUP2 MSTORE PUSH1 0x4 ADD PUSH2 0x1554 SWAP1 PUSH2 0x3E42 JUMP JUMPDEST PUSH1 0x40 MLOAD DUP1 SWAP2 SUB SWAP1 REVERT JUMPDEST PUSH1 0x0 PUSH1 0x6 DUP4 DUP2 SLOAD DUP2 LT PUSH2 0x1573 JUMPI PUSH2 0x1572 PUSH2 0x3C41 JUMP JUMPDEST JUMPDEST SWAP1 PUSH1 0x0 MSTORE PUSH1 0x20 PUSH1 0x0 KECCAK256 SWAP1 PUSH1 0x4 MUL ADD SWAP1 POP PUSH1 0x0 PUSH1 0x7 PUSH1 0x0 DUP6 DUP2 MSTORE PUSH1 0x20 ADD SWAP1 DUP2 MSTORE PUSH1 0x20 ADD PUSH1 0x0 KECCAK256 PUSH1 0x0 CALLER PUSH20 0xFFFFFFFFFFFFFFFFFFFFFFFFFFFFFFFFFFFFFFFF AND PUSH20 0xFFFFFFFFFFFFFFFFFFFFFFFFFFFFFFFFFFFFFFFF AND DUP2 MSTORE PUSH1 0x20 ADD SWAP1 DUP2 MSTORE PUSH1 0x20 ADD PUSH1 0x0 KECCAK256 SWAP1 POP DUP3 DUP2 PUSH1 0x0 ADD SLOAD LT ISZERO PUSH2 0x161E JUMPI PUSH1 0x40 MLOAD PUSH32 0x8C379A000000000000000000000000000000000000000000000000000000000 DUP2 MSTORE PUSH1 0x4 ADD PUSH2 0x1615 SWAP1 PUSH2 0x3CBC JUMP JUMPDEST PUSH1 0x40 MLOAD DUP1 SWAP2 SUB SWAP1 REVERT JUMPDEST PUSH2 0x1627 DUP5 PUSH2 0x1C91 JUMP JUMPDEST PUSH1 0x0 PUSH2 0x1671 DUP3 PUSH1 0x1 ADD SLOAD PUSH2 0x1663 PUSH5 0xE8D4A51000 PUSH2 0x1655 DUP8 PUSH1 0x3 ADD SLOAD DUP8 PUSH1 0x0 ADD SLOAD PUSH2 0x2EB8 SWAP1 SWAP2 SWAP1 PUSH4 0xFFFFFFFF AND JUMP JUMPDEST PUSH2 0x2F32 SWAP1 SWAP2 SWAP1 PUSH4 0xFFFFFFFF AND JUMP JUMPDEST PUSH2 0x2F7C SWAP1 SWAP2 SWAP1 PUSH4 0xFFFFFFFF AND JUMP JUMPDEST SWAP1 POP PUSH1 0x0 DUP2 GT ISZERO PUSH2 0x1712 JUMPI PUSH2 0x16CE DUP2 PUSH1 0xC PUSH1 0x0 CALLER PUSH20 0xFFFFFFFFFFFFFFFFFFFFFFFFFFFFFFFFFFFFFFFF AND PUSH20 0xFFFFFFFFFFFFFFFFFFFFFFFFFFFFFFFFFFFFFFFF AND DUP2 MSTORE PUSH1 0x20 ADD SWAP1 DUP2 MSTORE PUSH1 0x20 ADD PUSH1 0x0 KECCAK256 SLOAD PUSH2 0x2FC6 SWAP1 SWAP2 SWAP1 PUSH4 0xFFFFFFFF AND JUMP JUMPDEST PUSH1 0xC PUSH1 0x0 CALLER PUSH20 0xFFFFFFFFFFFFFFFFFFFFFFFFFFFFFFFFFFFFFFFF AND PUSH20 0xFFFFFFFFFFFFFFFFFFFFFFFFFFFFFFFFFFFFFFFF AND DUP2 MSTORE PUSH1 0x20 ADD SWAP1 DUP2 MSTORE PUSH1 0x20 ADD PUSH1 0x0 KECCAK256 DUP2 SWAP1 SSTORE POP JUMPDEST PUSH2 0x1729 DUP5 DUP4 PUSH1 0x0 ADD SLOAD PUSH2 0x2F7C SWAP1 SWAP2 SWAP1 PUSH4 0xFFFFFFFF AND JUMP JUMPDEST DUP3 PUSH1 0x0 ADD DUP2 SWAP1 SSTORE POP PUSH2 0x1763 PUSH5 0xE8D4A51000 PUSH2 0x1755 DUP6 PUSH1 0x3 ADD SLOAD DUP6 PUSH1 0x0 ADD SLOAD PUSH2 0x2EB8 SWAP1 SWAP2 SWAP1 PUSH4 0xFFFFFFFF AND JUMP JUMPDEST PUSH2 0x2F32 SWAP1 SWAP2 SWAP1 PUSH4 0xFFFFFFFF AND JUMP JUMPDEST DUP3 PUSH1 0x1 ADD DUP2 SWAP1 SSTORE POP PUSH2 0x17BA CALLER DUP6 DUP6 PUSH1 0x0 ADD PUSH1 0x0 SWAP1 SLOAD SWAP1 PUSH2 0x100 EXP SWAP1 DIV PUSH20 0xFFFFFFFFFFFFFFFFFFFFFFFFFFFFFFFFFFFFFFFF AND PUSH20 0xFFFFFFFFFFFFFFFFFFFFFFFFFFFFFFFFFFFFFFFF AND PUSH2 0x3024 SWAP1 SWAP3 SWAP2 SWAP1 PUSH4 0xFFFFFFFF AND JUMP JUMPDEST DUP5 CALLER PUSH20 0xFFFFFFFFFFFFFFFFFFFFFFFFFFFFFFFFFFFFFFFF AND PUSH32 0xF279E6A1F5E320CCA91135676D9CB6E44CA8A08C0B88342BCDB1144F6511B568 DUP7 PUSH1 0x40 MLOAD PUSH2 0x1801 SWAP2 SWAP1 PUSH2 0x36A3 JUMP JUMPDEST PUSH1 0x40 MLOAD DUP1 SWAP2 SUB SWAP1 LOG3 POP POP POP POP POP JUMP JUMPDEST PUSH1 0x0 PUSH20 0xFFFFFFFFFFFFFFFFFFFFFFFFFFFFFFFFFFFFFFFF AND PUSH1 0x5 PUSH1 0x0 SWAP1 SLOAD SWAP1 PUSH2 0x100 EXP SWAP1 DIV PUSH20 0xFFFFFFFFFFFFFFFFFFFFFFFFFFFFFFFFFFFFFFFF AND PUSH20 0xFFFFFFFFFFFFFFFFFFFFFFFFFFFFFFFFFFFFFFFF AND SUB PUSH2 0x18A1 JUMPI PUSH1 0x40 MLOAD PUSH32 0x8C379A000000000000000000000000000000000000000000000000000000000 DUP2 MSTORE PUSH1 0x4 ADD PUSH2 0x1898 SWAP1 PUSH2 0x3EAE JUMP JUMPDEST PUSH1 0x40 MLOAD DUP1 SWAP2 SUB SWAP1 REVERT JUMPDEST PUSH1 0x0 PUSH1 0x6 DUP3 DUP2 SLOAD DUP2 LT PUSH2 0x18B7 JUMPI PUSH2 0x18B6 PUSH2 0x3C41 JUMP JUMPDEST JUMPDEST SWAP1 PUSH1 0x0 MSTORE PUSH1 0x20 PUSH1 0x0 KECCAK256 SWAP1 PUSH1 0x4 MUL ADD SWAP1 POP PUSH1 0x0 DUP2 PUSH1 0x0 ADD PUSH1 0x0 SWAP1 SLOAD SWAP1 PUSH2 0x100 EXP SWAP1 DIV PUSH20 0xFFFFFFFFFFFFFFFFFFFFFFFFFFFFFFFFFFFFFFFF AND SWAP1 POP PUSH1 0x0 DUP2 PUSH20 0xFFFFFFFFFFFFFFFFFFFFFFFFFFFFFFFFFFFFFFFF AND PUSH4 0x70A08231 ADDRESS PUSH1 0x40 MLOAD DUP3 PUSH4 0xFFFFFFFF AND PUSH1 0xE0 SHL DUP2 MSTORE PUSH1 0x4 ADD PUSH2 0x192B SWAP2 SWAP1 PUSH2 0x3963 JUMP JUMPDEST PUSH1 0x20 PUSH1 0x40 MLOAD DUP1 DUP4 SUB DUP2 DUP7 GAS STATICCALL ISZERO DUP1 ISZERO PUSH2 0x1948 JUMPI RETURNDATASIZE PUSH1 0x0 DUP1 RETURNDATACOPY RETURNDATASIZE PUSH1 0x0 REVERT JUMPDEST POP POP POP POP PUSH1 0x40 MLOAD RETURNDATASIZE PUSH1 0x1F NOT PUSH1 0x1F DUP3 ADD AND DUP3 ADD DUP1 PUSH1 0x40 MSTORE POP DUP2 ADD SWAP1 PUSH2 0x196C SWAP2 SWAP1 PUSH2 0x3CF1 JUMP JUMPDEST SWAP1 POP PUSH2 0x19BB PUSH1 0x5 PUSH1 0x0 SWAP1 SLOAD SWAP1 PUSH2 0x100 EXP SWAP1 DIV PUSH20 0xFFFFFFFFFFFFFFFFFFFFFFFFFFFFFFFFFFFFFFFF AND DUP3 DUP5 PUSH20 0xFFFFFFFFFFFFFFFFFFFFFFFFFFFFFFFFFFFFFFFF AND PUSH2 0x3133 SWAP1 SWAP3 SWAP2 SWAP1 PUSH4 0xFFFFFFFF AND JUMP JUMPDEST PUSH1 0x0 PUSH1 0x5 PUSH1 0x0 SWAP1 SLOAD SWAP1 PUSH2 0x100 EXP SWAP1 DIV PUSH20 0xFFFFFFFFFFFFFFFFFFFFFFFFFFFFFFFFFFFFFFFF AND PUSH20 0xFFFFFFFFFFFFFFFFFFFFFFFFFFFFFFFFFFFFFFFF AND PUSH4 0xCE5494BB DUP5 PUSH1 0x40 MLOAD DUP3 PUSH4 0xFFFFFFFF AND PUSH1 0xE0 SHL DUP2 MSTORE PUSH1 0x4 ADD PUSH2 0x1A18 SWAP2 SWAP1 PUSH2 0x3BA9 JUMP JUMPDEST PUSH1 0x20 PUSH1 0x40 MLOAD DUP1 DUP4 SUB DUP2 PUSH1 0x0 DUP8 GAS CALL ISZERO DUP1 ISZERO PUSH2 0x1A37 JUMPI RETURNDATASIZE PUSH1 0x0 DUP1 RETURNDATACOPY RETURNDATASIZE PUSH1 0x0 REVERT JUMPDEST POP POP POP POP PUSH1 0x40 MLOAD RETURNDATASIZE PUSH1 0x1F NOT PUSH1 0x1F DUP3 ADD AND DUP3 ADD DUP1 PUSH1 0x40 MSTORE POP DUP2 ADD SWAP1 PUSH2 0x1A5B SWAP2 SWAP1 PUSH2 0x3EE3 JUMP JUMPDEST SWAP1 POP DUP1 PUSH20 0xFFFFFFFFFFFFFFFFFFFFFFFFFFFFFFFFFFFFFFFF AND PUSH4 0x70A08231 ADDRESS PUSH1 0x40 MLOAD DUP3 PUSH4 0xFFFFFFFF AND PUSH1 0xE0 SHL DUP2 MSTORE PUSH1 0x4 ADD PUSH2 0x1A96 SWAP2 SWAP1 PUSH2 0x3963 JUMP JUMPDEST PUSH1 0x20 PUSH1 0x40 MLOAD DUP1 DUP4 SUB DUP2 DUP7 GAS STATICCALL ISZERO DUP1 ISZERO PUSH2 0x1AB3 JUMPI RETURNDATASIZE PUSH1 0x0 DUP1 RETURNDATACOPY RETURNDATASIZE PUSH1 0x0 REVERT JUMPDEST POP POP POP POP PUSH1 0x40 MLOAD RETURNDATASIZE PUSH1 0x1F NOT PUSH1 0x1F DUP3 ADD AND DUP3 ADD DUP1 PUSH1 0x40 MSTORE POP DUP2 ADD SWAP1 PUSH2 0x1AD7 SWAP2 SWAP1 PUSH2 0x3CF1 JUMP JUMPDEST DUP3 EQ PUSH2 0x1B18 JUMPI PUSH1 0x40 MLOAD PUSH32 0x8C379A000000000000000000000000000000000000000000000000000000000 DUP2 MSTORE PUSH1 0x4 ADD PUSH2 0x1B0F SWAP1 PUSH2 0x3F5C JUMP JUMPDEST PUSH1 0x40 MLOAD DUP1 SWAP2 SUB SWAP1 REVERT JUMPDEST DUP1 DUP5 PUSH1 0x0 ADD PUSH1 0x0 PUSH2 0x100 EXP DUP2 SLOAD DUP2 PUSH20 0xFFFFFFFFFFFFFFFFFFFFFFFFFFFFFFFFFFFFFFFF MUL NOT AND SWAP1 DUP4 PUSH20 0xFFFFFFFFFFFFFFFFFFFFFFFFFFFFFFFFFFFFFFFF AND MUL OR SWAP1 SSTORE POP POP POP POP POP POP JUMP JUMPDEST PUSH1 0x9 SLOAD DUP2 JUMP JUMPDEST PUSH2 0x1B70 PUSH2 0x2EB0 JUMP JUMPDEST PUSH20 0xFFFFFFFFFFFFFFFFFFFFFFFFFFFFFFFFFFFFFFFF AND PUSH2 0x1B8E PUSH2 0x236B JUMP JUMPDEST PUSH20 0xFFFFFFFFFFFFFFFFFFFFFFFFFFFFFFFFFFFFFFFF AND EQ PUSH2 0x1BE4 JUMPI PUSH1 0x40 MLOAD PUSH32 0x8C379A000000000000000000000000000000000000000000000000000000000 DUP2 MSTORE PUSH1 0x4 ADD PUSH2 0x1BDB SWAP1 PUSH2 0x3C21 JUMP JUMPDEST PUSH1 0x40 MLOAD DUP1 SWAP2 SUB SWAP1 REVERT JUMPDEST PUSH1 0x1 PUSH1 0x40 MLOAD DUP1 PUSH1 0x40 ADD PUSH1 0x40 MSTORE DUP1 DUP5 PUSH20 0xFFFFFFFFFFFFFFFFFFFFFFFFFFFFFFFFFFFFFFFF AND DUP2 MSTORE PUSH1 0x20 ADD DUP4 DUP2 MSTORE POP SWAP1 DUP1 PUSH1 0x1 DUP2 SLOAD ADD DUP1 DUP3 SSTORE DUP1 SWAP2 POP POP PUSH1 0x1 SWAP1 SUB SWAP1 PUSH1 0x0 MSTORE PUSH1 0x20 PUSH1 0x0 KECCAK256 SWAP1 PUSH1 0x2 MUL ADD PUSH1 0x0 SWAP1 SWAP2 SWAP1 SWAP2 SWAP1 SWAP2 POP PUSH1 0x0 DUP3 ADD MLOAD DUP2 PUSH1 0x0 ADD PUSH1 0x0 PUSH2 0x100 EXP DUP2 SLOAD DUP2 PUSH20 0xFFFFFFFFFFFFFFFFFFFFFFFFFFFFFFFFFFFFFFFF MUL NOT AND SWAP1 DUP4 PUSH20 0xFFFFFFFFFFFFFFFFFFFFFFFFFFFFFFFFFFFFFFFF AND MUL OR SWAP1 SSTORE POP PUSH1 0x20 DUP3 ADD MLOAD DUP2 PUSH1 0x1 ADD SSTORE POP POP POP POP JUMP JUMPDEST PUSH1 0x0 PUSH1 0x6 DUP3 DUP2 SLOAD DUP2 LT PUSH2 0x1CA7 JUMPI PUSH2 0x1CA6 PUSH2 0x3C41 JUMP JUMPDEST JUMPDEST SWAP1 PUSH1 0x0 MSTORE PUSH1 0x20 PUSH1 0x0 KECCAK256 SWAP1 PUSH1 0x4 MUL ADD SWAP1 POP DUP1 PUSH1 0x2 ADD SLOAD NUMBER GT PUSH2 0x1CC8 JUMPI POP PUSH2 0x1E2D JUMP JUMPDEST PUSH1 0x0 DUP2 PUSH1 0x0 ADD PUSH1 0x0 SWAP1 SLOAD SWAP1 PUSH2 0x100 EXP SWAP1 DIV PUSH20 0xFFFFFFFFFFFFFFFFFFFFFFFFFFFFFFFFFFFFFFFF AND PUSH20 0xFFFFFFFFFFFFFFFFFFFFFFFFFFFFFFFFFFFFFFFF AND PUSH4 0x70A08231 ADDRESS PUSH1 0x40 MLOAD DUP3 PUSH4 0xFFFFFFFF AND PUSH1 0xE0 SHL DUP2 MSTORE PUSH1 0x4 ADD PUSH2 0x1D27 SWAP2 SWAP1 PUSH2 0x3963 JUMP JUMPDEST PUSH1 0x20 PUSH1 0x40 MLOAD DUP1 DUP4 SUB DUP2 DUP7 GAS STATICCALL ISZERO DUP1 ISZERO PUSH2 0x1D44 JUMPI RETURNDATASIZE PUSH1 0x0 DUP1 RETURNDATACOPY RETURNDATASIZE PUSH1 0x0 REVERT JUMPDEST POP POP POP POP PUSH1 0x40 MLOAD RETURNDATASIZE PUSH1 0x1F NOT PUSH1 0x1F DUP3 ADD AND DUP3 ADD DUP1 PUSH1 0x40 MSTORE POP DUP2 ADD SWAP1 PUSH2 0x1D68 SWAP2 SWAP1 PUSH2 0x3CF1 JUMP JUMPDEST SWAP1 POP PUSH1 0x0 DUP2 GT PUSH2 0x1D82 JUMPI NUMBER DUP3 PUSH1 0x2 ADD DUP2 SWAP1 SSTORE POP POP POP PUSH2 0x1E2D JUMP JUMPDEST PUSH1 0x0 PUSH2 0x1D92 DUP4 PUSH1 0x2 ADD SLOAD NUMBER PUSH2 0x2394 JUMP JUMPDEST SWAP1 POP PUSH1 0x0 PUSH2 0x1DD5 PUSH1 0x8 SLOAD PUSH2 0x1DC7 DUP7 PUSH1 0x1 ADD SLOAD PUSH2 0x1DB9 PUSH1 0x3 SLOAD DUP8 PUSH2 0x2EB8 SWAP1 SWAP2 SWAP1 PUSH4 0xFFFFFFFF AND JUMP JUMPDEST PUSH2 0x2EB8 SWAP1 SWAP2 SWAP1 PUSH4 0xFFFFFFFF AND JUMP JUMPDEST PUSH2 0x2F32 SWAP1 SWAP2 SWAP1 PUSH4 0xFFFFFFFF AND JUMP JUMPDEST SWAP1 POP PUSH2 0x1E17 PUSH2 0x1E04 DUP5 PUSH2 0x1DF6 PUSH5 0xE8D4A51000 DUP6 PUSH2 0x2EB8 SWAP1 SWAP2 SWAP1 PUSH4 0xFFFFFFFF AND JUMP JUMPDEST PUSH2 0x2F32 SWAP1 SWAP2 SWAP1 PUSH4 0xFFFFFFFF AND JUMP JUMPDEST DUP6 PUSH1 0x3 ADD SLOAD PUSH2 0x2FC6 SWAP1 SWAP2 SWAP1 PUSH4 0xFFFFFFFF AND JUMP JUMPDEST DUP5 PUSH1 0x3 ADD DUP2 SWAP1 SSTORE POP NUMBER DUP5 PUSH1 0x2 ADD DUP2 SWAP1 SSTORE POP POP POP POP POP JUMPDEST POP JUMP JUMPDEST PUSH1 0x0 PUSH1 0x6 DUP3 DUP2 SLOAD DUP2 LT PUSH2 0x1E46 JUMPI PUSH2 0x1E45 PUSH2 0x3C41 JUMP JUMPDEST JUMPDEST SWAP1 PUSH1 0x0 MSTORE PUSH1 0x20 PUSH1 0x0 KECCAK256 SWAP1 PUSH1 0x4 MUL ADD SWAP1 POP PUSH1 0x0 PUSH1 0x7 PUSH1 0x0 DUP5 DUP2 MSTORE PUSH1 0x20 ADD SWAP1 DUP2 MSTORE PUSH1 0x20 ADD PUSH1 0x0 KECCAK256 PUSH1 0x0 CALLER PUSH20 0xFFFFFFFFFFFFFFFFFFFFFFFFFFFFFFFFFFFFFFFF AND PUSH20 0xFFFFFFFFFFFFFFFFFFFFFFFFFFFFFFFFFFFFFFFF AND DUP2 MSTORE PUSH1 0x20 ADD SWAP1 DUP2 MSTORE PUSH1 0x20 ADD PUSH1 0x0 KECCAK256 SWAP1 POP PUSH2 0x1EFD CALLER DUP3 PUSH1 0x0 ADD SLOAD DUP5 PUSH1 0x0 ADD PUSH1 0x0 SWAP1 SLOAD SWAP1 PUSH2 0x100 EXP SWAP1 DIV PUSH20 0xFFFFFFFFFFFFFFFFFFFFFFFFFFFFFFFFFFFFFFFF AND PUSH20 0xFFFFFFFFFFFFFFFFFFFFFFFFFFFFFFFFFFFFFFFF AND PUSH2 0x3024 SWAP1 SWAP3 SWAP2 SWAP1 PUSH4 0xFFFFFFFF AND JUMP JUMPDEST DUP3 CALLER PUSH20 0xFFFFFFFFFFFFFFFFFFFFFFFFFFFFFFFFFFFFFFFF AND PUSH32 0xBB757047C2B5F3974FE26B7C10F732E7BCE710B0952A71082702781E62AE0595 DUP4 PUSH1 0x0 ADD SLOAD PUSH1 0x40 MLOAD PUSH2 0x1F48 SWAP2 SWAP1 PUSH2 0x36A3 JUMP JUMPDEST PUSH1 0x40 MLOAD DUP1 SWAP2 SUB SWAP1 LOG3 PUSH1 0x0 DUP2 PUSH1 0x0 ADD DUP2 SWAP1 SSTORE POP PUSH1 0x0 DUP2 PUSH1 0x1 ADD DUP2 SWAP1 SSTORE POP POP POP POP JUMP JUMPDEST PUSH2 0x1F71 PUSH2 0x2EB0 JUMP JUMPDEST PUSH20 0xFFFFFFFFFFFFFFFFFFFFFFFFFFFFFFFFFFFFFFFF AND PUSH2 0x1F8F PUSH2 0x236B JUMP JUMPDEST PUSH20 0xFFFFFFFFFFFFFFFFFFFFFFFFFFFFFFFFFFFFFFFF AND EQ PUSH2 0x1FE5 JUMPI PUSH1 0x40 MLOAD PUSH32 0x8C379A000000000000000000000000000000000000000000000000000000000 DUP2 MSTORE PUSH1 0x4 ADD PUSH2 0x1FDC SWAP1 PUSH2 0x3C21 JUMP JUMPDEST PUSH1 0x40 MLOAD DUP1 SWAP2 SUB SWAP1 REVERT JUMPDEST DUP1 PUSH1 0xB PUSH1 0x0 PUSH2 0x100 EXP DUP2 SLOAD DUP2 PUSH20 0xFFFFFFFFFFFFFFFFFFFFFFFFFFFFFFFFFFFFFFFF MUL NOT AND SWAP1 DUP4 PUSH20 0xFFFFFFFFFFFFFFFFFFFFFFFFFFFFFFFFFFFFFFFF AND MUL OR SWAP1 SSTORE POP POP JUMP JUMPDEST PUSH1 0x3 SLOAD DUP2 JUMP JUMPDEST PUSH2 0x2037 PUSH2 0x2EB0 JUMP JUMPDEST PUSH20 0xFFFFFFFFFFFFFFFFFFFFFFFFFFFFFFFFFFFFFFFF AND PUSH2 0x2055 PUSH2 0x236B JUMP JUMPDEST PUSH20 0xFFFFFFFFFFFFFFFFFFFFFFFFFFFFFFFFFFFFFFFF AND EQ PUSH2 0x20AB JUMPI PUSH1 0x40 MLOAD PUSH32 0x8C379A000000000000000000000000000000000000000000000000000000000 DUP2 MSTORE PUSH1 0x4 ADD PUSH2 0x20A2 SWAP1 PUSH2 0x3C21 JUMP JUMPDEST PUSH1 0x40 MLOAD DUP1 SWAP2 SUB SWAP1 REVERT JUMPDEST DUP1 PUSH1 0x4 DUP2 SWAP1 SSTORE POP POP JUMP JUMPDEST PUSH1 0x1 DUP2 DUP2 SLOAD DUP2 LT PUSH2 0x20C5 JUMPI PUSH1 0x0 DUP1 REVERT JUMPDEST SWAP1 PUSH1 0x0 MSTORE PUSH1 0x20 PUSH1 0x0 KECCAK256 SWAP1 PUSH1 0x2 MUL ADD PUSH1 0x0 SWAP2 POP SWAP1 POP DUP1 PUSH1 0x0 ADD PUSH1 0x0 SWAP1 SLOAD SWAP1 PUSH2 0x100 EXP SWAP1 DIV PUSH20 0xFFFFFFFFFFFFFFFFFFFFFFFFFFFFFFFFFFFFFFFF AND SWAP1 DUP1 PUSH1 0x1 ADD SLOAD SWAP1 POP DUP3 JUMP JUMPDEST PUSH1 0x0 PUSH1 0x6 DUP1 SLOAD SWAP1 POP SWAP1 POP PUSH1 0x0 JUMPDEST DUP2 DUP2 LT ISZERO PUSH2 0x2138 JUMPI PUSH2 0x2127 DUP2 PUSH2 0x1C91 JUMP JUMPDEST DUP1 PUSH2 0x2131 SWAP1 PUSH2 0x3FAB JUMP JUMPDEST SWAP1 POP PUSH2 0x2116 JUMP JUMPDEST POP POP JUMP JUMPDEST PUSH2 0x2144 PUSH2 0x2EB0 JUMP JUMPDEST PUSH20 0xFFFFFFFFFFFFFFFFFFFFFFFFFFFFFFFFFFFFFFFF AND PUSH2 0x2162 PUSH2 0x236B JUMP JUMPDEST PUSH20 0xFFFFFFFFFFFFFFFFFFFFFFFFFFFFFFFFFFFFFFFF AND EQ PUSH2 0x21B8 JUMPI PUSH1 0x40 MLOAD PUSH32 0x8C379A000000000000000000000000000000000000000000000000000000000 DUP2 MSTORE PUSH1 0x4 ADD PUSH2 0x21AF SWAP1 PUSH2 0x3C21 JUMP JUMPDEST PUSH1 0x40 MLOAD DUP1 SWAP2 SUB SWAP1 REVERT JUMPDEST DUP1 ISZERO PUSH2 0x21C7 JUMPI PUSH2 0x21C6 PUSH2 0x2109 JUMP JUMPDEST JUMPDEST PUSH2 0x2213 DUP3 PUSH2 0x2205 PUSH1 0x6 DUP7 DUP2 SLOAD DUP2 LT PUSH2 0x21E2 JUMPI PUSH2 0x21E1 PUSH2 0x3C41 JUMP JUMPDEST JUMPDEST SWAP1 PUSH1 0x0 MSTORE PUSH1 0x20 PUSH1 0x0 KECCAK256 SWAP1 PUSH1 0x4 MUL ADD PUSH1 0x1 ADD SLOAD PUSH1 0x8 SLOAD PUSH2 0x2F7C SWAP1 SWAP2 SWAP1 PUSH4 0xFFFFFFFF AND JUMP JUMPDEST PUSH2 0x2FC6 SWAP1 SWAP2 SWAP1 PUSH4 0xFFFFFFFF AND JUMP JUMPDEST PUSH1 0x8 DUP2 SWAP1 SSTORE POP DUP2 PUSH1 0x6 DUP5 DUP2 SLOAD DUP2 LT PUSH2 0x222E JUMPI PUSH2 0x222D PUSH2 0x3C41 JUMP JUMPDEST JUMPDEST SWAP1 PUSH1 0x0 MSTORE PUSH1 0x20 PUSH1 0x0 KECCAK256 SWAP1 PUSH1 0x4 MUL ADD PUSH1 0x1 ADD DUP2 SWAP1 SSTORE POP POP POP POP JUMP JUMPDEST PUSH2 0x2250 PUSH2 0x2EB0 JUMP JUMPDEST PUSH20 0xFFFFFFFFFFFFFFFFFFFFFFFFFFFFFFFFFFFFFFFF AND PUSH2 0x226E PUSH2 0x236B JUMP JUMPDEST PUSH20 0xFFFFFFFFFFFFFFFFFFFFFFFFFFFFFFFFFFFFFFFF AND EQ PUSH2 0x22C4 JUMPI PUSH1 0x40 MLOAD PUSH32 0x8C379A000000000000000000000000000000000000000000000000000000000 DUP2 MSTORE PUSH1 0x4 ADD PUSH2 0x22BB SWAP1 PUSH2 0x3C21 JUMP JUMPDEST PUSH1 0x40 MLOAD DUP1 SWAP2 SUB SWAP1 REVERT JUMPDEST PUSH2 0x22CE PUSH1 0x0 PUSH2 0x3282 JUMP JUMPDEST JUMP JUMPDEST PUSH1 0x5 PUSH1 0x0 SWAP1 SLOAD SWAP1 PUSH2 0x100 EXP SWAP1 DIV PUSH20 0xFFFFFFFFFFFFFFFFFFFFFFFFFFFFFFFFFFFFFFFF AND DUP2 JUMP JUMPDEST PUSH1 0xA PUSH1 0x0 SWAP1 SLOAD SWAP1 PUSH2 0x100 EXP SWAP1 DIV PUSH20 0xFFFFFFFFFFFFFFFFFFFFFFFFFFFFFFFFFFFFFFFF AND DUP2 JUMP JUMPDEST PUSH1 0x4 SLOAD DUP2 JUMP JUMPDEST PUSH1 0x0 PUSH1 0xC PUSH1 0x0 DUP4 PUSH20 0xFFFFFFFFFFFFFFFFFFFFFFFFFFFFFFFFFFFFFFFF AND PUSH20 0xFFFFFFFFFFFFFFFFFFFFFFFFFFFFFFFFFFFFFFFF AND DUP2 MSTORE PUSH1 0x20 ADD SWAP1 DUP2 MSTORE PUSH1 0x20 ADD PUSH1 0x0 KECCAK256 SLOAD SWAP1 POP SWAP2 SWAP1 POP JUMP JUMPDEST PUSH1 0x0 DUP1 PUSH1 0x0 SWAP1 SLOAD SWAP1 PUSH2 0x100 EXP SWAP1 DIV PUSH20 0xFFFFFFFFFFFFFFFFFFFFFFFFFFFFFFFFFFFFFFFF AND SWAP1 POP SWAP1 JUMP JUMPDEST PUSH1 0x0 PUSH2 0x23BD PUSH1 0x4 SLOAD PUSH2 0x23AF DUP6 DUP6 PUSH2 0x2F7C SWAP1 SWAP2 SWAP1 PUSH4 0xFFFFFFFF AND JUMP JUMPDEST PUSH2 0x2EB8 SWAP1 SWAP2 SWAP1 PUSH4 0xFFFFFFFF AND JUMP JUMPDEST SWAP1 POP SWAP3 SWAP2 POP POP JUMP JUMPDEST PUSH1 0x7 PUSH1 0x20 MSTORE DUP2 PUSH1 0x0 MSTORE PUSH1 0x40 PUSH1 0x0 KECCAK256 PUSH1 0x20 MSTORE DUP1 PUSH1 0x0 MSTORE PUSH1 0x40 PUSH1 0x0 KECCAK256 PUSH1 0x0 SWAP2 POP SWAP2 POP POP DUP1 PUSH1 0x0 ADD SLOAD SWAP1 DUP1 PUSH1 0x1 ADD SLOAD SWAP1 POP DUP3 JUMP JUMPDEST PUSH2 0x23FE PUSH2 0x2EB0 JUMP JUMPDEST PUSH20 0xFFFFFFFFFFFFFFFFFFFFFFFFFFFFFFFFFFFFFFFF AND PUSH2 0x241C PUSH2 0x236B JUMP JUMPDEST PUSH20 0xFFFFFFFFFFFFFFFFFFFFFFFFFFFFFFFFFFFFFFFF AND EQ PUSH2 0x2472 JUMPI PUSH1 0x40 MLOAD PUSH32 0x8C379A000000000000000000000000000000000000000000000000000000000 DUP2 MSTORE PUSH1 0x4 ADD PUSH2 0x2469 SWAP1 PUSH2 0x3C21 JUMP JUMPDEST PUSH1 0x40 MLOAD DUP1 SWAP2 SUB SWAP1 REVERT JUMPDEST DUP1 PUSH1 0x1 DUP4 DUP2 SLOAD DUP2 LT PUSH2 0x2487 JUMPI PUSH2 0x2486 PUSH2 0x3C41 JUMP JUMPDEST JUMPDEST SWAP1 PUSH1 0x0 MSTORE PUSH1 0x20 PUSH1 0x0 KECCAK256 SWAP1 PUSH1 0x2 MUL ADD PUSH1 0x1 ADD DUP2 SWAP1 SSTORE POP POP POP JUMP JUMPDEST PUSH1 0x2 PUSH1 0x0 SWAP1 SLOAD SWAP1 PUSH2 0x100 EXP SWAP1 DIV PUSH20 0xFFFFFFFFFFFFFFFFFFFFFFFFFFFFFFFFFFFFFFFF AND DUP2 JUMP JUMPDEST PUSH1 0x0 DUP3 GT PUSH2 0x2509 JUMPI PUSH1 0x40 MLOAD PUSH32 0x8C379A000000000000000000000000000000000000000000000000000000000 DUP2 MSTORE PUSH1 0x4 ADD PUSH2 0x2500 SWAP1 PUSH2 0x3DD6 JUMP JUMPDEST PUSH1 0x40 MLOAD DUP1 SWAP2 SUB SWAP1 REVERT JUMPDEST PUSH1 0xA PUSH1 0x0 SWAP1 SLOAD SWAP1 PUSH2 0x100 EXP SWAP1 DIV PUSH20 0xFFFFFFFFFFFFFFFFFFFFFFFFFFFFFFFFFFFFFFFF AND PUSH20 0xFFFFFFFFFFFFFFFFFFFFFFFFFFFFFFFFFFFFFFFF AND CALLER PUSH20 0xFFFFFFFFFFFFFFFFFFFFFFFFFFFFFFFFFFFFFFFF AND EQ DUP1 PUSH2 0x25B2 JUMPI POP PUSH1 0xB PUSH1 0x0 SWAP1 SLOAD SWAP1 PUSH2 0x100 EXP SWAP1 DIV PUSH20 0xFFFFFFFFFFFFFFFFFFFFFFFFFFFFFFFFFFFFFFFF AND PUSH20 0xFFFFFFFFFFFFFFFFFFFFFFFFFFFFFFFFFFFFFFFF AND CALLER PUSH20 0xFFFFFFFFFFFFFFFFFFFFFFFFFFFFFFFFFFFFFFFF AND EQ JUMPDEST PUSH2 0x25F1 JUMPI PUSH1 0x40 MLOAD PUSH32 0x8C379A000000000000000000000000000000000000000000000000000000000 DUP2 MSTORE PUSH1 0x4 ADD PUSH2 0x25E8 SWAP1 PUSH2 0x403F JUMP JUMPDEST PUSH1 0x40 MLOAD DUP1 SWAP2 SUB SWAP1 REVERT JUMPDEST PUSH1 0x0 PUSH1 0x6 PUSH1 0x0 DUP2 SLOAD DUP2 LT PUSH2 0x2608 JUMPI PUSH2 0x2607 PUSH2 0x3C41 JUMP JUMPDEST JUMPDEST SWAP1 PUSH1 0x0 MSTORE PUSH1 0x20 PUSH1 0x0 KECCAK256 SWAP1 PUSH1 0x4 MUL ADD SWAP1 POP PUSH1 0x0 PUSH1 0x7 PUSH1 0x0 DUP1 DUP2 MSTORE PUSH1 0x20 ADD SWAP1 DUP2 MSTORE PUSH1 0x20 ADD PUSH1 0x0 KECCAK256 PUSH1 0x0 DUP5 PUSH20 0xFFFFFFFFFFFFFFFFFFFFFFFFFFFFFFFFFFFFFFFF AND PUSH20 0xFFFFFFFFFFFFFFFFFFFFFFFFFFFFFFFFFFFFFFFF AND DUP2 MSTORE PUSH1 0x20 ADD SWAP1 DUP2 MSTORE PUSH1 0x20 ADD PUSH1 0x0 KECCAK256 SWAP1 POP PUSH2 0x2676 PUSH1 0x0 PUSH2 0x1C91 JUMP JUMPDEST PUSH1 0x0 DUP2 PUSH1 0x0 ADD SLOAD GT ISZERO PUSH2 0x2770 JUMPI PUSH1 0x0 PUSH2 0x26CD DUP3 PUSH1 0x1 ADD SLOAD PUSH2 0x26BF PUSH5 0xE8D4A51000 PUSH2 0x26B1 DUP8 PUSH1 0x3 ADD SLOAD DUP8 PUSH1 0x0 ADD SLOAD PUSH2 0x2EB8 SWAP1 SWAP2 SWAP1 PUSH4 0xFFFFFFFF AND JUMP JUMPDEST PUSH2 0x2F32 SWAP1 SWAP2 SWAP1 PUSH4 0xFFFFFFFF AND JUMP JUMPDEST PUSH2 0x2F7C SWAP1 SWAP2 SWAP1 PUSH4 0xFFFFFFFF AND JUMP JUMPDEST SWAP1 POP PUSH1 0x0 DUP2 GT ISZERO PUSH2 0x276E JUMPI PUSH2 0x272A DUP2 PUSH1 0xC PUSH1 0x0 DUP8 PUSH20 0xFFFFFFFFFFFFFFFFFFFFFFFFFFFFFFFFFFFFFFFF AND PUSH20 0xFFFFFFFFFFFFFFFFFFFFFFFFFFFFFFFFFFFFFFFF AND DUP2 MSTORE PUSH1 0x20 ADD SWAP1 DUP2 MSTORE PUSH1 0x20 ADD PUSH1 0x0 KECCAK256 SLOAD PUSH2 0x2FC6 SWAP1 SWAP2 SWAP1 PUSH4 0xFFFFFFFF AND JUMP JUMPDEST PUSH1 0xC PUSH1 0x0 DUP7 PUSH20 0xFFFFFFFFFFFFFFFFFFFFFFFFFFFFFFFFFFFFFFFF AND PUSH20 0xFFFFFFFFFFFFFFFFFFFFFFFFFFFFFFFFFFFFFFFF AND DUP2 MSTORE PUSH1 0x20 ADD SWAP1 DUP2 MSTORE PUSH1 0x20 ADD PUSH1 0x0 KECCAK256 DUP2 SWAP1 SSTORE POP JUMPDEST POP JUMPDEST PUSH1 0x0 DUP5 GT ISZERO PUSH2 0x27EA JUMPI PUSH2 0x27CA CALLER ADDRESS DUP7 DUP6 PUSH1 0x0 ADD PUSH1 0x0 SWAP1 SLOAD SWAP1 PUSH2 0x100 EXP SWAP1 DIV PUSH20 0xFFFFFFFFFFFFFFFFFFFFFFFFFFFFFFFFFFFFFFFF AND PUSH20 0xFFFFFFFFFFFFFFFFFFFFFFFFFFFFFFFFFFFFFFFF AND PUSH2 0x30AA SWAP1 SWAP4 SWAP3 SWAP2 SWAP1 PUSH4 0xFFFFFFFF AND JUMP JUMPDEST PUSH2 0x27E1 DUP5 DUP3 PUSH1 0x0 ADD SLOAD PUSH2 0x2FC6 SWAP1 SWAP2 SWAP1 PUSH4 0xFFFFFFFF AND JUMP JUMPDEST DUP2 PUSH1 0x0 ADD DUP2 SWAP1 SSTORE POP JUMPDEST PUSH2 0x281C PUSH5 0xE8D4A51000 PUSH2 0x280E DUP5 PUSH1 0x3 ADD SLOAD DUP5 PUSH1 0x0 ADD SLOAD PUSH2 0x2EB8 SWAP1 SWAP2 SWAP1 PUSH4 0xFFFFFFFF AND JUMP JUMPDEST PUSH2 0x2F32 SWAP1 SWAP2 SWAP1 PUSH4 0xFFFFFFFF AND JUMP JUMPDEST DUP2 PUSH1 0x1 ADD DUP2 SWAP1 SSTORE POP PUSH1 0x0 DUP4 PUSH20 0xFFFFFFFFFFFFFFFFFFFFFFFFFFFFFFFFFFFFFFFF AND PUSH32 0x90890809C654F11D6E72A28FA60149770A0D11EC6C92319D6CEB2BB0A4EA1A15 DUP7 PUSH1 0x40 MLOAD PUSH2 0x286C SWAP2 SWAP1 PUSH2 0x36A3 JUMP JUMPDEST PUSH1 0x40 MLOAD DUP1 SWAP2 SUB SWAP1 LOG3 POP POP POP POP JUMP JUMPDEST PUSH1 0xC PUSH1 0x20 MSTORE DUP1 PUSH1 0x0 MSTORE PUSH1 0x40 PUSH1 0x0 KECCAK256 PUSH1 0x0 SWAP2 POP SWAP1 POP SLOAD DUP2 JUMP JUMPDEST PUSH1 0x0 DUP3 SUB PUSH2 0x28D5 JUMPI PUSH1 0x40 MLOAD PUSH32 0x8C379A000000000000000000000000000000000000000000000000000000000 DUP2 MSTORE PUSH1 0x4 ADD PUSH2 0x28CC SWAP1 PUSH2 0x40AB JUMP JUMPDEST PUSH1 0x40 MLOAD DUP1 SWAP2 SUB SWAP1 REVERT JUMPDEST PUSH1 0x0 DUP2 GT PUSH2 0x2918 JUMPI PUSH1 0x40 MLOAD PUSH32 0x8C379A000000000000000000000000000000000000000000000000000000000 DUP2 MSTORE PUSH1 0x4 ADD PUSH2 0x290F SWAP1 PUSH2 0x3DD6 JUMP JUMPDEST PUSH1 0x40 MLOAD DUP1 SWAP2 SUB SWAP1 REVERT JUMPDEST PUSH1 0x0 PUSH1 0x6 DUP4 DUP2 SLOAD DUP2 LT PUSH2 0x292E JUMPI PUSH2 0x292D PUSH2 0x3C41 JUMP JUMPDEST JUMPDEST SWAP1 PUSH1 0x0 MSTORE PUSH1 0x20 PUSH1 0x0 KECCAK256 SWAP1 PUSH1 0x4 MUL ADD SWAP1 POP PUSH1 0x0 PUSH1 0x7 PUSH1 0x0 DUP6 DUP2 MSTORE PUSH1 0x20 ADD SWAP1 DUP2 MSTORE PUSH1 0x20 ADD PUSH1 0x0 KECCAK256 PUSH1 0x0 CALLER PUSH20 0xFFFFFFFFFFFFFFFFFFFFFFFFFFFFFFFFFFFFFFFF AND PUSH20 0xFFFFFFFFFFFFFFFFFFFFFFFFFFFFFFFFFFFFFFFF AND DUP2 MSTORE PUSH1 0x20 ADD SWAP1 DUP2 MSTORE PUSH1 0x20 ADD PUSH1 0x0 KECCAK256 SWAP1 POP PUSH2 0x299B DUP5 PUSH2 0x1C91 JUMP JUMPDEST PUSH1 0x0 DUP2 PUSH1 0x0 ADD SLOAD GT ISZERO PUSH2 0x2A95 JUMPI PUSH1 0x0 PUSH2 0x29F2 DUP3 PUSH1 0x1 ADD SLOAD PUSH2 0x29E4 PUSH5 0xE8D4A51000 PUSH2 0x29D6 DUP8 PUSH1 0x3 ADD SLOAD DUP8 PUSH1 0x0 ADD SLOAD PUSH2 0x2EB8 SWAP1 SWAP2 SWAP1 PUSH4 0xFFFFFFFF AND JUMP JUMPDEST PUSH2 0x2F32 SWAP1 SWAP2 SWAP1 PUSH4 0xFFFFFFFF AND JUMP JUMPDEST PUSH2 0x2F7C SWAP1 SWAP2 SWAP1 PUSH4 0xFFFFFFFF AND JUMP JUMPDEST SWAP1 POP PUSH1 0x0 DUP2 GT ISZERO PUSH2 0x2A93 JUMPI PUSH2 0x2A4F DUP2 PUSH1 0xC PUSH1 0x0 CALLER PUSH20 0xFFFFFFFFFFFFFFFFFFFFFFFFFFFFFFFFFFFFFFFF AND PUSH20 0xFFFFFFFFFFFFFFFFFFFFFFFFFFFFFFFFFFFFFFFF AND DUP2 MSTORE PUSH1 0x20 ADD SWAP1 DUP2 MSTORE PUSH1 0x20 ADD PUSH1 0x0 KECCAK256 SLOAD PUSH2 0x2FC6 SWAP1 SWAP2 SWAP1 PUSH4 0xFFFFFFFF AND JUMP JUMPDEST PUSH1 0xC PUSH1 0x0 CALLER PUSH20 0xFFFFFFFFFFFFFFFFFFFFFFFFFFFFFFFFFFFFFFFF AND PUSH20 0xFFFFFFFFFFFFFFFFFFFFFFFFFFFFFFFFFFFFFFFF AND DUP2 MSTORE PUSH1 0x20 ADD SWAP1 DUP2 MSTORE PUSH1 0x20 ADD PUSH1 0x0 KECCAK256 DUP2 SWAP1 SSTORE POP JUMPDEST POP JUMPDEST PUSH2 0x2AE6 CALLER ADDRESS DUP6 DUP6 PUSH1 0x0 ADD PUSH1 0x0 SWAP1 SLOAD SWAP1 PUSH2 0x100 EXP SWAP1 DIV PUSH20 0xFFFFFFFFFFFFFFFFFFFFFFFFFFFFFFFFFFFFFFFF AND PUSH20 0xFFFFFFFFFFFFFFFFFFFFFFFFFFFFFFFFFFFFFFFF AND PUSH2 0x30AA SWAP1 SWAP4 SWAP3 SWAP2 SWAP1 PUSH4 0xFFFFFFFF AND JUMP JUMPDEST PUSH2 0x2AFD DUP4 DUP3 PUSH1 0x0 ADD SLOAD PUSH2 0x2FC6 SWAP1 SWAP2 SWAP1 PUSH4 0xFFFFFFFF AND JUMP JUMPDEST DUP2 PUSH1 0x0 ADD DUP2 SWAP1 SSTORE POP PUSH2 0x2B37 PUSH5 0xE8D4A51000 PUSH2 0x2B29 DUP5 PUSH1 0x3 ADD SLOAD DUP5 PUSH1 0x0 ADD SLOAD PUSH2 0x2EB8 SWAP1 SWAP2 SWAP1 PUSH4 0xFFFFFFFF AND JUMP JUMPDEST PUSH2 0x2F32 SWAP1 SWAP2 SWAP1 PUSH4 0xFFFFFFFF AND JUMP JUMPDEST DUP2 PUSH1 0x1 ADD DUP2 SWAP1 SSTORE POP DUP4 CALLER PUSH20 0xFFFFFFFFFFFFFFFFFFFFFFFFFFFFFFFFFFFFFFFF AND PUSH32 0x90890809C654F11D6E72A28FA60149770A0D11EC6C92319D6CEB2BB0A4EA1A15 DUP6 PUSH1 0x40 MLOAD PUSH2 0x2B86 SWAP2 SWAP1 PUSH2 0x36A3 JUMP JUMPDEST PUSH1 0x40 MLOAD DUP1 SWAP2 SUB SWAP1 LOG3 POP POP POP POP JUMP JUMPDEST PUSH2 0x2B9C PUSH2 0x2EB0 JUMP JUMPDEST PUSH20 0xFFFFFFFFFFFFFFFFFFFFFFFFFFFFFFFFFFFFFFFF AND PUSH2 0x2BBA PUSH2 0x236B JUMP JUMPDEST PUSH20 0xFFFFFFFFFFFFFFFFFFFFFFFFFFFFFFFFFFFFFFFF AND EQ PUSH2 0x2C10 JUMPI PUSH1 0x40 MLOAD PUSH32 0x8C379A000000000000000000000000000000000000000000000000000000000 DUP2 MSTORE PUSH1 0x4 ADD PUSH2 0x2C07 SWAP1 PUSH2 0x3C21 JUMP JUMPDEST PUSH1 0x40 MLOAD DUP1 SWAP2 SUB SWAP1 REVERT JUMPDEST PUSH1 0x0 PUSH20 0xFFFFFFFFFFFFFFFFFFFFFFFFFFFFFFFFFFFFFFFF AND DUP2 PUSH20 0xFFFFFFFFFFFFFFFFFFFFFFFFFFFFFFFFFFFFFFFF AND SUB PUSH2 0x2C7F JUMPI PUSH1 0x40 MLOAD PUSH32 0x8C379A000000000000000000000000000000000000000000000000000000000 DUP2 MSTORE PUSH1 0x4 ADD PUSH2 0x2C76 SWAP1 PUSH2 0x413D JUMP JUMPDEST PUSH1 0x40 MLOAD DUP1 SWAP2 SUB SWAP1 REVERT JUMPDEST PUSH2 0x2C88 DUP2 PUSH2 0x3282 JUMP JUMPDEST POP JUMP JUMPDEST PUSH1 0x0 DUP1 PUSH1 0x6 DUP5 DUP2 SLOAD DUP2 LT PUSH2 0x2CA2 JUMPI PUSH2 0x2CA1 PUSH2 0x3C41 JUMP JUMPDEST JUMPDEST SWAP1 PUSH1 0x0 MSTORE PUSH1 0x20 PUSH1 0x0 KECCAK256 SWAP1 PUSH1 0x4 MUL ADD SWAP1 POP PUSH1 0x0 PUSH1 0x7 PUSH1 0x0 DUP7 DUP2 MSTORE PUSH1 0x20 ADD SWAP1 DUP2 MSTORE PUSH1 0x20 ADD PUSH1 0x0 KECCAK256 PUSH1 0x0 DUP6 PUSH20 0xFFFFFFFFFFFFFFFFFFFFFFFFFFFFFFFFFFFFFFFF AND PUSH20 0xFFFFFFFFFFFFFFFFFFFFFFFFFFFFFFFFFFFFFFFF AND DUP2 MSTORE PUSH1 0x20 ADD SWAP1 DUP2 MSTORE PUSH1 0x20 ADD PUSH1 0x0 KECCAK256 SWAP1 POP PUSH1 0x0 DUP3 PUSH1 0x3 ADD SLOAD SWAP1 POP PUSH1 0x0 DUP4 PUSH1 0x0 ADD PUSH1 0x0 SWAP1 SLOAD SWAP1 PUSH2 0x100 EXP SWAP1 DIV PUSH20 0xFFFFFFFFFFFFFFFFFFFFFFFFFFFFFFFFFFFFFFFF AND PUSH20 0xFFFFFFFFFFFFFFFFFFFFFFFFFFFFFFFFFFFFFFFF AND PUSH4 0x70A08231 ADDRESS PUSH1 0x40 MLOAD DUP3 PUSH4 0xFFFFFFFF AND PUSH1 0xE0 SHL DUP2 MSTORE PUSH1 0x4 ADD PUSH2 0x2D6E SWAP2 SWAP1 PUSH2 0x3963 JUMP JUMPDEST PUSH1 0x20 PUSH1 0x40 MLOAD DUP1 DUP4 SUB DUP2 DUP7 GAS STATICCALL ISZERO DUP1 ISZERO PUSH2 0x2D8B JUMPI RETURNDATASIZE PUSH1 0x0 DUP1 RETURNDATACOPY RETURNDATASIZE PUSH1 0x0 REVERT JUMPDEST POP POP POP POP PUSH1 0x40 MLOAD RETURNDATASIZE PUSH1 0x1F NOT PUSH1 0x1F DUP3 ADD AND DUP3 ADD DUP1 PUSH1 0x40 MSTORE POP DUP2 ADD SWAP1 PUSH2 0x2DAF SWAP2 SWAP1 PUSH2 0x3CF1 JUMP JUMPDEST SWAP1 POP DUP4 PUSH1 0x2 ADD SLOAD NUMBER GT DUP1 ISZERO PUSH2 0x2DC5 JUMPI POP PUSH1 0x0 DUP2 EQ ISZERO JUMPDEST ISZERO PUSH2 0x2E60 JUMPI PUSH1 0x0 PUSH2 0x2DDA DUP6 PUSH1 0x2 ADD SLOAD NUMBER PUSH2 0x2394 JUMP JUMPDEST SWAP1 POP PUSH1 0x0 PUSH2 0x2E1D PUSH1 0x8 SLOAD PUSH2 0x2E0F DUP9 PUSH1 0x1 ADD SLOAD PUSH2 0x2E01 PUSH1 0x3 SLOAD DUP8 PUSH2 0x2EB8 SWAP1 SWAP2 SWAP1 PUSH4 0xFFFFFFFF AND JUMP JUMPDEST PUSH2 0x2EB8 SWAP1 SWAP2 SWAP1 PUSH4 0xFFFFFFFF AND JUMP JUMPDEST PUSH2 0x2F32 SWAP1 SWAP2 SWAP1 PUSH4 0xFFFFFFFF AND JUMP JUMPDEST SWAP1 POP PUSH2 0x2E5B PUSH2 0x2E4C DUP5 PUSH2 0x2E3E PUSH5 0xE8D4A51000 DUP6 PUSH2 0x2EB8 SWAP1 SWAP2 SWAP1 PUSH4 0xFFFFFFFF AND JUMP JUMPDEST PUSH2 0x2F32 SWAP1 SWAP2 SWAP1 PUSH4 0xFFFFFFFF AND JUMP JUMPDEST DUP6 PUSH2 0x2FC6 SWAP1 SWAP2 SWAP1 PUSH4 0xFFFFFFFF AND JUMP JUMPDEST SWAP4 POP POP POP JUMPDEST PUSH2 0x2EA4 DUP4 PUSH1 0x1 ADD SLOAD PUSH2 0x2E96 PUSH5 0xE8D4A51000 PUSH2 0x2E88 DUP7 DUP9 PUSH1 0x0 ADD SLOAD PUSH2 0x2EB8 SWAP1 SWAP2 SWAP1 PUSH4 0xFFFFFFFF AND JUMP JUMPDEST PUSH2 0x2F32 SWAP1 SWAP2 SWAP1 PUSH4 0xFFFFFFFF AND JUMP JUMPDEST PUSH2 0x2F7C SWAP1 SWAP2 SWAP1 PUSH4 0xFFFFFFFF AND JUMP JUMPDEST SWAP5 POP POP POP POP POP SWAP3 SWAP2 POP POP JUMP JUMPDEST PUSH1 0x0 CALLER SWAP1 POP SWAP1 JUMP JUMPDEST PUSH1 0x0 DUP1 DUP4 SUB PUSH2 0x2ECA JUMPI PUSH1 0x0 SWAP1 POP PUSH2 0x2F2C JUMP JUMPDEST PUSH1 0x0 DUP3 DUP5 PUSH2 0x2ED8 SWAP2 SWAP1 PUSH2 0x415D JUMP JUMPDEST SWAP1 POP DUP3 DUP5 DUP3 PUSH2 0x2EE7 SWAP2 SWAP1 PUSH2 0x41E6 JUMP JUMPDEST EQ PUSH2 0x2F27 JUMPI PUSH1 0x40 MLOAD PUSH32 0x8C379A000000000000000000000000000000000000000000000000000000000 DUP2 MSTORE PUSH1 0x4 ADD PUSH2 0x2F1E SWAP1 PUSH2 0x4289 JUMP JUMPDEST PUSH1 0x40 MLOAD DUP1 SWAP2 SUB SWAP1 REVERT JUMPDEST DUP1 SWAP2 POP POP JUMPDEST SWAP3 SWAP2 POP POP JUMP JUMPDEST PUSH1 0x0 PUSH2 0x2F74 DUP4 DUP4 PUSH1 0x40 MLOAD DUP1 PUSH1 0x40 ADD PUSH1 0x40 MSTORE DUP1 PUSH1 0x1A DUP2 MSTORE PUSH1 0x20 ADD PUSH32 0x536166654D6174683A206469766973696F6E206279207A65726F000000000000 DUP2 MSTORE POP PUSH2 0x3346 JUMP JUMPDEST SWAP1 POP SWAP3 SWAP2 POP POP JUMP JUMPDEST PUSH1 0x0 PUSH2 0x2FBE DUP4 DUP4 PUSH1 0x40 MLOAD DUP1 PUSH1 0x40 ADD PUSH1 0x40 MSTORE DUP1 PUSH1 0x1E DUP2 MSTORE PUSH1 0x20 ADD PUSH32 0x536166654D6174683A207375627472616374696F6E206F766572666C6F770000 DUP2 MSTORE POP PUSH2 0x33A9 JUMP JUMPDEST SWAP1 POP SWAP3 SWAP2 POP POP JUMP JUMPDEST PUSH1 0x0 DUP1 DUP3 DUP5 PUSH2 0x2FD5 SWAP2 SWAP1 PUSH2 0x42A9 JUMP JUMPDEST SWAP1 POP DUP4 DUP2 LT ISZERO PUSH2 0x301A JUMPI PUSH1 0x40 MLOAD PUSH32 0x8C379A000000000000000000000000000000000000000000000000000000000 DUP2 MSTORE PUSH1 0x4 ADD PUSH2 0x3011 SWAP1 PUSH2 0x4329 JUMP JUMPDEST PUSH1 0x40 MLOAD DUP1 SWAP2 SUB SWAP1 REVERT JUMPDEST DUP1 SWAP2 POP POP SWAP3 SWAP2 POP POP JUMP JUMPDEST PUSH2 0x30A5 DUP4 PUSH4 0xA9059CBB PUSH1 0xE0 SHL DUP5 DUP5 PUSH1 0x40 MLOAD PUSH1 0x24 ADD PUSH2 0x3043 SWAP3 SWAP2 SWAP1 PUSH2 0x4349 JUMP JUMPDEST PUSH1 0x40 MLOAD PUSH1 0x20 DUP2 DUP4 SUB SUB DUP2 MSTORE SWAP1 PUSH1 0x40 MSTORE SWAP1 PUSH28 0xFFFFFFFFFFFFFFFFFFFFFFFFFFFFFFFFFFFFFFFFFFFFFFFFFFFFFFFF NOT AND PUSH1 0x20 DUP3 ADD DUP1 MLOAD PUSH28 0xFFFFFFFFFFFFFFFFFFFFFFFFFFFFFFFFFFFFFFFFFFFFFFFFFFFFFFFF DUP4 DUP2 DUP4 AND OR DUP4 MSTORE POP POP POP POP PUSH2 0x340D JUMP JUMPDEST POP POP POP JUMP JUMPDEST PUSH2 0x312D DUP5 PUSH4 0x23B872DD PUSH1 0xE0 SHL DUP6 DUP6 DUP6 PUSH1 0x40 MLOAD PUSH1 0x24 ADD PUSH2 0x30CB SWAP4 SWAP3 SWAP2 SWAP1 PUSH2 0x4372 JUMP JUMPDEST PUSH1 0x40 MLOAD PUSH1 0x20 DUP2 DUP4 SUB SUB DUP2 MSTORE SWAP1 PUSH1 0x40 MSTORE SWAP1 PUSH28 0xFFFFFFFFFFFFFFFFFFFFFFFFFFFFFFFFFFFFFFFFFFFFFFFFFFFFFFFF NOT AND PUSH1 0x20 DUP3 ADD DUP1 MLOAD PUSH28 0xFFFFFFFFFFFFFFFFFFFFFFFFFFFFFFFFFFFFFFFFFFFFFFFFFFFFFFFF DUP4 DUP2 DUP4 AND OR DUP4 MSTORE POP POP POP POP PUSH2 0x340D JUMP JUMPDEST POP POP POP POP JUMP JUMPDEST PUSH1 0x0 DUP2 EQ DUP1 PUSH2 0x31BD JUMPI POP PUSH1 0x0 DUP4 PUSH20 0xFFFFFFFFFFFFFFFFFFFFFFFFFFFFFFFFFFFFFFFF AND PUSH4 0xDD62ED3E ADDRESS DUP6 PUSH1 0x40 MLOAD DUP4 PUSH4 0xFFFFFFFF AND PUSH1 0xE0 SHL DUP2 MSTORE PUSH1 0x4 ADD PUSH2 0x317A SWAP3 SWAP2 SWAP1 PUSH2 0x43A9 JUMP JUMPDEST PUSH1 0x20 PUSH1 0x40 MLOAD DUP1 DUP4 SUB DUP2 DUP7 GAS STATICCALL ISZERO DUP1 ISZERO PUSH2 0x3197 JUMPI RETURNDATASIZE PUSH1 0x0 DUP1 RETURNDATACOPY RETURNDATASIZE PUSH1 0x0 REVERT JUMPDEST POP POP POP POP PUSH1 0x40 MLOAD RETURNDATASIZE PUSH1 0x1F NOT PUSH1 0x1F DUP3 ADD AND DUP3 ADD DUP1 PUSH1 0x40 MSTORE POP DUP2 ADD SWAP1 PUSH2 0x31BB SWAP2 SWAP1 PUSH2 0x3CF1 JUMP JUMPDEST EQ JUMPDEST PUSH2 0x31FC JUMPI PUSH1 0x40 MLOAD PUSH32 0x8C379A000000000000000000000000000000000000000000000000000000000 DUP2 MSTORE PUSH1 0x4 ADD PUSH2 0x31F3 SWAP1 PUSH2 0x4444 JUMP JUMPDEST PUSH1 0x40 MLOAD DUP1 SWAP2 SUB SWAP1 REVERT JUMPDEST PUSH2 0x327D DUP4 PUSH4 0x95EA7B3 PUSH1 0xE0 SHL DUP5 DUP5 PUSH1 0x40 MLOAD PUSH1 0x24 ADD PUSH2 0x321B SWAP3 SWAP2 SWAP1 PUSH2 0x4349 JUMP JUMPDEST PUSH1 0x40 MLOAD PUSH1 0x20 DUP2 DUP4 SUB SUB DUP2 MSTORE SWAP1 PUSH1 0x40 MSTORE SWAP1 PUSH28 0xFFFFFFFFFFFFFFFFFFFFFFFFFFFFFFFFFFFFFFFFFFFFFFFFFFFFFFFF NOT AND PUSH1 0x20 DUP3 ADD DUP1 MLOAD PUSH28 0xFFFFFFFFFFFFFFFFFFFFFFFFFFFFFFFFFFFFFFFFFFFFFFFFFFFFFFFF DUP4 DUP2 DUP4 AND OR DUP4 MSTORE POP POP POP POP PUSH2 0x340D JUMP JUMPDEST POP POP POP JUMP JUMPDEST PUSH1 0x0 DUP1 PUSH1 0x0 SWAP1 SLOAD SWAP1 PUSH2 0x100 EXP SWAP1 DIV PUSH20 0xFFFFFFFFFFFFFFFFFFFFFFFFFFFFFFFFFFFFFFFF AND SWAP1 POP DUP2 PUSH1 0x0 DUP1 PUSH2 0x100 EXP DUP2 SLOAD DUP2 PUSH20 0xFFFFFFFFFFFFFFFFFFFFFFFFFFFFFFFFFFFFFFFF MUL NOT AND SWAP1 DUP4 PUSH20 0xFFFFFFFFFFFFFFFFFFFFFFFFFFFFFFFFFFFFFFFF AND MUL OR SWAP1 SSTORE POP DUP2 PUSH20 0xFFFFFFFFFFFFFFFFFFFFFFFFFFFFFFFFFFFFFFFF AND DUP2 PUSH20 0xFFFFFFFFFFFFFFFFFFFFFFFFFFFFFFFFFFFFFFFF AND PUSH32 0x8BE0079C531659141344CD1FD0A4F28419497F9722A3DAAFE3B4186F6B6457E0 PUSH1 0x40 MLOAD PUSH1 0x40 MLOAD DUP1 SWAP2 SUB SWAP1 LOG3 POP POP JUMP JUMPDEST PUSH1 0x0 DUP1 DUP4 GT DUP3 SWAP1 PUSH2 0x338D JUMPI PUSH1 0x40 MLOAD PUSH32 0x8C379A000000000000000000000000000000000000000000000000000000000 DUP2 MSTORE PUSH1 0x4 ADD PUSH2 0x3384 SWAP2 SWAP1 PUSH2 0x44E3 JUMP JUMPDEST PUSH1 0x40 MLOAD DUP1 SWAP2 SUB SWAP1 REVERT JUMPDEST POP PUSH1 0x0 DUP4 DUP6 PUSH2 0x339C SWAP2 SWAP1 PUSH2 0x41E6 JUMP JUMPDEST SWAP1 POP DUP1 SWAP2 POP POP SWAP4 SWAP3 POP POP POP JUMP JUMPDEST PUSH1 0x0 DUP4 DUP4 GT ISZERO DUP3 SWAP1 PUSH2 0x33F1 JUMPI PUSH1 0x40 MLOAD PUSH32 0x8C379A000000000000000000000000000000000000000000000000000000000 DUP2 MSTORE PUSH1 0x4 ADD PUSH2 0x33E8 SWAP2 SWAP1 PUSH2 0x44E3 JUMP JUMPDEST PUSH1 0x40 MLOAD DUP1 SWAP2 SUB SWAP1 REVERT JUMPDEST POP PUSH1 0x0 DUP4 DUP6 PUSH2 0x3400 SWAP2 SWAP1 PUSH2 0x4505 JUMP JUMPDEST SWAP1 POP DUP1 SWAP2 POP POP SWAP4 SWAP3 POP POP POP JUMP JUMPDEST PUSH1 0x0 PUSH2 0x346F DUP3 PUSH1 0x40 MLOAD DUP1 PUSH1 0x40 ADD PUSH1 0x40 MSTORE DUP1 PUSH1 0x20 DUP2 MSTORE PUSH1 0x20 ADD PUSH32 0x5361666545524332303A206C6F772D6C6576656C2063616C6C206661696C6564 DUP2 MSTORE POP DUP6 PUSH20 0xFFFFFFFFFFFFFFFFFFFFFFFFFFFFFFFFFFFFFFFF AND PUSH2 0x34D4 SWAP1 SWAP3 SWAP2 SWAP1 PUSH4 0xFFFFFFFF AND JUMP JUMPDEST SWAP1 POP PUSH1 0x0 DUP2 MLOAD GT ISZERO PUSH2 0x34CF JUMPI DUP1 DUP1 PUSH1 0x20 ADD SWAP1 MLOAD DUP2 ADD SWAP1 PUSH2 0x348F SWAP2 SWAP1 PUSH2 0x454E JUMP JUMPDEST PUSH2 0x34CE JUMPI PUSH1 0x40 MLOAD PUSH32 0x8C379A000000000000000000000000000000000000000000000000000000000 DUP2 MSTORE PUSH1 0x4 ADD PUSH2 0x34C5 SWAP1 PUSH2 0x45ED JUMP JUMPDEST PUSH1 0x40 MLOAD DUP1 SWAP2 SUB SWAP1 REVERT JUMPDEST JUMPDEST POP POP POP JUMP JUMPDEST PUSH1 0x60 PUSH2 0x34E3 DUP5 DUP5 PUSH1 0x0 DUP6 PUSH2 0x34EC JUMP JUMPDEST SWAP1 POP SWAP4 SWAP3 POP POP POP JUMP JUMPDEST PUSH1 0x60 DUP3 SELFBALANCE LT ISZERO PUSH2 0x3531 JUMPI PUSH1 0x40 MLOAD PUSH32 0x8C379A000000000000000000000000000000000000000000000000000000000 DUP2 MSTORE PUSH1 0x4 ADD PUSH2 0x3528 SWAP1 PUSH2 0x467F JUMP JUMPDEST PUSH1 0x40 MLOAD DUP1 SWAP2 SUB SWAP1 REVERT JUMPDEST PUSH2 0x353A DUP6 PUSH2 0x3600 JUMP JUMPDEST PUSH2 0x3579 JUMPI PUSH1 0x40 MLOAD PUSH32 0x8C379A000000000000000000000000000000000000000000000000000000000 DUP2 MSTORE PUSH1 0x4 ADD PUSH2 0x3570 SWAP1 PUSH2 0x46EB JUMP JUMPDEST PUSH1 0x40 MLOAD DUP1 SWAP2 SUB SWAP1 REVERT JUMPDEST PUSH1 0x0 DUP1 DUP7 PUSH20 0xFFFFFFFFFFFFFFFFFFFFFFFFFFFFFFFFFFFFFFFF AND DUP6 DUP8 PUSH1 0x40 MLOAD PUSH2 0x35A2 SWAP2 SWAP1 PUSH2 0x4752 JUMP JUMPDEST PUSH1 0x0 PUSH1 0x40 MLOAD DUP1 DUP4 SUB DUP2 DUP6 DUP8 GAS CALL SWAP3 POP POP POP RETURNDATASIZE DUP1 PUSH1 0x0 DUP2 EQ PUSH2 0x35DF JUMPI PUSH1 0x40 MLOAD SWAP2 POP PUSH1 0x1F NOT PUSH1 0x3F RETURNDATASIZE ADD AND DUP3 ADD PUSH1 0x40 MSTORE RETURNDATASIZE DUP3 MSTORE RETURNDATASIZE PUSH1 0x0 PUSH1 0x20 DUP5 ADD RETURNDATACOPY PUSH2 0x35E4 JUMP JUMPDEST PUSH1 0x60 SWAP2 POP JUMPDEST POP SWAP2 POP SWAP2 POP PUSH2 0x35F4 DUP3 DUP3 DUP7 PUSH2 0x3623 JUMP JUMPDEST SWAP3 POP POP POP SWAP5 SWAP4 POP POP POP POP JUMP JUMPDEST PUSH1 0x0 DUP1 DUP3 PUSH20 0xFFFFFFFFFFFFFFFFFFFFFFFFFFFFFFFFFFFFFFFF AND EXTCODESIZE GT SWAP1 POP SWAP2 SWAP1 POP JUMP JUMPDEST PUSH1 0x60 DUP4 ISZERO PUSH2 0x3633 JUMPI DUP3 SWAP1 POP PUSH2 0x3683 JUMP JUMPDEST PUSH1 0x0 DUP4 MLOAD GT ISZERO PUSH2 0x3646 JUMPI DUP3 MLOAD DUP1 DUP5 PUSH1 0x20 ADD REVERT JUMPDEST DUP2 PUSH1 0x40 MLOAD PUSH32 0x8C379A000000000000000000000000000000000000000000000000000000000 DUP2 MSTORE PUSH1 0x4 ADD PUSH2 0x367A SWAP2 SWAP1 PUSH2 0x44E3 JUMP JUMPDEST PUSH1 0x40 MLOAD DUP1 SWAP2 SUB SWAP1 REVERT JUMPDEST SWAP4 SWAP3 POP POP POP JUMP JUMPDEST PUSH1 0x0 DUP2 SWAP1 POP SWAP2 SWAP1 POP JUMP JUMPDEST PUSH2 0x369D DUP2 PUSH2 0x368A JUMP JUMPDEST DUP3 MSTORE POP POP JUMP JUMPDEST PUSH1 0x0 PUSH1 0x20 DUP3 ADD SWAP1 POP PUSH2 0x36B8 PUSH1 0x0 DUP4 ADD DUP5 PUSH2 0x3694 JUMP JUMPDEST SWAP3 SWAP2 POP POP JUMP JUMPDEST PUSH1 0x0 DUP1 REVERT JUMPDEST PUSH1 0x0 PUSH20 0xFFFFFFFFFFFFFFFFFFFFFFFFFFFFFFFFFFFFFFFF DUP3 AND SWAP1 POP SWAP2 SWAP1 POP JUMP JUMPDEST PUSH1 0x0 PUSH2 0x36EE DUP3 PUSH2 0x36C3 JUMP JUMPDEST SWAP1 POP SWAP2 SWAP1 POP JUMP JUMPDEST PUSH2 0x36FE DUP2 PUSH2 0x36E3 JUMP JUMPDEST DUP2 EQ PUSH2 0x3709 JUMPI PUSH1 0x0 DUP1 REVERT JUMPDEST POP JUMP JUMPDEST PUSH1 0x0 DUP2 CALLDATALOAD SWAP1 POP PUSH2 0x371B DUP2 PUSH2 0x36F5 JUMP JUMPDEST SWAP3 SWAP2 POP POP JUMP JUMPDEST PUSH1 0x0 PUSH1 0x20 DUP3 DUP5 SUB SLT ISZERO PUSH2 0x3737 JUMPI PUSH2 0x3736 PUSH2 0x36BE JUMP JUMPDEST JUMPDEST PUSH1 0x0 PUSH2 0x3745 DUP5 DUP3 DUP6 ADD PUSH2 0x370C JUMP JUMPDEST SWAP2 POP POP SWAP3 SWAP2 POP POP JUMP JUMPDEST PUSH2 0x3757 DUP2 PUSH2 0x368A JUMP JUMPDEST DUP2 EQ PUSH2 0x3762 JUMPI PUSH1 0x0 DUP1 REVERT JUMPDEST POP JUMP JUMPDEST PUSH1 0x0 DUP2 CALLDATALOAD SWAP1 POP PUSH2 0x3774 DUP2 PUSH2 0x374E JUMP JUMPDEST SWAP3 SWAP2 POP POP JUMP JUMPDEST PUSH1 0x0 PUSH1 0x20 DUP3 DUP5 SUB SLT ISZERO PUSH2 0x3790 JUMPI PUSH2 0x378F PUSH2 0x36BE JUMP JUMPDEST JUMPDEST PUSH1 0x0 PUSH2 0x379E DUP5 DUP3 DUP6 ADD PUSH2 0x3765 JUMP JUMPDEST SWAP2 POP POP SWAP3 SWAP2 POP POP JUMP JUMPDEST PUSH1 0x0 DUP2 SWAP1 POP SWAP2 SWAP1 POP JUMP JUMPDEST PUSH1 0x0 PUSH2 0x37CC PUSH2 0x37C7 PUSH2 0x37C2 DUP5 PUSH2 0x36C3 JUMP JUMPDEST PUSH2 0x37A7 JUMP JUMPDEST PUSH2 0x36C3 JUMP JUMPDEST SWAP1 POP SWAP2 SWAP1 POP JUMP JUMPDEST PUSH1 0x0 PUSH2 0x37DE DUP3 PUSH2 0x37B1 JUMP JUMPDEST SWAP1 POP SWAP2 SWAP1 POP JUMP JUMPDEST PUSH1 0x0 PUSH2 0x37F0 DUP3 PUSH2 0x37D3 JUMP JUMPDEST SWAP1 POP SWAP2 SWAP1 POP JUMP JUMPDEST PUSH2 0x3800 DUP2 PUSH2 0x37E5 JUMP JUMPDEST DUP3 MSTORE POP POP JUMP JUMPDEST PUSH1 0x0 PUSH1 0x80 DUP3 ADD SWAP1 POP PUSH2 0x381B PUSH1 0x0 DUP4 ADD DUP8 PUSH2 0x37F7 JUMP JUMPDEST PUSH2 0x3828 PUSH1 0x20 DUP4 ADD DUP7 PUSH2 0x3694 JUMP JUMPDEST PUSH2 0x3835 PUSH1 0x40 DUP4 ADD DUP6 PUSH2 0x3694 JUMP JUMPDEST PUSH2 0x3842 PUSH1 0x60 DUP4 ADD DUP5 PUSH2 0x3694 JUMP JUMPDEST SWAP6 SWAP5 POP POP POP POP POP JUMP JUMPDEST PUSH1 0x0 DUP1 PUSH1 0x40 DUP4 DUP6 SUB SLT ISZERO PUSH2 0x3862 JUMPI PUSH2 0x3861 PUSH2 0x36BE JUMP JUMPDEST JUMPDEST PUSH1 0x0 PUSH2 0x3870 DUP6 DUP3 DUP7 ADD PUSH2 0x3765 JUMP JUMPDEST SWAP3 POP POP PUSH1 0x20 PUSH2 0x3881 DUP6 DUP3 DUP7 ADD PUSH2 0x3765 JUMP JUMPDEST SWAP2 POP POP SWAP3 POP SWAP3 SWAP1 POP JUMP JUMPDEST PUSH1 0x0 PUSH2 0x3896 DUP3 PUSH2 0x36E3 JUMP JUMPDEST SWAP1 POP SWAP2 SWAP1 POP JUMP JUMPDEST PUSH2 0x38A6 DUP2 PUSH2 0x388B JUMP JUMPDEST DUP2 EQ PUSH2 0x38B1 JUMPI PUSH1 0x0 DUP1 REVERT JUMPDEST POP JUMP JUMPDEST PUSH1 0x0 DUP2 CALLDATALOAD SWAP1 POP PUSH2 0x38C3 DUP2 PUSH2 0x389D JUMP JUMPDEST SWAP3 SWAP2 POP POP JUMP JUMPDEST PUSH1 0x0 DUP2 ISZERO ISZERO SWAP1 POP SWAP2 SWAP1 POP JUMP JUMPDEST PUSH2 0x38DE DUP2 PUSH2 0x38C9 JUMP JUMPDEST DUP2 EQ PUSH2 0x38E9 JUMPI PUSH1 0x0 DUP1 REVERT JUMPDEST POP JUMP JUMPDEST PUSH1 0x0 DUP2 CALLDATALOAD SWAP1 POP PUSH2 0x38FB DUP2 PUSH2 0x38D5 JUMP JUMPDEST SWAP3 SWAP2 POP POP JUMP JUMPDEST PUSH1 0x0 DUP1 PUSH1 0x0 PUSH1 0x60 DUP5 DUP7 SUB SLT ISZERO PUSH2 0x391A JUMPI PUSH2 0x3919 PUSH2 0x36BE JUMP JUMPDEST JUMPDEST PUSH1 0x0 PUSH2 0x3928 DUP7 DUP3 DUP8 ADD PUSH2 0x3765 JUMP JUMPDEST SWAP4 POP POP PUSH1 0x20 PUSH2 0x3939 DUP7 DUP3 DUP8 ADD PUSH2 0x38B4 JUMP JUMPDEST SWAP3 POP POP PUSH1 0x40 PUSH2 0x394A DUP7 DUP3 DUP8 ADD PUSH2 0x38EC JUMP JUMPDEST SWAP2 POP POP SWAP3 POP SWAP3 POP SWAP3 JUMP JUMPDEST PUSH2 0x395D DUP2 PUSH2 0x36E3 JUMP JUMPDEST DUP3 MSTORE POP POP JUMP JUMPDEST PUSH1 0x0 PUSH1 0x20 DUP3 ADD SWAP1 POP PUSH2 0x3978 PUSH1 0x0 DUP4 ADD DUP5 PUSH2 0x3954 JUMP JUMPDEST SWAP3 SWAP2 POP POP JUMP JUMPDEST PUSH1 0x0 PUSH2 0x3989 DUP3 PUSH2 0x36E3 JUMP JUMPDEST SWAP1 POP SWAP2 SWAP1 POP JUMP JUMPDEST PUSH2 0x3999 DUP2 PUSH2 0x397E JUMP JUMPDEST DUP2 EQ PUSH2 0x39A4 JUMPI PUSH1 0x0 DUP1 REVERT JUMPDEST POP JUMP JUMPDEST PUSH1 0x0 DUP2 CALLDATALOAD SWAP1 POP PUSH2 0x39B6 DUP2 PUSH2 0x3990 JUMP JUMPDEST SWAP3 SWAP2 POP POP JUMP JUMPDEST PUSH1 0x0 PUSH1 0x20 DUP3 DUP5 SUB SLT ISZERO PUSH2 0x39D2 JUMPI PUSH2 0x39D1 PUSH2 0x36BE JUMP JUMPDEST JUMPDEST PUSH1 0x0 PUSH2 0x39E0 DUP5 DUP3 DUP6 ADD PUSH2 0x39A7 JUMP JUMPDEST SWAP2 POP POP SWAP3 SWAP2 POP POP JUMP JUMPDEST PUSH1 0x0 PUSH2 0x39F4 DUP3 PUSH2 0x36E3 JUMP JUMPDEST SWAP1 POP SWAP2 SWAP1 POP JUMP JUMPDEST PUSH2 0x3A04 DUP2 PUSH2 0x39E9 JUMP JUMPDEST DUP2 EQ PUSH2 0x3A0F JUMPI PUSH1 0x0 DUP1 REVERT JUMPDEST POP JUMP JUMPDEST PUSH1 0x0 DUP2 CALLDATALOAD SWAP1 POP PUSH2 0x3A21 DUP2 PUSH2 0x39FB JUMP JUMPDEST SWAP3 SWAP2 POP POP JUMP JUMPDEST PUSH1 0x0 DUP1 PUSH1 0x40 DUP4 DUP6 SUB SLT ISZERO PUSH2 0x3A3E JUMPI PUSH2 0x3A3D PUSH2 0x36BE JUMP JUMPDEST JUMPDEST PUSH1 0x0 PUSH2 0x3A4C DUP6 DUP3 DUP7 ADD PUSH2 0x3A12 JUMP JUMPDEST SWAP3 POP POP PUSH1 0x20 PUSH2 0x3A5D DUP6 DUP3 DUP7 ADD PUSH2 0x3765 JUMP JUMPDEST SWAP2 POP POP SWAP3 POP SWAP3 SWAP1 POP JUMP JUMPDEST PUSH1 0x0 PUSH2 0x3A72 DUP3 PUSH2 0x37D3 JUMP JUMPDEST SWAP1 POP SWAP2 SWAP1 POP JUMP JUMPDEST PUSH2 0x3A82 DUP2 PUSH2 0x3A67 JUMP JUMPDEST DUP3 MSTORE POP POP JUMP JUMPDEST PUSH1 0x0 PUSH1 0x40 DUP3 ADD SWAP1 POP PUSH2 0x3A9D PUSH1 0x0 DUP4 ADD DUP6 PUSH2 0x3A79 JUMP JUMPDEST PUSH2 0x3AAA PUSH1 0x20 DUP4 ADD DUP5 PUSH2 0x3694 JUMP JUMPDEST SWAP4 SWAP3 POP POP POP JUMP JUMPDEST PUSH1 0x0 DUP1 PUSH1 0x0 PUSH1 0x60 DUP5 DUP7 SUB SLT ISZERO PUSH2 0x3ACA JUMPI PUSH2 0x3AC9 PUSH2 0x36BE JUMP JUMPDEST JUMPDEST PUSH1 0x0 PUSH2 0x3AD8 DUP7 DUP3 DUP8 ADD PUSH2 0x3765 JUMP JUMPDEST SWAP4 POP POP PUSH1 0x20 PUSH2 0x3AE9 DUP7 DUP3 DUP8 ADD PUSH2 0x3765 JUMP JUMPDEST SWAP3 POP POP PUSH1 0x40 PUSH2 0x3AFA DUP7 DUP3 DUP8 ADD PUSH2 0x38EC JUMP JUMPDEST SWAP2 POP POP SWAP3 POP SWAP3 POP SWAP3 JUMP JUMPDEST PUSH1 0x0 PUSH2 0x3B0F DUP3 PUSH2 0x37D3 JUMP JUMPDEST SWAP1 POP SWAP2 SWAP1 POP JUMP JUMPDEST PUSH2 0x3B1F DUP2 PUSH2 0x3B04 JUMP JUMPDEST DUP3 MSTORE POP POP JUMP JUMPDEST PUSH1 0x0 PUSH1 0x20 DUP3 ADD SWAP1 POP PUSH2 0x3B3A PUSH1 0x0 DUP4 ADD DUP5 PUSH2 0x3B16 JUMP JUMPDEST SWAP3 SWAP2 POP POP JUMP JUMPDEST PUSH1 0x0 DUP1 PUSH1 0x40 DUP4 DUP6 SUB SLT ISZERO PUSH2 0x3B57 JUMPI PUSH2 0x3B56 PUSH2 0x36BE JUMP JUMPDEST JUMPDEST PUSH1 0x0 PUSH2 0x3B65 DUP6 DUP3 DUP7 ADD PUSH2 0x3765 JUMP JUMPDEST SWAP3 POP POP PUSH1 0x20 PUSH2 0x3B76 DUP6 DUP3 DUP7 ADD PUSH2 0x370C JUMP JUMPDEST SWAP2 POP POP SWAP3 POP SWAP3 SWAP1 POP JUMP JUMPDEST PUSH1 0x0 PUSH1 0x40 DUP3 ADD SWAP1 POP PUSH2 0x3B95 PUSH1 0x0 DUP4 ADD DUP6 PUSH2 0x3694 JUMP JUMPDEST PUSH2 0x3BA2 PUSH1 0x20 DUP4 ADD DUP5 PUSH2 0x3694 JUMP JUMPDEST SWAP4 SWAP3 POP POP POP JUMP JUMPDEST PUSH1 0x0 PUSH1 0x20 DUP3 ADD SWAP1 POP PUSH2 0x3BBE PUSH1 0x0 DUP4 ADD DUP5 PUSH2 0x37F7 JUMP JUMPDEST SWAP3 SWAP2 POP POP JUMP JUMPDEST PUSH1 0x0 DUP3 DUP3 MSTORE PUSH1 0x20 DUP3 ADD SWAP1 POP SWAP3 SWAP2 POP POP JUMP JUMPDEST PUSH32 0x4F776E61626C653A2063616C6C6572206973206E6F7420746865206F776E6572 PUSH1 0x0 DUP3 ADD MSTORE POP JUMP JUMPDEST PUSH1 0x0 PUSH2 0x3C0B PUSH1 0x20 DUP4 PUSH2 0x3BC4 JUMP JUMPDEST SWAP2 POP PUSH2 0x3C16 DUP3 PUSH2 0x3BD5 JUMP JUMPDEST PUSH1 0x20 DUP3 ADD SWAP1 POP SWAP2 SWAP1 POP JUMP JUMPDEST PUSH1 0x0 PUSH1 0x20 DUP3 ADD SWAP1 POP DUP2 DUP2 SUB PUSH1 0x0 DUP4 ADD MSTORE PUSH2 0x3C3A DUP2 PUSH2 0x3BFE JUMP JUMPDEST SWAP1 POP SWAP2 SWAP1 POP JUMP JUMPDEST PUSH32 0x4E487B7100000000000000000000000000000000000000000000000000000000 PUSH1 0x0 MSTORE PUSH1 0x32 PUSH1 0x4 MSTORE PUSH1 0x24 PUSH1 0x0 REVERT JUMPDEST PUSH32 0x77697468647261773A206E6F7420676F6F640000000000000000000000000000 PUSH1 0x0 DUP3 ADD MSTORE POP JUMP JUMPDEST PUSH1 0x0 PUSH2 0x3CA6 PUSH1 0x12 DUP4 PUSH2 0x3BC4 JUMP JUMPDEST SWAP2 POP PUSH2 0x3CB1 DUP3 PUSH2 0x3C70 JUMP JUMPDEST PUSH1 0x20 DUP3 ADD SWAP1 POP SWAP2 SWAP1 POP JUMP JUMPDEST PUSH1 0x0 PUSH1 0x20 DUP3 ADD SWAP1 POP DUP2 DUP2 SUB PUSH1 0x0 DUP4 ADD MSTORE PUSH2 0x3CD5 DUP2 PUSH2 0x3C99 JUMP JUMPDEST SWAP1 POP SWAP2 SWAP1 POP JUMP JUMPDEST PUSH1 0x0 DUP2 MLOAD SWAP1 POP PUSH2 0x3CEB DUP2 PUSH2 0x374E JUMP JUMPDEST SWAP3 SWAP2 POP POP JUMP JUMPDEST PUSH1 0x0 PUSH1 0x20 DUP3 DUP5 SUB SLT ISZERO PUSH2 0x3D07 JUMPI PUSH2 0x3D06 PUSH2 0x36BE JUMP JUMPDEST JUMPDEST PUSH1 0x0 PUSH2 0x3D15 DUP5 DUP3 DUP6 ADD PUSH2 0x3CDC JUMP JUMPDEST SWAP2 POP POP SWAP3 SWAP2 POP POP JUMP JUMPDEST PUSH32 0x506F776572206973206E6F7420656E6F75676800000000000000000000000000 PUSH1 0x0 DUP3 ADD MSTORE POP JUMP JUMPDEST PUSH1 0x0 PUSH2 0x3D54 PUSH1 0x13 DUP4 PUSH2 0x3BC4 JUMP JUMPDEST SWAP2 POP PUSH2 0x3D5F DUP3 PUSH2 0x3D1E JUMP JUMPDEST PUSH1 0x20 DUP3 ADD SWAP1 POP SWAP2 SWAP1 POP JUMP JUMPDEST PUSH1 0x0 PUSH1 0x20 DUP3 ADD SWAP1 POP DUP2 DUP2 SUB PUSH1 0x0 DUP4 ADD MSTORE PUSH2 0x3D83 DUP2 PUSH2 0x3D47 JUMP JUMPDEST SWAP1 POP SWAP2 SWAP1 POP JUMP JUMPDEST PUSH32 0x416D6F756E74206973207A65726F000000000000000000000000000000000000 PUSH1 0x0 DUP3 ADD MSTORE POP JUMP JUMPDEST PUSH1 0x0 PUSH2 0x3DC0 PUSH1 0xE DUP4 PUSH2 0x3BC4 JUMP JUMPDEST SWAP2 POP PUSH2 0x3DCB DUP3 PUSH2 0x3D8A JUMP JUMPDEST PUSH1 0x20 DUP3 ADD SWAP1 POP SWAP2 SWAP1 POP JUMP JUMPDEST PUSH1 0x0 PUSH1 0x20 DUP3 ADD SWAP1 POP DUP2 DUP2 SUB PUSH1 0x0 DUP4 ADD MSTORE PUSH2 0x3DEF DUP2 PUSH2 0x3DB3 JUMP JUMPDEST SWAP1 POP SWAP2 SWAP1 POP JUMP JUMPDEST PUSH32 0x776974686472617720506F77657220627920756E7374616B696E670000000000 PUSH1 0x0 DUP3 ADD MSTORE POP JUMP JUMPDEST PUSH1 0x0 PUSH2 0x3E2C PUSH1 0x1B DUP4 PUSH2 0x3BC4 JUMP JUMPDEST SWAP2 POP PUSH2 0x3E37 DUP3 PUSH2 0x3DF6 JUMP JUMPDEST PUSH1 0x20 DUP3 ADD SWAP1 POP SWAP2 SWAP1 POP JUMP JUMPDEST PUSH1 0x0 PUSH1 0x20 DUP3 ADD SWAP1 POP DUP2 DUP2 SUB PUSH1 0x0 DUP4 ADD MSTORE PUSH2 0x3E5B DUP2 PUSH2 0x3E1F JUMP JUMPDEST SWAP1 POP SWAP2 SWAP1 POP JUMP JUMPDEST PUSH32 0x6D6967726174653A206E6F206D69677261746F72000000000000000000000000 PUSH1 0x0 DUP3 ADD MSTORE POP JUMP JUMPDEST PUSH1 0x0 PUSH2 0x3E98 PUSH1 0x14 DUP4 PUSH2 0x3BC4 JUMP JUMPDEST SWAP2 POP PUSH2 0x3EA3 DUP3 PUSH2 0x3E62 JUMP JUMPDEST PUSH1 0x20 DUP3 ADD SWAP1 POP SWAP2 SWAP1 POP JUMP JUMPDEST PUSH1 0x0 PUSH1 0x20 DUP3 ADD SWAP1 POP DUP2 DUP2 SUB PUSH1 0x0 DUP4 ADD MSTORE PUSH2 0x3EC7 DUP2 PUSH2 0x3E8B JUMP JUMPDEST SWAP1 POP SWAP2 SWAP1 POP JUMP JUMPDEST PUSH1 0x0 DUP2 MLOAD SWAP1 POP PUSH2 0x3EDD DUP2 PUSH2 0x389D JUMP JUMPDEST SWAP3 SWAP2 POP POP JUMP JUMPDEST PUSH1 0x0 PUSH1 0x20 DUP3 DUP5 SUB SLT ISZERO PUSH2 0x3EF9 JUMPI PUSH2 0x3EF8 PUSH2 0x36BE JUMP JUMPDEST JUMPDEST PUSH1 0x0 PUSH2 0x3F07 DUP5 DUP3 DUP6 ADD PUSH2 0x3ECE JUMP JUMPDEST SWAP2 POP POP SWAP3 SWAP2 POP POP JUMP JUMPDEST PUSH32 0x6D6967726174653A206261640000000000000000000000000000000000000000 PUSH1 0x0 DUP3 ADD MSTORE POP JUMP JUMPDEST PUSH1 0x0 PUSH2 0x3F46 PUSH1 0xC DUP4 PUSH2 0x3BC4 JUMP JUMPDEST SWAP2 POP PUSH2 0x3F51 DUP3 PUSH2 0x3F10 JUMP JUMPDEST PUSH1 0x20 DUP3 ADD SWAP1 POP SWAP2 SWAP1 POP JUMP JUMPDEST PUSH1 0x0 PUSH1 0x20 DUP3 ADD SWAP1 POP DUP2 DUP2 SUB PUSH1 0x0 DUP4 ADD MSTORE PUSH2 0x3F75 DUP2 PUSH2 0x3F39 JUMP JUMPDEST SWAP1 POP SWAP2 SWAP1 POP JUMP JUMPDEST PUSH32 0x4E487B7100000000000000000000000000000000000000000000000000000000 PUSH1 0x0 MSTORE PUSH1 0x11 PUSH1 0x4 MSTORE PUSH1 0x24 PUSH1 0x0 REVERT JUMPDEST PUSH1 0x0 PUSH2 0x3FB6 DUP3 PUSH2 0x368A JUMP JUMPDEST SWAP2 POP PUSH32 0xFFFFFFFFFFFFFFFFFFFFFFFFFFFFFFFFFFFFFFFFFFFFFFFFFFFFFFFFFFFFFFFF DUP3 SUB PUSH2 0x3FE8 JUMPI PUSH2 0x3FE7 PUSH2 0x3F7C JUMP JUMPDEST JUMPDEST PUSH1 0x1 DUP3 ADD SWAP1 POP SWAP2 SWAP1 POP JUMP JUMPDEST PUSH32 0x43616C6C6572206973206E6F742066616D696C79000000000000000000000000 PUSH1 0x0 DUP3 ADD MSTORE POP JUMP JUMPDEST PUSH1 0x0 PUSH2 0x4029 PUSH1 0x14 DUP4 PUSH2 0x3BC4 JUMP JUMPDEST SWAP2 POP PUSH2 0x4034 DUP3 PUSH2 0x3FF3 JUMP JUMPDEST PUSH1 0x20 DUP3 ADD SWAP1 POP SWAP2 SWAP1 POP JUMP JUMPDEST PUSH1 0x0 PUSH1 0x20 DUP3 ADD SWAP1 POP DUP2 DUP2 SUB PUSH1 0x0 DUP4 ADD MSTORE PUSH2 0x4058 DUP2 PUSH2 0x401C JUMP JUMPDEST SWAP1 POP SWAP2 SWAP1 POP JUMP JUMPDEST PUSH32 0x6465706F73697420506F776572206279207374616B696E670000000000000000 PUSH1 0x0 DUP3 ADD MSTORE POP JUMP JUMPDEST PUSH1 0x0 PUSH2 0x4095 PUSH1 0x18 DUP4 PUSH2 0x3BC4 JUMP JUMPDEST SWAP2 POP PUSH2 0x40A0 DUP3 PUSH2 0x405F JUMP JUMPDEST PUSH1 0x20 DUP3 ADD SWAP1 POP SWAP2 SWAP1 POP JUMP JUMPDEST PUSH1 0x0 PUSH1 0x20 DUP3 ADD SWAP1 POP DUP2 DUP2 SUB PUSH1 0x0 DUP4 ADD MSTORE PUSH2 0x40C4 DUP2 PUSH2 0x4088 JUMP JUMPDEST SWAP1 POP SWAP2 SWAP1 POP JUMP JUMPDEST PUSH32 0x4F776E61626C653A206E6577206F776E657220697320746865207A65726F2061 PUSH1 0x0 DUP3 ADD MSTORE PUSH32 0x6464726573730000000000000000000000000000000000000000000000000000 PUSH1 0x20 DUP3 ADD MSTORE POP JUMP JUMPDEST PUSH1 0x0 PUSH2 0x4127 PUSH1 0x26 DUP4 PUSH2 0x3BC4 JUMP JUMPDEST SWAP2 POP PUSH2 0x4132 DUP3 PUSH2 0x40CB JUMP JUMPDEST PUSH1 0x40 DUP3 ADD SWAP1 POP SWAP2 SWAP1 POP JUMP JUMPDEST PUSH1 0x0 PUSH1 0x20 DUP3 ADD SWAP1 POP DUP2 DUP2 SUB PUSH1 0x0 DUP4 ADD MSTORE PUSH2 0x4156 DUP2 PUSH2 0x411A JUMP JUMPDEST SWAP1 POP SWAP2 SWAP1 POP JUMP JUMPDEST PUSH1 0x0 PUSH2 0x4168 DUP3 PUSH2 0x368A JUMP JUMPDEST SWAP2 POP PUSH2 0x4173 DUP4 PUSH2 0x368A JUMP JUMPDEST SWAP3 POP DUP2 PUSH32 0xFFFFFFFFFFFFFFFFFFFFFFFFFFFFFFFFFFFFFFFFFFFFFFFFFFFFFFFFFFFFFFFF DIV DUP4 GT DUP3 ISZERO ISZERO AND ISZERO PUSH2 0x41AC JUMPI PUSH2 0x41AB PUSH2 0x3F7C JUMP JUMPDEST JUMPDEST DUP3 DUP3 MUL SWAP1 POP SWAP3 SWAP2 POP POP JUMP JUMPDEST PUSH32 0x4E487B7100000000000000000000000000000000000000000000000000000000 PUSH1 0x0 MSTORE PUSH1 0x12 PUSH1 0x4 MSTORE PUSH1 0x24 PUSH1 0x0 REVERT JUMPDEST PUSH1 0x0 PUSH2 0x41F1 DUP3 PUSH2 0x368A JUMP JUMPDEST SWAP2 POP PUSH2 0x41FC DUP4 PUSH2 0x368A JUMP JUMPDEST SWAP3 POP DUP3 PUSH2 0x420C JUMPI PUSH2 0x420B PUSH2 0x41B7 JUMP JUMPDEST JUMPDEST DUP3 DUP3 DIV SWAP1 POP SWAP3 SWAP2 POP POP JUMP JUMPDEST PUSH32 0x536166654D6174683A206D756C7469706C69636174696F6E206F766572666C6F PUSH1 0x0 DUP3 ADD MSTORE PUSH32 0x7700000000000000000000000000000000000000000000000000000000000000 PUSH1 0x20 DUP3 ADD MSTORE POP JUMP JUMPDEST PUSH1 0x0 PUSH2 0x4273 PUSH1 0x21 DUP4 PUSH2 0x3BC4 JUMP JUMPDEST SWAP2 POP PUSH2 0x427E DUP3 PUSH2 0x4217 JUMP JUMPDEST PUSH1 0x40 DUP3 ADD SWAP1 POP SWAP2 SWAP1 POP JUMP JUMPDEST PUSH1 0x0 PUSH1 0x20 DUP3 ADD SWAP1 POP DUP2 DUP2 SUB PUSH1 0x0 DUP4 ADD MSTORE PUSH2 0x42A2 DUP2 PUSH2 0x4266 JUMP JUMPDEST SWAP1 POP SWAP2 SWAP1 POP JUMP JUMPDEST PUSH1 0x0 PUSH2 0x42B4 DUP3 PUSH2 0x368A JUMP JUMPDEST SWAP2 POP PUSH2 0x42BF DUP4 PUSH2 0x368A JUMP JUMPDEST SWAP3 POP DUP3 DUP3 ADD SWAP1 POP DUP1 DUP3 GT ISZERO PUSH2 0x42D7 JUMPI PUSH2 0x42D6 PUSH2 0x3F7C JUMP JUMPDEST JUMPDEST SWAP3 SWAP2 POP POP JUMP JUMPDEST PUSH32 0x536166654D6174683A206164646974696F6E206F766572666C6F770000000000 PUSH1 0x0 DUP3 ADD MSTORE POP JUMP JUMPDEST PUSH1 0x0 PUSH2 0x4313 PUSH1 0x1B DUP4 PUSH2 0x3BC4 JUMP JUMPDEST SWAP2 POP PUSH2 0x431E DUP3 PUSH2 0x42DD JUMP JUMPDEST PUSH1 0x20 DUP3 ADD SWAP1 POP SWAP2 SWAP1 POP JUMP JUMPDEST PUSH1 0x0 PUSH1 0x20 DUP3 ADD SWAP1 POP DUP2 DUP2 SUB PUSH1 0x0 DUP4 ADD MSTORE PUSH2 0x4342 DUP2 PUSH2 0x4306 JUMP JUMPDEST SWAP1 POP SWAP2 SWAP1 POP JUMP JUMPDEST PUSH1 0x0 PUSH1 0x40 DUP3 ADD SWAP1 POP PUSH2 0x435E PUSH1 0x0 DUP4 ADD DUP6 PUSH2 0x3954 JUMP JUMPDEST PUSH2 0x436B PUSH1 0x20 DUP4 ADD DUP5 PUSH2 0x3694 JUMP JUMPDEST SWAP4 SWAP3 POP POP POP JUMP JUMPDEST PUSH1 0x0 PUSH1 0x60 DUP3 ADD SWAP1 POP PUSH2 0x4387 PUSH1 0x0 DUP4 ADD DUP7 PUSH2 0x3954 JUMP JUMPDEST PUSH2 0x4394 PUSH1 0x20 DUP4 ADD DUP6 PUSH2 0x3954 JUMP JUMPDEST PUSH2 0x43A1 PUSH1 0x40 DUP4 ADD DUP5 PUSH2 0x3694 JUMP JUMPDEST SWAP5 SWAP4 POP POP POP POP JUMP JUMPDEST PUSH1 0x0 PUSH1 0x40 DUP3 ADD SWAP1 POP PUSH2 0x43BE PUSH1 0x0 DUP4 ADD DUP6 PUSH2 0x3954 JUMP JUMPDEST PUSH2 0x43CB PUSH1 0x20 DUP4 ADD DUP5 PUSH2 0x3954 JUMP JUMPDEST SWAP4 SWAP3 POP POP POP JUMP JUMPDEST PUSH32 0x5361666545524332303A20617070726F76652066726F6D206E6F6E2D7A65726F PUSH1 0x0 DUP3 ADD MSTORE PUSH32 0x20746F206E6F6E2D7A65726F20616C6C6F77616E636500000000000000000000 PUSH1 0x20 DUP3 ADD MSTORE POP JUMP JUMPDEST PUSH1 0x0 PUSH2 0x442E PUSH1 0x36 DUP4 PUSH2 0x3BC4 JUMP JUMPDEST SWAP2 POP PUSH2 0x4439 DUP3 PUSH2 0x43D2 JUMP JUMPDEST PUSH1 0x40 DUP3 ADD SWAP1 POP SWAP2 SWAP1 POP JUMP JUMPDEST PUSH1 0x0 PUSH1 0x20 DUP3 ADD SWAP1 POP DUP2 DUP2 SUB PUSH1 0x0 DUP4 ADD MSTORE PUSH2 0x445D DUP2 PUSH2 0x4421 JUMP JUMPDEST SWAP1 POP SWAP2 SWAP1 POP JUMP JUMPDEST PUSH1 0x0 DUP2 MLOAD SWAP1 POP SWAP2 SWAP1 POP JUMP JUMPDEST PUSH1 0x0 JUMPDEST DUP4 DUP2 LT ISZERO PUSH2 0x448D JUMPI DUP1 DUP3 ADD MLOAD DUP2 DUP5 ADD MSTORE PUSH1 0x20 DUP2 ADD SWAP1 POP PUSH2 0x4472 JUMP JUMPDEST PUSH1 0x0 DUP5 DUP5 ADD MSTORE POP POP POP POP JUMP JUMPDEST PUSH1 0x0 PUSH1 0x1F NOT PUSH1 0x1F DUP4 ADD AND SWAP1 POP SWAP2 SWAP1 POP JUMP JUMPDEST PUSH1 0x0 PUSH2 0x44B5 DUP3 PUSH2 0x4464 JUMP JUMPDEST PUSH2 0x44BF DUP2 DUP6 PUSH2 0x3BC4 JUMP JUMPDEST SWAP4 POP PUSH2 0x44CF DUP2 DUP6 PUSH1 0x20 DUP7 ADD PUSH2 0x446F JUMP JUMPDEST PUSH2 0x44D8 DUP2 PUSH2 0x4499 JUMP JUMPDEST DUP5 ADD SWAP2 POP POP SWAP3 SWAP2 POP POP JUMP JUMPDEST PUSH1 0x0 PUSH1 0x20 DUP3 ADD SWAP1 POP DUP2 DUP2 SUB PUSH1 0x0 DUP4 ADD MSTORE PUSH2 0x44FD DUP2 DUP5 PUSH2 0x44AA JUMP JUMPDEST SWAP1 POP SWAP3 SWAP2 POP POP JUMP JUMPDEST PUSH1 0x0 PUSH2 0x4510 DUP3 PUSH2 0x368A JUMP JUMPDEST SWAP2 POP PUSH2 0x451B DUP4 PUSH2 0x368A JUMP JUMPDEST SWAP3 POP DUP3 DUP3 SUB SWAP1 POP DUP2 DUP2 GT ISZERO PUSH2 0x4533 JUMPI PUSH2 0x4532 PUSH2 0x3F7C JUMP JUMPDEST JUMPDEST SWAP3 SWAP2 POP POP JUMP JUMPDEST PUSH1 0x0 DUP2 MLOAD SWAP1 POP PUSH2 0x4548 DUP2 PUSH2 0x38D5 JUMP JUMPDEST SWAP3 SWAP2 POP POP JUMP JUMPDEST PUSH1 0x0 PUSH1 0x20 DUP3 DUP5 SUB SLT ISZERO PUSH2 0x4564 JUMPI PUSH2 0x4563 PUSH2 0x36BE JUMP JUMPDEST JUMPDEST PUSH1 0x0 PUSH2 0x4572 DUP5 DUP3 DUP6 ADD PUSH2 0x4539 JUMP JUMPDEST SWAP2 POP POP SWAP3 SWAP2 POP POP JUMP JUMPDEST PUSH32 0x5361666545524332303A204552433230206F7065726174696F6E20646964206E PUSH1 0x0 DUP3 ADD MSTORE PUSH32 0x6F74207375636365656400000000000000000000000000000000000000000000 PUSH1 0x20 DUP3 ADD MSTORE POP JUMP JUMPDEST PUSH1 0x0 PUSH2 0x45D7 PUSH1 0x2A DUP4 PUSH2 0x3BC4 JUMP JUMPDEST SWAP2 POP PUSH2 0x45E2 DUP3 PUSH2 0x457B JUMP JUMPDEST PUSH1 0x40 DUP3 ADD SWAP1 POP SWAP2 SWAP1 POP JUMP JUMPDEST PUSH1 0x0 PUSH1 0x20 DUP3 ADD SWAP1 POP DUP2 DUP2 SUB PUSH1 0x0 DUP4 ADD MSTORE PUSH2 0x4606 DUP2 PUSH2 0x45CA JUMP JUMPDEST SWAP1 POP SWAP2 SWAP1 POP JUMP JUMPDEST PUSH32 0x416464726573733A20696E73756666696369656E742062616C616E636520666F PUSH1 0x0 DUP3 ADD MSTORE PUSH32 0x722063616C6C0000000000000000000000000000000000000000000000000000 PUSH1 0x20 DUP3 ADD MSTORE POP JUMP JUMPDEST PUSH1 0x0 PUSH2 0x4669 PUSH1 0x26 DUP4 PUSH2 0x3BC4 JUMP JUMPDEST SWAP2 POP PUSH2 0x4674 DUP3 PUSH2 0x460D JUMP JUMPDEST PUSH1 0x40 DUP3 ADD SWAP1 POP SWAP2 SWAP1 POP JUMP JUMPDEST PUSH1 0x0 PUSH1 0x20 DUP3 ADD SWAP1 POP DUP2 DUP2 SUB PUSH1 0x0 DUP4 ADD MSTORE PUSH2 0x4698 DUP2 PUSH2 0x465C JUMP JUMPDEST SWAP1 POP SWAP2 SWAP1 POP JUMP JUMPDEST PUSH32 0x416464726573733A2063616C6C20746F206E6F6E2D636F6E7472616374000000 PUSH1 0x0 DUP3 ADD MSTORE POP JUMP JUMPDEST PUSH1 0x0 PUSH2 0x46D5 PUSH1 0x1D DUP4 PUSH2 0x3BC4 JUMP JUMPDEST SWAP2 POP PUSH2 0x46E0 DUP3 PUSH2 0x469F JUMP JUMPDEST PUSH1 0x20 DUP3 ADD SWAP1 POP SWAP2 SWAP1 POP JUMP JUMPDEST PUSH1 0x0 PUSH1 0x20 DUP3 ADD SWAP1 POP DUP2 DUP2 SUB PUSH1 0x0 DUP4 ADD MSTORE PUSH2 0x4704 DUP2 PUSH2 0x46C8 JUMP JUMPDEST SWAP1 POP SWAP2 SWAP1 POP JUMP JUMPDEST PUSH1 0x0 DUP2 MLOAD SWAP1 POP SWAP2 SWAP1 POP JUMP JUMPDEST PUSH1 0x0 DUP2 SWAP1 POP SWAP3 SWAP2 POP POP JUMP JUMPDEST PUSH1 0x0 PUSH2 0x472C DUP3 PUSH2 0x470B JUMP JUMPDEST PUSH2 0x4736 DUP2 DUP6 PUSH2 0x4716 JUMP JUMPDEST SWAP4 POP PUSH2 0x4746 DUP2 DUP6 PUSH1 0x20 DUP7 ADD PUSH2 0x446F JUMP JUMPDEST DUP1 DUP5 ADD SWAP2 POP POP SWAP3 SWAP2 POP POP JUMP JUMPDEST PUSH1 0x0 PUSH2 0x475E DUP3 DUP5 PUSH2 0x4721 JUMP JUMPDEST SWAP2 POP DUP2 SWAP1 POP SWAP3 SWAP2 POP POP JUMP INVALID LOG2 PUSH5 0x6970667358 0x22 SLT KECCAK256 PUSH1 0x78 DUP12 SWAP6 0xBD CALLDATACOPY COINBASE 0x22 PUSH12 0x6210D001709CDAFDAB6AC0A8 MSTORE NUMBER DUP8 SELFDESTRUCT 0xFB 0x2F BLOCKHASH 0xA7 0xD3 0xA9 0xCB PUSH5 0x736F6C6343 STOP ADDMOD LT STOP CALLER "
				},
				"gasEstimates": {
					"creation": {
						"codeDepositCost": "3667000",
						"executionCost": "infinite",
						"totalCost": "infinite"
					},
					"external": {
						"BONUS_MULTIPLIER()": "2540",
						"DDT()": "infinite",
						"DDTMasterchefAddress()": "2626",
						"NFTStakeAddress()": "2603",
						"PowerPerBlock()": "2562",
						"add(uint256,address,bool)": "infinite",
						"addNFT(address,uint256)": "73759",
						"claimNFTReward(uint256,uint256)": "infinite",
						"deposit(uint256,uint256)": "infinite",
						"emergencyWithdraw(uint256)": "infinite",
						"enterStaking(uint256)": "infinite",
						"enterStakingCompund(uint256,address)": "infinite",
						"getMultiplier(uint256,uint256)": "infinite",
						"getPowerBalance(address)": "2974",
						"leaveStaking(uint256)": "infinite",
						"massUpdatePools()": "infinite",
						"migrate(uint256)": "infinite",
						"migrator()": "infinite",
						"nftsInfo(uint256)": "infinite",
						"owner()": "2567",
						"pendingPower(uint256,address)": "infinite",
						"poolInfo(uint256)": "infinite",
						"poolLength()": "2492",
						"powerBalance(address)": "2880",
						"renounceOwnership()": "30419",
						"set(uint256,uint256,bool)": "infinite",
						"setMigrator(address)": "27139",
						"startBlock()": "2563",
						"totalAllocPoint()": "2475",
						"transferOwnership(address)": "30830",
						"updateDDTMasterchefAddress(address)": "27073",
						"updateMultiplier(uint256)": "24806",
						"updateNFT(uint256,uint256)": "infinite",
						"updateNFTStakeAddress(address)": "27031",
						"updatePool(uint256)": "infinite",
						"updatePowerPerBlock(uint256)": "24806",
						"userInfo(uint256,address)": "infinite",
						"withdraw(uint256,uint256)": "infinite"
					}
				},
				"methodIdentifiers": {
					"BONUS_MULTIPLIER()": "8aa28550",
					"DDT()": "cb3cba55",
					"DDTMasterchefAddress()": "22f58541",
					"NFTStakeAddress()": "83e32135",
					"PowerPerBlock()": "5990c569",
					"add(uint256,address,bool)": "1eaaa045",
					"addNFT(address,uint256)": "4ea2813c",
					"claimNFTReward(uint256,uint256)": "1d5fbd87",
					"deposit(uint256,uint256)": "e2bbb158",
					"emergencyWithdraw(uint256)": "5312ea8e",
					"enterStaking(uint256)": "41441d3b",
					"enterStakingCompund(uint256,address)": "cf35fddf",
					"getMultiplier(uint256,uint256)": "8dbb1e3a",
					"getPowerBalance(address)": "8c51793b",
					"leaveStaking(uint256)": "1058d281",
					"massUpdatePools()": "630b5ba1",
					"migrate(uint256)": "454b0608",
					"migrator()": "7cd07e47",
					"nftsInfo(uint256)": "61c1b724",
					"owner()": "8da5cb5b",
					"pendingPower(uint256,address)": "f3239ab5",
					"poolInfo(uint256)": "1526fe27",
					"poolLength()": "081e3eda",
					"powerBalance(address)": "d209db8c",
					"renounceOwnership()": "715018a6",
					"set(uint256,uint256,bool)": "64482f79",
					"setMigrator(address)": "23cf3118",
					"startBlock()": "48cd4cb1",
					"totalAllocPoint()": "17caf6f1",
					"transferOwnership(address)": "f2fde38b",
					"updateDDTMasterchefAddress(address)": "56b4685f",
					"updateMultiplier(uint256)": "5ffe6146",
					"updateNFT(uint256,uint256)": "c11490cc",
					"updateNFTStakeAddress(address)": "0ba33a58",
					"updatePool(uint256)": "51eb05a6",
					"updatePowerPerBlock(uint256)": "3df7aff3",
					"userInfo(uint256,address)": "93f1a40b",
					"withdraw(uint256,uint256)": "441a3e70"
				}
			},
			"storageLayout": {
				"storage": [
					{
						"astId": 820,
						"contract": "contracts/NFTMasterChef.sol:NFTMasterChef",
						"label": "_owner",
						"offset": 0,
						"slot": "0",
						"type": "t_address"
					},
					{
						"astId": 967,
						"contract": "contracts/NFTMasterChef.sol:NFTMasterChef",
						"label": "nftsInfo",
						"offset": 0,
						"slot": "1",
						"type": "t_array(t_struct(NFTsInfo)963_storage)dyn_storage"
					},
					{
						"astId": 970,
						"contract": "contracts/NFTMasterChef.sol:NFTMasterChef",
						"label": "DDT",
						"offset": 0,
						"slot": "2",
						"type": "t_contract(IERC20)286"
					},
					{
						"astId": 972,
						"contract": "contracts/NFTMasterChef.sol:NFTMasterChef",
						"label": "PowerPerBlock",
						"offset": 0,
						"slot": "3",
						"type": "t_uint256"
					},
					{
						"astId": 975,
						"contract": "contracts/NFTMasterChef.sol:NFTMasterChef",
						"label": "BONUS_MULTIPLIER",
						"offset": 0,
						"slot": "4",
						"type": "t_uint256"
					},
					{
						"astId": 978,
						"contract": "contracts/NFTMasterChef.sol:NFTMasterChef",
						"label": "migrator",
						"offset": 0,
						"slot": "5",
						"type": "t_contract(IMigratorChef)927"
					},
					{
						"astId": 982,
						"contract": "contracts/NFTMasterChef.sol:NFTMasterChef",
						"label": "poolInfo",
						"offset": 0,
						"slot": "6",
						"type": "t_array(t_struct(PoolInfo)957_storage)dyn_storage"
					},
					{
						"astId": 989,
						"contract": "contracts/NFTMasterChef.sol:NFTMasterChef",
						"label": "userInfo",
						"offset": 0,
						"slot": "7",
						"type": "t_mapping(t_uint256,t_mapping(t_address,t_struct(UserInfo)947_storage))"
					},
					{
						"astId": 992,
						"contract": "contracts/NFTMasterChef.sol:NFTMasterChef",
						"label": "totalAllocPoint",
						"offset": 0,
						"slot": "8",
						"type": "t_uint256"
					},
					{
						"astId": 994,
						"contract": "contracts/NFTMasterChef.sol:NFTMasterChef",
						"label": "startBlock",
						"offset": 0,
						"slot": "9",
						"type": "t_uint256"
					},
					{
						"astId": 996,
						"contract": "contracts/NFTMasterChef.sol:NFTMasterChef",
						"label": "NFTStakeAddress",
						"offset": 0,
						"slot": "10",
						"type": "t_address"
					},
					{
						"astId": 998,
						"contract": "contracts/NFTMasterChef.sol:NFTMasterChef",
						"label": "DDTMasterchefAddress",
						"offset": 0,
						"slot": "11",
						"type": "t_address"
					},
					{
						"astId": 1002,
						"contract": "contracts/NFTMasterChef.sol:NFTMasterChef",
						"label": "powerBalance",
						"offset": 0,
						"slot": "12",
						"type": "t_mapping(t_address,t_uint256)"
					}
				],
				"types": {
					"t_address": {
						"encoding": "inplace",
						"label": "address",
						"numberOfBytes": "20"
					},
					"t_array(t_struct(NFTsInfo)963_storage)dyn_storage": {
						"base": "t_struct(NFTsInfo)963_storage",
						"encoding": "dynamic_array",
						"label": "struct NFTMasterChef.NFTsInfo[]",
						"numberOfBytes": "32"
					},
					"t_array(t_struct(PoolInfo)957_storage)dyn_storage": {
						"base": "t_struct(PoolInfo)957_storage",
						"encoding": "dynamic_array",
						"label": "struct NFTMasterChef.PoolInfo[]",
						"numberOfBytes": "32"
					},
					"t_contract(IERC20)286": {
						"encoding": "inplace",
						"label": "contract IERC20",
						"numberOfBytes": "20"
					},
					"t_contract(IERC721)933": {
						"encoding": "inplace",
						"label": "contract IERC721",
						"numberOfBytes": "20"
					},
					"t_contract(IMigratorChef)927": {
						"encoding": "inplace",
						"label": "contract IMigratorChef",
						"numberOfBytes": "20"
					},
					"t_mapping(t_address,t_struct(UserInfo)947_storage)": {
						"encoding": "mapping",
						"key": "t_address",
						"label": "mapping(address => struct NFTMasterChef.UserInfo)",
						"numberOfBytes": "32",
						"value": "t_struct(UserInfo)947_storage"
					},
					"t_mapping(t_address,t_uint256)": {
						"encoding": "mapping",
						"key": "t_address",
						"label": "mapping(address => uint256)",
						"numberOfBytes": "32",
						"value": "t_uint256"
					},
					"t_mapping(t_uint256,t_mapping(t_address,t_struct(UserInfo)947_storage))": {
						"encoding": "mapping",
						"key": "t_uint256",
						"label": "mapping(uint256 => mapping(address => struct NFTMasterChef.UserInfo))",
						"numberOfBytes": "32",
						"value": "t_mapping(t_address,t_struct(UserInfo)947_storage)"
					},
					"t_struct(NFTsInfo)963_storage": {
						"encoding": "inplace",
						"label": "struct NFTMasterChef.NFTsInfo",
						"members": [
							{
								"astId": 960,
								"contract": "contracts/NFTMasterChef.sol:NFTMasterChef",
								"label": "NFT",
								"offset": 0,
								"slot": "0",
								"type": "t_contract(IERC721)933"
							},
							{
								"astId": 962,
								"contract": "contracts/NFTMasterChef.sol:NFTMasterChef",
								"label": "power",
								"offset": 0,
								"slot": "1",
								"type": "t_uint256"
							}
						],
						"numberOfBytes": "64"
					},
					"t_struct(PoolInfo)957_storage": {
						"encoding": "inplace",
						"label": "struct NFTMasterChef.PoolInfo",
						"members": [
							{
								"astId": 950,
								"contract": "contracts/NFTMasterChef.sol:NFTMasterChef",
								"label": "lpToken",
								"offset": 0,
								"slot": "0",
								"type": "t_contract(IERC20)286"
							},
							{
								"astId": 952,
								"contract": "contracts/NFTMasterChef.sol:NFTMasterChef",
								"label": "allocPoint",
								"offset": 0,
								"slot": "1",
								"type": "t_uint256"
							},
							{
								"astId": 954,
								"contract": "contracts/NFTMasterChef.sol:NFTMasterChef",
								"label": "lastRewardBlock",
								"offset": 0,
								"slot": "2",
								"type": "t_uint256"
							},
							{
								"astId": 956,
								"contract": "contracts/NFTMasterChef.sol:NFTMasterChef",
								"label": "accPowerPerShare",
								"offset": 0,
								"slot": "3",
								"type": "t_uint256"
							}
						],
						"numberOfBytes": "128"
					},
					"t_struct(UserInfo)947_storage": {
						"encoding": "inplace",
						"label": "struct NFTMasterChef.UserInfo",
						"members": [
							{
								"astId": 944,
								"contract": "contracts/NFTMasterChef.sol:NFTMasterChef",
								"label": "amount",
								"offset": 0,
								"slot": "0",
								"type": "t_uint256"
							},
							{
								"astId": 946,
								"contract": "contracts/NFTMasterChef.sol:NFTMasterChef",
								"label": "rewardDebt",
								"offset": 0,
								"slot": "1",
								"type": "t_uint256"
							}
						],
						"numberOfBytes": "64"
					},
					"t_uint256": {
						"encoding": "inplace",
						"label": "uint256",
						"numberOfBytes": "32"
					}
				}
			},
			"userdoc": {
				"kind": "user",
				"methods": {},
				"version": 1
			}
		}
	}
}