{
	"contracts/LpPrice.sol": {
		"LpUtils": {
			"abi": [
				{
					"inputs": [],
					"name": "BUSD",
					"outputs": [
						{
							"internalType": "address",
							"name": "",
							"type": "address"
						}
					],
					"stateMutability": "view",
					"type": "function"
				},
				{
					"inputs": [],
					"name": "WBNB",
					"outputs": [
						{
							"internalType": "address",
							"name": "",
							"type": "address"
						}
					],
					"stateMutability": "view",
					"type": "function"
				}
			],
			"devdoc": {
				"kind": "dev",
				"methods": {},
				"version": 1
			},
			"evm": {
				"assembly": "    /* \"contracts/LpPrice.sol\":13649:14408  contract LpUtils {\r... */\n  mstore(0x40, 0x80)\n    /* \"contracts/LpPrice.sol\":13728:13770  0xae13d989daC2f0dEbFf460aC112a837C89BAa7cd */\n  0xae13d989dac2f0debff460ac112a837c89baa7cd\n    /* \"contracts/LpPrice.sol\":13706:13770  address public WBNB = 0xae13d989daC2f0dEbFf460aC112a837C89BAa7cd */\n  0x00\n  dup1\n  0x0100\n  exp\n  dup2\n  sload\n  dup2\n  0xffffffffffffffffffffffffffffffffffffffff\n  mul\n  not\n  and\n  swap1\n  dup4\n  0xffffffffffffffffffffffffffffffffffffffff\n  and\n  mul\n  or\n  swap1\n  sstore\n  pop\n    /* \"contracts/LpPrice.sol\":13799:13841  0x78867BbEeF44f2326bF8DDd1941a4439382EF2A7 */\n  0x78867bbeef44f2326bf8ddd1941a4439382ef2a7\n    /* \"contracts/LpPrice.sol\":13777:13841  address public BUSD = 0x78867BbEeF44f2326bF8DDd1941a4439382EF2A7 */\n  0x01\n  exp(0x0100, 0x00)\n  dup2\n  sload\n  dup2\n  0xffffffffffffffffffffffffffffffffffffffff\n  mul\n  not\n  and\n  swap1\n  dup4\n  0xffffffffffffffffffffffffffffffffffffffff\n  and\n  mul\n  or\n  swap1\n  sstore\n  pop\n    /* \"contracts/LpPrice.sol\":13865:13884  1000000000000000000 */\n  0x0de0b6b3a7640000\n    /* \"contracts/LpPrice.sol\":13848:13884  uint256 amount = 1000000000000000000 */\n  0x02\n  sstore\n    /* \"contracts/LpPrice.sol\":13649:14408  contract LpUtils {\r... */\n  callvalue\n  dup1\n  iszero\n  tag_1\n  jumpi\n  0x00\n  dup1\n  revert\ntag_1:\n  pop\n  dataSize(sub_0)\n  dup1\n  dataOffset(sub_0)\n  0x00\n  codecopy\n  0x00\n  return\nstop\n\nsub_0: assembly {\n        /* \"contracts/LpPrice.sol\":13649:14408  contract LpUtils {\r... */\n      mstore(0x40, 0x80)\n      callvalue\n      dup1\n      iszero\n      tag_1\n      jumpi\n      0x00\n      dup1\n      revert\n    tag_1:\n      pop\n      jumpi(tag_2, lt(calldatasize, 0x04))\n      shr(0xe0, calldataload(0x00))\n      dup1\n      0x484f4ea9\n      eq\n      tag_3\n      jumpi\n      dup1\n      0x8dd95002\n      eq\n      tag_4\n      jumpi\n    tag_2:\n      0x00\n      dup1\n      revert\n        /* \"contracts/LpPrice.sol\":13777:13841  address public BUSD = 0x78867BbEeF44f2326bF8DDd1941a4439382EF2A7 */\n    tag_3:\n      tag_5\n      tag_6\n      jump\t// in\n    tag_5:\n      mload(0x40)\n      tag_7\n      swap2\n      swap1\n      tag_8\n      jump\t// in\n    tag_7:\n      mload(0x40)\n      dup1\n      swap2\n      sub\n      swap1\n      return\n        /* \"contracts/LpPrice.sol\":13706:13770  address public WBNB = 0xae13d989daC2f0dEbFf460aC112a837C89BAa7cd */\n    tag_4:\n      tag_9\n      tag_10\n      jump\t// in\n    tag_9:\n      mload(0x40)\n      tag_11\n      swap2\n      swap1\n      tag_8\n      jump\t// in\n    tag_11:\n      mload(0x40)\n      dup1\n      swap2\n      sub\n      swap1\n      return\n        /* \"contracts/LpPrice.sol\":13777:13841  address public BUSD = 0x78867BbEeF44f2326bF8DDd1941a4439382EF2A7 */\n    tag_6:\n      0x01\n      0x00\n      swap1\n      sload\n      swap1\n      0x0100\n      exp\n      swap1\n      div\n      0xffffffffffffffffffffffffffffffffffffffff\n      and\n      dup2\n      jump\t// out\n        /* \"contracts/LpPrice.sol\":13706:13770  address public WBNB = 0xae13d989daC2f0dEbFf460aC112a837C89BAa7cd */\n    tag_10:\n      0x00\n      dup1\n      sload\n      swap1\n      0x0100\n      exp\n      swap1\n      div\n      0xffffffffffffffffffffffffffffffffffffffff\n      and\n      dup2\n      jump\t// out\n        /* \"#utility.yul\":7:125   */\n    tag_13:\n        /* \"#utility.yul\":94:118   */\n      tag_15\n        /* \"#utility.yul\":112:117   */\n      dup2\n        /* \"#utility.yul\":94:118   */\n      tag_16\n      jump\t// in\n    tag_15:\n        /* \"#utility.yul\":89:92   */\n      dup3\n        /* \"#utility.yul\":82:119   */\n      mstore\n        /* \"#utility.yul\":7:125   */\n      pop\n      pop\n      jump\t// out\n        /* \"#utility.yul\":131:353   */\n    tag_8:\n        /* \"#utility.yul\":224:228   */\n      0x00\n        /* \"#utility.yul\":262:264   */\n      0x20\n        /* \"#utility.yul\":251:260   */\n      dup3\n        /* \"#utility.yul\":247:265   */\n      add\n        /* \"#utility.yul\":239:265   */\n      swap1\n      pop\n        /* \"#utility.yul\":275:346   */\n      tag_18\n        /* \"#utility.yul\":343:344   */\n      0x00\n        /* \"#utility.yul\":332:341   */\n      dup4\n        /* \"#utility.yul\":328:345   */\n      add\n        /* \"#utility.yul\":319:325   */\n      dup5\n        /* \"#utility.yul\":275:346   */\n      tag_13\n      jump\t// in\n    tag_18:\n        /* \"#utility.yul\":131:353   */\n      swap3\n      swap2\n      pop\n      pop\n      jump\t// out\n        /* \"#utility.yul\":359:455   */\n    tag_16:\n        /* \"#utility.yul\":396:403   */\n      0x00\n        /* \"#utility.yul\":425:449   */\n      tag_20\n        /* \"#utility.yul\":443:448   */\n      dup3\n        /* \"#utility.yul\":425:449   */\n      tag_21\n      jump\t// in\n    tag_20:\n        /* \"#utility.yul\":414:449   */\n      swap1\n      pop\n        /* \"#utility.yul\":359:455   */\n      swap2\n      swap1\n      pop\n      jump\t// out\n        /* \"#utility.yul\":461:587   */\n    tag_21:\n        /* \"#utility.yul\":498:505   */\n      0x00\n        /* \"#utility.yul\":538:580   */\n      0xffffffffffffffffffffffffffffffffffffffff\n        /* \"#utility.yul\":531:536   */\n      dup3\n        /* \"#utility.yul\":527:581   */\n      and\n        /* \"#utility.yul\":516:581   */\n      swap1\n      pop\n        /* \"#utility.yul\":461:587   */\n      swap2\n      swap1\n      pop\n      jump\t// out\n\n    auxdata: 0xa2646970667358221220bf569e8d34b6b04bee06bc3a9ae19cd55f66b0e6310b8132f7856950f902513164736f6c63430008070033\n}\n",
				"bytecode": {
					"linkReferences": {},
					"object": "608060405273ae13d989dac2f0debff460ac112a837c89baa7cd6000806101000a81548173ffffffffffffffffffffffffffffffffffffffff021916908373ffffffffffffffffffffffffffffffffffffffff1602179055507378867bbeef44f2326bf8ddd1941a4439382ef2a7600160006101000a81548173ffffffffffffffffffffffffffffffffffffffff021916908373ffffffffffffffffffffffffffffffffffffffff160217905550670de0b6b3a76400006002553480156100c557600080fd5b50610153806100d56000396000f3fe608060405234801561001057600080fd5b50600436106100365760003560e01c8063484f4ea91461003b5780638dd9500214610059575b600080fd5b610043610077565b60405161005091906100d0565b60405180910390f35b61006161009d565b60405161006e91906100d0565b60405180910390f35b600160009054906101000a900473ffffffffffffffffffffffffffffffffffffffff1681565b60008054906101000a900473ffffffffffffffffffffffffffffffffffffffff1681565b6100ca816100eb565b82525050565b60006020820190506100e560008301846100c1565b92915050565b60006100f6826100fd565b9050919050565b600073ffffffffffffffffffffffffffffffffffffffff8216905091905056fea2646970667358221220bf569e8d34b6b04bee06bc3a9ae19cd55f66b0e6310b8132f7856950f902513164736f6c63430008070033",
					"opcodes": "PUSH1 0x80 PUSH1 0x40 MSTORE PUSH20 0xAE13D989DAC2F0DEBFF460AC112A837C89BAA7CD PUSH1 0x0 DUP1 PUSH2 0x100 EXP DUP2 SLOAD DUP2 PUSH20 0xFFFFFFFFFFFFFFFFFFFFFFFFFFFFFFFFFFFFFFFF MUL NOT AND SWAP1 DUP4 PUSH20 0xFFFFFFFFFFFFFFFFFFFFFFFFFFFFFFFFFFFFFFFF AND MUL OR SWAP1 SSTORE POP PUSH20 0x78867BBEEF44F2326BF8DDD1941A4439382EF2A7 PUSH1 0x1 PUSH1 0x0 PUSH2 0x100 EXP DUP2 SLOAD DUP2 PUSH20 0xFFFFFFFFFFFFFFFFFFFFFFFFFFFFFFFFFFFFFFFF MUL NOT AND SWAP1 DUP4 PUSH20 0xFFFFFFFFFFFFFFFFFFFFFFFFFFFFFFFFFFFFFFFF AND MUL OR SWAP1 SSTORE POP PUSH8 0xDE0B6B3A7640000 PUSH1 0x2 SSTORE CALLVALUE DUP1 ISZERO PUSH2 0xC5 JUMPI PUSH1 0x0 DUP1 REVERT JUMPDEST POP PUSH2 0x153 DUP1 PUSH2 0xD5 PUSH1 0x0 CODECOPY PUSH1 0x0 RETURN INVALID PUSH1 0x80 PUSH1 0x40 MSTORE CALLVALUE DUP1 ISZERO PUSH2 0x10 JUMPI PUSH1 0x0 DUP1 REVERT JUMPDEST POP PUSH1 0x4 CALLDATASIZE LT PUSH2 0x36 JUMPI PUSH1 0x0 CALLDATALOAD PUSH1 0xE0 SHR DUP1 PUSH4 0x484F4EA9 EQ PUSH2 0x3B JUMPI DUP1 PUSH4 0x8DD95002 EQ PUSH2 0x59 JUMPI JUMPDEST PUSH1 0x0 DUP1 REVERT JUMPDEST PUSH2 0x43 PUSH2 0x77 JUMP JUMPDEST PUSH1 0x40 MLOAD PUSH2 0x50 SWAP2 SWAP1 PUSH2 0xD0 JUMP JUMPDEST PUSH1 0x40 MLOAD DUP1 SWAP2 SUB SWAP1 RETURN JUMPDEST PUSH2 0x61 PUSH2 0x9D JUMP JUMPDEST PUSH1 0x40 MLOAD PUSH2 0x6E SWAP2 SWAP1 PUSH2 0xD0 JUMP JUMPDEST PUSH1 0x40 MLOAD DUP1 SWAP2 SUB SWAP1 RETURN JUMPDEST PUSH1 0x1 PUSH1 0x0 SWAP1 SLOAD SWAP1 PUSH2 0x100 EXP SWAP1 DIV PUSH20 0xFFFFFFFFFFFFFFFFFFFFFFFFFFFFFFFFFFFFFFFF AND DUP2 JUMP JUMPDEST PUSH1 0x0 DUP1 SLOAD SWAP1 PUSH2 0x100 EXP SWAP1 DIV PUSH20 0xFFFFFFFFFFFFFFFFFFFFFFFFFFFFFFFFFFFFFFFF AND DUP2 JUMP JUMPDEST PUSH2 0xCA DUP2 PUSH2 0xEB JUMP JUMPDEST DUP3 MSTORE POP POP JUMP JUMPDEST PUSH1 0x0 PUSH1 0x20 DUP3 ADD SWAP1 POP PUSH2 0xE5 PUSH1 0x0 DUP4 ADD DUP5 PUSH2 0xC1 JUMP JUMPDEST SWAP3 SWAP2 POP POP JUMP JUMPDEST PUSH1 0x0 PUSH2 0xF6 DUP3 PUSH2 0xFD JUMP JUMPDEST SWAP1 POP SWAP2 SWAP1 POP JUMP JUMPDEST PUSH1 0x0 PUSH20 0xFFFFFFFFFFFFFFFFFFFFFFFFFFFFFFFFFFFFFFFF DUP3 AND SWAP1 POP SWAP2 SWAP1 POP JUMP INVALID LOG2 PUSH5 0x6970667358 0x22 SLT KECCAK256 0xBF JUMP SWAP15 DUP14 CALLVALUE 0xB6 0xB0 0x4B 0xEE MOD 0xBC GASPRICE SWAP11 0xE1 SWAP13 0xD5 0x5F PUSH7 0xB0E6310B8132F7 DUP6 PUSH10 0x50F902513164736F6C63 NUMBER STOP ADDMOD SMOD STOP CALLER "
				},
				"gasEstimates": {
					"creation": {
						"codeDepositCost": "67800",
						"executionCost": "70757",
						"totalCost": "138557"
					},
					"external": {
						"BUSD()": "2492",
						"WBNB()": "2511"
					},
					"internal": {
						"price(contract Router,address)": "infinite"
					}
				},
				"methodIdentifiers": {
					"BUSD()": "484f4ea9",
					"WBNB()": "8dd95002"
				}
			},
			"storageLayout": {
				"storage": [
					{
						"astId": 530,
						"contract": "contracts/LpPrice.sol:LpUtils",
						"label": "WBNB",
						"offset": 0,
						"slot": "0",
						"type": "t_address"
					},
					{
						"astId": 533,
						"contract": "contracts/LpPrice.sol:LpUtils",
						"label": "BUSD",
						"offset": 0,
						"slot": "1",
						"type": "t_address"
					},
					{
						"astId": 536,
						"contract": "contracts/LpPrice.sol:LpUtils",
						"label": "amount",
						"offset": 0,
						"slot": "2",
						"type": "t_uint256"
					}
				],
				"types": {
					"t_address": {
						"encoding": "inplace",
						"label": "address",
						"numberOfBytes": "20"
					},
					"t_uint256": {
						"encoding": "inplace",
						"label": "uint256",
						"numberOfBytes": "32"
					}
				}
			},
			"userdoc": {
				"kind": "user",
				"methods": {},
				"version": 1
			}
		}
	}
}