{
	"contracts/DDTMasterChef.sol": {
		"DDTMasterChef": {
			"abi": [
				{
					"inputs": [
						{
							"internalType": "contract IERC20",
							"name": "_DDT",
							"type": "address"
						},
						{
							"internalType": "address",
							"name": "_devaddr",
							"type": "address"
						},
						{
							"internalType": "uint256",
							"name": "_DDTPerBlock",
							"type": "uint256"
						},
						{
							"internalType": "uint256",
							"name": "_startBlock",
							"type": "uint256"
						}
					],
					"stateMutability": "nonpayable",
					"type": "constructor"
				},
				{
					"anonymous": false,
					"inputs": [
						{
							"indexed": true,
							"internalType": "address",
							"name": "user",
							"type": "address"
						},
						{
							"indexed": true,
							"internalType": "uint256",
							"name": "pid",
							"type": "uint256"
						},
						{
							"indexed": false,
							"internalType": "uint256",
							"name": "amount",
							"type": "uint256"
						}
					],
					"name": "Deposit",
					"type": "event"
				},
				{
					"anonymous": false,
					"inputs": [
						{
							"indexed": true,
							"internalType": "address",
							"name": "user",
							"type": "address"
						},
						{
							"indexed": true,
							"internalType": "uint256",
							"name": "pid",
							"type": "uint256"
						},
						{
							"indexed": false,
							"internalType": "uint256",
							"name": "amount",
							"type": "uint256"
						}
					],
					"name": "EmergencyWithdraw",
					"type": "event"
				},
				{
					"anonymous": false,
					"inputs": [
						{
							"indexed": true,
							"internalType": "address",
							"name": "previousOwner",
							"type": "address"
						},
						{
							"indexed": true,
							"internalType": "address",
							"name": "newOwner",
							"type": "address"
						}
					],
					"name": "OwnershipTransferred",
					"type": "event"
				},
				{
					"anonymous": false,
					"inputs": [
						{
							"indexed": true,
							"internalType": "address",
							"name": "user",
							"type": "address"
						},
						{
							"indexed": true,
							"internalType": "uint256",
							"name": "pid",
							"type": "uint256"
						},
						{
							"indexed": false,
							"internalType": "uint256",
							"name": "amount",
							"type": "uint256"
						}
					],
					"name": "Withdraw",
					"type": "event"
				},
				{
					"inputs": [],
					"name": "BONUS_MULTIPLIER",
					"outputs": [
						{
							"internalType": "uint256",
							"name": "",
							"type": "uint256"
						}
					],
					"stateMutability": "view",
					"type": "function"
				},
				{
					"inputs": [],
					"name": "DDT",
					"outputs": [
						{
							"internalType": "contract IERC20",
							"name": "",
							"type": "address"
						}
					],
					"stateMutability": "view",
					"type": "function"
				},
				{
					"inputs": [],
					"name": "DDTPerBlock",
					"outputs": [
						{
							"internalType": "uint256",
							"name": "",
							"type": "uint256"
						}
					],
					"stateMutability": "view",
					"type": "function"
				},
				{
					"inputs": [
						{
							"internalType": "uint256",
							"name": "_allocPoint",
							"type": "uint256"
						},
						{
							"internalType": "contract IERC20",
							"name": "_lpToken",
							"type": "address"
						},
						{
							"internalType": "bool",
							"name": "_withUpdate",
							"type": "bool"
						},
						{
							"internalType": "contract IMasterChef",
							"name": "_poolMasterChef",
							"type": "address"
						},
						{
							"internalType": "contract IERC20",
							"name": "_rewardToken",
							"type": "address"
						},
						{
							"internalType": "uint256",
							"name": "_fee",
							"type": "uint256"
						},
						{
							"internalType": "uint256",
							"name": "_method",
							"type": "uint256"
						}
					],
					"name": "add",
					"outputs": [],
					"stateMutability": "nonpayable",
					"type": "function"
				},
				{
					"inputs": [
						{
							"internalType": "uint256",
							"name": "_pid",
							"type": "uint256"
						},
						{
							"internalType": "uint256",
							"name": "_otherChefPid",
							"type": "uint256"
						},
						{
							"internalType": "uint256",
							"name": "_amount",
							"type": "uint256"
						}
					],
					"name": "deposit",
					"outputs": [],
					"stateMutability": "nonpayable",
					"type": "function"
				},
				{
					"inputs": [],
					"name": "devaddr",
					"outputs": [
						{
							"internalType": "address",
							"name": "",
							"type": "address"
						}
					],
					"stateMutability": "view",
					"type": "function"
				},
				{
					"inputs": [
						{
							"internalType": "uint256",
							"name": "_pid",
							"type": "uint256"
						}
					],
					"name": "emergencyWithdraw",
					"outputs": [],
					"stateMutability": "nonpayable",
					"type": "function"
				},
				{
					"inputs": [
						{
							"internalType": "uint256",
							"name": "_pid",
							"type": "uint256"
						}
					],
					"name": "emergencyWithdrawFromBSW",
					"outputs": [],
					"stateMutability": "nonpayable",
					"type": "function"
				},
				{
					"inputs": [
						{
							"internalType": "uint256",
							"name": "_pid",
							"type": "uint256"
						}
					],
					"name": "enablePool",
					"outputs": [],
					"stateMutability": "nonpayable",
					"type": "function"
				},
				{
					"inputs": [
						{
							"internalType": "uint256",
							"name": "_from",
							"type": "uint256"
						},
						{
							"internalType": "uint256",
							"name": "_to",
							"type": "uint256"
						}
					],
					"name": "getMultiplier",
					"outputs": [
						{
							"internalType": "uint256",
							"name": "",
							"type": "uint256"
						}
					],
					"stateMutability": "view",
					"type": "function"
				},
				{
					"inputs": [
						{
							"internalType": "uint256",
							"name": "_pid",
							"type": "uint256"
						},
						{
							"internalType": "address",
							"name": "_user",
							"type": "address"
						}
					],
					"name": "getUserBalance",
					"outputs": [
						{
							"internalType": "uint256",
							"name": "",
							"type": "uint256"
						}
					],
					"stateMutability": "view",
					"type": "function"
				},
				{
					"inputs": [],
					"name": "massUpdatePools",
					"outputs": [],
					"stateMutability": "nonpayable",
					"type": "function"
				},
				{
					"inputs": [
						{
							"internalType": "uint256",
							"name": "_pid",
							"type": "uint256"
						}
					],
					"name": "migrate",
					"outputs": [],
					"stateMutability": "nonpayable",
					"type": "function"
				},
				{
					"inputs": [],
					"name": "migrator",
					"outputs": [
						{
							"internalType": "contract IMigratorChef",
							"name": "",
							"type": "address"
						}
					],
					"stateMutability": "view",
					"type": "function"
				},
				{
					"inputs": [],
					"name": "owner",
					"outputs": [
						{
							"internalType": "address",
							"name": "",
							"type": "address"
						}
					],
					"stateMutability": "view",
					"type": "function"
				},
				{
					"inputs": [
						{
							"internalType": "uint256",
							"name": "_pid",
							"type": "uint256"
						},
						{
							"internalType": "address",
							"name": "_user",
							"type": "address"
						}
					],
					"name": "pendingDDT",
					"outputs": [
						{
							"internalType": "uint256",
							"name": "",
							"type": "uint256"
						}
					],
					"stateMutability": "view",
					"type": "function"
				},
				{
					"inputs": [
						{
							"internalType": "uint256",
							"name": "",
							"type": "uint256"
						}
					],
					"name": "poolBalance",
					"outputs": [
						{
							"internalType": "uint256",
							"name": "",
							"type": "uint256"
						}
					],
					"stateMutability": "view",
					"type": "function"
				},
				{
					"inputs": [
						{
							"internalType": "uint256",
							"name": "",
							"type": "uint256"
						}
					],
					"name": "poolInfo",
					"outputs": [
						{
							"internalType": "contract IERC20",
							"name": "lpToken",
							"type": "address"
						},
						{
							"internalType": "uint256",
							"name": "allocPoint",
							"type": "uint256"
						},
						{
							"internalType": "uint256",
							"name": "lastRewardBlock",
							"type": "uint256"
						},
						{
							"internalType": "uint256",
							"name": "accDDTPerShare",
							"type": "uint256"
						},
						{
							"internalType": "contract IMasterChef",
							"name": "poolMasterChef",
							"type": "address"
						},
						{
							"internalType": "contract IERC20",
							"name": "rewardToken",
							"type": "address"
						},
						{
							"internalType": "uint256",
							"name": "fee",
							"type": "uint256"
						},
						{
							"internalType": "uint256",
							"name": "method",
							"type": "uint256"
						}
					],
					"stateMutability": "view",
					"type": "function"
				},
				{
					"inputs": [],
					"name": "poolLength",
					"outputs": [
						{
							"internalType": "uint256",
							"name": "",
							"type": "uint256"
						}
					],
					"stateMutability": "view",
					"type": "function"
				},
				{
					"inputs": [],
					"name": "renounceOwnership",
					"outputs": [],
					"stateMutability": "nonpayable",
					"type": "function"
				},
				{
					"inputs": [
						{
							"internalType": "uint256",
							"name": "_pid",
							"type": "uint256"
						},
						{
							"internalType": "uint256",
							"name": "_allocPoint",
							"type": "uint256"
						},
						{
							"internalType": "bool",
							"name": "_withUpdate",
							"type": "bool"
						}
					],
					"name": "set",
					"outputs": [],
					"stateMutability": "nonpayable",
					"type": "function"
				},
				{
					"inputs": [
						{
							"internalType": "address",
							"name": "_devaddr",
							"type": "address"
						}
					],
					"name": "setDevAddress",
					"outputs": [],
					"stateMutability": "nonpayable",
					"type": "function"
				},
				{
					"inputs": [
						{
							"internalType": "contract IMigratorChef",
							"name": "_migrator",
							"type": "address"
						}
					],
					"name": "setMigrator",
					"outputs": [],
					"stateMutability": "nonpayable",
					"type": "function"
				},
				{
					"inputs": [],
					"name": "startBlock",
					"outputs": [
						{
							"internalType": "uint256",
							"name": "",
							"type": "uint256"
						}
					],
					"stateMutability": "view",
					"type": "function"
				},
				{
					"inputs": [],
					"name": "totalAllocPoint",
					"outputs": [
						{
							"internalType": "uint256",
							"name": "",
							"type": "uint256"
						}
					],
					"stateMutability": "view",
					"type": "function"
				},
				{
					"inputs": [
						{
							"internalType": "address",
							"name": "newOwner",
							"type": "address"
						}
					],
					"name": "transferOwnership",
					"outputs": [],
					"stateMutability": "nonpayable",
					"type": "function"
				},
				{
					"inputs": [
						{
							"internalType": "uint256",
							"name": "newAmount",
							"type": "uint256"
						}
					],
					"name": "updateDDTPerBlock",
					"outputs": [],
					"stateMutability": "nonpayable",
					"type": "function"
				},
				{
					"inputs": [
						{
							"internalType": "uint256",
							"name": "multiplierNumber",
							"type": "uint256"
						}
					],
					"name": "updateMultiplier",
					"outputs": [],
					"stateMutability": "nonpayable",
					"type": "function"
				},
				{
					"inputs": [
						{
							"internalType": "uint256",
							"name": "_pid",
							"type": "uint256"
						}
					],
					"name": "updatePool",
					"outputs": [],
					"stateMutability": "nonpayable",
					"type": "function"
				},
				{
					"inputs": [
						{
							"internalType": "uint256",
							"name": "",
							"type": "uint256"
						},
						{
							"internalType": "address",
							"name": "",
							"type": "address"
						}
					],
					"name": "userInfo",
					"outputs": [
						{
							"internalType": "uint256",
							"name": "amount",
							"type": "uint256"
						},
						{
							"internalType": "uint256",
							"name": "rewardDebt",
							"type": "uint256"
						}
					],
					"stateMutability": "view",
					"type": "function"
				},
				{
					"inputs": [
						{
							"internalType": "uint256",
							"name": "_pid",
							"type": "uint256"
						},
						{
							"internalType": "uint256",
							"name": "_otherChefPid",
							"type": "uint256"
						},
						{
							"internalType": "uint256",
							"name": "_amount",
							"type": "uint256"
						}
					],
					"name": "withdraw",
					"outputs": [],
					"stateMutability": "nonpayable",
					"type": "function"
				}
			],
			"devdoc": {
				"kind": "dev",
				"methods": {
					"owner()": {
						"details": "Returns the address of the current owner."
					},
					"renounceOwnership()": {
						"details": "Leaves the contract without owner. It will not be possible to call `onlyOwner` functions anymore. Can only be called by the current owner. NOTE: Renouncing ownership will leave the contract without an owner, thereby removing any functionality that is only available to the owner."
					},
					"transferOwnership(address)": {
						"details": "Transfers ownership of the contract to a new account (`newOwner`). Can only be called by the current owner."
					}
				},
				"version": 1
			},
			"evm": {
				"assembly": "    /* \"contracts/DDTMasterChef.sol\":22650:34426  contract DDTMasterChef is Ownable {... */\n  mstore(0x40, 0x80)\n    /* \"contracts/DDTMasterChef.sol\":24341:24342  1 */\n  0x01\n    /* \"contracts/DDTMasterChef.sol\":24307:24342  uint256 public BONUS_MULTIPLIER = 1 */\n  0x04\n  sstore\n    /* \"contracts/DDTMasterChef.sol\":24784:24785  0 */\n  0x00\n    /* \"contracts/DDTMasterChef.sol\":24751:24785  uint256 public totalAllocPoint = 0 */\n  0x08\n  sstore\n    /* \"contracts/DDTMasterChef.sol\":24955:24999  11111111111111111111111111111111111111111111 */\n  0x7f8c9ef06e25a77fe790001fac71c71c71c7\n    /* \"contracts/DDTMasterChef.sol\":24931:24999  uint256 approveAmount = 11111111111111111111111111111111111111111111 */\n  0x0b\n  sstore\n    /* \"contracts/DDTMasterChef.sol\":25024:25045  100000000000000000000 */\n  0x056bc75e2d63100000\n    /* \"contracts/DDTMasterChef.sol\":25006:25045  uint256 percent = 100000000000000000000 */\n  0x0c\n  sstore\n    /* \"contracts/DDTMasterChef.sol\":25338:25597  constructor(... */\n  callvalue\n  dup1\n  iszero\n  tag_1\n  jumpi\n  0x00\n  dup1\n  revert\ntag_1:\n  pop\n  mload(0x40)\n  sub(codesize, bytecodeSize)\n  dup1\n  bytecodeSize\n  dup4\n  codecopy\n  dup2\n  dup2\n  add\n  0x40\n  mstore\n  dup2\n  add\n  swap1\n  tag_2\n  swap2\n  swap1\n  tag_3\n  jump\t// in\ntag_2:\n    /* \"contracts/DDTMasterChef.sol\":19984:20016  _transferOwnership(_msgSender()) */\n  tag_7\n    /* \"contracts/DDTMasterChef.sol\":20003:20015  _msgSender() */\n  tag_8\n    /* \"contracts/DDTMasterChef.sol\":20003:20013  _msgSender */\n  shl(0x20, tag_9)\n    /* \"contracts/DDTMasterChef.sol\":20003:20015  _msgSender() */\n  0x20\n  shr\n  jump\t// in\ntag_8:\n    /* \"contracts/DDTMasterChef.sol\":19984:20002  _transferOwnership */\n  shl(0x20, tag_10)\n    /* \"contracts/DDTMasterChef.sol\":19984:20016  _transferOwnership(_msgSender()) */\n  0x20\n  shr\n  jump\t// in\ntag_7:\n    /* \"contracts/DDTMasterChef.sol\":25484:25488  _DDT */\n  dup4\n    /* \"contracts/DDTMasterChef.sol\":25478:25481  DDT */\n  0x01\n  0x00\n    /* \"contracts/DDTMasterChef.sol\":25478:25488  DDT = _DDT */\n  0x0100\n  exp\n  dup2\n  sload\n  dup2\n  0xffffffffffffffffffffffffffffffffffffffff\n  mul\n  not\n  and\n  swap1\n  dup4\n  0xffffffffffffffffffffffffffffffffffffffff\n  and\n  mul\n  or\n  swap1\n  sstore\n  pop\n    /* \"contracts/DDTMasterChef.sol\":25509:25517  _devaddr */\n  dup3\n    /* \"contracts/DDTMasterChef.sol\":25499:25506  devaddr */\n  0x02\n  0x00\n    /* \"contracts/DDTMasterChef.sol\":25499:25517  devaddr = _devaddr */\n  0x0100\n  exp\n  dup2\n  sload\n  dup2\n  0xffffffffffffffffffffffffffffffffffffffff\n  mul\n  not\n  and\n  swap1\n  dup4\n  0xffffffffffffffffffffffffffffffffffffffff\n  and\n  mul\n  or\n  swap1\n  sstore\n  pop\n    /* \"contracts/DDTMasterChef.sol\":25542:25554  _DDTPerBlock */\n  dup2\n    /* \"contracts/DDTMasterChef.sol\":25528:25539  DDTPerBlock */\n  0x03\n    /* \"contracts/DDTMasterChef.sol\":25528:25554  DDTPerBlock = _DDTPerBlock */\n  dup2\n  swap1\n  sstore\n  pop\n    /* \"contracts/DDTMasterChef.sol\":25578:25589  _startBlock */\n  dup1\n    /* \"contracts/DDTMasterChef.sol\":25565:25575  startBlock */\n  0x09\n    /* \"contracts/DDTMasterChef.sol\":25565:25589  startBlock = _startBlock */\n  dup2\n  swap1\n  sstore\n  pop\n    /* \"contracts/DDTMasterChef.sol\":25338:25597  constructor(... */\n  pop\n  pop\n  pop\n  pop\n    /* \"contracts/DDTMasterChef.sol\":22650:34426  contract DDTMasterChef is Ownable {... */\n  jump(tag_12)\n    /* \"contracts/DDTMasterChef.sol\":19479:19577  function _msgSender() internal view virtual returns (address) {... */\ntag_9:\n    /* \"contracts/DDTMasterChef.sol\":19532:19539  address */\n  0x00\n    /* \"contracts/DDTMasterChef.sol\":19559:19569  msg.sender */\n  caller\n    /* \"contracts/DDTMasterChef.sol\":19552:19569  return msg.sender */\n  swap1\n  pop\n    /* \"contracts/DDTMasterChef.sol\":19479:19577  function _msgSender() internal view virtual returns (address) {... */\n  swap1\n  jump\t// out\n    /* \"contracts/DDTMasterChef.sol\":21375:21566  function _transferOwnership(address newOwner) internal virtual {... */\ntag_10:\n    /* \"contracts/DDTMasterChef.sol\":21449:21465  address oldOwner */\n  0x00\n    /* \"contracts/DDTMasterChef.sol\":21468:21474  _owner */\n  dup1\n  0x00\n  swap1\n  sload\n  swap1\n  0x0100\n  exp\n  swap1\n  div\n  0xffffffffffffffffffffffffffffffffffffffff\n  and\n    /* \"contracts/DDTMasterChef.sol\":21449:21474  address oldOwner = _owner */\n  swap1\n  pop\n    /* \"contracts/DDTMasterChef.sol\":21494:21502  newOwner */\n  dup2\n    /* \"contracts/DDTMasterChef.sol\":21485:21491  _owner */\n  0x00\n  dup1\n    /* \"contracts/DDTMasterChef.sol\":21485:21502  _owner = newOwner */\n  0x0100\n  exp\n  dup2\n  sload\n  dup2\n  0xffffffffffffffffffffffffffffffffffffffff\n  mul\n  not\n  and\n  swap1\n  dup4\n  0xffffffffffffffffffffffffffffffffffffffff\n  and\n  mul\n  or\n  swap1\n  sstore\n  pop\n    /* \"contracts/DDTMasterChef.sol\":21549:21557  newOwner */\n  dup2\n    /* \"contracts/DDTMasterChef.sol\":21518:21558  OwnershipTransferred(oldOwner, newOwner) */\n  0xffffffffffffffffffffffffffffffffffffffff\n  and\n    /* \"contracts/DDTMasterChef.sol\":21539:21547  oldOwner */\n  dup2\n    /* \"contracts/DDTMasterChef.sol\":21518:21558  OwnershipTransferred(oldOwner, newOwner) */\n  0xffffffffffffffffffffffffffffffffffffffff\n  and\n  0x8be0079c531659141344cd1fd0a4f28419497f9722a3daafe3b4186f6b6457e0\n  mload(0x40)\n  mload(0x40)\n  dup1\n  swap2\n  sub\n  swap1\n  log3\n    /* \"contracts/DDTMasterChef.sol\":21438:21566  {... */\n  pop\n    /* \"contracts/DDTMasterChef.sol\":21375:21566  function _transferOwnership(address newOwner) internal virtual {... */\n  pop\n  jump\t// out\n    /* \"#utility.yul\":88:205   */\ntag_16:\n    /* \"#utility.yul\":197:198   */\n  0x00\n    /* \"#utility.yul\":194:195   */\n  dup1\n    /* \"#utility.yul\":187:199   */\n  revert\n    /* \"#utility.yul\":334:460   */\ntag_18:\n    /* \"#utility.yul\":371:378   */\n  0x00\n    /* \"#utility.yul\":411:453   */\n  0xffffffffffffffffffffffffffffffffffffffff\n    /* \"#utility.yul\":404:409   */\n  dup3\n    /* \"#utility.yul\":400:454   */\n  and\n    /* \"#utility.yul\":389:454   */\n  swap1\n  pop\n    /* \"#utility.yul\":334:460   */\n  swap2\n  swap1\n  pop\n  jump\t// out\n    /* \"#utility.yul\":466:562   */\ntag_19:\n    /* \"#utility.yul\":503:510   */\n  0x00\n    /* \"#utility.yul\":532:556   */\n  tag_34\n    /* \"#utility.yul\":550:555   */\n  dup3\n    /* \"#utility.yul\":532:556   */\n  tag_18\n  jump\t// in\ntag_34:\n    /* \"#utility.yul\":521:556   */\n  swap1\n  pop\n    /* \"#utility.yul\":466:562   */\n  swap2\n  swap1\n  pop\n  jump\t// out\n    /* \"#utility.yul\":568:678   */\ntag_20:\n    /* \"#utility.yul\":619:626   */\n  0x00\n    /* \"#utility.yul\":648:672   */\n  tag_36\n    /* \"#utility.yul\":666:671   */\n  dup3\n    /* \"#utility.yul\":648:672   */\n  tag_19\n  jump\t// in\ntag_36:\n    /* \"#utility.yul\":637:672   */\n  swap1\n  pop\n    /* \"#utility.yul\":568:678   */\n  swap2\n  swap1\n  pop\n  jump\t// out\n    /* \"#utility.yul\":684:834   */\ntag_21:\n    /* \"#utility.yul\":771:809   */\n  tag_38\n    /* \"#utility.yul\":803:808   */\n  dup2\n    /* \"#utility.yul\":771:809   */\n  tag_20\n  jump\t// in\ntag_38:\n    /* \"#utility.yul\":764:769   */\n  dup2\n    /* \"#utility.yul\":761:810   */\n  eq\n    /* \"#utility.yul\":751:828   */\n  tag_39\n  jumpi\n    /* \"#utility.yul\":824:825   */\n  0x00\n    /* \"#utility.yul\":821:822   */\n  dup1\n    /* \"#utility.yul\":814:826   */\n  revert\n    /* \"#utility.yul\":751:828   */\ntag_39:\n    /* \"#utility.yul\":684:834   */\n  pop\n  jump\t// out\n    /* \"#utility.yul\":840:1011   */\ntag_22:\n    /* \"#utility.yul\":911:916   */\n  0x00\n    /* \"#utility.yul\":942:948   */\n  dup2\n    /* \"#utility.yul\":936:949   */\n  mload\n    /* \"#utility.yul\":927:949   */\n  swap1\n  pop\n    /* \"#utility.yul\":958:1005   */\n  tag_41\n    /* \"#utility.yul\":999:1004   */\n  dup2\n    /* \"#utility.yul\":958:1005   */\n  tag_21\n  jump\t// in\ntag_41:\n    /* \"#utility.yul\":840:1011   */\n  swap3\n  swap2\n  pop\n  pop\n  jump\t// out\n    /* \"#utility.yul\":1017:1139   */\ntag_23:\n    /* \"#utility.yul\":1090:1114   */\n  tag_43\n    /* \"#utility.yul\":1108:1113   */\n  dup2\n    /* \"#utility.yul\":1090:1114   */\n  tag_19\n  jump\t// in\ntag_43:\n    /* \"#utility.yul\":1083:1088   */\n  dup2\n    /* \"#utility.yul\":1080:1115   */\n  eq\n    /* \"#utility.yul\":1070:1133   */\n  tag_44\n  jumpi\n    /* \"#utility.yul\":1129:1130   */\n  0x00\n    /* \"#utility.yul\":1126:1127   */\n  dup1\n    /* \"#utility.yul\":1119:1131   */\n  revert\n    /* \"#utility.yul\":1070:1133   */\ntag_44:\n    /* \"#utility.yul\":1017:1139   */\n  pop\n  jump\t// out\n    /* \"#utility.yul\":1145:1288   */\ntag_24:\n    /* \"#utility.yul\":1202:1207   */\n  0x00\n    /* \"#utility.yul\":1233:1239   */\n  dup2\n    /* \"#utility.yul\":1227:1240   */\n  mload\n    /* \"#utility.yul\":1218:1240   */\n  swap1\n  pop\n    /* \"#utility.yul\":1249:1282   */\n  tag_46\n    /* \"#utility.yul\":1276:1281   */\n  dup2\n    /* \"#utility.yul\":1249:1282   */\n  tag_23\n  jump\t// in\ntag_46:\n    /* \"#utility.yul\":1145:1288   */\n  swap3\n  swap2\n  pop\n  pop\n  jump\t// out\n    /* \"#utility.yul\":1294:1371   */\ntag_25:\n    /* \"#utility.yul\":1331:1338   */\n  0x00\n    /* \"#utility.yul\":1360:1365   */\n  dup2\n    /* \"#utility.yul\":1349:1365   */\n  swap1\n  pop\n    /* \"#utility.yul\":1294:1371   */\n  swap2\n  swap1\n  pop\n  jump\t// out\n    /* \"#utility.yul\":1377:1499   */\ntag_26:\n    /* \"#utility.yul\":1450:1474   */\n  tag_49\n    /* \"#utility.yul\":1468:1473   */\n  dup2\n    /* \"#utility.yul\":1450:1474   */\n  tag_25\n  jump\t// in\ntag_49:\n    /* \"#utility.yul\":1443:1448   */\n  dup2\n    /* \"#utility.yul\":1440:1475   */\n  eq\n    /* \"#utility.yul\":1430:1493   */\n  tag_50\n  jumpi\n    /* \"#utility.yul\":1489:1490   */\n  0x00\n    /* \"#utility.yul\":1486:1487   */\n  dup1\n    /* \"#utility.yul\":1479:1491   */\n  revert\n    /* \"#utility.yul\":1430:1493   */\ntag_50:\n    /* \"#utility.yul\":1377:1499   */\n  pop\n  jump\t// out\n    /* \"#utility.yul\":1505:1648   */\ntag_27:\n    /* \"#utility.yul\":1562:1567   */\n  0x00\n    /* \"#utility.yul\":1593:1599   */\n  dup2\n    /* \"#utility.yul\":1587:1600   */\n  mload\n    /* \"#utility.yul\":1578:1600   */\n  swap1\n  pop\n    /* \"#utility.yul\":1609:1642   */\n  tag_52\n    /* \"#utility.yul\":1636:1641   */\n  dup2\n    /* \"#utility.yul\":1609:1642   */\n  tag_26\n  jump\t// in\ntag_52:\n    /* \"#utility.yul\":1505:1648   */\n  swap3\n  swap2\n  pop\n  pop\n  jump\t// out\n    /* \"#utility.yul\":1654:2502   */\ntag_3:\n    /* \"#utility.yul\":1765:1771   */\n  0x00\n    /* \"#utility.yul\":1773:1779   */\n  dup1\n    /* \"#utility.yul\":1781:1787   */\n  0x00\n    /* \"#utility.yul\":1789:1795   */\n  dup1\n    /* \"#utility.yul\":1838:1841   */\n  0x80\n    /* \"#utility.yul\":1826:1835   */\n  dup6\n    /* \"#utility.yul\":1817:1824   */\n  dup8\n    /* \"#utility.yul\":1813:1836   */\n  sub\n    /* \"#utility.yul\":1809:1842   */\n  slt\n    /* \"#utility.yul\":1806:1926   */\n  iszero\n  tag_54\n  jumpi\n    /* \"#utility.yul\":1845:1924   */\n  tag_55\n  tag_16\n  jump\t// in\ntag_55:\n    /* \"#utility.yul\":1806:1926   */\ntag_54:\n    /* \"#utility.yul\":1965:1966   */\n  0x00\n    /* \"#utility.yul\":1990:2068   */\n  tag_56\n    /* \"#utility.yul\":2060:2067   */\n  dup8\n    /* \"#utility.yul\":2051:2057   */\n  dup3\n    /* \"#utility.yul\":2040:2049   */\n  dup9\n    /* \"#utility.yul\":2036:2058   */\n  add\n    /* \"#utility.yul\":1990:2068   */\n  tag_22\n  jump\t// in\ntag_56:\n    /* \"#utility.yul\":1980:2068   */\n  swap5\n  pop\n    /* \"#utility.yul\":1936:2078   */\n  pop\n    /* \"#utility.yul\":2117:2119   */\n  0x20\n    /* \"#utility.yul\":2143:2207   */\n  tag_57\n    /* \"#utility.yul\":2199:2206   */\n  dup8\n    /* \"#utility.yul\":2190:2196   */\n  dup3\n    /* \"#utility.yul\":2179:2188   */\n  dup9\n    /* \"#utility.yul\":2175:2197   */\n  add\n    /* \"#utility.yul\":2143:2207   */\n  tag_24\n  jump\t// in\ntag_57:\n    /* \"#utility.yul\":2133:2207   */\n  swap4\n  pop\n    /* \"#utility.yul\":2088:2217   */\n  pop\n    /* \"#utility.yul\":2256:2258   */\n  0x40\n    /* \"#utility.yul\":2282:2346   */\n  tag_58\n    /* \"#utility.yul\":2338:2345   */\n  dup8\n    /* \"#utility.yul\":2329:2335   */\n  dup3\n    /* \"#utility.yul\":2318:2327   */\n  dup9\n    /* \"#utility.yul\":2314:2336   */\n  add\n    /* \"#utility.yul\":2282:2346   */\n  tag_27\n  jump\t// in\ntag_58:\n    /* \"#utility.yul\":2272:2346   */\n  swap3\n  pop\n    /* \"#utility.yul\":2227:2356   */\n  pop\n    /* \"#utility.yul\":2395:2397   */\n  0x60\n    /* \"#utility.yul\":2421:2485   */\n  tag_59\n    /* \"#utility.yul\":2477:2484   */\n  dup8\n    /* \"#utility.yul\":2468:2474   */\n  dup3\n    /* \"#utility.yul\":2457:2466   */\n  dup9\n    /* \"#utility.yul\":2453:2475   */\n  add\n    /* \"#utility.yul\":2421:2485   */\n  tag_27\n  jump\t// in\ntag_59:\n    /* \"#utility.yul\":2411:2485   */\n  swap2\n  pop\n    /* \"#utility.yul\":2366:2495   */\n  pop\n    /* \"#utility.yul\":1654:2502   */\n  swap3\n  swap6\n  swap2\n  swap5\n  pop\n  swap3\n  pop\n  jump\t// out\n    /* \"contracts/DDTMasterChef.sol\":22650:34426  contract DDTMasterChef is Ownable {... */\ntag_12:\n  dataSize(sub_0)\n  dup1\n  dataOffset(sub_0)\n  0x00\n  codecopy\n  0x00\n  return\nstop\n\nsub_0: assembly {\n        /* \"contracts/DDTMasterChef.sol\":22650:34426  contract DDTMasterChef is Ownable {... */\n      mstore(0x40, 0x80)\n      callvalue\n      dup1\n      iszero\n      tag_1\n      jumpi\n      0x00\n      dup1\n      revert\n    tag_1:\n      pop\n      jumpi(tag_2, lt(calldatasize, 0x04))\n      shr(0xe0, calldataload(0x00))\n      dup1\n      0x68382a21\n      gt\n      tag_34\n      jumpi\n      dup1\n      0xa41fe49f\n      gt\n      tag_35\n      jumpi\n      dup1\n      0xd49e77cd\n      gt\n      tag_36\n      jumpi\n      dup1\n      0xd49e77cd\n      eq\n      tag_30\n      jumpi\n      dup1\n      0xeeac3ae8\n      eq\n      tag_31\n      jumpi\n      dup1\n      0xf2fde38b\n      eq\n      tag_32\n      jumpi\n      dup1\n      0xf395db2c\n      eq\n      tag_33\n      jumpi\n      jump(tag_2)\n    tag_36:\n      dup1\n      0xa41fe49f\n      eq\n      tag_26\n      jumpi\n      dup1\n      0xcb3cba55\n      eq\n      tag_27\n      jumpi\n      dup1\n      0xcdfb6cf3\n      eq\n      tag_28\n      jumpi\n      dup1\n      0xd0d41fe1\n      eq\n      tag_29\n      jumpi\n      jump(tag_2)\n    tag_35:\n      dup1\n      0x8aa28550\n      gt\n      tag_37\n      jumpi\n      dup1\n      0x8aa28550\n      eq\n      tag_22\n      jumpi\n      dup1\n      0x8da5cb5b\n      eq\n      tag_23\n      jumpi\n      dup1\n      0x8dbb1e3a\n      eq\n      tag_24\n      jumpi\n      dup1\n      0x93f1a40b\n      eq\n      tag_25\n      jumpi\n      jump(tag_2)\n    tag_37:\n      dup1\n      0x68382a21\n      eq\n      tag_18\n      jumpi\n      dup1\n      0x6a6d964e\n      eq\n      tag_19\n      jumpi\n      dup1\n      0x715018a6\n      eq\n      tag_20\n      jumpi\n      dup1\n      0x7cd07e47\n      eq\n      tag_21\n      jumpi\n      jump(tag_2)\n    tag_34:\n      dup1\n      0x48cd4cb1\n      gt\n      tag_38\n      jumpi\n      dup1\n      0x612eee43\n      gt\n      tag_39\n      jumpi\n      dup1\n      0x612eee43\n      eq\n      tag_14\n      jumpi\n      dup1\n      0x630b5ba1\n      eq\n      tag_15\n      jumpi\n      dup1\n      0x64482f79\n      eq\n      tag_16\n      jumpi\n      dup1\n      0x64944193\n      eq\n      tag_17\n      jumpi\n      jump(tag_2)\n    tag_39:\n      dup1\n      0x48cd4cb1\n      eq\n      tag_10\n      jumpi\n      dup1\n      0x51eb05a6\n      eq\n      tag_11\n      jumpi\n      dup1\n      0x5312ea8e\n      eq\n      tag_12\n      jumpi\n      dup1\n      0x5ffe6146\n      eq\n      tag_13\n      jumpi\n      jump(tag_2)\n    tag_38:\n      dup1\n      0x17caf6f1\n      gt\n      tag_40\n      jumpi\n      dup1\n      0x17caf6f1\n      eq\n      tag_6\n      jumpi\n      dup1\n      0x2080baab\n      eq\n      tag_7\n      jumpi\n      dup1\n      0x23cf3118\n      eq\n      tag_8\n      jumpi\n      dup1\n      0x454b0608\n      eq\n      tag_9\n      jumpi\n      jump(tag_2)\n    tag_40:\n      dup1\n      0xaeef8a\n      eq\n      tag_3\n      jumpi\n      dup1\n      0x081e3eda\n      eq\n      tag_4\n      jumpi\n      dup1\n      0x1526fe27\n      eq\n      tag_5\n      jumpi\n    tag_2:\n      0x00\n      dup1\n      revert\n        /* \"contracts/DDTMasterChef.sol\":30528:32016  function deposit(uint256 _pid,uint256 _otherChefPid, uint256 _amount) public {... */\n    tag_3:\n      tag_41\n      0x04\n      dup1\n      calldatasize\n      sub\n      dup2\n      add\n      swap1\n      tag_42\n      swap2\n      swap1\n      tag_43\n      jump\t// in\n    tag_42:\n      tag_44\n      jump\t// in\n    tag_41:\n      stop\n        /* \"contracts/DDTMasterChef.sol\":25736:25831  function poolLength() external view returns (uint256) {... */\n    tag_4:\n      tag_45\n      tag_46\n      jump\t// in\n    tag_45:\n      mload(0x40)\n      tag_47\n      swap2\n      swap1\n      tag_48\n      jump\t// in\n    tag_47:\n      mload(0x40)\n      dup1\n      swap2\n      sub\n      swap1\n      return\n        /* \"contracts/DDTMasterChef.sol\":24510:24536  PoolInfo[] public poolInfo */\n    tag_5:\n      tag_49\n      0x04\n      dup1\n      calldatasize\n      sub\n      dup2\n      add\n      swap1\n      tag_50\n      swap2\n      swap1\n      tag_51\n      jump\t// in\n    tag_50:\n      tag_52\n      jump\t// in\n    tag_49:\n      mload(0x40)\n      tag_53\n      swap9\n      swap8\n      swap7\n      swap6\n      swap5\n      swap4\n      swap3\n      swap2\n      swap1\n      tag_54\n      jump\t// in\n    tag_53:\n      mload(0x40)\n      dup1\n      swap2\n      sub\n      swap1\n      return\n        /* \"contracts/DDTMasterChef.sol\":24751:24785  uint256 public totalAllocPoint = 0 */\n    tag_6:\n      tag_55\n      tag_56\n      jump\t// in\n    tag_55:\n      mload(0x40)\n      tag_57\n      swap2\n      swap1\n      tag_48\n      jump\t// in\n    tag_57:\n      mload(0x40)\n      dup1\n      swap2\n      sub\n      swap1\n      return\n        /* \"contracts/DDTMasterChef.sol\":28441:29170  function pendingDDT(uint256 _pid, address _user) external view returns (uint256){... */\n    tag_7:\n      tag_58\n      0x04\n      dup1\n      calldatasize\n      sub\n      dup2\n      add\n      swap1\n      tag_59\n      swap2\n      swap1\n      tag_60\n      jump\t// in\n    tag_59:\n      tag_61\n      jump\t// in\n    tag_58:\n      mload(0x40)\n      tag_62\n      swap2\n      swap1\n      tag_48\n      jump\t// in\n    tag_62:\n      mload(0x40)\n      dup1\n      swap2\n      sub\n      swap1\n      return\n        /* \"contracts/DDTMasterChef.sol\":27457:27559  function setMigrator(IMigratorChef _migrator) public onlyOwner {... */\n    tag_8:\n      tag_63\n      0x04\n      dup1\n      calldatasize\n      sub\n      dup2\n      add\n      swap1\n      tag_64\n      swap2\n      swap1\n      tag_65\n      jump\t// in\n    tag_64:\n      tag_66\n      jump\t// in\n    tag_63:\n      stop\n        /* \"contracts/DDTMasterChef.sol\":27682:28158  function migrate(uint256 _pid) public {... */\n    tag_9:\n      tag_67\n      0x04\n      dup1\n      calldatasize\n      sub\n      dup2\n      add\n      swap1\n      tag_68\n      swap2\n      swap1\n      tag_51\n      jump\t// in\n    tag_68:\n      tag_69\n      jump\t// in\n    tag_67:\n      stop\n        /* \"contracts/DDTMasterChef.sol\":24841:24866  uint256 public startBlock */\n    tag_10:\n      tag_70\n      tag_71\n      jump\t// in\n    tag_70:\n      mload(0x40)\n      tag_72\n      swap2\n      swap1\n      tag_48\n      jump\t// in\n    tag_72:\n      mload(0x40)\n      dup1\n      swap2\n      sub\n      swap1\n      return\n        /* \"contracts/DDTMasterChef.sol\":29509:30214  function updatePool(uint256 _pid) public {... */\n    tag_11:\n      tag_73\n      0x04\n      dup1\n      calldatasize\n      sub\n      dup2\n      add\n      swap1\n      tag_74\n      swap2\n      swap1\n      tag_51\n      jump\t// in\n    tag_74:\n      tag_75\n      jump\t// in\n    tag_73:\n      stop\n        /* \"contracts/DDTMasterChef.sol\":33464:33820  function emergencyWithdraw(uint256 _pid) public {... */\n    tag_12:\n      tag_76\n      0x04\n      dup1\n      calldatasize\n      sub\n      dup2\n      add\n      swap1\n      tag_77\n      swap2\n      swap1\n      tag_51\n      jump\t// in\n    tag_77:\n      tag_78\n      jump\t// in\n    tag_76:\n      stop\n        /* \"contracts/DDTMasterChef.sol\":25605:25728  function updateMultiplier(uint256 multiplierNumber) public onlyOwner {... */\n    tag_13:\n      tag_79\n      0x04\n      dup1\n      calldatasize\n      sub\n      dup2\n      add\n      swap1\n      tag_80\n      swap2\n      swap1\n      tag_51\n      jump\t// in\n    tag_80:\n      tag_81\n      jump\t// in\n    tag_79:\n      stop\n        /* \"contracts/DDTMasterChef.sol\":34318:34423  function updateDDTPerBlock(uint256 newAmount) public onlyOwner {... */\n    tag_14:\n      tag_82\n      0x04\n      dup1\n      calldatasize\n      sub\n      dup2\n      add\n      swap1\n      tag_83\n      swap2\n      swap1\n      tag_51\n      jump\t// in\n    tag_83:\n      tag_84\n      jump\t// in\n    tag_82:\n      stop\n        /* \"contracts/DDTMasterChef.sol\":29253:29433  function massUpdatePools() public {... */\n    tag_15:\n      tag_85\n      tag_86\n      jump\t// in\n    tag_85:\n      stop\n        /* \"contracts/DDTMasterChef.sol\":27076:27381  function set( uint256 _pid, uint256 _allocPoint, bool _withUpdate) public onlyOwner {... */\n    tag_16:\n      tag_87\n      0x04\n      dup1\n      calldatasize\n      sub\n      dup2\n      add\n      swap1\n      tag_88\n      swap2\n      swap1\n      tag_89\n      jump\t// in\n    tag_88:\n      tag_90\n      jump\t// in\n    tag_87:\n      stop\n        /* \"contracts/DDTMasterChef.sol\":26187:26981  function add( uint256 _allocPoint, IERC20 _lpToken, bool _withUpdate, IMasterChef _poolMasterChef, IERC20 _rewardToken, uint256 _fee, uint256 _method) public onlyOwner {... */\n    tag_17:\n      tag_91\n      0x04\n      dup1\n      calldatasize\n      sub\n      dup2\n      add\n      swap1\n      tag_92\n      swap2\n      swap1\n      tag_93\n      jump\t// in\n    tag_92:\n      tag_94\n      jump\t// in\n    tag_91:\n      stop\n        /* \"contracts/DDTMasterChef.sol\":33217:33393  function emergencyWithdrawFromBSW(uint256 _pid) public onlyOwner {... */\n    tag_18:\n      tag_95\n      0x04\n      dup1\n      calldatasize\n      sub\n      dup2\n      add\n      swap1\n      tag_96\n      swap2\n      swap1\n      tag_51\n      jump\t// in\n    tag_96:\n      tag_97\n      jump\t// in\n    tag_95:\n      stop\n        /* \"contracts/DDTMasterChef.sol\":24875:24922  mapping (uint256 => uint256) public poolBalance */\n    tag_19:\n      tag_98\n      0x04\n      dup1\n      calldatasize\n      sub\n      dup2\n      add\n      swap1\n      tag_99\n      swap2\n      swap1\n      tag_51\n      jump\t// in\n    tag_99:\n      tag_100\n      jump\t// in\n    tag_98:\n      mload(0x40)\n      tag_101\n      swap2\n      swap1\n      tag_48\n      jump\t// in\n    tag_101:\n      mload(0x40)\n      dup1\n      swap2\n      sub\n      swap1\n      return\n        /* \"contracts/DDTMasterChef.sol\":20756:20859  function renounceOwnership() public virtual onlyOwner {... */\n    tag_20:\n      tag_102\n      tag_103\n      jump\t// in\n    tag_102:\n      stop\n        /* \"contracts/DDTMasterChef.sol\":24447:24476  IMigratorChef public migrator */\n    tag_21:\n      tag_104\n      tag_105\n      jump\t// in\n    tag_104:\n      mload(0x40)\n      tag_106\n      swap2\n      swap1\n      tag_107\n      jump\t// in\n    tag_106:\n      mload(0x40)\n      dup1\n      swap2\n      sub\n      swap1\n      return\n        /* \"contracts/DDTMasterChef.sol\":24307:24342  uint256 public BONUS_MULTIPLIER = 1 */\n    tag_22:\n      tag_108\n      tag_109\n      jump\t// in\n    tag_108:\n      mload(0x40)\n      tag_110\n      swap2\n      swap1\n      tag_48\n      jump\t// in\n    tag_110:\n      mload(0x40)\n      dup1\n      swap2\n      sub\n      swap1\n      return\n        /* \"contracts/DDTMasterChef.sol\":20105:20192  function owner() public view virtual returns (address) {... */\n    tag_23:\n      tag_111\n      tag_112\n      jump\t// in\n    tag_111:\n      mload(0x40)\n      tag_113\n      swap2\n      swap1\n      tag_114\n      jump\t// in\n    tag_113:\n      mload(0x40)\n      dup1\n      swap2\n      sub\n      swap1\n      return\n        /* \"contracts/DDTMasterChef.sol\":28234:28378  function getMultiplier(uint256 _from, uint256 _to) public view returns (uint256) {... */\n    tag_24:\n      tag_115\n      0x04\n      dup1\n      calldatasize\n      sub\n      dup2\n      add\n      swap1\n      tag_116\n      swap2\n      swap1\n      tag_117\n      jump\t// in\n    tag_116:\n      tag_118\n      jump\t// in\n    tag_115:\n      mload(0x40)\n      tag_119\n      swap2\n      swap1\n      tag_48\n      jump\t// in\n    tag_119:\n      mload(0x40)\n      dup1\n      swap2\n      sub\n      swap1\n      return\n        /* \"contracts/DDTMasterChef.sol\":24592:24656  mapping(uint256 => mapping(address => UserInfo)) public userInfo */\n    tag_25:\n      tag_120\n      0x04\n      dup1\n      calldatasize\n      sub\n      dup2\n      add\n      swap1\n      tag_121\n      swap2\n      swap1\n      tag_60\n      jump\t// in\n    tag_121:\n      tag_122\n      jump\t// in\n    tag_120:\n      mload(0x40)\n      tag_123\n      swap3\n      swap2\n      swap1\n      tag_124\n      jump\t// in\n    tag_123:\n      mload(0x40)\n      dup1\n      swap2\n      sub\n      swap1\n      return\n        /* \"contracts/DDTMasterChef.sol\":32068:33209  function withdraw(uint256 _pid, uint256 _otherChefPid, uint256 _amount) public {... */\n    tag_26:\n      tag_125\n      0x04\n      dup1\n      calldatasize\n      sub\n      dup2\n      add\n      swap1\n      tag_126\n      swap2\n      swap1\n      tag_43\n      jump\t// in\n    tag_126:\n      tag_127\n      jump\t// in\n    tag_125:\n      stop\n        /* \"contracts/DDTMasterChef.sol\":24116:24133  IERC20 public DDT */\n    tag_27:\n      tag_128\n      tag_129\n      jump\t// in\n    tag_128:\n      mload(0x40)\n      tag_130\n      swap2\n      swap1\n      tag_131\n      jump\t// in\n    tag_130:\n      mload(0x40)\n      dup1\n      swap2\n      sub\n      swap1\n      return\n        /* \"contracts/DDTMasterChef.sol\":25839:26016  function getUserBalance(uint256 _pid, address _user) external view returns (uint256){... */\n    tag_28:\n      tag_132\n      0x04\n      dup1\n      calldatasize\n      sub\n      dup2\n      add\n      swap1\n      tag_133\n      swap2\n      swap1\n      tag_60\n      jump\t// in\n    tag_133:\n      tag_134\n      jump\t// in\n    tag_132:\n      mload(0x40)\n      tag_135\n      swap2\n      swap1\n      tag_48\n      jump\t// in\n    tag_135:\n      mload(0x40)\n      dup1\n      swap2\n      sub\n      swap1\n      return\n        /* \"contracts/DDTMasterChef.sol\":34217:34312  function setDevAddress(address _devaddr) public onlyOwner {... */\n    tag_29:\n      tag_136\n      0x04\n      dup1\n      calldatasize\n      sub\n      dup2\n      add\n      swap1\n      tag_137\n      swap2\n      swap1\n      tag_138\n      jump\t// in\n    tag_137:\n      tag_139\n      jump\t// in\n    tag_136:\n      stop\n        /* \"contracts/DDTMasterChef.sol\":24161:24183  address public devaddr */\n    tag_30:\n      tag_140\n      tag_141\n      jump\t// in\n    tag_140:\n      mload(0x40)\n      tag_142\n      swap2\n      swap1\n      tag_114\n      jump\t// in\n    tag_142:\n      mload(0x40)\n      dup1\n      swap2\n      sub\n      swap1\n      return\n        /* \"contracts/DDTMasterChef.sol\":30222:30460  function enablePool(uint256 _pid) public {... */\n    tag_31:\n      tag_143\n      0x04\n      dup1\n      calldatasize\n      sub\n      dup2\n      add\n      swap1\n      tag_144\n      swap2\n      swap1\n      tag_51\n      jump\t// in\n    tag_144:\n      tag_145\n      jump\t// in\n    tag_143:\n      stop\n        /* \"contracts/DDTMasterChef.sol\":21014:21215  function transferOwnership(address newOwner) public virtual onlyOwner {... */\n    tag_32:\n      tag_146\n      0x04\n      dup1\n      calldatasize\n      sub\n      dup2\n      add\n      swap1\n      tag_147\n      swap2\n      swap1\n      tag_138\n      jump\t// in\n    tag_147:\n      tag_148\n      jump\t// in\n    tag_146:\n      stop\n        /* \"contracts/DDTMasterChef.sol\":24228:24254  uint256 public DDTPerBlock */\n    tag_33:\n      tag_149\n      tag_150\n      jump\t// in\n    tag_149:\n      mload(0x40)\n      tag_151\n      swap2\n      swap1\n      tag_48\n      jump\t// in\n    tag_151:\n      mload(0x40)\n      dup1\n      swap2\n      sub\n      swap1\n      return\n        /* \"contracts/DDTMasterChef.sol\":30528:32016  function deposit(uint256 _pid,uint256 _otherChefPid, uint256 _amount) public {... */\n    tag_44:\n        /* \"contracts/DDTMasterChef.sol\":30618:30639  PoolInfo storage pool */\n      0x00\n        /* \"contracts/DDTMasterChef.sol\":30642:30650  poolInfo */\n      0x06\n        /* \"contracts/DDTMasterChef.sol\":30651:30655  _pid */\n      dup5\n        /* \"contracts/DDTMasterChef.sol\":30642:30656  poolInfo[_pid] */\n      dup2\n      sload\n      dup2\n      lt\n      tag_153\n      jumpi\n      tag_154\n      tag_155\n      jump\t// in\n    tag_154:\n    tag_153:\n      swap1\n      0x00\n      mstore\n      keccak256(0x00, 0x20)\n      swap1\n      0x08\n      mul\n      add\n        /* \"contracts/DDTMasterChef.sol\":30618:30656  PoolInfo storage pool = poolInfo[_pid] */\n      swap1\n      pop\n        /* \"contracts/DDTMasterChef.sol\":30667:30688  UserInfo storage user */\n      0x00\n        /* \"contracts/DDTMasterChef.sol\":30691:30699  userInfo */\n      0x07\n        /* \"contracts/DDTMasterChef.sol\":30691:30705  userInfo[_pid] */\n      0x00\n        /* \"contracts/DDTMasterChef.sol\":30700:30704  _pid */\n      dup7\n        /* \"contracts/DDTMasterChef.sol\":30691:30705  userInfo[_pid] */\n      dup2\n      mstore\n      0x20\n      add\n      swap1\n      dup2\n      mstore\n      0x20\n      add\n      0x00\n      keccak256\n        /* \"contracts/DDTMasterChef.sol\":30691:30717  userInfo[_pid][msg.sender] */\n      0x00\n        /* \"contracts/DDTMasterChef.sol\":30706:30716  msg.sender */\n      caller\n        /* \"contracts/DDTMasterChef.sol\":30691:30717  userInfo[_pid][msg.sender] */\n      0xffffffffffffffffffffffffffffffffffffffff\n      and\n      0xffffffffffffffffffffffffffffffffffffffff\n      and\n      dup2\n      mstore\n      0x20\n      add\n      swap1\n      dup2\n      mstore\n      0x20\n      add\n      0x00\n      keccak256\n        /* \"contracts/DDTMasterChef.sol\":30667:30717  UserInfo storage user = userInfo[_pid][msg.sender] */\n      swap1\n      pop\n        /* \"contracts/DDTMasterChef.sol\":30728:30744  updatePool(_pid) */\n      tag_157\n        /* \"contracts/DDTMasterChef.sol\":30739:30743  _pid */\n      dup6\n        /* \"contracts/DDTMasterChef.sol\":30728:30738  updatePool */\n      tag_75\n        /* \"contracts/DDTMasterChef.sol\":30728:30744  updatePool(_pid) */\n      jump\t// in\n    tag_157:\n        /* \"contracts/DDTMasterChef.sol\":30773:30774  0 */\n      0x00\n        /* \"contracts/DDTMasterChef.sol\":30759:30763  user */\n      dup2\n        /* \"contracts/DDTMasterChef.sol\":30759:30770  user.amount */\n      0x00\n      add\n      sload\n        /* \"contracts/DDTMasterChef.sol\":30759:30774  user.amount > 0 */\n      gt\n        /* \"contracts/DDTMasterChef.sol\":30755:30997  if (user.amount > 0) {... */\n      iszero\n      tag_158\n      jumpi\n        /* \"contracts/DDTMasterChef.sol\":30791:30806  uint256 pending */\n      0x00\n        /* \"contracts/DDTMasterChef.sol\":30809:30876  user.amount.mul(pool.accDDTPerShare).div(1e12).sub(user.rewardDebt) */\n      tag_159\n        /* \"contracts/DDTMasterChef.sol\":30860:30864  user */\n      dup3\n        /* \"contracts/DDTMasterChef.sol\":30860:30875  user.rewardDebt */\n      0x01\n      add\n      sload\n        /* \"contracts/DDTMasterChef.sol\":30809:30855  user.amount.mul(pool.accDDTPerShare).div(1e12) */\n      tag_160\n        /* \"contracts/DDTMasterChef.sol\":30850:30854  1e12 */\n      0xe8d4a51000\n        /* \"contracts/DDTMasterChef.sol\":30809:30845  user.amount.mul(pool.accDDTPerShare) */\n      tag_161\n        /* \"contracts/DDTMasterChef.sol\":30825:30829  pool */\n      dup8\n        /* \"contracts/DDTMasterChef.sol\":30825:30844  pool.accDDTPerShare */\n      0x03\n      add\n      sload\n        /* \"contracts/DDTMasterChef.sol\":30809:30813  user */\n      dup8\n        /* \"contracts/DDTMasterChef.sol\":30809:30820  user.amount */\n      0x00\n      add\n      sload\n        /* \"contracts/DDTMasterChef.sol\":30809:30824  user.amount.mul */\n      tag_162\n      swap1\n        /* \"contracts/DDTMasterChef.sol\":30809:30845  user.amount.mul(pool.accDDTPerShare) */\n      swap2\n      swap1\n      0xffffffff\n      and\n      jump\t// in\n    tag_161:\n        /* \"contracts/DDTMasterChef.sol\":30809:30849  user.amount.mul(pool.accDDTPerShare).div */\n      tag_163\n      swap1\n        /* \"contracts/DDTMasterChef.sol\":30809:30855  user.amount.mul(pool.accDDTPerShare).div(1e12) */\n      swap2\n      swap1\n      0xffffffff\n      and\n      jump\t// in\n    tag_160:\n        /* \"contracts/DDTMasterChef.sol\":30809:30859  user.amount.mul(pool.accDDTPerShare).div(1e12).sub */\n      tag_164\n      swap1\n        /* \"contracts/DDTMasterChef.sol\":30809:30876  user.amount.mul(pool.accDDTPerShare).div(1e12).sub(user.rewardDebt) */\n      swap2\n      swap1\n      0xffffffff\n      and\n      jump\t// in\n    tag_159:\n        /* \"contracts/DDTMasterChef.sol\":30791:30876  uint256 pending = user.amount.mul(pool.accDDTPerShare).div(1e12).sub(user.rewardDebt) */\n      swap1\n      pop\n        /* \"contracts/DDTMasterChef.sol\":30904:30905  0 */\n      0x00\n        /* \"contracts/DDTMasterChef.sol\":30894:30901  pending */\n      dup2\n        /* \"contracts/DDTMasterChef.sol\":30894:30905  pending > 0 */\n      gt\n        /* \"contracts/DDTMasterChef.sol\":30891:30986  if(pending > 0){... */\n      iszero\n      tag_165\n      jumpi\n        /* \"contracts/DDTMasterChef.sol\":30925:30970  safeDDTTransfer(address(msg.sender), pending) */\n      tag_166\n        /* \"contracts/DDTMasterChef.sol\":30949:30959  msg.sender */\n      caller\n        /* \"contracts/DDTMasterChef.sol\":30962:30969  pending */\n      dup3\n        /* \"contracts/DDTMasterChef.sol\":30925:30940  safeDDTTransfer */\n      tag_167\n        /* \"contracts/DDTMasterChef.sol\":30925:30970  safeDDTTransfer(address(msg.sender), pending) */\n      jump\t// in\n    tag_166:\n        /* \"contracts/DDTMasterChef.sol\":30891:30986  if(pending > 0){... */\n    tag_165:\n        /* \"contracts/DDTMasterChef.sol\":30776:30997  {... */\n      pop\n        /* \"contracts/DDTMasterChef.sol\":30755:30997  if (user.amount > 0) {... */\n    tag_158:\n        /* \"contracts/DDTMasterChef.sol\":31081:31088  _amount */\n      dup3\n        /* \"contracts/DDTMasterChef.sol\":31010:31014  pool */\n      dup3\n        /* \"contracts/DDTMasterChef.sol\":31010:31022  pool.lpToken */\n      0x00\n      add\n      0x00\n      swap1\n      sload\n      swap1\n      0x0100\n      exp\n      swap1\n      div\n      0xffffffffffffffffffffffffffffffffffffffff\n      and\n        /* \"contracts/DDTMasterChef.sol\":31010:31032  pool.lpToken.allowance */\n      0xffffffffffffffffffffffffffffffffffffffff\n      and\n      0xdd62ed3e\n        /* \"contracts/DDTMasterChef.sol\":31041:31045  this */\n      address\n        /* \"contracts/DDTMasterChef.sol\":31056:31060  pool */\n      dup6\n        /* \"contracts/DDTMasterChef.sol\":31056:31075  pool.poolMasterChef */\n      0x04\n      add\n      0x00\n      swap1\n      sload\n      swap1\n      0x0100\n      exp\n      swap1\n      div\n      0xffffffffffffffffffffffffffffffffffffffff\n      and\n        /* \"contracts/DDTMasterChef.sol\":31010:31077  pool.lpToken.allowance(address(this), address(pool.poolMasterChef)) */\n      mload(0x40)\n      dup4\n      0xffffffff\n      and\n      0xe0\n      shl\n      dup2\n      mstore\n      0x04\n      add\n      tag_168\n      swap3\n      swap2\n      swap1\n      tag_169\n      jump\t// in\n    tag_168:\n      0x20\n      mload(0x40)\n      dup1\n      dup4\n      sub\n      dup2\n      dup7\n      gas\n      staticcall\n      iszero\n      dup1\n      iszero\n      tag_171\n      jumpi\n      returndatasize\n      0x00\n      dup1\n      returndatacopy\n      revert(0x00, returndatasize)\n    tag_171:\n      pop\n      pop\n      pop\n      pop\n      mload(0x40)\n      returndatasize\n      not(0x1f)\n      0x1f\n      dup3\n      add\n      and\n      dup3\n      add\n      dup1\n      0x40\n      mstore\n      pop\n      dup2\n      add\n      swap1\n      tag_172\n      swap2\n      swap1\n      tag_173\n      jump\t// in\n    tag_172:\n        /* \"contracts/DDTMasterChef.sol\":31010:31088  pool.lpToken.allowance(address(this), address(pool.poolMasterChef)) <= _amount */\n      gt\n        /* \"contracts/DDTMasterChef.sol\":31007:31132  if(pool.lpToken.allowance(address(this), address(pool.poolMasterChef)) <= _amount){... */\n      tag_174\n      jumpi\n        /* \"contracts/DDTMasterChef.sol\":31104:31120  enablePool(_pid) */\n      tag_175\n        /* \"contracts/DDTMasterChef.sol\":31115:31119  _pid */\n      dup6\n        /* \"contracts/DDTMasterChef.sol\":31104:31114  enablePool */\n      tag_145\n        /* \"contracts/DDTMasterChef.sol\":31104:31120  enablePool(_pid) */\n      jump\t// in\n    tag_175:\n        /* \"contracts/DDTMasterChef.sol\":31007:31132  if(pool.lpToken.allowance(address(this), address(pool.poolMasterChef)) <= _amount){... */\n    tag_174:\n        /* \"contracts/DDTMasterChef.sol\":31142:31153  uint256 fee */\n      0x00\n        /* \"contracts/DDTMasterChef.sol\":31156:31190  _amount.mul(pool.fee).div(percent) */\n      tag_176\n        /* \"contracts/DDTMasterChef.sol\":31182:31189  percent */\n      sload(0x0c)\n        /* \"contracts/DDTMasterChef.sol\":31156:31177  _amount.mul(pool.fee) */\n      tag_177\n        /* \"contracts/DDTMasterChef.sol\":31168:31172  pool */\n      dup6\n        /* \"contracts/DDTMasterChef.sol\":31168:31176  pool.fee */\n      0x06\n      add\n      sload\n        /* \"contracts/DDTMasterChef.sol\":31156:31163  _amount */\n      dup8\n        /* \"contracts/DDTMasterChef.sol\":31156:31167  _amount.mul */\n      tag_162\n      swap1\n        /* \"contracts/DDTMasterChef.sol\":31156:31177  _amount.mul(pool.fee) */\n      swap2\n      swap1\n      0xffffffff\n      and\n      jump\t// in\n    tag_177:\n        /* \"contracts/DDTMasterChef.sol\":31156:31181  _amount.mul(pool.fee).div */\n      tag_163\n      swap1\n        /* \"contracts/DDTMasterChef.sol\":31156:31190  _amount.mul(pool.fee).div(percent) */\n      swap2\n      swap1\n      0xffffffff\n      and\n      jump\t// in\n    tag_176:\n        /* \"contracts/DDTMasterChef.sol\":31142:31190  uint256 fee = _amount.mul(pool.fee).div(percent) */\n      swap1\n      pop\n        /* \"contracts/DDTMasterChef.sol\":31201:31218  uint256 newAmount */\n      0x00\n        /* \"contracts/DDTMasterChef.sol\":31221:31237  _amount.sub(fee) */\n      tag_178\n        /* \"contracts/DDTMasterChef.sol\":31233:31236  fee */\n      dup3\n        /* \"contracts/DDTMasterChef.sol\":31221:31228  _amount */\n      dup7\n        /* \"contracts/DDTMasterChef.sol\":31221:31232  _amount.sub */\n      tag_164\n      swap1\n        /* \"contracts/DDTMasterChef.sol\":31221:31237  _amount.sub(fee) */\n      swap2\n      swap1\n      0xffffffff\n      and\n      jump\t// in\n    tag_178:\n        /* \"contracts/DDTMasterChef.sol\":31201:31237  uint256 newAmount = _amount.sub(fee) */\n      swap1\n      pop\n        /* \"contracts/DDTMasterChef.sol\":31248:31324  pool.lpToken.safeTransferFrom(address(msg.sender), address(this), newAmount) */\n      tag_179\n        /* \"contracts/DDTMasterChef.sol\":31286:31296  msg.sender */\n      caller\n        /* \"contracts/DDTMasterChef.sol\":31307:31311  this */\n      address\n        /* \"contracts/DDTMasterChef.sol\":31314:31323  newAmount */\n      dup4\n        /* \"contracts/DDTMasterChef.sol\":31248:31252  pool */\n      dup8\n        /* \"contracts/DDTMasterChef.sol\":31248:31260  pool.lpToken */\n      0x00\n      add\n      0x00\n      swap1\n      sload\n      swap1\n      0x0100\n      exp\n      swap1\n      div\n      0xffffffffffffffffffffffffffffffffffffffff\n      and\n        /* \"contracts/DDTMasterChef.sol\":31248:31277  pool.lpToken.safeTransferFrom */\n      0xffffffffffffffffffffffffffffffffffffffff\n      and\n      tag_180\n      swap1\n        /* \"contracts/DDTMasterChef.sol\":31248:31324  pool.lpToken.safeTransferFrom(address(msg.sender), address(this), newAmount) */\n      swap4\n      swap3\n      swap2\n      swap1\n      0xffffffff\n      and\n      jump\t// in\n    tag_179:\n        /* \"contracts/DDTMasterChef.sol\":31335:31408  pool.lpToken.safeTransferFrom(address(msg.sender), address(devaddr), fee) */\n      tag_181\n        /* \"contracts/DDTMasterChef.sol\":31373:31383  msg.sender */\n      caller\n        /* \"contracts/DDTMasterChef.sol\":31394:31401  devaddr */\n      0x02\n      0x00\n      swap1\n      sload\n      swap1\n      0x0100\n      exp\n      swap1\n      div\n      0xffffffffffffffffffffffffffffffffffffffff\n      and\n        /* \"contracts/DDTMasterChef.sol\":31404:31407  fee */\n      dup5\n        /* \"contracts/DDTMasterChef.sol\":31335:31339  pool */\n      dup8\n        /* \"contracts/DDTMasterChef.sol\":31335:31347  pool.lpToken */\n      0x00\n      add\n      0x00\n      swap1\n      sload\n      swap1\n      0x0100\n      exp\n      swap1\n      div\n      0xffffffffffffffffffffffffffffffffffffffff\n      and\n        /* \"contracts/DDTMasterChef.sol\":31335:31364  pool.lpToken.safeTransferFrom */\n      0xffffffffffffffffffffffffffffffffffffffff\n      and\n      tag_180\n      swap1\n        /* \"contracts/DDTMasterChef.sol\":31335:31408  pool.lpToken.safeTransferFrom(address(msg.sender), address(devaddr), fee) */\n      swap4\n      swap3\n      swap2\n      swap1\n      0xffffffff\n      and\n      jump\t// in\n    tag_181:\n        /* \"contracts/DDTMasterChef.sol\":31437:31438  0 */\n      0x00\n        /* \"contracts/DDTMasterChef.sol\":31422:31426  pool */\n      dup5\n        /* \"contracts/DDTMasterChef.sol\":31422:31433  pool.method */\n      0x07\n      add\n      sload\n        /* \"contracts/DDTMasterChef.sol\":31422:31438  pool.method == 0 */\n      sub\n        /* \"contracts/DDTMasterChef.sol\":31419:31593  if(pool.method == 0){... */\n      tag_182\n      jumpi\n        /* \"contracts/DDTMasterChef.sol\":31454:31458  pool */\n      dup4\n        /* \"contracts/DDTMasterChef.sol\":31454:31473  pool.poolMasterChef */\n      0x04\n      add\n      0x00\n      swap1\n      sload\n      swap1\n      0x0100\n      exp\n      swap1\n      div\n      0xffffffffffffffffffffffffffffffffffffffff\n      and\n        /* \"contracts/DDTMasterChef.sol\":31454:31486  pool.poolMasterChef.enterStaking */\n      0xffffffffffffffffffffffffffffffffffffffff\n      and\n      0x41441d3b\n        /* \"contracts/DDTMasterChef.sol\":31487:31496  newAmount */\n      dup3\n        /* \"contracts/DDTMasterChef.sol\":31454:31497  pool.poolMasterChef.enterStaking(newAmount) */\n      mload(0x40)\n      dup3\n      0xffffffff\n      and\n      0xe0\n      shl\n      dup2\n      mstore\n      0x04\n      add\n      tag_183\n      swap2\n      swap1\n      tag_48\n      jump\t// in\n    tag_183:\n      0x00\n      mload(0x40)\n      dup1\n      dup4\n      sub\n      dup2\n      0x00\n      dup8\n      dup1\n      extcodesize\n      iszero\n      dup1\n      iszero\n      tag_184\n      jumpi\n      0x00\n      dup1\n      revert\n    tag_184:\n      pop\n      gas\n      call\n      iszero\n      dup1\n      iszero\n      tag_186\n      jumpi\n      returndatasize\n      0x00\n      dup1\n      returndatacopy\n      revert(0x00, returndatasize)\n    tag_186:\n      pop\n      pop\n      pop\n      pop\n        /* \"contracts/DDTMasterChef.sol\":31419:31593  if(pool.method == 0){... */\n      jump(tag_187)\n    tag_182:\n        /* \"contracts/DDTMasterChef.sol\":31528:31532  pool */\n      dup4\n        /* \"contracts/DDTMasterChef.sol\":31528:31547  pool.poolMasterChef */\n      0x04\n      add\n      0x00\n      swap1\n      sload\n      swap1\n      0x0100\n      exp\n      swap1\n      div\n      0xffffffffffffffffffffffffffffffffffffffff\n      and\n        /* \"contracts/DDTMasterChef.sol\":31528:31555  pool.poolMasterChef.deposit */\n      0xffffffffffffffffffffffffffffffffffffffff\n      and\n      0xe2bbb158\n        /* \"contracts/DDTMasterChef.sol\":31556:31569  _otherChefPid */\n      dup8\n        /* \"contracts/DDTMasterChef.sol\":31571:31580  newAmount */\n      dup4\n        /* \"contracts/DDTMasterChef.sol\":31528:31581  pool.poolMasterChef.deposit(_otherChefPid, newAmount) */\n      mload(0x40)\n      dup4\n      0xffffffff\n      and\n      0xe0\n      shl\n      dup2\n      mstore\n      0x04\n      add\n      tag_188\n      swap3\n      swap2\n      swap1\n      tag_124\n      jump\t// in\n    tag_188:\n      0x00\n      mload(0x40)\n      dup1\n      dup4\n      sub\n      dup2\n      0x00\n      dup8\n      dup1\n      extcodesize\n      iszero\n      dup1\n      iszero\n      tag_189\n      jumpi\n      0x00\n      dup1\n      revert\n    tag_189:\n      pop\n      gas\n      call\n      iszero\n      dup1\n      iszero\n      tag_191\n      jumpi\n      returndatasize\n      0x00\n      dup1\n      returndatacopy\n      revert(0x00, returndatasize)\n    tag_191:\n      pop\n      pop\n      pop\n      pop\n        /* \"contracts/DDTMasterChef.sol\":31419:31593  if(pool.method == 0){... */\n    tag_187:\n        /* \"contracts/DDTMasterChef.sol\":31617:31643  user.amount.add(newAmount) */\n      tag_192\n        /* \"contracts/DDTMasterChef.sol\":31633:31642  newAmount */\n      dup2\n        /* \"contracts/DDTMasterChef.sol\":31617:31621  user */\n      dup5\n        /* \"contracts/DDTMasterChef.sol\":31617:31628  user.amount */\n      0x00\n      add\n      sload\n        /* \"contracts/DDTMasterChef.sol\":31617:31632  user.amount.add */\n      tag_193\n      swap1\n        /* \"contracts/DDTMasterChef.sol\":31617:31643  user.amount.add(newAmount) */\n      swap2\n      swap1\n      0xffffffff\n      and\n      jump\t// in\n    tag_192:\n        /* \"contracts/DDTMasterChef.sol\":31603:31607  user */\n      dup4\n        /* \"contracts/DDTMasterChef.sol\":31603:31614  user.amount */\n      0x00\n      add\n        /* \"contracts/DDTMasterChef.sol\":31603:31643  user.amount = user.amount.add(newAmount) */\n      dup2\n      swap1\n      sstore\n      pop\n        /* \"contracts/DDTMasterChef.sol\":31674:31706  poolBalance[_pid].add(newAmount) */\n      tag_194\n        /* \"contracts/DDTMasterChef.sol\":31696:31705  newAmount */\n      dup2\n        /* \"contracts/DDTMasterChef.sol\":31674:31685  poolBalance */\n      0x0a\n        /* \"contracts/DDTMasterChef.sol\":31674:31691  poolBalance[_pid] */\n      0x00\n        /* \"contracts/DDTMasterChef.sol\":31686:31690  _pid */\n      dup11\n        /* \"contracts/DDTMasterChef.sol\":31674:31691  poolBalance[_pid] */\n      dup2\n      mstore\n      0x20\n      add\n      swap1\n      dup2\n      mstore\n      0x20\n      add\n      0x00\n      keccak256\n      sload\n        /* \"contracts/DDTMasterChef.sol\":31674:31695  poolBalance[_pid].add */\n      tag_193\n      swap1\n        /* \"contracts/DDTMasterChef.sol\":31674:31706  poolBalance[_pid].add(newAmount) */\n      swap2\n      swap1\n      0xffffffff\n      and\n      jump\t// in\n    tag_194:\n        /* \"contracts/DDTMasterChef.sol\":31654:31665  poolBalance */\n      0x0a\n        /* \"contracts/DDTMasterChef.sol\":31654:31671  poolBalance[_pid] */\n      0x00\n        /* \"contracts/DDTMasterChef.sol\":31666:31670  _pid */\n      dup10\n        /* \"contracts/DDTMasterChef.sol\":31654:31671  poolBalance[_pid] */\n      dup2\n      mstore\n      0x20\n      add\n      swap1\n      dup2\n      mstore\n      0x20\n      add\n      0x00\n      keccak256\n        /* \"contracts/DDTMasterChef.sol\":31654:31706  poolBalance[_pid] = poolBalance[_pid].add(newAmount) */\n      dup2\n      swap1\n      sstore\n      pop\n        /* \"contracts/DDTMasterChef.sol\":31735:31781  user.amount.mul(pool.accDDTPerShare).div(1e12) */\n      tag_195\n        /* \"contracts/DDTMasterChef.sol\":31776:31780  1e12 */\n      0xe8d4a51000\n        /* \"contracts/DDTMasterChef.sol\":31735:31771  user.amount.mul(pool.accDDTPerShare) */\n      tag_196\n        /* \"contracts/DDTMasterChef.sol\":31751:31755  pool */\n      dup7\n        /* \"contracts/DDTMasterChef.sol\":31751:31770  pool.accDDTPerShare */\n      0x03\n      add\n      sload\n        /* \"contracts/DDTMasterChef.sol\":31735:31739  user */\n      dup7\n        /* \"contracts/DDTMasterChef.sol\":31735:31746  user.amount */\n      0x00\n      add\n      sload\n        /* \"contracts/DDTMasterChef.sol\":31735:31750  user.amount.mul */\n      tag_162\n      swap1\n        /* \"contracts/DDTMasterChef.sol\":31735:31771  user.amount.mul(pool.accDDTPerShare) */\n      swap2\n      swap1\n      0xffffffff\n      and\n      jump\t// in\n    tag_196:\n        /* \"contracts/DDTMasterChef.sol\":31735:31775  user.amount.mul(pool.accDDTPerShare).div */\n      tag_163\n      swap1\n        /* \"contracts/DDTMasterChef.sol\":31735:31781  user.amount.mul(pool.accDDTPerShare).div(1e12) */\n      swap2\n      swap1\n      0xffffffff\n      and\n      jump\t// in\n    tag_195:\n        /* \"contracts/DDTMasterChef.sol\":31717:31721  user */\n      dup4\n        /* \"contracts/DDTMasterChef.sol\":31717:31732  user.rewardDebt */\n      0x01\n      add\n        /* \"contracts/DDTMasterChef.sol\":31717:31781  user.rewardDebt = user.amount.mul(pool.accDDTPerShare).div(1e12) */\n      dup2\n      swap1\n      sstore\n      pop\n        /* \"contracts/DDTMasterChef.sol\":31792:31806  uint256 reward */\n      0x00\n        /* \"contracts/DDTMasterChef.sol\":31809:31813  pool */\n      dup5\n        /* \"contracts/DDTMasterChef.sol\":31809:31825  pool.rewardToken */\n      0x05\n      add\n      0x00\n      swap1\n      sload\n      swap1\n      0x0100\n      exp\n      swap1\n      div\n      0xffffffffffffffffffffffffffffffffffffffff\n      and\n        /* \"contracts/DDTMasterChef.sol\":31809:31835  pool.rewardToken.balanceOf */\n      0xffffffffffffffffffffffffffffffffffffffff\n      and\n      0x70a08231\n        /* \"contracts/DDTMasterChef.sol\":31844:31848  this */\n      address\n        /* \"contracts/DDTMasterChef.sol\":31809:31850  pool.rewardToken.balanceOf(address(this)) */\n      mload(0x40)\n      dup3\n      0xffffffff\n      and\n      0xe0\n      shl\n      dup2\n      mstore\n      0x04\n      add\n      tag_197\n      swap2\n      swap1\n      tag_114\n      jump\t// in\n    tag_197:\n      0x20\n      mload(0x40)\n      dup1\n      dup4\n      sub\n      dup2\n      dup7\n      gas\n      staticcall\n      iszero\n      dup1\n      iszero\n      tag_199\n      jumpi\n      returndatasize\n      0x00\n      dup1\n      returndatacopy\n      revert(0x00, returndatasize)\n    tag_199:\n      pop\n      pop\n      pop\n      pop\n      mload(0x40)\n      returndatasize\n      not(0x1f)\n      0x1f\n      dup3\n      add\n      and\n      dup3\n      add\n      dup1\n      0x40\n      mstore\n      pop\n      dup2\n      add\n      swap1\n      tag_200\n      swap2\n      swap1\n      tag_173\n      jump\t// in\n    tag_200:\n        /* \"contracts/DDTMasterChef.sol\":31792:31850  uint256 reward = pool.rewardToken.balanceOf(address(this)) */\n      swap1\n      pop\n        /* \"contracts/DDTMasterChef.sol\":31873:31874  0 */\n      0x00\n        /* \"contracts/DDTMasterChef.sol\":31864:31870  reward */\n      dup2\n        /* \"contracts/DDTMasterChef.sol\":31864:31874  reward > 0 */\n      gt\n        /* \"contracts/DDTMasterChef.sol\":31861:31957  if(reward > 0){... */\n      iszero\n      tag_201\n      jumpi\n        /* \"contracts/DDTMasterChef.sol\":31890:31945  pool.rewardToken.safeTransfer(address(devaddr), reward) */\n      tag_202\n        /* \"contracts/DDTMasterChef.sol\":31928:31935  devaddr */\n      0x02\n      0x00\n      swap1\n      sload\n      swap1\n      0x0100\n      exp\n      swap1\n      div\n      0xffffffffffffffffffffffffffffffffffffffff\n      and\n        /* \"contracts/DDTMasterChef.sol\":31938:31944  reward */\n      dup3\n        /* \"contracts/DDTMasterChef.sol\":31890:31894  pool */\n      dup8\n        /* \"contracts/DDTMasterChef.sol\":31890:31906  pool.rewardToken */\n      0x05\n      add\n      0x00\n      swap1\n      sload\n      swap1\n      0x0100\n      exp\n      swap1\n      div\n      0xffffffffffffffffffffffffffffffffffffffff\n      and\n        /* \"contracts/DDTMasterChef.sol\":31890:31919  pool.rewardToken.safeTransfer */\n      0xffffffffffffffffffffffffffffffffffffffff\n      and\n      tag_203\n      swap1\n        /* \"contracts/DDTMasterChef.sol\":31890:31945  pool.rewardToken.safeTransfer(address(devaddr), reward) */\n      swap3\n      swap2\n      swap1\n      0xffffffff\n      and\n      jump\t// in\n    tag_202:\n        /* \"contracts/DDTMasterChef.sol\":31861:31957  if(reward > 0){... */\n    tag_201:\n        /* \"contracts/DDTMasterChef.sol\":31992:31996  _pid */\n      dup8\n        /* \"contracts/DDTMasterChef.sol\":31980:31990  msg.sender */\n      caller\n        /* \"contracts/DDTMasterChef.sol\":31972:32008  Deposit(msg.sender, _pid, newAmount) */\n      0xffffffffffffffffffffffffffffffffffffffff\n      and\n      0x90890809c654f11d6e72a28fa60149770a0d11ec6c92319d6ceb2bb0a4ea1a15\n        /* \"contracts/DDTMasterChef.sol\":31998:32007  newAmount */\n      dup5\n        /* \"contracts/DDTMasterChef.sol\":31972:32008  Deposit(msg.sender, _pid, newAmount) */\n      mload(0x40)\n      tag_204\n      swap2\n      swap1\n      tag_48\n      jump\t// in\n    tag_204:\n      mload(0x40)\n      dup1\n      swap2\n      sub\n      swap1\n      log3\n        /* \"contracts/DDTMasterChef.sol\":30605:32016  {... */\n      pop\n      pop\n      pop\n      pop\n      pop\n        /* \"contracts/DDTMasterChef.sol\":30528:32016  function deposit(uint256 _pid,uint256 _otherChefPid, uint256 _amount) public {... */\n      pop\n      pop\n      pop\n      jump\t// out\n        /* \"contracts/DDTMasterChef.sol\":25736:25831  function poolLength() external view returns (uint256) {... */\n    tag_46:\n        /* \"contracts/DDTMasterChef.sol\":25781:25788  uint256 */\n      0x00\n        /* \"contracts/DDTMasterChef.sol\":25808:25816  poolInfo */\n      0x06\n        /* \"contracts/DDTMasterChef.sol\":25808:25823  poolInfo.length */\n      dup1\n      sload\n      swap1\n      pop\n        /* \"contracts/DDTMasterChef.sol\":25801:25823  return poolInfo.length */\n      swap1\n      pop\n        /* \"contracts/DDTMasterChef.sol\":25736:25831  function poolLength() external view returns (uint256) {... */\n      swap1\n      jump\t// out\n        /* \"contracts/DDTMasterChef.sol\":24510:24536  PoolInfo[] public poolInfo */\n    tag_52:\n      0x06\n      dup2\n      dup2\n      sload\n      dup2\n      lt\n      tag_206\n      jumpi\n      0x00\n      dup1\n      revert\n    tag_206:\n      swap1\n      0x00\n      mstore\n      keccak256(0x00, 0x20)\n      swap1\n      0x08\n      mul\n      add\n      0x00\n      swap2\n      pop\n      swap1\n      pop\n      dup1\n      0x00\n      add\n      0x00\n      swap1\n      sload\n      swap1\n      0x0100\n      exp\n      swap1\n      div\n      0xffffffffffffffffffffffffffffffffffffffff\n      and\n      swap1\n      dup1\n      0x01\n      add\n      sload\n      swap1\n      dup1\n      0x02\n      add\n      sload\n      swap1\n      dup1\n      0x03\n      add\n      sload\n      swap1\n      dup1\n      0x04\n      add\n      0x00\n      swap1\n      sload\n      swap1\n      0x0100\n      exp\n      swap1\n      div\n      0xffffffffffffffffffffffffffffffffffffffff\n      and\n      swap1\n      dup1\n      0x05\n      add\n      0x00\n      swap1\n      sload\n      swap1\n      0x0100\n      exp\n      swap1\n      div\n      0xffffffffffffffffffffffffffffffffffffffff\n      and\n      swap1\n      dup1\n      0x06\n      add\n      sload\n      swap1\n      dup1\n      0x07\n      add\n      sload\n      swap1\n      pop\n      dup9\n      jump\t// out\n        /* \"contracts/DDTMasterChef.sol\":24751:24785  uint256 public totalAllocPoint = 0 */\n    tag_56:\n      sload(0x08)\n      dup2\n      jump\t// out\n        /* \"contracts/DDTMasterChef.sol\":28441:29170  function pendingDDT(uint256 _pid, address _user) external view returns (uint256){... */\n    tag_61:\n        /* \"contracts/DDTMasterChef.sol\":28513:28520  uint256 */\n      0x00\n        /* \"contracts/DDTMasterChef.sol\":28532:28553  PoolInfo storage pool */\n      dup1\n        /* \"contracts/DDTMasterChef.sol\":28556:28564  poolInfo */\n      0x06\n        /* \"contracts/DDTMasterChef.sol\":28565:28569  _pid */\n      dup5\n        /* \"contracts/DDTMasterChef.sol\":28556:28570  poolInfo[_pid] */\n      dup2\n      sload\n      dup2\n      lt\n      tag_209\n      jumpi\n      tag_210\n      tag_155\n      jump\t// in\n    tag_210:\n    tag_209:\n      swap1\n      0x00\n      mstore\n      keccak256(0x00, 0x20)\n      swap1\n      0x08\n      mul\n      add\n        /* \"contracts/DDTMasterChef.sol\":28532:28570  PoolInfo storage pool = poolInfo[_pid] */\n      swap1\n      pop\n        /* \"contracts/DDTMasterChef.sol\":28581:28602  UserInfo storage user */\n      0x00\n        /* \"contracts/DDTMasterChef.sol\":28605:28613  userInfo */\n      0x07\n        /* \"contracts/DDTMasterChef.sol\":28605:28619  userInfo[_pid] */\n      0x00\n        /* \"contracts/DDTMasterChef.sol\":28614:28618  _pid */\n      dup7\n        /* \"contracts/DDTMasterChef.sol\":28605:28619  userInfo[_pid] */\n      dup2\n      mstore\n      0x20\n      add\n      swap1\n      dup2\n      mstore\n      0x20\n      add\n      0x00\n      keccak256\n        /* \"contracts/DDTMasterChef.sol\":28605:28626  userInfo[_pid][_user] */\n      0x00\n        /* \"contracts/DDTMasterChef.sol\":28620:28625  _user */\n      dup6\n        /* \"contracts/DDTMasterChef.sol\":28605:28626  userInfo[_pid][_user] */\n      0xffffffffffffffffffffffffffffffffffffffff\n      and\n      0xffffffffffffffffffffffffffffffffffffffff\n      and\n      dup2\n      mstore\n      0x20\n      add\n      swap1\n      dup2\n      mstore\n      0x20\n      add\n      0x00\n      keccak256\n        /* \"contracts/DDTMasterChef.sol\":28581:28626  UserInfo storage user = userInfo[_pid][_user] */\n      swap1\n      pop\n        /* \"contracts/DDTMasterChef.sol\":28637:28659  uint256 accDDTPerShare */\n      0x00\n        /* \"contracts/DDTMasterChef.sol\":28662:28666  pool */\n      dup3\n        /* \"contracts/DDTMasterChef.sol\":28662:28681  pool.accDDTPerShare */\n      0x03\n      add\n      sload\n        /* \"contracts/DDTMasterChef.sol\":28637:28681  uint256 accDDTPerShare = pool.accDDTPerShare */\n      swap1\n      pop\n        /* \"contracts/DDTMasterChef.sol\":28692:28708  uint256 lpSupply */\n      0x00\n        /* \"contracts/DDTMasterChef.sol\":28711:28722  poolBalance */\n      0x0a\n        /* \"contracts/DDTMasterChef.sol\":28711:28728  poolBalance[_pid] */\n      0x00\n        /* \"contracts/DDTMasterChef.sol\":28723:28727  _pid */\n      dup9\n        /* \"contracts/DDTMasterChef.sol\":28711:28728  poolBalance[_pid] */\n      dup2\n      mstore\n      0x20\n      add\n      swap1\n      dup2\n      mstore\n      0x20\n      add\n      0x00\n      keccak256\n      sload\n        /* \"contracts/DDTMasterChef.sol\":28692:28728  uint256 lpSupply = poolBalance[_pid] */\n      swap1\n      pop\n        /* \"contracts/DDTMasterChef.sol\":28758:28762  pool */\n      dup4\n        /* \"contracts/DDTMasterChef.sol\":28758:28778  pool.lastRewardBlock */\n      0x02\n      add\n      sload\n        /* \"contracts/DDTMasterChef.sol\":28743:28755  block.number */\n      number\n        /* \"contracts/DDTMasterChef.sol\":28743:28778  block.number > pool.lastRewardBlock */\n      gt\n        /* \"contracts/DDTMasterChef.sol\":28743:28795  block.number > pool.lastRewardBlock && lpSupply != 0 */\n      dup1\n      iszero\n      tag_212\n      jumpi\n      pop\n        /* \"contracts/DDTMasterChef.sol\":28794:28795  0 */\n      0x00\n        /* \"contracts/DDTMasterChef.sol\":28782:28790  lpSupply */\n      dup2\n        /* \"contracts/DDTMasterChef.sol\":28782:28795  lpSupply != 0 */\n      eq\n      iszero\n        /* \"contracts/DDTMasterChef.sol\":28743:28795  block.number > pool.lastRewardBlock && lpSupply != 0 */\n    tag_212:\n        /* \"contracts/DDTMasterChef.sol\":28739:29083  if (block.number > pool.lastRewardBlock && lpSupply != 0) {... */\n      iszero\n      tag_213\n      jumpi\n        /* \"contracts/DDTMasterChef.sol\":28812:28830  uint256 multiplier */\n      0x00\n        /* \"contracts/DDTMasterChef.sol\":28833:28882  getMultiplier(pool.lastRewardBlock, block.number) */\n      tag_214\n        /* \"contracts/DDTMasterChef.sol\":28847:28851  pool */\n      dup6\n        /* \"contracts/DDTMasterChef.sol\":28847:28867  pool.lastRewardBlock */\n      0x02\n      add\n      sload\n        /* \"contracts/DDTMasterChef.sol\":28869:28881  block.number */\n      number\n        /* \"contracts/DDTMasterChef.sol\":28833:28846  getMultiplier */\n      tag_118\n        /* \"contracts/DDTMasterChef.sol\":28833:28882  getMultiplier(pool.lastRewardBlock, block.number) */\n      jump\t// in\n    tag_214:\n        /* \"contracts/DDTMasterChef.sol\":28812:28882  uint256 multiplier = getMultiplier(pool.lastRewardBlock, block.number) */\n      swap1\n      pop\n        /* \"contracts/DDTMasterChef.sol\":28897:28914  uint256 DDTReward */\n      0x00\n        /* \"contracts/DDTMasterChef.sol\":28917:28986  multiplier.mul(DDTPerBlock).mul(pool.allocPoint).div(totalAllocPoint) */\n      tag_215\n        /* \"contracts/DDTMasterChef.sol\":28970:28985  totalAllocPoint */\n      sload(0x08)\n        /* \"contracts/DDTMasterChef.sol\":28917:28965  multiplier.mul(DDTPerBlock).mul(pool.allocPoint) */\n      tag_216\n        /* \"contracts/DDTMasterChef.sol\":28949:28953  pool */\n      dup9\n        /* \"contracts/DDTMasterChef.sol\":28949:28964  pool.allocPoint */\n      0x01\n      add\n      sload\n        /* \"contracts/DDTMasterChef.sol\":28917:28944  multiplier.mul(DDTPerBlock) */\n      tag_217\n        /* \"contracts/DDTMasterChef.sol\":28932:28943  DDTPerBlock */\n      sload(0x03)\n        /* \"contracts/DDTMasterChef.sol\":28917:28927  multiplier */\n      dup8\n        /* \"contracts/DDTMasterChef.sol\":28917:28931  multiplier.mul */\n      tag_162\n      swap1\n        /* \"contracts/DDTMasterChef.sol\":28917:28944  multiplier.mul(DDTPerBlock) */\n      swap2\n      swap1\n      0xffffffff\n      and\n      jump\t// in\n    tag_217:\n        /* \"contracts/DDTMasterChef.sol\":28917:28948  multiplier.mul(DDTPerBlock).mul */\n      tag_162\n      swap1\n        /* \"contracts/DDTMasterChef.sol\":28917:28965  multiplier.mul(DDTPerBlock).mul(pool.allocPoint) */\n      swap2\n      swap1\n      0xffffffff\n      and\n      jump\t// in\n    tag_216:\n        /* \"contracts/DDTMasterChef.sol\":28917:28969  multiplier.mul(DDTPerBlock).mul(pool.allocPoint).div */\n      tag_163\n      swap1\n        /* \"contracts/DDTMasterChef.sol\":28917:28986  multiplier.mul(DDTPerBlock).mul(pool.allocPoint).div(totalAllocPoint) */\n      swap2\n      swap1\n      0xffffffff\n      and\n      jump\t// in\n    tag_215:\n        /* \"contracts/DDTMasterChef.sol\":28897:28986  uint256 DDTReward = multiplier.mul(DDTPerBlock).mul(pool.allocPoint).div(totalAllocPoint) */\n      swap1\n      pop\n        /* \"contracts/DDTMasterChef.sol\":29018:29071  accDDTPerShare.add(DDTReward.mul(1e12).div(lpSupply)) */\n      tag_218\n        /* \"contracts/DDTMasterChef.sol\":29037:29070  DDTReward.mul(1e12).div(lpSupply) */\n      tag_219\n        /* \"contracts/DDTMasterChef.sol\":29061:29069  lpSupply */\n      dup5\n        /* \"contracts/DDTMasterChef.sol\":29037:29056  DDTReward.mul(1e12) */\n      tag_220\n        /* \"contracts/DDTMasterChef.sol\":29051:29055  1e12 */\n      0xe8d4a51000\n        /* \"contracts/DDTMasterChef.sol\":29037:29046  DDTReward */\n      dup6\n        /* \"contracts/DDTMasterChef.sol\":29037:29050  DDTReward.mul */\n      tag_162\n      swap1\n        /* \"contracts/DDTMasterChef.sol\":29037:29056  DDTReward.mul(1e12) */\n      swap2\n      swap1\n      0xffffffff\n      and\n      jump\t// in\n    tag_220:\n        /* \"contracts/DDTMasterChef.sol\":29037:29060  DDTReward.mul(1e12).div */\n      tag_163\n      swap1\n        /* \"contracts/DDTMasterChef.sol\":29037:29070  DDTReward.mul(1e12).div(lpSupply) */\n      swap2\n      swap1\n      0xffffffff\n      and\n      jump\t// in\n    tag_219:\n        /* \"contracts/DDTMasterChef.sol\":29018:29032  accDDTPerShare */\n      dup6\n        /* \"contracts/DDTMasterChef.sol\":29018:29036  accDDTPerShare.add */\n      tag_193\n      swap1\n        /* \"contracts/DDTMasterChef.sol\":29018:29071  accDDTPerShare.add(DDTReward.mul(1e12).div(lpSupply)) */\n      swap2\n      swap1\n      0xffffffff\n      and\n      jump\t// in\n    tag_218:\n        /* \"contracts/DDTMasterChef.sol\":29001:29071  accDDTPerShare = accDDTPerShare.add(DDTReward.mul(1e12).div(lpSupply)) */\n      swap4\n      pop\n        /* \"contracts/DDTMasterChef.sol\":28797:29083  {... */\n      pop\n      pop\n        /* \"contracts/DDTMasterChef.sol\":28739:29083  if (block.number > pool.lastRewardBlock && lpSupply != 0) {... */\n    tag_213:\n        /* \"contracts/DDTMasterChef.sol\":29100:29162  user.amount.mul(accDDTPerShare).div(1e12).sub(user.rewardDebt) */\n      tag_221\n        /* \"contracts/DDTMasterChef.sol\":29146:29150  user */\n      dup4\n        /* \"contracts/DDTMasterChef.sol\":29146:29161  user.rewardDebt */\n      0x01\n      add\n      sload\n        /* \"contracts/DDTMasterChef.sol\":29100:29141  user.amount.mul(accDDTPerShare).div(1e12) */\n      tag_222\n        /* \"contracts/DDTMasterChef.sol\":29136:29140  1e12 */\n      0xe8d4a51000\n        /* \"contracts/DDTMasterChef.sol\":29100:29131  user.amount.mul(accDDTPerShare) */\n      tag_223\n        /* \"contracts/DDTMasterChef.sol\":29116:29130  accDDTPerShare */\n      dup7\n        /* \"contracts/DDTMasterChef.sol\":29100:29104  user */\n      dup9\n        /* \"contracts/DDTMasterChef.sol\":29100:29111  user.amount */\n      0x00\n      add\n      sload\n        /* \"contracts/DDTMasterChef.sol\":29100:29115  user.amount.mul */\n      tag_162\n      swap1\n        /* \"contracts/DDTMasterChef.sol\":29100:29131  user.amount.mul(accDDTPerShare) */\n      swap2\n      swap1\n      0xffffffff\n      and\n      jump\t// in\n    tag_223:\n        /* \"contracts/DDTMasterChef.sol\":29100:29135  user.amount.mul(accDDTPerShare).div */\n      tag_163\n      swap1\n        /* \"contracts/DDTMasterChef.sol\":29100:29141  user.amount.mul(accDDTPerShare).div(1e12) */\n      swap2\n      swap1\n      0xffffffff\n      and\n      jump\t// in\n    tag_222:\n        /* \"contracts/DDTMasterChef.sol\":29100:29145  user.amount.mul(accDDTPerShare).div(1e12).sub */\n      tag_164\n      swap1\n        /* \"contracts/DDTMasterChef.sol\":29100:29162  user.amount.mul(accDDTPerShare).div(1e12).sub(user.rewardDebt) */\n      swap2\n      swap1\n      0xffffffff\n      and\n      jump\t// in\n    tag_221:\n        /* \"contracts/DDTMasterChef.sol\":29093:29162  return user.amount.mul(accDDTPerShare).div(1e12).sub(user.rewardDebt) */\n      swap5\n      pop\n      pop\n      pop\n      pop\n      pop\n        /* \"contracts/DDTMasterChef.sol\":28441:29170  function pendingDDT(uint256 _pid, address _user) external view returns (uint256){... */\n      swap3\n      swap2\n      pop\n      pop\n      jump\t// out\n        /* \"contracts/DDTMasterChef.sol\":27457:27559  function setMigrator(IMigratorChef _migrator) public onlyOwner {... */\n    tag_66:\n        /* \"contracts/DDTMasterChef.sol\":20336:20348  _msgSender() */\n      tag_225\n        /* \"contracts/DDTMasterChef.sol\":20336:20346  _msgSender */\n      tag_226\n        /* \"contracts/DDTMasterChef.sol\":20336:20348  _msgSender() */\n      jump\t// in\n    tag_225:\n        /* \"contracts/DDTMasterChef.sol\":20325:20348  owner() == _msgSender() */\n      0xffffffffffffffffffffffffffffffffffffffff\n      and\n        /* \"contracts/DDTMasterChef.sol\":20325:20332  owner() */\n      tag_227\n        /* \"contracts/DDTMasterChef.sol\":20325:20330  owner */\n      tag_112\n        /* \"contracts/DDTMasterChef.sol\":20325:20332  owner() */\n      jump\t// in\n    tag_227:\n        /* \"contracts/DDTMasterChef.sol\":20325:20348  owner() == _msgSender() */\n      0xffffffffffffffffffffffffffffffffffffffff\n      and\n      eq\n        /* \"contracts/DDTMasterChef.sol\":20317:20385  require(owner() == _msgSender(), \"Ownable: caller is not the owner\") */\n      tag_228\n      jumpi\n      mload(0x40)\n      0x08c379a000000000000000000000000000000000000000000000000000000000\n      dup2\n      mstore\n      0x04\n      add\n      tag_229\n      swap1\n      tag_230\n      jump\t// in\n    tag_229:\n      mload(0x40)\n      dup1\n      swap2\n      sub\n      swap1\n      revert\n    tag_228:\n        /* \"contracts/DDTMasterChef.sol\":27542:27551  _migrator */\n      dup1\n        /* \"contracts/DDTMasterChef.sol\":27531:27539  migrator */\n      0x05\n      0x00\n        /* \"contracts/DDTMasterChef.sol\":27531:27551  migrator = _migrator */\n      0x0100\n      exp\n      dup2\n      sload\n      dup2\n      0xffffffffffffffffffffffffffffffffffffffff\n      mul\n      not\n      and\n      swap1\n      dup4\n      0xffffffffffffffffffffffffffffffffffffffff\n      and\n      mul\n      or\n      swap1\n      sstore\n      pop\n        /* \"contracts/DDTMasterChef.sol\":27457:27559  function setMigrator(IMigratorChef _migrator) public onlyOwner {... */\n      pop\n      jump\t// out\n        /* \"contracts/DDTMasterChef.sol\":27682:28158  function migrate(uint256 _pid) public {... */\n    tag_69:\n        /* \"contracts/DDTMasterChef.sol\":27768:27769  0 */\n      0x00\n        /* \"contracts/DDTMasterChef.sol\":27739:27770  address(migrator) != address(0) */\n      0xffffffffffffffffffffffffffffffffffffffff\n      and\n        /* \"contracts/DDTMasterChef.sol\":27747:27755  migrator */\n      0x05\n      0x00\n      swap1\n      sload\n      swap1\n      0x0100\n      exp\n      swap1\n      div\n      0xffffffffffffffffffffffffffffffffffffffff\n      and\n        /* \"contracts/DDTMasterChef.sol\":27739:27770  address(migrator) != address(0) */\n      0xffffffffffffffffffffffffffffffffffffffff\n      and\n      sub\n        /* \"contracts/DDTMasterChef.sol\":27731:27795  require(address(migrator) != address(0), \"migrate: no migrator\") */\n      tag_233\n      jumpi\n      mload(0x40)\n      0x08c379a000000000000000000000000000000000000000000000000000000000\n      dup2\n      mstore\n      0x04\n      add\n      tag_234\n      swap1\n      tag_235\n      jump\t// in\n    tag_234:\n      mload(0x40)\n      dup1\n      swap2\n      sub\n      swap1\n      revert\n    tag_233:\n        /* \"contracts/DDTMasterChef.sol\":27806:27827  PoolInfo storage pool */\n      0x00\n        /* \"contracts/DDTMasterChef.sol\":27830:27838  poolInfo */\n      0x06\n        /* \"contracts/DDTMasterChef.sol\":27839:27843  _pid */\n      dup3\n        /* \"contracts/DDTMasterChef.sol\":27830:27844  poolInfo[_pid] */\n      dup2\n      sload\n      dup2\n      lt\n      tag_236\n      jumpi\n      tag_237\n      tag_155\n      jump\t// in\n    tag_237:\n    tag_236:\n      swap1\n      0x00\n      mstore\n      keccak256(0x00, 0x20)\n      swap1\n      0x08\n      mul\n      add\n        /* \"contracts/DDTMasterChef.sol\":27806:27844  PoolInfo storage pool = poolInfo[_pid] */\n      swap1\n      pop\n        /* \"contracts/DDTMasterChef.sol\":27855:27869  IERC20 lpToken */\n      0x00\n        /* \"contracts/DDTMasterChef.sol\":27872:27876  pool */\n      dup2\n        /* \"contracts/DDTMasterChef.sol\":27872:27884  pool.lpToken */\n      0x00\n      add\n      0x00\n      swap1\n      sload\n      swap1\n      0x0100\n      exp\n      swap1\n      div\n      0xffffffffffffffffffffffffffffffffffffffff\n      and\n        /* \"contracts/DDTMasterChef.sol\":27855:27884  IERC20 lpToken = pool.lpToken */\n      swap1\n      pop\n        /* \"contracts/DDTMasterChef.sol\":27895:27906  uint256 bal */\n      0x00\n        /* \"contracts/DDTMasterChef.sol\":27909:27920  poolBalance */\n      0x0a\n        /* \"contracts/DDTMasterChef.sol\":27909:27926  poolBalance[_pid] */\n      0x00\n        /* \"contracts/DDTMasterChef.sol\":27921:27925  _pid */\n      dup6\n        /* \"contracts/DDTMasterChef.sol\":27909:27926  poolBalance[_pid] */\n      dup2\n      mstore\n      0x20\n      add\n      swap1\n      dup2\n      mstore\n      0x20\n      add\n      0x00\n      keccak256\n      sload\n        /* \"contracts/DDTMasterChef.sol\":27895:27926  uint256 bal = poolBalance[_pid] */\n      swap1\n      pop\n        /* \"contracts/DDTMasterChef.sol\":27937:27980  lpToken.safeApprove(address(migrator), bal) */\n      tag_239\n        /* \"contracts/DDTMasterChef.sol\":27965:27973  migrator */\n      0x05\n      0x00\n      swap1\n      sload\n      swap1\n      0x0100\n      exp\n      swap1\n      div\n      0xffffffffffffffffffffffffffffffffffffffff\n      and\n        /* \"contracts/DDTMasterChef.sol\":27976:27979  bal */\n      dup3\n        /* \"contracts/DDTMasterChef.sol\":27937:27944  lpToken */\n      dup5\n        /* \"contracts/DDTMasterChef.sol\":27937:27956  lpToken.safeApprove */\n      0xffffffffffffffffffffffffffffffffffffffff\n      and\n      tag_240\n      swap1\n        /* \"contracts/DDTMasterChef.sol\":27937:27980  lpToken.safeApprove(address(migrator), bal) */\n      swap3\n      swap2\n      swap1\n      0xffffffff\n      and\n      jump\t// in\n    tag_239:\n        /* \"contracts/DDTMasterChef.sol\":27991:28008  IERC20 newLpToken */\n      0x00\n        /* \"contracts/DDTMasterChef.sol\":28011:28019  migrator */\n      0x05\n      0x00\n      swap1\n      sload\n      swap1\n      0x0100\n      exp\n      swap1\n      div\n      0xffffffffffffffffffffffffffffffffffffffff\n      and\n        /* \"contracts/DDTMasterChef.sol\":28011:28027  migrator.migrate */\n      0xffffffffffffffffffffffffffffffffffffffff\n      and\n      0xce5494bb\n        /* \"contracts/DDTMasterChef.sol\":28028:28035  lpToken */\n      dup5\n        /* \"contracts/DDTMasterChef.sol\":28011:28036  migrator.migrate(lpToken) */\n      mload(0x40)\n      dup3\n      0xffffffff\n      and\n      0xe0\n      shl\n      dup2\n      mstore\n      0x04\n      add\n      tag_241\n      swap2\n      swap1\n      tag_131\n      jump\t// in\n    tag_241:\n      0x20\n      mload(0x40)\n      dup1\n      dup4\n      sub\n      dup2\n      0x00\n      dup8\n      gas\n      call\n      iszero\n      dup1\n      iszero\n      tag_243\n      jumpi\n      returndatasize\n      0x00\n      dup1\n      returndatacopy\n      revert(0x00, returndatasize)\n    tag_243:\n      pop\n      pop\n      pop\n      pop\n      mload(0x40)\n      returndatasize\n      not(0x1f)\n      0x1f\n      dup3\n      add\n      and\n      dup3\n      add\n      dup1\n      0x40\n      mstore\n      pop\n      dup2\n      add\n      swap1\n      tag_244\n      swap2\n      swap1\n      tag_245\n      jump\t// in\n    tag_244:\n        /* \"contracts/DDTMasterChef.sol\":27991:28036  IERC20 newLpToken = migrator.migrate(lpToken) */\n      swap1\n      pop\n        /* \"contracts/DDTMasterChef.sol\":28062:28072  newLpToken */\n      dup1\n        /* \"contracts/DDTMasterChef.sol\":28062:28082  newLpToken.balanceOf */\n      0xffffffffffffffffffffffffffffffffffffffff\n      and\n      0x70a08231\n        /* \"contracts/DDTMasterChef.sol\":28091:28095  this */\n      address\n        /* \"contracts/DDTMasterChef.sol\":28062:28097  newLpToken.balanceOf(address(this)) */\n      mload(0x40)\n      dup3\n      0xffffffff\n      and\n      0xe0\n      shl\n      dup2\n      mstore\n      0x04\n      add\n      tag_246\n      swap2\n      swap1\n      tag_114\n      jump\t// in\n    tag_246:\n      0x20\n      mload(0x40)\n      dup1\n      dup4\n      sub\n      dup2\n      dup7\n      gas\n      staticcall\n      iszero\n      dup1\n      iszero\n      tag_248\n      jumpi\n      returndatasize\n      0x00\n      dup1\n      returndatacopy\n      revert(0x00, returndatasize)\n    tag_248:\n      pop\n      pop\n      pop\n      pop\n      mload(0x40)\n      returndatasize\n      not(0x1f)\n      0x1f\n      dup3\n      add\n      and\n      dup3\n      add\n      dup1\n      0x40\n      mstore\n      pop\n      dup2\n      add\n      swap1\n      tag_249\n      swap2\n      swap1\n      tag_173\n      jump\t// in\n    tag_249:\n        /* \"contracts/DDTMasterChef.sol\":28055:28058  bal */\n      dup3\n        /* \"contracts/DDTMasterChef.sol\":28055:28097  bal == newLpToken.balanceOf(address(this)) */\n      eq\n        /* \"contracts/DDTMasterChef.sol\":28047:28114  require(bal == newLpToken.balanceOf(address(this)), \"migrate: bad\") */\n      tag_250\n      jumpi\n      mload(0x40)\n      0x08c379a000000000000000000000000000000000000000000000000000000000\n      dup2\n      mstore\n      0x04\n      add\n      tag_251\n      swap1\n      tag_252\n      jump\t// in\n    tag_251:\n      mload(0x40)\n      dup1\n      swap2\n      sub\n      swap1\n      revert\n    tag_250:\n        /* \"contracts/DDTMasterChef.sol\":28140:28150  newLpToken */\n      dup1\n        /* \"contracts/DDTMasterChef.sol\":28125:28129  pool */\n      dup5\n        /* \"contracts/DDTMasterChef.sol\":28125:28137  pool.lpToken */\n      0x00\n      add\n      0x00\n        /* \"contracts/DDTMasterChef.sol\":28125:28150  pool.lpToken = newLpToken */\n      0x0100\n      exp\n      dup2\n      sload\n      dup2\n      0xffffffffffffffffffffffffffffffffffffffff\n      mul\n      not\n      and\n      swap1\n      dup4\n      0xffffffffffffffffffffffffffffffffffffffff\n      and\n      mul\n      or\n      swap1\n      sstore\n      pop\n        /* \"contracts/DDTMasterChef.sol\":27720:28158  {... */\n      pop\n      pop\n      pop\n      pop\n        /* \"contracts/DDTMasterChef.sol\":27682:28158  function migrate(uint256 _pid) public {... */\n      pop\n      jump\t// out\n        /* \"contracts/DDTMasterChef.sol\":24841:24866  uint256 public startBlock */\n    tag_71:\n      sload(0x09)\n      dup2\n      jump\t// out\n        /* \"contracts/DDTMasterChef.sol\":29509:30214  function updatePool(uint256 _pid) public {... */\n    tag_75:\n        /* \"contracts/DDTMasterChef.sol\":29561:29582  PoolInfo storage pool */\n      0x00\n        /* \"contracts/DDTMasterChef.sol\":29585:29593  poolInfo */\n      0x06\n        /* \"contracts/DDTMasterChef.sol\":29594:29598  _pid */\n      dup3\n        /* \"contracts/DDTMasterChef.sol\":29585:29599  poolInfo[_pid] */\n      dup2\n      sload\n      dup2\n      lt\n      tag_254\n      jumpi\n      tag_255\n      tag_155\n      jump\t// in\n    tag_255:\n    tag_254:\n      swap1\n      0x00\n      mstore\n      keccak256(0x00, 0x20)\n      swap1\n      0x08\n      mul\n      add\n        /* \"contracts/DDTMasterChef.sol\":29561:29599  PoolInfo storage pool = poolInfo[_pid] */\n      swap1\n      pop\n        /* \"contracts/DDTMasterChef.sol\":29630:29634  pool */\n      dup1\n        /* \"contracts/DDTMasterChef.sol\":29630:29650  pool.lastRewardBlock */\n      0x02\n      add\n      sload\n        /* \"contracts/DDTMasterChef.sol\":29614:29626  block.number */\n      number\n        /* \"contracts/DDTMasterChef.sol\":29614:29650  block.number <= pool.lastRewardBlock */\n      gt\n        /* \"contracts/DDTMasterChef.sol\":29610:29685  if (block.number <= pool.lastRewardBlock) {... */\n      tag_257\n      jumpi\n        /* \"contracts/DDTMasterChef.sol\":29667:29674  return; */\n      pop\n      jump(tag_253)\n        /* \"contracts/DDTMasterChef.sol\":29610:29685  if (block.number <= pool.lastRewardBlock) {... */\n    tag_257:\n        /* \"contracts/DDTMasterChef.sol\":29695:29711  uint256 lpSupply */\n      0x00\n        /* \"contracts/DDTMasterChef.sol\":29714:29725  poolBalance */\n      0x0a\n        /* \"contracts/DDTMasterChef.sol\":29714:29731  poolBalance[_pid] */\n      0x00\n        /* \"contracts/DDTMasterChef.sol\":29726:29730  _pid */\n      dup5\n        /* \"contracts/DDTMasterChef.sol\":29714:29731  poolBalance[_pid] */\n      dup2\n      mstore\n      0x20\n      add\n      swap1\n      dup2\n      mstore\n      0x20\n      add\n      0x00\n      keccak256\n      sload\n        /* \"contracts/DDTMasterChef.sol\":29695:29731  uint256 lpSupply = poolBalance[_pid] */\n      swap1\n      pop\n        /* \"contracts/DDTMasterChef.sol\":29758:29759  0 */\n      0x00\n        /* \"contracts/DDTMasterChef.sol\":29746:29754  lpSupply */\n      dup2\n        /* \"contracts/DDTMasterChef.sol\":29746:29759  lpSupply <= 0 */\n      gt\n        /* \"contracts/DDTMasterChef.sol\":29742:29844  if (lpSupply <= 0) {... */\n      tag_258\n      jumpi\n        /* \"contracts/DDTMasterChef.sol\":29799:29811  block.number */\n      number\n        /* \"contracts/DDTMasterChef.sol\":29776:29780  pool */\n      dup3\n        /* \"contracts/DDTMasterChef.sol\":29776:29796  pool.lastRewardBlock */\n      0x02\n      add\n        /* \"contracts/DDTMasterChef.sol\":29776:29811  pool.lastRewardBlock = block.number */\n      dup2\n      swap1\n      sstore\n      pop\n        /* \"contracts/DDTMasterChef.sol\":29826:29833  return; */\n      pop\n      pop\n      jump(tag_253)\n        /* \"contracts/DDTMasterChef.sol\":29742:29844  if (lpSupply <= 0) {... */\n    tag_258:\n        /* \"contracts/DDTMasterChef.sol\":29854:29872  uint256 multiplier */\n      0x00\n        /* \"contracts/DDTMasterChef.sol\":29875:29924  getMultiplier(pool.lastRewardBlock, block.number) */\n      tag_259\n        /* \"contracts/DDTMasterChef.sol\":29889:29893  pool */\n      dup4\n        /* \"contracts/DDTMasterChef.sol\":29889:29909  pool.lastRewardBlock */\n      0x02\n      add\n      sload\n        /* \"contracts/DDTMasterChef.sol\":29911:29923  block.number */\n      number\n        /* \"contracts/DDTMasterChef.sol\":29875:29888  getMultiplier */\n      tag_118\n        /* \"contracts/DDTMasterChef.sol\":29875:29924  getMultiplier(pool.lastRewardBlock, block.number) */\n      jump\t// in\n    tag_259:\n        /* \"contracts/DDTMasterChef.sol\":29854:29924  uint256 multiplier = getMultiplier(pool.lastRewardBlock, block.number) */\n      swap1\n      pop\n        /* \"contracts/DDTMasterChef.sol\":29935:29952  uint256 DDTReward */\n      0x00\n        /* \"contracts/DDTMasterChef.sol\":29955:30024  multiplier.mul(DDTPerBlock).mul(pool.allocPoint).div(totalAllocPoint) */\n      tag_260\n        /* \"contracts/DDTMasterChef.sol\":30008:30023  totalAllocPoint */\n      sload(0x08)\n        /* \"contracts/DDTMasterChef.sol\":29955:30003  multiplier.mul(DDTPerBlock).mul(pool.allocPoint) */\n      tag_261\n        /* \"contracts/DDTMasterChef.sol\":29987:29991  pool */\n      dup7\n        /* \"contracts/DDTMasterChef.sol\":29987:30002  pool.allocPoint */\n      0x01\n      add\n      sload\n        /* \"contracts/DDTMasterChef.sol\":29955:29982  multiplier.mul(DDTPerBlock) */\n      tag_262\n        /* \"contracts/DDTMasterChef.sol\":29970:29981  DDTPerBlock */\n      sload(0x03)\n        /* \"contracts/DDTMasterChef.sol\":29955:29965  multiplier */\n      dup8\n        /* \"contracts/DDTMasterChef.sol\":29955:29969  multiplier.mul */\n      tag_162\n      swap1\n        /* \"contracts/DDTMasterChef.sol\":29955:29982  multiplier.mul(DDTPerBlock) */\n      swap2\n      swap1\n      0xffffffff\n      and\n      jump\t// in\n    tag_262:\n        /* \"contracts/DDTMasterChef.sol\":29955:29986  multiplier.mul(DDTPerBlock).mul */\n      tag_162\n      swap1\n        /* \"contracts/DDTMasterChef.sol\":29955:30003  multiplier.mul(DDTPerBlock).mul(pool.allocPoint) */\n      swap2\n      swap1\n      0xffffffff\n      and\n      jump\t// in\n    tag_261:\n        /* \"contracts/DDTMasterChef.sol\":29955:30007  multiplier.mul(DDTPerBlock).mul(pool.allocPoint).div */\n      tag_163\n      swap1\n        /* \"contracts/DDTMasterChef.sol\":29955:30024  multiplier.mul(DDTPerBlock).mul(pool.allocPoint).div(totalAllocPoint) */\n      swap2\n      swap1\n      0xffffffff\n      and\n      jump\t// in\n    tag_260:\n        /* \"contracts/DDTMasterChef.sol\":29935:30024  uint256 DDTReward = multiplier.mul(DDTPerBlock).mul(pool.allocPoint).div(totalAllocPoint) */\n      swap1\n      pop\n        /* \"contracts/DDTMasterChef.sol\":30035:30038  DDT */\n      0x01\n      0x00\n      swap1\n      sload\n      swap1\n      0x0100\n      exp\n      swap1\n      div\n      0xffffffffffffffffffffffffffffffffffffffff\n      and\n        /* \"contracts/DDTMasterChef.sol\":30035:30043  DDT.mint */\n      0xffffffffffffffffffffffffffffffffffffffff\n      and\n      0x40c10f19\n        /* \"contracts/DDTMasterChef.sol\":30052:30056  this */\n      address\n        /* \"contracts/DDTMasterChef.sol\":30059:30068  DDTReward */\n      dup4\n        /* \"contracts/DDTMasterChef.sol\":30035:30069  DDT.mint(address(this), DDTReward) */\n      mload(0x40)\n      dup4\n      0xffffffff\n      and\n      0xe0\n      shl\n      dup2\n      mstore\n      0x04\n      add\n      tag_263\n      swap3\n      swap2\n      swap1\n      tag_264\n      jump\t// in\n    tag_263:\n      0x20\n      mload(0x40)\n      dup1\n      dup4\n      sub\n      dup2\n      0x00\n      dup8\n      gas\n      call\n      iszero\n      dup1\n      iszero\n      tag_266\n      jumpi\n      returndatasize\n      0x00\n      dup1\n      returndatacopy\n      revert(0x00, returndatasize)\n    tag_266:\n      pop\n      pop\n      pop\n      pop\n      mload(0x40)\n      returndatasize\n      not(0x1f)\n      0x1f\n      dup3\n      add\n      and\n      dup3\n      add\n      dup1\n      0x40\n      mstore\n      pop\n      dup2\n      add\n      swap1\n      tag_267\n      swap2\n      swap1\n      tag_268\n      jump\t// in\n    tag_267:\n      pop\n        /* \"contracts/DDTMasterChef.sol\":30102:30160  pool.accDDTPerShare.add(DDTReward.mul(1e12).div(lpSupply)) */\n      tag_269\n        /* \"contracts/DDTMasterChef.sol\":30126:30159  DDTReward.mul(1e12).div(lpSupply) */\n      tag_270\n        /* \"contracts/DDTMasterChef.sol\":30150:30158  lpSupply */\n      dup5\n        /* \"contracts/DDTMasterChef.sol\":30126:30145  DDTReward.mul(1e12) */\n      tag_271\n        /* \"contracts/DDTMasterChef.sol\":30140:30144  1e12 */\n      0xe8d4a51000\n        /* \"contracts/DDTMasterChef.sol\":30126:30135  DDTReward */\n      dup6\n        /* \"contracts/DDTMasterChef.sol\":30126:30139  DDTReward.mul */\n      tag_162\n      swap1\n        /* \"contracts/DDTMasterChef.sol\":30126:30145  DDTReward.mul(1e12) */\n      swap2\n      swap1\n      0xffffffff\n      and\n      jump\t// in\n    tag_271:\n        /* \"contracts/DDTMasterChef.sol\":30126:30149  DDTReward.mul(1e12).div */\n      tag_163\n      swap1\n        /* \"contracts/DDTMasterChef.sol\":30126:30159  DDTReward.mul(1e12).div(lpSupply) */\n      swap2\n      swap1\n      0xffffffff\n      and\n      jump\t// in\n    tag_270:\n        /* \"contracts/DDTMasterChef.sol\":30102:30106  pool */\n      dup6\n        /* \"contracts/DDTMasterChef.sol\":30102:30121  pool.accDDTPerShare */\n      0x03\n      add\n      sload\n        /* \"contracts/DDTMasterChef.sol\":30102:30125  pool.accDDTPerShare.add */\n      tag_193\n      swap1\n        /* \"contracts/DDTMasterChef.sol\":30102:30160  pool.accDDTPerShare.add(DDTReward.mul(1e12).div(lpSupply)) */\n      swap2\n      swap1\n      0xffffffff\n      and\n      jump\t// in\n    tag_269:\n        /* \"contracts/DDTMasterChef.sol\":30080:30084  pool */\n      dup5\n        /* \"contracts/DDTMasterChef.sol\":30080:30099  pool.accDDTPerShare */\n      0x03\n      add\n        /* \"contracts/DDTMasterChef.sol\":30080:30160  pool.accDDTPerShare = pool.accDDTPerShare.add(DDTReward.mul(1e12).div(lpSupply)) */\n      dup2\n      swap1\n      sstore\n      pop\n        /* \"contracts/DDTMasterChef.sol\":30194:30206  block.number */\n      number\n        /* \"contracts/DDTMasterChef.sol\":30171:30175  pool */\n      dup5\n        /* \"contracts/DDTMasterChef.sol\":30171:30191  pool.lastRewardBlock */\n      0x02\n      add\n        /* \"contracts/DDTMasterChef.sol\":30171:30206  pool.lastRewardBlock = block.number */\n      dup2\n      swap1\n      sstore\n      pop\n        /* \"contracts/DDTMasterChef.sol\":29550:30214  {... */\n      pop\n      pop\n      pop\n      pop\n        /* \"contracts/DDTMasterChef.sol\":29509:30214  function updatePool(uint256 _pid) public {... */\n    tag_253:\n      pop\n      jump\t// out\n        /* \"contracts/DDTMasterChef.sol\":33464:33820  function emergencyWithdraw(uint256 _pid) public {... */\n    tag_78:\n        /* \"contracts/DDTMasterChef.sol\":33523:33544  PoolInfo storage pool */\n      0x00\n        /* \"contracts/DDTMasterChef.sol\":33547:33555  poolInfo */\n      0x06\n        /* \"contracts/DDTMasterChef.sol\":33556:33560  _pid */\n      dup3\n        /* \"contracts/DDTMasterChef.sol\":33547:33561  poolInfo[_pid] */\n      dup2\n      sload\n      dup2\n      lt\n      tag_273\n      jumpi\n      tag_274\n      tag_155\n      jump\t// in\n    tag_274:\n    tag_273:\n      swap1\n      0x00\n      mstore\n      keccak256(0x00, 0x20)\n      swap1\n      0x08\n      mul\n      add\n        /* \"contracts/DDTMasterChef.sol\":33523:33561  PoolInfo storage pool = poolInfo[_pid] */\n      swap1\n      pop\n        /* \"contracts/DDTMasterChef.sol\":33572:33593  UserInfo storage user */\n      0x00\n        /* \"contracts/DDTMasterChef.sol\":33596:33604  userInfo */\n      0x07\n        /* \"contracts/DDTMasterChef.sol\":33596:33610  userInfo[_pid] */\n      0x00\n        /* \"contracts/DDTMasterChef.sol\":33605:33609  _pid */\n      dup5\n        /* \"contracts/DDTMasterChef.sol\":33596:33610  userInfo[_pid] */\n      dup2\n      mstore\n      0x20\n      add\n      swap1\n      dup2\n      mstore\n      0x20\n      add\n      0x00\n      keccak256\n        /* \"contracts/DDTMasterChef.sol\":33596:33622  userInfo[_pid][msg.sender] */\n      0x00\n        /* \"contracts/DDTMasterChef.sol\":33611:33621  msg.sender */\n      caller\n        /* \"contracts/DDTMasterChef.sol\":33596:33622  userInfo[_pid][msg.sender] */\n      0xffffffffffffffffffffffffffffffffffffffff\n      and\n      0xffffffffffffffffffffffffffffffffffffffff\n      and\n      dup2\n      mstore\n      0x20\n      add\n      swap1\n      dup2\n      mstore\n      0x20\n      add\n      0x00\n      keccak256\n        /* \"contracts/DDTMasterChef.sol\":33572:33622  UserInfo storage user = userInfo[_pid][msg.sender] */\n      swap1\n      pop\n        /* \"contracts/DDTMasterChef.sol\":33633:33692  pool.lpToken.safeTransfer(address(msg.sender), user.amount) */\n      tag_276\n        /* \"contracts/DDTMasterChef.sol\":33667:33677  msg.sender */\n      caller\n        /* \"contracts/DDTMasterChef.sol\":33680:33684  user */\n      dup3\n        /* \"contracts/DDTMasterChef.sol\":33680:33691  user.amount */\n      0x00\n      add\n      sload\n        /* \"contracts/DDTMasterChef.sol\":33633:33637  pool */\n      dup5\n        /* \"contracts/DDTMasterChef.sol\":33633:33645  pool.lpToken */\n      0x00\n      add\n      0x00\n      swap1\n      sload\n      swap1\n      0x0100\n      exp\n      swap1\n      div\n      0xffffffffffffffffffffffffffffffffffffffff\n      and\n        /* \"contracts/DDTMasterChef.sol\":33633:33658  pool.lpToken.safeTransfer */\n      0xffffffffffffffffffffffffffffffffffffffff\n      and\n      tag_203\n      swap1\n        /* \"contracts/DDTMasterChef.sol\":33633:33692  pool.lpToken.safeTransfer(address(msg.sender), user.amount) */\n      swap3\n      swap2\n      swap1\n      0xffffffff\n      and\n      jump\t// in\n    tag_276:\n        /* \"contracts/DDTMasterChef.sol\":33738:33742  _pid */\n      dup3\n        /* \"contracts/DDTMasterChef.sol\":33726:33736  msg.sender */\n      caller\n        /* \"contracts/DDTMasterChef.sol\":33708:33756  EmergencyWithdraw(msg.sender, _pid, user.amount) */\n      0xffffffffffffffffffffffffffffffffffffffff\n      and\n      0xbb757047c2b5f3974fe26b7c10f732e7bce710b0952a71082702781e62ae0595\n        /* \"contracts/DDTMasterChef.sol\":33744:33748  user */\n      dup4\n        /* \"contracts/DDTMasterChef.sol\":33744:33755  user.amount */\n      0x00\n      add\n      sload\n        /* \"contracts/DDTMasterChef.sol\":33708:33756  EmergencyWithdraw(msg.sender, _pid, user.amount) */\n      mload(0x40)\n      tag_277\n      swap2\n      swap1\n      tag_48\n      jump\t// in\n    tag_277:\n      mload(0x40)\n      dup1\n      swap2\n      sub\n      swap1\n      log3\n        /* \"contracts/DDTMasterChef.sol\":33781:33782  0 */\n      0x00\n        /* \"contracts/DDTMasterChef.sol\":33767:33771  user */\n      dup2\n        /* \"contracts/DDTMasterChef.sol\":33767:33778  user.amount */\n      0x00\n      add\n        /* \"contracts/DDTMasterChef.sol\":33767:33782  user.amount = 0 */\n      dup2\n      swap1\n      sstore\n      pop\n        /* \"contracts/DDTMasterChef.sol\":33811:33812  0 */\n      0x00\n        /* \"contracts/DDTMasterChef.sol\":33793:33797  user */\n      dup2\n        /* \"contracts/DDTMasterChef.sol\":33793:33808  user.rewardDebt */\n      0x01\n      add\n        /* \"contracts/DDTMasterChef.sol\":33793:33812  user.rewardDebt = 0 */\n      dup2\n      swap1\n      sstore\n      pop\n        /* \"contracts/DDTMasterChef.sol\":33512:33820  {... */\n      pop\n      pop\n        /* \"contracts/DDTMasterChef.sol\":33464:33820  function emergencyWithdraw(uint256 _pid) public {... */\n      pop\n      jump\t// out\n        /* \"contracts/DDTMasterChef.sol\":25605:25728  function updateMultiplier(uint256 multiplierNumber) public onlyOwner {... */\n    tag_81:\n        /* \"contracts/DDTMasterChef.sol\":20336:20348  _msgSender() */\n      tag_279\n        /* \"contracts/DDTMasterChef.sol\":20336:20346  _msgSender */\n      tag_226\n        /* \"contracts/DDTMasterChef.sol\":20336:20348  _msgSender() */\n      jump\t// in\n    tag_279:\n        /* \"contracts/DDTMasterChef.sol\":20325:20348  owner() == _msgSender() */\n      0xffffffffffffffffffffffffffffffffffffffff\n      and\n        /* \"contracts/DDTMasterChef.sol\":20325:20332  owner() */\n      tag_280\n        /* \"contracts/DDTMasterChef.sol\":20325:20330  owner */\n      tag_112\n        /* \"contracts/DDTMasterChef.sol\":20325:20332  owner() */\n      jump\t// in\n    tag_280:\n        /* \"contracts/DDTMasterChef.sol\":20325:20348  owner() == _msgSender() */\n      0xffffffffffffffffffffffffffffffffffffffff\n      and\n      eq\n        /* \"contracts/DDTMasterChef.sol\":20317:20385  require(owner() == _msgSender(), \"Ownable: caller is not the owner\") */\n      tag_281\n      jumpi\n      mload(0x40)\n      0x08c379a000000000000000000000000000000000000000000000000000000000\n      dup2\n      mstore\n      0x04\n      add\n      tag_282\n      swap1\n      tag_230\n      jump\t// in\n    tag_282:\n      mload(0x40)\n      dup1\n      swap2\n      sub\n      swap1\n      revert\n    tag_281:\n        /* \"contracts/DDTMasterChef.sol\":25704:25720  multiplierNumber */\n      dup1\n        /* \"contracts/DDTMasterChef.sol\":25685:25701  BONUS_MULTIPLIER */\n      0x04\n        /* \"contracts/DDTMasterChef.sol\":25685:25720  BONUS_MULTIPLIER = multiplierNumber */\n      dup2\n      swap1\n      sstore\n      pop\n        /* \"contracts/DDTMasterChef.sol\":25605:25728  function updateMultiplier(uint256 multiplierNumber) public onlyOwner {... */\n      pop\n      jump\t// out\n        /* \"contracts/DDTMasterChef.sol\":34318:34423  function updateDDTPerBlock(uint256 newAmount) public onlyOwner {... */\n    tag_84:\n        /* \"contracts/DDTMasterChef.sol\":20336:20348  _msgSender() */\n      tag_285\n        /* \"contracts/DDTMasterChef.sol\":20336:20346  _msgSender */\n      tag_226\n        /* \"contracts/DDTMasterChef.sol\":20336:20348  _msgSender() */\n      jump\t// in\n    tag_285:\n        /* \"contracts/DDTMasterChef.sol\":20325:20348  owner() == _msgSender() */\n      0xffffffffffffffffffffffffffffffffffffffff\n      and\n        /* \"contracts/DDTMasterChef.sol\":20325:20332  owner() */\n      tag_286\n        /* \"contracts/DDTMasterChef.sol\":20325:20330  owner */\n      tag_112\n        /* \"contracts/DDTMasterChef.sol\":20325:20332  owner() */\n      jump\t// in\n    tag_286:\n        /* \"contracts/DDTMasterChef.sol\":20325:20348  owner() == _msgSender() */\n      0xffffffffffffffffffffffffffffffffffffffff\n      and\n      eq\n        /* \"contracts/DDTMasterChef.sol\":20317:20385  require(owner() == _msgSender(), \"Ownable: caller is not the owner\") */\n      tag_287\n      jumpi\n      mload(0x40)\n      0x08c379a000000000000000000000000000000000000000000000000000000000\n      dup2\n      mstore\n      0x04\n      add\n      tag_288\n      swap1\n      tag_230\n      jump\t// in\n    tag_288:\n      mload(0x40)\n      dup1\n      swap2\n      sub\n      swap1\n      revert\n    tag_287:\n        /* \"contracts/DDTMasterChef.sol\":34406:34415  newAmount */\n      dup1\n        /* \"contracts/DDTMasterChef.sol\":34392:34403  DDTPerBlock */\n      0x03\n        /* \"contracts/DDTMasterChef.sol\":34392:34415  DDTPerBlock = newAmount */\n      dup2\n      swap1\n      sstore\n      pop\n        /* \"contracts/DDTMasterChef.sol\":34318:34423  function updateDDTPerBlock(uint256 newAmount) public onlyOwner {... */\n      pop\n      jump\t// out\n        /* \"contracts/DDTMasterChef.sol\":29253:29433  function massUpdatePools() public {... */\n    tag_86:\n        /* \"contracts/DDTMasterChef.sol\":29298:29312  uint256 length */\n      0x00\n        /* \"contracts/DDTMasterChef.sol\":29315:29323  poolInfo */\n      0x06\n        /* \"contracts/DDTMasterChef.sol\":29315:29330  poolInfo.length */\n      dup1\n      sload\n      swap1\n      pop\n        /* \"contracts/DDTMasterChef.sol\":29298:29330  uint256 length = poolInfo.length */\n      swap1\n      pop\n        /* \"contracts/DDTMasterChef.sol\":29346:29357  uint256 pid */\n      0x00\n        /* \"contracts/DDTMasterChef.sol\":29341:29426  for (uint256 pid = 0; pid < length; ++pid) {... */\n    tag_291:\n        /* \"contracts/DDTMasterChef.sol\":29369:29375  length */\n      dup2\n        /* \"contracts/DDTMasterChef.sol\":29363:29366  pid */\n      dup2\n        /* \"contracts/DDTMasterChef.sol\":29363:29375  pid < length */\n      lt\n        /* \"contracts/DDTMasterChef.sol\":29341:29426  for (uint256 pid = 0; pid < length; ++pid) {... */\n      iszero\n      tag_292\n      jumpi\n        /* \"contracts/DDTMasterChef.sol\":29399:29414  updatePool(pid) */\n      tag_294\n        /* \"contracts/DDTMasterChef.sol\":29410:29413  pid */\n      dup2\n        /* \"contracts/DDTMasterChef.sol\":29399:29409  updatePool */\n      tag_75\n        /* \"contracts/DDTMasterChef.sol\":29399:29414  updatePool(pid) */\n      jump\t// in\n    tag_294:\n        /* \"contracts/DDTMasterChef.sol\":29377:29382  ++pid */\n      dup1\n      tag_295\n      swap1\n      tag_296\n      jump\t// in\n    tag_295:\n      swap1\n      pop\n        /* \"contracts/DDTMasterChef.sol\":29341:29426  for (uint256 pid = 0; pid < length; ++pid) {... */\n      jump(tag_291)\n    tag_292:\n      pop\n        /* \"contracts/DDTMasterChef.sol\":29287:29433  {... */\n      pop\n        /* \"contracts/DDTMasterChef.sol\":29253:29433  function massUpdatePools() public {... */\n      jump\t// out\n        /* \"contracts/DDTMasterChef.sol\":27076:27381  function set( uint256 _pid, uint256 _allocPoint, bool _withUpdate) public onlyOwner {... */\n    tag_90:\n        /* \"contracts/DDTMasterChef.sol\":20336:20348  _msgSender() */\n      tag_298\n        /* \"contracts/DDTMasterChef.sol\":20336:20346  _msgSender */\n      tag_226\n        /* \"contracts/DDTMasterChef.sol\":20336:20348  _msgSender() */\n      jump\t// in\n    tag_298:\n        /* \"contracts/DDTMasterChef.sol\":20325:20348  owner() == _msgSender() */\n      0xffffffffffffffffffffffffffffffffffffffff\n      and\n        /* \"contracts/DDTMasterChef.sol\":20325:20332  owner() */\n      tag_299\n        /* \"contracts/DDTMasterChef.sol\":20325:20330  owner */\n      tag_112\n        /* \"contracts/DDTMasterChef.sol\":20325:20332  owner() */\n      jump\t// in\n    tag_299:\n        /* \"contracts/DDTMasterChef.sol\":20325:20348  owner() == _msgSender() */\n      0xffffffffffffffffffffffffffffffffffffffff\n      and\n      eq\n        /* \"contracts/DDTMasterChef.sol\":20317:20385  require(owner() == _msgSender(), \"Ownable: caller is not the owner\") */\n      tag_300\n      jumpi\n      mload(0x40)\n      0x08c379a000000000000000000000000000000000000000000000000000000000\n      dup2\n      mstore\n      0x04\n      add\n      tag_301\n      swap1\n      tag_230\n      jump\t// in\n    tag_301:\n      mload(0x40)\n      dup1\n      swap2\n      sub\n      swap1\n      revert\n    tag_300:\n        /* \"contracts/DDTMasterChef.sol\":27175:27186  _withUpdate */\n      dup1\n        /* \"contracts/DDTMasterChef.sol\":27171:27232  if (_withUpdate) {... */\n      iszero\n      tag_303\n      jumpi\n        /* \"contracts/DDTMasterChef.sol\":27203:27220  massUpdatePools() */\n      tag_304\n        /* \"contracts/DDTMasterChef.sol\":27203:27218  massUpdatePools */\n      tag_86\n        /* \"contracts/DDTMasterChef.sol\":27203:27220  massUpdatePools() */\n      jump\t// in\n    tag_304:\n        /* \"contracts/DDTMasterChef.sol\":27171:27232  if (_withUpdate) {... */\n    tag_303:\n        /* \"contracts/DDTMasterChef.sol\":27260:27323  totalAllocPoint.sub(poolInfo[_pid].allocPoint).add(_allocPoint) */\n      tag_305\n        /* \"contracts/DDTMasterChef.sol\":27311:27322  _allocPoint */\n      dup3\n        /* \"contracts/DDTMasterChef.sol\":27260:27306  totalAllocPoint.sub(poolInfo[_pid].allocPoint) */\n      tag_306\n        /* \"contracts/DDTMasterChef.sol\":27280:27288  poolInfo */\n      0x06\n        /* \"contracts/DDTMasterChef.sol\":27289:27293  _pid */\n      dup7\n        /* \"contracts/DDTMasterChef.sol\":27280:27294  poolInfo[_pid] */\n      dup2\n      sload\n      dup2\n      lt\n      tag_307\n      jumpi\n      tag_308\n      tag_155\n      jump\t// in\n    tag_308:\n    tag_307:\n      swap1\n      0x00\n      mstore\n      keccak256(0x00, 0x20)\n      swap1\n      0x08\n      mul\n      add\n        /* \"contracts/DDTMasterChef.sol\":27280:27305  poolInfo[_pid].allocPoint */\n      0x01\n      add\n      sload\n        /* \"contracts/DDTMasterChef.sol\":27260:27275  totalAllocPoint */\n      sload(0x08)\n        /* \"contracts/DDTMasterChef.sol\":27260:27279  totalAllocPoint.sub */\n      tag_164\n      swap1\n        /* \"contracts/DDTMasterChef.sol\":27260:27306  totalAllocPoint.sub(poolInfo[_pid].allocPoint) */\n      swap2\n      swap1\n      0xffffffff\n      and\n      jump\t// in\n    tag_306:\n        /* \"contracts/DDTMasterChef.sol\":27260:27310  totalAllocPoint.sub(poolInfo[_pid].allocPoint).add */\n      tag_193\n      swap1\n        /* \"contracts/DDTMasterChef.sol\":27260:27323  totalAllocPoint.sub(poolInfo[_pid].allocPoint).add(_allocPoint) */\n      swap2\n      swap1\n      0xffffffff\n      and\n      jump\t// in\n    tag_305:\n        /* \"contracts/DDTMasterChef.sol\":27242:27257  totalAllocPoint */\n      0x08\n        /* \"contracts/DDTMasterChef.sol\":27242:27323  totalAllocPoint = totalAllocPoint.sub(poolInfo[_pid].allocPoint).add(_allocPoint) */\n      dup2\n      swap1\n      sstore\n      pop\n        /* \"contracts/DDTMasterChef.sol\":27362:27373  _allocPoint */\n      dup2\n        /* \"contracts/DDTMasterChef.sol\":27334:27342  poolInfo */\n      0x06\n        /* \"contracts/DDTMasterChef.sol\":27343:27347  _pid */\n      dup5\n        /* \"contracts/DDTMasterChef.sol\":27334:27348  poolInfo[_pid] */\n      dup2\n      sload\n      dup2\n      lt\n      tag_310\n      jumpi\n      tag_311\n      tag_155\n      jump\t// in\n    tag_311:\n    tag_310:\n      swap1\n      0x00\n      mstore\n      keccak256(0x00, 0x20)\n      swap1\n      0x08\n      mul\n      add\n        /* \"contracts/DDTMasterChef.sol\":27334:27359  poolInfo[_pid].allocPoint */\n      0x01\n      add\n        /* \"contracts/DDTMasterChef.sol\":27334:27373  poolInfo[_pid].allocPoint = _allocPoint */\n      dup2\n      swap1\n      sstore\n      pop\n        /* \"contracts/DDTMasterChef.sol\":27076:27381  function set( uint256 _pid, uint256 _allocPoint, bool _withUpdate) public onlyOwner {... */\n      pop\n      pop\n      pop\n      jump\t// out\n        /* \"contracts/DDTMasterChef.sol\":26187:26981  function add( uint256 _allocPoint, IERC20 _lpToken, bool _withUpdate, IMasterChef _poolMasterChef, IERC20 _rewardToken, uint256 _fee, uint256 _method) public onlyOwner {... */\n    tag_94:\n        /* \"contracts/DDTMasterChef.sol\":20336:20348  _msgSender() */\n      tag_314\n        /* \"contracts/DDTMasterChef.sol\":20336:20346  _msgSender */\n      tag_226\n        /* \"contracts/DDTMasterChef.sol\":20336:20348  _msgSender() */\n      jump\t// in\n    tag_314:\n        /* \"contracts/DDTMasterChef.sol\":20325:20348  owner() == _msgSender() */\n      0xffffffffffffffffffffffffffffffffffffffff\n      and\n        /* \"contracts/DDTMasterChef.sol\":20325:20332  owner() */\n      tag_315\n        /* \"contracts/DDTMasterChef.sol\":20325:20330  owner */\n      tag_112\n        /* \"contracts/DDTMasterChef.sol\":20325:20332  owner() */\n      jump\t// in\n    tag_315:\n        /* \"contracts/DDTMasterChef.sol\":20325:20348  owner() == _msgSender() */\n      0xffffffffffffffffffffffffffffffffffffffff\n      and\n      eq\n        /* \"contracts/DDTMasterChef.sol\":20317:20385  require(owner() == _msgSender(), \"Ownable: caller is not the owner\") */\n      tag_316\n      jumpi\n      mload(0x40)\n      0x08c379a000000000000000000000000000000000000000000000000000000000\n      dup2\n      mstore\n      0x04\n      add\n      tag_317\n      swap1\n      tag_230\n      jump\t// in\n    tag_317:\n      mload(0x40)\n      dup1\n      swap2\n      sub\n      swap1\n      revert\n    tag_316:\n        /* \"contracts/DDTMasterChef.sol\":26370:26381  _withUpdate */\n      dup5\n        /* \"contracts/DDTMasterChef.sol\":26366:26427  if (_withUpdate) {... */\n      iszero\n      tag_319\n      jumpi\n        /* \"contracts/DDTMasterChef.sol\":26398:26415  massUpdatePools() */\n      tag_320\n        /* \"contracts/DDTMasterChef.sol\":26398:26413  massUpdatePools */\n      tag_86\n        /* \"contracts/DDTMasterChef.sol\":26398:26415  massUpdatePools() */\n      jump\t// in\n    tag_320:\n        /* \"contracts/DDTMasterChef.sol\":26366:26427  if (_withUpdate) {... */\n    tag_319:\n        /* \"contracts/DDTMasterChef.sol\":26437:26460  uint256 lastRewardBlock */\n      0x00\n        /* \"contracts/DDTMasterChef.sol\":26478:26488  startBlock */\n      sload(0x09)\n        /* \"contracts/DDTMasterChef.sol\":26463:26475  block.number */\n      number\n        /* \"contracts/DDTMasterChef.sol\":26463:26488  block.number > startBlock */\n      gt\n        /* \"contracts/DDTMasterChef.sol\":26463:26516  block.number > startBlock ? block.number : startBlock */\n      tag_321\n      jumpi\n        /* \"contracts/DDTMasterChef.sol\":26506:26516  startBlock */\n      sload(0x09)\n        /* \"contracts/DDTMasterChef.sol\":26463:26516  block.number > startBlock ? block.number : startBlock */\n      jump(tag_322)\n    tag_321:\n        /* \"contracts/DDTMasterChef.sol\":26491:26503  block.number */\n      number\n        /* \"contracts/DDTMasterChef.sol\":26463:26516  block.number > startBlock ? block.number : startBlock */\n    tag_322:\n        /* \"contracts/DDTMasterChef.sol\":26437:26516  uint256 lastRewardBlock = block.number > startBlock ? block.number : startBlock */\n      swap1\n      pop\n        /* \"contracts/DDTMasterChef.sol\":26545:26577  totalAllocPoint.add(_allocPoint) */\n      tag_323\n        /* \"contracts/DDTMasterChef.sol\":26565:26576  _allocPoint */\n      dup9\n        /* \"contracts/DDTMasterChef.sol\":26545:26560  totalAllocPoint */\n      sload(0x08)\n        /* \"contracts/DDTMasterChef.sol\":26545:26564  totalAllocPoint.add */\n      tag_193\n      swap1\n        /* \"contracts/DDTMasterChef.sol\":26545:26577  totalAllocPoint.add(_allocPoint) */\n      swap2\n      swap1\n      0xffffffff\n      and\n      jump\t// in\n    tag_323:\n        /* \"contracts/DDTMasterChef.sol\":26527:26542  totalAllocPoint */\n      0x08\n        /* \"contracts/DDTMasterChef.sol\":26527:26577  totalAllocPoint = totalAllocPoint.add(_allocPoint) */\n      dup2\n      swap1\n      sstore\n      pop\n        /* \"contracts/DDTMasterChef.sol\":26588:26596  poolInfo */\n      0x06\n        /* \"contracts/DDTMasterChef.sol\":26616:26962  PoolInfo({... */\n      mload(0x40)\n      dup1\n      0x0100\n      add\n      0x40\n      mstore\n      dup1\n        /* \"contracts/DDTMasterChef.sol\":26653:26661  _lpToken */\n      dup10\n        /* \"contracts/DDTMasterChef.sol\":26616:26962  PoolInfo({... */\n      0xffffffffffffffffffffffffffffffffffffffff\n      and\n      dup2\n      mstore\n      0x20\n      add\n        /* \"contracts/DDTMasterChef.sol\":26692:26703  _allocPoint */\n      dup11\n        /* \"contracts/DDTMasterChef.sol\":26616:26962  PoolInfo({... */\n      dup2\n      mstore\n      0x20\n      add\n        /* \"contracts/DDTMasterChef.sol\":26739:26754  lastRewardBlock */\n      dup4\n        /* \"contracts/DDTMasterChef.sol\":26616:26962  PoolInfo({... */\n      dup2\n      mstore\n      0x20\n      add\n        /* \"contracts/DDTMasterChef.sol\":26789:26790  0 */\n      0x00\n        /* \"contracts/DDTMasterChef.sol\":26616:26962  PoolInfo({... */\n      dup2\n      mstore\n      0x20\n      add\n        /* \"contracts/DDTMasterChef.sol\":26825:26840  _poolMasterChef */\n      dup8\n        /* \"contracts/DDTMasterChef.sol\":26616:26962  PoolInfo({... */\n      0xffffffffffffffffffffffffffffffffffffffff\n      and\n      dup2\n      mstore\n      0x20\n      add\n        /* \"contracts/DDTMasterChef.sol\":26872:26884  _rewardToken */\n      dup7\n        /* \"contracts/DDTMasterChef.sol\":26616:26962  PoolInfo({... */\n      0xffffffffffffffffffffffffffffffffffffffff\n      and\n      dup2\n      mstore\n      0x20\n      add\n        /* \"contracts/DDTMasterChef.sol\":26908:26912  _fee */\n      dup6\n        /* \"contracts/DDTMasterChef.sol\":26616:26962  PoolInfo({... */\n      dup2\n      mstore\n      0x20\n      add\n        /* \"contracts/DDTMasterChef.sol\":26939:26946  _method */\n      dup5\n        /* \"contracts/DDTMasterChef.sol\":26616:26962  PoolInfo({... */\n      dup2\n      mstore\n      pop\n        /* \"contracts/DDTMasterChef.sol\":26588:26973  poolInfo.push(... */\n      swap1\n      dup1\n      0x01\n      dup2\n      sload\n      add\n      dup1\n      dup3\n      sstore\n      dup1\n      swap2\n      pop\n      pop\n      0x01\n      swap1\n      sub\n      swap1\n      0x00\n      mstore\n      keccak256(0x00, 0x20)\n      swap1\n      0x08\n      mul\n      add\n      0x00\n      swap1\n      swap2\n      swap1\n      swap2\n      swap1\n      swap2\n      pop\n      0x00\n      dup3\n      add\n      mload\n      dup2\n      0x00\n      add\n      exp(0x0100, 0x00)\n      dup2\n      sload\n      dup2\n      0xffffffffffffffffffffffffffffffffffffffff\n      mul\n      not\n      and\n      swap1\n      dup4\n      0xffffffffffffffffffffffffffffffffffffffff\n      and\n      mul\n      or\n      swap1\n      sstore\n      pop\n      0x20\n      dup3\n      add\n      mload\n      dup2\n      0x01\n      add\n      sstore\n      0x40\n      dup3\n      add\n      mload\n      dup2\n      0x02\n      add\n      sstore\n      0x60\n      dup3\n      add\n      mload\n      dup2\n      0x03\n      add\n      sstore\n      0x80\n      dup3\n      add\n      mload\n      dup2\n      0x04\n      add\n      exp(0x0100, 0x00)\n      dup2\n      sload\n      dup2\n      0xffffffffffffffffffffffffffffffffffffffff\n      mul\n      not\n      and\n      swap1\n      dup4\n      0xffffffffffffffffffffffffffffffffffffffff\n      and\n      mul\n      or\n      swap1\n      sstore\n      pop\n      0xa0\n      dup3\n      add\n      mload\n      dup2\n      0x05\n      add\n      exp(0x0100, 0x00)\n      dup2\n      sload\n      dup2\n      0xffffffffffffffffffffffffffffffffffffffff\n      mul\n      not\n      and\n      swap1\n      dup4\n      0xffffffffffffffffffffffffffffffffffffffff\n      and\n      mul\n      or\n      swap1\n      sstore\n      pop\n      0xc0\n      dup3\n      add\n      mload\n      dup2\n      0x06\n      add\n      sstore\n      0xe0\n      dup3\n      add\n      mload\n      dup2\n      0x07\n      add\n      sstore\n      pop\n      pop\n        /* \"contracts/DDTMasterChef.sol\":26355:26981  {... */\n      pop\n        /* \"contracts/DDTMasterChef.sol\":26187:26981  function add( uint256 _allocPoint, IERC20 _lpToken, bool _withUpdate, IMasterChef _poolMasterChef, IERC20 _rewardToken, uint256 _fee, uint256 _method) public onlyOwner {... */\n      pop\n      pop\n      pop\n      pop\n      pop\n      pop\n      pop\n      jump\t// out\n        /* \"contracts/DDTMasterChef.sol\":33217:33393  function emergencyWithdrawFromBSW(uint256 _pid) public onlyOwner {... */\n    tag_97:\n        /* \"contracts/DDTMasterChef.sol\":20336:20348  _msgSender() */\n      tag_326\n        /* \"contracts/DDTMasterChef.sol\":20336:20346  _msgSender */\n      tag_226\n        /* \"contracts/DDTMasterChef.sol\":20336:20348  _msgSender() */\n      jump\t// in\n    tag_326:\n        /* \"contracts/DDTMasterChef.sol\":20325:20348  owner() == _msgSender() */\n      0xffffffffffffffffffffffffffffffffffffffff\n      and\n        /* \"contracts/DDTMasterChef.sol\":20325:20332  owner() */\n      tag_327\n        /* \"contracts/DDTMasterChef.sol\":20325:20330  owner */\n      tag_112\n        /* \"contracts/DDTMasterChef.sol\":20325:20332  owner() */\n      jump\t// in\n    tag_327:\n        /* \"contracts/DDTMasterChef.sol\":20325:20348  owner() == _msgSender() */\n      0xffffffffffffffffffffffffffffffffffffffff\n      and\n      eq\n        /* \"contracts/DDTMasterChef.sol\":20317:20385  require(owner() == _msgSender(), \"Ownable: caller is not the owner\") */\n      tag_328\n      jumpi\n      mload(0x40)\n      0x08c379a000000000000000000000000000000000000000000000000000000000\n      dup2\n      mstore\n      0x04\n      add\n      tag_329\n      swap1\n      tag_230\n      jump\t// in\n    tag_329:\n      mload(0x40)\n      dup1\n      swap2\n      sub\n      swap1\n      revert\n    tag_328:\n        /* \"contracts/DDTMasterChef.sol\":33293:33314  PoolInfo storage pool */\n      0x00\n        /* \"contracts/DDTMasterChef.sol\":33317:33325  poolInfo */\n      0x06\n        /* \"contracts/DDTMasterChef.sol\":33326:33330  _pid */\n      dup3\n        /* \"contracts/DDTMasterChef.sol\":33317:33331  poolInfo[_pid] */\n      dup2\n      sload\n      dup2\n      lt\n      tag_331\n      jumpi\n      tag_332\n      tag_155\n      jump\t// in\n    tag_332:\n    tag_331:\n      swap1\n      0x00\n      mstore\n      keccak256(0x00, 0x20)\n      swap1\n      0x08\n      mul\n      add\n        /* \"contracts/DDTMasterChef.sol\":33293:33331  PoolInfo storage pool = poolInfo[_pid] */\n      swap1\n      pop\n        /* \"contracts/DDTMasterChef.sol\":33342:33346  pool */\n      dup1\n        /* \"contracts/DDTMasterChef.sol\":33342:33361  pool.poolMasterChef */\n      0x04\n      add\n      0x00\n      swap1\n      sload\n      swap1\n      0x0100\n      exp\n      swap1\n      div\n      0xffffffffffffffffffffffffffffffffffffffff\n      and\n        /* \"contracts/DDTMasterChef.sol\":33342:33379  pool.poolMasterChef.emergencyWithdraw */\n      0xffffffffffffffffffffffffffffffffffffffff\n      and\n      0x5312ea8e\n        /* \"contracts/DDTMasterChef.sol\":33380:33384  _pid */\n      dup4\n        /* \"contracts/DDTMasterChef.sol\":33342:33385  pool.poolMasterChef.emergencyWithdraw(_pid) */\n      mload(0x40)\n      dup3\n      0xffffffff\n      and\n      0xe0\n      shl\n      dup2\n      mstore\n      0x04\n      add\n      tag_334\n      swap2\n      swap1\n      tag_48\n      jump\t// in\n    tag_334:\n      0x00\n      mload(0x40)\n      dup1\n      dup4\n      sub\n      dup2\n      0x00\n      dup8\n      dup1\n      extcodesize\n      iszero\n      dup1\n      iszero\n      tag_335\n      jumpi\n      0x00\n      dup1\n      revert\n    tag_335:\n      pop\n      gas\n      call\n      iszero\n      dup1\n      iszero\n      tag_337\n      jumpi\n      returndatasize\n      0x00\n      dup1\n      returndatacopy\n      revert(0x00, returndatasize)\n    tag_337:\n      pop\n      pop\n      pop\n      pop\n        /* \"contracts/DDTMasterChef.sol\":33282:33393  {... */\n      pop\n        /* \"contracts/DDTMasterChef.sol\":33217:33393  function emergencyWithdrawFromBSW(uint256 _pid) public onlyOwner {... */\n      pop\n      jump\t// out\n        /* \"contracts/DDTMasterChef.sol\":24875:24922  mapping (uint256 => uint256) public poolBalance */\n    tag_100:\n      mstore(0x20, 0x0a)\n      dup1\n      0x00\n      mstore\n      keccak256(0x00, 0x40)\n      0x00\n      swap2\n      pop\n      swap1\n      pop\n      sload\n      dup2\n      jump\t// out\n        /* \"contracts/DDTMasterChef.sol\":20756:20859  function renounceOwnership() public virtual onlyOwner {... */\n    tag_103:\n        /* \"contracts/DDTMasterChef.sol\":20336:20348  _msgSender() */\n      tag_339\n        /* \"contracts/DDTMasterChef.sol\":20336:20346  _msgSender */\n      tag_226\n        /* \"contracts/DDTMasterChef.sol\":20336:20348  _msgSender() */\n      jump\t// in\n    tag_339:\n        /* \"contracts/DDTMasterChef.sol\":20325:20348  owner() == _msgSender() */\n      0xffffffffffffffffffffffffffffffffffffffff\n      and\n        /* \"contracts/DDTMasterChef.sol\":20325:20332  owner() */\n      tag_340\n        /* \"contracts/DDTMasterChef.sol\":20325:20330  owner */\n      tag_112\n        /* \"contracts/DDTMasterChef.sol\":20325:20332  owner() */\n      jump\t// in\n    tag_340:\n        /* \"contracts/DDTMasterChef.sol\":20325:20348  owner() == _msgSender() */\n      0xffffffffffffffffffffffffffffffffffffffff\n      and\n      eq\n        /* \"contracts/DDTMasterChef.sol\":20317:20385  require(owner() == _msgSender(), \"Ownable: caller is not the owner\") */\n      tag_341\n      jumpi\n      mload(0x40)\n      0x08c379a000000000000000000000000000000000000000000000000000000000\n      dup2\n      mstore\n      0x04\n      add\n      tag_342\n      swap1\n      tag_230\n      jump\t// in\n    tag_342:\n      mload(0x40)\n      dup1\n      swap2\n      sub\n      swap1\n      revert\n    tag_341:\n        /* \"contracts/DDTMasterChef.sol\":20821:20851  _transferOwnership(address(0)) */\n      tag_344\n        /* \"contracts/DDTMasterChef.sol\":20848:20849  0 */\n      0x00\n        /* \"contracts/DDTMasterChef.sol\":20821:20839  _transferOwnership */\n      tag_345\n        /* \"contracts/DDTMasterChef.sol\":20821:20851  _transferOwnership(address(0)) */\n      jump\t// in\n    tag_344:\n        /* \"contracts/DDTMasterChef.sol\":20756:20859  function renounceOwnership() public virtual onlyOwner {... */\n      jump\t// out\n        /* \"contracts/DDTMasterChef.sol\":24447:24476  IMigratorChef public migrator */\n    tag_105:\n      0x05\n      0x00\n      swap1\n      sload\n      swap1\n      0x0100\n      exp\n      swap1\n      div\n      0xffffffffffffffffffffffffffffffffffffffff\n      and\n      dup2\n      jump\t// out\n        /* \"contracts/DDTMasterChef.sol\":24307:24342  uint256 public BONUS_MULTIPLIER = 1 */\n    tag_109:\n      sload(0x04)\n      dup2\n      jump\t// out\n        /* \"contracts/DDTMasterChef.sol\":20105:20192  function owner() public view virtual returns (address) {... */\n    tag_112:\n        /* \"contracts/DDTMasterChef.sol\":20151:20158  address */\n      0x00\n        /* \"contracts/DDTMasterChef.sol\":20178:20184  _owner */\n      dup1\n      0x00\n      swap1\n      sload\n      swap1\n      0x0100\n      exp\n      swap1\n      div\n      0xffffffffffffffffffffffffffffffffffffffff\n      and\n        /* \"contracts/DDTMasterChef.sol\":20171:20184  return _owner */\n      swap1\n      pop\n        /* \"contracts/DDTMasterChef.sol\":20105:20192  function owner() public view virtual returns (address) {... */\n      swap1\n      jump\t// out\n        /* \"contracts/DDTMasterChef.sol\":28234:28378  function getMultiplier(uint256 _from, uint256 _to) public view returns (uint256) {... */\n    tag_118:\n        /* \"contracts/DDTMasterChef.sol\":28306:28313  uint256 */\n      0x00\n        /* \"contracts/DDTMasterChef.sol\":28334:28370  _to.sub(_from).mul(BONUS_MULTIPLIER) */\n      tag_348\n        /* \"contracts/DDTMasterChef.sol\":28353:28369  BONUS_MULTIPLIER */\n      sload(0x04)\n        /* \"contracts/DDTMasterChef.sol\":28334:28348  _to.sub(_from) */\n      tag_349\n        /* \"contracts/DDTMasterChef.sol\":28342:28347  _from */\n      dup6\n        /* \"contracts/DDTMasterChef.sol\":28334:28337  _to */\n      dup6\n        /* \"contracts/DDTMasterChef.sol\":28334:28341  _to.sub */\n      tag_164\n      swap1\n        /* \"contracts/DDTMasterChef.sol\":28334:28348  _to.sub(_from) */\n      swap2\n      swap1\n      0xffffffff\n      and\n      jump\t// in\n    tag_349:\n        /* \"contracts/DDTMasterChef.sol\":28334:28352  _to.sub(_from).mul */\n      tag_162\n      swap1\n        /* \"contracts/DDTMasterChef.sol\":28334:28370  _to.sub(_from).mul(BONUS_MULTIPLIER) */\n      swap2\n      swap1\n      0xffffffff\n      and\n      jump\t// in\n    tag_348:\n        /* \"contracts/DDTMasterChef.sol\":28327:28370  return _to.sub(_from).mul(BONUS_MULTIPLIER) */\n      swap1\n      pop\n        /* \"contracts/DDTMasterChef.sol\":28234:28378  function getMultiplier(uint256 _from, uint256 _to) public view returns (uint256) {... */\n      swap3\n      swap2\n      pop\n      pop\n      jump\t// out\n        /* \"contracts/DDTMasterChef.sol\":24592:24656  mapping(uint256 => mapping(address => UserInfo)) public userInfo */\n    tag_122:\n      mstore(0x20, 0x07)\n      dup2\n      0x00\n      mstore\n      mstore(0x20, keccak256(0x00, 0x40))\n      dup1\n      0x00\n      mstore\n      keccak256(0x00, 0x40)\n      0x00\n      swap2\n      pop\n      swap2\n      pop\n      pop\n      dup1\n      0x00\n      add\n      sload\n      swap1\n      dup1\n      0x01\n      add\n      sload\n      swap1\n      pop\n      dup3\n      jump\t// out\n        /* \"contracts/DDTMasterChef.sol\":32068:33209  function withdraw(uint256 _pid, uint256 _otherChefPid, uint256 _amount) public {... */\n    tag_127:\n        /* \"contracts/DDTMasterChef.sol\":32160:32181  PoolInfo storage pool */\n      0x00\n        /* \"contracts/DDTMasterChef.sol\":32184:32192  poolInfo */\n      0x06\n        /* \"contracts/DDTMasterChef.sol\":32193:32197  _pid */\n      dup5\n        /* \"contracts/DDTMasterChef.sol\":32184:32198  poolInfo[_pid] */\n      dup2\n      sload\n      dup2\n      lt\n      tag_351\n      jumpi\n      tag_352\n      tag_155\n      jump\t// in\n    tag_352:\n    tag_351:\n      swap1\n      0x00\n      mstore\n      keccak256(0x00, 0x20)\n      swap1\n      0x08\n      mul\n      add\n        /* \"contracts/DDTMasterChef.sol\":32160:32198  PoolInfo storage pool = poolInfo[_pid] */\n      swap1\n      pop\n        /* \"contracts/DDTMasterChef.sol\":32209:32230  UserInfo storage user */\n      0x00\n        /* \"contracts/DDTMasterChef.sol\":32233:32241  userInfo */\n      0x07\n        /* \"contracts/DDTMasterChef.sol\":32233:32247  userInfo[_pid] */\n      0x00\n        /* \"contracts/DDTMasterChef.sol\":32242:32246  _pid */\n      dup7\n        /* \"contracts/DDTMasterChef.sol\":32233:32247  userInfo[_pid] */\n      dup2\n      mstore\n      0x20\n      add\n      swap1\n      dup2\n      mstore\n      0x20\n      add\n      0x00\n      keccak256\n        /* \"contracts/DDTMasterChef.sol\":32233:32259  userInfo[_pid][msg.sender] */\n      0x00\n        /* \"contracts/DDTMasterChef.sol\":32248:32258  msg.sender */\n      caller\n        /* \"contracts/DDTMasterChef.sol\":32233:32259  userInfo[_pid][msg.sender] */\n      0xffffffffffffffffffffffffffffffffffffffff\n      and\n      0xffffffffffffffffffffffffffffffffffffffff\n      and\n      dup2\n      mstore\n      0x20\n      add\n      swap1\n      dup2\n      mstore\n      0x20\n      add\n      0x00\n      keccak256\n        /* \"contracts/DDTMasterChef.sol\":32209:32259  UserInfo storage user = userInfo[_pid][msg.sender] */\n      swap1\n      pop\n        /* \"contracts/DDTMasterChef.sol\":32293:32300  _amount */\n      dup3\n        /* \"contracts/DDTMasterChef.sol\":32278:32282  user */\n      dup2\n        /* \"contracts/DDTMasterChef.sol\":32278:32289  user.amount */\n      0x00\n      add\n      sload\n        /* \"contracts/DDTMasterChef.sol\":32278:32300  user.amount >= _amount */\n      lt\n      iszero\n        /* \"contracts/DDTMasterChef.sol\":32270:32323  require(user.amount >= _amount, \"withdraw: not good\") */\n      tag_354\n      jumpi\n      mload(0x40)\n      0x08c379a000000000000000000000000000000000000000000000000000000000\n      dup2\n      mstore\n      0x04\n      add\n      tag_355\n      swap1\n      tag_356\n      jump\t// in\n    tag_355:\n      mload(0x40)\n      dup1\n      swap2\n      sub\n      swap1\n      revert\n    tag_354:\n        /* \"contracts/DDTMasterChef.sol\":32334:32350  updatePool(_pid) */\n      tag_357\n        /* \"contracts/DDTMasterChef.sol\":32345:32349  _pid */\n      dup6\n        /* \"contracts/DDTMasterChef.sol\":32334:32344  updatePool */\n      tag_75\n        /* \"contracts/DDTMasterChef.sol\":32334:32350  updatePool(_pid) */\n      jump\t// in\n    tag_357:\n        /* \"contracts/DDTMasterChef.sol\":32361:32376  uint256 pending */\n      0x00\n        /* \"contracts/DDTMasterChef.sol\":32379:32446  user.amount.mul(pool.accDDTPerShare).div(1e12).sub(user.rewardDebt) */\n      tag_358\n        /* \"contracts/DDTMasterChef.sol\":32430:32434  user */\n      dup3\n        /* \"contracts/DDTMasterChef.sol\":32430:32445  user.rewardDebt */\n      0x01\n      add\n      sload\n        /* \"contracts/DDTMasterChef.sol\":32379:32425  user.amount.mul(pool.accDDTPerShare).div(1e12) */\n      tag_359\n        /* \"contracts/DDTMasterChef.sol\":32420:32424  1e12 */\n      0xe8d4a51000\n        /* \"contracts/DDTMasterChef.sol\":32379:32415  user.amount.mul(pool.accDDTPerShare) */\n      tag_360\n        /* \"contracts/DDTMasterChef.sol\":32395:32399  pool */\n      dup8\n        /* \"contracts/DDTMasterChef.sol\":32395:32414  pool.accDDTPerShare */\n      0x03\n      add\n      sload\n        /* \"contracts/DDTMasterChef.sol\":32379:32383  user */\n      dup8\n        /* \"contracts/DDTMasterChef.sol\":32379:32390  user.amount */\n      0x00\n      add\n      sload\n        /* \"contracts/DDTMasterChef.sol\":32379:32394  user.amount.mul */\n      tag_162\n      swap1\n        /* \"contracts/DDTMasterChef.sol\":32379:32415  user.amount.mul(pool.accDDTPerShare) */\n      swap2\n      swap1\n      0xffffffff\n      and\n      jump\t// in\n    tag_360:\n        /* \"contracts/DDTMasterChef.sol\":32379:32419  user.amount.mul(pool.accDDTPerShare).div */\n      tag_163\n      swap1\n        /* \"contracts/DDTMasterChef.sol\":32379:32425  user.amount.mul(pool.accDDTPerShare).div(1e12) */\n      swap2\n      swap1\n      0xffffffff\n      and\n      jump\t// in\n    tag_359:\n        /* \"contracts/DDTMasterChef.sol\":32379:32429  user.amount.mul(pool.accDDTPerShare).div(1e12).sub */\n      tag_164\n      swap1\n        /* \"contracts/DDTMasterChef.sol\":32379:32446  user.amount.mul(pool.accDDTPerShare).div(1e12).sub(user.rewardDebt) */\n      swap2\n      swap1\n      0xffffffff\n      and\n      jump\t// in\n    tag_358:\n        /* \"contracts/DDTMasterChef.sol\":32361:32446  uint256 pending = user.amount.mul(pool.accDDTPerShare).div(1e12).sub(user.rewardDebt) */\n      swap1\n      pop\n        /* \"contracts/DDTMasterChef.sol\":32470:32471  0 */\n      0x00\n        /* \"contracts/DDTMasterChef.sol\":32460:32467  pending */\n      dup2\n        /* \"contracts/DDTMasterChef.sol\":32460:32471  pending > 0 */\n      gt\n        /* \"contracts/DDTMasterChef.sol\":32457:32544  if(pending > 0){... */\n      iszero\n      tag_361\n      jumpi\n        /* \"contracts/DDTMasterChef.sol\":32487:32532  safeDDTTransfer(address(msg.sender), pending) */\n      tag_362\n        /* \"contracts/DDTMasterChef.sol\":32511:32521  msg.sender */\n      caller\n        /* \"contracts/DDTMasterChef.sol\":32524:32531  pending */\n      dup3\n        /* \"contracts/DDTMasterChef.sol\":32487:32502  safeDDTTransfer */\n      tag_167\n        /* \"contracts/DDTMasterChef.sol\":32487:32532  safeDDTTransfer(address(msg.sender), pending) */\n      jump\t// in\n    tag_362:\n        /* \"contracts/DDTMasterChef.sol\":32457:32544  if(pending > 0){... */\n    tag_361:\n        /* \"contracts/DDTMasterChef.sol\":32568:32592  user.amount.sub(_amount) */\n      tag_363\n        /* \"contracts/DDTMasterChef.sol\":32584:32591  _amount */\n      dup5\n        /* \"contracts/DDTMasterChef.sol\":32568:32572  user */\n      dup4\n        /* \"contracts/DDTMasterChef.sol\":32568:32579  user.amount */\n      0x00\n      add\n      sload\n        /* \"contracts/DDTMasterChef.sol\":32568:32583  user.amount.sub */\n      tag_164\n      swap1\n        /* \"contracts/DDTMasterChef.sol\":32568:32592  user.amount.sub(_amount) */\n      swap2\n      swap1\n      0xffffffff\n      and\n      jump\t// in\n    tag_363:\n        /* \"contracts/DDTMasterChef.sol\":32554:32558  user */\n      dup3\n        /* \"contracts/DDTMasterChef.sol\":32554:32565  user.amount */\n      0x00\n      add\n        /* \"contracts/DDTMasterChef.sol\":32554:32592  user.amount = user.amount.sub(_amount) */\n      dup2\n      swap1\n      sstore\n      pop\n        /* \"contracts/DDTMasterChef.sol\":32623:32653  poolBalance[_pid].sub(_amount) */\n      tag_364\n        /* \"contracts/DDTMasterChef.sol\":32645:32652  _amount */\n      dup5\n        /* \"contracts/DDTMasterChef.sol\":32623:32634  poolBalance */\n      0x0a\n        /* \"contracts/DDTMasterChef.sol\":32623:32640  poolBalance[_pid] */\n      0x00\n        /* \"contracts/DDTMasterChef.sol\":32635:32639  _pid */\n      dup10\n        /* \"contracts/DDTMasterChef.sol\":32623:32640  poolBalance[_pid] */\n      dup2\n      mstore\n      0x20\n      add\n      swap1\n      dup2\n      mstore\n      0x20\n      add\n      0x00\n      keccak256\n      sload\n        /* \"contracts/DDTMasterChef.sol\":32623:32644  poolBalance[_pid].sub */\n      tag_164\n      swap1\n        /* \"contracts/DDTMasterChef.sol\":32623:32653  poolBalance[_pid].sub(_amount) */\n      swap2\n      swap1\n      0xffffffff\n      and\n      jump\t// in\n    tag_364:\n        /* \"contracts/DDTMasterChef.sol\":32603:32614  poolBalance */\n      0x0a\n        /* \"contracts/DDTMasterChef.sol\":32603:32620  poolBalance[_pid] */\n      0x00\n        /* \"contracts/DDTMasterChef.sol\":32615:32619  _pid */\n      dup9\n        /* \"contracts/DDTMasterChef.sol\":32603:32620  poolBalance[_pid] */\n      dup2\n      mstore\n      0x20\n      add\n      swap1\n      dup2\n      mstore\n      0x20\n      add\n      0x00\n      keccak256\n        /* \"contracts/DDTMasterChef.sol\":32603:32653  poolBalance[_pid] = poolBalance[_pid].sub(_amount) */\n      dup2\n      swap1\n      sstore\n      pop\n        /* \"contracts/DDTMasterChef.sol\":32682:32728  user.amount.mul(pool.accDDTPerShare).div(1e12) */\n      tag_365\n        /* \"contracts/DDTMasterChef.sol\":32723:32727  1e12 */\n      0xe8d4a51000\n        /* \"contracts/DDTMasterChef.sol\":32682:32718  user.amount.mul(pool.accDDTPerShare) */\n      tag_366\n        /* \"contracts/DDTMasterChef.sol\":32698:32702  pool */\n      dup6\n        /* \"contracts/DDTMasterChef.sol\":32698:32717  pool.accDDTPerShare */\n      0x03\n      add\n      sload\n        /* \"contracts/DDTMasterChef.sol\":32682:32686  user */\n      dup6\n        /* \"contracts/DDTMasterChef.sol\":32682:32693  user.amount */\n      0x00\n      add\n      sload\n        /* \"contracts/DDTMasterChef.sol\":32682:32697  user.amount.mul */\n      tag_162\n      swap1\n        /* \"contracts/DDTMasterChef.sol\":32682:32718  user.amount.mul(pool.accDDTPerShare) */\n      swap2\n      swap1\n      0xffffffff\n      and\n      jump\t// in\n    tag_366:\n        /* \"contracts/DDTMasterChef.sol\":32682:32722  user.amount.mul(pool.accDDTPerShare).div */\n      tag_163\n      swap1\n        /* \"contracts/DDTMasterChef.sol\":32682:32728  user.amount.mul(pool.accDDTPerShare).div(1e12) */\n      swap2\n      swap1\n      0xffffffff\n      and\n      jump\t// in\n    tag_365:\n        /* \"contracts/DDTMasterChef.sol\":32664:32668  user */\n      dup3\n        /* \"contracts/DDTMasterChef.sol\":32664:32679  user.rewardDebt */\n      0x01\n      add\n        /* \"contracts/DDTMasterChef.sol\":32664:32728  user.rewardDebt = user.amount.mul(pool.accDDTPerShare).div(1e12) */\n      dup2\n      swap1\n      sstore\n      pop\n        /* \"contracts/DDTMasterChef.sol\":32757:32758  0 */\n      0x00\n        /* \"contracts/DDTMasterChef.sol\":32742:32746  pool */\n      dup4\n        /* \"contracts/DDTMasterChef.sol\":32742:32753  pool.method */\n      0x07\n      add\n      sload\n        /* \"contracts/DDTMasterChef.sol\":32742:32758  pool.method == 0 */\n      sub\n        /* \"contracts/DDTMasterChef.sol\":32739:32910  if(pool.method == 0){... */\n      tag_367\n      jumpi\n        /* \"contracts/DDTMasterChef.sol\":32774:32778  pool */\n      dup3\n        /* \"contracts/DDTMasterChef.sol\":32774:32793  pool.poolMasterChef */\n      0x04\n      add\n      0x00\n      swap1\n      sload\n      swap1\n      0x0100\n      exp\n      swap1\n      div\n      0xffffffffffffffffffffffffffffffffffffffff\n      and\n        /* \"contracts/DDTMasterChef.sol\":32774:32806  pool.poolMasterChef.leaveStaking */\n      0xffffffffffffffffffffffffffffffffffffffff\n      and\n      0x1058d281\n        /* \"contracts/DDTMasterChef.sol\":32807:32814  _amount */\n      dup6\n        /* \"contracts/DDTMasterChef.sol\":32774:32815  pool.poolMasterChef.leaveStaking(_amount) */\n      mload(0x40)\n      dup3\n      0xffffffff\n      and\n      0xe0\n      shl\n      dup2\n      mstore\n      0x04\n      add\n      tag_368\n      swap2\n      swap1\n      tag_48\n      jump\t// in\n    tag_368:\n      0x00\n      mload(0x40)\n      dup1\n      dup4\n      sub\n      dup2\n      0x00\n      dup8\n      dup1\n      extcodesize\n      iszero\n      dup1\n      iszero\n      tag_369\n      jumpi\n      0x00\n      dup1\n      revert\n    tag_369:\n      pop\n      gas\n      call\n      iszero\n      dup1\n      iszero\n      tag_371\n      jumpi\n      returndatasize\n      0x00\n      dup1\n      returndatacopy\n      revert(0x00, returndatasize)\n    tag_371:\n      pop\n      pop\n      pop\n      pop\n        /* \"contracts/DDTMasterChef.sol\":32739:32910  if(pool.method == 0){... */\n      jump(tag_372)\n    tag_367:\n        /* \"contracts/DDTMasterChef.sol\":32846:32850  pool */\n      dup3\n        /* \"contracts/DDTMasterChef.sol\":32846:32865  pool.poolMasterChef */\n      0x04\n      add\n      0x00\n      swap1\n      sload\n      swap1\n      0x0100\n      exp\n      swap1\n      div\n      0xffffffffffffffffffffffffffffffffffffffff\n      and\n        /* \"contracts/DDTMasterChef.sol\":32846:32874  pool.poolMasterChef.withdraw */\n      0xffffffffffffffffffffffffffffffffffffffff\n      and\n      0x441a3e70\n        /* \"contracts/DDTMasterChef.sol\":32875:32888  _otherChefPid */\n      dup7\n        /* \"contracts/DDTMasterChef.sol\":32890:32897  _amount */\n      dup7\n        /* \"contracts/DDTMasterChef.sol\":32846:32898  pool.poolMasterChef.withdraw(_otherChefPid, _amount) */\n      mload(0x40)\n      dup4\n      0xffffffff\n      and\n      0xe0\n      shl\n      dup2\n      mstore\n      0x04\n      add\n      tag_373\n      swap3\n      swap2\n      swap1\n      tag_124\n      jump\t// in\n    tag_373:\n      0x00\n      mload(0x40)\n      dup1\n      dup4\n      sub\n      dup2\n      0x00\n      dup8\n      dup1\n      extcodesize\n      iszero\n      dup1\n      iszero\n      tag_374\n      jumpi\n      0x00\n      dup1\n      revert\n    tag_374:\n      pop\n      gas\n      call\n      iszero\n      dup1\n      iszero\n      tag_376\n      jumpi\n      returndatasize\n      0x00\n      dup1\n      returndatacopy\n      revert(0x00, returndatasize)\n    tag_376:\n      pop\n      pop\n      pop\n      pop\n        /* \"contracts/DDTMasterChef.sol\":32739:32910  if(pool.method == 0){... */\n    tag_372:\n        /* \"contracts/DDTMasterChef.sol\":32920:32975  pool.lpToken.safeTransfer(address(msg.sender), _amount) */\n      tag_377\n        /* \"contracts/DDTMasterChef.sol\":32954:32964  msg.sender */\n      caller\n        /* \"contracts/DDTMasterChef.sol\":32967:32974  _amount */\n      dup6\n        /* \"contracts/DDTMasterChef.sol\":32920:32924  pool */\n      dup6\n        /* \"contracts/DDTMasterChef.sol\":32920:32932  pool.lpToken */\n      0x00\n      add\n      0x00\n      swap1\n      sload\n      swap1\n      0x0100\n      exp\n      swap1\n      div\n      0xffffffffffffffffffffffffffffffffffffffff\n      and\n        /* \"contracts/DDTMasterChef.sol\":32920:32945  pool.lpToken.safeTransfer */\n      0xffffffffffffffffffffffffffffffffffffffff\n      and\n      tag_203\n      swap1\n        /* \"contracts/DDTMasterChef.sol\":32920:32975  pool.lpToken.safeTransfer(address(msg.sender), _amount) */\n      swap3\n      swap2\n      swap1\n      0xffffffff\n      and\n      jump\t// in\n    tag_377:\n        /* \"contracts/DDTMasterChef.sol\":32986:33000  uint256 reward */\n      0x00\n        /* \"contracts/DDTMasterChef.sol\":33003:33007  pool */\n      dup4\n        /* \"contracts/DDTMasterChef.sol\":33003:33019  pool.rewardToken */\n      0x05\n      add\n      0x00\n      swap1\n      sload\n      swap1\n      0x0100\n      exp\n      swap1\n      div\n      0xffffffffffffffffffffffffffffffffffffffff\n      and\n        /* \"contracts/DDTMasterChef.sol\":33003:33029  pool.rewardToken.balanceOf */\n      0xffffffffffffffffffffffffffffffffffffffff\n      and\n      0x70a08231\n        /* \"contracts/DDTMasterChef.sol\":33038:33042  this */\n      address\n        /* \"contracts/DDTMasterChef.sol\":33003:33044  pool.rewardToken.balanceOf(address(this)) */\n      mload(0x40)\n      dup3\n      0xffffffff\n      and\n      0xe0\n      shl\n      dup2\n      mstore\n      0x04\n      add\n      tag_378\n      swap2\n      swap1\n      tag_114\n      jump\t// in\n    tag_378:\n      0x20\n      mload(0x40)\n      dup1\n      dup4\n      sub\n      dup2\n      dup7\n      gas\n      staticcall\n      iszero\n      dup1\n      iszero\n      tag_380\n      jumpi\n      returndatasize\n      0x00\n      dup1\n      returndatacopy\n      revert(0x00, returndatasize)\n    tag_380:\n      pop\n      pop\n      pop\n      pop\n      mload(0x40)\n      returndatasize\n      not(0x1f)\n      0x1f\n      dup3\n      add\n      and\n      dup3\n      add\n      dup1\n      0x40\n      mstore\n      pop\n      dup2\n      add\n      swap1\n      tag_381\n      swap2\n      swap1\n      tag_173\n      jump\t// in\n    tag_381:\n        /* \"contracts/DDTMasterChef.sol\":32986:33044  uint256 reward = pool.rewardToken.balanceOf(address(this)) */\n      swap1\n      pop\n        /* \"contracts/DDTMasterChef.sol\":33067:33068  0 */\n      0x00\n        /* \"contracts/DDTMasterChef.sol\":33058:33064  reward */\n      dup2\n        /* \"contracts/DDTMasterChef.sol\":33058:33068  reward > 0 */\n      gt\n        /* \"contracts/DDTMasterChef.sol\":33055:33151  if(reward > 0){... */\n      iszero\n      tag_382\n      jumpi\n        /* \"contracts/DDTMasterChef.sol\":33084:33139  pool.rewardToken.safeTransfer(address(devaddr), reward) */\n      tag_383\n        /* \"contracts/DDTMasterChef.sol\":33122:33129  devaddr */\n      0x02\n      0x00\n      swap1\n      sload\n      swap1\n      0x0100\n      exp\n      swap1\n      div\n      0xffffffffffffffffffffffffffffffffffffffff\n      and\n        /* \"contracts/DDTMasterChef.sol\":33132:33138  reward */\n      dup3\n        /* \"contracts/DDTMasterChef.sol\":33084:33088  pool */\n      dup7\n        /* \"contracts/DDTMasterChef.sol\":33084:33100  pool.rewardToken */\n      0x05\n      add\n      0x00\n      swap1\n      sload\n      swap1\n      0x0100\n      exp\n      swap1\n      div\n      0xffffffffffffffffffffffffffffffffffffffff\n      and\n        /* \"contracts/DDTMasterChef.sol\":33084:33113  pool.rewardToken.safeTransfer */\n      0xffffffffffffffffffffffffffffffffffffffff\n      and\n      tag_203\n      swap1\n        /* \"contracts/DDTMasterChef.sol\":33084:33139  pool.rewardToken.safeTransfer(address(devaddr), reward) */\n      swap3\n      swap2\n      swap1\n      0xffffffff\n      and\n      jump\t// in\n    tag_383:\n        /* \"contracts/DDTMasterChef.sol\":33055:33151  if(reward > 0){... */\n    tag_382:\n        /* \"contracts/DDTMasterChef.sol\":33187:33191  _pid */\n      dup7\n        /* \"contracts/DDTMasterChef.sol\":33175:33185  msg.sender */\n      caller\n        /* \"contracts/DDTMasterChef.sol\":33166:33201  Withdraw(msg.sender, _pid, _amount) */\n      0xffffffffffffffffffffffffffffffffffffffff\n      and\n      0xf279e6a1f5e320cca91135676d9cb6e44ca8a08c0b88342bcdb1144f6511b568\n        /* \"contracts/DDTMasterChef.sol\":33193:33200  _amount */\n      dup8\n        /* \"contracts/DDTMasterChef.sol\":33166:33201  Withdraw(msg.sender, _pid, _amount) */\n      mload(0x40)\n      tag_384\n      swap2\n      swap1\n      tag_48\n      jump\t// in\n    tag_384:\n      mload(0x40)\n      dup1\n      swap2\n      sub\n      swap1\n      log3\n        /* \"contracts/DDTMasterChef.sol\":32147:33209  {... */\n      pop\n      pop\n      pop\n      pop\n        /* \"contracts/DDTMasterChef.sol\":32068:33209  function withdraw(uint256 _pid, uint256 _otherChefPid, uint256 _amount) public {... */\n      pop\n      pop\n      pop\n      jump\t// out\n        /* \"contracts/DDTMasterChef.sol\":24116:24133  IERC20 public DDT */\n    tag_129:\n      0x01\n      0x00\n      swap1\n      sload\n      swap1\n      0x0100\n      exp\n      swap1\n      div\n      0xffffffffffffffffffffffffffffffffffffffff\n      and\n      dup2\n      jump\t// out\n        /* \"contracts/DDTMasterChef.sol\":25839:26016  function getUserBalance(uint256 _pid, address _user) external view returns (uint256){... */\n    tag_134:\n        /* \"contracts/DDTMasterChef.sol\":25915:25922  uint256 */\n      0x00\n        /* \"contracts/DDTMasterChef.sol\":25934:25955  UserInfo storage user */\n      dup1\n        /* \"contracts/DDTMasterChef.sol\":25958:25966  userInfo */\n      0x07\n        /* \"contracts/DDTMasterChef.sol\":25958:25972  userInfo[_pid] */\n      0x00\n        /* \"contracts/DDTMasterChef.sol\":25967:25971  _pid */\n      dup6\n        /* \"contracts/DDTMasterChef.sol\":25958:25972  userInfo[_pid] */\n      dup2\n      mstore\n      0x20\n      add\n      swap1\n      dup2\n      mstore\n      0x20\n      add\n      0x00\n      keccak256\n        /* \"contracts/DDTMasterChef.sol\":25958:25979  userInfo[_pid][_user] */\n      0x00\n        /* \"contracts/DDTMasterChef.sol\":25973:25978  _user */\n      dup5\n        /* \"contracts/DDTMasterChef.sol\":25958:25979  userInfo[_pid][_user] */\n      0xffffffffffffffffffffffffffffffffffffffff\n      and\n      0xffffffffffffffffffffffffffffffffffffffff\n      and\n      dup2\n      mstore\n      0x20\n      add\n      swap1\n      dup2\n      mstore\n      0x20\n      add\n      0x00\n      keccak256\n        /* \"contracts/DDTMasterChef.sol\":25934:25979  UserInfo storage user = userInfo[_pid][_user] */\n      swap1\n      pop\n        /* \"contracts/DDTMasterChef.sol\":25997:26001  user */\n      dup1\n        /* \"contracts/DDTMasterChef.sol\":25997:26008  user.amount */\n      0x00\n      add\n      sload\n        /* \"contracts/DDTMasterChef.sol\":25990:26008  return user.amount */\n      swap2\n      pop\n      pop\n        /* \"contracts/DDTMasterChef.sol\":25839:26016  function getUserBalance(uint256 _pid, address _user) external view returns (uint256){... */\n      swap3\n      swap2\n      pop\n      pop\n      jump\t// out\n        /* \"contracts/DDTMasterChef.sol\":34217:34312  function setDevAddress(address _devaddr) public onlyOwner {... */\n    tag_139:\n        /* \"contracts/DDTMasterChef.sol\":20336:20348  _msgSender() */\n      tag_387\n        /* \"contracts/DDTMasterChef.sol\":20336:20346  _msgSender */\n      tag_226\n        /* \"contracts/DDTMasterChef.sol\":20336:20348  _msgSender() */\n      jump\t// in\n    tag_387:\n        /* \"contracts/DDTMasterChef.sol\":20325:20348  owner() == _msgSender() */\n      0xffffffffffffffffffffffffffffffffffffffff\n      and\n        /* \"contracts/DDTMasterChef.sol\":20325:20332  owner() */\n      tag_388\n        /* \"contracts/DDTMasterChef.sol\":20325:20330  owner */\n      tag_112\n        /* \"contracts/DDTMasterChef.sol\":20325:20332  owner() */\n      jump\t// in\n    tag_388:\n        /* \"contracts/DDTMasterChef.sol\":20325:20348  owner() == _msgSender() */\n      0xffffffffffffffffffffffffffffffffffffffff\n      and\n      eq\n        /* \"contracts/DDTMasterChef.sol\":20317:20385  require(owner() == _msgSender(), \"Ownable: caller is not the owner\") */\n      tag_389\n      jumpi\n      mload(0x40)\n      0x08c379a000000000000000000000000000000000000000000000000000000000\n      dup2\n      mstore\n      0x04\n      add\n      tag_390\n      swap1\n      tag_230\n      jump\t// in\n    tag_390:\n      mload(0x40)\n      dup1\n      swap2\n      sub\n      swap1\n      revert\n    tag_389:\n        /* \"contracts/DDTMasterChef.sol\":34296:34304  _devaddr */\n      dup1\n        /* \"contracts/DDTMasterChef.sol\":34286:34293  devaddr */\n      0x02\n      0x00\n        /* \"contracts/DDTMasterChef.sol\":34286:34304  devaddr = _devaddr */\n      0x0100\n      exp\n      dup2\n      sload\n      dup2\n      0xffffffffffffffffffffffffffffffffffffffff\n      mul\n      not\n      and\n      swap1\n      dup4\n      0xffffffffffffffffffffffffffffffffffffffff\n      and\n      mul\n      or\n      swap1\n      sstore\n      pop\n        /* \"contracts/DDTMasterChef.sol\":34217:34312  function setDevAddress(address _devaddr) public onlyOwner {... */\n      pop\n      jump\t// out\n        /* \"contracts/DDTMasterChef.sol\":24161:24183  address public devaddr */\n    tag_141:\n      0x02\n      0x00\n      swap1\n      sload\n      swap1\n      0x0100\n      exp\n      swap1\n      div\n      0xffffffffffffffffffffffffffffffffffffffff\n      and\n      dup2\n      jump\t// out\n        /* \"contracts/DDTMasterChef.sol\":30222:30460  function enablePool(uint256 _pid) public {... */\n    tag_145:\n        /* \"contracts/DDTMasterChef.sol\":30274:30295  PoolInfo storage pool */\n      0x00\n        /* \"contracts/DDTMasterChef.sol\":30298:30306  poolInfo */\n      0x06\n        /* \"contracts/DDTMasterChef.sol\":30307:30311  _pid */\n      dup3\n        /* \"contracts/DDTMasterChef.sol\":30298:30312  poolInfo[_pid] */\n      dup2\n      sload\n      dup2\n      lt\n      tag_393\n      jumpi\n      tag_394\n      tag_155\n      jump\t// in\n    tag_394:\n    tag_393:\n      swap1\n      0x00\n      mstore\n      keccak256(0x00, 0x20)\n      swap1\n      0x08\n      mul\n      add\n        /* \"contracts/DDTMasterChef.sol\":30274:30312  PoolInfo storage pool = poolInfo[_pid] */\n      swap1\n      pop\n        /* \"contracts/DDTMasterChef.sol\":30323:30327  pool */\n      dup1\n        /* \"contracts/DDTMasterChef.sol\":30323:30335  pool.lpToken */\n      0x00\n      add\n      0x00\n      swap1\n      sload\n      swap1\n      0x0100\n      exp\n      swap1\n      div\n      0xffffffffffffffffffffffffffffffffffffffff\n      and\n        /* \"contracts/DDTMasterChef.sol\":30323:30343  pool.lpToken.approve */\n      0xffffffffffffffffffffffffffffffffffffffff\n      and\n      0x095ea7b3\n        /* \"contracts/DDTMasterChef.sol\":30352:30356  pool */\n      dup3\n        /* \"contracts/DDTMasterChef.sol\":30352:30371  pool.poolMasterChef */\n      0x04\n      add\n      0x00\n      swap1\n      sload\n      swap1\n      0x0100\n      exp\n      swap1\n      div\n      0xffffffffffffffffffffffffffffffffffffffff\n      and\n        /* \"contracts/DDTMasterChef.sol\":30373:30386  approveAmount */\n      sload(0x0b)\n        /* \"contracts/DDTMasterChef.sol\":30323:30387  pool.lpToken.approve(address(pool.poolMasterChef),approveAmount) */\n      mload(0x40)\n      dup4\n      0xffffffff\n      and\n      0xe0\n      shl\n      dup2\n      mstore\n      0x04\n      add\n      tag_396\n      swap3\n      swap2\n      swap1\n      tag_264\n      jump\t// in\n    tag_396:\n      0x20\n      mload(0x40)\n      dup1\n      dup4\n      sub\n      dup2\n      0x00\n      dup8\n      gas\n      call\n      iszero\n      dup1\n      iszero\n      tag_398\n      jumpi\n      returndatasize\n      0x00\n      dup1\n      returndatacopy\n      revert(0x00, returndatasize)\n    tag_398:\n      pop\n      pop\n      pop\n      pop\n      mload(0x40)\n      returndatasize\n      not(0x1f)\n      0x1f\n      dup3\n      add\n      and\n      dup3\n      add\n      dup1\n      0x40\n      mstore\n      pop\n      dup2\n      add\n      swap1\n      tag_399\n      swap2\n      swap1\n      tag_268\n      jump\t// in\n    tag_399:\n      pop\n        /* \"contracts/DDTMasterChef.sol\":30398:30402  pool */\n      dup1\n        /* \"contracts/DDTMasterChef.sol\":30398:30414  pool.rewardToken */\n      0x05\n      add\n      0x00\n      swap1\n      sload\n      swap1\n      0x0100\n      exp\n      swap1\n      div\n      0xffffffffffffffffffffffffffffffffffffffff\n      and\n        /* \"contracts/DDTMasterChef.sol\":30398:30422  pool.rewardToken.approve */\n      0xffffffffffffffffffffffffffffffffffffffff\n      and\n      0x095ea7b3\n        /* \"contracts/DDTMasterChef.sol\":30431:30435  this */\n      address\n        /* \"contracts/DDTMasterChef.sol\":30438:30451  approveAmount */\n      sload(0x0b)\n        /* \"contracts/DDTMasterChef.sol\":30398:30452  pool.rewardToken.approve(address(this), approveAmount) */\n      mload(0x40)\n      dup4\n      0xffffffff\n      and\n      0xe0\n      shl\n      dup2\n      mstore\n      0x04\n      add\n      tag_400\n      swap3\n      swap2\n      swap1\n      tag_264\n      jump\t// in\n    tag_400:\n      0x20\n      mload(0x40)\n      dup1\n      dup4\n      sub\n      dup2\n      0x00\n      dup8\n      gas\n      call\n      iszero\n      dup1\n      iszero\n      tag_402\n      jumpi\n      returndatasize\n      0x00\n      dup1\n      returndatacopy\n      revert(0x00, returndatasize)\n    tag_402:\n      pop\n      pop\n      pop\n      pop\n      mload(0x40)\n      returndatasize\n      not(0x1f)\n      0x1f\n      dup3\n      add\n      and\n      dup3\n      add\n      dup1\n      0x40\n      mstore\n      pop\n      dup2\n      add\n      swap1\n      tag_403\n      swap2\n      swap1\n      tag_268\n      jump\t// in\n    tag_403:\n      pop\n        /* \"contracts/DDTMasterChef.sol\":30263:30460  {... */\n      pop\n        /* \"contracts/DDTMasterChef.sol\":30222:30460  function enablePool(uint256 _pid) public {... */\n      pop\n      jump\t// out\n        /* \"contracts/DDTMasterChef.sol\":21014:21215  function transferOwnership(address newOwner) public virtual onlyOwner {... */\n    tag_148:\n        /* \"contracts/DDTMasterChef.sol\":20336:20348  _msgSender() */\n      tag_405\n        /* \"contracts/DDTMasterChef.sol\":20336:20346  _msgSender */\n      tag_226\n        /* \"contracts/DDTMasterChef.sol\":20336:20348  _msgSender() */\n      jump\t// in\n    tag_405:\n        /* \"contracts/DDTMasterChef.sol\":20325:20348  owner() == _msgSender() */\n      0xffffffffffffffffffffffffffffffffffffffff\n      and\n        /* \"contracts/DDTMasterChef.sol\":20325:20332  owner() */\n      tag_406\n        /* \"contracts/DDTMasterChef.sol\":20325:20330  owner */\n      tag_112\n        /* \"contracts/DDTMasterChef.sol\":20325:20332  owner() */\n      jump\t// in\n    tag_406:\n        /* \"contracts/DDTMasterChef.sol\":20325:20348  owner() == _msgSender() */\n      0xffffffffffffffffffffffffffffffffffffffff\n      and\n      eq\n        /* \"contracts/DDTMasterChef.sol\":20317:20385  require(owner() == _msgSender(), \"Ownable: caller is not the owner\") */\n      tag_407\n      jumpi\n      mload(0x40)\n      0x08c379a000000000000000000000000000000000000000000000000000000000\n      dup2\n      mstore\n      0x04\n      add\n      tag_408\n      swap1\n      tag_230\n      jump\t// in\n    tag_408:\n      mload(0x40)\n      dup1\n      swap2\n      sub\n      swap1\n      revert\n    tag_407:\n        /* \"contracts/DDTMasterChef.sol\":21123:21124  0 */\n      0x00\n        /* \"contracts/DDTMasterChef.sol\":21103:21125  newOwner != address(0) */\n      0xffffffffffffffffffffffffffffffffffffffff\n      and\n        /* \"contracts/DDTMasterChef.sol\":21103:21111  newOwner */\n      dup2\n        /* \"contracts/DDTMasterChef.sol\":21103:21125  newOwner != address(0) */\n      0xffffffffffffffffffffffffffffffffffffffff\n      and\n      sub\n        /* \"contracts/DDTMasterChef.sol\":21095:21168  require(newOwner != address(0), \"Ownable: new owner is the zero address\") */\n      tag_410\n      jumpi\n      mload(0x40)\n      0x08c379a000000000000000000000000000000000000000000000000000000000\n      dup2\n      mstore\n      0x04\n      add\n      tag_411\n      swap1\n      tag_412\n      jump\t// in\n    tag_411:\n      mload(0x40)\n      dup1\n      swap2\n      sub\n      swap1\n      revert\n    tag_410:\n        /* \"contracts/DDTMasterChef.sol\":21179:21207  _transferOwnership(newOwner) */\n      tag_413\n        /* \"contracts/DDTMasterChef.sol\":21198:21206  newOwner */\n      dup2\n        /* \"contracts/DDTMasterChef.sol\":21179:21197  _transferOwnership */\n      tag_345\n        /* \"contracts/DDTMasterChef.sol\":21179:21207  _transferOwnership(newOwner) */\n      jump\t// in\n    tag_413:\n        /* \"contracts/DDTMasterChef.sol\":21014:21215  function transferOwnership(address newOwner) public virtual onlyOwner {... */\n      pop\n      jump\t// out\n        /* \"contracts/DDTMasterChef.sol\":24228:24254  uint256 public DDTPerBlock */\n    tag_150:\n      sload(0x03)\n      dup2\n      jump\t// out\n        /* \"contracts/DDTMasterChef.sol\":1757:2228  function mul(uint256 a, uint256 b) internal pure returns (uint256) {... */\n    tag_162:\n        /* \"contracts/DDTMasterChef.sol\":1815:1822  uint256 */\n      0x00\n        /* \"contracts/DDTMasterChef.sol\":2065:2066  0 */\n      dup1\n        /* \"contracts/DDTMasterChef.sol\":2060:2061  a */\n      dup4\n        /* \"contracts/DDTMasterChef.sol\":2060:2066  a == 0 */\n      sub\n        /* \"contracts/DDTMasterChef.sol\":2056:2103  if (a == 0) {... */\n      tag_415\n      jumpi\n        /* \"contracts/DDTMasterChef.sol\":2090:2091  0 */\n      0x00\n        /* \"contracts/DDTMasterChef.sol\":2083:2091  return 0 */\n      swap1\n      pop\n      jump(tag_414)\n        /* \"contracts/DDTMasterChef.sol\":2056:2103  if (a == 0) {... */\n    tag_415:\n        /* \"contracts/DDTMasterChef.sol\":2115:2124  uint256 c */\n      0x00\n        /* \"contracts/DDTMasterChef.sol\":2131:2132  b */\n      dup3\n        /* \"contracts/DDTMasterChef.sol\":2127:2128  a */\n      dup5\n        /* \"contracts/DDTMasterChef.sol\":2127:2132  a * b */\n      tag_416\n      swap2\n      swap1\n      tag_417\n      jump\t// in\n    tag_416:\n        /* \"contracts/DDTMasterChef.sol\":2115:2132  uint256 c = a * b */\n      swap1\n      pop\n        /* \"contracts/DDTMasterChef.sol\":2160:2161  b */\n      dup3\n        /* \"contracts/DDTMasterChef.sol\":2155:2156  a */\n      dup5\n        /* \"contracts/DDTMasterChef.sol\":2151:2152  c */\n      dup3\n        /* \"contracts/DDTMasterChef.sol\":2151:2156  c / a */\n      tag_418\n      swap2\n      swap1\n      tag_419\n      jump\t// in\n    tag_418:\n        /* \"contracts/DDTMasterChef.sol\":2151:2161  c / a == b */\n      eq\n        /* \"contracts/DDTMasterChef.sol\":2143:2199  require(c / a == b, \"SafeMath: multiplication overflow\") */\n      tag_420\n      jumpi\n      mload(0x40)\n      0x08c379a000000000000000000000000000000000000000000000000000000000\n      dup2\n      mstore\n      0x04\n      add\n      tag_421\n      swap1\n      tag_422\n      jump\t// in\n    tag_421:\n      mload(0x40)\n      dup1\n      swap2\n      sub\n      swap1\n      revert\n    tag_420:\n        /* \"contracts/DDTMasterChef.sol\":2219:2220  c */\n      dup1\n        /* \"contracts/DDTMasterChef.sol\":2212:2220  return c */\n      swap2\n      pop\n      pop\n        /* \"contracts/DDTMasterChef.sol\":1757:2228  function mul(uint256 a, uint256 b) internal pure returns (uint256) {... */\n    tag_414:\n      swap3\n      swap2\n      pop\n      pop\n      jump\t// out\n        /* \"contracts/DDTMasterChef.sol\":2696:2828  function div(uint256 a, uint256 b) internal pure returns (uint256) {... */\n    tag_163:\n        /* \"contracts/DDTMasterChef.sol\":2754:2761  uint256 */\n      0x00\n        /* \"contracts/DDTMasterChef.sol\":2781:2820  div(a, b, \"SafeMath: division by zero\") */\n      tag_424\n        /* \"contracts/DDTMasterChef.sol\":2785:2786  a */\n      dup4\n        /* \"contracts/DDTMasterChef.sol\":2788:2789  b */\n      dup4\n        /* \"contracts/DDTMasterChef.sol\":2781:2820  div(a, b, \"SafeMath: division by zero\") */\n      mload(0x40)\n      dup1\n      0x40\n      add\n      0x40\n      mstore\n      dup1\n      0x1a\n      dup2\n      mstore\n      0x20\n      add\n      0x536166654d6174683a206469766973696f6e206279207a65726f000000000000\n      dup2\n      mstore\n      pop\n        /* \"contracts/DDTMasterChef.sol\":2781:2784  div */\n      tag_425\n        /* \"contracts/DDTMasterChef.sol\":2781:2820  div(a, b, \"SafeMath: division by zero\") */\n      jump\t// in\n    tag_424:\n        /* \"contracts/DDTMasterChef.sol\":2774:2820  return div(a, b, \"SafeMath: division by zero\") */\n      swap1\n      pop\n        /* \"contracts/DDTMasterChef.sol\":2696:2828  function div(uint256 a, uint256 b) internal pure returns (uint256) {... */\n      swap3\n      swap2\n      pop\n      pop\n      jump\t// out\n        /* \"contracts/DDTMasterChef.sol\":841:977  function sub(uint256 a, uint256 b) internal pure returns (uint256) {... */\n    tag_164:\n        /* \"contracts/DDTMasterChef.sol\":899:906  uint256 */\n      0x00\n        /* \"contracts/DDTMasterChef.sol\":926:969  sub(a, b, \"SafeMath: subtraction overflow\") */\n      tag_427\n        /* \"contracts/DDTMasterChef.sol\":930:931  a */\n      dup4\n        /* \"contracts/DDTMasterChef.sol\":933:934  b */\n      dup4\n        /* \"contracts/DDTMasterChef.sol\":926:969  sub(a, b, \"SafeMath: subtraction overflow\") */\n      mload(0x40)\n      dup1\n      0x40\n      add\n      0x40\n      mstore\n      dup1\n      0x1e\n      dup2\n      mstore\n      0x20\n      add\n      0x536166654d6174683a207375627472616374696f6e206f766572666c6f770000\n      dup2\n      mstore\n      pop\n        /* \"contracts/DDTMasterChef.sol\":926:929  sub */\n      tag_428\n        /* \"contracts/DDTMasterChef.sol\":926:969  sub(a, b, \"SafeMath: subtraction overflow\") */\n      jump\t// in\n    tag_427:\n        /* \"contracts/DDTMasterChef.sol\":919:969  return sub(a, b, \"SafeMath: subtraction overflow\") */\n      swap1\n      pop\n        /* \"contracts/DDTMasterChef.sol\":841:977  function sub(uint256 a, uint256 b) internal pure returns (uint256) {... */\n      swap3\n      swap2\n      pop\n      pop\n      jump\t// out\n        /* \"contracts/DDTMasterChef.sol\":33932:34203  function safeDDTTransfer(address _to, uint256 _amount) internal {... */\n    tag_167:\n        /* \"contracts/DDTMasterChef.sol\":34007:34021  uint256 DDTBal */\n      0x00\n        /* \"contracts/DDTMasterChef.sol\":34024:34027  DDT */\n      0x01\n      0x00\n      swap1\n      sload\n      swap1\n      0x0100\n      exp\n      swap1\n      div\n      0xffffffffffffffffffffffffffffffffffffffff\n      and\n        /* \"contracts/DDTMasterChef.sol\":34024:34037  DDT.balanceOf */\n      0xffffffffffffffffffffffffffffffffffffffff\n      and\n      0x70a08231\n        /* \"contracts/DDTMasterChef.sol\":34046:34050  this */\n      address\n        /* \"contracts/DDTMasterChef.sol\":34024:34052  DDT.balanceOf(address(this)) */\n      mload(0x40)\n      dup3\n      0xffffffff\n      and\n      0xe0\n      shl\n      dup2\n      mstore\n      0x04\n      add\n      tag_430\n      swap2\n      swap1\n      tag_114\n      jump\t// in\n    tag_430:\n      0x20\n      mload(0x40)\n      dup1\n      dup4\n      sub\n      dup2\n      dup7\n      gas\n      staticcall\n      iszero\n      dup1\n      iszero\n      tag_432\n      jumpi\n      returndatasize\n      0x00\n      dup1\n      returndatacopy\n      revert(0x00, returndatasize)\n    tag_432:\n      pop\n      pop\n      pop\n      pop\n      mload(0x40)\n      returndatasize\n      not(0x1f)\n      0x1f\n      dup3\n      add\n      and\n      dup3\n      add\n      dup1\n      0x40\n      mstore\n      pop\n      dup2\n      add\n      swap1\n      tag_433\n      swap2\n      swap1\n      tag_173\n      jump\t// in\n    tag_433:\n        /* \"contracts/DDTMasterChef.sol\":34007:34052  uint256 DDTBal = DDT.balanceOf(address(this)) */\n      swap1\n      pop\n        /* \"contracts/DDTMasterChef.sol\":34077:34083  DDTBal */\n      dup1\n        /* \"contracts/DDTMasterChef.sol\":34067:34074  _amount */\n      dup3\n        /* \"contracts/DDTMasterChef.sol\":34067:34083  _amount > DDTBal */\n      gt\n        /* \"contracts/DDTMasterChef.sol\":34063:34196  if (_amount > DDTBal) {... */\n      iszero\n      tag_434\n      jumpi\n        /* \"contracts/DDTMasterChef.sol\":34100:34103  DDT */\n      0x01\n      0x00\n      swap1\n      sload\n      swap1\n      0x0100\n      exp\n      swap1\n      div\n      0xffffffffffffffffffffffffffffffffffffffff\n      and\n        /* \"contracts/DDTMasterChef.sol\":34100:34112  DDT.transfer */\n      0xffffffffffffffffffffffffffffffffffffffff\n      and\n      0xa9059cbb\n        /* \"contracts/DDTMasterChef.sol\":34113:34116  _to */\n      dup5\n        /* \"contracts/DDTMasterChef.sol\":34118:34124  DDTBal */\n      dup4\n        /* \"contracts/DDTMasterChef.sol\":34100:34125  DDT.transfer(_to, DDTBal) */\n      mload(0x40)\n      dup4\n      0xffffffff\n      and\n      0xe0\n      shl\n      dup2\n      mstore\n      0x04\n      add\n      tag_435\n      swap3\n      swap2\n      swap1\n      tag_264\n      jump\t// in\n    tag_435:\n      0x20\n      mload(0x40)\n      dup1\n      dup4\n      sub\n      dup2\n      0x00\n      dup8\n      gas\n      call\n      iszero\n      dup1\n      iszero\n      tag_437\n      jumpi\n      returndatasize\n      0x00\n      dup1\n      returndatacopy\n      revert(0x00, returndatasize)\n    tag_437:\n      pop\n      pop\n      pop\n      pop\n      mload(0x40)\n      returndatasize\n      not(0x1f)\n      0x1f\n      dup3\n      add\n      and\n      dup3\n      add\n      dup1\n      0x40\n      mstore\n      pop\n      dup2\n      add\n      swap1\n      tag_438\n      swap2\n      swap1\n      tag_268\n      jump\t// in\n    tag_438:\n      pop\n        /* \"contracts/DDTMasterChef.sol\":34063:34196  if (_amount > DDTBal) {... */\n      jump(tag_439)\n    tag_434:\n        /* \"contracts/DDTMasterChef.sol\":34158:34161  DDT */\n      0x01\n      0x00\n      swap1\n      sload\n      swap1\n      0x0100\n      exp\n      swap1\n      div\n      0xffffffffffffffffffffffffffffffffffffffff\n      and\n        /* \"contracts/DDTMasterChef.sol\":34158:34170  DDT.transfer */\n      0xffffffffffffffffffffffffffffffffffffffff\n      and\n      0xa9059cbb\n        /* \"contracts/DDTMasterChef.sol\":34171:34174  _to */\n      dup5\n        /* \"contracts/DDTMasterChef.sol\":34176:34183  _amount */\n      dup5\n        /* \"contracts/DDTMasterChef.sol\":34158:34184  DDT.transfer(_to, _amount) */\n      mload(0x40)\n      dup4\n      0xffffffff\n      and\n      0xe0\n      shl\n      dup2\n      mstore\n      0x04\n      add\n      tag_440\n      swap3\n      swap2\n      swap1\n      tag_264\n      jump\t// in\n    tag_440:\n      0x20\n      mload(0x40)\n      dup1\n      dup4\n      sub\n      dup2\n      0x00\n      dup8\n      gas\n      call\n      iszero\n      dup1\n      iszero\n      tag_442\n      jumpi\n      returndatasize\n      0x00\n      dup1\n      returndatacopy\n      revert(0x00, returndatasize)\n    tag_442:\n      pop\n      pop\n      pop\n      pop\n      mload(0x40)\n      returndatasize\n      not(0x1f)\n      0x1f\n      dup3\n      add\n      and\n      dup3\n      add\n      dup1\n      0x40\n      mstore\n      pop\n      dup2\n      add\n      swap1\n      tag_443\n      swap2\n      swap1\n      tag_268\n      jump\t// in\n    tag_443:\n      pop\n        /* \"contracts/DDTMasterChef.sol\":34063:34196  if (_amount > DDTBal) {... */\n    tag_439:\n        /* \"contracts/DDTMasterChef.sol\":33996:34203  {... */\n      pop\n        /* \"contracts/DDTMasterChef.sol\":33932:34203  function safeDDTTransfer(address _to, uint256 _amount) internal {... */\n      pop\n      pop\n      jump\t// out\n        /* \"contracts/DDTMasterChef.sol\":16369:16617  function safeTransferFrom(... */\n    tag_180:\n        /* \"contracts/DDTMasterChef.sol\":16513:16609  _callOptionalReturn(token, abi.encodeWithSelector(token.transferFrom.selector, from, to, value)) */\n      tag_445\n        /* \"contracts/DDTMasterChef.sol\":16533:16538  token */\n      dup5\n        /* \"contracts/DDTMasterChef.sol\":16563:16590  token.transferFrom.selector */\n      shl(0xe0, 0x23b872dd)\n        /* \"contracts/DDTMasterChef.sol\":16592:16596  from */\n      dup6\n        /* \"contracts/DDTMasterChef.sol\":16598:16600  to */\n      dup6\n        /* \"contracts/DDTMasterChef.sol\":16602:16607  value */\n      dup6\n        /* \"contracts/DDTMasterChef.sol\":16540:16608  abi.encodeWithSelector(token.transferFrom.selector, from, to, value) */\n      add(0x24, mload(0x40))\n      tag_446\n      swap4\n      swap3\n      swap2\n      swap1\n      tag_447\n      jump\t// in\n    tag_446:\n      mload(0x40)\n      0x20\n      dup2\n      dup4\n      sub\n      sub\n      dup2\n      mstore\n      swap1\n      0x40\n      mstore\n      swap1\n      not(0xffffffffffffffffffffffffffffffffffffffffffffffffffffffff)\n      and\n      0x20\n      dup3\n      add\n      dup1\n      mload\n      0xffffffffffffffffffffffffffffffffffffffffffffffffffffffff\n      dup4\n      dup2\n      dup4\n      and\n      or\n      dup4\n      mstore\n      pop\n      pop\n      pop\n      pop\n        /* \"contracts/DDTMasterChef.sol\":16513:16532  _callOptionalReturn */\n      tag_448\n        /* \"contracts/DDTMasterChef.sol\":16513:16609  _callOptionalReturn(token, abi.encodeWithSelector(token.transferFrom.selector, from, to, value)) */\n      jump\t// in\n    tag_445:\n        /* \"contracts/DDTMasterChef.sol\":16369:16617  function safeTransferFrom(... */\n      pop\n      pop\n      pop\n      pop\n      jump\t// out\n        /* \"contracts/DDTMasterChef.sol\":385:566  function add(uint256 a, uint256 b) internal pure returns (uint256) {... */\n    tag_193:\n        /* \"contracts/DDTMasterChef.sol\":443:450  uint256 */\n      0x00\n        /* \"contracts/DDTMasterChef.sol\":463:472  uint256 c */\n      dup1\n        /* \"contracts/DDTMasterChef.sol\":479:480  b */\n      dup3\n        /* \"contracts/DDTMasterChef.sol\":475:476  a */\n      dup5\n        /* \"contracts/DDTMasterChef.sol\":475:480  a + b */\n      tag_450\n      swap2\n      swap1\n      tag_451\n      jump\t// in\n    tag_450:\n        /* \"contracts/DDTMasterChef.sol\":463:480  uint256 c = a + b */\n      swap1\n      pop\n        /* \"contracts/DDTMasterChef.sol\":504:505  a */\n      dup4\n        /* \"contracts/DDTMasterChef.sol\":499:500  c */\n      dup2\n        /* \"contracts/DDTMasterChef.sol\":499:505  c >= a */\n      lt\n      iszero\n        /* \"contracts/DDTMasterChef.sol\":491:537  require(c >= a, \"SafeMath: addition overflow\") */\n      tag_452\n      jumpi\n      mload(0x40)\n      0x08c379a000000000000000000000000000000000000000000000000000000000\n      dup2\n      mstore\n      0x04\n      add\n      tag_453\n      swap1\n      tag_454\n      jump\t// in\n    tag_453:\n      mload(0x40)\n      dup1\n      swap2\n      sub\n      swap1\n      revert\n    tag_452:\n        /* \"contracts/DDTMasterChef.sol\":557:558  c */\n      dup1\n        /* \"contracts/DDTMasterChef.sol\":550:558  return c */\n      swap2\n      pop\n      pop\n        /* \"contracts/DDTMasterChef.sol\":385:566  function add(uint256 a, uint256 b) internal pure returns (uint256) {... */\n      swap3\n      swap2\n      pop\n      pop\n      jump\t// out\n        /* \"contracts/DDTMasterChef.sol\":16150:16361  function safeTransfer(... */\n    tag_203:\n        /* \"contracts/DDTMasterChef.sol\":16267:16353  _callOptionalReturn(token, abi.encodeWithSelector(token.transfer.selector, to, value)) */\n      tag_456\n        /* \"contracts/DDTMasterChef.sol\":16287:16292  token */\n      dup4\n        /* \"contracts/DDTMasterChef.sol\":16317:16340  token.transfer.selector */\n      shl(0xe0, 0xa9059cbb)\n        /* \"contracts/DDTMasterChef.sol\":16342:16344  to */\n      dup5\n        /* \"contracts/DDTMasterChef.sol\":16346:16351  value */\n      dup5\n        /* \"contracts/DDTMasterChef.sol\":16294:16352  abi.encodeWithSelector(token.transfer.selector, to, value) */\n      add(0x24, mload(0x40))\n      tag_457\n      swap3\n      swap2\n      swap1\n      tag_264\n      jump\t// in\n    tag_457:\n      mload(0x40)\n      0x20\n      dup2\n      dup4\n      sub\n      sub\n      dup2\n      mstore\n      swap1\n      0x40\n      mstore\n      swap1\n      not(0xffffffffffffffffffffffffffffffffffffffffffffffffffffffff)\n      and\n      0x20\n      dup3\n      add\n      dup1\n      mload\n      0xffffffffffffffffffffffffffffffffffffffffffffffffffffffff\n      dup4\n      dup2\n      dup4\n      and\n      or\n      dup4\n      mstore\n      pop\n      pop\n      pop\n      pop\n        /* \"contracts/DDTMasterChef.sol\":16267:16286  _callOptionalReturn */\n      tag_448\n        /* \"contracts/DDTMasterChef.sol\":16267:16353  _callOptionalReturn(token, abi.encodeWithSelector(token.transfer.selector, to, value)) */\n      jump\t// in\n    tag_456:\n        /* \"contracts/DDTMasterChef.sol\":16150:16361  function safeTransfer(... */\n      pop\n      pop\n      pop\n      jump\t// out\n        /* \"contracts/DDTMasterChef.sol\":19479:19577  function _msgSender() internal view virtual returns (address) {... */\n    tag_226:\n        /* \"contracts/DDTMasterChef.sol\":19532:19539  address */\n      0x00\n        /* \"contracts/DDTMasterChef.sol\":19559:19569  msg.sender */\n      caller\n        /* \"contracts/DDTMasterChef.sol\":19552:19569  return msg.sender */\n      swap1\n      pop\n        /* \"contracts/DDTMasterChef.sol\":19479:19577  function _msgSender() internal view virtual returns (address) {... */\n      swap1\n      jump\t// out\n        /* \"contracts/DDTMasterChef.sol\":16886:17502  function safeApprove(... */\n    tag_240:\n        /* \"contracts/DDTMasterChef.sol\":17259:17260  0 */\n      0x00\n        /* \"contracts/DDTMasterChef.sol\":17250:17255  value */\n      dup2\n        /* \"contracts/DDTMasterChef.sol\":17250:17260  value == 0 */\n      eq\n        /* \"contracts/DDTMasterChef.sol\":17249:17311  (value == 0) || (token.allowance(address(this), spender) == 0) */\n      dup1\n      tag_460\n      jumpi\n      pop\n        /* \"contracts/DDTMasterChef.sol\":17309:17310  0 */\n      0x00\n        /* \"contracts/DDTMasterChef.sol\":17266:17271  token */\n      dup4\n        /* \"contracts/DDTMasterChef.sol\":17266:17281  token.allowance */\n      0xffffffffffffffffffffffffffffffffffffffff\n      and\n      0xdd62ed3e\n        /* \"contracts/DDTMasterChef.sol\":17290:17294  this */\n      address\n        /* \"contracts/DDTMasterChef.sol\":17297:17304  spender */\n      dup6\n        /* \"contracts/DDTMasterChef.sol\":17266:17305  token.allowance(address(this), spender) */\n      mload(0x40)\n      dup4\n      0xffffffff\n      and\n      0xe0\n      shl\n      dup2\n      mstore\n      0x04\n      add\n      tag_461\n      swap3\n      swap2\n      swap1\n      tag_169\n      jump\t// in\n    tag_461:\n      0x20\n      mload(0x40)\n      dup1\n      dup4\n      sub\n      dup2\n      dup7\n      gas\n      staticcall\n      iszero\n      dup1\n      iszero\n      tag_463\n      jumpi\n      returndatasize\n      0x00\n      dup1\n      returndatacopy\n      revert(0x00, returndatasize)\n    tag_463:\n      pop\n      pop\n      pop\n      pop\n      mload(0x40)\n      returndatasize\n      not(0x1f)\n      0x1f\n      dup3\n      add\n      and\n      dup3\n      add\n      dup1\n      0x40\n      mstore\n      pop\n      dup2\n      add\n      swap1\n      tag_464\n      swap2\n      swap1\n      tag_173\n      jump\t// in\n    tag_464:\n        /* \"contracts/DDTMasterChef.sol\":17266:17310  token.allowance(address(this), spender) == 0 */\n      eq\n        /* \"contracts/DDTMasterChef.sol\":17249:17311  (value == 0) || (token.allowance(address(this), spender) == 0) */\n    tag_460:\n        /* \"contracts/DDTMasterChef.sol\":17227:17393  require(... */\n      tag_465\n      jumpi\n      mload(0x40)\n      0x08c379a000000000000000000000000000000000000000000000000000000000\n      dup2\n      mstore\n      0x04\n      add\n      tag_466\n      swap1\n      tag_467\n      jump\t// in\n    tag_466:\n      mload(0x40)\n      dup1\n      swap2\n      sub\n      swap1\n      revert\n    tag_465:\n        /* \"contracts/DDTMasterChef.sol\":17404:17494  _callOptionalReturn(token, abi.encodeWithSelector(token.approve.selector, spender, value)) */\n      tag_468\n        /* \"contracts/DDTMasterChef.sol\":17424:17429  token */\n      dup4\n        /* \"contracts/DDTMasterChef.sol\":17454:17476  token.approve.selector */\n      shl(0xe0, 0x095ea7b3)\n        /* \"contracts/DDTMasterChef.sol\":17478:17485  spender */\n      dup5\n        /* \"contracts/DDTMasterChef.sol\":17487:17492  value */\n      dup5\n        /* \"contracts/DDTMasterChef.sol\":17431:17493  abi.encodeWithSelector(token.approve.selector, spender, value) */\n      add(0x24, mload(0x40))\n      tag_469\n      swap3\n      swap2\n      swap1\n      tag_264\n      jump\t// in\n    tag_469:\n      mload(0x40)\n      0x20\n      dup2\n      dup4\n      sub\n      sub\n      dup2\n      mstore\n      swap1\n      0x40\n      mstore\n      swap1\n      not(0xffffffffffffffffffffffffffffffffffffffffffffffffffffffff)\n      and\n      0x20\n      dup3\n      add\n      dup1\n      mload\n      0xffffffffffffffffffffffffffffffffffffffffffffffffffffffff\n      dup4\n      dup2\n      dup4\n      and\n      or\n      dup4\n      mstore\n      pop\n      pop\n      pop\n      pop\n        /* \"contracts/DDTMasterChef.sol\":17404:17423  _callOptionalReturn */\n      tag_448\n        /* \"contracts/DDTMasterChef.sol\":17404:17494  _callOptionalReturn(token, abi.encodeWithSelector(token.approve.selector, spender, value)) */\n      jump\t// in\n    tag_468:\n        /* \"contracts/DDTMasterChef.sol\":16886:17502  function safeApprove(... */\n      pop\n      pop\n      pop\n      jump\t// out\n        /* \"contracts/DDTMasterChef.sol\":21375:21566  function _transferOwnership(address newOwner) internal virtual {... */\n    tag_345:\n        /* \"contracts/DDTMasterChef.sol\":21449:21465  address oldOwner */\n      0x00\n        /* \"contracts/DDTMasterChef.sol\":21468:21474  _owner */\n      dup1\n      0x00\n      swap1\n      sload\n      swap1\n      0x0100\n      exp\n      swap1\n      div\n      0xffffffffffffffffffffffffffffffffffffffff\n      and\n        /* \"contracts/DDTMasterChef.sol\":21449:21474  address oldOwner = _owner */\n      swap1\n      pop\n        /* \"contracts/DDTMasterChef.sol\":21494:21502  newOwner */\n      dup2\n        /* \"contracts/DDTMasterChef.sol\":21485:21491  _owner */\n      0x00\n      dup1\n        /* \"contracts/DDTMasterChef.sol\":21485:21502  _owner = newOwner */\n      0x0100\n      exp\n      dup2\n      sload\n      dup2\n      0xffffffffffffffffffffffffffffffffffffffff\n      mul\n      not\n      and\n      swap1\n      dup4\n      0xffffffffffffffffffffffffffffffffffffffff\n      and\n      mul\n      or\n      swap1\n      sstore\n      pop\n        /* \"contracts/DDTMasterChef.sol\":21549:21557  newOwner */\n      dup2\n        /* \"contracts/DDTMasterChef.sol\":21518:21558  OwnershipTransferred(oldOwner, newOwner) */\n      0xffffffffffffffffffffffffffffffffffffffff\n      and\n        /* \"contracts/DDTMasterChef.sol\":21539:21547  oldOwner */\n      dup2\n        /* \"contracts/DDTMasterChef.sol\":21518:21558  OwnershipTransferred(oldOwner, newOwner) */\n      0xffffffffffffffffffffffffffffffffffffffff\n      and\n      0x8be0079c531659141344cd1fd0a4f28419497f9722a3daafe3b4186f6b6457e0\n      mload(0x40)\n      mload(0x40)\n      dup1\n      swap2\n      sub\n      swap1\n      log3\n        /* \"contracts/DDTMasterChef.sol\":21438:21566  {... */\n      pop\n        /* \"contracts/DDTMasterChef.sol\":21375:21566  function _transferOwnership(address newOwner) internal virtual {... */\n      pop\n      jump\t// out\n        /* \"contracts/DDTMasterChef.sol\":3358:3703  function div(uint256 a, uint256 b, string memory errorMessage) internal pure returns (uint256) {... */\n    tag_425:\n        /* \"contracts/DDTMasterChef.sol\":3444:3451  uint256 */\n      0x00\n        /* \"contracts/DDTMasterChef.sol\":3543:3544  0 */\n      dup1\n        /* \"contracts/DDTMasterChef.sol\":3539:3540  b */\n      dup4\n        /* \"contracts/DDTMasterChef.sol\":3539:3544  b > 0 */\n      gt\n        /* \"contracts/DDTMasterChef.sol\":3546:3558  errorMessage */\n      dup3\n        /* \"contracts/DDTMasterChef.sol\":3531:3559  require(b > 0, errorMessage) */\n      swap1\n      tag_472\n      jumpi\n      mload(0x40)\n      0x08c379a000000000000000000000000000000000000000000000000000000000\n      dup2\n      mstore\n      0x04\n      add\n      tag_473\n      swap2\n      swap1\n      tag_474\n      jump\t// in\n    tag_473:\n      mload(0x40)\n      dup1\n      swap2\n      sub\n      swap1\n      revert\n    tag_472:\n      pop\n        /* \"contracts/DDTMasterChef.sol\":3570:3579  uint256 c */\n      0x00\n        /* \"contracts/DDTMasterChef.sol\":3586:3587  b */\n      dup4\n        /* \"contracts/DDTMasterChef.sol\":3582:3583  a */\n      dup6\n        /* \"contracts/DDTMasterChef.sol\":3582:3587  a / b */\n      tag_475\n      swap2\n      swap1\n      tag_419\n      jump\t// in\n    tag_475:\n        /* \"contracts/DDTMasterChef.sol\":3570:3587  uint256 c = a / b */\n      swap1\n      pop\n        /* \"contracts/DDTMasterChef.sol\":3694:3695  c */\n      dup1\n        /* \"contracts/DDTMasterChef.sol\":3687:3695  return c */\n      swap2\n      pop\n      pop\n        /* \"contracts/DDTMasterChef.sol\":3358:3703  function div(uint256 a, uint256 b, string memory errorMessage) internal pure returns (uint256) {... */\n      swap4\n      swap3\n      pop\n      pop\n      pop\n      jump\t// out\n        /* \"contracts/DDTMasterChef.sol\":1314:1506  function sub(uint256 a, uint256 b, string memory errorMessage) internal pure returns (uint256) {... */\n    tag_428:\n        /* \"contracts/DDTMasterChef.sol\":1400:1407  uint256 */\n      0x00\n        /* \"contracts/DDTMasterChef.sol\":1433:1434  a */\n      dup4\n        /* \"contracts/DDTMasterChef.sol\":1428:1429  b */\n      dup4\n        /* \"contracts/DDTMasterChef.sol\":1428:1434  b <= a */\n      gt\n      iszero\n        /* \"contracts/DDTMasterChef.sol\":1436:1448  errorMessage */\n      dup3\n        /* \"contracts/DDTMasterChef.sol\":1420:1449  require(b <= a, errorMessage) */\n      swap1\n      tag_477\n      jumpi\n      mload(0x40)\n      0x08c379a000000000000000000000000000000000000000000000000000000000\n      dup2\n      mstore\n      0x04\n      add\n      tag_478\n      swap2\n      swap1\n      tag_474\n      jump\t// in\n    tag_478:\n      mload(0x40)\n      dup1\n      swap2\n      sub\n      swap1\n      revert\n    tag_477:\n      pop\n        /* \"contracts/DDTMasterChef.sol\":1460:1469  uint256 c */\n      0x00\n        /* \"contracts/DDTMasterChef.sol\":1476:1477  b */\n      dup4\n        /* \"contracts/DDTMasterChef.sol\":1472:1473  a */\n      dup6\n        /* \"contracts/DDTMasterChef.sol\":1472:1477  a - b */\n      tag_479\n      swap2\n      swap1\n      tag_480\n      jump\t// in\n    tag_479:\n        /* \"contracts/DDTMasterChef.sol\":1460:1477  uint256 c = a - b */\n      swap1\n      pop\n        /* \"contracts/DDTMasterChef.sol\":1497:1498  c */\n      dup1\n        /* \"contracts/DDTMasterChef.sol\":1490:1498  return c */\n      swap2\n      pop\n      pop\n        /* \"contracts/DDTMasterChef.sol\":1314:1506  function sub(uint256 a, uint256 b, string memory errorMessage) internal pure returns (uint256) {... */\n      swap4\n      swap3\n      pop\n      pop\n      pop\n      jump\t// out\n        /* \"contracts/DDTMasterChef.sol\":18723:19439  function _callOptionalReturn(IERC20 token, bytes memory data) private {... */\n    tag_448:\n        /* \"contracts/DDTMasterChef.sol\":19147:19170  bytes memory returndata */\n      0x00\n        /* \"contracts/DDTMasterChef.sol\":19173:19242  address(token).functionCall(data, \"SafeERC20: low-level call failed\") */\n      tag_482\n        /* \"contracts/DDTMasterChef.sol\":19201:19205  data */\n      dup3\n        /* \"contracts/DDTMasterChef.sol\":19173:19242  address(token).functionCall(data, \"SafeERC20: low-level call failed\") */\n      mload(0x40)\n      dup1\n      0x40\n      add\n      0x40\n      mstore\n      dup1\n      0x20\n      dup2\n      mstore\n      0x20\n      add\n      0x5361666545524332303a206c6f772d6c6576656c2063616c6c206661696c6564\n      dup2\n      mstore\n      pop\n        /* \"contracts/DDTMasterChef.sol\":19181:19186  token */\n      dup6\n        /* \"contracts/DDTMasterChef.sol\":19173:19200  address(token).functionCall */\n      0xffffffffffffffffffffffffffffffffffffffff\n      and\n      tag_483\n      swap1\n        /* \"contracts/DDTMasterChef.sol\":19173:19242  address(token).functionCall(data, \"SafeERC20: low-level call failed\") */\n      swap3\n      swap2\n      swap1\n      0xffffffff\n      and\n      jump\t// in\n    tag_482:\n        /* \"contracts/DDTMasterChef.sol\":19147:19242  bytes memory returndata = address(token).functionCall(data, \"SafeERC20: low-level call failed\") */\n      swap1\n      pop\n        /* \"contracts/DDTMasterChef.sol\":19277:19278  0 */\n      0x00\n        /* \"contracts/DDTMasterChef.sol\":19257:19267  returndata */\n      dup2\n        /* \"contracts/DDTMasterChef.sol\":19257:19274  returndata.length */\n      mload\n        /* \"contracts/DDTMasterChef.sol\":19257:19278  returndata.length > 0 */\n      gt\n        /* \"contracts/DDTMasterChef.sol\":19253:19432  if (returndata.length > 0) {... */\n      iszero\n      tag_484\n      jumpi\n        /* \"contracts/DDTMasterChef.sol\":19354:19364  returndata */\n      dup1\n        /* \"contracts/DDTMasterChef.sol\":19343:19373  abi.decode(returndata, (bool)) */\n      dup1\n      0x20\n      add\n      swap1\n      mload\n      dup2\n      add\n      swap1\n      tag_485\n      swap2\n      swap1\n      tag_268\n      jump\t// in\n    tag_485:\n        /* \"contracts/DDTMasterChef.sol\":19335:19420  require(abi.decode(returndata, (bool)), \"SafeERC20: ERC20 operation did not succeed\") */\n      tag_486\n      jumpi\n      mload(0x40)\n      0x08c379a000000000000000000000000000000000000000000000000000000000\n      dup2\n      mstore\n      0x04\n      add\n      tag_487\n      swap1\n      tag_488\n      jump\t// in\n    tag_487:\n      mload(0x40)\n      dup1\n      swap2\n      sub\n      swap1\n      revert\n    tag_486:\n        /* \"contracts/DDTMasterChef.sol\":19253:19432  if (returndata.length > 0) {... */\n    tag_484:\n        /* \"contracts/DDTMasterChef.sol\":18793:19439  {... */\n      pop\n        /* \"contracts/DDTMasterChef.sol\":18723:19439  function _callOptionalReturn(IERC20 token, bytes memory data) private {... */\n      pop\n      pop\n      jump\t// out\n        /* \"contracts/DDTMasterChef.sol\":11566:11795  function functionCall(... */\n    tag_483:\n        /* \"contracts/DDTMasterChef.sol\":11703:11715  bytes memory */\n      0x60\n        /* \"contracts/DDTMasterChef.sol\":11735:11787  functionCallWithValue(target, data, 0, errorMessage) */\n      tag_490\n        /* \"contracts/DDTMasterChef.sol\":11757:11763  target */\n      dup5\n        /* \"contracts/DDTMasterChef.sol\":11765:11769  data */\n      dup5\n        /* \"contracts/DDTMasterChef.sol\":11771:11772  0 */\n      0x00\n        /* \"contracts/DDTMasterChef.sol\":11774:11786  errorMessage */\n      dup6\n        /* \"contracts/DDTMasterChef.sol\":11735:11756  functionCallWithValue */\n      tag_491\n        /* \"contracts/DDTMasterChef.sol\":11735:11787  functionCallWithValue(target, data, 0, errorMessage) */\n      jump\t// in\n    tag_490:\n        /* \"contracts/DDTMasterChef.sol\":11728:11787  return functionCallWithValue(target, data, 0, errorMessage) */\n      swap1\n      pop\n        /* \"contracts/DDTMasterChef.sol\":11566:11795  function functionCall(... */\n      swap4\n      swap3\n      pop\n      pop\n      pop\n      jump\t// out\n        /* \"contracts/DDTMasterChef.sol\":12686:13196  function functionCallWithValue(... */\n    tag_491:\n        /* \"contracts/DDTMasterChef.sol\":12856:12868  bytes memory */\n      0x60\n        /* \"contracts/DDTMasterChef.sol\":12914:12919  value */\n      dup3\n        /* \"contracts/DDTMasterChef.sol\":12889:12910  address(this).balance */\n      selfbalance\n        /* \"contracts/DDTMasterChef.sol\":12889:12919  address(this).balance >= value */\n      lt\n      iszero\n        /* \"contracts/DDTMasterChef.sol\":12881:12962  require(address(this).balance >= value, \"Address: insufficient balance for call\") */\n      tag_493\n      jumpi\n      mload(0x40)\n      0x08c379a000000000000000000000000000000000000000000000000000000000\n      dup2\n      mstore\n      0x04\n      add\n      tag_494\n      swap1\n      tag_495\n      jump\t// in\n    tag_494:\n      mload(0x40)\n      dup1\n      swap2\n      sub\n      swap1\n      revert\n    tag_493:\n        /* \"contracts/DDTMasterChef.sol\":12981:12999  isContract(target) */\n      tag_496\n        /* \"contracts/DDTMasterChef.sol\":12992:12998  target */\n      dup6\n        /* \"contracts/DDTMasterChef.sol\":12981:12991  isContract */\n      tag_497\n        /* \"contracts/DDTMasterChef.sol\":12981:12999  isContract(target) */\n      jump\t// in\n    tag_496:\n        /* \"contracts/DDTMasterChef.sol\":12973:13033  require(isContract(target), \"Address: call to non-contract\") */\n      tag_498\n      jumpi\n      mload(0x40)\n      0x08c379a000000000000000000000000000000000000000000000000000000000\n      dup2\n      mstore\n      0x04\n      add\n      tag_499\n      swap1\n      tag_500\n      jump\t// in\n    tag_499:\n      mload(0x40)\n      dup1\n      swap2\n      sub\n      swap1\n      revert\n    tag_498:\n        /* \"contracts/DDTMasterChef.sol\":13047:13059  bool success */\n      0x00\n        /* \"contracts/DDTMasterChef.sol\":13061:13084  bytes memory returndata */\n      dup1\n        /* \"contracts/DDTMasterChef.sol\":13088:13094  target */\n      dup7\n        /* \"contracts/DDTMasterChef.sol\":13088:13099  target.call */\n      0xffffffffffffffffffffffffffffffffffffffff\n      and\n        /* \"contracts/DDTMasterChef.sol\":13107:13112  value */\n      dup6\n        /* \"contracts/DDTMasterChef.sol\":13114:13118  data */\n      dup8\n        /* \"contracts/DDTMasterChef.sol\":13088:13119  target.call{value: value}(data) */\n      mload(0x40)\n      tag_501\n      swap2\n      swap1\n      tag_502\n      jump\t// in\n    tag_501:\n      0x00\n      mload(0x40)\n      dup1\n      dup4\n      sub\n      dup2\n      dup6\n      dup8\n      gas\n      call\n      swap3\n      pop\n      pop\n      pop\n      returndatasize\n      dup1\n      0x00\n      dup2\n      eq\n      tag_505\n      jumpi\n      mload(0x40)\n      swap2\n      pop\n      and(add(returndatasize, 0x3f), not(0x1f))\n      dup3\n      add\n      0x40\n      mstore\n      returndatasize\n      dup3\n      mstore\n      returndatasize\n      0x00\n      0x20\n      dup5\n      add\n      returndatacopy\n      jump(tag_504)\n    tag_505:\n      0x60\n      swap2\n      pop\n    tag_504:\n      pop\n        /* \"contracts/DDTMasterChef.sol\":13046:13119  (bool success, bytes memory returndata) = target.call{value: value}(data) */\n      swap2\n      pop\n      swap2\n      pop\n        /* \"contracts/DDTMasterChef.sol\":13137:13188  verifyCallResult(success, returndata, errorMessage) */\n      tag_506\n        /* \"contracts/DDTMasterChef.sol\":13154:13161  success */\n      dup3\n        /* \"contracts/DDTMasterChef.sol\":13163:13173  returndata */\n      dup3\n        /* \"contracts/DDTMasterChef.sol\":13175:13187  errorMessage */\n      dup7\n        /* \"contracts/DDTMasterChef.sol\":13137:13153  verifyCallResult */\n      tag_507\n        /* \"contracts/DDTMasterChef.sol\":13137:13188  verifyCallResult(success, returndata, errorMessage) */\n      jump\t// in\n    tag_506:\n        /* \"contracts/DDTMasterChef.sol\":13130:13188  return verifyCallResult(success, returndata, errorMessage) */\n      swap3\n      pop\n      pop\n      pop\n        /* \"contracts/DDTMasterChef.sol\":12686:13196  function functionCallWithValue(... */\n      swap5\n      swap4\n      pop\n      pop\n      pop\n      pop\n      jump\t// out\n        /* \"contracts/DDTMasterChef.sol\":8821:9147  function isContract(address account) internal view returns (bool) {... */\n    tag_497:\n        /* \"contracts/DDTMasterChef.sol\":8881:8885  bool */\n      0x00\n        /* \"contracts/DDTMasterChef.sol\":9138:9139  0 */\n      dup1\n        /* \"contracts/DDTMasterChef.sol\":9116:9123  account */\n      dup3\n        /* \"contracts/DDTMasterChef.sol\":9116:9135  account.code.length */\n      0xffffffffffffffffffffffffffffffffffffffff\n      and\n      extcodesize\n        /* \"contracts/DDTMasterChef.sol\":9116:9139  account.code.length > 0 */\n      gt\n        /* \"contracts/DDTMasterChef.sol\":9109:9139  return account.code.length > 0 */\n      swap1\n      pop\n        /* \"contracts/DDTMasterChef.sol\":8821:9147  function isContract(address account) internal view returns (bool) {... */\n      swap2\n      swap1\n      pop\n      jump\t// out\n        /* \"contracts/DDTMasterChef.sol\":15372:16084  function verifyCallResult(... */\n    tag_507:\n        /* \"contracts/DDTMasterChef.sol\":15522:15534  bytes memory */\n      0x60\n        /* \"contracts/DDTMasterChef.sol\":15551:15558  success */\n      dup4\n        /* \"contracts/DDTMasterChef.sol\":15547:16077  if (success) {... */\n      iszero\n      tag_510\n      jumpi\n        /* \"contracts/DDTMasterChef.sol\":15582:15592  returndata */\n      dup3\n        /* \"contracts/DDTMasterChef.sol\":15575:15592  return returndata */\n      swap1\n      pop\n      jump(tag_509)\n        /* \"contracts/DDTMasterChef.sol\":15547:16077  if (success) {... */\n    tag_510:\n        /* \"contracts/DDTMasterChef.sol\":15716:15717  0 */\n      0x00\n        /* \"contracts/DDTMasterChef.sol\":15696:15706  returndata */\n      dup4\n        /* \"contracts/DDTMasterChef.sol\":15696:15713  returndata.length */\n      mload\n        /* \"contracts/DDTMasterChef.sol\":15696:15717  returndata.length > 0 */\n      gt\n        /* \"contracts/DDTMasterChef.sol\":15692:16066  if (returndata.length > 0) {... */\n      iszero\n      tag_512\n      jumpi\n        /* \"contracts/DDTMasterChef.sol\":15894:15904  returndata */\n      dup3\n        /* \"contracts/DDTMasterChef.sol\":15888:15905  mload(returndata) */\n      mload\n        /* \"contracts/DDTMasterChef.sol\":15955:15970  returndata_size */\n      dup1\n        /* \"contracts/DDTMasterChef.sol\":15942:15952  returndata */\n      dup5\n        /* \"contracts/DDTMasterChef.sol\":15938:15940  32 */\n      0x20\n        /* \"contracts/DDTMasterChef.sol\":15934:15953  add(32, returndata) */\n      add\n        /* \"contracts/DDTMasterChef.sol\":15927:15971  revert(add(32, returndata), returndata_size) */\n      revert\n        /* \"contracts/DDTMasterChef.sol\":15692:16066  if (returndata.length > 0) {... */\n    tag_512:\n        /* \"contracts/DDTMasterChef.sol\":16037:16049  errorMessage */\n      dup2\n        /* \"contracts/DDTMasterChef.sol\":16030:16050  revert(errorMessage) */\n      mload(0x40)\n      0x08c379a000000000000000000000000000000000000000000000000000000000\n      dup2\n      mstore\n      0x04\n      add\n      tag_514\n      swap2\n      swap1\n      tag_474\n      jump\t// in\n    tag_514:\n      mload(0x40)\n      dup1\n      swap2\n      sub\n      swap1\n      revert\n        /* \"contracts/DDTMasterChef.sol\":15372:16084  function verifyCallResult(... */\n    tag_509:\n      swap4\n      swap3\n      pop\n      pop\n      pop\n      jump\t// out\n        /* \"#utility.yul\":88:205   */\n    tag_516:\n        /* \"#utility.yul\":197:198   */\n      0x00\n        /* \"#utility.yul\":194:195   */\n      dup1\n        /* \"#utility.yul\":187:199   */\n      revert\n        /* \"#utility.yul\":334:411   */\n    tag_518:\n        /* \"#utility.yul\":371:378   */\n      0x00\n        /* \"#utility.yul\":400:405   */\n      dup2\n        /* \"#utility.yul\":389:405   */\n      swap1\n      pop\n        /* \"#utility.yul\":334:411   */\n      swap2\n      swap1\n      pop\n      jump\t// out\n        /* \"#utility.yul\":417:539   */\n    tag_519:\n        /* \"#utility.yul\":490:514   */\n      tag_589\n        /* \"#utility.yul\":508:513   */\n      dup2\n        /* \"#utility.yul\":490:514   */\n      tag_518\n      jump\t// in\n    tag_589:\n        /* \"#utility.yul\":483:488   */\n      dup2\n        /* \"#utility.yul\":480:515   */\n      eq\n        /* \"#utility.yul\":470:533   */\n      tag_590\n      jumpi\n        /* \"#utility.yul\":529:530   */\n      0x00\n        /* \"#utility.yul\":526:527   */\n      dup1\n        /* \"#utility.yul\":519:531   */\n      revert\n        /* \"#utility.yul\":470:533   */\n    tag_590:\n        /* \"#utility.yul\":417:539   */\n      pop\n      jump\t// out\n        /* \"#utility.yul\":545:684   */\n    tag_520:\n        /* \"#utility.yul\":591:596   */\n      0x00\n        /* \"#utility.yul\":629:635   */\n      dup2\n        /* \"#utility.yul\":616:636   */\n      calldataload\n        /* \"#utility.yul\":607:636   */\n      swap1\n      pop\n        /* \"#utility.yul\":645:678   */\n      tag_592\n        /* \"#utility.yul\":672:677   */\n      dup2\n        /* \"#utility.yul\":645:678   */\n      tag_519\n      jump\t// in\n    tag_592:\n        /* \"#utility.yul\":545:684   */\n      swap3\n      swap2\n      pop\n      pop\n      jump\t// out\n        /* \"#utility.yul\":690:1309   */\n    tag_43:\n        /* \"#utility.yul\":767:773   */\n      0x00\n        /* \"#utility.yul\":775:781   */\n      dup1\n        /* \"#utility.yul\":783:789   */\n      0x00\n        /* \"#utility.yul\":832:834   */\n      0x60\n        /* \"#utility.yul\":820:829   */\n      dup5\n        /* \"#utility.yul\":811:818   */\n      dup7\n        /* \"#utility.yul\":807:830   */\n      sub\n        /* \"#utility.yul\":803:835   */\n      slt\n        /* \"#utility.yul\":800:919   */\n      iszero\n      tag_594\n      jumpi\n        /* \"#utility.yul\":838:917   */\n      tag_595\n      tag_516\n      jump\t// in\n    tag_595:\n        /* \"#utility.yul\":800:919   */\n    tag_594:\n        /* \"#utility.yul\":958:959   */\n      0x00\n        /* \"#utility.yul\":983:1036   */\n      tag_596\n        /* \"#utility.yul\":1028:1035   */\n      dup7\n        /* \"#utility.yul\":1019:1025   */\n      dup3\n        /* \"#utility.yul\":1008:1017   */\n      dup8\n        /* \"#utility.yul\":1004:1026   */\n      add\n        /* \"#utility.yul\":983:1036   */\n      tag_520\n      jump\t// in\n    tag_596:\n        /* \"#utility.yul\":973:1036   */\n      swap4\n      pop\n        /* \"#utility.yul\":929:1046   */\n      pop\n        /* \"#utility.yul\":1085:1087   */\n      0x20\n        /* \"#utility.yul\":1111:1164   */\n      tag_597\n        /* \"#utility.yul\":1156:1163   */\n      dup7\n        /* \"#utility.yul\":1147:1153   */\n      dup3\n        /* \"#utility.yul\":1136:1145   */\n      dup8\n        /* \"#utility.yul\":1132:1154   */\n      add\n        /* \"#utility.yul\":1111:1164   */\n      tag_520\n      jump\t// in\n    tag_597:\n        /* \"#utility.yul\":1101:1164   */\n      swap3\n      pop\n        /* \"#utility.yul\":1056:1174   */\n      pop\n        /* \"#utility.yul\":1213:1215   */\n      0x40\n        /* \"#utility.yul\":1239:1292   */\n      tag_598\n        /* \"#utility.yul\":1284:1291   */\n      dup7\n        /* \"#utility.yul\":1275:1281   */\n      dup3\n        /* \"#utility.yul\":1264:1273   */\n      dup8\n        /* \"#utility.yul\":1260:1282   */\n      add\n        /* \"#utility.yul\":1239:1292   */\n      tag_520\n      jump\t// in\n    tag_598:\n        /* \"#utility.yul\":1229:1292   */\n      swap2\n      pop\n        /* \"#utility.yul\":1184:1302   */\n      pop\n        /* \"#utility.yul\":690:1309   */\n      swap3\n      pop\n      swap3\n      pop\n      swap3\n      jump\t// out\n        /* \"#utility.yul\":1315:1433   */\n    tag_521:\n        /* \"#utility.yul\":1402:1426   */\n      tag_600\n        /* \"#utility.yul\":1420:1425   */\n      dup2\n        /* \"#utility.yul\":1402:1426   */\n      tag_518\n      jump\t// in\n    tag_600:\n        /* \"#utility.yul\":1397:1400   */\n      dup3\n        /* \"#utility.yul\":1390:1427   */\n      mstore\n        /* \"#utility.yul\":1315:1433   */\n      pop\n      pop\n      jump\t// out\n        /* \"#utility.yul\":1439:1661   */\n    tag_48:\n        /* \"#utility.yul\":1532:1536   */\n      0x00\n        /* \"#utility.yul\":1570:1572   */\n      0x20\n        /* \"#utility.yul\":1559:1568   */\n      dup3\n        /* \"#utility.yul\":1555:1573   */\n      add\n        /* \"#utility.yul\":1547:1573   */\n      swap1\n      pop\n        /* \"#utility.yul\":1583:1654   */\n      tag_602\n        /* \"#utility.yul\":1651:1652   */\n      0x00\n        /* \"#utility.yul\":1640:1649   */\n      dup4\n        /* \"#utility.yul\":1636:1653   */\n      add\n        /* \"#utility.yul\":1627:1633   */\n      dup5\n        /* \"#utility.yul\":1583:1654   */\n      tag_521\n      jump\t// in\n    tag_602:\n        /* \"#utility.yul\":1439:1661   */\n      swap3\n      swap2\n      pop\n      pop\n      jump\t// out\n        /* \"#utility.yul\":1667:1996   */\n    tag_51:\n        /* \"#utility.yul\":1726:1732   */\n      0x00\n        /* \"#utility.yul\":1775:1777   */\n      0x20\n        /* \"#utility.yul\":1763:1772   */\n      dup3\n        /* \"#utility.yul\":1754:1761   */\n      dup5\n        /* \"#utility.yul\":1750:1773   */\n      sub\n        /* \"#utility.yul\":1746:1778   */\n      slt\n        /* \"#utility.yul\":1743:1862   */\n      iszero\n      tag_604\n      jumpi\n        /* \"#utility.yul\":1781:1860   */\n      tag_605\n      tag_516\n      jump\t// in\n    tag_605:\n        /* \"#utility.yul\":1743:1862   */\n    tag_604:\n        /* \"#utility.yul\":1901:1902   */\n      0x00\n        /* \"#utility.yul\":1926:1979   */\n      tag_606\n        /* \"#utility.yul\":1971:1978   */\n      dup5\n        /* \"#utility.yul\":1962:1968   */\n      dup3\n        /* \"#utility.yul\":1951:1960   */\n      dup6\n        /* \"#utility.yul\":1947:1969   */\n      add\n        /* \"#utility.yul\":1926:1979   */\n      tag_520\n      jump\t// in\n    tag_606:\n        /* \"#utility.yul\":1916:1979   */\n      swap2\n      pop\n        /* \"#utility.yul\":1872:1989   */\n      pop\n        /* \"#utility.yul\":1667:1996   */\n      swap3\n      swap2\n      pop\n      pop\n      jump\t// out\n        /* \"#utility.yul\":2002:2128   */\n    tag_522:\n        /* \"#utility.yul\":2039:2046   */\n      0x00\n        /* \"#utility.yul\":2079:2121   */\n      0xffffffffffffffffffffffffffffffffffffffff\n        /* \"#utility.yul\":2072:2077   */\n      dup3\n        /* \"#utility.yul\":2068:2122   */\n      and\n        /* \"#utility.yul\":2057:2122   */\n      swap1\n      pop\n        /* \"#utility.yul\":2002:2128   */\n      swap2\n      swap1\n      pop\n      jump\t// out\n        /* \"#utility.yul\":2134:2194   */\n    tag_523:\n        /* \"#utility.yul\":2162:2165   */\n      0x00\n        /* \"#utility.yul\":2183:2188   */\n      dup2\n        /* \"#utility.yul\":2176:2188   */\n      swap1\n      pop\n        /* \"#utility.yul\":2134:2194   */\n      swap2\n      swap1\n      pop\n      jump\t// out\n        /* \"#utility.yul\":2200:2342   */\n    tag_524:\n        /* \"#utility.yul\":2250:2259   */\n      0x00\n        /* \"#utility.yul\":2283:2336   */\n      tag_610\n        /* \"#utility.yul\":2301:2335   */\n      tag_611\n        /* \"#utility.yul\":2310:2334   */\n      tag_612\n        /* \"#utility.yul\":2328:2333   */\n      dup5\n        /* \"#utility.yul\":2310:2334   */\n      tag_522\n      jump\t// in\n    tag_612:\n        /* \"#utility.yul\":2301:2335   */\n      tag_523\n      jump\t// in\n    tag_611:\n        /* \"#utility.yul\":2283:2336   */\n      tag_522\n      jump\t// in\n    tag_610:\n        /* \"#utility.yul\":2270:2336   */\n      swap1\n      pop\n        /* \"#utility.yul\":2200:2342   */\n      swap2\n      swap1\n      pop\n      jump\t// out\n        /* \"#utility.yul\":2348:2474   */\n    tag_525:\n        /* \"#utility.yul\":2398:2407   */\n      0x00\n        /* \"#utility.yul\":2431:2468   */\n      tag_614\n        /* \"#utility.yul\":2462:2467   */\n      dup3\n        /* \"#utility.yul\":2431:2468   */\n      tag_524\n      jump\t// in\n    tag_614:\n        /* \"#utility.yul\":2418:2468   */\n      swap1\n      pop\n        /* \"#utility.yul\":2348:2474   */\n      swap2\n      swap1\n      pop\n      jump\t// out\n        /* \"#utility.yul\":2480:2620   */\n    tag_526:\n        /* \"#utility.yul\":2544:2553   */\n      0x00\n        /* \"#utility.yul\":2577:2614   */\n      tag_616\n        /* \"#utility.yul\":2608:2613   */\n      dup3\n        /* \"#utility.yul\":2577:2614   */\n      tag_525\n      jump\t// in\n    tag_616:\n        /* \"#utility.yul\":2564:2614   */\n      swap1\n      pop\n        /* \"#utility.yul\":2480:2620   */\n      swap2\n      swap1\n      pop\n      jump\t// out\n        /* \"#utility.yul\":2626:2785   */\n    tag_527:\n        /* \"#utility.yul\":2727:2778   */\n      tag_618\n        /* \"#utility.yul\":2772:2777   */\n      dup2\n        /* \"#utility.yul\":2727:2778   */\n      tag_526\n      jump\t// in\n    tag_618:\n        /* \"#utility.yul\":2722:2725   */\n      dup3\n        /* \"#utility.yul\":2715:2779   */\n      mstore\n        /* \"#utility.yul\":2626:2785   */\n      pop\n      pop\n      jump\t// out\n        /* \"#utility.yul\":2791:2936   */\n    tag_528:\n        /* \"#utility.yul\":2860:2869   */\n      0x00\n        /* \"#utility.yul\":2893:2930   */\n      tag_620\n        /* \"#utility.yul\":2924:2929   */\n      dup3\n        /* \"#utility.yul\":2893:2930   */\n      tag_525\n      jump\t// in\n    tag_620:\n        /* \"#utility.yul\":2880:2930   */\n      swap1\n      pop\n        /* \"#utility.yul\":2791:2936   */\n      swap2\n      swap1\n      pop\n      jump\t// out\n        /* \"#utility.yul\":2942:3111   */\n    tag_529:\n        /* \"#utility.yul\":3048:3104   */\n      tag_622\n        /* \"#utility.yul\":3098:3103   */\n      dup2\n        /* \"#utility.yul\":3048:3104   */\n      tag_528\n      jump\t// in\n    tag_622:\n        /* \"#utility.yul\":3043:3046   */\n      dup3\n        /* \"#utility.yul\":3036:3105   */\n      mstore\n        /* \"#utility.yul\":2942:3111   */\n      pop\n      pop\n      jump\t// out\n        /* \"#utility.yul\":3117:4208   */\n    tag_54:\n        /* \"#utility.yul\":3453:3457   */\n      0x00\n        /* \"#utility.yul\":3491:3494   */\n      0x0100\n        /* \"#utility.yul\":3480:3489   */\n      dup3\n        /* \"#utility.yul\":3476:3495   */\n      add\n        /* \"#utility.yul\":3468:3495   */\n      swap1\n      pop\n        /* \"#utility.yul\":3505:3590   */\n      tag_624\n        /* \"#utility.yul\":3587:3588   */\n      0x00\n        /* \"#utility.yul\":3576:3585   */\n      dup4\n        /* \"#utility.yul\":3572:3589   */\n      add\n        /* \"#utility.yul\":3563:3569   */\n      dup12\n        /* \"#utility.yul\":3505:3590   */\n      tag_527\n      jump\t// in\n    tag_624:\n        /* \"#utility.yul\":3600:3672   */\n      tag_625\n        /* \"#utility.yul\":3668:3670   */\n      0x20\n        /* \"#utility.yul\":3657:3666   */\n      dup4\n        /* \"#utility.yul\":3653:3671   */\n      add\n        /* \"#utility.yul\":3644:3650   */\n      dup11\n        /* \"#utility.yul\":3600:3672   */\n      tag_521\n      jump\t// in\n    tag_625:\n        /* \"#utility.yul\":3682:3754   */\n      tag_626\n        /* \"#utility.yul\":3750:3752   */\n      0x40\n        /* \"#utility.yul\":3739:3748   */\n      dup4\n        /* \"#utility.yul\":3735:3753   */\n      add\n        /* \"#utility.yul\":3726:3732   */\n      dup10\n        /* \"#utility.yul\":3682:3754   */\n      tag_521\n      jump\t// in\n    tag_626:\n        /* \"#utility.yul\":3764:3836   */\n      tag_627\n        /* \"#utility.yul\":3832:3834   */\n      0x60\n        /* \"#utility.yul\":3821:3830   */\n      dup4\n        /* \"#utility.yul\":3817:3835   */\n      add\n        /* \"#utility.yul\":3808:3814   */\n      dup9\n        /* \"#utility.yul\":3764:3836   */\n      tag_521\n      jump\t// in\n    tag_627:\n        /* \"#utility.yul\":3846:3938   */\n      tag_628\n        /* \"#utility.yul\":3933:3936   */\n      0x80\n        /* \"#utility.yul\":3922:3931   */\n      dup4\n        /* \"#utility.yul\":3918:3937   */\n      add\n        /* \"#utility.yul\":3909:3915   */\n      dup8\n        /* \"#utility.yul\":3846:3938   */\n      tag_529\n      jump\t// in\n    tag_628:\n        /* \"#utility.yul\":3948:4035   */\n      tag_629\n        /* \"#utility.yul\":4030:4033   */\n      0xa0\n        /* \"#utility.yul\":4019:4028   */\n      dup4\n        /* \"#utility.yul\":4015:4034   */\n      add\n        /* \"#utility.yul\":4006:4012   */\n      dup7\n        /* \"#utility.yul\":3948:4035   */\n      tag_527\n      jump\t// in\n    tag_629:\n        /* \"#utility.yul\":4045:4118   */\n      tag_630\n        /* \"#utility.yul\":4113:4116   */\n      0xc0\n        /* \"#utility.yul\":4102:4111   */\n      dup4\n        /* \"#utility.yul\":4098:4117   */\n      add\n        /* \"#utility.yul\":4089:4095   */\n      dup6\n        /* \"#utility.yul\":4045:4118   */\n      tag_521\n      jump\t// in\n    tag_630:\n        /* \"#utility.yul\":4128:4201   */\n      tag_631\n        /* \"#utility.yul\":4196:4199   */\n      0xe0\n        /* \"#utility.yul\":4185:4194   */\n      dup4\n        /* \"#utility.yul\":4181:4200   */\n      add\n        /* \"#utility.yul\":4172:4178   */\n      dup5\n        /* \"#utility.yul\":4128:4201   */\n      tag_521\n      jump\t// in\n    tag_631:\n        /* \"#utility.yul\":3117:4208   */\n      swap10\n      swap9\n      pop\n      pop\n      pop\n      pop\n      pop\n      pop\n      pop\n      pop\n      pop\n      jump\t// out\n        /* \"#utility.yul\":4214:4310   */\n    tag_530:\n        /* \"#utility.yul\":4251:4258   */\n      0x00\n        /* \"#utility.yul\":4280:4304   */\n      tag_633\n        /* \"#utility.yul\":4298:4303   */\n      dup3\n        /* \"#utility.yul\":4280:4304   */\n      tag_522\n      jump\t// in\n    tag_633:\n        /* \"#utility.yul\":4269:4304   */\n      swap1\n      pop\n        /* \"#utility.yul\":4214:4310   */\n      swap2\n      swap1\n      pop\n      jump\t// out\n        /* \"#utility.yul\":4316:4438   */\n    tag_531:\n        /* \"#utility.yul\":4389:4413   */\n      tag_635\n        /* \"#utility.yul\":4407:4412   */\n      dup2\n        /* \"#utility.yul\":4389:4413   */\n      tag_530\n      jump\t// in\n    tag_635:\n        /* \"#utility.yul\":4382:4387   */\n      dup2\n        /* \"#utility.yul\":4379:4414   */\n      eq\n        /* \"#utility.yul\":4369:4432   */\n      tag_636\n      jumpi\n        /* \"#utility.yul\":4428:4429   */\n      0x00\n        /* \"#utility.yul\":4425:4426   */\n      dup1\n        /* \"#utility.yul\":4418:4430   */\n      revert\n        /* \"#utility.yul\":4369:4432   */\n    tag_636:\n        /* \"#utility.yul\":4316:4438   */\n      pop\n      jump\t// out\n        /* \"#utility.yul\":4444:4583   */\n    tag_532:\n        /* \"#utility.yul\":4490:4495   */\n      0x00\n        /* \"#utility.yul\":4528:4534   */\n      dup2\n        /* \"#utility.yul\":4515:4535   */\n      calldataload\n        /* \"#utility.yul\":4506:4535   */\n      swap1\n      pop\n        /* \"#utility.yul\":4544:4577   */\n      tag_638\n        /* \"#utility.yul\":4571:4576   */\n      dup2\n        /* \"#utility.yul\":4544:4577   */\n      tag_531\n      jump\t// in\n    tag_638:\n        /* \"#utility.yul\":4444:4583   */\n      swap3\n      swap2\n      pop\n      pop\n      jump\t// out\n        /* \"#utility.yul\":4589:5063   */\n    tag_60:\n        /* \"#utility.yul\":4657:4663   */\n      0x00\n        /* \"#utility.yul\":4665:4671   */\n      dup1\n        /* \"#utility.yul\":4714:4716   */\n      0x40\n        /* \"#utility.yul\":4702:4711   */\n      dup4\n        /* \"#utility.yul\":4693:4700   */\n      dup6\n        /* \"#utility.yul\":4689:4712   */\n      sub\n        /* \"#utility.yul\":4685:4717   */\n      slt\n        /* \"#utility.yul\":4682:4801   */\n      iszero\n      tag_640\n      jumpi\n        /* \"#utility.yul\":4720:4799   */\n      tag_641\n      tag_516\n      jump\t// in\n    tag_641:\n        /* \"#utility.yul\":4682:4801   */\n    tag_640:\n        /* \"#utility.yul\":4840:4841   */\n      0x00\n        /* \"#utility.yul\":4865:4918   */\n      tag_642\n        /* \"#utility.yul\":4910:4917   */\n      dup6\n        /* \"#utility.yul\":4901:4907   */\n      dup3\n        /* \"#utility.yul\":4890:4899   */\n      dup7\n        /* \"#utility.yul\":4886:4908   */\n      add\n        /* \"#utility.yul\":4865:4918   */\n      tag_520\n      jump\t// in\n    tag_642:\n        /* \"#utility.yul\":4855:4918   */\n      swap3\n      pop\n        /* \"#utility.yul\":4811:4928   */\n      pop\n        /* \"#utility.yul\":4967:4969   */\n      0x20\n        /* \"#utility.yul\":4993:5046   */\n      tag_643\n        /* \"#utility.yul\":5038:5045   */\n      dup6\n        /* \"#utility.yul\":5029:5035   */\n      dup3\n        /* \"#utility.yul\":5018:5027   */\n      dup7\n        /* \"#utility.yul\":5014:5036   */\n      add\n        /* \"#utility.yul\":4993:5046   */\n      tag_532\n      jump\t// in\n    tag_643:\n        /* \"#utility.yul\":4983:5046   */\n      swap2\n      pop\n        /* \"#utility.yul\":4938:5056   */\n      pop\n        /* \"#utility.yul\":4589:5063   */\n      swap3\n      pop\n      swap3\n      swap1\n      pop\n      jump\t// out\n        /* \"#utility.yul\":5069:5186   */\n    tag_533:\n        /* \"#utility.yul\":5127:5134   */\n      0x00\n        /* \"#utility.yul\":5156:5180   */\n      tag_645\n        /* \"#utility.yul\":5174:5179   */\n      dup3\n        /* \"#utility.yul\":5156:5180   */\n      tag_530\n      jump\t// in\n    tag_645:\n        /* \"#utility.yul\":5145:5180   */\n      swap1\n      pop\n        /* \"#utility.yul\":5069:5186   */\n      swap2\n      swap1\n      pop\n      jump\t// out\n        /* \"#utility.yul\":5192:5356   */\n    tag_534:\n        /* \"#utility.yul\":5286:5331   */\n      tag_647\n        /* \"#utility.yul\":5325:5330   */\n      dup2\n        /* \"#utility.yul\":5286:5331   */\n      tag_533\n      jump\t// in\n    tag_647:\n        /* \"#utility.yul\":5279:5284   */\n      dup2\n        /* \"#utility.yul\":5276:5332   */\n      eq\n        /* \"#utility.yul\":5266:5350   */\n      tag_648\n      jumpi\n        /* \"#utility.yul\":5346:5347   */\n      0x00\n        /* \"#utility.yul\":5343:5344   */\n      dup1\n        /* \"#utility.yul\":5336:5348   */\n      revert\n        /* \"#utility.yul\":5266:5350   */\n    tag_648:\n        /* \"#utility.yul\":5192:5356   */\n      pop\n      jump\t// out\n        /* \"#utility.yul\":5362:5543   */\n    tag_535:\n        /* \"#utility.yul\":5429:5434   */\n      0x00\n        /* \"#utility.yul\":5467:5473   */\n      dup2\n        /* \"#utility.yul\":5454:5474   */\n      calldataload\n        /* \"#utility.yul\":5445:5474   */\n      swap1\n      pop\n        /* \"#utility.yul\":5483:5537   */\n      tag_650\n        /* \"#utility.yul\":5531:5536   */\n      dup2\n        /* \"#utility.yul\":5483:5537   */\n      tag_534\n      jump\t// in\n    tag_650:\n        /* \"#utility.yul\":5362:5543   */\n      swap3\n      swap2\n      pop\n      pop\n      jump\t// out\n        /* \"#utility.yul\":5549:5920   */\n    tag_65:\n        /* \"#utility.yul\":5629:5635   */\n      0x00\n        /* \"#utility.yul\":5678:5680   */\n      0x20\n        /* \"#utility.yul\":5666:5675   */\n      dup3\n        /* \"#utility.yul\":5657:5664   */\n      dup5\n        /* \"#utility.yul\":5653:5676   */\n      sub\n        /* \"#utility.yul\":5649:5681   */\n      slt\n        /* \"#utility.yul\":5646:5765   */\n      iszero\n      tag_652\n      jumpi\n        /* \"#utility.yul\":5684:5763   */\n      tag_653\n      tag_516\n      jump\t// in\n    tag_653:\n        /* \"#utility.yul\":5646:5765   */\n    tag_652:\n        /* \"#utility.yul\":5804:5805   */\n      0x00\n        /* \"#utility.yul\":5829:5903   */\n      tag_654\n        /* \"#utility.yul\":5895:5902   */\n      dup5\n        /* \"#utility.yul\":5886:5892   */\n      dup3\n        /* \"#utility.yul\":5875:5884   */\n      dup6\n        /* \"#utility.yul\":5871:5893   */\n      add\n        /* \"#utility.yul\":5829:5903   */\n      tag_535\n      jump\t// in\n    tag_654:\n        /* \"#utility.yul\":5819:5903   */\n      swap2\n      pop\n        /* \"#utility.yul\":5775:5913   */\n      pop\n        /* \"#utility.yul\":5549:5920   */\n      swap3\n      swap2\n      pop\n      pop\n      jump\t// out\n        /* \"#utility.yul\":5926:6016   */\n    tag_536:\n        /* \"#utility.yul\":5960:5967   */\n      0x00\n        /* \"#utility.yul\":6003:6008   */\n      dup2\n        /* \"#utility.yul\":5996:6009   */\n      iszero\n        /* \"#utility.yul\":5989:6010   */\n      iszero\n        /* \"#utility.yul\":5978:6010   */\n      swap1\n      pop\n        /* \"#utility.yul\":5926:6016   */\n      swap2\n      swap1\n      pop\n      jump\t// out\n        /* \"#utility.yul\":6022:6138   */\n    tag_537:\n        /* \"#utility.yul\":6092:6113   */\n      tag_657\n        /* \"#utility.yul\":6107:6112   */\n      dup2\n        /* \"#utility.yul\":6092:6113   */\n      tag_536\n      jump\t// in\n    tag_657:\n        /* \"#utility.yul\":6085:6090   */\n      dup2\n        /* \"#utility.yul\":6082:6114   */\n      eq\n        /* \"#utility.yul\":6072:6132   */\n      tag_658\n      jumpi\n        /* \"#utility.yul\":6128:6129   */\n      0x00\n        /* \"#utility.yul\":6125:6126   */\n      dup1\n        /* \"#utility.yul\":6118:6130   */\n      revert\n        /* \"#utility.yul\":6072:6132   */\n    tag_658:\n        /* \"#utility.yul\":6022:6138   */\n      pop\n      jump\t// out\n        /* \"#utility.yul\":6144:6277   */\n    tag_538:\n        /* \"#utility.yul\":6187:6192   */\n      0x00\n        /* \"#utility.yul\":6225:6231   */\n      dup2\n        /* \"#utility.yul\":6212:6232   */\n      calldataload\n        /* \"#utility.yul\":6203:6232   */\n      swap1\n      pop\n        /* \"#utility.yul\":6241:6271   */\n      tag_660\n        /* \"#utility.yul\":6265:6270   */\n      dup2\n        /* \"#utility.yul\":6241:6271   */\n      tag_537\n      jump\t// in\n    tag_660:\n        /* \"#utility.yul\":6144:6277   */\n      swap3\n      swap2\n      pop\n      pop\n      jump\t// out\n        /* \"#utility.yul\":6283:6896   */\n    tag_89:\n        /* \"#utility.yul\":6357:6363   */\n      0x00\n        /* \"#utility.yul\":6365:6371   */\n      dup1\n        /* \"#utility.yul\":6373:6379   */\n      0x00\n        /* \"#utility.yul\":6422:6424   */\n      0x60\n        /* \"#utility.yul\":6410:6419   */\n      dup5\n        /* \"#utility.yul\":6401:6408   */\n      dup7\n        /* \"#utility.yul\":6397:6420   */\n      sub\n        /* \"#utility.yul\":6393:6425   */\n      slt\n        /* \"#utility.yul\":6390:6509   */\n      iszero\n      tag_662\n      jumpi\n        /* \"#utility.yul\":6428:6507   */\n      tag_663\n      tag_516\n      jump\t// in\n    tag_663:\n        /* \"#utility.yul\":6390:6509   */\n    tag_662:\n        /* \"#utility.yul\":6548:6549   */\n      0x00\n        /* \"#utility.yul\":6573:6626   */\n      tag_664\n        /* \"#utility.yul\":6618:6625   */\n      dup7\n        /* \"#utility.yul\":6609:6615   */\n      dup3\n        /* \"#utility.yul\":6598:6607   */\n      dup8\n        /* \"#utility.yul\":6594:6616   */\n      add\n        /* \"#utility.yul\":6573:6626   */\n      tag_520\n      jump\t// in\n    tag_664:\n        /* \"#utility.yul\":6563:6626   */\n      swap4\n      pop\n        /* \"#utility.yul\":6519:6636   */\n      pop\n        /* \"#utility.yul\":6675:6677   */\n      0x20\n        /* \"#utility.yul\":6701:6754   */\n      tag_665\n        /* \"#utility.yul\":6746:6753   */\n      dup7\n        /* \"#utility.yul\":6737:6743   */\n      dup3\n        /* \"#utility.yul\":6726:6735   */\n      dup8\n        /* \"#utility.yul\":6722:6744   */\n      add\n        /* \"#utility.yul\":6701:6754   */\n      tag_520\n      jump\t// in\n    tag_665:\n        /* \"#utility.yul\":6691:6754   */\n      swap3\n      pop\n        /* \"#utility.yul\":6646:6764   */\n      pop\n        /* \"#utility.yul\":6803:6805   */\n      0x40\n        /* \"#utility.yul\":6829:6879   */\n      tag_666\n        /* \"#utility.yul\":6871:6878   */\n      dup7\n        /* \"#utility.yul\":6862:6868   */\n      dup3\n        /* \"#utility.yul\":6851:6860   */\n      dup8\n        /* \"#utility.yul\":6847:6869   */\n      add\n        /* \"#utility.yul\":6829:6879   */\n      tag_538\n      jump\t// in\n    tag_666:\n        /* \"#utility.yul\":6819:6879   */\n      swap2\n      pop\n        /* \"#utility.yul\":6774:6889   */\n      pop\n        /* \"#utility.yul\":6283:6896   */\n      swap3\n      pop\n      swap3\n      pop\n      swap3\n      jump\t// out\n        /* \"#utility.yul\":6902:7012   */\n    tag_539:\n        /* \"#utility.yul\":6953:6960   */\n      0x00\n        /* \"#utility.yul\":6982:7006   */\n      tag_668\n        /* \"#utility.yul\":7000:7005   */\n      dup3\n        /* \"#utility.yul\":6982:7006   */\n      tag_530\n      jump\t// in\n    tag_668:\n        /* \"#utility.yul\":6971:7006   */\n      swap1\n      pop\n        /* \"#utility.yul\":6902:7012   */\n      swap2\n      swap1\n      pop\n      jump\t// out\n        /* \"#utility.yul\":7018:7168   */\n    tag_540:\n        /* \"#utility.yul\":7105:7143   */\n      tag_670\n        /* \"#utility.yul\":7137:7142   */\n      dup2\n        /* \"#utility.yul\":7105:7143   */\n      tag_539\n      jump\t// in\n    tag_670:\n        /* \"#utility.yul\":7098:7103   */\n      dup2\n        /* \"#utility.yul\":7095:7144   */\n      eq\n        /* \"#utility.yul\":7085:7162   */\n      tag_671\n      jumpi\n        /* \"#utility.yul\":7158:7159   */\n      0x00\n        /* \"#utility.yul\":7155:7156   */\n      dup1\n        /* \"#utility.yul\":7148:7160   */\n      revert\n        /* \"#utility.yul\":7085:7162   */\n    tag_671:\n        /* \"#utility.yul\":7018:7168   */\n      pop\n      jump\t// out\n        /* \"#utility.yul\":7174:7341   */\n    tag_541:\n        /* \"#utility.yul\":7234:7239   */\n      0x00\n        /* \"#utility.yul\":7272:7278   */\n      dup2\n        /* \"#utility.yul\":7259:7279   */\n      calldataload\n        /* \"#utility.yul\":7250:7279   */\n      swap1\n      pop\n        /* \"#utility.yul\":7288:7335   */\n      tag_673\n        /* \"#utility.yul\":7329:7334   */\n      dup2\n        /* \"#utility.yul\":7288:7335   */\n      tag_540\n      jump\t// in\n    tag_673:\n        /* \"#utility.yul\":7174:7341   */\n      swap3\n      swap2\n      pop\n      pop\n      jump\t// out\n        /* \"#utility.yul\":7347:7462   */\n    tag_542:\n        /* \"#utility.yul\":7403:7410   */\n      0x00\n        /* \"#utility.yul\":7432:7456   */\n      tag_675\n        /* \"#utility.yul\":7450:7455   */\n      dup3\n        /* \"#utility.yul\":7432:7456   */\n      tag_530\n      jump\t// in\n    tag_675:\n        /* \"#utility.yul\":7421:7456   */\n      swap1\n      pop\n        /* \"#utility.yul\":7347:7462   */\n      swap2\n      swap1\n      pop\n      jump\t// out\n        /* \"#utility.yul\":7468:7628   */\n    tag_543:\n        /* \"#utility.yul\":7560:7603   */\n      tag_677\n        /* \"#utility.yul\":7597:7602   */\n      dup2\n        /* \"#utility.yul\":7560:7603   */\n      tag_542\n      jump\t// in\n    tag_677:\n        /* \"#utility.yul\":7553:7558   */\n      dup2\n        /* \"#utility.yul\":7550:7604   */\n      eq\n        /* \"#utility.yul\":7540:7622   */\n      tag_678\n      jumpi\n        /* \"#utility.yul\":7618:7619   */\n      0x00\n        /* \"#utility.yul\":7615:7616   */\n      dup1\n        /* \"#utility.yul\":7608:7620   */\n      revert\n        /* \"#utility.yul\":7540:7622   */\n    tag_678:\n        /* \"#utility.yul\":7468:7628   */\n      pop\n      jump\t// out\n        /* \"#utility.yul\":7634:7811   */\n    tag_544:\n        /* \"#utility.yul\":7699:7704   */\n      0x00\n        /* \"#utility.yul\":7737:7743   */\n      dup2\n        /* \"#utility.yul\":7724:7744   */\n      calldataload\n        /* \"#utility.yul\":7715:7744   */\n      swap1\n      pop\n        /* \"#utility.yul\":7753:7805   */\n      tag_680\n        /* \"#utility.yul\":7799:7804   */\n      dup2\n        /* \"#utility.yul\":7753:7805   */\n      tag_543\n      jump\t// in\n    tag_680:\n        /* \"#utility.yul\":7634:7811   */\n      swap3\n      swap2\n      pop\n      pop\n      jump\t// out\n        /* \"#utility.yul\":7817:9108   */\n    tag_93:\n        /* \"#utility.yul\":7974:7980   */\n      0x00\n        /* \"#utility.yul\":7982:7988   */\n      dup1\n        /* \"#utility.yul\":7990:7996   */\n      0x00\n        /* \"#utility.yul\":7998:8004   */\n      dup1\n        /* \"#utility.yul\":8006:8012   */\n      0x00\n        /* \"#utility.yul\":8014:8020   */\n      dup1\n        /* \"#utility.yul\":8022:8028   */\n      0x00\n        /* \"#utility.yul\":8071:8074   */\n      0xe0\n        /* \"#utility.yul\":8059:8068   */\n      dup9\n        /* \"#utility.yul\":8050:8057   */\n      dup11\n        /* \"#utility.yul\":8046:8069   */\n      sub\n        /* \"#utility.yul\":8042:8075   */\n      slt\n        /* \"#utility.yul\":8039:8159   */\n      iszero\n      tag_682\n      jumpi\n        /* \"#utility.yul\":8078:8157   */\n      tag_683\n      tag_516\n      jump\t// in\n    tag_683:\n        /* \"#utility.yul\":8039:8159   */\n    tag_682:\n        /* \"#utility.yul\":8198:8199   */\n      0x00\n        /* \"#utility.yul\":8223:8276   */\n      tag_684\n        /* \"#utility.yul\":8268:8275   */\n      dup11\n        /* \"#utility.yul\":8259:8265   */\n      dup3\n        /* \"#utility.yul\":8248:8257   */\n      dup12\n        /* \"#utility.yul\":8244:8266   */\n      add\n        /* \"#utility.yul\":8223:8276   */\n      tag_520\n      jump\t// in\n    tag_684:\n        /* \"#utility.yul\":8213:8276   */\n      swap8\n      pop\n        /* \"#utility.yul\":8169:8286   */\n      pop\n        /* \"#utility.yul\":8325:8327   */\n      0x20\n        /* \"#utility.yul\":8351:8418   */\n      tag_685\n        /* \"#utility.yul\":8410:8417   */\n      dup11\n        /* \"#utility.yul\":8401:8407   */\n      dup3\n        /* \"#utility.yul\":8390:8399   */\n      dup12\n        /* \"#utility.yul\":8386:8408   */\n      add\n        /* \"#utility.yul\":8351:8418   */\n      tag_541\n      jump\t// in\n    tag_685:\n        /* \"#utility.yul\":8341:8418   */\n      swap7\n      pop\n        /* \"#utility.yul\":8296:8428   */\n      pop\n        /* \"#utility.yul\":8467:8469   */\n      0x40\n        /* \"#utility.yul\":8493:8543   */\n      tag_686\n        /* \"#utility.yul\":8535:8542   */\n      dup11\n        /* \"#utility.yul\":8526:8532   */\n      dup3\n        /* \"#utility.yul\":8515:8524   */\n      dup12\n        /* \"#utility.yul\":8511:8533   */\n      add\n        /* \"#utility.yul\":8493:8543   */\n      tag_538\n      jump\t// in\n    tag_686:\n        /* \"#utility.yul\":8483:8543   */\n      swap6\n      pop\n        /* \"#utility.yul\":8438:8553   */\n      pop\n        /* \"#utility.yul\":8592:8594   */\n      0x60\n        /* \"#utility.yul\":8618:8690   */\n      tag_687\n        /* \"#utility.yul\":8682:8689   */\n      dup11\n        /* \"#utility.yul\":8673:8679   */\n      dup3\n        /* \"#utility.yul\":8662:8671   */\n      dup12\n        /* \"#utility.yul\":8658:8680   */\n      add\n        /* \"#utility.yul\":8618:8690   */\n      tag_544\n      jump\t// in\n    tag_687:\n        /* \"#utility.yul\":8608:8690   */\n      swap5\n      pop\n        /* \"#utility.yul\":8563:8700   */\n      pop\n        /* \"#utility.yul\":8739:8742   */\n      0x80\n        /* \"#utility.yul\":8766:8833   */\n      tag_688\n        /* \"#utility.yul\":8825:8832   */\n      dup11\n        /* \"#utility.yul\":8816:8822   */\n      dup3\n        /* \"#utility.yul\":8805:8814   */\n      dup12\n        /* \"#utility.yul\":8801:8823   */\n      add\n        /* \"#utility.yul\":8766:8833   */\n      tag_541\n      jump\t// in\n    tag_688:\n        /* \"#utility.yul\":8756:8833   */\n      swap4\n      pop\n        /* \"#utility.yul\":8710:8843   */\n      pop\n        /* \"#utility.yul\":8882:8885   */\n      0xa0\n        /* \"#utility.yul\":8909:8962   */\n      tag_689\n        /* \"#utility.yul\":8954:8961   */\n      dup11\n        /* \"#utility.yul\":8945:8951   */\n      dup3\n        /* \"#utility.yul\":8934:8943   */\n      dup12\n        /* \"#utility.yul\":8930:8952   */\n      add\n        /* \"#utility.yul\":8909:8962   */\n      tag_520\n      jump\t// in\n    tag_689:\n        /* \"#utility.yul\":8899:8962   */\n      swap3\n      pop\n        /* \"#utility.yul\":8853:8972   */\n      pop\n        /* \"#utility.yul\":9011:9014   */\n      0xc0\n        /* \"#utility.yul\":9038:9091   */\n      tag_690\n        /* \"#utility.yul\":9083:9090   */\n      dup11\n        /* \"#utility.yul\":9074:9080   */\n      dup3\n        /* \"#utility.yul\":9063:9072   */\n      dup12\n        /* \"#utility.yul\":9059:9081   */\n      add\n        /* \"#utility.yul\":9038:9091   */\n      tag_520\n      jump\t// in\n    tag_690:\n        /* \"#utility.yul\":9028:9091   */\n      swap2\n      pop\n        /* \"#utility.yul\":8982:9101   */\n      pop\n        /* \"#utility.yul\":7817:9108   */\n      swap3\n      swap6\n      swap9\n      swap2\n      swap5\n      swap8\n      pop\n      swap3\n      swap6\n      pop\n      jump\t// out\n        /* \"#utility.yul\":9114:9261   */\n    tag_545:\n        /* \"#utility.yul\":9185:9194   */\n      0x00\n        /* \"#utility.yul\":9218:9255   */\n      tag_692\n        /* \"#utility.yul\":9249:9254   */\n      dup3\n        /* \"#utility.yul\":9218:9255   */\n      tag_525\n      jump\t// in\n    tag_692:\n        /* \"#utility.yul\":9205:9255   */\n      swap1\n      pop\n        /* \"#utility.yul\":9114:9261   */\n      swap2\n      swap1\n      pop\n      jump\t// out\n        /* \"#utility.yul\":9267:9440   */\n    tag_546:\n        /* \"#utility.yul\":9375:9433   */\n      tag_694\n        /* \"#utility.yul\":9427:9432   */\n      dup2\n        /* \"#utility.yul\":9375:9433   */\n      tag_545\n      jump\t// in\n    tag_694:\n        /* \"#utility.yul\":9370:9373   */\n      dup3\n        /* \"#utility.yul\":9363:9434   */\n      mstore\n        /* \"#utility.yul\":9267:9440   */\n      pop\n      pop\n      jump\t// out\n        /* \"#utility.yul\":9446:9710   */\n    tag_107:\n        /* \"#utility.yul\":9560:9564   */\n      0x00\n        /* \"#utility.yul\":9598:9600   */\n      0x20\n        /* \"#utility.yul\":9587:9596   */\n      dup3\n        /* \"#utility.yul\":9583:9601   */\n      add\n        /* \"#utility.yul\":9575:9601   */\n      swap1\n      pop\n        /* \"#utility.yul\":9611:9703   */\n      tag_696\n        /* \"#utility.yul\":9700:9701   */\n      0x00\n        /* \"#utility.yul\":9689:9698   */\n      dup4\n        /* \"#utility.yul\":9685:9702   */\n      add\n        /* \"#utility.yul\":9676:9682   */\n      dup5\n        /* \"#utility.yul\":9611:9703   */\n      tag_546\n      jump\t// in\n    tag_696:\n        /* \"#utility.yul\":9446:9710   */\n      swap3\n      swap2\n      pop\n      pop\n      jump\t// out\n        /* \"#utility.yul\":9716:9834   */\n    tag_547:\n        /* \"#utility.yul\":9803:9827   */\n      tag_698\n        /* \"#utility.yul\":9821:9826   */\n      dup2\n        /* \"#utility.yul\":9803:9827   */\n      tag_530\n      jump\t// in\n    tag_698:\n        /* \"#utility.yul\":9798:9801   */\n      dup3\n        /* \"#utility.yul\":9791:9828   */\n      mstore\n        /* \"#utility.yul\":9716:9834   */\n      pop\n      pop\n      jump\t// out\n        /* \"#utility.yul\":9840:10062   */\n    tag_114:\n        /* \"#utility.yul\":9933:9937   */\n      0x00\n        /* \"#utility.yul\":9971:9973   */\n      0x20\n        /* \"#utility.yul\":9960:9969   */\n      dup3\n        /* \"#utility.yul\":9956:9974   */\n      add\n        /* \"#utility.yul\":9948:9974   */\n      swap1\n      pop\n        /* \"#utility.yul\":9984:10055   */\n      tag_700\n        /* \"#utility.yul\":10052:10053   */\n      0x00\n        /* \"#utility.yul\":10041:10050   */\n      dup4\n        /* \"#utility.yul\":10037:10054   */\n      add\n        /* \"#utility.yul\":10028:10034   */\n      dup5\n        /* \"#utility.yul\":9984:10055   */\n      tag_547\n      jump\t// in\n    tag_700:\n        /* \"#utility.yul\":9840:10062   */\n      swap3\n      swap2\n      pop\n      pop\n      jump\t// out\n        /* \"#utility.yul\":10068:10542   */\n    tag_117:\n        /* \"#utility.yul\":10136:10142   */\n      0x00\n        /* \"#utility.yul\":10144:10150   */\n      dup1\n        /* \"#utility.yul\":10193:10195   */\n      0x40\n        /* \"#utility.yul\":10181:10190   */\n      dup4\n        /* \"#utility.yul\":10172:10179   */\n      dup6\n        /* \"#utility.yul\":10168:10191   */\n      sub\n        /* \"#utility.yul\":10164:10196   */\n      slt\n        /* \"#utility.yul\":10161:10280   */\n      iszero\n      tag_702\n      jumpi\n        /* \"#utility.yul\":10199:10278   */\n      tag_703\n      tag_516\n      jump\t// in\n    tag_703:\n        /* \"#utility.yul\":10161:10280   */\n    tag_702:\n        /* \"#utility.yul\":10319:10320   */\n      0x00\n        /* \"#utility.yul\":10344:10397   */\n      tag_704\n        /* \"#utility.yul\":10389:10396   */\n      dup6\n        /* \"#utility.yul\":10380:10386   */\n      dup3\n        /* \"#utility.yul\":10369:10378   */\n      dup7\n        /* \"#utility.yul\":10365:10387   */\n      add\n        /* \"#utility.yul\":10344:10397   */\n      tag_520\n      jump\t// in\n    tag_704:\n        /* \"#utility.yul\":10334:10397   */\n      swap3\n      pop\n        /* \"#utility.yul\":10290:10407   */\n      pop\n        /* \"#utility.yul\":10446:10448   */\n      0x20\n        /* \"#utility.yul\":10472:10525   */\n      tag_705\n        /* \"#utility.yul\":10517:10524   */\n      dup6\n        /* \"#utility.yul\":10508:10514   */\n      dup3\n        /* \"#utility.yul\":10497:10506   */\n      dup7\n        /* \"#utility.yul\":10493:10515   */\n      add\n        /* \"#utility.yul\":10472:10525   */\n      tag_520\n      jump\t// in\n    tag_705:\n        /* \"#utility.yul\":10462:10525   */\n      swap2\n      pop\n        /* \"#utility.yul\":10417:10535   */\n      pop\n        /* \"#utility.yul\":10068:10542   */\n      swap3\n      pop\n      swap3\n      swap1\n      pop\n      jump\t// out\n        /* \"#utility.yul\":10548:10880   */\n    tag_124:\n        /* \"#utility.yul\":10669:10673   */\n      0x00\n        /* \"#utility.yul\":10707:10709   */\n      0x40\n        /* \"#utility.yul\":10696:10705   */\n      dup3\n        /* \"#utility.yul\":10692:10710   */\n      add\n        /* \"#utility.yul\":10684:10710   */\n      swap1\n      pop\n        /* \"#utility.yul\":10720:10791   */\n      tag_707\n        /* \"#utility.yul\":10788:10789   */\n      0x00\n        /* \"#utility.yul\":10777:10786   */\n      dup4\n        /* \"#utility.yul\":10773:10790   */\n      add\n        /* \"#utility.yul\":10764:10770   */\n      dup6\n        /* \"#utility.yul\":10720:10791   */\n      tag_521\n      jump\t// in\n    tag_707:\n        /* \"#utility.yul\":10801:10873   */\n      tag_708\n        /* \"#utility.yul\":10869:10871   */\n      0x20\n        /* \"#utility.yul\":10858:10867   */\n      dup4\n        /* \"#utility.yul\":10854:10872   */\n      add\n        /* \"#utility.yul\":10845:10851   */\n      dup5\n        /* \"#utility.yul\":10801:10873   */\n      tag_521\n      jump\t// in\n    tag_708:\n        /* \"#utility.yul\":10548:10880   */\n      swap4\n      swap3\n      pop\n      pop\n      pop\n      jump\t// out\n        /* \"#utility.yul\":10886:11136   */\n    tag_131:\n        /* \"#utility.yul\":10993:10997   */\n      0x00\n        /* \"#utility.yul\":11031:11033   */\n      0x20\n        /* \"#utility.yul\":11020:11029   */\n      dup3\n        /* \"#utility.yul\":11016:11034   */\n      add\n        /* \"#utility.yul\":11008:11034   */\n      swap1\n      pop\n        /* \"#utility.yul\":11044:11129   */\n      tag_710\n        /* \"#utility.yul\":11126:11127   */\n      0x00\n        /* \"#utility.yul\":11115:11124   */\n      dup4\n        /* \"#utility.yul\":11111:11128   */\n      add\n        /* \"#utility.yul\":11102:11108   */\n      dup5\n        /* \"#utility.yul\":11044:11129   */\n      tag_527\n      jump\t// in\n    tag_710:\n        /* \"#utility.yul\":10886:11136   */\n      swap3\n      swap2\n      pop\n      pop\n      jump\t// out\n        /* \"#utility.yul\":11142:11471   */\n    tag_138:\n        /* \"#utility.yul\":11201:11207   */\n      0x00\n        /* \"#utility.yul\":11250:11252   */\n      0x20\n        /* \"#utility.yul\":11238:11247   */\n      dup3\n        /* \"#utility.yul\":11229:11236   */\n      dup5\n        /* \"#utility.yul\":11225:11248   */\n      sub\n        /* \"#utility.yul\":11221:11253   */\n      slt\n        /* \"#utility.yul\":11218:11337   */\n      iszero\n      tag_712\n      jumpi\n        /* \"#utility.yul\":11256:11335   */\n      tag_713\n      tag_516\n      jump\t// in\n    tag_713:\n        /* \"#utility.yul\":11218:11337   */\n    tag_712:\n        /* \"#utility.yul\":11376:11377   */\n      0x00\n        /* \"#utility.yul\":11401:11454   */\n      tag_714\n        /* \"#utility.yul\":11446:11453   */\n      dup5\n        /* \"#utility.yul\":11437:11443   */\n      dup3\n        /* \"#utility.yul\":11426:11435   */\n      dup6\n        /* \"#utility.yul\":11422:11444   */\n      add\n        /* \"#utility.yul\":11401:11454   */\n      tag_532\n      jump\t// in\n    tag_714:\n        /* \"#utility.yul\":11391:11454   */\n      swap2\n      pop\n        /* \"#utility.yul\":11347:11464   */\n      pop\n        /* \"#utility.yul\":11142:11471   */\n      swap3\n      swap2\n      pop\n      pop\n      jump\t// out\n        /* \"#utility.yul\":11477:11657   */\n    tag_155:\n        /* \"#utility.yul\":11525:11602   */\n      0x4e487b7100000000000000000000000000000000000000000000000000000000\n        /* \"#utility.yul\":11522:11523   */\n      0x00\n        /* \"#utility.yul\":11515:11603   */\n      mstore\n        /* \"#utility.yul\":11622:11626   */\n      0x32\n        /* \"#utility.yul\":11619:11620   */\n      0x04\n        /* \"#utility.yul\":11612:11627   */\n      mstore\n        /* \"#utility.yul\":11646:11650   */\n      0x24\n        /* \"#utility.yul\":11643:11644   */\n      0x00\n        /* \"#utility.yul\":11636:11651   */\n      revert\n        /* \"#utility.yul\":11663:11995   */\n    tag_169:\n        /* \"#utility.yul\":11784:11788   */\n      0x00\n        /* \"#utility.yul\":11822:11824   */\n      0x40\n        /* \"#utility.yul\":11811:11820   */\n      dup3\n        /* \"#utility.yul\":11807:11825   */\n      add\n        /* \"#utility.yul\":11799:11825   */\n      swap1\n      pop\n        /* \"#utility.yul\":11835:11906   */\n      tag_717\n        /* \"#utility.yul\":11903:11904   */\n      0x00\n        /* \"#utility.yul\":11892:11901   */\n      dup4\n        /* \"#utility.yul\":11888:11905   */\n      add\n        /* \"#utility.yul\":11879:11885   */\n      dup6\n        /* \"#utility.yul\":11835:11906   */\n      tag_547\n      jump\t// in\n    tag_717:\n        /* \"#utility.yul\":11916:11988   */\n      tag_718\n        /* \"#utility.yul\":11984:11986   */\n      0x20\n        /* \"#utility.yul\":11973:11982   */\n      dup4\n        /* \"#utility.yul\":11969:11987   */\n      add\n        /* \"#utility.yul\":11960:11966   */\n      dup5\n        /* \"#utility.yul\":11916:11988   */\n      tag_547\n      jump\t// in\n    tag_718:\n        /* \"#utility.yul\":11663:11995   */\n      swap4\n      swap3\n      pop\n      pop\n      pop\n      jump\t// out\n        /* \"#utility.yul\":12001:12144   */\n    tag_548:\n        /* \"#utility.yul\":12058:12063   */\n      0x00\n        /* \"#utility.yul\":12089:12095   */\n      dup2\n        /* \"#utility.yul\":12083:12096   */\n      mload\n        /* \"#utility.yul\":12074:12096   */\n      swap1\n      pop\n        /* \"#utility.yul\":12105:12138   */\n      tag_720\n        /* \"#utility.yul\":12132:12137   */\n      dup2\n        /* \"#utility.yul\":12105:12138   */\n      tag_519\n      jump\t// in\n    tag_720:\n        /* \"#utility.yul\":12001:12144   */\n      swap3\n      swap2\n      pop\n      pop\n      jump\t// out\n        /* \"#utility.yul\":12150:12501   */\n    tag_173:\n        /* \"#utility.yul\":12220:12226   */\n      0x00\n        /* \"#utility.yul\":12269:12271   */\n      0x20\n        /* \"#utility.yul\":12257:12266   */\n      dup3\n        /* \"#utility.yul\":12248:12255   */\n      dup5\n        /* \"#utility.yul\":12244:12267   */\n      sub\n        /* \"#utility.yul\":12240:12272   */\n      slt\n        /* \"#utility.yul\":12237:12356   */\n      iszero\n      tag_722\n      jumpi\n        /* \"#utility.yul\":12275:12354   */\n      tag_723\n      tag_516\n      jump\t// in\n    tag_723:\n        /* \"#utility.yul\":12237:12356   */\n    tag_722:\n        /* \"#utility.yul\":12395:12396   */\n      0x00\n        /* \"#utility.yul\":12420:12484   */\n      tag_724\n        /* \"#utility.yul\":12476:12483   */\n      dup5\n        /* \"#utility.yul\":12467:12473   */\n      dup3\n        /* \"#utility.yul\":12456:12465   */\n      dup6\n        /* \"#utility.yul\":12452:12474   */\n      add\n        /* \"#utility.yul\":12420:12484   */\n      tag_548\n      jump\t// in\n    tag_724:\n        /* \"#utility.yul\":12410:12484   */\n      swap2\n      pop\n        /* \"#utility.yul\":12366:12494   */\n      pop\n        /* \"#utility.yul\":12150:12501   */\n      swap3\n      swap2\n      pop\n      pop\n      jump\t// out\n        /* \"#utility.yul\":12507:12676   */\n    tag_549:\n        /* \"#utility.yul\":12591:12602   */\n      0x00\n        /* \"#utility.yul\":12625:12631   */\n      dup3\n        /* \"#utility.yul\":12620:12623   */\n      dup3\n        /* \"#utility.yul\":12613:12632   */\n      mstore\n        /* \"#utility.yul\":12665:12669   */\n      0x20\n        /* \"#utility.yul\":12660:12663   */\n      dup3\n        /* \"#utility.yul\":12656:12670   */\n      add\n        /* \"#utility.yul\":12641:12670   */\n      swap1\n      pop\n        /* \"#utility.yul\":12507:12676   */\n      swap3\n      swap2\n      pop\n      pop\n      jump\t// out\n        /* \"#utility.yul\":12682:12864   */\n    tag_550:\n        /* \"#utility.yul\":12822:12856   */\n      0x4f776e61626c653a2063616c6c6572206973206e6f7420746865206f776e6572\n        /* \"#utility.yul\":12818:12819   */\n      0x00\n        /* \"#utility.yul\":12810:12816   */\n      dup3\n        /* \"#utility.yul\":12806:12820   */\n      add\n        /* \"#utility.yul\":12799:12857   */\n      mstore\n        /* \"#utility.yul\":12682:12864   */\n      pop\n      jump\t// out\n        /* \"#utility.yul\":12870:13236   */\n    tag_551:\n        /* \"#utility.yul\":13012:13015   */\n      0x00\n        /* \"#utility.yul\":13033:13100   */\n      tag_728\n        /* \"#utility.yul\":13097:13099   */\n      0x20\n        /* \"#utility.yul\":13092:13095   */\n      dup4\n        /* \"#utility.yul\":13033:13100   */\n      tag_549\n      jump\t// in\n    tag_728:\n        /* \"#utility.yul\":13026:13100   */\n      swap2\n      pop\n        /* \"#utility.yul\":13109:13202   */\n      tag_729\n        /* \"#utility.yul\":13198:13201   */\n      dup3\n        /* \"#utility.yul\":13109:13202   */\n      tag_550\n      jump\t// in\n    tag_729:\n        /* \"#utility.yul\":13227:13229   */\n      0x20\n        /* \"#utility.yul\":13222:13225   */\n      dup3\n        /* \"#utility.yul\":13218:13230   */\n      add\n        /* \"#utility.yul\":13211:13230   */\n      swap1\n      pop\n        /* \"#utility.yul\":12870:13236   */\n      swap2\n      swap1\n      pop\n      jump\t// out\n        /* \"#utility.yul\":13242:13661   */\n    tag_230:\n        /* \"#utility.yul\":13408:13412   */\n      0x00\n        /* \"#utility.yul\":13446:13448   */\n      0x20\n        /* \"#utility.yul\":13435:13444   */\n      dup3\n        /* \"#utility.yul\":13431:13449   */\n      add\n        /* \"#utility.yul\":13423:13449   */\n      swap1\n      pop\n        /* \"#utility.yul\":13495:13504   */\n      dup2\n        /* \"#utility.yul\":13489:13493   */\n      dup2\n        /* \"#utility.yul\":13485:13505   */\n      sub\n        /* \"#utility.yul\":13481:13482   */\n      0x00\n        /* \"#utility.yul\":13470:13479   */\n      dup4\n        /* \"#utility.yul\":13466:13483   */\n      add\n        /* \"#utility.yul\":13459:13506   */\n      mstore\n        /* \"#utility.yul\":13523:13654   */\n      tag_731\n        /* \"#utility.yul\":13649:13653   */\n      dup2\n        /* \"#utility.yul\":13523:13654   */\n      tag_551\n      jump\t// in\n    tag_731:\n        /* \"#utility.yul\":13515:13654   */\n      swap1\n      pop\n        /* \"#utility.yul\":13242:13661   */\n      swap2\n      swap1\n      pop\n      jump\t// out\n        /* \"#utility.yul\":13667:13837   */\n    tag_552:\n        /* \"#utility.yul\":13807:13829   */\n      0x6d6967726174653a206e6f206d69677261746f72000000000000000000000000\n        /* \"#utility.yul\":13803:13804   */\n      0x00\n        /* \"#utility.yul\":13795:13801   */\n      dup3\n        /* \"#utility.yul\":13791:13805   */\n      add\n        /* \"#utility.yul\":13784:13830   */\n      mstore\n        /* \"#utility.yul\":13667:13837   */\n      pop\n      jump\t// out\n        /* \"#utility.yul\":13843:14209   */\n    tag_553:\n        /* \"#utility.yul\":13985:13988   */\n      0x00\n        /* \"#utility.yul\":14006:14073   */\n      tag_734\n        /* \"#utility.yul\":14070:14072   */\n      0x14\n        /* \"#utility.yul\":14065:14068   */\n      dup4\n        /* \"#utility.yul\":14006:14073   */\n      tag_549\n      jump\t// in\n    tag_734:\n        /* \"#utility.yul\":13999:14073   */\n      swap2\n      pop\n        /* \"#utility.yul\":14082:14175   */\n      tag_735\n        /* \"#utility.yul\":14171:14174   */\n      dup3\n        /* \"#utility.yul\":14082:14175   */\n      tag_552\n      jump\t// in\n    tag_735:\n        /* \"#utility.yul\":14200:14202   */\n      0x20\n        /* \"#utility.yul\":14195:14198   */\n      dup3\n        /* \"#utility.yul\":14191:14203   */\n      add\n        /* \"#utility.yul\":14184:14203   */\n      swap1\n      pop\n        /* \"#utility.yul\":13843:14209   */\n      swap2\n      swap1\n      pop\n      jump\t// out\n        /* \"#utility.yul\":14215:14634   */\n    tag_235:\n        /* \"#utility.yul\":14381:14385   */\n      0x00\n        /* \"#utility.yul\":14419:14421   */\n      0x20\n        /* \"#utility.yul\":14408:14417   */\n      dup3\n        /* \"#utility.yul\":14404:14422   */\n      add\n        /* \"#utility.yul\":14396:14422   */\n      swap1\n      pop\n        /* \"#utility.yul\":14468:14477   */\n      dup2\n        /* \"#utility.yul\":14462:14466   */\n      dup2\n        /* \"#utility.yul\":14458:14478   */\n      sub\n        /* \"#utility.yul\":14454:14455   */\n      0x00\n        /* \"#utility.yul\":14443:14452   */\n      dup4\n        /* \"#utility.yul\":14439:14456   */\n      add\n        /* \"#utility.yul\":14432:14479   */\n      mstore\n        /* \"#utility.yul\":14496:14627   */\n      tag_737\n        /* \"#utility.yul\":14622:14626   */\n      dup2\n        /* \"#utility.yul\":14496:14627   */\n      tag_553\n      jump\t// in\n    tag_737:\n        /* \"#utility.yul\":14488:14627   */\n      swap1\n      pop\n        /* \"#utility.yul\":14215:14634   */\n      swap2\n      swap1\n      pop\n      jump\t// out\n        /* \"#utility.yul\":14640:14811   */\n    tag_554:\n        /* \"#utility.yul\":14711:14716   */\n      0x00\n        /* \"#utility.yul\":14742:14748   */\n      dup2\n        /* \"#utility.yul\":14736:14749   */\n      mload\n        /* \"#utility.yul\":14727:14749   */\n      swap1\n      pop\n        /* \"#utility.yul\":14758:14805   */\n      tag_739\n        /* \"#utility.yul\":14799:14804   */\n      dup2\n        /* \"#utility.yul\":14758:14805   */\n      tag_540\n      jump\t// in\n    tag_739:\n        /* \"#utility.yul\":14640:14811   */\n      swap3\n      swap2\n      pop\n      pop\n      jump\t// out\n        /* \"#utility.yul\":14817:15196   */\n    tag_245:\n        /* \"#utility.yul\":14901:14907   */\n      0x00\n        /* \"#utility.yul\":14950:14952   */\n      0x20\n        /* \"#utility.yul\":14938:14947   */\n      dup3\n        /* \"#utility.yul\":14929:14936   */\n      dup5\n        /* \"#utility.yul\":14925:14948   */\n      sub\n        /* \"#utility.yul\":14921:14953   */\n      slt\n        /* \"#utility.yul\":14918:15037   */\n      iszero\n      tag_741\n      jumpi\n        /* \"#utility.yul\":14956:15035   */\n      tag_742\n      tag_516\n      jump\t// in\n    tag_742:\n        /* \"#utility.yul\":14918:15037   */\n    tag_741:\n        /* \"#utility.yul\":15076:15077   */\n      0x00\n        /* \"#utility.yul\":15101:15179   */\n      tag_743\n        /* \"#utility.yul\":15171:15178   */\n      dup5\n        /* \"#utility.yul\":15162:15168   */\n      dup3\n        /* \"#utility.yul\":15151:15160   */\n      dup6\n        /* \"#utility.yul\":15147:15169   */\n      add\n        /* \"#utility.yul\":15101:15179   */\n      tag_554\n      jump\t// in\n    tag_743:\n        /* \"#utility.yul\":15091:15179   */\n      swap2\n      pop\n        /* \"#utility.yul\":15047:15189   */\n      pop\n        /* \"#utility.yul\":14817:15196   */\n      swap3\n      swap2\n      pop\n      pop\n      jump\t// out\n        /* \"#utility.yul\":15202:15364   */\n    tag_555:\n        /* \"#utility.yul\":15342:15356   */\n      0x6d6967726174653a206261640000000000000000000000000000000000000000\n        /* \"#utility.yul\":15338:15339   */\n      0x00\n        /* \"#utility.yul\":15330:15336   */\n      dup3\n        /* \"#utility.yul\":15326:15340   */\n      add\n        /* \"#utility.yul\":15319:15357   */\n      mstore\n        /* \"#utility.yul\":15202:15364   */\n      pop\n      jump\t// out\n        /* \"#utility.yul\":15370:15736   */\n    tag_556:\n        /* \"#utility.yul\":15512:15515   */\n      0x00\n        /* \"#utility.yul\":15533:15600   */\n      tag_746\n        /* \"#utility.yul\":15597:15599   */\n      0x0c\n        /* \"#utility.yul\":15592:15595   */\n      dup4\n        /* \"#utility.yul\":15533:15600   */\n      tag_549\n      jump\t// in\n    tag_746:\n        /* \"#utility.yul\":15526:15600   */\n      swap2\n      pop\n        /* \"#utility.yul\":15609:15702   */\n      tag_747\n        /* \"#utility.yul\":15698:15701   */\n      dup3\n        /* \"#utility.yul\":15609:15702   */\n      tag_555\n      jump\t// in\n    tag_747:\n        /* \"#utility.yul\":15727:15729   */\n      0x20\n        /* \"#utility.yul\":15722:15725   */\n      dup3\n        /* \"#utility.yul\":15718:15730   */\n      add\n        /* \"#utility.yul\":15711:15730   */\n      swap1\n      pop\n        /* \"#utility.yul\":15370:15736   */\n      swap2\n      swap1\n      pop\n      jump\t// out\n        /* \"#utility.yul\":15742:16161   */\n    tag_252:\n        /* \"#utility.yul\":15908:15912   */\n      0x00\n        /* \"#utility.yul\":15946:15948   */\n      0x20\n        /* \"#utility.yul\":15935:15944   */\n      dup3\n        /* \"#utility.yul\":15931:15949   */\n      add\n        /* \"#utility.yul\":15923:15949   */\n      swap1\n      pop\n        /* \"#utility.yul\":15995:16004   */\n      dup2\n        /* \"#utility.yul\":15989:15993   */\n      dup2\n        /* \"#utility.yul\":15985:16005   */\n      sub\n        /* \"#utility.yul\":15981:15982   */\n      0x00\n        /* \"#utility.yul\":15970:15979   */\n      dup4\n        /* \"#utility.yul\":15966:15983   */\n      add\n        /* \"#utility.yul\":15959:16006   */\n      mstore\n        /* \"#utility.yul\":16023:16154   */\n      tag_749\n        /* \"#utility.yul\":16149:16153   */\n      dup2\n        /* \"#utility.yul\":16023:16154   */\n      tag_556\n      jump\t// in\n    tag_749:\n        /* \"#utility.yul\":16015:16154   */\n      swap1\n      pop\n        /* \"#utility.yul\":15742:16161   */\n      swap2\n      swap1\n      pop\n      jump\t// out\n        /* \"#utility.yul\":16167:16499   */\n    tag_264:\n        /* \"#utility.yul\":16288:16292   */\n      0x00\n        /* \"#utility.yul\":16326:16328   */\n      0x40\n        /* \"#utility.yul\":16315:16324   */\n      dup3\n        /* \"#utility.yul\":16311:16329   */\n      add\n        /* \"#utility.yul\":16303:16329   */\n      swap1\n      pop\n        /* \"#utility.yul\":16339:16410   */\n      tag_751\n        /* \"#utility.yul\":16407:16408   */\n      0x00\n        /* \"#utility.yul\":16396:16405   */\n      dup4\n        /* \"#utility.yul\":16392:16409   */\n      add\n        /* \"#utility.yul\":16383:16389   */\n      dup6\n        /* \"#utility.yul\":16339:16410   */\n      tag_547\n      jump\t// in\n    tag_751:\n        /* \"#utility.yul\":16420:16492   */\n      tag_752\n        /* \"#utility.yul\":16488:16490   */\n      0x20\n        /* \"#utility.yul\":16477:16486   */\n      dup4\n        /* \"#utility.yul\":16473:16491   */\n      add\n        /* \"#utility.yul\":16464:16470   */\n      dup5\n        /* \"#utility.yul\":16420:16492   */\n      tag_521\n      jump\t// in\n    tag_752:\n        /* \"#utility.yul\":16167:16499   */\n      swap4\n      swap3\n      pop\n      pop\n      pop\n      jump\t// out\n        /* \"#utility.yul\":16505:16642   */\n    tag_557:\n        /* \"#utility.yul\":16559:16564   */\n      0x00\n        /* \"#utility.yul\":16590:16596   */\n      dup2\n        /* \"#utility.yul\":16584:16597   */\n      mload\n        /* \"#utility.yul\":16575:16597   */\n      swap1\n      pop\n        /* \"#utility.yul\":16606:16636   */\n      tag_754\n        /* \"#utility.yul\":16630:16635   */\n      dup2\n        /* \"#utility.yul\":16606:16636   */\n      tag_537\n      jump\t// in\n    tag_754:\n        /* \"#utility.yul\":16505:16642   */\n      swap3\n      swap2\n      pop\n      pop\n      jump\t// out\n        /* \"#utility.yul\":16648:16993   */\n    tag_268:\n        /* \"#utility.yul\":16715:16721   */\n      0x00\n        /* \"#utility.yul\":16764:16766   */\n      0x20\n        /* \"#utility.yul\":16752:16761   */\n      dup3\n        /* \"#utility.yul\":16743:16750   */\n      dup5\n        /* \"#utility.yul\":16739:16762   */\n      sub\n        /* \"#utility.yul\":16735:16767   */\n      slt\n        /* \"#utility.yul\":16732:16851   */\n      iszero\n      tag_756\n      jumpi\n        /* \"#utility.yul\":16770:16849   */\n      tag_757\n      tag_516\n      jump\t// in\n    tag_757:\n        /* \"#utility.yul\":16732:16851   */\n    tag_756:\n        /* \"#utility.yul\":16890:16891   */\n      0x00\n        /* \"#utility.yul\":16915:16976   */\n      tag_758\n        /* \"#utility.yul\":16968:16975   */\n      dup5\n        /* \"#utility.yul\":16959:16965   */\n      dup3\n        /* \"#utility.yul\":16948:16957   */\n      dup6\n        /* \"#utility.yul\":16944:16966   */\n      add\n        /* \"#utility.yul\":16915:16976   */\n      tag_557\n      jump\t// in\n    tag_758:\n        /* \"#utility.yul\":16905:16976   */\n      swap2\n      pop\n        /* \"#utility.yul\":16861:16986   */\n      pop\n        /* \"#utility.yul\":16648:16993   */\n      swap3\n      swap2\n      pop\n      pop\n      jump\t// out\n        /* \"#utility.yul\":16999:17179   */\n    tag_558:\n        /* \"#utility.yul\":17047:17124   */\n      0x4e487b7100000000000000000000000000000000000000000000000000000000\n        /* \"#utility.yul\":17044:17045   */\n      0x00\n        /* \"#utility.yul\":17037:17125   */\n      mstore\n        /* \"#utility.yul\":17144:17148   */\n      0x11\n        /* \"#utility.yul\":17141:17142   */\n      0x04\n        /* \"#utility.yul\":17134:17149   */\n      mstore\n        /* \"#utility.yul\":17168:17172   */\n      0x24\n        /* \"#utility.yul\":17165:17166   */\n      0x00\n        /* \"#utility.yul\":17158:17173   */\n      revert\n        /* \"#utility.yul\":17185:17418   */\n    tag_296:\n        /* \"#utility.yul\":17224:17227   */\n      0x00\n        /* \"#utility.yul\":17247:17271   */\n      tag_761\n        /* \"#utility.yul\":17265:17270   */\n      dup3\n        /* \"#utility.yul\":17247:17271   */\n      tag_518\n      jump\t// in\n    tag_761:\n        /* \"#utility.yul\":17238:17271   */\n      swap2\n      pop\n        /* \"#utility.yul\":17293:17359   */\n      0xffffffffffffffffffffffffffffffffffffffffffffffffffffffffffffffff\n        /* \"#utility.yul\":17286:17291   */\n      dup3\n        /* \"#utility.yul\":17283:17360   */\n      sub\n        /* \"#utility.yul\":17280:17383   */\n      tag_762\n      jumpi\n        /* \"#utility.yul\":17363:17381   */\n      tag_763\n      tag_558\n      jump\t// in\n    tag_763:\n        /* \"#utility.yul\":17280:17383   */\n    tag_762:\n        /* \"#utility.yul\":17410:17411   */\n      0x01\n        /* \"#utility.yul\":17403:17408   */\n      dup3\n        /* \"#utility.yul\":17399:17412   */\n      add\n        /* \"#utility.yul\":17392:17412   */\n      swap1\n      pop\n        /* \"#utility.yul\":17185:17418   */\n      swap2\n      swap1\n      pop\n      jump\t// out\n        /* \"#utility.yul\":17424:17592   */\n    tag_559:\n        /* \"#utility.yul\":17564:17584   */\n      0x77697468647261773a206e6f7420676f6f640000000000000000000000000000\n        /* \"#utility.yul\":17560:17561   */\n      0x00\n        /* \"#utility.yul\":17552:17558   */\n      dup3\n        /* \"#utility.yul\":17548:17562   */\n      add\n        /* \"#utility.yul\":17541:17585   */\n      mstore\n        /* \"#utility.yul\":17424:17592   */\n      pop\n      jump\t// out\n        /* \"#utility.yul\":17598:17964   */\n    tag_560:\n        /* \"#utility.yul\":17740:17743   */\n      0x00\n        /* \"#utility.yul\":17761:17828   */\n      tag_766\n        /* \"#utility.yul\":17825:17827   */\n      0x12\n        /* \"#utility.yul\":17820:17823   */\n      dup4\n        /* \"#utility.yul\":17761:17828   */\n      tag_549\n      jump\t// in\n    tag_766:\n        /* \"#utility.yul\":17754:17828   */\n      swap2\n      pop\n        /* \"#utility.yul\":17837:17930   */\n      tag_767\n        /* \"#utility.yul\":17926:17929   */\n      dup3\n        /* \"#utility.yul\":17837:17930   */\n      tag_559\n      jump\t// in\n    tag_767:\n        /* \"#utility.yul\":17955:17957   */\n      0x20\n        /* \"#utility.yul\":17950:17953   */\n      dup3\n        /* \"#utility.yul\":17946:17958   */\n      add\n        /* \"#utility.yul\":17939:17958   */\n      swap1\n      pop\n        /* \"#utility.yul\":17598:17964   */\n      swap2\n      swap1\n      pop\n      jump\t// out\n        /* \"#utility.yul\":17970:18389   */\n    tag_356:\n        /* \"#utility.yul\":18136:18140   */\n      0x00\n        /* \"#utility.yul\":18174:18176   */\n      0x20\n        /* \"#utility.yul\":18163:18172   */\n      dup3\n        /* \"#utility.yul\":18159:18177   */\n      add\n        /* \"#utility.yul\":18151:18177   */\n      swap1\n      pop\n        /* \"#utility.yul\":18223:18232   */\n      dup2\n        /* \"#utility.yul\":18217:18221   */\n      dup2\n        /* \"#utility.yul\":18213:18233   */\n      sub\n        /* \"#utility.yul\":18209:18210   */\n      0x00\n        /* \"#utility.yul\":18198:18207   */\n      dup4\n        /* \"#utility.yul\":18194:18211   */\n      add\n        /* \"#utility.yul\":18187:18234   */\n      mstore\n        /* \"#utility.yul\":18251:18382   */\n      tag_769\n        /* \"#utility.yul\":18377:18381   */\n      dup2\n        /* \"#utility.yul\":18251:18382   */\n      tag_560\n      jump\t// in\n    tag_769:\n        /* \"#utility.yul\":18243:18382   */\n      swap1\n      pop\n        /* \"#utility.yul\":17970:18389   */\n      swap2\n      swap1\n      pop\n      jump\t// out\n        /* \"#utility.yul\":18395:18620   */\n    tag_561:\n        /* \"#utility.yul\":18535:18569   */\n      0x4f776e61626c653a206e6577206f776e657220697320746865207a65726f2061\n        /* \"#utility.yul\":18531:18532   */\n      0x00\n        /* \"#utility.yul\":18523:18529   */\n      dup3\n        /* \"#utility.yul\":18519:18533   */\n      add\n        /* \"#utility.yul\":18512:18570   */\n      mstore\n        /* \"#utility.yul\":18604:18612   */\n      0x6464726573730000000000000000000000000000000000000000000000000000\n        /* \"#utility.yul\":18599:18601   */\n      0x20\n        /* \"#utility.yul\":18591:18597   */\n      dup3\n        /* \"#utility.yul\":18587:18602   */\n      add\n        /* \"#utility.yul\":18580:18613   */\n      mstore\n        /* \"#utility.yul\":18395:18620   */\n      pop\n      jump\t// out\n        /* \"#utility.yul\":18626:18992   */\n    tag_562:\n        /* \"#utility.yul\":18768:18771   */\n      0x00\n        /* \"#utility.yul\":18789:18856   */\n      tag_772\n        /* \"#utility.yul\":18853:18855   */\n      0x26\n        /* \"#utility.yul\":18848:18851   */\n      dup4\n        /* \"#utility.yul\":18789:18856   */\n      tag_549\n      jump\t// in\n    tag_772:\n        /* \"#utility.yul\":18782:18856   */\n      swap2\n      pop\n        /* \"#utility.yul\":18865:18958   */\n      tag_773\n        /* \"#utility.yul\":18954:18957   */\n      dup3\n        /* \"#utility.yul\":18865:18958   */\n      tag_561\n      jump\t// in\n    tag_773:\n        /* \"#utility.yul\":18983:18985   */\n      0x40\n        /* \"#utility.yul\":18978:18981   */\n      dup3\n        /* \"#utility.yul\":18974:18986   */\n      add\n        /* \"#utility.yul\":18967:18986   */\n      swap1\n      pop\n        /* \"#utility.yul\":18626:18992   */\n      swap2\n      swap1\n      pop\n      jump\t// out\n        /* \"#utility.yul\":18998:19417   */\n    tag_412:\n        /* \"#utility.yul\":19164:19168   */\n      0x00\n        /* \"#utility.yul\":19202:19204   */\n      0x20\n        /* \"#utility.yul\":19191:19200   */\n      dup3\n        /* \"#utility.yul\":19187:19205   */\n      add\n        /* \"#utility.yul\":19179:19205   */\n      swap1\n      pop\n        /* \"#utility.yul\":19251:19260   */\n      dup2\n        /* \"#utility.yul\":19245:19249   */\n      dup2\n        /* \"#utility.yul\":19241:19261   */\n      sub\n        /* \"#utility.yul\":19237:19238   */\n      0x00\n        /* \"#utility.yul\":19226:19235   */\n      dup4\n        /* \"#utility.yul\":19222:19239   */\n      add\n        /* \"#utility.yul\":19215:19262   */\n      mstore\n        /* \"#utility.yul\":19279:19410   */\n      tag_775\n        /* \"#utility.yul\":19405:19409   */\n      dup2\n        /* \"#utility.yul\":19279:19410   */\n      tag_562\n      jump\t// in\n    tag_775:\n        /* \"#utility.yul\":19271:19410   */\n      swap1\n      pop\n        /* \"#utility.yul\":18998:19417   */\n      swap2\n      swap1\n      pop\n      jump\t// out\n        /* \"#utility.yul\":19423:19771   */\n    tag_417:\n        /* \"#utility.yul\":19463:19470   */\n      0x00\n        /* \"#utility.yul\":19486:19506   */\n      tag_777\n        /* \"#utility.yul\":19504:19505   */\n      dup3\n        /* \"#utility.yul\":19486:19506   */\n      tag_518\n      jump\t// in\n    tag_777:\n        /* \"#utility.yul\":19481:19506   */\n      swap2\n      pop\n        /* \"#utility.yul\":19520:19540   */\n      tag_778\n        /* \"#utility.yul\":19538:19539   */\n      dup4\n        /* \"#utility.yul\":19520:19540   */\n      tag_518\n      jump\t// in\n    tag_778:\n        /* \"#utility.yul\":19515:19540   */\n      swap3\n      pop\n        /* \"#utility.yul\":19708:19709   */\n      dup2\n        /* \"#utility.yul\":19640:19706   */\n      0xffffffffffffffffffffffffffffffffffffffffffffffffffffffffffffffff\n        /* \"#utility.yul\":19636:19710   */\n      div\n        /* \"#utility.yul\":19633:19634   */\n      dup4\n        /* \"#utility.yul\":19630:19711   */\n      gt\n        /* \"#utility.yul\":19625:19626   */\n      dup3\n        /* \"#utility.yul\":19618:19627   */\n      iszero\n        /* \"#utility.yul\":19611:19628   */\n      iszero\n        /* \"#utility.yul\":19607:19712   */\n      and\n        /* \"#utility.yul\":19604:19735   */\n      iszero\n      tag_779\n      jumpi\n        /* \"#utility.yul\":19715:19733   */\n      tag_780\n      tag_558\n      jump\t// in\n    tag_780:\n        /* \"#utility.yul\":19604:19735   */\n    tag_779:\n        /* \"#utility.yul\":19763:19764   */\n      dup3\n        /* \"#utility.yul\":19760:19761   */\n      dup3\n        /* \"#utility.yul\":19756:19765   */\n      mul\n        /* \"#utility.yul\":19745:19765   */\n      swap1\n      pop\n        /* \"#utility.yul\":19423:19771   */\n      swap3\n      swap2\n      pop\n      pop\n      jump\t// out\n        /* \"#utility.yul\":19777:19957   */\n    tag_563:\n        /* \"#utility.yul\":19825:19902   */\n      0x4e487b7100000000000000000000000000000000000000000000000000000000\n        /* \"#utility.yul\":19822:19823   */\n      0x00\n        /* \"#utility.yul\":19815:19903   */\n      mstore\n        /* \"#utility.yul\":19922:19926   */\n      0x12\n        /* \"#utility.yul\":19919:19920   */\n      0x04\n        /* \"#utility.yul\":19912:19927   */\n      mstore\n        /* \"#utility.yul\":19946:19950   */\n      0x24\n        /* \"#utility.yul\":19943:19944   */\n      0x00\n        /* \"#utility.yul\":19936:19951   */\n      revert\n        /* \"#utility.yul\":19963:20148   */\n    tag_419:\n        /* \"#utility.yul\":20003:20004   */\n      0x00\n        /* \"#utility.yul\":20020:20040   */\n      tag_783\n        /* \"#utility.yul\":20038:20039   */\n      dup3\n        /* \"#utility.yul\":20020:20040   */\n      tag_518\n      jump\t// in\n    tag_783:\n        /* \"#utility.yul\":20015:20040   */\n      swap2\n      pop\n        /* \"#utility.yul\":20054:20074   */\n      tag_784\n        /* \"#utility.yul\":20072:20073   */\n      dup4\n        /* \"#utility.yul\":20054:20074   */\n      tag_518\n      jump\t// in\n    tag_784:\n        /* \"#utility.yul\":20049:20074   */\n      swap3\n      pop\n        /* \"#utility.yul\":20093:20094   */\n      dup3\n        /* \"#utility.yul\":20083:20118   */\n      tag_785\n      jumpi\n        /* \"#utility.yul\":20098:20116   */\n      tag_786\n      tag_563\n      jump\t// in\n    tag_786:\n        /* \"#utility.yul\":20083:20118   */\n    tag_785:\n        /* \"#utility.yul\":20140:20141   */\n      dup3\n        /* \"#utility.yul\":20137:20138   */\n      dup3\n        /* \"#utility.yul\":20133:20142   */\n      div\n        /* \"#utility.yul\":20128:20142   */\n      swap1\n      pop\n        /* \"#utility.yul\":19963:20148   */\n      swap3\n      swap2\n      pop\n      pop\n      jump\t// out\n        /* \"#utility.yul\":20154:20374   */\n    tag_564:\n        /* \"#utility.yul\":20294:20328   */\n      0x536166654d6174683a206d756c7469706c69636174696f6e206f766572666c6f\n        /* \"#utility.yul\":20290:20291   */\n      0x00\n        /* \"#utility.yul\":20282:20288   */\n      dup3\n        /* \"#utility.yul\":20278:20292   */\n      add\n        /* \"#utility.yul\":20271:20329   */\n      mstore\n        /* \"#utility.yul\":20363:20366   */\n      0x7700000000000000000000000000000000000000000000000000000000000000\n        /* \"#utility.yul\":20358:20360   */\n      0x20\n        /* \"#utility.yul\":20350:20356   */\n      dup3\n        /* \"#utility.yul\":20346:20361   */\n      add\n        /* \"#utility.yul\":20339:20367   */\n      mstore\n        /* \"#utility.yul\":20154:20374   */\n      pop\n      jump\t// out\n        /* \"#utility.yul\":20380:20746   */\n    tag_565:\n        /* \"#utility.yul\":20522:20525   */\n      0x00\n        /* \"#utility.yul\":20543:20610   */\n      tag_789\n        /* \"#utility.yul\":20607:20609   */\n      0x21\n        /* \"#utility.yul\":20602:20605   */\n      dup4\n        /* \"#utility.yul\":20543:20610   */\n      tag_549\n      jump\t// in\n    tag_789:\n        /* \"#utility.yul\":20536:20610   */\n      swap2\n      pop\n        /* \"#utility.yul\":20619:20712   */\n      tag_790\n        /* \"#utility.yul\":20708:20711   */\n      dup3\n        /* \"#utility.yul\":20619:20712   */\n      tag_564\n      jump\t// in\n    tag_790:\n        /* \"#utility.yul\":20737:20739   */\n      0x40\n        /* \"#utility.yul\":20732:20735   */\n      dup3\n        /* \"#utility.yul\":20728:20740   */\n      add\n        /* \"#utility.yul\":20721:20740   */\n      swap1\n      pop\n        /* \"#utility.yul\":20380:20746   */\n      swap2\n      swap1\n      pop\n      jump\t// out\n        /* \"#utility.yul\":20752:21171   */\n    tag_422:\n        /* \"#utility.yul\":20918:20922   */\n      0x00\n        /* \"#utility.yul\":20956:20958   */\n      0x20\n        /* \"#utility.yul\":20945:20954   */\n      dup3\n        /* \"#utility.yul\":20941:20959   */\n      add\n        /* \"#utility.yul\":20933:20959   */\n      swap1\n      pop\n        /* \"#utility.yul\":21005:21014   */\n      dup2\n        /* \"#utility.yul\":20999:21003   */\n      dup2\n        /* \"#utility.yul\":20995:21015   */\n      sub\n        /* \"#utility.yul\":20991:20992   */\n      0x00\n        /* \"#utility.yul\":20980:20989   */\n      dup4\n        /* \"#utility.yul\":20976:20993   */\n      add\n        /* \"#utility.yul\":20969:21016   */\n      mstore\n        /* \"#utility.yul\":21033:21164   */\n      tag_792\n        /* \"#utility.yul\":21159:21163   */\n      dup2\n        /* \"#utility.yul\":21033:21164   */\n      tag_565\n      jump\t// in\n    tag_792:\n        /* \"#utility.yul\":21025:21164   */\n      swap1\n      pop\n        /* \"#utility.yul\":20752:21171   */\n      swap2\n      swap1\n      pop\n      jump\t// out\n        /* \"#utility.yul\":21177:21619   */\n    tag_447:\n        /* \"#utility.yul\":21326:21330   */\n      0x00\n        /* \"#utility.yul\":21364:21366   */\n      0x60\n        /* \"#utility.yul\":21353:21362   */\n      dup3\n        /* \"#utility.yul\":21349:21367   */\n      add\n        /* \"#utility.yul\":21341:21367   */\n      swap1\n      pop\n        /* \"#utility.yul\":21377:21448   */\n      tag_794\n        /* \"#utility.yul\":21445:21446   */\n      0x00\n        /* \"#utility.yul\":21434:21443   */\n      dup4\n        /* \"#utility.yul\":21430:21447   */\n      add\n        /* \"#utility.yul\":21421:21427   */\n      dup7\n        /* \"#utility.yul\":21377:21448   */\n      tag_547\n      jump\t// in\n    tag_794:\n        /* \"#utility.yul\":21458:21530   */\n      tag_795\n        /* \"#utility.yul\":21526:21528   */\n      0x20\n        /* \"#utility.yul\":21515:21524   */\n      dup4\n        /* \"#utility.yul\":21511:21529   */\n      add\n        /* \"#utility.yul\":21502:21508   */\n      dup6\n        /* \"#utility.yul\":21458:21530   */\n      tag_547\n      jump\t// in\n    tag_795:\n        /* \"#utility.yul\":21540:21612   */\n      tag_796\n        /* \"#utility.yul\":21608:21610   */\n      0x40\n        /* \"#utility.yul\":21597:21606   */\n      dup4\n        /* \"#utility.yul\":21593:21611   */\n      add\n        /* \"#utility.yul\":21584:21590   */\n      dup5\n        /* \"#utility.yul\":21540:21612   */\n      tag_521\n      jump\t// in\n    tag_796:\n        /* \"#utility.yul\":21177:21619   */\n      swap5\n      swap4\n      pop\n      pop\n      pop\n      pop\n      jump\t// out\n        /* \"#utility.yul\":21625:21816   */\n    tag_451:\n        /* \"#utility.yul\":21665:21668   */\n      0x00\n        /* \"#utility.yul\":21684:21704   */\n      tag_798\n        /* \"#utility.yul\":21702:21703   */\n      dup3\n        /* \"#utility.yul\":21684:21704   */\n      tag_518\n      jump\t// in\n    tag_798:\n        /* \"#utility.yul\":21679:21704   */\n      swap2\n      pop\n        /* \"#utility.yul\":21718:21738   */\n      tag_799\n        /* \"#utility.yul\":21736:21737   */\n      dup4\n        /* \"#utility.yul\":21718:21738   */\n      tag_518\n      jump\t// in\n    tag_799:\n        /* \"#utility.yul\":21713:21738   */\n      swap3\n      pop\n        /* \"#utility.yul\":21761:21762   */\n      dup3\n        /* \"#utility.yul\":21758:21759   */\n      dup3\n        /* \"#utility.yul\":21754:21763   */\n      add\n        /* \"#utility.yul\":21747:21763   */\n      swap1\n      pop\n        /* \"#utility.yul\":21782:21785   */\n      dup1\n        /* \"#utility.yul\":21779:21780   */\n      dup3\n        /* \"#utility.yul\":21776:21786   */\n      gt\n        /* \"#utility.yul\":21773:21809   */\n      iszero\n      tag_800\n      jumpi\n        /* \"#utility.yul\":21789:21807   */\n      tag_801\n      tag_558\n      jump\t// in\n    tag_801:\n        /* \"#utility.yul\":21773:21809   */\n    tag_800:\n        /* \"#utility.yul\":21625:21816   */\n      swap3\n      swap2\n      pop\n      pop\n      jump\t// out\n        /* \"#utility.yul\":21822:21999   */\n    tag_566:\n        /* \"#utility.yul\":21962:21991   */\n      0x536166654d6174683a206164646974696f6e206f766572666c6f770000000000\n        /* \"#utility.yul\":21958:21959   */\n      0x00\n        /* \"#utility.yul\":21950:21956   */\n      dup3\n        /* \"#utility.yul\":21946:21960   */\n      add\n        /* \"#utility.yul\":21939:21992   */\n      mstore\n        /* \"#utility.yul\":21822:21999   */\n      pop\n      jump\t// out\n        /* \"#utility.yul\":22005:22371   */\n    tag_567:\n        /* \"#utility.yul\":22147:22150   */\n      0x00\n        /* \"#utility.yul\":22168:22235   */\n      tag_804\n        /* \"#utility.yul\":22232:22234   */\n      0x1b\n        /* \"#utility.yul\":22227:22230   */\n      dup4\n        /* \"#utility.yul\":22168:22235   */\n      tag_549\n      jump\t// in\n    tag_804:\n        /* \"#utility.yul\":22161:22235   */\n      swap2\n      pop\n        /* \"#utility.yul\":22244:22337   */\n      tag_805\n        /* \"#utility.yul\":22333:22336   */\n      dup3\n        /* \"#utility.yul\":22244:22337   */\n      tag_566\n      jump\t// in\n    tag_805:\n        /* \"#utility.yul\":22362:22364   */\n      0x20\n        /* \"#utility.yul\":22357:22360   */\n      dup3\n        /* \"#utility.yul\":22353:22365   */\n      add\n        /* \"#utility.yul\":22346:22365   */\n      swap1\n      pop\n        /* \"#utility.yul\":22005:22371   */\n      swap2\n      swap1\n      pop\n      jump\t// out\n        /* \"#utility.yul\":22377:22796   */\n    tag_454:\n        /* \"#utility.yul\":22543:22547   */\n      0x00\n        /* \"#utility.yul\":22581:22583   */\n      0x20\n        /* \"#utility.yul\":22570:22579   */\n      dup3\n        /* \"#utility.yul\":22566:22584   */\n      add\n        /* \"#utility.yul\":22558:22584   */\n      swap1\n      pop\n        /* \"#utility.yul\":22630:22639   */\n      dup2\n        /* \"#utility.yul\":22624:22628   */\n      dup2\n        /* \"#utility.yul\":22620:22640   */\n      sub\n        /* \"#utility.yul\":22616:22617   */\n      0x00\n        /* \"#utility.yul\":22605:22614   */\n      dup4\n        /* \"#utility.yul\":22601:22618   */\n      add\n        /* \"#utility.yul\":22594:22641   */\n      mstore\n        /* \"#utility.yul\":22658:22789   */\n      tag_807\n        /* \"#utility.yul\":22784:22788   */\n      dup2\n        /* \"#utility.yul\":22658:22789   */\n      tag_567\n      jump\t// in\n    tag_807:\n        /* \"#utility.yul\":22650:22789   */\n      swap1\n      pop\n        /* \"#utility.yul\":22377:22796   */\n      swap2\n      swap1\n      pop\n      jump\t// out\n        /* \"#utility.yul\":22802:23043   */\n    tag_568:\n        /* \"#utility.yul\":22942:22976   */\n      0x5361666545524332303a20617070726f76652066726f6d206e6f6e2d7a65726f\n        /* \"#utility.yul\":22938:22939   */\n      0x00\n        /* \"#utility.yul\":22930:22936   */\n      dup3\n        /* \"#utility.yul\":22926:22940   */\n      add\n        /* \"#utility.yul\":22919:22977   */\n      mstore\n        /* \"#utility.yul\":23011:23035   */\n      0x20746f206e6f6e2d7a65726f20616c6c6f77616e636500000000000000000000\n        /* \"#utility.yul\":23006:23008   */\n      0x20\n        /* \"#utility.yul\":22998:23004   */\n      dup3\n        /* \"#utility.yul\":22994:23009   */\n      add\n        /* \"#utility.yul\":22987:23036   */\n      mstore\n        /* \"#utility.yul\":22802:23043   */\n      pop\n      jump\t// out\n        /* \"#utility.yul\":23049:23415   */\n    tag_569:\n        /* \"#utility.yul\":23191:23194   */\n      0x00\n        /* \"#utility.yul\":23212:23279   */\n      tag_810\n        /* \"#utility.yul\":23276:23278   */\n      0x36\n        /* \"#utility.yul\":23271:23274   */\n      dup4\n        /* \"#utility.yul\":23212:23279   */\n      tag_549\n      jump\t// in\n    tag_810:\n        /* \"#utility.yul\":23205:23279   */\n      swap2\n      pop\n        /* \"#utility.yul\":23288:23381   */\n      tag_811\n        /* \"#utility.yul\":23377:23380   */\n      dup3\n        /* \"#utility.yul\":23288:23381   */\n      tag_568\n      jump\t// in\n    tag_811:\n        /* \"#utility.yul\":23406:23408   */\n      0x40\n        /* \"#utility.yul\":23401:23404   */\n      dup3\n        /* \"#utility.yul\":23397:23409   */\n      add\n        /* \"#utility.yul\":23390:23409   */\n      swap1\n      pop\n        /* \"#utility.yul\":23049:23415   */\n      swap2\n      swap1\n      pop\n      jump\t// out\n        /* \"#utility.yul\":23421:23840   */\n    tag_467:\n        /* \"#utility.yul\":23587:23591   */\n      0x00\n        /* \"#utility.yul\":23625:23627   */\n      0x20\n        /* \"#utility.yul\":23614:23623   */\n      dup3\n        /* \"#utility.yul\":23610:23628   */\n      add\n        /* \"#utility.yul\":23602:23628   */\n      swap1\n      pop\n        /* \"#utility.yul\":23674:23683   */\n      dup2\n        /* \"#utility.yul\":23668:23672   */\n      dup2\n        /* \"#utility.yul\":23664:23684   */\n      sub\n        /* \"#utility.yul\":23660:23661   */\n      0x00\n        /* \"#utility.yul\":23649:23658   */\n      dup4\n        /* \"#utility.yul\":23645:23662   */\n      add\n        /* \"#utility.yul\":23638:23685   */\n      mstore\n        /* \"#utility.yul\":23702:23833   */\n      tag_813\n        /* \"#utility.yul\":23828:23832   */\n      dup2\n        /* \"#utility.yul\":23702:23833   */\n      tag_569\n      jump\t// in\n    tag_813:\n        /* \"#utility.yul\":23694:23833   */\n      swap1\n      pop\n        /* \"#utility.yul\":23421:23840   */\n      swap2\n      swap1\n      pop\n      jump\t// out\n        /* \"#utility.yul\":23846:23945   */\n    tag_570:\n        /* \"#utility.yul\":23898:23904   */\n      0x00\n        /* \"#utility.yul\":23932:23937   */\n      dup2\n        /* \"#utility.yul\":23926:23938   */\n      mload\n        /* \"#utility.yul\":23916:23938   */\n      swap1\n      pop\n        /* \"#utility.yul\":23846:23945   */\n      swap2\n      swap1\n      pop\n      jump\t// out\n        /* \"#utility.yul\":23951:24197   */\n    tag_571:\n        /* \"#utility.yul\":24032:24033   */\n      0x00\n        /* \"#utility.yul\":24042:24155   */\n    tag_816:\n        /* \"#utility.yul\":24056:24062   */\n      dup4\n        /* \"#utility.yul\":24053:24054   */\n      dup2\n        /* \"#utility.yul\":24050:24063   */\n      lt\n        /* \"#utility.yul\":24042:24155   */\n      iszero\n      tag_818\n      jumpi\n        /* \"#utility.yul\":24141:24142   */\n      dup1\n        /* \"#utility.yul\":24136:24139   */\n      dup3\n        /* \"#utility.yul\":24132:24143   */\n      add\n        /* \"#utility.yul\":24126:24144   */\n      mload\n        /* \"#utility.yul\":24122:24123   */\n      dup2\n        /* \"#utility.yul\":24117:24120   */\n      dup5\n        /* \"#utility.yul\":24113:24124   */\n      add\n        /* \"#utility.yul\":24106:24145   */\n      mstore\n        /* \"#utility.yul\":24078:24080   */\n      0x20\n        /* \"#utility.yul\":24075:24076   */\n      dup2\n        /* \"#utility.yul\":24071:24081   */\n      add\n        /* \"#utility.yul\":24066:24081   */\n      swap1\n      pop\n        /* \"#utility.yul\":24042:24155   */\n      jump(tag_816)\n    tag_818:\n        /* \"#utility.yul\":24189:24190   */\n      0x00\n        /* \"#utility.yul\":24180:24186   */\n      dup5\n        /* \"#utility.yul\":24175:24178   */\n      dup5\n        /* \"#utility.yul\":24171:24187   */\n      add\n        /* \"#utility.yul\":24164:24191   */\n      mstore\n        /* \"#utility.yul\":24013:24197   */\n      pop\n        /* \"#utility.yul\":23951:24197   */\n      pop\n      pop\n      pop\n      jump\t// out\n        /* \"#utility.yul\":24203:24305   */\n    tag_572:\n        /* \"#utility.yul\":24244:24250   */\n      0x00\n        /* \"#utility.yul\":24295:24297   */\n      0x1f\n        /* \"#utility.yul\":24291:24298   */\n      not\n        /* \"#utility.yul\":24286:24288   */\n      0x1f\n        /* \"#utility.yul\":24279:24284   */\n      dup4\n        /* \"#utility.yul\":24275:24289   */\n      add\n        /* \"#utility.yul\":24271:24299   */\n      and\n        /* \"#utility.yul\":24261:24299   */\n      swap1\n      pop\n        /* \"#utility.yul\":24203:24305   */\n      swap2\n      swap1\n      pop\n      jump\t// out\n        /* \"#utility.yul\":24311:24688   */\n    tag_573:\n        /* \"#utility.yul\":24399:24402   */\n      0x00\n        /* \"#utility.yul\":24427:24466   */\n      tag_821\n        /* \"#utility.yul\":24460:24465   */\n      dup3\n        /* \"#utility.yul\":24427:24466   */\n      tag_570\n      jump\t// in\n    tag_821:\n        /* \"#utility.yul\":24482:24553   */\n      tag_822\n        /* \"#utility.yul\":24546:24552   */\n      dup2\n        /* \"#utility.yul\":24541:24544   */\n      dup6\n        /* \"#utility.yul\":24482:24553   */\n      tag_549\n      jump\t// in\n    tag_822:\n        /* \"#utility.yul\":24475:24553   */\n      swap4\n      pop\n        /* \"#utility.yul\":24562:24627   */\n      tag_823\n        /* \"#utility.yul\":24620:24626   */\n      dup2\n        /* \"#utility.yul\":24615:24618   */\n      dup6\n        /* \"#utility.yul\":24608:24612   */\n      0x20\n        /* \"#utility.yul\":24601:24606   */\n      dup7\n        /* \"#utility.yul\":24597:24613   */\n      add\n        /* \"#utility.yul\":24562:24627   */\n      tag_571\n      jump\t// in\n    tag_823:\n        /* \"#utility.yul\":24652:24681   */\n      tag_824\n        /* \"#utility.yul\":24674:24680   */\n      dup2\n        /* \"#utility.yul\":24652:24681   */\n      tag_572\n      jump\t// in\n    tag_824:\n        /* \"#utility.yul\":24647:24650   */\n      dup5\n        /* \"#utility.yul\":24643:24682   */\n      add\n        /* \"#utility.yul\":24636:24682   */\n      swap2\n      pop\n        /* \"#utility.yul\":24403:24688   */\n      pop\n        /* \"#utility.yul\":24311:24688   */\n      swap3\n      swap2\n      pop\n      pop\n      jump\t// out\n        /* \"#utility.yul\":24694:25007   */\n    tag_474:\n        /* \"#utility.yul\":24807:24811   */\n      0x00\n        /* \"#utility.yul\":24845:24847   */\n      0x20\n        /* \"#utility.yul\":24834:24843   */\n      dup3\n        /* \"#utility.yul\":24830:24848   */\n      add\n        /* \"#utility.yul\":24822:24848   */\n      swap1\n      pop\n        /* \"#utility.yul\":24894:24903   */\n      dup2\n        /* \"#utility.yul\":24888:24892   */\n      dup2\n        /* \"#utility.yul\":24884:24904   */\n      sub\n        /* \"#utility.yul\":24880:24881   */\n      0x00\n        /* \"#utility.yul\":24869:24878   */\n      dup4\n        /* \"#utility.yul\":24865:24882   */\n      add\n        /* \"#utility.yul\":24858:24905   */\n      mstore\n        /* \"#utility.yul\":24922:25000   */\n      tag_826\n        /* \"#utility.yul\":24995:24999   */\n      dup2\n        /* \"#utility.yul\":24986:24992   */\n      dup5\n        /* \"#utility.yul\":24922:25000   */\n      tag_573\n      jump\t// in\n    tag_826:\n        /* \"#utility.yul\":24914:25000   */\n      swap1\n      pop\n        /* \"#utility.yul\":24694:25007   */\n      swap3\n      swap2\n      pop\n      pop\n      jump\t// out\n        /* \"#utility.yul\":25013:25207   */\n    tag_480:\n        /* \"#utility.yul\":25053:25057   */\n      0x00\n        /* \"#utility.yul\":25073:25093   */\n      tag_828\n        /* \"#utility.yul\":25091:25092   */\n      dup3\n        /* \"#utility.yul\":25073:25093   */\n      tag_518\n      jump\t// in\n    tag_828:\n        /* \"#utility.yul\":25068:25093   */\n      swap2\n      pop\n        /* \"#utility.yul\":25107:25127   */\n      tag_829\n        /* \"#utility.yul\":25125:25126   */\n      dup4\n        /* \"#utility.yul\":25107:25127   */\n      tag_518\n      jump\t// in\n    tag_829:\n        /* \"#utility.yul\":25102:25127   */\n      swap3\n      pop\n        /* \"#utility.yul\":25151:25152   */\n      dup3\n        /* \"#utility.yul\":25148:25149   */\n      dup3\n        /* \"#utility.yul\":25144:25153   */\n      sub\n        /* \"#utility.yul\":25136:25153   */\n      swap1\n      pop\n        /* \"#utility.yul\":25175:25176   */\n      dup2\n        /* \"#utility.yul\":25169:25173   */\n      dup2\n        /* \"#utility.yul\":25166:25177   */\n      gt\n        /* \"#utility.yul\":25163:25200   */\n      iszero\n      tag_830\n      jumpi\n        /* \"#utility.yul\":25180:25198   */\n      tag_831\n      tag_558\n      jump\t// in\n    tag_831:\n        /* \"#utility.yul\":25163:25200   */\n    tag_830:\n        /* \"#utility.yul\":25013:25207   */\n      swap3\n      swap2\n      pop\n      pop\n      jump\t// out\n        /* \"#utility.yul\":25213:25442   */\n    tag_574:\n        /* \"#utility.yul\":25353:25387   */\n      0x5361666545524332303a204552433230206f7065726174696f6e20646964206e\n        /* \"#utility.yul\":25349:25350   */\n      0x00\n        /* \"#utility.yul\":25341:25347   */\n      dup3\n        /* \"#utility.yul\":25337:25351   */\n      add\n        /* \"#utility.yul\":25330:25388   */\n      mstore\n        /* \"#utility.yul\":25422:25434   */\n      0x6f74207375636365656400000000000000000000000000000000000000000000\n        /* \"#utility.yul\":25417:25419   */\n      0x20\n        /* \"#utility.yul\":25409:25415   */\n      dup3\n        /* \"#utility.yul\":25405:25420   */\n      add\n        /* \"#utility.yul\":25398:25435   */\n      mstore\n        /* \"#utility.yul\":25213:25442   */\n      pop\n      jump\t// out\n        /* \"#utility.yul\":25448:25814   */\n    tag_575:\n        /* \"#utility.yul\":25590:25593   */\n      0x00\n        /* \"#utility.yul\":25611:25678   */\n      tag_834\n        /* \"#utility.yul\":25675:25677   */\n      0x2a\n        /* \"#utility.yul\":25670:25673   */\n      dup4\n        /* \"#utility.yul\":25611:25678   */\n      tag_549\n      jump\t// in\n    tag_834:\n        /* \"#utility.yul\":25604:25678   */\n      swap2\n      pop\n        /* \"#utility.yul\":25687:25780   */\n      tag_835\n        /* \"#utility.yul\":25776:25779   */\n      dup3\n        /* \"#utility.yul\":25687:25780   */\n      tag_574\n      jump\t// in\n    tag_835:\n        /* \"#utility.yul\":25805:25807   */\n      0x40\n        /* \"#utility.yul\":25800:25803   */\n      dup3\n        /* \"#utility.yul\":25796:25808   */\n      add\n        /* \"#utility.yul\":25789:25808   */\n      swap1\n      pop\n        /* \"#utility.yul\":25448:25814   */\n      swap2\n      swap1\n      pop\n      jump\t// out\n        /* \"#utility.yul\":25820:26239   */\n    tag_488:\n        /* \"#utility.yul\":25986:25990   */\n      0x00\n        /* \"#utility.yul\":26024:26026   */\n      0x20\n        /* \"#utility.yul\":26013:26022   */\n      dup3\n        /* \"#utility.yul\":26009:26027   */\n      add\n        /* \"#utility.yul\":26001:26027   */\n      swap1\n      pop\n        /* \"#utility.yul\":26073:26082   */\n      dup2\n        /* \"#utility.yul\":26067:26071   */\n      dup2\n        /* \"#utility.yul\":26063:26083   */\n      sub\n        /* \"#utility.yul\":26059:26060   */\n      0x00\n        /* \"#utility.yul\":26048:26057   */\n      dup4\n        /* \"#utility.yul\":26044:26061   */\n      add\n        /* \"#utility.yul\":26037:26084   */\n      mstore\n        /* \"#utility.yul\":26101:26232   */\n      tag_837\n        /* \"#utility.yul\":26227:26231   */\n      dup2\n        /* \"#utility.yul\":26101:26232   */\n      tag_575\n      jump\t// in\n    tag_837:\n        /* \"#utility.yul\":26093:26232   */\n      swap1\n      pop\n        /* \"#utility.yul\":25820:26239   */\n      swap2\n      swap1\n      pop\n      jump\t// out\n        /* \"#utility.yul\":26245:26470   */\n    tag_576:\n        /* \"#utility.yul\":26385:26419   */\n      0x416464726573733a20696e73756666696369656e742062616c616e636520666f\n        /* \"#utility.yul\":26381:26382   */\n      0x00\n        /* \"#utility.yul\":26373:26379   */\n      dup3\n        /* \"#utility.yul\":26369:26383   */\n      add\n        /* \"#utility.yul\":26362:26420   */\n      mstore\n        /* \"#utility.yul\":26454:26462   */\n      0x722063616c6c0000000000000000000000000000000000000000000000000000\n        /* \"#utility.yul\":26449:26451   */\n      0x20\n        /* \"#utility.yul\":26441:26447   */\n      dup3\n        /* \"#utility.yul\":26437:26452   */\n      add\n        /* \"#utility.yul\":26430:26463   */\n      mstore\n        /* \"#utility.yul\":26245:26470   */\n      pop\n      jump\t// out\n        /* \"#utility.yul\":26476:26842   */\n    tag_577:\n        /* \"#utility.yul\":26618:26621   */\n      0x00\n        /* \"#utility.yul\":26639:26706   */\n      tag_840\n        /* \"#utility.yul\":26703:26705   */\n      0x26\n        /* \"#utility.yul\":26698:26701   */\n      dup4\n        /* \"#utility.yul\":26639:26706   */\n      tag_549\n      jump\t// in\n    tag_840:\n        /* \"#utility.yul\":26632:26706   */\n      swap2\n      pop\n        /* \"#utility.yul\":26715:26808   */\n      tag_841\n        /* \"#utility.yul\":26804:26807   */\n      dup3\n        /* \"#utility.yul\":26715:26808   */\n      tag_576\n      jump\t// in\n    tag_841:\n        /* \"#utility.yul\":26833:26835   */\n      0x40\n        /* \"#utility.yul\":26828:26831   */\n      dup3\n        /* \"#utility.yul\":26824:26836   */\n      add\n        /* \"#utility.yul\":26817:26836   */\n      swap1\n      pop\n        /* \"#utility.yul\":26476:26842   */\n      swap2\n      swap1\n      pop\n      jump\t// out\n        /* \"#utility.yul\":26848:27267   */\n    tag_495:\n        /* \"#utility.yul\":27014:27018   */\n      0x00\n        /* \"#utility.yul\":27052:27054   */\n      0x20\n        /* \"#utility.yul\":27041:27050   */\n      dup3\n        /* \"#utility.yul\":27037:27055   */\n      add\n        /* \"#utility.yul\":27029:27055   */\n      swap1\n      pop\n        /* \"#utility.yul\":27101:27110   */\n      dup2\n        /* \"#utility.yul\":27095:27099   */\n      dup2\n        /* \"#utility.yul\":27091:27111   */\n      sub\n        /* \"#utility.yul\":27087:27088   */\n      0x00\n        /* \"#utility.yul\":27076:27085   */\n      dup4\n        /* \"#utility.yul\":27072:27089   */\n      add\n        /* \"#utility.yul\":27065:27112   */\n      mstore\n        /* \"#utility.yul\":27129:27260   */\n      tag_843\n        /* \"#utility.yul\":27255:27259   */\n      dup2\n        /* \"#utility.yul\":27129:27260   */\n      tag_577\n      jump\t// in\n    tag_843:\n        /* \"#utility.yul\":27121:27260   */\n      swap1\n      pop\n        /* \"#utility.yul\":26848:27267   */\n      swap2\n      swap1\n      pop\n      jump\t// out\n        /* \"#utility.yul\":27273:27452   */\n    tag_578:\n        /* \"#utility.yul\":27413:27444   */\n      0x416464726573733a2063616c6c20746f206e6f6e2d636f6e7472616374000000\n        /* \"#utility.yul\":27409:27410   */\n      0x00\n        /* \"#utility.yul\":27401:27407   */\n      dup3\n        /* \"#utility.yul\":27397:27411   */\n      add\n        /* \"#utility.yul\":27390:27445   */\n      mstore\n        /* \"#utility.yul\":27273:27452   */\n      pop\n      jump\t// out\n        /* \"#utility.yul\":27458:27824   */\n    tag_579:\n        /* \"#utility.yul\":27600:27603   */\n      0x00\n        /* \"#utility.yul\":27621:27688   */\n      tag_846\n        /* \"#utility.yul\":27685:27687   */\n      0x1d\n        /* \"#utility.yul\":27680:27683   */\n      dup4\n        /* \"#utility.yul\":27621:27688   */\n      tag_549\n      jump\t// in\n    tag_846:\n        /* \"#utility.yul\":27614:27688   */\n      swap2\n      pop\n        /* \"#utility.yul\":27697:27790   */\n      tag_847\n        /* \"#utility.yul\":27786:27789   */\n      dup3\n        /* \"#utility.yul\":27697:27790   */\n      tag_578\n      jump\t// in\n    tag_847:\n        /* \"#utility.yul\":27815:27817   */\n      0x20\n        /* \"#utility.yul\":27810:27813   */\n      dup3\n        /* \"#utility.yul\":27806:27818   */\n      add\n        /* \"#utility.yul\":27799:27818   */\n      swap1\n      pop\n        /* \"#utility.yul\":27458:27824   */\n      swap2\n      swap1\n      pop\n      jump\t// out\n        /* \"#utility.yul\":27830:28249   */\n    tag_500:\n        /* \"#utility.yul\":27996:28000   */\n      0x00\n        /* \"#utility.yul\":28034:28036   */\n      0x20\n        /* \"#utility.yul\":28023:28032   */\n      dup3\n        /* \"#utility.yul\":28019:28037   */\n      add\n        /* \"#utility.yul\":28011:28037   */\n      swap1\n      pop\n        /* \"#utility.yul\":28083:28092   */\n      dup2\n        /* \"#utility.yul\":28077:28081   */\n      dup2\n        /* \"#utility.yul\":28073:28093   */\n      sub\n        /* \"#utility.yul\":28069:28070   */\n      0x00\n        /* \"#utility.yul\":28058:28067   */\n      dup4\n        /* \"#utility.yul\":28054:28071   */\n      add\n        /* \"#utility.yul\":28047:28094   */\n      mstore\n        /* \"#utility.yul\":28111:28242   */\n      tag_849\n        /* \"#utility.yul\":28237:28241   */\n      dup2\n        /* \"#utility.yul\":28111:28242   */\n      tag_579\n      jump\t// in\n    tag_849:\n        /* \"#utility.yul\":28103:28242   */\n      swap1\n      pop\n        /* \"#utility.yul\":27830:28249   */\n      swap2\n      swap1\n      pop\n      jump\t// out\n        /* \"#utility.yul\":28255:28353   */\n    tag_580:\n        /* \"#utility.yul\":28306:28312   */\n      0x00\n        /* \"#utility.yul\":28340:28345   */\n      dup2\n        /* \"#utility.yul\":28334:28346   */\n      mload\n        /* \"#utility.yul\":28324:28346   */\n      swap1\n      pop\n        /* \"#utility.yul\":28255:28353   */\n      swap2\n      swap1\n      pop\n      jump\t// out\n        /* \"#utility.yul\":28359:28506   */\n    tag_581:\n        /* \"#utility.yul\":28460:28471   */\n      0x00\n        /* \"#utility.yul\":28497:28500   */\n      dup2\n        /* \"#utility.yul\":28482:28500   */\n      swap1\n      pop\n        /* \"#utility.yul\":28359:28506   */\n      swap3\n      swap2\n      pop\n      pop\n      jump\t// out\n        /* \"#utility.yul\":28512:28898   */\n    tag_582:\n        /* \"#utility.yul\":28616:28619   */\n      0x00\n        /* \"#utility.yul\":28644:28682   */\n      tag_853\n        /* \"#utility.yul\":28676:28681   */\n      dup3\n        /* \"#utility.yul\":28644:28682   */\n      tag_580\n      jump\t// in\n    tag_853:\n        /* \"#utility.yul\":28698:28786   */\n      tag_854\n        /* \"#utility.yul\":28779:28785   */\n      dup2\n        /* \"#utility.yul\":28774:28777   */\n      dup6\n        /* \"#utility.yul\":28698:28786   */\n      tag_581\n      jump\t// in\n    tag_854:\n        /* \"#utility.yul\":28691:28786   */\n      swap4\n      pop\n        /* \"#utility.yul\":28795:28860   */\n      tag_855\n        /* \"#utility.yul\":28853:28859   */\n      dup2\n        /* \"#utility.yul\":28848:28851   */\n      dup6\n        /* \"#utility.yul\":28841:28845   */\n      0x20\n        /* \"#utility.yul\":28834:28839   */\n      dup7\n        /* \"#utility.yul\":28830:28846   */\n      add\n        /* \"#utility.yul\":28795:28860   */\n      tag_571\n      jump\t// in\n    tag_855:\n        /* \"#utility.yul\":28885:28891   */\n      dup1\n        /* \"#utility.yul\":28880:28883   */\n      dup5\n        /* \"#utility.yul\":28876:28892   */\n      add\n        /* \"#utility.yul\":28869:28892   */\n      swap2\n      pop\n        /* \"#utility.yul\":28620:28898   */\n      pop\n        /* \"#utility.yul\":28512:28898   */\n      swap3\n      swap2\n      pop\n      pop\n      jump\t// out\n        /* \"#utility.yul\":28904:29175   */\n    tag_502:\n        /* \"#utility.yul\":29034:29037   */\n      0x00\n        /* \"#utility.yul\":29056:29149   */\n      tag_857\n        /* \"#utility.yul\":29145:29148   */\n      dup3\n        /* \"#utility.yul\":29136:29142   */\n      dup5\n        /* \"#utility.yul\":29056:29149   */\n      tag_582\n      jump\t// in\n    tag_857:\n        /* \"#utility.yul\":29049:29149   */\n      swap2\n      pop\n        /* \"#utility.yul\":29166:29169   */\n      dup2\n        /* \"#utility.yul\":29159:29169   */\n      swap1\n      pop\n        /* \"#utility.yul\":28904:29175   */\n      swap3\n      swap2\n      pop\n      pop\n      jump\t// out\n\n    auxdata: 0xa264697066735822122017017bcfddb3a671e5af26bb4ec7c660de84c89600a76a81e7499475a788650f64736f6c63430008100033\n}\n",
				"bytecode": {
					"linkReferences": {},
					"object": "608060405260016004556000600855717f8c9ef06e25a77fe790001fac71c71c71c7600b5568056bc75e2d63100000600c553480156200003e57600080fd5b5060405162004169380380620041698339818101604052810190620000649190620002d4565b62000084620000786200011e60201b60201c565b6200012660201b60201c565b83600160006101000a81548173ffffffffffffffffffffffffffffffffffffffff021916908373ffffffffffffffffffffffffffffffffffffffff16021790555082600260006101000a81548173ffffffffffffffffffffffffffffffffffffffff021916908373ffffffffffffffffffffffffffffffffffffffff16021790555081600381905550806009819055505050505062000346565b600033905090565b60008060009054906101000a900473ffffffffffffffffffffffffffffffffffffffff169050816000806101000a81548173ffffffffffffffffffffffffffffffffffffffff021916908373ffffffffffffffffffffffffffffffffffffffff1602179055508173ffffffffffffffffffffffffffffffffffffffff168173ffffffffffffffffffffffffffffffffffffffff167f8be0079c531659141344cd1fd0a4f28419497f9722a3daafe3b4186f6b6457e060405160405180910390a35050565b600080fd5b600073ffffffffffffffffffffffffffffffffffffffff82169050919050565b60006200021c82620001ef565b9050919050565b600062000230826200020f565b9050919050565b620002428162000223565b81146200024e57600080fd5b50565b600081519050620002628162000237565b92915050565b62000273816200020f565b81146200027f57600080fd5b50565b600081519050620002938162000268565b92915050565b6000819050919050565b620002ae8162000299565b8114620002ba57600080fd5b50565b600081519050620002ce81620002a3565b92915050565b60008060008060808587031215620002f157620002f0620001ea565b5b6000620003018782880162000251565b9450506020620003148782880162000282565b93505060406200032787828801620002bd565b92505060606200033a87828801620002bd565b91505092959194509250565b613e1380620003566000396000f3fe608060405234801561001057600080fd5b50600436106101e45760003560e01c806368382a211161010f578063a41fe49f116100a2578063d49e77cd11610071578063d49e77cd14610547578063eeac3ae814610565578063f2fde38b14610581578063f395db2c1461059d576101e4565b8063a41fe49f146104c1578063cb3cba55146104dd578063cdfb6cf3146104fb578063d0d41fe11461052b576101e4565b80638aa28550116100de5780638aa28550146104245780638da5cb5b146104425780638dbb1e3a1461046057806393f1a40b14610490576101e4565b806368382a21146103b05780636a6d964e146103cc578063715018a6146103fc5780637cd07e4714610406576101e4565b806348cd4cb111610187578063612eee4311610156578063612eee4314610352578063630b5ba11461036e57806364482f79146103785780636494419314610394576101e4565b806348cd4cb1146102e057806351eb05a6146102fe5780635312ea8e1461031a5780635ffe614614610336576101e4565b806317caf6f1116101c357806317caf6f11461025a5780632080baab1461027857806323cf3118146102a8578063454b0608146102c4576101e4565b8062aeef8a146101e9578063081e3eda146102055780631526fe2714610223575b600080fd5b61020360048036038101906101fe9190612ee3565b6105bb565b005b61020d610bc9565b60405161021a9190612f45565b60405180910390f35b61023d60048036038101906102389190612f60565b610bd6565b60405161025198979695949392919061302d565b60405180910390f35b610262610c8e565b60405161026f9190612f45565b60405180910390f35b610292600480360381019061028d91906130e9565b610c94565b60405161029f9190612f45565b60405180910390f35b6102c260048036038101906102bd9190613167565b610e2f565b005b6102de60048036038101906102d99190612f60565b610eef565b005b6102e86111db565b6040516102f59190612f45565b60405180910390f35b61031860048036038101906103139190612f60565b6111e1565b005b610334600480360381019061032f9190612f60565b611397565b005b610350600480360381019061034b9190612f60565b6114d0565b005b61036c60048036038101906103679190612f60565b611556565b005b6103766115dc565b005b610392600480360381019061038d91906131cc565b61160f565b005b6103ae60048036038101906103a9919061329b565b61171b565b005b6103ca60048036038101906103c59190612f60565b611993565b005b6103e660048036038101906103e19190612f60565b611ac8565b6040516103f39190612f45565b60405180910390f35b610404611ae0565b005b61040e611b68565b60405161041b919061335e565b60405180910390f35b61042c611b8e565b6040516104399190612f45565b60405180910390f35b61044a611b94565b6040516104579190613388565b60405180910390f35b61047a600480360381019061047591906133a3565b611bbd565b6040516104879190612f45565b60405180910390f35b6104aa60048036038101906104a591906130e9565b611bee565b6040516104b89291906133e3565b60405180910390f35b6104db60048036038101906104d69190612ee3565b611c1f565b005b6104e56120d5565b6040516104f2919061340c565b60405180910390f35b610515600480360381019061051091906130e9565b6120fb565b6040516105229190612f45565b60405180910390f35b61054560048036038101906105409190613427565b61215e565b005b61054f61221e565b60405161055c9190613388565b60405180910390f35b61057f600480360381019061057a9190612f60565b612244565b005b61059b60048036038101906105969190613427565b6123dc565b005b6105a56124d3565b6040516105b29190612f45565b60405180910390f35b6000600684815481106105d1576105d0613454565b5b9060005260206000209060080201905060006007600086815260200190815260200160002060003373ffffffffffffffffffffffffffffffffffffffff1673ffffffffffffffffffffffffffffffffffffffff168152602001908152602001600020905061063e856111e1565b6000816000015411156106ad576000610695826001015461068764e8d4a51000610679876003015487600001546124d990919063ffffffff16565b61255390919063ffffffff16565b61259d90919063ffffffff16565b905060008111156106ab576106aa33826125e7565b5b505b828260000160009054906101000a900473ffffffffffffffffffffffffffffffffffffffff1673ffffffffffffffffffffffffffffffffffffffff1663dd62ed3e308560040160009054906101000a900473ffffffffffffffffffffffffffffffffffffffff166040518363ffffffff1660e01b8152600401610731929190613483565b602060405180830381865afa15801561074e573d6000803e3d6000fd5b505050506040513d601f19601f8201168201806040525081019061077291906134c1565b116107815761078085612244565b5b60006107ae600c546107a08560060154876124d990919063ffffffff16565b61255390919063ffffffff16565b905060006107c5828661259d90919063ffffffff16565b90506108183330838760000160009054906101000a900473ffffffffffffffffffffffffffffffffffffffff1673ffffffffffffffffffffffffffffffffffffffff166127dc909392919063ffffffff16565b61088b33600260009054906101000a900473ffffffffffffffffffffffffffffffffffffffff16848760000160009054906101000a900473ffffffffffffffffffffffffffffffffffffffff1673ffffffffffffffffffffffffffffffffffffffff166127dc909392919063ffffffff16565b600084600701540361092b578360040160009054906101000a900473ffffffffffffffffffffffffffffffffffffffff1673ffffffffffffffffffffffffffffffffffffffff166341441d3b826040518263ffffffff1660e01b81526004016108f49190612f45565b600060405180830381600087803b15801561090e57600080fd5b505af1158015610922573d6000803e3d6000fd5b505050506109bd565b8360040160009054906101000a900473ffffffffffffffffffffffffffffffffffffffff1673ffffffffffffffffffffffffffffffffffffffff1663e2bbb15887836040518363ffffffff1660e01b815260040161098a9291906133e3565b600060405180830381600087803b1580156109a457600080fd5b505af11580156109b8573d6000803e3d6000fd5b505050505b6109d481846000015461286590919063ffffffff16565b8360000181905550610a0281600a60008a81526020019081526020016000205461286590919063ffffffff16565b600a600089815260200190815260200160002081905550610a4b64e8d4a51000610a3d866003015486600001546124d990919063ffffffff16565b61255390919063ffffffff16565b836001018190555060008460050160009054906101000a900473ffffffffffffffffffffffffffffffffffffffff1673ffffffffffffffffffffffffffffffffffffffff166370a08231306040518263ffffffff1660e01b8152600401610ab29190613388565b602060405180830381865afa158015610acf573d6000803e3d6000fd5b505050506040513d601f19601f82011682018060405250810190610af391906134c1565b90506000811115610b7057610b6f600260009054906101000a900473ffffffffffffffffffffffffffffffffffffffff16828760050160009054906101000a900473ffffffffffffffffffffffffffffffffffffffff1673ffffffffffffffffffffffffffffffffffffffff166128c39092919063ffffffff16565b5b873373ffffffffffffffffffffffffffffffffffffffff167f90890809c654f11d6e72a28fa60149770a0d11ec6c92319d6ceb2bb0a4ea1a1584604051610bb79190612f45565b60405180910390a35050505050505050565b6000600680549050905090565b60068181548110610be657600080fd5b90600052602060002090600802016000915090508060000160009054906101000a900473ffffffffffffffffffffffffffffffffffffffff16908060010154908060020154908060030154908060040160009054906101000a900473ffffffffffffffffffffffffffffffffffffffff16908060050160009054906101000a900473ffffffffffffffffffffffffffffffffffffffff16908060060154908060070154905088565b60085481565b60008060068481548110610cab57610caa613454565b5b9060005260206000209060080201905060006007600086815260200190815260200160002060008573ffffffffffffffffffffffffffffffffffffffff1673ffffffffffffffffffffffffffffffffffffffff16815260200190815260200160002090506000826003015490506000600a6000888152602001908152602001600020549050836002015443118015610d44575060008114155b15610ddf576000610d59856002015443611bbd565b90506000610d9c600854610d8e8860010154610d80600354876124d990919063ffffffff16565b6124d990919063ffffffff16565b61255390919063ffffffff16565b9050610dda610dcb84610dbd64e8d4a51000856124d990919063ffffffff16565b61255390919063ffffffff16565b8561286590919063ffffffff16565b935050505b610e238360010154610e1564e8d4a51000610e078688600001546124d990919063ffffffff16565b61255390919063ffffffff16565b61259d90919063ffffffff16565b94505050505092915050565b610e37612949565b73ffffffffffffffffffffffffffffffffffffffff16610e55611b94565b73ffffffffffffffffffffffffffffffffffffffff1614610eab576040517f08c379a0000000000000000000000000000000000000000000000000000000008152600401610ea29061354b565b60405180910390fd5b80600560006101000a81548173ffffffffffffffffffffffffffffffffffffffff021916908373ffffffffffffffffffffffffffffffffffffffff16021790555050565b600073ffffffffffffffffffffffffffffffffffffffff16600560009054906101000a900473ffffffffffffffffffffffffffffffffffffffff1673ffffffffffffffffffffffffffffffffffffffff1603610f80576040517f08c379a0000000000000000000000000000000000000000000000000000000008152600401610f77906135b7565b60405180910390fd5b600060068281548110610f9657610f95613454565b5b9060005260206000209060080201905060008160000160009054906101000a900473ffffffffffffffffffffffffffffffffffffffff1690506000600a6000858152602001908152602001600020549050611034600560009054906101000a900473ffffffffffffffffffffffffffffffffffffffff16828473ffffffffffffffffffffffffffffffffffffffff166129519092919063ffffffff16565b6000600560009054906101000a900473ffffffffffffffffffffffffffffffffffffffff1673ffffffffffffffffffffffffffffffffffffffff1663ce5494bb846040518263ffffffff1660e01b8152600401611091919061340c565b6020604051808303816000875af11580156110b0573d6000803e3d6000fd5b505050506040513d601f19601f820116820180604052508101906110d491906135ec565b90508073ffffffffffffffffffffffffffffffffffffffff166370a08231306040518263ffffffff1660e01b815260040161110f9190613388565b602060405180830381865afa15801561112c573d6000803e3d6000fd5b505050506040513d601f19601f8201168201806040525081019061115091906134c1565b8214611191576040517f08c379a000000000000000000000000000000000000000000000000000000000815260040161118890613665565b60405180910390fd5b808460000160006101000a81548173ffffffffffffffffffffffffffffffffffffffff021916908373ffffffffffffffffffffffffffffffffffffffff1602179055505050505050565b60095481565b6000600682815481106111f7576111f6613454565b5b90600052602060002090600802019050806002015443116112185750611394565b6000600a600084815260200190815260200160002054905060008111611248574382600201819055505050611394565b6000611258836002015443611bbd565b9050600061129b60085461128d866001015461127f600354876124d990919063ffffffff16565b6124d990919063ffffffff16565b61255390919063ffffffff16565b9050600160009054906101000a900473ffffffffffffffffffffffffffffffffffffffff1673ffffffffffffffffffffffffffffffffffffffff166340c10f1930836040518363ffffffff1660e01b81526004016112fa929190613685565b6020604051808303816000875af1158015611319573d6000803e3d6000fd5b505050506040513d601f19601f8201168201806040525081019061133d91906136c3565b5061137e61136b8461135d64e8d4a51000856124d990919063ffffffff16565b61255390919063ffffffff16565b856003015461286590919063ffffffff16565b8460030181905550438460020181905550505050505b50565b6000600682815481106113ad576113ac613454565b5b9060005260206000209060080201905060006007600084815260200190815260200160002060003373ffffffffffffffffffffffffffffffffffffffff1673ffffffffffffffffffffffffffffffffffffffff16815260200190815260200160002090506114643382600001548460000160009054906101000a900473ffffffffffffffffffffffffffffffffffffffff1673ffffffffffffffffffffffffffffffffffffffff166128c39092919063ffffffff16565b823373ffffffffffffffffffffffffffffffffffffffff167fbb757047c2b5f3974fe26b7c10f732e7bce710b0952a71082702781e62ae059583600001546040516114af9190612f45565b60405180910390a36000816000018190555060008160010181905550505050565b6114d8612949565b73ffffffffffffffffffffffffffffffffffffffff166114f6611b94565b73ffffffffffffffffffffffffffffffffffffffff161461154c576040517f08c379a00000000000000000000000000000000000000000000000000000000081526004016115439061354b565b60405180910390fd5b8060048190555050565b61155e612949565b73ffffffffffffffffffffffffffffffffffffffff1661157c611b94565b73ffffffffffffffffffffffffffffffffffffffff16146115d2576040517f08c379a00000000000000000000000000000000000000000000000000000000081526004016115c99061354b565b60405180910390fd5b8060038190555050565b6000600680549050905060005b8181101561160b576115fa816111e1565b806116049061371f565b90506115e9565b5050565b611617612949565b73ffffffffffffffffffffffffffffffffffffffff16611635611b94565b73ffffffffffffffffffffffffffffffffffffffff161461168b576040517f08c379a00000000000000000000000000000000000000000000000000000000081526004016116829061354b565b60405180910390fd5b801561169a576116996115dc565b5b6116e6826116d8600686815481106116b5576116b4613454565b5b90600052602060002090600802016001015460085461259d90919063ffffffff16565b61286590919063ffffffff16565b600881905550816006848154811061170157611700613454565b5b906000526020600020906008020160010181905550505050565b611723612949565b73ffffffffffffffffffffffffffffffffffffffff16611741611b94565b73ffffffffffffffffffffffffffffffffffffffff1614611797576040517f08c379a000000000000000000000000000000000000000000000000000000000815260040161178e9061354b565b60405180910390fd5b84156117a6576117a56115dc565b5b600060095443116117b9576009546117bb565b435b90506117d28860085461286590919063ffffffff16565b60088190555060066040518061010001604052808973ffffffffffffffffffffffffffffffffffffffff1681526020018a8152602001838152602001600081526020018773ffffffffffffffffffffffffffffffffffffffff1681526020018673ffffffffffffffffffffffffffffffffffffffff16815260200185815260200184815250908060018154018082558091505060019003906000526020600020906008020160009091909190915060008201518160000160006101000a81548173ffffffffffffffffffffffffffffffffffffffff021916908373ffffffffffffffffffffffffffffffffffffffff16021790555060208201518160010155604082015181600201556060820151816003015560808201518160040160006101000a81548173ffffffffffffffffffffffffffffffffffffffff021916908373ffffffffffffffffffffffffffffffffffffffff16021790555060a08201518160050160006101000a81548173ffffffffffffffffffffffffffffffffffffffff021916908373ffffffffffffffffffffffffffffffffffffffff16021790555060c0820151816006015560e0820151816007015550505050505050505050565b61199b612949565b73ffffffffffffffffffffffffffffffffffffffff166119b9611b94565b73ffffffffffffffffffffffffffffffffffffffff1614611a0f576040517f08c379a0000000000000000000000000000000000000000000000000000000008152600401611a069061354b565b60405180910390fd5b600060068281548110611a2557611a24613454565b5b906000526020600020906008020190508060040160009054906101000a900473ffffffffffffffffffffffffffffffffffffffff1673ffffffffffffffffffffffffffffffffffffffff16635312ea8e836040518263ffffffff1660e01b8152600401611a929190612f45565b600060405180830381600087803b158015611aac57600080fd5b505af1158015611ac0573d6000803e3d6000fd5b505050505050565b600a6020528060005260406000206000915090505481565b611ae8612949565b73ffffffffffffffffffffffffffffffffffffffff16611b06611b94565b73ffffffffffffffffffffffffffffffffffffffff1614611b5c576040517f08c379a0000000000000000000000000000000000000000000000000000000008152600401611b539061354b565b60405180910390fd5b611b666000612aa0565b565b600560009054906101000a900473ffffffffffffffffffffffffffffffffffffffff1681565b60045481565b60008060009054906101000a900473ffffffffffffffffffffffffffffffffffffffff16905090565b6000611be6600454611bd8858561259d90919063ffffffff16565b6124d990919063ffffffff16565b905092915050565b6007602052816000526040600020602052806000526040600020600091509150508060000154908060010154905082565b600060068481548110611c3557611c34613454565b5b9060005260206000209060080201905060006007600086815260200190815260200160002060003373ffffffffffffffffffffffffffffffffffffffff1673ffffffffffffffffffffffffffffffffffffffff16815260200190815260200160002090508281600001541015611ce0576040517f08c379a0000000000000000000000000000000000000000000000000000000008152600401611cd7906137b3565b60405180910390fd5b611ce9856111e1565b6000611d338260010154611d2564e8d4a51000611d17876003015487600001546124d990919063ffffffff16565b61255390919063ffffffff16565b61259d90919063ffffffff16565b90506000811115611d4957611d4833826125e7565b5b611d6084836000015461259d90919063ffffffff16565b8260000181905550611d8e84600a60008981526020019081526020016000205461259d90919063ffffffff16565b600a600088815260200190815260200160002081905550611dd764e8d4a51000611dc9856003015485600001546124d990919063ffffffff16565b61255390919063ffffffff16565b82600101819055506000836007015403611e7f578260040160009054906101000a900473ffffffffffffffffffffffffffffffffffffffff1673ffffffffffffffffffffffffffffffffffffffff16631058d281856040518263ffffffff1660e01b8152600401611e489190612f45565b600060405180830381600087803b158015611e6257600080fd5b505af1158015611e76573d6000803e3d6000fd5b50505050611f11565b8260040160009054906101000a900473ffffffffffffffffffffffffffffffffffffffff1673ffffffffffffffffffffffffffffffffffffffff1663441a3e7086866040518363ffffffff1660e01b8152600401611ede9291906133e3565b600060405180830381600087803b158015611ef857600080fd5b505af1158015611f0c573d6000803e3d6000fd5b505050505b611f6033858560000160009054906101000a900473ffffffffffffffffffffffffffffffffffffffff1673ffffffffffffffffffffffffffffffffffffffff166128c39092919063ffffffff16565b60008360050160009054906101000a900473ffffffffffffffffffffffffffffffffffffffff1673ffffffffffffffffffffffffffffffffffffffff166370a08231306040518263ffffffff1660e01b8152600401611fbf9190613388565b602060405180830381865afa158015611fdc573d6000803e3d6000fd5b505050506040513d601f19601f8201168201806040525081019061200091906134c1565b9050600081111561207d5761207c600260009054906101000a900473ffffffffffffffffffffffffffffffffffffffff16828660050160009054906101000a900473ffffffffffffffffffffffffffffffffffffffff1673ffffffffffffffffffffffffffffffffffffffff166128c39092919063ffffffff16565b5b863373ffffffffffffffffffffffffffffffffffffffff167ff279e6a1f5e320cca91135676d9cb6e44ca8a08c0b88342bcdb1144f6511b568876040516120c49190612f45565b60405180910390a350505050505050565b600160009054906101000a900473ffffffffffffffffffffffffffffffffffffffff1681565b6000806007600085815260200190815260200160002060008473ffffffffffffffffffffffffffffffffffffffff1673ffffffffffffffffffffffffffffffffffffffff1681526020019081526020016000209050806000015491505092915050565b612166612949565b73ffffffffffffffffffffffffffffffffffffffff16612184611b94565b73ffffffffffffffffffffffffffffffffffffffff16146121da576040517f08c379a00000000000000000000000000000000000000000000000000000000081526004016121d19061354b565b60405180910390fd5b80600260006101000a81548173ffffffffffffffffffffffffffffffffffffffff021916908373ffffffffffffffffffffffffffffffffffffffff16021790555050565b600260009054906101000a900473ffffffffffffffffffffffffffffffffffffffff1681565b60006006828154811061225a57612259613454565b5b906000526020600020906008020190508060000160009054906101000a900473ffffffffffffffffffffffffffffffffffffffff1673ffffffffffffffffffffffffffffffffffffffff1663095ea7b38260040160009054906101000a900473ffffffffffffffffffffffffffffffffffffffff16600b546040518363ffffffff1660e01b81526004016122ef929190613685565b6020604051808303816000875af115801561230e573d6000803e3d6000fd5b505050506040513d601f19601f8201168201806040525081019061233291906136c3565b508060050160009054906101000a900473ffffffffffffffffffffffffffffffffffffffff1673ffffffffffffffffffffffffffffffffffffffff1663095ea7b330600b546040518363ffffffff1660e01b8152600401612394929190613685565b6020604051808303816000875af11580156123b3573d6000803e3d6000fd5b505050506040513d601f19601f820116820180604052508101906123d791906136c3565b505050565b6123e4612949565b73ffffffffffffffffffffffffffffffffffffffff16612402611b94565b73ffffffffffffffffffffffffffffffffffffffff1614612458576040517f08c379a000000000000000000000000000000000000000000000000000000000815260040161244f9061354b565b60405180910390fd5b600073ffffffffffffffffffffffffffffffffffffffff168173ffffffffffffffffffffffffffffffffffffffff16036124c7576040517f08c379a00000000000000000000000000000000000000000000000000000000081526004016124be90613845565b60405180910390fd5b6124d081612aa0565b50565b60035481565b60008083036124eb576000905061254d565b600082846124f99190613865565b905082848261250891906138ee565b14612548576040517f08c379a000000000000000000000000000000000000000000000000000000000815260040161253f90613991565b60405180910390fd5b809150505b92915050565b600061259583836040518060400160405280601a81526020017f536166654d6174683a206469766973696f6e206279207a65726f000000000000815250612b64565b905092915050565b60006125df83836040518060400160405280601e81526020017f536166654d6174683a207375627472616374696f6e206f766572666c6f770000815250612bc7565b905092915050565b6000600160009054906101000a900473ffffffffffffffffffffffffffffffffffffffff1673ffffffffffffffffffffffffffffffffffffffff166370a08231306040518263ffffffff1660e01b81526004016126449190613388565b602060405180830381865afa158015612661573d6000803e3d6000fd5b505050506040513d601f19601f8201168201806040525081019061268591906134c1565b90508082111561273557600160009054906101000a900473ffffffffffffffffffffffffffffffffffffffff1673ffffffffffffffffffffffffffffffffffffffff1663a9059cbb84836040518363ffffffff1660e01b81526004016126ec929190613685565b6020604051808303816000875af115801561270b573d6000803e3d6000fd5b505050506040513d601f19601f8201168201806040525081019061272f91906136c3565b506127d7565b600160009054906101000a900473ffffffffffffffffffffffffffffffffffffffff1673ffffffffffffffffffffffffffffffffffffffff1663a9059cbb84846040518363ffffffff1660e01b8152600401612792929190613685565b6020604051808303816000875af11580156127b1573d6000803e3d6000fd5b505050506040513d601f19601f820116820180604052508101906127d591906136c3565b505b505050565b61285f846323b872dd60e01b8585856040516024016127fd939291906139b1565b604051602081830303815290604052907bffffffffffffffffffffffffffffffffffffffffffffffffffffffff19166020820180517bffffffffffffffffffffffffffffffffffffffffffffffffffffffff8381831617835250505050612c2b565b50505050565b600080828461287491906139e8565b9050838110156128b9576040517f08c379a00000000000000000000000000000000000000000000000000000000081526004016128b090613a68565b60405180910390fd5b8091505092915050565b6129448363a9059cbb60e01b84846040516024016128e2929190613685565b604051602081830303815290604052907bffffffffffffffffffffffffffffffffffffffffffffffffffffffff19166020820180517bffffffffffffffffffffffffffffffffffffffffffffffffffffffff8381831617835250505050612c2b565b505050565b600033905090565b60008114806129db575060008373ffffffffffffffffffffffffffffffffffffffff1663dd62ed3e30856040518363ffffffff1660e01b8152600401612998929190613483565b602060405180830381865afa1580156129b5573d6000803e3d6000fd5b505050506040513d601f19601f820116820180604052508101906129d991906134c1565b145b612a1a576040517f08c379a0000000000000000000000000000000000000000000000000000000008152600401612a1190613afa565b60405180910390fd5b612a9b8363095ea7b360e01b8484604051602401612a39929190613685565b604051602081830303815290604052907bffffffffffffffffffffffffffffffffffffffffffffffffffffffff19166020820180517bffffffffffffffffffffffffffffffffffffffffffffffffffffffff8381831617835250505050612c2b565b505050565b60008060009054906101000a900473ffffffffffffffffffffffffffffffffffffffff169050816000806101000a81548173ffffffffffffffffffffffffffffffffffffffff021916908373ffffffffffffffffffffffffffffffffffffffff1602179055508173ffffffffffffffffffffffffffffffffffffffff168173ffffffffffffffffffffffffffffffffffffffff167f8be0079c531659141344cd1fd0a4f28419497f9722a3daafe3b4186f6b6457e060405160405180910390a35050565b60008083118290612bab576040517f08c379a0000000000000000000000000000000000000000000000000000000008152600401612ba29190613b99565b60405180910390fd5b5060008385612bba91906138ee565b9050809150509392505050565b6000838311158290612c0f576040517f08c379a0000000000000000000000000000000000000000000000000000000008152600401612c069190613b99565b60405180910390fd5b5060008385612c1e9190613bbb565b9050809150509392505050565b6000612c8d826040518060400160405280602081526020017f5361666545524332303a206c6f772d6c6576656c2063616c6c206661696c65648152508573ffffffffffffffffffffffffffffffffffffffff16612cf29092919063ffffffff16565b9050600081511115612ced5780806020019051810190612cad91906136c3565b612cec576040517f08c379a0000000000000000000000000000000000000000000000000000000008152600401612ce390613c61565b60405180910390fd5b5b505050565b6060612d018484600085612d0a565b90509392505050565b606082471015612d4f576040517f08c379a0000000000000000000000000000000000000000000000000000000008152600401612d4690613cf3565b60405180910390fd5b612d5885612e1e565b612d97576040517f08c379a0000000000000000000000000000000000000000000000000000000008152600401612d8e90613d5f565b60405180910390fd5b6000808673ffffffffffffffffffffffffffffffffffffffff168587604051612dc09190613dc6565b60006040518083038185875af1925050503d8060008114612dfd576040519150601f19603f3d011682016040523d82523d6000602084013e612e02565b606091505b5091509150612e12828286612e41565b92505050949350505050565b6000808273ffffffffffffffffffffffffffffffffffffffff163b119050919050565b60608315612e5157829050612ea1565b600083511115612e645782518084602001fd5b816040517f08c379a0000000000000000000000000000000000000000000000000000000008152600401612e989190613b99565b60405180910390fd5b9392505050565b600080fd5b6000819050919050565b612ec081612ead565b8114612ecb57600080fd5b50565b600081359050612edd81612eb7565b92915050565b600080600060608486031215612efc57612efb612ea8565b5b6000612f0a86828701612ece565b9350506020612f1b86828701612ece565b9250506040612f2c86828701612ece565b9150509250925092565b612f3f81612ead565b82525050565b6000602082019050612f5a6000830184612f36565b92915050565b600060208284031215612f7657612f75612ea8565b5b6000612f8484828501612ece565b91505092915050565b600073ffffffffffffffffffffffffffffffffffffffff82169050919050565b6000819050919050565b6000612fd2612fcd612fc884612f8d565b612fad565b612f8d565b9050919050565b6000612fe482612fb7565b9050919050565b6000612ff682612fd9565b9050919050565b61300681612feb565b82525050565b600061301782612fd9565b9050919050565b6130278161300c565b82525050565b600061010082019050613043600083018b612ffd565b613050602083018a612f36565b61305d6040830189612f36565b61306a6060830188612f36565b613077608083018761301e565b61308460a0830186612ffd565b61309160c0830185612f36565b61309e60e0830184612f36565b9998505050505050505050565b60006130b682612f8d565b9050919050565b6130c6816130ab565b81146130d157600080fd5b50565b6000813590506130e3816130bd565b92915050565b60008060408385031215613100576130ff612ea8565b5b600061310e85828601612ece565b925050602061311f858286016130d4565b9150509250929050565b6000613134826130ab565b9050919050565b61314481613129565b811461314f57600080fd5b50565b6000813590506131618161313b565b92915050565b60006020828403121561317d5761317c612ea8565b5b600061318b84828501613152565b91505092915050565b60008115159050919050565b6131a981613194565b81146131b457600080fd5b50565b6000813590506131c6816131a0565b92915050565b6000806000606084860312156131e5576131e4612ea8565b5b60006131f386828701612ece565b935050602061320486828701612ece565b9250506040613215868287016131b7565b9150509250925092565b600061322a826130ab565b9050919050565b61323a8161321f565b811461324557600080fd5b50565b60008135905061325781613231565b92915050565b6000613268826130ab565b9050919050565b6132788161325d565b811461328357600080fd5b50565b6000813590506132958161326f565b92915050565b600080600080600080600060e0888a0312156132ba576132b9612ea8565b5b60006132c88a828b01612ece565b97505060206132d98a828b01613248565b96505060406132ea8a828b016131b7565b95505060606132fb8a828b01613286565b945050608061330c8a828b01613248565b93505060a061331d8a828b01612ece565b92505060c061332e8a828b01612ece565b91505092959891949750929550565b600061334882612fd9565b9050919050565b6133588161333d565b82525050565b6000602082019050613373600083018461334f565b92915050565b613382816130ab565b82525050565b600060208201905061339d6000830184613379565b92915050565b600080604083850312156133ba576133b9612ea8565b5b60006133c885828601612ece565b92505060206133d985828601612ece565b9150509250929050565b60006040820190506133f86000830185612f36565b6134056020830184612f36565b9392505050565b60006020820190506134216000830184612ffd565b92915050565b60006020828403121561343d5761343c612ea8565b5b600061344b848285016130d4565b91505092915050565b7f4e487b7100000000000000000000000000000000000000000000000000000000600052603260045260246000fd5b60006040820190506134986000830185613379565b6134a56020830184613379565b9392505050565b6000815190506134bb81612eb7565b92915050565b6000602082840312156134d7576134d6612ea8565b5b60006134e5848285016134ac565b91505092915050565b600082825260208201905092915050565b7f4f776e61626c653a2063616c6c6572206973206e6f7420746865206f776e6572600082015250565b60006135356020836134ee565b9150613540826134ff565b602082019050919050565b6000602082019050818103600083015261356481613528565b9050919050565b7f6d6967726174653a206e6f206d69677261746f72000000000000000000000000600082015250565b60006135a16014836134ee565b91506135ac8261356b565b602082019050919050565b600060208201905081810360008301526135d081613594565b9050919050565b6000815190506135e681613231565b92915050565b60006020828403121561360257613601612ea8565b5b6000613610848285016135d7565b91505092915050565b7f6d6967726174653a206261640000000000000000000000000000000000000000600082015250565b600061364f600c836134ee565b915061365a82613619565b602082019050919050565b6000602082019050818103600083015261367e81613642565b9050919050565b600060408201905061369a6000830185613379565b6136a76020830184612f36565b9392505050565b6000815190506136bd816131a0565b92915050565b6000602082840312156136d9576136d8612ea8565b5b60006136e7848285016136ae565b91505092915050565b7f4e487b7100000000000000000000000000000000000000000000000000000000600052601160045260246000fd5b600061372a82612ead565b91507fffffffffffffffffffffffffffffffffffffffffffffffffffffffffffffffff820361375c5761375b6136f0565b5b600182019050919050565b7f77697468647261773a206e6f7420676f6f640000000000000000000000000000600082015250565b600061379d6012836134ee565b91506137a882613767565b602082019050919050565b600060208201905081810360008301526137cc81613790565b9050919050565b7f4f776e61626c653a206e6577206f776e657220697320746865207a65726f206160008201527f6464726573730000000000000000000000000000000000000000000000000000602082015250565b600061382f6026836134ee565b915061383a826137d3565b604082019050919050565b6000602082019050818103600083015261385e81613822565b9050919050565b600061387082612ead565b915061387b83612ead565b9250817fffffffffffffffffffffffffffffffffffffffffffffffffffffffffffffffff04831182151516156138b4576138b36136f0565b5b828202905092915050565b7f4e487b7100000000000000000000000000000000000000000000000000000000600052601260045260246000fd5b60006138f982612ead565b915061390483612ead565b925082613914576139136138bf565b5b828204905092915050565b7f536166654d6174683a206d756c7469706c69636174696f6e206f766572666c6f60008201527f7700000000000000000000000000000000000000000000000000000000000000602082015250565b600061397b6021836134ee565b91506139868261391f565b604082019050919050565b600060208201905081810360008301526139aa8161396e565b9050919050565b60006060820190506139c66000830186613379565b6139d36020830185613379565b6139e06040830184612f36565b949350505050565b60006139f382612ead565b91506139fe83612ead565b9250828201905080821115613a1657613a156136f0565b5b92915050565b7f536166654d6174683a206164646974696f6e206f766572666c6f770000000000600082015250565b6000613a52601b836134ee565b9150613a5d82613a1c565b602082019050919050565b60006020820190508181036000830152613a8181613a45565b9050919050565b7f5361666545524332303a20617070726f76652066726f6d206e6f6e2d7a65726f60008201527f20746f206e6f6e2d7a65726f20616c6c6f77616e636500000000000000000000602082015250565b6000613ae46036836134ee565b9150613aef82613a88565b604082019050919050565b60006020820190508181036000830152613b1381613ad7565b9050919050565b600081519050919050565b60005b83811015613b43578082015181840152602081019050613b28565b60008484015250505050565b6000601f19601f8301169050919050565b6000613b6b82613b1a565b613b7581856134ee565b9350613b85818560208601613b25565b613b8e81613b4f565b840191505092915050565b60006020820190508181036000830152613bb38184613b60565b905092915050565b6000613bc682612ead565b9150613bd183612ead565b9250828203905081811115613be957613be86136f0565b5b92915050565b7f5361666545524332303a204552433230206f7065726174696f6e20646964206e60008201527f6f74207375636365656400000000000000000000000000000000000000000000602082015250565b6000613c4b602a836134ee565b9150613c5682613bef565b604082019050919050565b60006020820190508181036000830152613c7a81613c3e565b9050919050565b7f416464726573733a20696e73756666696369656e742062616c616e636520666f60008201527f722063616c6c0000000000000000000000000000000000000000000000000000602082015250565b6000613cdd6026836134ee565b9150613ce882613c81565b604082019050919050565b60006020820190508181036000830152613d0c81613cd0565b9050919050565b7f416464726573733a2063616c6c20746f206e6f6e2d636f6e7472616374000000600082015250565b6000613d49601d836134ee565b9150613d5482613d13565b602082019050919050565b60006020820190508181036000830152613d7881613d3c565b9050919050565b600081519050919050565b600081905092915050565b6000613da082613d7f565b613daa8185613d8a565b9350613dba818560208601613b25565b80840191505092915050565b6000613dd28284613d95565b91508190509291505056fea264697066735822122017017bcfddb3a671e5af26bb4ec7c660de84c89600a76a81e7499475a788650f64736f6c63430008100033",
					"opcodes": "PUSH1 0x80 PUSH1 0x40 MSTORE PUSH1 0x1 PUSH1 0x4 SSTORE PUSH1 0x0 PUSH1 0x8 SSTORE PUSH18 0x7F8C9EF06E25A77FE790001FAC71C71C71C7 PUSH1 0xB SSTORE PUSH9 0x56BC75E2D63100000 PUSH1 0xC SSTORE CALLVALUE DUP1 ISZERO PUSH3 0x3E JUMPI PUSH1 0x0 DUP1 REVERT JUMPDEST POP PUSH1 0x40 MLOAD PUSH3 0x4169 CODESIZE SUB DUP1 PUSH3 0x4169 DUP4 CODECOPY DUP2 DUP2 ADD PUSH1 0x40 MSTORE DUP2 ADD SWAP1 PUSH3 0x64 SWAP2 SWAP1 PUSH3 0x2D4 JUMP JUMPDEST PUSH3 0x84 PUSH3 0x78 PUSH3 0x11E PUSH1 0x20 SHL PUSH1 0x20 SHR JUMP JUMPDEST PUSH3 0x126 PUSH1 0x20 SHL PUSH1 0x20 SHR JUMP JUMPDEST DUP4 PUSH1 0x1 PUSH1 0x0 PUSH2 0x100 EXP DUP2 SLOAD DUP2 PUSH20 0xFFFFFFFFFFFFFFFFFFFFFFFFFFFFFFFFFFFFFFFF MUL NOT AND SWAP1 DUP4 PUSH20 0xFFFFFFFFFFFFFFFFFFFFFFFFFFFFFFFFFFFFFFFF AND MUL OR SWAP1 SSTORE POP DUP3 PUSH1 0x2 PUSH1 0x0 PUSH2 0x100 EXP DUP2 SLOAD DUP2 PUSH20 0xFFFFFFFFFFFFFFFFFFFFFFFFFFFFFFFFFFFFFFFF MUL NOT AND SWAP1 DUP4 PUSH20 0xFFFFFFFFFFFFFFFFFFFFFFFFFFFFFFFFFFFFFFFF AND MUL OR SWAP1 SSTORE POP DUP2 PUSH1 0x3 DUP2 SWAP1 SSTORE POP DUP1 PUSH1 0x9 DUP2 SWAP1 SSTORE POP POP POP POP POP PUSH3 0x346 JUMP JUMPDEST PUSH1 0x0 CALLER SWAP1 POP SWAP1 JUMP JUMPDEST PUSH1 0x0 DUP1 PUSH1 0x0 SWAP1 SLOAD SWAP1 PUSH2 0x100 EXP SWAP1 DIV PUSH20 0xFFFFFFFFFFFFFFFFFFFFFFFFFFFFFFFFFFFFFFFF AND SWAP1 POP DUP2 PUSH1 0x0 DUP1 PUSH2 0x100 EXP DUP2 SLOAD DUP2 PUSH20 0xFFFFFFFFFFFFFFFFFFFFFFFFFFFFFFFFFFFFFFFF MUL NOT AND SWAP1 DUP4 PUSH20 0xFFFFFFFFFFFFFFFFFFFFFFFFFFFFFFFFFFFFFFFF AND MUL OR SWAP1 SSTORE POP DUP2 PUSH20 0xFFFFFFFFFFFFFFFFFFFFFFFFFFFFFFFFFFFFFFFF AND DUP2 PUSH20 0xFFFFFFFFFFFFFFFFFFFFFFFFFFFFFFFFFFFFFFFF AND PUSH32 0x8BE0079C531659141344CD1FD0A4F28419497F9722A3DAAFE3B4186F6B6457E0 PUSH1 0x40 MLOAD PUSH1 0x40 MLOAD DUP1 SWAP2 SUB SWAP1 LOG3 POP POP JUMP JUMPDEST PUSH1 0x0 DUP1 REVERT JUMPDEST PUSH1 0x0 PUSH20 0xFFFFFFFFFFFFFFFFFFFFFFFFFFFFFFFFFFFFFFFF DUP3 AND SWAP1 POP SWAP2 SWAP1 POP JUMP JUMPDEST PUSH1 0x0 PUSH3 0x21C DUP3 PUSH3 0x1EF JUMP JUMPDEST SWAP1 POP SWAP2 SWAP1 POP JUMP JUMPDEST PUSH1 0x0 PUSH3 0x230 DUP3 PUSH3 0x20F JUMP JUMPDEST SWAP1 POP SWAP2 SWAP1 POP JUMP JUMPDEST PUSH3 0x242 DUP2 PUSH3 0x223 JUMP JUMPDEST DUP2 EQ PUSH3 0x24E JUMPI PUSH1 0x0 DUP1 REVERT JUMPDEST POP JUMP JUMPDEST PUSH1 0x0 DUP2 MLOAD SWAP1 POP PUSH3 0x262 DUP2 PUSH3 0x237 JUMP JUMPDEST SWAP3 SWAP2 POP POP JUMP JUMPDEST PUSH3 0x273 DUP2 PUSH3 0x20F JUMP JUMPDEST DUP2 EQ PUSH3 0x27F JUMPI PUSH1 0x0 DUP1 REVERT JUMPDEST POP JUMP JUMPDEST PUSH1 0x0 DUP2 MLOAD SWAP1 POP PUSH3 0x293 DUP2 PUSH3 0x268 JUMP JUMPDEST SWAP3 SWAP2 POP POP JUMP JUMPDEST PUSH1 0x0 DUP2 SWAP1 POP SWAP2 SWAP1 POP JUMP JUMPDEST PUSH3 0x2AE DUP2 PUSH3 0x299 JUMP JUMPDEST DUP2 EQ PUSH3 0x2BA JUMPI PUSH1 0x0 DUP1 REVERT JUMPDEST POP JUMP JUMPDEST PUSH1 0x0 DUP2 MLOAD SWAP1 POP PUSH3 0x2CE DUP2 PUSH3 0x2A3 JUMP JUMPDEST SWAP3 SWAP2 POP POP JUMP JUMPDEST PUSH1 0x0 DUP1 PUSH1 0x0 DUP1 PUSH1 0x80 DUP6 DUP8 SUB SLT ISZERO PUSH3 0x2F1 JUMPI PUSH3 0x2F0 PUSH3 0x1EA JUMP JUMPDEST JUMPDEST PUSH1 0x0 PUSH3 0x301 DUP8 DUP3 DUP9 ADD PUSH3 0x251 JUMP JUMPDEST SWAP5 POP POP PUSH1 0x20 PUSH3 0x314 DUP8 DUP3 DUP9 ADD PUSH3 0x282 JUMP JUMPDEST SWAP4 POP POP PUSH1 0x40 PUSH3 0x327 DUP8 DUP3 DUP9 ADD PUSH3 0x2BD JUMP JUMPDEST SWAP3 POP POP PUSH1 0x60 PUSH3 0x33A DUP8 DUP3 DUP9 ADD PUSH3 0x2BD JUMP JUMPDEST SWAP2 POP POP SWAP3 SWAP6 SWAP2 SWAP5 POP SWAP3 POP JUMP JUMPDEST PUSH2 0x3E13 DUP1 PUSH3 0x356 PUSH1 0x0 CODECOPY PUSH1 0x0 RETURN INVALID PUSH1 0x80 PUSH1 0x40 MSTORE CALLVALUE DUP1 ISZERO PUSH2 0x10 JUMPI PUSH1 0x0 DUP1 REVERT JUMPDEST POP PUSH1 0x4 CALLDATASIZE LT PUSH2 0x1E4 JUMPI PUSH1 0x0 CALLDATALOAD PUSH1 0xE0 SHR DUP1 PUSH4 0x68382A21 GT PUSH2 0x10F JUMPI DUP1 PUSH4 0xA41FE49F GT PUSH2 0xA2 JUMPI DUP1 PUSH4 0xD49E77CD GT PUSH2 0x71 JUMPI DUP1 PUSH4 0xD49E77CD EQ PUSH2 0x547 JUMPI DUP1 PUSH4 0xEEAC3AE8 EQ PUSH2 0x565 JUMPI DUP1 PUSH4 0xF2FDE38B EQ PUSH2 0x581 JUMPI DUP1 PUSH4 0xF395DB2C EQ PUSH2 0x59D JUMPI PUSH2 0x1E4 JUMP JUMPDEST DUP1 PUSH4 0xA41FE49F EQ PUSH2 0x4C1 JUMPI DUP1 PUSH4 0xCB3CBA55 EQ PUSH2 0x4DD JUMPI DUP1 PUSH4 0xCDFB6CF3 EQ PUSH2 0x4FB JUMPI DUP1 PUSH4 0xD0D41FE1 EQ PUSH2 0x52B JUMPI PUSH2 0x1E4 JUMP JUMPDEST DUP1 PUSH4 0x8AA28550 GT PUSH2 0xDE JUMPI DUP1 PUSH4 0x8AA28550 EQ PUSH2 0x424 JUMPI DUP1 PUSH4 0x8DA5CB5B EQ PUSH2 0x442 JUMPI DUP1 PUSH4 0x8DBB1E3A EQ PUSH2 0x460 JUMPI DUP1 PUSH4 0x93F1A40B EQ PUSH2 0x490 JUMPI PUSH2 0x1E4 JUMP JUMPDEST DUP1 PUSH4 0x68382A21 EQ PUSH2 0x3B0 JUMPI DUP1 PUSH4 0x6A6D964E EQ PUSH2 0x3CC JUMPI DUP1 PUSH4 0x715018A6 EQ PUSH2 0x3FC JUMPI DUP1 PUSH4 0x7CD07E47 EQ PUSH2 0x406 JUMPI PUSH2 0x1E4 JUMP JUMPDEST DUP1 PUSH4 0x48CD4CB1 GT PUSH2 0x187 JUMPI DUP1 PUSH4 0x612EEE43 GT PUSH2 0x156 JUMPI DUP1 PUSH4 0x612EEE43 EQ PUSH2 0x352 JUMPI DUP1 PUSH4 0x630B5BA1 EQ PUSH2 0x36E JUMPI DUP1 PUSH4 0x64482F79 EQ PUSH2 0x378 JUMPI DUP1 PUSH4 0x64944193 EQ PUSH2 0x394 JUMPI PUSH2 0x1E4 JUMP JUMPDEST DUP1 PUSH4 0x48CD4CB1 EQ PUSH2 0x2E0 JUMPI DUP1 PUSH4 0x51EB05A6 EQ PUSH2 0x2FE JUMPI DUP1 PUSH4 0x5312EA8E EQ PUSH2 0x31A JUMPI DUP1 PUSH4 0x5FFE6146 EQ PUSH2 0x336 JUMPI PUSH2 0x1E4 JUMP JUMPDEST DUP1 PUSH4 0x17CAF6F1 GT PUSH2 0x1C3 JUMPI DUP1 PUSH4 0x17CAF6F1 EQ PUSH2 0x25A JUMPI DUP1 PUSH4 0x2080BAAB EQ PUSH2 0x278 JUMPI DUP1 PUSH4 0x23CF3118 EQ PUSH2 0x2A8 JUMPI DUP1 PUSH4 0x454B0608 EQ PUSH2 0x2C4 JUMPI PUSH2 0x1E4 JUMP JUMPDEST DUP1 PUSH3 0xAEEF8A EQ PUSH2 0x1E9 JUMPI DUP1 PUSH4 0x81E3EDA EQ PUSH2 0x205 JUMPI DUP1 PUSH4 0x1526FE27 EQ PUSH2 0x223 JUMPI JUMPDEST PUSH1 0x0 DUP1 REVERT JUMPDEST PUSH2 0x203 PUSH1 0x4 DUP1 CALLDATASIZE SUB DUP2 ADD SWAP1 PUSH2 0x1FE SWAP2 SWAP1 PUSH2 0x2EE3 JUMP JUMPDEST PUSH2 0x5BB JUMP JUMPDEST STOP JUMPDEST PUSH2 0x20D PUSH2 0xBC9 JUMP JUMPDEST PUSH1 0x40 MLOAD PUSH2 0x21A SWAP2 SWAP1 PUSH2 0x2F45 JUMP JUMPDEST PUSH1 0x40 MLOAD DUP1 SWAP2 SUB SWAP1 RETURN JUMPDEST PUSH2 0x23D PUSH1 0x4 DUP1 CALLDATASIZE SUB DUP2 ADD SWAP1 PUSH2 0x238 SWAP2 SWAP1 PUSH2 0x2F60 JUMP JUMPDEST PUSH2 0xBD6 JUMP JUMPDEST PUSH1 0x40 MLOAD PUSH2 0x251 SWAP9 SWAP8 SWAP7 SWAP6 SWAP5 SWAP4 SWAP3 SWAP2 SWAP1 PUSH2 0x302D JUMP JUMPDEST PUSH1 0x40 MLOAD DUP1 SWAP2 SUB SWAP1 RETURN JUMPDEST PUSH2 0x262 PUSH2 0xC8E JUMP JUMPDEST PUSH1 0x40 MLOAD PUSH2 0x26F SWAP2 SWAP1 PUSH2 0x2F45 JUMP JUMPDEST PUSH1 0x40 MLOAD DUP1 SWAP2 SUB SWAP1 RETURN JUMPDEST PUSH2 0x292 PUSH1 0x4 DUP1 CALLDATASIZE SUB DUP2 ADD SWAP1 PUSH2 0x28D SWAP2 SWAP1 PUSH2 0x30E9 JUMP JUMPDEST PUSH2 0xC94 JUMP JUMPDEST PUSH1 0x40 MLOAD PUSH2 0x29F SWAP2 SWAP1 PUSH2 0x2F45 JUMP JUMPDEST PUSH1 0x40 MLOAD DUP1 SWAP2 SUB SWAP1 RETURN JUMPDEST PUSH2 0x2C2 PUSH1 0x4 DUP1 CALLDATASIZE SUB DUP2 ADD SWAP1 PUSH2 0x2BD SWAP2 SWAP1 PUSH2 0x3167 JUMP JUMPDEST PUSH2 0xE2F JUMP JUMPDEST STOP JUMPDEST PUSH2 0x2DE PUSH1 0x4 DUP1 CALLDATASIZE SUB DUP2 ADD SWAP1 PUSH2 0x2D9 SWAP2 SWAP1 PUSH2 0x2F60 JUMP JUMPDEST PUSH2 0xEEF JUMP JUMPDEST STOP JUMPDEST PUSH2 0x2E8 PUSH2 0x11DB JUMP JUMPDEST PUSH1 0x40 MLOAD PUSH2 0x2F5 SWAP2 SWAP1 PUSH2 0x2F45 JUMP JUMPDEST PUSH1 0x40 MLOAD DUP1 SWAP2 SUB SWAP1 RETURN JUMPDEST PUSH2 0x318 PUSH1 0x4 DUP1 CALLDATASIZE SUB DUP2 ADD SWAP1 PUSH2 0x313 SWAP2 SWAP1 PUSH2 0x2F60 JUMP JUMPDEST PUSH2 0x11E1 JUMP JUMPDEST STOP JUMPDEST PUSH2 0x334 PUSH1 0x4 DUP1 CALLDATASIZE SUB DUP2 ADD SWAP1 PUSH2 0x32F SWAP2 SWAP1 PUSH2 0x2F60 JUMP JUMPDEST PUSH2 0x1397 JUMP JUMPDEST STOP JUMPDEST PUSH2 0x350 PUSH1 0x4 DUP1 CALLDATASIZE SUB DUP2 ADD SWAP1 PUSH2 0x34B SWAP2 SWAP1 PUSH2 0x2F60 JUMP JUMPDEST PUSH2 0x14D0 JUMP JUMPDEST STOP JUMPDEST PUSH2 0x36C PUSH1 0x4 DUP1 CALLDATASIZE SUB DUP2 ADD SWAP1 PUSH2 0x367 SWAP2 SWAP1 PUSH2 0x2F60 JUMP JUMPDEST PUSH2 0x1556 JUMP JUMPDEST STOP JUMPDEST PUSH2 0x376 PUSH2 0x15DC JUMP JUMPDEST STOP JUMPDEST PUSH2 0x392 PUSH1 0x4 DUP1 CALLDATASIZE SUB DUP2 ADD SWAP1 PUSH2 0x38D SWAP2 SWAP1 PUSH2 0x31CC JUMP JUMPDEST PUSH2 0x160F JUMP JUMPDEST STOP JUMPDEST PUSH2 0x3AE PUSH1 0x4 DUP1 CALLDATASIZE SUB DUP2 ADD SWAP1 PUSH2 0x3A9 SWAP2 SWAP1 PUSH2 0x329B JUMP JUMPDEST PUSH2 0x171B JUMP JUMPDEST STOP JUMPDEST PUSH2 0x3CA PUSH1 0x4 DUP1 CALLDATASIZE SUB DUP2 ADD SWAP1 PUSH2 0x3C5 SWAP2 SWAP1 PUSH2 0x2F60 JUMP JUMPDEST PUSH2 0x1993 JUMP JUMPDEST STOP JUMPDEST PUSH2 0x3E6 PUSH1 0x4 DUP1 CALLDATASIZE SUB DUP2 ADD SWAP1 PUSH2 0x3E1 SWAP2 SWAP1 PUSH2 0x2F60 JUMP JUMPDEST PUSH2 0x1AC8 JUMP JUMPDEST PUSH1 0x40 MLOAD PUSH2 0x3F3 SWAP2 SWAP1 PUSH2 0x2F45 JUMP JUMPDEST PUSH1 0x40 MLOAD DUP1 SWAP2 SUB SWAP1 RETURN JUMPDEST PUSH2 0x404 PUSH2 0x1AE0 JUMP JUMPDEST STOP JUMPDEST PUSH2 0x40E PUSH2 0x1B68 JUMP JUMPDEST PUSH1 0x40 MLOAD PUSH2 0x41B SWAP2 SWAP1 PUSH2 0x335E JUMP JUMPDEST PUSH1 0x40 MLOAD DUP1 SWAP2 SUB SWAP1 RETURN JUMPDEST PUSH2 0x42C PUSH2 0x1B8E JUMP JUMPDEST PUSH1 0x40 MLOAD PUSH2 0x439 SWAP2 SWAP1 PUSH2 0x2F45 JUMP JUMPDEST PUSH1 0x40 MLOAD DUP1 SWAP2 SUB SWAP1 RETURN JUMPDEST PUSH2 0x44A PUSH2 0x1B94 JUMP JUMPDEST PUSH1 0x40 MLOAD PUSH2 0x457 SWAP2 SWAP1 PUSH2 0x3388 JUMP JUMPDEST PUSH1 0x40 MLOAD DUP1 SWAP2 SUB SWAP1 RETURN JUMPDEST PUSH2 0x47A PUSH1 0x4 DUP1 CALLDATASIZE SUB DUP2 ADD SWAP1 PUSH2 0x475 SWAP2 SWAP1 PUSH2 0x33A3 JUMP JUMPDEST PUSH2 0x1BBD JUMP JUMPDEST PUSH1 0x40 MLOAD PUSH2 0x487 SWAP2 SWAP1 PUSH2 0x2F45 JUMP JUMPDEST PUSH1 0x40 MLOAD DUP1 SWAP2 SUB SWAP1 RETURN JUMPDEST PUSH2 0x4AA PUSH1 0x4 DUP1 CALLDATASIZE SUB DUP2 ADD SWAP1 PUSH2 0x4A5 SWAP2 SWAP1 PUSH2 0x30E9 JUMP JUMPDEST PUSH2 0x1BEE JUMP JUMPDEST PUSH1 0x40 MLOAD PUSH2 0x4B8 SWAP3 SWAP2 SWAP1 PUSH2 0x33E3 JUMP JUMPDEST PUSH1 0x40 MLOAD DUP1 SWAP2 SUB SWAP1 RETURN JUMPDEST PUSH2 0x4DB PUSH1 0x4 DUP1 CALLDATASIZE SUB DUP2 ADD SWAP1 PUSH2 0x4D6 SWAP2 SWAP1 PUSH2 0x2EE3 JUMP JUMPDEST PUSH2 0x1C1F JUMP JUMPDEST STOP JUMPDEST PUSH2 0x4E5 PUSH2 0x20D5 JUMP JUMPDEST PUSH1 0x40 MLOAD PUSH2 0x4F2 SWAP2 SWAP1 PUSH2 0x340C JUMP JUMPDEST PUSH1 0x40 MLOAD DUP1 SWAP2 SUB SWAP1 RETURN JUMPDEST PUSH2 0x515 PUSH1 0x4 DUP1 CALLDATASIZE SUB DUP2 ADD SWAP1 PUSH2 0x510 SWAP2 SWAP1 PUSH2 0x30E9 JUMP JUMPDEST PUSH2 0x20FB JUMP JUMPDEST PUSH1 0x40 MLOAD PUSH2 0x522 SWAP2 SWAP1 PUSH2 0x2F45 JUMP JUMPDEST PUSH1 0x40 MLOAD DUP1 SWAP2 SUB SWAP1 RETURN JUMPDEST PUSH2 0x545 PUSH1 0x4 DUP1 CALLDATASIZE SUB DUP2 ADD SWAP1 PUSH2 0x540 SWAP2 SWAP1 PUSH2 0x3427 JUMP JUMPDEST PUSH2 0x215E JUMP JUMPDEST STOP JUMPDEST PUSH2 0x54F PUSH2 0x221E JUMP JUMPDEST PUSH1 0x40 MLOAD PUSH2 0x55C SWAP2 SWAP1 PUSH2 0x3388 JUMP JUMPDEST PUSH1 0x40 MLOAD DUP1 SWAP2 SUB SWAP1 RETURN JUMPDEST PUSH2 0x57F PUSH1 0x4 DUP1 CALLDATASIZE SUB DUP2 ADD SWAP1 PUSH2 0x57A SWAP2 SWAP1 PUSH2 0x2F60 JUMP JUMPDEST PUSH2 0x2244 JUMP JUMPDEST STOP JUMPDEST PUSH2 0x59B PUSH1 0x4 DUP1 CALLDATASIZE SUB DUP2 ADD SWAP1 PUSH2 0x596 SWAP2 SWAP1 PUSH2 0x3427 JUMP JUMPDEST PUSH2 0x23DC JUMP JUMPDEST STOP JUMPDEST PUSH2 0x5A5 PUSH2 0x24D3 JUMP JUMPDEST PUSH1 0x40 MLOAD PUSH2 0x5B2 SWAP2 SWAP1 PUSH2 0x2F45 JUMP JUMPDEST PUSH1 0x40 MLOAD DUP1 SWAP2 SUB SWAP1 RETURN JUMPDEST PUSH1 0x0 PUSH1 0x6 DUP5 DUP2 SLOAD DUP2 LT PUSH2 0x5D1 JUMPI PUSH2 0x5D0 PUSH2 0x3454 JUMP JUMPDEST JUMPDEST SWAP1 PUSH1 0x0 MSTORE PUSH1 0x20 PUSH1 0x0 KECCAK256 SWAP1 PUSH1 0x8 MUL ADD SWAP1 POP PUSH1 0x0 PUSH1 0x7 PUSH1 0x0 DUP7 DUP2 MSTORE PUSH1 0x20 ADD SWAP1 DUP2 MSTORE PUSH1 0x20 ADD PUSH1 0x0 KECCAK256 PUSH1 0x0 CALLER PUSH20 0xFFFFFFFFFFFFFFFFFFFFFFFFFFFFFFFFFFFFFFFF AND PUSH20 0xFFFFFFFFFFFFFFFFFFFFFFFFFFFFFFFFFFFFFFFF AND DUP2 MSTORE PUSH1 0x20 ADD SWAP1 DUP2 MSTORE PUSH1 0x20 ADD PUSH1 0x0 KECCAK256 SWAP1 POP PUSH2 0x63E DUP6 PUSH2 0x11E1 JUMP JUMPDEST PUSH1 0x0 DUP2 PUSH1 0x0 ADD SLOAD GT ISZERO PUSH2 0x6AD JUMPI PUSH1 0x0 PUSH2 0x695 DUP3 PUSH1 0x1 ADD SLOAD PUSH2 0x687 PUSH5 0xE8D4A51000 PUSH2 0x679 DUP8 PUSH1 0x3 ADD SLOAD DUP8 PUSH1 0x0 ADD SLOAD PUSH2 0x24D9 SWAP1 SWAP2 SWAP1 PUSH4 0xFFFFFFFF AND JUMP JUMPDEST PUSH2 0x2553 SWAP1 SWAP2 SWAP1 PUSH4 0xFFFFFFFF AND JUMP JUMPDEST PUSH2 0x259D SWAP1 SWAP2 SWAP1 PUSH4 0xFFFFFFFF AND JUMP JUMPDEST SWAP1 POP PUSH1 0x0 DUP2 GT ISZERO PUSH2 0x6AB JUMPI PUSH2 0x6AA CALLER DUP3 PUSH2 0x25E7 JUMP JUMPDEST JUMPDEST POP JUMPDEST DUP3 DUP3 PUSH1 0x0 ADD PUSH1 0x0 SWAP1 SLOAD SWAP1 PUSH2 0x100 EXP SWAP1 DIV PUSH20 0xFFFFFFFFFFFFFFFFFFFFFFFFFFFFFFFFFFFFFFFF AND PUSH20 0xFFFFFFFFFFFFFFFFFFFFFFFFFFFFFFFFFFFFFFFF AND PUSH4 0xDD62ED3E ADDRESS DUP6 PUSH1 0x4 ADD PUSH1 0x0 SWAP1 SLOAD SWAP1 PUSH2 0x100 EXP SWAP1 DIV PUSH20 0xFFFFFFFFFFFFFFFFFFFFFFFFFFFFFFFFFFFFFFFF AND PUSH1 0x40 MLOAD DUP4 PUSH4 0xFFFFFFFF AND PUSH1 0xE0 SHL DUP2 MSTORE PUSH1 0x4 ADD PUSH2 0x731 SWAP3 SWAP2 SWAP1 PUSH2 0x3483 JUMP JUMPDEST PUSH1 0x20 PUSH1 0x40 MLOAD DUP1 DUP4 SUB DUP2 DUP7 GAS STATICCALL ISZERO DUP1 ISZERO PUSH2 0x74E JUMPI RETURNDATASIZE PUSH1 0x0 DUP1 RETURNDATACOPY RETURNDATASIZE PUSH1 0x0 REVERT JUMPDEST POP POP POP POP PUSH1 0x40 MLOAD RETURNDATASIZE PUSH1 0x1F NOT PUSH1 0x1F DUP3 ADD AND DUP3 ADD DUP1 PUSH1 0x40 MSTORE POP DUP2 ADD SWAP1 PUSH2 0x772 SWAP2 SWAP1 PUSH2 0x34C1 JUMP JUMPDEST GT PUSH2 0x781 JUMPI PUSH2 0x780 DUP6 PUSH2 0x2244 JUMP JUMPDEST JUMPDEST PUSH1 0x0 PUSH2 0x7AE PUSH1 0xC SLOAD PUSH2 0x7A0 DUP6 PUSH1 0x6 ADD SLOAD DUP8 PUSH2 0x24D9 SWAP1 SWAP2 SWAP1 PUSH4 0xFFFFFFFF AND JUMP JUMPDEST PUSH2 0x2553 SWAP1 SWAP2 SWAP1 PUSH4 0xFFFFFFFF AND JUMP JUMPDEST SWAP1 POP PUSH1 0x0 PUSH2 0x7C5 DUP3 DUP7 PUSH2 0x259D SWAP1 SWAP2 SWAP1 PUSH4 0xFFFFFFFF AND JUMP JUMPDEST SWAP1 POP PUSH2 0x818 CALLER ADDRESS DUP4 DUP8 PUSH1 0x0 ADD PUSH1 0x0 SWAP1 SLOAD SWAP1 PUSH2 0x100 EXP SWAP1 DIV PUSH20 0xFFFFFFFFFFFFFFFFFFFFFFFFFFFFFFFFFFFFFFFF AND PUSH20 0xFFFFFFFFFFFFFFFFFFFFFFFFFFFFFFFFFFFFFFFF AND PUSH2 0x27DC SWAP1 SWAP4 SWAP3 SWAP2 SWAP1 PUSH4 0xFFFFFFFF AND JUMP JUMPDEST PUSH2 0x88B CALLER PUSH1 0x2 PUSH1 0x0 SWAP1 SLOAD SWAP1 PUSH2 0x100 EXP SWAP1 DIV PUSH20 0xFFFFFFFFFFFFFFFFFFFFFFFFFFFFFFFFFFFFFFFF AND DUP5 DUP8 PUSH1 0x0 ADD PUSH1 0x0 SWAP1 SLOAD SWAP1 PUSH2 0x100 EXP SWAP1 DIV PUSH20 0xFFFFFFFFFFFFFFFFFFFFFFFFFFFFFFFFFFFFFFFF AND PUSH20 0xFFFFFFFFFFFFFFFFFFFFFFFFFFFFFFFFFFFFFFFF AND PUSH2 0x27DC SWAP1 SWAP4 SWAP3 SWAP2 SWAP1 PUSH4 0xFFFFFFFF AND JUMP JUMPDEST PUSH1 0x0 DUP5 PUSH1 0x7 ADD SLOAD SUB PUSH2 0x92B JUMPI DUP4 PUSH1 0x4 ADD PUSH1 0x0 SWAP1 SLOAD SWAP1 PUSH2 0x100 EXP SWAP1 DIV PUSH20 0xFFFFFFFFFFFFFFFFFFFFFFFFFFFFFFFFFFFFFFFF AND PUSH20 0xFFFFFFFFFFFFFFFFFFFFFFFFFFFFFFFFFFFFFFFF AND PUSH4 0x41441D3B DUP3 PUSH1 0x40 MLOAD DUP3 PUSH4 0xFFFFFFFF AND PUSH1 0xE0 SHL DUP2 MSTORE PUSH1 0x4 ADD PUSH2 0x8F4 SWAP2 SWAP1 PUSH2 0x2F45 JUMP JUMPDEST PUSH1 0x0 PUSH1 0x40 MLOAD DUP1 DUP4 SUB DUP2 PUSH1 0x0 DUP8 DUP1 EXTCODESIZE ISZERO DUP1 ISZERO PUSH2 0x90E JUMPI PUSH1 0x0 DUP1 REVERT JUMPDEST POP GAS CALL ISZERO DUP1 ISZERO PUSH2 0x922 JUMPI RETURNDATASIZE PUSH1 0x0 DUP1 RETURNDATACOPY RETURNDATASIZE PUSH1 0x0 REVERT JUMPDEST POP POP POP POP PUSH2 0x9BD JUMP JUMPDEST DUP4 PUSH1 0x4 ADD PUSH1 0x0 SWAP1 SLOAD SWAP1 PUSH2 0x100 EXP SWAP1 DIV PUSH20 0xFFFFFFFFFFFFFFFFFFFFFFFFFFFFFFFFFFFFFFFF AND PUSH20 0xFFFFFFFFFFFFFFFFFFFFFFFFFFFFFFFFFFFFFFFF AND PUSH4 0xE2BBB158 DUP8 DUP4 PUSH1 0x40 MLOAD DUP4 PUSH4 0xFFFFFFFF AND PUSH1 0xE0 SHL DUP2 MSTORE PUSH1 0x4 ADD PUSH2 0x98A SWAP3 SWAP2 SWAP1 PUSH2 0x33E3 JUMP JUMPDEST PUSH1 0x0 PUSH1 0x40 MLOAD DUP1 DUP4 SUB DUP2 PUSH1 0x0 DUP8 DUP1 EXTCODESIZE ISZERO DUP1 ISZERO PUSH2 0x9A4 JUMPI PUSH1 0x0 DUP1 REVERT JUMPDEST POP GAS CALL ISZERO DUP1 ISZERO PUSH2 0x9B8 JUMPI RETURNDATASIZE PUSH1 0x0 DUP1 RETURNDATACOPY RETURNDATASIZE PUSH1 0x0 REVERT JUMPDEST POP POP POP POP JUMPDEST PUSH2 0x9D4 DUP2 DUP5 PUSH1 0x0 ADD SLOAD PUSH2 0x2865 SWAP1 SWAP2 SWAP1 PUSH4 0xFFFFFFFF AND JUMP JUMPDEST DUP4 PUSH1 0x0 ADD DUP2 SWAP1 SSTORE POP PUSH2 0xA02 DUP2 PUSH1 0xA PUSH1 0x0 DUP11 DUP2 MSTORE PUSH1 0x20 ADD SWAP1 DUP2 MSTORE PUSH1 0x20 ADD PUSH1 0x0 KECCAK256 SLOAD PUSH2 0x2865 SWAP1 SWAP2 SWAP1 PUSH4 0xFFFFFFFF AND JUMP JUMPDEST PUSH1 0xA PUSH1 0x0 DUP10 DUP2 MSTORE PUSH1 0x20 ADD SWAP1 DUP2 MSTORE PUSH1 0x20 ADD PUSH1 0x0 KECCAK256 DUP2 SWAP1 SSTORE POP PUSH2 0xA4B PUSH5 0xE8D4A51000 PUSH2 0xA3D DUP7 PUSH1 0x3 ADD SLOAD DUP7 PUSH1 0x0 ADD SLOAD PUSH2 0x24D9 SWAP1 SWAP2 SWAP1 PUSH4 0xFFFFFFFF AND JUMP JUMPDEST PUSH2 0x2553 SWAP1 SWAP2 SWAP1 PUSH4 0xFFFFFFFF AND JUMP JUMPDEST DUP4 PUSH1 0x1 ADD DUP2 SWAP1 SSTORE POP PUSH1 0x0 DUP5 PUSH1 0x5 ADD PUSH1 0x0 SWAP1 SLOAD SWAP1 PUSH2 0x100 EXP SWAP1 DIV PUSH20 0xFFFFFFFFFFFFFFFFFFFFFFFFFFFFFFFFFFFFFFFF AND PUSH20 0xFFFFFFFFFFFFFFFFFFFFFFFFFFFFFFFFFFFFFFFF AND PUSH4 0x70A08231 ADDRESS PUSH1 0x40 MLOAD DUP3 PUSH4 0xFFFFFFFF AND PUSH1 0xE0 SHL DUP2 MSTORE PUSH1 0x4 ADD PUSH2 0xAB2 SWAP2 SWAP1 PUSH2 0x3388 JUMP JUMPDEST PUSH1 0x20 PUSH1 0x40 MLOAD DUP1 DUP4 SUB DUP2 DUP7 GAS STATICCALL ISZERO DUP1 ISZERO PUSH2 0xACF JUMPI RETURNDATASIZE PUSH1 0x0 DUP1 RETURNDATACOPY RETURNDATASIZE PUSH1 0x0 REVERT JUMPDEST POP POP POP POP PUSH1 0x40 MLOAD RETURNDATASIZE PUSH1 0x1F NOT PUSH1 0x1F DUP3 ADD AND DUP3 ADD DUP1 PUSH1 0x40 MSTORE POP DUP2 ADD SWAP1 PUSH2 0xAF3 SWAP2 SWAP1 PUSH2 0x34C1 JUMP JUMPDEST SWAP1 POP PUSH1 0x0 DUP2 GT ISZERO PUSH2 0xB70 JUMPI PUSH2 0xB6F PUSH1 0x2 PUSH1 0x0 SWAP1 SLOAD SWAP1 PUSH2 0x100 EXP SWAP1 DIV PUSH20 0xFFFFFFFFFFFFFFFFFFFFFFFFFFFFFFFFFFFFFFFF AND DUP3 DUP8 PUSH1 0x5 ADD PUSH1 0x0 SWAP1 SLOAD SWAP1 PUSH2 0x100 EXP SWAP1 DIV PUSH20 0xFFFFFFFFFFFFFFFFFFFFFFFFFFFFFFFFFFFFFFFF AND PUSH20 0xFFFFFFFFFFFFFFFFFFFFFFFFFFFFFFFFFFFFFFFF AND PUSH2 0x28C3 SWAP1 SWAP3 SWAP2 SWAP1 PUSH4 0xFFFFFFFF AND JUMP JUMPDEST JUMPDEST DUP8 CALLER PUSH20 0xFFFFFFFFFFFFFFFFFFFFFFFFFFFFFFFFFFFFFFFF AND PUSH32 0x90890809C654F11D6E72A28FA60149770A0D11EC6C92319D6CEB2BB0A4EA1A15 DUP5 PUSH1 0x40 MLOAD PUSH2 0xBB7 SWAP2 SWAP1 PUSH2 0x2F45 JUMP JUMPDEST PUSH1 0x40 MLOAD DUP1 SWAP2 SUB SWAP1 LOG3 POP POP POP POP POP POP POP POP JUMP JUMPDEST PUSH1 0x0 PUSH1 0x6 DUP1 SLOAD SWAP1 POP SWAP1 POP SWAP1 JUMP JUMPDEST PUSH1 0x6 DUP2 DUP2 SLOAD DUP2 LT PUSH2 0xBE6 JUMPI PUSH1 0x0 DUP1 REVERT JUMPDEST SWAP1 PUSH1 0x0 MSTORE PUSH1 0x20 PUSH1 0x0 KECCAK256 SWAP1 PUSH1 0x8 MUL ADD PUSH1 0x0 SWAP2 POP SWAP1 POP DUP1 PUSH1 0x0 ADD PUSH1 0x0 SWAP1 SLOAD SWAP1 PUSH2 0x100 EXP SWAP1 DIV PUSH20 0xFFFFFFFFFFFFFFFFFFFFFFFFFFFFFFFFFFFFFFFF AND SWAP1 DUP1 PUSH1 0x1 ADD SLOAD SWAP1 DUP1 PUSH1 0x2 ADD SLOAD SWAP1 DUP1 PUSH1 0x3 ADD SLOAD SWAP1 DUP1 PUSH1 0x4 ADD PUSH1 0x0 SWAP1 SLOAD SWAP1 PUSH2 0x100 EXP SWAP1 DIV PUSH20 0xFFFFFFFFFFFFFFFFFFFFFFFFFFFFFFFFFFFFFFFF AND SWAP1 DUP1 PUSH1 0x5 ADD PUSH1 0x0 SWAP1 SLOAD SWAP1 PUSH2 0x100 EXP SWAP1 DIV PUSH20 0xFFFFFFFFFFFFFFFFFFFFFFFFFFFFFFFFFFFFFFFF AND SWAP1 DUP1 PUSH1 0x6 ADD SLOAD SWAP1 DUP1 PUSH1 0x7 ADD SLOAD SWAP1 POP DUP9 JUMP JUMPDEST PUSH1 0x8 SLOAD DUP2 JUMP JUMPDEST PUSH1 0x0 DUP1 PUSH1 0x6 DUP5 DUP2 SLOAD DUP2 LT PUSH2 0xCAB JUMPI PUSH2 0xCAA PUSH2 0x3454 JUMP JUMPDEST JUMPDEST SWAP1 PUSH1 0x0 MSTORE PUSH1 0x20 PUSH1 0x0 KECCAK256 SWAP1 PUSH1 0x8 MUL ADD SWAP1 POP PUSH1 0x0 PUSH1 0x7 PUSH1 0x0 DUP7 DUP2 MSTORE PUSH1 0x20 ADD SWAP1 DUP2 MSTORE PUSH1 0x20 ADD PUSH1 0x0 KECCAK256 PUSH1 0x0 DUP6 PUSH20 0xFFFFFFFFFFFFFFFFFFFFFFFFFFFFFFFFFFFFFFFF AND PUSH20 0xFFFFFFFFFFFFFFFFFFFFFFFFFFFFFFFFFFFFFFFF AND DUP2 MSTORE PUSH1 0x20 ADD SWAP1 DUP2 MSTORE PUSH1 0x20 ADD PUSH1 0x0 KECCAK256 SWAP1 POP PUSH1 0x0 DUP3 PUSH1 0x3 ADD SLOAD SWAP1 POP PUSH1 0x0 PUSH1 0xA PUSH1 0x0 DUP9 DUP2 MSTORE PUSH1 0x20 ADD SWAP1 DUP2 MSTORE PUSH1 0x20 ADD PUSH1 0x0 KECCAK256 SLOAD SWAP1 POP DUP4 PUSH1 0x2 ADD SLOAD NUMBER GT DUP1 ISZERO PUSH2 0xD44 JUMPI POP PUSH1 0x0 DUP2 EQ ISZERO JUMPDEST ISZERO PUSH2 0xDDF JUMPI PUSH1 0x0 PUSH2 0xD59 DUP6 PUSH1 0x2 ADD SLOAD NUMBER PUSH2 0x1BBD JUMP JUMPDEST SWAP1 POP PUSH1 0x0 PUSH2 0xD9C PUSH1 0x8 SLOAD PUSH2 0xD8E DUP9 PUSH1 0x1 ADD SLOAD PUSH2 0xD80 PUSH1 0x3 SLOAD DUP8 PUSH2 0x24D9 SWAP1 SWAP2 SWAP1 PUSH4 0xFFFFFFFF AND JUMP JUMPDEST PUSH2 0x24D9 SWAP1 SWAP2 SWAP1 PUSH4 0xFFFFFFFF AND JUMP JUMPDEST PUSH2 0x2553 SWAP1 SWAP2 SWAP1 PUSH4 0xFFFFFFFF AND JUMP JUMPDEST SWAP1 POP PUSH2 0xDDA PUSH2 0xDCB DUP5 PUSH2 0xDBD PUSH5 0xE8D4A51000 DUP6 PUSH2 0x24D9 SWAP1 SWAP2 SWAP1 PUSH4 0xFFFFFFFF AND JUMP JUMPDEST PUSH2 0x2553 SWAP1 SWAP2 SWAP1 PUSH4 0xFFFFFFFF AND JUMP JUMPDEST DUP6 PUSH2 0x2865 SWAP1 SWAP2 SWAP1 PUSH4 0xFFFFFFFF AND JUMP JUMPDEST SWAP4 POP POP POP JUMPDEST PUSH2 0xE23 DUP4 PUSH1 0x1 ADD SLOAD PUSH2 0xE15 PUSH5 0xE8D4A51000 PUSH2 0xE07 DUP7 DUP9 PUSH1 0x0 ADD SLOAD PUSH2 0x24D9 SWAP1 SWAP2 SWAP1 PUSH4 0xFFFFFFFF AND JUMP JUMPDEST PUSH2 0x2553 SWAP1 SWAP2 SWAP1 PUSH4 0xFFFFFFFF AND JUMP JUMPDEST PUSH2 0x259D SWAP1 SWAP2 SWAP1 PUSH4 0xFFFFFFFF AND JUMP JUMPDEST SWAP5 POP POP POP POP POP SWAP3 SWAP2 POP POP JUMP JUMPDEST PUSH2 0xE37 PUSH2 0x2949 JUMP JUMPDEST PUSH20 0xFFFFFFFFFFFFFFFFFFFFFFFFFFFFFFFFFFFFFFFF AND PUSH2 0xE55 PUSH2 0x1B94 JUMP JUMPDEST PUSH20 0xFFFFFFFFFFFFFFFFFFFFFFFFFFFFFFFFFFFFFFFF AND EQ PUSH2 0xEAB JUMPI PUSH1 0x40 MLOAD PUSH32 0x8C379A000000000000000000000000000000000000000000000000000000000 DUP2 MSTORE PUSH1 0x4 ADD PUSH2 0xEA2 SWAP1 PUSH2 0x354B JUMP JUMPDEST PUSH1 0x40 MLOAD DUP1 SWAP2 SUB SWAP1 REVERT JUMPDEST DUP1 PUSH1 0x5 PUSH1 0x0 PUSH2 0x100 EXP DUP2 SLOAD DUP2 PUSH20 0xFFFFFFFFFFFFFFFFFFFFFFFFFFFFFFFFFFFFFFFF MUL NOT AND SWAP1 DUP4 PUSH20 0xFFFFFFFFFFFFFFFFFFFFFFFFFFFFFFFFFFFFFFFF AND MUL OR SWAP1 SSTORE POP POP JUMP JUMPDEST PUSH1 0x0 PUSH20 0xFFFFFFFFFFFFFFFFFFFFFFFFFFFFFFFFFFFFFFFF AND PUSH1 0x5 PUSH1 0x0 SWAP1 SLOAD SWAP1 PUSH2 0x100 EXP SWAP1 DIV PUSH20 0xFFFFFFFFFFFFFFFFFFFFFFFFFFFFFFFFFFFFFFFF AND PUSH20 0xFFFFFFFFFFFFFFFFFFFFFFFFFFFFFFFFFFFFFFFF AND SUB PUSH2 0xF80 JUMPI PUSH1 0x40 MLOAD PUSH32 0x8C379A000000000000000000000000000000000000000000000000000000000 DUP2 MSTORE PUSH1 0x4 ADD PUSH2 0xF77 SWAP1 PUSH2 0x35B7 JUMP JUMPDEST PUSH1 0x40 MLOAD DUP1 SWAP2 SUB SWAP1 REVERT JUMPDEST PUSH1 0x0 PUSH1 0x6 DUP3 DUP2 SLOAD DUP2 LT PUSH2 0xF96 JUMPI PUSH2 0xF95 PUSH2 0x3454 JUMP JUMPDEST JUMPDEST SWAP1 PUSH1 0x0 MSTORE PUSH1 0x20 PUSH1 0x0 KECCAK256 SWAP1 PUSH1 0x8 MUL ADD SWAP1 POP PUSH1 0x0 DUP2 PUSH1 0x0 ADD PUSH1 0x0 SWAP1 SLOAD SWAP1 PUSH2 0x100 EXP SWAP1 DIV PUSH20 0xFFFFFFFFFFFFFFFFFFFFFFFFFFFFFFFFFFFFFFFF AND SWAP1 POP PUSH1 0x0 PUSH1 0xA PUSH1 0x0 DUP6 DUP2 MSTORE PUSH1 0x20 ADD SWAP1 DUP2 MSTORE PUSH1 0x20 ADD PUSH1 0x0 KECCAK256 SLOAD SWAP1 POP PUSH2 0x1034 PUSH1 0x5 PUSH1 0x0 SWAP1 SLOAD SWAP1 PUSH2 0x100 EXP SWAP1 DIV PUSH20 0xFFFFFFFFFFFFFFFFFFFFFFFFFFFFFFFFFFFFFFFF AND DUP3 DUP5 PUSH20 0xFFFFFFFFFFFFFFFFFFFFFFFFFFFFFFFFFFFFFFFF AND PUSH2 0x2951 SWAP1 SWAP3 SWAP2 SWAP1 PUSH4 0xFFFFFFFF AND JUMP JUMPDEST PUSH1 0x0 PUSH1 0x5 PUSH1 0x0 SWAP1 SLOAD SWAP1 PUSH2 0x100 EXP SWAP1 DIV PUSH20 0xFFFFFFFFFFFFFFFFFFFFFFFFFFFFFFFFFFFFFFFF AND PUSH20 0xFFFFFFFFFFFFFFFFFFFFFFFFFFFFFFFFFFFFFFFF AND PUSH4 0xCE5494BB DUP5 PUSH1 0x40 MLOAD DUP3 PUSH4 0xFFFFFFFF AND PUSH1 0xE0 SHL DUP2 MSTORE PUSH1 0x4 ADD PUSH2 0x1091 SWAP2 SWAP1 PUSH2 0x340C JUMP JUMPDEST PUSH1 0x20 PUSH1 0x40 MLOAD DUP1 DUP4 SUB DUP2 PUSH1 0x0 DUP8 GAS CALL ISZERO DUP1 ISZERO PUSH2 0x10B0 JUMPI RETURNDATASIZE PUSH1 0x0 DUP1 RETURNDATACOPY RETURNDATASIZE PUSH1 0x0 REVERT JUMPDEST POP POP POP POP PUSH1 0x40 MLOAD RETURNDATASIZE PUSH1 0x1F NOT PUSH1 0x1F DUP3 ADD AND DUP3 ADD DUP1 PUSH1 0x40 MSTORE POP DUP2 ADD SWAP1 PUSH2 0x10D4 SWAP2 SWAP1 PUSH2 0x35EC JUMP JUMPDEST SWAP1 POP DUP1 PUSH20 0xFFFFFFFFFFFFFFFFFFFFFFFFFFFFFFFFFFFFFFFF AND PUSH4 0x70A08231 ADDRESS PUSH1 0x40 MLOAD DUP3 PUSH4 0xFFFFFFFF AND PUSH1 0xE0 SHL DUP2 MSTORE PUSH1 0x4 ADD PUSH2 0x110F SWAP2 SWAP1 PUSH2 0x3388 JUMP JUMPDEST PUSH1 0x20 PUSH1 0x40 MLOAD DUP1 DUP4 SUB DUP2 DUP7 GAS STATICCALL ISZERO DUP1 ISZERO PUSH2 0x112C JUMPI RETURNDATASIZE PUSH1 0x0 DUP1 RETURNDATACOPY RETURNDATASIZE PUSH1 0x0 REVERT JUMPDEST POP POP POP POP PUSH1 0x40 MLOAD RETURNDATASIZE PUSH1 0x1F NOT PUSH1 0x1F DUP3 ADD AND DUP3 ADD DUP1 PUSH1 0x40 MSTORE POP DUP2 ADD SWAP1 PUSH2 0x1150 SWAP2 SWAP1 PUSH2 0x34C1 JUMP JUMPDEST DUP3 EQ PUSH2 0x1191 JUMPI PUSH1 0x40 MLOAD PUSH32 0x8C379A000000000000000000000000000000000000000000000000000000000 DUP2 MSTORE PUSH1 0x4 ADD PUSH2 0x1188 SWAP1 PUSH2 0x3665 JUMP JUMPDEST PUSH1 0x40 MLOAD DUP1 SWAP2 SUB SWAP1 REVERT JUMPDEST DUP1 DUP5 PUSH1 0x0 ADD PUSH1 0x0 PUSH2 0x100 EXP DUP2 SLOAD DUP2 PUSH20 0xFFFFFFFFFFFFFFFFFFFFFFFFFFFFFFFFFFFFFFFF MUL NOT AND SWAP1 DUP4 PUSH20 0xFFFFFFFFFFFFFFFFFFFFFFFFFFFFFFFFFFFFFFFF AND MUL OR SWAP1 SSTORE POP POP POP POP POP POP JUMP JUMPDEST PUSH1 0x9 SLOAD DUP2 JUMP JUMPDEST PUSH1 0x0 PUSH1 0x6 DUP3 DUP2 SLOAD DUP2 LT PUSH2 0x11F7 JUMPI PUSH2 0x11F6 PUSH2 0x3454 JUMP JUMPDEST JUMPDEST SWAP1 PUSH1 0x0 MSTORE PUSH1 0x20 PUSH1 0x0 KECCAK256 SWAP1 PUSH1 0x8 MUL ADD SWAP1 POP DUP1 PUSH1 0x2 ADD SLOAD NUMBER GT PUSH2 0x1218 JUMPI POP PUSH2 0x1394 JUMP JUMPDEST PUSH1 0x0 PUSH1 0xA PUSH1 0x0 DUP5 DUP2 MSTORE PUSH1 0x20 ADD SWAP1 DUP2 MSTORE PUSH1 0x20 ADD PUSH1 0x0 KECCAK256 SLOAD SWAP1 POP PUSH1 0x0 DUP2 GT PUSH2 0x1248 JUMPI NUMBER DUP3 PUSH1 0x2 ADD DUP2 SWAP1 SSTORE POP POP POP PUSH2 0x1394 JUMP JUMPDEST PUSH1 0x0 PUSH2 0x1258 DUP4 PUSH1 0x2 ADD SLOAD NUMBER PUSH2 0x1BBD JUMP JUMPDEST SWAP1 POP PUSH1 0x0 PUSH2 0x129B PUSH1 0x8 SLOAD PUSH2 0x128D DUP7 PUSH1 0x1 ADD SLOAD PUSH2 0x127F PUSH1 0x3 SLOAD DUP8 PUSH2 0x24D9 SWAP1 SWAP2 SWAP1 PUSH4 0xFFFFFFFF AND JUMP JUMPDEST PUSH2 0x24D9 SWAP1 SWAP2 SWAP1 PUSH4 0xFFFFFFFF AND JUMP JUMPDEST PUSH2 0x2553 SWAP1 SWAP2 SWAP1 PUSH4 0xFFFFFFFF AND JUMP JUMPDEST SWAP1 POP PUSH1 0x1 PUSH1 0x0 SWAP1 SLOAD SWAP1 PUSH2 0x100 EXP SWAP1 DIV PUSH20 0xFFFFFFFFFFFFFFFFFFFFFFFFFFFFFFFFFFFFFFFF AND PUSH20 0xFFFFFFFFFFFFFFFFFFFFFFFFFFFFFFFFFFFFFFFF AND PUSH4 0x40C10F19 ADDRESS DUP4 PUSH1 0x40 MLOAD DUP4 PUSH4 0xFFFFFFFF AND PUSH1 0xE0 SHL DUP2 MSTORE PUSH1 0x4 ADD PUSH2 0x12FA SWAP3 SWAP2 SWAP1 PUSH2 0x3685 JUMP JUMPDEST PUSH1 0x20 PUSH1 0x40 MLOAD DUP1 DUP4 SUB DUP2 PUSH1 0x0 DUP8 GAS CALL ISZERO DUP1 ISZERO PUSH2 0x1319 JUMPI RETURNDATASIZE PUSH1 0x0 DUP1 RETURNDATACOPY RETURNDATASIZE PUSH1 0x0 REVERT JUMPDEST POP POP POP POP PUSH1 0x40 MLOAD RETURNDATASIZE PUSH1 0x1F NOT PUSH1 0x1F DUP3 ADD AND DUP3 ADD DUP1 PUSH1 0x40 MSTORE POP DUP2 ADD SWAP1 PUSH2 0x133D SWAP2 SWAP1 PUSH2 0x36C3 JUMP JUMPDEST POP PUSH2 0x137E PUSH2 0x136B DUP5 PUSH2 0x135D PUSH5 0xE8D4A51000 DUP6 PUSH2 0x24D9 SWAP1 SWAP2 SWAP1 PUSH4 0xFFFFFFFF AND JUMP JUMPDEST PUSH2 0x2553 SWAP1 SWAP2 SWAP1 PUSH4 0xFFFFFFFF AND JUMP JUMPDEST DUP6 PUSH1 0x3 ADD SLOAD PUSH2 0x2865 SWAP1 SWAP2 SWAP1 PUSH4 0xFFFFFFFF AND JUMP JUMPDEST DUP5 PUSH1 0x3 ADD DUP2 SWAP1 SSTORE POP NUMBER DUP5 PUSH1 0x2 ADD DUP2 SWAP1 SSTORE POP POP POP POP POP JUMPDEST POP JUMP JUMPDEST PUSH1 0x0 PUSH1 0x6 DUP3 DUP2 SLOAD DUP2 LT PUSH2 0x13AD JUMPI PUSH2 0x13AC PUSH2 0x3454 JUMP JUMPDEST JUMPDEST SWAP1 PUSH1 0x0 MSTORE PUSH1 0x20 PUSH1 0x0 KECCAK256 SWAP1 PUSH1 0x8 MUL ADD SWAP1 POP PUSH1 0x0 PUSH1 0x7 PUSH1 0x0 DUP5 DUP2 MSTORE PUSH1 0x20 ADD SWAP1 DUP2 MSTORE PUSH1 0x20 ADD PUSH1 0x0 KECCAK256 PUSH1 0x0 CALLER PUSH20 0xFFFFFFFFFFFFFFFFFFFFFFFFFFFFFFFFFFFFFFFF AND PUSH20 0xFFFFFFFFFFFFFFFFFFFFFFFFFFFFFFFFFFFFFFFF AND DUP2 MSTORE PUSH1 0x20 ADD SWAP1 DUP2 MSTORE PUSH1 0x20 ADD PUSH1 0x0 KECCAK256 SWAP1 POP PUSH2 0x1464 CALLER DUP3 PUSH1 0x0 ADD SLOAD DUP5 PUSH1 0x0 ADD PUSH1 0x0 SWAP1 SLOAD SWAP1 PUSH2 0x100 EXP SWAP1 DIV PUSH20 0xFFFFFFFFFFFFFFFFFFFFFFFFFFFFFFFFFFFFFFFF AND PUSH20 0xFFFFFFFFFFFFFFFFFFFFFFFFFFFFFFFFFFFFFFFF AND PUSH2 0x28C3 SWAP1 SWAP3 SWAP2 SWAP1 PUSH4 0xFFFFFFFF AND JUMP JUMPDEST DUP3 CALLER PUSH20 0xFFFFFFFFFFFFFFFFFFFFFFFFFFFFFFFFFFFFFFFF AND PUSH32 0xBB757047C2B5F3974FE26B7C10F732E7BCE710B0952A71082702781E62AE0595 DUP4 PUSH1 0x0 ADD SLOAD PUSH1 0x40 MLOAD PUSH2 0x14AF SWAP2 SWAP1 PUSH2 0x2F45 JUMP JUMPDEST PUSH1 0x40 MLOAD DUP1 SWAP2 SUB SWAP1 LOG3 PUSH1 0x0 DUP2 PUSH1 0x0 ADD DUP2 SWAP1 SSTORE POP PUSH1 0x0 DUP2 PUSH1 0x1 ADD DUP2 SWAP1 SSTORE POP POP POP POP JUMP JUMPDEST PUSH2 0x14D8 PUSH2 0x2949 JUMP JUMPDEST PUSH20 0xFFFFFFFFFFFFFFFFFFFFFFFFFFFFFFFFFFFFFFFF AND PUSH2 0x14F6 PUSH2 0x1B94 JUMP JUMPDEST PUSH20 0xFFFFFFFFFFFFFFFFFFFFFFFFFFFFFFFFFFFFFFFF AND EQ PUSH2 0x154C JUMPI PUSH1 0x40 MLOAD PUSH32 0x8C379A000000000000000000000000000000000000000000000000000000000 DUP2 MSTORE PUSH1 0x4 ADD PUSH2 0x1543 SWAP1 PUSH2 0x354B JUMP JUMPDEST PUSH1 0x40 MLOAD DUP1 SWAP2 SUB SWAP1 REVERT JUMPDEST DUP1 PUSH1 0x4 DUP2 SWAP1 SSTORE POP POP JUMP JUMPDEST PUSH2 0x155E PUSH2 0x2949 JUMP JUMPDEST PUSH20 0xFFFFFFFFFFFFFFFFFFFFFFFFFFFFFFFFFFFFFFFF AND PUSH2 0x157C PUSH2 0x1B94 JUMP JUMPDEST PUSH20 0xFFFFFFFFFFFFFFFFFFFFFFFFFFFFFFFFFFFFFFFF AND EQ PUSH2 0x15D2 JUMPI PUSH1 0x40 MLOAD PUSH32 0x8C379A000000000000000000000000000000000000000000000000000000000 DUP2 MSTORE PUSH1 0x4 ADD PUSH2 0x15C9 SWAP1 PUSH2 0x354B JUMP JUMPDEST PUSH1 0x40 MLOAD DUP1 SWAP2 SUB SWAP1 REVERT JUMPDEST DUP1 PUSH1 0x3 DUP2 SWAP1 SSTORE POP POP JUMP JUMPDEST PUSH1 0x0 PUSH1 0x6 DUP1 SLOAD SWAP1 POP SWAP1 POP PUSH1 0x0 JUMPDEST DUP2 DUP2 LT ISZERO PUSH2 0x160B JUMPI PUSH2 0x15FA DUP2 PUSH2 0x11E1 JUMP JUMPDEST DUP1 PUSH2 0x1604 SWAP1 PUSH2 0x371F JUMP JUMPDEST SWAP1 POP PUSH2 0x15E9 JUMP JUMPDEST POP POP JUMP JUMPDEST PUSH2 0x1617 PUSH2 0x2949 JUMP JUMPDEST PUSH20 0xFFFFFFFFFFFFFFFFFFFFFFFFFFFFFFFFFFFFFFFF AND PUSH2 0x1635 PUSH2 0x1B94 JUMP JUMPDEST PUSH20 0xFFFFFFFFFFFFFFFFFFFFFFFFFFFFFFFFFFFFFFFF AND EQ PUSH2 0x168B JUMPI PUSH1 0x40 MLOAD PUSH32 0x8C379A000000000000000000000000000000000000000000000000000000000 DUP2 MSTORE PUSH1 0x4 ADD PUSH2 0x1682 SWAP1 PUSH2 0x354B JUMP JUMPDEST PUSH1 0x40 MLOAD DUP1 SWAP2 SUB SWAP1 REVERT JUMPDEST DUP1 ISZERO PUSH2 0x169A JUMPI PUSH2 0x1699 PUSH2 0x15DC JUMP JUMPDEST JUMPDEST PUSH2 0x16E6 DUP3 PUSH2 0x16D8 PUSH1 0x6 DUP7 DUP2 SLOAD DUP2 LT PUSH2 0x16B5 JUMPI PUSH2 0x16B4 PUSH2 0x3454 JUMP JUMPDEST JUMPDEST SWAP1 PUSH1 0x0 MSTORE PUSH1 0x20 PUSH1 0x0 KECCAK256 SWAP1 PUSH1 0x8 MUL ADD PUSH1 0x1 ADD SLOAD PUSH1 0x8 SLOAD PUSH2 0x259D SWAP1 SWAP2 SWAP1 PUSH4 0xFFFFFFFF AND JUMP JUMPDEST PUSH2 0x2865 SWAP1 SWAP2 SWAP1 PUSH4 0xFFFFFFFF AND JUMP JUMPDEST PUSH1 0x8 DUP2 SWAP1 SSTORE POP DUP2 PUSH1 0x6 DUP5 DUP2 SLOAD DUP2 LT PUSH2 0x1701 JUMPI PUSH2 0x1700 PUSH2 0x3454 JUMP JUMPDEST JUMPDEST SWAP1 PUSH1 0x0 MSTORE PUSH1 0x20 PUSH1 0x0 KECCAK256 SWAP1 PUSH1 0x8 MUL ADD PUSH1 0x1 ADD DUP2 SWAP1 SSTORE POP POP POP POP JUMP JUMPDEST PUSH2 0x1723 PUSH2 0x2949 JUMP JUMPDEST PUSH20 0xFFFFFFFFFFFFFFFFFFFFFFFFFFFFFFFFFFFFFFFF AND PUSH2 0x1741 PUSH2 0x1B94 JUMP JUMPDEST PUSH20 0xFFFFFFFFFFFFFFFFFFFFFFFFFFFFFFFFFFFFFFFF AND EQ PUSH2 0x1797 JUMPI PUSH1 0x40 MLOAD PUSH32 0x8C379A000000000000000000000000000000000000000000000000000000000 DUP2 MSTORE PUSH1 0x4 ADD PUSH2 0x178E SWAP1 PUSH2 0x354B JUMP JUMPDEST PUSH1 0x40 MLOAD DUP1 SWAP2 SUB SWAP1 REVERT JUMPDEST DUP5 ISZERO PUSH2 0x17A6 JUMPI PUSH2 0x17A5 PUSH2 0x15DC JUMP JUMPDEST JUMPDEST PUSH1 0x0 PUSH1 0x9 SLOAD NUMBER GT PUSH2 0x17B9 JUMPI PUSH1 0x9 SLOAD PUSH2 0x17BB JUMP JUMPDEST NUMBER JUMPDEST SWAP1 POP PUSH2 0x17D2 DUP9 PUSH1 0x8 SLOAD PUSH2 0x2865 SWAP1 SWAP2 SWAP1 PUSH4 0xFFFFFFFF AND JUMP JUMPDEST PUSH1 0x8 DUP2 SWAP1 SSTORE POP PUSH1 0x6 PUSH1 0x40 MLOAD DUP1 PUSH2 0x100 ADD PUSH1 0x40 MSTORE DUP1 DUP10 PUSH20 0xFFFFFFFFFFFFFFFFFFFFFFFFFFFFFFFFFFFFFFFF AND DUP2 MSTORE PUSH1 0x20 ADD DUP11 DUP2 MSTORE PUSH1 0x20 ADD DUP4 DUP2 MSTORE PUSH1 0x20 ADD PUSH1 0x0 DUP2 MSTORE PUSH1 0x20 ADD DUP8 PUSH20 0xFFFFFFFFFFFFFFFFFFFFFFFFFFFFFFFFFFFFFFFF AND DUP2 MSTORE PUSH1 0x20 ADD DUP7 PUSH20 0xFFFFFFFFFFFFFFFFFFFFFFFFFFFFFFFFFFFFFFFF AND DUP2 MSTORE PUSH1 0x20 ADD DUP6 DUP2 MSTORE PUSH1 0x20 ADD DUP5 DUP2 MSTORE POP SWAP1 DUP1 PUSH1 0x1 DUP2 SLOAD ADD DUP1 DUP3 SSTORE DUP1 SWAP2 POP POP PUSH1 0x1 SWAP1 SUB SWAP1 PUSH1 0x0 MSTORE PUSH1 0x20 PUSH1 0x0 KECCAK256 SWAP1 PUSH1 0x8 MUL ADD PUSH1 0x0 SWAP1 SWAP2 SWAP1 SWAP2 SWAP1 SWAP2 POP PUSH1 0x0 DUP3 ADD MLOAD DUP2 PUSH1 0x0 ADD PUSH1 0x0 PUSH2 0x100 EXP DUP2 SLOAD DUP2 PUSH20 0xFFFFFFFFFFFFFFFFFFFFFFFFFFFFFFFFFFFFFFFF MUL NOT AND SWAP1 DUP4 PUSH20 0xFFFFFFFFFFFFFFFFFFFFFFFFFFFFFFFFFFFFFFFF AND MUL OR SWAP1 SSTORE POP PUSH1 0x20 DUP3 ADD MLOAD DUP2 PUSH1 0x1 ADD SSTORE PUSH1 0x40 DUP3 ADD MLOAD DUP2 PUSH1 0x2 ADD SSTORE PUSH1 0x60 DUP3 ADD MLOAD DUP2 PUSH1 0x3 ADD SSTORE PUSH1 0x80 DUP3 ADD MLOAD DUP2 PUSH1 0x4 ADD PUSH1 0x0 PUSH2 0x100 EXP DUP2 SLOAD DUP2 PUSH20 0xFFFFFFFFFFFFFFFFFFFFFFFFFFFFFFFFFFFFFFFF MUL NOT AND SWAP1 DUP4 PUSH20 0xFFFFFFFFFFFFFFFFFFFFFFFFFFFFFFFFFFFFFFFF AND MUL OR SWAP1 SSTORE POP PUSH1 0xA0 DUP3 ADD MLOAD DUP2 PUSH1 0x5 ADD PUSH1 0x0 PUSH2 0x100 EXP DUP2 SLOAD DUP2 PUSH20 0xFFFFFFFFFFFFFFFFFFFFFFFFFFFFFFFFFFFFFFFF MUL NOT AND SWAP1 DUP4 PUSH20 0xFFFFFFFFFFFFFFFFFFFFFFFFFFFFFFFFFFFFFFFF AND MUL OR SWAP1 SSTORE POP PUSH1 0xC0 DUP3 ADD MLOAD DUP2 PUSH1 0x6 ADD SSTORE PUSH1 0xE0 DUP3 ADD MLOAD DUP2 PUSH1 0x7 ADD SSTORE POP POP POP POP POP POP POP POP POP POP JUMP JUMPDEST PUSH2 0x199B PUSH2 0x2949 JUMP JUMPDEST PUSH20 0xFFFFFFFFFFFFFFFFFFFFFFFFFFFFFFFFFFFFFFFF AND PUSH2 0x19B9 PUSH2 0x1B94 JUMP JUMPDEST PUSH20 0xFFFFFFFFFFFFFFFFFFFFFFFFFFFFFFFFFFFFFFFF AND EQ PUSH2 0x1A0F JUMPI PUSH1 0x40 MLOAD PUSH32 0x8C379A000000000000000000000000000000000000000000000000000000000 DUP2 MSTORE PUSH1 0x4 ADD PUSH2 0x1A06 SWAP1 PUSH2 0x354B JUMP JUMPDEST PUSH1 0x40 MLOAD DUP1 SWAP2 SUB SWAP1 REVERT JUMPDEST PUSH1 0x0 PUSH1 0x6 DUP3 DUP2 SLOAD DUP2 LT PUSH2 0x1A25 JUMPI PUSH2 0x1A24 PUSH2 0x3454 JUMP JUMPDEST JUMPDEST SWAP1 PUSH1 0x0 MSTORE PUSH1 0x20 PUSH1 0x0 KECCAK256 SWAP1 PUSH1 0x8 MUL ADD SWAP1 POP DUP1 PUSH1 0x4 ADD PUSH1 0x0 SWAP1 SLOAD SWAP1 PUSH2 0x100 EXP SWAP1 DIV PUSH20 0xFFFFFFFFFFFFFFFFFFFFFFFFFFFFFFFFFFFFFFFF AND PUSH20 0xFFFFFFFFFFFFFFFFFFFFFFFFFFFFFFFFFFFFFFFF AND PUSH4 0x5312EA8E DUP4 PUSH1 0x40 MLOAD DUP3 PUSH4 0xFFFFFFFF AND PUSH1 0xE0 SHL DUP2 MSTORE PUSH1 0x4 ADD PUSH2 0x1A92 SWAP2 SWAP1 PUSH2 0x2F45 JUMP JUMPDEST PUSH1 0x0 PUSH1 0x40 MLOAD DUP1 DUP4 SUB DUP2 PUSH1 0x0 DUP8 DUP1 EXTCODESIZE ISZERO DUP1 ISZERO PUSH2 0x1AAC JUMPI PUSH1 0x0 DUP1 REVERT JUMPDEST POP GAS CALL ISZERO DUP1 ISZERO PUSH2 0x1AC0 JUMPI RETURNDATASIZE PUSH1 0x0 DUP1 RETURNDATACOPY RETURNDATASIZE PUSH1 0x0 REVERT JUMPDEST POP POP POP POP POP POP JUMP JUMPDEST PUSH1 0xA PUSH1 0x20 MSTORE DUP1 PUSH1 0x0 MSTORE PUSH1 0x40 PUSH1 0x0 KECCAK256 PUSH1 0x0 SWAP2 POP SWAP1 POP SLOAD DUP2 JUMP JUMPDEST PUSH2 0x1AE8 PUSH2 0x2949 JUMP JUMPDEST PUSH20 0xFFFFFFFFFFFFFFFFFFFFFFFFFFFFFFFFFFFFFFFF AND PUSH2 0x1B06 PUSH2 0x1B94 JUMP JUMPDEST PUSH20 0xFFFFFFFFFFFFFFFFFFFFFFFFFFFFFFFFFFFFFFFF AND EQ PUSH2 0x1B5C JUMPI PUSH1 0x40 MLOAD PUSH32 0x8C379A000000000000000000000000000000000000000000000000000000000 DUP2 MSTORE PUSH1 0x4 ADD PUSH2 0x1B53 SWAP1 PUSH2 0x354B JUMP JUMPDEST PUSH1 0x40 MLOAD DUP1 SWAP2 SUB SWAP1 REVERT JUMPDEST PUSH2 0x1B66 PUSH1 0x0 PUSH2 0x2AA0 JUMP JUMPDEST JUMP JUMPDEST PUSH1 0x5 PUSH1 0x0 SWAP1 SLOAD SWAP1 PUSH2 0x100 EXP SWAP1 DIV PUSH20 0xFFFFFFFFFFFFFFFFFFFFFFFFFFFFFFFFFFFFFFFF AND DUP2 JUMP JUMPDEST PUSH1 0x4 SLOAD DUP2 JUMP JUMPDEST PUSH1 0x0 DUP1 PUSH1 0x0 SWAP1 SLOAD SWAP1 PUSH2 0x100 EXP SWAP1 DIV PUSH20 0xFFFFFFFFFFFFFFFFFFFFFFFFFFFFFFFFFFFFFFFF AND SWAP1 POP SWAP1 JUMP JUMPDEST PUSH1 0x0 PUSH2 0x1BE6 PUSH1 0x4 SLOAD PUSH2 0x1BD8 DUP6 DUP6 PUSH2 0x259D SWAP1 SWAP2 SWAP1 PUSH4 0xFFFFFFFF AND JUMP JUMPDEST PUSH2 0x24D9 SWAP1 SWAP2 SWAP1 PUSH4 0xFFFFFFFF AND JUMP JUMPDEST SWAP1 POP SWAP3 SWAP2 POP POP JUMP JUMPDEST PUSH1 0x7 PUSH1 0x20 MSTORE DUP2 PUSH1 0x0 MSTORE PUSH1 0x40 PUSH1 0x0 KECCAK256 PUSH1 0x20 MSTORE DUP1 PUSH1 0x0 MSTORE PUSH1 0x40 PUSH1 0x0 KECCAK256 PUSH1 0x0 SWAP2 POP SWAP2 POP POP DUP1 PUSH1 0x0 ADD SLOAD SWAP1 DUP1 PUSH1 0x1 ADD SLOAD SWAP1 POP DUP3 JUMP JUMPDEST PUSH1 0x0 PUSH1 0x6 DUP5 DUP2 SLOAD DUP2 LT PUSH2 0x1C35 JUMPI PUSH2 0x1C34 PUSH2 0x3454 JUMP JUMPDEST JUMPDEST SWAP1 PUSH1 0x0 MSTORE PUSH1 0x20 PUSH1 0x0 KECCAK256 SWAP1 PUSH1 0x8 MUL ADD SWAP1 POP PUSH1 0x0 PUSH1 0x7 PUSH1 0x0 DUP7 DUP2 MSTORE PUSH1 0x20 ADD SWAP1 DUP2 MSTORE PUSH1 0x20 ADD PUSH1 0x0 KECCAK256 PUSH1 0x0 CALLER PUSH20 0xFFFFFFFFFFFFFFFFFFFFFFFFFFFFFFFFFFFFFFFF AND PUSH20 0xFFFFFFFFFFFFFFFFFFFFFFFFFFFFFFFFFFFFFFFF AND DUP2 MSTORE PUSH1 0x20 ADD SWAP1 DUP2 MSTORE PUSH1 0x20 ADD PUSH1 0x0 KECCAK256 SWAP1 POP DUP3 DUP2 PUSH1 0x0 ADD SLOAD LT ISZERO PUSH2 0x1CE0 JUMPI PUSH1 0x40 MLOAD PUSH32 0x8C379A000000000000000000000000000000000000000000000000000000000 DUP2 MSTORE PUSH1 0x4 ADD PUSH2 0x1CD7 SWAP1 PUSH2 0x37B3 JUMP JUMPDEST PUSH1 0x40 MLOAD DUP1 SWAP2 SUB SWAP1 REVERT JUMPDEST PUSH2 0x1CE9 DUP6 PUSH2 0x11E1 JUMP JUMPDEST PUSH1 0x0 PUSH2 0x1D33 DUP3 PUSH1 0x1 ADD SLOAD PUSH2 0x1D25 PUSH5 0xE8D4A51000 PUSH2 0x1D17 DUP8 PUSH1 0x3 ADD SLOAD DUP8 PUSH1 0x0 ADD SLOAD PUSH2 0x24D9 SWAP1 SWAP2 SWAP1 PUSH4 0xFFFFFFFF AND JUMP JUMPDEST PUSH2 0x2553 SWAP1 SWAP2 SWAP1 PUSH4 0xFFFFFFFF AND JUMP JUMPDEST PUSH2 0x259D SWAP1 SWAP2 SWAP1 PUSH4 0xFFFFFFFF AND JUMP JUMPDEST SWAP1 POP PUSH1 0x0 DUP2 GT ISZERO PUSH2 0x1D49 JUMPI PUSH2 0x1D48 CALLER DUP3 PUSH2 0x25E7 JUMP JUMPDEST JUMPDEST PUSH2 0x1D60 DUP5 DUP4 PUSH1 0x0 ADD SLOAD PUSH2 0x259D SWAP1 SWAP2 SWAP1 PUSH4 0xFFFFFFFF AND JUMP JUMPDEST DUP3 PUSH1 0x0 ADD DUP2 SWAP1 SSTORE POP PUSH2 0x1D8E DUP5 PUSH1 0xA PUSH1 0x0 DUP10 DUP2 MSTORE PUSH1 0x20 ADD SWAP1 DUP2 MSTORE PUSH1 0x20 ADD PUSH1 0x0 KECCAK256 SLOAD PUSH2 0x259D SWAP1 SWAP2 SWAP1 PUSH4 0xFFFFFFFF AND JUMP JUMPDEST PUSH1 0xA PUSH1 0x0 DUP9 DUP2 MSTORE PUSH1 0x20 ADD SWAP1 DUP2 MSTORE PUSH1 0x20 ADD PUSH1 0x0 KECCAK256 DUP2 SWAP1 SSTORE POP PUSH2 0x1DD7 PUSH5 0xE8D4A51000 PUSH2 0x1DC9 DUP6 PUSH1 0x3 ADD SLOAD DUP6 PUSH1 0x0 ADD SLOAD PUSH2 0x24D9 SWAP1 SWAP2 SWAP1 PUSH4 0xFFFFFFFF AND JUMP JUMPDEST PUSH2 0x2553 SWAP1 SWAP2 SWAP1 PUSH4 0xFFFFFFFF AND JUMP JUMPDEST DUP3 PUSH1 0x1 ADD DUP2 SWAP1 SSTORE POP PUSH1 0x0 DUP4 PUSH1 0x7 ADD SLOAD SUB PUSH2 0x1E7F JUMPI DUP3 PUSH1 0x4 ADD PUSH1 0x0 SWAP1 SLOAD SWAP1 PUSH2 0x100 EXP SWAP1 DIV PUSH20 0xFFFFFFFFFFFFFFFFFFFFFFFFFFFFFFFFFFFFFFFF AND PUSH20 0xFFFFFFFFFFFFFFFFFFFFFFFFFFFFFFFFFFFFFFFF AND PUSH4 0x1058D281 DUP6 PUSH1 0x40 MLOAD DUP3 PUSH4 0xFFFFFFFF AND PUSH1 0xE0 SHL DUP2 MSTORE PUSH1 0x4 ADD PUSH2 0x1E48 SWAP2 SWAP1 PUSH2 0x2F45 JUMP JUMPDEST PUSH1 0x0 PUSH1 0x40 MLOAD DUP1 DUP4 SUB DUP2 PUSH1 0x0 DUP8 DUP1 EXTCODESIZE ISZERO DUP1 ISZERO PUSH2 0x1E62 JUMPI PUSH1 0x0 DUP1 REVERT JUMPDEST POP GAS CALL ISZERO DUP1 ISZERO PUSH2 0x1E76 JUMPI RETURNDATASIZE PUSH1 0x0 DUP1 RETURNDATACOPY RETURNDATASIZE PUSH1 0x0 REVERT JUMPDEST POP POP POP POP PUSH2 0x1F11 JUMP JUMPDEST DUP3 PUSH1 0x4 ADD PUSH1 0x0 SWAP1 SLOAD SWAP1 PUSH2 0x100 EXP SWAP1 DIV PUSH20 0xFFFFFFFFFFFFFFFFFFFFFFFFFFFFFFFFFFFFFFFF AND PUSH20 0xFFFFFFFFFFFFFFFFFFFFFFFFFFFFFFFFFFFFFFFF AND PUSH4 0x441A3E70 DUP7 DUP7 PUSH1 0x40 MLOAD DUP4 PUSH4 0xFFFFFFFF AND PUSH1 0xE0 SHL DUP2 MSTORE PUSH1 0x4 ADD PUSH2 0x1EDE SWAP3 SWAP2 SWAP1 PUSH2 0x33E3 JUMP JUMPDEST PUSH1 0x0 PUSH1 0x40 MLOAD DUP1 DUP4 SUB DUP2 PUSH1 0x0 DUP8 DUP1 EXTCODESIZE ISZERO DUP1 ISZERO PUSH2 0x1EF8 JUMPI PUSH1 0x0 DUP1 REVERT JUMPDEST POP GAS CALL ISZERO DUP1 ISZERO PUSH2 0x1F0C JUMPI RETURNDATASIZE PUSH1 0x0 DUP1 RETURNDATACOPY RETURNDATASIZE PUSH1 0x0 REVERT JUMPDEST POP POP POP POP JUMPDEST PUSH2 0x1F60 CALLER DUP6 DUP6 PUSH1 0x0 ADD PUSH1 0x0 SWAP1 SLOAD SWAP1 PUSH2 0x100 EXP SWAP1 DIV PUSH20 0xFFFFFFFFFFFFFFFFFFFFFFFFFFFFFFFFFFFFFFFF AND PUSH20 0xFFFFFFFFFFFFFFFFFFFFFFFFFFFFFFFFFFFFFFFF AND PUSH2 0x28C3 SWAP1 SWAP3 SWAP2 SWAP1 PUSH4 0xFFFFFFFF AND JUMP JUMPDEST PUSH1 0x0 DUP4 PUSH1 0x5 ADD PUSH1 0x0 SWAP1 SLOAD SWAP1 PUSH2 0x100 EXP SWAP1 DIV PUSH20 0xFFFFFFFFFFFFFFFFFFFFFFFFFFFFFFFFFFFFFFFF AND PUSH20 0xFFFFFFFFFFFFFFFFFFFFFFFFFFFFFFFFFFFFFFFF AND PUSH4 0x70A08231 ADDRESS PUSH1 0x40 MLOAD DUP3 PUSH4 0xFFFFFFFF AND PUSH1 0xE0 SHL DUP2 MSTORE PUSH1 0x4 ADD PUSH2 0x1FBF SWAP2 SWAP1 PUSH2 0x3388 JUMP JUMPDEST PUSH1 0x20 PUSH1 0x40 MLOAD DUP1 DUP4 SUB DUP2 DUP7 GAS STATICCALL ISZERO DUP1 ISZERO PUSH2 0x1FDC JUMPI RETURNDATASIZE PUSH1 0x0 DUP1 RETURNDATACOPY RETURNDATASIZE PUSH1 0x0 REVERT JUMPDEST POP POP POP POP PUSH1 0x40 MLOAD RETURNDATASIZE PUSH1 0x1F NOT PUSH1 0x1F DUP3 ADD AND DUP3 ADD DUP1 PUSH1 0x40 MSTORE POP DUP2 ADD SWAP1 PUSH2 0x2000 SWAP2 SWAP1 PUSH2 0x34C1 JUMP JUMPDEST SWAP1 POP PUSH1 0x0 DUP2 GT ISZERO PUSH2 0x207D JUMPI PUSH2 0x207C PUSH1 0x2 PUSH1 0x0 SWAP1 SLOAD SWAP1 PUSH2 0x100 EXP SWAP1 DIV PUSH20 0xFFFFFFFFFFFFFFFFFFFFFFFFFFFFFFFFFFFFFFFF AND DUP3 DUP7 PUSH1 0x5 ADD PUSH1 0x0 SWAP1 SLOAD SWAP1 PUSH2 0x100 EXP SWAP1 DIV PUSH20 0xFFFFFFFFFFFFFFFFFFFFFFFFFFFFFFFFFFFFFFFF AND PUSH20 0xFFFFFFFFFFFFFFFFFFFFFFFFFFFFFFFFFFFFFFFF AND PUSH2 0x28C3 SWAP1 SWAP3 SWAP2 SWAP1 PUSH4 0xFFFFFFFF AND JUMP JUMPDEST JUMPDEST DUP7 CALLER PUSH20 0xFFFFFFFFFFFFFFFFFFFFFFFFFFFFFFFFFFFFFFFF AND PUSH32 0xF279E6A1F5E320CCA91135676D9CB6E44CA8A08C0B88342BCDB1144F6511B568 DUP8 PUSH1 0x40 MLOAD PUSH2 0x20C4 SWAP2 SWAP1 PUSH2 0x2F45 JUMP JUMPDEST PUSH1 0x40 MLOAD DUP1 SWAP2 SUB SWAP1 LOG3 POP POP POP POP POP POP POP JUMP JUMPDEST PUSH1 0x1 PUSH1 0x0 SWAP1 SLOAD SWAP1 PUSH2 0x100 EXP SWAP1 DIV PUSH20 0xFFFFFFFFFFFFFFFFFFFFFFFFFFFFFFFFFFFFFFFF AND DUP2 JUMP JUMPDEST PUSH1 0x0 DUP1 PUSH1 0x7 PUSH1 0x0 DUP6 DUP2 MSTORE PUSH1 0x20 ADD SWAP1 DUP2 MSTORE PUSH1 0x20 ADD PUSH1 0x0 KECCAK256 PUSH1 0x0 DUP5 PUSH20 0xFFFFFFFFFFFFFFFFFFFFFFFFFFFFFFFFFFFFFFFF AND PUSH20 0xFFFFFFFFFFFFFFFFFFFFFFFFFFFFFFFFFFFFFFFF AND DUP2 MSTORE PUSH1 0x20 ADD SWAP1 DUP2 MSTORE PUSH1 0x20 ADD PUSH1 0x0 KECCAK256 SWAP1 POP DUP1 PUSH1 0x0 ADD SLOAD SWAP2 POP POP SWAP3 SWAP2 POP POP JUMP JUMPDEST PUSH2 0x2166 PUSH2 0x2949 JUMP JUMPDEST PUSH20 0xFFFFFFFFFFFFFFFFFFFFFFFFFFFFFFFFFFFFFFFF AND PUSH2 0x2184 PUSH2 0x1B94 JUMP JUMPDEST PUSH20 0xFFFFFFFFFFFFFFFFFFFFFFFFFFFFFFFFFFFFFFFF AND EQ PUSH2 0x21DA JUMPI PUSH1 0x40 MLOAD PUSH32 0x8C379A000000000000000000000000000000000000000000000000000000000 DUP2 MSTORE PUSH1 0x4 ADD PUSH2 0x21D1 SWAP1 PUSH2 0x354B JUMP JUMPDEST PUSH1 0x40 MLOAD DUP1 SWAP2 SUB SWAP1 REVERT JUMPDEST DUP1 PUSH1 0x2 PUSH1 0x0 PUSH2 0x100 EXP DUP2 SLOAD DUP2 PUSH20 0xFFFFFFFFFFFFFFFFFFFFFFFFFFFFFFFFFFFFFFFF MUL NOT AND SWAP1 DUP4 PUSH20 0xFFFFFFFFFFFFFFFFFFFFFFFFFFFFFFFFFFFFFFFF AND MUL OR SWAP1 SSTORE POP POP JUMP JUMPDEST PUSH1 0x2 PUSH1 0x0 SWAP1 SLOAD SWAP1 PUSH2 0x100 EXP SWAP1 DIV PUSH20 0xFFFFFFFFFFFFFFFFFFFFFFFFFFFFFFFFFFFFFFFF AND DUP2 JUMP JUMPDEST PUSH1 0x0 PUSH1 0x6 DUP3 DUP2 SLOAD DUP2 LT PUSH2 0x225A JUMPI PUSH2 0x2259 PUSH2 0x3454 JUMP JUMPDEST JUMPDEST SWAP1 PUSH1 0x0 MSTORE PUSH1 0x20 PUSH1 0x0 KECCAK256 SWAP1 PUSH1 0x8 MUL ADD SWAP1 POP DUP1 PUSH1 0x0 ADD PUSH1 0x0 SWAP1 SLOAD SWAP1 PUSH2 0x100 EXP SWAP1 DIV PUSH20 0xFFFFFFFFFFFFFFFFFFFFFFFFFFFFFFFFFFFFFFFF AND PUSH20 0xFFFFFFFFFFFFFFFFFFFFFFFFFFFFFFFFFFFFFFFF AND PUSH4 0x95EA7B3 DUP3 PUSH1 0x4 ADD PUSH1 0x0 SWAP1 SLOAD SWAP1 PUSH2 0x100 EXP SWAP1 DIV PUSH20 0xFFFFFFFFFFFFFFFFFFFFFFFFFFFFFFFFFFFFFFFF AND PUSH1 0xB SLOAD PUSH1 0x40 MLOAD DUP4 PUSH4 0xFFFFFFFF AND PUSH1 0xE0 SHL DUP2 MSTORE PUSH1 0x4 ADD PUSH2 0x22EF SWAP3 SWAP2 SWAP1 PUSH2 0x3685 JUMP JUMPDEST PUSH1 0x20 PUSH1 0x40 MLOAD DUP1 DUP4 SUB DUP2 PUSH1 0x0 DUP8 GAS CALL ISZERO DUP1 ISZERO PUSH2 0x230E JUMPI RETURNDATASIZE PUSH1 0x0 DUP1 RETURNDATACOPY RETURNDATASIZE PUSH1 0x0 REVERT JUMPDEST POP POP POP POP PUSH1 0x40 MLOAD RETURNDATASIZE PUSH1 0x1F NOT PUSH1 0x1F DUP3 ADD AND DUP3 ADD DUP1 PUSH1 0x40 MSTORE POP DUP2 ADD SWAP1 PUSH2 0x2332 SWAP2 SWAP1 PUSH2 0x36C3 JUMP JUMPDEST POP DUP1 PUSH1 0x5 ADD PUSH1 0x0 SWAP1 SLOAD SWAP1 PUSH2 0x100 EXP SWAP1 DIV PUSH20 0xFFFFFFFFFFFFFFFFFFFFFFFFFFFFFFFFFFFFFFFF AND PUSH20 0xFFFFFFFFFFFFFFFFFFFFFFFFFFFFFFFFFFFFFFFF AND PUSH4 0x95EA7B3 ADDRESS PUSH1 0xB SLOAD PUSH1 0x40 MLOAD DUP4 PUSH4 0xFFFFFFFF AND PUSH1 0xE0 SHL DUP2 MSTORE PUSH1 0x4 ADD PUSH2 0x2394 SWAP3 SWAP2 SWAP1 PUSH2 0x3685 JUMP JUMPDEST PUSH1 0x20 PUSH1 0x40 MLOAD DUP1 DUP4 SUB DUP2 PUSH1 0x0 DUP8 GAS CALL ISZERO DUP1 ISZERO PUSH2 0x23B3 JUMPI RETURNDATASIZE PUSH1 0x0 DUP1 RETURNDATACOPY RETURNDATASIZE PUSH1 0x0 REVERT JUMPDEST POP POP POP POP PUSH1 0x40 MLOAD RETURNDATASIZE PUSH1 0x1F NOT PUSH1 0x1F DUP3 ADD AND DUP3 ADD DUP1 PUSH1 0x40 MSTORE POP DUP2 ADD SWAP1 PUSH2 0x23D7 SWAP2 SWAP1 PUSH2 0x36C3 JUMP JUMPDEST POP POP POP JUMP JUMPDEST PUSH2 0x23E4 PUSH2 0x2949 JUMP JUMPDEST PUSH20 0xFFFFFFFFFFFFFFFFFFFFFFFFFFFFFFFFFFFFFFFF AND PUSH2 0x2402 PUSH2 0x1B94 JUMP JUMPDEST PUSH20 0xFFFFFFFFFFFFFFFFFFFFFFFFFFFFFFFFFFFFFFFF AND EQ PUSH2 0x2458 JUMPI PUSH1 0x40 MLOAD PUSH32 0x8C379A000000000000000000000000000000000000000000000000000000000 DUP2 MSTORE PUSH1 0x4 ADD PUSH2 0x244F SWAP1 PUSH2 0x354B JUMP JUMPDEST PUSH1 0x40 MLOAD DUP1 SWAP2 SUB SWAP1 REVERT JUMPDEST PUSH1 0x0 PUSH20 0xFFFFFFFFFFFFFFFFFFFFFFFFFFFFFFFFFFFFFFFF AND DUP2 PUSH20 0xFFFFFFFFFFFFFFFFFFFFFFFFFFFFFFFFFFFFFFFF AND SUB PUSH2 0x24C7 JUMPI PUSH1 0x40 MLOAD PUSH32 0x8C379A000000000000000000000000000000000000000000000000000000000 DUP2 MSTORE PUSH1 0x4 ADD PUSH2 0x24BE SWAP1 PUSH2 0x3845 JUMP JUMPDEST PUSH1 0x40 MLOAD DUP1 SWAP2 SUB SWAP1 REVERT JUMPDEST PUSH2 0x24D0 DUP2 PUSH2 0x2AA0 JUMP JUMPDEST POP JUMP JUMPDEST PUSH1 0x3 SLOAD DUP2 JUMP JUMPDEST PUSH1 0x0 DUP1 DUP4 SUB PUSH2 0x24EB JUMPI PUSH1 0x0 SWAP1 POP PUSH2 0x254D JUMP JUMPDEST PUSH1 0x0 DUP3 DUP5 PUSH2 0x24F9 SWAP2 SWAP1 PUSH2 0x3865 JUMP JUMPDEST SWAP1 POP DUP3 DUP5 DUP3 PUSH2 0x2508 SWAP2 SWAP1 PUSH2 0x38EE JUMP JUMPDEST EQ PUSH2 0x2548 JUMPI PUSH1 0x40 MLOAD PUSH32 0x8C379A000000000000000000000000000000000000000000000000000000000 DUP2 MSTORE PUSH1 0x4 ADD PUSH2 0x253F SWAP1 PUSH2 0x3991 JUMP JUMPDEST PUSH1 0x40 MLOAD DUP1 SWAP2 SUB SWAP1 REVERT JUMPDEST DUP1 SWAP2 POP POP JUMPDEST SWAP3 SWAP2 POP POP JUMP JUMPDEST PUSH1 0x0 PUSH2 0x2595 DUP4 DUP4 PUSH1 0x40 MLOAD DUP1 PUSH1 0x40 ADD PUSH1 0x40 MSTORE DUP1 PUSH1 0x1A DUP2 MSTORE PUSH1 0x20 ADD PUSH32 0x536166654D6174683A206469766973696F6E206279207A65726F000000000000 DUP2 MSTORE POP PUSH2 0x2B64 JUMP JUMPDEST SWAP1 POP SWAP3 SWAP2 POP POP JUMP JUMPDEST PUSH1 0x0 PUSH2 0x25DF DUP4 DUP4 PUSH1 0x40 MLOAD DUP1 PUSH1 0x40 ADD PUSH1 0x40 MSTORE DUP1 PUSH1 0x1E DUP2 MSTORE PUSH1 0x20 ADD PUSH32 0x536166654D6174683A207375627472616374696F6E206F766572666C6F770000 DUP2 MSTORE POP PUSH2 0x2BC7 JUMP JUMPDEST SWAP1 POP SWAP3 SWAP2 POP POP JUMP JUMPDEST PUSH1 0x0 PUSH1 0x1 PUSH1 0x0 SWAP1 SLOAD SWAP1 PUSH2 0x100 EXP SWAP1 DIV PUSH20 0xFFFFFFFFFFFFFFFFFFFFFFFFFFFFFFFFFFFFFFFF AND PUSH20 0xFFFFFFFFFFFFFFFFFFFFFFFFFFFFFFFFFFFFFFFF AND PUSH4 0x70A08231 ADDRESS PUSH1 0x40 MLOAD DUP3 PUSH4 0xFFFFFFFF AND PUSH1 0xE0 SHL DUP2 MSTORE PUSH1 0x4 ADD PUSH2 0x2644 SWAP2 SWAP1 PUSH2 0x3388 JUMP JUMPDEST PUSH1 0x20 PUSH1 0x40 MLOAD DUP1 DUP4 SUB DUP2 DUP7 GAS STATICCALL ISZERO DUP1 ISZERO PUSH2 0x2661 JUMPI RETURNDATASIZE PUSH1 0x0 DUP1 RETURNDATACOPY RETURNDATASIZE PUSH1 0x0 REVERT JUMPDEST POP POP POP POP PUSH1 0x40 MLOAD RETURNDATASIZE PUSH1 0x1F NOT PUSH1 0x1F DUP3 ADD AND DUP3 ADD DUP1 PUSH1 0x40 MSTORE POP DUP2 ADD SWAP1 PUSH2 0x2685 SWAP2 SWAP1 PUSH2 0x34C1 JUMP JUMPDEST SWAP1 POP DUP1 DUP3 GT ISZERO PUSH2 0x2735 JUMPI PUSH1 0x1 PUSH1 0x0 SWAP1 SLOAD SWAP1 PUSH2 0x100 EXP SWAP1 DIV PUSH20 0xFFFFFFFFFFFFFFFFFFFFFFFFFFFFFFFFFFFFFFFF AND PUSH20 0xFFFFFFFFFFFFFFFFFFFFFFFFFFFFFFFFFFFFFFFF AND PUSH4 0xA9059CBB DUP5 DUP4 PUSH1 0x40 MLOAD DUP4 PUSH4 0xFFFFFFFF AND PUSH1 0xE0 SHL DUP2 MSTORE PUSH1 0x4 ADD PUSH2 0x26EC SWAP3 SWAP2 SWAP1 PUSH2 0x3685 JUMP JUMPDEST PUSH1 0x20 PUSH1 0x40 MLOAD DUP1 DUP4 SUB DUP2 PUSH1 0x0 DUP8 GAS CALL ISZERO DUP1 ISZERO PUSH2 0x270B JUMPI RETURNDATASIZE PUSH1 0x0 DUP1 RETURNDATACOPY RETURNDATASIZE PUSH1 0x0 REVERT JUMPDEST POP POP POP POP PUSH1 0x40 MLOAD RETURNDATASIZE PUSH1 0x1F NOT PUSH1 0x1F DUP3 ADD AND DUP3 ADD DUP1 PUSH1 0x40 MSTORE POP DUP2 ADD SWAP1 PUSH2 0x272F SWAP2 SWAP1 PUSH2 0x36C3 JUMP JUMPDEST POP PUSH2 0x27D7 JUMP JUMPDEST PUSH1 0x1 PUSH1 0x0 SWAP1 SLOAD SWAP1 PUSH2 0x100 EXP SWAP1 DIV PUSH20 0xFFFFFFFFFFFFFFFFFFFFFFFFFFFFFFFFFFFFFFFF AND PUSH20 0xFFFFFFFFFFFFFFFFFFFFFFFFFFFFFFFFFFFFFFFF AND PUSH4 0xA9059CBB DUP5 DUP5 PUSH1 0x40 MLOAD DUP4 PUSH4 0xFFFFFFFF AND PUSH1 0xE0 SHL DUP2 MSTORE PUSH1 0x4 ADD PUSH2 0x2792 SWAP3 SWAP2 SWAP1 PUSH2 0x3685 JUMP JUMPDEST PUSH1 0x20 PUSH1 0x40 MLOAD DUP1 DUP4 SUB DUP2 PUSH1 0x0 DUP8 GAS CALL ISZERO DUP1 ISZERO PUSH2 0x27B1 JUMPI RETURNDATASIZE PUSH1 0x0 DUP1 RETURNDATACOPY RETURNDATASIZE PUSH1 0x0 REVERT JUMPDEST POP POP POP POP PUSH1 0x40 MLOAD RETURNDATASIZE PUSH1 0x1F NOT PUSH1 0x1F DUP3 ADD AND DUP3 ADD DUP1 PUSH1 0x40 MSTORE POP DUP2 ADD SWAP1 PUSH2 0x27D5 SWAP2 SWAP1 PUSH2 0x36C3 JUMP JUMPDEST POP JUMPDEST POP POP POP JUMP JUMPDEST PUSH2 0x285F DUP5 PUSH4 0x23B872DD PUSH1 0xE0 SHL DUP6 DUP6 DUP6 PUSH1 0x40 MLOAD PUSH1 0x24 ADD PUSH2 0x27FD SWAP4 SWAP3 SWAP2 SWAP1 PUSH2 0x39B1 JUMP JUMPDEST PUSH1 0x40 MLOAD PUSH1 0x20 DUP2 DUP4 SUB SUB DUP2 MSTORE SWAP1 PUSH1 0x40 MSTORE SWAP1 PUSH28 0xFFFFFFFFFFFFFFFFFFFFFFFFFFFFFFFFFFFFFFFFFFFFFFFFFFFFFFFF NOT AND PUSH1 0x20 DUP3 ADD DUP1 MLOAD PUSH28 0xFFFFFFFFFFFFFFFFFFFFFFFFFFFFFFFFFFFFFFFFFFFFFFFFFFFFFFFF DUP4 DUP2 DUP4 AND OR DUP4 MSTORE POP POP POP POP PUSH2 0x2C2B JUMP JUMPDEST POP POP POP POP JUMP JUMPDEST PUSH1 0x0 DUP1 DUP3 DUP5 PUSH2 0x2874 SWAP2 SWAP1 PUSH2 0x39E8 JUMP JUMPDEST SWAP1 POP DUP4 DUP2 LT ISZERO PUSH2 0x28B9 JUMPI PUSH1 0x40 MLOAD PUSH32 0x8C379A000000000000000000000000000000000000000000000000000000000 DUP2 MSTORE PUSH1 0x4 ADD PUSH2 0x28B0 SWAP1 PUSH2 0x3A68 JUMP JUMPDEST PUSH1 0x40 MLOAD DUP1 SWAP2 SUB SWAP1 REVERT JUMPDEST DUP1 SWAP2 POP POP SWAP3 SWAP2 POP POP JUMP JUMPDEST PUSH2 0x2944 DUP4 PUSH4 0xA9059CBB PUSH1 0xE0 SHL DUP5 DUP5 PUSH1 0x40 MLOAD PUSH1 0x24 ADD PUSH2 0x28E2 SWAP3 SWAP2 SWAP1 PUSH2 0x3685 JUMP JUMPDEST PUSH1 0x40 MLOAD PUSH1 0x20 DUP2 DUP4 SUB SUB DUP2 MSTORE SWAP1 PUSH1 0x40 MSTORE SWAP1 PUSH28 0xFFFFFFFFFFFFFFFFFFFFFFFFFFFFFFFFFFFFFFFFFFFFFFFFFFFFFFFF NOT AND PUSH1 0x20 DUP3 ADD DUP1 MLOAD PUSH28 0xFFFFFFFFFFFFFFFFFFFFFFFFFFFFFFFFFFFFFFFFFFFFFFFFFFFFFFFF DUP4 DUP2 DUP4 AND OR DUP4 MSTORE POP POP POP POP PUSH2 0x2C2B JUMP JUMPDEST POP POP POP JUMP JUMPDEST PUSH1 0x0 CALLER SWAP1 POP SWAP1 JUMP JUMPDEST PUSH1 0x0 DUP2 EQ DUP1 PUSH2 0x29DB JUMPI POP PUSH1 0x0 DUP4 PUSH20 0xFFFFFFFFFFFFFFFFFFFFFFFFFFFFFFFFFFFFFFFF AND PUSH4 0xDD62ED3E ADDRESS DUP6 PUSH1 0x40 MLOAD DUP4 PUSH4 0xFFFFFFFF AND PUSH1 0xE0 SHL DUP2 MSTORE PUSH1 0x4 ADD PUSH2 0x2998 SWAP3 SWAP2 SWAP1 PUSH2 0x3483 JUMP JUMPDEST PUSH1 0x20 PUSH1 0x40 MLOAD DUP1 DUP4 SUB DUP2 DUP7 GAS STATICCALL ISZERO DUP1 ISZERO PUSH2 0x29B5 JUMPI RETURNDATASIZE PUSH1 0x0 DUP1 RETURNDATACOPY RETURNDATASIZE PUSH1 0x0 REVERT JUMPDEST POP POP POP POP PUSH1 0x40 MLOAD RETURNDATASIZE PUSH1 0x1F NOT PUSH1 0x1F DUP3 ADD AND DUP3 ADD DUP1 PUSH1 0x40 MSTORE POP DUP2 ADD SWAP1 PUSH2 0x29D9 SWAP2 SWAP1 PUSH2 0x34C1 JUMP JUMPDEST EQ JUMPDEST PUSH2 0x2A1A JUMPI PUSH1 0x40 MLOAD PUSH32 0x8C379A000000000000000000000000000000000000000000000000000000000 DUP2 MSTORE PUSH1 0x4 ADD PUSH2 0x2A11 SWAP1 PUSH2 0x3AFA JUMP JUMPDEST PUSH1 0x40 MLOAD DUP1 SWAP2 SUB SWAP1 REVERT JUMPDEST PUSH2 0x2A9B DUP4 PUSH4 0x95EA7B3 PUSH1 0xE0 SHL DUP5 DUP5 PUSH1 0x40 MLOAD PUSH1 0x24 ADD PUSH2 0x2A39 SWAP3 SWAP2 SWAP1 PUSH2 0x3685 JUMP JUMPDEST PUSH1 0x40 MLOAD PUSH1 0x20 DUP2 DUP4 SUB SUB DUP2 MSTORE SWAP1 PUSH1 0x40 MSTORE SWAP1 PUSH28 0xFFFFFFFFFFFFFFFFFFFFFFFFFFFFFFFFFFFFFFFFFFFFFFFFFFFFFFFF NOT AND PUSH1 0x20 DUP3 ADD DUP1 MLOAD PUSH28 0xFFFFFFFFFFFFFFFFFFFFFFFFFFFFFFFFFFFFFFFFFFFFFFFFFFFFFFFF DUP4 DUP2 DUP4 AND OR DUP4 MSTORE POP POP POP POP PUSH2 0x2C2B JUMP JUMPDEST POP POP POP JUMP JUMPDEST PUSH1 0x0 DUP1 PUSH1 0x0 SWAP1 SLOAD SWAP1 PUSH2 0x100 EXP SWAP1 DIV PUSH20 0xFFFFFFFFFFFFFFFFFFFFFFFFFFFFFFFFFFFFFFFF AND SWAP1 POP DUP2 PUSH1 0x0 DUP1 PUSH2 0x100 EXP DUP2 SLOAD DUP2 PUSH20 0xFFFFFFFFFFFFFFFFFFFFFFFFFFFFFFFFFFFFFFFF MUL NOT AND SWAP1 DUP4 PUSH20 0xFFFFFFFFFFFFFFFFFFFFFFFFFFFFFFFFFFFFFFFF AND MUL OR SWAP1 SSTORE POP DUP2 PUSH20 0xFFFFFFFFFFFFFFFFFFFFFFFFFFFFFFFFFFFFFFFF AND DUP2 PUSH20 0xFFFFFFFFFFFFFFFFFFFFFFFFFFFFFFFFFFFFFFFF AND PUSH32 0x8BE0079C531659141344CD1FD0A4F28419497F9722A3DAAFE3B4186F6B6457E0 PUSH1 0x40 MLOAD PUSH1 0x40 MLOAD DUP1 SWAP2 SUB SWAP1 LOG3 POP POP JUMP JUMPDEST PUSH1 0x0 DUP1 DUP4 GT DUP3 SWAP1 PUSH2 0x2BAB JUMPI PUSH1 0x40 MLOAD PUSH32 0x8C379A000000000000000000000000000000000000000000000000000000000 DUP2 MSTORE PUSH1 0x4 ADD PUSH2 0x2BA2 SWAP2 SWAP1 PUSH2 0x3B99 JUMP JUMPDEST PUSH1 0x40 MLOAD DUP1 SWAP2 SUB SWAP1 REVERT JUMPDEST POP PUSH1 0x0 DUP4 DUP6 PUSH2 0x2BBA SWAP2 SWAP1 PUSH2 0x38EE JUMP JUMPDEST SWAP1 POP DUP1 SWAP2 POP POP SWAP4 SWAP3 POP POP POP JUMP JUMPDEST PUSH1 0x0 DUP4 DUP4 GT ISZERO DUP3 SWAP1 PUSH2 0x2C0F JUMPI PUSH1 0x40 MLOAD PUSH32 0x8C379A000000000000000000000000000000000000000000000000000000000 DUP2 MSTORE PUSH1 0x4 ADD PUSH2 0x2C06 SWAP2 SWAP1 PUSH2 0x3B99 JUMP JUMPDEST PUSH1 0x40 MLOAD DUP1 SWAP2 SUB SWAP1 REVERT JUMPDEST POP PUSH1 0x0 DUP4 DUP6 PUSH2 0x2C1E SWAP2 SWAP1 PUSH2 0x3BBB JUMP JUMPDEST SWAP1 POP DUP1 SWAP2 POP POP SWAP4 SWAP3 POP POP POP JUMP JUMPDEST PUSH1 0x0 PUSH2 0x2C8D DUP3 PUSH1 0x40 MLOAD DUP1 PUSH1 0x40 ADD PUSH1 0x40 MSTORE DUP1 PUSH1 0x20 DUP2 MSTORE PUSH1 0x20 ADD PUSH32 0x5361666545524332303A206C6F772D6C6576656C2063616C6C206661696C6564 DUP2 MSTORE POP DUP6 PUSH20 0xFFFFFFFFFFFFFFFFFFFFFFFFFFFFFFFFFFFFFFFF AND PUSH2 0x2CF2 SWAP1 SWAP3 SWAP2 SWAP1 PUSH4 0xFFFFFFFF AND JUMP JUMPDEST SWAP1 POP PUSH1 0x0 DUP2 MLOAD GT ISZERO PUSH2 0x2CED JUMPI DUP1 DUP1 PUSH1 0x20 ADD SWAP1 MLOAD DUP2 ADD SWAP1 PUSH2 0x2CAD SWAP2 SWAP1 PUSH2 0x36C3 JUMP JUMPDEST PUSH2 0x2CEC JUMPI PUSH1 0x40 MLOAD PUSH32 0x8C379A000000000000000000000000000000000000000000000000000000000 DUP2 MSTORE PUSH1 0x4 ADD PUSH2 0x2CE3 SWAP1 PUSH2 0x3C61 JUMP JUMPDEST PUSH1 0x40 MLOAD DUP1 SWAP2 SUB SWAP1 REVERT JUMPDEST JUMPDEST POP POP POP JUMP JUMPDEST PUSH1 0x60 PUSH2 0x2D01 DUP5 DUP5 PUSH1 0x0 DUP6 PUSH2 0x2D0A JUMP JUMPDEST SWAP1 POP SWAP4 SWAP3 POP POP POP JUMP JUMPDEST PUSH1 0x60 DUP3 SELFBALANCE LT ISZERO PUSH2 0x2D4F JUMPI PUSH1 0x40 MLOAD PUSH32 0x8C379A000000000000000000000000000000000000000000000000000000000 DUP2 MSTORE PUSH1 0x4 ADD PUSH2 0x2D46 SWAP1 PUSH2 0x3CF3 JUMP JUMPDEST PUSH1 0x40 MLOAD DUP1 SWAP2 SUB SWAP1 REVERT JUMPDEST PUSH2 0x2D58 DUP6 PUSH2 0x2E1E JUMP JUMPDEST PUSH2 0x2D97 JUMPI PUSH1 0x40 MLOAD PUSH32 0x8C379A000000000000000000000000000000000000000000000000000000000 DUP2 MSTORE PUSH1 0x4 ADD PUSH2 0x2D8E SWAP1 PUSH2 0x3D5F JUMP JUMPDEST PUSH1 0x40 MLOAD DUP1 SWAP2 SUB SWAP1 REVERT JUMPDEST PUSH1 0x0 DUP1 DUP7 PUSH20 0xFFFFFFFFFFFFFFFFFFFFFFFFFFFFFFFFFFFFFFFF AND DUP6 DUP8 PUSH1 0x40 MLOAD PUSH2 0x2DC0 SWAP2 SWAP1 PUSH2 0x3DC6 JUMP JUMPDEST PUSH1 0x0 PUSH1 0x40 MLOAD DUP1 DUP4 SUB DUP2 DUP6 DUP8 GAS CALL SWAP3 POP POP POP RETURNDATASIZE DUP1 PUSH1 0x0 DUP2 EQ PUSH2 0x2DFD JUMPI PUSH1 0x40 MLOAD SWAP2 POP PUSH1 0x1F NOT PUSH1 0x3F RETURNDATASIZE ADD AND DUP3 ADD PUSH1 0x40 MSTORE RETURNDATASIZE DUP3 MSTORE RETURNDATASIZE PUSH1 0x0 PUSH1 0x20 DUP5 ADD RETURNDATACOPY PUSH2 0x2E02 JUMP JUMPDEST PUSH1 0x60 SWAP2 POP JUMPDEST POP SWAP2 POP SWAP2 POP PUSH2 0x2E12 DUP3 DUP3 DUP7 PUSH2 0x2E41 JUMP JUMPDEST SWAP3 POP POP POP SWAP5 SWAP4 POP POP POP POP JUMP JUMPDEST PUSH1 0x0 DUP1 DUP3 PUSH20 0xFFFFFFFFFFFFFFFFFFFFFFFFFFFFFFFFFFFFFFFF AND EXTCODESIZE GT SWAP1 POP SWAP2 SWAP1 POP JUMP JUMPDEST PUSH1 0x60 DUP4 ISZERO PUSH2 0x2E51 JUMPI DUP3 SWAP1 POP PUSH2 0x2EA1 JUMP JUMPDEST PUSH1 0x0 DUP4 MLOAD GT ISZERO PUSH2 0x2E64 JUMPI DUP3 MLOAD DUP1 DUP5 PUSH1 0x20 ADD REVERT JUMPDEST DUP2 PUSH1 0x40 MLOAD PUSH32 0x8C379A000000000000000000000000000000000000000000000000000000000 DUP2 MSTORE PUSH1 0x4 ADD PUSH2 0x2E98 SWAP2 SWAP1 PUSH2 0x3B99 JUMP JUMPDEST PUSH1 0x40 MLOAD DUP1 SWAP2 SUB SWAP1 REVERT JUMPDEST SWAP4 SWAP3 POP POP POP JUMP JUMPDEST PUSH1 0x0 DUP1 REVERT JUMPDEST PUSH1 0x0 DUP2 SWAP1 POP SWAP2 SWAP1 POP JUMP JUMPDEST PUSH2 0x2EC0 DUP2 PUSH2 0x2EAD JUMP JUMPDEST DUP2 EQ PUSH2 0x2ECB JUMPI PUSH1 0x0 DUP1 REVERT JUMPDEST POP JUMP JUMPDEST PUSH1 0x0 DUP2 CALLDATALOAD SWAP1 POP PUSH2 0x2EDD DUP2 PUSH2 0x2EB7 JUMP JUMPDEST SWAP3 SWAP2 POP POP JUMP JUMPDEST PUSH1 0x0 DUP1 PUSH1 0x0 PUSH1 0x60 DUP5 DUP7 SUB SLT ISZERO PUSH2 0x2EFC JUMPI PUSH2 0x2EFB PUSH2 0x2EA8 JUMP JUMPDEST JUMPDEST PUSH1 0x0 PUSH2 0x2F0A DUP7 DUP3 DUP8 ADD PUSH2 0x2ECE JUMP JUMPDEST SWAP4 POP POP PUSH1 0x20 PUSH2 0x2F1B DUP7 DUP3 DUP8 ADD PUSH2 0x2ECE JUMP JUMPDEST SWAP3 POP POP PUSH1 0x40 PUSH2 0x2F2C DUP7 DUP3 DUP8 ADD PUSH2 0x2ECE JUMP JUMPDEST SWAP2 POP POP SWAP3 POP SWAP3 POP SWAP3 JUMP JUMPDEST PUSH2 0x2F3F DUP2 PUSH2 0x2EAD JUMP JUMPDEST DUP3 MSTORE POP POP JUMP JUMPDEST PUSH1 0x0 PUSH1 0x20 DUP3 ADD SWAP1 POP PUSH2 0x2F5A PUSH1 0x0 DUP4 ADD DUP5 PUSH2 0x2F36 JUMP JUMPDEST SWAP3 SWAP2 POP POP JUMP JUMPDEST PUSH1 0x0 PUSH1 0x20 DUP3 DUP5 SUB SLT ISZERO PUSH2 0x2F76 JUMPI PUSH2 0x2F75 PUSH2 0x2EA8 JUMP JUMPDEST JUMPDEST PUSH1 0x0 PUSH2 0x2F84 DUP5 DUP3 DUP6 ADD PUSH2 0x2ECE JUMP JUMPDEST SWAP2 POP POP SWAP3 SWAP2 POP POP JUMP JUMPDEST PUSH1 0x0 PUSH20 0xFFFFFFFFFFFFFFFFFFFFFFFFFFFFFFFFFFFFFFFF DUP3 AND SWAP1 POP SWAP2 SWAP1 POP JUMP JUMPDEST PUSH1 0x0 DUP2 SWAP1 POP SWAP2 SWAP1 POP JUMP JUMPDEST PUSH1 0x0 PUSH2 0x2FD2 PUSH2 0x2FCD PUSH2 0x2FC8 DUP5 PUSH2 0x2F8D JUMP JUMPDEST PUSH2 0x2FAD JUMP JUMPDEST PUSH2 0x2F8D JUMP JUMPDEST SWAP1 POP SWAP2 SWAP1 POP JUMP JUMPDEST PUSH1 0x0 PUSH2 0x2FE4 DUP3 PUSH2 0x2FB7 JUMP JUMPDEST SWAP1 POP SWAP2 SWAP1 POP JUMP JUMPDEST PUSH1 0x0 PUSH2 0x2FF6 DUP3 PUSH2 0x2FD9 JUMP JUMPDEST SWAP1 POP SWAP2 SWAP1 POP JUMP JUMPDEST PUSH2 0x3006 DUP2 PUSH2 0x2FEB JUMP JUMPDEST DUP3 MSTORE POP POP JUMP JUMPDEST PUSH1 0x0 PUSH2 0x3017 DUP3 PUSH2 0x2FD9 JUMP JUMPDEST SWAP1 POP SWAP2 SWAP1 POP JUMP JUMPDEST PUSH2 0x3027 DUP2 PUSH2 0x300C JUMP JUMPDEST DUP3 MSTORE POP POP JUMP JUMPDEST PUSH1 0x0 PUSH2 0x100 DUP3 ADD SWAP1 POP PUSH2 0x3043 PUSH1 0x0 DUP4 ADD DUP12 PUSH2 0x2FFD JUMP JUMPDEST PUSH2 0x3050 PUSH1 0x20 DUP4 ADD DUP11 PUSH2 0x2F36 JUMP JUMPDEST PUSH2 0x305D PUSH1 0x40 DUP4 ADD DUP10 PUSH2 0x2F36 JUMP JUMPDEST PUSH2 0x306A PUSH1 0x60 DUP4 ADD DUP9 PUSH2 0x2F36 JUMP JUMPDEST PUSH2 0x3077 PUSH1 0x80 DUP4 ADD DUP8 PUSH2 0x301E JUMP JUMPDEST PUSH2 0x3084 PUSH1 0xA0 DUP4 ADD DUP7 PUSH2 0x2FFD JUMP JUMPDEST PUSH2 0x3091 PUSH1 0xC0 DUP4 ADD DUP6 PUSH2 0x2F36 JUMP JUMPDEST PUSH2 0x309E PUSH1 0xE0 DUP4 ADD DUP5 PUSH2 0x2F36 JUMP JUMPDEST SWAP10 SWAP9 POP POP POP POP POP POP POP POP POP JUMP JUMPDEST PUSH1 0x0 PUSH2 0x30B6 DUP3 PUSH2 0x2F8D JUMP JUMPDEST SWAP1 POP SWAP2 SWAP1 POP JUMP JUMPDEST PUSH2 0x30C6 DUP2 PUSH2 0x30AB JUMP JUMPDEST DUP2 EQ PUSH2 0x30D1 JUMPI PUSH1 0x0 DUP1 REVERT JUMPDEST POP JUMP JUMPDEST PUSH1 0x0 DUP2 CALLDATALOAD SWAP1 POP PUSH2 0x30E3 DUP2 PUSH2 0x30BD JUMP JUMPDEST SWAP3 SWAP2 POP POP JUMP JUMPDEST PUSH1 0x0 DUP1 PUSH1 0x40 DUP4 DUP6 SUB SLT ISZERO PUSH2 0x3100 JUMPI PUSH2 0x30FF PUSH2 0x2EA8 JUMP JUMPDEST JUMPDEST PUSH1 0x0 PUSH2 0x310E DUP6 DUP3 DUP7 ADD PUSH2 0x2ECE JUMP JUMPDEST SWAP3 POP POP PUSH1 0x20 PUSH2 0x311F DUP6 DUP3 DUP7 ADD PUSH2 0x30D4 JUMP JUMPDEST SWAP2 POP POP SWAP3 POP SWAP3 SWAP1 POP JUMP JUMPDEST PUSH1 0x0 PUSH2 0x3134 DUP3 PUSH2 0x30AB JUMP JUMPDEST SWAP1 POP SWAP2 SWAP1 POP JUMP JUMPDEST PUSH2 0x3144 DUP2 PUSH2 0x3129 JUMP JUMPDEST DUP2 EQ PUSH2 0x314F JUMPI PUSH1 0x0 DUP1 REVERT JUMPDEST POP JUMP JUMPDEST PUSH1 0x0 DUP2 CALLDATALOAD SWAP1 POP PUSH2 0x3161 DUP2 PUSH2 0x313B JUMP JUMPDEST SWAP3 SWAP2 POP POP JUMP JUMPDEST PUSH1 0x0 PUSH1 0x20 DUP3 DUP5 SUB SLT ISZERO PUSH2 0x317D JUMPI PUSH2 0x317C PUSH2 0x2EA8 JUMP JUMPDEST JUMPDEST PUSH1 0x0 PUSH2 0x318B DUP5 DUP3 DUP6 ADD PUSH2 0x3152 JUMP JUMPDEST SWAP2 POP POP SWAP3 SWAP2 POP POP JUMP JUMPDEST PUSH1 0x0 DUP2 ISZERO ISZERO SWAP1 POP SWAP2 SWAP1 POP JUMP JUMPDEST PUSH2 0x31A9 DUP2 PUSH2 0x3194 JUMP JUMPDEST DUP2 EQ PUSH2 0x31B4 JUMPI PUSH1 0x0 DUP1 REVERT JUMPDEST POP JUMP JUMPDEST PUSH1 0x0 DUP2 CALLDATALOAD SWAP1 POP PUSH2 0x31C6 DUP2 PUSH2 0x31A0 JUMP JUMPDEST SWAP3 SWAP2 POP POP JUMP JUMPDEST PUSH1 0x0 DUP1 PUSH1 0x0 PUSH1 0x60 DUP5 DUP7 SUB SLT ISZERO PUSH2 0x31E5 JUMPI PUSH2 0x31E4 PUSH2 0x2EA8 JUMP JUMPDEST JUMPDEST PUSH1 0x0 PUSH2 0x31F3 DUP7 DUP3 DUP8 ADD PUSH2 0x2ECE JUMP JUMPDEST SWAP4 POP POP PUSH1 0x20 PUSH2 0x3204 DUP7 DUP3 DUP8 ADD PUSH2 0x2ECE JUMP JUMPDEST SWAP3 POP POP PUSH1 0x40 PUSH2 0x3215 DUP7 DUP3 DUP8 ADD PUSH2 0x31B7 JUMP JUMPDEST SWAP2 POP POP SWAP3 POP SWAP3 POP SWAP3 JUMP JUMPDEST PUSH1 0x0 PUSH2 0x322A DUP3 PUSH2 0x30AB JUMP JUMPDEST SWAP1 POP SWAP2 SWAP1 POP JUMP JUMPDEST PUSH2 0x323A DUP2 PUSH2 0x321F JUMP JUMPDEST DUP2 EQ PUSH2 0x3245 JUMPI PUSH1 0x0 DUP1 REVERT JUMPDEST POP JUMP JUMPDEST PUSH1 0x0 DUP2 CALLDATALOAD SWAP1 POP PUSH2 0x3257 DUP2 PUSH2 0x3231 JUMP JUMPDEST SWAP3 SWAP2 POP POP JUMP JUMPDEST PUSH1 0x0 PUSH2 0x3268 DUP3 PUSH2 0x30AB JUMP JUMPDEST SWAP1 POP SWAP2 SWAP1 POP JUMP JUMPDEST PUSH2 0x3278 DUP2 PUSH2 0x325D JUMP JUMPDEST DUP2 EQ PUSH2 0x3283 JUMPI PUSH1 0x0 DUP1 REVERT JUMPDEST POP JUMP JUMPDEST PUSH1 0x0 DUP2 CALLDATALOAD SWAP1 POP PUSH2 0x3295 DUP2 PUSH2 0x326F JUMP JUMPDEST SWAP3 SWAP2 POP POP JUMP JUMPDEST PUSH1 0x0 DUP1 PUSH1 0x0 DUP1 PUSH1 0x0 DUP1 PUSH1 0x0 PUSH1 0xE0 DUP9 DUP11 SUB SLT ISZERO PUSH2 0x32BA JUMPI PUSH2 0x32B9 PUSH2 0x2EA8 JUMP JUMPDEST JUMPDEST PUSH1 0x0 PUSH2 0x32C8 DUP11 DUP3 DUP12 ADD PUSH2 0x2ECE JUMP JUMPDEST SWAP8 POP POP PUSH1 0x20 PUSH2 0x32D9 DUP11 DUP3 DUP12 ADD PUSH2 0x3248 JUMP JUMPDEST SWAP7 POP POP PUSH1 0x40 PUSH2 0x32EA DUP11 DUP3 DUP12 ADD PUSH2 0x31B7 JUMP JUMPDEST SWAP6 POP POP PUSH1 0x60 PUSH2 0x32FB DUP11 DUP3 DUP12 ADD PUSH2 0x3286 JUMP JUMPDEST SWAP5 POP POP PUSH1 0x80 PUSH2 0x330C DUP11 DUP3 DUP12 ADD PUSH2 0x3248 JUMP JUMPDEST SWAP4 POP POP PUSH1 0xA0 PUSH2 0x331D DUP11 DUP3 DUP12 ADD PUSH2 0x2ECE JUMP JUMPDEST SWAP3 POP POP PUSH1 0xC0 PUSH2 0x332E DUP11 DUP3 DUP12 ADD PUSH2 0x2ECE JUMP JUMPDEST SWAP2 POP POP SWAP3 SWAP6 SWAP9 SWAP2 SWAP5 SWAP8 POP SWAP3 SWAP6 POP JUMP JUMPDEST PUSH1 0x0 PUSH2 0x3348 DUP3 PUSH2 0x2FD9 JUMP JUMPDEST SWAP1 POP SWAP2 SWAP1 POP JUMP JUMPDEST PUSH2 0x3358 DUP2 PUSH2 0x333D JUMP JUMPDEST DUP3 MSTORE POP POP JUMP JUMPDEST PUSH1 0x0 PUSH1 0x20 DUP3 ADD SWAP1 POP PUSH2 0x3373 PUSH1 0x0 DUP4 ADD DUP5 PUSH2 0x334F JUMP JUMPDEST SWAP3 SWAP2 POP POP JUMP JUMPDEST PUSH2 0x3382 DUP2 PUSH2 0x30AB JUMP JUMPDEST DUP3 MSTORE POP POP JUMP JUMPDEST PUSH1 0x0 PUSH1 0x20 DUP3 ADD SWAP1 POP PUSH2 0x339D PUSH1 0x0 DUP4 ADD DUP5 PUSH2 0x3379 JUMP JUMPDEST SWAP3 SWAP2 POP POP JUMP JUMPDEST PUSH1 0x0 DUP1 PUSH1 0x40 DUP4 DUP6 SUB SLT ISZERO PUSH2 0x33BA JUMPI PUSH2 0x33B9 PUSH2 0x2EA8 JUMP JUMPDEST JUMPDEST PUSH1 0x0 PUSH2 0x33C8 DUP6 DUP3 DUP7 ADD PUSH2 0x2ECE JUMP JUMPDEST SWAP3 POP POP PUSH1 0x20 PUSH2 0x33D9 DUP6 DUP3 DUP7 ADD PUSH2 0x2ECE JUMP JUMPDEST SWAP2 POP POP SWAP3 POP SWAP3 SWAP1 POP JUMP JUMPDEST PUSH1 0x0 PUSH1 0x40 DUP3 ADD SWAP1 POP PUSH2 0x33F8 PUSH1 0x0 DUP4 ADD DUP6 PUSH2 0x2F36 JUMP JUMPDEST PUSH2 0x3405 PUSH1 0x20 DUP4 ADD DUP5 PUSH2 0x2F36 JUMP JUMPDEST SWAP4 SWAP3 POP POP POP JUMP JUMPDEST PUSH1 0x0 PUSH1 0x20 DUP3 ADD SWAP1 POP PUSH2 0x3421 PUSH1 0x0 DUP4 ADD DUP5 PUSH2 0x2FFD JUMP JUMPDEST SWAP3 SWAP2 POP POP JUMP JUMPDEST PUSH1 0x0 PUSH1 0x20 DUP3 DUP5 SUB SLT ISZERO PUSH2 0x343D JUMPI PUSH2 0x343C PUSH2 0x2EA8 JUMP JUMPDEST JUMPDEST PUSH1 0x0 PUSH2 0x344B DUP5 DUP3 DUP6 ADD PUSH2 0x30D4 JUMP JUMPDEST SWAP2 POP POP SWAP3 SWAP2 POP POP JUMP JUMPDEST PUSH32 0x4E487B7100000000000000000000000000000000000000000000000000000000 PUSH1 0x0 MSTORE PUSH1 0x32 PUSH1 0x4 MSTORE PUSH1 0x24 PUSH1 0x0 REVERT JUMPDEST PUSH1 0x0 PUSH1 0x40 DUP3 ADD SWAP1 POP PUSH2 0x3498 PUSH1 0x0 DUP4 ADD DUP6 PUSH2 0x3379 JUMP JUMPDEST PUSH2 0x34A5 PUSH1 0x20 DUP4 ADD DUP5 PUSH2 0x3379 JUMP JUMPDEST SWAP4 SWAP3 POP POP POP JUMP JUMPDEST PUSH1 0x0 DUP2 MLOAD SWAP1 POP PUSH2 0x34BB DUP2 PUSH2 0x2EB7 JUMP JUMPDEST SWAP3 SWAP2 POP POP JUMP JUMPDEST PUSH1 0x0 PUSH1 0x20 DUP3 DUP5 SUB SLT ISZERO PUSH2 0x34D7 JUMPI PUSH2 0x34D6 PUSH2 0x2EA8 JUMP JUMPDEST JUMPDEST PUSH1 0x0 PUSH2 0x34E5 DUP5 DUP3 DUP6 ADD PUSH2 0x34AC JUMP JUMPDEST SWAP2 POP POP SWAP3 SWAP2 POP POP JUMP JUMPDEST PUSH1 0x0 DUP3 DUP3 MSTORE PUSH1 0x20 DUP3 ADD SWAP1 POP SWAP3 SWAP2 POP POP JUMP JUMPDEST PUSH32 0x4F776E61626C653A2063616C6C6572206973206E6F7420746865206F776E6572 PUSH1 0x0 DUP3 ADD MSTORE POP JUMP JUMPDEST PUSH1 0x0 PUSH2 0x3535 PUSH1 0x20 DUP4 PUSH2 0x34EE JUMP JUMPDEST SWAP2 POP PUSH2 0x3540 DUP3 PUSH2 0x34FF JUMP JUMPDEST PUSH1 0x20 DUP3 ADD SWAP1 POP SWAP2 SWAP1 POP JUMP JUMPDEST PUSH1 0x0 PUSH1 0x20 DUP3 ADD SWAP1 POP DUP2 DUP2 SUB PUSH1 0x0 DUP4 ADD MSTORE PUSH2 0x3564 DUP2 PUSH2 0x3528 JUMP JUMPDEST SWAP1 POP SWAP2 SWAP1 POP JUMP JUMPDEST PUSH32 0x6D6967726174653A206E6F206D69677261746F72000000000000000000000000 PUSH1 0x0 DUP3 ADD MSTORE POP JUMP JUMPDEST PUSH1 0x0 PUSH2 0x35A1 PUSH1 0x14 DUP4 PUSH2 0x34EE JUMP JUMPDEST SWAP2 POP PUSH2 0x35AC DUP3 PUSH2 0x356B JUMP JUMPDEST PUSH1 0x20 DUP3 ADD SWAP1 POP SWAP2 SWAP1 POP JUMP JUMPDEST PUSH1 0x0 PUSH1 0x20 DUP3 ADD SWAP1 POP DUP2 DUP2 SUB PUSH1 0x0 DUP4 ADD MSTORE PUSH2 0x35D0 DUP2 PUSH2 0x3594 JUMP JUMPDEST SWAP1 POP SWAP2 SWAP1 POP JUMP JUMPDEST PUSH1 0x0 DUP2 MLOAD SWAP1 POP PUSH2 0x35E6 DUP2 PUSH2 0x3231 JUMP JUMPDEST SWAP3 SWAP2 POP POP JUMP JUMPDEST PUSH1 0x0 PUSH1 0x20 DUP3 DUP5 SUB SLT ISZERO PUSH2 0x3602 JUMPI PUSH2 0x3601 PUSH2 0x2EA8 JUMP JUMPDEST JUMPDEST PUSH1 0x0 PUSH2 0x3610 DUP5 DUP3 DUP6 ADD PUSH2 0x35D7 JUMP JUMPDEST SWAP2 POP POP SWAP3 SWAP2 POP POP JUMP JUMPDEST PUSH32 0x6D6967726174653A206261640000000000000000000000000000000000000000 PUSH1 0x0 DUP3 ADD MSTORE POP JUMP JUMPDEST PUSH1 0x0 PUSH2 0x364F PUSH1 0xC DUP4 PUSH2 0x34EE JUMP JUMPDEST SWAP2 POP PUSH2 0x365A DUP3 PUSH2 0x3619 JUMP JUMPDEST PUSH1 0x20 DUP3 ADD SWAP1 POP SWAP2 SWAP1 POP JUMP JUMPDEST PUSH1 0x0 PUSH1 0x20 DUP3 ADD SWAP1 POP DUP2 DUP2 SUB PUSH1 0x0 DUP4 ADD MSTORE PUSH2 0x367E DUP2 PUSH2 0x3642 JUMP JUMPDEST SWAP1 POP SWAP2 SWAP1 POP JUMP JUMPDEST PUSH1 0x0 PUSH1 0x40 DUP3 ADD SWAP1 POP PUSH2 0x369A PUSH1 0x0 DUP4 ADD DUP6 PUSH2 0x3379 JUMP JUMPDEST PUSH2 0x36A7 PUSH1 0x20 DUP4 ADD DUP5 PUSH2 0x2F36 JUMP JUMPDEST SWAP4 SWAP3 POP POP POP JUMP JUMPDEST PUSH1 0x0 DUP2 MLOAD SWAP1 POP PUSH2 0x36BD DUP2 PUSH2 0x31A0 JUMP JUMPDEST SWAP3 SWAP2 POP POP JUMP JUMPDEST PUSH1 0x0 PUSH1 0x20 DUP3 DUP5 SUB SLT ISZERO PUSH2 0x36D9 JUMPI PUSH2 0x36D8 PUSH2 0x2EA8 JUMP JUMPDEST JUMPDEST PUSH1 0x0 PUSH2 0x36E7 DUP5 DUP3 DUP6 ADD PUSH2 0x36AE JUMP JUMPDEST SWAP2 POP POP SWAP3 SWAP2 POP POP JUMP JUMPDEST PUSH32 0x4E487B7100000000000000000000000000000000000000000000000000000000 PUSH1 0x0 MSTORE PUSH1 0x11 PUSH1 0x4 MSTORE PUSH1 0x24 PUSH1 0x0 REVERT JUMPDEST PUSH1 0x0 PUSH2 0x372A DUP3 PUSH2 0x2EAD JUMP JUMPDEST SWAP2 POP PUSH32 0xFFFFFFFFFFFFFFFFFFFFFFFFFFFFFFFFFFFFFFFFFFFFFFFFFFFFFFFFFFFFFFFF DUP3 SUB PUSH2 0x375C JUMPI PUSH2 0x375B PUSH2 0x36F0 JUMP JUMPDEST JUMPDEST PUSH1 0x1 DUP3 ADD SWAP1 POP SWAP2 SWAP1 POP JUMP JUMPDEST PUSH32 0x77697468647261773A206E6F7420676F6F640000000000000000000000000000 PUSH1 0x0 DUP3 ADD MSTORE POP JUMP JUMPDEST PUSH1 0x0 PUSH2 0x379D PUSH1 0x12 DUP4 PUSH2 0x34EE JUMP JUMPDEST SWAP2 POP PUSH2 0x37A8 DUP3 PUSH2 0x3767 JUMP JUMPDEST PUSH1 0x20 DUP3 ADD SWAP1 POP SWAP2 SWAP1 POP JUMP JUMPDEST PUSH1 0x0 PUSH1 0x20 DUP3 ADD SWAP1 POP DUP2 DUP2 SUB PUSH1 0x0 DUP4 ADD MSTORE PUSH2 0x37CC DUP2 PUSH2 0x3790 JUMP JUMPDEST SWAP1 POP SWAP2 SWAP1 POP JUMP JUMPDEST PUSH32 0x4F776E61626C653A206E6577206F776E657220697320746865207A65726F2061 PUSH1 0x0 DUP3 ADD MSTORE PUSH32 0x6464726573730000000000000000000000000000000000000000000000000000 PUSH1 0x20 DUP3 ADD MSTORE POP JUMP JUMPDEST PUSH1 0x0 PUSH2 0x382F PUSH1 0x26 DUP4 PUSH2 0x34EE JUMP JUMPDEST SWAP2 POP PUSH2 0x383A DUP3 PUSH2 0x37D3 JUMP JUMPDEST PUSH1 0x40 DUP3 ADD SWAP1 POP SWAP2 SWAP1 POP JUMP JUMPDEST PUSH1 0x0 PUSH1 0x20 DUP3 ADD SWAP1 POP DUP2 DUP2 SUB PUSH1 0x0 DUP4 ADD MSTORE PUSH2 0x385E DUP2 PUSH2 0x3822 JUMP JUMPDEST SWAP1 POP SWAP2 SWAP1 POP JUMP JUMPDEST PUSH1 0x0 PUSH2 0x3870 DUP3 PUSH2 0x2EAD JUMP JUMPDEST SWAP2 POP PUSH2 0x387B DUP4 PUSH2 0x2EAD JUMP JUMPDEST SWAP3 POP DUP2 PUSH32 0xFFFFFFFFFFFFFFFFFFFFFFFFFFFFFFFFFFFFFFFFFFFFFFFFFFFFFFFFFFFFFFFF DIV DUP4 GT DUP3 ISZERO ISZERO AND ISZERO PUSH2 0x38B4 JUMPI PUSH2 0x38B3 PUSH2 0x36F0 JUMP JUMPDEST JUMPDEST DUP3 DUP3 MUL SWAP1 POP SWAP3 SWAP2 POP POP JUMP JUMPDEST PUSH32 0x4E487B7100000000000000000000000000000000000000000000000000000000 PUSH1 0x0 MSTORE PUSH1 0x12 PUSH1 0x4 MSTORE PUSH1 0x24 PUSH1 0x0 REVERT JUMPDEST PUSH1 0x0 PUSH2 0x38F9 DUP3 PUSH2 0x2EAD JUMP JUMPDEST SWAP2 POP PUSH2 0x3904 DUP4 PUSH2 0x2EAD JUMP JUMPDEST SWAP3 POP DUP3 PUSH2 0x3914 JUMPI PUSH2 0x3913 PUSH2 0x38BF JUMP JUMPDEST JUMPDEST DUP3 DUP3 DIV SWAP1 POP SWAP3 SWAP2 POP POP JUMP JUMPDEST PUSH32 0x536166654D6174683A206D756C7469706C69636174696F6E206F766572666C6F PUSH1 0x0 DUP3 ADD MSTORE PUSH32 0x7700000000000000000000000000000000000000000000000000000000000000 PUSH1 0x20 DUP3 ADD MSTORE POP JUMP JUMPDEST PUSH1 0x0 PUSH2 0x397B PUSH1 0x21 DUP4 PUSH2 0x34EE JUMP JUMPDEST SWAP2 POP PUSH2 0x3986 DUP3 PUSH2 0x391F JUMP JUMPDEST PUSH1 0x40 DUP3 ADD SWAP1 POP SWAP2 SWAP1 POP JUMP JUMPDEST PUSH1 0x0 PUSH1 0x20 DUP3 ADD SWAP1 POP DUP2 DUP2 SUB PUSH1 0x0 DUP4 ADD MSTORE PUSH2 0x39AA DUP2 PUSH2 0x396E JUMP JUMPDEST SWAP1 POP SWAP2 SWAP1 POP JUMP JUMPDEST PUSH1 0x0 PUSH1 0x60 DUP3 ADD SWAP1 POP PUSH2 0x39C6 PUSH1 0x0 DUP4 ADD DUP7 PUSH2 0x3379 JUMP JUMPDEST PUSH2 0x39D3 PUSH1 0x20 DUP4 ADD DUP6 PUSH2 0x3379 JUMP JUMPDEST PUSH2 0x39E0 PUSH1 0x40 DUP4 ADD DUP5 PUSH2 0x2F36 JUMP JUMPDEST SWAP5 SWAP4 POP POP POP POP JUMP JUMPDEST PUSH1 0x0 PUSH2 0x39F3 DUP3 PUSH2 0x2EAD JUMP JUMPDEST SWAP2 POP PUSH2 0x39FE DUP4 PUSH2 0x2EAD JUMP JUMPDEST SWAP3 POP DUP3 DUP3 ADD SWAP1 POP DUP1 DUP3 GT ISZERO PUSH2 0x3A16 JUMPI PUSH2 0x3A15 PUSH2 0x36F0 JUMP JUMPDEST JUMPDEST SWAP3 SWAP2 POP POP JUMP JUMPDEST PUSH32 0x536166654D6174683A206164646974696F6E206F766572666C6F770000000000 PUSH1 0x0 DUP3 ADD MSTORE POP JUMP JUMPDEST PUSH1 0x0 PUSH2 0x3A52 PUSH1 0x1B DUP4 PUSH2 0x34EE JUMP JUMPDEST SWAP2 POP PUSH2 0x3A5D DUP3 PUSH2 0x3A1C JUMP JUMPDEST PUSH1 0x20 DUP3 ADD SWAP1 POP SWAP2 SWAP1 POP JUMP JUMPDEST PUSH1 0x0 PUSH1 0x20 DUP3 ADD SWAP1 POP DUP2 DUP2 SUB PUSH1 0x0 DUP4 ADD MSTORE PUSH2 0x3A81 DUP2 PUSH2 0x3A45 JUMP JUMPDEST SWAP1 POP SWAP2 SWAP1 POP JUMP JUMPDEST PUSH32 0x5361666545524332303A20617070726F76652066726F6D206E6F6E2D7A65726F PUSH1 0x0 DUP3 ADD MSTORE PUSH32 0x20746F206E6F6E2D7A65726F20616C6C6F77616E636500000000000000000000 PUSH1 0x20 DUP3 ADD MSTORE POP JUMP JUMPDEST PUSH1 0x0 PUSH2 0x3AE4 PUSH1 0x36 DUP4 PUSH2 0x34EE JUMP JUMPDEST SWAP2 POP PUSH2 0x3AEF DUP3 PUSH2 0x3A88 JUMP JUMPDEST PUSH1 0x40 DUP3 ADD SWAP1 POP SWAP2 SWAP1 POP JUMP JUMPDEST PUSH1 0x0 PUSH1 0x20 DUP3 ADD SWAP1 POP DUP2 DUP2 SUB PUSH1 0x0 DUP4 ADD MSTORE PUSH2 0x3B13 DUP2 PUSH2 0x3AD7 JUMP JUMPDEST SWAP1 POP SWAP2 SWAP1 POP JUMP JUMPDEST PUSH1 0x0 DUP2 MLOAD SWAP1 POP SWAP2 SWAP1 POP JUMP JUMPDEST PUSH1 0x0 JUMPDEST DUP4 DUP2 LT ISZERO PUSH2 0x3B43 JUMPI DUP1 DUP3 ADD MLOAD DUP2 DUP5 ADD MSTORE PUSH1 0x20 DUP2 ADD SWAP1 POP PUSH2 0x3B28 JUMP JUMPDEST PUSH1 0x0 DUP5 DUP5 ADD MSTORE POP POP POP POP JUMP JUMPDEST PUSH1 0x0 PUSH1 0x1F NOT PUSH1 0x1F DUP4 ADD AND SWAP1 POP SWAP2 SWAP1 POP JUMP JUMPDEST PUSH1 0x0 PUSH2 0x3B6B DUP3 PUSH2 0x3B1A JUMP JUMPDEST PUSH2 0x3B75 DUP2 DUP6 PUSH2 0x34EE JUMP JUMPDEST SWAP4 POP PUSH2 0x3B85 DUP2 DUP6 PUSH1 0x20 DUP7 ADD PUSH2 0x3B25 JUMP JUMPDEST PUSH2 0x3B8E DUP2 PUSH2 0x3B4F JUMP JUMPDEST DUP5 ADD SWAP2 POP POP SWAP3 SWAP2 POP POP JUMP JUMPDEST PUSH1 0x0 PUSH1 0x20 DUP3 ADD SWAP1 POP DUP2 DUP2 SUB PUSH1 0x0 DUP4 ADD MSTORE PUSH2 0x3BB3 DUP2 DUP5 PUSH2 0x3B60 JUMP JUMPDEST SWAP1 POP SWAP3 SWAP2 POP POP JUMP JUMPDEST PUSH1 0x0 PUSH2 0x3BC6 DUP3 PUSH2 0x2EAD JUMP JUMPDEST SWAP2 POP PUSH2 0x3BD1 DUP4 PUSH2 0x2EAD JUMP JUMPDEST SWAP3 POP DUP3 DUP3 SUB SWAP1 POP DUP2 DUP2 GT ISZERO PUSH2 0x3BE9 JUMPI PUSH2 0x3BE8 PUSH2 0x36F0 JUMP JUMPDEST JUMPDEST SWAP3 SWAP2 POP POP JUMP JUMPDEST PUSH32 0x5361666545524332303A204552433230206F7065726174696F6E20646964206E PUSH1 0x0 DUP3 ADD MSTORE PUSH32 0x6F74207375636365656400000000000000000000000000000000000000000000 PUSH1 0x20 DUP3 ADD MSTORE POP JUMP JUMPDEST PUSH1 0x0 PUSH2 0x3C4B PUSH1 0x2A DUP4 PUSH2 0x34EE JUMP JUMPDEST SWAP2 POP PUSH2 0x3C56 DUP3 PUSH2 0x3BEF JUMP JUMPDEST PUSH1 0x40 DUP3 ADD SWAP1 POP SWAP2 SWAP1 POP JUMP JUMPDEST PUSH1 0x0 PUSH1 0x20 DUP3 ADD SWAP1 POP DUP2 DUP2 SUB PUSH1 0x0 DUP4 ADD MSTORE PUSH2 0x3C7A DUP2 PUSH2 0x3C3E JUMP JUMPDEST SWAP1 POP SWAP2 SWAP1 POP JUMP JUMPDEST PUSH32 0x416464726573733A20696E73756666696369656E742062616C616E636520666F PUSH1 0x0 DUP3 ADD MSTORE PUSH32 0x722063616C6C0000000000000000000000000000000000000000000000000000 PUSH1 0x20 DUP3 ADD MSTORE POP JUMP JUMPDEST PUSH1 0x0 PUSH2 0x3CDD PUSH1 0x26 DUP4 PUSH2 0x34EE JUMP JUMPDEST SWAP2 POP PUSH2 0x3CE8 DUP3 PUSH2 0x3C81 JUMP JUMPDEST PUSH1 0x40 DUP3 ADD SWAP1 POP SWAP2 SWAP1 POP JUMP JUMPDEST PUSH1 0x0 PUSH1 0x20 DUP3 ADD SWAP1 POP DUP2 DUP2 SUB PUSH1 0x0 DUP4 ADD MSTORE PUSH2 0x3D0C DUP2 PUSH2 0x3CD0 JUMP JUMPDEST SWAP1 POP SWAP2 SWAP1 POP JUMP JUMPDEST PUSH32 0x416464726573733A2063616C6C20746F206E6F6E2D636F6E7472616374000000 PUSH1 0x0 DUP3 ADD MSTORE POP JUMP JUMPDEST PUSH1 0x0 PUSH2 0x3D49 PUSH1 0x1D DUP4 PUSH2 0x34EE JUMP JUMPDEST SWAP2 POP PUSH2 0x3D54 DUP3 PUSH2 0x3D13 JUMP JUMPDEST PUSH1 0x20 DUP3 ADD SWAP1 POP SWAP2 SWAP1 POP JUMP JUMPDEST PUSH1 0x0 PUSH1 0x20 DUP3 ADD SWAP1 POP DUP2 DUP2 SUB PUSH1 0x0 DUP4 ADD MSTORE PUSH2 0x3D78 DUP2 PUSH2 0x3D3C JUMP JUMPDEST SWAP1 POP SWAP2 SWAP1 POP JUMP JUMPDEST PUSH1 0x0 DUP2 MLOAD SWAP1 POP SWAP2 SWAP1 POP JUMP JUMPDEST PUSH1 0x0 DUP2 SWAP1 POP SWAP3 SWAP2 POP POP JUMP JUMPDEST PUSH1 0x0 PUSH2 0x3DA0 DUP3 PUSH2 0x3D7F JUMP JUMPDEST PUSH2 0x3DAA DUP2 DUP6 PUSH2 0x3D8A JUMP JUMPDEST SWAP4 POP PUSH2 0x3DBA DUP2 DUP6 PUSH1 0x20 DUP7 ADD PUSH2 0x3B25 JUMP JUMPDEST DUP1 DUP5 ADD SWAP2 POP POP SWAP3 SWAP2 POP POP JUMP JUMPDEST PUSH1 0x0 PUSH2 0x3DD2 DUP3 DUP5 PUSH2 0x3D95 JUMP JUMPDEST SWAP2 POP DUP2 SWAP1 POP SWAP3 SWAP2 POP POP JUMP INVALID LOG2 PUSH5 0x6970667358 0x22 SLT KECCAK256 OR ADD PUSH28 0xCFDDB3A671E5AF26BB4EC7C660DE84C89600A76A81E7499475A78865 0xF PUSH5 0x736F6C6343 STOP ADDMOD LT STOP CALLER "
				},
				"gasEstimates": {
					"creation": {
						"codeDepositCost": "3178200",
						"executionCost": "infinite",
						"totalCost": "infinite"
					},
					"external": {
						"BONUS_MULTIPLIER()": "2474",
						"DDT()": "infinite",
						"DDTPerBlock()": "2539",
						"add(uint256,address,bool,address,address,uint256,uint256)": "infinite",
						"deposit(uint256,uint256,uint256)": "infinite",
						"devaddr()": "2558",
						"emergencyWithdraw(uint256)": "infinite",
						"emergencyWithdrawFromBSW(uint256)": "infinite",
						"enablePool(uint256)": "infinite",
						"getMultiplier(uint256,uint256)": "infinite",
						"getUserBalance(uint256,address)": "infinite",
						"massUpdatePools()": "infinite",
						"migrate(uint256)": "infinite",
						"migrator()": "infinite",
						"owner()": "2589",
						"pendingDDT(uint256,address)": "infinite",
						"poolBalance(uint256)": "infinite",
						"poolInfo(uint256)": "infinite",
						"poolLength()": "2514",
						"renounceOwnership()": "30464",
						"set(uint256,uint256,bool)": "infinite",
						"setDevAddress(address)": "27073",
						"setMigrator(address)": "27095",
						"startBlock()": "2475",
						"totalAllocPoint()": "2475",
						"transferOwnership(address)": "30808",
						"updateDDTPerBlock(uint256)": "24805",
						"updateMultiplier(uint256)": "24872",
						"updatePool(uint256)": "infinite",
						"userInfo(uint256,address)": "infinite",
						"withdraw(uint256,uint256,uint256)": "infinite"
					},
					"internal": {
						"safeDDTTransfer(address,uint256)": "infinite"
					}
				},
				"methodIdentifiers": {
					"BONUS_MULTIPLIER()": "8aa28550",
					"DDT()": "cb3cba55",
					"DDTPerBlock()": "f395db2c",
					"add(uint256,address,bool,address,address,uint256,uint256)": "64944193",
					"deposit(uint256,uint256,uint256)": "00aeef8a",
					"devaddr()": "d49e77cd",
					"emergencyWithdraw(uint256)": "5312ea8e",
					"emergencyWithdrawFromBSW(uint256)": "68382a21",
					"enablePool(uint256)": "eeac3ae8",
					"getMultiplier(uint256,uint256)": "8dbb1e3a",
					"getUserBalance(uint256,address)": "cdfb6cf3",
					"massUpdatePools()": "630b5ba1",
					"migrate(uint256)": "454b0608",
					"migrator()": "7cd07e47",
					"owner()": "8da5cb5b",
					"pendingDDT(uint256,address)": "2080baab",
					"poolBalance(uint256)": "6a6d964e",
					"poolInfo(uint256)": "1526fe27",
					"poolLength()": "081e3eda",
					"renounceOwnership()": "715018a6",
					"set(uint256,uint256,bool)": "64482f79",
					"setDevAddress(address)": "d0d41fe1",
					"setMigrator(address)": "23cf3118",
					"startBlock()": "48cd4cb1",
					"totalAllocPoint()": "17caf6f1",
					"transferOwnership(address)": "f2fde38b",
					"updateDDTPerBlock(uint256)": "612eee43",
					"updateMultiplier(uint256)": "5ffe6146",
					"updatePool(uint256)": "51eb05a6",
					"userInfo(uint256,address)": "93f1a40b",
					"withdraw(uint256,uint256,uint256)": "a41fe49f"
				}
			},
			"storageLayout": {
				"storage": [
					{
						"astId": 820,
						"contract": "contracts/DDTMasterChef.sol:DDTMasterChef",
						"label": "_owner",
						"offset": 0,
						"slot": "0",
						"type": "t_address"
					},
					{
						"astId": 1018,
						"contract": "contracts/DDTMasterChef.sol:DDTMasterChef",
						"label": "DDT",
						"offset": 0,
						"slot": "1",
						"type": "t_contract(IERC20)286"
					},
					{
						"astId": 1020,
						"contract": "contracts/DDTMasterChef.sol:DDTMasterChef",
						"label": "devaddr",
						"offset": 0,
						"slot": "2",
						"type": "t_address"
					},
					{
						"astId": 1022,
						"contract": "contracts/DDTMasterChef.sol:DDTMasterChef",
						"label": "DDTPerBlock",
						"offset": 0,
						"slot": "3",
						"type": "t_uint256"
					},
					{
						"astId": 1025,
						"contract": "contracts/DDTMasterChef.sol:DDTMasterChef",
						"label": "BONUS_MULTIPLIER",
						"offset": 0,
						"slot": "4",
						"type": "t_uint256"
					},
					{
						"astId": 1028,
						"contract": "contracts/DDTMasterChef.sol:DDTMasterChef",
						"label": "migrator",
						"offset": 0,
						"slot": "5",
						"type": "t_contract(IMigratorChef)981"
					},
					{
						"astId": 1032,
						"contract": "contracts/DDTMasterChef.sol:DDTMasterChef",
						"label": "poolInfo",
						"offset": 0,
						"slot": "6",
						"type": "t_array(t_struct(PoolInfo)1015_storage)dyn_storage"
					},
					{
						"astId": 1039,
						"contract": "contracts/DDTMasterChef.sol:DDTMasterChef",
						"label": "userInfo",
						"offset": 0,
						"slot": "7",
						"type": "t_mapping(t_uint256,t_mapping(t_address,t_struct(UserInfo)995_storage))"
					},
					{
						"astId": 1042,
						"contract": "contracts/DDTMasterChef.sol:DDTMasterChef",
						"label": "totalAllocPoint",
						"offset": 0,
						"slot": "8",
						"type": "t_uint256"
					},
					{
						"astId": 1044,
						"contract": "contracts/DDTMasterChef.sol:DDTMasterChef",
						"label": "startBlock",
						"offset": 0,
						"slot": "9",
						"type": "t_uint256"
					},
					{
						"astId": 1048,
						"contract": "contracts/DDTMasterChef.sol:DDTMasterChef",
						"label": "poolBalance",
						"offset": 0,
						"slot": "10",
						"type": "t_mapping(t_uint256,t_uint256)"
					},
					{
						"astId": 1051,
						"contract": "contracts/DDTMasterChef.sol:DDTMasterChef",
						"label": "approveAmount",
						"offset": 0,
						"slot": "11",
						"type": "t_uint256"
					},
					{
						"astId": 1054,
						"contract": "contracts/DDTMasterChef.sol:DDTMasterChef",
						"label": "percent",
						"offset": 0,
						"slot": "12",
						"type": "t_uint256"
					}
				],
				"types": {
					"t_address": {
						"encoding": "inplace",
						"label": "address",
						"numberOfBytes": "20"
					},
					"t_array(t_struct(PoolInfo)1015_storage)dyn_storage": {
						"base": "t_struct(PoolInfo)1015_storage",
						"encoding": "dynamic_array",
						"label": "struct DDTMasterChef.PoolInfo[]",
						"numberOfBytes": "32"
					},
					"t_contract(IERC20)286": {
						"encoding": "inplace",
						"label": "contract IERC20",
						"numberOfBytes": "20"
					},
					"t_contract(IMasterChef)971": {
						"encoding": "inplace",
						"label": "contract IMasterChef",
						"numberOfBytes": "20"
					},
					"t_contract(IMigratorChef)981": {
						"encoding": "inplace",
						"label": "contract IMigratorChef",
						"numberOfBytes": "20"
					},
					"t_mapping(t_address,t_struct(UserInfo)995_storage)": {
						"encoding": "mapping",
						"key": "t_address",
						"label": "mapping(address => struct DDTMasterChef.UserInfo)",
						"numberOfBytes": "32",
						"value": "t_struct(UserInfo)995_storage"
					},
					"t_mapping(t_uint256,t_mapping(t_address,t_struct(UserInfo)995_storage))": {
						"encoding": "mapping",
						"key": "t_uint256",
						"label": "mapping(uint256 => mapping(address => struct DDTMasterChef.UserInfo))",
						"numberOfBytes": "32",
						"value": "t_mapping(t_address,t_struct(UserInfo)995_storage)"
					},
					"t_mapping(t_uint256,t_uint256)": {
						"encoding": "mapping",
						"key": "t_uint256",
						"label": "mapping(uint256 => uint256)",
						"numberOfBytes": "32",
						"value": "t_uint256"
					},
					"t_struct(PoolInfo)1015_storage": {
						"encoding": "inplace",
						"label": "struct DDTMasterChef.PoolInfo",
						"members": [
							{
								"astId": 998,
								"contract": "contracts/DDTMasterChef.sol:DDTMasterChef",
								"label": "lpToken",
								"offset": 0,
								"slot": "0",
								"type": "t_contract(IERC20)286"
							},
							{
								"astId": 1000,
								"contract": "contracts/DDTMasterChef.sol:DDTMasterChef",
								"label": "allocPoint",
								"offset": 0,
								"slot": "1",
								"type": "t_uint256"
							},
							{
								"astId": 1002,
								"contract": "contracts/DDTMasterChef.sol:DDTMasterChef",
								"label": "lastRewardBlock",
								"offset": 0,
								"slot": "2",
								"type": "t_uint256"
							},
							{
								"astId": 1004,
								"contract": "contracts/DDTMasterChef.sol:DDTMasterChef",
								"label": "accDDTPerShare",
								"offset": 0,
								"slot": "3",
								"type": "t_uint256"
							},
							{
								"astId": 1007,
								"contract": "contracts/DDTMasterChef.sol:DDTMasterChef",
								"label": "poolMasterChef",
								"offset": 0,
								"slot": "4",
								"type": "t_contract(IMasterChef)971"
							},
							{
								"astId": 1010,
								"contract": "contracts/DDTMasterChef.sol:DDTMasterChef",
								"label": "rewardToken",
								"offset": 0,
								"slot": "5",
								"type": "t_contract(IERC20)286"
							},
							{
								"astId": 1012,
								"contract": "contracts/DDTMasterChef.sol:DDTMasterChef",
								"label": "fee",
								"offset": 0,
								"slot": "6",
								"type": "t_uint256"
							},
							{
								"astId": 1014,
								"contract": "contracts/DDTMasterChef.sol:DDTMasterChef",
								"label": "method",
								"offset": 0,
								"slot": "7",
								"type": "t_uint256"
							}
						],
						"numberOfBytes": "256"
					},
					"t_struct(UserInfo)995_storage": {
						"encoding": "inplace",
						"label": "struct DDTMasterChef.UserInfo",
						"members": [
							{
								"astId": 992,
								"contract": "contracts/DDTMasterChef.sol:DDTMasterChef",
								"label": "amount",
								"offset": 0,
								"slot": "0",
								"type": "t_uint256"
							},
							{
								"astId": 994,
								"contract": "contracts/DDTMasterChef.sol:DDTMasterChef",
								"label": "rewardDebt",
								"offset": 0,
								"slot": "1",
								"type": "t_uint256"
							}
						],
						"numberOfBytes": "64"
					},
					"t_uint256": {
						"encoding": "inplace",
						"label": "uint256",
						"numberOfBytes": "32"
					}
				}
			},
			"userdoc": {
				"kind": "user",
				"methods": {},
				"version": 1
			}
		}
	}
}