{
	"contracts/NFTStake.sol": {
		"NFTStake": {
			"abi": [
				{
					"inputs": [
						{
							"internalType": "contract IERC20",
							"name": "_DDT",
							"type": "address"
						},
						{
							"internalType": "contract INFTMasterChef",
							"name": "_NFTMasterChef",
							"type": "address"
						},
						{
							"internalType": "address",
							"name": "_devaddr",
							"type": "address"
						},
						{
							"internalType": "uint256",
							"name": "_DDTPerBlock",
							"type": "uint256"
						},
						{
							"internalType": "uint256",
							"name": "_startBlock",
							"type": "uint256"
						}
					],
					"stateMutability": "nonpayable",
					"type": "constructor"
				},
				{
					"anonymous": false,
					"inputs": [
						{
							"indexed": true,
							"internalType": "address",
							"name": "user",
							"type": "address"
						},
						{
							"indexed": true,
							"internalType": "uint256",
							"name": "pid",
							"type": "uint256"
						},
						{
							"indexed": false,
							"internalType": "uint256",
							"name": "amount",
							"type": "uint256"
						}
					],
					"name": "Deposit",
					"type": "event"
				},
				{
					"anonymous": false,
					"inputs": [
						{
							"indexed": true,
							"internalType": "address",
							"name": "user",
							"type": "address"
						},
						{
							"indexed": true,
							"internalType": "uint256",
							"name": "pid",
							"type": "uint256"
						},
						{
							"indexed": false,
							"internalType": "uint256",
							"name": "amount",
							"type": "uint256"
						}
					],
					"name": "EmergencyWithdraw",
					"type": "event"
				},
				{
					"anonymous": false,
					"inputs": [
						{
							"indexed": true,
							"internalType": "address",
							"name": "previousOwner",
							"type": "address"
						},
						{
							"indexed": true,
							"internalType": "address",
							"name": "newOwner",
							"type": "address"
						}
					],
					"name": "OwnershipTransferred",
					"type": "event"
				},
				{
					"anonymous": false,
					"inputs": [
						{
							"indexed": true,
							"internalType": "address",
							"name": "user",
							"type": "address"
						},
						{
							"indexed": true,
							"internalType": "uint256",
							"name": "pid",
							"type": "uint256"
						},
						{
							"indexed": false,
							"internalType": "uint256",
							"name": "amount",
							"type": "uint256"
						}
					],
					"name": "Withdraw",
					"type": "event"
				},
				{
					"inputs": [],
					"name": "BONUS_MULTIPLIER",
					"outputs": [
						{
							"internalType": "uint256",
							"name": "",
							"type": "uint256"
						}
					],
					"stateMutability": "view",
					"type": "function"
				},
				{
					"inputs": [],
					"name": "DDT",
					"outputs": [
						{
							"internalType": "contract IERC20",
							"name": "",
							"type": "address"
						}
					],
					"stateMutability": "view",
					"type": "function"
				},
				{
					"inputs": [],
					"name": "DDTPerBlock",
					"outputs": [
						{
							"internalType": "uint256",
							"name": "",
							"type": "uint256"
						}
					],
					"stateMutability": "view",
					"type": "function"
				},
				{
					"inputs": [],
					"name": "NFTMasterChef",
					"outputs": [
						{
							"internalType": "contract INFTMasterChef",
							"name": "",
							"type": "address"
						}
					],
					"stateMutability": "view",
					"type": "function"
				},
				{
					"inputs": [
						{
							"internalType": "uint256",
							"name": "_allocPoint",
							"type": "uint256"
						},
						{
							"internalType": "contract IERC721",
							"name": "_NFTToken",
							"type": "address"
						},
						{
							"internalType": "bool",
							"name": "_withUpdate",
							"type": "bool"
						}
					],
					"name": "add",
					"outputs": [],
					"stateMutability": "nonpayable",
					"type": "function"
				},
				{
					"inputs": [
						{
							"internalType": "uint256",
							"name": "_pid",
							"type": "uint256"
						}
					],
					"name": "compundDDT",
					"outputs": [],
					"stateMutability": "nonpayable",
					"type": "function"
				},
				{
					"inputs": [
						{
							"internalType": "uint256",
							"name": "_pid",
							"type": "uint256"
						},
						{
							"internalType": "uint256",
							"name": "_tokenId",
							"type": "uint256"
						}
					],
					"name": "deposit",
					"outputs": [],
					"stateMutability": "nonpayable",
					"type": "function"
				},
				{
					"inputs": [],
					"name": "devaddr",
					"outputs": [
						{
							"internalType": "address",
							"name": "",
							"type": "address"
						}
					],
					"stateMutability": "view",
					"type": "function"
				},
				{
					"inputs": [
						{
							"internalType": "uint256",
							"name": "_from",
							"type": "uint256"
						},
						{
							"internalType": "uint256",
							"name": "_to",
							"type": "uint256"
						}
					],
					"name": "getMultiplier",
					"outputs": [
						{
							"internalType": "uint256",
							"name": "",
							"type": "uint256"
						}
					],
					"stateMutability": "view",
					"type": "function"
				},
				{
					"inputs": [
						{
							"internalType": "uint256",
							"name": "_pid",
							"type": "uint256"
						},
						{
							"internalType": "address",
							"name": "_user",
							"type": "address"
						}
					],
					"name": "getUserTokenIds",
					"outputs": [
						{
							"internalType": "uint256[]",
							"name": "",
							"type": "uint256[]"
						}
					],
					"stateMutability": "view",
					"type": "function"
				},
				{
					"inputs": [],
					"name": "massUpdatePools",
					"outputs": [],
					"stateMutability": "nonpayable",
					"type": "function"
				},
				{
					"inputs": [],
					"name": "migrator",
					"outputs": [
						{
							"internalType": "contract IMigratorChef",
							"name": "",
							"type": "address"
						}
					],
					"stateMutability": "view",
					"type": "function"
				},
				{
					"inputs": [
						{
							"internalType": "address",
							"name": "",
							"type": "address"
						},
						{
							"internalType": "address",
							"name": "",
							"type": "address"
						},
						{
							"internalType": "uint256",
							"name": "",
							"type": "uint256"
						},
						{
							"internalType": "bytes",
							"name": "",
							"type": "bytes"
						}
					],
					"name": "onERC721Received",
					"outputs": [
						{
							"internalType": "bytes4",
							"name": "",
							"type": "bytes4"
						}
					],
					"stateMutability": "nonpayable",
					"type": "function"
				},
				{
					"inputs": [],
					"name": "owner",
					"outputs": [
						{
							"internalType": "address",
							"name": "",
							"type": "address"
						}
					],
					"stateMutability": "view",
					"type": "function"
				},
				{
					"inputs": [
						{
							"internalType": "uint256",
							"name": "_pid",
							"type": "uint256"
						},
						{
							"internalType": "address",
							"name": "_user",
							"type": "address"
						}
					],
					"name": "pendingDDT",
					"outputs": [
						{
							"internalType": "uint256",
							"name": "",
							"type": "uint256"
						}
					],
					"stateMutability": "view",
					"type": "function"
				},
				{
					"inputs": [
						{
							"internalType": "uint256",
							"name": "",
							"type": "uint256"
						}
					],
					"name": "poolInfo",
					"outputs": [
						{
							"internalType": "contract IERC721",
							"name": "NFTToken",
							"type": "address"
						},
						{
							"internalType": "uint256",
							"name": "allocPoint",
							"type": "uint256"
						},
						{
							"internalType": "uint256",
							"name": "lastRewardBlock",
							"type": "uint256"
						},
						{
							"internalType": "uint256",
							"name": "accDDTPerShare",
							"type": "uint256"
						}
					],
					"stateMutability": "view",
					"type": "function"
				},
				{
					"inputs": [],
					"name": "poolLength",
					"outputs": [
						{
							"internalType": "uint256",
							"name": "",
							"type": "uint256"
						}
					],
					"stateMutability": "view",
					"type": "function"
				},
				{
					"inputs": [],
					"name": "renounceOwnership",
					"outputs": [],
					"stateMutability": "nonpayable",
					"type": "function"
				},
				{
					"inputs": [
						{
							"internalType": "uint256",
							"name": "_pid",
							"type": "uint256"
						},
						{
							"internalType": "uint256",
							"name": "_allocPoint",
							"type": "uint256"
						},
						{
							"internalType": "bool",
							"name": "_withUpdate",
							"type": "bool"
						}
					],
					"name": "set",
					"outputs": [],
					"stateMutability": "nonpayable",
					"type": "function"
				},
				{
					"inputs": [
						{
							"internalType": "address",
							"name": "_devaddr",
							"type": "address"
						}
					],
					"name": "setDevAddress",
					"outputs": [],
					"stateMutability": "nonpayable",
					"type": "function"
				},
				{
					"inputs": [
						{
							"internalType": "contract IMigratorChef",
							"name": "_migrator",
							"type": "address"
						}
					],
					"name": "setMigrator",
					"outputs": [],
					"stateMutability": "nonpayable",
					"type": "function"
				},
				{
					"inputs": [],
					"name": "startBlock",
					"outputs": [
						{
							"internalType": "uint256",
							"name": "",
							"type": "uint256"
						}
					],
					"stateMutability": "view",
					"type": "function"
				},
				{
					"inputs": [],
					"name": "totalAllocPoint",
					"outputs": [
						{
							"internalType": "uint256",
							"name": "",
							"type": "uint256"
						}
					],
					"stateMutability": "view",
					"type": "function"
				},
				{
					"inputs": [
						{
							"internalType": "address",
							"name": "newOwner",
							"type": "address"
						}
					],
					"name": "transferOwnership",
					"outputs": [],
					"stateMutability": "nonpayable",
					"type": "function"
				},
				{
					"inputs": [
						{
							"internalType": "uint256",
							"name": "newAmount",
							"type": "uint256"
						}
					],
					"name": "updateDDTPerBlock",
					"outputs": [],
					"stateMutability": "nonpayable",
					"type": "function"
				},
				{
					"inputs": [
						{
							"internalType": "uint256",
							"name": "multiplierNumber",
							"type": "uint256"
						}
					],
					"name": "updateMultiplier",
					"outputs": [],
					"stateMutability": "nonpayable",
					"type": "function"
				},
				{
					"inputs": [
						{
							"internalType": "uint256",
							"name": "_pid",
							"type": "uint256"
						}
					],
					"name": "updatePool",
					"outputs": [],
					"stateMutability": "nonpayable",
					"type": "function"
				},
				{
					"inputs": [
						{
							"internalType": "uint256",
							"name": "",
							"type": "uint256"
						},
						{
							"internalType": "address",
							"name": "",
							"type": "address"
						}
					],
					"name": "userInfo",
					"outputs": [
						{
							"internalType": "uint256",
							"name": "amount",
							"type": "uint256"
						},
						{
							"internalType": "uint256",
							"name": "rewardDebt",
							"type": "uint256"
						}
					],
					"stateMutability": "view",
					"type": "function"
				},
				{
					"inputs": [
						{
							"internalType": "uint256",
							"name": "_pid",
							"type": "uint256"
						},
						{
							"internalType": "uint256",
							"name": "_tokenId",
							"type": "uint256"
						}
					],
					"name": "withdraw",
					"outputs": [],
					"stateMutability": "nonpayable",
					"type": "function"
				}
			],
			"devdoc": {
				"kind": "dev",
				"methods": {
					"owner()": {
						"details": "Returns the address of the current owner."
					},
					"renounceOwnership()": {
						"details": "Leaves the contract without owner. It will not be possible to call `onlyOwner` functions anymore. Can only be called by the current owner. NOTE: Renouncing ownership will leave the contract without an owner, thereby removing any functionality that is only available to the owner."
					},
					"transferOwnership(address)": {
						"details": "Transfers ownership of the contract to a new account (`newOwner`). Can only be called by the current owner."
					}
				},
				"version": 1
			},
			"evm": {
				"assembly": "    /* \"contracts/NFTStake.sol\":28014:38532  contract NFTStake is Ownable, IERC721Receiver {\r... */\n  mstore(0x40, 0x80)\n    /* \"contracts/NFTStake.sol\":29679:29680  1 */\n  0x01\n    /* \"contracts/NFTStake.sol\":29645:29680  uint256 public BONUS_MULTIPLIER = 1 */\n  0x05\n  sstore\n    /* \"contracts/NFTStake.sol\":30120:30121  0 */\n  0x00\n    /* \"contracts/NFTStake.sol\":30087:30121  uint256 public totalAllocPoint = 0 */\n  0x09\n  sstore\n    /* \"contracts/NFTStake.sol\":30495:30835  constructor(\r... */\n  callvalue\n  dup1\n  iszero\n  tag_1\n  jumpi\n  0x00\n  dup1\n  revert\ntag_1:\n  pop\n  mload(0x40)\n  sub(codesize, bytecodeSize)\n  dup1\n  bytecodeSize\n  dup4\n  codecopy\n  dup2\n  dup2\n  add\n  0x40\n  mstore\n  dup2\n  add\n  swap1\n  tag_2\n  swap2\n  swap1\n  tag_3\n  jump\t// in\ntag_2:\n    /* \"contracts/NFTStake.sol\":20054:20086  _transferOwnership(_msgSender()) */\n  tag_7\n    /* \"contracts/NFTStake.sol\":20073:20085  _msgSender() */\n  tag_8\n    /* \"contracts/NFTStake.sol\":20073:20083  _msgSender */\n  shl(0x20, tag_9)\n    /* \"contracts/NFTStake.sol\":20073:20085  _msgSender() */\n  0x20\n  shr\n  jump\t// in\ntag_8:\n    /* \"contracts/NFTStake.sol\":20054:20072  _transferOwnership */\n  shl(0x20, tag_10)\n    /* \"contracts/NFTStake.sol\":20054:20086  _transferOwnership(_msgSender()) */\n  0x20\n  shr\n  jump\t// in\ntag_7:\n    /* \"contracts/NFTStake.sol\":30681:30685  _DDT */\n  dup5\n    /* \"contracts/NFTStake.sol\":30675:30678  DDT */\n  0x02\n  0x00\n    /* \"contracts/NFTStake.sol\":30675:30685  DDT = _DDT */\n  0x0100\n  exp\n  dup2\n  sload\n  dup2\n  0xffffffffffffffffffffffffffffffffffffffff\n  mul\n  not\n  and\n  swap1\n  dup4\n  0xffffffffffffffffffffffffffffffffffffffff\n  and\n  mul\n  or\n  swap1\n  sstore\n  pop\n    /* \"contracts/NFTStake.sol\":30712:30726  _NFTMasterChef */\n  dup4\n    /* \"contracts/NFTStake.sol\":30696:30709  NFTMasterChef */\n  0x01\n  0x00\n    /* \"contracts/NFTStake.sol\":30696:30726  NFTMasterChef = _NFTMasterChef */\n  0x0100\n  exp\n  dup2\n  sload\n  dup2\n  0xffffffffffffffffffffffffffffffffffffffff\n  mul\n  not\n  and\n  swap1\n  dup4\n  0xffffffffffffffffffffffffffffffffffffffff\n  and\n  mul\n  or\n  swap1\n  sstore\n  pop\n    /* \"contracts/NFTStake.sol\":30747:30755  _devaddr */\n  dup3\n    /* \"contracts/NFTStake.sol\":30737:30744  devaddr */\n  0x03\n  0x00\n    /* \"contracts/NFTStake.sol\":30737:30755  devaddr = _devaddr */\n  0x0100\n  exp\n  dup2\n  sload\n  dup2\n  0xffffffffffffffffffffffffffffffffffffffff\n  mul\n  not\n  and\n  swap1\n  dup4\n  0xffffffffffffffffffffffffffffffffffffffff\n  and\n  mul\n  or\n  swap1\n  sstore\n  pop\n    /* \"contracts/NFTStake.sol\":30780:30792  _DDTPerBlock */\n  dup2\n    /* \"contracts/NFTStake.sol\":30766:30777  DDTPerBlock */\n  0x04\n    /* \"contracts/NFTStake.sol\":30766:30792  DDTPerBlock = _DDTPerBlock */\n  dup2\n  swap1\n  sstore\n  pop\n    /* \"contracts/NFTStake.sol\":30816:30827  _startBlock */\n  dup1\n    /* \"contracts/NFTStake.sol\":30803:30813  startBlock */\n  0x0a\n    /* \"contracts/NFTStake.sol\":30803:30827  startBlock = _startBlock */\n  dup2\n  swap1\n  sstore\n  pop\n    /* \"contracts/NFTStake.sol\":30495:30835  constructor(\r... */\n  pop\n  pop\n  pop\n  pop\n  pop\n    /* \"contracts/NFTStake.sol\":28014:38532  contract NFTStake is Ownable, IERC721Receiver {\r... */\n  jump(tag_12)\n    /* \"contracts/NFTStake.sol\":19549:19647  function _msgSender() internal view virtual returns (address) {\r... */\ntag_9:\n    /* \"contracts/NFTStake.sol\":19602:19609  address */\n  0x00\n    /* \"contracts/NFTStake.sol\":19629:19639  msg.sender */\n  caller\n    /* \"contracts/NFTStake.sol\":19622:19639  return msg.sender */\n  swap1\n  pop\n    /* \"contracts/NFTStake.sol\":19549:19647  function _msgSender() internal view virtual returns (address) {\r... */\n  swap1\n  jump\t// out\n    /* \"contracts/NFTStake.sol\":21445:21636  function _transferOwnership(address newOwner) internal virtual {\r... */\ntag_10:\n    /* \"contracts/NFTStake.sol\":21519:21535  address oldOwner */\n  0x00\n    /* \"contracts/NFTStake.sol\":21538:21544  _owner */\n  dup1\n  0x00\n  swap1\n  sload\n  swap1\n  0x0100\n  exp\n  swap1\n  div\n  0xffffffffffffffffffffffffffffffffffffffff\n  and\n    /* \"contracts/NFTStake.sol\":21519:21544  address oldOwner = _owner */\n  swap1\n  pop\n    /* \"contracts/NFTStake.sol\":21564:21572  newOwner */\n  dup2\n    /* \"contracts/NFTStake.sol\":21555:21561  _owner */\n  0x00\n  dup1\n    /* \"contracts/NFTStake.sol\":21555:21572  _owner = newOwner */\n  0x0100\n  exp\n  dup2\n  sload\n  dup2\n  0xffffffffffffffffffffffffffffffffffffffff\n  mul\n  not\n  and\n  swap1\n  dup4\n  0xffffffffffffffffffffffffffffffffffffffff\n  and\n  mul\n  or\n  swap1\n  sstore\n  pop\n    /* \"contracts/NFTStake.sol\":21619:21627  newOwner */\n  dup2\n    /* \"contracts/NFTStake.sol\":21588:21628  OwnershipTransferred(oldOwner, newOwner) */\n  0xffffffffffffffffffffffffffffffffffffffff\n  and\n    /* \"contracts/NFTStake.sol\":21609:21617  oldOwner */\n  dup2\n    /* \"contracts/NFTStake.sol\":21588:21628  OwnershipTransferred(oldOwner, newOwner) */\n  0xffffffffffffffffffffffffffffffffffffffff\n  and\n  0x8be0079c531659141344cd1fd0a4f28419497f9722a3daafe3b4186f6b6457e0\n  mload(0x40)\n  mload(0x40)\n  dup1\n  swap2\n  sub\n  swap1\n  log3\n    /* \"contracts/NFTStake.sol\":21508:21636  {\r... */\n  pop\n    /* \"contracts/NFTStake.sol\":21445:21636  function _transferOwnership(address newOwner) internal virtual {\r... */\n  pop\n  jump\t// out\n    /* \"#utility.yul\":7:150   */\ntag_16:\n    /* \"#utility.yul\":64:69   */\n  0x00\n    /* \"#utility.yul\":95:101   */\n  dup2\n    /* \"#utility.yul\":89:102   */\n  mload\n    /* \"#utility.yul\":80:102   */\n  swap1\n  pop\n    /* \"#utility.yul\":111:144   */\n  tag_18\n    /* \"#utility.yul\":138:143   */\n  dup2\n    /* \"#utility.yul\":111:144   */\n  tag_19\n  jump\t// in\ntag_18:\n    /* \"#utility.yul\":7:150   */\n  swap3\n  swap2\n  pop\n  pop\n  jump\t// out\n    /* \"#utility.yul\":156:327   */\ntag_20:\n    /* \"#utility.yul\":227:232   */\n  0x00\n    /* \"#utility.yul\":258:264   */\n  dup2\n    /* \"#utility.yul\":252:265   */\n  mload\n    /* \"#utility.yul\":243:265   */\n  swap1\n  pop\n    /* \"#utility.yul\":274:321   */\n  tag_22\n    /* \"#utility.yul\":315:320   */\n  dup2\n    /* \"#utility.yul\":274:321   */\n  tag_23\n  jump\t// in\ntag_22:\n    /* \"#utility.yul\":156:327   */\n  swap3\n  swap2\n  pop\n  pop\n  jump\t// out\n    /* \"#utility.yul\":333:522   */\ntag_24:\n    /* \"#utility.yul\":413:418   */\n  0x00\n    /* \"#utility.yul\":444:450   */\n  dup2\n    /* \"#utility.yul\":438:451   */\n  mload\n    /* \"#utility.yul\":429:451   */\n  swap1\n  pop\n    /* \"#utility.yul\":460:516   */\n  tag_26\n    /* \"#utility.yul\":510:515   */\n  dup2\n    /* \"#utility.yul\":460:516   */\n  tag_27\n  jump\t// in\ntag_26:\n    /* \"#utility.yul\":333:522   */\n  swap3\n  swap2\n  pop\n  pop\n  jump\t// out\n    /* \"#utility.yul\":528:671   */\ntag_28:\n    /* \"#utility.yul\":585:590   */\n  0x00\n    /* \"#utility.yul\":616:622   */\n  dup2\n    /* \"#utility.yul\":610:623   */\n  mload\n    /* \"#utility.yul\":601:623   */\n  swap1\n  pop\n    /* \"#utility.yul\":632:665   */\n  tag_30\n    /* \"#utility.yul\":659:664   */\n  dup2\n    /* \"#utility.yul\":632:665   */\n  tag_31\n  jump\t// in\ntag_30:\n    /* \"#utility.yul\":528:671   */\n  swap3\n  swap2\n  pop\n  pop\n  jump\t// out\n    /* \"#utility.yul\":677:1728   */\ntag_3:\n    /* \"#utility.yul\":820:826   */\n  0x00\n    /* \"#utility.yul\":828:834   */\n  dup1\n    /* \"#utility.yul\":836:842   */\n  0x00\n    /* \"#utility.yul\":844:850   */\n  dup1\n    /* \"#utility.yul\":852:858   */\n  0x00\n    /* \"#utility.yul\":901:904   */\n  0xa0\n    /* \"#utility.yul\":889:898   */\n  dup7\n    /* \"#utility.yul\":880:887   */\n  dup9\n    /* \"#utility.yul\":876:899   */\n  sub\n    /* \"#utility.yul\":872:905   */\n  slt\n    /* \"#utility.yul\":869:989   */\n  iszero\n  tag_33\n  jumpi\n    /* \"#utility.yul\":908:987   */\n  tag_34\n  tag_35\n  jump\t// in\ntag_34:\n    /* \"#utility.yul\":869:989   */\ntag_33:\n    /* \"#utility.yul\":1028:1029   */\n  0x00\n    /* \"#utility.yul\":1053:1131   */\n  tag_36\n    /* \"#utility.yul\":1123:1130   */\n  dup9\n    /* \"#utility.yul\":1114:1120   */\n  dup3\n    /* \"#utility.yul\":1103:1112   */\n  dup10\n    /* \"#utility.yul\":1099:1121   */\n  add\n    /* \"#utility.yul\":1053:1131   */\n  tag_20\n  jump\t// in\ntag_36:\n    /* \"#utility.yul\":1043:1131   */\n  swap6\n  pop\n    /* \"#utility.yul\":999:1141   */\n  pop\n    /* \"#utility.yul\":1180:1182   */\n  0x20\n    /* \"#utility.yul\":1206:1293   */\n  tag_37\n    /* \"#utility.yul\":1285:1292   */\n  dup9\n    /* \"#utility.yul\":1276:1282   */\n  dup3\n    /* \"#utility.yul\":1265:1274   */\n  dup10\n    /* \"#utility.yul\":1261:1283   */\n  add\n    /* \"#utility.yul\":1206:1293   */\n  tag_24\n  jump\t// in\ntag_37:\n    /* \"#utility.yul\":1196:1293   */\n  swap5\n  pop\n    /* \"#utility.yul\":1151:1303   */\n  pop\n    /* \"#utility.yul\":1342:1344   */\n  0x40\n    /* \"#utility.yul\":1368:1432   */\n  tag_38\n    /* \"#utility.yul\":1424:1431   */\n  dup9\n    /* \"#utility.yul\":1415:1421   */\n  dup3\n    /* \"#utility.yul\":1404:1413   */\n  dup10\n    /* \"#utility.yul\":1400:1422   */\n  add\n    /* \"#utility.yul\":1368:1432   */\n  tag_16\n  jump\t// in\ntag_38:\n    /* \"#utility.yul\":1358:1432   */\n  swap4\n  pop\n    /* \"#utility.yul\":1313:1442   */\n  pop\n    /* \"#utility.yul\":1481:1483   */\n  0x60\n    /* \"#utility.yul\":1507:1571   */\n  tag_39\n    /* \"#utility.yul\":1563:1570   */\n  dup9\n    /* \"#utility.yul\":1554:1560   */\n  dup3\n    /* \"#utility.yul\":1543:1552   */\n  dup10\n    /* \"#utility.yul\":1539:1561   */\n  add\n    /* \"#utility.yul\":1507:1571   */\n  tag_28\n  jump\t// in\ntag_39:\n    /* \"#utility.yul\":1497:1571   */\n  swap3\n  pop\n    /* \"#utility.yul\":1452:1581   */\n  pop\n    /* \"#utility.yul\":1620:1623   */\n  0x80\n    /* \"#utility.yul\":1647:1711   */\n  tag_40\n    /* \"#utility.yul\":1703:1710   */\n  dup9\n    /* \"#utility.yul\":1694:1700   */\n  dup3\n    /* \"#utility.yul\":1683:1692   */\n  dup10\n    /* \"#utility.yul\":1679:1701   */\n  add\n    /* \"#utility.yul\":1647:1711   */\n  tag_28\n  jump\t// in\ntag_40:\n    /* \"#utility.yul\":1637:1711   */\n  swap2\n  pop\n    /* \"#utility.yul\":1591:1721   */\n  pop\n    /* \"#utility.yul\":677:1728   */\n  swap3\n  swap6\n  pop\n  swap3\n  swap6\n  swap1\n  swap4\n  pop\n  jump\t// out\n    /* \"#utility.yul\":1815:1911   */\ntag_43:\n    /* \"#utility.yul\":1852:1859   */\n  0x00\n    /* \"#utility.yul\":1881:1905   */\n  tag_45\n    /* \"#utility.yul\":1899:1904   */\n  dup3\n    /* \"#utility.yul\":1881:1905   */\n  tag_46\n  jump\t// in\ntag_45:\n    /* \"#utility.yul\":1870:1905   */\n  swap1\n  pop\n    /* \"#utility.yul\":1815:1911   */\n  swap2\n  swap1\n  pop\n  jump\t// out\n    /* \"#utility.yul\":1917:2027   */\ntag_47:\n    /* \"#utility.yul\":1968:1975   */\n  0x00\n    /* \"#utility.yul\":1997:2021   */\n  tag_49\n    /* \"#utility.yul\":2015:2020   */\n  dup3\n    /* \"#utility.yul\":1997:2021   */\n  tag_43\n  jump\t// in\ntag_49:\n    /* \"#utility.yul\":1986:2021   */\n  swap1\n  pop\n    /* \"#utility.yul\":1917:2027   */\n  swap2\n  swap1\n  pop\n  jump\t// out\n    /* \"#utility.yul\":2033:2152   */\ntag_50:\n    /* \"#utility.yul\":2093:2100   */\n  0x00\n    /* \"#utility.yul\":2122:2146   */\n  tag_52\n    /* \"#utility.yul\":2140:2145   */\n  dup3\n    /* \"#utility.yul\":2122:2146   */\n  tag_43\n  jump\t// in\ntag_52:\n    /* \"#utility.yul\":2111:2146   */\n  swap1\n  pop\n    /* \"#utility.yul\":2033:2152   */\n  swap2\n  swap1\n  pop\n  jump\t// out\n    /* \"#utility.yul\":2158:2284   */\ntag_46:\n    /* \"#utility.yul\":2195:2202   */\n  0x00\n    /* \"#utility.yul\":2235:2277   */\n  0xffffffffffffffffffffffffffffffffffffffff\n    /* \"#utility.yul\":2228:2233   */\n  dup3\n    /* \"#utility.yul\":2224:2278   */\n  and\n    /* \"#utility.yul\":2213:2278   */\n  swap1\n  pop\n    /* \"#utility.yul\":2158:2284   */\n  swap2\n  swap1\n  pop\n  jump\t// out\n    /* \"#utility.yul\":2290:2367   */\ntag_54:\n    /* \"#utility.yul\":2327:2334   */\n  0x00\n    /* \"#utility.yul\":2356:2361   */\n  dup2\n    /* \"#utility.yul\":2345:2361   */\n  swap1\n  pop\n    /* \"#utility.yul\":2290:2367   */\n  swap2\n  swap1\n  pop\n  jump\t// out\n    /* \"#utility.yul\":2496:2613   */\ntag_35:\n    /* \"#utility.yul\":2605:2606   */\n  0x00\n    /* \"#utility.yul\":2602:2603   */\n  dup1\n    /* \"#utility.yul\":2595:2607   */\n  revert\n    /* \"#utility.yul\":2619:2741   */\ntag_19:\n    /* \"#utility.yul\":2692:2716   */\n  tag_60\n    /* \"#utility.yul\":2710:2715   */\n  dup2\n    /* \"#utility.yul\":2692:2716   */\n  tag_43\n  jump\t// in\ntag_60:\n    /* \"#utility.yul\":2685:2690   */\n  dup2\n    /* \"#utility.yul\":2682:2717   */\n  eq\n    /* \"#utility.yul\":2672:2735   */\n  tag_61\n  jumpi\n    /* \"#utility.yul\":2731:2732   */\n  0x00\n    /* \"#utility.yul\":2728:2729   */\n  dup1\n    /* \"#utility.yul\":2721:2733   */\n  revert\n    /* \"#utility.yul\":2672:2735   */\ntag_61:\n    /* \"#utility.yul\":2619:2741   */\n  pop\n  jump\t// out\n    /* \"#utility.yul\":2747:2897   */\ntag_23:\n    /* \"#utility.yul\":2834:2872   */\n  tag_63\n    /* \"#utility.yul\":2866:2871   */\n  dup2\n    /* \"#utility.yul\":2834:2872   */\n  tag_47\n  jump\t// in\ntag_63:\n    /* \"#utility.yul\":2827:2832   */\n  dup2\n    /* \"#utility.yul\":2824:2873   */\n  eq\n    /* \"#utility.yul\":2814:2891   */\n  tag_64\n  jumpi\n    /* \"#utility.yul\":2887:2888   */\n  0x00\n    /* \"#utility.yul\":2884:2885   */\n  dup1\n    /* \"#utility.yul\":2877:2889   */\n  revert\n    /* \"#utility.yul\":2814:2891   */\ntag_64:\n    /* \"#utility.yul\":2747:2897   */\n  pop\n  jump\t// out\n    /* \"#utility.yul\":2903:3071   */\ntag_27:\n    /* \"#utility.yul\":2999:3046   */\n  tag_66\n    /* \"#utility.yul\":3040:3045   */\n  dup2\n    /* \"#utility.yul\":2999:3046   */\n  tag_50\n  jump\t// in\ntag_66:\n    /* \"#utility.yul\":2992:2997   */\n  dup2\n    /* \"#utility.yul\":2989:3047   */\n  eq\n    /* \"#utility.yul\":2979:3065   */\n  tag_67\n  jumpi\n    /* \"#utility.yul\":3061:3062   */\n  0x00\n    /* \"#utility.yul\":3058:3059   */\n  dup1\n    /* \"#utility.yul\":3051:3063   */\n  revert\n    /* \"#utility.yul\":2979:3065   */\ntag_67:\n    /* \"#utility.yul\":2903:3071   */\n  pop\n  jump\t// out\n    /* \"#utility.yul\":3077:3199   */\ntag_31:\n    /* \"#utility.yul\":3150:3174   */\n  tag_69\n    /* \"#utility.yul\":3168:3173   */\n  dup2\n    /* \"#utility.yul\":3150:3174   */\n  tag_54\n  jump\t// in\ntag_69:\n    /* \"#utility.yul\":3143:3148   */\n  dup2\n    /* \"#utility.yul\":3140:3175   */\n  eq\n    /* \"#utility.yul\":3130:3193   */\n  tag_70\n  jumpi\n    /* \"#utility.yul\":3189:3190   */\n  0x00\n    /* \"#utility.yul\":3186:3187   */\n  dup1\n    /* \"#utility.yul\":3179:3191   */\n  revert\n    /* \"#utility.yul\":3130:3193   */\ntag_70:\n    /* \"#utility.yul\":3077:3199   */\n  pop\n  jump\t// out\n    /* \"contracts/NFTStake.sol\":28014:38532  contract NFTStake is Ownable, IERC721Receiver {\r... */\ntag_12:\n  dataSize(sub_0)\n  dup1\n  dataOffset(sub_0)\n  0x00\n  codecopy\n  0x00\n  return\nstop\n\nsub_0: assembly {\n        /* \"contracts/NFTStake.sol\":28014:38532  contract NFTStake is Ownable, IERC721Receiver {\r... */\n      mstore(0x40, 0x80)\n      callvalue\n      dup1\n      iszero\n      tag_1\n      jumpi\n      0x00\n      dup1\n      revert\n    tag_1:\n      pop\n      jumpi(tag_2, lt(calldatasize, 0x04))\n      shr(0xe0, calldataload(0x00))\n      dup1\n      0x64482f79\n      gt\n      tag_32\n      jumpi\n      dup1\n      0xcb3cba55\n      gt\n      tag_33\n      jumpi\n      dup1\n      0xe2bbb158\n      gt\n      tag_34\n      jumpi\n      dup1\n      0xe2bbb158\n      eq\n      tag_28\n      jumpi\n      dup1\n      0xe4d09896\n      eq\n      tag_29\n      jumpi\n      dup1\n      0xf2fde38b\n      eq\n      tag_30\n      jumpi\n      dup1\n      0xf395db2c\n      eq\n      tag_31\n      jumpi\n      jump(tag_2)\n    tag_34:\n      dup1\n      0xcb3cba55\n      eq\n      tag_24\n      jumpi\n      dup1\n      0xd0d41fe1\n      eq\n      tag_25\n      jumpi\n      dup1\n      0xd49e77cd\n      eq\n      tag_26\n      jumpi\n      dup1\n      0xd5545992\n      eq\n      tag_27\n      jumpi\n      jump(tag_2)\n    tag_33:\n      dup1\n      0x8aa28550\n      gt\n      tag_35\n      jumpi\n      dup1\n      0x8aa28550\n      eq\n      tag_20\n      jumpi\n      dup1\n      0x8da5cb5b\n      eq\n      tag_21\n      jumpi\n      dup1\n      0x8dbb1e3a\n      eq\n      tag_22\n      jumpi\n      dup1\n      0x93f1a40b\n      eq\n      tag_23\n      jumpi\n      jump(tag_2)\n    tag_35:\n      dup1\n      0x64482f79\n      eq\n      tag_17\n      jumpi\n      dup1\n      0x715018a6\n      eq\n      tag_18\n      jumpi\n      dup1\n      0x7cd07e47\n      eq\n      tag_19\n      jumpi\n      jump(tag_2)\n    tag_32:\n      dup1\n      0x23cf3118\n      gt\n      tag_36\n      jumpi\n      dup1\n      0x51eb05a6\n      gt\n      tag_37\n      jumpi\n      dup1\n      0x51eb05a6\n      eq\n      tag_13\n      jumpi\n      dup1\n      0x5ffe6146\n      eq\n      tag_14\n      jumpi\n      dup1\n      0x612eee43\n      eq\n      tag_15\n      jumpi\n      dup1\n      0x630b5ba1\n      eq\n      tag_16\n      jumpi\n      jump(tag_2)\n    tag_37:\n      dup1\n      0x23cf3118\n      eq\n      tag_10\n      jumpi\n      dup1\n      0x441a3e70\n      eq\n      tag_11\n      jumpi\n      dup1\n      0x48cd4cb1\n      eq\n      tag_12\n      jumpi\n      jump(tag_2)\n    tag_36:\n      dup1\n      0x1526fe27\n      gt\n      tag_38\n      jumpi\n      dup1\n      0x1526fe27\n      eq\n      tag_6\n      jumpi\n      dup1\n      0x17caf6f1\n      eq\n      tag_7\n      jumpi\n      dup1\n      0x1eaaa045\n      eq\n      tag_8\n      jumpi\n      dup1\n      0x2080baab\n      eq\n      tag_9\n      jumpi\n      jump(tag_2)\n    tag_38:\n      dup1\n      0x081e3eda\n      eq\n      tag_3\n      jumpi\n      dup1\n      0x1395d8c9\n      eq\n      tag_4\n      jumpi\n      dup1\n      0x150b7a02\n      eq\n      tag_5\n      jumpi\n    tag_2:\n      0x00\n      dup1\n      revert\n        /* \"contracts/NFTStake.sol\":31232:31327  function poolLength() external view returns (uint256) {\r... */\n    tag_3:\n      tag_39\n      tag_40\n      jump\t// in\n    tag_39:\n      mload(0x40)\n      tag_41\n      swap2\n      swap1\n      tag_42\n      jump\t// in\n    tag_41:\n      mload(0x40)\n      dup1\n      swap2\n      sub\n      swap1\n      return\n        /* \"contracts/NFTStake.sol\":37353:37930  function compundDDT(uint256 _pid) public {\r... */\n    tag_4:\n      tag_43\n      0x04\n      dup1\n      calldatasize\n      sub\n      dup2\n      add\n      swap1\n      tag_44\n      swap2\n      swap1\n      tag_45\n      jump\t// in\n    tag_44:\n      tag_46\n      jump\t// in\n    tag_43:\n      stop\n        /* \"contracts/NFTStake.sol\":30929:31093  function onERC721Received(address, address, uint256, bytes memory) public virtual override returns (bytes4) {\r... */\n    tag_5:\n      tag_47\n      0x04\n      dup1\n      calldatasize\n      sub\n      dup2\n      add\n      swap1\n      tag_48\n      swap2\n      swap1\n      tag_49\n      jump\t// in\n    tag_48:\n      tag_50\n      jump\t// in\n    tag_47:\n      mload(0x40)\n      tag_51\n      swap2\n      swap1\n      tag_52\n      jump\t// in\n    tag_51:\n      mload(0x40)\n      dup1\n      swap2\n      sub\n      swap1\n      return\n        /* \"contracts/NFTStake.sol\":29846:29872  PoolInfo[] public poolInfo */\n    tag_6:\n      tag_53\n      0x04\n      dup1\n      calldatasize\n      sub\n      dup2\n      add\n      swap1\n      tag_54\n      swap2\n      swap1\n      tag_45\n      jump\t// in\n    tag_54:\n      tag_55\n      jump\t// in\n    tag_53:\n      mload(0x40)\n      tag_56\n      swap5\n      swap4\n      swap3\n      swap2\n      swap1\n      tag_57\n      jump\t// in\n    tag_56:\n      mload(0x40)\n      dup1\n      swap2\n      sub\n      swap1\n      return\n        /* \"contracts/NFTStake.sol\":30087:30121  uint256 public totalAllocPoint = 0 */\n    tag_7:\n      tag_58\n      tag_59\n      jump\t// in\n    tag_58:\n      mload(0x40)\n      tag_60\n      swap2\n      swap1\n      tag_42\n      jump\t// in\n    tag_60:\n      mload(0x40)\n      dup1\n      swap2\n      sub\n      swap1\n      return\n        /* \"contracts/NFTStake.sol\":31496:32058  function add( uint256 _allocPoint, IERC721 _NFTToken, bool _withUpdate ) public onlyOwner {\r... */\n    tag_8:\n      tag_61\n      0x04\n      dup1\n      calldatasize\n      sub\n      dup2\n      add\n      swap1\n      tag_62\n      swap2\n      swap1\n      tag_63\n      jump\t// in\n    tag_62:\n      tag_64\n      jump\t// in\n    tag_61:\n      stop\n        /* \"contracts/NFTStake.sol\":33115:33868  function pendingDDT(uint256 _pid, address _user) external view returns (uint256){\r... */\n    tag_9:\n      tag_65\n      0x04\n      dup1\n      calldatasize\n      sub\n      dup2\n      add\n      swap1\n      tag_66\n      swap2\n      swap1\n      tag_67\n      jump\t// in\n    tag_66:\n      tag_68\n      jump\t// in\n    tag_65:\n      mload(0x40)\n      tag_69\n      swap2\n      swap1\n      tag_42\n      jump\t// in\n    tag_69:\n      mload(0x40)\n      dup1\n      swap2\n      sub\n      swap1\n      return\n        /* \"contracts/NFTStake.sol\":32534:32636  function setMigrator(IMigratorChef _migrator) public onlyOwner {\r... */\n    tag_10:\n      tag_70\n      0x04\n      dup1\n      calldatasize\n      sub\n      dup2\n      add\n      swap1\n      tag_71\n      swap2\n      swap1\n      tag_72\n      jump\t// in\n    tag_71:\n      tag_73\n      jump\t// in\n    tag_70:\n      stop\n        /* \"contracts/NFTStake.sol\":35797:37345  function withdraw(uint256 _pid, uint256 _tokenId) public {\r... */\n    tag_11:\n      tag_74\n      0x04\n      dup1\n      calldatasize\n      sub\n      dup2\n      add\n      swap1\n      tag_75\n      swap2\n      swap1\n      tag_76\n      jump\t// in\n    tag_75:\n      tag_77\n      jump\t// in\n    tag_74:\n      stop\n        /* \"contracts/NFTStake.sol\":30177:30202  uint256 public startBlock */\n    tag_12:\n      tag_78\n      tag_79\n      jump\t// in\n    tag_78:\n      mload(0x40)\n      tag_80\n      swap2\n      swap1\n      tag_42\n      jump\t// in\n    tag_80:\n      mload(0x40)\n      dup1\n      swap2\n      sub\n      swap1\n      return\n        /* \"contracts/NFTStake.sol\":34207:34936  function updatePool(uint256 _pid) public {\r... */\n    tag_13:\n      tag_81\n      0x04\n      dup1\n      calldatasize\n      sub\n      dup2\n      add\n      swap1\n      tag_82\n      swap2\n      swap1\n      tag_45\n      jump\t// in\n    tag_82:\n      tag_83\n      jump\t// in\n    tag_81:\n      stop\n        /* \"contracts/NFTStake.sol\":31101:31224  function updateMultiplier(uint256 multiplierNumber) public onlyOwner {\r... */\n    tag_14:\n      tag_84\n      0x04\n      dup1\n      calldatasize\n      sub\n      dup2\n      add\n      swap1\n      tag_85\n      swap2\n      swap1\n      tag_45\n      jump\t// in\n    tag_85:\n      tag_86\n      jump\t// in\n    tag_84:\n      stop\n        /* \"contracts/NFTStake.sol\":38424:38529  function updateDDTPerBlock(uint256 newAmount) public onlyOwner {\r... */\n    tag_15:\n      tag_87\n      0x04\n      dup1\n      calldatasize\n      sub\n      dup2\n      add\n      swap1\n      tag_88\n      swap2\n      swap1\n      tag_45\n      jump\t// in\n    tag_88:\n      tag_89\n      jump\t// in\n    tag_87:\n      stop\n        /* \"contracts/NFTStake.sol\":33951:34131  function massUpdatePools() public {\r... */\n    tag_16:\n      tag_90\n      tag_91\n      jump\t// in\n    tag_90:\n      stop\n        /* \"contracts/NFTStake.sol\":32153:32458  function set( uint256 _pid, uint256 _allocPoint, bool _withUpdate) public onlyOwner {\r... */\n    tag_17:\n      tag_92\n      0x04\n      dup1\n      calldatasize\n      sub\n      dup2\n      add\n      swap1\n      tag_93\n      swap2\n      swap1\n      tag_94\n      jump\t// in\n    tag_93:\n      tag_95\n      jump\t// in\n    tag_92:\n      stop\n        /* \"contracts/NFTStake.sol\":20826:20929  function renounceOwnership() public virtual onlyOwner {\r... */\n    tag_18:\n      tag_96\n      tag_97\n      jump\t// in\n    tag_96:\n      stop\n        /* \"contracts/NFTStake.sol\":29783:29812  IMigratorChef public migrator */\n    tag_19:\n      tag_98\n      tag_99\n      jump\t// in\n    tag_98:\n      mload(0x40)\n      tag_100\n      swap2\n      swap1\n      tag_101\n      jump\t// in\n    tag_100:\n      mload(0x40)\n      dup1\n      swap2\n      sub\n      swap1\n      return\n        /* \"contracts/NFTStake.sol\":29645:29680  uint256 public BONUS_MULTIPLIER = 1 */\n    tag_20:\n      tag_102\n      tag_103\n      jump\t// in\n    tag_102:\n      mload(0x40)\n      tag_104\n      swap2\n      swap1\n      tag_42\n      jump\t// in\n    tag_104:\n      mload(0x40)\n      dup1\n      swap2\n      sub\n      swap1\n      return\n        /* \"contracts/NFTStake.sol\":20175:20262  function owner() public view virtual returns (address) {\r... */\n    tag_21:\n      tag_105\n      tag_106\n      jump\t// in\n    tag_105:\n      mload(0x40)\n      tag_107\n      swap2\n      swap1\n      tag_108\n      jump\t// in\n    tag_107:\n      mload(0x40)\n      dup1\n      swap2\n      sub\n      swap1\n      return\n        /* \"contracts/NFTStake.sol\":32712:32856  function getMultiplier(uint256 _from, uint256 _to) public view returns (uint256) {\r... */\n    tag_22:\n      tag_109\n      0x04\n      dup1\n      calldatasize\n      sub\n      dup2\n      add\n      swap1\n      tag_110\n      swap2\n      swap1\n      tag_76\n      jump\t// in\n    tag_110:\n      tag_111\n      jump\t// in\n    tag_109:\n      mload(0x40)\n      tag_112\n      swap2\n      swap1\n      tag_42\n      jump\t// in\n    tag_112:\n      mload(0x40)\n      dup1\n      swap2\n      sub\n      swap1\n      return\n        /* \"contracts/NFTStake.sol\":29928:29992  mapping(uint256 => mapping(address => UserInfo)) public userInfo */\n    tag_23:\n      tag_113\n      0x04\n      dup1\n      calldatasize\n      sub\n      dup2\n      add\n      swap1\n      tag_114\n      swap2\n      swap1\n      tag_67\n      jump\t// in\n    tag_114:\n      tag_115\n      jump\t// in\n    tag_113:\n      mload(0x40)\n      tag_116\n      swap3\n      swap2\n      swap1\n      tag_117\n      jump\t// in\n    tag_116:\n      mload(0x40)\n      dup1\n      swap2\n      sub\n      swap1\n      return\n        /* \"contracts/NFTStake.sol\":29454:29471  IERC20 public DDT */\n    tag_24:\n      tag_118\n      tag_119\n      jump\t// in\n    tag_118:\n      mload(0x40)\n      tag_120\n      swap2\n      swap1\n      tag_121\n      jump\t// in\n    tag_120:\n      mload(0x40)\n      dup1\n      swap2\n      sub\n      swap1\n      return\n        /* \"contracts/NFTStake.sol\":38321:38416  function setDevAddress(address _devaddr) public onlyOwner {\r... */\n    tag_25:\n      tag_122\n      0x04\n      dup1\n      calldatasize\n      sub\n      dup2\n      add\n      swap1\n      tag_123\n      swap2\n      swap1\n      tag_124\n      jump\t// in\n    tag_123:\n      tag_125\n      jump\t// in\n    tag_122:\n      stop\n        /* \"contracts/NFTStake.sol\":29499:29521  address public devaddr */\n    tag_26:\n      tag_126\n      tag_127\n      jump\t// in\n    tag_126:\n      mload(0x40)\n      tag_128\n      swap2\n      swap1\n      tag_108\n      jump\t// in\n    tag_128:\n      mload(0x40)\n      dup1\n      swap2\n      sub\n      swap1\n      return\n        /* \"contracts/NFTStake.sol\":32864:33052  function getUserTokenIds(uint256 _pid, address _user) public view returns (uint256[] memory) {\r... */\n    tag_27:\n      tag_129\n      0x04\n      dup1\n      calldatasize\n      sub\n      dup2\n      add\n      swap1\n      tag_130\n      swap2\n      swap1\n      tag_67\n      jump\t// in\n    tag_130:\n      tag_131\n      jump\t// in\n    tag_129:\n      mload(0x40)\n      tag_132\n      swap2\n      swap1\n      tag_133\n      jump\t// in\n    tag_132:\n      mload(0x40)\n      dup1\n      swap2\n      sub\n      swap1\n      return\n        /* \"contracts/NFTStake.sol\":35005:35744  function deposit(uint256 _pid, uint256 _tokenId) public {\r... */\n    tag_28:\n      tag_134\n      0x04\n      dup1\n      calldatasize\n      sub\n      dup2\n      add\n      swap1\n      tag_135\n      swap2\n      swap1\n      tag_76\n      jump\t// in\n    tag_135:\n      tag_136\n      jump\t// in\n    tag_134:\n      stop\n        /* \"contracts/NFTStake.sol\":29387:29422  INFTMasterChef public NFTMasterChef */\n    tag_29:\n      tag_137\n      tag_138\n      jump\t// in\n    tag_137:\n      mload(0x40)\n      tag_139\n      swap2\n      swap1\n      tag_140\n      jump\t// in\n    tag_139:\n      mload(0x40)\n      dup1\n      swap2\n      sub\n      swap1\n      return\n        /* \"contracts/NFTStake.sol\":21084:21285  function transferOwnership(address newOwner) public virtual onlyOwner {\r... */\n    tag_30:\n      tag_141\n      0x04\n      dup1\n      calldatasize\n      sub\n      dup2\n      add\n      swap1\n      tag_142\n      swap2\n      swap1\n      tag_124\n      jump\t// in\n    tag_142:\n      tag_143\n      jump\t// in\n    tag_141:\n      stop\n        /* \"contracts/NFTStake.sol\":29566:29592  uint256 public DDTPerBlock */\n    tag_31:\n      tag_144\n      tag_145\n      jump\t// in\n    tag_144:\n      mload(0x40)\n      tag_146\n      swap2\n      swap1\n      tag_42\n      jump\t// in\n    tag_146:\n      mload(0x40)\n      dup1\n      swap2\n      sub\n      swap1\n      return\n        /* \"contracts/NFTStake.sol\":31232:31327  function poolLength() external view returns (uint256) {\r... */\n    tag_40:\n        /* \"contracts/NFTStake.sol\":31277:31284  uint256 */\n      0x00\n        /* \"contracts/NFTStake.sol\":31304:31312  poolInfo */\n      0x07\n        /* \"contracts/NFTStake.sol\":31304:31319  poolInfo.length */\n      dup1\n      sload\n      swap1\n      pop\n        /* \"contracts/NFTStake.sol\":31297:31319  return poolInfo.length */\n      swap1\n      pop\n        /* \"contracts/NFTStake.sol\":31232:31327  function poolLength() external view returns (uint256) {\r... */\n      swap1\n      jump\t// out\n        /* \"contracts/NFTStake.sol\":37353:37930  function compundDDT(uint256 _pid) public {\r... */\n    tag_46:\n        /* \"contracts/NFTStake.sol\":37405:37426  PoolInfo storage pool */\n      0x00\n        /* \"contracts/NFTStake.sol\":37429:37437  poolInfo */\n      0x07\n        /* \"contracts/NFTStake.sol\":37438:37442  _pid */\n      dup3\n        /* \"contracts/NFTStake.sol\":37429:37443  poolInfo[_pid] */\n      dup2\n      sload\n      dup2\n      lt\n      tag_149\n      jumpi\n      tag_150\n      tag_151\n      jump\t// in\n    tag_150:\n    tag_149:\n      swap1\n      0x00\n      mstore\n      keccak256(0x00, 0x20)\n      swap1\n      0x04\n      mul\n      add\n        /* \"contracts/NFTStake.sol\":37405:37443  PoolInfo storage pool = poolInfo[_pid] */\n      swap1\n      pop\n        /* \"contracts/NFTStake.sol\":37454:37475  UserInfo storage user */\n      0x00\n        /* \"contracts/NFTStake.sol\":37478:37486  userInfo */\n      0x08\n        /* \"contracts/NFTStake.sol\":37478:37492  userInfo[_pid] */\n      0x00\n        /* \"contracts/NFTStake.sol\":37487:37491  _pid */\n      dup5\n        /* \"contracts/NFTStake.sol\":37478:37492  userInfo[_pid] */\n      dup2\n      mstore\n      0x20\n      add\n      swap1\n      dup2\n      mstore\n      0x20\n      add\n      0x00\n      keccak256\n        /* \"contracts/NFTStake.sol\":37478:37504  userInfo[_pid][msg.sender] */\n      0x00\n        /* \"contracts/NFTStake.sol\":37493:37503  msg.sender */\n      caller\n        /* \"contracts/NFTStake.sol\":37478:37504  userInfo[_pid][msg.sender] */\n      0xffffffffffffffffffffffffffffffffffffffff\n      and\n      0xffffffffffffffffffffffffffffffffffffffff\n      and\n      dup2\n      mstore\n      0x20\n      add\n      swap1\n      dup2\n      mstore\n      0x20\n      add\n      0x00\n      keccak256\n        /* \"contracts/NFTStake.sol\":37454:37504  UserInfo storage user = userInfo[_pid][msg.sender] */\n      swap1\n      pop\n        /* \"contracts/NFTStake.sol\":37515:37531  updatePool(_pid) */\n      tag_153\n        /* \"contracts/NFTStake.sol\":37526:37530  _pid */\n      dup4\n        /* \"contracts/NFTStake.sol\":37515:37525  updatePool */\n      tag_83\n        /* \"contracts/NFTStake.sol\":37515:37531  updatePool(_pid) */\n      jump\t// in\n    tag_153:\n        /* \"contracts/NFTStake.sol\":37542:37557  uint256 pending */\n      0x00\n        /* \"contracts/NFTStake.sol\":37560:37627  user.amount.mul(pool.accDDTPerShare).div(1e12).sub(user.rewardDebt) */\n      tag_154\n        /* \"contracts/NFTStake.sol\":37611:37615  user */\n      dup3\n        /* \"contracts/NFTStake.sol\":37611:37626  user.rewardDebt */\n      0x02\n      add\n      sload\n        /* \"contracts/NFTStake.sol\":37560:37606  user.amount.mul(pool.accDDTPerShare).div(1e12) */\n      tag_155\n        /* \"contracts/NFTStake.sol\":37601:37605  1e12 */\n      0xe8d4a51000\n        /* \"contracts/NFTStake.sol\":37560:37596  user.amount.mul(pool.accDDTPerShare) */\n      tag_156\n        /* \"contracts/NFTStake.sol\":37576:37580  pool */\n      dup8\n        /* \"contracts/NFTStake.sol\":37576:37595  pool.accDDTPerShare */\n      0x03\n      add\n      sload\n        /* \"contracts/NFTStake.sol\":37560:37564  user */\n      dup8\n        /* \"contracts/NFTStake.sol\":37560:37571  user.amount */\n      0x01\n      add\n      sload\n        /* \"contracts/NFTStake.sol\":37560:37575  user.amount.mul */\n      tag_157\n      swap1\n        /* \"contracts/NFTStake.sol\":37560:37596  user.amount.mul(pool.accDDTPerShare) */\n      swap2\n      swap1\n      0xffffffff\n      and\n      jump\t// in\n    tag_156:\n        /* \"contracts/NFTStake.sol\":37560:37600  user.amount.mul(pool.accDDTPerShare).div */\n      tag_158\n      swap1\n        /* \"contracts/NFTStake.sol\":37560:37606  user.amount.mul(pool.accDDTPerShare).div(1e12) */\n      swap2\n      swap1\n      0xffffffff\n      and\n      jump\t// in\n    tag_155:\n        /* \"contracts/NFTStake.sol\":37560:37610  user.amount.mul(pool.accDDTPerShare).div(1e12).sub */\n      tag_159\n      swap1\n        /* \"contracts/NFTStake.sol\":37560:37627  user.amount.mul(pool.accDDTPerShare).div(1e12).sub(user.rewardDebt) */\n      swap2\n      swap1\n      0xffffffff\n      and\n      jump\t// in\n    tag_154:\n        /* \"contracts/NFTStake.sol\":37542:37627  uint256 pending = user.amount.mul(pool.accDDTPerShare).div(1e12).sub(user.rewardDebt) */\n      swap1\n      pop\n        /* \"contracts/NFTStake.sol\":37656:37657  0 */\n      0x00\n        /* \"contracts/NFTStake.sol\":37646:37653  pending */\n      dup2\n        /* \"contracts/NFTStake.sol\":37646:37657  pending > 0 */\n      gt\n        /* \"contracts/NFTStake.sol\":37638:37676  require(pending > 0, \"Amount is zero\") */\n      tag_160\n      jumpi\n      mload(0x40)\n      0x08c379a000000000000000000000000000000000000000000000000000000000\n      dup2\n      mstore\n      0x04\n      add\n      tag_161\n      swap1\n      tag_162\n      jump\t// in\n    tag_161:\n      mload(0x40)\n      dup1\n      swap2\n      sub\n      swap1\n      revert\n    tag_160:\n        /* \"contracts/NFTStake.sol\":37687:37690  DDT */\n      0x02\n      0x00\n      swap1\n      sload\n      swap1\n      0x0100\n      exp\n      swap1\n      div\n      0xffffffffffffffffffffffffffffffffffffffff\n      and\n        /* \"contracts/NFTStake.sol\":37687:37698  DDT.approve */\n      0xffffffffffffffffffffffffffffffffffffffff\n      and\n      0x095ea7b3\n        /* \"contracts/NFTStake.sol\":37707:37720  NFTMasterChef */\n      0x01\n      0x00\n      swap1\n      sload\n      swap1\n      0x0100\n      exp\n      swap1\n      div\n      0xffffffffffffffffffffffffffffffffffffffff\n      and\n        /* \"contracts/NFTStake.sol\":37723:37730  pending */\n      dup4\n        /* \"contracts/NFTStake.sol\":37687:37731  DDT.approve(address(NFTMasterChef), pending) */\n      mload(0x40)\n      dup4\n      0xffffffff\n      and\n      0xe0\n      shl\n      dup2\n      mstore\n      0x04\n      add\n      tag_163\n      swap3\n      swap2\n      swap1\n      tag_164\n      jump\t// in\n    tag_163:\n      0x20\n      mload(0x40)\n      dup1\n      dup4\n      sub\n      dup2\n      0x00\n      dup8\n      dup1\n      extcodesize\n      iszero\n      dup1\n      iszero\n      tag_165\n      jumpi\n      0x00\n      dup1\n      revert\n    tag_165:\n      pop\n      gas\n      call\n      iszero\n      dup1\n      iszero\n      tag_167\n      jumpi\n      returndatasize\n      0x00\n      dup1\n      returndatacopy\n      revert(0x00, returndatasize)\n    tag_167:\n      pop\n      pop\n      pop\n      pop\n      mload(0x40)\n      returndatasize\n      not(0x1f)\n      0x1f\n      dup3\n      add\n      and\n      dup3\n      add\n      dup1\n      0x40\n      mstore\n      pop\n      dup2\n      add\n      swap1\n      tag_168\n      swap2\n      swap1\n      tag_169\n      jump\t// in\n    tag_168:\n      pop\n        /* \"contracts/NFTStake.sol\":37742:37755  NFTMasterChef */\n      0x01\n      0x00\n      swap1\n      sload\n      swap1\n      0x0100\n      exp\n      swap1\n      div\n      0xffffffffffffffffffffffffffffffffffffffff\n      and\n        /* \"contracts/NFTStake.sol\":37742:37775  NFTMasterChef.enterStakingCompund */\n      0xffffffffffffffffffffffffffffffffffffffff\n      and\n      0xcf35fddf\n        /* \"contracts/NFTStake.sol\":37776:37783  pending */\n      dup3\n        /* \"contracts/NFTStake.sol\":37785:37795  msg.sender */\n      caller\n        /* \"contracts/NFTStake.sol\":37742:37796  NFTMasterChef.enterStakingCompund(pending, msg.sender) */\n      mload(0x40)\n      dup4\n      0xffffffff\n      and\n      0xe0\n      shl\n      dup2\n      mstore\n      0x04\n      add\n      tag_170\n      swap3\n      swap2\n      swap1\n      tag_171\n      jump\t// in\n    tag_170:\n      0x00\n      mload(0x40)\n      dup1\n      dup4\n      sub\n      dup2\n      0x00\n      dup8\n      dup1\n      extcodesize\n      iszero\n      dup1\n      iszero\n      tag_172\n      jumpi\n      0x00\n      dup1\n      revert\n    tag_172:\n      pop\n      gas\n      call\n      iszero\n      dup1\n      iszero\n      tag_174\n      jumpi\n      returndatasize\n      0x00\n      dup1\n      returndatacopy\n      revert(0x00, returndatasize)\n    tag_174:\n      pop\n      pop\n      pop\n      pop\n        /* \"contracts/NFTStake.sol\":37825:37871  user.amount.mul(pool.accDDTPerShare).div(1e12) */\n      tag_175\n        /* \"contracts/NFTStake.sol\":37866:37870  1e12 */\n      0xe8d4a51000\n        /* \"contracts/NFTStake.sol\":37825:37861  user.amount.mul(pool.accDDTPerShare) */\n      tag_176\n        /* \"contracts/NFTStake.sol\":37841:37845  pool */\n      dup6\n        /* \"contracts/NFTStake.sol\":37841:37860  pool.accDDTPerShare */\n      0x03\n      add\n      sload\n        /* \"contracts/NFTStake.sol\":37825:37829  user */\n      dup6\n        /* \"contracts/NFTStake.sol\":37825:37836  user.amount */\n      0x01\n      add\n      sload\n        /* \"contracts/NFTStake.sol\":37825:37840  user.amount.mul */\n      tag_157\n      swap1\n        /* \"contracts/NFTStake.sol\":37825:37861  user.amount.mul(pool.accDDTPerShare) */\n      swap2\n      swap1\n      0xffffffff\n      and\n      jump\t// in\n    tag_176:\n        /* \"contracts/NFTStake.sol\":37825:37865  user.amount.mul(pool.accDDTPerShare).div */\n      tag_158\n      swap1\n        /* \"contracts/NFTStake.sol\":37825:37871  user.amount.mul(pool.accDDTPerShare).div(1e12) */\n      swap2\n      swap1\n      0xffffffff\n      and\n      jump\t// in\n    tag_175:\n        /* \"contracts/NFTStake.sol\":37807:37811  user */\n      dup3\n        /* \"contracts/NFTStake.sol\":37807:37822  user.rewardDebt */\n      0x02\n      add\n        /* \"contracts/NFTStake.sol\":37807:37871  user.rewardDebt = user.amount.mul(pool.accDDTPerShare).div(1e12) */\n      dup2\n      swap1\n      sstore\n      pop\n        /* \"contracts/NFTStake.sol\":37908:37912  _pid */\n      dup4\n        /* \"contracts/NFTStake.sol\":37896:37906  msg.sender */\n      caller\n        /* \"contracts/NFTStake.sol\":37887:37922  Withdraw(msg.sender, _pid, pending) */\n      0xffffffffffffffffffffffffffffffffffffffff\n      and\n      0xf279e6a1f5e320cca91135676d9cb6e44ca8a08c0b88342bcdb1144f6511b568\n        /* \"contracts/NFTStake.sol\":37914:37921  pending */\n      dup4\n        /* \"contracts/NFTStake.sol\":37887:37922  Withdraw(msg.sender, _pid, pending) */\n      mload(0x40)\n      tag_177\n      swap2\n      swap1\n      tag_42\n      jump\t// in\n    tag_177:\n      mload(0x40)\n      dup1\n      swap2\n      sub\n      swap1\n      log3\n        /* \"contracts/NFTStake.sol\":37394:37930  {\r... */\n      pop\n      pop\n      pop\n        /* \"contracts/NFTStake.sol\":37353:37930  function compundDDT(uint256 _pid) public {\r... */\n      pop\n      jump\t// out\n        /* \"contracts/NFTStake.sol\":30929:31093  function onERC721Received(address, address, uint256, bytes memory) public virtual override returns (bytes4) {\r... */\n    tag_50:\n        /* \"contracts/NFTStake.sol\":31029:31035  bytes4 */\n      0x00\n        /* \"contracts/NFTStake.sol\":31055:31085  this.onERC721Received.selector */\n      shl(0xe0, 0x150b7a02)\n        /* \"contracts/NFTStake.sol\":31048:31085  return this.onERC721Received.selector */\n      swap1\n      pop\n        /* \"contracts/NFTStake.sol\":30929:31093  function onERC721Received(address, address, uint256, bytes memory) public virtual override returns (bytes4) {\r... */\n      swap5\n      swap4\n      pop\n      pop\n      pop\n      pop\n      jump\t// out\n        /* \"contracts/NFTStake.sol\":29846:29872  PoolInfo[] public poolInfo */\n    tag_55:\n      0x07\n      dup2\n      dup2\n      sload\n      dup2\n      lt\n      tag_179\n      jumpi\n      0x00\n      dup1\n      revert\n    tag_179:\n      swap1\n      0x00\n      mstore\n      keccak256(0x00, 0x20)\n      swap1\n      0x04\n      mul\n      add\n      0x00\n      swap2\n      pop\n      swap1\n      pop\n      dup1\n      0x00\n      add\n      0x00\n      swap1\n      sload\n      swap1\n      0x0100\n      exp\n      swap1\n      div\n      0xffffffffffffffffffffffffffffffffffffffff\n      and\n      swap1\n      dup1\n      0x01\n      add\n      sload\n      swap1\n      dup1\n      0x02\n      add\n      sload\n      swap1\n      dup1\n      0x03\n      add\n      sload\n      swap1\n      pop\n      dup5\n      jump\t// out\n        /* \"contracts/NFTStake.sol\":30087:30121  uint256 public totalAllocPoint = 0 */\n    tag_59:\n      sload(0x09)\n      dup2\n      jump\t// out\n        /* \"contracts/NFTStake.sol\":31496:32058  function add( uint256 _allocPoint, IERC721 _NFTToken, bool _withUpdate ) public onlyOwner {\r... */\n    tag_64:\n        /* \"contracts/NFTStake.sol\":20406:20418  _msgSender() */\n      tag_182\n        /* \"contracts/NFTStake.sol\":20406:20416  _msgSender */\n      tag_183\n        /* \"contracts/NFTStake.sol\":20406:20418  _msgSender() */\n      jump\t// in\n    tag_182:\n        /* \"contracts/NFTStake.sol\":20395:20418  owner() == _msgSender() */\n      0xffffffffffffffffffffffffffffffffffffffff\n      and\n        /* \"contracts/NFTStake.sol\":20395:20402  owner() */\n      tag_184\n        /* \"contracts/NFTStake.sol\":20395:20400  owner */\n      tag_106\n        /* \"contracts/NFTStake.sol\":20395:20402  owner() */\n      jump\t// in\n    tag_184:\n        /* \"contracts/NFTStake.sol\":20395:20418  owner() == _msgSender() */\n      0xffffffffffffffffffffffffffffffffffffffff\n      and\n      eq\n        /* \"contracts/NFTStake.sol\":20387:20455  require(owner() == _msgSender(), \"Ownable: caller is not the owner\") */\n      tag_185\n      jumpi\n      mload(0x40)\n      0x08c379a000000000000000000000000000000000000000000000000000000000\n      dup2\n      mstore\n      0x04\n      add\n      tag_186\n      swap1\n      tag_187\n      jump\t// in\n    tag_186:\n      mload(0x40)\n      dup1\n      swap2\n      sub\n      swap1\n      revert\n    tag_185:\n        /* \"contracts/NFTStake.sol\":31601:31612  _withUpdate */\n      dup1\n        /* \"contracts/NFTStake.sol\":31597:31658  if (_withUpdate) {\r... */\n      iszero\n      tag_189\n      jumpi\n        /* \"contracts/NFTStake.sol\":31629:31646  massUpdatePools() */\n      tag_190\n        /* \"contracts/NFTStake.sol\":31629:31644  massUpdatePools */\n      tag_91\n        /* \"contracts/NFTStake.sol\":31629:31646  massUpdatePools() */\n      jump\t// in\n    tag_190:\n        /* \"contracts/NFTStake.sol\":31597:31658  if (_withUpdate) {\r... */\n    tag_189:\n        /* \"contracts/NFTStake.sol\":31668:31691  uint256 lastRewardBlock */\n      0x00\n        /* \"contracts/NFTStake.sol\":31709:31719  startBlock */\n      sload(0x0a)\n        /* \"contracts/NFTStake.sol\":31694:31706  block.number */\n      number\n        /* \"contracts/NFTStake.sol\":31694:31719  block.number > startBlock */\n      gt\n        /* \"contracts/NFTStake.sol\":31694:31747  block.number > startBlock ? block.number : startBlock */\n      tag_191\n      jumpi\n        /* \"contracts/NFTStake.sol\":31737:31747  startBlock */\n      sload(0x0a)\n        /* \"contracts/NFTStake.sol\":31694:31747  block.number > startBlock ? block.number : startBlock */\n      jump(tag_192)\n    tag_191:\n        /* \"contracts/NFTStake.sol\":31722:31734  block.number */\n      number\n        /* \"contracts/NFTStake.sol\":31694:31747  block.number > startBlock ? block.number : startBlock */\n    tag_192:\n        /* \"contracts/NFTStake.sol\":31668:31747  uint256 lastRewardBlock = block.number > startBlock ? block.number : startBlock */\n      swap1\n      pop\n        /* \"contracts/NFTStake.sol\":31776:31808  totalAllocPoint.add(_allocPoint) */\n      tag_193\n        /* \"contracts/NFTStake.sol\":31796:31807  _allocPoint */\n      dup5\n        /* \"contracts/NFTStake.sol\":31776:31791  totalAllocPoint */\n      sload(0x09)\n        /* \"contracts/NFTStake.sol\":31776:31795  totalAllocPoint.add */\n      tag_194\n      swap1\n        /* \"contracts/NFTStake.sol\":31776:31808  totalAllocPoint.add(_allocPoint) */\n      swap2\n      swap1\n      0xffffffff\n      and\n      jump\t// in\n    tag_193:\n        /* \"contracts/NFTStake.sol\":31758:31773  totalAllocPoint */\n      0x09\n        /* \"contracts/NFTStake.sol\":31758:31808  totalAllocPoint = totalAllocPoint.add(_allocPoint) */\n      dup2\n      swap1\n      sstore\n      pop\n        /* \"contracts/NFTStake.sol\":31819:31827  poolInfo */\n      0x07\n        /* \"contracts/NFTStake.sol\":31847:32039  PoolInfo({\r... */\n      mload(0x40)\n      dup1\n      0x80\n      add\n      0x40\n      mstore\n      dup1\n        /* \"contracts/NFTStake.sol\":31885:31894  _NFTToken */\n      dup6\n        /* \"contracts/NFTStake.sol\":31847:32039  PoolInfo({\r... */\n      0xffffffffffffffffffffffffffffffffffffffff\n      and\n      dup2\n      mstore\n      0x20\n      add\n        /* \"contracts/NFTStake.sol\":31925:31936  _allocPoint */\n      dup7\n        /* \"contracts/NFTStake.sol\":31847:32039  PoolInfo({\r... */\n      dup2\n      mstore\n      0x20\n      add\n        /* \"contracts/NFTStake.sol\":31972:31987  lastRewardBlock */\n      dup4\n        /* \"contracts/NFTStake.sol\":31847:32039  PoolInfo({\r... */\n      dup2\n      mstore\n      0x20\n      add\n        /* \"contracts/NFTStake.sol\":32022:32023  0 */\n      0x00\n        /* \"contracts/NFTStake.sol\":31847:32039  PoolInfo({\r... */\n      dup2\n      mstore\n      pop\n        /* \"contracts/NFTStake.sol\":31819:32050  poolInfo.push(\r... */\n      swap1\n      dup1\n      0x01\n      dup2\n      sload\n      add\n      dup1\n      dup3\n      sstore\n      dup1\n      swap2\n      pop\n      pop\n      0x01\n      swap1\n      sub\n      swap1\n      0x00\n      mstore\n      keccak256(0x00, 0x20)\n      swap1\n      0x04\n      mul\n      add\n      0x00\n      swap1\n      swap2\n      swap1\n      swap2\n      swap1\n      swap2\n      pop\n      0x00\n      dup3\n      add\n      mload\n      dup2\n      0x00\n      add\n      exp(0x0100, 0x00)\n      dup2\n      sload\n      dup2\n      0xffffffffffffffffffffffffffffffffffffffff\n      mul\n      not\n      and\n      swap1\n      dup4\n      0xffffffffffffffffffffffffffffffffffffffff\n      and\n      mul\n      or\n      swap1\n      sstore\n      pop\n      0x20\n      dup3\n      add\n      mload\n      dup2\n      0x01\n      add\n      sstore\n      0x40\n      dup3\n      add\n      mload\n      dup2\n      0x02\n      add\n      sstore\n      0x60\n      dup3\n      add\n      mload\n      dup2\n      0x03\n      add\n      sstore\n      pop\n      pop\n        /* \"contracts/NFTStake.sol\":31586:32058  {\r... */\n      pop\n        /* \"contracts/NFTStake.sol\":31496:32058  function add( uint256 _allocPoint, IERC721 _NFTToken, bool _withUpdate ) public onlyOwner {\r... */\n      pop\n      pop\n      pop\n      jump\t// out\n        /* \"contracts/NFTStake.sol\":33115:33868  function pendingDDT(uint256 _pid, address _user) external view returns (uint256){\r... */\n    tag_68:\n        /* \"contracts/NFTStake.sol\":33187:33194  uint256 */\n      0x00\n        /* \"contracts/NFTStake.sol\":33206:33227  PoolInfo storage pool */\n      dup1\n        /* \"contracts/NFTStake.sol\":33230:33238  poolInfo */\n      0x07\n        /* \"contracts/NFTStake.sol\":33239:33243  _pid */\n      dup5\n        /* \"contracts/NFTStake.sol\":33230:33244  poolInfo[_pid] */\n      dup2\n      sload\n      dup2\n      lt\n      tag_197\n      jumpi\n      tag_198\n      tag_151\n      jump\t// in\n    tag_198:\n    tag_197:\n      swap1\n      0x00\n      mstore\n      keccak256(0x00, 0x20)\n      swap1\n      0x04\n      mul\n      add\n        /* \"contracts/NFTStake.sol\":33206:33244  PoolInfo storage pool = poolInfo[_pid] */\n      swap1\n      pop\n        /* \"contracts/NFTStake.sol\":33255:33276  UserInfo storage user */\n      0x00\n        /* \"contracts/NFTStake.sol\":33279:33287  userInfo */\n      0x08\n        /* \"contracts/NFTStake.sol\":33279:33293  userInfo[_pid] */\n      0x00\n        /* \"contracts/NFTStake.sol\":33288:33292  _pid */\n      dup7\n        /* \"contracts/NFTStake.sol\":33279:33293  userInfo[_pid] */\n      dup2\n      mstore\n      0x20\n      add\n      swap1\n      dup2\n      mstore\n      0x20\n      add\n      0x00\n      keccak256\n        /* \"contracts/NFTStake.sol\":33279:33300  userInfo[_pid][_user] */\n      0x00\n        /* \"contracts/NFTStake.sol\":33294:33299  _user */\n      dup6\n        /* \"contracts/NFTStake.sol\":33279:33300  userInfo[_pid][_user] */\n      0xffffffffffffffffffffffffffffffffffffffff\n      and\n      0xffffffffffffffffffffffffffffffffffffffff\n      and\n      dup2\n      mstore\n      0x20\n      add\n      swap1\n      dup2\n      mstore\n      0x20\n      add\n      0x00\n      keccak256\n        /* \"contracts/NFTStake.sol\":33255:33300  UserInfo storage user = userInfo[_pid][_user] */\n      swap1\n      pop\n        /* \"contracts/NFTStake.sol\":33311:33333  uint256 accDDTPerShare */\n      0x00\n        /* \"contracts/NFTStake.sol\":33336:33340  pool */\n      dup3\n        /* \"contracts/NFTStake.sol\":33336:33355  pool.accDDTPerShare */\n      0x03\n      add\n      sload\n        /* \"contracts/NFTStake.sol\":33311:33355  uint256 accDDTPerShare = pool.accDDTPerShare */\n      swap1\n      pop\n        /* \"contracts/NFTStake.sol\":33366:33383  uint256 NFTSupply */\n      0x00\n        /* \"contracts/NFTStake.sol\":33386:33390  pool */\n      dup4\n        /* \"contracts/NFTStake.sol\":33386:33399  pool.NFTToken */\n      0x00\n      add\n      0x00\n      swap1\n      sload\n      swap1\n      0x0100\n      exp\n      swap1\n      div\n      0xffffffffffffffffffffffffffffffffffffffff\n      and\n        /* \"contracts/NFTStake.sol\":33386:33409  pool.NFTToken.balanceOf */\n      0xffffffffffffffffffffffffffffffffffffffff\n      and\n      0x70a08231\n        /* \"contracts/NFTStake.sol\":33418:33422  this */\n      address\n        /* \"contracts/NFTStake.sol\":33386:33424  pool.NFTToken.balanceOf(address(this)) */\n      mload(0x40)\n      dup3\n      0xffffffff\n      and\n      0xe0\n      shl\n      dup2\n      mstore\n      0x04\n      add\n      tag_200\n      swap2\n      swap1\n      tag_108\n      jump\t// in\n    tag_200:\n      0x20\n      mload(0x40)\n      dup1\n      dup4\n      sub\n      dup2\n      dup7\n      dup1\n      extcodesize\n      iszero\n      dup1\n      iszero\n      tag_201\n      jumpi\n      0x00\n      dup1\n      revert\n    tag_201:\n      pop\n      gas\n      staticcall\n      iszero\n      dup1\n      iszero\n      tag_203\n      jumpi\n      returndatasize\n      0x00\n      dup1\n      returndatacopy\n      revert(0x00, returndatasize)\n    tag_203:\n      pop\n      pop\n      pop\n      pop\n      mload(0x40)\n      returndatasize\n      not(0x1f)\n      0x1f\n      dup3\n      add\n      and\n      dup3\n      add\n      dup1\n      0x40\n      mstore\n      pop\n      dup2\n      add\n      swap1\n      tag_204\n      swap2\n      swap1\n      tag_205\n      jump\t// in\n    tag_204:\n        /* \"contracts/NFTStake.sol\":33366:33424  uint256 NFTSupply = pool.NFTToken.balanceOf(address(this)) */\n      swap1\n      pop\n        /* \"contracts/NFTStake.sol\":33454:33458  pool */\n      dup4\n        /* \"contracts/NFTStake.sol\":33454:33474  pool.lastRewardBlock */\n      0x02\n      add\n      sload\n        /* \"contracts/NFTStake.sol\":33439:33451  block.number */\n      number\n        /* \"contracts/NFTStake.sol\":33439:33474  block.number > pool.lastRewardBlock */\n      gt\n        /* \"contracts/NFTStake.sol\":33439:33492  block.number > pool.lastRewardBlock && NFTSupply != 0 */\n      dup1\n      iszero\n      tag_206\n      jumpi\n      pop\n        /* \"contracts/NFTStake.sol\":33491:33492  0 */\n      0x00\n        /* \"contracts/NFTStake.sol\":33478:33487  NFTSupply */\n      dup2\n        /* \"contracts/NFTStake.sol\":33478:33492  NFTSupply != 0 */\n      eq\n      iszero\n        /* \"contracts/NFTStake.sol\":33439:33492  block.number > pool.lastRewardBlock && NFTSupply != 0 */\n    tag_206:\n        /* \"contracts/NFTStake.sol\":33435:33781  if (block.number > pool.lastRewardBlock && NFTSupply != 0) {\r... */\n      iszero\n      tag_207\n      jumpi\n        /* \"contracts/NFTStake.sol\":33509:33527  uint256 multiplier */\n      0x00\n        /* \"contracts/NFTStake.sol\":33530:33579  getMultiplier(pool.lastRewardBlock, block.number) */\n      tag_208\n        /* \"contracts/NFTStake.sol\":33544:33548  pool */\n      dup6\n        /* \"contracts/NFTStake.sol\":33544:33564  pool.lastRewardBlock */\n      0x02\n      add\n      sload\n        /* \"contracts/NFTStake.sol\":33566:33578  block.number */\n      number\n        /* \"contracts/NFTStake.sol\":33530:33543  getMultiplier */\n      tag_111\n        /* \"contracts/NFTStake.sol\":33530:33579  getMultiplier(pool.lastRewardBlock, block.number) */\n      jump\t// in\n    tag_208:\n        /* \"contracts/NFTStake.sol\":33509:33579  uint256 multiplier = getMultiplier(pool.lastRewardBlock, block.number) */\n      swap1\n      pop\n        /* \"contracts/NFTStake.sol\":33594:33611  uint256 DDTReward */\n      0x00\n        /* \"contracts/NFTStake.sol\":33614:33683  multiplier.mul(DDTPerBlock).mul(pool.allocPoint).div(totalAllocPoint) */\n      tag_209\n        /* \"contracts/NFTStake.sol\":33667:33682  totalAllocPoint */\n      sload(0x09)\n        /* \"contracts/NFTStake.sol\":33614:33662  multiplier.mul(DDTPerBlock).mul(pool.allocPoint) */\n      tag_210\n        /* \"contracts/NFTStake.sol\":33646:33650  pool */\n      dup9\n        /* \"contracts/NFTStake.sol\":33646:33661  pool.allocPoint */\n      0x01\n      add\n      sload\n        /* \"contracts/NFTStake.sol\":33614:33641  multiplier.mul(DDTPerBlock) */\n      tag_211\n        /* \"contracts/NFTStake.sol\":33629:33640  DDTPerBlock */\n      sload(0x04)\n        /* \"contracts/NFTStake.sol\":33614:33624  multiplier */\n      dup8\n        /* \"contracts/NFTStake.sol\":33614:33628  multiplier.mul */\n      tag_157\n      swap1\n        /* \"contracts/NFTStake.sol\":33614:33641  multiplier.mul(DDTPerBlock) */\n      swap2\n      swap1\n      0xffffffff\n      and\n      jump\t// in\n    tag_211:\n        /* \"contracts/NFTStake.sol\":33614:33645  multiplier.mul(DDTPerBlock).mul */\n      tag_157\n      swap1\n        /* \"contracts/NFTStake.sol\":33614:33662  multiplier.mul(DDTPerBlock).mul(pool.allocPoint) */\n      swap2\n      swap1\n      0xffffffff\n      and\n      jump\t// in\n    tag_210:\n        /* \"contracts/NFTStake.sol\":33614:33666  multiplier.mul(DDTPerBlock).mul(pool.allocPoint).div */\n      tag_158\n      swap1\n        /* \"contracts/NFTStake.sol\":33614:33683  multiplier.mul(DDTPerBlock).mul(pool.allocPoint).div(totalAllocPoint) */\n      swap2\n      swap1\n      0xffffffff\n      and\n      jump\t// in\n    tag_209:\n        /* \"contracts/NFTStake.sol\":33594:33683  uint256 DDTReward = multiplier.mul(DDTPerBlock).mul(pool.allocPoint).div(totalAllocPoint) */\n      swap1\n      pop\n        /* \"contracts/NFTStake.sol\":33715:33769  accDDTPerShare.add(DDTReward.mul(1e12).div(NFTSupply)) */\n      tag_212\n        /* \"contracts/NFTStake.sol\":33734:33768  DDTReward.mul(1e12).div(NFTSupply) */\n      tag_213\n        /* \"contracts/NFTStake.sol\":33758:33767  NFTSupply */\n      dup5\n        /* \"contracts/NFTStake.sol\":33734:33753  DDTReward.mul(1e12) */\n      tag_214\n        /* \"contracts/NFTStake.sol\":33748:33752  1e12 */\n      0xe8d4a51000\n        /* \"contracts/NFTStake.sol\":33734:33743  DDTReward */\n      dup6\n        /* \"contracts/NFTStake.sol\":33734:33747  DDTReward.mul */\n      tag_157\n      swap1\n        /* \"contracts/NFTStake.sol\":33734:33753  DDTReward.mul(1e12) */\n      swap2\n      swap1\n      0xffffffff\n      and\n      jump\t// in\n    tag_214:\n        /* \"contracts/NFTStake.sol\":33734:33757  DDTReward.mul(1e12).div */\n      tag_158\n      swap1\n        /* \"contracts/NFTStake.sol\":33734:33768  DDTReward.mul(1e12).div(NFTSupply) */\n      swap2\n      swap1\n      0xffffffff\n      and\n      jump\t// in\n    tag_213:\n        /* \"contracts/NFTStake.sol\":33715:33729  accDDTPerShare */\n      dup6\n        /* \"contracts/NFTStake.sol\":33715:33733  accDDTPerShare.add */\n      tag_194\n      swap1\n        /* \"contracts/NFTStake.sol\":33715:33769  accDDTPerShare.add(DDTReward.mul(1e12).div(NFTSupply)) */\n      swap2\n      swap1\n      0xffffffff\n      and\n      jump\t// in\n    tag_212:\n        /* \"contracts/NFTStake.sol\":33698:33769  accDDTPerShare = accDDTPerShare.add(DDTReward.mul(1e12).div(NFTSupply)) */\n      swap4\n      pop\n        /* \"contracts/NFTStake.sol\":33494:33781  {\r... */\n      pop\n      pop\n        /* \"contracts/NFTStake.sol\":33435:33781  if (block.number > pool.lastRewardBlock && NFTSupply != 0) {\r... */\n    tag_207:\n        /* \"contracts/NFTStake.sol\":33798:33860  user.amount.mul(accDDTPerShare).div(1e12).sub(user.rewardDebt) */\n      tag_215\n        /* \"contracts/NFTStake.sol\":33844:33848  user */\n      dup4\n        /* \"contracts/NFTStake.sol\":33844:33859  user.rewardDebt */\n      0x02\n      add\n      sload\n        /* \"contracts/NFTStake.sol\":33798:33839  user.amount.mul(accDDTPerShare).div(1e12) */\n      tag_216\n        /* \"contracts/NFTStake.sol\":33834:33838  1e12 */\n      0xe8d4a51000\n        /* \"contracts/NFTStake.sol\":33798:33829  user.amount.mul(accDDTPerShare) */\n      tag_217\n        /* \"contracts/NFTStake.sol\":33814:33828  accDDTPerShare */\n      dup7\n        /* \"contracts/NFTStake.sol\":33798:33802  user */\n      dup9\n        /* \"contracts/NFTStake.sol\":33798:33809  user.amount */\n      0x01\n      add\n      sload\n        /* \"contracts/NFTStake.sol\":33798:33813  user.amount.mul */\n      tag_157\n      swap1\n        /* \"contracts/NFTStake.sol\":33798:33829  user.amount.mul(accDDTPerShare) */\n      swap2\n      swap1\n      0xffffffff\n      and\n      jump\t// in\n    tag_217:\n        /* \"contracts/NFTStake.sol\":33798:33833  user.amount.mul(accDDTPerShare).div */\n      tag_158\n      swap1\n        /* \"contracts/NFTStake.sol\":33798:33839  user.amount.mul(accDDTPerShare).div(1e12) */\n      swap2\n      swap1\n      0xffffffff\n      and\n      jump\t// in\n    tag_216:\n        /* \"contracts/NFTStake.sol\":33798:33843  user.amount.mul(accDDTPerShare).div(1e12).sub */\n      tag_159\n      swap1\n        /* \"contracts/NFTStake.sol\":33798:33860  user.amount.mul(accDDTPerShare).div(1e12).sub(user.rewardDebt) */\n      swap2\n      swap1\n      0xffffffff\n      and\n      jump\t// in\n    tag_215:\n        /* \"contracts/NFTStake.sol\":33791:33860  return user.amount.mul(accDDTPerShare).div(1e12).sub(user.rewardDebt) */\n      swap5\n      pop\n      pop\n      pop\n      pop\n      pop\n        /* \"contracts/NFTStake.sol\":33115:33868  function pendingDDT(uint256 _pid, address _user) external view returns (uint256){\r... */\n      swap3\n      swap2\n      pop\n      pop\n      jump\t// out\n        /* \"contracts/NFTStake.sol\":32534:32636  function setMigrator(IMigratorChef _migrator) public onlyOwner {\r... */\n    tag_73:\n        /* \"contracts/NFTStake.sol\":20406:20418  _msgSender() */\n      tag_219\n        /* \"contracts/NFTStake.sol\":20406:20416  _msgSender */\n      tag_183\n        /* \"contracts/NFTStake.sol\":20406:20418  _msgSender() */\n      jump\t// in\n    tag_219:\n        /* \"contracts/NFTStake.sol\":20395:20418  owner() == _msgSender() */\n      0xffffffffffffffffffffffffffffffffffffffff\n      and\n        /* \"contracts/NFTStake.sol\":20395:20402  owner() */\n      tag_220\n        /* \"contracts/NFTStake.sol\":20395:20400  owner */\n      tag_106\n        /* \"contracts/NFTStake.sol\":20395:20402  owner() */\n      jump\t// in\n    tag_220:\n        /* \"contracts/NFTStake.sol\":20395:20418  owner() == _msgSender() */\n      0xffffffffffffffffffffffffffffffffffffffff\n      and\n      eq\n        /* \"contracts/NFTStake.sol\":20387:20455  require(owner() == _msgSender(), \"Ownable: caller is not the owner\") */\n      tag_221\n      jumpi\n      mload(0x40)\n      0x08c379a000000000000000000000000000000000000000000000000000000000\n      dup2\n      mstore\n      0x04\n      add\n      tag_222\n      swap1\n      tag_187\n      jump\t// in\n    tag_222:\n      mload(0x40)\n      dup1\n      swap2\n      sub\n      swap1\n      revert\n    tag_221:\n        /* \"contracts/NFTStake.sol\":32619:32628  _migrator */\n      dup1\n        /* \"contracts/NFTStake.sol\":32608:32616  migrator */\n      0x06\n      0x00\n        /* \"contracts/NFTStake.sol\":32608:32628  migrator = _migrator */\n      0x0100\n      exp\n      dup2\n      sload\n      dup2\n      0xffffffffffffffffffffffffffffffffffffffff\n      mul\n      not\n      and\n      swap1\n      dup4\n      0xffffffffffffffffffffffffffffffffffffffff\n      and\n      mul\n      or\n      swap1\n      sstore\n      pop\n        /* \"contracts/NFTStake.sol\":32534:32636  function setMigrator(IMigratorChef _migrator) public onlyOwner {\r... */\n      pop\n      jump\t// out\n        /* \"contracts/NFTStake.sol\":35797:37345  function withdraw(uint256 _pid, uint256 _tokenId) public {\r... */\n    tag_77:\n        /* \"contracts/NFTStake.sol\":35865:35886  PoolInfo storage pool */\n      0x00\n        /* \"contracts/NFTStake.sol\":35889:35897  poolInfo */\n      0x07\n        /* \"contracts/NFTStake.sol\":35898:35902  _pid */\n      dup4\n        /* \"contracts/NFTStake.sol\":35889:35903  poolInfo[_pid] */\n      dup2\n      sload\n      dup2\n      lt\n      tag_225\n      jumpi\n      tag_226\n      tag_151\n      jump\t// in\n    tag_226:\n    tag_225:\n      swap1\n      0x00\n      mstore\n      keccak256(0x00, 0x20)\n      swap1\n      0x04\n      mul\n      add\n        /* \"contracts/NFTStake.sol\":35865:35903  PoolInfo storage pool = poolInfo[_pid] */\n      swap1\n      pop\n        /* \"contracts/NFTStake.sol\":35914:35935  UserInfo storage user */\n      0x00\n        /* \"contracts/NFTStake.sol\":35938:35946  userInfo */\n      0x08\n        /* \"contracts/NFTStake.sol\":35938:35952  userInfo[_pid] */\n      0x00\n        /* \"contracts/NFTStake.sol\":35947:35951  _pid */\n      dup6\n        /* \"contracts/NFTStake.sol\":35938:35952  userInfo[_pid] */\n      dup2\n      mstore\n      0x20\n      add\n      swap1\n      dup2\n      mstore\n      0x20\n      add\n      0x00\n      keccak256\n        /* \"contracts/NFTStake.sol\":35938:35964  userInfo[_pid][msg.sender] */\n      0x00\n        /* \"contracts/NFTStake.sol\":35953:35963  msg.sender */\n      caller\n        /* \"contracts/NFTStake.sol\":35938:35964  userInfo[_pid][msg.sender] */\n      0xffffffffffffffffffffffffffffffffffffffff\n      and\n      0xffffffffffffffffffffffffffffffffffffffff\n      and\n      dup2\n      mstore\n      0x20\n      add\n      swap1\n      dup2\n      mstore\n      0x20\n      add\n      0x00\n      keccak256\n        /* \"contracts/NFTStake.sol\":35914:35964  UserInfo storage user = userInfo[_pid][msg.sender] */\n      swap1\n      pop\n        /* \"contracts/NFTStake.sol\":35999:36000  0 */\n      0x00\n        /* \"contracts/NFTStake.sol\":35985:35989  user */\n      dup2\n        /* \"contracts/NFTStake.sol\":35985:35996  user.amount */\n      0x01\n      add\n      sload\n        /* \"contracts/NFTStake.sol\":35985:36000  user.amount > 0 */\n      gt\n        /* \"contracts/NFTStake.sol\":35977:36023  require(user.amount > 0, 'withdraw: not good') */\n      tag_228\n      jumpi\n      mload(0x40)\n      0x08c379a000000000000000000000000000000000000000000000000000000000\n      dup2\n      mstore\n      0x04\n      add\n      tag_229\n      swap1\n      tag_230\n      jump\t// in\n    tag_229:\n      mload(0x40)\n      dup1\n      swap2\n      sub\n      swap1\n      revert\n    tag_228:\n        /* \"contracts/NFTStake.sol\":36044:36059  uint256 pending */\n      0x00\n        /* \"contracts/NFTStake.sol\":36087:36088  0 */\n      dup1\n        /* \"contracts/NFTStake.sol\":36075:36083  _tokenId */\n      dup5\n        /* \"contracts/NFTStake.sol\":36075:36088  _tokenId == 0 */\n      eq\n        /* \"contracts/NFTStake.sol\":36072:37286  if(_tokenId == 0){\r... */\n      iszero\n      tag_231\n      jumpi\n        /* \"contracts/NFTStake.sol\":36104:36120  updatePool(_pid) */\n      tag_232\n        /* \"contracts/NFTStake.sol\":36115:36119  _pid */\n      dup6\n        /* \"contracts/NFTStake.sol\":36104:36114  updatePool */\n      tag_83\n        /* \"contracts/NFTStake.sol\":36104:36120  updatePool(_pid) */\n      jump\t// in\n    tag_232:\n        /* \"contracts/NFTStake.sol\":36145:36212  user.amount.mul(pool.accDDTPerShare).div(1e12).sub(user.rewardDebt) */\n      tag_233\n        /* \"contracts/NFTStake.sol\":36196:36200  user */\n      dup3\n        /* \"contracts/NFTStake.sol\":36196:36211  user.rewardDebt */\n      0x02\n      add\n      sload\n        /* \"contracts/NFTStake.sol\":36145:36191  user.amount.mul(pool.accDDTPerShare).div(1e12) */\n      tag_234\n        /* \"contracts/NFTStake.sol\":36186:36190  1e12 */\n      0xe8d4a51000\n        /* \"contracts/NFTStake.sol\":36145:36181  user.amount.mul(pool.accDDTPerShare) */\n      tag_235\n        /* \"contracts/NFTStake.sol\":36161:36165  pool */\n      dup8\n        /* \"contracts/NFTStake.sol\":36161:36180  pool.accDDTPerShare */\n      0x03\n      add\n      sload\n        /* \"contracts/NFTStake.sol\":36145:36149  user */\n      dup8\n        /* \"contracts/NFTStake.sol\":36145:36156  user.amount */\n      0x01\n      add\n      sload\n        /* \"contracts/NFTStake.sol\":36145:36160  user.amount.mul */\n      tag_157\n      swap1\n        /* \"contracts/NFTStake.sol\":36145:36181  user.amount.mul(pool.accDDTPerShare) */\n      swap2\n      swap1\n      0xffffffff\n      and\n      jump\t// in\n    tag_235:\n        /* \"contracts/NFTStake.sol\":36145:36185  user.amount.mul(pool.accDDTPerShare).div */\n      tag_158\n      swap1\n        /* \"contracts/NFTStake.sol\":36145:36191  user.amount.mul(pool.accDDTPerShare).div(1e12) */\n      swap2\n      swap1\n      0xffffffff\n      and\n      jump\t// in\n    tag_234:\n        /* \"contracts/NFTStake.sol\":36145:36195  user.amount.mul(pool.accDDTPerShare).div(1e12).sub */\n      tag_159\n      swap1\n        /* \"contracts/NFTStake.sol\":36145:36212  user.amount.mul(pool.accDDTPerShare).div(1e12).sub(user.rewardDebt) */\n      swap2\n      swap1\n      0xffffffff\n      and\n      jump\t// in\n    tag_233:\n        /* \"contracts/NFTStake.sol\":36135:36212  pending = user.amount.mul(pool.accDDTPerShare).div(1e12).sub(user.rewardDebt) */\n      swap1\n      pop\n        /* \"contracts/NFTStake.sol\":36240:36241  0 */\n      0x00\n        /* \"contracts/NFTStake.sol\":36230:36237  pending */\n      dup2\n        /* \"contracts/NFTStake.sol\":36230:36241  pending > 0 */\n      gt\n        /* \"contracts/NFTStake.sol\":36227:36313  if(pending > 0){\r... */\n      iszero\n      tag_236\n      jumpi\n        /* \"contracts/NFTStake.sol\":36261:36297  safeDDTTransfer(msg.sender, pending) */\n      tag_237\n        /* \"contracts/NFTStake.sol\":36277:36287  msg.sender */\n      caller\n        /* \"contracts/NFTStake.sol\":36289:36296  pending */\n      dup3\n        /* \"contracts/NFTStake.sol\":36261:36276  safeDDTTransfer */\n      tag_238\n        /* \"contracts/NFTStake.sol\":36261:36297  safeDDTTransfer(msg.sender, pending) */\n      jump\t// in\n    tag_237:\n        /* \"contracts/NFTStake.sol\":36227:36313  if(pending > 0){\r... */\n    tag_236:\n        /* \"contracts/NFTStake.sol\":36345:36391  user.amount.mul(pool.accDDTPerShare).div(1e12) */\n      tag_239\n        /* \"contracts/NFTStake.sol\":36386:36390  1e12 */\n      0xe8d4a51000\n        /* \"contracts/NFTStake.sol\":36345:36381  user.amount.mul(pool.accDDTPerShare) */\n      tag_240\n        /* \"contracts/NFTStake.sol\":36361:36365  pool */\n      dup6\n        /* \"contracts/NFTStake.sol\":36361:36380  pool.accDDTPerShare */\n      0x03\n      add\n      sload\n        /* \"contracts/NFTStake.sol\":36345:36349  user */\n      dup6\n        /* \"contracts/NFTStake.sol\":36345:36356  user.amount */\n      0x01\n      add\n      sload\n        /* \"contracts/NFTStake.sol\":36345:36360  user.amount.mul */\n      tag_157\n      swap1\n        /* \"contracts/NFTStake.sol\":36345:36381  user.amount.mul(pool.accDDTPerShare) */\n      swap2\n      swap1\n      0xffffffff\n      and\n      jump\t// in\n    tag_240:\n        /* \"contracts/NFTStake.sol\":36345:36385  user.amount.mul(pool.accDDTPerShare).div */\n      tag_158\n      swap1\n        /* \"contracts/NFTStake.sol\":36345:36391  user.amount.mul(pool.accDDTPerShare).div(1e12) */\n      swap2\n      swap1\n      0xffffffff\n      and\n      jump\t// in\n    tag_239:\n        /* \"contracts/NFTStake.sol\":36327:36331  user */\n      dup3\n        /* \"contracts/NFTStake.sol\":36327:36342  user.rewardDebt */\n      0x02\n      add\n        /* \"contracts/NFTStake.sol\":36327:36391  user.rewardDebt = user.amount.mul(pool.accDDTPerShare).div(1e12) */\n      dup2\n      swap1\n      sstore\n      pop\n        /* \"contracts/NFTStake.sol\":36072:37286  if(_tokenId == 0){\r... */\n      jump(tag_241)\n    tag_231:\n        /* \"contracts/NFTStake.sol\":36423:36441  uint256 hasTokenId */\n      0x00\n        /* \"contracts/NFTStake.sol\":36460:36480  uint256 tokenIdIndex */\n      dup1\n        /* \"contracts/NFTStake.sol\":36499:36508  uint256 i */\n      dup1\n        /* \"contracts/NFTStake.sol\":36495:36700  for(uint256 i; i<user.tokenIds.length; i++){\r... */\n    tag_242:\n        /* \"contracts/NFTStake.sol\":36512:36516  user */\n      dup5\n        /* \"contracts/NFTStake.sol\":36512:36525  user.tokenIds */\n      0x00\n      add\n        /* \"contracts/NFTStake.sol\":36512:36532  user.tokenIds.length */\n      dup1\n      sload\n      swap1\n      pop\n        /* \"contracts/NFTStake.sol\":36510:36511  i */\n      dup2\n        /* \"contracts/NFTStake.sol\":36510:36532  i<user.tokenIds.length */\n      lt\n        /* \"contracts/NFTStake.sol\":36495:36700  for(uint256 i; i<user.tokenIds.length; i++){\r... */\n      iszero\n      tag_243\n      jumpi\n        /* \"contracts/NFTStake.sol\":36580:36588  _tokenId */\n      dup7\n        /* \"contracts/NFTStake.sol\":36560:36564  user */\n      dup6\n        /* \"contracts/NFTStake.sol\":36560:36573  user.tokenIds */\n      0x00\n      add\n        /* \"contracts/NFTStake.sol\":36574:36575  i */\n      dup3\n        /* \"contracts/NFTStake.sol\":36560:36576  user.tokenIds[i] */\n      dup2\n      sload\n      dup2\n      lt\n      tag_245\n      jumpi\n      tag_246\n      tag_151\n      jump\t// in\n    tag_246:\n    tag_245:\n      swap1\n      0x00\n      mstore\n      keccak256(0x00, 0x20)\n      add\n      sload\n        /* \"contracts/NFTStake.sol\":36560:36588  user.tokenIds[i] == _tokenId */\n      eq\n        /* \"contracts/NFTStake.sol\":36557:36685  if(user.tokenIds[i] == _tokenId){\r... */\n      iszero\n      tag_248\n      jumpi\n        /* \"contracts/NFTStake.sol\":36625:36626  1 */\n      0x01\n        /* \"contracts/NFTStake.sol\":36612:36626  hasTokenId = 1 */\n      swap3\n      pop\n        /* \"contracts/NFTStake.sol\":36664:36665  i */\n      dup1\n        /* \"contracts/NFTStake.sol\":36649:36665  tokenIdIndex = i */\n      swap2\n      pop\n        /* \"contracts/NFTStake.sol\":36557:36685  if(user.tokenIds[i] == _tokenId){\r... */\n    tag_248:\n        /* \"contracts/NFTStake.sol\":36534:36537  i++ */\n      dup1\n      dup1\n      tag_249\n      swap1\n      tag_250\n      jump\t// in\n    tag_249:\n      swap2\n      pop\n      pop\n        /* \"contracts/NFTStake.sol\":36495:36700  for(uint256 i; i<user.tokenIds.length; i++){\r... */\n      jump(tag_242)\n    tag_243:\n      pop\n        /* \"contracts/NFTStake.sol\":36736:36737  1 */\n      0x01\n        /* \"contracts/NFTStake.sol\":36722:36732  hasTokenId */\n      dup3\n        /* \"contracts/NFTStake.sol\":36722:36737  hasTokenId == 1 */\n      eq\n        /* \"contracts/NFTStake.sol\":36714:36771  require(hasTokenId == 1, 'You are not Owner of token id') */\n      tag_251\n      jumpi\n      mload(0x40)\n      0x08c379a000000000000000000000000000000000000000000000000000000000\n      dup2\n      mstore\n      0x04\n      add\n      tag_252\n      swap1\n      tag_253\n      jump\t// in\n    tag_252:\n      mload(0x40)\n      dup1\n      swap2\n      sub\n      swap1\n      revert\n    tag_251:\n        /* \"contracts/NFTStake.sol\":36800:36816  updatePool(_pid) */\n      tag_254\n        /* \"contracts/NFTStake.sol\":36811:36815  _pid */\n      dup8\n        /* \"contracts/NFTStake.sol\":36800:36810  updatePool */\n      tag_83\n        /* \"contracts/NFTStake.sol\":36800:36816  updatePool(_pid) */\n      jump\t// in\n    tag_254:\n        /* \"contracts/NFTStake.sol\":36841:36908  user.amount.mul(pool.accDDTPerShare).div(1e12).sub(user.rewardDebt) */\n      tag_255\n        /* \"contracts/NFTStake.sol\":36892:36896  user */\n      dup5\n        /* \"contracts/NFTStake.sol\":36892:36907  user.rewardDebt */\n      0x02\n      add\n      sload\n        /* \"contracts/NFTStake.sol\":36841:36887  user.amount.mul(pool.accDDTPerShare).div(1e12) */\n      tag_256\n        /* \"contracts/NFTStake.sol\":36882:36886  1e12 */\n      0xe8d4a51000\n        /* \"contracts/NFTStake.sol\":36841:36877  user.amount.mul(pool.accDDTPerShare) */\n      tag_257\n        /* \"contracts/NFTStake.sol\":36857:36861  pool */\n      dup10\n        /* \"contracts/NFTStake.sol\":36857:36876  pool.accDDTPerShare */\n      0x03\n      add\n      sload\n        /* \"contracts/NFTStake.sol\":36841:36845  user */\n      dup10\n        /* \"contracts/NFTStake.sol\":36841:36852  user.amount */\n      0x01\n      add\n      sload\n        /* \"contracts/NFTStake.sol\":36841:36856  user.amount.mul */\n      tag_157\n      swap1\n        /* \"contracts/NFTStake.sol\":36841:36877  user.amount.mul(pool.accDDTPerShare) */\n      swap2\n      swap1\n      0xffffffff\n      and\n      jump\t// in\n    tag_257:\n        /* \"contracts/NFTStake.sol\":36841:36881  user.amount.mul(pool.accDDTPerShare).div */\n      tag_158\n      swap1\n        /* \"contracts/NFTStake.sol\":36841:36887  user.amount.mul(pool.accDDTPerShare).div(1e12) */\n      swap2\n      swap1\n      0xffffffff\n      and\n      jump\t// in\n    tag_256:\n        /* \"contracts/NFTStake.sol\":36841:36891  user.amount.mul(pool.accDDTPerShare).div(1e12).sub */\n      tag_159\n      swap1\n        /* \"contracts/NFTStake.sol\":36841:36908  user.amount.mul(pool.accDDTPerShare).div(1e12).sub(user.rewardDebt) */\n      swap2\n      swap1\n      0xffffffff\n      and\n      jump\t// in\n    tag_255:\n        /* \"contracts/NFTStake.sol\":36831:36908  pending = user.amount.mul(pool.accDDTPerShare).div(1e12).sub(user.rewardDebt) */\n      swap3\n      pop\n        /* \"contracts/NFTStake.sol\":36936:36937  0 */\n      0x00\n        /* \"contracts/NFTStake.sol\":36926:36933  pending */\n      dup4\n        /* \"contracts/NFTStake.sol\":36926:36937  pending > 0 */\n      gt\n        /* \"contracts/NFTStake.sol\":36923:37009  if(pending > 0){\r... */\n      iszero\n      tag_258\n      jumpi\n        /* \"contracts/NFTStake.sol\":36957:36993  safeDDTTransfer(msg.sender, pending) */\n      tag_259\n        /* \"contracts/NFTStake.sol\":36973:36983  msg.sender */\n      caller\n        /* \"contracts/NFTStake.sol\":36985:36992  pending */\n      dup5\n        /* \"contracts/NFTStake.sol\":36957:36972  safeDDTTransfer */\n      tag_238\n        /* \"contracts/NFTStake.sol\":36957:36993  safeDDTTransfer(msg.sender, pending) */\n      jump\t// in\n    tag_259:\n        /* \"contracts/NFTStake.sol\":36923:37009  if(pending > 0){\r... */\n    tag_258:\n        /* \"contracts/NFTStake.sol\":37037:37055  user.amount.sub(1) */\n      tag_260\n        /* \"contracts/NFTStake.sol\":37053:37054  1 */\n      0x01\n        /* \"contracts/NFTStake.sol\":37037:37041  user */\n      dup6\n        /* \"contracts/NFTStake.sol\":37037:37048  user.amount */\n      0x01\n      add\n      sload\n        /* \"contracts/NFTStake.sol\":37037:37052  user.amount.sub */\n      tag_159\n      swap1\n        /* \"contracts/NFTStake.sol\":37037:37055  user.amount.sub(1) */\n      swap2\n      swap1\n      0xffffffff\n      and\n      jump\t// in\n    tag_260:\n        /* \"contracts/NFTStake.sol\":37023:37027  user */\n      dup5\n        /* \"contracts/NFTStake.sol\":37023:37034  user.amount */\n      0x01\n      add\n        /* \"contracts/NFTStake.sol\":37023:37055  user.amount = user.amount.sub(1) */\n      dup2\n      swap1\n      sstore\n      pop\n        /* \"contracts/NFTStake.sol\":37088:37134  user.amount.mul(pool.accDDTPerShare).div(1e12) */\n      tag_261\n        /* \"contracts/NFTStake.sol\":37129:37133  1e12 */\n      0xe8d4a51000\n        /* \"contracts/NFTStake.sol\":37088:37124  user.amount.mul(pool.accDDTPerShare) */\n      tag_262\n        /* \"contracts/NFTStake.sol\":37104:37108  pool */\n      dup8\n        /* \"contracts/NFTStake.sol\":37104:37123  pool.accDDTPerShare */\n      0x03\n      add\n      sload\n        /* \"contracts/NFTStake.sol\":37088:37092  user */\n      dup8\n        /* \"contracts/NFTStake.sol\":37088:37099  user.amount */\n      0x01\n      add\n      sload\n        /* \"contracts/NFTStake.sol\":37088:37103  user.amount.mul */\n      tag_157\n      swap1\n        /* \"contracts/NFTStake.sol\":37088:37124  user.amount.mul(pool.accDDTPerShare) */\n      swap2\n      swap1\n      0xffffffff\n      and\n      jump\t// in\n    tag_262:\n        /* \"contracts/NFTStake.sol\":37088:37128  user.amount.mul(pool.accDDTPerShare).div */\n      tag_158\n      swap1\n        /* \"contracts/NFTStake.sol\":37088:37134  user.amount.mul(pool.accDDTPerShare).div(1e12) */\n      swap2\n      swap1\n      0xffffffff\n      and\n      jump\t// in\n    tag_261:\n        /* \"contracts/NFTStake.sol\":37070:37074  user */\n      dup5\n        /* \"contracts/NFTStake.sol\":37070:37085  user.rewardDebt */\n      0x02\n      add\n        /* \"contracts/NFTStake.sol\":37070:37134  user.rewardDebt = user.amount.mul(pool.accDDTPerShare).div(1e12) */\n      dup2\n      swap1\n      sstore\n      pop\n        /* \"contracts/NFTStake.sol\":37156:37160  user */\n      dup4\n        /* \"contracts/NFTStake.sol\":37156:37169  user.tokenIds */\n      0x00\n      add\n        /* \"contracts/NFTStake.sol\":37170:37182  tokenIdIndex */\n      dup2\n        /* \"contracts/NFTStake.sol\":37156:37183  user.tokenIds[tokenIdIndex] */\n      dup2\n      sload\n      dup2\n      lt\n      tag_263\n      jumpi\n      tag_264\n      tag_151\n      jump\t// in\n    tag_264:\n    tag_263:\n      swap1\n      0x00\n      mstore\n      keccak256(0x00, 0x20)\n      add\n        /* \"contracts/NFTStake.sol\":37149:37183  delete user.tokenIds[tokenIdIndex] */\n      0x00\n      swap1\n      sstore\n        /* \"contracts/NFTStake.sol\":37198:37202  pool */\n      dup5\n        /* \"contracts/NFTStake.sol\":37198:37211  pool.NFTToken */\n      0x00\n      add\n      0x00\n      swap1\n      sload\n      swap1\n      0x0100\n      exp\n      swap1\n      div\n      0xffffffffffffffffffffffffffffffffffffffff\n      and\n        /* \"contracts/NFTStake.sol\":37198:37228  pool.NFTToken.safeTransferFrom */\n      0xffffffffffffffffffffffffffffffffffffffff\n      and\n      0x42842e0e\n        /* \"contracts/NFTStake.sol\":37237:37241  this */\n      address\n        /* \"contracts/NFTStake.sol\":37252:37262  msg.sender */\n      caller\n        /* \"contracts/NFTStake.sol\":37265:37273  _tokenId */\n      dup10\n        /* \"contracts/NFTStake.sol\":37198:37274  pool.NFTToken.safeTransferFrom(address(this), address(msg.sender), _tokenId) */\n      mload(0x40)\n      dup5\n      0xffffffff\n      and\n      0xe0\n      shl\n      dup2\n      mstore\n      0x04\n      add\n      tag_266\n      swap4\n      swap3\n      swap2\n      swap1\n      tag_267\n      jump\t// in\n    tag_266:\n      0x00\n      mload(0x40)\n      dup1\n      dup4\n      sub\n      dup2\n      0x00\n      dup8\n      dup1\n      extcodesize\n      iszero\n      dup1\n      iszero\n      tag_268\n      jumpi\n      0x00\n      dup1\n      revert\n    tag_268:\n      pop\n      gas\n      call\n      iszero\n      dup1\n      iszero\n      tag_270\n      jumpi\n      returndatasize\n      0x00\n      dup1\n      returndatacopy\n      revert(0x00, returndatasize)\n    tag_270:\n      pop\n      pop\n      pop\n      pop\n        /* \"contracts/NFTStake.sol\":36408:37286  {\r... */\n      pop\n      pop\n        /* \"contracts/NFTStake.sol\":36072:37286  if(_tokenId == 0){\r... */\n    tag_241:\n        /* \"contracts/NFTStake.sol\":37322:37326  _pid */\n      dup5\n        /* \"contracts/NFTStake.sol\":37310:37320  msg.sender */\n      caller\n        /* \"contracts/NFTStake.sol\":37301:37337  Withdraw(msg.sender, _pid, _tokenId) */\n      0xffffffffffffffffffffffffffffffffffffffff\n      and\n      0xf279e6a1f5e320cca91135676d9cb6e44ca8a08c0b88342bcdb1144f6511b568\n        /* \"contracts/NFTStake.sol\":37328:37336  _tokenId */\n      dup7\n        /* \"contracts/NFTStake.sol\":37301:37337  Withdraw(msg.sender, _pid, _tokenId) */\n      mload(0x40)\n      tag_271\n      swap2\n      swap1\n      tag_42\n      jump\t// in\n    tag_271:\n      mload(0x40)\n      dup1\n      swap2\n      sub\n      swap1\n      log3\n        /* \"contracts/NFTStake.sol\":35854:37345  {\r... */\n      pop\n      pop\n      pop\n        /* \"contracts/NFTStake.sol\":35797:37345  function withdraw(uint256 _pid, uint256 _tokenId) public {\r... */\n      pop\n      pop\n      jump\t// out\n        /* \"contracts/NFTStake.sol\":30177:30202  uint256 public startBlock */\n    tag_79:\n      sload(0x0a)\n      dup2\n      jump\t// out\n        /* \"contracts/NFTStake.sol\":34207:34936  function updatePool(uint256 _pid) public {\r... */\n    tag_83:\n        /* \"contracts/NFTStake.sol\":34259:34280  PoolInfo storage pool */\n      0x00\n        /* \"contracts/NFTStake.sol\":34283:34291  poolInfo */\n      0x07\n        /* \"contracts/NFTStake.sol\":34292:34296  _pid */\n      dup3\n        /* \"contracts/NFTStake.sol\":34283:34297  poolInfo[_pid] */\n      dup2\n      sload\n      dup2\n      lt\n      tag_273\n      jumpi\n      tag_274\n      tag_151\n      jump\t// in\n    tag_274:\n    tag_273:\n      swap1\n      0x00\n      mstore\n      keccak256(0x00, 0x20)\n      swap1\n      0x04\n      mul\n      add\n        /* \"contracts/NFTStake.sol\":34259:34297  PoolInfo storage pool = poolInfo[_pid] */\n      swap1\n      pop\n        /* \"contracts/NFTStake.sol\":34328:34332  pool */\n      dup1\n        /* \"contracts/NFTStake.sol\":34328:34348  pool.lastRewardBlock */\n      0x02\n      add\n      sload\n        /* \"contracts/NFTStake.sol\":34312:34324  block.number */\n      number\n        /* \"contracts/NFTStake.sol\":34312:34348  block.number <= pool.lastRewardBlock */\n      gt\n        /* \"contracts/NFTStake.sol\":34308:34383  if (block.number <= pool.lastRewardBlock) {\r... */\n      tag_276\n      jumpi\n        /* \"contracts/NFTStake.sol\":34365:34372  return; */\n      pop\n      jump(tag_272)\n        /* \"contracts/NFTStake.sol\":34308:34383  if (block.number <= pool.lastRewardBlock) {\r... */\n    tag_276:\n        /* \"contracts/NFTStake.sol\":34393:34410  uint256 NFTSupply */\n      0x00\n        /* \"contracts/NFTStake.sol\":34413:34417  pool */\n      dup2\n        /* \"contracts/NFTStake.sol\":34413:34426  pool.NFTToken */\n      0x00\n      add\n      0x00\n      swap1\n      sload\n      swap1\n      0x0100\n      exp\n      swap1\n      div\n      0xffffffffffffffffffffffffffffffffffffffff\n      and\n        /* \"contracts/NFTStake.sol\":34413:34436  pool.NFTToken.balanceOf */\n      0xffffffffffffffffffffffffffffffffffffffff\n      and\n      0x70a08231\n        /* \"contracts/NFTStake.sol\":34445:34449  this */\n      address\n        /* \"contracts/NFTStake.sol\":34413:34451  pool.NFTToken.balanceOf(address(this)) */\n      mload(0x40)\n      dup3\n      0xffffffff\n      and\n      0xe0\n      shl\n      dup2\n      mstore\n      0x04\n      add\n      tag_277\n      swap2\n      swap1\n      tag_108\n      jump\t// in\n    tag_277:\n      0x20\n      mload(0x40)\n      dup1\n      dup4\n      sub\n      dup2\n      dup7\n      dup1\n      extcodesize\n      iszero\n      dup1\n      iszero\n      tag_278\n      jumpi\n      0x00\n      dup1\n      revert\n    tag_278:\n      pop\n      gas\n      staticcall\n      iszero\n      dup1\n      iszero\n      tag_280\n      jumpi\n      returndatasize\n      0x00\n      dup1\n      returndatacopy\n      revert(0x00, returndatasize)\n    tag_280:\n      pop\n      pop\n      pop\n      pop\n      mload(0x40)\n      returndatasize\n      not(0x1f)\n      0x1f\n      dup3\n      add\n      and\n      dup3\n      add\n      dup1\n      0x40\n      mstore\n      pop\n      dup2\n      add\n      swap1\n      tag_281\n      swap2\n      swap1\n      tag_205\n      jump\t// in\n    tag_281:\n        /* \"contracts/NFTStake.sol\":34393:34451  uint256 NFTSupply = pool.NFTToken.balanceOf(address(this)) */\n      swap1\n      pop\n        /* \"contracts/NFTStake.sol\":34479:34480  0 */\n      0x00\n        /* \"contracts/NFTStake.sol\":34466:34475  NFTSupply */\n      dup2\n        /* \"contracts/NFTStake.sol\":34466:34480  NFTSupply <= 0 */\n      gt\n        /* \"contracts/NFTStake.sol\":34462:34565  if (NFTSupply <= 0) {\r... */\n      tag_282\n      jumpi\n        /* \"contracts/NFTStake.sol\":34520:34532  block.number */\n      number\n        /* \"contracts/NFTStake.sol\":34497:34501  pool */\n      dup3\n        /* \"contracts/NFTStake.sol\":34497:34517  pool.lastRewardBlock */\n      0x02\n      add\n        /* \"contracts/NFTStake.sol\":34497:34532  pool.lastRewardBlock = block.number */\n      dup2\n      swap1\n      sstore\n      pop\n        /* \"contracts/NFTStake.sol\":34547:34554  return; */\n      pop\n      pop\n      jump(tag_272)\n        /* \"contracts/NFTStake.sol\":34462:34565  if (NFTSupply <= 0) {\r... */\n    tag_282:\n        /* \"contracts/NFTStake.sol\":34575:34593  uint256 multiplier */\n      0x00\n        /* \"contracts/NFTStake.sol\":34596:34645  getMultiplier(pool.lastRewardBlock, block.number) */\n      tag_283\n        /* \"contracts/NFTStake.sol\":34610:34614  pool */\n      dup4\n        /* \"contracts/NFTStake.sol\":34610:34630  pool.lastRewardBlock */\n      0x02\n      add\n      sload\n        /* \"contracts/NFTStake.sol\":34632:34644  block.number */\n      number\n        /* \"contracts/NFTStake.sol\":34596:34609  getMultiplier */\n      tag_111\n        /* \"contracts/NFTStake.sol\":34596:34645  getMultiplier(pool.lastRewardBlock, block.number) */\n      jump\t// in\n    tag_283:\n        /* \"contracts/NFTStake.sol\":34575:34645  uint256 multiplier = getMultiplier(pool.lastRewardBlock, block.number) */\n      swap1\n      pop\n        /* \"contracts/NFTStake.sol\":34656:34673  uint256 DDTReward */\n      0x00\n        /* \"contracts/NFTStake.sol\":34676:34745  multiplier.mul(DDTPerBlock).mul(pool.allocPoint).div(totalAllocPoint) */\n      tag_284\n        /* \"contracts/NFTStake.sol\":34729:34744  totalAllocPoint */\n      sload(0x09)\n        /* \"contracts/NFTStake.sol\":34676:34724  multiplier.mul(DDTPerBlock).mul(pool.allocPoint) */\n      tag_285\n        /* \"contracts/NFTStake.sol\":34708:34712  pool */\n      dup7\n        /* \"contracts/NFTStake.sol\":34708:34723  pool.allocPoint */\n      0x01\n      add\n      sload\n        /* \"contracts/NFTStake.sol\":34676:34703  multiplier.mul(DDTPerBlock) */\n      tag_286\n        /* \"contracts/NFTStake.sol\":34691:34702  DDTPerBlock */\n      sload(0x04)\n        /* \"contracts/NFTStake.sol\":34676:34686  multiplier */\n      dup8\n        /* \"contracts/NFTStake.sol\":34676:34690  multiplier.mul */\n      tag_157\n      swap1\n        /* \"contracts/NFTStake.sol\":34676:34703  multiplier.mul(DDTPerBlock) */\n      swap2\n      swap1\n      0xffffffff\n      and\n      jump\t// in\n    tag_286:\n        /* \"contracts/NFTStake.sol\":34676:34707  multiplier.mul(DDTPerBlock).mul */\n      tag_157\n      swap1\n        /* \"contracts/NFTStake.sol\":34676:34724  multiplier.mul(DDTPerBlock).mul(pool.allocPoint) */\n      swap2\n      swap1\n      0xffffffff\n      and\n      jump\t// in\n    tag_285:\n        /* \"contracts/NFTStake.sol\":34676:34728  multiplier.mul(DDTPerBlock).mul(pool.allocPoint).div */\n      tag_158\n      swap1\n        /* \"contracts/NFTStake.sol\":34676:34745  multiplier.mul(DDTPerBlock).mul(pool.allocPoint).div(totalAllocPoint) */\n      swap2\n      swap1\n      0xffffffff\n      and\n      jump\t// in\n    tag_284:\n        /* \"contracts/NFTStake.sol\":34656:34745  uint256 DDTReward = multiplier.mul(DDTPerBlock).mul(pool.allocPoint).div(totalAllocPoint) */\n      swap1\n      pop\n        /* \"contracts/NFTStake.sol\":34756:34759  DDT */\n      0x02\n      0x00\n      swap1\n      sload\n      swap1\n      0x0100\n      exp\n      swap1\n      div\n      0xffffffffffffffffffffffffffffffffffffffff\n      and\n        /* \"contracts/NFTStake.sol\":34756:34764  DDT.mint */\n      0xffffffffffffffffffffffffffffffffffffffff\n      and\n      0x40c10f19\n        /* \"contracts/NFTStake.sol\":34773:34777  this */\n      address\n        /* \"contracts/NFTStake.sol\":34780:34789  DDTReward */\n      dup4\n        /* \"contracts/NFTStake.sol\":34756:34790  DDT.mint(address(this), DDTReward) */\n      mload(0x40)\n      dup4\n      0xffffffff\n      and\n      0xe0\n      shl\n      dup2\n      mstore\n      0x04\n      add\n      tag_287\n      swap3\n      swap2\n      swap1\n      tag_164\n      jump\t// in\n    tag_287:\n      0x20\n      mload(0x40)\n      dup1\n      dup4\n      sub\n      dup2\n      0x00\n      dup8\n      dup1\n      extcodesize\n      iszero\n      dup1\n      iszero\n      tag_288\n      jumpi\n      0x00\n      dup1\n      revert\n    tag_288:\n      pop\n      gas\n      call\n      iszero\n      dup1\n      iszero\n      tag_290\n      jumpi\n      returndatasize\n      0x00\n      dup1\n      returndatacopy\n      revert(0x00, returndatasize)\n    tag_290:\n      pop\n      pop\n      pop\n      pop\n      mload(0x40)\n      returndatasize\n      not(0x1f)\n      0x1f\n      dup3\n      add\n      and\n      dup3\n      add\n      dup1\n      0x40\n      mstore\n      pop\n      dup2\n      add\n      swap1\n      tag_291\n      swap2\n      swap1\n      tag_169\n      jump\t// in\n    tag_291:\n      pop\n        /* \"contracts/NFTStake.sol\":34823:34882  pool.accDDTPerShare.add(DDTReward.mul(1e12).div(NFTSupply)) */\n      tag_292\n        /* \"contracts/NFTStake.sol\":34847:34881  DDTReward.mul(1e12).div(NFTSupply) */\n      tag_293\n        /* \"contracts/NFTStake.sol\":34871:34880  NFTSupply */\n      dup5\n        /* \"contracts/NFTStake.sol\":34847:34866  DDTReward.mul(1e12) */\n      tag_294\n        /* \"contracts/NFTStake.sol\":34861:34865  1e12 */\n      0xe8d4a51000\n        /* \"contracts/NFTStake.sol\":34847:34856  DDTReward */\n      dup6\n        /* \"contracts/NFTStake.sol\":34847:34860  DDTReward.mul */\n      tag_157\n      swap1\n        /* \"contracts/NFTStake.sol\":34847:34866  DDTReward.mul(1e12) */\n      swap2\n      swap1\n      0xffffffff\n      and\n      jump\t// in\n    tag_294:\n        /* \"contracts/NFTStake.sol\":34847:34870  DDTReward.mul(1e12).div */\n      tag_158\n      swap1\n        /* \"contracts/NFTStake.sol\":34847:34881  DDTReward.mul(1e12).div(NFTSupply) */\n      swap2\n      swap1\n      0xffffffff\n      and\n      jump\t// in\n    tag_293:\n        /* \"contracts/NFTStake.sol\":34823:34827  pool */\n      dup6\n        /* \"contracts/NFTStake.sol\":34823:34842  pool.accDDTPerShare */\n      0x03\n      add\n      sload\n        /* \"contracts/NFTStake.sol\":34823:34846  pool.accDDTPerShare.add */\n      tag_194\n      swap1\n        /* \"contracts/NFTStake.sol\":34823:34882  pool.accDDTPerShare.add(DDTReward.mul(1e12).div(NFTSupply)) */\n      swap2\n      swap1\n      0xffffffff\n      and\n      jump\t// in\n    tag_292:\n        /* \"contracts/NFTStake.sol\":34801:34805  pool */\n      dup5\n        /* \"contracts/NFTStake.sol\":34801:34820  pool.accDDTPerShare */\n      0x03\n      add\n        /* \"contracts/NFTStake.sol\":34801:34882  pool.accDDTPerShare = pool.accDDTPerShare.add(DDTReward.mul(1e12).div(NFTSupply)) */\n      dup2\n      swap1\n      sstore\n      pop\n        /* \"contracts/NFTStake.sol\":34916:34928  block.number */\n      number\n        /* \"contracts/NFTStake.sol\":34893:34897  pool */\n      dup5\n        /* \"contracts/NFTStake.sol\":34893:34913  pool.lastRewardBlock */\n      0x02\n      add\n        /* \"contracts/NFTStake.sol\":34893:34928  pool.lastRewardBlock = block.number */\n      dup2\n      swap1\n      sstore\n      pop\n        /* \"contracts/NFTStake.sol\":34248:34936  {\r... */\n      pop\n      pop\n      pop\n      pop\n        /* \"contracts/NFTStake.sol\":34207:34936  function updatePool(uint256 _pid) public {\r... */\n    tag_272:\n      pop\n      jump\t// out\n        /* \"contracts/NFTStake.sol\":31101:31224  function updateMultiplier(uint256 multiplierNumber) public onlyOwner {\r... */\n    tag_86:\n        /* \"contracts/NFTStake.sol\":20406:20418  _msgSender() */\n      tag_296\n        /* \"contracts/NFTStake.sol\":20406:20416  _msgSender */\n      tag_183\n        /* \"contracts/NFTStake.sol\":20406:20418  _msgSender() */\n      jump\t// in\n    tag_296:\n        /* \"contracts/NFTStake.sol\":20395:20418  owner() == _msgSender() */\n      0xffffffffffffffffffffffffffffffffffffffff\n      and\n        /* \"contracts/NFTStake.sol\":20395:20402  owner() */\n      tag_297\n        /* \"contracts/NFTStake.sol\":20395:20400  owner */\n      tag_106\n        /* \"contracts/NFTStake.sol\":20395:20402  owner() */\n      jump\t// in\n    tag_297:\n        /* \"contracts/NFTStake.sol\":20395:20418  owner() == _msgSender() */\n      0xffffffffffffffffffffffffffffffffffffffff\n      and\n      eq\n        /* \"contracts/NFTStake.sol\":20387:20455  require(owner() == _msgSender(), \"Ownable: caller is not the owner\") */\n      tag_298\n      jumpi\n      mload(0x40)\n      0x08c379a000000000000000000000000000000000000000000000000000000000\n      dup2\n      mstore\n      0x04\n      add\n      tag_299\n      swap1\n      tag_187\n      jump\t// in\n    tag_299:\n      mload(0x40)\n      dup1\n      swap2\n      sub\n      swap1\n      revert\n    tag_298:\n        /* \"contracts/NFTStake.sol\":31200:31216  multiplierNumber */\n      dup1\n        /* \"contracts/NFTStake.sol\":31181:31197  BONUS_MULTIPLIER */\n      0x05\n        /* \"contracts/NFTStake.sol\":31181:31216  BONUS_MULTIPLIER = multiplierNumber */\n      dup2\n      swap1\n      sstore\n      pop\n        /* \"contracts/NFTStake.sol\":31101:31224  function updateMultiplier(uint256 multiplierNumber) public onlyOwner {\r... */\n      pop\n      jump\t// out\n        /* \"contracts/NFTStake.sol\":38424:38529  function updateDDTPerBlock(uint256 newAmount) public onlyOwner {\r... */\n    tag_89:\n        /* \"contracts/NFTStake.sol\":20406:20418  _msgSender() */\n      tag_302\n        /* \"contracts/NFTStake.sol\":20406:20416  _msgSender */\n      tag_183\n        /* \"contracts/NFTStake.sol\":20406:20418  _msgSender() */\n      jump\t// in\n    tag_302:\n        /* \"contracts/NFTStake.sol\":20395:20418  owner() == _msgSender() */\n      0xffffffffffffffffffffffffffffffffffffffff\n      and\n        /* \"contracts/NFTStake.sol\":20395:20402  owner() */\n      tag_303\n        /* \"contracts/NFTStake.sol\":20395:20400  owner */\n      tag_106\n        /* \"contracts/NFTStake.sol\":20395:20402  owner() */\n      jump\t// in\n    tag_303:\n        /* \"contracts/NFTStake.sol\":20395:20418  owner() == _msgSender() */\n      0xffffffffffffffffffffffffffffffffffffffff\n      and\n      eq\n        /* \"contracts/NFTStake.sol\":20387:20455  require(owner() == _msgSender(), \"Ownable: caller is not the owner\") */\n      tag_304\n      jumpi\n      mload(0x40)\n      0x08c379a000000000000000000000000000000000000000000000000000000000\n      dup2\n      mstore\n      0x04\n      add\n      tag_305\n      swap1\n      tag_187\n      jump\t// in\n    tag_305:\n      mload(0x40)\n      dup1\n      swap2\n      sub\n      swap1\n      revert\n    tag_304:\n        /* \"contracts/NFTStake.sol\":38512:38521  newAmount */\n      dup1\n        /* \"contracts/NFTStake.sol\":38498:38509  DDTPerBlock */\n      0x04\n        /* \"contracts/NFTStake.sol\":38498:38521  DDTPerBlock = newAmount */\n      dup2\n      swap1\n      sstore\n      pop\n        /* \"contracts/NFTStake.sol\":38424:38529  function updateDDTPerBlock(uint256 newAmount) public onlyOwner {\r... */\n      pop\n      jump\t// out\n        /* \"contracts/NFTStake.sol\":33951:34131  function massUpdatePools() public {\r... */\n    tag_91:\n        /* \"contracts/NFTStake.sol\":33996:34010  uint256 length */\n      0x00\n        /* \"contracts/NFTStake.sol\":34013:34021  poolInfo */\n      0x07\n        /* \"contracts/NFTStake.sol\":34013:34028  poolInfo.length */\n      dup1\n      sload\n      swap1\n      pop\n        /* \"contracts/NFTStake.sol\":33996:34028  uint256 length = poolInfo.length */\n      swap1\n      pop\n        /* \"contracts/NFTStake.sol\":34044:34055  uint256 pid */\n      0x00\n        /* \"contracts/NFTStake.sol\":34039:34124  for (uint256 pid = 0; pid < length; ++pid) {\r... */\n    tag_308:\n        /* \"contracts/NFTStake.sol\":34067:34073  length */\n      dup2\n        /* \"contracts/NFTStake.sol\":34061:34064  pid */\n      dup2\n        /* \"contracts/NFTStake.sol\":34061:34073  pid < length */\n      lt\n        /* \"contracts/NFTStake.sol\":34039:34124  for (uint256 pid = 0; pid < length; ++pid) {\r... */\n      iszero\n      tag_309\n      jumpi\n        /* \"contracts/NFTStake.sol\":34097:34112  updatePool(pid) */\n      tag_311\n        /* \"contracts/NFTStake.sol\":34108:34111  pid */\n      dup2\n        /* \"contracts/NFTStake.sol\":34097:34107  updatePool */\n      tag_83\n        /* \"contracts/NFTStake.sol\":34097:34112  updatePool(pid) */\n      jump\t// in\n    tag_311:\n        /* \"contracts/NFTStake.sol\":34075:34080  ++pid */\n      dup1\n      tag_312\n      swap1\n      tag_250\n      jump\t// in\n    tag_312:\n      swap1\n      pop\n        /* \"contracts/NFTStake.sol\":34039:34124  for (uint256 pid = 0; pid < length; ++pid) {\r... */\n      jump(tag_308)\n    tag_309:\n      pop\n        /* \"contracts/NFTStake.sol\":33985:34131  {\r... */\n      pop\n        /* \"contracts/NFTStake.sol\":33951:34131  function massUpdatePools() public {\r... */\n      jump\t// out\n        /* \"contracts/NFTStake.sol\":32153:32458  function set( uint256 _pid, uint256 _allocPoint, bool _withUpdate) public onlyOwner {\r... */\n    tag_95:\n        /* \"contracts/NFTStake.sol\":20406:20418  _msgSender() */\n      tag_314\n        /* \"contracts/NFTStake.sol\":20406:20416  _msgSender */\n      tag_183\n        /* \"contracts/NFTStake.sol\":20406:20418  _msgSender() */\n      jump\t// in\n    tag_314:\n        /* \"contracts/NFTStake.sol\":20395:20418  owner() == _msgSender() */\n      0xffffffffffffffffffffffffffffffffffffffff\n      and\n        /* \"contracts/NFTStake.sol\":20395:20402  owner() */\n      tag_315\n        /* \"contracts/NFTStake.sol\":20395:20400  owner */\n      tag_106\n        /* \"contracts/NFTStake.sol\":20395:20402  owner() */\n      jump\t// in\n    tag_315:\n        /* \"contracts/NFTStake.sol\":20395:20418  owner() == _msgSender() */\n      0xffffffffffffffffffffffffffffffffffffffff\n      and\n      eq\n        /* \"contracts/NFTStake.sol\":20387:20455  require(owner() == _msgSender(), \"Ownable: caller is not the owner\") */\n      tag_316\n      jumpi\n      mload(0x40)\n      0x08c379a000000000000000000000000000000000000000000000000000000000\n      dup2\n      mstore\n      0x04\n      add\n      tag_317\n      swap1\n      tag_187\n      jump\t// in\n    tag_317:\n      mload(0x40)\n      dup1\n      swap2\n      sub\n      swap1\n      revert\n    tag_316:\n        /* \"contracts/NFTStake.sol\":32252:32263  _withUpdate */\n      dup1\n        /* \"contracts/NFTStake.sol\":32248:32309  if (_withUpdate) {\r... */\n      iszero\n      tag_319\n      jumpi\n        /* \"contracts/NFTStake.sol\":32280:32297  massUpdatePools() */\n      tag_320\n        /* \"contracts/NFTStake.sol\":32280:32295  massUpdatePools */\n      tag_91\n        /* \"contracts/NFTStake.sol\":32280:32297  massUpdatePools() */\n      jump\t// in\n    tag_320:\n        /* \"contracts/NFTStake.sol\":32248:32309  if (_withUpdate) {\r... */\n    tag_319:\n        /* \"contracts/NFTStake.sol\":32337:32400  totalAllocPoint.sub(poolInfo[_pid].allocPoint).add(_allocPoint) */\n      tag_321\n        /* \"contracts/NFTStake.sol\":32388:32399  _allocPoint */\n      dup3\n        /* \"contracts/NFTStake.sol\":32337:32383  totalAllocPoint.sub(poolInfo[_pid].allocPoint) */\n      tag_322\n        /* \"contracts/NFTStake.sol\":32357:32365  poolInfo */\n      0x07\n        /* \"contracts/NFTStake.sol\":32366:32370  _pid */\n      dup7\n        /* \"contracts/NFTStake.sol\":32357:32371  poolInfo[_pid] */\n      dup2\n      sload\n      dup2\n      lt\n      tag_323\n      jumpi\n      tag_324\n      tag_151\n      jump\t// in\n    tag_324:\n    tag_323:\n      swap1\n      0x00\n      mstore\n      keccak256(0x00, 0x20)\n      swap1\n      0x04\n      mul\n      add\n        /* \"contracts/NFTStake.sol\":32357:32382  poolInfo[_pid].allocPoint */\n      0x01\n      add\n      sload\n        /* \"contracts/NFTStake.sol\":32337:32352  totalAllocPoint */\n      sload(0x09)\n        /* \"contracts/NFTStake.sol\":32337:32356  totalAllocPoint.sub */\n      tag_159\n      swap1\n        /* \"contracts/NFTStake.sol\":32337:32383  totalAllocPoint.sub(poolInfo[_pid].allocPoint) */\n      swap2\n      swap1\n      0xffffffff\n      and\n      jump\t// in\n    tag_322:\n        /* \"contracts/NFTStake.sol\":32337:32387  totalAllocPoint.sub(poolInfo[_pid].allocPoint).add */\n      tag_194\n      swap1\n        /* \"contracts/NFTStake.sol\":32337:32400  totalAllocPoint.sub(poolInfo[_pid].allocPoint).add(_allocPoint) */\n      swap2\n      swap1\n      0xffffffff\n      and\n      jump\t// in\n    tag_321:\n        /* \"contracts/NFTStake.sol\":32319:32334  totalAllocPoint */\n      0x09\n        /* \"contracts/NFTStake.sol\":32319:32400  totalAllocPoint = totalAllocPoint.sub(poolInfo[_pid].allocPoint).add(_allocPoint) */\n      dup2\n      swap1\n      sstore\n      pop\n        /* \"contracts/NFTStake.sol\":32439:32450  _allocPoint */\n      dup2\n        /* \"contracts/NFTStake.sol\":32411:32419  poolInfo */\n      0x07\n        /* \"contracts/NFTStake.sol\":32420:32424  _pid */\n      dup5\n        /* \"contracts/NFTStake.sol\":32411:32425  poolInfo[_pid] */\n      dup2\n      sload\n      dup2\n      lt\n      tag_326\n      jumpi\n      tag_327\n      tag_151\n      jump\t// in\n    tag_327:\n    tag_326:\n      swap1\n      0x00\n      mstore\n      keccak256(0x00, 0x20)\n      swap1\n      0x04\n      mul\n      add\n        /* \"contracts/NFTStake.sol\":32411:32436  poolInfo[_pid].allocPoint */\n      0x01\n      add\n        /* \"contracts/NFTStake.sol\":32411:32450  poolInfo[_pid].allocPoint = _allocPoint */\n      dup2\n      swap1\n      sstore\n      pop\n        /* \"contracts/NFTStake.sol\":32153:32458  function set( uint256 _pid, uint256 _allocPoint, bool _withUpdate) public onlyOwner {\r... */\n      pop\n      pop\n      pop\n      jump\t// out\n        /* \"contracts/NFTStake.sol\":20826:20929  function renounceOwnership() public virtual onlyOwner {\r... */\n    tag_97:\n        /* \"contracts/NFTStake.sol\":20406:20418  _msgSender() */\n      tag_330\n        /* \"contracts/NFTStake.sol\":20406:20416  _msgSender */\n      tag_183\n        /* \"contracts/NFTStake.sol\":20406:20418  _msgSender() */\n      jump\t// in\n    tag_330:\n        /* \"contracts/NFTStake.sol\":20395:20418  owner() == _msgSender() */\n      0xffffffffffffffffffffffffffffffffffffffff\n      and\n        /* \"contracts/NFTStake.sol\":20395:20402  owner() */\n      tag_331\n        /* \"contracts/NFTStake.sol\":20395:20400  owner */\n      tag_106\n        /* \"contracts/NFTStake.sol\":20395:20402  owner() */\n      jump\t// in\n    tag_331:\n        /* \"contracts/NFTStake.sol\":20395:20418  owner() == _msgSender() */\n      0xffffffffffffffffffffffffffffffffffffffff\n      and\n      eq\n        /* \"contracts/NFTStake.sol\":20387:20455  require(owner() == _msgSender(), \"Ownable: caller is not the owner\") */\n      tag_332\n      jumpi\n      mload(0x40)\n      0x08c379a000000000000000000000000000000000000000000000000000000000\n      dup2\n      mstore\n      0x04\n      add\n      tag_333\n      swap1\n      tag_187\n      jump\t// in\n    tag_333:\n      mload(0x40)\n      dup1\n      swap2\n      sub\n      swap1\n      revert\n    tag_332:\n        /* \"contracts/NFTStake.sol\":20891:20921  _transferOwnership(address(0)) */\n      tag_335\n        /* \"contracts/NFTStake.sol\":20918:20919  0 */\n      0x00\n        /* \"contracts/NFTStake.sol\":20891:20909  _transferOwnership */\n      tag_336\n        /* \"contracts/NFTStake.sol\":20891:20921  _transferOwnership(address(0)) */\n      jump\t// in\n    tag_335:\n        /* \"contracts/NFTStake.sol\":20826:20929  function renounceOwnership() public virtual onlyOwner {\r... */\n      jump\t// out\n        /* \"contracts/NFTStake.sol\":29783:29812  IMigratorChef public migrator */\n    tag_99:\n      0x06\n      0x00\n      swap1\n      sload\n      swap1\n      0x0100\n      exp\n      swap1\n      div\n      0xffffffffffffffffffffffffffffffffffffffff\n      and\n      dup2\n      jump\t// out\n        /* \"contracts/NFTStake.sol\":29645:29680  uint256 public BONUS_MULTIPLIER = 1 */\n    tag_103:\n      sload(0x05)\n      dup2\n      jump\t// out\n        /* \"contracts/NFTStake.sol\":20175:20262  function owner() public view virtual returns (address) {\r... */\n    tag_106:\n        /* \"contracts/NFTStake.sol\":20221:20228  address */\n      0x00\n        /* \"contracts/NFTStake.sol\":20248:20254  _owner */\n      dup1\n      0x00\n      swap1\n      sload\n      swap1\n      0x0100\n      exp\n      swap1\n      div\n      0xffffffffffffffffffffffffffffffffffffffff\n      and\n        /* \"contracts/NFTStake.sol\":20241:20254  return _owner */\n      swap1\n      pop\n        /* \"contracts/NFTStake.sol\":20175:20262  function owner() public view virtual returns (address) {\r... */\n      swap1\n      jump\t// out\n        /* \"contracts/NFTStake.sol\":32712:32856  function getMultiplier(uint256 _from, uint256 _to) public view returns (uint256) {\r... */\n    tag_111:\n        /* \"contracts/NFTStake.sol\":32784:32791  uint256 */\n      0x00\n        /* \"contracts/NFTStake.sol\":32812:32848  _to.sub(_from).mul(BONUS_MULTIPLIER) */\n      tag_339\n        /* \"contracts/NFTStake.sol\":32831:32847  BONUS_MULTIPLIER */\n      sload(0x05)\n        /* \"contracts/NFTStake.sol\":32812:32826  _to.sub(_from) */\n      tag_340\n        /* \"contracts/NFTStake.sol\":32820:32825  _from */\n      dup6\n        /* \"contracts/NFTStake.sol\":32812:32815  _to */\n      dup6\n        /* \"contracts/NFTStake.sol\":32812:32819  _to.sub */\n      tag_159\n      swap1\n        /* \"contracts/NFTStake.sol\":32812:32826  _to.sub(_from) */\n      swap2\n      swap1\n      0xffffffff\n      and\n      jump\t// in\n    tag_340:\n        /* \"contracts/NFTStake.sol\":32812:32830  _to.sub(_from).mul */\n      tag_157\n      swap1\n        /* \"contracts/NFTStake.sol\":32812:32848  _to.sub(_from).mul(BONUS_MULTIPLIER) */\n      swap2\n      swap1\n      0xffffffff\n      and\n      jump\t// in\n    tag_339:\n        /* \"contracts/NFTStake.sol\":32805:32848  return _to.sub(_from).mul(BONUS_MULTIPLIER) */\n      swap1\n      pop\n        /* \"contracts/NFTStake.sol\":32712:32856  function getMultiplier(uint256 _from, uint256 _to) public view returns (uint256) {\r... */\n      swap3\n      swap2\n      pop\n      pop\n      jump\t// out\n        /* \"contracts/NFTStake.sol\":29928:29992  mapping(uint256 => mapping(address => UserInfo)) public userInfo */\n    tag_115:\n      mstore(0x20, 0x08)\n      dup2\n      0x00\n      mstore\n      mstore(0x20, keccak256(0x00, 0x40))\n      dup1\n      0x00\n      mstore\n      keccak256(0x00, 0x40)\n      0x00\n      swap2\n      pop\n      swap2\n      pop\n      pop\n      dup1\n      0x01\n      add\n      sload\n      swap1\n      dup1\n      0x02\n      add\n      sload\n      swap1\n      pop\n      dup3\n      jump\t// out\n        /* \"contracts/NFTStake.sol\":29454:29471  IERC20 public DDT */\n    tag_119:\n      0x02\n      0x00\n      swap1\n      sload\n      swap1\n      0x0100\n      exp\n      swap1\n      div\n      0xffffffffffffffffffffffffffffffffffffffff\n      and\n      dup2\n      jump\t// out\n        /* \"contracts/NFTStake.sol\":38321:38416  function setDevAddress(address _devaddr) public onlyOwner {\r... */\n    tag_125:\n        /* \"contracts/NFTStake.sol\":20406:20418  _msgSender() */\n      tag_342\n        /* \"contracts/NFTStake.sol\":20406:20416  _msgSender */\n      tag_183\n        /* \"contracts/NFTStake.sol\":20406:20418  _msgSender() */\n      jump\t// in\n    tag_342:\n        /* \"contracts/NFTStake.sol\":20395:20418  owner() == _msgSender() */\n      0xffffffffffffffffffffffffffffffffffffffff\n      and\n        /* \"contracts/NFTStake.sol\":20395:20402  owner() */\n      tag_343\n        /* \"contracts/NFTStake.sol\":20395:20400  owner */\n      tag_106\n        /* \"contracts/NFTStake.sol\":20395:20402  owner() */\n      jump\t// in\n    tag_343:\n        /* \"contracts/NFTStake.sol\":20395:20418  owner() == _msgSender() */\n      0xffffffffffffffffffffffffffffffffffffffff\n      and\n      eq\n        /* \"contracts/NFTStake.sol\":20387:20455  require(owner() == _msgSender(), \"Ownable: caller is not the owner\") */\n      tag_344\n      jumpi\n      mload(0x40)\n      0x08c379a000000000000000000000000000000000000000000000000000000000\n      dup2\n      mstore\n      0x04\n      add\n      tag_345\n      swap1\n      tag_187\n      jump\t// in\n    tag_345:\n      mload(0x40)\n      dup1\n      swap2\n      sub\n      swap1\n      revert\n    tag_344:\n        /* \"contracts/NFTStake.sol\":38400:38408  _devaddr */\n      dup1\n        /* \"contracts/NFTStake.sol\":38390:38397  devaddr */\n      0x03\n      0x00\n        /* \"contracts/NFTStake.sol\":38390:38408  devaddr = _devaddr */\n      0x0100\n      exp\n      dup2\n      sload\n      dup2\n      0xffffffffffffffffffffffffffffffffffffffff\n      mul\n      not\n      and\n      swap1\n      dup4\n      0xffffffffffffffffffffffffffffffffffffffff\n      and\n      mul\n      or\n      swap1\n      sstore\n      pop\n        /* \"contracts/NFTStake.sol\":38321:38416  function setDevAddress(address _devaddr) public onlyOwner {\r... */\n      pop\n      jump\t// out\n        /* \"contracts/NFTStake.sol\":29499:29521  address public devaddr */\n    tag_127:\n      0x03\n      0x00\n      swap1\n      sload\n      swap1\n      0x0100\n      exp\n      swap1\n      div\n      0xffffffffffffffffffffffffffffffffffffffff\n      and\n      dup2\n      jump\t// out\n        /* \"contracts/NFTStake.sol\":32864:33052  function getUserTokenIds(uint256 _pid, address _user) public view returns (uint256[] memory) {\r... */\n    tag_131:\n        /* \"contracts/NFTStake.sol\":32939:32955  uint256[] memory */\n      0x60\n        /* \"contracts/NFTStake.sol\":32968:32989  UserInfo storage user */\n      0x00\n        /* \"contracts/NFTStake.sol\":32992:33000  userInfo */\n      0x08\n        /* \"contracts/NFTStake.sol\":32992:33006  userInfo[_pid] */\n      0x00\n        /* \"contracts/NFTStake.sol\":33001:33005  _pid */\n      dup6\n        /* \"contracts/NFTStake.sol\":32992:33006  userInfo[_pid] */\n      dup2\n      mstore\n      0x20\n      add\n      swap1\n      dup2\n      mstore\n      0x20\n      add\n      0x00\n      keccak256\n        /* \"contracts/NFTStake.sol\":32992:33013  userInfo[_pid][_user] */\n      0x00\n        /* \"contracts/NFTStake.sol\":33007:33012  _user */\n      dup5\n        /* \"contracts/NFTStake.sol\":32992:33013  userInfo[_pid][_user] */\n      0xffffffffffffffffffffffffffffffffffffffff\n      and\n      0xffffffffffffffffffffffffffffffffffffffff\n      and\n      dup2\n      mstore\n      0x20\n      add\n      swap1\n      dup2\n      mstore\n      0x20\n      add\n      0x00\n      keccak256\n        /* \"contracts/NFTStake.sol\":32968:33013  UserInfo storage user = userInfo[_pid][_user] */\n      swap1\n      pop\n        /* \"contracts/NFTStake.sol\":33031:33035  user */\n      dup1\n        /* \"contracts/NFTStake.sol\":33031:33044  user.tokenIds */\n      0x00\n      add\n        /* \"contracts/NFTStake.sol\":33024:33044  return user.tokenIds */\n      dup1\n      sload\n      dup1\n      0x20\n      mul\n      0x20\n      add\n      mload(0x40)\n      swap1\n      dup2\n      add\n      0x40\n      mstore\n      dup1\n      swap3\n      swap2\n      swap1\n      dup2\n      dup2\n      mstore\n      0x20\n      add\n      dup3\n      dup1\n      sload\n      dup1\n      iszero\n      tag_348\n      jumpi\n      0x20\n      mul\n      dup3\n      add\n      swap2\n      swap1\n      0x00\n      mstore\n      keccak256(0x00, 0x20)\n      swap1\n    tag_349:\n      dup2\n      sload\n      dup2\n      mstore\n      0x20\n      add\n      swap1\n      0x01\n      add\n      swap1\n      dup1\n      dup4\n      gt\n      tag_349\n      jumpi\n    tag_348:\n      pop\n      pop\n      pop\n      pop\n      pop\n      swap2\n      pop\n      pop\n        /* \"contracts/NFTStake.sol\":32864:33052  function getUserTokenIds(uint256 _pid, address _user) public view returns (uint256[] memory) {\r... */\n      swap3\n      swap2\n      pop\n      pop\n      jump\t// out\n        /* \"contracts/NFTStake.sol\":35005:35744  function deposit(uint256 _pid, uint256 _tokenId) public {\r... */\n    tag_136:\n        /* \"contracts/NFTStake.sol\":35072:35093  PoolInfo storage pool */\n      0x00\n        /* \"contracts/NFTStake.sol\":35096:35104  poolInfo */\n      0x07\n        /* \"contracts/NFTStake.sol\":35105:35109  _pid */\n      dup4\n        /* \"contracts/NFTStake.sol\":35096:35110  poolInfo[_pid] */\n      dup2\n      sload\n      dup2\n      lt\n      tag_351\n      jumpi\n      tag_352\n      tag_151\n      jump\t// in\n    tag_352:\n    tag_351:\n      swap1\n      0x00\n      mstore\n      keccak256(0x00, 0x20)\n      swap1\n      0x04\n      mul\n      add\n        /* \"contracts/NFTStake.sol\":35072:35110  PoolInfo storage pool = poolInfo[_pid] */\n      swap1\n      pop\n        /* \"contracts/NFTStake.sol\":35121:35142  UserInfo storage user */\n      0x00\n        /* \"contracts/NFTStake.sol\":35145:35153  userInfo */\n      0x08\n        /* \"contracts/NFTStake.sol\":35145:35159  userInfo[_pid] */\n      0x00\n        /* \"contracts/NFTStake.sol\":35154:35158  _pid */\n      dup6\n        /* \"contracts/NFTStake.sol\":35145:35159  userInfo[_pid] */\n      dup2\n      mstore\n      0x20\n      add\n      swap1\n      dup2\n      mstore\n      0x20\n      add\n      0x00\n      keccak256\n        /* \"contracts/NFTStake.sol\":35145:35171  userInfo[_pid][msg.sender] */\n      0x00\n        /* \"contracts/NFTStake.sol\":35160:35170  msg.sender */\n      caller\n        /* \"contracts/NFTStake.sol\":35145:35171  userInfo[_pid][msg.sender] */\n      0xffffffffffffffffffffffffffffffffffffffff\n      and\n      0xffffffffffffffffffffffffffffffffffffffff\n      and\n      dup2\n      mstore\n      0x20\n      add\n      swap1\n      dup2\n      mstore\n      0x20\n      add\n      0x00\n      keccak256\n        /* \"contracts/NFTStake.sol\":35121:35171  UserInfo storage user = userInfo[_pid][msg.sender] */\n      swap1\n      pop\n        /* \"contracts/NFTStake.sol\":35182:35198  updatePool(_pid) */\n      tag_354\n        /* \"contracts/NFTStake.sol\":35193:35197  _pid */\n      dup5\n        /* \"contracts/NFTStake.sol\":35182:35192  updatePool */\n      tag_83\n        /* \"contracts/NFTStake.sol\":35182:35198  updatePool(_pid) */\n      jump\t// in\n    tag_354:\n        /* \"contracts/NFTStake.sol\":35227:35228  0 */\n      0x00\n        /* \"contracts/NFTStake.sol\":35213:35217  user */\n      dup2\n        /* \"contracts/NFTStake.sol\":35213:35224  user.amount */\n      0x01\n      add\n      sload\n        /* \"contracts/NFTStake.sol\":35213:35228  user.amount > 0 */\n      gt\n        /* \"contracts/NFTStake.sol\":35209:35442  if (user.amount > 0) {\r... */\n      iszero\n      tag_355\n      jumpi\n        /* \"contracts/NFTStake.sol\":35245:35260  uint256 pending */\n      0x00\n        /* \"contracts/NFTStake.sol\":35263:35330  user.amount.mul(pool.accDDTPerShare).div(1e12).sub(user.rewardDebt) */\n      tag_356\n        /* \"contracts/NFTStake.sol\":35314:35318  user */\n      dup3\n        /* \"contracts/NFTStake.sol\":35314:35329  user.rewardDebt */\n      0x02\n      add\n      sload\n        /* \"contracts/NFTStake.sol\":35263:35309  user.amount.mul(pool.accDDTPerShare).div(1e12) */\n      tag_357\n        /* \"contracts/NFTStake.sol\":35304:35308  1e12 */\n      0xe8d4a51000\n        /* \"contracts/NFTStake.sol\":35263:35299  user.amount.mul(pool.accDDTPerShare) */\n      tag_358\n        /* \"contracts/NFTStake.sol\":35279:35283  pool */\n      dup8\n        /* \"contracts/NFTStake.sol\":35279:35298  pool.accDDTPerShare */\n      0x03\n      add\n      sload\n        /* \"contracts/NFTStake.sol\":35263:35267  user */\n      dup8\n        /* \"contracts/NFTStake.sol\":35263:35274  user.amount */\n      0x01\n      add\n      sload\n        /* \"contracts/NFTStake.sol\":35263:35278  user.amount.mul */\n      tag_157\n      swap1\n        /* \"contracts/NFTStake.sol\":35263:35299  user.amount.mul(pool.accDDTPerShare) */\n      swap2\n      swap1\n      0xffffffff\n      and\n      jump\t// in\n    tag_358:\n        /* \"contracts/NFTStake.sol\":35263:35303  user.amount.mul(pool.accDDTPerShare).div */\n      tag_158\n      swap1\n        /* \"contracts/NFTStake.sol\":35263:35309  user.amount.mul(pool.accDDTPerShare).div(1e12) */\n      swap2\n      swap1\n      0xffffffff\n      and\n      jump\t// in\n    tag_357:\n        /* \"contracts/NFTStake.sol\":35263:35313  user.amount.mul(pool.accDDTPerShare).div(1e12).sub */\n      tag_159\n      swap1\n        /* \"contracts/NFTStake.sol\":35263:35330  user.amount.mul(pool.accDDTPerShare).div(1e12).sub(user.rewardDebt) */\n      swap2\n      swap1\n      0xffffffff\n      and\n      jump\t// in\n    tag_356:\n        /* \"contracts/NFTStake.sol\":35245:35330  uint256 pending = user.amount.mul(pool.accDDTPerShare).div(1e12).sub(user.rewardDebt) */\n      swap1\n      pop\n        /* \"contracts/NFTStake.sol\":35358:35359  0 */\n      0x00\n        /* \"contracts/NFTStake.sol\":35348:35355  pending */\n      dup2\n        /* \"contracts/NFTStake.sol\":35348:35359  pending > 0 */\n      gt\n        /* \"contracts/NFTStake.sol\":35345:35431  if(pending > 0){\r... */\n      iszero\n      tag_359\n      jumpi\n        /* \"contracts/NFTStake.sol\":35379:35415  safeDDTTransfer(msg.sender, pending) */\n      tag_360\n        /* \"contracts/NFTStake.sol\":35395:35405  msg.sender */\n      caller\n        /* \"contracts/NFTStake.sol\":35407:35414  pending */\n      dup3\n        /* \"contracts/NFTStake.sol\":35379:35394  safeDDTTransfer */\n      tag_238\n        /* \"contracts/NFTStake.sol\":35379:35415  safeDDTTransfer(msg.sender, pending) */\n      jump\t// in\n    tag_360:\n        /* \"contracts/NFTStake.sol\":35345:35431  if(pending > 0){\r... */\n    tag_359:\n        /* \"contracts/NFTStake.sol\":35230:35442  {\r... */\n      pop\n        /* \"contracts/NFTStake.sol\":35209:35442  if (user.amount > 0) {\r... */\n    tag_355:\n        /* \"contracts/NFTStake.sol\":35452:35456  pool */\n      dup2\n        /* \"contracts/NFTStake.sol\":35452:35465  pool.NFTToken */\n      0x00\n      add\n      0x00\n      swap1\n      sload\n      swap1\n      0x0100\n      exp\n      swap1\n      div\n      0xffffffffffffffffffffffffffffffffffffffff\n      and\n        /* \"contracts/NFTStake.sol\":35452:35482  pool.NFTToken.safeTransferFrom */\n      0xffffffffffffffffffffffffffffffffffffffff\n      and\n      0x42842e0e\n        /* \"contracts/NFTStake.sol\":35491:35501  msg.sender */\n      caller\n        /* \"contracts/NFTStake.sol\":35512:35516  this */\n      address\n        /* \"contracts/NFTStake.sol\":35519:35527  _tokenId */\n      dup7\n        /* \"contracts/NFTStake.sol\":35452:35528  pool.NFTToken.safeTransferFrom(address(msg.sender), address(this), _tokenId) */\n      mload(0x40)\n      dup5\n      0xffffffff\n      and\n      0xe0\n      shl\n      dup2\n      mstore\n      0x04\n      add\n      tag_361\n      swap4\n      swap3\n      swap2\n      swap1\n      tag_267\n      jump\t// in\n    tag_361:\n      0x00\n      mload(0x40)\n      dup1\n      dup4\n      sub\n      dup2\n      0x00\n      dup8\n      dup1\n      extcodesize\n      iszero\n      dup1\n      iszero\n      tag_362\n      jumpi\n      0x00\n      dup1\n      revert\n    tag_362:\n      pop\n      gas\n      call\n      iszero\n      dup1\n      iszero\n      tag_364\n      jumpi\n      returndatasize\n      0x00\n      dup1\n      returndatacopy\n      revert(0x00, returndatasize)\n    tag_364:\n      pop\n      pop\n      pop\n      pop\n        /* \"contracts/NFTStake.sol\":35553:35571  user.amount.add(1) */\n      tag_365\n        /* \"contracts/NFTStake.sol\":35569:35570  1 */\n      0x01\n        /* \"contracts/NFTStake.sol\":35553:35557  user */\n      dup3\n        /* \"contracts/NFTStake.sol\":35553:35564  user.amount */\n      0x01\n      add\n      sload\n        /* \"contracts/NFTStake.sol\":35553:35568  user.amount.add */\n      tag_194\n      swap1\n        /* \"contracts/NFTStake.sol\":35553:35571  user.amount.add(1) */\n      swap2\n      swap1\n      0xffffffff\n      and\n      jump\t// in\n    tag_365:\n        /* \"contracts/NFTStake.sol\":35539:35543  user */\n      dup2\n        /* \"contracts/NFTStake.sol\":35539:35550  user.amount */\n      0x01\n      add\n        /* \"contracts/NFTStake.sol\":35539:35571  user.amount = user.amount.add(1) */\n      dup2\n      swap1\n      sstore\n      pop\n        /* \"contracts/NFTStake.sol\":35600:35646  user.amount.mul(pool.accDDTPerShare).div(1e12) */\n      tag_366\n        /* \"contracts/NFTStake.sol\":35641:35645  1e12 */\n      0xe8d4a51000\n        /* \"contracts/NFTStake.sol\":35600:35636  user.amount.mul(pool.accDDTPerShare) */\n      tag_367\n        /* \"contracts/NFTStake.sol\":35616:35620  pool */\n      dup5\n        /* \"contracts/NFTStake.sol\":35616:35635  pool.accDDTPerShare */\n      0x03\n      add\n      sload\n        /* \"contracts/NFTStake.sol\":35600:35604  user */\n      dup5\n        /* \"contracts/NFTStake.sol\":35600:35611  user.amount */\n      0x01\n      add\n      sload\n        /* \"contracts/NFTStake.sol\":35600:35615  user.amount.mul */\n      tag_157\n      swap1\n        /* \"contracts/NFTStake.sol\":35600:35636  user.amount.mul(pool.accDDTPerShare) */\n      swap2\n      swap1\n      0xffffffff\n      and\n      jump\t// in\n    tag_367:\n        /* \"contracts/NFTStake.sol\":35600:35640  user.amount.mul(pool.accDDTPerShare).div */\n      tag_158\n      swap1\n        /* \"contracts/NFTStake.sol\":35600:35646  user.amount.mul(pool.accDDTPerShare).div(1e12) */\n      swap2\n      swap1\n      0xffffffff\n      and\n      jump\t// in\n    tag_366:\n        /* \"contracts/NFTStake.sol\":35582:35586  user */\n      dup2\n        /* \"contracts/NFTStake.sol\":35582:35597  user.rewardDebt */\n      0x02\n      add\n        /* \"contracts/NFTStake.sol\":35582:35646  user.rewardDebt = user.amount.mul(pool.accDDTPerShare).div(1e12) */\n      dup2\n      swap1\n      sstore\n      pop\n        /* \"contracts/NFTStake.sol\":35657:35661  user */\n      dup1\n        /* \"contracts/NFTStake.sol\":35657:35670  user.tokenIds */\n      0x00\n      add\n        /* \"contracts/NFTStake.sol\":35676:35684  _tokenId */\n      dup4\n        /* \"contracts/NFTStake.sol\":35657:35685  user.tokenIds.push(_tokenId) */\n      swap1\n      dup1\n      0x01\n      dup2\n      sload\n      add\n      dup1\n      dup3\n      sstore\n      dup1\n      swap2\n      pop\n      pop\n      0x01\n      swap1\n      sub\n      swap1\n      0x00\n      mstore\n      keccak256(0x00, 0x20)\n      add\n      0x00\n      swap1\n      swap2\n      swap1\n      swap2\n      swap1\n      swap2\n      pop\n      sstore\n        /* \"contracts/NFTStake.sol\":35721:35725  _pid */\n      dup4\n        /* \"contracts/NFTStake.sol\":35709:35719  msg.sender */\n      caller\n        /* \"contracts/NFTStake.sol\":35701:35736  Deposit(msg.sender, _pid, _tokenId) */\n      0xffffffffffffffffffffffffffffffffffffffff\n      and\n      0x90890809c654f11d6e72a28fa60149770a0d11ec6c92319d6ceb2bb0a4ea1a15\n        /* \"contracts/NFTStake.sol\":35727:35735  _tokenId */\n      dup6\n        /* \"contracts/NFTStake.sol\":35701:35736  Deposit(msg.sender, _pid, _tokenId) */\n      mload(0x40)\n      tag_369\n      swap2\n      swap1\n      tag_42\n      jump\t// in\n    tag_369:\n      mload(0x40)\n      dup1\n      swap2\n      sub\n      swap1\n      log3\n        /* \"contracts/NFTStake.sol\":35061:35744  {\r... */\n      pop\n      pop\n        /* \"contracts/NFTStake.sol\":35005:35744  function deposit(uint256 _pid, uint256 _tokenId) public {\r... */\n      pop\n      pop\n      jump\t// out\n        /* \"contracts/NFTStake.sol\":29387:29422  INFTMasterChef public NFTMasterChef */\n    tag_138:\n      0x01\n      0x00\n      swap1\n      sload\n      swap1\n      0x0100\n      exp\n      swap1\n      div\n      0xffffffffffffffffffffffffffffffffffffffff\n      and\n      dup2\n      jump\t// out\n        /* \"contracts/NFTStake.sol\":21084:21285  function transferOwnership(address newOwner) public virtual onlyOwner {\r... */\n    tag_143:\n        /* \"contracts/NFTStake.sol\":20406:20418  _msgSender() */\n      tag_371\n        /* \"contracts/NFTStake.sol\":20406:20416  _msgSender */\n      tag_183\n        /* \"contracts/NFTStake.sol\":20406:20418  _msgSender() */\n      jump\t// in\n    tag_371:\n        /* \"contracts/NFTStake.sol\":20395:20418  owner() == _msgSender() */\n      0xffffffffffffffffffffffffffffffffffffffff\n      and\n        /* \"contracts/NFTStake.sol\":20395:20402  owner() */\n      tag_372\n        /* \"contracts/NFTStake.sol\":20395:20400  owner */\n      tag_106\n        /* \"contracts/NFTStake.sol\":20395:20402  owner() */\n      jump\t// in\n    tag_372:\n        /* \"contracts/NFTStake.sol\":20395:20418  owner() == _msgSender() */\n      0xffffffffffffffffffffffffffffffffffffffff\n      and\n      eq\n        /* \"contracts/NFTStake.sol\":20387:20455  require(owner() == _msgSender(), \"Ownable: caller is not the owner\") */\n      tag_373\n      jumpi\n      mload(0x40)\n      0x08c379a000000000000000000000000000000000000000000000000000000000\n      dup2\n      mstore\n      0x04\n      add\n      tag_374\n      swap1\n      tag_187\n      jump\t// in\n    tag_374:\n      mload(0x40)\n      dup1\n      swap2\n      sub\n      swap1\n      revert\n    tag_373:\n        /* \"contracts/NFTStake.sol\":21193:21194  0 */\n      0x00\n        /* \"contracts/NFTStake.sol\":21173:21195  newOwner != address(0) */\n      0xffffffffffffffffffffffffffffffffffffffff\n      and\n        /* \"contracts/NFTStake.sol\":21173:21181  newOwner */\n      dup2\n        /* \"contracts/NFTStake.sol\":21173:21195  newOwner != address(0) */\n      0xffffffffffffffffffffffffffffffffffffffff\n      and\n      eq\n      iszero\n        /* \"contracts/NFTStake.sol\":21165:21238  require(newOwner != address(0), \"Ownable: new owner is the zero address\") */\n      tag_376\n      jumpi\n      mload(0x40)\n      0x08c379a000000000000000000000000000000000000000000000000000000000\n      dup2\n      mstore\n      0x04\n      add\n      tag_377\n      swap1\n      tag_378\n      jump\t// in\n    tag_377:\n      mload(0x40)\n      dup1\n      swap2\n      sub\n      swap1\n      revert\n    tag_376:\n        /* \"contracts/NFTStake.sol\":21249:21277  _transferOwnership(newOwner) */\n      tag_379\n        /* \"contracts/NFTStake.sol\":21268:21276  newOwner */\n      dup2\n        /* \"contracts/NFTStake.sol\":21249:21267  _transferOwnership */\n      tag_336\n        /* \"contracts/NFTStake.sol\":21249:21277  _transferOwnership(newOwner) */\n      jump\t// in\n    tag_379:\n        /* \"contracts/NFTStake.sol\":21084:21285  function transferOwnership(address newOwner) public virtual onlyOwner {\r... */\n      pop\n      jump\t// out\n        /* \"contracts/NFTStake.sol\":29566:29592  uint256 public DDTPerBlock */\n    tag_145:\n      sload(0x04)\n      dup2\n      jump\t// out\n        /* \"contracts/NFTStake.sol\":1827:2298  function mul(uint256 a, uint256 b) internal pure returns (uint256) {\r... */\n    tag_157:\n        /* \"contracts/NFTStake.sol\":1885:1892  uint256 */\n      0x00\n        /* \"contracts/NFTStake.sol\":2135:2136  0 */\n      dup1\n        /* \"contracts/NFTStake.sol\":2130:2131  a */\n      dup4\n        /* \"contracts/NFTStake.sol\":2130:2136  a == 0 */\n      eq\n        /* \"contracts/NFTStake.sol\":2126:2173  if (a == 0) {\r... */\n      iszero\n      tag_381\n      jumpi\n        /* \"contracts/NFTStake.sol\":2160:2161  0 */\n      0x00\n        /* \"contracts/NFTStake.sol\":2153:2161  return 0 */\n      swap1\n      pop\n      jump(tag_380)\n        /* \"contracts/NFTStake.sol\":2126:2173  if (a == 0) {\r... */\n    tag_381:\n        /* \"contracts/NFTStake.sol\":2185:2194  uint256 c */\n      0x00\n        /* \"contracts/NFTStake.sol\":2201:2202  b */\n      dup3\n        /* \"contracts/NFTStake.sol\":2197:2198  a */\n      dup5\n        /* \"contracts/NFTStake.sol\":2197:2202  a * b */\n      tag_382\n      swap2\n      swap1\n      tag_383\n      jump\t// in\n    tag_382:\n        /* \"contracts/NFTStake.sol\":2185:2202  uint256 c = a * b */\n      swap1\n      pop\n        /* \"contracts/NFTStake.sol\":2230:2231  b */\n      dup3\n        /* \"contracts/NFTStake.sol\":2225:2226  a */\n      dup5\n        /* \"contracts/NFTStake.sol\":2221:2222  c */\n      dup3\n        /* \"contracts/NFTStake.sol\":2221:2226  c / a */\n      tag_384\n      swap2\n      swap1\n      tag_385\n      jump\t// in\n    tag_384:\n        /* \"contracts/NFTStake.sol\":2221:2231  c / a == b */\n      eq\n        /* \"contracts/NFTStake.sol\":2213:2269  require(c / a == b, \"SafeMath: multiplication overflow\") */\n      tag_386\n      jumpi\n      mload(0x40)\n      0x08c379a000000000000000000000000000000000000000000000000000000000\n      dup2\n      mstore\n      0x04\n      add\n      tag_387\n      swap1\n      tag_388\n      jump\t// in\n    tag_387:\n      mload(0x40)\n      dup1\n      swap2\n      sub\n      swap1\n      revert\n    tag_386:\n        /* \"contracts/NFTStake.sol\":2289:2290  c */\n      dup1\n        /* \"contracts/NFTStake.sol\":2282:2290  return c */\n      swap2\n      pop\n      pop\n        /* \"contracts/NFTStake.sol\":1827:2298  function mul(uint256 a, uint256 b) internal pure returns (uint256) {\r... */\n    tag_380:\n      swap3\n      swap2\n      pop\n      pop\n      jump\t// out\n        /* \"contracts/NFTStake.sol\":2766:2898  function div(uint256 a, uint256 b) internal pure returns (uint256) {\r... */\n    tag_158:\n        /* \"contracts/NFTStake.sol\":2824:2831  uint256 */\n      0x00\n        /* \"contracts/NFTStake.sol\":2851:2890  div(a, b, \"SafeMath: division by zero\") */\n      tag_390\n        /* \"contracts/NFTStake.sol\":2855:2856  a */\n      dup4\n        /* \"contracts/NFTStake.sol\":2858:2859  b */\n      dup4\n        /* \"contracts/NFTStake.sol\":2851:2890  div(a, b, \"SafeMath: division by zero\") */\n      mload(0x40)\n      dup1\n      0x40\n      add\n      0x40\n      mstore\n      dup1\n      0x1a\n      dup2\n      mstore\n      0x20\n      add\n      0x536166654d6174683a206469766973696f6e206279207a65726f000000000000\n      dup2\n      mstore\n      pop\n        /* \"contracts/NFTStake.sol\":2851:2854  div */\n      tag_391\n        /* \"contracts/NFTStake.sol\":2851:2890  div(a, b, \"SafeMath: division by zero\") */\n      jump\t// in\n    tag_390:\n        /* \"contracts/NFTStake.sol\":2844:2890  return div(a, b, \"SafeMath: division by zero\") */\n      swap1\n      pop\n        /* \"contracts/NFTStake.sol\":2766:2898  function div(uint256 a, uint256 b) internal pure returns (uint256) {\r... */\n      swap3\n      swap2\n      pop\n      pop\n      jump\t// out\n        /* \"contracts/NFTStake.sol\":911:1047  function sub(uint256 a, uint256 b) internal pure returns (uint256) {\r... */\n    tag_159:\n        /* \"contracts/NFTStake.sol\":969:976  uint256 */\n      0x00\n        /* \"contracts/NFTStake.sol\":996:1039  sub(a, b, \"SafeMath: subtraction overflow\") */\n      tag_393\n        /* \"contracts/NFTStake.sol\":1000:1001  a */\n      dup4\n        /* \"contracts/NFTStake.sol\":1003:1004  b */\n      dup4\n        /* \"contracts/NFTStake.sol\":996:1039  sub(a, b, \"SafeMath: subtraction overflow\") */\n      mload(0x40)\n      dup1\n      0x40\n      add\n      0x40\n      mstore\n      dup1\n      0x1e\n      dup2\n      mstore\n      0x20\n      add\n      0x536166654d6174683a207375627472616374696f6e206f766572666c6f770000\n      dup2\n      mstore\n      pop\n        /* \"contracts/NFTStake.sol\":996:999  sub */\n      tag_394\n        /* \"contracts/NFTStake.sol\":996:1039  sub(a, b, \"SafeMath: subtraction overflow\") */\n      jump\t// in\n    tag_393:\n        /* \"contracts/NFTStake.sol\":989:1039  return sub(a, b, \"SafeMath: subtraction overflow\") */\n      swap1\n      pop\n        /* \"contracts/NFTStake.sol\":911:1047  function sub(uint256 a, uint256 b) internal pure returns (uint256) {\r... */\n      swap3\n      swap2\n      pop\n      pop\n      jump\t// out\n        /* \"contracts/NFTStake.sol\":19549:19647  function _msgSender() internal view virtual returns (address) {\r... */\n    tag_183:\n        /* \"contracts/NFTStake.sol\":19602:19609  address */\n      0x00\n        /* \"contracts/NFTStake.sol\":19629:19639  msg.sender */\n      caller\n        /* \"contracts/NFTStake.sol\":19622:19639  return msg.sender */\n      swap1\n      pop\n        /* \"contracts/NFTStake.sol\":19549:19647  function _msgSender() internal view virtual returns (address) {\r... */\n      swap1\n      jump\t// out\n        /* \"contracts/NFTStake.sol\":455:636  function add(uint256 a, uint256 b) internal pure returns (uint256) {\r... */\n    tag_194:\n        /* \"contracts/NFTStake.sol\":513:520  uint256 */\n      0x00\n        /* \"contracts/NFTStake.sol\":533:542  uint256 c */\n      dup1\n        /* \"contracts/NFTStake.sol\":549:550  b */\n      dup3\n        /* \"contracts/NFTStake.sol\":545:546  a */\n      dup5\n        /* \"contracts/NFTStake.sol\":545:550  a + b */\n      tag_397\n      swap2\n      swap1\n      tag_398\n      jump\t// in\n    tag_397:\n        /* \"contracts/NFTStake.sol\":533:550  uint256 c = a + b */\n      swap1\n      pop\n        /* \"contracts/NFTStake.sol\":574:575  a */\n      dup4\n        /* \"contracts/NFTStake.sol\":569:570  c */\n      dup2\n        /* \"contracts/NFTStake.sol\":569:575  c >= a */\n      lt\n      iszero\n        /* \"contracts/NFTStake.sol\":561:607  require(c >= a, \"SafeMath: addition overflow\") */\n      tag_399\n      jumpi\n      mload(0x40)\n      0x08c379a000000000000000000000000000000000000000000000000000000000\n      dup2\n      mstore\n      0x04\n      add\n      tag_400\n      swap1\n      tag_401\n      jump\t// in\n    tag_400:\n      mload(0x40)\n      dup1\n      swap2\n      sub\n      swap1\n      revert\n    tag_399:\n        /* \"contracts/NFTStake.sol\":627:628  c */\n      dup1\n        /* \"contracts/NFTStake.sol\":620:628  return c */\n      swap2\n      pop\n      pop\n        /* \"contracts/NFTStake.sol\":455:636  function add(uint256 a, uint256 b) internal pure returns (uint256) {\r... */\n      swap3\n      swap2\n      pop\n      pop\n      jump\t// out\n        /* \"contracts/NFTStake.sol\":38042:38313  function safeDDTTransfer(address _to, uint256 _amount) internal {\r... */\n    tag_238:\n        /* \"contracts/NFTStake.sol\":38117:38131  uint256 DDTbal */\n      0x00\n        /* \"contracts/NFTStake.sol\":38134:38137  DDT */\n      0x02\n      0x00\n      swap1\n      sload\n      swap1\n      0x0100\n      exp\n      swap1\n      div\n      0xffffffffffffffffffffffffffffffffffffffff\n      and\n        /* \"contracts/NFTStake.sol\":38134:38147  DDT.balanceOf */\n      0xffffffffffffffffffffffffffffffffffffffff\n      and\n      0x70a08231\n        /* \"contracts/NFTStake.sol\":38156:38160  this */\n      address\n        /* \"contracts/NFTStake.sol\":38134:38162  DDT.balanceOf(address(this)) */\n      mload(0x40)\n      dup3\n      0xffffffff\n      and\n      0xe0\n      shl\n      dup2\n      mstore\n      0x04\n      add\n      tag_403\n      swap2\n      swap1\n      tag_108\n      jump\t// in\n    tag_403:\n      0x20\n      mload(0x40)\n      dup1\n      dup4\n      sub\n      dup2\n      dup7\n      dup1\n      extcodesize\n      iszero\n      dup1\n      iszero\n      tag_404\n      jumpi\n      0x00\n      dup1\n      revert\n    tag_404:\n      pop\n      gas\n      staticcall\n      iszero\n      dup1\n      iszero\n      tag_406\n      jumpi\n      returndatasize\n      0x00\n      dup1\n      returndatacopy\n      revert(0x00, returndatasize)\n    tag_406:\n      pop\n      pop\n      pop\n      pop\n      mload(0x40)\n      returndatasize\n      not(0x1f)\n      0x1f\n      dup3\n      add\n      and\n      dup3\n      add\n      dup1\n      0x40\n      mstore\n      pop\n      dup2\n      add\n      swap1\n      tag_407\n      swap2\n      swap1\n      tag_205\n      jump\t// in\n    tag_407:\n        /* \"contracts/NFTStake.sol\":38117:38162  uint256 DDTbal = DDT.balanceOf(address(this)) */\n      swap1\n      pop\n        /* \"contracts/NFTStake.sol\":38187:38193  DDTbal */\n      dup1\n        /* \"contracts/NFTStake.sol\":38177:38184  _amount */\n      dup3\n        /* \"contracts/NFTStake.sol\":38177:38193  _amount > DDTbal */\n      gt\n        /* \"contracts/NFTStake.sol\":38173:38306  if (_amount > DDTbal) {\r... */\n      iszero\n      tag_408\n      jumpi\n        /* \"contracts/NFTStake.sol\":38210:38213  DDT */\n      0x02\n      0x00\n      swap1\n      sload\n      swap1\n      0x0100\n      exp\n      swap1\n      div\n      0xffffffffffffffffffffffffffffffffffffffff\n      and\n        /* \"contracts/NFTStake.sol\":38210:38222  DDT.transfer */\n      0xffffffffffffffffffffffffffffffffffffffff\n      and\n      0xa9059cbb\n        /* \"contracts/NFTStake.sol\":38223:38226  _to */\n      dup5\n        /* \"contracts/NFTStake.sol\":38228:38234  DDTbal */\n      dup4\n        /* \"contracts/NFTStake.sol\":38210:38235  DDT.transfer(_to, DDTbal) */\n      mload(0x40)\n      dup4\n      0xffffffff\n      and\n      0xe0\n      shl\n      dup2\n      mstore\n      0x04\n      add\n      tag_409\n      swap3\n      swap2\n      swap1\n      tag_164\n      jump\t// in\n    tag_409:\n      0x20\n      mload(0x40)\n      dup1\n      dup4\n      sub\n      dup2\n      0x00\n      dup8\n      dup1\n      extcodesize\n      iszero\n      dup1\n      iszero\n      tag_410\n      jumpi\n      0x00\n      dup1\n      revert\n    tag_410:\n      pop\n      gas\n      call\n      iszero\n      dup1\n      iszero\n      tag_412\n      jumpi\n      returndatasize\n      0x00\n      dup1\n      returndatacopy\n      revert(0x00, returndatasize)\n    tag_412:\n      pop\n      pop\n      pop\n      pop\n      mload(0x40)\n      returndatasize\n      not(0x1f)\n      0x1f\n      dup3\n      add\n      and\n      dup3\n      add\n      dup1\n      0x40\n      mstore\n      pop\n      dup2\n      add\n      swap1\n      tag_413\n      swap2\n      swap1\n      tag_169\n      jump\t// in\n    tag_413:\n      pop\n        /* \"contracts/NFTStake.sol\":38173:38306  if (_amount > DDTbal) {\r... */\n      jump(tag_414)\n    tag_408:\n        /* \"contracts/NFTStake.sol\":38268:38271  DDT */\n      0x02\n      0x00\n      swap1\n      sload\n      swap1\n      0x0100\n      exp\n      swap1\n      div\n      0xffffffffffffffffffffffffffffffffffffffff\n      and\n        /* \"contracts/NFTStake.sol\":38268:38280  DDT.transfer */\n      0xffffffffffffffffffffffffffffffffffffffff\n      and\n      0xa9059cbb\n        /* \"contracts/NFTStake.sol\":38281:38284  _to */\n      dup5\n        /* \"contracts/NFTStake.sol\":38286:38293  _amount */\n      dup5\n        /* \"contracts/NFTStake.sol\":38268:38294  DDT.transfer(_to, _amount) */\n      mload(0x40)\n      dup4\n      0xffffffff\n      and\n      0xe0\n      shl\n      dup2\n      mstore\n      0x04\n      add\n      tag_415\n      swap3\n      swap2\n      swap1\n      tag_164\n      jump\t// in\n    tag_415:\n      0x20\n      mload(0x40)\n      dup1\n      dup4\n      sub\n      dup2\n      0x00\n      dup8\n      dup1\n      extcodesize\n      iszero\n      dup1\n      iszero\n      tag_416\n      jumpi\n      0x00\n      dup1\n      revert\n    tag_416:\n      pop\n      gas\n      call\n      iszero\n      dup1\n      iszero\n      tag_418\n      jumpi\n      returndatasize\n      0x00\n      dup1\n      returndatacopy\n      revert(0x00, returndatasize)\n    tag_418:\n      pop\n      pop\n      pop\n      pop\n      mload(0x40)\n      returndatasize\n      not(0x1f)\n      0x1f\n      dup3\n      add\n      and\n      dup3\n      add\n      dup1\n      0x40\n      mstore\n      pop\n      dup2\n      add\n      swap1\n      tag_419\n      swap2\n      swap1\n      tag_169\n      jump\t// in\n    tag_419:\n      pop\n        /* \"contracts/NFTStake.sol\":38173:38306  if (_amount > DDTbal) {\r... */\n    tag_414:\n        /* \"contracts/NFTStake.sol\":38106:38313  {\r... */\n      pop\n        /* \"contracts/NFTStake.sol\":38042:38313  function safeDDTTransfer(address _to, uint256 _amount) internal {\r... */\n      pop\n      pop\n      jump\t// out\n        /* \"contracts/NFTStake.sol\":21445:21636  function _transferOwnership(address newOwner) internal virtual {\r... */\n    tag_336:\n        /* \"contracts/NFTStake.sol\":21519:21535  address oldOwner */\n      0x00\n        /* \"contracts/NFTStake.sol\":21538:21544  _owner */\n      dup1\n      0x00\n      swap1\n      sload\n      swap1\n      0x0100\n      exp\n      swap1\n      div\n      0xffffffffffffffffffffffffffffffffffffffff\n      and\n        /* \"contracts/NFTStake.sol\":21519:21544  address oldOwner = _owner */\n      swap1\n      pop\n        /* \"contracts/NFTStake.sol\":21564:21572  newOwner */\n      dup2\n        /* \"contracts/NFTStake.sol\":21555:21561  _owner */\n      0x00\n      dup1\n        /* \"contracts/NFTStake.sol\":21555:21572  _owner = newOwner */\n      0x0100\n      exp\n      dup2\n      sload\n      dup2\n      0xffffffffffffffffffffffffffffffffffffffff\n      mul\n      not\n      and\n      swap1\n      dup4\n      0xffffffffffffffffffffffffffffffffffffffff\n      and\n      mul\n      or\n      swap1\n      sstore\n      pop\n        /* \"contracts/NFTStake.sol\":21619:21627  newOwner */\n      dup2\n        /* \"contracts/NFTStake.sol\":21588:21628  OwnershipTransferred(oldOwner, newOwner) */\n      0xffffffffffffffffffffffffffffffffffffffff\n      and\n        /* \"contracts/NFTStake.sol\":21609:21617  oldOwner */\n      dup2\n        /* \"contracts/NFTStake.sol\":21588:21628  OwnershipTransferred(oldOwner, newOwner) */\n      0xffffffffffffffffffffffffffffffffffffffff\n      and\n      0x8be0079c531659141344cd1fd0a4f28419497f9722a3daafe3b4186f6b6457e0\n      mload(0x40)\n      mload(0x40)\n      dup1\n      swap2\n      sub\n      swap1\n      log3\n        /* \"contracts/NFTStake.sol\":21508:21636  {\r... */\n      pop\n        /* \"contracts/NFTStake.sol\":21445:21636  function _transferOwnership(address newOwner) internal virtual {\r... */\n      pop\n      jump\t// out\n        /* \"contracts/NFTStake.sol\":3428:3773  function div(uint256 a, uint256 b, string memory errorMessage) internal pure returns (uint256) {\r... */\n    tag_391:\n        /* \"contracts/NFTStake.sol\":3514:3521  uint256 */\n      0x00\n        /* \"contracts/NFTStake.sol\":3613:3614  0 */\n      dup1\n        /* \"contracts/NFTStake.sol\":3609:3610  b */\n      dup4\n        /* \"contracts/NFTStake.sol\":3609:3614  b > 0 */\n      gt\n        /* \"contracts/NFTStake.sol\":3616:3628  errorMessage */\n      dup3\n        /* \"contracts/NFTStake.sol\":3601:3629  require(b > 0, errorMessage) */\n      swap1\n      tag_422\n      jumpi\n      mload(0x40)\n      0x08c379a000000000000000000000000000000000000000000000000000000000\n      dup2\n      mstore\n      0x04\n      add\n      tag_423\n      swap2\n      swap1\n      tag_424\n      jump\t// in\n    tag_423:\n      mload(0x40)\n      dup1\n      swap2\n      sub\n      swap1\n      revert\n    tag_422:\n      pop\n        /* \"contracts/NFTStake.sol\":3640:3649  uint256 c */\n      0x00\n        /* \"contracts/NFTStake.sol\":3656:3657  b */\n      dup4\n        /* \"contracts/NFTStake.sol\":3652:3653  a */\n      dup6\n        /* \"contracts/NFTStake.sol\":3652:3657  a / b */\n      tag_425\n      swap2\n      swap1\n      tag_385\n      jump\t// in\n    tag_425:\n        /* \"contracts/NFTStake.sol\":3640:3657  uint256 c = a / b */\n      swap1\n      pop\n        /* \"contracts/NFTStake.sol\":3764:3765  c */\n      dup1\n        /* \"contracts/NFTStake.sol\":3757:3765  return c */\n      swap2\n      pop\n      pop\n        /* \"contracts/NFTStake.sol\":3428:3773  function div(uint256 a, uint256 b, string memory errorMessage) internal pure returns (uint256) {\r... */\n      swap4\n      swap3\n      pop\n      pop\n      pop\n      jump\t// out\n        /* \"contracts/NFTStake.sol\":1384:1576  function sub(uint256 a, uint256 b, string memory errorMessage) internal pure returns (uint256) {\r... */\n    tag_394:\n        /* \"contracts/NFTStake.sol\":1470:1477  uint256 */\n      0x00\n        /* \"contracts/NFTStake.sol\":1503:1504  a */\n      dup4\n        /* \"contracts/NFTStake.sol\":1498:1499  b */\n      dup4\n        /* \"contracts/NFTStake.sol\":1498:1504  b <= a */\n      gt\n      iszero\n        /* \"contracts/NFTStake.sol\":1506:1518  errorMessage */\n      dup3\n        /* \"contracts/NFTStake.sol\":1490:1519  require(b <= a, errorMessage) */\n      swap1\n      tag_427\n      jumpi\n      mload(0x40)\n      0x08c379a000000000000000000000000000000000000000000000000000000000\n      dup2\n      mstore\n      0x04\n      add\n      tag_428\n      swap2\n      swap1\n      tag_424\n      jump\t// in\n    tag_428:\n      mload(0x40)\n      dup1\n      swap2\n      sub\n      swap1\n      revert\n    tag_427:\n      pop\n        /* \"contracts/NFTStake.sol\":1530:1539  uint256 c */\n      0x00\n        /* \"contracts/NFTStake.sol\":1546:1547  b */\n      dup4\n        /* \"contracts/NFTStake.sol\":1542:1543  a */\n      dup6\n        /* \"contracts/NFTStake.sol\":1542:1547  a - b */\n      tag_429\n      swap2\n      swap1\n      tag_430\n      jump\t// in\n    tag_429:\n        /* \"contracts/NFTStake.sol\":1530:1547  uint256 c = a - b */\n      swap1\n      pop\n        /* \"contracts/NFTStake.sol\":1567:1568  c */\n      dup1\n        /* \"contracts/NFTStake.sol\":1560:1568  return c */\n      swap2\n      pop\n      pop\n        /* \"contracts/NFTStake.sol\":1384:1576  function sub(uint256 a, uint256 b, string memory errorMessage) internal pure returns (uint256) {\r... */\n      swap4\n      swap3\n      pop\n      pop\n      pop\n      jump\t// out\n        /* \"#utility.yul\":7:417   */\n    tag_432:\n        /* \"#utility.yul\":84:89   */\n      0x00\n        /* \"#utility.yul\":109:174   */\n      tag_434\n        /* \"#utility.yul\":125:173   */\n      tag_435\n        /* \"#utility.yul\":166:172   */\n      dup5\n        /* \"#utility.yul\":125:173   */\n      tag_436\n      jump\t// in\n    tag_435:\n        /* \"#utility.yul\":109:174   */\n      tag_437\n      jump\t// in\n    tag_434:\n        /* \"#utility.yul\":100:174   */\n      swap1\n      pop\n        /* \"#utility.yul\":197:203   */\n      dup3\n        /* \"#utility.yul\":190:195   */\n      dup2\n        /* \"#utility.yul\":183:204   */\n      mstore\n        /* \"#utility.yul\":235:239   */\n      0x20\n        /* \"#utility.yul\":228:233   */\n      dup2\n        /* \"#utility.yul\":224:240   */\n      add\n        /* \"#utility.yul\":273:276   */\n      dup5\n        /* \"#utility.yul\":264:270   */\n      dup5\n        /* \"#utility.yul\":259:262   */\n      dup5\n        /* \"#utility.yul\":255:271   */\n      add\n        /* \"#utility.yul\":252:277   */\n      gt\n        /* \"#utility.yul\":249:361   */\n      iszero\n      tag_438\n      jumpi\n        /* \"#utility.yul\":280:359   */\n      tag_439\n      tag_440\n      jump\t// in\n    tag_439:\n        /* \"#utility.yul\":249:361   */\n    tag_438:\n        /* \"#utility.yul\":370:411   */\n      tag_441\n        /* \"#utility.yul\":404:410   */\n      dup5\n        /* \"#utility.yul\":399:402   */\n      dup3\n        /* \"#utility.yul\":394:397   */\n      dup6\n        /* \"#utility.yul\":370:411   */\n      tag_442\n      jump\t// in\n    tag_441:\n        /* \"#utility.yul\":90:417   */\n      pop\n        /* \"#utility.yul\":7:417   */\n      swap4\n      swap3\n      pop\n      pop\n      pop\n      jump\t// out\n        /* \"#utility.yul\":423:562   */\n    tag_443:\n        /* \"#utility.yul\":469:474   */\n      0x00\n        /* \"#utility.yul\":507:513   */\n      dup2\n        /* \"#utility.yul\":494:514   */\n      calldataload\n        /* \"#utility.yul\":485:514   */\n      swap1\n      pop\n        /* \"#utility.yul\":523:556   */\n      tag_445\n        /* \"#utility.yul\":550:555   */\n      dup2\n        /* \"#utility.yul\":523:556   */\n      tag_446\n      jump\t// in\n    tag_445:\n        /* \"#utility.yul\":423:562   */\n      swap3\n      swap2\n      pop\n      pop\n      jump\t// out\n        /* \"#utility.yul\":568:701   */\n    tag_447:\n        /* \"#utility.yul\":611:616   */\n      0x00\n        /* \"#utility.yul\":649:655   */\n      dup2\n        /* \"#utility.yul\":636:656   */\n      calldataload\n        /* \"#utility.yul\":627:656   */\n      swap1\n      pop\n        /* \"#utility.yul\":665:695   */\n      tag_449\n        /* \"#utility.yul\":689:694   */\n      dup2\n        /* \"#utility.yul\":665:695   */\n      tag_450\n      jump\t// in\n    tag_449:\n        /* \"#utility.yul\":568:701   */\n      swap3\n      swap2\n      pop\n      pop\n      jump\t// out\n        /* \"#utility.yul\":707:844   */\n    tag_451:\n        /* \"#utility.yul\":761:766   */\n      0x00\n        /* \"#utility.yul\":792:798   */\n      dup2\n        /* \"#utility.yul\":786:799   */\n      mload\n        /* \"#utility.yul\":777:799   */\n      swap1\n      pop\n        /* \"#utility.yul\":808:838   */\n      tag_453\n        /* \"#utility.yul\":832:837   */\n      dup2\n        /* \"#utility.yul\":808:838   */\n      tag_450\n      jump\t// in\n    tag_453:\n        /* \"#utility.yul\":707:844   */\n      swap3\n      swap2\n      pop\n      pop\n      jump\t// out\n        /* \"#utility.yul\":863:1201   */\n    tag_454:\n        /* \"#utility.yul\":918:923   */\n      0x00\n        /* \"#utility.yul\":967:970   */\n      dup3\n        /* \"#utility.yul\":960:964   */\n      0x1f\n        /* \"#utility.yul\":952:958   */\n      dup4\n        /* \"#utility.yul\":948:965   */\n      add\n        /* \"#utility.yul\":944:971   */\n      slt\n        /* \"#utility.yul\":934:1056   */\n      tag_456\n      jumpi\n        /* \"#utility.yul\":975:1054   */\n      tag_457\n      tag_458\n      jump\t// in\n    tag_457:\n        /* \"#utility.yul\":934:1056   */\n    tag_456:\n        /* \"#utility.yul\":1092:1098   */\n      dup2\n        /* \"#utility.yul\":1079:1099   */\n      calldataload\n        /* \"#utility.yul\":1117:1195   */\n      tag_459\n        /* \"#utility.yul\":1191:1194   */\n      dup5\n        /* \"#utility.yul\":1183:1189   */\n      dup3\n        /* \"#utility.yul\":1176:1180   */\n      0x20\n        /* \"#utility.yul\":1168:1174   */\n      dup7\n        /* \"#utility.yul\":1164:1181   */\n      add\n        /* \"#utility.yul\":1117:1195   */\n      tag_432\n      jump\t// in\n    tag_459:\n        /* \"#utility.yul\":1108:1195   */\n      swap2\n      pop\n        /* \"#utility.yul\":924:1201   */\n      pop\n        /* \"#utility.yul\":863:1201   */\n      swap3\n      swap2\n      pop\n      pop\n      jump\t// out\n        /* \"#utility.yul\":1207:1378   */\n    tag_460:\n        /* \"#utility.yul\":1269:1274   */\n      0x00\n        /* \"#utility.yul\":1307:1313   */\n      dup2\n        /* \"#utility.yul\":1294:1314   */\n      calldataload\n        /* \"#utility.yul\":1285:1314   */\n      swap1\n      pop\n        /* \"#utility.yul\":1323:1372   */\n      tag_462\n        /* \"#utility.yul\":1366:1371   */\n      dup2\n        /* \"#utility.yul\":1323:1372   */\n      tag_463\n      jump\t// in\n    tag_462:\n        /* \"#utility.yul\":1207:1378   */\n      swap3\n      swap2\n      pop\n      pop\n      jump\t// out\n        /* \"#utility.yul\":1384:1565   */\n    tag_464:\n        /* \"#utility.yul\":1451:1456   */\n      0x00\n        /* \"#utility.yul\":1489:1495   */\n      dup2\n        /* \"#utility.yul\":1476:1496   */\n      calldataload\n        /* \"#utility.yul\":1467:1496   */\n      swap1\n      pop\n        /* \"#utility.yul\":1505:1559   */\n      tag_466\n        /* \"#utility.yul\":1553:1558   */\n      dup2\n        /* \"#utility.yul\":1505:1559   */\n      tag_467\n      jump\t// in\n    tag_466:\n        /* \"#utility.yul\":1384:1565   */\n      swap3\n      swap2\n      pop\n      pop\n      jump\t// out\n        /* \"#utility.yul\":1571:1710   */\n    tag_468:\n        /* \"#utility.yul\":1617:1622   */\n      0x00\n        /* \"#utility.yul\":1655:1661   */\n      dup2\n        /* \"#utility.yul\":1642:1662   */\n      calldataload\n        /* \"#utility.yul\":1633:1662   */\n      swap1\n      pop\n        /* \"#utility.yul\":1671:1704   */\n      tag_470\n        /* \"#utility.yul\":1698:1703   */\n      dup2\n        /* \"#utility.yul\":1671:1704   */\n      tag_471\n      jump\t// in\n    tag_470:\n        /* \"#utility.yul\":1571:1710   */\n      swap3\n      swap2\n      pop\n      pop\n      jump\t// out\n        /* \"#utility.yul\":1716:1859   */\n    tag_472:\n        /* \"#utility.yul\":1773:1778   */\n      0x00\n        /* \"#utility.yul\":1804:1810   */\n      dup2\n        /* \"#utility.yul\":1798:1811   */\n      mload\n        /* \"#utility.yul\":1789:1811   */\n      swap1\n      pop\n        /* \"#utility.yul\":1820:1853   */\n      tag_474\n        /* \"#utility.yul\":1847:1852   */\n      dup2\n        /* \"#utility.yul\":1820:1853   */\n      tag_471\n      jump\t// in\n    tag_474:\n        /* \"#utility.yul\":1716:1859   */\n      swap3\n      swap2\n      pop\n      pop\n      jump\t// out\n        /* \"#utility.yul\":1865:2194   */\n    tag_124:\n        /* \"#utility.yul\":1924:1930   */\n      0x00\n        /* \"#utility.yul\":1973:1975   */\n      0x20\n        /* \"#utility.yul\":1961:1970   */\n      dup3\n        /* \"#utility.yul\":1952:1959   */\n      dup5\n        /* \"#utility.yul\":1948:1971   */\n      sub\n        /* \"#utility.yul\":1944:1976   */\n      slt\n        /* \"#utility.yul\":1941:2060   */\n      iszero\n      tag_476\n      jumpi\n        /* \"#utility.yul\":1979:2058   */\n      tag_477\n      tag_478\n      jump\t// in\n    tag_477:\n        /* \"#utility.yul\":1941:2060   */\n    tag_476:\n        /* \"#utility.yul\":2099:2100   */\n      0x00\n        /* \"#utility.yul\":2124:2177   */\n      tag_479\n        /* \"#utility.yul\":2169:2176   */\n      dup5\n        /* \"#utility.yul\":2160:2166   */\n      dup3\n        /* \"#utility.yul\":2149:2158   */\n      dup6\n        /* \"#utility.yul\":2145:2167   */\n      add\n        /* \"#utility.yul\":2124:2177   */\n      tag_443\n      jump\t// in\n    tag_479:\n        /* \"#utility.yul\":2114:2177   */\n      swap2\n      pop\n        /* \"#utility.yul\":2070:2187   */\n      pop\n        /* \"#utility.yul\":1865:2194   */\n      swap3\n      swap2\n      pop\n      pop\n      jump\t// out\n        /* \"#utility.yul\":2200:3143   */\n    tag_49:\n        /* \"#utility.yul\":2295:2301   */\n      0x00\n        /* \"#utility.yul\":2303:2309   */\n      dup1\n        /* \"#utility.yul\":2311:2317   */\n      0x00\n        /* \"#utility.yul\":2319:2325   */\n      dup1\n        /* \"#utility.yul\":2368:2371   */\n      0x80\n        /* \"#utility.yul\":2356:2365   */\n      dup6\n        /* \"#utility.yul\":2347:2354   */\n      dup8\n        /* \"#utility.yul\":2343:2366   */\n      sub\n        /* \"#utility.yul\":2339:2372   */\n      slt\n        /* \"#utility.yul\":2336:2456   */\n      iszero\n      tag_481\n      jumpi\n        /* \"#utility.yul\":2375:2454   */\n      tag_482\n      tag_478\n      jump\t// in\n    tag_482:\n        /* \"#utility.yul\":2336:2456   */\n    tag_481:\n        /* \"#utility.yul\":2495:2496   */\n      0x00\n        /* \"#utility.yul\":2520:2573   */\n      tag_483\n        /* \"#utility.yul\":2565:2572   */\n      dup8\n        /* \"#utility.yul\":2556:2562   */\n      dup3\n        /* \"#utility.yul\":2545:2554   */\n      dup9\n        /* \"#utility.yul\":2541:2563   */\n      add\n        /* \"#utility.yul\":2520:2573   */\n      tag_443\n      jump\t// in\n    tag_483:\n        /* \"#utility.yul\":2510:2573   */\n      swap5\n      pop\n        /* \"#utility.yul\":2466:2583   */\n      pop\n        /* \"#utility.yul\":2622:2624   */\n      0x20\n        /* \"#utility.yul\":2648:2701   */\n      tag_484\n        /* \"#utility.yul\":2693:2700   */\n      dup8\n        /* \"#utility.yul\":2684:2690   */\n      dup3\n        /* \"#utility.yul\":2673:2682   */\n      dup9\n        /* \"#utility.yul\":2669:2691   */\n      add\n        /* \"#utility.yul\":2648:2701   */\n      tag_443\n      jump\t// in\n    tag_484:\n        /* \"#utility.yul\":2638:2701   */\n      swap4\n      pop\n        /* \"#utility.yul\":2593:2711   */\n      pop\n        /* \"#utility.yul\":2750:2752   */\n      0x40\n        /* \"#utility.yul\":2776:2829   */\n      tag_485\n        /* \"#utility.yul\":2821:2828   */\n      dup8\n        /* \"#utility.yul\":2812:2818   */\n      dup3\n        /* \"#utility.yul\":2801:2810   */\n      dup9\n        /* \"#utility.yul\":2797:2819   */\n      add\n        /* \"#utility.yul\":2776:2829   */\n      tag_468\n      jump\t// in\n    tag_485:\n        /* \"#utility.yul\":2766:2829   */\n      swap3\n      pop\n        /* \"#utility.yul\":2721:2839   */\n      pop\n        /* \"#utility.yul\":2906:2908   */\n      0x60\n        /* \"#utility.yul\":2895:2904   */\n      dup6\n        /* \"#utility.yul\":2891:2909   */\n      add\n        /* \"#utility.yul\":2878:2910   */\n      calldataload\n        /* \"#utility.yul\":2937:2955   */\n      0xffffffffffffffff\n        /* \"#utility.yul\":2929:2935   */\n      dup2\n        /* \"#utility.yul\":2926:2956   */\n      gt\n        /* \"#utility.yul\":2923:3040   */\n      iszero\n      tag_486\n      jumpi\n        /* \"#utility.yul\":2959:3038   */\n      tag_487\n      tag_488\n      jump\t// in\n    tag_487:\n        /* \"#utility.yul\":2923:3040   */\n    tag_486:\n        /* \"#utility.yul\":3064:3126   */\n      tag_489\n        /* \"#utility.yul\":3118:3125   */\n      dup8\n        /* \"#utility.yul\":3109:3115   */\n      dup3\n        /* \"#utility.yul\":3098:3107   */\n      dup9\n        /* \"#utility.yul\":3094:3116   */\n      add\n        /* \"#utility.yul\":3064:3126   */\n      tag_454\n      jump\t// in\n    tag_489:\n        /* \"#utility.yul\":3054:3126   */\n      swap2\n      pop\n        /* \"#utility.yul\":2849:3136   */\n      pop\n        /* \"#utility.yul\":2200:3143   */\n      swap3\n      swap6\n      swap2\n      swap5\n      pop\n      swap3\n      pop\n      jump\t// out\n        /* \"#utility.yul\":3149:3494   */\n    tag_169:\n        /* \"#utility.yul\":3216:3222   */\n      0x00\n        /* \"#utility.yul\":3265:3267   */\n      0x20\n        /* \"#utility.yul\":3253:3262   */\n      dup3\n        /* \"#utility.yul\":3244:3251   */\n      dup5\n        /* \"#utility.yul\":3240:3263   */\n      sub\n        /* \"#utility.yul\":3236:3268   */\n      slt\n        /* \"#utility.yul\":3233:3352   */\n      iszero\n      tag_491\n      jumpi\n        /* \"#utility.yul\":3271:3350   */\n      tag_492\n      tag_478\n      jump\t// in\n    tag_492:\n        /* \"#utility.yul\":3233:3352   */\n    tag_491:\n        /* \"#utility.yul\":3391:3392   */\n      0x00\n        /* \"#utility.yul\":3416:3477   */\n      tag_493\n        /* \"#utility.yul\":3469:3476   */\n      dup5\n        /* \"#utility.yul\":3460:3466   */\n      dup3\n        /* \"#utility.yul\":3449:3458   */\n      dup6\n        /* \"#utility.yul\":3445:3467   */\n      add\n        /* \"#utility.yul\":3416:3477   */\n      tag_451\n      jump\t// in\n    tag_493:\n        /* \"#utility.yul\":3406:3477   */\n      swap2\n      pop\n        /* \"#utility.yul\":3362:3487   */\n      pop\n        /* \"#utility.yul\":3149:3494   */\n      swap3\n      swap2\n      pop\n      pop\n      jump\t// out\n        /* \"#utility.yul\":3500:3871   */\n    tag_72:\n        /* \"#utility.yul\":3580:3586   */\n      0x00\n        /* \"#utility.yul\":3629:3631   */\n      0x20\n        /* \"#utility.yul\":3617:3626   */\n      dup3\n        /* \"#utility.yul\":3608:3615   */\n      dup5\n        /* \"#utility.yul\":3604:3627   */\n      sub\n        /* \"#utility.yul\":3600:3632   */\n      slt\n        /* \"#utility.yul\":3597:3716   */\n      iszero\n      tag_495\n      jumpi\n        /* \"#utility.yul\":3635:3714   */\n      tag_496\n      tag_478\n      jump\t// in\n    tag_496:\n        /* \"#utility.yul\":3597:3716   */\n    tag_495:\n        /* \"#utility.yul\":3755:3756   */\n      0x00\n        /* \"#utility.yul\":3780:3854   */\n      tag_497\n        /* \"#utility.yul\":3846:3853   */\n      dup5\n        /* \"#utility.yul\":3837:3843   */\n      dup3\n        /* \"#utility.yul\":3826:3835   */\n      dup6\n        /* \"#utility.yul\":3822:3844   */\n      add\n        /* \"#utility.yul\":3780:3854   */\n      tag_464\n      jump\t// in\n    tag_497:\n        /* \"#utility.yul\":3770:3854   */\n      swap2\n      pop\n        /* \"#utility.yul\":3726:3864   */\n      pop\n        /* \"#utility.yul\":3500:3871   */\n      swap3\n      swap2\n      pop\n      pop\n      jump\t// out\n        /* \"#utility.yul\":3877:4206   */\n    tag_45:\n        /* \"#utility.yul\":3936:3942   */\n      0x00\n        /* \"#utility.yul\":3985:3987   */\n      0x20\n        /* \"#utility.yul\":3973:3982   */\n      dup3\n        /* \"#utility.yul\":3964:3971   */\n      dup5\n        /* \"#utility.yul\":3960:3983   */\n      sub\n        /* \"#utility.yul\":3956:3988   */\n      slt\n        /* \"#utility.yul\":3953:4072   */\n      iszero\n      tag_499\n      jumpi\n        /* \"#utility.yul\":3991:4070   */\n      tag_500\n      tag_478\n      jump\t// in\n    tag_500:\n        /* \"#utility.yul\":3953:4072   */\n    tag_499:\n        /* \"#utility.yul\":4111:4112   */\n      0x00\n        /* \"#utility.yul\":4136:4189   */\n      tag_501\n        /* \"#utility.yul\":4181:4188   */\n      dup5\n        /* \"#utility.yul\":4172:4178   */\n      dup3\n        /* \"#utility.yul\":4161:4170   */\n      dup6\n        /* \"#utility.yul\":4157:4179   */\n      add\n        /* \"#utility.yul\":4136:4189   */\n      tag_468\n      jump\t// in\n    tag_501:\n        /* \"#utility.yul\":4126:4189   */\n      swap2\n      pop\n        /* \"#utility.yul\":4082:4199   */\n      pop\n        /* \"#utility.yul\":3877:4206   */\n      swap3\n      swap2\n      pop\n      pop\n      jump\t// out\n        /* \"#utility.yul\":4212:4563   */\n    tag_205:\n        /* \"#utility.yul\":4282:4288   */\n      0x00\n        /* \"#utility.yul\":4331:4333   */\n      0x20\n        /* \"#utility.yul\":4319:4328   */\n      dup3\n        /* \"#utility.yul\":4310:4317   */\n      dup5\n        /* \"#utility.yul\":4306:4329   */\n      sub\n        /* \"#utility.yul\":4302:4334   */\n      slt\n        /* \"#utility.yul\":4299:4418   */\n      iszero\n      tag_503\n      jumpi\n        /* \"#utility.yul\":4337:4416   */\n      tag_504\n      tag_478\n      jump\t// in\n    tag_504:\n        /* \"#utility.yul\":4299:4418   */\n    tag_503:\n        /* \"#utility.yul\":4457:4458   */\n      0x00\n        /* \"#utility.yul\":4482:4546   */\n      tag_505\n        /* \"#utility.yul\":4538:4545   */\n      dup5\n        /* \"#utility.yul\":4529:4535   */\n      dup3\n        /* \"#utility.yul\":4518:4527   */\n      dup6\n        /* \"#utility.yul\":4514:4536   */\n      add\n        /* \"#utility.yul\":4482:4546   */\n      tag_472\n      jump\t// in\n    tag_505:\n        /* \"#utility.yul\":4472:4546   */\n      swap2\n      pop\n        /* \"#utility.yul\":4428:4556   */\n      pop\n        /* \"#utility.yul\":4212:4563   */\n      swap3\n      swap2\n      pop\n      pop\n      jump\t// out\n        /* \"#utility.yul\":4569:5043   */\n    tag_67:\n        /* \"#utility.yul\":4637:4643   */\n      0x00\n        /* \"#utility.yul\":4645:4651   */\n      dup1\n        /* \"#utility.yul\":4694:4696   */\n      0x40\n        /* \"#utility.yul\":4682:4691   */\n      dup4\n        /* \"#utility.yul\":4673:4680   */\n      dup6\n        /* \"#utility.yul\":4669:4692   */\n      sub\n        /* \"#utility.yul\":4665:4697   */\n      slt\n        /* \"#utility.yul\":4662:4781   */\n      iszero\n      tag_507\n      jumpi\n        /* \"#utility.yul\":4700:4779   */\n      tag_508\n      tag_478\n      jump\t// in\n    tag_508:\n        /* \"#utility.yul\":4662:4781   */\n    tag_507:\n        /* \"#utility.yul\":4820:4821   */\n      0x00\n        /* \"#utility.yul\":4845:4898   */\n      tag_509\n        /* \"#utility.yul\":4890:4897   */\n      dup6\n        /* \"#utility.yul\":4881:4887   */\n      dup3\n        /* \"#utility.yul\":4870:4879   */\n      dup7\n        /* \"#utility.yul\":4866:4888   */\n      add\n        /* \"#utility.yul\":4845:4898   */\n      tag_468\n      jump\t// in\n    tag_509:\n        /* \"#utility.yul\":4835:4898   */\n      swap3\n      pop\n        /* \"#utility.yul\":4791:4908   */\n      pop\n        /* \"#utility.yul\":4947:4949   */\n      0x20\n        /* \"#utility.yul\":4973:5026   */\n      tag_510\n        /* \"#utility.yul\":5018:5025   */\n      dup6\n        /* \"#utility.yul\":5009:5015   */\n      dup3\n        /* \"#utility.yul\":4998:5007   */\n      dup7\n        /* \"#utility.yul\":4994:5016   */\n      add\n        /* \"#utility.yul\":4973:5026   */\n      tag_443\n      jump\t// in\n    tag_510:\n        /* \"#utility.yul\":4963:5026   */\n      swap2\n      pop\n        /* \"#utility.yul\":4918:5036   */\n      pop\n        /* \"#utility.yul\":4569:5043   */\n      swap3\n      pop\n      swap3\n      swap1\n      pop\n      jump\t// out\n        /* \"#utility.yul\":5049:5694   */\n    tag_63:\n        /* \"#utility.yul\":5139:5145   */\n      0x00\n        /* \"#utility.yul\":5147:5153   */\n      dup1\n        /* \"#utility.yul\":5155:5161   */\n      0x00\n        /* \"#utility.yul\":5204:5206   */\n      0x60\n        /* \"#utility.yul\":5192:5201   */\n      dup5\n        /* \"#utility.yul\":5183:5190   */\n      dup7\n        /* \"#utility.yul\":5179:5202   */\n      sub\n        /* \"#utility.yul\":5175:5207   */\n      slt\n        /* \"#utility.yul\":5172:5291   */\n      iszero\n      tag_512\n      jumpi\n        /* \"#utility.yul\":5210:5289   */\n      tag_513\n      tag_478\n      jump\t// in\n    tag_513:\n        /* \"#utility.yul\":5172:5291   */\n    tag_512:\n        /* \"#utility.yul\":5330:5331   */\n      0x00\n        /* \"#utility.yul\":5355:5408   */\n      tag_514\n        /* \"#utility.yul\":5400:5407   */\n      dup7\n        /* \"#utility.yul\":5391:5397   */\n      dup3\n        /* \"#utility.yul\":5380:5389   */\n      dup8\n        /* \"#utility.yul\":5376:5398   */\n      add\n        /* \"#utility.yul\":5355:5408   */\n      tag_468\n      jump\t// in\n    tag_514:\n        /* \"#utility.yul\":5345:5408   */\n      swap4\n      pop\n        /* \"#utility.yul\":5301:5418   */\n      pop\n        /* \"#utility.yul\":5457:5459   */\n      0x20\n        /* \"#utility.yul\":5483:5552   */\n      tag_515\n        /* \"#utility.yul\":5544:5551   */\n      dup7\n        /* \"#utility.yul\":5535:5541   */\n      dup3\n        /* \"#utility.yul\":5524:5533   */\n      dup8\n        /* \"#utility.yul\":5520:5542   */\n      add\n        /* \"#utility.yul\":5483:5552   */\n      tag_460\n      jump\t// in\n    tag_515:\n        /* \"#utility.yul\":5473:5552   */\n      swap3\n      pop\n        /* \"#utility.yul\":5428:5562   */\n      pop\n        /* \"#utility.yul\":5601:5603   */\n      0x40\n        /* \"#utility.yul\":5627:5677   */\n      tag_516\n        /* \"#utility.yul\":5669:5676   */\n      dup7\n        /* \"#utility.yul\":5660:5666   */\n      dup3\n        /* \"#utility.yul\":5649:5658   */\n      dup8\n        /* \"#utility.yul\":5645:5667   */\n      add\n        /* \"#utility.yul\":5627:5677   */\n      tag_447\n      jump\t// in\n    tag_516:\n        /* \"#utility.yul\":5617:5677   */\n      swap2\n      pop\n        /* \"#utility.yul\":5572:5687   */\n      pop\n        /* \"#utility.yul\":5049:5694   */\n      swap3\n      pop\n      swap3\n      pop\n      swap3\n      jump\t// out\n        /* \"#utility.yul\":5700:6174   */\n    tag_76:\n        /* \"#utility.yul\":5768:5774   */\n      0x00\n        /* \"#utility.yul\":5776:5782   */\n      dup1\n        /* \"#utility.yul\":5825:5827   */\n      0x40\n        /* \"#utility.yul\":5813:5822   */\n      dup4\n        /* \"#utility.yul\":5804:5811   */\n      dup6\n        /* \"#utility.yul\":5800:5823   */\n      sub\n        /* \"#utility.yul\":5796:5828   */\n      slt\n        /* \"#utility.yul\":5793:5912   */\n      iszero\n      tag_518\n      jumpi\n        /* \"#utility.yul\":5831:5910   */\n      tag_519\n      tag_478\n      jump\t// in\n    tag_519:\n        /* \"#utility.yul\":5793:5912   */\n    tag_518:\n        /* \"#utility.yul\":5951:5952   */\n      0x00\n        /* \"#utility.yul\":5976:6029   */\n      tag_520\n        /* \"#utility.yul\":6021:6028   */\n      dup6\n        /* \"#utility.yul\":6012:6018   */\n      dup3\n        /* \"#utility.yul\":6001:6010   */\n      dup7\n        /* \"#utility.yul\":5997:6019   */\n      add\n        /* \"#utility.yul\":5976:6029   */\n      tag_468\n      jump\t// in\n    tag_520:\n        /* \"#utility.yul\":5966:6029   */\n      swap3\n      pop\n        /* \"#utility.yul\":5922:6039   */\n      pop\n        /* \"#utility.yul\":6078:6080   */\n      0x20\n        /* \"#utility.yul\":6104:6157   */\n      tag_521\n        /* \"#utility.yul\":6149:6156   */\n      dup6\n        /* \"#utility.yul\":6140:6146   */\n      dup3\n        /* \"#utility.yul\":6129:6138   */\n      dup7\n        /* \"#utility.yul\":6125:6147   */\n      add\n        /* \"#utility.yul\":6104:6157   */\n      tag_468\n      jump\t// in\n    tag_521:\n        /* \"#utility.yul\":6094:6157   */\n      swap2\n      pop\n        /* \"#utility.yul\":6049:6167   */\n      pop\n        /* \"#utility.yul\":5700:6174   */\n      swap3\n      pop\n      swap3\n      swap1\n      pop\n      jump\t// out\n        /* \"#utility.yul\":6180:6793   */\n    tag_94:\n        /* \"#utility.yul\":6254:6260   */\n      0x00\n        /* \"#utility.yul\":6262:6268   */\n      dup1\n        /* \"#utility.yul\":6270:6276   */\n      0x00\n        /* \"#utility.yul\":6319:6321   */\n      0x60\n        /* \"#utility.yul\":6307:6316   */\n      dup5\n        /* \"#utility.yul\":6298:6305   */\n      dup7\n        /* \"#utility.yul\":6294:6317   */\n      sub\n        /* \"#utility.yul\":6290:6322   */\n      slt\n        /* \"#utility.yul\":6287:6406   */\n      iszero\n      tag_523\n      jumpi\n        /* \"#utility.yul\":6325:6404   */\n      tag_524\n      tag_478\n      jump\t// in\n    tag_524:\n        /* \"#utility.yul\":6287:6406   */\n    tag_523:\n        /* \"#utility.yul\":6445:6446   */\n      0x00\n        /* \"#utility.yul\":6470:6523   */\n      tag_525\n        /* \"#utility.yul\":6515:6522   */\n      dup7\n        /* \"#utility.yul\":6506:6512   */\n      dup3\n        /* \"#utility.yul\":6495:6504   */\n      dup8\n        /* \"#utility.yul\":6491:6513   */\n      add\n        /* \"#utility.yul\":6470:6523   */\n      tag_468\n      jump\t// in\n    tag_525:\n        /* \"#utility.yul\":6460:6523   */\n      swap4\n      pop\n        /* \"#utility.yul\":6416:6533   */\n      pop\n        /* \"#utility.yul\":6572:6574   */\n      0x20\n        /* \"#utility.yul\":6598:6651   */\n      tag_526\n        /* \"#utility.yul\":6643:6650   */\n      dup7\n        /* \"#utility.yul\":6634:6640   */\n      dup3\n        /* \"#utility.yul\":6623:6632   */\n      dup8\n        /* \"#utility.yul\":6619:6641   */\n      add\n        /* \"#utility.yul\":6598:6651   */\n      tag_468\n      jump\t// in\n    tag_526:\n        /* \"#utility.yul\":6588:6651   */\n      swap3\n      pop\n        /* \"#utility.yul\":6543:6661   */\n      pop\n        /* \"#utility.yul\":6700:6702   */\n      0x40\n        /* \"#utility.yul\":6726:6776   */\n      tag_527\n        /* \"#utility.yul\":6768:6775   */\n      dup7\n        /* \"#utility.yul\":6759:6765   */\n      dup3\n        /* \"#utility.yul\":6748:6757   */\n      dup8\n        /* \"#utility.yul\":6744:6766   */\n      add\n        /* \"#utility.yul\":6726:6776   */\n      tag_447\n      jump\t// in\n    tag_527:\n        /* \"#utility.yul\":6716:6776   */\n      swap2\n      pop\n        /* \"#utility.yul\":6671:6786   */\n      pop\n        /* \"#utility.yul\":6180:6793   */\n      swap3\n      pop\n      swap3\n      pop\n      swap3\n      jump\t// out\n        /* \"#utility.yul\":6799:6978   */\n    tag_528:\n        /* \"#utility.yul\":6868:6878   */\n      0x00\n        /* \"#utility.yul\":6889:6935   */\n      tag_530\n        /* \"#utility.yul\":6931:6934   */\n      dup4\n        /* \"#utility.yul\":6923:6929   */\n      dup4\n        /* \"#utility.yul\":6889:6935   */\n      tag_531\n      jump\t// in\n    tag_530:\n        /* \"#utility.yul\":6967:6971   */\n      0x20\n        /* \"#utility.yul\":6962:6965   */\n      dup4\n        /* \"#utility.yul\":6958:6972   */\n      add\n        /* \"#utility.yul\":6944:6972   */\n      swap1\n      pop\n        /* \"#utility.yul\":6799:6978   */\n      swap3\n      swap2\n      pop\n      pop\n      jump\t// out\n        /* \"#utility.yul\":6984:7102   */\n    tag_532:\n        /* \"#utility.yul\":7071:7095   */\n      tag_534\n        /* \"#utility.yul\":7089:7094   */\n      dup2\n        /* \"#utility.yul\":7071:7095   */\n      tag_535\n      jump\t// in\n    tag_534:\n        /* \"#utility.yul\":7066:7069   */\n      dup3\n        /* \"#utility.yul\":7059:7096   */\n      mstore\n        /* \"#utility.yul\":6984:7102   */\n      pop\n      pop\n      jump\t// out\n        /* \"#utility.yul\":7138:7870   */\n    tag_536:\n        /* \"#utility.yul\":7257:7260   */\n      0x00\n        /* \"#utility.yul\":7286:7340   */\n      tag_538\n        /* \"#utility.yul\":7334:7339   */\n      dup3\n        /* \"#utility.yul\":7286:7340   */\n      tag_539\n      jump\t// in\n    tag_538:\n        /* \"#utility.yul\":7356:7442   */\n      tag_540\n        /* \"#utility.yul\":7435:7441   */\n      dup2\n        /* \"#utility.yul\":7430:7433   */\n      dup6\n        /* \"#utility.yul\":7356:7442   */\n      tag_541\n      jump\t// in\n    tag_540:\n        /* \"#utility.yul\":7349:7442   */\n      swap4\n      pop\n        /* \"#utility.yul\":7466:7522   */\n      tag_542\n        /* \"#utility.yul\":7516:7521   */\n      dup4\n        /* \"#utility.yul\":7466:7522   */\n      tag_543\n      jump\t// in\n    tag_542:\n        /* \"#utility.yul\":7545:7552   */\n      dup1\n        /* \"#utility.yul\":7576:7577   */\n      0x00\n        /* \"#utility.yul\":7561:7845   */\n    tag_544:\n        /* \"#utility.yul\":7586:7592   */\n      dup4\n        /* \"#utility.yul\":7583:7584   */\n      dup2\n        /* \"#utility.yul\":7580:7593   */\n      lt\n        /* \"#utility.yul\":7561:7845   */\n      iszero\n      tag_546\n      jumpi\n        /* \"#utility.yul\":7662:7668   */\n      dup2\n        /* \"#utility.yul\":7656:7669   */\n      mload\n        /* \"#utility.yul\":7689:7752   */\n      tag_547\n        /* \"#utility.yul\":7748:7751   */\n      dup9\n        /* \"#utility.yul\":7733:7746   */\n      dup3\n        /* \"#utility.yul\":7689:7752   */\n      tag_528\n      jump\t// in\n    tag_547:\n        /* \"#utility.yul\":7682:7752   */\n      swap8\n      pop\n        /* \"#utility.yul\":7775:7835   */\n      tag_548\n        /* \"#utility.yul\":7828:7834   */\n      dup4\n        /* \"#utility.yul\":7775:7835   */\n      tag_549\n      jump\t// in\n    tag_548:\n        /* \"#utility.yul\":7765:7835   */\n      swap3\n      pop\n        /* \"#utility.yul\":7621:7845   */\n      pop\n        /* \"#utility.yul\":7608:7609   */\n      0x01\n        /* \"#utility.yul\":7605:7606   */\n      dup2\n        /* \"#utility.yul\":7601:7610   */\n      add\n        /* \"#utility.yul\":7596:7610   */\n      swap1\n      pop\n        /* \"#utility.yul\":7561:7845   */\n      jump(tag_544)\n    tag_546:\n        /* \"#utility.yul\":7565:7579   */\n      pop\n        /* \"#utility.yul\":7861:7864   */\n      dup6\n        /* \"#utility.yul\":7854:7864   */\n      swap4\n      pop\n        /* \"#utility.yul\":7262:7870   */\n      pop\n      pop\n      pop\n        /* \"#utility.yul\":7138:7870   */\n      swap3\n      swap2\n      pop\n      pop\n      jump\t// out\n        /* \"#utility.yul\":7876:7991   */\n    tag_550:\n        /* \"#utility.yul\":7961:7984   */\n      tag_552\n        /* \"#utility.yul\":7978:7983   */\n      dup2\n        /* \"#utility.yul\":7961:7984   */\n      tag_553\n      jump\t// in\n    tag_552:\n        /* \"#utility.yul\":7956:7959   */\n      dup3\n        /* \"#utility.yul\":7949:7985   */\n      mstore\n        /* \"#utility.yul\":7876:7991   */\n      pop\n      pop\n      jump\t// out\n        /* \"#utility.yul\":7997:8156   */\n    tag_554:\n        /* \"#utility.yul\":8098:8149   */\n      tag_556\n        /* \"#utility.yul\":8143:8148   */\n      dup2\n        /* \"#utility.yul\":8098:8149   */\n      tag_557\n      jump\t// in\n    tag_556:\n        /* \"#utility.yul\":8093:8096   */\n      dup3\n        /* \"#utility.yul\":8086:8150   */\n      mstore\n        /* \"#utility.yul\":7997:8156   */\n      pop\n      pop\n      jump\t// out\n        /* \"#utility.yul\":8162:8325   */\n    tag_558:\n        /* \"#utility.yul\":8265:8318   */\n      tag_560\n        /* \"#utility.yul\":8312:8317   */\n      dup2\n        /* \"#utility.yul\":8265:8318   */\n      tag_561\n      jump\t// in\n    tag_560:\n        /* \"#utility.yul\":8260:8263   */\n      dup3\n        /* \"#utility.yul\":8253:8319   */\n      mstore\n        /* \"#utility.yul\":8162:8325   */\n      pop\n      pop\n      jump\t// out\n        /* \"#utility.yul\":8331:8504   */\n    tag_562:\n        /* \"#utility.yul\":8439:8497   */\n      tag_564\n        /* \"#utility.yul\":8491:8496   */\n      dup2\n        /* \"#utility.yul\":8439:8497   */\n      tag_565\n      jump\t// in\n    tag_564:\n        /* \"#utility.yul\":8434:8437   */\n      dup3\n        /* \"#utility.yul\":8427:8498   */\n      mstore\n        /* \"#utility.yul\":8331:8504   */\n      pop\n      pop\n      jump\t// out\n        /* \"#utility.yul\":8510:8687   */\n    tag_566:\n        /* \"#utility.yul\":8620:8680   */\n      tag_568\n        /* \"#utility.yul\":8674:8679   */\n      dup2\n        /* \"#utility.yul\":8620:8680   */\n      tag_569\n      jump\t// in\n    tag_568:\n        /* \"#utility.yul\":8615:8618   */\n      dup3\n        /* \"#utility.yul\":8608:8681   */\n      mstore\n        /* \"#utility.yul\":8510:8687   */\n      pop\n      pop\n      jump\t// out\n        /* \"#utility.yul\":8693:9057   */\n    tag_570:\n        /* \"#utility.yul\":8781:8784   */\n      0x00\n        /* \"#utility.yul\":8809:8848   */\n      tag_572\n        /* \"#utility.yul\":8842:8847   */\n      dup3\n        /* \"#utility.yul\":8809:8848   */\n      tag_573\n      jump\t// in\n    tag_572:\n        /* \"#utility.yul\":8864:8935   */\n      tag_574\n        /* \"#utility.yul\":8928:8934   */\n      dup2\n        /* \"#utility.yul\":8923:8926   */\n      dup6\n        /* \"#utility.yul\":8864:8935   */\n      tag_575\n      jump\t// in\n    tag_574:\n        /* \"#utility.yul\":8857:8935   */\n      swap4\n      pop\n        /* \"#utility.yul\":8944:8996   */\n      tag_576\n        /* \"#utility.yul\":8989:8995   */\n      dup2\n        /* \"#utility.yul\":8984:8987   */\n      dup6\n        /* \"#utility.yul\":8977:8981   */\n      0x20\n        /* \"#utility.yul\":8970:8975   */\n      dup7\n        /* \"#utility.yul\":8966:8982   */\n      add\n        /* \"#utility.yul\":8944:8996   */\n      tag_577\n      jump\t// in\n    tag_576:\n        /* \"#utility.yul\":9021:9050   */\n      tag_578\n        /* \"#utility.yul\":9043:9049   */\n      dup2\n        /* \"#utility.yul\":9021:9050   */\n      tag_579\n      jump\t// in\n    tag_578:\n        /* \"#utility.yul\":9016:9019   */\n      dup5\n        /* \"#utility.yul\":9012:9051   */\n      add\n        /* \"#utility.yul\":9005:9051   */\n      swap2\n      pop\n        /* \"#utility.yul\":8785:9057   */\n      pop\n        /* \"#utility.yul\":8693:9057   */\n      swap3\n      swap2\n      pop\n      pop\n      jump\t// out\n        /* \"#utility.yul\":9063:9429   */\n    tag_580:\n        /* \"#utility.yul\":9205:9208   */\n      0x00\n        /* \"#utility.yul\":9226:9293   */\n      tag_582\n        /* \"#utility.yul\":9290:9292   */\n      0x26\n        /* \"#utility.yul\":9285:9288   */\n      dup4\n        /* \"#utility.yul\":9226:9293   */\n      tag_575\n      jump\t// in\n    tag_582:\n        /* \"#utility.yul\":9219:9293   */\n      swap2\n      pop\n        /* \"#utility.yul\":9302:9395   */\n      tag_583\n        /* \"#utility.yul\":9391:9394   */\n      dup3\n        /* \"#utility.yul\":9302:9395   */\n      tag_584\n      jump\t// in\n    tag_583:\n        /* \"#utility.yul\":9420:9422   */\n      0x40\n        /* \"#utility.yul\":9415:9418   */\n      dup3\n        /* \"#utility.yul\":9411:9423   */\n      add\n        /* \"#utility.yul\":9404:9423   */\n      swap1\n      pop\n        /* \"#utility.yul\":9063:9429   */\n      swap2\n      swap1\n      pop\n      jump\t// out\n        /* \"#utility.yul\":9435:9801   */\n    tag_585:\n        /* \"#utility.yul\":9577:9580   */\n      0x00\n        /* \"#utility.yul\":9598:9665   */\n      tag_587\n        /* \"#utility.yul\":9662:9664   */\n      0x1b\n        /* \"#utility.yul\":9657:9660   */\n      dup4\n        /* \"#utility.yul\":9598:9665   */\n      tag_575\n      jump\t// in\n    tag_587:\n        /* \"#utility.yul\":9591:9665   */\n      swap2\n      pop\n        /* \"#utility.yul\":9674:9767   */\n      tag_588\n        /* \"#utility.yul\":9763:9766   */\n      dup3\n        /* \"#utility.yul\":9674:9767   */\n      tag_589\n      jump\t// in\n    tag_588:\n        /* \"#utility.yul\":9792:9794   */\n      0x20\n        /* \"#utility.yul\":9787:9790   */\n      dup3\n        /* \"#utility.yul\":9783:9795   */\n      add\n        /* \"#utility.yul\":9776:9795   */\n      swap1\n      pop\n        /* \"#utility.yul\":9435:9801   */\n      swap2\n      swap1\n      pop\n      jump\t// out\n        /* \"#utility.yul\":9807:10173   */\n    tag_590:\n        /* \"#utility.yul\":9949:9952   */\n      0x00\n        /* \"#utility.yul\":9970:10037   */\n      tag_592\n        /* \"#utility.yul\":10034:10036   */\n      0x1d\n        /* \"#utility.yul\":10029:10032   */\n      dup4\n        /* \"#utility.yul\":9970:10037   */\n      tag_575\n      jump\t// in\n    tag_592:\n        /* \"#utility.yul\":9963:10037   */\n      swap2\n      pop\n        /* \"#utility.yul\":10046:10139   */\n      tag_593\n        /* \"#utility.yul\":10135:10138   */\n      dup3\n        /* \"#utility.yul\":10046:10139   */\n      tag_594\n      jump\t// in\n    tag_593:\n        /* \"#utility.yul\":10164:10166   */\n      0x20\n        /* \"#utility.yul\":10159:10162   */\n      dup3\n        /* \"#utility.yul\":10155:10167   */\n      add\n        /* \"#utility.yul\":10148:10167   */\n      swap1\n      pop\n        /* \"#utility.yul\":9807:10173   */\n      swap2\n      swap1\n      pop\n      jump\t// out\n        /* \"#utility.yul\":10179:10545   */\n    tag_595:\n        /* \"#utility.yul\":10321:10324   */\n      0x00\n        /* \"#utility.yul\":10342:10409   */\n      tag_597\n        /* \"#utility.yul\":10406:10408   */\n      0x0e\n        /* \"#utility.yul\":10401:10404   */\n      dup4\n        /* \"#utility.yul\":10342:10409   */\n      tag_575\n      jump\t// in\n    tag_597:\n        /* \"#utility.yul\":10335:10409   */\n      swap2\n      pop\n        /* \"#utility.yul\":10418:10511   */\n      tag_598\n        /* \"#utility.yul\":10507:10510   */\n      dup3\n        /* \"#utility.yul\":10418:10511   */\n      tag_599\n      jump\t// in\n    tag_598:\n        /* \"#utility.yul\":10536:10538   */\n      0x20\n        /* \"#utility.yul\":10531:10534   */\n      dup3\n        /* \"#utility.yul\":10527:10539   */\n      add\n        /* \"#utility.yul\":10520:10539   */\n      swap1\n      pop\n        /* \"#utility.yul\":10179:10545   */\n      swap2\n      swap1\n      pop\n      jump\t// out\n        /* \"#utility.yul\":10551:10917   */\n    tag_600:\n        /* \"#utility.yul\":10693:10696   */\n      0x00\n        /* \"#utility.yul\":10714:10781   */\n      tag_602\n        /* \"#utility.yul\":10778:10780   */\n      0x21\n        /* \"#utility.yul\":10773:10776   */\n      dup4\n        /* \"#utility.yul\":10714:10781   */\n      tag_575\n      jump\t// in\n    tag_602:\n        /* \"#utility.yul\":10707:10781   */\n      swap2\n      pop\n        /* \"#utility.yul\":10790:10883   */\n      tag_603\n        /* \"#utility.yul\":10879:10882   */\n      dup3\n        /* \"#utility.yul\":10790:10883   */\n      tag_604\n      jump\t// in\n    tag_603:\n        /* \"#utility.yul\":10908:10910   */\n      0x40\n        /* \"#utility.yul\":10903:10906   */\n      dup3\n        /* \"#utility.yul\":10899:10911   */\n      add\n        /* \"#utility.yul\":10892:10911   */\n      swap1\n      pop\n        /* \"#utility.yul\":10551:10917   */\n      swap2\n      swap1\n      pop\n      jump\t// out\n        /* \"#utility.yul\":10923:11289   */\n    tag_605:\n        /* \"#utility.yul\":11065:11068   */\n      0x00\n        /* \"#utility.yul\":11086:11153   */\n      tag_607\n        /* \"#utility.yul\":11150:11152   */\n      0x20\n        /* \"#utility.yul\":11145:11148   */\n      dup4\n        /* \"#utility.yul\":11086:11153   */\n      tag_575\n      jump\t// in\n    tag_607:\n        /* \"#utility.yul\":11079:11153   */\n      swap2\n      pop\n        /* \"#utility.yul\":11162:11255   */\n      tag_608\n        /* \"#utility.yul\":11251:11254   */\n      dup3\n        /* \"#utility.yul\":11162:11255   */\n      tag_609\n      jump\t// in\n    tag_608:\n        /* \"#utility.yul\":11280:11282   */\n      0x20\n        /* \"#utility.yul\":11275:11278   */\n      dup3\n        /* \"#utility.yul\":11271:11283   */\n      add\n        /* \"#utility.yul\":11264:11283   */\n      swap1\n      pop\n        /* \"#utility.yul\":10923:11289   */\n      swap2\n      swap1\n      pop\n      jump\t// out\n        /* \"#utility.yul\":11295:11661   */\n    tag_610:\n        /* \"#utility.yul\":11437:11440   */\n      0x00\n        /* \"#utility.yul\":11458:11525   */\n      tag_612\n        /* \"#utility.yul\":11522:11524   */\n      0x12\n        /* \"#utility.yul\":11517:11520   */\n      dup4\n        /* \"#utility.yul\":11458:11525   */\n      tag_575\n      jump\t// in\n    tag_612:\n        /* \"#utility.yul\":11451:11525   */\n      swap2\n      pop\n        /* \"#utility.yul\":11534:11627   */\n      tag_613\n        /* \"#utility.yul\":11623:11626   */\n      dup3\n        /* \"#utility.yul\":11534:11627   */\n      tag_614\n      jump\t// in\n    tag_613:\n        /* \"#utility.yul\":11652:11654   */\n      0x20\n        /* \"#utility.yul\":11647:11650   */\n      dup3\n        /* \"#utility.yul\":11643:11655   */\n      add\n        /* \"#utility.yul\":11636:11655   */\n      swap1\n      pop\n        /* \"#utility.yul\":11295:11661   */\n      swap2\n      swap1\n      pop\n      jump\t// out\n        /* \"#utility.yul\":11667:11775   */\n    tag_531:\n        /* \"#utility.yul\":11744:11768   */\n      tag_616\n        /* \"#utility.yul\":11762:11767   */\n      dup2\n        /* \"#utility.yul\":11744:11768   */\n      tag_617\n      jump\t// in\n    tag_616:\n        /* \"#utility.yul\":11739:11742   */\n      dup3\n        /* \"#utility.yul\":11732:11769   */\n      mstore\n        /* \"#utility.yul\":11667:11775   */\n      pop\n      pop\n      jump\t// out\n        /* \"#utility.yul\":11781:11899   */\n    tag_618:\n        /* \"#utility.yul\":11868:11892   */\n      tag_620\n        /* \"#utility.yul\":11886:11891   */\n      dup2\n        /* \"#utility.yul\":11868:11892   */\n      tag_617\n      jump\t// in\n    tag_620:\n        /* \"#utility.yul\":11863:11866   */\n      dup3\n        /* \"#utility.yul\":11856:11893   */\n      mstore\n        /* \"#utility.yul\":11781:11899   */\n      pop\n      pop\n      jump\t// out\n        /* \"#utility.yul\":11905:12127   */\n    tag_108:\n        /* \"#utility.yul\":11998:12002   */\n      0x00\n        /* \"#utility.yul\":12036:12038   */\n      0x20\n        /* \"#utility.yul\":12025:12034   */\n      dup3\n        /* \"#utility.yul\":12021:12039   */\n      add\n        /* \"#utility.yul\":12013:12039   */\n      swap1\n      pop\n        /* \"#utility.yul\":12049:12120   */\n      tag_622\n        /* \"#utility.yul\":12117:12118   */\n      0x00\n        /* \"#utility.yul\":12106:12115   */\n      dup4\n        /* \"#utility.yul\":12102:12119   */\n      add\n        /* \"#utility.yul\":12093:12099   */\n      dup5\n        /* \"#utility.yul\":12049:12120   */\n      tag_532\n      jump\t// in\n    tag_622:\n        /* \"#utility.yul\":11905:12127   */\n      swap3\n      swap2\n      pop\n      pop\n      jump\t// out\n        /* \"#utility.yul\":12133:12575   */\n    tag_267:\n        /* \"#utility.yul\":12282:12286   */\n      0x00\n        /* \"#utility.yul\":12320:12322   */\n      0x60\n        /* \"#utility.yul\":12309:12318   */\n      dup3\n        /* \"#utility.yul\":12305:12323   */\n      add\n        /* \"#utility.yul\":12297:12323   */\n      swap1\n      pop\n        /* \"#utility.yul\":12333:12404   */\n      tag_624\n        /* \"#utility.yul\":12401:12402   */\n      0x00\n        /* \"#utility.yul\":12390:12399   */\n      dup4\n        /* \"#utility.yul\":12386:12403   */\n      add\n        /* \"#utility.yul\":12377:12383   */\n      dup7\n        /* \"#utility.yul\":12333:12404   */\n      tag_532\n      jump\t// in\n    tag_624:\n        /* \"#utility.yul\":12414:12486   */\n      tag_625\n        /* \"#utility.yul\":12482:12484   */\n      0x20\n        /* \"#utility.yul\":12471:12480   */\n      dup4\n        /* \"#utility.yul\":12467:12485   */\n      add\n        /* \"#utility.yul\":12458:12464   */\n      dup6\n        /* \"#utility.yul\":12414:12486   */\n      tag_532\n      jump\t// in\n    tag_625:\n        /* \"#utility.yul\":12496:12568   */\n      tag_626\n        /* \"#utility.yul\":12564:12566   */\n      0x40\n        /* \"#utility.yul\":12553:12562   */\n      dup4\n        /* \"#utility.yul\":12549:12567   */\n      add\n        /* \"#utility.yul\":12540:12546   */\n      dup5\n        /* \"#utility.yul\":12496:12568   */\n      tag_618\n      jump\t// in\n    tag_626:\n        /* \"#utility.yul\":12133:12575   */\n      swap5\n      swap4\n      pop\n      pop\n      pop\n      pop\n      jump\t// out\n        /* \"#utility.yul\":12581:12913   */\n    tag_164:\n        /* \"#utility.yul\":12702:12706   */\n      0x00\n        /* \"#utility.yul\":12740:12742   */\n      0x40\n        /* \"#utility.yul\":12729:12738   */\n      dup3\n        /* \"#utility.yul\":12725:12743   */\n      add\n        /* \"#utility.yul\":12717:12743   */\n      swap1\n      pop\n        /* \"#utility.yul\":12753:12824   */\n      tag_628\n        /* \"#utility.yul\":12821:12822   */\n      0x00\n        /* \"#utility.yul\":12810:12819   */\n      dup4\n        /* \"#utility.yul\":12806:12823   */\n      add\n        /* \"#utility.yul\":12797:12803   */\n      dup6\n        /* \"#utility.yul\":12753:12824   */\n      tag_532\n      jump\t// in\n    tag_628:\n        /* \"#utility.yul\":12834:12906   */\n      tag_629\n        /* \"#utility.yul\":12902:12904   */\n      0x20\n        /* \"#utility.yul\":12891:12900   */\n      dup4\n        /* \"#utility.yul\":12887:12905   */\n      add\n        /* \"#utility.yul\":12878:12884   */\n      dup5\n        /* \"#utility.yul\":12834:12906   */\n      tag_618\n      jump\t// in\n    tag_629:\n        /* \"#utility.yul\":12581:12913   */\n      swap4\n      swap3\n      pop\n      pop\n      pop\n      jump\t// out\n        /* \"#utility.yul\":12919:13292   */\n    tag_133:\n        /* \"#utility.yul\":13062:13066   */\n      0x00\n        /* \"#utility.yul\":13100:13102   */\n      0x20\n        /* \"#utility.yul\":13089:13098   */\n      dup3\n        /* \"#utility.yul\":13085:13103   */\n      add\n        /* \"#utility.yul\":13077:13103   */\n      swap1\n      pop\n        /* \"#utility.yul\":13149:13158   */\n      dup2\n        /* \"#utility.yul\":13143:13147   */\n      dup2\n        /* \"#utility.yul\":13139:13159   */\n      sub\n        /* \"#utility.yul\":13135:13136   */\n      0x00\n        /* \"#utility.yul\":13124:13133   */\n      dup4\n        /* \"#utility.yul\":13120:13137   */\n      add\n        /* \"#utility.yul\":13113:13160   */\n      mstore\n        /* \"#utility.yul\":13177:13285   */\n      tag_631\n        /* \"#utility.yul\":13280:13284   */\n      dup2\n        /* \"#utility.yul\":13271:13277   */\n      dup5\n        /* \"#utility.yul\":13177:13285   */\n      tag_536\n      jump\t// in\n    tag_631:\n        /* \"#utility.yul\":13169:13285   */\n      swap1\n      pop\n        /* \"#utility.yul\":12919:13292   */\n      swap3\n      swap2\n      pop\n      pop\n      jump\t// out\n        /* \"#utility.yul\":13298:13516   */\n    tag_52:\n        /* \"#utility.yul\":13389:13393   */\n      0x00\n        /* \"#utility.yul\":13427:13429   */\n      0x20\n        /* \"#utility.yul\":13416:13425   */\n      dup3\n        /* \"#utility.yul\":13412:13430   */\n      add\n        /* \"#utility.yul\":13404:13430   */\n      swap1\n      pop\n        /* \"#utility.yul\":13440:13509   */\n      tag_633\n        /* \"#utility.yul\":13506:13507   */\n      0x00\n        /* \"#utility.yul\":13495:13504   */\n      dup4\n        /* \"#utility.yul\":13491:13508   */\n      add\n        /* \"#utility.yul\":13482:13488   */\n      dup5\n        /* \"#utility.yul\":13440:13509   */\n      tag_550\n      jump\t// in\n    tag_633:\n        /* \"#utility.yul\":13298:13516   */\n      swap3\n      swap2\n      pop\n      pop\n      jump\t// out\n        /* \"#utility.yul\":13522:13772   */\n    tag_121:\n        /* \"#utility.yul\":13629:13633   */\n      0x00\n        /* \"#utility.yul\":13667:13669   */\n      0x20\n        /* \"#utility.yul\":13656:13665   */\n      dup3\n        /* \"#utility.yul\":13652:13670   */\n      add\n        /* \"#utility.yul\":13644:13670   */\n      swap1\n      pop\n        /* \"#utility.yul\":13680:13765   */\n      tag_635\n        /* \"#utility.yul\":13762:13763   */\n      0x00\n        /* \"#utility.yul\":13751:13760   */\n      dup4\n        /* \"#utility.yul\":13747:13764   */\n      add\n        /* \"#utility.yul\":13738:13744   */\n      dup5\n        /* \"#utility.yul\":13680:13765   */\n      tag_554\n      jump\t// in\n    tag_635:\n        /* \"#utility.yul\":13522:13772   */\n      swap3\n      swap2\n      pop\n      pop\n      jump\t// out\n        /* \"#utility.yul\":13778:14363   */\n    tag_57:\n        /* \"#utility.yul\":13971:13975   */\n      0x00\n        /* \"#utility.yul\":14009:14012   */\n      0x80\n        /* \"#utility.yul\":13998:14007   */\n      dup3\n        /* \"#utility.yul\":13994:14013   */\n      add\n        /* \"#utility.yul\":13986:14013   */\n      swap1\n      pop\n        /* \"#utility.yul\":14023:14110   */\n      tag_637\n        /* \"#utility.yul\":14107:14108   */\n      0x00\n        /* \"#utility.yul\":14096:14105   */\n      dup4\n        /* \"#utility.yul\":14092:14109   */\n      add\n        /* \"#utility.yul\":14083:14089   */\n      dup8\n        /* \"#utility.yul\":14023:14110   */\n      tag_558\n      jump\t// in\n    tag_637:\n        /* \"#utility.yul\":14120:14192   */\n      tag_638\n        /* \"#utility.yul\":14188:14190   */\n      0x20\n        /* \"#utility.yul\":14177:14186   */\n      dup4\n        /* \"#utility.yul\":14173:14191   */\n      add\n        /* \"#utility.yul\":14164:14170   */\n      dup7\n        /* \"#utility.yul\":14120:14192   */\n      tag_618\n      jump\t// in\n    tag_638:\n        /* \"#utility.yul\":14202:14274   */\n      tag_639\n        /* \"#utility.yul\":14270:14272   */\n      0x40\n        /* \"#utility.yul\":14259:14268   */\n      dup4\n        /* \"#utility.yul\":14255:14273   */\n      add\n        /* \"#utility.yul\":14246:14252   */\n      dup6\n        /* \"#utility.yul\":14202:14274   */\n      tag_618\n      jump\t// in\n    tag_639:\n        /* \"#utility.yul\":14284:14356   */\n      tag_640\n        /* \"#utility.yul\":14352:14354   */\n      0x60\n        /* \"#utility.yul\":14341:14350   */\n      dup4\n        /* \"#utility.yul\":14337:14355   */\n      add\n        /* \"#utility.yul\":14328:14334   */\n      dup5\n        /* \"#utility.yul\":14284:14356   */\n      tag_618\n      jump\t// in\n    tag_640:\n        /* \"#utility.yul\":13778:14363   */\n      swap6\n      swap5\n      pop\n      pop\n      pop\n      pop\n      pop\n      jump\t// out\n        /* \"#utility.yul\":14369:14633   */\n    tag_101:\n        /* \"#utility.yul\":14483:14487   */\n      0x00\n        /* \"#utility.yul\":14521:14523   */\n      0x20\n        /* \"#utility.yul\":14510:14519   */\n      dup3\n        /* \"#utility.yul\":14506:14524   */\n      add\n        /* \"#utility.yul\":14498:14524   */\n      swap1\n      pop\n        /* \"#utility.yul\":14534:14626   */\n      tag_642\n        /* \"#utility.yul\":14623:14624   */\n      0x00\n        /* \"#utility.yul\":14612:14621   */\n      dup4\n        /* \"#utility.yul\":14608:14625   */\n      add\n        /* \"#utility.yul\":14599:14605   */\n      dup5\n        /* \"#utility.yul\":14534:14626   */\n      tag_562\n      jump\t// in\n    tag_642:\n        /* \"#utility.yul\":14369:14633   */\n      swap3\n      swap2\n      pop\n      pop\n      jump\t// out\n        /* \"#utility.yul\":14639:14907   */\n    tag_140:\n        /* \"#utility.yul\":14755:14759   */\n      0x00\n        /* \"#utility.yul\":14793:14795   */\n      0x20\n        /* \"#utility.yul\":14782:14791   */\n      dup3\n        /* \"#utility.yul\":14778:14796   */\n      add\n        /* \"#utility.yul\":14770:14796   */\n      swap1\n      pop\n        /* \"#utility.yul\":14806:14900   */\n      tag_644\n        /* \"#utility.yul\":14897:14898   */\n      0x00\n        /* \"#utility.yul\":14886:14895   */\n      dup4\n        /* \"#utility.yul\":14882:14899   */\n      add\n        /* \"#utility.yul\":14873:14879   */\n      dup5\n        /* \"#utility.yul\":14806:14900   */\n      tag_566\n      jump\t// in\n    tag_644:\n        /* \"#utility.yul\":14639:14907   */\n      swap3\n      swap2\n      pop\n      pop\n      jump\t// out\n        /* \"#utility.yul\":14913:15226   */\n    tag_424:\n        /* \"#utility.yul\":15026:15030   */\n      0x00\n        /* \"#utility.yul\":15064:15066   */\n      0x20\n        /* \"#utility.yul\":15053:15062   */\n      dup3\n        /* \"#utility.yul\":15049:15067   */\n      add\n        /* \"#utility.yul\":15041:15067   */\n      swap1\n      pop\n        /* \"#utility.yul\":15113:15122   */\n      dup2\n        /* \"#utility.yul\":15107:15111   */\n      dup2\n        /* \"#utility.yul\":15103:15123   */\n      sub\n        /* \"#utility.yul\":15099:15100   */\n      0x00\n        /* \"#utility.yul\":15088:15097   */\n      dup4\n        /* \"#utility.yul\":15084:15101   */\n      add\n        /* \"#utility.yul\":15077:15124   */\n      mstore\n        /* \"#utility.yul\":15141:15219   */\n      tag_646\n        /* \"#utility.yul\":15214:15218   */\n      dup2\n        /* \"#utility.yul\":15205:15211   */\n      dup5\n        /* \"#utility.yul\":15141:15219   */\n      tag_570\n      jump\t// in\n    tag_646:\n        /* \"#utility.yul\":15133:15219   */\n      swap1\n      pop\n        /* \"#utility.yul\":14913:15226   */\n      swap3\n      swap2\n      pop\n      pop\n      jump\t// out\n        /* \"#utility.yul\":15232:15651   */\n    tag_378:\n        /* \"#utility.yul\":15398:15402   */\n      0x00\n        /* \"#utility.yul\":15436:15438   */\n      0x20\n        /* \"#utility.yul\":15425:15434   */\n      dup3\n        /* \"#utility.yul\":15421:15439   */\n      add\n        /* \"#utility.yul\":15413:15439   */\n      swap1\n      pop\n        /* \"#utility.yul\":15485:15494   */\n      dup2\n        /* \"#utility.yul\":15479:15483   */\n      dup2\n        /* \"#utility.yul\":15475:15495   */\n      sub\n        /* \"#utility.yul\":15471:15472   */\n      0x00\n        /* \"#utility.yul\":15460:15469   */\n      dup4\n        /* \"#utility.yul\":15456:15473   */\n      add\n        /* \"#utility.yul\":15449:15496   */\n      mstore\n        /* \"#utility.yul\":15513:15644   */\n      tag_648\n        /* \"#utility.yul\":15639:15643   */\n      dup2\n        /* \"#utility.yul\":15513:15644   */\n      tag_580\n      jump\t// in\n    tag_648:\n        /* \"#utility.yul\":15505:15644   */\n      swap1\n      pop\n        /* \"#utility.yul\":15232:15651   */\n      swap2\n      swap1\n      pop\n      jump\t// out\n        /* \"#utility.yul\":15657:16076   */\n    tag_401:\n        /* \"#utility.yul\":15823:15827   */\n      0x00\n        /* \"#utility.yul\":15861:15863   */\n      0x20\n        /* \"#utility.yul\":15850:15859   */\n      dup3\n        /* \"#utility.yul\":15846:15864   */\n      add\n        /* \"#utility.yul\":15838:15864   */\n      swap1\n      pop\n        /* \"#utility.yul\":15910:15919   */\n      dup2\n        /* \"#utility.yul\":15904:15908   */\n      dup2\n        /* \"#utility.yul\":15900:15920   */\n      sub\n        /* \"#utility.yul\":15896:15897   */\n      0x00\n        /* \"#utility.yul\":15885:15894   */\n      dup4\n        /* \"#utility.yul\":15881:15898   */\n      add\n        /* \"#utility.yul\":15874:15921   */\n      mstore\n        /* \"#utility.yul\":15938:16069   */\n      tag_650\n        /* \"#utility.yul\":16064:16068   */\n      dup2\n        /* \"#utility.yul\":15938:16069   */\n      tag_585\n      jump\t// in\n    tag_650:\n        /* \"#utility.yul\":15930:16069   */\n      swap1\n      pop\n        /* \"#utility.yul\":15657:16076   */\n      swap2\n      swap1\n      pop\n      jump\t// out\n        /* \"#utility.yul\":16082:16501   */\n    tag_253:\n        /* \"#utility.yul\":16248:16252   */\n      0x00\n        /* \"#utility.yul\":16286:16288   */\n      0x20\n        /* \"#utility.yul\":16275:16284   */\n      dup3\n        /* \"#utility.yul\":16271:16289   */\n      add\n        /* \"#utility.yul\":16263:16289   */\n      swap1\n      pop\n        /* \"#utility.yul\":16335:16344   */\n      dup2\n        /* \"#utility.yul\":16329:16333   */\n      dup2\n        /* \"#utility.yul\":16325:16345   */\n      sub\n        /* \"#utility.yul\":16321:16322   */\n      0x00\n        /* \"#utility.yul\":16310:16319   */\n      dup4\n        /* \"#utility.yul\":16306:16323   */\n      add\n        /* \"#utility.yul\":16299:16346   */\n      mstore\n        /* \"#utility.yul\":16363:16494   */\n      tag_652\n        /* \"#utility.yul\":16489:16493   */\n      dup2\n        /* \"#utility.yul\":16363:16494   */\n      tag_590\n      jump\t// in\n    tag_652:\n        /* \"#utility.yul\":16355:16494   */\n      swap1\n      pop\n        /* \"#utility.yul\":16082:16501   */\n      swap2\n      swap1\n      pop\n      jump\t// out\n        /* \"#utility.yul\":16507:16926   */\n    tag_162:\n        /* \"#utility.yul\":16673:16677   */\n      0x00\n        /* \"#utility.yul\":16711:16713   */\n      0x20\n        /* \"#utility.yul\":16700:16709   */\n      dup3\n        /* \"#utility.yul\":16696:16714   */\n      add\n        /* \"#utility.yul\":16688:16714   */\n      swap1\n      pop\n        /* \"#utility.yul\":16760:16769   */\n      dup2\n        /* \"#utility.yul\":16754:16758   */\n      dup2\n        /* \"#utility.yul\":16750:16770   */\n      sub\n        /* \"#utility.yul\":16746:16747   */\n      0x00\n        /* \"#utility.yul\":16735:16744   */\n      dup4\n        /* \"#utility.yul\":16731:16748   */\n      add\n        /* \"#utility.yul\":16724:16771   */\n      mstore\n        /* \"#utility.yul\":16788:16919   */\n      tag_654\n        /* \"#utility.yul\":16914:16918   */\n      dup2\n        /* \"#utility.yul\":16788:16919   */\n      tag_595\n      jump\t// in\n    tag_654:\n        /* \"#utility.yul\":16780:16919   */\n      swap1\n      pop\n        /* \"#utility.yul\":16507:16926   */\n      swap2\n      swap1\n      pop\n      jump\t// out\n        /* \"#utility.yul\":16932:17351   */\n    tag_388:\n        /* \"#utility.yul\":17098:17102   */\n      0x00\n        /* \"#utility.yul\":17136:17138   */\n      0x20\n        /* \"#utility.yul\":17125:17134   */\n      dup3\n        /* \"#utility.yul\":17121:17139   */\n      add\n        /* \"#utility.yul\":17113:17139   */\n      swap1\n      pop\n        /* \"#utility.yul\":17185:17194   */\n      dup2\n        /* \"#utility.yul\":17179:17183   */\n      dup2\n        /* \"#utility.yul\":17175:17195   */\n      sub\n        /* \"#utility.yul\":17171:17172   */\n      0x00\n        /* \"#utility.yul\":17160:17169   */\n      dup4\n        /* \"#utility.yul\":17156:17173   */\n      add\n        /* \"#utility.yul\":17149:17196   */\n      mstore\n        /* \"#utility.yul\":17213:17344   */\n      tag_656\n        /* \"#utility.yul\":17339:17343   */\n      dup2\n        /* \"#utility.yul\":17213:17344   */\n      tag_600\n      jump\t// in\n    tag_656:\n        /* \"#utility.yul\":17205:17344   */\n      swap1\n      pop\n        /* \"#utility.yul\":16932:17351   */\n      swap2\n      swap1\n      pop\n      jump\t// out\n        /* \"#utility.yul\":17357:17776   */\n    tag_187:\n        /* \"#utility.yul\":17523:17527   */\n      0x00\n        /* \"#utility.yul\":17561:17563   */\n      0x20\n        /* \"#utility.yul\":17550:17559   */\n      dup3\n        /* \"#utility.yul\":17546:17564   */\n      add\n        /* \"#utility.yul\":17538:17564   */\n      swap1\n      pop\n        /* \"#utility.yul\":17610:17619   */\n      dup2\n        /* \"#utility.yul\":17604:17608   */\n      dup2\n        /* \"#utility.yul\":17600:17620   */\n      sub\n        /* \"#utility.yul\":17596:17597   */\n      0x00\n        /* \"#utility.yul\":17585:17594   */\n      dup4\n        /* \"#utility.yul\":17581:17598   */\n      add\n        /* \"#utility.yul\":17574:17621   */\n      mstore\n        /* \"#utility.yul\":17638:17769   */\n      tag_658\n        /* \"#utility.yul\":17764:17768   */\n      dup2\n        /* \"#utility.yul\":17638:17769   */\n      tag_605\n      jump\t// in\n    tag_658:\n        /* \"#utility.yul\":17630:17769   */\n      swap1\n      pop\n        /* \"#utility.yul\":17357:17776   */\n      swap2\n      swap1\n      pop\n      jump\t// out\n        /* \"#utility.yul\":17782:18201   */\n    tag_230:\n        /* \"#utility.yul\":17948:17952   */\n      0x00\n        /* \"#utility.yul\":17986:17988   */\n      0x20\n        /* \"#utility.yul\":17975:17984   */\n      dup3\n        /* \"#utility.yul\":17971:17989   */\n      add\n        /* \"#utility.yul\":17963:17989   */\n      swap1\n      pop\n        /* \"#utility.yul\":18035:18044   */\n      dup2\n        /* \"#utility.yul\":18029:18033   */\n      dup2\n        /* \"#utility.yul\":18025:18045   */\n      sub\n        /* \"#utility.yul\":18021:18022   */\n      0x00\n        /* \"#utility.yul\":18010:18019   */\n      dup4\n        /* \"#utility.yul\":18006:18023   */\n      add\n        /* \"#utility.yul\":17999:18046   */\n      mstore\n        /* \"#utility.yul\":18063:18194   */\n      tag_660\n        /* \"#utility.yul\":18189:18193   */\n      dup2\n        /* \"#utility.yul\":18063:18194   */\n      tag_610\n      jump\t// in\n    tag_660:\n        /* \"#utility.yul\":18055:18194   */\n      swap1\n      pop\n        /* \"#utility.yul\":17782:18201   */\n      swap2\n      swap1\n      pop\n      jump\t// out\n        /* \"#utility.yul\":18207:18429   */\n    tag_42:\n        /* \"#utility.yul\":18300:18304   */\n      0x00\n        /* \"#utility.yul\":18338:18340   */\n      0x20\n        /* \"#utility.yul\":18327:18336   */\n      dup3\n        /* \"#utility.yul\":18323:18341   */\n      add\n        /* \"#utility.yul\":18315:18341   */\n      swap1\n      pop\n        /* \"#utility.yul\":18351:18422   */\n      tag_662\n        /* \"#utility.yul\":18419:18420   */\n      0x00\n        /* \"#utility.yul\":18408:18417   */\n      dup4\n        /* \"#utility.yul\":18404:18421   */\n      add\n        /* \"#utility.yul\":18395:18401   */\n      dup5\n        /* \"#utility.yul\":18351:18422   */\n      tag_618\n      jump\t// in\n    tag_662:\n        /* \"#utility.yul\":18207:18429   */\n      swap3\n      swap2\n      pop\n      pop\n      jump\t// out\n        /* \"#utility.yul\":18435:18767   */\n    tag_171:\n        /* \"#utility.yul\":18556:18560   */\n      0x00\n        /* \"#utility.yul\":18594:18596   */\n      0x40\n        /* \"#utility.yul\":18583:18592   */\n      dup3\n        /* \"#utility.yul\":18579:18597   */\n      add\n        /* \"#utility.yul\":18571:18597   */\n      swap1\n      pop\n        /* \"#utility.yul\":18607:18678   */\n      tag_664\n        /* \"#utility.yul\":18675:18676   */\n      0x00\n        /* \"#utility.yul\":18664:18673   */\n      dup4\n        /* \"#utility.yul\":18660:18677   */\n      add\n        /* \"#utility.yul\":18651:18657   */\n      dup6\n        /* \"#utility.yul\":18607:18678   */\n      tag_618\n      jump\t// in\n    tag_664:\n        /* \"#utility.yul\":18688:18760   */\n      tag_665\n        /* \"#utility.yul\":18756:18758   */\n      0x20\n        /* \"#utility.yul\":18745:18754   */\n      dup4\n        /* \"#utility.yul\":18741:18759   */\n      add\n        /* \"#utility.yul\":18732:18738   */\n      dup5\n        /* \"#utility.yul\":18688:18760   */\n      tag_532\n      jump\t// in\n    tag_665:\n        /* \"#utility.yul\":18435:18767   */\n      swap4\n      swap3\n      pop\n      pop\n      pop\n      jump\t// out\n        /* \"#utility.yul\":18773:19105   */\n    tag_117:\n        /* \"#utility.yul\":18894:18898   */\n      0x00\n        /* \"#utility.yul\":18932:18934   */\n      0x40\n        /* \"#utility.yul\":18921:18930   */\n      dup3\n        /* \"#utility.yul\":18917:18935   */\n      add\n        /* \"#utility.yul\":18909:18935   */\n      swap1\n      pop\n        /* \"#utility.yul\":18945:19016   */\n      tag_667\n        /* \"#utility.yul\":19013:19014   */\n      0x00\n        /* \"#utility.yul\":19002:19011   */\n      dup4\n        /* \"#utility.yul\":18998:19015   */\n      add\n        /* \"#utility.yul\":18989:18995   */\n      dup6\n        /* \"#utility.yul\":18945:19016   */\n      tag_618\n      jump\t// in\n    tag_667:\n        /* \"#utility.yul\":19026:19098   */\n      tag_668\n        /* \"#utility.yul\":19094:19096   */\n      0x20\n        /* \"#utility.yul\":19083:19092   */\n      dup4\n        /* \"#utility.yul\":19079:19097   */\n      add\n        /* \"#utility.yul\":19070:19076   */\n      dup5\n        /* \"#utility.yul\":19026:19098   */\n      tag_618\n      jump\t// in\n    tag_668:\n        /* \"#utility.yul\":18773:19105   */\n      swap4\n      swap3\n      pop\n      pop\n      pop\n      jump\t// out\n        /* \"#utility.yul\":19111:19240   */\n    tag_437:\n        /* \"#utility.yul\":19145:19151   */\n      0x00\n        /* \"#utility.yul\":19172:19192   */\n      tag_670\n      tag_671\n      jump\t// in\n    tag_670:\n        /* \"#utility.yul\":19162:19192   */\n      swap1\n      pop\n        /* \"#utility.yul\":19201:19234   */\n      tag_672\n        /* \"#utility.yul\":19229:19233   */\n      dup3\n        /* \"#utility.yul\":19221:19227   */\n      dup3\n        /* \"#utility.yul\":19201:19234   */\n      tag_673\n      jump\t// in\n    tag_672:\n        /* \"#utility.yul\":19111:19240   */\n      swap2\n      swap1\n      pop\n      jump\t// out\n        /* \"#utility.yul\":19246:19321   */\n    tag_671:\n        /* \"#utility.yul\":19279:19285   */\n      0x00\n        /* \"#utility.yul\":19312:19314   */\n      0x40\n        /* \"#utility.yul\":19306:19315   */\n      mload\n        /* \"#utility.yul\":19296:19315   */\n      swap1\n      pop\n        /* \"#utility.yul\":19246:19321   */\n      swap1\n      jump\t// out\n        /* \"#utility.yul\":19327:19634   */\n    tag_436:\n        /* \"#utility.yul\":19388:19392   */\n      0x00\n        /* \"#utility.yul\":19478:19496   */\n      0xffffffffffffffff\n        /* \"#utility.yul\":19470:19476   */\n      dup3\n        /* \"#utility.yul\":19467:19497   */\n      gt\n        /* \"#utility.yul\":19464:19520   */\n      iszero\n      tag_676\n      jumpi\n        /* \"#utility.yul\":19500:19518   */\n      tag_677\n      tag_678\n      jump\t// in\n    tag_677:\n        /* \"#utility.yul\":19464:19520   */\n    tag_676:\n        /* \"#utility.yul\":19538:19567   */\n      tag_679\n        /* \"#utility.yul\":19560:19566   */\n      dup3\n        /* \"#utility.yul\":19538:19567   */\n      tag_579\n      jump\t// in\n    tag_679:\n        /* \"#utility.yul\":19530:19567   */\n      swap1\n      pop\n        /* \"#utility.yul\":19622:19626   */\n      0x20\n        /* \"#utility.yul\":19616:19620   */\n      dup2\n        /* \"#utility.yul\":19612:19627   */\n      add\n        /* \"#utility.yul\":19604:19627   */\n      swap1\n      pop\n        /* \"#utility.yul\":19327:19634   */\n      swap2\n      swap1\n      pop\n      jump\t// out\n        /* \"#utility.yul\":19640:19772   */\n    tag_543:\n        /* \"#utility.yul\":19707:19711   */\n      0x00\n        /* \"#utility.yul\":19730:19733   */\n      dup2\n        /* \"#utility.yul\":19722:19733   */\n      swap1\n      pop\n        /* \"#utility.yul\":19760:19764   */\n      0x20\n        /* \"#utility.yul\":19755:19758   */\n      dup3\n        /* \"#utility.yul\":19751:19765   */\n      add\n        /* \"#utility.yul\":19743:19765   */\n      swap1\n      pop\n        /* \"#utility.yul\":19640:19772   */\n      swap2\n      swap1\n      pop\n      jump\t// out\n        /* \"#utility.yul\":19778:19892   */\n    tag_539:\n        /* \"#utility.yul\":19845:19851   */\n      0x00\n        /* \"#utility.yul\":19879:19884   */\n      dup2\n        /* \"#utility.yul\":19873:19885   */\n      mload\n        /* \"#utility.yul\":19863:19885   */\n      swap1\n      pop\n        /* \"#utility.yul\":19778:19892   */\n      swap2\n      swap1\n      pop\n      jump\t// out\n        /* \"#utility.yul\":19898:19997   */\n    tag_573:\n        /* \"#utility.yul\":19950:19956   */\n      0x00\n        /* \"#utility.yul\":19984:19989   */\n      dup2\n        /* \"#utility.yul\":19978:19990   */\n      mload\n        /* \"#utility.yul\":19968:19990   */\n      swap1\n      pop\n        /* \"#utility.yul\":19898:19997   */\n      swap2\n      swap1\n      pop\n      jump\t// out\n        /* \"#utility.yul\":20003:20116   */\n    tag_549:\n        /* \"#utility.yul\":20073:20077   */\n      0x00\n        /* \"#utility.yul\":20105:20109   */\n      0x20\n        /* \"#utility.yul\":20100:20103   */\n      dup3\n        /* \"#utility.yul\":20096:20110   */\n      add\n        /* \"#utility.yul\":20088:20110   */\n      swap1\n      pop\n        /* \"#utility.yul\":20003:20116   */\n      swap2\n      swap1\n      pop\n      jump\t// out\n        /* \"#utility.yul\":20122:20306   */\n    tag_541:\n        /* \"#utility.yul\":20221:20232   */\n      0x00\n        /* \"#utility.yul\":20255:20261   */\n      dup3\n        /* \"#utility.yul\":20250:20253   */\n      dup3\n        /* \"#utility.yul\":20243:20262   */\n      mstore\n        /* \"#utility.yul\":20295:20299   */\n      0x20\n        /* \"#utility.yul\":20290:20293   */\n      dup3\n        /* \"#utility.yul\":20286:20300   */\n      add\n        /* \"#utility.yul\":20271:20300   */\n      swap1\n      pop\n        /* \"#utility.yul\":20122:20306   */\n      swap3\n      swap2\n      pop\n      pop\n      jump\t// out\n        /* \"#utility.yul\":20312:20481   */\n    tag_575:\n        /* \"#utility.yul\":20396:20407   */\n      0x00\n        /* \"#utility.yul\":20430:20436   */\n      dup3\n        /* \"#utility.yul\":20425:20428   */\n      dup3\n        /* \"#utility.yul\":20418:20437   */\n      mstore\n        /* \"#utility.yul\":20470:20474   */\n      0x20\n        /* \"#utility.yul\":20465:20468   */\n      dup3\n        /* \"#utility.yul\":20461:20475   */\n      add\n        /* \"#utility.yul\":20446:20475   */\n      swap1\n      pop\n        /* \"#utility.yul\":20312:20481   */\n      swap3\n      swap2\n      pop\n      pop\n      jump\t// out\n        /* \"#utility.yul\":20487:20792   */\n    tag_398:\n        /* \"#utility.yul\":20527:20530   */\n      0x00\n        /* \"#utility.yul\":20546:20566   */\n      tag_687\n        /* \"#utility.yul\":20564:20565   */\n      dup3\n        /* \"#utility.yul\":20546:20566   */\n      tag_617\n      jump\t// in\n    tag_687:\n        /* \"#utility.yul\":20541:20566   */\n      swap2\n      pop\n        /* \"#utility.yul\":20580:20600   */\n      tag_688\n        /* \"#utility.yul\":20598:20599   */\n      dup4\n        /* \"#utility.yul\":20580:20600   */\n      tag_617\n      jump\t// in\n    tag_688:\n        /* \"#utility.yul\":20575:20600   */\n      swap3\n      pop\n        /* \"#utility.yul\":20734:20735   */\n      dup3\n        /* \"#utility.yul\":20666:20732   */\n      0xffffffffffffffffffffffffffffffffffffffffffffffffffffffffffffffff\n        /* \"#utility.yul\":20662:20736   */\n      sub\n        /* \"#utility.yul\":20659:20660   */\n      dup3\n        /* \"#utility.yul\":20656:20737   */\n      gt\n        /* \"#utility.yul\":20653:20760   */\n      iszero\n      tag_689\n      jumpi\n        /* \"#utility.yul\":20740:20758   */\n      tag_690\n      tag_691\n      jump\t// in\n    tag_690:\n        /* \"#utility.yul\":20653:20760   */\n    tag_689:\n        /* \"#utility.yul\":20784:20785   */\n      dup3\n        /* \"#utility.yul\":20781:20782   */\n      dup3\n        /* \"#utility.yul\":20777:20786   */\n      add\n        /* \"#utility.yul\":20770:20786   */\n      swap1\n      pop\n        /* \"#utility.yul\":20487:20792   */\n      swap3\n      swap2\n      pop\n      pop\n      jump\t// out\n        /* \"#utility.yul\":20798:20983   */\n    tag_385:\n        /* \"#utility.yul\":20838:20839   */\n      0x00\n        /* \"#utility.yul\":20855:20875   */\n      tag_693\n        /* \"#utility.yul\":20873:20874   */\n      dup3\n        /* \"#utility.yul\":20855:20875   */\n      tag_617\n      jump\t// in\n    tag_693:\n        /* \"#utility.yul\":20850:20875   */\n      swap2\n      pop\n        /* \"#utility.yul\":20889:20909   */\n      tag_694\n        /* \"#utility.yul\":20907:20908   */\n      dup4\n        /* \"#utility.yul\":20889:20909   */\n      tag_617\n      jump\t// in\n    tag_694:\n        /* \"#utility.yul\":20884:20909   */\n      swap3\n      pop\n        /* \"#utility.yul\":20928:20929   */\n      dup3\n        /* \"#utility.yul\":20918:20953   */\n      tag_695\n      jumpi\n        /* \"#utility.yul\":20933:20951   */\n      tag_696\n      tag_697\n      jump\t// in\n    tag_696:\n        /* \"#utility.yul\":20918:20953   */\n    tag_695:\n        /* \"#utility.yul\":20975:20976   */\n      dup3\n        /* \"#utility.yul\":20972:20973   */\n      dup3\n        /* \"#utility.yul\":20968:20977   */\n      div\n        /* \"#utility.yul\":20963:20977   */\n      swap1\n      pop\n        /* \"#utility.yul\":20798:20983   */\n      swap3\n      swap2\n      pop\n      pop\n      jump\t// out\n        /* \"#utility.yul\":20989:21337   */\n    tag_383:\n        /* \"#utility.yul\":21029:21036   */\n      0x00\n        /* \"#utility.yul\":21052:21072   */\n      tag_699\n        /* \"#utility.yul\":21070:21071   */\n      dup3\n        /* \"#utility.yul\":21052:21072   */\n      tag_617\n      jump\t// in\n    tag_699:\n        /* \"#utility.yul\":21047:21072   */\n      swap2\n      pop\n        /* \"#utility.yul\":21086:21106   */\n      tag_700\n        /* \"#utility.yul\":21104:21105   */\n      dup4\n        /* \"#utility.yul\":21086:21106   */\n      tag_617\n      jump\t// in\n    tag_700:\n        /* \"#utility.yul\":21081:21106   */\n      swap3\n      pop\n        /* \"#utility.yul\":21274:21275   */\n      dup2\n        /* \"#utility.yul\":21206:21272   */\n      0xffffffffffffffffffffffffffffffffffffffffffffffffffffffffffffffff\n        /* \"#utility.yul\":21202:21276   */\n      div\n        /* \"#utility.yul\":21199:21200   */\n      dup4\n        /* \"#utility.yul\":21196:21277   */\n      gt\n        /* \"#utility.yul\":21191:21192   */\n      dup3\n        /* \"#utility.yul\":21184:21193   */\n      iszero\n        /* \"#utility.yul\":21177:21194   */\n      iszero\n        /* \"#utility.yul\":21173:21278   */\n      and\n        /* \"#utility.yul\":21170:21301   */\n      iszero\n      tag_701\n      jumpi\n        /* \"#utility.yul\":21281:21299   */\n      tag_702\n      tag_691\n      jump\t// in\n    tag_702:\n        /* \"#utility.yul\":21170:21301   */\n    tag_701:\n        /* \"#utility.yul\":21329:21330   */\n      dup3\n        /* \"#utility.yul\":21326:21327   */\n      dup3\n        /* \"#utility.yul\":21322:21331   */\n      mul\n        /* \"#utility.yul\":21311:21331   */\n      swap1\n      pop\n        /* \"#utility.yul\":20989:21337   */\n      swap3\n      swap2\n      pop\n      pop\n      jump\t// out\n        /* \"#utility.yul\":21343:21534   */\n    tag_430:\n        /* \"#utility.yul\":21383:21387   */\n      0x00\n        /* \"#utility.yul\":21403:21423   */\n      tag_704\n        /* \"#utility.yul\":21421:21422   */\n      dup3\n        /* \"#utility.yul\":21403:21423   */\n      tag_617\n      jump\t// in\n    tag_704:\n        /* \"#utility.yul\":21398:21423   */\n      swap2\n      pop\n        /* \"#utility.yul\":21437:21457   */\n      tag_705\n        /* \"#utility.yul\":21455:21456   */\n      dup4\n        /* \"#utility.yul\":21437:21457   */\n      tag_617\n      jump\t// in\n    tag_705:\n        /* \"#utility.yul\":21432:21457   */\n      swap3\n      pop\n        /* \"#utility.yul\":21476:21477   */\n      dup3\n        /* \"#utility.yul\":21473:21474   */\n      dup3\n        /* \"#utility.yul\":21470:21478   */\n      lt\n        /* \"#utility.yul\":21467:21501   */\n      iszero\n      tag_706\n      jumpi\n        /* \"#utility.yul\":21481:21499   */\n      tag_707\n      tag_691\n      jump\t// in\n    tag_707:\n        /* \"#utility.yul\":21467:21501   */\n    tag_706:\n        /* \"#utility.yul\":21526:21527   */\n      dup3\n        /* \"#utility.yul\":21523:21524   */\n      dup3\n        /* \"#utility.yul\":21519:21528   */\n      sub\n        /* \"#utility.yul\":21511:21528   */\n      swap1\n      pop\n        /* \"#utility.yul\":21343:21534   */\n      swap3\n      swap2\n      pop\n      pop\n      jump\t// out\n        /* \"#utility.yul\":21540:21636   */\n    tag_535:\n        /* \"#utility.yul\":21577:21584   */\n      0x00\n        /* \"#utility.yul\":21606:21630   */\n      tag_709\n        /* \"#utility.yul\":21624:21629   */\n      dup3\n        /* \"#utility.yul\":21606:21630   */\n      tag_710\n      jump\t// in\n    tag_709:\n        /* \"#utility.yul\":21595:21630   */\n      swap1\n      pop\n        /* \"#utility.yul\":21540:21636   */\n      swap2\n      swap1\n      pop\n      jump\t// out\n        /* \"#utility.yul\":21642:21732   */\n    tag_711:\n        /* \"#utility.yul\":21676:21683   */\n      0x00\n        /* \"#utility.yul\":21719:21724   */\n      dup2\n        /* \"#utility.yul\":21712:21725   */\n      iszero\n        /* \"#utility.yul\":21705:21726   */\n      iszero\n        /* \"#utility.yul\":21694:21726   */\n      swap1\n      pop\n        /* \"#utility.yul\":21642:21732   */\n      swap2\n      swap1\n      pop\n      jump\t// out\n        /* \"#utility.yul\":21738:21887   */\n    tag_553:\n        /* \"#utility.yul\":21774:21781   */\n      0x00\n        /* \"#utility.yul\":21814:21880   */\n      0xffffffff00000000000000000000000000000000000000000000000000000000\n        /* \"#utility.yul\":21807:21812   */\n      dup3\n        /* \"#utility.yul\":21803:21881   */\n      and\n        /* \"#utility.yul\":21792:21881   */\n      swap1\n      pop\n        /* \"#utility.yul\":21738:21887   */\n      swap2\n      swap1\n      pop\n      jump\t// out\n        /* \"#utility.yul\":21893:22005   */\n    tag_714:\n        /* \"#utility.yul\":21946:21953   */\n      0x00\n        /* \"#utility.yul\":21975:21999   */\n      tag_716\n        /* \"#utility.yul\":21993:21998   */\n      dup3\n        /* \"#utility.yul\":21975:21999   */\n      tag_535\n      jump\t// in\n    tag_716:\n        /* \"#utility.yul\":21964:21999   */\n      swap1\n      pop\n        /* \"#utility.yul\":21893:22005   */\n      swap2\n      swap1\n      pop\n      jump\t// out\n        /* \"#utility.yul\":22011:22128   */\n    tag_717:\n        /* \"#utility.yul\":22069:22076   */\n      0x00\n        /* \"#utility.yul\":22098:22122   */\n      tag_719\n        /* \"#utility.yul\":22116:22121   */\n      dup3\n        /* \"#utility.yul\":22098:22122   */\n      tag_535\n      jump\t// in\n    tag_719:\n        /* \"#utility.yul\":22087:22122   */\n      swap1\n      pop\n        /* \"#utility.yul\":22011:22128   */\n      swap2\n      swap1\n      pop\n      jump\t// out\n        /* \"#utility.yul\":22134:22260   */\n    tag_710:\n        /* \"#utility.yul\":22171:22178   */\n      0x00\n        /* \"#utility.yul\":22211:22253   */\n      0xffffffffffffffffffffffffffffffffffffffff\n        /* \"#utility.yul\":22204:22209   */\n      dup3\n        /* \"#utility.yul\":22200:22254   */\n      and\n        /* \"#utility.yul\":22189:22254   */\n      swap1\n      pop\n        /* \"#utility.yul\":22134:22260   */\n      swap2\n      swap1\n      pop\n      jump\t// out\n        /* \"#utility.yul\":22266:22343   */\n    tag_617:\n        /* \"#utility.yul\":22303:22310   */\n      0x00\n        /* \"#utility.yul\":22332:22337   */\n      dup2\n        /* \"#utility.yul\":22321:22337   */\n      swap1\n      pop\n        /* \"#utility.yul\":22266:22343   */\n      swap2\n      swap1\n      pop\n      jump\t// out\n        /* \"#utility.yul\":22349:22489   */\n    tag_557:\n        /* \"#utility.yul\":22413:22422   */\n      0x00\n        /* \"#utility.yul\":22446:22483   */\n      tag_723\n        /* \"#utility.yul\":22477:22482   */\n      dup3\n        /* \"#utility.yul\":22446:22483   */\n      tag_724\n      jump\t// in\n    tag_723:\n        /* \"#utility.yul\":22433:22483   */\n      swap1\n      pop\n        /* \"#utility.yul\":22349:22489   */\n      swap2\n      swap1\n      pop\n      jump\t// out\n        /* \"#utility.yul\":22495:22637   */\n    tag_561:\n        /* \"#utility.yul\":22561:22570   */\n      0x00\n        /* \"#utility.yul\":22594:22631   */\n      tag_726\n        /* \"#utility.yul\":22625:22630   */\n      dup3\n        /* \"#utility.yul\":22594:22631   */\n      tag_724\n      jump\t// in\n    tag_726:\n        /* \"#utility.yul\":22581:22631   */\n      swap1\n      pop\n        /* \"#utility.yul\":22495:22637   */\n      swap2\n      swap1\n      pop\n      jump\t// out\n        /* \"#utility.yul\":22643:22790   */\n    tag_565:\n        /* \"#utility.yul\":22714:22723   */\n      0x00\n        /* \"#utility.yul\":22747:22784   */\n      tag_728\n        /* \"#utility.yul\":22778:22783   */\n      dup3\n        /* \"#utility.yul\":22747:22784   */\n      tag_724\n      jump\t// in\n    tag_728:\n        /* \"#utility.yul\":22734:22784   */\n      swap1\n      pop\n        /* \"#utility.yul\":22643:22790   */\n      swap2\n      swap1\n      pop\n      jump\t// out\n        /* \"#utility.yul\":22796:22945   */\n    tag_569:\n        /* \"#utility.yul\":22869:22878   */\n      0x00\n        /* \"#utility.yul\":22902:22939   */\n      tag_730\n        /* \"#utility.yul\":22933:22938   */\n      dup3\n        /* \"#utility.yul\":22902:22939   */\n      tag_724\n      jump\t// in\n    tag_730:\n        /* \"#utility.yul\":22889:22939   */\n      swap1\n      pop\n        /* \"#utility.yul\":22796:22945   */\n      swap2\n      swap1\n      pop\n      jump\t// out\n        /* \"#utility.yul\":22951:23077   */\n    tag_724:\n        /* \"#utility.yul\":23001:23010   */\n      0x00\n        /* \"#utility.yul\":23034:23071   */\n      tag_732\n        /* \"#utility.yul\":23065:23070   */\n      dup3\n        /* \"#utility.yul\":23034:23071   */\n      tag_733\n      jump\t// in\n    tag_732:\n        /* \"#utility.yul\":23021:23071   */\n      swap1\n      pop\n        /* \"#utility.yul\":22951:23077   */\n      swap2\n      swap1\n      pop\n      jump\t// out\n        /* \"#utility.yul\":23083:23196   */\n    tag_733:\n        /* \"#utility.yul\":23133:23142   */\n      0x00\n        /* \"#utility.yul\":23166:23190   */\n      tag_735\n        /* \"#utility.yul\":23184:23189   */\n      dup3\n        /* \"#utility.yul\":23166:23190   */\n      tag_710\n      jump\t// in\n    tag_735:\n        /* \"#utility.yul\":23153:23190   */\n      swap1\n      pop\n        /* \"#utility.yul\":23083:23196   */\n      swap2\n      swap1\n      pop\n      jump\t// out\n        /* \"#utility.yul\":23202:23356   */\n    tag_442:\n        /* \"#utility.yul\":23286:23292   */\n      dup3\n        /* \"#utility.yul\":23281:23284   */\n      dup2\n        /* \"#utility.yul\":23276:23279   */\n      dup4\n        /* \"#utility.yul\":23263:23293   */\n      calldatacopy\n        /* \"#utility.yul\":23348:23349   */\n      0x00\n        /* \"#utility.yul\":23339:23345   */\n      dup4\n        /* \"#utility.yul\":23334:23337   */\n      dup4\n        /* \"#utility.yul\":23330:23346   */\n      add\n        /* \"#utility.yul\":23323:23350   */\n      mstore\n        /* \"#utility.yul\":23202:23356   */\n      pop\n      pop\n      pop\n      jump\t// out\n        /* \"#utility.yul\":23362:23669   */\n    tag_577:\n        /* \"#utility.yul\":23430:23431   */\n      0x00\n        /* \"#utility.yul\":23440:23553   */\n    tag_738:\n        /* \"#utility.yul\":23454:23460   */\n      dup4\n        /* \"#utility.yul\":23451:23452   */\n      dup2\n        /* \"#utility.yul\":23448:23461   */\n      lt\n        /* \"#utility.yul\":23440:23553   */\n      iszero\n      tag_740\n      jumpi\n        /* \"#utility.yul\":23539:23540   */\n      dup1\n        /* \"#utility.yul\":23534:23537   */\n      dup3\n        /* \"#utility.yul\":23530:23541   */\n      add\n        /* \"#utility.yul\":23524:23542   */\n      mload\n        /* \"#utility.yul\":23520:23521   */\n      dup2\n        /* \"#utility.yul\":23515:23518   */\n      dup5\n        /* \"#utility.yul\":23511:23522   */\n      add\n        /* \"#utility.yul\":23504:23543   */\n      mstore\n        /* \"#utility.yul\":23476:23478   */\n      0x20\n        /* \"#utility.yul\":23473:23474   */\n      dup2\n        /* \"#utility.yul\":23469:23479   */\n      add\n        /* \"#utility.yul\":23464:23479   */\n      swap1\n      pop\n        /* \"#utility.yul\":23440:23553   */\n      jump(tag_738)\n    tag_740:\n        /* \"#utility.yul\":23571:23577   */\n      dup4\n        /* \"#utility.yul\":23568:23569   */\n      dup2\n        /* \"#utility.yul\":23565:23578   */\n      gt\n        /* \"#utility.yul\":23562:23663   */\n      iszero\n      tag_741\n      jumpi\n        /* \"#utility.yul\":23651:23652   */\n      0x00\n        /* \"#utility.yul\":23642:23648   */\n      dup5\n        /* \"#utility.yul\":23637:23640   */\n      dup5\n        /* \"#utility.yul\":23633:23649   */\n      add\n        /* \"#utility.yul\":23626:23653   */\n      mstore\n        /* \"#utility.yul\":23562:23663   */\n    tag_741:\n        /* \"#utility.yul\":23411:23669   */\n      pop\n        /* \"#utility.yul\":23362:23669   */\n      pop\n      pop\n      pop\n      jump\t// out\n        /* \"#utility.yul\":23675:23956   */\n    tag_673:\n        /* \"#utility.yul\":23758:23785   */\n      tag_743\n        /* \"#utility.yul\":23780:23784   */\n      dup3\n        /* \"#utility.yul\":23758:23785   */\n      tag_579\n      jump\t// in\n    tag_743:\n        /* \"#utility.yul\":23750:23756   */\n      dup2\n        /* \"#utility.yul\":23746:23786   */\n      add\n        /* \"#utility.yul\":23888:23894   */\n      dup2\n        /* \"#utility.yul\":23876:23886   */\n      dup2\n        /* \"#utility.yul\":23873:23895   */\n      lt\n        /* \"#utility.yul\":23852:23870   */\n      0xffffffffffffffff\n        /* \"#utility.yul\":23840:23850   */\n      dup3\n        /* \"#utility.yul\":23837:23871   */\n      gt\n        /* \"#utility.yul\":23834:23896   */\n      or\n        /* \"#utility.yul\":23831:23919   */\n      iszero\n      tag_744\n      jumpi\n        /* \"#utility.yul\":23899:23917   */\n      tag_745\n      tag_678\n      jump\t// in\n    tag_745:\n        /* \"#utility.yul\":23831:23919   */\n    tag_744:\n        /* \"#utility.yul\":23939:23949   */\n      dup1\n        /* \"#utility.yul\":23935:23937   */\n      0x40\n        /* \"#utility.yul\":23928:23950   */\n      mstore\n        /* \"#utility.yul\":23718:23956   */\n      pop\n        /* \"#utility.yul\":23675:23956   */\n      pop\n      pop\n      jump\t// out\n        /* \"#utility.yul\":23962:24195   */\n    tag_250:\n        /* \"#utility.yul\":24001:24004   */\n      0x00\n        /* \"#utility.yul\":24024:24048   */\n      tag_747\n        /* \"#utility.yul\":24042:24047   */\n      dup3\n        /* \"#utility.yul\":24024:24048   */\n      tag_617\n      jump\t// in\n    tag_747:\n        /* \"#utility.yul\":24015:24048   */\n      swap2\n      pop\n        /* \"#utility.yul\":24070:24136   */\n      0xffffffffffffffffffffffffffffffffffffffffffffffffffffffffffffffff\n        /* \"#utility.yul\":24063:24068   */\n      dup3\n        /* \"#utility.yul\":24060:24137   */\n      eq\n        /* \"#utility.yul\":24057:24160   */\n      iszero\n      tag_748\n      jumpi\n        /* \"#utility.yul\":24140:24158   */\n      tag_749\n      tag_691\n      jump\t// in\n    tag_749:\n        /* \"#utility.yul\":24057:24160   */\n    tag_748:\n        /* \"#utility.yul\":24187:24188   */\n      0x01\n        /* \"#utility.yul\":24180:24185   */\n      dup3\n        /* \"#utility.yul\":24176:24189   */\n      add\n        /* \"#utility.yul\":24169:24189   */\n      swap1\n      pop\n        /* \"#utility.yul\":23962:24195   */\n      swap2\n      swap1\n      pop\n      jump\t// out\n        /* \"#utility.yul\":24201:24381   */\n    tag_691:\n        /* \"#utility.yul\":24249:24326   */\n      0x4e487b7100000000000000000000000000000000000000000000000000000000\n        /* \"#utility.yul\":24246:24247   */\n      0x00\n        /* \"#utility.yul\":24239:24327   */\n      mstore\n        /* \"#utility.yul\":24346:24350   */\n      0x11\n        /* \"#utility.yul\":24343:24344   */\n      0x04\n        /* \"#utility.yul\":24336:24351   */\n      mstore\n        /* \"#utility.yul\":24370:24374   */\n      0x24\n        /* \"#utility.yul\":24367:24368   */\n      0x00\n        /* \"#utility.yul\":24360:24375   */\n      revert\n        /* \"#utility.yul\":24387:24567   */\n    tag_697:\n        /* \"#utility.yul\":24435:24512   */\n      0x4e487b7100000000000000000000000000000000000000000000000000000000\n        /* \"#utility.yul\":24432:24433   */\n      0x00\n        /* \"#utility.yul\":24425:24513   */\n      mstore\n        /* \"#utility.yul\":24532:24536   */\n      0x12\n        /* \"#utility.yul\":24529:24530   */\n      0x04\n        /* \"#utility.yul\":24522:24537   */\n      mstore\n        /* \"#utility.yul\":24556:24560   */\n      0x24\n        /* \"#utility.yul\":24553:24554   */\n      0x00\n        /* \"#utility.yul\":24546:24561   */\n      revert\n        /* \"#utility.yul\":24573:24753   */\n    tag_151:\n        /* \"#utility.yul\":24621:24698   */\n      0x4e487b7100000000000000000000000000000000000000000000000000000000\n        /* \"#utility.yul\":24618:24619   */\n      0x00\n        /* \"#utility.yul\":24611:24699   */\n      mstore\n        /* \"#utility.yul\":24718:24722   */\n      0x32\n        /* \"#utility.yul\":24715:24716   */\n      0x04\n        /* \"#utility.yul\":24708:24723   */\n      mstore\n        /* \"#utility.yul\":24742:24746   */\n      0x24\n        /* \"#utility.yul\":24739:24740   */\n      0x00\n        /* \"#utility.yul\":24732:24747   */\n      revert\n        /* \"#utility.yul\":24759:24939   */\n    tag_678:\n        /* \"#utility.yul\":24807:24884   */\n      0x4e487b7100000000000000000000000000000000000000000000000000000000\n        /* \"#utility.yul\":24804:24805   */\n      0x00\n        /* \"#utility.yul\":24797:24885   */\n      mstore\n        /* \"#utility.yul\":24904:24908   */\n      0x41\n        /* \"#utility.yul\":24901:24902   */\n      0x04\n        /* \"#utility.yul\":24894:24909   */\n      mstore\n        /* \"#utility.yul\":24928:24932   */\n      0x24\n        /* \"#utility.yul\":24925:24926   */\n      0x00\n        /* \"#utility.yul\":24918:24933   */\n      revert\n        /* \"#utility.yul\":24945:25062   */\n    tag_458:\n        /* \"#utility.yul\":25054:25055   */\n      0x00\n        /* \"#utility.yul\":25051:25052   */\n      dup1\n        /* \"#utility.yul\":25044:25056   */\n      revert\n        /* \"#utility.yul\":25068:25185   */\n    tag_440:\n        /* \"#utility.yul\":25177:25178   */\n      0x00\n        /* \"#utility.yul\":25174:25175   */\n      dup1\n        /* \"#utility.yul\":25167:25179   */\n      revert\n        /* \"#utility.yul\":25191:25308   */\n    tag_488:\n        /* \"#utility.yul\":25300:25301   */\n      0x00\n        /* \"#utility.yul\":25297:25298   */\n      dup1\n        /* \"#utility.yul\":25290:25302   */\n      revert\n        /* \"#utility.yul\":25314:25431   */\n    tag_478:\n        /* \"#utility.yul\":25423:25424   */\n      0x00\n        /* \"#utility.yul\":25420:25421   */\n      dup1\n        /* \"#utility.yul\":25413:25425   */\n      revert\n        /* \"#utility.yul\":25437:25539   */\n    tag_579:\n        /* \"#utility.yul\":25478:25484   */\n      0x00\n        /* \"#utility.yul\":25529:25531   */\n      0x1f\n        /* \"#utility.yul\":25525:25532   */\n      not\n        /* \"#utility.yul\":25520:25522   */\n      0x1f\n        /* \"#utility.yul\":25513:25518   */\n      dup4\n        /* \"#utility.yul\":25509:25523   */\n      add\n        /* \"#utility.yul\":25505:25533   */\n      and\n        /* \"#utility.yul\":25495:25533   */\n      swap1\n      pop\n        /* \"#utility.yul\":25437:25539   */\n      swap2\n      swap1\n      pop\n      jump\t// out\n        /* \"#utility.yul\":25545:25770   */\n    tag_584:\n        /* \"#utility.yul\":25685:25719   */\n      0x4f776e61626c653a206e6577206f776e657220697320746865207a65726f2061\n        /* \"#utility.yul\":25681:25682   */\n      0x00\n        /* \"#utility.yul\":25673:25679   */\n      dup3\n        /* \"#utility.yul\":25669:25683   */\n      add\n        /* \"#utility.yul\":25662:25720   */\n      mstore\n        /* \"#utility.yul\":25754:25762   */\n      0x6464726573730000000000000000000000000000000000000000000000000000\n        /* \"#utility.yul\":25749:25751   */\n      0x20\n        /* \"#utility.yul\":25741:25747   */\n      dup3\n        /* \"#utility.yul\":25737:25752   */\n      add\n        /* \"#utility.yul\":25730:25763   */\n      mstore\n        /* \"#utility.yul\":25545:25770   */\n      pop\n      jump\t// out\n        /* \"#utility.yul\":25776:25953   */\n    tag_589:\n        /* \"#utility.yul\":25916:25945   */\n      0x536166654d6174683a206164646974696f6e206f766572666c6f770000000000\n        /* \"#utility.yul\":25912:25913   */\n      0x00\n        /* \"#utility.yul\":25904:25910   */\n      dup3\n        /* \"#utility.yul\":25900:25914   */\n      add\n        /* \"#utility.yul\":25893:25946   */\n      mstore\n        /* \"#utility.yul\":25776:25953   */\n      pop\n      jump\t// out\n        /* \"#utility.yul\":25959:26138   */\n    tag_594:\n        /* \"#utility.yul\":26099:26130   */\n      0x596f7520617265206e6f74204f776e6572206f6620746f6b656e206964000000\n        /* \"#utility.yul\":26095:26096   */\n      0x00\n        /* \"#utility.yul\":26087:26093   */\n      dup3\n        /* \"#utility.yul\":26083:26097   */\n      add\n        /* \"#utility.yul\":26076:26131   */\n      mstore\n        /* \"#utility.yul\":25959:26138   */\n      pop\n      jump\t// out\n        /* \"#utility.yul\":26144:26308   */\n    tag_599:\n        /* \"#utility.yul\":26284:26300   */\n      0x416d6f756e74206973207a65726f000000000000000000000000000000000000\n        /* \"#utility.yul\":26280:26281   */\n      0x00\n        /* \"#utility.yul\":26272:26278   */\n      dup3\n        /* \"#utility.yul\":26268:26282   */\n      add\n        /* \"#utility.yul\":26261:26301   */\n      mstore\n        /* \"#utility.yul\":26144:26308   */\n      pop\n      jump\t// out\n        /* \"#utility.yul\":26314:26534   */\n    tag_604:\n        /* \"#utility.yul\":26454:26488   */\n      0x536166654d6174683a206d756c7469706c69636174696f6e206f766572666c6f\n        /* \"#utility.yul\":26450:26451   */\n      0x00\n        /* \"#utility.yul\":26442:26448   */\n      dup3\n        /* \"#utility.yul\":26438:26452   */\n      add\n        /* \"#utility.yul\":26431:26489   */\n      mstore\n        /* \"#utility.yul\":26523:26526   */\n      0x7700000000000000000000000000000000000000000000000000000000000000\n        /* \"#utility.yul\":26518:26520   */\n      0x20\n        /* \"#utility.yul\":26510:26516   */\n      dup3\n        /* \"#utility.yul\":26506:26521   */\n      add\n        /* \"#utility.yul\":26499:26527   */\n      mstore\n        /* \"#utility.yul\":26314:26534   */\n      pop\n      jump\t// out\n        /* \"#utility.yul\":26540:26722   */\n    tag_609:\n        /* \"#utility.yul\":26680:26714   */\n      0x4f776e61626c653a2063616c6c6572206973206e6f7420746865206f776e6572\n        /* \"#utility.yul\":26676:26677   */\n      0x00\n        /* \"#utility.yul\":26668:26674   */\n      dup3\n        /* \"#utility.yul\":26664:26678   */\n      add\n        /* \"#utility.yul\":26657:26715   */\n      mstore\n        /* \"#utility.yul\":26540:26722   */\n      pop\n      jump\t// out\n        /* \"#utility.yul\":26728:26896   */\n    tag_614:\n        /* \"#utility.yul\":26868:26888   */\n      0x77697468647261773a206e6f7420676f6f640000000000000000000000000000\n        /* \"#utility.yul\":26864:26865   */\n      0x00\n        /* \"#utility.yul\":26856:26862   */\n      dup3\n        /* \"#utility.yul\":26852:26866   */\n      add\n        /* \"#utility.yul\":26845:26889   */\n      mstore\n        /* \"#utility.yul\":26728:26896   */\n      pop\n      jump\t// out\n        /* \"#utility.yul\":26902:27024   */\n    tag_446:\n        /* \"#utility.yul\":26975:26999   */\n      tag_767\n        /* \"#utility.yul\":26993:26998   */\n      dup2\n        /* \"#utility.yul\":26975:26999   */\n      tag_535\n      jump\t// in\n    tag_767:\n        /* \"#utility.yul\":26968:26973   */\n      dup2\n        /* \"#utility.yul\":26965:27000   */\n      eq\n        /* \"#utility.yul\":26955:27018   */\n      tag_768\n      jumpi\n        /* \"#utility.yul\":27014:27015   */\n      0x00\n        /* \"#utility.yul\":27011:27012   */\n      dup1\n        /* \"#utility.yul\":27004:27016   */\n      revert\n        /* \"#utility.yul\":26955:27018   */\n    tag_768:\n        /* \"#utility.yul\":26902:27024   */\n      pop\n      jump\t// out\n        /* \"#utility.yul\":27030:27146   */\n    tag_450:\n        /* \"#utility.yul\":27100:27121   */\n      tag_770\n        /* \"#utility.yul\":27115:27120   */\n      dup2\n        /* \"#utility.yul\":27100:27121   */\n      tag_711\n      jump\t// in\n    tag_770:\n        /* \"#utility.yul\":27093:27098   */\n      dup2\n        /* \"#utility.yul\":27090:27122   */\n      eq\n        /* \"#utility.yul\":27080:27140   */\n      tag_771\n      jumpi\n        /* \"#utility.yul\":27136:27137   */\n      0x00\n        /* \"#utility.yul\":27133:27134   */\n      dup1\n        /* \"#utility.yul\":27126:27138   */\n      revert\n        /* \"#utility.yul\":27080:27140   */\n    tag_771:\n        /* \"#utility.yul\":27030:27146   */\n      pop\n      jump\t// out\n        /* \"#utility.yul\":27152:27306   */\n    tag_463:\n        /* \"#utility.yul\":27241:27281   */\n      tag_773\n        /* \"#utility.yul\":27275:27280   */\n      dup2\n        /* \"#utility.yul\":27241:27281   */\n      tag_714\n      jump\t// in\n    tag_773:\n        /* \"#utility.yul\":27234:27239   */\n      dup2\n        /* \"#utility.yul\":27231:27282   */\n      eq\n        /* \"#utility.yul\":27221:27300   */\n      tag_774\n      jumpi\n        /* \"#utility.yul\":27296:27297   */\n      0x00\n        /* \"#utility.yul\":27293:27294   */\n      dup1\n        /* \"#utility.yul\":27286:27298   */\n      revert\n        /* \"#utility.yul\":27221:27300   */\n    tag_774:\n        /* \"#utility.yul\":27152:27306   */\n      pop\n      jump\t// out\n        /* \"#utility.yul\":27312:27476   */\n    tag_467:\n        /* \"#utility.yul\":27406:27451   */\n      tag_776\n        /* \"#utility.yul\":27445:27450   */\n      dup2\n        /* \"#utility.yul\":27406:27451   */\n      tag_717\n      jump\t// in\n    tag_776:\n        /* \"#utility.yul\":27399:27404   */\n      dup2\n        /* \"#utility.yul\":27396:27452   */\n      eq\n        /* \"#utility.yul\":27386:27470   */\n      tag_777\n      jumpi\n        /* \"#utility.yul\":27466:27467   */\n      0x00\n        /* \"#utility.yul\":27463:27464   */\n      dup1\n        /* \"#utility.yul\":27456:27468   */\n      revert\n        /* \"#utility.yul\":27386:27470   */\n    tag_777:\n        /* \"#utility.yul\":27312:27476   */\n      pop\n      jump\t// out\n        /* \"#utility.yul\":27482:27604   */\n    tag_471:\n        /* \"#utility.yul\":27555:27579   */\n      tag_779\n        /* \"#utility.yul\":27573:27578   */\n      dup2\n        /* \"#utility.yul\":27555:27579   */\n      tag_617\n      jump\t// in\n    tag_779:\n        /* \"#utility.yul\":27548:27553   */\n      dup2\n        /* \"#utility.yul\":27545:27580   */\n      eq\n        /* \"#utility.yul\":27535:27598   */\n      tag_780\n      jumpi\n        /* \"#utility.yul\":27594:27595   */\n      0x00\n        /* \"#utility.yul\":27591:27592   */\n      dup1\n        /* \"#utility.yul\":27584:27596   */\n      revert\n        /* \"#utility.yul\":27535:27598   */\n    tag_780:\n        /* \"#utility.yul\":27482:27604   */\n      pop\n      jump\t// out\n\n    auxdata: 0xa2646970667358221220a72cbab665d9a92cf46eb366633aed30a1397da9251ecc4695d8496a0f98368c64736f6c63430008070033\n}\n",
				"bytecode": {
					"linkReferences": {},
					"object": "6080604052600160055560006009553480156200001b57600080fd5b506040516200344f3803806200344f833981810160405281019062000041919062000265565b62000061620000556200013d60201b60201c565b6200014560201b60201c565b84600260006101000a81548173ffffffffffffffffffffffffffffffffffffffff021916908373ffffffffffffffffffffffffffffffffffffffff16021790555083600160006101000a81548173ffffffffffffffffffffffffffffffffffffffff021916908373ffffffffffffffffffffffffffffffffffffffff16021790555082600360006101000a81548173ffffffffffffffffffffffffffffffffffffffff021916908373ffffffffffffffffffffffffffffffffffffffff1602179055508160048190555080600a819055505050505050620003c0565b600033905090565b60008060009054906101000a900473ffffffffffffffffffffffffffffffffffffffff169050816000806101000a81548173ffffffffffffffffffffffffffffffffffffffff021916908373ffffffffffffffffffffffffffffffffffffffff1602179055508173ffffffffffffffffffffffffffffffffffffffff168173ffffffffffffffffffffffffffffffffffffffff167f8be0079c531659141344cd1fd0a4f28419497f9722a3daafe3b4186f6b6457e060405160405180910390a35050565b6000815190506200021a8162000358565b92915050565b600081519050620002318162000372565b92915050565b60008151905062000248816200038c565b92915050565b6000815190506200025f81620003a6565b92915050565b600080600080600060a0868803121562000284576200028362000353565b5b6000620002948882890162000220565b9550506020620002a78882890162000237565b9450506040620002ba8882890162000209565b9350506060620002cd888289016200024e565b9250506080620002e0888289016200024e565b9150509295509295909350565b6000620002fa8262000329565b9050919050565b60006200030e82620002ed565b9050919050565b60006200032282620002ed565b9050919050565b600073ffffffffffffffffffffffffffffffffffffffff82169050919050565b6000819050919050565b600080fd5b6200036381620002ed565b81146200036f57600080fd5b50565b6200037d8162000301565b81146200038957600080fd5b50565b620003978162000315565b8114620003a357600080fd5b50565b620003b18162000349565b8114620003bd57600080fd5b50565b61307f80620003d06000396000f3fe608060405234801561001057600080fd5b50600436106101cf5760003560e01c806364482f7911610104578063cb3cba55116100a2578063e2bbb15811610071578063e2bbb158146104f8578063e4d0989614610514578063f2fde38b14610532578063f395db2c1461054e576101cf565b8063cb3cba5514610470578063d0d41fe11461048e578063d49e77cd146104aa578063d5545992146104c8576101cf565b80638aa28550116100de5780638aa28550146103d35780638da5cb5b146103f15780638dbb1e3a1461040f57806393f1a40b1461043f576101cf565b806364482f791461038f578063715018a6146103ab5780637cd07e47146103b5576101cf565b806323cf31181161017157806351eb05a61161014b57806351eb05a6146103315780635ffe61461461034d578063612eee4314610369578063630b5ba114610385576101cf565b806323cf3118146102db578063441a3e70146102f757806348cd4cb114610313576101cf565b80631526fe27116101ad5780631526fe271461023e57806317caf6f1146102715780631eaaa0451461028f5780632080baab146102ab576101cf565b8063081e3eda146101d45780631395d8c9146101f2578063150b7a021461020e575b600080fd5b6101dc61056c565b6040516101e9919061299d565b60405180910390f35b61020c600480360381019061020791906123b1565b610579565b005b610228600480360381019061022391906122d4565b61087b565b60405161023591906127ea565b60405180910390f35b610258600480360381019061025391906123b1565b61088f565b6040516102689493929190612820565b60405180910390f35b6102796108ef565b604051610286919061299d565b60405180910390f35b6102a960048036038101906102a4919061244b565b6108f5565b005b6102c560048036038101906102c0919061240b565b610a82565b6040516102d2919061299d565b60405180910390f35b6102f560048036038101906102f09190612384565b610cb6565b005b610311600480360381019061030c919061249e565b610d76565b005b61031b611153565b604051610328919061299d565b60405180910390f35b61034b600480360381019061034691906123b1565b611159565b005b610367600480360381019061036291906123b1565b6113b7565b005b610383600480360381019061037e91906123b1565b61143d565b005b61038d6114c3565b005b6103a960048036038101906103a491906124de565b6114f6565b005b6103b3611602565b005b6103bd61168a565b6040516103ca9190612865565b60405180910390f35b6103db6116b0565b6040516103e8919061299d565b60405180910390f35b6103f96116b6565b604051610406919061274d565b60405180910390f35b6104296004803603810190610424919061249e565b6116df565b604051610436919061299d565b60405180910390f35b6104596004803603810190610454919061240b565b611710565b6040516104679291906129e1565b60405180910390f35b610478611741565b6040516104859190612805565b60405180910390f35b6104a860048036038101906104a391906122a7565b611767565b005b6104b2611827565b6040516104bf919061274d565b60405180910390f35b6104e260048036038101906104dd919061240b565b61184d565b6040516104ef91906127c8565b60405180910390f35b610512600480360381019061050d919061249e565b6118ff565b005b61051c611b5e565b6040516105299190612880565b60405180910390f35b61054c600480360381019061054791906122a7565b611b84565b005b610556611c7c565b604051610563919061299d565b60405180910390f35b6000600780549050905090565b60006007828154811061058f5761058e612de8565b5b9060005260206000209060040201905060006008600084815260200190815260200160002060003373ffffffffffffffffffffffffffffffffffffffff1673ffffffffffffffffffffffffffffffffffffffff16815260200190815260200160002090506105fc83611159565b6000610646826002015461063864e8d4a5100061062a87600301548760010154611c8290919063ffffffff16565b611cfd90919063ffffffff16565b611d4790919063ffffffff16565b90506000811161068b576040517f08c379a00000000000000000000000000000000000000000000000000000000081526004016106829061291d565b60405180910390fd5b600260009054906101000a900473ffffffffffffffffffffffffffffffffffffffff1673ffffffffffffffffffffffffffffffffffffffff1663095ea7b3600160009054906101000a900473ffffffffffffffffffffffffffffffffffffffff16836040518363ffffffff1660e01b815260040161070a92919061279f565b602060405180830381600087803b15801561072457600080fd5b505af1158015610738573d6000803e3d6000fd5b505050506040513d601f19601f8201168201806040525081019061075c9190612357565b50600160009054906101000a900473ffffffffffffffffffffffffffffffffffffffff1673ffffffffffffffffffffffffffffffffffffffff1663cf35fddf82336040518363ffffffff1660e01b81526004016107ba9291906129b8565b600060405180830381600087803b1580156107d457600080fd5b505af11580156107e8573d6000803e3d6000fd5b5050505061081e64e8d4a5100061081085600301548560010154611c8290919063ffffffff16565b611cfd90919063ffffffff16565b8260020181905550833373ffffffffffffffffffffffffffffffffffffffff167ff279e6a1f5e320cca91135676d9cb6e44ca8a08c0b88342bcdb1144f6511b5688360405161086d919061299d565b60405180910390a350505050565b600063150b7a0260e01b9050949350505050565b6007818154811061089f57600080fd5b90600052602060002090600402016000915090508060000160009054906101000a900473ffffffffffffffffffffffffffffffffffffffff16908060010154908060020154908060030154905084565b60095481565b6108fd611d91565b73ffffffffffffffffffffffffffffffffffffffff1661091b6116b6565b73ffffffffffffffffffffffffffffffffffffffff1614610971576040517f08c379a00000000000000000000000000000000000000000000000000000000081526004016109689061295d565b60405180910390fd5b80156109805761097f6114c3565b5b6000600a54431161099357600a54610995565b435b90506109ac84600954611d9990919063ffffffff16565b600981905550600760405180608001604052808573ffffffffffffffffffffffffffffffffffffffff1681526020018681526020018381526020016000815250908060018154018082558091505060019003906000526020600020906004020160009091909190915060008201518160000160006101000a81548173ffffffffffffffffffffffffffffffffffffffff021916908373ffffffffffffffffffffffffffffffffffffffff160217905550602082015181600101556040820151816002015560608201518160030155505050505050565b60008060078481548110610a9957610a98612de8565b5b9060005260206000209060040201905060006008600086815260200190815260200160002060008573ffffffffffffffffffffffffffffffffffffffff1673ffffffffffffffffffffffffffffffffffffffff168152602001908152602001600020905060008260030154905060008360000160009054906101000a900473ffffffffffffffffffffffffffffffffffffffff1673ffffffffffffffffffffffffffffffffffffffff166370a08231306040518263ffffffff1660e01b8152600401610b65919061274d565b60206040518083038186803b158015610b7d57600080fd5b505afa158015610b91573d6000803e3d6000fd5b505050506040513d601f19601f82011682018060405250810190610bb591906123de565b9050836002015443118015610bcb575060008114155b15610c66576000610be08560020154436116df565b90506000610c23600954610c158860010154610c0760045487611c8290919063ffffffff16565b611c8290919063ffffffff16565b611cfd90919063ffffffff16565b9050610c61610c5284610c4464e8d4a5100085611c8290919063ffffffff16565b611cfd90919063ffffffff16565b85611d9990919063ffffffff16565b935050505b610caa8360020154610c9c64e8d4a51000610c8e868860010154611c8290919063ffffffff16565b611cfd90919063ffffffff16565b611d4790919063ffffffff16565b94505050505092915050565b610cbe611d91565b73ffffffffffffffffffffffffffffffffffffffff16610cdc6116b6565b73ffffffffffffffffffffffffffffffffffffffff1614610d32576040517f08c379a0000000000000000000000000000000000000000000000000000000008152600401610d299061295d565b60405180910390fd5b80600660006101000a81548173ffffffffffffffffffffffffffffffffffffffff021916908373ffffffffffffffffffffffffffffffffffffffff16021790555050565b600060078381548110610d8c57610d8b612de8565b5b9060005260206000209060040201905060006008600085815260200190815260200160002060003373ffffffffffffffffffffffffffffffffffffffff1673ffffffffffffffffffffffffffffffffffffffff16815260200190815260200160002090506000816001015411610e37576040517f08c379a0000000000000000000000000000000000000000000000000000000008152600401610e2e9061297d565b60405180910390fd5b600080841415610ee757610e4a85611159565b610e928260020154610e8464e8d4a51000610e7687600301548760010154611c8290919063ffffffff16565b611cfd90919063ffffffff16565b611d4790919063ffffffff16565b90506000811115610ea857610ea73382611df7565b5b610eda64e8d4a51000610ecc85600301548560010154611c8290919063ffffffff16565b611cfd90919063ffffffff16565b82600201819055506110fd565b600080805b8460000180549050811015610f3e5786856000018281548110610f1257610f11612de8565b5b90600052602060002001541415610f2b57600192508091505b8080610f3690612d41565b915050610eec565b5060018214610f82576040517f08c379a0000000000000000000000000000000000000000000000000000000008152600401610f79906128fd565b60405180910390fd5b610f8b87611159565b610fd38460020154610fc564e8d4a51000610fb789600301548960010154611c8290919063ffffffff16565b611cfd90919063ffffffff16565b611d4790919063ffffffff16565b92506000831115610fe957610fe83384611df7565b5b61100160018560010154611d4790919063ffffffff16565b846001018190555061103b64e8d4a5100061102d87600301548760010154611c8290919063ffffffff16565b611cfd90919063ffffffff16565b846002018190555083600001818154811061105957611058612de8565b5b90600052602060002001600090558460000160009054906101000a900473ffffffffffffffffffffffffffffffffffffffff1673ffffffffffffffffffffffffffffffffffffffff166342842e0e3033896040518463ffffffff1660e01b81526004016110c893929190612768565b600060405180830381600087803b1580156110e257600080fd5b505af11580156110f6573d6000803e3d6000fd5b5050505050505b843373ffffffffffffffffffffffffffffffffffffffff167ff279e6a1f5e320cca91135676d9cb6e44ca8a08c0b88342bcdb1144f6511b56886604051611144919061299d565b60405180910390a35050505050565b600a5481565b60006007828154811061116f5761116e612de8565b5b906000526020600020906004020190508060020154431161119057506113b4565b60008160000160009054906101000a900473ffffffffffffffffffffffffffffffffffffffff1673ffffffffffffffffffffffffffffffffffffffff166370a08231306040518263ffffffff1660e01b81526004016111ef919061274d565b60206040518083038186803b15801561120757600080fd5b505afa15801561121b573d6000803e3d6000fd5b505050506040513d601f19601f8201168201806040525081019061123f91906123de565b9050600081116112595743826002018190555050506113b4565b60006112698360020154436116df565b905060006112ac60095461129e866001015461129060045487611c8290919063ffffffff16565b611c8290919063ffffffff16565b611cfd90919063ffffffff16565b9050600260009054906101000a900473ffffffffffffffffffffffffffffffffffffffff1673ffffffffffffffffffffffffffffffffffffffff166340c10f1930836040518363ffffffff1660e01b815260040161130b92919061279f565b602060405180830381600087803b15801561132557600080fd5b505af1158015611339573d6000803e3d6000fd5b505050506040513d601f19601f8201168201806040525081019061135d9190612357565b5061139e61138b8461137d64e8d4a5100085611c8290919063ffffffff16565b611cfd90919063ffffffff16565b8560030154611d9990919063ffffffff16565b8460030181905550438460020181905550505050505b50565b6113bf611d91565b73ffffffffffffffffffffffffffffffffffffffff166113dd6116b6565b73ffffffffffffffffffffffffffffffffffffffff1614611433576040517f08c379a000000000000000000000000000000000000000000000000000000000815260040161142a9061295d565b60405180910390fd5b8060058190555050565b611445611d91565b73ffffffffffffffffffffffffffffffffffffffff166114636116b6565b73ffffffffffffffffffffffffffffffffffffffff16146114b9576040517f08c379a00000000000000000000000000000000000000000000000000000000081526004016114b09061295d565b60405180910390fd5b8060048190555050565b6000600780549050905060005b818110156114f2576114e181611159565b806114eb90612d41565b90506114d0565b5050565b6114fe611d91565b73ffffffffffffffffffffffffffffffffffffffff1661151c6116b6565b73ffffffffffffffffffffffffffffffffffffffff1614611572576040517f08c379a00000000000000000000000000000000000000000000000000000000081526004016115699061295d565b60405180910390fd5b8015611581576115806114c3565b5b6115cd826115bf6007868154811061159c5761159b612de8565b5b906000526020600020906004020160010154600954611d4790919063ffffffff16565b611d9990919063ffffffff16565b60098190555081600784815481106115e8576115e7612de8565b5b906000526020600020906004020160010181905550505050565b61160a611d91565b73ffffffffffffffffffffffffffffffffffffffff166116286116b6565b73ffffffffffffffffffffffffffffffffffffffff161461167e576040517f08c379a00000000000000000000000000000000000000000000000000000000081526004016116759061295d565b60405180910390fd5b6116886000612019565b565b600660009054906101000a900473ffffffffffffffffffffffffffffffffffffffff1681565b60055481565b60008060009054906101000a900473ffffffffffffffffffffffffffffffffffffffff16905090565b60006117086005546116fa8585611d4790919063ffffffff16565b611c8290919063ffffffff16565b905092915050565b6008602052816000526040600020602052806000526040600020600091509150508060010154908060020154905082565b600260009054906101000a900473ffffffffffffffffffffffffffffffffffffffff1681565b61176f611d91565b73ffffffffffffffffffffffffffffffffffffffff1661178d6116b6565b73ffffffffffffffffffffffffffffffffffffffff16146117e3576040517f08c379a00000000000000000000000000000000000000000000000000000000081526004016117da9061295d565b60405180910390fd5b80600360006101000a81548173ffffffffffffffffffffffffffffffffffffffff021916908373ffffffffffffffffffffffffffffffffffffffff16021790555050565b600360009054906101000a900473ffffffffffffffffffffffffffffffffffffffff1681565b606060006008600085815260200190815260200160002060008473ffffffffffffffffffffffffffffffffffffffff1673ffffffffffffffffffffffffffffffffffffffff1681526020019081526020016000209050806000018054806020026020016040519081016040528092919081815260200182805480156118f157602002820191906000526020600020905b8154815260200190600101908083116118dd575b505050505091505092915050565b60006007838154811061191557611914612de8565b5b9060005260206000209060040201905060006008600085815260200190815260200160002060003373ffffffffffffffffffffffffffffffffffffffff1673ffffffffffffffffffffffffffffffffffffffff168152602001908152602001600020905061198284611159565b6000816001015411156119f15760006119d982600201546119cb64e8d4a510006119bd87600301548760010154611c8290919063ffffffff16565b611cfd90919063ffffffff16565b611d4790919063ffffffff16565b905060008111156119ef576119ee3382611df7565b5b505b8160000160009054906101000a900473ffffffffffffffffffffffffffffffffffffffff1673ffffffffffffffffffffffffffffffffffffffff166342842e0e3330866040518463ffffffff1660e01b8152600401611a5293929190612768565b600060405180830381600087803b158015611a6c57600080fd5b505af1158015611a80573d6000803e3d6000fd5b50505050611a9c60018260010154611d9990919063ffffffff16565b8160010181905550611ad664e8d4a51000611ac884600301548460010154611c8290919063ffffffff16565b611cfd90919063ffffffff16565b816002018190555080600001839080600181540180825580915050600190039060005260206000200160009091909190915055833373ffffffffffffffffffffffffffffffffffffffff167f90890809c654f11d6e72a28fa60149770a0d11ec6c92319d6ceb2bb0a4ea1a1585604051611b50919061299d565b60405180910390a350505050565b600160009054906101000a900473ffffffffffffffffffffffffffffffffffffffff1681565b611b8c611d91565b73ffffffffffffffffffffffffffffffffffffffff16611baa6116b6565b73ffffffffffffffffffffffffffffffffffffffff1614611c00576040517f08c379a0000000000000000000000000000000000000000000000000000000008152600401611bf79061295d565b60405180910390fd5b600073ffffffffffffffffffffffffffffffffffffffff168173ffffffffffffffffffffffffffffffffffffffff161415611c70576040517f08c379a0000000000000000000000000000000000000000000000000000000008152600401611c67906128bd565b60405180910390fd5b611c7981612019565b50565b60045481565b600080831415611c955760009050611cf7565b60008284611ca39190612b3c565b9050828482611cb29190612b0b565b14611cf2576040517f08c379a0000000000000000000000000000000000000000000000000000000008152600401611ce99061293d565b60405180910390fd5b809150505b92915050565b6000611d3f83836040518060400160405280601a81526020017f536166654d6174683a206469766973696f6e206279207a65726f0000000000008152506120dd565b905092915050565b6000611d8983836040518060400160405280601e81526020017f536166654d6174683a207375627472616374696f6e206f766572666c6f770000815250612140565b905092915050565b600033905090565b6000808284611da89190612ab5565b905083811015611ded576040517f08c379a0000000000000000000000000000000000000000000000000000000008152600401611de4906128dd565b60405180910390fd5b8091505092915050565b6000600260009054906101000a900473ffffffffffffffffffffffffffffffffffffffff1673ffffffffffffffffffffffffffffffffffffffff166370a08231306040518263ffffffff1660e01b8152600401611e54919061274d565b60206040518083038186803b158015611e6c57600080fd5b505afa158015611e80573d6000803e3d6000fd5b505050506040513d601f19601f82011682018060405250810190611ea491906123de565b905080821115611f6357600260009054906101000a900473ffffffffffffffffffffffffffffffffffffffff1673ffffffffffffffffffffffffffffffffffffffff1663a9059cbb84836040518363ffffffff1660e01b8152600401611f0b92919061279f565b602060405180830381600087803b158015611f2557600080fd5b505af1158015611f39573d6000803e3d6000fd5b505050506040513d601f19601f82011682018060405250810190611f5d9190612357565b50612014565b600260009054906101000a900473ffffffffffffffffffffffffffffffffffffffff1673ffffffffffffffffffffffffffffffffffffffff1663a9059cbb84846040518363ffffffff1660e01b8152600401611fc092919061279f565b602060405180830381600087803b158015611fda57600080fd5b505af1158015611fee573d6000803e3d6000fd5b505050506040513d601f19601f820116820180604052508101906120129190612357565b505b505050565b60008060009054906101000a900473ffffffffffffffffffffffffffffffffffffffff169050816000806101000a81548173ffffffffffffffffffffffffffffffffffffffff021916908373ffffffffffffffffffffffffffffffffffffffff1602179055508173ffffffffffffffffffffffffffffffffffffffff168173ffffffffffffffffffffffffffffffffffffffff167f8be0079c531659141344cd1fd0a4f28419497f9722a3daafe3b4186f6b6457e060405160405180910390a35050565b60008083118290612124576040517f08c379a000000000000000000000000000000000000000000000000000000000815260040161211b919061289b565b60405180910390fd5b50600083856121339190612b0b565b9050809150509392505050565b6000838311158290612188576040517f08c379a000000000000000000000000000000000000000000000000000000000815260040161217f919061289b565b60405180910390fd5b50600083856121979190612b96565b9050809150509392505050565b60006121b76121b284612a2f565b612a0a565b9050828152602081018484840111156121d3576121d2612e4b565b5b6121de848285612cce565b509392505050565b6000813590506121f581612fd6565b92915050565b60008135905061220a81612fed565b92915050565b60008151905061221f81612fed565b92915050565b600082601f83011261223a57612239612e46565b5b813561224a8482602086016121a4565b91505092915050565b60008135905061226281613004565b92915050565b6000813590506122778161301b565b92915050565b60008135905061228c81613032565b92915050565b6000815190506122a181613032565b92915050565b6000602082840312156122bd576122bc612e55565b5b60006122cb848285016121e6565b91505092915050565b600080600080608085870312156122ee576122ed612e55565b5b60006122fc878288016121e6565b945050602061230d878288016121e6565b935050604061231e8782880161227d565b925050606085013567ffffffffffffffff81111561233f5761233e612e50565b5b61234b87828801612225565b91505092959194509250565b60006020828403121561236d5761236c612e55565b5b600061237b84828501612210565b91505092915050565b60006020828403121561239a57612399612e55565b5b60006123a884828501612268565b91505092915050565b6000602082840312156123c7576123c6612e55565b5b60006123d58482850161227d565b91505092915050565b6000602082840312156123f4576123f3612e55565b5b600061240284828501612292565b91505092915050565b6000806040838503121561242257612421612e55565b5b60006124308582860161227d565b9250506020612441858286016121e6565b9150509250929050565b60008060006060848603121561246457612463612e55565b5b60006124728682870161227d565b935050602061248386828701612253565b9250506040612494868287016121fb565b9150509250925092565b600080604083850312156124b5576124b4612e55565b5b60006124c38582860161227d565b92505060206124d48582860161227d565b9150509250929050565b6000806000606084860312156124f7576124f6612e55565b5b60006125058682870161227d565b93505060206125168682870161227d565b9250506040612527868287016121fb565b9150509250925092565b600061253d838361272f565b60208301905092915050565b61255281612bca565b82525050565b600061256382612a70565b61256d8185612a93565b935061257883612a60565b8060005b838110156125a95781516125908882612531565b975061259b83612a86565b92505060018101905061257c565b5085935050505092915050565b6125bf81612be8565b82525050565b6125ce81612c62565b82525050565b6125dd81612c74565b82525050565b6125ec81612c86565b82525050565b6125fb81612c98565b82525050565b600061260c82612a7b565b6126168185612aa4565b9350612626818560208601612cdd565b61262f81612e5a565b840191505092915050565b6000612647602683612aa4565b915061265282612e6b565b604082019050919050565b600061266a601b83612aa4565b915061267582612eba565b602082019050919050565b600061268d601d83612aa4565b915061269882612ee3565b602082019050919050565b60006126b0600e83612aa4565b91506126bb82612f0c565b602082019050919050565b60006126d3602183612aa4565b91506126de82612f35565b604082019050919050565b60006126f6602083612aa4565b915061270182612f84565b602082019050919050565b6000612719601283612aa4565b915061272482612fad565b602082019050919050565b61273881612c58565b82525050565b61274781612c58565b82525050565b60006020820190506127626000830184612549565b92915050565b600060608201905061277d6000830186612549565b61278a6020830185612549565b612797604083018461273e565b949350505050565b60006040820190506127b46000830185612549565b6127c1602083018461273e565b9392505050565b600060208201905081810360008301526127e28184612558565b905092915050565b60006020820190506127ff60008301846125b6565b92915050565b600060208201905061281a60008301846125c5565b92915050565b600060808201905061283560008301876125d4565b612842602083018661273e565b61284f604083018561273e565b61285c606083018461273e565b95945050505050565b600060208201905061287a60008301846125e3565b92915050565b600060208201905061289560008301846125f2565b92915050565b600060208201905081810360008301526128b58184612601565b905092915050565b600060208201905081810360008301526128d68161263a565b9050919050565b600060208201905081810360008301526128f68161265d565b9050919050565b6000602082019050818103600083015261291681612680565b9050919050565b60006020820190508181036000830152612936816126a3565b9050919050565b60006020820190508181036000830152612956816126c6565b9050919050565b60006020820190508181036000830152612976816126e9565b9050919050565b600060208201905081810360008301526129968161270c565b9050919050565b60006020820190506129b2600083018461273e565b92915050565b60006040820190506129cd600083018561273e565b6129da6020830184612549565b9392505050565b60006040820190506129f6600083018561273e565b612a03602083018461273e565b9392505050565b6000612a14612a25565b9050612a208282612d10565b919050565b6000604051905090565b600067ffffffffffffffff821115612a4a57612a49612e17565b5b612a5382612e5a565b9050602081019050919050565b6000819050602082019050919050565b600081519050919050565b600081519050919050565b6000602082019050919050565b600082825260208201905092915050565b600082825260208201905092915050565b6000612ac082612c58565b9150612acb83612c58565b9250827fffffffffffffffffffffffffffffffffffffffffffffffffffffffffffffffff03821115612b0057612aff612d8a565b5b828201905092915050565b6000612b1682612c58565b9150612b2183612c58565b925082612b3157612b30612db9565b5b828204905092915050565b6000612b4782612c58565b9150612b5283612c58565b9250817fffffffffffffffffffffffffffffffffffffffffffffffffffffffffffffffff0483118215151615612b8b57612b8a612d8a565b5b828202905092915050565b6000612ba182612c58565b9150612bac83612c58565b925082821015612bbf57612bbe612d8a565b5b828203905092915050565b6000612bd582612c38565b9050919050565b60008115159050919050565b60007fffffffff0000000000000000000000000000000000000000000000000000000082169050919050565b6000612c1f82612bca565b9050919050565b6000612c3182612bca565b9050919050565b600073ffffffffffffffffffffffffffffffffffffffff82169050919050565b6000819050919050565b6000612c6d82612caa565b9050919050565b6000612c7f82612caa565b9050919050565b6000612c9182612caa565b9050919050565b6000612ca382612caa565b9050919050565b6000612cb582612cbc565b9050919050565b6000612cc782612c38565b9050919050565b82818337600083830152505050565b60005b83811015612cfb578082015181840152602081019050612ce0565b83811115612d0a576000848401525b50505050565b612d1982612e5a565b810181811067ffffffffffffffff82111715612d3857612d37612e17565b5b80604052505050565b6000612d4c82612c58565b91507fffffffffffffffffffffffffffffffffffffffffffffffffffffffffffffffff821415612d7f57612d7e612d8a565b5b600182019050919050565b7f4e487b7100000000000000000000000000000000000000000000000000000000600052601160045260246000fd5b7f4e487b7100000000000000000000000000000000000000000000000000000000600052601260045260246000fd5b7f4e487b7100000000000000000000000000000000000000000000000000000000600052603260045260246000fd5b7f4e487b7100000000000000000000000000000000000000000000000000000000600052604160045260246000fd5b600080fd5b600080fd5b600080fd5b600080fd5b6000601f19601f8301169050919050565b7f4f776e61626c653a206e6577206f776e657220697320746865207a65726f206160008201527f6464726573730000000000000000000000000000000000000000000000000000602082015250565b7f536166654d6174683a206164646974696f6e206f766572666c6f770000000000600082015250565b7f596f7520617265206e6f74204f776e6572206f6620746f6b656e206964000000600082015250565b7f416d6f756e74206973207a65726f000000000000000000000000000000000000600082015250565b7f536166654d6174683a206d756c7469706c69636174696f6e206f766572666c6f60008201527f7700000000000000000000000000000000000000000000000000000000000000602082015250565b7f4f776e61626c653a2063616c6c6572206973206e6f7420746865206f776e6572600082015250565b7f77697468647261773a206e6f7420676f6f640000000000000000000000000000600082015250565b612fdf81612bca565b8114612fea57600080fd5b50565b612ff681612bdc565b811461300157600080fd5b50565b61300d81612c14565b811461301857600080fd5b50565b61302481612c26565b811461302f57600080fd5b50565b61303b81612c58565b811461304657600080fd5b5056fea2646970667358221220a72cbab665d9a92cf46eb366633aed30a1397da9251ecc4695d8496a0f98368c64736f6c63430008070033",
					"opcodes": "PUSH1 0x80 PUSH1 0x40 MSTORE PUSH1 0x1 PUSH1 0x5 SSTORE PUSH1 0x0 PUSH1 0x9 SSTORE CALLVALUE DUP1 ISZERO PUSH3 0x1B JUMPI PUSH1 0x0 DUP1 REVERT JUMPDEST POP PUSH1 0x40 MLOAD PUSH3 0x344F CODESIZE SUB DUP1 PUSH3 0x344F DUP4 CODECOPY DUP2 DUP2 ADD PUSH1 0x40 MSTORE DUP2 ADD SWAP1 PUSH3 0x41 SWAP2 SWAP1 PUSH3 0x265 JUMP JUMPDEST PUSH3 0x61 PUSH3 0x55 PUSH3 0x13D PUSH1 0x20 SHL PUSH1 0x20 SHR JUMP JUMPDEST PUSH3 0x145 PUSH1 0x20 SHL PUSH1 0x20 SHR JUMP JUMPDEST DUP5 PUSH1 0x2 PUSH1 0x0 PUSH2 0x100 EXP DUP2 SLOAD DUP2 PUSH20 0xFFFFFFFFFFFFFFFFFFFFFFFFFFFFFFFFFFFFFFFF MUL NOT AND SWAP1 DUP4 PUSH20 0xFFFFFFFFFFFFFFFFFFFFFFFFFFFFFFFFFFFFFFFF AND MUL OR SWAP1 SSTORE POP DUP4 PUSH1 0x1 PUSH1 0x0 PUSH2 0x100 EXP DUP2 SLOAD DUP2 PUSH20 0xFFFFFFFFFFFFFFFFFFFFFFFFFFFFFFFFFFFFFFFF MUL NOT AND SWAP1 DUP4 PUSH20 0xFFFFFFFFFFFFFFFFFFFFFFFFFFFFFFFFFFFFFFFF AND MUL OR SWAP1 SSTORE POP DUP3 PUSH1 0x3 PUSH1 0x0 PUSH2 0x100 EXP DUP2 SLOAD DUP2 PUSH20 0xFFFFFFFFFFFFFFFFFFFFFFFFFFFFFFFFFFFFFFFF MUL NOT AND SWAP1 DUP4 PUSH20 0xFFFFFFFFFFFFFFFFFFFFFFFFFFFFFFFFFFFFFFFF AND MUL OR SWAP1 SSTORE POP DUP2 PUSH1 0x4 DUP2 SWAP1 SSTORE POP DUP1 PUSH1 0xA DUP2 SWAP1 SSTORE POP POP POP POP POP POP PUSH3 0x3C0 JUMP JUMPDEST PUSH1 0x0 CALLER SWAP1 POP SWAP1 JUMP JUMPDEST PUSH1 0x0 DUP1 PUSH1 0x0 SWAP1 SLOAD SWAP1 PUSH2 0x100 EXP SWAP1 DIV PUSH20 0xFFFFFFFFFFFFFFFFFFFFFFFFFFFFFFFFFFFFFFFF AND SWAP1 POP DUP2 PUSH1 0x0 DUP1 PUSH2 0x100 EXP DUP2 SLOAD DUP2 PUSH20 0xFFFFFFFFFFFFFFFFFFFFFFFFFFFFFFFFFFFFFFFF MUL NOT AND SWAP1 DUP4 PUSH20 0xFFFFFFFFFFFFFFFFFFFFFFFFFFFFFFFFFFFFFFFF AND MUL OR SWAP1 SSTORE POP DUP2 PUSH20 0xFFFFFFFFFFFFFFFFFFFFFFFFFFFFFFFFFFFFFFFF AND DUP2 PUSH20 0xFFFFFFFFFFFFFFFFFFFFFFFFFFFFFFFFFFFFFFFF AND PUSH32 0x8BE0079C531659141344CD1FD0A4F28419497F9722A3DAAFE3B4186F6B6457E0 PUSH1 0x40 MLOAD PUSH1 0x40 MLOAD DUP1 SWAP2 SUB SWAP1 LOG3 POP POP JUMP JUMPDEST PUSH1 0x0 DUP2 MLOAD SWAP1 POP PUSH3 0x21A DUP2 PUSH3 0x358 JUMP JUMPDEST SWAP3 SWAP2 POP POP JUMP JUMPDEST PUSH1 0x0 DUP2 MLOAD SWAP1 POP PUSH3 0x231 DUP2 PUSH3 0x372 JUMP JUMPDEST SWAP3 SWAP2 POP POP JUMP JUMPDEST PUSH1 0x0 DUP2 MLOAD SWAP1 POP PUSH3 0x248 DUP2 PUSH3 0x38C JUMP JUMPDEST SWAP3 SWAP2 POP POP JUMP JUMPDEST PUSH1 0x0 DUP2 MLOAD SWAP1 POP PUSH3 0x25F DUP2 PUSH3 0x3A6 JUMP JUMPDEST SWAP3 SWAP2 POP POP JUMP JUMPDEST PUSH1 0x0 DUP1 PUSH1 0x0 DUP1 PUSH1 0x0 PUSH1 0xA0 DUP7 DUP9 SUB SLT ISZERO PUSH3 0x284 JUMPI PUSH3 0x283 PUSH3 0x353 JUMP JUMPDEST JUMPDEST PUSH1 0x0 PUSH3 0x294 DUP9 DUP3 DUP10 ADD PUSH3 0x220 JUMP JUMPDEST SWAP6 POP POP PUSH1 0x20 PUSH3 0x2A7 DUP9 DUP3 DUP10 ADD PUSH3 0x237 JUMP JUMPDEST SWAP5 POP POP PUSH1 0x40 PUSH3 0x2BA DUP9 DUP3 DUP10 ADD PUSH3 0x209 JUMP JUMPDEST SWAP4 POP POP PUSH1 0x60 PUSH3 0x2CD DUP9 DUP3 DUP10 ADD PUSH3 0x24E JUMP JUMPDEST SWAP3 POP POP PUSH1 0x80 PUSH3 0x2E0 DUP9 DUP3 DUP10 ADD PUSH3 0x24E JUMP JUMPDEST SWAP2 POP POP SWAP3 SWAP6 POP SWAP3 SWAP6 SWAP1 SWAP4 POP JUMP JUMPDEST PUSH1 0x0 PUSH3 0x2FA DUP3 PUSH3 0x329 JUMP JUMPDEST SWAP1 POP SWAP2 SWAP1 POP JUMP JUMPDEST PUSH1 0x0 PUSH3 0x30E DUP3 PUSH3 0x2ED JUMP JUMPDEST SWAP1 POP SWAP2 SWAP1 POP JUMP JUMPDEST PUSH1 0x0 PUSH3 0x322 DUP3 PUSH3 0x2ED JUMP JUMPDEST SWAP1 POP SWAP2 SWAP1 POP JUMP JUMPDEST PUSH1 0x0 PUSH20 0xFFFFFFFFFFFFFFFFFFFFFFFFFFFFFFFFFFFFFFFF DUP3 AND SWAP1 POP SWAP2 SWAP1 POP JUMP JUMPDEST PUSH1 0x0 DUP2 SWAP1 POP SWAP2 SWAP1 POP JUMP JUMPDEST PUSH1 0x0 DUP1 REVERT JUMPDEST PUSH3 0x363 DUP2 PUSH3 0x2ED JUMP JUMPDEST DUP2 EQ PUSH3 0x36F JUMPI PUSH1 0x0 DUP1 REVERT JUMPDEST POP JUMP JUMPDEST PUSH3 0x37D DUP2 PUSH3 0x301 JUMP JUMPDEST DUP2 EQ PUSH3 0x389 JUMPI PUSH1 0x0 DUP1 REVERT JUMPDEST POP JUMP JUMPDEST PUSH3 0x397 DUP2 PUSH3 0x315 JUMP JUMPDEST DUP2 EQ PUSH3 0x3A3 JUMPI PUSH1 0x0 DUP1 REVERT JUMPDEST POP JUMP JUMPDEST PUSH3 0x3B1 DUP2 PUSH3 0x349 JUMP JUMPDEST DUP2 EQ PUSH3 0x3BD JUMPI PUSH1 0x0 DUP1 REVERT JUMPDEST POP JUMP JUMPDEST PUSH2 0x307F DUP1 PUSH3 0x3D0 PUSH1 0x0 CODECOPY PUSH1 0x0 RETURN INVALID PUSH1 0x80 PUSH1 0x40 MSTORE CALLVALUE DUP1 ISZERO PUSH2 0x10 JUMPI PUSH1 0x0 DUP1 REVERT JUMPDEST POP PUSH1 0x4 CALLDATASIZE LT PUSH2 0x1CF JUMPI PUSH1 0x0 CALLDATALOAD PUSH1 0xE0 SHR DUP1 PUSH4 0x64482F79 GT PUSH2 0x104 JUMPI DUP1 PUSH4 0xCB3CBA55 GT PUSH2 0xA2 JUMPI DUP1 PUSH4 0xE2BBB158 GT PUSH2 0x71 JUMPI DUP1 PUSH4 0xE2BBB158 EQ PUSH2 0x4F8 JUMPI DUP1 PUSH4 0xE4D09896 EQ PUSH2 0x514 JUMPI DUP1 PUSH4 0xF2FDE38B EQ PUSH2 0x532 JUMPI DUP1 PUSH4 0xF395DB2C EQ PUSH2 0x54E JUMPI PUSH2 0x1CF JUMP JUMPDEST DUP1 PUSH4 0xCB3CBA55 EQ PUSH2 0x470 JUMPI DUP1 PUSH4 0xD0D41FE1 EQ PUSH2 0x48E JUMPI DUP1 PUSH4 0xD49E77CD EQ PUSH2 0x4AA JUMPI DUP1 PUSH4 0xD5545992 EQ PUSH2 0x4C8 JUMPI PUSH2 0x1CF JUMP JUMPDEST DUP1 PUSH4 0x8AA28550 GT PUSH2 0xDE JUMPI DUP1 PUSH4 0x8AA28550 EQ PUSH2 0x3D3 JUMPI DUP1 PUSH4 0x8DA5CB5B EQ PUSH2 0x3F1 JUMPI DUP1 PUSH4 0x8DBB1E3A EQ PUSH2 0x40F JUMPI DUP1 PUSH4 0x93F1A40B EQ PUSH2 0x43F JUMPI PUSH2 0x1CF JUMP JUMPDEST DUP1 PUSH4 0x64482F79 EQ PUSH2 0x38F JUMPI DUP1 PUSH4 0x715018A6 EQ PUSH2 0x3AB JUMPI DUP1 PUSH4 0x7CD07E47 EQ PUSH2 0x3B5 JUMPI PUSH2 0x1CF JUMP JUMPDEST DUP1 PUSH4 0x23CF3118 GT PUSH2 0x171 JUMPI DUP1 PUSH4 0x51EB05A6 GT PUSH2 0x14B JUMPI DUP1 PUSH4 0x51EB05A6 EQ PUSH2 0x331 JUMPI DUP1 PUSH4 0x5FFE6146 EQ PUSH2 0x34D JUMPI DUP1 PUSH4 0x612EEE43 EQ PUSH2 0x369 JUMPI DUP1 PUSH4 0x630B5BA1 EQ PUSH2 0x385 JUMPI PUSH2 0x1CF JUMP JUMPDEST DUP1 PUSH4 0x23CF3118 EQ PUSH2 0x2DB JUMPI DUP1 PUSH4 0x441A3E70 EQ PUSH2 0x2F7 JUMPI DUP1 PUSH4 0x48CD4CB1 EQ PUSH2 0x313 JUMPI PUSH2 0x1CF JUMP JUMPDEST DUP1 PUSH4 0x1526FE27 GT PUSH2 0x1AD JUMPI DUP1 PUSH4 0x1526FE27 EQ PUSH2 0x23E JUMPI DUP1 PUSH4 0x17CAF6F1 EQ PUSH2 0x271 JUMPI DUP1 PUSH4 0x1EAAA045 EQ PUSH2 0x28F JUMPI DUP1 PUSH4 0x2080BAAB EQ PUSH2 0x2AB JUMPI PUSH2 0x1CF JUMP JUMPDEST DUP1 PUSH4 0x81E3EDA EQ PUSH2 0x1D4 JUMPI DUP1 PUSH4 0x1395D8C9 EQ PUSH2 0x1F2 JUMPI DUP1 PUSH4 0x150B7A02 EQ PUSH2 0x20E JUMPI JUMPDEST PUSH1 0x0 DUP1 REVERT JUMPDEST PUSH2 0x1DC PUSH2 0x56C JUMP JUMPDEST PUSH1 0x40 MLOAD PUSH2 0x1E9 SWAP2 SWAP1 PUSH2 0x299D JUMP JUMPDEST PUSH1 0x40 MLOAD DUP1 SWAP2 SUB SWAP1 RETURN JUMPDEST PUSH2 0x20C PUSH1 0x4 DUP1 CALLDATASIZE SUB DUP2 ADD SWAP1 PUSH2 0x207 SWAP2 SWAP1 PUSH2 0x23B1 JUMP JUMPDEST PUSH2 0x579 JUMP JUMPDEST STOP JUMPDEST PUSH2 0x228 PUSH1 0x4 DUP1 CALLDATASIZE SUB DUP2 ADD SWAP1 PUSH2 0x223 SWAP2 SWAP1 PUSH2 0x22D4 JUMP JUMPDEST PUSH2 0x87B JUMP JUMPDEST PUSH1 0x40 MLOAD PUSH2 0x235 SWAP2 SWAP1 PUSH2 0x27EA JUMP JUMPDEST PUSH1 0x40 MLOAD DUP1 SWAP2 SUB SWAP1 RETURN JUMPDEST PUSH2 0x258 PUSH1 0x4 DUP1 CALLDATASIZE SUB DUP2 ADD SWAP1 PUSH2 0x253 SWAP2 SWAP1 PUSH2 0x23B1 JUMP JUMPDEST PUSH2 0x88F JUMP JUMPDEST PUSH1 0x40 MLOAD PUSH2 0x268 SWAP5 SWAP4 SWAP3 SWAP2 SWAP1 PUSH2 0x2820 JUMP JUMPDEST PUSH1 0x40 MLOAD DUP1 SWAP2 SUB SWAP1 RETURN JUMPDEST PUSH2 0x279 PUSH2 0x8EF JUMP JUMPDEST PUSH1 0x40 MLOAD PUSH2 0x286 SWAP2 SWAP1 PUSH2 0x299D JUMP JUMPDEST PUSH1 0x40 MLOAD DUP1 SWAP2 SUB SWAP1 RETURN JUMPDEST PUSH2 0x2A9 PUSH1 0x4 DUP1 CALLDATASIZE SUB DUP2 ADD SWAP1 PUSH2 0x2A4 SWAP2 SWAP1 PUSH2 0x244B JUMP JUMPDEST PUSH2 0x8F5 JUMP JUMPDEST STOP JUMPDEST PUSH2 0x2C5 PUSH1 0x4 DUP1 CALLDATASIZE SUB DUP2 ADD SWAP1 PUSH2 0x2C0 SWAP2 SWAP1 PUSH2 0x240B JUMP JUMPDEST PUSH2 0xA82 JUMP JUMPDEST PUSH1 0x40 MLOAD PUSH2 0x2D2 SWAP2 SWAP1 PUSH2 0x299D JUMP JUMPDEST PUSH1 0x40 MLOAD DUP1 SWAP2 SUB SWAP1 RETURN JUMPDEST PUSH2 0x2F5 PUSH1 0x4 DUP1 CALLDATASIZE SUB DUP2 ADD SWAP1 PUSH2 0x2F0 SWAP2 SWAP1 PUSH2 0x2384 JUMP JUMPDEST PUSH2 0xCB6 JUMP JUMPDEST STOP JUMPDEST PUSH2 0x311 PUSH1 0x4 DUP1 CALLDATASIZE SUB DUP2 ADD SWAP1 PUSH2 0x30C SWAP2 SWAP1 PUSH2 0x249E JUMP JUMPDEST PUSH2 0xD76 JUMP JUMPDEST STOP JUMPDEST PUSH2 0x31B PUSH2 0x1153 JUMP JUMPDEST PUSH1 0x40 MLOAD PUSH2 0x328 SWAP2 SWAP1 PUSH2 0x299D JUMP JUMPDEST PUSH1 0x40 MLOAD DUP1 SWAP2 SUB SWAP1 RETURN JUMPDEST PUSH2 0x34B PUSH1 0x4 DUP1 CALLDATASIZE SUB DUP2 ADD SWAP1 PUSH2 0x346 SWAP2 SWAP1 PUSH2 0x23B1 JUMP JUMPDEST PUSH2 0x1159 JUMP JUMPDEST STOP JUMPDEST PUSH2 0x367 PUSH1 0x4 DUP1 CALLDATASIZE SUB DUP2 ADD SWAP1 PUSH2 0x362 SWAP2 SWAP1 PUSH2 0x23B1 JUMP JUMPDEST PUSH2 0x13B7 JUMP JUMPDEST STOP JUMPDEST PUSH2 0x383 PUSH1 0x4 DUP1 CALLDATASIZE SUB DUP2 ADD SWAP1 PUSH2 0x37E SWAP2 SWAP1 PUSH2 0x23B1 JUMP JUMPDEST PUSH2 0x143D JUMP JUMPDEST STOP JUMPDEST PUSH2 0x38D PUSH2 0x14C3 JUMP JUMPDEST STOP JUMPDEST PUSH2 0x3A9 PUSH1 0x4 DUP1 CALLDATASIZE SUB DUP2 ADD SWAP1 PUSH2 0x3A4 SWAP2 SWAP1 PUSH2 0x24DE JUMP JUMPDEST PUSH2 0x14F6 JUMP JUMPDEST STOP JUMPDEST PUSH2 0x3B3 PUSH2 0x1602 JUMP JUMPDEST STOP JUMPDEST PUSH2 0x3BD PUSH2 0x168A JUMP JUMPDEST PUSH1 0x40 MLOAD PUSH2 0x3CA SWAP2 SWAP1 PUSH2 0x2865 JUMP JUMPDEST PUSH1 0x40 MLOAD DUP1 SWAP2 SUB SWAP1 RETURN JUMPDEST PUSH2 0x3DB PUSH2 0x16B0 JUMP JUMPDEST PUSH1 0x40 MLOAD PUSH2 0x3E8 SWAP2 SWAP1 PUSH2 0x299D JUMP JUMPDEST PUSH1 0x40 MLOAD DUP1 SWAP2 SUB SWAP1 RETURN JUMPDEST PUSH2 0x3F9 PUSH2 0x16B6 JUMP JUMPDEST PUSH1 0x40 MLOAD PUSH2 0x406 SWAP2 SWAP1 PUSH2 0x274D JUMP JUMPDEST PUSH1 0x40 MLOAD DUP1 SWAP2 SUB SWAP1 RETURN JUMPDEST PUSH2 0x429 PUSH1 0x4 DUP1 CALLDATASIZE SUB DUP2 ADD SWAP1 PUSH2 0x424 SWAP2 SWAP1 PUSH2 0x249E JUMP JUMPDEST PUSH2 0x16DF JUMP JUMPDEST PUSH1 0x40 MLOAD PUSH2 0x436 SWAP2 SWAP1 PUSH2 0x299D JUMP JUMPDEST PUSH1 0x40 MLOAD DUP1 SWAP2 SUB SWAP1 RETURN JUMPDEST PUSH2 0x459 PUSH1 0x4 DUP1 CALLDATASIZE SUB DUP2 ADD SWAP1 PUSH2 0x454 SWAP2 SWAP1 PUSH2 0x240B JUMP JUMPDEST PUSH2 0x1710 JUMP JUMPDEST PUSH1 0x40 MLOAD PUSH2 0x467 SWAP3 SWAP2 SWAP1 PUSH2 0x29E1 JUMP JUMPDEST PUSH1 0x40 MLOAD DUP1 SWAP2 SUB SWAP1 RETURN JUMPDEST PUSH2 0x478 PUSH2 0x1741 JUMP JUMPDEST PUSH1 0x40 MLOAD PUSH2 0x485 SWAP2 SWAP1 PUSH2 0x2805 JUMP JUMPDEST PUSH1 0x40 MLOAD DUP1 SWAP2 SUB SWAP1 RETURN JUMPDEST PUSH2 0x4A8 PUSH1 0x4 DUP1 CALLDATASIZE SUB DUP2 ADD SWAP1 PUSH2 0x4A3 SWAP2 SWAP1 PUSH2 0x22A7 JUMP JUMPDEST PUSH2 0x1767 JUMP JUMPDEST STOP JUMPDEST PUSH2 0x4B2 PUSH2 0x1827 JUMP JUMPDEST PUSH1 0x40 MLOAD PUSH2 0x4BF SWAP2 SWAP1 PUSH2 0x274D JUMP JUMPDEST PUSH1 0x40 MLOAD DUP1 SWAP2 SUB SWAP1 RETURN JUMPDEST PUSH2 0x4E2 PUSH1 0x4 DUP1 CALLDATASIZE SUB DUP2 ADD SWAP1 PUSH2 0x4DD SWAP2 SWAP1 PUSH2 0x240B JUMP JUMPDEST PUSH2 0x184D JUMP JUMPDEST PUSH1 0x40 MLOAD PUSH2 0x4EF SWAP2 SWAP1 PUSH2 0x27C8 JUMP JUMPDEST PUSH1 0x40 MLOAD DUP1 SWAP2 SUB SWAP1 RETURN JUMPDEST PUSH2 0x512 PUSH1 0x4 DUP1 CALLDATASIZE SUB DUP2 ADD SWAP1 PUSH2 0x50D SWAP2 SWAP1 PUSH2 0x249E JUMP JUMPDEST PUSH2 0x18FF JUMP JUMPDEST STOP JUMPDEST PUSH2 0x51C PUSH2 0x1B5E JUMP JUMPDEST PUSH1 0x40 MLOAD PUSH2 0x529 SWAP2 SWAP1 PUSH2 0x2880 JUMP JUMPDEST PUSH1 0x40 MLOAD DUP1 SWAP2 SUB SWAP1 RETURN JUMPDEST PUSH2 0x54C PUSH1 0x4 DUP1 CALLDATASIZE SUB DUP2 ADD SWAP1 PUSH2 0x547 SWAP2 SWAP1 PUSH2 0x22A7 JUMP JUMPDEST PUSH2 0x1B84 JUMP JUMPDEST STOP JUMPDEST PUSH2 0x556 PUSH2 0x1C7C JUMP JUMPDEST PUSH1 0x40 MLOAD PUSH2 0x563 SWAP2 SWAP1 PUSH2 0x299D JUMP JUMPDEST PUSH1 0x40 MLOAD DUP1 SWAP2 SUB SWAP1 RETURN JUMPDEST PUSH1 0x0 PUSH1 0x7 DUP1 SLOAD SWAP1 POP SWAP1 POP SWAP1 JUMP JUMPDEST PUSH1 0x0 PUSH1 0x7 DUP3 DUP2 SLOAD DUP2 LT PUSH2 0x58F JUMPI PUSH2 0x58E PUSH2 0x2DE8 JUMP JUMPDEST JUMPDEST SWAP1 PUSH1 0x0 MSTORE PUSH1 0x20 PUSH1 0x0 KECCAK256 SWAP1 PUSH1 0x4 MUL ADD SWAP1 POP PUSH1 0x0 PUSH1 0x8 PUSH1 0x0 DUP5 DUP2 MSTORE PUSH1 0x20 ADD SWAP1 DUP2 MSTORE PUSH1 0x20 ADD PUSH1 0x0 KECCAK256 PUSH1 0x0 CALLER PUSH20 0xFFFFFFFFFFFFFFFFFFFFFFFFFFFFFFFFFFFFFFFF AND PUSH20 0xFFFFFFFFFFFFFFFFFFFFFFFFFFFFFFFFFFFFFFFF AND DUP2 MSTORE PUSH1 0x20 ADD SWAP1 DUP2 MSTORE PUSH1 0x20 ADD PUSH1 0x0 KECCAK256 SWAP1 POP PUSH2 0x5FC DUP4 PUSH2 0x1159 JUMP JUMPDEST PUSH1 0x0 PUSH2 0x646 DUP3 PUSH1 0x2 ADD SLOAD PUSH2 0x638 PUSH5 0xE8D4A51000 PUSH2 0x62A DUP8 PUSH1 0x3 ADD SLOAD DUP8 PUSH1 0x1 ADD SLOAD PUSH2 0x1C82 SWAP1 SWAP2 SWAP1 PUSH4 0xFFFFFFFF AND JUMP JUMPDEST PUSH2 0x1CFD SWAP1 SWAP2 SWAP1 PUSH4 0xFFFFFFFF AND JUMP JUMPDEST PUSH2 0x1D47 SWAP1 SWAP2 SWAP1 PUSH4 0xFFFFFFFF AND JUMP JUMPDEST SWAP1 POP PUSH1 0x0 DUP2 GT PUSH2 0x68B JUMPI PUSH1 0x40 MLOAD PUSH32 0x8C379A000000000000000000000000000000000000000000000000000000000 DUP2 MSTORE PUSH1 0x4 ADD PUSH2 0x682 SWAP1 PUSH2 0x291D JUMP JUMPDEST PUSH1 0x40 MLOAD DUP1 SWAP2 SUB SWAP1 REVERT JUMPDEST PUSH1 0x2 PUSH1 0x0 SWAP1 SLOAD SWAP1 PUSH2 0x100 EXP SWAP1 DIV PUSH20 0xFFFFFFFFFFFFFFFFFFFFFFFFFFFFFFFFFFFFFFFF AND PUSH20 0xFFFFFFFFFFFFFFFFFFFFFFFFFFFFFFFFFFFFFFFF AND PUSH4 0x95EA7B3 PUSH1 0x1 PUSH1 0x0 SWAP1 SLOAD SWAP1 PUSH2 0x100 EXP SWAP1 DIV PUSH20 0xFFFFFFFFFFFFFFFFFFFFFFFFFFFFFFFFFFFFFFFF AND DUP4 PUSH1 0x40 MLOAD DUP4 PUSH4 0xFFFFFFFF AND PUSH1 0xE0 SHL DUP2 MSTORE PUSH1 0x4 ADD PUSH2 0x70A SWAP3 SWAP2 SWAP1 PUSH2 0x279F JUMP JUMPDEST PUSH1 0x20 PUSH1 0x40 MLOAD DUP1 DUP4 SUB DUP2 PUSH1 0x0 DUP8 DUP1 EXTCODESIZE ISZERO DUP1 ISZERO PUSH2 0x724 JUMPI PUSH1 0x0 DUP1 REVERT JUMPDEST POP GAS CALL ISZERO DUP1 ISZERO PUSH2 0x738 JUMPI RETURNDATASIZE PUSH1 0x0 DUP1 RETURNDATACOPY RETURNDATASIZE PUSH1 0x0 REVERT JUMPDEST POP POP POP POP PUSH1 0x40 MLOAD RETURNDATASIZE PUSH1 0x1F NOT PUSH1 0x1F DUP3 ADD AND DUP3 ADD DUP1 PUSH1 0x40 MSTORE POP DUP2 ADD SWAP1 PUSH2 0x75C SWAP2 SWAP1 PUSH2 0x2357 JUMP JUMPDEST POP PUSH1 0x1 PUSH1 0x0 SWAP1 SLOAD SWAP1 PUSH2 0x100 EXP SWAP1 DIV PUSH20 0xFFFFFFFFFFFFFFFFFFFFFFFFFFFFFFFFFFFFFFFF AND PUSH20 0xFFFFFFFFFFFFFFFFFFFFFFFFFFFFFFFFFFFFFFFF AND PUSH4 0xCF35FDDF DUP3 CALLER PUSH1 0x40 MLOAD DUP4 PUSH4 0xFFFFFFFF AND PUSH1 0xE0 SHL DUP2 MSTORE PUSH1 0x4 ADD PUSH2 0x7BA SWAP3 SWAP2 SWAP1 PUSH2 0x29B8 JUMP JUMPDEST PUSH1 0x0 PUSH1 0x40 MLOAD DUP1 DUP4 SUB DUP2 PUSH1 0x0 DUP8 DUP1 EXTCODESIZE ISZERO DUP1 ISZERO PUSH2 0x7D4 JUMPI PUSH1 0x0 DUP1 REVERT JUMPDEST POP GAS CALL ISZERO DUP1 ISZERO PUSH2 0x7E8 JUMPI RETURNDATASIZE PUSH1 0x0 DUP1 RETURNDATACOPY RETURNDATASIZE PUSH1 0x0 REVERT JUMPDEST POP POP POP POP PUSH2 0x81E PUSH5 0xE8D4A51000 PUSH2 0x810 DUP6 PUSH1 0x3 ADD SLOAD DUP6 PUSH1 0x1 ADD SLOAD PUSH2 0x1C82 SWAP1 SWAP2 SWAP1 PUSH4 0xFFFFFFFF AND JUMP JUMPDEST PUSH2 0x1CFD SWAP1 SWAP2 SWAP1 PUSH4 0xFFFFFFFF AND JUMP JUMPDEST DUP3 PUSH1 0x2 ADD DUP2 SWAP1 SSTORE POP DUP4 CALLER PUSH20 0xFFFFFFFFFFFFFFFFFFFFFFFFFFFFFFFFFFFFFFFF AND PUSH32 0xF279E6A1F5E320CCA91135676D9CB6E44CA8A08C0B88342BCDB1144F6511B568 DUP4 PUSH1 0x40 MLOAD PUSH2 0x86D SWAP2 SWAP1 PUSH2 0x299D JUMP JUMPDEST PUSH1 0x40 MLOAD DUP1 SWAP2 SUB SWAP1 LOG3 POP POP POP POP JUMP JUMPDEST PUSH1 0x0 PUSH4 0x150B7A02 PUSH1 0xE0 SHL SWAP1 POP SWAP5 SWAP4 POP POP POP POP JUMP JUMPDEST PUSH1 0x7 DUP2 DUP2 SLOAD DUP2 LT PUSH2 0x89F JUMPI PUSH1 0x0 DUP1 REVERT JUMPDEST SWAP1 PUSH1 0x0 MSTORE PUSH1 0x20 PUSH1 0x0 KECCAK256 SWAP1 PUSH1 0x4 MUL ADD PUSH1 0x0 SWAP2 POP SWAP1 POP DUP1 PUSH1 0x0 ADD PUSH1 0x0 SWAP1 SLOAD SWAP1 PUSH2 0x100 EXP SWAP1 DIV PUSH20 0xFFFFFFFFFFFFFFFFFFFFFFFFFFFFFFFFFFFFFFFF AND SWAP1 DUP1 PUSH1 0x1 ADD SLOAD SWAP1 DUP1 PUSH1 0x2 ADD SLOAD SWAP1 DUP1 PUSH1 0x3 ADD SLOAD SWAP1 POP DUP5 JUMP JUMPDEST PUSH1 0x9 SLOAD DUP2 JUMP JUMPDEST PUSH2 0x8FD PUSH2 0x1D91 JUMP JUMPDEST PUSH20 0xFFFFFFFFFFFFFFFFFFFFFFFFFFFFFFFFFFFFFFFF AND PUSH2 0x91B PUSH2 0x16B6 JUMP JUMPDEST PUSH20 0xFFFFFFFFFFFFFFFFFFFFFFFFFFFFFFFFFFFFFFFF AND EQ PUSH2 0x971 JUMPI PUSH1 0x40 MLOAD PUSH32 0x8C379A000000000000000000000000000000000000000000000000000000000 DUP2 MSTORE PUSH1 0x4 ADD PUSH2 0x968 SWAP1 PUSH2 0x295D JUMP JUMPDEST PUSH1 0x40 MLOAD DUP1 SWAP2 SUB SWAP1 REVERT JUMPDEST DUP1 ISZERO PUSH2 0x980 JUMPI PUSH2 0x97F PUSH2 0x14C3 JUMP JUMPDEST JUMPDEST PUSH1 0x0 PUSH1 0xA SLOAD NUMBER GT PUSH2 0x993 JUMPI PUSH1 0xA SLOAD PUSH2 0x995 JUMP JUMPDEST NUMBER JUMPDEST SWAP1 POP PUSH2 0x9AC DUP5 PUSH1 0x9 SLOAD PUSH2 0x1D99 SWAP1 SWAP2 SWAP1 PUSH4 0xFFFFFFFF AND JUMP JUMPDEST PUSH1 0x9 DUP2 SWAP1 SSTORE POP PUSH1 0x7 PUSH1 0x40 MLOAD DUP1 PUSH1 0x80 ADD PUSH1 0x40 MSTORE DUP1 DUP6 PUSH20 0xFFFFFFFFFFFFFFFFFFFFFFFFFFFFFFFFFFFFFFFF AND DUP2 MSTORE PUSH1 0x20 ADD DUP7 DUP2 MSTORE PUSH1 0x20 ADD DUP4 DUP2 MSTORE PUSH1 0x20 ADD PUSH1 0x0 DUP2 MSTORE POP SWAP1 DUP1 PUSH1 0x1 DUP2 SLOAD ADD DUP1 DUP3 SSTORE DUP1 SWAP2 POP POP PUSH1 0x1 SWAP1 SUB SWAP1 PUSH1 0x0 MSTORE PUSH1 0x20 PUSH1 0x0 KECCAK256 SWAP1 PUSH1 0x4 MUL ADD PUSH1 0x0 SWAP1 SWAP2 SWAP1 SWAP2 SWAP1 SWAP2 POP PUSH1 0x0 DUP3 ADD MLOAD DUP2 PUSH1 0x0 ADD PUSH1 0x0 PUSH2 0x100 EXP DUP2 SLOAD DUP2 PUSH20 0xFFFFFFFFFFFFFFFFFFFFFFFFFFFFFFFFFFFFFFFF MUL NOT AND SWAP1 DUP4 PUSH20 0xFFFFFFFFFFFFFFFFFFFFFFFFFFFFFFFFFFFFFFFF AND MUL OR SWAP1 SSTORE POP PUSH1 0x20 DUP3 ADD MLOAD DUP2 PUSH1 0x1 ADD SSTORE PUSH1 0x40 DUP3 ADD MLOAD DUP2 PUSH1 0x2 ADD SSTORE PUSH1 0x60 DUP3 ADD MLOAD DUP2 PUSH1 0x3 ADD SSTORE POP POP POP POP POP POP JUMP JUMPDEST PUSH1 0x0 DUP1 PUSH1 0x7 DUP5 DUP2 SLOAD DUP2 LT PUSH2 0xA99 JUMPI PUSH2 0xA98 PUSH2 0x2DE8 JUMP JUMPDEST JUMPDEST SWAP1 PUSH1 0x0 MSTORE PUSH1 0x20 PUSH1 0x0 KECCAK256 SWAP1 PUSH1 0x4 MUL ADD SWAP1 POP PUSH1 0x0 PUSH1 0x8 PUSH1 0x0 DUP7 DUP2 MSTORE PUSH1 0x20 ADD SWAP1 DUP2 MSTORE PUSH1 0x20 ADD PUSH1 0x0 KECCAK256 PUSH1 0x0 DUP6 PUSH20 0xFFFFFFFFFFFFFFFFFFFFFFFFFFFFFFFFFFFFFFFF AND PUSH20 0xFFFFFFFFFFFFFFFFFFFFFFFFFFFFFFFFFFFFFFFF AND DUP2 MSTORE PUSH1 0x20 ADD SWAP1 DUP2 MSTORE PUSH1 0x20 ADD PUSH1 0x0 KECCAK256 SWAP1 POP PUSH1 0x0 DUP3 PUSH1 0x3 ADD SLOAD SWAP1 POP PUSH1 0x0 DUP4 PUSH1 0x0 ADD PUSH1 0x0 SWAP1 SLOAD SWAP1 PUSH2 0x100 EXP SWAP1 DIV PUSH20 0xFFFFFFFFFFFFFFFFFFFFFFFFFFFFFFFFFFFFFFFF AND PUSH20 0xFFFFFFFFFFFFFFFFFFFFFFFFFFFFFFFFFFFFFFFF AND PUSH4 0x70A08231 ADDRESS PUSH1 0x40 MLOAD DUP3 PUSH4 0xFFFFFFFF AND PUSH1 0xE0 SHL DUP2 MSTORE PUSH1 0x4 ADD PUSH2 0xB65 SWAP2 SWAP1 PUSH2 0x274D JUMP JUMPDEST PUSH1 0x20 PUSH1 0x40 MLOAD DUP1 DUP4 SUB DUP2 DUP7 DUP1 EXTCODESIZE ISZERO DUP1 ISZERO PUSH2 0xB7D JUMPI PUSH1 0x0 DUP1 REVERT JUMPDEST POP GAS STATICCALL ISZERO DUP1 ISZERO PUSH2 0xB91 JUMPI RETURNDATASIZE PUSH1 0x0 DUP1 RETURNDATACOPY RETURNDATASIZE PUSH1 0x0 REVERT JUMPDEST POP POP POP POP PUSH1 0x40 MLOAD RETURNDATASIZE PUSH1 0x1F NOT PUSH1 0x1F DUP3 ADD AND DUP3 ADD DUP1 PUSH1 0x40 MSTORE POP DUP2 ADD SWAP1 PUSH2 0xBB5 SWAP2 SWAP1 PUSH2 0x23DE JUMP JUMPDEST SWAP1 POP DUP4 PUSH1 0x2 ADD SLOAD NUMBER GT DUP1 ISZERO PUSH2 0xBCB JUMPI POP PUSH1 0x0 DUP2 EQ ISZERO JUMPDEST ISZERO PUSH2 0xC66 JUMPI PUSH1 0x0 PUSH2 0xBE0 DUP6 PUSH1 0x2 ADD SLOAD NUMBER PUSH2 0x16DF JUMP JUMPDEST SWAP1 POP PUSH1 0x0 PUSH2 0xC23 PUSH1 0x9 SLOAD PUSH2 0xC15 DUP9 PUSH1 0x1 ADD SLOAD PUSH2 0xC07 PUSH1 0x4 SLOAD DUP8 PUSH2 0x1C82 SWAP1 SWAP2 SWAP1 PUSH4 0xFFFFFFFF AND JUMP JUMPDEST PUSH2 0x1C82 SWAP1 SWAP2 SWAP1 PUSH4 0xFFFFFFFF AND JUMP JUMPDEST PUSH2 0x1CFD SWAP1 SWAP2 SWAP1 PUSH4 0xFFFFFFFF AND JUMP JUMPDEST SWAP1 POP PUSH2 0xC61 PUSH2 0xC52 DUP5 PUSH2 0xC44 PUSH5 0xE8D4A51000 DUP6 PUSH2 0x1C82 SWAP1 SWAP2 SWAP1 PUSH4 0xFFFFFFFF AND JUMP JUMPDEST PUSH2 0x1CFD SWAP1 SWAP2 SWAP1 PUSH4 0xFFFFFFFF AND JUMP JUMPDEST DUP6 PUSH2 0x1D99 SWAP1 SWAP2 SWAP1 PUSH4 0xFFFFFFFF AND JUMP JUMPDEST SWAP4 POP POP POP JUMPDEST PUSH2 0xCAA DUP4 PUSH1 0x2 ADD SLOAD PUSH2 0xC9C PUSH5 0xE8D4A51000 PUSH2 0xC8E DUP7 DUP9 PUSH1 0x1 ADD SLOAD PUSH2 0x1C82 SWAP1 SWAP2 SWAP1 PUSH4 0xFFFFFFFF AND JUMP JUMPDEST PUSH2 0x1CFD SWAP1 SWAP2 SWAP1 PUSH4 0xFFFFFFFF AND JUMP JUMPDEST PUSH2 0x1D47 SWAP1 SWAP2 SWAP1 PUSH4 0xFFFFFFFF AND JUMP JUMPDEST SWAP5 POP POP POP POP POP SWAP3 SWAP2 POP POP JUMP JUMPDEST PUSH2 0xCBE PUSH2 0x1D91 JUMP JUMPDEST PUSH20 0xFFFFFFFFFFFFFFFFFFFFFFFFFFFFFFFFFFFFFFFF AND PUSH2 0xCDC PUSH2 0x16B6 JUMP JUMPDEST PUSH20 0xFFFFFFFFFFFFFFFFFFFFFFFFFFFFFFFFFFFFFFFF AND EQ PUSH2 0xD32 JUMPI PUSH1 0x40 MLOAD PUSH32 0x8C379A000000000000000000000000000000000000000000000000000000000 DUP2 MSTORE PUSH1 0x4 ADD PUSH2 0xD29 SWAP1 PUSH2 0x295D JUMP JUMPDEST PUSH1 0x40 MLOAD DUP1 SWAP2 SUB SWAP1 REVERT JUMPDEST DUP1 PUSH1 0x6 PUSH1 0x0 PUSH2 0x100 EXP DUP2 SLOAD DUP2 PUSH20 0xFFFFFFFFFFFFFFFFFFFFFFFFFFFFFFFFFFFFFFFF MUL NOT AND SWAP1 DUP4 PUSH20 0xFFFFFFFFFFFFFFFFFFFFFFFFFFFFFFFFFFFFFFFF AND MUL OR SWAP1 SSTORE POP POP JUMP JUMPDEST PUSH1 0x0 PUSH1 0x7 DUP4 DUP2 SLOAD DUP2 LT PUSH2 0xD8C JUMPI PUSH2 0xD8B PUSH2 0x2DE8 JUMP JUMPDEST JUMPDEST SWAP1 PUSH1 0x0 MSTORE PUSH1 0x20 PUSH1 0x0 KECCAK256 SWAP1 PUSH1 0x4 MUL ADD SWAP1 POP PUSH1 0x0 PUSH1 0x8 PUSH1 0x0 DUP6 DUP2 MSTORE PUSH1 0x20 ADD SWAP1 DUP2 MSTORE PUSH1 0x20 ADD PUSH1 0x0 KECCAK256 PUSH1 0x0 CALLER PUSH20 0xFFFFFFFFFFFFFFFFFFFFFFFFFFFFFFFFFFFFFFFF AND PUSH20 0xFFFFFFFFFFFFFFFFFFFFFFFFFFFFFFFFFFFFFFFF AND DUP2 MSTORE PUSH1 0x20 ADD SWAP1 DUP2 MSTORE PUSH1 0x20 ADD PUSH1 0x0 KECCAK256 SWAP1 POP PUSH1 0x0 DUP2 PUSH1 0x1 ADD SLOAD GT PUSH2 0xE37 JUMPI PUSH1 0x40 MLOAD PUSH32 0x8C379A000000000000000000000000000000000000000000000000000000000 DUP2 MSTORE PUSH1 0x4 ADD PUSH2 0xE2E SWAP1 PUSH2 0x297D JUMP JUMPDEST PUSH1 0x40 MLOAD DUP1 SWAP2 SUB SWAP1 REVERT JUMPDEST PUSH1 0x0 DUP1 DUP5 EQ ISZERO PUSH2 0xEE7 JUMPI PUSH2 0xE4A DUP6 PUSH2 0x1159 JUMP JUMPDEST PUSH2 0xE92 DUP3 PUSH1 0x2 ADD SLOAD PUSH2 0xE84 PUSH5 0xE8D4A51000 PUSH2 0xE76 DUP8 PUSH1 0x3 ADD SLOAD DUP8 PUSH1 0x1 ADD SLOAD PUSH2 0x1C82 SWAP1 SWAP2 SWAP1 PUSH4 0xFFFFFFFF AND JUMP JUMPDEST PUSH2 0x1CFD SWAP1 SWAP2 SWAP1 PUSH4 0xFFFFFFFF AND JUMP JUMPDEST PUSH2 0x1D47 SWAP1 SWAP2 SWAP1 PUSH4 0xFFFFFFFF AND JUMP JUMPDEST SWAP1 POP PUSH1 0x0 DUP2 GT ISZERO PUSH2 0xEA8 JUMPI PUSH2 0xEA7 CALLER DUP3 PUSH2 0x1DF7 JUMP JUMPDEST JUMPDEST PUSH2 0xEDA PUSH5 0xE8D4A51000 PUSH2 0xECC DUP6 PUSH1 0x3 ADD SLOAD DUP6 PUSH1 0x1 ADD SLOAD PUSH2 0x1C82 SWAP1 SWAP2 SWAP1 PUSH4 0xFFFFFFFF AND JUMP JUMPDEST PUSH2 0x1CFD SWAP1 SWAP2 SWAP1 PUSH4 0xFFFFFFFF AND JUMP JUMPDEST DUP3 PUSH1 0x2 ADD DUP2 SWAP1 SSTORE POP PUSH2 0x10FD JUMP JUMPDEST PUSH1 0x0 DUP1 DUP1 JUMPDEST DUP5 PUSH1 0x0 ADD DUP1 SLOAD SWAP1 POP DUP2 LT ISZERO PUSH2 0xF3E JUMPI DUP7 DUP6 PUSH1 0x0 ADD DUP3 DUP2 SLOAD DUP2 LT PUSH2 0xF12 JUMPI PUSH2 0xF11 PUSH2 0x2DE8 JUMP JUMPDEST JUMPDEST SWAP1 PUSH1 0x0 MSTORE PUSH1 0x20 PUSH1 0x0 KECCAK256 ADD SLOAD EQ ISZERO PUSH2 0xF2B JUMPI PUSH1 0x1 SWAP3 POP DUP1 SWAP2 POP JUMPDEST DUP1 DUP1 PUSH2 0xF36 SWAP1 PUSH2 0x2D41 JUMP JUMPDEST SWAP2 POP POP PUSH2 0xEEC JUMP JUMPDEST POP PUSH1 0x1 DUP3 EQ PUSH2 0xF82 JUMPI PUSH1 0x40 MLOAD PUSH32 0x8C379A000000000000000000000000000000000000000000000000000000000 DUP2 MSTORE PUSH1 0x4 ADD PUSH2 0xF79 SWAP1 PUSH2 0x28FD JUMP JUMPDEST PUSH1 0x40 MLOAD DUP1 SWAP2 SUB SWAP1 REVERT JUMPDEST PUSH2 0xF8B DUP8 PUSH2 0x1159 JUMP JUMPDEST PUSH2 0xFD3 DUP5 PUSH1 0x2 ADD SLOAD PUSH2 0xFC5 PUSH5 0xE8D4A51000 PUSH2 0xFB7 DUP10 PUSH1 0x3 ADD SLOAD DUP10 PUSH1 0x1 ADD SLOAD PUSH2 0x1C82 SWAP1 SWAP2 SWAP1 PUSH4 0xFFFFFFFF AND JUMP JUMPDEST PUSH2 0x1CFD SWAP1 SWAP2 SWAP1 PUSH4 0xFFFFFFFF AND JUMP JUMPDEST PUSH2 0x1D47 SWAP1 SWAP2 SWAP1 PUSH4 0xFFFFFFFF AND JUMP JUMPDEST SWAP3 POP PUSH1 0x0 DUP4 GT ISZERO PUSH2 0xFE9 JUMPI PUSH2 0xFE8 CALLER DUP5 PUSH2 0x1DF7 JUMP JUMPDEST JUMPDEST PUSH2 0x1001 PUSH1 0x1 DUP6 PUSH1 0x1 ADD SLOAD PUSH2 0x1D47 SWAP1 SWAP2 SWAP1 PUSH4 0xFFFFFFFF AND JUMP JUMPDEST DUP5 PUSH1 0x1 ADD DUP2 SWAP1 SSTORE POP PUSH2 0x103B PUSH5 0xE8D4A51000 PUSH2 0x102D DUP8 PUSH1 0x3 ADD SLOAD DUP8 PUSH1 0x1 ADD SLOAD PUSH2 0x1C82 SWAP1 SWAP2 SWAP1 PUSH4 0xFFFFFFFF AND JUMP JUMPDEST PUSH2 0x1CFD SWAP1 SWAP2 SWAP1 PUSH4 0xFFFFFFFF AND JUMP JUMPDEST DUP5 PUSH1 0x2 ADD DUP2 SWAP1 SSTORE POP DUP4 PUSH1 0x0 ADD DUP2 DUP2 SLOAD DUP2 LT PUSH2 0x1059 JUMPI PUSH2 0x1058 PUSH2 0x2DE8 JUMP JUMPDEST JUMPDEST SWAP1 PUSH1 0x0 MSTORE PUSH1 0x20 PUSH1 0x0 KECCAK256 ADD PUSH1 0x0 SWAP1 SSTORE DUP5 PUSH1 0x0 ADD PUSH1 0x0 SWAP1 SLOAD SWAP1 PUSH2 0x100 EXP SWAP1 DIV PUSH20 0xFFFFFFFFFFFFFFFFFFFFFFFFFFFFFFFFFFFFFFFF AND PUSH20 0xFFFFFFFFFFFFFFFFFFFFFFFFFFFFFFFFFFFFFFFF AND PUSH4 0x42842E0E ADDRESS CALLER DUP10 PUSH1 0x40 MLOAD DUP5 PUSH4 0xFFFFFFFF AND PUSH1 0xE0 SHL DUP2 MSTORE PUSH1 0x4 ADD PUSH2 0x10C8 SWAP4 SWAP3 SWAP2 SWAP1 PUSH2 0x2768 JUMP JUMPDEST PUSH1 0x0 PUSH1 0x40 MLOAD DUP1 DUP4 SUB DUP2 PUSH1 0x0 DUP8 DUP1 EXTCODESIZE ISZERO DUP1 ISZERO PUSH2 0x10E2 JUMPI PUSH1 0x0 DUP1 REVERT JUMPDEST POP GAS CALL ISZERO DUP1 ISZERO PUSH2 0x10F6 JUMPI RETURNDATASIZE PUSH1 0x0 DUP1 RETURNDATACOPY RETURNDATASIZE PUSH1 0x0 REVERT JUMPDEST POP POP POP POP POP POP JUMPDEST DUP5 CALLER PUSH20 0xFFFFFFFFFFFFFFFFFFFFFFFFFFFFFFFFFFFFFFFF AND PUSH32 0xF279E6A1F5E320CCA91135676D9CB6E44CA8A08C0B88342BCDB1144F6511B568 DUP7 PUSH1 0x40 MLOAD PUSH2 0x1144 SWAP2 SWAP1 PUSH2 0x299D JUMP JUMPDEST PUSH1 0x40 MLOAD DUP1 SWAP2 SUB SWAP1 LOG3 POP POP POP POP POP JUMP JUMPDEST PUSH1 0xA SLOAD DUP2 JUMP JUMPDEST PUSH1 0x0 PUSH1 0x7 DUP3 DUP2 SLOAD DUP2 LT PUSH2 0x116F JUMPI PUSH2 0x116E PUSH2 0x2DE8 JUMP JUMPDEST JUMPDEST SWAP1 PUSH1 0x0 MSTORE PUSH1 0x20 PUSH1 0x0 KECCAK256 SWAP1 PUSH1 0x4 MUL ADD SWAP1 POP DUP1 PUSH1 0x2 ADD SLOAD NUMBER GT PUSH2 0x1190 JUMPI POP PUSH2 0x13B4 JUMP JUMPDEST PUSH1 0x0 DUP2 PUSH1 0x0 ADD PUSH1 0x0 SWAP1 SLOAD SWAP1 PUSH2 0x100 EXP SWAP1 DIV PUSH20 0xFFFFFFFFFFFFFFFFFFFFFFFFFFFFFFFFFFFFFFFF AND PUSH20 0xFFFFFFFFFFFFFFFFFFFFFFFFFFFFFFFFFFFFFFFF AND PUSH4 0x70A08231 ADDRESS PUSH1 0x40 MLOAD DUP3 PUSH4 0xFFFFFFFF AND PUSH1 0xE0 SHL DUP2 MSTORE PUSH1 0x4 ADD PUSH2 0x11EF SWAP2 SWAP1 PUSH2 0x274D JUMP JUMPDEST PUSH1 0x20 PUSH1 0x40 MLOAD DUP1 DUP4 SUB DUP2 DUP7 DUP1 EXTCODESIZE ISZERO DUP1 ISZERO PUSH2 0x1207 JUMPI PUSH1 0x0 DUP1 REVERT JUMPDEST POP GAS STATICCALL ISZERO DUP1 ISZERO PUSH2 0x121B JUMPI RETURNDATASIZE PUSH1 0x0 DUP1 RETURNDATACOPY RETURNDATASIZE PUSH1 0x0 REVERT JUMPDEST POP POP POP POP PUSH1 0x40 MLOAD RETURNDATASIZE PUSH1 0x1F NOT PUSH1 0x1F DUP3 ADD AND DUP3 ADD DUP1 PUSH1 0x40 MSTORE POP DUP2 ADD SWAP1 PUSH2 0x123F SWAP2 SWAP1 PUSH2 0x23DE JUMP JUMPDEST SWAP1 POP PUSH1 0x0 DUP2 GT PUSH2 0x1259 JUMPI NUMBER DUP3 PUSH1 0x2 ADD DUP2 SWAP1 SSTORE POP POP POP PUSH2 0x13B4 JUMP JUMPDEST PUSH1 0x0 PUSH2 0x1269 DUP4 PUSH1 0x2 ADD SLOAD NUMBER PUSH2 0x16DF JUMP JUMPDEST SWAP1 POP PUSH1 0x0 PUSH2 0x12AC PUSH1 0x9 SLOAD PUSH2 0x129E DUP7 PUSH1 0x1 ADD SLOAD PUSH2 0x1290 PUSH1 0x4 SLOAD DUP8 PUSH2 0x1C82 SWAP1 SWAP2 SWAP1 PUSH4 0xFFFFFFFF AND JUMP JUMPDEST PUSH2 0x1C82 SWAP1 SWAP2 SWAP1 PUSH4 0xFFFFFFFF AND JUMP JUMPDEST PUSH2 0x1CFD SWAP1 SWAP2 SWAP1 PUSH4 0xFFFFFFFF AND JUMP JUMPDEST SWAP1 POP PUSH1 0x2 PUSH1 0x0 SWAP1 SLOAD SWAP1 PUSH2 0x100 EXP SWAP1 DIV PUSH20 0xFFFFFFFFFFFFFFFFFFFFFFFFFFFFFFFFFFFFFFFF AND PUSH20 0xFFFFFFFFFFFFFFFFFFFFFFFFFFFFFFFFFFFFFFFF AND PUSH4 0x40C10F19 ADDRESS DUP4 PUSH1 0x40 MLOAD DUP4 PUSH4 0xFFFFFFFF AND PUSH1 0xE0 SHL DUP2 MSTORE PUSH1 0x4 ADD PUSH2 0x130B SWAP3 SWAP2 SWAP1 PUSH2 0x279F JUMP JUMPDEST PUSH1 0x20 PUSH1 0x40 MLOAD DUP1 DUP4 SUB DUP2 PUSH1 0x0 DUP8 DUP1 EXTCODESIZE ISZERO DUP1 ISZERO PUSH2 0x1325 JUMPI PUSH1 0x0 DUP1 REVERT JUMPDEST POP GAS CALL ISZERO DUP1 ISZERO PUSH2 0x1339 JUMPI RETURNDATASIZE PUSH1 0x0 DUP1 RETURNDATACOPY RETURNDATASIZE PUSH1 0x0 REVERT JUMPDEST POP POP POP POP PUSH1 0x40 MLOAD RETURNDATASIZE PUSH1 0x1F NOT PUSH1 0x1F DUP3 ADD AND DUP3 ADD DUP1 PUSH1 0x40 MSTORE POP DUP2 ADD SWAP1 PUSH2 0x135D SWAP2 SWAP1 PUSH2 0x2357 JUMP JUMPDEST POP PUSH2 0x139E PUSH2 0x138B DUP5 PUSH2 0x137D PUSH5 0xE8D4A51000 DUP6 PUSH2 0x1C82 SWAP1 SWAP2 SWAP1 PUSH4 0xFFFFFFFF AND JUMP JUMPDEST PUSH2 0x1CFD SWAP1 SWAP2 SWAP1 PUSH4 0xFFFFFFFF AND JUMP JUMPDEST DUP6 PUSH1 0x3 ADD SLOAD PUSH2 0x1D99 SWAP1 SWAP2 SWAP1 PUSH4 0xFFFFFFFF AND JUMP JUMPDEST DUP5 PUSH1 0x3 ADD DUP2 SWAP1 SSTORE POP NUMBER DUP5 PUSH1 0x2 ADD DUP2 SWAP1 SSTORE POP POP POP POP POP JUMPDEST POP JUMP JUMPDEST PUSH2 0x13BF PUSH2 0x1D91 JUMP JUMPDEST PUSH20 0xFFFFFFFFFFFFFFFFFFFFFFFFFFFFFFFFFFFFFFFF AND PUSH2 0x13DD PUSH2 0x16B6 JUMP JUMPDEST PUSH20 0xFFFFFFFFFFFFFFFFFFFFFFFFFFFFFFFFFFFFFFFF AND EQ PUSH2 0x1433 JUMPI PUSH1 0x40 MLOAD PUSH32 0x8C379A000000000000000000000000000000000000000000000000000000000 DUP2 MSTORE PUSH1 0x4 ADD PUSH2 0x142A SWAP1 PUSH2 0x295D JUMP JUMPDEST PUSH1 0x40 MLOAD DUP1 SWAP2 SUB SWAP1 REVERT JUMPDEST DUP1 PUSH1 0x5 DUP2 SWAP1 SSTORE POP POP JUMP JUMPDEST PUSH2 0x1445 PUSH2 0x1D91 JUMP JUMPDEST PUSH20 0xFFFFFFFFFFFFFFFFFFFFFFFFFFFFFFFFFFFFFFFF AND PUSH2 0x1463 PUSH2 0x16B6 JUMP JUMPDEST PUSH20 0xFFFFFFFFFFFFFFFFFFFFFFFFFFFFFFFFFFFFFFFF AND EQ PUSH2 0x14B9 JUMPI PUSH1 0x40 MLOAD PUSH32 0x8C379A000000000000000000000000000000000000000000000000000000000 DUP2 MSTORE PUSH1 0x4 ADD PUSH2 0x14B0 SWAP1 PUSH2 0x295D JUMP JUMPDEST PUSH1 0x40 MLOAD DUP1 SWAP2 SUB SWAP1 REVERT JUMPDEST DUP1 PUSH1 0x4 DUP2 SWAP1 SSTORE POP POP JUMP JUMPDEST PUSH1 0x0 PUSH1 0x7 DUP1 SLOAD SWAP1 POP SWAP1 POP PUSH1 0x0 JUMPDEST DUP2 DUP2 LT ISZERO PUSH2 0x14F2 JUMPI PUSH2 0x14E1 DUP2 PUSH2 0x1159 JUMP JUMPDEST DUP1 PUSH2 0x14EB SWAP1 PUSH2 0x2D41 JUMP JUMPDEST SWAP1 POP PUSH2 0x14D0 JUMP JUMPDEST POP POP JUMP JUMPDEST PUSH2 0x14FE PUSH2 0x1D91 JUMP JUMPDEST PUSH20 0xFFFFFFFFFFFFFFFFFFFFFFFFFFFFFFFFFFFFFFFF AND PUSH2 0x151C PUSH2 0x16B6 JUMP JUMPDEST PUSH20 0xFFFFFFFFFFFFFFFFFFFFFFFFFFFFFFFFFFFFFFFF AND EQ PUSH2 0x1572 JUMPI PUSH1 0x40 MLOAD PUSH32 0x8C379A000000000000000000000000000000000000000000000000000000000 DUP2 MSTORE PUSH1 0x4 ADD PUSH2 0x1569 SWAP1 PUSH2 0x295D JUMP JUMPDEST PUSH1 0x40 MLOAD DUP1 SWAP2 SUB SWAP1 REVERT JUMPDEST DUP1 ISZERO PUSH2 0x1581 JUMPI PUSH2 0x1580 PUSH2 0x14C3 JUMP JUMPDEST JUMPDEST PUSH2 0x15CD DUP3 PUSH2 0x15BF PUSH1 0x7 DUP7 DUP2 SLOAD DUP2 LT PUSH2 0x159C JUMPI PUSH2 0x159B PUSH2 0x2DE8 JUMP JUMPDEST JUMPDEST SWAP1 PUSH1 0x0 MSTORE PUSH1 0x20 PUSH1 0x0 KECCAK256 SWAP1 PUSH1 0x4 MUL ADD PUSH1 0x1 ADD SLOAD PUSH1 0x9 SLOAD PUSH2 0x1D47 SWAP1 SWAP2 SWAP1 PUSH4 0xFFFFFFFF AND JUMP JUMPDEST PUSH2 0x1D99 SWAP1 SWAP2 SWAP1 PUSH4 0xFFFFFFFF AND JUMP JUMPDEST PUSH1 0x9 DUP2 SWAP1 SSTORE POP DUP2 PUSH1 0x7 DUP5 DUP2 SLOAD DUP2 LT PUSH2 0x15E8 JUMPI PUSH2 0x15E7 PUSH2 0x2DE8 JUMP JUMPDEST JUMPDEST SWAP1 PUSH1 0x0 MSTORE PUSH1 0x20 PUSH1 0x0 KECCAK256 SWAP1 PUSH1 0x4 MUL ADD PUSH1 0x1 ADD DUP2 SWAP1 SSTORE POP POP POP POP JUMP JUMPDEST PUSH2 0x160A PUSH2 0x1D91 JUMP JUMPDEST PUSH20 0xFFFFFFFFFFFFFFFFFFFFFFFFFFFFFFFFFFFFFFFF AND PUSH2 0x1628 PUSH2 0x16B6 JUMP JUMPDEST PUSH20 0xFFFFFFFFFFFFFFFFFFFFFFFFFFFFFFFFFFFFFFFF AND EQ PUSH2 0x167E JUMPI PUSH1 0x40 MLOAD PUSH32 0x8C379A000000000000000000000000000000000000000000000000000000000 DUP2 MSTORE PUSH1 0x4 ADD PUSH2 0x1675 SWAP1 PUSH2 0x295D JUMP JUMPDEST PUSH1 0x40 MLOAD DUP1 SWAP2 SUB SWAP1 REVERT JUMPDEST PUSH2 0x1688 PUSH1 0x0 PUSH2 0x2019 JUMP JUMPDEST JUMP JUMPDEST PUSH1 0x6 PUSH1 0x0 SWAP1 SLOAD SWAP1 PUSH2 0x100 EXP SWAP1 DIV PUSH20 0xFFFFFFFFFFFFFFFFFFFFFFFFFFFFFFFFFFFFFFFF AND DUP2 JUMP JUMPDEST PUSH1 0x5 SLOAD DUP2 JUMP JUMPDEST PUSH1 0x0 DUP1 PUSH1 0x0 SWAP1 SLOAD SWAP1 PUSH2 0x100 EXP SWAP1 DIV PUSH20 0xFFFFFFFFFFFFFFFFFFFFFFFFFFFFFFFFFFFFFFFF AND SWAP1 POP SWAP1 JUMP JUMPDEST PUSH1 0x0 PUSH2 0x1708 PUSH1 0x5 SLOAD PUSH2 0x16FA DUP6 DUP6 PUSH2 0x1D47 SWAP1 SWAP2 SWAP1 PUSH4 0xFFFFFFFF AND JUMP JUMPDEST PUSH2 0x1C82 SWAP1 SWAP2 SWAP1 PUSH4 0xFFFFFFFF AND JUMP JUMPDEST SWAP1 POP SWAP3 SWAP2 POP POP JUMP JUMPDEST PUSH1 0x8 PUSH1 0x20 MSTORE DUP2 PUSH1 0x0 MSTORE PUSH1 0x40 PUSH1 0x0 KECCAK256 PUSH1 0x20 MSTORE DUP1 PUSH1 0x0 MSTORE PUSH1 0x40 PUSH1 0x0 KECCAK256 PUSH1 0x0 SWAP2 POP SWAP2 POP POP DUP1 PUSH1 0x1 ADD SLOAD SWAP1 DUP1 PUSH1 0x2 ADD SLOAD SWAP1 POP DUP3 JUMP JUMPDEST PUSH1 0x2 PUSH1 0x0 SWAP1 SLOAD SWAP1 PUSH2 0x100 EXP SWAP1 DIV PUSH20 0xFFFFFFFFFFFFFFFFFFFFFFFFFFFFFFFFFFFFFFFF AND DUP2 JUMP JUMPDEST PUSH2 0x176F PUSH2 0x1D91 JUMP JUMPDEST PUSH20 0xFFFFFFFFFFFFFFFFFFFFFFFFFFFFFFFFFFFFFFFF AND PUSH2 0x178D PUSH2 0x16B6 JUMP JUMPDEST PUSH20 0xFFFFFFFFFFFFFFFFFFFFFFFFFFFFFFFFFFFFFFFF AND EQ PUSH2 0x17E3 JUMPI PUSH1 0x40 MLOAD PUSH32 0x8C379A000000000000000000000000000000000000000000000000000000000 DUP2 MSTORE PUSH1 0x4 ADD PUSH2 0x17DA SWAP1 PUSH2 0x295D JUMP JUMPDEST PUSH1 0x40 MLOAD DUP1 SWAP2 SUB SWAP1 REVERT JUMPDEST DUP1 PUSH1 0x3 PUSH1 0x0 PUSH2 0x100 EXP DUP2 SLOAD DUP2 PUSH20 0xFFFFFFFFFFFFFFFFFFFFFFFFFFFFFFFFFFFFFFFF MUL NOT AND SWAP1 DUP4 PUSH20 0xFFFFFFFFFFFFFFFFFFFFFFFFFFFFFFFFFFFFFFFF AND MUL OR SWAP1 SSTORE POP POP JUMP JUMPDEST PUSH1 0x3 PUSH1 0x0 SWAP1 SLOAD SWAP1 PUSH2 0x100 EXP SWAP1 DIV PUSH20 0xFFFFFFFFFFFFFFFFFFFFFFFFFFFFFFFFFFFFFFFF AND DUP2 JUMP JUMPDEST PUSH1 0x60 PUSH1 0x0 PUSH1 0x8 PUSH1 0x0 DUP6 DUP2 MSTORE PUSH1 0x20 ADD SWAP1 DUP2 MSTORE PUSH1 0x20 ADD PUSH1 0x0 KECCAK256 PUSH1 0x0 DUP5 PUSH20 0xFFFFFFFFFFFFFFFFFFFFFFFFFFFFFFFFFFFFFFFF AND PUSH20 0xFFFFFFFFFFFFFFFFFFFFFFFFFFFFFFFFFFFFFFFF AND DUP2 MSTORE PUSH1 0x20 ADD SWAP1 DUP2 MSTORE PUSH1 0x20 ADD PUSH1 0x0 KECCAK256 SWAP1 POP DUP1 PUSH1 0x0 ADD DUP1 SLOAD DUP1 PUSH1 0x20 MUL PUSH1 0x20 ADD PUSH1 0x40 MLOAD SWAP1 DUP2 ADD PUSH1 0x40 MSTORE DUP1 SWAP3 SWAP2 SWAP1 DUP2 DUP2 MSTORE PUSH1 0x20 ADD DUP3 DUP1 SLOAD DUP1 ISZERO PUSH2 0x18F1 JUMPI PUSH1 0x20 MUL DUP3 ADD SWAP2 SWAP1 PUSH1 0x0 MSTORE PUSH1 0x20 PUSH1 0x0 KECCAK256 SWAP1 JUMPDEST DUP2 SLOAD DUP2 MSTORE PUSH1 0x20 ADD SWAP1 PUSH1 0x1 ADD SWAP1 DUP1 DUP4 GT PUSH2 0x18DD JUMPI JUMPDEST POP POP POP POP POP SWAP2 POP POP SWAP3 SWAP2 POP POP JUMP JUMPDEST PUSH1 0x0 PUSH1 0x7 DUP4 DUP2 SLOAD DUP2 LT PUSH2 0x1915 JUMPI PUSH2 0x1914 PUSH2 0x2DE8 JUMP JUMPDEST JUMPDEST SWAP1 PUSH1 0x0 MSTORE PUSH1 0x20 PUSH1 0x0 KECCAK256 SWAP1 PUSH1 0x4 MUL ADD SWAP1 POP PUSH1 0x0 PUSH1 0x8 PUSH1 0x0 DUP6 DUP2 MSTORE PUSH1 0x20 ADD SWAP1 DUP2 MSTORE PUSH1 0x20 ADD PUSH1 0x0 KECCAK256 PUSH1 0x0 CALLER PUSH20 0xFFFFFFFFFFFFFFFFFFFFFFFFFFFFFFFFFFFFFFFF AND PUSH20 0xFFFFFFFFFFFFFFFFFFFFFFFFFFFFFFFFFFFFFFFF AND DUP2 MSTORE PUSH1 0x20 ADD SWAP1 DUP2 MSTORE PUSH1 0x20 ADD PUSH1 0x0 KECCAK256 SWAP1 POP PUSH2 0x1982 DUP5 PUSH2 0x1159 JUMP JUMPDEST PUSH1 0x0 DUP2 PUSH1 0x1 ADD SLOAD GT ISZERO PUSH2 0x19F1 JUMPI PUSH1 0x0 PUSH2 0x19D9 DUP3 PUSH1 0x2 ADD SLOAD PUSH2 0x19CB PUSH5 0xE8D4A51000 PUSH2 0x19BD DUP8 PUSH1 0x3 ADD SLOAD DUP8 PUSH1 0x1 ADD SLOAD PUSH2 0x1C82 SWAP1 SWAP2 SWAP1 PUSH4 0xFFFFFFFF AND JUMP JUMPDEST PUSH2 0x1CFD SWAP1 SWAP2 SWAP1 PUSH4 0xFFFFFFFF AND JUMP JUMPDEST PUSH2 0x1D47 SWAP1 SWAP2 SWAP1 PUSH4 0xFFFFFFFF AND JUMP JUMPDEST SWAP1 POP PUSH1 0x0 DUP2 GT ISZERO PUSH2 0x19EF JUMPI PUSH2 0x19EE CALLER DUP3 PUSH2 0x1DF7 JUMP JUMPDEST JUMPDEST POP JUMPDEST DUP2 PUSH1 0x0 ADD PUSH1 0x0 SWAP1 SLOAD SWAP1 PUSH2 0x100 EXP SWAP1 DIV PUSH20 0xFFFFFFFFFFFFFFFFFFFFFFFFFFFFFFFFFFFFFFFF AND PUSH20 0xFFFFFFFFFFFFFFFFFFFFFFFFFFFFFFFFFFFFFFFF AND PUSH4 0x42842E0E CALLER ADDRESS DUP7 PUSH1 0x40 MLOAD DUP5 PUSH4 0xFFFFFFFF AND PUSH1 0xE0 SHL DUP2 MSTORE PUSH1 0x4 ADD PUSH2 0x1A52 SWAP4 SWAP3 SWAP2 SWAP1 PUSH2 0x2768 JUMP JUMPDEST PUSH1 0x0 PUSH1 0x40 MLOAD DUP1 DUP4 SUB DUP2 PUSH1 0x0 DUP8 DUP1 EXTCODESIZE ISZERO DUP1 ISZERO PUSH2 0x1A6C JUMPI PUSH1 0x0 DUP1 REVERT JUMPDEST POP GAS CALL ISZERO DUP1 ISZERO PUSH2 0x1A80 JUMPI RETURNDATASIZE PUSH1 0x0 DUP1 RETURNDATACOPY RETURNDATASIZE PUSH1 0x0 REVERT JUMPDEST POP POP POP POP PUSH2 0x1A9C PUSH1 0x1 DUP3 PUSH1 0x1 ADD SLOAD PUSH2 0x1D99 SWAP1 SWAP2 SWAP1 PUSH4 0xFFFFFFFF AND JUMP JUMPDEST DUP2 PUSH1 0x1 ADD DUP2 SWAP1 SSTORE POP PUSH2 0x1AD6 PUSH5 0xE8D4A51000 PUSH2 0x1AC8 DUP5 PUSH1 0x3 ADD SLOAD DUP5 PUSH1 0x1 ADD SLOAD PUSH2 0x1C82 SWAP1 SWAP2 SWAP1 PUSH4 0xFFFFFFFF AND JUMP JUMPDEST PUSH2 0x1CFD SWAP1 SWAP2 SWAP1 PUSH4 0xFFFFFFFF AND JUMP JUMPDEST DUP2 PUSH1 0x2 ADD DUP2 SWAP1 SSTORE POP DUP1 PUSH1 0x0 ADD DUP4 SWAP1 DUP1 PUSH1 0x1 DUP2 SLOAD ADD DUP1 DUP3 SSTORE DUP1 SWAP2 POP POP PUSH1 0x1 SWAP1 SUB SWAP1 PUSH1 0x0 MSTORE PUSH1 0x20 PUSH1 0x0 KECCAK256 ADD PUSH1 0x0 SWAP1 SWAP2 SWAP1 SWAP2 SWAP1 SWAP2 POP SSTORE DUP4 CALLER PUSH20 0xFFFFFFFFFFFFFFFFFFFFFFFFFFFFFFFFFFFFFFFF AND PUSH32 0x90890809C654F11D6E72A28FA60149770A0D11EC6C92319D6CEB2BB0A4EA1A15 DUP6 PUSH1 0x40 MLOAD PUSH2 0x1B50 SWAP2 SWAP1 PUSH2 0x299D JUMP JUMPDEST PUSH1 0x40 MLOAD DUP1 SWAP2 SUB SWAP1 LOG3 POP POP POP POP JUMP JUMPDEST PUSH1 0x1 PUSH1 0x0 SWAP1 SLOAD SWAP1 PUSH2 0x100 EXP SWAP1 DIV PUSH20 0xFFFFFFFFFFFFFFFFFFFFFFFFFFFFFFFFFFFFFFFF AND DUP2 JUMP JUMPDEST PUSH2 0x1B8C PUSH2 0x1D91 JUMP JUMPDEST PUSH20 0xFFFFFFFFFFFFFFFFFFFFFFFFFFFFFFFFFFFFFFFF AND PUSH2 0x1BAA PUSH2 0x16B6 JUMP JUMPDEST PUSH20 0xFFFFFFFFFFFFFFFFFFFFFFFFFFFFFFFFFFFFFFFF AND EQ PUSH2 0x1C00 JUMPI PUSH1 0x40 MLOAD PUSH32 0x8C379A000000000000000000000000000000000000000000000000000000000 DUP2 MSTORE PUSH1 0x4 ADD PUSH2 0x1BF7 SWAP1 PUSH2 0x295D JUMP JUMPDEST PUSH1 0x40 MLOAD DUP1 SWAP2 SUB SWAP1 REVERT JUMPDEST PUSH1 0x0 PUSH20 0xFFFFFFFFFFFFFFFFFFFFFFFFFFFFFFFFFFFFFFFF AND DUP2 PUSH20 0xFFFFFFFFFFFFFFFFFFFFFFFFFFFFFFFFFFFFFFFF AND EQ ISZERO PUSH2 0x1C70 JUMPI PUSH1 0x40 MLOAD PUSH32 0x8C379A000000000000000000000000000000000000000000000000000000000 DUP2 MSTORE PUSH1 0x4 ADD PUSH2 0x1C67 SWAP1 PUSH2 0x28BD JUMP JUMPDEST PUSH1 0x40 MLOAD DUP1 SWAP2 SUB SWAP1 REVERT JUMPDEST PUSH2 0x1C79 DUP2 PUSH2 0x2019 JUMP JUMPDEST POP JUMP JUMPDEST PUSH1 0x4 SLOAD DUP2 JUMP JUMPDEST PUSH1 0x0 DUP1 DUP4 EQ ISZERO PUSH2 0x1C95 JUMPI PUSH1 0x0 SWAP1 POP PUSH2 0x1CF7 JUMP JUMPDEST PUSH1 0x0 DUP3 DUP5 PUSH2 0x1CA3 SWAP2 SWAP1 PUSH2 0x2B3C JUMP JUMPDEST SWAP1 POP DUP3 DUP5 DUP3 PUSH2 0x1CB2 SWAP2 SWAP1 PUSH2 0x2B0B JUMP JUMPDEST EQ PUSH2 0x1CF2 JUMPI PUSH1 0x40 MLOAD PUSH32 0x8C379A000000000000000000000000000000000000000000000000000000000 DUP2 MSTORE PUSH1 0x4 ADD PUSH2 0x1CE9 SWAP1 PUSH2 0x293D JUMP JUMPDEST PUSH1 0x40 MLOAD DUP1 SWAP2 SUB SWAP1 REVERT JUMPDEST DUP1 SWAP2 POP POP JUMPDEST SWAP3 SWAP2 POP POP JUMP JUMPDEST PUSH1 0x0 PUSH2 0x1D3F DUP4 DUP4 PUSH1 0x40 MLOAD DUP1 PUSH1 0x40 ADD PUSH1 0x40 MSTORE DUP1 PUSH1 0x1A DUP2 MSTORE PUSH1 0x20 ADD PUSH32 0x536166654D6174683A206469766973696F6E206279207A65726F000000000000 DUP2 MSTORE POP PUSH2 0x20DD JUMP JUMPDEST SWAP1 POP SWAP3 SWAP2 POP POP JUMP JUMPDEST PUSH1 0x0 PUSH2 0x1D89 DUP4 DUP4 PUSH1 0x40 MLOAD DUP1 PUSH1 0x40 ADD PUSH1 0x40 MSTORE DUP1 PUSH1 0x1E DUP2 MSTORE PUSH1 0x20 ADD PUSH32 0x536166654D6174683A207375627472616374696F6E206F766572666C6F770000 DUP2 MSTORE POP PUSH2 0x2140 JUMP JUMPDEST SWAP1 POP SWAP3 SWAP2 POP POP JUMP JUMPDEST PUSH1 0x0 CALLER SWAP1 POP SWAP1 JUMP JUMPDEST PUSH1 0x0 DUP1 DUP3 DUP5 PUSH2 0x1DA8 SWAP2 SWAP1 PUSH2 0x2AB5 JUMP JUMPDEST SWAP1 POP DUP4 DUP2 LT ISZERO PUSH2 0x1DED JUMPI PUSH1 0x40 MLOAD PUSH32 0x8C379A000000000000000000000000000000000000000000000000000000000 DUP2 MSTORE PUSH1 0x4 ADD PUSH2 0x1DE4 SWAP1 PUSH2 0x28DD JUMP JUMPDEST PUSH1 0x40 MLOAD DUP1 SWAP2 SUB SWAP1 REVERT JUMPDEST DUP1 SWAP2 POP POP SWAP3 SWAP2 POP POP JUMP JUMPDEST PUSH1 0x0 PUSH1 0x2 PUSH1 0x0 SWAP1 SLOAD SWAP1 PUSH2 0x100 EXP SWAP1 DIV PUSH20 0xFFFFFFFFFFFFFFFFFFFFFFFFFFFFFFFFFFFFFFFF AND PUSH20 0xFFFFFFFFFFFFFFFFFFFFFFFFFFFFFFFFFFFFFFFF AND PUSH4 0x70A08231 ADDRESS PUSH1 0x40 MLOAD DUP3 PUSH4 0xFFFFFFFF AND PUSH1 0xE0 SHL DUP2 MSTORE PUSH1 0x4 ADD PUSH2 0x1E54 SWAP2 SWAP1 PUSH2 0x274D JUMP JUMPDEST PUSH1 0x20 PUSH1 0x40 MLOAD DUP1 DUP4 SUB DUP2 DUP7 DUP1 EXTCODESIZE ISZERO DUP1 ISZERO PUSH2 0x1E6C JUMPI PUSH1 0x0 DUP1 REVERT JUMPDEST POP GAS STATICCALL ISZERO DUP1 ISZERO PUSH2 0x1E80 JUMPI RETURNDATASIZE PUSH1 0x0 DUP1 RETURNDATACOPY RETURNDATASIZE PUSH1 0x0 REVERT JUMPDEST POP POP POP POP PUSH1 0x40 MLOAD RETURNDATASIZE PUSH1 0x1F NOT PUSH1 0x1F DUP3 ADD AND DUP3 ADD DUP1 PUSH1 0x40 MSTORE POP DUP2 ADD SWAP1 PUSH2 0x1EA4 SWAP2 SWAP1 PUSH2 0x23DE JUMP JUMPDEST SWAP1 POP DUP1 DUP3 GT ISZERO PUSH2 0x1F63 JUMPI PUSH1 0x2 PUSH1 0x0 SWAP1 SLOAD SWAP1 PUSH2 0x100 EXP SWAP1 DIV PUSH20 0xFFFFFFFFFFFFFFFFFFFFFFFFFFFFFFFFFFFFFFFF AND PUSH20 0xFFFFFFFFFFFFFFFFFFFFFFFFFFFFFFFFFFFFFFFF AND PUSH4 0xA9059CBB DUP5 DUP4 PUSH1 0x40 MLOAD DUP4 PUSH4 0xFFFFFFFF AND PUSH1 0xE0 SHL DUP2 MSTORE PUSH1 0x4 ADD PUSH2 0x1F0B SWAP3 SWAP2 SWAP1 PUSH2 0x279F JUMP JUMPDEST PUSH1 0x20 PUSH1 0x40 MLOAD DUP1 DUP4 SUB DUP2 PUSH1 0x0 DUP8 DUP1 EXTCODESIZE ISZERO DUP1 ISZERO PUSH2 0x1F25 JUMPI PUSH1 0x0 DUP1 REVERT JUMPDEST POP GAS CALL ISZERO DUP1 ISZERO PUSH2 0x1F39 JUMPI RETURNDATASIZE PUSH1 0x0 DUP1 RETURNDATACOPY RETURNDATASIZE PUSH1 0x0 REVERT JUMPDEST POP POP POP POP PUSH1 0x40 MLOAD RETURNDATASIZE PUSH1 0x1F NOT PUSH1 0x1F DUP3 ADD AND DUP3 ADD DUP1 PUSH1 0x40 MSTORE POP DUP2 ADD SWAP1 PUSH2 0x1F5D SWAP2 SWAP1 PUSH2 0x2357 JUMP JUMPDEST POP PUSH2 0x2014 JUMP JUMPDEST PUSH1 0x2 PUSH1 0x0 SWAP1 SLOAD SWAP1 PUSH2 0x100 EXP SWAP1 DIV PUSH20 0xFFFFFFFFFFFFFFFFFFFFFFFFFFFFFFFFFFFFFFFF AND PUSH20 0xFFFFFFFFFFFFFFFFFFFFFFFFFFFFFFFFFFFFFFFF AND PUSH4 0xA9059CBB DUP5 DUP5 PUSH1 0x40 MLOAD DUP4 PUSH4 0xFFFFFFFF AND PUSH1 0xE0 SHL DUP2 MSTORE PUSH1 0x4 ADD PUSH2 0x1FC0 SWAP3 SWAP2 SWAP1 PUSH2 0x279F JUMP JUMPDEST PUSH1 0x20 PUSH1 0x40 MLOAD DUP1 DUP4 SUB DUP2 PUSH1 0x0 DUP8 DUP1 EXTCODESIZE ISZERO DUP1 ISZERO PUSH2 0x1FDA JUMPI PUSH1 0x0 DUP1 REVERT JUMPDEST POP GAS CALL ISZERO DUP1 ISZERO PUSH2 0x1FEE JUMPI RETURNDATASIZE PUSH1 0x0 DUP1 RETURNDATACOPY RETURNDATASIZE PUSH1 0x0 REVERT JUMPDEST POP POP POP POP PUSH1 0x40 MLOAD RETURNDATASIZE PUSH1 0x1F NOT PUSH1 0x1F DUP3 ADD AND DUP3 ADD DUP1 PUSH1 0x40 MSTORE POP DUP2 ADD SWAP1 PUSH2 0x2012 SWAP2 SWAP1 PUSH2 0x2357 JUMP JUMPDEST POP JUMPDEST POP POP POP JUMP JUMPDEST PUSH1 0x0 DUP1 PUSH1 0x0 SWAP1 SLOAD SWAP1 PUSH2 0x100 EXP SWAP1 DIV PUSH20 0xFFFFFFFFFFFFFFFFFFFFFFFFFFFFFFFFFFFFFFFF AND SWAP1 POP DUP2 PUSH1 0x0 DUP1 PUSH2 0x100 EXP DUP2 SLOAD DUP2 PUSH20 0xFFFFFFFFFFFFFFFFFFFFFFFFFFFFFFFFFFFFFFFF MUL NOT AND SWAP1 DUP4 PUSH20 0xFFFFFFFFFFFFFFFFFFFFFFFFFFFFFFFFFFFFFFFF AND MUL OR SWAP1 SSTORE POP DUP2 PUSH20 0xFFFFFFFFFFFFFFFFFFFFFFFFFFFFFFFFFFFFFFFF AND DUP2 PUSH20 0xFFFFFFFFFFFFFFFFFFFFFFFFFFFFFFFFFFFFFFFF AND PUSH32 0x8BE0079C531659141344CD1FD0A4F28419497F9722A3DAAFE3B4186F6B6457E0 PUSH1 0x40 MLOAD PUSH1 0x40 MLOAD DUP1 SWAP2 SUB SWAP1 LOG3 POP POP JUMP JUMPDEST PUSH1 0x0 DUP1 DUP4 GT DUP3 SWAP1 PUSH2 0x2124 JUMPI PUSH1 0x40 MLOAD PUSH32 0x8C379A000000000000000000000000000000000000000000000000000000000 DUP2 MSTORE PUSH1 0x4 ADD PUSH2 0x211B SWAP2 SWAP1 PUSH2 0x289B JUMP JUMPDEST PUSH1 0x40 MLOAD DUP1 SWAP2 SUB SWAP1 REVERT JUMPDEST POP PUSH1 0x0 DUP4 DUP6 PUSH2 0x2133 SWAP2 SWAP1 PUSH2 0x2B0B JUMP JUMPDEST SWAP1 POP DUP1 SWAP2 POP POP SWAP4 SWAP3 POP POP POP JUMP JUMPDEST PUSH1 0x0 DUP4 DUP4 GT ISZERO DUP3 SWAP1 PUSH2 0x2188 JUMPI PUSH1 0x40 MLOAD PUSH32 0x8C379A000000000000000000000000000000000000000000000000000000000 DUP2 MSTORE PUSH1 0x4 ADD PUSH2 0x217F SWAP2 SWAP1 PUSH2 0x289B JUMP JUMPDEST PUSH1 0x40 MLOAD DUP1 SWAP2 SUB SWAP1 REVERT JUMPDEST POP PUSH1 0x0 DUP4 DUP6 PUSH2 0x2197 SWAP2 SWAP1 PUSH2 0x2B96 JUMP JUMPDEST SWAP1 POP DUP1 SWAP2 POP POP SWAP4 SWAP3 POP POP POP JUMP JUMPDEST PUSH1 0x0 PUSH2 0x21B7 PUSH2 0x21B2 DUP5 PUSH2 0x2A2F JUMP JUMPDEST PUSH2 0x2A0A JUMP JUMPDEST SWAP1 POP DUP3 DUP2 MSTORE PUSH1 0x20 DUP2 ADD DUP5 DUP5 DUP5 ADD GT ISZERO PUSH2 0x21D3 JUMPI PUSH2 0x21D2 PUSH2 0x2E4B JUMP JUMPDEST JUMPDEST PUSH2 0x21DE DUP5 DUP3 DUP6 PUSH2 0x2CCE JUMP JUMPDEST POP SWAP4 SWAP3 POP POP POP JUMP JUMPDEST PUSH1 0x0 DUP2 CALLDATALOAD SWAP1 POP PUSH2 0x21F5 DUP2 PUSH2 0x2FD6 JUMP JUMPDEST SWAP3 SWAP2 POP POP JUMP JUMPDEST PUSH1 0x0 DUP2 CALLDATALOAD SWAP1 POP PUSH2 0x220A DUP2 PUSH2 0x2FED JUMP JUMPDEST SWAP3 SWAP2 POP POP JUMP JUMPDEST PUSH1 0x0 DUP2 MLOAD SWAP1 POP PUSH2 0x221F DUP2 PUSH2 0x2FED JUMP JUMPDEST SWAP3 SWAP2 POP POP JUMP JUMPDEST PUSH1 0x0 DUP3 PUSH1 0x1F DUP4 ADD SLT PUSH2 0x223A JUMPI PUSH2 0x2239 PUSH2 0x2E46 JUMP JUMPDEST JUMPDEST DUP2 CALLDATALOAD PUSH2 0x224A DUP5 DUP3 PUSH1 0x20 DUP7 ADD PUSH2 0x21A4 JUMP JUMPDEST SWAP2 POP POP SWAP3 SWAP2 POP POP JUMP JUMPDEST PUSH1 0x0 DUP2 CALLDATALOAD SWAP1 POP PUSH2 0x2262 DUP2 PUSH2 0x3004 JUMP JUMPDEST SWAP3 SWAP2 POP POP JUMP JUMPDEST PUSH1 0x0 DUP2 CALLDATALOAD SWAP1 POP PUSH2 0x2277 DUP2 PUSH2 0x301B JUMP JUMPDEST SWAP3 SWAP2 POP POP JUMP JUMPDEST PUSH1 0x0 DUP2 CALLDATALOAD SWAP1 POP PUSH2 0x228C DUP2 PUSH2 0x3032 JUMP JUMPDEST SWAP3 SWAP2 POP POP JUMP JUMPDEST PUSH1 0x0 DUP2 MLOAD SWAP1 POP PUSH2 0x22A1 DUP2 PUSH2 0x3032 JUMP JUMPDEST SWAP3 SWAP2 POP POP JUMP JUMPDEST PUSH1 0x0 PUSH1 0x20 DUP3 DUP5 SUB SLT ISZERO PUSH2 0x22BD JUMPI PUSH2 0x22BC PUSH2 0x2E55 JUMP JUMPDEST JUMPDEST PUSH1 0x0 PUSH2 0x22CB DUP5 DUP3 DUP6 ADD PUSH2 0x21E6 JUMP JUMPDEST SWAP2 POP POP SWAP3 SWAP2 POP POP JUMP JUMPDEST PUSH1 0x0 DUP1 PUSH1 0x0 DUP1 PUSH1 0x80 DUP6 DUP8 SUB SLT ISZERO PUSH2 0x22EE JUMPI PUSH2 0x22ED PUSH2 0x2E55 JUMP JUMPDEST JUMPDEST PUSH1 0x0 PUSH2 0x22FC DUP8 DUP3 DUP9 ADD PUSH2 0x21E6 JUMP JUMPDEST SWAP5 POP POP PUSH1 0x20 PUSH2 0x230D DUP8 DUP3 DUP9 ADD PUSH2 0x21E6 JUMP JUMPDEST SWAP4 POP POP PUSH1 0x40 PUSH2 0x231E DUP8 DUP3 DUP9 ADD PUSH2 0x227D JUMP JUMPDEST SWAP3 POP POP PUSH1 0x60 DUP6 ADD CALLDATALOAD PUSH8 0xFFFFFFFFFFFFFFFF DUP2 GT ISZERO PUSH2 0x233F JUMPI PUSH2 0x233E PUSH2 0x2E50 JUMP JUMPDEST JUMPDEST PUSH2 0x234B DUP8 DUP3 DUP9 ADD PUSH2 0x2225 JUMP JUMPDEST SWAP2 POP POP SWAP3 SWAP6 SWAP2 SWAP5 POP SWAP3 POP JUMP JUMPDEST PUSH1 0x0 PUSH1 0x20 DUP3 DUP5 SUB SLT ISZERO PUSH2 0x236D JUMPI PUSH2 0x236C PUSH2 0x2E55 JUMP JUMPDEST JUMPDEST PUSH1 0x0 PUSH2 0x237B DUP5 DUP3 DUP6 ADD PUSH2 0x2210 JUMP JUMPDEST SWAP2 POP POP SWAP3 SWAP2 POP POP JUMP JUMPDEST PUSH1 0x0 PUSH1 0x20 DUP3 DUP5 SUB SLT ISZERO PUSH2 0x239A JUMPI PUSH2 0x2399 PUSH2 0x2E55 JUMP JUMPDEST JUMPDEST PUSH1 0x0 PUSH2 0x23A8 DUP5 DUP3 DUP6 ADD PUSH2 0x2268 JUMP JUMPDEST SWAP2 POP POP SWAP3 SWAP2 POP POP JUMP JUMPDEST PUSH1 0x0 PUSH1 0x20 DUP3 DUP5 SUB SLT ISZERO PUSH2 0x23C7 JUMPI PUSH2 0x23C6 PUSH2 0x2E55 JUMP JUMPDEST JUMPDEST PUSH1 0x0 PUSH2 0x23D5 DUP5 DUP3 DUP6 ADD PUSH2 0x227D JUMP JUMPDEST SWAP2 POP POP SWAP3 SWAP2 POP POP JUMP JUMPDEST PUSH1 0x0 PUSH1 0x20 DUP3 DUP5 SUB SLT ISZERO PUSH2 0x23F4 JUMPI PUSH2 0x23F3 PUSH2 0x2E55 JUMP JUMPDEST JUMPDEST PUSH1 0x0 PUSH2 0x2402 DUP5 DUP3 DUP6 ADD PUSH2 0x2292 JUMP JUMPDEST SWAP2 POP POP SWAP3 SWAP2 POP POP JUMP JUMPDEST PUSH1 0x0 DUP1 PUSH1 0x40 DUP4 DUP6 SUB SLT ISZERO PUSH2 0x2422 JUMPI PUSH2 0x2421 PUSH2 0x2E55 JUMP JUMPDEST JUMPDEST PUSH1 0x0 PUSH2 0x2430 DUP6 DUP3 DUP7 ADD PUSH2 0x227D JUMP JUMPDEST SWAP3 POP POP PUSH1 0x20 PUSH2 0x2441 DUP6 DUP3 DUP7 ADD PUSH2 0x21E6 JUMP JUMPDEST SWAP2 POP POP SWAP3 POP SWAP3 SWAP1 POP JUMP JUMPDEST PUSH1 0x0 DUP1 PUSH1 0x0 PUSH1 0x60 DUP5 DUP7 SUB SLT ISZERO PUSH2 0x2464 JUMPI PUSH2 0x2463 PUSH2 0x2E55 JUMP JUMPDEST JUMPDEST PUSH1 0x0 PUSH2 0x2472 DUP7 DUP3 DUP8 ADD PUSH2 0x227D JUMP JUMPDEST SWAP4 POP POP PUSH1 0x20 PUSH2 0x2483 DUP7 DUP3 DUP8 ADD PUSH2 0x2253 JUMP JUMPDEST SWAP3 POP POP PUSH1 0x40 PUSH2 0x2494 DUP7 DUP3 DUP8 ADD PUSH2 0x21FB JUMP JUMPDEST SWAP2 POP POP SWAP3 POP SWAP3 POP SWAP3 JUMP JUMPDEST PUSH1 0x0 DUP1 PUSH1 0x40 DUP4 DUP6 SUB SLT ISZERO PUSH2 0x24B5 JUMPI PUSH2 0x24B4 PUSH2 0x2E55 JUMP JUMPDEST JUMPDEST PUSH1 0x0 PUSH2 0x24C3 DUP6 DUP3 DUP7 ADD PUSH2 0x227D JUMP JUMPDEST SWAP3 POP POP PUSH1 0x20 PUSH2 0x24D4 DUP6 DUP3 DUP7 ADD PUSH2 0x227D JUMP JUMPDEST SWAP2 POP POP SWAP3 POP SWAP3 SWAP1 POP JUMP JUMPDEST PUSH1 0x0 DUP1 PUSH1 0x0 PUSH1 0x60 DUP5 DUP7 SUB SLT ISZERO PUSH2 0x24F7 JUMPI PUSH2 0x24F6 PUSH2 0x2E55 JUMP JUMPDEST JUMPDEST PUSH1 0x0 PUSH2 0x2505 DUP7 DUP3 DUP8 ADD PUSH2 0x227D JUMP JUMPDEST SWAP4 POP POP PUSH1 0x20 PUSH2 0x2516 DUP7 DUP3 DUP8 ADD PUSH2 0x227D JUMP JUMPDEST SWAP3 POP POP PUSH1 0x40 PUSH2 0x2527 DUP7 DUP3 DUP8 ADD PUSH2 0x21FB JUMP JUMPDEST SWAP2 POP POP SWAP3 POP SWAP3 POP SWAP3 JUMP JUMPDEST PUSH1 0x0 PUSH2 0x253D DUP4 DUP4 PUSH2 0x272F JUMP JUMPDEST PUSH1 0x20 DUP4 ADD SWAP1 POP SWAP3 SWAP2 POP POP JUMP JUMPDEST PUSH2 0x2552 DUP2 PUSH2 0x2BCA JUMP JUMPDEST DUP3 MSTORE POP POP JUMP JUMPDEST PUSH1 0x0 PUSH2 0x2563 DUP3 PUSH2 0x2A70 JUMP JUMPDEST PUSH2 0x256D DUP2 DUP6 PUSH2 0x2A93 JUMP JUMPDEST SWAP4 POP PUSH2 0x2578 DUP4 PUSH2 0x2A60 JUMP JUMPDEST DUP1 PUSH1 0x0 JUMPDEST DUP4 DUP2 LT ISZERO PUSH2 0x25A9 JUMPI DUP2 MLOAD PUSH2 0x2590 DUP9 DUP3 PUSH2 0x2531 JUMP JUMPDEST SWAP8 POP PUSH2 0x259B DUP4 PUSH2 0x2A86 JUMP JUMPDEST SWAP3 POP POP PUSH1 0x1 DUP2 ADD SWAP1 POP PUSH2 0x257C JUMP JUMPDEST POP DUP6 SWAP4 POP POP POP POP SWAP3 SWAP2 POP POP JUMP JUMPDEST PUSH2 0x25BF DUP2 PUSH2 0x2BE8 JUMP JUMPDEST DUP3 MSTORE POP POP JUMP JUMPDEST PUSH2 0x25CE DUP2 PUSH2 0x2C62 JUMP JUMPDEST DUP3 MSTORE POP POP JUMP JUMPDEST PUSH2 0x25DD DUP2 PUSH2 0x2C74 JUMP JUMPDEST DUP3 MSTORE POP POP JUMP JUMPDEST PUSH2 0x25EC DUP2 PUSH2 0x2C86 JUMP JUMPDEST DUP3 MSTORE POP POP JUMP JUMPDEST PUSH2 0x25FB DUP2 PUSH2 0x2C98 JUMP JUMPDEST DUP3 MSTORE POP POP JUMP JUMPDEST PUSH1 0x0 PUSH2 0x260C DUP3 PUSH2 0x2A7B JUMP JUMPDEST PUSH2 0x2616 DUP2 DUP6 PUSH2 0x2AA4 JUMP JUMPDEST SWAP4 POP PUSH2 0x2626 DUP2 DUP6 PUSH1 0x20 DUP7 ADD PUSH2 0x2CDD JUMP JUMPDEST PUSH2 0x262F DUP2 PUSH2 0x2E5A JUMP JUMPDEST DUP5 ADD SWAP2 POP POP SWAP3 SWAP2 POP POP JUMP JUMPDEST PUSH1 0x0 PUSH2 0x2647 PUSH1 0x26 DUP4 PUSH2 0x2AA4 JUMP JUMPDEST SWAP2 POP PUSH2 0x2652 DUP3 PUSH2 0x2E6B JUMP JUMPDEST PUSH1 0x40 DUP3 ADD SWAP1 POP SWAP2 SWAP1 POP JUMP JUMPDEST PUSH1 0x0 PUSH2 0x266A PUSH1 0x1B DUP4 PUSH2 0x2AA4 JUMP JUMPDEST SWAP2 POP PUSH2 0x2675 DUP3 PUSH2 0x2EBA JUMP JUMPDEST PUSH1 0x20 DUP3 ADD SWAP1 POP SWAP2 SWAP1 POP JUMP JUMPDEST PUSH1 0x0 PUSH2 0x268D PUSH1 0x1D DUP4 PUSH2 0x2AA4 JUMP JUMPDEST SWAP2 POP PUSH2 0x2698 DUP3 PUSH2 0x2EE3 JUMP JUMPDEST PUSH1 0x20 DUP3 ADD SWAP1 POP SWAP2 SWAP1 POP JUMP JUMPDEST PUSH1 0x0 PUSH2 0x26B0 PUSH1 0xE DUP4 PUSH2 0x2AA4 JUMP JUMPDEST SWAP2 POP PUSH2 0x26BB DUP3 PUSH2 0x2F0C JUMP JUMPDEST PUSH1 0x20 DUP3 ADD SWAP1 POP SWAP2 SWAP1 POP JUMP JUMPDEST PUSH1 0x0 PUSH2 0x26D3 PUSH1 0x21 DUP4 PUSH2 0x2AA4 JUMP JUMPDEST SWAP2 POP PUSH2 0x26DE DUP3 PUSH2 0x2F35 JUMP JUMPDEST PUSH1 0x40 DUP3 ADD SWAP1 POP SWAP2 SWAP1 POP JUMP JUMPDEST PUSH1 0x0 PUSH2 0x26F6 PUSH1 0x20 DUP4 PUSH2 0x2AA4 JUMP JUMPDEST SWAP2 POP PUSH2 0x2701 DUP3 PUSH2 0x2F84 JUMP JUMPDEST PUSH1 0x20 DUP3 ADD SWAP1 POP SWAP2 SWAP1 POP JUMP JUMPDEST PUSH1 0x0 PUSH2 0x2719 PUSH1 0x12 DUP4 PUSH2 0x2AA4 JUMP JUMPDEST SWAP2 POP PUSH2 0x2724 DUP3 PUSH2 0x2FAD JUMP JUMPDEST PUSH1 0x20 DUP3 ADD SWAP1 POP SWAP2 SWAP1 POP JUMP JUMPDEST PUSH2 0x2738 DUP2 PUSH2 0x2C58 JUMP JUMPDEST DUP3 MSTORE POP POP JUMP JUMPDEST PUSH2 0x2747 DUP2 PUSH2 0x2C58 JUMP JUMPDEST DUP3 MSTORE POP POP JUMP JUMPDEST PUSH1 0x0 PUSH1 0x20 DUP3 ADD SWAP1 POP PUSH2 0x2762 PUSH1 0x0 DUP4 ADD DUP5 PUSH2 0x2549 JUMP JUMPDEST SWAP3 SWAP2 POP POP JUMP JUMPDEST PUSH1 0x0 PUSH1 0x60 DUP3 ADD SWAP1 POP PUSH2 0x277D PUSH1 0x0 DUP4 ADD DUP7 PUSH2 0x2549 JUMP JUMPDEST PUSH2 0x278A PUSH1 0x20 DUP4 ADD DUP6 PUSH2 0x2549 JUMP JUMPDEST PUSH2 0x2797 PUSH1 0x40 DUP4 ADD DUP5 PUSH2 0x273E JUMP JUMPDEST SWAP5 SWAP4 POP POP POP POP JUMP JUMPDEST PUSH1 0x0 PUSH1 0x40 DUP3 ADD SWAP1 POP PUSH2 0x27B4 PUSH1 0x0 DUP4 ADD DUP6 PUSH2 0x2549 JUMP JUMPDEST PUSH2 0x27C1 PUSH1 0x20 DUP4 ADD DUP5 PUSH2 0x273E JUMP JUMPDEST SWAP4 SWAP3 POP POP POP JUMP JUMPDEST PUSH1 0x0 PUSH1 0x20 DUP3 ADD SWAP1 POP DUP2 DUP2 SUB PUSH1 0x0 DUP4 ADD MSTORE PUSH2 0x27E2 DUP2 DUP5 PUSH2 0x2558 JUMP JUMPDEST SWAP1 POP SWAP3 SWAP2 POP POP JUMP JUMPDEST PUSH1 0x0 PUSH1 0x20 DUP3 ADD SWAP1 POP PUSH2 0x27FF PUSH1 0x0 DUP4 ADD DUP5 PUSH2 0x25B6 JUMP JUMPDEST SWAP3 SWAP2 POP POP JUMP JUMPDEST PUSH1 0x0 PUSH1 0x20 DUP3 ADD SWAP1 POP PUSH2 0x281A PUSH1 0x0 DUP4 ADD DUP5 PUSH2 0x25C5 JUMP JUMPDEST SWAP3 SWAP2 POP POP JUMP JUMPDEST PUSH1 0x0 PUSH1 0x80 DUP3 ADD SWAP1 POP PUSH2 0x2835 PUSH1 0x0 DUP4 ADD DUP8 PUSH2 0x25D4 JUMP JUMPDEST PUSH2 0x2842 PUSH1 0x20 DUP4 ADD DUP7 PUSH2 0x273E JUMP JUMPDEST PUSH2 0x284F PUSH1 0x40 DUP4 ADD DUP6 PUSH2 0x273E JUMP JUMPDEST PUSH2 0x285C PUSH1 0x60 DUP4 ADD DUP5 PUSH2 0x273E JUMP JUMPDEST SWAP6 SWAP5 POP POP POP POP POP JUMP JUMPDEST PUSH1 0x0 PUSH1 0x20 DUP3 ADD SWAP1 POP PUSH2 0x287A PUSH1 0x0 DUP4 ADD DUP5 PUSH2 0x25E3 JUMP JUMPDEST SWAP3 SWAP2 POP POP JUMP JUMPDEST PUSH1 0x0 PUSH1 0x20 DUP3 ADD SWAP1 POP PUSH2 0x2895 PUSH1 0x0 DUP4 ADD DUP5 PUSH2 0x25F2 JUMP JUMPDEST SWAP3 SWAP2 POP POP JUMP JUMPDEST PUSH1 0x0 PUSH1 0x20 DUP3 ADD SWAP1 POP DUP2 DUP2 SUB PUSH1 0x0 DUP4 ADD MSTORE PUSH2 0x28B5 DUP2 DUP5 PUSH2 0x2601 JUMP JUMPDEST SWAP1 POP SWAP3 SWAP2 POP POP JUMP JUMPDEST PUSH1 0x0 PUSH1 0x20 DUP3 ADD SWAP1 POP DUP2 DUP2 SUB PUSH1 0x0 DUP4 ADD MSTORE PUSH2 0x28D6 DUP2 PUSH2 0x263A JUMP JUMPDEST SWAP1 POP SWAP2 SWAP1 POP JUMP JUMPDEST PUSH1 0x0 PUSH1 0x20 DUP3 ADD SWAP1 POP DUP2 DUP2 SUB PUSH1 0x0 DUP4 ADD MSTORE PUSH2 0x28F6 DUP2 PUSH2 0x265D JUMP JUMPDEST SWAP1 POP SWAP2 SWAP1 POP JUMP JUMPDEST PUSH1 0x0 PUSH1 0x20 DUP3 ADD SWAP1 POP DUP2 DUP2 SUB PUSH1 0x0 DUP4 ADD MSTORE PUSH2 0x2916 DUP2 PUSH2 0x2680 JUMP JUMPDEST SWAP1 POP SWAP2 SWAP1 POP JUMP JUMPDEST PUSH1 0x0 PUSH1 0x20 DUP3 ADD SWAP1 POP DUP2 DUP2 SUB PUSH1 0x0 DUP4 ADD MSTORE PUSH2 0x2936 DUP2 PUSH2 0x26A3 JUMP JUMPDEST SWAP1 POP SWAP2 SWAP1 POP JUMP JUMPDEST PUSH1 0x0 PUSH1 0x20 DUP3 ADD SWAP1 POP DUP2 DUP2 SUB PUSH1 0x0 DUP4 ADD MSTORE PUSH2 0x2956 DUP2 PUSH2 0x26C6 JUMP JUMPDEST SWAP1 POP SWAP2 SWAP1 POP JUMP JUMPDEST PUSH1 0x0 PUSH1 0x20 DUP3 ADD SWAP1 POP DUP2 DUP2 SUB PUSH1 0x0 DUP4 ADD MSTORE PUSH2 0x2976 DUP2 PUSH2 0x26E9 JUMP JUMPDEST SWAP1 POP SWAP2 SWAP1 POP JUMP JUMPDEST PUSH1 0x0 PUSH1 0x20 DUP3 ADD SWAP1 POP DUP2 DUP2 SUB PUSH1 0x0 DUP4 ADD MSTORE PUSH2 0x2996 DUP2 PUSH2 0x270C JUMP JUMPDEST SWAP1 POP SWAP2 SWAP1 POP JUMP JUMPDEST PUSH1 0x0 PUSH1 0x20 DUP3 ADD SWAP1 POP PUSH2 0x29B2 PUSH1 0x0 DUP4 ADD DUP5 PUSH2 0x273E JUMP JUMPDEST SWAP3 SWAP2 POP POP JUMP JUMPDEST PUSH1 0x0 PUSH1 0x40 DUP3 ADD SWAP1 POP PUSH2 0x29CD PUSH1 0x0 DUP4 ADD DUP6 PUSH2 0x273E JUMP JUMPDEST PUSH2 0x29DA PUSH1 0x20 DUP4 ADD DUP5 PUSH2 0x2549 JUMP JUMPDEST SWAP4 SWAP3 POP POP POP JUMP JUMPDEST PUSH1 0x0 PUSH1 0x40 DUP3 ADD SWAP1 POP PUSH2 0x29F6 PUSH1 0x0 DUP4 ADD DUP6 PUSH2 0x273E JUMP JUMPDEST PUSH2 0x2A03 PUSH1 0x20 DUP4 ADD DUP5 PUSH2 0x273E JUMP JUMPDEST SWAP4 SWAP3 POP POP POP JUMP JUMPDEST PUSH1 0x0 PUSH2 0x2A14 PUSH2 0x2A25 JUMP JUMPDEST SWAP1 POP PUSH2 0x2A20 DUP3 DUP3 PUSH2 0x2D10 JUMP JUMPDEST SWAP2 SWAP1 POP JUMP JUMPDEST PUSH1 0x0 PUSH1 0x40 MLOAD SWAP1 POP SWAP1 JUMP JUMPDEST PUSH1 0x0 PUSH8 0xFFFFFFFFFFFFFFFF DUP3 GT ISZERO PUSH2 0x2A4A JUMPI PUSH2 0x2A49 PUSH2 0x2E17 JUMP JUMPDEST JUMPDEST PUSH2 0x2A53 DUP3 PUSH2 0x2E5A JUMP JUMPDEST SWAP1 POP PUSH1 0x20 DUP2 ADD SWAP1 POP SWAP2 SWAP1 POP JUMP JUMPDEST PUSH1 0x0 DUP2 SWAP1 POP PUSH1 0x20 DUP3 ADD SWAP1 POP SWAP2 SWAP1 POP JUMP JUMPDEST PUSH1 0x0 DUP2 MLOAD SWAP1 POP SWAP2 SWAP1 POP JUMP JUMPDEST PUSH1 0x0 DUP2 MLOAD SWAP1 POP SWAP2 SWAP1 POP JUMP JUMPDEST PUSH1 0x0 PUSH1 0x20 DUP3 ADD SWAP1 POP SWAP2 SWAP1 POP JUMP JUMPDEST PUSH1 0x0 DUP3 DUP3 MSTORE PUSH1 0x20 DUP3 ADD SWAP1 POP SWAP3 SWAP2 POP POP JUMP JUMPDEST PUSH1 0x0 DUP3 DUP3 MSTORE PUSH1 0x20 DUP3 ADD SWAP1 POP SWAP3 SWAP2 POP POP JUMP JUMPDEST PUSH1 0x0 PUSH2 0x2AC0 DUP3 PUSH2 0x2C58 JUMP JUMPDEST SWAP2 POP PUSH2 0x2ACB DUP4 PUSH2 0x2C58 JUMP JUMPDEST SWAP3 POP DUP3 PUSH32 0xFFFFFFFFFFFFFFFFFFFFFFFFFFFFFFFFFFFFFFFFFFFFFFFFFFFFFFFFFFFFFFFF SUB DUP3 GT ISZERO PUSH2 0x2B00 JUMPI PUSH2 0x2AFF PUSH2 0x2D8A JUMP JUMPDEST JUMPDEST DUP3 DUP3 ADD SWAP1 POP SWAP3 SWAP2 POP POP JUMP JUMPDEST PUSH1 0x0 PUSH2 0x2B16 DUP3 PUSH2 0x2C58 JUMP JUMPDEST SWAP2 POP PUSH2 0x2B21 DUP4 PUSH2 0x2C58 JUMP JUMPDEST SWAP3 POP DUP3 PUSH2 0x2B31 JUMPI PUSH2 0x2B30 PUSH2 0x2DB9 JUMP JUMPDEST JUMPDEST DUP3 DUP3 DIV SWAP1 POP SWAP3 SWAP2 POP POP JUMP JUMPDEST PUSH1 0x0 PUSH2 0x2B47 DUP3 PUSH2 0x2C58 JUMP JUMPDEST SWAP2 POP PUSH2 0x2B52 DUP4 PUSH2 0x2C58 JUMP JUMPDEST SWAP3 POP DUP2 PUSH32 0xFFFFFFFFFFFFFFFFFFFFFFFFFFFFFFFFFFFFFFFFFFFFFFFFFFFFFFFFFFFFFFFF DIV DUP4 GT DUP3 ISZERO ISZERO AND ISZERO PUSH2 0x2B8B JUMPI PUSH2 0x2B8A PUSH2 0x2D8A JUMP JUMPDEST JUMPDEST DUP3 DUP3 MUL SWAP1 POP SWAP3 SWAP2 POP POP JUMP JUMPDEST PUSH1 0x0 PUSH2 0x2BA1 DUP3 PUSH2 0x2C58 JUMP JUMPDEST SWAP2 POP PUSH2 0x2BAC DUP4 PUSH2 0x2C58 JUMP JUMPDEST SWAP3 POP DUP3 DUP3 LT ISZERO PUSH2 0x2BBF JUMPI PUSH2 0x2BBE PUSH2 0x2D8A JUMP JUMPDEST JUMPDEST DUP3 DUP3 SUB SWAP1 POP SWAP3 SWAP2 POP POP JUMP JUMPDEST PUSH1 0x0 PUSH2 0x2BD5 DUP3 PUSH2 0x2C38 JUMP JUMPDEST SWAP1 POP SWAP2 SWAP1 POP JUMP JUMPDEST PUSH1 0x0 DUP2 ISZERO ISZERO SWAP1 POP SWAP2 SWAP1 POP JUMP JUMPDEST PUSH1 0x0 PUSH32 0xFFFFFFFF00000000000000000000000000000000000000000000000000000000 DUP3 AND SWAP1 POP SWAP2 SWAP1 POP JUMP JUMPDEST PUSH1 0x0 PUSH2 0x2C1F DUP3 PUSH2 0x2BCA JUMP JUMPDEST SWAP1 POP SWAP2 SWAP1 POP JUMP JUMPDEST PUSH1 0x0 PUSH2 0x2C31 DUP3 PUSH2 0x2BCA JUMP JUMPDEST SWAP1 POP SWAP2 SWAP1 POP JUMP JUMPDEST PUSH1 0x0 PUSH20 0xFFFFFFFFFFFFFFFFFFFFFFFFFFFFFFFFFFFFFFFF DUP3 AND SWAP1 POP SWAP2 SWAP1 POP JUMP JUMPDEST PUSH1 0x0 DUP2 SWAP1 POP SWAP2 SWAP1 POP JUMP JUMPDEST PUSH1 0x0 PUSH2 0x2C6D DUP3 PUSH2 0x2CAA JUMP JUMPDEST SWAP1 POP SWAP2 SWAP1 POP JUMP JUMPDEST PUSH1 0x0 PUSH2 0x2C7F DUP3 PUSH2 0x2CAA JUMP JUMPDEST SWAP1 POP SWAP2 SWAP1 POP JUMP JUMPDEST PUSH1 0x0 PUSH2 0x2C91 DUP3 PUSH2 0x2CAA JUMP JUMPDEST SWAP1 POP SWAP2 SWAP1 POP JUMP JUMPDEST PUSH1 0x0 PUSH2 0x2CA3 DUP3 PUSH2 0x2CAA JUMP JUMPDEST SWAP1 POP SWAP2 SWAP1 POP JUMP JUMPDEST PUSH1 0x0 PUSH2 0x2CB5 DUP3 PUSH2 0x2CBC JUMP JUMPDEST SWAP1 POP SWAP2 SWAP1 POP JUMP JUMPDEST PUSH1 0x0 PUSH2 0x2CC7 DUP3 PUSH2 0x2C38 JUMP JUMPDEST SWAP1 POP SWAP2 SWAP1 POP JUMP JUMPDEST DUP3 DUP2 DUP4 CALLDATACOPY PUSH1 0x0 DUP4 DUP4 ADD MSTORE POP POP POP JUMP JUMPDEST PUSH1 0x0 JUMPDEST DUP4 DUP2 LT ISZERO PUSH2 0x2CFB JUMPI DUP1 DUP3 ADD MLOAD DUP2 DUP5 ADD MSTORE PUSH1 0x20 DUP2 ADD SWAP1 POP PUSH2 0x2CE0 JUMP JUMPDEST DUP4 DUP2 GT ISZERO PUSH2 0x2D0A JUMPI PUSH1 0x0 DUP5 DUP5 ADD MSTORE JUMPDEST POP POP POP POP JUMP JUMPDEST PUSH2 0x2D19 DUP3 PUSH2 0x2E5A JUMP JUMPDEST DUP2 ADD DUP2 DUP2 LT PUSH8 0xFFFFFFFFFFFFFFFF DUP3 GT OR ISZERO PUSH2 0x2D38 JUMPI PUSH2 0x2D37 PUSH2 0x2E17 JUMP JUMPDEST JUMPDEST DUP1 PUSH1 0x40 MSTORE POP POP POP JUMP JUMPDEST PUSH1 0x0 PUSH2 0x2D4C DUP3 PUSH2 0x2C58 JUMP JUMPDEST SWAP2 POP PUSH32 0xFFFFFFFFFFFFFFFFFFFFFFFFFFFFFFFFFFFFFFFFFFFFFFFFFFFFFFFFFFFFFFFF DUP3 EQ ISZERO PUSH2 0x2D7F JUMPI PUSH2 0x2D7E PUSH2 0x2D8A JUMP JUMPDEST JUMPDEST PUSH1 0x1 DUP3 ADD SWAP1 POP SWAP2 SWAP1 POP JUMP JUMPDEST PUSH32 0x4E487B7100000000000000000000000000000000000000000000000000000000 PUSH1 0x0 MSTORE PUSH1 0x11 PUSH1 0x4 MSTORE PUSH1 0x24 PUSH1 0x0 REVERT JUMPDEST PUSH32 0x4E487B7100000000000000000000000000000000000000000000000000000000 PUSH1 0x0 MSTORE PUSH1 0x12 PUSH1 0x4 MSTORE PUSH1 0x24 PUSH1 0x0 REVERT JUMPDEST PUSH32 0x4E487B7100000000000000000000000000000000000000000000000000000000 PUSH1 0x0 MSTORE PUSH1 0x32 PUSH1 0x4 MSTORE PUSH1 0x24 PUSH1 0x0 REVERT JUMPDEST PUSH32 0x4E487B7100000000000000000000000000000000000000000000000000000000 PUSH1 0x0 MSTORE PUSH1 0x41 PUSH1 0x4 MSTORE PUSH1 0x24 PUSH1 0x0 REVERT JUMPDEST PUSH1 0x0 DUP1 REVERT JUMPDEST PUSH1 0x0 DUP1 REVERT JUMPDEST PUSH1 0x0 DUP1 REVERT JUMPDEST PUSH1 0x0 DUP1 REVERT JUMPDEST PUSH1 0x0 PUSH1 0x1F NOT PUSH1 0x1F DUP4 ADD AND SWAP1 POP SWAP2 SWAP1 POP JUMP JUMPDEST PUSH32 0x4F776E61626C653A206E6577206F776E657220697320746865207A65726F2061 PUSH1 0x0 DUP3 ADD MSTORE PUSH32 0x6464726573730000000000000000000000000000000000000000000000000000 PUSH1 0x20 DUP3 ADD MSTORE POP JUMP JUMPDEST PUSH32 0x536166654D6174683A206164646974696F6E206F766572666C6F770000000000 PUSH1 0x0 DUP3 ADD MSTORE POP JUMP JUMPDEST PUSH32 0x596F7520617265206E6F74204F776E6572206F6620746F6B656E206964000000 PUSH1 0x0 DUP3 ADD MSTORE POP JUMP JUMPDEST PUSH32 0x416D6F756E74206973207A65726F000000000000000000000000000000000000 PUSH1 0x0 DUP3 ADD MSTORE POP JUMP JUMPDEST PUSH32 0x536166654D6174683A206D756C7469706C69636174696F6E206F766572666C6F PUSH1 0x0 DUP3 ADD MSTORE PUSH32 0x7700000000000000000000000000000000000000000000000000000000000000 PUSH1 0x20 DUP3 ADD MSTORE POP JUMP JUMPDEST PUSH32 0x4F776E61626C653A2063616C6C6572206973206E6F7420746865206F776E6572 PUSH1 0x0 DUP3 ADD MSTORE POP JUMP JUMPDEST PUSH32 0x77697468647261773A206E6F7420676F6F640000000000000000000000000000 PUSH1 0x0 DUP3 ADD MSTORE POP JUMP JUMPDEST PUSH2 0x2FDF DUP2 PUSH2 0x2BCA JUMP JUMPDEST DUP2 EQ PUSH2 0x2FEA JUMPI PUSH1 0x0 DUP1 REVERT JUMPDEST POP JUMP JUMPDEST PUSH2 0x2FF6 DUP2 PUSH2 0x2BDC JUMP JUMPDEST DUP2 EQ PUSH2 0x3001 JUMPI PUSH1 0x0 DUP1 REVERT JUMPDEST POP JUMP JUMPDEST PUSH2 0x300D DUP2 PUSH2 0x2C14 JUMP JUMPDEST DUP2 EQ PUSH2 0x3018 JUMPI PUSH1 0x0 DUP1 REVERT JUMPDEST POP JUMP JUMPDEST PUSH2 0x3024 DUP2 PUSH2 0x2C26 JUMP JUMPDEST DUP2 EQ PUSH2 0x302F JUMPI PUSH1 0x0 DUP1 REVERT JUMPDEST POP JUMP JUMPDEST PUSH2 0x303B DUP2 PUSH2 0x2C58 JUMP JUMPDEST DUP2 EQ PUSH2 0x3046 JUMPI PUSH1 0x0 DUP1 REVERT JUMPDEST POP JUMP INVALID LOG2 PUSH5 0x6970667358 0x22 SLT KECCAK256 0xA7 0x2C 0xBA 0xB6 PUSH6 0xD9A92CF46EB3 PUSH7 0x633AED30A1397D 0xA9 0x25 0x1E 0xCC CHAINID SWAP6 0xD8 0x49 PUSH11 0xF98368C64736F6C634300 ADDMOD SMOD STOP CALLER "
				},
				"gasEstimates": {
					"creation": {
						"codeDepositCost": "2483000",
						"executionCost": "infinite",
						"totalCost": "infinite"
					},
					"external": {
						"BONUS_MULTIPLIER()": "2474",
						"DDT()": "2645",
						"DDTPerBlock()": "2539",
						"NFTMasterChef()": "2666",
						"add(uint256,address,bool)": "infinite",
						"compundDDT(uint256)": "infinite",
						"deposit(uint256,uint256)": "infinite",
						"devaddr()": "2603",
						"getMultiplier(uint256,uint256)": "infinite",
						"getUserTokenIds(uint256,address)": "infinite",
						"massUpdatePools()": "infinite",
						"migrator()": "2690",
						"onERC721Received(address,address,uint256,bytes)": "infinite",
						"owner()": "2589",
						"pendingDDT(uint256,address)": "infinite",
						"poolInfo(uint256)": "infinite",
						"poolLength()": "2492",
						"renounceOwnership()": "30442",
						"set(uint256,uint256,bool)": "infinite",
						"setDevAddress(address)": "27029",
						"setMigrator(address)": "27051",
						"startBlock()": "2519",
						"totalAllocPoint()": "2497",
						"transferOwnership(address)": "30811",
						"updateDDTPerBlock(uint256)": "24849",
						"updateMultiplier(uint256)": "24827",
						"updatePool(uint256)": "infinite",
						"userInfo(uint256,address)": "infinite",
						"withdraw(uint256,uint256)": "infinite"
					},
					"internal": {
						"safeDDTTransfer(address,uint256)": "infinite"
					}
				},
				"methodIdentifiers": {
					"BONUS_MULTIPLIER()": "8aa28550",
					"DDT()": "cb3cba55",
					"DDTPerBlock()": "f395db2c",
					"NFTMasterChef()": "e4d09896",
					"add(uint256,address,bool)": "1eaaa045",
					"compundDDT(uint256)": "1395d8c9",
					"deposit(uint256,uint256)": "e2bbb158",
					"devaddr()": "d49e77cd",
					"getMultiplier(uint256,uint256)": "8dbb1e3a",
					"getUserTokenIds(uint256,address)": "d5545992",
					"massUpdatePools()": "630b5ba1",
					"migrator()": "7cd07e47",
					"onERC721Received(address,address,uint256,bytes)": "150b7a02",
					"owner()": "8da5cb5b",
					"pendingDDT(uint256,address)": "2080baab",
					"poolInfo(uint256)": "1526fe27",
					"poolLength()": "081e3eda",
					"renounceOwnership()": "715018a6",
					"set(uint256,uint256,bool)": "64482f79",
					"setDevAddress(address)": "d0d41fe1",
					"setMigrator(address)": "23cf3118",
					"startBlock()": "48cd4cb1",
					"totalAllocPoint()": "17caf6f1",
					"transferOwnership(address)": "f2fde38b",
					"updateDDTPerBlock(uint256)": "612eee43",
					"updateMultiplier(uint256)": "5ffe6146",
					"updatePool(uint256)": "51eb05a6",
					"userInfo(uint256,address)": "93f1a40b",
					"withdraw(uint256,uint256)": "441a3e70"
				}
			},
			"storageLayout": {
				"storage": [
					{
						"astId": 820,
						"contract": "contracts/NFTStake.sol:NFTStake",
						"label": "_owner",
						"offset": 0,
						"slot": "0",
						"type": "t_address"
					},
					{
						"astId": 1103,
						"contract": "contracts/NFTStake.sol:NFTStake",
						"label": "NFTMasterChef",
						"offset": 0,
						"slot": "1",
						"type": "t_contract(INFTMasterChef)1071"
					},
					{
						"astId": 1106,
						"contract": "contracts/NFTStake.sol:NFTStake",
						"label": "DDT",
						"offset": 0,
						"slot": "2",
						"type": "t_contract(IERC20)286"
					},
					{
						"astId": 1108,
						"contract": "contracts/NFTStake.sol:NFTStake",
						"label": "devaddr",
						"offset": 0,
						"slot": "3",
						"type": "t_address"
					},
					{
						"astId": 1110,
						"contract": "contracts/NFTStake.sol:NFTStake",
						"label": "DDTPerBlock",
						"offset": 0,
						"slot": "4",
						"type": "t_uint256"
					},
					{
						"astId": 1113,
						"contract": "contracts/NFTStake.sol:NFTStake",
						"label": "BONUS_MULTIPLIER",
						"offset": 0,
						"slot": "5",
						"type": "t_uint256"
					},
					{
						"astId": 1116,
						"contract": "contracts/NFTStake.sol:NFTStake",
						"label": "migrator",
						"offset": 0,
						"slot": "6",
						"type": "t_contract(IMigratorChef)927"
					},
					{
						"astId": 1120,
						"contract": "contracts/NFTStake.sol:NFTStake",
						"label": "poolInfo",
						"offset": 0,
						"slot": "7",
						"type": "t_array(t_struct(PoolInfo)1100_storage)dyn_storage"
					},
					{
						"astId": 1127,
						"contract": "contracts/NFTStake.sol:NFTStake",
						"label": "userInfo",
						"offset": 0,
						"slot": "8",
						"type": "t_mapping(t_uint256,t_mapping(t_address,t_struct(UserInfo)1090_storage))"
					},
					{
						"astId": 1130,
						"contract": "contracts/NFTStake.sol:NFTStake",
						"label": "totalAllocPoint",
						"offset": 0,
						"slot": "9",
						"type": "t_uint256"
					},
					{
						"astId": 1132,
						"contract": "contracts/NFTStake.sol:NFTStake",
						"label": "startBlock",
						"offset": 0,
						"slot": "10",
						"type": "t_uint256"
					}
				],
				"types": {
					"t_address": {
						"encoding": "inplace",
						"label": "address",
						"numberOfBytes": "20"
					},
					"t_array(t_struct(PoolInfo)1100_storage)dyn_storage": {
						"base": "t_struct(PoolInfo)1100_storage",
						"encoding": "dynamic_array",
						"label": "struct NFTStake.PoolInfo[]",
						"numberOfBytes": "32"
					},
					"t_array(t_uint256)dyn_storage": {
						"base": "t_uint256",
						"encoding": "dynamic_array",
						"label": "uint256[]",
						"numberOfBytes": "32"
					},
					"t_contract(IERC20)286": {
						"encoding": "inplace",
						"label": "contract IERC20",
						"numberOfBytes": "20"
					},
					"t_contract(IERC721)1048": {
						"encoding": "inplace",
						"label": "contract IERC721",
						"numberOfBytes": "20"
					},
					"t_contract(IMigratorChef)927": {
						"encoding": "inplace",
						"label": "contract IMigratorChef",
						"numberOfBytes": "20"
					},
					"t_contract(INFTMasterChef)1071": {
						"encoding": "inplace",
						"label": "contract INFTMasterChef",
						"numberOfBytes": "20"
					},
					"t_mapping(t_address,t_struct(UserInfo)1090_storage)": {
						"encoding": "mapping",
						"key": "t_address",
						"label": "mapping(address => struct NFTStake.UserInfo)",
						"numberOfBytes": "32",
						"value": "t_struct(UserInfo)1090_storage"
					},
					"t_mapping(t_uint256,t_mapping(t_address,t_struct(UserInfo)1090_storage))": {
						"encoding": "mapping",
						"key": "t_uint256",
						"label": "mapping(uint256 => mapping(address => struct NFTStake.UserInfo))",
						"numberOfBytes": "32",
						"value": "t_mapping(t_address,t_struct(UserInfo)1090_storage)"
					},
					"t_struct(PoolInfo)1100_storage": {
						"encoding": "inplace",
						"label": "struct NFTStake.PoolInfo",
						"members": [
							{
								"astId": 1093,
								"contract": "contracts/NFTStake.sol:NFTStake",
								"label": "NFTToken",
								"offset": 0,
								"slot": "0",
								"type": "t_contract(IERC721)1048"
							},
							{
								"astId": 1095,
								"contract": "contracts/NFTStake.sol:NFTStake",
								"label": "allocPoint",
								"offset": 0,
								"slot": "1",
								"type": "t_uint256"
							},
							{
								"astId": 1097,
								"contract": "contracts/NFTStake.sol:NFTStake",
								"label": "lastRewardBlock",
								"offset": 0,
								"slot": "2",
								"type": "t_uint256"
							},
							{
								"astId": 1099,
								"contract": "contracts/NFTStake.sol:NFTStake",
								"label": "accDDTPerShare",
								"offset": 0,
								"slot": "3",
								"type": "t_uint256"
							}
						],
						"numberOfBytes": "128"
					},
					"t_struct(UserInfo)1090_storage": {
						"encoding": "inplace",
						"label": "struct NFTStake.UserInfo",
						"members": [
							{
								"astId": 1085,
								"contract": "contracts/NFTStake.sol:NFTStake",
								"label": "tokenIds",
								"offset": 0,
								"slot": "0",
								"type": "t_array(t_uint256)dyn_storage"
							},
							{
								"astId": 1087,
								"contract": "contracts/NFTStake.sol:NFTStake",
								"label": "amount",
								"offset": 0,
								"slot": "1",
								"type": "t_uint256"
							},
							{
								"astId": 1089,
								"contract": "contracts/NFTStake.sol:NFTStake",
								"label": "rewardDebt",
								"offset": 0,
								"slot": "2",
								"type": "t_uint256"
							}
						],
						"numberOfBytes": "96"
					},
					"t_uint256": {
						"encoding": "inplace",
						"label": "uint256",
						"numberOfBytes": "32"
					}
				}
			},
			"userdoc": {
				"kind": "user",
				"methods": {
					"onERC721Received(address,address,uint256,bytes)": {
						"notice": "Always returns `IERC721Receiver.onERC721Received.selector`."
					}
				},
				"version": 1
			}
		}
	}
}