{
	"contracts/LpPrice.sol": {
		"LpUtils": {
			"abi": [
				{
					"inputs": [],
					"name": "BUSD",
					"outputs": [
						{
							"internalType": "address",
							"name": "",
							"type": "address"
						}
					],
					"stateMutability": "view",
					"type": "function"
				},
				{
					"inputs": [
						{
							"internalType": "contract IERC20",
							"name": "lpAddress",
							"type": "address"
						},
						{
							"internalType": "contract Router",
							"name": "routerAddress",
							"type": "address"
						},
						{
							"internalType": "address",
							"name": "busd",
							"type": "address"
						}
					],
					"name": "CalcLpPrice",
					"outputs": [
						{
							"internalType": "uint256",
							"name": "",
							"type": "uint256"
						}
					],
					"stateMutability": "view",
					"type": "function"
				},
				{
					"inputs": [],
					"name": "WBNB",
					"outputs": [
						{
							"internalType": "address",
							"name": "",
							"type": "address"
						}
					],
					"stateMutability": "view",
					"type": "function"
				},
				{
					"inputs": [
						{
							"internalType": "contract Router",
							"name": "routerAddress",
							"type": "address"
						},
						{
							"internalType": "address",
							"name": "token",
							"type": "address"
						}
					],
					"name": "price",
					"outputs": [
						{
							"internalType": "uint256",
							"name": "",
							"type": "uint256"
						}
					],
					"stateMutability": "view",
					"type": "function"
				},
				{
					"inputs": [
						{
							"internalType": "contract IERC20",
							"name": "lpAddress",
							"type": "address"
						}
					],
					"name": "token0",
					"outputs": [
						{
							"internalType": "address",
							"name": "",
							"type": "address"
						}
					],
					"stateMutability": "view",
					"type": "function"
				},
				{
					"inputs": [
						{
							"internalType": "contract IERC20",
							"name": "lpAddress",
							"type": "address"
						}
					],
					"name": "token1",
					"outputs": [
						{
							"internalType": "address",
							"name": "",
							"type": "address"
						}
					],
					"stateMutability": "view",
					"type": "function"
				},
				{
					"inputs": [
						{
							"internalType": "contract IERC20",
							"name": "lpAddress",
							"type": "address"
						}
					],
					"name": "totalSupply",
					"outputs": [
						{
							"internalType": "uint256",
							"name": "",
							"type": "uint256"
						}
					],
					"stateMutability": "view",
					"type": "function"
				}
			],
			"devdoc": {
				"kind": "dev",
				"methods": {},
				"version": 1
			},
			"evm": {
				"assembly": "    /* \"contracts/LpPrice.sol\":8846:9824  contract LpUtils {\r... */\n  mstore(0x40, 0x80)\n    /* \"contracts/LpPrice.sol\":8892:8934  0xae13d989daC2f0dEbFf460aC112a837C89BAa7cd */\n  0xae13d989dac2f0debff460ac112a837c89baa7cd\n    /* \"contracts/LpPrice.sol\":8870:8934  address public WBNB = 0xae13d989daC2f0dEbFf460aC112a837C89BAa7cd */\n  0x00\n  dup1\n  0x0100\n  exp\n  dup2\n  sload\n  dup2\n  0xffffffffffffffffffffffffffffffffffffffff\n  mul\n  not\n  and\n  swap1\n  dup4\n  0xffffffffffffffffffffffffffffffffffffffff\n  and\n  mul\n  or\n  swap1\n  sstore\n  pop\n    /* \"contracts/LpPrice.sol\":8963:9005  0x78867BbEeF44f2326bF8DDd1941a4439382EF2A7 */\n  0x78867bbeef44f2326bf8ddd1941a4439382ef2a7\n    /* \"contracts/LpPrice.sol\":8941:9005  address public BUSD = 0x78867BbEeF44f2326bF8DDd1941a4439382EF2A7 */\n  0x01\n  exp(0x0100, 0x00)\n  dup2\n  sload\n  dup2\n  0xffffffffffffffffffffffffffffffffffffffff\n  mul\n  not\n  and\n  swap1\n  dup4\n  0xffffffffffffffffffffffffffffffffffffffff\n  and\n  mul\n  or\n  swap1\n  sstore\n  pop\n    /* \"contracts/LpPrice.sol\":9029:9048  1000000000000000000 */\n  0x0de0b6b3a7640000\n    /* \"contracts/LpPrice.sol\":9012:9048  uint256 amount = 1000000000000000000 */\n  0x02\n  sstore\n    /* \"contracts/LpPrice.sol\":8846:9824  contract LpUtils {\r... */\n  callvalue\n  dup1\n  iszero\n  tag_1\n  jumpi\n  0x00\n  dup1\n  revert\ntag_1:\n  pop\n  dataSize(sub_0)\n  dup1\n  dataOffset(sub_0)\n  0x00\n  codecopy\n  0x00\n  return\nstop\n\nsub_0: assembly {\n        /* \"contracts/LpPrice.sol\":8846:9824  contract LpUtils {\r... */\n      mstore(0x40, 0x80)\n      callvalue\n      dup1\n      iszero\n      tag_1\n      jumpi\n      0x00\n      dup1\n      revert\n    tag_1:\n      pop\n      jumpi(tag_2, lt(calldatasize, 0x04))\n      shr(0xe0, calldataload(0x00))\n      dup1\n      0x484f4ea9\n      gt\n      tag_10\n      jumpi\n      dup1\n      0x484f4ea9\n      eq\n      tag_6\n      jumpi\n      dup1\n      0x76bf39a3\n      eq\n      tag_7\n      jumpi\n      dup1\n      0x8dd95002\n      eq\n      tag_8\n      jumpi\n      dup1\n      0xe4dc2aa4\n      eq\n      tag_9\n      jumpi\n      jump(tag_2)\n    tag_10:\n      dup1\n      0x20ae0b6d\n      eq\n      tag_3\n      jumpi\n      dup1\n      0x2b00490d\n      eq\n      tag_4\n      jumpi\n      dup1\n      0x37823795\n      eq\n      tag_5\n      jumpi\n    tag_2:\n      0x00\n      dup1\n      revert\n        /* \"contracts/LpPrice.sol\":9057:9180  function CalcLpPrice(IERC20 lpAddress, Router routerAddress, address busd) external view returns(uint256){\r... */\n    tag_3:\n      tag_11\n      0x04\n      dup1\n      calldatasize\n      sub\n      dup2\n      add\n      swap1\n      tag_12\n      swap2\n      swap1\n      tag_13\n      jump\t// in\n    tag_12:\n      tag_14\n      jump\t// in\n    tag_11:\n      mload(0x40)\n      tag_15\n      swap2\n      swap1\n      tag_16\n      jump\t// in\n    tag_15:\n      mload(0x40)\n      dup1\n      swap2\n      sub\n      swap1\n      return\n        /* \"contracts/LpPrice.sol\":9546:9821  function price(Router routerAddress, address token) external view returns(uint){\r... */\n    tag_4:\n      tag_17\n      0x04\n      dup1\n      calldatasize\n      sub\n      dup2\n      add\n      swap1\n      tag_18\n      swap2\n      swap1\n      tag_19\n      jump\t// in\n    tag_18:\n      tag_20\n      jump\t// in\n    tag_17:\n      mload(0x40)\n      tag_21\n      swap2\n      swap1\n      tag_16\n      jump\t// in\n    tag_21:\n      mload(0x40)\n      dup1\n      swap2\n      sub\n      swap1\n      return\n        /* \"contracts/LpPrice.sol\":9430:9538  function token1(IERC20 lpAddress) external view returns(address){\r... */\n    tag_5:\n      tag_22\n      0x04\n      dup1\n      calldatasize\n      sub\n      dup2\n      add\n      swap1\n      tag_23\n      swap2\n      swap1\n      tag_24\n      jump\t// in\n    tag_23:\n      tag_25\n      jump\t// in\n    tag_22:\n      mload(0x40)\n      tag_26\n      swap2\n      swap1\n      tag_27\n      jump\t// in\n    tag_26:\n      mload(0x40)\n      dup1\n      swap2\n      sub\n      swap1\n      return\n        /* \"contracts/LpPrice.sol\":8941:9005  address public BUSD = 0x78867BbEeF44f2326bF8DDd1941a4439382EF2A7 */\n    tag_6:\n      tag_28\n      tag_29\n      jump\t// in\n    tag_28:\n      mload(0x40)\n      tag_30\n      swap2\n      swap1\n      tag_27\n      jump\t// in\n    tag_30:\n      mload(0x40)\n      dup1\n      swap2\n      sub\n      swap1\n      return\n        /* \"contracts/LpPrice.sol\":9314:9422  function token0(IERC20 lpAddress) external view returns(address){\r... */\n    tag_7:\n      tag_31\n      0x04\n      dup1\n      calldatasize\n      sub\n      dup2\n      add\n      swap1\n      tag_32\n      swap2\n      swap1\n      tag_24\n      jump\t// in\n    tag_32:\n      tag_33\n      jump\t// in\n    tag_31:\n      mload(0x40)\n      tag_34\n      swap2\n      swap1\n      tag_27\n      jump\t// in\n    tag_34:\n      mload(0x40)\n      dup1\n      swap2\n      sub\n      swap1\n      return\n        /* \"contracts/LpPrice.sol\":8870:8934  address public WBNB = 0xae13d989daC2f0dEbFf460aC112a837C89BAa7cd */\n    tag_8:\n      tag_35\n      tag_36\n      jump\t// in\n    tag_35:\n      mload(0x40)\n      tag_37\n      swap2\n      swap1\n      tag_27\n      jump\t// in\n    tag_37:\n      mload(0x40)\n      dup1\n      swap2\n      sub\n      swap1\n      return\n        /* \"contracts/LpPrice.sol\":9188:9306  function totalSupply(IERC20 lpAddress) external view returns(uint256){\r... */\n    tag_9:\n      tag_38\n      0x04\n      dup1\n      calldatasize\n      sub\n      dup2\n      add\n      swap1\n      tag_39\n      swap2\n      swap1\n      tag_24\n      jump\t// in\n    tag_39:\n      tag_40\n      jump\t// in\n    tag_38:\n      mload(0x40)\n      tag_41\n      swap2\n      swap1\n      tag_16\n      jump\t// in\n    tag_41:\n      mload(0x40)\n      dup1\n      swap2\n      sub\n      swap1\n      return\n        /* \"contracts/LpPrice.sol\":9057:9180  function CalcLpPrice(IERC20 lpAddress, Router routerAddress, address busd) external view returns(uint256){\r... */\n    tag_14:\n        /* \"contracts/LpPrice.sol\":9154:9161  uint256 */\n      0x00\n        /* \"contracts/LpPrice.sol\":9057:9180  function CalcLpPrice(IERC20 lpAddress, Router routerAddress, address busd) external view returns(uint256){\r... */\n      swap4\n      swap3\n      pop\n      pop\n      pop\n      jump\t// out\n        /* \"contracts/LpPrice.sol\":9546:9821  function price(Router routerAddress, address token) external view returns(uint){\r... */\n    tag_20:\n        /* \"contracts/LpPrice.sol\":9620:9624  uint */\n      0x00\n        /* \"contracts/LpPrice.sol\":9636:9657  address[] memory path */\n      dup1\n        /* \"contracts/LpPrice.sol\":9674:9675  3 */\n      0x03\n        /* \"contracts/LpPrice.sol\":9660:9676  new address[](3) */\n      0xffffffffffffffff\n      dup2\n      gt\n      iszero\n      tag_44\n      jumpi\n      tag_45\n      tag_46\n      jump\t// in\n    tag_45:\n    tag_44:\n      mload(0x40)\n      swap1\n      dup1\n      dup3\n      mstore\n      dup1\n      0x20\n      mul\n      0x20\n      add\n      dup3\n      add\n      0x40\n      mstore\n      dup1\n      iszero\n      tag_47\n      jumpi\n      dup2\n      0x20\n      add\n      0x20\n      dup3\n      mul\n      dup1\n      calldatasize\n      dup4\n      calldatacopy\n      dup1\n      dup3\n      add\n      swap2\n      pop\n      pop\n      swap1\n      pop\n    tag_47:\n      pop\n        /* \"contracts/LpPrice.sol\":9636:9676  address[] memory path = new address[](3) */\n      swap1\n      pop\n        /* \"contracts/LpPrice.sol\":9697:9702  token */\n      dup3\n        /* \"contracts/LpPrice.sol\":9687:9691  path */\n      dup2\n        /* \"contracts/LpPrice.sol\":9692:9693  0 */\n      0x00\n        /* \"contracts/LpPrice.sol\":9687:9694  path[0] */\n      dup2\n      mload\n      dup2\n      lt\n      tag_48\n      jumpi\n      tag_49\n      tag_50\n      jump\t// in\n    tag_49:\n    tag_48:\n      0x20\n      mul\n      0x20\n      add\n      add\n        /* \"contracts/LpPrice.sol\":9687:9702  path[0] = token */\n      swap1\n      0xffffffffffffffffffffffffffffffffffffffff\n      and\n      swap1\n      dup2\n      0xffffffffffffffffffffffffffffffffffffffff\n      and\n      dup2\n      mstore\n      pop\n      pop\n        /* \"contracts/LpPrice.sol\":9723:9727  WBNB */\n      0x00\n      dup1\n      sload\n      swap1\n      0x0100\n      exp\n      swap1\n      div\n      0xffffffffffffffffffffffffffffffffffffffff\n      and\n        /* \"contracts/LpPrice.sol\":9713:9717  path */\n      dup2\n        /* \"contracts/LpPrice.sol\":9718:9719  1 */\n      0x01\n        /* \"contracts/LpPrice.sol\":9713:9720  path[1] */\n      dup2\n      mload\n      dup2\n      lt\n      tag_51\n      jumpi\n      tag_52\n      tag_50\n      jump\t// in\n    tag_52:\n    tag_51:\n      0x20\n      mul\n      0x20\n      add\n      add\n        /* \"contracts/LpPrice.sol\":9713:9727  path[1] = WBNB */\n      swap1\n      0xffffffffffffffffffffffffffffffffffffffff\n      and\n      swap1\n      dup2\n      0xffffffffffffffffffffffffffffffffffffffff\n      and\n      dup2\n      mstore\n      pop\n      pop\n        /* \"contracts/LpPrice.sol\":9748:9752  BUSD */\n      0x01\n      0x00\n      swap1\n      sload\n      swap1\n      0x0100\n      exp\n      swap1\n      div\n      0xffffffffffffffffffffffffffffffffffffffff\n      and\n        /* \"contracts/LpPrice.sol\":9738:9742  path */\n      dup2\n        /* \"contracts/LpPrice.sol\":9743:9744  2 */\n      0x02\n        /* \"contracts/LpPrice.sol\":9738:9745  path[2] */\n      dup2\n      mload\n      dup2\n      lt\n      tag_53\n      jumpi\n      tag_54\n      tag_50\n      jump\t// in\n    tag_54:\n    tag_53:\n      0x20\n      mul\n      0x20\n      add\n      add\n        /* \"contracts/LpPrice.sol\":9738:9752  path[2] = BUSD */\n      swap1\n      0xffffffffffffffffffffffffffffffffffffffff\n      and\n      swap1\n      dup2\n      0xffffffffffffffffffffffffffffffffffffffff\n      and\n      dup2\n      mstore\n      pop\n      pop\n        /* \"contracts/LpPrice.sol\":9770:9783  routerAddress */\n      dup4\n        /* \"contracts/LpPrice.sol\":9770:9797  routerAddress.getAmountsOut */\n      0xffffffffffffffffffffffffffffffffffffffff\n      and\n      0xd06ca61f\n        /* \"contracts/LpPrice.sol\":9798:9804  amount */\n      sload(0x02)\n        /* \"contracts/LpPrice.sol\":9805:9809  path */\n      dup4\n        /* \"contracts/LpPrice.sol\":9770:9810  routerAddress.getAmountsOut(amount,path) */\n      mload(0x40)\n      dup4\n      0xffffffff\n      and\n      0xe0\n      shl\n      dup2\n      mstore\n      0x04\n      add\n      tag_55\n      swap3\n      swap2\n      swap1\n      tag_56\n      jump\t// in\n    tag_55:\n      0x00\n      mload(0x40)\n      dup1\n      dup4\n      sub\n      dup2\n      dup7\n      dup1\n      extcodesize\n      iszero\n      dup1\n      iszero\n      tag_57\n      jumpi\n      0x00\n      dup1\n      revert\n    tag_57:\n      pop\n      gas\n      staticcall\n      iszero\n      dup1\n      iszero\n      tag_59\n      jumpi\n      returndatasize\n      0x00\n      dup1\n      returndatacopy\n      revert(0x00, returndatasize)\n    tag_59:\n      pop\n      pop\n      pop\n      pop\n      mload(0x40)\n      returndatasize\n      0x00\n      dup3\n      returndatacopy\n      returndatasize\n      not(0x1f)\n      0x1f\n      dup3\n      add\n      and\n      dup3\n      add\n      dup1\n      0x40\n      mstore\n      pop\n      dup2\n      add\n      swap1\n      tag_60\n      swap2\n      swap1\n      tag_61\n      jump\t// in\n    tag_60:\n        /* \"contracts/LpPrice.sol\":9811:9812  2 */\n      0x02\n        /* \"contracts/LpPrice.sol\":9770:9813  routerAddress.getAmountsOut(amount,path)[2] */\n      dup2\n      mload\n      dup2\n      lt\n      tag_62\n      jumpi\n      tag_63\n      tag_50\n      jump\t// in\n    tag_63:\n    tag_62:\n      0x20\n      mul\n      0x20\n      add\n      add\n      mload\n        /* \"contracts/LpPrice.sol\":9763:9813  return routerAddress.getAmountsOut(amount,path)[2] */\n      swap2\n      pop\n      pop\n        /* \"contracts/LpPrice.sol\":9546:9821  function price(Router routerAddress, address token) external view returns(uint){\r... */\n      swap3\n      swap2\n      pop\n      pop\n      jump\t// out\n        /* \"contracts/LpPrice.sol\":9430:9538  function token1(IERC20 lpAddress) external view returns(address){\r... */\n    tag_25:\n        /* \"contracts/LpPrice.sol\":9486:9493  address */\n      0x00\n        /* \"contracts/LpPrice.sol\":9512:9521  lpAddress */\n      dup2\n        /* \"contracts/LpPrice.sol\":9512:9528  lpAddress.token1 */\n      0xffffffffffffffffffffffffffffffffffffffff\n      and\n      0xd21220a7\n        /* \"contracts/LpPrice.sol\":9512:9530  lpAddress.token1() */\n      mload(0x40)\n      dup2\n      0xffffffff\n      and\n      0xe0\n      shl\n      dup2\n      mstore\n      0x04\n      add\n      0x20\n      mload(0x40)\n      dup1\n      dup4\n      sub\n      dup2\n      dup7\n      dup1\n      extcodesize\n      iszero\n      dup1\n      iszero\n      tag_65\n      jumpi\n      0x00\n      dup1\n      revert\n    tag_65:\n      pop\n      gas\n      staticcall\n      iszero\n      dup1\n      iszero\n      tag_67\n      jumpi\n      returndatasize\n      0x00\n      dup1\n      returndatacopy\n      revert(0x00, returndatasize)\n    tag_67:\n      pop\n      pop\n      pop\n      pop\n      mload(0x40)\n      returndatasize\n      not(0x1f)\n      0x1f\n      dup3\n      add\n      and\n      dup3\n      add\n      dup1\n      0x40\n      mstore\n      pop\n      dup2\n      add\n      swap1\n      tag_68\n      swap2\n      swap1\n      tag_69\n      jump\t// in\n    tag_68:\n        /* \"contracts/LpPrice.sol\":9505:9530  return lpAddress.token1() */\n      swap1\n      pop\n        /* \"contracts/LpPrice.sol\":9430:9538  function token1(IERC20 lpAddress) external view returns(address){\r... */\n      swap2\n      swap1\n      pop\n      jump\t// out\n        /* \"contracts/LpPrice.sol\":8941:9005  address public BUSD = 0x78867BbEeF44f2326bF8DDd1941a4439382EF2A7 */\n    tag_29:\n      0x01\n      0x00\n      swap1\n      sload\n      swap1\n      0x0100\n      exp\n      swap1\n      div\n      0xffffffffffffffffffffffffffffffffffffffff\n      and\n      dup2\n      jump\t// out\n        /* \"contracts/LpPrice.sol\":9314:9422  function token0(IERC20 lpAddress) external view returns(address){\r... */\n    tag_33:\n        /* \"contracts/LpPrice.sol\":9370:9377  address */\n      0x00\n        /* \"contracts/LpPrice.sol\":9396:9405  lpAddress */\n      dup2\n        /* \"contracts/LpPrice.sol\":9396:9412  lpAddress.token0 */\n      0xffffffffffffffffffffffffffffffffffffffff\n      and\n      0x0dfe1681\n        /* \"contracts/LpPrice.sol\":9396:9414  lpAddress.token0() */\n      mload(0x40)\n      dup2\n      0xffffffff\n      and\n      0xe0\n      shl\n      dup2\n      mstore\n      0x04\n      add\n      0x20\n      mload(0x40)\n      dup1\n      dup4\n      sub\n      dup2\n      dup7\n      dup1\n      extcodesize\n      iszero\n      dup1\n      iszero\n      tag_71\n      jumpi\n      0x00\n      dup1\n      revert\n    tag_71:\n      pop\n      gas\n      staticcall\n      iszero\n      dup1\n      iszero\n      tag_73\n      jumpi\n      returndatasize\n      0x00\n      dup1\n      returndatacopy\n      revert(0x00, returndatasize)\n    tag_73:\n      pop\n      pop\n      pop\n      pop\n      mload(0x40)\n      returndatasize\n      not(0x1f)\n      0x1f\n      dup3\n      add\n      and\n      dup3\n      add\n      dup1\n      0x40\n      mstore\n      pop\n      dup2\n      add\n      swap1\n      tag_74\n      swap2\n      swap1\n      tag_69\n      jump\t// in\n    tag_74:\n        /* \"contracts/LpPrice.sol\":9389:9414  return lpAddress.token0() */\n      swap1\n      pop\n        /* \"contracts/LpPrice.sol\":9314:9422  function token0(IERC20 lpAddress) external view returns(address){\r... */\n      swap2\n      swap1\n      pop\n      jump\t// out\n        /* \"contracts/LpPrice.sol\":8870:8934  address public WBNB = 0xae13d989daC2f0dEbFf460aC112a837C89BAa7cd */\n    tag_36:\n      0x00\n      dup1\n      sload\n      swap1\n      0x0100\n      exp\n      swap1\n      div\n      0xffffffffffffffffffffffffffffffffffffffff\n      and\n      dup2\n      jump\t// out\n        /* \"contracts/LpPrice.sol\":9188:9306  function totalSupply(IERC20 lpAddress) external view returns(uint256){\r... */\n    tag_40:\n        /* \"contracts/LpPrice.sol\":9249:9256  uint256 */\n      0x00\n        /* \"contracts/LpPrice.sol\":9275:9284  lpAddress */\n      dup2\n        /* \"contracts/LpPrice.sol\":9275:9296  lpAddress.totalSupply */\n      0xffffffffffffffffffffffffffffffffffffffff\n      and\n      0x18160ddd\n        /* \"contracts/LpPrice.sol\":9275:9298  lpAddress.totalSupply() */\n      mload(0x40)\n      dup2\n      0xffffffff\n      and\n      0xe0\n      shl\n      dup2\n      mstore\n      0x04\n      add\n      0x20\n      mload(0x40)\n      dup1\n      dup4\n      sub\n      dup2\n      dup7\n      dup1\n      extcodesize\n      iszero\n      dup1\n      iszero\n      tag_76\n      jumpi\n      0x00\n      dup1\n      revert\n    tag_76:\n      pop\n      gas\n      staticcall\n      iszero\n      dup1\n      iszero\n      tag_78\n      jumpi\n      returndatasize\n      0x00\n      dup1\n      returndatacopy\n      revert(0x00, returndatasize)\n    tag_78:\n      pop\n      pop\n      pop\n      pop\n      mload(0x40)\n      returndatasize\n      not(0x1f)\n      0x1f\n      dup3\n      add\n      and\n      dup3\n      add\n      dup1\n      0x40\n      mstore\n      pop\n      dup2\n      add\n      swap1\n      tag_79\n      swap2\n      swap1\n      tag_80\n      jump\t// in\n    tag_79:\n        /* \"contracts/LpPrice.sol\":9268:9298  return lpAddress.totalSupply() */\n      swap1\n      pop\n        /* \"contracts/LpPrice.sol\":9188:9306  function totalSupply(IERC20 lpAddress) external view returns(uint256){\r... */\n      swap2\n      swap1\n      pop\n      jump\t// out\n        /* \"#utility.yul\":24:768   */\n    tag_82:\n        /* \"#utility.yul\":131:136   */\n      0x00\n        /* \"#utility.yul\":156:237   */\n      tag_84\n        /* \"#utility.yul\":172:236   */\n      tag_85\n        /* \"#utility.yul\":229:235   */\n      dup5\n        /* \"#utility.yul\":172:236   */\n      tag_86\n      jump\t// in\n    tag_85:\n        /* \"#utility.yul\":156:237   */\n      tag_87\n      jump\t// in\n    tag_84:\n        /* \"#utility.yul\":147:237   */\n      swap1\n      pop\n        /* \"#utility.yul\":257:262   */\n      dup1\n        /* \"#utility.yul\":286:292   */\n      dup4\n        /* \"#utility.yul\":279:284   */\n      dup3\n        /* \"#utility.yul\":272:293   */\n      mstore\n        /* \"#utility.yul\":320:324   */\n      0x20\n        /* \"#utility.yul\":313:318   */\n      dup3\n        /* \"#utility.yul\":309:325   */\n      add\n        /* \"#utility.yul\":302:325   */\n      swap1\n      pop\n        /* \"#utility.yul\":346:352   */\n      dup3\n        /* \"#utility.yul\":396:399   */\n      dup6\n        /* \"#utility.yul\":388:392   */\n      0x20\n        /* \"#utility.yul\":380:386   */\n      dup7\n        /* \"#utility.yul\":376:393   */\n      mul\n        /* \"#utility.yul\":371:374   */\n      dup3\n        /* \"#utility.yul\":367:394   */\n      add\n        /* \"#utility.yul\":364:400   */\n      gt\n        /* \"#utility.yul\":361:504   */\n      iszero\n      tag_88\n      jumpi\n        /* \"#utility.yul\":415:494   */\n      tag_89\n      tag_90\n      jump\t// in\n    tag_89:\n        /* \"#utility.yul\":361:504   */\n    tag_88:\n        /* \"#utility.yul\":528:529   */\n      0x00\n        /* \"#utility.yul\":513:762   */\n    tag_91:\n        /* \"#utility.yul\":538:544   */\n      dup6\n        /* \"#utility.yul\":535:536   */\n      dup2\n        /* \"#utility.yul\":532:545   */\n      lt\n        /* \"#utility.yul\":513:762   */\n      iszero\n      tag_93\n      jumpi\n        /* \"#utility.yul\":606:609   */\n      dup2\n        /* \"#utility.yul\":635:683   */\n      tag_94\n        /* \"#utility.yul\":679:682   */\n      dup9\n        /* \"#utility.yul\":667:677   */\n      dup3\n        /* \"#utility.yul\":635:683   */\n      tag_95\n      jump\t// in\n    tag_94:\n        /* \"#utility.yul\":630:633   */\n      dup5\n        /* \"#utility.yul\":623:684   */\n      mstore\n        /* \"#utility.yul\":713:717   */\n      0x20\n        /* \"#utility.yul\":708:711   */\n      dup5\n        /* \"#utility.yul\":704:718   */\n      add\n        /* \"#utility.yul\":697:718   */\n      swap4\n      pop\n        /* \"#utility.yul\":747:751   */\n      0x20\n        /* \"#utility.yul\":742:745   */\n      dup4\n        /* \"#utility.yul\":738:752   */\n      add\n        /* \"#utility.yul\":731:752   */\n      swap3\n      pop\n        /* \"#utility.yul\":573:762   */\n      pop\n        /* \"#utility.yul\":560:561   */\n      0x01\n        /* \"#utility.yul\":557:558   */\n      dup2\n        /* \"#utility.yul\":553:562   */\n      add\n        /* \"#utility.yul\":548:562   */\n      swap1\n      pop\n        /* \"#utility.yul\":513:762   */\n      jump(tag_91)\n    tag_93:\n        /* \"#utility.yul\":517:531   */\n      pop\n        /* \"#utility.yul\":137:768   */\n      pop\n      pop\n        /* \"#utility.yul\":24:768   */\n      swap4\n      swap3\n      pop\n      pop\n      pop\n      jump\t// out\n        /* \"#utility.yul\":774:913   */\n    tag_96:\n        /* \"#utility.yul\":820:825   */\n      0x00\n        /* \"#utility.yul\":858:864   */\n      dup2\n        /* \"#utility.yul\":845:865   */\n      calldataload\n        /* \"#utility.yul\":836:865   */\n      swap1\n      pop\n        /* \"#utility.yul\":874:907   */\n      tag_98\n        /* \"#utility.yul\":901:906   */\n      dup2\n        /* \"#utility.yul\":874:907   */\n      tag_99\n      jump\t// in\n    tag_98:\n        /* \"#utility.yul\":774:913   */\n      swap3\n      swap2\n      pop\n      pop\n      jump\t// out\n        /* \"#utility.yul\":919:1062   */\n    tag_100:\n        /* \"#utility.yul\":976:981   */\n      0x00\n        /* \"#utility.yul\":1007:1013   */\n      dup2\n        /* \"#utility.yul\":1001:1014   */\n      mload\n        /* \"#utility.yul\":992:1014   */\n      swap1\n      pop\n        /* \"#utility.yul\":1023:1056   */\n      tag_102\n        /* \"#utility.yul\":1050:1055   */\n      dup2\n        /* \"#utility.yul\":1023:1056   */\n      tag_99\n      jump\t// in\n    tag_102:\n        /* \"#utility.yul\":919:1062   */\n      swap3\n      swap2\n      pop\n      pop\n      jump\t// out\n        /* \"#utility.yul\":1085:1470   */\n    tag_103:\n        /* \"#utility.yul\":1167:1172   */\n      0x00\n        /* \"#utility.yul\":1216:1219   */\n      dup3\n        /* \"#utility.yul\":1209:1213   */\n      0x1f\n        /* \"#utility.yul\":1201:1207   */\n      dup4\n        /* \"#utility.yul\":1197:1214   */\n      add\n        /* \"#utility.yul\":1193:1220   */\n      slt\n        /* \"#utility.yul\":1183:1305   */\n      tag_105\n      jumpi\n        /* \"#utility.yul\":1224:1303   */\n      tag_106\n      tag_107\n      jump\t// in\n    tag_106:\n        /* \"#utility.yul\":1183:1305   */\n    tag_105:\n        /* \"#utility.yul\":1334:1340   */\n      dup2\n        /* \"#utility.yul\":1328:1341   */\n      mload\n        /* \"#utility.yul\":1359:1464   */\n      tag_108\n        /* \"#utility.yul\":1460:1463   */\n      dup5\n        /* \"#utility.yul\":1452:1458   */\n      dup3\n        /* \"#utility.yul\":1445:1449   */\n      0x20\n        /* \"#utility.yul\":1437:1443   */\n      dup7\n        /* \"#utility.yul\":1433:1450   */\n      add\n        /* \"#utility.yul\":1359:1464   */\n      tag_82\n      jump\t// in\n    tag_108:\n        /* \"#utility.yul\":1350:1464   */\n      swap2\n      pop\n        /* \"#utility.yul\":1173:1470   */\n      pop\n        /* \"#utility.yul\":1085:1470   */\n      swap3\n      swap2\n      pop\n      pop\n      jump\t// out\n        /* \"#utility.yul\":1476:1641   */\n    tag_109:\n        /* \"#utility.yul\":1535:1540   */\n      0x00\n        /* \"#utility.yul\":1573:1579   */\n      dup2\n        /* \"#utility.yul\":1560:1580   */\n      calldataload\n        /* \"#utility.yul\":1551:1580   */\n      swap1\n      pop\n        /* \"#utility.yul\":1589:1635   */\n      tag_111\n        /* \"#utility.yul\":1629:1634   */\n      dup2\n        /* \"#utility.yul\":1589:1635   */\n      tag_112\n      jump\t// in\n    tag_111:\n        /* \"#utility.yul\":1476:1641   */\n      swap3\n      swap2\n      pop\n      pop\n      jump\t// out\n        /* \"#utility.yul\":1647:1814   */\n    tag_113:\n        /* \"#utility.yul\":1707:1712   */\n      0x00\n        /* \"#utility.yul\":1745:1751   */\n      dup2\n        /* \"#utility.yul\":1732:1752   */\n      calldataload\n        /* \"#utility.yul\":1723:1752   */\n      swap1\n      pop\n        /* \"#utility.yul\":1761:1808   */\n      tag_115\n        /* \"#utility.yul\":1802:1807   */\n      dup2\n        /* \"#utility.yul\":1761:1808   */\n      tag_116\n      jump\t// in\n    tag_115:\n        /* \"#utility.yul\":1647:1814   */\n      swap3\n      swap2\n      pop\n      pop\n      jump\t// out\n        /* \"#utility.yul\":1820:1963   */\n    tag_95:\n        /* \"#utility.yul\":1877:1882   */\n      0x00\n        /* \"#utility.yul\":1908:1914   */\n      dup2\n        /* \"#utility.yul\":1902:1915   */\n      mload\n        /* \"#utility.yul\":1893:1915   */\n      swap1\n      pop\n        /* \"#utility.yul\":1924:1957   */\n      tag_118\n        /* \"#utility.yul\":1951:1956   */\n      dup2\n        /* \"#utility.yul\":1924:1957   */\n      tag_119\n      jump\t// in\n    tag_118:\n        /* \"#utility.yul\":1820:1963   */\n      swap3\n      swap2\n      pop\n      pop\n      jump\t// out\n        /* \"#utility.yul\":1969:2320   */\n    tag_69:\n        /* \"#utility.yul\":2039:2045   */\n      0x00\n        /* \"#utility.yul\":2088:2090   */\n      0x20\n        /* \"#utility.yul\":2076:2085   */\n      dup3\n        /* \"#utility.yul\":2067:2074   */\n      dup5\n        /* \"#utility.yul\":2063:2086   */\n      sub\n        /* \"#utility.yul\":2059:2091   */\n      slt\n        /* \"#utility.yul\":2056:2175   */\n      iszero\n      tag_121\n      jumpi\n        /* \"#utility.yul\":2094:2173   */\n      tag_122\n      tag_123\n      jump\t// in\n    tag_122:\n        /* \"#utility.yul\":2056:2175   */\n    tag_121:\n        /* \"#utility.yul\":2214:2215   */\n      0x00\n        /* \"#utility.yul\":2239:2303   */\n      tag_124\n        /* \"#utility.yul\":2295:2302   */\n      dup5\n        /* \"#utility.yul\":2286:2292   */\n      dup3\n        /* \"#utility.yul\":2275:2284   */\n      dup6\n        /* \"#utility.yul\":2271:2293   */\n      add\n        /* \"#utility.yul\":2239:2303   */\n      tag_100\n      jump\t// in\n    tag_124:\n        /* \"#utility.yul\":2229:2303   */\n      swap2\n      pop\n        /* \"#utility.yul\":2185:2313   */\n      pop\n        /* \"#utility.yul\":1969:2320   */\n      swap3\n      swap2\n      pop\n      pop\n      jump\t// out\n        /* \"#utility.yul\":2326:2880   */\n    tag_61:\n        /* \"#utility.yul\":2421:2427   */\n      0x00\n        /* \"#utility.yul\":2470:2472   */\n      0x20\n        /* \"#utility.yul\":2458:2467   */\n      dup3\n        /* \"#utility.yul\":2449:2456   */\n      dup5\n        /* \"#utility.yul\":2445:2468   */\n      sub\n        /* \"#utility.yul\":2441:2473   */\n      slt\n        /* \"#utility.yul\":2438:2557   */\n      iszero\n      tag_126\n      jumpi\n        /* \"#utility.yul\":2476:2555   */\n      tag_127\n      tag_123\n      jump\t// in\n    tag_127:\n        /* \"#utility.yul\":2438:2557   */\n    tag_126:\n        /* \"#utility.yul\":2617:2618   */\n      0x00\n        /* \"#utility.yul\":2606:2615   */\n      dup3\n        /* \"#utility.yul\":2602:2619   */\n      add\n        /* \"#utility.yul\":2596:2620   */\n      mload\n        /* \"#utility.yul\":2647:2665   */\n      0xffffffffffffffff\n        /* \"#utility.yul\":2639:2645   */\n      dup2\n        /* \"#utility.yul\":2636:2666   */\n      gt\n        /* \"#utility.yul\":2633:2750   */\n      iszero\n      tag_128\n      jumpi\n        /* \"#utility.yul\":2669:2748   */\n      tag_129\n      tag_130\n      jump\t// in\n    tag_129:\n        /* \"#utility.yul\":2633:2750   */\n    tag_128:\n        /* \"#utility.yul\":2774:2863   */\n      tag_131\n        /* \"#utility.yul\":2855:2862   */\n      dup5\n        /* \"#utility.yul\":2846:2852   */\n      dup3\n        /* \"#utility.yul\":2835:2844   */\n      dup6\n        /* \"#utility.yul\":2831:2853   */\n      add\n        /* \"#utility.yul\":2774:2863   */\n      tag_103\n      jump\t// in\n    tag_131:\n        /* \"#utility.yul\":2764:2863   */\n      swap2\n      pop\n        /* \"#utility.yul\":2567:2873   */\n      pop\n        /* \"#utility.yul\":2326:2880   */\n      swap3\n      swap2\n      pop\n      pop\n      jump\t// out\n        /* \"#utility.yul\":2886:3241   */\n    tag_24:\n        /* \"#utility.yul\":2958:2964   */\n      0x00\n        /* \"#utility.yul\":3007:3009   */\n      0x20\n        /* \"#utility.yul\":2995:3004   */\n      dup3\n        /* \"#utility.yul\":2986:2993   */\n      dup5\n        /* \"#utility.yul\":2982:3005   */\n      sub\n        /* \"#utility.yul\":2978:3010   */\n      slt\n        /* \"#utility.yul\":2975:3094   */\n      iszero\n      tag_133\n      jumpi\n        /* \"#utility.yul\":3013:3092   */\n      tag_134\n      tag_123\n      jump\t// in\n    tag_134:\n        /* \"#utility.yul\":2975:3094   */\n    tag_133:\n        /* \"#utility.yul\":3133:3134   */\n      0x00\n        /* \"#utility.yul\":3158:3224   */\n      tag_135\n        /* \"#utility.yul\":3216:3223   */\n      dup5\n        /* \"#utility.yul\":3207:3213   */\n      dup3\n        /* \"#utility.yul\":3196:3205   */\n      dup6\n        /* \"#utility.yul\":3192:3214   */\n      add\n        /* \"#utility.yul\":3158:3224   */\n      tag_109\n      jump\t// in\n    tag_135:\n        /* \"#utility.yul\":3148:3224   */\n      swap2\n      pop\n        /* \"#utility.yul\":3104:3234   */\n      pop\n        /* \"#utility.yul\":2886:3241   */\n      swap3\n      swap2\n      pop\n      pop\n      jump\t// out\n        /* \"#utility.yul\":3247:3920   */\n    tag_13:\n        /* \"#utility.yul\":3351:3357   */\n      0x00\n        /* \"#utility.yul\":3359:3365   */\n      dup1\n        /* \"#utility.yul\":3367:3373   */\n      0x00\n        /* \"#utility.yul\":3416:3418   */\n      0x60\n        /* \"#utility.yul\":3404:3413   */\n      dup5\n        /* \"#utility.yul\":3395:3402   */\n      dup7\n        /* \"#utility.yul\":3391:3414   */\n      sub\n        /* \"#utility.yul\":3387:3419   */\n      slt\n        /* \"#utility.yul\":3384:3503   */\n      iszero\n      tag_137\n      jumpi\n        /* \"#utility.yul\":3422:3501   */\n      tag_138\n      tag_123\n      jump\t// in\n    tag_138:\n        /* \"#utility.yul\":3384:3503   */\n    tag_137:\n        /* \"#utility.yul\":3542:3543   */\n      0x00\n        /* \"#utility.yul\":3567:3633   */\n      tag_139\n        /* \"#utility.yul\":3625:3632   */\n      dup7\n        /* \"#utility.yul\":3616:3622   */\n      dup3\n        /* \"#utility.yul\":3605:3614   */\n      dup8\n        /* \"#utility.yul\":3601:3623   */\n      add\n        /* \"#utility.yul\":3567:3633   */\n      tag_109\n      jump\t// in\n    tag_139:\n        /* \"#utility.yul\":3557:3633   */\n      swap4\n      pop\n        /* \"#utility.yul\":3513:3643   */\n      pop\n        /* \"#utility.yul\":3682:3684   */\n      0x20\n        /* \"#utility.yul\":3708:3775   */\n      tag_140\n        /* \"#utility.yul\":3767:3774   */\n      dup7\n        /* \"#utility.yul\":3758:3764   */\n      dup3\n        /* \"#utility.yul\":3747:3756   */\n      dup8\n        /* \"#utility.yul\":3743:3765   */\n      add\n        /* \"#utility.yul\":3708:3775   */\n      tag_113\n      jump\t// in\n    tag_140:\n        /* \"#utility.yul\":3698:3775   */\n      swap3\n      pop\n        /* \"#utility.yul\":3653:3785   */\n      pop\n        /* \"#utility.yul\":3824:3826   */\n      0x40\n        /* \"#utility.yul\":3850:3903   */\n      tag_141\n        /* \"#utility.yul\":3895:3902   */\n      dup7\n        /* \"#utility.yul\":3886:3892   */\n      dup3\n        /* \"#utility.yul\":3875:3884   */\n      dup8\n        /* \"#utility.yul\":3871:3893   */\n      add\n        /* \"#utility.yul\":3850:3903   */\n      tag_96\n      jump\t// in\n    tag_141:\n        /* \"#utility.yul\":3840:3903   */\n      swap2\n      pop\n        /* \"#utility.yul\":3795:3913   */\n      pop\n        /* \"#utility.yul\":3247:3920   */\n      swap3\n      pop\n      swap3\n      pop\n      swap3\n      jump\t// out\n        /* \"#utility.yul\":3926:4428   */\n    tag_19:\n        /* \"#utility.yul\":4008:4014   */\n      0x00\n        /* \"#utility.yul\":4016:4022   */\n      dup1\n        /* \"#utility.yul\":4065:4067   */\n      0x40\n        /* \"#utility.yul\":4053:4062   */\n      dup4\n        /* \"#utility.yul\":4044:4051   */\n      dup6\n        /* \"#utility.yul\":4040:4063   */\n      sub\n        /* \"#utility.yul\":4036:4068   */\n      slt\n        /* \"#utility.yul\":4033:4152   */\n      iszero\n      tag_143\n      jumpi\n        /* \"#utility.yul\":4071:4150   */\n      tag_144\n      tag_123\n      jump\t// in\n    tag_144:\n        /* \"#utility.yul\":4033:4152   */\n    tag_143:\n        /* \"#utility.yul\":4191:4192   */\n      0x00\n        /* \"#utility.yul\":4216:4283   */\n      tag_145\n        /* \"#utility.yul\":4275:4282   */\n      dup6\n        /* \"#utility.yul\":4266:4272   */\n      dup3\n        /* \"#utility.yul\":4255:4264   */\n      dup7\n        /* \"#utility.yul\":4251:4273   */\n      add\n        /* \"#utility.yul\":4216:4283   */\n      tag_113\n      jump\t// in\n    tag_145:\n        /* \"#utility.yul\":4206:4283   */\n      swap3\n      pop\n        /* \"#utility.yul\":4162:4293   */\n      pop\n        /* \"#utility.yul\":4332:4334   */\n      0x20\n        /* \"#utility.yul\":4358:4411   */\n      tag_146\n        /* \"#utility.yul\":4403:4410   */\n      dup6\n        /* \"#utility.yul\":4394:4400   */\n      dup3\n        /* \"#utility.yul\":4383:4392   */\n      dup7\n        /* \"#utility.yul\":4379:4401   */\n      add\n        /* \"#utility.yul\":4358:4411   */\n      tag_96\n      jump\t// in\n    tag_146:\n        /* \"#utility.yul\":4348:4411   */\n      swap2\n      pop\n        /* \"#utility.yul\":4303:4421   */\n      pop\n        /* \"#utility.yul\":3926:4428   */\n      swap3\n      pop\n      swap3\n      swap1\n      pop\n      jump\t// out\n        /* \"#utility.yul\":4434:4785   */\n    tag_80:\n        /* \"#utility.yul\":4504:4510   */\n      0x00\n        /* \"#utility.yul\":4553:4555   */\n      0x20\n        /* \"#utility.yul\":4541:4550   */\n      dup3\n        /* \"#utility.yul\":4532:4539   */\n      dup5\n        /* \"#utility.yul\":4528:4551   */\n      sub\n        /* \"#utility.yul\":4524:4556   */\n      slt\n        /* \"#utility.yul\":4521:4640   */\n      iszero\n      tag_148\n      jumpi\n        /* \"#utility.yul\":4559:4638   */\n      tag_149\n      tag_123\n      jump\t// in\n    tag_149:\n        /* \"#utility.yul\":4521:4640   */\n    tag_148:\n        /* \"#utility.yul\":4679:4680   */\n      0x00\n        /* \"#utility.yul\":4704:4768   */\n      tag_150\n        /* \"#utility.yul\":4760:4767   */\n      dup5\n        /* \"#utility.yul\":4751:4757   */\n      dup3\n        /* \"#utility.yul\":4740:4749   */\n      dup6\n        /* \"#utility.yul\":4736:4758   */\n      add\n        /* \"#utility.yul\":4704:4768   */\n      tag_95\n      jump\t// in\n    tag_150:\n        /* \"#utility.yul\":4694:4768   */\n      swap2\n      pop\n        /* \"#utility.yul\":4650:4778   */\n      pop\n        /* \"#utility.yul\":4434:4785   */\n      swap3\n      swap2\n      pop\n      pop\n      jump\t// out\n        /* \"#utility.yul\":4791:4970   */\n    tag_151:\n        /* \"#utility.yul\":4860:4870   */\n      0x00\n        /* \"#utility.yul\":4881:4927   */\n      tag_153\n        /* \"#utility.yul\":4923:4926   */\n      dup4\n        /* \"#utility.yul\":4915:4921   */\n      dup4\n        /* \"#utility.yul\":4881:4927   */\n      tag_154\n      jump\t// in\n    tag_153:\n        /* \"#utility.yul\":4959:4963   */\n      0x20\n        /* \"#utility.yul\":4954:4957   */\n      dup4\n        /* \"#utility.yul\":4950:4964   */\n      add\n        /* \"#utility.yul\":4936:4964   */\n      swap1\n      pop\n        /* \"#utility.yul\":4791:4970   */\n      swap3\n      swap2\n      pop\n      pop\n      jump\t// out\n        /* \"#utility.yul\":4976:5084   */\n    tag_154:\n        /* \"#utility.yul\":5053:5077   */\n      tag_156\n        /* \"#utility.yul\":5071:5076   */\n      dup2\n        /* \"#utility.yul\":5053:5077   */\n      tag_157\n      jump\t// in\n    tag_156:\n        /* \"#utility.yul\":5048:5051   */\n      dup3\n        /* \"#utility.yul\":5041:5078   */\n      mstore\n        /* \"#utility.yul\":4976:5084   */\n      pop\n      pop\n      jump\t// out\n        /* \"#utility.yul\":5090:5208   */\n    tag_158:\n        /* \"#utility.yul\":5177:5201   */\n      tag_160\n        /* \"#utility.yul\":5195:5200   */\n      dup2\n        /* \"#utility.yul\":5177:5201   */\n      tag_157\n      jump\t// in\n    tag_160:\n        /* \"#utility.yul\":5172:5175   */\n      dup3\n        /* \"#utility.yul\":5165:5202   */\n      mstore\n        /* \"#utility.yul\":5090:5208   */\n      pop\n      pop\n      jump\t// out\n        /* \"#utility.yul\":5244:5976   */\n    tag_161:\n        /* \"#utility.yul\":5363:5366   */\n      0x00\n        /* \"#utility.yul\":5392:5446   */\n      tag_163\n        /* \"#utility.yul\":5440:5445   */\n      dup3\n        /* \"#utility.yul\":5392:5446   */\n      tag_164\n      jump\t// in\n    tag_163:\n        /* \"#utility.yul\":5462:5548   */\n      tag_165\n        /* \"#utility.yul\":5541:5547   */\n      dup2\n        /* \"#utility.yul\":5536:5539   */\n      dup6\n        /* \"#utility.yul\":5462:5548   */\n      tag_166\n      jump\t// in\n    tag_165:\n        /* \"#utility.yul\":5455:5548   */\n      swap4\n      pop\n        /* \"#utility.yul\":5572:5628   */\n      tag_167\n        /* \"#utility.yul\":5622:5627   */\n      dup4\n        /* \"#utility.yul\":5572:5628   */\n      tag_168\n      jump\t// in\n    tag_167:\n        /* \"#utility.yul\":5651:5658   */\n      dup1\n        /* \"#utility.yul\":5682:5683   */\n      0x00\n        /* \"#utility.yul\":5667:5951   */\n    tag_169:\n        /* \"#utility.yul\":5692:5698   */\n      dup4\n        /* \"#utility.yul\":5689:5690   */\n      dup2\n        /* \"#utility.yul\":5686:5699   */\n      lt\n        /* \"#utility.yul\":5667:5951   */\n      iszero\n      tag_171\n      jumpi\n        /* \"#utility.yul\":5768:5774   */\n      dup2\n        /* \"#utility.yul\":5762:5775   */\n      mload\n        /* \"#utility.yul\":5795:5858   */\n      tag_172\n        /* \"#utility.yul\":5854:5857   */\n      dup9\n        /* \"#utility.yul\":5839:5852   */\n      dup3\n        /* \"#utility.yul\":5795:5858   */\n      tag_151\n      jump\t// in\n    tag_172:\n        /* \"#utility.yul\":5788:5858   */\n      swap8\n      pop\n        /* \"#utility.yul\":5881:5941   */\n      tag_173\n        /* \"#utility.yul\":5934:5940   */\n      dup4\n        /* \"#utility.yul\":5881:5941   */\n      tag_174\n      jump\t// in\n    tag_173:\n        /* \"#utility.yul\":5871:5941   */\n      swap3\n      pop\n        /* \"#utility.yul\":5727:5951   */\n      pop\n        /* \"#utility.yul\":5714:5715   */\n      0x01\n        /* \"#utility.yul\":5711:5712   */\n      dup2\n        /* \"#utility.yul\":5707:5716   */\n      add\n        /* \"#utility.yul\":5702:5716   */\n      swap1\n      pop\n        /* \"#utility.yul\":5667:5951   */\n      jump(tag_169)\n    tag_171:\n        /* \"#utility.yul\":5671:5685   */\n      pop\n        /* \"#utility.yul\":5967:5970   */\n      dup6\n        /* \"#utility.yul\":5960:5970   */\n      swap4\n      pop\n        /* \"#utility.yul\":5368:5976   */\n      pop\n      pop\n      pop\n        /* \"#utility.yul\":5244:5976   */\n      swap3\n      swap2\n      pop\n      pop\n      jump\t// out\n        /* \"#utility.yul\":5982:6100   */\n    tag_175:\n        /* \"#utility.yul\":6069:6093   */\n      tag_177\n        /* \"#utility.yul\":6087:6092   */\n      dup2\n        /* \"#utility.yul\":6069:6093   */\n      tag_178\n      jump\t// in\n    tag_177:\n        /* \"#utility.yul\":6064:6067   */\n      dup3\n        /* \"#utility.yul\":6057:6094   */\n      mstore\n        /* \"#utility.yul\":5982:6100   */\n      pop\n      pop\n      jump\t// out\n        /* \"#utility.yul\":6106:6328   */\n    tag_27:\n        /* \"#utility.yul\":6199:6203   */\n      0x00\n        /* \"#utility.yul\":6237:6239   */\n      0x20\n        /* \"#utility.yul\":6226:6235   */\n      dup3\n        /* \"#utility.yul\":6222:6240   */\n      add\n        /* \"#utility.yul\":6214:6240   */\n      swap1\n      pop\n        /* \"#utility.yul\":6250:6321   */\n      tag_180\n        /* \"#utility.yul\":6318:6319   */\n      0x00\n        /* \"#utility.yul\":6307:6316   */\n      dup4\n        /* \"#utility.yul\":6303:6320   */\n      add\n        /* \"#utility.yul\":6294:6300   */\n      dup5\n        /* \"#utility.yul\":6250:6321   */\n      tag_158\n      jump\t// in\n    tag_180:\n        /* \"#utility.yul\":6106:6328   */\n      swap3\n      swap2\n      pop\n      pop\n      jump\t// out\n        /* \"#utility.yul\":6334:6556   */\n    tag_16:\n        /* \"#utility.yul\":6427:6431   */\n      0x00\n        /* \"#utility.yul\":6465:6467   */\n      0x20\n        /* \"#utility.yul\":6454:6463   */\n      dup3\n        /* \"#utility.yul\":6450:6468   */\n      add\n        /* \"#utility.yul\":6442:6468   */\n      swap1\n      pop\n        /* \"#utility.yul\":6478:6549   */\n      tag_182\n        /* \"#utility.yul\":6546:6547   */\n      0x00\n        /* \"#utility.yul\":6535:6544   */\n      dup4\n        /* \"#utility.yul\":6531:6548   */\n      add\n        /* \"#utility.yul\":6522:6528   */\n      dup5\n        /* \"#utility.yul\":6478:6549   */\n      tag_175\n      jump\t// in\n    tag_182:\n        /* \"#utility.yul\":6334:6556   */\n      swap3\n      swap2\n      pop\n      pop\n      jump\t// out\n        /* \"#utility.yul\":6562:7045   */\n    tag_56:\n        /* \"#utility.yul\":6733:6737   */\n      0x00\n        /* \"#utility.yul\":6771:6773   */\n      0x40\n        /* \"#utility.yul\":6760:6769   */\n      dup3\n        /* \"#utility.yul\":6756:6774   */\n      add\n        /* \"#utility.yul\":6748:6774   */\n      swap1\n      pop\n        /* \"#utility.yul\":6784:6855   */\n      tag_184\n        /* \"#utility.yul\":6852:6853   */\n      0x00\n        /* \"#utility.yul\":6841:6850   */\n      dup4\n        /* \"#utility.yul\":6837:6854   */\n      add\n        /* \"#utility.yul\":6828:6834   */\n      dup6\n        /* \"#utility.yul\":6784:6855   */\n      tag_175\n      jump\t// in\n    tag_184:\n        /* \"#utility.yul\":6902:6911   */\n      dup2\n        /* \"#utility.yul\":6896:6900   */\n      dup2\n        /* \"#utility.yul\":6892:6912   */\n      sub\n        /* \"#utility.yul\":6887:6889   */\n      0x20\n        /* \"#utility.yul\":6876:6885   */\n      dup4\n        /* \"#utility.yul\":6872:6890   */\n      add\n        /* \"#utility.yul\":6865:6913   */\n      mstore\n        /* \"#utility.yul\":6930:7038   */\n      tag_185\n        /* \"#utility.yul\":7033:7037   */\n      dup2\n        /* \"#utility.yul\":7024:7030   */\n      dup5\n        /* \"#utility.yul\":6930:7038   */\n      tag_161\n      jump\t// in\n    tag_185:\n        /* \"#utility.yul\":6922:7038   */\n      swap1\n      pop\n        /* \"#utility.yul\":6562:7045   */\n      swap4\n      swap3\n      pop\n      pop\n      pop\n      jump\t// out\n        /* \"#utility.yul\":7051:7180   */\n    tag_87:\n        /* \"#utility.yul\":7085:7091   */\n      0x00\n        /* \"#utility.yul\":7112:7132   */\n      tag_187\n      tag_188\n      jump\t// in\n    tag_187:\n        /* \"#utility.yul\":7102:7132   */\n      swap1\n      pop\n        /* \"#utility.yul\":7141:7174   */\n      tag_189\n        /* \"#utility.yul\":7169:7173   */\n      dup3\n        /* \"#utility.yul\":7161:7167   */\n      dup3\n        /* \"#utility.yul\":7141:7174   */\n      tag_190\n      jump\t// in\n    tag_189:\n        /* \"#utility.yul\":7051:7180   */\n      swap2\n      swap1\n      pop\n      jump\t// out\n        /* \"#utility.yul\":7186:7261   */\n    tag_188:\n        /* \"#utility.yul\":7219:7225   */\n      0x00\n        /* \"#utility.yul\":7252:7254   */\n      0x40\n        /* \"#utility.yul\":7246:7255   */\n      mload\n        /* \"#utility.yul\":7236:7255   */\n      swap1\n      pop\n        /* \"#utility.yul\":7186:7261   */\n      swap1\n      jump\t// out\n        /* \"#utility.yul\":7267:7578   */\n    tag_86:\n        /* \"#utility.yul\":7344:7348   */\n      0x00\n        /* \"#utility.yul\":7434:7452   */\n      0xffffffffffffffff\n        /* \"#utility.yul\":7426:7432   */\n      dup3\n        /* \"#utility.yul\":7423:7453   */\n      gt\n        /* \"#utility.yul\":7420:7476   */\n      iszero\n      tag_193\n      jumpi\n        /* \"#utility.yul\":7456:7474   */\n      tag_194\n      tag_46\n      jump\t// in\n    tag_194:\n        /* \"#utility.yul\":7420:7476   */\n    tag_193:\n        /* \"#utility.yul\":7506:7510   */\n      0x20\n        /* \"#utility.yul\":7498:7504   */\n      dup3\n        /* \"#utility.yul\":7494:7511   */\n      mul\n        /* \"#utility.yul\":7486:7511   */\n      swap1\n      pop\n        /* \"#utility.yul\":7566:7570   */\n      0x20\n        /* \"#utility.yul\":7560:7564   */\n      dup2\n        /* \"#utility.yul\":7556:7571   */\n      add\n        /* \"#utility.yul\":7548:7571   */\n      swap1\n      pop\n        /* \"#utility.yul\":7267:7578   */\n      swap2\n      swap1\n      pop\n      jump\t// out\n        /* \"#utility.yul\":7584:7716   */\n    tag_168:\n        /* \"#utility.yul\":7651:7655   */\n      0x00\n        /* \"#utility.yul\":7674:7677   */\n      dup2\n        /* \"#utility.yul\":7666:7677   */\n      swap1\n      pop\n        /* \"#utility.yul\":7704:7708   */\n      0x20\n        /* \"#utility.yul\":7699:7702   */\n      dup3\n        /* \"#utility.yul\":7695:7709   */\n      add\n        /* \"#utility.yul\":7687:7709   */\n      swap1\n      pop\n        /* \"#utility.yul\":7584:7716   */\n      swap2\n      swap1\n      pop\n      jump\t// out\n        /* \"#utility.yul\":7722:7836   */\n    tag_164:\n        /* \"#utility.yul\":7789:7795   */\n      0x00\n        /* \"#utility.yul\":7823:7828   */\n      dup2\n        /* \"#utility.yul\":7817:7829   */\n      mload\n        /* \"#utility.yul\":7807:7829   */\n      swap1\n      pop\n        /* \"#utility.yul\":7722:7836   */\n      swap2\n      swap1\n      pop\n      jump\t// out\n        /* \"#utility.yul\":7842:7955   */\n    tag_174:\n        /* \"#utility.yul\":7912:7916   */\n      0x00\n        /* \"#utility.yul\":7944:7948   */\n      0x20\n        /* \"#utility.yul\":7939:7942   */\n      dup3\n        /* \"#utility.yul\":7935:7949   */\n      add\n        /* \"#utility.yul\":7927:7949   */\n      swap1\n      pop\n        /* \"#utility.yul\":7842:7955   */\n      swap2\n      swap1\n      pop\n      jump\t// out\n        /* \"#utility.yul\":7961:8145   */\n    tag_166:\n        /* \"#utility.yul\":8060:8071   */\n      0x00\n        /* \"#utility.yul\":8094:8100   */\n      dup3\n        /* \"#utility.yul\":8089:8092   */\n      dup3\n        /* \"#utility.yul\":8082:8101   */\n      mstore\n        /* \"#utility.yul\":8134:8138   */\n      0x20\n        /* \"#utility.yul\":8129:8132   */\n      dup3\n        /* \"#utility.yul\":8125:8139   */\n      add\n        /* \"#utility.yul\":8110:8139   */\n      swap1\n      pop\n        /* \"#utility.yul\":7961:8145   */\n      swap3\n      swap2\n      pop\n      pop\n      jump\t// out\n        /* \"#utility.yul\":8151:8247   */\n    tag_157:\n        /* \"#utility.yul\":8188:8195   */\n      0x00\n        /* \"#utility.yul\":8217:8241   */\n      tag_200\n        /* \"#utility.yul\":8235:8240   */\n      dup3\n        /* \"#utility.yul\":8217:8241   */\n      tag_201\n      jump\t// in\n    tag_200:\n        /* \"#utility.yul\":8206:8241   */\n      swap1\n      pop\n        /* \"#utility.yul\":8151:8247   */\n      swap2\n      swap1\n      pop\n      jump\t// out\n        /* \"#utility.yul\":8253:8362   */\n    tag_202:\n        /* \"#utility.yul\":8303:8310   */\n      0x00\n        /* \"#utility.yul\":8332:8356   */\n      tag_204\n        /* \"#utility.yul\":8350:8355   */\n      dup3\n        /* \"#utility.yul\":8332:8356   */\n      tag_157\n      jump\t// in\n    tag_204:\n        /* \"#utility.yul\":8321:8356   */\n      swap1\n      pop\n        /* \"#utility.yul\":8253:8362   */\n      swap2\n      swap1\n      pop\n      jump\t// out\n        /* \"#utility.yul\":8368:8478   */\n    tag_205:\n        /* \"#utility.yul\":8419:8426   */\n      0x00\n        /* \"#utility.yul\":8448:8472   */\n      tag_207\n        /* \"#utility.yul\":8466:8471   */\n      dup3\n        /* \"#utility.yul\":8448:8472   */\n      tag_157\n      jump\t// in\n    tag_207:\n        /* \"#utility.yul\":8437:8472   */\n      swap1\n      pop\n        /* \"#utility.yul\":8368:8478   */\n      swap2\n      swap1\n      pop\n      jump\t// out\n        /* \"#utility.yul\":8484:8610   */\n    tag_201:\n        /* \"#utility.yul\":8521:8528   */\n      0x00\n        /* \"#utility.yul\":8561:8603   */\n      0xffffffffffffffffffffffffffffffffffffffff\n        /* \"#utility.yul\":8554:8559   */\n      dup3\n        /* \"#utility.yul\":8550:8604   */\n      and\n        /* \"#utility.yul\":8539:8604   */\n      swap1\n      pop\n        /* \"#utility.yul\":8484:8610   */\n      swap2\n      swap1\n      pop\n      jump\t// out\n        /* \"#utility.yul\":8616:8693   */\n    tag_178:\n        /* \"#utility.yul\":8653:8660   */\n      0x00\n        /* \"#utility.yul\":8682:8687   */\n      dup2\n        /* \"#utility.yul\":8671:8687   */\n      swap1\n      pop\n        /* \"#utility.yul\":8616:8693   */\n      swap2\n      swap1\n      pop\n      jump\t// out\n        /* \"#utility.yul\":8699:8980   */\n    tag_190:\n        /* \"#utility.yul\":8782:8809   */\n      tag_211\n        /* \"#utility.yul\":8804:8808   */\n      dup3\n        /* \"#utility.yul\":8782:8809   */\n      tag_212\n      jump\t// in\n    tag_211:\n        /* \"#utility.yul\":8774:8780   */\n      dup2\n        /* \"#utility.yul\":8770:8810   */\n      add\n        /* \"#utility.yul\":8912:8918   */\n      dup2\n        /* \"#utility.yul\":8900:8910   */\n      dup2\n        /* \"#utility.yul\":8897:8919   */\n      lt\n        /* \"#utility.yul\":8876:8894   */\n      0xffffffffffffffff\n        /* \"#utility.yul\":8864:8874   */\n      dup3\n        /* \"#utility.yul\":8861:8895   */\n      gt\n        /* \"#utility.yul\":8858:8920   */\n      or\n        /* \"#utility.yul\":8855:8943   */\n      iszero\n      tag_213\n      jumpi\n        /* \"#utility.yul\":8923:8941   */\n      tag_214\n      tag_46\n      jump\t// in\n    tag_214:\n        /* \"#utility.yul\":8855:8943   */\n    tag_213:\n        /* \"#utility.yul\":8963:8973   */\n      dup1\n        /* \"#utility.yul\":8959:8961   */\n      0x40\n        /* \"#utility.yul\":8952:8974   */\n      mstore\n        /* \"#utility.yul\":8742:8980   */\n      pop\n        /* \"#utility.yul\":8699:8980   */\n      pop\n      pop\n      jump\t// out\n        /* \"#utility.yul\":8986:9166   */\n    tag_50:\n        /* \"#utility.yul\":9034:9111   */\n      0x4e487b7100000000000000000000000000000000000000000000000000000000\n        /* \"#utility.yul\":9031:9032   */\n      0x00\n        /* \"#utility.yul\":9024:9112   */\n      mstore\n        /* \"#utility.yul\":9131:9135   */\n      0x32\n        /* \"#utility.yul\":9128:9129   */\n      0x04\n        /* \"#utility.yul\":9121:9136   */\n      mstore\n        /* \"#utility.yul\":9155:9159   */\n      0x24\n        /* \"#utility.yul\":9152:9153   */\n      0x00\n        /* \"#utility.yul\":9145:9160   */\n      revert\n        /* \"#utility.yul\":9172:9352   */\n    tag_46:\n        /* \"#utility.yul\":9220:9297   */\n      0x4e487b7100000000000000000000000000000000000000000000000000000000\n        /* \"#utility.yul\":9217:9218   */\n      0x00\n        /* \"#utility.yul\":9210:9298   */\n      mstore\n        /* \"#utility.yul\":9317:9321   */\n      0x41\n        /* \"#utility.yul\":9314:9315   */\n      0x04\n        /* \"#utility.yul\":9307:9322   */\n      mstore\n        /* \"#utility.yul\":9341:9345   */\n      0x24\n        /* \"#utility.yul\":9338:9339   */\n      0x00\n        /* \"#utility.yul\":9331:9346   */\n      revert\n        /* \"#utility.yul\":9358:9475   */\n    tag_107:\n        /* \"#utility.yul\":9467:9468   */\n      0x00\n        /* \"#utility.yul\":9464:9465   */\n      dup1\n        /* \"#utility.yul\":9457:9469   */\n      revert\n        /* \"#utility.yul\":9481:9598   */\n    tag_90:\n        /* \"#utility.yul\":9590:9591   */\n      0x00\n        /* \"#utility.yul\":9587:9588   */\n      dup1\n        /* \"#utility.yul\":9580:9592   */\n      revert\n        /* \"#utility.yul\":9604:9721   */\n    tag_130:\n        /* \"#utility.yul\":9713:9714   */\n      0x00\n        /* \"#utility.yul\":9710:9711   */\n      dup1\n        /* \"#utility.yul\":9703:9715   */\n      revert\n        /* \"#utility.yul\":9727:9844   */\n    tag_123:\n        /* \"#utility.yul\":9836:9837   */\n      0x00\n        /* \"#utility.yul\":9833:9834   */\n      dup1\n        /* \"#utility.yul\":9826:9838   */\n      revert\n        /* \"#utility.yul\":9850:9952   */\n    tag_212:\n        /* \"#utility.yul\":9891:9897   */\n      0x00\n        /* \"#utility.yul\":9942:9944   */\n      0x1f\n        /* \"#utility.yul\":9938:9945   */\n      not\n        /* \"#utility.yul\":9933:9935   */\n      0x1f\n        /* \"#utility.yul\":9926:9931   */\n      dup4\n        /* \"#utility.yul\":9922:9936   */\n      add\n        /* \"#utility.yul\":9918:9946   */\n      and\n        /* \"#utility.yul\":9908:9946   */\n      swap1\n      pop\n        /* \"#utility.yul\":9850:9952   */\n      swap2\n      swap1\n      pop\n      jump\t// out\n        /* \"#utility.yul\":9958:10080   */\n    tag_99:\n        /* \"#utility.yul\":10031:10055   */\n      tag_223\n        /* \"#utility.yul\":10049:10054   */\n      dup2\n        /* \"#utility.yul\":10031:10055   */\n      tag_157\n      jump\t// in\n    tag_223:\n        /* \"#utility.yul\":10024:10029   */\n      dup2\n        /* \"#utility.yul\":10021:10056   */\n      eq\n        /* \"#utility.yul\":10011:10074   */\n      tag_224\n      jumpi\n        /* \"#utility.yul\":10070:10071   */\n      0x00\n        /* \"#utility.yul\":10067:10068   */\n      dup1\n        /* \"#utility.yul\":10060:10072   */\n      revert\n        /* \"#utility.yul\":10011:10074   */\n    tag_224:\n        /* \"#utility.yul\":9958:10080   */\n      pop\n      jump\t// out\n        /* \"#utility.yul\":10086:10234   */\n    tag_112:\n        /* \"#utility.yul\":10172:10209   */\n      tag_226\n        /* \"#utility.yul\":10203:10208   */\n      dup2\n        /* \"#utility.yul\":10172:10209   */\n      tag_202\n      jump\t// in\n    tag_226:\n        /* \"#utility.yul\":10165:10170   */\n      dup2\n        /* \"#utility.yul\":10162:10210   */\n      eq\n        /* \"#utility.yul\":10152:10228   */\n      tag_227\n      jumpi\n        /* \"#utility.yul\":10224:10225   */\n      0x00\n        /* \"#utility.yul\":10221:10222   */\n      dup1\n        /* \"#utility.yul\":10214:10226   */\n      revert\n        /* \"#utility.yul\":10152:10228   */\n    tag_227:\n        /* \"#utility.yul\":10086:10234   */\n      pop\n      jump\t// out\n        /* \"#utility.yul\":10240:10390   */\n    tag_116:\n        /* \"#utility.yul\":10327:10365   */\n      tag_229\n        /* \"#utility.yul\":10359:10364   */\n      dup2\n        /* \"#utility.yul\":10327:10365   */\n      tag_205\n      jump\t// in\n    tag_229:\n        /* \"#utility.yul\":10320:10325   */\n      dup2\n        /* \"#utility.yul\":10317:10366   */\n      eq\n        /* \"#utility.yul\":10307:10384   */\n      tag_230\n      jumpi\n        /* \"#utility.yul\":10380:10381   */\n      0x00\n        /* \"#utility.yul\":10377:10378   */\n      dup1\n        /* \"#utility.yul\":10370:10382   */\n      revert\n        /* \"#utility.yul\":10307:10384   */\n    tag_230:\n        /* \"#utility.yul\":10240:10390   */\n      pop\n      jump\t// out\n        /* \"#utility.yul\":10396:10518   */\n    tag_119:\n        /* \"#utility.yul\":10469:10493   */\n      tag_232\n        /* \"#utility.yul\":10487:10492   */\n      dup2\n        /* \"#utility.yul\":10469:10493   */\n      tag_178\n      jump\t// in\n    tag_232:\n        /* \"#utility.yul\":10462:10467   */\n      dup2\n        /* \"#utility.yul\":10459:10494   */\n      eq\n        /* \"#utility.yul\":10449:10512   */\n      tag_233\n      jumpi\n        /* \"#utility.yul\":10508:10509   */\n      0x00\n        /* \"#utility.yul\":10505:10506   */\n      dup1\n        /* \"#utility.yul\":10498:10510   */\n      revert\n        /* \"#utility.yul\":10449:10512   */\n    tag_233:\n        /* \"#utility.yul\":10396:10518   */\n      pop\n      jump\t// out\n\n    auxdata: 0xa2646970667358221220e7e836fade3224e1a2b0b0ab11cc94f224fbaad192386e1d6722f9d3775446dd64736f6c63430008070033\n}\n",
				"bytecode": {
					"linkReferences": {},
					"object": "608060405273ae13d989dac2f0debff460ac112a837c89baa7cd6000806101000a81548173ffffffffffffffffffffffffffffffffffffffff021916908373ffffffffffffffffffffffffffffffffffffffff1602179055507378867bbeef44f2326bf8ddd1941a4439382ef2a7600160006101000a81548173ffffffffffffffffffffffffffffffffffffffff021916908373ffffffffffffffffffffffffffffffffffffffff160217905550670de0b6b3a76400006002553480156100c557600080fd5b50610b6d806100d56000396000f3fe608060405234801561001057600080fd5b506004361061007d5760003560e01c8063484f4ea91161005b578063484f4ea91461011257806376bf39a3146101305780638dd9500214610160578063e4dc2aa41461017e5761007d565b806320ae0b6d146100825780632b00490d146100b257806337823795146100e2575b600080fd5b61009c60048036038101906100979190610774565b6101ae565b6040516100a991906108f2565b60405180910390f35b6100cc60048036038101906100c791906107c7565b6101b7565b6040516100d991906108f2565b60405180910390f35b6100fc60048036038101906100f79190610747565b6103eb565b60405161010991906108d7565b60405180910390f35b61011a610472565b60405161012791906108d7565b60405180910390f35b61014a60048036038101906101459190610747565b610498565b60405161015791906108d7565b60405180910390f35b61016861051f565b60405161017591906108d7565b60405180910390f35b61019860048036038101906101939190610747565b610543565b6040516101a591906108f2565b60405180910390f35b60009392505050565b600080600367ffffffffffffffff8111156101d5576101d4610a87565b5b6040519080825280602002602001820160405280156102035781602001602082028036833780820191505090505b509050828160008151811061021b5761021a610a58565b5b602002602001019073ffffffffffffffffffffffffffffffffffffffff16908173ffffffffffffffffffffffffffffffffffffffff168152505060008054906101000a900473ffffffffffffffffffffffffffffffffffffffff168160018151811061028a57610289610a58565b5b602002602001019073ffffffffffffffffffffffffffffffffffffffff16908173ffffffffffffffffffffffffffffffffffffffff1681525050600160009054906101000a900473ffffffffffffffffffffffffffffffffffffffff16816002815181106102fb576102fa610a58565b5b602002602001019073ffffffffffffffffffffffffffffffffffffffff16908173ffffffffffffffffffffffffffffffffffffffff16815250508373ffffffffffffffffffffffffffffffffffffffff1663d06ca61f600254836040518363ffffffff1660e01b815260040161037292919061090d565b60006040518083038186803b15801561038a57600080fd5b505afa15801561039e573d6000803e3d6000fd5b505050506040513d6000823e3d601f19601f820116820180604052508101906103c791906106fe565b6002815181106103da576103d9610a58565b5b602002602001015191505092915050565b60008173ffffffffffffffffffffffffffffffffffffffff1663d21220a76040518163ffffffff1660e01b815260040160206040518083038186803b15801561043357600080fd5b505afa158015610447573d6000803e3d6000fd5b505050506040513d601f19601f8201168201806040525081019061046b91906106d1565b9050919050565b600160009054906101000a900473ffffffffffffffffffffffffffffffffffffffff1681565b60008173ffffffffffffffffffffffffffffffffffffffff16630dfe16816040518163ffffffff1660e01b815260040160206040518083038186803b1580156104e057600080fd5b505afa1580156104f4573d6000803e3d6000fd5b505050506040513d601f19601f8201168201806040525081019061051891906106d1565b9050919050565b60008054906101000a900473ffffffffffffffffffffffffffffffffffffffff1681565b60008173ffffffffffffffffffffffffffffffffffffffff166318160ddd6040518163ffffffff1660e01b815260040160206040518083038186803b15801561058b57600080fd5b505afa15801561059f573d6000803e3d6000fd5b505050506040513d601f19601f820116820180604052508101906105c39190610807565b9050919050565b60006105dd6105d884610962565b61093d565b90508083825260208201905082856020860282011115610600576105ff610abb565b5b60005b85811015610630578161061688826106bc565b845260208401935060208301925050600181019050610603565b5050509392505050565b60008135905061064981610adb565b92915050565b60008151905061065e81610adb565b92915050565b600082601f83011261067957610678610ab6565b5b81516106898482602086016105ca565b91505092915050565b6000813590506106a181610af2565b92915050565b6000813590506106b681610b09565b92915050565b6000815190506106cb81610b20565b92915050565b6000602082840312156106e7576106e6610ac5565b5b60006106f58482850161064f565b91505092915050565b60006020828403121561071457610713610ac5565b5b600082015167ffffffffffffffff81111561073257610731610ac0565b5b61073e84828501610664565b91505092915050565b60006020828403121561075d5761075c610ac5565b5b600061076b84828501610692565b91505092915050565b60008060006060848603121561078d5761078c610ac5565b5b600061079b86828701610692565b93505060206107ac868287016106a7565b92505060406107bd8682870161063a565b9150509250925092565b600080604083850312156107de576107dd610ac5565b5b60006107ec858286016106a7565b92505060206107fd8582860161063a565b9150509250929050565b60006020828403121561081d5761081c610ac5565b5b600061082b848285016106bc565b91505092915050565b6000610840838361084c565b60208301905092915050565b610855816109c7565b82525050565b610864816109c7565b82525050565b60006108758261099e565b61087f81856109b6565b935061088a8361098e565b8060005b838110156108bb5781516108a28882610834565b97506108ad836109a9565b92505060018101905061088e565b5085935050505092915050565b6108d181610a1d565b82525050565b60006020820190506108ec600083018461085b565b92915050565b600060208201905061090760008301846108c8565b92915050565b600060408201905061092260008301856108c8565b8181036020830152610934818461086a565b90509392505050565b6000610947610958565b90506109538282610a27565b919050565b6000604051905090565b600067ffffffffffffffff82111561097d5761097c610a87565b5b602082029050602081019050919050565b6000819050602082019050919050565b600081519050919050565b6000602082019050919050565b600082825260208201905092915050565b60006109d2826109fd565b9050919050565b60006109e4826109c7565b9050919050565b60006109f6826109c7565b9050919050565b600073ffffffffffffffffffffffffffffffffffffffff82169050919050565b6000819050919050565b610a3082610aca565b810181811067ffffffffffffffff82111715610a4f57610a4e610a87565b5b80604052505050565b7f4e487b7100000000000000000000000000000000000000000000000000000000600052603260045260246000fd5b7f4e487b7100000000000000000000000000000000000000000000000000000000600052604160045260246000fd5b600080fd5b600080fd5b600080fd5b600080fd5b6000601f19601f8301169050919050565b610ae4816109c7565b8114610aef57600080fd5b50565b610afb816109d9565b8114610b0657600080fd5b50565b610b12816109eb565b8114610b1d57600080fd5b50565b610b2981610a1d565b8114610b3457600080fd5b5056fea2646970667358221220e7e836fade3224e1a2b0b0ab11cc94f224fbaad192386e1d6722f9d3775446dd64736f6c63430008070033",
					"opcodes": "PUSH1 0x80 PUSH1 0x40 MSTORE PUSH20 0xAE13D989DAC2F0DEBFF460AC112A837C89BAA7CD PUSH1 0x0 DUP1 PUSH2 0x100 EXP DUP2 SLOAD DUP2 PUSH20 0xFFFFFFFFFFFFFFFFFFFFFFFFFFFFFFFFFFFFFFFF MUL NOT AND SWAP1 DUP4 PUSH20 0xFFFFFFFFFFFFFFFFFFFFFFFFFFFFFFFFFFFFFFFF AND MUL OR SWAP1 SSTORE POP PUSH20 0x78867BBEEF44F2326BF8DDD1941A4439382EF2A7 PUSH1 0x1 PUSH1 0x0 PUSH2 0x100 EXP DUP2 SLOAD DUP2 PUSH20 0xFFFFFFFFFFFFFFFFFFFFFFFFFFFFFFFFFFFFFFFF MUL NOT AND SWAP1 DUP4 PUSH20 0xFFFFFFFFFFFFFFFFFFFFFFFFFFFFFFFFFFFFFFFF AND MUL OR SWAP1 SSTORE POP PUSH8 0xDE0B6B3A7640000 PUSH1 0x2 SSTORE CALLVALUE DUP1 ISZERO PUSH2 0xC5 JUMPI PUSH1 0x0 DUP1 REVERT JUMPDEST POP PUSH2 0xB6D DUP1 PUSH2 0xD5 PUSH1 0x0 CODECOPY PUSH1 0x0 RETURN INVALID PUSH1 0x80 PUSH1 0x40 MSTORE CALLVALUE DUP1 ISZERO PUSH2 0x10 JUMPI PUSH1 0x0 DUP1 REVERT JUMPDEST POP PUSH1 0x4 CALLDATASIZE LT PUSH2 0x7D JUMPI PUSH1 0x0 CALLDATALOAD PUSH1 0xE0 SHR DUP1 PUSH4 0x484F4EA9 GT PUSH2 0x5B JUMPI DUP1 PUSH4 0x484F4EA9 EQ PUSH2 0x112 JUMPI DUP1 PUSH4 0x76BF39A3 EQ PUSH2 0x130 JUMPI DUP1 PUSH4 0x8DD95002 EQ PUSH2 0x160 JUMPI DUP1 PUSH4 0xE4DC2AA4 EQ PUSH2 0x17E JUMPI PUSH2 0x7D JUMP JUMPDEST DUP1 PUSH4 0x20AE0B6D EQ PUSH2 0x82 JUMPI DUP1 PUSH4 0x2B00490D EQ PUSH2 0xB2 JUMPI DUP1 PUSH4 0x37823795 EQ PUSH2 0xE2 JUMPI JUMPDEST PUSH1 0x0 DUP1 REVERT JUMPDEST PUSH2 0x9C PUSH1 0x4 DUP1 CALLDATASIZE SUB DUP2 ADD SWAP1 PUSH2 0x97 SWAP2 SWAP1 PUSH2 0x774 JUMP JUMPDEST PUSH2 0x1AE JUMP JUMPDEST PUSH1 0x40 MLOAD PUSH2 0xA9 SWAP2 SWAP1 PUSH2 0x8F2 JUMP JUMPDEST PUSH1 0x40 MLOAD DUP1 SWAP2 SUB SWAP1 RETURN JUMPDEST PUSH2 0xCC PUSH1 0x4 DUP1 CALLDATASIZE SUB DUP2 ADD SWAP1 PUSH2 0xC7 SWAP2 SWAP1 PUSH2 0x7C7 JUMP JUMPDEST PUSH2 0x1B7 JUMP JUMPDEST PUSH1 0x40 MLOAD PUSH2 0xD9 SWAP2 SWAP1 PUSH2 0x8F2 JUMP JUMPDEST PUSH1 0x40 MLOAD DUP1 SWAP2 SUB SWAP1 RETURN JUMPDEST PUSH2 0xFC PUSH1 0x4 DUP1 CALLDATASIZE SUB DUP2 ADD SWAP1 PUSH2 0xF7 SWAP2 SWAP1 PUSH2 0x747 JUMP JUMPDEST PUSH2 0x3EB JUMP JUMPDEST PUSH1 0x40 MLOAD PUSH2 0x109 SWAP2 SWAP1 PUSH2 0x8D7 JUMP JUMPDEST PUSH1 0x40 MLOAD DUP1 SWAP2 SUB SWAP1 RETURN JUMPDEST PUSH2 0x11A PUSH2 0x472 JUMP JUMPDEST PUSH1 0x40 MLOAD PUSH2 0x127 SWAP2 SWAP1 PUSH2 0x8D7 JUMP JUMPDEST PUSH1 0x40 MLOAD DUP1 SWAP2 SUB SWAP1 RETURN JUMPDEST PUSH2 0x14A PUSH1 0x4 DUP1 CALLDATASIZE SUB DUP2 ADD SWAP1 PUSH2 0x145 SWAP2 SWAP1 PUSH2 0x747 JUMP JUMPDEST PUSH2 0x498 JUMP JUMPDEST PUSH1 0x40 MLOAD PUSH2 0x157 SWAP2 SWAP1 PUSH2 0x8D7 JUMP JUMPDEST PUSH1 0x40 MLOAD DUP1 SWAP2 SUB SWAP1 RETURN JUMPDEST PUSH2 0x168 PUSH2 0x51F JUMP JUMPDEST PUSH1 0x40 MLOAD PUSH2 0x175 SWAP2 SWAP1 PUSH2 0x8D7 JUMP JUMPDEST PUSH1 0x40 MLOAD DUP1 SWAP2 SUB SWAP1 RETURN JUMPDEST PUSH2 0x198 PUSH1 0x4 DUP1 CALLDATASIZE SUB DUP2 ADD SWAP1 PUSH2 0x193 SWAP2 SWAP1 PUSH2 0x747 JUMP JUMPDEST PUSH2 0x543 JUMP JUMPDEST PUSH1 0x40 MLOAD PUSH2 0x1A5 SWAP2 SWAP1 PUSH2 0x8F2 JUMP JUMPDEST PUSH1 0x40 MLOAD DUP1 SWAP2 SUB SWAP1 RETURN JUMPDEST PUSH1 0x0 SWAP4 SWAP3 POP POP POP JUMP JUMPDEST PUSH1 0x0 DUP1 PUSH1 0x3 PUSH8 0xFFFFFFFFFFFFFFFF DUP2 GT ISZERO PUSH2 0x1D5 JUMPI PUSH2 0x1D4 PUSH2 0xA87 JUMP JUMPDEST JUMPDEST PUSH1 0x40 MLOAD SWAP1 DUP1 DUP3 MSTORE DUP1 PUSH1 0x20 MUL PUSH1 0x20 ADD DUP3 ADD PUSH1 0x40 MSTORE DUP1 ISZERO PUSH2 0x203 JUMPI DUP2 PUSH1 0x20 ADD PUSH1 0x20 DUP3 MUL DUP1 CALLDATASIZE DUP4 CALLDATACOPY DUP1 DUP3 ADD SWAP2 POP POP SWAP1 POP JUMPDEST POP SWAP1 POP DUP3 DUP2 PUSH1 0x0 DUP2 MLOAD DUP2 LT PUSH2 0x21B JUMPI PUSH2 0x21A PUSH2 0xA58 JUMP JUMPDEST JUMPDEST PUSH1 0x20 MUL PUSH1 0x20 ADD ADD SWAP1 PUSH20 0xFFFFFFFFFFFFFFFFFFFFFFFFFFFFFFFFFFFFFFFF AND SWAP1 DUP2 PUSH20 0xFFFFFFFFFFFFFFFFFFFFFFFFFFFFFFFFFFFFFFFF AND DUP2 MSTORE POP POP PUSH1 0x0 DUP1 SLOAD SWAP1 PUSH2 0x100 EXP SWAP1 DIV PUSH20 0xFFFFFFFFFFFFFFFFFFFFFFFFFFFFFFFFFFFFFFFF AND DUP2 PUSH1 0x1 DUP2 MLOAD DUP2 LT PUSH2 0x28A JUMPI PUSH2 0x289 PUSH2 0xA58 JUMP JUMPDEST JUMPDEST PUSH1 0x20 MUL PUSH1 0x20 ADD ADD SWAP1 PUSH20 0xFFFFFFFFFFFFFFFFFFFFFFFFFFFFFFFFFFFFFFFF AND SWAP1 DUP2 PUSH20 0xFFFFFFFFFFFFFFFFFFFFFFFFFFFFFFFFFFFFFFFF AND DUP2 MSTORE POP POP PUSH1 0x1 PUSH1 0x0 SWAP1 SLOAD SWAP1 PUSH2 0x100 EXP SWAP1 DIV PUSH20 0xFFFFFFFFFFFFFFFFFFFFFFFFFFFFFFFFFFFFFFFF AND DUP2 PUSH1 0x2 DUP2 MLOAD DUP2 LT PUSH2 0x2FB JUMPI PUSH2 0x2FA PUSH2 0xA58 JUMP JUMPDEST JUMPDEST PUSH1 0x20 MUL PUSH1 0x20 ADD ADD SWAP1 PUSH20 0xFFFFFFFFFFFFFFFFFFFFFFFFFFFFFFFFFFFFFFFF AND SWAP1 DUP2 PUSH20 0xFFFFFFFFFFFFFFFFFFFFFFFFFFFFFFFFFFFFFFFF AND DUP2 MSTORE POP POP DUP4 PUSH20 0xFFFFFFFFFFFFFFFFFFFFFFFFFFFFFFFFFFFFFFFF AND PUSH4 0xD06CA61F PUSH1 0x2 SLOAD DUP4 PUSH1 0x40 MLOAD DUP4 PUSH4 0xFFFFFFFF AND PUSH1 0xE0 SHL DUP2 MSTORE PUSH1 0x4 ADD PUSH2 0x372 SWAP3 SWAP2 SWAP1 PUSH2 0x90D JUMP JUMPDEST PUSH1 0x0 PUSH1 0x40 MLOAD DUP1 DUP4 SUB DUP2 DUP7 DUP1 EXTCODESIZE ISZERO DUP1 ISZERO PUSH2 0x38A JUMPI PUSH1 0x0 DUP1 REVERT JUMPDEST POP GAS STATICCALL ISZERO DUP1 ISZERO PUSH2 0x39E JUMPI RETURNDATASIZE PUSH1 0x0 DUP1 RETURNDATACOPY RETURNDATASIZE PUSH1 0x0 REVERT JUMPDEST POP POP POP POP PUSH1 0x40 MLOAD RETURNDATASIZE PUSH1 0x0 DUP3 RETURNDATACOPY RETURNDATASIZE PUSH1 0x1F NOT PUSH1 0x1F DUP3 ADD AND DUP3 ADD DUP1 PUSH1 0x40 MSTORE POP DUP2 ADD SWAP1 PUSH2 0x3C7 SWAP2 SWAP1 PUSH2 0x6FE JUMP JUMPDEST PUSH1 0x2 DUP2 MLOAD DUP2 LT PUSH2 0x3DA JUMPI PUSH2 0x3D9 PUSH2 0xA58 JUMP JUMPDEST JUMPDEST PUSH1 0x20 MUL PUSH1 0x20 ADD ADD MLOAD SWAP2 POP POP SWAP3 SWAP2 POP POP JUMP JUMPDEST PUSH1 0x0 DUP2 PUSH20 0xFFFFFFFFFFFFFFFFFFFFFFFFFFFFFFFFFFFFFFFF AND PUSH4 0xD21220A7 PUSH1 0x40 MLOAD DUP2 PUSH4 0xFFFFFFFF AND PUSH1 0xE0 SHL DUP2 MSTORE PUSH1 0x4 ADD PUSH1 0x20 PUSH1 0x40 MLOAD DUP1 DUP4 SUB DUP2 DUP7 DUP1 EXTCODESIZE ISZERO DUP1 ISZERO PUSH2 0x433 JUMPI PUSH1 0x0 DUP1 REVERT JUMPDEST POP GAS STATICCALL ISZERO DUP1 ISZERO PUSH2 0x447 JUMPI RETURNDATASIZE PUSH1 0x0 DUP1 RETURNDATACOPY RETURNDATASIZE PUSH1 0x0 REVERT JUMPDEST POP POP POP POP PUSH1 0x40 MLOAD RETURNDATASIZE PUSH1 0x1F NOT PUSH1 0x1F DUP3 ADD AND DUP3 ADD DUP1 PUSH1 0x40 MSTORE POP DUP2 ADD SWAP1 PUSH2 0x46B SWAP2 SWAP1 PUSH2 0x6D1 JUMP JUMPDEST SWAP1 POP SWAP2 SWAP1 POP JUMP JUMPDEST PUSH1 0x1 PUSH1 0x0 SWAP1 SLOAD SWAP1 PUSH2 0x100 EXP SWAP1 DIV PUSH20 0xFFFFFFFFFFFFFFFFFFFFFFFFFFFFFFFFFFFFFFFF AND DUP2 JUMP JUMPDEST PUSH1 0x0 DUP2 PUSH20 0xFFFFFFFFFFFFFFFFFFFFFFFFFFFFFFFFFFFFFFFF AND PUSH4 0xDFE1681 PUSH1 0x40 MLOAD DUP2 PUSH4 0xFFFFFFFF AND PUSH1 0xE0 SHL DUP2 MSTORE PUSH1 0x4 ADD PUSH1 0x20 PUSH1 0x40 MLOAD DUP1 DUP4 SUB DUP2 DUP7 DUP1 EXTCODESIZE ISZERO DUP1 ISZERO PUSH2 0x4E0 JUMPI PUSH1 0x0 DUP1 REVERT JUMPDEST POP GAS STATICCALL ISZERO DUP1 ISZERO PUSH2 0x4F4 JUMPI RETURNDATASIZE PUSH1 0x0 DUP1 RETURNDATACOPY RETURNDATASIZE PUSH1 0x0 REVERT JUMPDEST POP POP POP POP PUSH1 0x40 MLOAD RETURNDATASIZE PUSH1 0x1F NOT PUSH1 0x1F DUP3 ADD AND DUP3 ADD DUP1 PUSH1 0x40 MSTORE POP DUP2 ADD SWAP1 PUSH2 0x518 SWAP2 SWAP1 PUSH2 0x6D1 JUMP JUMPDEST SWAP1 POP SWAP2 SWAP1 POP JUMP JUMPDEST PUSH1 0x0 DUP1 SLOAD SWAP1 PUSH2 0x100 EXP SWAP1 DIV PUSH20 0xFFFFFFFFFFFFFFFFFFFFFFFFFFFFFFFFFFFFFFFF AND DUP2 JUMP JUMPDEST PUSH1 0x0 DUP2 PUSH20 0xFFFFFFFFFFFFFFFFFFFFFFFFFFFFFFFFFFFFFFFF AND PUSH4 0x18160DDD PUSH1 0x40 MLOAD DUP2 PUSH4 0xFFFFFFFF AND PUSH1 0xE0 SHL DUP2 MSTORE PUSH1 0x4 ADD PUSH1 0x20 PUSH1 0x40 MLOAD DUP1 DUP4 SUB DUP2 DUP7 DUP1 EXTCODESIZE ISZERO DUP1 ISZERO PUSH2 0x58B JUMPI PUSH1 0x0 DUP1 REVERT JUMPDEST POP GAS STATICCALL ISZERO DUP1 ISZERO PUSH2 0x59F JUMPI RETURNDATASIZE PUSH1 0x0 DUP1 RETURNDATACOPY RETURNDATASIZE PUSH1 0x0 REVERT JUMPDEST POP POP POP POP PUSH1 0x40 MLOAD RETURNDATASIZE PUSH1 0x1F NOT PUSH1 0x1F DUP3 ADD AND DUP3 ADD DUP1 PUSH1 0x40 MSTORE POP DUP2 ADD SWAP1 PUSH2 0x5C3 SWAP2 SWAP1 PUSH2 0x807 JUMP JUMPDEST SWAP1 POP SWAP2 SWAP1 POP JUMP JUMPDEST PUSH1 0x0 PUSH2 0x5DD PUSH2 0x5D8 DUP5 PUSH2 0x962 JUMP JUMPDEST PUSH2 0x93D JUMP JUMPDEST SWAP1 POP DUP1 DUP4 DUP3 MSTORE PUSH1 0x20 DUP3 ADD SWAP1 POP DUP3 DUP6 PUSH1 0x20 DUP7 MUL DUP3 ADD GT ISZERO PUSH2 0x600 JUMPI PUSH2 0x5FF PUSH2 0xABB JUMP JUMPDEST JUMPDEST PUSH1 0x0 JUMPDEST DUP6 DUP2 LT ISZERO PUSH2 0x630 JUMPI DUP2 PUSH2 0x616 DUP9 DUP3 PUSH2 0x6BC JUMP JUMPDEST DUP5 MSTORE PUSH1 0x20 DUP5 ADD SWAP4 POP PUSH1 0x20 DUP4 ADD SWAP3 POP POP PUSH1 0x1 DUP2 ADD SWAP1 POP PUSH2 0x603 JUMP JUMPDEST POP POP POP SWAP4 SWAP3 POP POP POP JUMP JUMPDEST PUSH1 0x0 DUP2 CALLDATALOAD SWAP1 POP PUSH2 0x649 DUP2 PUSH2 0xADB JUMP JUMPDEST SWAP3 SWAP2 POP POP JUMP JUMPDEST PUSH1 0x0 DUP2 MLOAD SWAP1 POP PUSH2 0x65E DUP2 PUSH2 0xADB JUMP JUMPDEST SWAP3 SWAP2 POP POP JUMP JUMPDEST PUSH1 0x0 DUP3 PUSH1 0x1F DUP4 ADD SLT PUSH2 0x679 JUMPI PUSH2 0x678 PUSH2 0xAB6 JUMP JUMPDEST JUMPDEST DUP2 MLOAD PUSH2 0x689 DUP5 DUP3 PUSH1 0x20 DUP7 ADD PUSH2 0x5CA JUMP JUMPDEST SWAP2 POP POP SWAP3 SWAP2 POP POP JUMP JUMPDEST PUSH1 0x0 DUP2 CALLDATALOAD SWAP1 POP PUSH2 0x6A1 DUP2 PUSH2 0xAF2 JUMP JUMPDEST SWAP3 SWAP2 POP POP JUMP JUMPDEST PUSH1 0x0 DUP2 CALLDATALOAD SWAP1 POP PUSH2 0x6B6 DUP2 PUSH2 0xB09 JUMP JUMPDEST SWAP3 SWAP2 POP POP JUMP JUMPDEST PUSH1 0x0 DUP2 MLOAD SWAP1 POP PUSH2 0x6CB DUP2 PUSH2 0xB20 JUMP JUMPDEST SWAP3 SWAP2 POP POP JUMP JUMPDEST PUSH1 0x0 PUSH1 0x20 DUP3 DUP5 SUB SLT ISZERO PUSH2 0x6E7 JUMPI PUSH2 0x6E6 PUSH2 0xAC5 JUMP JUMPDEST JUMPDEST PUSH1 0x0 PUSH2 0x6F5 DUP5 DUP3 DUP6 ADD PUSH2 0x64F JUMP JUMPDEST SWAP2 POP POP SWAP3 SWAP2 POP POP JUMP JUMPDEST PUSH1 0x0 PUSH1 0x20 DUP3 DUP5 SUB SLT ISZERO PUSH2 0x714 JUMPI PUSH2 0x713 PUSH2 0xAC5 JUMP JUMPDEST JUMPDEST PUSH1 0x0 DUP3 ADD MLOAD PUSH8 0xFFFFFFFFFFFFFFFF DUP2 GT ISZERO PUSH2 0x732 JUMPI PUSH2 0x731 PUSH2 0xAC0 JUMP JUMPDEST JUMPDEST PUSH2 0x73E DUP5 DUP3 DUP6 ADD PUSH2 0x664 JUMP JUMPDEST SWAP2 POP POP SWAP3 SWAP2 POP POP JUMP JUMPDEST PUSH1 0x0 PUSH1 0x20 DUP3 DUP5 SUB SLT ISZERO PUSH2 0x75D JUMPI PUSH2 0x75C PUSH2 0xAC5 JUMP JUMPDEST JUMPDEST PUSH1 0x0 PUSH2 0x76B DUP5 DUP3 DUP6 ADD PUSH2 0x692 JUMP JUMPDEST SWAP2 POP POP SWAP3 SWAP2 POP POP JUMP JUMPDEST PUSH1 0x0 DUP1 PUSH1 0x0 PUSH1 0x60 DUP5 DUP7 SUB SLT ISZERO PUSH2 0x78D JUMPI PUSH2 0x78C PUSH2 0xAC5 JUMP JUMPDEST JUMPDEST PUSH1 0x0 PUSH2 0x79B DUP7 DUP3 DUP8 ADD PUSH2 0x692 JUMP JUMPDEST SWAP4 POP POP PUSH1 0x20 PUSH2 0x7AC DUP7 DUP3 DUP8 ADD PUSH2 0x6A7 JUMP JUMPDEST SWAP3 POP POP PUSH1 0x40 PUSH2 0x7BD DUP7 DUP3 DUP8 ADD PUSH2 0x63A JUMP JUMPDEST SWAP2 POP POP SWAP3 POP SWAP3 POP SWAP3 JUMP JUMPDEST PUSH1 0x0 DUP1 PUSH1 0x40 DUP4 DUP6 SUB SLT ISZERO PUSH2 0x7DE JUMPI PUSH2 0x7DD PUSH2 0xAC5 JUMP JUMPDEST JUMPDEST PUSH1 0x0 PUSH2 0x7EC DUP6 DUP3 DUP7 ADD PUSH2 0x6A7 JUMP JUMPDEST SWAP3 POP POP PUSH1 0x20 PUSH2 0x7FD DUP6 DUP3 DUP7 ADD PUSH2 0x63A JUMP JUMPDEST SWAP2 POP POP SWAP3 POP SWAP3 SWAP1 POP JUMP JUMPDEST PUSH1 0x0 PUSH1 0x20 DUP3 DUP5 SUB SLT ISZERO PUSH2 0x81D JUMPI PUSH2 0x81C PUSH2 0xAC5 JUMP JUMPDEST JUMPDEST PUSH1 0x0 PUSH2 0x82B DUP5 DUP3 DUP6 ADD PUSH2 0x6BC JUMP JUMPDEST SWAP2 POP POP SWAP3 SWAP2 POP POP JUMP JUMPDEST PUSH1 0x0 PUSH2 0x840 DUP4 DUP4 PUSH2 0x84C JUMP JUMPDEST PUSH1 0x20 DUP4 ADD SWAP1 POP SWAP3 SWAP2 POP POP JUMP JUMPDEST PUSH2 0x855 DUP2 PUSH2 0x9C7 JUMP JUMPDEST DUP3 MSTORE POP POP JUMP JUMPDEST PUSH2 0x864 DUP2 PUSH2 0x9C7 JUMP JUMPDEST DUP3 MSTORE POP POP JUMP JUMPDEST PUSH1 0x0 PUSH2 0x875 DUP3 PUSH2 0x99E JUMP JUMPDEST PUSH2 0x87F DUP2 DUP6 PUSH2 0x9B6 JUMP JUMPDEST SWAP4 POP PUSH2 0x88A DUP4 PUSH2 0x98E JUMP JUMPDEST DUP1 PUSH1 0x0 JUMPDEST DUP4 DUP2 LT ISZERO PUSH2 0x8BB JUMPI DUP2 MLOAD PUSH2 0x8A2 DUP9 DUP3 PUSH2 0x834 JUMP JUMPDEST SWAP8 POP PUSH2 0x8AD DUP4 PUSH2 0x9A9 JUMP JUMPDEST SWAP3 POP POP PUSH1 0x1 DUP2 ADD SWAP1 POP PUSH2 0x88E JUMP JUMPDEST POP DUP6 SWAP4 POP POP POP POP SWAP3 SWAP2 POP POP JUMP JUMPDEST PUSH2 0x8D1 DUP2 PUSH2 0xA1D JUMP JUMPDEST DUP3 MSTORE POP POP JUMP JUMPDEST PUSH1 0x0 PUSH1 0x20 DUP3 ADD SWAP1 POP PUSH2 0x8EC PUSH1 0x0 DUP4 ADD DUP5 PUSH2 0x85B JUMP JUMPDEST SWAP3 SWAP2 POP POP JUMP JUMPDEST PUSH1 0x0 PUSH1 0x20 DUP3 ADD SWAP1 POP PUSH2 0x907 PUSH1 0x0 DUP4 ADD DUP5 PUSH2 0x8C8 JUMP JUMPDEST SWAP3 SWAP2 POP POP JUMP JUMPDEST PUSH1 0x0 PUSH1 0x40 DUP3 ADD SWAP1 POP PUSH2 0x922 PUSH1 0x0 DUP4 ADD DUP6 PUSH2 0x8C8 JUMP JUMPDEST DUP2 DUP2 SUB PUSH1 0x20 DUP4 ADD MSTORE PUSH2 0x934 DUP2 DUP5 PUSH2 0x86A JUMP JUMPDEST SWAP1 POP SWAP4 SWAP3 POP POP POP JUMP JUMPDEST PUSH1 0x0 PUSH2 0x947 PUSH2 0x958 JUMP JUMPDEST SWAP1 POP PUSH2 0x953 DUP3 DUP3 PUSH2 0xA27 JUMP JUMPDEST SWAP2 SWAP1 POP JUMP JUMPDEST PUSH1 0x0 PUSH1 0x40 MLOAD SWAP1 POP SWAP1 JUMP JUMPDEST PUSH1 0x0 PUSH8 0xFFFFFFFFFFFFFFFF DUP3 GT ISZERO PUSH2 0x97D JUMPI PUSH2 0x97C PUSH2 0xA87 JUMP JUMPDEST JUMPDEST PUSH1 0x20 DUP3 MUL SWAP1 POP PUSH1 0x20 DUP2 ADD SWAP1 POP SWAP2 SWAP1 POP JUMP JUMPDEST PUSH1 0x0 DUP2 SWAP1 POP PUSH1 0x20 DUP3 ADD SWAP1 POP SWAP2 SWAP1 POP JUMP JUMPDEST PUSH1 0x0 DUP2 MLOAD SWAP1 POP SWAP2 SWAP1 POP JUMP JUMPDEST PUSH1 0x0 PUSH1 0x20 DUP3 ADD SWAP1 POP SWAP2 SWAP1 POP JUMP JUMPDEST PUSH1 0x0 DUP3 DUP3 MSTORE PUSH1 0x20 DUP3 ADD SWAP1 POP SWAP3 SWAP2 POP POP JUMP JUMPDEST PUSH1 0x0 PUSH2 0x9D2 DUP3 PUSH2 0x9FD JUMP JUMPDEST SWAP1 POP SWAP2 SWAP1 POP JUMP JUMPDEST PUSH1 0x0 PUSH2 0x9E4 DUP3 PUSH2 0x9C7 JUMP JUMPDEST SWAP1 POP SWAP2 SWAP1 POP JUMP JUMPDEST PUSH1 0x0 PUSH2 0x9F6 DUP3 PUSH2 0x9C7 JUMP JUMPDEST SWAP1 POP SWAP2 SWAP1 POP JUMP JUMPDEST PUSH1 0x0 PUSH20 0xFFFFFFFFFFFFFFFFFFFFFFFFFFFFFFFFFFFFFFFF DUP3 AND SWAP1 POP SWAP2 SWAP1 POP JUMP JUMPDEST PUSH1 0x0 DUP2 SWAP1 POP SWAP2 SWAP1 POP JUMP JUMPDEST PUSH2 0xA30 DUP3 PUSH2 0xACA JUMP JUMPDEST DUP2 ADD DUP2 DUP2 LT PUSH8 0xFFFFFFFFFFFFFFFF DUP3 GT OR ISZERO PUSH2 0xA4F JUMPI PUSH2 0xA4E PUSH2 0xA87 JUMP JUMPDEST JUMPDEST DUP1 PUSH1 0x40 MSTORE POP POP POP JUMP JUMPDEST PUSH32 0x4E487B7100000000000000000000000000000000000000000000000000000000 PUSH1 0x0 MSTORE PUSH1 0x32 PUSH1 0x4 MSTORE PUSH1 0x24 PUSH1 0x0 REVERT JUMPDEST PUSH32 0x4E487B7100000000000000000000000000000000000000000000000000000000 PUSH1 0x0 MSTORE PUSH1 0x41 PUSH1 0x4 MSTORE PUSH1 0x24 PUSH1 0x0 REVERT JUMPDEST PUSH1 0x0 DUP1 REVERT JUMPDEST PUSH1 0x0 DUP1 REVERT JUMPDEST PUSH1 0x0 DUP1 REVERT JUMPDEST PUSH1 0x0 DUP1 REVERT JUMPDEST PUSH1 0x0 PUSH1 0x1F NOT PUSH1 0x1F DUP4 ADD AND SWAP1 POP SWAP2 SWAP1 POP JUMP JUMPDEST PUSH2 0xAE4 DUP2 PUSH2 0x9C7 JUMP JUMPDEST DUP2 EQ PUSH2 0xAEF JUMPI PUSH1 0x0 DUP1 REVERT JUMPDEST POP JUMP JUMPDEST PUSH2 0xAFB DUP2 PUSH2 0x9D9 JUMP JUMPDEST DUP2 EQ PUSH2 0xB06 JUMPI PUSH1 0x0 DUP1 REVERT JUMPDEST POP JUMP JUMPDEST PUSH2 0xB12 DUP2 PUSH2 0x9EB JUMP JUMPDEST DUP2 EQ PUSH2 0xB1D JUMPI PUSH1 0x0 DUP1 REVERT JUMPDEST POP JUMP JUMPDEST PUSH2 0xB29 DUP2 PUSH2 0xA1D JUMP JUMPDEST DUP2 EQ PUSH2 0xB34 JUMPI PUSH1 0x0 DUP1 REVERT JUMPDEST POP JUMP INVALID LOG2 PUSH5 0x6970667358 0x22 SLT KECCAK256 0xE7 0xE8 CALLDATASIZE STATICCALL 0xDE ORIGIN 0x24 0xE1 LOG2 0xB0 0xB0 0xAB GT 0xCC SWAP5 CALLCODE 0x24 0xFB 0xAA 0xD1 SWAP3 CODESIZE PUSH15 0x1D6722F9D3775446DD64736F6C6343 STOP ADDMOD SMOD STOP CALLER "
				},
				"gasEstimates": {
					"creation": {
						"codeDepositCost": "585000",
						"executionCost": "71259",
						"totalCost": "656259"
					},
					"external": {
						"BUSD()": "2514",
						"CalcLpPrice(address,address,address)": "infinite",
						"WBNB()": "2555",
						"price(address,address)": "infinite",
						"token0(address)": "infinite",
						"token1(address)": "infinite",
						"totalSupply(address)": "infinite"
					}
				},
				"methodIdentifiers": {
					"BUSD()": "484f4ea9",
					"CalcLpPrice(address,address,address)": "20ae0b6d",
					"WBNB()": "8dd95002",
					"price(address,address)": "2b00490d",
					"token0(address)": "76bf39a3",
					"token1(address)": "37823795",
					"totalSupply(address)": "e4dc2aa4"
				}
			},
			"storageLayout": {
				"storage": [
					{
						"astId": 332,
						"contract": "contracts/LpPrice.sol:LpUtils",
						"label": "WBNB",
						"offset": 0,
						"slot": "0",
						"type": "t_address"
					},
					{
						"astId": 335,
						"contract": "contracts/LpPrice.sol:LpUtils",
						"label": "BUSD",
						"offset": 0,
						"slot": "1",
						"type": "t_address"
					},
					{
						"astId": 338,
						"contract": "contracts/LpPrice.sol:LpUtils",
						"label": "amount",
						"offset": 0,
						"slot": "2",
						"type": "t_uint256"
					}
				],
				"types": {
					"t_address": {
						"encoding": "inplace",
						"label": "address",
						"numberOfBytes": "20"
					},
					"t_uint256": {
						"encoding": "inplace",
						"label": "uint256",
						"numberOfBytes": "32"
					}
				}
			},
			"userdoc": {
				"kind": "user",
				"methods": {},
				"version": 1
			}
		}
	}
}