{
	"contracts/Utils.sol": {
		"Utils": {
			"abi": [
				{
					"inputs": [
						{
							"internalType": "contract Router",
							"name": "_routerAddress",
							"type": "address"
						}
					],
					"stateMutability": "nonpayable",
					"type": "constructor"
				},
				{
					"anonymous": false,
					"inputs": [
						{
							"indexed": true,
							"internalType": "address",
							"name": "previousOwner",
							"type": "address"
						},
						{
							"indexed": true,
							"internalType": "address",
							"name": "newOwner",
							"type": "address"
						}
					],
					"name": "OwnershipTransferred",
					"type": "event"
				},
				{
					"inputs": [],
					"name": "BUSD",
					"outputs": [
						{
							"internalType": "address",
							"name": "",
							"type": "address"
						}
					],
					"stateMutability": "view",
					"type": "function"
				},
				{
					"inputs": [
						{
							"internalType": "uint256",
							"name": "pid",
							"type": "uint256"
						},
						{
							"internalType": "contract LP",
							"name": "lpAddress",
							"type": "address"
						},
						{
							"internalType": "uint256",
							"name": "isLp",
							"type": "uint256"
						},
						{
							"internalType": "contract MetaMasterChef",
							"name": "MasterChef",
							"type": "address"
						}
					],
					"name": "CalcApy",
					"outputs": [
						{
							"internalType": "uint256",
							"name": "",
							"type": "uint256"
						}
					],
					"stateMutability": "view",
					"type": "function"
				},
				{
					"inputs": [
						{
							"internalType": "contract LP",
							"name": "lpAddress",
							"type": "address"
						}
					],
					"name": "CalcLpPrice",
					"outputs": [
						{
							"internalType": "uint256",
							"name": "",
							"type": "uint256"
						}
					],
					"stateMutability": "view",
					"type": "function"
				},
				{
					"inputs": [
						{
							"internalType": "address",
							"name": "token",
							"type": "address"
						}
					],
					"name": "Tokenprice",
					"outputs": [
						{
							"internalType": "uint256",
							"name": "",
							"type": "uint256"
						}
					],
					"stateMutability": "view",
					"type": "function"
				},
				{
					"inputs": [],
					"name": "WBNB",
					"outputs": [
						{
							"internalType": "address",
							"name": "",
							"type": "address"
						}
					],
					"stateMutability": "view",
					"type": "function"
				},
				{
					"inputs": [
						{
							"internalType": "address",
							"name": "token",
							"type": "address"
						}
					],
					"name": "WBNBPrice",
					"outputs": [
						{
							"internalType": "uint256",
							"name": "",
							"type": "uint256"
						}
					],
					"stateMutability": "view",
					"type": "function"
				},
				{
					"inputs": [
						{
							"internalType": "uint256",
							"name": "pid",
							"type": "uint256"
						},
						{
							"internalType": "contract LP",
							"name": "lpAddress",
							"type": "address"
						},
						{
							"internalType": "uint256",
							"name": "isLp",
							"type": "uint256"
						},
						{
							"internalType": "contract MetaMasterChef",
							"name": "MasterChef",
							"type": "address"
						}
					],
					"name": "calcPoolTVLInUSD",
					"outputs": [
						{
							"internalType": "uint256",
							"name": "",
							"type": "uint256"
						}
					],
					"stateMutability": "view",
					"type": "function"
				},
				{
					"inputs": [
						{
							"internalType": "uint256",
							"name": "pid",
							"type": "uint256"
						},
						{
							"internalType": "contract MetaMasterChef",
							"name": "MasterChef",
							"type": "address"
						}
					],
					"name": "getPoolWeight",
					"outputs": [
						{
							"internalType": "uint256",
							"name": "",
							"type": "uint256"
						}
					],
					"stateMutability": "view",
					"type": "function"
				},
				{
					"inputs": [],
					"name": "owner",
					"outputs": [
						{
							"internalType": "address",
							"name": "",
							"type": "address"
						}
					],
					"stateMutability": "view",
					"type": "function"
				},
				{
					"inputs": [],
					"name": "renounceOwnership",
					"outputs": [],
					"stateMutability": "nonpayable",
					"type": "function"
				},
				{
					"inputs": [],
					"name": "routerAddress",
					"outputs": [
						{
							"internalType": "contract Router",
							"name": "",
							"type": "address"
						}
					],
					"stateMutability": "view",
					"type": "function"
				},
				{
					"inputs": [
						{
							"internalType": "contract Router",
							"name": "_routerAddress",
							"type": "address"
						}
					],
					"name": "setRouter",
					"outputs": [],
					"stateMutability": "nonpayable",
					"type": "function"
				},
				{
					"inputs": [
						{
							"internalType": "address",
							"name": "newOwner",
							"type": "address"
						}
					],
					"name": "transferOwnership",
					"outputs": [],
					"stateMutability": "nonpayable",
					"type": "function"
				}
			],
			"devdoc": {
				"kind": "dev",
				"methods": {
					"owner()": {
						"details": "Returns the address of the current owner."
					},
					"renounceOwnership()": {
						"details": "Leaves the contract without owner. It will not be possible to call `onlyOwner` functions anymore. Can only be called by the current owner. NOTE: Renouncing ownership will leave the contract without an owner, thereby removing any functionality that is only available to the owner."
					},
					"transferOwnership(address)": {
						"details": "Transfers ownership of the contract to a new account (`newOwner`). Can only be called by the current owner."
					}
				},
				"version": 1
			},
			"evm": {
				"assembly": "    /* \"contracts/Utils.sol\":17198:20712  contract Utils is Ownable{\r... */\n  mstore(0x40, 0x80)\n    /* \"contracts/Utils.sol\":17285:17327  0xae13d989daC2f0dEbFf460aC112a837C89BAa7cd */\n  0xae13d989dac2f0debff460ac112a837c89baa7cd\n    /* \"contracts/Utils.sol\":17263:17327  address public WBNB = 0xae13d989daC2f0dEbFf460aC112a837C89BAa7cd */\n  0x01\n  exp(0x0100, 0x00)\n  dup2\n  sload\n  dup2\n  0xffffffffffffffffffffffffffffffffffffffff\n  mul\n  not\n  and\n  swap1\n  dup4\n  0xffffffffffffffffffffffffffffffffffffffff\n  and\n  mul\n  or\n  swap1\n  sstore\n  pop\n    /* \"contracts/Utils.sol\":17356:17398  0x78867BbEeF44f2326bF8DDd1941a4439382EF2A7 */\n  0x78867bbeef44f2326bf8ddd1941a4439382ef2a7\n    /* \"contracts/Utils.sol\":17334:17398  address public BUSD = 0x78867BbEeF44f2326bF8DDd1941a4439382EF2A7 */\n  0x02\n  exp(0x0100, 0x00)\n  dup2\n  sload\n  dup2\n  0xffffffffffffffffffffffffffffffffffffffff\n  mul\n  not\n  and\n  swap1\n  dup4\n  0xffffffffffffffffffffffffffffffffffffffff\n  and\n  mul\n  or\n  swap1\n  sstore\n  pop\n    /* \"contracts/Utils.sol\":17422:17441  1000000000000000000 */\n  0x0de0b6b3a7640000\n    /* \"contracts/Utils.sol\":17405:17441  uint256 amount = 1000000000000000000 */\n  0x03\n  sstore\n    /* \"contracts/Utils.sol\":17510:17518  10512000 */\n  0xa06680\n    /* \"contracts/Utils.sol\":17484:17518  uint256 BLOCKS_PER_YEAR = 10512000 */\n  0x05\n  sstore\n    /* \"contracts/Utils.sol\":17528:17613  constructor(Router _routerAddress) {\r... */\n  callvalue\n  dup1\n  iszero\n  tag_1\n  jumpi\n  0x00\n  dup1\n  revert\ntag_1:\n  pop\n  mload(0x40)\n  sub(codesize, bytecodeSize)\n  dup1\n  bytecodeSize\n  dup4\n  codecopy\n  dup2\n  dup2\n  add\n  0x40\n  mstore\n  dup2\n  add\n  swap1\n  tag_2\n  swap2\n  swap1\n  tag_3\n  jump\t// in\ntag_2:\n    /* \"contracts/Utils.sol\":13728:13760  _transferOwnership(_msgSender()) */\n  tag_7\n    /* \"contracts/Utils.sol\":13747:13759  _msgSender() */\n  tag_8\n    /* \"contracts/Utils.sol\":13747:13757  _msgSender */\n  shl(0x20, tag_9)\n    /* \"contracts/Utils.sol\":13747:13759  _msgSender() */\n  0x20\n  shr\n  jump\t// in\ntag_8:\n    /* \"contracts/Utils.sol\":13728:13746  _transferOwnership */\n  shl(0x20, tag_10)\n    /* \"contracts/Utils.sol\":13728:13760  _transferOwnership(_msgSender()) */\n  0x20\n  shr\n  jump\t// in\ntag_7:\n    /* \"contracts/Utils.sol\":17591:17605  _routerAddress */\n  dup1\n    /* \"contracts/Utils.sol\":17575:17588  routerAddress */\n  0x04\n  0x00\n    /* \"contracts/Utils.sol\":17575:17605  routerAddress = _routerAddress */\n  0x0100\n  exp\n  dup2\n  sload\n  dup2\n  0xffffffffffffffffffffffffffffffffffffffff\n  mul\n  not\n  and\n  swap1\n  dup4\n  0xffffffffffffffffffffffffffffffffffffffff\n  and\n  mul\n  or\n  swap1\n  sstore\n  pop\n    /* \"contracts/Utils.sol\":17528:17613  constructor(Router _routerAddress) {\r... */\n  pop\n    /* \"contracts/Utils.sol\":17198:20712  contract Utils is Ownable{\r... */\n  jump(tag_12)\n    /* \"contracts/Utils.sol\":13223:13321  function _msgSender() internal view virtual returns (address) {\r... */\ntag_9:\n    /* \"contracts/Utils.sol\":13276:13283  address */\n  0x00\n    /* \"contracts/Utils.sol\":13303:13313  msg.sender */\n  caller\n    /* \"contracts/Utils.sol\":13296:13313  return msg.sender */\n  swap1\n  pop\n    /* \"contracts/Utils.sol\":13223:13321  function _msgSender() internal view virtual returns (address) {\r... */\n  swap1\n  jump\t// out\n    /* \"contracts/Utils.sol\":15119:15310  function _transferOwnership(address newOwner) internal virtual {\r... */\ntag_10:\n    /* \"contracts/Utils.sol\":15193:15209  address oldOwner */\n  0x00\n    /* \"contracts/Utils.sol\":15212:15218  _owner */\n  dup1\n  0x00\n  swap1\n  sload\n  swap1\n  0x0100\n  exp\n  swap1\n  div\n  0xffffffffffffffffffffffffffffffffffffffff\n  and\n    /* \"contracts/Utils.sol\":15193:15218  address oldOwner = _owner */\n  swap1\n  pop\n    /* \"contracts/Utils.sol\":15238:15246  newOwner */\n  dup2\n    /* \"contracts/Utils.sol\":15229:15235  _owner */\n  0x00\n  dup1\n    /* \"contracts/Utils.sol\":15229:15246  _owner = newOwner */\n  0x0100\n  exp\n  dup2\n  sload\n  dup2\n  0xffffffffffffffffffffffffffffffffffffffff\n  mul\n  not\n  and\n  swap1\n  dup4\n  0xffffffffffffffffffffffffffffffffffffffff\n  and\n  mul\n  or\n  swap1\n  sstore\n  pop\n    /* \"contracts/Utils.sol\":15293:15301  newOwner */\n  dup2\n    /* \"contracts/Utils.sol\":15262:15302  OwnershipTransferred(oldOwner, newOwner) */\n  0xffffffffffffffffffffffffffffffffffffffff\n  and\n    /* \"contracts/Utils.sol\":15283:15291  oldOwner */\n  dup2\n    /* \"contracts/Utils.sol\":15262:15302  OwnershipTransferred(oldOwner, newOwner) */\n  0xffffffffffffffffffffffffffffffffffffffff\n  and\n  0x8be0079c531659141344cd1fd0a4f28419497f9722a3daafe3b4186f6b6457e0\n  mload(0x40)\n  mload(0x40)\n  dup1\n  swap2\n  sub\n  swap1\n  log3\n    /* \"contracts/Utils.sol\":15182:15310  {\r... */\n  pop\n    /* \"contracts/Utils.sol\":15119:15310  function _transferOwnership(address newOwner) internal virtual {\r... */\n  pop\n  jump\t// out\n    /* \"#utility.yul\":7:178   */\ntag_16:\n    /* \"#utility.yul\":78:83   */\n  0x00\n    /* \"#utility.yul\":109:115   */\n  dup2\n    /* \"#utility.yul\":103:116   */\n  mload\n    /* \"#utility.yul\":94:116   */\n  swap1\n  pop\n    /* \"#utility.yul\":125:172   */\n  tag_18\n    /* \"#utility.yul\":166:171   */\n  dup2\n    /* \"#utility.yul\":125:172   */\n  tag_19\n  jump\t// in\ntag_18:\n    /* \"#utility.yul\":7:178   */\n  swap3\n  swap2\n  pop\n  pop\n  jump\t// out\n    /* \"#utility.yul\":184:563   */\ntag_3:\n    /* \"#utility.yul\":268:274   */\n  0x00\n    /* \"#utility.yul\":317:319   */\n  0x20\n    /* \"#utility.yul\":305:314   */\n  dup3\n    /* \"#utility.yul\":296:303   */\n  dup5\n    /* \"#utility.yul\":292:315   */\n  sub\n    /* \"#utility.yul\":288:320   */\n  slt\n    /* \"#utility.yul\":285:404   */\n  iszero\n  tag_21\n  jumpi\n    /* \"#utility.yul\":323:402   */\n  tag_22\n  tag_23\n  jump\t// in\ntag_22:\n    /* \"#utility.yul\":285:404   */\ntag_21:\n    /* \"#utility.yul\":443:444   */\n  0x00\n    /* \"#utility.yul\":468:546   */\n  tag_24\n    /* \"#utility.yul\":538:545   */\n  dup5\n    /* \"#utility.yul\":529:535   */\n  dup3\n    /* \"#utility.yul\":518:527   */\n  dup6\n    /* \"#utility.yul\":514:536   */\n  add\n    /* \"#utility.yul\":468:546   */\n  tag_16\n  jump\t// in\ntag_24:\n    /* \"#utility.yul\":458:546   */\n  swap2\n  pop\n    /* \"#utility.yul\":414:556   */\n  pop\n    /* \"#utility.yul\":184:563   */\n  swap3\n  swap2\n  pop\n  pop\n  jump\t// out\n    /* \"#utility.yul\":650:746   */\ntag_27:\n    /* \"#utility.yul\":687:694   */\n  0x00\n    /* \"#utility.yul\":716:740   */\n  tag_29\n    /* \"#utility.yul\":734:739   */\n  dup3\n    /* \"#utility.yul\":716:740   */\n  tag_30\n  jump\t// in\ntag_29:\n    /* \"#utility.yul\":705:740   */\n  swap1\n  pop\n    /* \"#utility.yul\":650:746   */\n  swap2\n  swap1\n  pop\n  jump\t// out\n    /* \"#utility.yul\":752:862   */\ntag_31:\n    /* \"#utility.yul\":803:810   */\n  0x00\n    /* \"#utility.yul\":832:856   */\n  tag_33\n    /* \"#utility.yul\":850:855   */\n  dup3\n    /* \"#utility.yul\":832:856   */\n  tag_27\n  jump\t// in\ntag_33:\n    /* \"#utility.yul\":821:856   */\n  swap1\n  pop\n    /* \"#utility.yul\":752:862   */\n  swap2\n  swap1\n  pop\n  jump\t// out\n    /* \"#utility.yul\":868:994   */\ntag_30:\n    /* \"#utility.yul\":905:912   */\n  0x00\n    /* \"#utility.yul\":945:987   */\n  0xffffffffffffffffffffffffffffffffffffffff\n    /* \"#utility.yul\":938:943   */\n  dup3\n    /* \"#utility.yul\":934:988   */\n  and\n    /* \"#utility.yul\":923:988   */\n  swap1\n  pop\n    /* \"#utility.yul\":868:994   */\n  swap2\n  swap1\n  pop\n  jump\t// out\n    /* \"#utility.yul\":1123:1240   */\ntag_23:\n    /* \"#utility.yul\":1232:1233   */\n  0x00\n    /* \"#utility.yul\":1229:1230   */\n  dup1\n    /* \"#utility.yul\":1222:1234   */\n  revert\n    /* \"#utility.yul\":1246:1396   */\ntag_19:\n    /* \"#utility.yul\":1333:1371   */\n  tag_39\n    /* \"#utility.yul\":1365:1370   */\n  dup2\n    /* \"#utility.yul\":1333:1371   */\n  tag_31\n  jump\t// in\ntag_39:\n    /* \"#utility.yul\":1326:1331   */\n  dup2\n    /* \"#utility.yul\":1323:1372   */\n  eq\n    /* \"#utility.yul\":1313:1390   */\n  tag_40\n  jumpi\n    /* \"#utility.yul\":1386:1387   */\n  0x00\n    /* \"#utility.yul\":1383:1384   */\n  dup1\n    /* \"#utility.yul\":1376:1388   */\n  revert\n    /* \"#utility.yul\":1313:1390   */\ntag_40:\n    /* \"#utility.yul\":1246:1396   */\n  pop\n  jump\t// out\n    /* \"contracts/Utils.sol\":17198:20712  contract Utils is Ownable{\r... */\ntag_12:\n  dataSize(sub_0)\n  dup1\n  dataOffset(sub_0)\n  0x00\n  codecopy\n  0x00\n  return\nstop\n\nsub_0: assembly {\n        /* \"contracts/Utils.sol\":17198:20712  contract Utils is Ownable{\r... */\n      mstore(0x40, 0x80)\n      callvalue\n      dup1\n      iszero\n      tag_1\n      jumpi\n      0x00\n      dup1\n      revert\n    tag_1:\n      pop\n      jumpi(tag_2, lt(calldatasize, 0x04))\n      shr(0xe0, calldataload(0x00))\n      dup1\n      0x715018a6\n      gt\n      tag_16\n      jumpi\n      dup1\n      0xc0d78655\n      gt\n      tag_17\n      jumpi\n      dup1\n      0xc0d78655\n      eq\n      tag_12\n      jumpi\n      dup1\n      0xd979fb5f\n      eq\n      tag_13\n      jumpi\n      dup1\n      0xdbb79348\n      eq\n      tag_14\n      jumpi\n      dup1\n      0xf2fde38b\n      eq\n      tag_15\n      jumpi\n      jump(tag_2)\n    tag_17:\n      dup1\n      0x715018a6\n      eq\n      tag_9\n      jumpi\n      dup1\n      0x8da5cb5b\n      eq\n      tag_10\n      jumpi\n      dup1\n      0x8dd95002\n      eq\n      tag_11\n      jumpi\n      jump(tag_2)\n    tag_16:\n      dup1\n      0x19047f8a\n      eq\n      tag_3\n      jumpi\n      dup1\n      0x215cc989\n      eq\n      tag_4\n      jumpi\n      dup1\n      0x3268cc56\n      eq\n      tag_5\n      jumpi\n      dup1\n      0x3b979d45\n      eq\n      tag_6\n      jumpi\n      dup1\n      0x484f4ea9\n      eq\n      tag_7\n      jumpi\n      dup1\n      0x4abddbe3\n      eq\n      tag_8\n      jumpi\n    tag_2:\n      0x00\n      dup1\n      revert\n        /* \"contracts/Utils.sol\":17753:18012  function Tokenprice(address token) public view returns(uint256){\r... */\n    tag_3:\n      tag_18\n      0x04\n      dup1\n      calldatasize\n      sub\n      dup2\n      add\n      swap1\n      tag_19\n      swap2\n      swap1\n      tag_20\n      jump\t// in\n    tag_19:\n      tag_21\n      jump\t// in\n    tag_18:\n      mload(0x40)\n      tag_22\n      swap2\n      swap1\n      tag_23\n      jump\t// in\n    tag_22:\n      mload(0x40)\n      dup1\n      swap2\n      sub\n      swap1\n      return\n        /* \"contracts/Utils.sol\":18295:19143  function CalcLpPrice(LP lpAddress) public view returns(uint256){\r... */\n    tag_4:\n      tag_24\n      0x04\n      dup1\n      calldatasize\n      sub\n      dup2\n      add\n      swap1\n      tag_25\n      swap2\n      swap1\n      tag_26\n      jump\t// in\n    tag_25:\n      tag_27\n      jump\t// in\n    tag_24:\n      mload(0x40)\n      tag_28\n      swap2\n      swap1\n      tag_23\n      jump\t// in\n    tag_28:\n      mload(0x40)\n      dup1\n      swap2\n      sub\n      swap1\n      return\n        /* \"contracts/Utils.sol\":17448:17475  Router public routerAddress */\n    tag_5:\n      tag_29\n      tag_30\n      jump\t// in\n    tag_29:\n      mload(0x40)\n      tag_31\n      swap2\n      swap1\n      tag_32\n      jump\t// in\n    tag_31:\n      mload(0x40)\n      dup1\n      swap2\n      sub\n      swap1\n      return\n        /* \"contracts/Utils.sol\":18037:18270  function WBNBPrice(address token) public view returns(uint256){\r... */\n    tag_6:\n      tag_33\n      0x04\n      dup1\n      calldatasize\n      sub\n      dup2\n      add\n      swap1\n      tag_34\n      swap2\n      swap1\n      tag_20\n      jump\t// in\n    tag_34:\n      tag_35\n      jump\t// in\n    tag_33:\n      mload(0x40)\n      tag_36\n      swap2\n      swap1\n      tag_23\n      jump\t// in\n    tag_36:\n      mload(0x40)\n      dup1\n      swap2\n      sub\n      swap1\n      return\n        /* \"contracts/Utils.sol\":17334:17398  address public BUSD = 0x78867BbEeF44f2326bF8DDd1941a4439382EF2A7 */\n    tag_7:\n      tag_37\n      tag_38\n      jump\t// in\n    tag_37:\n      mload(0x40)\n      tag_39\n      swap2\n      swap1\n      tag_40\n      jump\t// in\n    tag_39:\n      mload(0x40)\n      dup1\n      swap2\n      sub\n      swap1\n      return\n        /* \"contracts/Utils.sol\":19745:20001  function getPoolWeight(uint256 pid, MetaMasterChef MasterChef) external view returns(uint256){\r... */\n    tag_8:\n      tag_41\n      0x04\n      dup1\n      calldatasize\n      sub\n      dup2\n      add\n      swap1\n      tag_42\n      swap2\n      swap1\n      tag_43\n      jump\t// in\n    tag_42:\n      tag_44\n      jump\t// in\n    tag_41:\n      mload(0x40)\n      tag_45\n      swap2\n      swap1\n      tag_23\n      jump\t// in\n    tag_45:\n      mload(0x40)\n      dup1\n      swap2\n      sub\n      swap1\n      return\n        /* \"contracts/Utils.sol\":14500:14603  function renounceOwnership() public virtual onlyOwner {\r... */\n    tag_9:\n      tag_46\n      tag_47\n      jump\t// in\n    tag_46:\n      stop\n        /* \"contracts/Utils.sol\":13849:13936  function owner() public view virtual returns (address) {\r... */\n    tag_10:\n      tag_48\n      tag_49\n      jump\t// in\n    tag_48:\n      mload(0x40)\n      tag_50\n      swap2\n      swap1\n      tag_40\n      jump\t// in\n    tag_50:\n      mload(0x40)\n      dup1\n      swap2\n      sub\n      swap1\n      return\n        /* \"contracts/Utils.sol\":17263:17327  address public WBNB = 0xae13d989daC2f0dEbFf460aC112a837C89BAa7cd */\n    tag_11:\n      tag_51\n      tag_52\n      jump\t// in\n    tag_51:\n      mload(0x40)\n      tag_53\n      swap2\n      swap1\n      tag_40\n      jump\t// in\n    tag_53:\n      mload(0x40)\n      dup1\n      swap2\n      sub\n      swap1\n      return\n        /* \"contracts/Utils.sol\":17621:17728  function setRouter(Router _routerAddress) public onlyOwner{\r... */\n    tag_12:\n      tag_54\n      0x04\n      dup1\n      calldatasize\n      sub\n      dup2\n      add\n      swap1\n      tag_55\n      swap2\n      swap1\n      tag_56\n      jump\t// in\n    tag_55:\n      tag_57\n      jump\t// in\n    tag_54:\n      stop\n        /* \"contracts/Utils.sol\":19166:19737  function calcPoolTVLInUSD(uint256 pid, LP lpAddress, uint256 isLp, MetaMasterChef MasterChef) public view returns(uint256){\r... */\n    tag_13:\n      tag_58\n      0x04\n      dup1\n      calldatasize\n      sub\n      dup2\n      add\n      swap1\n      tag_59\n      swap2\n      swap1\n      tag_60\n      jump\t// in\n    tag_59:\n      tag_61\n      jump\t// in\n    tag_58:\n      mload(0x40)\n      tag_62\n      swap2\n      swap1\n      tag_23\n      jump\t// in\n    tag_62:\n      mload(0x40)\n      dup1\n      swap2\n      sub\n      swap1\n      return\n        /* \"contracts/Utils.sol\":20009:20709  function CalcApy(uint256 pid, LP lpAddress,uint256 isLp, MetaMasterChef MasterChef) external view returns(uint256){\r... */\n    tag_14:\n      tag_63\n      0x04\n      dup1\n      calldatasize\n      sub\n      dup2\n      add\n      swap1\n      tag_64\n      swap2\n      swap1\n      tag_60\n      jump\t// in\n    tag_64:\n      tag_65\n      jump\t// in\n    tag_63:\n      mload(0x40)\n      tag_66\n      swap2\n      swap1\n      tag_23\n      jump\t// in\n    tag_66:\n      mload(0x40)\n      dup1\n      swap2\n      sub\n      swap1\n      return\n        /* \"contracts/Utils.sol\":14758:14959  function transferOwnership(address newOwner) public virtual onlyOwner {\r... */\n    tag_15:\n      tag_67\n      0x04\n      dup1\n      calldatasize\n      sub\n      dup2\n      add\n      swap1\n      tag_68\n      swap2\n      swap1\n      tag_20\n      jump\t// in\n    tag_68:\n      tag_69\n      jump\t// in\n    tag_67:\n      stop\n        /* \"contracts/Utils.sol\":17753:18012  function Tokenprice(address token) public view returns(uint256){\r... */\n    tag_21:\n        /* \"contracts/Utils.sol\":17808:17815  uint256 */\n      0x00\n        /* \"contracts/Utils.sol\":17827:17848  address[] memory path */\n      dup1\n        /* \"contracts/Utils.sol\":17865:17866  3 */\n      0x03\n        /* \"contracts/Utils.sol\":17851:17867  new address[](3) */\n      0xffffffffffffffff\n      dup2\n      gt\n      iszero\n      tag_71\n      jumpi\n      tag_72\n      tag_73\n      jump\t// in\n    tag_72:\n    tag_71:\n      mload(0x40)\n      swap1\n      dup1\n      dup3\n      mstore\n      dup1\n      0x20\n      mul\n      0x20\n      add\n      dup3\n      add\n      0x40\n      mstore\n      dup1\n      iszero\n      tag_74\n      jumpi\n      dup2\n      0x20\n      add\n      0x20\n      dup3\n      mul\n      dup1\n      calldatasize\n      dup4\n      calldatacopy\n      dup1\n      dup3\n      add\n      swap2\n      pop\n      pop\n      swap1\n      pop\n    tag_74:\n      pop\n        /* \"contracts/Utils.sol\":17827:17867  address[] memory path = new address[](3) */\n      swap1\n      pop\n        /* \"contracts/Utils.sol\":17888:17893  token */\n      dup3\n        /* \"contracts/Utils.sol\":17878:17882  path */\n      dup2\n        /* \"contracts/Utils.sol\":17883:17884  0 */\n      0x00\n        /* \"contracts/Utils.sol\":17878:17885  path[0] */\n      dup2\n      mload\n      dup2\n      lt\n      tag_75\n      jumpi\n      tag_76\n      tag_77\n      jump\t// in\n    tag_76:\n    tag_75:\n      0x20\n      mul\n      0x20\n      add\n      add\n        /* \"contracts/Utils.sol\":17878:17893  path[0] = token */\n      swap1\n      0xffffffffffffffffffffffffffffffffffffffff\n      and\n      swap1\n      dup2\n      0xffffffffffffffffffffffffffffffffffffffff\n      and\n      dup2\n      mstore\n      pop\n      pop\n        /* \"contracts/Utils.sol\":17914:17918  WBNB */\n      0x01\n      0x00\n      swap1\n      sload\n      swap1\n      0x0100\n      exp\n      swap1\n      div\n      0xffffffffffffffffffffffffffffffffffffffff\n      and\n        /* \"contracts/Utils.sol\":17904:17908  path */\n      dup2\n        /* \"contracts/Utils.sol\":17909:17910  1 */\n      0x01\n        /* \"contracts/Utils.sol\":17904:17911  path[1] */\n      dup2\n      mload\n      dup2\n      lt\n      tag_78\n      jumpi\n      tag_79\n      tag_77\n      jump\t// in\n    tag_79:\n    tag_78:\n      0x20\n      mul\n      0x20\n      add\n      add\n        /* \"contracts/Utils.sol\":17904:17918  path[1] = WBNB */\n      swap1\n      0xffffffffffffffffffffffffffffffffffffffff\n      and\n      swap1\n      dup2\n      0xffffffffffffffffffffffffffffffffffffffff\n      and\n      dup2\n      mstore\n      pop\n      pop\n        /* \"contracts/Utils.sol\":17939:17943  BUSD */\n      0x02\n      0x00\n      swap1\n      sload\n      swap1\n      0x0100\n      exp\n      swap1\n      div\n      0xffffffffffffffffffffffffffffffffffffffff\n      and\n        /* \"contracts/Utils.sol\":17929:17933  path */\n      dup2\n        /* \"contracts/Utils.sol\":17934:17935  2 */\n      0x02\n        /* \"contracts/Utils.sol\":17929:17936  path[2] */\n      dup2\n      mload\n      dup2\n      lt\n      tag_80\n      jumpi\n      tag_81\n      tag_77\n      jump\t// in\n    tag_81:\n    tag_80:\n      0x20\n      mul\n      0x20\n      add\n      add\n        /* \"contracts/Utils.sol\":17929:17943  path[2] = BUSD */\n      swap1\n      0xffffffffffffffffffffffffffffffffffffffff\n      and\n      swap1\n      dup2\n      0xffffffffffffffffffffffffffffffffffffffff\n      and\n      dup2\n      mstore\n      pop\n      pop\n        /* \"contracts/Utils.sol\":17961:17974  routerAddress */\n      0x04\n      0x00\n      swap1\n      sload\n      swap1\n      0x0100\n      exp\n      swap1\n      div\n      0xffffffffffffffffffffffffffffffffffffffff\n      and\n        /* \"contracts/Utils.sol\":17961:17988  routerAddress.getAmountsOut */\n      0xffffffffffffffffffffffffffffffffffffffff\n      and\n      0xd06ca61f\n        /* \"contracts/Utils.sol\":17989:17995  amount */\n      sload(0x03)\n        /* \"contracts/Utils.sol\":17996:18000  path */\n      dup4\n        /* \"contracts/Utils.sol\":17961:18001  routerAddress.getAmountsOut(amount,path) */\n      mload(0x40)\n      dup4\n      0xffffffff\n      and\n      0xe0\n      shl\n      dup2\n      mstore\n      0x04\n      add\n      tag_82\n      swap3\n      swap2\n      swap1\n      tag_83\n      jump\t// in\n    tag_82:\n      0x00\n      mload(0x40)\n      dup1\n      dup4\n      sub\n      dup2\n      dup7\n      dup1\n      extcodesize\n      iszero\n      dup1\n      iszero\n      tag_84\n      jumpi\n      0x00\n      dup1\n      revert\n    tag_84:\n      pop\n      gas\n      staticcall\n      iszero\n      dup1\n      iszero\n      tag_86\n      jumpi\n      returndatasize\n      0x00\n      dup1\n      returndatacopy\n      revert(0x00, returndatasize)\n    tag_86:\n      pop\n      pop\n      pop\n      pop\n      mload(0x40)\n      returndatasize\n      0x00\n      dup3\n      returndatacopy\n      returndatasize\n      not(0x1f)\n      0x1f\n      dup3\n      add\n      and\n      dup3\n      add\n      dup1\n      0x40\n      mstore\n      pop\n      dup2\n      add\n      swap1\n      tag_87\n      swap2\n      swap1\n      tag_88\n      jump\t// in\n    tag_87:\n        /* \"contracts/Utils.sol\":18002:18003  2 */\n      0x02\n        /* \"contracts/Utils.sol\":17961:18004  routerAddress.getAmountsOut(amount,path)[2] */\n      dup2\n      mload\n      dup2\n      lt\n      tag_89\n      jumpi\n      tag_90\n      tag_77\n      jump\t// in\n    tag_90:\n    tag_89:\n      0x20\n      mul\n      0x20\n      add\n      add\n      mload\n        /* \"contracts/Utils.sol\":17954:18004  return routerAddress.getAmountsOut(amount,path)[2] */\n      swap2\n      pop\n      pop\n        /* \"contracts/Utils.sol\":17753:18012  function Tokenprice(address token) public view returns(uint256){\r... */\n      swap2\n      swap1\n      pop\n      jump\t// out\n        /* \"contracts/Utils.sol\":18295:19143  function CalcLpPrice(LP lpAddress) public view returns(uint256){\r... */\n    tag_27:\n        /* \"contracts/Utils.sol\":18350:18357  uint256 */\n      0x00\n        /* \"contracts/Utils.sol\":18369:18383  uint256 phase1 */\n      dup1\n        /* \"contracts/Utils.sol\":18394:18408  uint256 phase2 */\n      0x00\n        /* \"contracts/Utils.sol\":18447:18456  lpAddress */\n      dup4\n        /* \"contracts/Utils.sol\":18447:18463  lpAddress.token0 */\n      0xffffffffffffffffffffffffffffffffffffffff\n      and\n      0x0dfe1681\n        /* \"contracts/Utils.sol\":18447:18465  lpAddress.token0() */\n      mload(0x40)\n      dup2\n      0xffffffff\n      and\n      0xe0\n      shl\n      dup2\n      mstore\n      0x04\n      add\n      0x20\n      mload(0x40)\n      dup1\n      dup4\n      sub\n      dup2\n      dup7\n      dup1\n      extcodesize\n      iszero\n      dup1\n      iszero\n      tag_92\n      jumpi\n      0x00\n      dup1\n      revert\n    tag_92:\n      pop\n      gas\n      staticcall\n      iszero\n      dup1\n      iszero\n      tag_94\n      jumpi\n      returndatasize\n      0x00\n      dup1\n      returndatacopy\n      revert(0x00, returndatasize)\n    tag_94:\n      pop\n      pop\n      pop\n      pop\n      mload(0x40)\n      returndatasize\n      not(0x1f)\n      0x1f\n      dup3\n      add\n      and\n      dup3\n      add\n      dup1\n      0x40\n      mstore\n      pop\n      dup2\n      add\n      swap1\n      tag_95\n      swap2\n      swap1\n      tag_96\n      jump\t// in\n    tag_95:\n        /* \"contracts/Utils.sol\":18422:18466  address(WBNB) == address(lpAddress.token0()) */\n      0xffffffffffffffffffffffffffffffffffffffff\n      and\n        /* \"contracts/Utils.sol\":18430:18434  WBNB */\n      0x01\n      0x00\n      swap1\n      sload\n      swap1\n      0x0100\n      exp\n      swap1\n      div\n      0xffffffffffffffffffffffffffffffffffffffff\n      and\n        /* \"contracts/Utils.sol\":18422:18466  address(WBNB) == address(lpAddress.token0()) */\n      0xffffffffffffffffffffffffffffffffffffffff\n      and\n      eq\n        /* \"contracts/Utils.sol\":18419:18732  if(address(WBNB) == address(lpAddress.token0())){\r... */\n      iszero\n      tag_97\n      jumpi\n        /* \"contracts/Utils.sol\":18492:18584  lpAddress.token0().balanceOf(address(lpAddress)).mul(WBNBPrice(address(lpAddress.token0()))) */\n      tag_98\n        /* \"contracts/Utils.sol\":18545:18583  WBNBPrice(address(lpAddress.token0())) */\n      tag_99\n        /* \"contracts/Utils.sol\":18563:18572  lpAddress */\n      dup6\n        /* \"contracts/Utils.sol\":18563:18579  lpAddress.token0 */\n      0xffffffffffffffffffffffffffffffffffffffff\n      and\n      0x0dfe1681\n        /* \"contracts/Utils.sol\":18563:18581  lpAddress.token0() */\n      mload(0x40)\n      dup2\n      0xffffffff\n      and\n      0xe0\n      shl\n      dup2\n      mstore\n      0x04\n      add\n      0x20\n      mload(0x40)\n      dup1\n      dup4\n      sub\n      dup2\n      dup7\n      dup1\n      extcodesize\n      iszero\n      dup1\n      iszero\n      tag_100\n      jumpi\n      0x00\n      dup1\n      revert\n    tag_100:\n      pop\n      gas\n      staticcall\n      iszero\n      dup1\n      iszero\n      tag_102\n      jumpi\n      returndatasize\n      0x00\n      dup1\n      returndatacopy\n      revert(0x00, returndatasize)\n    tag_102:\n      pop\n      pop\n      pop\n      pop\n      mload(0x40)\n      returndatasize\n      not(0x1f)\n      0x1f\n      dup3\n      add\n      and\n      dup3\n      add\n      dup1\n      0x40\n      mstore\n      pop\n      dup2\n      add\n      swap1\n      tag_103\n      swap2\n      swap1\n      tag_96\n      jump\t// in\n    tag_103:\n        /* \"contracts/Utils.sol\":18545:18554  WBNBPrice */\n      tag_35\n        /* \"contracts/Utils.sol\":18545:18583  WBNBPrice(address(lpAddress.token0())) */\n      jump\t// in\n    tag_99:\n        /* \"contracts/Utils.sol\":18492:18501  lpAddress */\n      dup6\n        /* \"contracts/Utils.sol\":18492:18508  lpAddress.token0 */\n      0xffffffffffffffffffffffffffffffffffffffff\n      and\n      0x0dfe1681\n        /* \"contracts/Utils.sol\":18492:18510  lpAddress.token0() */\n      mload(0x40)\n      dup2\n      0xffffffff\n      and\n      0xe0\n      shl\n      dup2\n      mstore\n      0x04\n      add\n      0x20\n      mload(0x40)\n      dup1\n      dup4\n      sub\n      dup2\n      dup7\n      dup1\n      extcodesize\n      iszero\n      dup1\n      iszero\n      tag_104\n      jumpi\n      0x00\n      dup1\n      revert\n    tag_104:\n      pop\n      gas\n      staticcall\n      iszero\n      dup1\n      iszero\n      tag_106\n      jumpi\n      returndatasize\n      0x00\n      dup1\n      returndatacopy\n      revert(0x00, returndatasize)\n    tag_106:\n      pop\n      pop\n      pop\n      pop\n      mload(0x40)\n      returndatasize\n      not(0x1f)\n      0x1f\n      dup3\n      add\n      and\n      dup3\n      add\n      dup1\n      0x40\n      mstore\n      pop\n      dup2\n      add\n      swap1\n      tag_107\n      swap2\n      swap1\n      tag_96\n      jump\t// in\n    tag_107:\n        /* \"contracts/Utils.sol\":18492:18520  lpAddress.token0().balanceOf */\n      0xffffffffffffffffffffffffffffffffffffffff\n      and\n      0x70a08231\n        /* \"contracts/Utils.sol\":18529:18538  lpAddress */\n      dup8\n        /* \"contracts/Utils.sol\":18492:18540  lpAddress.token0().balanceOf(address(lpAddress)) */\n      mload(0x40)\n      dup3\n      0xffffffff\n      and\n      0xe0\n      shl\n      dup2\n      mstore\n      0x04\n      add\n      tag_108\n      swap2\n      swap1\n      tag_40\n      jump\t// in\n    tag_108:\n      0x20\n      mload(0x40)\n      dup1\n      dup4\n      sub\n      dup2\n      dup7\n      dup1\n      extcodesize\n      iszero\n      dup1\n      iszero\n      tag_109\n      jumpi\n      0x00\n      dup1\n      revert\n    tag_109:\n      pop\n      gas\n      staticcall\n      iszero\n      dup1\n      iszero\n      tag_111\n      jumpi\n      returndatasize\n      0x00\n      dup1\n      returndatacopy\n      revert(0x00, returndatasize)\n    tag_111:\n      pop\n      pop\n      pop\n      pop\n      mload(0x40)\n      returndatasize\n      not(0x1f)\n      0x1f\n      dup3\n      add\n      and\n      dup3\n      add\n      dup1\n      0x40\n      mstore\n      pop\n      dup2\n      add\n      swap1\n      tag_112\n      swap2\n      swap1\n      tag_113\n      jump\t// in\n    tag_112:\n        /* \"contracts/Utils.sol\":18492:18544  lpAddress.token0().balanceOf(address(lpAddress)).mul */\n      tag_114\n      swap1\n        /* \"contracts/Utils.sol\":18492:18584  lpAddress.token0().balanceOf(address(lpAddress)).mul(WBNBPrice(address(lpAddress.token0()))) */\n      swap2\n      swap1\n      0xffffffff\n      and\n      jump\t// in\n    tag_98:\n        /* \"contracts/Utils.sol\":18482:18585  phase1 = (lpAddress.token0().balanceOf(address(lpAddress)).mul(WBNBPrice(address(lpAddress.token0())))) */\n      swap2\n      pop\n        /* \"contracts/Utils.sol\":18419:18732  if(address(WBNB) == address(lpAddress.token0())){\r... */\n      jump(tag_115)\n    tag_97:\n        /* \"contracts/Utils.sol\":18626:18719  lpAddress.token0().balanceOf(address(lpAddress)).mul(Tokenprice(address(lpAddress.token0()))) */\n      tag_116\n        /* \"contracts/Utils.sol\":18679:18718  Tokenprice(address(lpAddress.token0())) */\n      tag_117\n        /* \"contracts/Utils.sol\":18698:18707  lpAddress */\n      dup6\n        /* \"contracts/Utils.sol\":18698:18714  lpAddress.token0 */\n      0xffffffffffffffffffffffffffffffffffffffff\n      and\n      0x0dfe1681\n        /* \"contracts/Utils.sol\":18698:18716  lpAddress.token0() */\n      mload(0x40)\n      dup2\n      0xffffffff\n      and\n      0xe0\n      shl\n      dup2\n      mstore\n      0x04\n      add\n      0x20\n      mload(0x40)\n      dup1\n      dup4\n      sub\n      dup2\n      dup7\n      dup1\n      extcodesize\n      iszero\n      dup1\n      iszero\n      tag_118\n      jumpi\n      0x00\n      dup1\n      revert\n    tag_118:\n      pop\n      gas\n      staticcall\n      iszero\n      dup1\n      iszero\n      tag_120\n      jumpi\n      returndatasize\n      0x00\n      dup1\n      returndatacopy\n      revert(0x00, returndatasize)\n    tag_120:\n      pop\n      pop\n      pop\n      pop\n      mload(0x40)\n      returndatasize\n      not(0x1f)\n      0x1f\n      dup3\n      add\n      and\n      dup3\n      add\n      dup1\n      0x40\n      mstore\n      pop\n      dup2\n      add\n      swap1\n      tag_121\n      swap2\n      swap1\n      tag_96\n      jump\t// in\n    tag_121:\n        /* \"contracts/Utils.sol\":18679:18689  Tokenprice */\n      tag_21\n        /* \"contracts/Utils.sol\":18679:18718  Tokenprice(address(lpAddress.token0())) */\n      jump\t// in\n    tag_117:\n        /* \"contracts/Utils.sol\":18626:18635  lpAddress */\n      dup6\n        /* \"contracts/Utils.sol\":18626:18642  lpAddress.token0 */\n      0xffffffffffffffffffffffffffffffffffffffff\n      and\n      0x0dfe1681\n        /* \"contracts/Utils.sol\":18626:18644  lpAddress.token0() */\n      mload(0x40)\n      dup2\n      0xffffffff\n      and\n      0xe0\n      shl\n      dup2\n      mstore\n      0x04\n      add\n      0x20\n      mload(0x40)\n      dup1\n      dup4\n      sub\n      dup2\n      dup7\n      dup1\n      extcodesize\n      iszero\n      dup1\n      iszero\n      tag_122\n      jumpi\n      0x00\n      dup1\n      revert\n    tag_122:\n      pop\n      gas\n      staticcall\n      iszero\n      dup1\n      iszero\n      tag_124\n      jumpi\n      returndatasize\n      0x00\n      dup1\n      returndatacopy\n      revert(0x00, returndatasize)\n    tag_124:\n      pop\n      pop\n      pop\n      pop\n      mload(0x40)\n      returndatasize\n      not(0x1f)\n      0x1f\n      dup3\n      add\n      and\n      dup3\n      add\n      dup1\n      0x40\n      mstore\n      pop\n      dup2\n      add\n      swap1\n      tag_125\n      swap2\n      swap1\n      tag_96\n      jump\t// in\n    tag_125:\n        /* \"contracts/Utils.sol\":18626:18654  lpAddress.token0().balanceOf */\n      0xffffffffffffffffffffffffffffffffffffffff\n      and\n      0x70a08231\n        /* \"contracts/Utils.sol\":18663:18672  lpAddress */\n      dup8\n        /* \"contracts/Utils.sol\":18626:18674  lpAddress.token0().balanceOf(address(lpAddress)) */\n      mload(0x40)\n      dup3\n      0xffffffff\n      and\n      0xe0\n      shl\n      dup2\n      mstore\n      0x04\n      add\n      tag_126\n      swap2\n      swap1\n      tag_40\n      jump\t// in\n    tag_126:\n      0x20\n      mload(0x40)\n      dup1\n      dup4\n      sub\n      dup2\n      dup7\n      dup1\n      extcodesize\n      iszero\n      dup1\n      iszero\n      tag_127\n      jumpi\n      0x00\n      dup1\n      revert\n    tag_127:\n      pop\n      gas\n      staticcall\n      iszero\n      dup1\n      iszero\n      tag_129\n      jumpi\n      returndatasize\n      0x00\n      dup1\n      returndatacopy\n      revert(0x00, returndatasize)\n    tag_129:\n      pop\n      pop\n      pop\n      pop\n      mload(0x40)\n      returndatasize\n      not(0x1f)\n      0x1f\n      dup3\n      add\n      and\n      dup3\n      add\n      dup1\n      0x40\n      mstore\n      pop\n      dup2\n      add\n      swap1\n      tag_130\n      swap2\n      swap1\n      tag_113\n      jump\t// in\n    tag_130:\n        /* \"contracts/Utils.sol\":18626:18678  lpAddress.token0().balanceOf(address(lpAddress)).mul */\n      tag_114\n      swap1\n        /* \"contracts/Utils.sol\":18626:18719  lpAddress.token0().balanceOf(address(lpAddress)).mul(Tokenprice(address(lpAddress.token0()))) */\n      swap2\n      swap1\n      0xffffffff\n      and\n      jump\t// in\n    tag_116:\n        /* \"contracts/Utils.sol\":18616:18720  phase1 = (lpAddress.token0().balanceOf(address(lpAddress)).mul(Tokenprice(address(lpAddress.token0())))) */\n      swap2\n      pop\n        /* \"contracts/Utils.sol\":18419:18732  if(address(WBNB) == address(lpAddress.token0())){\r... */\n    tag_115:\n        /* \"contracts/Utils.sol\":18772:18781  lpAddress */\n      dup4\n        /* \"contracts/Utils.sol\":18772:18788  lpAddress.token1 */\n      0xffffffffffffffffffffffffffffffffffffffff\n      and\n      0xd21220a7\n        /* \"contracts/Utils.sol\":18772:18790  lpAddress.token1() */\n      mload(0x40)\n      dup2\n      0xffffffff\n      and\n      0xe0\n      shl\n      dup2\n      mstore\n      0x04\n      add\n      0x20\n      mload(0x40)\n      dup1\n      dup4\n      sub\n      dup2\n      dup7\n      dup1\n      extcodesize\n      iszero\n      dup1\n      iszero\n      tag_131\n      jumpi\n      0x00\n      dup1\n      revert\n    tag_131:\n      pop\n      gas\n      staticcall\n      iszero\n      dup1\n      iszero\n      tag_133\n      jumpi\n      returndatasize\n      0x00\n      dup1\n      returndatacopy\n      revert(0x00, returndatasize)\n    tag_133:\n      pop\n      pop\n      pop\n      pop\n      mload(0x40)\n      returndatasize\n      not(0x1f)\n      0x1f\n      dup3\n      add\n      and\n      dup3\n      add\n      dup1\n      0x40\n      mstore\n      pop\n      dup2\n      add\n      swap1\n      tag_134\n      swap2\n      swap1\n      tag_96\n      jump\t// in\n    tag_134:\n        /* \"contracts/Utils.sol\":18747:18791  address(WBNB) == address(lpAddress.token1()) */\n      0xffffffffffffffffffffffffffffffffffffffff\n      and\n        /* \"contracts/Utils.sol\":18755:18759  WBNB */\n      0x01\n      0x00\n      swap1\n      sload\n      swap1\n      0x0100\n      exp\n      swap1\n      div\n      0xffffffffffffffffffffffffffffffffffffffff\n      and\n        /* \"contracts/Utils.sol\":18747:18791  address(WBNB) == address(lpAddress.token1()) */\n      0xffffffffffffffffffffffffffffffffffffffff\n      and\n      eq\n        /* \"contracts/Utils.sol\":18744:19057  if(address(WBNB) == address(lpAddress.token1())){\r... */\n      iszero\n      tag_135\n      jumpi\n        /* \"contracts/Utils.sol\":18817:18909  lpAddress.token1().balanceOf(address(lpAddress)).mul(WBNBPrice(address(lpAddress.token1()))) */\n      tag_136\n        /* \"contracts/Utils.sol\":18870:18908  WBNBPrice(address(lpAddress.token1())) */\n      tag_137\n        /* \"contracts/Utils.sol\":18888:18897  lpAddress */\n      dup6\n        /* \"contracts/Utils.sol\":18888:18904  lpAddress.token1 */\n      0xffffffffffffffffffffffffffffffffffffffff\n      and\n      0xd21220a7\n        /* \"contracts/Utils.sol\":18888:18906  lpAddress.token1() */\n      mload(0x40)\n      dup2\n      0xffffffff\n      and\n      0xe0\n      shl\n      dup2\n      mstore\n      0x04\n      add\n      0x20\n      mload(0x40)\n      dup1\n      dup4\n      sub\n      dup2\n      dup7\n      dup1\n      extcodesize\n      iszero\n      dup1\n      iszero\n      tag_138\n      jumpi\n      0x00\n      dup1\n      revert\n    tag_138:\n      pop\n      gas\n      staticcall\n      iszero\n      dup1\n      iszero\n      tag_140\n      jumpi\n      returndatasize\n      0x00\n      dup1\n      returndatacopy\n      revert(0x00, returndatasize)\n    tag_140:\n      pop\n      pop\n      pop\n      pop\n      mload(0x40)\n      returndatasize\n      not(0x1f)\n      0x1f\n      dup3\n      add\n      and\n      dup3\n      add\n      dup1\n      0x40\n      mstore\n      pop\n      dup2\n      add\n      swap1\n      tag_141\n      swap2\n      swap1\n      tag_96\n      jump\t// in\n    tag_141:\n        /* \"contracts/Utils.sol\":18870:18879  WBNBPrice */\n      tag_35\n        /* \"contracts/Utils.sol\":18870:18908  WBNBPrice(address(lpAddress.token1())) */\n      jump\t// in\n    tag_137:\n        /* \"contracts/Utils.sol\":18817:18826  lpAddress */\n      dup6\n        /* \"contracts/Utils.sol\":18817:18833  lpAddress.token1 */\n      0xffffffffffffffffffffffffffffffffffffffff\n      and\n      0xd21220a7\n        /* \"contracts/Utils.sol\":18817:18835  lpAddress.token1() */\n      mload(0x40)\n      dup2\n      0xffffffff\n      and\n      0xe0\n      shl\n      dup2\n      mstore\n      0x04\n      add\n      0x20\n      mload(0x40)\n      dup1\n      dup4\n      sub\n      dup2\n      dup7\n      dup1\n      extcodesize\n      iszero\n      dup1\n      iszero\n      tag_142\n      jumpi\n      0x00\n      dup1\n      revert\n    tag_142:\n      pop\n      gas\n      staticcall\n      iszero\n      dup1\n      iszero\n      tag_144\n      jumpi\n      returndatasize\n      0x00\n      dup1\n      returndatacopy\n      revert(0x00, returndatasize)\n    tag_144:\n      pop\n      pop\n      pop\n      pop\n      mload(0x40)\n      returndatasize\n      not(0x1f)\n      0x1f\n      dup3\n      add\n      and\n      dup3\n      add\n      dup1\n      0x40\n      mstore\n      pop\n      dup2\n      add\n      swap1\n      tag_145\n      swap2\n      swap1\n      tag_96\n      jump\t// in\n    tag_145:\n        /* \"contracts/Utils.sol\":18817:18845  lpAddress.token1().balanceOf */\n      0xffffffffffffffffffffffffffffffffffffffff\n      and\n      0x70a08231\n        /* \"contracts/Utils.sol\":18854:18863  lpAddress */\n      dup8\n        /* \"contracts/Utils.sol\":18817:18865  lpAddress.token1().balanceOf(address(lpAddress)) */\n      mload(0x40)\n      dup3\n      0xffffffff\n      and\n      0xe0\n      shl\n      dup2\n      mstore\n      0x04\n      add\n      tag_146\n      swap2\n      swap1\n      tag_40\n      jump\t// in\n    tag_146:\n      0x20\n      mload(0x40)\n      dup1\n      dup4\n      sub\n      dup2\n      dup7\n      dup1\n      extcodesize\n      iszero\n      dup1\n      iszero\n      tag_147\n      jumpi\n      0x00\n      dup1\n      revert\n    tag_147:\n      pop\n      gas\n      staticcall\n      iszero\n      dup1\n      iszero\n      tag_149\n      jumpi\n      returndatasize\n      0x00\n      dup1\n      returndatacopy\n      revert(0x00, returndatasize)\n    tag_149:\n      pop\n      pop\n      pop\n      pop\n      mload(0x40)\n      returndatasize\n      not(0x1f)\n      0x1f\n      dup3\n      add\n      and\n      dup3\n      add\n      dup1\n      0x40\n      mstore\n      pop\n      dup2\n      add\n      swap1\n      tag_150\n      swap2\n      swap1\n      tag_113\n      jump\t// in\n    tag_150:\n        /* \"contracts/Utils.sol\":18817:18869  lpAddress.token1().balanceOf(address(lpAddress)).mul */\n      tag_114\n      swap1\n        /* \"contracts/Utils.sol\":18817:18909  lpAddress.token1().balanceOf(address(lpAddress)).mul(WBNBPrice(address(lpAddress.token1()))) */\n      swap2\n      swap1\n      0xffffffff\n      and\n      jump\t// in\n    tag_136:\n        /* \"contracts/Utils.sol\":18807:18910  phase2 = (lpAddress.token1().balanceOf(address(lpAddress)).mul(WBNBPrice(address(lpAddress.token1())))) */\n      swap1\n      pop\n        /* \"contracts/Utils.sol\":18744:19057  if(address(WBNB) == address(lpAddress.token1())){\r... */\n      jump(tag_151)\n    tag_135:\n        /* \"contracts/Utils.sol\":18951:19044  lpAddress.token1().balanceOf(address(lpAddress)).mul(Tokenprice(address(lpAddress.token1()))) */\n      tag_152\n        /* \"contracts/Utils.sol\":19004:19043  Tokenprice(address(lpAddress.token1())) */\n      tag_153\n        /* \"contracts/Utils.sol\":19023:19032  lpAddress */\n      dup6\n        /* \"contracts/Utils.sol\":19023:19039  lpAddress.token1 */\n      0xffffffffffffffffffffffffffffffffffffffff\n      and\n      0xd21220a7\n        /* \"contracts/Utils.sol\":19023:19041  lpAddress.token1() */\n      mload(0x40)\n      dup2\n      0xffffffff\n      and\n      0xe0\n      shl\n      dup2\n      mstore\n      0x04\n      add\n      0x20\n      mload(0x40)\n      dup1\n      dup4\n      sub\n      dup2\n      dup7\n      dup1\n      extcodesize\n      iszero\n      dup1\n      iszero\n      tag_154\n      jumpi\n      0x00\n      dup1\n      revert\n    tag_154:\n      pop\n      gas\n      staticcall\n      iszero\n      dup1\n      iszero\n      tag_156\n      jumpi\n      returndatasize\n      0x00\n      dup1\n      returndatacopy\n      revert(0x00, returndatasize)\n    tag_156:\n      pop\n      pop\n      pop\n      pop\n      mload(0x40)\n      returndatasize\n      not(0x1f)\n      0x1f\n      dup3\n      add\n      and\n      dup3\n      add\n      dup1\n      0x40\n      mstore\n      pop\n      dup2\n      add\n      swap1\n      tag_157\n      swap2\n      swap1\n      tag_96\n      jump\t// in\n    tag_157:\n        /* \"contracts/Utils.sol\":19004:19014  Tokenprice */\n      tag_21\n        /* \"contracts/Utils.sol\":19004:19043  Tokenprice(address(lpAddress.token1())) */\n      jump\t// in\n    tag_153:\n        /* \"contracts/Utils.sol\":18951:18960  lpAddress */\n      dup6\n        /* \"contracts/Utils.sol\":18951:18967  lpAddress.token1 */\n      0xffffffffffffffffffffffffffffffffffffffff\n      and\n      0xd21220a7\n        /* \"contracts/Utils.sol\":18951:18969  lpAddress.token1() */\n      mload(0x40)\n      dup2\n      0xffffffff\n      and\n      0xe0\n      shl\n      dup2\n      mstore\n      0x04\n      add\n      0x20\n      mload(0x40)\n      dup1\n      dup4\n      sub\n      dup2\n      dup7\n      dup1\n      extcodesize\n      iszero\n      dup1\n      iszero\n      tag_158\n      jumpi\n      0x00\n      dup1\n      revert\n    tag_158:\n      pop\n      gas\n      staticcall\n      iszero\n      dup1\n      iszero\n      tag_160\n      jumpi\n      returndatasize\n      0x00\n      dup1\n      returndatacopy\n      revert(0x00, returndatasize)\n    tag_160:\n      pop\n      pop\n      pop\n      pop\n      mload(0x40)\n      returndatasize\n      not(0x1f)\n      0x1f\n      dup3\n      add\n      and\n      dup3\n      add\n      dup1\n      0x40\n      mstore\n      pop\n      dup2\n      add\n      swap1\n      tag_161\n      swap2\n      swap1\n      tag_96\n      jump\t// in\n    tag_161:\n        /* \"contracts/Utils.sol\":18951:18979  lpAddress.token1().balanceOf */\n      0xffffffffffffffffffffffffffffffffffffffff\n      and\n      0x70a08231\n        /* \"contracts/Utils.sol\":18988:18997  lpAddress */\n      dup8\n        /* \"contracts/Utils.sol\":18951:18999  lpAddress.token1().balanceOf(address(lpAddress)) */\n      mload(0x40)\n      dup3\n      0xffffffff\n      and\n      0xe0\n      shl\n      dup2\n      mstore\n      0x04\n      add\n      tag_162\n      swap2\n      swap1\n      tag_40\n      jump\t// in\n    tag_162:\n      0x20\n      mload(0x40)\n      dup1\n      dup4\n      sub\n      dup2\n      dup7\n      dup1\n      extcodesize\n      iszero\n      dup1\n      iszero\n      tag_163\n      jumpi\n      0x00\n      dup1\n      revert\n    tag_163:\n      pop\n      gas\n      staticcall\n      iszero\n      dup1\n      iszero\n      tag_165\n      jumpi\n      returndatasize\n      0x00\n      dup1\n      returndatacopy\n      revert(0x00, returndatasize)\n    tag_165:\n      pop\n      pop\n      pop\n      pop\n      mload(0x40)\n      returndatasize\n      not(0x1f)\n      0x1f\n      dup3\n      add\n      and\n      dup3\n      add\n      dup1\n      0x40\n      mstore\n      pop\n      dup2\n      add\n      swap1\n      tag_166\n      swap2\n      swap1\n      tag_113\n      jump\t// in\n    tag_166:\n        /* \"contracts/Utils.sol\":18951:19003  lpAddress.token1().balanceOf(address(lpAddress)).mul */\n      tag_114\n      swap1\n        /* \"contracts/Utils.sol\":18951:19044  lpAddress.token1().balanceOf(address(lpAddress)).mul(Tokenprice(address(lpAddress.token1()))) */\n      swap2\n      swap1\n      0xffffffff\n      and\n      jump\t// in\n    tag_152:\n        /* \"contracts/Utils.sol\":18941:19045  phase2 = (lpAddress.token1().balanceOf(address(lpAddress)).mul(Tokenprice(address(lpAddress.token1())))) */\n      swap1\n      pop\n        /* \"contracts/Utils.sol\":18744:19057  if(address(WBNB) == address(lpAddress.token1())){\r... */\n    tag_151:\n        /* \"contracts/Utils.sol\":19085:19134  (phase1.add(phase2)).div(lpAddress.totalSupply()) */\n      tag_167\n        /* \"contracts/Utils.sol\":19110:19119  lpAddress */\n      dup5\n        /* \"contracts/Utils.sol\":19110:19131  lpAddress.totalSupply */\n      0xffffffffffffffffffffffffffffffffffffffff\n      and\n      0x18160ddd\n        /* \"contracts/Utils.sol\":19110:19133  lpAddress.totalSupply() */\n      mload(0x40)\n      dup2\n      0xffffffff\n      and\n      0xe0\n      shl\n      dup2\n      mstore\n      0x04\n      add\n      0x20\n      mload(0x40)\n      dup1\n      dup4\n      sub\n      dup2\n      dup7\n      dup1\n      extcodesize\n      iszero\n      dup1\n      iszero\n      tag_168\n      jumpi\n      0x00\n      dup1\n      revert\n    tag_168:\n      pop\n      gas\n      staticcall\n      iszero\n      dup1\n      iszero\n      tag_170\n      jumpi\n      returndatasize\n      0x00\n      dup1\n      returndatacopy\n      revert(0x00, returndatasize)\n    tag_170:\n      pop\n      pop\n      pop\n      pop\n      mload(0x40)\n      returndatasize\n      not(0x1f)\n      0x1f\n      dup3\n      add\n      and\n      dup3\n      add\n      dup1\n      0x40\n      mstore\n      pop\n      dup2\n      add\n      swap1\n      tag_171\n      swap2\n      swap1\n      tag_113\n      jump\t// in\n    tag_171:\n        /* \"contracts/Utils.sol\":19086:19104  phase1.add(phase2) */\n      tag_172\n        /* \"contracts/Utils.sol\":19097:19103  phase2 */\n      dup4\n        /* \"contracts/Utils.sol\":19086:19092  phase1 */\n      dup6\n        /* \"contracts/Utils.sol\":19086:19096  phase1.add */\n      tag_173\n      swap1\n        /* \"contracts/Utils.sol\":19086:19104  phase1.add(phase2) */\n      swap2\n      swap1\n      0xffffffff\n      and\n      jump\t// in\n    tag_172:\n        /* \"contracts/Utils.sol\":19085:19109  (phase1.add(phase2)).div */\n      tag_174\n      swap1\n        /* \"contracts/Utils.sol\":19085:19134  (phase1.add(phase2)).div(lpAddress.totalSupply()) */\n      swap2\n      swap1\n      0xffffffff\n      and\n      jump\t// in\n    tag_167:\n        /* \"contracts/Utils.sol\":19077:19135  return ((phase1.add(phase2)).div(lpAddress.totalSupply())) */\n      swap3\n      pop\n      pop\n      pop\n        /* \"contracts/Utils.sol\":18295:19143  function CalcLpPrice(LP lpAddress) public view returns(uint256){\r... */\n      swap2\n      swap1\n      pop\n      jump\t// out\n        /* \"contracts/Utils.sol\":17448:17475  Router public routerAddress */\n    tag_30:\n      0x04\n      0x00\n      swap1\n      sload\n      swap1\n      0x0100\n      exp\n      swap1\n      div\n      0xffffffffffffffffffffffffffffffffffffffff\n      and\n      dup2\n      jump\t// out\n        /* \"contracts/Utils.sol\":18037:18270  function WBNBPrice(address token) public view returns(uint256){\r... */\n    tag_35:\n        /* \"contracts/Utils.sol\":18091:18098  uint256 */\n      0x00\n        /* \"contracts/Utils.sol\":18110:18131  address[] memory path */\n      dup1\n        /* \"contracts/Utils.sol\":18148:18149  2 */\n      0x02\n        /* \"contracts/Utils.sol\":18134:18150  new address[](2) */\n      0xffffffffffffffff\n      dup2\n      gt\n      iszero\n      tag_176\n      jumpi\n      tag_177\n      tag_73\n      jump\t// in\n    tag_177:\n    tag_176:\n      mload(0x40)\n      swap1\n      dup1\n      dup3\n      mstore\n      dup1\n      0x20\n      mul\n      0x20\n      add\n      dup3\n      add\n      0x40\n      mstore\n      dup1\n      iszero\n      tag_178\n      jumpi\n      dup2\n      0x20\n      add\n      0x20\n      dup3\n      mul\n      dup1\n      calldatasize\n      dup4\n      calldatacopy\n      dup1\n      dup3\n      add\n      swap2\n      pop\n      pop\n      swap1\n      pop\n    tag_178:\n      pop\n        /* \"contracts/Utils.sol\":18110:18150  address[] memory path = new address[](2) */\n      swap1\n      pop\n        /* \"contracts/Utils.sol\":18171:18176  token */\n      dup3\n        /* \"contracts/Utils.sol\":18161:18165  path */\n      dup2\n        /* \"contracts/Utils.sol\":18166:18167  0 */\n      0x00\n        /* \"contracts/Utils.sol\":18161:18168  path[0] */\n      dup2\n      mload\n      dup2\n      lt\n      tag_179\n      jumpi\n      tag_180\n      tag_77\n      jump\t// in\n    tag_180:\n    tag_179:\n      0x20\n      mul\n      0x20\n      add\n      add\n        /* \"contracts/Utils.sol\":18161:18176  path[0] = token */\n      swap1\n      0xffffffffffffffffffffffffffffffffffffffff\n      and\n      swap1\n      dup2\n      0xffffffffffffffffffffffffffffffffffffffff\n      and\n      dup2\n      mstore\n      pop\n      pop\n        /* \"contracts/Utils.sol\":18197:18201  BUSD */\n      0x02\n      0x00\n      swap1\n      sload\n      swap1\n      0x0100\n      exp\n      swap1\n      div\n      0xffffffffffffffffffffffffffffffffffffffff\n      and\n        /* \"contracts/Utils.sol\":18187:18191  path */\n      dup2\n        /* \"contracts/Utils.sol\":18192:18193  1 */\n      0x01\n        /* \"contracts/Utils.sol\":18187:18194  path[1] */\n      dup2\n      mload\n      dup2\n      lt\n      tag_181\n      jumpi\n      tag_182\n      tag_77\n      jump\t// in\n    tag_182:\n    tag_181:\n      0x20\n      mul\n      0x20\n      add\n      add\n        /* \"contracts/Utils.sol\":18187:18201  path[1] = BUSD */\n      swap1\n      0xffffffffffffffffffffffffffffffffffffffff\n      and\n      swap1\n      dup2\n      0xffffffffffffffffffffffffffffffffffffffff\n      and\n      dup2\n      mstore\n      pop\n      pop\n        /* \"contracts/Utils.sol\":18219:18232  routerAddress */\n      0x04\n      0x00\n      swap1\n      sload\n      swap1\n      0x0100\n      exp\n      swap1\n      div\n      0xffffffffffffffffffffffffffffffffffffffff\n      and\n        /* \"contracts/Utils.sol\":18219:18246  routerAddress.getAmountsOut */\n      0xffffffffffffffffffffffffffffffffffffffff\n      and\n      0xd06ca61f\n        /* \"contracts/Utils.sol\":18247:18253  amount */\n      sload(0x03)\n        /* \"contracts/Utils.sol\":18254:18258  path */\n      dup4\n        /* \"contracts/Utils.sol\":18219:18259  routerAddress.getAmountsOut(amount,path) */\n      mload(0x40)\n      dup4\n      0xffffffff\n      and\n      0xe0\n      shl\n      dup2\n      mstore\n      0x04\n      add\n      tag_183\n      swap3\n      swap2\n      swap1\n      tag_83\n      jump\t// in\n    tag_183:\n      0x00\n      mload(0x40)\n      dup1\n      dup4\n      sub\n      dup2\n      dup7\n      dup1\n      extcodesize\n      iszero\n      dup1\n      iszero\n      tag_184\n      jumpi\n      0x00\n      dup1\n      revert\n    tag_184:\n      pop\n      gas\n      staticcall\n      iszero\n      dup1\n      iszero\n      tag_186\n      jumpi\n      returndatasize\n      0x00\n      dup1\n      returndatacopy\n      revert(0x00, returndatasize)\n    tag_186:\n      pop\n      pop\n      pop\n      pop\n      mload(0x40)\n      returndatasize\n      0x00\n      dup3\n      returndatacopy\n      returndatasize\n      not(0x1f)\n      0x1f\n      dup3\n      add\n      and\n      dup3\n      add\n      dup1\n      0x40\n      mstore\n      pop\n      dup2\n      add\n      swap1\n      tag_187\n      swap2\n      swap1\n      tag_88\n      jump\t// in\n    tag_187:\n        /* \"contracts/Utils.sol\":18260:18261  1 */\n      0x01\n        /* \"contracts/Utils.sol\":18219:18262  routerAddress.getAmountsOut(amount,path)[1] */\n      dup2\n      mload\n      dup2\n      lt\n      tag_188\n      jumpi\n      tag_189\n      tag_77\n      jump\t// in\n    tag_189:\n    tag_188:\n      0x20\n      mul\n      0x20\n      add\n      add\n      mload\n        /* \"contracts/Utils.sol\":18212:18262  return routerAddress.getAmountsOut(amount,path)[1] */\n      swap2\n      pop\n      pop\n        /* \"contracts/Utils.sol\":18037:18270  function WBNBPrice(address token) public view returns(uint256){\r... */\n      swap2\n      swap1\n      pop\n      jump\t// out\n        /* \"contracts/Utils.sol\":17334:17398  address public BUSD = 0x78867BbEeF44f2326bF8DDd1941a4439382EF2A7 */\n    tag_38:\n      0x02\n      0x00\n      swap1\n      sload\n      swap1\n      0x0100\n      exp\n      swap1\n      div\n      0xffffffffffffffffffffffffffffffffffffffff\n      and\n      dup2\n      jump\t// out\n        /* \"contracts/Utils.sol\":19745:20001  function getPoolWeight(uint256 pid, MetaMasterChef MasterChef) external view returns(uint256){\r... */\n    tag_44:\n        /* \"contracts/Utils.sol\":19830:19837  uint256 */\n      0x00\n        /* \"contracts/Utils.sol\":19849:19869  PoolInfo memory pool */\n      dup1\n        /* \"contracts/Utils.sol\":19872:19882  MasterChef */\n      dup3\n        /* \"contracts/Utils.sol\":19872:19891  MasterChef.poolInfo */\n      0xffffffffffffffffffffffffffffffffffffffff\n      and\n      0x1526fe27\n        /* \"contracts/Utils.sol\":19892:19895  pid */\n      dup6\n        /* \"contracts/Utils.sol\":19872:19896  MasterChef.poolInfo(pid) */\n      mload(0x40)\n      dup3\n      0xffffffff\n      and\n      0xe0\n      shl\n      dup2\n      mstore\n      0x04\n      add\n      tag_191\n      swap2\n      swap1\n      tag_23\n      jump\t// in\n    tag_191:\n      0xc0\n      mload(0x40)\n      dup1\n      dup4\n      sub\n      dup2\n      dup7\n      dup1\n      extcodesize\n      iszero\n      dup1\n      iszero\n      tag_192\n      jumpi\n      0x00\n      dup1\n      revert\n    tag_192:\n      pop\n      gas\n      staticcall\n      iszero\n      dup1\n      iszero\n      tag_194\n      jumpi\n      returndatasize\n      0x00\n      dup1\n      returndatacopy\n      revert(0x00, returndatasize)\n    tag_194:\n      pop\n      pop\n      pop\n      pop\n      mload(0x40)\n      returndatasize\n      not(0x1f)\n      0x1f\n      dup3\n      add\n      and\n      dup3\n      add\n      dup1\n      0x40\n      mstore\n      pop\n      dup2\n      add\n      swap1\n      tag_195\n      swap2\n      swap1\n      tag_196\n      jump\t// in\n    tag_195:\n        /* \"contracts/Utils.sol\":19849:19896  PoolInfo memory pool = MasterChef.poolInfo(pid) */\n      swap1\n      pop\n        /* \"contracts/Utils.sol\":19907:19925  uint256 poolWeight */\n      0x00\n        /* \"contracts/Utils.sol\":19928:19993  ((pool.allocPoint).mul(amount)).div(MasterChef.totalAllocPoint()) */\n      tag_197\n        /* \"contracts/Utils.sol\":19964:19974  MasterChef */\n      dup5\n        /* \"contracts/Utils.sol\":19964:19990  MasterChef.totalAllocPoint */\n      0xffffffffffffffffffffffffffffffffffffffff\n      and\n      0x17caf6f1\n        /* \"contracts/Utils.sol\":19964:19992  MasterChef.totalAllocPoint() */\n      mload(0x40)\n      dup2\n      0xffffffff\n      and\n      0xe0\n      shl\n      dup2\n      mstore\n      0x04\n      add\n      0x20\n      mload(0x40)\n      dup1\n      dup4\n      sub\n      dup2\n      dup7\n      dup1\n      extcodesize\n      iszero\n      dup1\n      iszero\n      tag_198\n      jumpi\n      0x00\n      dup1\n      revert\n    tag_198:\n      pop\n      gas\n      staticcall\n      iszero\n      dup1\n      iszero\n      tag_200\n      jumpi\n      returndatasize\n      0x00\n      dup1\n      returndatacopy\n      revert(0x00, returndatasize)\n    tag_200:\n      pop\n      pop\n      pop\n      pop\n      mload(0x40)\n      returndatasize\n      not(0x1f)\n      0x1f\n      dup3\n      add\n      and\n      dup3\n      add\n      dup1\n      0x40\n      mstore\n      pop\n      dup2\n      add\n      swap1\n      tag_201\n      swap2\n      swap1\n      tag_113\n      jump\t// in\n    tag_201:\n        /* \"contracts/Utils.sol\":19929:19958  (pool.allocPoint).mul(amount) */\n      tag_202\n        /* \"contracts/Utils.sol\":19951:19957  amount */\n      sload(0x03)\n        /* \"contracts/Utils.sol\":19930:19934  pool */\n      dup6\n        /* \"contracts/Utils.sol\":19930:19945  pool.allocPoint */\n      0x20\n      add\n      mload\n        /* \"contracts/Utils.sol\":19929:19950  (pool.allocPoint).mul */\n      tag_114\n      swap1\n        /* \"contracts/Utils.sol\":19929:19958  (pool.allocPoint).mul(amount) */\n      swap2\n      swap1\n      0xffffffff\n      and\n      jump\t// in\n    tag_202:\n        /* \"contracts/Utils.sol\":19928:19963  ((pool.allocPoint).mul(amount)).div */\n      tag_174\n      swap1\n        /* \"contracts/Utils.sol\":19928:19993  ((pool.allocPoint).mul(amount)).div(MasterChef.totalAllocPoint()) */\n      swap2\n      swap1\n      0xffffffff\n      and\n      jump\t// in\n    tag_197:\n        /* \"contracts/Utils.sol\":19907:19993  uint256 poolWeight = ((pool.allocPoint).mul(amount)).div(MasterChef.totalAllocPoint()) */\n      swap1\n      pop\n        /* \"contracts/Utils.sol\":19838:20001  {\r... */\n      pop\n      pop\n        /* \"contracts/Utils.sol\":19745:20001  function getPoolWeight(uint256 pid, MetaMasterChef MasterChef) external view returns(uint256){\r... */\n      swap3\n      swap2\n      pop\n      pop\n      jump\t// out\n        /* \"contracts/Utils.sol\":14500:14603  function renounceOwnership() public virtual onlyOwner {\r... */\n    tag_47:\n        /* \"contracts/Utils.sol\":14080:14092  _msgSender() */\n      tag_204\n        /* \"contracts/Utils.sol\":14080:14090  _msgSender */\n      tag_205\n        /* \"contracts/Utils.sol\":14080:14092  _msgSender() */\n      jump\t// in\n    tag_204:\n        /* \"contracts/Utils.sol\":14069:14092  owner() == _msgSender() */\n      0xffffffffffffffffffffffffffffffffffffffff\n      and\n        /* \"contracts/Utils.sol\":14069:14076  owner() */\n      tag_206\n        /* \"contracts/Utils.sol\":14069:14074  owner */\n      tag_49\n        /* \"contracts/Utils.sol\":14069:14076  owner() */\n      jump\t// in\n    tag_206:\n        /* \"contracts/Utils.sol\":14069:14092  owner() == _msgSender() */\n      0xffffffffffffffffffffffffffffffffffffffff\n      and\n      eq\n        /* \"contracts/Utils.sol\":14061:14129  require(owner() == _msgSender(), \"Ownable: caller is not the owner\") */\n      tag_207\n      jumpi\n      mload(0x40)\n      0x08c379a000000000000000000000000000000000000000000000000000000000\n      dup2\n      mstore\n      0x04\n      add\n      tag_208\n      swap1\n      tag_209\n      jump\t// in\n    tag_208:\n      mload(0x40)\n      dup1\n      swap2\n      sub\n      swap1\n      revert\n    tag_207:\n        /* \"contracts/Utils.sol\":14565:14595  _transferOwnership(address(0)) */\n      tag_211\n        /* \"contracts/Utils.sol\":14592:14593  0 */\n      0x00\n        /* \"contracts/Utils.sol\":14565:14583  _transferOwnership */\n      tag_212\n        /* \"contracts/Utils.sol\":14565:14595  _transferOwnership(address(0)) */\n      jump\t// in\n    tag_211:\n        /* \"contracts/Utils.sol\":14500:14603  function renounceOwnership() public virtual onlyOwner {\r... */\n      jump\t// out\n        /* \"contracts/Utils.sol\":13849:13936  function owner() public view virtual returns (address) {\r... */\n    tag_49:\n        /* \"contracts/Utils.sol\":13895:13902  address */\n      0x00\n        /* \"contracts/Utils.sol\":13922:13928  _owner */\n      dup1\n      0x00\n      swap1\n      sload\n      swap1\n      0x0100\n      exp\n      swap1\n      div\n      0xffffffffffffffffffffffffffffffffffffffff\n      and\n        /* \"contracts/Utils.sol\":13915:13928  return _owner */\n      swap1\n      pop\n        /* \"contracts/Utils.sol\":13849:13936  function owner() public view virtual returns (address) {\r... */\n      swap1\n      jump\t// out\n        /* \"contracts/Utils.sol\":17263:17327  address public WBNB = 0xae13d989daC2f0dEbFf460aC112a837C89BAa7cd */\n    tag_52:\n      0x01\n      0x00\n      swap1\n      sload\n      swap1\n      0x0100\n      exp\n      swap1\n      div\n      0xffffffffffffffffffffffffffffffffffffffff\n      and\n      dup2\n      jump\t// out\n        /* \"contracts/Utils.sol\":17621:17728  function setRouter(Router _routerAddress) public onlyOwner{\r... */\n    tag_57:\n        /* \"contracts/Utils.sol\":14080:14092  _msgSender() */\n      tag_215\n        /* \"contracts/Utils.sol\":14080:14090  _msgSender */\n      tag_205\n        /* \"contracts/Utils.sol\":14080:14092  _msgSender() */\n      jump\t// in\n    tag_215:\n        /* \"contracts/Utils.sol\":14069:14092  owner() == _msgSender() */\n      0xffffffffffffffffffffffffffffffffffffffff\n      and\n        /* \"contracts/Utils.sol\":14069:14076  owner() */\n      tag_216\n        /* \"contracts/Utils.sol\":14069:14074  owner */\n      tag_49\n        /* \"contracts/Utils.sol\":14069:14076  owner() */\n      jump\t// in\n    tag_216:\n        /* \"contracts/Utils.sol\":14069:14092  owner() == _msgSender() */\n      0xffffffffffffffffffffffffffffffffffffffff\n      and\n      eq\n        /* \"contracts/Utils.sol\":14061:14129  require(owner() == _msgSender(), \"Ownable: caller is not the owner\") */\n      tag_217\n      jumpi\n      mload(0x40)\n      0x08c379a000000000000000000000000000000000000000000000000000000000\n      dup2\n      mstore\n      0x04\n      add\n      tag_218\n      swap1\n      tag_209\n      jump\t// in\n    tag_218:\n      mload(0x40)\n      dup1\n      swap2\n      sub\n      swap1\n      revert\n    tag_217:\n        /* \"contracts/Utils.sol\":17706:17720  _routerAddress */\n      dup1\n        /* \"contracts/Utils.sol\":17690:17703  routerAddress */\n      0x04\n      0x00\n        /* \"contracts/Utils.sol\":17690:17720  routerAddress = _routerAddress */\n      0x0100\n      exp\n      dup2\n      sload\n      dup2\n      0xffffffffffffffffffffffffffffffffffffffff\n      mul\n      not\n      and\n      swap1\n      dup4\n      0xffffffffffffffffffffffffffffffffffffffff\n      and\n      mul\n      or\n      swap1\n      sstore\n      pop\n        /* \"contracts/Utils.sol\":17621:17728  function setRouter(Router _routerAddress) public onlyOwner{\r... */\n      pop\n      jump\t// out\n        /* \"contracts/Utils.sol\":19166:19737  function calcPoolTVLInUSD(uint256 pid, LP lpAddress, uint256 isLp, MetaMasterChef MasterChef) public view returns(uint256){\r... */\n    tag_61:\n        /* \"contracts/Utils.sol\":19280:19287  uint256 */\n      0x00\n        /* \"contracts/Utils.sol\":19299:19314  uint256 Balance */\n      dup1\n        /* \"contracts/Utils.sol\":19317:19327  MasterChef */\n      dup3\n        /* \"contracts/Utils.sol\":19317:19339  MasterChef.poolBalance */\n      0xffffffffffffffffffffffffffffffffffffffff\n      and\n      0x6a6d964e\n        /* \"contracts/Utils.sol\":19340:19343  pid */\n      dup8\n        /* \"contracts/Utils.sol\":19317:19344  MasterChef.poolBalance(pid) */\n      mload(0x40)\n      dup3\n      0xffffffff\n      and\n      0xe0\n      shl\n      dup2\n      mstore\n      0x04\n      add\n      tag_221\n      swap2\n      swap1\n      tag_23\n      jump\t// in\n    tag_221:\n      0x20\n      mload(0x40)\n      dup1\n      dup4\n      sub\n      dup2\n      dup7\n      dup1\n      extcodesize\n      iszero\n      dup1\n      iszero\n      tag_222\n      jumpi\n      0x00\n      dup1\n      revert\n    tag_222:\n      pop\n      gas\n      staticcall\n      iszero\n      dup1\n      iszero\n      tag_224\n      jumpi\n      returndatasize\n      0x00\n      dup1\n      returndatacopy\n      revert(0x00, returndatasize)\n    tag_224:\n      pop\n      pop\n      pop\n      pop\n      mload(0x40)\n      returndatasize\n      not(0x1f)\n      0x1f\n      dup3\n      add\n      and\n      dup3\n      add\n      dup1\n      0x40\n      mstore\n      pop\n      dup2\n      add\n      swap1\n      tag_225\n      swap2\n      swap1\n      tag_113\n      jump\t// in\n    tag_225:\n        /* \"contracts/Utils.sol\":19299:19344  uint256 Balance = MasterChef.poolBalance(pid) */\n      swap1\n      pop\n        /* \"contracts/Utils.sol\":19355:19368  uint256 price */\n      0x00\n        /* \"contracts/Utils.sol\":19390:19391  0 */\n      dup1\n        /* \"contracts/Utils.sol\":19382:19386  isLp */\n      dup6\n        /* \"contracts/Utils.sol\":19382:19391  isLp == 0 */\n      eq\n        /* \"contracts/Utils.sol\":19379:19681  if(isLp == 0){\r... */\n      iszero\n      tag_226\n      jumpi\n        /* \"contracts/Utils.sol\":19415:19437  CalcLpPrice(lpAddress) */\n      tag_227\n        /* \"contracts/Utils.sol\":19427:19436  lpAddress */\n      dup7\n        /* \"contracts/Utils.sol\":19415:19426  CalcLpPrice */\n      tag_27\n        /* \"contracts/Utils.sol\":19415:19437  CalcLpPrice(lpAddress) */\n      jump\t// in\n    tag_227:\n        /* \"contracts/Utils.sol\":19407:19437  price = CalcLpPrice(lpAddress) */\n      swap1\n      pop\n        /* \"contracts/Utils.sol\":19379:19681  if(isLp == 0){\r... */\n      jump(tag_228)\n    tag_226:\n        /* \"contracts/Utils.sol\":19465:19466  1 */\n      0x01\n        /* \"contracts/Utils.sol\":19457:19461  isLp */\n      dup6\n        /* \"contracts/Utils.sol\":19457:19466  isLp == 1 */\n      eq\n        /* \"contracts/Utils.sol\":19454:19681  if(isLp == 1){\r... */\n      iszero\n      tag_229\n      jumpi\n        /* \"contracts/Utils.sol\":19510:19519  lpAddress */\n      dup6\n        /* \"contracts/Utils.sol\":19485:19520  address(WBNB) == address(lpAddress) */\n      0xffffffffffffffffffffffffffffffffffffffff\n      and\n        /* \"contracts/Utils.sol\":19493:19497  WBNB */\n      0x01\n      0x00\n      swap1\n      sload\n      swap1\n      0x0100\n      exp\n      swap1\n      div\n      0xffffffffffffffffffffffffffffffffffffffff\n      and\n        /* \"contracts/Utils.sol\":19485:19520  address(WBNB) == address(lpAddress) */\n      0xffffffffffffffffffffffffffffffffffffffff\n      and\n      eq\n        /* \"contracts/Utils.sol\":19482:19670  if(address(WBNB) == address(lpAddress)){\r... */\n      iszero\n      tag_230\n      jumpi\n        /* \"contracts/Utils.sol\":19548:19577  WBNBPrice(address(lpAddress)) */\n      tag_231\n        /* \"contracts/Utils.sol\":19566:19575  lpAddress */\n      dup7\n        /* \"contracts/Utils.sol\":19548:19557  WBNBPrice */\n      tag_35\n        /* \"contracts/Utils.sol\":19548:19577  WBNBPrice(address(lpAddress)) */\n      jump\t// in\n    tag_231:\n        /* \"contracts/Utils.sol\":19540:19577  price = WBNBPrice(address(lpAddress)) */\n      swap1\n      pop\n        /* \"contracts/Utils.sol\":19482:19670  if(address(WBNB) == address(lpAddress)){\r... */\n      jump(tag_232)\n    tag_230:\n        /* \"contracts/Utils.sol\":19624:19654  Tokenprice(address(lpAddress)) */\n      tag_233\n        /* \"contracts/Utils.sol\":19643:19652  lpAddress */\n      dup7\n        /* \"contracts/Utils.sol\":19624:19634  Tokenprice */\n      tag_21\n        /* \"contracts/Utils.sol\":19624:19654  Tokenprice(address(lpAddress)) */\n      jump\t// in\n    tag_233:\n        /* \"contracts/Utils.sol\":19616:19654  price = Tokenprice(address(lpAddress)) */\n      swap1\n      pop\n        /* \"contracts/Utils.sol\":19482:19670  if(address(WBNB) == address(lpAddress)){\r... */\n    tag_232:\n        /* \"contracts/Utils.sol\":19454:19681  if(isLp == 1){\r... */\n    tag_229:\n        /* \"contracts/Utils.sol\":19379:19681  if(isLp == 0){\r... */\n    tag_228:\n        /* \"contracts/Utils.sol\":19700:19729  (Balance * price).div(amount) */\n      tag_234\n        /* \"contracts/Utils.sol\":19722:19728  amount */\n      sload(0x03)\n        /* \"contracts/Utils.sol\":19711:19716  price */\n      dup3\n        /* \"contracts/Utils.sol\":19701:19708  Balance */\n      dup5\n        /* \"contracts/Utils.sol\":19701:19716  Balance * price */\n      tag_235\n      swap2\n      swap1\n      tag_236\n      jump\t// in\n    tag_235:\n        /* \"contracts/Utils.sol\":19700:19721  (Balance * price).div */\n      tag_174\n      swap1\n        /* \"contracts/Utils.sol\":19700:19729  (Balance * price).div(amount) */\n      swap2\n      swap1\n      0xffffffff\n      and\n      jump\t// in\n    tag_234:\n        /* \"contracts/Utils.sol\":19693:19729  return (Balance * price).div(amount) */\n      swap3\n      pop\n      pop\n      pop\n        /* \"contracts/Utils.sol\":19166:19737  function calcPoolTVLInUSD(uint256 pid, LP lpAddress, uint256 isLp, MetaMasterChef MasterChef) public view returns(uint256){\r... */\n      swap5\n      swap4\n      pop\n      pop\n      pop\n      pop\n      jump\t// out\n        /* \"contracts/Utils.sol\":20009:20709  function CalcApy(uint256 pid, LP lpAddress,uint256 isLp, MetaMasterChef MasterChef) external view returns(uint256){\r... */\n    tag_65:\n        /* \"contracts/Utils.sol\":20115:20122  uint256 */\n      0x00\n        /* \"contracts/Utils.sol\":20134:20154  PoolInfo memory pool */\n      dup1\n        /* \"contracts/Utils.sol\":20157:20167  MasterChef */\n      dup3\n        /* \"contracts/Utils.sol\":20157:20176  MasterChef.poolInfo */\n      0xffffffffffffffffffffffffffffffffffffffff\n      and\n      0x1526fe27\n        /* \"contracts/Utils.sol\":20177:20180  pid */\n      dup8\n        /* \"contracts/Utils.sol\":20157:20181  MasterChef.poolInfo(pid) */\n      mload(0x40)\n      dup3\n      0xffffffff\n      and\n      0xe0\n      shl\n      dup2\n      mstore\n      0x04\n      add\n      tag_238\n      swap2\n      swap1\n      tag_23\n      jump\t// in\n    tag_238:\n      0xc0\n      mload(0x40)\n      dup1\n      dup4\n      sub\n      dup2\n      dup7\n      dup1\n      extcodesize\n      iszero\n      dup1\n      iszero\n      tag_239\n      jumpi\n      0x00\n      dup1\n      revert\n    tag_239:\n      pop\n      gas\n      staticcall\n      iszero\n      dup1\n      iszero\n      tag_241\n      jumpi\n      returndatasize\n      0x00\n      dup1\n      returndatacopy\n      revert(0x00, returndatasize)\n    tag_241:\n      pop\n      pop\n      pop\n      pop\n      mload(0x40)\n      returndatasize\n      not(0x1f)\n      0x1f\n      dup3\n      add\n      and\n      dup3\n      add\n      dup1\n      0x40\n      mstore\n      pop\n      dup2\n      add\n      swap1\n      tag_242\n      swap2\n      swap1\n      tag_196\n      jump\t// in\n    tag_242:\n        /* \"contracts/Utils.sol\":20134:20181  PoolInfo memory pool = MasterChef.poolInfo(pid) */\n      swap1\n      pop\n        /* \"contracts/Utils.sol\":20192:20210  uint256 poolWeight */\n      0x00\n        /* \"contracts/Utils.sol\":20213:20278  ((pool.allocPoint).mul(amount)).div(MasterChef.totalAllocPoint()) */\n      tag_243\n        /* \"contracts/Utils.sol\":20249:20259  MasterChef */\n      dup5\n        /* \"contracts/Utils.sol\":20249:20275  MasterChef.totalAllocPoint */\n      0xffffffffffffffffffffffffffffffffffffffff\n      and\n      0x17caf6f1\n        /* \"contracts/Utils.sol\":20249:20277  MasterChef.totalAllocPoint() */\n      mload(0x40)\n      dup2\n      0xffffffff\n      and\n      0xe0\n      shl\n      dup2\n      mstore\n      0x04\n      add\n      0x20\n      mload(0x40)\n      dup1\n      dup4\n      sub\n      dup2\n      dup7\n      dup1\n      extcodesize\n      iszero\n      dup1\n      iszero\n      tag_244\n      jumpi\n      0x00\n      dup1\n      revert\n    tag_244:\n      pop\n      gas\n      staticcall\n      iszero\n      dup1\n      iszero\n      tag_246\n      jumpi\n      returndatasize\n      0x00\n      dup1\n      returndatacopy\n      revert(0x00, returndatasize)\n    tag_246:\n      pop\n      pop\n      pop\n      pop\n      mload(0x40)\n      returndatasize\n      not(0x1f)\n      0x1f\n      dup3\n      add\n      and\n      dup3\n      add\n      dup1\n      0x40\n      mstore\n      pop\n      dup2\n      add\n      swap1\n      tag_247\n      swap2\n      swap1\n      tag_113\n      jump\t// in\n    tag_247:\n        /* \"contracts/Utils.sol\":20214:20243  (pool.allocPoint).mul(amount) */\n      tag_248\n        /* \"contracts/Utils.sol\":20236:20242  amount */\n      sload(0x03)\n        /* \"contracts/Utils.sol\":20215:20219  pool */\n      dup6\n        /* \"contracts/Utils.sol\":20215:20230  pool.allocPoint */\n      0x20\n      add\n      mload\n        /* \"contracts/Utils.sol\":20214:20235  (pool.allocPoint).mul */\n      tag_114\n      swap1\n        /* \"contracts/Utils.sol\":20214:20243  (pool.allocPoint).mul(amount) */\n      swap2\n      swap1\n      0xffffffff\n      and\n      jump\t// in\n    tag_248:\n        /* \"contracts/Utils.sol\":20213:20248  ((pool.allocPoint).mul(amount)).div */\n      tag_174\n      swap1\n        /* \"contracts/Utils.sol\":20213:20278  ((pool.allocPoint).mul(amount)).div(MasterChef.totalAllocPoint()) */\n      swap2\n      swap1\n      0xffffffff\n      and\n      jump\t// in\n    tag_243:\n        /* \"contracts/Utils.sol\":20192:20278  uint256 poolWeight = ((pool.allocPoint).mul(amount)).div(MasterChef.totalAllocPoint()) */\n      swap1\n      pop\n        /* \"contracts/Utils.sol\":20289:20313  uint256 rewardTokenPrice */\n      0x00\n        /* \"contracts/Utils.sol\":20316:20344  Tokenprice(MasterChef.DRG()) */\n      tag_249\n        /* \"contracts/Utils.sol\":20327:20337  MasterChef */\n      dup6\n        /* \"contracts/Utils.sol\":20327:20341  MasterChef.DRG */\n      0xffffffffffffffffffffffffffffffffffffffff\n      and\n      0x141aa0ba\n        /* \"contracts/Utils.sol\":20327:20343  MasterChef.DRG() */\n      mload(0x40)\n      dup2\n      0xffffffff\n      and\n      0xe0\n      shl\n      dup2\n      mstore\n      0x04\n      add\n      0x20\n      mload(0x40)\n      dup1\n      dup4\n      sub\n      dup2\n      dup7\n      dup1\n      extcodesize\n      iszero\n      dup1\n      iszero\n      tag_250\n      jumpi\n      0x00\n      dup1\n      revert\n    tag_250:\n      pop\n      gas\n      staticcall\n      iszero\n      dup1\n      iszero\n      tag_252\n      jumpi\n      returndatasize\n      0x00\n      dup1\n      returndatacopy\n      revert(0x00, returndatasize)\n    tag_252:\n      pop\n      pop\n      pop\n      pop\n      mload(0x40)\n      returndatasize\n      not(0x1f)\n      0x1f\n      dup3\n      add\n      and\n      dup3\n      add\n      dup1\n      0x40\n      mstore\n      pop\n      dup2\n      add\n      swap1\n      tag_253\n      swap2\n      swap1\n      tag_254\n      jump\t// in\n    tag_253:\n        /* \"contracts/Utils.sol\":20316:20326  Tokenprice */\n      tag_21\n        /* \"contracts/Utils.sol\":20316:20344  Tokenprice(MasterChef.DRG()) */\n      jump\t// in\n    tag_249:\n        /* \"contracts/Utils.sol\":20289:20344  uint256 rewardTokenPrice = Tokenprice(MasterChef.DRG()) */\n      swap1\n      pop\n        /* \"contracts/Utils.sol\":20355:20375  uint256 DRG_PER_YEAR */\n      0x00\n        /* \"contracts/Utils.sol\":20378:20423  BLOCKS_PER_YEAR.mul(MasterChef.DRGPerBlock()) */\n      tag_255\n        /* \"contracts/Utils.sol\":20398:20408  MasterChef */\n      dup7\n        /* \"contracts/Utils.sol\":20398:20420  MasterChef.DRGPerBlock */\n      0xffffffffffffffffffffffffffffffffffffffff\n      and\n      0xa1eef821\n        /* \"contracts/Utils.sol\":20398:20422  MasterChef.DRGPerBlock() */\n      mload(0x40)\n      dup2\n      0xffffffff\n      and\n      0xe0\n      shl\n      dup2\n      mstore\n      0x04\n      add\n      0x20\n      mload(0x40)\n      dup1\n      dup4\n      sub\n      dup2\n      dup7\n      dup1\n      extcodesize\n      iszero\n      dup1\n      iszero\n      tag_256\n      jumpi\n      0x00\n      dup1\n      revert\n    tag_256:\n      pop\n      gas\n      staticcall\n      iszero\n      dup1\n      iszero\n      tag_258\n      jumpi\n      returndatasize\n      0x00\n      dup1\n      returndatacopy\n      revert(0x00, returndatasize)\n    tag_258:\n      pop\n      pop\n      pop\n      pop\n      mload(0x40)\n      returndatasize\n      not(0x1f)\n      0x1f\n      dup3\n      add\n      and\n      dup3\n      add\n      dup1\n      0x40\n      mstore\n      pop\n      dup2\n      add\n      swap1\n      tag_259\n      swap2\n      swap1\n      tag_113\n      jump\t// in\n    tag_259:\n        /* \"contracts/Utils.sol\":20378:20393  BLOCKS_PER_YEAR */\n      sload(0x05)\n        /* \"contracts/Utils.sol\":20378:20397  BLOCKS_PER_YEAR.mul */\n      tag_114\n      swap1\n        /* \"contracts/Utils.sol\":20378:20423  BLOCKS_PER_YEAR.mul(MasterChef.DRGPerBlock()) */\n      swap2\n      swap1\n      0xffffffff\n      and\n      jump\t// in\n    tag_255:\n        /* \"contracts/Utils.sol\":20355:20423  uint256 DRG_PER_YEAR = BLOCKS_PER_YEAR.mul(MasterChef.DRGPerBlock()) */\n      swap1\n      pop\n        /* \"contracts/Utils.sol\":20434:20467  uint256 yearlyDRGRewardAllocation */\n      0x00\n        /* \"contracts/Utils.sol\":20470:20498  DRG_PER_YEAR.mul(poolWeight) */\n      tag_260\n        /* \"contracts/Utils.sol\":20487:20497  poolWeight */\n      dup5\n        /* \"contracts/Utils.sol\":20470:20482  DRG_PER_YEAR */\n      dup4\n        /* \"contracts/Utils.sol\":20470:20486  DRG_PER_YEAR.mul */\n      tag_114\n      swap1\n        /* \"contracts/Utils.sol\":20470:20498  DRG_PER_YEAR.mul(poolWeight) */\n      swap2\n      swap1\n      0xffffffff\n      and\n      jump\t// in\n    tag_260:\n        /* \"contracts/Utils.sol\":20434:20498  uint256 yearlyDRGRewardAllocation = DRG_PER_YEAR.mul(poolWeight) */\n      swap1\n      pop\n        /* \"contracts/Utils.sol\":20509:20533  uint256 poolLiquidityUsd */\n      0x00\n        /* \"contracts/Utils.sol\":20536:20586  calcPoolTVLInUSD(pid, lpAddress, isLp, MasterChef) */\n      tag_261\n        /* \"contracts/Utils.sol\":20553:20556  pid */\n      dup12\n        /* \"contracts/Utils.sol\":20558:20567  lpAddress */\n      dup12\n        /* \"contracts/Utils.sol\":20569:20573  isLp */\n      dup12\n        /* \"contracts/Utils.sol\":20575:20585  MasterChef */\n      dup12\n        /* \"contracts/Utils.sol\":20536:20552  calcPoolTVLInUSD */\n      tag_61\n        /* \"contracts/Utils.sol\":20536:20586  calcPoolTVLInUSD(pid, lpAddress, isLp, MasterChef) */\n      jump\t// in\n    tag_261:\n        /* \"contracts/Utils.sol\":20509:20586  uint256 poolLiquidityUsd = calcPoolTVLInUSD(pid, lpAddress, isLp, MasterChef) */\n      swap1\n      pop\n        /* \"contracts/Utils.sol\":20605:20701  (((yearlyDRGRewardAllocation.mul(rewardTokenPrice)).div(amount)).div(poolLiquidityUsd)).mul(100) */\n      tag_262\n        /* \"contracts/Utils.sol\":20697:20700  100 */\n      0x64\n        /* \"contracts/Utils.sol\":20606:20691  ((yearlyDRGRewardAllocation.mul(rewardTokenPrice)).div(amount)).div(poolLiquidityUsd) */\n      tag_263\n        /* \"contracts/Utils.sol\":20674:20690  poolLiquidityUsd */\n      dup4\n        /* \"contracts/Utils.sol\":20607:20668  (yearlyDRGRewardAllocation.mul(rewardTokenPrice)).div(amount) */\n      tag_264\n        /* \"contracts/Utils.sol\":20661:20667  amount */\n      sload(0x03)\n        /* \"contracts/Utils.sol\":20608:20655  yearlyDRGRewardAllocation.mul(rewardTokenPrice) */\n      tag_265\n        /* \"contracts/Utils.sol\":20638:20654  rewardTokenPrice */\n      dup11\n        /* \"contracts/Utils.sol\":20608:20633  yearlyDRGRewardAllocation */\n      dup10\n        /* \"contracts/Utils.sol\":20608:20637  yearlyDRGRewardAllocation.mul */\n      tag_114\n      swap1\n        /* \"contracts/Utils.sol\":20608:20655  yearlyDRGRewardAllocation.mul(rewardTokenPrice) */\n      swap2\n      swap1\n      0xffffffff\n      and\n      jump\t// in\n    tag_265:\n        /* \"contracts/Utils.sol\":20607:20660  (yearlyDRGRewardAllocation.mul(rewardTokenPrice)).div */\n      tag_174\n      swap1\n        /* \"contracts/Utils.sol\":20607:20668  (yearlyDRGRewardAllocation.mul(rewardTokenPrice)).div(amount) */\n      swap2\n      swap1\n      0xffffffff\n      and\n      jump\t// in\n    tag_264:\n        /* \"contracts/Utils.sol\":20606:20673  ((yearlyDRGRewardAllocation.mul(rewardTokenPrice)).div(amount)).div */\n      tag_174\n      swap1\n        /* \"contracts/Utils.sol\":20606:20691  ((yearlyDRGRewardAllocation.mul(rewardTokenPrice)).div(amount)).div(poolLiquidityUsd) */\n      swap2\n      swap1\n      0xffffffff\n      and\n      jump\t// in\n    tag_263:\n        /* \"contracts/Utils.sol\":20605:20696  (((yearlyDRGRewardAllocation.mul(rewardTokenPrice)).div(amount)).div(poolLiquidityUsd)).mul */\n      tag_114\n      swap1\n        /* \"contracts/Utils.sol\":20605:20701  (((yearlyDRGRewardAllocation.mul(rewardTokenPrice)).div(amount)).div(poolLiquidityUsd)).mul(100) */\n      swap2\n      swap1\n      0xffffffff\n      and\n      jump\t// in\n    tag_262:\n        /* \"contracts/Utils.sol\":20599:20701  return(((yearlyDRGRewardAllocation.mul(rewardTokenPrice)).div(amount)).div(poolLiquidityUsd)).mul(100) */\n      swap7\n      pop\n      pop\n      pop\n      pop\n      pop\n      pop\n      pop\n        /* \"contracts/Utils.sol\":20009:20709  function CalcApy(uint256 pid, LP lpAddress,uint256 isLp, MetaMasterChef MasterChef) external view returns(uint256){\r... */\n      swap5\n      swap4\n      pop\n      pop\n      pop\n      pop\n      jump\t// out\n        /* \"contracts/Utils.sol\":14758:14959  function transferOwnership(address newOwner) public virtual onlyOwner {\r... */\n    tag_69:\n        /* \"contracts/Utils.sol\":14080:14092  _msgSender() */\n      tag_267\n        /* \"contracts/Utils.sol\":14080:14090  _msgSender */\n      tag_205\n        /* \"contracts/Utils.sol\":14080:14092  _msgSender() */\n      jump\t// in\n    tag_267:\n        /* \"contracts/Utils.sol\":14069:14092  owner() == _msgSender() */\n      0xffffffffffffffffffffffffffffffffffffffff\n      and\n        /* \"contracts/Utils.sol\":14069:14076  owner() */\n      tag_268\n        /* \"contracts/Utils.sol\":14069:14074  owner */\n      tag_49\n        /* \"contracts/Utils.sol\":14069:14076  owner() */\n      jump\t// in\n    tag_268:\n        /* \"contracts/Utils.sol\":14069:14092  owner() == _msgSender() */\n      0xffffffffffffffffffffffffffffffffffffffff\n      and\n      eq\n        /* \"contracts/Utils.sol\":14061:14129  require(owner() == _msgSender(), \"Ownable: caller is not the owner\") */\n      tag_269\n      jumpi\n      mload(0x40)\n      0x08c379a000000000000000000000000000000000000000000000000000000000\n      dup2\n      mstore\n      0x04\n      add\n      tag_270\n      swap1\n      tag_209\n      jump\t// in\n    tag_270:\n      mload(0x40)\n      dup1\n      swap2\n      sub\n      swap1\n      revert\n    tag_269:\n        /* \"contracts/Utils.sol\":14867:14868  0 */\n      0x00\n        /* \"contracts/Utils.sol\":14847:14869  newOwner != address(0) */\n      0xffffffffffffffffffffffffffffffffffffffff\n      and\n        /* \"contracts/Utils.sol\":14847:14855  newOwner */\n      dup2\n        /* \"contracts/Utils.sol\":14847:14869  newOwner != address(0) */\n      0xffffffffffffffffffffffffffffffffffffffff\n      and\n      eq\n      iszero\n        /* \"contracts/Utils.sol\":14839:14912  require(newOwner != address(0), \"Ownable: new owner is the zero address\") */\n      tag_272\n      jumpi\n      mload(0x40)\n      0x08c379a000000000000000000000000000000000000000000000000000000000\n      dup2\n      mstore\n      0x04\n      add\n      tag_273\n      swap1\n      tag_274\n      jump\t// in\n    tag_273:\n      mload(0x40)\n      dup1\n      swap2\n      sub\n      swap1\n      revert\n    tag_272:\n        /* \"contracts/Utils.sol\":14923:14951  _transferOwnership(newOwner) */\n      tag_275\n        /* \"contracts/Utils.sol\":14942:14950  newOwner */\n      dup2\n        /* \"contracts/Utils.sol\":14923:14941  _transferOwnership */\n      tag_212\n        /* \"contracts/Utils.sol\":14923:14951  _transferOwnership(newOwner) */\n      jump\t// in\n    tag_275:\n        /* \"contracts/Utils.sol\":14758:14959  function transferOwnership(address newOwner) public virtual onlyOwner {\r... */\n      pop\n      jump\t// out\n        /* \"contracts/Utils.sol\":9965:10436  function mul(uint256 a, uint256 b) internal pure returns (uint256) {\r... */\n    tag_114:\n        /* \"contracts/Utils.sol\":10023:10030  uint256 */\n      0x00\n        /* \"contracts/Utils.sol\":10273:10274  0 */\n      dup1\n        /* \"contracts/Utils.sol\":10268:10269  a */\n      dup4\n        /* \"contracts/Utils.sol\":10268:10274  a == 0 */\n      eq\n        /* \"contracts/Utils.sol\":10264:10311  if (a == 0) {\r... */\n      iszero\n      tag_277\n      jumpi\n        /* \"contracts/Utils.sol\":10298:10299  0 */\n      0x00\n        /* \"contracts/Utils.sol\":10291:10299  return 0 */\n      swap1\n      pop\n      jump(tag_276)\n        /* \"contracts/Utils.sol\":10264:10311  if (a == 0) {\r... */\n    tag_277:\n        /* \"contracts/Utils.sol\":10323:10332  uint256 c */\n      0x00\n        /* \"contracts/Utils.sol\":10339:10340  b */\n      dup3\n        /* \"contracts/Utils.sol\":10335:10336  a */\n      dup5\n        /* \"contracts/Utils.sol\":10335:10340  a * b */\n      tag_278\n      swap2\n      swap1\n      tag_236\n      jump\t// in\n    tag_278:\n        /* \"contracts/Utils.sol\":10323:10340  uint256 c = a * b */\n      swap1\n      pop\n        /* \"contracts/Utils.sol\":10368:10369  b */\n      dup3\n        /* \"contracts/Utils.sol\":10363:10364  a */\n      dup5\n        /* \"contracts/Utils.sol\":10359:10360  c */\n      dup3\n        /* \"contracts/Utils.sol\":10359:10364  c / a */\n      tag_279\n      swap2\n      swap1\n      tag_280\n      jump\t// in\n    tag_279:\n        /* \"contracts/Utils.sol\":10359:10369  c / a == b */\n      eq\n        /* \"contracts/Utils.sol\":10351:10407  require(c / a == b, \"SafeMath: multiplication overflow\") */\n      tag_281\n      jumpi\n      mload(0x40)\n      0x08c379a000000000000000000000000000000000000000000000000000000000\n      dup2\n      mstore\n      0x04\n      add\n      tag_282\n      swap1\n      tag_283\n      jump\t// in\n    tag_282:\n      mload(0x40)\n      dup1\n      swap2\n      sub\n      swap1\n      revert\n    tag_281:\n        /* \"contracts/Utils.sol\":10427:10428  c */\n      dup1\n        /* \"contracts/Utils.sol\":10420:10428  return c */\n      swap2\n      pop\n      pop\n        /* \"contracts/Utils.sol\":9965:10436  function mul(uint256 a, uint256 b) internal pure returns (uint256) {\r... */\n    tag_276:\n      swap3\n      swap2\n      pop\n      pop\n      jump\t// out\n        /* \"contracts/Utils.sol\":8593:8774  function add(uint256 a, uint256 b) internal pure returns (uint256) {\r... */\n    tag_173:\n        /* \"contracts/Utils.sol\":8651:8658  uint256 */\n      0x00\n        /* \"contracts/Utils.sol\":8671:8680  uint256 c */\n      dup1\n        /* \"contracts/Utils.sol\":8687:8688  b */\n      dup3\n        /* \"contracts/Utils.sol\":8683:8684  a */\n      dup5\n        /* \"contracts/Utils.sol\":8683:8688  a + b */\n      tag_285\n      swap2\n      swap1\n      tag_286\n      jump\t// in\n    tag_285:\n        /* \"contracts/Utils.sol\":8671:8688  uint256 c = a + b */\n      swap1\n      pop\n        /* \"contracts/Utils.sol\":8712:8713  a */\n      dup4\n        /* \"contracts/Utils.sol\":8707:8708  c */\n      dup2\n        /* \"contracts/Utils.sol\":8707:8713  c >= a */\n      lt\n      iszero\n        /* \"contracts/Utils.sol\":8699:8745  require(c >= a, \"SafeMath: addition overflow\") */\n      tag_287\n      jumpi\n      mload(0x40)\n      0x08c379a000000000000000000000000000000000000000000000000000000000\n      dup2\n      mstore\n      0x04\n      add\n      tag_288\n      swap1\n      tag_289\n      jump\t// in\n    tag_288:\n      mload(0x40)\n      dup1\n      swap2\n      sub\n      swap1\n      revert\n    tag_287:\n        /* \"contracts/Utils.sol\":8765:8766  c */\n      dup1\n        /* \"contracts/Utils.sol\":8758:8766  return c */\n      swap2\n      pop\n      pop\n        /* \"contracts/Utils.sol\":8593:8774  function add(uint256 a, uint256 b) internal pure returns (uint256) {\r... */\n      swap3\n      swap2\n      pop\n      pop\n      jump\t// out\n        /* \"contracts/Utils.sol\":10904:11036  function div(uint256 a, uint256 b) internal pure returns (uint256) {\r... */\n    tag_174:\n        /* \"contracts/Utils.sol\":10962:10969  uint256 */\n      0x00\n        /* \"contracts/Utils.sol\":10989:11028  div(a, b, \"SafeMath: division by zero\") */\n      tag_291\n        /* \"contracts/Utils.sol\":10993:10994  a */\n      dup4\n        /* \"contracts/Utils.sol\":10996:10997  b */\n      dup4\n        /* \"contracts/Utils.sol\":10989:11028  div(a, b, \"SafeMath: division by zero\") */\n      mload(0x40)\n      dup1\n      0x40\n      add\n      0x40\n      mstore\n      dup1\n      0x1a\n      dup2\n      mstore\n      0x20\n      add\n      0x536166654d6174683a206469766973696f6e206279207a65726f000000000000\n      dup2\n      mstore\n      pop\n        /* \"contracts/Utils.sol\":10989:10992  div */\n      tag_292\n        /* \"contracts/Utils.sol\":10989:11028  div(a, b, \"SafeMath: division by zero\") */\n      jump\t// in\n    tag_291:\n        /* \"contracts/Utils.sol\":10982:11028  return div(a, b, \"SafeMath: division by zero\") */\n      swap1\n      pop\n        /* \"contracts/Utils.sol\":10904:11036  function div(uint256 a, uint256 b) internal pure returns (uint256) {\r... */\n      swap3\n      swap2\n      pop\n      pop\n      jump\t// out\n        /* \"contracts/Utils.sol\":13223:13321  function _msgSender() internal view virtual returns (address) {\r... */\n    tag_205:\n        /* \"contracts/Utils.sol\":13276:13283  address */\n      0x00\n        /* \"contracts/Utils.sol\":13303:13313  msg.sender */\n      caller\n        /* \"contracts/Utils.sol\":13296:13313  return msg.sender */\n      swap1\n      pop\n        /* \"contracts/Utils.sol\":13223:13321  function _msgSender() internal view virtual returns (address) {\r... */\n      swap1\n      jump\t// out\n        /* \"contracts/Utils.sol\":15119:15310  function _transferOwnership(address newOwner) internal virtual {\r... */\n    tag_212:\n        /* \"contracts/Utils.sol\":15193:15209  address oldOwner */\n      0x00\n        /* \"contracts/Utils.sol\":15212:15218  _owner */\n      dup1\n      0x00\n      swap1\n      sload\n      swap1\n      0x0100\n      exp\n      swap1\n      div\n      0xffffffffffffffffffffffffffffffffffffffff\n      and\n        /* \"contracts/Utils.sol\":15193:15218  address oldOwner = _owner */\n      swap1\n      pop\n        /* \"contracts/Utils.sol\":15238:15246  newOwner */\n      dup2\n        /* \"contracts/Utils.sol\":15229:15235  _owner */\n      0x00\n      dup1\n        /* \"contracts/Utils.sol\":15229:15246  _owner = newOwner */\n      0x0100\n      exp\n      dup2\n      sload\n      dup2\n      0xffffffffffffffffffffffffffffffffffffffff\n      mul\n      not\n      and\n      swap1\n      dup4\n      0xffffffffffffffffffffffffffffffffffffffff\n      and\n      mul\n      or\n      swap1\n      sstore\n      pop\n        /* \"contracts/Utils.sol\":15293:15301  newOwner */\n      dup2\n        /* \"contracts/Utils.sol\":15262:15302  OwnershipTransferred(oldOwner, newOwner) */\n      0xffffffffffffffffffffffffffffffffffffffff\n      and\n        /* \"contracts/Utils.sol\":15283:15291  oldOwner */\n      dup2\n        /* \"contracts/Utils.sol\":15262:15302  OwnershipTransferred(oldOwner, newOwner) */\n      0xffffffffffffffffffffffffffffffffffffffff\n      and\n      0x8be0079c531659141344cd1fd0a4f28419497f9722a3daafe3b4186f6b6457e0\n      mload(0x40)\n      mload(0x40)\n      dup1\n      swap2\n      sub\n      swap1\n      log3\n        /* \"contracts/Utils.sol\":15182:15310  {\r... */\n      pop\n        /* \"contracts/Utils.sol\":15119:15310  function _transferOwnership(address newOwner) internal virtual {\r... */\n      pop\n      jump\t// out\n        /* \"contracts/Utils.sol\":11566:11911  function div(uint256 a, uint256 b, string memory errorMessage) internal pure returns (uint256) {\r... */\n    tag_292:\n        /* \"contracts/Utils.sol\":11652:11659  uint256 */\n      0x00\n        /* \"contracts/Utils.sol\":11751:11752  0 */\n      dup1\n        /* \"contracts/Utils.sol\":11747:11748  b */\n      dup4\n        /* \"contracts/Utils.sol\":11747:11752  b > 0 */\n      gt\n        /* \"contracts/Utils.sol\":11754:11766  errorMessage */\n      dup3\n        /* \"contracts/Utils.sol\":11739:11767  require(b > 0, errorMessage) */\n      swap1\n      tag_296\n      jumpi\n      mload(0x40)\n      0x08c379a000000000000000000000000000000000000000000000000000000000\n      dup2\n      mstore\n      0x04\n      add\n      tag_297\n      swap2\n      swap1\n      tag_298\n      jump\t// in\n    tag_297:\n      mload(0x40)\n      dup1\n      swap2\n      sub\n      swap1\n      revert\n    tag_296:\n      pop\n        /* \"contracts/Utils.sol\":11778:11787  uint256 c */\n      0x00\n        /* \"contracts/Utils.sol\":11794:11795  b */\n      dup4\n        /* \"contracts/Utils.sol\":11790:11791  a */\n      dup6\n        /* \"contracts/Utils.sol\":11790:11795  a / b */\n      tag_299\n      swap2\n      swap1\n      tag_280\n      jump\t// in\n    tag_299:\n        /* \"contracts/Utils.sol\":11778:11795  uint256 c = a / b */\n      swap1\n      pop\n        /* \"contracts/Utils.sol\":11902:11903  c */\n      dup1\n        /* \"contracts/Utils.sol\":11895:11903  return c */\n      swap2\n      pop\n      pop\n        /* \"contracts/Utils.sol\":11566:11911  function div(uint256 a, uint256 b, string memory errorMessage) internal pure returns (uint256) {\r... */\n      swap4\n      swap3\n      pop\n      pop\n      pop\n      jump\t// out\n        /* \"#utility.yul\":24:768   */\n    tag_301:\n        /* \"#utility.yul\":131:136   */\n      0x00\n        /* \"#utility.yul\":156:237   */\n      tag_303\n        /* \"#utility.yul\":172:236   */\n      tag_304\n        /* \"#utility.yul\":229:235   */\n      dup5\n        /* \"#utility.yul\":172:236   */\n      tag_305\n      jump\t// in\n    tag_304:\n        /* \"#utility.yul\":156:237   */\n      tag_306\n      jump\t// in\n    tag_303:\n        /* \"#utility.yul\":147:237   */\n      swap1\n      pop\n        /* \"#utility.yul\":257:262   */\n      dup1\n        /* \"#utility.yul\":286:292   */\n      dup4\n        /* \"#utility.yul\":279:284   */\n      dup3\n        /* \"#utility.yul\":272:293   */\n      mstore\n        /* \"#utility.yul\":320:324   */\n      0x20\n        /* \"#utility.yul\":313:318   */\n      dup3\n        /* \"#utility.yul\":309:325   */\n      add\n        /* \"#utility.yul\":302:325   */\n      swap1\n      pop\n        /* \"#utility.yul\":346:352   */\n      dup3\n        /* \"#utility.yul\":396:399   */\n      dup6\n        /* \"#utility.yul\":388:392   */\n      0x20\n        /* \"#utility.yul\":380:386   */\n      dup7\n        /* \"#utility.yul\":376:393   */\n      mul\n        /* \"#utility.yul\":371:374   */\n      dup3\n        /* \"#utility.yul\":367:394   */\n      add\n        /* \"#utility.yul\":364:400   */\n      gt\n        /* \"#utility.yul\":361:504   */\n      iszero\n      tag_307\n      jumpi\n        /* \"#utility.yul\":415:494   */\n      tag_308\n      tag_309\n      jump\t// in\n    tag_308:\n        /* \"#utility.yul\":361:504   */\n    tag_307:\n        /* \"#utility.yul\":528:529   */\n      0x00\n        /* \"#utility.yul\":513:762   */\n    tag_310:\n        /* \"#utility.yul\":538:544   */\n      dup6\n        /* \"#utility.yul\":535:536   */\n      dup2\n        /* \"#utility.yul\":532:545   */\n      lt\n        /* \"#utility.yul\":513:762   */\n      iszero\n      tag_312\n      jumpi\n        /* \"#utility.yul\":606:609   */\n      dup2\n        /* \"#utility.yul\":635:683   */\n      tag_313\n        /* \"#utility.yul\":679:682   */\n      dup9\n        /* \"#utility.yul\":667:677   */\n      dup3\n        /* \"#utility.yul\":635:683   */\n      tag_314\n      jump\t// in\n    tag_313:\n        /* \"#utility.yul\":630:633   */\n      dup5\n        /* \"#utility.yul\":623:684   */\n      mstore\n        /* \"#utility.yul\":713:717   */\n      0x20\n        /* \"#utility.yul\":708:711   */\n      dup5\n        /* \"#utility.yul\":704:718   */\n      add\n        /* \"#utility.yul\":697:718   */\n      swap4\n      pop\n        /* \"#utility.yul\":747:751   */\n      0x20\n        /* \"#utility.yul\":742:745   */\n      dup4\n        /* \"#utility.yul\":738:752   */\n      add\n        /* \"#utility.yul\":731:752   */\n      swap3\n      pop\n        /* \"#utility.yul\":573:762   */\n      pop\n        /* \"#utility.yul\":560:561   */\n      0x01\n        /* \"#utility.yul\":557:558   */\n      dup2\n        /* \"#utility.yul\":553:562   */\n      add\n        /* \"#utility.yul\":548:562   */\n      swap1\n      pop\n        /* \"#utility.yul\":513:762   */\n      jump(tag_310)\n    tag_312:\n        /* \"#utility.yul\":517:531   */\n      pop\n        /* \"#utility.yul\":137:768   */\n      pop\n      pop\n        /* \"#utility.yul\":24:768   */\n      swap4\n      swap3\n      pop\n      pop\n      pop\n      jump\t// out\n        /* \"#utility.yul\":774:913   */\n    tag_315:\n        /* \"#utility.yul\":820:825   */\n      0x00\n        /* \"#utility.yul\":858:864   */\n      dup2\n        /* \"#utility.yul\":845:865   */\n      calldataload\n        /* \"#utility.yul\":836:865   */\n      swap1\n      pop\n        /* \"#utility.yul\":874:907   */\n      tag_317\n        /* \"#utility.yul\":901:906   */\n      dup2\n        /* \"#utility.yul\":874:907   */\n      tag_318\n      jump\t// in\n    tag_317:\n        /* \"#utility.yul\":774:913   */\n      swap3\n      swap2\n      pop\n      pop\n      jump\t// out\n        /* \"#utility.yul\":919:1062   */\n    tag_319:\n        /* \"#utility.yul\":976:981   */\n      0x00\n        /* \"#utility.yul\":1007:1013   */\n      dup2\n        /* \"#utility.yul\":1001:1014   */\n      mload\n        /* \"#utility.yul\":992:1014   */\n      swap1\n      pop\n        /* \"#utility.yul\":1023:1056   */\n      tag_321\n        /* \"#utility.yul\":1050:1055   */\n      dup2\n        /* \"#utility.yul\":1023:1056   */\n      tag_318\n      jump\t// in\n    tag_321:\n        /* \"#utility.yul\":919:1062   */\n      swap3\n      swap2\n      pop\n      pop\n      jump\t// out\n        /* \"#utility.yul\":1085:1470   */\n    tag_322:\n        /* \"#utility.yul\":1167:1172   */\n      0x00\n        /* \"#utility.yul\":1216:1219   */\n      dup3\n        /* \"#utility.yul\":1209:1213   */\n      0x1f\n        /* \"#utility.yul\":1201:1207   */\n      dup4\n        /* \"#utility.yul\":1197:1214   */\n      add\n        /* \"#utility.yul\":1193:1220   */\n      slt\n        /* \"#utility.yul\":1183:1305   */\n      tag_324\n      jumpi\n        /* \"#utility.yul\":1224:1303   */\n      tag_325\n      tag_326\n      jump\t// in\n    tag_325:\n        /* \"#utility.yul\":1183:1305   */\n    tag_324:\n        /* \"#utility.yul\":1334:1340   */\n      dup2\n        /* \"#utility.yul\":1328:1341   */\n      mload\n        /* \"#utility.yul\":1359:1464   */\n      tag_327\n        /* \"#utility.yul\":1460:1463   */\n      dup5\n        /* \"#utility.yul\":1452:1458   */\n      dup3\n        /* \"#utility.yul\":1445:1449   */\n      0x20\n        /* \"#utility.yul\":1437:1443   */\n      dup7\n        /* \"#utility.yul\":1433:1450   */\n      add\n        /* \"#utility.yul\":1359:1464   */\n      tag_301\n      jump\t// in\n    tag_327:\n        /* \"#utility.yul\":1350:1464   */\n      swap2\n      pop\n        /* \"#utility.yul\":1173:1470   */\n      pop\n        /* \"#utility.yul\":1085:1470   */\n      swap3\n      swap2\n      pop\n      pop\n      jump\t// out\n        /* \"#utility.yul\":1476:1647   */\n    tag_328:\n        /* \"#utility.yul\":1547:1552   */\n      0x00\n        /* \"#utility.yul\":1578:1584   */\n      dup2\n        /* \"#utility.yul\":1572:1585   */\n      mload\n        /* \"#utility.yul\":1563:1585   */\n      swap1\n      pop\n        /* \"#utility.yul\":1594:1641   */\n      tag_330\n        /* \"#utility.yul\":1635:1640   */\n      dup2\n        /* \"#utility.yul\":1594:1641   */\n      tag_331\n      jump\t// in\n    tag_330:\n        /* \"#utility.yul\":1476:1647   */\n      swap3\n      swap2\n      pop\n      pop\n      jump\t// out\n        /* \"#utility.yul\":1653:1834   */\n    tag_332:\n        /* \"#utility.yul\":1729:1734   */\n      0x00\n        /* \"#utility.yul\":1760:1766   */\n      dup2\n        /* \"#utility.yul\":1754:1767   */\n      mload\n        /* \"#utility.yul\":1745:1767   */\n      swap1\n      pop\n        /* \"#utility.yul\":1776:1828   */\n      tag_334\n        /* \"#utility.yul\":1822:1827   */\n      dup2\n        /* \"#utility.yul\":1776:1828   */\n      tag_335\n      jump\t// in\n    tag_334:\n        /* \"#utility.yul\":1653:1834   */\n      swap3\n      swap2\n      pop\n      pop\n      jump\t// out\n        /* \"#utility.yul\":1840:1999   */\n    tag_336:\n        /* \"#utility.yul\":1896:1901   */\n      0x00\n        /* \"#utility.yul\":1934:1940   */\n      dup2\n        /* \"#utility.yul\":1921:1941   */\n      calldataload\n        /* \"#utility.yul\":1912:1941   */\n      swap1\n      pop\n        /* \"#utility.yul\":1950:1993   */\n      tag_338\n        /* \"#utility.yul\":1987:1992   */\n      dup2\n        /* \"#utility.yul\":1950:1993   */\n      tag_339\n      jump\t// in\n    tag_338:\n        /* \"#utility.yul\":1840:1999   */\n      swap3\n      swap2\n      pop\n      pop\n      jump\t// out\n        /* \"#utility.yul\":2005:2188   */\n    tag_340:\n        /* \"#utility.yul\":2073:2078   */\n      0x00\n        /* \"#utility.yul\":2111:2117   */\n      dup2\n        /* \"#utility.yul\":2098:2118   */\n      calldataload\n        /* \"#utility.yul\":2089:2118   */\n      swap1\n      pop\n        /* \"#utility.yul\":2127:2182   */\n      tag_342\n        /* \"#utility.yul\":2176:2181   */\n      dup2\n        /* \"#utility.yul\":2127:2182   */\n      tag_343\n      jump\t// in\n    tag_342:\n        /* \"#utility.yul\":2005:2188   */\n      swap3\n      swap2\n      pop\n      pop\n      jump\t// out\n        /* \"#utility.yul\":2194:2361   */\n    tag_344:\n        /* \"#utility.yul\":2254:2259   */\n      0x00\n        /* \"#utility.yul\":2292:2298   */\n      dup2\n        /* \"#utility.yul\":2279:2299   */\n      calldataload\n        /* \"#utility.yul\":2270:2299   */\n      swap1\n      pop\n        /* \"#utility.yul\":2308:2355   */\n      tag_346\n        /* \"#utility.yul\":2349:2354   */\n      dup2\n        /* \"#utility.yul\":2308:2355   */\n      tag_347\n      jump\t// in\n    tag_346:\n        /* \"#utility.yul\":2194:2361   */\n      swap3\n      swap2\n      pop\n      pop\n      jump\t// out\n        /* \"#utility.yul\":2390:3781   */\n    tag_348:\n        /* \"#utility.yul\":2475:2480   */\n      0x00\n        /* \"#utility.yul\":2519:2523   */\n      0xc0\n        /* \"#utility.yul\":2507:2516   */\n      dup3\n        /* \"#utility.yul\":2502:2505   */\n      dup5\n        /* \"#utility.yul\":2498:2517   */\n      sub\n        /* \"#utility.yul\":2494:2524   */\n      slt\n        /* \"#utility.yul\":2491:2608   */\n      iszero\n      tag_350\n      jumpi\n        /* \"#utility.yul\":2527:2606   */\n      tag_351\n      tag_352\n      jump\t// in\n    tag_351:\n        /* \"#utility.yul\":2491:2608   */\n    tag_350:\n        /* \"#utility.yul\":2626:2647   */\n      tag_353\n        /* \"#utility.yul\":2642:2646   */\n      0xc0\n        /* \"#utility.yul\":2626:2647   */\n      tag_306\n      jump\t// in\n    tag_353:\n        /* \"#utility.yul\":2617:2647   */\n      swap1\n      pop\n        /* \"#utility.yul\":2709:2710   */\n      0x00\n        /* \"#utility.yul\":2749:2823   */\n      tag_354\n        /* \"#utility.yul\":2819:2822   */\n      dup5\n        /* \"#utility.yul\":2810:2816   */\n      dup3\n        /* \"#utility.yul\":2799:2808   */\n      dup6\n        /* \"#utility.yul\":2795:2817   */\n      add\n        /* \"#utility.yul\":2749:2823   */\n      tag_328\n      jump\t// in\n    tag_354:\n        /* \"#utility.yul\":2742:2746   */\n      0x00\n        /* \"#utility.yul\":2735:2740   */\n      dup4\n        /* \"#utility.yul\":2731:2747   */\n      add\n        /* \"#utility.yul\":2724:2824   */\n      mstore\n        /* \"#utility.yul\":2657:2835   */\n      pop\n        /* \"#utility.yul\":2900:2902   */\n      0x20\n        /* \"#utility.yul\":2941:3001   */\n      tag_355\n        /* \"#utility.yul\":2997:3000   */\n      dup5\n        /* \"#utility.yul\":2988:2994   */\n      dup3\n        /* \"#utility.yul\":2977:2986   */\n      dup6\n        /* \"#utility.yul\":2973:2995   */\n      add\n        /* \"#utility.yul\":2941:3001   */\n      tag_314\n      jump\t// in\n    tag_355:\n        /* \"#utility.yul\":2934:2938   */\n      0x20\n        /* \"#utility.yul\":2927:2932   */\n      dup4\n        /* \"#utility.yul\":2923:2939   */\n      add\n        /* \"#utility.yul\":2916:3002   */\n      mstore\n        /* \"#utility.yul\":2845:3013   */\n      pop\n        /* \"#utility.yul\":3083:3085   */\n      0x40\n        /* \"#utility.yul\":3124:3184   */\n      tag_356\n        /* \"#utility.yul\":3180:3183   */\n      dup5\n        /* \"#utility.yul\":3171:3177   */\n      dup3\n        /* \"#utility.yul\":3160:3169   */\n      dup6\n        /* \"#utility.yul\":3156:3178   */\n      add\n        /* \"#utility.yul\":3124:3184   */\n      tag_314\n      jump\t// in\n    tag_356:\n        /* \"#utility.yul\":3117:3121   */\n      0x40\n        /* \"#utility.yul\":3110:3115   */\n      dup4\n        /* \"#utility.yul\":3106:3122   */\n      add\n        /* \"#utility.yul\":3099:3185   */\n      mstore\n        /* \"#utility.yul\":3023:3196   */\n      pop\n        /* \"#utility.yul\":3265:3267   */\n      0x60\n        /* \"#utility.yul\":3306:3366   */\n      tag_357\n        /* \"#utility.yul\":3362:3365   */\n      dup5\n        /* \"#utility.yul\":3353:3359   */\n      dup3\n        /* \"#utility.yul\":3342:3351   */\n      dup6\n        /* \"#utility.yul\":3338:3360   */\n      add\n        /* \"#utility.yul\":3306:3366   */\n      tag_314\n      jump\t// in\n    tag_357:\n        /* \"#utility.yul\":3299:3303   */\n      0x60\n        /* \"#utility.yul\":3292:3297   */\n      dup4\n        /* \"#utility.yul\":3288:3304   */\n      add\n        /* \"#utility.yul\":3281:3367   */\n      mstore\n        /* \"#utility.yul\":3206:3378   */\n      pop\n        /* \"#utility.yul\":3447:3450   */\n      0x80\n        /* \"#utility.yul\":3489:3568   */\n      tag_358\n        /* \"#utility.yul\":3564:3567   */\n      dup5\n        /* \"#utility.yul\":3555:3561   */\n      dup3\n        /* \"#utility.yul\":3544:3553   */\n      dup6\n        /* \"#utility.yul\":3540:3562   */\n      add\n        /* \"#utility.yul\":3489:3568   */\n      tag_332\n      jump\t// in\n    tag_358:\n        /* \"#utility.yul\":3482:3486   */\n      0x80\n        /* \"#utility.yul\":3475:3480   */\n      dup4\n        /* \"#utility.yul\":3471:3487   */\n      add\n        /* \"#utility.yul\":3464:3569   */\n      mstore\n        /* \"#utility.yul\":3388:3580   */\n      pop\n        /* \"#utility.yul\":3646:3649   */\n      0xa0\n        /* \"#utility.yul\":3688:3762   */\n      tag_359\n        /* \"#utility.yul\":3758:3761   */\n      dup5\n        /* \"#utility.yul\":3749:3755   */\n      dup3\n        /* \"#utility.yul\":3738:3747   */\n      dup6\n        /* \"#utility.yul\":3734:3756   */\n      add\n        /* \"#utility.yul\":3688:3762   */\n      tag_328\n      jump\t// in\n    tag_359:\n        /* \"#utility.yul\":3681:3685   */\n      0xa0\n        /* \"#utility.yul\":3674:3679   */\n      dup4\n        /* \"#utility.yul\":3670:3686   */\n      add\n        /* \"#utility.yul\":3663:3763   */\n      mstore\n        /* \"#utility.yul\":3590:3774   */\n      pop\n        /* \"#utility.yul\":2390:3781   */\n      swap3\n      swap2\n      pop\n      pop\n      jump\t// out\n        /* \"#utility.yul\":3787:3926   */\n    tag_360:\n        /* \"#utility.yul\":3833:3838   */\n      0x00\n        /* \"#utility.yul\":3871:3877   */\n      dup2\n        /* \"#utility.yul\":3858:3878   */\n      calldataload\n        /* \"#utility.yul\":3849:3878   */\n      swap1\n      pop\n        /* \"#utility.yul\":3887:3920   */\n      tag_362\n        /* \"#utility.yul\":3914:3919   */\n      dup2\n        /* \"#utility.yul\":3887:3920   */\n      tag_363\n      jump\t// in\n    tag_362:\n        /* \"#utility.yul\":3787:3926   */\n      swap3\n      swap2\n      pop\n      pop\n      jump\t// out\n        /* \"#utility.yul\":3932:4075   */\n    tag_314:\n        /* \"#utility.yul\":3989:3994   */\n      0x00\n        /* \"#utility.yul\":4020:4026   */\n      dup2\n        /* \"#utility.yul\":4014:4027   */\n      mload\n        /* \"#utility.yul\":4005:4027   */\n      swap1\n      pop\n        /* \"#utility.yul\":4036:4069   */\n      tag_365\n        /* \"#utility.yul\":4063:4068   */\n      dup2\n        /* \"#utility.yul\":4036:4069   */\n      tag_363\n      jump\t// in\n    tag_365:\n        /* \"#utility.yul\":3932:4075   */\n      swap3\n      swap2\n      pop\n      pop\n      jump\t// out\n        /* \"#utility.yul\":4081:4410   */\n    tag_20:\n        /* \"#utility.yul\":4140:4146   */\n      0x00\n        /* \"#utility.yul\":4189:4191   */\n      0x20\n        /* \"#utility.yul\":4177:4186   */\n      dup3\n        /* \"#utility.yul\":4168:4175   */\n      dup5\n        /* \"#utility.yul\":4164:4187   */\n      sub\n        /* \"#utility.yul\":4160:4192   */\n      slt\n        /* \"#utility.yul\":4157:4276   */\n      iszero\n      tag_367\n      jumpi\n        /* \"#utility.yul\":4195:4274   */\n      tag_368\n      tag_369\n      jump\t// in\n    tag_368:\n        /* \"#utility.yul\":4157:4276   */\n    tag_367:\n        /* \"#utility.yul\":4315:4316   */\n      0x00\n        /* \"#utility.yul\":4340:4393   */\n      tag_370\n        /* \"#utility.yul\":4385:4392   */\n      dup5\n        /* \"#utility.yul\":4376:4382   */\n      dup3\n        /* \"#utility.yul\":4365:4374   */\n      dup6\n        /* \"#utility.yul\":4361:4383   */\n      add\n        /* \"#utility.yul\":4340:4393   */\n      tag_315\n      jump\t// in\n    tag_370:\n        /* \"#utility.yul\":4330:4393   */\n      swap2\n      pop\n        /* \"#utility.yul\":4286:4403   */\n      pop\n        /* \"#utility.yul\":4081:4410   */\n      swap3\n      swap2\n      pop\n      pop\n      jump\t// out\n        /* \"#utility.yul\":4416:4767   */\n    tag_254:\n        /* \"#utility.yul\":4486:4492   */\n      0x00\n        /* \"#utility.yul\":4535:4537   */\n      0x20\n        /* \"#utility.yul\":4523:4532   */\n      dup3\n        /* \"#utility.yul\":4514:4521   */\n      dup5\n        /* \"#utility.yul\":4510:4533   */\n      sub\n        /* \"#utility.yul\":4506:4538   */\n      slt\n        /* \"#utility.yul\":4503:4622   */\n      iszero\n      tag_372\n      jumpi\n        /* \"#utility.yul\":4541:4620   */\n      tag_373\n      tag_369\n      jump\t// in\n    tag_373:\n        /* \"#utility.yul\":4503:4622   */\n    tag_372:\n        /* \"#utility.yul\":4661:4662   */\n      0x00\n        /* \"#utility.yul\":4686:4750   */\n      tag_374\n        /* \"#utility.yul\":4742:4749   */\n      dup5\n        /* \"#utility.yul\":4733:4739   */\n      dup3\n        /* \"#utility.yul\":4722:4731   */\n      dup6\n        /* \"#utility.yul\":4718:4740   */\n      add\n        /* \"#utility.yul\":4686:4750   */\n      tag_319\n      jump\t// in\n    tag_374:\n        /* \"#utility.yul\":4676:4750   */\n      swap2\n      pop\n        /* \"#utility.yul\":4632:4760   */\n      pop\n        /* \"#utility.yul\":4416:4767   */\n      swap3\n      swap2\n      pop\n      pop\n      jump\t// out\n        /* \"#utility.yul\":4773:5327   */\n    tag_88:\n        /* \"#utility.yul\":4868:4874   */\n      0x00\n        /* \"#utility.yul\":4917:4919   */\n      0x20\n        /* \"#utility.yul\":4905:4914   */\n      dup3\n        /* \"#utility.yul\":4896:4903   */\n      dup5\n        /* \"#utility.yul\":4892:4915   */\n      sub\n        /* \"#utility.yul\":4888:4920   */\n      slt\n        /* \"#utility.yul\":4885:5004   */\n      iszero\n      tag_376\n      jumpi\n        /* \"#utility.yul\":4923:5002   */\n      tag_377\n      tag_369\n      jump\t// in\n    tag_377:\n        /* \"#utility.yul\":4885:5004   */\n    tag_376:\n        /* \"#utility.yul\":5064:5065   */\n      0x00\n        /* \"#utility.yul\":5053:5062   */\n      dup3\n        /* \"#utility.yul\":5049:5066   */\n      add\n        /* \"#utility.yul\":5043:5067   */\n      mload\n        /* \"#utility.yul\":5094:5112   */\n      0xffffffffffffffff\n        /* \"#utility.yul\":5086:5092   */\n      dup2\n        /* \"#utility.yul\":5083:5113   */\n      gt\n        /* \"#utility.yul\":5080:5197   */\n      iszero\n      tag_378\n      jumpi\n        /* \"#utility.yul\":5116:5195   */\n      tag_379\n      tag_380\n      jump\t// in\n    tag_379:\n        /* \"#utility.yul\":5080:5197   */\n    tag_378:\n        /* \"#utility.yul\":5221:5310   */\n      tag_381\n        /* \"#utility.yul\":5302:5309   */\n      dup5\n        /* \"#utility.yul\":5293:5299   */\n      dup3\n        /* \"#utility.yul\":5282:5291   */\n      dup6\n        /* \"#utility.yul\":5278:5300   */\n      add\n        /* \"#utility.yul\":5221:5310   */\n      tag_322\n      jump\t// in\n    tag_381:\n        /* \"#utility.yul\":5211:5310   */\n      swap2\n      pop\n        /* \"#utility.yul\":5014:5320   */\n      pop\n        /* \"#utility.yul\":4773:5327   */\n      swap3\n      swap2\n      pop\n      pop\n      jump\t// out\n        /* \"#utility.yul\":5333:5712   */\n    tag_96:\n        /* \"#utility.yul\":5417:5423   */\n      0x00\n        /* \"#utility.yul\":5466:5468   */\n      0x20\n        /* \"#utility.yul\":5454:5463   */\n      dup3\n        /* \"#utility.yul\":5445:5452   */\n      dup5\n        /* \"#utility.yul\":5441:5464   */\n      sub\n        /* \"#utility.yul\":5437:5469   */\n      slt\n        /* \"#utility.yul\":5434:5553   */\n      iszero\n      tag_383\n      jumpi\n        /* \"#utility.yul\":5472:5551   */\n      tag_384\n      tag_369\n      jump\t// in\n    tag_384:\n        /* \"#utility.yul\":5434:5553   */\n    tag_383:\n        /* \"#utility.yul\":5592:5593   */\n      0x00\n        /* \"#utility.yul\":5617:5695   */\n      tag_385\n        /* \"#utility.yul\":5687:5694   */\n      dup5\n        /* \"#utility.yul\":5678:5684   */\n      dup3\n        /* \"#utility.yul\":5667:5676   */\n      dup6\n        /* \"#utility.yul\":5663:5685   */\n      add\n        /* \"#utility.yul\":5617:5695   */\n      tag_328\n      jump\t// in\n    tag_385:\n        /* \"#utility.yul\":5607:5695   */\n      swap2\n      pop\n        /* \"#utility.yul\":5563:5705   */\n      pop\n        /* \"#utility.yul\":5333:5712   */\n      swap3\n      swap2\n      pop\n      pop\n      jump\t// out\n        /* \"#utility.yul\":5718:6067   */\n    tag_26:\n        /* \"#utility.yul\":5787:5793   */\n      0x00\n        /* \"#utility.yul\":5836:5838   */\n      0x20\n        /* \"#utility.yul\":5824:5833   */\n      dup3\n        /* \"#utility.yul\":5815:5822   */\n      dup5\n        /* \"#utility.yul\":5811:5834   */\n      sub\n        /* \"#utility.yul\":5807:5839   */\n      slt\n        /* \"#utility.yul\":5804:5923   */\n      iszero\n      tag_387\n      jumpi\n        /* \"#utility.yul\":5842:5921   */\n      tag_388\n      tag_369\n      jump\t// in\n    tag_388:\n        /* \"#utility.yul\":5804:5923   */\n    tag_387:\n        /* \"#utility.yul\":5962:5963   */\n      0x00\n        /* \"#utility.yul\":5987:6050   */\n      tag_389\n        /* \"#utility.yul\":6042:6049   */\n      dup5\n        /* \"#utility.yul\":6033:6039   */\n      dup3\n        /* \"#utility.yul\":6022:6031   */\n      dup6\n        /* \"#utility.yul\":6018:6040   */\n      add\n        /* \"#utility.yul\":5987:6050   */\n      tag_336\n      jump\t// in\n    tag_389:\n        /* \"#utility.yul\":5977:6050   */\n      swap2\n      pop\n        /* \"#utility.yul\":5933:6060   */\n      pop\n        /* \"#utility.yul\":5718:6067   */\n      swap3\n      swap2\n      pop\n      pop\n      jump\t// out\n        /* \"#utility.yul\":6073:6430   */\n    tag_56:\n        /* \"#utility.yul\":6146:6152   */\n      0x00\n        /* \"#utility.yul\":6195:6197   */\n      0x20\n        /* \"#utility.yul\":6183:6192   */\n      dup3\n        /* \"#utility.yul\":6174:6181   */\n      dup5\n        /* \"#utility.yul\":6170:6193   */\n      sub\n        /* \"#utility.yul\":6166:6198   */\n      slt\n        /* \"#utility.yul\":6163:6282   */\n      iszero\n      tag_391\n      jumpi\n        /* \"#utility.yul\":6201:6280   */\n      tag_392\n      tag_369\n      jump\t// in\n    tag_392:\n        /* \"#utility.yul\":6163:6282   */\n    tag_391:\n        /* \"#utility.yul\":6321:6322   */\n      0x00\n        /* \"#utility.yul\":6346:6413   */\n      tag_393\n        /* \"#utility.yul\":6405:6412   */\n      dup5\n        /* \"#utility.yul\":6396:6402   */\n      dup3\n        /* \"#utility.yul\":6385:6394   */\n      dup6\n        /* \"#utility.yul\":6381:6403   */\n      add\n        /* \"#utility.yul\":6346:6413   */\n      tag_344\n      jump\t// in\n    tag_393:\n        /* \"#utility.yul\":6336:6413   */\n      swap2\n      pop\n        /* \"#utility.yul\":6292:6423   */\n      pop\n        /* \"#utility.yul\":6073:6430   */\n      swap3\n      swap2\n      pop\n      pop\n      jump\t// out\n        /* \"#utility.yul\":6436:6838   */\n    tag_196:\n        /* \"#utility.yul\":6531:6537   */\n      0x00\n        /* \"#utility.yul\":6580:6583   */\n      0xc0\n        /* \"#utility.yul\":6568:6577   */\n      dup3\n        /* \"#utility.yul\":6559:6566   */\n      dup5\n        /* \"#utility.yul\":6555:6578   */\n      sub\n        /* \"#utility.yul\":6551:6584   */\n      slt\n        /* \"#utility.yul\":6548:6668   */\n      iszero\n      tag_395\n      jumpi\n        /* \"#utility.yul\":6587:6666   */\n      tag_396\n      tag_369\n      jump\t// in\n    tag_396:\n        /* \"#utility.yul\":6548:6668   */\n    tag_395:\n        /* \"#utility.yul\":6707:6708   */\n      0x00\n        /* \"#utility.yul\":6732:6821   */\n      tag_397\n        /* \"#utility.yul\":6813:6820   */\n      dup5\n        /* \"#utility.yul\":6804:6810   */\n      dup3\n        /* \"#utility.yul\":6793:6802   */\n      dup6\n        /* \"#utility.yul\":6789:6811   */\n      add\n        /* \"#utility.yul\":6732:6821   */\n      tag_348\n      jump\t// in\n    tag_397:\n        /* \"#utility.yul\":6722:6821   */\n      swap2\n      pop\n        /* \"#utility.yul\":6678:6831   */\n      pop\n        /* \"#utility.yul\":6436:6838   */\n      swap3\n      swap2\n      pop\n      pop\n      jump\t// out\n        /* \"#utility.yul\":6844:7195   */\n    tag_113:\n        /* \"#utility.yul\":6914:6920   */\n      0x00\n        /* \"#utility.yul\":6963:6965   */\n      0x20\n        /* \"#utility.yul\":6951:6960   */\n      dup3\n        /* \"#utility.yul\":6942:6949   */\n      dup5\n        /* \"#utility.yul\":6938:6961   */\n      sub\n        /* \"#utility.yul\":6934:6966   */\n      slt\n        /* \"#utility.yul\":6931:7050   */\n      iszero\n      tag_399\n      jumpi\n        /* \"#utility.yul\":6969:7048   */\n      tag_400\n      tag_369\n      jump\t// in\n    tag_400:\n        /* \"#utility.yul\":6931:7050   */\n    tag_399:\n        /* \"#utility.yul\":7089:7090   */\n      0x00\n        /* \"#utility.yul\":7114:7178   */\n      tag_401\n        /* \"#utility.yul\":7170:7177   */\n      dup5\n        /* \"#utility.yul\":7161:7167   */\n      dup3\n        /* \"#utility.yul\":7150:7159   */\n      dup6\n        /* \"#utility.yul\":7146:7168   */\n      add\n        /* \"#utility.yul\":7114:7178   */\n      tag_314\n      jump\t// in\n    tag_401:\n        /* \"#utility.yul\":7104:7178   */\n      swap2\n      pop\n        /* \"#utility.yul\":7060:7188   */\n      pop\n        /* \"#utility.yul\":6844:7195   */\n      swap3\n      swap2\n      pop\n      pop\n      jump\t// out\n        /* \"#utility.yul\":7201:8030   */\n    tag_60:\n        /* \"#utility.yul\":7319:7325   */\n      0x00\n        /* \"#utility.yul\":7327:7333   */\n      dup1\n        /* \"#utility.yul\":7335:7341   */\n      0x00\n        /* \"#utility.yul\":7343:7349   */\n      dup1\n        /* \"#utility.yul\":7392:7395   */\n      0x80\n        /* \"#utility.yul\":7380:7389   */\n      dup6\n        /* \"#utility.yul\":7371:7378   */\n      dup8\n        /* \"#utility.yul\":7367:7390   */\n      sub\n        /* \"#utility.yul\":7363:7396   */\n      slt\n        /* \"#utility.yul\":7360:7480   */\n      iszero\n      tag_403\n      jumpi\n        /* \"#utility.yul\":7399:7478   */\n      tag_404\n      tag_369\n      jump\t// in\n    tag_404:\n        /* \"#utility.yul\":7360:7480   */\n    tag_403:\n        /* \"#utility.yul\":7519:7520   */\n      0x00\n        /* \"#utility.yul\":7544:7597   */\n      tag_405\n        /* \"#utility.yul\":7589:7596   */\n      dup8\n        /* \"#utility.yul\":7580:7586   */\n      dup3\n        /* \"#utility.yul\":7569:7578   */\n      dup9\n        /* \"#utility.yul\":7565:7587   */\n      add\n        /* \"#utility.yul\":7544:7597   */\n      tag_360\n      jump\t// in\n    tag_405:\n        /* \"#utility.yul\":7534:7597   */\n      swap5\n      pop\n        /* \"#utility.yul\":7490:7607   */\n      pop\n        /* \"#utility.yul\":7646:7648   */\n      0x20\n        /* \"#utility.yul\":7672:7735   */\n      tag_406\n        /* \"#utility.yul\":7727:7734   */\n      dup8\n        /* \"#utility.yul\":7718:7724   */\n      dup3\n        /* \"#utility.yul\":7707:7716   */\n      dup9\n        /* \"#utility.yul\":7703:7725   */\n      add\n        /* \"#utility.yul\":7672:7735   */\n      tag_336\n      jump\t// in\n    tag_406:\n        /* \"#utility.yul\":7662:7735   */\n      swap4\n      pop\n        /* \"#utility.yul\":7617:7745   */\n      pop\n        /* \"#utility.yul\":7784:7786   */\n      0x40\n        /* \"#utility.yul\":7810:7863   */\n      tag_407\n        /* \"#utility.yul\":7855:7862   */\n      dup8\n        /* \"#utility.yul\":7846:7852   */\n      dup3\n        /* \"#utility.yul\":7835:7844   */\n      dup9\n        /* \"#utility.yul\":7831:7853   */\n      add\n        /* \"#utility.yul\":7810:7863   */\n      tag_360\n      jump\t// in\n    tag_407:\n        /* \"#utility.yul\":7800:7863   */\n      swap3\n      pop\n        /* \"#utility.yul\":7755:7873   */\n      pop\n        /* \"#utility.yul\":7912:7914   */\n      0x60\n        /* \"#utility.yul\":7938:8013   */\n      tag_408\n        /* \"#utility.yul\":8005:8012   */\n      dup8\n        /* \"#utility.yul\":7996:8002   */\n      dup3\n        /* \"#utility.yul\":7985:7994   */\n      dup9\n        /* \"#utility.yul\":7981:8003   */\n      add\n        /* \"#utility.yul\":7938:8013   */\n      tag_340\n      jump\t// in\n    tag_408:\n        /* \"#utility.yul\":7928:8013   */\n      swap2\n      pop\n        /* \"#utility.yul\":7883:8023   */\n      pop\n        /* \"#utility.yul\":7201:8030   */\n      swap3\n      swap6\n      swap2\n      swap5\n      pop\n      swap3\n      pop\n      jump\t// out\n        /* \"#utility.yul\":8036:8554   */\n    tag_43:\n        /* \"#utility.yul\":8126:8132   */\n      0x00\n        /* \"#utility.yul\":8134:8140   */\n      dup1\n        /* \"#utility.yul\":8183:8185   */\n      0x40\n        /* \"#utility.yul\":8171:8180   */\n      dup4\n        /* \"#utility.yul\":8162:8169   */\n      dup6\n        /* \"#utility.yul\":8158:8181   */\n      sub\n        /* \"#utility.yul\":8154:8186   */\n      slt\n        /* \"#utility.yul\":8151:8270   */\n      iszero\n      tag_410\n      jumpi\n        /* \"#utility.yul\":8189:8268   */\n      tag_411\n      tag_369\n      jump\t// in\n    tag_411:\n        /* \"#utility.yul\":8151:8270   */\n    tag_410:\n        /* \"#utility.yul\":8309:8310   */\n      0x00\n        /* \"#utility.yul\":8334:8387   */\n      tag_412\n        /* \"#utility.yul\":8379:8386   */\n      dup6\n        /* \"#utility.yul\":8370:8376   */\n      dup3\n        /* \"#utility.yul\":8359:8368   */\n      dup7\n        /* \"#utility.yul\":8355:8377   */\n      add\n        /* \"#utility.yul\":8334:8387   */\n      tag_360\n      jump\t// in\n    tag_412:\n        /* \"#utility.yul\":8324:8387   */\n      swap3\n      pop\n        /* \"#utility.yul\":8280:8397   */\n      pop\n        /* \"#utility.yul\":8436:8438   */\n      0x20\n        /* \"#utility.yul\":8462:8537   */\n      tag_413\n        /* \"#utility.yul\":8529:8536   */\n      dup6\n        /* \"#utility.yul\":8520:8526   */\n      dup3\n        /* \"#utility.yul\":8509:8518   */\n      dup7\n        /* \"#utility.yul\":8505:8527   */\n      add\n        /* \"#utility.yul\":8462:8537   */\n      tag_340\n      jump\t// in\n    tag_413:\n        /* \"#utility.yul\":8452:8537   */\n      swap2\n      pop\n        /* \"#utility.yul\":8407:8547   */\n      pop\n        /* \"#utility.yul\":8036:8554   */\n      swap3\n      pop\n      swap3\n      swap1\n      pop\n      jump\t// out\n        /* \"#utility.yul\":8560:8739   */\n    tag_414:\n        /* \"#utility.yul\":8629:8639   */\n      0x00\n        /* \"#utility.yul\":8650:8696   */\n      tag_416\n        /* \"#utility.yul\":8692:8695   */\n      dup4\n        /* \"#utility.yul\":8684:8690   */\n      dup4\n        /* \"#utility.yul\":8650:8696   */\n      tag_417\n      jump\t// in\n    tag_416:\n        /* \"#utility.yul\":8728:8732   */\n      0x20\n        /* \"#utility.yul\":8723:8726   */\n      dup4\n        /* \"#utility.yul\":8719:8733   */\n      add\n        /* \"#utility.yul\":8705:8733   */\n      swap1\n      pop\n        /* \"#utility.yul\":8560:8739   */\n      swap3\n      swap2\n      pop\n      pop\n      jump\t// out\n        /* \"#utility.yul\":8745:8853   */\n    tag_417:\n        /* \"#utility.yul\":8822:8846   */\n      tag_419\n        /* \"#utility.yul\":8840:8845   */\n      dup2\n        /* \"#utility.yul\":8822:8846   */\n      tag_420\n      jump\t// in\n    tag_419:\n        /* \"#utility.yul\":8817:8820   */\n      dup3\n        /* \"#utility.yul\":8810:8847   */\n      mstore\n        /* \"#utility.yul\":8745:8853   */\n      pop\n      pop\n      jump\t// out\n        /* \"#utility.yul\":8859:8977   */\n    tag_421:\n        /* \"#utility.yul\":8946:8970   */\n      tag_423\n        /* \"#utility.yul\":8964:8969   */\n      dup2\n        /* \"#utility.yul\":8946:8970   */\n      tag_420\n      jump\t// in\n    tag_423:\n        /* \"#utility.yul\":8941:8944   */\n      dup3\n        /* \"#utility.yul\":8934:8971   */\n      mstore\n        /* \"#utility.yul\":8859:8977   */\n      pop\n      pop\n      jump\t// out\n        /* \"#utility.yul\":9013:9745   */\n    tag_424:\n        /* \"#utility.yul\":9132:9135   */\n      0x00\n        /* \"#utility.yul\":9161:9215   */\n      tag_426\n        /* \"#utility.yul\":9209:9214   */\n      dup3\n        /* \"#utility.yul\":9161:9215   */\n      tag_427\n      jump\t// in\n    tag_426:\n        /* \"#utility.yul\":9231:9317   */\n      tag_428\n        /* \"#utility.yul\":9310:9316   */\n      dup2\n        /* \"#utility.yul\":9305:9308   */\n      dup6\n        /* \"#utility.yul\":9231:9317   */\n      tag_429\n      jump\t// in\n    tag_428:\n        /* \"#utility.yul\":9224:9317   */\n      swap4\n      pop\n        /* \"#utility.yul\":9341:9397   */\n      tag_430\n        /* \"#utility.yul\":9391:9396   */\n      dup4\n        /* \"#utility.yul\":9341:9397   */\n      tag_431\n      jump\t// in\n    tag_430:\n        /* \"#utility.yul\":9420:9427   */\n      dup1\n        /* \"#utility.yul\":9451:9452   */\n      0x00\n        /* \"#utility.yul\":9436:9720   */\n    tag_432:\n        /* \"#utility.yul\":9461:9467   */\n      dup4\n        /* \"#utility.yul\":9458:9459   */\n      dup2\n        /* \"#utility.yul\":9455:9468   */\n      lt\n        /* \"#utility.yul\":9436:9720   */\n      iszero\n      tag_434\n      jumpi\n        /* \"#utility.yul\":9537:9543   */\n      dup2\n        /* \"#utility.yul\":9531:9544   */\n      mload\n        /* \"#utility.yul\":9564:9627   */\n      tag_435\n        /* \"#utility.yul\":9623:9626   */\n      dup9\n        /* \"#utility.yul\":9608:9621   */\n      dup3\n        /* \"#utility.yul\":9564:9627   */\n      tag_414\n      jump\t// in\n    tag_435:\n        /* \"#utility.yul\":9557:9627   */\n      swap8\n      pop\n        /* \"#utility.yul\":9650:9710   */\n      tag_436\n        /* \"#utility.yul\":9703:9709   */\n      dup4\n        /* \"#utility.yul\":9650:9710   */\n      tag_437\n      jump\t// in\n    tag_436:\n        /* \"#utility.yul\":9640:9710   */\n      swap3\n      pop\n        /* \"#utility.yul\":9496:9720   */\n      pop\n        /* \"#utility.yul\":9483:9484   */\n      0x01\n        /* \"#utility.yul\":9480:9481   */\n      dup2\n        /* \"#utility.yul\":9476:9485   */\n      add\n        /* \"#utility.yul\":9471:9485   */\n      swap1\n      pop\n        /* \"#utility.yul\":9436:9720   */\n      jump(tag_432)\n    tag_434:\n        /* \"#utility.yul\":9440:9454   */\n      pop\n        /* \"#utility.yul\":9736:9739   */\n      dup6\n        /* \"#utility.yul\":9729:9739   */\n      swap4\n      pop\n        /* \"#utility.yul\":9137:9745   */\n      pop\n      pop\n      pop\n        /* \"#utility.yul\":9013:9745   */\n      swap3\n      swap2\n      pop\n      pop\n      jump\t// out\n        /* \"#utility.yul\":9751:9910   */\n    tag_438:\n        /* \"#utility.yul\":9852:9903   */\n      tag_440\n        /* \"#utility.yul\":9897:9902   */\n      dup2\n        /* \"#utility.yul\":9852:9903   */\n      tag_441\n      jump\t// in\n    tag_440:\n        /* \"#utility.yul\":9847:9850   */\n      dup3\n        /* \"#utility.yul\":9840:9904   */\n      mstore\n        /* \"#utility.yul\":9751:9910   */\n      pop\n      pop\n      jump\t// out\n        /* \"#utility.yul\":9916:10280   */\n    tag_442:\n        /* \"#utility.yul\":10004:10007   */\n      0x00\n        /* \"#utility.yul\":10032:10071   */\n      tag_444\n        /* \"#utility.yul\":10065:10070   */\n      dup3\n        /* \"#utility.yul\":10032:10071   */\n      tag_445\n      jump\t// in\n    tag_444:\n        /* \"#utility.yul\":10087:10158   */\n      tag_446\n        /* \"#utility.yul\":10151:10157   */\n      dup2\n        /* \"#utility.yul\":10146:10149   */\n      dup6\n        /* \"#utility.yul\":10087:10158   */\n      tag_447\n      jump\t// in\n    tag_446:\n        /* \"#utility.yul\":10080:10158   */\n      swap4\n      pop\n        /* \"#utility.yul\":10167:10219   */\n      tag_448\n        /* \"#utility.yul\":10212:10218   */\n      dup2\n        /* \"#utility.yul\":10207:10210   */\n      dup6\n        /* \"#utility.yul\":10200:10204   */\n      0x20\n        /* \"#utility.yul\":10193:10198   */\n      dup7\n        /* \"#utility.yul\":10189:10205   */\n      add\n        /* \"#utility.yul\":10167:10219   */\n      tag_449\n      jump\t// in\n    tag_448:\n        /* \"#utility.yul\":10244:10273   */\n      tag_450\n        /* \"#utility.yul\":10266:10272   */\n      dup2\n        /* \"#utility.yul\":10244:10273   */\n      tag_451\n      jump\t// in\n    tag_450:\n        /* \"#utility.yul\":10239:10242   */\n      dup5\n        /* \"#utility.yul\":10235:10274   */\n      add\n        /* \"#utility.yul\":10228:10274   */\n      swap2\n      pop\n        /* \"#utility.yul\":10008:10280   */\n      pop\n        /* \"#utility.yul\":9916:10280   */\n      swap3\n      swap2\n      pop\n      pop\n      jump\t// out\n        /* \"#utility.yul\":10286:10652   */\n    tag_452:\n        /* \"#utility.yul\":10428:10431   */\n      0x00\n        /* \"#utility.yul\":10449:10516   */\n      tag_454\n        /* \"#utility.yul\":10513:10515   */\n      0x26\n        /* \"#utility.yul\":10508:10511   */\n      dup4\n        /* \"#utility.yul\":10449:10516   */\n      tag_447\n      jump\t// in\n    tag_454:\n        /* \"#utility.yul\":10442:10516   */\n      swap2\n      pop\n        /* \"#utility.yul\":10525:10618   */\n      tag_455\n        /* \"#utility.yul\":10614:10617   */\n      dup3\n        /* \"#utility.yul\":10525:10618   */\n      tag_456\n      jump\t// in\n    tag_455:\n        /* \"#utility.yul\":10643:10645   */\n      0x40\n        /* \"#utility.yul\":10638:10641   */\n      dup3\n        /* \"#utility.yul\":10634:10646   */\n      add\n        /* \"#utility.yul\":10627:10646   */\n      swap1\n      pop\n        /* \"#utility.yul\":10286:10652   */\n      swap2\n      swap1\n      pop\n      jump\t// out\n        /* \"#utility.yul\":10658:11024   */\n    tag_457:\n        /* \"#utility.yul\":10800:10803   */\n      0x00\n        /* \"#utility.yul\":10821:10888   */\n      tag_459\n        /* \"#utility.yul\":10885:10887   */\n      0x1b\n        /* \"#utility.yul\":10880:10883   */\n      dup4\n        /* \"#utility.yul\":10821:10888   */\n      tag_447\n      jump\t// in\n    tag_459:\n        /* \"#utility.yul\":10814:10888   */\n      swap2\n      pop\n        /* \"#utility.yul\":10897:10990   */\n      tag_460\n        /* \"#utility.yul\":10986:10989   */\n      dup3\n        /* \"#utility.yul\":10897:10990   */\n      tag_461\n      jump\t// in\n    tag_460:\n        /* \"#utility.yul\":11015:11017   */\n      0x20\n        /* \"#utility.yul\":11010:11013   */\n      dup3\n        /* \"#utility.yul\":11006:11018   */\n      add\n        /* \"#utility.yul\":10999:11018   */\n      swap1\n      pop\n        /* \"#utility.yul\":10658:11024   */\n      swap2\n      swap1\n      pop\n      jump\t// out\n        /* \"#utility.yul\":11030:11396   */\n    tag_462:\n        /* \"#utility.yul\":11172:11175   */\n      0x00\n        /* \"#utility.yul\":11193:11260   */\n      tag_464\n        /* \"#utility.yul\":11257:11259   */\n      0x21\n        /* \"#utility.yul\":11252:11255   */\n      dup4\n        /* \"#utility.yul\":11193:11260   */\n      tag_447\n      jump\t// in\n    tag_464:\n        /* \"#utility.yul\":11186:11260   */\n      swap2\n      pop\n        /* \"#utility.yul\":11269:11362   */\n      tag_465\n        /* \"#utility.yul\":11358:11361   */\n      dup3\n        /* \"#utility.yul\":11269:11362   */\n      tag_466\n      jump\t// in\n    tag_465:\n        /* \"#utility.yul\":11387:11389   */\n      0x40\n        /* \"#utility.yul\":11382:11385   */\n      dup3\n        /* \"#utility.yul\":11378:11390   */\n      add\n        /* \"#utility.yul\":11371:11390   */\n      swap1\n      pop\n        /* \"#utility.yul\":11030:11396   */\n      swap2\n      swap1\n      pop\n      jump\t// out\n        /* \"#utility.yul\":11402:11768   */\n    tag_467:\n        /* \"#utility.yul\":11544:11547   */\n      0x00\n        /* \"#utility.yul\":11565:11632   */\n      tag_469\n        /* \"#utility.yul\":11629:11631   */\n      0x20\n        /* \"#utility.yul\":11624:11627   */\n      dup4\n        /* \"#utility.yul\":11565:11632   */\n      tag_447\n      jump\t// in\n    tag_469:\n        /* \"#utility.yul\":11558:11632   */\n      swap2\n      pop\n        /* \"#utility.yul\":11641:11734   */\n      tag_470\n        /* \"#utility.yul\":11730:11733   */\n      dup3\n        /* \"#utility.yul\":11641:11734   */\n      tag_471\n      jump\t// in\n    tag_470:\n        /* \"#utility.yul\":11759:11761   */\n      0x20\n        /* \"#utility.yul\":11754:11757   */\n      dup3\n        /* \"#utility.yul\":11750:11762   */\n      add\n        /* \"#utility.yul\":11743:11762   */\n      swap1\n      pop\n        /* \"#utility.yul\":11402:11768   */\n      swap2\n      swap1\n      pop\n      jump\t// out\n        /* \"#utility.yul\":11774:11892   */\n    tag_472:\n        /* \"#utility.yul\":11861:11885   */\n      tag_474\n        /* \"#utility.yul\":11879:11884   */\n      dup2\n        /* \"#utility.yul\":11861:11885   */\n      tag_475\n      jump\t// in\n    tag_474:\n        /* \"#utility.yul\":11856:11859   */\n      dup3\n        /* \"#utility.yul\":11849:11886   */\n      mstore\n        /* \"#utility.yul\":11774:11892   */\n      pop\n      pop\n      jump\t// out\n        /* \"#utility.yul\":11898:12120   */\n    tag_40:\n        /* \"#utility.yul\":11991:11995   */\n      0x00\n        /* \"#utility.yul\":12029:12031   */\n      0x20\n        /* \"#utility.yul\":12018:12027   */\n      dup3\n        /* \"#utility.yul\":12014:12032   */\n      add\n        /* \"#utility.yul\":12006:12032   */\n      swap1\n      pop\n        /* \"#utility.yul\":12042:12113   */\n      tag_477\n        /* \"#utility.yul\":12110:12111   */\n      0x00\n        /* \"#utility.yul\":12099:12108   */\n      dup4\n        /* \"#utility.yul\":12095:12112   */\n      add\n        /* \"#utility.yul\":12086:12092   */\n      dup5\n        /* \"#utility.yul\":12042:12113   */\n      tag_421\n      jump\t// in\n    tag_477:\n        /* \"#utility.yul\":11898:12120   */\n      swap3\n      swap2\n      pop\n      pop\n      jump\t// out\n        /* \"#utility.yul\":12126:12376   */\n    tag_32:\n        /* \"#utility.yul\":12233:12237   */\n      0x00\n        /* \"#utility.yul\":12271:12273   */\n      0x20\n        /* \"#utility.yul\":12260:12269   */\n      dup3\n        /* \"#utility.yul\":12256:12274   */\n      add\n        /* \"#utility.yul\":12248:12274   */\n      swap1\n      pop\n        /* \"#utility.yul\":12284:12369   */\n      tag_479\n        /* \"#utility.yul\":12366:12367   */\n      0x00\n        /* \"#utility.yul\":12355:12364   */\n      dup4\n        /* \"#utility.yul\":12351:12368   */\n      add\n        /* \"#utility.yul\":12342:12348   */\n      dup5\n        /* \"#utility.yul\":12284:12369   */\n      tag_438\n      jump\t// in\n    tag_479:\n        /* \"#utility.yul\":12126:12376   */\n      swap3\n      swap2\n      pop\n      pop\n      jump\t// out\n        /* \"#utility.yul\":12382:12695   */\n    tag_298:\n        /* \"#utility.yul\":12495:12499   */\n      0x00\n        /* \"#utility.yul\":12533:12535   */\n      0x20\n        /* \"#utility.yul\":12522:12531   */\n      dup3\n        /* \"#utility.yul\":12518:12536   */\n      add\n        /* \"#utility.yul\":12510:12536   */\n      swap1\n      pop\n        /* \"#utility.yul\":12582:12591   */\n      dup2\n        /* \"#utility.yul\":12576:12580   */\n      dup2\n        /* \"#utility.yul\":12572:12592   */\n      sub\n        /* \"#utility.yul\":12568:12569   */\n      0x00\n        /* \"#utility.yul\":12557:12566   */\n      dup4\n        /* \"#utility.yul\":12553:12570   */\n      add\n        /* \"#utility.yul\":12546:12593   */\n      mstore\n        /* \"#utility.yul\":12610:12688   */\n      tag_481\n        /* \"#utility.yul\":12683:12687   */\n      dup2\n        /* \"#utility.yul\":12674:12680   */\n      dup5\n        /* \"#utility.yul\":12610:12688   */\n      tag_442\n      jump\t// in\n    tag_481:\n        /* \"#utility.yul\":12602:12688   */\n      swap1\n      pop\n        /* \"#utility.yul\":12382:12695   */\n      swap3\n      swap2\n      pop\n      pop\n      jump\t// out\n        /* \"#utility.yul\":12701:13120   */\n    tag_274:\n        /* \"#utility.yul\":12867:12871   */\n      0x00\n        /* \"#utility.yul\":12905:12907   */\n      0x20\n        /* \"#utility.yul\":12894:12903   */\n      dup3\n        /* \"#utility.yul\":12890:12908   */\n      add\n        /* \"#utility.yul\":12882:12908   */\n      swap1\n      pop\n        /* \"#utility.yul\":12954:12963   */\n      dup2\n        /* \"#utility.yul\":12948:12952   */\n      dup2\n        /* \"#utility.yul\":12944:12964   */\n      sub\n        /* \"#utility.yul\":12940:12941   */\n      0x00\n        /* \"#utility.yul\":12929:12938   */\n      dup4\n        /* \"#utility.yul\":12925:12942   */\n      add\n        /* \"#utility.yul\":12918:12965   */\n      mstore\n        /* \"#utility.yul\":12982:13113   */\n      tag_483\n        /* \"#utility.yul\":13108:13112   */\n      dup2\n        /* \"#utility.yul\":12982:13113   */\n      tag_452\n      jump\t// in\n    tag_483:\n        /* \"#utility.yul\":12974:13113   */\n      swap1\n      pop\n        /* \"#utility.yul\":12701:13120   */\n      swap2\n      swap1\n      pop\n      jump\t// out\n        /* \"#utility.yul\":13126:13545   */\n    tag_289:\n        /* \"#utility.yul\":13292:13296   */\n      0x00\n        /* \"#utility.yul\":13330:13332   */\n      0x20\n        /* \"#utility.yul\":13319:13328   */\n      dup3\n        /* \"#utility.yul\":13315:13333   */\n      add\n        /* \"#utility.yul\":13307:13333   */\n      swap1\n      pop\n        /* \"#utility.yul\":13379:13388   */\n      dup2\n        /* \"#utility.yul\":13373:13377   */\n      dup2\n        /* \"#utility.yul\":13369:13389   */\n      sub\n        /* \"#utility.yul\":13365:13366   */\n      0x00\n        /* \"#utility.yul\":13354:13363   */\n      dup4\n        /* \"#utility.yul\":13350:13367   */\n      add\n        /* \"#utility.yul\":13343:13390   */\n      mstore\n        /* \"#utility.yul\":13407:13538   */\n      tag_485\n        /* \"#utility.yul\":13533:13537   */\n      dup2\n        /* \"#utility.yul\":13407:13538   */\n      tag_457\n      jump\t// in\n    tag_485:\n        /* \"#utility.yul\":13399:13538   */\n      swap1\n      pop\n        /* \"#utility.yul\":13126:13545   */\n      swap2\n      swap1\n      pop\n      jump\t// out\n        /* \"#utility.yul\":13551:13970   */\n    tag_283:\n        /* \"#utility.yul\":13717:13721   */\n      0x00\n        /* \"#utility.yul\":13755:13757   */\n      0x20\n        /* \"#utility.yul\":13744:13753   */\n      dup3\n        /* \"#utility.yul\":13740:13758   */\n      add\n        /* \"#utility.yul\":13732:13758   */\n      swap1\n      pop\n        /* \"#utility.yul\":13804:13813   */\n      dup2\n        /* \"#utility.yul\":13798:13802   */\n      dup2\n        /* \"#utility.yul\":13794:13814   */\n      sub\n        /* \"#utility.yul\":13790:13791   */\n      0x00\n        /* \"#utility.yul\":13779:13788   */\n      dup4\n        /* \"#utility.yul\":13775:13792   */\n      add\n        /* \"#utility.yul\":13768:13815   */\n      mstore\n        /* \"#utility.yul\":13832:13963   */\n      tag_487\n        /* \"#utility.yul\":13958:13962   */\n      dup2\n        /* \"#utility.yul\":13832:13963   */\n      tag_462\n      jump\t// in\n    tag_487:\n        /* \"#utility.yul\":13824:13963   */\n      swap1\n      pop\n        /* \"#utility.yul\":13551:13970   */\n      swap2\n      swap1\n      pop\n      jump\t// out\n        /* \"#utility.yul\":13976:14395   */\n    tag_209:\n        /* \"#utility.yul\":14142:14146   */\n      0x00\n        /* \"#utility.yul\":14180:14182   */\n      0x20\n        /* \"#utility.yul\":14169:14178   */\n      dup3\n        /* \"#utility.yul\":14165:14183   */\n      add\n        /* \"#utility.yul\":14157:14183   */\n      swap1\n      pop\n        /* \"#utility.yul\":14229:14238   */\n      dup2\n        /* \"#utility.yul\":14223:14227   */\n      dup2\n        /* \"#utility.yul\":14219:14239   */\n      sub\n        /* \"#utility.yul\":14215:14216   */\n      0x00\n        /* \"#utility.yul\":14204:14213   */\n      dup4\n        /* \"#utility.yul\":14200:14217   */\n      add\n        /* \"#utility.yul\":14193:14240   */\n      mstore\n        /* \"#utility.yul\":14257:14388   */\n      tag_489\n        /* \"#utility.yul\":14383:14387   */\n      dup2\n        /* \"#utility.yul\":14257:14388   */\n      tag_467\n      jump\t// in\n    tag_489:\n        /* \"#utility.yul\":14249:14388   */\n      swap1\n      pop\n        /* \"#utility.yul\":13976:14395   */\n      swap2\n      swap1\n      pop\n      jump\t// out\n        /* \"#utility.yul\":14401:14623   */\n    tag_23:\n        /* \"#utility.yul\":14494:14498   */\n      0x00\n        /* \"#utility.yul\":14532:14534   */\n      0x20\n        /* \"#utility.yul\":14521:14530   */\n      dup3\n        /* \"#utility.yul\":14517:14535   */\n      add\n        /* \"#utility.yul\":14509:14535   */\n      swap1\n      pop\n        /* \"#utility.yul\":14545:14616   */\n      tag_491\n        /* \"#utility.yul\":14613:14614   */\n      0x00\n        /* \"#utility.yul\":14602:14611   */\n      dup4\n        /* \"#utility.yul\":14598:14615   */\n      add\n        /* \"#utility.yul\":14589:14595   */\n      dup5\n        /* \"#utility.yul\":14545:14616   */\n      tag_472\n      jump\t// in\n    tag_491:\n        /* \"#utility.yul\":14401:14623   */\n      swap3\n      swap2\n      pop\n      pop\n      jump\t// out\n        /* \"#utility.yul\":14629:15112   */\n    tag_83:\n        /* \"#utility.yul\":14800:14804   */\n      0x00\n        /* \"#utility.yul\":14838:14840   */\n      0x40\n        /* \"#utility.yul\":14827:14836   */\n      dup3\n        /* \"#utility.yul\":14823:14841   */\n      add\n        /* \"#utility.yul\":14815:14841   */\n      swap1\n      pop\n        /* \"#utility.yul\":14851:14922   */\n      tag_493\n        /* \"#utility.yul\":14919:14920   */\n      0x00\n        /* \"#utility.yul\":14908:14917   */\n      dup4\n        /* \"#utility.yul\":14904:14921   */\n      add\n        /* \"#utility.yul\":14895:14901   */\n      dup6\n        /* \"#utility.yul\":14851:14922   */\n      tag_472\n      jump\t// in\n    tag_493:\n        /* \"#utility.yul\":14969:14978   */\n      dup2\n        /* \"#utility.yul\":14963:14967   */\n      dup2\n        /* \"#utility.yul\":14959:14979   */\n      sub\n        /* \"#utility.yul\":14954:14956   */\n      0x20\n        /* \"#utility.yul\":14943:14952   */\n      dup4\n        /* \"#utility.yul\":14939:14957   */\n      add\n        /* \"#utility.yul\":14932:14980   */\n      mstore\n        /* \"#utility.yul\":14997:15105   */\n      tag_494\n        /* \"#utility.yul\":15100:15104   */\n      dup2\n        /* \"#utility.yul\":15091:15097   */\n      dup5\n        /* \"#utility.yul\":14997:15105   */\n      tag_424\n      jump\t// in\n    tag_494:\n        /* \"#utility.yul\":14989:15105   */\n      swap1\n      pop\n        /* \"#utility.yul\":14629:15112   */\n      swap4\n      swap3\n      pop\n      pop\n      pop\n      jump\t// out\n        /* \"#utility.yul\":15118:15247   */\n    tag_306:\n        /* \"#utility.yul\":15152:15158   */\n      0x00\n        /* \"#utility.yul\":15179:15199   */\n      tag_496\n      tag_497\n      jump\t// in\n    tag_496:\n        /* \"#utility.yul\":15169:15199   */\n      swap1\n      pop\n        /* \"#utility.yul\":15208:15241   */\n      tag_498\n        /* \"#utility.yul\":15236:15240   */\n      dup3\n        /* \"#utility.yul\":15228:15234   */\n      dup3\n        /* \"#utility.yul\":15208:15241   */\n      tag_499\n      jump\t// in\n    tag_498:\n        /* \"#utility.yul\":15118:15247   */\n      swap2\n      swap1\n      pop\n      jump\t// out\n        /* \"#utility.yul\":15253:15328   */\n    tag_497:\n        /* \"#utility.yul\":15286:15292   */\n      0x00\n        /* \"#utility.yul\":15319:15321   */\n      0x40\n        /* \"#utility.yul\":15313:15322   */\n      mload\n        /* \"#utility.yul\":15303:15322   */\n      swap1\n      pop\n        /* \"#utility.yul\":15253:15328   */\n      swap1\n      jump\t// out\n        /* \"#utility.yul\":15334:15645   */\n    tag_305:\n        /* \"#utility.yul\":15411:15415   */\n      0x00\n        /* \"#utility.yul\":15501:15519   */\n      0xffffffffffffffff\n        /* \"#utility.yul\":15493:15499   */\n      dup3\n        /* \"#utility.yul\":15490:15520   */\n      gt\n        /* \"#utility.yul\":15487:15543   */\n      iszero\n      tag_502\n      jumpi\n        /* \"#utility.yul\":15523:15541   */\n      tag_503\n      tag_73\n      jump\t// in\n    tag_503:\n        /* \"#utility.yul\":15487:15543   */\n    tag_502:\n        /* \"#utility.yul\":15573:15577   */\n      0x20\n        /* \"#utility.yul\":15565:15571   */\n      dup3\n        /* \"#utility.yul\":15561:15578   */\n      mul\n        /* \"#utility.yul\":15553:15578   */\n      swap1\n      pop\n        /* \"#utility.yul\":15633:15637   */\n      0x20\n        /* \"#utility.yul\":15627:15631   */\n      dup2\n        /* \"#utility.yul\":15623:15638   */\n      add\n        /* \"#utility.yul\":15615:15638   */\n      swap1\n      pop\n        /* \"#utility.yul\":15334:15645   */\n      swap2\n      swap1\n      pop\n      jump\t// out\n        /* \"#utility.yul\":15651:15783   */\n    tag_431:\n        /* \"#utility.yul\":15718:15722   */\n      0x00\n        /* \"#utility.yul\":15741:15744   */\n      dup2\n        /* \"#utility.yul\":15733:15744   */\n      swap1\n      pop\n        /* \"#utility.yul\":15771:15775   */\n      0x20\n        /* \"#utility.yul\":15766:15769   */\n      dup3\n        /* \"#utility.yul\":15762:15776   */\n      add\n        /* \"#utility.yul\":15754:15776   */\n      swap1\n      pop\n        /* \"#utility.yul\":15651:15783   */\n      swap2\n      swap1\n      pop\n      jump\t// out\n        /* \"#utility.yul\":15789:15903   */\n    tag_427:\n        /* \"#utility.yul\":15856:15862   */\n      0x00\n        /* \"#utility.yul\":15890:15895   */\n      dup2\n        /* \"#utility.yul\":15884:15896   */\n      mload\n        /* \"#utility.yul\":15874:15896   */\n      swap1\n      pop\n        /* \"#utility.yul\":15789:15903   */\n      swap2\n      swap1\n      pop\n      jump\t// out\n        /* \"#utility.yul\":15909:16008   */\n    tag_445:\n        /* \"#utility.yul\":15961:15967   */\n      0x00\n        /* \"#utility.yul\":15995:16000   */\n      dup2\n        /* \"#utility.yul\":15989:16001   */\n      mload\n        /* \"#utility.yul\":15979:16001   */\n      swap1\n      pop\n        /* \"#utility.yul\":15909:16008   */\n      swap2\n      swap1\n      pop\n      jump\t// out\n        /* \"#utility.yul\":16014:16127   */\n    tag_437:\n        /* \"#utility.yul\":16084:16088   */\n      0x00\n        /* \"#utility.yul\":16116:16120   */\n      0x20\n        /* \"#utility.yul\":16111:16114   */\n      dup3\n        /* \"#utility.yul\":16107:16121   */\n      add\n        /* \"#utility.yul\":16099:16121   */\n      swap1\n      pop\n        /* \"#utility.yul\":16014:16127   */\n      swap2\n      swap1\n      pop\n      jump\t// out\n        /* \"#utility.yul\":16133:16317   */\n    tag_429:\n        /* \"#utility.yul\":16232:16243   */\n      0x00\n        /* \"#utility.yul\":16266:16272   */\n      dup3\n        /* \"#utility.yul\":16261:16264   */\n      dup3\n        /* \"#utility.yul\":16254:16273   */\n      mstore\n        /* \"#utility.yul\":16306:16310   */\n      0x20\n        /* \"#utility.yul\":16301:16304   */\n      dup3\n        /* \"#utility.yul\":16297:16311   */\n      add\n        /* \"#utility.yul\":16282:16311   */\n      swap1\n      pop\n        /* \"#utility.yul\":16133:16317   */\n      swap3\n      swap2\n      pop\n      pop\n      jump\t// out\n        /* \"#utility.yul\":16323:16492   */\n    tag_447:\n        /* \"#utility.yul\":16407:16418   */\n      0x00\n        /* \"#utility.yul\":16441:16447   */\n      dup3\n        /* \"#utility.yul\":16436:16439   */\n      dup3\n        /* \"#utility.yul\":16429:16448   */\n      mstore\n        /* \"#utility.yul\":16481:16485   */\n      0x20\n        /* \"#utility.yul\":16476:16479   */\n      dup3\n        /* \"#utility.yul\":16472:16486   */\n      add\n        /* \"#utility.yul\":16457:16486   */\n      swap1\n      pop\n        /* \"#utility.yul\":16323:16492   */\n      swap3\n      swap2\n      pop\n      pop\n      jump\t// out\n        /* \"#utility.yul\":16498:16803   */\n    tag_286:\n        /* \"#utility.yul\":16538:16541   */\n      0x00\n        /* \"#utility.yul\":16557:16577   */\n      tag_511\n        /* \"#utility.yul\":16575:16576   */\n      dup3\n        /* \"#utility.yul\":16557:16577   */\n      tag_475\n      jump\t// in\n    tag_511:\n        /* \"#utility.yul\":16552:16577   */\n      swap2\n      pop\n        /* \"#utility.yul\":16591:16611   */\n      tag_512\n        /* \"#utility.yul\":16609:16610   */\n      dup4\n        /* \"#utility.yul\":16591:16611   */\n      tag_475\n      jump\t// in\n    tag_512:\n        /* \"#utility.yul\":16586:16611   */\n      swap3\n      pop\n        /* \"#utility.yul\":16745:16746   */\n      dup3\n        /* \"#utility.yul\":16677:16743   */\n      0xffffffffffffffffffffffffffffffffffffffffffffffffffffffffffffffff\n        /* \"#utility.yul\":16673:16747   */\n      sub\n        /* \"#utility.yul\":16670:16671   */\n      dup3\n        /* \"#utility.yul\":16667:16748   */\n      gt\n        /* \"#utility.yul\":16664:16771   */\n      iszero\n      tag_513\n      jumpi\n        /* \"#utility.yul\":16751:16769   */\n      tag_514\n      tag_515\n      jump\t// in\n    tag_514:\n        /* \"#utility.yul\":16664:16771   */\n    tag_513:\n        /* \"#utility.yul\":16795:16796   */\n      dup3\n        /* \"#utility.yul\":16792:16793   */\n      dup3\n        /* \"#utility.yul\":16788:16797   */\n      add\n        /* \"#utility.yul\":16781:16797   */\n      swap1\n      pop\n        /* \"#utility.yul\":16498:16803   */\n      swap3\n      swap2\n      pop\n      pop\n      jump\t// out\n        /* \"#utility.yul\":16809:16994   */\n    tag_280:\n        /* \"#utility.yul\":16849:16850   */\n      0x00\n        /* \"#utility.yul\":16866:16886   */\n      tag_517\n        /* \"#utility.yul\":16884:16885   */\n      dup3\n        /* \"#utility.yul\":16866:16886   */\n      tag_475\n      jump\t// in\n    tag_517:\n        /* \"#utility.yul\":16861:16886   */\n      swap2\n      pop\n        /* \"#utility.yul\":16900:16920   */\n      tag_518\n        /* \"#utility.yul\":16918:16919   */\n      dup4\n        /* \"#utility.yul\":16900:16920   */\n      tag_475\n      jump\t// in\n    tag_518:\n        /* \"#utility.yul\":16895:16920   */\n      swap3\n      pop\n        /* \"#utility.yul\":16939:16940   */\n      dup3\n        /* \"#utility.yul\":16929:16964   */\n      tag_519\n      jumpi\n        /* \"#utility.yul\":16944:16962   */\n      tag_520\n      tag_521\n      jump\t// in\n    tag_520:\n        /* \"#utility.yul\":16929:16964   */\n    tag_519:\n        /* \"#utility.yul\":16986:16987   */\n      dup3\n        /* \"#utility.yul\":16983:16984   */\n      dup3\n        /* \"#utility.yul\":16979:16988   */\n      div\n        /* \"#utility.yul\":16974:16988   */\n      swap1\n      pop\n        /* \"#utility.yul\":16809:16994   */\n      swap3\n      swap2\n      pop\n      pop\n      jump\t// out\n        /* \"#utility.yul\":17000:17348   */\n    tag_236:\n        /* \"#utility.yul\":17040:17047   */\n      0x00\n        /* \"#utility.yul\":17063:17083   */\n      tag_523\n        /* \"#utility.yul\":17081:17082   */\n      dup3\n        /* \"#utility.yul\":17063:17083   */\n      tag_475\n      jump\t// in\n    tag_523:\n        /* \"#utility.yul\":17058:17083   */\n      swap2\n      pop\n        /* \"#utility.yul\":17097:17117   */\n      tag_524\n        /* \"#utility.yul\":17115:17116   */\n      dup4\n        /* \"#utility.yul\":17097:17117   */\n      tag_475\n      jump\t// in\n    tag_524:\n        /* \"#utility.yul\":17092:17117   */\n      swap3\n      pop\n        /* \"#utility.yul\":17285:17286   */\n      dup2\n        /* \"#utility.yul\":17217:17283   */\n      0xffffffffffffffffffffffffffffffffffffffffffffffffffffffffffffffff\n        /* \"#utility.yul\":17213:17287   */\n      div\n        /* \"#utility.yul\":17210:17211   */\n      dup4\n        /* \"#utility.yul\":17207:17288   */\n      gt\n        /* \"#utility.yul\":17202:17203   */\n      dup3\n        /* \"#utility.yul\":17195:17204   */\n      iszero\n        /* \"#utility.yul\":17188:17205   */\n      iszero\n        /* \"#utility.yul\":17184:17289   */\n      and\n        /* \"#utility.yul\":17181:17312   */\n      iszero\n      tag_525\n      jumpi\n        /* \"#utility.yul\":17292:17310   */\n      tag_526\n      tag_515\n      jump\t// in\n    tag_526:\n        /* \"#utility.yul\":17181:17312   */\n    tag_525:\n        /* \"#utility.yul\":17340:17341   */\n      dup3\n        /* \"#utility.yul\":17337:17338   */\n      dup3\n        /* \"#utility.yul\":17333:17342   */\n      mul\n        /* \"#utility.yul\":17322:17342   */\n      swap1\n      pop\n        /* \"#utility.yul\":17000:17348   */\n      swap3\n      swap2\n      pop\n      pop\n      jump\t// out\n        /* \"#utility.yul\":17354:17450   */\n    tag_420:\n        /* \"#utility.yul\":17391:17398   */\n      0x00\n        /* \"#utility.yul\":17420:17444   */\n      tag_528\n        /* \"#utility.yul\":17438:17443   */\n      dup3\n        /* \"#utility.yul\":17420:17444   */\n      tag_529\n      jump\t// in\n    tag_528:\n        /* \"#utility.yul\":17409:17444   */\n      swap1\n      pop\n        /* \"#utility.yul\":17354:17450   */\n      swap2\n      swap1\n      pop\n      jump\t// out\n        /* \"#utility.yul\":17456:17566   */\n    tag_530:\n        /* \"#utility.yul\":17507:17514   */\n      0x00\n        /* \"#utility.yul\":17536:17560   */\n      tag_532\n        /* \"#utility.yul\":17554:17559   */\n      dup3\n        /* \"#utility.yul\":17536:17560   */\n      tag_420\n      jump\t// in\n    tag_532:\n        /* \"#utility.yul\":17525:17560   */\n      swap1\n      pop\n        /* \"#utility.yul\":17456:17566   */\n      swap2\n      swap1\n      pop\n      jump\t// out\n        /* \"#utility.yul\":17572:17687   */\n    tag_533:\n        /* \"#utility.yul\":17628:17635   */\n      0x00\n        /* \"#utility.yul\":17657:17681   */\n      tag_535\n        /* \"#utility.yul\":17675:17680   */\n      dup3\n        /* \"#utility.yul\":17657:17681   */\n      tag_420\n      jump\t// in\n    tag_535:\n        /* \"#utility.yul\":17646:17681   */\n      swap1\n      pop\n        /* \"#utility.yul\":17572:17687   */\n      swap2\n      swap1\n      pop\n      jump\t// out\n        /* \"#utility.yul\":17693:17799   */\n    tag_536:\n        /* \"#utility.yul\":17740:17747   */\n      0x00\n        /* \"#utility.yul\":17769:17793   */\n      tag_538\n        /* \"#utility.yul\":17787:17792   */\n      dup3\n        /* \"#utility.yul\":17769:17793   */\n      tag_420\n      jump\t// in\n    tag_538:\n        /* \"#utility.yul\":17758:17793   */\n      swap1\n      pop\n        /* \"#utility.yul\":17693:17799   */\n      swap2\n      swap1\n      pop\n      jump\t// out\n        /* \"#utility.yul\":17805:17923   */\n    tag_539:\n        /* \"#utility.yul\":17864:17871   */\n      0x00\n        /* \"#utility.yul\":17893:17917   */\n      tag_541\n        /* \"#utility.yul\":17911:17916   */\n      dup3\n        /* \"#utility.yul\":17893:17917   */\n      tag_420\n      jump\t// in\n    tag_541:\n        /* \"#utility.yul\":17882:17917   */\n      swap1\n      pop\n        /* \"#utility.yul\":17805:17923   */\n      swap2\n      swap1\n      pop\n      jump\t// out\n        /* \"#utility.yul\":17929:18039   */\n    tag_542:\n        /* \"#utility.yul\":17980:17987   */\n      0x00\n        /* \"#utility.yul\":18009:18033   */\n      tag_544\n        /* \"#utility.yul\":18027:18032   */\n      dup3\n        /* \"#utility.yul\":18009:18033   */\n      tag_420\n      jump\t// in\n    tag_544:\n        /* \"#utility.yul\":17998:18033   */\n      swap1\n      pop\n        /* \"#utility.yul\":17929:18039   */\n      swap2\n      swap1\n      pop\n      jump\t// out\n        /* \"#utility.yul\":18045:18171   */\n    tag_529:\n        /* \"#utility.yul\":18082:18089   */\n      0x00\n        /* \"#utility.yul\":18122:18164   */\n      0xffffffffffffffffffffffffffffffffffffffff\n        /* \"#utility.yul\":18115:18120   */\n      dup3\n        /* \"#utility.yul\":18111:18165   */\n      and\n        /* \"#utility.yul\":18100:18165   */\n      swap1\n      pop\n        /* \"#utility.yul\":18045:18171   */\n      swap2\n      swap1\n      pop\n      jump\t// out\n        /* \"#utility.yul\":18177:18254   */\n    tag_475:\n        /* \"#utility.yul\":18214:18221   */\n      0x00\n        /* \"#utility.yul\":18243:18248   */\n      dup2\n        /* \"#utility.yul\":18232:18248   */\n      swap1\n      pop\n        /* \"#utility.yul\":18177:18254   */\n      swap2\n      swap1\n      pop\n      jump\t// out\n        /* \"#utility.yul\":18260:18400   */\n    tag_441:\n        /* \"#utility.yul\":18324:18333   */\n      0x00\n        /* \"#utility.yul\":18357:18394   */\n      tag_548\n        /* \"#utility.yul\":18388:18393   */\n      dup3\n        /* \"#utility.yul\":18357:18394   */\n      tag_549\n      jump\t// in\n    tag_548:\n        /* \"#utility.yul\":18344:18394   */\n      swap1\n      pop\n        /* \"#utility.yul\":18260:18400   */\n      swap2\n      swap1\n      pop\n      jump\t// out\n        /* \"#utility.yul\":18406:18532   */\n    tag_549:\n        /* \"#utility.yul\":18456:18465   */\n      0x00\n        /* \"#utility.yul\":18489:18526   */\n      tag_551\n        /* \"#utility.yul\":18520:18525   */\n      dup3\n        /* \"#utility.yul\":18489:18526   */\n      tag_552\n      jump\t// in\n    tag_551:\n        /* \"#utility.yul\":18476:18526   */\n      swap1\n      pop\n        /* \"#utility.yul\":18406:18532   */\n      swap2\n      swap1\n      pop\n      jump\t// out\n        /* \"#utility.yul\":18538:18651   */\n    tag_552:\n        /* \"#utility.yul\":18588:18597   */\n      0x00\n        /* \"#utility.yul\":18621:18645   */\n      tag_554\n        /* \"#utility.yul\":18639:18644   */\n      dup3\n        /* \"#utility.yul\":18621:18645   */\n      tag_529\n      jump\t// in\n    tag_554:\n        /* \"#utility.yul\":18608:18645   */\n      swap1\n      pop\n        /* \"#utility.yul\":18538:18651   */\n      swap2\n      swap1\n      pop\n      jump\t// out\n        /* \"#utility.yul\":18657:18964   */\n    tag_449:\n        /* \"#utility.yul\":18725:18726   */\n      0x00\n        /* \"#utility.yul\":18735:18848   */\n    tag_556:\n        /* \"#utility.yul\":18749:18755   */\n      dup4\n        /* \"#utility.yul\":18746:18747   */\n      dup2\n        /* \"#utility.yul\":18743:18756   */\n      lt\n        /* \"#utility.yul\":18735:18848   */\n      iszero\n      tag_558\n      jumpi\n        /* \"#utility.yul\":18834:18835   */\n      dup1\n        /* \"#utility.yul\":18829:18832   */\n      dup3\n        /* \"#utility.yul\":18825:18836   */\n      add\n        /* \"#utility.yul\":18819:18837   */\n      mload\n        /* \"#utility.yul\":18815:18816   */\n      dup2\n        /* \"#utility.yul\":18810:18813   */\n      dup5\n        /* \"#utility.yul\":18806:18817   */\n      add\n        /* \"#utility.yul\":18799:18838   */\n      mstore\n        /* \"#utility.yul\":18771:18773   */\n      0x20\n        /* \"#utility.yul\":18768:18769   */\n      dup2\n        /* \"#utility.yul\":18764:18774   */\n      add\n        /* \"#utility.yul\":18759:18774   */\n      swap1\n      pop\n        /* \"#utility.yul\":18735:18848   */\n      jump(tag_556)\n    tag_558:\n        /* \"#utility.yul\":18866:18872   */\n      dup4\n        /* \"#utility.yul\":18863:18864   */\n      dup2\n        /* \"#utility.yul\":18860:18873   */\n      gt\n        /* \"#utility.yul\":18857:18958   */\n      iszero\n      tag_559\n      jumpi\n        /* \"#utility.yul\":18946:18947   */\n      0x00\n        /* \"#utility.yul\":18937:18943   */\n      dup5\n        /* \"#utility.yul\":18932:18935   */\n      dup5\n        /* \"#utility.yul\":18928:18944   */\n      add\n        /* \"#utility.yul\":18921:18948   */\n      mstore\n        /* \"#utility.yul\":18857:18958   */\n    tag_559:\n        /* \"#utility.yul\":18706:18964   */\n      pop\n        /* \"#utility.yul\":18657:18964   */\n      pop\n      pop\n      pop\n      jump\t// out\n        /* \"#utility.yul\":18970:19251   */\n    tag_499:\n        /* \"#utility.yul\":19053:19080   */\n      tag_561\n        /* \"#utility.yul\":19075:19079   */\n      dup3\n        /* \"#utility.yul\":19053:19080   */\n      tag_451\n      jump\t// in\n    tag_561:\n        /* \"#utility.yul\":19045:19051   */\n      dup2\n        /* \"#utility.yul\":19041:19081   */\n      add\n        /* \"#utility.yul\":19183:19189   */\n      dup2\n        /* \"#utility.yul\":19171:19181   */\n      dup2\n        /* \"#utility.yul\":19168:19190   */\n      lt\n        /* \"#utility.yul\":19147:19165   */\n      0xffffffffffffffff\n        /* \"#utility.yul\":19135:19145   */\n      dup3\n        /* \"#utility.yul\":19132:19166   */\n      gt\n        /* \"#utility.yul\":19129:19191   */\n      or\n        /* \"#utility.yul\":19126:19214   */\n      iszero\n      tag_562\n      jumpi\n        /* \"#utility.yul\":19194:19212   */\n      tag_563\n      tag_73\n      jump\t// in\n    tag_563:\n        /* \"#utility.yul\":19126:19214   */\n    tag_562:\n        /* \"#utility.yul\":19234:19244   */\n      dup1\n        /* \"#utility.yul\":19230:19232   */\n      0x40\n        /* \"#utility.yul\":19223:19245   */\n      mstore\n        /* \"#utility.yul\":19013:19251   */\n      pop\n        /* \"#utility.yul\":18970:19251   */\n      pop\n      pop\n      jump\t// out\n        /* \"#utility.yul\":19257:19437   */\n    tag_515:\n        /* \"#utility.yul\":19305:19382   */\n      0x4e487b7100000000000000000000000000000000000000000000000000000000\n        /* \"#utility.yul\":19302:19303   */\n      0x00\n        /* \"#utility.yul\":19295:19383   */\n      mstore\n        /* \"#utility.yul\":19402:19406   */\n      0x11\n        /* \"#utility.yul\":19399:19400   */\n      0x04\n        /* \"#utility.yul\":19392:19407   */\n      mstore\n        /* \"#utility.yul\":19426:19430   */\n      0x24\n        /* \"#utility.yul\":19423:19424   */\n      0x00\n        /* \"#utility.yul\":19416:19431   */\n      revert\n        /* \"#utility.yul\":19443:19623   */\n    tag_521:\n        /* \"#utility.yul\":19491:19568   */\n      0x4e487b7100000000000000000000000000000000000000000000000000000000\n        /* \"#utility.yul\":19488:19489   */\n      0x00\n        /* \"#utility.yul\":19481:19569   */\n      mstore\n        /* \"#utility.yul\":19588:19592   */\n      0x12\n        /* \"#utility.yul\":19585:19586   */\n      0x04\n        /* \"#utility.yul\":19578:19593   */\n      mstore\n        /* \"#utility.yul\":19612:19616   */\n      0x24\n        /* \"#utility.yul\":19609:19610   */\n      0x00\n        /* \"#utility.yul\":19602:19617   */\n      revert\n        /* \"#utility.yul\":19629:19809   */\n    tag_77:\n        /* \"#utility.yul\":19677:19754   */\n      0x4e487b7100000000000000000000000000000000000000000000000000000000\n        /* \"#utility.yul\":19674:19675   */\n      0x00\n        /* \"#utility.yul\":19667:19755   */\n      mstore\n        /* \"#utility.yul\":19774:19778   */\n      0x32\n        /* \"#utility.yul\":19771:19772   */\n      0x04\n        /* \"#utility.yul\":19764:19779   */\n      mstore\n        /* \"#utility.yul\":19798:19802   */\n      0x24\n        /* \"#utility.yul\":19795:19796   */\n      0x00\n        /* \"#utility.yul\":19788:19803   */\n      revert\n        /* \"#utility.yul\":19815:19995   */\n    tag_73:\n        /* \"#utility.yul\":19863:19940   */\n      0x4e487b7100000000000000000000000000000000000000000000000000000000\n        /* \"#utility.yul\":19860:19861   */\n      0x00\n        /* \"#utility.yul\":19853:19941   */\n      mstore\n        /* \"#utility.yul\":19960:19964   */\n      0x41\n        /* \"#utility.yul\":19957:19958   */\n      0x04\n        /* \"#utility.yul\":19950:19965   */\n      mstore\n        /* \"#utility.yul\":19984:19988   */\n      0x24\n        /* \"#utility.yul\":19981:19982   */\n      0x00\n        /* \"#utility.yul\":19974:19989   */\n      revert\n        /* \"#utility.yul\":20001:20118   */\n    tag_326:\n        /* \"#utility.yul\":20110:20111   */\n      0x00\n        /* \"#utility.yul\":20107:20108   */\n      dup1\n        /* \"#utility.yul\":20100:20112   */\n      revert\n        /* \"#utility.yul\":20124:20241   */\n    tag_352:\n        /* \"#utility.yul\":20233:20234   */\n      0x00\n        /* \"#utility.yul\":20230:20231   */\n      dup1\n        /* \"#utility.yul\":20223:20235   */\n      revert\n        /* \"#utility.yul\":20370:20487   */\n    tag_309:\n        /* \"#utility.yul\":20479:20480   */\n      0x00\n        /* \"#utility.yul\":20476:20477   */\n      dup1\n        /* \"#utility.yul\":20469:20481   */\n      revert\n        /* \"#utility.yul\":20493:20610   */\n    tag_380:\n        /* \"#utility.yul\":20602:20603   */\n      0x00\n        /* \"#utility.yul\":20599:20600   */\n      dup1\n        /* \"#utility.yul\":20592:20604   */\n      revert\n        /* \"#utility.yul\":20616:20733   */\n    tag_369:\n        /* \"#utility.yul\":20725:20726   */\n      0x00\n        /* \"#utility.yul\":20722:20723   */\n      dup1\n        /* \"#utility.yul\":20715:20727   */\n      revert\n        /* \"#utility.yul\":20739:20841   */\n    tag_451:\n        /* \"#utility.yul\":20780:20786   */\n      0x00\n        /* \"#utility.yul\":20831:20833   */\n      0x1f\n        /* \"#utility.yul\":20827:20834   */\n      not\n        /* \"#utility.yul\":20822:20824   */\n      0x1f\n        /* \"#utility.yul\":20815:20820   */\n      dup4\n        /* \"#utility.yul\":20811:20825   */\n      add\n        /* \"#utility.yul\":20807:20835   */\n      and\n        /* \"#utility.yul\":20797:20835   */\n      swap1\n      pop\n        /* \"#utility.yul\":20739:20841   */\n      swap2\n      swap1\n      pop\n      jump\t// out\n        /* \"#utility.yul\":20847:21072   */\n    tag_456:\n        /* \"#utility.yul\":20987:21021   */\n      0x4f776e61626c653a206e6577206f776e657220697320746865207a65726f2061\n        /* \"#utility.yul\":20983:20984   */\n      0x00\n        /* \"#utility.yul\":20975:20981   */\n      dup3\n        /* \"#utility.yul\":20971:20985   */\n      add\n        /* \"#utility.yul\":20964:21022   */\n      mstore\n        /* \"#utility.yul\":21056:21064   */\n      0x6464726573730000000000000000000000000000000000000000000000000000\n        /* \"#utility.yul\":21051:21053   */\n      0x20\n        /* \"#utility.yul\":21043:21049   */\n      dup3\n        /* \"#utility.yul\":21039:21054   */\n      add\n        /* \"#utility.yul\":21032:21065   */\n      mstore\n        /* \"#utility.yul\":20847:21072   */\n      pop\n      jump\t// out\n        /* \"#utility.yul\":21078:21255   */\n    tag_461:\n        /* \"#utility.yul\":21218:21247   */\n      0x536166654d6174683a206164646974696f6e206f766572666c6f770000000000\n        /* \"#utility.yul\":21214:21215   */\n      0x00\n        /* \"#utility.yul\":21206:21212   */\n      dup3\n        /* \"#utility.yul\":21202:21216   */\n      add\n        /* \"#utility.yul\":21195:21248   */\n      mstore\n        /* \"#utility.yul\":21078:21255   */\n      pop\n      jump\t// out\n        /* \"#utility.yul\":21261:21481   */\n    tag_466:\n        /* \"#utility.yul\":21401:21435   */\n      0x536166654d6174683a206d756c7469706c69636174696f6e206f766572666c6f\n        /* \"#utility.yul\":21397:21398   */\n      0x00\n        /* \"#utility.yul\":21389:21395   */\n      dup3\n        /* \"#utility.yul\":21385:21399   */\n      add\n        /* \"#utility.yul\":21378:21436   */\n      mstore\n        /* \"#utility.yul\":21470:21473   */\n      0x7700000000000000000000000000000000000000000000000000000000000000\n        /* \"#utility.yul\":21465:21467   */\n      0x20\n        /* \"#utility.yul\":21457:21463   */\n      dup3\n        /* \"#utility.yul\":21453:21468   */\n      add\n        /* \"#utility.yul\":21446:21474   */\n      mstore\n        /* \"#utility.yul\":21261:21481   */\n      pop\n      jump\t// out\n        /* \"#utility.yul\":21487:21669   */\n    tag_471:\n        /* \"#utility.yul\":21627:21661   */\n      0x4f776e61626c653a2063616c6c6572206973206e6f7420746865206f776e6572\n        /* \"#utility.yul\":21623:21624   */\n      0x00\n        /* \"#utility.yul\":21615:21621   */\n      dup3\n        /* \"#utility.yul\":21611:21625   */\n      add\n        /* \"#utility.yul\":21604:21662   */\n      mstore\n        /* \"#utility.yul\":21487:21669   */\n      pop\n      jump\t// out\n        /* \"#utility.yul\":21675:21797   */\n    tag_318:\n        /* \"#utility.yul\":21748:21772   */\n      tag_581\n        /* \"#utility.yul\":21766:21771   */\n      dup2\n        /* \"#utility.yul\":21748:21772   */\n      tag_420\n      jump\t// in\n    tag_581:\n        /* \"#utility.yul\":21741:21746   */\n      dup2\n        /* \"#utility.yul\":21738:21773   */\n      eq\n        /* \"#utility.yul\":21728:21791   */\n      tag_582\n      jumpi\n        /* \"#utility.yul\":21787:21788   */\n      0x00\n        /* \"#utility.yul\":21784:21785   */\n      dup1\n        /* \"#utility.yul\":21777:21789   */\n      revert\n        /* \"#utility.yul\":21728:21791   */\n    tag_582:\n        /* \"#utility.yul\":21675:21797   */\n      pop\n      jump\t// out\n        /* \"#utility.yul\":21803:21953   */\n    tag_331:\n        /* \"#utility.yul\":21890:21928   */\n      tag_584\n        /* \"#utility.yul\":21922:21927   */\n      dup2\n        /* \"#utility.yul\":21890:21928   */\n      tag_530\n      jump\t// in\n    tag_584:\n        /* \"#utility.yul\":21883:21888   */\n      dup2\n        /* \"#utility.yul\":21880:21929   */\n      eq\n        /* \"#utility.yul\":21870:21947   */\n      tag_585\n      jumpi\n        /* \"#utility.yul\":21943:21944   */\n      0x00\n        /* \"#utility.yul\":21940:21941   */\n      dup1\n        /* \"#utility.yul\":21933:21945   */\n      revert\n        /* \"#utility.yul\":21870:21947   */\n    tag_585:\n        /* \"#utility.yul\":21803:21953   */\n      pop\n      jump\t// out\n        /* \"#utility.yul\":21959:22119   */\n    tag_335:\n        /* \"#utility.yul\":22051:22094   */\n      tag_587\n        /* \"#utility.yul\":22088:22093   */\n      dup2\n        /* \"#utility.yul\":22051:22094   */\n      tag_533\n      jump\t// in\n    tag_587:\n        /* \"#utility.yul\":22044:22049   */\n      dup2\n        /* \"#utility.yul\":22041:22095   */\n      eq\n        /* \"#utility.yul\":22031:22113   */\n      tag_588\n      jumpi\n        /* \"#utility.yul\":22109:22110   */\n      0x00\n        /* \"#utility.yul\":22106:22107   */\n      dup1\n        /* \"#utility.yul\":22099:22111   */\n      revert\n        /* \"#utility.yul\":22031:22113   */\n    tag_588:\n        /* \"#utility.yul\":21959:22119   */\n      pop\n      jump\t// out\n        /* \"#utility.yul\":22125:22267   */\n    tag_339:\n        /* \"#utility.yul\":22208:22242   */\n      tag_590\n        /* \"#utility.yul\":22236:22241   */\n      dup2\n        /* \"#utility.yul\":22208:22242   */\n      tag_536\n      jump\t// in\n    tag_590:\n        /* \"#utility.yul\":22201:22206   */\n      dup2\n        /* \"#utility.yul\":22198:22243   */\n      eq\n        /* \"#utility.yul\":22188:22261   */\n      tag_591\n      jumpi\n        /* \"#utility.yul\":22257:22258   */\n      0x00\n        /* \"#utility.yul\":22254:22255   */\n      dup1\n        /* \"#utility.yul\":22247:22259   */\n      revert\n        /* \"#utility.yul\":22188:22261   */\n    tag_591:\n        /* \"#utility.yul\":22125:22267   */\n      pop\n      jump\t// out\n        /* \"#utility.yul\":22273:22439   */\n    tag_343:\n        /* \"#utility.yul\":22368:22414   */\n      tag_593\n        /* \"#utility.yul\":22408:22413   */\n      dup2\n        /* \"#utility.yul\":22368:22414   */\n      tag_539\n      jump\t// in\n    tag_593:\n        /* \"#utility.yul\":22361:22366   */\n      dup2\n        /* \"#utility.yul\":22358:22415   */\n      eq\n        /* \"#utility.yul\":22348:22433   */\n      tag_594\n      jumpi\n        /* \"#utility.yul\":22429:22430   */\n      0x00\n        /* \"#utility.yul\":22426:22427   */\n      dup1\n        /* \"#utility.yul\":22419:22431   */\n      revert\n        /* \"#utility.yul\":22348:22433   */\n    tag_594:\n        /* \"#utility.yul\":22273:22439   */\n      pop\n      jump\t// out\n        /* \"#utility.yul\":22445:22595   */\n    tag_347:\n        /* \"#utility.yul\":22532:22570   */\n      tag_596\n        /* \"#utility.yul\":22564:22569   */\n      dup2\n        /* \"#utility.yul\":22532:22570   */\n      tag_542\n      jump\t// in\n    tag_596:\n        /* \"#utility.yul\":22525:22530   */\n      dup2\n        /* \"#utility.yul\":22522:22571   */\n      eq\n        /* \"#utility.yul\":22512:22589   */\n      tag_597\n      jumpi\n        /* \"#utility.yul\":22585:22586   */\n      0x00\n        /* \"#utility.yul\":22582:22583   */\n      dup1\n        /* \"#utility.yul\":22575:22587   */\n      revert\n        /* \"#utility.yul\":22512:22589   */\n    tag_597:\n        /* \"#utility.yul\":22445:22595   */\n      pop\n      jump\t// out\n        /* \"#utility.yul\":22601:22723   */\n    tag_363:\n        /* \"#utility.yul\":22674:22698   */\n      tag_599\n        /* \"#utility.yul\":22692:22697   */\n      dup2\n        /* \"#utility.yul\":22674:22698   */\n      tag_475\n      jump\t// in\n    tag_599:\n        /* \"#utility.yul\":22667:22672   */\n      dup2\n        /* \"#utility.yul\":22664:22699   */\n      eq\n        /* \"#utility.yul\":22654:22717   */\n      tag_600\n      jumpi\n        /* \"#utility.yul\":22713:22714   */\n      0x00\n        /* \"#utility.yul\":22710:22711   */\n      dup1\n        /* \"#utility.yul\":22703:22715   */\n      revert\n        /* \"#utility.yul\":22654:22717   */\n    tag_600:\n        /* \"#utility.yul\":22601:22723   */\n      pop\n      jump\t// out\n\n    auxdata: 0xa26469706673582212204be8bbe9d7b13cbfc4264f677d2917014d12a158524b8fab9379c0feac2b75b864736f6c63430008070033\n}\n",
				"bytecode": {
					"linkReferences": {},
					"object": "608060405273ae13d989dac2f0debff460ac112a837c89baa7cd600160006101000a81548173ffffffffffffffffffffffffffffffffffffffff021916908373ffffffffffffffffffffffffffffffffffffffff1602179055507378867bbeef44f2326bf8ddd1941a4439382ef2a7600260006101000a81548173ffffffffffffffffffffffffffffffffffffffff021916908373ffffffffffffffffffffffffffffffffffffffff160217905550670de0b6b3a764000060035562a06680600555348015620000ce57600080fd5b5060405162002972380380620029728339818101604052810190620000f491906200023f565b62000114620001086200015c60201b60201c565b6200016460201b60201c565b80600460006101000a81548173ffffffffffffffffffffffffffffffffffffffff021916908373ffffffffffffffffffffffffffffffffffffffff16021790555050620002d8565b600033905090565b60008060009054906101000a900473ffffffffffffffffffffffffffffffffffffffff169050816000806101000a81548173ffffffffffffffffffffffffffffffffffffffff021916908373ffffffffffffffffffffffffffffffffffffffff1602179055508173ffffffffffffffffffffffffffffffffffffffff168173ffffffffffffffffffffffffffffffffffffffff167f8be0079c531659141344cd1fd0a4f28419497f9722a3daafe3b4186f6b6457e060405160405180910390a35050565b6000815190506200023981620002be565b92915050565b600060208284031215620002585762000257620002b9565b5b6000620002688482850162000228565b91505092915050565b60006200027e8262000299565b9050919050565b6000620002928262000271565b9050919050565b600073ffffffffffffffffffffffffffffffffffffffff82169050919050565b600080fd5b620002c98162000285565b8114620002d557600080fd5b50565b61268a80620002e86000396000f3fe608060405234801561001057600080fd5b50600436106100cf5760003560e01c8063715018a61161008c578063c0d7865511610066578063c0d7865514610216578063d979fb5f14610232578063dbb7934814610262578063f2fde38b14610292576100cf565b8063715018a6146101d05780638da5cb5b146101da5780638dd95002146101f8576100cf565b806319047f8a146100d4578063215cc989146101045780633268cc56146101345780633b979d4514610152578063484f4ea9146101825780634abddbe3146101a0575b600080fd5b6100ee60048036038101906100e99190611c61565b6102ae565b6040516100fb91906120db565b60405180910390f35b61011e60048036038101906101199190611d31565b610505565b60405161012b91906120db565b60405180910390f35b61013c610de3565b604051610149919061201e565b60405180910390f35b61016c60048036038101906101679190611c61565b610e09565b60405161017991906120db565b60405180910390f35b61018a610fef565b6040516101979190612003565b60405180910390f35b6101ba60048036038101906101b59190611e4c565b611015565b6040516101c791906120db565b60405180910390f35b6101d8611157565b005b6101e26111df565b6040516101ef9190612003565b60405180910390f35b610200611208565b60405161020d9190612003565b60405180910390f35b610230600480360381019061022b9190611d5e565b61122e565b005b61024c60048036038101906102479190611de5565b6112ee565b60405161025991906120db565b60405180910390f35b61027c60048036038101906102779190611de5565b61143f565b60405161028991906120db565b60405180910390f35b6102ac60048036038101906102a79190611c61565b61171c565b005b600080600367ffffffffffffffff8111156102cc576102cb61246a565b5b6040519080825280602002602001820160405280156102fa5781602001602082028036833780820191505090505b50905082816000815181106103125761031161243b565b5b602002602001019073ffffffffffffffffffffffffffffffffffffffff16908173ffffffffffffffffffffffffffffffffffffffff1681525050600160009054906101000a900473ffffffffffffffffffffffffffffffffffffffff16816001815181106103835761038261243b565b5b602002602001019073ffffffffffffffffffffffffffffffffffffffff16908173ffffffffffffffffffffffffffffffffffffffff1681525050600260009054906101000a900473ffffffffffffffffffffffffffffffffffffffff16816002815181106103f4576103f361243b565b5b602002602001019073ffffffffffffffffffffffffffffffffffffffff16908173ffffffffffffffffffffffffffffffffffffffff1681525050600460009054906101000a900473ffffffffffffffffffffffffffffffffffffffff1673ffffffffffffffffffffffffffffffffffffffff1663d06ca61f600354836040518363ffffffff1660e01b815260040161048d9291906120f6565b60006040518083038186803b1580156104a557600080fd5b505afa1580156104b9573d6000803e3d6000fd5b505050506040513d6000823e3d601f19601f820116820180604052508101906104e29190611cbb565b6002815181106104f5576104f461243b565b5b6020026020010151915050919050565b60008060008373ffffffffffffffffffffffffffffffffffffffff16630dfe16816040518163ffffffff1660e01b815260040160206040518083038186803b15801561055057600080fd5b505afa158015610564573d6000803e3d6000fd5b505050506040513d601f19601f820116820180604052508101906105889190611d04565b73ffffffffffffffffffffffffffffffffffffffff16600160009054906101000a900473ffffffffffffffffffffffffffffffffffffffff1673ffffffffffffffffffffffffffffffffffffffff1614156107815761077a6106668573ffffffffffffffffffffffffffffffffffffffff16630dfe16816040518163ffffffff1660e01b815260040160206040518083038186803b15801561062957600080fd5b505afa15801561063d573d6000803e3d6000fd5b505050506040513d601f19601f820116820180604052508101906106619190611d04565b610e09565b8573ffffffffffffffffffffffffffffffffffffffff16630dfe16816040518163ffffffff1660e01b815260040160206040518083038186803b1580156106ac57600080fd5b505afa1580156106c0573d6000803e3d6000fd5b505050506040513d601f19601f820116820180604052508101906106e49190611d04565b73ffffffffffffffffffffffffffffffffffffffff166370a08231876040518263ffffffff1660e01b815260040161071c9190612003565b60206040518083038186803b15801561073457600080fd5b505afa158015610748573d6000803e3d6000fd5b505050506040513d601f19601f8201168201806040525081019061076c9190611db8565b61181490919063ffffffff16565b9150610921565b61091e61080a8573ffffffffffffffffffffffffffffffffffffffff16630dfe16816040518163ffffffff1660e01b815260040160206040518083038186803b1580156107cd57600080fd5b505afa1580156107e1573d6000803e3d6000fd5b505050506040513d601f19601f820116820180604052508101906108059190611d04565b6102ae565b8573ffffffffffffffffffffffffffffffffffffffff16630dfe16816040518163ffffffff1660e01b815260040160206040518083038186803b15801561085057600080fd5b505afa158015610864573d6000803e3d6000fd5b505050506040513d601f19601f820116820180604052508101906108889190611d04565b73ffffffffffffffffffffffffffffffffffffffff166370a08231876040518263ffffffff1660e01b81526004016108c09190612003565b60206040518083038186803b1580156108d857600080fd5b505afa1580156108ec573d6000803e3d6000fd5b505050506040513d601f19601f820116820180604052508101906109109190611db8565b61181490919063ffffffff16565b91505b8373ffffffffffffffffffffffffffffffffffffffff1663d21220a76040518163ffffffff1660e01b815260040160206040518083038186803b15801561096757600080fd5b505afa15801561097b573d6000803e3d6000fd5b505050506040513d601f19601f8201168201806040525081019061099f9190611d04565b73ffffffffffffffffffffffffffffffffffffffff16600160009054906101000a900473ffffffffffffffffffffffffffffffffffffffff1673ffffffffffffffffffffffffffffffffffffffff161415610b9857610b91610a7d8573ffffffffffffffffffffffffffffffffffffffff1663d21220a76040518163ffffffff1660e01b815260040160206040518083038186803b158015610a4057600080fd5b505afa158015610a54573d6000803e3d6000fd5b505050506040513d601f19601f82011682018060405250810190610a789190611d04565b610e09565b8573ffffffffffffffffffffffffffffffffffffffff1663d21220a76040518163ffffffff1660e01b815260040160206040518083038186803b158015610ac357600080fd5b505afa158015610ad7573d6000803e3d6000fd5b505050506040513d601f19601f82011682018060405250810190610afb9190611d04565b73ffffffffffffffffffffffffffffffffffffffff166370a08231876040518263ffffffff1660e01b8152600401610b339190612003565b60206040518083038186803b158015610b4b57600080fd5b505afa158015610b5f573d6000803e3d6000fd5b505050506040513d601f19601f82011682018060405250810190610b839190611db8565b61181490919063ffffffff16565b9050610d38565b610d35610c218573ffffffffffffffffffffffffffffffffffffffff1663d21220a76040518163ffffffff1660e01b815260040160206040518083038186803b158015610be457600080fd5b505afa158015610bf8573d6000803e3d6000fd5b505050506040513d601f19601f82011682018060405250810190610c1c9190611d04565b6102ae565b8573ffffffffffffffffffffffffffffffffffffffff1663d21220a76040518163ffffffff1660e01b815260040160206040518083038186803b158015610c6757600080fd5b505afa158015610c7b573d6000803e3d6000fd5b505050506040513d601f19601f82011682018060405250810190610c9f9190611d04565b73ffffffffffffffffffffffffffffffffffffffff166370a08231876040518263ffffffff1660e01b8152600401610cd79190612003565b60206040518083038186803b158015610cef57600080fd5b505afa158015610d03573d6000803e3d6000fd5b505050506040513d601f19601f82011682018060405250810190610d279190611db8565b61181490919063ffffffff16565b90505b610dda8473ffffffffffffffffffffffffffffffffffffffff166318160ddd6040518163ffffffff1660e01b815260040160206040518083038186803b158015610d8157600080fd5b505afa158015610d95573d6000803e3d6000fd5b505050506040513d601f19601f82011682018060405250810190610db99190611db8565b610dcc838561188f90919063ffffffff16565b6118ed90919063ffffffff16565b92505050919050565b600460009054906101000a900473ffffffffffffffffffffffffffffffffffffffff1681565b600080600267ffffffffffffffff811115610e2757610e2661246a565b5b604051908082528060200260200182016040528015610e555781602001602082028036833780820191505090505b5090508281600081518110610e6d57610e6c61243b565b5b602002602001019073ffffffffffffffffffffffffffffffffffffffff16908173ffffffffffffffffffffffffffffffffffffffff1681525050600260009054906101000a900473ffffffffffffffffffffffffffffffffffffffff1681600181518110610ede57610edd61243b565b5b602002602001019073ffffffffffffffffffffffffffffffffffffffff16908173ffffffffffffffffffffffffffffffffffffffff1681525050600460009054906101000a900473ffffffffffffffffffffffffffffffffffffffff1673ffffffffffffffffffffffffffffffffffffffff1663d06ca61f600354836040518363ffffffff1660e01b8152600401610f779291906120f6565b60006040518083038186803b158015610f8f57600080fd5b505afa158015610fa3573d6000803e3d6000fd5b505050506040513d6000823e3d601f19601f82011682018060405250810190610fcc9190611cbb565b600181518110610fdf57610fde61243b565b5b6020026020010151915050919050565b600260009054906101000a900473ffffffffffffffffffffffffffffffffffffffff1681565b6000808273ffffffffffffffffffffffffffffffffffffffff16631526fe27856040518263ffffffff1660e01b815260040161105191906120db565b60c06040518083038186803b15801561106957600080fd5b505afa15801561107d573d6000803e3d6000fd5b505050506040513d601f19601f820116820180604052508101906110a19190611d8b565b9050600061114d8473ffffffffffffffffffffffffffffffffffffffff166317caf6f16040518163ffffffff1660e01b815260040160206040518083038186803b1580156110ee57600080fd5b505afa158015611102573d6000803e3d6000fd5b505050506040513d601f19601f820116820180604052508101906111269190611db8565b61113f600354856020015161181490919063ffffffff16565b6118ed90919063ffffffff16565b9050505092915050565b61115f611937565b73ffffffffffffffffffffffffffffffffffffffff1661117d6111df565b73ffffffffffffffffffffffffffffffffffffffff16146111d3576040517f08c379a00000000000000000000000000000000000000000000000000000000081526004016111ca906120bb565b60405180910390fd5b6111dd600061193f565b565b60008060009054906101000a900473ffffffffffffffffffffffffffffffffffffffff16905090565b600160009054906101000a900473ffffffffffffffffffffffffffffffffffffffff1681565b611236611937565b73ffffffffffffffffffffffffffffffffffffffff166112546111df565b73ffffffffffffffffffffffffffffffffffffffff16146112aa576040517f08c379a00000000000000000000000000000000000000000000000000000000081526004016112a1906120bb565b60405180910390fd5b80600460006101000a81548173ffffffffffffffffffffffffffffffffffffffff021916908373ffffffffffffffffffffffffffffffffffffffff16021790555050565b6000808273ffffffffffffffffffffffffffffffffffffffff16636a6d964e876040518263ffffffff1660e01b815260040161132a91906120db565b60206040518083038186803b15801561134257600080fd5b505afa158015611356573d6000803e3d6000fd5b505050506040513d601f19601f8201168201806040525081019061137a9190611db8565b90506000808514156113965761138f86610505565b9050611413565b6001851415611412578573ffffffffffffffffffffffffffffffffffffffff16600160009054906101000a900473ffffffffffffffffffffffffffffffffffffffff1673ffffffffffffffffffffffffffffffffffffffff161415611405576113fe86610e09565b9050611411565b61140e866102ae565b90505b5b5b61143360035482846114259190612253565b6118ed90919063ffffffff16565b92505050949350505050565b6000808273ffffffffffffffffffffffffffffffffffffffff16631526fe27876040518263ffffffff1660e01b815260040161147b91906120db565b60c06040518083038186803b15801561149357600080fd5b505afa1580156114a7573d6000803e3d6000fd5b505050506040513d601f19601f820116820180604052508101906114cb9190611d8b565b905060006115778473ffffffffffffffffffffffffffffffffffffffff166317caf6f16040518163ffffffff1660e01b815260040160206040518083038186803b15801561151857600080fd5b505afa15801561152c573d6000803e3d6000fd5b505050506040513d601f19601f820116820180604052508101906115509190611db8565b611569600354856020015161181490919063ffffffff16565b6118ed90919063ffffffff16565b905060006116018573ffffffffffffffffffffffffffffffffffffffff1663141aa0ba6040518163ffffffff1660e01b815260040160206040518083038186803b1580156115c457600080fd5b505afa1580156115d8573d6000803e3d6000fd5b505050506040513d601f19601f820116820180604052508101906115fc9190611c8e565b6102ae565b905060006116978673ffffffffffffffffffffffffffffffffffffffff1663a1eef8216040518163ffffffff1660e01b815260040160206040518083038186803b15801561164e57600080fd5b505afa158015611662573d6000803e3d6000fd5b505050506040513d601f19601f820116820180604052508101906116869190611db8565b60055461181490919063ffffffff16565b905060006116ae848361181490919063ffffffff16565b905060006116be8b8b8b8b6112ee565b905061170c60646116fe836116f06003546116e28a8961181490919063ffffffff16565b6118ed90919063ffffffff16565b6118ed90919063ffffffff16565b61181490919063ffffffff16565b9650505050505050949350505050565b611724611937565b73ffffffffffffffffffffffffffffffffffffffff166117426111df565b73ffffffffffffffffffffffffffffffffffffffff1614611798576040517f08c379a000000000000000000000000000000000000000000000000000000000815260040161178f906120bb565b60405180910390fd5b600073ffffffffffffffffffffffffffffffffffffffff168173ffffffffffffffffffffffffffffffffffffffff161415611808576040517f08c379a00000000000000000000000000000000000000000000000000000000081526004016117ff9061205b565b60405180910390fd5b6118118161193f565b50565b6000808314156118275760009050611889565b600082846118359190612253565b90508284826118449190612222565b14611884576040517f08c379a000000000000000000000000000000000000000000000000000000000815260040161187b9061209b565b60405180910390fd5b809150505b92915050565b600080828461189e91906121cc565b9050838110156118e3576040517f08c379a00000000000000000000000000000000000000000000000000000000081526004016118da9061207b565b60405180910390fd5b8091505092915050565b600061192f83836040518060400160405280601a81526020017f536166654d6174683a206469766973696f6e206279207a65726f000000000000815250611a03565b905092915050565b600033905090565b60008060009054906101000a900473ffffffffffffffffffffffffffffffffffffffff169050816000806101000a81548173ffffffffffffffffffffffffffffffffffffffff021916908373ffffffffffffffffffffffffffffffffffffffff1602179055508173ffffffffffffffffffffffffffffffffffffffff168173ffffffffffffffffffffffffffffffffffffffff167f8be0079c531659141344cd1fd0a4f28419497f9722a3daafe3b4186f6b6457e060405160405180910390a35050565b60008083118290611a4a576040517f08c379a0000000000000000000000000000000000000000000000000000000008152600401611a419190612039565b60405180910390fd5b5060008385611a599190612222565b9050809150509392505050565b6000611a79611a748461214b565b612126565b90508083825260208201905082856020860282011115611a9c57611a9b6124a3565b5b60005b85811015611acc5781611ab28882611c4c565b845260208401935060208301925050600181019050611a9f565b5050509392505050565b600081359050611ae5816125b3565b92915050565b600081519050611afa816125b3565b92915050565b600082601f830112611b1557611b14612499565b5b8151611b25848260208601611a66565b91505092915050565b600081519050611b3d816125ca565b92915050565b600081519050611b52816125e1565b92915050565b600081359050611b67816125f8565b92915050565b600081359050611b7c8161260f565b92915050565b600081359050611b9181612626565b92915050565b600060c08284031215611bad57611bac61249e565b5b611bb760c0612126565b90506000611bc784828501611b2e565b6000830152506020611bdb84828501611c4c565b6020830152506040611bef84828501611c4c565b6040830152506060611c0384828501611c4c565b6060830152506080611c1784828501611b43565b60808301525060a0611c2b84828501611b2e565b60a08301525092915050565b600081359050611c468161263d565b92915050565b600081519050611c5b8161263d565b92915050565b600060208284031215611c7757611c766124ad565b5b6000611c8584828501611ad6565b91505092915050565b600060208284031215611ca457611ca36124ad565b5b6000611cb284828501611aeb565b91505092915050565b600060208284031215611cd157611cd06124ad565b5b600082015167ffffffffffffffff811115611cef57611cee6124a8565b5b611cfb84828501611b00565b91505092915050565b600060208284031215611d1a57611d196124ad565b5b6000611d2884828501611b2e565b91505092915050565b600060208284031215611d4757611d466124ad565b5b6000611d5584828501611b58565b91505092915050565b600060208284031215611d7457611d736124ad565b5b6000611d8284828501611b82565b91505092915050565b600060c08284031215611da157611da06124ad565b5b6000611daf84828501611b97565b91505092915050565b600060208284031215611dce57611dcd6124ad565b5b6000611ddc84828501611c4c565b91505092915050565b60008060008060808587031215611dff57611dfe6124ad565b5b6000611e0d87828801611c37565b9450506020611e1e87828801611b58565b9350506040611e2f87828801611c37565b9250506060611e4087828801611b6d565b91505092959194509250565b60008060408385031215611e6357611e626124ad565b5b6000611e7185828601611c37565b9250506020611e8285828601611b6d565b9150509250929050565b6000611e988383611ea4565b60208301905092915050565b611ead816122ad565b82525050565b611ebc816122ad565b82525050565b6000611ecd82612187565b611ed781856121aa565b9350611ee283612177565b8060005b83811015611f13578151611efa8882611e8c565b9750611f058361219d565b925050600181019050611ee6565b5085935050505092915050565b611f2981612343565b82525050565b6000611f3a82612192565b611f4481856121bb565b9350611f54818560208601612379565b611f5d816124b2565b840191505092915050565b6000611f756026836121bb565b9150611f80826124c3565b604082019050919050565b6000611f98601b836121bb565b9150611fa382612512565b602082019050919050565b6000611fbb6021836121bb565b9150611fc68261253b565b604082019050919050565b6000611fde6020836121bb565b9150611fe98261258a565b602082019050919050565b611ffd81612339565b82525050565b60006020820190506120186000830184611eb3565b92915050565b60006020820190506120336000830184611f20565b92915050565b600060208201905081810360008301526120538184611f2f565b905092915050565b6000602082019050818103600083015261207481611f68565b9050919050565b6000602082019050818103600083015261209481611f8b565b9050919050565b600060208201905081810360008301526120b481611fae565b9050919050565b600060208201905081810360008301526120d481611fd1565b9050919050565b60006020820190506120f06000830184611ff4565b92915050565b600060408201905061210b6000830185611ff4565b818103602083015261211d8184611ec2565b90509392505050565b6000612130612141565b905061213c82826123ac565b919050565b6000604051905090565b600067ffffffffffffffff8211156121665761216561246a565b5b602082029050602081019050919050565b6000819050602082019050919050565b600081519050919050565b600081519050919050565b6000602082019050919050565b600082825260208201905092915050565b600082825260208201905092915050565b60006121d782612339565b91506121e283612339565b9250827fffffffffffffffffffffffffffffffffffffffffffffffffffffffffffffffff03821115612217576122166123dd565b5b828201905092915050565b600061222d82612339565b915061223883612339565b9250826122485761224761240c565b5b828204905092915050565b600061225e82612339565b915061226983612339565b9250817fffffffffffffffffffffffffffffffffffffffffffffffffffffffffffffffff04831182151516156122a2576122a16123dd565b5b828202905092915050565b60006122b882612319565b9050919050565b60006122ca826122ad565b9050919050565b60006122dc826122ad565b9050919050565b60006122ee826122ad565b9050919050565b6000612300826122ad565b9050919050565b6000612312826122ad565b9050919050565b600073ffffffffffffffffffffffffffffffffffffffff82169050919050565b6000819050919050565b600061234e82612355565b9050919050565b600061236082612367565b9050919050565b600061237282612319565b9050919050565b60005b8381101561239757808201518184015260208101905061237c565b838111156123a6576000848401525b50505050565b6123b5826124b2565b810181811067ffffffffffffffff821117156123d4576123d361246a565b5b80604052505050565b7f4e487b7100000000000000000000000000000000000000000000000000000000600052601160045260246000fd5b7f4e487b7100000000000000000000000000000000000000000000000000000000600052601260045260246000fd5b7f4e487b7100000000000000000000000000000000000000000000000000000000600052603260045260246000fd5b7f4e487b7100000000000000000000000000000000000000000000000000000000600052604160045260246000fd5b600080fd5b600080fd5b600080fd5b600080fd5b600080fd5b6000601f19601f8301169050919050565b7f4f776e61626c653a206e6577206f776e657220697320746865207a65726f206160008201527f6464726573730000000000000000000000000000000000000000000000000000602082015250565b7f536166654d6174683a206164646974696f6e206f766572666c6f770000000000600082015250565b7f536166654d6174683a206d756c7469706c69636174696f6e206f766572666c6f60008201527f7700000000000000000000000000000000000000000000000000000000000000602082015250565b7f4f776e61626c653a2063616c6c6572206973206e6f7420746865206f776e6572600082015250565b6125bc816122ad565b81146125c757600080fd5b50565b6125d3816122bf565b81146125de57600080fd5b50565b6125ea816122d1565b81146125f557600080fd5b50565b612601816122e3565b811461260c57600080fd5b50565b612618816122f5565b811461262357600080fd5b50565b61262f81612307565b811461263a57600080fd5b50565b61264681612339565b811461265157600080fd5b5056fea26469706673582212204be8bbe9d7b13cbfc4264f677d2917014d12a158524b8fab9379c0feac2b75b864736f6c63430008070033",
					"opcodes": "PUSH1 0x80 PUSH1 0x40 MSTORE PUSH20 0xAE13D989DAC2F0DEBFF460AC112A837C89BAA7CD PUSH1 0x1 PUSH1 0x0 PUSH2 0x100 EXP DUP2 SLOAD DUP2 PUSH20 0xFFFFFFFFFFFFFFFFFFFFFFFFFFFFFFFFFFFFFFFF MUL NOT AND SWAP1 DUP4 PUSH20 0xFFFFFFFFFFFFFFFFFFFFFFFFFFFFFFFFFFFFFFFF AND MUL OR SWAP1 SSTORE POP PUSH20 0x78867BBEEF44F2326BF8DDD1941A4439382EF2A7 PUSH1 0x2 PUSH1 0x0 PUSH2 0x100 EXP DUP2 SLOAD DUP2 PUSH20 0xFFFFFFFFFFFFFFFFFFFFFFFFFFFFFFFFFFFFFFFF MUL NOT AND SWAP1 DUP4 PUSH20 0xFFFFFFFFFFFFFFFFFFFFFFFFFFFFFFFFFFFFFFFF AND MUL OR SWAP1 SSTORE POP PUSH8 0xDE0B6B3A7640000 PUSH1 0x3 SSTORE PUSH3 0xA06680 PUSH1 0x5 SSTORE CALLVALUE DUP1 ISZERO PUSH3 0xCE JUMPI PUSH1 0x0 DUP1 REVERT JUMPDEST POP PUSH1 0x40 MLOAD PUSH3 0x2972 CODESIZE SUB DUP1 PUSH3 0x2972 DUP4 CODECOPY DUP2 DUP2 ADD PUSH1 0x40 MSTORE DUP2 ADD SWAP1 PUSH3 0xF4 SWAP2 SWAP1 PUSH3 0x23F JUMP JUMPDEST PUSH3 0x114 PUSH3 0x108 PUSH3 0x15C PUSH1 0x20 SHL PUSH1 0x20 SHR JUMP JUMPDEST PUSH3 0x164 PUSH1 0x20 SHL PUSH1 0x20 SHR JUMP JUMPDEST DUP1 PUSH1 0x4 PUSH1 0x0 PUSH2 0x100 EXP DUP2 SLOAD DUP2 PUSH20 0xFFFFFFFFFFFFFFFFFFFFFFFFFFFFFFFFFFFFFFFF MUL NOT AND SWAP1 DUP4 PUSH20 0xFFFFFFFFFFFFFFFFFFFFFFFFFFFFFFFFFFFFFFFF AND MUL OR SWAP1 SSTORE POP POP PUSH3 0x2D8 JUMP JUMPDEST PUSH1 0x0 CALLER SWAP1 POP SWAP1 JUMP JUMPDEST PUSH1 0x0 DUP1 PUSH1 0x0 SWAP1 SLOAD SWAP1 PUSH2 0x100 EXP SWAP1 DIV PUSH20 0xFFFFFFFFFFFFFFFFFFFFFFFFFFFFFFFFFFFFFFFF AND SWAP1 POP DUP2 PUSH1 0x0 DUP1 PUSH2 0x100 EXP DUP2 SLOAD DUP2 PUSH20 0xFFFFFFFFFFFFFFFFFFFFFFFFFFFFFFFFFFFFFFFF MUL NOT AND SWAP1 DUP4 PUSH20 0xFFFFFFFFFFFFFFFFFFFFFFFFFFFFFFFFFFFFFFFF AND MUL OR SWAP1 SSTORE POP DUP2 PUSH20 0xFFFFFFFFFFFFFFFFFFFFFFFFFFFFFFFFFFFFFFFF AND DUP2 PUSH20 0xFFFFFFFFFFFFFFFFFFFFFFFFFFFFFFFFFFFFFFFF AND PUSH32 0x8BE0079C531659141344CD1FD0A4F28419497F9722A3DAAFE3B4186F6B6457E0 PUSH1 0x40 MLOAD PUSH1 0x40 MLOAD DUP1 SWAP2 SUB SWAP1 LOG3 POP POP JUMP JUMPDEST PUSH1 0x0 DUP2 MLOAD SWAP1 POP PUSH3 0x239 DUP2 PUSH3 0x2BE JUMP JUMPDEST SWAP3 SWAP2 POP POP JUMP JUMPDEST PUSH1 0x0 PUSH1 0x20 DUP3 DUP5 SUB SLT ISZERO PUSH3 0x258 JUMPI PUSH3 0x257 PUSH3 0x2B9 JUMP JUMPDEST JUMPDEST PUSH1 0x0 PUSH3 0x268 DUP5 DUP3 DUP6 ADD PUSH3 0x228 JUMP JUMPDEST SWAP2 POP POP SWAP3 SWAP2 POP POP JUMP JUMPDEST PUSH1 0x0 PUSH3 0x27E DUP3 PUSH3 0x299 JUMP JUMPDEST SWAP1 POP SWAP2 SWAP1 POP JUMP JUMPDEST PUSH1 0x0 PUSH3 0x292 DUP3 PUSH3 0x271 JUMP JUMPDEST SWAP1 POP SWAP2 SWAP1 POP JUMP JUMPDEST PUSH1 0x0 PUSH20 0xFFFFFFFFFFFFFFFFFFFFFFFFFFFFFFFFFFFFFFFF DUP3 AND SWAP1 POP SWAP2 SWAP1 POP JUMP JUMPDEST PUSH1 0x0 DUP1 REVERT JUMPDEST PUSH3 0x2C9 DUP2 PUSH3 0x285 JUMP JUMPDEST DUP2 EQ PUSH3 0x2D5 JUMPI PUSH1 0x0 DUP1 REVERT JUMPDEST POP JUMP JUMPDEST PUSH2 0x268A DUP1 PUSH3 0x2E8 PUSH1 0x0 CODECOPY PUSH1 0x0 RETURN INVALID PUSH1 0x80 PUSH1 0x40 MSTORE CALLVALUE DUP1 ISZERO PUSH2 0x10 JUMPI PUSH1 0x0 DUP1 REVERT JUMPDEST POP PUSH1 0x4 CALLDATASIZE LT PUSH2 0xCF JUMPI PUSH1 0x0 CALLDATALOAD PUSH1 0xE0 SHR DUP1 PUSH4 0x715018A6 GT PUSH2 0x8C JUMPI DUP1 PUSH4 0xC0D78655 GT PUSH2 0x66 JUMPI DUP1 PUSH4 0xC0D78655 EQ PUSH2 0x216 JUMPI DUP1 PUSH4 0xD979FB5F EQ PUSH2 0x232 JUMPI DUP1 PUSH4 0xDBB79348 EQ PUSH2 0x262 JUMPI DUP1 PUSH4 0xF2FDE38B EQ PUSH2 0x292 JUMPI PUSH2 0xCF JUMP JUMPDEST DUP1 PUSH4 0x715018A6 EQ PUSH2 0x1D0 JUMPI DUP1 PUSH4 0x8DA5CB5B EQ PUSH2 0x1DA JUMPI DUP1 PUSH4 0x8DD95002 EQ PUSH2 0x1F8 JUMPI PUSH2 0xCF JUMP JUMPDEST DUP1 PUSH4 0x19047F8A EQ PUSH2 0xD4 JUMPI DUP1 PUSH4 0x215CC989 EQ PUSH2 0x104 JUMPI DUP1 PUSH4 0x3268CC56 EQ PUSH2 0x134 JUMPI DUP1 PUSH4 0x3B979D45 EQ PUSH2 0x152 JUMPI DUP1 PUSH4 0x484F4EA9 EQ PUSH2 0x182 JUMPI DUP1 PUSH4 0x4ABDDBE3 EQ PUSH2 0x1A0 JUMPI JUMPDEST PUSH1 0x0 DUP1 REVERT JUMPDEST PUSH2 0xEE PUSH1 0x4 DUP1 CALLDATASIZE SUB DUP2 ADD SWAP1 PUSH2 0xE9 SWAP2 SWAP1 PUSH2 0x1C61 JUMP JUMPDEST PUSH2 0x2AE JUMP JUMPDEST PUSH1 0x40 MLOAD PUSH2 0xFB SWAP2 SWAP1 PUSH2 0x20DB JUMP JUMPDEST PUSH1 0x40 MLOAD DUP1 SWAP2 SUB SWAP1 RETURN JUMPDEST PUSH2 0x11E PUSH1 0x4 DUP1 CALLDATASIZE SUB DUP2 ADD SWAP1 PUSH2 0x119 SWAP2 SWAP1 PUSH2 0x1D31 JUMP JUMPDEST PUSH2 0x505 JUMP JUMPDEST PUSH1 0x40 MLOAD PUSH2 0x12B SWAP2 SWAP1 PUSH2 0x20DB JUMP JUMPDEST PUSH1 0x40 MLOAD DUP1 SWAP2 SUB SWAP1 RETURN JUMPDEST PUSH2 0x13C PUSH2 0xDE3 JUMP JUMPDEST PUSH1 0x40 MLOAD PUSH2 0x149 SWAP2 SWAP1 PUSH2 0x201E JUMP JUMPDEST PUSH1 0x40 MLOAD DUP1 SWAP2 SUB SWAP1 RETURN JUMPDEST PUSH2 0x16C PUSH1 0x4 DUP1 CALLDATASIZE SUB DUP2 ADD SWAP1 PUSH2 0x167 SWAP2 SWAP1 PUSH2 0x1C61 JUMP JUMPDEST PUSH2 0xE09 JUMP JUMPDEST PUSH1 0x40 MLOAD PUSH2 0x179 SWAP2 SWAP1 PUSH2 0x20DB JUMP JUMPDEST PUSH1 0x40 MLOAD DUP1 SWAP2 SUB SWAP1 RETURN JUMPDEST PUSH2 0x18A PUSH2 0xFEF JUMP JUMPDEST PUSH1 0x40 MLOAD PUSH2 0x197 SWAP2 SWAP1 PUSH2 0x2003 JUMP JUMPDEST PUSH1 0x40 MLOAD DUP1 SWAP2 SUB SWAP1 RETURN JUMPDEST PUSH2 0x1BA PUSH1 0x4 DUP1 CALLDATASIZE SUB DUP2 ADD SWAP1 PUSH2 0x1B5 SWAP2 SWAP1 PUSH2 0x1E4C JUMP JUMPDEST PUSH2 0x1015 JUMP JUMPDEST PUSH1 0x40 MLOAD PUSH2 0x1C7 SWAP2 SWAP1 PUSH2 0x20DB JUMP JUMPDEST PUSH1 0x40 MLOAD DUP1 SWAP2 SUB SWAP1 RETURN JUMPDEST PUSH2 0x1D8 PUSH2 0x1157 JUMP JUMPDEST STOP JUMPDEST PUSH2 0x1E2 PUSH2 0x11DF JUMP JUMPDEST PUSH1 0x40 MLOAD PUSH2 0x1EF SWAP2 SWAP1 PUSH2 0x2003 JUMP JUMPDEST PUSH1 0x40 MLOAD DUP1 SWAP2 SUB SWAP1 RETURN JUMPDEST PUSH2 0x200 PUSH2 0x1208 JUMP JUMPDEST PUSH1 0x40 MLOAD PUSH2 0x20D SWAP2 SWAP1 PUSH2 0x2003 JUMP JUMPDEST PUSH1 0x40 MLOAD DUP1 SWAP2 SUB SWAP1 RETURN JUMPDEST PUSH2 0x230 PUSH1 0x4 DUP1 CALLDATASIZE SUB DUP2 ADD SWAP1 PUSH2 0x22B SWAP2 SWAP1 PUSH2 0x1D5E JUMP JUMPDEST PUSH2 0x122E JUMP JUMPDEST STOP JUMPDEST PUSH2 0x24C PUSH1 0x4 DUP1 CALLDATASIZE SUB DUP2 ADD SWAP1 PUSH2 0x247 SWAP2 SWAP1 PUSH2 0x1DE5 JUMP JUMPDEST PUSH2 0x12EE JUMP JUMPDEST PUSH1 0x40 MLOAD PUSH2 0x259 SWAP2 SWAP1 PUSH2 0x20DB JUMP JUMPDEST PUSH1 0x40 MLOAD DUP1 SWAP2 SUB SWAP1 RETURN JUMPDEST PUSH2 0x27C PUSH1 0x4 DUP1 CALLDATASIZE SUB DUP2 ADD SWAP1 PUSH2 0x277 SWAP2 SWAP1 PUSH2 0x1DE5 JUMP JUMPDEST PUSH2 0x143F JUMP JUMPDEST PUSH1 0x40 MLOAD PUSH2 0x289 SWAP2 SWAP1 PUSH2 0x20DB JUMP JUMPDEST PUSH1 0x40 MLOAD DUP1 SWAP2 SUB SWAP1 RETURN JUMPDEST PUSH2 0x2AC PUSH1 0x4 DUP1 CALLDATASIZE SUB DUP2 ADD SWAP1 PUSH2 0x2A7 SWAP2 SWAP1 PUSH2 0x1C61 JUMP JUMPDEST PUSH2 0x171C JUMP JUMPDEST STOP JUMPDEST PUSH1 0x0 DUP1 PUSH1 0x3 PUSH8 0xFFFFFFFFFFFFFFFF DUP2 GT ISZERO PUSH2 0x2CC JUMPI PUSH2 0x2CB PUSH2 0x246A JUMP JUMPDEST JUMPDEST PUSH1 0x40 MLOAD SWAP1 DUP1 DUP3 MSTORE DUP1 PUSH1 0x20 MUL PUSH1 0x20 ADD DUP3 ADD PUSH1 0x40 MSTORE DUP1 ISZERO PUSH2 0x2FA JUMPI DUP2 PUSH1 0x20 ADD PUSH1 0x20 DUP3 MUL DUP1 CALLDATASIZE DUP4 CALLDATACOPY DUP1 DUP3 ADD SWAP2 POP POP SWAP1 POP JUMPDEST POP SWAP1 POP DUP3 DUP2 PUSH1 0x0 DUP2 MLOAD DUP2 LT PUSH2 0x312 JUMPI PUSH2 0x311 PUSH2 0x243B JUMP JUMPDEST JUMPDEST PUSH1 0x20 MUL PUSH1 0x20 ADD ADD SWAP1 PUSH20 0xFFFFFFFFFFFFFFFFFFFFFFFFFFFFFFFFFFFFFFFF AND SWAP1 DUP2 PUSH20 0xFFFFFFFFFFFFFFFFFFFFFFFFFFFFFFFFFFFFFFFF AND DUP2 MSTORE POP POP PUSH1 0x1 PUSH1 0x0 SWAP1 SLOAD SWAP1 PUSH2 0x100 EXP SWAP1 DIV PUSH20 0xFFFFFFFFFFFFFFFFFFFFFFFFFFFFFFFFFFFFFFFF AND DUP2 PUSH1 0x1 DUP2 MLOAD DUP2 LT PUSH2 0x383 JUMPI PUSH2 0x382 PUSH2 0x243B JUMP JUMPDEST JUMPDEST PUSH1 0x20 MUL PUSH1 0x20 ADD ADD SWAP1 PUSH20 0xFFFFFFFFFFFFFFFFFFFFFFFFFFFFFFFFFFFFFFFF AND SWAP1 DUP2 PUSH20 0xFFFFFFFFFFFFFFFFFFFFFFFFFFFFFFFFFFFFFFFF AND DUP2 MSTORE POP POP PUSH1 0x2 PUSH1 0x0 SWAP1 SLOAD SWAP1 PUSH2 0x100 EXP SWAP1 DIV PUSH20 0xFFFFFFFFFFFFFFFFFFFFFFFFFFFFFFFFFFFFFFFF AND DUP2 PUSH1 0x2 DUP2 MLOAD DUP2 LT PUSH2 0x3F4 JUMPI PUSH2 0x3F3 PUSH2 0x243B JUMP JUMPDEST JUMPDEST PUSH1 0x20 MUL PUSH1 0x20 ADD ADD SWAP1 PUSH20 0xFFFFFFFFFFFFFFFFFFFFFFFFFFFFFFFFFFFFFFFF AND SWAP1 DUP2 PUSH20 0xFFFFFFFFFFFFFFFFFFFFFFFFFFFFFFFFFFFFFFFF AND DUP2 MSTORE POP POP PUSH1 0x4 PUSH1 0x0 SWAP1 SLOAD SWAP1 PUSH2 0x100 EXP SWAP1 DIV PUSH20 0xFFFFFFFFFFFFFFFFFFFFFFFFFFFFFFFFFFFFFFFF AND PUSH20 0xFFFFFFFFFFFFFFFFFFFFFFFFFFFFFFFFFFFFFFFF AND PUSH4 0xD06CA61F PUSH1 0x3 SLOAD DUP4 PUSH1 0x40 MLOAD DUP4 PUSH4 0xFFFFFFFF AND PUSH1 0xE0 SHL DUP2 MSTORE PUSH1 0x4 ADD PUSH2 0x48D SWAP3 SWAP2 SWAP1 PUSH2 0x20F6 JUMP JUMPDEST PUSH1 0x0 PUSH1 0x40 MLOAD DUP1 DUP4 SUB DUP2 DUP7 DUP1 EXTCODESIZE ISZERO DUP1 ISZERO PUSH2 0x4A5 JUMPI PUSH1 0x0 DUP1 REVERT JUMPDEST POP GAS STATICCALL ISZERO DUP1 ISZERO PUSH2 0x4B9 JUMPI RETURNDATASIZE PUSH1 0x0 DUP1 RETURNDATACOPY RETURNDATASIZE PUSH1 0x0 REVERT JUMPDEST POP POP POP POP PUSH1 0x40 MLOAD RETURNDATASIZE PUSH1 0x0 DUP3 RETURNDATACOPY RETURNDATASIZE PUSH1 0x1F NOT PUSH1 0x1F DUP3 ADD AND DUP3 ADD DUP1 PUSH1 0x40 MSTORE POP DUP2 ADD SWAP1 PUSH2 0x4E2 SWAP2 SWAP1 PUSH2 0x1CBB JUMP JUMPDEST PUSH1 0x2 DUP2 MLOAD DUP2 LT PUSH2 0x4F5 JUMPI PUSH2 0x4F4 PUSH2 0x243B JUMP JUMPDEST JUMPDEST PUSH1 0x20 MUL PUSH1 0x20 ADD ADD MLOAD SWAP2 POP POP SWAP2 SWAP1 POP JUMP JUMPDEST PUSH1 0x0 DUP1 PUSH1 0x0 DUP4 PUSH20 0xFFFFFFFFFFFFFFFFFFFFFFFFFFFFFFFFFFFFFFFF AND PUSH4 0xDFE1681 PUSH1 0x40 MLOAD DUP2 PUSH4 0xFFFFFFFF AND PUSH1 0xE0 SHL DUP2 MSTORE PUSH1 0x4 ADD PUSH1 0x20 PUSH1 0x40 MLOAD DUP1 DUP4 SUB DUP2 DUP7 DUP1 EXTCODESIZE ISZERO DUP1 ISZERO PUSH2 0x550 JUMPI PUSH1 0x0 DUP1 REVERT JUMPDEST POP GAS STATICCALL ISZERO DUP1 ISZERO PUSH2 0x564 JUMPI RETURNDATASIZE PUSH1 0x0 DUP1 RETURNDATACOPY RETURNDATASIZE PUSH1 0x0 REVERT JUMPDEST POP POP POP POP PUSH1 0x40 MLOAD RETURNDATASIZE PUSH1 0x1F NOT PUSH1 0x1F DUP3 ADD AND DUP3 ADD DUP1 PUSH1 0x40 MSTORE POP DUP2 ADD SWAP1 PUSH2 0x588 SWAP2 SWAP1 PUSH2 0x1D04 JUMP JUMPDEST PUSH20 0xFFFFFFFFFFFFFFFFFFFFFFFFFFFFFFFFFFFFFFFF AND PUSH1 0x1 PUSH1 0x0 SWAP1 SLOAD SWAP1 PUSH2 0x100 EXP SWAP1 DIV PUSH20 0xFFFFFFFFFFFFFFFFFFFFFFFFFFFFFFFFFFFFFFFF AND PUSH20 0xFFFFFFFFFFFFFFFFFFFFFFFFFFFFFFFFFFFFFFFF AND EQ ISZERO PUSH2 0x781 JUMPI PUSH2 0x77A PUSH2 0x666 DUP6 PUSH20 0xFFFFFFFFFFFFFFFFFFFFFFFFFFFFFFFFFFFFFFFF AND PUSH4 0xDFE1681 PUSH1 0x40 MLOAD DUP2 PUSH4 0xFFFFFFFF AND PUSH1 0xE0 SHL DUP2 MSTORE PUSH1 0x4 ADD PUSH1 0x20 PUSH1 0x40 MLOAD DUP1 DUP4 SUB DUP2 DUP7 DUP1 EXTCODESIZE ISZERO DUP1 ISZERO PUSH2 0x629 JUMPI PUSH1 0x0 DUP1 REVERT JUMPDEST POP GAS STATICCALL ISZERO DUP1 ISZERO PUSH2 0x63D JUMPI RETURNDATASIZE PUSH1 0x0 DUP1 RETURNDATACOPY RETURNDATASIZE PUSH1 0x0 REVERT JUMPDEST POP POP POP POP PUSH1 0x40 MLOAD RETURNDATASIZE PUSH1 0x1F NOT PUSH1 0x1F DUP3 ADD AND DUP3 ADD DUP1 PUSH1 0x40 MSTORE POP DUP2 ADD SWAP1 PUSH2 0x661 SWAP2 SWAP1 PUSH2 0x1D04 JUMP JUMPDEST PUSH2 0xE09 JUMP JUMPDEST DUP6 PUSH20 0xFFFFFFFFFFFFFFFFFFFFFFFFFFFFFFFFFFFFFFFF AND PUSH4 0xDFE1681 PUSH1 0x40 MLOAD DUP2 PUSH4 0xFFFFFFFF AND PUSH1 0xE0 SHL DUP2 MSTORE PUSH1 0x4 ADD PUSH1 0x20 PUSH1 0x40 MLOAD DUP1 DUP4 SUB DUP2 DUP7 DUP1 EXTCODESIZE ISZERO DUP1 ISZERO PUSH2 0x6AC JUMPI PUSH1 0x0 DUP1 REVERT JUMPDEST POP GAS STATICCALL ISZERO DUP1 ISZERO PUSH2 0x6C0 JUMPI RETURNDATASIZE PUSH1 0x0 DUP1 RETURNDATACOPY RETURNDATASIZE PUSH1 0x0 REVERT JUMPDEST POP POP POP POP PUSH1 0x40 MLOAD RETURNDATASIZE PUSH1 0x1F NOT PUSH1 0x1F DUP3 ADD AND DUP3 ADD DUP1 PUSH1 0x40 MSTORE POP DUP2 ADD SWAP1 PUSH2 0x6E4 SWAP2 SWAP1 PUSH2 0x1D04 JUMP JUMPDEST PUSH20 0xFFFFFFFFFFFFFFFFFFFFFFFFFFFFFFFFFFFFFFFF AND PUSH4 0x70A08231 DUP8 PUSH1 0x40 MLOAD DUP3 PUSH4 0xFFFFFFFF AND PUSH1 0xE0 SHL DUP2 MSTORE PUSH1 0x4 ADD PUSH2 0x71C SWAP2 SWAP1 PUSH2 0x2003 JUMP JUMPDEST PUSH1 0x20 PUSH1 0x40 MLOAD DUP1 DUP4 SUB DUP2 DUP7 DUP1 EXTCODESIZE ISZERO DUP1 ISZERO PUSH2 0x734 JUMPI PUSH1 0x0 DUP1 REVERT JUMPDEST POP GAS STATICCALL ISZERO DUP1 ISZERO PUSH2 0x748 JUMPI RETURNDATASIZE PUSH1 0x0 DUP1 RETURNDATACOPY RETURNDATASIZE PUSH1 0x0 REVERT JUMPDEST POP POP POP POP PUSH1 0x40 MLOAD RETURNDATASIZE PUSH1 0x1F NOT PUSH1 0x1F DUP3 ADD AND DUP3 ADD DUP1 PUSH1 0x40 MSTORE POP DUP2 ADD SWAP1 PUSH2 0x76C SWAP2 SWAP1 PUSH2 0x1DB8 JUMP JUMPDEST PUSH2 0x1814 SWAP1 SWAP2 SWAP1 PUSH4 0xFFFFFFFF AND JUMP JUMPDEST SWAP2 POP PUSH2 0x921 JUMP JUMPDEST PUSH2 0x91E PUSH2 0x80A DUP6 PUSH20 0xFFFFFFFFFFFFFFFFFFFFFFFFFFFFFFFFFFFFFFFF AND PUSH4 0xDFE1681 PUSH1 0x40 MLOAD DUP2 PUSH4 0xFFFFFFFF AND PUSH1 0xE0 SHL DUP2 MSTORE PUSH1 0x4 ADD PUSH1 0x20 PUSH1 0x40 MLOAD DUP1 DUP4 SUB DUP2 DUP7 DUP1 EXTCODESIZE ISZERO DUP1 ISZERO PUSH2 0x7CD JUMPI PUSH1 0x0 DUP1 REVERT JUMPDEST POP GAS STATICCALL ISZERO DUP1 ISZERO PUSH2 0x7E1 JUMPI RETURNDATASIZE PUSH1 0x0 DUP1 RETURNDATACOPY RETURNDATASIZE PUSH1 0x0 REVERT JUMPDEST POP POP POP POP PUSH1 0x40 MLOAD RETURNDATASIZE PUSH1 0x1F NOT PUSH1 0x1F DUP3 ADD AND DUP3 ADD DUP1 PUSH1 0x40 MSTORE POP DUP2 ADD SWAP1 PUSH2 0x805 SWAP2 SWAP1 PUSH2 0x1D04 JUMP JUMPDEST PUSH2 0x2AE JUMP JUMPDEST DUP6 PUSH20 0xFFFFFFFFFFFFFFFFFFFFFFFFFFFFFFFFFFFFFFFF AND PUSH4 0xDFE1681 PUSH1 0x40 MLOAD DUP2 PUSH4 0xFFFFFFFF AND PUSH1 0xE0 SHL DUP2 MSTORE PUSH1 0x4 ADD PUSH1 0x20 PUSH1 0x40 MLOAD DUP1 DUP4 SUB DUP2 DUP7 DUP1 EXTCODESIZE ISZERO DUP1 ISZERO PUSH2 0x850 JUMPI PUSH1 0x0 DUP1 REVERT JUMPDEST POP GAS STATICCALL ISZERO DUP1 ISZERO PUSH2 0x864 JUMPI RETURNDATASIZE PUSH1 0x0 DUP1 RETURNDATACOPY RETURNDATASIZE PUSH1 0x0 REVERT JUMPDEST POP POP POP POP PUSH1 0x40 MLOAD RETURNDATASIZE PUSH1 0x1F NOT PUSH1 0x1F DUP3 ADD AND DUP3 ADD DUP1 PUSH1 0x40 MSTORE POP DUP2 ADD SWAP1 PUSH2 0x888 SWAP2 SWAP1 PUSH2 0x1D04 JUMP JUMPDEST PUSH20 0xFFFFFFFFFFFFFFFFFFFFFFFFFFFFFFFFFFFFFFFF AND PUSH4 0x70A08231 DUP8 PUSH1 0x40 MLOAD DUP3 PUSH4 0xFFFFFFFF AND PUSH1 0xE0 SHL DUP2 MSTORE PUSH1 0x4 ADD PUSH2 0x8C0 SWAP2 SWAP1 PUSH2 0x2003 JUMP JUMPDEST PUSH1 0x20 PUSH1 0x40 MLOAD DUP1 DUP4 SUB DUP2 DUP7 DUP1 EXTCODESIZE ISZERO DUP1 ISZERO PUSH2 0x8D8 JUMPI PUSH1 0x0 DUP1 REVERT JUMPDEST POP GAS STATICCALL ISZERO DUP1 ISZERO PUSH2 0x8EC JUMPI RETURNDATASIZE PUSH1 0x0 DUP1 RETURNDATACOPY RETURNDATASIZE PUSH1 0x0 REVERT JUMPDEST POP POP POP POP PUSH1 0x40 MLOAD RETURNDATASIZE PUSH1 0x1F NOT PUSH1 0x1F DUP3 ADD AND DUP3 ADD DUP1 PUSH1 0x40 MSTORE POP DUP2 ADD SWAP1 PUSH2 0x910 SWAP2 SWAP1 PUSH2 0x1DB8 JUMP JUMPDEST PUSH2 0x1814 SWAP1 SWAP2 SWAP1 PUSH4 0xFFFFFFFF AND JUMP JUMPDEST SWAP2 POP JUMPDEST DUP4 PUSH20 0xFFFFFFFFFFFFFFFFFFFFFFFFFFFFFFFFFFFFFFFF AND PUSH4 0xD21220A7 PUSH1 0x40 MLOAD DUP2 PUSH4 0xFFFFFFFF AND PUSH1 0xE0 SHL DUP2 MSTORE PUSH1 0x4 ADD PUSH1 0x20 PUSH1 0x40 MLOAD DUP1 DUP4 SUB DUP2 DUP7 DUP1 EXTCODESIZE ISZERO DUP1 ISZERO PUSH2 0x967 JUMPI PUSH1 0x0 DUP1 REVERT JUMPDEST POP GAS STATICCALL ISZERO DUP1 ISZERO PUSH2 0x97B JUMPI RETURNDATASIZE PUSH1 0x0 DUP1 RETURNDATACOPY RETURNDATASIZE PUSH1 0x0 REVERT JUMPDEST POP POP POP POP PUSH1 0x40 MLOAD RETURNDATASIZE PUSH1 0x1F NOT PUSH1 0x1F DUP3 ADD AND DUP3 ADD DUP1 PUSH1 0x40 MSTORE POP DUP2 ADD SWAP1 PUSH2 0x99F SWAP2 SWAP1 PUSH2 0x1D04 JUMP JUMPDEST PUSH20 0xFFFFFFFFFFFFFFFFFFFFFFFFFFFFFFFFFFFFFFFF AND PUSH1 0x1 PUSH1 0x0 SWAP1 SLOAD SWAP1 PUSH2 0x100 EXP SWAP1 DIV PUSH20 0xFFFFFFFFFFFFFFFFFFFFFFFFFFFFFFFFFFFFFFFF AND PUSH20 0xFFFFFFFFFFFFFFFFFFFFFFFFFFFFFFFFFFFFFFFF AND EQ ISZERO PUSH2 0xB98 JUMPI PUSH2 0xB91 PUSH2 0xA7D DUP6 PUSH20 0xFFFFFFFFFFFFFFFFFFFFFFFFFFFFFFFFFFFFFFFF AND PUSH4 0xD21220A7 PUSH1 0x40 MLOAD DUP2 PUSH4 0xFFFFFFFF AND PUSH1 0xE0 SHL DUP2 MSTORE PUSH1 0x4 ADD PUSH1 0x20 PUSH1 0x40 MLOAD DUP1 DUP4 SUB DUP2 DUP7 DUP1 EXTCODESIZE ISZERO DUP1 ISZERO PUSH2 0xA40 JUMPI PUSH1 0x0 DUP1 REVERT JUMPDEST POP GAS STATICCALL ISZERO DUP1 ISZERO PUSH2 0xA54 JUMPI RETURNDATASIZE PUSH1 0x0 DUP1 RETURNDATACOPY RETURNDATASIZE PUSH1 0x0 REVERT JUMPDEST POP POP POP POP PUSH1 0x40 MLOAD RETURNDATASIZE PUSH1 0x1F NOT PUSH1 0x1F DUP3 ADD AND DUP3 ADD DUP1 PUSH1 0x40 MSTORE POP DUP2 ADD SWAP1 PUSH2 0xA78 SWAP2 SWAP1 PUSH2 0x1D04 JUMP JUMPDEST PUSH2 0xE09 JUMP JUMPDEST DUP6 PUSH20 0xFFFFFFFFFFFFFFFFFFFFFFFFFFFFFFFFFFFFFFFF AND PUSH4 0xD21220A7 PUSH1 0x40 MLOAD DUP2 PUSH4 0xFFFFFFFF AND PUSH1 0xE0 SHL DUP2 MSTORE PUSH1 0x4 ADD PUSH1 0x20 PUSH1 0x40 MLOAD DUP1 DUP4 SUB DUP2 DUP7 DUP1 EXTCODESIZE ISZERO DUP1 ISZERO PUSH2 0xAC3 JUMPI PUSH1 0x0 DUP1 REVERT JUMPDEST POP GAS STATICCALL ISZERO DUP1 ISZERO PUSH2 0xAD7 JUMPI RETURNDATASIZE PUSH1 0x0 DUP1 RETURNDATACOPY RETURNDATASIZE PUSH1 0x0 REVERT JUMPDEST POP POP POP POP PUSH1 0x40 MLOAD RETURNDATASIZE PUSH1 0x1F NOT PUSH1 0x1F DUP3 ADD AND DUP3 ADD DUP1 PUSH1 0x40 MSTORE POP DUP2 ADD SWAP1 PUSH2 0xAFB SWAP2 SWAP1 PUSH2 0x1D04 JUMP JUMPDEST PUSH20 0xFFFFFFFFFFFFFFFFFFFFFFFFFFFFFFFFFFFFFFFF AND PUSH4 0x70A08231 DUP8 PUSH1 0x40 MLOAD DUP3 PUSH4 0xFFFFFFFF AND PUSH1 0xE0 SHL DUP2 MSTORE PUSH1 0x4 ADD PUSH2 0xB33 SWAP2 SWAP1 PUSH2 0x2003 JUMP JUMPDEST PUSH1 0x20 PUSH1 0x40 MLOAD DUP1 DUP4 SUB DUP2 DUP7 DUP1 EXTCODESIZE ISZERO DUP1 ISZERO PUSH2 0xB4B JUMPI PUSH1 0x0 DUP1 REVERT JUMPDEST POP GAS STATICCALL ISZERO DUP1 ISZERO PUSH2 0xB5F JUMPI RETURNDATASIZE PUSH1 0x0 DUP1 RETURNDATACOPY RETURNDATASIZE PUSH1 0x0 REVERT JUMPDEST POP POP POP POP PUSH1 0x40 MLOAD RETURNDATASIZE PUSH1 0x1F NOT PUSH1 0x1F DUP3 ADD AND DUP3 ADD DUP1 PUSH1 0x40 MSTORE POP DUP2 ADD SWAP1 PUSH2 0xB83 SWAP2 SWAP1 PUSH2 0x1DB8 JUMP JUMPDEST PUSH2 0x1814 SWAP1 SWAP2 SWAP1 PUSH4 0xFFFFFFFF AND JUMP JUMPDEST SWAP1 POP PUSH2 0xD38 JUMP JUMPDEST PUSH2 0xD35 PUSH2 0xC21 DUP6 PUSH20 0xFFFFFFFFFFFFFFFFFFFFFFFFFFFFFFFFFFFFFFFF AND PUSH4 0xD21220A7 PUSH1 0x40 MLOAD DUP2 PUSH4 0xFFFFFFFF AND PUSH1 0xE0 SHL DUP2 MSTORE PUSH1 0x4 ADD PUSH1 0x20 PUSH1 0x40 MLOAD DUP1 DUP4 SUB DUP2 DUP7 DUP1 EXTCODESIZE ISZERO DUP1 ISZERO PUSH2 0xBE4 JUMPI PUSH1 0x0 DUP1 REVERT JUMPDEST POP GAS STATICCALL ISZERO DUP1 ISZERO PUSH2 0xBF8 JUMPI RETURNDATASIZE PUSH1 0x0 DUP1 RETURNDATACOPY RETURNDATASIZE PUSH1 0x0 REVERT JUMPDEST POP POP POP POP PUSH1 0x40 MLOAD RETURNDATASIZE PUSH1 0x1F NOT PUSH1 0x1F DUP3 ADD AND DUP3 ADD DUP1 PUSH1 0x40 MSTORE POP DUP2 ADD SWAP1 PUSH2 0xC1C SWAP2 SWAP1 PUSH2 0x1D04 JUMP JUMPDEST PUSH2 0x2AE JUMP JUMPDEST DUP6 PUSH20 0xFFFFFFFFFFFFFFFFFFFFFFFFFFFFFFFFFFFFFFFF AND PUSH4 0xD21220A7 PUSH1 0x40 MLOAD DUP2 PUSH4 0xFFFFFFFF AND PUSH1 0xE0 SHL DUP2 MSTORE PUSH1 0x4 ADD PUSH1 0x20 PUSH1 0x40 MLOAD DUP1 DUP4 SUB DUP2 DUP7 DUP1 EXTCODESIZE ISZERO DUP1 ISZERO PUSH2 0xC67 JUMPI PUSH1 0x0 DUP1 REVERT JUMPDEST POP GAS STATICCALL ISZERO DUP1 ISZERO PUSH2 0xC7B JUMPI RETURNDATASIZE PUSH1 0x0 DUP1 RETURNDATACOPY RETURNDATASIZE PUSH1 0x0 REVERT JUMPDEST POP POP POP POP PUSH1 0x40 MLOAD RETURNDATASIZE PUSH1 0x1F NOT PUSH1 0x1F DUP3 ADD AND DUP3 ADD DUP1 PUSH1 0x40 MSTORE POP DUP2 ADD SWAP1 PUSH2 0xC9F SWAP2 SWAP1 PUSH2 0x1D04 JUMP JUMPDEST PUSH20 0xFFFFFFFFFFFFFFFFFFFFFFFFFFFFFFFFFFFFFFFF AND PUSH4 0x70A08231 DUP8 PUSH1 0x40 MLOAD DUP3 PUSH4 0xFFFFFFFF AND PUSH1 0xE0 SHL DUP2 MSTORE PUSH1 0x4 ADD PUSH2 0xCD7 SWAP2 SWAP1 PUSH2 0x2003 JUMP JUMPDEST PUSH1 0x20 PUSH1 0x40 MLOAD DUP1 DUP4 SUB DUP2 DUP7 DUP1 EXTCODESIZE ISZERO DUP1 ISZERO PUSH2 0xCEF JUMPI PUSH1 0x0 DUP1 REVERT JUMPDEST POP GAS STATICCALL ISZERO DUP1 ISZERO PUSH2 0xD03 JUMPI RETURNDATASIZE PUSH1 0x0 DUP1 RETURNDATACOPY RETURNDATASIZE PUSH1 0x0 REVERT JUMPDEST POP POP POP POP PUSH1 0x40 MLOAD RETURNDATASIZE PUSH1 0x1F NOT PUSH1 0x1F DUP3 ADD AND DUP3 ADD DUP1 PUSH1 0x40 MSTORE POP DUP2 ADD SWAP1 PUSH2 0xD27 SWAP2 SWAP1 PUSH2 0x1DB8 JUMP JUMPDEST PUSH2 0x1814 SWAP1 SWAP2 SWAP1 PUSH4 0xFFFFFFFF AND JUMP JUMPDEST SWAP1 POP JUMPDEST PUSH2 0xDDA DUP5 PUSH20 0xFFFFFFFFFFFFFFFFFFFFFFFFFFFFFFFFFFFFFFFF AND PUSH4 0x18160DDD PUSH1 0x40 MLOAD DUP2 PUSH4 0xFFFFFFFF AND PUSH1 0xE0 SHL DUP2 MSTORE PUSH1 0x4 ADD PUSH1 0x20 PUSH1 0x40 MLOAD DUP1 DUP4 SUB DUP2 DUP7 DUP1 EXTCODESIZE ISZERO DUP1 ISZERO PUSH2 0xD81 JUMPI PUSH1 0x0 DUP1 REVERT JUMPDEST POP GAS STATICCALL ISZERO DUP1 ISZERO PUSH2 0xD95 JUMPI RETURNDATASIZE PUSH1 0x0 DUP1 RETURNDATACOPY RETURNDATASIZE PUSH1 0x0 REVERT JUMPDEST POP POP POP POP PUSH1 0x40 MLOAD RETURNDATASIZE PUSH1 0x1F NOT PUSH1 0x1F DUP3 ADD AND DUP3 ADD DUP1 PUSH1 0x40 MSTORE POP DUP2 ADD SWAP1 PUSH2 0xDB9 SWAP2 SWAP1 PUSH2 0x1DB8 JUMP JUMPDEST PUSH2 0xDCC DUP4 DUP6 PUSH2 0x188F SWAP1 SWAP2 SWAP1 PUSH4 0xFFFFFFFF AND JUMP JUMPDEST PUSH2 0x18ED SWAP1 SWAP2 SWAP1 PUSH4 0xFFFFFFFF AND JUMP JUMPDEST SWAP3 POP POP POP SWAP2 SWAP1 POP JUMP JUMPDEST PUSH1 0x4 PUSH1 0x0 SWAP1 SLOAD SWAP1 PUSH2 0x100 EXP SWAP1 DIV PUSH20 0xFFFFFFFFFFFFFFFFFFFFFFFFFFFFFFFFFFFFFFFF AND DUP2 JUMP JUMPDEST PUSH1 0x0 DUP1 PUSH1 0x2 PUSH8 0xFFFFFFFFFFFFFFFF DUP2 GT ISZERO PUSH2 0xE27 JUMPI PUSH2 0xE26 PUSH2 0x246A JUMP JUMPDEST JUMPDEST PUSH1 0x40 MLOAD SWAP1 DUP1 DUP3 MSTORE DUP1 PUSH1 0x20 MUL PUSH1 0x20 ADD DUP3 ADD PUSH1 0x40 MSTORE DUP1 ISZERO PUSH2 0xE55 JUMPI DUP2 PUSH1 0x20 ADD PUSH1 0x20 DUP3 MUL DUP1 CALLDATASIZE DUP4 CALLDATACOPY DUP1 DUP3 ADD SWAP2 POP POP SWAP1 POP JUMPDEST POP SWAP1 POP DUP3 DUP2 PUSH1 0x0 DUP2 MLOAD DUP2 LT PUSH2 0xE6D JUMPI PUSH2 0xE6C PUSH2 0x243B JUMP JUMPDEST JUMPDEST PUSH1 0x20 MUL PUSH1 0x20 ADD ADD SWAP1 PUSH20 0xFFFFFFFFFFFFFFFFFFFFFFFFFFFFFFFFFFFFFFFF AND SWAP1 DUP2 PUSH20 0xFFFFFFFFFFFFFFFFFFFFFFFFFFFFFFFFFFFFFFFF AND DUP2 MSTORE POP POP PUSH1 0x2 PUSH1 0x0 SWAP1 SLOAD SWAP1 PUSH2 0x100 EXP SWAP1 DIV PUSH20 0xFFFFFFFFFFFFFFFFFFFFFFFFFFFFFFFFFFFFFFFF AND DUP2 PUSH1 0x1 DUP2 MLOAD DUP2 LT PUSH2 0xEDE JUMPI PUSH2 0xEDD PUSH2 0x243B JUMP JUMPDEST JUMPDEST PUSH1 0x20 MUL PUSH1 0x20 ADD ADD SWAP1 PUSH20 0xFFFFFFFFFFFFFFFFFFFFFFFFFFFFFFFFFFFFFFFF AND SWAP1 DUP2 PUSH20 0xFFFFFFFFFFFFFFFFFFFFFFFFFFFFFFFFFFFFFFFF AND DUP2 MSTORE POP POP PUSH1 0x4 PUSH1 0x0 SWAP1 SLOAD SWAP1 PUSH2 0x100 EXP SWAP1 DIV PUSH20 0xFFFFFFFFFFFFFFFFFFFFFFFFFFFFFFFFFFFFFFFF AND PUSH20 0xFFFFFFFFFFFFFFFFFFFFFFFFFFFFFFFFFFFFFFFF AND PUSH4 0xD06CA61F PUSH1 0x3 SLOAD DUP4 PUSH1 0x40 MLOAD DUP4 PUSH4 0xFFFFFFFF AND PUSH1 0xE0 SHL DUP2 MSTORE PUSH1 0x4 ADD PUSH2 0xF77 SWAP3 SWAP2 SWAP1 PUSH2 0x20F6 JUMP JUMPDEST PUSH1 0x0 PUSH1 0x40 MLOAD DUP1 DUP4 SUB DUP2 DUP7 DUP1 EXTCODESIZE ISZERO DUP1 ISZERO PUSH2 0xF8F JUMPI PUSH1 0x0 DUP1 REVERT JUMPDEST POP GAS STATICCALL ISZERO DUP1 ISZERO PUSH2 0xFA3 JUMPI RETURNDATASIZE PUSH1 0x0 DUP1 RETURNDATACOPY RETURNDATASIZE PUSH1 0x0 REVERT JUMPDEST POP POP POP POP PUSH1 0x40 MLOAD RETURNDATASIZE PUSH1 0x0 DUP3 RETURNDATACOPY RETURNDATASIZE PUSH1 0x1F NOT PUSH1 0x1F DUP3 ADD AND DUP3 ADD DUP1 PUSH1 0x40 MSTORE POP DUP2 ADD SWAP1 PUSH2 0xFCC SWAP2 SWAP1 PUSH2 0x1CBB JUMP JUMPDEST PUSH1 0x1 DUP2 MLOAD DUP2 LT PUSH2 0xFDF JUMPI PUSH2 0xFDE PUSH2 0x243B JUMP JUMPDEST JUMPDEST PUSH1 0x20 MUL PUSH1 0x20 ADD ADD MLOAD SWAP2 POP POP SWAP2 SWAP1 POP JUMP JUMPDEST PUSH1 0x2 PUSH1 0x0 SWAP1 SLOAD SWAP1 PUSH2 0x100 EXP SWAP1 DIV PUSH20 0xFFFFFFFFFFFFFFFFFFFFFFFFFFFFFFFFFFFFFFFF AND DUP2 JUMP JUMPDEST PUSH1 0x0 DUP1 DUP3 PUSH20 0xFFFFFFFFFFFFFFFFFFFFFFFFFFFFFFFFFFFFFFFF AND PUSH4 0x1526FE27 DUP6 PUSH1 0x40 MLOAD DUP3 PUSH4 0xFFFFFFFF AND PUSH1 0xE0 SHL DUP2 MSTORE PUSH1 0x4 ADD PUSH2 0x1051 SWAP2 SWAP1 PUSH2 0x20DB JUMP JUMPDEST PUSH1 0xC0 PUSH1 0x40 MLOAD DUP1 DUP4 SUB DUP2 DUP7 DUP1 EXTCODESIZE ISZERO DUP1 ISZERO PUSH2 0x1069 JUMPI PUSH1 0x0 DUP1 REVERT JUMPDEST POP GAS STATICCALL ISZERO DUP1 ISZERO PUSH2 0x107D JUMPI RETURNDATASIZE PUSH1 0x0 DUP1 RETURNDATACOPY RETURNDATASIZE PUSH1 0x0 REVERT JUMPDEST POP POP POP POP PUSH1 0x40 MLOAD RETURNDATASIZE PUSH1 0x1F NOT PUSH1 0x1F DUP3 ADD AND DUP3 ADD DUP1 PUSH1 0x40 MSTORE POP DUP2 ADD SWAP1 PUSH2 0x10A1 SWAP2 SWAP1 PUSH2 0x1D8B JUMP JUMPDEST SWAP1 POP PUSH1 0x0 PUSH2 0x114D DUP5 PUSH20 0xFFFFFFFFFFFFFFFFFFFFFFFFFFFFFFFFFFFFFFFF AND PUSH4 0x17CAF6F1 PUSH1 0x40 MLOAD DUP2 PUSH4 0xFFFFFFFF AND PUSH1 0xE0 SHL DUP2 MSTORE PUSH1 0x4 ADD PUSH1 0x20 PUSH1 0x40 MLOAD DUP1 DUP4 SUB DUP2 DUP7 DUP1 EXTCODESIZE ISZERO DUP1 ISZERO PUSH2 0x10EE JUMPI PUSH1 0x0 DUP1 REVERT JUMPDEST POP GAS STATICCALL ISZERO DUP1 ISZERO PUSH2 0x1102 JUMPI RETURNDATASIZE PUSH1 0x0 DUP1 RETURNDATACOPY RETURNDATASIZE PUSH1 0x0 REVERT JUMPDEST POP POP POP POP PUSH1 0x40 MLOAD RETURNDATASIZE PUSH1 0x1F NOT PUSH1 0x1F DUP3 ADD AND DUP3 ADD DUP1 PUSH1 0x40 MSTORE POP DUP2 ADD SWAP1 PUSH2 0x1126 SWAP2 SWAP1 PUSH2 0x1DB8 JUMP JUMPDEST PUSH2 0x113F PUSH1 0x3 SLOAD DUP6 PUSH1 0x20 ADD MLOAD PUSH2 0x1814 SWAP1 SWAP2 SWAP1 PUSH4 0xFFFFFFFF AND JUMP JUMPDEST PUSH2 0x18ED SWAP1 SWAP2 SWAP1 PUSH4 0xFFFFFFFF AND JUMP JUMPDEST SWAP1 POP POP POP SWAP3 SWAP2 POP POP JUMP JUMPDEST PUSH2 0x115F PUSH2 0x1937 JUMP JUMPDEST PUSH20 0xFFFFFFFFFFFFFFFFFFFFFFFFFFFFFFFFFFFFFFFF AND PUSH2 0x117D PUSH2 0x11DF JUMP JUMPDEST PUSH20 0xFFFFFFFFFFFFFFFFFFFFFFFFFFFFFFFFFFFFFFFF AND EQ PUSH2 0x11D3 JUMPI PUSH1 0x40 MLOAD PUSH32 0x8C379A000000000000000000000000000000000000000000000000000000000 DUP2 MSTORE PUSH1 0x4 ADD PUSH2 0x11CA SWAP1 PUSH2 0x20BB JUMP JUMPDEST PUSH1 0x40 MLOAD DUP1 SWAP2 SUB SWAP1 REVERT JUMPDEST PUSH2 0x11DD PUSH1 0x0 PUSH2 0x193F JUMP JUMPDEST JUMP JUMPDEST PUSH1 0x0 DUP1 PUSH1 0x0 SWAP1 SLOAD SWAP1 PUSH2 0x100 EXP SWAP1 DIV PUSH20 0xFFFFFFFFFFFFFFFFFFFFFFFFFFFFFFFFFFFFFFFF AND SWAP1 POP SWAP1 JUMP JUMPDEST PUSH1 0x1 PUSH1 0x0 SWAP1 SLOAD SWAP1 PUSH2 0x100 EXP SWAP1 DIV PUSH20 0xFFFFFFFFFFFFFFFFFFFFFFFFFFFFFFFFFFFFFFFF AND DUP2 JUMP JUMPDEST PUSH2 0x1236 PUSH2 0x1937 JUMP JUMPDEST PUSH20 0xFFFFFFFFFFFFFFFFFFFFFFFFFFFFFFFFFFFFFFFF AND PUSH2 0x1254 PUSH2 0x11DF JUMP JUMPDEST PUSH20 0xFFFFFFFFFFFFFFFFFFFFFFFFFFFFFFFFFFFFFFFF AND EQ PUSH2 0x12AA JUMPI PUSH1 0x40 MLOAD PUSH32 0x8C379A000000000000000000000000000000000000000000000000000000000 DUP2 MSTORE PUSH1 0x4 ADD PUSH2 0x12A1 SWAP1 PUSH2 0x20BB JUMP JUMPDEST PUSH1 0x40 MLOAD DUP1 SWAP2 SUB SWAP1 REVERT JUMPDEST DUP1 PUSH1 0x4 PUSH1 0x0 PUSH2 0x100 EXP DUP2 SLOAD DUP2 PUSH20 0xFFFFFFFFFFFFFFFFFFFFFFFFFFFFFFFFFFFFFFFF MUL NOT AND SWAP1 DUP4 PUSH20 0xFFFFFFFFFFFFFFFFFFFFFFFFFFFFFFFFFFFFFFFF AND MUL OR SWAP1 SSTORE POP POP JUMP JUMPDEST PUSH1 0x0 DUP1 DUP3 PUSH20 0xFFFFFFFFFFFFFFFFFFFFFFFFFFFFFFFFFFFFFFFF AND PUSH4 0x6A6D964E DUP8 PUSH1 0x40 MLOAD DUP3 PUSH4 0xFFFFFFFF AND PUSH1 0xE0 SHL DUP2 MSTORE PUSH1 0x4 ADD PUSH2 0x132A SWAP2 SWAP1 PUSH2 0x20DB JUMP JUMPDEST PUSH1 0x20 PUSH1 0x40 MLOAD DUP1 DUP4 SUB DUP2 DUP7 DUP1 EXTCODESIZE ISZERO DUP1 ISZERO PUSH2 0x1342 JUMPI PUSH1 0x0 DUP1 REVERT JUMPDEST POP GAS STATICCALL ISZERO DUP1 ISZERO PUSH2 0x1356 JUMPI RETURNDATASIZE PUSH1 0x0 DUP1 RETURNDATACOPY RETURNDATASIZE PUSH1 0x0 REVERT JUMPDEST POP POP POP POP PUSH1 0x40 MLOAD RETURNDATASIZE PUSH1 0x1F NOT PUSH1 0x1F DUP3 ADD AND DUP3 ADD DUP1 PUSH1 0x40 MSTORE POP DUP2 ADD SWAP1 PUSH2 0x137A SWAP2 SWAP1 PUSH2 0x1DB8 JUMP JUMPDEST SWAP1 POP PUSH1 0x0 DUP1 DUP6 EQ ISZERO PUSH2 0x1396 JUMPI PUSH2 0x138F DUP7 PUSH2 0x505 JUMP JUMPDEST SWAP1 POP PUSH2 0x1413 JUMP JUMPDEST PUSH1 0x1 DUP6 EQ ISZERO PUSH2 0x1412 JUMPI DUP6 PUSH20 0xFFFFFFFFFFFFFFFFFFFFFFFFFFFFFFFFFFFFFFFF AND PUSH1 0x1 PUSH1 0x0 SWAP1 SLOAD SWAP1 PUSH2 0x100 EXP SWAP1 DIV PUSH20 0xFFFFFFFFFFFFFFFFFFFFFFFFFFFFFFFFFFFFFFFF AND PUSH20 0xFFFFFFFFFFFFFFFFFFFFFFFFFFFFFFFFFFFFFFFF AND EQ ISZERO PUSH2 0x1405 JUMPI PUSH2 0x13FE DUP7 PUSH2 0xE09 JUMP JUMPDEST SWAP1 POP PUSH2 0x1411 JUMP JUMPDEST PUSH2 0x140E DUP7 PUSH2 0x2AE JUMP JUMPDEST SWAP1 POP JUMPDEST JUMPDEST JUMPDEST PUSH2 0x1433 PUSH1 0x3 SLOAD DUP3 DUP5 PUSH2 0x1425 SWAP2 SWAP1 PUSH2 0x2253 JUMP JUMPDEST PUSH2 0x18ED SWAP1 SWAP2 SWAP1 PUSH4 0xFFFFFFFF AND JUMP JUMPDEST SWAP3 POP POP POP SWAP5 SWAP4 POP POP POP POP JUMP JUMPDEST PUSH1 0x0 DUP1 DUP3 PUSH20 0xFFFFFFFFFFFFFFFFFFFFFFFFFFFFFFFFFFFFFFFF AND PUSH4 0x1526FE27 DUP8 PUSH1 0x40 MLOAD DUP3 PUSH4 0xFFFFFFFF AND PUSH1 0xE0 SHL DUP2 MSTORE PUSH1 0x4 ADD PUSH2 0x147B SWAP2 SWAP1 PUSH2 0x20DB JUMP JUMPDEST PUSH1 0xC0 PUSH1 0x40 MLOAD DUP1 DUP4 SUB DUP2 DUP7 DUP1 EXTCODESIZE ISZERO DUP1 ISZERO PUSH2 0x1493 JUMPI PUSH1 0x0 DUP1 REVERT JUMPDEST POP GAS STATICCALL ISZERO DUP1 ISZERO PUSH2 0x14A7 JUMPI RETURNDATASIZE PUSH1 0x0 DUP1 RETURNDATACOPY RETURNDATASIZE PUSH1 0x0 REVERT JUMPDEST POP POP POP POP PUSH1 0x40 MLOAD RETURNDATASIZE PUSH1 0x1F NOT PUSH1 0x1F DUP3 ADD AND DUP3 ADD DUP1 PUSH1 0x40 MSTORE POP DUP2 ADD SWAP1 PUSH2 0x14CB SWAP2 SWAP1 PUSH2 0x1D8B JUMP JUMPDEST SWAP1 POP PUSH1 0x0 PUSH2 0x1577 DUP5 PUSH20 0xFFFFFFFFFFFFFFFFFFFFFFFFFFFFFFFFFFFFFFFF AND PUSH4 0x17CAF6F1 PUSH1 0x40 MLOAD DUP2 PUSH4 0xFFFFFFFF AND PUSH1 0xE0 SHL DUP2 MSTORE PUSH1 0x4 ADD PUSH1 0x20 PUSH1 0x40 MLOAD DUP1 DUP4 SUB DUP2 DUP7 DUP1 EXTCODESIZE ISZERO DUP1 ISZERO PUSH2 0x1518 JUMPI PUSH1 0x0 DUP1 REVERT JUMPDEST POP GAS STATICCALL ISZERO DUP1 ISZERO PUSH2 0x152C JUMPI RETURNDATASIZE PUSH1 0x0 DUP1 RETURNDATACOPY RETURNDATASIZE PUSH1 0x0 REVERT JUMPDEST POP POP POP POP PUSH1 0x40 MLOAD RETURNDATASIZE PUSH1 0x1F NOT PUSH1 0x1F DUP3 ADD AND DUP3 ADD DUP1 PUSH1 0x40 MSTORE POP DUP2 ADD SWAP1 PUSH2 0x1550 SWAP2 SWAP1 PUSH2 0x1DB8 JUMP JUMPDEST PUSH2 0x1569 PUSH1 0x3 SLOAD DUP6 PUSH1 0x20 ADD MLOAD PUSH2 0x1814 SWAP1 SWAP2 SWAP1 PUSH4 0xFFFFFFFF AND JUMP JUMPDEST PUSH2 0x18ED SWAP1 SWAP2 SWAP1 PUSH4 0xFFFFFFFF AND JUMP JUMPDEST SWAP1 POP PUSH1 0x0 PUSH2 0x1601 DUP6 PUSH20 0xFFFFFFFFFFFFFFFFFFFFFFFFFFFFFFFFFFFFFFFF AND PUSH4 0x141AA0BA PUSH1 0x40 MLOAD DUP2 PUSH4 0xFFFFFFFF AND PUSH1 0xE0 SHL DUP2 MSTORE PUSH1 0x4 ADD PUSH1 0x20 PUSH1 0x40 MLOAD DUP1 DUP4 SUB DUP2 DUP7 DUP1 EXTCODESIZE ISZERO DUP1 ISZERO PUSH2 0x15C4 JUMPI PUSH1 0x0 DUP1 REVERT JUMPDEST POP GAS STATICCALL ISZERO DUP1 ISZERO PUSH2 0x15D8 JUMPI RETURNDATASIZE PUSH1 0x0 DUP1 RETURNDATACOPY RETURNDATASIZE PUSH1 0x0 REVERT JUMPDEST POP POP POP POP PUSH1 0x40 MLOAD RETURNDATASIZE PUSH1 0x1F NOT PUSH1 0x1F DUP3 ADD AND DUP3 ADD DUP1 PUSH1 0x40 MSTORE POP DUP2 ADD SWAP1 PUSH2 0x15FC SWAP2 SWAP1 PUSH2 0x1C8E JUMP JUMPDEST PUSH2 0x2AE JUMP JUMPDEST SWAP1 POP PUSH1 0x0 PUSH2 0x1697 DUP7 PUSH20 0xFFFFFFFFFFFFFFFFFFFFFFFFFFFFFFFFFFFFFFFF AND PUSH4 0xA1EEF821 PUSH1 0x40 MLOAD DUP2 PUSH4 0xFFFFFFFF AND PUSH1 0xE0 SHL DUP2 MSTORE PUSH1 0x4 ADD PUSH1 0x20 PUSH1 0x40 MLOAD DUP1 DUP4 SUB DUP2 DUP7 DUP1 EXTCODESIZE ISZERO DUP1 ISZERO PUSH2 0x164E JUMPI PUSH1 0x0 DUP1 REVERT JUMPDEST POP GAS STATICCALL ISZERO DUP1 ISZERO PUSH2 0x1662 JUMPI RETURNDATASIZE PUSH1 0x0 DUP1 RETURNDATACOPY RETURNDATASIZE PUSH1 0x0 REVERT JUMPDEST POP POP POP POP PUSH1 0x40 MLOAD RETURNDATASIZE PUSH1 0x1F NOT PUSH1 0x1F DUP3 ADD AND DUP3 ADD DUP1 PUSH1 0x40 MSTORE POP DUP2 ADD SWAP1 PUSH2 0x1686 SWAP2 SWAP1 PUSH2 0x1DB8 JUMP JUMPDEST PUSH1 0x5 SLOAD PUSH2 0x1814 SWAP1 SWAP2 SWAP1 PUSH4 0xFFFFFFFF AND JUMP JUMPDEST SWAP1 POP PUSH1 0x0 PUSH2 0x16AE DUP5 DUP4 PUSH2 0x1814 SWAP1 SWAP2 SWAP1 PUSH4 0xFFFFFFFF AND JUMP JUMPDEST SWAP1 POP PUSH1 0x0 PUSH2 0x16BE DUP12 DUP12 DUP12 DUP12 PUSH2 0x12EE JUMP JUMPDEST SWAP1 POP PUSH2 0x170C PUSH1 0x64 PUSH2 0x16FE DUP4 PUSH2 0x16F0 PUSH1 0x3 SLOAD PUSH2 0x16E2 DUP11 DUP10 PUSH2 0x1814 SWAP1 SWAP2 SWAP1 PUSH4 0xFFFFFFFF AND JUMP JUMPDEST PUSH2 0x18ED SWAP1 SWAP2 SWAP1 PUSH4 0xFFFFFFFF AND JUMP JUMPDEST PUSH2 0x18ED SWAP1 SWAP2 SWAP1 PUSH4 0xFFFFFFFF AND JUMP JUMPDEST PUSH2 0x1814 SWAP1 SWAP2 SWAP1 PUSH4 0xFFFFFFFF AND JUMP JUMPDEST SWAP7 POP POP POP POP POP POP POP SWAP5 SWAP4 POP POP POP POP JUMP JUMPDEST PUSH2 0x1724 PUSH2 0x1937 JUMP JUMPDEST PUSH20 0xFFFFFFFFFFFFFFFFFFFFFFFFFFFFFFFFFFFFFFFF AND PUSH2 0x1742 PUSH2 0x11DF JUMP JUMPDEST PUSH20 0xFFFFFFFFFFFFFFFFFFFFFFFFFFFFFFFFFFFFFFFF AND EQ PUSH2 0x1798 JUMPI PUSH1 0x40 MLOAD PUSH32 0x8C379A000000000000000000000000000000000000000000000000000000000 DUP2 MSTORE PUSH1 0x4 ADD PUSH2 0x178F SWAP1 PUSH2 0x20BB JUMP JUMPDEST PUSH1 0x40 MLOAD DUP1 SWAP2 SUB SWAP1 REVERT JUMPDEST PUSH1 0x0 PUSH20 0xFFFFFFFFFFFFFFFFFFFFFFFFFFFFFFFFFFFFFFFF AND DUP2 PUSH20 0xFFFFFFFFFFFFFFFFFFFFFFFFFFFFFFFFFFFFFFFF AND EQ ISZERO PUSH2 0x1808 JUMPI PUSH1 0x40 MLOAD PUSH32 0x8C379A000000000000000000000000000000000000000000000000000000000 DUP2 MSTORE PUSH1 0x4 ADD PUSH2 0x17FF SWAP1 PUSH2 0x205B JUMP JUMPDEST PUSH1 0x40 MLOAD DUP1 SWAP2 SUB SWAP1 REVERT JUMPDEST PUSH2 0x1811 DUP2 PUSH2 0x193F JUMP JUMPDEST POP JUMP JUMPDEST PUSH1 0x0 DUP1 DUP4 EQ ISZERO PUSH2 0x1827 JUMPI PUSH1 0x0 SWAP1 POP PUSH2 0x1889 JUMP JUMPDEST PUSH1 0x0 DUP3 DUP5 PUSH2 0x1835 SWAP2 SWAP1 PUSH2 0x2253 JUMP JUMPDEST SWAP1 POP DUP3 DUP5 DUP3 PUSH2 0x1844 SWAP2 SWAP1 PUSH2 0x2222 JUMP JUMPDEST EQ PUSH2 0x1884 JUMPI PUSH1 0x40 MLOAD PUSH32 0x8C379A000000000000000000000000000000000000000000000000000000000 DUP2 MSTORE PUSH1 0x4 ADD PUSH2 0x187B SWAP1 PUSH2 0x209B JUMP JUMPDEST PUSH1 0x40 MLOAD DUP1 SWAP2 SUB SWAP1 REVERT JUMPDEST DUP1 SWAP2 POP POP JUMPDEST SWAP3 SWAP2 POP POP JUMP JUMPDEST PUSH1 0x0 DUP1 DUP3 DUP5 PUSH2 0x189E SWAP2 SWAP1 PUSH2 0x21CC JUMP JUMPDEST SWAP1 POP DUP4 DUP2 LT ISZERO PUSH2 0x18E3 JUMPI PUSH1 0x40 MLOAD PUSH32 0x8C379A000000000000000000000000000000000000000000000000000000000 DUP2 MSTORE PUSH1 0x4 ADD PUSH2 0x18DA SWAP1 PUSH2 0x207B JUMP JUMPDEST PUSH1 0x40 MLOAD DUP1 SWAP2 SUB SWAP1 REVERT JUMPDEST DUP1 SWAP2 POP POP SWAP3 SWAP2 POP POP JUMP JUMPDEST PUSH1 0x0 PUSH2 0x192F DUP4 DUP4 PUSH1 0x40 MLOAD DUP1 PUSH1 0x40 ADD PUSH1 0x40 MSTORE DUP1 PUSH1 0x1A DUP2 MSTORE PUSH1 0x20 ADD PUSH32 0x536166654D6174683A206469766973696F6E206279207A65726F000000000000 DUP2 MSTORE POP PUSH2 0x1A03 JUMP JUMPDEST SWAP1 POP SWAP3 SWAP2 POP POP JUMP JUMPDEST PUSH1 0x0 CALLER SWAP1 POP SWAP1 JUMP JUMPDEST PUSH1 0x0 DUP1 PUSH1 0x0 SWAP1 SLOAD SWAP1 PUSH2 0x100 EXP SWAP1 DIV PUSH20 0xFFFFFFFFFFFFFFFFFFFFFFFFFFFFFFFFFFFFFFFF AND SWAP1 POP DUP2 PUSH1 0x0 DUP1 PUSH2 0x100 EXP DUP2 SLOAD DUP2 PUSH20 0xFFFFFFFFFFFFFFFFFFFFFFFFFFFFFFFFFFFFFFFF MUL NOT AND SWAP1 DUP4 PUSH20 0xFFFFFFFFFFFFFFFFFFFFFFFFFFFFFFFFFFFFFFFF AND MUL OR SWAP1 SSTORE POP DUP2 PUSH20 0xFFFFFFFFFFFFFFFFFFFFFFFFFFFFFFFFFFFFFFFF AND DUP2 PUSH20 0xFFFFFFFFFFFFFFFFFFFFFFFFFFFFFFFFFFFFFFFF AND PUSH32 0x8BE0079C531659141344CD1FD0A4F28419497F9722A3DAAFE3B4186F6B6457E0 PUSH1 0x40 MLOAD PUSH1 0x40 MLOAD DUP1 SWAP2 SUB SWAP1 LOG3 POP POP JUMP JUMPDEST PUSH1 0x0 DUP1 DUP4 GT DUP3 SWAP1 PUSH2 0x1A4A JUMPI PUSH1 0x40 MLOAD PUSH32 0x8C379A000000000000000000000000000000000000000000000000000000000 DUP2 MSTORE PUSH1 0x4 ADD PUSH2 0x1A41 SWAP2 SWAP1 PUSH2 0x2039 JUMP JUMPDEST PUSH1 0x40 MLOAD DUP1 SWAP2 SUB SWAP1 REVERT JUMPDEST POP PUSH1 0x0 DUP4 DUP6 PUSH2 0x1A59 SWAP2 SWAP1 PUSH2 0x2222 JUMP JUMPDEST SWAP1 POP DUP1 SWAP2 POP POP SWAP4 SWAP3 POP POP POP JUMP JUMPDEST PUSH1 0x0 PUSH2 0x1A79 PUSH2 0x1A74 DUP5 PUSH2 0x214B JUMP JUMPDEST PUSH2 0x2126 JUMP JUMPDEST SWAP1 POP DUP1 DUP4 DUP3 MSTORE PUSH1 0x20 DUP3 ADD SWAP1 POP DUP3 DUP6 PUSH1 0x20 DUP7 MUL DUP3 ADD GT ISZERO PUSH2 0x1A9C JUMPI PUSH2 0x1A9B PUSH2 0x24A3 JUMP JUMPDEST JUMPDEST PUSH1 0x0 JUMPDEST DUP6 DUP2 LT ISZERO PUSH2 0x1ACC JUMPI DUP2 PUSH2 0x1AB2 DUP9 DUP3 PUSH2 0x1C4C JUMP JUMPDEST DUP5 MSTORE PUSH1 0x20 DUP5 ADD SWAP4 POP PUSH1 0x20 DUP4 ADD SWAP3 POP POP PUSH1 0x1 DUP2 ADD SWAP1 POP PUSH2 0x1A9F JUMP JUMPDEST POP POP POP SWAP4 SWAP3 POP POP POP JUMP JUMPDEST PUSH1 0x0 DUP2 CALLDATALOAD SWAP1 POP PUSH2 0x1AE5 DUP2 PUSH2 0x25B3 JUMP JUMPDEST SWAP3 SWAP2 POP POP JUMP JUMPDEST PUSH1 0x0 DUP2 MLOAD SWAP1 POP PUSH2 0x1AFA DUP2 PUSH2 0x25B3 JUMP JUMPDEST SWAP3 SWAP2 POP POP JUMP JUMPDEST PUSH1 0x0 DUP3 PUSH1 0x1F DUP4 ADD SLT PUSH2 0x1B15 JUMPI PUSH2 0x1B14 PUSH2 0x2499 JUMP JUMPDEST JUMPDEST DUP2 MLOAD PUSH2 0x1B25 DUP5 DUP3 PUSH1 0x20 DUP7 ADD PUSH2 0x1A66 JUMP JUMPDEST SWAP2 POP POP SWAP3 SWAP2 POP POP JUMP JUMPDEST PUSH1 0x0 DUP2 MLOAD SWAP1 POP PUSH2 0x1B3D DUP2 PUSH2 0x25CA JUMP JUMPDEST SWAP3 SWAP2 POP POP JUMP JUMPDEST PUSH1 0x0 DUP2 MLOAD SWAP1 POP PUSH2 0x1B52 DUP2 PUSH2 0x25E1 JUMP JUMPDEST SWAP3 SWAP2 POP POP JUMP JUMPDEST PUSH1 0x0 DUP2 CALLDATALOAD SWAP1 POP PUSH2 0x1B67 DUP2 PUSH2 0x25F8 JUMP JUMPDEST SWAP3 SWAP2 POP POP JUMP JUMPDEST PUSH1 0x0 DUP2 CALLDATALOAD SWAP1 POP PUSH2 0x1B7C DUP2 PUSH2 0x260F JUMP JUMPDEST SWAP3 SWAP2 POP POP JUMP JUMPDEST PUSH1 0x0 DUP2 CALLDATALOAD SWAP1 POP PUSH2 0x1B91 DUP2 PUSH2 0x2626 JUMP JUMPDEST SWAP3 SWAP2 POP POP JUMP JUMPDEST PUSH1 0x0 PUSH1 0xC0 DUP3 DUP5 SUB SLT ISZERO PUSH2 0x1BAD JUMPI PUSH2 0x1BAC PUSH2 0x249E JUMP JUMPDEST JUMPDEST PUSH2 0x1BB7 PUSH1 0xC0 PUSH2 0x2126 JUMP JUMPDEST SWAP1 POP PUSH1 0x0 PUSH2 0x1BC7 DUP5 DUP3 DUP6 ADD PUSH2 0x1B2E JUMP JUMPDEST PUSH1 0x0 DUP4 ADD MSTORE POP PUSH1 0x20 PUSH2 0x1BDB DUP5 DUP3 DUP6 ADD PUSH2 0x1C4C JUMP JUMPDEST PUSH1 0x20 DUP4 ADD MSTORE POP PUSH1 0x40 PUSH2 0x1BEF DUP5 DUP3 DUP6 ADD PUSH2 0x1C4C JUMP JUMPDEST PUSH1 0x40 DUP4 ADD MSTORE POP PUSH1 0x60 PUSH2 0x1C03 DUP5 DUP3 DUP6 ADD PUSH2 0x1C4C JUMP JUMPDEST PUSH1 0x60 DUP4 ADD MSTORE POP PUSH1 0x80 PUSH2 0x1C17 DUP5 DUP3 DUP6 ADD PUSH2 0x1B43 JUMP JUMPDEST PUSH1 0x80 DUP4 ADD MSTORE POP PUSH1 0xA0 PUSH2 0x1C2B DUP5 DUP3 DUP6 ADD PUSH2 0x1B2E JUMP JUMPDEST PUSH1 0xA0 DUP4 ADD MSTORE POP SWAP3 SWAP2 POP POP JUMP JUMPDEST PUSH1 0x0 DUP2 CALLDATALOAD SWAP1 POP PUSH2 0x1C46 DUP2 PUSH2 0x263D JUMP JUMPDEST SWAP3 SWAP2 POP POP JUMP JUMPDEST PUSH1 0x0 DUP2 MLOAD SWAP1 POP PUSH2 0x1C5B DUP2 PUSH2 0x263D JUMP JUMPDEST SWAP3 SWAP2 POP POP JUMP JUMPDEST PUSH1 0x0 PUSH1 0x20 DUP3 DUP5 SUB SLT ISZERO PUSH2 0x1C77 JUMPI PUSH2 0x1C76 PUSH2 0x24AD JUMP JUMPDEST JUMPDEST PUSH1 0x0 PUSH2 0x1C85 DUP5 DUP3 DUP6 ADD PUSH2 0x1AD6 JUMP JUMPDEST SWAP2 POP POP SWAP3 SWAP2 POP POP JUMP JUMPDEST PUSH1 0x0 PUSH1 0x20 DUP3 DUP5 SUB SLT ISZERO PUSH2 0x1CA4 JUMPI PUSH2 0x1CA3 PUSH2 0x24AD JUMP JUMPDEST JUMPDEST PUSH1 0x0 PUSH2 0x1CB2 DUP5 DUP3 DUP6 ADD PUSH2 0x1AEB JUMP JUMPDEST SWAP2 POP POP SWAP3 SWAP2 POP POP JUMP JUMPDEST PUSH1 0x0 PUSH1 0x20 DUP3 DUP5 SUB SLT ISZERO PUSH2 0x1CD1 JUMPI PUSH2 0x1CD0 PUSH2 0x24AD JUMP JUMPDEST JUMPDEST PUSH1 0x0 DUP3 ADD MLOAD PUSH8 0xFFFFFFFFFFFFFFFF DUP2 GT ISZERO PUSH2 0x1CEF JUMPI PUSH2 0x1CEE PUSH2 0x24A8 JUMP JUMPDEST JUMPDEST PUSH2 0x1CFB DUP5 DUP3 DUP6 ADD PUSH2 0x1B00 JUMP JUMPDEST SWAP2 POP POP SWAP3 SWAP2 POP POP JUMP JUMPDEST PUSH1 0x0 PUSH1 0x20 DUP3 DUP5 SUB SLT ISZERO PUSH2 0x1D1A JUMPI PUSH2 0x1D19 PUSH2 0x24AD JUMP JUMPDEST JUMPDEST PUSH1 0x0 PUSH2 0x1D28 DUP5 DUP3 DUP6 ADD PUSH2 0x1B2E JUMP JUMPDEST SWAP2 POP POP SWAP3 SWAP2 POP POP JUMP JUMPDEST PUSH1 0x0 PUSH1 0x20 DUP3 DUP5 SUB SLT ISZERO PUSH2 0x1D47 JUMPI PUSH2 0x1D46 PUSH2 0x24AD JUMP JUMPDEST JUMPDEST PUSH1 0x0 PUSH2 0x1D55 DUP5 DUP3 DUP6 ADD PUSH2 0x1B58 JUMP JUMPDEST SWAP2 POP POP SWAP3 SWAP2 POP POP JUMP JUMPDEST PUSH1 0x0 PUSH1 0x20 DUP3 DUP5 SUB SLT ISZERO PUSH2 0x1D74 JUMPI PUSH2 0x1D73 PUSH2 0x24AD JUMP JUMPDEST JUMPDEST PUSH1 0x0 PUSH2 0x1D82 DUP5 DUP3 DUP6 ADD PUSH2 0x1B82 JUMP JUMPDEST SWAP2 POP POP SWAP3 SWAP2 POP POP JUMP JUMPDEST PUSH1 0x0 PUSH1 0xC0 DUP3 DUP5 SUB SLT ISZERO PUSH2 0x1DA1 JUMPI PUSH2 0x1DA0 PUSH2 0x24AD JUMP JUMPDEST JUMPDEST PUSH1 0x0 PUSH2 0x1DAF DUP5 DUP3 DUP6 ADD PUSH2 0x1B97 JUMP JUMPDEST SWAP2 POP POP SWAP3 SWAP2 POP POP JUMP JUMPDEST PUSH1 0x0 PUSH1 0x20 DUP3 DUP5 SUB SLT ISZERO PUSH2 0x1DCE JUMPI PUSH2 0x1DCD PUSH2 0x24AD JUMP JUMPDEST JUMPDEST PUSH1 0x0 PUSH2 0x1DDC DUP5 DUP3 DUP6 ADD PUSH2 0x1C4C JUMP JUMPDEST SWAP2 POP POP SWAP3 SWAP2 POP POP JUMP JUMPDEST PUSH1 0x0 DUP1 PUSH1 0x0 DUP1 PUSH1 0x80 DUP6 DUP8 SUB SLT ISZERO PUSH2 0x1DFF JUMPI PUSH2 0x1DFE PUSH2 0x24AD JUMP JUMPDEST JUMPDEST PUSH1 0x0 PUSH2 0x1E0D DUP8 DUP3 DUP9 ADD PUSH2 0x1C37 JUMP JUMPDEST SWAP5 POP POP PUSH1 0x20 PUSH2 0x1E1E DUP8 DUP3 DUP9 ADD PUSH2 0x1B58 JUMP JUMPDEST SWAP4 POP POP PUSH1 0x40 PUSH2 0x1E2F DUP8 DUP3 DUP9 ADD PUSH2 0x1C37 JUMP JUMPDEST SWAP3 POP POP PUSH1 0x60 PUSH2 0x1E40 DUP8 DUP3 DUP9 ADD PUSH2 0x1B6D JUMP JUMPDEST SWAP2 POP POP SWAP3 SWAP6 SWAP2 SWAP5 POP SWAP3 POP JUMP JUMPDEST PUSH1 0x0 DUP1 PUSH1 0x40 DUP4 DUP6 SUB SLT ISZERO PUSH2 0x1E63 JUMPI PUSH2 0x1E62 PUSH2 0x24AD JUMP JUMPDEST JUMPDEST PUSH1 0x0 PUSH2 0x1E71 DUP6 DUP3 DUP7 ADD PUSH2 0x1C37 JUMP JUMPDEST SWAP3 POP POP PUSH1 0x20 PUSH2 0x1E82 DUP6 DUP3 DUP7 ADD PUSH2 0x1B6D JUMP JUMPDEST SWAP2 POP POP SWAP3 POP SWAP3 SWAP1 POP JUMP JUMPDEST PUSH1 0x0 PUSH2 0x1E98 DUP4 DUP4 PUSH2 0x1EA4 JUMP JUMPDEST PUSH1 0x20 DUP4 ADD SWAP1 POP SWAP3 SWAP2 POP POP JUMP JUMPDEST PUSH2 0x1EAD DUP2 PUSH2 0x22AD JUMP JUMPDEST DUP3 MSTORE POP POP JUMP JUMPDEST PUSH2 0x1EBC DUP2 PUSH2 0x22AD JUMP JUMPDEST DUP3 MSTORE POP POP JUMP JUMPDEST PUSH1 0x0 PUSH2 0x1ECD DUP3 PUSH2 0x2187 JUMP JUMPDEST PUSH2 0x1ED7 DUP2 DUP6 PUSH2 0x21AA JUMP JUMPDEST SWAP4 POP PUSH2 0x1EE2 DUP4 PUSH2 0x2177 JUMP JUMPDEST DUP1 PUSH1 0x0 JUMPDEST DUP4 DUP2 LT ISZERO PUSH2 0x1F13 JUMPI DUP2 MLOAD PUSH2 0x1EFA DUP9 DUP3 PUSH2 0x1E8C JUMP JUMPDEST SWAP8 POP PUSH2 0x1F05 DUP4 PUSH2 0x219D JUMP JUMPDEST SWAP3 POP POP PUSH1 0x1 DUP2 ADD SWAP1 POP PUSH2 0x1EE6 JUMP JUMPDEST POP DUP6 SWAP4 POP POP POP POP SWAP3 SWAP2 POP POP JUMP JUMPDEST PUSH2 0x1F29 DUP2 PUSH2 0x2343 JUMP JUMPDEST DUP3 MSTORE POP POP JUMP JUMPDEST PUSH1 0x0 PUSH2 0x1F3A DUP3 PUSH2 0x2192 JUMP JUMPDEST PUSH2 0x1F44 DUP2 DUP6 PUSH2 0x21BB JUMP JUMPDEST SWAP4 POP PUSH2 0x1F54 DUP2 DUP6 PUSH1 0x20 DUP7 ADD PUSH2 0x2379 JUMP JUMPDEST PUSH2 0x1F5D DUP2 PUSH2 0x24B2 JUMP JUMPDEST DUP5 ADD SWAP2 POP POP SWAP3 SWAP2 POP POP JUMP JUMPDEST PUSH1 0x0 PUSH2 0x1F75 PUSH1 0x26 DUP4 PUSH2 0x21BB JUMP JUMPDEST SWAP2 POP PUSH2 0x1F80 DUP3 PUSH2 0x24C3 JUMP JUMPDEST PUSH1 0x40 DUP3 ADD SWAP1 POP SWAP2 SWAP1 POP JUMP JUMPDEST PUSH1 0x0 PUSH2 0x1F98 PUSH1 0x1B DUP4 PUSH2 0x21BB JUMP JUMPDEST SWAP2 POP PUSH2 0x1FA3 DUP3 PUSH2 0x2512 JUMP JUMPDEST PUSH1 0x20 DUP3 ADD SWAP1 POP SWAP2 SWAP1 POP JUMP JUMPDEST PUSH1 0x0 PUSH2 0x1FBB PUSH1 0x21 DUP4 PUSH2 0x21BB JUMP JUMPDEST SWAP2 POP PUSH2 0x1FC6 DUP3 PUSH2 0x253B JUMP JUMPDEST PUSH1 0x40 DUP3 ADD SWAP1 POP SWAP2 SWAP1 POP JUMP JUMPDEST PUSH1 0x0 PUSH2 0x1FDE PUSH1 0x20 DUP4 PUSH2 0x21BB JUMP JUMPDEST SWAP2 POP PUSH2 0x1FE9 DUP3 PUSH2 0x258A JUMP JUMPDEST PUSH1 0x20 DUP3 ADD SWAP1 POP SWAP2 SWAP1 POP JUMP JUMPDEST PUSH2 0x1FFD DUP2 PUSH2 0x2339 JUMP JUMPDEST DUP3 MSTORE POP POP JUMP JUMPDEST PUSH1 0x0 PUSH1 0x20 DUP3 ADD SWAP1 POP PUSH2 0x2018 PUSH1 0x0 DUP4 ADD DUP5 PUSH2 0x1EB3 JUMP JUMPDEST SWAP3 SWAP2 POP POP JUMP JUMPDEST PUSH1 0x0 PUSH1 0x20 DUP3 ADD SWAP1 POP PUSH2 0x2033 PUSH1 0x0 DUP4 ADD DUP5 PUSH2 0x1F20 JUMP JUMPDEST SWAP3 SWAP2 POP POP JUMP JUMPDEST PUSH1 0x0 PUSH1 0x20 DUP3 ADD SWAP1 POP DUP2 DUP2 SUB PUSH1 0x0 DUP4 ADD MSTORE PUSH2 0x2053 DUP2 DUP5 PUSH2 0x1F2F JUMP JUMPDEST SWAP1 POP SWAP3 SWAP2 POP POP JUMP JUMPDEST PUSH1 0x0 PUSH1 0x20 DUP3 ADD SWAP1 POP DUP2 DUP2 SUB PUSH1 0x0 DUP4 ADD MSTORE PUSH2 0x2074 DUP2 PUSH2 0x1F68 JUMP JUMPDEST SWAP1 POP SWAP2 SWAP1 POP JUMP JUMPDEST PUSH1 0x0 PUSH1 0x20 DUP3 ADD SWAP1 POP DUP2 DUP2 SUB PUSH1 0x0 DUP4 ADD MSTORE PUSH2 0x2094 DUP2 PUSH2 0x1F8B JUMP JUMPDEST SWAP1 POP SWAP2 SWAP1 POP JUMP JUMPDEST PUSH1 0x0 PUSH1 0x20 DUP3 ADD SWAP1 POP DUP2 DUP2 SUB PUSH1 0x0 DUP4 ADD MSTORE PUSH2 0x20B4 DUP2 PUSH2 0x1FAE JUMP JUMPDEST SWAP1 POP SWAP2 SWAP1 POP JUMP JUMPDEST PUSH1 0x0 PUSH1 0x20 DUP3 ADD SWAP1 POP DUP2 DUP2 SUB PUSH1 0x0 DUP4 ADD MSTORE PUSH2 0x20D4 DUP2 PUSH2 0x1FD1 JUMP JUMPDEST SWAP1 POP SWAP2 SWAP1 POP JUMP JUMPDEST PUSH1 0x0 PUSH1 0x20 DUP3 ADD SWAP1 POP PUSH2 0x20F0 PUSH1 0x0 DUP4 ADD DUP5 PUSH2 0x1FF4 JUMP JUMPDEST SWAP3 SWAP2 POP POP JUMP JUMPDEST PUSH1 0x0 PUSH1 0x40 DUP3 ADD SWAP1 POP PUSH2 0x210B PUSH1 0x0 DUP4 ADD DUP6 PUSH2 0x1FF4 JUMP JUMPDEST DUP2 DUP2 SUB PUSH1 0x20 DUP4 ADD MSTORE PUSH2 0x211D DUP2 DUP5 PUSH2 0x1EC2 JUMP JUMPDEST SWAP1 POP SWAP4 SWAP3 POP POP POP JUMP JUMPDEST PUSH1 0x0 PUSH2 0x2130 PUSH2 0x2141 JUMP JUMPDEST SWAP1 POP PUSH2 0x213C DUP3 DUP3 PUSH2 0x23AC JUMP JUMPDEST SWAP2 SWAP1 POP JUMP JUMPDEST PUSH1 0x0 PUSH1 0x40 MLOAD SWAP1 POP SWAP1 JUMP JUMPDEST PUSH1 0x0 PUSH8 0xFFFFFFFFFFFFFFFF DUP3 GT ISZERO PUSH2 0x2166 JUMPI PUSH2 0x2165 PUSH2 0x246A JUMP JUMPDEST JUMPDEST PUSH1 0x20 DUP3 MUL SWAP1 POP PUSH1 0x20 DUP2 ADD SWAP1 POP SWAP2 SWAP1 POP JUMP JUMPDEST PUSH1 0x0 DUP2 SWAP1 POP PUSH1 0x20 DUP3 ADD SWAP1 POP SWAP2 SWAP1 POP JUMP JUMPDEST PUSH1 0x0 DUP2 MLOAD SWAP1 POP SWAP2 SWAP1 POP JUMP JUMPDEST PUSH1 0x0 DUP2 MLOAD SWAP1 POP SWAP2 SWAP1 POP JUMP JUMPDEST PUSH1 0x0 PUSH1 0x20 DUP3 ADD SWAP1 POP SWAP2 SWAP1 POP JUMP JUMPDEST PUSH1 0x0 DUP3 DUP3 MSTORE PUSH1 0x20 DUP3 ADD SWAP1 POP SWAP3 SWAP2 POP POP JUMP JUMPDEST PUSH1 0x0 DUP3 DUP3 MSTORE PUSH1 0x20 DUP3 ADD SWAP1 POP SWAP3 SWAP2 POP POP JUMP JUMPDEST PUSH1 0x0 PUSH2 0x21D7 DUP3 PUSH2 0x2339 JUMP JUMPDEST SWAP2 POP PUSH2 0x21E2 DUP4 PUSH2 0x2339 JUMP JUMPDEST SWAP3 POP DUP3 PUSH32 0xFFFFFFFFFFFFFFFFFFFFFFFFFFFFFFFFFFFFFFFFFFFFFFFFFFFFFFFFFFFFFFFF SUB DUP3 GT ISZERO PUSH2 0x2217 JUMPI PUSH2 0x2216 PUSH2 0x23DD JUMP JUMPDEST JUMPDEST DUP3 DUP3 ADD SWAP1 POP SWAP3 SWAP2 POP POP JUMP JUMPDEST PUSH1 0x0 PUSH2 0x222D DUP3 PUSH2 0x2339 JUMP JUMPDEST SWAP2 POP PUSH2 0x2238 DUP4 PUSH2 0x2339 JUMP JUMPDEST SWAP3 POP DUP3 PUSH2 0x2248 JUMPI PUSH2 0x2247 PUSH2 0x240C JUMP JUMPDEST JUMPDEST DUP3 DUP3 DIV SWAP1 POP SWAP3 SWAP2 POP POP JUMP JUMPDEST PUSH1 0x0 PUSH2 0x225E DUP3 PUSH2 0x2339 JUMP JUMPDEST SWAP2 POP PUSH2 0x2269 DUP4 PUSH2 0x2339 JUMP JUMPDEST SWAP3 POP DUP2 PUSH32 0xFFFFFFFFFFFFFFFFFFFFFFFFFFFFFFFFFFFFFFFFFFFFFFFFFFFFFFFFFFFFFFFF DIV DUP4 GT DUP3 ISZERO ISZERO AND ISZERO PUSH2 0x22A2 JUMPI PUSH2 0x22A1 PUSH2 0x23DD JUMP JUMPDEST JUMPDEST DUP3 DUP3 MUL SWAP1 POP SWAP3 SWAP2 POP POP JUMP JUMPDEST PUSH1 0x0 PUSH2 0x22B8 DUP3 PUSH2 0x2319 JUMP JUMPDEST SWAP1 POP SWAP2 SWAP1 POP JUMP JUMPDEST PUSH1 0x0 PUSH2 0x22CA DUP3 PUSH2 0x22AD JUMP JUMPDEST SWAP1 POP SWAP2 SWAP1 POP JUMP JUMPDEST PUSH1 0x0 PUSH2 0x22DC DUP3 PUSH2 0x22AD JUMP JUMPDEST SWAP1 POP SWAP2 SWAP1 POP JUMP JUMPDEST PUSH1 0x0 PUSH2 0x22EE DUP3 PUSH2 0x22AD JUMP JUMPDEST SWAP1 POP SWAP2 SWAP1 POP JUMP JUMPDEST PUSH1 0x0 PUSH2 0x2300 DUP3 PUSH2 0x22AD JUMP JUMPDEST SWAP1 POP SWAP2 SWAP1 POP JUMP JUMPDEST PUSH1 0x0 PUSH2 0x2312 DUP3 PUSH2 0x22AD JUMP JUMPDEST SWAP1 POP SWAP2 SWAP1 POP JUMP JUMPDEST PUSH1 0x0 PUSH20 0xFFFFFFFFFFFFFFFFFFFFFFFFFFFFFFFFFFFFFFFF DUP3 AND SWAP1 POP SWAP2 SWAP1 POP JUMP JUMPDEST PUSH1 0x0 DUP2 SWAP1 POP SWAP2 SWAP1 POP JUMP JUMPDEST PUSH1 0x0 PUSH2 0x234E DUP3 PUSH2 0x2355 JUMP JUMPDEST SWAP1 POP SWAP2 SWAP1 POP JUMP JUMPDEST PUSH1 0x0 PUSH2 0x2360 DUP3 PUSH2 0x2367 JUMP JUMPDEST SWAP1 POP SWAP2 SWAP1 POP JUMP JUMPDEST PUSH1 0x0 PUSH2 0x2372 DUP3 PUSH2 0x2319 JUMP JUMPDEST SWAP1 POP SWAP2 SWAP1 POP JUMP JUMPDEST PUSH1 0x0 JUMPDEST DUP4 DUP2 LT ISZERO PUSH2 0x2397 JUMPI DUP1 DUP3 ADD MLOAD DUP2 DUP5 ADD MSTORE PUSH1 0x20 DUP2 ADD SWAP1 POP PUSH2 0x237C JUMP JUMPDEST DUP4 DUP2 GT ISZERO PUSH2 0x23A6 JUMPI PUSH1 0x0 DUP5 DUP5 ADD MSTORE JUMPDEST POP POP POP POP JUMP JUMPDEST PUSH2 0x23B5 DUP3 PUSH2 0x24B2 JUMP JUMPDEST DUP2 ADD DUP2 DUP2 LT PUSH8 0xFFFFFFFFFFFFFFFF DUP3 GT OR ISZERO PUSH2 0x23D4 JUMPI PUSH2 0x23D3 PUSH2 0x246A JUMP JUMPDEST JUMPDEST DUP1 PUSH1 0x40 MSTORE POP POP POP JUMP JUMPDEST PUSH32 0x4E487B7100000000000000000000000000000000000000000000000000000000 PUSH1 0x0 MSTORE PUSH1 0x11 PUSH1 0x4 MSTORE PUSH1 0x24 PUSH1 0x0 REVERT JUMPDEST PUSH32 0x4E487B7100000000000000000000000000000000000000000000000000000000 PUSH1 0x0 MSTORE PUSH1 0x12 PUSH1 0x4 MSTORE PUSH1 0x24 PUSH1 0x0 REVERT JUMPDEST PUSH32 0x4E487B7100000000000000000000000000000000000000000000000000000000 PUSH1 0x0 MSTORE PUSH1 0x32 PUSH1 0x4 MSTORE PUSH1 0x24 PUSH1 0x0 REVERT JUMPDEST PUSH32 0x4E487B7100000000000000000000000000000000000000000000000000000000 PUSH1 0x0 MSTORE PUSH1 0x41 PUSH1 0x4 MSTORE PUSH1 0x24 PUSH1 0x0 REVERT JUMPDEST PUSH1 0x0 DUP1 REVERT JUMPDEST PUSH1 0x0 DUP1 REVERT JUMPDEST PUSH1 0x0 DUP1 REVERT JUMPDEST PUSH1 0x0 DUP1 REVERT JUMPDEST PUSH1 0x0 DUP1 REVERT JUMPDEST PUSH1 0x0 PUSH1 0x1F NOT PUSH1 0x1F DUP4 ADD AND SWAP1 POP SWAP2 SWAP1 POP JUMP JUMPDEST PUSH32 0x4F776E61626C653A206E6577206F776E657220697320746865207A65726F2061 PUSH1 0x0 DUP3 ADD MSTORE PUSH32 0x6464726573730000000000000000000000000000000000000000000000000000 PUSH1 0x20 DUP3 ADD MSTORE POP JUMP JUMPDEST PUSH32 0x536166654D6174683A206164646974696F6E206F766572666C6F770000000000 PUSH1 0x0 DUP3 ADD MSTORE POP JUMP JUMPDEST PUSH32 0x536166654D6174683A206D756C7469706C69636174696F6E206F766572666C6F PUSH1 0x0 DUP3 ADD MSTORE PUSH32 0x7700000000000000000000000000000000000000000000000000000000000000 PUSH1 0x20 DUP3 ADD MSTORE POP JUMP JUMPDEST PUSH32 0x4F776E61626C653A2063616C6C6572206973206E6F7420746865206F776E6572 PUSH1 0x0 DUP3 ADD MSTORE POP JUMP JUMPDEST PUSH2 0x25BC DUP2 PUSH2 0x22AD JUMP JUMPDEST DUP2 EQ PUSH2 0x25C7 JUMPI PUSH1 0x0 DUP1 REVERT JUMPDEST POP JUMP JUMPDEST PUSH2 0x25D3 DUP2 PUSH2 0x22BF JUMP JUMPDEST DUP2 EQ PUSH2 0x25DE JUMPI PUSH1 0x0 DUP1 REVERT JUMPDEST POP JUMP JUMPDEST PUSH2 0x25EA DUP2 PUSH2 0x22D1 JUMP JUMPDEST DUP2 EQ PUSH2 0x25F5 JUMPI PUSH1 0x0 DUP1 REVERT JUMPDEST POP JUMP JUMPDEST PUSH2 0x2601 DUP2 PUSH2 0x22E3 JUMP JUMPDEST DUP2 EQ PUSH2 0x260C JUMPI PUSH1 0x0 DUP1 REVERT JUMPDEST POP JUMP JUMPDEST PUSH2 0x2618 DUP2 PUSH2 0x22F5 JUMP JUMPDEST DUP2 EQ PUSH2 0x2623 JUMPI PUSH1 0x0 DUP1 REVERT JUMPDEST POP JUMP JUMPDEST PUSH2 0x262F DUP2 PUSH2 0x2307 JUMP JUMPDEST DUP2 EQ PUSH2 0x263A JUMPI PUSH1 0x0 DUP1 REVERT JUMPDEST POP JUMP JUMPDEST PUSH2 0x2646 DUP2 PUSH2 0x2339 JUMP JUMPDEST DUP2 EQ PUSH2 0x2651 JUMPI PUSH1 0x0 DUP1 REVERT JUMPDEST POP JUMP INVALID LOG2 PUSH5 0x6970667358 0x22 SLT KECCAK256 0x4B 0xE8 0xBB 0xE9 0xD7 0xB1 EXTCODECOPY 0xBF 0xC4 0x26 0x4F PUSH8 0x7D2917014D12A158 MSTORE 0x4B DUP16 0xAB SWAP4 PUSH26 0xC0FEAC2B75B864736F6C63430008070033000000000000000000 "
				},
				"gasEstimates": {
					"creation": {
						"codeDepositCost": "1973200",
						"executionCost": "infinite",
						"totalCost": "infinite"
					},
					"external": {
						"BUSD()": "2603",
						"CalcApy(uint256,address,uint256,address)": "infinite",
						"CalcLpPrice(address)": "infinite",
						"Tokenprice(address)": "infinite",
						"WBNB()": "2581",
						"WBNBPrice(address)": "infinite",
						"calcPoolTVLInUSD(uint256,address,uint256,address)": "infinite",
						"getPoolWeight(uint256,address)": "infinite",
						"owner()": "2567",
						"renounceOwnership()": "30397",
						"routerAddress()": "2645",
						"setRouter(address)": "27027",
						"transferOwnership(address)": "30811"
					}
				},
				"methodIdentifiers": {
					"BUSD()": "484f4ea9",
					"CalcApy(uint256,address,uint256,address)": "dbb79348",
					"CalcLpPrice(address)": "215cc989",
					"Tokenprice(address)": "19047f8a",
					"WBNB()": "8dd95002",
					"WBNBPrice(address)": "3b979d45",
					"calcPoolTVLInUSD(uint256,address,uint256,address)": "d979fb5f",
					"getPoolWeight(uint256,address)": "4abddbe3",
					"owner()": "8da5cb5b",
					"renounceOwnership()": "715018a6",
					"routerAddress()": "3268cc56",
					"setRouter(address)": "c0d78655",
					"transferOwnership(address)": "f2fde38b"
				}
			},
			"storageLayout": {
				"storage": [
					{
						"astId": 509,
						"contract": "contracts/Utils.sol:Utils",
						"label": "_owner",
						"offset": 0,
						"slot": "0",
						"type": "t_address"
					},
					{
						"astId": 753,
						"contract": "contracts/Utils.sol:Utils",
						"label": "WBNB",
						"offset": 0,
						"slot": "1",
						"type": "t_address"
					},
					{
						"astId": 756,
						"contract": "contracts/Utils.sol:Utils",
						"label": "BUSD",
						"offset": 0,
						"slot": "2",
						"type": "t_address"
					},
					{
						"astId": 759,
						"contract": "contracts/Utils.sol:Utils",
						"label": "amount",
						"offset": 0,
						"slot": "3",
						"type": "t_uint256"
					},
					{
						"astId": 762,
						"contract": "contracts/Utils.sol:Utils",
						"label": "routerAddress",
						"offset": 0,
						"slot": "4",
						"type": "t_contract(Router)644"
					},
					{
						"astId": 765,
						"contract": "contracts/Utils.sol:Utils",
						"label": "BLOCKS_PER_YEAR",
						"offset": 0,
						"slot": "5",
						"type": "t_uint256"
					}
				],
				"types": {
					"t_address": {
						"encoding": "inplace",
						"label": "address",
						"numberOfBytes": "20"
					},
					"t_contract(Router)644": {
						"encoding": "inplace",
						"label": "contract Router",
						"numberOfBytes": "20"
					},
					"t_uint256": {
						"encoding": "inplace",
						"label": "uint256",
						"numberOfBytes": "32"
					}
				}
			},
			"userdoc": {
				"kind": "user",
				"methods": {},
				"version": 1
			}
		}
	}
}