{
	"contracts/Utils.sol": {
		"Utils": {
			"abi": [
				{
					"inputs": [],
					"name": "BUSD",
					"outputs": [
						{
							"internalType": "address",
							"name": "",
							"type": "address"
						}
					],
					"stateMutability": "view",
					"type": "function"
				},
				{
					"inputs": [
						{
							"internalType": "uint256",
							"name": "pid",
							"type": "uint256"
						},
						{
							"internalType": "address",
							"name": "lpAddress",
							"type": "address"
						},
						{
							"internalType": "bool",
							"name": "isLp",
							"type": "bool"
						},
						{
							"internalType": "contract MetaMasterChef",
							"name": "MasterChef",
							"type": "address"
						}
					],
					"name": "CalcApy",
					"outputs": [
						{
							"internalType": "uint256",
							"name": "",
							"type": "uint256"
						}
					],
					"stateMutability": "view",
					"type": "function"
				},
				{
					"inputs": [
						{
							"internalType": "contract LP",
							"name": "lpAddress",
							"type": "address"
						},
						{
							"internalType": "contract Router",
							"name": "routerAddress",
							"type": "address"
						}
					],
					"name": "CalcLpPrice",
					"outputs": [
						{
							"internalType": "uint256",
							"name": "",
							"type": "uint256"
						}
					],
					"stateMutability": "view",
					"type": "function"
				},
				{
					"inputs": [],
					"name": "WBNB",
					"outputs": [
						{
							"internalType": "address",
							"name": "",
							"type": "address"
						}
					],
					"stateMutability": "view",
					"type": "function"
				}
			],
			"devdoc": {
				"kind": "dev",
				"methods": {},
				"version": 1
			},
			"evm": {
				"assembly": "    /* \"contracts/Utils.sol\":14005:16049  contract Utils {\r... */\n  mstore(0x40, 0x80)\n    /* \"contracts/Utils.sol\":14082:14124  0xae13d989daC2f0dEbFf460aC112a837C89BAa7cd */\n  0xae13d989dac2f0debff460ac112a837c89baa7cd\n    /* \"contracts/Utils.sol\":14060:14124  address public WBNB = 0xae13d989daC2f0dEbFf460aC112a837C89BAa7cd */\n  0x00\n  dup1\n  0x0100\n  exp\n  dup2\n  sload\n  dup2\n  0xffffffffffffffffffffffffffffffffffffffff\n  mul\n  not\n  and\n  swap1\n  dup4\n  0xffffffffffffffffffffffffffffffffffffffff\n  and\n  mul\n  or\n  swap1\n  sstore\n  pop\n    /* \"contracts/Utils.sol\":14153:14195  0x78867BbEeF44f2326bF8DDd1941a4439382EF2A7 */\n  0x78867bbeef44f2326bf8ddd1941a4439382ef2a7\n    /* \"contracts/Utils.sol\":14131:14195  address public BUSD = 0x78867BbEeF44f2326bF8DDd1941a4439382EF2A7 */\n  0x01\n  exp(0x0100, 0x00)\n  dup2\n  sload\n  dup2\n  0xffffffffffffffffffffffffffffffffffffffff\n  mul\n  not\n  and\n  swap1\n  dup4\n  0xffffffffffffffffffffffffffffffffffffffff\n  and\n  mul\n  or\n  swap1\n  sstore\n  pop\n    /* \"contracts/Utils.sol\":14219:14238  1000000000000000000 */\n  0x0de0b6b3a7640000\n    /* \"contracts/Utils.sol\":14202:14238  uint256 amount = 1000000000000000000 */\n  0x02\n  sstore\n    /* \"contracts/Utils.sol\":14273:14299  10512000000000000000000000 */\n  0x08b200a96f8d058a000000\n    /* \"contracts/Utils.sol\":14247:14299  uint256 BLOCKS_PER_YEAR = 10512000000000000000000000 */\n  0x03\n  sstore\n    /* \"contracts/Utils.sol\":14005:16049  contract Utils {\r... */\n  callvalue\n  dup1\n  iszero\n  tag_1\n  jumpi\n  0x00\n  dup1\n  revert\ntag_1:\n  pop\n  dataSize(sub_0)\n  dup1\n  dataOffset(sub_0)\n  0x00\n  codecopy\n  0x00\n  return\nstop\n\nsub_0: assembly {\n        /* \"contracts/Utils.sol\":14005:16049  contract Utils {\r... */\n      mstore(0x40, 0x80)\n      callvalue\n      dup1\n      iszero\n      tag_1\n      jumpi\n      0x00\n      dup1\n      revert\n    tag_1:\n      pop\n      jumpi(tag_2, lt(calldatasize, 0x04))\n      shr(0xe0, calldataload(0x00))\n      dup1\n      0x1eff56b9\n      eq\n      tag_3\n      jumpi\n      dup1\n      0x344e49d9\n      eq\n      tag_4\n      jumpi\n      dup1\n      0x484f4ea9\n      eq\n      tag_5\n      jumpi\n      dup1\n      0x8dd95002\n      eq\n      tag_6\n      jumpi\n    tag_2:\n      0x00\n      dup1\n      revert\n        /* \"contracts/Utils.sol\":15835:16046  function CalcApy(uint256 pid, address lpAddress,bool isLp, MetaMasterChef MasterChef) external view returns(uint256){\r... */\n    tag_3:\n      tag_7\n      0x04\n      dup1\n      calldatasize\n      sub\n      dup2\n      add\n      swap1\n      tag_8\n      swap2\n      swap1\n      tag_9\n      jump\t// in\n    tag_8:\n      tag_10\n      jump\t// in\n    tag_7:\n      mload(0x40)\n      tag_11\n      swap2\n      swap1\n      tag_12\n      jump\t// in\n    tag_11:\n      mload(0x40)\n      dup1\n      swap2\n      sub\n      swap1\n      return\n        /* \"contracts/Utils.sol\":14864:15792  function CalcLpPrice(LP lpAddress, Router routerAddress) external view returns(uint256){\r... */\n    tag_4:\n      tag_13\n      0x04\n      dup1\n      calldatasize\n      sub\n      dup2\n      add\n      swap1\n      tag_14\n      swap2\n      swap1\n      tag_15\n      jump\t// in\n    tag_14:\n      tag_16\n      jump\t// in\n    tag_13:\n      mload(0x40)\n      tag_17\n      swap2\n      swap1\n      tag_12\n      jump\t// in\n    tag_17:\n      mload(0x40)\n      dup1\n      swap2\n      sub\n      swap1\n      return\n        /* \"contracts/Utils.sol\":14131:14195  address public BUSD = 0x78867BbEeF44f2326bF8DDd1941a4439382EF2A7 */\n    tag_5:\n      tag_18\n      tag_19\n      jump\t// in\n    tag_18:\n      mload(0x40)\n      tag_20\n      swap2\n      swap1\n      tag_21\n      jump\t// in\n    tag_20:\n      mload(0x40)\n      dup1\n      swap2\n      sub\n      swap1\n      return\n        /* \"contracts/Utils.sol\":14060:14124  address public WBNB = 0xae13d989daC2f0dEbFf460aC112a837C89BAa7cd */\n    tag_6:\n      tag_22\n      tag_23\n      jump\t// in\n    tag_22:\n      mload(0x40)\n      tag_24\n      swap2\n      swap1\n      tag_21\n      jump\t// in\n    tag_24:\n      mload(0x40)\n      dup1\n      swap2\n      sub\n      swap1\n      return\n        /* \"contracts/Utils.sol\":15835:16046  function CalcApy(uint256 pid, address lpAddress,bool isLp, MetaMasterChef MasterChef) external view returns(uint256){\r... */\n    tag_10:\n        /* \"contracts/Utils.sol\":15943:15950  uint256 */\n      0x00\n        /* \"contracts/Utils.sol\":15962:15980  uint256 poolWeight */\n      dup1\n        /* \"contracts/Utils.sol\":16010:16020  MasterChef */\n      dup3\n        /* \"contracts/Utils.sol\":16010:16036  MasterChef.totalAllocPoint */\n      0xffffffffffffffffffffffffffffffffffffffff\n      and\n      0x17caf6f1\n        /* \"contracts/Utils.sol\":16010:16038  MasterChef.totalAllocPoint() */\n      mload(0x40)\n      dup2\n      0xffffffff\n      and\n      0xe0\n      shl\n      dup2\n      mstore\n      0x04\n      add\n      0x20\n      mload(0x40)\n      dup1\n      dup4\n      sub\n      dup2\n      dup7\n      dup1\n      extcodesize\n      iszero\n      dup1\n      iszero\n      tag_26\n      jumpi\n      0x00\n      dup1\n      revert\n    tag_26:\n      pop\n      gas\n      staticcall\n      iszero\n      dup1\n      iszero\n      tag_28\n      jumpi\n      returndatasize\n      0x00\n      dup1\n      returndatacopy\n      revert(0x00, returndatasize)\n    tag_28:\n      pop\n      pop\n      pop\n      pop\n      mload(0x40)\n      returndatasize\n      not(0x1f)\n      0x1f\n      dup3\n      add\n      and\n      dup3\n      add\n      dup1\n      0x40\n      mstore\n      pop\n      dup2\n      add\n      swap1\n      tag_29\n      swap2\n      swap1\n      tag_30\n      jump\t// in\n    tag_29:\n        /* \"contracts/Utils.sol\":15983:15993  MasterChef */\n      dup4\n        /* \"contracts/Utils.sol\":15983:16002  MasterChef.poolInfo */\n      0xffffffffffffffffffffffffffffffffffffffff\n      and\n      0x1526fe27\n        /* \"contracts/Utils.sol\":16003:16006  pid */\n      dup9\n        /* \"contracts/Utils.sol\":15983:16007  MasterChef.poolInfo(pid) */\n      mload(0x40)\n      dup3\n      0xffffffff\n      and\n      0xe0\n      shl\n      dup2\n      mstore\n      0x04\n      add\n      tag_31\n      swap2\n      swap1\n      tag_12\n      jump\t// in\n    tag_31:\n      0x20\n      mload(0x40)\n      dup1\n      dup4\n      sub\n      dup2\n      dup7\n      dup1\n      extcodesize\n      iszero\n      dup1\n      iszero\n      tag_32\n      jumpi\n      0x00\n      dup1\n      revert\n    tag_32:\n      pop\n      gas\n      staticcall\n      iszero\n      dup1\n      iszero\n      tag_34\n      jumpi\n      returndatasize\n      0x00\n      dup1\n      returndatacopy\n      revert(0x00, returndatasize)\n    tag_34:\n      pop\n      pop\n      pop\n      pop\n      mload(0x40)\n      returndatasize\n      not(0x1f)\n      0x1f\n      dup3\n      add\n      and\n      dup3\n      add\n      dup1\n      0x40\n      mstore\n      pop\n      dup2\n      add\n      swap1\n      tag_35\n      swap2\n      swap1\n      tag_30\n      jump\t// in\n    tag_35:\n        /* \"contracts/Utils.sol\":15983:16038  MasterChef.poolInfo(pid) * MasterChef.totalAllocPoint() */\n      tag_36\n      swap2\n      swap1\n      tag_37\n      jump\t// in\n    tag_36:\n        /* \"contracts/Utils.sol\":15962:16038  uint256 poolWeight = MasterChef.poolInfo(pid) * MasterChef.totalAllocPoint() */\n      swap1\n      pop\n        /* \"contracts/Utils.sol\":15951:16046  {\r... */\n      pop\n        /* \"contracts/Utils.sol\":15835:16046  function CalcApy(uint256 pid, address lpAddress,bool isLp, MetaMasterChef MasterChef) external view returns(uint256){\r... */\n      swap5\n      swap4\n      pop\n      pop\n      pop\n      pop\n      jump\t// out\n        /* \"contracts/Utils.sol\":14864:15792  function CalcLpPrice(LP lpAddress, Router routerAddress) external view returns(uint256){\r... */\n    tag_16:\n        /* \"contracts/Utils.sol\":14943:14950  uint256 */\n      0x00\n        /* \"contracts/Utils.sol\":14962:14976  uint256 phase1 */\n      dup1\n        /* \"contracts/Utils.sol\":14987:15001  uint256 phase2 */\n      0x00\n        /* \"contracts/Utils.sol\":15040:15049  lpAddress */\n      dup5\n        /* \"contracts/Utils.sol\":15040:15056  lpAddress.token0 */\n      0xffffffffffffffffffffffffffffffffffffffff\n      and\n      0x0dfe1681\n        /* \"contracts/Utils.sol\":15040:15058  lpAddress.token0() */\n      mload(0x40)\n      dup2\n      0xffffffff\n      and\n      0xe0\n      shl\n      dup2\n      mstore\n      0x04\n      add\n      0x20\n      mload(0x40)\n      dup1\n      dup4\n      sub\n      dup2\n      dup7\n      dup1\n      extcodesize\n      iszero\n      dup1\n      iszero\n      tag_39\n      jumpi\n      0x00\n      dup1\n      revert\n    tag_39:\n      pop\n      gas\n      staticcall\n      iszero\n      dup1\n      iszero\n      tag_41\n      jumpi\n      returndatasize\n      0x00\n      dup1\n      returndatacopy\n      revert(0x00, returndatasize)\n    tag_41:\n      pop\n      pop\n      pop\n      pop\n      mload(0x40)\n      returndatasize\n      not(0x1f)\n      0x1f\n      dup3\n      add\n      and\n      dup3\n      add\n      dup1\n      0x40\n      mstore\n      pop\n      dup2\n      add\n      swap1\n      tag_42\n      swap2\n      swap1\n      tag_43\n      jump\t// in\n    tag_42:\n        /* \"contracts/Utils.sol\":15015:15059  address(WBNB) != address(lpAddress.token0()) */\n      0xffffffffffffffffffffffffffffffffffffffff\n      and\n        /* \"contracts/Utils.sol\":15023:15027  WBNB */\n      0x00\n      dup1\n      sload\n      swap1\n      0x0100\n      exp\n      swap1\n      div\n      0xffffffffffffffffffffffffffffffffffffffff\n      and\n        /* \"contracts/Utils.sol\":15015:15059  address(WBNB) != address(lpAddress.token0()) */\n      0xffffffffffffffffffffffffffffffffffffffff\n      and\n      eq\n        /* \"contracts/Utils.sol\":15012:15353  if(address(WBNB) != address(lpAddress.token0())){\r... */\n      tag_44\n      jumpi\n        /* \"contracts/Utils.sol\":15085:15192  lpAddress.token0().balanceOf(address(lpAddress)).mul(Tokenprice(routerAddress,address(lpAddress.token0()))) */\n      tag_45\n        /* \"contracts/Utils.sol\":15138:15191  Tokenprice(routerAddress,address(lpAddress.token0())) */\n      tag_46\n        /* \"contracts/Utils.sol\":15149:15162  routerAddress */\n      dup6\n        /* \"contracts/Utils.sol\":15171:15180  lpAddress */\n      dup8\n        /* \"contracts/Utils.sol\":15171:15187  lpAddress.token0 */\n      0xffffffffffffffffffffffffffffffffffffffff\n      and\n      0x0dfe1681\n        /* \"contracts/Utils.sol\":15171:15189  lpAddress.token0() */\n      mload(0x40)\n      dup2\n      0xffffffff\n      and\n      0xe0\n      shl\n      dup2\n      mstore\n      0x04\n      add\n      0x20\n      mload(0x40)\n      dup1\n      dup4\n      sub\n      dup2\n      dup7\n      dup1\n      extcodesize\n      iszero\n      dup1\n      iszero\n      tag_47\n      jumpi\n      0x00\n      dup1\n      revert\n    tag_47:\n      pop\n      gas\n      staticcall\n      iszero\n      dup1\n      iszero\n      tag_49\n      jumpi\n      returndatasize\n      0x00\n      dup1\n      returndatacopy\n      revert(0x00, returndatasize)\n    tag_49:\n      pop\n      pop\n      pop\n      pop\n      mload(0x40)\n      returndatasize\n      not(0x1f)\n      0x1f\n      dup3\n      add\n      and\n      dup3\n      add\n      dup1\n      0x40\n      mstore\n      pop\n      dup2\n      add\n      swap1\n      tag_50\n      swap2\n      swap1\n      tag_43\n      jump\t// in\n    tag_50:\n        /* \"contracts/Utils.sol\":15138:15148  Tokenprice */\n      tag_51\n        /* \"contracts/Utils.sol\":15138:15191  Tokenprice(routerAddress,address(lpAddress.token0())) */\n      jump\t// in\n    tag_46:\n        /* \"contracts/Utils.sol\":15085:15094  lpAddress */\n      dup7\n        /* \"contracts/Utils.sol\":15085:15101  lpAddress.token0 */\n      0xffffffffffffffffffffffffffffffffffffffff\n      and\n      0x0dfe1681\n        /* \"contracts/Utils.sol\":15085:15103  lpAddress.token0() */\n      mload(0x40)\n      dup2\n      0xffffffff\n      and\n      0xe0\n      shl\n      dup2\n      mstore\n      0x04\n      add\n      0x20\n      mload(0x40)\n      dup1\n      dup4\n      sub\n      dup2\n      dup7\n      dup1\n      extcodesize\n      iszero\n      dup1\n      iszero\n      tag_52\n      jumpi\n      0x00\n      dup1\n      revert\n    tag_52:\n      pop\n      gas\n      staticcall\n      iszero\n      dup1\n      iszero\n      tag_54\n      jumpi\n      returndatasize\n      0x00\n      dup1\n      returndatacopy\n      revert(0x00, returndatasize)\n    tag_54:\n      pop\n      pop\n      pop\n      pop\n      mload(0x40)\n      returndatasize\n      not(0x1f)\n      0x1f\n      dup3\n      add\n      and\n      dup3\n      add\n      dup1\n      0x40\n      mstore\n      pop\n      dup2\n      add\n      swap1\n      tag_55\n      swap2\n      swap1\n      tag_43\n      jump\t// in\n    tag_55:\n        /* \"contracts/Utils.sol\":15085:15113  lpAddress.token0().balanceOf */\n      0xffffffffffffffffffffffffffffffffffffffff\n      and\n      0x70a08231\n        /* \"contracts/Utils.sol\":15122:15131  lpAddress */\n      dup9\n        /* \"contracts/Utils.sol\":15085:15133  lpAddress.token0().balanceOf(address(lpAddress)) */\n      mload(0x40)\n      dup3\n      0xffffffff\n      and\n      0xe0\n      shl\n      dup2\n      mstore\n      0x04\n      add\n      tag_56\n      swap2\n      swap1\n      tag_21\n      jump\t// in\n    tag_56:\n      0x20\n      mload(0x40)\n      dup1\n      dup4\n      sub\n      dup2\n      dup7\n      dup1\n      extcodesize\n      iszero\n      dup1\n      iszero\n      tag_57\n      jumpi\n      0x00\n      dup1\n      revert\n    tag_57:\n      pop\n      gas\n      staticcall\n      iszero\n      dup1\n      iszero\n      tag_59\n      jumpi\n      returndatasize\n      0x00\n      dup1\n      returndatacopy\n      revert(0x00, returndatasize)\n    tag_59:\n      pop\n      pop\n      pop\n      pop\n      mload(0x40)\n      returndatasize\n      not(0x1f)\n      0x1f\n      dup3\n      add\n      and\n      dup3\n      add\n      dup1\n      0x40\n      mstore\n      pop\n      dup2\n      add\n      swap1\n      tag_60\n      swap2\n      swap1\n      tag_30\n      jump\t// in\n    tag_60:\n        /* \"contracts/Utils.sol\":15085:15137  lpAddress.token0().balanceOf(address(lpAddress)).mul */\n      tag_61\n      swap1\n        /* \"contracts/Utils.sol\":15085:15192  lpAddress.token0().balanceOf(address(lpAddress)).mul(Tokenprice(routerAddress,address(lpAddress.token0()))) */\n      swap2\n      swap1\n      0xffffffff\n      and\n      jump\t// in\n    tag_45:\n        /* \"contracts/Utils.sol\":15075:15193  phase1 = (lpAddress.token0().balanceOf(address(lpAddress)).mul(Tokenprice(routerAddress,address(lpAddress.token0())))) */\n      swap2\n      pop\n        /* \"contracts/Utils.sol\":15012:15353  if(address(WBNB) != address(lpAddress.token0())){\r... */\n      jump(tag_62)\n    tag_44:\n        /* \"contracts/Utils.sol\":15234:15340  lpAddress.token0().balanceOf(address(lpAddress)).mul(WBNBPrice(routerAddress,address(lpAddress.token0()))) */\n      tag_63\n        /* \"contracts/Utils.sol\":15287:15339  WBNBPrice(routerAddress,address(lpAddress.token0())) */\n      tag_64\n        /* \"contracts/Utils.sol\":15297:15310  routerAddress */\n      dup6\n        /* \"contracts/Utils.sol\":15319:15328  lpAddress */\n      dup8\n        /* \"contracts/Utils.sol\":15319:15335  lpAddress.token0 */\n      0xffffffffffffffffffffffffffffffffffffffff\n      and\n      0x0dfe1681\n        /* \"contracts/Utils.sol\":15319:15337  lpAddress.token0() */\n      mload(0x40)\n      dup2\n      0xffffffff\n      and\n      0xe0\n      shl\n      dup2\n      mstore\n      0x04\n      add\n      0x20\n      mload(0x40)\n      dup1\n      dup4\n      sub\n      dup2\n      dup7\n      dup1\n      extcodesize\n      iszero\n      dup1\n      iszero\n      tag_65\n      jumpi\n      0x00\n      dup1\n      revert\n    tag_65:\n      pop\n      gas\n      staticcall\n      iszero\n      dup1\n      iszero\n      tag_67\n      jumpi\n      returndatasize\n      0x00\n      dup1\n      returndatacopy\n      revert(0x00, returndatasize)\n    tag_67:\n      pop\n      pop\n      pop\n      pop\n      mload(0x40)\n      returndatasize\n      not(0x1f)\n      0x1f\n      dup3\n      add\n      and\n      dup3\n      add\n      dup1\n      0x40\n      mstore\n      pop\n      dup2\n      add\n      swap1\n      tag_68\n      swap2\n      swap1\n      tag_43\n      jump\t// in\n    tag_68:\n        /* \"contracts/Utils.sol\":15287:15296  WBNBPrice */\n      tag_69\n        /* \"contracts/Utils.sol\":15287:15339  WBNBPrice(routerAddress,address(lpAddress.token0())) */\n      jump\t// in\n    tag_64:\n        /* \"contracts/Utils.sol\":15234:15243  lpAddress */\n      dup7\n        /* \"contracts/Utils.sol\":15234:15250  lpAddress.token0 */\n      0xffffffffffffffffffffffffffffffffffffffff\n      and\n      0x0dfe1681\n        /* \"contracts/Utils.sol\":15234:15252  lpAddress.token0() */\n      mload(0x40)\n      dup2\n      0xffffffff\n      and\n      0xe0\n      shl\n      dup2\n      mstore\n      0x04\n      add\n      0x20\n      mload(0x40)\n      dup1\n      dup4\n      sub\n      dup2\n      dup7\n      dup1\n      extcodesize\n      iszero\n      dup1\n      iszero\n      tag_70\n      jumpi\n      0x00\n      dup1\n      revert\n    tag_70:\n      pop\n      gas\n      staticcall\n      iszero\n      dup1\n      iszero\n      tag_72\n      jumpi\n      returndatasize\n      0x00\n      dup1\n      returndatacopy\n      revert(0x00, returndatasize)\n    tag_72:\n      pop\n      pop\n      pop\n      pop\n      mload(0x40)\n      returndatasize\n      not(0x1f)\n      0x1f\n      dup3\n      add\n      and\n      dup3\n      add\n      dup1\n      0x40\n      mstore\n      pop\n      dup2\n      add\n      swap1\n      tag_73\n      swap2\n      swap1\n      tag_43\n      jump\t// in\n    tag_73:\n        /* \"contracts/Utils.sol\":15234:15262  lpAddress.token0().balanceOf */\n      0xffffffffffffffffffffffffffffffffffffffff\n      and\n      0x70a08231\n        /* \"contracts/Utils.sol\":15271:15280  lpAddress */\n      dup9\n        /* \"contracts/Utils.sol\":15234:15282  lpAddress.token0().balanceOf(address(lpAddress)) */\n      mload(0x40)\n      dup3\n      0xffffffff\n      and\n      0xe0\n      shl\n      dup2\n      mstore\n      0x04\n      add\n      tag_74\n      swap2\n      swap1\n      tag_21\n      jump\t// in\n    tag_74:\n      0x20\n      mload(0x40)\n      dup1\n      dup4\n      sub\n      dup2\n      dup7\n      dup1\n      extcodesize\n      iszero\n      dup1\n      iszero\n      tag_75\n      jumpi\n      0x00\n      dup1\n      revert\n    tag_75:\n      pop\n      gas\n      staticcall\n      iszero\n      dup1\n      iszero\n      tag_77\n      jumpi\n      returndatasize\n      0x00\n      dup1\n      returndatacopy\n      revert(0x00, returndatasize)\n    tag_77:\n      pop\n      pop\n      pop\n      pop\n      mload(0x40)\n      returndatasize\n      not(0x1f)\n      0x1f\n      dup3\n      add\n      and\n      dup3\n      add\n      dup1\n      0x40\n      mstore\n      pop\n      dup2\n      add\n      swap1\n      tag_78\n      swap2\n      swap1\n      tag_30\n      jump\t// in\n    tag_78:\n        /* \"contracts/Utils.sol\":15234:15286  lpAddress.token0().balanceOf(address(lpAddress)).mul */\n      tag_61\n      swap1\n        /* \"contracts/Utils.sol\":15234:15340  lpAddress.token0().balanceOf(address(lpAddress)).mul(WBNBPrice(routerAddress,address(lpAddress.token0()))) */\n      swap2\n      swap1\n      0xffffffff\n      and\n      jump\t// in\n    tag_63:\n        /* \"contracts/Utils.sol\":15224:15341  phase1 = (lpAddress.token0().balanceOf(address(lpAddress)).mul(WBNBPrice(routerAddress,address(lpAddress.token0())))) */\n      swap2\n      pop\n        /* \"contracts/Utils.sol\":15012:15353  if(address(WBNB) != address(lpAddress.token0())){\r... */\n    tag_62:\n        /* \"contracts/Utils.sol\":15393:15402  lpAddress */\n      dup5\n        /* \"contracts/Utils.sol\":15393:15409  lpAddress.token1 */\n      0xffffffffffffffffffffffffffffffffffffffff\n      and\n      0xd21220a7\n        /* \"contracts/Utils.sol\":15393:15411  lpAddress.token1() */\n      mload(0x40)\n      dup2\n      0xffffffff\n      and\n      0xe0\n      shl\n      dup2\n      mstore\n      0x04\n      add\n      0x20\n      mload(0x40)\n      dup1\n      dup4\n      sub\n      dup2\n      dup7\n      dup1\n      extcodesize\n      iszero\n      dup1\n      iszero\n      tag_79\n      jumpi\n      0x00\n      dup1\n      revert\n    tag_79:\n      pop\n      gas\n      staticcall\n      iszero\n      dup1\n      iszero\n      tag_81\n      jumpi\n      returndatasize\n      0x00\n      dup1\n      returndatacopy\n      revert(0x00, returndatasize)\n    tag_81:\n      pop\n      pop\n      pop\n      pop\n      mload(0x40)\n      returndatasize\n      not(0x1f)\n      0x1f\n      dup3\n      add\n      and\n      dup3\n      add\n      dup1\n      0x40\n      mstore\n      pop\n      dup2\n      add\n      swap1\n      tag_82\n      swap2\n      swap1\n      tag_43\n      jump\t// in\n    tag_82:\n        /* \"contracts/Utils.sol\":15368:15412  address(WBNB) != address(lpAddress.token1()) */\n      0xffffffffffffffffffffffffffffffffffffffff\n      and\n        /* \"contracts/Utils.sol\":15376:15380  WBNB */\n      0x00\n      dup1\n      sload\n      swap1\n      0x0100\n      exp\n      swap1\n      div\n      0xffffffffffffffffffffffffffffffffffffffff\n      and\n        /* \"contracts/Utils.sol\":15368:15412  address(WBNB) != address(lpAddress.token1()) */\n      0xffffffffffffffffffffffffffffffffffffffff\n      and\n      eq\n        /* \"contracts/Utils.sol\":15365:15706  if(address(WBNB) != address(lpAddress.token1())){\r... */\n      tag_83\n      jumpi\n        /* \"contracts/Utils.sol\":15438:15545  lpAddress.token1().balanceOf(address(lpAddress)).mul(Tokenprice(routerAddress,address(lpAddress.token1()))) */\n      tag_84\n        /* \"contracts/Utils.sol\":15491:15544  Tokenprice(routerAddress,address(lpAddress.token1())) */\n      tag_85\n        /* \"contracts/Utils.sol\":15502:15515  routerAddress */\n      dup6\n        /* \"contracts/Utils.sol\":15524:15533  lpAddress */\n      dup8\n        /* \"contracts/Utils.sol\":15524:15540  lpAddress.token1 */\n      0xffffffffffffffffffffffffffffffffffffffff\n      and\n      0xd21220a7\n        /* \"contracts/Utils.sol\":15524:15542  lpAddress.token1() */\n      mload(0x40)\n      dup2\n      0xffffffff\n      and\n      0xe0\n      shl\n      dup2\n      mstore\n      0x04\n      add\n      0x20\n      mload(0x40)\n      dup1\n      dup4\n      sub\n      dup2\n      dup7\n      dup1\n      extcodesize\n      iszero\n      dup1\n      iszero\n      tag_86\n      jumpi\n      0x00\n      dup1\n      revert\n    tag_86:\n      pop\n      gas\n      staticcall\n      iszero\n      dup1\n      iszero\n      tag_88\n      jumpi\n      returndatasize\n      0x00\n      dup1\n      returndatacopy\n      revert(0x00, returndatasize)\n    tag_88:\n      pop\n      pop\n      pop\n      pop\n      mload(0x40)\n      returndatasize\n      not(0x1f)\n      0x1f\n      dup3\n      add\n      and\n      dup3\n      add\n      dup1\n      0x40\n      mstore\n      pop\n      dup2\n      add\n      swap1\n      tag_89\n      swap2\n      swap1\n      tag_43\n      jump\t// in\n    tag_89:\n        /* \"contracts/Utils.sol\":15491:15501  Tokenprice */\n      tag_51\n        /* \"contracts/Utils.sol\":15491:15544  Tokenprice(routerAddress,address(lpAddress.token1())) */\n      jump\t// in\n    tag_85:\n        /* \"contracts/Utils.sol\":15438:15447  lpAddress */\n      dup7\n        /* \"contracts/Utils.sol\":15438:15454  lpAddress.token1 */\n      0xffffffffffffffffffffffffffffffffffffffff\n      and\n      0xd21220a7\n        /* \"contracts/Utils.sol\":15438:15456  lpAddress.token1() */\n      mload(0x40)\n      dup2\n      0xffffffff\n      and\n      0xe0\n      shl\n      dup2\n      mstore\n      0x04\n      add\n      0x20\n      mload(0x40)\n      dup1\n      dup4\n      sub\n      dup2\n      dup7\n      dup1\n      extcodesize\n      iszero\n      dup1\n      iszero\n      tag_90\n      jumpi\n      0x00\n      dup1\n      revert\n    tag_90:\n      pop\n      gas\n      staticcall\n      iszero\n      dup1\n      iszero\n      tag_92\n      jumpi\n      returndatasize\n      0x00\n      dup1\n      returndatacopy\n      revert(0x00, returndatasize)\n    tag_92:\n      pop\n      pop\n      pop\n      pop\n      mload(0x40)\n      returndatasize\n      not(0x1f)\n      0x1f\n      dup3\n      add\n      and\n      dup3\n      add\n      dup1\n      0x40\n      mstore\n      pop\n      dup2\n      add\n      swap1\n      tag_93\n      swap2\n      swap1\n      tag_43\n      jump\t// in\n    tag_93:\n        /* \"contracts/Utils.sol\":15438:15466  lpAddress.token1().balanceOf */\n      0xffffffffffffffffffffffffffffffffffffffff\n      and\n      0x70a08231\n        /* \"contracts/Utils.sol\":15475:15484  lpAddress */\n      dup9\n        /* \"contracts/Utils.sol\":15438:15486  lpAddress.token1().balanceOf(address(lpAddress)) */\n      mload(0x40)\n      dup3\n      0xffffffff\n      and\n      0xe0\n      shl\n      dup2\n      mstore\n      0x04\n      add\n      tag_94\n      swap2\n      swap1\n      tag_21\n      jump\t// in\n    tag_94:\n      0x20\n      mload(0x40)\n      dup1\n      dup4\n      sub\n      dup2\n      dup7\n      dup1\n      extcodesize\n      iszero\n      dup1\n      iszero\n      tag_95\n      jumpi\n      0x00\n      dup1\n      revert\n    tag_95:\n      pop\n      gas\n      staticcall\n      iszero\n      dup1\n      iszero\n      tag_97\n      jumpi\n      returndatasize\n      0x00\n      dup1\n      returndatacopy\n      revert(0x00, returndatasize)\n    tag_97:\n      pop\n      pop\n      pop\n      pop\n      mload(0x40)\n      returndatasize\n      not(0x1f)\n      0x1f\n      dup3\n      add\n      and\n      dup3\n      add\n      dup1\n      0x40\n      mstore\n      pop\n      dup2\n      add\n      swap1\n      tag_98\n      swap2\n      swap1\n      tag_30\n      jump\t// in\n    tag_98:\n        /* \"contracts/Utils.sol\":15438:15490  lpAddress.token1().balanceOf(address(lpAddress)).mul */\n      tag_61\n      swap1\n        /* \"contracts/Utils.sol\":15438:15545  lpAddress.token1().balanceOf(address(lpAddress)).mul(Tokenprice(routerAddress,address(lpAddress.token1()))) */\n      swap2\n      swap1\n      0xffffffff\n      and\n      jump\t// in\n    tag_84:\n        /* \"contracts/Utils.sol\":15428:15546  phase2 = (lpAddress.token1().balanceOf(address(lpAddress)).mul(Tokenprice(routerAddress,address(lpAddress.token1())))) */\n      swap1\n      pop\n        /* \"contracts/Utils.sol\":15365:15706  if(address(WBNB) != address(lpAddress.token1())){\r... */\n      jump(tag_99)\n    tag_83:\n        /* \"contracts/Utils.sol\":15587:15693  lpAddress.token1().balanceOf(address(lpAddress)).mul(WBNBPrice(routerAddress,address(lpAddress.token1()))) */\n      tag_100\n        /* \"contracts/Utils.sol\":15640:15692  WBNBPrice(routerAddress,address(lpAddress.token1())) */\n      tag_101\n        /* \"contracts/Utils.sol\":15650:15663  routerAddress */\n      dup6\n        /* \"contracts/Utils.sol\":15672:15681  lpAddress */\n      dup8\n        /* \"contracts/Utils.sol\":15672:15688  lpAddress.token1 */\n      0xffffffffffffffffffffffffffffffffffffffff\n      and\n      0xd21220a7\n        /* \"contracts/Utils.sol\":15672:15690  lpAddress.token1() */\n      mload(0x40)\n      dup2\n      0xffffffff\n      and\n      0xe0\n      shl\n      dup2\n      mstore\n      0x04\n      add\n      0x20\n      mload(0x40)\n      dup1\n      dup4\n      sub\n      dup2\n      dup7\n      dup1\n      extcodesize\n      iszero\n      dup1\n      iszero\n      tag_102\n      jumpi\n      0x00\n      dup1\n      revert\n    tag_102:\n      pop\n      gas\n      staticcall\n      iszero\n      dup1\n      iszero\n      tag_104\n      jumpi\n      returndatasize\n      0x00\n      dup1\n      returndatacopy\n      revert(0x00, returndatasize)\n    tag_104:\n      pop\n      pop\n      pop\n      pop\n      mload(0x40)\n      returndatasize\n      not(0x1f)\n      0x1f\n      dup3\n      add\n      and\n      dup3\n      add\n      dup1\n      0x40\n      mstore\n      pop\n      dup2\n      add\n      swap1\n      tag_105\n      swap2\n      swap1\n      tag_43\n      jump\t// in\n    tag_105:\n        /* \"contracts/Utils.sol\":15640:15649  WBNBPrice */\n      tag_69\n        /* \"contracts/Utils.sol\":15640:15692  WBNBPrice(routerAddress,address(lpAddress.token1())) */\n      jump\t// in\n    tag_101:\n        /* \"contracts/Utils.sol\":15587:15596  lpAddress */\n      dup7\n        /* \"contracts/Utils.sol\":15587:15603  lpAddress.token1 */\n      0xffffffffffffffffffffffffffffffffffffffff\n      and\n      0xd21220a7\n        /* \"contracts/Utils.sol\":15587:15605  lpAddress.token1() */\n      mload(0x40)\n      dup2\n      0xffffffff\n      and\n      0xe0\n      shl\n      dup2\n      mstore\n      0x04\n      add\n      0x20\n      mload(0x40)\n      dup1\n      dup4\n      sub\n      dup2\n      dup7\n      dup1\n      extcodesize\n      iszero\n      dup1\n      iszero\n      tag_106\n      jumpi\n      0x00\n      dup1\n      revert\n    tag_106:\n      pop\n      gas\n      staticcall\n      iszero\n      dup1\n      iszero\n      tag_108\n      jumpi\n      returndatasize\n      0x00\n      dup1\n      returndatacopy\n      revert(0x00, returndatasize)\n    tag_108:\n      pop\n      pop\n      pop\n      pop\n      mload(0x40)\n      returndatasize\n      not(0x1f)\n      0x1f\n      dup3\n      add\n      and\n      dup3\n      add\n      dup1\n      0x40\n      mstore\n      pop\n      dup2\n      add\n      swap1\n      tag_109\n      swap2\n      swap1\n      tag_43\n      jump\t// in\n    tag_109:\n        /* \"contracts/Utils.sol\":15587:15615  lpAddress.token1().balanceOf */\n      0xffffffffffffffffffffffffffffffffffffffff\n      and\n      0x70a08231\n        /* \"contracts/Utils.sol\":15624:15633  lpAddress */\n      dup9\n        /* \"contracts/Utils.sol\":15587:15635  lpAddress.token1().balanceOf(address(lpAddress)) */\n      mload(0x40)\n      dup3\n      0xffffffff\n      and\n      0xe0\n      shl\n      dup2\n      mstore\n      0x04\n      add\n      tag_110\n      swap2\n      swap1\n      tag_21\n      jump\t// in\n    tag_110:\n      0x20\n      mload(0x40)\n      dup1\n      dup4\n      sub\n      dup2\n      dup7\n      dup1\n      extcodesize\n      iszero\n      dup1\n      iszero\n      tag_111\n      jumpi\n      0x00\n      dup1\n      revert\n    tag_111:\n      pop\n      gas\n      staticcall\n      iszero\n      dup1\n      iszero\n      tag_113\n      jumpi\n      returndatasize\n      0x00\n      dup1\n      returndatacopy\n      revert(0x00, returndatasize)\n    tag_113:\n      pop\n      pop\n      pop\n      pop\n      mload(0x40)\n      returndatasize\n      not(0x1f)\n      0x1f\n      dup3\n      add\n      and\n      dup3\n      add\n      dup1\n      0x40\n      mstore\n      pop\n      dup2\n      add\n      swap1\n      tag_114\n      swap2\n      swap1\n      tag_30\n      jump\t// in\n    tag_114:\n        /* \"contracts/Utils.sol\":15587:15639  lpAddress.token1().balanceOf(address(lpAddress)).mul */\n      tag_61\n      swap1\n        /* \"contracts/Utils.sol\":15587:15693  lpAddress.token1().balanceOf(address(lpAddress)).mul(WBNBPrice(routerAddress,address(lpAddress.token1()))) */\n      swap2\n      swap1\n      0xffffffff\n      and\n      jump\t// in\n    tag_100:\n        /* \"contracts/Utils.sol\":15577:15694  phase2 = (lpAddress.token1().balanceOf(address(lpAddress)).mul(WBNBPrice(routerAddress,address(lpAddress.token1())))) */\n      swap1\n      pop\n        /* \"contracts/Utils.sol\":15365:15706  if(address(WBNB) != address(lpAddress.token1())){\r... */\n    tag_99:\n        /* \"contracts/Utils.sol\":15734:15783  (phase1.add(phase2)).div(lpAddress.totalSupply()) */\n      tag_115\n        /* \"contracts/Utils.sol\":15759:15768  lpAddress */\n      dup6\n        /* \"contracts/Utils.sol\":15759:15780  lpAddress.totalSupply */\n      0xffffffffffffffffffffffffffffffffffffffff\n      and\n      0x18160ddd\n        /* \"contracts/Utils.sol\":15759:15782  lpAddress.totalSupply() */\n      mload(0x40)\n      dup2\n      0xffffffff\n      and\n      0xe0\n      shl\n      dup2\n      mstore\n      0x04\n      add\n      0x20\n      mload(0x40)\n      dup1\n      dup4\n      sub\n      dup2\n      dup7\n      dup1\n      extcodesize\n      iszero\n      dup1\n      iszero\n      tag_116\n      jumpi\n      0x00\n      dup1\n      revert\n    tag_116:\n      pop\n      gas\n      staticcall\n      iszero\n      dup1\n      iszero\n      tag_118\n      jumpi\n      returndatasize\n      0x00\n      dup1\n      returndatacopy\n      revert(0x00, returndatasize)\n    tag_118:\n      pop\n      pop\n      pop\n      pop\n      mload(0x40)\n      returndatasize\n      not(0x1f)\n      0x1f\n      dup3\n      add\n      and\n      dup3\n      add\n      dup1\n      0x40\n      mstore\n      pop\n      dup2\n      add\n      swap1\n      tag_119\n      swap2\n      swap1\n      tag_30\n      jump\t// in\n    tag_119:\n        /* \"contracts/Utils.sol\":15735:15753  phase1.add(phase2) */\n      tag_120\n        /* \"contracts/Utils.sol\":15746:15752  phase2 */\n      dup4\n        /* \"contracts/Utils.sol\":15735:15741  phase1 */\n      dup6\n        /* \"contracts/Utils.sol\":15735:15745  phase1.add */\n      tag_121\n      swap1\n        /* \"contracts/Utils.sol\":15735:15753  phase1.add(phase2) */\n      swap2\n      swap1\n      0xffffffff\n      and\n      jump\t// in\n    tag_120:\n        /* \"contracts/Utils.sol\":15734:15758  (phase1.add(phase2)).div */\n      tag_122\n      swap1\n        /* \"contracts/Utils.sol\":15734:15783  (phase1.add(phase2)).div(lpAddress.totalSupply()) */\n      swap2\n      swap1\n      0xffffffff\n      and\n      jump\t// in\n    tag_115:\n        /* \"contracts/Utils.sol\":15726:15784  return ((phase1.add(phase2)).div(lpAddress.totalSupply())) */\n      swap3\n      pop\n      pop\n      pop\n        /* \"contracts/Utils.sol\":14864:15792  function CalcLpPrice(LP lpAddress, Router routerAddress) external view returns(uint256){\r... */\n      swap3\n      swap2\n      pop\n      pop\n      jump\t// out\n        /* \"contracts/Utils.sol\":14131:14195  address public BUSD = 0x78867BbEeF44f2326bF8DDd1941a4439382EF2A7 */\n    tag_19:\n      0x01\n      0x00\n      swap1\n      sload\n      swap1\n      0x0100\n      exp\n      swap1\n      div\n      0xffffffffffffffffffffffffffffffffffffffff\n      and\n      dup2\n      jump\t// out\n        /* \"contracts/Utils.sol\":14060:14124  address public WBNB = 0xae13d989daC2f0dEbFf460aC112a837C89BAa7cd */\n    tag_23:\n      0x00\n      dup1\n      sload\n      swap1\n      0x0100\n      exp\n      swap1\n      div\n      0xffffffffffffffffffffffffffffffffffffffff\n      and\n      dup2\n      jump\t// out\n        /* \"contracts/Utils.sol\":14308:14591  function Tokenprice(Router routerAddress, address token) internal view returns(uint256){\r... */\n    tag_51:\n        /* \"contracts/Utils.sol\":14387:14394  uint256 */\n      0x00\n        /* \"contracts/Utils.sol\":14406:14427  address[] memory path */\n      dup1\n        /* \"contracts/Utils.sol\":14444:14445  3 */\n      0x03\n        /* \"contracts/Utils.sol\":14430:14446  new address[](3) */\n      0xffffffffffffffff\n      dup2\n      gt\n      iszero\n      tag_124\n      jumpi\n      tag_125\n      tag_126\n      jump\t// in\n    tag_125:\n    tag_124:\n      mload(0x40)\n      swap1\n      dup1\n      dup3\n      mstore\n      dup1\n      0x20\n      mul\n      0x20\n      add\n      dup3\n      add\n      0x40\n      mstore\n      dup1\n      iszero\n      tag_127\n      jumpi\n      dup2\n      0x20\n      add\n      0x20\n      dup3\n      mul\n      dup1\n      calldatasize\n      dup4\n      calldatacopy\n      dup1\n      dup3\n      add\n      swap2\n      pop\n      pop\n      swap1\n      pop\n    tag_127:\n      pop\n        /* \"contracts/Utils.sol\":14406:14446  address[] memory path = new address[](3) */\n      swap1\n      pop\n        /* \"contracts/Utils.sol\":14467:14472  token */\n      dup3\n        /* \"contracts/Utils.sol\":14457:14461  path */\n      dup2\n        /* \"contracts/Utils.sol\":14462:14463  0 */\n      0x00\n        /* \"contracts/Utils.sol\":14457:14464  path[0] */\n      dup2\n      mload\n      dup2\n      lt\n      tag_128\n      jumpi\n      tag_129\n      tag_130\n      jump\t// in\n    tag_129:\n    tag_128:\n      0x20\n      mul\n      0x20\n      add\n      add\n        /* \"contracts/Utils.sol\":14457:14472  path[0] = token */\n      swap1\n      0xffffffffffffffffffffffffffffffffffffffff\n      and\n      swap1\n      dup2\n      0xffffffffffffffffffffffffffffffffffffffff\n      and\n      dup2\n      mstore\n      pop\n      pop\n        /* \"contracts/Utils.sol\":14493:14497  WBNB */\n      0x00\n      dup1\n      sload\n      swap1\n      0x0100\n      exp\n      swap1\n      div\n      0xffffffffffffffffffffffffffffffffffffffff\n      and\n        /* \"contracts/Utils.sol\":14483:14487  path */\n      dup2\n        /* \"contracts/Utils.sol\":14488:14489  1 */\n      0x01\n        /* \"contracts/Utils.sol\":14483:14490  path[1] */\n      dup2\n      mload\n      dup2\n      lt\n      tag_131\n      jumpi\n      tag_132\n      tag_130\n      jump\t// in\n    tag_132:\n    tag_131:\n      0x20\n      mul\n      0x20\n      add\n      add\n        /* \"contracts/Utils.sol\":14483:14497  path[1] = WBNB */\n      swap1\n      0xffffffffffffffffffffffffffffffffffffffff\n      and\n      swap1\n      dup2\n      0xffffffffffffffffffffffffffffffffffffffff\n      and\n      dup2\n      mstore\n      pop\n      pop\n        /* \"contracts/Utils.sol\":14518:14522  BUSD */\n      0x01\n      0x00\n      swap1\n      sload\n      swap1\n      0x0100\n      exp\n      swap1\n      div\n      0xffffffffffffffffffffffffffffffffffffffff\n      and\n        /* \"contracts/Utils.sol\":14508:14512  path */\n      dup2\n        /* \"contracts/Utils.sol\":14513:14514  2 */\n      0x02\n        /* \"contracts/Utils.sol\":14508:14515  path[2] */\n      dup2\n      mload\n      dup2\n      lt\n      tag_133\n      jumpi\n      tag_134\n      tag_130\n      jump\t// in\n    tag_134:\n    tag_133:\n      0x20\n      mul\n      0x20\n      add\n      add\n        /* \"contracts/Utils.sol\":14508:14522  path[2] = BUSD */\n      swap1\n      0xffffffffffffffffffffffffffffffffffffffff\n      and\n      swap1\n      dup2\n      0xffffffffffffffffffffffffffffffffffffffff\n      and\n      dup2\n      mstore\n      pop\n      pop\n        /* \"contracts/Utils.sol\":14540:14553  routerAddress */\n      dup4\n        /* \"contracts/Utils.sol\":14540:14567  routerAddress.getAmountsOut */\n      0xffffffffffffffffffffffffffffffffffffffff\n      and\n      0xd06ca61f\n        /* \"contracts/Utils.sol\":14568:14574  amount */\n      sload(0x02)\n        /* \"contracts/Utils.sol\":14575:14579  path */\n      dup4\n        /* \"contracts/Utils.sol\":14540:14580  routerAddress.getAmountsOut(amount,path) */\n      mload(0x40)\n      dup4\n      0xffffffff\n      and\n      0xe0\n      shl\n      dup2\n      mstore\n      0x04\n      add\n      tag_135\n      swap3\n      swap2\n      swap1\n      tag_136\n      jump\t// in\n    tag_135:\n      0x00\n      mload(0x40)\n      dup1\n      dup4\n      sub\n      dup2\n      dup7\n      dup1\n      extcodesize\n      iszero\n      dup1\n      iszero\n      tag_137\n      jumpi\n      0x00\n      dup1\n      revert\n    tag_137:\n      pop\n      gas\n      staticcall\n      iszero\n      dup1\n      iszero\n      tag_139\n      jumpi\n      returndatasize\n      0x00\n      dup1\n      returndatacopy\n      revert(0x00, returndatasize)\n    tag_139:\n      pop\n      pop\n      pop\n      pop\n      mload(0x40)\n      returndatasize\n      0x00\n      dup3\n      returndatacopy\n      returndatasize\n      not(0x1f)\n      0x1f\n      dup3\n      add\n      and\n      dup3\n      add\n      dup1\n      0x40\n      mstore\n      pop\n      dup2\n      add\n      swap1\n      tag_140\n      swap2\n      swap1\n      tag_141\n      jump\t// in\n    tag_140:\n        /* \"contracts/Utils.sol\":14581:14582  2 */\n      0x02\n        /* \"contracts/Utils.sol\":14540:14583  routerAddress.getAmountsOut(amount,path)[2] */\n      dup2\n      mload\n      dup2\n      lt\n      tag_142\n      jumpi\n      tag_143\n      tag_130\n      jump\t// in\n    tag_143:\n    tag_142:\n      0x20\n      mul\n      0x20\n      add\n      add\n      mload\n        /* \"contracts/Utils.sol\":14533:14583  return routerAddress.getAmountsOut(amount,path)[2] */\n      swap2\n      pop\n      pop\n        /* \"contracts/Utils.sol\":14308:14591  function Tokenprice(Router routerAddress, address token) internal view returns(uint256){\r... */\n      swap3\n      swap2\n      pop\n      pop\n      jump\t// out\n        /* \"contracts/Utils.sol\":9965:10436  function mul(uint256 a, uint256 b) internal pure returns (uint256) {\r... */\n    tag_61:\n        /* \"contracts/Utils.sol\":10023:10030  uint256 */\n      0x00\n        /* \"contracts/Utils.sol\":10273:10274  0 */\n      dup1\n        /* \"contracts/Utils.sol\":10268:10269  a */\n      dup4\n        /* \"contracts/Utils.sol\":10268:10274  a == 0 */\n      eq\n        /* \"contracts/Utils.sol\":10264:10311  if (a == 0) {\r... */\n      iszero\n      tag_145\n      jumpi\n        /* \"contracts/Utils.sol\":10298:10299  0 */\n      0x00\n        /* \"contracts/Utils.sol\":10291:10299  return 0 */\n      swap1\n      pop\n      jump(tag_144)\n        /* \"contracts/Utils.sol\":10264:10311  if (a == 0) {\r... */\n    tag_145:\n        /* \"contracts/Utils.sol\":10323:10332  uint256 c */\n      0x00\n        /* \"contracts/Utils.sol\":10339:10340  b */\n      dup3\n        /* \"contracts/Utils.sol\":10335:10336  a */\n      dup5\n        /* \"contracts/Utils.sol\":10335:10340  a * b */\n      tag_146\n      swap2\n      swap1\n      tag_37\n      jump\t// in\n    tag_146:\n        /* \"contracts/Utils.sol\":10323:10340  uint256 c = a * b */\n      swap1\n      pop\n        /* \"contracts/Utils.sol\":10368:10369  b */\n      dup3\n        /* \"contracts/Utils.sol\":10363:10364  a */\n      dup5\n        /* \"contracts/Utils.sol\":10359:10360  c */\n      dup3\n        /* \"contracts/Utils.sol\":10359:10364  c / a */\n      tag_147\n      swap2\n      swap1\n      tag_148\n      jump\t// in\n    tag_147:\n        /* \"contracts/Utils.sol\":10359:10369  c / a == b */\n      eq\n        /* \"contracts/Utils.sol\":10351:10407  require(c / a == b, \"SafeMath: multiplication overflow\") */\n      tag_149\n      jumpi\n      mload(0x40)\n      0x08c379a000000000000000000000000000000000000000000000000000000000\n      dup2\n      mstore\n      0x04\n      add\n      tag_150\n      swap1\n      tag_151\n      jump\t// in\n    tag_150:\n      mload(0x40)\n      dup1\n      swap2\n      sub\n      swap1\n      revert\n    tag_149:\n        /* \"contracts/Utils.sol\":10427:10428  c */\n      dup1\n        /* \"contracts/Utils.sol\":10420:10428  return c */\n      swap2\n      pop\n      pop\n        /* \"contracts/Utils.sol\":9965:10436  function mul(uint256 a, uint256 b) internal pure returns (uint256) {\r... */\n    tag_144:\n      swap3\n      swap2\n      pop\n      pop\n      jump\t// out\n        /* \"contracts/Utils.sol\":14599:14856  function WBNBPrice(Router routerAddress, address token) internal view returns(uint256){\r... */\n    tag_69:\n        /* \"contracts/Utils.sol\":14677:14684  uint256 */\n      0x00\n        /* \"contracts/Utils.sol\":14696:14717  address[] memory path */\n      dup1\n        /* \"contracts/Utils.sol\":14734:14735  2 */\n      0x02\n        /* \"contracts/Utils.sol\":14720:14736  new address[](2) */\n      0xffffffffffffffff\n      dup2\n      gt\n      iszero\n      tag_153\n      jumpi\n      tag_154\n      tag_126\n      jump\t// in\n    tag_154:\n    tag_153:\n      mload(0x40)\n      swap1\n      dup1\n      dup3\n      mstore\n      dup1\n      0x20\n      mul\n      0x20\n      add\n      dup3\n      add\n      0x40\n      mstore\n      dup1\n      iszero\n      tag_155\n      jumpi\n      dup2\n      0x20\n      add\n      0x20\n      dup3\n      mul\n      dup1\n      calldatasize\n      dup4\n      calldatacopy\n      dup1\n      dup3\n      add\n      swap2\n      pop\n      pop\n      swap1\n      pop\n    tag_155:\n      pop\n        /* \"contracts/Utils.sol\":14696:14736  address[] memory path = new address[](2) */\n      swap1\n      pop\n        /* \"contracts/Utils.sol\":14757:14762  token */\n      dup3\n        /* \"contracts/Utils.sol\":14747:14751  path */\n      dup2\n        /* \"contracts/Utils.sol\":14752:14753  0 */\n      0x00\n        /* \"contracts/Utils.sol\":14747:14754  path[0] */\n      dup2\n      mload\n      dup2\n      lt\n      tag_156\n      jumpi\n      tag_157\n      tag_130\n      jump\t// in\n    tag_157:\n    tag_156:\n      0x20\n      mul\n      0x20\n      add\n      add\n        /* \"contracts/Utils.sol\":14747:14762  path[0] = token */\n      swap1\n      0xffffffffffffffffffffffffffffffffffffffff\n      and\n      swap1\n      dup2\n      0xffffffffffffffffffffffffffffffffffffffff\n      and\n      dup2\n      mstore\n      pop\n      pop\n        /* \"contracts/Utils.sol\":14783:14787  BUSD */\n      0x01\n      0x00\n      swap1\n      sload\n      swap1\n      0x0100\n      exp\n      swap1\n      div\n      0xffffffffffffffffffffffffffffffffffffffff\n      and\n        /* \"contracts/Utils.sol\":14773:14777  path */\n      dup2\n        /* \"contracts/Utils.sol\":14778:14779  1 */\n      0x01\n        /* \"contracts/Utils.sol\":14773:14780  path[1] */\n      dup2\n      mload\n      dup2\n      lt\n      tag_158\n      jumpi\n      tag_159\n      tag_130\n      jump\t// in\n    tag_159:\n    tag_158:\n      0x20\n      mul\n      0x20\n      add\n      add\n        /* \"contracts/Utils.sol\":14773:14787  path[1] = BUSD */\n      swap1\n      0xffffffffffffffffffffffffffffffffffffffff\n      and\n      swap1\n      dup2\n      0xffffffffffffffffffffffffffffffffffffffff\n      and\n      dup2\n      mstore\n      pop\n      pop\n        /* \"contracts/Utils.sol\":14805:14818  routerAddress */\n      dup4\n        /* \"contracts/Utils.sol\":14805:14832  routerAddress.getAmountsOut */\n      0xffffffffffffffffffffffffffffffffffffffff\n      and\n      0xd06ca61f\n        /* \"contracts/Utils.sol\":14833:14839  amount */\n      sload(0x02)\n        /* \"contracts/Utils.sol\":14840:14844  path */\n      dup4\n        /* \"contracts/Utils.sol\":14805:14845  routerAddress.getAmountsOut(amount,path) */\n      mload(0x40)\n      dup4\n      0xffffffff\n      and\n      0xe0\n      shl\n      dup2\n      mstore\n      0x04\n      add\n      tag_160\n      swap3\n      swap2\n      swap1\n      tag_136\n      jump\t// in\n    tag_160:\n      0x00\n      mload(0x40)\n      dup1\n      dup4\n      sub\n      dup2\n      dup7\n      dup1\n      extcodesize\n      iszero\n      dup1\n      iszero\n      tag_161\n      jumpi\n      0x00\n      dup1\n      revert\n    tag_161:\n      pop\n      gas\n      staticcall\n      iszero\n      dup1\n      iszero\n      tag_163\n      jumpi\n      returndatasize\n      0x00\n      dup1\n      returndatacopy\n      revert(0x00, returndatasize)\n    tag_163:\n      pop\n      pop\n      pop\n      pop\n      mload(0x40)\n      returndatasize\n      0x00\n      dup3\n      returndatacopy\n      returndatasize\n      not(0x1f)\n      0x1f\n      dup3\n      add\n      and\n      dup3\n      add\n      dup1\n      0x40\n      mstore\n      pop\n      dup2\n      add\n      swap1\n      tag_164\n      swap2\n      swap1\n      tag_141\n      jump\t// in\n    tag_164:\n        /* \"contracts/Utils.sol\":14846:14847  1 */\n      0x01\n        /* \"contracts/Utils.sol\":14805:14848  routerAddress.getAmountsOut(amount,path)[1] */\n      dup2\n      mload\n      dup2\n      lt\n      tag_165\n      jumpi\n      tag_166\n      tag_130\n      jump\t// in\n    tag_166:\n    tag_165:\n      0x20\n      mul\n      0x20\n      add\n      add\n      mload\n        /* \"contracts/Utils.sol\":14798:14848  return routerAddress.getAmountsOut(amount,path)[1] */\n      swap2\n      pop\n      pop\n        /* \"contracts/Utils.sol\":14599:14856  function WBNBPrice(Router routerAddress, address token) internal view returns(uint256){\r... */\n      swap3\n      swap2\n      pop\n      pop\n      jump\t// out\n        /* \"contracts/Utils.sol\":8593:8774  function add(uint256 a, uint256 b) internal pure returns (uint256) {\r... */\n    tag_121:\n        /* \"contracts/Utils.sol\":8651:8658  uint256 */\n      0x00\n        /* \"contracts/Utils.sol\":8671:8680  uint256 c */\n      dup1\n        /* \"contracts/Utils.sol\":8687:8688  b */\n      dup3\n        /* \"contracts/Utils.sol\":8683:8684  a */\n      dup5\n        /* \"contracts/Utils.sol\":8683:8688  a + b */\n      tag_168\n      swap2\n      swap1\n      tag_169\n      jump\t// in\n    tag_168:\n        /* \"contracts/Utils.sol\":8671:8688  uint256 c = a + b */\n      swap1\n      pop\n        /* \"contracts/Utils.sol\":8712:8713  a */\n      dup4\n        /* \"contracts/Utils.sol\":8707:8708  c */\n      dup2\n        /* \"contracts/Utils.sol\":8707:8713  c >= a */\n      lt\n      iszero\n        /* \"contracts/Utils.sol\":8699:8745  require(c >= a, \"SafeMath: addition overflow\") */\n      tag_170\n      jumpi\n      mload(0x40)\n      0x08c379a000000000000000000000000000000000000000000000000000000000\n      dup2\n      mstore\n      0x04\n      add\n      tag_171\n      swap1\n      tag_172\n      jump\t// in\n    tag_171:\n      mload(0x40)\n      dup1\n      swap2\n      sub\n      swap1\n      revert\n    tag_170:\n        /* \"contracts/Utils.sol\":8765:8766  c */\n      dup1\n        /* \"contracts/Utils.sol\":8758:8766  return c */\n      swap2\n      pop\n      pop\n        /* \"contracts/Utils.sol\":8593:8774  function add(uint256 a, uint256 b) internal pure returns (uint256) {\r... */\n      swap3\n      swap2\n      pop\n      pop\n      jump\t// out\n        /* \"contracts/Utils.sol\":10904:11036  function div(uint256 a, uint256 b) internal pure returns (uint256) {\r... */\n    tag_122:\n        /* \"contracts/Utils.sol\":10962:10969  uint256 */\n      0x00\n        /* \"contracts/Utils.sol\":10989:11028  div(a, b, \"SafeMath: division by zero\") */\n      tag_174\n        /* \"contracts/Utils.sol\":10993:10994  a */\n      dup4\n        /* \"contracts/Utils.sol\":10996:10997  b */\n      dup4\n        /* \"contracts/Utils.sol\":10989:11028  div(a, b, \"SafeMath: division by zero\") */\n      mload(0x40)\n      dup1\n      0x40\n      add\n      0x40\n      mstore\n      dup1\n      0x1a\n      dup2\n      mstore\n      0x20\n      add\n      0x536166654d6174683a206469766973696f6e206279207a65726f000000000000\n      dup2\n      mstore\n      pop\n        /* \"contracts/Utils.sol\":10989:10992  div */\n      tag_175\n        /* \"contracts/Utils.sol\":10989:11028  div(a, b, \"SafeMath: division by zero\") */\n      jump\t// in\n    tag_174:\n        /* \"contracts/Utils.sol\":10982:11028  return div(a, b, \"SafeMath: division by zero\") */\n      swap1\n      pop\n        /* \"contracts/Utils.sol\":10904:11036  function div(uint256 a, uint256 b) internal pure returns (uint256) {\r... */\n      swap3\n      swap2\n      pop\n      pop\n      jump\t// out\n        /* \"contracts/Utils.sol\":11566:11911  function div(uint256 a, uint256 b, string memory errorMessage) internal pure returns (uint256) {\r... */\n    tag_175:\n        /* \"contracts/Utils.sol\":11652:11659  uint256 */\n      0x00\n        /* \"contracts/Utils.sol\":11751:11752  0 */\n      dup1\n        /* \"contracts/Utils.sol\":11747:11748  b */\n      dup4\n        /* \"contracts/Utils.sol\":11747:11752  b > 0 */\n      gt\n        /* \"contracts/Utils.sol\":11754:11766  errorMessage */\n      dup3\n        /* \"contracts/Utils.sol\":11739:11767  require(b > 0, errorMessage) */\n      swap1\n      tag_177\n      jumpi\n      mload(0x40)\n      0x08c379a000000000000000000000000000000000000000000000000000000000\n      dup2\n      mstore\n      0x04\n      add\n      tag_178\n      swap2\n      swap1\n      tag_179\n      jump\t// in\n    tag_178:\n      mload(0x40)\n      dup1\n      swap2\n      sub\n      swap1\n      revert\n    tag_177:\n      pop\n        /* \"contracts/Utils.sol\":11778:11787  uint256 c */\n      0x00\n        /* \"contracts/Utils.sol\":11794:11795  b */\n      dup4\n        /* \"contracts/Utils.sol\":11790:11791  a */\n      dup6\n        /* \"contracts/Utils.sol\":11790:11795  a / b */\n      tag_180\n      swap2\n      swap1\n      tag_148\n      jump\t// in\n    tag_180:\n        /* \"contracts/Utils.sol\":11778:11795  uint256 c = a / b */\n      swap1\n      pop\n        /* \"contracts/Utils.sol\":11902:11903  c */\n      dup1\n        /* \"contracts/Utils.sol\":11895:11903  return c */\n      swap2\n      pop\n      pop\n        /* \"contracts/Utils.sol\":11566:11911  function div(uint256 a, uint256 b, string memory errorMessage) internal pure returns (uint256) {\r... */\n      swap4\n      swap3\n      pop\n      pop\n      pop\n      jump\t// out\n        /* \"#utility.yul\":24:768   */\n    tag_182:\n        /* \"#utility.yul\":131:136   */\n      0x00\n        /* \"#utility.yul\":156:237   */\n      tag_184\n        /* \"#utility.yul\":172:236   */\n      tag_185\n        /* \"#utility.yul\":229:235   */\n      dup5\n        /* \"#utility.yul\":172:236   */\n      tag_186\n      jump\t// in\n    tag_185:\n        /* \"#utility.yul\":156:237   */\n      tag_187\n      jump\t// in\n    tag_184:\n        /* \"#utility.yul\":147:237   */\n      swap1\n      pop\n        /* \"#utility.yul\":257:262   */\n      dup1\n        /* \"#utility.yul\":286:292   */\n      dup4\n        /* \"#utility.yul\":279:284   */\n      dup3\n        /* \"#utility.yul\":272:293   */\n      mstore\n        /* \"#utility.yul\":320:324   */\n      0x20\n        /* \"#utility.yul\":313:318   */\n      dup3\n        /* \"#utility.yul\":309:325   */\n      add\n        /* \"#utility.yul\":302:325   */\n      swap1\n      pop\n        /* \"#utility.yul\":346:352   */\n      dup3\n        /* \"#utility.yul\":396:399   */\n      dup6\n        /* \"#utility.yul\":388:392   */\n      0x20\n        /* \"#utility.yul\":380:386   */\n      dup7\n        /* \"#utility.yul\":376:393   */\n      mul\n        /* \"#utility.yul\":371:374   */\n      dup3\n        /* \"#utility.yul\":367:394   */\n      add\n        /* \"#utility.yul\":364:400   */\n      gt\n        /* \"#utility.yul\":361:504   */\n      iszero\n      tag_188\n      jumpi\n        /* \"#utility.yul\":415:494   */\n      tag_189\n      tag_190\n      jump\t// in\n    tag_189:\n        /* \"#utility.yul\":361:504   */\n    tag_188:\n        /* \"#utility.yul\":528:529   */\n      0x00\n        /* \"#utility.yul\":513:762   */\n    tag_191:\n        /* \"#utility.yul\":538:544   */\n      dup6\n        /* \"#utility.yul\":535:536   */\n      dup2\n        /* \"#utility.yul\":532:545   */\n      lt\n        /* \"#utility.yul\":513:762   */\n      iszero\n      tag_193\n      jumpi\n        /* \"#utility.yul\":606:609   */\n      dup2\n        /* \"#utility.yul\":635:683   */\n      tag_194\n        /* \"#utility.yul\":679:682   */\n      dup9\n        /* \"#utility.yul\":667:677   */\n      dup3\n        /* \"#utility.yul\":635:683   */\n      tag_195\n      jump\t// in\n    tag_194:\n        /* \"#utility.yul\":630:633   */\n      dup5\n        /* \"#utility.yul\":623:684   */\n      mstore\n        /* \"#utility.yul\":713:717   */\n      0x20\n        /* \"#utility.yul\":708:711   */\n      dup5\n        /* \"#utility.yul\":704:718   */\n      add\n        /* \"#utility.yul\":697:718   */\n      swap4\n      pop\n        /* \"#utility.yul\":747:751   */\n      0x20\n        /* \"#utility.yul\":742:745   */\n      dup4\n        /* \"#utility.yul\":738:752   */\n      add\n        /* \"#utility.yul\":731:752   */\n      swap3\n      pop\n        /* \"#utility.yul\":573:762   */\n      pop\n        /* \"#utility.yul\":560:561   */\n      0x01\n        /* \"#utility.yul\":557:558   */\n      dup2\n        /* \"#utility.yul\":553:562   */\n      add\n        /* \"#utility.yul\":548:562   */\n      swap1\n      pop\n        /* \"#utility.yul\":513:762   */\n      jump(tag_191)\n    tag_193:\n        /* \"#utility.yul\":517:531   */\n      pop\n        /* \"#utility.yul\":137:768   */\n      pop\n      pop\n        /* \"#utility.yul\":24:768   */\n      swap4\n      swap3\n      pop\n      pop\n      pop\n      jump\t// out\n        /* \"#utility.yul\":774:913   */\n    tag_196:\n        /* \"#utility.yul\":820:825   */\n      0x00\n        /* \"#utility.yul\":858:864   */\n      dup2\n        /* \"#utility.yul\":845:865   */\n      calldataload\n        /* \"#utility.yul\":836:865   */\n      swap1\n      pop\n        /* \"#utility.yul\":874:907   */\n      tag_198\n        /* \"#utility.yul\":901:906   */\n      dup2\n        /* \"#utility.yul\":874:907   */\n      tag_199\n      jump\t// in\n    tag_198:\n        /* \"#utility.yul\":774:913   */\n      swap3\n      swap2\n      pop\n      pop\n      jump\t// out\n        /* \"#utility.yul\":936:1321   */\n    tag_200:\n        /* \"#utility.yul\":1018:1023   */\n      0x00\n        /* \"#utility.yul\":1067:1070   */\n      dup3\n        /* \"#utility.yul\":1060:1064   */\n      0x1f\n        /* \"#utility.yul\":1052:1058   */\n      dup4\n        /* \"#utility.yul\":1048:1065   */\n      add\n        /* \"#utility.yul\":1044:1071   */\n      slt\n        /* \"#utility.yul\":1034:1156   */\n      tag_202\n      jumpi\n        /* \"#utility.yul\":1075:1154   */\n      tag_203\n      tag_204\n      jump\t// in\n    tag_203:\n        /* \"#utility.yul\":1034:1156   */\n    tag_202:\n        /* \"#utility.yul\":1185:1191   */\n      dup2\n        /* \"#utility.yul\":1179:1192   */\n      mload\n        /* \"#utility.yul\":1210:1315   */\n      tag_205\n        /* \"#utility.yul\":1311:1314   */\n      dup5\n        /* \"#utility.yul\":1303:1309   */\n      dup3\n        /* \"#utility.yul\":1296:1300   */\n      0x20\n        /* \"#utility.yul\":1288:1294   */\n      dup7\n        /* \"#utility.yul\":1284:1301   */\n      add\n        /* \"#utility.yul\":1210:1315   */\n      tag_182\n      jump\t// in\n    tag_205:\n        /* \"#utility.yul\":1201:1315   */\n      swap2\n      pop\n        /* \"#utility.yul\":1024:1321   */\n      pop\n        /* \"#utility.yul\":936:1321   */\n      swap3\n      swap2\n      pop\n      pop\n      jump\t// out\n        /* \"#utility.yul\":1327:1460   */\n    tag_206:\n        /* \"#utility.yul\":1370:1375   */\n      0x00\n        /* \"#utility.yul\":1408:1414   */\n      dup2\n        /* \"#utility.yul\":1395:1415   */\n      calldataload\n        /* \"#utility.yul\":1386:1415   */\n      swap1\n      pop\n        /* \"#utility.yul\":1424:1454   */\n      tag_208\n        /* \"#utility.yul\":1448:1453   */\n      dup2\n        /* \"#utility.yul\":1424:1454   */\n      tag_209\n      jump\t// in\n    tag_208:\n        /* \"#utility.yul\":1327:1460   */\n      swap3\n      swap2\n      pop\n      pop\n      jump\t// out\n        /* \"#utility.yul\":1466:1637   */\n    tag_210:\n        /* \"#utility.yul\":1537:1542   */\n      0x00\n        /* \"#utility.yul\":1568:1574   */\n      dup2\n        /* \"#utility.yul\":1562:1575   */\n      mload\n        /* \"#utility.yul\":1553:1575   */\n      swap1\n      pop\n        /* \"#utility.yul\":1584:1631   */\n      tag_212\n        /* \"#utility.yul\":1625:1630   */\n      dup2\n        /* \"#utility.yul\":1584:1631   */\n      tag_213\n      jump\t// in\n    tag_212:\n        /* \"#utility.yul\":1466:1637   */\n      swap3\n      swap2\n      pop\n      pop\n      jump\t// out\n        /* \"#utility.yul\":1643:1802   */\n    tag_214:\n        /* \"#utility.yul\":1699:1704   */\n      0x00\n        /* \"#utility.yul\":1737:1743   */\n      dup2\n        /* \"#utility.yul\":1724:1744   */\n      calldataload\n        /* \"#utility.yul\":1715:1744   */\n      swap1\n      pop\n        /* \"#utility.yul\":1753:1796   */\n      tag_216\n        /* \"#utility.yul\":1790:1795   */\n      dup2\n        /* \"#utility.yul\":1753:1796   */\n      tag_217\n      jump\t// in\n    tag_216:\n        /* \"#utility.yul\":1643:1802   */\n      swap3\n      swap2\n      pop\n      pop\n      jump\t// out\n        /* \"#utility.yul\":1808:1991   */\n    tag_218:\n        /* \"#utility.yul\":1876:1881   */\n      0x00\n        /* \"#utility.yul\":1914:1920   */\n      dup2\n        /* \"#utility.yul\":1901:1921   */\n      calldataload\n        /* \"#utility.yul\":1892:1921   */\n      swap1\n      pop\n        /* \"#utility.yul\":1930:1985   */\n      tag_220\n        /* \"#utility.yul\":1979:1984   */\n      dup2\n        /* \"#utility.yul\":1930:1985   */\n      tag_221\n      jump\t// in\n    tag_220:\n        /* \"#utility.yul\":1808:1991   */\n      swap3\n      swap2\n      pop\n      pop\n      jump\t// out\n        /* \"#utility.yul\":1997:2164   */\n    tag_222:\n        /* \"#utility.yul\":2057:2062   */\n      0x00\n        /* \"#utility.yul\":2095:2101   */\n      dup2\n        /* \"#utility.yul\":2082:2102   */\n      calldataload\n        /* \"#utility.yul\":2073:2102   */\n      swap1\n      pop\n        /* \"#utility.yul\":2111:2158   */\n      tag_224\n        /* \"#utility.yul\":2152:2157   */\n      dup2\n        /* \"#utility.yul\":2111:2158   */\n      tag_225\n      jump\t// in\n    tag_224:\n        /* \"#utility.yul\":1997:2164   */\n      swap3\n      swap2\n      pop\n      pop\n      jump\t// out\n        /* \"#utility.yul\":2170:2309   */\n    tag_226:\n        /* \"#utility.yul\":2216:2221   */\n      0x00\n        /* \"#utility.yul\":2254:2260   */\n      dup2\n        /* \"#utility.yul\":2241:2261   */\n      calldataload\n        /* \"#utility.yul\":2232:2261   */\n      swap1\n      pop\n        /* \"#utility.yul\":2270:2303   */\n      tag_228\n        /* \"#utility.yul\":2297:2302   */\n      dup2\n        /* \"#utility.yul\":2270:2303   */\n      tag_229\n      jump\t// in\n    tag_228:\n        /* \"#utility.yul\":2170:2309   */\n      swap3\n      swap2\n      pop\n      pop\n      jump\t// out\n        /* \"#utility.yul\":2315:2458   */\n    tag_195:\n        /* \"#utility.yul\":2372:2377   */\n      0x00\n        /* \"#utility.yul\":2403:2409   */\n      dup2\n        /* \"#utility.yul\":2397:2410   */\n      mload\n        /* \"#utility.yul\":2388:2410   */\n      swap1\n      pop\n        /* \"#utility.yul\":2419:2452   */\n      tag_231\n        /* \"#utility.yul\":2446:2451   */\n      dup2\n        /* \"#utility.yul\":2419:2452   */\n      tag_229\n      jump\t// in\n    tag_231:\n        /* \"#utility.yul\":2315:2458   */\n      swap3\n      swap2\n      pop\n      pop\n      jump\t// out\n        /* \"#utility.yul\":2464:3018   */\n    tag_141:\n        /* \"#utility.yul\":2559:2565   */\n      0x00\n        /* \"#utility.yul\":2608:2610   */\n      0x20\n        /* \"#utility.yul\":2596:2605   */\n      dup3\n        /* \"#utility.yul\":2587:2594   */\n      dup5\n        /* \"#utility.yul\":2583:2606   */\n      sub\n        /* \"#utility.yul\":2579:2611   */\n      slt\n        /* \"#utility.yul\":2576:2695   */\n      iszero\n      tag_233\n      jumpi\n        /* \"#utility.yul\":2614:2693   */\n      tag_234\n      tag_235\n      jump\t// in\n    tag_234:\n        /* \"#utility.yul\":2576:2695   */\n    tag_233:\n        /* \"#utility.yul\":2755:2756   */\n      0x00\n        /* \"#utility.yul\":2744:2753   */\n      dup3\n        /* \"#utility.yul\":2740:2757   */\n      add\n        /* \"#utility.yul\":2734:2758   */\n      mload\n        /* \"#utility.yul\":2785:2803   */\n      0xffffffffffffffff\n        /* \"#utility.yul\":2777:2783   */\n      dup2\n        /* \"#utility.yul\":2774:2804   */\n      gt\n        /* \"#utility.yul\":2771:2888   */\n      iszero\n      tag_236\n      jumpi\n        /* \"#utility.yul\":2807:2886   */\n      tag_237\n      tag_238\n      jump\t// in\n    tag_237:\n        /* \"#utility.yul\":2771:2888   */\n    tag_236:\n        /* \"#utility.yul\":2912:3001   */\n      tag_239\n        /* \"#utility.yul\":2993:3000   */\n      dup5\n        /* \"#utility.yul\":2984:2990   */\n      dup3\n        /* \"#utility.yul\":2973:2982   */\n      dup6\n        /* \"#utility.yul\":2969:2991   */\n      add\n        /* \"#utility.yul\":2912:3001   */\n      tag_200\n      jump\t// in\n    tag_239:\n        /* \"#utility.yul\":2902:3001   */\n      swap2\n      pop\n        /* \"#utility.yul\":2705:3011   */\n      pop\n        /* \"#utility.yul\":2464:3018   */\n      swap3\n      swap2\n      pop\n      pop\n      jump\t// out\n        /* \"#utility.yul\":3024:3403   */\n    tag_43:\n        /* \"#utility.yul\":3108:3114   */\n      0x00\n        /* \"#utility.yul\":3157:3159   */\n      0x20\n        /* \"#utility.yul\":3145:3154   */\n      dup3\n        /* \"#utility.yul\":3136:3143   */\n      dup5\n        /* \"#utility.yul\":3132:3155   */\n      sub\n        /* \"#utility.yul\":3128:3160   */\n      slt\n        /* \"#utility.yul\":3125:3244   */\n      iszero\n      tag_241\n      jumpi\n        /* \"#utility.yul\":3163:3242   */\n      tag_242\n      tag_235\n      jump\t// in\n    tag_242:\n        /* \"#utility.yul\":3125:3244   */\n    tag_241:\n        /* \"#utility.yul\":3283:3284   */\n      0x00\n        /* \"#utility.yul\":3308:3386   */\n      tag_243\n        /* \"#utility.yul\":3378:3385   */\n      dup5\n        /* \"#utility.yul\":3369:3375   */\n      dup3\n        /* \"#utility.yul\":3358:3367   */\n      dup6\n        /* \"#utility.yul\":3354:3376   */\n      add\n        /* \"#utility.yul\":3308:3386   */\n      tag_210\n      jump\t// in\n    tag_243:\n        /* \"#utility.yul\":3298:3386   */\n      swap2\n      pop\n        /* \"#utility.yul\":3254:3396   */\n      pop\n        /* \"#utility.yul\":3024:3403   */\n      swap3\n      swap2\n      pop\n      pop\n      jump\t// out\n        /* \"#utility.yul\":3409:3931   */\n    tag_15:\n        /* \"#utility.yul\":3501:3507   */\n      0x00\n        /* \"#utility.yul\":3509:3515   */\n      dup1\n        /* \"#utility.yul\":3558:3560   */\n      0x40\n        /* \"#utility.yul\":3546:3555   */\n      dup4\n        /* \"#utility.yul\":3537:3544   */\n      dup6\n        /* \"#utility.yul\":3533:3556   */\n      sub\n        /* \"#utility.yul\":3529:3561   */\n      slt\n        /* \"#utility.yul\":3526:3645   */\n      iszero\n      tag_245\n      jumpi\n        /* \"#utility.yul\":3564:3643   */\n      tag_246\n      tag_235\n      jump\t// in\n    tag_246:\n        /* \"#utility.yul\":3526:3645   */\n    tag_245:\n        /* \"#utility.yul\":3684:3685   */\n      0x00\n        /* \"#utility.yul\":3709:3772   */\n      tag_247\n        /* \"#utility.yul\":3764:3771   */\n      dup6\n        /* \"#utility.yul\":3755:3761   */\n      dup3\n        /* \"#utility.yul\":3744:3753   */\n      dup7\n        /* \"#utility.yul\":3740:3762   */\n      add\n        /* \"#utility.yul\":3709:3772   */\n      tag_214\n      jump\t// in\n    tag_247:\n        /* \"#utility.yul\":3699:3772   */\n      swap3\n      pop\n        /* \"#utility.yul\":3655:3782   */\n      pop\n        /* \"#utility.yul\":3821:3823   */\n      0x20\n        /* \"#utility.yul\":3847:3914   */\n      tag_248\n        /* \"#utility.yul\":3906:3913   */\n      dup6\n        /* \"#utility.yul\":3897:3903   */\n      dup3\n        /* \"#utility.yul\":3886:3895   */\n      dup7\n        /* \"#utility.yul\":3882:3904   */\n      add\n        /* \"#utility.yul\":3847:3914   */\n      tag_222\n      jump\t// in\n    tag_248:\n        /* \"#utility.yul\":3837:3914   */\n      swap2\n      pop\n        /* \"#utility.yul\":3792:3924   */\n      pop\n        /* \"#utility.yul\":3409:3931   */\n      swap3\n      pop\n      swap3\n      swap1\n      pop\n      jump\t// out\n        /* \"#utility.yul\":3937:4288   */\n    tag_30:\n        /* \"#utility.yul\":4007:4013   */\n      0x00\n        /* \"#utility.yul\":4056:4058   */\n      0x20\n        /* \"#utility.yul\":4044:4053   */\n      dup3\n        /* \"#utility.yul\":4035:4042   */\n      dup5\n        /* \"#utility.yul\":4031:4054   */\n      sub\n        /* \"#utility.yul\":4027:4059   */\n      slt\n        /* \"#utility.yul\":4024:4143   */\n      iszero\n      tag_250\n      jumpi\n        /* \"#utility.yul\":4062:4141   */\n      tag_251\n      tag_235\n      jump\t// in\n    tag_251:\n        /* \"#utility.yul\":4024:4143   */\n    tag_250:\n        /* \"#utility.yul\":4182:4183   */\n      0x00\n        /* \"#utility.yul\":4207:4271   */\n      tag_252\n        /* \"#utility.yul\":4263:4270   */\n      dup5\n        /* \"#utility.yul\":4254:4260   */\n      dup3\n        /* \"#utility.yul\":4243:4252   */\n      dup6\n        /* \"#utility.yul\":4239:4261   */\n      add\n        /* \"#utility.yul\":4207:4271   */\n      tag_195\n      jump\t// in\n    tag_252:\n        /* \"#utility.yul\":4197:4271   */\n      swap2\n      pop\n        /* \"#utility.yul\":4153:4281   */\n      pop\n        /* \"#utility.yul\":3937:4288   */\n      swap3\n      swap2\n      pop\n      pop\n      jump\t// out\n        /* \"#utility.yul\":4294:5097   */\n    tag_9:\n        /* \"#utility.yul\":4399:4405   */\n      0x00\n        /* \"#utility.yul\":4407:4413   */\n      dup1\n        /* \"#utility.yul\":4415:4421   */\n      0x00\n        /* \"#utility.yul\":4423:4429   */\n      dup1\n        /* \"#utility.yul\":4472:4475   */\n      0x80\n        /* \"#utility.yul\":4460:4469   */\n      dup6\n        /* \"#utility.yul\":4451:4458   */\n      dup8\n        /* \"#utility.yul\":4447:4470   */\n      sub\n        /* \"#utility.yul\":4443:4476   */\n      slt\n        /* \"#utility.yul\":4440:4560   */\n      iszero\n      tag_254\n      jumpi\n        /* \"#utility.yul\":4479:4558   */\n      tag_255\n      tag_235\n      jump\t// in\n    tag_255:\n        /* \"#utility.yul\":4440:4560   */\n    tag_254:\n        /* \"#utility.yul\":4599:4600   */\n      0x00\n        /* \"#utility.yul\":4624:4677   */\n      tag_256\n        /* \"#utility.yul\":4669:4676   */\n      dup8\n        /* \"#utility.yul\":4660:4666   */\n      dup3\n        /* \"#utility.yul\":4649:4658   */\n      dup9\n        /* \"#utility.yul\":4645:4667   */\n      add\n        /* \"#utility.yul\":4624:4677   */\n      tag_226\n      jump\t// in\n    tag_256:\n        /* \"#utility.yul\":4614:4677   */\n      swap5\n      pop\n        /* \"#utility.yul\":4570:4687   */\n      pop\n        /* \"#utility.yul\":4726:4728   */\n      0x20\n        /* \"#utility.yul\":4752:4805   */\n      tag_257\n        /* \"#utility.yul\":4797:4804   */\n      dup8\n        /* \"#utility.yul\":4788:4794   */\n      dup3\n        /* \"#utility.yul\":4777:4786   */\n      dup9\n        /* \"#utility.yul\":4773:4795   */\n      add\n        /* \"#utility.yul\":4752:4805   */\n      tag_196\n      jump\t// in\n    tag_257:\n        /* \"#utility.yul\":4742:4805   */\n      swap4\n      pop\n        /* \"#utility.yul\":4697:4815   */\n      pop\n        /* \"#utility.yul\":4854:4856   */\n      0x40\n        /* \"#utility.yul\":4880:4930   */\n      tag_258\n        /* \"#utility.yul\":4922:4929   */\n      dup8\n        /* \"#utility.yul\":4913:4919   */\n      dup3\n        /* \"#utility.yul\":4902:4911   */\n      dup9\n        /* \"#utility.yul\":4898:4920   */\n      add\n        /* \"#utility.yul\":4880:4930   */\n      tag_206\n      jump\t// in\n    tag_258:\n        /* \"#utility.yul\":4870:4930   */\n      swap3\n      pop\n        /* \"#utility.yul\":4825:4940   */\n      pop\n        /* \"#utility.yul\":4979:4981   */\n      0x60\n        /* \"#utility.yul\":5005:5080   */\n      tag_259\n        /* \"#utility.yul\":5072:5079   */\n      dup8\n        /* \"#utility.yul\":5063:5069   */\n      dup3\n        /* \"#utility.yul\":5052:5061   */\n      dup9\n        /* \"#utility.yul\":5048:5070   */\n      add\n        /* \"#utility.yul\":5005:5080   */\n      tag_218\n      jump\t// in\n    tag_259:\n        /* \"#utility.yul\":4995:5080   */\n      swap2\n      pop\n        /* \"#utility.yul\":4950:5090   */\n      pop\n        /* \"#utility.yul\":4294:5097   */\n      swap3\n      swap6\n      swap2\n      swap5\n      pop\n      swap3\n      pop\n      jump\t// out\n        /* \"#utility.yul\":5103:5282   */\n    tag_260:\n        /* \"#utility.yul\":5172:5182   */\n      0x00\n        /* \"#utility.yul\":5193:5239   */\n      tag_262\n        /* \"#utility.yul\":5235:5238   */\n      dup4\n        /* \"#utility.yul\":5227:5233   */\n      dup4\n        /* \"#utility.yul\":5193:5239   */\n      tag_263\n      jump\t// in\n    tag_262:\n        /* \"#utility.yul\":5271:5275   */\n      0x20\n        /* \"#utility.yul\":5266:5269   */\n      dup4\n        /* \"#utility.yul\":5262:5276   */\n      add\n        /* \"#utility.yul\":5248:5276   */\n      swap1\n      pop\n        /* \"#utility.yul\":5103:5282   */\n      swap3\n      swap2\n      pop\n      pop\n      jump\t// out\n        /* \"#utility.yul\":5288:5396   */\n    tag_263:\n        /* \"#utility.yul\":5365:5389   */\n      tag_265\n        /* \"#utility.yul\":5383:5388   */\n      dup2\n        /* \"#utility.yul\":5365:5389   */\n      tag_266\n      jump\t// in\n    tag_265:\n        /* \"#utility.yul\":5360:5363   */\n      dup3\n        /* \"#utility.yul\":5353:5390   */\n      mstore\n        /* \"#utility.yul\":5288:5396   */\n      pop\n      pop\n      jump\t// out\n        /* \"#utility.yul\":5402:5520   */\n    tag_267:\n        /* \"#utility.yul\":5489:5513   */\n      tag_269\n        /* \"#utility.yul\":5507:5512   */\n      dup2\n        /* \"#utility.yul\":5489:5513   */\n      tag_266\n      jump\t// in\n    tag_269:\n        /* \"#utility.yul\":5484:5487   */\n      dup3\n        /* \"#utility.yul\":5477:5514   */\n      mstore\n        /* \"#utility.yul\":5402:5520   */\n      pop\n      pop\n      jump\t// out\n        /* \"#utility.yul\":5556:6288   */\n    tag_270:\n        /* \"#utility.yul\":5675:5678   */\n      0x00\n        /* \"#utility.yul\":5704:5758   */\n      tag_272\n        /* \"#utility.yul\":5752:5757   */\n      dup3\n        /* \"#utility.yul\":5704:5758   */\n      tag_273\n      jump\t// in\n    tag_272:\n        /* \"#utility.yul\":5774:5860   */\n      tag_274\n        /* \"#utility.yul\":5853:5859   */\n      dup2\n        /* \"#utility.yul\":5848:5851   */\n      dup6\n        /* \"#utility.yul\":5774:5860   */\n      tag_275\n      jump\t// in\n    tag_274:\n        /* \"#utility.yul\":5767:5860   */\n      swap4\n      pop\n        /* \"#utility.yul\":5884:5940   */\n      tag_276\n        /* \"#utility.yul\":5934:5939   */\n      dup4\n        /* \"#utility.yul\":5884:5940   */\n      tag_277\n      jump\t// in\n    tag_276:\n        /* \"#utility.yul\":5963:5970   */\n      dup1\n        /* \"#utility.yul\":5994:5995   */\n      0x00\n        /* \"#utility.yul\":5979:6263   */\n    tag_278:\n        /* \"#utility.yul\":6004:6010   */\n      dup4\n        /* \"#utility.yul\":6001:6002   */\n      dup2\n        /* \"#utility.yul\":5998:6011   */\n      lt\n        /* \"#utility.yul\":5979:6263   */\n      iszero\n      tag_280\n      jumpi\n        /* \"#utility.yul\":6080:6086   */\n      dup2\n        /* \"#utility.yul\":6074:6087   */\n      mload\n        /* \"#utility.yul\":6107:6170   */\n      tag_281\n        /* \"#utility.yul\":6166:6169   */\n      dup9\n        /* \"#utility.yul\":6151:6164   */\n      dup3\n        /* \"#utility.yul\":6107:6170   */\n      tag_260\n      jump\t// in\n    tag_281:\n        /* \"#utility.yul\":6100:6170   */\n      swap8\n      pop\n        /* \"#utility.yul\":6193:6253   */\n      tag_282\n        /* \"#utility.yul\":6246:6252   */\n      dup4\n        /* \"#utility.yul\":6193:6253   */\n      tag_283\n      jump\t// in\n    tag_282:\n        /* \"#utility.yul\":6183:6253   */\n      swap3\n      pop\n        /* \"#utility.yul\":6039:6263   */\n      pop\n        /* \"#utility.yul\":6026:6027   */\n      0x01\n        /* \"#utility.yul\":6023:6024   */\n      dup2\n        /* \"#utility.yul\":6019:6028   */\n      add\n        /* \"#utility.yul\":6014:6028   */\n      swap1\n      pop\n        /* \"#utility.yul\":5979:6263   */\n      jump(tag_278)\n    tag_280:\n        /* \"#utility.yul\":5983:5997   */\n      pop\n        /* \"#utility.yul\":6279:6282   */\n      dup6\n        /* \"#utility.yul\":6272:6282   */\n      swap4\n      pop\n        /* \"#utility.yul\":5680:6288   */\n      pop\n      pop\n      pop\n        /* \"#utility.yul\":5556:6288   */\n      swap3\n      swap2\n      pop\n      pop\n      jump\t// out\n        /* \"#utility.yul\":6294:6658   */\n    tag_284:\n        /* \"#utility.yul\":6382:6385   */\n      0x00\n        /* \"#utility.yul\":6410:6449   */\n      tag_286\n        /* \"#utility.yul\":6443:6448   */\n      dup3\n        /* \"#utility.yul\":6410:6449   */\n      tag_287\n      jump\t// in\n    tag_286:\n        /* \"#utility.yul\":6465:6536   */\n      tag_288\n        /* \"#utility.yul\":6529:6535   */\n      dup2\n        /* \"#utility.yul\":6524:6527   */\n      dup6\n        /* \"#utility.yul\":6465:6536   */\n      tag_289\n      jump\t// in\n    tag_288:\n        /* \"#utility.yul\":6458:6536   */\n      swap4\n      pop\n        /* \"#utility.yul\":6545:6597   */\n      tag_290\n        /* \"#utility.yul\":6590:6596   */\n      dup2\n        /* \"#utility.yul\":6585:6588   */\n      dup6\n        /* \"#utility.yul\":6578:6582   */\n      0x20\n        /* \"#utility.yul\":6571:6576   */\n      dup7\n        /* \"#utility.yul\":6567:6583   */\n      add\n        /* \"#utility.yul\":6545:6597   */\n      tag_291\n      jump\t// in\n    tag_290:\n        /* \"#utility.yul\":6622:6651   */\n      tag_292\n        /* \"#utility.yul\":6644:6650   */\n      dup2\n        /* \"#utility.yul\":6622:6651   */\n      tag_293\n      jump\t// in\n    tag_292:\n        /* \"#utility.yul\":6617:6620   */\n      dup5\n        /* \"#utility.yul\":6613:6652   */\n      add\n        /* \"#utility.yul\":6606:6652   */\n      swap2\n      pop\n        /* \"#utility.yul\":6386:6658   */\n      pop\n        /* \"#utility.yul\":6294:6658   */\n      swap3\n      swap2\n      pop\n      pop\n      jump\t// out\n        /* \"#utility.yul\":6664:7030   */\n    tag_294:\n        /* \"#utility.yul\":6806:6809   */\n      0x00\n        /* \"#utility.yul\":6827:6894   */\n      tag_296\n        /* \"#utility.yul\":6891:6893   */\n      0x1b\n        /* \"#utility.yul\":6886:6889   */\n      dup4\n        /* \"#utility.yul\":6827:6894   */\n      tag_289\n      jump\t// in\n    tag_296:\n        /* \"#utility.yul\":6820:6894   */\n      swap2\n      pop\n        /* \"#utility.yul\":6903:6996   */\n      tag_297\n        /* \"#utility.yul\":6992:6995   */\n      dup3\n        /* \"#utility.yul\":6903:6996   */\n      tag_298\n      jump\t// in\n    tag_297:\n        /* \"#utility.yul\":7021:7023   */\n      0x20\n        /* \"#utility.yul\":7016:7019   */\n      dup3\n        /* \"#utility.yul\":7012:7024   */\n      add\n        /* \"#utility.yul\":7005:7024   */\n      swap1\n      pop\n        /* \"#utility.yul\":6664:7030   */\n      swap2\n      swap1\n      pop\n      jump\t// out\n        /* \"#utility.yul\":7036:7402   */\n    tag_299:\n        /* \"#utility.yul\":7178:7181   */\n      0x00\n        /* \"#utility.yul\":7199:7266   */\n      tag_301\n        /* \"#utility.yul\":7263:7265   */\n      0x21\n        /* \"#utility.yul\":7258:7261   */\n      dup4\n        /* \"#utility.yul\":7199:7266   */\n      tag_289\n      jump\t// in\n    tag_301:\n        /* \"#utility.yul\":7192:7266   */\n      swap2\n      pop\n        /* \"#utility.yul\":7275:7368   */\n      tag_302\n        /* \"#utility.yul\":7364:7367   */\n      dup3\n        /* \"#utility.yul\":7275:7368   */\n      tag_303\n      jump\t// in\n    tag_302:\n        /* \"#utility.yul\":7393:7395   */\n      0x40\n        /* \"#utility.yul\":7388:7391   */\n      dup3\n        /* \"#utility.yul\":7384:7396   */\n      add\n        /* \"#utility.yul\":7377:7396   */\n      swap1\n      pop\n        /* \"#utility.yul\":7036:7402   */\n      swap2\n      swap1\n      pop\n      jump\t// out\n        /* \"#utility.yul\":7408:7526   */\n    tag_304:\n        /* \"#utility.yul\":7495:7519   */\n      tag_306\n        /* \"#utility.yul\":7513:7518   */\n      dup2\n        /* \"#utility.yul\":7495:7519   */\n      tag_307\n      jump\t// in\n    tag_306:\n        /* \"#utility.yul\":7490:7493   */\n      dup3\n        /* \"#utility.yul\":7483:7520   */\n      mstore\n        /* \"#utility.yul\":7408:7526   */\n      pop\n      pop\n      jump\t// out\n        /* \"#utility.yul\":7532:7754   */\n    tag_21:\n        /* \"#utility.yul\":7625:7629   */\n      0x00\n        /* \"#utility.yul\":7663:7665   */\n      0x20\n        /* \"#utility.yul\":7652:7661   */\n      dup3\n        /* \"#utility.yul\":7648:7666   */\n      add\n        /* \"#utility.yul\":7640:7666   */\n      swap1\n      pop\n        /* \"#utility.yul\":7676:7747   */\n      tag_309\n        /* \"#utility.yul\":7744:7745   */\n      0x00\n        /* \"#utility.yul\":7733:7742   */\n      dup4\n        /* \"#utility.yul\":7729:7746   */\n      add\n        /* \"#utility.yul\":7720:7726   */\n      dup5\n        /* \"#utility.yul\":7676:7747   */\n      tag_267\n      jump\t// in\n    tag_309:\n        /* \"#utility.yul\":7532:7754   */\n      swap3\n      swap2\n      pop\n      pop\n      jump\t// out\n        /* \"#utility.yul\":7760:8073   */\n    tag_179:\n        /* \"#utility.yul\":7873:7877   */\n      0x00\n        /* \"#utility.yul\":7911:7913   */\n      0x20\n        /* \"#utility.yul\":7900:7909   */\n      dup3\n        /* \"#utility.yul\":7896:7914   */\n      add\n        /* \"#utility.yul\":7888:7914   */\n      swap1\n      pop\n        /* \"#utility.yul\":7960:7969   */\n      dup2\n        /* \"#utility.yul\":7954:7958   */\n      dup2\n        /* \"#utility.yul\":7950:7970   */\n      sub\n        /* \"#utility.yul\":7946:7947   */\n      0x00\n        /* \"#utility.yul\":7935:7944   */\n      dup4\n        /* \"#utility.yul\":7931:7948   */\n      add\n        /* \"#utility.yul\":7924:7971   */\n      mstore\n        /* \"#utility.yul\":7988:8066   */\n      tag_311\n        /* \"#utility.yul\":8061:8065   */\n      dup2\n        /* \"#utility.yul\":8052:8058   */\n      dup5\n        /* \"#utility.yul\":7988:8066   */\n      tag_284\n      jump\t// in\n    tag_311:\n        /* \"#utility.yul\":7980:8066   */\n      swap1\n      pop\n        /* \"#utility.yul\":7760:8073   */\n      swap3\n      swap2\n      pop\n      pop\n      jump\t// out\n        /* \"#utility.yul\":8079:8498   */\n    tag_172:\n        /* \"#utility.yul\":8245:8249   */\n      0x00\n        /* \"#utility.yul\":8283:8285   */\n      0x20\n        /* \"#utility.yul\":8272:8281   */\n      dup3\n        /* \"#utility.yul\":8268:8286   */\n      add\n        /* \"#utility.yul\":8260:8286   */\n      swap1\n      pop\n        /* \"#utility.yul\":8332:8341   */\n      dup2\n        /* \"#utility.yul\":8326:8330   */\n      dup2\n        /* \"#utility.yul\":8322:8342   */\n      sub\n        /* \"#utility.yul\":8318:8319   */\n      0x00\n        /* \"#utility.yul\":8307:8316   */\n      dup4\n        /* \"#utility.yul\":8303:8320   */\n      add\n        /* \"#utility.yul\":8296:8343   */\n      mstore\n        /* \"#utility.yul\":8360:8491   */\n      tag_313\n        /* \"#utility.yul\":8486:8490   */\n      dup2\n        /* \"#utility.yul\":8360:8491   */\n      tag_294\n      jump\t// in\n    tag_313:\n        /* \"#utility.yul\":8352:8491   */\n      swap1\n      pop\n        /* \"#utility.yul\":8079:8498   */\n      swap2\n      swap1\n      pop\n      jump\t// out\n        /* \"#utility.yul\":8504:8923   */\n    tag_151:\n        /* \"#utility.yul\":8670:8674   */\n      0x00\n        /* \"#utility.yul\":8708:8710   */\n      0x20\n        /* \"#utility.yul\":8697:8706   */\n      dup3\n        /* \"#utility.yul\":8693:8711   */\n      add\n        /* \"#utility.yul\":8685:8711   */\n      swap1\n      pop\n        /* \"#utility.yul\":8757:8766   */\n      dup2\n        /* \"#utility.yul\":8751:8755   */\n      dup2\n        /* \"#utility.yul\":8747:8767   */\n      sub\n        /* \"#utility.yul\":8743:8744   */\n      0x00\n        /* \"#utility.yul\":8732:8741   */\n      dup4\n        /* \"#utility.yul\":8728:8745   */\n      add\n        /* \"#utility.yul\":8721:8768   */\n      mstore\n        /* \"#utility.yul\":8785:8916   */\n      tag_315\n        /* \"#utility.yul\":8911:8915   */\n      dup2\n        /* \"#utility.yul\":8785:8916   */\n      tag_299\n      jump\t// in\n    tag_315:\n        /* \"#utility.yul\":8777:8916   */\n      swap1\n      pop\n        /* \"#utility.yul\":8504:8923   */\n      swap2\n      swap1\n      pop\n      jump\t// out\n        /* \"#utility.yul\":8929:9151   */\n    tag_12:\n        /* \"#utility.yul\":9022:9026   */\n      0x00\n        /* \"#utility.yul\":9060:9062   */\n      0x20\n        /* \"#utility.yul\":9049:9058   */\n      dup3\n        /* \"#utility.yul\":9045:9063   */\n      add\n        /* \"#utility.yul\":9037:9063   */\n      swap1\n      pop\n        /* \"#utility.yul\":9073:9144   */\n      tag_317\n        /* \"#utility.yul\":9141:9142   */\n      0x00\n        /* \"#utility.yul\":9130:9139   */\n      dup4\n        /* \"#utility.yul\":9126:9143   */\n      add\n        /* \"#utility.yul\":9117:9123   */\n      dup5\n        /* \"#utility.yul\":9073:9144   */\n      tag_304\n      jump\t// in\n    tag_317:\n        /* \"#utility.yul\":8929:9151   */\n      swap3\n      swap2\n      pop\n      pop\n      jump\t// out\n        /* \"#utility.yul\":9157:9640   */\n    tag_136:\n        /* \"#utility.yul\":9328:9332   */\n      0x00\n        /* \"#utility.yul\":9366:9368   */\n      0x40\n        /* \"#utility.yul\":9355:9364   */\n      dup3\n        /* \"#utility.yul\":9351:9369   */\n      add\n        /* \"#utility.yul\":9343:9369   */\n      swap1\n      pop\n        /* \"#utility.yul\":9379:9450   */\n      tag_319\n        /* \"#utility.yul\":9447:9448   */\n      0x00\n        /* \"#utility.yul\":9436:9445   */\n      dup4\n        /* \"#utility.yul\":9432:9449   */\n      add\n        /* \"#utility.yul\":9423:9429   */\n      dup6\n        /* \"#utility.yul\":9379:9450   */\n      tag_304\n      jump\t// in\n    tag_319:\n        /* \"#utility.yul\":9497:9506   */\n      dup2\n        /* \"#utility.yul\":9491:9495   */\n      dup2\n        /* \"#utility.yul\":9487:9507   */\n      sub\n        /* \"#utility.yul\":9482:9484   */\n      0x20\n        /* \"#utility.yul\":9471:9480   */\n      dup4\n        /* \"#utility.yul\":9467:9485   */\n      add\n        /* \"#utility.yul\":9460:9508   */\n      mstore\n        /* \"#utility.yul\":9525:9633   */\n      tag_320\n        /* \"#utility.yul\":9628:9632   */\n      dup2\n        /* \"#utility.yul\":9619:9625   */\n      dup5\n        /* \"#utility.yul\":9525:9633   */\n      tag_270\n      jump\t// in\n    tag_320:\n        /* \"#utility.yul\":9517:9633   */\n      swap1\n      pop\n        /* \"#utility.yul\":9157:9640   */\n      swap4\n      swap3\n      pop\n      pop\n      pop\n      jump\t// out\n        /* \"#utility.yul\":9646:9775   */\n    tag_187:\n        /* \"#utility.yul\":9680:9686   */\n      0x00\n        /* \"#utility.yul\":9707:9727   */\n      tag_322\n      tag_323\n      jump\t// in\n    tag_322:\n        /* \"#utility.yul\":9697:9727   */\n      swap1\n      pop\n        /* \"#utility.yul\":9736:9769   */\n      tag_324\n        /* \"#utility.yul\":9764:9768   */\n      dup3\n        /* \"#utility.yul\":9756:9762   */\n      dup3\n        /* \"#utility.yul\":9736:9769   */\n      tag_325\n      jump\t// in\n    tag_324:\n        /* \"#utility.yul\":9646:9775   */\n      swap2\n      swap1\n      pop\n      jump\t// out\n        /* \"#utility.yul\":9781:9856   */\n    tag_323:\n        /* \"#utility.yul\":9814:9820   */\n      0x00\n        /* \"#utility.yul\":9847:9849   */\n      0x40\n        /* \"#utility.yul\":9841:9850   */\n      mload\n        /* \"#utility.yul\":9831:9850   */\n      swap1\n      pop\n        /* \"#utility.yul\":9781:9856   */\n      swap1\n      jump\t// out\n        /* \"#utility.yul\":9862:10173   */\n    tag_186:\n        /* \"#utility.yul\":9939:9943   */\n      0x00\n        /* \"#utility.yul\":10029:10047   */\n      0xffffffffffffffff\n        /* \"#utility.yul\":10021:10027   */\n      dup3\n        /* \"#utility.yul\":10018:10048   */\n      gt\n        /* \"#utility.yul\":10015:10071   */\n      iszero\n      tag_328\n      jumpi\n        /* \"#utility.yul\":10051:10069   */\n      tag_329\n      tag_126\n      jump\t// in\n    tag_329:\n        /* \"#utility.yul\":10015:10071   */\n    tag_328:\n        /* \"#utility.yul\":10101:10105   */\n      0x20\n        /* \"#utility.yul\":10093:10099   */\n      dup3\n        /* \"#utility.yul\":10089:10106   */\n      mul\n        /* \"#utility.yul\":10081:10106   */\n      swap1\n      pop\n        /* \"#utility.yul\":10161:10165   */\n      0x20\n        /* \"#utility.yul\":10155:10159   */\n      dup2\n        /* \"#utility.yul\":10151:10166   */\n      add\n        /* \"#utility.yul\":10143:10166   */\n      swap1\n      pop\n        /* \"#utility.yul\":9862:10173   */\n      swap2\n      swap1\n      pop\n      jump\t// out\n        /* \"#utility.yul\":10179:10311   */\n    tag_277:\n        /* \"#utility.yul\":10246:10250   */\n      0x00\n        /* \"#utility.yul\":10269:10272   */\n      dup2\n        /* \"#utility.yul\":10261:10272   */\n      swap1\n      pop\n        /* \"#utility.yul\":10299:10303   */\n      0x20\n        /* \"#utility.yul\":10294:10297   */\n      dup3\n        /* \"#utility.yul\":10290:10304   */\n      add\n        /* \"#utility.yul\":10282:10304   */\n      swap1\n      pop\n        /* \"#utility.yul\":10179:10311   */\n      swap2\n      swap1\n      pop\n      jump\t// out\n        /* \"#utility.yul\":10317:10431   */\n    tag_273:\n        /* \"#utility.yul\":10384:10390   */\n      0x00\n        /* \"#utility.yul\":10418:10423   */\n      dup2\n        /* \"#utility.yul\":10412:10424   */\n      mload\n        /* \"#utility.yul\":10402:10424   */\n      swap1\n      pop\n        /* \"#utility.yul\":10317:10431   */\n      swap2\n      swap1\n      pop\n      jump\t// out\n        /* \"#utility.yul\":10437:10536   */\n    tag_287:\n        /* \"#utility.yul\":10489:10495   */\n      0x00\n        /* \"#utility.yul\":10523:10528   */\n      dup2\n        /* \"#utility.yul\":10517:10529   */\n      mload\n        /* \"#utility.yul\":10507:10529   */\n      swap1\n      pop\n        /* \"#utility.yul\":10437:10536   */\n      swap2\n      swap1\n      pop\n      jump\t// out\n        /* \"#utility.yul\":10542:10655   */\n    tag_283:\n        /* \"#utility.yul\":10612:10616   */\n      0x00\n        /* \"#utility.yul\":10644:10648   */\n      0x20\n        /* \"#utility.yul\":10639:10642   */\n      dup3\n        /* \"#utility.yul\":10635:10649   */\n      add\n        /* \"#utility.yul\":10627:10649   */\n      swap1\n      pop\n        /* \"#utility.yul\":10542:10655   */\n      swap2\n      swap1\n      pop\n      jump\t// out\n        /* \"#utility.yul\":10661:10845   */\n    tag_275:\n        /* \"#utility.yul\":10760:10771   */\n      0x00\n        /* \"#utility.yul\":10794:10800   */\n      dup3\n        /* \"#utility.yul\":10789:10792   */\n      dup3\n        /* \"#utility.yul\":10782:10801   */\n      mstore\n        /* \"#utility.yul\":10834:10838   */\n      0x20\n        /* \"#utility.yul\":10829:10832   */\n      dup3\n        /* \"#utility.yul\":10825:10839   */\n      add\n        /* \"#utility.yul\":10810:10839   */\n      swap1\n      pop\n        /* \"#utility.yul\":10661:10845   */\n      swap3\n      swap2\n      pop\n      pop\n      jump\t// out\n        /* \"#utility.yul\":10851:11020   */\n    tag_289:\n        /* \"#utility.yul\":10935:10946   */\n      0x00\n        /* \"#utility.yul\":10969:10975   */\n      dup3\n        /* \"#utility.yul\":10964:10967   */\n      dup3\n        /* \"#utility.yul\":10957:10976   */\n      mstore\n        /* \"#utility.yul\":11009:11013   */\n      0x20\n        /* \"#utility.yul\":11004:11007   */\n      dup3\n        /* \"#utility.yul\":11000:11014   */\n      add\n        /* \"#utility.yul\":10985:11014   */\n      swap1\n      pop\n        /* \"#utility.yul\":10851:11020   */\n      swap3\n      swap2\n      pop\n      pop\n      jump\t// out\n        /* \"#utility.yul\":11026:11331   */\n    tag_169:\n        /* \"#utility.yul\":11066:11069   */\n      0x00\n        /* \"#utility.yul\":11085:11105   */\n      tag_337\n        /* \"#utility.yul\":11103:11104   */\n      dup3\n        /* \"#utility.yul\":11085:11105   */\n      tag_307\n      jump\t// in\n    tag_337:\n        /* \"#utility.yul\":11080:11105   */\n      swap2\n      pop\n        /* \"#utility.yul\":11119:11139   */\n      tag_338\n        /* \"#utility.yul\":11137:11138   */\n      dup4\n        /* \"#utility.yul\":11119:11139   */\n      tag_307\n      jump\t// in\n    tag_338:\n        /* \"#utility.yul\":11114:11139   */\n      swap3\n      pop\n        /* \"#utility.yul\":11273:11274   */\n      dup3\n        /* \"#utility.yul\":11205:11271   */\n      0xffffffffffffffffffffffffffffffffffffffffffffffffffffffffffffffff\n        /* \"#utility.yul\":11201:11275   */\n      sub\n        /* \"#utility.yul\":11198:11199   */\n      dup3\n        /* \"#utility.yul\":11195:11276   */\n      gt\n        /* \"#utility.yul\":11192:11299   */\n      iszero\n      tag_339\n      jumpi\n        /* \"#utility.yul\":11279:11297   */\n      tag_340\n      tag_341\n      jump\t// in\n    tag_340:\n        /* \"#utility.yul\":11192:11299   */\n    tag_339:\n        /* \"#utility.yul\":11323:11324   */\n      dup3\n        /* \"#utility.yul\":11320:11321   */\n      dup3\n        /* \"#utility.yul\":11316:11325   */\n      add\n        /* \"#utility.yul\":11309:11325   */\n      swap1\n      pop\n        /* \"#utility.yul\":11026:11331   */\n      swap3\n      swap2\n      pop\n      pop\n      jump\t// out\n        /* \"#utility.yul\":11337:11522   */\n    tag_148:\n        /* \"#utility.yul\":11377:11378   */\n      0x00\n        /* \"#utility.yul\":11394:11414   */\n      tag_343\n        /* \"#utility.yul\":11412:11413   */\n      dup3\n        /* \"#utility.yul\":11394:11414   */\n      tag_307\n      jump\t// in\n    tag_343:\n        /* \"#utility.yul\":11389:11414   */\n      swap2\n      pop\n        /* \"#utility.yul\":11428:11448   */\n      tag_344\n        /* \"#utility.yul\":11446:11447   */\n      dup4\n        /* \"#utility.yul\":11428:11448   */\n      tag_307\n      jump\t// in\n    tag_344:\n        /* \"#utility.yul\":11423:11448   */\n      swap3\n      pop\n        /* \"#utility.yul\":11467:11468   */\n      dup3\n        /* \"#utility.yul\":11457:11492   */\n      tag_345\n      jumpi\n        /* \"#utility.yul\":11472:11490   */\n      tag_346\n      tag_347\n      jump\t// in\n    tag_346:\n        /* \"#utility.yul\":11457:11492   */\n    tag_345:\n        /* \"#utility.yul\":11514:11515   */\n      dup3\n        /* \"#utility.yul\":11511:11512   */\n      dup3\n        /* \"#utility.yul\":11507:11516   */\n      div\n        /* \"#utility.yul\":11502:11516   */\n      swap1\n      pop\n        /* \"#utility.yul\":11337:11522   */\n      swap3\n      swap2\n      pop\n      pop\n      jump\t// out\n        /* \"#utility.yul\":11528:11876   */\n    tag_37:\n        /* \"#utility.yul\":11568:11575   */\n      0x00\n        /* \"#utility.yul\":11591:11611   */\n      tag_349\n        /* \"#utility.yul\":11609:11610   */\n      dup3\n        /* \"#utility.yul\":11591:11611   */\n      tag_307\n      jump\t// in\n    tag_349:\n        /* \"#utility.yul\":11586:11611   */\n      swap2\n      pop\n        /* \"#utility.yul\":11625:11645   */\n      tag_350\n        /* \"#utility.yul\":11643:11644   */\n      dup4\n        /* \"#utility.yul\":11625:11645   */\n      tag_307\n      jump\t// in\n    tag_350:\n        /* \"#utility.yul\":11620:11645   */\n      swap3\n      pop\n        /* \"#utility.yul\":11813:11814   */\n      dup2\n        /* \"#utility.yul\":11745:11811   */\n      0xffffffffffffffffffffffffffffffffffffffffffffffffffffffffffffffff\n        /* \"#utility.yul\":11741:11815   */\n      div\n        /* \"#utility.yul\":11738:11739   */\n      dup4\n        /* \"#utility.yul\":11735:11816   */\n      gt\n        /* \"#utility.yul\":11730:11731   */\n      dup3\n        /* \"#utility.yul\":11723:11732   */\n      iszero\n        /* \"#utility.yul\":11716:11733   */\n      iszero\n        /* \"#utility.yul\":11712:11817   */\n      and\n        /* \"#utility.yul\":11709:11840   */\n      iszero\n      tag_351\n      jumpi\n        /* \"#utility.yul\":11820:11838   */\n      tag_352\n      tag_341\n      jump\t// in\n    tag_352:\n        /* \"#utility.yul\":11709:11840   */\n    tag_351:\n        /* \"#utility.yul\":11868:11869   */\n      dup3\n        /* \"#utility.yul\":11865:11866   */\n      dup3\n        /* \"#utility.yul\":11861:11870   */\n      mul\n        /* \"#utility.yul\":11850:11870   */\n      swap1\n      pop\n        /* \"#utility.yul\":11528:11876   */\n      swap3\n      swap2\n      pop\n      pop\n      jump\t// out\n        /* \"#utility.yul\":11882:11978   */\n    tag_266:\n        /* \"#utility.yul\":11919:11926   */\n      0x00\n        /* \"#utility.yul\":11948:11972   */\n      tag_354\n        /* \"#utility.yul\":11966:11971   */\n      dup3\n        /* \"#utility.yul\":11948:11972   */\n      tag_355\n      jump\t// in\n    tag_354:\n        /* \"#utility.yul\":11937:11972   */\n      swap1\n      pop\n        /* \"#utility.yul\":11882:11978   */\n      swap2\n      swap1\n      pop\n      jump\t// out\n        /* \"#utility.yul\":11984:12074   */\n    tag_356:\n        /* \"#utility.yul\":12018:12025   */\n      0x00\n        /* \"#utility.yul\":12061:12066   */\n      dup2\n        /* \"#utility.yul\":12054:12067   */\n      iszero\n        /* \"#utility.yul\":12047:12068   */\n      iszero\n        /* \"#utility.yul\":12036:12068   */\n      swap1\n      pop\n        /* \"#utility.yul\":11984:12074   */\n      swap2\n      swap1\n      pop\n      jump\t// out\n        /* \"#utility.yul\":12080:12190   */\n    tag_358:\n        /* \"#utility.yul\":12131:12138   */\n      0x00\n        /* \"#utility.yul\":12160:12184   */\n      tag_360\n        /* \"#utility.yul\":12178:12183   */\n      dup3\n        /* \"#utility.yul\":12160:12184   */\n      tag_266\n      jump\t// in\n    tag_360:\n        /* \"#utility.yul\":12149:12184   */\n      swap1\n      pop\n        /* \"#utility.yul\":12080:12190   */\n      swap2\n      swap1\n      pop\n      jump\t// out\n        /* \"#utility.yul\":12196:12302   */\n    tag_361:\n        /* \"#utility.yul\":12243:12250   */\n      0x00\n        /* \"#utility.yul\":12272:12296   */\n      tag_363\n        /* \"#utility.yul\":12290:12295   */\n      dup3\n        /* \"#utility.yul\":12272:12296   */\n      tag_266\n      jump\t// in\n    tag_363:\n        /* \"#utility.yul\":12261:12296   */\n      swap1\n      pop\n        /* \"#utility.yul\":12196:12302   */\n      swap2\n      swap1\n      pop\n      jump\t// out\n        /* \"#utility.yul\":12308:12426   */\n    tag_364:\n        /* \"#utility.yul\":12367:12374   */\n      0x00\n        /* \"#utility.yul\":12396:12420   */\n      tag_366\n        /* \"#utility.yul\":12414:12419   */\n      dup3\n        /* \"#utility.yul\":12396:12420   */\n      tag_266\n      jump\t// in\n    tag_366:\n        /* \"#utility.yul\":12385:12420   */\n      swap1\n      pop\n        /* \"#utility.yul\":12308:12426   */\n      swap2\n      swap1\n      pop\n      jump\t// out\n        /* \"#utility.yul\":12432:12542   */\n    tag_367:\n        /* \"#utility.yul\":12483:12490   */\n      0x00\n        /* \"#utility.yul\":12512:12536   */\n      tag_369\n        /* \"#utility.yul\":12530:12535   */\n      dup3\n        /* \"#utility.yul\":12512:12536   */\n      tag_266\n      jump\t// in\n    tag_369:\n        /* \"#utility.yul\":12501:12536   */\n      swap1\n      pop\n        /* \"#utility.yul\":12432:12542   */\n      swap2\n      swap1\n      pop\n      jump\t// out\n        /* \"#utility.yul\":12548:12674   */\n    tag_355:\n        /* \"#utility.yul\":12585:12592   */\n      0x00\n        /* \"#utility.yul\":12625:12667   */\n      0xffffffffffffffffffffffffffffffffffffffff\n        /* \"#utility.yul\":12618:12623   */\n      dup3\n        /* \"#utility.yul\":12614:12668   */\n      and\n        /* \"#utility.yul\":12603:12668   */\n      swap1\n      pop\n        /* \"#utility.yul\":12548:12674   */\n      swap2\n      swap1\n      pop\n      jump\t// out\n        /* \"#utility.yul\":12680:12757   */\n    tag_307:\n        /* \"#utility.yul\":12717:12724   */\n      0x00\n        /* \"#utility.yul\":12746:12751   */\n      dup2\n        /* \"#utility.yul\":12735:12751   */\n      swap1\n      pop\n        /* \"#utility.yul\":12680:12757   */\n      swap2\n      swap1\n      pop\n      jump\t// out\n        /* \"#utility.yul\":12763:13070   */\n    tag_291:\n        /* \"#utility.yul\":12831:12832   */\n      0x00\n        /* \"#utility.yul\":12841:12954   */\n    tag_373:\n        /* \"#utility.yul\":12855:12861   */\n      dup4\n        /* \"#utility.yul\":12852:12853   */\n      dup2\n        /* \"#utility.yul\":12849:12862   */\n      lt\n        /* \"#utility.yul\":12841:12954   */\n      iszero\n      tag_375\n      jumpi\n        /* \"#utility.yul\":12940:12941   */\n      dup1\n        /* \"#utility.yul\":12935:12938   */\n      dup3\n        /* \"#utility.yul\":12931:12942   */\n      add\n        /* \"#utility.yul\":12925:12943   */\n      mload\n        /* \"#utility.yul\":12921:12922   */\n      dup2\n        /* \"#utility.yul\":12916:12919   */\n      dup5\n        /* \"#utility.yul\":12912:12923   */\n      add\n        /* \"#utility.yul\":12905:12944   */\n      mstore\n        /* \"#utility.yul\":12877:12879   */\n      0x20\n        /* \"#utility.yul\":12874:12875   */\n      dup2\n        /* \"#utility.yul\":12870:12880   */\n      add\n        /* \"#utility.yul\":12865:12880   */\n      swap1\n      pop\n        /* \"#utility.yul\":12841:12954   */\n      jump(tag_373)\n    tag_375:\n        /* \"#utility.yul\":12972:12978   */\n      dup4\n        /* \"#utility.yul\":12969:12970   */\n      dup2\n        /* \"#utility.yul\":12966:12979   */\n      gt\n        /* \"#utility.yul\":12963:13064   */\n      iszero\n      tag_376\n      jumpi\n        /* \"#utility.yul\":13052:13053   */\n      0x00\n        /* \"#utility.yul\":13043:13049   */\n      dup5\n        /* \"#utility.yul\":13038:13041   */\n      dup5\n        /* \"#utility.yul\":13034:13050   */\n      add\n        /* \"#utility.yul\":13027:13054   */\n      mstore\n        /* \"#utility.yul\":12963:13064   */\n    tag_376:\n        /* \"#utility.yul\":12812:13070   */\n      pop\n        /* \"#utility.yul\":12763:13070   */\n      pop\n      pop\n      pop\n      jump\t// out\n        /* \"#utility.yul\":13076:13357   */\n    tag_325:\n        /* \"#utility.yul\":13159:13186   */\n      tag_378\n        /* \"#utility.yul\":13181:13185   */\n      dup3\n        /* \"#utility.yul\":13159:13186   */\n      tag_293\n      jump\t// in\n    tag_378:\n        /* \"#utility.yul\":13151:13157   */\n      dup2\n        /* \"#utility.yul\":13147:13187   */\n      add\n        /* \"#utility.yul\":13289:13295   */\n      dup2\n        /* \"#utility.yul\":13277:13287   */\n      dup2\n        /* \"#utility.yul\":13274:13296   */\n      lt\n        /* \"#utility.yul\":13253:13271   */\n      0xffffffffffffffff\n        /* \"#utility.yul\":13241:13251   */\n      dup3\n        /* \"#utility.yul\":13238:13272   */\n      gt\n        /* \"#utility.yul\":13235:13297   */\n      or\n        /* \"#utility.yul\":13232:13320   */\n      iszero\n      tag_379\n      jumpi\n        /* \"#utility.yul\":13300:13318   */\n      tag_380\n      tag_126\n      jump\t// in\n    tag_380:\n        /* \"#utility.yul\":13232:13320   */\n    tag_379:\n        /* \"#utility.yul\":13340:13350   */\n      dup1\n        /* \"#utility.yul\":13336:13338   */\n      0x40\n        /* \"#utility.yul\":13329:13351   */\n      mstore\n        /* \"#utility.yul\":13119:13357   */\n      pop\n        /* \"#utility.yul\":13076:13357   */\n      pop\n      pop\n      jump\t// out\n        /* \"#utility.yul\":13363:13543   */\n    tag_341:\n        /* \"#utility.yul\":13411:13488   */\n      0x4e487b7100000000000000000000000000000000000000000000000000000000\n        /* \"#utility.yul\":13408:13409   */\n      0x00\n        /* \"#utility.yul\":13401:13489   */\n      mstore\n        /* \"#utility.yul\":13508:13512   */\n      0x11\n        /* \"#utility.yul\":13505:13506   */\n      0x04\n        /* \"#utility.yul\":13498:13513   */\n      mstore\n        /* \"#utility.yul\":13532:13536   */\n      0x24\n        /* \"#utility.yul\":13529:13530   */\n      0x00\n        /* \"#utility.yul\":13522:13537   */\n      revert\n        /* \"#utility.yul\":13549:13729   */\n    tag_347:\n        /* \"#utility.yul\":13597:13674   */\n      0x4e487b7100000000000000000000000000000000000000000000000000000000\n        /* \"#utility.yul\":13594:13595   */\n      0x00\n        /* \"#utility.yul\":13587:13675   */\n      mstore\n        /* \"#utility.yul\":13694:13698   */\n      0x12\n        /* \"#utility.yul\":13691:13692   */\n      0x04\n        /* \"#utility.yul\":13684:13699   */\n      mstore\n        /* \"#utility.yul\":13718:13722   */\n      0x24\n        /* \"#utility.yul\":13715:13716   */\n      0x00\n        /* \"#utility.yul\":13708:13723   */\n      revert\n        /* \"#utility.yul\":13735:13915   */\n    tag_130:\n        /* \"#utility.yul\":13783:13860   */\n      0x4e487b7100000000000000000000000000000000000000000000000000000000\n        /* \"#utility.yul\":13780:13781   */\n      0x00\n        /* \"#utility.yul\":13773:13861   */\n      mstore\n        /* \"#utility.yul\":13880:13884   */\n      0x32\n        /* \"#utility.yul\":13877:13878   */\n      0x04\n        /* \"#utility.yul\":13870:13885   */\n      mstore\n        /* \"#utility.yul\":13904:13908   */\n      0x24\n        /* \"#utility.yul\":13901:13902   */\n      0x00\n        /* \"#utility.yul\":13894:13909   */\n      revert\n        /* \"#utility.yul\":13921:14101   */\n    tag_126:\n        /* \"#utility.yul\":13969:14046   */\n      0x4e487b7100000000000000000000000000000000000000000000000000000000\n        /* \"#utility.yul\":13966:13967   */\n      0x00\n        /* \"#utility.yul\":13959:14047   */\n      mstore\n        /* \"#utility.yul\":14066:14070   */\n      0x41\n        /* \"#utility.yul\":14063:14064   */\n      0x04\n        /* \"#utility.yul\":14056:14071   */\n      mstore\n        /* \"#utility.yul\":14090:14094   */\n      0x24\n        /* \"#utility.yul\":14087:14088   */\n      0x00\n        /* \"#utility.yul\":14080:14095   */\n      revert\n        /* \"#utility.yul\":14107:14224   */\n    tag_204:\n        /* \"#utility.yul\":14216:14217   */\n      0x00\n        /* \"#utility.yul\":14213:14214   */\n      dup1\n        /* \"#utility.yul\":14206:14218   */\n      revert\n        /* \"#utility.yul\":14230:14347   */\n    tag_190:\n        /* \"#utility.yul\":14339:14340   */\n      0x00\n        /* \"#utility.yul\":14336:14337   */\n      dup1\n        /* \"#utility.yul\":14329:14341   */\n      revert\n        /* \"#utility.yul\":14353:14470   */\n    tag_238:\n        /* \"#utility.yul\":14462:14463   */\n      0x00\n        /* \"#utility.yul\":14459:14460   */\n      dup1\n        /* \"#utility.yul\":14452:14464   */\n      revert\n        /* \"#utility.yul\":14476:14593   */\n    tag_235:\n        /* \"#utility.yul\":14585:14586   */\n      0x00\n        /* \"#utility.yul\":14582:14583   */\n      dup1\n        /* \"#utility.yul\":14575:14587   */\n      revert\n        /* \"#utility.yul\":14599:14701   */\n    tag_293:\n        /* \"#utility.yul\":14640:14646   */\n      0x00\n        /* \"#utility.yul\":14691:14693   */\n      0x1f\n        /* \"#utility.yul\":14687:14694   */\n      not\n        /* \"#utility.yul\":14682:14684   */\n      0x1f\n        /* \"#utility.yul\":14675:14680   */\n      dup4\n        /* \"#utility.yul\":14671:14685   */\n      add\n        /* \"#utility.yul\":14667:14695   */\n      and\n        /* \"#utility.yul\":14657:14695   */\n      swap1\n      pop\n        /* \"#utility.yul\":14599:14701   */\n      swap2\n      swap1\n      pop\n      jump\t// out\n        /* \"#utility.yul\":14707:14884   */\n    tag_298:\n        /* \"#utility.yul\":14847:14876   */\n      0x536166654d6174683a206164646974696f6e206f766572666c6f770000000000\n        /* \"#utility.yul\":14843:14844   */\n      0x00\n        /* \"#utility.yul\":14835:14841   */\n      dup3\n        /* \"#utility.yul\":14831:14845   */\n      add\n        /* \"#utility.yul\":14824:14877   */\n      mstore\n        /* \"#utility.yul\":14707:14884   */\n      pop\n      jump\t// out\n        /* \"#utility.yul\":14890:15110   */\n    tag_303:\n        /* \"#utility.yul\":15030:15064   */\n      0x536166654d6174683a206d756c7469706c69636174696f6e206f766572666c6f\n        /* \"#utility.yul\":15026:15027   */\n      0x00\n        /* \"#utility.yul\":15018:15024   */\n      dup3\n        /* \"#utility.yul\":15014:15028   */\n      add\n        /* \"#utility.yul\":15007:15065   */\n      mstore\n        /* \"#utility.yul\":15099:15102   */\n      0x7700000000000000000000000000000000000000000000000000000000000000\n        /* \"#utility.yul\":15094:15096   */\n      0x20\n        /* \"#utility.yul\":15086:15092   */\n      dup3\n        /* \"#utility.yul\":15082:15097   */\n      add\n        /* \"#utility.yul\":15075:15103   */\n      mstore\n        /* \"#utility.yul\":14890:15110   */\n      pop\n      jump\t// out\n        /* \"#utility.yul\":15116:15238   */\n    tag_199:\n        /* \"#utility.yul\":15189:15213   */\n      tag_393\n        /* \"#utility.yul\":15207:15212   */\n      dup2\n        /* \"#utility.yul\":15189:15213   */\n      tag_266\n      jump\t// in\n    tag_393:\n        /* \"#utility.yul\":15182:15187   */\n      dup2\n        /* \"#utility.yul\":15179:15214   */\n      eq\n        /* \"#utility.yul\":15169:15232   */\n      tag_394\n      jumpi\n        /* \"#utility.yul\":15228:15229   */\n      0x00\n        /* \"#utility.yul\":15225:15226   */\n      dup1\n        /* \"#utility.yul\":15218:15230   */\n      revert\n        /* \"#utility.yul\":15169:15232   */\n    tag_394:\n        /* \"#utility.yul\":15116:15238   */\n      pop\n      jump\t// out\n        /* \"#utility.yul\":15244:15360   */\n    tag_209:\n        /* \"#utility.yul\":15314:15335   */\n      tag_396\n        /* \"#utility.yul\":15329:15334   */\n      dup2\n        /* \"#utility.yul\":15314:15335   */\n      tag_356\n      jump\t// in\n    tag_396:\n        /* \"#utility.yul\":15307:15312   */\n      dup2\n        /* \"#utility.yul\":15304:15336   */\n      eq\n        /* \"#utility.yul\":15294:15354   */\n      tag_397\n      jumpi\n        /* \"#utility.yul\":15350:15351   */\n      0x00\n        /* \"#utility.yul\":15347:15348   */\n      dup1\n        /* \"#utility.yul\":15340:15352   */\n      revert\n        /* \"#utility.yul\":15294:15354   */\n    tag_397:\n        /* \"#utility.yul\":15244:15360   */\n      pop\n      jump\t// out\n        /* \"#utility.yul\":15366:15516   */\n    tag_213:\n        /* \"#utility.yul\":15453:15491   */\n      tag_399\n        /* \"#utility.yul\":15485:15490   */\n      dup2\n        /* \"#utility.yul\":15453:15491   */\n      tag_358\n      jump\t// in\n    tag_399:\n        /* \"#utility.yul\":15446:15451   */\n      dup2\n        /* \"#utility.yul\":15443:15492   */\n      eq\n        /* \"#utility.yul\":15433:15510   */\n      tag_400\n      jumpi\n        /* \"#utility.yul\":15506:15507   */\n      0x00\n        /* \"#utility.yul\":15503:15504   */\n      dup1\n        /* \"#utility.yul\":15496:15508   */\n      revert\n        /* \"#utility.yul\":15433:15510   */\n    tag_400:\n        /* \"#utility.yul\":15366:15516   */\n      pop\n      jump\t// out\n        /* \"#utility.yul\":15522:15664   */\n    tag_217:\n        /* \"#utility.yul\":15605:15639   */\n      tag_402\n        /* \"#utility.yul\":15633:15638   */\n      dup2\n        /* \"#utility.yul\":15605:15639   */\n      tag_361\n      jump\t// in\n    tag_402:\n        /* \"#utility.yul\":15598:15603   */\n      dup2\n        /* \"#utility.yul\":15595:15640   */\n      eq\n        /* \"#utility.yul\":15585:15658   */\n      tag_403\n      jumpi\n        /* \"#utility.yul\":15654:15655   */\n      0x00\n        /* \"#utility.yul\":15651:15652   */\n      dup1\n        /* \"#utility.yul\":15644:15656   */\n      revert\n        /* \"#utility.yul\":15585:15658   */\n    tag_403:\n        /* \"#utility.yul\":15522:15664   */\n      pop\n      jump\t// out\n        /* \"#utility.yul\":15670:15836   */\n    tag_221:\n        /* \"#utility.yul\":15765:15811   */\n      tag_405\n        /* \"#utility.yul\":15805:15810   */\n      dup2\n        /* \"#utility.yul\":15765:15811   */\n      tag_364\n      jump\t// in\n    tag_405:\n        /* \"#utility.yul\":15758:15763   */\n      dup2\n        /* \"#utility.yul\":15755:15812   */\n      eq\n        /* \"#utility.yul\":15745:15830   */\n      tag_406\n      jumpi\n        /* \"#utility.yul\":15826:15827   */\n      0x00\n        /* \"#utility.yul\":15823:15824   */\n      dup1\n        /* \"#utility.yul\":15816:15828   */\n      revert\n        /* \"#utility.yul\":15745:15830   */\n    tag_406:\n        /* \"#utility.yul\":15670:15836   */\n      pop\n      jump\t// out\n        /* \"#utility.yul\":15842:15992   */\n    tag_225:\n        /* \"#utility.yul\":15929:15967   */\n      tag_408\n        /* \"#utility.yul\":15961:15966   */\n      dup2\n        /* \"#utility.yul\":15929:15967   */\n      tag_367\n      jump\t// in\n    tag_408:\n        /* \"#utility.yul\":15922:15927   */\n      dup2\n        /* \"#utility.yul\":15919:15968   */\n      eq\n        /* \"#utility.yul\":15909:15986   */\n      tag_409\n      jumpi\n        /* \"#utility.yul\":15982:15983   */\n      0x00\n        /* \"#utility.yul\":15979:15980   */\n      dup1\n        /* \"#utility.yul\":15972:15984   */\n      revert\n        /* \"#utility.yul\":15909:15986   */\n    tag_409:\n        /* \"#utility.yul\":15842:15992   */\n      pop\n      jump\t// out\n        /* \"#utility.yul\":15998:16120   */\n    tag_229:\n        /* \"#utility.yul\":16071:16095   */\n      tag_411\n        /* \"#utility.yul\":16089:16094   */\n      dup2\n        /* \"#utility.yul\":16071:16095   */\n      tag_307\n      jump\t// in\n    tag_411:\n        /* \"#utility.yul\":16064:16069   */\n      dup2\n        /* \"#utility.yul\":16061:16096   */\n      eq\n        /* \"#utility.yul\":16051:16114   */\n      tag_412\n      jumpi\n        /* \"#utility.yul\":16110:16111   */\n      0x00\n        /* \"#utility.yul\":16107:16108   */\n      dup1\n        /* \"#utility.yul\":16100:16112   */\n      revert\n        /* \"#utility.yul\":16051:16114   */\n    tag_412:\n        /* \"#utility.yul\":15998:16120   */\n      pop\n      jump\t// out\n\n    auxdata: 0xa2646970667358221220a34adc7890dc402214f6ddfd426c742e50c2f85497608e6b0b8b0431ab58f1e664736f6c63430008070033\n}\n",
				"bytecode": {
					"linkReferences": {},
					"object": "608060405273ae13d989dac2f0debff460ac112a837c89baa7cd6000806101000a81548173ffffffffffffffffffffffffffffffffffffffff021916908373ffffffffffffffffffffffffffffffffffffffff1602179055507378867bbeef44f2326bf8ddd1941a4439382ef2a7600160006101000a81548173ffffffffffffffffffffffffffffffffffffffff021916908373ffffffffffffffffffffffffffffffffffffffff160217905550670de0b6b3a76400006002556a08b200a96f8d058a0000006003553480156100d457600080fd5b506119d7806100e46000396000f3fe608060405234801561001057600080fd5b506004361061004c5760003560e01c80631eff56b914610051578063344e49d914610081578063484f4ea9146100b15780638dd95002146100cf575b600080fd5b61006b600480360381019061006691906112db565b6100ed565b60405161007891906114e1565b60405180910390f35b61009b6004803603810190610096919061126e565b61020c565b6040516100a891906114e1565b60405180910390f35b6100b9610ae9565b6040516100c69190611464565b60405180910390f35b6100d7610b0f565b6040516100e49190611464565b60405180910390f35b6000808273ffffffffffffffffffffffffffffffffffffffff166317caf6f16040518163ffffffff1660e01b815260040160206040518083038186803b15801561013657600080fd5b505afa15801561014a573d6000803e3d6000fd5b505050506040513d601f19601f8201168201806040525081019061016e91906112ae565b8373ffffffffffffffffffffffffffffffffffffffff16631526fe27886040518263ffffffff1660e01b81526004016101a791906114e1565b60206040518083038186803b1580156101bf57600080fd5b505afa1580156101d3573d6000803e3d6000fd5b505050506040513d601f19601f820116820180604052508101906101f791906112ae565b6102019190611659565b905050949350505050565b60008060008473ffffffffffffffffffffffffffffffffffffffff16630dfe16816040518163ffffffff1660e01b815260040160206040518083038186803b15801561025757600080fd5b505afa15801561026b573d6000803e3d6000fd5b505050506040513d601f19601f8201168201806040525081019061028f9190611241565b73ffffffffffffffffffffffffffffffffffffffff1660008054906101000a900473ffffffffffffffffffffffffffffffffffffffff1673ffffffffffffffffffffffffffffffffffffffff16146104865761047f61036b858773ffffffffffffffffffffffffffffffffffffffff16630dfe16816040518163ffffffff1660e01b815260040160206040518083038186803b15801561032e57600080fd5b505afa158015610342573d6000803e3d6000fd5b505050506040513d601f19601f820116820180604052508101906103669190611241565b610b33565b8673ffffffffffffffffffffffffffffffffffffffff16630dfe16816040518163ffffffff1660e01b815260040160206040518083038186803b1580156103b157600080fd5b505afa1580156103c5573d6000803e3d6000fd5b505050506040513d601f19601f820116820180604052508101906103e99190611241565b73ffffffffffffffffffffffffffffffffffffffff166370a08231886040518263ffffffff1660e01b81526004016104219190611464565b60206040518083038186803b15801561043957600080fd5b505afa15801561044d573d6000803e3d6000fd5b505050506040513d601f19601f8201168201806040525081019061047191906112ae565b610d6790919063ffffffff16565b9150610627565b610624610510858773ffffffffffffffffffffffffffffffffffffffff16630dfe16816040518163ffffffff1660e01b815260040160206040518083038186803b1580156104d357600080fd5b505afa1580156104e7573d6000803e3d6000fd5b505050506040513d601f19601f8201168201806040525081019061050b9190611241565b610de2565b8673ffffffffffffffffffffffffffffffffffffffff16630dfe16816040518163ffffffff1660e01b815260040160206040518083038186803b15801561055657600080fd5b505afa15801561056a573d6000803e3d6000fd5b505050506040513d601f19601f8201168201806040525081019061058e9190611241565b73ffffffffffffffffffffffffffffffffffffffff166370a08231886040518263ffffffff1660e01b81526004016105c69190611464565b60206040518083038186803b1580156105de57600080fd5b505afa1580156105f2573d6000803e3d6000fd5b505050506040513d601f19601f8201168201806040525081019061061691906112ae565b610d6790919063ffffffff16565b91505b8473ffffffffffffffffffffffffffffffffffffffff1663d21220a76040518163ffffffff1660e01b815260040160206040518083038186803b15801561066d57600080fd5b505afa158015610681573d6000803e3d6000fd5b505050506040513d601f19601f820116820180604052508101906106a59190611241565b73ffffffffffffffffffffffffffffffffffffffff1660008054906101000a900473ffffffffffffffffffffffffffffffffffffffff1673ffffffffffffffffffffffffffffffffffffffff161461089c57610895610781858773ffffffffffffffffffffffffffffffffffffffff1663d21220a76040518163ffffffff1660e01b815260040160206040518083038186803b15801561074457600080fd5b505afa158015610758573d6000803e3d6000fd5b505050506040513d601f19601f8201168201806040525081019061077c9190611241565b610b33565b8673ffffffffffffffffffffffffffffffffffffffff1663d21220a76040518163ffffffff1660e01b815260040160206040518083038186803b1580156107c757600080fd5b505afa1580156107db573d6000803e3d6000fd5b505050506040513d601f19601f820116820180604052508101906107ff9190611241565b73ffffffffffffffffffffffffffffffffffffffff166370a08231886040518263ffffffff1660e01b81526004016108379190611464565b60206040518083038186803b15801561084f57600080fd5b505afa158015610863573d6000803e3d6000fd5b505050506040513d601f19601f8201168201806040525081019061088791906112ae565b610d6790919063ffffffff16565b9050610a3d565b610a3a610926858773ffffffffffffffffffffffffffffffffffffffff1663d21220a76040518163ffffffff1660e01b815260040160206040518083038186803b1580156108e957600080fd5b505afa1580156108fd573d6000803e3d6000fd5b505050506040513d601f19601f820116820180604052508101906109219190611241565b610de2565b8673ffffffffffffffffffffffffffffffffffffffff1663d21220a76040518163ffffffff1660e01b815260040160206040518083038186803b15801561096c57600080fd5b505afa158015610980573d6000803e3d6000fd5b505050506040513d601f19601f820116820180604052508101906109a49190611241565b73ffffffffffffffffffffffffffffffffffffffff166370a08231886040518263ffffffff1660e01b81526004016109dc9190611464565b60206040518083038186803b1580156109f457600080fd5b505afa158015610a08573d6000803e3d6000fd5b505050506040513d601f19601f82011682018060405250810190610a2c91906112ae565b610d6790919063ffffffff16565b90505b610adf8573ffffffffffffffffffffffffffffffffffffffff166318160ddd6040518163ffffffff1660e01b815260040160206040518083038186803b158015610a8657600080fd5b505afa158015610a9a573d6000803e3d6000fd5b505050506040513d601f19601f82011682018060405250810190610abe91906112ae565b610ad18385610fa790919063ffffffff16565b61100590919063ffffffff16565b9250505092915050565b600160009054906101000a900473ffffffffffffffffffffffffffffffffffffffff1681565b60008054906101000a900473ffffffffffffffffffffffffffffffffffffffff1681565b600080600367ffffffffffffffff811115610b5157610b50611834565b5b604051908082528060200260200182016040528015610b7f5781602001602082028036833780820191505090505b5090508281600081518110610b9757610b96611805565b5b602002602001019073ffffffffffffffffffffffffffffffffffffffff16908173ffffffffffffffffffffffffffffffffffffffff168152505060008054906101000a900473ffffffffffffffffffffffffffffffffffffffff1681600181518110610c0657610c05611805565b5b602002602001019073ffffffffffffffffffffffffffffffffffffffff16908173ffffffffffffffffffffffffffffffffffffffff1681525050600160009054906101000a900473ffffffffffffffffffffffffffffffffffffffff1681600281518110610c7757610c76611805565b5b602002602001019073ffffffffffffffffffffffffffffffffffffffff16908173ffffffffffffffffffffffffffffffffffffffff16815250508373ffffffffffffffffffffffffffffffffffffffff1663d06ca61f600254836040518363ffffffff1660e01b8152600401610cee9291906114fc565b60006040518083038186803b158015610d0657600080fd5b505afa158015610d1a573d6000803e3d6000fd5b505050506040513d6000823e3d601f19601f82011682018060405250810190610d4391906111f8565b600281518110610d5657610d55611805565b5b602002602001015191505092915050565b600080831415610d7a5760009050610ddc565b60008284610d889190611659565b9050828482610d979190611628565b14610dd7576040517f08c379a0000000000000000000000000000000000000000000000000000000008152600401610dce906114c1565b60405180910390fd5b809150505b92915050565b600080600267ffffffffffffffff811115610e0057610dff611834565b5b604051908082528060200260200182016040528015610e2e5781602001602082028036833780820191505090505b5090508281600081518110610e4657610e45611805565b5b602002602001019073ffffffffffffffffffffffffffffffffffffffff16908173ffffffffffffffffffffffffffffffffffffffff1681525050600160009054906101000a900473ffffffffffffffffffffffffffffffffffffffff1681600181518110610eb757610eb6611805565b5b602002602001019073ffffffffffffffffffffffffffffffffffffffff16908173ffffffffffffffffffffffffffffffffffffffff16815250508373ffffffffffffffffffffffffffffffffffffffff1663d06ca61f600254836040518363ffffffff1660e01b8152600401610f2e9291906114fc565b60006040518083038186803b158015610f4657600080fd5b505afa158015610f5a573d6000803e3d6000fd5b505050506040513d6000823e3d601f19601f82011682018060405250810190610f8391906111f8565b600181518110610f9657610f95611805565b5b602002602001015191505092915050565b6000808284610fb691906115d2565b905083811015610ffb576040517f08c379a0000000000000000000000000000000000000000000000000000000008152600401610ff2906114a1565b60405180910390fd5b8091505092915050565b600061104783836040518060400160405280601a81526020017f536166654d6174683a206469766973696f6e206279207a65726f00000000000081525061104f565b905092915050565b60008083118290611096576040517f08c379a000000000000000000000000000000000000000000000000000000000815260040161108d919061147f565b60405180910390fd5b50600083856110a59190611628565b9050809150509392505050565b60006110c56110c084611551565b61152c565b905080838252602082019050828560208602820111156110e8576110e7611868565b5b60005b8581101561111857816110fe88826111e3565b8452602084019350602083019250506001810190506110eb565b5050509392505050565b60008135905061113181611900565b92915050565b600082601f83011261114c5761114b611863565b5b815161115c8482602086016110b2565b91505092915050565b60008135905061117481611917565b92915050565b6000815190506111898161192e565b92915050565b60008135905061119e81611945565b92915050565b6000813590506111b38161195c565b92915050565b6000813590506111c881611973565b92915050565b6000813590506111dd8161198a565b92915050565b6000815190506111f28161198a565b92915050565b60006020828403121561120e5761120d611872565b5b600082015167ffffffffffffffff81111561122c5761122b61186d565b5b61123884828501611137565b91505092915050565b60006020828403121561125757611256611872565b5b60006112658482850161117a565b91505092915050565b6000806040838503121561128557611284611872565b5b60006112938582860161118f565b92505060206112a4858286016111b9565b9150509250929050565b6000602082840312156112c4576112c3611872565b5b60006112d2848285016111e3565b91505092915050565b600080600080608085870312156112f5576112f4611872565b5b6000611303878288016111ce565b945050602061131487828801611122565b935050604061132587828801611165565b9250506060611336878288016111a4565b91505092959194509250565b600061134e838361135a565b60208301905092915050565b611363816116b3565b82525050565b611372816116b3565b82525050565b60006113838261158d565b61138d81856115b0565b93506113988361157d565b8060005b838110156113c95781516113b08882611342565b97506113bb836115a3565b92505060018101905061139c565b5085935050505092915050565b60006113e182611598565b6113eb81856115c1565b93506113fb818560208601611743565b61140481611877565b840191505092915050565b600061141c601b836115c1565b915061142782611888565b602082019050919050565b600061143f6021836115c1565b915061144a826118b1565b604082019050919050565b61145e81611739565b82525050565b60006020820190506114796000830184611369565b92915050565b6000602082019050818103600083015261149981846113d6565b905092915050565b600060208201905081810360008301526114ba8161140f565b9050919050565b600060208201905081810360008301526114da81611432565b9050919050565b60006020820190506114f66000830184611455565b92915050565b60006040820190506115116000830185611455565b81810360208301526115238184611378565b90509392505050565b6000611536611547565b90506115428282611776565b919050565b6000604051905090565b600067ffffffffffffffff82111561156c5761156b611834565b5b602082029050602081019050919050565b6000819050602082019050919050565b600081519050919050565b600081519050919050565b6000602082019050919050565b600082825260208201905092915050565b600082825260208201905092915050565b60006115dd82611739565b91506115e883611739565b9250827fffffffffffffffffffffffffffffffffffffffffffffffffffffffffffffffff0382111561161d5761161c6117a7565b5b828201905092915050565b600061163382611739565b915061163e83611739565b92508261164e5761164d6117d6565b5b828204905092915050565b600061166482611739565b915061166f83611739565b9250817fffffffffffffffffffffffffffffffffffffffffffffffffffffffffffffffff04831182151516156116a8576116a76117a7565b5b828202905092915050565b60006116be82611719565b9050919050565b60008115159050919050565b60006116dc826116b3565b9050919050565b60006116ee826116b3565b9050919050565b6000611700826116b3565b9050919050565b6000611712826116b3565b9050919050565b600073ffffffffffffffffffffffffffffffffffffffff82169050919050565b6000819050919050565b60005b83811015611761578082015181840152602081019050611746565b83811115611770576000848401525b50505050565b61177f82611877565b810181811067ffffffffffffffff8211171561179e5761179d611834565b5b80604052505050565b7f4e487b7100000000000000000000000000000000000000000000000000000000600052601160045260246000fd5b7f4e487b7100000000000000000000000000000000000000000000000000000000600052601260045260246000fd5b7f4e487b7100000000000000000000000000000000000000000000000000000000600052603260045260246000fd5b7f4e487b7100000000000000000000000000000000000000000000000000000000600052604160045260246000fd5b600080fd5b600080fd5b600080fd5b600080fd5b6000601f19601f8301169050919050565b7f536166654d6174683a206164646974696f6e206f766572666c6f770000000000600082015250565b7f536166654d6174683a206d756c7469706c69636174696f6e206f766572666c6f60008201527f7700000000000000000000000000000000000000000000000000000000000000602082015250565b611909816116b3565b811461191457600080fd5b50565b611920816116c5565b811461192b57600080fd5b50565b611937816116d1565b811461194257600080fd5b50565b61194e816116e3565b811461195957600080fd5b50565b611965816116f5565b811461197057600080fd5b50565b61197c81611707565b811461198757600080fd5b50565b61199381611739565b811461199e57600080fd5b5056fea2646970667358221220a34adc7890dc402214f6ddfd426c742e50c2f85497608e6b0b8b0431ab58f1e664736f6c63430008070033",
					"opcodes": "PUSH1 0x80 PUSH1 0x40 MSTORE PUSH20 0xAE13D989DAC2F0DEBFF460AC112A837C89BAA7CD PUSH1 0x0 DUP1 PUSH2 0x100 EXP DUP2 SLOAD DUP2 PUSH20 0xFFFFFFFFFFFFFFFFFFFFFFFFFFFFFFFFFFFFFFFF MUL NOT AND SWAP1 DUP4 PUSH20 0xFFFFFFFFFFFFFFFFFFFFFFFFFFFFFFFFFFFFFFFF AND MUL OR SWAP1 SSTORE POP PUSH20 0x78867BBEEF44F2326BF8DDD1941A4439382EF2A7 PUSH1 0x1 PUSH1 0x0 PUSH2 0x100 EXP DUP2 SLOAD DUP2 PUSH20 0xFFFFFFFFFFFFFFFFFFFFFFFFFFFFFFFFFFFFFFFF MUL NOT AND SWAP1 DUP4 PUSH20 0xFFFFFFFFFFFFFFFFFFFFFFFFFFFFFFFFFFFFFFFF AND MUL OR SWAP1 SSTORE POP PUSH8 0xDE0B6B3A7640000 PUSH1 0x2 SSTORE PUSH11 0x8B200A96F8D058A000000 PUSH1 0x3 SSTORE CALLVALUE DUP1 ISZERO PUSH2 0xD4 JUMPI PUSH1 0x0 DUP1 REVERT JUMPDEST POP PUSH2 0x19D7 DUP1 PUSH2 0xE4 PUSH1 0x0 CODECOPY PUSH1 0x0 RETURN INVALID PUSH1 0x80 PUSH1 0x40 MSTORE CALLVALUE DUP1 ISZERO PUSH2 0x10 JUMPI PUSH1 0x0 DUP1 REVERT JUMPDEST POP PUSH1 0x4 CALLDATASIZE LT PUSH2 0x4C JUMPI PUSH1 0x0 CALLDATALOAD PUSH1 0xE0 SHR DUP1 PUSH4 0x1EFF56B9 EQ PUSH2 0x51 JUMPI DUP1 PUSH4 0x344E49D9 EQ PUSH2 0x81 JUMPI DUP1 PUSH4 0x484F4EA9 EQ PUSH2 0xB1 JUMPI DUP1 PUSH4 0x8DD95002 EQ PUSH2 0xCF JUMPI JUMPDEST PUSH1 0x0 DUP1 REVERT JUMPDEST PUSH2 0x6B PUSH1 0x4 DUP1 CALLDATASIZE SUB DUP2 ADD SWAP1 PUSH2 0x66 SWAP2 SWAP1 PUSH2 0x12DB JUMP JUMPDEST PUSH2 0xED JUMP JUMPDEST PUSH1 0x40 MLOAD PUSH2 0x78 SWAP2 SWAP1 PUSH2 0x14E1 JUMP JUMPDEST PUSH1 0x40 MLOAD DUP1 SWAP2 SUB SWAP1 RETURN JUMPDEST PUSH2 0x9B PUSH1 0x4 DUP1 CALLDATASIZE SUB DUP2 ADD SWAP1 PUSH2 0x96 SWAP2 SWAP1 PUSH2 0x126E JUMP JUMPDEST PUSH2 0x20C JUMP JUMPDEST PUSH1 0x40 MLOAD PUSH2 0xA8 SWAP2 SWAP1 PUSH2 0x14E1 JUMP JUMPDEST PUSH1 0x40 MLOAD DUP1 SWAP2 SUB SWAP1 RETURN JUMPDEST PUSH2 0xB9 PUSH2 0xAE9 JUMP JUMPDEST PUSH1 0x40 MLOAD PUSH2 0xC6 SWAP2 SWAP1 PUSH2 0x1464 JUMP JUMPDEST PUSH1 0x40 MLOAD DUP1 SWAP2 SUB SWAP1 RETURN JUMPDEST PUSH2 0xD7 PUSH2 0xB0F JUMP JUMPDEST PUSH1 0x40 MLOAD PUSH2 0xE4 SWAP2 SWAP1 PUSH2 0x1464 JUMP JUMPDEST PUSH1 0x40 MLOAD DUP1 SWAP2 SUB SWAP1 RETURN JUMPDEST PUSH1 0x0 DUP1 DUP3 PUSH20 0xFFFFFFFFFFFFFFFFFFFFFFFFFFFFFFFFFFFFFFFF AND PUSH4 0x17CAF6F1 PUSH1 0x40 MLOAD DUP2 PUSH4 0xFFFFFFFF AND PUSH1 0xE0 SHL DUP2 MSTORE PUSH1 0x4 ADD PUSH1 0x20 PUSH1 0x40 MLOAD DUP1 DUP4 SUB DUP2 DUP7 DUP1 EXTCODESIZE ISZERO DUP1 ISZERO PUSH2 0x136 JUMPI PUSH1 0x0 DUP1 REVERT JUMPDEST POP GAS STATICCALL ISZERO DUP1 ISZERO PUSH2 0x14A JUMPI RETURNDATASIZE PUSH1 0x0 DUP1 RETURNDATACOPY RETURNDATASIZE PUSH1 0x0 REVERT JUMPDEST POP POP POP POP PUSH1 0x40 MLOAD RETURNDATASIZE PUSH1 0x1F NOT PUSH1 0x1F DUP3 ADD AND DUP3 ADD DUP1 PUSH1 0x40 MSTORE POP DUP2 ADD SWAP1 PUSH2 0x16E SWAP2 SWAP1 PUSH2 0x12AE JUMP JUMPDEST DUP4 PUSH20 0xFFFFFFFFFFFFFFFFFFFFFFFFFFFFFFFFFFFFFFFF AND PUSH4 0x1526FE27 DUP9 PUSH1 0x40 MLOAD DUP3 PUSH4 0xFFFFFFFF AND PUSH1 0xE0 SHL DUP2 MSTORE PUSH1 0x4 ADD PUSH2 0x1A7 SWAP2 SWAP1 PUSH2 0x14E1 JUMP JUMPDEST PUSH1 0x20 PUSH1 0x40 MLOAD DUP1 DUP4 SUB DUP2 DUP7 DUP1 EXTCODESIZE ISZERO DUP1 ISZERO PUSH2 0x1BF JUMPI PUSH1 0x0 DUP1 REVERT JUMPDEST POP GAS STATICCALL ISZERO DUP1 ISZERO PUSH2 0x1D3 JUMPI RETURNDATASIZE PUSH1 0x0 DUP1 RETURNDATACOPY RETURNDATASIZE PUSH1 0x0 REVERT JUMPDEST POP POP POP POP PUSH1 0x40 MLOAD RETURNDATASIZE PUSH1 0x1F NOT PUSH1 0x1F DUP3 ADD AND DUP3 ADD DUP1 PUSH1 0x40 MSTORE POP DUP2 ADD SWAP1 PUSH2 0x1F7 SWAP2 SWAP1 PUSH2 0x12AE JUMP JUMPDEST PUSH2 0x201 SWAP2 SWAP1 PUSH2 0x1659 JUMP JUMPDEST SWAP1 POP POP SWAP5 SWAP4 POP POP POP POP JUMP JUMPDEST PUSH1 0x0 DUP1 PUSH1 0x0 DUP5 PUSH20 0xFFFFFFFFFFFFFFFFFFFFFFFFFFFFFFFFFFFFFFFF AND PUSH4 0xDFE1681 PUSH1 0x40 MLOAD DUP2 PUSH4 0xFFFFFFFF AND PUSH1 0xE0 SHL DUP2 MSTORE PUSH1 0x4 ADD PUSH1 0x20 PUSH1 0x40 MLOAD DUP1 DUP4 SUB DUP2 DUP7 DUP1 EXTCODESIZE ISZERO DUP1 ISZERO PUSH2 0x257 JUMPI PUSH1 0x0 DUP1 REVERT JUMPDEST POP GAS STATICCALL ISZERO DUP1 ISZERO PUSH2 0x26B JUMPI RETURNDATASIZE PUSH1 0x0 DUP1 RETURNDATACOPY RETURNDATASIZE PUSH1 0x0 REVERT JUMPDEST POP POP POP POP PUSH1 0x40 MLOAD RETURNDATASIZE PUSH1 0x1F NOT PUSH1 0x1F DUP3 ADD AND DUP3 ADD DUP1 PUSH1 0x40 MSTORE POP DUP2 ADD SWAP1 PUSH2 0x28F SWAP2 SWAP1 PUSH2 0x1241 JUMP JUMPDEST PUSH20 0xFFFFFFFFFFFFFFFFFFFFFFFFFFFFFFFFFFFFFFFF AND PUSH1 0x0 DUP1 SLOAD SWAP1 PUSH2 0x100 EXP SWAP1 DIV PUSH20 0xFFFFFFFFFFFFFFFFFFFFFFFFFFFFFFFFFFFFFFFF AND PUSH20 0xFFFFFFFFFFFFFFFFFFFFFFFFFFFFFFFFFFFFFFFF AND EQ PUSH2 0x486 JUMPI PUSH2 0x47F PUSH2 0x36B DUP6 DUP8 PUSH20 0xFFFFFFFFFFFFFFFFFFFFFFFFFFFFFFFFFFFFFFFF AND PUSH4 0xDFE1681 PUSH1 0x40 MLOAD DUP2 PUSH4 0xFFFFFFFF AND PUSH1 0xE0 SHL DUP2 MSTORE PUSH1 0x4 ADD PUSH1 0x20 PUSH1 0x40 MLOAD DUP1 DUP4 SUB DUP2 DUP7 DUP1 EXTCODESIZE ISZERO DUP1 ISZERO PUSH2 0x32E JUMPI PUSH1 0x0 DUP1 REVERT JUMPDEST POP GAS STATICCALL ISZERO DUP1 ISZERO PUSH2 0x342 JUMPI RETURNDATASIZE PUSH1 0x0 DUP1 RETURNDATACOPY RETURNDATASIZE PUSH1 0x0 REVERT JUMPDEST POP POP POP POP PUSH1 0x40 MLOAD RETURNDATASIZE PUSH1 0x1F NOT PUSH1 0x1F DUP3 ADD AND DUP3 ADD DUP1 PUSH1 0x40 MSTORE POP DUP2 ADD SWAP1 PUSH2 0x366 SWAP2 SWAP1 PUSH2 0x1241 JUMP JUMPDEST PUSH2 0xB33 JUMP JUMPDEST DUP7 PUSH20 0xFFFFFFFFFFFFFFFFFFFFFFFFFFFFFFFFFFFFFFFF AND PUSH4 0xDFE1681 PUSH1 0x40 MLOAD DUP2 PUSH4 0xFFFFFFFF AND PUSH1 0xE0 SHL DUP2 MSTORE PUSH1 0x4 ADD PUSH1 0x20 PUSH1 0x40 MLOAD DUP1 DUP4 SUB DUP2 DUP7 DUP1 EXTCODESIZE ISZERO DUP1 ISZERO PUSH2 0x3B1 JUMPI PUSH1 0x0 DUP1 REVERT JUMPDEST POP GAS STATICCALL ISZERO DUP1 ISZERO PUSH2 0x3C5 JUMPI RETURNDATASIZE PUSH1 0x0 DUP1 RETURNDATACOPY RETURNDATASIZE PUSH1 0x0 REVERT JUMPDEST POP POP POP POP PUSH1 0x40 MLOAD RETURNDATASIZE PUSH1 0x1F NOT PUSH1 0x1F DUP3 ADD AND DUP3 ADD DUP1 PUSH1 0x40 MSTORE POP DUP2 ADD SWAP1 PUSH2 0x3E9 SWAP2 SWAP1 PUSH2 0x1241 JUMP JUMPDEST PUSH20 0xFFFFFFFFFFFFFFFFFFFFFFFFFFFFFFFFFFFFFFFF AND PUSH4 0x70A08231 DUP9 PUSH1 0x40 MLOAD DUP3 PUSH4 0xFFFFFFFF AND PUSH1 0xE0 SHL DUP2 MSTORE PUSH1 0x4 ADD PUSH2 0x421 SWAP2 SWAP1 PUSH2 0x1464 JUMP JUMPDEST PUSH1 0x20 PUSH1 0x40 MLOAD DUP1 DUP4 SUB DUP2 DUP7 DUP1 EXTCODESIZE ISZERO DUP1 ISZERO PUSH2 0x439 JUMPI PUSH1 0x0 DUP1 REVERT JUMPDEST POP GAS STATICCALL ISZERO DUP1 ISZERO PUSH2 0x44D JUMPI RETURNDATASIZE PUSH1 0x0 DUP1 RETURNDATACOPY RETURNDATASIZE PUSH1 0x0 REVERT JUMPDEST POP POP POP POP PUSH1 0x40 MLOAD RETURNDATASIZE PUSH1 0x1F NOT PUSH1 0x1F DUP3 ADD AND DUP3 ADD DUP1 PUSH1 0x40 MSTORE POP DUP2 ADD SWAP1 PUSH2 0x471 SWAP2 SWAP1 PUSH2 0x12AE JUMP JUMPDEST PUSH2 0xD67 SWAP1 SWAP2 SWAP1 PUSH4 0xFFFFFFFF AND JUMP JUMPDEST SWAP2 POP PUSH2 0x627 JUMP JUMPDEST PUSH2 0x624 PUSH2 0x510 DUP6 DUP8 PUSH20 0xFFFFFFFFFFFFFFFFFFFFFFFFFFFFFFFFFFFFFFFF AND PUSH4 0xDFE1681 PUSH1 0x40 MLOAD DUP2 PUSH4 0xFFFFFFFF AND PUSH1 0xE0 SHL DUP2 MSTORE PUSH1 0x4 ADD PUSH1 0x20 PUSH1 0x40 MLOAD DUP1 DUP4 SUB DUP2 DUP7 DUP1 EXTCODESIZE ISZERO DUP1 ISZERO PUSH2 0x4D3 JUMPI PUSH1 0x0 DUP1 REVERT JUMPDEST POP GAS STATICCALL ISZERO DUP1 ISZERO PUSH2 0x4E7 JUMPI RETURNDATASIZE PUSH1 0x0 DUP1 RETURNDATACOPY RETURNDATASIZE PUSH1 0x0 REVERT JUMPDEST POP POP POP POP PUSH1 0x40 MLOAD RETURNDATASIZE PUSH1 0x1F NOT PUSH1 0x1F DUP3 ADD AND DUP3 ADD DUP1 PUSH1 0x40 MSTORE POP DUP2 ADD SWAP1 PUSH2 0x50B SWAP2 SWAP1 PUSH2 0x1241 JUMP JUMPDEST PUSH2 0xDE2 JUMP JUMPDEST DUP7 PUSH20 0xFFFFFFFFFFFFFFFFFFFFFFFFFFFFFFFFFFFFFFFF AND PUSH4 0xDFE1681 PUSH1 0x40 MLOAD DUP2 PUSH4 0xFFFFFFFF AND PUSH1 0xE0 SHL DUP2 MSTORE PUSH1 0x4 ADD PUSH1 0x20 PUSH1 0x40 MLOAD DUP1 DUP4 SUB DUP2 DUP7 DUP1 EXTCODESIZE ISZERO DUP1 ISZERO PUSH2 0x556 JUMPI PUSH1 0x0 DUP1 REVERT JUMPDEST POP GAS STATICCALL ISZERO DUP1 ISZERO PUSH2 0x56A JUMPI RETURNDATASIZE PUSH1 0x0 DUP1 RETURNDATACOPY RETURNDATASIZE PUSH1 0x0 REVERT JUMPDEST POP POP POP POP PUSH1 0x40 MLOAD RETURNDATASIZE PUSH1 0x1F NOT PUSH1 0x1F DUP3 ADD AND DUP3 ADD DUP1 PUSH1 0x40 MSTORE POP DUP2 ADD SWAP1 PUSH2 0x58E SWAP2 SWAP1 PUSH2 0x1241 JUMP JUMPDEST PUSH20 0xFFFFFFFFFFFFFFFFFFFFFFFFFFFFFFFFFFFFFFFF AND PUSH4 0x70A08231 DUP9 PUSH1 0x40 MLOAD DUP3 PUSH4 0xFFFFFFFF AND PUSH1 0xE0 SHL DUP2 MSTORE PUSH1 0x4 ADD PUSH2 0x5C6 SWAP2 SWAP1 PUSH2 0x1464 JUMP JUMPDEST PUSH1 0x20 PUSH1 0x40 MLOAD DUP1 DUP4 SUB DUP2 DUP7 DUP1 EXTCODESIZE ISZERO DUP1 ISZERO PUSH2 0x5DE JUMPI PUSH1 0x0 DUP1 REVERT JUMPDEST POP GAS STATICCALL ISZERO DUP1 ISZERO PUSH2 0x5F2 JUMPI RETURNDATASIZE PUSH1 0x0 DUP1 RETURNDATACOPY RETURNDATASIZE PUSH1 0x0 REVERT JUMPDEST POP POP POP POP PUSH1 0x40 MLOAD RETURNDATASIZE PUSH1 0x1F NOT PUSH1 0x1F DUP3 ADD AND DUP3 ADD DUP1 PUSH1 0x40 MSTORE POP DUP2 ADD SWAP1 PUSH2 0x616 SWAP2 SWAP1 PUSH2 0x12AE JUMP JUMPDEST PUSH2 0xD67 SWAP1 SWAP2 SWAP1 PUSH4 0xFFFFFFFF AND JUMP JUMPDEST SWAP2 POP JUMPDEST DUP5 PUSH20 0xFFFFFFFFFFFFFFFFFFFFFFFFFFFFFFFFFFFFFFFF AND PUSH4 0xD21220A7 PUSH1 0x40 MLOAD DUP2 PUSH4 0xFFFFFFFF AND PUSH1 0xE0 SHL DUP2 MSTORE PUSH1 0x4 ADD PUSH1 0x20 PUSH1 0x40 MLOAD DUP1 DUP4 SUB DUP2 DUP7 DUP1 EXTCODESIZE ISZERO DUP1 ISZERO PUSH2 0x66D JUMPI PUSH1 0x0 DUP1 REVERT JUMPDEST POP GAS STATICCALL ISZERO DUP1 ISZERO PUSH2 0x681 JUMPI RETURNDATASIZE PUSH1 0x0 DUP1 RETURNDATACOPY RETURNDATASIZE PUSH1 0x0 REVERT JUMPDEST POP POP POP POP PUSH1 0x40 MLOAD RETURNDATASIZE PUSH1 0x1F NOT PUSH1 0x1F DUP3 ADD AND DUP3 ADD DUP1 PUSH1 0x40 MSTORE POP DUP2 ADD SWAP1 PUSH2 0x6A5 SWAP2 SWAP1 PUSH2 0x1241 JUMP JUMPDEST PUSH20 0xFFFFFFFFFFFFFFFFFFFFFFFFFFFFFFFFFFFFFFFF AND PUSH1 0x0 DUP1 SLOAD SWAP1 PUSH2 0x100 EXP SWAP1 DIV PUSH20 0xFFFFFFFFFFFFFFFFFFFFFFFFFFFFFFFFFFFFFFFF AND PUSH20 0xFFFFFFFFFFFFFFFFFFFFFFFFFFFFFFFFFFFFFFFF AND EQ PUSH2 0x89C JUMPI PUSH2 0x895 PUSH2 0x781 DUP6 DUP8 PUSH20 0xFFFFFFFFFFFFFFFFFFFFFFFFFFFFFFFFFFFFFFFF AND PUSH4 0xD21220A7 PUSH1 0x40 MLOAD DUP2 PUSH4 0xFFFFFFFF AND PUSH1 0xE0 SHL DUP2 MSTORE PUSH1 0x4 ADD PUSH1 0x20 PUSH1 0x40 MLOAD DUP1 DUP4 SUB DUP2 DUP7 DUP1 EXTCODESIZE ISZERO DUP1 ISZERO PUSH2 0x744 JUMPI PUSH1 0x0 DUP1 REVERT JUMPDEST POP GAS STATICCALL ISZERO DUP1 ISZERO PUSH2 0x758 JUMPI RETURNDATASIZE PUSH1 0x0 DUP1 RETURNDATACOPY RETURNDATASIZE PUSH1 0x0 REVERT JUMPDEST POP POP POP POP PUSH1 0x40 MLOAD RETURNDATASIZE PUSH1 0x1F NOT PUSH1 0x1F DUP3 ADD AND DUP3 ADD DUP1 PUSH1 0x40 MSTORE POP DUP2 ADD SWAP1 PUSH2 0x77C SWAP2 SWAP1 PUSH2 0x1241 JUMP JUMPDEST PUSH2 0xB33 JUMP JUMPDEST DUP7 PUSH20 0xFFFFFFFFFFFFFFFFFFFFFFFFFFFFFFFFFFFFFFFF AND PUSH4 0xD21220A7 PUSH1 0x40 MLOAD DUP2 PUSH4 0xFFFFFFFF AND PUSH1 0xE0 SHL DUP2 MSTORE PUSH1 0x4 ADD PUSH1 0x20 PUSH1 0x40 MLOAD DUP1 DUP4 SUB DUP2 DUP7 DUP1 EXTCODESIZE ISZERO DUP1 ISZERO PUSH2 0x7C7 JUMPI PUSH1 0x0 DUP1 REVERT JUMPDEST POP GAS STATICCALL ISZERO DUP1 ISZERO PUSH2 0x7DB JUMPI RETURNDATASIZE PUSH1 0x0 DUP1 RETURNDATACOPY RETURNDATASIZE PUSH1 0x0 REVERT JUMPDEST POP POP POP POP PUSH1 0x40 MLOAD RETURNDATASIZE PUSH1 0x1F NOT PUSH1 0x1F DUP3 ADD AND DUP3 ADD DUP1 PUSH1 0x40 MSTORE POP DUP2 ADD SWAP1 PUSH2 0x7FF SWAP2 SWAP1 PUSH2 0x1241 JUMP JUMPDEST PUSH20 0xFFFFFFFFFFFFFFFFFFFFFFFFFFFFFFFFFFFFFFFF AND PUSH4 0x70A08231 DUP9 PUSH1 0x40 MLOAD DUP3 PUSH4 0xFFFFFFFF AND PUSH1 0xE0 SHL DUP2 MSTORE PUSH1 0x4 ADD PUSH2 0x837 SWAP2 SWAP1 PUSH2 0x1464 JUMP JUMPDEST PUSH1 0x20 PUSH1 0x40 MLOAD DUP1 DUP4 SUB DUP2 DUP7 DUP1 EXTCODESIZE ISZERO DUP1 ISZERO PUSH2 0x84F JUMPI PUSH1 0x0 DUP1 REVERT JUMPDEST POP GAS STATICCALL ISZERO DUP1 ISZERO PUSH2 0x863 JUMPI RETURNDATASIZE PUSH1 0x0 DUP1 RETURNDATACOPY RETURNDATASIZE PUSH1 0x0 REVERT JUMPDEST POP POP POP POP PUSH1 0x40 MLOAD RETURNDATASIZE PUSH1 0x1F NOT PUSH1 0x1F DUP3 ADD AND DUP3 ADD DUP1 PUSH1 0x40 MSTORE POP DUP2 ADD SWAP1 PUSH2 0x887 SWAP2 SWAP1 PUSH2 0x12AE JUMP JUMPDEST PUSH2 0xD67 SWAP1 SWAP2 SWAP1 PUSH4 0xFFFFFFFF AND JUMP JUMPDEST SWAP1 POP PUSH2 0xA3D JUMP JUMPDEST PUSH2 0xA3A PUSH2 0x926 DUP6 DUP8 PUSH20 0xFFFFFFFFFFFFFFFFFFFFFFFFFFFFFFFFFFFFFFFF AND PUSH4 0xD21220A7 PUSH1 0x40 MLOAD DUP2 PUSH4 0xFFFFFFFF AND PUSH1 0xE0 SHL DUP2 MSTORE PUSH1 0x4 ADD PUSH1 0x20 PUSH1 0x40 MLOAD DUP1 DUP4 SUB DUP2 DUP7 DUP1 EXTCODESIZE ISZERO DUP1 ISZERO PUSH2 0x8E9 JUMPI PUSH1 0x0 DUP1 REVERT JUMPDEST POP GAS STATICCALL ISZERO DUP1 ISZERO PUSH2 0x8FD JUMPI RETURNDATASIZE PUSH1 0x0 DUP1 RETURNDATACOPY RETURNDATASIZE PUSH1 0x0 REVERT JUMPDEST POP POP POP POP PUSH1 0x40 MLOAD RETURNDATASIZE PUSH1 0x1F NOT PUSH1 0x1F DUP3 ADD AND DUP3 ADD DUP1 PUSH1 0x40 MSTORE POP DUP2 ADD SWAP1 PUSH2 0x921 SWAP2 SWAP1 PUSH2 0x1241 JUMP JUMPDEST PUSH2 0xDE2 JUMP JUMPDEST DUP7 PUSH20 0xFFFFFFFFFFFFFFFFFFFFFFFFFFFFFFFFFFFFFFFF AND PUSH4 0xD21220A7 PUSH1 0x40 MLOAD DUP2 PUSH4 0xFFFFFFFF AND PUSH1 0xE0 SHL DUP2 MSTORE PUSH1 0x4 ADD PUSH1 0x20 PUSH1 0x40 MLOAD DUP1 DUP4 SUB DUP2 DUP7 DUP1 EXTCODESIZE ISZERO DUP1 ISZERO PUSH2 0x96C JUMPI PUSH1 0x0 DUP1 REVERT JUMPDEST POP GAS STATICCALL ISZERO DUP1 ISZERO PUSH2 0x980 JUMPI RETURNDATASIZE PUSH1 0x0 DUP1 RETURNDATACOPY RETURNDATASIZE PUSH1 0x0 REVERT JUMPDEST POP POP POP POP PUSH1 0x40 MLOAD RETURNDATASIZE PUSH1 0x1F NOT PUSH1 0x1F DUP3 ADD AND DUP3 ADD DUP1 PUSH1 0x40 MSTORE POP DUP2 ADD SWAP1 PUSH2 0x9A4 SWAP2 SWAP1 PUSH2 0x1241 JUMP JUMPDEST PUSH20 0xFFFFFFFFFFFFFFFFFFFFFFFFFFFFFFFFFFFFFFFF AND PUSH4 0x70A08231 DUP9 PUSH1 0x40 MLOAD DUP3 PUSH4 0xFFFFFFFF AND PUSH1 0xE0 SHL DUP2 MSTORE PUSH1 0x4 ADD PUSH2 0x9DC SWAP2 SWAP1 PUSH2 0x1464 JUMP JUMPDEST PUSH1 0x20 PUSH1 0x40 MLOAD DUP1 DUP4 SUB DUP2 DUP7 DUP1 EXTCODESIZE ISZERO DUP1 ISZERO PUSH2 0x9F4 JUMPI PUSH1 0x0 DUP1 REVERT JUMPDEST POP GAS STATICCALL ISZERO DUP1 ISZERO PUSH2 0xA08 JUMPI RETURNDATASIZE PUSH1 0x0 DUP1 RETURNDATACOPY RETURNDATASIZE PUSH1 0x0 REVERT JUMPDEST POP POP POP POP PUSH1 0x40 MLOAD RETURNDATASIZE PUSH1 0x1F NOT PUSH1 0x1F DUP3 ADD AND DUP3 ADD DUP1 PUSH1 0x40 MSTORE POP DUP2 ADD SWAP1 PUSH2 0xA2C SWAP2 SWAP1 PUSH2 0x12AE JUMP JUMPDEST PUSH2 0xD67 SWAP1 SWAP2 SWAP1 PUSH4 0xFFFFFFFF AND JUMP JUMPDEST SWAP1 POP JUMPDEST PUSH2 0xADF DUP6 PUSH20 0xFFFFFFFFFFFFFFFFFFFFFFFFFFFFFFFFFFFFFFFF AND PUSH4 0x18160DDD PUSH1 0x40 MLOAD DUP2 PUSH4 0xFFFFFFFF AND PUSH1 0xE0 SHL DUP2 MSTORE PUSH1 0x4 ADD PUSH1 0x20 PUSH1 0x40 MLOAD DUP1 DUP4 SUB DUP2 DUP7 DUP1 EXTCODESIZE ISZERO DUP1 ISZERO PUSH2 0xA86 JUMPI PUSH1 0x0 DUP1 REVERT JUMPDEST POP GAS STATICCALL ISZERO DUP1 ISZERO PUSH2 0xA9A JUMPI RETURNDATASIZE PUSH1 0x0 DUP1 RETURNDATACOPY RETURNDATASIZE PUSH1 0x0 REVERT JUMPDEST POP POP POP POP PUSH1 0x40 MLOAD RETURNDATASIZE PUSH1 0x1F NOT PUSH1 0x1F DUP3 ADD AND DUP3 ADD DUP1 PUSH1 0x40 MSTORE POP DUP2 ADD SWAP1 PUSH2 0xABE SWAP2 SWAP1 PUSH2 0x12AE JUMP JUMPDEST PUSH2 0xAD1 DUP4 DUP6 PUSH2 0xFA7 SWAP1 SWAP2 SWAP1 PUSH4 0xFFFFFFFF AND JUMP JUMPDEST PUSH2 0x1005 SWAP1 SWAP2 SWAP1 PUSH4 0xFFFFFFFF AND JUMP JUMPDEST SWAP3 POP POP POP SWAP3 SWAP2 POP POP JUMP JUMPDEST PUSH1 0x1 PUSH1 0x0 SWAP1 SLOAD SWAP1 PUSH2 0x100 EXP SWAP1 DIV PUSH20 0xFFFFFFFFFFFFFFFFFFFFFFFFFFFFFFFFFFFFFFFF AND DUP2 JUMP JUMPDEST PUSH1 0x0 DUP1 SLOAD SWAP1 PUSH2 0x100 EXP SWAP1 DIV PUSH20 0xFFFFFFFFFFFFFFFFFFFFFFFFFFFFFFFFFFFFFFFF AND DUP2 JUMP JUMPDEST PUSH1 0x0 DUP1 PUSH1 0x3 PUSH8 0xFFFFFFFFFFFFFFFF DUP2 GT ISZERO PUSH2 0xB51 JUMPI PUSH2 0xB50 PUSH2 0x1834 JUMP JUMPDEST JUMPDEST PUSH1 0x40 MLOAD SWAP1 DUP1 DUP3 MSTORE DUP1 PUSH1 0x20 MUL PUSH1 0x20 ADD DUP3 ADD PUSH1 0x40 MSTORE DUP1 ISZERO PUSH2 0xB7F JUMPI DUP2 PUSH1 0x20 ADD PUSH1 0x20 DUP3 MUL DUP1 CALLDATASIZE DUP4 CALLDATACOPY DUP1 DUP3 ADD SWAP2 POP POP SWAP1 POP JUMPDEST POP SWAP1 POP DUP3 DUP2 PUSH1 0x0 DUP2 MLOAD DUP2 LT PUSH2 0xB97 JUMPI PUSH2 0xB96 PUSH2 0x1805 JUMP JUMPDEST JUMPDEST PUSH1 0x20 MUL PUSH1 0x20 ADD ADD SWAP1 PUSH20 0xFFFFFFFFFFFFFFFFFFFFFFFFFFFFFFFFFFFFFFFF AND SWAP1 DUP2 PUSH20 0xFFFFFFFFFFFFFFFFFFFFFFFFFFFFFFFFFFFFFFFF AND DUP2 MSTORE POP POP PUSH1 0x0 DUP1 SLOAD SWAP1 PUSH2 0x100 EXP SWAP1 DIV PUSH20 0xFFFFFFFFFFFFFFFFFFFFFFFFFFFFFFFFFFFFFFFF AND DUP2 PUSH1 0x1 DUP2 MLOAD DUP2 LT PUSH2 0xC06 JUMPI PUSH2 0xC05 PUSH2 0x1805 JUMP JUMPDEST JUMPDEST PUSH1 0x20 MUL PUSH1 0x20 ADD ADD SWAP1 PUSH20 0xFFFFFFFFFFFFFFFFFFFFFFFFFFFFFFFFFFFFFFFF AND SWAP1 DUP2 PUSH20 0xFFFFFFFFFFFFFFFFFFFFFFFFFFFFFFFFFFFFFFFF AND DUP2 MSTORE POP POP PUSH1 0x1 PUSH1 0x0 SWAP1 SLOAD SWAP1 PUSH2 0x100 EXP SWAP1 DIV PUSH20 0xFFFFFFFFFFFFFFFFFFFFFFFFFFFFFFFFFFFFFFFF AND DUP2 PUSH1 0x2 DUP2 MLOAD DUP2 LT PUSH2 0xC77 JUMPI PUSH2 0xC76 PUSH2 0x1805 JUMP JUMPDEST JUMPDEST PUSH1 0x20 MUL PUSH1 0x20 ADD ADD SWAP1 PUSH20 0xFFFFFFFFFFFFFFFFFFFFFFFFFFFFFFFFFFFFFFFF AND SWAP1 DUP2 PUSH20 0xFFFFFFFFFFFFFFFFFFFFFFFFFFFFFFFFFFFFFFFF AND DUP2 MSTORE POP POP DUP4 PUSH20 0xFFFFFFFFFFFFFFFFFFFFFFFFFFFFFFFFFFFFFFFF AND PUSH4 0xD06CA61F PUSH1 0x2 SLOAD DUP4 PUSH1 0x40 MLOAD DUP4 PUSH4 0xFFFFFFFF AND PUSH1 0xE0 SHL DUP2 MSTORE PUSH1 0x4 ADD PUSH2 0xCEE SWAP3 SWAP2 SWAP1 PUSH2 0x14FC JUMP JUMPDEST PUSH1 0x0 PUSH1 0x40 MLOAD DUP1 DUP4 SUB DUP2 DUP7 DUP1 EXTCODESIZE ISZERO DUP1 ISZERO PUSH2 0xD06 JUMPI PUSH1 0x0 DUP1 REVERT JUMPDEST POP GAS STATICCALL ISZERO DUP1 ISZERO PUSH2 0xD1A JUMPI RETURNDATASIZE PUSH1 0x0 DUP1 RETURNDATACOPY RETURNDATASIZE PUSH1 0x0 REVERT JUMPDEST POP POP POP POP PUSH1 0x40 MLOAD RETURNDATASIZE PUSH1 0x0 DUP3 RETURNDATACOPY RETURNDATASIZE PUSH1 0x1F NOT PUSH1 0x1F DUP3 ADD AND DUP3 ADD DUP1 PUSH1 0x40 MSTORE POP DUP2 ADD SWAP1 PUSH2 0xD43 SWAP2 SWAP1 PUSH2 0x11F8 JUMP JUMPDEST PUSH1 0x2 DUP2 MLOAD DUP2 LT PUSH2 0xD56 JUMPI PUSH2 0xD55 PUSH2 0x1805 JUMP JUMPDEST JUMPDEST PUSH1 0x20 MUL PUSH1 0x20 ADD ADD MLOAD SWAP2 POP POP SWAP3 SWAP2 POP POP JUMP JUMPDEST PUSH1 0x0 DUP1 DUP4 EQ ISZERO PUSH2 0xD7A JUMPI PUSH1 0x0 SWAP1 POP PUSH2 0xDDC JUMP JUMPDEST PUSH1 0x0 DUP3 DUP5 PUSH2 0xD88 SWAP2 SWAP1 PUSH2 0x1659 JUMP JUMPDEST SWAP1 POP DUP3 DUP5 DUP3 PUSH2 0xD97 SWAP2 SWAP1 PUSH2 0x1628 JUMP JUMPDEST EQ PUSH2 0xDD7 JUMPI PUSH1 0x40 MLOAD PUSH32 0x8C379A000000000000000000000000000000000000000000000000000000000 DUP2 MSTORE PUSH1 0x4 ADD PUSH2 0xDCE SWAP1 PUSH2 0x14C1 JUMP JUMPDEST PUSH1 0x40 MLOAD DUP1 SWAP2 SUB SWAP1 REVERT JUMPDEST DUP1 SWAP2 POP POP JUMPDEST SWAP3 SWAP2 POP POP JUMP JUMPDEST PUSH1 0x0 DUP1 PUSH1 0x2 PUSH8 0xFFFFFFFFFFFFFFFF DUP2 GT ISZERO PUSH2 0xE00 JUMPI PUSH2 0xDFF PUSH2 0x1834 JUMP JUMPDEST JUMPDEST PUSH1 0x40 MLOAD SWAP1 DUP1 DUP3 MSTORE DUP1 PUSH1 0x20 MUL PUSH1 0x20 ADD DUP3 ADD PUSH1 0x40 MSTORE DUP1 ISZERO PUSH2 0xE2E JUMPI DUP2 PUSH1 0x20 ADD PUSH1 0x20 DUP3 MUL DUP1 CALLDATASIZE DUP4 CALLDATACOPY DUP1 DUP3 ADD SWAP2 POP POP SWAP1 POP JUMPDEST POP SWAP1 POP DUP3 DUP2 PUSH1 0x0 DUP2 MLOAD DUP2 LT PUSH2 0xE46 JUMPI PUSH2 0xE45 PUSH2 0x1805 JUMP JUMPDEST JUMPDEST PUSH1 0x20 MUL PUSH1 0x20 ADD ADD SWAP1 PUSH20 0xFFFFFFFFFFFFFFFFFFFFFFFFFFFFFFFFFFFFFFFF AND SWAP1 DUP2 PUSH20 0xFFFFFFFFFFFFFFFFFFFFFFFFFFFFFFFFFFFFFFFF AND DUP2 MSTORE POP POP PUSH1 0x1 PUSH1 0x0 SWAP1 SLOAD SWAP1 PUSH2 0x100 EXP SWAP1 DIV PUSH20 0xFFFFFFFFFFFFFFFFFFFFFFFFFFFFFFFFFFFFFFFF AND DUP2 PUSH1 0x1 DUP2 MLOAD DUP2 LT PUSH2 0xEB7 JUMPI PUSH2 0xEB6 PUSH2 0x1805 JUMP JUMPDEST JUMPDEST PUSH1 0x20 MUL PUSH1 0x20 ADD ADD SWAP1 PUSH20 0xFFFFFFFFFFFFFFFFFFFFFFFFFFFFFFFFFFFFFFFF AND SWAP1 DUP2 PUSH20 0xFFFFFFFFFFFFFFFFFFFFFFFFFFFFFFFFFFFFFFFF AND DUP2 MSTORE POP POP DUP4 PUSH20 0xFFFFFFFFFFFFFFFFFFFFFFFFFFFFFFFFFFFFFFFF AND PUSH4 0xD06CA61F PUSH1 0x2 SLOAD DUP4 PUSH1 0x40 MLOAD DUP4 PUSH4 0xFFFFFFFF AND PUSH1 0xE0 SHL DUP2 MSTORE PUSH1 0x4 ADD PUSH2 0xF2E SWAP3 SWAP2 SWAP1 PUSH2 0x14FC JUMP JUMPDEST PUSH1 0x0 PUSH1 0x40 MLOAD DUP1 DUP4 SUB DUP2 DUP7 DUP1 EXTCODESIZE ISZERO DUP1 ISZERO PUSH2 0xF46 JUMPI PUSH1 0x0 DUP1 REVERT JUMPDEST POP GAS STATICCALL ISZERO DUP1 ISZERO PUSH2 0xF5A JUMPI RETURNDATASIZE PUSH1 0x0 DUP1 RETURNDATACOPY RETURNDATASIZE PUSH1 0x0 REVERT JUMPDEST POP POP POP POP PUSH1 0x40 MLOAD RETURNDATASIZE PUSH1 0x0 DUP3 RETURNDATACOPY RETURNDATASIZE PUSH1 0x1F NOT PUSH1 0x1F DUP3 ADD AND DUP3 ADD DUP1 PUSH1 0x40 MSTORE POP DUP2 ADD SWAP1 PUSH2 0xF83 SWAP2 SWAP1 PUSH2 0x11F8 JUMP JUMPDEST PUSH1 0x1 DUP2 MLOAD DUP2 LT PUSH2 0xF96 JUMPI PUSH2 0xF95 PUSH2 0x1805 JUMP JUMPDEST JUMPDEST PUSH1 0x20 MUL PUSH1 0x20 ADD ADD MLOAD SWAP2 POP POP SWAP3 SWAP2 POP POP JUMP JUMPDEST PUSH1 0x0 DUP1 DUP3 DUP5 PUSH2 0xFB6 SWAP2 SWAP1 PUSH2 0x15D2 JUMP JUMPDEST SWAP1 POP DUP4 DUP2 LT ISZERO PUSH2 0xFFB JUMPI PUSH1 0x40 MLOAD PUSH32 0x8C379A000000000000000000000000000000000000000000000000000000000 DUP2 MSTORE PUSH1 0x4 ADD PUSH2 0xFF2 SWAP1 PUSH2 0x14A1 JUMP JUMPDEST PUSH1 0x40 MLOAD DUP1 SWAP2 SUB SWAP1 REVERT JUMPDEST DUP1 SWAP2 POP POP SWAP3 SWAP2 POP POP JUMP JUMPDEST PUSH1 0x0 PUSH2 0x1047 DUP4 DUP4 PUSH1 0x40 MLOAD DUP1 PUSH1 0x40 ADD PUSH1 0x40 MSTORE DUP1 PUSH1 0x1A DUP2 MSTORE PUSH1 0x20 ADD PUSH32 0x536166654D6174683A206469766973696F6E206279207A65726F000000000000 DUP2 MSTORE POP PUSH2 0x104F JUMP JUMPDEST SWAP1 POP SWAP3 SWAP2 POP POP JUMP JUMPDEST PUSH1 0x0 DUP1 DUP4 GT DUP3 SWAP1 PUSH2 0x1096 JUMPI PUSH1 0x40 MLOAD PUSH32 0x8C379A000000000000000000000000000000000000000000000000000000000 DUP2 MSTORE PUSH1 0x4 ADD PUSH2 0x108D SWAP2 SWAP1 PUSH2 0x147F JUMP JUMPDEST PUSH1 0x40 MLOAD DUP1 SWAP2 SUB SWAP1 REVERT JUMPDEST POP PUSH1 0x0 DUP4 DUP6 PUSH2 0x10A5 SWAP2 SWAP1 PUSH2 0x1628 JUMP JUMPDEST SWAP1 POP DUP1 SWAP2 POP POP SWAP4 SWAP3 POP POP POP JUMP JUMPDEST PUSH1 0x0 PUSH2 0x10C5 PUSH2 0x10C0 DUP5 PUSH2 0x1551 JUMP JUMPDEST PUSH2 0x152C JUMP JUMPDEST SWAP1 POP DUP1 DUP4 DUP3 MSTORE PUSH1 0x20 DUP3 ADD SWAP1 POP DUP3 DUP6 PUSH1 0x20 DUP7 MUL DUP3 ADD GT ISZERO PUSH2 0x10E8 JUMPI PUSH2 0x10E7 PUSH2 0x1868 JUMP JUMPDEST JUMPDEST PUSH1 0x0 JUMPDEST DUP6 DUP2 LT ISZERO PUSH2 0x1118 JUMPI DUP2 PUSH2 0x10FE DUP9 DUP3 PUSH2 0x11E3 JUMP JUMPDEST DUP5 MSTORE PUSH1 0x20 DUP5 ADD SWAP4 POP PUSH1 0x20 DUP4 ADD SWAP3 POP POP PUSH1 0x1 DUP2 ADD SWAP1 POP PUSH2 0x10EB JUMP JUMPDEST POP POP POP SWAP4 SWAP3 POP POP POP JUMP JUMPDEST PUSH1 0x0 DUP2 CALLDATALOAD SWAP1 POP PUSH2 0x1131 DUP2 PUSH2 0x1900 JUMP JUMPDEST SWAP3 SWAP2 POP POP JUMP JUMPDEST PUSH1 0x0 DUP3 PUSH1 0x1F DUP4 ADD SLT PUSH2 0x114C JUMPI PUSH2 0x114B PUSH2 0x1863 JUMP JUMPDEST JUMPDEST DUP2 MLOAD PUSH2 0x115C DUP5 DUP3 PUSH1 0x20 DUP7 ADD PUSH2 0x10B2 JUMP JUMPDEST SWAP2 POP POP SWAP3 SWAP2 POP POP JUMP JUMPDEST PUSH1 0x0 DUP2 CALLDATALOAD SWAP1 POP PUSH2 0x1174 DUP2 PUSH2 0x1917 JUMP JUMPDEST SWAP3 SWAP2 POP POP JUMP JUMPDEST PUSH1 0x0 DUP2 MLOAD SWAP1 POP PUSH2 0x1189 DUP2 PUSH2 0x192E JUMP JUMPDEST SWAP3 SWAP2 POP POP JUMP JUMPDEST PUSH1 0x0 DUP2 CALLDATALOAD SWAP1 POP PUSH2 0x119E DUP2 PUSH2 0x1945 JUMP JUMPDEST SWAP3 SWAP2 POP POP JUMP JUMPDEST PUSH1 0x0 DUP2 CALLDATALOAD SWAP1 POP PUSH2 0x11B3 DUP2 PUSH2 0x195C JUMP JUMPDEST SWAP3 SWAP2 POP POP JUMP JUMPDEST PUSH1 0x0 DUP2 CALLDATALOAD SWAP1 POP PUSH2 0x11C8 DUP2 PUSH2 0x1973 JUMP JUMPDEST SWAP3 SWAP2 POP POP JUMP JUMPDEST PUSH1 0x0 DUP2 CALLDATALOAD SWAP1 POP PUSH2 0x11DD DUP2 PUSH2 0x198A JUMP JUMPDEST SWAP3 SWAP2 POP POP JUMP JUMPDEST PUSH1 0x0 DUP2 MLOAD SWAP1 POP PUSH2 0x11F2 DUP2 PUSH2 0x198A JUMP JUMPDEST SWAP3 SWAP2 POP POP JUMP JUMPDEST PUSH1 0x0 PUSH1 0x20 DUP3 DUP5 SUB SLT ISZERO PUSH2 0x120E JUMPI PUSH2 0x120D PUSH2 0x1872 JUMP JUMPDEST JUMPDEST PUSH1 0x0 DUP3 ADD MLOAD PUSH8 0xFFFFFFFFFFFFFFFF DUP2 GT ISZERO PUSH2 0x122C JUMPI PUSH2 0x122B PUSH2 0x186D JUMP JUMPDEST JUMPDEST PUSH2 0x1238 DUP5 DUP3 DUP6 ADD PUSH2 0x1137 JUMP JUMPDEST SWAP2 POP POP SWAP3 SWAP2 POP POP JUMP JUMPDEST PUSH1 0x0 PUSH1 0x20 DUP3 DUP5 SUB SLT ISZERO PUSH2 0x1257 JUMPI PUSH2 0x1256 PUSH2 0x1872 JUMP JUMPDEST JUMPDEST PUSH1 0x0 PUSH2 0x1265 DUP5 DUP3 DUP6 ADD PUSH2 0x117A JUMP JUMPDEST SWAP2 POP POP SWAP3 SWAP2 POP POP JUMP JUMPDEST PUSH1 0x0 DUP1 PUSH1 0x40 DUP4 DUP6 SUB SLT ISZERO PUSH2 0x1285 JUMPI PUSH2 0x1284 PUSH2 0x1872 JUMP JUMPDEST JUMPDEST PUSH1 0x0 PUSH2 0x1293 DUP6 DUP3 DUP7 ADD PUSH2 0x118F JUMP JUMPDEST SWAP3 POP POP PUSH1 0x20 PUSH2 0x12A4 DUP6 DUP3 DUP7 ADD PUSH2 0x11B9 JUMP JUMPDEST SWAP2 POP POP SWAP3 POP SWAP3 SWAP1 POP JUMP JUMPDEST PUSH1 0x0 PUSH1 0x20 DUP3 DUP5 SUB SLT ISZERO PUSH2 0x12C4 JUMPI PUSH2 0x12C3 PUSH2 0x1872 JUMP JUMPDEST JUMPDEST PUSH1 0x0 PUSH2 0x12D2 DUP5 DUP3 DUP6 ADD PUSH2 0x11E3 JUMP JUMPDEST SWAP2 POP POP SWAP3 SWAP2 POP POP JUMP JUMPDEST PUSH1 0x0 DUP1 PUSH1 0x0 DUP1 PUSH1 0x80 DUP6 DUP8 SUB SLT ISZERO PUSH2 0x12F5 JUMPI PUSH2 0x12F4 PUSH2 0x1872 JUMP JUMPDEST JUMPDEST PUSH1 0x0 PUSH2 0x1303 DUP8 DUP3 DUP9 ADD PUSH2 0x11CE JUMP JUMPDEST SWAP5 POP POP PUSH1 0x20 PUSH2 0x1314 DUP8 DUP3 DUP9 ADD PUSH2 0x1122 JUMP JUMPDEST SWAP4 POP POP PUSH1 0x40 PUSH2 0x1325 DUP8 DUP3 DUP9 ADD PUSH2 0x1165 JUMP JUMPDEST SWAP3 POP POP PUSH1 0x60 PUSH2 0x1336 DUP8 DUP3 DUP9 ADD PUSH2 0x11A4 JUMP JUMPDEST SWAP2 POP POP SWAP3 SWAP6 SWAP2 SWAP5 POP SWAP3 POP JUMP JUMPDEST PUSH1 0x0 PUSH2 0x134E DUP4 DUP4 PUSH2 0x135A JUMP JUMPDEST PUSH1 0x20 DUP4 ADD SWAP1 POP SWAP3 SWAP2 POP POP JUMP JUMPDEST PUSH2 0x1363 DUP2 PUSH2 0x16B3 JUMP JUMPDEST DUP3 MSTORE POP POP JUMP JUMPDEST PUSH2 0x1372 DUP2 PUSH2 0x16B3 JUMP JUMPDEST DUP3 MSTORE POP POP JUMP JUMPDEST PUSH1 0x0 PUSH2 0x1383 DUP3 PUSH2 0x158D JUMP JUMPDEST PUSH2 0x138D DUP2 DUP6 PUSH2 0x15B0 JUMP JUMPDEST SWAP4 POP PUSH2 0x1398 DUP4 PUSH2 0x157D JUMP JUMPDEST DUP1 PUSH1 0x0 JUMPDEST DUP4 DUP2 LT ISZERO PUSH2 0x13C9 JUMPI DUP2 MLOAD PUSH2 0x13B0 DUP9 DUP3 PUSH2 0x1342 JUMP JUMPDEST SWAP8 POP PUSH2 0x13BB DUP4 PUSH2 0x15A3 JUMP JUMPDEST SWAP3 POP POP PUSH1 0x1 DUP2 ADD SWAP1 POP PUSH2 0x139C JUMP JUMPDEST POP DUP6 SWAP4 POP POP POP POP SWAP3 SWAP2 POP POP JUMP JUMPDEST PUSH1 0x0 PUSH2 0x13E1 DUP3 PUSH2 0x1598 JUMP JUMPDEST PUSH2 0x13EB DUP2 DUP6 PUSH2 0x15C1 JUMP JUMPDEST SWAP4 POP PUSH2 0x13FB DUP2 DUP6 PUSH1 0x20 DUP7 ADD PUSH2 0x1743 JUMP JUMPDEST PUSH2 0x1404 DUP2 PUSH2 0x1877 JUMP JUMPDEST DUP5 ADD SWAP2 POP POP SWAP3 SWAP2 POP POP JUMP JUMPDEST PUSH1 0x0 PUSH2 0x141C PUSH1 0x1B DUP4 PUSH2 0x15C1 JUMP JUMPDEST SWAP2 POP PUSH2 0x1427 DUP3 PUSH2 0x1888 JUMP JUMPDEST PUSH1 0x20 DUP3 ADD SWAP1 POP SWAP2 SWAP1 POP JUMP JUMPDEST PUSH1 0x0 PUSH2 0x143F PUSH1 0x21 DUP4 PUSH2 0x15C1 JUMP JUMPDEST SWAP2 POP PUSH2 0x144A DUP3 PUSH2 0x18B1 JUMP JUMPDEST PUSH1 0x40 DUP3 ADD SWAP1 POP SWAP2 SWAP1 POP JUMP JUMPDEST PUSH2 0x145E DUP2 PUSH2 0x1739 JUMP JUMPDEST DUP3 MSTORE POP POP JUMP JUMPDEST PUSH1 0x0 PUSH1 0x20 DUP3 ADD SWAP1 POP PUSH2 0x1479 PUSH1 0x0 DUP4 ADD DUP5 PUSH2 0x1369 JUMP JUMPDEST SWAP3 SWAP2 POP POP JUMP JUMPDEST PUSH1 0x0 PUSH1 0x20 DUP3 ADD SWAP1 POP DUP2 DUP2 SUB PUSH1 0x0 DUP4 ADD MSTORE PUSH2 0x1499 DUP2 DUP5 PUSH2 0x13D6 JUMP JUMPDEST SWAP1 POP SWAP3 SWAP2 POP POP JUMP JUMPDEST PUSH1 0x0 PUSH1 0x20 DUP3 ADD SWAP1 POP DUP2 DUP2 SUB PUSH1 0x0 DUP4 ADD MSTORE PUSH2 0x14BA DUP2 PUSH2 0x140F JUMP JUMPDEST SWAP1 POP SWAP2 SWAP1 POP JUMP JUMPDEST PUSH1 0x0 PUSH1 0x20 DUP3 ADD SWAP1 POP DUP2 DUP2 SUB PUSH1 0x0 DUP4 ADD MSTORE PUSH2 0x14DA DUP2 PUSH2 0x1432 JUMP JUMPDEST SWAP1 POP SWAP2 SWAP1 POP JUMP JUMPDEST PUSH1 0x0 PUSH1 0x20 DUP3 ADD SWAP1 POP PUSH2 0x14F6 PUSH1 0x0 DUP4 ADD DUP5 PUSH2 0x1455 JUMP JUMPDEST SWAP3 SWAP2 POP POP JUMP JUMPDEST PUSH1 0x0 PUSH1 0x40 DUP3 ADD SWAP1 POP PUSH2 0x1511 PUSH1 0x0 DUP4 ADD DUP6 PUSH2 0x1455 JUMP JUMPDEST DUP2 DUP2 SUB PUSH1 0x20 DUP4 ADD MSTORE PUSH2 0x1523 DUP2 DUP5 PUSH2 0x1378 JUMP JUMPDEST SWAP1 POP SWAP4 SWAP3 POP POP POP JUMP JUMPDEST PUSH1 0x0 PUSH2 0x1536 PUSH2 0x1547 JUMP JUMPDEST SWAP1 POP PUSH2 0x1542 DUP3 DUP3 PUSH2 0x1776 JUMP JUMPDEST SWAP2 SWAP1 POP JUMP JUMPDEST PUSH1 0x0 PUSH1 0x40 MLOAD SWAP1 POP SWAP1 JUMP JUMPDEST PUSH1 0x0 PUSH8 0xFFFFFFFFFFFFFFFF DUP3 GT ISZERO PUSH2 0x156C JUMPI PUSH2 0x156B PUSH2 0x1834 JUMP JUMPDEST JUMPDEST PUSH1 0x20 DUP3 MUL SWAP1 POP PUSH1 0x20 DUP2 ADD SWAP1 POP SWAP2 SWAP1 POP JUMP JUMPDEST PUSH1 0x0 DUP2 SWAP1 POP PUSH1 0x20 DUP3 ADD SWAP1 POP SWAP2 SWAP1 POP JUMP JUMPDEST PUSH1 0x0 DUP2 MLOAD SWAP1 POP SWAP2 SWAP1 POP JUMP JUMPDEST PUSH1 0x0 DUP2 MLOAD SWAP1 POP SWAP2 SWAP1 POP JUMP JUMPDEST PUSH1 0x0 PUSH1 0x20 DUP3 ADD SWAP1 POP SWAP2 SWAP1 POP JUMP JUMPDEST PUSH1 0x0 DUP3 DUP3 MSTORE PUSH1 0x20 DUP3 ADD SWAP1 POP SWAP3 SWAP2 POP POP JUMP JUMPDEST PUSH1 0x0 DUP3 DUP3 MSTORE PUSH1 0x20 DUP3 ADD SWAP1 POP SWAP3 SWAP2 POP POP JUMP JUMPDEST PUSH1 0x0 PUSH2 0x15DD DUP3 PUSH2 0x1739 JUMP JUMPDEST SWAP2 POP PUSH2 0x15E8 DUP4 PUSH2 0x1739 JUMP JUMPDEST SWAP3 POP DUP3 PUSH32 0xFFFFFFFFFFFFFFFFFFFFFFFFFFFFFFFFFFFFFFFFFFFFFFFFFFFFFFFFFFFFFFFF SUB DUP3 GT ISZERO PUSH2 0x161D JUMPI PUSH2 0x161C PUSH2 0x17A7 JUMP JUMPDEST JUMPDEST DUP3 DUP3 ADD SWAP1 POP SWAP3 SWAP2 POP POP JUMP JUMPDEST PUSH1 0x0 PUSH2 0x1633 DUP3 PUSH2 0x1739 JUMP JUMPDEST SWAP2 POP PUSH2 0x163E DUP4 PUSH2 0x1739 JUMP JUMPDEST SWAP3 POP DUP3 PUSH2 0x164E JUMPI PUSH2 0x164D PUSH2 0x17D6 JUMP JUMPDEST JUMPDEST DUP3 DUP3 DIV SWAP1 POP SWAP3 SWAP2 POP POP JUMP JUMPDEST PUSH1 0x0 PUSH2 0x1664 DUP3 PUSH2 0x1739 JUMP JUMPDEST SWAP2 POP PUSH2 0x166F DUP4 PUSH2 0x1739 JUMP JUMPDEST SWAP3 POP DUP2 PUSH32 0xFFFFFFFFFFFFFFFFFFFFFFFFFFFFFFFFFFFFFFFFFFFFFFFFFFFFFFFFFFFFFFFF DIV DUP4 GT DUP3 ISZERO ISZERO AND ISZERO PUSH2 0x16A8 JUMPI PUSH2 0x16A7 PUSH2 0x17A7 JUMP JUMPDEST JUMPDEST DUP3 DUP3 MUL SWAP1 POP SWAP3 SWAP2 POP POP JUMP JUMPDEST PUSH1 0x0 PUSH2 0x16BE DUP3 PUSH2 0x1719 JUMP JUMPDEST SWAP1 POP SWAP2 SWAP1 POP JUMP JUMPDEST PUSH1 0x0 DUP2 ISZERO ISZERO SWAP1 POP SWAP2 SWAP1 POP JUMP JUMPDEST PUSH1 0x0 PUSH2 0x16DC DUP3 PUSH2 0x16B3 JUMP JUMPDEST SWAP1 POP SWAP2 SWAP1 POP JUMP JUMPDEST PUSH1 0x0 PUSH2 0x16EE DUP3 PUSH2 0x16B3 JUMP JUMPDEST SWAP1 POP SWAP2 SWAP1 POP JUMP JUMPDEST PUSH1 0x0 PUSH2 0x1700 DUP3 PUSH2 0x16B3 JUMP JUMPDEST SWAP1 POP SWAP2 SWAP1 POP JUMP JUMPDEST PUSH1 0x0 PUSH2 0x1712 DUP3 PUSH2 0x16B3 JUMP JUMPDEST SWAP1 POP SWAP2 SWAP1 POP JUMP JUMPDEST PUSH1 0x0 PUSH20 0xFFFFFFFFFFFFFFFFFFFFFFFFFFFFFFFFFFFFFFFF DUP3 AND SWAP1 POP SWAP2 SWAP1 POP JUMP JUMPDEST PUSH1 0x0 DUP2 SWAP1 POP SWAP2 SWAP1 POP JUMP JUMPDEST PUSH1 0x0 JUMPDEST DUP4 DUP2 LT ISZERO PUSH2 0x1761 JUMPI DUP1 DUP3 ADD MLOAD DUP2 DUP5 ADD MSTORE PUSH1 0x20 DUP2 ADD SWAP1 POP PUSH2 0x1746 JUMP JUMPDEST DUP4 DUP2 GT ISZERO PUSH2 0x1770 JUMPI PUSH1 0x0 DUP5 DUP5 ADD MSTORE JUMPDEST POP POP POP POP JUMP JUMPDEST PUSH2 0x177F DUP3 PUSH2 0x1877 JUMP JUMPDEST DUP2 ADD DUP2 DUP2 LT PUSH8 0xFFFFFFFFFFFFFFFF DUP3 GT OR ISZERO PUSH2 0x179E JUMPI PUSH2 0x179D PUSH2 0x1834 JUMP JUMPDEST JUMPDEST DUP1 PUSH1 0x40 MSTORE POP POP POP JUMP JUMPDEST PUSH32 0x4E487B7100000000000000000000000000000000000000000000000000000000 PUSH1 0x0 MSTORE PUSH1 0x11 PUSH1 0x4 MSTORE PUSH1 0x24 PUSH1 0x0 REVERT JUMPDEST PUSH32 0x4E487B7100000000000000000000000000000000000000000000000000000000 PUSH1 0x0 MSTORE PUSH1 0x12 PUSH1 0x4 MSTORE PUSH1 0x24 PUSH1 0x0 REVERT JUMPDEST PUSH32 0x4E487B7100000000000000000000000000000000000000000000000000000000 PUSH1 0x0 MSTORE PUSH1 0x32 PUSH1 0x4 MSTORE PUSH1 0x24 PUSH1 0x0 REVERT JUMPDEST PUSH32 0x4E487B7100000000000000000000000000000000000000000000000000000000 PUSH1 0x0 MSTORE PUSH1 0x41 PUSH1 0x4 MSTORE PUSH1 0x24 PUSH1 0x0 REVERT JUMPDEST PUSH1 0x0 DUP1 REVERT JUMPDEST PUSH1 0x0 DUP1 REVERT JUMPDEST PUSH1 0x0 DUP1 REVERT JUMPDEST PUSH1 0x0 DUP1 REVERT JUMPDEST PUSH1 0x0 PUSH1 0x1F NOT PUSH1 0x1F DUP4 ADD AND SWAP1 POP SWAP2 SWAP1 POP JUMP JUMPDEST PUSH32 0x536166654D6174683A206164646974696F6E206F766572666C6F770000000000 PUSH1 0x0 DUP3 ADD MSTORE POP JUMP JUMPDEST PUSH32 0x536166654D6174683A206D756C7469706C69636174696F6E206F766572666C6F PUSH1 0x0 DUP3 ADD MSTORE PUSH32 0x7700000000000000000000000000000000000000000000000000000000000000 PUSH1 0x20 DUP3 ADD MSTORE POP JUMP JUMPDEST PUSH2 0x1909 DUP2 PUSH2 0x16B3 JUMP JUMPDEST DUP2 EQ PUSH2 0x1914 JUMPI PUSH1 0x0 DUP1 REVERT JUMPDEST POP JUMP JUMPDEST PUSH2 0x1920 DUP2 PUSH2 0x16C5 JUMP JUMPDEST DUP2 EQ PUSH2 0x192B JUMPI PUSH1 0x0 DUP1 REVERT JUMPDEST POP JUMP JUMPDEST PUSH2 0x1937 DUP2 PUSH2 0x16D1 JUMP JUMPDEST DUP2 EQ PUSH2 0x1942 JUMPI PUSH1 0x0 DUP1 REVERT JUMPDEST POP JUMP JUMPDEST PUSH2 0x194E DUP2 PUSH2 0x16E3 JUMP JUMPDEST DUP2 EQ PUSH2 0x1959 JUMPI PUSH1 0x0 DUP1 REVERT JUMPDEST POP JUMP JUMPDEST PUSH2 0x1965 DUP2 PUSH2 0x16F5 JUMP JUMPDEST DUP2 EQ PUSH2 0x1970 JUMPI PUSH1 0x0 DUP1 REVERT JUMPDEST POP JUMP JUMPDEST PUSH2 0x197C DUP2 PUSH2 0x1707 JUMP JUMPDEST DUP2 EQ PUSH2 0x1987 JUMPI PUSH1 0x0 DUP1 REVERT JUMPDEST POP JUMP JUMPDEST PUSH2 0x1993 DUP2 PUSH2 0x1739 JUMP JUMPDEST DUP2 EQ PUSH2 0x199E JUMPI PUSH1 0x0 DUP1 REVERT JUMPDEST POP JUMP INVALID LOG2 PUSH5 0x6970667358 0x22 SLT KECCAK256 LOG3 0x4A 0xDC PUSH25 0x90DC402214F6DDFD426C742E50C2F85497608E6B0B8B0431AB PC CALL 0xE6 PUSH5 0x736F6C6343 STOP ADDMOD SMOD STOP CALLER "
				},
				"gasEstimates": {
					"creation": {
						"codeDepositCost": "1323000",
						"executionCost": "94122",
						"totalCost": "1417122"
					},
					"external": {
						"BUSD()": "2536",
						"CalcApy(uint256,address,bool,address)": "infinite",
						"CalcLpPrice(address,address)": "infinite",
						"WBNB()": "2555"
					},
					"internal": {
						"Tokenprice(contract Router,address)": "infinite",
						"WBNBPrice(contract Router,address)": "infinite"
					}
				},
				"methodIdentifiers": {
					"BUSD()": "484f4ea9",
					"CalcApy(uint256,address,bool,address)": "1eff56b9",
					"CalcLpPrice(address,address)": "344e49d9",
					"WBNB()": "8dd95002"
				}
			},
			"storageLayout": {
				"storage": [
					{
						"astId": 560,
						"contract": "contracts/Utils.sol:Utils",
						"label": "WBNB",
						"offset": 0,
						"slot": "0",
						"type": "t_address"
					},
					{
						"astId": 563,
						"contract": "contracts/Utils.sol:Utils",
						"label": "BUSD",
						"offset": 0,
						"slot": "1",
						"type": "t_address"
					},
					{
						"astId": 566,
						"contract": "contracts/Utils.sol:Utils",
						"label": "amount",
						"offset": 0,
						"slot": "2",
						"type": "t_uint256"
					},
					{
						"astId": 569,
						"contract": "contracts/Utils.sol:Utils",
						"label": "BLOCKS_PER_YEAR",
						"offset": 0,
						"slot": "3",
						"type": "t_uint256"
					}
				],
				"types": {
					"t_address": {
						"encoding": "inplace",
						"label": "address",
						"numberOfBytes": "20"
					},
					"t_uint256": {
						"encoding": "inplace",
						"label": "uint256",
						"numberOfBytes": "32"
					}
				}
			},
			"userdoc": {
				"kind": "user",
				"methods": {},
				"version": 1
			}
		}
	}
}