{
	"contracts/Utils.sol": {
		"Utils": {
			"abi": [
				{
					"inputs": [
						{
							"internalType": "contract Router",
							"name": "_routerAddress",
							"type": "address"
						},
						{
							"internalType": "address",
							"name": "_WBNB",
							"type": "address"
						},
						{
							"internalType": "address",
							"name": "_BUSD",
							"type": "address"
						}
					],
					"stateMutability": "nonpayable",
					"type": "constructor"
				},
				{
					"anonymous": false,
					"inputs": [
						{
							"indexed": true,
							"internalType": "address",
							"name": "previousOwner",
							"type": "address"
						},
						{
							"indexed": true,
							"internalType": "address",
							"name": "newOwner",
							"type": "address"
						}
					],
					"name": "OwnershipTransferred",
					"type": "event"
				},
				{
					"inputs": [],
					"name": "BUSD",
					"outputs": [
						{
							"internalType": "address",
							"name": "",
							"type": "address"
						}
					],
					"stateMutability": "view",
					"type": "function"
				},
				{
					"inputs": [
						{
							"internalType": "uint256",
							"name": "pid",
							"type": "uint256"
						},
						{
							"internalType": "contract LP",
							"name": "lpAddress",
							"type": "address"
						},
						{
							"internalType": "uint256",
							"name": "isLp",
							"type": "uint256"
						},
						{
							"internalType": "contract MetaMasterChef",
							"name": "MasterChef",
							"type": "address"
						}
					],
					"name": "CalcApy",
					"outputs": [
						{
							"internalType": "uint256",
							"name": "",
							"type": "uint256"
						}
					],
					"stateMutability": "view",
					"type": "function"
				},
				{
					"inputs": [
						{
							"internalType": "contract LP",
							"name": "lpAddress",
							"type": "address"
						}
					],
					"name": "CalcLpPrice",
					"outputs": [
						{
							"internalType": "uint256",
							"name": "",
							"type": "uint256"
						}
					],
					"stateMutability": "view",
					"type": "function"
				},
				{
					"inputs": [
						{
							"internalType": "contract MetaMasterChef",
							"name": "MasterChef",
							"type": "address"
						},
						{
							"internalType": "contract LP[]",
							"name": "lpAddress",
							"type": "address[]"
						}
					],
					"name": "CalcTotalTVL",
					"outputs": [
						{
							"internalType": "uint256",
							"name": "",
							"type": "uint256"
						}
					],
					"stateMutability": "view",
					"type": "function"
				},
				{
					"inputs": [
						{
							"internalType": "address",
							"name": "token",
							"type": "address"
						}
					],
					"name": "Tokenprice",
					"outputs": [
						{
							"internalType": "uint256",
							"name": "",
							"type": "uint256"
						}
					],
					"stateMutability": "view",
					"type": "function"
				},
				{
					"inputs": [],
					"name": "WBNB",
					"outputs": [
						{
							"internalType": "address",
							"name": "",
							"type": "address"
						}
					],
					"stateMutability": "view",
					"type": "function"
				},
				{
					"inputs": [
						{
							"internalType": "address",
							"name": "token",
							"type": "address"
						}
					],
					"name": "WBNBPrice",
					"outputs": [
						{
							"internalType": "uint256",
							"name": "",
							"type": "uint256"
						}
					],
					"stateMutability": "view",
					"type": "function"
				},
				{
					"inputs": [
						{
							"internalType": "uint256",
							"name": "pid",
							"type": "uint256"
						},
						{
							"internalType": "contract LP",
							"name": "lpAddress",
							"type": "address"
						},
						{
							"internalType": "uint256",
							"name": "isLp",
							"type": "uint256"
						},
						{
							"internalType": "contract MetaMasterChef",
							"name": "MasterChef",
							"type": "address"
						}
					],
					"name": "calcPoolTVLInUSD",
					"outputs": [
						{
							"internalType": "uint256",
							"name": "",
							"type": "uint256"
						}
					],
					"stateMutability": "view",
					"type": "function"
				},
				{
					"inputs": [
						{
							"internalType": "contract LP",
							"name": "lpAddress",
							"type": "address"
						}
					],
					"name": "isLpAddress",
					"outputs": [
						{
							"internalType": "uint256",
							"name": "",
							"type": "uint256"
						}
					],
					"stateMutability": "view",
					"type": "function"
				},
				{
					"inputs": [],
					"name": "owner",
					"outputs": [
						{
							"internalType": "address",
							"name": "",
							"type": "address"
						}
					],
					"stateMutability": "view",
					"type": "function"
				},
				{
					"inputs": [],
					"name": "renounceOwnership",
					"outputs": [],
					"stateMutability": "nonpayable",
					"type": "function"
				},
				{
					"inputs": [],
					"name": "routerAddress",
					"outputs": [
						{
							"internalType": "contract Router",
							"name": "",
							"type": "address"
						}
					],
					"stateMutability": "view",
					"type": "function"
				},
				{
					"inputs": [
						{
							"internalType": "contract Router",
							"name": "_routerAddress",
							"type": "address"
						}
					],
					"name": "setRouter",
					"outputs": [],
					"stateMutability": "nonpayable",
					"type": "function"
				},
				{
					"inputs": [],
					"name": "test",
					"outputs": [],
					"stateMutability": "nonpayable",
					"type": "function"
				},
				{
					"inputs": [
						{
							"internalType": "address",
							"name": "newOwner",
							"type": "address"
						}
					],
					"name": "transferOwnership",
					"outputs": [],
					"stateMutability": "nonpayable",
					"type": "function"
				}
			],
			"devdoc": {
				"kind": "dev",
				"methods": {
					"owner()": {
						"details": "Returns the address of the current owner."
					},
					"renounceOwnership()": {
						"details": "Leaves the contract without owner. It will not be possible to call `onlyOwner` functions anymore. Can only be called by the current owner. NOTE: Renouncing ownership will leave the contract without an owner, thereby removing any functionality that is only available to the owner."
					},
					"transferOwnership(address)": {
						"details": "Transfers ownership of the contract to a new account (`newOwner`). Can only be called by the current owner."
					}
				},
				"version": 1
			},
			"evm": {
				"assembly": "    /* \"contracts/Utils.sol\":17259:21307  contract Utils is Ownable{... */\n  mstore(0x40, 0x80)\n    /* \"contracts/Utils.sol\":17509:17528  1000000000000000000 */\n  0x0de0b6b3a7640000\n    /* \"contracts/Utils.sol\":17492:17528  uint256 amount = 1000000000000000000 */\n  0x03\n  sstore\n    /* \"contracts/Utils.sol\":17597:17605  10512000 */\n  0xa06680\n    /* \"contracts/Utils.sol\":17571:17605  uint256 BLOCKS_PER_YEAR = 10512000 */\n  0x05\n  sstore\n    /* \"contracts/Utils.sol\":17615:17778  constructor(Router _routerAddress, address _WBNB, address _BUSD) {... */\n  callvalue\n  dup1\n  iszero\n  tag_1\n  jumpi\n  0x00\n  dup1\n  revert\ntag_1:\n  pop\n  mload(0x40)\n  sub(codesize, bytecodeSize)\n  dup1\n  bytecodeSize\n  dup4\n  codecopy\n  dup2\n  dup2\n  add\n  0x40\n  mstore\n  dup2\n  add\n  swap1\n  tag_2\n  swap2\n  swap1\n  tag_3\n  jump\t// in\ntag_2:\n    /* \"contracts/Utils.sol\":13728:13760  _transferOwnership(_msgSender()) */\n  tag_7\n    /* \"contracts/Utils.sol\":13747:13759  _msgSender() */\n  tag_8\n    /* \"contracts/Utils.sol\":13747:13757  _msgSender */\n  shl(0x20, tag_9)\n    /* \"contracts/Utils.sol\":13747:13759  _msgSender() */\n  0x20\n  shr\n  jump\t// in\ntag_8:\n    /* \"contracts/Utils.sol\":13728:13746  _transferOwnership */\n  shl(0x20, tag_10)\n    /* \"contracts/Utils.sol\":13728:13760  _transferOwnership(_msgSender()) */\n  0x20\n  shr\n  jump\t// in\ntag_7:\n    /* \"contracts/Utils.sol\":17708:17722  _routerAddress */\n  dup3\n    /* \"contracts/Utils.sol\":17692:17705  routerAddress */\n  0x04\n  0x00\n    /* \"contracts/Utils.sol\":17692:17722  routerAddress = _routerAddress */\n  0x0100\n  exp\n  dup2\n  sload\n  dup2\n  0xffffffffffffffffffffffffffffffffffffffff\n  mul\n  not\n  and\n  swap1\n  dup4\n  0xffffffffffffffffffffffffffffffffffffffff\n  and\n  mul\n  or\n  swap1\n  sstore\n  pop\n    /* \"contracts/Utils.sol\":17741:17746  _WBNB */\n  dup2\n    /* \"contracts/Utils.sol\":17734:17738  WBNB */\n  0x01\n  0x00\n    /* \"contracts/Utils.sol\":17734:17746  WBNB = _WBNB */\n  0x0100\n  exp\n  dup2\n  sload\n  dup2\n  0xffffffffffffffffffffffffffffffffffffffff\n  mul\n  not\n  and\n  swap1\n  dup4\n  0xffffffffffffffffffffffffffffffffffffffff\n  and\n  mul\n  or\n  swap1\n  sstore\n  pop\n    /* \"contracts/Utils.sol\":17765:17770  _BUSD */\n  dup1\n    /* \"contracts/Utils.sol\":17758:17762  BUSD */\n  0x02\n  0x00\n    /* \"contracts/Utils.sol\":17758:17770  BUSD = _BUSD */\n  0x0100\n  exp\n  dup2\n  sload\n  dup2\n  0xffffffffffffffffffffffffffffffffffffffff\n  mul\n  not\n  and\n  swap1\n  dup4\n  0xffffffffffffffffffffffffffffffffffffffff\n  and\n  mul\n  or\n  swap1\n  sstore\n  pop\n    /* \"contracts/Utils.sol\":17615:17778  constructor(Router _routerAddress, address _WBNB, address _BUSD) {... */\n  pop\n  pop\n  pop\n    /* \"contracts/Utils.sol\":17259:21307  contract Utils is Ownable{... */\n  jump(tag_12)\n    /* \"contracts/Utils.sol\":13223:13321  function _msgSender() internal view virtual returns (address) {... */\ntag_9:\n    /* \"contracts/Utils.sol\":13276:13283  address */\n  0x00\n    /* \"contracts/Utils.sol\":13303:13313  msg.sender */\n  caller\n    /* \"contracts/Utils.sol\":13296:13313  return msg.sender */\n  swap1\n  pop\n    /* \"contracts/Utils.sol\":13223:13321  function _msgSender() internal view virtual returns (address) {... */\n  swap1\n  jump\t// out\n    /* \"contracts/Utils.sol\":15119:15310  function _transferOwnership(address newOwner) internal virtual {... */\ntag_10:\n    /* \"contracts/Utils.sol\":15193:15209  address oldOwner */\n  0x00\n    /* \"contracts/Utils.sol\":15212:15218  _owner */\n  dup1\n  0x00\n  swap1\n  sload\n  swap1\n  0x0100\n  exp\n  swap1\n  div\n  0xffffffffffffffffffffffffffffffffffffffff\n  and\n    /* \"contracts/Utils.sol\":15193:15218  address oldOwner = _owner */\n  swap1\n  pop\n    /* \"contracts/Utils.sol\":15238:15246  newOwner */\n  dup2\n    /* \"contracts/Utils.sol\":15229:15235  _owner */\n  0x00\n  dup1\n    /* \"contracts/Utils.sol\":15229:15246  _owner = newOwner */\n  0x0100\n  exp\n  dup2\n  sload\n  dup2\n  0xffffffffffffffffffffffffffffffffffffffff\n  mul\n  not\n  and\n  swap1\n  dup4\n  0xffffffffffffffffffffffffffffffffffffffff\n  and\n  mul\n  or\n  swap1\n  sstore\n  pop\n    /* \"contracts/Utils.sol\":15293:15301  newOwner */\n  dup2\n    /* \"contracts/Utils.sol\":15262:15302  OwnershipTransferred(oldOwner, newOwner) */\n  0xffffffffffffffffffffffffffffffffffffffff\n  and\n    /* \"contracts/Utils.sol\":15283:15291  oldOwner */\n  dup2\n    /* \"contracts/Utils.sol\":15262:15302  OwnershipTransferred(oldOwner, newOwner) */\n  0xffffffffffffffffffffffffffffffffffffffff\n  and\n  0x8be0079c531659141344cd1fd0a4f28419497f9722a3daafe3b4186f6b6457e0\n  mload(0x40)\n  mload(0x40)\n  dup1\n  swap2\n  sub\n  swap1\n  log3\n    /* \"contracts/Utils.sol\":15182:15310  {... */\n  pop\n    /* \"contracts/Utils.sol\":15119:15310  function _transferOwnership(address newOwner) internal virtual {... */\n  pop\n  jump\t// out\n    /* \"#utility.yul\":88:205   */\ntag_16:\n    /* \"#utility.yul\":197:198   */\n  0x00\n    /* \"#utility.yul\":194:195   */\n  dup1\n    /* \"#utility.yul\":187:199   */\n  revert\n    /* \"#utility.yul\":334:460   */\ntag_18:\n    /* \"#utility.yul\":371:378   */\n  0x00\n    /* \"#utility.yul\":411:453   */\n  0xffffffffffffffffffffffffffffffffffffffff\n    /* \"#utility.yul\":404:409   */\n  dup3\n    /* \"#utility.yul\":400:454   */\n  and\n    /* \"#utility.yul\":389:454   */\n  swap1\n  pop\n    /* \"#utility.yul\":334:460   */\n  swap2\n  swap1\n  pop\n  jump\t// out\n    /* \"#utility.yul\":466:562   */\ntag_19:\n    /* \"#utility.yul\":503:510   */\n  0x00\n    /* \"#utility.yul\":532:556   */\n  tag_31\n    /* \"#utility.yul\":550:555   */\n  dup3\n    /* \"#utility.yul\":532:556   */\n  tag_18\n  jump\t// in\ntag_31:\n    /* \"#utility.yul\":521:556   */\n  swap1\n  pop\n    /* \"#utility.yul\":466:562   */\n  swap2\n  swap1\n  pop\n  jump\t// out\n    /* \"#utility.yul\":568:678   */\ntag_20:\n    /* \"#utility.yul\":619:626   */\n  0x00\n    /* \"#utility.yul\":648:672   */\n  tag_33\n    /* \"#utility.yul\":666:671   */\n  dup3\n    /* \"#utility.yul\":648:672   */\n  tag_19\n  jump\t// in\ntag_33:\n    /* \"#utility.yul\":637:672   */\n  swap1\n  pop\n    /* \"#utility.yul\":568:678   */\n  swap2\n  swap1\n  pop\n  jump\t// out\n    /* \"#utility.yul\":684:834   */\ntag_21:\n    /* \"#utility.yul\":771:809   */\n  tag_35\n    /* \"#utility.yul\":803:808   */\n  dup2\n    /* \"#utility.yul\":771:809   */\n  tag_20\n  jump\t// in\ntag_35:\n    /* \"#utility.yul\":764:769   */\n  dup2\n    /* \"#utility.yul\":761:810   */\n  eq\n    /* \"#utility.yul\":751:828   */\n  tag_36\n  jumpi\n    /* \"#utility.yul\":824:825   */\n  0x00\n    /* \"#utility.yul\":821:822   */\n  dup1\n    /* \"#utility.yul\":814:826   */\n  revert\n    /* \"#utility.yul\":751:828   */\ntag_36:\n    /* \"#utility.yul\":684:834   */\n  pop\n  jump\t// out\n    /* \"#utility.yul\":840:1011   */\ntag_22:\n    /* \"#utility.yul\":911:916   */\n  0x00\n    /* \"#utility.yul\":942:948   */\n  dup2\n    /* \"#utility.yul\":936:949   */\n  mload\n    /* \"#utility.yul\":927:949   */\n  swap1\n  pop\n    /* \"#utility.yul\":958:1005   */\n  tag_38\n    /* \"#utility.yul\":999:1004   */\n  dup2\n    /* \"#utility.yul\":958:1005   */\n  tag_21\n  jump\t// in\ntag_38:\n    /* \"#utility.yul\":840:1011   */\n  swap3\n  swap2\n  pop\n  pop\n  jump\t// out\n    /* \"#utility.yul\":1017:1139   */\ntag_23:\n    /* \"#utility.yul\":1090:1114   */\n  tag_40\n    /* \"#utility.yul\":1108:1113   */\n  dup2\n    /* \"#utility.yul\":1090:1114   */\n  tag_19\n  jump\t// in\ntag_40:\n    /* \"#utility.yul\":1083:1088   */\n  dup2\n    /* \"#utility.yul\":1080:1115   */\n  eq\n    /* \"#utility.yul\":1070:1133   */\n  tag_41\n  jumpi\n    /* \"#utility.yul\":1129:1130   */\n  0x00\n    /* \"#utility.yul\":1126:1127   */\n  dup1\n    /* \"#utility.yul\":1119:1131   */\n  revert\n    /* \"#utility.yul\":1070:1133   */\ntag_41:\n    /* \"#utility.yul\":1017:1139   */\n  pop\n  jump\t// out\n    /* \"#utility.yul\":1145:1288   */\ntag_24:\n    /* \"#utility.yul\":1202:1207   */\n  0x00\n    /* \"#utility.yul\":1233:1239   */\n  dup2\n    /* \"#utility.yul\":1227:1240   */\n  mload\n    /* \"#utility.yul\":1218:1240   */\n  swap1\n  pop\n    /* \"#utility.yul\":1249:1282   */\n  tag_43\n    /* \"#utility.yul\":1276:1281   */\n  dup2\n    /* \"#utility.yul\":1249:1282   */\n  tag_23\n  jump\t// in\ntag_43:\n    /* \"#utility.yul\":1145:1288   */\n  swap3\n  swap2\n  pop\n  pop\n  jump\t// out\n    /* \"#utility.yul\":1294:1985   */\ntag_3:\n    /* \"#utility.yul\":1396:1402   */\n  0x00\n    /* \"#utility.yul\":1404:1410   */\n  dup1\n    /* \"#utility.yul\":1412:1418   */\n  0x00\n    /* \"#utility.yul\":1461:1463   */\n  0x60\n    /* \"#utility.yul\":1449:1458   */\n  dup5\n    /* \"#utility.yul\":1440:1447   */\n  dup7\n    /* \"#utility.yul\":1436:1459   */\n  sub\n    /* \"#utility.yul\":1432:1464   */\n  slt\n    /* \"#utility.yul\":1429:1548   */\n  iszero\n  tag_45\n  jumpi\n    /* \"#utility.yul\":1467:1546   */\n  tag_46\n  tag_16\n  jump\t// in\ntag_46:\n    /* \"#utility.yul\":1429:1548   */\ntag_45:\n    /* \"#utility.yul\":1587:1588   */\n  0x00\n    /* \"#utility.yul\":1612:1690   */\n  tag_47\n    /* \"#utility.yul\":1682:1689   */\n  dup7\n    /* \"#utility.yul\":1673:1679   */\n  dup3\n    /* \"#utility.yul\":1662:1671   */\n  dup8\n    /* \"#utility.yul\":1658:1680   */\n  add\n    /* \"#utility.yul\":1612:1690   */\n  tag_22\n  jump\t// in\ntag_47:\n    /* \"#utility.yul\":1602:1690   */\n  swap4\n  pop\n    /* \"#utility.yul\":1558:1700   */\n  pop\n    /* \"#utility.yul\":1739:1741   */\n  0x20\n    /* \"#utility.yul\":1765:1829   */\n  tag_48\n    /* \"#utility.yul\":1821:1828   */\n  dup7\n    /* \"#utility.yul\":1812:1818   */\n  dup3\n    /* \"#utility.yul\":1801:1810   */\n  dup8\n    /* \"#utility.yul\":1797:1819   */\n  add\n    /* \"#utility.yul\":1765:1829   */\n  tag_24\n  jump\t// in\ntag_48:\n    /* \"#utility.yul\":1755:1829   */\n  swap3\n  pop\n    /* \"#utility.yul\":1710:1839   */\n  pop\n    /* \"#utility.yul\":1878:1880   */\n  0x40\n    /* \"#utility.yul\":1904:1968   */\n  tag_49\n    /* \"#utility.yul\":1960:1967   */\n  dup7\n    /* \"#utility.yul\":1951:1957   */\n  dup3\n    /* \"#utility.yul\":1940:1949   */\n  dup8\n    /* \"#utility.yul\":1936:1958   */\n  add\n    /* \"#utility.yul\":1904:1968   */\n  tag_24\n  jump\t// in\ntag_49:\n    /* \"#utility.yul\":1894:1968   */\n  swap2\n  pop\n    /* \"#utility.yul\":1849:1978   */\n  pop\n    /* \"#utility.yul\":1294:1985   */\n  swap3\n  pop\n  swap3\n  pop\n  swap3\n  jump\t// out\n    /* \"contracts/Utils.sol\":17259:21307  contract Utils is Ownable{... */\ntag_12:\n  dataSize(sub_0)\n  dup1\n  dataOffset(sub_0)\n  0x00\n  codecopy\n  0x00\n  return\nstop\n\nsub_0: assembly {\n        /* \"contracts/Utils.sol\":17259:21307  contract Utils is Ownable{... */\n      mstore(0x40, 0x80)\n      callvalue\n      dup1\n      iszero\n      tag_1\n      jumpi\n      0x00\n      dup1\n      revert\n    tag_1:\n      pop\n      jumpi(tag_2, lt(calldatasize, 0x04))\n      shr(0xe0, calldataload(0x00))\n      dup1\n      0x715018a6\n      gt\n      tag_18\n      jumpi\n      dup1\n      0xd979fb5f\n      gt\n      tag_19\n      jumpi\n      dup1\n      0xd979fb5f\n      eq\n      tag_14\n      jumpi\n      dup1\n      0xdbb79348\n      eq\n      tag_15\n      jumpi\n      dup1\n      0xf2fde38b\n      eq\n      tag_16\n      jumpi\n      dup1\n      0xf8a8fd6d\n      eq\n      tag_17\n      jumpi\n      jump(tag_2)\n    tag_19:\n      dup1\n      0x715018a6\n      eq\n      tag_10\n      jumpi\n      dup1\n      0x8da5cb5b\n      eq\n      tag_11\n      jumpi\n      dup1\n      0x8dd95002\n      eq\n      tag_12\n      jumpi\n      dup1\n      0xc0d78655\n      eq\n      tag_13\n      jumpi\n      jump(tag_2)\n    tag_18:\n      dup1\n      0x3268cc56\n      gt\n      tag_20\n      jumpi\n      dup1\n      0x3268cc56\n      eq\n      tag_6\n      jumpi\n      dup1\n      0x3b979d45\n      eq\n      tag_7\n      jumpi\n      dup1\n      0x484f4ea9\n      eq\n      tag_8\n      jumpi\n      dup1\n      0x55b44eaf\n      eq\n      tag_9\n      jumpi\n      jump(tag_2)\n    tag_20:\n      dup1\n      0x19047f8a\n      eq\n      tag_3\n      jumpi\n      dup1\n      0x215cc989\n      eq\n      tag_4\n      jumpi\n      dup1\n      0x2f7c5980\n      eq\n      tag_5\n      jumpi\n    tag_2:\n      0x00\n      dup1\n      revert\n        /* \"contracts/Utils.sol\":17918:18177  function Tokenprice(address token) public view returns(uint256){... */\n    tag_3:\n      tag_21\n      0x04\n      dup1\n      calldatasize\n      sub\n      dup2\n      add\n      swap1\n      tag_22\n      swap2\n      swap1\n      tag_23\n      jump\t// in\n    tag_22:\n      tag_24\n      jump\t// in\n    tag_21:\n      mload(0x40)\n      tag_25\n      swap2\n      swap1\n      tag_26\n      jump\t// in\n    tag_25:\n      mload(0x40)\n      dup1\n      swap2\n      sub\n      swap1\n      return\n        /* \"contracts/Utils.sol\":18460:19308  function CalcLpPrice(LP lpAddress) public view returns(uint256){... */\n    tag_4:\n      tag_27\n      0x04\n      dup1\n      calldatasize\n      sub\n      dup2\n      add\n      swap1\n      tag_28\n      swap2\n      swap1\n      tag_29\n      jump\t// in\n    tag_28:\n      tag_30\n      jump\t// in\n    tag_27:\n      mload(0x40)\n      tag_31\n      swap2\n      swap1\n      tag_26\n      jump\t// in\n    tag_31:\n      mload(0x40)\n      dup1\n      swap2\n      sub\n      swap1\n      return\n        /* \"contracts/Utils.sol\":20620:20799  function isLpAddress(LP lpAddress) public view returns(uint256){... */\n    tag_5:\n      tag_32\n      0x04\n      dup1\n      calldatasize\n      sub\n      dup2\n      add\n      swap1\n      tag_33\n      swap2\n      swap1\n      tag_29\n      jump\t// in\n    tag_33:\n      tag_34\n      jump\t// in\n    tag_32:\n      mload(0x40)\n      tag_35\n      swap2\n      swap1\n      tag_26\n      jump\t// in\n    tag_35:\n      mload(0x40)\n      dup1\n      swap2\n      sub\n      swap1\n      return\n        /* \"contracts/Utils.sol\":17535:17562  Router public routerAddress */\n    tag_6:\n      tag_36\n      tag_37\n      jump\t// in\n    tag_36:\n      mload(0x40)\n      tag_38\n      swap2\n      swap1\n      tag_39\n      jump\t// in\n    tag_38:\n      mload(0x40)\n      dup1\n      swap2\n      sub\n      swap1\n      return\n        /* \"contracts/Utils.sol\":18202:18435  function WBNBPrice(address token) public view returns(uint256){... */\n    tag_7:\n      tag_40\n      0x04\n      dup1\n      calldatasize\n      sub\n      dup2\n      add\n      swap1\n      tag_41\n      swap2\n      swap1\n      tag_23\n      jump\t// in\n    tag_41:\n      tag_42\n      jump\t// in\n    tag_40:\n      mload(0x40)\n      tag_43\n      swap2\n      swap1\n      tag_26\n      jump\t// in\n    tag_43:\n      mload(0x40)\n      dup1\n      swap2\n      sub\n      swap1\n      return\n        /* \"contracts/Utils.sol\":17466:17485  address public BUSD */\n    tag_8:\n      tag_44\n      tag_45\n      jump\t// in\n    tag_44:\n      mload(0x40)\n      tag_46\n      swap2\n      swap1\n      tag_47\n      jump\t// in\n    tag_46:\n      mload(0x40)\n      dup1\n      swap2\n      sub\n      swap1\n      return\n        /* \"contracts/Utils.sol\":20850:21304  function CalcTotalTVL(MetaMasterChef MasterChef,LP[] memory lpAddress) external view returns(uint256){... */\n    tag_9:\n      tag_48\n      0x04\n      dup1\n      calldatasize\n      sub\n      dup2\n      add\n      swap1\n      tag_49\n      swap2\n      swap1\n      tag_50\n      jump\t// in\n    tag_49:\n      tag_51\n      jump\t// in\n    tag_48:\n      mload(0x40)\n      tag_52\n      swap2\n      swap1\n      tag_26\n      jump\t// in\n    tag_52:\n      mload(0x40)\n      dup1\n      swap2\n      sub\n      swap1\n      return\n        /* \"contracts/Utils.sol\":14500:14603  function renounceOwnership() public virtual onlyOwner {... */\n    tag_10:\n      tag_53\n      tag_54\n      jump\t// in\n    tag_53:\n      stop\n        /* \"contracts/Utils.sol\":13849:13936  function owner() public view virtual returns (address) {... */\n    tag_11:\n      tag_55\n      tag_56\n      jump\t// in\n    tag_55:\n      mload(0x40)\n      tag_57\n      swap2\n      swap1\n      tag_47\n      jump\t// in\n    tag_57:\n      mload(0x40)\n      dup1\n      swap2\n      sub\n      swap1\n      return\n        /* \"contracts/Utils.sol\":17440:17459  address public WBNB */\n    tag_12:\n      tag_58\n      tag_59\n      jump\t// in\n    tag_58:\n      mload(0x40)\n      tag_60\n      swap2\n      swap1\n      tag_47\n      jump\t// in\n    tag_60:\n      mload(0x40)\n      dup1\n      swap2\n      sub\n      swap1\n      return\n        /* \"contracts/Utils.sol\":17786:17893  function setRouter(Router _routerAddress) public onlyOwner{... */\n    tag_13:\n      tag_61\n      0x04\n      dup1\n      calldatasize\n      sub\n      dup2\n      add\n      swap1\n      tag_62\n      swap2\n      swap1\n      tag_63\n      jump\t// in\n    tag_62:\n      tag_64\n      jump\t// in\n    tag_61:\n      stop\n        /* \"contracts/Utils.sol\":19331:19902  function calcPoolTVLInUSD(uint256 pid, LP lpAddress, uint256 isLp, MetaMasterChef MasterChef) public view returns(uint256){... */\n    tag_14:\n      tag_65\n      0x04\n      dup1\n      calldatasize\n      sub\n      dup2\n      add\n      swap1\n      tag_66\n      swap2\n      swap1\n      tag_67\n      jump\t// in\n    tag_66:\n      tag_68\n      jump\t// in\n    tag_65:\n      mload(0x40)\n      tag_69\n      swap2\n      swap1\n      tag_26\n      jump\t// in\n    tag_69:\n      mload(0x40)\n      dup1\n      swap2\n      sub\n      swap1\n      return\n        /* \"contracts/Utils.sol\":19910:20612  function CalcApy(uint256 pid, LP lpAddress,uint256 isLp, MetaMasterChef MasterChef) external view returns(uint256){... */\n    tag_15:\n      tag_70\n      0x04\n      dup1\n      calldatasize\n      sub\n      dup2\n      add\n      swap1\n      tag_71\n      swap2\n      swap1\n      tag_67\n      jump\t// in\n    tag_71:\n      tag_72\n      jump\t// in\n    tag_70:\n      mload(0x40)\n      tag_73\n      swap2\n      swap1\n      tag_26\n      jump\t// in\n    tag_73:\n      mload(0x40)\n      dup1\n      swap2\n      sub\n      swap1\n      return\n        /* \"contracts/Utils.sol\":14758:14959  function transferOwnership(address newOwner) public virtual onlyOwner {... */\n    tag_16:\n      tag_74\n      0x04\n      dup1\n      calldatasize\n      sub\n      dup2\n      add\n      swap1\n      tag_75\n      swap2\n      swap1\n      tag_23\n      jump\t// in\n    tag_75:\n      tag_76\n      jump\t// in\n    tag_74:\n      stop\n        /* \"contracts/Utils.sol\":20807:20842  function test() external {... */\n    tag_17:\n      tag_77\n      tag_78\n      jump\t// in\n    tag_77:\n      stop\n        /* \"contracts/Utils.sol\":17918:18177  function Tokenprice(address token) public view returns(uint256){... */\n    tag_24:\n        /* \"contracts/Utils.sol\":17973:17980  uint256 */\n      0x00\n        /* \"contracts/Utils.sol\":17992:18013  address[] memory path */\n      dup1\n        /* \"contracts/Utils.sol\":18030:18031  3 */\n      0x03\n        /* \"contracts/Utils.sol\":18016:18032  new address[](3) */\n      0xffffffffffffffff\n      dup2\n      gt\n      iszero\n      tag_80\n      jumpi\n      tag_81\n      tag_82\n      jump\t// in\n    tag_81:\n    tag_80:\n      mload(0x40)\n      swap1\n      dup1\n      dup3\n      mstore\n      dup1\n      0x20\n      mul\n      0x20\n      add\n      dup3\n      add\n      0x40\n      mstore\n      dup1\n      iszero\n      tag_83\n      jumpi\n      dup2\n      0x20\n      add\n      0x20\n      dup3\n      mul\n      dup1\n      calldatasize\n      dup4\n      calldatacopy\n      dup1\n      dup3\n      add\n      swap2\n      pop\n      pop\n      swap1\n      pop\n    tag_83:\n      pop\n        /* \"contracts/Utils.sol\":17992:18032  address[] memory path = new address[](3) */\n      swap1\n      pop\n        /* \"contracts/Utils.sol\":18053:18058  token */\n      dup3\n        /* \"contracts/Utils.sol\":18043:18047  path */\n      dup2\n        /* \"contracts/Utils.sol\":18048:18049  0 */\n      0x00\n        /* \"contracts/Utils.sol\":18043:18050  path[0] */\n      dup2\n      mload\n      dup2\n      lt\n      tag_84\n      jumpi\n      tag_85\n      tag_86\n      jump\t// in\n    tag_85:\n    tag_84:\n      0x20\n      mul\n      0x20\n      add\n      add\n        /* \"contracts/Utils.sol\":18043:18058  path[0] = token */\n      swap1\n      0xffffffffffffffffffffffffffffffffffffffff\n      and\n      swap1\n      dup2\n      0xffffffffffffffffffffffffffffffffffffffff\n      and\n      dup2\n      mstore\n      pop\n      pop\n        /* \"contracts/Utils.sol\":18079:18083  WBNB */\n      0x01\n      0x00\n      swap1\n      sload\n      swap1\n      0x0100\n      exp\n      swap1\n      div\n      0xffffffffffffffffffffffffffffffffffffffff\n      and\n        /* \"contracts/Utils.sol\":18069:18073  path */\n      dup2\n        /* \"contracts/Utils.sol\":18074:18075  1 */\n      0x01\n        /* \"contracts/Utils.sol\":18069:18076  path[1] */\n      dup2\n      mload\n      dup2\n      lt\n      tag_87\n      jumpi\n      tag_88\n      tag_86\n      jump\t// in\n    tag_88:\n    tag_87:\n      0x20\n      mul\n      0x20\n      add\n      add\n        /* \"contracts/Utils.sol\":18069:18083  path[1] = WBNB */\n      swap1\n      0xffffffffffffffffffffffffffffffffffffffff\n      and\n      swap1\n      dup2\n      0xffffffffffffffffffffffffffffffffffffffff\n      and\n      dup2\n      mstore\n      pop\n      pop\n        /* \"contracts/Utils.sol\":18104:18108  BUSD */\n      0x02\n      0x00\n      swap1\n      sload\n      swap1\n      0x0100\n      exp\n      swap1\n      div\n      0xffffffffffffffffffffffffffffffffffffffff\n      and\n        /* \"contracts/Utils.sol\":18094:18098  path */\n      dup2\n        /* \"contracts/Utils.sol\":18099:18100  2 */\n      0x02\n        /* \"contracts/Utils.sol\":18094:18101  path[2] */\n      dup2\n      mload\n      dup2\n      lt\n      tag_89\n      jumpi\n      tag_90\n      tag_86\n      jump\t// in\n    tag_90:\n    tag_89:\n      0x20\n      mul\n      0x20\n      add\n      add\n        /* \"contracts/Utils.sol\":18094:18108  path[2] = BUSD */\n      swap1\n      0xffffffffffffffffffffffffffffffffffffffff\n      and\n      swap1\n      dup2\n      0xffffffffffffffffffffffffffffffffffffffff\n      and\n      dup2\n      mstore\n      pop\n      pop\n        /* \"contracts/Utils.sol\":18126:18139  routerAddress */\n      0x04\n      0x00\n      swap1\n      sload\n      swap1\n      0x0100\n      exp\n      swap1\n      div\n      0xffffffffffffffffffffffffffffffffffffffff\n      and\n        /* \"contracts/Utils.sol\":18126:18153  routerAddress.getAmountsOut */\n      0xffffffffffffffffffffffffffffffffffffffff\n      and\n      0xd06ca61f\n        /* \"contracts/Utils.sol\":18154:18160  amount */\n      sload(0x03)\n        /* \"contracts/Utils.sol\":18161:18165  path */\n      dup4\n        /* \"contracts/Utils.sol\":18126:18166  routerAddress.getAmountsOut(amount,path) */\n      mload(0x40)\n      dup4\n      0xffffffff\n      and\n      0xe0\n      shl\n      dup2\n      mstore\n      0x04\n      add\n      tag_91\n      swap3\n      swap2\n      swap1\n      tag_92\n      jump\t// in\n    tag_91:\n      0x00\n      mload(0x40)\n      dup1\n      dup4\n      sub\n      dup2\n      dup7\n      gas\n      staticcall\n      iszero\n      dup1\n      iszero\n      tag_94\n      jumpi\n      returndatasize\n      0x00\n      dup1\n      returndatacopy\n      revert(0x00, returndatasize)\n    tag_94:\n      pop\n      pop\n      pop\n      pop\n      mload(0x40)\n      returndatasize\n      0x00\n      dup3\n      returndatacopy\n      returndatasize\n      not(0x1f)\n      0x1f\n      dup3\n      add\n      and\n      dup3\n      add\n      dup1\n      0x40\n      mstore\n      pop\n      dup2\n      add\n      swap1\n      tag_95\n      swap2\n      swap1\n      tag_96\n      jump\t// in\n    tag_95:\n        /* \"contracts/Utils.sol\":18167:18168  2 */\n      0x02\n        /* \"contracts/Utils.sol\":18126:18169  routerAddress.getAmountsOut(amount,path)[2] */\n      dup2\n      mload\n      dup2\n      lt\n      tag_97\n      jumpi\n      tag_98\n      tag_86\n      jump\t// in\n    tag_98:\n    tag_97:\n      0x20\n      mul\n      0x20\n      add\n      add\n      mload\n        /* \"contracts/Utils.sol\":18119:18169  return routerAddress.getAmountsOut(amount,path)[2] */\n      swap2\n      pop\n      pop\n        /* \"contracts/Utils.sol\":17918:18177  function Tokenprice(address token) public view returns(uint256){... */\n      swap2\n      swap1\n      pop\n      jump\t// out\n        /* \"contracts/Utils.sol\":18460:19308  function CalcLpPrice(LP lpAddress) public view returns(uint256){... */\n    tag_30:\n        /* \"contracts/Utils.sol\":18515:18522  uint256 */\n      0x00\n        /* \"contracts/Utils.sol\":18534:18548  uint256 phase1 */\n      dup1\n        /* \"contracts/Utils.sol\":18559:18573  uint256 phase2 */\n      0x00\n        /* \"contracts/Utils.sol\":18612:18621  lpAddress */\n      dup4\n        /* \"contracts/Utils.sol\":18612:18628  lpAddress.token0 */\n      0xffffffffffffffffffffffffffffffffffffffff\n      and\n      0x0dfe1681\n        /* \"contracts/Utils.sol\":18612:18630  lpAddress.token0() */\n      mload(0x40)\n      dup2\n      0xffffffff\n      and\n      0xe0\n      shl\n      dup2\n      mstore\n      0x04\n      add\n      0x20\n      mload(0x40)\n      dup1\n      dup4\n      sub\n      dup2\n      dup7\n      gas\n      staticcall\n      iszero\n      dup1\n      iszero\n      tag_101\n      jumpi\n      returndatasize\n      0x00\n      dup1\n      returndatacopy\n      revert(0x00, returndatasize)\n    tag_101:\n      pop\n      pop\n      pop\n      pop\n      mload(0x40)\n      returndatasize\n      not(0x1f)\n      0x1f\n      dup3\n      add\n      and\n      dup3\n      add\n      dup1\n      0x40\n      mstore\n      pop\n      dup2\n      add\n      swap1\n      tag_102\n      swap2\n      swap1\n      tag_103\n      jump\t// in\n    tag_102:\n        /* \"contracts/Utils.sol\":18587:18631  address(WBNB) == address(lpAddress.token0()) */\n      0xffffffffffffffffffffffffffffffffffffffff\n      and\n        /* \"contracts/Utils.sol\":18595:18599  WBNB */\n      0x01\n      0x00\n      swap1\n      sload\n      swap1\n      0x0100\n      exp\n      swap1\n      div\n      0xffffffffffffffffffffffffffffffffffffffff\n      and\n        /* \"contracts/Utils.sol\":18587:18631  address(WBNB) == address(lpAddress.token0()) */\n      0xffffffffffffffffffffffffffffffffffffffff\n      and\n      sub\n        /* \"contracts/Utils.sol\":18584:18897  if(address(WBNB) == address(lpAddress.token0())){... */\n      tag_104\n      jumpi\n        /* \"contracts/Utils.sol\":18657:18749  lpAddress.token0().balanceOf(address(lpAddress)).mul(WBNBPrice(address(lpAddress.token0()))) */\n      tag_105\n        /* \"contracts/Utils.sol\":18710:18748  WBNBPrice(address(lpAddress.token0())) */\n      tag_106\n        /* \"contracts/Utils.sol\":18728:18737  lpAddress */\n      dup6\n        /* \"contracts/Utils.sol\":18728:18744  lpAddress.token0 */\n      0xffffffffffffffffffffffffffffffffffffffff\n      and\n      0x0dfe1681\n        /* \"contracts/Utils.sol\":18728:18746  lpAddress.token0() */\n      mload(0x40)\n      dup2\n      0xffffffff\n      and\n      0xe0\n      shl\n      dup2\n      mstore\n      0x04\n      add\n      0x20\n      mload(0x40)\n      dup1\n      dup4\n      sub\n      dup2\n      dup7\n      gas\n      staticcall\n      iszero\n      dup1\n      iszero\n      tag_108\n      jumpi\n      returndatasize\n      0x00\n      dup1\n      returndatacopy\n      revert(0x00, returndatasize)\n    tag_108:\n      pop\n      pop\n      pop\n      pop\n      mload(0x40)\n      returndatasize\n      not(0x1f)\n      0x1f\n      dup3\n      add\n      and\n      dup3\n      add\n      dup1\n      0x40\n      mstore\n      pop\n      dup2\n      add\n      swap1\n      tag_109\n      swap2\n      swap1\n      tag_103\n      jump\t// in\n    tag_109:\n        /* \"contracts/Utils.sol\":18710:18719  WBNBPrice */\n      tag_42\n        /* \"contracts/Utils.sol\":18710:18748  WBNBPrice(address(lpAddress.token0())) */\n      jump\t// in\n    tag_106:\n        /* \"contracts/Utils.sol\":18657:18666  lpAddress */\n      dup6\n        /* \"contracts/Utils.sol\":18657:18673  lpAddress.token0 */\n      0xffffffffffffffffffffffffffffffffffffffff\n      and\n      0x0dfe1681\n        /* \"contracts/Utils.sol\":18657:18675  lpAddress.token0() */\n      mload(0x40)\n      dup2\n      0xffffffff\n      and\n      0xe0\n      shl\n      dup2\n      mstore\n      0x04\n      add\n      0x20\n      mload(0x40)\n      dup1\n      dup4\n      sub\n      dup2\n      dup7\n      gas\n      staticcall\n      iszero\n      dup1\n      iszero\n      tag_111\n      jumpi\n      returndatasize\n      0x00\n      dup1\n      returndatacopy\n      revert(0x00, returndatasize)\n    tag_111:\n      pop\n      pop\n      pop\n      pop\n      mload(0x40)\n      returndatasize\n      not(0x1f)\n      0x1f\n      dup3\n      add\n      and\n      dup3\n      add\n      dup1\n      0x40\n      mstore\n      pop\n      dup2\n      add\n      swap1\n      tag_112\n      swap2\n      swap1\n      tag_103\n      jump\t// in\n    tag_112:\n        /* \"contracts/Utils.sol\":18657:18685  lpAddress.token0().balanceOf */\n      0xffffffffffffffffffffffffffffffffffffffff\n      and\n      0x70a08231\n        /* \"contracts/Utils.sol\":18694:18703  lpAddress */\n      dup8\n        /* \"contracts/Utils.sol\":18657:18705  lpAddress.token0().balanceOf(address(lpAddress)) */\n      mload(0x40)\n      dup3\n      0xffffffff\n      and\n      0xe0\n      shl\n      dup2\n      mstore\n      0x04\n      add\n      tag_113\n      swap2\n      swap1\n      tag_47\n      jump\t// in\n    tag_113:\n      0x20\n      mload(0x40)\n      dup1\n      dup4\n      sub\n      dup2\n      dup7\n      gas\n      staticcall\n      iszero\n      dup1\n      iszero\n      tag_115\n      jumpi\n      returndatasize\n      0x00\n      dup1\n      returndatacopy\n      revert(0x00, returndatasize)\n    tag_115:\n      pop\n      pop\n      pop\n      pop\n      mload(0x40)\n      returndatasize\n      not(0x1f)\n      0x1f\n      dup3\n      add\n      and\n      dup3\n      add\n      dup1\n      0x40\n      mstore\n      pop\n      dup2\n      add\n      swap1\n      tag_116\n      swap2\n      swap1\n      tag_117\n      jump\t// in\n    tag_116:\n        /* \"contracts/Utils.sol\":18657:18709  lpAddress.token0().balanceOf(address(lpAddress)).mul */\n      tag_118\n      swap1\n        /* \"contracts/Utils.sol\":18657:18749  lpAddress.token0().balanceOf(address(lpAddress)).mul(WBNBPrice(address(lpAddress.token0()))) */\n      swap2\n      swap1\n      0xffffffff\n      and\n      jump\t// in\n    tag_105:\n        /* \"contracts/Utils.sol\":18647:18750  phase1 = (lpAddress.token0().balanceOf(address(lpAddress)).mul(WBNBPrice(address(lpAddress.token0())))) */\n      swap2\n      pop\n        /* \"contracts/Utils.sol\":18584:18897  if(address(WBNB) == address(lpAddress.token0())){... */\n      jump(tag_119)\n    tag_104:\n        /* \"contracts/Utils.sol\":18791:18884  lpAddress.token0().balanceOf(address(lpAddress)).mul(Tokenprice(address(lpAddress.token0()))) */\n      tag_120\n        /* \"contracts/Utils.sol\":18844:18883  Tokenprice(address(lpAddress.token0())) */\n      tag_121\n        /* \"contracts/Utils.sol\":18863:18872  lpAddress */\n      dup6\n        /* \"contracts/Utils.sol\":18863:18879  lpAddress.token0 */\n      0xffffffffffffffffffffffffffffffffffffffff\n      and\n      0x0dfe1681\n        /* \"contracts/Utils.sol\":18863:18881  lpAddress.token0() */\n      mload(0x40)\n      dup2\n      0xffffffff\n      and\n      0xe0\n      shl\n      dup2\n      mstore\n      0x04\n      add\n      0x20\n      mload(0x40)\n      dup1\n      dup4\n      sub\n      dup2\n      dup7\n      gas\n      staticcall\n      iszero\n      dup1\n      iszero\n      tag_123\n      jumpi\n      returndatasize\n      0x00\n      dup1\n      returndatacopy\n      revert(0x00, returndatasize)\n    tag_123:\n      pop\n      pop\n      pop\n      pop\n      mload(0x40)\n      returndatasize\n      not(0x1f)\n      0x1f\n      dup3\n      add\n      and\n      dup3\n      add\n      dup1\n      0x40\n      mstore\n      pop\n      dup2\n      add\n      swap1\n      tag_124\n      swap2\n      swap1\n      tag_103\n      jump\t// in\n    tag_124:\n        /* \"contracts/Utils.sol\":18844:18854  Tokenprice */\n      tag_24\n        /* \"contracts/Utils.sol\":18844:18883  Tokenprice(address(lpAddress.token0())) */\n      jump\t// in\n    tag_121:\n        /* \"contracts/Utils.sol\":18791:18800  lpAddress */\n      dup6\n        /* \"contracts/Utils.sol\":18791:18807  lpAddress.token0 */\n      0xffffffffffffffffffffffffffffffffffffffff\n      and\n      0x0dfe1681\n        /* \"contracts/Utils.sol\":18791:18809  lpAddress.token0() */\n      mload(0x40)\n      dup2\n      0xffffffff\n      and\n      0xe0\n      shl\n      dup2\n      mstore\n      0x04\n      add\n      0x20\n      mload(0x40)\n      dup1\n      dup4\n      sub\n      dup2\n      dup7\n      gas\n      staticcall\n      iszero\n      dup1\n      iszero\n      tag_126\n      jumpi\n      returndatasize\n      0x00\n      dup1\n      returndatacopy\n      revert(0x00, returndatasize)\n    tag_126:\n      pop\n      pop\n      pop\n      pop\n      mload(0x40)\n      returndatasize\n      not(0x1f)\n      0x1f\n      dup3\n      add\n      and\n      dup3\n      add\n      dup1\n      0x40\n      mstore\n      pop\n      dup2\n      add\n      swap1\n      tag_127\n      swap2\n      swap1\n      tag_103\n      jump\t// in\n    tag_127:\n        /* \"contracts/Utils.sol\":18791:18819  lpAddress.token0().balanceOf */\n      0xffffffffffffffffffffffffffffffffffffffff\n      and\n      0x70a08231\n        /* \"contracts/Utils.sol\":18828:18837  lpAddress */\n      dup8\n        /* \"contracts/Utils.sol\":18791:18839  lpAddress.token0().balanceOf(address(lpAddress)) */\n      mload(0x40)\n      dup3\n      0xffffffff\n      and\n      0xe0\n      shl\n      dup2\n      mstore\n      0x04\n      add\n      tag_128\n      swap2\n      swap1\n      tag_47\n      jump\t// in\n    tag_128:\n      0x20\n      mload(0x40)\n      dup1\n      dup4\n      sub\n      dup2\n      dup7\n      gas\n      staticcall\n      iszero\n      dup1\n      iszero\n      tag_130\n      jumpi\n      returndatasize\n      0x00\n      dup1\n      returndatacopy\n      revert(0x00, returndatasize)\n    tag_130:\n      pop\n      pop\n      pop\n      pop\n      mload(0x40)\n      returndatasize\n      not(0x1f)\n      0x1f\n      dup3\n      add\n      and\n      dup3\n      add\n      dup1\n      0x40\n      mstore\n      pop\n      dup2\n      add\n      swap1\n      tag_131\n      swap2\n      swap1\n      tag_117\n      jump\t// in\n    tag_131:\n        /* \"contracts/Utils.sol\":18791:18843  lpAddress.token0().balanceOf(address(lpAddress)).mul */\n      tag_118\n      swap1\n        /* \"contracts/Utils.sol\":18791:18884  lpAddress.token0().balanceOf(address(lpAddress)).mul(Tokenprice(address(lpAddress.token0()))) */\n      swap2\n      swap1\n      0xffffffff\n      and\n      jump\t// in\n    tag_120:\n        /* \"contracts/Utils.sol\":18781:18885  phase1 = (lpAddress.token0().balanceOf(address(lpAddress)).mul(Tokenprice(address(lpAddress.token0())))) */\n      swap2\n      pop\n        /* \"contracts/Utils.sol\":18584:18897  if(address(WBNB) == address(lpAddress.token0())){... */\n    tag_119:\n        /* \"contracts/Utils.sol\":18937:18946  lpAddress */\n      dup4\n        /* \"contracts/Utils.sol\":18937:18953  lpAddress.token1 */\n      0xffffffffffffffffffffffffffffffffffffffff\n      and\n      0xd21220a7\n        /* \"contracts/Utils.sol\":18937:18955  lpAddress.token1() */\n      mload(0x40)\n      dup2\n      0xffffffff\n      and\n      0xe0\n      shl\n      dup2\n      mstore\n      0x04\n      add\n      0x20\n      mload(0x40)\n      dup1\n      dup4\n      sub\n      dup2\n      dup7\n      gas\n      staticcall\n      iszero\n      dup1\n      iszero\n      tag_133\n      jumpi\n      returndatasize\n      0x00\n      dup1\n      returndatacopy\n      revert(0x00, returndatasize)\n    tag_133:\n      pop\n      pop\n      pop\n      pop\n      mload(0x40)\n      returndatasize\n      not(0x1f)\n      0x1f\n      dup3\n      add\n      and\n      dup3\n      add\n      dup1\n      0x40\n      mstore\n      pop\n      dup2\n      add\n      swap1\n      tag_134\n      swap2\n      swap1\n      tag_103\n      jump\t// in\n    tag_134:\n        /* \"contracts/Utils.sol\":18912:18956  address(WBNB) == address(lpAddress.token1()) */\n      0xffffffffffffffffffffffffffffffffffffffff\n      and\n        /* \"contracts/Utils.sol\":18920:18924  WBNB */\n      0x01\n      0x00\n      swap1\n      sload\n      swap1\n      0x0100\n      exp\n      swap1\n      div\n      0xffffffffffffffffffffffffffffffffffffffff\n      and\n        /* \"contracts/Utils.sol\":18912:18956  address(WBNB) == address(lpAddress.token1()) */\n      0xffffffffffffffffffffffffffffffffffffffff\n      and\n      sub\n        /* \"contracts/Utils.sol\":18909:19222  if(address(WBNB) == address(lpAddress.token1())){... */\n      tag_135\n      jumpi\n        /* \"contracts/Utils.sol\":18982:19074  lpAddress.token1().balanceOf(address(lpAddress)).mul(WBNBPrice(address(lpAddress.token1()))) */\n      tag_136\n        /* \"contracts/Utils.sol\":19035:19073  WBNBPrice(address(lpAddress.token1())) */\n      tag_137\n        /* \"contracts/Utils.sol\":19053:19062  lpAddress */\n      dup6\n        /* \"contracts/Utils.sol\":19053:19069  lpAddress.token1 */\n      0xffffffffffffffffffffffffffffffffffffffff\n      and\n      0xd21220a7\n        /* \"contracts/Utils.sol\":19053:19071  lpAddress.token1() */\n      mload(0x40)\n      dup2\n      0xffffffff\n      and\n      0xe0\n      shl\n      dup2\n      mstore\n      0x04\n      add\n      0x20\n      mload(0x40)\n      dup1\n      dup4\n      sub\n      dup2\n      dup7\n      gas\n      staticcall\n      iszero\n      dup1\n      iszero\n      tag_139\n      jumpi\n      returndatasize\n      0x00\n      dup1\n      returndatacopy\n      revert(0x00, returndatasize)\n    tag_139:\n      pop\n      pop\n      pop\n      pop\n      mload(0x40)\n      returndatasize\n      not(0x1f)\n      0x1f\n      dup3\n      add\n      and\n      dup3\n      add\n      dup1\n      0x40\n      mstore\n      pop\n      dup2\n      add\n      swap1\n      tag_140\n      swap2\n      swap1\n      tag_103\n      jump\t// in\n    tag_140:\n        /* \"contracts/Utils.sol\":19035:19044  WBNBPrice */\n      tag_42\n        /* \"contracts/Utils.sol\":19035:19073  WBNBPrice(address(lpAddress.token1())) */\n      jump\t// in\n    tag_137:\n        /* \"contracts/Utils.sol\":18982:18991  lpAddress */\n      dup6\n        /* \"contracts/Utils.sol\":18982:18998  lpAddress.token1 */\n      0xffffffffffffffffffffffffffffffffffffffff\n      and\n      0xd21220a7\n        /* \"contracts/Utils.sol\":18982:19000  lpAddress.token1() */\n      mload(0x40)\n      dup2\n      0xffffffff\n      and\n      0xe0\n      shl\n      dup2\n      mstore\n      0x04\n      add\n      0x20\n      mload(0x40)\n      dup1\n      dup4\n      sub\n      dup2\n      dup7\n      gas\n      staticcall\n      iszero\n      dup1\n      iszero\n      tag_142\n      jumpi\n      returndatasize\n      0x00\n      dup1\n      returndatacopy\n      revert(0x00, returndatasize)\n    tag_142:\n      pop\n      pop\n      pop\n      pop\n      mload(0x40)\n      returndatasize\n      not(0x1f)\n      0x1f\n      dup3\n      add\n      and\n      dup3\n      add\n      dup1\n      0x40\n      mstore\n      pop\n      dup2\n      add\n      swap1\n      tag_143\n      swap2\n      swap1\n      tag_103\n      jump\t// in\n    tag_143:\n        /* \"contracts/Utils.sol\":18982:19010  lpAddress.token1().balanceOf */\n      0xffffffffffffffffffffffffffffffffffffffff\n      and\n      0x70a08231\n        /* \"contracts/Utils.sol\":19019:19028  lpAddress */\n      dup8\n        /* \"contracts/Utils.sol\":18982:19030  lpAddress.token1().balanceOf(address(lpAddress)) */\n      mload(0x40)\n      dup3\n      0xffffffff\n      and\n      0xe0\n      shl\n      dup2\n      mstore\n      0x04\n      add\n      tag_144\n      swap2\n      swap1\n      tag_47\n      jump\t// in\n    tag_144:\n      0x20\n      mload(0x40)\n      dup1\n      dup4\n      sub\n      dup2\n      dup7\n      gas\n      staticcall\n      iszero\n      dup1\n      iszero\n      tag_146\n      jumpi\n      returndatasize\n      0x00\n      dup1\n      returndatacopy\n      revert(0x00, returndatasize)\n    tag_146:\n      pop\n      pop\n      pop\n      pop\n      mload(0x40)\n      returndatasize\n      not(0x1f)\n      0x1f\n      dup3\n      add\n      and\n      dup3\n      add\n      dup1\n      0x40\n      mstore\n      pop\n      dup2\n      add\n      swap1\n      tag_147\n      swap2\n      swap1\n      tag_117\n      jump\t// in\n    tag_147:\n        /* \"contracts/Utils.sol\":18982:19034  lpAddress.token1().balanceOf(address(lpAddress)).mul */\n      tag_118\n      swap1\n        /* \"contracts/Utils.sol\":18982:19074  lpAddress.token1().balanceOf(address(lpAddress)).mul(WBNBPrice(address(lpAddress.token1()))) */\n      swap2\n      swap1\n      0xffffffff\n      and\n      jump\t// in\n    tag_136:\n        /* \"contracts/Utils.sol\":18972:19075  phase2 = (lpAddress.token1().balanceOf(address(lpAddress)).mul(WBNBPrice(address(lpAddress.token1())))) */\n      swap1\n      pop\n        /* \"contracts/Utils.sol\":18909:19222  if(address(WBNB) == address(lpAddress.token1())){... */\n      jump(tag_148)\n    tag_135:\n        /* \"contracts/Utils.sol\":19116:19209  lpAddress.token1().balanceOf(address(lpAddress)).mul(Tokenprice(address(lpAddress.token1()))) */\n      tag_149\n        /* \"contracts/Utils.sol\":19169:19208  Tokenprice(address(lpAddress.token1())) */\n      tag_150\n        /* \"contracts/Utils.sol\":19188:19197  lpAddress */\n      dup6\n        /* \"contracts/Utils.sol\":19188:19204  lpAddress.token1 */\n      0xffffffffffffffffffffffffffffffffffffffff\n      and\n      0xd21220a7\n        /* \"contracts/Utils.sol\":19188:19206  lpAddress.token1() */\n      mload(0x40)\n      dup2\n      0xffffffff\n      and\n      0xe0\n      shl\n      dup2\n      mstore\n      0x04\n      add\n      0x20\n      mload(0x40)\n      dup1\n      dup4\n      sub\n      dup2\n      dup7\n      gas\n      staticcall\n      iszero\n      dup1\n      iszero\n      tag_152\n      jumpi\n      returndatasize\n      0x00\n      dup1\n      returndatacopy\n      revert(0x00, returndatasize)\n    tag_152:\n      pop\n      pop\n      pop\n      pop\n      mload(0x40)\n      returndatasize\n      not(0x1f)\n      0x1f\n      dup3\n      add\n      and\n      dup3\n      add\n      dup1\n      0x40\n      mstore\n      pop\n      dup2\n      add\n      swap1\n      tag_153\n      swap2\n      swap1\n      tag_103\n      jump\t// in\n    tag_153:\n        /* \"contracts/Utils.sol\":19169:19179  Tokenprice */\n      tag_24\n        /* \"contracts/Utils.sol\":19169:19208  Tokenprice(address(lpAddress.token1())) */\n      jump\t// in\n    tag_150:\n        /* \"contracts/Utils.sol\":19116:19125  lpAddress */\n      dup6\n        /* \"contracts/Utils.sol\":19116:19132  lpAddress.token1 */\n      0xffffffffffffffffffffffffffffffffffffffff\n      and\n      0xd21220a7\n        /* \"contracts/Utils.sol\":19116:19134  lpAddress.token1() */\n      mload(0x40)\n      dup2\n      0xffffffff\n      and\n      0xe0\n      shl\n      dup2\n      mstore\n      0x04\n      add\n      0x20\n      mload(0x40)\n      dup1\n      dup4\n      sub\n      dup2\n      dup7\n      gas\n      staticcall\n      iszero\n      dup1\n      iszero\n      tag_155\n      jumpi\n      returndatasize\n      0x00\n      dup1\n      returndatacopy\n      revert(0x00, returndatasize)\n    tag_155:\n      pop\n      pop\n      pop\n      pop\n      mload(0x40)\n      returndatasize\n      not(0x1f)\n      0x1f\n      dup3\n      add\n      and\n      dup3\n      add\n      dup1\n      0x40\n      mstore\n      pop\n      dup2\n      add\n      swap1\n      tag_156\n      swap2\n      swap1\n      tag_103\n      jump\t// in\n    tag_156:\n        /* \"contracts/Utils.sol\":19116:19144  lpAddress.token1().balanceOf */\n      0xffffffffffffffffffffffffffffffffffffffff\n      and\n      0x70a08231\n        /* \"contracts/Utils.sol\":19153:19162  lpAddress */\n      dup8\n        /* \"contracts/Utils.sol\":19116:19164  lpAddress.token1().balanceOf(address(lpAddress)) */\n      mload(0x40)\n      dup3\n      0xffffffff\n      and\n      0xe0\n      shl\n      dup2\n      mstore\n      0x04\n      add\n      tag_157\n      swap2\n      swap1\n      tag_47\n      jump\t// in\n    tag_157:\n      0x20\n      mload(0x40)\n      dup1\n      dup4\n      sub\n      dup2\n      dup7\n      gas\n      staticcall\n      iszero\n      dup1\n      iszero\n      tag_159\n      jumpi\n      returndatasize\n      0x00\n      dup1\n      returndatacopy\n      revert(0x00, returndatasize)\n    tag_159:\n      pop\n      pop\n      pop\n      pop\n      mload(0x40)\n      returndatasize\n      not(0x1f)\n      0x1f\n      dup3\n      add\n      and\n      dup3\n      add\n      dup1\n      0x40\n      mstore\n      pop\n      dup2\n      add\n      swap1\n      tag_160\n      swap2\n      swap1\n      tag_117\n      jump\t// in\n    tag_160:\n        /* \"contracts/Utils.sol\":19116:19168  lpAddress.token1().balanceOf(address(lpAddress)).mul */\n      tag_118\n      swap1\n        /* \"contracts/Utils.sol\":19116:19209  lpAddress.token1().balanceOf(address(lpAddress)).mul(Tokenprice(address(lpAddress.token1()))) */\n      swap2\n      swap1\n      0xffffffff\n      and\n      jump\t// in\n    tag_149:\n        /* \"contracts/Utils.sol\":19106:19210  phase2 = (lpAddress.token1().balanceOf(address(lpAddress)).mul(Tokenprice(address(lpAddress.token1())))) */\n      swap1\n      pop\n        /* \"contracts/Utils.sol\":18909:19222  if(address(WBNB) == address(lpAddress.token1())){... */\n    tag_148:\n        /* \"contracts/Utils.sol\":19250:19299  (phase1.add(phase2)).div(lpAddress.totalSupply()) */\n      tag_161\n        /* \"contracts/Utils.sol\":19275:19284  lpAddress */\n      dup5\n        /* \"contracts/Utils.sol\":19275:19296  lpAddress.totalSupply */\n      0xffffffffffffffffffffffffffffffffffffffff\n      and\n      0x18160ddd\n        /* \"contracts/Utils.sol\":19275:19298  lpAddress.totalSupply() */\n      mload(0x40)\n      dup2\n      0xffffffff\n      and\n      0xe0\n      shl\n      dup2\n      mstore\n      0x04\n      add\n      0x20\n      mload(0x40)\n      dup1\n      dup4\n      sub\n      dup2\n      dup7\n      gas\n      staticcall\n      iszero\n      dup1\n      iszero\n      tag_163\n      jumpi\n      returndatasize\n      0x00\n      dup1\n      returndatacopy\n      revert(0x00, returndatasize)\n    tag_163:\n      pop\n      pop\n      pop\n      pop\n      mload(0x40)\n      returndatasize\n      not(0x1f)\n      0x1f\n      dup3\n      add\n      and\n      dup3\n      add\n      dup1\n      0x40\n      mstore\n      pop\n      dup2\n      add\n      swap1\n      tag_164\n      swap2\n      swap1\n      tag_117\n      jump\t// in\n    tag_164:\n        /* \"contracts/Utils.sol\":19251:19269  phase1.add(phase2) */\n      tag_165\n        /* \"contracts/Utils.sol\":19262:19268  phase2 */\n      dup4\n        /* \"contracts/Utils.sol\":19251:19257  phase1 */\n      dup6\n        /* \"contracts/Utils.sol\":19251:19261  phase1.add */\n      tag_166\n      swap1\n        /* \"contracts/Utils.sol\":19251:19269  phase1.add(phase2) */\n      swap2\n      swap1\n      0xffffffff\n      and\n      jump\t// in\n    tag_165:\n        /* \"contracts/Utils.sol\":19250:19274  (phase1.add(phase2)).div */\n      tag_167\n      swap1\n        /* \"contracts/Utils.sol\":19250:19299  (phase1.add(phase2)).div(lpAddress.totalSupply()) */\n      swap2\n      swap1\n      0xffffffff\n      and\n      jump\t// in\n    tag_161:\n        /* \"contracts/Utils.sol\":19242:19300  return ((phase1.add(phase2)).div(lpAddress.totalSupply())) */\n      swap3\n      pop\n      pop\n      pop\n        /* \"contracts/Utils.sol\":18460:19308  function CalcLpPrice(LP lpAddress) public view returns(uint256){... */\n      swap2\n      swap1\n      pop\n      jump\t// out\n        /* \"contracts/Utils.sol\":20620:20799  function isLpAddress(LP lpAddress) public view returns(uint256){... */\n    tag_34:\n        /* \"contracts/Utils.sol\":20675:20682  uint256 */\n      0x00\n        /* \"contracts/Utils.sol\":20698:20707  lpAddress */\n      dup2\n        /* \"contracts/Utils.sol\":20698:20714  lpAddress.token0 */\n      0xffffffffffffffffffffffffffffffffffffffff\n      and\n      0x0dfe1681\n        /* \"contracts/Utils.sol\":20698:20716  lpAddress.token0() */\n      mload(0x40)\n      dup2\n      0xffffffff\n      and\n      0xe0\n      shl\n      dup2\n      mstore\n      0x04\n      add\n      0x20\n      mload(0x40)\n      dup1\n      dup4\n      sub\n      dup2\n      dup7\n      gas\n      staticcall\n      swap3\n      pop\n      pop\n      pop\n      dup1\n      iszero\n      tag_169\n      jumpi\n      pop\n      mload(0x40)\n      returndatasize\n      not(0x1f)\n      0x1f\n      dup3\n      add\n      and\n      dup3\n      add\n      dup1\n      0x40\n      mstore\n      pop\n      dup2\n      add\n      swap1\n      tag_170\n      swap2\n      swap1\n      tag_103\n      jump\t// in\n    tag_170:\n      0x01\n    tag_169:\n        /* \"contracts/Utils.sol\":20694:20792  try lpAddress.token0() {... */\n      tag_171\n      jumpi\n        /* \"contracts/Utils.sol\":20779:20780  0 */\n      0x00\n        /* \"contracts/Utils.sol\":20772:20780  return 0 */\n      swap1\n      pop\n      jump(tag_168)\n        /* \"contracts/Utils.sol\":20694:20792  try lpAddress.token0() {... */\n    tag_171:\n      pop\n        /* \"contracts/Utils.sol\":20739:20740  1 */\n      0x01\n        /* \"contracts/Utils.sol\":20732:20740  return 1 */\n      swap1\n      pop\n        /* \"contracts/Utils.sol\":20620:20799  function isLpAddress(LP lpAddress) public view returns(uint256){... */\n    tag_168:\n      swap2\n      swap1\n      pop\n      jump\t// out\n        /* \"contracts/Utils.sol\":17535:17562  Router public routerAddress */\n    tag_37:\n      0x04\n      0x00\n      swap1\n      sload\n      swap1\n      0x0100\n      exp\n      swap1\n      div\n      0xffffffffffffffffffffffffffffffffffffffff\n      and\n      dup2\n      jump\t// out\n        /* \"contracts/Utils.sol\":18202:18435  function WBNBPrice(address token) public view returns(uint256){... */\n    tag_42:\n        /* \"contracts/Utils.sol\":18256:18263  uint256 */\n      0x00\n        /* \"contracts/Utils.sol\":18275:18296  address[] memory path */\n      dup1\n        /* \"contracts/Utils.sol\":18313:18314  2 */\n      0x02\n        /* \"contracts/Utils.sol\":18299:18315  new address[](2) */\n      0xffffffffffffffff\n      dup2\n      gt\n      iszero\n      tag_177\n      jumpi\n      tag_178\n      tag_82\n      jump\t// in\n    tag_178:\n    tag_177:\n      mload(0x40)\n      swap1\n      dup1\n      dup3\n      mstore\n      dup1\n      0x20\n      mul\n      0x20\n      add\n      dup3\n      add\n      0x40\n      mstore\n      dup1\n      iszero\n      tag_179\n      jumpi\n      dup2\n      0x20\n      add\n      0x20\n      dup3\n      mul\n      dup1\n      calldatasize\n      dup4\n      calldatacopy\n      dup1\n      dup3\n      add\n      swap2\n      pop\n      pop\n      swap1\n      pop\n    tag_179:\n      pop\n        /* \"contracts/Utils.sol\":18275:18315  address[] memory path = new address[](2) */\n      swap1\n      pop\n        /* \"contracts/Utils.sol\":18336:18341  token */\n      dup3\n        /* \"contracts/Utils.sol\":18326:18330  path */\n      dup2\n        /* \"contracts/Utils.sol\":18331:18332  0 */\n      0x00\n        /* \"contracts/Utils.sol\":18326:18333  path[0] */\n      dup2\n      mload\n      dup2\n      lt\n      tag_180\n      jumpi\n      tag_181\n      tag_86\n      jump\t// in\n    tag_181:\n    tag_180:\n      0x20\n      mul\n      0x20\n      add\n      add\n        /* \"contracts/Utils.sol\":18326:18341  path[0] = token */\n      swap1\n      0xffffffffffffffffffffffffffffffffffffffff\n      and\n      swap1\n      dup2\n      0xffffffffffffffffffffffffffffffffffffffff\n      and\n      dup2\n      mstore\n      pop\n      pop\n        /* \"contracts/Utils.sol\":18362:18366  BUSD */\n      0x02\n      0x00\n      swap1\n      sload\n      swap1\n      0x0100\n      exp\n      swap1\n      div\n      0xffffffffffffffffffffffffffffffffffffffff\n      and\n        /* \"contracts/Utils.sol\":18352:18356  path */\n      dup2\n        /* \"contracts/Utils.sol\":18357:18358  1 */\n      0x01\n        /* \"contracts/Utils.sol\":18352:18359  path[1] */\n      dup2\n      mload\n      dup2\n      lt\n      tag_182\n      jumpi\n      tag_183\n      tag_86\n      jump\t// in\n    tag_183:\n    tag_182:\n      0x20\n      mul\n      0x20\n      add\n      add\n        /* \"contracts/Utils.sol\":18352:18366  path[1] = BUSD */\n      swap1\n      0xffffffffffffffffffffffffffffffffffffffff\n      and\n      swap1\n      dup2\n      0xffffffffffffffffffffffffffffffffffffffff\n      and\n      dup2\n      mstore\n      pop\n      pop\n        /* \"contracts/Utils.sol\":18384:18397  routerAddress */\n      0x04\n      0x00\n      swap1\n      sload\n      swap1\n      0x0100\n      exp\n      swap1\n      div\n      0xffffffffffffffffffffffffffffffffffffffff\n      and\n        /* \"contracts/Utils.sol\":18384:18411  routerAddress.getAmountsOut */\n      0xffffffffffffffffffffffffffffffffffffffff\n      and\n      0xd06ca61f\n        /* \"contracts/Utils.sol\":18412:18418  amount */\n      sload(0x03)\n        /* \"contracts/Utils.sol\":18419:18423  path */\n      dup4\n        /* \"contracts/Utils.sol\":18384:18424  routerAddress.getAmountsOut(amount,path) */\n      mload(0x40)\n      dup4\n      0xffffffff\n      and\n      0xe0\n      shl\n      dup2\n      mstore\n      0x04\n      add\n      tag_184\n      swap3\n      swap2\n      swap1\n      tag_92\n      jump\t// in\n    tag_184:\n      0x00\n      mload(0x40)\n      dup1\n      dup4\n      sub\n      dup2\n      dup7\n      gas\n      staticcall\n      iszero\n      dup1\n      iszero\n      tag_186\n      jumpi\n      returndatasize\n      0x00\n      dup1\n      returndatacopy\n      revert(0x00, returndatasize)\n    tag_186:\n      pop\n      pop\n      pop\n      pop\n      mload(0x40)\n      returndatasize\n      0x00\n      dup3\n      returndatacopy\n      returndatasize\n      not(0x1f)\n      0x1f\n      dup3\n      add\n      and\n      dup3\n      add\n      dup1\n      0x40\n      mstore\n      pop\n      dup2\n      add\n      swap1\n      tag_187\n      swap2\n      swap1\n      tag_96\n      jump\t// in\n    tag_187:\n        /* \"contracts/Utils.sol\":18425:18426  1 */\n      0x01\n        /* \"contracts/Utils.sol\":18384:18427  routerAddress.getAmountsOut(amount,path)[1] */\n      dup2\n      mload\n      dup2\n      lt\n      tag_188\n      jumpi\n      tag_189\n      tag_86\n      jump\t// in\n    tag_189:\n    tag_188:\n      0x20\n      mul\n      0x20\n      add\n      add\n      mload\n        /* \"contracts/Utils.sol\":18377:18427  return routerAddress.getAmountsOut(amount,path)[1] */\n      swap2\n      pop\n      pop\n        /* \"contracts/Utils.sol\":18202:18435  function WBNBPrice(address token) public view returns(uint256){... */\n      swap2\n      swap1\n      pop\n      jump\t// out\n        /* \"contracts/Utils.sol\":17466:17485  address public BUSD */\n    tag_45:\n      0x02\n      0x00\n      swap1\n      sload\n      swap1\n      0x0100\n      exp\n      swap1\n      div\n      0xffffffffffffffffffffffffffffffffffffffff\n      and\n      dup2\n      jump\t// out\n        /* \"contracts/Utils.sol\":20850:21304  function CalcTotalTVL(MetaMasterChef MasterChef,LP[] memory lpAddress) external view returns(uint256){... */\n    tag_51:\n        /* \"contracts/Utils.sol\":20943:20950  uint256 */\n      0x00\n        /* \"contracts/Utils.sol\":20962:20973  uint256 TVL */\n      dup1\n        /* \"contracts/Utils.sol\":20976:20977  0 */\n      0x00\n        /* \"contracts/Utils.sol\":20962:20977  uint256 TVL = 0 */\n      swap1\n      pop\n        /* \"contracts/Utils.sol\":20992:21001  uint256 i */\n      0x00\n        /* \"contracts/Utils.sol\":20988:21274  for(uint256 i=0; i< lpAddress.length; i++){... */\n    tag_191:\n        /* \"contracts/Utils.sol\":21008:21017  lpAddress */\n      dup4\n        /* \"contracts/Utils.sol\":21008:21024  lpAddress.length */\n      mload\n        /* \"contracts/Utils.sol\":21005:21006  i */\n      dup2\n        /* \"contracts/Utils.sol\":21005:21024  i< lpAddress.length */\n      lt\n        /* \"contracts/Utils.sol\":20988:21274  for(uint256 i=0; i< lpAddress.length; i++){... */\n      iszero\n      tag_192\n      jumpi\n        /* \"contracts/Utils.sol\":21077:21078  1 */\n      0x01\n        /* \"contracts/Utils.sol\":21048:21073  isLpAddress(lpAddress[i]) */\n      tag_194\n        /* \"contracts/Utils.sol\":21060:21069  lpAddress */\n      dup6\n        /* \"contracts/Utils.sol\":21070:21071  i */\n      dup4\n        /* \"contracts/Utils.sol\":21060:21072  lpAddress[i] */\n      dup2\n      mload\n      dup2\n      lt\n      tag_195\n      jumpi\n      tag_196\n      tag_86\n      jump\t// in\n    tag_196:\n    tag_195:\n      0x20\n      mul\n      0x20\n      add\n      add\n      mload\n        /* \"contracts/Utils.sol\":21048:21059  isLpAddress */\n      tag_34\n        /* \"contracts/Utils.sol\":21048:21073  isLpAddress(lpAddress[i]) */\n      jump\t// in\n    tag_194:\n        /* \"contracts/Utils.sol\":21048:21078  isLpAddress(lpAddress[i]) == 1 */\n      sub\n        /* \"contracts/Utils.sol\":21045:21263  if(isLpAddress(lpAddress[i]) == 1){... */\n      tag_197\n      jumpi\n        /* \"contracts/Utils.sol\":21105:21153  calcPoolTVLInUSD(i, lpAddress[i], 1, MasterChef) */\n      tag_198\n        /* \"contracts/Utils.sol\":21122:21123  i */\n      dup2\n        /* \"contracts/Utils.sol\":21125:21134  lpAddress */\n      dup6\n        /* \"contracts/Utils.sol\":21135:21136  i */\n      dup4\n        /* \"contracts/Utils.sol\":21125:21137  lpAddress[i] */\n      dup2\n      mload\n      dup2\n      lt\n      tag_199\n      jumpi\n      tag_200\n      tag_86\n      jump\t// in\n    tag_200:\n    tag_199:\n      0x20\n      mul\n      0x20\n      add\n      add\n      mload\n        /* \"contracts/Utils.sol\":21139:21140  1 */\n      0x01\n        /* \"contracts/Utils.sol\":21142:21152  MasterChef */\n      dup9\n        /* \"contracts/Utils.sol\":21105:21121  calcPoolTVLInUSD */\n      tag_68\n        /* \"contracts/Utils.sol\":21105:21153  calcPoolTVLInUSD(i, lpAddress[i], 1, MasterChef) */\n      jump\t// in\n    tag_198:\n        /* \"contracts/Utils.sol\":21098:21153  TVL += calcPoolTVLInUSD(i, lpAddress[i], 1, MasterChef) */\n      dup3\n      tag_201\n      swap2\n      swap1\n      tag_202\n      jump\t// in\n    tag_201:\n      swap2\n      pop\n        /* \"contracts/Utils.sol\":21045:21263  if(isLpAddress(lpAddress[i]) == 1){... */\n      jump(tag_203)\n    tag_197:\n        /* \"contracts/Utils.sol\":21199:21247  calcPoolTVLInUSD(i, lpAddress[i], 0, MasterChef) */\n      tag_204\n        /* \"contracts/Utils.sol\":21216:21217  i */\n      dup2\n        /* \"contracts/Utils.sol\":21219:21228  lpAddress */\n      dup6\n        /* \"contracts/Utils.sol\":21229:21230  i */\n      dup4\n        /* \"contracts/Utils.sol\":21219:21231  lpAddress[i] */\n      dup2\n      mload\n      dup2\n      lt\n      tag_205\n      jumpi\n      tag_206\n      tag_86\n      jump\t// in\n    tag_206:\n    tag_205:\n      0x20\n      mul\n      0x20\n      add\n      add\n      mload\n        /* \"contracts/Utils.sol\":21233:21234  0 */\n      0x00\n        /* \"contracts/Utils.sol\":21236:21246  MasterChef */\n      dup9\n        /* \"contracts/Utils.sol\":21199:21215  calcPoolTVLInUSD */\n      tag_68\n        /* \"contracts/Utils.sol\":21199:21247  calcPoolTVLInUSD(i, lpAddress[i], 0, MasterChef) */\n      jump\t// in\n    tag_204:\n        /* \"contracts/Utils.sol\":21192:21247  TVL += calcPoolTVLInUSD(i, lpAddress[i], 0, MasterChef) */\n      dup3\n      tag_207\n      swap2\n      swap1\n      tag_202\n      jump\t// in\n    tag_207:\n      swap2\n      pop\n        /* \"contracts/Utils.sol\":21045:21263  if(isLpAddress(lpAddress[i]) == 1){... */\n    tag_203:\n        /* \"contracts/Utils.sol\":21026:21029  i++ */\n      dup1\n      dup1\n      tag_208\n      swap1\n      tag_209\n      jump\t// in\n    tag_208:\n      swap2\n      pop\n      pop\n        /* \"contracts/Utils.sol\":20988:21274  for(uint256 i=0; i< lpAddress.length; i++){... */\n      jump(tag_191)\n    tag_192:\n      pop\n        /* \"contracts/Utils.sol\":21293:21296  TVL */\n      dup1\n        /* \"contracts/Utils.sol\":21286:21296  return TVL */\n      swap2\n      pop\n      pop\n        /* \"contracts/Utils.sol\":20850:21304  function CalcTotalTVL(MetaMasterChef MasterChef,LP[] memory lpAddress) external view returns(uint256){... */\n      swap3\n      swap2\n      pop\n      pop\n      jump\t// out\n        /* \"contracts/Utils.sol\":14500:14603  function renounceOwnership() public virtual onlyOwner {... */\n    tag_54:\n        /* \"contracts/Utils.sol\":14080:14092  _msgSender() */\n      tag_211\n        /* \"contracts/Utils.sol\":14080:14090  _msgSender */\n      tag_212\n        /* \"contracts/Utils.sol\":14080:14092  _msgSender() */\n      jump\t// in\n    tag_211:\n        /* \"contracts/Utils.sol\":14069:14092  owner() == _msgSender() */\n      0xffffffffffffffffffffffffffffffffffffffff\n      and\n        /* \"contracts/Utils.sol\":14069:14076  owner() */\n      tag_213\n        /* \"contracts/Utils.sol\":14069:14074  owner */\n      tag_56\n        /* \"contracts/Utils.sol\":14069:14076  owner() */\n      jump\t// in\n    tag_213:\n        /* \"contracts/Utils.sol\":14069:14092  owner() == _msgSender() */\n      0xffffffffffffffffffffffffffffffffffffffff\n      and\n      eq\n        /* \"contracts/Utils.sol\":14061:14129  require(owner() == _msgSender(), \"Ownable: caller is not the owner\") */\n      tag_214\n      jumpi\n      mload(0x40)\n      0x08c379a000000000000000000000000000000000000000000000000000000000\n      dup2\n      mstore\n      0x04\n      add\n      tag_215\n      swap1\n      tag_216\n      jump\t// in\n    tag_215:\n      mload(0x40)\n      dup1\n      swap2\n      sub\n      swap1\n      revert\n    tag_214:\n        /* \"contracts/Utils.sol\":14565:14595  _transferOwnership(address(0)) */\n      tag_218\n        /* \"contracts/Utils.sol\":14592:14593  0 */\n      0x00\n        /* \"contracts/Utils.sol\":14565:14583  _transferOwnership */\n      tag_219\n        /* \"contracts/Utils.sol\":14565:14595  _transferOwnership(address(0)) */\n      jump\t// in\n    tag_218:\n        /* \"contracts/Utils.sol\":14500:14603  function renounceOwnership() public virtual onlyOwner {... */\n      jump\t// out\n        /* \"contracts/Utils.sol\":13849:13936  function owner() public view virtual returns (address) {... */\n    tag_56:\n        /* \"contracts/Utils.sol\":13895:13902  address */\n      0x00\n        /* \"contracts/Utils.sol\":13922:13928  _owner */\n      dup1\n      0x00\n      swap1\n      sload\n      swap1\n      0x0100\n      exp\n      swap1\n      div\n      0xffffffffffffffffffffffffffffffffffffffff\n      and\n        /* \"contracts/Utils.sol\":13915:13928  return _owner */\n      swap1\n      pop\n        /* \"contracts/Utils.sol\":13849:13936  function owner() public view virtual returns (address) {... */\n      swap1\n      jump\t// out\n        /* \"contracts/Utils.sol\":17440:17459  address public WBNB */\n    tag_59:\n      0x01\n      0x00\n      swap1\n      sload\n      swap1\n      0x0100\n      exp\n      swap1\n      div\n      0xffffffffffffffffffffffffffffffffffffffff\n      and\n      dup2\n      jump\t// out\n        /* \"contracts/Utils.sol\":17786:17893  function setRouter(Router _routerAddress) public onlyOwner{... */\n    tag_64:\n        /* \"contracts/Utils.sol\":14080:14092  _msgSender() */\n      tag_222\n        /* \"contracts/Utils.sol\":14080:14090  _msgSender */\n      tag_212\n        /* \"contracts/Utils.sol\":14080:14092  _msgSender() */\n      jump\t// in\n    tag_222:\n        /* \"contracts/Utils.sol\":14069:14092  owner() == _msgSender() */\n      0xffffffffffffffffffffffffffffffffffffffff\n      and\n        /* \"contracts/Utils.sol\":14069:14076  owner() */\n      tag_223\n        /* \"contracts/Utils.sol\":14069:14074  owner */\n      tag_56\n        /* \"contracts/Utils.sol\":14069:14076  owner() */\n      jump\t// in\n    tag_223:\n        /* \"contracts/Utils.sol\":14069:14092  owner() == _msgSender() */\n      0xffffffffffffffffffffffffffffffffffffffff\n      and\n      eq\n        /* \"contracts/Utils.sol\":14061:14129  require(owner() == _msgSender(), \"Ownable: caller is not the owner\") */\n      tag_224\n      jumpi\n      mload(0x40)\n      0x08c379a000000000000000000000000000000000000000000000000000000000\n      dup2\n      mstore\n      0x04\n      add\n      tag_225\n      swap1\n      tag_216\n      jump\t// in\n    tag_225:\n      mload(0x40)\n      dup1\n      swap2\n      sub\n      swap1\n      revert\n    tag_224:\n        /* \"contracts/Utils.sol\":17871:17885  _routerAddress */\n      dup1\n        /* \"contracts/Utils.sol\":17855:17868  routerAddress */\n      0x04\n      0x00\n        /* \"contracts/Utils.sol\":17855:17885  routerAddress = _routerAddress */\n      0x0100\n      exp\n      dup2\n      sload\n      dup2\n      0xffffffffffffffffffffffffffffffffffffffff\n      mul\n      not\n      and\n      swap1\n      dup4\n      0xffffffffffffffffffffffffffffffffffffffff\n      and\n      mul\n      or\n      swap1\n      sstore\n      pop\n        /* \"contracts/Utils.sol\":17786:17893  function setRouter(Router _routerAddress) public onlyOwner{... */\n      pop\n      jump\t// out\n        /* \"contracts/Utils.sol\":19331:19902  function calcPoolTVLInUSD(uint256 pid, LP lpAddress, uint256 isLp, MetaMasterChef MasterChef) public view returns(uint256){... */\n    tag_68:\n        /* \"contracts/Utils.sol\":19445:19452  uint256 */\n      0x00\n        /* \"contracts/Utils.sol\":19464:19479  uint256 Balance */\n      dup1\n        /* \"contracts/Utils.sol\":19482:19492  MasterChef */\n      dup3\n        /* \"contracts/Utils.sol\":19482:19504  MasterChef.poolBalance */\n      0xffffffffffffffffffffffffffffffffffffffff\n      and\n      0x6a6d964e\n        /* \"contracts/Utils.sol\":19505:19508  pid */\n      dup8\n        /* \"contracts/Utils.sol\":19482:19509  MasterChef.poolBalance(pid) */\n      mload(0x40)\n      dup3\n      0xffffffff\n      and\n      0xe0\n      shl\n      dup2\n      mstore\n      0x04\n      add\n      tag_228\n      swap2\n      swap1\n      tag_26\n      jump\t// in\n    tag_228:\n      0x20\n      mload(0x40)\n      dup1\n      dup4\n      sub\n      dup2\n      dup7\n      gas\n      staticcall\n      iszero\n      dup1\n      iszero\n      tag_230\n      jumpi\n      returndatasize\n      0x00\n      dup1\n      returndatacopy\n      revert(0x00, returndatasize)\n    tag_230:\n      pop\n      pop\n      pop\n      pop\n      mload(0x40)\n      returndatasize\n      not(0x1f)\n      0x1f\n      dup3\n      add\n      and\n      dup3\n      add\n      dup1\n      0x40\n      mstore\n      pop\n      dup2\n      add\n      swap1\n      tag_231\n      swap2\n      swap1\n      tag_117\n      jump\t// in\n    tag_231:\n        /* \"contracts/Utils.sol\":19464:19509  uint256 Balance = MasterChef.poolBalance(pid) */\n      swap1\n      pop\n        /* \"contracts/Utils.sol\":19520:19533  uint256 price */\n      0x00\n        /* \"contracts/Utils.sol\":19555:19556  1 */\n      0x01\n        /* \"contracts/Utils.sol\":19547:19551  isLp */\n      dup6\n        /* \"contracts/Utils.sol\":19547:19556  isLp == 1 */\n      sub\n        /* \"contracts/Utils.sol\":19544:19846  if(isLp == 1){... */\n      tag_232\n      jumpi\n        /* \"contracts/Utils.sol\":19580:19602  CalcLpPrice(lpAddress) */\n      tag_233\n        /* \"contracts/Utils.sol\":19592:19601  lpAddress */\n      dup7\n        /* \"contracts/Utils.sol\":19580:19591  CalcLpPrice */\n      tag_30\n        /* \"contracts/Utils.sol\":19580:19602  CalcLpPrice(lpAddress) */\n      jump\t// in\n    tag_233:\n        /* \"contracts/Utils.sol\":19572:19602  price = CalcLpPrice(lpAddress) */\n      swap1\n      pop\n        /* \"contracts/Utils.sol\":19544:19846  if(isLp == 1){... */\n      jump(tag_234)\n    tag_232:\n        /* \"contracts/Utils.sol\":19630:19631  0 */\n      0x00\n        /* \"contracts/Utils.sol\":19622:19626  isLp */\n      dup6\n        /* \"contracts/Utils.sol\":19622:19631  isLp == 0 */\n      sub\n        /* \"contracts/Utils.sol\":19619:19846  if(isLp == 0){... */\n      tag_235\n      jumpi\n        /* \"contracts/Utils.sol\":19675:19684  lpAddress */\n      dup6\n        /* \"contracts/Utils.sol\":19650:19685  address(WBNB) == address(lpAddress) */\n      0xffffffffffffffffffffffffffffffffffffffff\n      and\n        /* \"contracts/Utils.sol\":19658:19662  WBNB */\n      0x01\n      0x00\n      swap1\n      sload\n      swap1\n      0x0100\n      exp\n      swap1\n      div\n      0xffffffffffffffffffffffffffffffffffffffff\n      and\n        /* \"contracts/Utils.sol\":19650:19685  address(WBNB) == address(lpAddress) */\n      0xffffffffffffffffffffffffffffffffffffffff\n      and\n      sub\n        /* \"contracts/Utils.sol\":19647:19835  if(address(WBNB) == address(lpAddress)){... */\n      tag_236\n      jumpi\n        /* \"contracts/Utils.sol\":19713:19742  WBNBPrice(address(lpAddress)) */\n      tag_237\n        /* \"contracts/Utils.sol\":19731:19740  lpAddress */\n      dup7\n        /* \"contracts/Utils.sol\":19713:19722  WBNBPrice */\n      tag_42\n        /* \"contracts/Utils.sol\":19713:19742  WBNBPrice(address(lpAddress)) */\n      jump\t// in\n    tag_237:\n        /* \"contracts/Utils.sol\":19705:19742  price = WBNBPrice(address(lpAddress)) */\n      swap1\n      pop\n        /* \"contracts/Utils.sol\":19647:19835  if(address(WBNB) == address(lpAddress)){... */\n      jump(tag_238)\n    tag_236:\n        /* \"contracts/Utils.sol\":19789:19819  Tokenprice(address(lpAddress)) */\n      tag_239\n        /* \"contracts/Utils.sol\":19808:19817  lpAddress */\n      dup7\n        /* \"contracts/Utils.sol\":19789:19799  Tokenprice */\n      tag_24\n        /* \"contracts/Utils.sol\":19789:19819  Tokenprice(address(lpAddress)) */\n      jump\t// in\n    tag_239:\n        /* \"contracts/Utils.sol\":19781:19819  price = Tokenprice(address(lpAddress)) */\n      swap1\n      pop\n        /* \"contracts/Utils.sol\":19647:19835  if(address(WBNB) == address(lpAddress)){... */\n    tag_238:\n        /* \"contracts/Utils.sol\":19619:19846  if(isLp == 0){... */\n    tag_235:\n        /* \"contracts/Utils.sol\":19544:19846  if(isLp == 1){... */\n    tag_234:\n        /* \"contracts/Utils.sol\":19865:19894  (Balance * price).div(amount) */\n      tag_240\n        /* \"contracts/Utils.sol\":19887:19893  amount */\n      sload(0x03)\n        /* \"contracts/Utils.sol\":19876:19881  price */\n      dup3\n        /* \"contracts/Utils.sol\":19866:19873  Balance */\n      dup5\n        /* \"contracts/Utils.sol\":19866:19881  Balance * price */\n      tag_241\n      swap2\n      swap1\n      tag_242\n      jump\t// in\n    tag_241:\n        /* \"contracts/Utils.sol\":19865:19886  (Balance * price).div */\n      tag_167\n      swap1\n        /* \"contracts/Utils.sol\":19865:19894  (Balance * price).div(amount) */\n      swap2\n      swap1\n      0xffffffff\n      and\n      jump\t// in\n    tag_240:\n        /* \"contracts/Utils.sol\":19858:19894  return (Balance * price).div(amount) */\n      swap3\n      pop\n      pop\n      pop\n        /* \"contracts/Utils.sol\":19331:19902  function calcPoolTVLInUSD(uint256 pid, LP lpAddress, uint256 isLp, MetaMasterChef MasterChef) public view returns(uint256){... */\n      swap5\n      swap4\n      pop\n      pop\n      pop\n      pop\n      jump\t// out\n        /* \"contracts/Utils.sol\":19910:20612  function CalcApy(uint256 pid, LP lpAddress,uint256 isLp, MetaMasterChef MasterChef) external view returns(uint256){... */\n    tag_72:\n        /* \"contracts/Utils.sol\":20016:20023  uint256 */\n      0x00\n        /* \"contracts/Utils.sol\":20035:20055  PoolInfo memory pool */\n      dup1\n        /* \"contracts/Utils.sol\":20058:20068  MasterChef */\n      dup3\n        /* \"contracts/Utils.sol\":20058:20077  MasterChef.poolInfo */\n      0xffffffffffffffffffffffffffffffffffffffff\n      and\n      0x1526fe27\n        /* \"contracts/Utils.sol\":20078:20081  pid */\n      dup8\n        /* \"contracts/Utils.sol\":20058:20082  MasterChef.poolInfo(pid) */\n      mload(0x40)\n      dup3\n      0xffffffff\n      and\n      0xe0\n      shl\n      dup2\n      mstore\n      0x04\n      add\n      tag_244\n      swap2\n      swap1\n      tag_26\n      jump\t// in\n    tag_244:\n      0xc0\n      mload(0x40)\n      dup1\n      dup4\n      sub\n      dup2\n      dup7\n      gas\n      staticcall\n      iszero\n      dup1\n      iszero\n      tag_246\n      jumpi\n      returndatasize\n      0x00\n      dup1\n      returndatacopy\n      revert(0x00, returndatasize)\n    tag_246:\n      pop\n      pop\n      pop\n      pop\n      mload(0x40)\n      returndatasize\n      not(0x1f)\n      0x1f\n      dup3\n      add\n      and\n      dup3\n      add\n      dup1\n      0x40\n      mstore\n      pop\n      dup2\n      add\n      swap1\n      tag_247\n      swap2\n      swap1\n      tag_248\n      jump\t// in\n    tag_247:\n        /* \"contracts/Utils.sol\":20035:20082  PoolInfo memory pool = MasterChef.poolInfo(pid) */\n      swap1\n      pop\n        /* \"contracts/Utils.sol\":20093:20111  uint256 poolWeight */\n      0x00\n        /* \"contracts/Utils.sol\":20114:20179  ((pool.allocPoint).mul(amount)).div(MasterChef.totalAllocPoint()) */\n      tag_249\n        /* \"contracts/Utils.sol\":20150:20160  MasterChef */\n      dup5\n        /* \"contracts/Utils.sol\":20150:20176  MasterChef.totalAllocPoint */\n      0xffffffffffffffffffffffffffffffffffffffff\n      and\n      0x17caf6f1\n        /* \"contracts/Utils.sol\":20150:20178  MasterChef.totalAllocPoint() */\n      mload(0x40)\n      dup2\n      0xffffffff\n      and\n      0xe0\n      shl\n      dup2\n      mstore\n      0x04\n      add\n      0x20\n      mload(0x40)\n      dup1\n      dup4\n      sub\n      dup2\n      dup7\n      gas\n      staticcall\n      iszero\n      dup1\n      iszero\n      tag_251\n      jumpi\n      returndatasize\n      0x00\n      dup1\n      returndatacopy\n      revert(0x00, returndatasize)\n    tag_251:\n      pop\n      pop\n      pop\n      pop\n      mload(0x40)\n      returndatasize\n      not(0x1f)\n      0x1f\n      dup3\n      add\n      and\n      dup3\n      add\n      dup1\n      0x40\n      mstore\n      pop\n      dup2\n      add\n      swap1\n      tag_252\n      swap2\n      swap1\n      tag_117\n      jump\t// in\n    tag_252:\n        /* \"contracts/Utils.sol\":20115:20144  (pool.allocPoint).mul(amount) */\n      tag_253\n        /* \"contracts/Utils.sol\":20137:20143  amount */\n      sload(0x03)\n        /* \"contracts/Utils.sol\":20116:20120  pool */\n      dup6\n        /* \"contracts/Utils.sol\":20116:20131  pool.allocPoint */\n      0x20\n      add\n      mload\n        /* \"contracts/Utils.sol\":20115:20136  (pool.allocPoint).mul */\n      tag_118\n      swap1\n        /* \"contracts/Utils.sol\":20115:20144  (pool.allocPoint).mul(amount) */\n      swap2\n      swap1\n      0xffffffff\n      and\n      jump\t// in\n    tag_253:\n        /* \"contracts/Utils.sol\":20114:20149  ((pool.allocPoint).mul(amount)).div */\n      tag_167\n      swap1\n        /* \"contracts/Utils.sol\":20114:20179  ((pool.allocPoint).mul(amount)).div(MasterChef.totalAllocPoint()) */\n      swap2\n      swap1\n      0xffffffff\n      and\n      jump\t// in\n    tag_249:\n        /* \"contracts/Utils.sol\":20093:20179  uint256 poolWeight = ((pool.allocPoint).mul(amount)).div(MasterChef.totalAllocPoint()) */\n      swap1\n      pop\n        /* \"contracts/Utils.sol\":20190:20214  uint256 rewardTokenPrice */\n      0x00\n        /* \"contracts/Utils.sol\":20217:20245  Tokenprice(MasterChef.DRG()) */\n      tag_254\n        /* \"contracts/Utils.sol\":20228:20238  MasterChef */\n      dup6\n        /* \"contracts/Utils.sol\":20228:20242  MasterChef.DRG */\n      0xffffffffffffffffffffffffffffffffffffffff\n      and\n      0x141aa0ba\n        /* \"contracts/Utils.sol\":20228:20244  MasterChef.DRG() */\n      mload(0x40)\n      dup2\n      0xffffffff\n      and\n      0xe0\n      shl\n      dup2\n      mstore\n      0x04\n      add\n      0x20\n      mload(0x40)\n      dup1\n      dup4\n      sub\n      dup2\n      dup7\n      gas\n      staticcall\n      iszero\n      dup1\n      iszero\n      tag_256\n      jumpi\n      returndatasize\n      0x00\n      dup1\n      returndatacopy\n      revert(0x00, returndatasize)\n    tag_256:\n      pop\n      pop\n      pop\n      pop\n      mload(0x40)\n      returndatasize\n      not(0x1f)\n      0x1f\n      dup3\n      add\n      and\n      dup3\n      add\n      dup1\n      0x40\n      mstore\n      pop\n      dup2\n      add\n      swap1\n      tag_257\n      swap2\n      swap1\n      tag_258\n      jump\t// in\n    tag_257:\n        /* \"contracts/Utils.sol\":20217:20227  Tokenprice */\n      tag_24\n        /* \"contracts/Utils.sol\":20217:20245  Tokenprice(MasterChef.DRG()) */\n      jump\t// in\n    tag_254:\n        /* \"contracts/Utils.sol\":20190:20245  uint256 rewardTokenPrice = Tokenprice(MasterChef.DRG()) */\n      swap1\n      pop\n        /* \"contracts/Utils.sol\":20256:20276  uint256 DRG_PER_YEAR */\n      0x00\n        /* \"contracts/Utils.sol\":20279:20324  BLOCKS_PER_YEAR.mul(MasterChef.DRGPerBlock()) */\n      tag_259\n        /* \"contracts/Utils.sol\":20299:20309  MasterChef */\n      dup7\n        /* \"contracts/Utils.sol\":20299:20321  MasterChef.DRGPerBlock */\n      0xffffffffffffffffffffffffffffffffffffffff\n      and\n      0xa1eef821\n        /* \"contracts/Utils.sol\":20299:20323  MasterChef.DRGPerBlock() */\n      mload(0x40)\n      dup2\n      0xffffffff\n      and\n      0xe0\n      shl\n      dup2\n      mstore\n      0x04\n      add\n      0x20\n      mload(0x40)\n      dup1\n      dup4\n      sub\n      dup2\n      dup7\n      gas\n      staticcall\n      iszero\n      dup1\n      iszero\n      tag_261\n      jumpi\n      returndatasize\n      0x00\n      dup1\n      returndatacopy\n      revert(0x00, returndatasize)\n    tag_261:\n      pop\n      pop\n      pop\n      pop\n      mload(0x40)\n      returndatasize\n      not(0x1f)\n      0x1f\n      dup3\n      add\n      and\n      dup3\n      add\n      dup1\n      0x40\n      mstore\n      pop\n      dup2\n      add\n      swap1\n      tag_262\n      swap2\n      swap1\n      tag_117\n      jump\t// in\n    tag_262:\n        /* \"contracts/Utils.sol\":20279:20294  BLOCKS_PER_YEAR */\n      sload(0x05)\n        /* \"contracts/Utils.sol\":20279:20298  BLOCKS_PER_YEAR.mul */\n      tag_118\n      swap1\n        /* \"contracts/Utils.sol\":20279:20324  BLOCKS_PER_YEAR.mul(MasterChef.DRGPerBlock()) */\n      swap2\n      swap1\n      0xffffffff\n      and\n      jump\t// in\n    tag_259:\n        /* \"contracts/Utils.sol\":20256:20324  uint256 DRG_PER_YEAR = BLOCKS_PER_YEAR.mul(MasterChef.DRGPerBlock()) */\n      swap1\n      pop\n        /* \"contracts/Utils.sol\":20335:20368  uint256 yearlyDRGRewardAllocation */\n      0x00\n        /* \"contracts/Utils.sol\":20371:20413  (DRG_PER_YEAR.mul(poolWeight)).div(amount) */\n      tag_263\n        /* \"contracts/Utils.sol\":20406:20412  amount */\n      sload(0x03)\n        /* \"contracts/Utils.sol\":20372:20400  DRG_PER_YEAR.mul(poolWeight) */\n      tag_264\n        /* \"contracts/Utils.sol\":20389:20399  poolWeight */\n      dup7\n        /* \"contracts/Utils.sol\":20372:20384  DRG_PER_YEAR */\n      dup6\n        /* \"contracts/Utils.sol\":20372:20388  DRG_PER_YEAR.mul */\n      tag_118\n      swap1\n        /* \"contracts/Utils.sol\":20372:20400  DRG_PER_YEAR.mul(poolWeight) */\n      swap2\n      swap1\n      0xffffffff\n      and\n      jump\t// in\n    tag_264:\n        /* \"contracts/Utils.sol\":20371:20405  (DRG_PER_YEAR.mul(poolWeight)).div */\n      tag_167\n      swap1\n        /* \"contracts/Utils.sol\":20371:20413  (DRG_PER_YEAR.mul(poolWeight)).div(amount) */\n      swap2\n      swap1\n      0xffffffff\n      and\n      jump\t// in\n    tag_263:\n        /* \"contracts/Utils.sol\":20335:20413  uint256 yearlyDRGRewardAllocation = (DRG_PER_YEAR.mul(poolWeight)).div(amount) */\n      swap1\n      pop\n        /* \"contracts/Utils.sol\":20424:20448  uint256 poolLiquidityUsd */\n      0x00\n        /* \"contracts/Utils.sol\":20451:20501  calcPoolTVLInUSD(pid, lpAddress, isLp, MasterChef) */\n      tag_265\n        /* \"contracts/Utils.sol\":20468:20471  pid */\n      dup12\n        /* \"contracts/Utils.sol\":20473:20482  lpAddress */\n      dup12\n        /* \"contracts/Utils.sol\":20484:20488  isLp */\n      dup12\n        /* \"contracts/Utils.sol\":20490:20500  MasterChef */\n      dup12\n        /* \"contracts/Utils.sol\":20451:20467  calcPoolTVLInUSD */\n      tag_68\n        /* \"contracts/Utils.sol\":20451:20501  calcPoolTVLInUSD(pid, lpAddress, isLp, MasterChef) */\n      jump\t// in\n    tag_265:\n        /* \"contracts/Utils.sol\":20424:20501  uint256 poolLiquidityUsd = calcPoolTVLInUSD(pid, lpAddress, isLp, MasterChef) */\n      swap1\n      pop\n        /* \"contracts/Utils.sol\":20520:20604  (((yearlyDRGRewardAllocation.mul(rewardTokenPrice))).div(poolLiquidityUsd)).mul(100) */\n      tag_266\n        /* \"contracts/Utils.sol\":20600:20603  100 */\n      0x64\n        /* \"contracts/Utils.sol\":20521:20594  ((yearlyDRGRewardAllocation.mul(rewardTokenPrice))).div(poolLiquidityUsd) */\n      tag_267\n        /* \"contracts/Utils.sol\":20577:20593  poolLiquidityUsd */\n      dup4\n        /* \"contracts/Utils.sol\":20523:20570  yearlyDRGRewardAllocation.mul(rewardTokenPrice) */\n      tag_268\n        /* \"contracts/Utils.sol\":20553:20569  rewardTokenPrice */\n      dup9\n        /* \"contracts/Utils.sol\":20523:20548  yearlyDRGRewardAllocation */\n      dup8\n        /* \"contracts/Utils.sol\":20523:20552  yearlyDRGRewardAllocation.mul */\n      tag_118\n      swap1\n        /* \"contracts/Utils.sol\":20523:20570  yearlyDRGRewardAllocation.mul(rewardTokenPrice) */\n      swap2\n      swap1\n      0xffffffff\n      and\n      jump\t// in\n    tag_268:\n        /* \"contracts/Utils.sol\":20521:20576  ((yearlyDRGRewardAllocation.mul(rewardTokenPrice))).div */\n      tag_167\n      swap1\n        /* \"contracts/Utils.sol\":20521:20594  ((yearlyDRGRewardAllocation.mul(rewardTokenPrice))).div(poolLiquidityUsd) */\n      swap2\n      swap1\n      0xffffffff\n      and\n      jump\t// in\n    tag_267:\n        /* \"contracts/Utils.sol\":20520:20599  (((yearlyDRGRewardAllocation.mul(rewardTokenPrice))).div(poolLiquidityUsd)).mul */\n      tag_118\n      swap1\n        /* \"contracts/Utils.sol\":20520:20604  (((yearlyDRGRewardAllocation.mul(rewardTokenPrice))).div(poolLiquidityUsd)).mul(100) */\n      swap2\n      swap1\n      0xffffffff\n      and\n      jump\t// in\n    tag_266:\n        /* \"contracts/Utils.sol\":20514:20604  return(((yearlyDRGRewardAllocation.mul(rewardTokenPrice))).div(poolLiquidityUsd)).mul(100) */\n      swap7\n      pop\n      pop\n      pop\n      pop\n      pop\n      pop\n      pop\n        /* \"contracts/Utils.sol\":19910:20612  function CalcApy(uint256 pid, LP lpAddress,uint256 isLp, MetaMasterChef MasterChef) external view returns(uint256){... */\n      swap5\n      swap4\n      pop\n      pop\n      pop\n      pop\n      jump\t// out\n        /* \"contracts/Utils.sol\":14758:14959  function transferOwnership(address newOwner) public virtual onlyOwner {... */\n    tag_76:\n        /* \"contracts/Utils.sol\":14080:14092  _msgSender() */\n      tag_270\n        /* \"contracts/Utils.sol\":14080:14090  _msgSender */\n      tag_212\n        /* \"contracts/Utils.sol\":14080:14092  _msgSender() */\n      jump\t// in\n    tag_270:\n        /* \"contracts/Utils.sol\":14069:14092  owner() == _msgSender() */\n      0xffffffffffffffffffffffffffffffffffffffff\n      and\n        /* \"contracts/Utils.sol\":14069:14076  owner() */\n      tag_271\n        /* \"contracts/Utils.sol\":14069:14074  owner */\n      tag_56\n        /* \"contracts/Utils.sol\":14069:14076  owner() */\n      jump\t// in\n    tag_271:\n        /* \"contracts/Utils.sol\":14069:14092  owner() == _msgSender() */\n      0xffffffffffffffffffffffffffffffffffffffff\n      and\n      eq\n        /* \"contracts/Utils.sol\":14061:14129  require(owner() == _msgSender(), \"Ownable: caller is not the owner\") */\n      tag_272\n      jumpi\n      mload(0x40)\n      0x08c379a000000000000000000000000000000000000000000000000000000000\n      dup2\n      mstore\n      0x04\n      add\n      tag_273\n      swap1\n      tag_216\n      jump\t// in\n    tag_273:\n      mload(0x40)\n      dup1\n      swap2\n      sub\n      swap1\n      revert\n    tag_272:\n        /* \"contracts/Utils.sol\":14867:14868  0 */\n      0x00\n        /* \"contracts/Utils.sol\":14847:14869  newOwner != address(0) */\n      0xffffffffffffffffffffffffffffffffffffffff\n      and\n        /* \"contracts/Utils.sol\":14847:14855  newOwner */\n      dup2\n        /* \"contracts/Utils.sol\":14847:14869  newOwner != address(0) */\n      0xffffffffffffffffffffffffffffffffffffffff\n      and\n      sub\n        /* \"contracts/Utils.sol\":14839:14912  require(newOwner != address(0), \"Ownable: new owner is the zero address\") */\n      tag_275\n      jumpi\n      mload(0x40)\n      0x08c379a000000000000000000000000000000000000000000000000000000000\n      dup2\n      mstore\n      0x04\n      add\n      tag_276\n      swap1\n      tag_277\n      jump\t// in\n    tag_276:\n      mload(0x40)\n      dup1\n      swap2\n      sub\n      swap1\n      revert\n    tag_275:\n        /* \"contracts/Utils.sol\":14923:14951  _transferOwnership(newOwner) */\n      tag_278\n        /* \"contracts/Utils.sol\":14942:14950  newOwner */\n      dup2\n        /* \"contracts/Utils.sol\":14923:14941  _transferOwnership */\n      tag_219\n        /* \"contracts/Utils.sol\":14923:14951  _transferOwnership(newOwner) */\n      jump\t// in\n    tag_278:\n        /* \"contracts/Utils.sol\":14758:14959  function transferOwnership(address newOwner) public virtual onlyOwner {... */\n      pop\n      jump\t// out\n        /* \"contracts/Utils.sol\":20807:20842  function test() external {... */\n    tag_78:\n      jump\t// out\n        /* \"contracts/Utils.sol\":9965:10436  function mul(uint256 a, uint256 b) internal pure returns (uint256) {... */\n    tag_118:\n        /* \"contracts/Utils.sol\":10023:10030  uint256 */\n      0x00\n        /* \"contracts/Utils.sol\":10273:10274  0 */\n      dup1\n        /* \"contracts/Utils.sol\":10268:10269  a */\n      dup4\n        /* \"contracts/Utils.sol\":10268:10274  a == 0 */\n      sub\n        /* \"contracts/Utils.sol\":10264:10311  if (a == 0) {... */\n      tag_281\n      jumpi\n        /* \"contracts/Utils.sol\":10298:10299  0 */\n      0x00\n        /* \"contracts/Utils.sol\":10291:10299  return 0 */\n      swap1\n      pop\n      jump(tag_280)\n        /* \"contracts/Utils.sol\":10264:10311  if (a == 0) {... */\n    tag_281:\n        /* \"contracts/Utils.sol\":10323:10332  uint256 c */\n      0x00\n        /* \"contracts/Utils.sol\":10339:10340  b */\n      dup3\n        /* \"contracts/Utils.sol\":10335:10336  a */\n      dup5\n        /* \"contracts/Utils.sol\":10335:10340  a * b */\n      tag_282\n      swap2\n      swap1\n      tag_242\n      jump\t// in\n    tag_282:\n        /* \"contracts/Utils.sol\":10323:10340  uint256 c = a * b */\n      swap1\n      pop\n        /* \"contracts/Utils.sol\":10368:10369  b */\n      dup3\n        /* \"contracts/Utils.sol\":10363:10364  a */\n      dup5\n        /* \"contracts/Utils.sol\":10359:10360  c */\n      dup3\n        /* \"contracts/Utils.sol\":10359:10364  c / a */\n      tag_283\n      swap2\n      swap1\n      tag_284\n      jump\t// in\n    tag_283:\n        /* \"contracts/Utils.sol\":10359:10369  c / a == b */\n      eq\n        /* \"contracts/Utils.sol\":10351:10407  require(c / a == b, \"SafeMath: multiplication overflow\") */\n      tag_285\n      jumpi\n      mload(0x40)\n      0x08c379a000000000000000000000000000000000000000000000000000000000\n      dup2\n      mstore\n      0x04\n      add\n      tag_286\n      swap1\n      tag_287\n      jump\t// in\n    tag_286:\n      mload(0x40)\n      dup1\n      swap2\n      sub\n      swap1\n      revert\n    tag_285:\n        /* \"contracts/Utils.sol\":10427:10428  c */\n      dup1\n        /* \"contracts/Utils.sol\":10420:10428  return c */\n      swap2\n      pop\n      pop\n        /* \"contracts/Utils.sol\":9965:10436  function mul(uint256 a, uint256 b) internal pure returns (uint256) {... */\n    tag_280:\n      swap3\n      swap2\n      pop\n      pop\n      jump\t// out\n        /* \"contracts/Utils.sol\":8593:8774  function add(uint256 a, uint256 b) internal pure returns (uint256) {... */\n    tag_166:\n        /* \"contracts/Utils.sol\":8651:8658  uint256 */\n      0x00\n        /* \"contracts/Utils.sol\":8671:8680  uint256 c */\n      dup1\n        /* \"contracts/Utils.sol\":8687:8688  b */\n      dup3\n        /* \"contracts/Utils.sol\":8683:8684  a */\n      dup5\n        /* \"contracts/Utils.sol\":8683:8688  a + b */\n      tag_289\n      swap2\n      swap1\n      tag_202\n      jump\t// in\n    tag_289:\n        /* \"contracts/Utils.sol\":8671:8688  uint256 c = a + b */\n      swap1\n      pop\n        /* \"contracts/Utils.sol\":8712:8713  a */\n      dup4\n        /* \"contracts/Utils.sol\":8707:8708  c */\n      dup2\n        /* \"contracts/Utils.sol\":8707:8713  c >= a */\n      lt\n      iszero\n        /* \"contracts/Utils.sol\":8699:8745  require(c >= a, \"SafeMath: addition overflow\") */\n      tag_290\n      jumpi\n      mload(0x40)\n      0x08c379a000000000000000000000000000000000000000000000000000000000\n      dup2\n      mstore\n      0x04\n      add\n      tag_291\n      swap1\n      tag_292\n      jump\t// in\n    tag_291:\n      mload(0x40)\n      dup1\n      swap2\n      sub\n      swap1\n      revert\n    tag_290:\n        /* \"contracts/Utils.sol\":8765:8766  c */\n      dup1\n        /* \"contracts/Utils.sol\":8758:8766  return c */\n      swap2\n      pop\n      pop\n        /* \"contracts/Utils.sol\":8593:8774  function add(uint256 a, uint256 b) internal pure returns (uint256) {... */\n      swap3\n      swap2\n      pop\n      pop\n      jump\t// out\n        /* \"contracts/Utils.sol\":10904:11036  function div(uint256 a, uint256 b) internal pure returns (uint256) {... */\n    tag_167:\n        /* \"contracts/Utils.sol\":10962:10969  uint256 */\n      0x00\n        /* \"contracts/Utils.sol\":10989:11028  div(a, b, \"SafeMath: division by zero\") */\n      tag_294\n        /* \"contracts/Utils.sol\":10993:10994  a */\n      dup4\n        /* \"contracts/Utils.sol\":10996:10997  b */\n      dup4\n        /* \"contracts/Utils.sol\":10989:11028  div(a, b, \"SafeMath: division by zero\") */\n      mload(0x40)\n      dup1\n      0x40\n      add\n      0x40\n      mstore\n      dup1\n      0x1a\n      dup2\n      mstore\n      0x20\n      add\n      0x536166654d6174683a206469766973696f6e206279207a65726f000000000000\n      dup2\n      mstore\n      pop\n        /* \"contracts/Utils.sol\":10989:10992  div */\n      tag_295\n        /* \"contracts/Utils.sol\":10989:11028  div(a, b, \"SafeMath: division by zero\") */\n      jump\t// in\n    tag_294:\n        /* \"contracts/Utils.sol\":10982:11028  return div(a, b, \"SafeMath: division by zero\") */\n      swap1\n      pop\n        /* \"contracts/Utils.sol\":10904:11036  function div(uint256 a, uint256 b) internal pure returns (uint256) {... */\n      swap3\n      swap2\n      pop\n      pop\n      jump\t// out\n        /* \"contracts/Utils.sol\":13223:13321  function _msgSender() internal view virtual returns (address) {... */\n    tag_212:\n        /* \"contracts/Utils.sol\":13276:13283  address */\n      0x00\n        /* \"contracts/Utils.sol\":13303:13313  msg.sender */\n      caller\n        /* \"contracts/Utils.sol\":13296:13313  return msg.sender */\n      swap1\n      pop\n        /* \"contracts/Utils.sol\":13223:13321  function _msgSender() internal view virtual returns (address) {... */\n      swap1\n      jump\t// out\n        /* \"contracts/Utils.sol\":15119:15310  function _transferOwnership(address newOwner) internal virtual {... */\n    tag_219:\n        /* \"contracts/Utils.sol\":15193:15209  address oldOwner */\n      0x00\n        /* \"contracts/Utils.sol\":15212:15218  _owner */\n      dup1\n      0x00\n      swap1\n      sload\n      swap1\n      0x0100\n      exp\n      swap1\n      div\n      0xffffffffffffffffffffffffffffffffffffffff\n      and\n        /* \"contracts/Utils.sol\":15193:15218  address oldOwner = _owner */\n      swap1\n      pop\n        /* \"contracts/Utils.sol\":15238:15246  newOwner */\n      dup2\n        /* \"contracts/Utils.sol\":15229:15235  _owner */\n      0x00\n      dup1\n        /* \"contracts/Utils.sol\":15229:15246  _owner = newOwner */\n      0x0100\n      exp\n      dup2\n      sload\n      dup2\n      0xffffffffffffffffffffffffffffffffffffffff\n      mul\n      not\n      and\n      swap1\n      dup4\n      0xffffffffffffffffffffffffffffffffffffffff\n      and\n      mul\n      or\n      swap1\n      sstore\n      pop\n        /* \"contracts/Utils.sol\":15293:15301  newOwner */\n      dup2\n        /* \"contracts/Utils.sol\":15262:15302  OwnershipTransferred(oldOwner, newOwner) */\n      0xffffffffffffffffffffffffffffffffffffffff\n      and\n        /* \"contracts/Utils.sol\":15283:15291  oldOwner */\n      dup2\n        /* \"contracts/Utils.sol\":15262:15302  OwnershipTransferred(oldOwner, newOwner) */\n      0xffffffffffffffffffffffffffffffffffffffff\n      and\n      0x8be0079c531659141344cd1fd0a4f28419497f9722a3daafe3b4186f6b6457e0\n      mload(0x40)\n      mload(0x40)\n      dup1\n      swap2\n      sub\n      swap1\n      log3\n        /* \"contracts/Utils.sol\":15182:15310  {... */\n      pop\n        /* \"contracts/Utils.sol\":15119:15310  function _transferOwnership(address newOwner) internal virtual {... */\n      pop\n      jump\t// out\n        /* \"contracts/Utils.sol\":11566:11911  function div(uint256 a, uint256 b, string memory errorMessage) internal pure returns (uint256) {... */\n    tag_295:\n        /* \"contracts/Utils.sol\":11652:11659  uint256 */\n      0x00\n        /* \"contracts/Utils.sol\":11751:11752  0 */\n      dup1\n        /* \"contracts/Utils.sol\":11747:11748  b */\n      dup4\n        /* \"contracts/Utils.sol\":11747:11752  b > 0 */\n      gt\n        /* \"contracts/Utils.sol\":11754:11766  errorMessage */\n      dup3\n        /* \"contracts/Utils.sol\":11739:11767  require(b > 0, errorMessage) */\n      swap1\n      tag_299\n      jumpi\n      mload(0x40)\n      0x08c379a000000000000000000000000000000000000000000000000000000000\n      dup2\n      mstore\n      0x04\n      add\n      tag_300\n      swap2\n      swap1\n      tag_301\n      jump\t// in\n    tag_300:\n      mload(0x40)\n      dup1\n      swap2\n      sub\n      swap1\n      revert\n    tag_299:\n      pop\n        /* \"contracts/Utils.sol\":11778:11787  uint256 c */\n      0x00\n        /* \"contracts/Utils.sol\":11794:11795  b */\n      dup4\n        /* \"contracts/Utils.sol\":11790:11791  a */\n      dup6\n        /* \"contracts/Utils.sol\":11790:11795  a / b */\n      tag_302\n      swap2\n      swap1\n      tag_284\n      jump\t// in\n    tag_302:\n        /* \"contracts/Utils.sol\":11778:11795  uint256 c = a / b */\n      swap1\n      pop\n        /* \"contracts/Utils.sol\":11902:11903  c */\n      dup1\n        /* \"contracts/Utils.sol\":11895:11903  return c */\n      swap2\n      pop\n      pop\n        /* \"contracts/Utils.sol\":11566:11911  function div(uint256 a, uint256 b, string memory errorMessage) internal pure returns (uint256) {... */\n      swap4\n      swap3\n      pop\n      pop\n      pop\n      jump\t// out\n        /* \"#utility.yul\":7:82   */\n    tag_303:\n        /* \"#utility.yul\":40:46   */\n      0x00\n        /* \"#utility.yul\":73:75   */\n      0x40\n        /* \"#utility.yul\":67:76   */\n      mload\n        /* \"#utility.yul\":57:76   */\n      swap1\n      pop\n        /* \"#utility.yul\":7:82   */\n      swap1\n      jump\t// out\n        /* \"#utility.yul\":88:205   */\n    tag_304:\n        /* \"#utility.yul\":197:198   */\n      0x00\n        /* \"#utility.yul\":194:195   */\n      dup1\n        /* \"#utility.yul\":187:199   */\n      revert\n        /* \"#utility.yul\":211:328   */\n    tag_305:\n        /* \"#utility.yul\":320:321   */\n      0x00\n        /* \"#utility.yul\":317:318   */\n      dup1\n        /* \"#utility.yul\":310:322   */\n      revert\n        /* \"#utility.yul\":334:460   */\n    tag_306:\n        /* \"#utility.yul\":371:378   */\n      0x00\n        /* \"#utility.yul\":411:453   */\n      0xffffffffffffffffffffffffffffffffffffffff\n        /* \"#utility.yul\":404:409   */\n      dup3\n        /* \"#utility.yul\":400:454   */\n      and\n        /* \"#utility.yul\":389:454   */\n      swap1\n      pop\n        /* \"#utility.yul\":334:460   */\n      swap2\n      swap1\n      pop\n      jump\t// out\n        /* \"#utility.yul\":466:562   */\n    tag_307:\n        /* \"#utility.yul\":503:510   */\n      0x00\n        /* \"#utility.yul\":532:556   */\n      tag_378\n        /* \"#utility.yul\":550:555   */\n      dup3\n        /* \"#utility.yul\":532:556   */\n      tag_306\n      jump\t// in\n    tag_378:\n        /* \"#utility.yul\":521:556   */\n      swap1\n      pop\n        /* \"#utility.yul\":466:562   */\n      swap2\n      swap1\n      pop\n      jump\t// out\n        /* \"#utility.yul\":568:690   */\n    tag_308:\n        /* \"#utility.yul\":641:665   */\n      tag_380\n        /* \"#utility.yul\":659:664   */\n      dup2\n        /* \"#utility.yul\":641:665   */\n      tag_307\n      jump\t// in\n    tag_380:\n        /* \"#utility.yul\":634:639   */\n      dup2\n        /* \"#utility.yul\":631:666   */\n      eq\n        /* \"#utility.yul\":621:684   */\n      tag_381\n      jumpi\n        /* \"#utility.yul\":680:681   */\n      0x00\n        /* \"#utility.yul\":677:678   */\n      dup1\n        /* \"#utility.yul\":670:682   */\n      revert\n        /* \"#utility.yul\":621:684   */\n    tag_381:\n        /* \"#utility.yul\":568:690   */\n      pop\n      jump\t// out\n        /* \"#utility.yul\":696:835   */\n    tag_309:\n        /* \"#utility.yul\":742:747   */\n      0x00\n        /* \"#utility.yul\":780:786   */\n      dup2\n        /* \"#utility.yul\":767:787   */\n      calldataload\n        /* \"#utility.yul\":758:787   */\n      swap1\n      pop\n        /* \"#utility.yul\":796:829   */\n      tag_383\n        /* \"#utility.yul\":823:828   */\n      dup2\n        /* \"#utility.yul\":796:829   */\n      tag_308\n      jump\t// in\n    tag_383:\n        /* \"#utility.yul\":696:835   */\n      swap3\n      swap2\n      pop\n      pop\n      jump\t// out\n        /* \"#utility.yul\":841:1170   */\n    tag_23:\n        /* \"#utility.yul\":900:906   */\n      0x00\n        /* \"#utility.yul\":949:951   */\n      0x20\n        /* \"#utility.yul\":937:946   */\n      dup3\n        /* \"#utility.yul\":928:935   */\n      dup5\n        /* \"#utility.yul\":924:947   */\n      sub\n        /* \"#utility.yul\":920:952   */\n      slt\n        /* \"#utility.yul\":917:1036   */\n      iszero\n      tag_385\n      jumpi\n        /* \"#utility.yul\":955:1034   */\n      tag_386\n      tag_304\n      jump\t// in\n    tag_386:\n        /* \"#utility.yul\":917:1036   */\n    tag_385:\n        /* \"#utility.yul\":1075:1076   */\n      0x00\n        /* \"#utility.yul\":1100:1153   */\n      tag_387\n        /* \"#utility.yul\":1145:1152   */\n      dup5\n        /* \"#utility.yul\":1136:1142   */\n      dup3\n        /* \"#utility.yul\":1125:1134   */\n      dup6\n        /* \"#utility.yul\":1121:1143   */\n      add\n        /* \"#utility.yul\":1100:1153   */\n      tag_309\n      jump\t// in\n    tag_387:\n        /* \"#utility.yul\":1090:1153   */\n      swap2\n      pop\n        /* \"#utility.yul\":1046:1163   */\n      pop\n        /* \"#utility.yul\":841:1170   */\n      swap3\n      swap2\n      pop\n      pop\n      jump\t// out\n        /* \"#utility.yul\":1176:1253   */\n    tag_310:\n        /* \"#utility.yul\":1213:1220   */\n      0x00\n        /* \"#utility.yul\":1242:1247   */\n      dup2\n        /* \"#utility.yul\":1231:1247   */\n      swap1\n      pop\n        /* \"#utility.yul\":1176:1253   */\n      swap2\n      swap1\n      pop\n      jump\t// out\n        /* \"#utility.yul\":1259:1377   */\n    tag_311:\n        /* \"#utility.yul\":1346:1370   */\n      tag_390\n        /* \"#utility.yul\":1364:1369   */\n      dup2\n        /* \"#utility.yul\":1346:1370   */\n      tag_310\n      jump\t// in\n    tag_390:\n        /* \"#utility.yul\":1341:1344   */\n      dup3\n        /* \"#utility.yul\":1334:1371   */\n      mstore\n        /* \"#utility.yul\":1259:1377   */\n      pop\n      pop\n      jump\t// out\n        /* \"#utility.yul\":1383:1605   */\n    tag_26:\n        /* \"#utility.yul\":1476:1480   */\n      0x00\n        /* \"#utility.yul\":1514:1516   */\n      0x20\n        /* \"#utility.yul\":1503:1512   */\n      dup3\n        /* \"#utility.yul\":1499:1517   */\n      add\n        /* \"#utility.yul\":1491:1517   */\n      swap1\n      pop\n        /* \"#utility.yul\":1527:1598   */\n      tag_392\n        /* \"#utility.yul\":1595:1596   */\n      0x00\n        /* \"#utility.yul\":1584:1593   */\n      dup4\n        /* \"#utility.yul\":1580:1597   */\n      add\n        /* \"#utility.yul\":1571:1577   */\n      dup5\n        /* \"#utility.yul\":1527:1598   */\n      tag_311\n      jump\t// in\n    tag_392:\n        /* \"#utility.yul\":1383:1605   */\n      swap3\n      swap2\n      pop\n      pop\n      jump\t// out\n        /* \"#utility.yul\":1611:1717   */\n    tag_312:\n        /* \"#utility.yul\":1658:1665   */\n      0x00\n        /* \"#utility.yul\":1687:1711   */\n      tag_394\n        /* \"#utility.yul\":1705:1710   */\n      dup3\n        /* \"#utility.yul\":1687:1711   */\n      tag_307\n      jump\t// in\n    tag_394:\n        /* \"#utility.yul\":1676:1711   */\n      swap1\n      pop\n        /* \"#utility.yul\":1611:1717   */\n      swap2\n      swap1\n      pop\n      jump\t// out\n        /* \"#utility.yul\":1723:1865   */\n    tag_313:\n        /* \"#utility.yul\":1806:1840   */\n      tag_396\n        /* \"#utility.yul\":1834:1839   */\n      dup2\n        /* \"#utility.yul\":1806:1840   */\n      tag_312\n      jump\t// in\n    tag_396:\n        /* \"#utility.yul\":1799:1804   */\n      dup2\n        /* \"#utility.yul\":1796:1841   */\n      eq\n        /* \"#utility.yul\":1786:1859   */\n      tag_397\n      jumpi\n        /* \"#utility.yul\":1855:1856   */\n      0x00\n        /* \"#utility.yul\":1852:1853   */\n      dup1\n        /* \"#utility.yul\":1845:1857   */\n      revert\n        /* \"#utility.yul\":1786:1859   */\n    tag_397:\n        /* \"#utility.yul\":1723:1865   */\n      pop\n      jump\t// out\n        /* \"#utility.yul\":1871:2030   */\n    tag_314:\n        /* \"#utility.yul\":1927:1932   */\n      0x00\n        /* \"#utility.yul\":1965:1971   */\n      dup2\n        /* \"#utility.yul\":1952:1972   */\n      calldataload\n        /* \"#utility.yul\":1943:1972   */\n      swap1\n      pop\n        /* \"#utility.yul\":1981:2024   */\n      tag_399\n        /* \"#utility.yul\":2018:2023   */\n      dup2\n        /* \"#utility.yul\":1981:2024   */\n      tag_313\n      jump\t// in\n    tag_399:\n        /* \"#utility.yul\":1871:2030   */\n      swap3\n      swap2\n      pop\n      pop\n      jump\t// out\n        /* \"#utility.yul\":2036:2385   */\n    tag_29:\n        /* \"#utility.yul\":2105:2111   */\n      0x00\n        /* \"#utility.yul\":2154:2156   */\n      0x20\n        /* \"#utility.yul\":2142:2151   */\n      dup3\n        /* \"#utility.yul\":2133:2140   */\n      dup5\n        /* \"#utility.yul\":2129:2152   */\n      sub\n        /* \"#utility.yul\":2125:2157   */\n      slt\n        /* \"#utility.yul\":2122:2241   */\n      iszero\n      tag_401\n      jumpi\n        /* \"#utility.yul\":2160:2239   */\n      tag_402\n      tag_304\n      jump\t// in\n    tag_402:\n        /* \"#utility.yul\":2122:2241   */\n    tag_401:\n        /* \"#utility.yul\":2280:2281   */\n      0x00\n        /* \"#utility.yul\":2305:2368   */\n      tag_403\n        /* \"#utility.yul\":2360:2367   */\n      dup5\n        /* \"#utility.yul\":2351:2357   */\n      dup3\n        /* \"#utility.yul\":2340:2349   */\n      dup6\n        /* \"#utility.yul\":2336:2358   */\n      add\n        /* \"#utility.yul\":2305:2368   */\n      tag_314\n      jump\t// in\n    tag_403:\n        /* \"#utility.yul\":2295:2368   */\n      swap2\n      pop\n        /* \"#utility.yul\":2251:2378   */\n      pop\n        /* \"#utility.yul\":2036:2385   */\n      swap3\n      swap2\n      pop\n      pop\n      jump\t// out\n        /* \"#utility.yul\":2391:2451   */\n    tag_315:\n        /* \"#utility.yul\":2419:2422   */\n      0x00\n        /* \"#utility.yul\":2440:2445   */\n      dup2\n        /* \"#utility.yul\":2433:2445   */\n      swap1\n      pop\n        /* \"#utility.yul\":2391:2451   */\n      swap2\n      swap1\n      pop\n      jump\t// out\n        /* \"#utility.yul\":2457:2599   */\n    tag_316:\n        /* \"#utility.yul\":2507:2516   */\n      0x00\n        /* \"#utility.yul\":2540:2593   */\n      tag_406\n        /* \"#utility.yul\":2558:2592   */\n      tag_407\n        /* \"#utility.yul\":2567:2591   */\n      tag_408\n        /* \"#utility.yul\":2585:2590   */\n      dup5\n        /* \"#utility.yul\":2567:2591   */\n      tag_306\n      jump\t// in\n    tag_408:\n        /* \"#utility.yul\":2558:2592   */\n      tag_315\n      jump\t// in\n    tag_407:\n        /* \"#utility.yul\":2540:2593   */\n      tag_306\n      jump\t// in\n    tag_406:\n        /* \"#utility.yul\":2527:2593   */\n      swap1\n      pop\n        /* \"#utility.yul\":2457:2599   */\n      swap2\n      swap1\n      pop\n      jump\t// out\n        /* \"#utility.yul\":2605:2731   */\n    tag_317:\n        /* \"#utility.yul\":2655:2664   */\n      0x00\n        /* \"#utility.yul\":2688:2725   */\n      tag_410\n        /* \"#utility.yul\":2719:2724   */\n      dup3\n        /* \"#utility.yul\":2688:2725   */\n      tag_316\n      jump\t// in\n    tag_410:\n        /* \"#utility.yul\":2675:2725   */\n      swap1\n      pop\n        /* \"#utility.yul\":2605:2731   */\n      swap2\n      swap1\n      pop\n      jump\t// out\n        /* \"#utility.yul\":2737:2877   */\n    tag_318:\n        /* \"#utility.yul\":2801:2810   */\n      0x00\n        /* \"#utility.yul\":2834:2871   */\n      tag_412\n        /* \"#utility.yul\":2865:2870   */\n      dup3\n        /* \"#utility.yul\":2834:2871   */\n      tag_317\n      jump\t// in\n    tag_412:\n        /* \"#utility.yul\":2821:2871   */\n      swap1\n      pop\n        /* \"#utility.yul\":2737:2877   */\n      swap2\n      swap1\n      pop\n      jump\t// out\n        /* \"#utility.yul\":2883:3042   */\n    tag_319:\n        /* \"#utility.yul\":2984:3035   */\n      tag_414\n        /* \"#utility.yul\":3029:3034   */\n      dup2\n        /* \"#utility.yul\":2984:3035   */\n      tag_318\n      jump\t// in\n    tag_414:\n        /* \"#utility.yul\":2979:2982   */\n      dup3\n        /* \"#utility.yul\":2972:3036   */\n      mstore\n        /* \"#utility.yul\":2883:3042   */\n      pop\n      pop\n      jump\t// out\n        /* \"#utility.yul\":3048:3298   */\n    tag_39:\n        /* \"#utility.yul\":3155:3159   */\n      0x00\n        /* \"#utility.yul\":3193:3195   */\n      0x20\n        /* \"#utility.yul\":3182:3191   */\n      dup3\n        /* \"#utility.yul\":3178:3196   */\n      add\n        /* \"#utility.yul\":3170:3196   */\n      swap1\n      pop\n        /* \"#utility.yul\":3206:3291   */\n      tag_416\n        /* \"#utility.yul\":3288:3289   */\n      0x00\n        /* \"#utility.yul\":3277:3286   */\n      dup4\n        /* \"#utility.yul\":3273:3290   */\n      add\n        /* \"#utility.yul\":3264:3270   */\n      dup5\n        /* \"#utility.yul\":3206:3291   */\n      tag_319\n      jump\t// in\n    tag_416:\n        /* \"#utility.yul\":3048:3298   */\n      swap3\n      swap2\n      pop\n      pop\n      jump\t// out\n        /* \"#utility.yul\":3304:3422   */\n    tag_320:\n        /* \"#utility.yul\":3391:3415   */\n      tag_418\n        /* \"#utility.yul\":3409:3414   */\n      dup2\n        /* \"#utility.yul\":3391:3415   */\n      tag_307\n      jump\t// in\n    tag_418:\n        /* \"#utility.yul\":3386:3389   */\n      dup3\n        /* \"#utility.yul\":3379:3416   */\n      mstore\n        /* \"#utility.yul\":3304:3422   */\n      pop\n      pop\n      jump\t// out\n        /* \"#utility.yul\":3428:3650   */\n    tag_47:\n        /* \"#utility.yul\":3521:3525   */\n      0x00\n        /* \"#utility.yul\":3559:3561   */\n      0x20\n        /* \"#utility.yul\":3548:3557   */\n      dup3\n        /* \"#utility.yul\":3544:3562   */\n      add\n        /* \"#utility.yul\":3536:3562   */\n      swap1\n      pop\n        /* \"#utility.yul\":3572:3643   */\n      tag_420\n        /* \"#utility.yul\":3640:3641   */\n      0x00\n        /* \"#utility.yul\":3629:3638   */\n      dup4\n        /* \"#utility.yul\":3625:3642   */\n      add\n        /* \"#utility.yul\":3616:3622   */\n      dup5\n        /* \"#utility.yul\":3572:3643   */\n      tag_320\n      jump\t// in\n    tag_420:\n        /* \"#utility.yul\":3428:3650   */\n      swap3\n      swap2\n      pop\n      pop\n      jump\t// out\n        /* \"#utility.yul\":3656:3774   */\n    tag_321:\n        /* \"#utility.yul\":3715:3722   */\n      0x00\n        /* \"#utility.yul\":3744:3768   */\n      tag_422\n        /* \"#utility.yul\":3762:3767   */\n      dup3\n        /* \"#utility.yul\":3744:3768   */\n      tag_307\n      jump\t// in\n    tag_422:\n        /* \"#utility.yul\":3733:3768   */\n      swap1\n      pop\n        /* \"#utility.yul\":3656:3774   */\n      swap2\n      swap1\n      pop\n      jump\t// out\n        /* \"#utility.yul\":3780:3946   */\n    tag_322:\n        /* \"#utility.yul\":3875:3921   */\n      tag_424\n        /* \"#utility.yul\":3915:3920   */\n      dup2\n        /* \"#utility.yul\":3875:3921   */\n      tag_321\n      jump\t// in\n    tag_424:\n        /* \"#utility.yul\":3868:3873   */\n      dup2\n        /* \"#utility.yul\":3865:3922   */\n      eq\n        /* \"#utility.yul\":3855:3940   */\n      tag_425\n      jumpi\n        /* \"#utility.yul\":3936:3937   */\n      0x00\n        /* \"#utility.yul\":3933:3934   */\n      dup1\n        /* \"#utility.yul\":3926:3938   */\n      revert\n        /* \"#utility.yul\":3855:3940   */\n    tag_425:\n        /* \"#utility.yul\":3780:3946   */\n      pop\n      jump\t// out\n        /* \"#utility.yul\":3952:4135   */\n    tag_323:\n        /* \"#utility.yul\":4020:4025   */\n      0x00\n        /* \"#utility.yul\":4058:4064   */\n      dup2\n        /* \"#utility.yul\":4045:4065   */\n      calldataload\n        /* \"#utility.yul\":4036:4065   */\n      swap1\n      pop\n        /* \"#utility.yul\":4074:4129   */\n      tag_427\n        /* \"#utility.yul\":4123:4128   */\n      dup2\n        /* \"#utility.yul\":4074:4129   */\n      tag_322\n      jump\t// in\n    tag_427:\n        /* \"#utility.yul\":3952:4135   */\n      swap3\n      swap2\n      pop\n      pop\n      jump\t// out\n        /* \"#utility.yul\":4141:4258   */\n    tag_324:\n        /* \"#utility.yul\":4250:4251   */\n      0x00\n        /* \"#utility.yul\":4247:4248   */\n      dup1\n        /* \"#utility.yul\":4240:4252   */\n      revert\n        /* \"#utility.yul\":4264:4366   */\n    tag_325:\n        /* \"#utility.yul\":4305:4311   */\n      0x00\n        /* \"#utility.yul\":4356:4358   */\n      0x1f\n        /* \"#utility.yul\":4352:4359   */\n      not\n        /* \"#utility.yul\":4347:4349   */\n      0x1f\n        /* \"#utility.yul\":4340:4345   */\n      dup4\n        /* \"#utility.yul\":4336:4350   */\n      add\n        /* \"#utility.yul\":4332:4360   */\n      and\n        /* \"#utility.yul\":4322:4360   */\n      swap1\n      pop\n        /* \"#utility.yul\":4264:4366   */\n      swap2\n      swap1\n      pop\n      jump\t// out\n        /* \"#utility.yul\":4372:4552   */\n    tag_82:\n        /* \"#utility.yul\":4420:4497   */\n      0x4e487b7100000000000000000000000000000000000000000000000000000000\n        /* \"#utility.yul\":4417:4418   */\n      0x00\n        /* \"#utility.yul\":4410:4498   */\n      mstore\n        /* \"#utility.yul\":4517:4521   */\n      0x41\n        /* \"#utility.yul\":4514:4515   */\n      0x04\n        /* \"#utility.yul\":4507:4522   */\n      mstore\n        /* \"#utility.yul\":4541:4545   */\n      0x24\n        /* \"#utility.yul\":4538:4539   */\n      0x00\n        /* \"#utility.yul\":4531:4546   */\n      revert\n        /* \"#utility.yul\":4558:4839   */\n    tag_326:\n        /* \"#utility.yul\":4641:4668   */\n      tag_432\n        /* \"#utility.yul\":4663:4667   */\n      dup3\n        /* \"#utility.yul\":4641:4668   */\n      tag_325\n      jump\t// in\n    tag_432:\n        /* \"#utility.yul\":4633:4639   */\n      dup2\n        /* \"#utility.yul\":4629:4669   */\n      add\n        /* \"#utility.yul\":4771:4777   */\n      dup2\n        /* \"#utility.yul\":4759:4769   */\n      dup2\n        /* \"#utility.yul\":4756:4778   */\n      lt\n        /* \"#utility.yul\":4735:4753   */\n      0xffffffffffffffff\n        /* \"#utility.yul\":4723:4733   */\n      dup3\n        /* \"#utility.yul\":4720:4754   */\n      gt\n        /* \"#utility.yul\":4717:4779   */\n      or\n        /* \"#utility.yul\":4714:4802   */\n      iszero\n      tag_433\n      jumpi\n        /* \"#utility.yul\":4782:4800   */\n      tag_434\n      tag_82\n      jump\t// in\n    tag_434:\n        /* \"#utility.yul\":4714:4802   */\n    tag_433:\n        /* \"#utility.yul\":4822:4832   */\n      dup1\n        /* \"#utility.yul\":4818:4820   */\n      0x40\n        /* \"#utility.yul\":4811:4833   */\n      mstore\n        /* \"#utility.yul\":4601:4839   */\n      pop\n        /* \"#utility.yul\":4558:4839   */\n      pop\n      pop\n      jump\t// out\n        /* \"#utility.yul\":4845:4974   */\n    tag_327:\n        /* \"#utility.yul\":4879:4885   */\n      0x00\n        /* \"#utility.yul\":4906:4926   */\n      tag_436\n      tag_303\n      jump\t// in\n    tag_436:\n        /* \"#utility.yul\":4896:4926   */\n      swap1\n      pop\n        /* \"#utility.yul\":4935:4968   */\n      tag_437\n        /* \"#utility.yul\":4963:4967   */\n      dup3\n        /* \"#utility.yul\":4955:4961   */\n      dup3\n        /* \"#utility.yul\":4935:4968   */\n      tag_326\n      jump\t// in\n    tag_437:\n        /* \"#utility.yul\":4845:4974   */\n      swap2\n      swap1\n      pop\n      jump\t// out\n        /* \"#utility.yul\":4980:5301   */\n    tag_328:\n        /* \"#utility.yul\":5067:5071   */\n      0x00\n        /* \"#utility.yul\":5157:5175   */\n      0xffffffffffffffff\n        /* \"#utility.yul\":5149:5155   */\n      dup3\n        /* \"#utility.yul\":5146:5176   */\n      gt\n        /* \"#utility.yul\":5143:5199   */\n      iszero\n      tag_439\n      jumpi\n        /* \"#utility.yul\":5179:5197   */\n      tag_440\n      tag_82\n      jump\t// in\n    tag_440:\n        /* \"#utility.yul\":5143:5199   */\n    tag_439:\n        /* \"#utility.yul\":5229:5233   */\n      0x20\n        /* \"#utility.yul\":5221:5227   */\n      dup3\n        /* \"#utility.yul\":5217:5234   */\n      mul\n        /* \"#utility.yul\":5209:5234   */\n      swap1\n      pop\n        /* \"#utility.yul\":5289:5293   */\n      0x20\n        /* \"#utility.yul\":5283:5287   */\n      dup2\n        /* \"#utility.yul\":5279:5294   */\n      add\n        /* \"#utility.yul\":5271:5294   */\n      swap1\n      pop\n        /* \"#utility.yul\":4980:5301   */\n      swap2\n      swap1\n      pop\n      jump\t// out\n        /* \"#utility.yul\":5307:5424   */\n    tag_329:\n        /* \"#utility.yul\":5416:5417   */\n      0x00\n        /* \"#utility.yul\":5413:5414   */\n      dup1\n        /* \"#utility.yul\":5406:5418   */\n      revert\n        /* \"#utility.yul\":5451:6191   */\n    tag_330:\n        /* \"#utility.yul\":5557:5562   */\n      0x00\n        /* \"#utility.yul\":5582:5673   */\n      tag_443\n        /* \"#utility.yul\":5598:5672   */\n      tag_444\n        /* \"#utility.yul\":5665:5671   */\n      dup5\n        /* \"#utility.yul\":5598:5672   */\n      tag_328\n      jump\t// in\n    tag_444:\n        /* \"#utility.yul\":5582:5673   */\n      tag_327\n      jump\t// in\n    tag_443:\n        /* \"#utility.yul\":5573:5673   */\n      swap1\n      pop\n        /* \"#utility.yul\":5693:5698   */\n      dup1\n        /* \"#utility.yul\":5722:5728   */\n      dup4\n        /* \"#utility.yul\":5715:5720   */\n      dup3\n        /* \"#utility.yul\":5708:5729   */\n      mstore\n        /* \"#utility.yul\":5756:5760   */\n      0x20\n        /* \"#utility.yul\":5749:5754   */\n      dup3\n        /* \"#utility.yul\":5745:5761   */\n      add\n        /* \"#utility.yul\":5738:5761   */\n      swap1\n      pop\n        /* \"#utility.yul\":5809:5813   */\n      0x20\n        /* \"#utility.yul\":5801:5807   */\n      dup5\n        /* \"#utility.yul\":5797:5814   */\n      mul\n        /* \"#utility.yul\":5789:5795   */\n      dup4\n        /* \"#utility.yul\":5785:5815   */\n      add\n        /* \"#utility.yul\":5838:5841   */\n      dup6\n        /* \"#utility.yul\":5830:5836   */\n      dup2\n        /* \"#utility.yul\":5827:5842   */\n      gt\n        /* \"#utility.yul\":5824:5946   */\n      iszero\n      tag_445\n      jumpi\n        /* \"#utility.yul\":5857:5936   */\n      tag_446\n      tag_329\n      jump\t// in\n    tag_446:\n        /* \"#utility.yul\":5824:5946   */\n    tag_445:\n        /* \"#utility.yul\":5972:5978   */\n      dup4\n        /* \"#utility.yul\":5955:6185   */\n    tag_447:\n        /* \"#utility.yul\":5989:5995   */\n      dup2\n        /* \"#utility.yul\":5984:5987   */\n      dup2\n        /* \"#utility.yul\":5981:5996   */\n      lt\n        /* \"#utility.yul\":5955:6185   */\n      iszero\n      tag_449\n      jumpi\n        /* \"#utility.yul\":6064:6067   */\n      dup1\n        /* \"#utility.yul\":6093:6140   */\n      tag_450\n        /* \"#utility.yul\":6136:6139   */\n      dup9\n        /* \"#utility.yul\":6124:6134   */\n      dup3\n        /* \"#utility.yul\":6093:6140   */\n      tag_314\n      jump\t// in\n    tag_450:\n        /* \"#utility.yul\":6088:6091   */\n      dup5\n        /* \"#utility.yul\":6081:6141   */\n      mstore\n        /* \"#utility.yul\":6170:6174   */\n      0x20\n        /* \"#utility.yul\":6165:6168   */\n      dup5\n        /* \"#utility.yul\":6161:6175   */\n      add\n        /* \"#utility.yul\":6154:6175   */\n      swap4\n      pop\n        /* \"#utility.yul\":6031:6185   */\n      pop\n        /* \"#utility.yul\":6015:6019   */\n      0x20\n        /* \"#utility.yul\":6010:6013   */\n      dup2\n        /* \"#utility.yul\":6006:6020   */\n      add\n        /* \"#utility.yul\":5999:6020   */\n      swap1\n      pop\n        /* \"#utility.yul\":5955:6185   */\n      jump(tag_447)\n    tag_449:\n        /* \"#utility.yul\":5959:5980   */\n      pop\n        /* \"#utility.yul\":5563:6191   */\n      pop\n      pop\n        /* \"#utility.yul\":5451:6191   */\n      swap4\n      swap3\n      pop\n      pop\n      pop\n      jump\t// out\n        /* \"#utility.yul\":6218:6608   */\n    tag_331:\n        /* \"#utility.yul\":6299:6304   */\n      0x00\n        /* \"#utility.yul\":6348:6351   */\n      dup3\n        /* \"#utility.yul\":6341:6345   */\n      0x1f\n        /* \"#utility.yul\":6333:6339   */\n      dup4\n        /* \"#utility.yul\":6329:6346   */\n      add\n        /* \"#utility.yul\":6325:6352   */\n      slt\n        /* \"#utility.yul\":6315:6437   */\n      tag_452\n      jumpi\n        /* \"#utility.yul\":6356:6435   */\n      tag_453\n      tag_324\n      jump\t// in\n    tag_453:\n        /* \"#utility.yul\":6315:6437   */\n    tag_452:\n        /* \"#utility.yul\":6473:6479   */\n      dup2\n        /* \"#utility.yul\":6460:6480   */\n      calldataload\n        /* \"#utility.yul\":6498:6602   */\n      tag_454\n        /* \"#utility.yul\":6598:6601   */\n      dup5\n        /* \"#utility.yul\":6590:6596   */\n      dup3\n        /* \"#utility.yul\":6583:6587   */\n      0x20\n        /* \"#utility.yul\":6575:6581   */\n      dup7\n        /* \"#utility.yul\":6571:6588   */\n      add\n        /* \"#utility.yul\":6498:6602   */\n      tag_330\n      jump\t// in\n    tag_454:\n        /* \"#utility.yul\":6489:6602   */\n      swap2\n      pop\n        /* \"#utility.yul\":6305:6608   */\n      pop\n        /* \"#utility.yul\":6218:6608   */\n      swap3\n      swap2\n      pop\n      pop\n      jump\t// out\n        /* \"#utility.yul\":6614:7362   */\n    tag_50:\n        /* \"#utility.yul\":6739:6745   */\n      0x00\n        /* \"#utility.yul\":6747:6753   */\n      dup1\n        /* \"#utility.yul\":6796:6798   */\n      0x40\n        /* \"#utility.yul\":6784:6793   */\n      dup4\n        /* \"#utility.yul\":6775:6782   */\n      dup6\n        /* \"#utility.yul\":6771:6794   */\n      sub\n        /* \"#utility.yul\":6767:6799   */\n      slt\n        /* \"#utility.yul\":6764:6883   */\n      iszero\n      tag_456\n      jumpi\n        /* \"#utility.yul\":6802:6881   */\n      tag_457\n      tag_304\n      jump\t// in\n    tag_457:\n        /* \"#utility.yul\":6764:6883   */\n    tag_456:\n        /* \"#utility.yul\":6922:6923   */\n      0x00\n        /* \"#utility.yul\":6947:7022   */\n      tag_458\n        /* \"#utility.yul\":7014:7021   */\n      dup6\n        /* \"#utility.yul\":7005:7011   */\n      dup3\n        /* \"#utility.yul\":6994:7003   */\n      dup7\n        /* \"#utility.yul\":6990:7012   */\n      add\n        /* \"#utility.yul\":6947:7022   */\n      tag_323\n      jump\t// in\n    tag_458:\n        /* \"#utility.yul\":6937:7022   */\n      swap3\n      pop\n        /* \"#utility.yul\":6893:7032   */\n      pop\n        /* \"#utility.yul\":7099:7101   */\n      0x20\n        /* \"#utility.yul\":7088:7097   */\n      dup4\n        /* \"#utility.yul\":7084:7102   */\n      add\n        /* \"#utility.yul\":7071:7103   */\n      calldataload\n        /* \"#utility.yul\":7130:7148   */\n      0xffffffffffffffff\n        /* \"#utility.yul\":7122:7128   */\n      dup2\n        /* \"#utility.yul\":7119:7149   */\n      gt\n        /* \"#utility.yul\":7116:7233   */\n      iszero\n      tag_459\n      jumpi\n        /* \"#utility.yul\":7152:7231   */\n      tag_460\n      tag_305\n      jump\t// in\n    tag_460:\n        /* \"#utility.yul\":7116:7233   */\n    tag_459:\n        /* \"#utility.yul\":7257:7345   */\n      tag_461\n        /* \"#utility.yul\":7337:7344   */\n      dup6\n        /* \"#utility.yul\":7328:7334   */\n      dup3\n        /* \"#utility.yul\":7317:7326   */\n      dup7\n        /* \"#utility.yul\":7313:7335   */\n      add\n        /* \"#utility.yul\":7257:7345   */\n      tag_331\n      jump\t// in\n    tag_461:\n        /* \"#utility.yul\":7247:7345   */\n      swap2\n      pop\n        /* \"#utility.yul\":7042:7355   */\n      pop\n        /* \"#utility.yul\":6614:7362   */\n      swap3\n      pop\n      swap3\n      swap1\n      pop\n      jump\t// out\n        /* \"#utility.yul\":7368:7478   */\n    tag_332:\n        /* \"#utility.yul\":7419:7426   */\n      0x00\n        /* \"#utility.yul\":7448:7472   */\n      tag_463\n        /* \"#utility.yul\":7466:7471   */\n      dup3\n        /* \"#utility.yul\":7448:7472   */\n      tag_307\n      jump\t// in\n    tag_463:\n        /* \"#utility.yul\":7437:7472   */\n      swap1\n      pop\n        /* \"#utility.yul\":7368:7478   */\n      swap2\n      swap1\n      pop\n      jump\t// out\n        /* \"#utility.yul\":7484:7634   */\n    tag_333:\n        /* \"#utility.yul\":7571:7609   */\n      tag_465\n        /* \"#utility.yul\":7603:7608   */\n      dup2\n        /* \"#utility.yul\":7571:7609   */\n      tag_332\n      jump\t// in\n    tag_465:\n        /* \"#utility.yul\":7564:7569   */\n      dup2\n        /* \"#utility.yul\":7561:7610   */\n      eq\n        /* \"#utility.yul\":7551:7628   */\n      tag_466\n      jumpi\n        /* \"#utility.yul\":7624:7625   */\n      0x00\n        /* \"#utility.yul\":7621:7622   */\n      dup1\n        /* \"#utility.yul\":7614:7626   */\n      revert\n        /* \"#utility.yul\":7551:7628   */\n    tag_466:\n        /* \"#utility.yul\":7484:7634   */\n      pop\n      jump\t// out\n        /* \"#utility.yul\":7640:7807   */\n    tag_334:\n        /* \"#utility.yul\":7700:7705   */\n      0x00\n        /* \"#utility.yul\":7738:7744   */\n      dup2\n        /* \"#utility.yul\":7725:7745   */\n      calldataload\n        /* \"#utility.yul\":7716:7745   */\n      swap1\n      pop\n        /* \"#utility.yul\":7754:7801   */\n      tag_468\n        /* \"#utility.yul\":7795:7800   */\n      dup2\n        /* \"#utility.yul\":7754:7801   */\n      tag_333\n      jump\t// in\n    tag_468:\n        /* \"#utility.yul\":7640:7807   */\n      swap3\n      swap2\n      pop\n      pop\n      jump\t// out\n        /* \"#utility.yul\":7813:8170   */\n    tag_63:\n        /* \"#utility.yul\":7886:7892   */\n      0x00\n        /* \"#utility.yul\":7935:7937   */\n      0x20\n        /* \"#utility.yul\":7923:7932   */\n      dup3\n        /* \"#utility.yul\":7914:7921   */\n      dup5\n        /* \"#utility.yul\":7910:7933   */\n      sub\n        /* \"#utility.yul\":7906:7938   */\n      slt\n        /* \"#utility.yul\":7903:8022   */\n      iszero\n      tag_470\n      jumpi\n        /* \"#utility.yul\":7941:8020   */\n      tag_471\n      tag_304\n      jump\t// in\n    tag_471:\n        /* \"#utility.yul\":7903:8022   */\n    tag_470:\n        /* \"#utility.yul\":8061:8062   */\n      0x00\n        /* \"#utility.yul\":8086:8153   */\n      tag_472\n        /* \"#utility.yul\":8145:8152   */\n      dup5\n        /* \"#utility.yul\":8136:8142   */\n      dup3\n        /* \"#utility.yul\":8125:8134   */\n      dup6\n        /* \"#utility.yul\":8121:8143   */\n      add\n        /* \"#utility.yul\":8086:8153   */\n      tag_334\n      jump\t// in\n    tag_472:\n        /* \"#utility.yul\":8076:8153   */\n      swap2\n      pop\n        /* \"#utility.yul\":8032:8163   */\n      pop\n        /* \"#utility.yul\":7813:8170   */\n      swap3\n      swap2\n      pop\n      pop\n      jump\t// out\n        /* \"#utility.yul\":8176:8298   */\n    tag_335:\n        /* \"#utility.yul\":8249:8273   */\n      tag_474\n        /* \"#utility.yul\":8267:8272   */\n      dup2\n        /* \"#utility.yul\":8249:8273   */\n      tag_310\n      jump\t// in\n    tag_474:\n        /* \"#utility.yul\":8242:8247   */\n      dup2\n        /* \"#utility.yul\":8239:8274   */\n      eq\n        /* \"#utility.yul\":8229:8292   */\n      tag_475\n      jumpi\n        /* \"#utility.yul\":8288:8289   */\n      0x00\n        /* \"#utility.yul\":8285:8286   */\n      dup1\n        /* \"#utility.yul\":8278:8290   */\n      revert\n        /* \"#utility.yul\":8229:8292   */\n    tag_475:\n        /* \"#utility.yul\":8176:8298   */\n      pop\n      jump\t// out\n        /* \"#utility.yul\":8304:8443   */\n    tag_336:\n        /* \"#utility.yul\":8350:8355   */\n      0x00\n        /* \"#utility.yul\":8388:8394   */\n      dup2\n        /* \"#utility.yul\":8375:8395   */\n      calldataload\n        /* \"#utility.yul\":8366:8395   */\n      swap1\n      pop\n        /* \"#utility.yul\":8404:8437   */\n      tag_477\n        /* \"#utility.yul\":8431:8436   */\n      dup2\n        /* \"#utility.yul\":8404:8437   */\n      tag_335\n      jump\t// in\n    tag_477:\n        /* \"#utility.yul\":8304:8443   */\n      swap3\n      swap2\n      pop\n      pop\n      jump\t// out\n        /* \"#utility.yul\":8449:9278   */\n    tag_67:\n        /* \"#utility.yul\":8567:8573   */\n      0x00\n        /* \"#utility.yul\":8575:8581   */\n      dup1\n        /* \"#utility.yul\":8583:8589   */\n      0x00\n        /* \"#utility.yul\":8591:8597   */\n      dup1\n        /* \"#utility.yul\":8640:8643   */\n      0x80\n        /* \"#utility.yul\":8628:8637   */\n      dup6\n        /* \"#utility.yul\":8619:8626   */\n      dup8\n        /* \"#utility.yul\":8615:8638   */\n      sub\n        /* \"#utility.yul\":8611:8644   */\n      slt\n        /* \"#utility.yul\":8608:8728   */\n      iszero\n      tag_479\n      jumpi\n        /* \"#utility.yul\":8647:8726   */\n      tag_480\n      tag_304\n      jump\t// in\n    tag_480:\n        /* \"#utility.yul\":8608:8728   */\n    tag_479:\n        /* \"#utility.yul\":8767:8768   */\n      0x00\n        /* \"#utility.yul\":8792:8845   */\n      tag_481\n        /* \"#utility.yul\":8837:8844   */\n      dup8\n        /* \"#utility.yul\":8828:8834   */\n      dup3\n        /* \"#utility.yul\":8817:8826   */\n      dup9\n        /* \"#utility.yul\":8813:8835   */\n      add\n        /* \"#utility.yul\":8792:8845   */\n      tag_336\n      jump\t// in\n    tag_481:\n        /* \"#utility.yul\":8782:8845   */\n      swap5\n      pop\n        /* \"#utility.yul\":8738:8855   */\n      pop\n        /* \"#utility.yul\":8894:8896   */\n      0x20\n        /* \"#utility.yul\":8920:8983   */\n      tag_482\n        /* \"#utility.yul\":8975:8982   */\n      dup8\n        /* \"#utility.yul\":8966:8972   */\n      dup3\n        /* \"#utility.yul\":8955:8964   */\n      dup9\n        /* \"#utility.yul\":8951:8973   */\n      add\n        /* \"#utility.yul\":8920:8983   */\n      tag_314\n      jump\t// in\n    tag_482:\n        /* \"#utility.yul\":8910:8983   */\n      swap4\n      pop\n        /* \"#utility.yul\":8865:8993   */\n      pop\n        /* \"#utility.yul\":9032:9034   */\n      0x40\n        /* \"#utility.yul\":9058:9111   */\n      tag_483\n        /* \"#utility.yul\":9103:9110   */\n      dup8\n        /* \"#utility.yul\":9094:9100   */\n      dup3\n        /* \"#utility.yul\":9083:9092   */\n      dup9\n        /* \"#utility.yul\":9079:9101   */\n      add\n        /* \"#utility.yul\":9058:9111   */\n      tag_336\n      jump\t// in\n    tag_483:\n        /* \"#utility.yul\":9048:9111   */\n      swap3\n      pop\n        /* \"#utility.yul\":9003:9121   */\n      pop\n        /* \"#utility.yul\":9160:9162   */\n      0x60\n        /* \"#utility.yul\":9186:9261   */\n      tag_484\n        /* \"#utility.yul\":9253:9260   */\n      dup8\n        /* \"#utility.yul\":9244:9250   */\n      dup3\n        /* \"#utility.yul\":9233:9242   */\n      dup9\n        /* \"#utility.yul\":9229:9251   */\n      add\n        /* \"#utility.yul\":9186:9261   */\n      tag_323\n      jump\t// in\n    tag_484:\n        /* \"#utility.yul\":9176:9261   */\n      swap2\n      pop\n        /* \"#utility.yul\":9131:9271   */\n      pop\n        /* \"#utility.yul\":8449:9278   */\n      swap3\n      swap6\n      swap2\n      swap5\n      pop\n      swap3\n      pop\n      jump\t// out\n        /* \"#utility.yul\":9284:9464   */\n    tag_86:\n        /* \"#utility.yul\":9332:9409   */\n      0x4e487b7100000000000000000000000000000000000000000000000000000000\n        /* \"#utility.yul\":9329:9330   */\n      0x00\n        /* \"#utility.yul\":9322:9410   */\n      mstore\n        /* \"#utility.yul\":9429:9433   */\n      0x32\n        /* \"#utility.yul\":9426:9427   */\n      0x04\n        /* \"#utility.yul\":9419:9434   */\n      mstore\n        /* \"#utility.yul\":9453:9457   */\n      0x24\n        /* \"#utility.yul\":9450:9451   */\n      0x00\n        /* \"#utility.yul\":9443:9458   */\n      revert\n        /* \"#utility.yul\":9470:9584   */\n    tag_337:\n        /* \"#utility.yul\":9537:9543   */\n      0x00\n        /* \"#utility.yul\":9571:9576   */\n      dup2\n        /* \"#utility.yul\":9565:9577   */\n      mload\n        /* \"#utility.yul\":9555:9577   */\n      swap1\n      pop\n        /* \"#utility.yul\":9470:9584   */\n      swap2\n      swap1\n      pop\n      jump\t// out\n        /* \"#utility.yul\":9590:9774   */\n    tag_338:\n        /* \"#utility.yul\":9689:9700   */\n      0x00\n        /* \"#utility.yul\":9723:9729   */\n      dup3\n        /* \"#utility.yul\":9718:9721   */\n      dup3\n        /* \"#utility.yul\":9711:9730   */\n      mstore\n        /* \"#utility.yul\":9763:9767   */\n      0x20\n        /* \"#utility.yul\":9758:9761   */\n      dup3\n        /* \"#utility.yul\":9754:9768   */\n      add\n        /* \"#utility.yul\":9739:9768   */\n      swap1\n      pop\n        /* \"#utility.yul\":9590:9774   */\n      swap3\n      swap2\n      pop\n      pop\n      jump\t// out\n        /* \"#utility.yul\":9780:9912   */\n    tag_339:\n        /* \"#utility.yul\":9847:9851   */\n      0x00\n        /* \"#utility.yul\":9870:9873   */\n      dup2\n        /* \"#utility.yul\":9862:9873   */\n      swap1\n      pop\n        /* \"#utility.yul\":9900:9904   */\n      0x20\n        /* \"#utility.yul\":9895:9898   */\n      dup3\n        /* \"#utility.yul\":9891:9905   */\n      add\n        /* \"#utility.yul\":9883:9905   */\n      swap1\n      pop\n        /* \"#utility.yul\":9780:9912   */\n      swap2\n      swap1\n      pop\n      jump\t// out\n        /* \"#utility.yul\":9918:10026   */\n    tag_340:\n        /* \"#utility.yul\":9995:10019   */\n      tag_490\n        /* \"#utility.yul\":10013:10018   */\n      dup2\n        /* \"#utility.yul\":9995:10019   */\n      tag_307\n      jump\t// in\n    tag_490:\n        /* \"#utility.yul\":9990:9993   */\n      dup3\n        /* \"#utility.yul\":9983:10020   */\n      mstore\n        /* \"#utility.yul\":9918:10026   */\n      pop\n      pop\n      jump\t// out\n        /* \"#utility.yul\":10032:10211   */\n    tag_341:\n        /* \"#utility.yul\":10101:10111   */\n      0x00\n        /* \"#utility.yul\":10122:10168   */\n      tag_492\n        /* \"#utility.yul\":10164:10167   */\n      dup4\n        /* \"#utility.yul\":10156:10162   */\n      dup4\n        /* \"#utility.yul\":10122:10168   */\n      tag_340\n      jump\t// in\n    tag_492:\n        /* \"#utility.yul\":10200:10204   */\n      0x20\n        /* \"#utility.yul\":10195:10198   */\n      dup4\n        /* \"#utility.yul\":10191:10205   */\n      add\n        /* \"#utility.yul\":10177:10205   */\n      swap1\n      pop\n        /* \"#utility.yul\":10032:10211   */\n      swap3\n      swap2\n      pop\n      pop\n      jump\t// out\n        /* \"#utility.yul\":10217:10330   */\n    tag_342:\n        /* \"#utility.yul\":10287:10291   */\n      0x00\n        /* \"#utility.yul\":10319:10323   */\n      0x20\n        /* \"#utility.yul\":10314:10317   */\n      dup3\n        /* \"#utility.yul\":10310:10324   */\n      add\n        /* \"#utility.yul\":10302:10324   */\n      swap1\n      pop\n        /* \"#utility.yul\":10217:10330   */\n      swap2\n      swap1\n      pop\n      jump\t// out\n        /* \"#utility.yul\":10366:11098   */\n    tag_343:\n        /* \"#utility.yul\":10485:10488   */\n      0x00\n        /* \"#utility.yul\":10514:10568   */\n      tag_495\n        /* \"#utility.yul\":10562:10567   */\n      dup3\n        /* \"#utility.yul\":10514:10568   */\n      tag_337\n      jump\t// in\n    tag_495:\n        /* \"#utility.yul\":10584:10670   */\n      tag_496\n        /* \"#utility.yul\":10663:10669   */\n      dup2\n        /* \"#utility.yul\":10658:10661   */\n      dup6\n        /* \"#utility.yul\":10584:10670   */\n      tag_338\n      jump\t// in\n    tag_496:\n        /* \"#utility.yul\":10577:10670   */\n      swap4\n      pop\n        /* \"#utility.yul\":10694:10750   */\n      tag_497\n        /* \"#utility.yul\":10744:10749   */\n      dup4\n        /* \"#utility.yul\":10694:10750   */\n      tag_339\n      jump\t// in\n    tag_497:\n        /* \"#utility.yul\":10773:10780   */\n      dup1\n        /* \"#utility.yul\":10804:10805   */\n      0x00\n        /* \"#utility.yul\":10789:11073   */\n    tag_498:\n        /* \"#utility.yul\":10814:10820   */\n      dup4\n        /* \"#utility.yul\":10811:10812   */\n      dup2\n        /* \"#utility.yul\":10808:10821   */\n      lt\n        /* \"#utility.yul\":10789:11073   */\n      iszero\n      tag_500\n      jumpi\n        /* \"#utility.yul\":10890:10896   */\n      dup2\n        /* \"#utility.yul\":10884:10897   */\n      mload\n        /* \"#utility.yul\":10917:10980   */\n      tag_501\n        /* \"#utility.yul\":10976:10979   */\n      dup9\n        /* \"#utility.yul\":10961:10974   */\n      dup3\n        /* \"#utility.yul\":10917:10980   */\n      tag_341\n      jump\t// in\n    tag_501:\n        /* \"#utility.yul\":10910:10980   */\n      swap8\n      pop\n        /* \"#utility.yul\":11003:11063   */\n      tag_502\n        /* \"#utility.yul\":11056:11062   */\n      dup4\n        /* \"#utility.yul\":11003:11063   */\n      tag_342\n      jump\t// in\n    tag_502:\n        /* \"#utility.yul\":10993:11063   */\n      swap3\n      pop\n        /* \"#utility.yul\":10849:11073   */\n      pop\n        /* \"#utility.yul\":10836:10837   */\n      0x01\n        /* \"#utility.yul\":10833:10834   */\n      dup2\n        /* \"#utility.yul\":10829:10838   */\n      add\n        /* \"#utility.yul\":10824:10838   */\n      swap1\n      pop\n        /* \"#utility.yul\":10789:11073   */\n      jump(tag_498)\n    tag_500:\n        /* \"#utility.yul\":10793:10807   */\n      pop\n        /* \"#utility.yul\":11089:11092   */\n      dup6\n        /* \"#utility.yul\":11082:11092   */\n      swap4\n      pop\n        /* \"#utility.yul\":10490:11098   */\n      pop\n      pop\n      pop\n        /* \"#utility.yul\":10366:11098   */\n      swap3\n      swap2\n      pop\n      pop\n      jump\t// out\n        /* \"#utility.yul\":11104:11587   */\n    tag_92:\n        /* \"#utility.yul\":11275:11279   */\n      0x00\n        /* \"#utility.yul\":11313:11315   */\n      0x40\n        /* \"#utility.yul\":11302:11311   */\n      dup3\n        /* \"#utility.yul\":11298:11316   */\n      add\n        /* \"#utility.yul\":11290:11316   */\n      swap1\n      pop\n        /* \"#utility.yul\":11326:11397   */\n      tag_504\n        /* \"#utility.yul\":11394:11395   */\n      0x00\n        /* \"#utility.yul\":11383:11392   */\n      dup4\n        /* \"#utility.yul\":11379:11396   */\n      add\n        /* \"#utility.yul\":11370:11376   */\n      dup6\n        /* \"#utility.yul\":11326:11397   */\n      tag_311\n      jump\t// in\n    tag_504:\n        /* \"#utility.yul\":11444:11453   */\n      dup2\n        /* \"#utility.yul\":11438:11442   */\n      dup2\n        /* \"#utility.yul\":11434:11454   */\n      sub\n        /* \"#utility.yul\":11429:11431   */\n      0x20\n        /* \"#utility.yul\":11418:11427   */\n      dup4\n        /* \"#utility.yul\":11414:11432   */\n      add\n        /* \"#utility.yul\":11407:11455   */\n      mstore\n        /* \"#utility.yul\":11472:11580   */\n      tag_505\n        /* \"#utility.yul\":11575:11579   */\n      dup2\n        /* \"#utility.yul\":11566:11572   */\n      dup5\n        /* \"#utility.yul\":11472:11580   */\n      tag_343\n      jump\t// in\n    tag_505:\n        /* \"#utility.yul\":11464:11580   */\n      swap1\n      pop\n        /* \"#utility.yul\":11104:11587   */\n      swap4\n      swap3\n      pop\n      pop\n      pop\n      jump\t// out\n        /* \"#utility.yul\":11593:11904   */\n    tag_344:\n        /* \"#utility.yul\":11670:11674   */\n      0x00\n        /* \"#utility.yul\":11760:11778   */\n      0xffffffffffffffff\n        /* \"#utility.yul\":11752:11758   */\n      dup3\n        /* \"#utility.yul\":11749:11779   */\n      gt\n        /* \"#utility.yul\":11746:11802   */\n      iszero\n      tag_507\n      jumpi\n        /* \"#utility.yul\":11782:11800   */\n      tag_508\n      tag_82\n      jump\t// in\n    tag_508:\n        /* \"#utility.yul\":11746:11802   */\n    tag_507:\n        /* \"#utility.yul\":11832:11836   */\n      0x20\n        /* \"#utility.yul\":11824:11830   */\n      dup3\n        /* \"#utility.yul\":11820:11837   */\n      mul\n        /* \"#utility.yul\":11812:11837   */\n      swap1\n      pop\n        /* \"#utility.yul\":11892:11896   */\n      0x20\n        /* \"#utility.yul\":11886:11890   */\n      dup2\n        /* \"#utility.yul\":11882:11897   */\n      add\n        /* \"#utility.yul\":11874:11897   */\n      swap1\n      pop\n        /* \"#utility.yul\":11593:11904   */\n      swap2\n      swap1\n      pop\n      jump\t// out\n        /* \"#utility.yul\":11910:12053   */\n    tag_345:\n        /* \"#utility.yul\":11967:11972   */\n      0x00\n        /* \"#utility.yul\":11998:12004   */\n      dup2\n        /* \"#utility.yul\":11992:12005   */\n      mload\n        /* \"#utility.yul\":11983:12005   */\n      swap1\n      pop\n        /* \"#utility.yul\":12014:12047   */\n      tag_510\n        /* \"#utility.yul\":12041:12046   */\n      dup2\n        /* \"#utility.yul\":12014:12047   */\n      tag_335\n      jump\t// in\n    tag_510:\n        /* \"#utility.yul\":11910:12053   */\n      swap3\n      swap2\n      pop\n      pop\n      jump\t// out\n        /* \"#utility.yul\":12076:12808   */\n    tag_346:\n        /* \"#utility.yul\":12183:12188   */\n      0x00\n        /* \"#utility.yul\":12208:12289   */\n      tag_512\n        /* \"#utility.yul\":12224:12288   */\n      tag_513\n        /* \"#utility.yul\":12281:12287   */\n      dup5\n        /* \"#utility.yul\":12224:12288   */\n      tag_344\n      jump\t// in\n    tag_513:\n        /* \"#utility.yul\":12208:12289   */\n      tag_327\n      jump\t// in\n    tag_512:\n        /* \"#utility.yul\":12199:12289   */\n      swap1\n      pop\n        /* \"#utility.yul\":12309:12314   */\n      dup1\n        /* \"#utility.yul\":12338:12344   */\n      dup4\n        /* \"#utility.yul\":12331:12336   */\n      dup3\n        /* \"#utility.yul\":12324:12345   */\n      mstore\n        /* \"#utility.yul\":12372:12376   */\n      0x20\n        /* \"#utility.yul\":12365:12370   */\n      dup3\n        /* \"#utility.yul\":12361:12377   */\n      add\n        /* \"#utility.yul\":12354:12377   */\n      swap1\n      pop\n        /* \"#utility.yul\":12425:12429   */\n      0x20\n        /* \"#utility.yul\":12417:12423   */\n      dup5\n        /* \"#utility.yul\":12413:12430   */\n      mul\n        /* \"#utility.yul\":12405:12411   */\n      dup4\n        /* \"#utility.yul\":12401:12431   */\n      add\n        /* \"#utility.yul\":12454:12457   */\n      dup6\n        /* \"#utility.yul\":12446:12452   */\n      dup2\n        /* \"#utility.yul\":12443:12458   */\n      gt\n        /* \"#utility.yul\":12440:12562   */\n      iszero\n      tag_514\n      jumpi\n        /* \"#utility.yul\":12473:12552   */\n      tag_515\n      tag_329\n      jump\t// in\n    tag_515:\n        /* \"#utility.yul\":12440:12562   */\n    tag_514:\n        /* \"#utility.yul\":12588:12594   */\n      dup4\n        /* \"#utility.yul\":12571:12802   */\n    tag_516:\n        /* \"#utility.yul\":12605:12611   */\n      dup2\n        /* \"#utility.yul\":12600:12603   */\n      dup2\n        /* \"#utility.yul\":12597:12612   */\n      lt\n        /* \"#utility.yul\":12571:12802   */\n      iszero\n      tag_518\n      jumpi\n        /* \"#utility.yul\":12680:12683   */\n      dup1\n        /* \"#utility.yul\":12709:12757   */\n      tag_519\n        /* \"#utility.yul\":12753:12756   */\n      dup9\n        /* \"#utility.yul\":12741:12751   */\n      dup3\n        /* \"#utility.yul\":12709:12757   */\n      tag_345\n      jump\t// in\n    tag_519:\n        /* \"#utility.yul\":12704:12707   */\n      dup5\n        /* \"#utility.yul\":12697:12758   */\n      mstore\n        /* \"#utility.yul\":12787:12791   */\n      0x20\n        /* \"#utility.yul\":12782:12785   */\n      dup5\n        /* \"#utility.yul\":12778:12792   */\n      add\n        /* \"#utility.yul\":12771:12792   */\n      swap4\n      pop\n        /* \"#utility.yul\":12647:12802   */\n      pop\n        /* \"#utility.yul\":12631:12635   */\n      0x20\n        /* \"#utility.yul\":12626:12629   */\n      dup2\n        /* \"#utility.yul\":12622:12636   */\n      add\n        /* \"#utility.yul\":12615:12636   */\n      swap1\n      pop\n        /* \"#utility.yul\":12571:12802   */\n      jump(tag_516)\n    tag_518:\n        /* \"#utility.yul\":12575:12596   */\n      pop\n        /* \"#utility.yul\":12189:12808   */\n      pop\n      pop\n        /* \"#utility.yul\":12076:12808   */\n      swap4\n      swap3\n      pop\n      pop\n      pop\n      jump\t// out\n        /* \"#utility.yul\":12831:13216   */\n    tag_347:\n        /* \"#utility.yul\":12913:12918   */\n      0x00\n        /* \"#utility.yul\":12962:12965   */\n      dup3\n        /* \"#utility.yul\":12955:12959   */\n      0x1f\n        /* \"#utility.yul\":12947:12953   */\n      dup4\n        /* \"#utility.yul\":12943:12960   */\n      add\n        /* \"#utility.yul\":12939:12966   */\n      slt\n        /* \"#utility.yul\":12929:13051   */\n      tag_521\n      jumpi\n        /* \"#utility.yul\":12970:13049   */\n      tag_522\n      tag_324\n      jump\t// in\n    tag_522:\n        /* \"#utility.yul\":12929:13051   */\n    tag_521:\n        /* \"#utility.yul\":13080:13086   */\n      dup2\n        /* \"#utility.yul\":13074:13087   */\n      mload\n        /* \"#utility.yul\":13105:13210   */\n      tag_523\n        /* \"#utility.yul\":13206:13209   */\n      dup5\n        /* \"#utility.yul\":13198:13204   */\n      dup3\n        /* \"#utility.yul\":13191:13195   */\n      0x20\n        /* \"#utility.yul\":13183:13189   */\n      dup7\n        /* \"#utility.yul\":13179:13196   */\n      add\n        /* \"#utility.yul\":13105:13210   */\n      tag_346\n      jump\t// in\n    tag_523:\n        /* \"#utility.yul\":13096:13210   */\n      swap2\n      pop\n        /* \"#utility.yul\":12919:13216   */\n      pop\n        /* \"#utility.yul\":12831:13216   */\n      swap3\n      swap2\n      pop\n      pop\n      jump\t// out\n        /* \"#utility.yul\":13222:13776   */\n    tag_96:\n        /* \"#utility.yul\":13317:13323   */\n      0x00\n        /* \"#utility.yul\":13366:13368   */\n      0x20\n        /* \"#utility.yul\":13354:13363   */\n      dup3\n        /* \"#utility.yul\":13345:13352   */\n      dup5\n        /* \"#utility.yul\":13341:13364   */\n      sub\n        /* \"#utility.yul\":13337:13369   */\n      slt\n        /* \"#utility.yul\":13334:13453   */\n      iszero\n      tag_525\n      jumpi\n        /* \"#utility.yul\":13372:13451   */\n      tag_526\n      tag_304\n      jump\t// in\n    tag_526:\n        /* \"#utility.yul\":13334:13453   */\n    tag_525:\n        /* \"#utility.yul\":13513:13514   */\n      0x00\n        /* \"#utility.yul\":13502:13511   */\n      dup3\n        /* \"#utility.yul\":13498:13515   */\n      add\n        /* \"#utility.yul\":13492:13516   */\n      mload\n        /* \"#utility.yul\":13543:13561   */\n      0xffffffffffffffff\n        /* \"#utility.yul\":13535:13541   */\n      dup2\n        /* \"#utility.yul\":13532:13562   */\n      gt\n        /* \"#utility.yul\":13529:13646   */\n      iszero\n      tag_527\n      jumpi\n        /* \"#utility.yul\":13565:13644   */\n      tag_528\n      tag_305\n      jump\t// in\n    tag_528:\n        /* \"#utility.yul\":13529:13646   */\n    tag_527:\n        /* \"#utility.yul\":13670:13759   */\n      tag_529\n        /* \"#utility.yul\":13751:13758   */\n      dup5\n        /* \"#utility.yul\":13742:13748   */\n      dup3\n        /* \"#utility.yul\":13731:13740   */\n      dup6\n        /* \"#utility.yul\":13727:13749   */\n      add\n        /* \"#utility.yul\":13670:13759   */\n      tag_347\n      jump\t// in\n    tag_529:\n        /* \"#utility.yul\":13660:13759   */\n      swap2\n      pop\n        /* \"#utility.yul\":13463:13769   */\n      pop\n        /* \"#utility.yul\":13222:13776   */\n      swap3\n      swap2\n      pop\n      pop\n      jump\t// out\n        /* \"#utility.yul\":13782:13892   */\n    tag_348:\n        /* \"#utility.yul\":13833:13840   */\n      0x00\n        /* \"#utility.yul\":13862:13886   */\n      tag_531\n        /* \"#utility.yul\":13880:13885   */\n      dup3\n        /* \"#utility.yul\":13862:13886   */\n      tag_307\n      jump\t// in\n    tag_531:\n        /* \"#utility.yul\":13851:13886   */\n      swap1\n      pop\n        /* \"#utility.yul\":13782:13892   */\n      swap2\n      swap1\n      pop\n      jump\t// out\n        /* \"#utility.yul\":13898:14048   */\n    tag_349:\n        /* \"#utility.yul\":13985:14023   */\n      tag_533\n        /* \"#utility.yul\":14017:14022   */\n      dup2\n        /* \"#utility.yul\":13985:14023   */\n      tag_348\n      jump\t// in\n    tag_533:\n        /* \"#utility.yul\":13978:13983   */\n      dup2\n        /* \"#utility.yul\":13975:14024   */\n      eq\n        /* \"#utility.yul\":13965:14042   */\n      tag_534\n      jumpi\n        /* \"#utility.yul\":14038:14039   */\n      0x00\n        /* \"#utility.yul\":14035:14036   */\n      dup1\n        /* \"#utility.yul\":14028:14040   */\n      revert\n        /* \"#utility.yul\":13965:14042   */\n    tag_534:\n        /* \"#utility.yul\":13898:14048   */\n      pop\n      jump\t// out\n        /* \"#utility.yul\":14054:14225   */\n    tag_350:\n        /* \"#utility.yul\":14125:14130   */\n      0x00\n        /* \"#utility.yul\":14156:14162   */\n      dup2\n        /* \"#utility.yul\":14150:14163   */\n      mload\n        /* \"#utility.yul\":14141:14163   */\n      swap1\n      pop\n        /* \"#utility.yul\":14172:14219   */\n      tag_536\n        /* \"#utility.yul\":14213:14218   */\n      dup2\n        /* \"#utility.yul\":14172:14219   */\n      tag_349\n      jump\t// in\n    tag_536:\n        /* \"#utility.yul\":14054:14225   */\n      swap3\n      swap2\n      pop\n      pop\n      jump\t// out\n        /* \"#utility.yul\":14231:14610   */\n    tag_103:\n        /* \"#utility.yul\":14315:14321   */\n      0x00\n        /* \"#utility.yul\":14364:14366   */\n      0x20\n        /* \"#utility.yul\":14352:14361   */\n      dup3\n        /* \"#utility.yul\":14343:14350   */\n      dup5\n        /* \"#utility.yul\":14339:14362   */\n      sub\n        /* \"#utility.yul\":14335:14367   */\n      slt\n        /* \"#utility.yul\":14332:14451   */\n      iszero\n      tag_538\n      jumpi\n        /* \"#utility.yul\":14370:14449   */\n      tag_539\n      tag_304\n      jump\t// in\n    tag_539:\n        /* \"#utility.yul\":14332:14451   */\n    tag_538:\n        /* \"#utility.yul\":14490:14491   */\n      0x00\n        /* \"#utility.yul\":14515:14593   */\n      tag_540\n        /* \"#utility.yul\":14585:14592   */\n      dup5\n        /* \"#utility.yul\":14576:14582   */\n      dup3\n        /* \"#utility.yul\":14565:14574   */\n      dup6\n        /* \"#utility.yul\":14561:14583   */\n      add\n        /* \"#utility.yul\":14515:14593   */\n      tag_350\n      jump\t// in\n    tag_540:\n        /* \"#utility.yul\":14505:14593   */\n      swap2\n      pop\n        /* \"#utility.yul\":14461:14603   */\n      pop\n        /* \"#utility.yul\":14231:14610   */\n      swap3\n      swap2\n      pop\n      pop\n      jump\t// out\n        /* \"#utility.yul\":14616:14967   */\n    tag_117:\n        /* \"#utility.yul\":14686:14692   */\n      0x00\n        /* \"#utility.yul\":14735:14737   */\n      0x20\n        /* \"#utility.yul\":14723:14732   */\n      dup3\n        /* \"#utility.yul\":14714:14721   */\n      dup5\n        /* \"#utility.yul\":14710:14733   */\n      sub\n        /* \"#utility.yul\":14706:14738   */\n      slt\n        /* \"#utility.yul\":14703:14822   */\n      iszero\n      tag_542\n      jumpi\n        /* \"#utility.yul\":14741:14820   */\n      tag_543\n      tag_304\n      jump\t// in\n    tag_543:\n        /* \"#utility.yul\":14703:14822   */\n    tag_542:\n        /* \"#utility.yul\":14861:14862   */\n      0x00\n        /* \"#utility.yul\":14886:14950   */\n      tag_544\n        /* \"#utility.yul\":14942:14949   */\n      dup5\n        /* \"#utility.yul\":14933:14939   */\n      dup3\n        /* \"#utility.yul\":14922:14931   */\n      dup6\n        /* \"#utility.yul\":14918:14940   */\n      add\n        /* \"#utility.yul\":14886:14950   */\n      tag_345\n      jump\t// in\n    tag_544:\n        /* \"#utility.yul\":14876:14950   */\n      swap2\n      pop\n        /* \"#utility.yul\":14832:14960   */\n      pop\n        /* \"#utility.yul\":14616:14967   */\n      swap3\n      swap2\n      pop\n      pop\n      jump\t// out\n        /* \"#utility.yul\":14973:15153   */\n    tag_351:\n        /* \"#utility.yul\":15021:15098   */\n      0x4e487b7100000000000000000000000000000000000000000000000000000000\n        /* \"#utility.yul\":15018:15019   */\n      0x00\n        /* \"#utility.yul\":15011:15099   */\n      mstore\n        /* \"#utility.yul\":15118:15122   */\n      0x11\n        /* \"#utility.yul\":15115:15116   */\n      0x04\n        /* \"#utility.yul\":15108:15123   */\n      mstore\n        /* \"#utility.yul\":15142:15146   */\n      0x24\n        /* \"#utility.yul\":15139:15140   */\n      0x00\n        /* \"#utility.yul\":15132:15147   */\n      revert\n        /* \"#utility.yul\":15159:15464   */\n    tag_202:\n        /* \"#utility.yul\":15199:15202   */\n      0x00\n        /* \"#utility.yul\":15218:15238   */\n      tag_547\n        /* \"#utility.yul\":15236:15237   */\n      dup3\n        /* \"#utility.yul\":15218:15238   */\n      tag_310\n      jump\t// in\n    tag_547:\n        /* \"#utility.yul\":15213:15238   */\n      swap2\n      pop\n        /* \"#utility.yul\":15252:15272   */\n      tag_548\n        /* \"#utility.yul\":15270:15271   */\n      dup4\n        /* \"#utility.yul\":15252:15272   */\n      tag_310\n      jump\t// in\n    tag_548:\n        /* \"#utility.yul\":15247:15272   */\n      swap3\n      pop\n        /* \"#utility.yul\":15406:15407   */\n      dup3\n        /* \"#utility.yul\":15338:15404   */\n      0xffffffffffffffffffffffffffffffffffffffffffffffffffffffffffffffff\n        /* \"#utility.yul\":15334:15408   */\n      sub\n        /* \"#utility.yul\":15331:15332   */\n      dup3\n        /* \"#utility.yul\":15328:15409   */\n      gt\n        /* \"#utility.yul\":15325:15432   */\n      iszero\n      tag_549\n      jumpi\n        /* \"#utility.yul\":15412:15430   */\n      tag_550\n      tag_351\n      jump\t// in\n    tag_550:\n        /* \"#utility.yul\":15325:15432   */\n    tag_549:\n        /* \"#utility.yul\":15456:15457   */\n      dup3\n        /* \"#utility.yul\":15453:15454   */\n      dup3\n        /* \"#utility.yul\":15449:15458   */\n      add\n        /* \"#utility.yul\":15442:15458   */\n      swap1\n      pop\n        /* \"#utility.yul\":15159:15464   */\n      swap3\n      swap2\n      pop\n      pop\n      jump\t// out\n        /* \"#utility.yul\":15470:15703   */\n    tag_209:\n        /* \"#utility.yul\":15509:15512   */\n      0x00\n        /* \"#utility.yul\":15532:15556   */\n      tag_552\n        /* \"#utility.yul\":15550:15555   */\n      dup3\n        /* \"#utility.yul\":15532:15556   */\n      tag_310\n      jump\t// in\n    tag_552:\n        /* \"#utility.yul\":15523:15556   */\n      swap2\n      pop\n        /* \"#utility.yul\":15578:15644   */\n      0xffffffffffffffffffffffffffffffffffffffffffffffffffffffffffffffff\n        /* \"#utility.yul\":15571:15576   */\n      dup3\n        /* \"#utility.yul\":15568:15645   */\n      sub\n        /* \"#utility.yul\":15565:15668   */\n      tag_553\n      jumpi\n        /* \"#utility.yul\":15648:15666   */\n      tag_554\n      tag_351\n      jump\t// in\n    tag_554:\n        /* \"#utility.yul\":15565:15668   */\n    tag_553:\n        /* \"#utility.yul\":15695:15696   */\n      0x01\n        /* \"#utility.yul\":15688:15693   */\n      dup3\n        /* \"#utility.yul\":15684:15697   */\n      add\n        /* \"#utility.yul\":15677:15697   */\n      swap1\n      pop\n        /* \"#utility.yul\":15470:15703   */\n      swap2\n      swap1\n      pop\n      jump\t// out\n        /* \"#utility.yul\":15709:15878   */\n    tag_352:\n        /* \"#utility.yul\":15793:15804   */\n      0x00\n        /* \"#utility.yul\":15827:15833   */\n      dup3\n        /* \"#utility.yul\":15822:15825   */\n      dup3\n        /* \"#utility.yul\":15815:15834   */\n      mstore\n        /* \"#utility.yul\":15867:15871   */\n      0x20\n        /* \"#utility.yul\":15862:15865   */\n      dup3\n        /* \"#utility.yul\":15858:15872   */\n      add\n        /* \"#utility.yul\":15843:15872   */\n      swap1\n      pop\n        /* \"#utility.yul\":15709:15878   */\n      swap3\n      swap2\n      pop\n      pop\n      jump\t// out\n        /* \"#utility.yul\":15884:16066   */\n    tag_353:\n        /* \"#utility.yul\":16024:16058   */\n      0x4f776e61626c653a2063616c6c6572206973206e6f7420746865206f776e6572\n        /* \"#utility.yul\":16020:16021   */\n      0x00\n        /* \"#utility.yul\":16012:16018   */\n      dup3\n        /* \"#utility.yul\":16008:16022   */\n      add\n        /* \"#utility.yul\":16001:16059   */\n      mstore\n        /* \"#utility.yul\":15884:16066   */\n      pop\n      jump\t// out\n        /* \"#utility.yul\":16072:16438   */\n    tag_354:\n        /* \"#utility.yul\":16214:16217   */\n      0x00\n        /* \"#utility.yul\":16235:16302   */\n      tag_558\n        /* \"#utility.yul\":16299:16301   */\n      0x20\n        /* \"#utility.yul\":16294:16297   */\n      dup4\n        /* \"#utility.yul\":16235:16302   */\n      tag_352\n      jump\t// in\n    tag_558:\n        /* \"#utility.yul\":16228:16302   */\n      swap2\n      pop\n        /* \"#utility.yul\":16311:16404   */\n      tag_559\n        /* \"#utility.yul\":16400:16403   */\n      dup3\n        /* \"#utility.yul\":16311:16404   */\n      tag_353\n      jump\t// in\n    tag_559:\n        /* \"#utility.yul\":16429:16431   */\n      0x20\n        /* \"#utility.yul\":16424:16427   */\n      dup3\n        /* \"#utility.yul\":16420:16432   */\n      add\n        /* \"#utility.yul\":16413:16432   */\n      swap1\n      pop\n        /* \"#utility.yul\":16072:16438   */\n      swap2\n      swap1\n      pop\n      jump\t// out\n        /* \"#utility.yul\":16444:16863   */\n    tag_216:\n        /* \"#utility.yul\":16610:16614   */\n      0x00\n        /* \"#utility.yul\":16648:16650   */\n      0x20\n        /* \"#utility.yul\":16637:16646   */\n      dup3\n        /* \"#utility.yul\":16633:16651   */\n      add\n        /* \"#utility.yul\":16625:16651   */\n      swap1\n      pop\n        /* \"#utility.yul\":16697:16706   */\n      dup2\n        /* \"#utility.yul\":16691:16695   */\n      dup2\n        /* \"#utility.yul\":16687:16707   */\n      sub\n        /* \"#utility.yul\":16683:16684   */\n      0x00\n        /* \"#utility.yul\":16672:16681   */\n      dup4\n        /* \"#utility.yul\":16668:16685   */\n      add\n        /* \"#utility.yul\":16661:16708   */\n      mstore\n        /* \"#utility.yul\":16725:16856   */\n      tag_561\n        /* \"#utility.yul\":16851:16855   */\n      dup2\n        /* \"#utility.yul\":16725:16856   */\n      tag_354\n      jump\t// in\n    tag_561:\n        /* \"#utility.yul\":16717:16856   */\n      swap1\n      pop\n        /* \"#utility.yul\":16444:16863   */\n      swap2\n      swap1\n      pop\n      jump\t// out\n        /* \"#utility.yul\":16869:17217   */\n    tag_242:\n        /* \"#utility.yul\":16909:16916   */\n      0x00\n        /* \"#utility.yul\":16932:16952   */\n      tag_563\n        /* \"#utility.yul\":16950:16951   */\n      dup3\n        /* \"#utility.yul\":16932:16952   */\n      tag_310\n      jump\t// in\n    tag_563:\n        /* \"#utility.yul\":16927:16952   */\n      swap2\n      pop\n        /* \"#utility.yul\":16966:16986   */\n      tag_564\n        /* \"#utility.yul\":16984:16985   */\n      dup4\n        /* \"#utility.yul\":16966:16986   */\n      tag_310\n      jump\t// in\n    tag_564:\n        /* \"#utility.yul\":16961:16986   */\n      swap3\n      pop\n        /* \"#utility.yul\":17154:17155   */\n      dup2\n        /* \"#utility.yul\":17086:17152   */\n      0xffffffffffffffffffffffffffffffffffffffffffffffffffffffffffffffff\n        /* \"#utility.yul\":17082:17156   */\n      div\n        /* \"#utility.yul\":17079:17080   */\n      dup4\n        /* \"#utility.yul\":17076:17157   */\n      gt\n        /* \"#utility.yul\":17071:17072   */\n      dup3\n        /* \"#utility.yul\":17064:17073   */\n      iszero\n        /* \"#utility.yul\":17057:17074   */\n      iszero\n        /* \"#utility.yul\":17053:17158   */\n      and\n        /* \"#utility.yul\":17050:17181   */\n      iszero\n      tag_565\n      jumpi\n        /* \"#utility.yul\":17161:17179   */\n      tag_566\n      tag_351\n      jump\t// in\n    tag_566:\n        /* \"#utility.yul\":17050:17181   */\n    tag_565:\n        /* \"#utility.yul\":17209:17210   */\n      dup3\n        /* \"#utility.yul\":17206:17207   */\n      dup3\n        /* \"#utility.yul\":17202:17211   */\n      mul\n        /* \"#utility.yul\":17191:17211   */\n      swap1\n      pop\n        /* \"#utility.yul\":16869:17217   */\n      swap3\n      swap2\n      pop\n      pop\n      jump\t// out\n        /* \"#utility.yul\":17223:17340   */\n    tag_355:\n        /* \"#utility.yul\":17332:17333   */\n      0x00\n        /* \"#utility.yul\":17329:17330   */\n      dup1\n        /* \"#utility.yul\":17322:17334   */\n      revert\n        /* \"#utility.yul\":17469:17584   */\n    tag_357:\n        /* \"#utility.yul\":17525:17532   */\n      0x00\n        /* \"#utility.yul\":17554:17578   */\n      tag_570\n        /* \"#utility.yul\":17572:17577   */\n      dup3\n        /* \"#utility.yul\":17554:17578   */\n      tag_307\n      jump\t// in\n    tag_570:\n        /* \"#utility.yul\":17543:17578   */\n      swap1\n      pop\n        /* \"#utility.yul\":17469:17584   */\n      swap2\n      swap1\n      pop\n      jump\t// out\n        /* \"#utility.yul\":17590:17750   */\n    tag_358:\n        /* \"#utility.yul\":17682:17725   */\n      tag_572\n        /* \"#utility.yul\":17719:17724   */\n      dup2\n        /* \"#utility.yul\":17682:17725   */\n      tag_357\n      jump\t// in\n    tag_572:\n        /* \"#utility.yul\":17675:17680   */\n      dup2\n        /* \"#utility.yul\":17672:17726   */\n      eq\n        /* \"#utility.yul\":17662:17744   */\n      tag_573\n      jumpi\n        /* \"#utility.yul\":17740:17741   */\n      0x00\n        /* \"#utility.yul\":17737:17738   */\n      dup1\n        /* \"#utility.yul\":17730:17742   */\n      revert\n        /* \"#utility.yul\":17662:17744   */\n    tag_573:\n        /* \"#utility.yul\":17590:17750   */\n      pop\n      jump\t// out\n        /* \"#utility.yul\":17756:17937   */\n    tag_359:\n        /* \"#utility.yul\":17832:17837   */\n      0x00\n        /* \"#utility.yul\":17863:17869   */\n      dup2\n        /* \"#utility.yul\":17857:17870   */\n      mload\n        /* \"#utility.yul\":17848:17870   */\n      swap1\n      pop\n        /* \"#utility.yul\":17879:17931   */\n      tag_575\n        /* \"#utility.yul\":17925:17930   */\n      dup2\n        /* \"#utility.yul\":17879:17931   */\n      tag_358\n      jump\t// in\n    tag_575:\n        /* \"#utility.yul\":17756:17937   */\n      swap3\n      swap2\n      pop\n      pop\n      jump\t// out\n        /* \"#utility.yul\":17966:19357   */\n    tag_360:\n        /* \"#utility.yul\":18051:18056   */\n      0x00\n        /* \"#utility.yul\":18095:18099   */\n      0xc0\n        /* \"#utility.yul\":18083:18092   */\n      dup3\n        /* \"#utility.yul\":18078:18081   */\n      dup5\n        /* \"#utility.yul\":18074:18093   */\n      sub\n        /* \"#utility.yul\":18070:18100   */\n      slt\n        /* \"#utility.yul\":18067:18184   */\n      iszero\n      tag_577\n      jumpi\n        /* \"#utility.yul\":18103:18182   */\n      tag_578\n      tag_355\n      jump\t// in\n    tag_578:\n        /* \"#utility.yul\":18067:18184   */\n    tag_577:\n        /* \"#utility.yul\":18202:18223   */\n      tag_579\n        /* \"#utility.yul\":18218:18222   */\n      0xc0\n        /* \"#utility.yul\":18202:18223   */\n      tag_327\n      jump\t// in\n    tag_579:\n        /* \"#utility.yul\":18193:18223   */\n      swap1\n      pop\n        /* \"#utility.yul\":18285:18286   */\n      0x00\n        /* \"#utility.yul\":18325:18399   */\n      tag_580\n        /* \"#utility.yul\":18395:18398   */\n      dup5\n        /* \"#utility.yul\":18386:18392   */\n      dup3\n        /* \"#utility.yul\":18375:18384   */\n      dup6\n        /* \"#utility.yul\":18371:18393   */\n      add\n        /* \"#utility.yul\":18325:18399   */\n      tag_350\n      jump\t// in\n    tag_580:\n        /* \"#utility.yul\":18318:18322   */\n      0x00\n        /* \"#utility.yul\":18311:18316   */\n      dup4\n        /* \"#utility.yul\":18307:18323   */\n      add\n        /* \"#utility.yul\":18300:18400   */\n      mstore\n        /* \"#utility.yul\":18233:18411   */\n      pop\n        /* \"#utility.yul\":18476:18478   */\n      0x20\n        /* \"#utility.yul\":18517:18577   */\n      tag_581\n        /* \"#utility.yul\":18573:18576   */\n      dup5\n        /* \"#utility.yul\":18564:18570   */\n      dup3\n        /* \"#utility.yul\":18553:18562   */\n      dup6\n        /* \"#utility.yul\":18549:18571   */\n      add\n        /* \"#utility.yul\":18517:18577   */\n      tag_345\n      jump\t// in\n    tag_581:\n        /* \"#utility.yul\":18510:18514   */\n      0x20\n        /* \"#utility.yul\":18503:18508   */\n      dup4\n        /* \"#utility.yul\":18499:18515   */\n      add\n        /* \"#utility.yul\":18492:18578   */\n      mstore\n        /* \"#utility.yul\":18421:18589   */\n      pop\n        /* \"#utility.yul\":18659:18661   */\n      0x40\n        /* \"#utility.yul\":18700:18760   */\n      tag_582\n        /* \"#utility.yul\":18756:18759   */\n      dup5\n        /* \"#utility.yul\":18747:18753   */\n      dup3\n        /* \"#utility.yul\":18736:18745   */\n      dup6\n        /* \"#utility.yul\":18732:18754   */\n      add\n        /* \"#utility.yul\":18700:18760   */\n      tag_345\n      jump\t// in\n    tag_582:\n        /* \"#utility.yul\":18693:18697   */\n      0x40\n        /* \"#utility.yul\":18686:18691   */\n      dup4\n        /* \"#utility.yul\":18682:18698   */\n      add\n        /* \"#utility.yul\":18675:18761   */\n      mstore\n        /* \"#utility.yul\":18599:18772   */\n      pop\n        /* \"#utility.yul\":18841:18843   */\n      0x60\n        /* \"#utility.yul\":18882:18942   */\n      tag_583\n        /* \"#utility.yul\":18938:18941   */\n      dup5\n        /* \"#utility.yul\":18929:18935   */\n      dup3\n        /* \"#utility.yul\":18918:18927   */\n      dup6\n        /* \"#utility.yul\":18914:18936   */\n      add\n        /* \"#utility.yul\":18882:18942   */\n      tag_345\n      jump\t// in\n    tag_583:\n        /* \"#utility.yul\":18875:18879   */\n      0x60\n        /* \"#utility.yul\":18868:18873   */\n      dup4\n        /* \"#utility.yul\":18864:18880   */\n      add\n        /* \"#utility.yul\":18857:18943   */\n      mstore\n        /* \"#utility.yul\":18782:18954   */\n      pop\n        /* \"#utility.yul\":19023:19026   */\n      0x80\n        /* \"#utility.yul\":19065:19144   */\n      tag_584\n        /* \"#utility.yul\":19140:19143   */\n      dup5\n        /* \"#utility.yul\":19131:19137   */\n      dup3\n        /* \"#utility.yul\":19120:19129   */\n      dup6\n        /* \"#utility.yul\":19116:19138   */\n      add\n        /* \"#utility.yul\":19065:19144   */\n      tag_359\n      jump\t// in\n    tag_584:\n        /* \"#utility.yul\":19058:19062   */\n      0x80\n        /* \"#utility.yul\":19051:19056   */\n      dup4\n        /* \"#utility.yul\":19047:19063   */\n      add\n        /* \"#utility.yul\":19040:19145   */\n      mstore\n        /* \"#utility.yul\":18964:19156   */\n      pop\n        /* \"#utility.yul\":19222:19225   */\n      0xa0\n        /* \"#utility.yul\":19264:19338   */\n      tag_585\n        /* \"#utility.yul\":19334:19337   */\n      dup5\n        /* \"#utility.yul\":19325:19331   */\n      dup3\n        /* \"#utility.yul\":19314:19323   */\n      dup6\n        /* \"#utility.yul\":19310:19332   */\n      add\n        /* \"#utility.yul\":19264:19338   */\n      tag_350\n      jump\t// in\n    tag_585:\n        /* \"#utility.yul\":19257:19261   */\n      0xa0\n        /* \"#utility.yul\":19250:19255   */\n      dup4\n        /* \"#utility.yul\":19246:19262   */\n      add\n        /* \"#utility.yul\":19239:19339   */\n      mstore\n        /* \"#utility.yul\":19166:19350   */\n      pop\n        /* \"#utility.yul\":17966:19357   */\n      swap3\n      swap2\n      pop\n      pop\n      jump\t// out\n        /* \"#utility.yul\":19363:19765   */\n    tag_248:\n        /* \"#utility.yul\":19458:19464   */\n      0x00\n        /* \"#utility.yul\":19507:19510   */\n      0xc0\n        /* \"#utility.yul\":19495:19504   */\n      dup3\n        /* \"#utility.yul\":19486:19493   */\n      dup5\n        /* \"#utility.yul\":19482:19505   */\n      sub\n        /* \"#utility.yul\":19478:19511   */\n      slt\n        /* \"#utility.yul\":19475:19595   */\n      iszero\n      tag_587\n      jumpi\n        /* \"#utility.yul\":19514:19593   */\n      tag_588\n      tag_304\n      jump\t// in\n    tag_588:\n        /* \"#utility.yul\":19475:19595   */\n    tag_587:\n        /* \"#utility.yul\":19634:19635   */\n      0x00\n        /* \"#utility.yul\":19659:19748   */\n      tag_589\n        /* \"#utility.yul\":19740:19747   */\n      dup5\n        /* \"#utility.yul\":19731:19737   */\n      dup3\n        /* \"#utility.yul\":19720:19729   */\n      dup6\n        /* \"#utility.yul\":19716:19738   */\n      add\n        /* \"#utility.yul\":19659:19748   */\n      tag_360\n      jump\t// in\n    tag_589:\n        /* \"#utility.yul\":19649:19748   */\n      swap2\n      pop\n        /* \"#utility.yul\":19605:19758   */\n      pop\n        /* \"#utility.yul\":19363:19765   */\n      swap3\n      swap2\n      pop\n      pop\n      jump\t// out\n        /* \"#utility.yul\":19771:19914   */\n    tag_361:\n        /* \"#utility.yul\":19828:19833   */\n      0x00\n        /* \"#utility.yul\":19859:19865   */\n      dup2\n        /* \"#utility.yul\":19853:19866   */\n      mload\n        /* \"#utility.yul\":19844:19866   */\n      swap1\n      pop\n        /* \"#utility.yul\":19875:19908   */\n      tag_591\n        /* \"#utility.yul\":19902:19907   */\n      dup2\n        /* \"#utility.yul\":19875:19908   */\n      tag_308\n      jump\t// in\n    tag_591:\n        /* \"#utility.yul\":19771:19914   */\n      swap3\n      swap2\n      pop\n      pop\n      jump\t// out\n        /* \"#utility.yul\":19920:20271   */\n    tag_258:\n        /* \"#utility.yul\":19990:19996   */\n      0x00\n        /* \"#utility.yul\":20039:20041   */\n      0x20\n        /* \"#utility.yul\":20027:20036   */\n      dup3\n        /* \"#utility.yul\":20018:20025   */\n      dup5\n        /* \"#utility.yul\":20014:20037   */\n      sub\n        /* \"#utility.yul\":20010:20042   */\n      slt\n        /* \"#utility.yul\":20007:20126   */\n      iszero\n      tag_593\n      jumpi\n        /* \"#utility.yul\":20045:20124   */\n      tag_594\n      tag_304\n      jump\t// in\n    tag_594:\n        /* \"#utility.yul\":20007:20126   */\n    tag_593:\n        /* \"#utility.yul\":20165:20166   */\n      0x00\n        /* \"#utility.yul\":20190:20254   */\n      tag_595\n        /* \"#utility.yul\":20246:20253   */\n      dup5\n        /* \"#utility.yul\":20237:20243   */\n      dup3\n        /* \"#utility.yul\":20226:20235   */\n      dup6\n        /* \"#utility.yul\":20222:20244   */\n      add\n        /* \"#utility.yul\":20190:20254   */\n      tag_361\n      jump\t// in\n    tag_595:\n        /* \"#utility.yul\":20180:20254   */\n      swap2\n      pop\n        /* \"#utility.yul\":20136:20264   */\n      pop\n        /* \"#utility.yul\":19920:20271   */\n      swap3\n      swap2\n      pop\n      pop\n      jump\t// out\n        /* \"#utility.yul\":20277:20502   */\n    tag_362:\n        /* \"#utility.yul\":20417:20451   */\n      0x4f776e61626c653a206e6577206f776e657220697320746865207a65726f2061\n        /* \"#utility.yul\":20413:20414   */\n      0x00\n        /* \"#utility.yul\":20405:20411   */\n      dup3\n        /* \"#utility.yul\":20401:20415   */\n      add\n        /* \"#utility.yul\":20394:20452   */\n      mstore\n        /* \"#utility.yul\":20486:20494   */\n      0x6464726573730000000000000000000000000000000000000000000000000000\n        /* \"#utility.yul\":20481:20483   */\n      0x20\n        /* \"#utility.yul\":20473:20479   */\n      dup3\n        /* \"#utility.yul\":20469:20484   */\n      add\n        /* \"#utility.yul\":20462:20495   */\n      mstore\n        /* \"#utility.yul\":20277:20502   */\n      pop\n      jump\t// out\n        /* \"#utility.yul\":20508:20874   */\n    tag_363:\n        /* \"#utility.yul\":20650:20653   */\n      0x00\n        /* \"#utility.yul\":20671:20738   */\n      tag_598\n        /* \"#utility.yul\":20735:20737   */\n      0x26\n        /* \"#utility.yul\":20730:20733   */\n      dup4\n        /* \"#utility.yul\":20671:20738   */\n      tag_352\n      jump\t// in\n    tag_598:\n        /* \"#utility.yul\":20664:20738   */\n      swap2\n      pop\n        /* \"#utility.yul\":20747:20840   */\n      tag_599\n        /* \"#utility.yul\":20836:20839   */\n      dup3\n        /* \"#utility.yul\":20747:20840   */\n      tag_362\n      jump\t// in\n    tag_599:\n        /* \"#utility.yul\":20865:20867   */\n      0x40\n        /* \"#utility.yul\":20860:20863   */\n      dup3\n        /* \"#utility.yul\":20856:20868   */\n      add\n        /* \"#utility.yul\":20849:20868   */\n      swap1\n      pop\n        /* \"#utility.yul\":20508:20874   */\n      swap2\n      swap1\n      pop\n      jump\t// out\n        /* \"#utility.yul\":20880:21299   */\n    tag_277:\n        /* \"#utility.yul\":21046:21050   */\n      0x00\n        /* \"#utility.yul\":21084:21086   */\n      0x20\n        /* \"#utility.yul\":21073:21082   */\n      dup3\n        /* \"#utility.yul\":21069:21087   */\n      add\n        /* \"#utility.yul\":21061:21087   */\n      swap1\n      pop\n        /* \"#utility.yul\":21133:21142   */\n      dup2\n        /* \"#utility.yul\":21127:21131   */\n      dup2\n        /* \"#utility.yul\":21123:21143   */\n      sub\n        /* \"#utility.yul\":21119:21120   */\n      0x00\n        /* \"#utility.yul\":21108:21117   */\n      dup4\n        /* \"#utility.yul\":21104:21121   */\n      add\n        /* \"#utility.yul\":21097:21144   */\n      mstore\n        /* \"#utility.yul\":21161:21292   */\n      tag_601\n        /* \"#utility.yul\":21287:21291   */\n      dup2\n        /* \"#utility.yul\":21161:21292   */\n      tag_363\n      jump\t// in\n    tag_601:\n        /* \"#utility.yul\":21153:21292   */\n      swap1\n      pop\n        /* \"#utility.yul\":20880:21299   */\n      swap2\n      swap1\n      pop\n      jump\t// out\n        /* \"#utility.yul\":21305:21485   */\n    tag_364:\n        /* \"#utility.yul\":21353:21430   */\n      0x4e487b7100000000000000000000000000000000000000000000000000000000\n        /* \"#utility.yul\":21350:21351   */\n      0x00\n        /* \"#utility.yul\":21343:21431   */\n      mstore\n        /* \"#utility.yul\":21450:21454   */\n      0x12\n        /* \"#utility.yul\":21447:21448   */\n      0x04\n        /* \"#utility.yul\":21440:21455   */\n      mstore\n        /* \"#utility.yul\":21474:21478   */\n      0x24\n        /* \"#utility.yul\":21471:21472   */\n      0x00\n        /* \"#utility.yul\":21464:21479   */\n      revert\n        /* \"#utility.yul\":21491:21676   */\n    tag_284:\n        /* \"#utility.yul\":21531:21532   */\n      0x00\n        /* \"#utility.yul\":21548:21568   */\n      tag_604\n        /* \"#utility.yul\":21566:21567   */\n      dup3\n        /* \"#utility.yul\":21548:21568   */\n      tag_310\n      jump\t// in\n    tag_604:\n        /* \"#utility.yul\":21543:21568   */\n      swap2\n      pop\n        /* \"#utility.yul\":21582:21602   */\n      tag_605\n        /* \"#utility.yul\":21600:21601   */\n      dup4\n        /* \"#utility.yul\":21582:21602   */\n      tag_310\n      jump\t// in\n    tag_605:\n        /* \"#utility.yul\":21577:21602   */\n      swap3\n      pop\n        /* \"#utility.yul\":21621:21622   */\n      dup3\n        /* \"#utility.yul\":21611:21646   */\n      tag_606\n      jumpi\n        /* \"#utility.yul\":21626:21644   */\n      tag_607\n      tag_364\n      jump\t// in\n    tag_607:\n        /* \"#utility.yul\":21611:21646   */\n    tag_606:\n        /* \"#utility.yul\":21668:21669   */\n      dup3\n        /* \"#utility.yul\":21665:21666   */\n      dup3\n        /* \"#utility.yul\":21661:21670   */\n      div\n        /* \"#utility.yul\":21656:21670   */\n      swap1\n      pop\n        /* \"#utility.yul\":21491:21676   */\n      swap3\n      swap2\n      pop\n      pop\n      jump\t// out\n        /* \"#utility.yul\":21682:21902   */\n    tag_365:\n        /* \"#utility.yul\":21822:21856   */\n      0x536166654d6174683a206d756c7469706c69636174696f6e206f766572666c6f\n        /* \"#utility.yul\":21818:21819   */\n      0x00\n        /* \"#utility.yul\":21810:21816   */\n      dup3\n        /* \"#utility.yul\":21806:21820   */\n      add\n        /* \"#utility.yul\":21799:21857   */\n      mstore\n        /* \"#utility.yul\":21891:21894   */\n      0x7700000000000000000000000000000000000000000000000000000000000000\n        /* \"#utility.yul\":21886:21888   */\n      0x20\n        /* \"#utility.yul\":21878:21884   */\n      dup3\n        /* \"#utility.yul\":21874:21889   */\n      add\n        /* \"#utility.yul\":21867:21895   */\n      mstore\n        /* \"#utility.yul\":21682:21902   */\n      pop\n      jump\t// out\n        /* \"#utility.yul\":21908:22274   */\n    tag_366:\n        /* \"#utility.yul\":22050:22053   */\n      0x00\n        /* \"#utility.yul\":22071:22138   */\n      tag_610\n        /* \"#utility.yul\":22135:22137   */\n      0x21\n        /* \"#utility.yul\":22130:22133   */\n      dup4\n        /* \"#utility.yul\":22071:22138   */\n      tag_352\n      jump\t// in\n    tag_610:\n        /* \"#utility.yul\":22064:22138   */\n      swap2\n      pop\n        /* \"#utility.yul\":22147:22240   */\n      tag_611\n        /* \"#utility.yul\":22236:22239   */\n      dup3\n        /* \"#utility.yul\":22147:22240   */\n      tag_365\n      jump\t// in\n    tag_611:\n        /* \"#utility.yul\":22265:22267   */\n      0x40\n        /* \"#utility.yul\":22260:22263   */\n      dup3\n        /* \"#utility.yul\":22256:22268   */\n      add\n        /* \"#utility.yul\":22249:22268   */\n      swap1\n      pop\n        /* \"#utility.yul\":21908:22274   */\n      swap2\n      swap1\n      pop\n      jump\t// out\n        /* \"#utility.yul\":22280:22699   */\n    tag_287:\n        /* \"#utility.yul\":22446:22450   */\n      0x00\n        /* \"#utility.yul\":22484:22486   */\n      0x20\n        /* \"#utility.yul\":22473:22482   */\n      dup3\n        /* \"#utility.yul\":22469:22487   */\n      add\n        /* \"#utility.yul\":22461:22487   */\n      swap1\n      pop\n        /* \"#utility.yul\":22533:22542   */\n      dup2\n        /* \"#utility.yul\":22527:22531   */\n      dup2\n        /* \"#utility.yul\":22523:22543   */\n      sub\n        /* \"#utility.yul\":22519:22520   */\n      0x00\n        /* \"#utility.yul\":22508:22517   */\n      dup4\n        /* \"#utility.yul\":22504:22521   */\n      add\n        /* \"#utility.yul\":22497:22544   */\n      mstore\n        /* \"#utility.yul\":22561:22692   */\n      tag_613\n        /* \"#utility.yul\":22687:22691   */\n      dup2\n        /* \"#utility.yul\":22561:22692   */\n      tag_366\n      jump\t// in\n    tag_613:\n        /* \"#utility.yul\":22553:22692   */\n      swap1\n      pop\n        /* \"#utility.yul\":22280:22699   */\n      swap2\n      swap1\n      pop\n      jump\t// out\n        /* \"#utility.yul\":22705:22882   */\n    tag_367:\n        /* \"#utility.yul\":22845:22874   */\n      0x536166654d6174683a206164646974696f6e206f766572666c6f770000000000\n        /* \"#utility.yul\":22841:22842   */\n      0x00\n        /* \"#utility.yul\":22833:22839   */\n      dup3\n        /* \"#utility.yul\":22829:22843   */\n      add\n        /* \"#utility.yul\":22822:22875   */\n      mstore\n        /* \"#utility.yul\":22705:22882   */\n      pop\n      jump\t// out\n        /* \"#utility.yul\":22888:23254   */\n    tag_368:\n        /* \"#utility.yul\":23030:23033   */\n      0x00\n        /* \"#utility.yul\":23051:23118   */\n      tag_616\n        /* \"#utility.yul\":23115:23117   */\n      0x1b\n        /* \"#utility.yul\":23110:23113   */\n      dup4\n        /* \"#utility.yul\":23051:23118   */\n      tag_352\n      jump\t// in\n    tag_616:\n        /* \"#utility.yul\":23044:23118   */\n      swap2\n      pop\n        /* \"#utility.yul\":23127:23220   */\n      tag_617\n        /* \"#utility.yul\":23216:23219   */\n      dup3\n        /* \"#utility.yul\":23127:23220   */\n      tag_367\n      jump\t// in\n    tag_617:\n        /* \"#utility.yul\":23245:23247   */\n      0x20\n        /* \"#utility.yul\":23240:23243   */\n      dup3\n        /* \"#utility.yul\":23236:23248   */\n      add\n        /* \"#utility.yul\":23229:23248   */\n      swap1\n      pop\n        /* \"#utility.yul\":22888:23254   */\n      swap2\n      swap1\n      pop\n      jump\t// out\n        /* \"#utility.yul\":23260:23679   */\n    tag_292:\n        /* \"#utility.yul\":23426:23430   */\n      0x00\n        /* \"#utility.yul\":23464:23466   */\n      0x20\n        /* \"#utility.yul\":23453:23462   */\n      dup3\n        /* \"#utility.yul\":23449:23467   */\n      add\n        /* \"#utility.yul\":23441:23467   */\n      swap1\n      pop\n        /* \"#utility.yul\":23513:23522   */\n      dup2\n        /* \"#utility.yul\":23507:23511   */\n      dup2\n        /* \"#utility.yul\":23503:23523   */\n      sub\n        /* \"#utility.yul\":23499:23500   */\n      0x00\n        /* \"#utility.yul\":23488:23497   */\n      dup4\n        /* \"#utility.yul\":23484:23501   */\n      add\n        /* \"#utility.yul\":23477:23524   */\n      mstore\n        /* \"#utility.yul\":23541:23672   */\n      tag_619\n        /* \"#utility.yul\":23667:23671   */\n      dup2\n        /* \"#utility.yul\":23541:23672   */\n      tag_368\n      jump\t// in\n    tag_619:\n        /* \"#utility.yul\":23533:23672   */\n      swap1\n      pop\n        /* \"#utility.yul\":23260:23679   */\n      swap2\n      swap1\n      pop\n      jump\t// out\n        /* \"#utility.yul\":23685:23784   */\n    tag_369:\n        /* \"#utility.yul\":23737:23743   */\n      0x00\n        /* \"#utility.yul\":23771:23776   */\n      dup2\n        /* \"#utility.yul\":23765:23777   */\n      mload\n        /* \"#utility.yul\":23755:23777   */\n      swap1\n      pop\n        /* \"#utility.yul\":23685:23784   */\n      swap2\n      swap1\n      pop\n      jump\t// out\n        /* \"#utility.yul\":23790:24097   */\n    tag_370:\n        /* \"#utility.yul\":23858:23859   */\n      0x00\n        /* \"#utility.yul\":23868:23981   */\n    tag_622:\n        /* \"#utility.yul\":23882:23888   */\n      dup4\n        /* \"#utility.yul\":23879:23880   */\n      dup2\n        /* \"#utility.yul\":23876:23889   */\n      lt\n        /* \"#utility.yul\":23868:23981   */\n      iszero\n      tag_624\n      jumpi\n        /* \"#utility.yul\":23967:23968   */\n      dup1\n        /* \"#utility.yul\":23962:23965   */\n      dup3\n        /* \"#utility.yul\":23958:23969   */\n      add\n        /* \"#utility.yul\":23952:23970   */\n      mload\n        /* \"#utility.yul\":23948:23949   */\n      dup2\n        /* \"#utility.yul\":23943:23946   */\n      dup5\n        /* \"#utility.yul\":23939:23950   */\n      add\n        /* \"#utility.yul\":23932:23971   */\n      mstore\n        /* \"#utility.yul\":23904:23906   */\n      0x20\n        /* \"#utility.yul\":23901:23902   */\n      dup2\n        /* \"#utility.yul\":23897:23907   */\n      add\n        /* \"#utility.yul\":23892:23907   */\n      swap1\n      pop\n        /* \"#utility.yul\":23868:23981   */\n      jump(tag_622)\n    tag_624:\n        /* \"#utility.yul\":23999:24005   */\n      dup4\n        /* \"#utility.yul\":23996:23997   */\n      dup2\n        /* \"#utility.yul\":23993:24006   */\n      gt\n        /* \"#utility.yul\":23990:24091   */\n      iszero\n      tag_625\n      jumpi\n        /* \"#utility.yul\":24079:24080   */\n      0x00\n        /* \"#utility.yul\":24070:24076   */\n      dup5\n        /* \"#utility.yul\":24065:24068   */\n      dup5\n        /* \"#utility.yul\":24061:24077   */\n      add\n        /* \"#utility.yul\":24054:24081   */\n      mstore\n        /* \"#utility.yul\":23990:24091   */\n    tag_625:\n        /* \"#utility.yul\":23839:24097   */\n      pop\n        /* \"#utility.yul\":23790:24097   */\n      pop\n      pop\n      pop\n      jump\t// out\n        /* \"#utility.yul\":24103:24467   */\n    tag_371:\n        /* \"#utility.yul\":24191:24194   */\n      0x00\n        /* \"#utility.yul\":24219:24258   */\n      tag_627\n        /* \"#utility.yul\":24252:24257   */\n      dup3\n        /* \"#utility.yul\":24219:24258   */\n      tag_369\n      jump\t// in\n    tag_627:\n        /* \"#utility.yul\":24274:24345   */\n      tag_628\n        /* \"#utility.yul\":24338:24344   */\n      dup2\n        /* \"#utility.yul\":24333:24336   */\n      dup6\n        /* \"#utility.yul\":24274:24345   */\n      tag_352\n      jump\t// in\n    tag_628:\n        /* \"#utility.yul\":24267:24345   */\n      swap4\n      pop\n        /* \"#utility.yul\":24354:24406   */\n      tag_629\n        /* \"#utility.yul\":24399:24405   */\n      dup2\n        /* \"#utility.yul\":24394:24397   */\n      dup6\n        /* \"#utility.yul\":24387:24391   */\n      0x20\n        /* \"#utility.yul\":24380:24385   */\n      dup7\n        /* \"#utility.yul\":24376:24392   */\n      add\n        /* \"#utility.yul\":24354:24406   */\n      tag_370\n      jump\t// in\n    tag_629:\n        /* \"#utility.yul\":24431:24460   */\n      tag_630\n        /* \"#utility.yul\":24453:24459   */\n      dup2\n        /* \"#utility.yul\":24431:24460   */\n      tag_325\n      jump\t// in\n    tag_630:\n        /* \"#utility.yul\":24426:24429   */\n      dup5\n        /* \"#utility.yul\":24422:24461   */\n      add\n        /* \"#utility.yul\":24415:24461   */\n      swap2\n      pop\n        /* \"#utility.yul\":24195:24467   */\n      pop\n        /* \"#utility.yul\":24103:24467   */\n      swap3\n      swap2\n      pop\n      pop\n      jump\t// out\n        /* \"#utility.yul\":24473:24786   */\n    tag_301:\n        /* \"#utility.yul\":24586:24590   */\n      0x00\n        /* \"#utility.yul\":24624:24626   */\n      0x20\n        /* \"#utility.yul\":24613:24622   */\n      dup3\n        /* \"#utility.yul\":24609:24627   */\n      add\n        /* \"#utility.yul\":24601:24627   */\n      swap1\n      pop\n        /* \"#utility.yul\":24673:24682   */\n      dup2\n        /* \"#utility.yul\":24667:24671   */\n      dup2\n        /* \"#utility.yul\":24663:24683   */\n      sub\n        /* \"#utility.yul\":24659:24660   */\n      0x00\n        /* \"#utility.yul\":24648:24657   */\n      dup4\n        /* \"#utility.yul\":24644:24661   */\n      add\n        /* \"#utility.yul\":24637:24684   */\n      mstore\n        /* \"#utility.yul\":24701:24779   */\n      tag_632\n        /* \"#utility.yul\":24774:24778   */\n      dup2\n        /* \"#utility.yul\":24765:24771   */\n      dup5\n        /* \"#utility.yul\":24701:24779   */\n      tag_371\n      jump\t// in\n    tag_632:\n        /* \"#utility.yul\":24693:24779   */\n      swap1\n      pop\n        /* \"#utility.yul\":24473:24786   */\n      swap3\n      swap2\n      pop\n      pop\n      jump\t// out\n\n    auxdata: 0xa2646970667358221220430b6887d6997036b44b8f495172346a3bf359d359fd51ecde38358a871e780b64736f6c634300080f0033\n}\n",
				"bytecode": {
					"linkReferences": {},
					"object": "6080604052670de0b6b3a764000060035562a066806005553480156200002457600080fd5b50604051620029fc380380620029fc83398181016040528101906200004a9190620002b1565b6200006a6200005e6200013660201b60201c565b6200013e60201b60201c565b82600460006101000a81548173ffffffffffffffffffffffffffffffffffffffff021916908373ffffffffffffffffffffffffffffffffffffffff16021790555081600160006101000a81548173ffffffffffffffffffffffffffffffffffffffff021916908373ffffffffffffffffffffffffffffffffffffffff16021790555080600260006101000a81548173ffffffffffffffffffffffffffffffffffffffff021916908373ffffffffffffffffffffffffffffffffffffffff1602179055505050506200030d565b600033905090565b60008060009054906101000a900473ffffffffffffffffffffffffffffffffffffffff169050816000806101000a81548173ffffffffffffffffffffffffffffffffffffffff021916908373ffffffffffffffffffffffffffffffffffffffff1602179055508173ffffffffffffffffffffffffffffffffffffffff168173ffffffffffffffffffffffffffffffffffffffff167f8be0079c531659141344cd1fd0a4f28419497f9722a3daafe3b4186f6b6457e060405160405180910390a35050565b600080fd5b600073ffffffffffffffffffffffffffffffffffffffff82169050919050565b6000620002348262000207565b9050919050565b6000620002488262000227565b9050919050565b6200025a816200023b565b81146200026657600080fd5b50565b6000815190506200027a816200024f565b92915050565b6200028b8162000227565b81146200029757600080fd5b50565b600081519050620002ab8162000280565b92915050565b600080600060608486031215620002cd57620002cc62000202565b5b6000620002dd8682870162000269565b9350506020620002f0868287016200029a565b925050604062000303868287016200029a565b9150509250925092565b6126df806200031d6000396000f3fe608060405234801561001057600080fd5b50600436106100f55760003560e01c8063715018a611610097578063d979fb5f11610066578063d979fb5f14610288578063dbb79348146102b8578063f2fde38b146102e8578063f8a8fd6d14610304576100f5565b8063715018a6146102265780638da5cb5b146102305780638dd950021461024e578063c0d786551461026c576100f5565b80633268cc56116100d35780633268cc561461018a5780633b979d45146101a8578063484f4ea9146101d857806355b44eaf146101f6576100f5565b806319047f8a146100fa578063215cc9891461012a5780632f7c59801461015a575b600080fd5b610114600480360381019061010f91906119f3565b61030e565b6040516101219190611a39565b60405180910390f35b610144600480360381019061013f9190611a92565b610556565b6040516101519190611a39565b60405180910390f35b610174600480360381019061016f9190611a92565b610d51565b6040516101819190611a39565b60405180910390f35b610192610dd3565b60405161019f9190611b1e565b60405180910390f35b6101c260048036038101906101bd91906119f3565b610df9565b6040516101cf9190611a39565b60405180910390f35b6101e0610fd0565b6040516101ed9190611b48565b60405180910390f35b610210600480360381019061020b9190611cfa565b610ff6565b60405161021d9190611a39565b60405180910390f35b61022e6110bf565b005b610238611147565b6040516102459190611b48565b60405180910390f35b610256611170565b6040516102639190611b48565b60405180910390f35b61028660048036038101906102819190611d94565b611196565b005b6102a2600480360381019061029d9190611ded565b611256565b6040516102af9190611a39565b60405180910390f35b6102d260048036038101906102cd9190611ded565b611396565b6040516102df9190611a39565b60405180910390f35b61030260048036038101906102fd91906119f3565b611637565b005b61030c61172e565b005b600080600367ffffffffffffffff81111561032c5761032b611bb7565b5b60405190808252806020026020018201604052801561035a5781602001602082028036833780820191505090505b509050828160008151811061037257610371611e54565b5b602002602001019073ffffffffffffffffffffffffffffffffffffffff16908173ffffffffffffffffffffffffffffffffffffffff1681525050600160009054906101000a900473ffffffffffffffffffffffffffffffffffffffff16816001815181106103e3576103e2611e54565b5b602002602001019073ffffffffffffffffffffffffffffffffffffffff16908173ffffffffffffffffffffffffffffffffffffffff1681525050600260009054906101000a900473ffffffffffffffffffffffffffffffffffffffff168160028151811061045457610453611e54565b5b602002602001019073ffffffffffffffffffffffffffffffffffffffff16908173ffffffffffffffffffffffffffffffffffffffff1681525050600460009054906101000a900473ffffffffffffffffffffffffffffffffffffffff1673ffffffffffffffffffffffffffffffffffffffff1663d06ca61f600354836040518363ffffffff1660e01b81526004016104ed929190611f41565b600060405180830381865afa15801561050a573d6000803e3d6000fd5b505050506040513d6000823e3d601f19601f820116820180604052508101906105339190612049565b60028151811061054657610545611e54565b5b6020026020010151915050919050565b60008060008373ffffffffffffffffffffffffffffffffffffffff16630dfe16816040518163ffffffff1660e01b8152600401602060405180830381865afa1580156105a6573d6000803e3d6000fd5b505050506040513d601f19601f820116820180604052508101906105ca91906120d0565b73ffffffffffffffffffffffffffffffffffffffff16600160009054906101000a900473ffffffffffffffffffffffffffffffffffffffff1673ffffffffffffffffffffffffffffffffffffffff16036107955761078e6106988573ffffffffffffffffffffffffffffffffffffffff16630dfe16816040518163ffffffff1660e01b8152600401602060405180830381865afa15801561066f573d6000803e3d6000fd5b505050506040513d601f19601f8201168201806040525081019061069391906120d0565b610df9565b8573ffffffffffffffffffffffffffffffffffffffff16630dfe16816040518163ffffffff1660e01b8152600401602060405180830381865afa1580156106e3573d6000803e3d6000fd5b505050506040513d601f19601f8201168201806040525081019061070791906120d0565b73ffffffffffffffffffffffffffffffffffffffff166370a08231876040518263ffffffff1660e01b815260040161073f9190611b48565b602060405180830381865afa15801561075c573d6000803e3d6000fd5b505050506040513d601f19601f8201168201806040525081019061078091906120fd565b61173090919063ffffffff16565b9150610908565b61090561080f8573ffffffffffffffffffffffffffffffffffffffff16630dfe16816040518163ffffffff1660e01b8152600401602060405180830381865afa1580156107e6573d6000803e3d6000fd5b505050506040513d601f19601f8201168201806040525081019061080a91906120d0565b61030e565b8573ffffffffffffffffffffffffffffffffffffffff16630dfe16816040518163ffffffff1660e01b8152600401602060405180830381865afa15801561085a573d6000803e3d6000fd5b505050506040513d601f19601f8201168201806040525081019061087e91906120d0565b73ffffffffffffffffffffffffffffffffffffffff166370a08231876040518263ffffffff1660e01b81526004016108b69190611b48565b602060405180830381865afa1580156108d3573d6000803e3d6000fd5b505050506040513d601f19601f820116820180604052508101906108f791906120fd565b61173090919063ffffffff16565b91505b8373ffffffffffffffffffffffffffffffffffffffff1663d21220a76040518163ffffffff1660e01b8152600401602060405180830381865afa158015610953573d6000803e3d6000fd5b505050506040513d601f19601f8201168201806040525081019061097791906120d0565b73ffffffffffffffffffffffffffffffffffffffff16600160009054906101000a900473ffffffffffffffffffffffffffffffffffffffff1673ffffffffffffffffffffffffffffffffffffffff1603610b4257610b3b610a458573ffffffffffffffffffffffffffffffffffffffff1663d21220a76040518163ffffffff1660e01b8152600401602060405180830381865afa158015610a1c573d6000803e3d6000fd5b505050506040513d601f19601f82011682018060405250810190610a4091906120d0565b610df9565b8573ffffffffffffffffffffffffffffffffffffffff1663d21220a76040518163ffffffff1660e01b8152600401602060405180830381865afa158015610a90573d6000803e3d6000fd5b505050506040513d601f19601f82011682018060405250810190610ab491906120d0565b73ffffffffffffffffffffffffffffffffffffffff166370a08231876040518263ffffffff1660e01b8152600401610aec9190611b48565b602060405180830381865afa158015610b09573d6000803e3d6000fd5b505050506040513d601f19601f82011682018060405250810190610b2d91906120fd565b61173090919063ffffffff16565b9050610cb5565b610cb2610bbc8573ffffffffffffffffffffffffffffffffffffffff1663d21220a76040518163ffffffff1660e01b8152600401602060405180830381865afa158015610b93573d6000803e3d6000fd5b505050506040513d601f19601f82011682018060405250810190610bb791906120d0565b61030e565b8573ffffffffffffffffffffffffffffffffffffffff1663d21220a76040518163ffffffff1660e01b8152600401602060405180830381865afa158015610c07573d6000803e3d6000fd5b505050506040513d601f19601f82011682018060405250810190610c2b91906120d0565b73ffffffffffffffffffffffffffffffffffffffff166370a08231876040518263ffffffff1660e01b8152600401610c639190611b48565b602060405180830381865afa158015610c80573d6000803e3d6000fd5b505050506040513d601f19601f82011682018060405250810190610ca491906120fd565b61173090919063ffffffff16565b90505b610d488473ffffffffffffffffffffffffffffffffffffffff166318160ddd6040518163ffffffff1660e01b8152600401602060405180830381865afa158015610d03573d6000803e3d6000fd5b505050506040513d601f19601f82011682018060405250810190610d2791906120fd565b610d3a83856117aa90919063ffffffff16565b61180890919063ffffffff16565b92505050919050565b60008173ffffffffffffffffffffffffffffffffffffffff16630dfe16816040518163ffffffff1660e01b8152600401602060405180830381865afa925050508015610dbb57506040513d601f19601f82011682018060405250810190610db891906120d0565b60015b610dc85760009050610dce565b50600190505b919050565b600460009054906101000a900473ffffffffffffffffffffffffffffffffffffffff1681565b600080600267ffffffffffffffff811115610e1757610e16611bb7565b5b604051908082528060200260200182016040528015610e455781602001602082028036833780820191505090505b5090508281600081518110610e5d57610e5c611e54565b5b602002602001019073ffffffffffffffffffffffffffffffffffffffff16908173ffffffffffffffffffffffffffffffffffffffff1681525050600260009054906101000a900473ffffffffffffffffffffffffffffffffffffffff1681600181518110610ece57610ecd611e54565b5b602002602001019073ffffffffffffffffffffffffffffffffffffffff16908173ffffffffffffffffffffffffffffffffffffffff1681525050600460009054906101000a900473ffffffffffffffffffffffffffffffffffffffff1673ffffffffffffffffffffffffffffffffffffffff1663d06ca61f600354836040518363ffffffff1660e01b8152600401610f67929190611f41565b600060405180830381865afa158015610f84573d6000803e3d6000fd5b505050506040513d6000823e3d601f19601f82011682018060405250810190610fad9190612049565b600181518110610fc057610fbf611e54565b5b6020026020010151915050919050565b600260009054906101000a900473ffffffffffffffffffffffffffffffffffffffff1681565b6000806000905060005b83518110156110b457600161102e85838151811061102157611020611e54565b5b6020026020010151610d51565b0361106c5761105a8185838151811061104a57611049611e54565b5b6020026020010151600188611256565b826110659190612159565b91506110a1565b6110938185838151811061108357611082611e54565b5b6020026020010151600088611256565b8261109e9190612159565b91505b80806110ac906121af565b915050611000565b508091505092915050565b6110c7611852565b73ffffffffffffffffffffffffffffffffffffffff166110e5611147565b73ffffffffffffffffffffffffffffffffffffffff161461113b576040517f08c379a000000000000000000000000000000000000000000000000000000000815260040161113290612254565b60405180910390fd5b611145600061185a565b565b60008060009054906101000a900473ffffffffffffffffffffffffffffffffffffffff16905090565b600160009054906101000a900473ffffffffffffffffffffffffffffffffffffffff1681565b61119e611852565b73ffffffffffffffffffffffffffffffffffffffff166111bc611147565b73ffffffffffffffffffffffffffffffffffffffff1614611212576040517f08c379a000000000000000000000000000000000000000000000000000000000815260040161120990612254565b60405180910390fd5b80600460006101000a81548173ffffffffffffffffffffffffffffffffffffffff021916908373ffffffffffffffffffffffffffffffffffffffff16021790555050565b6000808273ffffffffffffffffffffffffffffffffffffffff16636a6d964e876040518263ffffffff1660e01b81526004016112929190611a39565b602060405180830381865afa1580156112af573d6000803e3d6000fd5b505050506040513d601f19601f820116820180604052508101906112d391906120fd565b90506000600185036112ef576112e886610556565b905061136a565b60008503611369578573ffffffffffffffffffffffffffffffffffffffff16600160009054906101000a900473ffffffffffffffffffffffffffffffffffffffff1673ffffffffffffffffffffffffffffffffffffffff160361135c5761135586610df9565b9050611368565b6113658661030e565b90505b5b5b61138a600354828461137c9190612274565b61180890919063ffffffff16565b92505050949350505050565b6000808273ffffffffffffffffffffffffffffffffffffffff16631526fe27876040518263ffffffff1660e01b81526004016113d29190611a39565b60c060405180830381865afa1580156113ef573d6000803e3d6000fd5b505050506040513d601f19601f8201168201806040525081019061141391906123b1565b905060006114b08473ffffffffffffffffffffffffffffffffffffffff166317caf6f16040518163ffffffff1660e01b8152600401602060405180830381865afa158015611465573d6000803e3d6000fd5b505050506040513d601f19601f8201168201806040525081019061148991906120fd565b6114a2600354856020015161173090919063ffffffff16565b61180890919063ffffffff16565b9050600061152b8573ffffffffffffffffffffffffffffffffffffffff1663141aa0ba6040518163ffffffff1660e01b8152600401602060405180830381865afa158015611502573d6000803e3d6000fd5b505050506040513d601f19601f8201168201806040525081019061152691906123f3565b61030e565b905060006115b28673ffffffffffffffffffffffffffffffffffffffff1663a1eef8216040518163ffffffff1660e01b8152600401602060405180830381865afa15801561157d573d6000803e3d6000fd5b505050506040513d601f19601f820116820180604052508101906115a191906120fd565b60055461173090919063ffffffff16565b905060006115dd6003546115cf868561173090919063ffffffff16565b61180890919063ffffffff16565b905060006115ed8b8b8b8b611256565b905061162760646116198361160b888761173090919063ffffffff16565b61180890919063ffffffff16565b61173090919063ffffffff16565b9650505050505050949350505050565b61163f611852565b73ffffffffffffffffffffffffffffffffffffffff1661165d611147565b73ffffffffffffffffffffffffffffffffffffffff16146116b3576040517f08c379a00000000000000000000000000000000000000000000000000000000081526004016116aa90612254565b60405180910390fd5b600073ffffffffffffffffffffffffffffffffffffffff168173ffffffffffffffffffffffffffffffffffffffff1603611722576040517f08c379a000000000000000000000000000000000000000000000000000000000815260040161171990612492565b60405180910390fd5b61172b8161185a565b50565b565b600080830361174257600090506117a4565b600082846117509190612274565b905082848261175f91906124e1565b1461179f576040517f08c379a000000000000000000000000000000000000000000000000000000000815260040161179690612584565b60405180910390fd5b809150505b92915050565b60008082846117b99190612159565b9050838110156117fe576040517f08c379a00000000000000000000000000000000000000000000000000000000081526004016117f5906125f0565b60405180910390fd5b8091505092915050565b600061184a83836040518060400160405280601a81526020017f536166654d6174683a206469766973696f6e206279207a65726f00000000000081525061191e565b905092915050565b600033905090565b60008060009054906101000a900473ffffffffffffffffffffffffffffffffffffffff169050816000806101000a81548173ffffffffffffffffffffffffffffffffffffffff021916908373ffffffffffffffffffffffffffffffffffffffff1602179055508173ffffffffffffffffffffffffffffffffffffffff168173ffffffffffffffffffffffffffffffffffffffff167f8be0079c531659141344cd1fd0a4f28419497f9722a3daafe3b4186f6b6457e060405160405180910390a35050565b60008083118290611965576040517f08c379a000000000000000000000000000000000000000000000000000000000815260040161195c9190612687565b60405180910390fd5b506000838561197491906124e1565b9050809150509392505050565b6000604051905090565b600080fd5b600080fd5b600073ffffffffffffffffffffffffffffffffffffffff82169050919050565b60006119c082611995565b9050919050565b6119d0816119b5565b81146119db57600080fd5b50565b6000813590506119ed816119c7565b92915050565b600060208284031215611a0957611a0861198b565b5b6000611a17848285016119de565b91505092915050565b6000819050919050565b611a3381611a20565b82525050565b6000602082019050611a4e6000830184611a2a565b92915050565b6000611a5f826119b5565b9050919050565b611a6f81611a54565b8114611a7a57600080fd5b50565b600081359050611a8c81611a66565b92915050565b600060208284031215611aa857611aa761198b565b5b6000611ab684828501611a7d565b91505092915050565b6000819050919050565b6000611ae4611adf611ada84611995565b611abf565b611995565b9050919050565b6000611af682611ac9565b9050919050565b6000611b0882611aeb565b9050919050565b611b1881611afd565b82525050565b6000602082019050611b336000830184611b0f565b92915050565b611b42816119b5565b82525050565b6000602082019050611b5d6000830184611b39565b92915050565b6000611b6e826119b5565b9050919050565b611b7e81611b63565b8114611b8957600080fd5b50565b600081359050611b9b81611b75565b92915050565b600080fd5b6000601f19601f8301169050919050565b7f4e487b7100000000000000000000000000000000000000000000000000000000600052604160045260246000fd5b611bef82611ba6565b810181811067ffffffffffffffff82111715611c0e57611c0d611bb7565b5b80604052505050565b6000611c21611981565b9050611c2d8282611be6565b919050565b600067ffffffffffffffff821115611c4d57611c4c611bb7565b5b602082029050602081019050919050565b600080fd5b6000611c76611c7184611c32565b611c17565b90508083825260208201905060208402830185811115611c9957611c98611c5e565b5b835b81811015611cc25780611cae8882611a7d565b845260208401935050602081019050611c9b565b5050509392505050565b600082601f830112611ce157611ce0611ba1565b5b8135611cf1848260208601611c63565b91505092915050565b60008060408385031215611d1157611d1061198b565b5b6000611d1f85828601611b8c565b925050602083013567ffffffffffffffff811115611d4057611d3f611990565b5b611d4c85828601611ccc565b9150509250929050565b6000611d61826119b5565b9050919050565b611d7181611d56565b8114611d7c57600080fd5b50565b600081359050611d8e81611d68565b92915050565b600060208284031215611daa57611da961198b565b5b6000611db884828501611d7f565b91505092915050565b611dca81611a20565b8114611dd557600080fd5b50565b600081359050611de781611dc1565b92915050565b60008060008060808587031215611e0757611e0661198b565b5b6000611e1587828801611dd8565b9450506020611e2687828801611a7d565b9350506040611e3787828801611dd8565b9250506060611e4887828801611b8c565b91505092959194509250565b7f4e487b7100000000000000000000000000000000000000000000000000000000600052603260045260246000fd5b600081519050919050565b600082825260208201905092915050565b6000819050602082019050919050565b611eb8816119b5565b82525050565b6000611eca8383611eaf565b60208301905092915050565b6000602082019050919050565b6000611eee82611e83565b611ef88185611e8e565b9350611f0383611e9f565b8060005b83811015611f34578151611f1b8882611ebe565b9750611f2683611ed6565b925050600181019050611f07565b5085935050505092915050565b6000604082019050611f566000830185611a2a565b8181036020830152611f688184611ee3565b90509392505050565b600067ffffffffffffffff821115611f8c57611f8b611bb7565b5b602082029050602081019050919050565b600081519050611fac81611dc1565b92915050565b6000611fc5611fc084611f71565b611c17565b90508083825260208201905060208402830185811115611fe857611fe7611c5e565b5b835b818110156120115780611ffd8882611f9d565b845260208401935050602081019050611fea565b5050509392505050565b600082601f8301126120305761202f611ba1565b5b8151612040848260208601611fb2565b91505092915050565b60006020828403121561205f5761205e61198b565b5b600082015167ffffffffffffffff81111561207d5761207c611990565b5b6120898482850161201b565b91505092915050565b600061209d826119b5565b9050919050565b6120ad81612092565b81146120b857600080fd5b50565b6000815190506120ca816120a4565b92915050565b6000602082840312156120e6576120e561198b565b5b60006120f4848285016120bb565b91505092915050565b6000602082840312156121135761211261198b565b5b600061212184828501611f9d565b91505092915050565b7f4e487b7100000000000000000000000000000000000000000000000000000000600052601160045260246000fd5b600061216482611a20565b915061216f83611a20565b9250827fffffffffffffffffffffffffffffffffffffffffffffffffffffffffffffffff038211156121a4576121a361212a565b5b828201905092915050565b60006121ba82611a20565b91507fffffffffffffffffffffffffffffffffffffffffffffffffffffffffffffffff82036121ec576121eb61212a565b5b600182019050919050565b600082825260208201905092915050565b7f4f776e61626c653a2063616c6c6572206973206e6f7420746865206f776e6572600082015250565b600061223e6020836121f7565b915061224982612208565b602082019050919050565b6000602082019050818103600083015261226d81612231565b9050919050565b600061227f82611a20565b915061228a83611a20565b9250817fffffffffffffffffffffffffffffffffffffffffffffffffffffffffffffffff04831182151516156122c3576122c261212a565b5b828202905092915050565b600080fd5b60006122de826119b5565b9050919050565b6122ee816122d3565b81146122f957600080fd5b50565b60008151905061230b816122e5565b92915050565b600060c08284031215612327576123266122ce565b5b61233160c0611c17565b90506000612341848285016120bb565b600083015250602061235584828501611f9d565b602083015250604061236984828501611f9d565b604083015250606061237d84828501611f9d565b6060830152506080612391848285016122fc565b60808301525060a06123a5848285016120bb565b60a08301525092915050565b600060c082840312156123c7576123c661198b565b5b60006123d584828501612311565b91505092915050565b6000815190506123ed816119c7565b92915050565b6000602082840312156124095761240861198b565b5b6000612417848285016123de565b91505092915050565b7f4f776e61626c653a206e6577206f776e657220697320746865207a65726f206160008201527f6464726573730000000000000000000000000000000000000000000000000000602082015250565b600061247c6026836121f7565b915061248782612420565b604082019050919050565b600060208201905081810360008301526124ab8161246f565b9050919050565b7f4e487b7100000000000000000000000000000000000000000000000000000000600052601260045260246000fd5b60006124ec82611a20565b91506124f783611a20565b925082612507576125066124b2565b5b828204905092915050565b7f536166654d6174683a206d756c7469706c69636174696f6e206f766572666c6f60008201527f7700000000000000000000000000000000000000000000000000000000000000602082015250565b600061256e6021836121f7565b915061257982612512565b604082019050919050565b6000602082019050818103600083015261259d81612561565b9050919050565b7f536166654d6174683a206164646974696f6e206f766572666c6f770000000000600082015250565b60006125da601b836121f7565b91506125e5826125a4565b602082019050919050565b60006020820190508181036000830152612609816125cd565b9050919050565b600081519050919050565b60005b8381101561263957808201518184015260208101905061261e565b83811115612648576000848401525b50505050565b600061265982612610565b61266381856121f7565b935061267381856020860161261b565b61267c81611ba6565b840191505092915050565b600060208201905081810360008301526126a1818461264e565b90509291505056fea2646970667358221220430b6887d6997036b44b8f495172346a3bf359d359fd51ecde38358a871e780b64736f6c634300080f0033",
					"opcodes": "PUSH1 0x80 PUSH1 0x40 MSTORE PUSH8 0xDE0B6B3A7640000 PUSH1 0x3 SSTORE PUSH3 0xA06680 PUSH1 0x5 SSTORE CALLVALUE DUP1 ISZERO PUSH3 0x24 JUMPI PUSH1 0x0 DUP1 REVERT JUMPDEST POP PUSH1 0x40 MLOAD PUSH3 0x29FC CODESIZE SUB DUP1 PUSH3 0x29FC DUP4 CODECOPY DUP2 DUP2 ADD PUSH1 0x40 MSTORE DUP2 ADD SWAP1 PUSH3 0x4A SWAP2 SWAP1 PUSH3 0x2B1 JUMP JUMPDEST PUSH3 0x6A PUSH3 0x5E PUSH3 0x136 PUSH1 0x20 SHL PUSH1 0x20 SHR JUMP JUMPDEST PUSH3 0x13E PUSH1 0x20 SHL PUSH1 0x20 SHR JUMP JUMPDEST DUP3 PUSH1 0x4 PUSH1 0x0 PUSH2 0x100 EXP DUP2 SLOAD DUP2 PUSH20 0xFFFFFFFFFFFFFFFFFFFFFFFFFFFFFFFFFFFFFFFF MUL NOT AND SWAP1 DUP4 PUSH20 0xFFFFFFFFFFFFFFFFFFFFFFFFFFFFFFFFFFFFFFFF AND MUL OR SWAP1 SSTORE POP DUP2 PUSH1 0x1 PUSH1 0x0 PUSH2 0x100 EXP DUP2 SLOAD DUP2 PUSH20 0xFFFFFFFFFFFFFFFFFFFFFFFFFFFFFFFFFFFFFFFF MUL NOT AND SWAP1 DUP4 PUSH20 0xFFFFFFFFFFFFFFFFFFFFFFFFFFFFFFFFFFFFFFFF AND MUL OR SWAP1 SSTORE POP DUP1 PUSH1 0x2 PUSH1 0x0 PUSH2 0x100 EXP DUP2 SLOAD DUP2 PUSH20 0xFFFFFFFFFFFFFFFFFFFFFFFFFFFFFFFFFFFFFFFF MUL NOT AND SWAP1 DUP4 PUSH20 0xFFFFFFFFFFFFFFFFFFFFFFFFFFFFFFFFFFFFFFFF AND MUL OR SWAP1 SSTORE POP POP POP POP PUSH3 0x30D JUMP JUMPDEST PUSH1 0x0 CALLER SWAP1 POP SWAP1 JUMP JUMPDEST PUSH1 0x0 DUP1 PUSH1 0x0 SWAP1 SLOAD SWAP1 PUSH2 0x100 EXP SWAP1 DIV PUSH20 0xFFFFFFFFFFFFFFFFFFFFFFFFFFFFFFFFFFFFFFFF AND SWAP1 POP DUP2 PUSH1 0x0 DUP1 PUSH2 0x100 EXP DUP2 SLOAD DUP2 PUSH20 0xFFFFFFFFFFFFFFFFFFFFFFFFFFFFFFFFFFFFFFFF MUL NOT AND SWAP1 DUP4 PUSH20 0xFFFFFFFFFFFFFFFFFFFFFFFFFFFFFFFFFFFFFFFF AND MUL OR SWAP1 SSTORE POP DUP2 PUSH20 0xFFFFFFFFFFFFFFFFFFFFFFFFFFFFFFFFFFFFFFFF AND DUP2 PUSH20 0xFFFFFFFFFFFFFFFFFFFFFFFFFFFFFFFFFFFFFFFF AND PUSH32 0x8BE0079C531659141344CD1FD0A4F28419497F9722A3DAAFE3B4186F6B6457E0 PUSH1 0x40 MLOAD PUSH1 0x40 MLOAD DUP1 SWAP2 SUB SWAP1 LOG3 POP POP JUMP JUMPDEST PUSH1 0x0 DUP1 REVERT JUMPDEST PUSH1 0x0 PUSH20 0xFFFFFFFFFFFFFFFFFFFFFFFFFFFFFFFFFFFFFFFF DUP3 AND SWAP1 POP SWAP2 SWAP1 POP JUMP JUMPDEST PUSH1 0x0 PUSH3 0x234 DUP3 PUSH3 0x207 JUMP JUMPDEST SWAP1 POP SWAP2 SWAP1 POP JUMP JUMPDEST PUSH1 0x0 PUSH3 0x248 DUP3 PUSH3 0x227 JUMP JUMPDEST SWAP1 POP SWAP2 SWAP1 POP JUMP JUMPDEST PUSH3 0x25A DUP2 PUSH3 0x23B JUMP JUMPDEST DUP2 EQ PUSH3 0x266 JUMPI PUSH1 0x0 DUP1 REVERT JUMPDEST POP JUMP JUMPDEST PUSH1 0x0 DUP2 MLOAD SWAP1 POP PUSH3 0x27A DUP2 PUSH3 0x24F JUMP JUMPDEST SWAP3 SWAP2 POP POP JUMP JUMPDEST PUSH3 0x28B DUP2 PUSH3 0x227 JUMP JUMPDEST DUP2 EQ PUSH3 0x297 JUMPI PUSH1 0x0 DUP1 REVERT JUMPDEST POP JUMP JUMPDEST PUSH1 0x0 DUP2 MLOAD SWAP1 POP PUSH3 0x2AB DUP2 PUSH3 0x280 JUMP JUMPDEST SWAP3 SWAP2 POP POP JUMP JUMPDEST PUSH1 0x0 DUP1 PUSH1 0x0 PUSH1 0x60 DUP5 DUP7 SUB SLT ISZERO PUSH3 0x2CD JUMPI PUSH3 0x2CC PUSH3 0x202 JUMP JUMPDEST JUMPDEST PUSH1 0x0 PUSH3 0x2DD DUP7 DUP3 DUP8 ADD PUSH3 0x269 JUMP JUMPDEST SWAP4 POP POP PUSH1 0x20 PUSH3 0x2F0 DUP7 DUP3 DUP8 ADD PUSH3 0x29A JUMP JUMPDEST SWAP3 POP POP PUSH1 0x40 PUSH3 0x303 DUP7 DUP3 DUP8 ADD PUSH3 0x29A JUMP JUMPDEST SWAP2 POP POP SWAP3 POP SWAP3 POP SWAP3 JUMP JUMPDEST PUSH2 0x26DF DUP1 PUSH3 0x31D PUSH1 0x0 CODECOPY PUSH1 0x0 RETURN INVALID PUSH1 0x80 PUSH1 0x40 MSTORE CALLVALUE DUP1 ISZERO PUSH2 0x10 JUMPI PUSH1 0x0 DUP1 REVERT JUMPDEST POP PUSH1 0x4 CALLDATASIZE LT PUSH2 0xF5 JUMPI PUSH1 0x0 CALLDATALOAD PUSH1 0xE0 SHR DUP1 PUSH4 0x715018A6 GT PUSH2 0x97 JUMPI DUP1 PUSH4 0xD979FB5F GT PUSH2 0x66 JUMPI DUP1 PUSH4 0xD979FB5F EQ PUSH2 0x288 JUMPI DUP1 PUSH4 0xDBB79348 EQ PUSH2 0x2B8 JUMPI DUP1 PUSH4 0xF2FDE38B EQ PUSH2 0x2E8 JUMPI DUP1 PUSH4 0xF8A8FD6D EQ PUSH2 0x304 JUMPI PUSH2 0xF5 JUMP JUMPDEST DUP1 PUSH4 0x715018A6 EQ PUSH2 0x226 JUMPI DUP1 PUSH4 0x8DA5CB5B EQ PUSH2 0x230 JUMPI DUP1 PUSH4 0x8DD95002 EQ PUSH2 0x24E JUMPI DUP1 PUSH4 0xC0D78655 EQ PUSH2 0x26C JUMPI PUSH2 0xF5 JUMP JUMPDEST DUP1 PUSH4 0x3268CC56 GT PUSH2 0xD3 JUMPI DUP1 PUSH4 0x3268CC56 EQ PUSH2 0x18A JUMPI DUP1 PUSH4 0x3B979D45 EQ PUSH2 0x1A8 JUMPI DUP1 PUSH4 0x484F4EA9 EQ PUSH2 0x1D8 JUMPI DUP1 PUSH4 0x55B44EAF EQ PUSH2 0x1F6 JUMPI PUSH2 0xF5 JUMP JUMPDEST DUP1 PUSH4 0x19047F8A EQ PUSH2 0xFA JUMPI DUP1 PUSH4 0x215CC989 EQ PUSH2 0x12A JUMPI DUP1 PUSH4 0x2F7C5980 EQ PUSH2 0x15A JUMPI JUMPDEST PUSH1 0x0 DUP1 REVERT JUMPDEST PUSH2 0x114 PUSH1 0x4 DUP1 CALLDATASIZE SUB DUP2 ADD SWAP1 PUSH2 0x10F SWAP2 SWAP1 PUSH2 0x19F3 JUMP JUMPDEST PUSH2 0x30E JUMP JUMPDEST PUSH1 0x40 MLOAD PUSH2 0x121 SWAP2 SWAP1 PUSH2 0x1A39 JUMP JUMPDEST PUSH1 0x40 MLOAD DUP1 SWAP2 SUB SWAP1 RETURN JUMPDEST PUSH2 0x144 PUSH1 0x4 DUP1 CALLDATASIZE SUB DUP2 ADD SWAP1 PUSH2 0x13F SWAP2 SWAP1 PUSH2 0x1A92 JUMP JUMPDEST PUSH2 0x556 JUMP JUMPDEST PUSH1 0x40 MLOAD PUSH2 0x151 SWAP2 SWAP1 PUSH2 0x1A39 JUMP JUMPDEST PUSH1 0x40 MLOAD DUP1 SWAP2 SUB SWAP1 RETURN JUMPDEST PUSH2 0x174 PUSH1 0x4 DUP1 CALLDATASIZE SUB DUP2 ADD SWAP1 PUSH2 0x16F SWAP2 SWAP1 PUSH2 0x1A92 JUMP JUMPDEST PUSH2 0xD51 JUMP JUMPDEST PUSH1 0x40 MLOAD PUSH2 0x181 SWAP2 SWAP1 PUSH2 0x1A39 JUMP JUMPDEST PUSH1 0x40 MLOAD DUP1 SWAP2 SUB SWAP1 RETURN JUMPDEST PUSH2 0x192 PUSH2 0xDD3 JUMP JUMPDEST PUSH1 0x40 MLOAD PUSH2 0x19F SWAP2 SWAP1 PUSH2 0x1B1E JUMP JUMPDEST PUSH1 0x40 MLOAD DUP1 SWAP2 SUB SWAP1 RETURN JUMPDEST PUSH2 0x1C2 PUSH1 0x4 DUP1 CALLDATASIZE SUB DUP2 ADD SWAP1 PUSH2 0x1BD SWAP2 SWAP1 PUSH2 0x19F3 JUMP JUMPDEST PUSH2 0xDF9 JUMP JUMPDEST PUSH1 0x40 MLOAD PUSH2 0x1CF SWAP2 SWAP1 PUSH2 0x1A39 JUMP JUMPDEST PUSH1 0x40 MLOAD DUP1 SWAP2 SUB SWAP1 RETURN JUMPDEST PUSH2 0x1E0 PUSH2 0xFD0 JUMP JUMPDEST PUSH1 0x40 MLOAD PUSH2 0x1ED SWAP2 SWAP1 PUSH2 0x1B48 JUMP JUMPDEST PUSH1 0x40 MLOAD DUP1 SWAP2 SUB SWAP1 RETURN JUMPDEST PUSH2 0x210 PUSH1 0x4 DUP1 CALLDATASIZE SUB DUP2 ADD SWAP1 PUSH2 0x20B SWAP2 SWAP1 PUSH2 0x1CFA JUMP JUMPDEST PUSH2 0xFF6 JUMP JUMPDEST PUSH1 0x40 MLOAD PUSH2 0x21D SWAP2 SWAP1 PUSH2 0x1A39 JUMP JUMPDEST PUSH1 0x40 MLOAD DUP1 SWAP2 SUB SWAP1 RETURN JUMPDEST PUSH2 0x22E PUSH2 0x10BF JUMP JUMPDEST STOP JUMPDEST PUSH2 0x238 PUSH2 0x1147 JUMP JUMPDEST PUSH1 0x40 MLOAD PUSH2 0x245 SWAP2 SWAP1 PUSH2 0x1B48 JUMP JUMPDEST PUSH1 0x40 MLOAD DUP1 SWAP2 SUB SWAP1 RETURN JUMPDEST PUSH2 0x256 PUSH2 0x1170 JUMP JUMPDEST PUSH1 0x40 MLOAD PUSH2 0x263 SWAP2 SWAP1 PUSH2 0x1B48 JUMP JUMPDEST PUSH1 0x40 MLOAD DUP1 SWAP2 SUB SWAP1 RETURN JUMPDEST PUSH2 0x286 PUSH1 0x4 DUP1 CALLDATASIZE SUB DUP2 ADD SWAP1 PUSH2 0x281 SWAP2 SWAP1 PUSH2 0x1D94 JUMP JUMPDEST PUSH2 0x1196 JUMP JUMPDEST STOP JUMPDEST PUSH2 0x2A2 PUSH1 0x4 DUP1 CALLDATASIZE SUB DUP2 ADD SWAP1 PUSH2 0x29D SWAP2 SWAP1 PUSH2 0x1DED JUMP JUMPDEST PUSH2 0x1256 JUMP JUMPDEST PUSH1 0x40 MLOAD PUSH2 0x2AF SWAP2 SWAP1 PUSH2 0x1A39 JUMP JUMPDEST PUSH1 0x40 MLOAD DUP1 SWAP2 SUB SWAP1 RETURN JUMPDEST PUSH2 0x2D2 PUSH1 0x4 DUP1 CALLDATASIZE SUB DUP2 ADD SWAP1 PUSH2 0x2CD SWAP2 SWAP1 PUSH2 0x1DED JUMP JUMPDEST PUSH2 0x1396 JUMP JUMPDEST PUSH1 0x40 MLOAD PUSH2 0x2DF SWAP2 SWAP1 PUSH2 0x1A39 JUMP JUMPDEST PUSH1 0x40 MLOAD DUP1 SWAP2 SUB SWAP1 RETURN JUMPDEST PUSH2 0x302 PUSH1 0x4 DUP1 CALLDATASIZE SUB DUP2 ADD SWAP1 PUSH2 0x2FD SWAP2 SWAP1 PUSH2 0x19F3 JUMP JUMPDEST PUSH2 0x1637 JUMP JUMPDEST STOP JUMPDEST PUSH2 0x30C PUSH2 0x172E JUMP JUMPDEST STOP JUMPDEST PUSH1 0x0 DUP1 PUSH1 0x3 PUSH8 0xFFFFFFFFFFFFFFFF DUP2 GT ISZERO PUSH2 0x32C JUMPI PUSH2 0x32B PUSH2 0x1BB7 JUMP JUMPDEST JUMPDEST PUSH1 0x40 MLOAD SWAP1 DUP1 DUP3 MSTORE DUP1 PUSH1 0x20 MUL PUSH1 0x20 ADD DUP3 ADD PUSH1 0x40 MSTORE DUP1 ISZERO PUSH2 0x35A JUMPI DUP2 PUSH1 0x20 ADD PUSH1 0x20 DUP3 MUL DUP1 CALLDATASIZE DUP4 CALLDATACOPY DUP1 DUP3 ADD SWAP2 POP POP SWAP1 POP JUMPDEST POP SWAP1 POP DUP3 DUP2 PUSH1 0x0 DUP2 MLOAD DUP2 LT PUSH2 0x372 JUMPI PUSH2 0x371 PUSH2 0x1E54 JUMP JUMPDEST JUMPDEST PUSH1 0x20 MUL PUSH1 0x20 ADD ADD SWAP1 PUSH20 0xFFFFFFFFFFFFFFFFFFFFFFFFFFFFFFFFFFFFFFFF AND SWAP1 DUP2 PUSH20 0xFFFFFFFFFFFFFFFFFFFFFFFFFFFFFFFFFFFFFFFF AND DUP2 MSTORE POP POP PUSH1 0x1 PUSH1 0x0 SWAP1 SLOAD SWAP1 PUSH2 0x100 EXP SWAP1 DIV PUSH20 0xFFFFFFFFFFFFFFFFFFFFFFFFFFFFFFFFFFFFFFFF AND DUP2 PUSH1 0x1 DUP2 MLOAD DUP2 LT PUSH2 0x3E3 JUMPI PUSH2 0x3E2 PUSH2 0x1E54 JUMP JUMPDEST JUMPDEST PUSH1 0x20 MUL PUSH1 0x20 ADD ADD SWAP1 PUSH20 0xFFFFFFFFFFFFFFFFFFFFFFFFFFFFFFFFFFFFFFFF AND SWAP1 DUP2 PUSH20 0xFFFFFFFFFFFFFFFFFFFFFFFFFFFFFFFFFFFFFFFF AND DUP2 MSTORE POP POP PUSH1 0x2 PUSH1 0x0 SWAP1 SLOAD SWAP1 PUSH2 0x100 EXP SWAP1 DIV PUSH20 0xFFFFFFFFFFFFFFFFFFFFFFFFFFFFFFFFFFFFFFFF AND DUP2 PUSH1 0x2 DUP2 MLOAD DUP2 LT PUSH2 0x454 JUMPI PUSH2 0x453 PUSH2 0x1E54 JUMP JUMPDEST JUMPDEST PUSH1 0x20 MUL PUSH1 0x20 ADD ADD SWAP1 PUSH20 0xFFFFFFFFFFFFFFFFFFFFFFFFFFFFFFFFFFFFFFFF AND SWAP1 DUP2 PUSH20 0xFFFFFFFFFFFFFFFFFFFFFFFFFFFFFFFFFFFFFFFF AND DUP2 MSTORE POP POP PUSH1 0x4 PUSH1 0x0 SWAP1 SLOAD SWAP1 PUSH2 0x100 EXP SWAP1 DIV PUSH20 0xFFFFFFFFFFFFFFFFFFFFFFFFFFFFFFFFFFFFFFFF AND PUSH20 0xFFFFFFFFFFFFFFFFFFFFFFFFFFFFFFFFFFFFFFFF AND PUSH4 0xD06CA61F PUSH1 0x3 SLOAD DUP4 PUSH1 0x40 MLOAD DUP4 PUSH4 0xFFFFFFFF AND PUSH1 0xE0 SHL DUP2 MSTORE PUSH1 0x4 ADD PUSH2 0x4ED SWAP3 SWAP2 SWAP1 PUSH2 0x1F41 JUMP JUMPDEST PUSH1 0x0 PUSH1 0x40 MLOAD DUP1 DUP4 SUB DUP2 DUP7 GAS STATICCALL ISZERO DUP1 ISZERO PUSH2 0x50A JUMPI RETURNDATASIZE PUSH1 0x0 DUP1 RETURNDATACOPY RETURNDATASIZE PUSH1 0x0 REVERT JUMPDEST POP POP POP POP PUSH1 0x40 MLOAD RETURNDATASIZE PUSH1 0x0 DUP3 RETURNDATACOPY RETURNDATASIZE PUSH1 0x1F NOT PUSH1 0x1F DUP3 ADD AND DUP3 ADD DUP1 PUSH1 0x40 MSTORE POP DUP2 ADD SWAP1 PUSH2 0x533 SWAP2 SWAP1 PUSH2 0x2049 JUMP JUMPDEST PUSH1 0x2 DUP2 MLOAD DUP2 LT PUSH2 0x546 JUMPI PUSH2 0x545 PUSH2 0x1E54 JUMP JUMPDEST JUMPDEST PUSH1 0x20 MUL PUSH1 0x20 ADD ADD MLOAD SWAP2 POP POP SWAP2 SWAP1 POP JUMP JUMPDEST PUSH1 0x0 DUP1 PUSH1 0x0 DUP4 PUSH20 0xFFFFFFFFFFFFFFFFFFFFFFFFFFFFFFFFFFFFFFFF AND PUSH4 0xDFE1681 PUSH1 0x40 MLOAD DUP2 PUSH4 0xFFFFFFFF AND PUSH1 0xE0 SHL DUP2 MSTORE PUSH1 0x4 ADD PUSH1 0x20 PUSH1 0x40 MLOAD DUP1 DUP4 SUB DUP2 DUP7 GAS STATICCALL ISZERO DUP1 ISZERO PUSH2 0x5A6 JUMPI RETURNDATASIZE PUSH1 0x0 DUP1 RETURNDATACOPY RETURNDATASIZE PUSH1 0x0 REVERT JUMPDEST POP POP POP POP PUSH1 0x40 MLOAD RETURNDATASIZE PUSH1 0x1F NOT PUSH1 0x1F DUP3 ADD AND DUP3 ADD DUP1 PUSH1 0x40 MSTORE POP DUP2 ADD SWAP1 PUSH2 0x5CA SWAP2 SWAP1 PUSH2 0x20D0 JUMP JUMPDEST PUSH20 0xFFFFFFFFFFFFFFFFFFFFFFFFFFFFFFFFFFFFFFFF AND PUSH1 0x1 PUSH1 0x0 SWAP1 SLOAD SWAP1 PUSH2 0x100 EXP SWAP1 DIV PUSH20 0xFFFFFFFFFFFFFFFFFFFFFFFFFFFFFFFFFFFFFFFF AND PUSH20 0xFFFFFFFFFFFFFFFFFFFFFFFFFFFFFFFFFFFFFFFF AND SUB PUSH2 0x795 JUMPI PUSH2 0x78E PUSH2 0x698 DUP6 PUSH20 0xFFFFFFFFFFFFFFFFFFFFFFFFFFFFFFFFFFFFFFFF AND PUSH4 0xDFE1681 PUSH1 0x40 MLOAD DUP2 PUSH4 0xFFFFFFFF AND PUSH1 0xE0 SHL DUP2 MSTORE PUSH1 0x4 ADD PUSH1 0x20 PUSH1 0x40 MLOAD DUP1 DUP4 SUB DUP2 DUP7 GAS STATICCALL ISZERO DUP1 ISZERO PUSH2 0x66F JUMPI RETURNDATASIZE PUSH1 0x0 DUP1 RETURNDATACOPY RETURNDATASIZE PUSH1 0x0 REVERT JUMPDEST POP POP POP POP PUSH1 0x40 MLOAD RETURNDATASIZE PUSH1 0x1F NOT PUSH1 0x1F DUP3 ADD AND DUP3 ADD DUP1 PUSH1 0x40 MSTORE POP DUP2 ADD SWAP1 PUSH2 0x693 SWAP2 SWAP1 PUSH2 0x20D0 JUMP JUMPDEST PUSH2 0xDF9 JUMP JUMPDEST DUP6 PUSH20 0xFFFFFFFFFFFFFFFFFFFFFFFFFFFFFFFFFFFFFFFF AND PUSH4 0xDFE1681 PUSH1 0x40 MLOAD DUP2 PUSH4 0xFFFFFFFF AND PUSH1 0xE0 SHL DUP2 MSTORE PUSH1 0x4 ADD PUSH1 0x20 PUSH1 0x40 MLOAD DUP1 DUP4 SUB DUP2 DUP7 GAS STATICCALL ISZERO DUP1 ISZERO PUSH2 0x6E3 JUMPI RETURNDATASIZE PUSH1 0x0 DUP1 RETURNDATACOPY RETURNDATASIZE PUSH1 0x0 REVERT JUMPDEST POP POP POP POP PUSH1 0x40 MLOAD RETURNDATASIZE PUSH1 0x1F NOT PUSH1 0x1F DUP3 ADD AND DUP3 ADD DUP1 PUSH1 0x40 MSTORE POP DUP2 ADD SWAP1 PUSH2 0x707 SWAP2 SWAP1 PUSH2 0x20D0 JUMP JUMPDEST PUSH20 0xFFFFFFFFFFFFFFFFFFFFFFFFFFFFFFFFFFFFFFFF AND PUSH4 0x70A08231 DUP8 PUSH1 0x40 MLOAD DUP3 PUSH4 0xFFFFFFFF AND PUSH1 0xE0 SHL DUP2 MSTORE PUSH1 0x4 ADD PUSH2 0x73F SWAP2 SWAP1 PUSH2 0x1B48 JUMP JUMPDEST PUSH1 0x20 PUSH1 0x40 MLOAD DUP1 DUP4 SUB DUP2 DUP7 GAS STATICCALL ISZERO DUP1 ISZERO PUSH2 0x75C JUMPI RETURNDATASIZE PUSH1 0x0 DUP1 RETURNDATACOPY RETURNDATASIZE PUSH1 0x0 REVERT JUMPDEST POP POP POP POP PUSH1 0x40 MLOAD RETURNDATASIZE PUSH1 0x1F NOT PUSH1 0x1F DUP3 ADD AND DUP3 ADD DUP1 PUSH1 0x40 MSTORE POP DUP2 ADD SWAP1 PUSH2 0x780 SWAP2 SWAP1 PUSH2 0x20FD JUMP JUMPDEST PUSH2 0x1730 SWAP1 SWAP2 SWAP1 PUSH4 0xFFFFFFFF AND JUMP JUMPDEST SWAP2 POP PUSH2 0x908 JUMP JUMPDEST PUSH2 0x905 PUSH2 0x80F DUP6 PUSH20 0xFFFFFFFFFFFFFFFFFFFFFFFFFFFFFFFFFFFFFFFF AND PUSH4 0xDFE1681 PUSH1 0x40 MLOAD DUP2 PUSH4 0xFFFFFFFF AND PUSH1 0xE0 SHL DUP2 MSTORE PUSH1 0x4 ADD PUSH1 0x20 PUSH1 0x40 MLOAD DUP1 DUP4 SUB DUP2 DUP7 GAS STATICCALL ISZERO DUP1 ISZERO PUSH2 0x7E6 JUMPI RETURNDATASIZE PUSH1 0x0 DUP1 RETURNDATACOPY RETURNDATASIZE PUSH1 0x0 REVERT JUMPDEST POP POP POP POP PUSH1 0x40 MLOAD RETURNDATASIZE PUSH1 0x1F NOT PUSH1 0x1F DUP3 ADD AND DUP3 ADD DUP1 PUSH1 0x40 MSTORE POP DUP2 ADD SWAP1 PUSH2 0x80A SWAP2 SWAP1 PUSH2 0x20D0 JUMP JUMPDEST PUSH2 0x30E JUMP JUMPDEST DUP6 PUSH20 0xFFFFFFFFFFFFFFFFFFFFFFFFFFFFFFFFFFFFFFFF AND PUSH4 0xDFE1681 PUSH1 0x40 MLOAD DUP2 PUSH4 0xFFFFFFFF AND PUSH1 0xE0 SHL DUP2 MSTORE PUSH1 0x4 ADD PUSH1 0x20 PUSH1 0x40 MLOAD DUP1 DUP4 SUB DUP2 DUP7 GAS STATICCALL ISZERO DUP1 ISZERO PUSH2 0x85A JUMPI RETURNDATASIZE PUSH1 0x0 DUP1 RETURNDATACOPY RETURNDATASIZE PUSH1 0x0 REVERT JUMPDEST POP POP POP POP PUSH1 0x40 MLOAD RETURNDATASIZE PUSH1 0x1F NOT PUSH1 0x1F DUP3 ADD AND DUP3 ADD DUP1 PUSH1 0x40 MSTORE POP DUP2 ADD SWAP1 PUSH2 0x87E SWAP2 SWAP1 PUSH2 0x20D0 JUMP JUMPDEST PUSH20 0xFFFFFFFFFFFFFFFFFFFFFFFFFFFFFFFFFFFFFFFF AND PUSH4 0x70A08231 DUP8 PUSH1 0x40 MLOAD DUP3 PUSH4 0xFFFFFFFF AND PUSH1 0xE0 SHL DUP2 MSTORE PUSH1 0x4 ADD PUSH2 0x8B6 SWAP2 SWAP1 PUSH2 0x1B48 JUMP JUMPDEST PUSH1 0x20 PUSH1 0x40 MLOAD DUP1 DUP4 SUB DUP2 DUP7 GAS STATICCALL ISZERO DUP1 ISZERO PUSH2 0x8D3 JUMPI RETURNDATASIZE PUSH1 0x0 DUP1 RETURNDATACOPY RETURNDATASIZE PUSH1 0x0 REVERT JUMPDEST POP POP POP POP PUSH1 0x40 MLOAD RETURNDATASIZE PUSH1 0x1F NOT PUSH1 0x1F DUP3 ADD AND DUP3 ADD DUP1 PUSH1 0x40 MSTORE POP DUP2 ADD SWAP1 PUSH2 0x8F7 SWAP2 SWAP1 PUSH2 0x20FD JUMP JUMPDEST PUSH2 0x1730 SWAP1 SWAP2 SWAP1 PUSH4 0xFFFFFFFF AND JUMP JUMPDEST SWAP2 POP JUMPDEST DUP4 PUSH20 0xFFFFFFFFFFFFFFFFFFFFFFFFFFFFFFFFFFFFFFFF AND PUSH4 0xD21220A7 PUSH1 0x40 MLOAD DUP2 PUSH4 0xFFFFFFFF AND PUSH1 0xE0 SHL DUP2 MSTORE PUSH1 0x4 ADD PUSH1 0x20 PUSH1 0x40 MLOAD DUP1 DUP4 SUB DUP2 DUP7 GAS STATICCALL ISZERO DUP1 ISZERO PUSH2 0x953 JUMPI RETURNDATASIZE PUSH1 0x0 DUP1 RETURNDATACOPY RETURNDATASIZE PUSH1 0x0 REVERT JUMPDEST POP POP POP POP PUSH1 0x40 MLOAD RETURNDATASIZE PUSH1 0x1F NOT PUSH1 0x1F DUP3 ADD AND DUP3 ADD DUP1 PUSH1 0x40 MSTORE POP DUP2 ADD SWAP1 PUSH2 0x977 SWAP2 SWAP1 PUSH2 0x20D0 JUMP JUMPDEST PUSH20 0xFFFFFFFFFFFFFFFFFFFFFFFFFFFFFFFFFFFFFFFF AND PUSH1 0x1 PUSH1 0x0 SWAP1 SLOAD SWAP1 PUSH2 0x100 EXP SWAP1 DIV PUSH20 0xFFFFFFFFFFFFFFFFFFFFFFFFFFFFFFFFFFFFFFFF AND PUSH20 0xFFFFFFFFFFFFFFFFFFFFFFFFFFFFFFFFFFFFFFFF AND SUB PUSH2 0xB42 JUMPI PUSH2 0xB3B PUSH2 0xA45 DUP6 PUSH20 0xFFFFFFFFFFFFFFFFFFFFFFFFFFFFFFFFFFFFFFFF AND PUSH4 0xD21220A7 PUSH1 0x40 MLOAD DUP2 PUSH4 0xFFFFFFFF AND PUSH1 0xE0 SHL DUP2 MSTORE PUSH1 0x4 ADD PUSH1 0x20 PUSH1 0x40 MLOAD DUP1 DUP4 SUB DUP2 DUP7 GAS STATICCALL ISZERO DUP1 ISZERO PUSH2 0xA1C JUMPI RETURNDATASIZE PUSH1 0x0 DUP1 RETURNDATACOPY RETURNDATASIZE PUSH1 0x0 REVERT JUMPDEST POP POP POP POP PUSH1 0x40 MLOAD RETURNDATASIZE PUSH1 0x1F NOT PUSH1 0x1F DUP3 ADD AND DUP3 ADD DUP1 PUSH1 0x40 MSTORE POP DUP2 ADD SWAP1 PUSH2 0xA40 SWAP2 SWAP1 PUSH2 0x20D0 JUMP JUMPDEST PUSH2 0xDF9 JUMP JUMPDEST DUP6 PUSH20 0xFFFFFFFFFFFFFFFFFFFFFFFFFFFFFFFFFFFFFFFF AND PUSH4 0xD21220A7 PUSH1 0x40 MLOAD DUP2 PUSH4 0xFFFFFFFF AND PUSH1 0xE0 SHL DUP2 MSTORE PUSH1 0x4 ADD PUSH1 0x20 PUSH1 0x40 MLOAD DUP1 DUP4 SUB DUP2 DUP7 GAS STATICCALL ISZERO DUP1 ISZERO PUSH2 0xA90 JUMPI RETURNDATASIZE PUSH1 0x0 DUP1 RETURNDATACOPY RETURNDATASIZE PUSH1 0x0 REVERT JUMPDEST POP POP POP POP PUSH1 0x40 MLOAD RETURNDATASIZE PUSH1 0x1F NOT PUSH1 0x1F DUP3 ADD AND DUP3 ADD DUP1 PUSH1 0x40 MSTORE POP DUP2 ADD SWAP1 PUSH2 0xAB4 SWAP2 SWAP1 PUSH2 0x20D0 JUMP JUMPDEST PUSH20 0xFFFFFFFFFFFFFFFFFFFFFFFFFFFFFFFFFFFFFFFF AND PUSH4 0x70A08231 DUP8 PUSH1 0x40 MLOAD DUP3 PUSH4 0xFFFFFFFF AND PUSH1 0xE0 SHL DUP2 MSTORE PUSH1 0x4 ADD PUSH2 0xAEC SWAP2 SWAP1 PUSH2 0x1B48 JUMP JUMPDEST PUSH1 0x20 PUSH1 0x40 MLOAD DUP1 DUP4 SUB DUP2 DUP7 GAS STATICCALL ISZERO DUP1 ISZERO PUSH2 0xB09 JUMPI RETURNDATASIZE PUSH1 0x0 DUP1 RETURNDATACOPY RETURNDATASIZE PUSH1 0x0 REVERT JUMPDEST POP POP POP POP PUSH1 0x40 MLOAD RETURNDATASIZE PUSH1 0x1F NOT PUSH1 0x1F DUP3 ADD AND DUP3 ADD DUP1 PUSH1 0x40 MSTORE POP DUP2 ADD SWAP1 PUSH2 0xB2D SWAP2 SWAP1 PUSH2 0x20FD JUMP JUMPDEST PUSH2 0x1730 SWAP1 SWAP2 SWAP1 PUSH4 0xFFFFFFFF AND JUMP JUMPDEST SWAP1 POP PUSH2 0xCB5 JUMP JUMPDEST PUSH2 0xCB2 PUSH2 0xBBC DUP6 PUSH20 0xFFFFFFFFFFFFFFFFFFFFFFFFFFFFFFFFFFFFFFFF AND PUSH4 0xD21220A7 PUSH1 0x40 MLOAD DUP2 PUSH4 0xFFFFFFFF AND PUSH1 0xE0 SHL DUP2 MSTORE PUSH1 0x4 ADD PUSH1 0x20 PUSH1 0x40 MLOAD DUP1 DUP4 SUB DUP2 DUP7 GAS STATICCALL ISZERO DUP1 ISZERO PUSH2 0xB93 JUMPI RETURNDATASIZE PUSH1 0x0 DUP1 RETURNDATACOPY RETURNDATASIZE PUSH1 0x0 REVERT JUMPDEST POP POP POP POP PUSH1 0x40 MLOAD RETURNDATASIZE PUSH1 0x1F NOT PUSH1 0x1F DUP3 ADD AND DUP3 ADD DUP1 PUSH1 0x40 MSTORE POP DUP2 ADD SWAP1 PUSH2 0xBB7 SWAP2 SWAP1 PUSH2 0x20D0 JUMP JUMPDEST PUSH2 0x30E JUMP JUMPDEST DUP6 PUSH20 0xFFFFFFFFFFFFFFFFFFFFFFFFFFFFFFFFFFFFFFFF AND PUSH4 0xD21220A7 PUSH1 0x40 MLOAD DUP2 PUSH4 0xFFFFFFFF AND PUSH1 0xE0 SHL DUP2 MSTORE PUSH1 0x4 ADD PUSH1 0x20 PUSH1 0x40 MLOAD DUP1 DUP4 SUB DUP2 DUP7 GAS STATICCALL ISZERO DUP1 ISZERO PUSH2 0xC07 JUMPI RETURNDATASIZE PUSH1 0x0 DUP1 RETURNDATACOPY RETURNDATASIZE PUSH1 0x0 REVERT JUMPDEST POP POP POP POP PUSH1 0x40 MLOAD RETURNDATASIZE PUSH1 0x1F NOT PUSH1 0x1F DUP3 ADD AND DUP3 ADD DUP1 PUSH1 0x40 MSTORE POP DUP2 ADD SWAP1 PUSH2 0xC2B SWAP2 SWAP1 PUSH2 0x20D0 JUMP JUMPDEST PUSH20 0xFFFFFFFFFFFFFFFFFFFFFFFFFFFFFFFFFFFFFFFF AND PUSH4 0x70A08231 DUP8 PUSH1 0x40 MLOAD DUP3 PUSH4 0xFFFFFFFF AND PUSH1 0xE0 SHL DUP2 MSTORE PUSH1 0x4 ADD PUSH2 0xC63 SWAP2 SWAP1 PUSH2 0x1B48 JUMP JUMPDEST PUSH1 0x20 PUSH1 0x40 MLOAD DUP1 DUP4 SUB DUP2 DUP7 GAS STATICCALL ISZERO DUP1 ISZERO PUSH2 0xC80 JUMPI RETURNDATASIZE PUSH1 0x0 DUP1 RETURNDATACOPY RETURNDATASIZE PUSH1 0x0 REVERT JUMPDEST POP POP POP POP PUSH1 0x40 MLOAD RETURNDATASIZE PUSH1 0x1F NOT PUSH1 0x1F DUP3 ADD AND DUP3 ADD DUP1 PUSH1 0x40 MSTORE POP DUP2 ADD SWAP1 PUSH2 0xCA4 SWAP2 SWAP1 PUSH2 0x20FD JUMP JUMPDEST PUSH2 0x1730 SWAP1 SWAP2 SWAP1 PUSH4 0xFFFFFFFF AND JUMP JUMPDEST SWAP1 POP JUMPDEST PUSH2 0xD48 DUP5 PUSH20 0xFFFFFFFFFFFFFFFFFFFFFFFFFFFFFFFFFFFFFFFF AND PUSH4 0x18160DDD PUSH1 0x40 MLOAD DUP2 PUSH4 0xFFFFFFFF AND PUSH1 0xE0 SHL DUP2 MSTORE PUSH1 0x4 ADD PUSH1 0x20 PUSH1 0x40 MLOAD DUP1 DUP4 SUB DUP2 DUP7 GAS STATICCALL ISZERO DUP1 ISZERO PUSH2 0xD03 JUMPI RETURNDATASIZE PUSH1 0x0 DUP1 RETURNDATACOPY RETURNDATASIZE PUSH1 0x0 REVERT JUMPDEST POP POP POP POP PUSH1 0x40 MLOAD RETURNDATASIZE PUSH1 0x1F NOT PUSH1 0x1F DUP3 ADD AND DUP3 ADD DUP1 PUSH1 0x40 MSTORE POP DUP2 ADD SWAP1 PUSH2 0xD27 SWAP2 SWAP1 PUSH2 0x20FD JUMP JUMPDEST PUSH2 0xD3A DUP4 DUP6 PUSH2 0x17AA SWAP1 SWAP2 SWAP1 PUSH4 0xFFFFFFFF AND JUMP JUMPDEST PUSH2 0x1808 SWAP1 SWAP2 SWAP1 PUSH4 0xFFFFFFFF AND JUMP JUMPDEST SWAP3 POP POP POP SWAP2 SWAP1 POP JUMP JUMPDEST PUSH1 0x0 DUP2 PUSH20 0xFFFFFFFFFFFFFFFFFFFFFFFFFFFFFFFFFFFFFFFF AND PUSH4 0xDFE1681 PUSH1 0x40 MLOAD DUP2 PUSH4 0xFFFFFFFF AND PUSH1 0xE0 SHL DUP2 MSTORE PUSH1 0x4 ADD PUSH1 0x20 PUSH1 0x40 MLOAD DUP1 DUP4 SUB DUP2 DUP7 GAS STATICCALL SWAP3 POP POP POP DUP1 ISZERO PUSH2 0xDBB JUMPI POP PUSH1 0x40 MLOAD RETURNDATASIZE PUSH1 0x1F NOT PUSH1 0x1F DUP3 ADD AND DUP3 ADD DUP1 PUSH1 0x40 MSTORE POP DUP2 ADD SWAP1 PUSH2 0xDB8 SWAP2 SWAP1 PUSH2 0x20D0 JUMP JUMPDEST PUSH1 0x1 JUMPDEST PUSH2 0xDC8 JUMPI PUSH1 0x0 SWAP1 POP PUSH2 0xDCE JUMP JUMPDEST POP PUSH1 0x1 SWAP1 POP JUMPDEST SWAP2 SWAP1 POP JUMP JUMPDEST PUSH1 0x4 PUSH1 0x0 SWAP1 SLOAD SWAP1 PUSH2 0x100 EXP SWAP1 DIV PUSH20 0xFFFFFFFFFFFFFFFFFFFFFFFFFFFFFFFFFFFFFFFF AND DUP2 JUMP JUMPDEST PUSH1 0x0 DUP1 PUSH1 0x2 PUSH8 0xFFFFFFFFFFFFFFFF DUP2 GT ISZERO PUSH2 0xE17 JUMPI PUSH2 0xE16 PUSH2 0x1BB7 JUMP JUMPDEST JUMPDEST PUSH1 0x40 MLOAD SWAP1 DUP1 DUP3 MSTORE DUP1 PUSH1 0x20 MUL PUSH1 0x20 ADD DUP3 ADD PUSH1 0x40 MSTORE DUP1 ISZERO PUSH2 0xE45 JUMPI DUP2 PUSH1 0x20 ADD PUSH1 0x20 DUP3 MUL DUP1 CALLDATASIZE DUP4 CALLDATACOPY DUP1 DUP3 ADD SWAP2 POP POP SWAP1 POP JUMPDEST POP SWAP1 POP DUP3 DUP2 PUSH1 0x0 DUP2 MLOAD DUP2 LT PUSH2 0xE5D JUMPI PUSH2 0xE5C PUSH2 0x1E54 JUMP JUMPDEST JUMPDEST PUSH1 0x20 MUL PUSH1 0x20 ADD ADD SWAP1 PUSH20 0xFFFFFFFFFFFFFFFFFFFFFFFFFFFFFFFFFFFFFFFF AND SWAP1 DUP2 PUSH20 0xFFFFFFFFFFFFFFFFFFFFFFFFFFFFFFFFFFFFFFFF AND DUP2 MSTORE POP POP PUSH1 0x2 PUSH1 0x0 SWAP1 SLOAD SWAP1 PUSH2 0x100 EXP SWAP1 DIV PUSH20 0xFFFFFFFFFFFFFFFFFFFFFFFFFFFFFFFFFFFFFFFF AND DUP2 PUSH1 0x1 DUP2 MLOAD DUP2 LT PUSH2 0xECE JUMPI PUSH2 0xECD PUSH2 0x1E54 JUMP JUMPDEST JUMPDEST PUSH1 0x20 MUL PUSH1 0x20 ADD ADD SWAP1 PUSH20 0xFFFFFFFFFFFFFFFFFFFFFFFFFFFFFFFFFFFFFFFF AND SWAP1 DUP2 PUSH20 0xFFFFFFFFFFFFFFFFFFFFFFFFFFFFFFFFFFFFFFFF AND DUP2 MSTORE POP POP PUSH1 0x4 PUSH1 0x0 SWAP1 SLOAD SWAP1 PUSH2 0x100 EXP SWAP1 DIV PUSH20 0xFFFFFFFFFFFFFFFFFFFFFFFFFFFFFFFFFFFFFFFF AND PUSH20 0xFFFFFFFFFFFFFFFFFFFFFFFFFFFFFFFFFFFFFFFF AND PUSH4 0xD06CA61F PUSH1 0x3 SLOAD DUP4 PUSH1 0x40 MLOAD DUP4 PUSH4 0xFFFFFFFF AND PUSH1 0xE0 SHL DUP2 MSTORE PUSH1 0x4 ADD PUSH2 0xF67 SWAP3 SWAP2 SWAP1 PUSH2 0x1F41 JUMP JUMPDEST PUSH1 0x0 PUSH1 0x40 MLOAD DUP1 DUP4 SUB DUP2 DUP7 GAS STATICCALL ISZERO DUP1 ISZERO PUSH2 0xF84 JUMPI RETURNDATASIZE PUSH1 0x0 DUP1 RETURNDATACOPY RETURNDATASIZE PUSH1 0x0 REVERT JUMPDEST POP POP POP POP PUSH1 0x40 MLOAD RETURNDATASIZE PUSH1 0x0 DUP3 RETURNDATACOPY RETURNDATASIZE PUSH1 0x1F NOT PUSH1 0x1F DUP3 ADD AND DUP3 ADD DUP1 PUSH1 0x40 MSTORE POP DUP2 ADD SWAP1 PUSH2 0xFAD SWAP2 SWAP1 PUSH2 0x2049 JUMP JUMPDEST PUSH1 0x1 DUP2 MLOAD DUP2 LT PUSH2 0xFC0 JUMPI PUSH2 0xFBF PUSH2 0x1E54 JUMP JUMPDEST JUMPDEST PUSH1 0x20 MUL PUSH1 0x20 ADD ADD MLOAD SWAP2 POP POP SWAP2 SWAP1 POP JUMP JUMPDEST PUSH1 0x2 PUSH1 0x0 SWAP1 SLOAD SWAP1 PUSH2 0x100 EXP SWAP1 DIV PUSH20 0xFFFFFFFFFFFFFFFFFFFFFFFFFFFFFFFFFFFFFFFF AND DUP2 JUMP JUMPDEST PUSH1 0x0 DUP1 PUSH1 0x0 SWAP1 POP PUSH1 0x0 JUMPDEST DUP4 MLOAD DUP2 LT ISZERO PUSH2 0x10B4 JUMPI PUSH1 0x1 PUSH2 0x102E DUP6 DUP4 DUP2 MLOAD DUP2 LT PUSH2 0x1021 JUMPI PUSH2 0x1020 PUSH2 0x1E54 JUMP JUMPDEST JUMPDEST PUSH1 0x20 MUL PUSH1 0x20 ADD ADD MLOAD PUSH2 0xD51 JUMP JUMPDEST SUB PUSH2 0x106C JUMPI PUSH2 0x105A DUP2 DUP6 DUP4 DUP2 MLOAD DUP2 LT PUSH2 0x104A JUMPI PUSH2 0x1049 PUSH2 0x1E54 JUMP JUMPDEST JUMPDEST PUSH1 0x20 MUL PUSH1 0x20 ADD ADD MLOAD PUSH1 0x1 DUP9 PUSH2 0x1256 JUMP JUMPDEST DUP3 PUSH2 0x1065 SWAP2 SWAP1 PUSH2 0x2159 JUMP JUMPDEST SWAP2 POP PUSH2 0x10A1 JUMP JUMPDEST PUSH2 0x1093 DUP2 DUP6 DUP4 DUP2 MLOAD DUP2 LT PUSH2 0x1083 JUMPI PUSH2 0x1082 PUSH2 0x1E54 JUMP JUMPDEST JUMPDEST PUSH1 0x20 MUL PUSH1 0x20 ADD ADD MLOAD PUSH1 0x0 DUP9 PUSH2 0x1256 JUMP JUMPDEST DUP3 PUSH2 0x109E SWAP2 SWAP1 PUSH2 0x2159 JUMP JUMPDEST SWAP2 POP JUMPDEST DUP1 DUP1 PUSH2 0x10AC SWAP1 PUSH2 0x21AF JUMP JUMPDEST SWAP2 POP POP PUSH2 0x1000 JUMP JUMPDEST POP DUP1 SWAP2 POP POP SWAP3 SWAP2 POP POP JUMP JUMPDEST PUSH2 0x10C7 PUSH2 0x1852 JUMP JUMPDEST PUSH20 0xFFFFFFFFFFFFFFFFFFFFFFFFFFFFFFFFFFFFFFFF AND PUSH2 0x10E5 PUSH2 0x1147 JUMP JUMPDEST PUSH20 0xFFFFFFFFFFFFFFFFFFFFFFFFFFFFFFFFFFFFFFFF AND EQ PUSH2 0x113B JUMPI PUSH1 0x40 MLOAD PUSH32 0x8C379A000000000000000000000000000000000000000000000000000000000 DUP2 MSTORE PUSH1 0x4 ADD PUSH2 0x1132 SWAP1 PUSH2 0x2254 JUMP JUMPDEST PUSH1 0x40 MLOAD DUP1 SWAP2 SUB SWAP1 REVERT JUMPDEST PUSH2 0x1145 PUSH1 0x0 PUSH2 0x185A JUMP JUMPDEST JUMP JUMPDEST PUSH1 0x0 DUP1 PUSH1 0x0 SWAP1 SLOAD SWAP1 PUSH2 0x100 EXP SWAP1 DIV PUSH20 0xFFFFFFFFFFFFFFFFFFFFFFFFFFFFFFFFFFFFFFFF AND SWAP1 POP SWAP1 JUMP JUMPDEST PUSH1 0x1 PUSH1 0x0 SWAP1 SLOAD SWAP1 PUSH2 0x100 EXP SWAP1 DIV PUSH20 0xFFFFFFFFFFFFFFFFFFFFFFFFFFFFFFFFFFFFFFFF AND DUP2 JUMP JUMPDEST PUSH2 0x119E PUSH2 0x1852 JUMP JUMPDEST PUSH20 0xFFFFFFFFFFFFFFFFFFFFFFFFFFFFFFFFFFFFFFFF AND PUSH2 0x11BC PUSH2 0x1147 JUMP JUMPDEST PUSH20 0xFFFFFFFFFFFFFFFFFFFFFFFFFFFFFFFFFFFFFFFF AND EQ PUSH2 0x1212 JUMPI PUSH1 0x40 MLOAD PUSH32 0x8C379A000000000000000000000000000000000000000000000000000000000 DUP2 MSTORE PUSH1 0x4 ADD PUSH2 0x1209 SWAP1 PUSH2 0x2254 JUMP JUMPDEST PUSH1 0x40 MLOAD DUP1 SWAP2 SUB SWAP1 REVERT JUMPDEST DUP1 PUSH1 0x4 PUSH1 0x0 PUSH2 0x100 EXP DUP2 SLOAD DUP2 PUSH20 0xFFFFFFFFFFFFFFFFFFFFFFFFFFFFFFFFFFFFFFFF MUL NOT AND SWAP1 DUP4 PUSH20 0xFFFFFFFFFFFFFFFFFFFFFFFFFFFFFFFFFFFFFFFF AND MUL OR SWAP1 SSTORE POP POP JUMP JUMPDEST PUSH1 0x0 DUP1 DUP3 PUSH20 0xFFFFFFFFFFFFFFFFFFFFFFFFFFFFFFFFFFFFFFFF AND PUSH4 0x6A6D964E DUP8 PUSH1 0x40 MLOAD DUP3 PUSH4 0xFFFFFFFF AND PUSH1 0xE0 SHL DUP2 MSTORE PUSH1 0x4 ADD PUSH2 0x1292 SWAP2 SWAP1 PUSH2 0x1A39 JUMP JUMPDEST PUSH1 0x20 PUSH1 0x40 MLOAD DUP1 DUP4 SUB DUP2 DUP7 GAS STATICCALL ISZERO DUP1 ISZERO PUSH2 0x12AF JUMPI RETURNDATASIZE PUSH1 0x0 DUP1 RETURNDATACOPY RETURNDATASIZE PUSH1 0x0 REVERT JUMPDEST POP POP POP POP PUSH1 0x40 MLOAD RETURNDATASIZE PUSH1 0x1F NOT PUSH1 0x1F DUP3 ADD AND DUP3 ADD DUP1 PUSH1 0x40 MSTORE POP DUP2 ADD SWAP1 PUSH2 0x12D3 SWAP2 SWAP1 PUSH2 0x20FD JUMP JUMPDEST SWAP1 POP PUSH1 0x0 PUSH1 0x1 DUP6 SUB PUSH2 0x12EF JUMPI PUSH2 0x12E8 DUP7 PUSH2 0x556 JUMP JUMPDEST SWAP1 POP PUSH2 0x136A JUMP JUMPDEST PUSH1 0x0 DUP6 SUB PUSH2 0x1369 JUMPI DUP6 PUSH20 0xFFFFFFFFFFFFFFFFFFFFFFFFFFFFFFFFFFFFFFFF AND PUSH1 0x1 PUSH1 0x0 SWAP1 SLOAD SWAP1 PUSH2 0x100 EXP SWAP1 DIV PUSH20 0xFFFFFFFFFFFFFFFFFFFFFFFFFFFFFFFFFFFFFFFF AND PUSH20 0xFFFFFFFFFFFFFFFFFFFFFFFFFFFFFFFFFFFFFFFF AND SUB PUSH2 0x135C JUMPI PUSH2 0x1355 DUP7 PUSH2 0xDF9 JUMP JUMPDEST SWAP1 POP PUSH2 0x1368 JUMP JUMPDEST PUSH2 0x1365 DUP7 PUSH2 0x30E JUMP JUMPDEST SWAP1 POP JUMPDEST JUMPDEST JUMPDEST PUSH2 0x138A PUSH1 0x3 SLOAD DUP3 DUP5 PUSH2 0x137C SWAP2 SWAP1 PUSH2 0x2274 JUMP JUMPDEST PUSH2 0x1808 SWAP1 SWAP2 SWAP1 PUSH4 0xFFFFFFFF AND JUMP JUMPDEST SWAP3 POP POP POP SWAP5 SWAP4 POP POP POP POP JUMP JUMPDEST PUSH1 0x0 DUP1 DUP3 PUSH20 0xFFFFFFFFFFFFFFFFFFFFFFFFFFFFFFFFFFFFFFFF AND PUSH4 0x1526FE27 DUP8 PUSH1 0x40 MLOAD DUP3 PUSH4 0xFFFFFFFF AND PUSH1 0xE0 SHL DUP2 MSTORE PUSH1 0x4 ADD PUSH2 0x13D2 SWAP2 SWAP1 PUSH2 0x1A39 JUMP JUMPDEST PUSH1 0xC0 PUSH1 0x40 MLOAD DUP1 DUP4 SUB DUP2 DUP7 GAS STATICCALL ISZERO DUP1 ISZERO PUSH2 0x13EF JUMPI RETURNDATASIZE PUSH1 0x0 DUP1 RETURNDATACOPY RETURNDATASIZE PUSH1 0x0 REVERT JUMPDEST POP POP POP POP PUSH1 0x40 MLOAD RETURNDATASIZE PUSH1 0x1F NOT PUSH1 0x1F DUP3 ADD AND DUP3 ADD DUP1 PUSH1 0x40 MSTORE POP DUP2 ADD SWAP1 PUSH2 0x1413 SWAP2 SWAP1 PUSH2 0x23B1 JUMP JUMPDEST SWAP1 POP PUSH1 0x0 PUSH2 0x14B0 DUP5 PUSH20 0xFFFFFFFFFFFFFFFFFFFFFFFFFFFFFFFFFFFFFFFF AND PUSH4 0x17CAF6F1 PUSH1 0x40 MLOAD DUP2 PUSH4 0xFFFFFFFF AND PUSH1 0xE0 SHL DUP2 MSTORE PUSH1 0x4 ADD PUSH1 0x20 PUSH1 0x40 MLOAD DUP1 DUP4 SUB DUP2 DUP7 GAS STATICCALL ISZERO DUP1 ISZERO PUSH2 0x1465 JUMPI RETURNDATASIZE PUSH1 0x0 DUP1 RETURNDATACOPY RETURNDATASIZE PUSH1 0x0 REVERT JUMPDEST POP POP POP POP PUSH1 0x40 MLOAD RETURNDATASIZE PUSH1 0x1F NOT PUSH1 0x1F DUP3 ADD AND DUP3 ADD DUP1 PUSH1 0x40 MSTORE POP DUP2 ADD SWAP1 PUSH2 0x1489 SWAP2 SWAP1 PUSH2 0x20FD JUMP JUMPDEST PUSH2 0x14A2 PUSH1 0x3 SLOAD DUP6 PUSH1 0x20 ADD MLOAD PUSH2 0x1730 SWAP1 SWAP2 SWAP1 PUSH4 0xFFFFFFFF AND JUMP JUMPDEST PUSH2 0x1808 SWAP1 SWAP2 SWAP1 PUSH4 0xFFFFFFFF AND JUMP JUMPDEST SWAP1 POP PUSH1 0x0 PUSH2 0x152B DUP6 PUSH20 0xFFFFFFFFFFFFFFFFFFFFFFFFFFFFFFFFFFFFFFFF AND PUSH4 0x141AA0BA PUSH1 0x40 MLOAD DUP2 PUSH4 0xFFFFFFFF AND PUSH1 0xE0 SHL DUP2 MSTORE PUSH1 0x4 ADD PUSH1 0x20 PUSH1 0x40 MLOAD DUP1 DUP4 SUB DUP2 DUP7 GAS STATICCALL ISZERO DUP1 ISZERO PUSH2 0x1502 JUMPI RETURNDATASIZE PUSH1 0x0 DUP1 RETURNDATACOPY RETURNDATASIZE PUSH1 0x0 REVERT JUMPDEST POP POP POP POP PUSH1 0x40 MLOAD RETURNDATASIZE PUSH1 0x1F NOT PUSH1 0x1F DUP3 ADD AND DUP3 ADD DUP1 PUSH1 0x40 MSTORE POP DUP2 ADD SWAP1 PUSH2 0x1526 SWAP2 SWAP1 PUSH2 0x23F3 JUMP JUMPDEST PUSH2 0x30E JUMP JUMPDEST SWAP1 POP PUSH1 0x0 PUSH2 0x15B2 DUP7 PUSH20 0xFFFFFFFFFFFFFFFFFFFFFFFFFFFFFFFFFFFFFFFF AND PUSH4 0xA1EEF821 PUSH1 0x40 MLOAD DUP2 PUSH4 0xFFFFFFFF AND PUSH1 0xE0 SHL DUP2 MSTORE PUSH1 0x4 ADD PUSH1 0x20 PUSH1 0x40 MLOAD DUP1 DUP4 SUB DUP2 DUP7 GAS STATICCALL ISZERO DUP1 ISZERO PUSH2 0x157D JUMPI RETURNDATASIZE PUSH1 0x0 DUP1 RETURNDATACOPY RETURNDATASIZE PUSH1 0x0 REVERT JUMPDEST POP POP POP POP PUSH1 0x40 MLOAD RETURNDATASIZE PUSH1 0x1F NOT PUSH1 0x1F DUP3 ADD AND DUP3 ADD DUP1 PUSH1 0x40 MSTORE POP DUP2 ADD SWAP1 PUSH2 0x15A1 SWAP2 SWAP1 PUSH2 0x20FD JUMP JUMPDEST PUSH1 0x5 SLOAD PUSH2 0x1730 SWAP1 SWAP2 SWAP1 PUSH4 0xFFFFFFFF AND JUMP JUMPDEST SWAP1 POP PUSH1 0x0 PUSH2 0x15DD PUSH1 0x3 SLOAD PUSH2 0x15CF DUP7 DUP6 PUSH2 0x1730 SWAP1 SWAP2 SWAP1 PUSH4 0xFFFFFFFF AND JUMP JUMPDEST PUSH2 0x1808 SWAP1 SWAP2 SWAP1 PUSH4 0xFFFFFFFF AND JUMP JUMPDEST SWAP1 POP PUSH1 0x0 PUSH2 0x15ED DUP12 DUP12 DUP12 DUP12 PUSH2 0x1256 JUMP JUMPDEST SWAP1 POP PUSH2 0x1627 PUSH1 0x64 PUSH2 0x1619 DUP4 PUSH2 0x160B DUP9 DUP8 PUSH2 0x1730 SWAP1 SWAP2 SWAP1 PUSH4 0xFFFFFFFF AND JUMP JUMPDEST PUSH2 0x1808 SWAP1 SWAP2 SWAP1 PUSH4 0xFFFFFFFF AND JUMP JUMPDEST PUSH2 0x1730 SWAP1 SWAP2 SWAP1 PUSH4 0xFFFFFFFF AND JUMP JUMPDEST SWAP7 POP POP POP POP POP POP POP SWAP5 SWAP4 POP POP POP POP JUMP JUMPDEST PUSH2 0x163F PUSH2 0x1852 JUMP JUMPDEST PUSH20 0xFFFFFFFFFFFFFFFFFFFFFFFFFFFFFFFFFFFFFFFF AND PUSH2 0x165D PUSH2 0x1147 JUMP JUMPDEST PUSH20 0xFFFFFFFFFFFFFFFFFFFFFFFFFFFFFFFFFFFFFFFF AND EQ PUSH2 0x16B3 JUMPI PUSH1 0x40 MLOAD PUSH32 0x8C379A000000000000000000000000000000000000000000000000000000000 DUP2 MSTORE PUSH1 0x4 ADD PUSH2 0x16AA SWAP1 PUSH2 0x2254 JUMP JUMPDEST PUSH1 0x40 MLOAD DUP1 SWAP2 SUB SWAP1 REVERT JUMPDEST PUSH1 0x0 PUSH20 0xFFFFFFFFFFFFFFFFFFFFFFFFFFFFFFFFFFFFFFFF AND DUP2 PUSH20 0xFFFFFFFFFFFFFFFFFFFFFFFFFFFFFFFFFFFFFFFF AND SUB PUSH2 0x1722 JUMPI PUSH1 0x40 MLOAD PUSH32 0x8C379A000000000000000000000000000000000000000000000000000000000 DUP2 MSTORE PUSH1 0x4 ADD PUSH2 0x1719 SWAP1 PUSH2 0x2492 JUMP JUMPDEST PUSH1 0x40 MLOAD DUP1 SWAP2 SUB SWAP1 REVERT JUMPDEST PUSH2 0x172B DUP2 PUSH2 0x185A JUMP JUMPDEST POP JUMP JUMPDEST JUMP JUMPDEST PUSH1 0x0 DUP1 DUP4 SUB PUSH2 0x1742 JUMPI PUSH1 0x0 SWAP1 POP PUSH2 0x17A4 JUMP JUMPDEST PUSH1 0x0 DUP3 DUP5 PUSH2 0x1750 SWAP2 SWAP1 PUSH2 0x2274 JUMP JUMPDEST SWAP1 POP DUP3 DUP5 DUP3 PUSH2 0x175F SWAP2 SWAP1 PUSH2 0x24E1 JUMP JUMPDEST EQ PUSH2 0x179F JUMPI PUSH1 0x40 MLOAD PUSH32 0x8C379A000000000000000000000000000000000000000000000000000000000 DUP2 MSTORE PUSH1 0x4 ADD PUSH2 0x1796 SWAP1 PUSH2 0x2584 JUMP JUMPDEST PUSH1 0x40 MLOAD DUP1 SWAP2 SUB SWAP1 REVERT JUMPDEST DUP1 SWAP2 POP POP JUMPDEST SWAP3 SWAP2 POP POP JUMP JUMPDEST PUSH1 0x0 DUP1 DUP3 DUP5 PUSH2 0x17B9 SWAP2 SWAP1 PUSH2 0x2159 JUMP JUMPDEST SWAP1 POP DUP4 DUP2 LT ISZERO PUSH2 0x17FE JUMPI PUSH1 0x40 MLOAD PUSH32 0x8C379A000000000000000000000000000000000000000000000000000000000 DUP2 MSTORE PUSH1 0x4 ADD PUSH2 0x17F5 SWAP1 PUSH2 0x25F0 JUMP JUMPDEST PUSH1 0x40 MLOAD DUP1 SWAP2 SUB SWAP1 REVERT JUMPDEST DUP1 SWAP2 POP POP SWAP3 SWAP2 POP POP JUMP JUMPDEST PUSH1 0x0 PUSH2 0x184A DUP4 DUP4 PUSH1 0x40 MLOAD DUP1 PUSH1 0x40 ADD PUSH1 0x40 MSTORE DUP1 PUSH1 0x1A DUP2 MSTORE PUSH1 0x20 ADD PUSH32 0x536166654D6174683A206469766973696F6E206279207A65726F000000000000 DUP2 MSTORE POP PUSH2 0x191E JUMP JUMPDEST SWAP1 POP SWAP3 SWAP2 POP POP JUMP JUMPDEST PUSH1 0x0 CALLER SWAP1 POP SWAP1 JUMP JUMPDEST PUSH1 0x0 DUP1 PUSH1 0x0 SWAP1 SLOAD SWAP1 PUSH2 0x100 EXP SWAP1 DIV PUSH20 0xFFFFFFFFFFFFFFFFFFFFFFFFFFFFFFFFFFFFFFFF AND SWAP1 POP DUP2 PUSH1 0x0 DUP1 PUSH2 0x100 EXP DUP2 SLOAD DUP2 PUSH20 0xFFFFFFFFFFFFFFFFFFFFFFFFFFFFFFFFFFFFFFFF MUL NOT AND SWAP1 DUP4 PUSH20 0xFFFFFFFFFFFFFFFFFFFFFFFFFFFFFFFFFFFFFFFF AND MUL OR SWAP1 SSTORE POP DUP2 PUSH20 0xFFFFFFFFFFFFFFFFFFFFFFFFFFFFFFFFFFFFFFFF AND DUP2 PUSH20 0xFFFFFFFFFFFFFFFFFFFFFFFFFFFFFFFFFFFFFFFF AND PUSH32 0x8BE0079C531659141344CD1FD0A4F28419497F9722A3DAAFE3B4186F6B6457E0 PUSH1 0x40 MLOAD PUSH1 0x40 MLOAD DUP1 SWAP2 SUB SWAP1 LOG3 POP POP JUMP JUMPDEST PUSH1 0x0 DUP1 DUP4 GT DUP3 SWAP1 PUSH2 0x1965 JUMPI PUSH1 0x40 MLOAD PUSH32 0x8C379A000000000000000000000000000000000000000000000000000000000 DUP2 MSTORE PUSH1 0x4 ADD PUSH2 0x195C SWAP2 SWAP1 PUSH2 0x2687 JUMP JUMPDEST PUSH1 0x40 MLOAD DUP1 SWAP2 SUB SWAP1 REVERT JUMPDEST POP PUSH1 0x0 DUP4 DUP6 PUSH2 0x1974 SWAP2 SWAP1 PUSH2 0x24E1 JUMP JUMPDEST SWAP1 POP DUP1 SWAP2 POP POP SWAP4 SWAP3 POP POP POP JUMP JUMPDEST PUSH1 0x0 PUSH1 0x40 MLOAD SWAP1 POP SWAP1 JUMP JUMPDEST PUSH1 0x0 DUP1 REVERT JUMPDEST PUSH1 0x0 DUP1 REVERT JUMPDEST PUSH1 0x0 PUSH20 0xFFFFFFFFFFFFFFFFFFFFFFFFFFFFFFFFFFFFFFFF DUP3 AND SWAP1 POP SWAP2 SWAP1 POP JUMP JUMPDEST PUSH1 0x0 PUSH2 0x19C0 DUP3 PUSH2 0x1995 JUMP JUMPDEST SWAP1 POP SWAP2 SWAP1 POP JUMP JUMPDEST PUSH2 0x19D0 DUP2 PUSH2 0x19B5 JUMP JUMPDEST DUP2 EQ PUSH2 0x19DB JUMPI PUSH1 0x0 DUP1 REVERT JUMPDEST POP JUMP JUMPDEST PUSH1 0x0 DUP2 CALLDATALOAD SWAP1 POP PUSH2 0x19ED DUP2 PUSH2 0x19C7 JUMP JUMPDEST SWAP3 SWAP2 POP POP JUMP JUMPDEST PUSH1 0x0 PUSH1 0x20 DUP3 DUP5 SUB SLT ISZERO PUSH2 0x1A09 JUMPI PUSH2 0x1A08 PUSH2 0x198B JUMP JUMPDEST JUMPDEST PUSH1 0x0 PUSH2 0x1A17 DUP5 DUP3 DUP6 ADD PUSH2 0x19DE JUMP JUMPDEST SWAP2 POP POP SWAP3 SWAP2 POP POP JUMP JUMPDEST PUSH1 0x0 DUP2 SWAP1 POP SWAP2 SWAP1 POP JUMP JUMPDEST PUSH2 0x1A33 DUP2 PUSH2 0x1A20 JUMP JUMPDEST DUP3 MSTORE POP POP JUMP JUMPDEST PUSH1 0x0 PUSH1 0x20 DUP3 ADD SWAP1 POP PUSH2 0x1A4E PUSH1 0x0 DUP4 ADD DUP5 PUSH2 0x1A2A JUMP JUMPDEST SWAP3 SWAP2 POP POP JUMP JUMPDEST PUSH1 0x0 PUSH2 0x1A5F DUP3 PUSH2 0x19B5 JUMP JUMPDEST SWAP1 POP SWAP2 SWAP1 POP JUMP JUMPDEST PUSH2 0x1A6F DUP2 PUSH2 0x1A54 JUMP JUMPDEST DUP2 EQ PUSH2 0x1A7A JUMPI PUSH1 0x0 DUP1 REVERT JUMPDEST POP JUMP JUMPDEST PUSH1 0x0 DUP2 CALLDATALOAD SWAP1 POP PUSH2 0x1A8C DUP2 PUSH2 0x1A66 JUMP JUMPDEST SWAP3 SWAP2 POP POP JUMP JUMPDEST PUSH1 0x0 PUSH1 0x20 DUP3 DUP5 SUB SLT ISZERO PUSH2 0x1AA8 JUMPI PUSH2 0x1AA7 PUSH2 0x198B JUMP JUMPDEST JUMPDEST PUSH1 0x0 PUSH2 0x1AB6 DUP5 DUP3 DUP6 ADD PUSH2 0x1A7D JUMP JUMPDEST SWAP2 POP POP SWAP3 SWAP2 POP POP JUMP JUMPDEST PUSH1 0x0 DUP2 SWAP1 POP SWAP2 SWAP1 POP JUMP JUMPDEST PUSH1 0x0 PUSH2 0x1AE4 PUSH2 0x1ADF PUSH2 0x1ADA DUP5 PUSH2 0x1995 JUMP JUMPDEST PUSH2 0x1ABF JUMP JUMPDEST PUSH2 0x1995 JUMP JUMPDEST SWAP1 POP SWAP2 SWAP1 POP JUMP JUMPDEST PUSH1 0x0 PUSH2 0x1AF6 DUP3 PUSH2 0x1AC9 JUMP JUMPDEST SWAP1 POP SWAP2 SWAP1 POP JUMP JUMPDEST PUSH1 0x0 PUSH2 0x1B08 DUP3 PUSH2 0x1AEB JUMP JUMPDEST SWAP1 POP SWAP2 SWAP1 POP JUMP JUMPDEST PUSH2 0x1B18 DUP2 PUSH2 0x1AFD JUMP JUMPDEST DUP3 MSTORE POP POP JUMP JUMPDEST PUSH1 0x0 PUSH1 0x20 DUP3 ADD SWAP1 POP PUSH2 0x1B33 PUSH1 0x0 DUP4 ADD DUP5 PUSH2 0x1B0F JUMP JUMPDEST SWAP3 SWAP2 POP POP JUMP JUMPDEST PUSH2 0x1B42 DUP2 PUSH2 0x19B5 JUMP JUMPDEST DUP3 MSTORE POP POP JUMP JUMPDEST PUSH1 0x0 PUSH1 0x20 DUP3 ADD SWAP1 POP PUSH2 0x1B5D PUSH1 0x0 DUP4 ADD DUP5 PUSH2 0x1B39 JUMP JUMPDEST SWAP3 SWAP2 POP POP JUMP JUMPDEST PUSH1 0x0 PUSH2 0x1B6E DUP3 PUSH2 0x19B5 JUMP JUMPDEST SWAP1 POP SWAP2 SWAP1 POP JUMP JUMPDEST PUSH2 0x1B7E DUP2 PUSH2 0x1B63 JUMP JUMPDEST DUP2 EQ PUSH2 0x1B89 JUMPI PUSH1 0x0 DUP1 REVERT JUMPDEST POP JUMP JUMPDEST PUSH1 0x0 DUP2 CALLDATALOAD SWAP1 POP PUSH2 0x1B9B DUP2 PUSH2 0x1B75 JUMP JUMPDEST SWAP3 SWAP2 POP POP JUMP JUMPDEST PUSH1 0x0 DUP1 REVERT JUMPDEST PUSH1 0x0 PUSH1 0x1F NOT PUSH1 0x1F DUP4 ADD AND SWAP1 POP SWAP2 SWAP1 POP JUMP JUMPDEST PUSH32 0x4E487B7100000000000000000000000000000000000000000000000000000000 PUSH1 0x0 MSTORE PUSH1 0x41 PUSH1 0x4 MSTORE PUSH1 0x24 PUSH1 0x0 REVERT JUMPDEST PUSH2 0x1BEF DUP3 PUSH2 0x1BA6 JUMP JUMPDEST DUP2 ADD DUP2 DUP2 LT PUSH8 0xFFFFFFFFFFFFFFFF DUP3 GT OR ISZERO PUSH2 0x1C0E JUMPI PUSH2 0x1C0D PUSH2 0x1BB7 JUMP JUMPDEST JUMPDEST DUP1 PUSH1 0x40 MSTORE POP POP POP JUMP JUMPDEST PUSH1 0x0 PUSH2 0x1C21 PUSH2 0x1981 JUMP JUMPDEST SWAP1 POP PUSH2 0x1C2D DUP3 DUP3 PUSH2 0x1BE6 JUMP JUMPDEST SWAP2 SWAP1 POP JUMP JUMPDEST PUSH1 0x0 PUSH8 0xFFFFFFFFFFFFFFFF DUP3 GT ISZERO PUSH2 0x1C4D JUMPI PUSH2 0x1C4C PUSH2 0x1BB7 JUMP JUMPDEST JUMPDEST PUSH1 0x20 DUP3 MUL SWAP1 POP PUSH1 0x20 DUP2 ADD SWAP1 POP SWAP2 SWAP1 POP JUMP JUMPDEST PUSH1 0x0 DUP1 REVERT JUMPDEST PUSH1 0x0 PUSH2 0x1C76 PUSH2 0x1C71 DUP5 PUSH2 0x1C32 JUMP JUMPDEST PUSH2 0x1C17 JUMP JUMPDEST SWAP1 POP DUP1 DUP4 DUP3 MSTORE PUSH1 0x20 DUP3 ADD SWAP1 POP PUSH1 0x20 DUP5 MUL DUP4 ADD DUP6 DUP2 GT ISZERO PUSH2 0x1C99 JUMPI PUSH2 0x1C98 PUSH2 0x1C5E JUMP JUMPDEST JUMPDEST DUP4 JUMPDEST DUP2 DUP2 LT ISZERO PUSH2 0x1CC2 JUMPI DUP1 PUSH2 0x1CAE DUP9 DUP3 PUSH2 0x1A7D JUMP JUMPDEST DUP5 MSTORE PUSH1 0x20 DUP5 ADD SWAP4 POP POP PUSH1 0x20 DUP2 ADD SWAP1 POP PUSH2 0x1C9B JUMP JUMPDEST POP POP POP SWAP4 SWAP3 POP POP POP JUMP JUMPDEST PUSH1 0x0 DUP3 PUSH1 0x1F DUP4 ADD SLT PUSH2 0x1CE1 JUMPI PUSH2 0x1CE0 PUSH2 0x1BA1 JUMP JUMPDEST JUMPDEST DUP2 CALLDATALOAD PUSH2 0x1CF1 DUP5 DUP3 PUSH1 0x20 DUP7 ADD PUSH2 0x1C63 JUMP JUMPDEST SWAP2 POP POP SWAP3 SWAP2 POP POP JUMP JUMPDEST PUSH1 0x0 DUP1 PUSH1 0x40 DUP4 DUP6 SUB SLT ISZERO PUSH2 0x1D11 JUMPI PUSH2 0x1D10 PUSH2 0x198B JUMP JUMPDEST JUMPDEST PUSH1 0x0 PUSH2 0x1D1F DUP6 DUP3 DUP7 ADD PUSH2 0x1B8C JUMP JUMPDEST SWAP3 POP POP PUSH1 0x20 DUP4 ADD CALLDATALOAD PUSH8 0xFFFFFFFFFFFFFFFF DUP2 GT ISZERO PUSH2 0x1D40 JUMPI PUSH2 0x1D3F PUSH2 0x1990 JUMP JUMPDEST JUMPDEST PUSH2 0x1D4C DUP6 DUP3 DUP7 ADD PUSH2 0x1CCC JUMP JUMPDEST SWAP2 POP POP SWAP3 POP SWAP3 SWAP1 POP JUMP JUMPDEST PUSH1 0x0 PUSH2 0x1D61 DUP3 PUSH2 0x19B5 JUMP JUMPDEST SWAP1 POP SWAP2 SWAP1 POP JUMP JUMPDEST PUSH2 0x1D71 DUP2 PUSH2 0x1D56 JUMP JUMPDEST DUP2 EQ PUSH2 0x1D7C JUMPI PUSH1 0x0 DUP1 REVERT JUMPDEST POP JUMP JUMPDEST PUSH1 0x0 DUP2 CALLDATALOAD SWAP1 POP PUSH2 0x1D8E DUP2 PUSH2 0x1D68 JUMP JUMPDEST SWAP3 SWAP2 POP POP JUMP JUMPDEST PUSH1 0x0 PUSH1 0x20 DUP3 DUP5 SUB SLT ISZERO PUSH2 0x1DAA JUMPI PUSH2 0x1DA9 PUSH2 0x198B JUMP JUMPDEST JUMPDEST PUSH1 0x0 PUSH2 0x1DB8 DUP5 DUP3 DUP6 ADD PUSH2 0x1D7F JUMP JUMPDEST SWAP2 POP POP SWAP3 SWAP2 POP POP JUMP JUMPDEST PUSH2 0x1DCA DUP2 PUSH2 0x1A20 JUMP JUMPDEST DUP2 EQ PUSH2 0x1DD5 JUMPI PUSH1 0x0 DUP1 REVERT JUMPDEST POP JUMP JUMPDEST PUSH1 0x0 DUP2 CALLDATALOAD SWAP1 POP PUSH2 0x1DE7 DUP2 PUSH2 0x1DC1 JUMP JUMPDEST SWAP3 SWAP2 POP POP JUMP JUMPDEST PUSH1 0x0 DUP1 PUSH1 0x0 DUP1 PUSH1 0x80 DUP6 DUP8 SUB SLT ISZERO PUSH2 0x1E07 JUMPI PUSH2 0x1E06 PUSH2 0x198B JUMP JUMPDEST JUMPDEST PUSH1 0x0 PUSH2 0x1E15 DUP8 DUP3 DUP9 ADD PUSH2 0x1DD8 JUMP JUMPDEST SWAP5 POP POP PUSH1 0x20 PUSH2 0x1E26 DUP8 DUP3 DUP9 ADD PUSH2 0x1A7D JUMP JUMPDEST SWAP4 POP POP PUSH1 0x40 PUSH2 0x1E37 DUP8 DUP3 DUP9 ADD PUSH2 0x1DD8 JUMP JUMPDEST SWAP3 POP POP PUSH1 0x60 PUSH2 0x1E48 DUP8 DUP3 DUP9 ADD PUSH2 0x1B8C JUMP JUMPDEST SWAP2 POP POP SWAP3 SWAP6 SWAP2 SWAP5 POP SWAP3 POP JUMP JUMPDEST PUSH32 0x4E487B7100000000000000000000000000000000000000000000000000000000 PUSH1 0x0 MSTORE PUSH1 0x32 PUSH1 0x4 MSTORE PUSH1 0x24 PUSH1 0x0 REVERT JUMPDEST PUSH1 0x0 DUP2 MLOAD SWAP1 POP SWAP2 SWAP1 POP JUMP JUMPDEST PUSH1 0x0 DUP3 DUP3 MSTORE PUSH1 0x20 DUP3 ADD SWAP1 POP SWAP3 SWAP2 POP POP JUMP JUMPDEST PUSH1 0x0 DUP2 SWAP1 POP PUSH1 0x20 DUP3 ADD SWAP1 POP SWAP2 SWAP1 POP JUMP JUMPDEST PUSH2 0x1EB8 DUP2 PUSH2 0x19B5 JUMP JUMPDEST DUP3 MSTORE POP POP JUMP JUMPDEST PUSH1 0x0 PUSH2 0x1ECA DUP4 DUP4 PUSH2 0x1EAF JUMP JUMPDEST PUSH1 0x20 DUP4 ADD SWAP1 POP SWAP3 SWAP2 POP POP JUMP JUMPDEST PUSH1 0x0 PUSH1 0x20 DUP3 ADD SWAP1 POP SWAP2 SWAP1 POP JUMP JUMPDEST PUSH1 0x0 PUSH2 0x1EEE DUP3 PUSH2 0x1E83 JUMP JUMPDEST PUSH2 0x1EF8 DUP2 DUP6 PUSH2 0x1E8E JUMP JUMPDEST SWAP4 POP PUSH2 0x1F03 DUP4 PUSH2 0x1E9F JUMP JUMPDEST DUP1 PUSH1 0x0 JUMPDEST DUP4 DUP2 LT ISZERO PUSH2 0x1F34 JUMPI DUP2 MLOAD PUSH2 0x1F1B DUP9 DUP3 PUSH2 0x1EBE JUMP JUMPDEST SWAP8 POP PUSH2 0x1F26 DUP4 PUSH2 0x1ED6 JUMP JUMPDEST SWAP3 POP POP PUSH1 0x1 DUP2 ADD SWAP1 POP PUSH2 0x1F07 JUMP JUMPDEST POP DUP6 SWAP4 POP POP POP POP SWAP3 SWAP2 POP POP JUMP JUMPDEST PUSH1 0x0 PUSH1 0x40 DUP3 ADD SWAP1 POP PUSH2 0x1F56 PUSH1 0x0 DUP4 ADD DUP6 PUSH2 0x1A2A JUMP JUMPDEST DUP2 DUP2 SUB PUSH1 0x20 DUP4 ADD MSTORE PUSH2 0x1F68 DUP2 DUP5 PUSH2 0x1EE3 JUMP JUMPDEST SWAP1 POP SWAP4 SWAP3 POP POP POP JUMP JUMPDEST PUSH1 0x0 PUSH8 0xFFFFFFFFFFFFFFFF DUP3 GT ISZERO PUSH2 0x1F8C JUMPI PUSH2 0x1F8B PUSH2 0x1BB7 JUMP JUMPDEST JUMPDEST PUSH1 0x20 DUP3 MUL SWAP1 POP PUSH1 0x20 DUP2 ADD SWAP1 POP SWAP2 SWAP1 POP JUMP JUMPDEST PUSH1 0x0 DUP2 MLOAD SWAP1 POP PUSH2 0x1FAC DUP2 PUSH2 0x1DC1 JUMP JUMPDEST SWAP3 SWAP2 POP POP JUMP JUMPDEST PUSH1 0x0 PUSH2 0x1FC5 PUSH2 0x1FC0 DUP5 PUSH2 0x1F71 JUMP JUMPDEST PUSH2 0x1C17 JUMP JUMPDEST SWAP1 POP DUP1 DUP4 DUP3 MSTORE PUSH1 0x20 DUP3 ADD SWAP1 POP PUSH1 0x20 DUP5 MUL DUP4 ADD DUP6 DUP2 GT ISZERO PUSH2 0x1FE8 JUMPI PUSH2 0x1FE7 PUSH2 0x1C5E JUMP JUMPDEST JUMPDEST DUP4 JUMPDEST DUP2 DUP2 LT ISZERO PUSH2 0x2011 JUMPI DUP1 PUSH2 0x1FFD DUP9 DUP3 PUSH2 0x1F9D JUMP JUMPDEST DUP5 MSTORE PUSH1 0x20 DUP5 ADD SWAP4 POP POP PUSH1 0x20 DUP2 ADD SWAP1 POP PUSH2 0x1FEA JUMP JUMPDEST POP POP POP SWAP4 SWAP3 POP POP POP JUMP JUMPDEST PUSH1 0x0 DUP3 PUSH1 0x1F DUP4 ADD SLT PUSH2 0x2030 JUMPI PUSH2 0x202F PUSH2 0x1BA1 JUMP JUMPDEST JUMPDEST DUP2 MLOAD PUSH2 0x2040 DUP5 DUP3 PUSH1 0x20 DUP7 ADD PUSH2 0x1FB2 JUMP JUMPDEST SWAP2 POP POP SWAP3 SWAP2 POP POP JUMP JUMPDEST PUSH1 0x0 PUSH1 0x20 DUP3 DUP5 SUB SLT ISZERO PUSH2 0x205F JUMPI PUSH2 0x205E PUSH2 0x198B JUMP JUMPDEST JUMPDEST PUSH1 0x0 DUP3 ADD MLOAD PUSH8 0xFFFFFFFFFFFFFFFF DUP2 GT ISZERO PUSH2 0x207D JUMPI PUSH2 0x207C PUSH2 0x1990 JUMP JUMPDEST JUMPDEST PUSH2 0x2089 DUP5 DUP3 DUP6 ADD PUSH2 0x201B JUMP JUMPDEST SWAP2 POP POP SWAP3 SWAP2 POP POP JUMP JUMPDEST PUSH1 0x0 PUSH2 0x209D DUP3 PUSH2 0x19B5 JUMP JUMPDEST SWAP1 POP SWAP2 SWAP1 POP JUMP JUMPDEST PUSH2 0x20AD DUP2 PUSH2 0x2092 JUMP JUMPDEST DUP2 EQ PUSH2 0x20B8 JUMPI PUSH1 0x0 DUP1 REVERT JUMPDEST POP JUMP JUMPDEST PUSH1 0x0 DUP2 MLOAD SWAP1 POP PUSH2 0x20CA DUP2 PUSH2 0x20A4 JUMP JUMPDEST SWAP3 SWAP2 POP POP JUMP JUMPDEST PUSH1 0x0 PUSH1 0x20 DUP3 DUP5 SUB SLT ISZERO PUSH2 0x20E6 JUMPI PUSH2 0x20E5 PUSH2 0x198B JUMP JUMPDEST JUMPDEST PUSH1 0x0 PUSH2 0x20F4 DUP5 DUP3 DUP6 ADD PUSH2 0x20BB JUMP JUMPDEST SWAP2 POP POP SWAP3 SWAP2 POP POP JUMP JUMPDEST PUSH1 0x0 PUSH1 0x20 DUP3 DUP5 SUB SLT ISZERO PUSH2 0x2113 JUMPI PUSH2 0x2112 PUSH2 0x198B JUMP JUMPDEST JUMPDEST PUSH1 0x0 PUSH2 0x2121 DUP5 DUP3 DUP6 ADD PUSH2 0x1F9D JUMP JUMPDEST SWAP2 POP POP SWAP3 SWAP2 POP POP JUMP JUMPDEST PUSH32 0x4E487B7100000000000000000000000000000000000000000000000000000000 PUSH1 0x0 MSTORE PUSH1 0x11 PUSH1 0x4 MSTORE PUSH1 0x24 PUSH1 0x0 REVERT JUMPDEST PUSH1 0x0 PUSH2 0x2164 DUP3 PUSH2 0x1A20 JUMP JUMPDEST SWAP2 POP PUSH2 0x216F DUP4 PUSH2 0x1A20 JUMP JUMPDEST SWAP3 POP DUP3 PUSH32 0xFFFFFFFFFFFFFFFFFFFFFFFFFFFFFFFFFFFFFFFFFFFFFFFFFFFFFFFFFFFFFFFF SUB DUP3 GT ISZERO PUSH2 0x21A4 JUMPI PUSH2 0x21A3 PUSH2 0x212A JUMP JUMPDEST JUMPDEST DUP3 DUP3 ADD SWAP1 POP SWAP3 SWAP2 POP POP JUMP JUMPDEST PUSH1 0x0 PUSH2 0x21BA DUP3 PUSH2 0x1A20 JUMP JUMPDEST SWAP2 POP PUSH32 0xFFFFFFFFFFFFFFFFFFFFFFFFFFFFFFFFFFFFFFFFFFFFFFFFFFFFFFFFFFFFFFFF DUP3 SUB PUSH2 0x21EC JUMPI PUSH2 0x21EB PUSH2 0x212A JUMP JUMPDEST JUMPDEST PUSH1 0x1 DUP3 ADD SWAP1 POP SWAP2 SWAP1 POP JUMP JUMPDEST PUSH1 0x0 DUP3 DUP3 MSTORE PUSH1 0x20 DUP3 ADD SWAP1 POP SWAP3 SWAP2 POP POP JUMP JUMPDEST PUSH32 0x4F776E61626C653A2063616C6C6572206973206E6F7420746865206F776E6572 PUSH1 0x0 DUP3 ADD MSTORE POP JUMP JUMPDEST PUSH1 0x0 PUSH2 0x223E PUSH1 0x20 DUP4 PUSH2 0x21F7 JUMP JUMPDEST SWAP2 POP PUSH2 0x2249 DUP3 PUSH2 0x2208 JUMP JUMPDEST PUSH1 0x20 DUP3 ADD SWAP1 POP SWAP2 SWAP1 POP JUMP JUMPDEST PUSH1 0x0 PUSH1 0x20 DUP3 ADD SWAP1 POP DUP2 DUP2 SUB PUSH1 0x0 DUP4 ADD MSTORE PUSH2 0x226D DUP2 PUSH2 0x2231 JUMP JUMPDEST SWAP1 POP SWAP2 SWAP1 POP JUMP JUMPDEST PUSH1 0x0 PUSH2 0x227F DUP3 PUSH2 0x1A20 JUMP JUMPDEST SWAP2 POP PUSH2 0x228A DUP4 PUSH2 0x1A20 JUMP JUMPDEST SWAP3 POP DUP2 PUSH32 0xFFFFFFFFFFFFFFFFFFFFFFFFFFFFFFFFFFFFFFFFFFFFFFFFFFFFFFFFFFFFFFFF DIV DUP4 GT DUP3 ISZERO ISZERO AND ISZERO PUSH2 0x22C3 JUMPI PUSH2 0x22C2 PUSH2 0x212A JUMP JUMPDEST JUMPDEST DUP3 DUP3 MUL SWAP1 POP SWAP3 SWAP2 POP POP JUMP JUMPDEST PUSH1 0x0 DUP1 REVERT JUMPDEST PUSH1 0x0 PUSH2 0x22DE DUP3 PUSH2 0x19B5 JUMP JUMPDEST SWAP1 POP SWAP2 SWAP1 POP JUMP JUMPDEST PUSH2 0x22EE DUP2 PUSH2 0x22D3 JUMP JUMPDEST DUP2 EQ PUSH2 0x22F9 JUMPI PUSH1 0x0 DUP1 REVERT JUMPDEST POP JUMP JUMPDEST PUSH1 0x0 DUP2 MLOAD SWAP1 POP PUSH2 0x230B DUP2 PUSH2 0x22E5 JUMP JUMPDEST SWAP3 SWAP2 POP POP JUMP JUMPDEST PUSH1 0x0 PUSH1 0xC0 DUP3 DUP5 SUB SLT ISZERO PUSH2 0x2327 JUMPI PUSH2 0x2326 PUSH2 0x22CE JUMP JUMPDEST JUMPDEST PUSH2 0x2331 PUSH1 0xC0 PUSH2 0x1C17 JUMP JUMPDEST SWAP1 POP PUSH1 0x0 PUSH2 0x2341 DUP5 DUP3 DUP6 ADD PUSH2 0x20BB JUMP JUMPDEST PUSH1 0x0 DUP4 ADD MSTORE POP PUSH1 0x20 PUSH2 0x2355 DUP5 DUP3 DUP6 ADD PUSH2 0x1F9D JUMP JUMPDEST PUSH1 0x20 DUP4 ADD MSTORE POP PUSH1 0x40 PUSH2 0x2369 DUP5 DUP3 DUP6 ADD PUSH2 0x1F9D JUMP JUMPDEST PUSH1 0x40 DUP4 ADD MSTORE POP PUSH1 0x60 PUSH2 0x237D DUP5 DUP3 DUP6 ADD PUSH2 0x1F9D JUMP JUMPDEST PUSH1 0x60 DUP4 ADD MSTORE POP PUSH1 0x80 PUSH2 0x2391 DUP5 DUP3 DUP6 ADD PUSH2 0x22FC JUMP JUMPDEST PUSH1 0x80 DUP4 ADD MSTORE POP PUSH1 0xA0 PUSH2 0x23A5 DUP5 DUP3 DUP6 ADD PUSH2 0x20BB JUMP JUMPDEST PUSH1 0xA0 DUP4 ADD MSTORE POP SWAP3 SWAP2 POP POP JUMP JUMPDEST PUSH1 0x0 PUSH1 0xC0 DUP3 DUP5 SUB SLT ISZERO PUSH2 0x23C7 JUMPI PUSH2 0x23C6 PUSH2 0x198B JUMP JUMPDEST JUMPDEST PUSH1 0x0 PUSH2 0x23D5 DUP5 DUP3 DUP6 ADD PUSH2 0x2311 JUMP JUMPDEST SWAP2 POP POP SWAP3 SWAP2 POP POP JUMP JUMPDEST PUSH1 0x0 DUP2 MLOAD SWAP1 POP PUSH2 0x23ED DUP2 PUSH2 0x19C7 JUMP JUMPDEST SWAP3 SWAP2 POP POP JUMP JUMPDEST PUSH1 0x0 PUSH1 0x20 DUP3 DUP5 SUB SLT ISZERO PUSH2 0x2409 JUMPI PUSH2 0x2408 PUSH2 0x198B JUMP JUMPDEST JUMPDEST PUSH1 0x0 PUSH2 0x2417 DUP5 DUP3 DUP6 ADD PUSH2 0x23DE JUMP JUMPDEST SWAP2 POP POP SWAP3 SWAP2 POP POP JUMP JUMPDEST PUSH32 0x4F776E61626C653A206E6577206F776E657220697320746865207A65726F2061 PUSH1 0x0 DUP3 ADD MSTORE PUSH32 0x6464726573730000000000000000000000000000000000000000000000000000 PUSH1 0x20 DUP3 ADD MSTORE POP JUMP JUMPDEST PUSH1 0x0 PUSH2 0x247C PUSH1 0x26 DUP4 PUSH2 0x21F7 JUMP JUMPDEST SWAP2 POP PUSH2 0x2487 DUP3 PUSH2 0x2420 JUMP JUMPDEST PUSH1 0x40 DUP3 ADD SWAP1 POP SWAP2 SWAP1 POP JUMP JUMPDEST PUSH1 0x0 PUSH1 0x20 DUP3 ADD SWAP1 POP DUP2 DUP2 SUB PUSH1 0x0 DUP4 ADD MSTORE PUSH2 0x24AB DUP2 PUSH2 0x246F JUMP JUMPDEST SWAP1 POP SWAP2 SWAP1 POP JUMP JUMPDEST PUSH32 0x4E487B7100000000000000000000000000000000000000000000000000000000 PUSH1 0x0 MSTORE PUSH1 0x12 PUSH1 0x4 MSTORE PUSH1 0x24 PUSH1 0x0 REVERT JUMPDEST PUSH1 0x0 PUSH2 0x24EC DUP3 PUSH2 0x1A20 JUMP JUMPDEST SWAP2 POP PUSH2 0x24F7 DUP4 PUSH2 0x1A20 JUMP JUMPDEST SWAP3 POP DUP3 PUSH2 0x2507 JUMPI PUSH2 0x2506 PUSH2 0x24B2 JUMP JUMPDEST JUMPDEST DUP3 DUP3 DIV SWAP1 POP SWAP3 SWAP2 POP POP JUMP JUMPDEST PUSH32 0x536166654D6174683A206D756C7469706C69636174696F6E206F766572666C6F PUSH1 0x0 DUP3 ADD MSTORE PUSH32 0x7700000000000000000000000000000000000000000000000000000000000000 PUSH1 0x20 DUP3 ADD MSTORE POP JUMP JUMPDEST PUSH1 0x0 PUSH2 0x256E PUSH1 0x21 DUP4 PUSH2 0x21F7 JUMP JUMPDEST SWAP2 POP PUSH2 0x2579 DUP3 PUSH2 0x2512 JUMP JUMPDEST PUSH1 0x40 DUP3 ADD SWAP1 POP SWAP2 SWAP1 POP JUMP JUMPDEST PUSH1 0x0 PUSH1 0x20 DUP3 ADD SWAP1 POP DUP2 DUP2 SUB PUSH1 0x0 DUP4 ADD MSTORE PUSH2 0x259D DUP2 PUSH2 0x2561 JUMP JUMPDEST SWAP1 POP SWAP2 SWAP1 POP JUMP JUMPDEST PUSH32 0x536166654D6174683A206164646974696F6E206F766572666C6F770000000000 PUSH1 0x0 DUP3 ADD MSTORE POP JUMP JUMPDEST PUSH1 0x0 PUSH2 0x25DA PUSH1 0x1B DUP4 PUSH2 0x21F7 JUMP JUMPDEST SWAP2 POP PUSH2 0x25E5 DUP3 PUSH2 0x25A4 JUMP JUMPDEST PUSH1 0x20 DUP3 ADD SWAP1 POP SWAP2 SWAP1 POP JUMP JUMPDEST PUSH1 0x0 PUSH1 0x20 DUP3 ADD SWAP1 POP DUP2 DUP2 SUB PUSH1 0x0 DUP4 ADD MSTORE PUSH2 0x2609 DUP2 PUSH2 0x25CD JUMP JUMPDEST SWAP1 POP SWAP2 SWAP1 POP JUMP JUMPDEST PUSH1 0x0 DUP2 MLOAD SWAP1 POP SWAP2 SWAP1 POP JUMP JUMPDEST PUSH1 0x0 JUMPDEST DUP4 DUP2 LT ISZERO PUSH2 0x2639 JUMPI DUP1 DUP3 ADD MLOAD DUP2 DUP5 ADD MSTORE PUSH1 0x20 DUP2 ADD SWAP1 POP PUSH2 0x261E JUMP JUMPDEST DUP4 DUP2 GT ISZERO PUSH2 0x2648 JUMPI PUSH1 0x0 DUP5 DUP5 ADD MSTORE JUMPDEST POP POP POP POP JUMP JUMPDEST PUSH1 0x0 PUSH2 0x2659 DUP3 PUSH2 0x2610 JUMP JUMPDEST PUSH2 0x2663 DUP2 DUP6 PUSH2 0x21F7 JUMP JUMPDEST SWAP4 POP PUSH2 0x2673 DUP2 DUP6 PUSH1 0x20 DUP7 ADD PUSH2 0x261B JUMP JUMPDEST PUSH2 0x267C DUP2 PUSH2 0x1BA6 JUMP JUMPDEST DUP5 ADD SWAP2 POP POP SWAP3 SWAP2 POP POP JUMP JUMPDEST PUSH1 0x0 PUSH1 0x20 DUP3 ADD SWAP1 POP DUP2 DUP2 SUB PUSH1 0x0 DUP4 ADD MSTORE PUSH2 0x26A1 DUP2 DUP5 PUSH2 0x264E JUMP JUMPDEST SWAP1 POP SWAP3 SWAP2 POP POP JUMP INVALID LOG2 PUSH5 0x6970667358 0x22 SLT KECCAK256 NUMBER SIGNEXTEND PUSH9 0x87D6997036B44B8F49 MLOAD PUSH19 0x346A3BF359D359FD51ECDE38358A871E780B64 PUSH20 0x6F6C634300080F00330000000000000000000000 "
				},
				"gasEstimates": {
					"creation": {
						"codeDepositCost": "1990200",
						"executionCost": "infinite",
						"totalCost": "infinite"
					},
					"external": {
						"BUSD()": "2581",
						"CalcApy(uint256,address,uint256,address)": "infinite",
						"CalcLpPrice(address)": "infinite",
						"CalcTotalTVL(address,address[])": "infinite",
						"Tokenprice(address)": "infinite",
						"WBNB()": "2581",
						"WBNBPrice(address)": "infinite",
						"calcPoolTVLInUSD(uint256,address,uint256,address)": "infinite",
						"isLpAddress(address)": "infinite",
						"owner()": "2567",
						"renounceOwnership()": "30397",
						"routerAddress()": "infinite",
						"setRouter(address)": "27094",
						"test()": "232",
						"transferOwnership(address)": "30786"
					}
				},
				"methodIdentifiers": {
					"BUSD()": "484f4ea9",
					"CalcApy(uint256,address,uint256,address)": "dbb79348",
					"CalcLpPrice(address)": "215cc989",
					"CalcTotalTVL(address,address[])": "55b44eaf",
					"Tokenprice(address)": "19047f8a",
					"WBNB()": "8dd95002",
					"WBNBPrice(address)": "3b979d45",
					"calcPoolTVLInUSD(uint256,address,uint256,address)": "d979fb5f",
					"isLpAddress(address)": "2f7c5980",
					"owner()": "8da5cb5b",
					"renounceOwnership()": "715018a6",
					"routerAddress()": "3268cc56",
					"setRouter(address)": "c0d78655",
					"test()": "f8a8fd6d",
					"transferOwnership(address)": "f2fde38b"
				}
			},
			"storageLayout": {
				"storage": [
					{
						"astId": 509,
						"contract": "contracts/Utils.sol:Utils",
						"label": "_owner",
						"offset": 0,
						"slot": "0",
						"type": "t_address"
					},
					{
						"astId": 757,
						"contract": "contracts/Utils.sol:Utils",
						"label": "WBNB",
						"offset": 0,
						"slot": "1",
						"type": "t_address"
					},
					{
						"astId": 759,
						"contract": "contracts/Utils.sol:Utils",
						"label": "BUSD",
						"offset": 0,
						"slot": "2",
						"type": "t_address"
					},
					{
						"astId": 762,
						"contract": "contracts/Utils.sol:Utils",
						"label": "amount",
						"offset": 0,
						"slot": "3",
						"type": "t_uint256"
					},
					{
						"astId": 765,
						"contract": "contracts/Utils.sol:Utils",
						"label": "routerAddress",
						"offset": 0,
						"slot": "4",
						"type": "t_contract(Router)644"
					},
					{
						"astId": 768,
						"contract": "contracts/Utils.sol:Utils",
						"label": "BLOCKS_PER_YEAR",
						"offset": 0,
						"slot": "5",
						"type": "t_uint256"
					}
				],
				"types": {
					"t_address": {
						"encoding": "inplace",
						"label": "address",
						"numberOfBytes": "20"
					},
					"t_contract(Router)644": {
						"encoding": "inplace",
						"label": "contract Router",
						"numberOfBytes": "20"
					},
					"t_uint256": {
						"encoding": "inplace",
						"label": "uint256",
						"numberOfBytes": "32"
					}
				}
			},
			"userdoc": {
				"kind": "user",
				"methods": {},
				"version": 1
			}
		}
	}
}