{
	"contracts/Utils.sol": {
		"Utils": {
			"abi": [
				{
					"inputs": [
						{
							"internalType": "contract Router",
							"name": "_routerAddress",
							"type": "address"
						}
					],
					"stateMutability": "nonpayable",
					"type": "constructor"
				},
				{
					"anonymous": false,
					"inputs": [
						{
							"indexed": true,
							"internalType": "address",
							"name": "previousOwner",
							"type": "address"
						},
						{
							"indexed": true,
							"internalType": "address",
							"name": "newOwner",
							"type": "address"
						}
					],
					"name": "OwnershipTransferred",
					"type": "event"
				},
				{
					"inputs": [],
					"name": "BUSD",
					"outputs": [
						{
							"internalType": "address",
							"name": "",
							"type": "address"
						}
					],
					"stateMutability": "view",
					"type": "function"
				},
				{
					"inputs": [
						{
							"internalType": "uint256",
							"name": "pid",
							"type": "uint256"
						},
						{
							"internalType": "contract LP",
							"name": "lpAddress",
							"type": "address"
						},
						{
							"internalType": "uint256",
							"name": "isLp",
							"type": "uint256"
						},
						{
							"internalType": "contract MetaMasterChef",
							"name": "MasterChef",
							"type": "address"
						}
					],
					"name": "CalcApy",
					"outputs": [
						{
							"internalType": "uint256",
							"name": "",
							"type": "uint256"
						}
					],
					"stateMutability": "view",
					"type": "function"
				},
				{
					"inputs": [
						{
							"internalType": "contract LP",
							"name": "lpAddress",
							"type": "address"
						}
					],
					"name": "CalcLpPrice",
					"outputs": [
						{
							"internalType": "uint256",
							"name": "",
							"type": "uint256"
						}
					],
					"stateMutability": "view",
					"type": "function"
				},
				{
					"inputs": [
						{
							"internalType": "address",
							"name": "token",
							"type": "address"
						}
					],
					"name": "Tokenprice",
					"outputs": [
						{
							"internalType": "uint256",
							"name": "",
							"type": "uint256"
						}
					],
					"stateMutability": "view",
					"type": "function"
				},
				{
					"inputs": [],
					"name": "WBNB",
					"outputs": [
						{
							"internalType": "address",
							"name": "",
							"type": "address"
						}
					],
					"stateMutability": "view",
					"type": "function"
				},
				{
					"inputs": [
						{
							"internalType": "address",
							"name": "token",
							"type": "address"
						}
					],
					"name": "WBNBPrice",
					"outputs": [
						{
							"internalType": "uint256",
							"name": "",
							"type": "uint256"
						}
					],
					"stateMutability": "view",
					"type": "function"
				},
				{
					"inputs": [
						{
							"internalType": "uint256",
							"name": "pid",
							"type": "uint256"
						},
						{
							"internalType": "contract LP",
							"name": "lpAddress",
							"type": "address"
						},
						{
							"internalType": "uint256",
							"name": "isLp",
							"type": "uint256"
						},
						{
							"internalType": "contract MetaMasterChef",
							"name": "MasterChef",
							"type": "address"
						}
					],
					"name": "calcPoolTVLInUSD",
					"outputs": [
						{
							"internalType": "uint256",
							"name": "",
							"type": "uint256"
						}
					],
					"stateMutability": "view",
					"type": "function"
				},
				{
					"inputs": [],
					"name": "owner",
					"outputs": [
						{
							"internalType": "address",
							"name": "",
							"type": "address"
						}
					],
					"stateMutability": "view",
					"type": "function"
				},
				{
					"inputs": [],
					"name": "renounceOwnership",
					"outputs": [],
					"stateMutability": "nonpayable",
					"type": "function"
				},
				{
					"inputs": [],
					"name": "routerAddress",
					"outputs": [
						{
							"internalType": "contract Router",
							"name": "",
							"type": "address"
						}
					],
					"stateMutability": "view",
					"type": "function"
				},
				{
					"inputs": [
						{
							"internalType": "contract Router",
							"name": "_routerAddress",
							"type": "address"
						}
					],
					"name": "setRouter",
					"outputs": [],
					"stateMutability": "nonpayable",
					"type": "function"
				},
				{
					"inputs": [
						{
							"internalType": "address",
							"name": "newOwner",
							"type": "address"
						}
					],
					"name": "transferOwnership",
					"outputs": [],
					"stateMutability": "nonpayable",
					"type": "function"
				}
			],
			"devdoc": {
				"kind": "dev",
				"methods": {
					"owner()": {
						"details": "Returns the address of the current owner."
					},
					"renounceOwnership()": {
						"details": "Leaves the contract without owner. It will not be possible to call `onlyOwner` functions anymore. Can only be called by the current owner. NOTE: Renouncing ownership will leave the contract without an owner, thereby removing any functionality that is only available to the owner."
					},
					"transferOwnership(address)": {
						"details": "Transfers ownership of the contract to a new account (`newOwner`). Can only be called by the current owner."
					}
				},
				"version": 1
			},
			"evm": {
				"assembly": "    /* \"contracts/Utils.sol\":17198:20450  contract Utils is Ownable{... */\n  mstore(0x40, 0x80)\n    /* \"contracts/Utils.sol\":17285:17327  0xae13d989daC2f0dEbFf460aC112a837C89BAa7cd */\n  0xae13d989dac2f0debff460ac112a837c89baa7cd\n    /* \"contracts/Utils.sol\":17263:17327  address public WBNB = 0xae13d989daC2f0dEbFf460aC112a837C89BAa7cd */\n  0x01\n  exp(0x0100, 0x00)\n  dup2\n  sload\n  dup2\n  0xffffffffffffffffffffffffffffffffffffffff\n  mul\n  not\n  and\n  swap1\n  dup4\n  0xffffffffffffffffffffffffffffffffffffffff\n  and\n  mul\n  or\n  swap1\n  sstore\n  pop\n    /* \"contracts/Utils.sol\":17356:17398  0x78867BbEeF44f2326bF8DDd1941a4439382EF2A7 */\n  0x78867bbeef44f2326bf8ddd1941a4439382ef2a7\n    /* \"contracts/Utils.sol\":17334:17398  address public BUSD = 0x78867BbEeF44f2326bF8DDd1941a4439382EF2A7 */\n  0x02\n  exp(0x0100, 0x00)\n  dup2\n  sload\n  dup2\n  0xffffffffffffffffffffffffffffffffffffffff\n  mul\n  not\n  and\n  swap1\n  dup4\n  0xffffffffffffffffffffffffffffffffffffffff\n  and\n  mul\n  or\n  swap1\n  sstore\n  pop\n    /* \"contracts/Utils.sol\":17422:17441  1000000000000000000 */\n  0x0de0b6b3a7640000\n    /* \"contracts/Utils.sol\":17405:17441  uint256 amount = 1000000000000000000 */\n  0x03\n  sstore\n    /* \"contracts/Utils.sol\":17510:17518  10512000 */\n  0xa06680\n    /* \"contracts/Utils.sol\":17484:17518  uint256 BLOCKS_PER_YEAR = 10512000 */\n  0x05\n  sstore\n    /* \"contracts/Utils.sol\":17528:17613  constructor(Router _routerAddress) {... */\n  callvalue\n  dup1\n  iszero\n  tag_1\n  jumpi\n  0x00\n  dup1\n  revert\ntag_1:\n  pop\n  mload(0x40)\n  sub(codesize, bytecodeSize)\n  dup1\n  bytecodeSize\n  dup4\n  codecopy\n  dup2\n  dup2\n  add\n  0x40\n  mstore\n  dup2\n  add\n  swap1\n  tag_2\n  swap2\n  swap1\n  tag_3\n  jump\t// in\ntag_2:\n    /* \"contracts/Utils.sol\":13728:13760  _transferOwnership(_msgSender()) */\n  tag_7\n    /* \"contracts/Utils.sol\":13747:13759  _msgSender() */\n  tag_8\n    /* \"contracts/Utils.sol\":13747:13757  _msgSender */\n  shl(0x20, tag_9)\n    /* \"contracts/Utils.sol\":13747:13759  _msgSender() */\n  0x20\n  shr\n  jump\t// in\ntag_8:\n    /* \"contracts/Utils.sol\":13728:13746  _transferOwnership */\n  shl(0x20, tag_10)\n    /* \"contracts/Utils.sol\":13728:13760  _transferOwnership(_msgSender()) */\n  0x20\n  shr\n  jump\t// in\ntag_7:\n    /* \"contracts/Utils.sol\":17591:17605  _routerAddress */\n  dup1\n    /* \"contracts/Utils.sol\":17575:17588  routerAddress */\n  0x04\n  0x00\n    /* \"contracts/Utils.sol\":17575:17605  routerAddress = _routerAddress */\n  0x0100\n  exp\n  dup2\n  sload\n  dup2\n  0xffffffffffffffffffffffffffffffffffffffff\n  mul\n  not\n  and\n  swap1\n  dup4\n  0xffffffffffffffffffffffffffffffffffffffff\n  and\n  mul\n  or\n  swap1\n  sstore\n  pop\n    /* \"contracts/Utils.sol\":17528:17613  constructor(Router _routerAddress) {... */\n  pop\n    /* \"contracts/Utils.sol\":17198:20450  contract Utils is Ownable{... */\n  jump(tag_12)\n    /* \"contracts/Utils.sol\":13223:13321  function _msgSender() internal view virtual returns (address) {... */\ntag_9:\n    /* \"contracts/Utils.sol\":13276:13283  address */\n  0x00\n    /* \"contracts/Utils.sol\":13303:13313  msg.sender */\n  caller\n    /* \"contracts/Utils.sol\":13296:13313  return msg.sender */\n  swap1\n  pop\n    /* \"contracts/Utils.sol\":13223:13321  function _msgSender() internal view virtual returns (address) {... */\n  swap1\n  jump\t// out\n    /* \"contracts/Utils.sol\":15119:15310  function _transferOwnership(address newOwner) internal virtual {... */\ntag_10:\n    /* \"contracts/Utils.sol\":15193:15209  address oldOwner */\n  0x00\n    /* \"contracts/Utils.sol\":15212:15218  _owner */\n  dup1\n  0x00\n  swap1\n  sload\n  swap1\n  0x0100\n  exp\n  swap1\n  div\n  0xffffffffffffffffffffffffffffffffffffffff\n  and\n    /* \"contracts/Utils.sol\":15193:15218  address oldOwner = _owner */\n  swap1\n  pop\n    /* \"contracts/Utils.sol\":15238:15246  newOwner */\n  dup2\n    /* \"contracts/Utils.sol\":15229:15235  _owner */\n  0x00\n  dup1\n    /* \"contracts/Utils.sol\":15229:15246  _owner = newOwner */\n  0x0100\n  exp\n  dup2\n  sload\n  dup2\n  0xffffffffffffffffffffffffffffffffffffffff\n  mul\n  not\n  and\n  swap1\n  dup4\n  0xffffffffffffffffffffffffffffffffffffffff\n  and\n  mul\n  or\n  swap1\n  sstore\n  pop\n    /* \"contracts/Utils.sol\":15293:15301  newOwner */\n  dup2\n    /* \"contracts/Utils.sol\":15262:15302  OwnershipTransferred(oldOwner, newOwner) */\n  0xffffffffffffffffffffffffffffffffffffffff\n  and\n    /* \"contracts/Utils.sol\":15283:15291  oldOwner */\n  dup2\n    /* \"contracts/Utils.sol\":15262:15302  OwnershipTransferred(oldOwner, newOwner) */\n  0xffffffffffffffffffffffffffffffffffffffff\n  and\n  0x8be0079c531659141344cd1fd0a4f28419497f9722a3daafe3b4186f6b6457e0\n  mload(0x40)\n  mload(0x40)\n  dup1\n  swap2\n  sub\n  swap1\n  log3\n    /* \"contracts/Utils.sol\":15182:15310  {... */\n  pop\n    /* \"contracts/Utils.sol\":15119:15310  function _transferOwnership(address newOwner) internal virtual {... */\n  pop\n  jump\t// out\n    /* \"#utility.yul\":88:205   */\ntag_16:\n    /* \"#utility.yul\":197:198   */\n  0x00\n    /* \"#utility.yul\":194:195   */\n  dup1\n    /* \"#utility.yul\":187:199   */\n  revert\n    /* \"#utility.yul\":334:460   */\ntag_18:\n    /* \"#utility.yul\":371:378   */\n  0x00\n    /* \"#utility.yul\":411:453   */\n  0xffffffffffffffffffffffffffffffffffffffff\n    /* \"#utility.yul\":404:409   */\n  dup3\n    /* \"#utility.yul\":400:454   */\n  and\n    /* \"#utility.yul\":389:454   */\n  swap1\n  pop\n    /* \"#utility.yul\":334:460   */\n  swap2\n  swap1\n  pop\n  jump\t// out\n    /* \"#utility.yul\":466:562   */\ntag_19:\n    /* \"#utility.yul\":503:510   */\n  0x00\n    /* \"#utility.yul\":532:556   */\n  tag_29\n    /* \"#utility.yul\":550:555   */\n  dup3\n    /* \"#utility.yul\":532:556   */\n  tag_18\n  jump\t// in\ntag_29:\n    /* \"#utility.yul\":521:556   */\n  swap1\n  pop\n    /* \"#utility.yul\":466:562   */\n  swap2\n  swap1\n  pop\n  jump\t// out\n    /* \"#utility.yul\":568:678   */\ntag_20:\n    /* \"#utility.yul\":619:626   */\n  0x00\n    /* \"#utility.yul\":648:672   */\n  tag_31\n    /* \"#utility.yul\":666:671   */\n  dup3\n    /* \"#utility.yul\":648:672   */\n  tag_19\n  jump\t// in\ntag_31:\n    /* \"#utility.yul\":637:672   */\n  swap1\n  pop\n    /* \"#utility.yul\":568:678   */\n  swap2\n  swap1\n  pop\n  jump\t// out\n    /* \"#utility.yul\":684:834   */\ntag_21:\n    /* \"#utility.yul\":771:809   */\n  tag_33\n    /* \"#utility.yul\":803:808   */\n  dup2\n    /* \"#utility.yul\":771:809   */\n  tag_20\n  jump\t// in\ntag_33:\n    /* \"#utility.yul\":764:769   */\n  dup2\n    /* \"#utility.yul\":761:810   */\n  eq\n    /* \"#utility.yul\":751:828   */\n  tag_34\n  jumpi\n    /* \"#utility.yul\":824:825   */\n  0x00\n    /* \"#utility.yul\":821:822   */\n  dup1\n    /* \"#utility.yul\":814:826   */\n  revert\n    /* \"#utility.yul\":751:828   */\ntag_34:\n    /* \"#utility.yul\":684:834   */\n  pop\n  jump\t// out\n    /* \"#utility.yul\":840:1011   */\ntag_22:\n    /* \"#utility.yul\":911:916   */\n  0x00\n    /* \"#utility.yul\":942:948   */\n  dup2\n    /* \"#utility.yul\":936:949   */\n  mload\n    /* \"#utility.yul\":927:949   */\n  swap1\n  pop\n    /* \"#utility.yul\":958:1005   */\n  tag_36\n    /* \"#utility.yul\":999:1004   */\n  dup2\n    /* \"#utility.yul\":958:1005   */\n  tag_21\n  jump\t// in\ntag_36:\n    /* \"#utility.yul\":840:1011   */\n  swap3\n  swap2\n  pop\n  pop\n  jump\t// out\n    /* \"#utility.yul\":1017:1396   */\ntag_3:\n    /* \"#utility.yul\":1101:1107   */\n  0x00\n    /* \"#utility.yul\":1150:1152   */\n  0x20\n    /* \"#utility.yul\":1138:1147   */\n  dup3\n    /* \"#utility.yul\":1129:1136   */\n  dup5\n    /* \"#utility.yul\":1125:1148   */\n  sub\n    /* \"#utility.yul\":1121:1153   */\n  slt\n    /* \"#utility.yul\":1118:1237   */\n  iszero\n  tag_38\n  jumpi\n    /* \"#utility.yul\":1156:1235   */\n  tag_39\n  tag_16\n  jump\t// in\ntag_39:\n    /* \"#utility.yul\":1118:1237   */\ntag_38:\n    /* \"#utility.yul\":1276:1277   */\n  0x00\n    /* \"#utility.yul\":1301:1379   */\n  tag_40\n    /* \"#utility.yul\":1371:1378   */\n  dup5\n    /* \"#utility.yul\":1362:1368   */\n  dup3\n    /* \"#utility.yul\":1351:1360   */\n  dup6\n    /* \"#utility.yul\":1347:1369   */\n  add\n    /* \"#utility.yul\":1301:1379   */\n  tag_22\n  jump\t// in\ntag_40:\n    /* \"#utility.yul\":1291:1379   */\n  swap2\n  pop\n    /* \"#utility.yul\":1247:1389   */\n  pop\n    /* \"#utility.yul\":1017:1396   */\n  swap3\n  swap2\n  pop\n  pop\n  jump\t// out\n    /* \"contracts/Utils.sol\":17198:20450  contract Utils is Ownable{... */\ntag_12:\n  dataSize(sub_0)\n  dup1\n  dataOffset(sub_0)\n  0x00\n  codecopy\n  0x00\n  return\nstop\n\nsub_0: assembly {\n        /* \"contracts/Utils.sol\":17198:20450  contract Utils is Ownable{... */\n      mstore(0x40, 0x80)\n      callvalue\n      dup1\n      iszero\n      tag_1\n      jumpi\n      0x00\n      dup1\n      revert\n    tag_1:\n      pop\n      jumpi(tag_2, lt(calldatasize, 0x04))\n      shr(0xe0, calldataload(0x00))\n      dup1\n      0x8da5cb5b\n      gt\n      tag_15\n      jumpi\n      dup1\n      0x8da5cb5b\n      eq\n      tag_9\n      jumpi\n      dup1\n      0x8dd95002\n      eq\n      tag_10\n      jumpi\n      dup1\n      0xc0d78655\n      eq\n      tag_11\n      jumpi\n      dup1\n      0xd979fb5f\n      eq\n      tag_12\n      jumpi\n      dup1\n      0xdbb79348\n      eq\n      tag_13\n      jumpi\n      dup1\n      0xf2fde38b\n      eq\n      tag_14\n      jumpi\n      jump(tag_2)\n    tag_15:\n      dup1\n      0x19047f8a\n      eq\n      tag_3\n      jumpi\n      dup1\n      0x215cc989\n      eq\n      tag_4\n      jumpi\n      dup1\n      0x3268cc56\n      eq\n      tag_5\n      jumpi\n      dup1\n      0x3b979d45\n      eq\n      tag_6\n      jumpi\n      dup1\n      0x484f4ea9\n      eq\n      tag_7\n      jumpi\n      dup1\n      0x715018a6\n      eq\n      tag_8\n      jumpi\n    tag_2:\n      0x00\n      dup1\n      revert\n        /* \"contracts/Utils.sol\":17753:18012  function Tokenprice(address token) public view returns(uint256){... */\n    tag_3:\n      tag_16\n      0x04\n      dup1\n      calldatasize\n      sub\n      dup2\n      add\n      swap1\n      tag_17\n      swap2\n      swap1\n      tag_18\n      jump\t// in\n    tag_17:\n      tag_19\n      jump\t// in\n    tag_16:\n      mload(0x40)\n      tag_20\n      swap2\n      swap1\n      tag_21\n      jump\t// in\n    tag_20:\n      mload(0x40)\n      dup1\n      swap2\n      sub\n      swap1\n      return\n        /* \"contracts/Utils.sol\":18295:19143  function CalcLpPrice(LP lpAddress) public view returns(uint256){... */\n    tag_4:\n      tag_22\n      0x04\n      dup1\n      calldatasize\n      sub\n      dup2\n      add\n      swap1\n      tag_23\n      swap2\n      swap1\n      tag_24\n      jump\t// in\n    tag_23:\n      tag_25\n      jump\t// in\n    tag_22:\n      mload(0x40)\n      tag_26\n      swap2\n      swap1\n      tag_21\n      jump\t// in\n    tag_26:\n      mload(0x40)\n      dup1\n      swap2\n      sub\n      swap1\n      return\n        /* \"contracts/Utils.sol\":17448:17475  Router public routerAddress */\n    tag_5:\n      tag_27\n      tag_28\n      jump\t// in\n    tag_27:\n      mload(0x40)\n      tag_29\n      swap2\n      swap1\n      tag_30\n      jump\t// in\n    tag_29:\n      mload(0x40)\n      dup1\n      swap2\n      sub\n      swap1\n      return\n        /* \"contracts/Utils.sol\":18037:18270  function WBNBPrice(address token) public view returns(uint256){... */\n    tag_6:\n      tag_31\n      0x04\n      dup1\n      calldatasize\n      sub\n      dup2\n      add\n      swap1\n      tag_32\n      swap2\n      swap1\n      tag_18\n      jump\t// in\n    tag_32:\n      tag_33\n      jump\t// in\n    tag_31:\n      mload(0x40)\n      tag_34\n      swap2\n      swap1\n      tag_21\n      jump\t// in\n    tag_34:\n      mload(0x40)\n      dup1\n      swap2\n      sub\n      swap1\n      return\n        /* \"contracts/Utils.sol\":17334:17398  address public BUSD = 0x78867BbEeF44f2326bF8DDd1941a4439382EF2A7 */\n    tag_7:\n      tag_35\n      tag_36\n      jump\t// in\n    tag_35:\n      mload(0x40)\n      tag_37\n      swap2\n      swap1\n      tag_38\n      jump\t// in\n    tag_37:\n      mload(0x40)\n      dup1\n      swap2\n      sub\n      swap1\n      return\n        /* \"contracts/Utils.sol\":14500:14603  function renounceOwnership() public virtual onlyOwner {... */\n    tag_8:\n      tag_39\n      tag_40\n      jump\t// in\n    tag_39:\n      stop\n        /* \"contracts/Utils.sol\":13849:13936  function owner() public view virtual returns (address) {... */\n    tag_9:\n      tag_41\n      tag_42\n      jump\t// in\n    tag_41:\n      mload(0x40)\n      tag_43\n      swap2\n      swap1\n      tag_38\n      jump\t// in\n    tag_43:\n      mload(0x40)\n      dup1\n      swap2\n      sub\n      swap1\n      return\n        /* \"contracts/Utils.sol\":17263:17327  address public WBNB = 0xae13d989daC2f0dEbFf460aC112a837C89BAa7cd */\n    tag_10:\n      tag_44\n      tag_45\n      jump\t// in\n    tag_44:\n      mload(0x40)\n      tag_46\n      swap2\n      swap1\n      tag_38\n      jump\t// in\n    tag_46:\n      mload(0x40)\n      dup1\n      swap2\n      sub\n      swap1\n      return\n        /* \"contracts/Utils.sol\":17621:17728  function setRouter(Router _routerAddress) public onlyOwner{... */\n    tag_11:\n      tag_47\n      0x04\n      dup1\n      calldatasize\n      sub\n      dup2\n      add\n      swap1\n      tag_48\n      swap2\n      swap1\n      tag_49\n      jump\t// in\n    tag_48:\n      tag_50\n      jump\t// in\n    tag_47:\n      stop\n        /* \"contracts/Utils.sol\":19166:19737  function calcPoolTVLInUSD(uint256 pid, LP lpAddress, uint256 isLp, MetaMasterChef MasterChef) public view returns(uint256){... */\n    tag_12:\n      tag_51\n      0x04\n      dup1\n      calldatasize\n      sub\n      dup2\n      add\n      swap1\n      tag_52\n      swap2\n      swap1\n      tag_53\n      jump\t// in\n    tag_52:\n      tag_54\n      jump\t// in\n    tag_51:\n      mload(0x40)\n      tag_55\n      swap2\n      swap1\n      tag_21\n      jump\t// in\n    tag_55:\n      mload(0x40)\n      dup1\n      swap2\n      sub\n      swap1\n      return\n        /* \"contracts/Utils.sol\":19745:20447  function CalcApy(uint256 pid, LP lpAddress,uint256 isLp, MetaMasterChef MasterChef) external view returns(uint256){... */\n    tag_13:\n      tag_56\n      0x04\n      dup1\n      calldatasize\n      sub\n      dup2\n      add\n      swap1\n      tag_57\n      swap2\n      swap1\n      tag_53\n      jump\t// in\n    tag_57:\n      tag_58\n      jump\t// in\n    tag_56:\n      mload(0x40)\n      tag_59\n      swap2\n      swap1\n      tag_21\n      jump\t// in\n    tag_59:\n      mload(0x40)\n      dup1\n      swap2\n      sub\n      swap1\n      return\n        /* \"contracts/Utils.sol\":14758:14959  function transferOwnership(address newOwner) public virtual onlyOwner {... */\n    tag_14:\n      tag_60\n      0x04\n      dup1\n      calldatasize\n      sub\n      dup2\n      add\n      swap1\n      tag_61\n      swap2\n      swap1\n      tag_18\n      jump\t// in\n    tag_61:\n      tag_62\n      jump\t// in\n    tag_60:\n      stop\n        /* \"contracts/Utils.sol\":17753:18012  function Tokenprice(address token) public view returns(uint256){... */\n    tag_19:\n        /* \"contracts/Utils.sol\":17808:17815  uint256 */\n      0x00\n        /* \"contracts/Utils.sol\":17827:17848  address[] memory path */\n      dup1\n        /* \"contracts/Utils.sol\":17865:17866  3 */\n      0x03\n        /* \"contracts/Utils.sol\":17851:17867  new address[](3) */\n      0xffffffffffffffff\n      dup2\n      gt\n      iszero\n      tag_64\n      jumpi\n      tag_65\n      tag_66\n      jump\t// in\n    tag_65:\n    tag_64:\n      mload(0x40)\n      swap1\n      dup1\n      dup3\n      mstore\n      dup1\n      0x20\n      mul\n      0x20\n      add\n      dup3\n      add\n      0x40\n      mstore\n      dup1\n      iszero\n      tag_67\n      jumpi\n      dup2\n      0x20\n      add\n      0x20\n      dup3\n      mul\n      dup1\n      calldatasize\n      dup4\n      calldatacopy\n      dup1\n      dup3\n      add\n      swap2\n      pop\n      pop\n      swap1\n      pop\n    tag_67:\n      pop\n        /* \"contracts/Utils.sol\":17827:17867  address[] memory path = new address[](3) */\n      swap1\n      pop\n        /* \"contracts/Utils.sol\":17888:17893  token */\n      dup3\n        /* \"contracts/Utils.sol\":17878:17882  path */\n      dup2\n        /* \"contracts/Utils.sol\":17883:17884  0 */\n      0x00\n        /* \"contracts/Utils.sol\":17878:17885  path[0] */\n      dup2\n      mload\n      dup2\n      lt\n      tag_68\n      jumpi\n      tag_69\n      tag_70\n      jump\t// in\n    tag_69:\n    tag_68:\n      0x20\n      mul\n      0x20\n      add\n      add\n        /* \"contracts/Utils.sol\":17878:17893  path[0] = token */\n      swap1\n      0xffffffffffffffffffffffffffffffffffffffff\n      and\n      swap1\n      dup2\n      0xffffffffffffffffffffffffffffffffffffffff\n      and\n      dup2\n      mstore\n      pop\n      pop\n        /* \"contracts/Utils.sol\":17914:17918  WBNB */\n      0x01\n      0x00\n      swap1\n      sload\n      swap1\n      0x0100\n      exp\n      swap1\n      div\n      0xffffffffffffffffffffffffffffffffffffffff\n      and\n        /* \"contracts/Utils.sol\":17904:17908  path */\n      dup2\n        /* \"contracts/Utils.sol\":17909:17910  1 */\n      0x01\n        /* \"contracts/Utils.sol\":17904:17911  path[1] */\n      dup2\n      mload\n      dup2\n      lt\n      tag_71\n      jumpi\n      tag_72\n      tag_70\n      jump\t// in\n    tag_72:\n    tag_71:\n      0x20\n      mul\n      0x20\n      add\n      add\n        /* \"contracts/Utils.sol\":17904:17918  path[1] = WBNB */\n      swap1\n      0xffffffffffffffffffffffffffffffffffffffff\n      and\n      swap1\n      dup2\n      0xffffffffffffffffffffffffffffffffffffffff\n      and\n      dup2\n      mstore\n      pop\n      pop\n        /* \"contracts/Utils.sol\":17939:17943  BUSD */\n      0x02\n      0x00\n      swap1\n      sload\n      swap1\n      0x0100\n      exp\n      swap1\n      div\n      0xffffffffffffffffffffffffffffffffffffffff\n      and\n        /* \"contracts/Utils.sol\":17929:17933  path */\n      dup2\n        /* \"contracts/Utils.sol\":17934:17935  2 */\n      0x02\n        /* \"contracts/Utils.sol\":17929:17936  path[2] */\n      dup2\n      mload\n      dup2\n      lt\n      tag_73\n      jumpi\n      tag_74\n      tag_70\n      jump\t// in\n    tag_74:\n    tag_73:\n      0x20\n      mul\n      0x20\n      add\n      add\n        /* \"contracts/Utils.sol\":17929:17943  path[2] = BUSD */\n      swap1\n      0xffffffffffffffffffffffffffffffffffffffff\n      and\n      swap1\n      dup2\n      0xffffffffffffffffffffffffffffffffffffffff\n      and\n      dup2\n      mstore\n      pop\n      pop\n        /* \"contracts/Utils.sol\":17961:17974  routerAddress */\n      0x04\n      0x00\n      swap1\n      sload\n      swap1\n      0x0100\n      exp\n      swap1\n      div\n      0xffffffffffffffffffffffffffffffffffffffff\n      and\n        /* \"contracts/Utils.sol\":17961:17988  routerAddress.getAmountsOut */\n      0xffffffffffffffffffffffffffffffffffffffff\n      and\n      0xd06ca61f\n        /* \"contracts/Utils.sol\":17989:17995  amount */\n      sload(0x03)\n        /* \"contracts/Utils.sol\":17996:18000  path */\n      dup4\n        /* \"contracts/Utils.sol\":17961:18001  routerAddress.getAmountsOut(amount,path) */\n      mload(0x40)\n      dup4\n      0xffffffff\n      and\n      0xe0\n      shl\n      dup2\n      mstore\n      0x04\n      add\n      tag_75\n      swap3\n      swap2\n      swap1\n      tag_76\n      jump\t// in\n    tag_75:\n      0x00\n      mload(0x40)\n      dup1\n      dup4\n      sub\n      dup2\n      dup7\n      gas\n      staticcall\n      iszero\n      dup1\n      iszero\n      tag_78\n      jumpi\n      returndatasize\n      0x00\n      dup1\n      returndatacopy\n      revert(0x00, returndatasize)\n    tag_78:\n      pop\n      pop\n      pop\n      pop\n      mload(0x40)\n      returndatasize\n      0x00\n      dup3\n      returndatacopy\n      returndatasize\n      not(0x1f)\n      0x1f\n      dup3\n      add\n      and\n      dup3\n      add\n      dup1\n      0x40\n      mstore\n      pop\n      dup2\n      add\n      swap1\n      tag_79\n      swap2\n      swap1\n      tag_80\n      jump\t// in\n    tag_79:\n        /* \"contracts/Utils.sol\":18002:18003  2 */\n      0x02\n        /* \"contracts/Utils.sol\":17961:18004  routerAddress.getAmountsOut(amount,path)[2] */\n      dup2\n      mload\n      dup2\n      lt\n      tag_81\n      jumpi\n      tag_82\n      tag_70\n      jump\t// in\n    tag_82:\n    tag_81:\n      0x20\n      mul\n      0x20\n      add\n      add\n      mload\n        /* \"contracts/Utils.sol\":17954:18004  return routerAddress.getAmountsOut(amount,path)[2] */\n      swap2\n      pop\n      pop\n        /* \"contracts/Utils.sol\":17753:18012  function Tokenprice(address token) public view returns(uint256){... */\n      swap2\n      swap1\n      pop\n      jump\t// out\n        /* \"contracts/Utils.sol\":18295:19143  function CalcLpPrice(LP lpAddress) public view returns(uint256){... */\n    tag_25:\n        /* \"contracts/Utils.sol\":18350:18357  uint256 */\n      0x00\n        /* \"contracts/Utils.sol\":18369:18383  uint256 phase1 */\n      dup1\n        /* \"contracts/Utils.sol\":18394:18408  uint256 phase2 */\n      0x00\n        /* \"contracts/Utils.sol\":18447:18456  lpAddress */\n      dup4\n        /* \"contracts/Utils.sol\":18447:18463  lpAddress.token0 */\n      0xffffffffffffffffffffffffffffffffffffffff\n      and\n      0x0dfe1681\n        /* \"contracts/Utils.sol\":18447:18465  lpAddress.token0() */\n      mload(0x40)\n      dup2\n      0xffffffff\n      and\n      0xe0\n      shl\n      dup2\n      mstore\n      0x04\n      add\n      0x20\n      mload(0x40)\n      dup1\n      dup4\n      sub\n      dup2\n      dup7\n      gas\n      staticcall\n      iszero\n      dup1\n      iszero\n      tag_85\n      jumpi\n      returndatasize\n      0x00\n      dup1\n      returndatacopy\n      revert(0x00, returndatasize)\n    tag_85:\n      pop\n      pop\n      pop\n      pop\n      mload(0x40)\n      returndatasize\n      not(0x1f)\n      0x1f\n      dup3\n      add\n      and\n      dup3\n      add\n      dup1\n      0x40\n      mstore\n      pop\n      dup2\n      add\n      swap1\n      tag_86\n      swap2\n      swap1\n      tag_87\n      jump\t// in\n    tag_86:\n        /* \"contracts/Utils.sol\":18422:18466  address(WBNB) == address(lpAddress.token0()) */\n      0xffffffffffffffffffffffffffffffffffffffff\n      and\n        /* \"contracts/Utils.sol\":18430:18434  WBNB */\n      0x01\n      0x00\n      swap1\n      sload\n      swap1\n      0x0100\n      exp\n      swap1\n      div\n      0xffffffffffffffffffffffffffffffffffffffff\n      and\n        /* \"contracts/Utils.sol\":18422:18466  address(WBNB) == address(lpAddress.token0()) */\n      0xffffffffffffffffffffffffffffffffffffffff\n      and\n      sub\n        /* \"contracts/Utils.sol\":18419:18732  if(address(WBNB) == address(lpAddress.token0())){... */\n      tag_88\n      jumpi\n        /* \"contracts/Utils.sol\":18492:18584  lpAddress.token0().balanceOf(address(lpAddress)).mul(WBNBPrice(address(lpAddress.token0()))) */\n      tag_89\n        /* \"contracts/Utils.sol\":18545:18583  WBNBPrice(address(lpAddress.token0())) */\n      tag_90\n        /* \"contracts/Utils.sol\":18563:18572  lpAddress */\n      dup6\n        /* \"contracts/Utils.sol\":18563:18579  lpAddress.token0 */\n      0xffffffffffffffffffffffffffffffffffffffff\n      and\n      0x0dfe1681\n        /* \"contracts/Utils.sol\":18563:18581  lpAddress.token0() */\n      mload(0x40)\n      dup2\n      0xffffffff\n      and\n      0xe0\n      shl\n      dup2\n      mstore\n      0x04\n      add\n      0x20\n      mload(0x40)\n      dup1\n      dup4\n      sub\n      dup2\n      dup7\n      gas\n      staticcall\n      iszero\n      dup1\n      iszero\n      tag_92\n      jumpi\n      returndatasize\n      0x00\n      dup1\n      returndatacopy\n      revert(0x00, returndatasize)\n    tag_92:\n      pop\n      pop\n      pop\n      pop\n      mload(0x40)\n      returndatasize\n      not(0x1f)\n      0x1f\n      dup3\n      add\n      and\n      dup3\n      add\n      dup1\n      0x40\n      mstore\n      pop\n      dup2\n      add\n      swap1\n      tag_93\n      swap2\n      swap1\n      tag_87\n      jump\t// in\n    tag_93:\n        /* \"contracts/Utils.sol\":18545:18554  WBNBPrice */\n      tag_33\n        /* \"contracts/Utils.sol\":18545:18583  WBNBPrice(address(lpAddress.token0())) */\n      jump\t// in\n    tag_90:\n        /* \"contracts/Utils.sol\":18492:18501  lpAddress */\n      dup6\n        /* \"contracts/Utils.sol\":18492:18508  lpAddress.token0 */\n      0xffffffffffffffffffffffffffffffffffffffff\n      and\n      0x0dfe1681\n        /* \"contracts/Utils.sol\":18492:18510  lpAddress.token0() */\n      mload(0x40)\n      dup2\n      0xffffffff\n      and\n      0xe0\n      shl\n      dup2\n      mstore\n      0x04\n      add\n      0x20\n      mload(0x40)\n      dup1\n      dup4\n      sub\n      dup2\n      dup7\n      gas\n      staticcall\n      iszero\n      dup1\n      iszero\n      tag_95\n      jumpi\n      returndatasize\n      0x00\n      dup1\n      returndatacopy\n      revert(0x00, returndatasize)\n    tag_95:\n      pop\n      pop\n      pop\n      pop\n      mload(0x40)\n      returndatasize\n      not(0x1f)\n      0x1f\n      dup3\n      add\n      and\n      dup3\n      add\n      dup1\n      0x40\n      mstore\n      pop\n      dup2\n      add\n      swap1\n      tag_96\n      swap2\n      swap1\n      tag_87\n      jump\t// in\n    tag_96:\n        /* \"contracts/Utils.sol\":18492:18520  lpAddress.token0().balanceOf */\n      0xffffffffffffffffffffffffffffffffffffffff\n      and\n      0x70a08231\n        /* \"contracts/Utils.sol\":18529:18538  lpAddress */\n      dup8\n        /* \"contracts/Utils.sol\":18492:18540  lpAddress.token0().balanceOf(address(lpAddress)) */\n      mload(0x40)\n      dup3\n      0xffffffff\n      and\n      0xe0\n      shl\n      dup2\n      mstore\n      0x04\n      add\n      tag_97\n      swap2\n      swap1\n      tag_38\n      jump\t// in\n    tag_97:\n      0x20\n      mload(0x40)\n      dup1\n      dup4\n      sub\n      dup2\n      dup7\n      gas\n      staticcall\n      iszero\n      dup1\n      iszero\n      tag_99\n      jumpi\n      returndatasize\n      0x00\n      dup1\n      returndatacopy\n      revert(0x00, returndatasize)\n    tag_99:\n      pop\n      pop\n      pop\n      pop\n      mload(0x40)\n      returndatasize\n      not(0x1f)\n      0x1f\n      dup3\n      add\n      and\n      dup3\n      add\n      dup1\n      0x40\n      mstore\n      pop\n      dup2\n      add\n      swap1\n      tag_100\n      swap2\n      swap1\n      tag_101\n      jump\t// in\n    tag_100:\n        /* \"contracts/Utils.sol\":18492:18544  lpAddress.token0().balanceOf(address(lpAddress)).mul */\n      tag_102\n      swap1\n        /* \"contracts/Utils.sol\":18492:18584  lpAddress.token0().balanceOf(address(lpAddress)).mul(WBNBPrice(address(lpAddress.token0()))) */\n      swap2\n      swap1\n      0xffffffff\n      and\n      jump\t// in\n    tag_89:\n        /* \"contracts/Utils.sol\":18482:18585  phase1 = (lpAddress.token0().balanceOf(address(lpAddress)).mul(WBNBPrice(address(lpAddress.token0())))) */\n      swap2\n      pop\n        /* \"contracts/Utils.sol\":18419:18732  if(address(WBNB) == address(lpAddress.token0())){... */\n      jump(tag_103)\n    tag_88:\n        /* \"contracts/Utils.sol\":18626:18719  lpAddress.token0().balanceOf(address(lpAddress)).mul(Tokenprice(address(lpAddress.token0()))) */\n      tag_104\n        /* \"contracts/Utils.sol\":18679:18718  Tokenprice(address(lpAddress.token0())) */\n      tag_105\n        /* \"contracts/Utils.sol\":18698:18707  lpAddress */\n      dup6\n        /* \"contracts/Utils.sol\":18698:18714  lpAddress.token0 */\n      0xffffffffffffffffffffffffffffffffffffffff\n      and\n      0x0dfe1681\n        /* \"contracts/Utils.sol\":18698:18716  lpAddress.token0() */\n      mload(0x40)\n      dup2\n      0xffffffff\n      and\n      0xe0\n      shl\n      dup2\n      mstore\n      0x04\n      add\n      0x20\n      mload(0x40)\n      dup1\n      dup4\n      sub\n      dup2\n      dup7\n      gas\n      staticcall\n      iszero\n      dup1\n      iszero\n      tag_107\n      jumpi\n      returndatasize\n      0x00\n      dup1\n      returndatacopy\n      revert(0x00, returndatasize)\n    tag_107:\n      pop\n      pop\n      pop\n      pop\n      mload(0x40)\n      returndatasize\n      not(0x1f)\n      0x1f\n      dup3\n      add\n      and\n      dup3\n      add\n      dup1\n      0x40\n      mstore\n      pop\n      dup2\n      add\n      swap1\n      tag_108\n      swap2\n      swap1\n      tag_87\n      jump\t// in\n    tag_108:\n        /* \"contracts/Utils.sol\":18679:18689  Tokenprice */\n      tag_19\n        /* \"contracts/Utils.sol\":18679:18718  Tokenprice(address(lpAddress.token0())) */\n      jump\t// in\n    tag_105:\n        /* \"contracts/Utils.sol\":18626:18635  lpAddress */\n      dup6\n        /* \"contracts/Utils.sol\":18626:18642  lpAddress.token0 */\n      0xffffffffffffffffffffffffffffffffffffffff\n      and\n      0x0dfe1681\n        /* \"contracts/Utils.sol\":18626:18644  lpAddress.token0() */\n      mload(0x40)\n      dup2\n      0xffffffff\n      and\n      0xe0\n      shl\n      dup2\n      mstore\n      0x04\n      add\n      0x20\n      mload(0x40)\n      dup1\n      dup4\n      sub\n      dup2\n      dup7\n      gas\n      staticcall\n      iszero\n      dup1\n      iszero\n      tag_110\n      jumpi\n      returndatasize\n      0x00\n      dup1\n      returndatacopy\n      revert(0x00, returndatasize)\n    tag_110:\n      pop\n      pop\n      pop\n      pop\n      mload(0x40)\n      returndatasize\n      not(0x1f)\n      0x1f\n      dup3\n      add\n      and\n      dup3\n      add\n      dup1\n      0x40\n      mstore\n      pop\n      dup2\n      add\n      swap1\n      tag_111\n      swap2\n      swap1\n      tag_87\n      jump\t// in\n    tag_111:\n        /* \"contracts/Utils.sol\":18626:18654  lpAddress.token0().balanceOf */\n      0xffffffffffffffffffffffffffffffffffffffff\n      and\n      0x70a08231\n        /* \"contracts/Utils.sol\":18663:18672  lpAddress */\n      dup8\n        /* \"contracts/Utils.sol\":18626:18674  lpAddress.token0().balanceOf(address(lpAddress)) */\n      mload(0x40)\n      dup3\n      0xffffffff\n      and\n      0xe0\n      shl\n      dup2\n      mstore\n      0x04\n      add\n      tag_112\n      swap2\n      swap1\n      tag_38\n      jump\t// in\n    tag_112:\n      0x20\n      mload(0x40)\n      dup1\n      dup4\n      sub\n      dup2\n      dup7\n      gas\n      staticcall\n      iszero\n      dup1\n      iszero\n      tag_114\n      jumpi\n      returndatasize\n      0x00\n      dup1\n      returndatacopy\n      revert(0x00, returndatasize)\n    tag_114:\n      pop\n      pop\n      pop\n      pop\n      mload(0x40)\n      returndatasize\n      not(0x1f)\n      0x1f\n      dup3\n      add\n      and\n      dup3\n      add\n      dup1\n      0x40\n      mstore\n      pop\n      dup2\n      add\n      swap1\n      tag_115\n      swap2\n      swap1\n      tag_101\n      jump\t// in\n    tag_115:\n        /* \"contracts/Utils.sol\":18626:18678  lpAddress.token0().balanceOf(address(lpAddress)).mul */\n      tag_102\n      swap1\n        /* \"contracts/Utils.sol\":18626:18719  lpAddress.token0().balanceOf(address(lpAddress)).mul(Tokenprice(address(lpAddress.token0()))) */\n      swap2\n      swap1\n      0xffffffff\n      and\n      jump\t// in\n    tag_104:\n        /* \"contracts/Utils.sol\":18616:18720  phase1 = (lpAddress.token0().balanceOf(address(lpAddress)).mul(Tokenprice(address(lpAddress.token0())))) */\n      swap2\n      pop\n        /* \"contracts/Utils.sol\":18419:18732  if(address(WBNB) == address(lpAddress.token0())){... */\n    tag_103:\n        /* \"contracts/Utils.sol\":18772:18781  lpAddress */\n      dup4\n        /* \"contracts/Utils.sol\":18772:18788  lpAddress.token1 */\n      0xffffffffffffffffffffffffffffffffffffffff\n      and\n      0xd21220a7\n        /* \"contracts/Utils.sol\":18772:18790  lpAddress.token1() */\n      mload(0x40)\n      dup2\n      0xffffffff\n      and\n      0xe0\n      shl\n      dup2\n      mstore\n      0x04\n      add\n      0x20\n      mload(0x40)\n      dup1\n      dup4\n      sub\n      dup2\n      dup7\n      gas\n      staticcall\n      iszero\n      dup1\n      iszero\n      tag_117\n      jumpi\n      returndatasize\n      0x00\n      dup1\n      returndatacopy\n      revert(0x00, returndatasize)\n    tag_117:\n      pop\n      pop\n      pop\n      pop\n      mload(0x40)\n      returndatasize\n      not(0x1f)\n      0x1f\n      dup3\n      add\n      and\n      dup3\n      add\n      dup1\n      0x40\n      mstore\n      pop\n      dup2\n      add\n      swap1\n      tag_118\n      swap2\n      swap1\n      tag_87\n      jump\t// in\n    tag_118:\n        /* \"contracts/Utils.sol\":18747:18791  address(WBNB) == address(lpAddress.token1()) */\n      0xffffffffffffffffffffffffffffffffffffffff\n      and\n        /* \"contracts/Utils.sol\":18755:18759  WBNB */\n      0x01\n      0x00\n      swap1\n      sload\n      swap1\n      0x0100\n      exp\n      swap1\n      div\n      0xffffffffffffffffffffffffffffffffffffffff\n      and\n        /* \"contracts/Utils.sol\":18747:18791  address(WBNB) == address(lpAddress.token1()) */\n      0xffffffffffffffffffffffffffffffffffffffff\n      and\n      sub\n        /* \"contracts/Utils.sol\":18744:19057  if(address(WBNB) == address(lpAddress.token1())){... */\n      tag_119\n      jumpi\n        /* \"contracts/Utils.sol\":18817:18909  lpAddress.token1().balanceOf(address(lpAddress)).mul(WBNBPrice(address(lpAddress.token1()))) */\n      tag_120\n        /* \"contracts/Utils.sol\":18870:18908  WBNBPrice(address(lpAddress.token1())) */\n      tag_121\n        /* \"contracts/Utils.sol\":18888:18897  lpAddress */\n      dup6\n        /* \"contracts/Utils.sol\":18888:18904  lpAddress.token1 */\n      0xffffffffffffffffffffffffffffffffffffffff\n      and\n      0xd21220a7\n        /* \"contracts/Utils.sol\":18888:18906  lpAddress.token1() */\n      mload(0x40)\n      dup2\n      0xffffffff\n      and\n      0xe0\n      shl\n      dup2\n      mstore\n      0x04\n      add\n      0x20\n      mload(0x40)\n      dup1\n      dup4\n      sub\n      dup2\n      dup7\n      gas\n      staticcall\n      iszero\n      dup1\n      iszero\n      tag_123\n      jumpi\n      returndatasize\n      0x00\n      dup1\n      returndatacopy\n      revert(0x00, returndatasize)\n    tag_123:\n      pop\n      pop\n      pop\n      pop\n      mload(0x40)\n      returndatasize\n      not(0x1f)\n      0x1f\n      dup3\n      add\n      and\n      dup3\n      add\n      dup1\n      0x40\n      mstore\n      pop\n      dup2\n      add\n      swap1\n      tag_124\n      swap2\n      swap1\n      tag_87\n      jump\t// in\n    tag_124:\n        /* \"contracts/Utils.sol\":18870:18879  WBNBPrice */\n      tag_33\n        /* \"contracts/Utils.sol\":18870:18908  WBNBPrice(address(lpAddress.token1())) */\n      jump\t// in\n    tag_121:\n        /* \"contracts/Utils.sol\":18817:18826  lpAddress */\n      dup6\n        /* \"contracts/Utils.sol\":18817:18833  lpAddress.token1 */\n      0xffffffffffffffffffffffffffffffffffffffff\n      and\n      0xd21220a7\n        /* \"contracts/Utils.sol\":18817:18835  lpAddress.token1() */\n      mload(0x40)\n      dup2\n      0xffffffff\n      and\n      0xe0\n      shl\n      dup2\n      mstore\n      0x04\n      add\n      0x20\n      mload(0x40)\n      dup1\n      dup4\n      sub\n      dup2\n      dup7\n      gas\n      staticcall\n      iszero\n      dup1\n      iszero\n      tag_126\n      jumpi\n      returndatasize\n      0x00\n      dup1\n      returndatacopy\n      revert(0x00, returndatasize)\n    tag_126:\n      pop\n      pop\n      pop\n      pop\n      mload(0x40)\n      returndatasize\n      not(0x1f)\n      0x1f\n      dup3\n      add\n      and\n      dup3\n      add\n      dup1\n      0x40\n      mstore\n      pop\n      dup2\n      add\n      swap1\n      tag_127\n      swap2\n      swap1\n      tag_87\n      jump\t// in\n    tag_127:\n        /* \"contracts/Utils.sol\":18817:18845  lpAddress.token1().balanceOf */\n      0xffffffffffffffffffffffffffffffffffffffff\n      and\n      0x70a08231\n        /* \"contracts/Utils.sol\":18854:18863  lpAddress */\n      dup8\n        /* \"contracts/Utils.sol\":18817:18865  lpAddress.token1().balanceOf(address(lpAddress)) */\n      mload(0x40)\n      dup3\n      0xffffffff\n      and\n      0xe0\n      shl\n      dup2\n      mstore\n      0x04\n      add\n      tag_128\n      swap2\n      swap1\n      tag_38\n      jump\t// in\n    tag_128:\n      0x20\n      mload(0x40)\n      dup1\n      dup4\n      sub\n      dup2\n      dup7\n      gas\n      staticcall\n      iszero\n      dup1\n      iszero\n      tag_130\n      jumpi\n      returndatasize\n      0x00\n      dup1\n      returndatacopy\n      revert(0x00, returndatasize)\n    tag_130:\n      pop\n      pop\n      pop\n      pop\n      mload(0x40)\n      returndatasize\n      not(0x1f)\n      0x1f\n      dup3\n      add\n      and\n      dup3\n      add\n      dup1\n      0x40\n      mstore\n      pop\n      dup2\n      add\n      swap1\n      tag_131\n      swap2\n      swap1\n      tag_101\n      jump\t// in\n    tag_131:\n        /* \"contracts/Utils.sol\":18817:18869  lpAddress.token1().balanceOf(address(lpAddress)).mul */\n      tag_102\n      swap1\n        /* \"contracts/Utils.sol\":18817:18909  lpAddress.token1().balanceOf(address(lpAddress)).mul(WBNBPrice(address(lpAddress.token1()))) */\n      swap2\n      swap1\n      0xffffffff\n      and\n      jump\t// in\n    tag_120:\n        /* \"contracts/Utils.sol\":18807:18910  phase2 = (lpAddress.token1().balanceOf(address(lpAddress)).mul(WBNBPrice(address(lpAddress.token1())))) */\n      swap1\n      pop\n        /* \"contracts/Utils.sol\":18744:19057  if(address(WBNB) == address(lpAddress.token1())){... */\n      jump(tag_132)\n    tag_119:\n        /* \"contracts/Utils.sol\":18951:19044  lpAddress.token1().balanceOf(address(lpAddress)).mul(Tokenprice(address(lpAddress.token1()))) */\n      tag_133\n        /* \"contracts/Utils.sol\":19004:19043  Tokenprice(address(lpAddress.token1())) */\n      tag_134\n        /* \"contracts/Utils.sol\":19023:19032  lpAddress */\n      dup6\n        /* \"contracts/Utils.sol\":19023:19039  lpAddress.token1 */\n      0xffffffffffffffffffffffffffffffffffffffff\n      and\n      0xd21220a7\n        /* \"contracts/Utils.sol\":19023:19041  lpAddress.token1() */\n      mload(0x40)\n      dup2\n      0xffffffff\n      and\n      0xe0\n      shl\n      dup2\n      mstore\n      0x04\n      add\n      0x20\n      mload(0x40)\n      dup1\n      dup4\n      sub\n      dup2\n      dup7\n      gas\n      staticcall\n      iszero\n      dup1\n      iszero\n      tag_136\n      jumpi\n      returndatasize\n      0x00\n      dup1\n      returndatacopy\n      revert(0x00, returndatasize)\n    tag_136:\n      pop\n      pop\n      pop\n      pop\n      mload(0x40)\n      returndatasize\n      not(0x1f)\n      0x1f\n      dup3\n      add\n      and\n      dup3\n      add\n      dup1\n      0x40\n      mstore\n      pop\n      dup2\n      add\n      swap1\n      tag_137\n      swap2\n      swap1\n      tag_87\n      jump\t// in\n    tag_137:\n        /* \"contracts/Utils.sol\":19004:19014  Tokenprice */\n      tag_19\n        /* \"contracts/Utils.sol\":19004:19043  Tokenprice(address(lpAddress.token1())) */\n      jump\t// in\n    tag_134:\n        /* \"contracts/Utils.sol\":18951:18960  lpAddress */\n      dup6\n        /* \"contracts/Utils.sol\":18951:18967  lpAddress.token1 */\n      0xffffffffffffffffffffffffffffffffffffffff\n      and\n      0xd21220a7\n        /* \"contracts/Utils.sol\":18951:18969  lpAddress.token1() */\n      mload(0x40)\n      dup2\n      0xffffffff\n      and\n      0xe0\n      shl\n      dup2\n      mstore\n      0x04\n      add\n      0x20\n      mload(0x40)\n      dup1\n      dup4\n      sub\n      dup2\n      dup7\n      gas\n      staticcall\n      iszero\n      dup1\n      iszero\n      tag_139\n      jumpi\n      returndatasize\n      0x00\n      dup1\n      returndatacopy\n      revert(0x00, returndatasize)\n    tag_139:\n      pop\n      pop\n      pop\n      pop\n      mload(0x40)\n      returndatasize\n      not(0x1f)\n      0x1f\n      dup3\n      add\n      and\n      dup3\n      add\n      dup1\n      0x40\n      mstore\n      pop\n      dup2\n      add\n      swap1\n      tag_140\n      swap2\n      swap1\n      tag_87\n      jump\t// in\n    tag_140:\n        /* \"contracts/Utils.sol\":18951:18979  lpAddress.token1().balanceOf */\n      0xffffffffffffffffffffffffffffffffffffffff\n      and\n      0x70a08231\n        /* \"contracts/Utils.sol\":18988:18997  lpAddress */\n      dup8\n        /* \"contracts/Utils.sol\":18951:18999  lpAddress.token1().balanceOf(address(lpAddress)) */\n      mload(0x40)\n      dup3\n      0xffffffff\n      and\n      0xe0\n      shl\n      dup2\n      mstore\n      0x04\n      add\n      tag_141\n      swap2\n      swap1\n      tag_38\n      jump\t// in\n    tag_141:\n      0x20\n      mload(0x40)\n      dup1\n      dup4\n      sub\n      dup2\n      dup7\n      gas\n      staticcall\n      iszero\n      dup1\n      iszero\n      tag_143\n      jumpi\n      returndatasize\n      0x00\n      dup1\n      returndatacopy\n      revert(0x00, returndatasize)\n    tag_143:\n      pop\n      pop\n      pop\n      pop\n      mload(0x40)\n      returndatasize\n      not(0x1f)\n      0x1f\n      dup3\n      add\n      and\n      dup3\n      add\n      dup1\n      0x40\n      mstore\n      pop\n      dup2\n      add\n      swap1\n      tag_144\n      swap2\n      swap1\n      tag_101\n      jump\t// in\n    tag_144:\n        /* \"contracts/Utils.sol\":18951:19003  lpAddress.token1().balanceOf(address(lpAddress)).mul */\n      tag_102\n      swap1\n        /* \"contracts/Utils.sol\":18951:19044  lpAddress.token1().balanceOf(address(lpAddress)).mul(Tokenprice(address(lpAddress.token1()))) */\n      swap2\n      swap1\n      0xffffffff\n      and\n      jump\t// in\n    tag_133:\n        /* \"contracts/Utils.sol\":18941:19045  phase2 = (lpAddress.token1().balanceOf(address(lpAddress)).mul(Tokenprice(address(lpAddress.token1())))) */\n      swap1\n      pop\n        /* \"contracts/Utils.sol\":18744:19057  if(address(WBNB) == address(lpAddress.token1())){... */\n    tag_132:\n        /* \"contracts/Utils.sol\":19085:19134  (phase1.add(phase2)).div(lpAddress.totalSupply()) */\n      tag_145\n        /* \"contracts/Utils.sol\":19110:19119  lpAddress */\n      dup5\n        /* \"contracts/Utils.sol\":19110:19131  lpAddress.totalSupply */\n      0xffffffffffffffffffffffffffffffffffffffff\n      and\n      0x18160ddd\n        /* \"contracts/Utils.sol\":19110:19133  lpAddress.totalSupply() */\n      mload(0x40)\n      dup2\n      0xffffffff\n      and\n      0xe0\n      shl\n      dup2\n      mstore\n      0x04\n      add\n      0x20\n      mload(0x40)\n      dup1\n      dup4\n      sub\n      dup2\n      dup7\n      gas\n      staticcall\n      iszero\n      dup1\n      iszero\n      tag_147\n      jumpi\n      returndatasize\n      0x00\n      dup1\n      returndatacopy\n      revert(0x00, returndatasize)\n    tag_147:\n      pop\n      pop\n      pop\n      pop\n      mload(0x40)\n      returndatasize\n      not(0x1f)\n      0x1f\n      dup3\n      add\n      and\n      dup3\n      add\n      dup1\n      0x40\n      mstore\n      pop\n      dup2\n      add\n      swap1\n      tag_148\n      swap2\n      swap1\n      tag_101\n      jump\t// in\n    tag_148:\n        /* \"contracts/Utils.sol\":19086:19104  phase1.add(phase2) */\n      tag_149\n        /* \"contracts/Utils.sol\":19097:19103  phase2 */\n      dup4\n        /* \"contracts/Utils.sol\":19086:19092  phase1 */\n      dup6\n        /* \"contracts/Utils.sol\":19086:19096  phase1.add */\n      tag_150\n      swap1\n        /* \"contracts/Utils.sol\":19086:19104  phase1.add(phase2) */\n      swap2\n      swap1\n      0xffffffff\n      and\n      jump\t// in\n    tag_149:\n        /* \"contracts/Utils.sol\":19085:19109  (phase1.add(phase2)).div */\n      tag_151\n      swap1\n        /* \"contracts/Utils.sol\":19085:19134  (phase1.add(phase2)).div(lpAddress.totalSupply()) */\n      swap2\n      swap1\n      0xffffffff\n      and\n      jump\t// in\n    tag_145:\n        /* \"contracts/Utils.sol\":19077:19135  return ((phase1.add(phase2)).div(lpAddress.totalSupply())) */\n      swap3\n      pop\n      pop\n      pop\n        /* \"contracts/Utils.sol\":18295:19143  function CalcLpPrice(LP lpAddress) public view returns(uint256){... */\n      swap2\n      swap1\n      pop\n      jump\t// out\n        /* \"contracts/Utils.sol\":17448:17475  Router public routerAddress */\n    tag_28:\n      0x04\n      0x00\n      swap1\n      sload\n      swap1\n      0x0100\n      exp\n      swap1\n      div\n      0xffffffffffffffffffffffffffffffffffffffff\n      and\n      dup2\n      jump\t// out\n        /* \"contracts/Utils.sol\":18037:18270  function WBNBPrice(address token) public view returns(uint256){... */\n    tag_33:\n        /* \"contracts/Utils.sol\":18091:18098  uint256 */\n      0x00\n        /* \"contracts/Utils.sol\":18110:18131  address[] memory path */\n      dup1\n        /* \"contracts/Utils.sol\":18148:18149  2 */\n      0x02\n        /* \"contracts/Utils.sol\":18134:18150  new address[](2) */\n      0xffffffffffffffff\n      dup2\n      gt\n      iszero\n      tag_153\n      jumpi\n      tag_154\n      tag_66\n      jump\t// in\n    tag_154:\n    tag_153:\n      mload(0x40)\n      swap1\n      dup1\n      dup3\n      mstore\n      dup1\n      0x20\n      mul\n      0x20\n      add\n      dup3\n      add\n      0x40\n      mstore\n      dup1\n      iszero\n      tag_155\n      jumpi\n      dup2\n      0x20\n      add\n      0x20\n      dup3\n      mul\n      dup1\n      calldatasize\n      dup4\n      calldatacopy\n      dup1\n      dup3\n      add\n      swap2\n      pop\n      pop\n      swap1\n      pop\n    tag_155:\n      pop\n        /* \"contracts/Utils.sol\":18110:18150  address[] memory path = new address[](2) */\n      swap1\n      pop\n        /* \"contracts/Utils.sol\":18171:18176  token */\n      dup3\n        /* \"contracts/Utils.sol\":18161:18165  path */\n      dup2\n        /* \"contracts/Utils.sol\":18166:18167  0 */\n      0x00\n        /* \"contracts/Utils.sol\":18161:18168  path[0] */\n      dup2\n      mload\n      dup2\n      lt\n      tag_156\n      jumpi\n      tag_157\n      tag_70\n      jump\t// in\n    tag_157:\n    tag_156:\n      0x20\n      mul\n      0x20\n      add\n      add\n        /* \"contracts/Utils.sol\":18161:18176  path[0] = token */\n      swap1\n      0xffffffffffffffffffffffffffffffffffffffff\n      and\n      swap1\n      dup2\n      0xffffffffffffffffffffffffffffffffffffffff\n      and\n      dup2\n      mstore\n      pop\n      pop\n        /* \"contracts/Utils.sol\":18197:18201  BUSD */\n      0x02\n      0x00\n      swap1\n      sload\n      swap1\n      0x0100\n      exp\n      swap1\n      div\n      0xffffffffffffffffffffffffffffffffffffffff\n      and\n        /* \"contracts/Utils.sol\":18187:18191  path */\n      dup2\n        /* \"contracts/Utils.sol\":18192:18193  1 */\n      0x01\n        /* \"contracts/Utils.sol\":18187:18194  path[1] */\n      dup2\n      mload\n      dup2\n      lt\n      tag_158\n      jumpi\n      tag_159\n      tag_70\n      jump\t// in\n    tag_159:\n    tag_158:\n      0x20\n      mul\n      0x20\n      add\n      add\n        /* \"contracts/Utils.sol\":18187:18201  path[1] = BUSD */\n      swap1\n      0xffffffffffffffffffffffffffffffffffffffff\n      and\n      swap1\n      dup2\n      0xffffffffffffffffffffffffffffffffffffffff\n      and\n      dup2\n      mstore\n      pop\n      pop\n        /* \"contracts/Utils.sol\":18219:18232  routerAddress */\n      0x04\n      0x00\n      swap1\n      sload\n      swap1\n      0x0100\n      exp\n      swap1\n      div\n      0xffffffffffffffffffffffffffffffffffffffff\n      and\n        /* \"contracts/Utils.sol\":18219:18246  routerAddress.getAmountsOut */\n      0xffffffffffffffffffffffffffffffffffffffff\n      and\n      0xd06ca61f\n        /* \"contracts/Utils.sol\":18247:18253  amount */\n      sload(0x03)\n        /* \"contracts/Utils.sol\":18254:18258  path */\n      dup4\n        /* \"contracts/Utils.sol\":18219:18259  routerAddress.getAmountsOut(amount,path) */\n      mload(0x40)\n      dup4\n      0xffffffff\n      and\n      0xe0\n      shl\n      dup2\n      mstore\n      0x04\n      add\n      tag_160\n      swap3\n      swap2\n      swap1\n      tag_76\n      jump\t// in\n    tag_160:\n      0x00\n      mload(0x40)\n      dup1\n      dup4\n      sub\n      dup2\n      dup7\n      gas\n      staticcall\n      iszero\n      dup1\n      iszero\n      tag_162\n      jumpi\n      returndatasize\n      0x00\n      dup1\n      returndatacopy\n      revert(0x00, returndatasize)\n    tag_162:\n      pop\n      pop\n      pop\n      pop\n      mload(0x40)\n      returndatasize\n      0x00\n      dup3\n      returndatacopy\n      returndatasize\n      not(0x1f)\n      0x1f\n      dup3\n      add\n      and\n      dup3\n      add\n      dup1\n      0x40\n      mstore\n      pop\n      dup2\n      add\n      swap1\n      tag_163\n      swap2\n      swap1\n      tag_80\n      jump\t// in\n    tag_163:\n        /* \"contracts/Utils.sol\":18260:18261  1 */\n      0x01\n        /* \"contracts/Utils.sol\":18219:18262  routerAddress.getAmountsOut(amount,path)[1] */\n      dup2\n      mload\n      dup2\n      lt\n      tag_164\n      jumpi\n      tag_165\n      tag_70\n      jump\t// in\n    tag_165:\n    tag_164:\n      0x20\n      mul\n      0x20\n      add\n      add\n      mload\n        /* \"contracts/Utils.sol\":18212:18262  return routerAddress.getAmountsOut(amount,path)[1] */\n      swap2\n      pop\n      pop\n        /* \"contracts/Utils.sol\":18037:18270  function WBNBPrice(address token) public view returns(uint256){... */\n      swap2\n      swap1\n      pop\n      jump\t// out\n        /* \"contracts/Utils.sol\":17334:17398  address public BUSD = 0x78867BbEeF44f2326bF8DDd1941a4439382EF2A7 */\n    tag_36:\n      0x02\n      0x00\n      swap1\n      sload\n      swap1\n      0x0100\n      exp\n      swap1\n      div\n      0xffffffffffffffffffffffffffffffffffffffff\n      and\n      dup2\n      jump\t// out\n        /* \"contracts/Utils.sol\":14500:14603  function renounceOwnership() public virtual onlyOwner {... */\n    tag_40:\n        /* \"contracts/Utils.sol\":14080:14092  _msgSender() */\n      tag_167\n        /* \"contracts/Utils.sol\":14080:14090  _msgSender */\n      tag_168\n        /* \"contracts/Utils.sol\":14080:14092  _msgSender() */\n      jump\t// in\n    tag_167:\n        /* \"contracts/Utils.sol\":14069:14092  owner() == _msgSender() */\n      0xffffffffffffffffffffffffffffffffffffffff\n      and\n        /* \"contracts/Utils.sol\":14069:14076  owner() */\n      tag_169\n        /* \"contracts/Utils.sol\":14069:14074  owner */\n      tag_42\n        /* \"contracts/Utils.sol\":14069:14076  owner() */\n      jump\t// in\n    tag_169:\n        /* \"contracts/Utils.sol\":14069:14092  owner() == _msgSender() */\n      0xffffffffffffffffffffffffffffffffffffffff\n      and\n      eq\n        /* \"contracts/Utils.sol\":14061:14129  require(owner() == _msgSender(), \"Ownable: caller is not the owner\") */\n      tag_170\n      jumpi\n      mload(0x40)\n      0x08c379a000000000000000000000000000000000000000000000000000000000\n      dup2\n      mstore\n      0x04\n      add\n      tag_171\n      swap1\n      tag_172\n      jump\t// in\n    tag_171:\n      mload(0x40)\n      dup1\n      swap2\n      sub\n      swap1\n      revert\n    tag_170:\n        /* \"contracts/Utils.sol\":14565:14595  _transferOwnership(address(0)) */\n      tag_174\n        /* \"contracts/Utils.sol\":14592:14593  0 */\n      0x00\n        /* \"contracts/Utils.sol\":14565:14583  _transferOwnership */\n      tag_175\n        /* \"contracts/Utils.sol\":14565:14595  _transferOwnership(address(0)) */\n      jump\t// in\n    tag_174:\n        /* \"contracts/Utils.sol\":14500:14603  function renounceOwnership() public virtual onlyOwner {... */\n      jump\t// out\n        /* \"contracts/Utils.sol\":13849:13936  function owner() public view virtual returns (address) {... */\n    tag_42:\n        /* \"contracts/Utils.sol\":13895:13902  address */\n      0x00\n        /* \"contracts/Utils.sol\":13922:13928  _owner */\n      dup1\n      0x00\n      swap1\n      sload\n      swap1\n      0x0100\n      exp\n      swap1\n      div\n      0xffffffffffffffffffffffffffffffffffffffff\n      and\n        /* \"contracts/Utils.sol\":13915:13928  return _owner */\n      swap1\n      pop\n        /* \"contracts/Utils.sol\":13849:13936  function owner() public view virtual returns (address) {... */\n      swap1\n      jump\t// out\n        /* \"contracts/Utils.sol\":17263:17327  address public WBNB = 0xae13d989daC2f0dEbFf460aC112a837C89BAa7cd */\n    tag_45:\n      0x01\n      0x00\n      swap1\n      sload\n      swap1\n      0x0100\n      exp\n      swap1\n      div\n      0xffffffffffffffffffffffffffffffffffffffff\n      and\n      dup2\n      jump\t// out\n        /* \"contracts/Utils.sol\":17621:17728  function setRouter(Router _routerAddress) public onlyOwner{... */\n    tag_50:\n        /* \"contracts/Utils.sol\":14080:14092  _msgSender() */\n      tag_178\n        /* \"contracts/Utils.sol\":14080:14090  _msgSender */\n      tag_168\n        /* \"contracts/Utils.sol\":14080:14092  _msgSender() */\n      jump\t// in\n    tag_178:\n        /* \"contracts/Utils.sol\":14069:14092  owner() == _msgSender() */\n      0xffffffffffffffffffffffffffffffffffffffff\n      and\n        /* \"contracts/Utils.sol\":14069:14076  owner() */\n      tag_179\n        /* \"contracts/Utils.sol\":14069:14074  owner */\n      tag_42\n        /* \"contracts/Utils.sol\":14069:14076  owner() */\n      jump\t// in\n    tag_179:\n        /* \"contracts/Utils.sol\":14069:14092  owner() == _msgSender() */\n      0xffffffffffffffffffffffffffffffffffffffff\n      and\n      eq\n        /* \"contracts/Utils.sol\":14061:14129  require(owner() == _msgSender(), \"Ownable: caller is not the owner\") */\n      tag_180\n      jumpi\n      mload(0x40)\n      0x08c379a000000000000000000000000000000000000000000000000000000000\n      dup2\n      mstore\n      0x04\n      add\n      tag_181\n      swap1\n      tag_172\n      jump\t// in\n    tag_181:\n      mload(0x40)\n      dup1\n      swap2\n      sub\n      swap1\n      revert\n    tag_180:\n        /* \"contracts/Utils.sol\":17706:17720  _routerAddress */\n      dup1\n        /* \"contracts/Utils.sol\":17690:17703  routerAddress */\n      0x04\n      0x00\n        /* \"contracts/Utils.sol\":17690:17720  routerAddress = _routerAddress */\n      0x0100\n      exp\n      dup2\n      sload\n      dup2\n      0xffffffffffffffffffffffffffffffffffffffff\n      mul\n      not\n      and\n      swap1\n      dup4\n      0xffffffffffffffffffffffffffffffffffffffff\n      and\n      mul\n      or\n      swap1\n      sstore\n      pop\n        /* \"contracts/Utils.sol\":17621:17728  function setRouter(Router _routerAddress) public onlyOwner{... */\n      pop\n      jump\t// out\n        /* \"contracts/Utils.sol\":19166:19737  function calcPoolTVLInUSD(uint256 pid, LP lpAddress, uint256 isLp, MetaMasterChef MasterChef) public view returns(uint256){... */\n    tag_54:\n        /* \"contracts/Utils.sol\":19280:19287  uint256 */\n      0x00\n        /* \"contracts/Utils.sol\":19299:19314  uint256 Balance */\n      dup1\n        /* \"contracts/Utils.sol\":19317:19327  MasterChef */\n      dup3\n        /* \"contracts/Utils.sol\":19317:19339  MasterChef.poolBalance */\n      0xffffffffffffffffffffffffffffffffffffffff\n      and\n      0x6a6d964e\n        /* \"contracts/Utils.sol\":19340:19343  pid */\n      dup8\n        /* \"contracts/Utils.sol\":19317:19344  MasterChef.poolBalance(pid) */\n      mload(0x40)\n      dup3\n      0xffffffff\n      and\n      0xe0\n      shl\n      dup2\n      mstore\n      0x04\n      add\n      tag_184\n      swap2\n      swap1\n      tag_21\n      jump\t// in\n    tag_184:\n      0x20\n      mload(0x40)\n      dup1\n      dup4\n      sub\n      dup2\n      dup7\n      gas\n      staticcall\n      iszero\n      dup1\n      iszero\n      tag_186\n      jumpi\n      returndatasize\n      0x00\n      dup1\n      returndatacopy\n      revert(0x00, returndatasize)\n    tag_186:\n      pop\n      pop\n      pop\n      pop\n      mload(0x40)\n      returndatasize\n      not(0x1f)\n      0x1f\n      dup3\n      add\n      and\n      dup3\n      add\n      dup1\n      0x40\n      mstore\n      pop\n      dup2\n      add\n      swap1\n      tag_187\n      swap2\n      swap1\n      tag_101\n      jump\t// in\n    tag_187:\n        /* \"contracts/Utils.sol\":19299:19344  uint256 Balance = MasterChef.poolBalance(pid) */\n      swap1\n      pop\n        /* \"contracts/Utils.sol\":19355:19368  uint256 price */\n      0x00\n        /* \"contracts/Utils.sol\":19390:19391  0 */\n      dup1\n        /* \"contracts/Utils.sol\":19382:19386  isLp */\n      dup6\n        /* \"contracts/Utils.sol\":19382:19391  isLp == 0 */\n      sub\n        /* \"contracts/Utils.sol\":19379:19681  if(isLp == 0){... */\n      tag_188\n      jumpi\n        /* \"contracts/Utils.sol\":19415:19437  CalcLpPrice(lpAddress) */\n      tag_189\n        /* \"contracts/Utils.sol\":19427:19436  lpAddress */\n      dup7\n        /* \"contracts/Utils.sol\":19415:19426  CalcLpPrice */\n      tag_25\n        /* \"contracts/Utils.sol\":19415:19437  CalcLpPrice(lpAddress) */\n      jump\t// in\n    tag_189:\n        /* \"contracts/Utils.sol\":19407:19437  price = CalcLpPrice(lpAddress) */\n      swap1\n      pop\n        /* \"contracts/Utils.sol\":19379:19681  if(isLp == 0){... */\n      jump(tag_190)\n    tag_188:\n        /* \"contracts/Utils.sol\":19465:19466  1 */\n      0x01\n        /* \"contracts/Utils.sol\":19457:19461  isLp */\n      dup6\n        /* \"contracts/Utils.sol\":19457:19466  isLp == 1 */\n      sub\n        /* \"contracts/Utils.sol\":19454:19681  if(isLp == 1){... */\n      tag_191\n      jumpi\n        /* \"contracts/Utils.sol\":19510:19519  lpAddress */\n      dup6\n        /* \"contracts/Utils.sol\":19485:19520  address(WBNB) == address(lpAddress) */\n      0xffffffffffffffffffffffffffffffffffffffff\n      and\n        /* \"contracts/Utils.sol\":19493:19497  WBNB */\n      0x01\n      0x00\n      swap1\n      sload\n      swap1\n      0x0100\n      exp\n      swap1\n      div\n      0xffffffffffffffffffffffffffffffffffffffff\n      and\n        /* \"contracts/Utils.sol\":19485:19520  address(WBNB) == address(lpAddress) */\n      0xffffffffffffffffffffffffffffffffffffffff\n      and\n      sub\n        /* \"contracts/Utils.sol\":19482:19670  if(address(WBNB) == address(lpAddress)){... */\n      tag_192\n      jumpi\n        /* \"contracts/Utils.sol\":19548:19577  WBNBPrice(address(lpAddress)) */\n      tag_193\n        /* \"contracts/Utils.sol\":19566:19575  lpAddress */\n      dup7\n        /* \"contracts/Utils.sol\":19548:19557  WBNBPrice */\n      tag_33\n        /* \"contracts/Utils.sol\":19548:19577  WBNBPrice(address(lpAddress)) */\n      jump\t// in\n    tag_193:\n        /* \"contracts/Utils.sol\":19540:19577  price = WBNBPrice(address(lpAddress)) */\n      swap1\n      pop\n        /* \"contracts/Utils.sol\":19482:19670  if(address(WBNB) == address(lpAddress)){... */\n      jump(tag_194)\n    tag_192:\n        /* \"contracts/Utils.sol\":19624:19654  Tokenprice(address(lpAddress)) */\n      tag_195\n        /* \"contracts/Utils.sol\":19643:19652  lpAddress */\n      dup7\n        /* \"contracts/Utils.sol\":19624:19634  Tokenprice */\n      tag_19\n        /* \"contracts/Utils.sol\":19624:19654  Tokenprice(address(lpAddress)) */\n      jump\t// in\n    tag_195:\n        /* \"contracts/Utils.sol\":19616:19654  price = Tokenprice(address(lpAddress)) */\n      swap1\n      pop\n        /* \"contracts/Utils.sol\":19482:19670  if(address(WBNB) == address(lpAddress)){... */\n    tag_194:\n        /* \"contracts/Utils.sol\":19454:19681  if(isLp == 1){... */\n    tag_191:\n        /* \"contracts/Utils.sol\":19379:19681  if(isLp == 0){... */\n    tag_190:\n        /* \"contracts/Utils.sol\":19700:19729  (Balance * price).div(amount) */\n      tag_196\n        /* \"contracts/Utils.sol\":19722:19728  amount */\n      sload(0x03)\n        /* \"contracts/Utils.sol\":19711:19716  price */\n      dup3\n        /* \"contracts/Utils.sol\":19701:19708  Balance */\n      dup5\n        /* \"contracts/Utils.sol\":19701:19716  Balance * price */\n      tag_197\n      swap2\n      swap1\n      tag_198\n      jump\t// in\n    tag_197:\n        /* \"contracts/Utils.sol\":19700:19721  (Balance * price).div */\n      tag_151\n      swap1\n        /* \"contracts/Utils.sol\":19700:19729  (Balance * price).div(amount) */\n      swap2\n      swap1\n      0xffffffff\n      and\n      jump\t// in\n    tag_196:\n        /* \"contracts/Utils.sol\":19693:19729  return (Balance * price).div(amount) */\n      swap3\n      pop\n      pop\n      pop\n        /* \"contracts/Utils.sol\":19166:19737  function calcPoolTVLInUSD(uint256 pid, LP lpAddress, uint256 isLp, MetaMasterChef MasterChef) public view returns(uint256){... */\n      swap5\n      swap4\n      pop\n      pop\n      pop\n      pop\n      jump\t// out\n        /* \"contracts/Utils.sol\":19745:20447  function CalcApy(uint256 pid, LP lpAddress,uint256 isLp, MetaMasterChef MasterChef) external view returns(uint256){... */\n    tag_58:\n        /* \"contracts/Utils.sol\":19851:19858  uint256 */\n      0x00\n        /* \"contracts/Utils.sol\":19870:19890  PoolInfo memory pool */\n      dup1\n        /* \"contracts/Utils.sol\":19893:19903  MasterChef */\n      dup3\n        /* \"contracts/Utils.sol\":19893:19912  MasterChef.poolInfo */\n      0xffffffffffffffffffffffffffffffffffffffff\n      and\n      0x1526fe27\n        /* \"contracts/Utils.sol\":19913:19916  pid */\n      dup8\n        /* \"contracts/Utils.sol\":19893:19917  MasterChef.poolInfo(pid) */\n      mload(0x40)\n      dup3\n      0xffffffff\n      and\n      0xe0\n      shl\n      dup2\n      mstore\n      0x04\n      add\n      tag_200\n      swap2\n      swap1\n      tag_21\n      jump\t// in\n    tag_200:\n      0xc0\n      mload(0x40)\n      dup1\n      dup4\n      sub\n      dup2\n      dup7\n      gas\n      staticcall\n      iszero\n      dup1\n      iszero\n      tag_202\n      jumpi\n      returndatasize\n      0x00\n      dup1\n      returndatacopy\n      revert(0x00, returndatasize)\n    tag_202:\n      pop\n      pop\n      pop\n      pop\n      mload(0x40)\n      returndatasize\n      not(0x1f)\n      0x1f\n      dup3\n      add\n      and\n      dup3\n      add\n      dup1\n      0x40\n      mstore\n      pop\n      dup2\n      add\n      swap1\n      tag_203\n      swap2\n      swap1\n      tag_204\n      jump\t// in\n    tag_203:\n        /* \"contracts/Utils.sol\":19870:19917  PoolInfo memory pool = MasterChef.poolInfo(pid) */\n      swap1\n      pop\n        /* \"contracts/Utils.sol\":19928:19946  uint256 poolWeight */\n      0x00\n        /* \"contracts/Utils.sol\":19949:20014  ((pool.allocPoint).mul(amount)).div(MasterChef.totalAllocPoint()) */\n      tag_205\n        /* \"contracts/Utils.sol\":19985:19995  MasterChef */\n      dup5\n        /* \"contracts/Utils.sol\":19985:20011  MasterChef.totalAllocPoint */\n      0xffffffffffffffffffffffffffffffffffffffff\n      and\n      0x17caf6f1\n        /* \"contracts/Utils.sol\":19985:20013  MasterChef.totalAllocPoint() */\n      mload(0x40)\n      dup2\n      0xffffffff\n      and\n      0xe0\n      shl\n      dup2\n      mstore\n      0x04\n      add\n      0x20\n      mload(0x40)\n      dup1\n      dup4\n      sub\n      dup2\n      dup7\n      gas\n      staticcall\n      iszero\n      dup1\n      iszero\n      tag_207\n      jumpi\n      returndatasize\n      0x00\n      dup1\n      returndatacopy\n      revert(0x00, returndatasize)\n    tag_207:\n      pop\n      pop\n      pop\n      pop\n      mload(0x40)\n      returndatasize\n      not(0x1f)\n      0x1f\n      dup3\n      add\n      and\n      dup3\n      add\n      dup1\n      0x40\n      mstore\n      pop\n      dup2\n      add\n      swap1\n      tag_208\n      swap2\n      swap1\n      tag_101\n      jump\t// in\n    tag_208:\n        /* \"contracts/Utils.sol\":19950:19979  (pool.allocPoint).mul(amount) */\n      tag_209\n        /* \"contracts/Utils.sol\":19972:19978  amount */\n      sload(0x03)\n        /* \"contracts/Utils.sol\":19951:19955  pool */\n      dup6\n        /* \"contracts/Utils.sol\":19951:19966  pool.allocPoint */\n      0x20\n      add\n      mload\n        /* \"contracts/Utils.sol\":19950:19971  (pool.allocPoint).mul */\n      tag_102\n      swap1\n        /* \"contracts/Utils.sol\":19950:19979  (pool.allocPoint).mul(amount) */\n      swap2\n      swap1\n      0xffffffff\n      and\n      jump\t// in\n    tag_209:\n        /* \"contracts/Utils.sol\":19949:19984  ((pool.allocPoint).mul(amount)).div */\n      tag_151\n      swap1\n        /* \"contracts/Utils.sol\":19949:20014  ((pool.allocPoint).mul(amount)).div(MasterChef.totalAllocPoint()) */\n      swap2\n      swap1\n      0xffffffff\n      and\n      jump\t// in\n    tag_205:\n        /* \"contracts/Utils.sol\":19928:20014  uint256 poolWeight = ((pool.allocPoint).mul(amount)).div(MasterChef.totalAllocPoint()) */\n      swap1\n      pop\n        /* \"contracts/Utils.sol\":20025:20049  uint256 rewardTokenPrice */\n      0x00\n        /* \"contracts/Utils.sol\":20052:20080  Tokenprice(MasterChef.DRG()) */\n      tag_210\n        /* \"contracts/Utils.sol\":20063:20073  MasterChef */\n      dup6\n        /* \"contracts/Utils.sol\":20063:20077  MasterChef.DRG */\n      0xffffffffffffffffffffffffffffffffffffffff\n      and\n      0x141aa0ba\n        /* \"contracts/Utils.sol\":20063:20079  MasterChef.DRG() */\n      mload(0x40)\n      dup2\n      0xffffffff\n      and\n      0xe0\n      shl\n      dup2\n      mstore\n      0x04\n      add\n      0x20\n      mload(0x40)\n      dup1\n      dup4\n      sub\n      dup2\n      dup7\n      gas\n      staticcall\n      iszero\n      dup1\n      iszero\n      tag_212\n      jumpi\n      returndatasize\n      0x00\n      dup1\n      returndatacopy\n      revert(0x00, returndatasize)\n    tag_212:\n      pop\n      pop\n      pop\n      pop\n      mload(0x40)\n      returndatasize\n      not(0x1f)\n      0x1f\n      dup3\n      add\n      and\n      dup3\n      add\n      dup1\n      0x40\n      mstore\n      pop\n      dup2\n      add\n      swap1\n      tag_213\n      swap2\n      swap1\n      tag_214\n      jump\t// in\n    tag_213:\n        /* \"contracts/Utils.sol\":20052:20062  Tokenprice */\n      tag_19\n        /* \"contracts/Utils.sol\":20052:20080  Tokenprice(MasterChef.DRG()) */\n      jump\t// in\n    tag_210:\n        /* \"contracts/Utils.sol\":20025:20080  uint256 rewardTokenPrice = Tokenprice(MasterChef.DRG()) */\n      swap1\n      pop\n        /* \"contracts/Utils.sol\":20091:20111  uint256 DRG_PER_YEAR */\n      0x00\n        /* \"contracts/Utils.sol\":20114:20159  BLOCKS_PER_YEAR.mul(MasterChef.DRGPerBlock()) */\n      tag_215\n        /* \"contracts/Utils.sol\":20134:20144  MasterChef */\n      dup7\n        /* \"contracts/Utils.sol\":20134:20156  MasterChef.DRGPerBlock */\n      0xffffffffffffffffffffffffffffffffffffffff\n      and\n      0xa1eef821\n        /* \"contracts/Utils.sol\":20134:20158  MasterChef.DRGPerBlock() */\n      mload(0x40)\n      dup2\n      0xffffffff\n      and\n      0xe0\n      shl\n      dup2\n      mstore\n      0x04\n      add\n      0x20\n      mload(0x40)\n      dup1\n      dup4\n      sub\n      dup2\n      dup7\n      gas\n      staticcall\n      iszero\n      dup1\n      iszero\n      tag_217\n      jumpi\n      returndatasize\n      0x00\n      dup1\n      returndatacopy\n      revert(0x00, returndatasize)\n    tag_217:\n      pop\n      pop\n      pop\n      pop\n      mload(0x40)\n      returndatasize\n      not(0x1f)\n      0x1f\n      dup3\n      add\n      and\n      dup3\n      add\n      dup1\n      0x40\n      mstore\n      pop\n      dup2\n      add\n      swap1\n      tag_218\n      swap2\n      swap1\n      tag_101\n      jump\t// in\n    tag_218:\n        /* \"contracts/Utils.sol\":20114:20129  BLOCKS_PER_YEAR */\n      sload(0x05)\n        /* \"contracts/Utils.sol\":20114:20133  BLOCKS_PER_YEAR.mul */\n      tag_102\n      swap1\n        /* \"contracts/Utils.sol\":20114:20159  BLOCKS_PER_YEAR.mul(MasterChef.DRGPerBlock()) */\n      swap2\n      swap1\n      0xffffffff\n      and\n      jump\t// in\n    tag_215:\n        /* \"contracts/Utils.sol\":20091:20159  uint256 DRG_PER_YEAR = BLOCKS_PER_YEAR.mul(MasterChef.DRGPerBlock()) */\n      swap1\n      pop\n        /* \"contracts/Utils.sol\":20170:20203  uint256 yearlyDRGRewardAllocation */\n      0x00\n        /* \"contracts/Utils.sol\":20206:20248  (DRG_PER_YEAR.mul(poolWeight)).div(amount) */\n      tag_219\n        /* \"contracts/Utils.sol\":20241:20247  amount */\n      sload(0x03)\n        /* \"contracts/Utils.sol\":20207:20235  DRG_PER_YEAR.mul(poolWeight) */\n      tag_220\n        /* \"contracts/Utils.sol\":20224:20234  poolWeight */\n      dup7\n        /* \"contracts/Utils.sol\":20207:20219  DRG_PER_YEAR */\n      dup6\n        /* \"contracts/Utils.sol\":20207:20223  DRG_PER_YEAR.mul */\n      tag_102\n      swap1\n        /* \"contracts/Utils.sol\":20207:20235  DRG_PER_YEAR.mul(poolWeight) */\n      swap2\n      swap1\n      0xffffffff\n      and\n      jump\t// in\n    tag_220:\n        /* \"contracts/Utils.sol\":20206:20240  (DRG_PER_YEAR.mul(poolWeight)).div */\n      tag_151\n      swap1\n        /* \"contracts/Utils.sol\":20206:20248  (DRG_PER_YEAR.mul(poolWeight)).div(amount) */\n      swap2\n      swap1\n      0xffffffff\n      and\n      jump\t// in\n    tag_219:\n        /* \"contracts/Utils.sol\":20170:20248  uint256 yearlyDRGRewardAllocation = (DRG_PER_YEAR.mul(poolWeight)).div(amount) */\n      swap1\n      pop\n        /* \"contracts/Utils.sol\":20259:20283  uint256 poolLiquidityUsd */\n      0x00\n        /* \"contracts/Utils.sol\":20286:20336  calcPoolTVLInUSD(pid, lpAddress, isLp, MasterChef) */\n      tag_221\n        /* \"contracts/Utils.sol\":20303:20306  pid */\n      dup12\n        /* \"contracts/Utils.sol\":20308:20317  lpAddress */\n      dup12\n        /* \"contracts/Utils.sol\":20319:20323  isLp */\n      dup12\n        /* \"contracts/Utils.sol\":20325:20335  MasterChef */\n      dup12\n        /* \"contracts/Utils.sol\":20286:20302  calcPoolTVLInUSD */\n      tag_54\n        /* \"contracts/Utils.sol\":20286:20336  calcPoolTVLInUSD(pid, lpAddress, isLp, MasterChef) */\n      jump\t// in\n    tag_221:\n        /* \"contracts/Utils.sol\":20259:20336  uint256 poolLiquidityUsd = calcPoolTVLInUSD(pid, lpAddress, isLp, MasterChef) */\n      swap1\n      pop\n        /* \"contracts/Utils.sol\":20355:20439  (((yearlyDRGRewardAllocation.mul(rewardTokenPrice))).div(poolLiquidityUsd)).mul(100) */\n      tag_222\n        /* \"contracts/Utils.sol\":20435:20438  100 */\n      0x64\n        /* \"contracts/Utils.sol\":20356:20429  ((yearlyDRGRewardAllocation.mul(rewardTokenPrice))).div(poolLiquidityUsd) */\n      tag_223\n        /* \"contracts/Utils.sol\":20412:20428  poolLiquidityUsd */\n      dup4\n        /* \"contracts/Utils.sol\":20358:20405  yearlyDRGRewardAllocation.mul(rewardTokenPrice) */\n      tag_224\n        /* \"contracts/Utils.sol\":20388:20404  rewardTokenPrice */\n      dup9\n        /* \"contracts/Utils.sol\":20358:20383  yearlyDRGRewardAllocation */\n      dup8\n        /* \"contracts/Utils.sol\":20358:20387  yearlyDRGRewardAllocation.mul */\n      tag_102\n      swap1\n        /* \"contracts/Utils.sol\":20358:20405  yearlyDRGRewardAllocation.mul(rewardTokenPrice) */\n      swap2\n      swap1\n      0xffffffff\n      and\n      jump\t// in\n    tag_224:\n        /* \"contracts/Utils.sol\":20356:20411  ((yearlyDRGRewardAllocation.mul(rewardTokenPrice))).div */\n      tag_151\n      swap1\n        /* \"contracts/Utils.sol\":20356:20429  ((yearlyDRGRewardAllocation.mul(rewardTokenPrice))).div(poolLiquidityUsd) */\n      swap2\n      swap1\n      0xffffffff\n      and\n      jump\t// in\n    tag_223:\n        /* \"contracts/Utils.sol\":20355:20434  (((yearlyDRGRewardAllocation.mul(rewardTokenPrice))).div(poolLiquidityUsd)).mul */\n      tag_102\n      swap1\n        /* \"contracts/Utils.sol\":20355:20439  (((yearlyDRGRewardAllocation.mul(rewardTokenPrice))).div(poolLiquidityUsd)).mul(100) */\n      swap2\n      swap1\n      0xffffffff\n      and\n      jump\t// in\n    tag_222:\n        /* \"contracts/Utils.sol\":20349:20439  return(((yearlyDRGRewardAllocation.mul(rewardTokenPrice))).div(poolLiquidityUsd)).mul(100) */\n      swap7\n      pop\n      pop\n      pop\n      pop\n      pop\n      pop\n      pop\n        /* \"contracts/Utils.sol\":19745:20447  function CalcApy(uint256 pid, LP lpAddress,uint256 isLp, MetaMasterChef MasterChef) external view returns(uint256){... */\n      swap5\n      swap4\n      pop\n      pop\n      pop\n      pop\n      jump\t// out\n        /* \"contracts/Utils.sol\":14758:14959  function transferOwnership(address newOwner) public virtual onlyOwner {... */\n    tag_62:\n        /* \"contracts/Utils.sol\":14080:14092  _msgSender() */\n      tag_226\n        /* \"contracts/Utils.sol\":14080:14090  _msgSender */\n      tag_168\n        /* \"contracts/Utils.sol\":14080:14092  _msgSender() */\n      jump\t// in\n    tag_226:\n        /* \"contracts/Utils.sol\":14069:14092  owner() == _msgSender() */\n      0xffffffffffffffffffffffffffffffffffffffff\n      and\n        /* \"contracts/Utils.sol\":14069:14076  owner() */\n      tag_227\n        /* \"contracts/Utils.sol\":14069:14074  owner */\n      tag_42\n        /* \"contracts/Utils.sol\":14069:14076  owner() */\n      jump\t// in\n    tag_227:\n        /* \"contracts/Utils.sol\":14069:14092  owner() == _msgSender() */\n      0xffffffffffffffffffffffffffffffffffffffff\n      and\n      eq\n        /* \"contracts/Utils.sol\":14061:14129  require(owner() == _msgSender(), \"Ownable: caller is not the owner\") */\n      tag_228\n      jumpi\n      mload(0x40)\n      0x08c379a000000000000000000000000000000000000000000000000000000000\n      dup2\n      mstore\n      0x04\n      add\n      tag_229\n      swap1\n      tag_172\n      jump\t// in\n    tag_229:\n      mload(0x40)\n      dup1\n      swap2\n      sub\n      swap1\n      revert\n    tag_228:\n        /* \"contracts/Utils.sol\":14867:14868  0 */\n      0x00\n        /* \"contracts/Utils.sol\":14847:14869  newOwner != address(0) */\n      0xffffffffffffffffffffffffffffffffffffffff\n      and\n        /* \"contracts/Utils.sol\":14847:14855  newOwner */\n      dup2\n        /* \"contracts/Utils.sol\":14847:14869  newOwner != address(0) */\n      0xffffffffffffffffffffffffffffffffffffffff\n      and\n      sub\n        /* \"contracts/Utils.sol\":14839:14912  require(newOwner != address(0), \"Ownable: new owner is the zero address\") */\n      tag_231\n      jumpi\n      mload(0x40)\n      0x08c379a000000000000000000000000000000000000000000000000000000000\n      dup2\n      mstore\n      0x04\n      add\n      tag_232\n      swap1\n      tag_233\n      jump\t// in\n    tag_232:\n      mload(0x40)\n      dup1\n      swap2\n      sub\n      swap1\n      revert\n    tag_231:\n        /* \"contracts/Utils.sol\":14923:14951  _transferOwnership(newOwner) */\n      tag_234\n        /* \"contracts/Utils.sol\":14942:14950  newOwner */\n      dup2\n        /* \"contracts/Utils.sol\":14923:14941  _transferOwnership */\n      tag_175\n        /* \"contracts/Utils.sol\":14923:14951  _transferOwnership(newOwner) */\n      jump\t// in\n    tag_234:\n        /* \"contracts/Utils.sol\":14758:14959  function transferOwnership(address newOwner) public virtual onlyOwner {... */\n      pop\n      jump\t// out\n        /* \"contracts/Utils.sol\":9965:10436  function mul(uint256 a, uint256 b) internal pure returns (uint256) {... */\n    tag_102:\n        /* \"contracts/Utils.sol\":10023:10030  uint256 */\n      0x00\n        /* \"contracts/Utils.sol\":10273:10274  0 */\n      dup1\n        /* \"contracts/Utils.sol\":10268:10269  a */\n      dup4\n        /* \"contracts/Utils.sol\":10268:10274  a == 0 */\n      sub\n        /* \"contracts/Utils.sol\":10264:10311  if (a == 0) {... */\n      tag_236\n      jumpi\n        /* \"contracts/Utils.sol\":10298:10299  0 */\n      0x00\n        /* \"contracts/Utils.sol\":10291:10299  return 0 */\n      swap1\n      pop\n      jump(tag_235)\n        /* \"contracts/Utils.sol\":10264:10311  if (a == 0) {... */\n    tag_236:\n        /* \"contracts/Utils.sol\":10323:10332  uint256 c */\n      0x00\n        /* \"contracts/Utils.sol\":10339:10340  b */\n      dup3\n        /* \"contracts/Utils.sol\":10335:10336  a */\n      dup5\n        /* \"contracts/Utils.sol\":10335:10340  a * b */\n      tag_237\n      swap2\n      swap1\n      tag_198\n      jump\t// in\n    tag_237:\n        /* \"contracts/Utils.sol\":10323:10340  uint256 c = a * b */\n      swap1\n      pop\n        /* \"contracts/Utils.sol\":10368:10369  b */\n      dup3\n        /* \"contracts/Utils.sol\":10363:10364  a */\n      dup5\n        /* \"contracts/Utils.sol\":10359:10360  c */\n      dup3\n        /* \"contracts/Utils.sol\":10359:10364  c / a */\n      tag_238\n      swap2\n      swap1\n      tag_239\n      jump\t// in\n    tag_238:\n        /* \"contracts/Utils.sol\":10359:10369  c / a == b */\n      eq\n        /* \"contracts/Utils.sol\":10351:10407  require(c / a == b, \"SafeMath: multiplication overflow\") */\n      tag_240\n      jumpi\n      mload(0x40)\n      0x08c379a000000000000000000000000000000000000000000000000000000000\n      dup2\n      mstore\n      0x04\n      add\n      tag_241\n      swap1\n      tag_242\n      jump\t// in\n    tag_241:\n      mload(0x40)\n      dup1\n      swap2\n      sub\n      swap1\n      revert\n    tag_240:\n        /* \"contracts/Utils.sol\":10427:10428  c */\n      dup1\n        /* \"contracts/Utils.sol\":10420:10428  return c */\n      swap2\n      pop\n      pop\n        /* \"contracts/Utils.sol\":9965:10436  function mul(uint256 a, uint256 b) internal pure returns (uint256) {... */\n    tag_235:\n      swap3\n      swap2\n      pop\n      pop\n      jump\t// out\n        /* \"contracts/Utils.sol\":8593:8774  function add(uint256 a, uint256 b) internal pure returns (uint256) {... */\n    tag_150:\n        /* \"contracts/Utils.sol\":8651:8658  uint256 */\n      0x00\n        /* \"contracts/Utils.sol\":8671:8680  uint256 c */\n      dup1\n        /* \"contracts/Utils.sol\":8687:8688  b */\n      dup3\n        /* \"contracts/Utils.sol\":8683:8684  a */\n      dup5\n        /* \"contracts/Utils.sol\":8683:8688  a + b */\n      tag_244\n      swap2\n      swap1\n      tag_245\n      jump\t// in\n    tag_244:\n        /* \"contracts/Utils.sol\":8671:8688  uint256 c = a + b */\n      swap1\n      pop\n        /* \"contracts/Utils.sol\":8712:8713  a */\n      dup4\n        /* \"contracts/Utils.sol\":8707:8708  c */\n      dup2\n        /* \"contracts/Utils.sol\":8707:8713  c >= a */\n      lt\n      iszero\n        /* \"contracts/Utils.sol\":8699:8745  require(c >= a, \"SafeMath: addition overflow\") */\n      tag_246\n      jumpi\n      mload(0x40)\n      0x08c379a000000000000000000000000000000000000000000000000000000000\n      dup2\n      mstore\n      0x04\n      add\n      tag_247\n      swap1\n      tag_248\n      jump\t// in\n    tag_247:\n      mload(0x40)\n      dup1\n      swap2\n      sub\n      swap1\n      revert\n    tag_246:\n        /* \"contracts/Utils.sol\":8765:8766  c */\n      dup1\n        /* \"contracts/Utils.sol\":8758:8766  return c */\n      swap2\n      pop\n      pop\n        /* \"contracts/Utils.sol\":8593:8774  function add(uint256 a, uint256 b) internal pure returns (uint256) {... */\n      swap3\n      swap2\n      pop\n      pop\n      jump\t// out\n        /* \"contracts/Utils.sol\":10904:11036  function div(uint256 a, uint256 b) internal pure returns (uint256) {... */\n    tag_151:\n        /* \"contracts/Utils.sol\":10962:10969  uint256 */\n      0x00\n        /* \"contracts/Utils.sol\":10989:11028  div(a, b, \"SafeMath: division by zero\") */\n      tag_250\n        /* \"contracts/Utils.sol\":10993:10994  a */\n      dup4\n        /* \"contracts/Utils.sol\":10996:10997  b */\n      dup4\n        /* \"contracts/Utils.sol\":10989:11028  div(a, b, \"SafeMath: division by zero\") */\n      mload(0x40)\n      dup1\n      0x40\n      add\n      0x40\n      mstore\n      dup1\n      0x1a\n      dup2\n      mstore\n      0x20\n      add\n      0x536166654d6174683a206469766973696f6e206279207a65726f000000000000\n      dup2\n      mstore\n      pop\n        /* \"contracts/Utils.sol\":10989:10992  div */\n      tag_251\n        /* \"contracts/Utils.sol\":10989:11028  div(a, b, \"SafeMath: division by zero\") */\n      jump\t// in\n    tag_250:\n        /* \"contracts/Utils.sol\":10982:11028  return div(a, b, \"SafeMath: division by zero\") */\n      swap1\n      pop\n        /* \"contracts/Utils.sol\":10904:11036  function div(uint256 a, uint256 b) internal pure returns (uint256) {... */\n      swap3\n      swap2\n      pop\n      pop\n      jump\t// out\n        /* \"contracts/Utils.sol\":13223:13321  function _msgSender() internal view virtual returns (address) {... */\n    tag_168:\n        /* \"contracts/Utils.sol\":13276:13283  address */\n      0x00\n        /* \"contracts/Utils.sol\":13303:13313  msg.sender */\n      caller\n        /* \"contracts/Utils.sol\":13296:13313  return msg.sender */\n      swap1\n      pop\n        /* \"contracts/Utils.sol\":13223:13321  function _msgSender() internal view virtual returns (address) {... */\n      swap1\n      jump\t// out\n        /* \"contracts/Utils.sol\":15119:15310  function _transferOwnership(address newOwner) internal virtual {... */\n    tag_175:\n        /* \"contracts/Utils.sol\":15193:15209  address oldOwner */\n      0x00\n        /* \"contracts/Utils.sol\":15212:15218  _owner */\n      dup1\n      0x00\n      swap1\n      sload\n      swap1\n      0x0100\n      exp\n      swap1\n      div\n      0xffffffffffffffffffffffffffffffffffffffff\n      and\n        /* \"contracts/Utils.sol\":15193:15218  address oldOwner = _owner */\n      swap1\n      pop\n        /* \"contracts/Utils.sol\":15238:15246  newOwner */\n      dup2\n        /* \"contracts/Utils.sol\":15229:15235  _owner */\n      0x00\n      dup1\n        /* \"contracts/Utils.sol\":15229:15246  _owner = newOwner */\n      0x0100\n      exp\n      dup2\n      sload\n      dup2\n      0xffffffffffffffffffffffffffffffffffffffff\n      mul\n      not\n      and\n      swap1\n      dup4\n      0xffffffffffffffffffffffffffffffffffffffff\n      and\n      mul\n      or\n      swap1\n      sstore\n      pop\n        /* \"contracts/Utils.sol\":15293:15301  newOwner */\n      dup2\n        /* \"contracts/Utils.sol\":15262:15302  OwnershipTransferred(oldOwner, newOwner) */\n      0xffffffffffffffffffffffffffffffffffffffff\n      and\n        /* \"contracts/Utils.sol\":15283:15291  oldOwner */\n      dup2\n        /* \"contracts/Utils.sol\":15262:15302  OwnershipTransferred(oldOwner, newOwner) */\n      0xffffffffffffffffffffffffffffffffffffffff\n      and\n      0x8be0079c531659141344cd1fd0a4f28419497f9722a3daafe3b4186f6b6457e0\n      mload(0x40)\n      mload(0x40)\n      dup1\n      swap2\n      sub\n      swap1\n      log3\n        /* \"contracts/Utils.sol\":15182:15310  {... */\n      pop\n        /* \"contracts/Utils.sol\":15119:15310  function _transferOwnership(address newOwner) internal virtual {... */\n      pop\n      jump\t// out\n        /* \"contracts/Utils.sol\":11566:11911  function div(uint256 a, uint256 b, string memory errorMessage) internal pure returns (uint256) {... */\n    tag_251:\n        /* \"contracts/Utils.sol\":11652:11659  uint256 */\n      0x00\n        /* \"contracts/Utils.sol\":11751:11752  0 */\n      dup1\n        /* \"contracts/Utils.sol\":11747:11748  b */\n      dup4\n        /* \"contracts/Utils.sol\":11747:11752  b > 0 */\n      gt\n        /* \"contracts/Utils.sol\":11754:11766  errorMessage */\n      dup3\n        /* \"contracts/Utils.sol\":11739:11767  require(b > 0, errorMessage) */\n      swap1\n      tag_255\n      jumpi\n      mload(0x40)\n      0x08c379a000000000000000000000000000000000000000000000000000000000\n      dup2\n      mstore\n      0x04\n      add\n      tag_256\n      swap2\n      swap1\n      tag_257\n      jump\t// in\n    tag_256:\n      mload(0x40)\n      dup1\n      swap2\n      sub\n      swap1\n      revert\n    tag_255:\n      pop\n        /* \"contracts/Utils.sol\":11778:11787  uint256 c */\n      0x00\n        /* \"contracts/Utils.sol\":11794:11795  b */\n      dup4\n        /* \"contracts/Utils.sol\":11790:11791  a */\n      dup6\n        /* \"contracts/Utils.sol\":11790:11795  a / b */\n      tag_258\n      swap2\n      swap1\n      tag_239\n      jump\t// in\n    tag_258:\n        /* \"contracts/Utils.sol\":11778:11795  uint256 c = a / b */\n      swap1\n      pop\n        /* \"contracts/Utils.sol\":11902:11903  c */\n      dup1\n        /* \"contracts/Utils.sol\":11895:11903  return c */\n      swap2\n      pop\n      pop\n        /* \"contracts/Utils.sol\":11566:11911  function div(uint256 a, uint256 b, string memory errorMessage) internal pure returns (uint256) {... */\n      swap4\n      swap3\n      pop\n      pop\n      pop\n      jump\t// out\n        /* \"#utility.yul\":7:82   */\n    tag_259:\n        /* \"#utility.yul\":40:46   */\n      0x00\n        /* \"#utility.yul\":73:75   */\n      0x40\n        /* \"#utility.yul\":67:76   */\n      mload\n        /* \"#utility.yul\":57:76   */\n      swap1\n      pop\n        /* \"#utility.yul\":7:82   */\n      swap1\n      jump\t// out\n        /* \"#utility.yul\":88:205   */\n    tag_260:\n        /* \"#utility.yul\":197:198   */\n      0x00\n        /* \"#utility.yul\":194:195   */\n      dup1\n        /* \"#utility.yul\":187:199   */\n      revert\n        /* \"#utility.yul\":211:328   */\n    tag_261:\n        /* \"#utility.yul\":320:321   */\n      0x00\n        /* \"#utility.yul\":317:318   */\n      dup1\n        /* \"#utility.yul\":310:322   */\n      revert\n        /* \"#utility.yul\":334:460   */\n    tag_262:\n        /* \"#utility.yul\":371:378   */\n      0x00\n        /* \"#utility.yul\":411:453   */\n      0xffffffffffffffffffffffffffffffffffffffff\n        /* \"#utility.yul\":404:409   */\n      dup3\n        /* \"#utility.yul\":400:454   */\n      and\n        /* \"#utility.yul\":389:454   */\n      swap1\n      pop\n        /* \"#utility.yul\":334:460   */\n      swap2\n      swap1\n      pop\n      jump\t// out\n        /* \"#utility.yul\":466:562   */\n    tag_263:\n        /* \"#utility.yul\":503:510   */\n      0x00\n        /* \"#utility.yul\":532:556   */\n      tag_331\n        /* \"#utility.yul\":550:555   */\n      dup3\n        /* \"#utility.yul\":532:556   */\n      tag_262\n      jump\t// in\n    tag_331:\n        /* \"#utility.yul\":521:556   */\n      swap1\n      pop\n        /* \"#utility.yul\":466:562   */\n      swap2\n      swap1\n      pop\n      jump\t// out\n        /* \"#utility.yul\":568:690   */\n    tag_264:\n        /* \"#utility.yul\":641:665   */\n      tag_333\n        /* \"#utility.yul\":659:664   */\n      dup2\n        /* \"#utility.yul\":641:665   */\n      tag_263\n      jump\t// in\n    tag_333:\n        /* \"#utility.yul\":634:639   */\n      dup2\n        /* \"#utility.yul\":631:666   */\n      eq\n        /* \"#utility.yul\":621:684   */\n      tag_334\n      jumpi\n        /* \"#utility.yul\":680:681   */\n      0x00\n        /* \"#utility.yul\":677:678   */\n      dup1\n        /* \"#utility.yul\":670:682   */\n      revert\n        /* \"#utility.yul\":621:684   */\n    tag_334:\n        /* \"#utility.yul\":568:690   */\n      pop\n      jump\t// out\n        /* \"#utility.yul\":696:835   */\n    tag_265:\n        /* \"#utility.yul\":742:747   */\n      0x00\n        /* \"#utility.yul\":780:786   */\n      dup2\n        /* \"#utility.yul\":767:787   */\n      calldataload\n        /* \"#utility.yul\":758:787   */\n      swap1\n      pop\n        /* \"#utility.yul\":796:829   */\n      tag_336\n        /* \"#utility.yul\":823:828   */\n      dup2\n        /* \"#utility.yul\":796:829   */\n      tag_264\n      jump\t// in\n    tag_336:\n        /* \"#utility.yul\":696:835   */\n      swap3\n      swap2\n      pop\n      pop\n      jump\t// out\n        /* \"#utility.yul\":841:1170   */\n    tag_18:\n        /* \"#utility.yul\":900:906   */\n      0x00\n        /* \"#utility.yul\":949:951   */\n      0x20\n        /* \"#utility.yul\":937:946   */\n      dup3\n        /* \"#utility.yul\":928:935   */\n      dup5\n        /* \"#utility.yul\":924:947   */\n      sub\n        /* \"#utility.yul\":920:952   */\n      slt\n        /* \"#utility.yul\":917:1036   */\n      iszero\n      tag_338\n      jumpi\n        /* \"#utility.yul\":955:1034   */\n      tag_339\n      tag_260\n      jump\t// in\n    tag_339:\n        /* \"#utility.yul\":917:1036   */\n    tag_338:\n        /* \"#utility.yul\":1075:1076   */\n      0x00\n        /* \"#utility.yul\":1100:1153   */\n      tag_340\n        /* \"#utility.yul\":1145:1152   */\n      dup5\n        /* \"#utility.yul\":1136:1142   */\n      dup3\n        /* \"#utility.yul\":1125:1134   */\n      dup6\n        /* \"#utility.yul\":1121:1143   */\n      add\n        /* \"#utility.yul\":1100:1153   */\n      tag_265\n      jump\t// in\n    tag_340:\n        /* \"#utility.yul\":1090:1153   */\n      swap2\n      pop\n        /* \"#utility.yul\":1046:1163   */\n      pop\n        /* \"#utility.yul\":841:1170   */\n      swap3\n      swap2\n      pop\n      pop\n      jump\t// out\n        /* \"#utility.yul\":1176:1253   */\n    tag_266:\n        /* \"#utility.yul\":1213:1220   */\n      0x00\n        /* \"#utility.yul\":1242:1247   */\n      dup2\n        /* \"#utility.yul\":1231:1247   */\n      swap1\n      pop\n        /* \"#utility.yul\":1176:1253   */\n      swap2\n      swap1\n      pop\n      jump\t// out\n        /* \"#utility.yul\":1259:1377   */\n    tag_267:\n        /* \"#utility.yul\":1346:1370   */\n      tag_343\n        /* \"#utility.yul\":1364:1369   */\n      dup2\n        /* \"#utility.yul\":1346:1370   */\n      tag_266\n      jump\t// in\n    tag_343:\n        /* \"#utility.yul\":1341:1344   */\n      dup3\n        /* \"#utility.yul\":1334:1371   */\n      mstore\n        /* \"#utility.yul\":1259:1377   */\n      pop\n      pop\n      jump\t// out\n        /* \"#utility.yul\":1383:1605   */\n    tag_21:\n        /* \"#utility.yul\":1476:1480   */\n      0x00\n        /* \"#utility.yul\":1514:1516   */\n      0x20\n        /* \"#utility.yul\":1503:1512   */\n      dup3\n        /* \"#utility.yul\":1499:1517   */\n      add\n        /* \"#utility.yul\":1491:1517   */\n      swap1\n      pop\n        /* \"#utility.yul\":1527:1598   */\n      tag_345\n        /* \"#utility.yul\":1595:1596   */\n      0x00\n        /* \"#utility.yul\":1584:1593   */\n      dup4\n        /* \"#utility.yul\":1580:1597   */\n      add\n        /* \"#utility.yul\":1571:1577   */\n      dup5\n        /* \"#utility.yul\":1527:1598   */\n      tag_267\n      jump\t// in\n    tag_345:\n        /* \"#utility.yul\":1383:1605   */\n      swap3\n      swap2\n      pop\n      pop\n      jump\t// out\n        /* \"#utility.yul\":1611:1717   */\n    tag_268:\n        /* \"#utility.yul\":1658:1665   */\n      0x00\n        /* \"#utility.yul\":1687:1711   */\n      tag_347\n        /* \"#utility.yul\":1705:1710   */\n      dup3\n        /* \"#utility.yul\":1687:1711   */\n      tag_263\n      jump\t// in\n    tag_347:\n        /* \"#utility.yul\":1676:1711   */\n      swap1\n      pop\n        /* \"#utility.yul\":1611:1717   */\n      swap2\n      swap1\n      pop\n      jump\t// out\n        /* \"#utility.yul\":1723:1865   */\n    tag_269:\n        /* \"#utility.yul\":1806:1840   */\n      tag_349\n        /* \"#utility.yul\":1834:1839   */\n      dup2\n        /* \"#utility.yul\":1806:1840   */\n      tag_268\n      jump\t// in\n    tag_349:\n        /* \"#utility.yul\":1799:1804   */\n      dup2\n        /* \"#utility.yul\":1796:1841   */\n      eq\n        /* \"#utility.yul\":1786:1859   */\n      tag_350\n      jumpi\n        /* \"#utility.yul\":1855:1856   */\n      0x00\n        /* \"#utility.yul\":1852:1853   */\n      dup1\n        /* \"#utility.yul\":1845:1857   */\n      revert\n        /* \"#utility.yul\":1786:1859   */\n    tag_350:\n        /* \"#utility.yul\":1723:1865   */\n      pop\n      jump\t// out\n        /* \"#utility.yul\":1871:2030   */\n    tag_270:\n        /* \"#utility.yul\":1927:1932   */\n      0x00\n        /* \"#utility.yul\":1965:1971   */\n      dup2\n        /* \"#utility.yul\":1952:1972   */\n      calldataload\n        /* \"#utility.yul\":1943:1972   */\n      swap1\n      pop\n        /* \"#utility.yul\":1981:2024   */\n      tag_352\n        /* \"#utility.yul\":2018:2023   */\n      dup2\n        /* \"#utility.yul\":1981:2024   */\n      tag_269\n      jump\t// in\n    tag_352:\n        /* \"#utility.yul\":1871:2030   */\n      swap3\n      swap2\n      pop\n      pop\n      jump\t// out\n        /* \"#utility.yul\":2036:2385   */\n    tag_24:\n        /* \"#utility.yul\":2105:2111   */\n      0x00\n        /* \"#utility.yul\":2154:2156   */\n      0x20\n        /* \"#utility.yul\":2142:2151   */\n      dup3\n        /* \"#utility.yul\":2133:2140   */\n      dup5\n        /* \"#utility.yul\":2129:2152   */\n      sub\n        /* \"#utility.yul\":2125:2157   */\n      slt\n        /* \"#utility.yul\":2122:2241   */\n      iszero\n      tag_354\n      jumpi\n        /* \"#utility.yul\":2160:2239   */\n      tag_355\n      tag_260\n      jump\t// in\n    tag_355:\n        /* \"#utility.yul\":2122:2241   */\n    tag_354:\n        /* \"#utility.yul\":2280:2281   */\n      0x00\n        /* \"#utility.yul\":2305:2368   */\n      tag_356\n        /* \"#utility.yul\":2360:2367   */\n      dup5\n        /* \"#utility.yul\":2351:2357   */\n      dup3\n        /* \"#utility.yul\":2340:2349   */\n      dup6\n        /* \"#utility.yul\":2336:2358   */\n      add\n        /* \"#utility.yul\":2305:2368   */\n      tag_270\n      jump\t// in\n    tag_356:\n        /* \"#utility.yul\":2295:2368   */\n      swap2\n      pop\n        /* \"#utility.yul\":2251:2378   */\n      pop\n        /* \"#utility.yul\":2036:2385   */\n      swap3\n      swap2\n      pop\n      pop\n      jump\t// out\n        /* \"#utility.yul\":2391:2451   */\n    tag_271:\n        /* \"#utility.yul\":2419:2422   */\n      0x00\n        /* \"#utility.yul\":2440:2445   */\n      dup2\n        /* \"#utility.yul\":2433:2445   */\n      swap1\n      pop\n        /* \"#utility.yul\":2391:2451   */\n      swap2\n      swap1\n      pop\n      jump\t// out\n        /* \"#utility.yul\":2457:2599   */\n    tag_272:\n        /* \"#utility.yul\":2507:2516   */\n      0x00\n        /* \"#utility.yul\":2540:2593   */\n      tag_359\n        /* \"#utility.yul\":2558:2592   */\n      tag_360\n        /* \"#utility.yul\":2567:2591   */\n      tag_361\n        /* \"#utility.yul\":2585:2590   */\n      dup5\n        /* \"#utility.yul\":2567:2591   */\n      tag_262\n      jump\t// in\n    tag_361:\n        /* \"#utility.yul\":2558:2592   */\n      tag_271\n      jump\t// in\n    tag_360:\n        /* \"#utility.yul\":2540:2593   */\n      tag_262\n      jump\t// in\n    tag_359:\n        /* \"#utility.yul\":2527:2593   */\n      swap1\n      pop\n        /* \"#utility.yul\":2457:2599   */\n      swap2\n      swap1\n      pop\n      jump\t// out\n        /* \"#utility.yul\":2605:2731   */\n    tag_273:\n        /* \"#utility.yul\":2655:2664   */\n      0x00\n        /* \"#utility.yul\":2688:2725   */\n      tag_363\n        /* \"#utility.yul\":2719:2724   */\n      dup3\n        /* \"#utility.yul\":2688:2725   */\n      tag_272\n      jump\t// in\n    tag_363:\n        /* \"#utility.yul\":2675:2725   */\n      swap1\n      pop\n        /* \"#utility.yul\":2605:2731   */\n      swap2\n      swap1\n      pop\n      jump\t// out\n        /* \"#utility.yul\":2737:2877   */\n    tag_274:\n        /* \"#utility.yul\":2801:2810   */\n      0x00\n        /* \"#utility.yul\":2834:2871   */\n      tag_365\n        /* \"#utility.yul\":2865:2870   */\n      dup3\n        /* \"#utility.yul\":2834:2871   */\n      tag_273\n      jump\t// in\n    tag_365:\n        /* \"#utility.yul\":2821:2871   */\n      swap1\n      pop\n        /* \"#utility.yul\":2737:2877   */\n      swap2\n      swap1\n      pop\n      jump\t// out\n        /* \"#utility.yul\":2883:3042   */\n    tag_275:\n        /* \"#utility.yul\":2984:3035   */\n      tag_367\n        /* \"#utility.yul\":3029:3034   */\n      dup2\n        /* \"#utility.yul\":2984:3035   */\n      tag_274\n      jump\t// in\n    tag_367:\n        /* \"#utility.yul\":2979:2982   */\n      dup3\n        /* \"#utility.yul\":2972:3036   */\n      mstore\n        /* \"#utility.yul\":2883:3042   */\n      pop\n      pop\n      jump\t// out\n        /* \"#utility.yul\":3048:3298   */\n    tag_30:\n        /* \"#utility.yul\":3155:3159   */\n      0x00\n        /* \"#utility.yul\":3193:3195   */\n      0x20\n        /* \"#utility.yul\":3182:3191   */\n      dup3\n        /* \"#utility.yul\":3178:3196   */\n      add\n        /* \"#utility.yul\":3170:3196   */\n      swap1\n      pop\n        /* \"#utility.yul\":3206:3291   */\n      tag_369\n        /* \"#utility.yul\":3288:3289   */\n      0x00\n        /* \"#utility.yul\":3277:3286   */\n      dup4\n        /* \"#utility.yul\":3273:3290   */\n      add\n        /* \"#utility.yul\":3264:3270   */\n      dup5\n        /* \"#utility.yul\":3206:3291   */\n      tag_275\n      jump\t// in\n    tag_369:\n        /* \"#utility.yul\":3048:3298   */\n      swap3\n      swap2\n      pop\n      pop\n      jump\t// out\n        /* \"#utility.yul\":3304:3422   */\n    tag_276:\n        /* \"#utility.yul\":3391:3415   */\n      tag_371\n        /* \"#utility.yul\":3409:3414   */\n      dup2\n        /* \"#utility.yul\":3391:3415   */\n      tag_263\n      jump\t// in\n    tag_371:\n        /* \"#utility.yul\":3386:3389   */\n      dup3\n        /* \"#utility.yul\":3379:3416   */\n      mstore\n        /* \"#utility.yul\":3304:3422   */\n      pop\n      pop\n      jump\t// out\n        /* \"#utility.yul\":3428:3650   */\n    tag_38:\n        /* \"#utility.yul\":3521:3525   */\n      0x00\n        /* \"#utility.yul\":3559:3561   */\n      0x20\n        /* \"#utility.yul\":3548:3557   */\n      dup3\n        /* \"#utility.yul\":3544:3562   */\n      add\n        /* \"#utility.yul\":3536:3562   */\n      swap1\n      pop\n        /* \"#utility.yul\":3572:3643   */\n      tag_373\n        /* \"#utility.yul\":3640:3641   */\n      0x00\n        /* \"#utility.yul\":3629:3638   */\n      dup4\n        /* \"#utility.yul\":3625:3642   */\n      add\n        /* \"#utility.yul\":3616:3622   */\n      dup5\n        /* \"#utility.yul\":3572:3643   */\n      tag_276\n      jump\t// in\n    tag_373:\n        /* \"#utility.yul\":3428:3650   */\n      swap3\n      swap2\n      pop\n      pop\n      jump\t// out\n        /* \"#utility.yul\":3656:3766   */\n    tag_277:\n        /* \"#utility.yul\":3707:3714   */\n      0x00\n        /* \"#utility.yul\":3736:3760   */\n      tag_375\n        /* \"#utility.yul\":3754:3759   */\n      dup3\n        /* \"#utility.yul\":3736:3760   */\n      tag_263\n      jump\t// in\n    tag_375:\n        /* \"#utility.yul\":3725:3760   */\n      swap1\n      pop\n        /* \"#utility.yul\":3656:3766   */\n      swap2\n      swap1\n      pop\n      jump\t// out\n        /* \"#utility.yul\":3772:3922   */\n    tag_278:\n        /* \"#utility.yul\":3859:3897   */\n      tag_377\n        /* \"#utility.yul\":3891:3896   */\n      dup2\n        /* \"#utility.yul\":3859:3897   */\n      tag_277\n      jump\t// in\n    tag_377:\n        /* \"#utility.yul\":3852:3857   */\n      dup2\n        /* \"#utility.yul\":3849:3898   */\n      eq\n        /* \"#utility.yul\":3839:3916   */\n      tag_378\n      jumpi\n        /* \"#utility.yul\":3912:3913   */\n      0x00\n        /* \"#utility.yul\":3909:3910   */\n      dup1\n        /* \"#utility.yul\":3902:3914   */\n      revert\n        /* \"#utility.yul\":3839:3916   */\n    tag_378:\n        /* \"#utility.yul\":3772:3922   */\n      pop\n      jump\t// out\n        /* \"#utility.yul\":3928:4095   */\n    tag_279:\n        /* \"#utility.yul\":3988:3993   */\n      0x00\n        /* \"#utility.yul\":4026:4032   */\n      dup2\n        /* \"#utility.yul\":4013:4033   */\n      calldataload\n        /* \"#utility.yul\":4004:4033   */\n      swap1\n      pop\n        /* \"#utility.yul\":4042:4089   */\n      tag_380\n        /* \"#utility.yul\":4083:4088   */\n      dup2\n        /* \"#utility.yul\":4042:4089   */\n      tag_278\n      jump\t// in\n    tag_380:\n        /* \"#utility.yul\":3928:4095   */\n      swap3\n      swap2\n      pop\n      pop\n      jump\t// out\n        /* \"#utility.yul\":4101:4458   */\n    tag_49:\n        /* \"#utility.yul\":4174:4180   */\n      0x00\n        /* \"#utility.yul\":4223:4225   */\n      0x20\n        /* \"#utility.yul\":4211:4220   */\n      dup3\n        /* \"#utility.yul\":4202:4209   */\n      dup5\n        /* \"#utility.yul\":4198:4221   */\n      sub\n        /* \"#utility.yul\":4194:4226   */\n      slt\n        /* \"#utility.yul\":4191:4310   */\n      iszero\n      tag_382\n      jumpi\n        /* \"#utility.yul\":4229:4308   */\n      tag_383\n      tag_260\n      jump\t// in\n    tag_383:\n        /* \"#utility.yul\":4191:4310   */\n    tag_382:\n        /* \"#utility.yul\":4349:4350   */\n      0x00\n        /* \"#utility.yul\":4374:4441   */\n      tag_384\n        /* \"#utility.yul\":4433:4440   */\n      dup5\n        /* \"#utility.yul\":4424:4430   */\n      dup3\n        /* \"#utility.yul\":4413:4422   */\n      dup6\n        /* \"#utility.yul\":4409:4431   */\n      add\n        /* \"#utility.yul\":4374:4441   */\n      tag_279\n      jump\t// in\n    tag_384:\n        /* \"#utility.yul\":4364:4441   */\n      swap2\n      pop\n        /* \"#utility.yul\":4320:4451   */\n      pop\n        /* \"#utility.yul\":4101:4458   */\n      swap3\n      swap2\n      pop\n      pop\n      jump\t// out\n        /* \"#utility.yul\":4464:4586   */\n    tag_280:\n        /* \"#utility.yul\":4537:4561   */\n      tag_386\n        /* \"#utility.yul\":4555:4560   */\n      dup2\n        /* \"#utility.yul\":4537:4561   */\n      tag_266\n      jump\t// in\n    tag_386:\n        /* \"#utility.yul\":4530:4535   */\n      dup2\n        /* \"#utility.yul\":4527:4562   */\n      eq\n        /* \"#utility.yul\":4517:4580   */\n      tag_387\n      jumpi\n        /* \"#utility.yul\":4576:4577   */\n      0x00\n        /* \"#utility.yul\":4573:4574   */\n      dup1\n        /* \"#utility.yul\":4566:4578   */\n      revert\n        /* \"#utility.yul\":4517:4580   */\n    tag_387:\n        /* \"#utility.yul\":4464:4586   */\n      pop\n      jump\t// out\n        /* \"#utility.yul\":4592:4731   */\n    tag_281:\n        /* \"#utility.yul\":4638:4643   */\n      0x00\n        /* \"#utility.yul\":4676:4682   */\n      dup2\n        /* \"#utility.yul\":4663:4683   */\n      calldataload\n        /* \"#utility.yul\":4654:4683   */\n      swap1\n      pop\n        /* \"#utility.yul\":4692:4725   */\n      tag_389\n        /* \"#utility.yul\":4719:4724   */\n      dup2\n        /* \"#utility.yul\":4692:4725   */\n      tag_280\n      jump\t// in\n    tag_389:\n        /* \"#utility.yul\":4592:4731   */\n      swap3\n      swap2\n      pop\n      pop\n      jump\t// out\n        /* \"#utility.yul\":4737:4855   */\n    tag_282:\n        /* \"#utility.yul\":4796:4803   */\n      0x00\n        /* \"#utility.yul\":4825:4849   */\n      tag_391\n        /* \"#utility.yul\":4843:4848   */\n      dup3\n        /* \"#utility.yul\":4825:4849   */\n      tag_263\n      jump\t// in\n    tag_391:\n        /* \"#utility.yul\":4814:4849   */\n      swap1\n      pop\n        /* \"#utility.yul\":4737:4855   */\n      swap2\n      swap1\n      pop\n      jump\t// out\n        /* \"#utility.yul\":4861:5027   */\n    tag_283:\n        /* \"#utility.yul\":4956:5002   */\n      tag_393\n        /* \"#utility.yul\":4996:5001   */\n      dup2\n        /* \"#utility.yul\":4956:5002   */\n      tag_282\n      jump\t// in\n    tag_393:\n        /* \"#utility.yul\":4949:4954   */\n      dup2\n        /* \"#utility.yul\":4946:5003   */\n      eq\n        /* \"#utility.yul\":4936:5021   */\n      tag_394\n      jumpi\n        /* \"#utility.yul\":5017:5018   */\n      0x00\n        /* \"#utility.yul\":5014:5015   */\n      dup1\n        /* \"#utility.yul\":5007:5019   */\n      revert\n        /* \"#utility.yul\":4936:5021   */\n    tag_394:\n        /* \"#utility.yul\":4861:5027   */\n      pop\n      jump\t// out\n        /* \"#utility.yul\":5033:5216   */\n    tag_284:\n        /* \"#utility.yul\":5101:5106   */\n      0x00\n        /* \"#utility.yul\":5139:5145   */\n      dup2\n        /* \"#utility.yul\":5126:5146   */\n      calldataload\n        /* \"#utility.yul\":5117:5146   */\n      swap1\n      pop\n        /* \"#utility.yul\":5155:5210   */\n      tag_396\n        /* \"#utility.yul\":5204:5209   */\n      dup2\n        /* \"#utility.yul\":5155:5210   */\n      tag_283\n      jump\t// in\n    tag_396:\n        /* \"#utility.yul\":5033:5216   */\n      swap3\n      swap2\n      pop\n      pop\n      jump\t// out\n        /* \"#utility.yul\":5222:6051   */\n    tag_53:\n        /* \"#utility.yul\":5340:5346   */\n      0x00\n        /* \"#utility.yul\":5348:5354   */\n      dup1\n        /* \"#utility.yul\":5356:5362   */\n      0x00\n        /* \"#utility.yul\":5364:5370   */\n      dup1\n        /* \"#utility.yul\":5413:5416   */\n      0x80\n        /* \"#utility.yul\":5401:5410   */\n      dup6\n        /* \"#utility.yul\":5392:5399   */\n      dup8\n        /* \"#utility.yul\":5388:5411   */\n      sub\n        /* \"#utility.yul\":5384:5417   */\n      slt\n        /* \"#utility.yul\":5381:5501   */\n      iszero\n      tag_398\n      jumpi\n        /* \"#utility.yul\":5420:5499   */\n      tag_399\n      tag_260\n      jump\t// in\n    tag_399:\n        /* \"#utility.yul\":5381:5501   */\n    tag_398:\n        /* \"#utility.yul\":5540:5541   */\n      0x00\n        /* \"#utility.yul\":5565:5618   */\n      tag_400\n        /* \"#utility.yul\":5610:5617   */\n      dup8\n        /* \"#utility.yul\":5601:5607   */\n      dup3\n        /* \"#utility.yul\":5590:5599   */\n      dup9\n        /* \"#utility.yul\":5586:5608   */\n      add\n        /* \"#utility.yul\":5565:5618   */\n      tag_281\n      jump\t// in\n    tag_400:\n        /* \"#utility.yul\":5555:5618   */\n      swap5\n      pop\n        /* \"#utility.yul\":5511:5628   */\n      pop\n        /* \"#utility.yul\":5667:5669   */\n      0x20\n        /* \"#utility.yul\":5693:5756   */\n      tag_401\n        /* \"#utility.yul\":5748:5755   */\n      dup8\n        /* \"#utility.yul\":5739:5745   */\n      dup3\n        /* \"#utility.yul\":5728:5737   */\n      dup9\n        /* \"#utility.yul\":5724:5746   */\n      add\n        /* \"#utility.yul\":5693:5756   */\n      tag_270\n      jump\t// in\n    tag_401:\n        /* \"#utility.yul\":5683:5756   */\n      swap4\n      pop\n        /* \"#utility.yul\":5638:5766   */\n      pop\n        /* \"#utility.yul\":5805:5807   */\n      0x40\n        /* \"#utility.yul\":5831:5884   */\n      tag_402\n        /* \"#utility.yul\":5876:5883   */\n      dup8\n        /* \"#utility.yul\":5867:5873   */\n      dup3\n        /* \"#utility.yul\":5856:5865   */\n      dup9\n        /* \"#utility.yul\":5852:5874   */\n      add\n        /* \"#utility.yul\":5831:5884   */\n      tag_281\n      jump\t// in\n    tag_402:\n        /* \"#utility.yul\":5821:5884   */\n      swap3\n      pop\n        /* \"#utility.yul\":5776:5894   */\n      pop\n        /* \"#utility.yul\":5933:5935   */\n      0x60\n        /* \"#utility.yul\":5959:6034   */\n      tag_403\n        /* \"#utility.yul\":6026:6033   */\n      dup8\n        /* \"#utility.yul\":6017:6023   */\n      dup3\n        /* \"#utility.yul\":6006:6015   */\n      dup9\n        /* \"#utility.yul\":6002:6024   */\n      add\n        /* \"#utility.yul\":5959:6034   */\n      tag_284\n      jump\t// in\n    tag_403:\n        /* \"#utility.yul\":5949:6034   */\n      swap2\n      pop\n        /* \"#utility.yul\":5904:6044   */\n      pop\n        /* \"#utility.yul\":5222:6051   */\n      swap3\n      swap6\n      swap2\n      swap5\n      pop\n      swap3\n      pop\n      jump\t// out\n        /* \"#utility.yul\":6057:6237   */\n    tag_66:\n        /* \"#utility.yul\":6105:6182   */\n      0x4e487b7100000000000000000000000000000000000000000000000000000000\n        /* \"#utility.yul\":6102:6103   */\n      0x00\n        /* \"#utility.yul\":6095:6183   */\n      mstore\n        /* \"#utility.yul\":6202:6206   */\n      0x41\n        /* \"#utility.yul\":6199:6200   */\n      0x04\n        /* \"#utility.yul\":6192:6207   */\n      mstore\n        /* \"#utility.yul\":6226:6230   */\n      0x24\n        /* \"#utility.yul\":6223:6224   */\n      0x00\n        /* \"#utility.yul\":6216:6231   */\n      revert\n        /* \"#utility.yul\":6243:6423   */\n    tag_70:\n        /* \"#utility.yul\":6291:6368   */\n      0x4e487b7100000000000000000000000000000000000000000000000000000000\n        /* \"#utility.yul\":6288:6289   */\n      0x00\n        /* \"#utility.yul\":6281:6369   */\n      mstore\n        /* \"#utility.yul\":6388:6392   */\n      0x32\n        /* \"#utility.yul\":6385:6386   */\n      0x04\n        /* \"#utility.yul\":6378:6393   */\n      mstore\n        /* \"#utility.yul\":6412:6416   */\n      0x24\n        /* \"#utility.yul\":6409:6410   */\n      0x00\n        /* \"#utility.yul\":6402:6417   */\n      revert\n        /* \"#utility.yul\":6429:6543   */\n    tag_285:\n        /* \"#utility.yul\":6496:6502   */\n      0x00\n        /* \"#utility.yul\":6530:6535   */\n      dup2\n        /* \"#utility.yul\":6524:6536   */\n      mload\n        /* \"#utility.yul\":6514:6536   */\n      swap1\n      pop\n        /* \"#utility.yul\":6429:6543   */\n      swap2\n      swap1\n      pop\n      jump\t// out\n        /* \"#utility.yul\":6549:6733   */\n    tag_286:\n        /* \"#utility.yul\":6648:6659   */\n      0x00\n        /* \"#utility.yul\":6682:6688   */\n      dup3\n        /* \"#utility.yul\":6677:6680   */\n      dup3\n        /* \"#utility.yul\":6670:6689   */\n      mstore\n        /* \"#utility.yul\":6722:6726   */\n      0x20\n        /* \"#utility.yul\":6717:6720   */\n      dup3\n        /* \"#utility.yul\":6713:6727   */\n      add\n        /* \"#utility.yul\":6698:6727   */\n      swap1\n      pop\n        /* \"#utility.yul\":6549:6733   */\n      swap3\n      swap2\n      pop\n      pop\n      jump\t// out\n        /* \"#utility.yul\":6739:6871   */\n    tag_287:\n        /* \"#utility.yul\":6806:6810   */\n      0x00\n        /* \"#utility.yul\":6829:6832   */\n      dup2\n        /* \"#utility.yul\":6821:6832   */\n      swap1\n      pop\n        /* \"#utility.yul\":6859:6863   */\n      0x20\n        /* \"#utility.yul\":6854:6857   */\n      dup3\n        /* \"#utility.yul\":6850:6864   */\n      add\n        /* \"#utility.yul\":6842:6864   */\n      swap1\n      pop\n        /* \"#utility.yul\":6739:6871   */\n      swap2\n      swap1\n      pop\n      jump\t// out\n        /* \"#utility.yul\":6877:6985   */\n    tag_288:\n        /* \"#utility.yul\":6954:6978   */\n      tag_410\n        /* \"#utility.yul\":6972:6977   */\n      dup2\n        /* \"#utility.yul\":6954:6978   */\n      tag_263\n      jump\t// in\n    tag_410:\n        /* \"#utility.yul\":6949:6952   */\n      dup3\n        /* \"#utility.yul\":6942:6979   */\n      mstore\n        /* \"#utility.yul\":6877:6985   */\n      pop\n      pop\n      jump\t// out\n        /* \"#utility.yul\":6991:7170   */\n    tag_289:\n        /* \"#utility.yul\":7060:7070   */\n      0x00\n        /* \"#utility.yul\":7081:7127   */\n      tag_412\n        /* \"#utility.yul\":7123:7126   */\n      dup4\n        /* \"#utility.yul\":7115:7121   */\n      dup4\n        /* \"#utility.yul\":7081:7127   */\n      tag_288\n      jump\t// in\n    tag_412:\n        /* \"#utility.yul\":7159:7163   */\n      0x20\n        /* \"#utility.yul\":7154:7157   */\n      dup4\n        /* \"#utility.yul\":7150:7164   */\n      add\n        /* \"#utility.yul\":7136:7164   */\n      swap1\n      pop\n        /* \"#utility.yul\":6991:7170   */\n      swap3\n      swap2\n      pop\n      pop\n      jump\t// out\n        /* \"#utility.yul\":7176:7289   */\n    tag_290:\n        /* \"#utility.yul\":7246:7250   */\n      0x00\n        /* \"#utility.yul\":7278:7282   */\n      0x20\n        /* \"#utility.yul\":7273:7276   */\n      dup3\n        /* \"#utility.yul\":7269:7283   */\n      add\n        /* \"#utility.yul\":7261:7283   */\n      swap1\n      pop\n        /* \"#utility.yul\":7176:7289   */\n      swap2\n      swap1\n      pop\n      jump\t// out\n        /* \"#utility.yul\":7325:8057   */\n    tag_291:\n        /* \"#utility.yul\":7444:7447   */\n      0x00\n        /* \"#utility.yul\":7473:7527   */\n      tag_415\n        /* \"#utility.yul\":7521:7526   */\n      dup3\n        /* \"#utility.yul\":7473:7527   */\n      tag_285\n      jump\t// in\n    tag_415:\n        /* \"#utility.yul\":7543:7629   */\n      tag_416\n        /* \"#utility.yul\":7622:7628   */\n      dup2\n        /* \"#utility.yul\":7617:7620   */\n      dup6\n        /* \"#utility.yul\":7543:7629   */\n      tag_286\n      jump\t// in\n    tag_416:\n        /* \"#utility.yul\":7536:7629   */\n      swap4\n      pop\n        /* \"#utility.yul\":7653:7709   */\n      tag_417\n        /* \"#utility.yul\":7703:7708   */\n      dup4\n        /* \"#utility.yul\":7653:7709   */\n      tag_287\n      jump\t// in\n    tag_417:\n        /* \"#utility.yul\":7732:7739   */\n      dup1\n        /* \"#utility.yul\":7763:7764   */\n      0x00\n        /* \"#utility.yul\":7748:8032   */\n    tag_418:\n        /* \"#utility.yul\":7773:7779   */\n      dup4\n        /* \"#utility.yul\":7770:7771   */\n      dup2\n        /* \"#utility.yul\":7767:7780   */\n      lt\n        /* \"#utility.yul\":7748:8032   */\n      iszero\n      tag_420\n      jumpi\n        /* \"#utility.yul\":7849:7855   */\n      dup2\n        /* \"#utility.yul\":7843:7856   */\n      mload\n        /* \"#utility.yul\":7876:7939   */\n      tag_421\n        /* \"#utility.yul\":7935:7938   */\n      dup9\n        /* \"#utility.yul\":7920:7933   */\n      dup3\n        /* \"#utility.yul\":7876:7939   */\n      tag_289\n      jump\t// in\n    tag_421:\n        /* \"#utility.yul\":7869:7939   */\n      swap8\n      pop\n        /* \"#utility.yul\":7962:8022   */\n      tag_422\n        /* \"#utility.yul\":8015:8021   */\n      dup4\n        /* \"#utility.yul\":7962:8022   */\n      tag_290\n      jump\t// in\n    tag_422:\n        /* \"#utility.yul\":7952:8022   */\n      swap3\n      pop\n        /* \"#utility.yul\":7808:8032   */\n      pop\n        /* \"#utility.yul\":7795:7796   */\n      0x01\n        /* \"#utility.yul\":7792:7793   */\n      dup2\n        /* \"#utility.yul\":7788:7797   */\n      add\n        /* \"#utility.yul\":7783:7797   */\n      swap1\n      pop\n        /* \"#utility.yul\":7748:8032   */\n      jump(tag_418)\n    tag_420:\n        /* \"#utility.yul\":7752:7766   */\n      pop\n        /* \"#utility.yul\":8048:8051   */\n      dup6\n        /* \"#utility.yul\":8041:8051   */\n      swap4\n      pop\n        /* \"#utility.yul\":7449:8057   */\n      pop\n      pop\n      pop\n        /* \"#utility.yul\":7325:8057   */\n      swap3\n      swap2\n      pop\n      pop\n      jump\t// out\n        /* \"#utility.yul\":8063:8546   */\n    tag_76:\n        /* \"#utility.yul\":8234:8238   */\n      0x00\n        /* \"#utility.yul\":8272:8274   */\n      0x40\n        /* \"#utility.yul\":8261:8270   */\n      dup3\n        /* \"#utility.yul\":8257:8275   */\n      add\n        /* \"#utility.yul\":8249:8275   */\n      swap1\n      pop\n        /* \"#utility.yul\":8285:8356   */\n      tag_424\n        /* \"#utility.yul\":8353:8354   */\n      0x00\n        /* \"#utility.yul\":8342:8351   */\n      dup4\n        /* \"#utility.yul\":8338:8355   */\n      add\n        /* \"#utility.yul\":8329:8335   */\n      dup6\n        /* \"#utility.yul\":8285:8356   */\n      tag_267\n      jump\t// in\n    tag_424:\n        /* \"#utility.yul\":8403:8412   */\n      dup2\n        /* \"#utility.yul\":8397:8401   */\n      dup2\n        /* \"#utility.yul\":8393:8413   */\n      sub\n        /* \"#utility.yul\":8388:8390   */\n      0x20\n        /* \"#utility.yul\":8377:8386   */\n      dup4\n        /* \"#utility.yul\":8373:8391   */\n      add\n        /* \"#utility.yul\":8366:8414   */\n      mstore\n        /* \"#utility.yul\":8431:8539   */\n      tag_425\n        /* \"#utility.yul\":8534:8538   */\n      dup2\n        /* \"#utility.yul\":8525:8531   */\n      dup5\n        /* \"#utility.yul\":8431:8539   */\n      tag_291\n      jump\t// in\n    tag_425:\n        /* \"#utility.yul\":8423:8539   */\n      swap1\n      pop\n        /* \"#utility.yul\":8063:8546   */\n      swap4\n      swap3\n      pop\n      pop\n      pop\n      jump\t// out\n        /* \"#utility.yul\":8552:8669   */\n    tag_292:\n        /* \"#utility.yul\":8661:8662   */\n      0x00\n        /* \"#utility.yul\":8658:8659   */\n      dup1\n        /* \"#utility.yul\":8651:8663   */\n      revert\n        /* \"#utility.yul\":8675:8777   */\n    tag_293:\n        /* \"#utility.yul\":8716:8722   */\n      0x00\n        /* \"#utility.yul\":8767:8769   */\n      0x1f\n        /* \"#utility.yul\":8763:8770   */\n      not\n        /* \"#utility.yul\":8758:8760   */\n      0x1f\n        /* \"#utility.yul\":8751:8756   */\n      dup4\n        /* \"#utility.yul\":8747:8761   */\n      add\n        /* \"#utility.yul\":8743:8771   */\n      and\n        /* \"#utility.yul\":8733:8771   */\n      swap1\n      pop\n        /* \"#utility.yul\":8675:8777   */\n      swap2\n      swap1\n      pop\n      jump\t// out\n        /* \"#utility.yul\":8783:9064   */\n    tag_294:\n        /* \"#utility.yul\":8866:8893   */\n      tag_429\n        /* \"#utility.yul\":8888:8892   */\n      dup3\n        /* \"#utility.yul\":8866:8893   */\n      tag_293\n      jump\t// in\n    tag_429:\n        /* \"#utility.yul\":8858:8864   */\n      dup2\n        /* \"#utility.yul\":8854:8894   */\n      add\n        /* \"#utility.yul\":8996:9002   */\n      dup2\n        /* \"#utility.yul\":8984:8994   */\n      dup2\n        /* \"#utility.yul\":8981:9003   */\n      lt\n        /* \"#utility.yul\":8960:8978   */\n      0xffffffffffffffff\n        /* \"#utility.yul\":8948:8958   */\n      dup3\n        /* \"#utility.yul\":8945:8979   */\n      gt\n        /* \"#utility.yul\":8942:9004   */\n      or\n        /* \"#utility.yul\":8939:9027   */\n      iszero\n      tag_430\n      jumpi\n        /* \"#utility.yul\":9007:9025   */\n      tag_431\n      tag_66\n      jump\t// in\n    tag_431:\n        /* \"#utility.yul\":8939:9027   */\n    tag_430:\n        /* \"#utility.yul\":9047:9057   */\n      dup1\n        /* \"#utility.yul\":9043:9045   */\n      0x40\n        /* \"#utility.yul\":9036:9058   */\n      mstore\n        /* \"#utility.yul\":8826:9064   */\n      pop\n        /* \"#utility.yul\":8783:9064   */\n      pop\n      pop\n      jump\t// out\n        /* \"#utility.yul\":9070:9199   */\n    tag_295:\n        /* \"#utility.yul\":9104:9110   */\n      0x00\n        /* \"#utility.yul\":9131:9151   */\n      tag_433\n      tag_259\n      jump\t// in\n    tag_433:\n        /* \"#utility.yul\":9121:9151   */\n      swap1\n      pop\n        /* \"#utility.yul\":9160:9193   */\n      tag_434\n        /* \"#utility.yul\":9188:9192   */\n      dup3\n        /* \"#utility.yul\":9180:9186   */\n      dup3\n        /* \"#utility.yul\":9160:9193   */\n      tag_294\n      jump\t// in\n    tag_434:\n        /* \"#utility.yul\":9070:9199   */\n      swap2\n      swap1\n      pop\n      jump\t// out\n        /* \"#utility.yul\":9205:9516   */\n    tag_296:\n        /* \"#utility.yul\":9282:9286   */\n      0x00\n        /* \"#utility.yul\":9372:9390   */\n      0xffffffffffffffff\n        /* \"#utility.yul\":9364:9370   */\n      dup3\n        /* \"#utility.yul\":9361:9391   */\n      gt\n        /* \"#utility.yul\":9358:9414   */\n      iszero\n      tag_436\n      jumpi\n        /* \"#utility.yul\":9394:9412   */\n      tag_437\n      tag_66\n      jump\t// in\n    tag_437:\n        /* \"#utility.yul\":9358:9414   */\n    tag_436:\n        /* \"#utility.yul\":9444:9448   */\n      0x20\n        /* \"#utility.yul\":9436:9442   */\n      dup3\n        /* \"#utility.yul\":9432:9449   */\n      mul\n        /* \"#utility.yul\":9424:9449   */\n      swap1\n      pop\n        /* \"#utility.yul\":9504:9508   */\n      0x20\n        /* \"#utility.yul\":9498:9502   */\n      dup2\n        /* \"#utility.yul\":9494:9509   */\n      add\n        /* \"#utility.yul\":9486:9509   */\n      swap1\n      pop\n        /* \"#utility.yul\":9205:9516   */\n      swap2\n      swap1\n      pop\n      jump\t// out\n        /* \"#utility.yul\":9522:9639   */\n    tag_297:\n        /* \"#utility.yul\":9631:9632   */\n      0x00\n        /* \"#utility.yul\":9628:9629   */\n      dup1\n        /* \"#utility.yul\":9621:9633   */\n      revert\n        /* \"#utility.yul\":9645:9788   */\n    tag_298:\n        /* \"#utility.yul\":9702:9707   */\n      0x00\n        /* \"#utility.yul\":9733:9739   */\n      dup2\n        /* \"#utility.yul\":9727:9740   */\n      mload\n        /* \"#utility.yul\":9718:9740   */\n      swap1\n      pop\n        /* \"#utility.yul\":9749:9782   */\n      tag_440\n        /* \"#utility.yul\":9776:9781   */\n      dup2\n        /* \"#utility.yul\":9749:9782   */\n      tag_280\n      jump\t// in\n    tag_440:\n        /* \"#utility.yul\":9645:9788   */\n      swap3\n      swap2\n      pop\n      pop\n      jump\t// out\n        /* \"#utility.yul\":9811:10543   */\n    tag_299:\n        /* \"#utility.yul\":9918:9923   */\n      0x00\n        /* \"#utility.yul\":9943:10024   */\n      tag_442\n        /* \"#utility.yul\":9959:10023   */\n      tag_443\n        /* \"#utility.yul\":10016:10022   */\n      dup5\n        /* \"#utility.yul\":9959:10023   */\n      tag_296\n      jump\t// in\n    tag_443:\n        /* \"#utility.yul\":9943:10024   */\n      tag_295\n      jump\t// in\n    tag_442:\n        /* \"#utility.yul\":9934:10024   */\n      swap1\n      pop\n        /* \"#utility.yul\":10044:10049   */\n      dup1\n        /* \"#utility.yul\":10073:10079   */\n      dup4\n        /* \"#utility.yul\":10066:10071   */\n      dup3\n        /* \"#utility.yul\":10059:10080   */\n      mstore\n        /* \"#utility.yul\":10107:10111   */\n      0x20\n        /* \"#utility.yul\":10100:10105   */\n      dup3\n        /* \"#utility.yul\":10096:10112   */\n      add\n        /* \"#utility.yul\":10089:10112   */\n      swap1\n      pop\n        /* \"#utility.yul\":10160:10164   */\n      0x20\n        /* \"#utility.yul\":10152:10158   */\n      dup5\n        /* \"#utility.yul\":10148:10165   */\n      mul\n        /* \"#utility.yul\":10140:10146   */\n      dup4\n        /* \"#utility.yul\":10136:10166   */\n      add\n        /* \"#utility.yul\":10189:10192   */\n      dup6\n        /* \"#utility.yul\":10181:10187   */\n      dup2\n        /* \"#utility.yul\":10178:10193   */\n      gt\n        /* \"#utility.yul\":10175:10297   */\n      iszero\n      tag_444\n      jumpi\n        /* \"#utility.yul\":10208:10287   */\n      tag_445\n      tag_297\n      jump\t// in\n    tag_445:\n        /* \"#utility.yul\":10175:10297   */\n    tag_444:\n        /* \"#utility.yul\":10323:10329   */\n      dup4\n        /* \"#utility.yul\":10306:10537   */\n    tag_446:\n        /* \"#utility.yul\":10340:10346   */\n      dup2\n        /* \"#utility.yul\":10335:10338   */\n      dup2\n        /* \"#utility.yul\":10332:10347   */\n      lt\n        /* \"#utility.yul\":10306:10537   */\n      iszero\n      tag_448\n      jumpi\n        /* \"#utility.yul\":10415:10418   */\n      dup1\n        /* \"#utility.yul\":10444:10492   */\n      tag_449\n        /* \"#utility.yul\":10488:10491   */\n      dup9\n        /* \"#utility.yul\":10476:10486   */\n      dup3\n        /* \"#utility.yul\":10444:10492   */\n      tag_298\n      jump\t// in\n    tag_449:\n        /* \"#utility.yul\":10439:10442   */\n      dup5\n        /* \"#utility.yul\":10432:10493   */\n      mstore\n        /* \"#utility.yul\":10522:10526   */\n      0x20\n        /* \"#utility.yul\":10517:10520   */\n      dup5\n        /* \"#utility.yul\":10513:10527   */\n      add\n        /* \"#utility.yul\":10506:10527   */\n      swap4\n      pop\n        /* \"#utility.yul\":10382:10537   */\n      pop\n        /* \"#utility.yul\":10366:10370   */\n      0x20\n        /* \"#utility.yul\":10361:10364   */\n      dup2\n        /* \"#utility.yul\":10357:10371   */\n      add\n        /* \"#utility.yul\":10350:10371   */\n      swap1\n      pop\n        /* \"#utility.yul\":10306:10537   */\n      jump(tag_446)\n    tag_448:\n        /* \"#utility.yul\":10310:10331   */\n      pop\n        /* \"#utility.yul\":9924:10543   */\n      pop\n      pop\n        /* \"#utility.yul\":9811:10543   */\n      swap4\n      swap3\n      pop\n      pop\n      pop\n      jump\t// out\n        /* \"#utility.yul\":10566:10951   */\n    tag_300:\n        /* \"#utility.yul\":10648:10653   */\n      0x00\n        /* \"#utility.yul\":10697:10700   */\n      dup3\n        /* \"#utility.yul\":10690:10694   */\n      0x1f\n        /* \"#utility.yul\":10682:10688   */\n      dup4\n        /* \"#utility.yul\":10678:10695   */\n      add\n        /* \"#utility.yul\":10674:10701   */\n      slt\n        /* \"#utility.yul\":10664:10786   */\n      tag_451\n      jumpi\n        /* \"#utility.yul\":10705:10784   */\n      tag_452\n      tag_292\n      jump\t// in\n    tag_452:\n        /* \"#utility.yul\":10664:10786   */\n    tag_451:\n        /* \"#utility.yul\":10815:10821   */\n      dup2\n        /* \"#utility.yul\":10809:10822   */\n      mload\n        /* \"#utility.yul\":10840:10945   */\n      tag_453\n        /* \"#utility.yul\":10941:10944   */\n      dup5\n        /* \"#utility.yul\":10933:10939   */\n      dup3\n        /* \"#utility.yul\":10926:10930   */\n      0x20\n        /* \"#utility.yul\":10918:10924   */\n      dup7\n        /* \"#utility.yul\":10914:10931   */\n      add\n        /* \"#utility.yul\":10840:10945   */\n      tag_299\n      jump\t// in\n    tag_453:\n        /* \"#utility.yul\":10831:10945   */\n      swap2\n      pop\n        /* \"#utility.yul\":10654:10951   */\n      pop\n        /* \"#utility.yul\":10566:10951   */\n      swap3\n      swap2\n      pop\n      pop\n      jump\t// out\n        /* \"#utility.yul\":10957:11511   */\n    tag_80:\n        /* \"#utility.yul\":11052:11058   */\n      0x00\n        /* \"#utility.yul\":11101:11103   */\n      0x20\n        /* \"#utility.yul\":11089:11098   */\n      dup3\n        /* \"#utility.yul\":11080:11087   */\n      dup5\n        /* \"#utility.yul\":11076:11099   */\n      sub\n        /* \"#utility.yul\":11072:11104   */\n      slt\n        /* \"#utility.yul\":11069:11188   */\n      iszero\n      tag_455\n      jumpi\n        /* \"#utility.yul\":11107:11186   */\n      tag_456\n      tag_260\n      jump\t// in\n    tag_456:\n        /* \"#utility.yul\":11069:11188   */\n    tag_455:\n        /* \"#utility.yul\":11248:11249   */\n      0x00\n        /* \"#utility.yul\":11237:11246   */\n      dup3\n        /* \"#utility.yul\":11233:11250   */\n      add\n        /* \"#utility.yul\":11227:11251   */\n      mload\n        /* \"#utility.yul\":11278:11296   */\n      0xffffffffffffffff\n        /* \"#utility.yul\":11270:11276   */\n      dup2\n        /* \"#utility.yul\":11267:11297   */\n      gt\n        /* \"#utility.yul\":11264:11381   */\n      iszero\n      tag_457\n      jumpi\n        /* \"#utility.yul\":11300:11379   */\n      tag_458\n      tag_261\n      jump\t// in\n    tag_458:\n        /* \"#utility.yul\":11264:11381   */\n    tag_457:\n        /* \"#utility.yul\":11405:11494   */\n      tag_459\n        /* \"#utility.yul\":11486:11493   */\n      dup5\n        /* \"#utility.yul\":11477:11483   */\n      dup3\n        /* \"#utility.yul\":11466:11475   */\n      dup6\n        /* \"#utility.yul\":11462:11484   */\n      add\n        /* \"#utility.yul\":11405:11494   */\n      tag_300\n      jump\t// in\n    tag_459:\n        /* \"#utility.yul\":11395:11494   */\n      swap2\n      pop\n        /* \"#utility.yul\":11198:11504   */\n      pop\n        /* \"#utility.yul\":10957:11511   */\n      swap3\n      swap2\n      pop\n      pop\n      jump\t// out\n        /* \"#utility.yul\":11517:11627   */\n    tag_301:\n        /* \"#utility.yul\":11568:11575   */\n      0x00\n        /* \"#utility.yul\":11597:11621   */\n      tag_461\n        /* \"#utility.yul\":11615:11620   */\n      dup3\n        /* \"#utility.yul\":11597:11621   */\n      tag_263\n      jump\t// in\n    tag_461:\n        /* \"#utility.yul\":11586:11621   */\n      swap1\n      pop\n        /* \"#utility.yul\":11517:11627   */\n      swap2\n      swap1\n      pop\n      jump\t// out\n        /* \"#utility.yul\":11633:11783   */\n    tag_302:\n        /* \"#utility.yul\":11720:11758   */\n      tag_463\n        /* \"#utility.yul\":11752:11757   */\n      dup2\n        /* \"#utility.yul\":11720:11758   */\n      tag_301\n      jump\t// in\n    tag_463:\n        /* \"#utility.yul\":11713:11718   */\n      dup2\n        /* \"#utility.yul\":11710:11759   */\n      eq\n        /* \"#utility.yul\":11700:11777   */\n      tag_464\n      jumpi\n        /* \"#utility.yul\":11773:11774   */\n      0x00\n        /* \"#utility.yul\":11770:11771   */\n      dup1\n        /* \"#utility.yul\":11763:11775   */\n      revert\n        /* \"#utility.yul\":11700:11777   */\n    tag_464:\n        /* \"#utility.yul\":11633:11783   */\n      pop\n      jump\t// out\n        /* \"#utility.yul\":11789:11960   */\n    tag_303:\n        /* \"#utility.yul\":11860:11865   */\n      0x00\n        /* \"#utility.yul\":11891:11897   */\n      dup2\n        /* \"#utility.yul\":11885:11898   */\n      mload\n        /* \"#utility.yul\":11876:11898   */\n      swap1\n      pop\n        /* \"#utility.yul\":11907:11954   */\n      tag_466\n        /* \"#utility.yul\":11948:11953   */\n      dup2\n        /* \"#utility.yul\":11907:11954   */\n      tag_302\n      jump\t// in\n    tag_466:\n        /* \"#utility.yul\":11789:11960   */\n      swap3\n      swap2\n      pop\n      pop\n      jump\t// out\n        /* \"#utility.yul\":11966:12345   */\n    tag_87:\n        /* \"#utility.yul\":12050:12056   */\n      0x00\n        /* \"#utility.yul\":12099:12101   */\n      0x20\n        /* \"#utility.yul\":12087:12096   */\n      dup3\n        /* \"#utility.yul\":12078:12085   */\n      dup5\n        /* \"#utility.yul\":12074:12097   */\n      sub\n        /* \"#utility.yul\":12070:12102   */\n      slt\n        /* \"#utility.yul\":12067:12186   */\n      iszero\n      tag_468\n      jumpi\n        /* \"#utility.yul\":12105:12184   */\n      tag_469\n      tag_260\n      jump\t// in\n    tag_469:\n        /* \"#utility.yul\":12067:12186   */\n    tag_468:\n        /* \"#utility.yul\":12225:12226   */\n      0x00\n        /* \"#utility.yul\":12250:12328   */\n      tag_470\n        /* \"#utility.yul\":12320:12327   */\n      dup5\n        /* \"#utility.yul\":12311:12317   */\n      dup3\n        /* \"#utility.yul\":12300:12309   */\n      dup6\n        /* \"#utility.yul\":12296:12318   */\n      add\n        /* \"#utility.yul\":12250:12328   */\n      tag_303\n      jump\t// in\n    tag_470:\n        /* \"#utility.yul\":12240:12328   */\n      swap2\n      pop\n        /* \"#utility.yul\":12196:12338   */\n      pop\n        /* \"#utility.yul\":11966:12345   */\n      swap3\n      swap2\n      pop\n      pop\n      jump\t// out\n        /* \"#utility.yul\":12351:12702   */\n    tag_101:\n        /* \"#utility.yul\":12421:12427   */\n      0x00\n        /* \"#utility.yul\":12470:12472   */\n      0x20\n        /* \"#utility.yul\":12458:12467   */\n      dup3\n        /* \"#utility.yul\":12449:12456   */\n      dup5\n        /* \"#utility.yul\":12445:12468   */\n      sub\n        /* \"#utility.yul\":12441:12473   */\n      slt\n        /* \"#utility.yul\":12438:12557   */\n      iszero\n      tag_472\n      jumpi\n        /* \"#utility.yul\":12476:12555   */\n      tag_473\n      tag_260\n      jump\t// in\n    tag_473:\n        /* \"#utility.yul\":12438:12557   */\n    tag_472:\n        /* \"#utility.yul\":12596:12597   */\n      0x00\n        /* \"#utility.yul\":12621:12685   */\n      tag_474\n        /* \"#utility.yul\":12677:12684   */\n      dup5\n        /* \"#utility.yul\":12668:12674   */\n      dup3\n        /* \"#utility.yul\":12657:12666   */\n      dup6\n        /* \"#utility.yul\":12653:12675   */\n      add\n        /* \"#utility.yul\":12621:12685   */\n      tag_298\n      jump\t// in\n    tag_474:\n        /* \"#utility.yul\":12611:12685   */\n      swap2\n      pop\n        /* \"#utility.yul\":12567:12695   */\n      pop\n        /* \"#utility.yul\":12351:12702   */\n      swap3\n      swap2\n      pop\n      pop\n      jump\t// out\n        /* \"#utility.yul\":12708:12877   */\n    tag_304:\n        /* \"#utility.yul\":12792:12803   */\n      0x00\n        /* \"#utility.yul\":12826:12832   */\n      dup3\n        /* \"#utility.yul\":12821:12824   */\n      dup3\n        /* \"#utility.yul\":12814:12833   */\n      mstore\n        /* \"#utility.yul\":12866:12870   */\n      0x20\n        /* \"#utility.yul\":12861:12864   */\n      dup3\n        /* \"#utility.yul\":12857:12871   */\n      add\n        /* \"#utility.yul\":12842:12871   */\n      swap1\n      pop\n        /* \"#utility.yul\":12708:12877   */\n      swap3\n      swap2\n      pop\n      pop\n      jump\t// out\n        /* \"#utility.yul\":12883:13065   */\n    tag_305:\n        /* \"#utility.yul\":13023:13057   */\n      0x4f776e61626c653a2063616c6c6572206973206e6f7420746865206f776e6572\n        /* \"#utility.yul\":13019:13020   */\n      0x00\n        /* \"#utility.yul\":13011:13017   */\n      dup3\n        /* \"#utility.yul\":13007:13021   */\n      add\n        /* \"#utility.yul\":13000:13058   */\n      mstore\n        /* \"#utility.yul\":12883:13065   */\n      pop\n      jump\t// out\n        /* \"#utility.yul\":13071:13437   */\n    tag_306:\n        /* \"#utility.yul\":13213:13216   */\n      0x00\n        /* \"#utility.yul\":13234:13301   */\n      tag_478\n        /* \"#utility.yul\":13298:13300   */\n      0x20\n        /* \"#utility.yul\":13293:13296   */\n      dup4\n        /* \"#utility.yul\":13234:13301   */\n      tag_304\n      jump\t// in\n    tag_478:\n        /* \"#utility.yul\":13227:13301   */\n      swap2\n      pop\n        /* \"#utility.yul\":13310:13403   */\n      tag_479\n        /* \"#utility.yul\":13399:13402   */\n      dup3\n        /* \"#utility.yul\":13310:13403   */\n      tag_305\n      jump\t// in\n    tag_479:\n        /* \"#utility.yul\":13428:13430   */\n      0x20\n        /* \"#utility.yul\":13423:13426   */\n      dup3\n        /* \"#utility.yul\":13419:13431   */\n      add\n        /* \"#utility.yul\":13412:13431   */\n      swap1\n      pop\n        /* \"#utility.yul\":13071:13437   */\n      swap2\n      swap1\n      pop\n      jump\t// out\n        /* \"#utility.yul\":13443:13862   */\n    tag_172:\n        /* \"#utility.yul\":13609:13613   */\n      0x00\n        /* \"#utility.yul\":13647:13649   */\n      0x20\n        /* \"#utility.yul\":13636:13645   */\n      dup3\n        /* \"#utility.yul\":13632:13650   */\n      add\n        /* \"#utility.yul\":13624:13650   */\n      swap1\n      pop\n        /* \"#utility.yul\":13696:13705   */\n      dup2\n        /* \"#utility.yul\":13690:13694   */\n      dup2\n        /* \"#utility.yul\":13686:13706   */\n      sub\n        /* \"#utility.yul\":13682:13683   */\n      0x00\n        /* \"#utility.yul\":13671:13680   */\n      dup4\n        /* \"#utility.yul\":13667:13684   */\n      add\n        /* \"#utility.yul\":13660:13707   */\n      mstore\n        /* \"#utility.yul\":13724:13855   */\n      tag_481\n        /* \"#utility.yul\":13850:13854   */\n      dup2\n        /* \"#utility.yul\":13724:13855   */\n      tag_306\n      jump\t// in\n    tag_481:\n        /* \"#utility.yul\":13716:13855   */\n      swap1\n      pop\n        /* \"#utility.yul\":13443:13862   */\n      swap2\n      swap1\n      pop\n      jump\t// out\n        /* \"#utility.yul\":13868:14048   */\n    tag_307:\n        /* \"#utility.yul\":13916:13993   */\n      0x4e487b7100000000000000000000000000000000000000000000000000000000\n        /* \"#utility.yul\":13913:13914   */\n      0x00\n        /* \"#utility.yul\":13906:13994   */\n      mstore\n        /* \"#utility.yul\":14013:14017   */\n      0x11\n        /* \"#utility.yul\":14010:14011   */\n      0x04\n        /* \"#utility.yul\":14003:14018   */\n      mstore\n        /* \"#utility.yul\":14037:14041   */\n      0x24\n        /* \"#utility.yul\":14034:14035   */\n      0x00\n        /* \"#utility.yul\":14027:14042   */\n      revert\n        /* \"#utility.yul\":14054:14402   */\n    tag_198:\n        /* \"#utility.yul\":14094:14101   */\n      0x00\n        /* \"#utility.yul\":14117:14137   */\n      tag_484\n        /* \"#utility.yul\":14135:14136   */\n      dup3\n        /* \"#utility.yul\":14117:14137   */\n      tag_266\n      jump\t// in\n    tag_484:\n        /* \"#utility.yul\":14112:14137   */\n      swap2\n      pop\n        /* \"#utility.yul\":14151:14171   */\n      tag_485\n        /* \"#utility.yul\":14169:14170   */\n      dup4\n        /* \"#utility.yul\":14151:14171   */\n      tag_266\n      jump\t// in\n    tag_485:\n        /* \"#utility.yul\":14146:14171   */\n      swap3\n      pop\n        /* \"#utility.yul\":14339:14340   */\n      dup2\n        /* \"#utility.yul\":14271:14337   */\n      0xffffffffffffffffffffffffffffffffffffffffffffffffffffffffffffffff\n        /* \"#utility.yul\":14267:14341   */\n      div\n        /* \"#utility.yul\":14264:14265   */\n      dup4\n        /* \"#utility.yul\":14261:14342   */\n      gt\n        /* \"#utility.yul\":14256:14257   */\n      dup3\n        /* \"#utility.yul\":14249:14258   */\n      iszero\n        /* \"#utility.yul\":14242:14259   */\n      iszero\n        /* \"#utility.yul\":14238:14343   */\n      and\n        /* \"#utility.yul\":14235:14366   */\n      iszero\n      tag_486\n      jumpi\n        /* \"#utility.yul\":14346:14364   */\n      tag_487\n      tag_307\n      jump\t// in\n    tag_487:\n        /* \"#utility.yul\":14235:14366   */\n    tag_486:\n        /* \"#utility.yul\":14394:14395   */\n      dup3\n        /* \"#utility.yul\":14391:14392   */\n      dup3\n        /* \"#utility.yul\":14387:14396   */\n      mul\n        /* \"#utility.yul\":14376:14396   */\n      swap1\n      pop\n        /* \"#utility.yul\":14054:14402   */\n      swap3\n      swap2\n      pop\n      pop\n      jump\t// out\n        /* \"#utility.yul\":14408:14525   */\n    tag_308:\n        /* \"#utility.yul\":14517:14518   */\n      0x00\n        /* \"#utility.yul\":14514:14515   */\n      dup1\n        /* \"#utility.yul\":14507:14519   */\n      revert\n        /* \"#utility.yul\":14654:14769   */\n    tag_310:\n        /* \"#utility.yul\":14710:14717   */\n      0x00\n        /* \"#utility.yul\":14739:14763   */\n      tag_491\n        /* \"#utility.yul\":14757:14762   */\n      dup3\n        /* \"#utility.yul\":14739:14763   */\n      tag_263\n      jump\t// in\n    tag_491:\n        /* \"#utility.yul\":14728:14763   */\n      swap1\n      pop\n        /* \"#utility.yul\":14654:14769   */\n      swap2\n      swap1\n      pop\n      jump\t// out\n        /* \"#utility.yul\":14775:14935   */\n    tag_311:\n        /* \"#utility.yul\":14867:14910   */\n      tag_493\n        /* \"#utility.yul\":14904:14909   */\n      dup2\n        /* \"#utility.yul\":14867:14910   */\n      tag_310\n      jump\t// in\n    tag_493:\n        /* \"#utility.yul\":14860:14865   */\n      dup2\n        /* \"#utility.yul\":14857:14911   */\n      eq\n        /* \"#utility.yul\":14847:14929   */\n      tag_494\n      jumpi\n        /* \"#utility.yul\":14925:14926   */\n      0x00\n        /* \"#utility.yul\":14922:14923   */\n      dup1\n        /* \"#utility.yul\":14915:14927   */\n      revert\n        /* \"#utility.yul\":14847:14929   */\n    tag_494:\n        /* \"#utility.yul\":14775:14935   */\n      pop\n      jump\t// out\n        /* \"#utility.yul\":14941:15122   */\n    tag_312:\n        /* \"#utility.yul\":15017:15022   */\n      0x00\n        /* \"#utility.yul\":15048:15054   */\n      dup2\n        /* \"#utility.yul\":15042:15055   */\n      mload\n        /* \"#utility.yul\":15033:15055   */\n      swap1\n      pop\n        /* \"#utility.yul\":15064:15116   */\n      tag_496\n        /* \"#utility.yul\":15110:15115   */\n      dup2\n        /* \"#utility.yul\":15064:15116   */\n      tag_311\n      jump\t// in\n    tag_496:\n        /* \"#utility.yul\":14941:15122   */\n      swap3\n      swap2\n      pop\n      pop\n      jump\t// out\n        /* \"#utility.yul\":15151:16542   */\n    tag_313:\n        /* \"#utility.yul\":15236:15241   */\n      0x00\n        /* \"#utility.yul\":15280:15284   */\n      0xc0\n        /* \"#utility.yul\":15268:15277   */\n      dup3\n        /* \"#utility.yul\":15263:15266   */\n      dup5\n        /* \"#utility.yul\":15259:15278   */\n      sub\n        /* \"#utility.yul\":15255:15285   */\n      slt\n        /* \"#utility.yul\":15252:15369   */\n      iszero\n      tag_498\n      jumpi\n        /* \"#utility.yul\":15288:15367   */\n      tag_499\n      tag_308\n      jump\t// in\n    tag_499:\n        /* \"#utility.yul\":15252:15369   */\n    tag_498:\n        /* \"#utility.yul\":15387:15408   */\n      tag_500\n        /* \"#utility.yul\":15403:15407   */\n      0xc0\n        /* \"#utility.yul\":15387:15408   */\n      tag_295\n      jump\t// in\n    tag_500:\n        /* \"#utility.yul\":15378:15408   */\n      swap1\n      pop\n        /* \"#utility.yul\":15470:15471   */\n      0x00\n        /* \"#utility.yul\":15510:15584   */\n      tag_501\n        /* \"#utility.yul\":15580:15583   */\n      dup5\n        /* \"#utility.yul\":15571:15577   */\n      dup3\n        /* \"#utility.yul\":15560:15569   */\n      dup6\n        /* \"#utility.yul\":15556:15578   */\n      add\n        /* \"#utility.yul\":15510:15584   */\n      tag_303\n      jump\t// in\n    tag_501:\n        /* \"#utility.yul\":15503:15507   */\n      0x00\n        /* \"#utility.yul\":15496:15501   */\n      dup4\n        /* \"#utility.yul\":15492:15508   */\n      add\n        /* \"#utility.yul\":15485:15585   */\n      mstore\n        /* \"#utility.yul\":15418:15596   */\n      pop\n        /* \"#utility.yul\":15661:15663   */\n      0x20\n        /* \"#utility.yul\":15702:15762   */\n      tag_502\n        /* \"#utility.yul\":15758:15761   */\n      dup5\n        /* \"#utility.yul\":15749:15755   */\n      dup3\n        /* \"#utility.yul\":15738:15747   */\n      dup6\n        /* \"#utility.yul\":15734:15756   */\n      add\n        /* \"#utility.yul\":15702:15762   */\n      tag_298\n      jump\t// in\n    tag_502:\n        /* \"#utility.yul\":15695:15699   */\n      0x20\n        /* \"#utility.yul\":15688:15693   */\n      dup4\n        /* \"#utility.yul\":15684:15700   */\n      add\n        /* \"#utility.yul\":15677:15763   */\n      mstore\n        /* \"#utility.yul\":15606:15774   */\n      pop\n        /* \"#utility.yul\":15844:15846   */\n      0x40\n        /* \"#utility.yul\":15885:15945   */\n      tag_503\n        /* \"#utility.yul\":15941:15944   */\n      dup5\n        /* \"#utility.yul\":15932:15938   */\n      dup3\n        /* \"#utility.yul\":15921:15930   */\n      dup6\n        /* \"#utility.yul\":15917:15939   */\n      add\n        /* \"#utility.yul\":15885:15945   */\n      tag_298\n      jump\t// in\n    tag_503:\n        /* \"#utility.yul\":15878:15882   */\n      0x40\n        /* \"#utility.yul\":15871:15876   */\n      dup4\n        /* \"#utility.yul\":15867:15883   */\n      add\n        /* \"#utility.yul\":15860:15946   */\n      mstore\n        /* \"#utility.yul\":15784:15957   */\n      pop\n        /* \"#utility.yul\":16026:16028   */\n      0x60\n        /* \"#utility.yul\":16067:16127   */\n      tag_504\n        /* \"#utility.yul\":16123:16126   */\n      dup5\n        /* \"#utility.yul\":16114:16120   */\n      dup3\n        /* \"#utility.yul\":16103:16112   */\n      dup6\n        /* \"#utility.yul\":16099:16121   */\n      add\n        /* \"#utility.yul\":16067:16127   */\n      tag_298\n      jump\t// in\n    tag_504:\n        /* \"#utility.yul\":16060:16064   */\n      0x60\n        /* \"#utility.yul\":16053:16058   */\n      dup4\n        /* \"#utility.yul\":16049:16065   */\n      add\n        /* \"#utility.yul\":16042:16128   */\n      mstore\n        /* \"#utility.yul\":15967:16139   */\n      pop\n        /* \"#utility.yul\":16208:16211   */\n      0x80\n        /* \"#utility.yul\":16250:16329   */\n      tag_505\n        /* \"#utility.yul\":16325:16328   */\n      dup5\n        /* \"#utility.yul\":16316:16322   */\n      dup3\n        /* \"#utility.yul\":16305:16314   */\n      dup6\n        /* \"#utility.yul\":16301:16323   */\n      add\n        /* \"#utility.yul\":16250:16329   */\n      tag_312\n      jump\t// in\n    tag_505:\n        /* \"#utility.yul\":16243:16247   */\n      0x80\n        /* \"#utility.yul\":16236:16241   */\n      dup4\n        /* \"#utility.yul\":16232:16248   */\n      add\n        /* \"#utility.yul\":16225:16330   */\n      mstore\n        /* \"#utility.yul\":16149:16341   */\n      pop\n        /* \"#utility.yul\":16407:16410   */\n      0xa0\n        /* \"#utility.yul\":16449:16523   */\n      tag_506\n        /* \"#utility.yul\":16519:16522   */\n      dup5\n        /* \"#utility.yul\":16510:16516   */\n      dup3\n        /* \"#utility.yul\":16499:16508   */\n      dup6\n        /* \"#utility.yul\":16495:16517   */\n      add\n        /* \"#utility.yul\":16449:16523   */\n      tag_303\n      jump\t// in\n    tag_506:\n        /* \"#utility.yul\":16442:16446   */\n      0xa0\n        /* \"#utility.yul\":16435:16440   */\n      dup4\n        /* \"#utility.yul\":16431:16447   */\n      add\n        /* \"#utility.yul\":16424:16524   */\n      mstore\n        /* \"#utility.yul\":16351:16535   */\n      pop\n        /* \"#utility.yul\":15151:16542   */\n      swap3\n      swap2\n      pop\n      pop\n      jump\t// out\n        /* \"#utility.yul\":16548:16950   */\n    tag_204:\n        /* \"#utility.yul\":16643:16649   */\n      0x00\n        /* \"#utility.yul\":16692:16695   */\n      0xc0\n        /* \"#utility.yul\":16680:16689   */\n      dup3\n        /* \"#utility.yul\":16671:16678   */\n      dup5\n        /* \"#utility.yul\":16667:16690   */\n      sub\n        /* \"#utility.yul\":16663:16696   */\n      slt\n        /* \"#utility.yul\":16660:16780   */\n      iszero\n      tag_508\n      jumpi\n        /* \"#utility.yul\":16699:16778   */\n      tag_509\n      tag_260\n      jump\t// in\n    tag_509:\n        /* \"#utility.yul\":16660:16780   */\n    tag_508:\n        /* \"#utility.yul\":16819:16820   */\n      0x00\n        /* \"#utility.yul\":16844:16933   */\n      tag_510\n        /* \"#utility.yul\":16925:16932   */\n      dup5\n        /* \"#utility.yul\":16916:16922   */\n      dup3\n        /* \"#utility.yul\":16905:16914   */\n      dup6\n        /* \"#utility.yul\":16901:16923   */\n      add\n        /* \"#utility.yul\":16844:16933   */\n      tag_313\n      jump\t// in\n    tag_510:\n        /* \"#utility.yul\":16834:16933   */\n      swap2\n      pop\n        /* \"#utility.yul\":16790:16943   */\n      pop\n        /* \"#utility.yul\":16548:16950   */\n      swap3\n      swap2\n      pop\n      pop\n      jump\t// out\n        /* \"#utility.yul\":16956:17099   */\n    tag_314:\n        /* \"#utility.yul\":17013:17018   */\n      0x00\n        /* \"#utility.yul\":17044:17050   */\n      dup2\n        /* \"#utility.yul\":17038:17051   */\n      mload\n        /* \"#utility.yul\":17029:17051   */\n      swap1\n      pop\n        /* \"#utility.yul\":17060:17093   */\n      tag_512\n        /* \"#utility.yul\":17087:17092   */\n      dup2\n        /* \"#utility.yul\":17060:17093   */\n      tag_264\n      jump\t// in\n    tag_512:\n        /* \"#utility.yul\":16956:17099   */\n      swap3\n      swap2\n      pop\n      pop\n      jump\t// out\n        /* \"#utility.yul\":17105:17456   */\n    tag_214:\n        /* \"#utility.yul\":17175:17181   */\n      0x00\n        /* \"#utility.yul\":17224:17226   */\n      0x20\n        /* \"#utility.yul\":17212:17221   */\n      dup3\n        /* \"#utility.yul\":17203:17210   */\n      dup5\n        /* \"#utility.yul\":17199:17222   */\n      sub\n        /* \"#utility.yul\":17195:17227   */\n      slt\n        /* \"#utility.yul\":17192:17311   */\n      iszero\n      tag_514\n      jumpi\n        /* \"#utility.yul\":17230:17309   */\n      tag_515\n      tag_260\n      jump\t// in\n    tag_515:\n        /* \"#utility.yul\":17192:17311   */\n    tag_514:\n        /* \"#utility.yul\":17350:17351   */\n      0x00\n        /* \"#utility.yul\":17375:17439   */\n      tag_516\n        /* \"#utility.yul\":17431:17438   */\n      dup5\n        /* \"#utility.yul\":17422:17428   */\n      dup3\n        /* \"#utility.yul\":17411:17420   */\n      dup6\n        /* \"#utility.yul\":17407:17429   */\n      add\n        /* \"#utility.yul\":17375:17439   */\n      tag_314\n      jump\t// in\n    tag_516:\n        /* \"#utility.yul\":17365:17439   */\n      swap2\n      pop\n        /* \"#utility.yul\":17321:17449   */\n      pop\n        /* \"#utility.yul\":17105:17456   */\n      swap3\n      swap2\n      pop\n      pop\n      jump\t// out\n        /* \"#utility.yul\":17462:17687   */\n    tag_315:\n        /* \"#utility.yul\":17602:17636   */\n      0x4f776e61626c653a206e6577206f776e657220697320746865207a65726f2061\n        /* \"#utility.yul\":17598:17599   */\n      0x00\n        /* \"#utility.yul\":17590:17596   */\n      dup3\n        /* \"#utility.yul\":17586:17600   */\n      add\n        /* \"#utility.yul\":17579:17637   */\n      mstore\n        /* \"#utility.yul\":17671:17679   */\n      0x6464726573730000000000000000000000000000000000000000000000000000\n        /* \"#utility.yul\":17666:17668   */\n      0x20\n        /* \"#utility.yul\":17658:17664   */\n      dup3\n        /* \"#utility.yul\":17654:17669   */\n      add\n        /* \"#utility.yul\":17647:17680   */\n      mstore\n        /* \"#utility.yul\":17462:17687   */\n      pop\n      jump\t// out\n        /* \"#utility.yul\":17693:18059   */\n    tag_316:\n        /* \"#utility.yul\":17835:17838   */\n      0x00\n        /* \"#utility.yul\":17856:17923   */\n      tag_519\n        /* \"#utility.yul\":17920:17922   */\n      0x26\n        /* \"#utility.yul\":17915:17918   */\n      dup4\n        /* \"#utility.yul\":17856:17923   */\n      tag_304\n      jump\t// in\n    tag_519:\n        /* \"#utility.yul\":17849:17923   */\n      swap2\n      pop\n        /* \"#utility.yul\":17932:18025   */\n      tag_520\n        /* \"#utility.yul\":18021:18024   */\n      dup3\n        /* \"#utility.yul\":17932:18025   */\n      tag_315\n      jump\t// in\n    tag_520:\n        /* \"#utility.yul\":18050:18052   */\n      0x40\n        /* \"#utility.yul\":18045:18048   */\n      dup3\n        /* \"#utility.yul\":18041:18053   */\n      add\n        /* \"#utility.yul\":18034:18053   */\n      swap1\n      pop\n        /* \"#utility.yul\":17693:18059   */\n      swap2\n      swap1\n      pop\n      jump\t// out\n        /* \"#utility.yul\":18065:18484   */\n    tag_233:\n        /* \"#utility.yul\":18231:18235   */\n      0x00\n        /* \"#utility.yul\":18269:18271   */\n      0x20\n        /* \"#utility.yul\":18258:18267   */\n      dup3\n        /* \"#utility.yul\":18254:18272   */\n      add\n        /* \"#utility.yul\":18246:18272   */\n      swap1\n      pop\n        /* \"#utility.yul\":18318:18327   */\n      dup2\n        /* \"#utility.yul\":18312:18316   */\n      dup2\n        /* \"#utility.yul\":18308:18328   */\n      sub\n        /* \"#utility.yul\":18304:18305   */\n      0x00\n        /* \"#utility.yul\":18293:18302   */\n      dup4\n        /* \"#utility.yul\":18289:18306   */\n      add\n        /* \"#utility.yul\":18282:18329   */\n      mstore\n        /* \"#utility.yul\":18346:18477   */\n      tag_522\n        /* \"#utility.yul\":18472:18476   */\n      dup2\n        /* \"#utility.yul\":18346:18477   */\n      tag_316\n      jump\t// in\n    tag_522:\n        /* \"#utility.yul\":18338:18477   */\n      swap1\n      pop\n        /* \"#utility.yul\":18065:18484   */\n      swap2\n      swap1\n      pop\n      jump\t// out\n        /* \"#utility.yul\":18490:18670   */\n    tag_317:\n        /* \"#utility.yul\":18538:18615   */\n      0x4e487b7100000000000000000000000000000000000000000000000000000000\n        /* \"#utility.yul\":18535:18536   */\n      0x00\n        /* \"#utility.yul\":18528:18616   */\n      mstore\n        /* \"#utility.yul\":18635:18639   */\n      0x12\n        /* \"#utility.yul\":18632:18633   */\n      0x04\n        /* \"#utility.yul\":18625:18640   */\n      mstore\n        /* \"#utility.yul\":18659:18663   */\n      0x24\n        /* \"#utility.yul\":18656:18657   */\n      0x00\n        /* \"#utility.yul\":18649:18664   */\n      revert\n        /* \"#utility.yul\":18676:18861   */\n    tag_239:\n        /* \"#utility.yul\":18716:18717   */\n      0x00\n        /* \"#utility.yul\":18733:18753   */\n      tag_525\n        /* \"#utility.yul\":18751:18752   */\n      dup3\n        /* \"#utility.yul\":18733:18753   */\n      tag_266\n      jump\t// in\n    tag_525:\n        /* \"#utility.yul\":18728:18753   */\n      swap2\n      pop\n        /* \"#utility.yul\":18767:18787   */\n      tag_526\n        /* \"#utility.yul\":18785:18786   */\n      dup4\n        /* \"#utility.yul\":18767:18787   */\n      tag_266\n      jump\t// in\n    tag_526:\n        /* \"#utility.yul\":18762:18787   */\n      swap3\n      pop\n        /* \"#utility.yul\":18806:18807   */\n      dup3\n        /* \"#utility.yul\":18796:18831   */\n      tag_527\n      jumpi\n        /* \"#utility.yul\":18811:18829   */\n      tag_528\n      tag_317\n      jump\t// in\n    tag_528:\n        /* \"#utility.yul\":18796:18831   */\n    tag_527:\n        /* \"#utility.yul\":18853:18854   */\n      dup3\n        /* \"#utility.yul\":18850:18851   */\n      dup3\n        /* \"#utility.yul\":18846:18855   */\n      div\n        /* \"#utility.yul\":18841:18855   */\n      swap1\n      pop\n        /* \"#utility.yul\":18676:18861   */\n      swap3\n      swap2\n      pop\n      pop\n      jump\t// out\n        /* \"#utility.yul\":18867:19087   */\n    tag_318:\n        /* \"#utility.yul\":19007:19041   */\n      0x536166654d6174683a206d756c7469706c69636174696f6e206f766572666c6f\n        /* \"#utility.yul\":19003:19004   */\n      0x00\n        /* \"#utility.yul\":18995:19001   */\n      dup3\n        /* \"#utility.yul\":18991:19005   */\n      add\n        /* \"#utility.yul\":18984:19042   */\n      mstore\n        /* \"#utility.yul\":19076:19079   */\n      0x7700000000000000000000000000000000000000000000000000000000000000\n        /* \"#utility.yul\":19071:19073   */\n      0x20\n        /* \"#utility.yul\":19063:19069   */\n      dup3\n        /* \"#utility.yul\":19059:19074   */\n      add\n        /* \"#utility.yul\":19052:19080   */\n      mstore\n        /* \"#utility.yul\":18867:19087   */\n      pop\n      jump\t// out\n        /* \"#utility.yul\":19093:19459   */\n    tag_319:\n        /* \"#utility.yul\":19235:19238   */\n      0x00\n        /* \"#utility.yul\":19256:19323   */\n      tag_531\n        /* \"#utility.yul\":19320:19322   */\n      0x21\n        /* \"#utility.yul\":19315:19318   */\n      dup4\n        /* \"#utility.yul\":19256:19323   */\n      tag_304\n      jump\t// in\n    tag_531:\n        /* \"#utility.yul\":19249:19323   */\n      swap2\n      pop\n        /* \"#utility.yul\":19332:19425   */\n      tag_532\n        /* \"#utility.yul\":19421:19424   */\n      dup3\n        /* \"#utility.yul\":19332:19425   */\n      tag_318\n      jump\t// in\n    tag_532:\n        /* \"#utility.yul\":19450:19452   */\n      0x40\n        /* \"#utility.yul\":19445:19448   */\n      dup3\n        /* \"#utility.yul\":19441:19453   */\n      add\n        /* \"#utility.yul\":19434:19453   */\n      swap1\n      pop\n        /* \"#utility.yul\":19093:19459   */\n      swap2\n      swap1\n      pop\n      jump\t// out\n        /* \"#utility.yul\":19465:19884   */\n    tag_242:\n        /* \"#utility.yul\":19631:19635   */\n      0x00\n        /* \"#utility.yul\":19669:19671   */\n      0x20\n        /* \"#utility.yul\":19658:19667   */\n      dup3\n        /* \"#utility.yul\":19654:19672   */\n      add\n        /* \"#utility.yul\":19646:19672   */\n      swap1\n      pop\n        /* \"#utility.yul\":19718:19727   */\n      dup2\n        /* \"#utility.yul\":19712:19716   */\n      dup2\n        /* \"#utility.yul\":19708:19728   */\n      sub\n        /* \"#utility.yul\":19704:19705   */\n      0x00\n        /* \"#utility.yul\":19693:19702   */\n      dup4\n        /* \"#utility.yul\":19689:19706   */\n      add\n        /* \"#utility.yul\":19682:19729   */\n      mstore\n        /* \"#utility.yul\":19746:19877   */\n      tag_534\n        /* \"#utility.yul\":19872:19876   */\n      dup2\n        /* \"#utility.yul\":19746:19877   */\n      tag_319\n      jump\t// in\n    tag_534:\n        /* \"#utility.yul\":19738:19877   */\n      swap1\n      pop\n        /* \"#utility.yul\":19465:19884   */\n      swap2\n      swap1\n      pop\n      jump\t// out\n        /* \"#utility.yul\":19890:20195   */\n    tag_245:\n        /* \"#utility.yul\":19930:19933   */\n      0x00\n        /* \"#utility.yul\":19949:19969   */\n      tag_536\n        /* \"#utility.yul\":19967:19968   */\n      dup3\n        /* \"#utility.yul\":19949:19969   */\n      tag_266\n      jump\t// in\n    tag_536:\n        /* \"#utility.yul\":19944:19969   */\n      swap2\n      pop\n        /* \"#utility.yul\":19983:20003   */\n      tag_537\n        /* \"#utility.yul\":20001:20002   */\n      dup4\n        /* \"#utility.yul\":19983:20003   */\n      tag_266\n      jump\t// in\n    tag_537:\n        /* \"#utility.yul\":19978:20003   */\n      swap3\n      pop\n        /* \"#utility.yul\":20137:20138   */\n      dup3\n        /* \"#utility.yul\":20069:20135   */\n      0xffffffffffffffffffffffffffffffffffffffffffffffffffffffffffffffff\n        /* \"#utility.yul\":20065:20139   */\n      sub\n        /* \"#utility.yul\":20062:20063   */\n      dup3\n        /* \"#utility.yul\":20059:20140   */\n      gt\n        /* \"#utility.yul\":20056:20163   */\n      iszero\n      tag_538\n      jumpi\n        /* \"#utility.yul\":20143:20161   */\n      tag_539\n      tag_307\n      jump\t// in\n    tag_539:\n        /* \"#utility.yul\":20056:20163   */\n    tag_538:\n        /* \"#utility.yul\":20187:20188   */\n      dup3\n        /* \"#utility.yul\":20184:20185   */\n      dup3\n        /* \"#utility.yul\":20180:20189   */\n      add\n        /* \"#utility.yul\":20173:20189   */\n      swap1\n      pop\n        /* \"#utility.yul\":19890:20195   */\n      swap3\n      swap2\n      pop\n      pop\n      jump\t// out\n        /* \"#utility.yul\":20201:20378   */\n    tag_320:\n        /* \"#utility.yul\":20341:20370   */\n      0x536166654d6174683a206164646974696f6e206f766572666c6f770000000000\n        /* \"#utility.yul\":20337:20338   */\n      0x00\n        /* \"#utility.yul\":20329:20335   */\n      dup3\n        /* \"#utility.yul\":20325:20339   */\n      add\n        /* \"#utility.yul\":20318:20371   */\n      mstore\n        /* \"#utility.yul\":20201:20378   */\n      pop\n      jump\t// out\n        /* \"#utility.yul\":20384:20750   */\n    tag_321:\n        /* \"#utility.yul\":20526:20529   */\n      0x00\n        /* \"#utility.yul\":20547:20614   */\n      tag_542\n        /* \"#utility.yul\":20611:20613   */\n      0x1b\n        /* \"#utility.yul\":20606:20609   */\n      dup4\n        /* \"#utility.yul\":20547:20614   */\n      tag_304\n      jump\t// in\n    tag_542:\n        /* \"#utility.yul\":20540:20614   */\n      swap2\n      pop\n        /* \"#utility.yul\":20623:20716   */\n      tag_543\n        /* \"#utility.yul\":20712:20715   */\n      dup3\n        /* \"#utility.yul\":20623:20716   */\n      tag_320\n      jump\t// in\n    tag_543:\n        /* \"#utility.yul\":20741:20743   */\n      0x20\n        /* \"#utility.yul\":20736:20739   */\n      dup3\n        /* \"#utility.yul\":20732:20744   */\n      add\n        /* \"#utility.yul\":20725:20744   */\n      swap1\n      pop\n        /* \"#utility.yul\":20384:20750   */\n      swap2\n      swap1\n      pop\n      jump\t// out\n        /* \"#utility.yul\":20756:21175   */\n    tag_248:\n        /* \"#utility.yul\":20922:20926   */\n      0x00\n        /* \"#utility.yul\":20960:20962   */\n      0x20\n        /* \"#utility.yul\":20949:20958   */\n      dup3\n        /* \"#utility.yul\":20945:20963   */\n      add\n        /* \"#utility.yul\":20937:20963   */\n      swap1\n      pop\n        /* \"#utility.yul\":21009:21018   */\n      dup2\n        /* \"#utility.yul\":21003:21007   */\n      dup2\n        /* \"#utility.yul\":20999:21019   */\n      sub\n        /* \"#utility.yul\":20995:20996   */\n      0x00\n        /* \"#utility.yul\":20984:20993   */\n      dup4\n        /* \"#utility.yul\":20980:20997   */\n      add\n        /* \"#utility.yul\":20973:21020   */\n      mstore\n        /* \"#utility.yul\":21037:21168   */\n      tag_545\n        /* \"#utility.yul\":21163:21167   */\n      dup2\n        /* \"#utility.yul\":21037:21168   */\n      tag_321\n      jump\t// in\n    tag_545:\n        /* \"#utility.yul\":21029:21168   */\n      swap1\n      pop\n        /* \"#utility.yul\":20756:21175   */\n      swap2\n      swap1\n      pop\n      jump\t// out\n        /* \"#utility.yul\":21181:21280   */\n    tag_322:\n        /* \"#utility.yul\":21233:21239   */\n      0x00\n        /* \"#utility.yul\":21267:21272   */\n      dup2\n        /* \"#utility.yul\":21261:21273   */\n      mload\n        /* \"#utility.yul\":21251:21273   */\n      swap1\n      pop\n        /* \"#utility.yul\":21181:21280   */\n      swap2\n      swap1\n      pop\n      jump\t// out\n        /* \"#utility.yul\":21286:21593   */\n    tag_323:\n        /* \"#utility.yul\":21354:21355   */\n      0x00\n        /* \"#utility.yul\":21364:21477   */\n    tag_548:\n        /* \"#utility.yul\":21378:21384   */\n      dup4\n        /* \"#utility.yul\":21375:21376   */\n      dup2\n        /* \"#utility.yul\":21372:21385   */\n      lt\n        /* \"#utility.yul\":21364:21477   */\n      iszero\n      tag_550\n      jumpi\n        /* \"#utility.yul\":21463:21464   */\n      dup1\n        /* \"#utility.yul\":21458:21461   */\n      dup3\n        /* \"#utility.yul\":21454:21465   */\n      add\n        /* \"#utility.yul\":21448:21466   */\n      mload\n        /* \"#utility.yul\":21444:21445   */\n      dup2\n        /* \"#utility.yul\":21439:21442   */\n      dup5\n        /* \"#utility.yul\":21435:21446   */\n      add\n        /* \"#utility.yul\":21428:21467   */\n      mstore\n        /* \"#utility.yul\":21400:21402   */\n      0x20\n        /* \"#utility.yul\":21397:21398   */\n      dup2\n        /* \"#utility.yul\":21393:21403   */\n      add\n        /* \"#utility.yul\":21388:21403   */\n      swap1\n      pop\n        /* \"#utility.yul\":21364:21477   */\n      jump(tag_548)\n    tag_550:\n        /* \"#utility.yul\":21495:21501   */\n      dup4\n        /* \"#utility.yul\":21492:21493   */\n      dup2\n        /* \"#utility.yul\":21489:21502   */\n      gt\n        /* \"#utility.yul\":21486:21587   */\n      iszero\n      tag_551\n      jumpi\n        /* \"#utility.yul\":21575:21576   */\n      0x00\n        /* \"#utility.yul\":21566:21572   */\n      dup5\n        /* \"#utility.yul\":21561:21564   */\n      dup5\n        /* \"#utility.yul\":21557:21573   */\n      add\n        /* \"#utility.yul\":21550:21577   */\n      mstore\n        /* \"#utility.yul\":21486:21587   */\n    tag_551:\n        /* \"#utility.yul\":21335:21593   */\n      pop\n        /* \"#utility.yul\":21286:21593   */\n      pop\n      pop\n      pop\n      jump\t// out\n        /* \"#utility.yul\":21599:21963   */\n    tag_324:\n        /* \"#utility.yul\":21687:21690   */\n      0x00\n        /* \"#utility.yul\":21715:21754   */\n      tag_553\n        /* \"#utility.yul\":21748:21753   */\n      dup3\n        /* \"#utility.yul\":21715:21754   */\n      tag_322\n      jump\t// in\n    tag_553:\n        /* \"#utility.yul\":21770:21841   */\n      tag_554\n        /* \"#utility.yul\":21834:21840   */\n      dup2\n        /* \"#utility.yul\":21829:21832   */\n      dup6\n        /* \"#utility.yul\":21770:21841   */\n      tag_304\n      jump\t// in\n    tag_554:\n        /* \"#utility.yul\":21763:21841   */\n      swap4\n      pop\n        /* \"#utility.yul\":21850:21902   */\n      tag_555\n        /* \"#utility.yul\":21895:21901   */\n      dup2\n        /* \"#utility.yul\":21890:21893   */\n      dup6\n        /* \"#utility.yul\":21883:21887   */\n      0x20\n        /* \"#utility.yul\":21876:21881   */\n      dup7\n        /* \"#utility.yul\":21872:21888   */\n      add\n        /* \"#utility.yul\":21850:21902   */\n      tag_323\n      jump\t// in\n    tag_555:\n        /* \"#utility.yul\":21927:21956   */\n      tag_556\n        /* \"#utility.yul\":21949:21955   */\n      dup2\n        /* \"#utility.yul\":21927:21956   */\n      tag_293\n      jump\t// in\n    tag_556:\n        /* \"#utility.yul\":21922:21925   */\n      dup5\n        /* \"#utility.yul\":21918:21957   */\n      add\n        /* \"#utility.yul\":21911:21957   */\n      swap2\n      pop\n        /* \"#utility.yul\":21691:21963   */\n      pop\n        /* \"#utility.yul\":21599:21963   */\n      swap3\n      swap2\n      pop\n      pop\n      jump\t// out\n        /* \"#utility.yul\":21969:22282   */\n    tag_257:\n        /* \"#utility.yul\":22082:22086   */\n      0x00\n        /* \"#utility.yul\":22120:22122   */\n      0x20\n        /* \"#utility.yul\":22109:22118   */\n      dup3\n        /* \"#utility.yul\":22105:22123   */\n      add\n        /* \"#utility.yul\":22097:22123   */\n      swap1\n      pop\n        /* \"#utility.yul\":22169:22178   */\n      dup2\n        /* \"#utility.yul\":22163:22167   */\n      dup2\n        /* \"#utility.yul\":22159:22179   */\n      sub\n        /* \"#utility.yul\":22155:22156   */\n      0x00\n        /* \"#utility.yul\":22144:22153   */\n      dup4\n        /* \"#utility.yul\":22140:22157   */\n      add\n        /* \"#utility.yul\":22133:22180   */\n      mstore\n        /* \"#utility.yul\":22197:22275   */\n      tag_558\n        /* \"#utility.yul\":22270:22274   */\n      dup2\n        /* \"#utility.yul\":22261:22267   */\n      dup5\n        /* \"#utility.yul\":22197:22275   */\n      tag_324\n      jump\t// in\n    tag_558:\n        /* \"#utility.yul\":22189:22275   */\n      swap1\n      pop\n        /* \"#utility.yul\":21969:22282   */\n      swap3\n      swap2\n      pop\n      pop\n      jump\t// out\n\n    auxdata: 0xa26469706673582212204dc1a0e637f8901ff56b6fa622b05892df05cd55d856fb2a17bef45e94291c6b64736f6c634300080f0033\n}\n",
				"bytecode": {
					"linkReferences": {},
					"object": "608060405273ae13d989dac2f0debff460ac112a837c89baa7cd600160006101000a81548173ffffffffffffffffffffffffffffffffffffffff021916908373ffffffffffffffffffffffffffffffffffffffff1602179055507378867bbeef44f2326bf8ddd1941a4439382ef2a7600260006101000a81548173ffffffffffffffffffffffffffffffffffffffff021916908373ffffffffffffffffffffffffffffffffffffffff160217905550670de0b6b3a764000060035562a06680600555348015620000ce57600080fd5b5060405162002667380380620026678339818101604052810190620000f49190620002a6565b62000114620001086200015c60201b60201c565b6200016460201b60201c565b80600460006101000a81548173ffffffffffffffffffffffffffffffffffffffff021916908373ffffffffffffffffffffffffffffffffffffffff16021790555050620002d8565b600033905090565b60008060009054906101000a900473ffffffffffffffffffffffffffffffffffffffff169050816000806101000a81548173ffffffffffffffffffffffffffffffffffffffff021916908373ffffffffffffffffffffffffffffffffffffffff1602179055508173ffffffffffffffffffffffffffffffffffffffff168173ffffffffffffffffffffffffffffffffffffffff167f8be0079c531659141344cd1fd0a4f28419497f9722a3daafe3b4186f6b6457e060405160405180910390a35050565b600080fd5b600073ffffffffffffffffffffffffffffffffffffffff82169050919050565b60006200025a826200022d565b9050919050565b60006200026e826200024d565b9050919050565b620002808162000261565b81146200028c57600080fd5b50565b600081519050620002a08162000275565b92915050565b600060208284031215620002bf57620002be62000228565b5b6000620002cf848285016200028f565b91505092915050565b61237f80620002e86000396000f3fe608060405234801561001057600080fd5b50600436106100b45760003560e01c80638da5cb5b116100715780638da5cb5b1461018f5780638dd95002146101ad578063c0d78655146101cb578063d979fb5f146101e7578063dbb7934814610217578063f2fde38b14610247576100b4565b806319047f8a146100b9578063215cc989146100e95780633268cc56146101195780633b979d4514610137578063484f4ea914610167578063715018a614610185575b600080fd5b6100d360048036038101906100ce91906117fa565b610263565b6040516100e09190611840565b60405180910390f35b61010360048036038101906100fe9190611899565b6104ab565b6040516101109190611840565b60405180910390f35b610121610ca6565b60405161012e9190611925565b60405180910390f35b610151600480360381019061014c91906117fa565b610ccc565b60405161015e9190611840565b60405180910390f35b61016f610ea3565b60405161017c919061194f565b60405180910390f35b61018d610ec9565b005b610197610f51565b6040516101a4919061194f565b60405180910390f35b6101b5610f7a565b6040516101c2919061194f565b60405180910390f35b6101e560048036038101906101e091906119a8565b610fa0565b005b61020160048036038101906101fc9190611a3f565b611060565b60405161020e9190611840565b60405180910390f35b610231600480360381019061022c9190611a3f565b61119f565b60405161023e9190611840565b60405180910390f35b610261600480360381019061025c91906117fa565b611440565b005b600080600367ffffffffffffffff81111561028157610280611aa6565b5b6040519080825280602002602001820160405280156102af5781602001602082028036833780820191505090505b50905082816000815181106102c7576102c6611ad5565b5b602002602001019073ffffffffffffffffffffffffffffffffffffffff16908173ffffffffffffffffffffffffffffffffffffffff1681525050600160009054906101000a900473ffffffffffffffffffffffffffffffffffffffff168160018151811061033857610337611ad5565b5b602002602001019073ffffffffffffffffffffffffffffffffffffffff16908173ffffffffffffffffffffffffffffffffffffffff1681525050600260009054906101000a900473ffffffffffffffffffffffffffffffffffffffff16816002815181106103a9576103a8611ad5565b5b602002602001019073ffffffffffffffffffffffffffffffffffffffff16908173ffffffffffffffffffffffffffffffffffffffff1681525050600460009054906101000a900473ffffffffffffffffffffffffffffffffffffffff1673ffffffffffffffffffffffffffffffffffffffff1663d06ca61f600354836040518363ffffffff1660e01b8152600401610442929190611bc2565b600060405180830381865afa15801561045f573d6000803e3d6000fd5b505050506040513d6000823e3d601f19601f820116820180604052508101906104889190611d31565b60028151811061049b5761049a611ad5565b5b6020026020010151915050919050565b60008060008373ffffffffffffffffffffffffffffffffffffffff16630dfe16816040518163ffffffff1660e01b8152600401602060405180830381865afa1580156104fb573d6000803e3d6000fd5b505050506040513d601f19601f8201168201806040525081019061051f9190611db8565b73ffffffffffffffffffffffffffffffffffffffff16600160009054906101000a900473ffffffffffffffffffffffffffffffffffffffff1673ffffffffffffffffffffffffffffffffffffffff16036106ea576106e36105ed8573ffffffffffffffffffffffffffffffffffffffff16630dfe16816040518163ffffffff1660e01b8152600401602060405180830381865afa1580156105c4573d6000803e3d6000fd5b505050506040513d601f19601f820116820180604052508101906105e89190611db8565b610ccc565b8573ffffffffffffffffffffffffffffffffffffffff16630dfe16816040518163ffffffff1660e01b8152600401602060405180830381865afa158015610638573d6000803e3d6000fd5b505050506040513d601f19601f8201168201806040525081019061065c9190611db8565b73ffffffffffffffffffffffffffffffffffffffff166370a08231876040518263ffffffff1660e01b8152600401610694919061194f565b602060405180830381865afa1580156106b1573d6000803e3d6000fd5b505050506040513d601f19601f820116820180604052508101906106d59190611de5565b61153790919063ffffffff16565b915061085d565b61085a6107648573ffffffffffffffffffffffffffffffffffffffff16630dfe16816040518163ffffffff1660e01b8152600401602060405180830381865afa15801561073b573d6000803e3d6000fd5b505050506040513d601f19601f8201168201806040525081019061075f9190611db8565b610263565b8573ffffffffffffffffffffffffffffffffffffffff16630dfe16816040518163ffffffff1660e01b8152600401602060405180830381865afa1580156107af573d6000803e3d6000fd5b505050506040513d601f19601f820116820180604052508101906107d39190611db8565b73ffffffffffffffffffffffffffffffffffffffff166370a08231876040518263ffffffff1660e01b815260040161080b919061194f565b602060405180830381865afa158015610828573d6000803e3d6000fd5b505050506040513d601f19601f8201168201806040525081019061084c9190611de5565b61153790919063ffffffff16565b91505b8373ffffffffffffffffffffffffffffffffffffffff1663d21220a76040518163ffffffff1660e01b8152600401602060405180830381865afa1580156108a8573d6000803e3d6000fd5b505050506040513d601f19601f820116820180604052508101906108cc9190611db8565b73ffffffffffffffffffffffffffffffffffffffff16600160009054906101000a900473ffffffffffffffffffffffffffffffffffffffff1673ffffffffffffffffffffffffffffffffffffffff1603610a9757610a9061099a8573ffffffffffffffffffffffffffffffffffffffff1663d21220a76040518163ffffffff1660e01b8152600401602060405180830381865afa158015610971573d6000803e3d6000fd5b505050506040513d601f19601f820116820180604052508101906109959190611db8565b610ccc565b8573ffffffffffffffffffffffffffffffffffffffff1663d21220a76040518163ffffffff1660e01b8152600401602060405180830381865afa1580156109e5573d6000803e3d6000fd5b505050506040513d601f19601f82011682018060405250810190610a099190611db8565b73ffffffffffffffffffffffffffffffffffffffff166370a08231876040518263ffffffff1660e01b8152600401610a41919061194f565b602060405180830381865afa158015610a5e573d6000803e3d6000fd5b505050506040513d601f19601f82011682018060405250810190610a829190611de5565b61153790919063ffffffff16565b9050610c0a565b610c07610b118573ffffffffffffffffffffffffffffffffffffffff1663d21220a76040518163ffffffff1660e01b8152600401602060405180830381865afa158015610ae8573d6000803e3d6000fd5b505050506040513d601f19601f82011682018060405250810190610b0c9190611db8565b610263565b8573ffffffffffffffffffffffffffffffffffffffff1663d21220a76040518163ffffffff1660e01b8152600401602060405180830381865afa158015610b5c573d6000803e3d6000fd5b505050506040513d601f19601f82011682018060405250810190610b809190611db8565b73ffffffffffffffffffffffffffffffffffffffff166370a08231876040518263ffffffff1660e01b8152600401610bb8919061194f565b602060405180830381865afa158015610bd5573d6000803e3d6000fd5b505050506040513d601f19601f82011682018060405250810190610bf99190611de5565b61153790919063ffffffff16565b90505b610c9d8473ffffffffffffffffffffffffffffffffffffffff166318160ddd6040518163ffffffff1660e01b8152600401602060405180830381865afa158015610c58573d6000803e3d6000fd5b505050506040513d601f19601f82011682018060405250810190610c7c9190611de5565b610c8f83856115b190919063ffffffff16565b61160f90919063ffffffff16565b92505050919050565b600460009054906101000a900473ffffffffffffffffffffffffffffffffffffffff1681565b600080600267ffffffffffffffff811115610cea57610ce9611aa6565b5b604051908082528060200260200182016040528015610d185781602001602082028036833780820191505090505b5090508281600081518110610d3057610d2f611ad5565b5b602002602001019073ffffffffffffffffffffffffffffffffffffffff16908173ffffffffffffffffffffffffffffffffffffffff1681525050600260009054906101000a900473ffffffffffffffffffffffffffffffffffffffff1681600181518110610da157610da0611ad5565b5b602002602001019073ffffffffffffffffffffffffffffffffffffffff16908173ffffffffffffffffffffffffffffffffffffffff1681525050600460009054906101000a900473ffffffffffffffffffffffffffffffffffffffff1673ffffffffffffffffffffffffffffffffffffffff1663d06ca61f600354836040518363ffffffff1660e01b8152600401610e3a929190611bc2565b600060405180830381865afa158015610e57573d6000803e3d6000fd5b505050506040513d6000823e3d601f19601f82011682018060405250810190610e809190611d31565b600181518110610e9357610e92611ad5565b5b6020026020010151915050919050565b600260009054906101000a900473ffffffffffffffffffffffffffffffffffffffff1681565b610ed1611659565b73ffffffffffffffffffffffffffffffffffffffff16610eef610f51565b73ffffffffffffffffffffffffffffffffffffffff1614610f45576040517f08c379a0000000000000000000000000000000000000000000000000000000008152600401610f3c90611e6f565b60405180910390fd5b610f4f6000611661565b565b60008060009054906101000a900473ffffffffffffffffffffffffffffffffffffffff16905090565b600160009054906101000a900473ffffffffffffffffffffffffffffffffffffffff1681565b610fa8611659565b73ffffffffffffffffffffffffffffffffffffffff16610fc6610f51565b73ffffffffffffffffffffffffffffffffffffffff161461101c576040517f08c379a000000000000000000000000000000000000000000000000000000000815260040161101390611e6f565b60405180910390fd5b80600460006101000a81548173ffffffffffffffffffffffffffffffffffffffff021916908373ffffffffffffffffffffffffffffffffffffffff16021790555050565b6000808273ffffffffffffffffffffffffffffffffffffffff16636a6d964e876040518263ffffffff1660e01b815260040161109c9190611840565b602060405180830381865afa1580156110b9573d6000803e3d6000fd5b505050506040513d601f19601f820116820180604052508101906110dd9190611de5565b905060008085036110f8576110f1866104ab565b9050611173565b60018503611172578573ffffffffffffffffffffffffffffffffffffffff16600160009054906101000a900473ffffffffffffffffffffffffffffffffffffffff1673ffffffffffffffffffffffffffffffffffffffff16036111655761115e86610ccc565b9050611171565b61116e86610263565b90505b5b5b61119360035482846111859190611ebe565b61160f90919063ffffffff16565b92505050949350505050565b6000808273ffffffffffffffffffffffffffffffffffffffff16631526fe27876040518263ffffffff1660e01b81526004016111db9190611840565b60c060405180830381865afa1580156111f8573d6000803e3d6000fd5b505050506040513d601f19601f8201168201806040525081019061121c9190611ffb565b905060006112b98473ffffffffffffffffffffffffffffffffffffffff166317caf6f16040518163ffffffff1660e01b8152600401602060405180830381865afa15801561126e573d6000803e3d6000fd5b505050506040513d601f19601f820116820180604052508101906112929190611de5565b6112ab600354856020015161153790919063ffffffff16565b61160f90919063ffffffff16565b905060006113348573ffffffffffffffffffffffffffffffffffffffff1663141aa0ba6040518163ffffffff1660e01b8152600401602060405180830381865afa15801561130b573d6000803e3d6000fd5b505050506040513d601f19601f8201168201806040525081019061132f919061203d565b610263565b905060006113bb8673ffffffffffffffffffffffffffffffffffffffff1663a1eef8216040518163ffffffff1660e01b8152600401602060405180830381865afa158015611386573d6000803e3d6000fd5b505050506040513d601f19601f820116820180604052508101906113aa9190611de5565b60055461153790919063ffffffff16565b905060006113e66003546113d8868561153790919063ffffffff16565b61160f90919063ffffffff16565b905060006113f68b8b8b8b611060565b9050611430606461142283611414888761153790919063ffffffff16565b61160f90919063ffffffff16565b61153790919063ffffffff16565b9650505050505050949350505050565b611448611659565b73ffffffffffffffffffffffffffffffffffffffff16611466610f51565b73ffffffffffffffffffffffffffffffffffffffff16146114bc576040517f08c379a00000000000000000000000000000000000000000000000000000000081526004016114b390611e6f565b60405180910390fd5b600073ffffffffffffffffffffffffffffffffffffffff168173ffffffffffffffffffffffffffffffffffffffff160361152b576040517f08c379a0000000000000000000000000000000000000000000000000000000008152600401611522906120dc565b60405180910390fd5b61153481611661565b50565b600080830361154957600090506115ab565b600082846115579190611ebe565b9050828482611566919061212b565b146115a6576040517f08c379a000000000000000000000000000000000000000000000000000000000815260040161159d906121ce565b60405180910390fd5b809150505b92915050565b60008082846115c091906121ee565b905083811015611605576040517f08c379a00000000000000000000000000000000000000000000000000000000081526004016115fc90612290565b60405180910390fd5b8091505092915050565b600061165183836040518060400160405280601a81526020017f536166654d6174683a206469766973696f6e206279207a65726f000000000000815250611725565b905092915050565b600033905090565b60008060009054906101000a900473ffffffffffffffffffffffffffffffffffffffff169050816000806101000a81548173ffffffffffffffffffffffffffffffffffffffff021916908373ffffffffffffffffffffffffffffffffffffffff1602179055508173ffffffffffffffffffffffffffffffffffffffff168173ffffffffffffffffffffffffffffffffffffffff167f8be0079c531659141344cd1fd0a4f28419497f9722a3daafe3b4186f6b6457e060405160405180910390a35050565b6000808311829061176c576040517f08c379a00000000000000000000000000000000000000000000000000000000081526004016117639190612327565b60405180910390fd5b506000838561177b919061212b565b9050809150509392505050565b6000604051905090565b600080fd5b600080fd5b600073ffffffffffffffffffffffffffffffffffffffff82169050919050565b60006117c78261179c565b9050919050565b6117d7816117bc565b81146117e257600080fd5b50565b6000813590506117f4816117ce565b92915050565b6000602082840312156118105761180f611792565b5b600061181e848285016117e5565b91505092915050565b6000819050919050565b61183a81611827565b82525050565b60006020820190506118556000830184611831565b92915050565b6000611866826117bc565b9050919050565b6118768161185b565b811461188157600080fd5b50565b6000813590506118938161186d565b92915050565b6000602082840312156118af576118ae611792565b5b60006118bd84828501611884565b91505092915050565b6000819050919050565b60006118eb6118e66118e18461179c565b6118c6565b61179c565b9050919050565b60006118fd826118d0565b9050919050565b600061190f826118f2565b9050919050565b61191f81611904565b82525050565b600060208201905061193a6000830184611916565b92915050565b611949816117bc565b82525050565b60006020820190506119646000830184611940565b92915050565b6000611975826117bc565b9050919050565b6119858161196a565b811461199057600080fd5b50565b6000813590506119a28161197c565b92915050565b6000602082840312156119be576119bd611792565b5b60006119cc84828501611993565b91505092915050565b6119de81611827565b81146119e957600080fd5b50565b6000813590506119fb816119d5565b92915050565b6000611a0c826117bc565b9050919050565b611a1c81611a01565b8114611a2757600080fd5b50565b600081359050611a3981611a13565b92915050565b60008060008060808587031215611a5957611a58611792565b5b6000611a67878288016119ec565b9450506020611a7887828801611884565b9350506040611a89878288016119ec565b9250506060611a9a87828801611a2a565b91505092959194509250565b7f4e487b7100000000000000000000000000000000000000000000000000000000600052604160045260246000fd5b7f4e487b7100000000000000000000000000000000000000000000000000000000600052603260045260246000fd5b600081519050919050565b600082825260208201905092915050565b6000819050602082019050919050565b611b39816117bc565b82525050565b6000611b4b8383611b30565b60208301905092915050565b6000602082019050919050565b6000611b6f82611b04565b611b798185611b0f565b9350611b8483611b20565b8060005b83811015611bb5578151611b9c8882611b3f565b9750611ba783611b57565b925050600181019050611b88565b5085935050505092915050565b6000604082019050611bd76000830185611831565b8181036020830152611be98184611b64565b90509392505050565b600080fd5b6000601f19601f8301169050919050565b611c1182611bf7565b810181811067ffffffffffffffff82111715611c3057611c2f611aa6565b5b80604052505050565b6000611c43611788565b9050611c4f8282611c08565b919050565b600067ffffffffffffffff821115611c6f57611c6e611aa6565b5b602082029050602081019050919050565b600080fd5b600081519050611c94816119d5565b92915050565b6000611cad611ca884611c54565b611c39565b90508083825260208201905060208402830185811115611cd057611ccf611c80565b5b835b81811015611cf95780611ce58882611c85565b845260208401935050602081019050611cd2565b5050509392505050565b600082601f830112611d1857611d17611bf2565b5b8151611d28848260208601611c9a565b91505092915050565b600060208284031215611d4757611d46611792565b5b600082015167ffffffffffffffff811115611d6557611d64611797565b5b611d7184828501611d03565b91505092915050565b6000611d85826117bc565b9050919050565b611d9581611d7a565b8114611da057600080fd5b50565b600081519050611db281611d8c565b92915050565b600060208284031215611dce57611dcd611792565b5b6000611ddc84828501611da3565b91505092915050565b600060208284031215611dfb57611dfa611792565b5b6000611e0984828501611c85565b91505092915050565b600082825260208201905092915050565b7f4f776e61626c653a2063616c6c6572206973206e6f7420746865206f776e6572600082015250565b6000611e59602083611e12565b9150611e6482611e23565b602082019050919050565b60006020820190508181036000830152611e8881611e4c565b9050919050565b7f4e487b7100000000000000000000000000000000000000000000000000000000600052601160045260246000fd5b6000611ec982611827565b9150611ed483611827565b9250817fffffffffffffffffffffffffffffffffffffffffffffffffffffffffffffffff0483118215151615611f0d57611f0c611e8f565b5b828202905092915050565b600080fd5b6000611f28826117bc565b9050919050565b611f3881611f1d565b8114611f4357600080fd5b50565b600081519050611f5581611f2f565b92915050565b600060c08284031215611f7157611f70611f18565b5b611f7b60c0611c39565b90506000611f8b84828501611da3565b6000830152506020611f9f84828501611c85565b6020830152506040611fb384828501611c85565b6040830152506060611fc784828501611c85565b6060830152506080611fdb84828501611f46565b60808301525060a0611fef84828501611da3565b60a08301525092915050565b600060c0828403121561201157612010611792565b5b600061201f84828501611f5b565b91505092915050565b600081519050612037816117ce565b92915050565b60006020828403121561205357612052611792565b5b600061206184828501612028565b91505092915050565b7f4f776e61626c653a206e6577206f776e657220697320746865207a65726f206160008201527f6464726573730000000000000000000000000000000000000000000000000000602082015250565b60006120c6602683611e12565b91506120d18261206a565b604082019050919050565b600060208201905081810360008301526120f5816120b9565b9050919050565b7f4e487b7100000000000000000000000000000000000000000000000000000000600052601260045260246000fd5b600061213682611827565b915061214183611827565b925082612151576121506120fc565b5b828204905092915050565b7f536166654d6174683a206d756c7469706c69636174696f6e206f766572666c6f60008201527f7700000000000000000000000000000000000000000000000000000000000000602082015250565b60006121b8602183611e12565b91506121c38261215c565b604082019050919050565b600060208201905081810360008301526121e7816121ab565b9050919050565b60006121f982611827565b915061220483611827565b9250827fffffffffffffffffffffffffffffffffffffffffffffffffffffffffffffffff0382111561223957612238611e8f565b5b828201905092915050565b7f536166654d6174683a206164646974696f6e206f766572666c6f770000000000600082015250565b600061227a601b83611e12565b915061228582612244565b602082019050919050565b600060208201905081810360008301526122a98161226d565b9050919050565b600081519050919050565b60005b838110156122d95780820151818401526020810190506122be565b838111156122e8576000848401525b50505050565b60006122f9826122b0565b6123038185611e12565b93506123138185602086016122bb565b61231c81611bf7565b840191505092915050565b6000602082019050818103600083015261234181846122ee565b90509291505056fea26469706673582212204dc1a0e637f8901ff56b6fa622b05892df05cd55d856fb2a17bef45e94291c6b64736f6c634300080f0033",
					"opcodes": "PUSH1 0x80 PUSH1 0x40 MSTORE PUSH20 0xAE13D989DAC2F0DEBFF460AC112A837C89BAA7CD PUSH1 0x1 PUSH1 0x0 PUSH2 0x100 EXP DUP2 SLOAD DUP2 PUSH20 0xFFFFFFFFFFFFFFFFFFFFFFFFFFFFFFFFFFFFFFFF MUL NOT AND SWAP1 DUP4 PUSH20 0xFFFFFFFFFFFFFFFFFFFFFFFFFFFFFFFFFFFFFFFF AND MUL OR SWAP1 SSTORE POP PUSH20 0x78867BBEEF44F2326BF8DDD1941A4439382EF2A7 PUSH1 0x2 PUSH1 0x0 PUSH2 0x100 EXP DUP2 SLOAD DUP2 PUSH20 0xFFFFFFFFFFFFFFFFFFFFFFFFFFFFFFFFFFFFFFFF MUL NOT AND SWAP1 DUP4 PUSH20 0xFFFFFFFFFFFFFFFFFFFFFFFFFFFFFFFFFFFFFFFF AND MUL OR SWAP1 SSTORE POP PUSH8 0xDE0B6B3A7640000 PUSH1 0x3 SSTORE PUSH3 0xA06680 PUSH1 0x5 SSTORE CALLVALUE DUP1 ISZERO PUSH3 0xCE JUMPI PUSH1 0x0 DUP1 REVERT JUMPDEST POP PUSH1 0x40 MLOAD PUSH3 0x2667 CODESIZE SUB DUP1 PUSH3 0x2667 DUP4 CODECOPY DUP2 DUP2 ADD PUSH1 0x40 MSTORE DUP2 ADD SWAP1 PUSH3 0xF4 SWAP2 SWAP1 PUSH3 0x2A6 JUMP JUMPDEST PUSH3 0x114 PUSH3 0x108 PUSH3 0x15C PUSH1 0x20 SHL PUSH1 0x20 SHR JUMP JUMPDEST PUSH3 0x164 PUSH1 0x20 SHL PUSH1 0x20 SHR JUMP JUMPDEST DUP1 PUSH1 0x4 PUSH1 0x0 PUSH2 0x100 EXP DUP2 SLOAD DUP2 PUSH20 0xFFFFFFFFFFFFFFFFFFFFFFFFFFFFFFFFFFFFFFFF MUL NOT AND SWAP1 DUP4 PUSH20 0xFFFFFFFFFFFFFFFFFFFFFFFFFFFFFFFFFFFFFFFF AND MUL OR SWAP1 SSTORE POP POP PUSH3 0x2D8 JUMP JUMPDEST PUSH1 0x0 CALLER SWAP1 POP SWAP1 JUMP JUMPDEST PUSH1 0x0 DUP1 PUSH1 0x0 SWAP1 SLOAD SWAP1 PUSH2 0x100 EXP SWAP1 DIV PUSH20 0xFFFFFFFFFFFFFFFFFFFFFFFFFFFFFFFFFFFFFFFF AND SWAP1 POP DUP2 PUSH1 0x0 DUP1 PUSH2 0x100 EXP DUP2 SLOAD DUP2 PUSH20 0xFFFFFFFFFFFFFFFFFFFFFFFFFFFFFFFFFFFFFFFF MUL NOT AND SWAP1 DUP4 PUSH20 0xFFFFFFFFFFFFFFFFFFFFFFFFFFFFFFFFFFFFFFFF AND MUL OR SWAP1 SSTORE POP DUP2 PUSH20 0xFFFFFFFFFFFFFFFFFFFFFFFFFFFFFFFFFFFFFFFF AND DUP2 PUSH20 0xFFFFFFFFFFFFFFFFFFFFFFFFFFFFFFFFFFFFFFFF AND PUSH32 0x8BE0079C531659141344CD1FD0A4F28419497F9722A3DAAFE3B4186F6B6457E0 PUSH1 0x40 MLOAD PUSH1 0x40 MLOAD DUP1 SWAP2 SUB SWAP1 LOG3 POP POP JUMP JUMPDEST PUSH1 0x0 DUP1 REVERT JUMPDEST PUSH1 0x0 PUSH20 0xFFFFFFFFFFFFFFFFFFFFFFFFFFFFFFFFFFFFFFFF DUP3 AND SWAP1 POP SWAP2 SWAP1 POP JUMP JUMPDEST PUSH1 0x0 PUSH3 0x25A DUP3 PUSH3 0x22D JUMP JUMPDEST SWAP1 POP SWAP2 SWAP1 POP JUMP JUMPDEST PUSH1 0x0 PUSH3 0x26E DUP3 PUSH3 0x24D JUMP JUMPDEST SWAP1 POP SWAP2 SWAP1 POP JUMP JUMPDEST PUSH3 0x280 DUP2 PUSH3 0x261 JUMP JUMPDEST DUP2 EQ PUSH3 0x28C JUMPI PUSH1 0x0 DUP1 REVERT JUMPDEST POP JUMP JUMPDEST PUSH1 0x0 DUP2 MLOAD SWAP1 POP PUSH3 0x2A0 DUP2 PUSH3 0x275 JUMP JUMPDEST SWAP3 SWAP2 POP POP JUMP JUMPDEST PUSH1 0x0 PUSH1 0x20 DUP3 DUP5 SUB SLT ISZERO PUSH3 0x2BF JUMPI PUSH3 0x2BE PUSH3 0x228 JUMP JUMPDEST JUMPDEST PUSH1 0x0 PUSH3 0x2CF DUP5 DUP3 DUP6 ADD PUSH3 0x28F JUMP JUMPDEST SWAP2 POP POP SWAP3 SWAP2 POP POP JUMP JUMPDEST PUSH2 0x237F DUP1 PUSH3 0x2E8 PUSH1 0x0 CODECOPY PUSH1 0x0 RETURN INVALID PUSH1 0x80 PUSH1 0x40 MSTORE CALLVALUE DUP1 ISZERO PUSH2 0x10 JUMPI PUSH1 0x0 DUP1 REVERT JUMPDEST POP PUSH1 0x4 CALLDATASIZE LT PUSH2 0xB4 JUMPI PUSH1 0x0 CALLDATALOAD PUSH1 0xE0 SHR DUP1 PUSH4 0x8DA5CB5B GT PUSH2 0x71 JUMPI DUP1 PUSH4 0x8DA5CB5B EQ PUSH2 0x18F JUMPI DUP1 PUSH4 0x8DD95002 EQ PUSH2 0x1AD JUMPI DUP1 PUSH4 0xC0D78655 EQ PUSH2 0x1CB JUMPI DUP1 PUSH4 0xD979FB5F EQ PUSH2 0x1E7 JUMPI DUP1 PUSH4 0xDBB79348 EQ PUSH2 0x217 JUMPI DUP1 PUSH4 0xF2FDE38B EQ PUSH2 0x247 JUMPI PUSH2 0xB4 JUMP JUMPDEST DUP1 PUSH4 0x19047F8A EQ PUSH2 0xB9 JUMPI DUP1 PUSH4 0x215CC989 EQ PUSH2 0xE9 JUMPI DUP1 PUSH4 0x3268CC56 EQ PUSH2 0x119 JUMPI DUP1 PUSH4 0x3B979D45 EQ PUSH2 0x137 JUMPI DUP1 PUSH4 0x484F4EA9 EQ PUSH2 0x167 JUMPI DUP1 PUSH4 0x715018A6 EQ PUSH2 0x185 JUMPI JUMPDEST PUSH1 0x0 DUP1 REVERT JUMPDEST PUSH2 0xD3 PUSH1 0x4 DUP1 CALLDATASIZE SUB DUP2 ADD SWAP1 PUSH2 0xCE SWAP2 SWAP1 PUSH2 0x17FA JUMP JUMPDEST PUSH2 0x263 JUMP JUMPDEST PUSH1 0x40 MLOAD PUSH2 0xE0 SWAP2 SWAP1 PUSH2 0x1840 JUMP JUMPDEST PUSH1 0x40 MLOAD DUP1 SWAP2 SUB SWAP1 RETURN JUMPDEST PUSH2 0x103 PUSH1 0x4 DUP1 CALLDATASIZE SUB DUP2 ADD SWAP1 PUSH2 0xFE SWAP2 SWAP1 PUSH2 0x1899 JUMP JUMPDEST PUSH2 0x4AB JUMP JUMPDEST PUSH1 0x40 MLOAD PUSH2 0x110 SWAP2 SWAP1 PUSH2 0x1840 JUMP JUMPDEST PUSH1 0x40 MLOAD DUP1 SWAP2 SUB SWAP1 RETURN JUMPDEST PUSH2 0x121 PUSH2 0xCA6 JUMP JUMPDEST PUSH1 0x40 MLOAD PUSH2 0x12E SWAP2 SWAP1 PUSH2 0x1925 JUMP JUMPDEST PUSH1 0x40 MLOAD DUP1 SWAP2 SUB SWAP1 RETURN JUMPDEST PUSH2 0x151 PUSH1 0x4 DUP1 CALLDATASIZE SUB DUP2 ADD SWAP1 PUSH2 0x14C SWAP2 SWAP1 PUSH2 0x17FA JUMP JUMPDEST PUSH2 0xCCC JUMP JUMPDEST PUSH1 0x40 MLOAD PUSH2 0x15E SWAP2 SWAP1 PUSH2 0x1840 JUMP JUMPDEST PUSH1 0x40 MLOAD DUP1 SWAP2 SUB SWAP1 RETURN JUMPDEST PUSH2 0x16F PUSH2 0xEA3 JUMP JUMPDEST PUSH1 0x40 MLOAD PUSH2 0x17C SWAP2 SWAP1 PUSH2 0x194F JUMP JUMPDEST PUSH1 0x40 MLOAD DUP1 SWAP2 SUB SWAP1 RETURN JUMPDEST PUSH2 0x18D PUSH2 0xEC9 JUMP JUMPDEST STOP JUMPDEST PUSH2 0x197 PUSH2 0xF51 JUMP JUMPDEST PUSH1 0x40 MLOAD PUSH2 0x1A4 SWAP2 SWAP1 PUSH2 0x194F JUMP JUMPDEST PUSH1 0x40 MLOAD DUP1 SWAP2 SUB SWAP1 RETURN JUMPDEST PUSH2 0x1B5 PUSH2 0xF7A JUMP JUMPDEST PUSH1 0x40 MLOAD PUSH2 0x1C2 SWAP2 SWAP1 PUSH2 0x194F JUMP JUMPDEST PUSH1 0x40 MLOAD DUP1 SWAP2 SUB SWAP1 RETURN JUMPDEST PUSH2 0x1E5 PUSH1 0x4 DUP1 CALLDATASIZE SUB DUP2 ADD SWAP1 PUSH2 0x1E0 SWAP2 SWAP1 PUSH2 0x19A8 JUMP JUMPDEST PUSH2 0xFA0 JUMP JUMPDEST STOP JUMPDEST PUSH2 0x201 PUSH1 0x4 DUP1 CALLDATASIZE SUB DUP2 ADD SWAP1 PUSH2 0x1FC SWAP2 SWAP1 PUSH2 0x1A3F JUMP JUMPDEST PUSH2 0x1060 JUMP JUMPDEST PUSH1 0x40 MLOAD PUSH2 0x20E SWAP2 SWAP1 PUSH2 0x1840 JUMP JUMPDEST PUSH1 0x40 MLOAD DUP1 SWAP2 SUB SWAP1 RETURN JUMPDEST PUSH2 0x231 PUSH1 0x4 DUP1 CALLDATASIZE SUB DUP2 ADD SWAP1 PUSH2 0x22C SWAP2 SWAP1 PUSH2 0x1A3F JUMP JUMPDEST PUSH2 0x119F JUMP JUMPDEST PUSH1 0x40 MLOAD PUSH2 0x23E SWAP2 SWAP1 PUSH2 0x1840 JUMP JUMPDEST PUSH1 0x40 MLOAD DUP1 SWAP2 SUB SWAP1 RETURN JUMPDEST PUSH2 0x261 PUSH1 0x4 DUP1 CALLDATASIZE SUB DUP2 ADD SWAP1 PUSH2 0x25C SWAP2 SWAP1 PUSH2 0x17FA JUMP JUMPDEST PUSH2 0x1440 JUMP JUMPDEST STOP JUMPDEST PUSH1 0x0 DUP1 PUSH1 0x3 PUSH8 0xFFFFFFFFFFFFFFFF DUP2 GT ISZERO PUSH2 0x281 JUMPI PUSH2 0x280 PUSH2 0x1AA6 JUMP JUMPDEST JUMPDEST PUSH1 0x40 MLOAD SWAP1 DUP1 DUP3 MSTORE DUP1 PUSH1 0x20 MUL PUSH1 0x20 ADD DUP3 ADD PUSH1 0x40 MSTORE DUP1 ISZERO PUSH2 0x2AF JUMPI DUP2 PUSH1 0x20 ADD PUSH1 0x20 DUP3 MUL DUP1 CALLDATASIZE DUP4 CALLDATACOPY DUP1 DUP3 ADD SWAP2 POP POP SWAP1 POP JUMPDEST POP SWAP1 POP DUP3 DUP2 PUSH1 0x0 DUP2 MLOAD DUP2 LT PUSH2 0x2C7 JUMPI PUSH2 0x2C6 PUSH2 0x1AD5 JUMP JUMPDEST JUMPDEST PUSH1 0x20 MUL PUSH1 0x20 ADD ADD SWAP1 PUSH20 0xFFFFFFFFFFFFFFFFFFFFFFFFFFFFFFFFFFFFFFFF AND SWAP1 DUP2 PUSH20 0xFFFFFFFFFFFFFFFFFFFFFFFFFFFFFFFFFFFFFFFF AND DUP2 MSTORE POP POP PUSH1 0x1 PUSH1 0x0 SWAP1 SLOAD SWAP1 PUSH2 0x100 EXP SWAP1 DIV PUSH20 0xFFFFFFFFFFFFFFFFFFFFFFFFFFFFFFFFFFFFFFFF AND DUP2 PUSH1 0x1 DUP2 MLOAD DUP2 LT PUSH2 0x338 JUMPI PUSH2 0x337 PUSH2 0x1AD5 JUMP JUMPDEST JUMPDEST PUSH1 0x20 MUL PUSH1 0x20 ADD ADD SWAP1 PUSH20 0xFFFFFFFFFFFFFFFFFFFFFFFFFFFFFFFFFFFFFFFF AND SWAP1 DUP2 PUSH20 0xFFFFFFFFFFFFFFFFFFFFFFFFFFFFFFFFFFFFFFFF AND DUP2 MSTORE POP POP PUSH1 0x2 PUSH1 0x0 SWAP1 SLOAD SWAP1 PUSH2 0x100 EXP SWAP1 DIV PUSH20 0xFFFFFFFFFFFFFFFFFFFFFFFFFFFFFFFFFFFFFFFF AND DUP2 PUSH1 0x2 DUP2 MLOAD DUP2 LT PUSH2 0x3A9 JUMPI PUSH2 0x3A8 PUSH2 0x1AD5 JUMP JUMPDEST JUMPDEST PUSH1 0x20 MUL PUSH1 0x20 ADD ADD SWAP1 PUSH20 0xFFFFFFFFFFFFFFFFFFFFFFFFFFFFFFFFFFFFFFFF AND SWAP1 DUP2 PUSH20 0xFFFFFFFFFFFFFFFFFFFFFFFFFFFFFFFFFFFFFFFF AND DUP2 MSTORE POP POP PUSH1 0x4 PUSH1 0x0 SWAP1 SLOAD SWAP1 PUSH2 0x100 EXP SWAP1 DIV PUSH20 0xFFFFFFFFFFFFFFFFFFFFFFFFFFFFFFFFFFFFFFFF AND PUSH20 0xFFFFFFFFFFFFFFFFFFFFFFFFFFFFFFFFFFFFFFFF AND PUSH4 0xD06CA61F PUSH1 0x3 SLOAD DUP4 PUSH1 0x40 MLOAD DUP4 PUSH4 0xFFFFFFFF AND PUSH1 0xE0 SHL DUP2 MSTORE PUSH1 0x4 ADD PUSH2 0x442 SWAP3 SWAP2 SWAP1 PUSH2 0x1BC2 JUMP JUMPDEST PUSH1 0x0 PUSH1 0x40 MLOAD DUP1 DUP4 SUB DUP2 DUP7 GAS STATICCALL ISZERO DUP1 ISZERO PUSH2 0x45F JUMPI RETURNDATASIZE PUSH1 0x0 DUP1 RETURNDATACOPY RETURNDATASIZE PUSH1 0x0 REVERT JUMPDEST POP POP POP POP PUSH1 0x40 MLOAD RETURNDATASIZE PUSH1 0x0 DUP3 RETURNDATACOPY RETURNDATASIZE PUSH1 0x1F NOT PUSH1 0x1F DUP3 ADD AND DUP3 ADD DUP1 PUSH1 0x40 MSTORE POP DUP2 ADD SWAP1 PUSH2 0x488 SWAP2 SWAP1 PUSH2 0x1D31 JUMP JUMPDEST PUSH1 0x2 DUP2 MLOAD DUP2 LT PUSH2 0x49B JUMPI PUSH2 0x49A PUSH2 0x1AD5 JUMP JUMPDEST JUMPDEST PUSH1 0x20 MUL PUSH1 0x20 ADD ADD MLOAD SWAP2 POP POP SWAP2 SWAP1 POP JUMP JUMPDEST PUSH1 0x0 DUP1 PUSH1 0x0 DUP4 PUSH20 0xFFFFFFFFFFFFFFFFFFFFFFFFFFFFFFFFFFFFFFFF AND PUSH4 0xDFE1681 PUSH1 0x40 MLOAD DUP2 PUSH4 0xFFFFFFFF AND PUSH1 0xE0 SHL DUP2 MSTORE PUSH1 0x4 ADD PUSH1 0x20 PUSH1 0x40 MLOAD DUP1 DUP4 SUB DUP2 DUP7 GAS STATICCALL ISZERO DUP1 ISZERO PUSH2 0x4FB JUMPI RETURNDATASIZE PUSH1 0x0 DUP1 RETURNDATACOPY RETURNDATASIZE PUSH1 0x0 REVERT JUMPDEST POP POP POP POP PUSH1 0x40 MLOAD RETURNDATASIZE PUSH1 0x1F NOT PUSH1 0x1F DUP3 ADD AND DUP3 ADD DUP1 PUSH1 0x40 MSTORE POP DUP2 ADD SWAP1 PUSH2 0x51F SWAP2 SWAP1 PUSH2 0x1DB8 JUMP JUMPDEST PUSH20 0xFFFFFFFFFFFFFFFFFFFFFFFFFFFFFFFFFFFFFFFF AND PUSH1 0x1 PUSH1 0x0 SWAP1 SLOAD SWAP1 PUSH2 0x100 EXP SWAP1 DIV PUSH20 0xFFFFFFFFFFFFFFFFFFFFFFFFFFFFFFFFFFFFFFFF AND PUSH20 0xFFFFFFFFFFFFFFFFFFFFFFFFFFFFFFFFFFFFFFFF AND SUB PUSH2 0x6EA JUMPI PUSH2 0x6E3 PUSH2 0x5ED DUP6 PUSH20 0xFFFFFFFFFFFFFFFFFFFFFFFFFFFFFFFFFFFFFFFF AND PUSH4 0xDFE1681 PUSH1 0x40 MLOAD DUP2 PUSH4 0xFFFFFFFF AND PUSH1 0xE0 SHL DUP2 MSTORE PUSH1 0x4 ADD PUSH1 0x20 PUSH1 0x40 MLOAD DUP1 DUP4 SUB DUP2 DUP7 GAS STATICCALL ISZERO DUP1 ISZERO PUSH2 0x5C4 JUMPI RETURNDATASIZE PUSH1 0x0 DUP1 RETURNDATACOPY RETURNDATASIZE PUSH1 0x0 REVERT JUMPDEST POP POP POP POP PUSH1 0x40 MLOAD RETURNDATASIZE PUSH1 0x1F NOT PUSH1 0x1F DUP3 ADD AND DUP3 ADD DUP1 PUSH1 0x40 MSTORE POP DUP2 ADD SWAP1 PUSH2 0x5E8 SWAP2 SWAP1 PUSH2 0x1DB8 JUMP JUMPDEST PUSH2 0xCCC JUMP JUMPDEST DUP6 PUSH20 0xFFFFFFFFFFFFFFFFFFFFFFFFFFFFFFFFFFFFFFFF AND PUSH4 0xDFE1681 PUSH1 0x40 MLOAD DUP2 PUSH4 0xFFFFFFFF AND PUSH1 0xE0 SHL DUP2 MSTORE PUSH1 0x4 ADD PUSH1 0x20 PUSH1 0x40 MLOAD DUP1 DUP4 SUB DUP2 DUP7 GAS STATICCALL ISZERO DUP1 ISZERO PUSH2 0x638 JUMPI RETURNDATASIZE PUSH1 0x0 DUP1 RETURNDATACOPY RETURNDATASIZE PUSH1 0x0 REVERT JUMPDEST POP POP POP POP PUSH1 0x40 MLOAD RETURNDATASIZE PUSH1 0x1F NOT PUSH1 0x1F DUP3 ADD AND DUP3 ADD DUP1 PUSH1 0x40 MSTORE POP DUP2 ADD SWAP1 PUSH2 0x65C SWAP2 SWAP1 PUSH2 0x1DB8 JUMP JUMPDEST PUSH20 0xFFFFFFFFFFFFFFFFFFFFFFFFFFFFFFFFFFFFFFFF AND PUSH4 0x70A08231 DUP8 PUSH1 0x40 MLOAD DUP3 PUSH4 0xFFFFFFFF AND PUSH1 0xE0 SHL DUP2 MSTORE PUSH1 0x4 ADD PUSH2 0x694 SWAP2 SWAP1 PUSH2 0x194F JUMP JUMPDEST PUSH1 0x20 PUSH1 0x40 MLOAD DUP1 DUP4 SUB DUP2 DUP7 GAS STATICCALL ISZERO DUP1 ISZERO PUSH2 0x6B1 JUMPI RETURNDATASIZE PUSH1 0x0 DUP1 RETURNDATACOPY RETURNDATASIZE PUSH1 0x0 REVERT JUMPDEST POP POP POP POP PUSH1 0x40 MLOAD RETURNDATASIZE PUSH1 0x1F NOT PUSH1 0x1F DUP3 ADD AND DUP3 ADD DUP1 PUSH1 0x40 MSTORE POP DUP2 ADD SWAP1 PUSH2 0x6D5 SWAP2 SWAP1 PUSH2 0x1DE5 JUMP JUMPDEST PUSH2 0x1537 SWAP1 SWAP2 SWAP1 PUSH4 0xFFFFFFFF AND JUMP JUMPDEST SWAP2 POP PUSH2 0x85D JUMP JUMPDEST PUSH2 0x85A PUSH2 0x764 DUP6 PUSH20 0xFFFFFFFFFFFFFFFFFFFFFFFFFFFFFFFFFFFFFFFF AND PUSH4 0xDFE1681 PUSH1 0x40 MLOAD DUP2 PUSH4 0xFFFFFFFF AND PUSH1 0xE0 SHL DUP2 MSTORE PUSH1 0x4 ADD PUSH1 0x20 PUSH1 0x40 MLOAD DUP1 DUP4 SUB DUP2 DUP7 GAS STATICCALL ISZERO DUP1 ISZERO PUSH2 0x73B JUMPI RETURNDATASIZE PUSH1 0x0 DUP1 RETURNDATACOPY RETURNDATASIZE PUSH1 0x0 REVERT JUMPDEST POP POP POP POP PUSH1 0x40 MLOAD RETURNDATASIZE PUSH1 0x1F NOT PUSH1 0x1F DUP3 ADD AND DUP3 ADD DUP1 PUSH1 0x40 MSTORE POP DUP2 ADD SWAP1 PUSH2 0x75F SWAP2 SWAP1 PUSH2 0x1DB8 JUMP JUMPDEST PUSH2 0x263 JUMP JUMPDEST DUP6 PUSH20 0xFFFFFFFFFFFFFFFFFFFFFFFFFFFFFFFFFFFFFFFF AND PUSH4 0xDFE1681 PUSH1 0x40 MLOAD DUP2 PUSH4 0xFFFFFFFF AND PUSH1 0xE0 SHL DUP2 MSTORE PUSH1 0x4 ADD PUSH1 0x20 PUSH1 0x40 MLOAD DUP1 DUP4 SUB DUP2 DUP7 GAS STATICCALL ISZERO DUP1 ISZERO PUSH2 0x7AF JUMPI RETURNDATASIZE PUSH1 0x0 DUP1 RETURNDATACOPY RETURNDATASIZE PUSH1 0x0 REVERT JUMPDEST POP POP POP POP PUSH1 0x40 MLOAD RETURNDATASIZE PUSH1 0x1F NOT PUSH1 0x1F DUP3 ADD AND DUP3 ADD DUP1 PUSH1 0x40 MSTORE POP DUP2 ADD SWAP1 PUSH2 0x7D3 SWAP2 SWAP1 PUSH2 0x1DB8 JUMP JUMPDEST PUSH20 0xFFFFFFFFFFFFFFFFFFFFFFFFFFFFFFFFFFFFFFFF AND PUSH4 0x70A08231 DUP8 PUSH1 0x40 MLOAD DUP3 PUSH4 0xFFFFFFFF AND PUSH1 0xE0 SHL DUP2 MSTORE PUSH1 0x4 ADD PUSH2 0x80B SWAP2 SWAP1 PUSH2 0x194F JUMP JUMPDEST PUSH1 0x20 PUSH1 0x40 MLOAD DUP1 DUP4 SUB DUP2 DUP7 GAS STATICCALL ISZERO DUP1 ISZERO PUSH2 0x828 JUMPI RETURNDATASIZE PUSH1 0x0 DUP1 RETURNDATACOPY RETURNDATASIZE PUSH1 0x0 REVERT JUMPDEST POP POP POP POP PUSH1 0x40 MLOAD RETURNDATASIZE PUSH1 0x1F NOT PUSH1 0x1F DUP3 ADD AND DUP3 ADD DUP1 PUSH1 0x40 MSTORE POP DUP2 ADD SWAP1 PUSH2 0x84C SWAP2 SWAP1 PUSH2 0x1DE5 JUMP JUMPDEST PUSH2 0x1537 SWAP1 SWAP2 SWAP1 PUSH4 0xFFFFFFFF AND JUMP JUMPDEST SWAP2 POP JUMPDEST DUP4 PUSH20 0xFFFFFFFFFFFFFFFFFFFFFFFFFFFFFFFFFFFFFFFF AND PUSH4 0xD21220A7 PUSH1 0x40 MLOAD DUP2 PUSH4 0xFFFFFFFF AND PUSH1 0xE0 SHL DUP2 MSTORE PUSH1 0x4 ADD PUSH1 0x20 PUSH1 0x40 MLOAD DUP1 DUP4 SUB DUP2 DUP7 GAS STATICCALL ISZERO DUP1 ISZERO PUSH2 0x8A8 JUMPI RETURNDATASIZE PUSH1 0x0 DUP1 RETURNDATACOPY RETURNDATASIZE PUSH1 0x0 REVERT JUMPDEST POP POP POP POP PUSH1 0x40 MLOAD RETURNDATASIZE PUSH1 0x1F NOT PUSH1 0x1F DUP3 ADD AND DUP3 ADD DUP1 PUSH1 0x40 MSTORE POP DUP2 ADD SWAP1 PUSH2 0x8CC SWAP2 SWAP1 PUSH2 0x1DB8 JUMP JUMPDEST PUSH20 0xFFFFFFFFFFFFFFFFFFFFFFFFFFFFFFFFFFFFFFFF AND PUSH1 0x1 PUSH1 0x0 SWAP1 SLOAD SWAP1 PUSH2 0x100 EXP SWAP1 DIV PUSH20 0xFFFFFFFFFFFFFFFFFFFFFFFFFFFFFFFFFFFFFFFF AND PUSH20 0xFFFFFFFFFFFFFFFFFFFFFFFFFFFFFFFFFFFFFFFF AND SUB PUSH2 0xA97 JUMPI PUSH2 0xA90 PUSH2 0x99A DUP6 PUSH20 0xFFFFFFFFFFFFFFFFFFFFFFFFFFFFFFFFFFFFFFFF AND PUSH4 0xD21220A7 PUSH1 0x40 MLOAD DUP2 PUSH4 0xFFFFFFFF AND PUSH1 0xE0 SHL DUP2 MSTORE PUSH1 0x4 ADD PUSH1 0x20 PUSH1 0x40 MLOAD DUP1 DUP4 SUB DUP2 DUP7 GAS STATICCALL ISZERO DUP1 ISZERO PUSH2 0x971 JUMPI RETURNDATASIZE PUSH1 0x0 DUP1 RETURNDATACOPY RETURNDATASIZE PUSH1 0x0 REVERT JUMPDEST POP POP POP POP PUSH1 0x40 MLOAD RETURNDATASIZE PUSH1 0x1F NOT PUSH1 0x1F DUP3 ADD AND DUP3 ADD DUP1 PUSH1 0x40 MSTORE POP DUP2 ADD SWAP1 PUSH2 0x995 SWAP2 SWAP1 PUSH2 0x1DB8 JUMP JUMPDEST PUSH2 0xCCC JUMP JUMPDEST DUP6 PUSH20 0xFFFFFFFFFFFFFFFFFFFFFFFFFFFFFFFFFFFFFFFF AND PUSH4 0xD21220A7 PUSH1 0x40 MLOAD DUP2 PUSH4 0xFFFFFFFF AND PUSH1 0xE0 SHL DUP2 MSTORE PUSH1 0x4 ADD PUSH1 0x20 PUSH1 0x40 MLOAD DUP1 DUP4 SUB DUP2 DUP7 GAS STATICCALL ISZERO DUP1 ISZERO PUSH2 0x9E5 JUMPI RETURNDATASIZE PUSH1 0x0 DUP1 RETURNDATACOPY RETURNDATASIZE PUSH1 0x0 REVERT JUMPDEST POP POP POP POP PUSH1 0x40 MLOAD RETURNDATASIZE PUSH1 0x1F NOT PUSH1 0x1F DUP3 ADD AND DUP3 ADD DUP1 PUSH1 0x40 MSTORE POP DUP2 ADD SWAP1 PUSH2 0xA09 SWAP2 SWAP1 PUSH2 0x1DB8 JUMP JUMPDEST PUSH20 0xFFFFFFFFFFFFFFFFFFFFFFFFFFFFFFFFFFFFFFFF AND PUSH4 0x70A08231 DUP8 PUSH1 0x40 MLOAD DUP3 PUSH4 0xFFFFFFFF AND PUSH1 0xE0 SHL DUP2 MSTORE PUSH1 0x4 ADD PUSH2 0xA41 SWAP2 SWAP1 PUSH2 0x194F JUMP JUMPDEST PUSH1 0x20 PUSH1 0x40 MLOAD DUP1 DUP4 SUB DUP2 DUP7 GAS STATICCALL ISZERO DUP1 ISZERO PUSH2 0xA5E JUMPI RETURNDATASIZE PUSH1 0x0 DUP1 RETURNDATACOPY RETURNDATASIZE PUSH1 0x0 REVERT JUMPDEST POP POP POP POP PUSH1 0x40 MLOAD RETURNDATASIZE PUSH1 0x1F NOT PUSH1 0x1F DUP3 ADD AND DUP3 ADD DUP1 PUSH1 0x40 MSTORE POP DUP2 ADD SWAP1 PUSH2 0xA82 SWAP2 SWAP1 PUSH2 0x1DE5 JUMP JUMPDEST PUSH2 0x1537 SWAP1 SWAP2 SWAP1 PUSH4 0xFFFFFFFF AND JUMP JUMPDEST SWAP1 POP PUSH2 0xC0A JUMP JUMPDEST PUSH2 0xC07 PUSH2 0xB11 DUP6 PUSH20 0xFFFFFFFFFFFFFFFFFFFFFFFFFFFFFFFFFFFFFFFF AND PUSH4 0xD21220A7 PUSH1 0x40 MLOAD DUP2 PUSH4 0xFFFFFFFF AND PUSH1 0xE0 SHL DUP2 MSTORE PUSH1 0x4 ADD PUSH1 0x20 PUSH1 0x40 MLOAD DUP1 DUP4 SUB DUP2 DUP7 GAS STATICCALL ISZERO DUP1 ISZERO PUSH2 0xAE8 JUMPI RETURNDATASIZE PUSH1 0x0 DUP1 RETURNDATACOPY RETURNDATASIZE PUSH1 0x0 REVERT JUMPDEST POP POP POP POP PUSH1 0x40 MLOAD RETURNDATASIZE PUSH1 0x1F NOT PUSH1 0x1F DUP3 ADD AND DUP3 ADD DUP1 PUSH1 0x40 MSTORE POP DUP2 ADD SWAP1 PUSH2 0xB0C SWAP2 SWAP1 PUSH2 0x1DB8 JUMP JUMPDEST PUSH2 0x263 JUMP JUMPDEST DUP6 PUSH20 0xFFFFFFFFFFFFFFFFFFFFFFFFFFFFFFFFFFFFFFFF AND PUSH4 0xD21220A7 PUSH1 0x40 MLOAD DUP2 PUSH4 0xFFFFFFFF AND PUSH1 0xE0 SHL DUP2 MSTORE PUSH1 0x4 ADD PUSH1 0x20 PUSH1 0x40 MLOAD DUP1 DUP4 SUB DUP2 DUP7 GAS STATICCALL ISZERO DUP1 ISZERO PUSH2 0xB5C JUMPI RETURNDATASIZE PUSH1 0x0 DUP1 RETURNDATACOPY RETURNDATASIZE PUSH1 0x0 REVERT JUMPDEST POP POP POP POP PUSH1 0x40 MLOAD RETURNDATASIZE PUSH1 0x1F NOT PUSH1 0x1F DUP3 ADD AND DUP3 ADD DUP1 PUSH1 0x40 MSTORE POP DUP2 ADD SWAP1 PUSH2 0xB80 SWAP2 SWAP1 PUSH2 0x1DB8 JUMP JUMPDEST PUSH20 0xFFFFFFFFFFFFFFFFFFFFFFFFFFFFFFFFFFFFFFFF AND PUSH4 0x70A08231 DUP8 PUSH1 0x40 MLOAD DUP3 PUSH4 0xFFFFFFFF AND PUSH1 0xE0 SHL DUP2 MSTORE PUSH1 0x4 ADD PUSH2 0xBB8 SWAP2 SWAP1 PUSH2 0x194F JUMP JUMPDEST PUSH1 0x20 PUSH1 0x40 MLOAD DUP1 DUP4 SUB DUP2 DUP7 GAS STATICCALL ISZERO DUP1 ISZERO PUSH2 0xBD5 JUMPI RETURNDATASIZE PUSH1 0x0 DUP1 RETURNDATACOPY RETURNDATASIZE PUSH1 0x0 REVERT JUMPDEST POP POP POP POP PUSH1 0x40 MLOAD RETURNDATASIZE PUSH1 0x1F NOT PUSH1 0x1F DUP3 ADD AND DUP3 ADD DUP1 PUSH1 0x40 MSTORE POP DUP2 ADD SWAP1 PUSH2 0xBF9 SWAP2 SWAP1 PUSH2 0x1DE5 JUMP JUMPDEST PUSH2 0x1537 SWAP1 SWAP2 SWAP1 PUSH4 0xFFFFFFFF AND JUMP JUMPDEST SWAP1 POP JUMPDEST PUSH2 0xC9D DUP5 PUSH20 0xFFFFFFFFFFFFFFFFFFFFFFFFFFFFFFFFFFFFFFFF AND PUSH4 0x18160DDD PUSH1 0x40 MLOAD DUP2 PUSH4 0xFFFFFFFF AND PUSH1 0xE0 SHL DUP2 MSTORE PUSH1 0x4 ADD PUSH1 0x20 PUSH1 0x40 MLOAD DUP1 DUP4 SUB DUP2 DUP7 GAS STATICCALL ISZERO DUP1 ISZERO PUSH2 0xC58 JUMPI RETURNDATASIZE PUSH1 0x0 DUP1 RETURNDATACOPY RETURNDATASIZE PUSH1 0x0 REVERT JUMPDEST POP POP POP POP PUSH1 0x40 MLOAD RETURNDATASIZE PUSH1 0x1F NOT PUSH1 0x1F DUP3 ADD AND DUP3 ADD DUP1 PUSH1 0x40 MSTORE POP DUP2 ADD SWAP1 PUSH2 0xC7C SWAP2 SWAP1 PUSH2 0x1DE5 JUMP JUMPDEST PUSH2 0xC8F DUP4 DUP6 PUSH2 0x15B1 SWAP1 SWAP2 SWAP1 PUSH4 0xFFFFFFFF AND JUMP JUMPDEST PUSH2 0x160F SWAP1 SWAP2 SWAP1 PUSH4 0xFFFFFFFF AND JUMP JUMPDEST SWAP3 POP POP POP SWAP2 SWAP1 POP JUMP JUMPDEST PUSH1 0x4 PUSH1 0x0 SWAP1 SLOAD SWAP1 PUSH2 0x100 EXP SWAP1 DIV PUSH20 0xFFFFFFFFFFFFFFFFFFFFFFFFFFFFFFFFFFFFFFFF AND DUP2 JUMP JUMPDEST PUSH1 0x0 DUP1 PUSH1 0x2 PUSH8 0xFFFFFFFFFFFFFFFF DUP2 GT ISZERO PUSH2 0xCEA JUMPI PUSH2 0xCE9 PUSH2 0x1AA6 JUMP JUMPDEST JUMPDEST PUSH1 0x40 MLOAD SWAP1 DUP1 DUP3 MSTORE DUP1 PUSH1 0x20 MUL PUSH1 0x20 ADD DUP3 ADD PUSH1 0x40 MSTORE DUP1 ISZERO PUSH2 0xD18 JUMPI DUP2 PUSH1 0x20 ADD PUSH1 0x20 DUP3 MUL DUP1 CALLDATASIZE DUP4 CALLDATACOPY DUP1 DUP3 ADD SWAP2 POP POP SWAP1 POP JUMPDEST POP SWAP1 POP DUP3 DUP2 PUSH1 0x0 DUP2 MLOAD DUP2 LT PUSH2 0xD30 JUMPI PUSH2 0xD2F PUSH2 0x1AD5 JUMP JUMPDEST JUMPDEST PUSH1 0x20 MUL PUSH1 0x20 ADD ADD SWAP1 PUSH20 0xFFFFFFFFFFFFFFFFFFFFFFFFFFFFFFFFFFFFFFFF AND SWAP1 DUP2 PUSH20 0xFFFFFFFFFFFFFFFFFFFFFFFFFFFFFFFFFFFFFFFF AND DUP2 MSTORE POP POP PUSH1 0x2 PUSH1 0x0 SWAP1 SLOAD SWAP1 PUSH2 0x100 EXP SWAP1 DIV PUSH20 0xFFFFFFFFFFFFFFFFFFFFFFFFFFFFFFFFFFFFFFFF AND DUP2 PUSH1 0x1 DUP2 MLOAD DUP2 LT PUSH2 0xDA1 JUMPI PUSH2 0xDA0 PUSH2 0x1AD5 JUMP JUMPDEST JUMPDEST PUSH1 0x20 MUL PUSH1 0x20 ADD ADD SWAP1 PUSH20 0xFFFFFFFFFFFFFFFFFFFFFFFFFFFFFFFFFFFFFFFF AND SWAP1 DUP2 PUSH20 0xFFFFFFFFFFFFFFFFFFFFFFFFFFFFFFFFFFFFFFFF AND DUP2 MSTORE POP POP PUSH1 0x4 PUSH1 0x0 SWAP1 SLOAD SWAP1 PUSH2 0x100 EXP SWAP1 DIV PUSH20 0xFFFFFFFFFFFFFFFFFFFFFFFFFFFFFFFFFFFFFFFF AND PUSH20 0xFFFFFFFFFFFFFFFFFFFFFFFFFFFFFFFFFFFFFFFF AND PUSH4 0xD06CA61F PUSH1 0x3 SLOAD DUP4 PUSH1 0x40 MLOAD DUP4 PUSH4 0xFFFFFFFF AND PUSH1 0xE0 SHL DUP2 MSTORE PUSH1 0x4 ADD PUSH2 0xE3A SWAP3 SWAP2 SWAP1 PUSH2 0x1BC2 JUMP JUMPDEST PUSH1 0x0 PUSH1 0x40 MLOAD DUP1 DUP4 SUB DUP2 DUP7 GAS STATICCALL ISZERO DUP1 ISZERO PUSH2 0xE57 JUMPI RETURNDATASIZE PUSH1 0x0 DUP1 RETURNDATACOPY RETURNDATASIZE PUSH1 0x0 REVERT JUMPDEST POP POP POP POP PUSH1 0x40 MLOAD RETURNDATASIZE PUSH1 0x0 DUP3 RETURNDATACOPY RETURNDATASIZE PUSH1 0x1F NOT PUSH1 0x1F DUP3 ADD AND DUP3 ADD DUP1 PUSH1 0x40 MSTORE POP DUP2 ADD SWAP1 PUSH2 0xE80 SWAP2 SWAP1 PUSH2 0x1D31 JUMP JUMPDEST PUSH1 0x1 DUP2 MLOAD DUP2 LT PUSH2 0xE93 JUMPI PUSH2 0xE92 PUSH2 0x1AD5 JUMP JUMPDEST JUMPDEST PUSH1 0x20 MUL PUSH1 0x20 ADD ADD MLOAD SWAP2 POP POP SWAP2 SWAP1 POP JUMP JUMPDEST PUSH1 0x2 PUSH1 0x0 SWAP1 SLOAD SWAP1 PUSH2 0x100 EXP SWAP1 DIV PUSH20 0xFFFFFFFFFFFFFFFFFFFFFFFFFFFFFFFFFFFFFFFF AND DUP2 JUMP JUMPDEST PUSH2 0xED1 PUSH2 0x1659 JUMP JUMPDEST PUSH20 0xFFFFFFFFFFFFFFFFFFFFFFFFFFFFFFFFFFFFFFFF AND PUSH2 0xEEF PUSH2 0xF51 JUMP JUMPDEST PUSH20 0xFFFFFFFFFFFFFFFFFFFFFFFFFFFFFFFFFFFFFFFF AND EQ PUSH2 0xF45 JUMPI PUSH1 0x40 MLOAD PUSH32 0x8C379A000000000000000000000000000000000000000000000000000000000 DUP2 MSTORE PUSH1 0x4 ADD PUSH2 0xF3C SWAP1 PUSH2 0x1E6F JUMP JUMPDEST PUSH1 0x40 MLOAD DUP1 SWAP2 SUB SWAP1 REVERT JUMPDEST PUSH2 0xF4F PUSH1 0x0 PUSH2 0x1661 JUMP JUMPDEST JUMP JUMPDEST PUSH1 0x0 DUP1 PUSH1 0x0 SWAP1 SLOAD SWAP1 PUSH2 0x100 EXP SWAP1 DIV PUSH20 0xFFFFFFFFFFFFFFFFFFFFFFFFFFFFFFFFFFFFFFFF AND SWAP1 POP SWAP1 JUMP JUMPDEST PUSH1 0x1 PUSH1 0x0 SWAP1 SLOAD SWAP1 PUSH2 0x100 EXP SWAP1 DIV PUSH20 0xFFFFFFFFFFFFFFFFFFFFFFFFFFFFFFFFFFFFFFFF AND DUP2 JUMP JUMPDEST PUSH2 0xFA8 PUSH2 0x1659 JUMP JUMPDEST PUSH20 0xFFFFFFFFFFFFFFFFFFFFFFFFFFFFFFFFFFFFFFFF AND PUSH2 0xFC6 PUSH2 0xF51 JUMP JUMPDEST PUSH20 0xFFFFFFFFFFFFFFFFFFFFFFFFFFFFFFFFFFFFFFFF AND EQ PUSH2 0x101C JUMPI PUSH1 0x40 MLOAD PUSH32 0x8C379A000000000000000000000000000000000000000000000000000000000 DUP2 MSTORE PUSH1 0x4 ADD PUSH2 0x1013 SWAP1 PUSH2 0x1E6F JUMP JUMPDEST PUSH1 0x40 MLOAD DUP1 SWAP2 SUB SWAP1 REVERT JUMPDEST DUP1 PUSH1 0x4 PUSH1 0x0 PUSH2 0x100 EXP DUP2 SLOAD DUP2 PUSH20 0xFFFFFFFFFFFFFFFFFFFFFFFFFFFFFFFFFFFFFFFF MUL NOT AND SWAP1 DUP4 PUSH20 0xFFFFFFFFFFFFFFFFFFFFFFFFFFFFFFFFFFFFFFFF AND MUL OR SWAP1 SSTORE POP POP JUMP JUMPDEST PUSH1 0x0 DUP1 DUP3 PUSH20 0xFFFFFFFFFFFFFFFFFFFFFFFFFFFFFFFFFFFFFFFF AND PUSH4 0x6A6D964E DUP8 PUSH1 0x40 MLOAD DUP3 PUSH4 0xFFFFFFFF AND PUSH1 0xE0 SHL DUP2 MSTORE PUSH1 0x4 ADD PUSH2 0x109C SWAP2 SWAP1 PUSH2 0x1840 JUMP JUMPDEST PUSH1 0x20 PUSH1 0x40 MLOAD DUP1 DUP4 SUB DUP2 DUP7 GAS STATICCALL ISZERO DUP1 ISZERO PUSH2 0x10B9 JUMPI RETURNDATASIZE PUSH1 0x0 DUP1 RETURNDATACOPY RETURNDATASIZE PUSH1 0x0 REVERT JUMPDEST POP POP POP POP PUSH1 0x40 MLOAD RETURNDATASIZE PUSH1 0x1F NOT PUSH1 0x1F DUP3 ADD AND DUP3 ADD DUP1 PUSH1 0x40 MSTORE POP DUP2 ADD SWAP1 PUSH2 0x10DD SWAP2 SWAP1 PUSH2 0x1DE5 JUMP JUMPDEST SWAP1 POP PUSH1 0x0 DUP1 DUP6 SUB PUSH2 0x10F8 JUMPI PUSH2 0x10F1 DUP7 PUSH2 0x4AB JUMP JUMPDEST SWAP1 POP PUSH2 0x1173 JUMP JUMPDEST PUSH1 0x1 DUP6 SUB PUSH2 0x1172 JUMPI DUP6 PUSH20 0xFFFFFFFFFFFFFFFFFFFFFFFFFFFFFFFFFFFFFFFF AND PUSH1 0x1 PUSH1 0x0 SWAP1 SLOAD SWAP1 PUSH2 0x100 EXP SWAP1 DIV PUSH20 0xFFFFFFFFFFFFFFFFFFFFFFFFFFFFFFFFFFFFFFFF AND PUSH20 0xFFFFFFFFFFFFFFFFFFFFFFFFFFFFFFFFFFFFFFFF AND SUB PUSH2 0x1165 JUMPI PUSH2 0x115E DUP7 PUSH2 0xCCC JUMP JUMPDEST SWAP1 POP PUSH2 0x1171 JUMP JUMPDEST PUSH2 0x116E DUP7 PUSH2 0x263 JUMP JUMPDEST SWAP1 POP JUMPDEST JUMPDEST JUMPDEST PUSH2 0x1193 PUSH1 0x3 SLOAD DUP3 DUP5 PUSH2 0x1185 SWAP2 SWAP1 PUSH2 0x1EBE JUMP JUMPDEST PUSH2 0x160F SWAP1 SWAP2 SWAP1 PUSH4 0xFFFFFFFF AND JUMP JUMPDEST SWAP3 POP POP POP SWAP5 SWAP4 POP POP POP POP JUMP JUMPDEST PUSH1 0x0 DUP1 DUP3 PUSH20 0xFFFFFFFFFFFFFFFFFFFFFFFFFFFFFFFFFFFFFFFF AND PUSH4 0x1526FE27 DUP8 PUSH1 0x40 MLOAD DUP3 PUSH4 0xFFFFFFFF AND PUSH1 0xE0 SHL DUP2 MSTORE PUSH1 0x4 ADD PUSH2 0x11DB SWAP2 SWAP1 PUSH2 0x1840 JUMP JUMPDEST PUSH1 0xC0 PUSH1 0x40 MLOAD DUP1 DUP4 SUB DUP2 DUP7 GAS STATICCALL ISZERO DUP1 ISZERO PUSH2 0x11F8 JUMPI RETURNDATASIZE PUSH1 0x0 DUP1 RETURNDATACOPY RETURNDATASIZE PUSH1 0x0 REVERT JUMPDEST POP POP POP POP PUSH1 0x40 MLOAD RETURNDATASIZE PUSH1 0x1F NOT PUSH1 0x1F DUP3 ADD AND DUP3 ADD DUP1 PUSH1 0x40 MSTORE POP DUP2 ADD SWAP1 PUSH2 0x121C SWAP2 SWAP1 PUSH2 0x1FFB JUMP JUMPDEST SWAP1 POP PUSH1 0x0 PUSH2 0x12B9 DUP5 PUSH20 0xFFFFFFFFFFFFFFFFFFFFFFFFFFFFFFFFFFFFFFFF AND PUSH4 0x17CAF6F1 PUSH1 0x40 MLOAD DUP2 PUSH4 0xFFFFFFFF AND PUSH1 0xE0 SHL DUP2 MSTORE PUSH1 0x4 ADD PUSH1 0x20 PUSH1 0x40 MLOAD DUP1 DUP4 SUB DUP2 DUP7 GAS STATICCALL ISZERO DUP1 ISZERO PUSH2 0x126E JUMPI RETURNDATASIZE PUSH1 0x0 DUP1 RETURNDATACOPY RETURNDATASIZE PUSH1 0x0 REVERT JUMPDEST POP POP POP POP PUSH1 0x40 MLOAD RETURNDATASIZE PUSH1 0x1F NOT PUSH1 0x1F DUP3 ADD AND DUP3 ADD DUP1 PUSH1 0x40 MSTORE POP DUP2 ADD SWAP1 PUSH2 0x1292 SWAP2 SWAP1 PUSH2 0x1DE5 JUMP JUMPDEST PUSH2 0x12AB PUSH1 0x3 SLOAD DUP6 PUSH1 0x20 ADD MLOAD PUSH2 0x1537 SWAP1 SWAP2 SWAP1 PUSH4 0xFFFFFFFF AND JUMP JUMPDEST PUSH2 0x160F SWAP1 SWAP2 SWAP1 PUSH4 0xFFFFFFFF AND JUMP JUMPDEST SWAP1 POP PUSH1 0x0 PUSH2 0x1334 DUP6 PUSH20 0xFFFFFFFFFFFFFFFFFFFFFFFFFFFFFFFFFFFFFFFF AND PUSH4 0x141AA0BA PUSH1 0x40 MLOAD DUP2 PUSH4 0xFFFFFFFF AND PUSH1 0xE0 SHL DUP2 MSTORE PUSH1 0x4 ADD PUSH1 0x20 PUSH1 0x40 MLOAD DUP1 DUP4 SUB DUP2 DUP7 GAS STATICCALL ISZERO DUP1 ISZERO PUSH2 0x130B JUMPI RETURNDATASIZE PUSH1 0x0 DUP1 RETURNDATACOPY RETURNDATASIZE PUSH1 0x0 REVERT JUMPDEST POP POP POP POP PUSH1 0x40 MLOAD RETURNDATASIZE PUSH1 0x1F NOT PUSH1 0x1F DUP3 ADD AND DUP3 ADD DUP1 PUSH1 0x40 MSTORE POP DUP2 ADD SWAP1 PUSH2 0x132F SWAP2 SWAP1 PUSH2 0x203D JUMP JUMPDEST PUSH2 0x263 JUMP JUMPDEST SWAP1 POP PUSH1 0x0 PUSH2 0x13BB DUP7 PUSH20 0xFFFFFFFFFFFFFFFFFFFFFFFFFFFFFFFFFFFFFFFF AND PUSH4 0xA1EEF821 PUSH1 0x40 MLOAD DUP2 PUSH4 0xFFFFFFFF AND PUSH1 0xE0 SHL DUP2 MSTORE PUSH1 0x4 ADD PUSH1 0x20 PUSH1 0x40 MLOAD DUP1 DUP4 SUB DUP2 DUP7 GAS STATICCALL ISZERO DUP1 ISZERO PUSH2 0x1386 JUMPI RETURNDATASIZE PUSH1 0x0 DUP1 RETURNDATACOPY RETURNDATASIZE PUSH1 0x0 REVERT JUMPDEST POP POP POP POP PUSH1 0x40 MLOAD RETURNDATASIZE PUSH1 0x1F NOT PUSH1 0x1F DUP3 ADD AND DUP3 ADD DUP1 PUSH1 0x40 MSTORE POP DUP2 ADD SWAP1 PUSH2 0x13AA SWAP2 SWAP1 PUSH2 0x1DE5 JUMP JUMPDEST PUSH1 0x5 SLOAD PUSH2 0x1537 SWAP1 SWAP2 SWAP1 PUSH4 0xFFFFFFFF AND JUMP JUMPDEST SWAP1 POP PUSH1 0x0 PUSH2 0x13E6 PUSH1 0x3 SLOAD PUSH2 0x13D8 DUP7 DUP6 PUSH2 0x1537 SWAP1 SWAP2 SWAP1 PUSH4 0xFFFFFFFF AND JUMP JUMPDEST PUSH2 0x160F SWAP1 SWAP2 SWAP1 PUSH4 0xFFFFFFFF AND JUMP JUMPDEST SWAP1 POP PUSH1 0x0 PUSH2 0x13F6 DUP12 DUP12 DUP12 DUP12 PUSH2 0x1060 JUMP JUMPDEST SWAP1 POP PUSH2 0x1430 PUSH1 0x64 PUSH2 0x1422 DUP4 PUSH2 0x1414 DUP9 DUP8 PUSH2 0x1537 SWAP1 SWAP2 SWAP1 PUSH4 0xFFFFFFFF AND JUMP JUMPDEST PUSH2 0x160F SWAP1 SWAP2 SWAP1 PUSH4 0xFFFFFFFF AND JUMP JUMPDEST PUSH2 0x1537 SWAP1 SWAP2 SWAP1 PUSH4 0xFFFFFFFF AND JUMP JUMPDEST SWAP7 POP POP POP POP POP POP POP SWAP5 SWAP4 POP POP POP POP JUMP JUMPDEST PUSH2 0x1448 PUSH2 0x1659 JUMP JUMPDEST PUSH20 0xFFFFFFFFFFFFFFFFFFFFFFFFFFFFFFFFFFFFFFFF AND PUSH2 0x1466 PUSH2 0xF51 JUMP JUMPDEST PUSH20 0xFFFFFFFFFFFFFFFFFFFFFFFFFFFFFFFFFFFFFFFF AND EQ PUSH2 0x14BC JUMPI PUSH1 0x40 MLOAD PUSH32 0x8C379A000000000000000000000000000000000000000000000000000000000 DUP2 MSTORE PUSH1 0x4 ADD PUSH2 0x14B3 SWAP1 PUSH2 0x1E6F JUMP JUMPDEST PUSH1 0x40 MLOAD DUP1 SWAP2 SUB SWAP1 REVERT JUMPDEST PUSH1 0x0 PUSH20 0xFFFFFFFFFFFFFFFFFFFFFFFFFFFFFFFFFFFFFFFF AND DUP2 PUSH20 0xFFFFFFFFFFFFFFFFFFFFFFFFFFFFFFFFFFFFFFFF AND SUB PUSH2 0x152B JUMPI PUSH1 0x40 MLOAD PUSH32 0x8C379A000000000000000000000000000000000000000000000000000000000 DUP2 MSTORE PUSH1 0x4 ADD PUSH2 0x1522 SWAP1 PUSH2 0x20DC JUMP JUMPDEST PUSH1 0x40 MLOAD DUP1 SWAP2 SUB SWAP1 REVERT JUMPDEST PUSH2 0x1534 DUP2 PUSH2 0x1661 JUMP JUMPDEST POP JUMP JUMPDEST PUSH1 0x0 DUP1 DUP4 SUB PUSH2 0x1549 JUMPI PUSH1 0x0 SWAP1 POP PUSH2 0x15AB JUMP JUMPDEST PUSH1 0x0 DUP3 DUP5 PUSH2 0x1557 SWAP2 SWAP1 PUSH2 0x1EBE JUMP JUMPDEST SWAP1 POP DUP3 DUP5 DUP3 PUSH2 0x1566 SWAP2 SWAP1 PUSH2 0x212B JUMP JUMPDEST EQ PUSH2 0x15A6 JUMPI PUSH1 0x40 MLOAD PUSH32 0x8C379A000000000000000000000000000000000000000000000000000000000 DUP2 MSTORE PUSH1 0x4 ADD PUSH2 0x159D SWAP1 PUSH2 0x21CE JUMP JUMPDEST PUSH1 0x40 MLOAD DUP1 SWAP2 SUB SWAP1 REVERT JUMPDEST DUP1 SWAP2 POP POP JUMPDEST SWAP3 SWAP2 POP POP JUMP JUMPDEST PUSH1 0x0 DUP1 DUP3 DUP5 PUSH2 0x15C0 SWAP2 SWAP1 PUSH2 0x21EE JUMP JUMPDEST SWAP1 POP DUP4 DUP2 LT ISZERO PUSH2 0x1605 JUMPI PUSH1 0x40 MLOAD PUSH32 0x8C379A000000000000000000000000000000000000000000000000000000000 DUP2 MSTORE PUSH1 0x4 ADD PUSH2 0x15FC SWAP1 PUSH2 0x2290 JUMP JUMPDEST PUSH1 0x40 MLOAD DUP1 SWAP2 SUB SWAP1 REVERT JUMPDEST DUP1 SWAP2 POP POP SWAP3 SWAP2 POP POP JUMP JUMPDEST PUSH1 0x0 PUSH2 0x1651 DUP4 DUP4 PUSH1 0x40 MLOAD DUP1 PUSH1 0x40 ADD PUSH1 0x40 MSTORE DUP1 PUSH1 0x1A DUP2 MSTORE PUSH1 0x20 ADD PUSH32 0x536166654D6174683A206469766973696F6E206279207A65726F000000000000 DUP2 MSTORE POP PUSH2 0x1725 JUMP JUMPDEST SWAP1 POP SWAP3 SWAP2 POP POP JUMP JUMPDEST PUSH1 0x0 CALLER SWAP1 POP SWAP1 JUMP JUMPDEST PUSH1 0x0 DUP1 PUSH1 0x0 SWAP1 SLOAD SWAP1 PUSH2 0x100 EXP SWAP1 DIV PUSH20 0xFFFFFFFFFFFFFFFFFFFFFFFFFFFFFFFFFFFFFFFF AND SWAP1 POP DUP2 PUSH1 0x0 DUP1 PUSH2 0x100 EXP DUP2 SLOAD DUP2 PUSH20 0xFFFFFFFFFFFFFFFFFFFFFFFFFFFFFFFFFFFFFFFF MUL NOT AND SWAP1 DUP4 PUSH20 0xFFFFFFFFFFFFFFFFFFFFFFFFFFFFFFFFFFFFFFFF AND MUL OR SWAP1 SSTORE POP DUP2 PUSH20 0xFFFFFFFFFFFFFFFFFFFFFFFFFFFFFFFFFFFFFFFF AND DUP2 PUSH20 0xFFFFFFFFFFFFFFFFFFFFFFFFFFFFFFFFFFFFFFFF AND PUSH32 0x8BE0079C531659141344CD1FD0A4F28419497F9722A3DAAFE3B4186F6B6457E0 PUSH1 0x40 MLOAD PUSH1 0x40 MLOAD DUP1 SWAP2 SUB SWAP1 LOG3 POP POP JUMP JUMPDEST PUSH1 0x0 DUP1 DUP4 GT DUP3 SWAP1 PUSH2 0x176C JUMPI PUSH1 0x40 MLOAD PUSH32 0x8C379A000000000000000000000000000000000000000000000000000000000 DUP2 MSTORE PUSH1 0x4 ADD PUSH2 0x1763 SWAP2 SWAP1 PUSH2 0x2327 JUMP JUMPDEST PUSH1 0x40 MLOAD DUP1 SWAP2 SUB SWAP1 REVERT JUMPDEST POP PUSH1 0x0 DUP4 DUP6 PUSH2 0x177B SWAP2 SWAP1 PUSH2 0x212B JUMP JUMPDEST SWAP1 POP DUP1 SWAP2 POP POP SWAP4 SWAP3 POP POP POP JUMP JUMPDEST PUSH1 0x0 PUSH1 0x40 MLOAD SWAP1 POP SWAP1 JUMP JUMPDEST PUSH1 0x0 DUP1 REVERT JUMPDEST PUSH1 0x0 DUP1 REVERT JUMPDEST PUSH1 0x0 PUSH20 0xFFFFFFFFFFFFFFFFFFFFFFFFFFFFFFFFFFFFFFFF DUP3 AND SWAP1 POP SWAP2 SWAP1 POP JUMP JUMPDEST PUSH1 0x0 PUSH2 0x17C7 DUP3 PUSH2 0x179C JUMP JUMPDEST SWAP1 POP SWAP2 SWAP1 POP JUMP JUMPDEST PUSH2 0x17D7 DUP2 PUSH2 0x17BC JUMP JUMPDEST DUP2 EQ PUSH2 0x17E2 JUMPI PUSH1 0x0 DUP1 REVERT JUMPDEST POP JUMP JUMPDEST PUSH1 0x0 DUP2 CALLDATALOAD SWAP1 POP PUSH2 0x17F4 DUP2 PUSH2 0x17CE JUMP JUMPDEST SWAP3 SWAP2 POP POP JUMP JUMPDEST PUSH1 0x0 PUSH1 0x20 DUP3 DUP5 SUB SLT ISZERO PUSH2 0x1810 JUMPI PUSH2 0x180F PUSH2 0x1792 JUMP JUMPDEST JUMPDEST PUSH1 0x0 PUSH2 0x181E DUP5 DUP3 DUP6 ADD PUSH2 0x17E5 JUMP JUMPDEST SWAP2 POP POP SWAP3 SWAP2 POP POP JUMP JUMPDEST PUSH1 0x0 DUP2 SWAP1 POP SWAP2 SWAP1 POP JUMP JUMPDEST PUSH2 0x183A DUP2 PUSH2 0x1827 JUMP JUMPDEST DUP3 MSTORE POP POP JUMP JUMPDEST PUSH1 0x0 PUSH1 0x20 DUP3 ADD SWAP1 POP PUSH2 0x1855 PUSH1 0x0 DUP4 ADD DUP5 PUSH2 0x1831 JUMP JUMPDEST SWAP3 SWAP2 POP POP JUMP JUMPDEST PUSH1 0x0 PUSH2 0x1866 DUP3 PUSH2 0x17BC JUMP JUMPDEST SWAP1 POP SWAP2 SWAP1 POP JUMP JUMPDEST PUSH2 0x1876 DUP2 PUSH2 0x185B JUMP JUMPDEST DUP2 EQ PUSH2 0x1881 JUMPI PUSH1 0x0 DUP1 REVERT JUMPDEST POP JUMP JUMPDEST PUSH1 0x0 DUP2 CALLDATALOAD SWAP1 POP PUSH2 0x1893 DUP2 PUSH2 0x186D JUMP JUMPDEST SWAP3 SWAP2 POP POP JUMP JUMPDEST PUSH1 0x0 PUSH1 0x20 DUP3 DUP5 SUB SLT ISZERO PUSH2 0x18AF JUMPI PUSH2 0x18AE PUSH2 0x1792 JUMP JUMPDEST JUMPDEST PUSH1 0x0 PUSH2 0x18BD DUP5 DUP3 DUP6 ADD PUSH2 0x1884 JUMP JUMPDEST SWAP2 POP POP SWAP3 SWAP2 POP POP JUMP JUMPDEST PUSH1 0x0 DUP2 SWAP1 POP SWAP2 SWAP1 POP JUMP JUMPDEST PUSH1 0x0 PUSH2 0x18EB PUSH2 0x18E6 PUSH2 0x18E1 DUP5 PUSH2 0x179C JUMP JUMPDEST PUSH2 0x18C6 JUMP JUMPDEST PUSH2 0x179C JUMP JUMPDEST SWAP1 POP SWAP2 SWAP1 POP JUMP JUMPDEST PUSH1 0x0 PUSH2 0x18FD DUP3 PUSH2 0x18D0 JUMP JUMPDEST SWAP1 POP SWAP2 SWAP1 POP JUMP JUMPDEST PUSH1 0x0 PUSH2 0x190F DUP3 PUSH2 0x18F2 JUMP JUMPDEST SWAP1 POP SWAP2 SWAP1 POP JUMP JUMPDEST PUSH2 0x191F DUP2 PUSH2 0x1904 JUMP JUMPDEST DUP3 MSTORE POP POP JUMP JUMPDEST PUSH1 0x0 PUSH1 0x20 DUP3 ADD SWAP1 POP PUSH2 0x193A PUSH1 0x0 DUP4 ADD DUP5 PUSH2 0x1916 JUMP JUMPDEST SWAP3 SWAP2 POP POP JUMP JUMPDEST PUSH2 0x1949 DUP2 PUSH2 0x17BC JUMP JUMPDEST DUP3 MSTORE POP POP JUMP JUMPDEST PUSH1 0x0 PUSH1 0x20 DUP3 ADD SWAP1 POP PUSH2 0x1964 PUSH1 0x0 DUP4 ADD DUP5 PUSH2 0x1940 JUMP JUMPDEST SWAP3 SWAP2 POP POP JUMP JUMPDEST PUSH1 0x0 PUSH2 0x1975 DUP3 PUSH2 0x17BC JUMP JUMPDEST SWAP1 POP SWAP2 SWAP1 POP JUMP JUMPDEST PUSH2 0x1985 DUP2 PUSH2 0x196A JUMP JUMPDEST DUP2 EQ PUSH2 0x1990 JUMPI PUSH1 0x0 DUP1 REVERT JUMPDEST POP JUMP JUMPDEST PUSH1 0x0 DUP2 CALLDATALOAD SWAP1 POP PUSH2 0x19A2 DUP2 PUSH2 0x197C JUMP JUMPDEST SWAP3 SWAP2 POP POP JUMP JUMPDEST PUSH1 0x0 PUSH1 0x20 DUP3 DUP5 SUB SLT ISZERO PUSH2 0x19BE JUMPI PUSH2 0x19BD PUSH2 0x1792 JUMP JUMPDEST JUMPDEST PUSH1 0x0 PUSH2 0x19CC DUP5 DUP3 DUP6 ADD PUSH2 0x1993 JUMP JUMPDEST SWAP2 POP POP SWAP3 SWAP2 POP POP JUMP JUMPDEST PUSH2 0x19DE DUP2 PUSH2 0x1827 JUMP JUMPDEST DUP2 EQ PUSH2 0x19E9 JUMPI PUSH1 0x0 DUP1 REVERT JUMPDEST POP JUMP JUMPDEST PUSH1 0x0 DUP2 CALLDATALOAD SWAP1 POP PUSH2 0x19FB DUP2 PUSH2 0x19D5 JUMP JUMPDEST SWAP3 SWAP2 POP POP JUMP JUMPDEST PUSH1 0x0 PUSH2 0x1A0C DUP3 PUSH2 0x17BC JUMP JUMPDEST SWAP1 POP SWAP2 SWAP1 POP JUMP JUMPDEST PUSH2 0x1A1C DUP2 PUSH2 0x1A01 JUMP JUMPDEST DUP2 EQ PUSH2 0x1A27 JUMPI PUSH1 0x0 DUP1 REVERT JUMPDEST POP JUMP JUMPDEST PUSH1 0x0 DUP2 CALLDATALOAD SWAP1 POP PUSH2 0x1A39 DUP2 PUSH2 0x1A13 JUMP JUMPDEST SWAP3 SWAP2 POP POP JUMP JUMPDEST PUSH1 0x0 DUP1 PUSH1 0x0 DUP1 PUSH1 0x80 DUP6 DUP8 SUB SLT ISZERO PUSH2 0x1A59 JUMPI PUSH2 0x1A58 PUSH2 0x1792 JUMP JUMPDEST JUMPDEST PUSH1 0x0 PUSH2 0x1A67 DUP8 DUP3 DUP9 ADD PUSH2 0x19EC JUMP JUMPDEST SWAP5 POP POP PUSH1 0x20 PUSH2 0x1A78 DUP8 DUP3 DUP9 ADD PUSH2 0x1884 JUMP JUMPDEST SWAP4 POP POP PUSH1 0x40 PUSH2 0x1A89 DUP8 DUP3 DUP9 ADD PUSH2 0x19EC JUMP JUMPDEST SWAP3 POP POP PUSH1 0x60 PUSH2 0x1A9A DUP8 DUP3 DUP9 ADD PUSH2 0x1A2A JUMP JUMPDEST SWAP2 POP POP SWAP3 SWAP6 SWAP2 SWAP5 POP SWAP3 POP JUMP JUMPDEST PUSH32 0x4E487B7100000000000000000000000000000000000000000000000000000000 PUSH1 0x0 MSTORE PUSH1 0x41 PUSH1 0x4 MSTORE PUSH1 0x24 PUSH1 0x0 REVERT JUMPDEST PUSH32 0x4E487B7100000000000000000000000000000000000000000000000000000000 PUSH1 0x0 MSTORE PUSH1 0x32 PUSH1 0x4 MSTORE PUSH1 0x24 PUSH1 0x0 REVERT JUMPDEST PUSH1 0x0 DUP2 MLOAD SWAP1 POP SWAP2 SWAP1 POP JUMP JUMPDEST PUSH1 0x0 DUP3 DUP3 MSTORE PUSH1 0x20 DUP3 ADD SWAP1 POP SWAP3 SWAP2 POP POP JUMP JUMPDEST PUSH1 0x0 DUP2 SWAP1 POP PUSH1 0x20 DUP3 ADD SWAP1 POP SWAP2 SWAP1 POP JUMP JUMPDEST PUSH2 0x1B39 DUP2 PUSH2 0x17BC JUMP JUMPDEST DUP3 MSTORE POP POP JUMP JUMPDEST PUSH1 0x0 PUSH2 0x1B4B DUP4 DUP4 PUSH2 0x1B30 JUMP JUMPDEST PUSH1 0x20 DUP4 ADD SWAP1 POP SWAP3 SWAP2 POP POP JUMP JUMPDEST PUSH1 0x0 PUSH1 0x20 DUP3 ADD SWAP1 POP SWAP2 SWAP1 POP JUMP JUMPDEST PUSH1 0x0 PUSH2 0x1B6F DUP3 PUSH2 0x1B04 JUMP JUMPDEST PUSH2 0x1B79 DUP2 DUP6 PUSH2 0x1B0F JUMP JUMPDEST SWAP4 POP PUSH2 0x1B84 DUP4 PUSH2 0x1B20 JUMP JUMPDEST DUP1 PUSH1 0x0 JUMPDEST DUP4 DUP2 LT ISZERO PUSH2 0x1BB5 JUMPI DUP2 MLOAD PUSH2 0x1B9C DUP9 DUP3 PUSH2 0x1B3F JUMP JUMPDEST SWAP8 POP PUSH2 0x1BA7 DUP4 PUSH2 0x1B57 JUMP JUMPDEST SWAP3 POP POP PUSH1 0x1 DUP2 ADD SWAP1 POP PUSH2 0x1B88 JUMP JUMPDEST POP DUP6 SWAP4 POP POP POP POP SWAP3 SWAP2 POP POP JUMP JUMPDEST PUSH1 0x0 PUSH1 0x40 DUP3 ADD SWAP1 POP PUSH2 0x1BD7 PUSH1 0x0 DUP4 ADD DUP6 PUSH2 0x1831 JUMP JUMPDEST DUP2 DUP2 SUB PUSH1 0x20 DUP4 ADD MSTORE PUSH2 0x1BE9 DUP2 DUP5 PUSH2 0x1B64 JUMP JUMPDEST SWAP1 POP SWAP4 SWAP3 POP POP POP JUMP JUMPDEST PUSH1 0x0 DUP1 REVERT JUMPDEST PUSH1 0x0 PUSH1 0x1F NOT PUSH1 0x1F DUP4 ADD AND SWAP1 POP SWAP2 SWAP1 POP JUMP JUMPDEST PUSH2 0x1C11 DUP3 PUSH2 0x1BF7 JUMP JUMPDEST DUP2 ADD DUP2 DUP2 LT PUSH8 0xFFFFFFFFFFFFFFFF DUP3 GT OR ISZERO PUSH2 0x1C30 JUMPI PUSH2 0x1C2F PUSH2 0x1AA6 JUMP JUMPDEST JUMPDEST DUP1 PUSH1 0x40 MSTORE POP POP POP JUMP JUMPDEST PUSH1 0x0 PUSH2 0x1C43 PUSH2 0x1788 JUMP JUMPDEST SWAP1 POP PUSH2 0x1C4F DUP3 DUP3 PUSH2 0x1C08 JUMP JUMPDEST SWAP2 SWAP1 POP JUMP JUMPDEST PUSH1 0x0 PUSH8 0xFFFFFFFFFFFFFFFF DUP3 GT ISZERO PUSH2 0x1C6F JUMPI PUSH2 0x1C6E PUSH2 0x1AA6 JUMP JUMPDEST JUMPDEST PUSH1 0x20 DUP3 MUL SWAP1 POP PUSH1 0x20 DUP2 ADD SWAP1 POP SWAP2 SWAP1 POP JUMP JUMPDEST PUSH1 0x0 DUP1 REVERT JUMPDEST PUSH1 0x0 DUP2 MLOAD SWAP1 POP PUSH2 0x1C94 DUP2 PUSH2 0x19D5 JUMP JUMPDEST SWAP3 SWAP2 POP POP JUMP JUMPDEST PUSH1 0x0 PUSH2 0x1CAD PUSH2 0x1CA8 DUP5 PUSH2 0x1C54 JUMP JUMPDEST PUSH2 0x1C39 JUMP JUMPDEST SWAP1 POP DUP1 DUP4 DUP3 MSTORE PUSH1 0x20 DUP3 ADD SWAP1 POP PUSH1 0x20 DUP5 MUL DUP4 ADD DUP6 DUP2 GT ISZERO PUSH2 0x1CD0 JUMPI PUSH2 0x1CCF PUSH2 0x1C80 JUMP JUMPDEST JUMPDEST DUP4 JUMPDEST DUP2 DUP2 LT ISZERO PUSH2 0x1CF9 JUMPI DUP1 PUSH2 0x1CE5 DUP9 DUP3 PUSH2 0x1C85 JUMP JUMPDEST DUP5 MSTORE PUSH1 0x20 DUP5 ADD SWAP4 POP POP PUSH1 0x20 DUP2 ADD SWAP1 POP PUSH2 0x1CD2 JUMP JUMPDEST POP POP POP SWAP4 SWAP3 POP POP POP JUMP JUMPDEST PUSH1 0x0 DUP3 PUSH1 0x1F DUP4 ADD SLT PUSH2 0x1D18 JUMPI PUSH2 0x1D17 PUSH2 0x1BF2 JUMP JUMPDEST JUMPDEST DUP2 MLOAD PUSH2 0x1D28 DUP5 DUP3 PUSH1 0x20 DUP7 ADD PUSH2 0x1C9A JUMP JUMPDEST SWAP2 POP POP SWAP3 SWAP2 POP POP JUMP JUMPDEST PUSH1 0x0 PUSH1 0x20 DUP3 DUP5 SUB SLT ISZERO PUSH2 0x1D47 JUMPI PUSH2 0x1D46 PUSH2 0x1792 JUMP JUMPDEST JUMPDEST PUSH1 0x0 DUP3 ADD MLOAD PUSH8 0xFFFFFFFFFFFFFFFF DUP2 GT ISZERO PUSH2 0x1D65 JUMPI PUSH2 0x1D64 PUSH2 0x1797 JUMP JUMPDEST JUMPDEST PUSH2 0x1D71 DUP5 DUP3 DUP6 ADD PUSH2 0x1D03 JUMP JUMPDEST SWAP2 POP POP SWAP3 SWAP2 POP POP JUMP JUMPDEST PUSH1 0x0 PUSH2 0x1D85 DUP3 PUSH2 0x17BC JUMP JUMPDEST SWAP1 POP SWAP2 SWAP1 POP JUMP JUMPDEST PUSH2 0x1D95 DUP2 PUSH2 0x1D7A JUMP JUMPDEST DUP2 EQ PUSH2 0x1DA0 JUMPI PUSH1 0x0 DUP1 REVERT JUMPDEST POP JUMP JUMPDEST PUSH1 0x0 DUP2 MLOAD SWAP1 POP PUSH2 0x1DB2 DUP2 PUSH2 0x1D8C JUMP JUMPDEST SWAP3 SWAP2 POP POP JUMP JUMPDEST PUSH1 0x0 PUSH1 0x20 DUP3 DUP5 SUB SLT ISZERO PUSH2 0x1DCE JUMPI PUSH2 0x1DCD PUSH2 0x1792 JUMP JUMPDEST JUMPDEST PUSH1 0x0 PUSH2 0x1DDC DUP5 DUP3 DUP6 ADD PUSH2 0x1DA3 JUMP JUMPDEST SWAP2 POP POP SWAP3 SWAP2 POP POP JUMP JUMPDEST PUSH1 0x0 PUSH1 0x20 DUP3 DUP5 SUB SLT ISZERO PUSH2 0x1DFB JUMPI PUSH2 0x1DFA PUSH2 0x1792 JUMP JUMPDEST JUMPDEST PUSH1 0x0 PUSH2 0x1E09 DUP5 DUP3 DUP6 ADD PUSH2 0x1C85 JUMP JUMPDEST SWAP2 POP POP SWAP3 SWAP2 POP POP JUMP JUMPDEST PUSH1 0x0 DUP3 DUP3 MSTORE PUSH1 0x20 DUP3 ADD SWAP1 POP SWAP3 SWAP2 POP POP JUMP JUMPDEST PUSH32 0x4F776E61626C653A2063616C6C6572206973206E6F7420746865206F776E6572 PUSH1 0x0 DUP3 ADD MSTORE POP JUMP JUMPDEST PUSH1 0x0 PUSH2 0x1E59 PUSH1 0x20 DUP4 PUSH2 0x1E12 JUMP JUMPDEST SWAP2 POP PUSH2 0x1E64 DUP3 PUSH2 0x1E23 JUMP JUMPDEST PUSH1 0x20 DUP3 ADD SWAP1 POP SWAP2 SWAP1 POP JUMP JUMPDEST PUSH1 0x0 PUSH1 0x20 DUP3 ADD SWAP1 POP DUP2 DUP2 SUB PUSH1 0x0 DUP4 ADD MSTORE PUSH2 0x1E88 DUP2 PUSH2 0x1E4C JUMP JUMPDEST SWAP1 POP SWAP2 SWAP1 POP JUMP JUMPDEST PUSH32 0x4E487B7100000000000000000000000000000000000000000000000000000000 PUSH1 0x0 MSTORE PUSH1 0x11 PUSH1 0x4 MSTORE PUSH1 0x24 PUSH1 0x0 REVERT JUMPDEST PUSH1 0x0 PUSH2 0x1EC9 DUP3 PUSH2 0x1827 JUMP JUMPDEST SWAP2 POP PUSH2 0x1ED4 DUP4 PUSH2 0x1827 JUMP JUMPDEST SWAP3 POP DUP2 PUSH32 0xFFFFFFFFFFFFFFFFFFFFFFFFFFFFFFFFFFFFFFFFFFFFFFFFFFFFFFFFFFFFFFFF DIV DUP4 GT DUP3 ISZERO ISZERO AND ISZERO PUSH2 0x1F0D JUMPI PUSH2 0x1F0C PUSH2 0x1E8F JUMP JUMPDEST JUMPDEST DUP3 DUP3 MUL SWAP1 POP SWAP3 SWAP2 POP POP JUMP JUMPDEST PUSH1 0x0 DUP1 REVERT JUMPDEST PUSH1 0x0 PUSH2 0x1F28 DUP3 PUSH2 0x17BC JUMP JUMPDEST SWAP1 POP SWAP2 SWAP1 POP JUMP JUMPDEST PUSH2 0x1F38 DUP2 PUSH2 0x1F1D JUMP JUMPDEST DUP2 EQ PUSH2 0x1F43 JUMPI PUSH1 0x0 DUP1 REVERT JUMPDEST POP JUMP JUMPDEST PUSH1 0x0 DUP2 MLOAD SWAP1 POP PUSH2 0x1F55 DUP2 PUSH2 0x1F2F JUMP JUMPDEST SWAP3 SWAP2 POP POP JUMP JUMPDEST PUSH1 0x0 PUSH1 0xC0 DUP3 DUP5 SUB SLT ISZERO PUSH2 0x1F71 JUMPI PUSH2 0x1F70 PUSH2 0x1F18 JUMP JUMPDEST JUMPDEST PUSH2 0x1F7B PUSH1 0xC0 PUSH2 0x1C39 JUMP JUMPDEST SWAP1 POP PUSH1 0x0 PUSH2 0x1F8B DUP5 DUP3 DUP6 ADD PUSH2 0x1DA3 JUMP JUMPDEST PUSH1 0x0 DUP4 ADD MSTORE POP PUSH1 0x20 PUSH2 0x1F9F DUP5 DUP3 DUP6 ADD PUSH2 0x1C85 JUMP JUMPDEST PUSH1 0x20 DUP4 ADD MSTORE POP PUSH1 0x40 PUSH2 0x1FB3 DUP5 DUP3 DUP6 ADD PUSH2 0x1C85 JUMP JUMPDEST PUSH1 0x40 DUP4 ADD MSTORE POP PUSH1 0x60 PUSH2 0x1FC7 DUP5 DUP3 DUP6 ADD PUSH2 0x1C85 JUMP JUMPDEST PUSH1 0x60 DUP4 ADD MSTORE POP PUSH1 0x80 PUSH2 0x1FDB DUP5 DUP3 DUP6 ADD PUSH2 0x1F46 JUMP JUMPDEST PUSH1 0x80 DUP4 ADD MSTORE POP PUSH1 0xA0 PUSH2 0x1FEF DUP5 DUP3 DUP6 ADD PUSH2 0x1DA3 JUMP JUMPDEST PUSH1 0xA0 DUP4 ADD MSTORE POP SWAP3 SWAP2 POP POP JUMP JUMPDEST PUSH1 0x0 PUSH1 0xC0 DUP3 DUP5 SUB SLT ISZERO PUSH2 0x2011 JUMPI PUSH2 0x2010 PUSH2 0x1792 JUMP JUMPDEST JUMPDEST PUSH1 0x0 PUSH2 0x201F DUP5 DUP3 DUP6 ADD PUSH2 0x1F5B JUMP JUMPDEST SWAP2 POP POP SWAP3 SWAP2 POP POP JUMP JUMPDEST PUSH1 0x0 DUP2 MLOAD SWAP1 POP PUSH2 0x2037 DUP2 PUSH2 0x17CE JUMP JUMPDEST SWAP3 SWAP2 POP POP JUMP JUMPDEST PUSH1 0x0 PUSH1 0x20 DUP3 DUP5 SUB SLT ISZERO PUSH2 0x2053 JUMPI PUSH2 0x2052 PUSH2 0x1792 JUMP JUMPDEST JUMPDEST PUSH1 0x0 PUSH2 0x2061 DUP5 DUP3 DUP6 ADD PUSH2 0x2028 JUMP JUMPDEST SWAP2 POP POP SWAP3 SWAP2 POP POP JUMP JUMPDEST PUSH32 0x4F776E61626C653A206E6577206F776E657220697320746865207A65726F2061 PUSH1 0x0 DUP3 ADD MSTORE PUSH32 0x6464726573730000000000000000000000000000000000000000000000000000 PUSH1 0x20 DUP3 ADD MSTORE POP JUMP JUMPDEST PUSH1 0x0 PUSH2 0x20C6 PUSH1 0x26 DUP4 PUSH2 0x1E12 JUMP JUMPDEST SWAP2 POP PUSH2 0x20D1 DUP3 PUSH2 0x206A JUMP JUMPDEST PUSH1 0x40 DUP3 ADD SWAP1 POP SWAP2 SWAP1 POP JUMP JUMPDEST PUSH1 0x0 PUSH1 0x20 DUP3 ADD SWAP1 POP DUP2 DUP2 SUB PUSH1 0x0 DUP4 ADD MSTORE PUSH2 0x20F5 DUP2 PUSH2 0x20B9 JUMP JUMPDEST SWAP1 POP SWAP2 SWAP1 POP JUMP JUMPDEST PUSH32 0x4E487B7100000000000000000000000000000000000000000000000000000000 PUSH1 0x0 MSTORE PUSH1 0x12 PUSH1 0x4 MSTORE PUSH1 0x24 PUSH1 0x0 REVERT JUMPDEST PUSH1 0x0 PUSH2 0x2136 DUP3 PUSH2 0x1827 JUMP JUMPDEST SWAP2 POP PUSH2 0x2141 DUP4 PUSH2 0x1827 JUMP JUMPDEST SWAP3 POP DUP3 PUSH2 0x2151 JUMPI PUSH2 0x2150 PUSH2 0x20FC JUMP JUMPDEST JUMPDEST DUP3 DUP3 DIV SWAP1 POP SWAP3 SWAP2 POP POP JUMP JUMPDEST PUSH32 0x536166654D6174683A206D756C7469706C69636174696F6E206F766572666C6F PUSH1 0x0 DUP3 ADD MSTORE PUSH32 0x7700000000000000000000000000000000000000000000000000000000000000 PUSH1 0x20 DUP3 ADD MSTORE POP JUMP JUMPDEST PUSH1 0x0 PUSH2 0x21B8 PUSH1 0x21 DUP4 PUSH2 0x1E12 JUMP JUMPDEST SWAP2 POP PUSH2 0x21C3 DUP3 PUSH2 0x215C JUMP JUMPDEST PUSH1 0x40 DUP3 ADD SWAP1 POP SWAP2 SWAP1 POP JUMP JUMPDEST PUSH1 0x0 PUSH1 0x20 DUP3 ADD SWAP1 POP DUP2 DUP2 SUB PUSH1 0x0 DUP4 ADD MSTORE PUSH2 0x21E7 DUP2 PUSH2 0x21AB JUMP JUMPDEST SWAP1 POP SWAP2 SWAP1 POP JUMP JUMPDEST PUSH1 0x0 PUSH2 0x21F9 DUP3 PUSH2 0x1827 JUMP JUMPDEST SWAP2 POP PUSH2 0x2204 DUP4 PUSH2 0x1827 JUMP JUMPDEST SWAP3 POP DUP3 PUSH32 0xFFFFFFFFFFFFFFFFFFFFFFFFFFFFFFFFFFFFFFFFFFFFFFFFFFFFFFFFFFFFFFFF SUB DUP3 GT ISZERO PUSH2 0x2239 JUMPI PUSH2 0x2238 PUSH2 0x1E8F JUMP JUMPDEST JUMPDEST DUP3 DUP3 ADD SWAP1 POP SWAP3 SWAP2 POP POP JUMP JUMPDEST PUSH32 0x536166654D6174683A206164646974696F6E206F766572666C6F770000000000 PUSH1 0x0 DUP3 ADD MSTORE POP JUMP JUMPDEST PUSH1 0x0 PUSH2 0x227A PUSH1 0x1B DUP4 PUSH2 0x1E12 JUMP JUMPDEST SWAP2 POP PUSH2 0x2285 DUP3 PUSH2 0x2244 JUMP JUMPDEST PUSH1 0x20 DUP3 ADD SWAP1 POP SWAP2 SWAP1 POP JUMP JUMPDEST PUSH1 0x0 PUSH1 0x20 DUP3 ADD SWAP1 POP DUP2 DUP2 SUB PUSH1 0x0 DUP4 ADD MSTORE PUSH2 0x22A9 DUP2 PUSH2 0x226D JUMP JUMPDEST SWAP1 POP SWAP2 SWAP1 POP JUMP JUMPDEST PUSH1 0x0 DUP2 MLOAD SWAP1 POP SWAP2 SWAP1 POP JUMP JUMPDEST PUSH1 0x0 JUMPDEST DUP4 DUP2 LT ISZERO PUSH2 0x22D9 JUMPI DUP1 DUP3 ADD MLOAD DUP2 DUP5 ADD MSTORE PUSH1 0x20 DUP2 ADD SWAP1 POP PUSH2 0x22BE JUMP JUMPDEST DUP4 DUP2 GT ISZERO PUSH2 0x22E8 JUMPI PUSH1 0x0 DUP5 DUP5 ADD MSTORE JUMPDEST POP POP POP POP JUMP JUMPDEST PUSH1 0x0 PUSH2 0x22F9 DUP3 PUSH2 0x22B0 JUMP JUMPDEST PUSH2 0x2303 DUP2 DUP6 PUSH2 0x1E12 JUMP JUMPDEST SWAP4 POP PUSH2 0x2313 DUP2 DUP6 PUSH1 0x20 DUP7 ADD PUSH2 0x22BB JUMP JUMPDEST PUSH2 0x231C DUP2 PUSH2 0x1BF7 JUMP JUMPDEST DUP5 ADD SWAP2 POP POP SWAP3 SWAP2 POP POP JUMP JUMPDEST PUSH1 0x0 PUSH1 0x20 DUP3 ADD SWAP1 POP DUP2 DUP2 SUB PUSH1 0x0 DUP4 ADD MSTORE PUSH2 0x2341 DUP2 DUP5 PUSH2 0x22EE JUMP JUMPDEST SWAP1 POP SWAP3 SWAP2 POP POP JUMP INVALID LOG2 PUSH5 0x6970667358 0x22 SLT KECCAK256 0x4D 0xC1 LOG0 0xE6 CALLDATACOPY 0xF8 SWAP1 0x1F CREATE2 PUSH12 0x6FA622B05892DF05CD55D856 0xFB 0x2A OR 0xBE DELEGATECALL 0x5E SWAP5 0x29 SHR PUSH12 0x64736F6C634300080F003300 "
				},
				"gasEstimates": {
					"creation": {
						"codeDepositCost": "1817400",
						"executionCost": "infinite",
						"totalCost": "infinite"
					},
					"external": {
						"BUSD()": "2603",
						"CalcApy(uint256,address,uint256,address)": "infinite",
						"CalcLpPrice(address)": "infinite",
						"Tokenprice(address)": "infinite",
						"WBNB()": "2536",
						"WBNBPrice(address)": "infinite",
						"calcPoolTVLInUSD(uint256,address,uint256,address)": "infinite",
						"owner()": "2522",
						"renounceOwnership()": "30485",
						"routerAddress()": "infinite",
						"setRouter(address)": "27049",
						"transferOwnership(address)": "30830"
					}
				},
				"methodIdentifiers": {
					"BUSD()": "484f4ea9",
					"CalcApy(uint256,address,uint256,address)": "dbb79348",
					"CalcLpPrice(address)": "215cc989",
					"Tokenprice(address)": "19047f8a",
					"WBNB()": "8dd95002",
					"WBNBPrice(address)": "3b979d45",
					"calcPoolTVLInUSD(uint256,address,uint256,address)": "d979fb5f",
					"owner()": "8da5cb5b",
					"renounceOwnership()": "715018a6",
					"routerAddress()": "3268cc56",
					"setRouter(address)": "c0d78655",
					"transferOwnership(address)": "f2fde38b"
				}
			},
			"storageLayout": {
				"storage": [
					{
						"astId": 509,
						"contract": "contracts/Utils.sol:Utils",
						"label": "_owner",
						"offset": 0,
						"slot": "0",
						"type": "t_address"
					},
					{
						"astId": 753,
						"contract": "contracts/Utils.sol:Utils",
						"label": "WBNB",
						"offset": 0,
						"slot": "1",
						"type": "t_address"
					},
					{
						"astId": 756,
						"contract": "contracts/Utils.sol:Utils",
						"label": "BUSD",
						"offset": 0,
						"slot": "2",
						"type": "t_address"
					},
					{
						"astId": 759,
						"contract": "contracts/Utils.sol:Utils",
						"label": "amount",
						"offset": 0,
						"slot": "3",
						"type": "t_uint256"
					},
					{
						"astId": 762,
						"contract": "contracts/Utils.sol:Utils",
						"label": "routerAddress",
						"offset": 0,
						"slot": "4",
						"type": "t_contract(Router)644"
					},
					{
						"astId": 765,
						"contract": "contracts/Utils.sol:Utils",
						"label": "BLOCKS_PER_YEAR",
						"offset": 0,
						"slot": "5",
						"type": "t_uint256"
					}
				],
				"types": {
					"t_address": {
						"encoding": "inplace",
						"label": "address",
						"numberOfBytes": "20"
					},
					"t_contract(Router)644": {
						"encoding": "inplace",
						"label": "contract Router",
						"numberOfBytes": "20"
					},
					"t_uint256": {
						"encoding": "inplace",
						"label": "uint256",
						"numberOfBytes": "32"
					}
				}
			},
			"userdoc": {
				"kind": "user",
				"methods": {},
				"version": 1
			}
		}
	}
}