{
	"contracts/Utils.sol": {
		"Utils": {
			"abi": [
				{
					"inputs": [
						{
							"internalType": "contract Router",
							"name": "_routerAddress",
							"type": "address"
						}
					],
					"stateMutability": "nonpayable",
					"type": "constructor"
				},
				{
					"anonymous": false,
					"inputs": [
						{
							"indexed": true,
							"internalType": "address",
							"name": "previousOwner",
							"type": "address"
						},
						{
							"indexed": true,
							"internalType": "address",
							"name": "newOwner",
							"type": "address"
						}
					],
					"name": "OwnershipTransferred",
					"type": "event"
				},
				{
					"inputs": [],
					"name": "BUSD",
					"outputs": [
						{
							"internalType": "address",
							"name": "",
							"type": "address"
						}
					],
					"stateMutability": "view",
					"type": "function"
				},
				{
					"inputs": [
						{
							"internalType": "uint256",
							"name": "pid",
							"type": "uint256"
						},
						{
							"internalType": "contract LP",
							"name": "lpAddress",
							"type": "address"
						},
						{
							"internalType": "uint256",
							"name": "isLp",
							"type": "uint256"
						},
						{
							"internalType": "contract MetaMasterChef",
							"name": "MasterChef",
							"type": "address"
						}
					],
					"name": "CalcApy",
					"outputs": [
						{
							"internalType": "uint256",
							"name": "",
							"type": "uint256"
						}
					],
					"stateMutability": "view",
					"type": "function"
				},
				{
					"inputs": [
						{
							"internalType": "contract LP",
							"name": "lpAddress",
							"type": "address"
						}
					],
					"name": "CalcLpPrice",
					"outputs": [
						{
							"internalType": "uint256",
							"name": "",
							"type": "uint256"
						}
					],
					"stateMutability": "view",
					"type": "function"
				},
				{
					"inputs": [
						{
							"internalType": "address",
							"name": "token",
							"type": "address"
						}
					],
					"name": "Tokenprice",
					"outputs": [
						{
							"internalType": "uint256",
							"name": "",
							"type": "uint256"
						}
					],
					"stateMutability": "view",
					"type": "function"
				},
				{
					"inputs": [],
					"name": "WBNB",
					"outputs": [
						{
							"internalType": "address",
							"name": "",
							"type": "address"
						}
					],
					"stateMutability": "view",
					"type": "function"
				},
				{
					"inputs": [
						{
							"internalType": "address",
							"name": "token",
							"type": "address"
						}
					],
					"name": "WBNBPrice",
					"outputs": [
						{
							"internalType": "uint256",
							"name": "",
							"type": "uint256"
						}
					],
					"stateMutability": "view",
					"type": "function"
				},
				{
					"inputs": [
						{
							"internalType": "uint256",
							"name": "pid",
							"type": "uint256"
						},
						{
							"internalType": "contract LP",
							"name": "lpAddress",
							"type": "address"
						},
						{
							"internalType": "uint256",
							"name": "isLp",
							"type": "uint256"
						},
						{
							"internalType": "contract MetaMasterChef",
							"name": "MasterChef",
							"type": "address"
						}
					],
					"name": "calcPoolTVLInUSD",
					"outputs": [
						{
							"internalType": "uint256",
							"name": "",
							"type": "uint256"
						}
					],
					"stateMutability": "view",
					"type": "function"
				},
				{
					"inputs": [],
					"name": "owner",
					"outputs": [
						{
							"internalType": "address",
							"name": "",
							"type": "address"
						}
					],
					"stateMutability": "view",
					"type": "function"
				},
				{
					"inputs": [],
					"name": "renounceOwnership",
					"outputs": [],
					"stateMutability": "nonpayable",
					"type": "function"
				},
				{
					"inputs": [],
					"name": "routerAddress",
					"outputs": [
						{
							"internalType": "contract Router",
							"name": "",
							"type": "address"
						}
					],
					"stateMutability": "view",
					"type": "function"
				},
				{
					"inputs": [
						{
							"internalType": "contract Router",
							"name": "_routerAddress",
							"type": "address"
						}
					],
					"name": "setRouter",
					"outputs": [],
					"stateMutability": "nonpayable",
					"type": "function"
				},
				{
					"inputs": [
						{
							"internalType": "address",
							"name": "newOwner",
							"type": "address"
						}
					],
					"name": "transferOwnership",
					"outputs": [],
					"stateMutability": "nonpayable",
					"type": "function"
				}
			],
			"devdoc": {
				"kind": "dev",
				"methods": {
					"owner()": {
						"details": "Returns the address of the current owner."
					},
					"renounceOwnership()": {
						"details": "Leaves the contract without owner. It will not be possible to call `onlyOwner` functions anymore. Can only be called by the current owner. NOTE: Renouncing ownership will leave the contract without an owner, thereby removing any functionality that is only available to the owner."
					},
					"transferOwnership(address)": {
						"details": "Transfers ownership of the contract to a new account (`newOwner`). Can only be called by the current owner."
					}
				},
				"version": 1
			},
			"evm": {
				"assembly": "    /* \"contracts/Utils.sol\":17198:20448  contract Utils is Ownable{\r... */\n  mstore(0x40, 0x80)\n    /* \"contracts/Utils.sol\":17285:17327  0xae13d989daC2f0dEbFf460aC112a837C89BAa7cd */\n  0xae13d989dac2f0debff460ac112a837c89baa7cd\n    /* \"contracts/Utils.sol\":17263:17327  address public WBNB = 0xae13d989daC2f0dEbFf460aC112a837C89BAa7cd */\n  0x01\n  exp(0x0100, 0x00)\n  dup2\n  sload\n  dup2\n  0xffffffffffffffffffffffffffffffffffffffff\n  mul\n  not\n  and\n  swap1\n  dup4\n  0xffffffffffffffffffffffffffffffffffffffff\n  and\n  mul\n  or\n  swap1\n  sstore\n  pop\n    /* \"contracts/Utils.sol\":17356:17398  0x78867BbEeF44f2326bF8DDd1941a4439382EF2A7 */\n  0x78867bbeef44f2326bf8ddd1941a4439382ef2a7\n    /* \"contracts/Utils.sol\":17334:17398  address public BUSD = 0x78867BbEeF44f2326bF8DDd1941a4439382EF2A7 */\n  0x02\n  exp(0x0100, 0x00)\n  dup2\n  sload\n  dup2\n  0xffffffffffffffffffffffffffffffffffffffff\n  mul\n  not\n  and\n  swap1\n  dup4\n  0xffffffffffffffffffffffffffffffffffffffff\n  and\n  mul\n  or\n  swap1\n  sstore\n  pop\n    /* \"contracts/Utils.sol\":17422:17441  1000000000000000000 */\n  0x0de0b6b3a7640000\n    /* \"contracts/Utils.sol\":17405:17441  uint256 amount = 1000000000000000000 */\n  0x03\n  sstore\n    /* \"contracts/Utils.sol\":17510:17518  10512000 */\n  0xa06680\n    /* \"contracts/Utils.sol\":17484:17518  uint256 BLOCKS_PER_YEAR = 10512000 */\n  0x05\n  sstore\n    /* \"contracts/Utils.sol\":17528:17613  constructor(Router _routerAddress) {\r... */\n  callvalue\n  dup1\n  iszero\n  tag_1\n  jumpi\n  0x00\n  dup1\n  revert\ntag_1:\n  pop\n  mload(0x40)\n  sub(codesize, bytecodeSize)\n  dup1\n  bytecodeSize\n  dup4\n  codecopy\n  dup2\n  dup2\n  add\n  0x40\n  mstore\n  dup2\n  add\n  swap1\n  tag_2\n  swap2\n  swap1\n  tag_3\n  jump\t// in\ntag_2:\n    /* \"contracts/Utils.sol\":13728:13760  _transferOwnership(_msgSender()) */\n  tag_7\n    /* \"contracts/Utils.sol\":13747:13759  _msgSender() */\n  tag_8\n    /* \"contracts/Utils.sol\":13747:13757  _msgSender */\n  shl(0x20, tag_9)\n    /* \"contracts/Utils.sol\":13747:13759  _msgSender() */\n  0x20\n  shr\n  jump\t// in\ntag_8:\n    /* \"contracts/Utils.sol\":13728:13746  _transferOwnership */\n  shl(0x20, tag_10)\n    /* \"contracts/Utils.sol\":13728:13760  _transferOwnership(_msgSender()) */\n  0x20\n  shr\n  jump\t// in\ntag_7:\n    /* \"contracts/Utils.sol\":17591:17605  _routerAddress */\n  dup1\n    /* \"contracts/Utils.sol\":17575:17588  routerAddress */\n  0x04\n  0x00\n    /* \"contracts/Utils.sol\":17575:17605  routerAddress = _routerAddress */\n  0x0100\n  exp\n  dup2\n  sload\n  dup2\n  0xffffffffffffffffffffffffffffffffffffffff\n  mul\n  not\n  and\n  swap1\n  dup4\n  0xffffffffffffffffffffffffffffffffffffffff\n  and\n  mul\n  or\n  swap1\n  sstore\n  pop\n    /* \"contracts/Utils.sol\":17528:17613  constructor(Router _routerAddress) {\r... */\n  pop\n    /* \"contracts/Utils.sol\":17198:20448  contract Utils is Ownable{\r... */\n  jump(tag_12)\n    /* \"contracts/Utils.sol\":13223:13321  function _msgSender() internal view virtual returns (address) {\r... */\ntag_9:\n    /* \"contracts/Utils.sol\":13276:13283  address */\n  0x00\n    /* \"contracts/Utils.sol\":13303:13313  msg.sender */\n  caller\n    /* \"contracts/Utils.sol\":13296:13313  return msg.sender */\n  swap1\n  pop\n    /* \"contracts/Utils.sol\":13223:13321  function _msgSender() internal view virtual returns (address) {\r... */\n  swap1\n  jump\t// out\n    /* \"contracts/Utils.sol\":15119:15310  function _transferOwnership(address newOwner) internal virtual {\r... */\ntag_10:\n    /* \"contracts/Utils.sol\":15193:15209  address oldOwner */\n  0x00\n    /* \"contracts/Utils.sol\":15212:15218  _owner */\n  dup1\n  0x00\n  swap1\n  sload\n  swap1\n  0x0100\n  exp\n  swap1\n  div\n  0xffffffffffffffffffffffffffffffffffffffff\n  and\n    /* \"contracts/Utils.sol\":15193:15218  address oldOwner = _owner */\n  swap1\n  pop\n    /* \"contracts/Utils.sol\":15238:15246  newOwner */\n  dup2\n    /* \"contracts/Utils.sol\":15229:15235  _owner */\n  0x00\n  dup1\n    /* \"contracts/Utils.sol\":15229:15246  _owner = newOwner */\n  0x0100\n  exp\n  dup2\n  sload\n  dup2\n  0xffffffffffffffffffffffffffffffffffffffff\n  mul\n  not\n  and\n  swap1\n  dup4\n  0xffffffffffffffffffffffffffffffffffffffff\n  and\n  mul\n  or\n  swap1\n  sstore\n  pop\n    /* \"contracts/Utils.sol\":15293:15301  newOwner */\n  dup2\n    /* \"contracts/Utils.sol\":15262:15302  OwnershipTransferred(oldOwner, newOwner) */\n  0xffffffffffffffffffffffffffffffffffffffff\n  and\n    /* \"contracts/Utils.sol\":15283:15291  oldOwner */\n  dup2\n    /* \"contracts/Utils.sol\":15262:15302  OwnershipTransferred(oldOwner, newOwner) */\n  0xffffffffffffffffffffffffffffffffffffffff\n  and\n  0x8be0079c531659141344cd1fd0a4f28419497f9722a3daafe3b4186f6b6457e0\n  mload(0x40)\n  mload(0x40)\n  dup1\n  swap2\n  sub\n  swap1\n  log3\n    /* \"contracts/Utils.sol\":15182:15310  {\r... */\n  pop\n    /* \"contracts/Utils.sol\":15119:15310  function _transferOwnership(address newOwner) internal virtual {\r... */\n  pop\n  jump\t// out\n    /* \"#utility.yul\":7:178   */\ntag_16:\n    /* \"#utility.yul\":78:83   */\n  0x00\n    /* \"#utility.yul\":109:115   */\n  dup2\n    /* \"#utility.yul\":103:116   */\n  mload\n    /* \"#utility.yul\":94:116   */\n  swap1\n  pop\n    /* \"#utility.yul\":125:172   */\n  tag_18\n    /* \"#utility.yul\":166:171   */\n  dup2\n    /* \"#utility.yul\":125:172   */\n  tag_19\n  jump\t// in\ntag_18:\n    /* \"#utility.yul\":7:178   */\n  swap3\n  swap2\n  pop\n  pop\n  jump\t// out\n    /* \"#utility.yul\":184:563   */\ntag_3:\n    /* \"#utility.yul\":268:274   */\n  0x00\n    /* \"#utility.yul\":317:319   */\n  0x20\n    /* \"#utility.yul\":305:314   */\n  dup3\n    /* \"#utility.yul\":296:303   */\n  dup5\n    /* \"#utility.yul\":292:315   */\n  sub\n    /* \"#utility.yul\":288:320   */\n  slt\n    /* \"#utility.yul\":285:404   */\n  iszero\n  tag_21\n  jumpi\n    /* \"#utility.yul\":323:402   */\n  tag_22\n  tag_23\n  jump\t// in\ntag_22:\n    /* \"#utility.yul\":285:404   */\ntag_21:\n    /* \"#utility.yul\":443:444   */\n  0x00\n    /* \"#utility.yul\":468:546   */\n  tag_24\n    /* \"#utility.yul\":538:545   */\n  dup5\n    /* \"#utility.yul\":529:535   */\n  dup3\n    /* \"#utility.yul\":518:527   */\n  dup6\n    /* \"#utility.yul\":514:536   */\n  add\n    /* \"#utility.yul\":468:546   */\n  tag_16\n  jump\t// in\ntag_24:\n    /* \"#utility.yul\":458:546   */\n  swap2\n  pop\n    /* \"#utility.yul\":414:556   */\n  pop\n    /* \"#utility.yul\":184:563   */\n  swap3\n  swap2\n  pop\n  pop\n  jump\t// out\n    /* \"#utility.yul\":650:746   */\ntag_27:\n    /* \"#utility.yul\":687:694   */\n  0x00\n    /* \"#utility.yul\":716:740   */\n  tag_29\n    /* \"#utility.yul\":734:739   */\n  dup3\n    /* \"#utility.yul\":716:740   */\n  tag_30\n  jump\t// in\ntag_29:\n    /* \"#utility.yul\":705:740   */\n  swap1\n  pop\n    /* \"#utility.yul\":650:746   */\n  swap2\n  swap1\n  pop\n  jump\t// out\n    /* \"#utility.yul\":752:862   */\ntag_31:\n    /* \"#utility.yul\":803:810   */\n  0x00\n    /* \"#utility.yul\":832:856   */\n  tag_33\n    /* \"#utility.yul\":850:855   */\n  dup3\n    /* \"#utility.yul\":832:856   */\n  tag_27\n  jump\t// in\ntag_33:\n    /* \"#utility.yul\":821:856   */\n  swap1\n  pop\n    /* \"#utility.yul\":752:862   */\n  swap2\n  swap1\n  pop\n  jump\t// out\n    /* \"#utility.yul\":868:994   */\ntag_30:\n    /* \"#utility.yul\":905:912   */\n  0x00\n    /* \"#utility.yul\":945:987   */\n  0xffffffffffffffffffffffffffffffffffffffff\n    /* \"#utility.yul\":938:943   */\n  dup3\n    /* \"#utility.yul\":934:988   */\n  and\n    /* \"#utility.yul\":923:988   */\n  swap1\n  pop\n    /* \"#utility.yul\":868:994   */\n  swap2\n  swap1\n  pop\n  jump\t// out\n    /* \"#utility.yul\":1123:1240   */\ntag_23:\n    /* \"#utility.yul\":1232:1233   */\n  0x00\n    /* \"#utility.yul\":1229:1230   */\n  dup1\n    /* \"#utility.yul\":1222:1234   */\n  revert\n    /* \"#utility.yul\":1246:1396   */\ntag_19:\n    /* \"#utility.yul\":1333:1371   */\n  tag_39\n    /* \"#utility.yul\":1365:1370   */\n  dup2\n    /* \"#utility.yul\":1333:1371   */\n  tag_31\n  jump\t// in\ntag_39:\n    /* \"#utility.yul\":1326:1331   */\n  dup2\n    /* \"#utility.yul\":1323:1372   */\n  eq\n    /* \"#utility.yul\":1313:1390   */\n  tag_40\n  jumpi\n    /* \"#utility.yul\":1386:1387   */\n  0x00\n    /* \"#utility.yul\":1383:1384   */\n  dup1\n    /* \"#utility.yul\":1376:1388   */\n  revert\n    /* \"#utility.yul\":1313:1390   */\ntag_40:\n    /* \"#utility.yul\":1246:1396   */\n  pop\n  jump\t// out\n    /* \"contracts/Utils.sol\":17198:20448  contract Utils is Ownable{\r... */\ntag_12:\n  dataSize(sub_0)\n  dup1\n  dataOffset(sub_0)\n  0x00\n  codecopy\n  0x00\n  return\nstop\n\nsub_0: assembly {\n        /* \"contracts/Utils.sol\":17198:20448  contract Utils is Ownable{\r... */\n      mstore(0x40, 0x80)\n      callvalue\n      dup1\n      iszero\n      tag_1\n      jumpi\n      0x00\n      dup1\n      revert\n    tag_1:\n      pop\n      jumpi(tag_2, lt(calldatasize, 0x04))\n      shr(0xe0, calldataload(0x00))\n      dup1\n      0x8da5cb5b\n      gt\n      tag_15\n      jumpi\n      dup1\n      0x8da5cb5b\n      eq\n      tag_9\n      jumpi\n      dup1\n      0x8dd95002\n      eq\n      tag_10\n      jumpi\n      dup1\n      0xc0d78655\n      eq\n      tag_11\n      jumpi\n      dup1\n      0xd979fb5f\n      eq\n      tag_12\n      jumpi\n      dup1\n      0xdbb79348\n      eq\n      tag_13\n      jumpi\n      dup1\n      0xf2fde38b\n      eq\n      tag_14\n      jumpi\n      jump(tag_2)\n    tag_15:\n      dup1\n      0x19047f8a\n      eq\n      tag_3\n      jumpi\n      dup1\n      0x215cc989\n      eq\n      tag_4\n      jumpi\n      dup1\n      0x3268cc56\n      eq\n      tag_5\n      jumpi\n      dup1\n      0x3b979d45\n      eq\n      tag_6\n      jumpi\n      dup1\n      0x484f4ea9\n      eq\n      tag_7\n      jumpi\n      dup1\n      0x715018a6\n      eq\n      tag_8\n      jumpi\n    tag_2:\n      0x00\n      dup1\n      revert\n        /* \"contracts/Utils.sol\":17753:18012  function Tokenprice(address token) public view returns(uint256){\r... */\n    tag_3:\n      tag_16\n      0x04\n      dup1\n      calldatasize\n      sub\n      dup2\n      add\n      swap1\n      tag_17\n      swap2\n      swap1\n      tag_18\n      jump\t// in\n    tag_17:\n      tag_19\n      jump\t// in\n    tag_16:\n      mload(0x40)\n      tag_20\n      swap2\n      swap1\n      tag_21\n      jump\t// in\n    tag_20:\n      mload(0x40)\n      dup1\n      swap2\n      sub\n      swap1\n      return\n        /* \"contracts/Utils.sol\":18295:19143  function CalcLpPrice(LP lpAddress) public view returns(uint256){\r... */\n    tag_4:\n      tag_22\n      0x04\n      dup1\n      calldatasize\n      sub\n      dup2\n      add\n      swap1\n      tag_23\n      swap2\n      swap1\n      tag_24\n      jump\t// in\n    tag_23:\n      tag_25\n      jump\t// in\n    tag_22:\n      mload(0x40)\n      tag_26\n      swap2\n      swap1\n      tag_21\n      jump\t// in\n    tag_26:\n      mload(0x40)\n      dup1\n      swap2\n      sub\n      swap1\n      return\n        /* \"contracts/Utils.sol\":17448:17475  Router public routerAddress */\n    tag_5:\n      tag_27\n      tag_28\n      jump\t// in\n    tag_27:\n      mload(0x40)\n      tag_29\n      swap2\n      swap1\n      tag_30\n      jump\t// in\n    tag_29:\n      mload(0x40)\n      dup1\n      swap2\n      sub\n      swap1\n      return\n        /* \"contracts/Utils.sol\":18037:18270  function WBNBPrice(address token) public view returns(uint256){\r... */\n    tag_6:\n      tag_31\n      0x04\n      dup1\n      calldatasize\n      sub\n      dup2\n      add\n      swap1\n      tag_32\n      swap2\n      swap1\n      tag_18\n      jump\t// in\n    tag_32:\n      tag_33\n      jump\t// in\n    tag_31:\n      mload(0x40)\n      tag_34\n      swap2\n      swap1\n      tag_21\n      jump\t// in\n    tag_34:\n      mload(0x40)\n      dup1\n      swap2\n      sub\n      swap1\n      return\n        /* \"contracts/Utils.sol\":17334:17398  address public BUSD = 0x78867BbEeF44f2326bF8DDd1941a4439382EF2A7 */\n    tag_7:\n      tag_35\n      tag_36\n      jump\t// in\n    tag_35:\n      mload(0x40)\n      tag_37\n      swap2\n      swap1\n      tag_38\n      jump\t// in\n    tag_37:\n      mload(0x40)\n      dup1\n      swap2\n      sub\n      swap1\n      return\n        /* \"contracts/Utils.sol\":14500:14603  function renounceOwnership() public virtual onlyOwner {\r... */\n    tag_8:\n      tag_39\n      tag_40\n      jump\t// in\n    tag_39:\n      stop\n        /* \"contracts/Utils.sol\":13849:13936  function owner() public view virtual returns (address) {\r... */\n    tag_9:\n      tag_41\n      tag_42\n      jump\t// in\n    tag_41:\n      mload(0x40)\n      tag_43\n      swap2\n      swap1\n      tag_38\n      jump\t// in\n    tag_43:\n      mload(0x40)\n      dup1\n      swap2\n      sub\n      swap1\n      return\n        /* \"contracts/Utils.sol\":17263:17327  address public WBNB = 0xae13d989daC2f0dEbFf460aC112a837C89BAa7cd */\n    tag_10:\n      tag_44\n      tag_45\n      jump\t// in\n    tag_44:\n      mload(0x40)\n      tag_46\n      swap2\n      swap1\n      tag_38\n      jump\t// in\n    tag_46:\n      mload(0x40)\n      dup1\n      swap2\n      sub\n      swap1\n      return\n        /* \"contracts/Utils.sol\":17621:17728  function setRouter(Router _routerAddress) public onlyOwner{\r... */\n    tag_11:\n      tag_47\n      0x04\n      dup1\n      calldatasize\n      sub\n      dup2\n      add\n      swap1\n      tag_48\n      swap2\n      swap1\n      tag_49\n      jump\t// in\n    tag_48:\n      tag_50\n      jump\t// in\n    tag_47:\n      stop\n        /* \"contracts/Utils.sol\":19166:19737  function calcPoolTVLInUSD(uint256 pid, LP lpAddress, uint256 isLp, MetaMasterChef MasterChef) public view returns(uint256){\r... */\n    tag_12:\n      tag_51\n      0x04\n      dup1\n      calldatasize\n      sub\n      dup2\n      add\n      swap1\n      tag_52\n      swap2\n      swap1\n      tag_53\n      jump\t// in\n    tag_52:\n      tag_54\n      jump\t// in\n    tag_51:\n      mload(0x40)\n      tag_55\n      swap2\n      swap1\n      tag_21\n      jump\t// in\n    tag_55:\n      mload(0x40)\n      dup1\n      swap2\n      sub\n      swap1\n      return\n        /* \"contracts/Utils.sol\":19745:20445  function CalcApy(uint256 pid, LP lpAddress,uint256 isLp, MetaMasterChef MasterChef) external view returns(uint256){\r... */\n    tag_13:\n      tag_56\n      0x04\n      dup1\n      calldatasize\n      sub\n      dup2\n      add\n      swap1\n      tag_57\n      swap2\n      swap1\n      tag_53\n      jump\t// in\n    tag_57:\n      tag_58\n      jump\t// in\n    tag_56:\n      mload(0x40)\n      tag_59\n      swap2\n      swap1\n      tag_21\n      jump\t// in\n    tag_59:\n      mload(0x40)\n      dup1\n      swap2\n      sub\n      swap1\n      return\n        /* \"contracts/Utils.sol\":14758:14959  function transferOwnership(address newOwner) public virtual onlyOwner {\r... */\n    tag_14:\n      tag_60\n      0x04\n      dup1\n      calldatasize\n      sub\n      dup2\n      add\n      swap1\n      tag_61\n      swap2\n      swap1\n      tag_18\n      jump\t// in\n    tag_61:\n      tag_62\n      jump\t// in\n    tag_60:\n      stop\n        /* \"contracts/Utils.sol\":17753:18012  function Tokenprice(address token) public view returns(uint256){\r... */\n    tag_19:\n        /* \"contracts/Utils.sol\":17808:17815  uint256 */\n      0x00\n        /* \"contracts/Utils.sol\":17827:17848  address[] memory path */\n      dup1\n        /* \"contracts/Utils.sol\":17865:17866  3 */\n      0x03\n        /* \"contracts/Utils.sol\":17851:17867  new address[](3) */\n      0xffffffffffffffff\n      dup2\n      gt\n      iszero\n      tag_64\n      jumpi\n      tag_65\n      tag_66\n      jump\t// in\n    tag_65:\n    tag_64:\n      mload(0x40)\n      swap1\n      dup1\n      dup3\n      mstore\n      dup1\n      0x20\n      mul\n      0x20\n      add\n      dup3\n      add\n      0x40\n      mstore\n      dup1\n      iszero\n      tag_67\n      jumpi\n      dup2\n      0x20\n      add\n      0x20\n      dup3\n      mul\n      dup1\n      calldatasize\n      dup4\n      calldatacopy\n      dup1\n      dup3\n      add\n      swap2\n      pop\n      pop\n      swap1\n      pop\n    tag_67:\n      pop\n        /* \"contracts/Utils.sol\":17827:17867  address[] memory path = new address[](3) */\n      swap1\n      pop\n        /* \"contracts/Utils.sol\":17888:17893  token */\n      dup3\n        /* \"contracts/Utils.sol\":17878:17882  path */\n      dup2\n        /* \"contracts/Utils.sol\":17883:17884  0 */\n      0x00\n        /* \"contracts/Utils.sol\":17878:17885  path[0] */\n      dup2\n      mload\n      dup2\n      lt\n      tag_68\n      jumpi\n      tag_69\n      tag_70\n      jump\t// in\n    tag_69:\n    tag_68:\n      0x20\n      mul\n      0x20\n      add\n      add\n        /* \"contracts/Utils.sol\":17878:17893  path[0] = token */\n      swap1\n      0xffffffffffffffffffffffffffffffffffffffff\n      and\n      swap1\n      dup2\n      0xffffffffffffffffffffffffffffffffffffffff\n      and\n      dup2\n      mstore\n      pop\n      pop\n        /* \"contracts/Utils.sol\":17914:17918  WBNB */\n      0x01\n      0x00\n      swap1\n      sload\n      swap1\n      0x0100\n      exp\n      swap1\n      div\n      0xffffffffffffffffffffffffffffffffffffffff\n      and\n        /* \"contracts/Utils.sol\":17904:17908  path */\n      dup2\n        /* \"contracts/Utils.sol\":17909:17910  1 */\n      0x01\n        /* \"contracts/Utils.sol\":17904:17911  path[1] */\n      dup2\n      mload\n      dup2\n      lt\n      tag_71\n      jumpi\n      tag_72\n      tag_70\n      jump\t// in\n    tag_72:\n    tag_71:\n      0x20\n      mul\n      0x20\n      add\n      add\n        /* \"contracts/Utils.sol\":17904:17918  path[1] = WBNB */\n      swap1\n      0xffffffffffffffffffffffffffffffffffffffff\n      and\n      swap1\n      dup2\n      0xffffffffffffffffffffffffffffffffffffffff\n      and\n      dup2\n      mstore\n      pop\n      pop\n        /* \"contracts/Utils.sol\":17939:17943  BUSD */\n      0x02\n      0x00\n      swap1\n      sload\n      swap1\n      0x0100\n      exp\n      swap1\n      div\n      0xffffffffffffffffffffffffffffffffffffffff\n      and\n        /* \"contracts/Utils.sol\":17929:17933  path */\n      dup2\n        /* \"contracts/Utils.sol\":17934:17935  2 */\n      0x02\n        /* \"contracts/Utils.sol\":17929:17936  path[2] */\n      dup2\n      mload\n      dup2\n      lt\n      tag_73\n      jumpi\n      tag_74\n      tag_70\n      jump\t// in\n    tag_74:\n    tag_73:\n      0x20\n      mul\n      0x20\n      add\n      add\n        /* \"contracts/Utils.sol\":17929:17943  path[2] = BUSD */\n      swap1\n      0xffffffffffffffffffffffffffffffffffffffff\n      and\n      swap1\n      dup2\n      0xffffffffffffffffffffffffffffffffffffffff\n      and\n      dup2\n      mstore\n      pop\n      pop\n        /* \"contracts/Utils.sol\":17961:17974  routerAddress */\n      0x04\n      0x00\n      swap1\n      sload\n      swap1\n      0x0100\n      exp\n      swap1\n      div\n      0xffffffffffffffffffffffffffffffffffffffff\n      and\n        /* \"contracts/Utils.sol\":17961:17988  routerAddress.getAmountsOut */\n      0xffffffffffffffffffffffffffffffffffffffff\n      and\n      0xd06ca61f\n        /* \"contracts/Utils.sol\":17989:17995  amount */\n      sload(0x03)\n        /* \"contracts/Utils.sol\":17996:18000  path */\n      dup4\n        /* \"contracts/Utils.sol\":17961:18001  routerAddress.getAmountsOut(amount,path) */\n      mload(0x40)\n      dup4\n      0xffffffff\n      and\n      0xe0\n      shl\n      dup2\n      mstore\n      0x04\n      add\n      tag_75\n      swap3\n      swap2\n      swap1\n      tag_76\n      jump\t// in\n    tag_75:\n      0x00\n      mload(0x40)\n      dup1\n      dup4\n      sub\n      dup2\n      dup7\n      dup1\n      extcodesize\n      iszero\n      dup1\n      iszero\n      tag_77\n      jumpi\n      0x00\n      dup1\n      revert\n    tag_77:\n      pop\n      gas\n      staticcall\n      iszero\n      dup1\n      iszero\n      tag_79\n      jumpi\n      returndatasize\n      0x00\n      dup1\n      returndatacopy\n      revert(0x00, returndatasize)\n    tag_79:\n      pop\n      pop\n      pop\n      pop\n      mload(0x40)\n      returndatasize\n      0x00\n      dup3\n      returndatacopy\n      returndatasize\n      not(0x1f)\n      0x1f\n      dup3\n      add\n      and\n      dup3\n      add\n      dup1\n      0x40\n      mstore\n      pop\n      dup2\n      add\n      swap1\n      tag_80\n      swap2\n      swap1\n      tag_81\n      jump\t// in\n    tag_80:\n        /* \"contracts/Utils.sol\":18002:18003  2 */\n      0x02\n        /* \"contracts/Utils.sol\":17961:18004  routerAddress.getAmountsOut(amount,path)[2] */\n      dup2\n      mload\n      dup2\n      lt\n      tag_82\n      jumpi\n      tag_83\n      tag_70\n      jump\t// in\n    tag_83:\n    tag_82:\n      0x20\n      mul\n      0x20\n      add\n      add\n      mload\n        /* \"contracts/Utils.sol\":17954:18004  return routerAddress.getAmountsOut(amount,path)[2] */\n      swap2\n      pop\n      pop\n        /* \"contracts/Utils.sol\":17753:18012  function Tokenprice(address token) public view returns(uint256){\r... */\n      swap2\n      swap1\n      pop\n      jump\t// out\n        /* \"contracts/Utils.sol\":18295:19143  function CalcLpPrice(LP lpAddress) public view returns(uint256){\r... */\n    tag_25:\n        /* \"contracts/Utils.sol\":18350:18357  uint256 */\n      0x00\n        /* \"contracts/Utils.sol\":18369:18383  uint256 phase1 */\n      dup1\n        /* \"contracts/Utils.sol\":18394:18408  uint256 phase2 */\n      0x00\n        /* \"contracts/Utils.sol\":18447:18456  lpAddress */\n      dup4\n        /* \"contracts/Utils.sol\":18447:18463  lpAddress.token0 */\n      0xffffffffffffffffffffffffffffffffffffffff\n      and\n      0x0dfe1681\n        /* \"contracts/Utils.sol\":18447:18465  lpAddress.token0() */\n      mload(0x40)\n      dup2\n      0xffffffff\n      and\n      0xe0\n      shl\n      dup2\n      mstore\n      0x04\n      add\n      0x20\n      mload(0x40)\n      dup1\n      dup4\n      sub\n      dup2\n      dup7\n      dup1\n      extcodesize\n      iszero\n      dup1\n      iszero\n      tag_85\n      jumpi\n      0x00\n      dup1\n      revert\n    tag_85:\n      pop\n      gas\n      staticcall\n      iszero\n      dup1\n      iszero\n      tag_87\n      jumpi\n      returndatasize\n      0x00\n      dup1\n      returndatacopy\n      revert(0x00, returndatasize)\n    tag_87:\n      pop\n      pop\n      pop\n      pop\n      mload(0x40)\n      returndatasize\n      not(0x1f)\n      0x1f\n      dup3\n      add\n      and\n      dup3\n      add\n      dup1\n      0x40\n      mstore\n      pop\n      dup2\n      add\n      swap1\n      tag_88\n      swap2\n      swap1\n      tag_89\n      jump\t// in\n    tag_88:\n        /* \"contracts/Utils.sol\":18422:18466  address(WBNB) == address(lpAddress.token0()) */\n      0xffffffffffffffffffffffffffffffffffffffff\n      and\n        /* \"contracts/Utils.sol\":18430:18434  WBNB */\n      0x01\n      0x00\n      swap1\n      sload\n      swap1\n      0x0100\n      exp\n      swap1\n      div\n      0xffffffffffffffffffffffffffffffffffffffff\n      and\n        /* \"contracts/Utils.sol\":18422:18466  address(WBNB) == address(lpAddress.token0()) */\n      0xffffffffffffffffffffffffffffffffffffffff\n      and\n      eq\n        /* \"contracts/Utils.sol\":18419:18732  if(address(WBNB) == address(lpAddress.token0())){\r... */\n      iszero\n      tag_90\n      jumpi\n        /* \"contracts/Utils.sol\":18492:18584  lpAddress.token0().balanceOf(address(lpAddress)).mul(WBNBPrice(address(lpAddress.token0()))) */\n      tag_91\n        /* \"contracts/Utils.sol\":18545:18583  WBNBPrice(address(lpAddress.token0())) */\n      tag_92\n        /* \"contracts/Utils.sol\":18563:18572  lpAddress */\n      dup6\n        /* \"contracts/Utils.sol\":18563:18579  lpAddress.token0 */\n      0xffffffffffffffffffffffffffffffffffffffff\n      and\n      0x0dfe1681\n        /* \"contracts/Utils.sol\":18563:18581  lpAddress.token0() */\n      mload(0x40)\n      dup2\n      0xffffffff\n      and\n      0xe0\n      shl\n      dup2\n      mstore\n      0x04\n      add\n      0x20\n      mload(0x40)\n      dup1\n      dup4\n      sub\n      dup2\n      dup7\n      dup1\n      extcodesize\n      iszero\n      dup1\n      iszero\n      tag_93\n      jumpi\n      0x00\n      dup1\n      revert\n    tag_93:\n      pop\n      gas\n      staticcall\n      iszero\n      dup1\n      iszero\n      tag_95\n      jumpi\n      returndatasize\n      0x00\n      dup1\n      returndatacopy\n      revert(0x00, returndatasize)\n    tag_95:\n      pop\n      pop\n      pop\n      pop\n      mload(0x40)\n      returndatasize\n      not(0x1f)\n      0x1f\n      dup3\n      add\n      and\n      dup3\n      add\n      dup1\n      0x40\n      mstore\n      pop\n      dup2\n      add\n      swap1\n      tag_96\n      swap2\n      swap1\n      tag_89\n      jump\t// in\n    tag_96:\n        /* \"contracts/Utils.sol\":18545:18554  WBNBPrice */\n      tag_33\n        /* \"contracts/Utils.sol\":18545:18583  WBNBPrice(address(lpAddress.token0())) */\n      jump\t// in\n    tag_92:\n        /* \"contracts/Utils.sol\":18492:18501  lpAddress */\n      dup6\n        /* \"contracts/Utils.sol\":18492:18508  lpAddress.token0 */\n      0xffffffffffffffffffffffffffffffffffffffff\n      and\n      0x0dfe1681\n        /* \"contracts/Utils.sol\":18492:18510  lpAddress.token0() */\n      mload(0x40)\n      dup2\n      0xffffffff\n      and\n      0xe0\n      shl\n      dup2\n      mstore\n      0x04\n      add\n      0x20\n      mload(0x40)\n      dup1\n      dup4\n      sub\n      dup2\n      dup7\n      dup1\n      extcodesize\n      iszero\n      dup1\n      iszero\n      tag_97\n      jumpi\n      0x00\n      dup1\n      revert\n    tag_97:\n      pop\n      gas\n      staticcall\n      iszero\n      dup1\n      iszero\n      tag_99\n      jumpi\n      returndatasize\n      0x00\n      dup1\n      returndatacopy\n      revert(0x00, returndatasize)\n    tag_99:\n      pop\n      pop\n      pop\n      pop\n      mload(0x40)\n      returndatasize\n      not(0x1f)\n      0x1f\n      dup3\n      add\n      and\n      dup3\n      add\n      dup1\n      0x40\n      mstore\n      pop\n      dup2\n      add\n      swap1\n      tag_100\n      swap2\n      swap1\n      tag_89\n      jump\t// in\n    tag_100:\n        /* \"contracts/Utils.sol\":18492:18520  lpAddress.token0().balanceOf */\n      0xffffffffffffffffffffffffffffffffffffffff\n      and\n      0x70a08231\n        /* \"contracts/Utils.sol\":18529:18538  lpAddress */\n      dup8\n        /* \"contracts/Utils.sol\":18492:18540  lpAddress.token0().balanceOf(address(lpAddress)) */\n      mload(0x40)\n      dup3\n      0xffffffff\n      and\n      0xe0\n      shl\n      dup2\n      mstore\n      0x04\n      add\n      tag_101\n      swap2\n      swap1\n      tag_38\n      jump\t// in\n    tag_101:\n      0x20\n      mload(0x40)\n      dup1\n      dup4\n      sub\n      dup2\n      dup7\n      dup1\n      extcodesize\n      iszero\n      dup1\n      iszero\n      tag_102\n      jumpi\n      0x00\n      dup1\n      revert\n    tag_102:\n      pop\n      gas\n      staticcall\n      iszero\n      dup1\n      iszero\n      tag_104\n      jumpi\n      returndatasize\n      0x00\n      dup1\n      returndatacopy\n      revert(0x00, returndatasize)\n    tag_104:\n      pop\n      pop\n      pop\n      pop\n      mload(0x40)\n      returndatasize\n      not(0x1f)\n      0x1f\n      dup3\n      add\n      and\n      dup3\n      add\n      dup1\n      0x40\n      mstore\n      pop\n      dup2\n      add\n      swap1\n      tag_105\n      swap2\n      swap1\n      tag_106\n      jump\t// in\n    tag_105:\n        /* \"contracts/Utils.sol\":18492:18544  lpAddress.token0().balanceOf(address(lpAddress)).mul */\n      tag_107\n      swap1\n        /* \"contracts/Utils.sol\":18492:18584  lpAddress.token0().balanceOf(address(lpAddress)).mul(WBNBPrice(address(lpAddress.token0()))) */\n      swap2\n      swap1\n      0xffffffff\n      and\n      jump\t// in\n    tag_91:\n        /* \"contracts/Utils.sol\":18482:18585  phase1 = (lpAddress.token0().balanceOf(address(lpAddress)).mul(WBNBPrice(address(lpAddress.token0())))) */\n      swap2\n      pop\n        /* \"contracts/Utils.sol\":18419:18732  if(address(WBNB) == address(lpAddress.token0())){\r... */\n      jump(tag_108)\n    tag_90:\n        /* \"contracts/Utils.sol\":18626:18719  lpAddress.token0().balanceOf(address(lpAddress)).mul(Tokenprice(address(lpAddress.token0()))) */\n      tag_109\n        /* \"contracts/Utils.sol\":18679:18718  Tokenprice(address(lpAddress.token0())) */\n      tag_110\n        /* \"contracts/Utils.sol\":18698:18707  lpAddress */\n      dup6\n        /* \"contracts/Utils.sol\":18698:18714  lpAddress.token0 */\n      0xffffffffffffffffffffffffffffffffffffffff\n      and\n      0x0dfe1681\n        /* \"contracts/Utils.sol\":18698:18716  lpAddress.token0() */\n      mload(0x40)\n      dup2\n      0xffffffff\n      and\n      0xe0\n      shl\n      dup2\n      mstore\n      0x04\n      add\n      0x20\n      mload(0x40)\n      dup1\n      dup4\n      sub\n      dup2\n      dup7\n      dup1\n      extcodesize\n      iszero\n      dup1\n      iszero\n      tag_111\n      jumpi\n      0x00\n      dup1\n      revert\n    tag_111:\n      pop\n      gas\n      staticcall\n      iszero\n      dup1\n      iszero\n      tag_113\n      jumpi\n      returndatasize\n      0x00\n      dup1\n      returndatacopy\n      revert(0x00, returndatasize)\n    tag_113:\n      pop\n      pop\n      pop\n      pop\n      mload(0x40)\n      returndatasize\n      not(0x1f)\n      0x1f\n      dup3\n      add\n      and\n      dup3\n      add\n      dup1\n      0x40\n      mstore\n      pop\n      dup2\n      add\n      swap1\n      tag_114\n      swap2\n      swap1\n      tag_89\n      jump\t// in\n    tag_114:\n        /* \"contracts/Utils.sol\":18679:18689  Tokenprice */\n      tag_19\n        /* \"contracts/Utils.sol\":18679:18718  Tokenprice(address(lpAddress.token0())) */\n      jump\t// in\n    tag_110:\n        /* \"contracts/Utils.sol\":18626:18635  lpAddress */\n      dup6\n        /* \"contracts/Utils.sol\":18626:18642  lpAddress.token0 */\n      0xffffffffffffffffffffffffffffffffffffffff\n      and\n      0x0dfe1681\n        /* \"contracts/Utils.sol\":18626:18644  lpAddress.token0() */\n      mload(0x40)\n      dup2\n      0xffffffff\n      and\n      0xe0\n      shl\n      dup2\n      mstore\n      0x04\n      add\n      0x20\n      mload(0x40)\n      dup1\n      dup4\n      sub\n      dup2\n      dup7\n      dup1\n      extcodesize\n      iszero\n      dup1\n      iszero\n      tag_115\n      jumpi\n      0x00\n      dup1\n      revert\n    tag_115:\n      pop\n      gas\n      staticcall\n      iszero\n      dup1\n      iszero\n      tag_117\n      jumpi\n      returndatasize\n      0x00\n      dup1\n      returndatacopy\n      revert(0x00, returndatasize)\n    tag_117:\n      pop\n      pop\n      pop\n      pop\n      mload(0x40)\n      returndatasize\n      not(0x1f)\n      0x1f\n      dup3\n      add\n      and\n      dup3\n      add\n      dup1\n      0x40\n      mstore\n      pop\n      dup2\n      add\n      swap1\n      tag_118\n      swap2\n      swap1\n      tag_89\n      jump\t// in\n    tag_118:\n        /* \"contracts/Utils.sol\":18626:18654  lpAddress.token0().balanceOf */\n      0xffffffffffffffffffffffffffffffffffffffff\n      and\n      0x70a08231\n        /* \"contracts/Utils.sol\":18663:18672  lpAddress */\n      dup8\n        /* \"contracts/Utils.sol\":18626:18674  lpAddress.token0().balanceOf(address(lpAddress)) */\n      mload(0x40)\n      dup3\n      0xffffffff\n      and\n      0xe0\n      shl\n      dup2\n      mstore\n      0x04\n      add\n      tag_119\n      swap2\n      swap1\n      tag_38\n      jump\t// in\n    tag_119:\n      0x20\n      mload(0x40)\n      dup1\n      dup4\n      sub\n      dup2\n      dup7\n      dup1\n      extcodesize\n      iszero\n      dup1\n      iszero\n      tag_120\n      jumpi\n      0x00\n      dup1\n      revert\n    tag_120:\n      pop\n      gas\n      staticcall\n      iszero\n      dup1\n      iszero\n      tag_122\n      jumpi\n      returndatasize\n      0x00\n      dup1\n      returndatacopy\n      revert(0x00, returndatasize)\n    tag_122:\n      pop\n      pop\n      pop\n      pop\n      mload(0x40)\n      returndatasize\n      not(0x1f)\n      0x1f\n      dup3\n      add\n      and\n      dup3\n      add\n      dup1\n      0x40\n      mstore\n      pop\n      dup2\n      add\n      swap1\n      tag_123\n      swap2\n      swap1\n      tag_106\n      jump\t// in\n    tag_123:\n        /* \"contracts/Utils.sol\":18626:18678  lpAddress.token0().balanceOf(address(lpAddress)).mul */\n      tag_107\n      swap1\n        /* \"contracts/Utils.sol\":18626:18719  lpAddress.token0().balanceOf(address(lpAddress)).mul(Tokenprice(address(lpAddress.token0()))) */\n      swap2\n      swap1\n      0xffffffff\n      and\n      jump\t// in\n    tag_109:\n        /* \"contracts/Utils.sol\":18616:18720  phase1 = (lpAddress.token0().balanceOf(address(lpAddress)).mul(Tokenprice(address(lpAddress.token0())))) */\n      swap2\n      pop\n        /* \"contracts/Utils.sol\":18419:18732  if(address(WBNB) == address(lpAddress.token0())){\r... */\n    tag_108:\n        /* \"contracts/Utils.sol\":18772:18781  lpAddress */\n      dup4\n        /* \"contracts/Utils.sol\":18772:18788  lpAddress.token1 */\n      0xffffffffffffffffffffffffffffffffffffffff\n      and\n      0xd21220a7\n        /* \"contracts/Utils.sol\":18772:18790  lpAddress.token1() */\n      mload(0x40)\n      dup2\n      0xffffffff\n      and\n      0xe0\n      shl\n      dup2\n      mstore\n      0x04\n      add\n      0x20\n      mload(0x40)\n      dup1\n      dup4\n      sub\n      dup2\n      dup7\n      dup1\n      extcodesize\n      iszero\n      dup1\n      iszero\n      tag_124\n      jumpi\n      0x00\n      dup1\n      revert\n    tag_124:\n      pop\n      gas\n      staticcall\n      iszero\n      dup1\n      iszero\n      tag_126\n      jumpi\n      returndatasize\n      0x00\n      dup1\n      returndatacopy\n      revert(0x00, returndatasize)\n    tag_126:\n      pop\n      pop\n      pop\n      pop\n      mload(0x40)\n      returndatasize\n      not(0x1f)\n      0x1f\n      dup3\n      add\n      and\n      dup3\n      add\n      dup1\n      0x40\n      mstore\n      pop\n      dup2\n      add\n      swap1\n      tag_127\n      swap2\n      swap1\n      tag_89\n      jump\t// in\n    tag_127:\n        /* \"contracts/Utils.sol\":18747:18791  address(WBNB) == address(lpAddress.token1()) */\n      0xffffffffffffffffffffffffffffffffffffffff\n      and\n        /* \"contracts/Utils.sol\":18755:18759  WBNB */\n      0x01\n      0x00\n      swap1\n      sload\n      swap1\n      0x0100\n      exp\n      swap1\n      div\n      0xffffffffffffffffffffffffffffffffffffffff\n      and\n        /* \"contracts/Utils.sol\":18747:18791  address(WBNB) == address(lpAddress.token1()) */\n      0xffffffffffffffffffffffffffffffffffffffff\n      and\n      eq\n        /* \"contracts/Utils.sol\":18744:19057  if(address(WBNB) == address(lpAddress.token1())){\r... */\n      iszero\n      tag_128\n      jumpi\n        /* \"contracts/Utils.sol\":18817:18909  lpAddress.token1().balanceOf(address(lpAddress)).mul(WBNBPrice(address(lpAddress.token1()))) */\n      tag_129\n        /* \"contracts/Utils.sol\":18870:18908  WBNBPrice(address(lpAddress.token1())) */\n      tag_130\n        /* \"contracts/Utils.sol\":18888:18897  lpAddress */\n      dup6\n        /* \"contracts/Utils.sol\":18888:18904  lpAddress.token1 */\n      0xffffffffffffffffffffffffffffffffffffffff\n      and\n      0xd21220a7\n        /* \"contracts/Utils.sol\":18888:18906  lpAddress.token1() */\n      mload(0x40)\n      dup2\n      0xffffffff\n      and\n      0xe0\n      shl\n      dup2\n      mstore\n      0x04\n      add\n      0x20\n      mload(0x40)\n      dup1\n      dup4\n      sub\n      dup2\n      dup7\n      dup1\n      extcodesize\n      iszero\n      dup1\n      iszero\n      tag_131\n      jumpi\n      0x00\n      dup1\n      revert\n    tag_131:\n      pop\n      gas\n      staticcall\n      iszero\n      dup1\n      iszero\n      tag_133\n      jumpi\n      returndatasize\n      0x00\n      dup1\n      returndatacopy\n      revert(0x00, returndatasize)\n    tag_133:\n      pop\n      pop\n      pop\n      pop\n      mload(0x40)\n      returndatasize\n      not(0x1f)\n      0x1f\n      dup3\n      add\n      and\n      dup3\n      add\n      dup1\n      0x40\n      mstore\n      pop\n      dup2\n      add\n      swap1\n      tag_134\n      swap2\n      swap1\n      tag_89\n      jump\t// in\n    tag_134:\n        /* \"contracts/Utils.sol\":18870:18879  WBNBPrice */\n      tag_33\n        /* \"contracts/Utils.sol\":18870:18908  WBNBPrice(address(lpAddress.token1())) */\n      jump\t// in\n    tag_130:\n        /* \"contracts/Utils.sol\":18817:18826  lpAddress */\n      dup6\n        /* \"contracts/Utils.sol\":18817:18833  lpAddress.token1 */\n      0xffffffffffffffffffffffffffffffffffffffff\n      and\n      0xd21220a7\n        /* \"contracts/Utils.sol\":18817:18835  lpAddress.token1() */\n      mload(0x40)\n      dup2\n      0xffffffff\n      and\n      0xe0\n      shl\n      dup2\n      mstore\n      0x04\n      add\n      0x20\n      mload(0x40)\n      dup1\n      dup4\n      sub\n      dup2\n      dup7\n      dup1\n      extcodesize\n      iszero\n      dup1\n      iszero\n      tag_135\n      jumpi\n      0x00\n      dup1\n      revert\n    tag_135:\n      pop\n      gas\n      staticcall\n      iszero\n      dup1\n      iszero\n      tag_137\n      jumpi\n      returndatasize\n      0x00\n      dup1\n      returndatacopy\n      revert(0x00, returndatasize)\n    tag_137:\n      pop\n      pop\n      pop\n      pop\n      mload(0x40)\n      returndatasize\n      not(0x1f)\n      0x1f\n      dup3\n      add\n      and\n      dup3\n      add\n      dup1\n      0x40\n      mstore\n      pop\n      dup2\n      add\n      swap1\n      tag_138\n      swap2\n      swap1\n      tag_89\n      jump\t// in\n    tag_138:\n        /* \"contracts/Utils.sol\":18817:18845  lpAddress.token1().balanceOf */\n      0xffffffffffffffffffffffffffffffffffffffff\n      and\n      0x70a08231\n        /* \"contracts/Utils.sol\":18854:18863  lpAddress */\n      dup8\n        /* \"contracts/Utils.sol\":18817:18865  lpAddress.token1().balanceOf(address(lpAddress)) */\n      mload(0x40)\n      dup3\n      0xffffffff\n      and\n      0xe0\n      shl\n      dup2\n      mstore\n      0x04\n      add\n      tag_139\n      swap2\n      swap1\n      tag_38\n      jump\t// in\n    tag_139:\n      0x20\n      mload(0x40)\n      dup1\n      dup4\n      sub\n      dup2\n      dup7\n      dup1\n      extcodesize\n      iszero\n      dup1\n      iszero\n      tag_140\n      jumpi\n      0x00\n      dup1\n      revert\n    tag_140:\n      pop\n      gas\n      staticcall\n      iszero\n      dup1\n      iszero\n      tag_142\n      jumpi\n      returndatasize\n      0x00\n      dup1\n      returndatacopy\n      revert(0x00, returndatasize)\n    tag_142:\n      pop\n      pop\n      pop\n      pop\n      mload(0x40)\n      returndatasize\n      not(0x1f)\n      0x1f\n      dup3\n      add\n      and\n      dup3\n      add\n      dup1\n      0x40\n      mstore\n      pop\n      dup2\n      add\n      swap1\n      tag_143\n      swap2\n      swap1\n      tag_106\n      jump\t// in\n    tag_143:\n        /* \"contracts/Utils.sol\":18817:18869  lpAddress.token1().balanceOf(address(lpAddress)).mul */\n      tag_107\n      swap1\n        /* \"contracts/Utils.sol\":18817:18909  lpAddress.token1().balanceOf(address(lpAddress)).mul(WBNBPrice(address(lpAddress.token1()))) */\n      swap2\n      swap1\n      0xffffffff\n      and\n      jump\t// in\n    tag_129:\n        /* \"contracts/Utils.sol\":18807:18910  phase2 = (lpAddress.token1().balanceOf(address(lpAddress)).mul(WBNBPrice(address(lpAddress.token1())))) */\n      swap1\n      pop\n        /* \"contracts/Utils.sol\":18744:19057  if(address(WBNB) == address(lpAddress.token1())){\r... */\n      jump(tag_144)\n    tag_128:\n        /* \"contracts/Utils.sol\":18951:19044  lpAddress.token1().balanceOf(address(lpAddress)).mul(Tokenprice(address(lpAddress.token1()))) */\n      tag_145\n        /* \"contracts/Utils.sol\":19004:19043  Tokenprice(address(lpAddress.token1())) */\n      tag_146\n        /* \"contracts/Utils.sol\":19023:19032  lpAddress */\n      dup6\n        /* \"contracts/Utils.sol\":19023:19039  lpAddress.token1 */\n      0xffffffffffffffffffffffffffffffffffffffff\n      and\n      0xd21220a7\n        /* \"contracts/Utils.sol\":19023:19041  lpAddress.token1() */\n      mload(0x40)\n      dup2\n      0xffffffff\n      and\n      0xe0\n      shl\n      dup2\n      mstore\n      0x04\n      add\n      0x20\n      mload(0x40)\n      dup1\n      dup4\n      sub\n      dup2\n      dup7\n      dup1\n      extcodesize\n      iszero\n      dup1\n      iszero\n      tag_147\n      jumpi\n      0x00\n      dup1\n      revert\n    tag_147:\n      pop\n      gas\n      staticcall\n      iszero\n      dup1\n      iszero\n      tag_149\n      jumpi\n      returndatasize\n      0x00\n      dup1\n      returndatacopy\n      revert(0x00, returndatasize)\n    tag_149:\n      pop\n      pop\n      pop\n      pop\n      mload(0x40)\n      returndatasize\n      not(0x1f)\n      0x1f\n      dup3\n      add\n      and\n      dup3\n      add\n      dup1\n      0x40\n      mstore\n      pop\n      dup2\n      add\n      swap1\n      tag_150\n      swap2\n      swap1\n      tag_89\n      jump\t// in\n    tag_150:\n        /* \"contracts/Utils.sol\":19004:19014  Tokenprice */\n      tag_19\n        /* \"contracts/Utils.sol\":19004:19043  Tokenprice(address(lpAddress.token1())) */\n      jump\t// in\n    tag_146:\n        /* \"contracts/Utils.sol\":18951:18960  lpAddress */\n      dup6\n        /* \"contracts/Utils.sol\":18951:18967  lpAddress.token1 */\n      0xffffffffffffffffffffffffffffffffffffffff\n      and\n      0xd21220a7\n        /* \"contracts/Utils.sol\":18951:18969  lpAddress.token1() */\n      mload(0x40)\n      dup2\n      0xffffffff\n      and\n      0xe0\n      shl\n      dup2\n      mstore\n      0x04\n      add\n      0x20\n      mload(0x40)\n      dup1\n      dup4\n      sub\n      dup2\n      dup7\n      dup1\n      extcodesize\n      iszero\n      dup1\n      iszero\n      tag_151\n      jumpi\n      0x00\n      dup1\n      revert\n    tag_151:\n      pop\n      gas\n      staticcall\n      iszero\n      dup1\n      iszero\n      tag_153\n      jumpi\n      returndatasize\n      0x00\n      dup1\n      returndatacopy\n      revert(0x00, returndatasize)\n    tag_153:\n      pop\n      pop\n      pop\n      pop\n      mload(0x40)\n      returndatasize\n      not(0x1f)\n      0x1f\n      dup3\n      add\n      and\n      dup3\n      add\n      dup1\n      0x40\n      mstore\n      pop\n      dup2\n      add\n      swap1\n      tag_154\n      swap2\n      swap1\n      tag_89\n      jump\t// in\n    tag_154:\n        /* \"contracts/Utils.sol\":18951:18979  lpAddress.token1().balanceOf */\n      0xffffffffffffffffffffffffffffffffffffffff\n      and\n      0x70a08231\n        /* \"contracts/Utils.sol\":18988:18997  lpAddress */\n      dup8\n        /* \"contracts/Utils.sol\":18951:18999  lpAddress.token1().balanceOf(address(lpAddress)) */\n      mload(0x40)\n      dup3\n      0xffffffff\n      and\n      0xe0\n      shl\n      dup2\n      mstore\n      0x04\n      add\n      tag_155\n      swap2\n      swap1\n      tag_38\n      jump\t// in\n    tag_155:\n      0x20\n      mload(0x40)\n      dup1\n      dup4\n      sub\n      dup2\n      dup7\n      dup1\n      extcodesize\n      iszero\n      dup1\n      iszero\n      tag_156\n      jumpi\n      0x00\n      dup1\n      revert\n    tag_156:\n      pop\n      gas\n      staticcall\n      iszero\n      dup1\n      iszero\n      tag_158\n      jumpi\n      returndatasize\n      0x00\n      dup1\n      returndatacopy\n      revert(0x00, returndatasize)\n    tag_158:\n      pop\n      pop\n      pop\n      pop\n      mload(0x40)\n      returndatasize\n      not(0x1f)\n      0x1f\n      dup3\n      add\n      and\n      dup3\n      add\n      dup1\n      0x40\n      mstore\n      pop\n      dup2\n      add\n      swap1\n      tag_159\n      swap2\n      swap1\n      tag_106\n      jump\t// in\n    tag_159:\n        /* \"contracts/Utils.sol\":18951:19003  lpAddress.token1().balanceOf(address(lpAddress)).mul */\n      tag_107\n      swap1\n        /* \"contracts/Utils.sol\":18951:19044  lpAddress.token1().balanceOf(address(lpAddress)).mul(Tokenprice(address(lpAddress.token1()))) */\n      swap2\n      swap1\n      0xffffffff\n      and\n      jump\t// in\n    tag_145:\n        /* \"contracts/Utils.sol\":18941:19045  phase2 = (lpAddress.token1().balanceOf(address(lpAddress)).mul(Tokenprice(address(lpAddress.token1())))) */\n      swap1\n      pop\n        /* \"contracts/Utils.sol\":18744:19057  if(address(WBNB) == address(lpAddress.token1())){\r... */\n    tag_144:\n        /* \"contracts/Utils.sol\":19085:19134  (phase1.add(phase2)).div(lpAddress.totalSupply()) */\n      tag_160\n        /* \"contracts/Utils.sol\":19110:19119  lpAddress */\n      dup5\n        /* \"contracts/Utils.sol\":19110:19131  lpAddress.totalSupply */\n      0xffffffffffffffffffffffffffffffffffffffff\n      and\n      0x18160ddd\n        /* \"contracts/Utils.sol\":19110:19133  lpAddress.totalSupply() */\n      mload(0x40)\n      dup2\n      0xffffffff\n      and\n      0xe0\n      shl\n      dup2\n      mstore\n      0x04\n      add\n      0x20\n      mload(0x40)\n      dup1\n      dup4\n      sub\n      dup2\n      dup7\n      dup1\n      extcodesize\n      iszero\n      dup1\n      iszero\n      tag_161\n      jumpi\n      0x00\n      dup1\n      revert\n    tag_161:\n      pop\n      gas\n      staticcall\n      iszero\n      dup1\n      iszero\n      tag_163\n      jumpi\n      returndatasize\n      0x00\n      dup1\n      returndatacopy\n      revert(0x00, returndatasize)\n    tag_163:\n      pop\n      pop\n      pop\n      pop\n      mload(0x40)\n      returndatasize\n      not(0x1f)\n      0x1f\n      dup3\n      add\n      and\n      dup3\n      add\n      dup1\n      0x40\n      mstore\n      pop\n      dup2\n      add\n      swap1\n      tag_164\n      swap2\n      swap1\n      tag_106\n      jump\t// in\n    tag_164:\n        /* \"contracts/Utils.sol\":19086:19104  phase1.add(phase2) */\n      tag_165\n        /* \"contracts/Utils.sol\":19097:19103  phase2 */\n      dup4\n        /* \"contracts/Utils.sol\":19086:19092  phase1 */\n      dup6\n        /* \"contracts/Utils.sol\":19086:19096  phase1.add */\n      tag_166\n      swap1\n        /* \"contracts/Utils.sol\":19086:19104  phase1.add(phase2) */\n      swap2\n      swap1\n      0xffffffff\n      and\n      jump\t// in\n    tag_165:\n        /* \"contracts/Utils.sol\":19085:19109  (phase1.add(phase2)).div */\n      tag_167\n      swap1\n        /* \"contracts/Utils.sol\":19085:19134  (phase1.add(phase2)).div(lpAddress.totalSupply()) */\n      swap2\n      swap1\n      0xffffffff\n      and\n      jump\t// in\n    tag_160:\n        /* \"contracts/Utils.sol\":19077:19135  return ((phase1.add(phase2)).div(lpAddress.totalSupply())) */\n      swap3\n      pop\n      pop\n      pop\n        /* \"contracts/Utils.sol\":18295:19143  function CalcLpPrice(LP lpAddress) public view returns(uint256){\r... */\n      swap2\n      swap1\n      pop\n      jump\t// out\n        /* \"contracts/Utils.sol\":17448:17475  Router public routerAddress */\n    tag_28:\n      0x04\n      0x00\n      swap1\n      sload\n      swap1\n      0x0100\n      exp\n      swap1\n      div\n      0xffffffffffffffffffffffffffffffffffffffff\n      and\n      dup2\n      jump\t// out\n        /* \"contracts/Utils.sol\":18037:18270  function WBNBPrice(address token) public view returns(uint256){\r... */\n    tag_33:\n        /* \"contracts/Utils.sol\":18091:18098  uint256 */\n      0x00\n        /* \"contracts/Utils.sol\":18110:18131  address[] memory path */\n      dup1\n        /* \"contracts/Utils.sol\":18148:18149  2 */\n      0x02\n        /* \"contracts/Utils.sol\":18134:18150  new address[](2) */\n      0xffffffffffffffff\n      dup2\n      gt\n      iszero\n      tag_169\n      jumpi\n      tag_170\n      tag_66\n      jump\t// in\n    tag_170:\n    tag_169:\n      mload(0x40)\n      swap1\n      dup1\n      dup3\n      mstore\n      dup1\n      0x20\n      mul\n      0x20\n      add\n      dup3\n      add\n      0x40\n      mstore\n      dup1\n      iszero\n      tag_171\n      jumpi\n      dup2\n      0x20\n      add\n      0x20\n      dup3\n      mul\n      dup1\n      calldatasize\n      dup4\n      calldatacopy\n      dup1\n      dup3\n      add\n      swap2\n      pop\n      pop\n      swap1\n      pop\n    tag_171:\n      pop\n        /* \"contracts/Utils.sol\":18110:18150  address[] memory path = new address[](2) */\n      swap1\n      pop\n        /* \"contracts/Utils.sol\":18171:18176  token */\n      dup3\n        /* \"contracts/Utils.sol\":18161:18165  path */\n      dup2\n        /* \"contracts/Utils.sol\":18166:18167  0 */\n      0x00\n        /* \"contracts/Utils.sol\":18161:18168  path[0] */\n      dup2\n      mload\n      dup2\n      lt\n      tag_172\n      jumpi\n      tag_173\n      tag_70\n      jump\t// in\n    tag_173:\n    tag_172:\n      0x20\n      mul\n      0x20\n      add\n      add\n        /* \"contracts/Utils.sol\":18161:18176  path[0] = token */\n      swap1\n      0xffffffffffffffffffffffffffffffffffffffff\n      and\n      swap1\n      dup2\n      0xffffffffffffffffffffffffffffffffffffffff\n      and\n      dup2\n      mstore\n      pop\n      pop\n        /* \"contracts/Utils.sol\":18197:18201  BUSD */\n      0x02\n      0x00\n      swap1\n      sload\n      swap1\n      0x0100\n      exp\n      swap1\n      div\n      0xffffffffffffffffffffffffffffffffffffffff\n      and\n        /* \"contracts/Utils.sol\":18187:18191  path */\n      dup2\n        /* \"contracts/Utils.sol\":18192:18193  1 */\n      0x01\n        /* \"contracts/Utils.sol\":18187:18194  path[1] */\n      dup2\n      mload\n      dup2\n      lt\n      tag_174\n      jumpi\n      tag_175\n      tag_70\n      jump\t// in\n    tag_175:\n    tag_174:\n      0x20\n      mul\n      0x20\n      add\n      add\n        /* \"contracts/Utils.sol\":18187:18201  path[1] = BUSD */\n      swap1\n      0xffffffffffffffffffffffffffffffffffffffff\n      and\n      swap1\n      dup2\n      0xffffffffffffffffffffffffffffffffffffffff\n      and\n      dup2\n      mstore\n      pop\n      pop\n        /* \"contracts/Utils.sol\":18219:18232  routerAddress */\n      0x04\n      0x00\n      swap1\n      sload\n      swap1\n      0x0100\n      exp\n      swap1\n      div\n      0xffffffffffffffffffffffffffffffffffffffff\n      and\n        /* \"contracts/Utils.sol\":18219:18246  routerAddress.getAmountsOut */\n      0xffffffffffffffffffffffffffffffffffffffff\n      and\n      0xd06ca61f\n        /* \"contracts/Utils.sol\":18247:18253  amount */\n      sload(0x03)\n        /* \"contracts/Utils.sol\":18254:18258  path */\n      dup4\n        /* \"contracts/Utils.sol\":18219:18259  routerAddress.getAmountsOut(amount,path) */\n      mload(0x40)\n      dup4\n      0xffffffff\n      and\n      0xe0\n      shl\n      dup2\n      mstore\n      0x04\n      add\n      tag_176\n      swap3\n      swap2\n      swap1\n      tag_76\n      jump\t// in\n    tag_176:\n      0x00\n      mload(0x40)\n      dup1\n      dup4\n      sub\n      dup2\n      dup7\n      dup1\n      extcodesize\n      iszero\n      dup1\n      iszero\n      tag_177\n      jumpi\n      0x00\n      dup1\n      revert\n    tag_177:\n      pop\n      gas\n      staticcall\n      iszero\n      dup1\n      iszero\n      tag_179\n      jumpi\n      returndatasize\n      0x00\n      dup1\n      returndatacopy\n      revert(0x00, returndatasize)\n    tag_179:\n      pop\n      pop\n      pop\n      pop\n      mload(0x40)\n      returndatasize\n      0x00\n      dup3\n      returndatacopy\n      returndatasize\n      not(0x1f)\n      0x1f\n      dup3\n      add\n      and\n      dup3\n      add\n      dup1\n      0x40\n      mstore\n      pop\n      dup2\n      add\n      swap1\n      tag_180\n      swap2\n      swap1\n      tag_81\n      jump\t// in\n    tag_180:\n        /* \"contracts/Utils.sol\":18260:18261  1 */\n      0x01\n        /* \"contracts/Utils.sol\":18219:18262  routerAddress.getAmountsOut(amount,path)[1] */\n      dup2\n      mload\n      dup2\n      lt\n      tag_181\n      jumpi\n      tag_182\n      tag_70\n      jump\t// in\n    tag_182:\n    tag_181:\n      0x20\n      mul\n      0x20\n      add\n      add\n      mload\n        /* \"contracts/Utils.sol\":18212:18262  return routerAddress.getAmountsOut(amount,path)[1] */\n      swap2\n      pop\n      pop\n        /* \"contracts/Utils.sol\":18037:18270  function WBNBPrice(address token) public view returns(uint256){\r... */\n      swap2\n      swap1\n      pop\n      jump\t// out\n        /* \"contracts/Utils.sol\":17334:17398  address public BUSD = 0x78867BbEeF44f2326bF8DDd1941a4439382EF2A7 */\n    tag_36:\n      0x02\n      0x00\n      swap1\n      sload\n      swap1\n      0x0100\n      exp\n      swap1\n      div\n      0xffffffffffffffffffffffffffffffffffffffff\n      and\n      dup2\n      jump\t// out\n        /* \"contracts/Utils.sol\":14500:14603  function renounceOwnership() public virtual onlyOwner {\r... */\n    tag_40:\n        /* \"contracts/Utils.sol\":14080:14092  _msgSender() */\n      tag_184\n        /* \"contracts/Utils.sol\":14080:14090  _msgSender */\n      tag_185\n        /* \"contracts/Utils.sol\":14080:14092  _msgSender() */\n      jump\t// in\n    tag_184:\n        /* \"contracts/Utils.sol\":14069:14092  owner() == _msgSender() */\n      0xffffffffffffffffffffffffffffffffffffffff\n      and\n        /* \"contracts/Utils.sol\":14069:14076  owner() */\n      tag_186\n        /* \"contracts/Utils.sol\":14069:14074  owner */\n      tag_42\n        /* \"contracts/Utils.sol\":14069:14076  owner() */\n      jump\t// in\n    tag_186:\n        /* \"contracts/Utils.sol\":14069:14092  owner() == _msgSender() */\n      0xffffffffffffffffffffffffffffffffffffffff\n      and\n      eq\n        /* \"contracts/Utils.sol\":14061:14129  require(owner() == _msgSender(), \"Ownable: caller is not the owner\") */\n      tag_187\n      jumpi\n      mload(0x40)\n      0x08c379a000000000000000000000000000000000000000000000000000000000\n      dup2\n      mstore\n      0x04\n      add\n      tag_188\n      swap1\n      tag_189\n      jump\t// in\n    tag_188:\n      mload(0x40)\n      dup1\n      swap2\n      sub\n      swap1\n      revert\n    tag_187:\n        /* \"contracts/Utils.sol\":14565:14595  _transferOwnership(address(0)) */\n      tag_191\n        /* \"contracts/Utils.sol\":14592:14593  0 */\n      0x00\n        /* \"contracts/Utils.sol\":14565:14583  _transferOwnership */\n      tag_192\n        /* \"contracts/Utils.sol\":14565:14595  _transferOwnership(address(0)) */\n      jump\t// in\n    tag_191:\n        /* \"contracts/Utils.sol\":14500:14603  function renounceOwnership() public virtual onlyOwner {\r... */\n      jump\t// out\n        /* \"contracts/Utils.sol\":13849:13936  function owner() public view virtual returns (address) {\r... */\n    tag_42:\n        /* \"contracts/Utils.sol\":13895:13902  address */\n      0x00\n        /* \"contracts/Utils.sol\":13922:13928  _owner */\n      dup1\n      0x00\n      swap1\n      sload\n      swap1\n      0x0100\n      exp\n      swap1\n      div\n      0xffffffffffffffffffffffffffffffffffffffff\n      and\n        /* \"contracts/Utils.sol\":13915:13928  return _owner */\n      swap1\n      pop\n        /* \"contracts/Utils.sol\":13849:13936  function owner() public view virtual returns (address) {\r... */\n      swap1\n      jump\t// out\n        /* \"contracts/Utils.sol\":17263:17327  address public WBNB = 0xae13d989daC2f0dEbFf460aC112a837C89BAa7cd */\n    tag_45:\n      0x01\n      0x00\n      swap1\n      sload\n      swap1\n      0x0100\n      exp\n      swap1\n      div\n      0xffffffffffffffffffffffffffffffffffffffff\n      and\n      dup2\n      jump\t// out\n        /* \"contracts/Utils.sol\":17621:17728  function setRouter(Router _routerAddress) public onlyOwner{\r... */\n    tag_50:\n        /* \"contracts/Utils.sol\":14080:14092  _msgSender() */\n      tag_195\n        /* \"contracts/Utils.sol\":14080:14090  _msgSender */\n      tag_185\n        /* \"contracts/Utils.sol\":14080:14092  _msgSender() */\n      jump\t// in\n    tag_195:\n        /* \"contracts/Utils.sol\":14069:14092  owner() == _msgSender() */\n      0xffffffffffffffffffffffffffffffffffffffff\n      and\n        /* \"contracts/Utils.sol\":14069:14076  owner() */\n      tag_196\n        /* \"contracts/Utils.sol\":14069:14074  owner */\n      tag_42\n        /* \"contracts/Utils.sol\":14069:14076  owner() */\n      jump\t// in\n    tag_196:\n        /* \"contracts/Utils.sol\":14069:14092  owner() == _msgSender() */\n      0xffffffffffffffffffffffffffffffffffffffff\n      and\n      eq\n        /* \"contracts/Utils.sol\":14061:14129  require(owner() == _msgSender(), \"Ownable: caller is not the owner\") */\n      tag_197\n      jumpi\n      mload(0x40)\n      0x08c379a000000000000000000000000000000000000000000000000000000000\n      dup2\n      mstore\n      0x04\n      add\n      tag_198\n      swap1\n      tag_189\n      jump\t// in\n    tag_198:\n      mload(0x40)\n      dup1\n      swap2\n      sub\n      swap1\n      revert\n    tag_197:\n        /* \"contracts/Utils.sol\":17706:17720  _routerAddress */\n      dup1\n        /* \"contracts/Utils.sol\":17690:17703  routerAddress */\n      0x04\n      0x00\n        /* \"contracts/Utils.sol\":17690:17720  routerAddress = _routerAddress */\n      0x0100\n      exp\n      dup2\n      sload\n      dup2\n      0xffffffffffffffffffffffffffffffffffffffff\n      mul\n      not\n      and\n      swap1\n      dup4\n      0xffffffffffffffffffffffffffffffffffffffff\n      and\n      mul\n      or\n      swap1\n      sstore\n      pop\n        /* \"contracts/Utils.sol\":17621:17728  function setRouter(Router _routerAddress) public onlyOwner{\r... */\n      pop\n      jump\t// out\n        /* \"contracts/Utils.sol\":19166:19737  function calcPoolTVLInUSD(uint256 pid, LP lpAddress, uint256 isLp, MetaMasterChef MasterChef) public view returns(uint256){\r... */\n    tag_54:\n        /* \"contracts/Utils.sol\":19280:19287  uint256 */\n      0x00\n        /* \"contracts/Utils.sol\":19299:19314  uint256 Balance */\n      dup1\n        /* \"contracts/Utils.sol\":19317:19327  MasterChef */\n      dup3\n        /* \"contracts/Utils.sol\":19317:19339  MasterChef.poolBalance */\n      0xffffffffffffffffffffffffffffffffffffffff\n      and\n      0x6a6d964e\n        /* \"contracts/Utils.sol\":19340:19343  pid */\n      dup8\n        /* \"contracts/Utils.sol\":19317:19344  MasterChef.poolBalance(pid) */\n      mload(0x40)\n      dup3\n      0xffffffff\n      and\n      0xe0\n      shl\n      dup2\n      mstore\n      0x04\n      add\n      tag_201\n      swap2\n      swap1\n      tag_21\n      jump\t// in\n    tag_201:\n      0x20\n      mload(0x40)\n      dup1\n      dup4\n      sub\n      dup2\n      dup7\n      dup1\n      extcodesize\n      iszero\n      dup1\n      iszero\n      tag_202\n      jumpi\n      0x00\n      dup1\n      revert\n    tag_202:\n      pop\n      gas\n      staticcall\n      iszero\n      dup1\n      iszero\n      tag_204\n      jumpi\n      returndatasize\n      0x00\n      dup1\n      returndatacopy\n      revert(0x00, returndatasize)\n    tag_204:\n      pop\n      pop\n      pop\n      pop\n      mload(0x40)\n      returndatasize\n      not(0x1f)\n      0x1f\n      dup3\n      add\n      and\n      dup3\n      add\n      dup1\n      0x40\n      mstore\n      pop\n      dup2\n      add\n      swap1\n      tag_205\n      swap2\n      swap1\n      tag_106\n      jump\t// in\n    tag_205:\n        /* \"contracts/Utils.sol\":19299:19344  uint256 Balance = MasterChef.poolBalance(pid) */\n      swap1\n      pop\n        /* \"contracts/Utils.sol\":19355:19368  uint256 price */\n      0x00\n        /* \"contracts/Utils.sol\":19390:19391  0 */\n      dup1\n        /* \"contracts/Utils.sol\":19382:19386  isLp */\n      dup6\n        /* \"contracts/Utils.sol\":19382:19391  isLp == 0 */\n      eq\n        /* \"contracts/Utils.sol\":19379:19681  if(isLp == 0){\r... */\n      iszero\n      tag_206\n      jumpi\n        /* \"contracts/Utils.sol\":19415:19437  CalcLpPrice(lpAddress) */\n      tag_207\n        /* \"contracts/Utils.sol\":19427:19436  lpAddress */\n      dup7\n        /* \"contracts/Utils.sol\":19415:19426  CalcLpPrice */\n      tag_25\n        /* \"contracts/Utils.sol\":19415:19437  CalcLpPrice(lpAddress) */\n      jump\t// in\n    tag_207:\n        /* \"contracts/Utils.sol\":19407:19437  price = CalcLpPrice(lpAddress) */\n      swap1\n      pop\n        /* \"contracts/Utils.sol\":19379:19681  if(isLp == 0){\r... */\n      jump(tag_208)\n    tag_206:\n        /* \"contracts/Utils.sol\":19465:19466  1 */\n      0x01\n        /* \"contracts/Utils.sol\":19457:19461  isLp */\n      dup6\n        /* \"contracts/Utils.sol\":19457:19466  isLp == 1 */\n      eq\n        /* \"contracts/Utils.sol\":19454:19681  if(isLp == 1){\r... */\n      iszero\n      tag_209\n      jumpi\n        /* \"contracts/Utils.sol\":19510:19519  lpAddress */\n      dup6\n        /* \"contracts/Utils.sol\":19485:19520  address(WBNB) == address(lpAddress) */\n      0xffffffffffffffffffffffffffffffffffffffff\n      and\n        /* \"contracts/Utils.sol\":19493:19497  WBNB */\n      0x01\n      0x00\n      swap1\n      sload\n      swap1\n      0x0100\n      exp\n      swap1\n      div\n      0xffffffffffffffffffffffffffffffffffffffff\n      and\n        /* \"contracts/Utils.sol\":19485:19520  address(WBNB) == address(lpAddress) */\n      0xffffffffffffffffffffffffffffffffffffffff\n      and\n      eq\n        /* \"contracts/Utils.sol\":19482:19670  if(address(WBNB) == address(lpAddress)){\r... */\n      iszero\n      tag_210\n      jumpi\n        /* \"contracts/Utils.sol\":19548:19578  Tokenprice(address(lpAddress)) */\n      tag_211\n        /* \"contracts/Utils.sol\":19567:19576  lpAddress */\n      dup7\n        /* \"contracts/Utils.sol\":19548:19558  Tokenprice */\n      tag_19\n        /* \"contracts/Utils.sol\":19548:19578  Tokenprice(address(lpAddress)) */\n      jump\t// in\n    tag_211:\n        /* \"contracts/Utils.sol\":19540:19578  price = Tokenprice(address(lpAddress)) */\n      swap1\n      pop\n        /* \"contracts/Utils.sol\":19482:19670  if(address(WBNB) == address(lpAddress)){\r... */\n      jump(tag_212)\n    tag_210:\n        /* \"contracts/Utils.sol\":19625:19654  WBNBPrice(address(lpAddress)) */\n      tag_213\n        /* \"contracts/Utils.sol\":19643:19652  lpAddress */\n      dup7\n        /* \"contracts/Utils.sol\":19625:19634  WBNBPrice */\n      tag_33\n        /* \"contracts/Utils.sol\":19625:19654  WBNBPrice(address(lpAddress)) */\n      jump\t// in\n    tag_213:\n        /* \"contracts/Utils.sol\":19617:19654  price = WBNBPrice(address(lpAddress)) */\n      swap1\n      pop\n        /* \"contracts/Utils.sol\":19482:19670  if(address(WBNB) == address(lpAddress)){\r... */\n    tag_212:\n        /* \"contracts/Utils.sol\":19454:19681  if(isLp == 1){\r... */\n    tag_209:\n        /* \"contracts/Utils.sol\":19379:19681  if(isLp == 0){\r... */\n    tag_208:\n        /* \"contracts/Utils.sol\":19700:19729  (Balance * price).div(amount) */\n      tag_214\n        /* \"contracts/Utils.sol\":19722:19728  amount */\n      sload(0x03)\n        /* \"contracts/Utils.sol\":19711:19716  price */\n      dup3\n        /* \"contracts/Utils.sol\":19701:19708  Balance */\n      dup5\n        /* \"contracts/Utils.sol\":19701:19716  Balance * price */\n      tag_215\n      swap2\n      swap1\n      tag_216\n      jump\t// in\n    tag_215:\n        /* \"contracts/Utils.sol\":19700:19721  (Balance * price).div */\n      tag_167\n      swap1\n        /* \"contracts/Utils.sol\":19700:19729  (Balance * price).div(amount) */\n      swap2\n      swap1\n      0xffffffff\n      and\n      jump\t// in\n    tag_214:\n        /* \"contracts/Utils.sol\":19693:19729  return (Balance * price).div(amount) */\n      swap3\n      pop\n      pop\n      pop\n        /* \"contracts/Utils.sol\":19166:19737  function calcPoolTVLInUSD(uint256 pid, LP lpAddress, uint256 isLp, MetaMasterChef MasterChef) public view returns(uint256){\r... */\n      swap5\n      swap4\n      pop\n      pop\n      pop\n      pop\n      jump\t// out\n        /* \"contracts/Utils.sol\":19745:20445  function CalcApy(uint256 pid, LP lpAddress,uint256 isLp, MetaMasterChef MasterChef) external view returns(uint256){\r... */\n    tag_58:\n        /* \"contracts/Utils.sol\":19851:19858  uint256 */\n      0x00\n        /* \"contracts/Utils.sol\":19870:19890  PoolInfo memory pool */\n      dup1\n        /* \"contracts/Utils.sol\":19893:19903  MasterChef */\n      dup3\n        /* \"contracts/Utils.sol\":19893:19912  MasterChef.poolInfo */\n      0xffffffffffffffffffffffffffffffffffffffff\n      and\n      0x1526fe27\n        /* \"contracts/Utils.sol\":19913:19916  pid */\n      dup8\n        /* \"contracts/Utils.sol\":19893:19917  MasterChef.poolInfo(pid) */\n      mload(0x40)\n      dup3\n      0xffffffff\n      and\n      0xe0\n      shl\n      dup2\n      mstore\n      0x04\n      add\n      tag_218\n      swap2\n      swap1\n      tag_21\n      jump\t// in\n    tag_218:\n      0xc0\n      mload(0x40)\n      dup1\n      dup4\n      sub\n      dup2\n      dup7\n      dup1\n      extcodesize\n      iszero\n      dup1\n      iszero\n      tag_219\n      jumpi\n      0x00\n      dup1\n      revert\n    tag_219:\n      pop\n      gas\n      staticcall\n      iszero\n      dup1\n      iszero\n      tag_221\n      jumpi\n      returndatasize\n      0x00\n      dup1\n      returndatacopy\n      revert(0x00, returndatasize)\n    tag_221:\n      pop\n      pop\n      pop\n      pop\n      mload(0x40)\n      returndatasize\n      not(0x1f)\n      0x1f\n      dup3\n      add\n      and\n      dup3\n      add\n      dup1\n      0x40\n      mstore\n      pop\n      dup2\n      add\n      swap1\n      tag_222\n      swap2\n      swap1\n      tag_223\n      jump\t// in\n    tag_222:\n        /* \"contracts/Utils.sol\":19870:19917  PoolInfo memory pool = MasterChef.poolInfo(pid) */\n      swap1\n      pop\n        /* \"contracts/Utils.sol\":19928:19946  uint256 poolWeight */\n      0x00\n        /* \"contracts/Utils.sol\":19949:20014  ((pool.allocPoint).mul(amount)).div(MasterChef.totalAllocPoint()) */\n      tag_224\n        /* \"contracts/Utils.sol\":19985:19995  MasterChef */\n      dup5\n        /* \"contracts/Utils.sol\":19985:20011  MasterChef.totalAllocPoint */\n      0xffffffffffffffffffffffffffffffffffffffff\n      and\n      0x17caf6f1\n        /* \"contracts/Utils.sol\":19985:20013  MasterChef.totalAllocPoint() */\n      mload(0x40)\n      dup2\n      0xffffffff\n      and\n      0xe0\n      shl\n      dup2\n      mstore\n      0x04\n      add\n      0x20\n      mload(0x40)\n      dup1\n      dup4\n      sub\n      dup2\n      dup7\n      dup1\n      extcodesize\n      iszero\n      dup1\n      iszero\n      tag_225\n      jumpi\n      0x00\n      dup1\n      revert\n    tag_225:\n      pop\n      gas\n      staticcall\n      iszero\n      dup1\n      iszero\n      tag_227\n      jumpi\n      returndatasize\n      0x00\n      dup1\n      returndatacopy\n      revert(0x00, returndatasize)\n    tag_227:\n      pop\n      pop\n      pop\n      pop\n      mload(0x40)\n      returndatasize\n      not(0x1f)\n      0x1f\n      dup3\n      add\n      and\n      dup3\n      add\n      dup1\n      0x40\n      mstore\n      pop\n      dup2\n      add\n      swap1\n      tag_228\n      swap2\n      swap1\n      tag_106\n      jump\t// in\n    tag_228:\n        /* \"contracts/Utils.sol\":19950:19979  (pool.allocPoint).mul(amount) */\n      tag_229\n        /* \"contracts/Utils.sol\":19972:19978  amount */\n      sload(0x03)\n        /* \"contracts/Utils.sol\":19951:19955  pool */\n      dup6\n        /* \"contracts/Utils.sol\":19951:19966  pool.allocPoint */\n      0x20\n      add\n      mload\n        /* \"contracts/Utils.sol\":19950:19971  (pool.allocPoint).mul */\n      tag_107\n      swap1\n        /* \"contracts/Utils.sol\":19950:19979  (pool.allocPoint).mul(amount) */\n      swap2\n      swap1\n      0xffffffff\n      and\n      jump\t// in\n    tag_229:\n        /* \"contracts/Utils.sol\":19949:19984  ((pool.allocPoint).mul(amount)).div */\n      tag_167\n      swap1\n        /* \"contracts/Utils.sol\":19949:20014  ((pool.allocPoint).mul(amount)).div(MasterChef.totalAllocPoint()) */\n      swap2\n      swap1\n      0xffffffff\n      and\n      jump\t// in\n    tag_224:\n        /* \"contracts/Utils.sol\":19928:20014  uint256 poolWeight = ((pool.allocPoint).mul(amount)).div(MasterChef.totalAllocPoint()) */\n      swap1\n      pop\n        /* \"contracts/Utils.sol\":20025:20049  uint256 rewardTokenPrice */\n      0x00\n        /* \"contracts/Utils.sol\":20052:20080  Tokenprice(MasterChef.DRG()) */\n      tag_230\n        /* \"contracts/Utils.sol\":20063:20073  MasterChef */\n      dup6\n        /* \"contracts/Utils.sol\":20063:20077  MasterChef.DRG */\n      0xffffffffffffffffffffffffffffffffffffffff\n      and\n      0x141aa0ba\n        /* \"contracts/Utils.sol\":20063:20079  MasterChef.DRG() */\n      mload(0x40)\n      dup2\n      0xffffffff\n      and\n      0xe0\n      shl\n      dup2\n      mstore\n      0x04\n      add\n      0x20\n      mload(0x40)\n      dup1\n      dup4\n      sub\n      dup2\n      dup7\n      dup1\n      extcodesize\n      iszero\n      dup1\n      iszero\n      tag_231\n      jumpi\n      0x00\n      dup1\n      revert\n    tag_231:\n      pop\n      gas\n      staticcall\n      iszero\n      dup1\n      iszero\n      tag_233\n      jumpi\n      returndatasize\n      0x00\n      dup1\n      returndatacopy\n      revert(0x00, returndatasize)\n    tag_233:\n      pop\n      pop\n      pop\n      pop\n      mload(0x40)\n      returndatasize\n      not(0x1f)\n      0x1f\n      dup3\n      add\n      and\n      dup3\n      add\n      dup1\n      0x40\n      mstore\n      pop\n      dup2\n      add\n      swap1\n      tag_234\n      swap2\n      swap1\n      tag_235\n      jump\t// in\n    tag_234:\n        /* \"contracts/Utils.sol\":20052:20062  Tokenprice */\n      tag_19\n        /* \"contracts/Utils.sol\":20052:20080  Tokenprice(MasterChef.DRG()) */\n      jump\t// in\n    tag_230:\n        /* \"contracts/Utils.sol\":20025:20080  uint256 rewardTokenPrice = Tokenprice(MasterChef.DRG()) */\n      swap1\n      pop\n        /* \"contracts/Utils.sol\":20091:20111  uint256 DRG_PER_YEAR */\n      0x00\n        /* \"contracts/Utils.sol\":20114:20159  BLOCKS_PER_YEAR.mul(MasterChef.DRGPerBlock()) */\n      tag_236\n        /* \"contracts/Utils.sol\":20134:20144  MasterChef */\n      dup7\n        /* \"contracts/Utils.sol\":20134:20156  MasterChef.DRGPerBlock */\n      0xffffffffffffffffffffffffffffffffffffffff\n      and\n      0xa1eef821\n        /* \"contracts/Utils.sol\":20134:20158  MasterChef.DRGPerBlock() */\n      mload(0x40)\n      dup2\n      0xffffffff\n      and\n      0xe0\n      shl\n      dup2\n      mstore\n      0x04\n      add\n      0x20\n      mload(0x40)\n      dup1\n      dup4\n      sub\n      dup2\n      dup7\n      dup1\n      extcodesize\n      iszero\n      dup1\n      iszero\n      tag_237\n      jumpi\n      0x00\n      dup1\n      revert\n    tag_237:\n      pop\n      gas\n      staticcall\n      iszero\n      dup1\n      iszero\n      tag_239\n      jumpi\n      returndatasize\n      0x00\n      dup1\n      returndatacopy\n      revert(0x00, returndatasize)\n    tag_239:\n      pop\n      pop\n      pop\n      pop\n      mload(0x40)\n      returndatasize\n      not(0x1f)\n      0x1f\n      dup3\n      add\n      and\n      dup3\n      add\n      dup1\n      0x40\n      mstore\n      pop\n      dup2\n      add\n      swap1\n      tag_240\n      swap2\n      swap1\n      tag_106\n      jump\t// in\n    tag_240:\n        /* \"contracts/Utils.sol\":20114:20129  BLOCKS_PER_YEAR */\n      sload(0x05)\n        /* \"contracts/Utils.sol\":20114:20133  BLOCKS_PER_YEAR.mul */\n      tag_107\n      swap1\n        /* \"contracts/Utils.sol\":20114:20159  BLOCKS_PER_YEAR.mul(MasterChef.DRGPerBlock()) */\n      swap2\n      swap1\n      0xffffffff\n      and\n      jump\t// in\n    tag_236:\n        /* \"contracts/Utils.sol\":20091:20159  uint256 DRG_PER_YEAR = BLOCKS_PER_YEAR.mul(MasterChef.DRGPerBlock()) */\n      swap1\n      pop\n        /* \"contracts/Utils.sol\":20170:20203  uint256 yearlyDRGRewardAllocation */\n      0x00\n        /* \"contracts/Utils.sol\":20206:20234  DRG_PER_YEAR.mul(poolWeight) */\n      tag_241\n        /* \"contracts/Utils.sol\":20223:20233  poolWeight */\n      dup5\n        /* \"contracts/Utils.sol\":20206:20218  DRG_PER_YEAR */\n      dup4\n        /* \"contracts/Utils.sol\":20206:20222  DRG_PER_YEAR.mul */\n      tag_107\n      swap1\n        /* \"contracts/Utils.sol\":20206:20234  DRG_PER_YEAR.mul(poolWeight) */\n      swap2\n      swap1\n      0xffffffff\n      and\n      jump\t// in\n    tag_241:\n        /* \"contracts/Utils.sol\":20170:20234  uint256 yearlyDRGRewardAllocation = DRG_PER_YEAR.mul(poolWeight) */\n      swap1\n      pop\n        /* \"contracts/Utils.sol\":20245:20269  uint256 poolLiquidityUsd */\n      0x00\n        /* \"contracts/Utils.sol\":20272:20322  calcPoolTVLInUSD(pid, lpAddress, isLp, MasterChef) */\n      tag_242\n        /* \"contracts/Utils.sol\":20289:20292  pid */\n      dup12\n        /* \"contracts/Utils.sol\":20294:20303  lpAddress */\n      dup12\n        /* \"contracts/Utils.sol\":20305:20309  isLp */\n      dup12\n        /* \"contracts/Utils.sol\":20311:20321  MasterChef */\n      dup12\n        /* \"contracts/Utils.sol\":20272:20288  calcPoolTVLInUSD */\n      tag_54\n        /* \"contracts/Utils.sol\":20272:20322  calcPoolTVLInUSD(pid, lpAddress, isLp, MasterChef) */\n      jump\t// in\n    tag_242:\n        /* \"contracts/Utils.sol\":20245:20322  uint256 poolLiquidityUsd = calcPoolTVLInUSD(pid, lpAddress, isLp, MasterChef) */\n      swap1\n      pop\n        /* \"contracts/Utils.sol\":20341:20437  (((yearlyDRGRewardAllocation.mul(rewardTokenPrice)).div(amount)).div(poolLiquidityUsd)).mul(100) */\n      tag_243\n        /* \"contracts/Utils.sol\":20433:20436  100 */\n      0x64\n        /* \"contracts/Utils.sol\":20342:20427  ((yearlyDRGRewardAllocation.mul(rewardTokenPrice)).div(amount)).div(poolLiquidityUsd) */\n      tag_244\n        /* \"contracts/Utils.sol\":20410:20426  poolLiquidityUsd */\n      dup4\n        /* \"contracts/Utils.sol\":20343:20404  (yearlyDRGRewardAllocation.mul(rewardTokenPrice)).div(amount) */\n      tag_245\n        /* \"contracts/Utils.sol\":20397:20403  amount */\n      sload(0x03)\n        /* \"contracts/Utils.sol\":20344:20391  yearlyDRGRewardAllocation.mul(rewardTokenPrice) */\n      tag_246\n        /* \"contracts/Utils.sol\":20374:20390  rewardTokenPrice */\n      dup11\n        /* \"contracts/Utils.sol\":20344:20369  yearlyDRGRewardAllocation */\n      dup10\n        /* \"contracts/Utils.sol\":20344:20373  yearlyDRGRewardAllocation.mul */\n      tag_107\n      swap1\n        /* \"contracts/Utils.sol\":20344:20391  yearlyDRGRewardAllocation.mul(rewardTokenPrice) */\n      swap2\n      swap1\n      0xffffffff\n      and\n      jump\t// in\n    tag_246:\n        /* \"contracts/Utils.sol\":20343:20396  (yearlyDRGRewardAllocation.mul(rewardTokenPrice)).div */\n      tag_167\n      swap1\n        /* \"contracts/Utils.sol\":20343:20404  (yearlyDRGRewardAllocation.mul(rewardTokenPrice)).div(amount) */\n      swap2\n      swap1\n      0xffffffff\n      and\n      jump\t// in\n    tag_245:\n        /* \"contracts/Utils.sol\":20342:20409  ((yearlyDRGRewardAllocation.mul(rewardTokenPrice)).div(amount)).div */\n      tag_167\n      swap1\n        /* \"contracts/Utils.sol\":20342:20427  ((yearlyDRGRewardAllocation.mul(rewardTokenPrice)).div(amount)).div(poolLiquidityUsd) */\n      swap2\n      swap1\n      0xffffffff\n      and\n      jump\t// in\n    tag_244:\n        /* \"contracts/Utils.sol\":20341:20432  (((yearlyDRGRewardAllocation.mul(rewardTokenPrice)).div(amount)).div(poolLiquidityUsd)).mul */\n      tag_107\n      swap1\n        /* \"contracts/Utils.sol\":20341:20437  (((yearlyDRGRewardAllocation.mul(rewardTokenPrice)).div(amount)).div(poolLiquidityUsd)).mul(100) */\n      swap2\n      swap1\n      0xffffffff\n      and\n      jump\t// in\n    tag_243:\n        /* \"contracts/Utils.sol\":20335:20437  return(((yearlyDRGRewardAllocation.mul(rewardTokenPrice)).div(amount)).div(poolLiquidityUsd)).mul(100) */\n      swap7\n      pop\n      pop\n      pop\n      pop\n      pop\n      pop\n      pop\n        /* \"contracts/Utils.sol\":19745:20445  function CalcApy(uint256 pid, LP lpAddress,uint256 isLp, MetaMasterChef MasterChef) external view returns(uint256){\r... */\n      swap5\n      swap4\n      pop\n      pop\n      pop\n      pop\n      jump\t// out\n        /* \"contracts/Utils.sol\":14758:14959  function transferOwnership(address newOwner) public virtual onlyOwner {\r... */\n    tag_62:\n        /* \"contracts/Utils.sol\":14080:14092  _msgSender() */\n      tag_248\n        /* \"contracts/Utils.sol\":14080:14090  _msgSender */\n      tag_185\n        /* \"contracts/Utils.sol\":14080:14092  _msgSender() */\n      jump\t// in\n    tag_248:\n        /* \"contracts/Utils.sol\":14069:14092  owner() == _msgSender() */\n      0xffffffffffffffffffffffffffffffffffffffff\n      and\n        /* \"contracts/Utils.sol\":14069:14076  owner() */\n      tag_249\n        /* \"contracts/Utils.sol\":14069:14074  owner */\n      tag_42\n        /* \"contracts/Utils.sol\":14069:14076  owner() */\n      jump\t// in\n    tag_249:\n        /* \"contracts/Utils.sol\":14069:14092  owner() == _msgSender() */\n      0xffffffffffffffffffffffffffffffffffffffff\n      and\n      eq\n        /* \"contracts/Utils.sol\":14061:14129  require(owner() == _msgSender(), \"Ownable: caller is not the owner\") */\n      tag_250\n      jumpi\n      mload(0x40)\n      0x08c379a000000000000000000000000000000000000000000000000000000000\n      dup2\n      mstore\n      0x04\n      add\n      tag_251\n      swap1\n      tag_189\n      jump\t// in\n    tag_251:\n      mload(0x40)\n      dup1\n      swap2\n      sub\n      swap1\n      revert\n    tag_250:\n        /* \"contracts/Utils.sol\":14867:14868  0 */\n      0x00\n        /* \"contracts/Utils.sol\":14847:14869  newOwner != address(0) */\n      0xffffffffffffffffffffffffffffffffffffffff\n      and\n        /* \"contracts/Utils.sol\":14847:14855  newOwner */\n      dup2\n        /* \"contracts/Utils.sol\":14847:14869  newOwner != address(0) */\n      0xffffffffffffffffffffffffffffffffffffffff\n      and\n      eq\n      iszero\n        /* \"contracts/Utils.sol\":14839:14912  require(newOwner != address(0), \"Ownable: new owner is the zero address\") */\n      tag_253\n      jumpi\n      mload(0x40)\n      0x08c379a000000000000000000000000000000000000000000000000000000000\n      dup2\n      mstore\n      0x04\n      add\n      tag_254\n      swap1\n      tag_255\n      jump\t// in\n    tag_254:\n      mload(0x40)\n      dup1\n      swap2\n      sub\n      swap1\n      revert\n    tag_253:\n        /* \"contracts/Utils.sol\":14923:14951  _transferOwnership(newOwner) */\n      tag_256\n        /* \"contracts/Utils.sol\":14942:14950  newOwner */\n      dup2\n        /* \"contracts/Utils.sol\":14923:14941  _transferOwnership */\n      tag_192\n        /* \"contracts/Utils.sol\":14923:14951  _transferOwnership(newOwner) */\n      jump\t// in\n    tag_256:\n        /* \"contracts/Utils.sol\":14758:14959  function transferOwnership(address newOwner) public virtual onlyOwner {\r... */\n      pop\n      jump\t// out\n        /* \"contracts/Utils.sol\":9965:10436  function mul(uint256 a, uint256 b) internal pure returns (uint256) {\r... */\n    tag_107:\n        /* \"contracts/Utils.sol\":10023:10030  uint256 */\n      0x00\n        /* \"contracts/Utils.sol\":10273:10274  0 */\n      dup1\n        /* \"contracts/Utils.sol\":10268:10269  a */\n      dup4\n        /* \"contracts/Utils.sol\":10268:10274  a == 0 */\n      eq\n        /* \"contracts/Utils.sol\":10264:10311  if (a == 0) {\r... */\n      iszero\n      tag_258\n      jumpi\n        /* \"contracts/Utils.sol\":10298:10299  0 */\n      0x00\n        /* \"contracts/Utils.sol\":10291:10299  return 0 */\n      swap1\n      pop\n      jump(tag_257)\n        /* \"contracts/Utils.sol\":10264:10311  if (a == 0) {\r... */\n    tag_258:\n        /* \"contracts/Utils.sol\":10323:10332  uint256 c */\n      0x00\n        /* \"contracts/Utils.sol\":10339:10340  b */\n      dup3\n        /* \"contracts/Utils.sol\":10335:10336  a */\n      dup5\n        /* \"contracts/Utils.sol\":10335:10340  a * b */\n      tag_259\n      swap2\n      swap1\n      tag_216\n      jump\t// in\n    tag_259:\n        /* \"contracts/Utils.sol\":10323:10340  uint256 c = a * b */\n      swap1\n      pop\n        /* \"contracts/Utils.sol\":10368:10369  b */\n      dup3\n        /* \"contracts/Utils.sol\":10363:10364  a */\n      dup5\n        /* \"contracts/Utils.sol\":10359:10360  c */\n      dup3\n        /* \"contracts/Utils.sol\":10359:10364  c / a */\n      tag_260\n      swap2\n      swap1\n      tag_261\n      jump\t// in\n    tag_260:\n        /* \"contracts/Utils.sol\":10359:10369  c / a == b */\n      eq\n        /* \"contracts/Utils.sol\":10351:10407  require(c / a == b, \"SafeMath: multiplication overflow\") */\n      tag_262\n      jumpi\n      mload(0x40)\n      0x08c379a000000000000000000000000000000000000000000000000000000000\n      dup2\n      mstore\n      0x04\n      add\n      tag_263\n      swap1\n      tag_264\n      jump\t// in\n    tag_263:\n      mload(0x40)\n      dup1\n      swap2\n      sub\n      swap1\n      revert\n    tag_262:\n        /* \"contracts/Utils.sol\":10427:10428  c */\n      dup1\n        /* \"contracts/Utils.sol\":10420:10428  return c */\n      swap2\n      pop\n      pop\n        /* \"contracts/Utils.sol\":9965:10436  function mul(uint256 a, uint256 b) internal pure returns (uint256) {\r... */\n    tag_257:\n      swap3\n      swap2\n      pop\n      pop\n      jump\t// out\n        /* \"contracts/Utils.sol\":8593:8774  function add(uint256 a, uint256 b) internal pure returns (uint256) {\r... */\n    tag_166:\n        /* \"contracts/Utils.sol\":8651:8658  uint256 */\n      0x00\n        /* \"contracts/Utils.sol\":8671:8680  uint256 c */\n      dup1\n        /* \"contracts/Utils.sol\":8687:8688  b */\n      dup3\n        /* \"contracts/Utils.sol\":8683:8684  a */\n      dup5\n        /* \"contracts/Utils.sol\":8683:8688  a + b */\n      tag_266\n      swap2\n      swap1\n      tag_267\n      jump\t// in\n    tag_266:\n        /* \"contracts/Utils.sol\":8671:8688  uint256 c = a + b */\n      swap1\n      pop\n        /* \"contracts/Utils.sol\":8712:8713  a */\n      dup4\n        /* \"contracts/Utils.sol\":8707:8708  c */\n      dup2\n        /* \"contracts/Utils.sol\":8707:8713  c >= a */\n      lt\n      iszero\n        /* \"contracts/Utils.sol\":8699:8745  require(c >= a, \"SafeMath: addition overflow\") */\n      tag_268\n      jumpi\n      mload(0x40)\n      0x08c379a000000000000000000000000000000000000000000000000000000000\n      dup2\n      mstore\n      0x04\n      add\n      tag_269\n      swap1\n      tag_270\n      jump\t// in\n    tag_269:\n      mload(0x40)\n      dup1\n      swap2\n      sub\n      swap1\n      revert\n    tag_268:\n        /* \"contracts/Utils.sol\":8765:8766  c */\n      dup1\n        /* \"contracts/Utils.sol\":8758:8766  return c */\n      swap2\n      pop\n      pop\n        /* \"contracts/Utils.sol\":8593:8774  function add(uint256 a, uint256 b) internal pure returns (uint256) {\r... */\n      swap3\n      swap2\n      pop\n      pop\n      jump\t// out\n        /* \"contracts/Utils.sol\":10904:11036  function div(uint256 a, uint256 b) internal pure returns (uint256) {\r... */\n    tag_167:\n        /* \"contracts/Utils.sol\":10962:10969  uint256 */\n      0x00\n        /* \"contracts/Utils.sol\":10989:11028  div(a, b, \"SafeMath: division by zero\") */\n      tag_272\n        /* \"contracts/Utils.sol\":10993:10994  a */\n      dup4\n        /* \"contracts/Utils.sol\":10996:10997  b */\n      dup4\n        /* \"contracts/Utils.sol\":10989:11028  div(a, b, \"SafeMath: division by zero\") */\n      mload(0x40)\n      dup1\n      0x40\n      add\n      0x40\n      mstore\n      dup1\n      0x1a\n      dup2\n      mstore\n      0x20\n      add\n      0x536166654d6174683a206469766973696f6e206279207a65726f000000000000\n      dup2\n      mstore\n      pop\n        /* \"contracts/Utils.sol\":10989:10992  div */\n      tag_273\n        /* \"contracts/Utils.sol\":10989:11028  div(a, b, \"SafeMath: division by zero\") */\n      jump\t// in\n    tag_272:\n        /* \"contracts/Utils.sol\":10982:11028  return div(a, b, \"SafeMath: division by zero\") */\n      swap1\n      pop\n        /* \"contracts/Utils.sol\":10904:11036  function div(uint256 a, uint256 b) internal pure returns (uint256) {\r... */\n      swap3\n      swap2\n      pop\n      pop\n      jump\t// out\n        /* \"contracts/Utils.sol\":13223:13321  function _msgSender() internal view virtual returns (address) {\r... */\n    tag_185:\n        /* \"contracts/Utils.sol\":13276:13283  address */\n      0x00\n        /* \"contracts/Utils.sol\":13303:13313  msg.sender */\n      caller\n        /* \"contracts/Utils.sol\":13296:13313  return msg.sender */\n      swap1\n      pop\n        /* \"contracts/Utils.sol\":13223:13321  function _msgSender() internal view virtual returns (address) {\r... */\n      swap1\n      jump\t// out\n        /* \"contracts/Utils.sol\":15119:15310  function _transferOwnership(address newOwner) internal virtual {\r... */\n    tag_192:\n        /* \"contracts/Utils.sol\":15193:15209  address oldOwner */\n      0x00\n        /* \"contracts/Utils.sol\":15212:15218  _owner */\n      dup1\n      0x00\n      swap1\n      sload\n      swap1\n      0x0100\n      exp\n      swap1\n      div\n      0xffffffffffffffffffffffffffffffffffffffff\n      and\n        /* \"contracts/Utils.sol\":15193:15218  address oldOwner = _owner */\n      swap1\n      pop\n        /* \"contracts/Utils.sol\":15238:15246  newOwner */\n      dup2\n        /* \"contracts/Utils.sol\":15229:15235  _owner */\n      0x00\n      dup1\n        /* \"contracts/Utils.sol\":15229:15246  _owner = newOwner */\n      0x0100\n      exp\n      dup2\n      sload\n      dup2\n      0xffffffffffffffffffffffffffffffffffffffff\n      mul\n      not\n      and\n      swap1\n      dup4\n      0xffffffffffffffffffffffffffffffffffffffff\n      and\n      mul\n      or\n      swap1\n      sstore\n      pop\n        /* \"contracts/Utils.sol\":15293:15301  newOwner */\n      dup2\n        /* \"contracts/Utils.sol\":15262:15302  OwnershipTransferred(oldOwner, newOwner) */\n      0xffffffffffffffffffffffffffffffffffffffff\n      and\n        /* \"contracts/Utils.sol\":15283:15291  oldOwner */\n      dup2\n        /* \"contracts/Utils.sol\":15262:15302  OwnershipTransferred(oldOwner, newOwner) */\n      0xffffffffffffffffffffffffffffffffffffffff\n      and\n      0x8be0079c531659141344cd1fd0a4f28419497f9722a3daafe3b4186f6b6457e0\n      mload(0x40)\n      mload(0x40)\n      dup1\n      swap2\n      sub\n      swap1\n      log3\n        /* \"contracts/Utils.sol\":15182:15310  {\r... */\n      pop\n        /* \"contracts/Utils.sol\":15119:15310  function _transferOwnership(address newOwner) internal virtual {\r... */\n      pop\n      jump\t// out\n        /* \"contracts/Utils.sol\":11566:11911  function div(uint256 a, uint256 b, string memory errorMessage) internal pure returns (uint256) {\r... */\n    tag_273:\n        /* \"contracts/Utils.sol\":11652:11659  uint256 */\n      0x00\n        /* \"contracts/Utils.sol\":11751:11752  0 */\n      dup1\n        /* \"contracts/Utils.sol\":11747:11748  b */\n      dup4\n        /* \"contracts/Utils.sol\":11747:11752  b > 0 */\n      gt\n        /* \"contracts/Utils.sol\":11754:11766  errorMessage */\n      dup3\n        /* \"contracts/Utils.sol\":11739:11767  require(b > 0, errorMessage) */\n      swap1\n      tag_277\n      jumpi\n      mload(0x40)\n      0x08c379a000000000000000000000000000000000000000000000000000000000\n      dup2\n      mstore\n      0x04\n      add\n      tag_278\n      swap2\n      swap1\n      tag_279\n      jump\t// in\n    tag_278:\n      mload(0x40)\n      dup1\n      swap2\n      sub\n      swap1\n      revert\n    tag_277:\n      pop\n        /* \"contracts/Utils.sol\":11778:11787  uint256 c */\n      0x00\n        /* \"contracts/Utils.sol\":11794:11795  b */\n      dup4\n        /* \"contracts/Utils.sol\":11790:11791  a */\n      dup6\n        /* \"contracts/Utils.sol\":11790:11795  a / b */\n      tag_280\n      swap2\n      swap1\n      tag_261\n      jump\t// in\n    tag_280:\n        /* \"contracts/Utils.sol\":11778:11795  uint256 c = a / b */\n      swap1\n      pop\n        /* \"contracts/Utils.sol\":11902:11903  c */\n      dup1\n        /* \"contracts/Utils.sol\":11895:11903  return c */\n      swap2\n      pop\n      pop\n        /* \"contracts/Utils.sol\":11566:11911  function div(uint256 a, uint256 b, string memory errorMessage) internal pure returns (uint256) {\r... */\n      swap4\n      swap3\n      pop\n      pop\n      pop\n      jump\t// out\n        /* \"#utility.yul\":24:768   */\n    tag_282:\n        /* \"#utility.yul\":131:136   */\n      0x00\n        /* \"#utility.yul\":156:237   */\n      tag_284\n        /* \"#utility.yul\":172:236   */\n      tag_285\n        /* \"#utility.yul\":229:235   */\n      dup5\n        /* \"#utility.yul\":172:236   */\n      tag_286\n      jump\t// in\n    tag_285:\n        /* \"#utility.yul\":156:237   */\n      tag_287\n      jump\t// in\n    tag_284:\n        /* \"#utility.yul\":147:237   */\n      swap1\n      pop\n        /* \"#utility.yul\":257:262   */\n      dup1\n        /* \"#utility.yul\":286:292   */\n      dup4\n        /* \"#utility.yul\":279:284   */\n      dup3\n        /* \"#utility.yul\":272:293   */\n      mstore\n        /* \"#utility.yul\":320:324   */\n      0x20\n        /* \"#utility.yul\":313:318   */\n      dup3\n        /* \"#utility.yul\":309:325   */\n      add\n        /* \"#utility.yul\":302:325   */\n      swap1\n      pop\n        /* \"#utility.yul\":346:352   */\n      dup3\n        /* \"#utility.yul\":396:399   */\n      dup6\n        /* \"#utility.yul\":388:392   */\n      0x20\n        /* \"#utility.yul\":380:386   */\n      dup7\n        /* \"#utility.yul\":376:393   */\n      mul\n        /* \"#utility.yul\":371:374   */\n      dup3\n        /* \"#utility.yul\":367:394   */\n      add\n        /* \"#utility.yul\":364:400   */\n      gt\n        /* \"#utility.yul\":361:504   */\n      iszero\n      tag_288\n      jumpi\n        /* \"#utility.yul\":415:494   */\n      tag_289\n      tag_290\n      jump\t// in\n    tag_289:\n        /* \"#utility.yul\":361:504   */\n    tag_288:\n        /* \"#utility.yul\":528:529   */\n      0x00\n        /* \"#utility.yul\":513:762   */\n    tag_291:\n        /* \"#utility.yul\":538:544   */\n      dup6\n        /* \"#utility.yul\":535:536   */\n      dup2\n        /* \"#utility.yul\":532:545   */\n      lt\n        /* \"#utility.yul\":513:762   */\n      iszero\n      tag_293\n      jumpi\n        /* \"#utility.yul\":606:609   */\n      dup2\n        /* \"#utility.yul\":635:683   */\n      tag_294\n        /* \"#utility.yul\":679:682   */\n      dup9\n        /* \"#utility.yul\":667:677   */\n      dup3\n        /* \"#utility.yul\":635:683   */\n      tag_295\n      jump\t// in\n    tag_294:\n        /* \"#utility.yul\":630:633   */\n      dup5\n        /* \"#utility.yul\":623:684   */\n      mstore\n        /* \"#utility.yul\":713:717   */\n      0x20\n        /* \"#utility.yul\":708:711   */\n      dup5\n        /* \"#utility.yul\":704:718   */\n      add\n        /* \"#utility.yul\":697:718   */\n      swap4\n      pop\n        /* \"#utility.yul\":747:751   */\n      0x20\n        /* \"#utility.yul\":742:745   */\n      dup4\n        /* \"#utility.yul\":738:752   */\n      add\n        /* \"#utility.yul\":731:752   */\n      swap3\n      pop\n        /* \"#utility.yul\":573:762   */\n      pop\n        /* \"#utility.yul\":560:561   */\n      0x01\n        /* \"#utility.yul\":557:558   */\n      dup2\n        /* \"#utility.yul\":553:562   */\n      add\n        /* \"#utility.yul\":548:562   */\n      swap1\n      pop\n        /* \"#utility.yul\":513:762   */\n      jump(tag_291)\n    tag_293:\n        /* \"#utility.yul\":517:531   */\n      pop\n        /* \"#utility.yul\":137:768   */\n      pop\n      pop\n        /* \"#utility.yul\":24:768   */\n      swap4\n      swap3\n      pop\n      pop\n      pop\n      jump\t// out\n        /* \"#utility.yul\":774:913   */\n    tag_296:\n        /* \"#utility.yul\":820:825   */\n      0x00\n        /* \"#utility.yul\":858:864   */\n      dup2\n        /* \"#utility.yul\":845:865   */\n      calldataload\n        /* \"#utility.yul\":836:865   */\n      swap1\n      pop\n        /* \"#utility.yul\":874:907   */\n      tag_298\n        /* \"#utility.yul\":901:906   */\n      dup2\n        /* \"#utility.yul\":874:907   */\n      tag_299\n      jump\t// in\n    tag_298:\n        /* \"#utility.yul\":774:913   */\n      swap3\n      swap2\n      pop\n      pop\n      jump\t// out\n        /* \"#utility.yul\":919:1062   */\n    tag_300:\n        /* \"#utility.yul\":976:981   */\n      0x00\n        /* \"#utility.yul\":1007:1013   */\n      dup2\n        /* \"#utility.yul\":1001:1014   */\n      mload\n        /* \"#utility.yul\":992:1014   */\n      swap1\n      pop\n        /* \"#utility.yul\":1023:1056   */\n      tag_302\n        /* \"#utility.yul\":1050:1055   */\n      dup2\n        /* \"#utility.yul\":1023:1056   */\n      tag_299\n      jump\t// in\n    tag_302:\n        /* \"#utility.yul\":919:1062   */\n      swap3\n      swap2\n      pop\n      pop\n      jump\t// out\n        /* \"#utility.yul\":1085:1470   */\n    tag_303:\n        /* \"#utility.yul\":1167:1172   */\n      0x00\n        /* \"#utility.yul\":1216:1219   */\n      dup3\n        /* \"#utility.yul\":1209:1213   */\n      0x1f\n        /* \"#utility.yul\":1201:1207   */\n      dup4\n        /* \"#utility.yul\":1197:1214   */\n      add\n        /* \"#utility.yul\":1193:1220   */\n      slt\n        /* \"#utility.yul\":1183:1305   */\n      tag_305\n      jumpi\n        /* \"#utility.yul\":1224:1303   */\n      tag_306\n      tag_307\n      jump\t// in\n    tag_306:\n        /* \"#utility.yul\":1183:1305   */\n    tag_305:\n        /* \"#utility.yul\":1334:1340   */\n      dup2\n        /* \"#utility.yul\":1328:1341   */\n      mload\n        /* \"#utility.yul\":1359:1464   */\n      tag_308\n        /* \"#utility.yul\":1460:1463   */\n      dup5\n        /* \"#utility.yul\":1452:1458   */\n      dup3\n        /* \"#utility.yul\":1445:1449   */\n      0x20\n        /* \"#utility.yul\":1437:1443   */\n      dup7\n        /* \"#utility.yul\":1433:1450   */\n      add\n        /* \"#utility.yul\":1359:1464   */\n      tag_282\n      jump\t// in\n    tag_308:\n        /* \"#utility.yul\":1350:1464   */\n      swap2\n      pop\n        /* \"#utility.yul\":1173:1470   */\n      pop\n        /* \"#utility.yul\":1085:1470   */\n      swap3\n      swap2\n      pop\n      pop\n      jump\t// out\n        /* \"#utility.yul\":1476:1647   */\n    tag_309:\n        /* \"#utility.yul\":1547:1552   */\n      0x00\n        /* \"#utility.yul\":1578:1584   */\n      dup2\n        /* \"#utility.yul\":1572:1585   */\n      mload\n        /* \"#utility.yul\":1563:1585   */\n      swap1\n      pop\n        /* \"#utility.yul\":1594:1641   */\n      tag_311\n        /* \"#utility.yul\":1635:1640   */\n      dup2\n        /* \"#utility.yul\":1594:1641   */\n      tag_312\n      jump\t// in\n    tag_311:\n        /* \"#utility.yul\":1476:1647   */\n      swap3\n      swap2\n      pop\n      pop\n      jump\t// out\n        /* \"#utility.yul\":1653:1834   */\n    tag_313:\n        /* \"#utility.yul\":1729:1734   */\n      0x00\n        /* \"#utility.yul\":1760:1766   */\n      dup2\n        /* \"#utility.yul\":1754:1767   */\n      mload\n        /* \"#utility.yul\":1745:1767   */\n      swap1\n      pop\n        /* \"#utility.yul\":1776:1828   */\n      tag_315\n        /* \"#utility.yul\":1822:1827   */\n      dup2\n        /* \"#utility.yul\":1776:1828   */\n      tag_316\n      jump\t// in\n    tag_315:\n        /* \"#utility.yul\":1653:1834   */\n      swap3\n      swap2\n      pop\n      pop\n      jump\t// out\n        /* \"#utility.yul\":1840:1999   */\n    tag_317:\n        /* \"#utility.yul\":1896:1901   */\n      0x00\n        /* \"#utility.yul\":1934:1940   */\n      dup2\n        /* \"#utility.yul\":1921:1941   */\n      calldataload\n        /* \"#utility.yul\":1912:1941   */\n      swap1\n      pop\n        /* \"#utility.yul\":1950:1993   */\n      tag_319\n        /* \"#utility.yul\":1987:1992   */\n      dup2\n        /* \"#utility.yul\":1950:1993   */\n      tag_320\n      jump\t// in\n    tag_319:\n        /* \"#utility.yul\":1840:1999   */\n      swap3\n      swap2\n      pop\n      pop\n      jump\t// out\n        /* \"#utility.yul\":2005:2188   */\n    tag_321:\n        /* \"#utility.yul\":2073:2078   */\n      0x00\n        /* \"#utility.yul\":2111:2117   */\n      dup2\n        /* \"#utility.yul\":2098:2118   */\n      calldataload\n        /* \"#utility.yul\":2089:2118   */\n      swap1\n      pop\n        /* \"#utility.yul\":2127:2182   */\n      tag_323\n        /* \"#utility.yul\":2176:2181   */\n      dup2\n        /* \"#utility.yul\":2127:2182   */\n      tag_324\n      jump\t// in\n    tag_323:\n        /* \"#utility.yul\":2005:2188   */\n      swap3\n      swap2\n      pop\n      pop\n      jump\t// out\n        /* \"#utility.yul\":2194:2361   */\n    tag_325:\n        /* \"#utility.yul\":2254:2259   */\n      0x00\n        /* \"#utility.yul\":2292:2298   */\n      dup2\n        /* \"#utility.yul\":2279:2299   */\n      calldataload\n        /* \"#utility.yul\":2270:2299   */\n      swap1\n      pop\n        /* \"#utility.yul\":2308:2355   */\n      tag_327\n        /* \"#utility.yul\":2349:2354   */\n      dup2\n        /* \"#utility.yul\":2308:2355   */\n      tag_328\n      jump\t// in\n    tag_327:\n        /* \"#utility.yul\":2194:2361   */\n      swap3\n      swap2\n      pop\n      pop\n      jump\t// out\n        /* \"#utility.yul\":2390:3781   */\n    tag_329:\n        /* \"#utility.yul\":2475:2480   */\n      0x00\n        /* \"#utility.yul\":2519:2523   */\n      0xc0\n        /* \"#utility.yul\":2507:2516   */\n      dup3\n        /* \"#utility.yul\":2502:2505   */\n      dup5\n        /* \"#utility.yul\":2498:2517   */\n      sub\n        /* \"#utility.yul\":2494:2524   */\n      slt\n        /* \"#utility.yul\":2491:2608   */\n      iszero\n      tag_331\n      jumpi\n        /* \"#utility.yul\":2527:2606   */\n      tag_332\n      tag_333\n      jump\t// in\n    tag_332:\n        /* \"#utility.yul\":2491:2608   */\n    tag_331:\n        /* \"#utility.yul\":2626:2647   */\n      tag_334\n        /* \"#utility.yul\":2642:2646   */\n      0xc0\n        /* \"#utility.yul\":2626:2647   */\n      tag_287\n      jump\t// in\n    tag_334:\n        /* \"#utility.yul\":2617:2647   */\n      swap1\n      pop\n        /* \"#utility.yul\":2709:2710   */\n      0x00\n        /* \"#utility.yul\":2749:2823   */\n      tag_335\n        /* \"#utility.yul\":2819:2822   */\n      dup5\n        /* \"#utility.yul\":2810:2816   */\n      dup3\n        /* \"#utility.yul\":2799:2808   */\n      dup6\n        /* \"#utility.yul\":2795:2817   */\n      add\n        /* \"#utility.yul\":2749:2823   */\n      tag_309\n      jump\t// in\n    tag_335:\n        /* \"#utility.yul\":2742:2746   */\n      0x00\n        /* \"#utility.yul\":2735:2740   */\n      dup4\n        /* \"#utility.yul\":2731:2747   */\n      add\n        /* \"#utility.yul\":2724:2824   */\n      mstore\n        /* \"#utility.yul\":2657:2835   */\n      pop\n        /* \"#utility.yul\":2900:2902   */\n      0x20\n        /* \"#utility.yul\":2941:3001   */\n      tag_336\n        /* \"#utility.yul\":2997:3000   */\n      dup5\n        /* \"#utility.yul\":2988:2994   */\n      dup3\n        /* \"#utility.yul\":2977:2986   */\n      dup6\n        /* \"#utility.yul\":2973:2995   */\n      add\n        /* \"#utility.yul\":2941:3001   */\n      tag_295\n      jump\t// in\n    tag_336:\n        /* \"#utility.yul\":2934:2938   */\n      0x20\n        /* \"#utility.yul\":2927:2932   */\n      dup4\n        /* \"#utility.yul\":2923:2939   */\n      add\n        /* \"#utility.yul\":2916:3002   */\n      mstore\n        /* \"#utility.yul\":2845:3013   */\n      pop\n        /* \"#utility.yul\":3083:3085   */\n      0x40\n        /* \"#utility.yul\":3124:3184   */\n      tag_337\n        /* \"#utility.yul\":3180:3183   */\n      dup5\n        /* \"#utility.yul\":3171:3177   */\n      dup3\n        /* \"#utility.yul\":3160:3169   */\n      dup6\n        /* \"#utility.yul\":3156:3178   */\n      add\n        /* \"#utility.yul\":3124:3184   */\n      tag_295\n      jump\t// in\n    tag_337:\n        /* \"#utility.yul\":3117:3121   */\n      0x40\n        /* \"#utility.yul\":3110:3115   */\n      dup4\n        /* \"#utility.yul\":3106:3122   */\n      add\n        /* \"#utility.yul\":3099:3185   */\n      mstore\n        /* \"#utility.yul\":3023:3196   */\n      pop\n        /* \"#utility.yul\":3265:3267   */\n      0x60\n        /* \"#utility.yul\":3306:3366   */\n      tag_338\n        /* \"#utility.yul\":3362:3365   */\n      dup5\n        /* \"#utility.yul\":3353:3359   */\n      dup3\n        /* \"#utility.yul\":3342:3351   */\n      dup6\n        /* \"#utility.yul\":3338:3360   */\n      add\n        /* \"#utility.yul\":3306:3366   */\n      tag_295\n      jump\t// in\n    tag_338:\n        /* \"#utility.yul\":3299:3303   */\n      0x60\n        /* \"#utility.yul\":3292:3297   */\n      dup4\n        /* \"#utility.yul\":3288:3304   */\n      add\n        /* \"#utility.yul\":3281:3367   */\n      mstore\n        /* \"#utility.yul\":3206:3378   */\n      pop\n        /* \"#utility.yul\":3447:3450   */\n      0x80\n        /* \"#utility.yul\":3489:3568   */\n      tag_339\n        /* \"#utility.yul\":3564:3567   */\n      dup5\n        /* \"#utility.yul\":3555:3561   */\n      dup3\n        /* \"#utility.yul\":3544:3553   */\n      dup6\n        /* \"#utility.yul\":3540:3562   */\n      add\n        /* \"#utility.yul\":3489:3568   */\n      tag_313\n      jump\t// in\n    tag_339:\n        /* \"#utility.yul\":3482:3486   */\n      0x80\n        /* \"#utility.yul\":3475:3480   */\n      dup4\n        /* \"#utility.yul\":3471:3487   */\n      add\n        /* \"#utility.yul\":3464:3569   */\n      mstore\n        /* \"#utility.yul\":3388:3580   */\n      pop\n        /* \"#utility.yul\":3646:3649   */\n      0xa0\n        /* \"#utility.yul\":3688:3762   */\n      tag_340\n        /* \"#utility.yul\":3758:3761   */\n      dup5\n        /* \"#utility.yul\":3749:3755   */\n      dup3\n        /* \"#utility.yul\":3738:3747   */\n      dup6\n        /* \"#utility.yul\":3734:3756   */\n      add\n        /* \"#utility.yul\":3688:3762   */\n      tag_309\n      jump\t// in\n    tag_340:\n        /* \"#utility.yul\":3681:3685   */\n      0xa0\n        /* \"#utility.yul\":3674:3679   */\n      dup4\n        /* \"#utility.yul\":3670:3686   */\n      add\n        /* \"#utility.yul\":3663:3763   */\n      mstore\n        /* \"#utility.yul\":3590:3774   */\n      pop\n        /* \"#utility.yul\":2390:3781   */\n      swap3\n      swap2\n      pop\n      pop\n      jump\t// out\n        /* \"#utility.yul\":3787:3926   */\n    tag_341:\n        /* \"#utility.yul\":3833:3838   */\n      0x00\n        /* \"#utility.yul\":3871:3877   */\n      dup2\n        /* \"#utility.yul\":3858:3878   */\n      calldataload\n        /* \"#utility.yul\":3849:3878   */\n      swap1\n      pop\n        /* \"#utility.yul\":3887:3920   */\n      tag_343\n        /* \"#utility.yul\":3914:3919   */\n      dup2\n        /* \"#utility.yul\":3887:3920   */\n      tag_344\n      jump\t// in\n    tag_343:\n        /* \"#utility.yul\":3787:3926   */\n      swap3\n      swap2\n      pop\n      pop\n      jump\t// out\n        /* \"#utility.yul\":3932:4075   */\n    tag_295:\n        /* \"#utility.yul\":3989:3994   */\n      0x00\n        /* \"#utility.yul\":4020:4026   */\n      dup2\n        /* \"#utility.yul\":4014:4027   */\n      mload\n        /* \"#utility.yul\":4005:4027   */\n      swap1\n      pop\n        /* \"#utility.yul\":4036:4069   */\n      tag_346\n        /* \"#utility.yul\":4063:4068   */\n      dup2\n        /* \"#utility.yul\":4036:4069   */\n      tag_344\n      jump\t// in\n    tag_346:\n        /* \"#utility.yul\":3932:4075   */\n      swap3\n      swap2\n      pop\n      pop\n      jump\t// out\n        /* \"#utility.yul\":4081:4410   */\n    tag_18:\n        /* \"#utility.yul\":4140:4146   */\n      0x00\n        /* \"#utility.yul\":4189:4191   */\n      0x20\n        /* \"#utility.yul\":4177:4186   */\n      dup3\n        /* \"#utility.yul\":4168:4175   */\n      dup5\n        /* \"#utility.yul\":4164:4187   */\n      sub\n        /* \"#utility.yul\":4160:4192   */\n      slt\n        /* \"#utility.yul\":4157:4276   */\n      iszero\n      tag_348\n      jumpi\n        /* \"#utility.yul\":4195:4274   */\n      tag_349\n      tag_350\n      jump\t// in\n    tag_349:\n        /* \"#utility.yul\":4157:4276   */\n    tag_348:\n        /* \"#utility.yul\":4315:4316   */\n      0x00\n        /* \"#utility.yul\":4340:4393   */\n      tag_351\n        /* \"#utility.yul\":4385:4392   */\n      dup5\n        /* \"#utility.yul\":4376:4382   */\n      dup3\n        /* \"#utility.yul\":4365:4374   */\n      dup6\n        /* \"#utility.yul\":4361:4383   */\n      add\n        /* \"#utility.yul\":4340:4393   */\n      tag_296\n      jump\t// in\n    tag_351:\n        /* \"#utility.yul\":4330:4393   */\n      swap2\n      pop\n        /* \"#utility.yul\":4286:4403   */\n      pop\n        /* \"#utility.yul\":4081:4410   */\n      swap3\n      swap2\n      pop\n      pop\n      jump\t// out\n        /* \"#utility.yul\":4416:4767   */\n    tag_235:\n        /* \"#utility.yul\":4486:4492   */\n      0x00\n        /* \"#utility.yul\":4535:4537   */\n      0x20\n        /* \"#utility.yul\":4523:4532   */\n      dup3\n        /* \"#utility.yul\":4514:4521   */\n      dup5\n        /* \"#utility.yul\":4510:4533   */\n      sub\n        /* \"#utility.yul\":4506:4538   */\n      slt\n        /* \"#utility.yul\":4503:4622   */\n      iszero\n      tag_353\n      jumpi\n        /* \"#utility.yul\":4541:4620   */\n      tag_354\n      tag_350\n      jump\t// in\n    tag_354:\n        /* \"#utility.yul\":4503:4622   */\n    tag_353:\n        /* \"#utility.yul\":4661:4662   */\n      0x00\n        /* \"#utility.yul\":4686:4750   */\n      tag_355\n        /* \"#utility.yul\":4742:4749   */\n      dup5\n        /* \"#utility.yul\":4733:4739   */\n      dup3\n        /* \"#utility.yul\":4722:4731   */\n      dup6\n        /* \"#utility.yul\":4718:4740   */\n      add\n        /* \"#utility.yul\":4686:4750   */\n      tag_300\n      jump\t// in\n    tag_355:\n        /* \"#utility.yul\":4676:4750   */\n      swap2\n      pop\n        /* \"#utility.yul\":4632:4760   */\n      pop\n        /* \"#utility.yul\":4416:4767   */\n      swap3\n      swap2\n      pop\n      pop\n      jump\t// out\n        /* \"#utility.yul\":4773:5327   */\n    tag_81:\n        /* \"#utility.yul\":4868:4874   */\n      0x00\n        /* \"#utility.yul\":4917:4919   */\n      0x20\n        /* \"#utility.yul\":4905:4914   */\n      dup3\n        /* \"#utility.yul\":4896:4903   */\n      dup5\n        /* \"#utility.yul\":4892:4915   */\n      sub\n        /* \"#utility.yul\":4888:4920   */\n      slt\n        /* \"#utility.yul\":4885:5004   */\n      iszero\n      tag_357\n      jumpi\n        /* \"#utility.yul\":4923:5002   */\n      tag_358\n      tag_350\n      jump\t// in\n    tag_358:\n        /* \"#utility.yul\":4885:5004   */\n    tag_357:\n        /* \"#utility.yul\":5064:5065   */\n      0x00\n        /* \"#utility.yul\":5053:5062   */\n      dup3\n        /* \"#utility.yul\":5049:5066   */\n      add\n        /* \"#utility.yul\":5043:5067   */\n      mload\n        /* \"#utility.yul\":5094:5112   */\n      0xffffffffffffffff\n        /* \"#utility.yul\":5086:5092   */\n      dup2\n        /* \"#utility.yul\":5083:5113   */\n      gt\n        /* \"#utility.yul\":5080:5197   */\n      iszero\n      tag_359\n      jumpi\n        /* \"#utility.yul\":5116:5195   */\n      tag_360\n      tag_361\n      jump\t// in\n    tag_360:\n        /* \"#utility.yul\":5080:5197   */\n    tag_359:\n        /* \"#utility.yul\":5221:5310   */\n      tag_362\n        /* \"#utility.yul\":5302:5309   */\n      dup5\n        /* \"#utility.yul\":5293:5299   */\n      dup3\n        /* \"#utility.yul\":5282:5291   */\n      dup6\n        /* \"#utility.yul\":5278:5300   */\n      add\n        /* \"#utility.yul\":5221:5310   */\n      tag_303\n      jump\t// in\n    tag_362:\n        /* \"#utility.yul\":5211:5310   */\n      swap2\n      pop\n        /* \"#utility.yul\":5014:5320   */\n      pop\n        /* \"#utility.yul\":4773:5327   */\n      swap3\n      swap2\n      pop\n      pop\n      jump\t// out\n        /* \"#utility.yul\":5333:5712   */\n    tag_89:\n        /* \"#utility.yul\":5417:5423   */\n      0x00\n        /* \"#utility.yul\":5466:5468   */\n      0x20\n        /* \"#utility.yul\":5454:5463   */\n      dup3\n        /* \"#utility.yul\":5445:5452   */\n      dup5\n        /* \"#utility.yul\":5441:5464   */\n      sub\n        /* \"#utility.yul\":5437:5469   */\n      slt\n        /* \"#utility.yul\":5434:5553   */\n      iszero\n      tag_364\n      jumpi\n        /* \"#utility.yul\":5472:5551   */\n      tag_365\n      tag_350\n      jump\t// in\n    tag_365:\n        /* \"#utility.yul\":5434:5553   */\n    tag_364:\n        /* \"#utility.yul\":5592:5593   */\n      0x00\n        /* \"#utility.yul\":5617:5695   */\n      tag_366\n        /* \"#utility.yul\":5687:5694   */\n      dup5\n        /* \"#utility.yul\":5678:5684   */\n      dup3\n        /* \"#utility.yul\":5667:5676   */\n      dup6\n        /* \"#utility.yul\":5663:5685   */\n      add\n        /* \"#utility.yul\":5617:5695   */\n      tag_309\n      jump\t// in\n    tag_366:\n        /* \"#utility.yul\":5607:5695   */\n      swap2\n      pop\n        /* \"#utility.yul\":5563:5705   */\n      pop\n        /* \"#utility.yul\":5333:5712   */\n      swap3\n      swap2\n      pop\n      pop\n      jump\t// out\n        /* \"#utility.yul\":5718:6067   */\n    tag_24:\n        /* \"#utility.yul\":5787:5793   */\n      0x00\n        /* \"#utility.yul\":5836:5838   */\n      0x20\n        /* \"#utility.yul\":5824:5833   */\n      dup3\n        /* \"#utility.yul\":5815:5822   */\n      dup5\n        /* \"#utility.yul\":5811:5834   */\n      sub\n        /* \"#utility.yul\":5807:5839   */\n      slt\n        /* \"#utility.yul\":5804:5923   */\n      iszero\n      tag_368\n      jumpi\n        /* \"#utility.yul\":5842:5921   */\n      tag_369\n      tag_350\n      jump\t// in\n    tag_369:\n        /* \"#utility.yul\":5804:5923   */\n    tag_368:\n        /* \"#utility.yul\":5962:5963   */\n      0x00\n        /* \"#utility.yul\":5987:6050   */\n      tag_370\n        /* \"#utility.yul\":6042:6049   */\n      dup5\n        /* \"#utility.yul\":6033:6039   */\n      dup3\n        /* \"#utility.yul\":6022:6031   */\n      dup6\n        /* \"#utility.yul\":6018:6040   */\n      add\n        /* \"#utility.yul\":5987:6050   */\n      tag_317\n      jump\t// in\n    tag_370:\n        /* \"#utility.yul\":5977:6050   */\n      swap2\n      pop\n        /* \"#utility.yul\":5933:6060   */\n      pop\n        /* \"#utility.yul\":5718:6067   */\n      swap3\n      swap2\n      pop\n      pop\n      jump\t// out\n        /* \"#utility.yul\":6073:6430   */\n    tag_49:\n        /* \"#utility.yul\":6146:6152   */\n      0x00\n        /* \"#utility.yul\":6195:6197   */\n      0x20\n        /* \"#utility.yul\":6183:6192   */\n      dup3\n        /* \"#utility.yul\":6174:6181   */\n      dup5\n        /* \"#utility.yul\":6170:6193   */\n      sub\n        /* \"#utility.yul\":6166:6198   */\n      slt\n        /* \"#utility.yul\":6163:6282   */\n      iszero\n      tag_372\n      jumpi\n        /* \"#utility.yul\":6201:6280   */\n      tag_373\n      tag_350\n      jump\t// in\n    tag_373:\n        /* \"#utility.yul\":6163:6282   */\n    tag_372:\n        /* \"#utility.yul\":6321:6322   */\n      0x00\n        /* \"#utility.yul\":6346:6413   */\n      tag_374\n        /* \"#utility.yul\":6405:6412   */\n      dup5\n        /* \"#utility.yul\":6396:6402   */\n      dup3\n        /* \"#utility.yul\":6385:6394   */\n      dup6\n        /* \"#utility.yul\":6381:6403   */\n      add\n        /* \"#utility.yul\":6346:6413   */\n      tag_325\n      jump\t// in\n    tag_374:\n        /* \"#utility.yul\":6336:6413   */\n      swap2\n      pop\n        /* \"#utility.yul\":6292:6423   */\n      pop\n        /* \"#utility.yul\":6073:6430   */\n      swap3\n      swap2\n      pop\n      pop\n      jump\t// out\n        /* \"#utility.yul\":6436:6838   */\n    tag_223:\n        /* \"#utility.yul\":6531:6537   */\n      0x00\n        /* \"#utility.yul\":6580:6583   */\n      0xc0\n        /* \"#utility.yul\":6568:6577   */\n      dup3\n        /* \"#utility.yul\":6559:6566   */\n      dup5\n        /* \"#utility.yul\":6555:6578   */\n      sub\n        /* \"#utility.yul\":6551:6584   */\n      slt\n        /* \"#utility.yul\":6548:6668   */\n      iszero\n      tag_376\n      jumpi\n        /* \"#utility.yul\":6587:6666   */\n      tag_377\n      tag_350\n      jump\t// in\n    tag_377:\n        /* \"#utility.yul\":6548:6668   */\n    tag_376:\n        /* \"#utility.yul\":6707:6708   */\n      0x00\n        /* \"#utility.yul\":6732:6821   */\n      tag_378\n        /* \"#utility.yul\":6813:6820   */\n      dup5\n        /* \"#utility.yul\":6804:6810   */\n      dup3\n        /* \"#utility.yul\":6793:6802   */\n      dup6\n        /* \"#utility.yul\":6789:6811   */\n      add\n        /* \"#utility.yul\":6732:6821   */\n      tag_329\n      jump\t// in\n    tag_378:\n        /* \"#utility.yul\":6722:6821   */\n      swap2\n      pop\n        /* \"#utility.yul\":6678:6831   */\n      pop\n        /* \"#utility.yul\":6436:6838   */\n      swap3\n      swap2\n      pop\n      pop\n      jump\t// out\n        /* \"#utility.yul\":6844:7195   */\n    tag_106:\n        /* \"#utility.yul\":6914:6920   */\n      0x00\n        /* \"#utility.yul\":6963:6965   */\n      0x20\n        /* \"#utility.yul\":6951:6960   */\n      dup3\n        /* \"#utility.yul\":6942:6949   */\n      dup5\n        /* \"#utility.yul\":6938:6961   */\n      sub\n        /* \"#utility.yul\":6934:6966   */\n      slt\n        /* \"#utility.yul\":6931:7050   */\n      iszero\n      tag_380\n      jumpi\n        /* \"#utility.yul\":6969:7048   */\n      tag_381\n      tag_350\n      jump\t// in\n    tag_381:\n        /* \"#utility.yul\":6931:7050   */\n    tag_380:\n        /* \"#utility.yul\":7089:7090   */\n      0x00\n        /* \"#utility.yul\":7114:7178   */\n      tag_382\n        /* \"#utility.yul\":7170:7177   */\n      dup5\n        /* \"#utility.yul\":7161:7167   */\n      dup3\n        /* \"#utility.yul\":7150:7159   */\n      dup6\n        /* \"#utility.yul\":7146:7168   */\n      add\n        /* \"#utility.yul\":7114:7178   */\n      tag_295\n      jump\t// in\n    tag_382:\n        /* \"#utility.yul\":7104:7178   */\n      swap2\n      pop\n        /* \"#utility.yul\":7060:7188   */\n      pop\n        /* \"#utility.yul\":6844:7195   */\n      swap3\n      swap2\n      pop\n      pop\n      jump\t// out\n        /* \"#utility.yul\":7201:8030   */\n    tag_53:\n        /* \"#utility.yul\":7319:7325   */\n      0x00\n        /* \"#utility.yul\":7327:7333   */\n      dup1\n        /* \"#utility.yul\":7335:7341   */\n      0x00\n        /* \"#utility.yul\":7343:7349   */\n      dup1\n        /* \"#utility.yul\":7392:7395   */\n      0x80\n        /* \"#utility.yul\":7380:7389   */\n      dup6\n        /* \"#utility.yul\":7371:7378   */\n      dup8\n        /* \"#utility.yul\":7367:7390   */\n      sub\n        /* \"#utility.yul\":7363:7396   */\n      slt\n        /* \"#utility.yul\":7360:7480   */\n      iszero\n      tag_384\n      jumpi\n        /* \"#utility.yul\":7399:7478   */\n      tag_385\n      tag_350\n      jump\t// in\n    tag_385:\n        /* \"#utility.yul\":7360:7480   */\n    tag_384:\n        /* \"#utility.yul\":7519:7520   */\n      0x00\n        /* \"#utility.yul\":7544:7597   */\n      tag_386\n        /* \"#utility.yul\":7589:7596   */\n      dup8\n        /* \"#utility.yul\":7580:7586   */\n      dup3\n        /* \"#utility.yul\":7569:7578   */\n      dup9\n        /* \"#utility.yul\":7565:7587   */\n      add\n        /* \"#utility.yul\":7544:7597   */\n      tag_341\n      jump\t// in\n    tag_386:\n        /* \"#utility.yul\":7534:7597   */\n      swap5\n      pop\n        /* \"#utility.yul\":7490:7607   */\n      pop\n        /* \"#utility.yul\":7646:7648   */\n      0x20\n        /* \"#utility.yul\":7672:7735   */\n      tag_387\n        /* \"#utility.yul\":7727:7734   */\n      dup8\n        /* \"#utility.yul\":7718:7724   */\n      dup3\n        /* \"#utility.yul\":7707:7716   */\n      dup9\n        /* \"#utility.yul\":7703:7725   */\n      add\n        /* \"#utility.yul\":7672:7735   */\n      tag_317\n      jump\t// in\n    tag_387:\n        /* \"#utility.yul\":7662:7735   */\n      swap4\n      pop\n        /* \"#utility.yul\":7617:7745   */\n      pop\n        /* \"#utility.yul\":7784:7786   */\n      0x40\n        /* \"#utility.yul\":7810:7863   */\n      tag_388\n        /* \"#utility.yul\":7855:7862   */\n      dup8\n        /* \"#utility.yul\":7846:7852   */\n      dup3\n        /* \"#utility.yul\":7835:7844   */\n      dup9\n        /* \"#utility.yul\":7831:7853   */\n      add\n        /* \"#utility.yul\":7810:7863   */\n      tag_341\n      jump\t// in\n    tag_388:\n        /* \"#utility.yul\":7800:7863   */\n      swap3\n      pop\n        /* \"#utility.yul\":7755:7873   */\n      pop\n        /* \"#utility.yul\":7912:7914   */\n      0x60\n        /* \"#utility.yul\":7938:8013   */\n      tag_389\n        /* \"#utility.yul\":8005:8012   */\n      dup8\n        /* \"#utility.yul\":7996:8002   */\n      dup3\n        /* \"#utility.yul\":7985:7994   */\n      dup9\n        /* \"#utility.yul\":7981:8003   */\n      add\n        /* \"#utility.yul\":7938:8013   */\n      tag_321\n      jump\t// in\n    tag_389:\n        /* \"#utility.yul\":7928:8013   */\n      swap2\n      pop\n        /* \"#utility.yul\":7883:8023   */\n      pop\n        /* \"#utility.yul\":7201:8030   */\n      swap3\n      swap6\n      swap2\n      swap5\n      pop\n      swap3\n      pop\n      jump\t// out\n        /* \"#utility.yul\":8036:8215   */\n    tag_390:\n        /* \"#utility.yul\":8105:8115   */\n      0x00\n        /* \"#utility.yul\":8126:8172   */\n      tag_392\n        /* \"#utility.yul\":8168:8171   */\n      dup4\n        /* \"#utility.yul\":8160:8166   */\n      dup4\n        /* \"#utility.yul\":8126:8172   */\n      tag_393\n      jump\t// in\n    tag_392:\n        /* \"#utility.yul\":8204:8208   */\n      0x20\n        /* \"#utility.yul\":8199:8202   */\n      dup4\n        /* \"#utility.yul\":8195:8209   */\n      add\n        /* \"#utility.yul\":8181:8209   */\n      swap1\n      pop\n        /* \"#utility.yul\":8036:8215   */\n      swap3\n      swap2\n      pop\n      pop\n      jump\t// out\n        /* \"#utility.yul\":8221:8329   */\n    tag_393:\n        /* \"#utility.yul\":8298:8322   */\n      tag_395\n        /* \"#utility.yul\":8316:8321   */\n      dup2\n        /* \"#utility.yul\":8298:8322   */\n      tag_396\n      jump\t// in\n    tag_395:\n        /* \"#utility.yul\":8293:8296   */\n      dup3\n        /* \"#utility.yul\":8286:8323   */\n      mstore\n        /* \"#utility.yul\":8221:8329   */\n      pop\n      pop\n      jump\t// out\n        /* \"#utility.yul\":8335:8453   */\n    tag_397:\n        /* \"#utility.yul\":8422:8446   */\n      tag_399\n        /* \"#utility.yul\":8440:8445   */\n      dup2\n        /* \"#utility.yul\":8422:8446   */\n      tag_396\n      jump\t// in\n    tag_399:\n        /* \"#utility.yul\":8417:8420   */\n      dup3\n        /* \"#utility.yul\":8410:8447   */\n      mstore\n        /* \"#utility.yul\":8335:8453   */\n      pop\n      pop\n      jump\t// out\n        /* \"#utility.yul\":8489:9221   */\n    tag_400:\n        /* \"#utility.yul\":8608:8611   */\n      0x00\n        /* \"#utility.yul\":8637:8691   */\n      tag_402\n        /* \"#utility.yul\":8685:8690   */\n      dup3\n        /* \"#utility.yul\":8637:8691   */\n      tag_403\n      jump\t// in\n    tag_402:\n        /* \"#utility.yul\":8707:8793   */\n      tag_404\n        /* \"#utility.yul\":8786:8792   */\n      dup2\n        /* \"#utility.yul\":8781:8784   */\n      dup6\n        /* \"#utility.yul\":8707:8793   */\n      tag_405\n      jump\t// in\n    tag_404:\n        /* \"#utility.yul\":8700:8793   */\n      swap4\n      pop\n        /* \"#utility.yul\":8817:8873   */\n      tag_406\n        /* \"#utility.yul\":8867:8872   */\n      dup4\n        /* \"#utility.yul\":8817:8873   */\n      tag_407\n      jump\t// in\n    tag_406:\n        /* \"#utility.yul\":8896:8903   */\n      dup1\n        /* \"#utility.yul\":8927:8928   */\n      0x00\n        /* \"#utility.yul\":8912:9196   */\n    tag_408:\n        /* \"#utility.yul\":8937:8943   */\n      dup4\n        /* \"#utility.yul\":8934:8935   */\n      dup2\n        /* \"#utility.yul\":8931:8944   */\n      lt\n        /* \"#utility.yul\":8912:9196   */\n      iszero\n      tag_410\n      jumpi\n        /* \"#utility.yul\":9013:9019   */\n      dup2\n        /* \"#utility.yul\":9007:9020   */\n      mload\n        /* \"#utility.yul\":9040:9103   */\n      tag_411\n        /* \"#utility.yul\":9099:9102   */\n      dup9\n        /* \"#utility.yul\":9084:9097   */\n      dup3\n        /* \"#utility.yul\":9040:9103   */\n      tag_390\n      jump\t// in\n    tag_411:\n        /* \"#utility.yul\":9033:9103   */\n      swap8\n      pop\n        /* \"#utility.yul\":9126:9186   */\n      tag_412\n        /* \"#utility.yul\":9179:9185   */\n      dup4\n        /* \"#utility.yul\":9126:9186   */\n      tag_413\n      jump\t// in\n    tag_412:\n        /* \"#utility.yul\":9116:9186   */\n      swap3\n      pop\n        /* \"#utility.yul\":8972:9196   */\n      pop\n        /* \"#utility.yul\":8959:8960   */\n      0x01\n        /* \"#utility.yul\":8956:8957   */\n      dup2\n        /* \"#utility.yul\":8952:8961   */\n      add\n        /* \"#utility.yul\":8947:8961   */\n      swap1\n      pop\n        /* \"#utility.yul\":8912:9196   */\n      jump(tag_408)\n    tag_410:\n        /* \"#utility.yul\":8916:8930   */\n      pop\n        /* \"#utility.yul\":9212:9215   */\n      dup6\n        /* \"#utility.yul\":9205:9215   */\n      swap4\n      pop\n        /* \"#utility.yul\":8613:9221   */\n      pop\n      pop\n      pop\n        /* \"#utility.yul\":8489:9221   */\n      swap3\n      swap2\n      pop\n      pop\n      jump\t// out\n        /* \"#utility.yul\":9227:9386   */\n    tag_414:\n        /* \"#utility.yul\":9328:9379   */\n      tag_416\n        /* \"#utility.yul\":9373:9378   */\n      dup2\n        /* \"#utility.yul\":9328:9379   */\n      tag_417\n      jump\t// in\n    tag_416:\n        /* \"#utility.yul\":9323:9326   */\n      dup3\n        /* \"#utility.yul\":9316:9380   */\n      mstore\n        /* \"#utility.yul\":9227:9386   */\n      pop\n      pop\n      jump\t// out\n        /* \"#utility.yul\":9392:9756   */\n    tag_418:\n        /* \"#utility.yul\":9480:9483   */\n      0x00\n        /* \"#utility.yul\":9508:9547   */\n      tag_420\n        /* \"#utility.yul\":9541:9546   */\n      dup3\n        /* \"#utility.yul\":9508:9547   */\n      tag_421\n      jump\t// in\n    tag_420:\n        /* \"#utility.yul\":9563:9634   */\n      tag_422\n        /* \"#utility.yul\":9627:9633   */\n      dup2\n        /* \"#utility.yul\":9622:9625   */\n      dup6\n        /* \"#utility.yul\":9563:9634   */\n      tag_423\n      jump\t// in\n    tag_422:\n        /* \"#utility.yul\":9556:9634   */\n      swap4\n      pop\n        /* \"#utility.yul\":9643:9695   */\n      tag_424\n        /* \"#utility.yul\":9688:9694   */\n      dup2\n        /* \"#utility.yul\":9683:9686   */\n      dup6\n        /* \"#utility.yul\":9676:9680   */\n      0x20\n        /* \"#utility.yul\":9669:9674   */\n      dup7\n        /* \"#utility.yul\":9665:9681   */\n      add\n        /* \"#utility.yul\":9643:9695   */\n      tag_425\n      jump\t// in\n    tag_424:\n        /* \"#utility.yul\":9720:9749   */\n      tag_426\n        /* \"#utility.yul\":9742:9748   */\n      dup2\n        /* \"#utility.yul\":9720:9749   */\n      tag_427\n      jump\t// in\n    tag_426:\n        /* \"#utility.yul\":9715:9718   */\n      dup5\n        /* \"#utility.yul\":9711:9750   */\n      add\n        /* \"#utility.yul\":9704:9750   */\n      swap2\n      pop\n        /* \"#utility.yul\":9484:9756   */\n      pop\n        /* \"#utility.yul\":9392:9756   */\n      swap3\n      swap2\n      pop\n      pop\n      jump\t// out\n        /* \"#utility.yul\":9762:10128   */\n    tag_428:\n        /* \"#utility.yul\":9904:9907   */\n      0x00\n        /* \"#utility.yul\":9925:9992   */\n      tag_430\n        /* \"#utility.yul\":9989:9991   */\n      0x26\n        /* \"#utility.yul\":9984:9987   */\n      dup4\n        /* \"#utility.yul\":9925:9992   */\n      tag_423\n      jump\t// in\n    tag_430:\n        /* \"#utility.yul\":9918:9992   */\n      swap2\n      pop\n        /* \"#utility.yul\":10001:10094   */\n      tag_431\n        /* \"#utility.yul\":10090:10093   */\n      dup3\n        /* \"#utility.yul\":10001:10094   */\n      tag_432\n      jump\t// in\n    tag_431:\n        /* \"#utility.yul\":10119:10121   */\n      0x40\n        /* \"#utility.yul\":10114:10117   */\n      dup3\n        /* \"#utility.yul\":10110:10122   */\n      add\n        /* \"#utility.yul\":10103:10122   */\n      swap1\n      pop\n        /* \"#utility.yul\":9762:10128   */\n      swap2\n      swap1\n      pop\n      jump\t// out\n        /* \"#utility.yul\":10134:10500   */\n    tag_433:\n        /* \"#utility.yul\":10276:10279   */\n      0x00\n        /* \"#utility.yul\":10297:10364   */\n      tag_435\n        /* \"#utility.yul\":10361:10363   */\n      0x1b\n        /* \"#utility.yul\":10356:10359   */\n      dup4\n        /* \"#utility.yul\":10297:10364   */\n      tag_423\n      jump\t// in\n    tag_435:\n        /* \"#utility.yul\":10290:10364   */\n      swap2\n      pop\n        /* \"#utility.yul\":10373:10466   */\n      tag_436\n        /* \"#utility.yul\":10462:10465   */\n      dup3\n        /* \"#utility.yul\":10373:10466   */\n      tag_437\n      jump\t// in\n    tag_436:\n        /* \"#utility.yul\":10491:10493   */\n      0x20\n        /* \"#utility.yul\":10486:10489   */\n      dup3\n        /* \"#utility.yul\":10482:10494   */\n      add\n        /* \"#utility.yul\":10475:10494   */\n      swap1\n      pop\n        /* \"#utility.yul\":10134:10500   */\n      swap2\n      swap1\n      pop\n      jump\t// out\n        /* \"#utility.yul\":10506:10872   */\n    tag_438:\n        /* \"#utility.yul\":10648:10651   */\n      0x00\n        /* \"#utility.yul\":10669:10736   */\n      tag_440\n        /* \"#utility.yul\":10733:10735   */\n      0x21\n        /* \"#utility.yul\":10728:10731   */\n      dup4\n        /* \"#utility.yul\":10669:10736   */\n      tag_423\n      jump\t// in\n    tag_440:\n        /* \"#utility.yul\":10662:10736   */\n      swap2\n      pop\n        /* \"#utility.yul\":10745:10838   */\n      tag_441\n        /* \"#utility.yul\":10834:10837   */\n      dup3\n        /* \"#utility.yul\":10745:10838   */\n      tag_442\n      jump\t// in\n    tag_441:\n        /* \"#utility.yul\":10863:10865   */\n      0x40\n        /* \"#utility.yul\":10858:10861   */\n      dup3\n        /* \"#utility.yul\":10854:10866   */\n      add\n        /* \"#utility.yul\":10847:10866   */\n      swap1\n      pop\n        /* \"#utility.yul\":10506:10872   */\n      swap2\n      swap1\n      pop\n      jump\t// out\n        /* \"#utility.yul\":10878:11244   */\n    tag_443:\n        /* \"#utility.yul\":11020:11023   */\n      0x00\n        /* \"#utility.yul\":11041:11108   */\n      tag_445\n        /* \"#utility.yul\":11105:11107   */\n      0x20\n        /* \"#utility.yul\":11100:11103   */\n      dup4\n        /* \"#utility.yul\":11041:11108   */\n      tag_423\n      jump\t// in\n    tag_445:\n        /* \"#utility.yul\":11034:11108   */\n      swap2\n      pop\n        /* \"#utility.yul\":11117:11210   */\n      tag_446\n        /* \"#utility.yul\":11206:11209   */\n      dup3\n        /* \"#utility.yul\":11117:11210   */\n      tag_447\n      jump\t// in\n    tag_446:\n        /* \"#utility.yul\":11235:11237   */\n      0x20\n        /* \"#utility.yul\":11230:11233   */\n      dup3\n        /* \"#utility.yul\":11226:11238   */\n      add\n        /* \"#utility.yul\":11219:11238   */\n      swap1\n      pop\n        /* \"#utility.yul\":10878:11244   */\n      swap2\n      swap1\n      pop\n      jump\t// out\n        /* \"#utility.yul\":11250:11368   */\n    tag_448:\n        /* \"#utility.yul\":11337:11361   */\n      tag_450\n        /* \"#utility.yul\":11355:11360   */\n      dup2\n        /* \"#utility.yul\":11337:11361   */\n      tag_451\n      jump\t// in\n    tag_450:\n        /* \"#utility.yul\":11332:11335   */\n      dup3\n        /* \"#utility.yul\":11325:11362   */\n      mstore\n        /* \"#utility.yul\":11250:11368   */\n      pop\n      pop\n      jump\t// out\n        /* \"#utility.yul\":11374:11596   */\n    tag_38:\n        /* \"#utility.yul\":11467:11471   */\n      0x00\n        /* \"#utility.yul\":11505:11507   */\n      0x20\n        /* \"#utility.yul\":11494:11503   */\n      dup3\n        /* \"#utility.yul\":11490:11508   */\n      add\n        /* \"#utility.yul\":11482:11508   */\n      swap1\n      pop\n        /* \"#utility.yul\":11518:11589   */\n      tag_453\n        /* \"#utility.yul\":11586:11587   */\n      0x00\n        /* \"#utility.yul\":11575:11584   */\n      dup4\n        /* \"#utility.yul\":11571:11588   */\n      add\n        /* \"#utility.yul\":11562:11568   */\n      dup5\n        /* \"#utility.yul\":11518:11589   */\n      tag_397\n      jump\t// in\n    tag_453:\n        /* \"#utility.yul\":11374:11596   */\n      swap3\n      swap2\n      pop\n      pop\n      jump\t// out\n        /* \"#utility.yul\":11602:11852   */\n    tag_30:\n        /* \"#utility.yul\":11709:11713   */\n      0x00\n        /* \"#utility.yul\":11747:11749   */\n      0x20\n        /* \"#utility.yul\":11736:11745   */\n      dup3\n        /* \"#utility.yul\":11732:11750   */\n      add\n        /* \"#utility.yul\":11724:11750   */\n      swap1\n      pop\n        /* \"#utility.yul\":11760:11845   */\n      tag_455\n        /* \"#utility.yul\":11842:11843   */\n      0x00\n        /* \"#utility.yul\":11831:11840   */\n      dup4\n        /* \"#utility.yul\":11827:11844   */\n      add\n        /* \"#utility.yul\":11818:11824   */\n      dup5\n        /* \"#utility.yul\":11760:11845   */\n      tag_414\n      jump\t// in\n    tag_455:\n        /* \"#utility.yul\":11602:11852   */\n      swap3\n      swap2\n      pop\n      pop\n      jump\t// out\n        /* \"#utility.yul\":11858:12171   */\n    tag_279:\n        /* \"#utility.yul\":11971:11975   */\n      0x00\n        /* \"#utility.yul\":12009:12011   */\n      0x20\n        /* \"#utility.yul\":11998:12007   */\n      dup3\n        /* \"#utility.yul\":11994:12012   */\n      add\n        /* \"#utility.yul\":11986:12012   */\n      swap1\n      pop\n        /* \"#utility.yul\":12058:12067   */\n      dup2\n        /* \"#utility.yul\":12052:12056   */\n      dup2\n        /* \"#utility.yul\":12048:12068   */\n      sub\n        /* \"#utility.yul\":12044:12045   */\n      0x00\n        /* \"#utility.yul\":12033:12042   */\n      dup4\n        /* \"#utility.yul\":12029:12046   */\n      add\n        /* \"#utility.yul\":12022:12069   */\n      mstore\n        /* \"#utility.yul\":12086:12164   */\n      tag_457\n        /* \"#utility.yul\":12159:12163   */\n      dup2\n        /* \"#utility.yul\":12150:12156   */\n      dup5\n        /* \"#utility.yul\":12086:12164   */\n      tag_418\n      jump\t// in\n    tag_457:\n        /* \"#utility.yul\":12078:12164   */\n      swap1\n      pop\n        /* \"#utility.yul\":11858:12171   */\n      swap3\n      swap2\n      pop\n      pop\n      jump\t// out\n        /* \"#utility.yul\":12177:12596   */\n    tag_255:\n        /* \"#utility.yul\":12343:12347   */\n      0x00\n        /* \"#utility.yul\":12381:12383   */\n      0x20\n        /* \"#utility.yul\":12370:12379   */\n      dup3\n        /* \"#utility.yul\":12366:12384   */\n      add\n        /* \"#utility.yul\":12358:12384   */\n      swap1\n      pop\n        /* \"#utility.yul\":12430:12439   */\n      dup2\n        /* \"#utility.yul\":12424:12428   */\n      dup2\n        /* \"#utility.yul\":12420:12440   */\n      sub\n        /* \"#utility.yul\":12416:12417   */\n      0x00\n        /* \"#utility.yul\":12405:12414   */\n      dup4\n        /* \"#utility.yul\":12401:12418   */\n      add\n        /* \"#utility.yul\":12394:12441   */\n      mstore\n        /* \"#utility.yul\":12458:12589   */\n      tag_459\n        /* \"#utility.yul\":12584:12588   */\n      dup2\n        /* \"#utility.yul\":12458:12589   */\n      tag_428\n      jump\t// in\n    tag_459:\n        /* \"#utility.yul\":12450:12589   */\n      swap1\n      pop\n        /* \"#utility.yul\":12177:12596   */\n      swap2\n      swap1\n      pop\n      jump\t// out\n        /* \"#utility.yul\":12602:13021   */\n    tag_270:\n        /* \"#utility.yul\":12768:12772   */\n      0x00\n        /* \"#utility.yul\":12806:12808   */\n      0x20\n        /* \"#utility.yul\":12795:12804   */\n      dup3\n        /* \"#utility.yul\":12791:12809   */\n      add\n        /* \"#utility.yul\":12783:12809   */\n      swap1\n      pop\n        /* \"#utility.yul\":12855:12864   */\n      dup2\n        /* \"#utility.yul\":12849:12853   */\n      dup2\n        /* \"#utility.yul\":12845:12865   */\n      sub\n        /* \"#utility.yul\":12841:12842   */\n      0x00\n        /* \"#utility.yul\":12830:12839   */\n      dup4\n        /* \"#utility.yul\":12826:12843   */\n      add\n        /* \"#utility.yul\":12819:12866   */\n      mstore\n        /* \"#utility.yul\":12883:13014   */\n      tag_461\n        /* \"#utility.yul\":13009:13013   */\n      dup2\n        /* \"#utility.yul\":12883:13014   */\n      tag_433\n      jump\t// in\n    tag_461:\n        /* \"#utility.yul\":12875:13014   */\n      swap1\n      pop\n        /* \"#utility.yul\":12602:13021   */\n      swap2\n      swap1\n      pop\n      jump\t// out\n        /* \"#utility.yul\":13027:13446   */\n    tag_264:\n        /* \"#utility.yul\":13193:13197   */\n      0x00\n        /* \"#utility.yul\":13231:13233   */\n      0x20\n        /* \"#utility.yul\":13220:13229   */\n      dup3\n        /* \"#utility.yul\":13216:13234   */\n      add\n        /* \"#utility.yul\":13208:13234   */\n      swap1\n      pop\n        /* \"#utility.yul\":13280:13289   */\n      dup2\n        /* \"#utility.yul\":13274:13278   */\n      dup2\n        /* \"#utility.yul\":13270:13290   */\n      sub\n        /* \"#utility.yul\":13266:13267   */\n      0x00\n        /* \"#utility.yul\":13255:13264   */\n      dup4\n        /* \"#utility.yul\":13251:13268   */\n      add\n        /* \"#utility.yul\":13244:13291   */\n      mstore\n        /* \"#utility.yul\":13308:13439   */\n      tag_463\n        /* \"#utility.yul\":13434:13438   */\n      dup2\n        /* \"#utility.yul\":13308:13439   */\n      tag_438\n      jump\t// in\n    tag_463:\n        /* \"#utility.yul\":13300:13439   */\n      swap1\n      pop\n        /* \"#utility.yul\":13027:13446   */\n      swap2\n      swap1\n      pop\n      jump\t// out\n        /* \"#utility.yul\":13452:13871   */\n    tag_189:\n        /* \"#utility.yul\":13618:13622   */\n      0x00\n        /* \"#utility.yul\":13656:13658   */\n      0x20\n        /* \"#utility.yul\":13645:13654   */\n      dup3\n        /* \"#utility.yul\":13641:13659   */\n      add\n        /* \"#utility.yul\":13633:13659   */\n      swap1\n      pop\n        /* \"#utility.yul\":13705:13714   */\n      dup2\n        /* \"#utility.yul\":13699:13703   */\n      dup2\n        /* \"#utility.yul\":13695:13715   */\n      sub\n        /* \"#utility.yul\":13691:13692   */\n      0x00\n        /* \"#utility.yul\":13680:13689   */\n      dup4\n        /* \"#utility.yul\":13676:13693   */\n      add\n        /* \"#utility.yul\":13669:13716   */\n      mstore\n        /* \"#utility.yul\":13733:13864   */\n      tag_465\n        /* \"#utility.yul\":13859:13863   */\n      dup2\n        /* \"#utility.yul\":13733:13864   */\n      tag_443\n      jump\t// in\n    tag_465:\n        /* \"#utility.yul\":13725:13864   */\n      swap1\n      pop\n        /* \"#utility.yul\":13452:13871   */\n      swap2\n      swap1\n      pop\n      jump\t// out\n        /* \"#utility.yul\":13877:14099   */\n    tag_21:\n        /* \"#utility.yul\":13970:13974   */\n      0x00\n        /* \"#utility.yul\":14008:14010   */\n      0x20\n        /* \"#utility.yul\":13997:14006   */\n      dup3\n        /* \"#utility.yul\":13993:14011   */\n      add\n        /* \"#utility.yul\":13985:14011   */\n      swap1\n      pop\n        /* \"#utility.yul\":14021:14092   */\n      tag_467\n        /* \"#utility.yul\":14089:14090   */\n      0x00\n        /* \"#utility.yul\":14078:14087   */\n      dup4\n        /* \"#utility.yul\":14074:14091   */\n      add\n        /* \"#utility.yul\":14065:14071   */\n      dup5\n        /* \"#utility.yul\":14021:14092   */\n      tag_448\n      jump\t// in\n    tag_467:\n        /* \"#utility.yul\":13877:14099   */\n      swap3\n      swap2\n      pop\n      pop\n      jump\t// out\n        /* \"#utility.yul\":14105:14588   */\n    tag_76:\n        /* \"#utility.yul\":14276:14280   */\n      0x00\n        /* \"#utility.yul\":14314:14316   */\n      0x40\n        /* \"#utility.yul\":14303:14312   */\n      dup3\n        /* \"#utility.yul\":14299:14317   */\n      add\n        /* \"#utility.yul\":14291:14317   */\n      swap1\n      pop\n        /* \"#utility.yul\":14327:14398   */\n      tag_469\n        /* \"#utility.yul\":14395:14396   */\n      0x00\n        /* \"#utility.yul\":14384:14393   */\n      dup4\n        /* \"#utility.yul\":14380:14397   */\n      add\n        /* \"#utility.yul\":14371:14377   */\n      dup6\n        /* \"#utility.yul\":14327:14398   */\n      tag_448\n      jump\t// in\n    tag_469:\n        /* \"#utility.yul\":14445:14454   */\n      dup2\n        /* \"#utility.yul\":14439:14443   */\n      dup2\n        /* \"#utility.yul\":14435:14455   */\n      sub\n        /* \"#utility.yul\":14430:14432   */\n      0x20\n        /* \"#utility.yul\":14419:14428   */\n      dup4\n        /* \"#utility.yul\":14415:14433   */\n      add\n        /* \"#utility.yul\":14408:14456   */\n      mstore\n        /* \"#utility.yul\":14473:14581   */\n      tag_470\n        /* \"#utility.yul\":14576:14580   */\n      dup2\n        /* \"#utility.yul\":14567:14573   */\n      dup5\n        /* \"#utility.yul\":14473:14581   */\n      tag_400\n      jump\t// in\n    tag_470:\n        /* \"#utility.yul\":14465:14581   */\n      swap1\n      pop\n        /* \"#utility.yul\":14105:14588   */\n      swap4\n      swap3\n      pop\n      pop\n      pop\n      jump\t// out\n        /* \"#utility.yul\":14594:14723   */\n    tag_287:\n        /* \"#utility.yul\":14628:14634   */\n      0x00\n        /* \"#utility.yul\":14655:14675   */\n      tag_472\n      tag_473\n      jump\t// in\n    tag_472:\n        /* \"#utility.yul\":14645:14675   */\n      swap1\n      pop\n        /* \"#utility.yul\":14684:14717   */\n      tag_474\n        /* \"#utility.yul\":14712:14716   */\n      dup3\n        /* \"#utility.yul\":14704:14710   */\n      dup3\n        /* \"#utility.yul\":14684:14717   */\n      tag_475\n      jump\t// in\n    tag_474:\n        /* \"#utility.yul\":14594:14723   */\n      swap2\n      swap1\n      pop\n      jump\t// out\n        /* \"#utility.yul\":14729:14804   */\n    tag_473:\n        /* \"#utility.yul\":14762:14768   */\n      0x00\n        /* \"#utility.yul\":14795:14797   */\n      0x40\n        /* \"#utility.yul\":14789:14798   */\n      mload\n        /* \"#utility.yul\":14779:14798   */\n      swap1\n      pop\n        /* \"#utility.yul\":14729:14804   */\n      swap1\n      jump\t// out\n        /* \"#utility.yul\":14810:15121   */\n    tag_286:\n        /* \"#utility.yul\":14887:14891   */\n      0x00\n        /* \"#utility.yul\":14977:14995   */\n      0xffffffffffffffff\n        /* \"#utility.yul\":14969:14975   */\n      dup3\n        /* \"#utility.yul\":14966:14996   */\n      gt\n        /* \"#utility.yul\":14963:15019   */\n      iszero\n      tag_478\n      jumpi\n        /* \"#utility.yul\":14999:15017   */\n      tag_479\n      tag_66\n      jump\t// in\n    tag_479:\n        /* \"#utility.yul\":14963:15019   */\n    tag_478:\n        /* \"#utility.yul\":15049:15053   */\n      0x20\n        /* \"#utility.yul\":15041:15047   */\n      dup3\n        /* \"#utility.yul\":15037:15054   */\n      mul\n        /* \"#utility.yul\":15029:15054   */\n      swap1\n      pop\n        /* \"#utility.yul\":15109:15113   */\n      0x20\n        /* \"#utility.yul\":15103:15107   */\n      dup2\n        /* \"#utility.yul\":15099:15114   */\n      add\n        /* \"#utility.yul\":15091:15114   */\n      swap1\n      pop\n        /* \"#utility.yul\":14810:15121   */\n      swap2\n      swap1\n      pop\n      jump\t// out\n        /* \"#utility.yul\":15127:15259   */\n    tag_407:\n        /* \"#utility.yul\":15194:15198   */\n      0x00\n        /* \"#utility.yul\":15217:15220   */\n      dup2\n        /* \"#utility.yul\":15209:15220   */\n      swap1\n      pop\n        /* \"#utility.yul\":15247:15251   */\n      0x20\n        /* \"#utility.yul\":15242:15245   */\n      dup3\n        /* \"#utility.yul\":15238:15252   */\n      add\n        /* \"#utility.yul\":15230:15252   */\n      swap1\n      pop\n        /* \"#utility.yul\":15127:15259   */\n      swap2\n      swap1\n      pop\n      jump\t// out\n        /* \"#utility.yul\":15265:15379   */\n    tag_403:\n        /* \"#utility.yul\":15332:15338   */\n      0x00\n        /* \"#utility.yul\":15366:15371   */\n      dup2\n        /* \"#utility.yul\":15360:15372   */\n      mload\n        /* \"#utility.yul\":15350:15372   */\n      swap1\n      pop\n        /* \"#utility.yul\":15265:15379   */\n      swap2\n      swap1\n      pop\n      jump\t// out\n        /* \"#utility.yul\":15385:15484   */\n    tag_421:\n        /* \"#utility.yul\":15437:15443   */\n      0x00\n        /* \"#utility.yul\":15471:15476   */\n      dup2\n        /* \"#utility.yul\":15465:15477   */\n      mload\n        /* \"#utility.yul\":15455:15477   */\n      swap1\n      pop\n        /* \"#utility.yul\":15385:15484   */\n      swap2\n      swap1\n      pop\n      jump\t// out\n        /* \"#utility.yul\":15490:15603   */\n    tag_413:\n        /* \"#utility.yul\":15560:15564   */\n      0x00\n        /* \"#utility.yul\":15592:15596   */\n      0x20\n        /* \"#utility.yul\":15587:15590   */\n      dup3\n        /* \"#utility.yul\":15583:15597   */\n      add\n        /* \"#utility.yul\":15575:15597   */\n      swap1\n      pop\n        /* \"#utility.yul\":15490:15603   */\n      swap2\n      swap1\n      pop\n      jump\t// out\n        /* \"#utility.yul\":15609:15793   */\n    tag_405:\n        /* \"#utility.yul\":15708:15719   */\n      0x00\n        /* \"#utility.yul\":15742:15748   */\n      dup3\n        /* \"#utility.yul\":15737:15740   */\n      dup3\n        /* \"#utility.yul\":15730:15749   */\n      mstore\n        /* \"#utility.yul\":15782:15786   */\n      0x20\n        /* \"#utility.yul\":15777:15780   */\n      dup3\n        /* \"#utility.yul\":15773:15787   */\n      add\n        /* \"#utility.yul\":15758:15787   */\n      swap1\n      pop\n        /* \"#utility.yul\":15609:15793   */\n      swap3\n      swap2\n      pop\n      pop\n      jump\t// out\n        /* \"#utility.yul\":15799:15968   */\n    tag_423:\n        /* \"#utility.yul\":15883:15894   */\n      0x00\n        /* \"#utility.yul\":15917:15923   */\n      dup3\n        /* \"#utility.yul\":15912:15915   */\n      dup3\n        /* \"#utility.yul\":15905:15924   */\n      mstore\n        /* \"#utility.yul\":15957:15961   */\n      0x20\n        /* \"#utility.yul\":15952:15955   */\n      dup3\n        /* \"#utility.yul\":15948:15962   */\n      add\n        /* \"#utility.yul\":15933:15962   */\n      swap1\n      pop\n        /* \"#utility.yul\":15799:15968   */\n      swap3\n      swap2\n      pop\n      pop\n      jump\t// out\n        /* \"#utility.yul\":15974:16279   */\n    tag_267:\n        /* \"#utility.yul\":16014:16017   */\n      0x00\n        /* \"#utility.yul\":16033:16053   */\n      tag_487\n        /* \"#utility.yul\":16051:16052   */\n      dup3\n        /* \"#utility.yul\":16033:16053   */\n      tag_451\n      jump\t// in\n    tag_487:\n        /* \"#utility.yul\":16028:16053   */\n      swap2\n      pop\n        /* \"#utility.yul\":16067:16087   */\n      tag_488\n        /* \"#utility.yul\":16085:16086   */\n      dup4\n        /* \"#utility.yul\":16067:16087   */\n      tag_451\n      jump\t// in\n    tag_488:\n        /* \"#utility.yul\":16062:16087   */\n      swap3\n      pop\n        /* \"#utility.yul\":16221:16222   */\n      dup3\n        /* \"#utility.yul\":16153:16219   */\n      0xffffffffffffffffffffffffffffffffffffffffffffffffffffffffffffffff\n        /* \"#utility.yul\":16149:16223   */\n      sub\n        /* \"#utility.yul\":16146:16147   */\n      dup3\n        /* \"#utility.yul\":16143:16224   */\n      gt\n        /* \"#utility.yul\":16140:16247   */\n      iszero\n      tag_489\n      jumpi\n        /* \"#utility.yul\":16227:16245   */\n      tag_490\n      tag_491\n      jump\t// in\n    tag_490:\n        /* \"#utility.yul\":16140:16247   */\n    tag_489:\n        /* \"#utility.yul\":16271:16272   */\n      dup3\n        /* \"#utility.yul\":16268:16269   */\n      dup3\n        /* \"#utility.yul\":16264:16273   */\n      add\n        /* \"#utility.yul\":16257:16273   */\n      swap1\n      pop\n        /* \"#utility.yul\":15974:16279   */\n      swap3\n      swap2\n      pop\n      pop\n      jump\t// out\n        /* \"#utility.yul\":16285:16470   */\n    tag_261:\n        /* \"#utility.yul\":16325:16326   */\n      0x00\n        /* \"#utility.yul\":16342:16362   */\n      tag_493\n        /* \"#utility.yul\":16360:16361   */\n      dup3\n        /* \"#utility.yul\":16342:16362   */\n      tag_451\n      jump\t// in\n    tag_493:\n        /* \"#utility.yul\":16337:16362   */\n      swap2\n      pop\n        /* \"#utility.yul\":16376:16396   */\n      tag_494\n        /* \"#utility.yul\":16394:16395   */\n      dup4\n        /* \"#utility.yul\":16376:16396   */\n      tag_451\n      jump\t// in\n    tag_494:\n        /* \"#utility.yul\":16371:16396   */\n      swap3\n      pop\n        /* \"#utility.yul\":16415:16416   */\n      dup3\n        /* \"#utility.yul\":16405:16440   */\n      tag_495\n      jumpi\n        /* \"#utility.yul\":16420:16438   */\n      tag_496\n      tag_497\n      jump\t// in\n    tag_496:\n        /* \"#utility.yul\":16405:16440   */\n    tag_495:\n        /* \"#utility.yul\":16462:16463   */\n      dup3\n        /* \"#utility.yul\":16459:16460   */\n      dup3\n        /* \"#utility.yul\":16455:16464   */\n      div\n        /* \"#utility.yul\":16450:16464   */\n      swap1\n      pop\n        /* \"#utility.yul\":16285:16470   */\n      swap3\n      swap2\n      pop\n      pop\n      jump\t// out\n        /* \"#utility.yul\":16476:16824   */\n    tag_216:\n        /* \"#utility.yul\":16516:16523   */\n      0x00\n        /* \"#utility.yul\":16539:16559   */\n      tag_499\n        /* \"#utility.yul\":16557:16558   */\n      dup3\n        /* \"#utility.yul\":16539:16559   */\n      tag_451\n      jump\t// in\n    tag_499:\n        /* \"#utility.yul\":16534:16559   */\n      swap2\n      pop\n        /* \"#utility.yul\":16573:16593   */\n      tag_500\n        /* \"#utility.yul\":16591:16592   */\n      dup4\n        /* \"#utility.yul\":16573:16593   */\n      tag_451\n      jump\t// in\n    tag_500:\n        /* \"#utility.yul\":16568:16593   */\n      swap3\n      pop\n        /* \"#utility.yul\":16761:16762   */\n      dup2\n        /* \"#utility.yul\":16693:16759   */\n      0xffffffffffffffffffffffffffffffffffffffffffffffffffffffffffffffff\n        /* \"#utility.yul\":16689:16763   */\n      div\n        /* \"#utility.yul\":16686:16687   */\n      dup4\n        /* \"#utility.yul\":16683:16764   */\n      gt\n        /* \"#utility.yul\":16678:16679   */\n      dup3\n        /* \"#utility.yul\":16671:16680   */\n      iszero\n        /* \"#utility.yul\":16664:16681   */\n      iszero\n        /* \"#utility.yul\":16660:16765   */\n      and\n        /* \"#utility.yul\":16657:16788   */\n      iszero\n      tag_501\n      jumpi\n        /* \"#utility.yul\":16768:16786   */\n      tag_502\n      tag_491\n      jump\t// in\n    tag_502:\n        /* \"#utility.yul\":16657:16788   */\n    tag_501:\n        /* \"#utility.yul\":16816:16817   */\n      dup3\n        /* \"#utility.yul\":16813:16814   */\n      dup3\n        /* \"#utility.yul\":16809:16818   */\n      mul\n        /* \"#utility.yul\":16798:16818   */\n      swap1\n      pop\n        /* \"#utility.yul\":16476:16824   */\n      swap3\n      swap2\n      pop\n      pop\n      jump\t// out\n        /* \"#utility.yul\":16830:16926   */\n    tag_396:\n        /* \"#utility.yul\":16867:16874   */\n      0x00\n        /* \"#utility.yul\":16896:16920   */\n      tag_504\n        /* \"#utility.yul\":16914:16919   */\n      dup3\n        /* \"#utility.yul\":16896:16920   */\n      tag_505\n      jump\t// in\n    tag_504:\n        /* \"#utility.yul\":16885:16920   */\n      swap1\n      pop\n        /* \"#utility.yul\":16830:16926   */\n      swap2\n      swap1\n      pop\n      jump\t// out\n        /* \"#utility.yul\":16932:17042   */\n    tag_506:\n        /* \"#utility.yul\":16983:16990   */\n      0x00\n        /* \"#utility.yul\":17012:17036   */\n      tag_508\n        /* \"#utility.yul\":17030:17035   */\n      dup3\n        /* \"#utility.yul\":17012:17036   */\n      tag_396\n      jump\t// in\n    tag_508:\n        /* \"#utility.yul\":17001:17036   */\n      swap1\n      pop\n        /* \"#utility.yul\":16932:17042   */\n      swap2\n      swap1\n      pop\n      jump\t// out\n        /* \"#utility.yul\":17048:17163   */\n    tag_509:\n        /* \"#utility.yul\":17104:17111   */\n      0x00\n        /* \"#utility.yul\":17133:17157   */\n      tag_511\n        /* \"#utility.yul\":17151:17156   */\n      dup3\n        /* \"#utility.yul\":17133:17157   */\n      tag_396\n      jump\t// in\n    tag_511:\n        /* \"#utility.yul\":17122:17157   */\n      swap1\n      pop\n        /* \"#utility.yul\":17048:17163   */\n      swap2\n      swap1\n      pop\n      jump\t// out\n        /* \"#utility.yul\":17169:17275   */\n    tag_512:\n        /* \"#utility.yul\":17216:17223   */\n      0x00\n        /* \"#utility.yul\":17245:17269   */\n      tag_514\n        /* \"#utility.yul\":17263:17268   */\n      dup3\n        /* \"#utility.yul\":17245:17269   */\n      tag_396\n      jump\t// in\n    tag_514:\n        /* \"#utility.yul\":17234:17269   */\n      swap1\n      pop\n        /* \"#utility.yul\":17169:17275   */\n      swap2\n      swap1\n      pop\n      jump\t// out\n        /* \"#utility.yul\":17281:17399   */\n    tag_515:\n        /* \"#utility.yul\":17340:17347   */\n      0x00\n        /* \"#utility.yul\":17369:17393   */\n      tag_517\n        /* \"#utility.yul\":17387:17392   */\n      dup3\n        /* \"#utility.yul\":17369:17393   */\n      tag_396\n      jump\t// in\n    tag_517:\n        /* \"#utility.yul\":17358:17393   */\n      swap1\n      pop\n        /* \"#utility.yul\":17281:17399   */\n      swap2\n      swap1\n      pop\n      jump\t// out\n        /* \"#utility.yul\":17405:17515   */\n    tag_518:\n        /* \"#utility.yul\":17456:17463   */\n      0x00\n        /* \"#utility.yul\":17485:17509   */\n      tag_520\n        /* \"#utility.yul\":17503:17508   */\n      dup3\n        /* \"#utility.yul\":17485:17509   */\n      tag_396\n      jump\t// in\n    tag_520:\n        /* \"#utility.yul\":17474:17509   */\n      swap1\n      pop\n        /* \"#utility.yul\":17405:17515   */\n      swap2\n      swap1\n      pop\n      jump\t// out\n        /* \"#utility.yul\":17521:17647   */\n    tag_505:\n        /* \"#utility.yul\":17558:17565   */\n      0x00\n        /* \"#utility.yul\":17598:17640   */\n      0xffffffffffffffffffffffffffffffffffffffff\n        /* \"#utility.yul\":17591:17596   */\n      dup3\n        /* \"#utility.yul\":17587:17641   */\n      and\n        /* \"#utility.yul\":17576:17641   */\n      swap1\n      pop\n        /* \"#utility.yul\":17521:17647   */\n      swap2\n      swap1\n      pop\n      jump\t// out\n        /* \"#utility.yul\":17653:17730   */\n    tag_451:\n        /* \"#utility.yul\":17690:17697   */\n      0x00\n        /* \"#utility.yul\":17719:17724   */\n      dup2\n        /* \"#utility.yul\":17708:17724   */\n      swap1\n      pop\n        /* \"#utility.yul\":17653:17730   */\n      swap2\n      swap1\n      pop\n      jump\t// out\n        /* \"#utility.yul\":17736:17876   */\n    tag_417:\n        /* \"#utility.yul\":17800:17809   */\n      0x00\n        /* \"#utility.yul\":17833:17870   */\n      tag_524\n        /* \"#utility.yul\":17864:17869   */\n      dup3\n        /* \"#utility.yul\":17833:17870   */\n      tag_525\n      jump\t// in\n    tag_524:\n        /* \"#utility.yul\":17820:17870   */\n      swap1\n      pop\n        /* \"#utility.yul\":17736:17876   */\n      swap2\n      swap1\n      pop\n      jump\t// out\n        /* \"#utility.yul\":17882:18008   */\n    tag_525:\n        /* \"#utility.yul\":17932:17941   */\n      0x00\n        /* \"#utility.yul\":17965:18002   */\n      tag_527\n        /* \"#utility.yul\":17996:18001   */\n      dup3\n        /* \"#utility.yul\":17965:18002   */\n      tag_528\n      jump\t// in\n    tag_527:\n        /* \"#utility.yul\":17952:18002   */\n      swap1\n      pop\n        /* \"#utility.yul\":17882:18008   */\n      swap2\n      swap1\n      pop\n      jump\t// out\n        /* \"#utility.yul\":18014:18127   */\n    tag_528:\n        /* \"#utility.yul\":18064:18073   */\n      0x00\n        /* \"#utility.yul\":18097:18121   */\n      tag_530\n        /* \"#utility.yul\":18115:18120   */\n      dup3\n        /* \"#utility.yul\":18097:18121   */\n      tag_505\n      jump\t// in\n    tag_530:\n        /* \"#utility.yul\":18084:18121   */\n      swap1\n      pop\n        /* \"#utility.yul\":18014:18127   */\n      swap2\n      swap1\n      pop\n      jump\t// out\n        /* \"#utility.yul\":18133:18440   */\n    tag_425:\n        /* \"#utility.yul\":18201:18202   */\n      0x00\n        /* \"#utility.yul\":18211:18324   */\n    tag_532:\n        /* \"#utility.yul\":18225:18231   */\n      dup4\n        /* \"#utility.yul\":18222:18223   */\n      dup2\n        /* \"#utility.yul\":18219:18232   */\n      lt\n        /* \"#utility.yul\":18211:18324   */\n      iszero\n      tag_534\n      jumpi\n        /* \"#utility.yul\":18310:18311   */\n      dup1\n        /* \"#utility.yul\":18305:18308   */\n      dup3\n        /* \"#utility.yul\":18301:18312   */\n      add\n        /* \"#utility.yul\":18295:18313   */\n      mload\n        /* \"#utility.yul\":18291:18292   */\n      dup2\n        /* \"#utility.yul\":18286:18289   */\n      dup5\n        /* \"#utility.yul\":18282:18293   */\n      add\n        /* \"#utility.yul\":18275:18314   */\n      mstore\n        /* \"#utility.yul\":18247:18249   */\n      0x20\n        /* \"#utility.yul\":18244:18245   */\n      dup2\n        /* \"#utility.yul\":18240:18250   */\n      add\n        /* \"#utility.yul\":18235:18250   */\n      swap1\n      pop\n        /* \"#utility.yul\":18211:18324   */\n      jump(tag_532)\n    tag_534:\n        /* \"#utility.yul\":18342:18348   */\n      dup4\n        /* \"#utility.yul\":18339:18340   */\n      dup2\n        /* \"#utility.yul\":18336:18349   */\n      gt\n        /* \"#utility.yul\":18333:18434   */\n      iszero\n      tag_535\n      jumpi\n        /* \"#utility.yul\":18422:18423   */\n      0x00\n        /* \"#utility.yul\":18413:18419   */\n      dup5\n        /* \"#utility.yul\":18408:18411   */\n      dup5\n        /* \"#utility.yul\":18404:18420   */\n      add\n        /* \"#utility.yul\":18397:18424   */\n      mstore\n        /* \"#utility.yul\":18333:18434   */\n    tag_535:\n        /* \"#utility.yul\":18182:18440   */\n      pop\n        /* \"#utility.yul\":18133:18440   */\n      pop\n      pop\n      pop\n      jump\t// out\n        /* \"#utility.yul\":18446:18727   */\n    tag_475:\n        /* \"#utility.yul\":18529:18556   */\n      tag_537\n        /* \"#utility.yul\":18551:18555   */\n      dup3\n        /* \"#utility.yul\":18529:18556   */\n      tag_427\n      jump\t// in\n    tag_537:\n        /* \"#utility.yul\":18521:18527   */\n      dup2\n        /* \"#utility.yul\":18517:18557   */\n      add\n        /* \"#utility.yul\":18659:18665   */\n      dup2\n        /* \"#utility.yul\":18647:18657   */\n      dup2\n        /* \"#utility.yul\":18644:18666   */\n      lt\n        /* \"#utility.yul\":18623:18641   */\n      0xffffffffffffffff\n        /* \"#utility.yul\":18611:18621   */\n      dup3\n        /* \"#utility.yul\":18608:18642   */\n      gt\n        /* \"#utility.yul\":18605:18667   */\n      or\n        /* \"#utility.yul\":18602:18690   */\n      iszero\n      tag_538\n      jumpi\n        /* \"#utility.yul\":18670:18688   */\n      tag_539\n      tag_66\n      jump\t// in\n    tag_539:\n        /* \"#utility.yul\":18602:18690   */\n    tag_538:\n        /* \"#utility.yul\":18710:18720   */\n      dup1\n        /* \"#utility.yul\":18706:18708   */\n      0x40\n        /* \"#utility.yul\":18699:18721   */\n      mstore\n        /* \"#utility.yul\":18489:18727   */\n      pop\n        /* \"#utility.yul\":18446:18727   */\n      pop\n      pop\n      jump\t// out\n        /* \"#utility.yul\":18733:18913   */\n    tag_491:\n        /* \"#utility.yul\":18781:18858   */\n      0x4e487b7100000000000000000000000000000000000000000000000000000000\n        /* \"#utility.yul\":18778:18779   */\n      0x00\n        /* \"#utility.yul\":18771:18859   */\n      mstore\n        /* \"#utility.yul\":18878:18882   */\n      0x11\n        /* \"#utility.yul\":18875:18876   */\n      0x04\n        /* \"#utility.yul\":18868:18883   */\n      mstore\n        /* \"#utility.yul\":18902:18906   */\n      0x24\n        /* \"#utility.yul\":18899:18900   */\n      0x00\n        /* \"#utility.yul\":18892:18907   */\n      revert\n        /* \"#utility.yul\":18919:19099   */\n    tag_497:\n        /* \"#utility.yul\":18967:19044   */\n      0x4e487b7100000000000000000000000000000000000000000000000000000000\n        /* \"#utility.yul\":18964:18965   */\n      0x00\n        /* \"#utility.yul\":18957:19045   */\n      mstore\n        /* \"#utility.yul\":19064:19068   */\n      0x12\n        /* \"#utility.yul\":19061:19062   */\n      0x04\n        /* \"#utility.yul\":19054:19069   */\n      mstore\n        /* \"#utility.yul\":19088:19092   */\n      0x24\n        /* \"#utility.yul\":19085:19086   */\n      0x00\n        /* \"#utility.yul\":19078:19093   */\n      revert\n        /* \"#utility.yul\":19105:19285   */\n    tag_70:\n        /* \"#utility.yul\":19153:19230   */\n      0x4e487b7100000000000000000000000000000000000000000000000000000000\n        /* \"#utility.yul\":19150:19151   */\n      0x00\n        /* \"#utility.yul\":19143:19231   */\n      mstore\n        /* \"#utility.yul\":19250:19254   */\n      0x32\n        /* \"#utility.yul\":19247:19248   */\n      0x04\n        /* \"#utility.yul\":19240:19255   */\n      mstore\n        /* \"#utility.yul\":19274:19278   */\n      0x24\n        /* \"#utility.yul\":19271:19272   */\n      0x00\n        /* \"#utility.yul\":19264:19279   */\n      revert\n        /* \"#utility.yul\":19291:19471   */\n    tag_66:\n        /* \"#utility.yul\":19339:19416   */\n      0x4e487b7100000000000000000000000000000000000000000000000000000000\n        /* \"#utility.yul\":19336:19337   */\n      0x00\n        /* \"#utility.yul\":19329:19417   */\n      mstore\n        /* \"#utility.yul\":19436:19440   */\n      0x41\n        /* \"#utility.yul\":19433:19434   */\n      0x04\n        /* \"#utility.yul\":19426:19441   */\n      mstore\n        /* \"#utility.yul\":19460:19464   */\n      0x24\n        /* \"#utility.yul\":19457:19458   */\n      0x00\n        /* \"#utility.yul\":19450:19465   */\n      revert\n        /* \"#utility.yul\":19477:19594   */\n    tag_307:\n        /* \"#utility.yul\":19586:19587   */\n      0x00\n        /* \"#utility.yul\":19583:19584   */\n      dup1\n        /* \"#utility.yul\":19576:19588   */\n      revert\n        /* \"#utility.yul\":19600:19717   */\n    tag_333:\n        /* \"#utility.yul\":19709:19710   */\n      0x00\n        /* \"#utility.yul\":19706:19707   */\n      dup1\n        /* \"#utility.yul\":19699:19711   */\n      revert\n        /* \"#utility.yul\":19846:19963   */\n    tag_290:\n        /* \"#utility.yul\":19955:19956   */\n      0x00\n        /* \"#utility.yul\":19952:19953   */\n      dup1\n        /* \"#utility.yul\":19945:19957   */\n      revert\n        /* \"#utility.yul\":19969:20086   */\n    tag_361:\n        /* \"#utility.yul\":20078:20079   */\n      0x00\n        /* \"#utility.yul\":20075:20076   */\n      dup1\n        /* \"#utility.yul\":20068:20080   */\n      revert\n        /* \"#utility.yul\":20092:20209   */\n    tag_350:\n        /* \"#utility.yul\":20201:20202   */\n      0x00\n        /* \"#utility.yul\":20198:20199   */\n      dup1\n        /* \"#utility.yul\":20191:20203   */\n      revert\n        /* \"#utility.yul\":20215:20317   */\n    tag_427:\n        /* \"#utility.yul\":20256:20262   */\n      0x00\n        /* \"#utility.yul\":20307:20309   */\n      0x1f\n        /* \"#utility.yul\":20303:20310   */\n      not\n        /* \"#utility.yul\":20298:20300   */\n      0x1f\n        /* \"#utility.yul\":20291:20296   */\n      dup4\n        /* \"#utility.yul\":20287:20301   */\n      add\n        /* \"#utility.yul\":20283:20311   */\n      and\n        /* \"#utility.yul\":20273:20311   */\n      swap1\n      pop\n        /* \"#utility.yul\":20215:20317   */\n      swap2\n      swap1\n      pop\n      jump\t// out\n        /* \"#utility.yul\":20323:20548   */\n    tag_432:\n        /* \"#utility.yul\":20463:20497   */\n      0x4f776e61626c653a206e6577206f776e657220697320746865207a65726f2061\n        /* \"#utility.yul\":20459:20460   */\n      0x00\n        /* \"#utility.yul\":20451:20457   */\n      dup3\n        /* \"#utility.yul\":20447:20461   */\n      add\n        /* \"#utility.yul\":20440:20498   */\n      mstore\n        /* \"#utility.yul\":20532:20540   */\n      0x6464726573730000000000000000000000000000000000000000000000000000\n        /* \"#utility.yul\":20527:20529   */\n      0x20\n        /* \"#utility.yul\":20519:20525   */\n      dup3\n        /* \"#utility.yul\":20515:20530   */\n      add\n        /* \"#utility.yul\":20508:20541   */\n      mstore\n        /* \"#utility.yul\":20323:20548   */\n      pop\n      jump\t// out\n        /* \"#utility.yul\":20554:20731   */\n    tag_437:\n        /* \"#utility.yul\":20694:20723   */\n      0x536166654d6174683a206164646974696f6e206f766572666c6f770000000000\n        /* \"#utility.yul\":20690:20691   */\n      0x00\n        /* \"#utility.yul\":20682:20688   */\n      dup3\n        /* \"#utility.yul\":20678:20692   */\n      add\n        /* \"#utility.yul\":20671:20724   */\n      mstore\n        /* \"#utility.yul\":20554:20731   */\n      pop\n      jump\t// out\n        /* \"#utility.yul\":20737:20957   */\n    tag_442:\n        /* \"#utility.yul\":20877:20911   */\n      0x536166654d6174683a206d756c7469706c69636174696f6e206f766572666c6f\n        /* \"#utility.yul\":20873:20874   */\n      0x00\n        /* \"#utility.yul\":20865:20871   */\n      dup3\n        /* \"#utility.yul\":20861:20875   */\n      add\n        /* \"#utility.yul\":20854:20912   */\n      mstore\n        /* \"#utility.yul\":20946:20949   */\n      0x7700000000000000000000000000000000000000000000000000000000000000\n        /* \"#utility.yul\":20941:20943   */\n      0x20\n        /* \"#utility.yul\":20933:20939   */\n      dup3\n        /* \"#utility.yul\":20929:20944   */\n      add\n        /* \"#utility.yul\":20922:20950   */\n      mstore\n        /* \"#utility.yul\":20737:20957   */\n      pop\n      jump\t// out\n        /* \"#utility.yul\":20963:21145   */\n    tag_447:\n        /* \"#utility.yul\":21103:21137   */\n      0x4f776e61626c653a2063616c6c6572206973206e6f7420746865206f776e6572\n        /* \"#utility.yul\":21099:21100   */\n      0x00\n        /* \"#utility.yul\":21091:21097   */\n      dup3\n        /* \"#utility.yul\":21087:21101   */\n      add\n        /* \"#utility.yul\":21080:21138   */\n      mstore\n        /* \"#utility.yul\":20963:21145   */\n      pop\n      jump\t// out\n        /* \"#utility.yul\":21151:21273   */\n    tag_299:\n        /* \"#utility.yul\":21224:21248   */\n      tag_557\n        /* \"#utility.yul\":21242:21247   */\n      dup2\n        /* \"#utility.yul\":21224:21248   */\n      tag_396\n      jump\t// in\n    tag_557:\n        /* \"#utility.yul\":21217:21222   */\n      dup2\n        /* \"#utility.yul\":21214:21249   */\n      eq\n        /* \"#utility.yul\":21204:21267   */\n      tag_558\n      jumpi\n        /* \"#utility.yul\":21263:21264   */\n      0x00\n        /* \"#utility.yul\":21260:21261   */\n      dup1\n        /* \"#utility.yul\":21253:21265   */\n      revert\n        /* \"#utility.yul\":21204:21267   */\n    tag_558:\n        /* \"#utility.yul\":21151:21273   */\n      pop\n      jump\t// out\n        /* \"#utility.yul\":21279:21429   */\n    tag_312:\n        /* \"#utility.yul\":21366:21404   */\n      tag_560\n        /* \"#utility.yul\":21398:21403   */\n      dup2\n        /* \"#utility.yul\":21366:21404   */\n      tag_506\n      jump\t// in\n    tag_560:\n        /* \"#utility.yul\":21359:21364   */\n      dup2\n        /* \"#utility.yul\":21356:21405   */\n      eq\n        /* \"#utility.yul\":21346:21423   */\n      tag_561\n      jumpi\n        /* \"#utility.yul\":21419:21420   */\n      0x00\n        /* \"#utility.yul\":21416:21417   */\n      dup1\n        /* \"#utility.yul\":21409:21421   */\n      revert\n        /* \"#utility.yul\":21346:21423   */\n    tag_561:\n        /* \"#utility.yul\":21279:21429   */\n      pop\n      jump\t// out\n        /* \"#utility.yul\":21435:21595   */\n    tag_316:\n        /* \"#utility.yul\":21527:21570   */\n      tag_563\n        /* \"#utility.yul\":21564:21569   */\n      dup2\n        /* \"#utility.yul\":21527:21570   */\n      tag_509\n      jump\t// in\n    tag_563:\n        /* \"#utility.yul\":21520:21525   */\n      dup2\n        /* \"#utility.yul\":21517:21571   */\n      eq\n        /* \"#utility.yul\":21507:21589   */\n      tag_564\n      jumpi\n        /* \"#utility.yul\":21585:21586   */\n      0x00\n        /* \"#utility.yul\":21582:21583   */\n      dup1\n        /* \"#utility.yul\":21575:21587   */\n      revert\n        /* \"#utility.yul\":21507:21589   */\n    tag_564:\n        /* \"#utility.yul\":21435:21595   */\n      pop\n      jump\t// out\n        /* \"#utility.yul\":21601:21743   */\n    tag_320:\n        /* \"#utility.yul\":21684:21718   */\n      tag_566\n        /* \"#utility.yul\":21712:21717   */\n      dup2\n        /* \"#utility.yul\":21684:21718   */\n      tag_512\n      jump\t// in\n    tag_566:\n        /* \"#utility.yul\":21677:21682   */\n      dup2\n        /* \"#utility.yul\":21674:21719   */\n      eq\n        /* \"#utility.yul\":21664:21737   */\n      tag_567\n      jumpi\n        /* \"#utility.yul\":21733:21734   */\n      0x00\n        /* \"#utility.yul\":21730:21731   */\n      dup1\n        /* \"#utility.yul\":21723:21735   */\n      revert\n        /* \"#utility.yul\":21664:21737   */\n    tag_567:\n        /* \"#utility.yul\":21601:21743   */\n      pop\n      jump\t// out\n        /* \"#utility.yul\":21749:21915   */\n    tag_324:\n        /* \"#utility.yul\":21844:21890   */\n      tag_569\n        /* \"#utility.yul\":21884:21889   */\n      dup2\n        /* \"#utility.yul\":21844:21890   */\n      tag_515\n      jump\t// in\n    tag_569:\n        /* \"#utility.yul\":21837:21842   */\n      dup2\n        /* \"#utility.yul\":21834:21891   */\n      eq\n        /* \"#utility.yul\":21824:21909   */\n      tag_570\n      jumpi\n        /* \"#utility.yul\":21905:21906   */\n      0x00\n        /* \"#utility.yul\":21902:21903   */\n      dup1\n        /* \"#utility.yul\":21895:21907   */\n      revert\n        /* \"#utility.yul\":21824:21909   */\n    tag_570:\n        /* \"#utility.yul\":21749:21915   */\n      pop\n      jump\t// out\n        /* \"#utility.yul\":21921:22071   */\n    tag_328:\n        /* \"#utility.yul\":22008:22046   */\n      tag_572\n        /* \"#utility.yul\":22040:22045   */\n      dup2\n        /* \"#utility.yul\":22008:22046   */\n      tag_518\n      jump\t// in\n    tag_572:\n        /* \"#utility.yul\":22001:22006   */\n      dup2\n        /* \"#utility.yul\":21998:22047   */\n      eq\n        /* \"#utility.yul\":21988:22065   */\n      tag_573\n      jumpi\n        /* \"#utility.yul\":22061:22062   */\n      0x00\n        /* \"#utility.yul\":22058:22059   */\n      dup1\n        /* \"#utility.yul\":22051:22063   */\n      revert\n        /* \"#utility.yul\":21988:22065   */\n    tag_573:\n        /* \"#utility.yul\":21921:22071   */\n      pop\n      jump\t// out\n        /* \"#utility.yul\":22077:22199   */\n    tag_344:\n        /* \"#utility.yul\":22150:22174   */\n      tag_575\n        /* \"#utility.yul\":22168:22173   */\n      dup2\n        /* \"#utility.yul\":22150:22174   */\n      tag_451\n      jump\t// in\n    tag_575:\n        /* \"#utility.yul\":22143:22148   */\n      dup2\n        /* \"#utility.yul\":22140:22175   */\n      eq\n        /* \"#utility.yul\":22130:22193   */\n      tag_576\n      jumpi\n        /* \"#utility.yul\":22189:22190   */\n      0x00\n        /* \"#utility.yul\":22186:22187   */\n      dup1\n        /* \"#utility.yul\":22179:22191   */\n      revert\n        /* \"#utility.yul\":22130:22193   */\n    tag_576:\n        /* \"#utility.yul\":22077:22199   */\n      pop\n      jump\t// out\n\n    auxdata: 0xa2646970667358221220d62ce75d544155fccc1685c8d81beddd07b2c104721b6ea7e237604601479e6964736f6c63430008070033\n}\n",
				"bytecode": {
					"linkReferences": {},
					"object": "608060405273ae13d989dac2f0debff460ac112a837c89baa7cd600160006101000a81548173ffffffffffffffffffffffffffffffffffffffff021916908373ffffffffffffffffffffffffffffffffffffffff1602179055507378867bbeef44f2326bf8ddd1941a4439382ef2a7600260006101000a81548173ffffffffffffffffffffffffffffffffffffffff021916908373ffffffffffffffffffffffffffffffffffffffff160217905550670de0b6b3a764000060035562a06680600555348015620000ce57600080fd5b50604051620027a5380380620027a58339818101604052810190620000f491906200023f565b62000114620001086200015c60201b60201c565b6200016460201b60201c565b80600460006101000a81548173ffffffffffffffffffffffffffffffffffffffff021916908373ffffffffffffffffffffffffffffffffffffffff16021790555050620002d8565b600033905090565b60008060009054906101000a900473ffffffffffffffffffffffffffffffffffffffff169050816000806101000a81548173ffffffffffffffffffffffffffffffffffffffff021916908373ffffffffffffffffffffffffffffffffffffffff1602179055508173ffffffffffffffffffffffffffffffffffffffff168173ffffffffffffffffffffffffffffffffffffffff167f8be0079c531659141344cd1fd0a4f28419497f9722a3daafe3b4186f6b6457e060405160405180910390a35050565b6000815190506200023981620002be565b92915050565b600060208284031215620002585762000257620002b9565b5b6000620002688482850162000228565b91505092915050565b60006200027e8262000299565b9050919050565b6000620002928262000271565b9050919050565b600073ffffffffffffffffffffffffffffffffffffffff82169050919050565b600080fd5b620002c98162000285565b8114620002d557600080fd5b50565b6124bd80620002e86000396000f3fe608060405234801561001057600080fd5b50600436106100b45760003560e01c80638da5cb5b116100715780638da5cb5b1461018f5780638dd95002146101ad578063c0d78655146101cb578063d979fb5f146101e7578063dbb7934814610217578063f2fde38b14610247576100b4565b806319047f8a146100b9578063215cc989146100e95780633268cc56146101195780633b979d4514610137578063484f4ea914610167578063715018a614610185575b600080fd5b6100d360048036038101906100ce9190611ad4565b610263565b6040516100e09190611f0e565b60405180910390f35b61010360048036038101906100fe9190611ba4565b6104ba565b6040516101109190611f0e565b60405180910390f35b610121610d98565b60405161012e9190611e51565b60405180910390f35b610151600480360381019061014c9190611ad4565b610dbe565b60405161015e9190611f0e565b60405180910390f35b61016f610fa4565b60405161017c9190611e36565b60405180910390f35b61018d610fca565b005b610197611052565b6040516101a49190611e36565b60405180910390f35b6101b561107b565b6040516101c29190611e36565b60405180910390f35b6101e560048036038101906101e09190611bd1565b6110a1565b005b61020160048036038101906101fc9190611c58565b611161565b60405161020e9190611f0e565b60405180910390f35b610231600480360381019061022c9190611c58565b6112b2565b60405161023e9190611f0e565b60405180910390f35b610261600480360381019061025c9190611ad4565b61158f565b005b600080600367ffffffffffffffff8111156102815761028061229d565b5b6040519080825280602002602001820160405280156102af5781602001602082028036833780820191505090505b50905082816000815181106102c7576102c661226e565b5b602002602001019073ffffffffffffffffffffffffffffffffffffffff16908173ffffffffffffffffffffffffffffffffffffffff1681525050600160009054906101000a900473ffffffffffffffffffffffffffffffffffffffff16816001815181106103385761033761226e565b5b602002602001019073ffffffffffffffffffffffffffffffffffffffff16908173ffffffffffffffffffffffffffffffffffffffff1681525050600260009054906101000a900473ffffffffffffffffffffffffffffffffffffffff16816002815181106103a9576103a861226e565b5b602002602001019073ffffffffffffffffffffffffffffffffffffffff16908173ffffffffffffffffffffffffffffffffffffffff1681525050600460009054906101000a900473ffffffffffffffffffffffffffffffffffffffff1673ffffffffffffffffffffffffffffffffffffffff1663d06ca61f600354836040518363ffffffff1660e01b8152600401610442929190611f29565b60006040518083038186803b15801561045a57600080fd5b505afa15801561046e573d6000803e3d6000fd5b505050506040513d6000823e3d601f19601f820116820180604052508101906104979190611b2e565b6002815181106104aa576104a961226e565b5b6020026020010151915050919050565b60008060008373ffffffffffffffffffffffffffffffffffffffff16630dfe16816040518163ffffffff1660e01b815260040160206040518083038186803b15801561050557600080fd5b505afa158015610519573d6000803e3d6000fd5b505050506040513d601f19601f8201168201806040525081019061053d9190611b77565b73ffffffffffffffffffffffffffffffffffffffff16600160009054906101000a900473ffffffffffffffffffffffffffffffffffffffff1673ffffffffffffffffffffffffffffffffffffffff1614156107365761072f61061b8573ffffffffffffffffffffffffffffffffffffffff16630dfe16816040518163ffffffff1660e01b815260040160206040518083038186803b1580156105de57600080fd5b505afa1580156105f2573d6000803e3d6000fd5b505050506040513d601f19601f820116820180604052508101906106169190611b77565b610dbe565b8573ffffffffffffffffffffffffffffffffffffffff16630dfe16816040518163ffffffff1660e01b815260040160206040518083038186803b15801561066157600080fd5b505afa158015610675573d6000803e3d6000fd5b505050506040513d601f19601f820116820180604052508101906106999190611b77565b73ffffffffffffffffffffffffffffffffffffffff166370a08231876040518263ffffffff1660e01b81526004016106d19190611e36565b60206040518083038186803b1580156106e957600080fd5b505afa1580156106fd573d6000803e3d6000fd5b505050506040513d601f19601f820116820180604052508101906107219190611c2b565b61168790919063ffffffff16565b91506108d6565b6108d36107bf8573ffffffffffffffffffffffffffffffffffffffff16630dfe16816040518163ffffffff1660e01b815260040160206040518083038186803b15801561078257600080fd5b505afa158015610796573d6000803e3d6000fd5b505050506040513d601f19601f820116820180604052508101906107ba9190611b77565b610263565b8573ffffffffffffffffffffffffffffffffffffffff16630dfe16816040518163ffffffff1660e01b815260040160206040518083038186803b15801561080557600080fd5b505afa158015610819573d6000803e3d6000fd5b505050506040513d601f19601f8201168201806040525081019061083d9190611b77565b73ffffffffffffffffffffffffffffffffffffffff166370a08231876040518263ffffffff1660e01b81526004016108759190611e36565b60206040518083038186803b15801561088d57600080fd5b505afa1580156108a1573d6000803e3d6000fd5b505050506040513d601f19601f820116820180604052508101906108c59190611c2b565b61168790919063ffffffff16565b91505b8373ffffffffffffffffffffffffffffffffffffffff1663d21220a76040518163ffffffff1660e01b815260040160206040518083038186803b15801561091c57600080fd5b505afa158015610930573d6000803e3d6000fd5b505050506040513d601f19601f820116820180604052508101906109549190611b77565b73ffffffffffffffffffffffffffffffffffffffff16600160009054906101000a900473ffffffffffffffffffffffffffffffffffffffff1673ffffffffffffffffffffffffffffffffffffffff161415610b4d57610b46610a328573ffffffffffffffffffffffffffffffffffffffff1663d21220a76040518163ffffffff1660e01b815260040160206040518083038186803b1580156109f557600080fd5b505afa158015610a09573d6000803e3d6000fd5b505050506040513d601f19601f82011682018060405250810190610a2d9190611b77565b610dbe565b8573ffffffffffffffffffffffffffffffffffffffff1663d21220a76040518163ffffffff1660e01b815260040160206040518083038186803b158015610a7857600080fd5b505afa158015610a8c573d6000803e3d6000fd5b505050506040513d601f19601f82011682018060405250810190610ab09190611b77565b73ffffffffffffffffffffffffffffffffffffffff166370a08231876040518263ffffffff1660e01b8152600401610ae89190611e36565b60206040518083038186803b158015610b0057600080fd5b505afa158015610b14573d6000803e3d6000fd5b505050506040513d601f19601f82011682018060405250810190610b389190611c2b565b61168790919063ffffffff16565b9050610ced565b610cea610bd68573ffffffffffffffffffffffffffffffffffffffff1663d21220a76040518163ffffffff1660e01b815260040160206040518083038186803b158015610b9957600080fd5b505afa158015610bad573d6000803e3d6000fd5b505050506040513d601f19601f82011682018060405250810190610bd19190611b77565b610263565b8573ffffffffffffffffffffffffffffffffffffffff1663d21220a76040518163ffffffff1660e01b815260040160206040518083038186803b158015610c1c57600080fd5b505afa158015610c30573d6000803e3d6000fd5b505050506040513d601f19601f82011682018060405250810190610c549190611b77565b73ffffffffffffffffffffffffffffffffffffffff166370a08231876040518263ffffffff1660e01b8152600401610c8c9190611e36565b60206040518083038186803b158015610ca457600080fd5b505afa158015610cb8573d6000803e3d6000fd5b505050506040513d601f19601f82011682018060405250810190610cdc9190611c2b565b61168790919063ffffffff16565b90505b610d8f8473ffffffffffffffffffffffffffffffffffffffff166318160ddd6040518163ffffffff1660e01b815260040160206040518083038186803b158015610d3657600080fd5b505afa158015610d4a573d6000803e3d6000fd5b505050506040513d601f19601f82011682018060405250810190610d6e9190611c2b565b610d81838561170290919063ffffffff16565b61176090919063ffffffff16565b92505050919050565b600460009054906101000a900473ffffffffffffffffffffffffffffffffffffffff1681565b600080600267ffffffffffffffff811115610ddc57610ddb61229d565b5b604051908082528060200260200182016040528015610e0a5781602001602082028036833780820191505090505b5090508281600081518110610e2257610e2161226e565b5b602002602001019073ffffffffffffffffffffffffffffffffffffffff16908173ffffffffffffffffffffffffffffffffffffffff1681525050600260009054906101000a900473ffffffffffffffffffffffffffffffffffffffff1681600181518110610e9357610e9261226e565b5b602002602001019073ffffffffffffffffffffffffffffffffffffffff16908173ffffffffffffffffffffffffffffffffffffffff1681525050600460009054906101000a900473ffffffffffffffffffffffffffffffffffffffff1673ffffffffffffffffffffffffffffffffffffffff1663d06ca61f600354836040518363ffffffff1660e01b8152600401610f2c929190611f29565b60006040518083038186803b158015610f4457600080fd5b505afa158015610f58573d6000803e3d6000fd5b505050506040513d6000823e3d601f19601f82011682018060405250810190610f819190611b2e565b600181518110610f9457610f9361226e565b5b6020026020010151915050919050565b600260009054906101000a900473ffffffffffffffffffffffffffffffffffffffff1681565b610fd26117aa565b73ffffffffffffffffffffffffffffffffffffffff16610ff0611052565b73ffffffffffffffffffffffffffffffffffffffff1614611046576040517f08c379a000000000000000000000000000000000000000000000000000000000815260040161103d90611eee565b60405180910390fd5b61105060006117b2565b565b60008060009054906101000a900473ffffffffffffffffffffffffffffffffffffffff16905090565b600160009054906101000a900473ffffffffffffffffffffffffffffffffffffffff1681565b6110a96117aa565b73ffffffffffffffffffffffffffffffffffffffff166110c7611052565b73ffffffffffffffffffffffffffffffffffffffff161461111d576040517f08c379a000000000000000000000000000000000000000000000000000000000815260040161111490611eee565b60405180910390fd5b80600460006101000a81548173ffffffffffffffffffffffffffffffffffffffff021916908373ffffffffffffffffffffffffffffffffffffffff16021790555050565b6000808273ffffffffffffffffffffffffffffffffffffffff16636a6d964e876040518263ffffffff1660e01b815260040161119d9190611f0e565b60206040518083038186803b1580156111b557600080fd5b505afa1580156111c9573d6000803e3d6000fd5b505050506040513d601f19601f820116820180604052508101906111ed9190611c2b565b905060008085141561120957611202866104ba565b9050611286565b6001851415611285578573ffffffffffffffffffffffffffffffffffffffff16600160009054906101000a900473ffffffffffffffffffffffffffffffffffffffff1673ffffffffffffffffffffffffffffffffffffffff1614156112785761127186610263565b9050611284565b61128186610dbe565b90505b5b5b6112a660035482846112989190612086565b61176090919063ffffffff16565b92505050949350505050565b6000808273ffffffffffffffffffffffffffffffffffffffff16631526fe27876040518263ffffffff1660e01b81526004016112ee9190611f0e565b60c06040518083038186803b15801561130657600080fd5b505afa15801561131a573d6000803e3d6000fd5b505050506040513d601f19601f8201168201806040525081019061133e9190611bfe565b905060006113ea8473ffffffffffffffffffffffffffffffffffffffff166317caf6f16040518163ffffffff1660e01b815260040160206040518083038186803b15801561138b57600080fd5b505afa15801561139f573d6000803e3d6000fd5b505050506040513d601f19601f820116820180604052508101906113c39190611c2b565b6113dc600354856020015161168790919063ffffffff16565b61176090919063ffffffff16565b905060006114748573ffffffffffffffffffffffffffffffffffffffff1663141aa0ba6040518163ffffffff1660e01b815260040160206040518083038186803b15801561143757600080fd5b505afa15801561144b573d6000803e3d6000fd5b505050506040513d601f19601f8201168201806040525081019061146f9190611b01565b610263565b9050600061150a8673ffffffffffffffffffffffffffffffffffffffff1663a1eef8216040518163ffffffff1660e01b815260040160206040518083038186803b1580156114c157600080fd5b505afa1580156114d5573d6000803e3d6000fd5b505050506040513d601f19601f820116820180604052508101906114f99190611c2b565b60055461168790919063ffffffff16565b90506000611521848361168790919063ffffffff16565b905060006115318b8b8b8b611161565b905061157f6064611571836115636003546115558a8961168790919063ffffffff16565b61176090919063ffffffff16565b61176090919063ffffffff16565b61168790919063ffffffff16565b9650505050505050949350505050565b6115976117aa565b73ffffffffffffffffffffffffffffffffffffffff166115b5611052565b73ffffffffffffffffffffffffffffffffffffffff161461160b576040517f08c379a000000000000000000000000000000000000000000000000000000000815260040161160290611eee565b60405180910390fd5b600073ffffffffffffffffffffffffffffffffffffffff168173ffffffffffffffffffffffffffffffffffffffff16141561167b576040517f08c379a000000000000000000000000000000000000000000000000000000000815260040161167290611e8e565b60405180910390fd5b611684816117b2565b50565b60008083141561169a57600090506116fc565b600082846116a89190612086565b90508284826116b79190612055565b146116f7576040517f08c379a00000000000000000000000000000000000000000000000000000000081526004016116ee90611ece565b60405180910390fd5b809150505b92915050565b60008082846117119190611fff565b905083811015611756576040517f08c379a000000000000000000000000000000000000000000000000000000000815260040161174d90611eae565b60405180910390fd5b8091505092915050565b60006117a283836040518060400160405280601a81526020017f536166654d6174683a206469766973696f6e206279207a65726f000000000000815250611876565b905092915050565b600033905090565b60008060009054906101000a900473ffffffffffffffffffffffffffffffffffffffff169050816000806101000a81548173ffffffffffffffffffffffffffffffffffffffff021916908373ffffffffffffffffffffffffffffffffffffffff1602179055508173ffffffffffffffffffffffffffffffffffffffff168173ffffffffffffffffffffffffffffffffffffffff167f8be0079c531659141344cd1fd0a4f28419497f9722a3daafe3b4186f6b6457e060405160405180910390a35050565b600080831182906118bd576040517f08c379a00000000000000000000000000000000000000000000000000000000081526004016118b49190611e6c565b60405180910390fd5b50600083856118cc9190612055565b9050809150509392505050565b60006118ec6118e784611f7e565b611f59565b9050808382526020820190508285602086028201111561190f5761190e6122d6565b5b60005b8581101561193f57816119258882611abf565b845260208401935060208301925050600181019050611912565b5050509392505050565b600081359050611958816123e6565b92915050565b60008151905061196d816123e6565b92915050565b600082601f830112611988576119876122cc565b5b81516119988482602086016118d9565b91505092915050565b6000815190506119b0816123fd565b92915050565b6000815190506119c581612414565b92915050565b6000813590506119da8161242b565b92915050565b6000813590506119ef81612442565b92915050565b600081359050611a0481612459565b92915050565b600060c08284031215611a2057611a1f6122d1565b5b611a2a60c0611f59565b90506000611a3a848285016119a1565b6000830152506020611a4e84828501611abf565b6020830152506040611a6284828501611abf565b6040830152506060611a7684828501611abf565b6060830152506080611a8a848285016119b6565b60808301525060a0611a9e848285016119a1565b60a08301525092915050565b600081359050611ab981612470565b92915050565b600081519050611ace81612470565b92915050565b600060208284031215611aea57611ae96122e0565b5b6000611af884828501611949565b91505092915050565b600060208284031215611b1757611b166122e0565b5b6000611b258482850161195e565b91505092915050565b600060208284031215611b4457611b436122e0565b5b600082015167ffffffffffffffff811115611b6257611b616122db565b5b611b6e84828501611973565b91505092915050565b600060208284031215611b8d57611b8c6122e0565b5b6000611b9b848285016119a1565b91505092915050565b600060208284031215611bba57611bb96122e0565b5b6000611bc8848285016119cb565b91505092915050565b600060208284031215611be757611be66122e0565b5b6000611bf5848285016119f5565b91505092915050565b600060c08284031215611c1457611c136122e0565b5b6000611c2284828501611a0a565b91505092915050565b600060208284031215611c4157611c406122e0565b5b6000611c4f84828501611abf565b91505092915050565b60008060008060808587031215611c7257611c716122e0565b5b6000611c8087828801611aaa565b9450506020611c91878288016119cb565b9350506040611ca287828801611aaa565b9250506060611cb3878288016119e0565b91505092959194509250565b6000611ccb8383611cd7565b60208301905092915050565b611ce0816120e0565b82525050565b611cef816120e0565b82525050565b6000611d0082611fba565b611d0a8185611fdd565b9350611d1583611faa565b8060005b83811015611d46578151611d2d8882611cbf565b9750611d3883611fd0565b925050600181019050611d19565b5085935050505092915050565b611d5c81612176565b82525050565b6000611d6d82611fc5565b611d778185611fee565b9350611d878185602086016121ac565b611d90816122e5565b840191505092915050565b6000611da8602683611fee565b9150611db3826122f6565b604082019050919050565b6000611dcb601b83611fee565b9150611dd682612345565b602082019050919050565b6000611dee602183611fee565b9150611df98261236e565b604082019050919050565b6000611e11602083611fee565b9150611e1c826123bd565b602082019050919050565b611e308161216c565b82525050565b6000602082019050611e4b6000830184611ce6565b92915050565b6000602082019050611e666000830184611d53565b92915050565b60006020820190508181036000830152611e868184611d62565b905092915050565b60006020820190508181036000830152611ea781611d9b565b9050919050565b60006020820190508181036000830152611ec781611dbe565b9050919050565b60006020820190508181036000830152611ee781611de1565b9050919050565b60006020820190508181036000830152611f0781611e04565b9050919050565b6000602082019050611f236000830184611e27565b92915050565b6000604082019050611f3e6000830185611e27565b8181036020830152611f508184611cf5565b90509392505050565b6000611f63611f74565b9050611f6f82826121df565b919050565b6000604051905090565b600067ffffffffffffffff821115611f9957611f9861229d565b5b602082029050602081019050919050565b6000819050602082019050919050565b600081519050919050565b600081519050919050565b6000602082019050919050565b600082825260208201905092915050565b600082825260208201905092915050565b600061200a8261216c565b91506120158361216c565b9250827fffffffffffffffffffffffffffffffffffffffffffffffffffffffffffffffff0382111561204a57612049612210565b5b828201905092915050565b60006120608261216c565b915061206b8361216c565b92508261207b5761207a61223f565b5b828204905092915050565b60006120918261216c565b915061209c8361216c565b9250817fffffffffffffffffffffffffffffffffffffffffffffffffffffffffffffffff04831182151516156120d5576120d4612210565b5b828202905092915050565b60006120eb8261214c565b9050919050565b60006120fd826120e0565b9050919050565b600061210f826120e0565b9050919050565b6000612121826120e0565b9050919050565b6000612133826120e0565b9050919050565b6000612145826120e0565b9050919050565b600073ffffffffffffffffffffffffffffffffffffffff82169050919050565b6000819050919050565b600061218182612188565b9050919050565b60006121938261219a565b9050919050565b60006121a58261214c565b9050919050565b60005b838110156121ca5780820151818401526020810190506121af565b838111156121d9576000848401525b50505050565b6121e8826122e5565b810181811067ffffffffffffffff821117156122075761220661229d565b5b80604052505050565b7f4e487b7100000000000000000000000000000000000000000000000000000000600052601160045260246000fd5b7f4e487b7100000000000000000000000000000000000000000000000000000000600052601260045260246000fd5b7f4e487b7100000000000000000000000000000000000000000000000000000000600052603260045260246000fd5b7f4e487b7100000000000000000000000000000000000000000000000000000000600052604160045260246000fd5b600080fd5b600080fd5b600080fd5b600080fd5b600080fd5b6000601f19601f8301169050919050565b7f4f776e61626c653a206e6577206f776e657220697320746865207a65726f206160008201527f6464726573730000000000000000000000000000000000000000000000000000602082015250565b7f536166654d6174683a206164646974696f6e206f766572666c6f770000000000600082015250565b7f536166654d6174683a206d756c7469706c69636174696f6e206f766572666c6f60008201527f7700000000000000000000000000000000000000000000000000000000000000602082015250565b7f4f776e61626c653a2063616c6c6572206973206e6f7420746865206f776e6572600082015250565b6123ef816120e0565b81146123fa57600080fd5b50565b612406816120f2565b811461241157600080fd5b50565b61241d81612104565b811461242857600080fd5b50565b61243481612116565b811461243f57600080fd5b50565b61244b81612128565b811461245657600080fd5b50565b6124628161213a565b811461246d57600080fd5b50565b6124798161216c565b811461248457600080fd5b5056fea2646970667358221220d62ce75d544155fccc1685c8d81beddd07b2c104721b6ea7e237604601479e6964736f6c63430008070033",
					"opcodes": "PUSH1 0x80 PUSH1 0x40 MSTORE PUSH20 0xAE13D989DAC2F0DEBFF460AC112A837C89BAA7CD PUSH1 0x1 PUSH1 0x0 PUSH2 0x100 EXP DUP2 SLOAD DUP2 PUSH20 0xFFFFFFFFFFFFFFFFFFFFFFFFFFFFFFFFFFFFFFFF MUL NOT AND SWAP1 DUP4 PUSH20 0xFFFFFFFFFFFFFFFFFFFFFFFFFFFFFFFFFFFFFFFF AND MUL OR SWAP1 SSTORE POP PUSH20 0x78867BBEEF44F2326BF8DDD1941A4439382EF2A7 PUSH1 0x2 PUSH1 0x0 PUSH2 0x100 EXP DUP2 SLOAD DUP2 PUSH20 0xFFFFFFFFFFFFFFFFFFFFFFFFFFFFFFFFFFFFFFFF MUL NOT AND SWAP1 DUP4 PUSH20 0xFFFFFFFFFFFFFFFFFFFFFFFFFFFFFFFFFFFFFFFF AND MUL OR SWAP1 SSTORE POP PUSH8 0xDE0B6B3A7640000 PUSH1 0x3 SSTORE PUSH3 0xA06680 PUSH1 0x5 SSTORE CALLVALUE DUP1 ISZERO PUSH3 0xCE JUMPI PUSH1 0x0 DUP1 REVERT JUMPDEST POP PUSH1 0x40 MLOAD PUSH3 0x27A5 CODESIZE SUB DUP1 PUSH3 0x27A5 DUP4 CODECOPY DUP2 DUP2 ADD PUSH1 0x40 MSTORE DUP2 ADD SWAP1 PUSH3 0xF4 SWAP2 SWAP1 PUSH3 0x23F JUMP JUMPDEST PUSH3 0x114 PUSH3 0x108 PUSH3 0x15C PUSH1 0x20 SHL PUSH1 0x20 SHR JUMP JUMPDEST PUSH3 0x164 PUSH1 0x20 SHL PUSH1 0x20 SHR JUMP JUMPDEST DUP1 PUSH1 0x4 PUSH1 0x0 PUSH2 0x100 EXP DUP2 SLOAD DUP2 PUSH20 0xFFFFFFFFFFFFFFFFFFFFFFFFFFFFFFFFFFFFFFFF MUL NOT AND SWAP1 DUP4 PUSH20 0xFFFFFFFFFFFFFFFFFFFFFFFFFFFFFFFFFFFFFFFF AND MUL OR SWAP1 SSTORE POP POP PUSH3 0x2D8 JUMP JUMPDEST PUSH1 0x0 CALLER SWAP1 POP SWAP1 JUMP JUMPDEST PUSH1 0x0 DUP1 PUSH1 0x0 SWAP1 SLOAD SWAP1 PUSH2 0x100 EXP SWAP1 DIV PUSH20 0xFFFFFFFFFFFFFFFFFFFFFFFFFFFFFFFFFFFFFFFF AND SWAP1 POP DUP2 PUSH1 0x0 DUP1 PUSH2 0x100 EXP DUP2 SLOAD DUP2 PUSH20 0xFFFFFFFFFFFFFFFFFFFFFFFFFFFFFFFFFFFFFFFF MUL NOT AND SWAP1 DUP4 PUSH20 0xFFFFFFFFFFFFFFFFFFFFFFFFFFFFFFFFFFFFFFFF AND MUL OR SWAP1 SSTORE POP DUP2 PUSH20 0xFFFFFFFFFFFFFFFFFFFFFFFFFFFFFFFFFFFFFFFF AND DUP2 PUSH20 0xFFFFFFFFFFFFFFFFFFFFFFFFFFFFFFFFFFFFFFFF AND PUSH32 0x8BE0079C531659141344CD1FD0A4F28419497F9722A3DAAFE3B4186F6B6457E0 PUSH1 0x40 MLOAD PUSH1 0x40 MLOAD DUP1 SWAP2 SUB SWAP1 LOG3 POP POP JUMP JUMPDEST PUSH1 0x0 DUP2 MLOAD SWAP1 POP PUSH3 0x239 DUP2 PUSH3 0x2BE JUMP JUMPDEST SWAP3 SWAP2 POP POP JUMP JUMPDEST PUSH1 0x0 PUSH1 0x20 DUP3 DUP5 SUB SLT ISZERO PUSH3 0x258 JUMPI PUSH3 0x257 PUSH3 0x2B9 JUMP JUMPDEST JUMPDEST PUSH1 0x0 PUSH3 0x268 DUP5 DUP3 DUP6 ADD PUSH3 0x228 JUMP JUMPDEST SWAP2 POP POP SWAP3 SWAP2 POP POP JUMP JUMPDEST PUSH1 0x0 PUSH3 0x27E DUP3 PUSH3 0x299 JUMP JUMPDEST SWAP1 POP SWAP2 SWAP1 POP JUMP JUMPDEST PUSH1 0x0 PUSH3 0x292 DUP3 PUSH3 0x271 JUMP JUMPDEST SWAP1 POP SWAP2 SWAP1 POP JUMP JUMPDEST PUSH1 0x0 PUSH20 0xFFFFFFFFFFFFFFFFFFFFFFFFFFFFFFFFFFFFFFFF DUP3 AND SWAP1 POP SWAP2 SWAP1 POP JUMP JUMPDEST PUSH1 0x0 DUP1 REVERT JUMPDEST PUSH3 0x2C9 DUP2 PUSH3 0x285 JUMP JUMPDEST DUP2 EQ PUSH3 0x2D5 JUMPI PUSH1 0x0 DUP1 REVERT JUMPDEST POP JUMP JUMPDEST PUSH2 0x24BD DUP1 PUSH3 0x2E8 PUSH1 0x0 CODECOPY PUSH1 0x0 RETURN INVALID PUSH1 0x80 PUSH1 0x40 MSTORE CALLVALUE DUP1 ISZERO PUSH2 0x10 JUMPI PUSH1 0x0 DUP1 REVERT JUMPDEST POP PUSH1 0x4 CALLDATASIZE LT PUSH2 0xB4 JUMPI PUSH1 0x0 CALLDATALOAD PUSH1 0xE0 SHR DUP1 PUSH4 0x8DA5CB5B GT PUSH2 0x71 JUMPI DUP1 PUSH4 0x8DA5CB5B EQ PUSH2 0x18F JUMPI DUP1 PUSH4 0x8DD95002 EQ PUSH2 0x1AD JUMPI DUP1 PUSH4 0xC0D78655 EQ PUSH2 0x1CB JUMPI DUP1 PUSH4 0xD979FB5F EQ PUSH2 0x1E7 JUMPI DUP1 PUSH4 0xDBB79348 EQ PUSH2 0x217 JUMPI DUP1 PUSH4 0xF2FDE38B EQ PUSH2 0x247 JUMPI PUSH2 0xB4 JUMP JUMPDEST DUP1 PUSH4 0x19047F8A EQ PUSH2 0xB9 JUMPI DUP1 PUSH4 0x215CC989 EQ PUSH2 0xE9 JUMPI DUP1 PUSH4 0x3268CC56 EQ PUSH2 0x119 JUMPI DUP1 PUSH4 0x3B979D45 EQ PUSH2 0x137 JUMPI DUP1 PUSH4 0x484F4EA9 EQ PUSH2 0x167 JUMPI DUP1 PUSH4 0x715018A6 EQ PUSH2 0x185 JUMPI JUMPDEST PUSH1 0x0 DUP1 REVERT JUMPDEST PUSH2 0xD3 PUSH1 0x4 DUP1 CALLDATASIZE SUB DUP2 ADD SWAP1 PUSH2 0xCE SWAP2 SWAP1 PUSH2 0x1AD4 JUMP JUMPDEST PUSH2 0x263 JUMP JUMPDEST PUSH1 0x40 MLOAD PUSH2 0xE0 SWAP2 SWAP1 PUSH2 0x1F0E JUMP JUMPDEST PUSH1 0x40 MLOAD DUP1 SWAP2 SUB SWAP1 RETURN JUMPDEST PUSH2 0x103 PUSH1 0x4 DUP1 CALLDATASIZE SUB DUP2 ADD SWAP1 PUSH2 0xFE SWAP2 SWAP1 PUSH2 0x1BA4 JUMP JUMPDEST PUSH2 0x4BA JUMP JUMPDEST PUSH1 0x40 MLOAD PUSH2 0x110 SWAP2 SWAP1 PUSH2 0x1F0E JUMP JUMPDEST PUSH1 0x40 MLOAD DUP1 SWAP2 SUB SWAP1 RETURN JUMPDEST PUSH2 0x121 PUSH2 0xD98 JUMP JUMPDEST PUSH1 0x40 MLOAD PUSH2 0x12E SWAP2 SWAP1 PUSH2 0x1E51 JUMP JUMPDEST PUSH1 0x40 MLOAD DUP1 SWAP2 SUB SWAP1 RETURN JUMPDEST PUSH2 0x151 PUSH1 0x4 DUP1 CALLDATASIZE SUB DUP2 ADD SWAP1 PUSH2 0x14C SWAP2 SWAP1 PUSH2 0x1AD4 JUMP JUMPDEST PUSH2 0xDBE JUMP JUMPDEST PUSH1 0x40 MLOAD PUSH2 0x15E SWAP2 SWAP1 PUSH2 0x1F0E JUMP JUMPDEST PUSH1 0x40 MLOAD DUP1 SWAP2 SUB SWAP1 RETURN JUMPDEST PUSH2 0x16F PUSH2 0xFA4 JUMP JUMPDEST PUSH1 0x40 MLOAD PUSH2 0x17C SWAP2 SWAP1 PUSH2 0x1E36 JUMP JUMPDEST PUSH1 0x40 MLOAD DUP1 SWAP2 SUB SWAP1 RETURN JUMPDEST PUSH2 0x18D PUSH2 0xFCA JUMP JUMPDEST STOP JUMPDEST PUSH2 0x197 PUSH2 0x1052 JUMP JUMPDEST PUSH1 0x40 MLOAD PUSH2 0x1A4 SWAP2 SWAP1 PUSH2 0x1E36 JUMP JUMPDEST PUSH1 0x40 MLOAD DUP1 SWAP2 SUB SWAP1 RETURN JUMPDEST PUSH2 0x1B5 PUSH2 0x107B JUMP JUMPDEST PUSH1 0x40 MLOAD PUSH2 0x1C2 SWAP2 SWAP1 PUSH2 0x1E36 JUMP JUMPDEST PUSH1 0x40 MLOAD DUP1 SWAP2 SUB SWAP1 RETURN JUMPDEST PUSH2 0x1E5 PUSH1 0x4 DUP1 CALLDATASIZE SUB DUP2 ADD SWAP1 PUSH2 0x1E0 SWAP2 SWAP1 PUSH2 0x1BD1 JUMP JUMPDEST PUSH2 0x10A1 JUMP JUMPDEST STOP JUMPDEST PUSH2 0x201 PUSH1 0x4 DUP1 CALLDATASIZE SUB DUP2 ADD SWAP1 PUSH2 0x1FC SWAP2 SWAP1 PUSH2 0x1C58 JUMP JUMPDEST PUSH2 0x1161 JUMP JUMPDEST PUSH1 0x40 MLOAD PUSH2 0x20E SWAP2 SWAP1 PUSH2 0x1F0E JUMP JUMPDEST PUSH1 0x40 MLOAD DUP1 SWAP2 SUB SWAP1 RETURN JUMPDEST PUSH2 0x231 PUSH1 0x4 DUP1 CALLDATASIZE SUB DUP2 ADD SWAP1 PUSH2 0x22C SWAP2 SWAP1 PUSH2 0x1C58 JUMP JUMPDEST PUSH2 0x12B2 JUMP JUMPDEST PUSH1 0x40 MLOAD PUSH2 0x23E SWAP2 SWAP1 PUSH2 0x1F0E JUMP JUMPDEST PUSH1 0x40 MLOAD DUP1 SWAP2 SUB SWAP1 RETURN JUMPDEST PUSH2 0x261 PUSH1 0x4 DUP1 CALLDATASIZE SUB DUP2 ADD SWAP1 PUSH2 0x25C SWAP2 SWAP1 PUSH2 0x1AD4 JUMP JUMPDEST PUSH2 0x158F JUMP JUMPDEST STOP JUMPDEST PUSH1 0x0 DUP1 PUSH1 0x3 PUSH8 0xFFFFFFFFFFFFFFFF DUP2 GT ISZERO PUSH2 0x281 JUMPI PUSH2 0x280 PUSH2 0x229D JUMP JUMPDEST JUMPDEST PUSH1 0x40 MLOAD SWAP1 DUP1 DUP3 MSTORE DUP1 PUSH1 0x20 MUL PUSH1 0x20 ADD DUP3 ADD PUSH1 0x40 MSTORE DUP1 ISZERO PUSH2 0x2AF JUMPI DUP2 PUSH1 0x20 ADD PUSH1 0x20 DUP3 MUL DUP1 CALLDATASIZE DUP4 CALLDATACOPY DUP1 DUP3 ADD SWAP2 POP POP SWAP1 POP JUMPDEST POP SWAP1 POP DUP3 DUP2 PUSH1 0x0 DUP2 MLOAD DUP2 LT PUSH2 0x2C7 JUMPI PUSH2 0x2C6 PUSH2 0x226E JUMP JUMPDEST JUMPDEST PUSH1 0x20 MUL PUSH1 0x20 ADD ADD SWAP1 PUSH20 0xFFFFFFFFFFFFFFFFFFFFFFFFFFFFFFFFFFFFFFFF AND SWAP1 DUP2 PUSH20 0xFFFFFFFFFFFFFFFFFFFFFFFFFFFFFFFFFFFFFFFF AND DUP2 MSTORE POP POP PUSH1 0x1 PUSH1 0x0 SWAP1 SLOAD SWAP1 PUSH2 0x100 EXP SWAP1 DIV PUSH20 0xFFFFFFFFFFFFFFFFFFFFFFFFFFFFFFFFFFFFFFFF AND DUP2 PUSH1 0x1 DUP2 MLOAD DUP2 LT PUSH2 0x338 JUMPI PUSH2 0x337 PUSH2 0x226E JUMP JUMPDEST JUMPDEST PUSH1 0x20 MUL PUSH1 0x20 ADD ADD SWAP1 PUSH20 0xFFFFFFFFFFFFFFFFFFFFFFFFFFFFFFFFFFFFFFFF AND SWAP1 DUP2 PUSH20 0xFFFFFFFFFFFFFFFFFFFFFFFFFFFFFFFFFFFFFFFF AND DUP2 MSTORE POP POP PUSH1 0x2 PUSH1 0x0 SWAP1 SLOAD SWAP1 PUSH2 0x100 EXP SWAP1 DIV PUSH20 0xFFFFFFFFFFFFFFFFFFFFFFFFFFFFFFFFFFFFFFFF AND DUP2 PUSH1 0x2 DUP2 MLOAD DUP2 LT PUSH2 0x3A9 JUMPI PUSH2 0x3A8 PUSH2 0x226E JUMP JUMPDEST JUMPDEST PUSH1 0x20 MUL PUSH1 0x20 ADD ADD SWAP1 PUSH20 0xFFFFFFFFFFFFFFFFFFFFFFFFFFFFFFFFFFFFFFFF AND SWAP1 DUP2 PUSH20 0xFFFFFFFFFFFFFFFFFFFFFFFFFFFFFFFFFFFFFFFF AND DUP2 MSTORE POP POP PUSH1 0x4 PUSH1 0x0 SWAP1 SLOAD SWAP1 PUSH2 0x100 EXP SWAP1 DIV PUSH20 0xFFFFFFFFFFFFFFFFFFFFFFFFFFFFFFFFFFFFFFFF AND PUSH20 0xFFFFFFFFFFFFFFFFFFFFFFFFFFFFFFFFFFFFFFFF AND PUSH4 0xD06CA61F PUSH1 0x3 SLOAD DUP4 PUSH1 0x40 MLOAD DUP4 PUSH4 0xFFFFFFFF AND PUSH1 0xE0 SHL DUP2 MSTORE PUSH1 0x4 ADD PUSH2 0x442 SWAP3 SWAP2 SWAP1 PUSH2 0x1F29 JUMP JUMPDEST PUSH1 0x0 PUSH1 0x40 MLOAD DUP1 DUP4 SUB DUP2 DUP7 DUP1 EXTCODESIZE ISZERO DUP1 ISZERO PUSH2 0x45A JUMPI PUSH1 0x0 DUP1 REVERT JUMPDEST POP GAS STATICCALL ISZERO DUP1 ISZERO PUSH2 0x46E JUMPI RETURNDATASIZE PUSH1 0x0 DUP1 RETURNDATACOPY RETURNDATASIZE PUSH1 0x0 REVERT JUMPDEST POP POP POP POP PUSH1 0x40 MLOAD RETURNDATASIZE PUSH1 0x0 DUP3 RETURNDATACOPY RETURNDATASIZE PUSH1 0x1F NOT PUSH1 0x1F DUP3 ADD AND DUP3 ADD DUP1 PUSH1 0x40 MSTORE POP DUP2 ADD SWAP1 PUSH2 0x497 SWAP2 SWAP1 PUSH2 0x1B2E JUMP JUMPDEST PUSH1 0x2 DUP2 MLOAD DUP2 LT PUSH2 0x4AA JUMPI PUSH2 0x4A9 PUSH2 0x226E JUMP JUMPDEST JUMPDEST PUSH1 0x20 MUL PUSH1 0x20 ADD ADD MLOAD SWAP2 POP POP SWAP2 SWAP1 POP JUMP JUMPDEST PUSH1 0x0 DUP1 PUSH1 0x0 DUP4 PUSH20 0xFFFFFFFFFFFFFFFFFFFFFFFFFFFFFFFFFFFFFFFF AND PUSH4 0xDFE1681 PUSH1 0x40 MLOAD DUP2 PUSH4 0xFFFFFFFF AND PUSH1 0xE0 SHL DUP2 MSTORE PUSH1 0x4 ADD PUSH1 0x20 PUSH1 0x40 MLOAD DUP1 DUP4 SUB DUP2 DUP7 DUP1 EXTCODESIZE ISZERO DUP1 ISZERO PUSH2 0x505 JUMPI PUSH1 0x0 DUP1 REVERT JUMPDEST POP GAS STATICCALL ISZERO DUP1 ISZERO PUSH2 0x519 JUMPI RETURNDATASIZE PUSH1 0x0 DUP1 RETURNDATACOPY RETURNDATASIZE PUSH1 0x0 REVERT JUMPDEST POP POP POP POP PUSH1 0x40 MLOAD RETURNDATASIZE PUSH1 0x1F NOT PUSH1 0x1F DUP3 ADD AND DUP3 ADD DUP1 PUSH1 0x40 MSTORE POP DUP2 ADD SWAP1 PUSH2 0x53D SWAP2 SWAP1 PUSH2 0x1B77 JUMP JUMPDEST PUSH20 0xFFFFFFFFFFFFFFFFFFFFFFFFFFFFFFFFFFFFFFFF AND PUSH1 0x1 PUSH1 0x0 SWAP1 SLOAD SWAP1 PUSH2 0x100 EXP SWAP1 DIV PUSH20 0xFFFFFFFFFFFFFFFFFFFFFFFFFFFFFFFFFFFFFFFF AND PUSH20 0xFFFFFFFFFFFFFFFFFFFFFFFFFFFFFFFFFFFFFFFF AND EQ ISZERO PUSH2 0x736 JUMPI PUSH2 0x72F PUSH2 0x61B DUP6 PUSH20 0xFFFFFFFFFFFFFFFFFFFFFFFFFFFFFFFFFFFFFFFF AND PUSH4 0xDFE1681 PUSH1 0x40 MLOAD DUP2 PUSH4 0xFFFFFFFF AND PUSH1 0xE0 SHL DUP2 MSTORE PUSH1 0x4 ADD PUSH1 0x20 PUSH1 0x40 MLOAD DUP1 DUP4 SUB DUP2 DUP7 DUP1 EXTCODESIZE ISZERO DUP1 ISZERO PUSH2 0x5DE JUMPI PUSH1 0x0 DUP1 REVERT JUMPDEST POP GAS STATICCALL ISZERO DUP1 ISZERO PUSH2 0x5F2 JUMPI RETURNDATASIZE PUSH1 0x0 DUP1 RETURNDATACOPY RETURNDATASIZE PUSH1 0x0 REVERT JUMPDEST POP POP POP POP PUSH1 0x40 MLOAD RETURNDATASIZE PUSH1 0x1F NOT PUSH1 0x1F DUP3 ADD AND DUP3 ADD DUP1 PUSH1 0x40 MSTORE POP DUP2 ADD SWAP1 PUSH2 0x616 SWAP2 SWAP1 PUSH2 0x1B77 JUMP JUMPDEST PUSH2 0xDBE JUMP JUMPDEST DUP6 PUSH20 0xFFFFFFFFFFFFFFFFFFFFFFFFFFFFFFFFFFFFFFFF AND PUSH4 0xDFE1681 PUSH1 0x40 MLOAD DUP2 PUSH4 0xFFFFFFFF AND PUSH1 0xE0 SHL DUP2 MSTORE PUSH1 0x4 ADD PUSH1 0x20 PUSH1 0x40 MLOAD DUP1 DUP4 SUB DUP2 DUP7 DUP1 EXTCODESIZE ISZERO DUP1 ISZERO PUSH2 0x661 JUMPI PUSH1 0x0 DUP1 REVERT JUMPDEST POP GAS STATICCALL ISZERO DUP1 ISZERO PUSH2 0x675 JUMPI RETURNDATASIZE PUSH1 0x0 DUP1 RETURNDATACOPY RETURNDATASIZE PUSH1 0x0 REVERT JUMPDEST POP POP POP POP PUSH1 0x40 MLOAD RETURNDATASIZE PUSH1 0x1F NOT PUSH1 0x1F DUP3 ADD AND DUP3 ADD DUP1 PUSH1 0x40 MSTORE POP DUP2 ADD SWAP1 PUSH2 0x699 SWAP2 SWAP1 PUSH2 0x1B77 JUMP JUMPDEST PUSH20 0xFFFFFFFFFFFFFFFFFFFFFFFFFFFFFFFFFFFFFFFF AND PUSH4 0x70A08231 DUP8 PUSH1 0x40 MLOAD DUP3 PUSH4 0xFFFFFFFF AND PUSH1 0xE0 SHL DUP2 MSTORE PUSH1 0x4 ADD PUSH2 0x6D1 SWAP2 SWAP1 PUSH2 0x1E36 JUMP JUMPDEST PUSH1 0x20 PUSH1 0x40 MLOAD DUP1 DUP4 SUB DUP2 DUP7 DUP1 EXTCODESIZE ISZERO DUP1 ISZERO PUSH2 0x6E9 JUMPI PUSH1 0x0 DUP1 REVERT JUMPDEST POP GAS STATICCALL ISZERO DUP1 ISZERO PUSH2 0x6FD JUMPI RETURNDATASIZE PUSH1 0x0 DUP1 RETURNDATACOPY RETURNDATASIZE PUSH1 0x0 REVERT JUMPDEST POP POP POP POP PUSH1 0x40 MLOAD RETURNDATASIZE PUSH1 0x1F NOT PUSH1 0x1F DUP3 ADD AND DUP3 ADD DUP1 PUSH1 0x40 MSTORE POP DUP2 ADD SWAP1 PUSH2 0x721 SWAP2 SWAP1 PUSH2 0x1C2B JUMP JUMPDEST PUSH2 0x1687 SWAP1 SWAP2 SWAP1 PUSH4 0xFFFFFFFF AND JUMP JUMPDEST SWAP2 POP PUSH2 0x8D6 JUMP JUMPDEST PUSH2 0x8D3 PUSH2 0x7BF DUP6 PUSH20 0xFFFFFFFFFFFFFFFFFFFFFFFFFFFFFFFFFFFFFFFF AND PUSH4 0xDFE1681 PUSH1 0x40 MLOAD DUP2 PUSH4 0xFFFFFFFF AND PUSH1 0xE0 SHL DUP2 MSTORE PUSH1 0x4 ADD PUSH1 0x20 PUSH1 0x40 MLOAD DUP1 DUP4 SUB DUP2 DUP7 DUP1 EXTCODESIZE ISZERO DUP1 ISZERO PUSH2 0x782 JUMPI PUSH1 0x0 DUP1 REVERT JUMPDEST POP GAS STATICCALL ISZERO DUP1 ISZERO PUSH2 0x796 JUMPI RETURNDATASIZE PUSH1 0x0 DUP1 RETURNDATACOPY RETURNDATASIZE PUSH1 0x0 REVERT JUMPDEST POP POP POP POP PUSH1 0x40 MLOAD RETURNDATASIZE PUSH1 0x1F NOT PUSH1 0x1F DUP3 ADD AND DUP3 ADD DUP1 PUSH1 0x40 MSTORE POP DUP2 ADD SWAP1 PUSH2 0x7BA SWAP2 SWAP1 PUSH2 0x1B77 JUMP JUMPDEST PUSH2 0x263 JUMP JUMPDEST DUP6 PUSH20 0xFFFFFFFFFFFFFFFFFFFFFFFFFFFFFFFFFFFFFFFF AND PUSH4 0xDFE1681 PUSH1 0x40 MLOAD DUP2 PUSH4 0xFFFFFFFF AND PUSH1 0xE0 SHL DUP2 MSTORE PUSH1 0x4 ADD PUSH1 0x20 PUSH1 0x40 MLOAD DUP1 DUP4 SUB DUP2 DUP7 DUP1 EXTCODESIZE ISZERO DUP1 ISZERO PUSH2 0x805 JUMPI PUSH1 0x0 DUP1 REVERT JUMPDEST POP GAS STATICCALL ISZERO DUP1 ISZERO PUSH2 0x819 JUMPI RETURNDATASIZE PUSH1 0x0 DUP1 RETURNDATACOPY RETURNDATASIZE PUSH1 0x0 REVERT JUMPDEST POP POP POP POP PUSH1 0x40 MLOAD RETURNDATASIZE PUSH1 0x1F NOT PUSH1 0x1F DUP3 ADD AND DUP3 ADD DUP1 PUSH1 0x40 MSTORE POP DUP2 ADD SWAP1 PUSH2 0x83D SWAP2 SWAP1 PUSH2 0x1B77 JUMP JUMPDEST PUSH20 0xFFFFFFFFFFFFFFFFFFFFFFFFFFFFFFFFFFFFFFFF AND PUSH4 0x70A08231 DUP8 PUSH1 0x40 MLOAD DUP3 PUSH4 0xFFFFFFFF AND PUSH1 0xE0 SHL DUP2 MSTORE PUSH1 0x4 ADD PUSH2 0x875 SWAP2 SWAP1 PUSH2 0x1E36 JUMP JUMPDEST PUSH1 0x20 PUSH1 0x40 MLOAD DUP1 DUP4 SUB DUP2 DUP7 DUP1 EXTCODESIZE ISZERO DUP1 ISZERO PUSH2 0x88D JUMPI PUSH1 0x0 DUP1 REVERT JUMPDEST POP GAS STATICCALL ISZERO DUP1 ISZERO PUSH2 0x8A1 JUMPI RETURNDATASIZE PUSH1 0x0 DUP1 RETURNDATACOPY RETURNDATASIZE PUSH1 0x0 REVERT JUMPDEST POP POP POP POP PUSH1 0x40 MLOAD RETURNDATASIZE PUSH1 0x1F NOT PUSH1 0x1F DUP3 ADD AND DUP3 ADD DUP1 PUSH1 0x40 MSTORE POP DUP2 ADD SWAP1 PUSH2 0x8C5 SWAP2 SWAP1 PUSH2 0x1C2B JUMP JUMPDEST PUSH2 0x1687 SWAP1 SWAP2 SWAP1 PUSH4 0xFFFFFFFF AND JUMP JUMPDEST SWAP2 POP JUMPDEST DUP4 PUSH20 0xFFFFFFFFFFFFFFFFFFFFFFFFFFFFFFFFFFFFFFFF AND PUSH4 0xD21220A7 PUSH1 0x40 MLOAD DUP2 PUSH4 0xFFFFFFFF AND PUSH1 0xE0 SHL DUP2 MSTORE PUSH1 0x4 ADD PUSH1 0x20 PUSH1 0x40 MLOAD DUP1 DUP4 SUB DUP2 DUP7 DUP1 EXTCODESIZE ISZERO DUP1 ISZERO PUSH2 0x91C JUMPI PUSH1 0x0 DUP1 REVERT JUMPDEST POP GAS STATICCALL ISZERO DUP1 ISZERO PUSH2 0x930 JUMPI RETURNDATASIZE PUSH1 0x0 DUP1 RETURNDATACOPY RETURNDATASIZE PUSH1 0x0 REVERT JUMPDEST POP POP POP POP PUSH1 0x40 MLOAD RETURNDATASIZE PUSH1 0x1F NOT PUSH1 0x1F DUP3 ADD AND DUP3 ADD DUP1 PUSH1 0x40 MSTORE POP DUP2 ADD SWAP1 PUSH2 0x954 SWAP2 SWAP1 PUSH2 0x1B77 JUMP JUMPDEST PUSH20 0xFFFFFFFFFFFFFFFFFFFFFFFFFFFFFFFFFFFFFFFF AND PUSH1 0x1 PUSH1 0x0 SWAP1 SLOAD SWAP1 PUSH2 0x100 EXP SWAP1 DIV PUSH20 0xFFFFFFFFFFFFFFFFFFFFFFFFFFFFFFFFFFFFFFFF AND PUSH20 0xFFFFFFFFFFFFFFFFFFFFFFFFFFFFFFFFFFFFFFFF AND EQ ISZERO PUSH2 0xB4D JUMPI PUSH2 0xB46 PUSH2 0xA32 DUP6 PUSH20 0xFFFFFFFFFFFFFFFFFFFFFFFFFFFFFFFFFFFFFFFF AND PUSH4 0xD21220A7 PUSH1 0x40 MLOAD DUP2 PUSH4 0xFFFFFFFF AND PUSH1 0xE0 SHL DUP2 MSTORE PUSH1 0x4 ADD PUSH1 0x20 PUSH1 0x40 MLOAD DUP1 DUP4 SUB DUP2 DUP7 DUP1 EXTCODESIZE ISZERO DUP1 ISZERO PUSH2 0x9F5 JUMPI PUSH1 0x0 DUP1 REVERT JUMPDEST POP GAS STATICCALL ISZERO DUP1 ISZERO PUSH2 0xA09 JUMPI RETURNDATASIZE PUSH1 0x0 DUP1 RETURNDATACOPY RETURNDATASIZE PUSH1 0x0 REVERT JUMPDEST POP POP POP POP PUSH1 0x40 MLOAD RETURNDATASIZE PUSH1 0x1F NOT PUSH1 0x1F DUP3 ADD AND DUP3 ADD DUP1 PUSH1 0x40 MSTORE POP DUP2 ADD SWAP1 PUSH2 0xA2D SWAP2 SWAP1 PUSH2 0x1B77 JUMP JUMPDEST PUSH2 0xDBE JUMP JUMPDEST DUP6 PUSH20 0xFFFFFFFFFFFFFFFFFFFFFFFFFFFFFFFFFFFFFFFF AND PUSH4 0xD21220A7 PUSH1 0x40 MLOAD DUP2 PUSH4 0xFFFFFFFF AND PUSH1 0xE0 SHL DUP2 MSTORE PUSH1 0x4 ADD PUSH1 0x20 PUSH1 0x40 MLOAD DUP1 DUP4 SUB DUP2 DUP7 DUP1 EXTCODESIZE ISZERO DUP1 ISZERO PUSH2 0xA78 JUMPI PUSH1 0x0 DUP1 REVERT JUMPDEST POP GAS STATICCALL ISZERO DUP1 ISZERO PUSH2 0xA8C JUMPI RETURNDATASIZE PUSH1 0x0 DUP1 RETURNDATACOPY RETURNDATASIZE PUSH1 0x0 REVERT JUMPDEST POP POP POP POP PUSH1 0x40 MLOAD RETURNDATASIZE PUSH1 0x1F NOT PUSH1 0x1F DUP3 ADD AND DUP3 ADD DUP1 PUSH1 0x40 MSTORE POP DUP2 ADD SWAP1 PUSH2 0xAB0 SWAP2 SWAP1 PUSH2 0x1B77 JUMP JUMPDEST PUSH20 0xFFFFFFFFFFFFFFFFFFFFFFFFFFFFFFFFFFFFFFFF AND PUSH4 0x70A08231 DUP8 PUSH1 0x40 MLOAD DUP3 PUSH4 0xFFFFFFFF AND PUSH1 0xE0 SHL DUP2 MSTORE PUSH1 0x4 ADD PUSH2 0xAE8 SWAP2 SWAP1 PUSH2 0x1E36 JUMP JUMPDEST PUSH1 0x20 PUSH1 0x40 MLOAD DUP1 DUP4 SUB DUP2 DUP7 DUP1 EXTCODESIZE ISZERO DUP1 ISZERO PUSH2 0xB00 JUMPI PUSH1 0x0 DUP1 REVERT JUMPDEST POP GAS STATICCALL ISZERO DUP1 ISZERO PUSH2 0xB14 JUMPI RETURNDATASIZE PUSH1 0x0 DUP1 RETURNDATACOPY RETURNDATASIZE PUSH1 0x0 REVERT JUMPDEST POP POP POP POP PUSH1 0x40 MLOAD RETURNDATASIZE PUSH1 0x1F NOT PUSH1 0x1F DUP3 ADD AND DUP3 ADD DUP1 PUSH1 0x40 MSTORE POP DUP2 ADD SWAP1 PUSH2 0xB38 SWAP2 SWAP1 PUSH2 0x1C2B JUMP JUMPDEST PUSH2 0x1687 SWAP1 SWAP2 SWAP1 PUSH4 0xFFFFFFFF AND JUMP JUMPDEST SWAP1 POP PUSH2 0xCED JUMP JUMPDEST PUSH2 0xCEA PUSH2 0xBD6 DUP6 PUSH20 0xFFFFFFFFFFFFFFFFFFFFFFFFFFFFFFFFFFFFFFFF AND PUSH4 0xD21220A7 PUSH1 0x40 MLOAD DUP2 PUSH4 0xFFFFFFFF AND PUSH1 0xE0 SHL DUP2 MSTORE PUSH1 0x4 ADD PUSH1 0x20 PUSH1 0x40 MLOAD DUP1 DUP4 SUB DUP2 DUP7 DUP1 EXTCODESIZE ISZERO DUP1 ISZERO PUSH2 0xB99 JUMPI PUSH1 0x0 DUP1 REVERT JUMPDEST POP GAS STATICCALL ISZERO DUP1 ISZERO PUSH2 0xBAD JUMPI RETURNDATASIZE PUSH1 0x0 DUP1 RETURNDATACOPY RETURNDATASIZE PUSH1 0x0 REVERT JUMPDEST POP POP POP POP PUSH1 0x40 MLOAD RETURNDATASIZE PUSH1 0x1F NOT PUSH1 0x1F DUP3 ADD AND DUP3 ADD DUP1 PUSH1 0x40 MSTORE POP DUP2 ADD SWAP1 PUSH2 0xBD1 SWAP2 SWAP1 PUSH2 0x1B77 JUMP JUMPDEST PUSH2 0x263 JUMP JUMPDEST DUP6 PUSH20 0xFFFFFFFFFFFFFFFFFFFFFFFFFFFFFFFFFFFFFFFF AND PUSH4 0xD21220A7 PUSH1 0x40 MLOAD DUP2 PUSH4 0xFFFFFFFF AND PUSH1 0xE0 SHL DUP2 MSTORE PUSH1 0x4 ADD PUSH1 0x20 PUSH1 0x40 MLOAD DUP1 DUP4 SUB DUP2 DUP7 DUP1 EXTCODESIZE ISZERO DUP1 ISZERO PUSH2 0xC1C JUMPI PUSH1 0x0 DUP1 REVERT JUMPDEST POP GAS STATICCALL ISZERO DUP1 ISZERO PUSH2 0xC30 JUMPI RETURNDATASIZE PUSH1 0x0 DUP1 RETURNDATACOPY RETURNDATASIZE PUSH1 0x0 REVERT JUMPDEST POP POP POP POP PUSH1 0x40 MLOAD RETURNDATASIZE PUSH1 0x1F NOT PUSH1 0x1F DUP3 ADD AND DUP3 ADD DUP1 PUSH1 0x40 MSTORE POP DUP2 ADD SWAP1 PUSH2 0xC54 SWAP2 SWAP1 PUSH2 0x1B77 JUMP JUMPDEST PUSH20 0xFFFFFFFFFFFFFFFFFFFFFFFFFFFFFFFFFFFFFFFF AND PUSH4 0x70A08231 DUP8 PUSH1 0x40 MLOAD DUP3 PUSH4 0xFFFFFFFF AND PUSH1 0xE0 SHL DUP2 MSTORE PUSH1 0x4 ADD PUSH2 0xC8C SWAP2 SWAP1 PUSH2 0x1E36 JUMP JUMPDEST PUSH1 0x20 PUSH1 0x40 MLOAD DUP1 DUP4 SUB DUP2 DUP7 DUP1 EXTCODESIZE ISZERO DUP1 ISZERO PUSH2 0xCA4 JUMPI PUSH1 0x0 DUP1 REVERT JUMPDEST POP GAS STATICCALL ISZERO DUP1 ISZERO PUSH2 0xCB8 JUMPI RETURNDATASIZE PUSH1 0x0 DUP1 RETURNDATACOPY RETURNDATASIZE PUSH1 0x0 REVERT JUMPDEST POP POP POP POP PUSH1 0x40 MLOAD RETURNDATASIZE PUSH1 0x1F NOT PUSH1 0x1F DUP3 ADD AND DUP3 ADD DUP1 PUSH1 0x40 MSTORE POP DUP2 ADD SWAP1 PUSH2 0xCDC SWAP2 SWAP1 PUSH2 0x1C2B JUMP JUMPDEST PUSH2 0x1687 SWAP1 SWAP2 SWAP1 PUSH4 0xFFFFFFFF AND JUMP JUMPDEST SWAP1 POP JUMPDEST PUSH2 0xD8F DUP5 PUSH20 0xFFFFFFFFFFFFFFFFFFFFFFFFFFFFFFFFFFFFFFFF AND PUSH4 0x18160DDD PUSH1 0x40 MLOAD DUP2 PUSH4 0xFFFFFFFF AND PUSH1 0xE0 SHL DUP2 MSTORE PUSH1 0x4 ADD PUSH1 0x20 PUSH1 0x40 MLOAD DUP1 DUP4 SUB DUP2 DUP7 DUP1 EXTCODESIZE ISZERO DUP1 ISZERO PUSH2 0xD36 JUMPI PUSH1 0x0 DUP1 REVERT JUMPDEST POP GAS STATICCALL ISZERO DUP1 ISZERO PUSH2 0xD4A JUMPI RETURNDATASIZE PUSH1 0x0 DUP1 RETURNDATACOPY RETURNDATASIZE PUSH1 0x0 REVERT JUMPDEST POP POP POP POP PUSH1 0x40 MLOAD RETURNDATASIZE PUSH1 0x1F NOT PUSH1 0x1F DUP3 ADD AND DUP3 ADD DUP1 PUSH1 0x40 MSTORE POP DUP2 ADD SWAP1 PUSH2 0xD6E SWAP2 SWAP1 PUSH2 0x1C2B JUMP JUMPDEST PUSH2 0xD81 DUP4 DUP6 PUSH2 0x1702 SWAP1 SWAP2 SWAP1 PUSH4 0xFFFFFFFF AND JUMP JUMPDEST PUSH2 0x1760 SWAP1 SWAP2 SWAP1 PUSH4 0xFFFFFFFF AND JUMP JUMPDEST SWAP3 POP POP POP SWAP2 SWAP1 POP JUMP JUMPDEST PUSH1 0x4 PUSH1 0x0 SWAP1 SLOAD SWAP1 PUSH2 0x100 EXP SWAP1 DIV PUSH20 0xFFFFFFFFFFFFFFFFFFFFFFFFFFFFFFFFFFFFFFFF AND DUP2 JUMP JUMPDEST PUSH1 0x0 DUP1 PUSH1 0x2 PUSH8 0xFFFFFFFFFFFFFFFF DUP2 GT ISZERO PUSH2 0xDDC JUMPI PUSH2 0xDDB PUSH2 0x229D JUMP JUMPDEST JUMPDEST PUSH1 0x40 MLOAD SWAP1 DUP1 DUP3 MSTORE DUP1 PUSH1 0x20 MUL PUSH1 0x20 ADD DUP3 ADD PUSH1 0x40 MSTORE DUP1 ISZERO PUSH2 0xE0A JUMPI DUP2 PUSH1 0x20 ADD PUSH1 0x20 DUP3 MUL DUP1 CALLDATASIZE DUP4 CALLDATACOPY DUP1 DUP3 ADD SWAP2 POP POP SWAP1 POP JUMPDEST POP SWAP1 POP DUP3 DUP2 PUSH1 0x0 DUP2 MLOAD DUP2 LT PUSH2 0xE22 JUMPI PUSH2 0xE21 PUSH2 0x226E JUMP JUMPDEST JUMPDEST PUSH1 0x20 MUL PUSH1 0x20 ADD ADD SWAP1 PUSH20 0xFFFFFFFFFFFFFFFFFFFFFFFFFFFFFFFFFFFFFFFF AND SWAP1 DUP2 PUSH20 0xFFFFFFFFFFFFFFFFFFFFFFFFFFFFFFFFFFFFFFFF AND DUP2 MSTORE POP POP PUSH1 0x2 PUSH1 0x0 SWAP1 SLOAD SWAP1 PUSH2 0x100 EXP SWAP1 DIV PUSH20 0xFFFFFFFFFFFFFFFFFFFFFFFFFFFFFFFFFFFFFFFF AND DUP2 PUSH1 0x1 DUP2 MLOAD DUP2 LT PUSH2 0xE93 JUMPI PUSH2 0xE92 PUSH2 0x226E JUMP JUMPDEST JUMPDEST PUSH1 0x20 MUL PUSH1 0x20 ADD ADD SWAP1 PUSH20 0xFFFFFFFFFFFFFFFFFFFFFFFFFFFFFFFFFFFFFFFF AND SWAP1 DUP2 PUSH20 0xFFFFFFFFFFFFFFFFFFFFFFFFFFFFFFFFFFFFFFFF AND DUP2 MSTORE POP POP PUSH1 0x4 PUSH1 0x0 SWAP1 SLOAD SWAP1 PUSH2 0x100 EXP SWAP1 DIV PUSH20 0xFFFFFFFFFFFFFFFFFFFFFFFFFFFFFFFFFFFFFFFF AND PUSH20 0xFFFFFFFFFFFFFFFFFFFFFFFFFFFFFFFFFFFFFFFF AND PUSH4 0xD06CA61F PUSH1 0x3 SLOAD DUP4 PUSH1 0x40 MLOAD DUP4 PUSH4 0xFFFFFFFF AND PUSH1 0xE0 SHL DUP2 MSTORE PUSH1 0x4 ADD PUSH2 0xF2C SWAP3 SWAP2 SWAP1 PUSH2 0x1F29 JUMP JUMPDEST PUSH1 0x0 PUSH1 0x40 MLOAD DUP1 DUP4 SUB DUP2 DUP7 DUP1 EXTCODESIZE ISZERO DUP1 ISZERO PUSH2 0xF44 JUMPI PUSH1 0x0 DUP1 REVERT JUMPDEST POP GAS STATICCALL ISZERO DUP1 ISZERO PUSH2 0xF58 JUMPI RETURNDATASIZE PUSH1 0x0 DUP1 RETURNDATACOPY RETURNDATASIZE PUSH1 0x0 REVERT JUMPDEST POP POP POP POP PUSH1 0x40 MLOAD RETURNDATASIZE PUSH1 0x0 DUP3 RETURNDATACOPY RETURNDATASIZE PUSH1 0x1F NOT PUSH1 0x1F DUP3 ADD AND DUP3 ADD DUP1 PUSH1 0x40 MSTORE POP DUP2 ADD SWAP1 PUSH2 0xF81 SWAP2 SWAP1 PUSH2 0x1B2E JUMP JUMPDEST PUSH1 0x1 DUP2 MLOAD DUP2 LT PUSH2 0xF94 JUMPI PUSH2 0xF93 PUSH2 0x226E JUMP JUMPDEST JUMPDEST PUSH1 0x20 MUL PUSH1 0x20 ADD ADD MLOAD SWAP2 POP POP SWAP2 SWAP1 POP JUMP JUMPDEST PUSH1 0x2 PUSH1 0x0 SWAP1 SLOAD SWAP1 PUSH2 0x100 EXP SWAP1 DIV PUSH20 0xFFFFFFFFFFFFFFFFFFFFFFFFFFFFFFFFFFFFFFFF AND DUP2 JUMP JUMPDEST PUSH2 0xFD2 PUSH2 0x17AA JUMP JUMPDEST PUSH20 0xFFFFFFFFFFFFFFFFFFFFFFFFFFFFFFFFFFFFFFFF AND PUSH2 0xFF0 PUSH2 0x1052 JUMP JUMPDEST PUSH20 0xFFFFFFFFFFFFFFFFFFFFFFFFFFFFFFFFFFFFFFFF AND EQ PUSH2 0x1046 JUMPI PUSH1 0x40 MLOAD PUSH32 0x8C379A000000000000000000000000000000000000000000000000000000000 DUP2 MSTORE PUSH1 0x4 ADD PUSH2 0x103D SWAP1 PUSH2 0x1EEE JUMP JUMPDEST PUSH1 0x40 MLOAD DUP1 SWAP2 SUB SWAP1 REVERT JUMPDEST PUSH2 0x1050 PUSH1 0x0 PUSH2 0x17B2 JUMP JUMPDEST JUMP JUMPDEST PUSH1 0x0 DUP1 PUSH1 0x0 SWAP1 SLOAD SWAP1 PUSH2 0x100 EXP SWAP1 DIV PUSH20 0xFFFFFFFFFFFFFFFFFFFFFFFFFFFFFFFFFFFFFFFF AND SWAP1 POP SWAP1 JUMP JUMPDEST PUSH1 0x1 PUSH1 0x0 SWAP1 SLOAD SWAP1 PUSH2 0x100 EXP SWAP1 DIV PUSH20 0xFFFFFFFFFFFFFFFFFFFFFFFFFFFFFFFFFFFFFFFF AND DUP2 JUMP JUMPDEST PUSH2 0x10A9 PUSH2 0x17AA JUMP JUMPDEST PUSH20 0xFFFFFFFFFFFFFFFFFFFFFFFFFFFFFFFFFFFFFFFF AND PUSH2 0x10C7 PUSH2 0x1052 JUMP JUMPDEST PUSH20 0xFFFFFFFFFFFFFFFFFFFFFFFFFFFFFFFFFFFFFFFF AND EQ PUSH2 0x111D JUMPI PUSH1 0x40 MLOAD PUSH32 0x8C379A000000000000000000000000000000000000000000000000000000000 DUP2 MSTORE PUSH1 0x4 ADD PUSH2 0x1114 SWAP1 PUSH2 0x1EEE JUMP JUMPDEST PUSH1 0x40 MLOAD DUP1 SWAP2 SUB SWAP1 REVERT JUMPDEST DUP1 PUSH1 0x4 PUSH1 0x0 PUSH2 0x100 EXP DUP2 SLOAD DUP2 PUSH20 0xFFFFFFFFFFFFFFFFFFFFFFFFFFFFFFFFFFFFFFFF MUL NOT AND SWAP1 DUP4 PUSH20 0xFFFFFFFFFFFFFFFFFFFFFFFFFFFFFFFFFFFFFFFF AND MUL OR SWAP1 SSTORE POP POP JUMP JUMPDEST PUSH1 0x0 DUP1 DUP3 PUSH20 0xFFFFFFFFFFFFFFFFFFFFFFFFFFFFFFFFFFFFFFFF AND PUSH4 0x6A6D964E DUP8 PUSH1 0x40 MLOAD DUP3 PUSH4 0xFFFFFFFF AND PUSH1 0xE0 SHL DUP2 MSTORE PUSH1 0x4 ADD PUSH2 0x119D SWAP2 SWAP1 PUSH2 0x1F0E JUMP JUMPDEST PUSH1 0x20 PUSH1 0x40 MLOAD DUP1 DUP4 SUB DUP2 DUP7 DUP1 EXTCODESIZE ISZERO DUP1 ISZERO PUSH2 0x11B5 JUMPI PUSH1 0x0 DUP1 REVERT JUMPDEST POP GAS STATICCALL ISZERO DUP1 ISZERO PUSH2 0x11C9 JUMPI RETURNDATASIZE PUSH1 0x0 DUP1 RETURNDATACOPY RETURNDATASIZE PUSH1 0x0 REVERT JUMPDEST POP POP POP POP PUSH1 0x40 MLOAD RETURNDATASIZE PUSH1 0x1F NOT PUSH1 0x1F DUP3 ADD AND DUP3 ADD DUP1 PUSH1 0x40 MSTORE POP DUP2 ADD SWAP1 PUSH2 0x11ED SWAP2 SWAP1 PUSH2 0x1C2B JUMP JUMPDEST SWAP1 POP PUSH1 0x0 DUP1 DUP6 EQ ISZERO PUSH2 0x1209 JUMPI PUSH2 0x1202 DUP7 PUSH2 0x4BA JUMP JUMPDEST SWAP1 POP PUSH2 0x1286 JUMP JUMPDEST PUSH1 0x1 DUP6 EQ ISZERO PUSH2 0x1285 JUMPI DUP6 PUSH20 0xFFFFFFFFFFFFFFFFFFFFFFFFFFFFFFFFFFFFFFFF AND PUSH1 0x1 PUSH1 0x0 SWAP1 SLOAD SWAP1 PUSH2 0x100 EXP SWAP1 DIV PUSH20 0xFFFFFFFFFFFFFFFFFFFFFFFFFFFFFFFFFFFFFFFF AND PUSH20 0xFFFFFFFFFFFFFFFFFFFFFFFFFFFFFFFFFFFFFFFF AND EQ ISZERO PUSH2 0x1278 JUMPI PUSH2 0x1271 DUP7 PUSH2 0x263 JUMP JUMPDEST SWAP1 POP PUSH2 0x1284 JUMP JUMPDEST PUSH2 0x1281 DUP7 PUSH2 0xDBE JUMP JUMPDEST SWAP1 POP JUMPDEST JUMPDEST JUMPDEST PUSH2 0x12A6 PUSH1 0x3 SLOAD DUP3 DUP5 PUSH2 0x1298 SWAP2 SWAP1 PUSH2 0x2086 JUMP JUMPDEST PUSH2 0x1760 SWAP1 SWAP2 SWAP1 PUSH4 0xFFFFFFFF AND JUMP JUMPDEST SWAP3 POP POP POP SWAP5 SWAP4 POP POP POP POP JUMP JUMPDEST PUSH1 0x0 DUP1 DUP3 PUSH20 0xFFFFFFFFFFFFFFFFFFFFFFFFFFFFFFFFFFFFFFFF AND PUSH4 0x1526FE27 DUP8 PUSH1 0x40 MLOAD DUP3 PUSH4 0xFFFFFFFF AND PUSH1 0xE0 SHL DUP2 MSTORE PUSH1 0x4 ADD PUSH2 0x12EE SWAP2 SWAP1 PUSH2 0x1F0E JUMP JUMPDEST PUSH1 0xC0 PUSH1 0x40 MLOAD DUP1 DUP4 SUB DUP2 DUP7 DUP1 EXTCODESIZE ISZERO DUP1 ISZERO PUSH2 0x1306 JUMPI PUSH1 0x0 DUP1 REVERT JUMPDEST POP GAS STATICCALL ISZERO DUP1 ISZERO PUSH2 0x131A JUMPI RETURNDATASIZE PUSH1 0x0 DUP1 RETURNDATACOPY RETURNDATASIZE PUSH1 0x0 REVERT JUMPDEST POP POP POP POP PUSH1 0x40 MLOAD RETURNDATASIZE PUSH1 0x1F NOT PUSH1 0x1F DUP3 ADD AND DUP3 ADD DUP1 PUSH1 0x40 MSTORE POP DUP2 ADD SWAP1 PUSH2 0x133E SWAP2 SWAP1 PUSH2 0x1BFE JUMP JUMPDEST SWAP1 POP PUSH1 0x0 PUSH2 0x13EA DUP5 PUSH20 0xFFFFFFFFFFFFFFFFFFFFFFFFFFFFFFFFFFFFFFFF AND PUSH4 0x17CAF6F1 PUSH1 0x40 MLOAD DUP2 PUSH4 0xFFFFFFFF AND PUSH1 0xE0 SHL DUP2 MSTORE PUSH1 0x4 ADD PUSH1 0x20 PUSH1 0x40 MLOAD DUP1 DUP4 SUB DUP2 DUP7 DUP1 EXTCODESIZE ISZERO DUP1 ISZERO PUSH2 0x138B JUMPI PUSH1 0x0 DUP1 REVERT JUMPDEST POP GAS STATICCALL ISZERO DUP1 ISZERO PUSH2 0x139F JUMPI RETURNDATASIZE PUSH1 0x0 DUP1 RETURNDATACOPY RETURNDATASIZE PUSH1 0x0 REVERT JUMPDEST POP POP POP POP PUSH1 0x40 MLOAD RETURNDATASIZE PUSH1 0x1F NOT PUSH1 0x1F DUP3 ADD AND DUP3 ADD DUP1 PUSH1 0x40 MSTORE POP DUP2 ADD SWAP1 PUSH2 0x13C3 SWAP2 SWAP1 PUSH2 0x1C2B JUMP JUMPDEST PUSH2 0x13DC PUSH1 0x3 SLOAD DUP6 PUSH1 0x20 ADD MLOAD PUSH2 0x1687 SWAP1 SWAP2 SWAP1 PUSH4 0xFFFFFFFF AND JUMP JUMPDEST PUSH2 0x1760 SWAP1 SWAP2 SWAP1 PUSH4 0xFFFFFFFF AND JUMP JUMPDEST SWAP1 POP PUSH1 0x0 PUSH2 0x1474 DUP6 PUSH20 0xFFFFFFFFFFFFFFFFFFFFFFFFFFFFFFFFFFFFFFFF AND PUSH4 0x141AA0BA PUSH1 0x40 MLOAD DUP2 PUSH4 0xFFFFFFFF AND PUSH1 0xE0 SHL DUP2 MSTORE PUSH1 0x4 ADD PUSH1 0x20 PUSH1 0x40 MLOAD DUP1 DUP4 SUB DUP2 DUP7 DUP1 EXTCODESIZE ISZERO DUP1 ISZERO PUSH2 0x1437 JUMPI PUSH1 0x0 DUP1 REVERT JUMPDEST POP GAS STATICCALL ISZERO DUP1 ISZERO PUSH2 0x144B JUMPI RETURNDATASIZE PUSH1 0x0 DUP1 RETURNDATACOPY RETURNDATASIZE PUSH1 0x0 REVERT JUMPDEST POP POP POP POP PUSH1 0x40 MLOAD RETURNDATASIZE PUSH1 0x1F NOT PUSH1 0x1F DUP3 ADD AND DUP3 ADD DUP1 PUSH1 0x40 MSTORE POP DUP2 ADD SWAP1 PUSH2 0x146F SWAP2 SWAP1 PUSH2 0x1B01 JUMP JUMPDEST PUSH2 0x263 JUMP JUMPDEST SWAP1 POP PUSH1 0x0 PUSH2 0x150A DUP7 PUSH20 0xFFFFFFFFFFFFFFFFFFFFFFFFFFFFFFFFFFFFFFFF AND PUSH4 0xA1EEF821 PUSH1 0x40 MLOAD DUP2 PUSH4 0xFFFFFFFF AND PUSH1 0xE0 SHL DUP2 MSTORE PUSH1 0x4 ADD PUSH1 0x20 PUSH1 0x40 MLOAD DUP1 DUP4 SUB DUP2 DUP7 DUP1 EXTCODESIZE ISZERO DUP1 ISZERO PUSH2 0x14C1 JUMPI PUSH1 0x0 DUP1 REVERT JUMPDEST POP GAS STATICCALL ISZERO DUP1 ISZERO PUSH2 0x14D5 JUMPI RETURNDATASIZE PUSH1 0x0 DUP1 RETURNDATACOPY RETURNDATASIZE PUSH1 0x0 REVERT JUMPDEST POP POP POP POP PUSH1 0x40 MLOAD RETURNDATASIZE PUSH1 0x1F NOT PUSH1 0x1F DUP3 ADD AND DUP3 ADD DUP1 PUSH1 0x40 MSTORE POP DUP2 ADD SWAP1 PUSH2 0x14F9 SWAP2 SWAP1 PUSH2 0x1C2B JUMP JUMPDEST PUSH1 0x5 SLOAD PUSH2 0x1687 SWAP1 SWAP2 SWAP1 PUSH4 0xFFFFFFFF AND JUMP JUMPDEST SWAP1 POP PUSH1 0x0 PUSH2 0x1521 DUP5 DUP4 PUSH2 0x1687 SWAP1 SWAP2 SWAP1 PUSH4 0xFFFFFFFF AND JUMP JUMPDEST SWAP1 POP PUSH1 0x0 PUSH2 0x1531 DUP12 DUP12 DUP12 DUP12 PUSH2 0x1161 JUMP JUMPDEST SWAP1 POP PUSH2 0x157F PUSH1 0x64 PUSH2 0x1571 DUP4 PUSH2 0x1563 PUSH1 0x3 SLOAD PUSH2 0x1555 DUP11 DUP10 PUSH2 0x1687 SWAP1 SWAP2 SWAP1 PUSH4 0xFFFFFFFF AND JUMP JUMPDEST PUSH2 0x1760 SWAP1 SWAP2 SWAP1 PUSH4 0xFFFFFFFF AND JUMP JUMPDEST PUSH2 0x1760 SWAP1 SWAP2 SWAP1 PUSH4 0xFFFFFFFF AND JUMP JUMPDEST PUSH2 0x1687 SWAP1 SWAP2 SWAP1 PUSH4 0xFFFFFFFF AND JUMP JUMPDEST SWAP7 POP POP POP POP POP POP POP SWAP5 SWAP4 POP POP POP POP JUMP JUMPDEST PUSH2 0x1597 PUSH2 0x17AA JUMP JUMPDEST PUSH20 0xFFFFFFFFFFFFFFFFFFFFFFFFFFFFFFFFFFFFFFFF AND PUSH2 0x15B5 PUSH2 0x1052 JUMP JUMPDEST PUSH20 0xFFFFFFFFFFFFFFFFFFFFFFFFFFFFFFFFFFFFFFFF AND EQ PUSH2 0x160B JUMPI PUSH1 0x40 MLOAD PUSH32 0x8C379A000000000000000000000000000000000000000000000000000000000 DUP2 MSTORE PUSH1 0x4 ADD PUSH2 0x1602 SWAP1 PUSH2 0x1EEE JUMP JUMPDEST PUSH1 0x40 MLOAD DUP1 SWAP2 SUB SWAP1 REVERT JUMPDEST PUSH1 0x0 PUSH20 0xFFFFFFFFFFFFFFFFFFFFFFFFFFFFFFFFFFFFFFFF AND DUP2 PUSH20 0xFFFFFFFFFFFFFFFFFFFFFFFFFFFFFFFFFFFFFFFF AND EQ ISZERO PUSH2 0x167B JUMPI PUSH1 0x40 MLOAD PUSH32 0x8C379A000000000000000000000000000000000000000000000000000000000 DUP2 MSTORE PUSH1 0x4 ADD PUSH2 0x1672 SWAP1 PUSH2 0x1E8E JUMP JUMPDEST PUSH1 0x40 MLOAD DUP1 SWAP2 SUB SWAP1 REVERT JUMPDEST PUSH2 0x1684 DUP2 PUSH2 0x17B2 JUMP JUMPDEST POP JUMP JUMPDEST PUSH1 0x0 DUP1 DUP4 EQ ISZERO PUSH2 0x169A JUMPI PUSH1 0x0 SWAP1 POP PUSH2 0x16FC JUMP JUMPDEST PUSH1 0x0 DUP3 DUP5 PUSH2 0x16A8 SWAP2 SWAP1 PUSH2 0x2086 JUMP JUMPDEST SWAP1 POP DUP3 DUP5 DUP3 PUSH2 0x16B7 SWAP2 SWAP1 PUSH2 0x2055 JUMP JUMPDEST EQ PUSH2 0x16F7 JUMPI PUSH1 0x40 MLOAD PUSH32 0x8C379A000000000000000000000000000000000000000000000000000000000 DUP2 MSTORE PUSH1 0x4 ADD PUSH2 0x16EE SWAP1 PUSH2 0x1ECE JUMP JUMPDEST PUSH1 0x40 MLOAD DUP1 SWAP2 SUB SWAP1 REVERT JUMPDEST DUP1 SWAP2 POP POP JUMPDEST SWAP3 SWAP2 POP POP JUMP JUMPDEST PUSH1 0x0 DUP1 DUP3 DUP5 PUSH2 0x1711 SWAP2 SWAP1 PUSH2 0x1FFF JUMP JUMPDEST SWAP1 POP DUP4 DUP2 LT ISZERO PUSH2 0x1756 JUMPI PUSH1 0x40 MLOAD PUSH32 0x8C379A000000000000000000000000000000000000000000000000000000000 DUP2 MSTORE PUSH1 0x4 ADD PUSH2 0x174D SWAP1 PUSH2 0x1EAE JUMP JUMPDEST PUSH1 0x40 MLOAD DUP1 SWAP2 SUB SWAP1 REVERT JUMPDEST DUP1 SWAP2 POP POP SWAP3 SWAP2 POP POP JUMP JUMPDEST PUSH1 0x0 PUSH2 0x17A2 DUP4 DUP4 PUSH1 0x40 MLOAD DUP1 PUSH1 0x40 ADD PUSH1 0x40 MSTORE DUP1 PUSH1 0x1A DUP2 MSTORE PUSH1 0x20 ADD PUSH32 0x536166654D6174683A206469766973696F6E206279207A65726F000000000000 DUP2 MSTORE POP PUSH2 0x1876 JUMP JUMPDEST SWAP1 POP SWAP3 SWAP2 POP POP JUMP JUMPDEST PUSH1 0x0 CALLER SWAP1 POP SWAP1 JUMP JUMPDEST PUSH1 0x0 DUP1 PUSH1 0x0 SWAP1 SLOAD SWAP1 PUSH2 0x100 EXP SWAP1 DIV PUSH20 0xFFFFFFFFFFFFFFFFFFFFFFFFFFFFFFFFFFFFFFFF AND SWAP1 POP DUP2 PUSH1 0x0 DUP1 PUSH2 0x100 EXP DUP2 SLOAD DUP2 PUSH20 0xFFFFFFFFFFFFFFFFFFFFFFFFFFFFFFFFFFFFFFFF MUL NOT AND SWAP1 DUP4 PUSH20 0xFFFFFFFFFFFFFFFFFFFFFFFFFFFFFFFFFFFFFFFF AND MUL OR SWAP1 SSTORE POP DUP2 PUSH20 0xFFFFFFFFFFFFFFFFFFFFFFFFFFFFFFFFFFFFFFFF AND DUP2 PUSH20 0xFFFFFFFFFFFFFFFFFFFFFFFFFFFFFFFFFFFFFFFF AND PUSH32 0x8BE0079C531659141344CD1FD0A4F28419497F9722A3DAAFE3B4186F6B6457E0 PUSH1 0x40 MLOAD PUSH1 0x40 MLOAD DUP1 SWAP2 SUB SWAP1 LOG3 POP POP JUMP JUMPDEST PUSH1 0x0 DUP1 DUP4 GT DUP3 SWAP1 PUSH2 0x18BD JUMPI PUSH1 0x40 MLOAD PUSH32 0x8C379A000000000000000000000000000000000000000000000000000000000 DUP2 MSTORE PUSH1 0x4 ADD PUSH2 0x18B4 SWAP2 SWAP1 PUSH2 0x1E6C JUMP JUMPDEST PUSH1 0x40 MLOAD DUP1 SWAP2 SUB SWAP1 REVERT JUMPDEST POP PUSH1 0x0 DUP4 DUP6 PUSH2 0x18CC SWAP2 SWAP1 PUSH2 0x2055 JUMP JUMPDEST SWAP1 POP DUP1 SWAP2 POP POP SWAP4 SWAP3 POP POP POP JUMP JUMPDEST PUSH1 0x0 PUSH2 0x18EC PUSH2 0x18E7 DUP5 PUSH2 0x1F7E JUMP JUMPDEST PUSH2 0x1F59 JUMP JUMPDEST SWAP1 POP DUP1 DUP4 DUP3 MSTORE PUSH1 0x20 DUP3 ADD SWAP1 POP DUP3 DUP6 PUSH1 0x20 DUP7 MUL DUP3 ADD GT ISZERO PUSH2 0x190F JUMPI PUSH2 0x190E PUSH2 0x22D6 JUMP JUMPDEST JUMPDEST PUSH1 0x0 JUMPDEST DUP6 DUP2 LT ISZERO PUSH2 0x193F JUMPI DUP2 PUSH2 0x1925 DUP9 DUP3 PUSH2 0x1ABF JUMP JUMPDEST DUP5 MSTORE PUSH1 0x20 DUP5 ADD SWAP4 POP PUSH1 0x20 DUP4 ADD SWAP3 POP POP PUSH1 0x1 DUP2 ADD SWAP1 POP PUSH2 0x1912 JUMP JUMPDEST POP POP POP SWAP4 SWAP3 POP POP POP JUMP JUMPDEST PUSH1 0x0 DUP2 CALLDATALOAD SWAP1 POP PUSH2 0x1958 DUP2 PUSH2 0x23E6 JUMP JUMPDEST SWAP3 SWAP2 POP POP JUMP JUMPDEST PUSH1 0x0 DUP2 MLOAD SWAP1 POP PUSH2 0x196D DUP2 PUSH2 0x23E6 JUMP JUMPDEST SWAP3 SWAP2 POP POP JUMP JUMPDEST PUSH1 0x0 DUP3 PUSH1 0x1F DUP4 ADD SLT PUSH2 0x1988 JUMPI PUSH2 0x1987 PUSH2 0x22CC JUMP JUMPDEST JUMPDEST DUP2 MLOAD PUSH2 0x1998 DUP5 DUP3 PUSH1 0x20 DUP7 ADD PUSH2 0x18D9 JUMP JUMPDEST SWAP2 POP POP SWAP3 SWAP2 POP POP JUMP JUMPDEST PUSH1 0x0 DUP2 MLOAD SWAP1 POP PUSH2 0x19B0 DUP2 PUSH2 0x23FD JUMP JUMPDEST SWAP3 SWAP2 POP POP JUMP JUMPDEST PUSH1 0x0 DUP2 MLOAD SWAP1 POP PUSH2 0x19C5 DUP2 PUSH2 0x2414 JUMP JUMPDEST SWAP3 SWAP2 POP POP JUMP JUMPDEST PUSH1 0x0 DUP2 CALLDATALOAD SWAP1 POP PUSH2 0x19DA DUP2 PUSH2 0x242B JUMP JUMPDEST SWAP3 SWAP2 POP POP JUMP JUMPDEST PUSH1 0x0 DUP2 CALLDATALOAD SWAP1 POP PUSH2 0x19EF DUP2 PUSH2 0x2442 JUMP JUMPDEST SWAP3 SWAP2 POP POP JUMP JUMPDEST PUSH1 0x0 DUP2 CALLDATALOAD SWAP1 POP PUSH2 0x1A04 DUP2 PUSH2 0x2459 JUMP JUMPDEST SWAP3 SWAP2 POP POP JUMP JUMPDEST PUSH1 0x0 PUSH1 0xC0 DUP3 DUP5 SUB SLT ISZERO PUSH2 0x1A20 JUMPI PUSH2 0x1A1F PUSH2 0x22D1 JUMP JUMPDEST JUMPDEST PUSH2 0x1A2A PUSH1 0xC0 PUSH2 0x1F59 JUMP JUMPDEST SWAP1 POP PUSH1 0x0 PUSH2 0x1A3A DUP5 DUP3 DUP6 ADD PUSH2 0x19A1 JUMP JUMPDEST PUSH1 0x0 DUP4 ADD MSTORE POP PUSH1 0x20 PUSH2 0x1A4E DUP5 DUP3 DUP6 ADD PUSH2 0x1ABF JUMP JUMPDEST PUSH1 0x20 DUP4 ADD MSTORE POP PUSH1 0x40 PUSH2 0x1A62 DUP5 DUP3 DUP6 ADD PUSH2 0x1ABF JUMP JUMPDEST PUSH1 0x40 DUP4 ADD MSTORE POP PUSH1 0x60 PUSH2 0x1A76 DUP5 DUP3 DUP6 ADD PUSH2 0x1ABF JUMP JUMPDEST PUSH1 0x60 DUP4 ADD MSTORE POP PUSH1 0x80 PUSH2 0x1A8A DUP5 DUP3 DUP6 ADD PUSH2 0x19B6 JUMP JUMPDEST PUSH1 0x80 DUP4 ADD MSTORE POP PUSH1 0xA0 PUSH2 0x1A9E DUP5 DUP3 DUP6 ADD PUSH2 0x19A1 JUMP JUMPDEST PUSH1 0xA0 DUP4 ADD MSTORE POP SWAP3 SWAP2 POP POP JUMP JUMPDEST PUSH1 0x0 DUP2 CALLDATALOAD SWAP1 POP PUSH2 0x1AB9 DUP2 PUSH2 0x2470 JUMP JUMPDEST SWAP3 SWAP2 POP POP JUMP JUMPDEST PUSH1 0x0 DUP2 MLOAD SWAP1 POP PUSH2 0x1ACE DUP2 PUSH2 0x2470 JUMP JUMPDEST SWAP3 SWAP2 POP POP JUMP JUMPDEST PUSH1 0x0 PUSH1 0x20 DUP3 DUP5 SUB SLT ISZERO PUSH2 0x1AEA JUMPI PUSH2 0x1AE9 PUSH2 0x22E0 JUMP JUMPDEST JUMPDEST PUSH1 0x0 PUSH2 0x1AF8 DUP5 DUP3 DUP6 ADD PUSH2 0x1949 JUMP JUMPDEST SWAP2 POP POP SWAP3 SWAP2 POP POP JUMP JUMPDEST PUSH1 0x0 PUSH1 0x20 DUP3 DUP5 SUB SLT ISZERO PUSH2 0x1B17 JUMPI PUSH2 0x1B16 PUSH2 0x22E0 JUMP JUMPDEST JUMPDEST PUSH1 0x0 PUSH2 0x1B25 DUP5 DUP3 DUP6 ADD PUSH2 0x195E JUMP JUMPDEST SWAP2 POP POP SWAP3 SWAP2 POP POP JUMP JUMPDEST PUSH1 0x0 PUSH1 0x20 DUP3 DUP5 SUB SLT ISZERO PUSH2 0x1B44 JUMPI PUSH2 0x1B43 PUSH2 0x22E0 JUMP JUMPDEST JUMPDEST PUSH1 0x0 DUP3 ADD MLOAD PUSH8 0xFFFFFFFFFFFFFFFF DUP2 GT ISZERO PUSH2 0x1B62 JUMPI PUSH2 0x1B61 PUSH2 0x22DB JUMP JUMPDEST JUMPDEST PUSH2 0x1B6E DUP5 DUP3 DUP6 ADD PUSH2 0x1973 JUMP JUMPDEST SWAP2 POP POP SWAP3 SWAP2 POP POP JUMP JUMPDEST PUSH1 0x0 PUSH1 0x20 DUP3 DUP5 SUB SLT ISZERO PUSH2 0x1B8D JUMPI PUSH2 0x1B8C PUSH2 0x22E0 JUMP JUMPDEST JUMPDEST PUSH1 0x0 PUSH2 0x1B9B DUP5 DUP3 DUP6 ADD PUSH2 0x19A1 JUMP JUMPDEST SWAP2 POP POP SWAP3 SWAP2 POP POP JUMP JUMPDEST PUSH1 0x0 PUSH1 0x20 DUP3 DUP5 SUB SLT ISZERO PUSH2 0x1BBA JUMPI PUSH2 0x1BB9 PUSH2 0x22E0 JUMP JUMPDEST JUMPDEST PUSH1 0x0 PUSH2 0x1BC8 DUP5 DUP3 DUP6 ADD PUSH2 0x19CB JUMP JUMPDEST SWAP2 POP POP SWAP3 SWAP2 POP POP JUMP JUMPDEST PUSH1 0x0 PUSH1 0x20 DUP3 DUP5 SUB SLT ISZERO PUSH2 0x1BE7 JUMPI PUSH2 0x1BE6 PUSH2 0x22E0 JUMP JUMPDEST JUMPDEST PUSH1 0x0 PUSH2 0x1BF5 DUP5 DUP3 DUP6 ADD PUSH2 0x19F5 JUMP JUMPDEST SWAP2 POP POP SWAP3 SWAP2 POP POP JUMP JUMPDEST PUSH1 0x0 PUSH1 0xC0 DUP3 DUP5 SUB SLT ISZERO PUSH2 0x1C14 JUMPI PUSH2 0x1C13 PUSH2 0x22E0 JUMP JUMPDEST JUMPDEST PUSH1 0x0 PUSH2 0x1C22 DUP5 DUP3 DUP6 ADD PUSH2 0x1A0A JUMP JUMPDEST SWAP2 POP POP SWAP3 SWAP2 POP POP JUMP JUMPDEST PUSH1 0x0 PUSH1 0x20 DUP3 DUP5 SUB SLT ISZERO PUSH2 0x1C41 JUMPI PUSH2 0x1C40 PUSH2 0x22E0 JUMP JUMPDEST JUMPDEST PUSH1 0x0 PUSH2 0x1C4F DUP5 DUP3 DUP6 ADD PUSH2 0x1ABF JUMP JUMPDEST SWAP2 POP POP SWAP3 SWAP2 POP POP JUMP JUMPDEST PUSH1 0x0 DUP1 PUSH1 0x0 DUP1 PUSH1 0x80 DUP6 DUP8 SUB SLT ISZERO PUSH2 0x1C72 JUMPI PUSH2 0x1C71 PUSH2 0x22E0 JUMP JUMPDEST JUMPDEST PUSH1 0x0 PUSH2 0x1C80 DUP8 DUP3 DUP9 ADD PUSH2 0x1AAA JUMP JUMPDEST SWAP5 POP POP PUSH1 0x20 PUSH2 0x1C91 DUP8 DUP3 DUP9 ADD PUSH2 0x19CB JUMP JUMPDEST SWAP4 POP POP PUSH1 0x40 PUSH2 0x1CA2 DUP8 DUP3 DUP9 ADD PUSH2 0x1AAA JUMP JUMPDEST SWAP3 POP POP PUSH1 0x60 PUSH2 0x1CB3 DUP8 DUP3 DUP9 ADD PUSH2 0x19E0 JUMP JUMPDEST SWAP2 POP POP SWAP3 SWAP6 SWAP2 SWAP5 POP SWAP3 POP JUMP JUMPDEST PUSH1 0x0 PUSH2 0x1CCB DUP4 DUP4 PUSH2 0x1CD7 JUMP JUMPDEST PUSH1 0x20 DUP4 ADD SWAP1 POP SWAP3 SWAP2 POP POP JUMP JUMPDEST PUSH2 0x1CE0 DUP2 PUSH2 0x20E0 JUMP JUMPDEST DUP3 MSTORE POP POP JUMP JUMPDEST PUSH2 0x1CEF DUP2 PUSH2 0x20E0 JUMP JUMPDEST DUP3 MSTORE POP POP JUMP JUMPDEST PUSH1 0x0 PUSH2 0x1D00 DUP3 PUSH2 0x1FBA JUMP JUMPDEST PUSH2 0x1D0A DUP2 DUP6 PUSH2 0x1FDD JUMP JUMPDEST SWAP4 POP PUSH2 0x1D15 DUP4 PUSH2 0x1FAA JUMP JUMPDEST DUP1 PUSH1 0x0 JUMPDEST DUP4 DUP2 LT ISZERO PUSH2 0x1D46 JUMPI DUP2 MLOAD PUSH2 0x1D2D DUP9 DUP3 PUSH2 0x1CBF JUMP JUMPDEST SWAP8 POP PUSH2 0x1D38 DUP4 PUSH2 0x1FD0 JUMP JUMPDEST SWAP3 POP POP PUSH1 0x1 DUP2 ADD SWAP1 POP PUSH2 0x1D19 JUMP JUMPDEST POP DUP6 SWAP4 POP POP POP POP SWAP3 SWAP2 POP POP JUMP JUMPDEST PUSH2 0x1D5C DUP2 PUSH2 0x2176 JUMP JUMPDEST DUP3 MSTORE POP POP JUMP JUMPDEST PUSH1 0x0 PUSH2 0x1D6D DUP3 PUSH2 0x1FC5 JUMP JUMPDEST PUSH2 0x1D77 DUP2 DUP6 PUSH2 0x1FEE JUMP JUMPDEST SWAP4 POP PUSH2 0x1D87 DUP2 DUP6 PUSH1 0x20 DUP7 ADD PUSH2 0x21AC JUMP JUMPDEST PUSH2 0x1D90 DUP2 PUSH2 0x22E5 JUMP JUMPDEST DUP5 ADD SWAP2 POP POP SWAP3 SWAP2 POP POP JUMP JUMPDEST PUSH1 0x0 PUSH2 0x1DA8 PUSH1 0x26 DUP4 PUSH2 0x1FEE JUMP JUMPDEST SWAP2 POP PUSH2 0x1DB3 DUP3 PUSH2 0x22F6 JUMP JUMPDEST PUSH1 0x40 DUP3 ADD SWAP1 POP SWAP2 SWAP1 POP JUMP JUMPDEST PUSH1 0x0 PUSH2 0x1DCB PUSH1 0x1B DUP4 PUSH2 0x1FEE JUMP JUMPDEST SWAP2 POP PUSH2 0x1DD6 DUP3 PUSH2 0x2345 JUMP JUMPDEST PUSH1 0x20 DUP3 ADD SWAP1 POP SWAP2 SWAP1 POP JUMP JUMPDEST PUSH1 0x0 PUSH2 0x1DEE PUSH1 0x21 DUP4 PUSH2 0x1FEE JUMP JUMPDEST SWAP2 POP PUSH2 0x1DF9 DUP3 PUSH2 0x236E JUMP JUMPDEST PUSH1 0x40 DUP3 ADD SWAP1 POP SWAP2 SWAP1 POP JUMP JUMPDEST PUSH1 0x0 PUSH2 0x1E11 PUSH1 0x20 DUP4 PUSH2 0x1FEE JUMP JUMPDEST SWAP2 POP PUSH2 0x1E1C DUP3 PUSH2 0x23BD JUMP JUMPDEST PUSH1 0x20 DUP3 ADD SWAP1 POP SWAP2 SWAP1 POP JUMP JUMPDEST PUSH2 0x1E30 DUP2 PUSH2 0x216C JUMP JUMPDEST DUP3 MSTORE POP POP JUMP JUMPDEST PUSH1 0x0 PUSH1 0x20 DUP3 ADD SWAP1 POP PUSH2 0x1E4B PUSH1 0x0 DUP4 ADD DUP5 PUSH2 0x1CE6 JUMP JUMPDEST SWAP3 SWAP2 POP POP JUMP JUMPDEST PUSH1 0x0 PUSH1 0x20 DUP3 ADD SWAP1 POP PUSH2 0x1E66 PUSH1 0x0 DUP4 ADD DUP5 PUSH2 0x1D53 JUMP JUMPDEST SWAP3 SWAP2 POP POP JUMP JUMPDEST PUSH1 0x0 PUSH1 0x20 DUP3 ADD SWAP1 POP DUP2 DUP2 SUB PUSH1 0x0 DUP4 ADD MSTORE PUSH2 0x1E86 DUP2 DUP5 PUSH2 0x1D62 JUMP JUMPDEST SWAP1 POP SWAP3 SWAP2 POP POP JUMP JUMPDEST PUSH1 0x0 PUSH1 0x20 DUP3 ADD SWAP1 POP DUP2 DUP2 SUB PUSH1 0x0 DUP4 ADD MSTORE PUSH2 0x1EA7 DUP2 PUSH2 0x1D9B JUMP JUMPDEST SWAP1 POP SWAP2 SWAP1 POP JUMP JUMPDEST PUSH1 0x0 PUSH1 0x20 DUP3 ADD SWAP1 POP DUP2 DUP2 SUB PUSH1 0x0 DUP4 ADD MSTORE PUSH2 0x1EC7 DUP2 PUSH2 0x1DBE JUMP JUMPDEST SWAP1 POP SWAP2 SWAP1 POP JUMP JUMPDEST PUSH1 0x0 PUSH1 0x20 DUP3 ADD SWAP1 POP DUP2 DUP2 SUB PUSH1 0x0 DUP4 ADD MSTORE PUSH2 0x1EE7 DUP2 PUSH2 0x1DE1 JUMP JUMPDEST SWAP1 POP SWAP2 SWAP1 POP JUMP JUMPDEST PUSH1 0x0 PUSH1 0x20 DUP3 ADD SWAP1 POP DUP2 DUP2 SUB PUSH1 0x0 DUP4 ADD MSTORE PUSH2 0x1F07 DUP2 PUSH2 0x1E04 JUMP JUMPDEST SWAP1 POP SWAP2 SWAP1 POP JUMP JUMPDEST PUSH1 0x0 PUSH1 0x20 DUP3 ADD SWAP1 POP PUSH2 0x1F23 PUSH1 0x0 DUP4 ADD DUP5 PUSH2 0x1E27 JUMP JUMPDEST SWAP3 SWAP2 POP POP JUMP JUMPDEST PUSH1 0x0 PUSH1 0x40 DUP3 ADD SWAP1 POP PUSH2 0x1F3E PUSH1 0x0 DUP4 ADD DUP6 PUSH2 0x1E27 JUMP JUMPDEST DUP2 DUP2 SUB PUSH1 0x20 DUP4 ADD MSTORE PUSH2 0x1F50 DUP2 DUP5 PUSH2 0x1CF5 JUMP JUMPDEST SWAP1 POP SWAP4 SWAP3 POP POP POP JUMP JUMPDEST PUSH1 0x0 PUSH2 0x1F63 PUSH2 0x1F74 JUMP JUMPDEST SWAP1 POP PUSH2 0x1F6F DUP3 DUP3 PUSH2 0x21DF JUMP JUMPDEST SWAP2 SWAP1 POP JUMP JUMPDEST PUSH1 0x0 PUSH1 0x40 MLOAD SWAP1 POP SWAP1 JUMP JUMPDEST PUSH1 0x0 PUSH8 0xFFFFFFFFFFFFFFFF DUP3 GT ISZERO PUSH2 0x1F99 JUMPI PUSH2 0x1F98 PUSH2 0x229D JUMP JUMPDEST JUMPDEST PUSH1 0x20 DUP3 MUL SWAP1 POP PUSH1 0x20 DUP2 ADD SWAP1 POP SWAP2 SWAP1 POP JUMP JUMPDEST PUSH1 0x0 DUP2 SWAP1 POP PUSH1 0x20 DUP3 ADD SWAP1 POP SWAP2 SWAP1 POP JUMP JUMPDEST PUSH1 0x0 DUP2 MLOAD SWAP1 POP SWAP2 SWAP1 POP JUMP JUMPDEST PUSH1 0x0 DUP2 MLOAD SWAP1 POP SWAP2 SWAP1 POP JUMP JUMPDEST PUSH1 0x0 PUSH1 0x20 DUP3 ADD SWAP1 POP SWAP2 SWAP1 POP JUMP JUMPDEST PUSH1 0x0 DUP3 DUP3 MSTORE PUSH1 0x20 DUP3 ADD SWAP1 POP SWAP3 SWAP2 POP POP JUMP JUMPDEST PUSH1 0x0 DUP3 DUP3 MSTORE PUSH1 0x20 DUP3 ADD SWAP1 POP SWAP3 SWAP2 POP POP JUMP JUMPDEST PUSH1 0x0 PUSH2 0x200A DUP3 PUSH2 0x216C JUMP JUMPDEST SWAP2 POP PUSH2 0x2015 DUP4 PUSH2 0x216C JUMP JUMPDEST SWAP3 POP DUP3 PUSH32 0xFFFFFFFFFFFFFFFFFFFFFFFFFFFFFFFFFFFFFFFFFFFFFFFFFFFFFFFFFFFFFFFF SUB DUP3 GT ISZERO PUSH2 0x204A JUMPI PUSH2 0x2049 PUSH2 0x2210 JUMP JUMPDEST JUMPDEST DUP3 DUP3 ADD SWAP1 POP SWAP3 SWAP2 POP POP JUMP JUMPDEST PUSH1 0x0 PUSH2 0x2060 DUP3 PUSH2 0x216C JUMP JUMPDEST SWAP2 POP PUSH2 0x206B DUP4 PUSH2 0x216C JUMP JUMPDEST SWAP3 POP DUP3 PUSH2 0x207B JUMPI PUSH2 0x207A PUSH2 0x223F JUMP JUMPDEST JUMPDEST DUP3 DUP3 DIV SWAP1 POP SWAP3 SWAP2 POP POP JUMP JUMPDEST PUSH1 0x0 PUSH2 0x2091 DUP3 PUSH2 0x216C JUMP JUMPDEST SWAP2 POP PUSH2 0x209C DUP4 PUSH2 0x216C JUMP JUMPDEST SWAP3 POP DUP2 PUSH32 0xFFFFFFFFFFFFFFFFFFFFFFFFFFFFFFFFFFFFFFFFFFFFFFFFFFFFFFFFFFFFFFFF DIV DUP4 GT DUP3 ISZERO ISZERO AND ISZERO PUSH2 0x20D5 JUMPI PUSH2 0x20D4 PUSH2 0x2210 JUMP JUMPDEST JUMPDEST DUP3 DUP3 MUL SWAP1 POP SWAP3 SWAP2 POP POP JUMP JUMPDEST PUSH1 0x0 PUSH2 0x20EB DUP3 PUSH2 0x214C JUMP JUMPDEST SWAP1 POP SWAP2 SWAP1 POP JUMP JUMPDEST PUSH1 0x0 PUSH2 0x20FD DUP3 PUSH2 0x20E0 JUMP JUMPDEST SWAP1 POP SWAP2 SWAP1 POP JUMP JUMPDEST PUSH1 0x0 PUSH2 0x210F DUP3 PUSH2 0x20E0 JUMP JUMPDEST SWAP1 POP SWAP2 SWAP1 POP JUMP JUMPDEST PUSH1 0x0 PUSH2 0x2121 DUP3 PUSH2 0x20E0 JUMP JUMPDEST SWAP1 POP SWAP2 SWAP1 POP JUMP JUMPDEST PUSH1 0x0 PUSH2 0x2133 DUP3 PUSH2 0x20E0 JUMP JUMPDEST SWAP1 POP SWAP2 SWAP1 POP JUMP JUMPDEST PUSH1 0x0 PUSH2 0x2145 DUP3 PUSH2 0x20E0 JUMP JUMPDEST SWAP1 POP SWAP2 SWAP1 POP JUMP JUMPDEST PUSH1 0x0 PUSH20 0xFFFFFFFFFFFFFFFFFFFFFFFFFFFFFFFFFFFFFFFF DUP3 AND SWAP1 POP SWAP2 SWAP1 POP JUMP JUMPDEST PUSH1 0x0 DUP2 SWAP1 POP SWAP2 SWAP1 POP JUMP JUMPDEST PUSH1 0x0 PUSH2 0x2181 DUP3 PUSH2 0x2188 JUMP JUMPDEST SWAP1 POP SWAP2 SWAP1 POP JUMP JUMPDEST PUSH1 0x0 PUSH2 0x2193 DUP3 PUSH2 0x219A JUMP JUMPDEST SWAP1 POP SWAP2 SWAP1 POP JUMP JUMPDEST PUSH1 0x0 PUSH2 0x21A5 DUP3 PUSH2 0x214C JUMP JUMPDEST SWAP1 POP SWAP2 SWAP1 POP JUMP JUMPDEST PUSH1 0x0 JUMPDEST DUP4 DUP2 LT ISZERO PUSH2 0x21CA JUMPI DUP1 DUP3 ADD MLOAD DUP2 DUP5 ADD MSTORE PUSH1 0x20 DUP2 ADD SWAP1 POP PUSH2 0x21AF JUMP JUMPDEST DUP4 DUP2 GT ISZERO PUSH2 0x21D9 JUMPI PUSH1 0x0 DUP5 DUP5 ADD MSTORE JUMPDEST POP POP POP POP JUMP JUMPDEST PUSH2 0x21E8 DUP3 PUSH2 0x22E5 JUMP JUMPDEST DUP2 ADD DUP2 DUP2 LT PUSH8 0xFFFFFFFFFFFFFFFF DUP3 GT OR ISZERO PUSH2 0x2207 JUMPI PUSH2 0x2206 PUSH2 0x229D JUMP JUMPDEST JUMPDEST DUP1 PUSH1 0x40 MSTORE POP POP POP JUMP JUMPDEST PUSH32 0x4E487B7100000000000000000000000000000000000000000000000000000000 PUSH1 0x0 MSTORE PUSH1 0x11 PUSH1 0x4 MSTORE PUSH1 0x24 PUSH1 0x0 REVERT JUMPDEST PUSH32 0x4E487B7100000000000000000000000000000000000000000000000000000000 PUSH1 0x0 MSTORE PUSH1 0x12 PUSH1 0x4 MSTORE PUSH1 0x24 PUSH1 0x0 REVERT JUMPDEST PUSH32 0x4E487B7100000000000000000000000000000000000000000000000000000000 PUSH1 0x0 MSTORE PUSH1 0x32 PUSH1 0x4 MSTORE PUSH1 0x24 PUSH1 0x0 REVERT JUMPDEST PUSH32 0x4E487B7100000000000000000000000000000000000000000000000000000000 PUSH1 0x0 MSTORE PUSH1 0x41 PUSH1 0x4 MSTORE PUSH1 0x24 PUSH1 0x0 REVERT JUMPDEST PUSH1 0x0 DUP1 REVERT JUMPDEST PUSH1 0x0 DUP1 REVERT JUMPDEST PUSH1 0x0 DUP1 REVERT JUMPDEST PUSH1 0x0 DUP1 REVERT JUMPDEST PUSH1 0x0 DUP1 REVERT JUMPDEST PUSH1 0x0 PUSH1 0x1F NOT PUSH1 0x1F DUP4 ADD AND SWAP1 POP SWAP2 SWAP1 POP JUMP JUMPDEST PUSH32 0x4F776E61626C653A206E6577206F776E657220697320746865207A65726F2061 PUSH1 0x0 DUP3 ADD MSTORE PUSH32 0x6464726573730000000000000000000000000000000000000000000000000000 PUSH1 0x20 DUP3 ADD MSTORE POP JUMP JUMPDEST PUSH32 0x536166654D6174683A206164646974696F6E206F766572666C6F770000000000 PUSH1 0x0 DUP3 ADD MSTORE POP JUMP JUMPDEST PUSH32 0x536166654D6174683A206D756C7469706C69636174696F6E206F766572666C6F PUSH1 0x0 DUP3 ADD MSTORE PUSH32 0x7700000000000000000000000000000000000000000000000000000000000000 PUSH1 0x20 DUP3 ADD MSTORE POP JUMP JUMPDEST PUSH32 0x4F776E61626C653A2063616C6C6572206973206E6F7420746865206F776E6572 PUSH1 0x0 DUP3 ADD MSTORE POP JUMP JUMPDEST PUSH2 0x23EF DUP2 PUSH2 0x20E0 JUMP JUMPDEST DUP2 EQ PUSH2 0x23FA JUMPI PUSH1 0x0 DUP1 REVERT JUMPDEST POP JUMP JUMPDEST PUSH2 0x2406 DUP2 PUSH2 0x20F2 JUMP JUMPDEST DUP2 EQ PUSH2 0x2411 JUMPI PUSH1 0x0 DUP1 REVERT JUMPDEST POP JUMP JUMPDEST PUSH2 0x241D DUP2 PUSH2 0x2104 JUMP JUMPDEST DUP2 EQ PUSH2 0x2428 JUMPI PUSH1 0x0 DUP1 REVERT JUMPDEST POP JUMP JUMPDEST PUSH2 0x2434 DUP2 PUSH2 0x2116 JUMP JUMPDEST DUP2 EQ PUSH2 0x243F JUMPI PUSH1 0x0 DUP1 REVERT JUMPDEST POP JUMP JUMPDEST PUSH2 0x244B DUP2 PUSH2 0x2128 JUMP JUMPDEST DUP2 EQ PUSH2 0x2456 JUMPI PUSH1 0x0 DUP1 REVERT JUMPDEST POP JUMP JUMPDEST PUSH2 0x2462 DUP2 PUSH2 0x213A JUMP JUMPDEST DUP2 EQ PUSH2 0x246D JUMPI PUSH1 0x0 DUP1 REVERT JUMPDEST POP JUMP JUMPDEST PUSH2 0x2479 DUP2 PUSH2 0x216C JUMP JUMPDEST DUP2 EQ PUSH2 0x2484 JUMPI PUSH1 0x0 DUP1 REVERT JUMPDEST POP JUMP INVALID LOG2 PUSH5 0x6970667358 0x22 SLT KECCAK256 0xD6 0x2C 0xE7 0x5D SLOAD COINBASE SSTORE 0xFC 0xCC AND DUP6 0xC8 0xD8 SHL 0xED 0xDD SMOD 0xB2 0xC1 DIV PUSH19 0x1B6EA7E237604601479E6964736F6C63430008 SMOD STOP CALLER "
				},
				"gasEstimates": {
					"creation": {
						"codeDepositCost": "1881000",
						"executionCost": "infinite",
						"totalCost": "infinite"
					},
					"external": {
						"BUSD()": "2603",
						"CalcApy(uint256,address,uint256,address)": "infinite",
						"CalcLpPrice(address)": "infinite",
						"Tokenprice(address)": "infinite",
						"WBNB()": "2536",
						"WBNBPrice(address)": "infinite",
						"calcPoolTVLInUSD(uint256,address,uint256,address)": "infinite",
						"owner()": "2522",
						"renounceOwnership()": "30485",
						"routerAddress()": "2645",
						"setRouter(address)": "27049",
						"transferOwnership(address)": "30833"
					}
				},
				"methodIdentifiers": {
					"BUSD()": "484f4ea9",
					"CalcApy(uint256,address,uint256,address)": "dbb79348",
					"CalcLpPrice(address)": "215cc989",
					"Tokenprice(address)": "19047f8a",
					"WBNB()": "8dd95002",
					"WBNBPrice(address)": "3b979d45",
					"calcPoolTVLInUSD(uint256,address,uint256,address)": "d979fb5f",
					"owner()": "8da5cb5b",
					"renounceOwnership()": "715018a6",
					"routerAddress()": "3268cc56",
					"setRouter(address)": "c0d78655",
					"transferOwnership(address)": "f2fde38b"
				}
			},
			"storageLayout": {
				"storage": [
					{
						"astId": 509,
						"contract": "contracts/Utils.sol:Utils",
						"label": "_owner",
						"offset": 0,
						"slot": "0",
						"type": "t_address"
					},
					{
						"astId": 753,
						"contract": "contracts/Utils.sol:Utils",
						"label": "WBNB",
						"offset": 0,
						"slot": "1",
						"type": "t_address"
					},
					{
						"astId": 756,
						"contract": "contracts/Utils.sol:Utils",
						"label": "BUSD",
						"offset": 0,
						"slot": "2",
						"type": "t_address"
					},
					{
						"astId": 759,
						"contract": "contracts/Utils.sol:Utils",
						"label": "amount",
						"offset": 0,
						"slot": "3",
						"type": "t_uint256"
					},
					{
						"astId": 762,
						"contract": "contracts/Utils.sol:Utils",
						"label": "routerAddress",
						"offset": 0,
						"slot": "4",
						"type": "t_contract(Router)644"
					},
					{
						"astId": 765,
						"contract": "contracts/Utils.sol:Utils",
						"label": "BLOCKS_PER_YEAR",
						"offset": 0,
						"slot": "5",
						"type": "t_uint256"
					}
				],
				"types": {
					"t_address": {
						"encoding": "inplace",
						"label": "address",
						"numberOfBytes": "20"
					},
					"t_contract(Router)644": {
						"encoding": "inplace",
						"label": "contract Router",
						"numberOfBytes": "20"
					},
					"t_uint256": {
						"encoding": "inplace",
						"label": "uint256",
						"numberOfBytes": "32"
					}
				}
			},
			"userdoc": {
				"kind": "user",
				"methods": {},
				"version": 1
			}
		}
	}
}