{
	"contracts/Utils.sol": {
		"Utils": {
			"abi": [
				{
					"inputs": [
						{
							"internalType": "contract Router",
							"name": "_routerAddress",
							"type": "address"
						},
						{
							"internalType": "address",
							"name": "_WBNB",
							"type": "address"
						},
						{
							"internalType": "address",
							"name": "_BUSD",
							"type": "address"
						}
					],
					"stateMutability": "nonpayable",
					"type": "constructor"
				},
				{
					"anonymous": false,
					"inputs": [
						{
							"indexed": true,
							"internalType": "address",
							"name": "previousOwner",
							"type": "address"
						},
						{
							"indexed": true,
							"internalType": "address",
							"name": "newOwner",
							"type": "address"
						}
					],
					"name": "OwnershipTransferred",
					"type": "event"
				},
				{
					"inputs": [],
					"name": "BUSD",
					"outputs": [
						{
							"internalType": "address",
							"name": "",
							"type": "address"
						}
					],
					"stateMutability": "view",
					"type": "function"
				},
				{
					"inputs": [
						{
							"internalType": "uint256",
							"name": "pid",
							"type": "uint256"
						},
						{
							"internalType": "contract LP",
							"name": "lpAddress",
							"type": "address"
						},
						{
							"internalType": "uint256",
							"name": "isLp",
							"type": "uint256"
						},
						{
							"internalType": "contract MetaMasterChef",
							"name": "MasterChef",
							"type": "address"
						}
					],
					"name": "CalcApy",
					"outputs": [
						{
							"internalType": "uint256",
							"name": "",
							"type": "uint256"
						}
					],
					"stateMutability": "view",
					"type": "function"
				},
				{
					"inputs": [
						{
							"internalType": "contract LP",
							"name": "lpAddress",
							"type": "address"
						}
					],
					"name": "CalcLpPrice",
					"outputs": [
						{
							"internalType": "uint256",
							"name": "",
							"type": "uint256"
						}
					],
					"stateMutability": "view",
					"type": "function"
				},
				{
					"inputs": [
						{
							"internalType": "contract MetaMasterChef",
							"name": "MasterChef",
							"type": "address"
						}
					],
					"name": "CalcTotalTVL",
					"outputs": [
						{
							"internalType": "uint256",
							"name": "",
							"type": "uint256"
						}
					],
					"stateMutability": "view",
					"type": "function"
				},
				{
					"inputs": [
						{
							"internalType": "address",
							"name": "token",
							"type": "address"
						}
					],
					"name": "Tokenprice",
					"outputs": [
						{
							"internalType": "uint256",
							"name": "",
							"type": "uint256"
						}
					],
					"stateMutability": "view",
					"type": "function"
				},
				{
					"inputs": [],
					"name": "WBNB",
					"outputs": [
						{
							"internalType": "address",
							"name": "",
							"type": "address"
						}
					],
					"stateMutability": "view",
					"type": "function"
				},
				{
					"inputs": [
						{
							"internalType": "address",
							"name": "token",
							"type": "address"
						}
					],
					"name": "WBNBPrice",
					"outputs": [
						{
							"internalType": "uint256",
							"name": "",
							"type": "uint256"
						}
					],
					"stateMutability": "view",
					"type": "function"
				},
				{
					"inputs": [
						{
							"internalType": "uint256",
							"name": "pid",
							"type": "uint256"
						},
						{
							"internalType": "contract LP",
							"name": "lpAddress",
							"type": "address"
						},
						{
							"internalType": "uint256",
							"name": "isLp",
							"type": "uint256"
						},
						{
							"internalType": "contract MetaMasterChef",
							"name": "MasterChef",
							"type": "address"
						}
					],
					"name": "calcPoolTVLInUSD",
					"outputs": [
						{
							"internalType": "uint256",
							"name": "",
							"type": "uint256"
						}
					],
					"stateMutability": "view",
					"type": "function"
				},
				{
					"inputs": [],
					"name": "owner",
					"outputs": [
						{
							"internalType": "address",
							"name": "",
							"type": "address"
						}
					],
					"stateMutability": "view",
					"type": "function"
				},
				{
					"inputs": [],
					"name": "renounceOwnership",
					"outputs": [],
					"stateMutability": "nonpayable",
					"type": "function"
				},
				{
					"inputs": [],
					"name": "routerAddress",
					"outputs": [
						{
							"internalType": "contract Router",
							"name": "",
							"type": "address"
						}
					],
					"stateMutability": "view",
					"type": "function"
				},
				{
					"inputs": [
						{
							"internalType": "contract Router",
							"name": "_routerAddress",
							"type": "address"
						}
					],
					"name": "setRouter",
					"outputs": [],
					"stateMutability": "nonpayable",
					"type": "function"
				},
				{
					"inputs": [
						{
							"internalType": "address",
							"name": "newOwner",
							"type": "address"
						}
					],
					"name": "transferOwnership",
					"outputs": [],
					"stateMutability": "nonpayable",
					"type": "function"
				}
			],
			"devdoc": {
				"kind": "dev",
				"methods": {
					"owner()": {
						"details": "Returns the address of the current owner."
					},
					"renounceOwnership()": {
						"details": "Leaves the contract without owner. It will not be possible to call `onlyOwner` functions anymore. Can only be called by the current owner. NOTE: Renouncing ownership will leave the contract without an owner, thereby removing any functionality that is only available to the owner."
					},
					"transferOwnership(address)": {
						"details": "Transfers ownership of the contract to a new account (`newOwner`). Can only be called by the current owner."
					}
				},
				"version": 1
			},
			"evm": {
				"assembly": "    /* \"contracts/Utils.sol\":17259:20712  contract Utils is Ownable{... */\n  mstore(0x40, 0x80)\n    /* \"contracts/Utils.sol\":17509:17528  1000000000000000000 */\n  0x0de0b6b3a7640000\n    /* \"contracts/Utils.sol\":17492:17528  uint256 amount = 1000000000000000000 */\n  0x03\n  sstore\n    /* \"contracts/Utils.sol\":17597:17605  10512000 */\n  0xa06680\n    /* \"contracts/Utils.sol\":17571:17605  uint256 BLOCKS_PER_YEAR = 10512000 */\n  0x05\n  sstore\n    /* \"contracts/Utils.sol\":17615:17778  constructor(Router _routerAddress, address _WBNB, address _BUSD) {... */\n  callvalue\n  dup1\n  iszero\n  tag_1\n  jumpi\n  0x00\n  dup1\n  revert\ntag_1:\n  pop\n  mload(0x40)\n  sub(codesize, bytecodeSize)\n  dup1\n  bytecodeSize\n  dup4\n  codecopy\n  dup2\n  dup2\n  add\n  0x40\n  mstore\n  dup2\n  add\n  swap1\n  tag_2\n  swap2\n  swap1\n  tag_3\n  jump\t// in\ntag_2:\n    /* \"contracts/Utils.sol\":13728:13760  _transferOwnership(_msgSender()) */\n  tag_7\n    /* \"contracts/Utils.sol\":13747:13759  _msgSender() */\n  tag_8\n    /* \"contracts/Utils.sol\":13747:13757  _msgSender */\n  shl(0x20, tag_9)\n    /* \"contracts/Utils.sol\":13747:13759  _msgSender() */\n  0x20\n  shr\n  jump\t// in\ntag_8:\n    /* \"contracts/Utils.sol\":13728:13746  _transferOwnership */\n  shl(0x20, tag_10)\n    /* \"contracts/Utils.sol\":13728:13760  _transferOwnership(_msgSender()) */\n  0x20\n  shr\n  jump\t// in\ntag_7:\n    /* \"contracts/Utils.sol\":17708:17722  _routerAddress */\n  dup3\n    /* \"contracts/Utils.sol\":17692:17705  routerAddress */\n  0x04\n  0x00\n    /* \"contracts/Utils.sol\":17692:17722  routerAddress = _routerAddress */\n  0x0100\n  exp\n  dup2\n  sload\n  dup2\n  0xffffffffffffffffffffffffffffffffffffffff\n  mul\n  not\n  and\n  swap1\n  dup4\n  0xffffffffffffffffffffffffffffffffffffffff\n  and\n  mul\n  or\n  swap1\n  sstore\n  pop\n    /* \"contracts/Utils.sol\":17741:17746  _WBNB */\n  dup2\n    /* \"contracts/Utils.sol\":17734:17738  WBNB */\n  0x01\n  0x00\n    /* \"contracts/Utils.sol\":17734:17746  WBNB = _WBNB */\n  0x0100\n  exp\n  dup2\n  sload\n  dup2\n  0xffffffffffffffffffffffffffffffffffffffff\n  mul\n  not\n  and\n  swap1\n  dup4\n  0xffffffffffffffffffffffffffffffffffffffff\n  and\n  mul\n  or\n  swap1\n  sstore\n  pop\n    /* \"contracts/Utils.sol\":17765:17770  _BUSD */\n  dup1\n    /* \"contracts/Utils.sol\":17758:17762  BUSD */\n  0x02\n  0x00\n    /* \"contracts/Utils.sol\":17758:17770  BUSD = _BUSD */\n  0x0100\n  exp\n  dup2\n  sload\n  dup2\n  0xffffffffffffffffffffffffffffffffffffffff\n  mul\n  not\n  and\n  swap1\n  dup4\n  0xffffffffffffffffffffffffffffffffffffffff\n  and\n  mul\n  or\n  swap1\n  sstore\n  pop\n    /* \"contracts/Utils.sol\":17615:17778  constructor(Router _routerAddress, address _WBNB, address _BUSD) {... */\n  pop\n  pop\n  pop\n    /* \"contracts/Utils.sol\":17259:20712  contract Utils is Ownable{... */\n  jump(tag_12)\n    /* \"contracts/Utils.sol\":13223:13321  function _msgSender() internal view virtual returns (address) {... */\ntag_9:\n    /* \"contracts/Utils.sol\":13276:13283  address */\n  0x00\n    /* \"contracts/Utils.sol\":13303:13313  msg.sender */\n  caller\n    /* \"contracts/Utils.sol\":13296:13313  return msg.sender */\n  swap1\n  pop\n    /* \"contracts/Utils.sol\":13223:13321  function _msgSender() internal view virtual returns (address) {... */\n  swap1\n  jump\t// out\n    /* \"contracts/Utils.sol\":15119:15310  function _transferOwnership(address newOwner) internal virtual {... */\ntag_10:\n    /* \"contracts/Utils.sol\":15193:15209  address oldOwner */\n  0x00\n    /* \"contracts/Utils.sol\":15212:15218  _owner */\n  dup1\n  0x00\n  swap1\n  sload\n  swap1\n  0x0100\n  exp\n  swap1\n  div\n  0xffffffffffffffffffffffffffffffffffffffff\n  and\n    /* \"contracts/Utils.sol\":15193:15218  address oldOwner = _owner */\n  swap1\n  pop\n    /* \"contracts/Utils.sol\":15238:15246  newOwner */\n  dup2\n    /* \"contracts/Utils.sol\":15229:15235  _owner */\n  0x00\n  dup1\n    /* \"contracts/Utils.sol\":15229:15246  _owner = newOwner */\n  0x0100\n  exp\n  dup2\n  sload\n  dup2\n  0xffffffffffffffffffffffffffffffffffffffff\n  mul\n  not\n  and\n  swap1\n  dup4\n  0xffffffffffffffffffffffffffffffffffffffff\n  and\n  mul\n  or\n  swap1\n  sstore\n  pop\n    /* \"contracts/Utils.sol\":15293:15301  newOwner */\n  dup2\n    /* \"contracts/Utils.sol\":15262:15302  OwnershipTransferred(oldOwner, newOwner) */\n  0xffffffffffffffffffffffffffffffffffffffff\n  and\n    /* \"contracts/Utils.sol\":15283:15291  oldOwner */\n  dup2\n    /* \"contracts/Utils.sol\":15262:15302  OwnershipTransferred(oldOwner, newOwner) */\n  0xffffffffffffffffffffffffffffffffffffffff\n  and\n  0x8be0079c531659141344cd1fd0a4f28419497f9722a3daafe3b4186f6b6457e0\n  mload(0x40)\n  mload(0x40)\n  dup1\n  swap2\n  sub\n  swap1\n  log3\n    /* \"contracts/Utils.sol\":15182:15310  {... */\n  pop\n    /* \"contracts/Utils.sol\":15119:15310  function _transferOwnership(address newOwner) internal virtual {... */\n  pop\n  jump\t// out\n    /* \"#utility.yul\":88:205   */\ntag_16:\n    /* \"#utility.yul\":197:198   */\n  0x00\n    /* \"#utility.yul\":194:195   */\n  dup1\n    /* \"#utility.yul\":187:199   */\n  revert\n    /* \"#utility.yul\":334:460   */\ntag_18:\n    /* \"#utility.yul\":371:378   */\n  0x00\n    /* \"#utility.yul\":411:453   */\n  0xffffffffffffffffffffffffffffffffffffffff\n    /* \"#utility.yul\":404:409   */\n  dup3\n    /* \"#utility.yul\":400:454   */\n  and\n    /* \"#utility.yul\":389:454   */\n  swap1\n  pop\n    /* \"#utility.yul\":334:460   */\n  swap2\n  swap1\n  pop\n  jump\t// out\n    /* \"#utility.yul\":466:562   */\ntag_19:\n    /* \"#utility.yul\":503:510   */\n  0x00\n    /* \"#utility.yul\":532:556   */\n  tag_31\n    /* \"#utility.yul\":550:555   */\n  dup3\n    /* \"#utility.yul\":532:556   */\n  tag_18\n  jump\t// in\ntag_31:\n    /* \"#utility.yul\":521:556   */\n  swap1\n  pop\n    /* \"#utility.yul\":466:562   */\n  swap2\n  swap1\n  pop\n  jump\t// out\n    /* \"#utility.yul\":568:678   */\ntag_20:\n    /* \"#utility.yul\":619:626   */\n  0x00\n    /* \"#utility.yul\":648:672   */\n  tag_33\n    /* \"#utility.yul\":666:671   */\n  dup3\n    /* \"#utility.yul\":648:672   */\n  tag_19\n  jump\t// in\ntag_33:\n    /* \"#utility.yul\":637:672   */\n  swap1\n  pop\n    /* \"#utility.yul\":568:678   */\n  swap2\n  swap1\n  pop\n  jump\t// out\n    /* \"#utility.yul\":684:834   */\ntag_21:\n    /* \"#utility.yul\":771:809   */\n  tag_35\n    /* \"#utility.yul\":803:808   */\n  dup2\n    /* \"#utility.yul\":771:809   */\n  tag_20\n  jump\t// in\ntag_35:\n    /* \"#utility.yul\":764:769   */\n  dup2\n    /* \"#utility.yul\":761:810   */\n  eq\n    /* \"#utility.yul\":751:828   */\n  tag_36\n  jumpi\n    /* \"#utility.yul\":824:825   */\n  0x00\n    /* \"#utility.yul\":821:822   */\n  dup1\n    /* \"#utility.yul\":814:826   */\n  revert\n    /* \"#utility.yul\":751:828   */\ntag_36:\n    /* \"#utility.yul\":684:834   */\n  pop\n  jump\t// out\n    /* \"#utility.yul\":840:1011   */\ntag_22:\n    /* \"#utility.yul\":911:916   */\n  0x00\n    /* \"#utility.yul\":942:948   */\n  dup2\n    /* \"#utility.yul\":936:949   */\n  mload\n    /* \"#utility.yul\":927:949   */\n  swap1\n  pop\n    /* \"#utility.yul\":958:1005   */\n  tag_38\n    /* \"#utility.yul\":999:1004   */\n  dup2\n    /* \"#utility.yul\":958:1005   */\n  tag_21\n  jump\t// in\ntag_38:\n    /* \"#utility.yul\":840:1011   */\n  swap3\n  swap2\n  pop\n  pop\n  jump\t// out\n    /* \"#utility.yul\":1017:1139   */\ntag_23:\n    /* \"#utility.yul\":1090:1114   */\n  tag_40\n    /* \"#utility.yul\":1108:1113   */\n  dup2\n    /* \"#utility.yul\":1090:1114   */\n  tag_19\n  jump\t// in\ntag_40:\n    /* \"#utility.yul\":1083:1088   */\n  dup2\n    /* \"#utility.yul\":1080:1115   */\n  eq\n    /* \"#utility.yul\":1070:1133   */\n  tag_41\n  jumpi\n    /* \"#utility.yul\":1129:1130   */\n  0x00\n    /* \"#utility.yul\":1126:1127   */\n  dup1\n    /* \"#utility.yul\":1119:1131   */\n  revert\n    /* \"#utility.yul\":1070:1133   */\ntag_41:\n    /* \"#utility.yul\":1017:1139   */\n  pop\n  jump\t// out\n    /* \"#utility.yul\":1145:1288   */\ntag_24:\n    /* \"#utility.yul\":1202:1207   */\n  0x00\n    /* \"#utility.yul\":1233:1239   */\n  dup2\n    /* \"#utility.yul\":1227:1240   */\n  mload\n    /* \"#utility.yul\":1218:1240   */\n  swap1\n  pop\n    /* \"#utility.yul\":1249:1282   */\n  tag_43\n    /* \"#utility.yul\":1276:1281   */\n  dup2\n    /* \"#utility.yul\":1249:1282   */\n  tag_23\n  jump\t// in\ntag_43:\n    /* \"#utility.yul\":1145:1288   */\n  swap3\n  swap2\n  pop\n  pop\n  jump\t// out\n    /* \"#utility.yul\":1294:1985   */\ntag_3:\n    /* \"#utility.yul\":1396:1402   */\n  0x00\n    /* \"#utility.yul\":1404:1410   */\n  dup1\n    /* \"#utility.yul\":1412:1418   */\n  0x00\n    /* \"#utility.yul\":1461:1463   */\n  0x60\n    /* \"#utility.yul\":1449:1458   */\n  dup5\n    /* \"#utility.yul\":1440:1447   */\n  dup7\n    /* \"#utility.yul\":1436:1459   */\n  sub\n    /* \"#utility.yul\":1432:1464   */\n  slt\n    /* \"#utility.yul\":1429:1548   */\n  iszero\n  tag_45\n  jumpi\n    /* \"#utility.yul\":1467:1546   */\n  tag_46\n  tag_16\n  jump\t// in\ntag_46:\n    /* \"#utility.yul\":1429:1548   */\ntag_45:\n    /* \"#utility.yul\":1587:1588   */\n  0x00\n    /* \"#utility.yul\":1612:1690   */\n  tag_47\n    /* \"#utility.yul\":1682:1689   */\n  dup7\n    /* \"#utility.yul\":1673:1679   */\n  dup3\n    /* \"#utility.yul\":1662:1671   */\n  dup8\n    /* \"#utility.yul\":1658:1680   */\n  add\n    /* \"#utility.yul\":1612:1690   */\n  tag_22\n  jump\t// in\ntag_47:\n    /* \"#utility.yul\":1602:1690   */\n  swap4\n  pop\n    /* \"#utility.yul\":1558:1700   */\n  pop\n    /* \"#utility.yul\":1739:1741   */\n  0x20\n    /* \"#utility.yul\":1765:1829   */\n  tag_48\n    /* \"#utility.yul\":1821:1828   */\n  dup7\n    /* \"#utility.yul\":1812:1818   */\n  dup3\n    /* \"#utility.yul\":1801:1810   */\n  dup8\n    /* \"#utility.yul\":1797:1819   */\n  add\n    /* \"#utility.yul\":1765:1829   */\n  tag_24\n  jump\t// in\ntag_48:\n    /* \"#utility.yul\":1755:1829   */\n  swap3\n  pop\n    /* \"#utility.yul\":1710:1839   */\n  pop\n    /* \"#utility.yul\":1878:1880   */\n  0x40\n    /* \"#utility.yul\":1904:1968   */\n  tag_49\n    /* \"#utility.yul\":1960:1967   */\n  dup7\n    /* \"#utility.yul\":1951:1957   */\n  dup3\n    /* \"#utility.yul\":1940:1949   */\n  dup8\n    /* \"#utility.yul\":1936:1958   */\n  add\n    /* \"#utility.yul\":1904:1968   */\n  tag_24\n  jump\t// in\ntag_49:\n    /* \"#utility.yul\":1894:1968   */\n  swap2\n  pop\n    /* \"#utility.yul\":1849:1978   */\n  pop\n    /* \"#utility.yul\":1294:1985   */\n  swap3\n  pop\n  swap3\n  pop\n  swap3\n  jump\t// out\n    /* \"contracts/Utils.sol\":17259:20712  contract Utils is Ownable{... */\ntag_12:\n  dataSize(sub_0)\n  dup1\n  dataOffset(sub_0)\n  0x00\n  codecopy\n  0x00\n  return\nstop\n\nsub_0: assembly {\n        /* \"contracts/Utils.sol\":17259:20712  contract Utils is Ownable{... */\n      mstore(0x40, 0x80)\n      callvalue\n      dup1\n      iszero\n      tag_1\n      jumpi\n      0x00\n      dup1\n      revert\n    tag_1:\n      pop\n      jumpi(tag_2, lt(calldatasize, 0x04))\n      shr(0xe0, calldataload(0x00))\n      dup1\n      0x81c7f1fc\n      gt\n      tag_16\n      jumpi\n      dup1\n      0xc0d78655\n      gt\n      tag_17\n      jumpi\n      dup1\n      0xc0d78655\n      eq\n      tag_12\n      jumpi\n      dup1\n      0xd979fb5f\n      eq\n      tag_13\n      jumpi\n      dup1\n      0xdbb79348\n      eq\n      tag_14\n      jumpi\n      dup1\n      0xf2fde38b\n      eq\n      tag_15\n      jumpi\n      jump(tag_2)\n    tag_17:\n      dup1\n      0x81c7f1fc\n      eq\n      tag_9\n      jumpi\n      dup1\n      0x8da5cb5b\n      eq\n      tag_10\n      jumpi\n      dup1\n      0x8dd95002\n      eq\n      tag_11\n      jumpi\n      jump(tag_2)\n    tag_16:\n      dup1\n      0x19047f8a\n      eq\n      tag_3\n      jumpi\n      dup1\n      0x215cc989\n      eq\n      tag_4\n      jumpi\n      dup1\n      0x3268cc56\n      eq\n      tag_5\n      jumpi\n      dup1\n      0x3b979d45\n      eq\n      tag_6\n      jumpi\n      dup1\n      0x484f4ea9\n      eq\n      tag_7\n      jumpi\n      dup1\n      0x715018a6\n      eq\n      tag_8\n      jumpi\n    tag_2:\n      0x00\n      dup1\n      revert\n        /* \"contracts/Utils.sol\":17918:18177  function Tokenprice(address token) public view returns(uint256){... */\n    tag_3:\n      tag_18\n      0x04\n      dup1\n      calldatasize\n      sub\n      dup2\n      add\n      swap1\n      tag_19\n      swap2\n      swap1\n      tag_20\n      jump\t// in\n    tag_19:\n      tag_21\n      jump\t// in\n    tag_18:\n      mload(0x40)\n      tag_22\n      swap2\n      swap1\n      tag_23\n      jump\t// in\n    tag_22:\n      mload(0x40)\n      dup1\n      swap2\n      sub\n      swap1\n      return\n        /* \"contracts/Utils.sol\":18460:19308  function CalcLpPrice(LP lpAddress) public view returns(uint256){... */\n    tag_4:\n      tag_24\n      0x04\n      dup1\n      calldatasize\n      sub\n      dup2\n      add\n      swap1\n      tag_25\n      swap2\n      swap1\n      tag_26\n      jump\t// in\n    tag_25:\n      tag_27\n      jump\t// in\n    tag_24:\n      mload(0x40)\n      tag_28\n      swap2\n      swap1\n      tag_23\n      jump\t// in\n    tag_28:\n      mload(0x40)\n      dup1\n      swap2\n      sub\n      swap1\n      return\n        /* \"contracts/Utils.sol\":17535:17562  Router public routerAddress */\n    tag_5:\n      tag_29\n      tag_30\n      jump\t// in\n    tag_29:\n      mload(0x40)\n      tag_31\n      swap2\n      swap1\n      tag_32\n      jump\t// in\n    tag_31:\n      mload(0x40)\n      dup1\n      swap2\n      sub\n      swap1\n      return\n        /* \"contracts/Utils.sol\":18202:18435  function WBNBPrice(address token) public view returns(uint256){... */\n    tag_6:\n      tag_33\n      0x04\n      dup1\n      calldatasize\n      sub\n      dup2\n      add\n      swap1\n      tag_34\n      swap2\n      swap1\n      tag_20\n      jump\t// in\n    tag_34:\n      tag_35\n      jump\t// in\n    tag_33:\n      mload(0x40)\n      tag_36\n      swap2\n      swap1\n      tag_23\n      jump\t// in\n    tag_36:\n      mload(0x40)\n      dup1\n      swap2\n      sub\n      swap1\n      return\n        /* \"contracts/Utils.sol\":17466:17485  address public BUSD */\n    tag_7:\n      tag_37\n      tag_38\n      jump\t// in\n    tag_37:\n      mload(0x40)\n      tag_39\n      swap2\n      swap1\n      tag_40\n      jump\t// in\n    tag_39:\n      mload(0x40)\n      dup1\n      swap2\n      sub\n      swap1\n      return\n        /* \"contracts/Utils.sol\":14500:14603  function renounceOwnership() public virtual onlyOwner {... */\n    tag_8:\n      tag_41\n      tag_42\n      jump\t// in\n    tag_41:\n      stop\n        /* \"contracts/Utils.sol\":20620:20709  function CalcTotalTVL(MetaMasterChef MasterChef) external view returns(uint256){... */\n    tag_9:\n      tag_43\n      0x04\n      dup1\n      calldatasize\n      sub\n      dup2\n      add\n      swap1\n      tag_44\n      swap2\n      swap1\n      tag_45\n      jump\t// in\n    tag_44:\n      tag_46\n      jump\t// in\n    tag_43:\n      mload(0x40)\n      tag_47\n      swap2\n      swap1\n      tag_23\n      jump\t// in\n    tag_47:\n      mload(0x40)\n      dup1\n      swap2\n      sub\n      swap1\n      return\n        /* \"contracts/Utils.sol\":13849:13936  function owner() public view virtual returns (address) {... */\n    tag_10:\n      tag_48\n      tag_49\n      jump\t// in\n    tag_48:\n      mload(0x40)\n      tag_50\n      swap2\n      swap1\n      tag_40\n      jump\t// in\n    tag_50:\n      mload(0x40)\n      dup1\n      swap2\n      sub\n      swap1\n      return\n        /* \"contracts/Utils.sol\":17440:17459  address public WBNB */\n    tag_11:\n      tag_51\n      tag_52\n      jump\t// in\n    tag_51:\n      mload(0x40)\n      tag_53\n      swap2\n      swap1\n      tag_40\n      jump\t// in\n    tag_53:\n      mload(0x40)\n      dup1\n      swap2\n      sub\n      swap1\n      return\n        /* \"contracts/Utils.sol\":17786:17893  function setRouter(Router _routerAddress) public onlyOwner{... */\n    tag_12:\n      tag_54\n      0x04\n      dup1\n      calldatasize\n      sub\n      dup2\n      add\n      swap1\n      tag_55\n      swap2\n      swap1\n      tag_56\n      jump\t// in\n    tag_55:\n      tag_57\n      jump\t// in\n    tag_54:\n      stop\n        /* \"contracts/Utils.sol\":19331:19902  function calcPoolTVLInUSD(uint256 pid, LP lpAddress, uint256 isLp, MetaMasterChef MasterChef) public view returns(uint256){... */\n    tag_13:\n      tag_58\n      0x04\n      dup1\n      calldatasize\n      sub\n      dup2\n      add\n      swap1\n      tag_59\n      swap2\n      swap1\n      tag_60\n      jump\t// in\n    tag_59:\n      tag_61\n      jump\t// in\n    tag_58:\n      mload(0x40)\n      tag_62\n      swap2\n      swap1\n      tag_23\n      jump\t// in\n    tag_62:\n      mload(0x40)\n      dup1\n      swap2\n      sub\n      swap1\n      return\n        /* \"contracts/Utils.sol\":19910:20612  function CalcApy(uint256 pid, LP lpAddress,uint256 isLp, MetaMasterChef MasterChef) external view returns(uint256){... */\n    tag_14:\n      tag_63\n      0x04\n      dup1\n      calldatasize\n      sub\n      dup2\n      add\n      swap1\n      tag_64\n      swap2\n      swap1\n      tag_60\n      jump\t// in\n    tag_64:\n      tag_65\n      jump\t// in\n    tag_63:\n      mload(0x40)\n      tag_66\n      swap2\n      swap1\n      tag_23\n      jump\t// in\n    tag_66:\n      mload(0x40)\n      dup1\n      swap2\n      sub\n      swap1\n      return\n        /* \"contracts/Utils.sol\":14758:14959  function transferOwnership(address newOwner) public virtual onlyOwner {... */\n    tag_15:\n      tag_67\n      0x04\n      dup1\n      calldatasize\n      sub\n      dup2\n      add\n      swap1\n      tag_68\n      swap2\n      swap1\n      tag_20\n      jump\t// in\n    tag_68:\n      tag_69\n      jump\t// in\n    tag_67:\n      stop\n        /* \"contracts/Utils.sol\":17918:18177  function Tokenprice(address token) public view returns(uint256){... */\n    tag_21:\n        /* \"contracts/Utils.sol\":17973:17980  uint256 */\n      0x00\n        /* \"contracts/Utils.sol\":17992:18013  address[] memory path */\n      dup1\n        /* \"contracts/Utils.sol\":18030:18031  3 */\n      0x03\n        /* \"contracts/Utils.sol\":18016:18032  new address[](3) */\n      0xffffffffffffffff\n      dup2\n      gt\n      iszero\n      tag_71\n      jumpi\n      tag_72\n      tag_73\n      jump\t// in\n    tag_72:\n    tag_71:\n      mload(0x40)\n      swap1\n      dup1\n      dup3\n      mstore\n      dup1\n      0x20\n      mul\n      0x20\n      add\n      dup3\n      add\n      0x40\n      mstore\n      dup1\n      iszero\n      tag_74\n      jumpi\n      dup2\n      0x20\n      add\n      0x20\n      dup3\n      mul\n      dup1\n      calldatasize\n      dup4\n      calldatacopy\n      dup1\n      dup3\n      add\n      swap2\n      pop\n      pop\n      swap1\n      pop\n    tag_74:\n      pop\n        /* \"contracts/Utils.sol\":17992:18032  address[] memory path = new address[](3) */\n      swap1\n      pop\n        /* \"contracts/Utils.sol\":18053:18058  token */\n      dup3\n        /* \"contracts/Utils.sol\":18043:18047  path */\n      dup2\n        /* \"contracts/Utils.sol\":18048:18049  0 */\n      0x00\n        /* \"contracts/Utils.sol\":18043:18050  path[0] */\n      dup2\n      mload\n      dup2\n      lt\n      tag_75\n      jumpi\n      tag_76\n      tag_77\n      jump\t// in\n    tag_76:\n    tag_75:\n      0x20\n      mul\n      0x20\n      add\n      add\n        /* \"contracts/Utils.sol\":18043:18058  path[0] = token */\n      swap1\n      0xffffffffffffffffffffffffffffffffffffffff\n      and\n      swap1\n      dup2\n      0xffffffffffffffffffffffffffffffffffffffff\n      and\n      dup2\n      mstore\n      pop\n      pop\n        /* \"contracts/Utils.sol\":18079:18083  WBNB */\n      0x01\n      0x00\n      swap1\n      sload\n      swap1\n      0x0100\n      exp\n      swap1\n      div\n      0xffffffffffffffffffffffffffffffffffffffff\n      and\n        /* \"contracts/Utils.sol\":18069:18073  path */\n      dup2\n        /* \"contracts/Utils.sol\":18074:18075  1 */\n      0x01\n        /* \"contracts/Utils.sol\":18069:18076  path[1] */\n      dup2\n      mload\n      dup2\n      lt\n      tag_78\n      jumpi\n      tag_79\n      tag_77\n      jump\t// in\n    tag_79:\n    tag_78:\n      0x20\n      mul\n      0x20\n      add\n      add\n        /* \"contracts/Utils.sol\":18069:18083  path[1] = WBNB */\n      swap1\n      0xffffffffffffffffffffffffffffffffffffffff\n      and\n      swap1\n      dup2\n      0xffffffffffffffffffffffffffffffffffffffff\n      and\n      dup2\n      mstore\n      pop\n      pop\n        /* \"contracts/Utils.sol\":18104:18108  BUSD */\n      0x02\n      0x00\n      swap1\n      sload\n      swap1\n      0x0100\n      exp\n      swap1\n      div\n      0xffffffffffffffffffffffffffffffffffffffff\n      and\n        /* \"contracts/Utils.sol\":18094:18098  path */\n      dup2\n        /* \"contracts/Utils.sol\":18099:18100  2 */\n      0x02\n        /* \"contracts/Utils.sol\":18094:18101  path[2] */\n      dup2\n      mload\n      dup2\n      lt\n      tag_80\n      jumpi\n      tag_81\n      tag_77\n      jump\t// in\n    tag_81:\n    tag_80:\n      0x20\n      mul\n      0x20\n      add\n      add\n        /* \"contracts/Utils.sol\":18094:18108  path[2] = BUSD */\n      swap1\n      0xffffffffffffffffffffffffffffffffffffffff\n      and\n      swap1\n      dup2\n      0xffffffffffffffffffffffffffffffffffffffff\n      and\n      dup2\n      mstore\n      pop\n      pop\n        /* \"contracts/Utils.sol\":18126:18139  routerAddress */\n      0x04\n      0x00\n      swap1\n      sload\n      swap1\n      0x0100\n      exp\n      swap1\n      div\n      0xffffffffffffffffffffffffffffffffffffffff\n      and\n        /* \"contracts/Utils.sol\":18126:18153  routerAddress.getAmountsOut */\n      0xffffffffffffffffffffffffffffffffffffffff\n      and\n      0xd06ca61f\n        /* \"contracts/Utils.sol\":18154:18160  amount */\n      sload(0x03)\n        /* \"contracts/Utils.sol\":18161:18165  path */\n      dup4\n        /* \"contracts/Utils.sol\":18126:18166  routerAddress.getAmountsOut(amount,path) */\n      mload(0x40)\n      dup4\n      0xffffffff\n      and\n      0xe0\n      shl\n      dup2\n      mstore\n      0x04\n      add\n      tag_82\n      swap3\n      swap2\n      swap1\n      tag_83\n      jump\t// in\n    tag_82:\n      0x00\n      mload(0x40)\n      dup1\n      dup4\n      sub\n      dup2\n      dup7\n      gas\n      staticcall\n      iszero\n      dup1\n      iszero\n      tag_85\n      jumpi\n      returndatasize\n      0x00\n      dup1\n      returndatacopy\n      revert(0x00, returndatasize)\n    tag_85:\n      pop\n      pop\n      pop\n      pop\n      mload(0x40)\n      returndatasize\n      0x00\n      dup3\n      returndatacopy\n      returndatasize\n      not(0x1f)\n      0x1f\n      dup3\n      add\n      and\n      dup3\n      add\n      dup1\n      0x40\n      mstore\n      pop\n      dup2\n      add\n      swap1\n      tag_86\n      swap2\n      swap1\n      tag_87\n      jump\t// in\n    tag_86:\n        /* \"contracts/Utils.sol\":18167:18168  2 */\n      0x02\n        /* \"contracts/Utils.sol\":18126:18169  routerAddress.getAmountsOut(amount,path)[2] */\n      dup2\n      mload\n      dup2\n      lt\n      tag_88\n      jumpi\n      tag_89\n      tag_77\n      jump\t// in\n    tag_89:\n    tag_88:\n      0x20\n      mul\n      0x20\n      add\n      add\n      mload\n        /* \"contracts/Utils.sol\":18119:18169  return routerAddress.getAmountsOut(amount,path)[2] */\n      swap2\n      pop\n      pop\n        /* \"contracts/Utils.sol\":17918:18177  function Tokenprice(address token) public view returns(uint256){... */\n      swap2\n      swap1\n      pop\n      jump\t// out\n        /* \"contracts/Utils.sol\":18460:19308  function CalcLpPrice(LP lpAddress) public view returns(uint256){... */\n    tag_27:\n        /* \"contracts/Utils.sol\":18515:18522  uint256 */\n      0x00\n        /* \"contracts/Utils.sol\":18534:18548  uint256 phase1 */\n      dup1\n        /* \"contracts/Utils.sol\":18559:18573  uint256 phase2 */\n      0x00\n        /* \"contracts/Utils.sol\":18612:18621  lpAddress */\n      dup4\n        /* \"contracts/Utils.sol\":18612:18628  lpAddress.token0 */\n      0xffffffffffffffffffffffffffffffffffffffff\n      and\n      0x0dfe1681\n        /* \"contracts/Utils.sol\":18612:18630  lpAddress.token0() */\n      mload(0x40)\n      dup2\n      0xffffffff\n      and\n      0xe0\n      shl\n      dup2\n      mstore\n      0x04\n      add\n      0x20\n      mload(0x40)\n      dup1\n      dup4\n      sub\n      dup2\n      dup7\n      gas\n      staticcall\n      iszero\n      dup1\n      iszero\n      tag_92\n      jumpi\n      returndatasize\n      0x00\n      dup1\n      returndatacopy\n      revert(0x00, returndatasize)\n    tag_92:\n      pop\n      pop\n      pop\n      pop\n      mload(0x40)\n      returndatasize\n      not(0x1f)\n      0x1f\n      dup3\n      add\n      and\n      dup3\n      add\n      dup1\n      0x40\n      mstore\n      pop\n      dup2\n      add\n      swap1\n      tag_93\n      swap2\n      swap1\n      tag_94\n      jump\t// in\n    tag_93:\n        /* \"contracts/Utils.sol\":18587:18631  address(WBNB) == address(lpAddress.token0()) */\n      0xffffffffffffffffffffffffffffffffffffffff\n      and\n        /* \"contracts/Utils.sol\":18595:18599  WBNB */\n      0x01\n      0x00\n      swap1\n      sload\n      swap1\n      0x0100\n      exp\n      swap1\n      div\n      0xffffffffffffffffffffffffffffffffffffffff\n      and\n        /* \"contracts/Utils.sol\":18587:18631  address(WBNB) == address(lpAddress.token0()) */\n      0xffffffffffffffffffffffffffffffffffffffff\n      and\n      sub\n        /* \"contracts/Utils.sol\":18584:18897  if(address(WBNB) == address(lpAddress.token0())){... */\n      tag_95\n      jumpi\n        /* \"contracts/Utils.sol\":18657:18749  lpAddress.token0().balanceOf(address(lpAddress)).mul(WBNBPrice(address(lpAddress.token0()))) */\n      tag_96\n        /* \"contracts/Utils.sol\":18710:18748  WBNBPrice(address(lpAddress.token0())) */\n      tag_97\n        /* \"contracts/Utils.sol\":18728:18737  lpAddress */\n      dup6\n        /* \"contracts/Utils.sol\":18728:18744  lpAddress.token0 */\n      0xffffffffffffffffffffffffffffffffffffffff\n      and\n      0x0dfe1681\n        /* \"contracts/Utils.sol\":18728:18746  lpAddress.token0() */\n      mload(0x40)\n      dup2\n      0xffffffff\n      and\n      0xe0\n      shl\n      dup2\n      mstore\n      0x04\n      add\n      0x20\n      mload(0x40)\n      dup1\n      dup4\n      sub\n      dup2\n      dup7\n      gas\n      staticcall\n      iszero\n      dup1\n      iszero\n      tag_99\n      jumpi\n      returndatasize\n      0x00\n      dup1\n      returndatacopy\n      revert(0x00, returndatasize)\n    tag_99:\n      pop\n      pop\n      pop\n      pop\n      mload(0x40)\n      returndatasize\n      not(0x1f)\n      0x1f\n      dup3\n      add\n      and\n      dup3\n      add\n      dup1\n      0x40\n      mstore\n      pop\n      dup2\n      add\n      swap1\n      tag_100\n      swap2\n      swap1\n      tag_94\n      jump\t// in\n    tag_100:\n        /* \"contracts/Utils.sol\":18710:18719  WBNBPrice */\n      tag_35\n        /* \"contracts/Utils.sol\":18710:18748  WBNBPrice(address(lpAddress.token0())) */\n      jump\t// in\n    tag_97:\n        /* \"contracts/Utils.sol\":18657:18666  lpAddress */\n      dup6\n        /* \"contracts/Utils.sol\":18657:18673  lpAddress.token0 */\n      0xffffffffffffffffffffffffffffffffffffffff\n      and\n      0x0dfe1681\n        /* \"contracts/Utils.sol\":18657:18675  lpAddress.token0() */\n      mload(0x40)\n      dup2\n      0xffffffff\n      and\n      0xe0\n      shl\n      dup2\n      mstore\n      0x04\n      add\n      0x20\n      mload(0x40)\n      dup1\n      dup4\n      sub\n      dup2\n      dup7\n      gas\n      staticcall\n      iszero\n      dup1\n      iszero\n      tag_102\n      jumpi\n      returndatasize\n      0x00\n      dup1\n      returndatacopy\n      revert(0x00, returndatasize)\n    tag_102:\n      pop\n      pop\n      pop\n      pop\n      mload(0x40)\n      returndatasize\n      not(0x1f)\n      0x1f\n      dup3\n      add\n      and\n      dup3\n      add\n      dup1\n      0x40\n      mstore\n      pop\n      dup2\n      add\n      swap1\n      tag_103\n      swap2\n      swap1\n      tag_94\n      jump\t// in\n    tag_103:\n        /* \"contracts/Utils.sol\":18657:18685  lpAddress.token0().balanceOf */\n      0xffffffffffffffffffffffffffffffffffffffff\n      and\n      0x70a08231\n        /* \"contracts/Utils.sol\":18694:18703  lpAddress */\n      dup8\n        /* \"contracts/Utils.sol\":18657:18705  lpAddress.token0().balanceOf(address(lpAddress)) */\n      mload(0x40)\n      dup3\n      0xffffffff\n      and\n      0xe0\n      shl\n      dup2\n      mstore\n      0x04\n      add\n      tag_104\n      swap2\n      swap1\n      tag_40\n      jump\t// in\n    tag_104:\n      0x20\n      mload(0x40)\n      dup1\n      dup4\n      sub\n      dup2\n      dup7\n      gas\n      staticcall\n      iszero\n      dup1\n      iszero\n      tag_106\n      jumpi\n      returndatasize\n      0x00\n      dup1\n      returndatacopy\n      revert(0x00, returndatasize)\n    tag_106:\n      pop\n      pop\n      pop\n      pop\n      mload(0x40)\n      returndatasize\n      not(0x1f)\n      0x1f\n      dup3\n      add\n      and\n      dup3\n      add\n      dup1\n      0x40\n      mstore\n      pop\n      dup2\n      add\n      swap1\n      tag_107\n      swap2\n      swap1\n      tag_108\n      jump\t// in\n    tag_107:\n        /* \"contracts/Utils.sol\":18657:18709  lpAddress.token0().balanceOf(address(lpAddress)).mul */\n      tag_109\n      swap1\n        /* \"contracts/Utils.sol\":18657:18749  lpAddress.token0().balanceOf(address(lpAddress)).mul(WBNBPrice(address(lpAddress.token0()))) */\n      swap2\n      swap1\n      0xffffffff\n      and\n      jump\t// in\n    tag_96:\n        /* \"contracts/Utils.sol\":18647:18750  phase1 = (lpAddress.token0().balanceOf(address(lpAddress)).mul(WBNBPrice(address(lpAddress.token0())))) */\n      swap2\n      pop\n        /* \"contracts/Utils.sol\":18584:18897  if(address(WBNB) == address(lpAddress.token0())){... */\n      jump(tag_110)\n    tag_95:\n        /* \"contracts/Utils.sol\":18791:18884  lpAddress.token0().balanceOf(address(lpAddress)).mul(Tokenprice(address(lpAddress.token0()))) */\n      tag_111\n        /* \"contracts/Utils.sol\":18844:18883  Tokenprice(address(lpAddress.token0())) */\n      tag_112\n        /* \"contracts/Utils.sol\":18863:18872  lpAddress */\n      dup6\n        /* \"contracts/Utils.sol\":18863:18879  lpAddress.token0 */\n      0xffffffffffffffffffffffffffffffffffffffff\n      and\n      0x0dfe1681\n        /* \"contracts/Utils.sol\":18863:18881  lpAddress.token0() */\n      mload(0x40)\n      dup2\n      0xffffffff\n      and\n      0xe0\n      shl\n      dup2\n      mstore\n      0x04\n      add\n      0x20\n      mload(0x40)\n      dup1\n      dup4\n      sub\n      dup2\n      dup7\n      gas\n      staticcall\n      iszero\n      dup1\n      iszero\n      tag_114\n      jumpi\n      returndatasize\n      0x00\n      dup1\n      returndatacopy\n      revert(0x00, returndatasize)\n    tag_114:\n      pop\n      pop\n      pop\n      pop\n      mload(0x40)\n      returndatasize\n      not(0x1f)\n      0x1f\n      dup3\n      add\n      and\n      dup3\n      add\n      dup1\n      0x40\n      mstore\n      pop\n      dup2\n      add\n      swap1\n      tag_115\n      swap2\n      swap1\n      tag_94\n      jump\t// in\n    tag_115:\n        /* \"contracts/Utils.sol\":18844:18854  Tokenprice */\n      tag_21\n        /* \"contracts/Utils.sol\":18844:18883  Tokenprice(address(lpAddress.token0())) */\n      jump\t// in\n    tag_112:\n        /* \"contracts/Utils.sol\":18791:18800  lpAddress */\n      dup6\n        /* \"contracts/Utils.sol\":18791:18807  lpAddress.token0 */\n      0xffffffffffffffffffffffffffffffffffffffff\n      and\n      0x0dfe1681\n        /* \"contracts/Utils.sol\":18791:18809  lpAddress.token0() */\n      mload(0x40)\n      dup2\n      0xffffffff\n      and\n      0xe0\n      shl\n      dup2\n      mstore\n      0x04\n      add\n      0x20\n      mload(0x40)\n      dup1\n      dup4\n      sub\n      dup2\n      dup7\n      gas\n      staticcall\n      iszero\n      dup1\n      iszero\n      tag_117\n      jumpi\n      returndatasize\n      0x00\n      dup1\n      returndatacopy\n      revert(0x00, returndatasize)\n    tag_117:\n      pop\n      pop\n      pop\n      pop\n      mload(0x40)\n      returndatasize\n      not(0x1f)\n      0x1f\n      dup3\n      add\n      and\n      dup3\n      add\n      dup1\n      0x40\n      mstore\n      pop\n      dup2\n      add\n      swap1\n      tag_118\n      swap2\n      swap1\n      tag_94\n      jump\t// in\n    tag_118:\n        /* \"contracts/Utils.sol\":18791:18819  lpAddress.token0().balanceOf */\n      0xffffffffffffffffffffffffffffffffffffffff\n      and\n      0x70a08231\n        /* \"contracts/Utils.sol\":18828:18837  lpAddress */\n      dup8\n        /* \"contracts/Utils.sol\":18791:18839  lpAddress.token0().balanceOf(address(lpAddress)) */\n      mload(0x40)\n      dup3\n      0xffffffff\n      and\n      0xe0\n      shl\n      dup2\n      mstore\n      0x04\n      add\n      tag_119\n      swap2\n      swap1\n      tag_40\n      jump\t// in\n    tag_119:\n      0x20\n      mload(0x40)\n      dup1\n      dup4\n      sub\n      dup2\n      dup7\n      gas\n      staticcall\n      iszero\n      dup1\n      iszero\n      tag_121\n      jumpi\n      returndatasize\n      0x00\n      dup1\n      returndatacopy\n      revert(0x00, returndatasize)\n    tag_121:\n      pop\n      pop\n      pop\n      pop\n      mload(0x40)\n      returndatasize\n      not(0x1f)\n      0x1f\n      dup3\n      add\n      and\n      dup3\n      add\n      dup1\n      0x40\n      mstore\n      pop\n      dup2\n      add\n      swap1\n      tag_122\n      swap2\n      swap1\n      tag_108\n      jump\t// in\n    tag_122:\n        /* \"contracts/Utils.sol\":18791:18843  lpAddress.token0().balanceOf(address(lpAddress)).mul */\n      tag_109\n      swap1\n        /* \"contracts/Utils.sol\":18791:18884  lpAddress.token0().balanceOf(address(lpAddress)).mul(Tokenprice(address(lpAddress.token0()))) */\n      swap2\n      swap1\n      0xffffffff\n      and\n      jump\t// in\n    tag_111:\n        /* \"contracts/Utils.sol\":18781:18885  phase1 = (lpAddress.token0().balanceOf(address(lpAddress)).mul(Tokenprice(address(lpAddress.token0())))) */\n      swap2\n      pop\n        /* \"contracts/Utils.sol\":18584:18897  if(address(WBNB) == address(lpAddress.token0())){... */\n    tag_110:\n        /* \"contracts/Utils.sol\":18937:18946  lpAddress */\n      dup4\n        /* \"contracts/Utils.sol\":18937:18953  lpAddress.token1 */\n      0xffffffffffffffffffffffffffffffffffffffff\n      and\n      0xd21220a7\n        /* \"contracts/Utils.sol\":18937:18955  lpAddress.token1() */\n      mload(0x40)\n      dup2\n      0xffffffff\n      and\n      0xe0\n      shl\n      dup2\n      mstore\n      0x04\n      add\n      0x20\n      mload(0x40)\n      dup1\n      dup4\n      sub\n      dup2\n      dup7\n      gas\n      staticcall\n      iszero\n      dup1\n      iszero\n      tag_124\n      jumpi\n      returndatasize\n      0x00\n      dup1\n      returndatacopy\n      revert(0x00, returndatasize)\n    tag_124:\n      pop\n      pop\n      pop\n      pop\n      mload(0x40)\n      returndatasize\n      not(0x1f)\n      0x1f\n      dup3\n      add\n      and\n      dup3\n      add\n      dup1\n      0x40\n      mstore\n      pop\n      dup2\n      add\n      swap1\n      tag_125\n      swap2\n      swap1\n      tag_94\n      jump\t// in\n    tag_125:\n        /* \"contracts/Utils.sol\":18912:18956  address(WBNB) == address(lpAddress.token1()) */\n      0xffffffffffffffffffffffffffffffffffffffff\n      and\n        /* \"contracts/Utils.sol\":18920:18924  WBNB */\n      0x01\n      0x00\n      swap1\n      sload\n      swap1\n      0x0100\n      exp\n      swap1\n      div\n      0xffffffffffffffffffffffffffffffffffffffff\n      and\n        /* \"contracts/Utils.sol\":18912:18956  address(WBNB) == address(lpAddress.token1()) */\n      0xffffffffffffffffffffffffffffffffffffffff\n      and\n      sub\n        /* \"contracts/Utils.sol\":18909:19222  if(address(WBNB) == address(lpAddress.token1())){... */\n      tag_126\n      jumpi\n        /* \"contracts/Utils.sol\":18982:19074  lpAddress.token1().balanceOf(address(lpAddress)).mul(WBNBPrice(address(lpAddress.token1()))) */\n      tag_127\n        /* \"contracts/Utils.sol\":19035:19073  WBNBPrice(address(lpAddress.token1())) */\n      tag_128\n        /* \"contracts/Utils.sol\":19053:19062  lpAddress */\n      dup6\n        /* \"contracts/Utils.sol\":19053:19069  lpAddress.token1 */\n      0xffffffffffffffffffffffffffffffffffffffff\n      and\n      0xd21220a7\n        /* \"contracts/Utils.sol\":19053:19071  lpAddress.token1() */\n      mload(0x40)\n      dup2\n      0xffffffff\n      and\n      0xe0\n      shl\n      dup2\n      mstore\n      0x04\n      add\n      0x20\n      mload(0x40)\n      dup1\n      dup4\n      sub\n      dup2\n      dup7\n      gas\n      staticcall\n      iszero\n      dup1\n      iszero\n      tag_130\n      jumpi\n      returndatasize\n      0x00\n      dup1\n      returndatacopy\n      revert(0x00, returndatasize)\n    tag_130:\n      pop\n      pop\n      pop\n      pop\n      mload(0x40)\n      returndatasize\n      not(0x1f)\n      0x1f\n      dup3\n      add\n      and\n      dup3\n      add\n      dup1\n      0x40\n      mstore\n      pop\n      dup2\n      add\n      swap1\n      tag_131\n      swap2\n      swap1\n      tag_94\n      jump\t// in\n    tag_131:\n        /* \"contracts/Utils.sol\":19035:19044  WBNBPrice */\n      tag_35\n        /* \"contracts/Utils.sol\":19035:19073  WBNBPrice(address(lpAddress.token1())) */\n      jump\t// in\n    tag_128:\n        /* \"contracts/Utils.sol\":18982:18991  lpAddress */\n      dup6\n        /* \"contracts/Utils.sol\":18982:18998  lpAddress.token1 */\n      0xffffffffffffffffffffffffffffffffffffffff\n      and\n      0xd21220a7\n        /* \"contracts/Utils.sol\":18982:19000  lpAddress.token1() */\n      mload(0x40)\n      dup2\n      0xffffffff\n      and\n      0xe0\n      shl\n      dup2\n      mstore\n      0x04\n      add\n      0x20\n      mload(0x40)\n      dup1\n      dup4\n      sub\n      dup2\n      dup7\n      gas\n      staticcall\n      iszero\n      dup1\n      iszero\n      tag_133\n      jumpi\n      returndatasize\n      0x00\n      dup1\n      returndatacopy\n      revert(0x00, returndatasize)\n    tag_133:\n      pop\n      pop\n      pop\n      pop\n      mload(0x40)\n      returndatasize\n      not(0x1f)\n      0x1f\n      dup3\n      add\n      and\n      dup3\n      add\n      dup1\n      0x40\n      mstore\n      pop\n      dup2\n      add\n      swap1\n      tag_134\n      swap2\n      swap1\n      tag_94\n      jump\t// in\n    tag_134:\n        /* \"contracts/Utils.sol\":18982:19010  lpAddress.token1().balanceOf */\n      0xffffffffffffffffffffffffffffffffffffffff\n      and\n      0x70a08231\n        /* \"contracts/Utils.sol\":19019:19028  lpAddress */\n      dup8\n        /* \"contracts/Utils.sol\":18982:19030  lpAddress.token1().balanceOf(address(lpAddress)) */\n      mload(0x40)\n      dup3\n      0xffffffff\n      and\n      0xe0\n      shl\n      dup2\n      mstore\n      0x04\n      add\n      tag_135\n      swap2\n      swap1\n      tag_40\n      jump\t// in\n    tag_135:\n      0x20\n      mload(0x40)\n      dup1\n      dup4\n      sub\n      dup2\n      dup7\n      gas\n      staticcall\n      iszero\n      dup1\n      iszero\n      tag_137\n      jumpi\n      returndatasize\n      0x00\n      dup1\n      returndatacopy\n      revert(0x00, returndatasize)\n    tag_137:\n      pop\n      pop\n      pop\n      pop\n      mload(0x40)\n      returndatasize\n      not(0x1f)\n      0x1f\n      dup3\n      add\n      and\n      dup3\n      add\n      dup1\n      0x40\n      mstore\n      pop\n      dup2\n      add\n      swap1\n      tag_138\n      swap2\n      swap1\n      tag_108\n      jump\t// in\n    tag_138:\n        /* \"contracts/Utils.sol\":18982:19034  lpAddress.token1().balanceOf(address(lpAddress)).mul */\n      tag_109\n      swap1\n        /* \"contracts/Utils.sol\":18982:19074  lpAddress.token1().balanceOf(address(lpAddress)).mul(WBNBPrice(address(lpAddress.token1()))) */\n      swap2\n      swap1\n      0xffffffff\n      and\n      jump\t// in\n    tag_127:\n        /* \"contracts/Utils.sol\":18972:19075  phase2 = (lpAddress.token1().balanceOf(address(lpAddress)).mul(WBNBPrice(address(lpAddress.token1())))) */\n      swap1\n      pop\n        /* \"contracts/Utils.sol\":18909:19222  if(address(WBNB) == address(lpAddress.token1())){... */\n      jump(tag_139)\n    tag_126:\n        /* \"contracts/Utils.sol\":19116:19209  lpAddress.token1().balanceOf(address(lpAddress)).mul(Tokenprice(address(lpAddress.token1()))) */\n      tag_140\n        /* \"contracts/Utils.sol\":19169:19208  Tokenprice(address(lpAddress.token1())) */\n      tag_141\n        /* \"contracts/Utils.sol\":19188:19197  lpAddress */\n      dup6\n        /* \"contracts/Utils.sol\":19188:19204  lpAddress.token1 */\n      0xffffffffffffffffffffffffffffffffffffffff\n      and\n      0xd21220a7\n        /* \"contracts/Utils.sol\":19188:19206  lpAddress.token1() */\n      mload(0x40)\n      dup2\n      0xffffffff\n      and\n      0xe0\n      shl\n      dup2\n      mstore\n      0x04\n      add\n      0x20\n      mload(0x40)\n      dup1\n      dup4\n      sub\n      dup2\n      dup7\n      gas\n      staticcall\n      iszero\n      dup1\n      iszero\n      tag_143\n      jumpi\n      returndatasize\n      0x00\n      dup1\n      returndatacopy\n      revert(0x00, returndatasize)\n    tag_143:\n      pop\n      pop\n      pop\n      pop\n      mload(0x40)\n      returndatasize\n      not(0x1f)\n      0x1f\n      dup3\n      add\n      and\n      dup3\n      add\n      dup1\n      0x40\n      mstore\n      pop\n      dup2\n      add\n      swap1\n      tag_144\n      swap2\n      swap1\n      tag_94\n      jump\t// in\n    tag_144:\n        /* \"contracts/Utils.sol\":19169:19179  Tokenprice */\n      tag_21\n        /* \"contracts/Utils.sol\":19169:19208  Tokenprice(address(lpAddress.token1())) */\n      jump\t// in\n    tag_141:\n        /* \"contracts/Utils.sol\":19116:19125  lpAddress */\n      dup6\n        /* \"contracts/Utils.sol\":19116:19132  lpAddress.token1 */\n      0xffffffffffffffffffffffffffffffffffffffff\n      and\n      0xd21220a7\n        /* \"contracts/Utils.sol\":19116:19134  lpAddress.token1() */\n      mload(0x40)\n      dup2\n      0xffffffff\n      and\n      0xe0\n      shl\n      dup2\n      mstore\n      0x04\n      add\n      0x20\n      mload(0x40)\n      dup1\n      dup4\n      sub\n      dup2\n      dup7\n      gas\n      staticcall\n      iszero\n      dup1\n      iszero\n      tag_146\n      jumpi\n      returndatasize\n      0x00\n      dup1\n      returndatacopy\n      revert(0x00, returndatasize)\n    tag_146:\n      pop\n      pop\n      pop\n      pop\n      mload(0x40)\n      returndatasize\n      not(0x1f)\n      0x1f\n      dup3\n      add\n      and\n      dup3\n      add\n      dup1\n      0x40\n      mstore\n      pop\n      dup2\n      add\n      swap1\n      tag_147\n      swap2\n      swap1\n      tag_94\n      jump\t// in\n    tag_147:\n        /* \"contracts/Utils.sol\":19116:19144  lpAddress.token1().balanceOf */\n      0xffffffffffffffffffffffffffffffffffffffff\n      and\n      0x70a08231\n        /* \"contracts/Utils.sol\":19153:19162  lpAddress */\n      dup8\n        /* \"contracts/Utils.sol\":19116:19164  lpAddress.token1().balanceOf(address(lpAddress)) */\n      mload(0x40)\n      dup3\n      0xffffffff\n      and\n      0xe0\n      shl\n      dup2\n      mstore\n      0x04\n      add\n      tag_148\n      swap2\n      swap1\n      tag_40\n      jump\t// in\n    tag_148:\n      0x20\n      mload(0x40)\n      dup1\n      dup4\n      sub\n      dup2\n      dup7\n      gas\n      staticcall\n      iszero\n      dup1\n      iszero\n      tag_150\n      jumpi\n      returndatasize\n      0x00\n      dup1\n      returndatacopy\n      revert(0x00, returndatasize)\n    tag_150:\n      pop\n      pop\n      pop\n      pop\n      mload(0x40)\n      returndatasize\n      not(0x1f)\n      0x1f\n      dup3\n      add\n      and\n      dup3\n      add\n      dup1\n      0x40\n      mstore\n      pop\n      dup2\n      add\n      swap1\n      tag_151\n      swap2\n      swap1\n      tag_108\n      jump\t// in\n    tag_151:\n        /* \"contracts/Utils.sol\":19116:19168  lpAddress.token1().balanceOf(address(lpAddress)).mul */\n      tag_109\n      swap1\n        /* \"contracts/Utils.sol\":19116:19209  lpAddress.token1().balanceOf(address(lpAddress)).mul(Tokenprice(address(lpAddress.token1()))) */\n      swap2\n      swap1\n      0xffffffff\n      and\n      jump\t// in\n    tag_140:\n        /* \"contracts/Utils.sol\":19106:19210  phase2 = (lpAddress.token1().balanceOf(address(lpAddress)).mul(Tokenprice(address(lpAddress.token1())))) */\n      swap1\n      pop\n        /* \"contracts/Utils.sol\":18909:19222  if(address(WBNB) == address(lpAddress.token1())){... */\n    tag_139:\n        /* \"contracts/Utils.sol\":19250:19299  (phase1.add(phase2)).div(lpAddress.totalSupply()) */\n      tag_152\n        /* \"contracts/Utils.sol\":19275:19284  lpAddress */\n      dup5\n        /* \"contracts/Utils.sol\":19275:19296  lpAddress.totalSupply */\n      0xffffffffffffffffffffffffffffffffffffffff\n      and\n      0x18160ddd\n        /* \"contracts/Utils.sol\":19275:19298  lpAddress.totalSupply() */\n      mload(0x40)\n      dup2\n      0xffffffff\n      and\n      0xe0\n      shl\n      dup2\n      mstore\n      0x04\n      add\n      0x20\n      mload(0x40)\n      dup1\n      dup4\n      sub\n      dup2\n      dup7\n      gas\n      staticcall\n      iszero\n      dup1\n      iszero\n      tag_154\n      jumpi\n      returndatasize\n      0x00\n      dup1\n      returndatacopy\n      revert(0x00, returndatasize)\n    tag_154:\n      pop\n      pop\n      pop\n      pop\n      mload(0x40)\n      returndatasize\n      not(0x1f)\n      0x1f\n      dup3\n      add\n      and\n      dup3\n      add\n      dup1\n      0x40\n      mstore\n      pop\n      dup2\n      add\n      swap1\n      tag_155\n      swap2\n      swap1\n      tag_108\n      jump\t// in\n    tag_155:\n        /* \"contracts/Utils.sol\":19251:19269  phase1.add(phase2) */\n      tag_156\n        /* \"contracts/Utils.sol\":19262:19268  phase2 */\n      dup4\n        /* \"contracts/Utils.sol\":19251:19257  phase1 */\n      dup6\n        /* \"contracts/Utils.sol\":19251:19261  phase1.add */\n      tag_157\n      swap1\n        /* \"contracts/Utils.sol\":19251:19269  phase1.add(phase2) */\n      swap2\n      swap1\n      0xffffffff\n      and\n      jump\t// in\n    tag_156:\n        /* \"contracts/Utils.sol\":19250:19274  (phase1.add(phase2)).div */\n      tag_158\n      swap1\n        /* \"contracts/Utils.sol\":19250:19299  (phase1.add(phase2)).div(lpAddress.totalSupply()) */\n      swap2\n      swap1\n      0xffffffff\n      and\n      jump\t// in\n    tag_152:\n        /* \"contracts/Utils.sol\":19242:19300  return ((phase1.add(phase2)).div(lpAddress.totalSupply())) */\n      swap3\n      pop\n      pop\n      pop\n        /* \"contracts/Utils.sol\":18460:19308  function CalcLpPrice(LP lpAddress) public view returns(uint256){... */\n      swap2\n      swap1\n      pop\n      jump\t// out\n        /* \"contracts/Utils.sol\":17535:17562  Router public routerAddress */\n    tag_30:\n      0x04\n      0x00\n      swap1\n      sload\n      swap1\n      0x0100\n      exp\n      swap1\n      div\n      0xffffffffffffffffffffffffffffffffffffffff\n      and\n      dup2\n      jump\t// out\n        /* \"contracts/Utils.sol\":18202:18435  function WBNBPrice(address token) public view returns(uint256){... */\n    tag_35:\n        /* \"contracts/Utils.sol\":18256:18263  uint256 */\n      0x00\n        /* \"contracts/Utils.sol\":18275:18296  address[] memory path */\n      dup1\n        /* \"contracts/Utils.sol\":18313:18314  2 */\n      0x02\n        /* \"contracts/Utils.sol\":18299:18315  new address[](2) */\n      0xffffffffffffffff\n      dup2\n      gt\n      iszero\n      tag_160\n      jumpi\n      tag_161\n      tag_73\n      jump\t// in\n    tag_161:\n    tag_160:\n      mload(0x40)\n      swap1\n      dup1\n      dup3\n      mstore\n      dup1\n      0x20\n      mul\n      0x20\n      add\n      dup3\n      add\n      0x40\n      mstore\n      dup1\n      iszero\n      tag_162\n      jumpi\n      dup2\n      0x20\n      add\n      0x20\n      dup3\n      mul\n      dup1\n      calldatasize\n      dup4\n      calldatacopy\n      dup1\n      dup3\n      add\n      swap2\n      pop\n      pop\n      swap1\n      pop\n    tag_162:\n      pop\n        /* \"contracts/Utils.sol\":18275:18315  address[] memory path = new address[](2) */\n      swap1\n      pop\n        /* \"contracts/Utils.sol\":18336:18341  token */\n      dup3\n        /* \"contracts/Utils.sol\":18326:18330  path */\n      dup2\n        /* \"contracts/Utils.sol\":18331:18332  0 */\n      0x00\n        /* \"contracts/Utils.sol\":18326:18333  path[0] */\n      dup2\n      mload\n      dup2\n      lt\n      tag_163\n      jumpi\n      tag_164\n      tag_77\n      jump\t// in\n    tag_164:\n    tag_163:\n      0x20\n      mul\n      0x20\n      add\n      add\n        /* \"contracts/Utils.sol\":18326:18341  path[0] = token */\n      swap1\n      0xffffffffffffffffffffffffffffffffffffffff\n      and\n      swap1\n      dup2\n      0xffffffffffffffffffffffffffffffffffffffff\n      and\n      dup2\n      mstore\n      pop\n      pop\n        /* \"contracts/Utils.sol\":18362:18366  BUSD */\n      0x02\n      0x00\n      swap1\n      sload\n      swap1\n      0x0100\n      exp\n      swap1\n      div\n      0xffffffffffffffffffffffffffffffffffffffff\n      and\n        /* \"contracts/Utils.sol\":18352:18356  path */\n      dup2\n        /* \"contracts/Utils.sol\":18357:18358  1 */\n      0x01\n        /* \"contracts/Utils.sol\":18352:18359  path[1] */\n      dup2\n      mload\n      dup2\n      lt\n      tag_165\n      jumpi\n      tag_166\n      tag_77\n      jump\t// in\n    tag_166:\n    tag_165:\n      0x20\n      mul\n      0x20\n      add\n      add\n        /* \"contracts/Utils.sol\":18352:18366  path[1] = BUSD */\n      swap1\n      0xffffffffffffffffffffffffffffffffffffffff\n      and\n      swap1\n      dup2\n      0xffffffffffffffffffffffffffffffffffffffff\n      and\n      dup2\n      mstore\n      pop\n      pop\n        /* \"contracts/Utils.sol\":18384:18397  routerAddress */\n      0x04\n      0x00\n      swap1\n      sload\n      swap1\n      0x0100\n      exp\n      swap1\n      div\n      0xffffffffffffffffffffffffffffffffffffffff\n      and\n        /* \"contracts/Utils.sol\":18384:18411  routerAddress.getAmountsOut */\n      0xffffffffffffffffffffffffffffffffffffffff\n      and\n      0xd06ca61f\n        /* \"contracts/Utils.sol\":18412:18418  amount */\n      sload(0x03)\n        /* \"contracts/Utils.sol\":18419:18423  path */\n      dup4\n        /* \"contracts/Utils.sol\":18384:18424  routerAddress.getAmountsOut(amount,path) */\n      mload(0x40)\n      dup4\n      0xffffffff\n      and\n      0xe0\n      shl\n      dup2\n      mstore\n      0x04\n      add\n      tag_167\n      swap3\n      swap2\n      swap1\n      tag_83\n      jump\t// in\n    tag_167:\n      0x00\n      mload(0x40)\n      dup1\n      dup4\n      sub\n      dup2\n      dup7\n      gas\n      staticcall\n      iszero\n      dup1\n      iszero\n      tag_169\n      jumpi\n      returndatasize\n      0x00\n      dup1\n      returndatacopy\n      revert(0x00, returndatasize)\n    tag_169:\n      pop\n      pop\n      pop\n      pop\n      mload(0x40)\n      returndatasize\n      0x00\n      dup3\n      returndatacopy\n      returndatasize\n      not(0x1f)\n      0x1f\n      dup3\n      add\n      and\n      dup3\n      add\n      dup1\n      0x40\n      mstore\n      pop\n      dup2\n      add\n      swap1\n      tag_170\n      swap2\n      swap1\n      tag_87\n      jump\t// in\n    tag_170:\n        /* \"contracts/Utils.sol\":18425:18426  1 */\n      0x01\n        /* \"contracts/Utils.sol\":18384:18427  routerAddress.getAmountsOut(amount,path)[1] */\n      dup2\n      mload\n      dup2\n      lt\n      tag_171\n      jumpi\n      tag_172\n      tag_77\n      jump\t// in\n    tag_172:\n    tag_171:\n      0x20\n      mul\n      0x20\n      add\n      add\n      mload\n        /* \"contracts/Utils.sol\":18377:18427  return routerAddress.getAmountsOut(amount,path)[1] */\n      swap2\n      pop\n      pop\n        /* \"contracts/Utils.sol\":18202:18435  function WBNBPrice(address token) public view returns(uint256){... */\n      swap2\n      swap1\n      pop\n      jump\t// out\n        /* \"contracts/Utils.sol\":17466:17485  address public BUSD */\n    tag_38:\n      0x02\n      0x00\n      swap1\n      sload\n      swap1\n      0x0100\n      exp\n      swap1\n      div\n      0xffffffffffffffffffffffffffffffffffffffff\n      and\n      dup2\n      jump\t// out\n        /* \"contracts/Utils.sol\":14500:14603  function renounceOwnership() public virtual onlyOwner {... */\n    tag_42:\n        /* \"contracts/Utils.sol\":14080:14092  _msgSender() */\n      tag_174\n        /* \"contracts/Utils.sol\":14080:14090  _msgSender */\n      tag_175\n        /* \"contracts/Utils.sol\":14080:14092  _msgSender() */\n      jump\t// in\n    tag_174:\n        /* \"contracts/Utils.sol\":14069:14092  owner() == _msgSender() */\n      0xffffffffffffffffffffffffffffffffffffffff\n      and\n        /* \"contracts/Utils.sol\":14069:14076  owner() */\n      tag_176\n        /* \"contracts/Utils.sol\":14069:14074  owner */\n      tag_49\n        /* \"contracts/Utils.sol\":14069:14076  owner() */\n      jump\t// in\n    tag_176:\n        /* \"contracts/Utils.sol\":14069:14092  owner() == _msgSender() */\n      0xffffffffffffffffffffffffffffffffffffffff\n      and\n      eq\n        /* \"contracts/Utils.sol\":14061:14129  require(owner() == _msgSender(), \"Ownable: caller is not the owner\") */\n      tag_177\n      jumpi\n      mload(0x40)\n      0x08c379a000000000000000000000000000000000000000000000000000000000\n      dup2\n      mstore\n      0x04\n      add\n      tag_178\n      swap1\n      tag_179\n      jump\t// in\n    tag_178:\n      mload(0x40)\n      dup1\n      swap2\n      sub\n      swap1\n      revert\n    tag_177:\n        /* \"contracts/Utils.sol\":14565:14595  _transferOwnership(address(0)) */\n      tag_181\n        /* \"contracts/Utils.sol\":14592:14593  0 */\n      0x00\n        /* \"contracts/Utils.sol\":14565:14583  _transferOwnership */\n      tag_182\n        /* \"contracts/Utils.sol\":14565:14595  _transferOwnership(address(0)) */\n      jump\t// in\n    tag_181:\n        /* \"contracts/Utils.sol\":14500:14603  function renounceOwnership() public virtual onlyOwner {... */\n      jump\t// out\n        /* \"contracts/Utils.sol\":20620:20709  function CalcTotalTVL(MetaMasterChef MasterChef) external view returns(uint256){... */\n    tag_46:\n        /* \"contracts/Utils.sol\":20691:20698  uint256 */\n      0x00\n        /* \"contracts/Utils.sol\":20620:20709  function CalcTotalTVL(MetaMasterChef MasterChef) external view returns(uint256){... */\n      swap2\n      swap1\n      pop\n      jump\t// out\n        /* \"contracts/Utils.sol\":13849:13936  function owner() public view virtual returns (address) {... */\n    tag_49:\n        /* \"contracts/Utils.sol\":13895:13902  address */\n      0x00\n        /* \"contracts/Utils.sol\":13922:13928  _owner */\n      dup1\n      0x00\n      swap1\n      sload\n      swap1\n      0x0100\n      exp\n      swap1\n      div\n      0xffffffffffffffffffffffffffffffffffffffff\n      and\n        /* \"contracts/Utils.sol\":13915:13928  return _owner */\n      swap1\n      pop\n        /* \"contracts/Utils.sol\":13849:13936  function owner() public view virtual returns (address) {... */\n      swap1\n      jump\t// out\n        /* \"contracts/Utils.sol\":17440:17459  address public WBNB */\n    tag_52:\n      0x01\n      0x00\n      swap1\n      sload\n      swap1\n      0x0100\n      exp\n      swap1\n      div\n      0xffffffffffffffffffffffffffffffffffffffff\n      and\n      dup2\n      jump\t// out\n        /* \"contracts/Utils.sol\":17786:17893  function setRouter(Router _routerAddress) public onlyOwner{... */\n    tag_57:\n        /* \"contracts/Utils.sol\":14080:14092  _msgSender() */\n      tag_186\n        /* \"contracts/Utils.sol\":14080:14090  _msgSender */\n      tag_175\n        /* \"contracts/Utils.sol\":14080:14092  _msgSender() */\n      jump\t// in\n    tag_186:\n        /* \"contracts/Utils.sol\":14069:14092  owner() == _msgSender() */\n      0xffffffffffffffffffffffffffffffffffffffff\n      and\n        /* \"contracts/Utils.sol\":14069:14076  owner() */\n      tag_187\n        /* \"contracts/Utils.sol\":14069:14074  owner */\n      tag_49\n        /* \"contracts/Utils.sol\":14069:14076  owner() */\n      jump\t// in\n    tag_187:\n        /* \"contracts/Utils.sol\":14069:14092  owner() == _msgSender() */\n      0xffffffffffffffffffffffffffffffffffffffff\n      and\n      eq\n        /* \"contracts/Utils.sol\":14061:14129  require(owner() == _msgSender(), \"Ownable: caller is not the owner\") */\n      tag_188\n      jumpi\n      mload(0x40)\n      0x08c379a000000000000000000000000000000000000000000000000000000000\n      dup2\n      mstore\n      0x04\n      add\n      tag_189\n      swap1\n      tag_179\n      jump\t// in\n    tag_189:\n      mload(0x40)\n      dup1\n      swap2\n      sub\n      swap1\n      revert\n    tag_188:\n        /* \"contracts/Utils.sol\":17871:17885  _routerAddress */\n      dup1\n        /* \"contracts/Utils.sol\":17855:17868  routerAddress */\n      0x04\n      0x00\n        /* \"contracts/Utils.sol\":17855:17885  routerAddress = _routerAddress */\n      0x0100\n      exp\n      dup2\n      sload\n      dup2\n      0xffffffffffffffffffffffffffffffffffffffff\n      mul\n      not\n      and\n      swap1\n      dup4\n      0xffffffffffffffffffffffffffffffffffffffff\n      and\n      mul\n      or\n      swap1\n      sstore\n      pop\n        /* \"contracts/Utils.sol\":17786:17893  function setRouter(Router _routerAddress) public onlyOwner{... */\n      pop\n      jump\t// out\n        /* \"contracts/Utils.sol\":19331:19902  function calcPoolTVLInUSD(uint256 pid, LP lpAddress, uint256 isLp, MetaMasterChef MasterChef) public view returns(uint256){... */\n    tag_61:\n        /* \"contracts/Utils.sol\":19445:19452  uint256 */\n      0x00\n        /* \"contracts/Utils.sol\":19464:19479  uint256 Balance */\n      dup1\n        /* \"contracts/Utils.sol\":19482:19492  MasterChef */\n      dup3\n        /* \"contracts/Utils.sol\":19482:19504  MasterChef.poolBalance */\n      0xffffffffffffffffffffffffffffffffffffffff\n      and\n      0x6a6d964e\n        /* \"contracts/Utils.sol\":19505:19508  pid */\n      dup8\n        /* \"contracts/Utils.sol\":19482:19509  MasterChef.poolBalance(pid) */\n      mload(0x40)\n      dup3\n      0xffffffff\n      and\n      0xe0\n      shl\n      dup2\n      mstore\n      0x04\n      add\n      tag_192\n      swap2\n      swap1\n      tag_23\n      jump\t// in\n    tag_192:\n      0x20\n      mload(0x40)\n      dup1\n      dup4\n      sub\n      dup2\n      dup7\n      gas\n      staticcall\n      iszero\n      dup1\n      iszero\n      tag_194\n      jumpi\n      returndatasize\n      0x00\n      dup1\n      returndatacopy\n      revert(0x00, returndatasize)\n    tag_194:\n      pop\n      pop\n      pop\n      pop\n      mload(0x40)\n      returndatasize\n      not(0x1f)\n      0x1f\n      dup3\n      add\n      and\n      dup3\n      add\n      dup1\n      0x40\n      mstore\n      pop\n      dup2\n      add\n      swap1\n      tag_195\n      swap2\n      swap1\n      tag_108\n      jump\t// in\n    tag_195:\n        /* \"contracts/Utils.sol\":19464:19509  uint256 Balance = MasterChef.poolBalance(pid) */\n      swap1\n      pop\n        /* \"contracts/Utils.sol\":19520:19533  uint256 price */\n      0x00\n        /* \"contracts/Utils.sol\":19555:19556  1 */\n      0x01\n        /* \"contracts/Utils.sol\":19547:19551  isLp */\n      dup6\n        /* \"contracts/Utils.sol\":19547:19556  isLp == 1 */\n      sub\n        /* \"contracts/Utils.sol\":19544:19846  if(isLp == 1){... */\n      tag_196\n      jumpi\n        /* \"contracts/Utils.sol\":19580:19602  CalcLpPrice(lpAddress) */\n      tag_197\n        /* \"contracts/Utils.sol\":19592:19601  lpAddress */\n      dup7\n        /* \"contracts/Utils.sol\":19580:19591  CalcLpPrice */\n      tag_27\n        /* \"contracts/Utils.sol\":19580:19602  CalcLpPrice(lpAddress) */\n      jump\t// in\n    tag_197:\n        /* \"contracts/Utils.sol\":19572:19602  price = CalcLpPrice(lpAddress) */\n      swap1\n      pop\n        /* \"contracts/Utils.sol\":19544:19846  if(isLp == 1){... */\n      jump(tag_198)\n    tag_196:\n        /* \"contracts/Utils.sol\":19630:19631  0 */\n      0x00\n        /* \"contracts/Utils.sol\":19622:19626  isLp */\n      dup6\n        /* \"contracts/Utils.sol\":19622:19631  isLp == 0 */\n      sub\n        /* \"contracts/Utils.sol\":19619:19846  if(isLp == 0){... */\n      tag_199\n      jumpi\n        /* \"contracts/Utils.sol\":19675:19684  lpAddress */\n      dup6\n        /* \"contracts/Utils.sol\":19650:19685  address(WBNB) == address(lpAddress) */\n      0xffffffffffffffffffffffffffffffffffffffff\n      and\n        /* \"contracts/Utils.sol\":19658:19662  WBNB */\n      0x01\n      0x00\n      swap1\n      sload\n      swap1\n      0x0100\n      exp\n      swap1\n      div\n      0xffffffffffffffffffffffffffffffffffffffff\n      and\n        /* \"contracts/Utils.sol\":19650:19685  address(WBNB) == address(lpAddress) */\n      0xffffffffffffffffffffffffffffffffffffffff\n      and\n      sub\n        /* \"contracts/Utils.sol\":19647:19835  if(address(WBNB) == address(lpAddress)){... */\n      tag_200\n      jumpi\n        /* \"contracts/Utils.sol\":19713:19742  WBNBPrice(address(lpAddress)) */\n      tag_201\n        /* \"contracts/Utils.sol\":19731:19740  lpAddress */\n      dup7\n        /* \"contracts/Utils.sol\":19713:19722  WBNBPrice */\n      tag_35\n        /* \"contracts/Utils.sol\":19713:19742  WBNBPrice(address(lpAddress)) */\n      jump\t// in\n    tag_201:\n        /* \"contracts/Utils.sol\":19705:19742  price = WBNBPrice(address(lpAddress)) */\n      swap1\n      pop\n        /* \"contracts/Utils.sol\":19647:19835  if(address(WBNB) == address(lpAddress)){... */\n      jump(tag_202)\n    tag_200:\n        /* \"contracts/Utils.sol\":19789:19819  Tokenprice(address(lpAddress)) */\n      tag_203\n        /* \"contracts/Utils.sol\":19808:19817  lpAddress */\n      dup7\n        /* \"contracts/Utils.sol\":19789:19799  Tokenprice */\n      tag_21\n        /* \"contracts/Utils.sol\":19789:19819  Tokenprice(address(lpAddress)) */\n      jump\t// in\n    tag_203:\n        /* \"contracts/Utils.sol\":19781:19819  price = Tokenprice(address(lpAddress)) */\n      swap1\n      pop\n        /* \"contracts/Utils.sol\":19647:19835  if(address(WBNB) == address(lpAddress)){... */\n    tag_202:\n        /* \"contracts/Utils.sol\":19619:19846  if(isLp == 0){... */\n    tag_199:\n        /* \"contracts/Utils.sol\":19544:19846  if(isLp == 1){... */\n    tag_198:\n        /* \"contracts/Utils.sol\":19865:19894  (Balance * price).div(amount) */\n      tag_204\n        /* \"contracts/Utils.sol\":19887:19893  amount */\n      sload(0x03)\n        /* \"contracts/Utils.sol\":19876:19881  price */\n      dup3\n        /* \"contracts/Utils.sol\":19866:19873  Balance */\n      dup5\n        /* \"contracts/Utils.sol\":19866:19881  Balance * price */\n      tag_205\n      swap2\n      swap1\n      tag_206\n      jump\t// in\n    tag_205:\n        /* \"contracts/Utils.sol\":19865:19886  (Balance * price).div */\n      tag_158\n      swap1\n        /* \"contracts/Utils.sol\":19865:19894  (Balance * price).div(amount) */\n      swap2\n      swap1\n      0xffffffff\n      and\n      jump\t// in\n    tag_204:\n        /* \"contracts/Utils.sol\":19858:19894  return (Balance * price).div(amount) */\n      swap3\n      pop\n      pop\n      pop\n        /* \"contracts/Utils.sol\":19331:19902  function calcPoolTVLInUSD(uint256 pid, LP lpAddress, uint256 isLp, MetaMasterChef MasterChef) public view returns(uint256){... */\n      swap5\n      swap4\n      pop\n      pop\n      pop\n      pop\n      jump\t// out\n        /* \"contracts/Utils.sol\":19910:20612  function CalcApy(uint256 pid, LP lpAddress,uint256 isLp, MetaMasterChef MasterChef) external view returns(uint256){... */\n    tag_65:\n        /* \"contracts/Utils.sol\":20016:20023  uint256 */\n      0x00\n        /* \"contracts/Utils.sol\":20035:20055  PoolInfo memory pool */\n      dup1\n        /* \"contracts/Utils.sol\":20058:20068  MasterChef */\n      dup3\n        /* \"contracts/Utils.sol\":20058:20077  MasterChef.poolInfo */\n      0xffffffffffffffffffffffffffffffffffffffff\n      and\n      0x1526fe27\n        /* \"contracts/Utils.sol\":20078:20081  pid */\n      dup8\n        /* \"contracts/Utils.sol\":20058:20082  MasterChef.poolInfo(pid) */\n      mload(0x40)\n      dup3\n      0xffffffff\n      and\n      0xe0\n      shl\n      dup2\n      mstore\n      0x04\n      add\n      tag_208\n      swap2\n      swap1\n      tag_23\n      jump\t// in\n    tag_208:\n      0xc0\n      mload(0x40)\n      dup1\n      dup4\n      sub\n      dup2\n      dup7\n      gas\n      staticcall\n      iszero\n      dup1\n      iszero\n      tag_210\n      jumpi\n      returndatasize\n      0x00\n      dup1\n      returndatacopy\n      revert(0x00, returndatasize)\n    tag_210:\n      pop\n      pop\n      pop\n      pop\n      mload(0x40)\n      returndatasize\n      not(0x1f)\n      0x1f\n      dup3\n      add\n      and\n      dup3\n      add\n      dup1\n      0x40\n      mstore\n      pop\n      dup2\n      add\n      swap1\n      tag_211\n      swap2\n      swap1\n      tag_212\n      jump\t// in\n    tag_211:\n        /* \"contracts/Utils.sol\":20035:20082  PoolInfo memory pool = MasterChef.poolInfo(pid) */\n      swap1\n      pop\n        /* \"contracts/Utils.sol\":20093:20111  uint256 poolWeight */\n      0x00\n        /* \"contracts/Utils.sol\":20114:20179  ((pool.allocPoint).mul(amount)).div(MasterChef.totalAllocPoint()) */\n      tag_213\n        /* \"contracts/Utils.sol\":20150:20160  MasterChef */\n      dup5\n        /* \"contracts/Utils.sol\":20150:20176  MasterChef.totalAllocPoint */\n      0xffffffffffffffffffffffffffffffffffffffff\n      and\n      0x17caf6f1\n        /* \"contracts/Utils.sol\":20150:20178  MasterChef.totalAllocPoint() */\n      mload(0x40)\n      dup2\n      0xffffffff\n      and\n      0xe0\n      shl\n      dup2\n      mstore\n      0x04\n      add\n      0x20\n      mload(0x40)\n      dup1\n      dup4\n      sub\n      dup2\n      dup7\n      gas\n      staticcall\n      iszero\n      dup1\n      iszero\n      tag_215\n      jumpi\n      returndatasize\n      0x00\n      dup1\n      returndatacopy\n      revert(0x00, returndatasize)\n    tag_215:\n      pop\n      pop\n      pop\n      pop\n      mload(0x40)\n      returndatasize\n      not(0x1f)\n      0x1f\n      dup3\n      add\n      and\n      dup3\n      add\n      dup1\n      0x40\n      mstore\n      pop\n      dup2\n      add\n      swap1\n      tag_216\n      swap2\n      swap1\n      tag_108\n      jump\t// in\n    tag_216:\n        /* \"contracts/Utils.sol\":20115:20144  (pool.allocPoint).mul(amount) */\n      tag_217\n        /* \"contracts/Utils.sol\":20137:20143  amount */\n      sload(0x03)\n        /* \"contracts/Utils.sol\":20116:20120  pool */\n      dup6\n        /* \"contracts/Utils.sol\":20116:20131  pool.allocPoint */\n      0x20\n      add\n      mload\n        /* \"contracts/Utils.sol\":20115:20136  (pool.allocPoint).mul */\n      tag_109\n      swap1\n        /* \"contracts/Utils.sol\":20115:20144  (pool.allocPoint).mul(amount) */\n      swap2\n      swap1\n      0xffffffff\n      and\n      jump\t// in\n    tag_217:\n        /* \"contracts/Utils.sol\":20114:20149  ((pool.allocPoint).mul(amount)).div */\n      tag_158\n      swap1\n        /* \"contracts/Utils.sol\":20114:20179  ((pool.allocPoint).mul(amount)).div(MasterChef.totalAllocPoint()) */\n      swap2\n      swap1\n      0xffffffff\n      and\n      jump\t// in\n    tag_213:\n        /* \"contracts/Utils.sol\":20093:20179  uint256 poolWeight = ((pool.allocPoint).mul(amount)).div(MasterChef.totalAllocPoint()) */\n      swap1\n      pop\n        /* \"contracts/Utils.sol\":20190:20214  uint256 rewardTokenPrice */\n      0x00\n        /* \"contracts/Utils.sol\":20217:20245  Tokenprice(MasterChef.DRG()) */\n      tag_218\n        /* \"contracts/Utils.sol\":20228:20238  MasterChef */\n      dup6\n        /* \"contracts/Utils.sol\":20228:20242  MasterChef.DRG */\n      0xffffffffffffffffffffffffffffffffffffffff\n      and\n      0x141aa0ba\n        /* \"contracts/Utils.sol\":20228:20244  MasterChef.DRG() */\n      mload(0x40)\n      dup2\n      0xffffffff\n      and\n      0xe0\n      shl\n      dup2\n      mstore\n      0x04\n      add\n      0x20\n      mload(0x40)\n      dup1\n      dup4\n      sub\n      dup2\n      dup7\n      gas\n      staticcall\n      iszero\n      dup1\n      iszero\n      tag_220\n      jumpi\n      returndatasize\n      0x00\n      dup1\n      returndatacopy\n      revert(0x00, returndatasize)\n    tag_220:\n      pop\n      pop\n      pop\n      pop\n      mload(0x40)\n      returndatasize\n      not(0x1f)\n      0x1f\n      dup3\n      add\n      and\n      dup3\n      add\n      dup1\n      0x40\n      mstore\n      pop\n      dup2\n      add\n      swap1\n      tag_221\n      swap2\n      swap1\n      tag_222\n      jump\t// in\n    tag_221:\n        /* \"contracts/Utils.sol\":20217:20227  Tokenprice */\n      tag_21\n        /* \"contracts/Utils.sol\":20217:20245  Tokenprice(MasterChef.DRG()) */\n      jump\t// in\n    tag_218:\n        /* \"contracts/Utils.sol\":20190:20245  uint256 rewardTokenPrice = Tokenprice(MasterChef.DRG()) */\n      swap1\n      pop\n        /* \"contracts/Utils.sol\":20256:20276  uint256 DRG_PER_YEAR */\n      0x00\n        /* \"contracts/Utils.sol\":20279:20324  BLOCKS_PER_YEAR.mul(MasterChef.DRGPerBlock()) */\n      tag_223\n        /* \"contracts/Utils.sol\":20299:20309  MasterChef */\n      dup7\n        /* \"contracts/Utils.sol\":20299:20321  MasterChef.DRGPerBlock */\n      0xffffffffffffffffffffffffffffffffffffffff\n      and\n      0xa1eef821\n        /* \"contracts/Utils.sol\":20299:20323  MasterChef.DRGPerBlock() */\n      mload(0x40)\n      dup2\n      0xffffffff\n      and\n      0xe0\n      shl\n      dup2\n      mstore\n      0x04\n      add\n      0x20\n      mload(0x40)\n      dup1\n      dup4\n      sub\n      dup2\n      dup7\n      gas\n      staticcall\n      iszero\n      dup1\n      iszero\n      tag_225\n      jumpi\n      returndatasize\n      0x00\n      dup1\n      returndatacopy\n      revert(0x00, returndatasize)\n    tag_225:\n      pop\n      pop\n      pop\n      pop\n      mload(0x40)\n      returndatasize\n      not(0x1f)\n      0x1f\n      dup3\n      add\n      and\n      dup3\n      add\n      dup1\n      0x40\n      mstore\n      pop\n      dup2\n      add\n      swap1\n      tag_226\n      swap2\n      swap1\n      tag_108\n      jump\t// in\n    tag_226:\n        /* \"contracts/Utils.sol\":20279:20294  BLOCKS_PER_YEAR */\n      sload(0x05)\n        /* \"contracts/Utils.sol\":20279:20298  BLOCKS_PER_YEAR.mul */\n      tag_109\n      swap1\n        /* \"contracts/Utils.sol\":20279:20324  BLOCKS_PER_YEAR.mul(MasterChef.DRGPerBlock()) */\n      swap2\n      swap1\n      0xffffffff\n      and\n      jump\t// in\n    tag_223:\n        /* \"contracts/Utils.sol\":20256:20324  uint256 DRG_PER_YEAR = BLOCKS_PER_YEAR.mul(MasterChef.DRGPerBlock()) */\n      swap1\n      pop\n        /* \"contracts/Utils.sol\":20335:20368  uint256 yearlyDRGRewardAllocation */\n      0x00\n        /* \"contracts/Utils.sol\":20371:20413  (DRG_PER_YEAR.mul(poolWeight)).div(amount) */\n      tag_227\n        /* \"contracts/Utils.sol\":20406:20412  amount */\n      sload(0x03)\n        /* \"contracts/Utils.sol\":20372:20400  DRG_PER_YEAR.mul(poolWeight) */\n      tag_228\n        /* \"contracts/Utils.sol\":20389:20399  poolWeight */\n      dup7\n        /* \"contracts/Utils.sol\":20372:20384  DRG_PER_YEAR */\n      dup6\n        /* \"contracts/Utils.sol\":20372:20388  DRG_PER_YEAR.mul */\n      tag_109\n      swap1\n        /* \"contracts/Utils.sol\":20372:20400  DRG_PER_YEAR.mul(poolWeight) */\n      swap2\n      swap1\n      0xffffffff\n      and\n      jump\t// in\n    tag_228:\n        /* \"contracts/Utils.sol\":20371:20405  (DRG_PER_YEAR.mul(poolWeight)).div */\n      tag_158\n      swap1\n        /* \"contracts/Utils.sol\":20371:20413  (DRG_PER_YEAR.mul(poolWeight)).div(amount) */\n      swap2\n      swap1\n      0xffffffff\n      and\n      jump\t// in\n    tag_227:\n        /* \"contracts/Utils.sol\":20335:20413  uint256 yearlyDRGRewardAllocation = (DRG_PER_YEAR.mul(poolWeight)).div(amount) */\n      swap1\n      pop\n        /* \"contracts/Utils.sol\":20424:20448  uint256 poolLiquidityUsd */\n      0x00\n        /* \"contracts/Utils.sol\":20451:20501  calcPoolTVLInUSD(pid, lpAddress, isLp, MasterChef) */\n      tag_229\n        /* \"contracts/Utils.sol\":20468:20471  pid */\n      dup12\n        /* \"contracts/Utils.sol\":20473:20482  lpAddress */\n      dup12\n        /* \"contracts/Utils.sol\":20484:20488  isLp */\n      dup12\n        /* \"contracts/Utils.sol\":20490:20500  MasterChef */\n      dup12\n        /* \"contracts/Utils.sol\":20451:20467  calcPoolTVLInUSD */\n      tag_61\n        /* \"contracts/Utils.sol\":20451:20501  calcPoolTVLInUSD(pid, lpAddress, isLp, MasterChef) */\n      jump\t// in\n    tag_229:\n        /* \"contracts/Utils.sol\":20424:20501  uint256 poolLiquidityUsd = calcPoolTVLInUSD(pid, lpAddress, isLp, MasterChef) */\n      swap1\n      pop\n        /* \"contracts/Utils.sol\":20520:20604  (((yearlyDRGRewardAllocation.mul(rewardTokenPrice))).div(poolLiquidityUsd)).mul(100) */\n      tag_230\n        /* \"contracts/Utils.sol\":20600:20603  100 */\n      0x64\n        /* \"contracts/Utils.sol\":20521:20594  ((yearlyDRGRewardAllocation.mul(rewardTokenPrice))).div(poolLiquidityUsd) */\n      tag_231\n        /* \"contracts/Utils.sol\":20577:20593  poolLiquidityUsd */\n      dup4\n        /* \"contracts/Utils.sol\":20523:20570  yearlyDRGRewardAllocation.mul(rewardTokenPrice) */\n      tag_232\n        /* \"contracts/Utils.sol\":20553:20569  rewardTokenPrice */\n      dup9\n        /* \"contracts/Utils.sol\":20523:20548  yearlyDRGRewardAllocation */\n      dup8\n        /* \"contracts/Utils.sol\":20523:20552  yearlyDRGRewardAllocation.mul */\n      tag_109\n      swap1\n        /* \"contracts/Utils.sol\":20523:20570  yearlyDRGRewardAllocation.mul(rewardTokenPrice) */\n      swap2\n      swap1\n      0xffffffff\n      and\n      jump\t// in\n    tag_232:\n        /* \"contracts/Utils.sol\":20521:20576  ((yearlyDRGRewardAllocation.mul(rewardTokenPrice))).div */\n      tag_158\n      swap1\n        /* \"contracts/Utils.sol\":20521:20594  ((yearlyDRGRewardAllocation.mul(rewardTokenPrice))).div(poolLiquidityUsd) */\n      swap2\n      swap1\n      0xffffffff\n      and\n      jump\t// in\n    tag_231:\n        /* \"contracts/Utils.sol\":20520:20599  (((yearlyDRGRewardAllocation.mul(rewardTokenPrice))).div(poolLiquidityUsd)).mul */\n      tag_109\n      swap1\n        /* \"contracts/Utils.sol\":20520:20604  (((yearlyDRGRewardAllocation.mul(rewardTokenPrice))).div(poolLiquidityUsd)).mul(100) */\n      swap2\n      swap1\n      0xffffffff\n      and\n      jump\t// in\n    tag_230:\n        /* \"contracts/Utils.sol\":20514:20604  return(((yearlyDRGRewardAllocation.mul(rewardTokenPrice))).div(poolLiquidityUsd)).mul(100) */\n      swap7\n      pop\n      pop\n      pop\n      pop\n      pop\n      pop\n      pop\n        /* \"contracts/Utils.sol\":19910:20612  function CalcApy(uint256 pid, LP lpAddress,uint256 isLp, MetaMasterChef MasterChef) external view returns(uint256){... */\n      swap5\n      swap4\n      pop\n      pop\n      pop\n      pop\n      jump\t// out\n        /* \"contracts/Utils.sol\":14758:14959  function transferOwnership(address newOwner) public virtual onlyOwner {... */\n    tag_69:\n        /* \"contracts/Utils.sol\":14080:14092  _msgSender() */\n      tag_234\n        /* \"contracts/Utils.sol\":14080:14090  _msgSender */\n      tag_175\n        /* \"contracts/Utils.sol\":14080:14092  _msgSender() */\n      jump\t// in\n    tag_234:\n        /* \"contracts/Utils.sol\":14069:14092  owner() == _msgSender() */\n      0xffffffffffffffffffffffffffffffffffffffff\n      and\n        /* \"contracts/Utils.sol\":14069:14076  owner() */\n      tag_235\n        /* \"contracts/Utils.sol\":14069:14074  owner */\n      tag_49\n        /* \"contracts/Utils.sol\":14069:14076  owner() */\n      jump\t// in\n    tag_235:\n        /* \"contracts/Utils.sol\":14069:14092  owner() == _msgSender() */\n      0xffffffffffffffffffffffffffffffffffffffff\n      and\n      eq\n        /* \"contracts/Utils.sol\":14061:14129  require(owner() == _msgSender(), \"Ownable: caller is not the owner\") */\n      tag_236\n      jumpi\n      mload(0x40)\n      0x08c379a000000000000000000000000000000000000000000000000000000000\n      dup2\n      mstore\n      0x04\n      add\n      tag_237\n      swap1\n      tag_179\n      jump\t// in\n    tag_237:\n      mload(0x40)\n      dup1\n      swap2\n      sub\n      swap1\n      revert\n    tag_236:\n        /* \"contracts/Utils.sol\":14867:14868  0 */\n      0x00\n        /* \"contracts/Utils.sol\":14847:14869  newOwner != address(0) */\n      0xffffffffffffffffffffffffffffffffffffffff\n      and\n        /* \"contracts/Utils.sol\":14847:14855  newOwner */\n      dup2\n        /* \"contracts/Utils.sol\":14847:14869  newOwner != address(0) */\n      0xffffffffffffffffffffffffffffffffffffffff\n      and\n      sub\n        /* \"contracts/Utils.sol\":14839:14912  require(newOwner != address(0), \"Ownable: new owner is the zero address\") */\n      tag_239\n      jumpi\n      mload(0x40)\n      0x08c379a000000000000000000000000000000000000000000000000000000000\n      dup2\n      mstore\n      0x04\n      add\n      tag_240\n      swap1\n      tag_241\n      jump\t// in\n    tag_240:\n      mload(0x40)\n      dup1\n      swap2\n      sub\n      swap1\n      revert\n    tag_239:\n        /* \"contracts/Utils.sol\":14923:14951  _transferOwnership(newOwner) */\n      tag_242\n        /* \"contracts/Utils.sol\":14942:14950  newOwner */\n      dup2\n        /* \"contracts/Utils.sol\":14923:14941  _transferOwnership */\n      tag_182\n        /* \"contracts/Utils.sol\":14923:14951  _transferOwnership(newOwner) */\n      jump\t// in\n    tag_242:\n        /* \"contracts/Utils.sol\":14758:14959  function transferOwnership(address newOwner) public virtual onlyOwner {... */\n      pop\n      jump\t// out\n        /* \"contracts/Utils.sol\":9965:10436  function mul(uint256 a, uint256 b) internal pure returns (uint256) {... */\n    tag_109:\n        /* \"contracts/Utils.sol\":10023:10030  uint256 */\n      0x00\n        /* \"contracts/Utils.sol\":10273:10274  0 */\n      dup1\n        /* \"contracts/Utils.sol\":10268:10269  a */\n      dup4\n        /* \"contracts/Utils.sol\":10268:10274  a == 0 */\n      sub\n        /* \"contracts/Utils.sol\":10264:10311  if (a == 0) {... */\n      tag_244\n      jumpi\n        /* \"contracts/Utils.sol\":10298:10299  0 */\n      0x00\n        /* \"contracts/Utils.sol\":10291:10299  return 0 */\n      swap1\n      pop\n      jump(tag_243)\n        /* \"contracts/Utils.sol\":10264:10311  if (a == 0) {... */\n    tag_244:\n        /* \"contracts/Utils.sol\":10323:10332  uint256 c */\n      0x00\n        /* \"contracts/Utils.sol\":10339:10340  b */\n      dup3\n        /* \"contracts/Utils.sol\":10335:10336  a */\n      dup5\n        /* \"contracts/Utils.sol\":10335:10340  a * b */\n      tag_245\n      swap2\n      swap1\n      tag_206\n      jump\t// in\n    tag_245:\n        /* \"contracts/Utils.sol\":10323:10340  uint256 c = a * b */\n      swap1\n      pop\n        /* \"contracts/Utils.sol\":10368:10369  b */\n      dup3\n        /* \"contracts/Utils.sol\":10363:10364  a */\n      dup5\n        /* \"contracts/Utils.sol\":10359:10360  c */\n      dup3\n        /* \"contracts/Utils.sol\":10359:10364  c / a */\n      tag_246\n      swap2\n      swap1\n      tag_247\n      jump\t// in\n    tag_246:\n        /* \"contracts/Utils.sol\":10359:10369  c / a == b */\n      eq\n        /* \"contracts/Utils.sol\":10351:10407  require(c / a == b, \"SafeMath: multiplication overflow\") */\n      tag_248\n      jumpi\n      mload(0x40)\n      0x08c379a000000000000000000000000000000000000000000000000000000000\n      dup2\n      mstore\n      0x04\n      add\n      tag_249\n      swap1\n      tag_250\n      jump\t// in\n    tag_249:\n      mload(0x40)\n      dup1\n      swap2\n      sub\n      swap1\n      revert\n    tag_248:\n        /* \"contracts/Utils.sol\":10427:10428  c */\n      dup1\n        /* \"contracts/Utils.sol\":10420:10428  return c */\n      swap2\n      pop\n      pop\n        /* \"contracts/Utils.sol\":9965:10436  function mul(uint256 a, uint256 b) internal pure returns (uint256) {... */\n    tag_243:\n      swap3\n      swap2\n      pop\n      pop\n      jump\t// out\n        /* \"contracts/Utils.sol\":8593:8774  function add(uint256 a, uint256 b) internal pure returns (uint256) {... */\n    tag_157:\n        /* \"contracts/Utils.sol\":8651:8658  uint256 */\n      0x00\n        /* \"contracts/Utils.sol\":8671:8680  uint256 c */\n      dup1\n        /* \"contracts/Utils.sol\":8687:8688  b */\n      dup3\n        /* \"contracts/Utils.sol\":8683:8684  a */\n      dup5\n        /* \"contracts/Utils.sol\":8683:8688  a + b */\n      tag_252\n      swap2\n      swap1\n      tag_253\n      jump\t// in\n    tag_252:\n        /* \"contracts/Utils.sol\":8671:8688  uint256 c = a + b */\n      swap1\n      pop\n        /* \"contracts/Utils.sol\":8712:8713  a */\n      dup4\n        /* \"contracts/Utils.sol\":8707:8708  c */\n      dup2\n        /* \"contracts/Utils.sol\":8707:8713  c >= a */\n      lt\n      iszero\n        /* \"contracts/Utils.sol\":8699:8745  require(c >= a, \"SafeMath: addition overflow\") */\n      tag_254\n      jumpi\n      mload(0x40)\n      0x08c379a000000000000000000000000000000000000000000000000000000000\n      dup2\n      mstore\n      0x04\n      add\n      tag_255\n      swap1\n      tag_256\n      jump\t// in\n    tag_255:\n      mload(0x40)\n      dup1\n      swap2\n      sub\n      swap1\n      revert\n    tag_254:\n        /* \"contracts/Utils.sol\":8765:8766  c */\n      dup1\n        /* \"contracts/Utils.sol\":8758:8766  return c */\n      swap2\n      pop\n      pop\n        /* \"contracts/Utils.sol\":8593:8774  function add(uint256 a, uint256 b) internal pure returns (uint256) {... */\n      swap3\n      swap2\n      pop\n      pop\n      jump\t// out\n        /* \"contracts/Utils.sol\":10904:11036  function div(uint256 a, uint256 b) internal pure returns (uint256) {... */\n    tag_158:\n        /* \"contracts/Utils.sol\":10962:10969  uint256 */\n      0x00\n        /* \"contracts/Utils.sol\":10989:11028  div(a, b, \"SafeMath: division by zero\") */\n      tag_258\n        /* \"contracts/Utils.sol\":10993:10994  a */\n      dup4\n        /* \"contracts/Utils.sol\":10996:10997  b */\n      dup4\n        /* \"contracts/Utils.sol\":10989:11028  div(a, b, \"SafeMath: division by zero\") */\n      mload(0x40)\n      dup1\n      0x40\n      add\n      0x40\n      mstore\n      dup1\n      0x1a\n      dup2\n      mstore\n      0x20\n      add\n      0x536166654d6174683a206469766973696f6e206279207a65726f000000000000\n      dup2\n      mstore\n      pop\n        /* \"contracts/Utils.sol\":10989:10992  div */\n      tag_259\n        /* \"contracts/Utils.sol\":10989:11028  div(a, b, \"SafeMath: division by zero\") */\n      jump\t// in\n    tag_258:\n        /* \"contracts/Utils.sol\":10982:11028  return div(a, b, \"SafeMath: division by zero\") */\n      swap1\n      pop\n        /* \"contracts/Utils.sol\":10904:11036  function div(uint256 a, uint256 b) internal pure returns (uint256) {... */\n      swap3\n      swap2\n      pop\n      pop\n      jump\t// out\n        /* \"contracts/Utils.sol\":13223:13321  function _msgSender() internal view virtual returns (address) {... */\n    tag_175:\n        /* \"contracts/Utils.sol\":13276:13283  address */\n      0x00\n        /* \"contracts/Utils.sol\":13303:13313  msg.sender */\n      caller\n        /* \"contracts/Utils.sol\":13296:13313  return msg.sender */\n      swap1\n      pop\n        /* \"contracts/Utils.sol\":13223:13321  function _msgSender() internal view virtual returns (address) {... */\n      swap1\n      jump\t// out\n        /* \"contracts/Utils.sol\":15119:15310  function _transferOwnership(address newOwner) internal virtual {... */\n    tag_182:\n        /* \"contracts/Utils.sol\":15193:15209  address oldOwner */\n      0x00\n        /* \"contracts/Utils.sol\":15212:15218  _owner */\n      dup1\n      0x00\n      swap1\n      sload\n      swap1\n      0x0100\n      exp\n      swap1\n      div\n      0xffffffffffffffffffffffffffffffffffffffff\n      and\n        /* \"contracts/Utils.sol\":15193:15218  address oldOwner = _owner */\n      swap1\n      pop\n        /* \"contracts/Utils.sol\":15238:15246  newOwner */\n      dup2\n        /* \"contracts/Utils.sol\":15229:15235  _owner */\n      0x00\n      dup1\n        /* \"contracts/Utils.sol\":15229:15246  _owner = newOwner */\n      0x0100\n      exp\n      dup2\n      sload\n      dup2\n      0xffffffffffffffffffffffffffffffffffffffff\n      mul\n      not\n      and\n      swap1\n      dup4\n      0xffffffffffffffffffffffffffffffffffffffff\n      and\n      mul\n      or\n      swap1\n      sstore\n      pop\n        /* \"contracts/Utils.sol\":15293:15301  newOwner */\n      dup2\n        /* \"contracts/Utils.sol\":15262:15302  OwnershipTransferred(oldOwner, newOwner) */\n      0xffffffffffffffffffffffffffffffffffffffff\n      and\n        /* \"contracts/Utils.sol\":15283:15291  oldOwner */\n      dup2\n        /* \"contracts/Utils.sol\":15262:15302  OwnershipTransferred(oldOwner, newOwner) */\n      0xffffffffffffffffffffffffffffffffffffffff\n      and\n      0x8be0079c531659141344cd1fd0a4f28419497f9722a3daafe3b4186f6b6457e0\n      mload(0x40)\n      mload(0x40)\n      dup1\n      swap2\n      sub\n      swap1\n      log3\n        /* \"contracts/Utils.sol\":15182:15310  {... */\n      pop\n        /* \"contracts/Utils.sol\":15119:15310  function _transferOwnership(address newOwner) internal virtual {... */\n      pop\n      jump\t// out\n        /* \"contracts/Utils.sol\":11566:11911  function div(uint256 a, uint256 b, string memory errorMessage) internal pure returns (uint256) {... */\n    tag_259:\n        /* \"contracts/Utils.sol\":11652:11659  uint256 */\n      0x00\n        /* \"contracts/Utils.sol\":11751:11752  0 */\n      dup1\n        /* \"contracts/Utils.sol\":11747:11748  b */\n      dup4\n        /* \"contracts/Utils.sol\":11747:11752  b > 0 */\n      gt\n        /* \"contracts/Utils.sol\":11754:11766  errorMessage */\n      dup3\n        /* \"contracts/Utils.sol\":11739:11767  require(b > 0, errorMessage) */\n      swap1\n      tag_263\n      jumpi\n      mload(0x40)\n      0x08c379a000000000000000000000000000000000000000000000000000000000\n      dup2\n      mstore\n      0x04\n      add\n      tag_264\n      swap2\n      swap1\n      tag_265\n      jump\t// in\n    tag_264:\n      mload(0x40)\n      dup1\n      swap2\n      sub\n      swap1\n      revert\n    tag_263:\n      pop\n        /* \"contracts/Utils.sol\":11778:11787  uint256 c */\n      0x00\n        /* \"contracts/Utils.sol\":11794:11795  b */\n      dup4\n        /* \"contracts/Utils.sol\":11790:11791  a */\n      dup6\n        /* \"contracts/Utils.sol\":11790:11795  a / b */\n      tag_266\n      swap2\n      swap1\n      tag_247\n      jump\t// in\n    tag_266:\n        /* \"contracts/Utils.sol\":11778:11795  uint256 c = a / b */\n      swap1\n      pop\n        /* \"contracts/Utils.sol\":11902:11903  c */\n      dup1\n        /* \"contracts/Utils.sol\":11895:11903  return c */\n      swap2\n      pop\n      pop\n        /* \"contracts/Utils.sol\":11566:11911  function div(uint256 a, uint256 b, string memory errorMessage) internal pure returns (uint256) {... */\n      swap4\n      swap3\n      pop\n      pop\n      pop\n      jump\t// out\n        /* \"#utility.yul\":7:82   */\n    tag_267:\n        /* \"#utility.yul\":40:46   */\n      0x00\n        /* \"#utility.yul\":73:75   */\n      0x40\n        /* \"#utility.yul\":67:76   */\n      mload\n        /* \"#utility.yul\":57:76   */\n      swap1\n      pop\n        /* \"#utility.yul\":7:82   */\n      swap1\n      jump\t// out\n        /* \"#utility.yul\":88:205   */\n    tag_268:\n        /* \"#utility.yul\":197:198   */\n      0x00\n        /* \"#utility.yul\":194:195   */\n      dup1\n        /* \"#utility.yul\":187:199   */\n      revert\n        /* \"#utility.yul\":211:328   */\n    tag_269:\n        /* \"#utility.yul\":320:321   */\n      0x00\n        /* \"#utility.yul\":317:318   */\n      dup1\n        /* \"#utility.yul\":310:322   */\n      revert\n        /* \"#utility.yul\":334:460   */\n    tag_270:\n        /* \"#utility.yul\":371:378   */\n      0x00\n        /* \"#utility.yul\":411:453   */\n      0xffffffffffffffffffffffffffffffffffffffff\n        /* \"#utility.yul\":404:409   */\n      dup3\n        /* \"#utility.yul\":400:454   */\n      and\n        /* \"#utility.yul\":389:454   */\n      swap1\n      pop\n        /* \"#utility.yul\":334:460   */\n      swap2\n      swap1\n      pop\n      jump\t// out\n        /* \"#utility.yul\":466:562   */\n    tag_271:\n        /* \"#utility.yul\":503:510   */\n      0x00\n        /* \"#utility.yul\":532:556   */\n      tag_339\n        /* \"#utility.yul\":550:555   */\n      dup3\n        /* \"#utility.yul\":532:556   */\n      tag_270\n      jump\t// in\n    tag_339:\n        /* \"#utility.yul\":521:556   */\n      swap1\n      pop\n        /* \"#utility.yul\":466:562   */\n      swap2\n      swap1\n      pop\n      jump\t// out\n        /* \"#utility.yul\":568:690   */\n    tag_272:\n        /* \"#utility.yul\":641:665   */\n      tag_341\n        /* \"#utility.yul\":659:664   */\n      dup2\n        /* \"#utility.yul\":641:665   */\n      tag_271\n      jump\t// in\n    tag_341:\n        /* \"#utility.yul\":634:639   */\n      dup2\n        /* \"#utility.yul\":631:666   */\n      eq\n        /* \"#utility.yul\":621:684   */\n      tag_342\n      jumpi\n        /* \"#utility.yul\":680:681   */\n      0x00\n        /* \"#utility.yul\":677:678   */\n      dup1\n        /* \"#utility.yul\":670:682   */\n      revert\n        /* \"#utility.yul\":621:684   */\n    tag_342:\n        /* \"#utility.yul\":568:690   */\n      pop\n      jump\t// out\n        /* \"#utility.yul\":696:835   */\n    tag_273:\n        /* \"#utility.yul\":742:747   */\n      0x00\n        /* \"#utility.yul\":780:786   */\n      dup2\n        /* \"#utility.yul\":767:787   */\n      calldataload\n        /* \"#utility.yul\":758:787   */\n      swap1\n      pop\n        /* \"#utility.yul\":796:829   */\n      tag_344\n        /* \"#utility.yul\":823:828   */\n      dup2\n        /* \"#utility.yul\":796:829   */\n      tag_272\n      jump\t// in\n    tag_344:\n        /* \"#utility.yul\":696:835   */\n      swap3\n      swap2\n      pop\n      pop\n      jump\t// out\n        /* \"#utility.yul\":841:1170   */\n    tag_20:\n        /* \"#utility.yul\":900:906   */\n      0x00\n        /* \"#utility.yul\":949:951   */\n      0x20\n        /* \"#utility.yul\":937:946   */\n      dup3\n        /* \"#utility.yul\":928:935   */\n      dup5\n        /* \"#utility.yul\":924:947   */\n      sub\n        /* \"#utility.yul\":920:952   */\n      slt\n        /* \"#utility.yul\":917:1036   */\n      iszero\n      tag_346\n      jumpi\n        /* \"#utility.yul\":955:1034   */\n      tag_347\n      tag_268\n      jump\t// in\n    tag_347:\n        /* \"#utility.yul\":917:1036   */\n    tag_346:\n        /* \"#utility.yul\":1075:1076   */\n      0x00\n        /* \"#utility.yul\":1100:1153   */\n      tag_348\n        /* \"#utility.yul\":1145:1152   */\n      dup5\n        /* \"#utility.yul\":1136:1142   */\n      dup3\n        /* \"#utility.yul\":1125:1134   */\n      dup6\n        /* \"#utility.yul\":1121:1143   */\n      add\n        /* \"#utility.yul\":1100:1153   */\n      tag_273\n      jump\t// in\n    tag_348:\n        /* \"#utility.yul\":1090:1153   */\n      swap2\n      pop\n        /* \"#utility.yul\":1046:1163   */\n      pop\n        /* \"#utility.yul\":841:1170   */\n      swap3\n      swap2\n      pop\n      pop\n      jump\t// out\n        /* \"#utility.yul\":1176:1253   */\n    tag_274:\n        /* \"#utility.yul\":1213:1220   */\n      0x00\n        /* \"#utility.yul\":1242:1247   */\n      dup2\n        /* \"#utility.yul\":1231:1247   */\n      swap1\n      pop\n        /* \"#utility.yul\":1176:1253   */\n      swap2\n      swap1\n      pop\n      jump\t// out\n        /* \"#utility.yul\":1259:1377   */\n    tag_275:\n        /* \"#utility.yul\":1346:1370   */\n      tag_351\n        /* \"#utility.yul\":1364:1369   */\n      dup2\n        /* \"#utility.yul\":1346:1370   */\n      tag_274\n      jump\t// in\n    tag_351:\n        /* \"#utility.yul\":1341:1344   */\n      dup3\n        /* \"#utility.yul\":1334:1371   */\n      mstore\n        /* \"#utility.yul\":1259:1377   */\n      pop\n      pop\n      jump\t// out\n        /* \"#utility.yul\":1383:1605   */\n    tag_23:\n        /* \"#utility.yul\":1476:1480   */\n      0x00\n        /* \"#utility.yul\":1514:1516   */\n      0x20\n        /* \"#utility.yul\":1503:1512   */\n      dup3\n        /* \"#utility.yul\":1499:1517   */\n      add\n        /* \"#utility.yul\":1491:1517   */\n      swap1\n      pop\n        /* \"#utility.yul\":1527:1598   */\n      tag_353\n        /* \"#utility.yul\":1595:1596   */\n      0x00\n        /* \"#utility.yul\":1584:1593   */\n      dup4\n        /* \"#utility.yul\":1580:1597   */\n      add\n        /* \"#utility.yul\":1571:1577   */\n      dup5\n        /* \"#utility.yul\":1527:1598   */\n      tag_275\n      jump\t// in\n    tag_353:\n        /* \"#utility.yul\":1383:1605   */\n      swap3\n      swap2\n      pop\n      pop\n      jump\t// out\n        /* \"#utility.yul\":1611:1717   */\n    tag_276:\n        /* \"#utility.yul\":1658:1665   */\n      0x00\n        /* \"#utility.yul\":1687:1711   */\n      tag_355\n        /* \"#utility.yul\":1705:1710   */\n      dup3\n        /* \"#utility.yul\":1687:1711   */\n      tag_271\n      jump\t// in\n    tag_355:\n        /* \"#utility.yul\":1676:1711   */\n      swap1\n      pop\n        /* \"#utility.yul\":1611:1717   */\n      swap2\n      swap1\n      pop\n      jump\t// out\n        /* \"#utility.yul\":1723:1865   */\n    tag_277:\n        /* \"#utility.yul\":1806:1840   */\n      tag_357\n        /* \"#utility.yul\":1834:1839   */\n      dup2\n        /* \"#utility.yul\":1806:1840   */\n      tag_276\n      jump\t// in\n    tag_357:\n        /* \"#utility.yul\":1799:1804   */\n      dup2\n        /* \"#utility.yul\":1796:1841   */\n      eq\n        /* \"#utility.yul\":1786:1859   */\n      tag_358\n      jumpi\n        /* \"#utility.yul\":1855:1856   */\n      0x00\n        /* \"#utility.yul\":1852:1853   */\n      dup1\n        /* \"#utility.yul\":1845:1857   */\n      revert\n        /* \"#utility.yul\":1786:1859   */\n    tag_358:\n        /* \"#utility.yul\":1723:1865   */\n      pop\n      jump\t// out\n        /* \"#utility.yul\":1871:2030   */\n    tag_278:\n        /* \"#utility.yul\":1927:1932   */\n      0x00\n        /* \"#utility.yul\":1965:1971   */\n      dup2\n        /* \"#utility.yul\":1952:1972   */\n      calldataload\n        /* \"#utility.yul\":1943:1972   */\n      swap1\n      pop\n        /* \"#utility.yul\":1981:2024   */\n      tag_360\n        /* \"#utility.yul\":2018:2023   */\n      dup2\n        /* \"#utility.yul\":1981:2024   */\n      tag_277\n      jump\t// in\n    tag_360:\n        /* \"#utility.yul\":1871:2030   */\n      swap3\n      swap2\n      pop\n      pop\n      jump\t// out\n        /* \"#utility.yul\":2036:2385   */\n    tag_26:\n        /* \"#utility.yul\":2105:2111   */\n      0x00\n        /* \"#utility.yul\":2154:2156   */\n      0x20\n        /* \"#utility.yul\":2142:2151   */\n      dup3\n        /* \"#utility.yul\":2133:2140   */\n      dup5\n        /* \"#utility.yul\":2129:2152   */\n      sub\n        /* \"#utility.yul\":2125:2157   */\n      slt\n        /* \"#utility.yul\":2122:2241   */\n      iszero\n      tag_362\n      jumpi\n        /* \"#utility.yul\":2160:2239   */\n      tag_363\n      tag_268\n      jump\t// in\n    tag_363:\n        /* \"#utility.yul\":2122:2241   */\n    tag_362:\n        /* \"#utility.yul\":2280:2281   */\n      0x00\n        /* \"#utility.yul\":2305:2368   */\n      tag_364\n        /* \"#utility.yul\":2360:2367   */\n      dup5\n        /* \"#utility.yul\":2351:2357   */\n      dup3\n        /* \"#utility.yul\":2340:2349   */\n      dup6\n        /* \"#utility.yul\":2336:2358   */\n      add\n        /* \"#utility.yul\":2305:2368   */\n      tag_278\n      jump\t// in\n    tag_364:\n        /* \"#utility.yul\":2295:2368   */\n      swap2\n      pop\n        /* \"#utility.yul\":2251:2378   */\n      pop\n        /* \"#utility.yul\":2036:2385   */\n      swap3\n      swap2\n      pop\n      pop\n      jump\t// out\n        /* \"#utility.yul\":2391:2451   */\n    tag_279:\n        /* \"#utility.yul\":2419:2422   */\n      0x00\n        /* \"#utility.yul\":2440:2445   */\n      dup2\n        /* \"#utility.yul\":2433:2445   */\n      swap1\n      pop\n        /* \"#utility.yul\":2391:2451   */\n      swap2\n      swap1\n      pop\n      jump\t// out\n        /* \"#utility.yul\":2457:2599   */\n    tag_280:\n        /* \"#utility.yul\":2507:2516   */\n      0x00\n        /* \"#utility.yul\":2540:2593   */\n      tag_367\n        /* \"#utility.yul\":2558:2592   */\n      tag_368\n        /* \"#utility.yul\":2567:2591   */\n      tag_369\n        /* \"#utility.yul\":2585:2590   */\n      dup5\n        /* \"#utility.yul\":2567:2591   */\n      tag_270\n      jump\t// in\n    tag_369:\n        /* \"#utility.yul\":2558:2592   */\n      tag_279\n      jump\t// in\n    tag_368:\n        /* \"#utility.yul\":2540:2593   */\n      tag_270\n      jump\t// in\n    tag_367:\n        /* \"#utility.yul\":2527:2593   */\n      swap1\n      pop\n        /* \"#utility.yul\":2457:2599   */\n      swap2\n      swap1\n      pop\n      jump\t// out\n        /* \"#utility.yul\":2605:2731   */\n    tag_281:\n        /* \"#utility.yul\":2655:2664   */\n      0x00\n        /* \"#utility.yul\":2688:2725   */\n      tag_371\n        /* \"#utility.yul\":2719:2724   */\n      dup3\n        /* \"#utility.yul\":2688:2725   */\n      tag_280\n      jump\t// in\n    tag_371:\n        /* \"#utility.yul\":2675:2725   */\n      swap1\n      pop\n        /* \"#utility.yul\":2605:2731   */\n      swap2\n      swap1\n      pop\n      jump\t// out\n        /* \"#utility.yul\":2737:2877   */\n    tag_282:\n        /* \"#utility.yul\":2801:2810   */\n      0x00\n        /* \"#utility.yul\":2834:2871   */\n      tag_373\n        /* \"#utility.yul\":2865:2870   */\n      dup3\n        /* \"#utility.yul\":2834:2871   */\n      tag_281\n      jump\t// in\n    tag_373:\n        /* \"#utility.yul\":2821:2871   */\n      swap1\n      pop\n        /* \"#utility.yul\":2737:2877   */\n      swap2\n      swap1\n      pop\n      jump\t// out\n        /* \"#utility.yul\":2883:3042   */\n    tag_283:\n        /* \"#utility.yul\":2984:3035   */\n      tag_375\n        /* \"#utility.yul\":3029:3034   */\n      dup2\n        /* \"#utility.yul\":2984:3035   */\n      tag_282\n      jump\t// in\n    tag_375:\n        /* \"#utility.yul\":2979:2982   */\n      dup3\n        /* \"#utility.yul\":2972:3036   */\n      mstore\n        /* \"#utility.yul\":2883:3042   */\n      pop\n      pop\n      jump\t// out\n        /* \"#utility.yul\":3048:3298   */\n    tag_32:\n        /* \"#utility.yul\":3155:3159   */\n      0x00\n        /* \"#utility.yul\":3193:3195   */\n      0x20\n        /* \"#utility.yul\":3182:3191   */\n      dup3\n        /* \"#utility.yul\":3178:3196   */\n      add\n        /* \"#utility.yul\":3170:3196   */\n      swap1\n      pop\n        /* \"#utility.yul\":3206:3291   */\n      tag_377\n        /* \"#utility.yul\":3288:3289   */\n      0x00\n        /* \"#utility.yul\":3277:3286   */\n      dup4\n        /* \"#utility.yul\":3273:3290   */\n      add\n        /* \"#utility.yul\":3264:3270   */\n      dup5\n        /* \"#utility.yul\":3206:3291   */\n      tag_283\n      jump\t// in\n    tag_377:\n        /* \"#utility.yul\":3048:3298   */\n      swap3\n      swap2\n      pop\n      pop\n      jump\t// out\n        /* \"#utility.yul\":3304:3422   */\n    tag_284:\n        /* \"#utility.yul\":3391:3415   */\n      tag_379\n        /* \"#utility.yul\":3409:3414   */\n      dup2\n        /* \"#utility.yul\":3391:3415   */\n      tag_271\n      jump\t// in\n    tag_379:\n        /* \"#utility.yul\":3386:3389   */\n      dup3\n        /* \"#utility.yul\":3379:3416   */\n      mstore\n        /* \"#utility.yul\":3304:3422   */\n      pop\n      pop\n      jump\t// out\n        /* \"#utility.yul\":3428:3650   */\n    tag_40:\n        /* \"#utility.yul\":3521:3525   */\n      0x00\n        /* \"#utility.yul\":3559:3561   */\n      0x20\n        /* \"#utility.yul\":3548:3557   */\n      dup3\n        /* \"#utility.yul\":3544:3562   */\n      add\n        /* \"#utility.yul\":3536:3562   */\n      swap1\n      pop\n        /* \"#utility.yul\":3572:3643   */\n      tag_381\n        /* \"#utility.yul\":3640:3641   */\n      0x00\n        /* \"#utility.yul\":3629:3638   */\n      dup4\n        /* \"#utility.yul\":3625:3642   */\n      add\n        /* \"#utility.yul\":3616:3622   */\n      dup5\n        /* \"#utility.yul\":3572:3643   */\n      tag_284\n      jump\t// in\n    tag_381:\n        /* \"#utility.yul\":3428:3650   */\n      swap3\n      swap2\n      pop\n      pop\n      jump\t// out\n        /* \"#utility.yul\":3656:3774   */\n    tag_285:\n        /* \"#utility.yul\":3715:3722   */\n      0x00\n        /* \"#utility.yul\":3744:3768   */\n      tag_383\n        /* \"#utility.yul\":3762:3767   */\n      dup3\n        /* \"#utility.yul\":3744:3768   */\n      tag_271\n      jump\t// in\n    tag_383:\n        /* \"#utility.yul\":3733:3768   */\n      swap1\n      pop\n        /* \"#utility.yul\":3656:3774   */\n      swap2\n      swap1\n      pop\n      jump\t// out\n        /* \"#utility.yul\":3780:3946   */\n    tag_286:\n        /* \"#utility.yul\":3875:3921   */\n      tag_385\n        /* \"#utility.yul\":3915:3920   */\n      dup2\n        /* \"#utility.yul\":3875:3921   */\n      tag_285\n      jump\t// in\n    tag_385:\n        /* \"#utility.yul\":3868:3873   */\n      dup2\n        /* \"#utility.yul\":3865:3922   */\n      eq\n        /* \"#utility.yul\":3855:3940   */\n      tag_386\n      jumpi\n        /* \"#utility.yul\":3936:3937   */\n      0x00\n        /* \"#utility.yul\":3933:3934   */\n      dup1\n        /* \"#utility.yul\":3926:3938   */\n      revert\n        /* \"#utility.yul\":3855:3940   */\n    tag_386:\n        /* \"#utility.yul\":3780:3946   */\n      pop\n      jump\t// out\n        /* \"#utility.yul\":3952:4135   */\n    tag_287:\n        /* \"#utility.yul\":4020:4025   */\n      0x00\n        /* \"#utility.yul\":4058:4064   */\n      dup2\n        /* \"#utility.yul\":4045:4065   */\n      calldataload\n        /* \"#utility.yul\":4036:4065   */\n      swap1\n      pop\n        /* \"#utility.yul\":4074:4129   */\n      tag_388\n        /* \"#utility.yul\":4123:4128   */\n      dup2\n        /* \"#utility.yul\":4074:4129   */\n      tag_286\n      jump\t// in\n    tag_388:\n        /* \"#utility.yul\":3952:4135   */\n      swap3\n      swap2\n      pop\n      pop\n      jump\t// out\n        /* \"#utility.yul\":4141:4514   */\n    tag_45:\n        /* \"#utility.yul\":4222:4228   */\n      0x00\n        /* \"#utility.yul\":4271:4273   */\n      0x20\n        /* \"#utility.yul\":4259:4268   */\n      dup3\n        /* \"#utility.yul\":4250:4257   */\n      dup5\n        /* \"#utility.yul\":4246:4269   */\n      sub\n        /* \"#utility.yul\":4242:4274   */\n      slt\n        /* \"#utility.yul\":4239:4358   */\n      iszero\n      tag_390\n      jumpi\n        /* \"#utility.yul\":4277:4356   */\n      tag_391\n      tag_268\n      jump\t// in\n    tag_391:\n        /* \"#utility.yul\":4239:4358   */\n    tag_390:\n        /* \"#utility.yul\":4397:4398   */\n      0x00\n        /* \"#utility.yul\":4422:4497   */\n      tag_392\n        /* \"#utility.yul\":4489:4496   */\n      dup5\n        /* \"#utility.yul\":4480:4486   */\n      dup3\n        /* \"#utility.yul\":4469:4478   */\n      dup6\n        /* \"#utility.yul\":4465:4487   */\n      add\n        /* \"#utility.yul\":4422:4497   */\n      tag_287\n      jump\t// in\n    tag_392:\n        /* \"#utility.yul\":4412:4497   */\n      swap2\n      pop\n        /* \"#utility.yul\":4368:4507   */\n      pop\n        /* \"#utility.yul\":4141:4514   */\n      swap3\n      swap2\n      pop\n      pop\n      jump\t// out\n        /* \"#utility.yul\":4520:4630   */\n    tag_288:\n        /* \"#utility.yul\":4571:4578   */\n      0x00\n        /* \"#utility.yul\":4600:4624   */\n      tag_394\n        /* \"#utility.yul\":4618:4623   */\n      dup3\n        /* \"#utility.yul\":4600:4624   */\n      tag_271\n      jump\t// in\n    tag_394:\n        /* \"#utility.yul\":4589:4624   */\n      swap1\n      pop\n        /* \"#utility.yul\":4520:4630   */\n      swap2\n      swap1\n      pop\n      jump\t// out\n        /* \"#utility.yul\":4636:4786   */\n    tag_289:\n        /* \"#utility.yul\":4723:4761   */\n      tag_396\n        /* \"#utility.yul\":4755:4760   */\n      dup2\n        /* \"#utility.yul\":4723:4761   */\n      tag_288\n      jump\t// in\n    tag_396:\n        /* \"#utility.yul\":4716:4721   */\n      dup2\n        /* \"#utility.yul\":4713:4762   */\n      eq\n        /* \"#utility.yul\":4703:4780   */\n      tag_397\n      jumpi\n        /* \"#utility.yul\":4776:4777   */\n      0x00\n        /* \"#utility.yul\":4773:4774   */\n      dup1\n        /* \"#utility.yul\":4766:4778   */\n      revert\n        /* \"#utility.yul\":4703:4780   */\n    tag_397:\n        /* \"#utility.yul\":4636:4786   */\n      pop\n      jump\t// out\n        /* \"#utility.yul\":4792:4959   */\n    tag_290:\n        /* \"#utility.yul\":4852:4857   */\n      0x00\n        /* \"#utility.yul\":4890:4896   */\n      dup2\n        /* \"#utility.yul\":4877:4897   */\n      calldataload\n        /* \"#utility.yul\":4868:4897   */\n      swap1\n      pop\n        /* \"#utility.yul\":4906:4953   */\n      tag_399\n        /* \"#utility.yul\":4947:4952   */\n      dup2\n        /* \"#utility.yul\":4906:4953   */\n      tag_289\n      jump\t// in\n    tag_399:\n        /* \"#utility.yul\":4792:4959   */\n      swap3\n      swap2\n      pop\n      pop\n      jump\t// out\n        /* \"#utility.yul\":4965:5322   */\n    tag_56:\n        /* \"#utility.yul\":5038:5044   */\n      0x00\n        /* \"#utility.yul\":5087:5089   */\n      0x20\n        /* \"#utility.yul\":5075:5084   */\n      dup3\n        /* \"#utility.yul\":5066:5073   */\n      dup5\n        /* \"#utility.yul\":5062:5085   */\n      sub\n        /* \"#utility.yul\":5058:5090   */\n      slt\n        /* \"#utility.yul\":5055:5174   */\n      iszero\n      tag_401\n      jumpi\n        /* \"#utility.yul\":5093:5172   */\n      tag_402\n      tag_268\n      jump\t// in\n    tag_402:\n        /* \"#utility.yul\":5055:5174   */\n    tag_401:\n        /* \"#utility.yul\":5213:5214   */\n      0x00\n        /* \"#utility.yul\":5238:5305   */\n      tag_403\n        /* \"#utility.yul\":5297:5304   */\n      dup5\n        /* \"#utility.yul\":5288:5294   */\n      dup3\n        /* \"#utility.yul\":5277:5286   */\n      dup6\n        /* \"#utility.yul\":5273:5295   */\n      add\n        /* \"#utility.yul\":5238:5305   */\n      tag_290\n      jump\t// in\n    tag_403:\n        /* \"#utility.yul\":5228:5305   */\n      swap2\n      pop\n        /* \"#utility.yul\":5184:5315   */\n      pop\n        /* \"#utility.yul\":4965:5322   */\n      swap3\n      swap2\n      pop\n      pop\n      jump\t// out\n        /* \"#utility.yul\":5328:5450   */\n    tag_291:\n        /* \"#utility.yul\":5401:5425   */\n      tag_405\n        /* \"#utility.yul\":5419:5424   */\n      dup2\n        /* \"#utility.yul\":5401:5425   */\n      tag_274\n      jump\t// in\n    tag_405:\n        /* \"#utility.yul\":5394:5399   */\n      dup2\n        /* \"#utility.yul\":5391:5426   */\n      eq\n        /* \"#utility.yul\":5381:5444   */\n      tag_406\n      jumpi\n        /* \"#utility.yul\":5440:5441   */\n      0x00\n        /* \"#utility.yul\":5437:5438   */\n      dup1\n        /* \"#utility.yul\":5430:5442   */\n      revert\n        /* \"#utility.yul\":5381:5444   */\n    tag_406:\n        /* \"#utility.yul\":5328:5450   */\n      pop\n      jump\t// out\n        /* \"#utility.yul\":5456:5595   */\n    tag_292:\n        /* \"#utility.yul\":5502:5507   */\n      0x00\n        /* \"#utility.yul\":5540:5546   */\n      dup2\n        /* \"#utility.yul\":5527:5547   */\n      calldataload\n        /* \"#utility.yul\":5518:5547   */\n      swap1\n      pop\n        /* \"#utility.yul\":5556:5589   */\n      tag_408\n        /* \"#utility.yul\":5583:5588   */\n      dup2\n        /* \"#utility.yul\":5556:5589   */\n      tag_291\n      jump\t// in\n    tag_408:\n        /* \"#utility.yul\":5456:5595   */\n      swap3\n      swap2\n      pop\n      pop\n      jump\t// out\n        /* \"#utility.yul\":5601:6430   */\n    tag_60:\n        /* \"#utility.yul\":5719:5725   */\n      0x00\n        /* \"#utility.yul\":5727:5733   */\n      dup1\n        /* \"#utility.yul\":5735:5741   */\n      0x00\n        /* \"#utility.yul\":5743:5749   */\n      dup1\n        /* \"#utility.yul\":5792:5795   */\n      0x80\n        /* \"#utility.yul\":5780:5789   */\n      dup6\n        /* \"#utility.yul\":5771:5778   */\n      dup8\n        /* \"#utility.yul\":5767:5790   */\n      sub\n        /* \"#utility.yul\":5763:5796   */\n      slt\n        /* \"#utility.yul\":5760:5880   */\n      iszero\n      tag_410\n      jumpi\n        /* \"#utility.yul\":5799:5878   */\n      tag_411\n      tag_268\n      jump\t// in\n    tag_411:\n        /* \"#utility.yul\":5760:5880   */\n    tag_410:\n        /* \"#utility.yul\":5919:5920   */\n      0x00\n        /* \"#utility.yul\":5944:5997   */\n      tag_412\n        /* \"#utility.yul\":5989:5996   */\n      dup8\n        /* \"#utility.yul\":5980:5986   */\n      dup3\n        /* \"#utility.yul\":5969:5978   */\n      dup9\n        /* \"#utility.yul\":5965:5987   */\n      add\n        /* \"#utility.yul\":5944:5997   */\n      tag_292\n      jump\t// in\n    tag_412:\n        /* \"#utility.yul\":5934:5997   */\n      swap5\n      pop\n        /* \"#utility.yul\":5890:6007   */\n      pop\n        /* \"#utility.yul\":6046:6048   */\n      0x20\n        /* \"#utility.yul\":6072:6135   */\n      tag_413\n        /* \"#utility.yul\":6127:6134   */\n      dup8\n        /* \"#utility.yul\":6118:6124   */\n      dup3\n        /* \"#utility.yul\":6107:6116   */\n      dup9\n        /* \"#utility.yul\":6103:6125   */\n      add\n        /* \"#utility.yul\":6072:6135   */\n      tag_278\n      jump\t// in\n    tag_413:\n        /* \"#utility.yul\":6062:6135   */\n      swap4\n      pop\n        /* \"#utility.yul\":6017:6145   */\n      pop\n        /* \"#utility.yul\":6184:6186   */\n      0x40\n        /* \"#utility.yul\":6210:6263   */\n      tag_414\n        /* \"#utility.yul\":6255:6262   */\n      dup8\n        /* \"#utility.yul\":6246:6252   */\n      dup3\n        /* \"#utility.yul\":6235:6244   */\n      dup9\n        /* \"#utility.yul\":6231:6253   */\n      add\n        /* \"#utility.yul\":6210:6263   */\n      tag_292\n      jump\t// in\n    tag_414:\n        /* \"#utility.yul\":6200:6263   */\n      swap3\n      pop\n        /* \"#utility.yul\":6155:6273   */\n      pop\n        /* \"#utility.yul\":6312:6314   */\n      0x60\n        /* \"#utility.yul\":6338:6413   */\n      tag_415\n        /* \"#utility.yul\":6405:6412   */\n      dup8\n        /* \"#utility.yul\":6396:6402   */\n      dup3\n        /* \"#utility.yul\":6385:6394   */\n      dup9\n        /* \"#utility.yul\":6381:6403   */\n      add\n        /* \"#utility.yul\":6338:6413   */\n      tag_287\n      jump\t// in\n    tag_415:\n        /* \"#utility.yul\":6328:6413   */\n      swap2\n      pop\n        /* \"#utility.yul\":6283:6423   */\n      pop\n        /* \"#utility.yul\":5601:6430   */\n      swap3\n      swap6\n      swap2\n      swap5\n      pop\n      swap3\n      pop\n      jump\t// out\n        /* \"#utility.yul\":6436:6616   */\n    tag_73:\n        /* \"#utility.yul\":6484:6561   */\n      0x4e487b7100000000000000000000000000000000000000000000000000000000\n        /* \"#utility.yul\":6481:6482   */\n      0x00\n        /* \"#utility.yul\":6474:6562   */\n      mstore\n        /* \"#utility.yul\":6581:6585   */\n      0x41\n        /* \"#utility.yul\":6578:6579   */\n      0x04\n        /* \"#utility.yul\":6571:6586   */\n      mstore\n        /* \"#utility.yul\":6605:6609   */\n      0x24\n        /* \"#utility.yul\":6602:6603   */\n      0x00\n        /* \"#utility.yul\":6595:6610   */\n      revert\n        /* \"#utility.yul\":6622:6802   */\n    tag_77:\n        /* \"#utility.yul\":6670:6747   */\n      0x4e487b7100000000000000000000000000000000000000000000000000000000\n        /* \"#utility.yul\":6667:6668   */\n      0x00\n        /* \"#utility.yul\":6660:6748   */\n      mstore\n        /* \"#utility.yul\":6767:6771   */\n      0x32\n        /* \"#utility.yul\":6764:6765   */\n      0x04\n        /* \"#utility.yul\":6757:6772   */\n      mstore\n        /* \"#utility.yul\":6791:6795   */\n      0x24\n        /* \"#utility.yul\":6788:6789   */\n      0x00\n        /* \"#utility.yul\":6781:6796   */\n      revert\n        /* \"#utility.yul\":6808:6922   */\n    tag_293:\n        /* \"#utility.yul\":6875:6881   */\n      0x00\n        /* \"#utility.yul\":6909:6914   */\n      dup2\n        /* \"#utility.yul\":6903:6915   */\n      mload\n        /* \"#utility.yul\":6893:6915   */\n      swap1\n      pop\n        /* \"#utility.yul\":6808:6922   */\n      swap2\n      swap1\n      pop\n      jump\t// out\n        /* \"#utility.yul\":6928:7112   */\n    tag_294:\n        /* \"#utility.yul\":7027:7038   */\n      0x00\n        /* \"#utility.yul\":7061:7067   */\n      dup3\n        /* \"#utility.yul\":7056:7059   */\n      dup3\n        /* \"#utility.yul\":7049:7068   */\n      mstore\n        /* \"#utility.yul\":7101:7105   */\n      0x20\n        /* \"#utility.yul\":7096:7099   */\n      dup3\n        /* \"#utility.yul\":7092:7106   */\n      add\n        /* \"#utility.yul\":7077:7106   */\n      swap1\n      pop\n        /* \"#utility.yul\":6928:7112   */\n      swap3\n      swap2\n      pop\n      pop\n      jump\t// out\n        /* \"#utility.yul\":7118:7250   */\n    tag_295:\n        /* \"#utility.yul\":7185:7189   */\n      0x00\n        /* \"#utility.yul\":7208:7211   */\n      dup2\n        /* \"#utility.yul\":7200:7211   */\n      swap1\n      pop\n        /* \"#utility.yul\":7238:7242   */\n      0x20\n        /* \"#utility.yul\":7233:7236   */\n      dup3\n        /* \"#utility.yul\":7229:7243   */\n      add\n        /* \"#utility.yul\":7221:7243   */\n      swap1\n      pop\n        /* \"#utility.yul\":7118:7250   */\n      swap2\n      swap1\n      pop\n      jump\t// out\n        /* \"#utility.yul\":7256:7364   */\n    tag_296:\n        /* \"#utility.yul\":7333:7357   */\n      tag_422\n        /* \"#utility.yul\":7351:7356   */\n      dup2\n        /* \"#utility.yul\":7333:7357   */\n      tag_271\n      jump\t// in\n    tag_422:\n        /* \"#utility.yul\":7328:7331   */\n      dup3\n        /* \"#utility.yul\":7321:7358   */\n      mstore\n        /* \"#utility.yul\":7256:7364   */\n      pop\n      pop\n      jump\t// out\n        /* \"#utility.yul\":7370:7549   */\n    tag_297:\n        /* \"#utility.yul\":7439:7449   */\n      0x00\n        /* \"#utility.yul\":7460:7506   */\n      tag_424\n        /* \"#utility.yul\":7502:7505   */\n      dup4\n        /* \"#utility.yul\":7494:7500   */\n      dup4\n        /* \"#utility.yul\":7460:7506   */\n      tag_296\n      jump\t// in\n    tag_424:\n        /* \"#utility.yul\":7538:7542   */\n      0x20\n        /* \"#utility.yul\":7533:7536   */\n      dup4\n        /* \"#utility.yul\":7529:7543   */\n      add\n        /* \"#utility.yul\":7515:7543   */\n      swap1\n      pop\n        /* \"#utility.yul\":7370:7549   */\n      swap3\n      swap2\n      pop\n      pop\n      jump\t// out\n        /* \"#utility.yul\":7555:7668   */\n    tag_298:\n        /* \"#utility.yul\":7625:7629   */\n      0x00\n        /* \"#utility.yul\":7657:7661   */\n      0x20\n        /* \"#utility.yul\":7652:7655   */\n      dup3\n        /* \"#utility.yul\":7648:7662   */\n      add\n        /* \"#utility.yul\":7640:7662   */\n      swap1\n      pop\n        /* \"#utility.yul\":7555:7668   */\n      swap2\n      swap1\n      pop\n      jump\t// out\n        /* \"#utility.yul\":7704:8436   */\n    tag_299:\n        /* \"#utility.yul\":7823:7826   */\n      0x00\n        /* \"#utility.yul\":7852:7906   */\n      tag_427\n        /* \"#utility.yul\":7900:7905   */\n      dup3\n        /* \"#utility.yul\":7852:7906   */\n      tag_293\n      jump\t// in\n    tag_427:\n        /* \"#utility.yul\":7922:8008   */\n      tag_428\n        /* \"#utility.yul\":8001:8007   */\n      dup2\n        /* \"#utility.yul\":7996:7999   */\n      dup6\n        /* \"#utility.yul\":7922:8008   */\n      tag_294\n      jump\t// in\n    tag_428:\n        /* \"#utility.yul\":7915:8008   */\n      swap4\n      pop\n        /* \"#utility.yul\":8032:8088   */\n      tag_429\n        /* \"#utility.yul\":8082:8087   */\n      dup4\n        /* \"#utility.yul\":8032:8088   */\n      tag_295\n      jump\t// in\n    tag_429:\n        /* \"#utility.yul\":8111:8118   */\n      dup1\n        /* \"#utility.yul\":8142:8143   */\n      0x00\n        /* \"#utility.yul\":8127:8411   */\n    tag_430:\n        /* \"#utility.yul\":8152:8158   */\n      dup4\n        /* \"#utility.yul\":8149:8150   */\n      dup2\n        /* \"#utility.yul\":8146:8159   */\n      lt\n        /* \"#utility.yul\":8127:8411   */\n      iszero\n      tag_432\n      jumpi\n        /* \"#utility.yul\":8228:8234   */\n      dup2\n        /* \"#utility.yul\":8222:8235   */\n      mload\n        /* \"#utility.yul\":8255:8318   */\n      tag_433\n        /* \"#utility.yul\":8314:8317   */\n      dup9\n        /* \"#utility.yul\":8299:8312   */\n      dup3\n        /* \"#utility.yul\":8255:8318   */\n      tag_297\n      jump\t// in\n    tag_433:\n        /* \"#utility.yul\":8248:8318   */\n      swap8\n      pop\n        /* \"#utility.yul\":8341:8401   */\n      tag_434\n        /* \"#utility.yul\":8394:8400   */\n      dup4\n        /* \"#utility.yul\":8341:8401   */\n      tag_298\n      jump\t// in\n    tag_434:\n        /* \"#utility.yul\":8331:8401   */\n      swap3\n      pop\n        /* \"#utility.yul\":8187:8411   */\n      pop\n        /* \"#utility.yul\":8174:8175   */\n      0x01\n        /* \"#utility.yul\":8171:8172   */\n      dup2\n        /* \"#utility.yul\":8167:8176   */\n      add\n        /* \"#utility.yul\":8162:8176   */\n      swap1\n      pop\n        /* \"#utility.yul\":8127:8411   */\n      jump(tag_430)\n    tag_432:\n        /* \"#utility.yul\":8131:8145   */\n      pop\n        /* \"#utility.yul\":8427:8430   */\n      dup6\n        /* \"#utility.yul\":8420:8430   */\n      swap4\n      pop\n        /* \"#utility.yul\":7828:8436   */\n      pop\n      pop\n      pop\n        /* \"#utility.yul\":7704:8436   */\n      swap3\n      swap2\n      pop\n      pop\n      jump\t// out\n        /* \"#utility.yul\":8442:8925   */\n    tag_83:\n        /* \"#utility.yul\":8613:8617   */\n      0x00\n        /* \"#utility.yul\":8651:8653   */\n      0x40\n        /* \"#utility.yul\":8640:8649   */\n      dup3\n        /* \"#utility.yul\":8636:8654   */\n      add\n        /* \"#utility.yul\":8628:8654   */\n      swap1\n      pop\n        /* \"#utility.yul\":8664:8735   */\n      tag_436\n        /* \"#utility.yul\":8732:8733   */\n      0x00\n        /* \"#utility.yul\":8721:8730   */\n      dup4\n        /* \"#utility.yul\":8717:8734   */\n      add\n        /* \"#utility.yul\":8708:8714   */\n      dup6\n        /* \"#utility.yul\":8664:8735   */\n      tag_275\n      jump\t// in\n    tag_436:\n        /* \"#utility.yul\":8782:8791   */\n      dup2\n        /* \"#utility.yul\":8776:8780   */\n      dup2\n        /* \"#utility.yul\":8772:8792   */\n      sub\n        /* \"#utility.yul\":8767:8769   */\n      0x20\n        /* \"#utility.yul\":8756:8765   */\n      dup4\n        /* \"#utility.yul\":8752:8770   */\n      add\n        /* \"#utility.yul\":8745:8793   */\n      mstore\n        /* \"#utility.yul\":8810:8918   */\n      tag_437\n        /* \"#utility.yul\":8913:8917   */\n      dup2\n        /* \"#utility.yul\":8904:8910   */\n      dup5\n        /* \"#utility.yul\":8810:8918   */\n      tag_299\n      jump\t// in\n    tag_437:\n        /* \"#utility.yul\":8802:8918   */\n      swap1\n      pop\n        /* \"#utility.yul\":8442:8925   */\n      swap4\n      swap3\n      pop\n      pop\n      pop\n      jump\t// out\n        /* \"#utility.yul\":8931:9048   */\n    tag_300:\n        /* \"#utility.yul\":9040:9041   */\n      0x00\n        /* \"#utility.yul\":9037:9038   */\n      dup1\n        /* \"#utility.yul\":9030:9042   */\n      revert\n        /* \"#utility.yul\":9054:9156   */\n    tag_301:\n        /* \"#utility.yul\":9095:9101   */\n      0x00\n        /* \"#utility.yul\":9146:9148   */\n      0x1f\n        /* \"#utility.yul\":9142:9149   */\n      not\n        /* \"#utility.yul\":9137:9139   */\n      0x1f\n        /* \"#utility.yul\":9130:9135   */\n      dup4\n        /* \"#utility.yul\":9126:9140   */\n      add\n        /* \"#utility.yul\":9122:9150   */\n      and\n        /* \"#utility.yul\":9112:9150   */\n      swap1\n      pop\n        /* \"#utility.yul\":9054:9156   */\n      swap2\n      swap1\n      pop\n      jump\t// out\n        /* \"#utility.yul\":9162:9443   */\n    tag_302:\n        /* \"#utility.yul\":9245:9272   */\n      tag_441\n        /* \"#utility.yul\":9267:9271   */\n      dup3\n        /* \"#utility.yul\":9245:9272   */\n      tag_301\n      jump\t// in\n    tag_441:\n        /* \"#utility.yul\":9237:9243   */\n      dup2\n        /* \"#utility.yul\":9233:9273   */\n      add\n        /* \"#utility.yul\":9375:9381   */\n      dup2\n        /* \"#utility.yul\":9363:9373   */\n      dup2\n        /* \"#utility.yul\":9360:9382   */\n      lt\n        /* \"#utility.yul\":9339:9357   */\n      0xffffffffffffffff\n        /* \"#utility.yul\":9327:9337   */\n      dup3\n        /* \"#utility.yul\":9324:9358   */\n      gt\n        /* \"#utility.yul\":9321:9383   */\n      or\n        /* \"#utility.yul\":9318:9406   */\n      iszero\n      tag_442\n      jumpi\n        /* \"#utility.yul\":9386:9404   */\n      tag_443\n      tag_73\n      jump\t// in\n    tag_443:\n        /* \"#utility.yul\":9318:9406   */\n    tag_442:\n        /* \"#utility.yul\":9426:9436   */\n      dup1\n        /* \"#utility.yul\":9422:9424   */\n      0x40\n        /* \"#utility.yul\":9415:9437   */\n      mstore\n        /* \"#utility.yul\":9205:9443   */\n      pop\n        /* \"#utility.yul\":9162:9443   */\n      pop\n      pop\n      jump\t// out\n        /* \"#utility.yul\":9449:9578   */\n    tag_303:\n        /* \"#utility.yul\":9483:9489   */\n      0x00\n        /* \"#utility.yul\":9510:9530   */\n      tag_445\n      tag_267\n      jump\t// in\n    tag_445:\n        /* \"#utility.yul\":9500:9530   */\n      swap1\n      pop\n        /* \"#utility.yul\":9539:9572   */\n      tag_446\n        /* \"#utility.yul\":9567:9571   */\n      dup3\n        /* \"#utility.yul\":9559:9565   */\n      dup3\n        /* \"#utility.yul\":9539:9572   */\n      tag_302\n      jump\t// in\n    tag_446:\n        /* \"#utility.yul\":9449:9578   */\n      swap2\n      swap1\n      pop\n      jump\t// out\n        /* \"#utility.yul\":9584:9895   */\n    tag_304:\n        /* \"#utility.yul\":9661:9665   */\n      0x00\n        /* \"#utility.yul\":9751:9769   */\n      0xffffffffffffffff\n        /* \"#utility.yul\":9743:9749   */\n      dup3\n        /* \"#utility.yul\":9740:9770   */\n      gt\n        /* \"#utility.yul\":9737:9793   */\n      iszero\n      tag_448\n      jumpi\n        /* \"#utility.yul\":9773:9791   */\n      tag_449\n      tag_73\n      jump\t// in\n    tag_449:\n        /* \"#utility.yul\":9737:9793   */\n    tag_448:\n        /* \"#utility.yul\":9823:9827   */\n      0x20\n        /* \"#utility.yul\":9815:9821   */\n      dup3\n        /* \"#utility.yul\":9811:9828   */\n      mul\n        /* \"#utility.yul\":9803:9828   */\n      swap1\n      pop\n        /* \"#utility.yul\":9883:9887   */\n      0x20\n        /* \"#utility.yul\":9877:9881   */\n      dup2\n        /* \"#utility.yul\":9873:9888   */\n      add\n        /* \"#utility.yul\":9865:9888   */\n      swap1\n      pop\n        /* \"#utility.yul\":9584:9895   */\n      swap2\n      swap1\n      pop\n      jump\t// out\n        /* \"#utility.yul\":9901:10018   */\n    tag_305:\n        /* \"#utility.yul\":10010:10011   */\n      0x00\n        /* \"#utility.yul\":10007:10008   */\n      dup1\n        /* \"#utility.yul\":10000:10012   */\n      revert\n        /* \"#utility.yul\":10024:10167   */\n    tag_306:\n        /* \"#utility.yul\":10081:10086   */\n      0x00\n        /* \"#utility.yul\":10112:10118   */\n      dup2\n        /* \"#utility.yul\":10106:10119   */\n      mload\n        /* \"#utility.yul\":10097:10119   */\n      swap1\n      pop\n        /* \"#utility.yul\":10128:10161   */\n      tag_452\n        /* \"#utility.yul\":10155:10160   */\n      dup2\n        /* \"#utility.yul\":10128:10161   */\n      tag_291\n      jump\t// in\n    tag_452:\n        /* \"#utility.yul\":10024:10167   */\n      swap3\n      swap2\n      pop\n      pop\n      jump\t// out\n        /* \"#utility.yul\":10190:10922   */\n    tag_307:\n        /* \"#utility.yul\":10297:10302   */\n      0x00\n        /* \"#utility.yul\":10322:10403   */\n      tag_454\n        /* \"#utility.yul\":10338:10402   */\n      tag_455\n        /* \"#utility.yul\":10395:10401   */\n      dup5\n        /* \"#utility.yul\":10338:10402   */\n      tag_304\n      jump\t// in\n    tag_455:\n        /* \"#utility.yul\":10322:10403   */\n      tag_303\n      jump\t// in\n    tag_454:\n        /* \"#utility.yul\":10313:10403   */\n      swap1\n      pop\n        /* \"#utility.yul\":10423:10428   */\n      dup1\n        /* \"#utility.yul\":10452:10458   */\n      dup4\n        /* \"#utility.yul\":10445:10450   */\n      dup3\n        /* \"#utility.yul\":10438:10459   */\n      mstore\n        /* \"#utility.yul\":10486:10490   */\n      0x20\n        /* \"#utility.yul\":10479:10484   */\n      dup3\n        /* \"#utility.yul\":10475:10491   */\n      add\n        /* \"#utility.yul\":10468:10491   */\n      swap1\n      pop\n        /* \"#utility.yul\":10539:10543   */\n      0x20\n        /* \"#utility.yul\":10531:10537   */\n      dup5\n        /* \"#utility.yul\":10527:10544   */\n      mul\n        /* \"#utility.yul\":10519:10525   */\n      dup4\n        /* \"#utility.yul\":10515:10545   */\n      add\n        /* \"#utility.yul\":10568:10571   */\n      dup6\n        /* \"#utility.yul\":10560:10566   */\n      dup2\n        /* \"#utility.yul\":10557:10572   */\n      gt\n        /* \"#utility.yul\":10554:10676   */\n      iszero\n      tag_456\n      jumpi\n        /* \"#utility.yul\":10587:10666   */\n      tag_457\n      tag_305\n      jump\t// in\n    tag_457:\n        /* \"#utility.yul\":10554:10676   */\n    tag_456:\n        /* \"#utility.yul\":10702:10708   */\n      dup4\n        /* \"#utility.yul\":10685:10916   */\n    tag_458:\n        /* \"#utility.yul\":10719:10725   */\n      dup2\n        /* \"#utility.yul\":10714:10717   */\n      dup2\n        /* \"#utility.yul\":10711:10726   */\n      lt\n        /* \"#utility.yul\":10685:10916   */\n      iszero\n      tag_460\n      jumpi\n        /* \"#utility.yul\":10794:10797   */\n      dup1\n        /* \"#utility.yul\":10823:10871   */\n      tag_461\n        /* \"#utility.yul\":10867:10870   */\n      dup9\n        /* \"#utility.yul\":10855:10865   */\n      dup3\n        /* \"#utility.yul\":10823:10871   */\n      tag_306\n      jump\t// in\n    tag_461:\n        /* \"#utility.yul\":10818:10821   */\n      dup5\n        /* \"#utility.yul\":10811:10872   */\n      mstore\n        /* \"#utility.yul\":10901:10905   */\n      0x20\n        /* \"#utility.yul\":10896:10899   */\n      dup5\n        /* \"#utility.yul\":10892:10906   */\n      add\n        /* \"#utility.yul\":10885:10906   */\n      swap4\n      pop\n        /* \"#utility.yul\":10761:10916   */\n      pop\n        /* \"#utility.yul\":10745:10749   */\n      0x20\n        /* \"#utility.yul\":10740:10743   */\n      dup2\n        /* \"#utility.yul\":10736:10750   */\n      add\n        /* \"#utility.yul\":10729:10750   */\n      swap1\n      pop\n        /* \"#utility.yul\":10685:10916   */\n      jump(tag_458)\n    tag_460:\n        /* \"#utility.yul\":10689:10710   */\n      pop\n        /* \"#utility.yul\":10303:10922   */\n      pop\n      pop\n        /* \"#utility.yul\":10190:10922   */\n      swap4\n      swap3\n      pop\n      pop\n      pop\n      jump\t// out\n        /* \"#utility.yul\":10945:11330   */\n    tag_308:\n        /* \"#utility.yul\":11027:11032   */\n      0x00\n        /* \"#utility.yul\":11076:11079   */\n      dup3\n        /* \"#utility.yul\":11069:11073   */\n      0x1f\n        /* \"#utility.yul\":11061:11067   */\n      dup4\n        /* \"#utility.yul\":11057:11074   */\n      add\n        /* \"#utility.yul\":11053:11080   */\n      slt\n        /* \"#utility.yul\":11043:11165   */\n      tag_463\n      jumpi\n        /* \"#utility.yul\":11084:11163   */\n      tag_464\n      tag_300\n      jump\t// in\n    tag_464:\n        /* \"#utility.yul\":11043:11165   */\n    tag_463:\n        /* \"#utility.yul\":11194:11200   */\n      dup2\n        /* \"#utility.yul\":11188:11201   */\n      mload\n        /* \"#utility.yul\":11219:11324   */\n      tag_465\n        /* \"#utility.yul\":11320:11323   */\n      dup5\n        /* \"#utility.yul\":11312:11318   */\n      dup3\n        /* \"#utility.yul\":11305:11309   */\n      0x20\n        /* \"#utility.yul\":11297:11303   */\n      dup7\n        /* \"#utility.yul\":11293:11310   */\n      add\n        /* \"#utility.yul\":11219:11324   */\n      tag_307\n      jump\t// in\n    tag_465:\n        /* \"#utility.yul\":11210:11324   */\n      swap2\n      pop\n        /* \"#utility.yul\":11033:11330   */\n      pop\n        /* \"#utility.yul\":10945:11330   */\n      swap3\n      swap2\n      pop\n      pop\n      jump\t// out\n        /* \"#utility.yul\":11336:11890   */\n    tag_87:\n        /* \"#utility.yul\":11431:11437   */\n      0x00\n        /* \"#utility.yul\":11480:11482   */\n      0x20\n        /* \"#utility.yul\":11468:11477   */\n      dup3\n        /* \"#utility.yul\":11459:11466   */\n      dup5\n        /* \"#utility.yul\":11455:11478   */\n      sub\n        /* \"#utility.yul\":11451:11483   */\n      slt\n        /* \"#utility.yul\":11448:11567   */\n      iszero\n      tag_467\n      jumpi\n        /* \"#utility.yul\":11486:11565   */\n      tag_468\n      tag_268\n      jump\t// in\n    tag_468:\n        /* \"#utility.yul\":11448:11567   */\n    tag_467:\n        /* \"#utility.yul\":11627:11628   */\n      0x00\n        /* \"#utility.yul\":11616:11625   */\n      dup3\n        /* \"#utility.yul\":11612:11629   */\n      add\n        /* \"#utility.yul\":11606:11630   */\n      mload\n        /* \"#utility.yul\":11657:11675   */\n      0xffffffffffffffff\n        /* \"#utility.yul\":11649:11655   */\n      dup2\n        /* \"#utility.yul\":11646:11676   */\n      gt\n        /* \"#utility.yul\":11643:11760   */\n      iszero\n      tag_469\n      jumpi\n        /* \"#utility.yul\":11679:11758   */\n      tag_470\n      tag_269\n      jump\t// in\n    tag_470:\n        /* \"#utility.yul\":11643:11760   */\n    tag_469:\n        /* \"#utility.yul\":11784:11873   */\n      tag_471\n        /* \"#utility.yul\":11865:11872   */\n      dup5\n        /* \"#utility.yul\":11856:11862   */\n      dup3\n        /* \"#utility.yul\":11845:11854   */\n      dup6\n        /* \"#utility.yul\":11841:11863   */\n      add\n        /* \"#utility.yul\":11784:11873   */\n      tag_308\n      jump\t// in\n    tag_471:\n        /* \"#utility.yul\":11774:11873   */\n      swap2\n      pop\n        /* \"#utility.yul\":11577:11883   */\n      pop\n        /* \"#utility.yul\":11336:11890   */\n      swap3\n      swap2\n      pop\n      pop\n      jump\t// out\n        /* \"#utility.yul\":11896:12006   */\n    tag_309:\n        /* \"#utility.yul\":11947:11954   */\n      0x00\n        /* \"#utility.yul\":11976:12000   */\n      tag_473\n        /* \"#utility.yul\":11994:11999   */\n      dup3\n        /* \"#utility.yul\":11976:12000   */\n      tag_271\n      jump\t// in\n    tag_473:\n        /* \"#utility.yul\":11965:12000   */\n      swap1\n      pop\n        /* \"#utility.yul\":11896:12006   */\n      swap2\n      swap1\n      pop\n      jump\t// out\n        /* \"#utility.yul\":12012:12162   */\n    tag_310:\n        /* \"#utility.yul\":12099:12137   */\n      tag_475\n        /* \"#utility.yul\":12131:12136   */\n      dup2\n        /* \"#utility.yul\":12099:12137   */\n      tag_309\n      jump\t// in\n    tag_475:\n        /* \"#utility.yul\":12092:12097   */\n      dup2\n        /* \"#utility.yul\":12089:12138   */\n      eq\n        /* \"#utility.yul\":12079:12156   */\n      tag_476\n      jumpi\n        /* \"#utility.yul\":12152:12153   */\n      0x00\n        /* \"#utility.yul\":12149:12150   */\n      dup1\n        /* \"#utility.yul\":12142:12154   */\n      revert\n        /* \"#utility.yul\":12079:12156   */\n    tag_476:\n        /* \"#utility.yul\":12012:12162   */\n      pop\n      jump\t// out\n        /* \"#utility.yul\":12168:12339   */\n    tag_311:\n        /* \"#utility.yul\":12239:12244   */\n      0x00\n        /* \"#utility.yul\":12270:12276   */\n      dup2\n        /* \"#utility.yul\":12264:12277   */\n      mload\n        /* \"#utility.yul\":12255:12277   */\n      swap1\n      pop\n        /* \"#utility.yul\":12286:12333   */\n      tag_478\n        /* \"#utility.yul\":12327:12332   */\n      dup2\n        /* \"#utility.yul\":12286:12333   */\n      tag_310\n      jump\t// in\n    tag_478:\n        /* \"#utility.yul\":12168:12339   */\n      swap3\n      swap2\n      pop\n      pop\n      jump\t// out\n        /* \"#utility.yul\":12345:12724   */\n    tag_94:\n        /* \"#utility.yul\":12429:12435   */\n      0x00\n        /* \"#utility.yul\":12478:12480   */\n      0x20\n        /* \"#utility.yul\":12466:12475   */\n      dup3\n        /* \"#utility.yul\":12457:12464   */\n      dup5\n        /* \"#utility.yul\":12453:12476   */\n      sub\n        /* \"#utility.yul\":12449:12481   */\n      slt\n        /* \"#utility.yul\":12446:12565   */\n      iszero\n      tag_480\n      jumpi\n        /* \"#utility.yul\":12484:12563   */\n      tag_481\n      tag_268\n      jump\t// in\n    tag_481:\n        /* \"#utility.yul\":12446:12565   */\n    tag_480:\n        /* \"#utility.yul\":12604:12605   */\n      0x00\n        /* \"#utility.yul\":12629:12707   */\n      tag_482\n        /* \"#utility.yul\":12699:12706   */\n      dup5\n        /* \"#utility.yul\":12690:12696   */\n      dup3\n        /* \"#utility.yul\":12679:12688   */\n      dup6\n        /* \"#utility.yul\":12675:12697   */\n      add\n        /* \"#utility.yul\":12629:12707   */\n      tag_311\n      jump\t// in\n    tag_482:\n        /* \"#utility.yul\":12619:12707   */\n      swap2\n      pop\n        /* \"#utility.yul\":12575:12717   */\n      pop\n        /* \"#utility.yul\":12345:12724   */\n      swap3\n      swap2\n      pop\n      pop\n      jump\t// out\n        /* \"#utility.yul\":12730:13081   */\n    tag_108:\n        /* \"#utility.yul\":12800:12806   */\n      0x00\n        /* \"#utility.yul\":12849:12851   */\n      0x20\n        /* \"#utility.yul\":12837:12846   */\n      dup3\n        /* \"#utility.yul\":12828:12835   */\n      dup5\n        /* \"#utility.yul\":12824:12847   */\n      sub\n        /* \"#utility.yul\":12820:12852   */\n      slt\n        /* \"#utility.yul\":12817:12936   */\n      iszero\n      tag_484\n      jumpi\n        /* \"#utility.yul\":12855:12934   */\n      tag_485\n      tag_268\n      jump\t// in\n    tag_485:\n        /* \"#utility.yul\":12817:12936   */\n    tag_484:\n        /* \"#utility.yul\":12975:12976   */\n      0x00\n        /* \"#utility.yul\":13000:13064   */\n      tag_486\n        /* \"#utility.yul\":13056:13063   */\n      dup5\n        /* \"#utility.yul\":13047:13053   */\n      dup3\n        /* \"#utility.yul\":13036:13045   */\n      dup6\n        /* \"#utility.yul\":13032:13054   */\n      add\n        /* \"#utility.yul\":13000:13064   */\n      tag_306\n      jump\t// in\n    tag_486:\n        /* \"#utility.yul\":12990:13064   */\n      swap2\n      pop\n        /* \"#utility.yul\":12946:13074   */\n      pop\n        /* \"#utility.yul\":12730:13081   */\n      swap3\n      swap2\n      pop\n      pop\n      jump\t// out\n        /* \"#utility.yul\":13087:13256   */\n    tag_312:\n        /* \"#utility.yul\":13171:13182   */\n      0x00\n        /* \"#utility.yul\":13205:13211   */\n      dup3\n        /* \"#utility.yul\":13200:13203   */\n      dup3\n        /* \"#utility.yul\":13193:13212   */\n      mstore\n        /* \"#utility.yul\":13245:13249   */\n      0x20\n        /* \"#utility.yul\":13240:13243   */\n      dup3\n        /* \"#utility.yul\":13236:13250   */\n      add\n        /* \"#utility.yul\":13221:13250   */\n      swap1\n      pop\n        /* \"#utility.yul\":13087:13256   */\n      swap3\n      swap2\n      pop\n      pop\n      jump\t// out\n        /* \"#utility.yul\":13262:13444   */\n    tag_313:\n        /* \"#utility.yul\":13402:13436   */\n      0x4f776e61626c653a2063616c6c6572206973206e6f7420746865206f776e6572\n        /* \"#utility.yul\":13398:13399   */\n      0x00\n        /* \"#utility.yul\":13390:13396   */\n      dup3\n        /* \"#utility.yul\":13386:13400   */\n      add\n        /* \"#utility.yul\":13379:13437   */\n      mstore\n        /* \"#utility.yul\":13262:13444   */\n      pop\n      jump\t// out\n        /* \"#utility.yul\":13450:13816   */\n    tag_314:\n        /* \"#utility.yul\":13592:13595   */\n      0x00\n        /* \"#utility.yul\":13613:13680   */\n      tag_490\n        /* \"#utility.yul\":13677:13679   */\n      0x20\n        /* \"#utility.yul\":13672:13675   */\n      dup4\n        /* \"#utility.yul\":13613:13680   */\n      tag_312\n      jump\t// in\n    tag_490:\n        /* \"#utility.yul\":13606:13680   */\n      swap2\n      pop\n        /* \"#utility.yul\":13689:13782   */\n      tag_491\n        /* \"#utility.yul\":13778:13781   */\n      dup3\n        /* \"#utility.yul\":13689:13782   */\n      tag_313\n      jump\t// in\n    tag_491:\n        /* \"#utility.yul\":13807:13809   */\n      0x20\n        /* \"#utility.yul\":13802:13805   */\n      dup3\n        /* \"#utility.yul\":13798:13810   */\n      add\n        /* \"#utility.yul\":13791:13810   */\n      swap1\n      pop\n        /* \"#utility.yul\":13450:13816   */\n      swap2\n      swap1\n      pop\n      jump\t// out\n        /* \"#utility.yul\":13822:14241   */\n    tag_179:\n        /* \"#utility.yul\":13988:13992   */\n      0x00\n        /* \"#utility.yul\":14026:14028   */\n      0x20\n        /* \"#utility.yul\":14015:14024   */\n      dup3\n        /* \"#utility.yul\":14011:14029   */\n      add\n        /* \"#utility.yul\":14003:14029   */\n      swap1\n      pop\n        /* \"#utility.yul\":14075:14084   */\n      dup2\n        /* \"#utility.yul\":14069:14073   */\n      dup2\n        /* \"#utility.yul\":14065:14085   */\n      sub\n        /* \"#utility.yul\":14061:14062   */\n      0x00\n        /* \"#utility.yul\":14050:14059   */\n      dup4\n        /* \"#utility.yul\":14046:14063   */\n      add\n        /* \"#utility.yul\":14039:14086   */\n      mstore\n        /* \"#utility.yul\":14103:14234   */\n      tag_493\n        /* \"#utility.yul\":14229:14233   */\n      dup2\n        /* \"#utility.yul\":14103:14234   */\n      tag_314\n      jump\t// in\n    tag_493:\n        /* \"#utility.yul\":14095:14234   */\n      swap1\n      pop\n        /* \"#utility.yul\":13822:14241   */\n      swap2\n      swap1\n      pop\n      jump\t// out\n        /* \"#utility.yul\":14247:14427   */\n    tag_315:\n        /* \"#utility.yul\":14295:14372   */\n      0x4e487b7100000000000000000000000000000000000000000000000000000000\n        /* \"#utility.yul\":14292:14293   */\n      0x00\n        /* \"#utility.yul\":14285:14373   */\n      mstore\n        /* \"#utility.yul\":14392:14396   */\n      0x11\n        /* \"#utility.yul\":14389:14390   */\n      0x04\n        /* \"#utility.yul\":14382:14397   */\n      mstore\n        /* \"#utility.yul\":14416:14420   */\n      0x24\n        /* \"#utility.yul\":14413:14414   */\n      0x00\n        /* \"#utility.yul\":14406:14421   */\n      revert\n        /* \"#utility.yul\":14433:14781   */\n    tag_206:\n        /* \"#utility.yul\":14473:14480   */\n      0x00\n        /* \"#utility.yul\":14496:14516   */\n      tag_496\n        /* \"#utility.yul\":14514:14515   */\n      dup3\n        /* \"#utility.yul\":14496:14516   */\n      tag_274\n      jump\t// in\n    tag_496:\n        /* \"#utility.yul\":14491:14516   */\n      swap2\n      pop\n        /* \"#utility.yul\":14530:14550   */\n      tag_497\n        /* \"#utility.yul\":14548:14549   */\n      dup4\n        /* \"#utility.yul\":14530:14550   */\n      tag_274\n      jump\t// in\n    tag_497:\n        /* \"#utility.yul\":14525:14550   */\n      swap3\n      pop\n        /* \"#utility.yul\":14718:14719   */\n      dup2\n        /* \"#utility.yul\":14650:14716   */\n      0xffffffffffffffffffffffffffffffffffffffffffffffffffffffffffffffff\n        /* \"#utility.yul\":14646:14720   */\n      div\n        /* \"#utility.yul\":14643:14644   */\n      dup4\n        /* \"#utility.yul\":14640:14721   */\n      gt\n        /* \"#utility.yul\":14635:14636   */\n      dup3\n        /* \"#utility.yul\":14628:14637   */\n      iszero\n        /* \"#utility.yul\":14621:14638   */\n      iszero\n        /* \"#utility.yul\":14617:14722   */\n      and\n        /* \"#utility.yul\":14614:14745   */\n      iszero\n      tag_498\n      jumpi\n        /* \"#utility.yul\":14725:14743   */\n      tag_499\n      tag_315\n      jump\t// in\n    tag_499:\n        /* \"#utility.yul\":14614:14745   */\n    tag_498:\n        /* \"#utility.yul\":14773:14774   */\n      dup3\n        /* \"#utility.yul\":14770:14771   */\n      dup3\n        /* \"#utility.yul\":14766:14775   */\n      mul\n        /* \"#utility.yul\":14755:14775   */\n      swap1\n      pop\n        /* \"#utility.yul\":14433:14781   */\n      swap3\n      swap2\n      pop\n      pop\n      jump\t// out\n        /* \"#utility.yul\":14787:14904   */\n    tag_316:\n        /* \"#utility.yul\":14896:14897   */\n      0x00\n        /* \"#utility.yul\":14893:14894   */\n      dup1\n        /* \"#utility.yul\":14886:14898   */\n      revert\n        /* \"#utility.yul\":15033:15148   */\n    tag_318:\n        /* \"#utility.yul\":15089:15096   */\n      0x00\n        /* \"#utility.yul\":15118:15142   */\n      tag_503\n        /* \"#utility.yul\":15136:15141   */\n      dup3\n        /* \"#utility.yul\":15118:15142   */\n      tag_271\n      jump\t// in\n    tag_503:\n        /* \"#utility.yul\":15107:15142   */\n      swap1\n      pop\n        /* \"#utility.yul\":15033:15148   */\n      swap2\n      swap1\n      pop\n      jump\t// out\n        /* \"#utility.yul\":15154:15314   */\n    tag_319:\n        /* \"#utility.yul\":15246:15289   */\n      tag_505\n        /* \"#utility.yul\":15283:15288   */\n      dup2\n        /* \"#utility.yul\":15246:15289   */\n      tag_318\n      jump\t// in\n    tag_505:\n        /* \"#utility.yul\":15239:15244   */\n      dup2\n        /* \"#utility.yul\":15236:15290   */\n      eq\n        /* \"#utility.yul\":15226:15308   */\n      tag_506\n      jumpi\n        /* \"#utility.yul\":15304:15305   */\n      0x00\n        /* \"#utility.yul\":15301:15302   */\n      dup1\n        /* \"#utility.yul\":15294:15306   */\n      revert\n        /* \"#utility.yul\":15226:15308   */\n    tag_506:\n        /* \"#utility.yul\":15154:15314   */\n      pop\n      jump\t// out\n        /* \"#utility.yul\":15320:15501   */\n    tag_320:\n        /* \"#utility.yul\":15396:15401   */\n      0x00\n        /* \"#utility.yul\":15427:15433   */\n      dup2\n        /* \"#utility.yul\":15421:15434   */\n      mload\n        /* \"#utility.yul\":15412:15434   */\n      swap1\n      pop\n        /* \"#utility.yul\":15443:15495   */\n      tag_508\n        /* \"#utility.yul\":15489:15494   */\n      dup2\n        /* \"#utility.yul\":15443:15495   */\n      tag_319\n      jump\t// in\n    tag_508:\n        /* \"#utility.yul\":15320:15501   */\n      swap3\n      swap2\n      pop\n      pop\n      jump\t// out\n        /* \"#utility.yul\":15530:16921   */\n    tag_321:\n        /* \"#utility.yul\":15615:15620   */\n      0x00\n        /* \"#utility.yul\":15659:15663   */\n      0xc0\n        /* \"#utility.yul\":15647:15656   */\n      dup3\n        /* \"#utility.yul\":15642:15645   */\n      dup5\n        /* \"#utility.yul\":15638:15657   */\n      sub\n        /* \"#utility.yul\":15634:15664   */\n      slt\n        /* \"#utility.yul\":15631:15748   */\n      iszero\n      tag_510\n      jumpi\n        /* \"#utility.yul\":15667:15746   */\n      tag_511\n      tag_316\n      jump\t// in\n    tag_511:\n        /* \"#utility.yul\":15631:15748   */\n    tag_510:\n        /* \"#utility.yul\":15766:15787   */\n      tag_512\n        /* \"#utility.yul\":15782:15786   */\n      0xc0\n        /* \"#utility.yul\":15766:15787   */\n      tag_303\n      jump\t// in\n    tag_512:\n        /* \"#utility.yul\":15757:15787   */\n      swap1\n      pop\n        /* \"#utility.yul\":15849:15850   */\n      0x00\n        /* \"#utility.yul\":15889:15963   */\n      tag_513\n        /* \"#utility.yul\":15959:15962   */\n      dup5\n        /* \"#utility.yul\":15950:15956   */\n      dup3\n        /* \"#utility.yul\":15939:15948   */\n      dup6\n        /* \"#utility.yul\":15935:15957   */\n      add\n        /* \"#utility.yul\":15889:15963   */\n      tag_311\n      jump\t// in\n    tag_513:\n        /* \"#utility.yul\":15882:15886   */\n      0x00\n        /* \"#utility.yul\":15875:15880   */\n      dup4\n        /* \"#utility.yul\":15871:15887   */\n      add\n        /* \"#utility.yul\":15864:15964   */\n      mstore\n        /* \"#utility.yul\":15797:15975   */\n      pop\n        /* \"#utility.yul\":16040:16042   */\n      0x20\n        /* \"#utility.yul\":16081:16141   */\n      tag_514\n        /* \"#utility.yul\":16137:16140   */\n      dup5\n        /* \"#utility.yul\":16128:16134   */\n      dup3\n        /* \"#utility.yul\":16117:16126   */\n      dup6\n        /* \"#utility.yul\":16113:16135   */\n      add\n        /* \"#utility.yul\":16081:16141   */\n      tag_306\n      jump\t// in\n    tag_514:\n        /* \"#utility.yul\":16074:16078   */\n      0x20\n        /* \"#utility.yul\":16067:16072   */\n      dup4\n        /* \"#utility.yul\":16063:16079   */\n      add\n        /* \"#utility.yul\":16056:16142   */\n      mstore\n        /* \"#utility.yul\":15985:16153   */\n      pop\n        /* \"#utility.yul\":16223:16225   */\n      0x40\n        /* \"#utility.yul\":16264:16324   */\n      tag_515\n        /* \"#utility.yul\":16320:16323   */\n      dup5\n        /* \"#utility.yul\":16311:16317   */\n      dup3\n        /* \"#utility.yul\":16300:16309   */\n      dup6\n        /* \"#utility.yul\":16296:16318   */\n      add\n        /* \"#utility.yul\":16264:16324   */\n      tag_306\n      jump\t// in\n    tag_515:\n        /* \"#utility.yul\":16257:16261   */\n      0x40\n        /* \"#utility.yul\":16250:16255   */\n      dup4\n        /* \"#utility.yul\":16246:16262   */\n      add\n        /* \"#utility.yul\":16239:16325   */\n      mstore\n        /* \"#utility.yul\":16163:16336   */\n      pop\n        /* \"#utility.yul\":16405:16407   */\n      0x60\n        /* \"#utility.yul\":16446:16506   */\n      tag_516\n        /* \"#utility.yul\":16502:16505   */\n      dup5\n        /* \"#utility.yul\":16493:16499   */\n      dup3\n        /* \"#utility.yul\":16482:16491   */\n      dup6\n        /* \"#utility.yul\":16478:16500   */\n      add\n        /* \"#utility.yul\":16446:16506   */\n      tag_306\n      jump\t// in\n    tag_516:\n        /* \"#utility.yul\":16439:16443   */\n      0x60\n        /* \"#utility.yul\":16432:16437   */\n      dup4\n        /* \"#utility.yul\":16428:16444   */\n      add\n        /* \"#utility.yul\":16421:16507   */\n      mstore\n        /* \"#utility.yul\":16346:16518   */\n      pop\n        /* \"#utility.yul\":16587:16590   */\n      0x80\n        /* \"#utility.yul\":16629:16708   */\n      tag_517\n        /* \"#utility.yul\":16704:16707   */\n      dup5\n        /* \"#utility.yul\":16695:16701   */\n      dup3\n        /* \"#utility.yul\":16684:16693   */\n      dup6\n        /* \"#utility.yul\":16680:16702   */\n      add\n        /* \"#utility.yul\":16629:16708   */\n      tag_320\n      jump\t// in\n    tag_517:\n        /* \"#utility.yul\":16622:16626   */\n      0x80\n        /* \"#utility.yul\":16615:16620   */\n      dup4\n        /* \"#utility.yul\":16611:16627   */\n      add\n        /* \"#utility.yul\":16604:16709   */\n      mstore\n        /* \"#utility.yul\":16528:16720   */\n      pop\n        /* \"#utility.yul\":16786:16789   */\n      0xa0\n        /* \"#utility.yul\":16828:16902   */\n      tag_518\n        /* \"#utility.yul\":16898:16901   */\n      dup5\n        /* \"#utility.yul\":16889:16895   */\n      dup3\n        /* \"#utility.yul\":16878:16887   */\n      dup6\n        /* \"#utility.yul\":16874:16896   */\n      add\n        /* \"#utility.yul\":16828:16902   */\n      tag_311\n      jump\t// in\n    tag_518:\n        /* \"#utility.yul\":16821:16825   */\n      0xa0\n        /* \"#utility.yul\":16814:16819   */\n      dup4\n        /* \"#utility.yul\":16810:16826   */\n      add\n        /* \"#utility.yul\":16803:16903   */\n      mstore\n        /* \"#utility.yul\":16730:16914   */\n      pop\n        /* \"#utility.yul\":15530:16921   */\n      swap3\n      swap2\n      pop\n      pop\n      jump\t// out\n        /* \"#utility.yul\":16927:17329   */\n    tag_212:\n        /* \"#utility.yul\":17022:17028   */\n      0x00\n        /* \"#utility.yul\":17071:17074   */\n      0xc0\n        /* \"#utility.yul\":17059:17068   */\n      dup3\n        /* \"#utility.yul\":17050:17057   */\n      dup5\n        /* \"#utility.yul\":17046:17069   */\n      sub\n        /* \"#utility.yul\":17042:17075   */\n      slt\n        /* \"#utility.yul\":17039:17159   */\n      iszero\n      tag_520\n      jumpi\n        /* \"#utility.yul\":17078:17157   */\n      tag_521\n      tag_268\n      jump\t// in\n    tag_521:\n        /* \"#utility.yul\":17039:17159   */\n    tag_520:\n        /* \"#utility.yul\":17198:17199   */\n      0x00\n        /* \"#utility.yul\":17223:17312   */\n      tag_522\n        /* \"#utility.yul\":17304:17311   */\n      dup5\n        /* \"#utility.yul\":17295:17301   */\n      dup3\n        /* \"#utility.yul\":17284:17293   */\n      dup6\n        /* \"#utility.yul\":17280:17302   */\n      add\n        /* \"#utility.yul\":17223:17312   */\n      tag_321\n      jump\t// in\n    tag_522:\n        /* \"#utility.yul\":17213:17312   */\n      swap2\n      pop\n        /* \"#utility.yul\":17169:17322   */\n      pop\n        /* \"#utility.yul\":16927:17329   */\n      swap3\n      swap2\n      pop\n      pop\n      jump\t// out\n        /* \"#utility.yul\":17335:17478   */\n    tag_322:\n        /* \"#utility.yul\":17392:17397   */\n      0x00\n        /* \"#utility.yul\":17423:17429   */\n      dup2\n        /* \"#utility.yul\":17417:17430   */\n      mload\n        /* \"#utility.yul\":17408:17430   */\n      swap1\n      pop\n        /* \"#utility.yul\":17439:17472   */\n      tag_524\n        /* \"#utility.yul\":17466:17471   */\n      dup2\n        /* \"#utility.yul\":17439:17472   */\n      tag_272\n      jump\t// in\n    tag_524:\n        /* \"#utility.yul\":17335:17478   */\n      swap3\n      swap2\n      pop\n      pop\n      jump\t// out\n        /* \"#utility.yul\":17484:17835   */\n    tag_222:\n        /* \"#utility.yul\":17554:17560   */\n      0x00\n        /* \"#utility.yul\":17603:17605   */\n      0x20\n        /* \"#utility.yul\":17591:17600   */\n      dup3\n        /* \"#utility.yul\":17582:17589   */\n      dup5\n        /* \"#utility.yul\":17578:17601   */\n      sub\n        /* \"#utility.yul\":17574:17606   */\n      slt\n        /* \"#utility.yul\":17571:17690   */\n      iszero\n      tag_526\n      jumpi\n        /* \"#utility.yul\":17609:17688   */\n      tag_527\n      tag_268\n      jump\t// in\n    tag_527:\n        /* \"#utility.yul\":17571:17690   */\n    tag_526:\n        /* \"#utility.yul\":17729:17730   */\n      0x00\n        /* \"#utility.yul\":17754:17818   */\n      tag_528\n        /* \"#utility.yul\":17810:17817   */\n      dup5\n        /* \"#utility.yul\":17801:17807   */\n      dup3\n        /* \"#utility.yul\":17790:17799   */\n      dup6\n        /* \"#utility.yul\":17786:17808   */\n      add\n        /* \"#utility.yul\":17754:17818   */\n      tag_322\n      jump\t// in\n    tag_528:\n        /* \"#utility.yul\":17744:17818   */\n      swap2\n      pop\n        /* \"#utility.yul\":17700:17828   */\n      pop\n        /* \"#utility.yul\":17484:17835   */\n      swap3\n      swap2\n      pop\n      pop\n      jump\t// out\n        /* \"#utility.yul\":17841:18066   */\n    tag_323:\n        /* \"#utility.yul\":17981:18015   */\n      0x4f776e61626c653a206e6577206f776e657220697320746865207a65726f2061\n        /* \"#utility.yul\":17977:17978   */\n      0x00\n        /* \"#utility.yul\":17969:17975   */\n      dup3\n        /* \"#utility.yul\":17965:17979   */\n      add\n        /* \"#utility.yul\":17958:18016   */\n      mstore\n        /* \"#utility.yul\":18050:18058   */\n      0x6464726573730000000000000000000000000000000000000000000000000000\n        /* \"#utility.yul\":18045:18047   */\n      0x20\n        /* \"#utility.yul\":18037:18043   */\n      dup3\n        /* \"#utility.yul\":18033:18048   */\n      add\n        /* \"#utility.yul\":18026:18059   */\n      mstore\n        /* \"#utility.yul\":17841:18066   */\n      pop\n      jump\t// out\n        /* \"#utility.yul\":18072:18438   */\n    tag_324:\n        /* \"#utility.yul\":18214:18217   */\n      0x00\n        /* \"#utility.yul\":18235:18302   */\n      tag_531\n        /* \"#utility.yul\":18299:18301   */\n      0x26\n        /* \"#utility.yul\":18294:18297   */\n      dup4\n        /* \"#utility.yul\":18235:18302   */\n      tag_312\n      jump\t// in\n    tag_531:\n        /* \"#utility.yul\":18228:18302   */\n      swap2\n      pop\n        /* \"#utility.yul\":18311:18404   */\n      tag_532\n        /* \"#utility.yul\":18400:18403   */\n      dup3\n        /* \"#utility.yul\":18311:18404   */\n      tag_323\n      jump\t// in\n    tag_532:\n        /* \"#utility.yul\":18429:18431   */\n      0x40\n        /* \"#utility.yul\":18424:18427   */\n      dup3\n        /* \"#utility.yul\":18420:18432   */\n      add\n        /* \"#utility.yul\":18413:18432   */\n      swap1\n      pop\n        /* \"#utility.yul\":18072:18438   */\n      swap2\n      swap1\n      pop\n      jump\t// out\n        /* \"#utility.yul\":18444:18863   */\n    tag_241:\n        /* \"#utility.yul\":18610:18614   */\n      0x00\n        /* \"#utility.yul\":18648:18650   */\n      0x20\n        /* \"#utility.yul\":18637:18646   */\n      dup3\n        /* \"#utility.yul\":18633:18651   */\n      add\n        /* \"#utility.yul\":18625:18651   */\n      swap1\n      pop\n        /* \"#utility.yul\":18697:18706   */\n      dup2\n        /* \"#utility.yul\":18691:18695   */\n      dup2\n        /* \"#utility.yul\":18687:18707   */\n      sub\n        /* \"#utility.yul\":18683:18684   */\n      0x00\n        /* \"#utility.yul\":18672:18681   */\n      dup4\n        /* \"#utility.yul\":18668:18685   */\n      add\n        /* \"#utility.yul\":18661:18708   */\n      mstore\n        /* \"#utility.yul\":18725:18856   */\n      tag_534\n        /* \"#utility.yul\":18851:18855   */\n      dup2\n        /* \"#utility.yul\":18725:18856   */\n      tag_324\n      jump\t// in\n    tag_534:\n        /* \"#utility.yul\":18717:18856   */\n      swap1\n      pop\n        /* \"#utility.yul\":18444:18863   */\n      swap2\n      swap1\n      pop\n      jump\t// out\n        /* \"#utility.yul\":18869:19049   */\n    tag_325:\n        /* \"#utility.yul\":18917:18994   */\n      0x4e487b7100000000000000000000000000000000000000000000000000000000\n        /* \"#utility.yul\":18914:18915   */\n      0x00\n        /* \"#utility.yul\":18907:18995   */\n      mstore\n        /* \"#utility.yul\":19014:19018   */\n      0x12\n        /* \"#utility.yul\":19011:19012   */\n      0x04\n        /* \"#utility.yul\":19004:19019   */\n      mstore\n        /* \"#utility.yul\":19038:19042   */\n      0x24\n        /* \"#utility.yul\":19035:19036   */\n      0x00\n        /* \"#utility.yul\":19028:19043   */\n      revert\n        /* \"#utility.yul\":19055:19240   */\n    tag_247:\n        /* \"#utility.yul\":19095:19096   */\n      0x00\n        /* \"#utility.yul\":19112:19132   */\n      tag_537\n        /* \"#utility.yul\":19130:19131   */\n      dup3\n        /* \"#utility.yul\":19112:19132   */\n      tag_274\n      jump\t// in\n    tag_537:\n        /* \"#utility.yul\":19107:19132   */\n      swap2\n      pop\n        /* \"#utility.yul\":19146:19166   */\n      tag_538\n        /* \"#utility.yul\":19164:19165   */\n      dup4\n        /* \"#utility.yul\":19146:19166   */\n      tag_274\n      jump\t// in\n    tag_538:\n        /* \"#utility.yul\":19141:19166   */\n      swap3\n      pop\n        /* \"#utility.yul\":19185:19186   */\n      dup3\n        /* \"#utility.yul\":19175:19210   */\n      tag_539\n      jumpi\n        /* \"#utility.yul\":19190:19208   */\n      tag_540\n      tag_325\n      jump\t// in\n    tag_540:\n        /* \"#utility.yul\":19175:19210   */\n    tag_539:\n        /* \"#utility.yul\":19232:19233   */\n      dup3\n        /* \"#utility.yul\":19229:19230   */\n      dup3\n        /* \"#utility.yul\":19225:19234   */\n      div\n        /* \"#utility.yul\":19220:19234   */\n      swap1\n      pop\n        /* \"#utility.yul\":19055:19240   */\n      swap3\n      swap2\n      pop\n      pop\n      jump\t// out\n        /* \"#utility.yul\":19246:19466   */\n    tag_326:\n        /* \"#utility.yul\":19386:19420   */\n      0x536166654d6174683a206d756c7469706c69636174696f6e206f766572666c6f\n        /* \"#utility.yul\":19382:19383   */\n      0x00\n        /* \"#utility.yul\":19374:19380   */\n      dup3\n        /* \"#utility.yul\":19370:19384   */\n      add\n        /* \"#utility.yul\":19363:19421   */\n      mstore\n        /* \"#utility.yul\":19455:19458   */\n      0x7700000000000000000000000000000000000000000000000000000000000000\n        /* \"#utility.yul\":19450:19452   */\n      0x20\n        /* \"#utility.yul\":19442:19448   */\n      dup3\n        /* \"#utility.yul\":19438:19453   */\n      add\n        /* \"#utility.yul\":19431:19459   */\n      mstore\n        /* \"#utility.yul\":19246:19466   */\n      pop\n      jump\t// out\n        /* \"#utility.yul\":19472:19838   */\n    tag_327:\n        /* \"#utility.yul\":19614:19617   */\n      0x00\n        /* \"#utility.yul\":19635:19702   */\n      tag_543\n        /* \"#utility.yul\":19699:19701   */\n      0x21\n        /* \"#utility.yul\":19694:19697   */\n      dup4\n        /* \"#utility.yul\":19635:19702   */\n      tag_312\n      jump\t// in\n    tag_543:\n        /* \"#utility.yul\":19628:19702   */\n      swap2\n      pop\n        /* \"#utility.yul\":19711:19804   */\n      tag_544\n        /* \"#utility.yul\":19800:19803   */\n      dup3\n        /* \"#utility.yul\":19711:19804   */\n      tag_326\n      jump\t// in\n    tag_544:\n        /* \"#utility.yul\":19829:19831   */\n      0x40\n        /* \"#utility.yul\":19824:19827   */\n      dup3\n        /* \"#utility.yul\":19820:19832   */\n      add\n        /* \"#utility.yul\":19813:19832   */\n      swap1\n      pop\n        /* \"#utility.yul\":19472:19838   */\n      swap2\n      swap1\n      pop\n      jump\t// out\n        /* \"#utility.yul\":19844:20263   */\n    tag_250:\n        /* \"#utility.yul\":20010:20014   */\n      0x00\n        /* \"#utility.yul\":20048:20050   */\n      0x20\n        /* \"#utility.yul\":20037:20046   */\n      dup3\n        /* \"#utility.yul\":20033:20051   */\n      add\n        /* \"#utility.yul\":20025:20051   */\n      swap1\n      pop\n        /* \"#utility.yul\":20097:20106   */\n      dup2\n        /* \"#utility.yul\":20091:20095   */\n      dup2\n        /* \"#utility.yul\":20087:20107   */\n      sub\n        /* \"#utility.yul\":20083:20084   */\n      0x00\n        /* \"#utility.yul\":20072:20081   */\n      dup4\n        /* \"#utility.yul\":20068:20085   */\n      add\n        /* \"#utility.yul\":20061:20108   */\n      mstore\n        /* \"#utility.yul\":20125:20256   */\n      tag_546\n        /* \"#utility.yul\":20251:20255   */\n      dup2\n        /* \"#utility.yul\":20125:20256   */\n      tag_327\n      jump\t// in\n    tag_546:\n        /* \"#utility.yul\":20117:20256   */\n      swap1\n      pop\n        /* \"#utility.yul\":19844:20263   */\n      swap2\n      swap1\n      pop\n      jump\t// out\n        /* \"#utility.yul\":20269:20574   */\n    tag_253:\n        /* \"#utility.yul\":20309:20312   */\n      0x00\n        /* \"#utility.yul\":20328:20348   */\n      tag_548\n        /* \"#utility.yul\":20346:20347   */\n      dup3\n        /* \"#utility.yul\":20328:20348   */\n      tag_274\n      jump\t// in\n    tag_548:\n        /* \"#utility.yul\":20323:20348   */\n      swap2\n      pop\n        /* \"#utility.yul\":20362:20382   */\n      tag_549\n        /* \"#utility.yul\":20380:20381   */\n      dup4\n        /* \"#utility.yul\":20362:20382   */\n      tag_274\n      jump\t// in\n    tag_549:\n        /* \"#utility.yul\":20357:20382   */\n      swap3\n      pop\n        /* \"#utility.yul\":20516:20517   */\n      dup3\n        /* \"#utility.yul\":20448:20514   */\n      0xffffffffffffffffffffffffffffffffffffffffffffffffffffffffffffffff\n        /* \"#utility.yul\":20444:20518   */\n      sub\n        /* \"#utility.yul\":20441:20442   */\n      dup3\n        /* \"#utility.yul\":20438:20519   */\n      gt\n        /* \"#utility.yul\":20435:20542   */\n      iszero\n      tag_550\n      jumpi\n        /* \"#utility.yul\":20522:20540   */\n      tag_551\n      tag_315\n      jump\t// in\n    tag_551:\n        /* \"#utility.yul\":20435:20542   */\n    tag_550:\n        /* \"#utility.yul\":20566:20567   */\n      dup3\n        /* \"#utility.yul\":20563:20564   */\n      dup3\n        /* \"#utility.yul\":20559:20568   */\n      add\n        /* \"#utility.yul\":20552:20568   */\n      swap1\n      pop\n        /* \"#utility.yul\":20269:20574   */\n      swap3\n      swap2\n      pop\n      pop\n      jump\t// out\n        /* \"#utility.yul\":20580:20757   */\n    tag_328:\n        /* \"#utility.yul\":20720:20749   */\n      0x536166654d6174683a206164646974696f6e206f766572666c6f770000000000\n        /* \"#utility.yul\":20716:20717   */\n      0x00\n        /* \"#utility.yul\":20708:20714   */\n      dup3\n        /* \"#utility.yul\":20704:20718   */\n      add\n        /* \"#utility.yul\":20697:20750   */\n      mstore\n        /* \"#utility.yul\":20580:20757   */\n      pop\n      jump\t// out\n        /* \"#utility.yul\":20763:21129   */\n    tag_329:\n        /* \"#utility.yul\":20905:20908   */\n      0x00\n        /* \"#utility.yul\":20926:20993   */\n      tag_554\n        /* \"#utility.yul\":20990:20992   */\n      0x1b\n        /* \"#utility.yul\":20985:20988   */\n      dup4\n        /* \"#utility.yul\":20926:20993   */\n      tag_312\n      jump\t// in\n    tag_554:\n        /* \"#utility.yul\":20919:20993   */\n      swap2\n      pop\n        /* \"#utility.yul\":21002:21095   */\n      tag_555\n        /* \"#utility.yul\":21091:21094   */\n      dup3\n        /* \"#utility.yul\":21002:21095   */\n      tag_328\n      jump\t// in\n    tag_555:\n        /* \"#utility.yul\":21120:21122   */\n      0x20\n        /* \"#utility.yul\":21115:21118   */\n      dup3\n        /* \"#utility.yul\":21111:21123   */\n      add\n        /* \"#utility.yul\":21104:21123   */\n      swap1\n      pop\n        /* \"#utility.yul\":20763:21129   */\n      swap2\n      swap1\n      pop\n      jump\t// out\n        /* \"#utility.yul\":21135:21554   */\n    tag_256:\n        /* \"#utility.yul\":21301:21305   */\n      0x00\n        /* \"#utility.yul\":21339:21341   */\n      0x20\n        /* \"#utility.yul\":21328:21337   */\n      dup3\n        /* \"#utility.yul\":21324:21342   */\n      add\n        /* \"#utility.yul\":21316:21342   */\n      swap1\n      pop\n        /* \"#utility.yul\":21388:21397   */\n      dup2\n        /* \"#utility.yul\":21382:21386   */\n      dup2\n        /* \"#utility.yul\":21378:21398   */\n      sub\n        /* \"#utility.yul\":21374:21375   */\n      0x00\n        /* \"#utility.yul\":21363:21372   */\n      dup4\n        /* \"#utility.yul\":21359:21376   */\n      add\n        /* \"#utility.yul\":21352:21399   */\n      mstore\n        /* \"#utility.yul\":21416:21547   */\n      tag_557\n        /* \"#utility.yul\":21542:21546   */\n      dup2\n        /* \"#utility.yul\":21416:21547   */\n      tag_329\n      jump\t// in\n    tag_557:\n        /* \"#utility.yul\":21408:21547   */\n      swap1\n      pop\n        /* \"#utility.yul\":21135:21554   */\n      swap2\n      swap1\n      pop\n      jump\t// out\n        /* \"#utility.yul\":21560:21659   */\n    tag_330:\n        /* \"#utility.yul\":21612:21618   */\n      0x00\n        /* \"#utility.yul\":21646:21651   */\n      dup2\n        /* \"#utility.yul\":21640:21652   */\n      mload\n        /* \"#utility.yul\":21630:21652   */\n      swap1\n      pop\n        /* \"#utility.yul\":21560:21659   */\n      swap2\n      swap1\n      pop\n      jump\t// out\n        /* \"#utility.yul\":21665:21972   */\n    tag_331:\n        /* \"#utility.yul\":21733:21734   */\n      0x00\n        /* \"#utility.yul\":21743:21856   */\n    tag_560:\n        /* \"#utility.yul\":21757:21763   */\n      dup4\n        /* \"#utility.yul\":21754:21755   */\n      dup2\n        /* \"#utility.yul\":21751:21764   */\n      lt\n        /* \"#utility.yul\":21743:21856   */\n      iszero\n      tag_562\n      jumpi\n        /* \"#utility.yul\":21842:21843   */\n      dup1\n        /* \"#utility.yul\":21837:21840   */\n      dup3\n        /* \"#utility.yul\":21833:21844   */\n      add\n        /* \"#utility.yul\":21827:21845   */\n      mload\n        /* \"#utility.yul\":21823:21824   */\n      dup2\n        /* \"#utility.yul\":21818:21821   */\n      dup5\n        /* \"#utility.yul\":21814:21825   */\n      add\n        /* \"#utility.yul\":21807:21846   */\n      mstore\n        /* \"#utility.yul\":21779:21781   */\n      0x20\n        /* \"#utility.yul\":21776:21777   */\n      dup2\n        /* \"#utility.yul\":21772:21782   */\n      add\n        /* \"#utility.yul\":21767:21782   */\n      swap1\n      pop\n        /* \"#utility.yul\":21743:21856   */\n      jump(tag_560)\n    tag_562:\n        /* \"#utility.yul\":21874:21880   */\n      dup4\n        /* \"#utility.yul\":21871:21872   */\n      dup2\n        /* \"#utility.yul\":21868:21881   */\n      gt\n        /* \"#utility.yul\":21865:21966   */\n      iszero\n      tag_563\n      jumpi\n        /* \"#utility.yul\":21954:21955   */\n      0x00\n        /* \"#utility.yul\":21945:21951   */\n      dup5\n        /* \"#utility.yul\":21940:21943   */\n      dup5\n        /* \"#utility.yul\":21936:21952   */\n      add\n        /* \"#utility.yul\":21929:21956   */\n      mstore\n        /* \"#utility.yul\":21865:21966   */\n    tag_563:\n        /* \"#utility.yul\":21714:21972   */\n      pop\n        /* \"#utility.yul\":21665:21972   */\n      pop\n      pop\n      pop\n      jump\t// out\n        /* \"#utility.yul\":21978:22342   */\n    tag_332:\n        /* \"#utility.yul\":22066:22069   */\n      0x00\n        /* \"#utility.yul\":22094:22133   */\n      tag_565\n        /* \"#utility.yul\":22127:22132   */\n      dup3\n        /* \"#utility.yul\":22094:22133   */\n      tag_330\n      jump\t// in\n    tag_565:\n        /* \"#utility.yul\":22149:22220   */\n      tag_566\n        /* \"#utility.yul\":22213:22219   */\n      dup2\n        /* \"#utility.yul\":22208:22211   */\n      dup6\n        /* \"#utility.yul\":22149:22220   */\n      tag_312\n      jump\t// in\n    tag_566:\n        /* \"#utility.yul\":22142:22220   */\n      swap4\n      pop\n        /* \"#utility.yul\":22229:22281   */\n      tag_567\n        /* \"#utility.yul\":22274:22280   */\n      dup2\n        /* \"#utility.yul\":22269:22272   */\n      dup6\n        /* \"#utility.yul\":22262:22266   */\n      0x20\n        /* \"#utility.yul\":22255:22260   */\n      dup7\n        /* \"#utility.yul\":22251:22267   */\n      add\n        /* \"#utility.yul\":22229:22281   */\n      tag_331\n      jump\t// in\n    tag_567:\n        /* \"#utility.yul\":22306:22335   */\n      tag_568\n        /* \"#utility.yul\":22328:22334   */\n      dup2\n        /* \"#utility.yul\":22306:22335   */\n      tag_301\n      jump\t// in\n    tag_568:\n        /* \"#utility.yul\":22301:22304   */\n      dup5\n        /* \"#utility.yul\":22297:22336   */\n      add\n        /* \"#utility.yul\":22290:22336   */\n      swap2\n      pop\n        /* \"#utility.yul\":22070:22342   */\n      pop\n        /* \"#utility.yul\":21978:22342   */\n      swap3\n      swap2\n      pop\n      pop\n      jump\t// out\n        /* \"#utility.yul\":22348:22661   */\n    tag_265:\n        /* \"#utility.yul\":22461:22465   */\n      0x00\n        /* \"#utility.yul\":22499:22501   */\n      0x20\n        /* \"#utility.yul\":22488:22497   */\n      dup3\n        /* \"#utility.yul\":22484:22502   */\n      add\n        /* \"#utility.yul\":22476:22502   */\n      swap1\n      pop\n        /* \"#utility.yul\":22548:22557   */\n      dup2\n        /* \"#utility.yul\":22542:22546   */\n      dup2\n        /* \"#utility.yul\":22538:22558   */\n      sub\n        /* \"#utility.yul\":22534:22535   */\n      0x00\n        /* \"#utility.yul\":22523:22532   */\n      dup4\n        /* \"#utility.yul\":22519:22536   */\n      add\n        /* \"#utility.yul\":22512:22559   */\n      mstore\n        /* \"#utility.yul\":22576:22654   */\n      tag_570\n        /* \"#utility.yul\":22649:22653   */\n      dup2\n        /* \"#utility.yul\":22640:22646   */\n      dup5\n        /* \"#utility.yul\":22576:22654   */\n      tag_332\n      jump\t// in\n    tag_570:\n        /* \"#utility.yul\":22568:22654   */\n      swap1\n      pop\n        /* \"#utility.yul\":22348:22661   */\n      swap3\n      swap2\n      pop\n      pop\n      jump\t// out\n\n    auxdata: 0xa26469706673582212200f71e76838a0cc4a106e5db61a9fbf4b38803fe559e35bc22b842f4a46820b7264736f6c634300080f0033\n}\n",
				"bytecode": {
					"linkReferences": {},
					"object": "6080604052670de0b6b3a764000060035562a066806005553480156200002457600080fd5b506040516200271c3803806200271c83398181016040528101906200004a9190620002b1565b6200006a6200005e6200013660201b60201c565b6200013e60201b60201c565b82600460006101000a81548173ffffffffffffffffffffffffffffffffffffffff021916908373ffffffffffffffffffffffffffffffffffffffff16021790555081600160006101000a81548173ffffffffffffffffffffffffffffffffffffffff021916908373ffffffffffffffffffffffffffffffffffffffff16021790555080600260006101000a81548173ffffffffffffffffffffffffffffffffffffffff021916908373ffffffffffffffffffffffffffffffffffffffff1602179055505050506200030d565b600033905090565b60008060009054906101000a900473ffffffffffffffffffffffffffffffffffffffff169050816000806101000a81548173ffffffffffffffffffffffffffffffffffffffff021916908373ffffffffffffffffffffffffffffffffffffffff1602179055508173ffffffffffffffffffffffffffffffffffffffff168173ffffffffffffffffffffffffffffffffffffffff167f8be0079c531659141344cd1fd0a4f28419497f9722a3daafe3b4186f6b6457e060405160405180910390a35050565b600080fd5b600073ffffffffffffffffffffffffffffffffffffffff82169050919050565b6000620002348262000207565b9050919050565b6000620002488262000227565b9050919050565b6200025a816200023b565b81146200026657600080fd5b50565b6000815190506200027a816200024f565b92915050565b6200028b8162000227565b81146200029757600080fd5b50565b600081519050620002ab8162000280565b92915050565b600080600060608486031215620002cd57620002cc62000202565b5b6000620002dd8682870162000269565b9350506020620002f0868287016200029a565b925050604062000303868287016200029a565b9150509250925092565b6123ff806200031d6000396000f3fe608060405234801561001057600080fd5b50600436106100cf5760003560e01c806381c7f1fc1161008c578063c0d7865511610066578063c0d7865514610216578063d979fb5f14610232578063dbb7934814610262578063f2fde38b14610292576100cf565b806381c7f1fc146101aa5780638da5cb5b146101da5780638dd95002146101f8576100cf565b806319047f8a146100d4578063215cc989146101045780633268cc56146101345780633b979d4514610152578063484f4ea914610182578063715018a6146101a0575b600080fd5b6100ee60048036038101906100e9919061184d565b6102ae565b6040516100fb9190611893565b60405180910390f35b61011e600480360381019061011991906118ec565b6104f6565b60405161012b9190611893565b60405180910390f35b61013c610cf1565b6040516101499190611978565b60405180910390f35b61016c6004803603810190610167919061184d565b610d17565b6040516101799190611893565b60405180910390f35b61018a610eee565b60405161019791906119a2565b60405180910390f35b6101a8610f14565b005b6101c460048036038101906101bf91906119fb565b610f9c565b6040516101d19190611893565b60405180910390f35b6101e2610fa3565b6040516101ef91906119a2565b60405180910390f35b610200610fcc565b60405161020d91906119a2565b60405180910390f35b610230600480360381019061022b9190611a66565b610ff2565b005b61024c60048036038101906102479190611abf565b6110b2565b6040516102599190611893565b60405180910390f35b61027c60048036038101906102779190611abf565b6111f2565b6040516102899190611893565b60405180910390f35b6102ac60048036038101906102a7919061184d565b611493565b005b600080600367ffffffffffffffff8111156102cc576102cb611b26565b5b6040519080825280602002602001820160405280156102fa5781602001602082028036833780820191505090505b509050828160008151811061031257610311611b55565b5b602002602001019073ffffffffffffffffffffffffffffffffffffffff16908173ffffffffffffffffffffffffffffffffffffffff1681525050600160009054906101000a900473ffffffffffffffffffffffffffffffffffffffff168160018151811061038357610382611b55565b5b602002602001019073ffffffffffffffffffffffffffffffffffffffff16908173ffffffffffffffffffffffffffffffffffffffff1681525050600260009054906101000a900473ffffffffffffffffffffffffffffffffffffffff16816002815181106103f4576103f3611b55565b5b602002602001019073ffffffffffffffffffffffffffffffffffffffff16908173ffffffffffffffffffffffffffffffffffffffff1681525050600460009054906101000a900473ffffffffffffffffffffffffffffffffffffffff1673ffffffffffffffffffffffffffffffffffffffff1663d06ca61f600354836040518363ffffffff1660e01b815260040161048d929190611c42565b600060405180830381865afa1580156104aa573d6000803e3d6000fd5b505050506040513d6000823e3d601f19601f820116820180604052508101906104d39190611db1565b6002815181106104e6576104e5611b55565b5b6020026020010151915050919050565b60008060008373ffffffffffffffffffffffffffffffffffffffff16630dfe16816040518163ffffffff1660e01b8152600401602060405180830381865afa158015610546573d6000803e3d6000fd5b505050506040513d601f19601f8201168201806040525081019061056a9190611e38565b73ffffffffffffffffffffffffffffffffffffffff16600160009054906101000a900473ffffffffffffffffffffffffffffffffffffffff1673ffffffffffffffffffffffffffffffffffffffff16036107355761072e6106388573ffffffffffffffffffffffffffffffffffffffff16630dfe16816040518163ffffffff1660e01b8152600401602060405180830381865afa15801561060f573d6000803e3d6000fd5b505050506040513d601f19601f820116820180604052508101906106339190611e38565b610d17565b8573ffffffffffffffffffffffffffffffffffffffff16630dfe16816040518163ffffffff1660e01b8152600401602060405180830381865afa158015610683573d6000803e3d6000fd5b505050506040513d601f19601f820116820180604052508101906106a79190611e38565b73ffffffffffffffffffffffffffffffffffffffff166370a08231876040518263ffffffff1660e01b81526004016106df91906119a2565b602060405180830381865afa1580156106fc573d6000803e3d6000fd5b505050506040513d601f19601f820116820180604052508101906107209190611e65565b61158a90919063ffffffff16565b91506108a8565b6108a56107af8573ffffffffffffffffffffffffffffffffffffffff16630dfe16816040518163ffffffff1660e01b8152600401602060405180830381865afa158015610786573d6000803e3d6000fd5b505050506040513d601f19601f820116820180604052508101906107aa9190611e38565b6102ae565b8573ffffffffffffffffffffffffffffffffffffffff16630dfe16816040518163ffffffff1660e01b8152600401602060405180830381865afa1580156107fa573d6000803e3d6000fd5b505050506040513d601f19601f8201168201806040525081019061081e9190611e38565b73ffffffffffffffffffffffffffffffffffffffff166370a08231876040518263ffffffff1660e01b815260040161085691906119a2565b602060405180830381865afa158015610873573d6000803e3d6000fd5b505050506040513d601f19601f820116820180604052508101906108979190611e65565b61158a90919063ffffffff16565b91505b8373ffffffffffffffffffffffffffffffffffffffff1663d21220a76040518163ffffffff1660e01b8152600401602060405180830381865afa1580156108f3573d6000803e3d6000fd5b505050506040513d601f19601f820116820180604052508101906109179190611e38565b73ffffffffffffffffffffffffffffffffffffffff16600160009054906101000a900473ffffffffffffffffffffffffffffffffffffffff1673ffffffffffffffffffffffffffffffffffffffff1603610ae257610adb6109e58573ffffffffffffffffffffffffffffffffffffffff1663d21220a76040518163ffffffff1660e01b8152600401602060405180830381865afa1580156109bc573d6000803e3d6000fd5b505050506040513d601f19601f820116820180604052508101906109e09190611e38565b610d17565b8573ffffffffffffffffffffffffffffffffffffffff1663d21220a76040518163ffffffff1660e01b8152600401602060405180830381865afa158015610a30573d6000803e3d6000fd5b505050506040513d601f19601f82011682018060405250810190610a549190611e38565b73ffffffffffffffffffffffffffffffffffffffff166370a08231876040518263ffffffff1660e01b8152600401610a8c91906119a2565b602060405180830381865afa158015610aa9573d6000803e3d6000fd5b505050506040513d601f19601f82011682018060405250810190610acd9190611e65565b61158a90919063ffffffff16565b9050610c55565b610c52610b5c8573ffffffffffffffffffffffffffffffffffffffff1663d21220a76040518163ffffffff1660e01b8152600401602060405180830381865afa158015610b33573d6000803e3d6000fd5b505050506040513d601f19601f82011682018060405250810190610b579190611e38565b6102ae565b8573ffffffffffffffffffffffffffffffffffffffff1663d21220a76040518163ffffffff1660e01b8152600401602060405180830381865afa158015610ba7573d6000803e3d6000fd5b505050506040513d601f19601f82011682018060405250810190610bcb9190611e38565b73ffffffffffffffffffffffffffffffffffffffff166370a08231876040518263ffffffff1660e01b8152600401610c0391906119a2565b602060405180830381865afa158015610c20573d6000803e3d6000fd5b505050506040513d601f19601f82011682018060405250810190610c449190611e65565b61158a90919063ffffffff16565b90505b610ce88473ffffffffffffffffffffffffffffffffffffffff166318160ddd6040518163ffffffff1660e01b8152600401602060405180830381865afa158015610ca3573d6000803e3d6000fd5b505050506040513d601f19601f82011682018060405250810190610cc79190611e65565b610cda838561160490919063ffffffff16565b61166290919063ffffffff16565b92505050919050565b600460009054906101000a900473ffffffffffffffffffffffffffffffffffffffff1681565b600080600267ffffffffffffffff811115610d3557610d34611b26565b5b604051908082528060200260200182016040528015610d635781602001602082028036833780820191505090505b5090508281600081518110610d7b57610d7a611b55565b5b602002602001019073ffffffffffffffffffffffffffffffffffffffff16908173ffffffffffffffffffffffffffffffffffffffff1681525050600260009054906101000a900473ffffffffffffffffffffffffffffffffffffffff1681600181518110610dec57610deb611b55565b5b602002602001019073ffffffffffffffffffffffffffffffffffffffff16908173ffffffffffffffffffffffffffffffffffffffff1681525050600460009054906101000a900473ffffffffffffffffffffffffffffffffffffffff1673ffffffffffffffffffffffffffffffffffffffff1663d06ca61f600354836040518363ffffffff1660e01b8152600401610e85929190611c42565b600060405180830381865afa158015610ea2573d6000803e3d6000fd5b505050506040513d6000823e3d601f19601f82011682018060405250810190610ecb9190611db1565b600181518110610ede57610edd611b55565b5b6020026020010151915050919050565b600260009054906101000a900473ffffffffffffffffffffffffffffffffffffffff1681565b610f1c6116ac565b73ffffffffffffffffffffffffffffffffffffffff16610f3a610fa3565b73ffffffffffffffffffffffffffffffffffffffff1614610f90576040517f08c379a0000000000000000000000000000000000000000000000000000000008152600401610f8790611eef565b60405180910390fd5b610f9a60006116b4565b565b6000919050565b60008060009054906101000a900473ffffffffffffffffffffffffffffffffffffffff16905090565b600160009054906101000a900473ffffffffffffffffffffffffffffffffffffffff1681565b610ffa6116ac565b73ffffffffffffffffffffffffffffffffffffffff16611018610fa3565b73ffffffffffffffffffffffffffffffffffffffff161461106e576040517f08c379a000000000000000000000000000000000000000000000000000000000815260040161106590611eef565b60405180910390fd5b80600460006101000a81548173ffffffffffffffffffffffffffffffffffffffff021916908373ffffffffffffffffffffffffffffffffffffffff16021790555050565b6000808273ffffffffffffffffffffffffffffffffffffffff16636a6d964e876040518263ffffffff1660e01b81526004016110ee9190611893565b602060405180830381865afa15801561110b573d6000803e3d6000fd5b505050506040513d601f19601f8201168201806040525081019061112f9190611e65565b905060006001850361114b57611144866104f6565b90506111c6565b600085036111c5578573ffffffffffffffffffffffffffffffffffffffff16600160009054906101000a900473ffffffffffffffffffffffffffffffffffffffff1673ffffffffffffffffffffffffffffffffffffffff16036111b8576111b186610d17565b90506111c4565b6111c1866102ae565b90505b5b5b6111e660035482846111d89190611f3e565b61166290919063ffffffff16565b92505050949350505050565b6000808273ffffffffffffffffffffffffffffffffffffffff16631526fe27876040518263ffffffff1660e01b815260040161122e9190611893565b60c060405180830381865afa15801561124b573d6000803e3d6000fd5b505050506040513d601f19601f8201168201806040525081019061126f919061207b565b9050600061130c8473ffffffffffffffffffffffffffffffffffffffff166317caf6f16040518163ffffffff1660e01b8152600401602060405180830381865afa1580156112c1573d6000803e3d6000fd5b505050506040513d601f19601f820116820180604052508101906112e59190611e65565b6112fe600354856020015161158a90919063ffffffff16565b61166290919063ffffffff16565b905060006113878573ffffffffffffffffffffffffffffffffffffffff1663141aa0ba6040518163ffffffff1660e01b8152600401602060405180830381865afa15801561135e573d6000803e3d6000fd5b505050506040513d601f19601f8201168201806040525081019061138291906120bd565b6102ae565b9050600061140e8673ffffffffffffffffffffffffffffffffffffffff1663a1eef8216040518163ffffffff1660e01b8152600401602060405180830381865afa1580156113d9573d6000803e3d6000fd5b505050506040513d601f19601f820116820180604052508101906113fd9190611e65565b60055461158a90919063ffffffff16565b9050600061143960035461142b868561158a90919063ffffffff16565b61166290919063ffffffff16565b905060006114498b8b8b8b6110b2565b9050611483606461147583611467888761158a90919063ffffffff16565b61166290919063ffffffff16565b61158a90919063ffffffff16565b9650505050505050949350505050565b61149b6116ac565b73ffffffffffffffffffffffffffffffffffffffff166114b9610fa3565b73ffffffffffffffffffffffffffffffffffffffff161461150f576040517f08c379a000000000000000000000000000000000000000000000000000000000815260040161150690611eef565b60405180910390fd5b600073ffffffffffffffffffffffffffffffffffffffff168173ffffffffffffffffffffffffffffffffffffffff160361157e576040517f08c379a00000000000000000000000000000000000000000000000000000000081526004016115759061215c565b60405180910390fd5b611587816116b4565b50565b600080830361159c57600090506115fe565b600082846115aa9190611f3e565b90508284826115b991906121ab565b146115f9576040517f08c379a00000000000000000000000000000000000000000000000000000000081526004016115f09061224e565b60405180910390fd5b809150505b92915050565b6000808284611613919061226e565b905083811015611658576040517f08c379a000000000000000000000000000000000000000000000000000000000815260040161164f90612310565b60405180910390fd5b8091505092915050565b60006116a483836040518060400160405280601a81526020017f536166654d6174683a206469766973696f6e206279207a65726f000000000000815250611778565b905092915050565b600033905090565b60008060009054906101000a900473ffffffffffffffffffffffffffffffffffffffff169050816000806101000a81548173ffffffffffffffffffffffffffffffffffffffff021916908373ffffffffffffffffffffffffffffffffffffffff1602179055508173ffffffffffffffffffffffffffffffffffffffff168173ffffffffffffffffffffffffffffffffffffffff167f8be0079c531659141344cd1fd0a4f28419497f9722a3daafe3b4186f6b6457e060405160405180910390a35050565b600080831182906117bf576040517f08c379a00000000000000000000000000000000000000000000000000000000081526004016117b691906123a7565b60405180910390fd5b50600083856117ce91906121ab565b9050809150509392505050565b6000604051905090565b600080fd5b600080fd5b600073ffffffffffffffffffffffffffffffffffffffff82169050919050565b600061181a826117ef565b9050919050565b61182a8161180f565b811461183557600080fd5b50565b60008135905061184781611821565b92915050565b600060208284031215611863576118626117e5565b5b600061187184828501611838565b91505092915050565b6000819050919050565b61188d8161187a565b82525050565b60006020820190506118a86000830184611884565b92915050565b60006118b98261180f565b9050919050565b6118c9816118ae565b81146118d457600080fd5b50565b6000813590506118e6816118c0565b92915050565b600060208284031215611902576119016117e5565b5b6000611910848285016118d7565b91505092915050565b6000819050919050565b600061193e611939611934846117ef565b611919565b6117ef565b9050919050565b600061195082611923565b9050919050565b600061196282611945565b9050919050565b61197281611957565b82525050565b600060208201905061198d6000830184611969565b92915050565b61199c8161180f565b82525050565b60006020820190506119b76000830184611993565b92915050565b60006119c88261180f565b9050919050565b6119d8816119bd565b81146119e357600080fd5b50565b6000813590506119f5816119cf565b92915050565b600060208284031215611a1157611a106117e5565b5b6000611a1f848285016119e6565b91505092915050565b6000611a338261180f565b9050919050565b611a4381611a28565b8114611a4e57600080fd5b50565b600081359050611a6081611a3a565b92915050565b600060208284031215611a7c57611a7b6117e5565b5b6000611a8a84828501611a51565b91505092915050565b611a9c8161187a565b8114611aa757600080fd5b50565b600081359050611ab981611a93565b92915050565b60008060008060808587031215611ad957611ad86117e5565b5b6000611ae787828801611aaa565b9450506020611af8878288016118d7565b9350506040611b0987828801611aaa565b9250506060611b1a878288016119e6565b91505092959194509250565b7f4e487b7100000000000000000000000000000000000000000000000000000000600052604160045260246000fd5b7f4e487b7100000000000000000000000000000000000000000000000000000000600052603260045260246000fd5b600081519050919050565b600082825260208201905092915050565b6000819050602082019050919050565b611bb98161180f565b82525050565b6000611bcb8383611bb0565b60208301905092915050565b6000602082019050919050565b6000611bef82611b84565b611bf98185611b8f565b9350611c0483611ba0565b8060005b83811015611c35578151611c1c8882611bbf565b9750611c2783611bd7565b925050600181019050611c08565b5085935050505092915050565b6000604082019050611c576000830185611884565b8181036020830152611c698184611be4565b90509392505050565b600080fd5b6000601f19601f8301169050919050565b611c9182611c77565b810181811067ffffffffffffffff82111715611cb057611caf611b26565b5b80604052505050565b6000611cc36117db565b9050611ccf8282611c88565b919050565b600067ffffffffffffffff821115611cef57611cee611b26565b5b602082029050602081019050919050565b600080fd5b600081519050611d1481611a93565b92915050565b6000611d2d611d2884611cd4565b611cb9565b90508083825260208201905060208402830185811115611d5057611d4f611d00565b5b835b81811015611d795780611d658882611d05565b845260208401935050602081019050611d52565b5050509392505050565b600082601f830112611d9857611d97611c72565b5b8151611da8848260208601611d1a565b91505092915050565b600060208284031215611dc757611dc66117e5565b5b600082015167ffffffffffffffff811115611de557611de46117ea565b5b611df184828501611d83565b91505092915050565b6000611e058261180f565b9050919050565b611e1581611dfa565b8114611e2057600080fd5b50565b600081519050611e3281611e0c565b92915050565b600060208284031215611e4e57611e4d6117e5565b5b6000611e5c84828501611e23565b91505092915050565b600060208284031215611e7b57611e7a6117e5565b5b6000611e8984828501611d05565b91505092915050565b600082825260208201905092915050565b7f4f776e61626c653a2063616c6c6572206973206e6f7420746865206f776e6572600082015250565b6000611ed9602083611e92565b9150611ee482611ea3565b602082019050919050565b60006020820190508181036000830152611f0881611ecc565b9050919050565b7f4e487b7100000000000000000000000000000000000000000000000000000000600052601160045260246000fd5b6000611f498261187a565b9150611f548361187a565b9250817fffffffffffffffffffffffffffffffffffffffffffffffffffffffffffffffff0483118215151615611f8d57611f8c611f0f565b5b828202905092915050565b600080fd5b6000611fa88261180f565b9050919050565b611fb881611f9d565b8114611fc357600080fd5b50565b600081519050611fd581611faf565b92915050565b600060c08284031215611ff157611ff0611f98565b5b611ffb60c0611cb9565b9050600061200b84828501611e23565b600083015250602061201f84828501611d05565b602083015250604061203384828501611d05565b604083015250606061204784828501611d05565b606083015250608061205b84828501611fc6565b60808301525060a061206f84828501611e23565b60a08301525092915050565b600060c08284031215612091576120906117e5565b5b600061209f84828501611fdb565b91505092915050565b6000815190506120b781611821565b92915050565b6000602082840312156120d3576120d26117e5565b5b60006120e1848285016120a8565b91505092915050565b7f4f776e61626c653a206e6577206f776e657220697320746865207a65726f206160008201527f6464726573730000000000000000000000000000000000000000000000000000602082015250565b6000612146602683611e92565b9150612151826120ea565b604082019050919050565b6000602082019050818103600083015261217581612139565b9050919050565b7f4e487b7100000000000000000000000000000000000000000000000000000000600052601260045260246000fd5b60006121b68261187a565b91506121c18361187a565b9250826121d1576121d061217c565b5b828204905092915050565b7f536166654d6174683a206d756c7469706c69636174696f6e206f766572666c6f60008201527f7700000000000000000000000000000000000000000000000000000000000000602082015250565b6000612238602183611e92565b9150612243826121dc565b604082019050919050565b600060208201905081810360008301526122678161222b565b9050919050565b60006122798261187a565b91506122848361187a565b9250827fffffffffffffffffffffffffffffffffffffffffffffffffffffffffffffffff038211156122b9576122b8611f0f565b5b828201905092915050565b7f536166654d6174683a206164646974696f6e206f766572666c6f770000000000600082015250565b60006122fa601b83611e92565b9150612305826122c4565b602082019050919050565b60006020820190508181036000830152612329816122ed565b9050919050565b600081519050919050565b60005b8381101561235957808201518184015260208101905061233e565b83811115612368576000848401525b50505050565b600061237982612330565b6123838185611e92565b935061239381856020860161233b565b61239c81611c77565b840191505092915050565b600060208201905081810360008301526123c1818461236e565b90509291505056fea26469706673582212200f71e76838a0cc4a106e5db61a9fbf4b38803fe559e35bc22b842f4a46820b7264736f6c634300080f0033",
					"opcodes": "PUSH1 0x80 PUSH1 0x40 MSTORE PUSH8 0xDE0B6B3A7640000 PUSH1 0x3 SSTORE PUSH3 0xA06680 PUSH1 0x5 SSTORE CALLVALUE DUP1 ISZERO PUSH3 0x24 JUMPI PUSH1 0x0 DUP1 REVERT JUMPDEST POP PUSH1 0x40 MLOAD PUSH3 0x271C CODESIZE SUB DUP1 PUSH3 0x271C DUP4 CODECOPY DUP2 DUP2 ADD PUSH1 0x40 MSTORE DUP2 ADD SWAP1 PUSH3 0x4A SWAP2 SWAP1 PUSH3 0x2B1 JUMP JUMPDEST PUSH3 0x6A PUSH3 0x5E PUSH3 0x136 PUSH1 0x20 SHL PUSH1 0x20 SHR JUMP JUMPDEST PUSH3 0x13E PUSH1 0x20 SHL PUSH1 0x20 SHR JUMP JUMPDEST DUP3 PUSH1 0x4 PUSH1 0x0 PUSH2 0x100 EXP DUP2 SLOAD DUP2 PUSH20 0xFFFFFFFFFFFFFFFFFFFFFFFFFFFFFFFFFFFFFFFF MUL NOT AND SWAP1 DUP4 PUSH20 0xFFFFFFFFFFFFFFFFFFFFFFFFFFFFFFFFFFFFFFFF AND MUL OR SWAP1 SSTORE POP DUP2 PUSH1 0x1 PUSH1 0x0 PUSH2 0x100 EXP DUP2 SLOAD DUP2 PUSH20 0xFFFFFFFFFFFFFFFFFFFFFFFFFFFFFFFFFFFFFFFF MUL NOT AND SWAP1 DUP4 PUSH20 0xFFFFFFFFFFFFFFFFFFFFFFFFFFFFFFFFFFFFFFFF AND MUL OR SWAP1 SSTORE POP DUP1 PUSH1 0x2 PUSH1 0x0 PUSH2 0x100 EXP DUP2 SLOAD DUP2 PUSH20 0xFFFFFFFFFFFFFFFFFFFFFFFFFFFFFFFFFFFFFFFF MUL NOT AND SWAP1 DUP4 PUSH20 0xFFFFFFFFFFFFFFFFFFFFFFFFFFFFFFFFFFFFFFFF AND MUL OR SWAP1 SSTORE POP POP POP POP PUSH3 0x30D JUMP JUMPDEST PUSH1 0x0 CALLER SWAP1 POP SWAP1 JUMP JUMPDEST PUSH1 0x0 DUP1 PUSH1 0x0 SWAP1 SLOAD SWAP1 PUSH2 0x100 EXP SWAP1 DIV PUSH20 0xFFFFFFFFFFFFFFFFFFFFFFFFFFFFFFFFFFFFFFFF AND SWAP1 POP DUP2 PUSH1 0x0 DUP1 PUSH2 0x100 EXP DUP2 SLOAD DUP2 PUSH20 0xFFFFFFFFFFFFFFFFFFFFFFFFFFFFFFFFFFFFFFFF MUL NOT AND SWAP1 DUP4 PUSH20 0xFFFFFFFFFFFFFFFFFFFFFFFFFFFFFFFFFFFFFFFF AND MUL OR SWAP1 SSTORE POP DUP2 PUSH20 0xFFFFFFFFFFFFFFFFFFFFFFFFFFFFFFFFFFFFFFFF AND DUP2 PUSH20 0xFFFFFFFFFFFFFFFFFFFFFFFFFFFFFFFFFFFFFFFF AND PUSH32 0x8BE0079C531659141344CD1FD0A4F28419497F9722A3DAAFE3B4186F6B6457E0 PUSH1 0x40 MLOAD PUSH1 0x40 MLOAD DUP1 SWAP2 SUB SWAP1 LOG3 POP POP JUMP JUMPDEST PUSH1 0x0 DUP1 REVERT JUMPDEST PUSH1 0x0 PUSH20 0xFFFFFFFFFFFFFFFFFFFFFFFFFFFFFFFFFFFFFFFF DUP3 AND SWAP1 POP SWAP2 SWAP1 POP JUMP JUMPDEST PUSH1 0x0 PUSH3 0x234 DUP3 PUSH3 0x207 JUMP JUMPDEST SWAP1 POP SWAP2 SWAP1 POP JUMP JUMPDEST PUSH1 0x0 PUSH3 0x248 DUP3 PUSH3 0x227 JUMP JUMPDEST SWAP1 POP SWAP2 SWAP1 POP JUMP JUMPDEST PUSH3 0x25A DUP2 PUSH3 0x23B JUMP JUMPDEST DUP2 EQ PUSH3 0x266 JUMPI PUSH1 0x0 DUP1 REVERT JUMPDEST POP JUMP JUMPDEST PUSH1 0x0 DUP2 MLOAD SWAP1 POP PUSH3 0x27A DUP2 PUSH3 0x24F JUMP JUMPDEST SWAP3 SWAP2 POP POP JUMP JUMPDEST PUSH3 0x28B DUP2 PUSH3 0x227 JUMP JUMPDEST DUP2 EQ PUSH3 0x297 JUMPI PUSH1 0x0 DUP1 REVERT JUMPDEST POP JUMP JUMPDEST PUSH1 0x0 DUP2 MLOAD SWAP1 POP PUSH3 0x2AB DUP2 PUSH3 0x280 JUMP JUMPDEST SWAP3 SWAP2 POP POP JUMP JUMPDEST PUSH1 0x0 DUP1 PUSH1 0x0 PUSH1 0x60 DUP5 DUP7 SUB SLT ISZERO PUSH3 0x2CD JUMPI PUSH3 0x2CC PUSH3 0x202 JUMP JUMPDEST JUMPDEST PUSH1 0x0 PUSH3 0x2DD DUP7 DUP3 DUP8 ADD PUSH3 0x269 JUMP JUMPDEST SWAP4 POP POP PUSH1 0x20 PUSH3 0x2F0 DUP7 DUP3 DUP8 ADD PUSH3 0x29A JUMP JUMPDEST SWAP3 POP POP PUSH1 0x40 PUSH3 0x303 DUP7 DUP3 DUP8 ADD PUSH3 0x29A JUMP JUMPDEST SWAP2 POP POP SWAP3 POP SWAP3 POP SWAP3 JUMP JUMPDEST PUSH2 0x23FF DUP1 PUSH3 0x31D PUSH1 0x0 CODECOPY PUSH1 0x0 RETURN INVALID PUSH1 0x80 PUSH1 0x40 MSTORE CALLVALUE DUP1 ISZERO PUSH2 0x10 JUMPI PUSH1 0x0 DUP1 REVERT JUMPDEST POP PUSH1 0x4 CALLDATASIZE LT PUSH2 0xCF JUMPI PUSH1 0x0 CALLDATALOAD PUSH1 0xE0 SHR DUP1 PUSH4 0x81C7F1FC GT PUSH2 0x8C JUMPI DUP1 PUSH4 0xC0D78655 GT PUSH2 0x66 JUMPI DUP1 PUSH4 0xC0D78655 EQ PUSH2 0x216 JUMPI DUP1 PUSH4 0xD979FB5F EQ PUSH2 0x232 JUMPI DUP1 PUSH4 0xDBB79348 EQ PUSH2 0x262 JUMPI DUP1 PUSH4 0xF2FDE38B EQ PUSH2 0x292 JUMPI PUSH2 0xCF JUMP JUMPDEST DUP1 PUSH4 0x81C7F1FC EQ PUSH2 0x1AA JUMPI DUP1 PUSH4 0x8DA5CB5B EQ PUSH2 0x1DA JUMPI DUP1 PUSH4 0x8DD95002 EQ PUSH2 0x1F8 JUMPI PUSH2 0xCF JUMP JUMPDEST DUP1 PUSH4 0x19047F8A EQ PUSH2 0xD4 JUMPI DUP1 PUSH4 0x215CC989 EQ PUSH2 0x104 JUMPI DUP1 PUSH4 0x3268CC56 EQ PUSH2 0x134 JUMPI DUP1 PUSH4 0x3B979D45 EQ PUSH2 0x152 JUMPI DUP1 PUSH4 0x484F4EA9 EQ PUSH2 0x182 JUMPI DUP1 PUSH4 0x715018A6 EQ PUSH2 0x1A0 JUMPI JUMPDEST PUSH1 0x0 DUP1 REVERT JUMPDEST PUSH2 0xEE PUSH1 0x4 DUP1 CALLDATASIZE SUB DUP2 ADD SWAP1 PUSH2 0xE9 SWAP2 SWAP1 PUSH2 0x184D JUMP JUMPDEST PUSH2 0x2AE JUMP JUMPDEST PUSH1 0x40 MLOAD PUSH2 0xFB SWAP2 SWAP1 PUSH2 0x1893 JUMP JUMPDEST PUSH1 0x40 MLOAD DUP1 SWAP2 SUB SWAP1 RETURN JUMPDEST PUSH2 0x11E PUSH1 0x4 DUP1 CALLDATASIZE SUB DUP2 ADD SWAP1 PUSH2 0x119 SWAP2 SWAP1 PUSH2 0x18EC JUMP JUMPDEST PUSH2 0x4F6 JUMP JUMPDEST PUSH1 0x40 MLOAD PUSH2 0x12B SWAP2 SWAP1 PUSH2 0x1893 JUMP JUMPDEST PUSH1 0x40 MLOAD DUP1 SWAP2 SUB SWAP1 RETURN JUMPDEST PUSH2 0x13C PUSH2 0xCF1 JUMP JUMPDEST PUSH1 0x40 MLOAD PUSH2 0x149 SWAP2 SWAP1 PUSH2 0x1978 JUMP JUMPDEST PUSH1 0x40 MLOAD DUP1 SWAP2 SUB SWAP1 RETURN JUMPDEST PUSH2 0x16C PUSH1 0x4 DUP1 CALLDATASIZE SUB DUP2 ADD SWAP1 PUSH2 0x167 SWAP2 SWAP1 PUSH2 0x184D JUMP JUMPDEST PUSH2 0xD17 JUMP JUMPDEST PUSH1 0x40 MLOAD PUSH2 0x179 SWAP2 SWAP1 PUSH2 0x1893 JUMP JUMPDEST PUSH1 0x40 MLOAD DUP1 SWAP2 SUB SWAP1 RETURN JUMPDEST PUSH2 0x18A PUSH2 0xEEE JUMP JUMPDEST PUSH1 0x40 MLOAD PUSH2 0x197 SWAP2 SWAP1 PUSH2 0x19A2 JUMP JUMPDEST PUSH1 0x40 MLOAD DUP1 SWAP2 SUB SWAP1 RETURN JUMPDEST PUSH2 0x1A8 PUSH2 0xF14 JUMP JUMPDEST STOP JUMPDEST PUSH2 0x1C4 PUSH1 0x4 DUP1 CALLDATASIZE SUB DUP2 ADD SWAP1 PUSH2 0x1BF SWAP2 SWAP1 PUSH2 0x19FB JUMP JUMPDEST PUSH2 0xF9C JUMP JUMPDEST PUSH1 0x40 MLOAD PUSH2 0x1D1 SWAP2 SWAP1 PUSH2 0x1893 JUMP JUMPDEST PUSH1 0x40 MLOAD DUP1 SWAP2 SUB SWAP1 RETURN JUMPDEST PUSH2 0x1E2 PUSH2 0xFA3 JUMP JUMPDEST PUSH1 0x40 MLOAD PUSH2 0x1EF SWAP2 SWAP1 PUSH2 0x19A2 JUMP JUMPDEST PUSH1 0x40 MLOAD DUP1 SWAP2 SUB SWAP1 RETURN JUMPDEST PUSH2 0x200 PUSH2 0xFCC JUMP JUMPDEST PUSH1 0x40 MLOAD PUSH2 0x20D SWAP2 SWAP1 PUSH2 0x19A2 JUMP JUMPDEST PUSH1 0x40 MLOAD DUP1 SWAP2 SUB SWAP1 RETURN JUMPDEST PUSH2 0x230 PUSH1 0x4 DUP1 CALLDATASIZE SUB DUP2 ADD SWAP1 PUSH2 0x22B SWAP2 SWAP1 PUSH2 0x1A66 JUMP JUMPDEST PUSH2 0xFF2 JUMP JUMPDEST STOP JUMPDEST PUSH2 0x24C PUSH1 0x4 DUP1 CALLDATASIZE SUB DUP2 ADD SWAP1 PUSH2 0x247 SWAP2 SWAP1 PUSH2 0x1ABF JUMP JUMPDEST PUSH2 0x10B2 JUMP JUMPDEST PUSH1 0x40 MLOAD PUSH2 0x259 SWAP2 SWAP1 PUSH2 0x1893 JUMP JUMPDEST PUSH1 0x40 MLOAD DUP1 SWAP2 SUB SWAP1 RETURN JUMPDEST PUSH2 0x27C PUSH1 0x4 DUP1 CALLDATASIZE SUB DUP2 ADD SWAP1 PUSH2 0x277 SWAP2 SWAP1 PUSH2 0x1ABF JUMP JUMPDEST PUSH2 0x11F2 JUMP JUMPDEST PUSH1 0x40 MLOAD PUSH2 0x289 SWAP2 SWAP1 PUSH2 0x1893 JUMP JUMPDEST PUSH1 0x40 MLOAD DUP1 SWAP2 SUB SWAP1 RETURN JUMPDEST PUSH2 0x2AC PUSH1 0x4 DUP1 CALLDATASIZE SUB DUP2 ADD SWAP1 PUSH2 0x2A7 SWAP2 SWAP1 PUSH2 0x184D JUMP JUMPDEST PUSH2 0x1493 JUMP JUMPDEST STOP JUMPDEST PUSH1 0x0 DUP1 PUSH1 0x3 PUSH8 0xFFFFFFFFFFFFFFFF DUP2 GT ISZERO PUSH2 0x2CC JUMPI PUSH2 0x2CB PUSH2 0x1B26 JUMP JUMPDEST JUMPDEST PUSH1 0x40 MLOAD SWAP1 DUP1 DUP3 MSTORE DUP1 PUSH1 0x20 MUL PUSH1 0x20 ADD DUP3 ADD PUSH1 0x40 MSTORE DUP1 ISZERO PUSH2 0x2FA JUMPI DUP2 PUSH1 0x20 ADD PUSH1 0x20 DUP3 MUL DUP1 CALLDATASIZE DUP4 CALLDATACOPY DUP1 DUP3 ADD SWAP2 POP POP SWAP1 POP JUMPDEST POP SWAP1 POP DUP3 DUP2 PUSH1 0x0 DUP2 MLOAD DUP2 LT PUSH2 0x312 JUMPI PUSH2 0x311 PUSH2 0x1B55 JUMP JUMPDEST JUMPDEST PUSH1 0x20 MUL PUSH1 0x20 ADD ADD SWAP1 PUSH20 0xFFFFFFFFFFFFFFFFFFFFFFFFFFFFFFFFFFFFFFFF AND SWAP1 DUP2 PUSH20 0xFFFFFFFFFFFFFFFFFFFFFFFFFFFFFFFFFFFFFFFF AND DUP2 MSTORE POP POP PUSH1 0x1 PUSH1 0x0 SWAP1 SLOAD SWAP1 PUSH2 0x100 EXP SWAP1 DIV PUSH20 0xFFFFFFFFFFFFFFFFFFFFFFFFFFFFFFFFFFFFFFFF AND DUP2 PUSH1 0x1 DUP2 MLOAD DUP2 LT PUSH2 0x383 JUMPI PUSH2 0x382 PUSH2 0x1B55 JUMP JUMPDEST JUMPDEST PUSH1 0x20 MUL PUSH1 0x20 ADD ADD SWAP1 PUSH20 0xFFFFFFFFFFFFFFFFFFFFFFFFFFFFFFFFFFFFFFFF AND SWAP1 DUP2 PUSH20 0xFFFFFFFFFFFFFFFFFFFFFFFFFFFFFFFFFFFFFFFF AND DUP2 MSTORE POP POP PUSH1 0x2 PUSH1 0x0 SWAP1 SLOAD SWAP1 PUSH2 0x100 EXP SWAP1 DIV PUSH20 0xFFFFFFFFFFFFFFFFFFFFFFFFFFFFFFFFFFFFFFFF AND DUP2 PUSH1 0x2 DUP2 MLOAD DUP2 LT PUSH2 0x3F4 JUMPI PUSH2 0x3F3 PUSH2 0x1B55 JUMP JUMPDEST JUMPDEST PUSH1 0x20 MUL PUSH1 0x20 ADD ADD SWAP1 PUSH20 0xFFFFFFFFFFFFFFFFFFFFFFFFFFFFFFFFFFFFFFFF AND SWAP1 DUP2 PUSH20 0xFFFFFFFFFFFFFFFFFFFFFFFFFFFFFFFFFFFFFFFF AND DUP2 MSTORE POP POP PUSH1 0x4 PUSH1 0x0 SWAP1 SLOAD SWAP1 PUSH2 0x100 EXP SWAP1 DIV PUSH20 0xFFFFFFFFFFFFFFFFFFFFFFFFFFFFFFFFFFFFFFFF AND PUSH20 0xFFFFFFFFFFFFFFFFFFFFFFFFFFFFFFFFFFFFFFFF AND PUSH4 0xD06CA61F PUSH1 0x3 SLOAD DUP4 PUSH1 0x40 MLOAD DUP4 PUSH4 0xFFFFFFFF AND PUSH1 0xE0 SHL DUP2 MSTORE PUSH1 0x4 ADD PUSH2 0x48D SWAP3 SWAP2 SWAP1 PUSH2 0x1C42 JUMP JUMPDEST PUSH1 0x0 PUSH1 0x40 MLOAD DUP1 DUP4 SUB DUP2 DUP7 GAS STATICCALL ISZERO DUP1 ISZERO PUSH2 0x4AA JUMPI RETURNDATASIZE PUSH1 0x0 DUP1 RETURNDATACOPY RETURNDATASIZE PUSH1 0x0 REVERT JUMPDEST POP POP POP POP PUSH1 0x40 MLOAD RETURNDATASIZE PUSH1 0x0 DUP3 RETURNDATACOPY RETURNDATASIZE PUSH1 0x1F NOT PUSH1 0x1F DUP3 ADD AND DUP3 ADD DUP1 PUSH1 0x40 MSTORE POP DUP2 ADD SWAP1 PUSH2 0x4D3 SWAP2 SWAP1 PUSH2 0x1DB1 JUMP JUMPDEST PUSH1 0x2 DUP2 MLOAD DUP2 LT PUSH2 0x4E6 JUMPI PUSH2 0x4E5 PUSH2 0x1B55 JUMP JUMPDEST JUMPDEST PUSH1 0x20 MUL PUSH1 0x20 ADD ADD MLOAD SWAP2 POP POP SWAP2 SWAP1 POP JUMP JUMPDEST PUSH1 0x0 DUP1 PUSH1 0x0 DUP4 PUSH20 0xFFFFFFFFFFFFFFFFFFFFFFFFFFFFFFFFFFFFFFFF AND PUSH4 0xDFE1681 PUSH1 0x40 MLOAD DUP2 PUSH4 0xFFFFFFFF AND PUSH1 0xE0 SHL DUP2 MSTORE PUSH1 0x4 ADD PUSH1 0x20 PUSH1 0x40 MLOAD DUP1 DUP4 SUB DUP2 DUP7 GAS STATICCALL ISZERO DUP1 ISZERO PUSH2 0x546 JUMPI RETURNDATASIZE PUSH1 0x0 DUP1 RETURNDATACOPY RETURNDATASIZE PUSH1 0x0 REVERT JUMPDEST POP POP POP POP PUSH1 0x40 MLOAD RETURNDATASIZE PUSH1 0x1F NOT PUSH1 0x1F DUP3 ADD AND DUP3 ADD DUP1 PUSH1 0x40 MSTORE POP DUP2 ADD SWAP1 PUSH2 0x56A SWAP2 SWAP1 PUSH2 0x1E38 JUMP JUMPDEST PUSH20 0xFFFFFFFFFFFFFFFFFFFFFFFFFFFFFFFFFFFFFFFF AND PUSH1 0x1 PUSH1 0x0 SWAP1 SLOAD SWAP1 PUSH2 0x100 EXP SWAP1 DIV PUSH20 0xFFFFFFFFFFFFFFFFFFFFFFFFFFFFFFFFFFFFFFFF AND PUSH20 0xFFFFFFFFFFFFFFFFFFFFFFFFFFFFFFFFFFFFFFFF AND SUB PUSH2 0x735 JUMPI PUSH2 0x72E PUSH2 0x638 DUP6 PUSH20 0xFFFFFFFFFFFFFFFFFFFFFFFFFFFFFFFFFFFFFFFF AND PUSH4 0xDFE1681 PUSH1 0x40 MLOAD DUP2 PUSH4 0xFFFFFFFF AND PUSH1 0xE0 SHL DUP2 MSTORE PUSH1 0x4 ADD PUSH1 0x20 PUSH1 0x40 MLOAD DUP1 DUP4 SUB DUP2 DUP7 GAS STATICCALL ISZERO DUP1 ISZERO PUSH2 0x60F JUMPI RETURNDATASIZE PUSH1 0x0 DUP1 RETURNDATACOPY RETURNDATASIZE PUSH1 0x0 REVERT JUMPDEST POP POP POP POP PUSH1 0x40 MLOAD RETURNDATASIZE PUSH1 0x1F NOT PUSH1 0x1F DUP3 ADD AND DUP3 ADD DUP1 PUSH1 0x40 MSTORE POP DUP2 ADD SWAP1 PUSH2 0x633 SWAP2 SWAP1 PUSH2 0x1E38 JUMP JUMPDEST PUSH2 0xD17 JUMP JUMPDEST DUP6 PUSH20 0xFFFFFFFFFFFFFFFFFFFFFFFFFFFFFFFFFFFFFFFF AND PUSH4 0xDFE1681 PUSH1 0x40 MLOAD DUP2 PUSH4 0xFFFFFFFF AND PUSH1 0xE0 SHL DUP2 MSTORE PUSH1 0x4 ADD PUSH1 0x20 PUSH1 0x40 MLOAD DUP1 DUP4 SUB DUP2 DUP7 GAS STATICCALL ISZERO DUP1 ISZERO PUSH2 0x683 JUMPI RETURNDATASIZE PUSH1 0x0 DUP1 RETURNDATACOPY RETURNDATASIZE PUSH1 0x0 REVERT JUMPDEST POP POP POP POP PUSH1 0x40 MLOAD RETURNDATASIZE PUSH1 0x1F NOT PUSH1 0x1F DUP3 ADD AND DUP3 ADD DUP1 PUSH1 0x40 MSTORE POP DUP2 ADD SWAP1 PUSH2 0x6A7 SWAP2 SWAP1 PUSH2 0x1E38 JUMP JUMPDEST PUSH20 0xFFFFFFFFFFFFFFFFFFFFFFFFFFFFFFFFFFFFFFFF AND PUSH4 0x70A08231 DUP8 PUSH1 0x40 MLOAD DUP3 PUSH4 0xFFFFFFFF AND PUSH1 0xE0 SHL DUP2 MSTORE PUSH1 0x4 ADD PUSH2 0x6DF SWAP2 SWAP1 PUSH2 0x19A2 JUMP JUMPDEST PUSH1 0x20 PUSH1 0x40 MLOAD DUP1 DUP4 SUB DUP2 DUP7 GAS STATICCALL ISZERO DUP1 ISZERO PUSH2 0x6FC JUMPI RETURNDATASIZE PUSH1 0x0 DUP1 RETURNDATACOPY RETURNDATASIZE PUSH1 0x0 REVERT JUMPDEST POP POP POP POP PUSH1 0x40 MLOAD RETURNDATASIZE PUSH1 0x1F NOT PUSH1 0x1F DUP3 ADD AND DUP3 ADD DUP1 PUSH1 0x40 MSTORE POP DUP2 ADD SWAP1 PUSH2 0x720 SWAP2 SWAP1 PUSH2 0x1E65 JUMP JUMPDEST PUSH2 0x158A SWAP1 SWAP2 SWAP1 PUSH4 0xFFFFFFFF AND JUMP JUMPDEST SWAP2 POP PUSH2 0x8A8 JUMP JUMPDEST PUSH2 0x8A5 PUSH2 0x7AF DUP6 PUSH20 0xFFFFFFFFFFFFFFFFFFFFFFFFFFFFFFFFFFFFFFFF AND PUSH4 0xDFE1681 PUSH1 0x40 MLOAD DUP2 PUSH4 0xFFFFFFFF AND PUSH1 0xE0 SHL DUP2 MSTORE PUSH1 0x4 ADD PUSH1 0x20 PUSH1 0x40 MLOAD DUP1 DUP4 SUB DUP2 DUP7 GAS STATICCALL ISZERO DUP1 ISZERO PUSH2 0x786 JUMPI RETURNDATASIZE PUSH1 0x0 DUP1 RETURNDATACOPY RETURNDATASIZE PUSH1 0x0 REVERT JUMPDEST POP POP POP POP PUSH1 0x40 MLOAD RETURNDATASIZE PUSH1 0x1F NOT PUSH1 0x1F DUP3 ADD AND DUP3 ADD DUP1 PUSH1 0x40 MSTORE POP DUP2 ADD SWAP1 PUSH2 0x7AA SWAP2 SWAP1 PUSH2 0x1E38 JUMP JUMPDEST PUSH2 0x2AE JUMP JUMPDEST DUP6 PUSH20 0xFFFFFFFFFFFFFFFFFFFFFFFFFFFFFFFFFFFFFFFF AND PUSH4 0xDFE1681 PUSH1 0x40 MLOAD DUP2 PUSH4 0xFFFFFFFF AND PUSH1 0xE0 SHL DUP2 MSTORE PUSH1 0x4 ADD PUSH1 0x20 PUSH1 0x40 MLOAD DUP1 DUP4 SUB DUP2 DUP7 GAS STATICCALL ISZERO DUP1 ISZERO PUSH2 0x7FA JUMPI RETURNDATASIZE PUSH1 0x0 DUP1 RETURNDATACOPY RETURNDATASIZE PUSH1 0x0 REVERT JUMPDEST POP POP POP POP PUSH1 0x40 MLOAD RETURNDATASIZE PUSH1 0x1F NOT PUSH1 0x1F DUP3 ADD AND DUP3 ADD DUP1 PUSH1 0x40 MSTORE POP DUP2 ADD SWAP1 PUSH2 0x81E SWAP2 SWAP1 PUSH2 0x1E38 JUMP JUMPDEST PUSH20 0xFFFFFFFFFFFFFFFFFFFFFFFFFFFFFFFFFFFFFFFF AND PUSH4 0x70A08231 DUP8 PUSH1 0x40 MLOAD DUP3 PUSH4 0xFFFFFFFF AND PUSH1 0xE0 SHL DUP2 MSTORE PUSH1 0x4 ADD PUSH2 0x856 SWAP2 SWAP1 PUSH2 0x19A2 JUMP JUMPDEST PUSH1 0x20 PUSH1 0x40 MLOAD DUP1 DUP4 SUB DUP2 DUP7 GAS STATICCALL ISZERO DUP1 ISZERO PUSH2 0x873 JUMPI RETURNDATASIZE PUSH1 0x0 DUP1 RETURNDATACOPY RETURNDATASIZE PUSH1 0x0 REVERT JUMPDEST POP POP POP POP PUSH1 0x40 MLOAD RETURNDATASIZE PUSH1 0x1F NOT PUSH1 0x1F DUP3 ADD AND DUP3 ADD DUP1 PUSH1 0x40 MSTORE POP DUP2 ADD SWAP1 PUSH2 0x897 SWAP2 SWAP1 PUSH2 0x1E65 JUMP JUMPDEST PUSH2 0x158A SWAP1 SWAP2 SWAP1 PUSH4 0xFFFFFFFF AND JUMP JUMPDEST SWAP2 POP JUMPDEST DUP4 PUSH20 0xFFFFFFFFFFFFFFFFFFFFFFFFFFFFFFFFFFFFFFFF AND PUSH4 0xD21220A7 PUSH1 0x40 MLOAD DUP2 PUSH4 0xFFFFFFFF AND PUSH1 0xE0 SHL DUP2 MSTORE PUSH1 0x4 ADD PUSH1 0x20 PUSH1 0x40 MLOAD DUP1 DUP4 SUB DUP2 DUP7 GAS STATICCALL ISZERO DUP1 ISZERO PUSH2 0x8F3 JUMPI RETURNDATASIZE PUSH1 0x0 DUP1 RETURNDATACOPY RETURNDATASIZE PUSH1 0x0 REVERT JUMPDEST POP POP POP POP PUSH1 0x40 MLOAD RETURNDATASIZE PUSH1 0x1F NOT PUSH1 0x1F DUP3 ADD AND DUP3 ADD DUP1 PUSH1 0x40 MSTORE POP DUP2 ADD SWAP1 PUSH2 0x917 SWAP2 SWAP1 PUSH2 0x1E38 JUMP JUMPDEST PUSH20 0xFFFFFFFFFFFFFFFFFFFFFFFFFFFFFFFFFFFFFFFF AND PUSH1 0x1 PUSH1 0x0 SWAP1 SLOAD SWAP1 PUSH2 0x100 EXP SWAP1 DIV PUSH20 0xFFFFFFFFFFFFFFFFFFFFFFFFFFFFFFFFFFFFFFFF AND PUSH20 0xFFFFFFFFFFFFFFFFFFFFFFFFFFFFFFFFFFFFFFFF AND SUB PUSH2 0xAE2 JUMPI PUSH2 0xADB PUSH2 0x9E5 DUP6 PUSH20 0xFFFFFFFFFFFFFFFFFFFFFFFFFFFFFFFFFFFFFFFF AND PUSH4 0xD21220A7 PUSH1 0x40 MLOAD DUP2 PUSH4 0xFFFFFFFF AND PUSH1 0xE0 SHL DUP2 MSTORE PUSH1 0x4 ADD PUSH1 0x20 PUSH1 0x40 MLOAD DUP1 DUP4 SUB DUP2 DUP7 GAS STATICCALL ISZERO DUP1 ISZERO PUSH2 0x9BC JUMPI RETURNDATASIZE PUSH1 0x0 DUP1 RETURNDATACOPY RETURNDATASIZE PUSH1 0x0 REVERT JUMPDEST POP POP POP POP PUSH1 0x40 MLOAD RETURNDATASIZE PUSH1 0x1F NOT PUSH1 0x1F DUP3 ADD AND DUP3 ADD DUP1 PUSH1 0x40 MSTORE POP DUP2 ADD SWAP1 PUSH2 0x9E0 SWAP2 SWAP1 PUSH2 0x1E38 JUMP JUMPDEST PUSH2 0xD17 JUMP JUMPDEST DUP6 PUSH20 0xFFFFFFFFFFFFFFFFFFFFFFFFFFFFFFFFFFFFFFFF AND PUSH4 0xD21220A7 PUSH1 0x40 MLOAD DUP2 PUSH4 0xFFFFFFFF AND PUSH1 0xE0 SHL DUP2 MSTORE PUSH1 0x4 ADD PUSH1 0x20 PUSH1 0x40 MLOAD DUP1 DUP4 SUB DUP2 DUP7 GAS STATICCALL ISZERO DUP1 ISZERO PUSH2 0xA30 JUMPI RETURNDATASIZE PUSH1 0x0 DUP1 RETURNDATACOPY RETURNDATASIZE PUSH1 0x0 REVERT JUMPDEST POP POP POP POP PUSH1 0x40 MLOAD RETURNDATASIZE PUSH1 0x1F NOT PUSH1 0x1F DUP3 ADD AND DUP3 ADD DUP1 PUSH1 0x40 MSTORE POP DUP2 ADD SWAP1 PUSH2 0xA54 SWAP2 SWAP1 PUSH2 0x1E38 JUMP JUMPDEST PUSH20 0xFFFFFFFFFFFFFFFFFFFFFFFFFFFFFFFFFFFFFFFF AND PUSH4 0x70A08231 DUP8 PUSH1 0x40 MLOAD DUP3 PUSH4 0xFFFFFFFF AND PUSH1 0xE0 SHL DUP2 MSTORE PUSH1 0x4 ADD PUSH2 0xA8C SWAP2 SWAP1 PUSH2 0x19A2 JUMP JUMPDEST PUSH1 0x20 PUSH1 0x40 MLOAD DUP1 DUP4 SUB DUP2 DUP7 GAS STATICCALL ISZERO DUP1 ISZERO PUSH2 0xAA9 JUMPI RETURNDATASIZE PUSH1 0x0 DUP1 RETURNDATACOPY RETURNDATASIZE PUSH1 0x0 REVERT JUMPDEST POP POP POP POP PUSH1 0x40 MLOAD RETURNDATASIZE PUSH1 0x1F NOT PUSH1 0x1F DUP3 ADD AND DUP3 ADD DUP1 PUSH1 0x40 MSTORE POP DUP2 ADD SWAP1 PUSH2 0xACD SWAP2 SWAP1 PUSH2 0x1E65 JUMP JUMPDEST PUSH2 0x158A SWAP1 SWAP2 SWAP1 PUSH4 0xFFFFFFFF AND JUMP JUMPDEST SWAP1 POP PUSH2 0xC55 JUMP JUMPDEST PUSH2 0xC52 PUSH2 0xB5C DUP6 PUSH20 0xFFFFFFFFFFFFFFFFFFFFFFFFFFFFFFFFFFFFFFFF AND PUSH4 0xD21220A7 PUSH1 0x40 MLOAD DUP2 PUSH4 0xFFFFFFFF AND PUSH1 0xE0 SHL DUP2 MSTORE PUSH1 0x4 ADD PUSH1 0x20 PUSH1 0x40 MLOAD DUP1 DUP4 SUB DUP2 DUP7 GAS STATICCALL ISZERO DUP1 ISZERO PUSH2 0xB33 JUMPI RETURNDATASIZE PUSH1 0x0 DUP1 RETURNDATACOPY RETURNDATASIZE PUSH1 0x0 REVERT JUMPDEST POP POP POP POP PUSH1 0x40 MLOAD RETURNDATASIZE PUSH1 0x1F NOT PUSH1 0x1F DUP3 ADD AND DUP3 ADD DUP1 PUSH1 0x40 MSTORE POP DUP2 ADD SWAP1 PUSH2 0xB57 SWAP2 SWAP1 PUSH2 0x1E38 JUMP JUMPDEST PUSH2 0x2AE JUMP JUMPDEST DUP6 PUSH20 0xFFFFFFFFFFFFFFFFFFFFFFFFFFFFFFFFFFFFFFFF AND PUSH4 0xD21220A7 PUSH1 0x40 MLOAD DUP2 PUSH4 0xFFFFFFFF AND PUSH1 0xE0 SHL DUP2 MSTORE PUSH1 0x4 ADD PUSH1 0x20 PUSH1 0x40 MLOAD DUP1 DUP4 SUB DUP2 DUP7 GAS STATICCALL ISZERO DUP1 ISZERO PUSH2 0xBA7 JUMPI RETURNDATASIZE PUSH1 0x0 DUP1 RETURNDATACOPY RETURNDATASIZE PUSH1 0x0 REVERT JUMPDEST POP POP POP POP PUSH1 0x40 MLOAD RETURNDATASIZE PUSH1 0x1F NOT PUSH1 0x1F DUP3 ADD AND DUP3 ADD DUP1 PUSH1 0x40 MSTORE POP DUP2 ADD SWAP1 PUSH2 0xBCB SWAP2 SWAP1 PUSH2 0x1E38 JUMP JUMPDEST PUSH20 0xFFFFFFFFFFFFFFFFFFFFFFFFFFFFFFFFFFFFFFFF AND PUSH4 0x70A08231 DUP8 PUSH1 0x40 MLOAD DUP3 PUSH4 0xFFFFFFFF AND PUSH1 0xE0 SHL DUP2 MSTORE PUSH1 0x4 ADD PUSH2 0xC03 SWAP2 SWAP1 PUSH2 0x19A2 JUMP JUMPDEST PUSH1 0x20 PUSH1 0x40 MLOAD DUP1 DUP4 SUB DUP2 DUP7 GAS STATICCALL ISZERO DUP1 ISZERO PUSH2 0xC20 JUMPI RETURNDATASIZE PUSH1 0x0 DUP1 RETURNDATACOPY RETURNDATASIZE PUSH1 0x0 REVERT JUMPDEST POP POP POP POP PUSH1 0x40 MLOAD RETURNDATASIZE PUSH1 0x1F NOT PUSH1 0x1F DUP3 ADD AND DUP3 ADD DUP1 PUSH1 0x40 MSTORE POP DUP2 ADD SWAP1 PUSH2 0xC44 SWAP2 SWAP1 PUSH2 0x1E65 JUMP JUMPDEST PUSH2 0x158A SWAP1 SWAP2 SWAP1 PUSH4 0xFFFFFFFF AND JUMP JUMPDEST SWAP1 POP JUMPDEST PUSH2 0xCE8 DUP5 PUSH20 0xFFFFFFFFFFFFFFFFFFFFFFFFFFFFFFFFFFFFFFFF AND PUSH4 0x18160DDD PUSH1 0x40 MLOAD DUP2 PUSH4 0xFFFFFFFF AND PUSH1 0xE0 SHL DUP2 MSTORE PUSH1 0x4 ADD PUSH1 0x20 PUSH1 0x40 MLOAD DUP1 DUP4 SUB DUP2 DUP7 GAS STATICCALL ISZERO DUP1 ISZERO PUSH2 0xCA3 JUMPI RETURNDATASIZE PUSH1 0x0 DUP1 RETURNDATACOPY RETURNDATASIZE PUSH1 0x0 REVERT JUMPDEST POP POP POP POP PUSH1 0x40 MLOAD RETURNDATASIZE PUSH1 0x1F NOT PUSH1 0x1F DUP3 ADD AND DUP3 ADD DUP1 PUSH1 0x40 MSTORE POP DUP2 ADD SWAP1 PUSH2 0xCC7 SWAP2 SWAP1 PUSH2 0x1E65 JUMP JUMPDEST PUSH2 0xCDA DUP4 DUP6 PUSH2 0x1604 SWAP1 SWAP2 SWAP1 PUSH4 0xFFFFFFFF AND JUMP JUMPDEST PUSH2 0x1662 SWAP1 SWAP2 SWAP1 PUSH4 0xFFFFFFFF AND JUMP JUMPDEST SWAP3 POP POP POP SWAP2 SWAP1 POP JUMP JUMPDEST PUSH1 0x4 PUSH1 0x0 SWAP1 SLOAD SWAP1 PUSH2 0x100 EXP SWAP1 DIV PUSH20 0xFFFFFFFFFFFFFFFFFFFFFFFFFFFFFFFFFFFFFFFF AND DUP2 JUMP JUMPDEST PUSH1 0x0 DUP1 PUSH1 0x2 PUSH8 0xFFFFFFFFFFFFFFFF DUP2 GT ISZERO PUSH2 0xD35 JUMPI PUSH2 0xD34 PUSH2 0x1B26 JUMP JUMPDEST JUMPDEST PUSH1 0x40 MLOAD SWAP1 DUP1 DUP3 MSTORE DUP1 PUSH1 0x20 MUL PUSH1 0x20 ADD DUP3 ADD PUSH1 0x40 MSTORE DUP1 ISZERO PUSH2 0xD63 JUMPI DUP2 PUSH1 0x20 ADD PUSH1 0x20 DUP3 MUL DUP1 CALLDATASIZE DUP4 CALLDATACOPY DUP1 DUP3 ADD SWAP2 POP POP SWAP1 POP JUMPDEST POP SWAP1 POP DUP3 DUP2 PUSH1 0x0 DUP2 MLOAD DUP2 LT PUSH2 0xD7B JUMPI PUSH2 0xD7A PUSH2 0x1B55 JUMP JUMPDEST JUMPDEST PUSH1 0x20 MUL PUSH1 0x20 ADD ADD SWAP1 PUSH20 0xFFFFFFFFFFFFFFFFFFFFFFFFFFFFFFFFFFFFFFFF AND SWAP1 DUP2 PUSH20 0xFFFFFFFFFFFFFFFFFFFFFFFFFFFFFFFFFFFFFFFF AND DUP2 MSTORE POP POP PUSH1 0x2 PUSH1 0x0 SWAP1 SLOAD SWAP1 PUSH2 0x100 EXP SWAP1 DIV PUSH20 0xFFFFFFFFFFFFFFFFFFFFFFFFFFFFFFFFFFFFFFFF AND DUP2 PUSH1 0x1 DUP2 MLOAD DUP2 LT PUSH2 0xDEC JUMPI PUSH2 0xDEB PUSH2 0x1B55 JUMP JUMPDEST JUMPDEST PUSH1 0x20 MUL PUSH1 0x20 ADD ADD SWAP1 PUSH20 0xFFFFFFFFFFFFFFFFFFFFFFFFFFFFFFFFFFFFFFFF AND SWAP1 DUP2 PUSH20 0xFFFFFFFFFFFFFFFFFFFFFFFFFFFFFFFFFFFFFFFF AND DUP2 MSTORE POP POP PUSH1 0x4 PUSH1 0x0 SWAP1 SLOAD SWAP1 PUSH2 0x100 EXP SWAP1 DIV PUSH20 0xFFFFFFFFFFFFFFFFFFFFFFFFFFFFFFFFFFFFFFFF AND PUSH20 0xFFFFFFFFFFFFFFFFFFFFFFFFFFFFFFFFFFFFFFFF AND PUSH4 0xD06CA61F PUSH1 0x3 SLOAD DUP4 PUSH1 0x40 MLOAD DUP4 PUSH4 0xFFFFFFFF AND PUSH1 0xE0 SHL DUP2 MSTORE PUSH1 0x4 ADD PUSH2 0xE85 SWAP3 SWAP2 SWAP1 PUSH2 0x1C42 JUMP JUMPDEST PUSH1 0x0 PUSH1 0x40 MLOAD DUP1 DUP4 SUB DUP2 DUP7 GAS STATICCALL ISZERO DUP1 ISZERO PUSH2 0xEA2 JUMPI RETURNDATASIZE PUSH1 0x0 DUP1 RETURNDATACOPY RETURNDATASIZE PUSH1 0x0 REVERT JUMPDEST POP POP POP POP PUSH1 0x40 MLOAD RETURNDATASIZE PUSH1 0x0 DUP3 RETURNDATACOPY RETURNDATASIZE PUSH1 0x1F NOT PUSH1 0x1F DUP3 ADD AND DUP3 ADD DUP1 PUSH1 0x40 MSTORE POP DUP2 ADD SWAP1 PUSH2 0xECB SWAP2 SWAP1 PUSH2 0x1DB1 JUMP JUMPDEST PUSH1 0x1 DUP2 MLOAD DUP2 LT PUSH2 0xEDE JUMPI PUSH2 0xEDD PUSH2 0x1B55 JUMP JUMPDEST JUMPDEST PUSH1 0x20 MUL PUSH1 0x20 ADD ADD MLOAD SWAP2 POP POP SWAP2 SWAP1 POP JUMP JUMPDEST PUSH1 0x2 PUSH1 0x0 SWAP1 SLOAD SWAP1 PUSH2 0x100 EXP SWAP1 DIV PUSH20 0xFFFFFFFFFFFFFFFFFFFFFFFFFFFFFFFFFFFFFFFF AND DUP2 JUMP JUMPDEST PUSH2 0xF1C PUSH2 0x16AC JUMP JUMPDEST PUSH20 0xFFFFFFFFFFFFFFFFFFFFFFFFFFFFFFFFFFFFFFFF AND PUSH2 0xF3A PUSH2 0xFA3 JUMP JUMPDEST PUSH20 0xFFFFFFFFFFFFFFFFFFFFFFFFFFFFFFFFFFFFFFFF AND EQ PUSH2 0xF90 JUMPI PUSH1 0x40 MLOAD PUSH32 0x8C379A000000000000000000000000000000000000000000000000000000000 DUP2 MSTORE PUSH1 0x4 ADD PUSH2 0xF87 SWAP1 PUSH2 0x1EEF JUMP JUMPDEST PUSH1 0x40 MLOAD DUP1 SWAP2 SUB SWAP1 REVERT JUMPDEST PUSH2 0xF9A PUSH1 0x0 PUSH2 0x16B4 JUMP JUMPDEST JUMP JUMPDEST PUSH1 0x0 SWAP2 SWAP1 POP JUMP JUMPDEST PUSH1 0x0 DUP1 PUSH1 0x0 SWAP1 SLOAD SWAP1 PUSH2 0x100 EXP SWAP1 DIV PUSH20 0xFFFFFFFFFFFFFFFFFFFFFFFFFFFFFFFFFFFFFFFF AND SWAP1 POP SWAP1 JUMP JUMPDEST PUSH1 0x1 PUSH1 0x0 SWAP1 SLOAD SWAP1 PUSH2 0x100 EXP SWAP1 DIV PUSH20 0xFFFFFFFFFFFFFFFFFFFFFFFFFFFFFFFFFFFFFFFF AND DUP2 JUMP JUMPDEST PUSH2 0xFFA PUSH2 0x16AC JUMP JUMPDEST PUSH20 0xFFFFFFFFFFFFFFFFFFFFFFFFFFFFFFFFFFFFFFFF AND PUSH2 0x1018 PUSH2 0xFA3 JUMP JUMPDEST PUSH20 0xFFFFFFFFFFFFFFFFFFFFFFFFFFFFFFFFFFFFFFFF AND EQ PUSH2 0x106E JUMPI PUSH1 0x40 MLOAD PUSH32 0x8C379A000000000000000000000000000000000000000000000000000000000 DUP2 MSTORE PUSH1 0x4 ADD PUSH2 0x1065 SWAP1 PUSH2 0x1EEF JUMP JUMPDEST PUSH1 0x40 MLOAD DUP1 SWAP2 SUB SWAP1 REVERT JUMPDEST DUP1 PUSH1 0x4 PUSH1 0x0 PUSH2 0x100 EXP DUP2 SLOAD DUP2 PUSH20 0xFFFFFFFFFFFFFFFFFFFFFFFFFFFFFFFFFFFFFFFF MUL NOT AND SWAP1 DUP4 PUSH20 0xFFFFFFFFFFFFFFFFFFFFFFFFFFFFFFFFFFFFFFFF AND MUL OR SWAP1 SSTORE POP POP JUMP JUMPDEST PUSH1 0x0 DUP1 DUP3 PUSH20 0xFFFFFFFFFFFFFFFFFFFFFFFFFFFFFFFFFFFFFFFF AND PUSH4 0x6A6D964E DUP8 PUSH1 0x40 MLOAD DUP3 PUSH4 0xFFFFFFFF AND PUSH1 0xE0 SHL DUP2 MSTORE PUSH1 0x4 ADD PUSH2 0x10EE SWAP2 SWAP1 PUSH2 0x1893 JUMP JUMPDEST PUSH1 0x20 PUSH1 0x40 MLOAD DUP1 DUP4 SUB DUP2 DUP7 GAS STATICCALL ISZERO DUP1 ISZERO PUSH2 0x110B JUMPI RETURNDATASIZE PUSH1 0x0 DUP1 RETURNDATACOPY RETURNDATASIZE PUSH1 0x0 REVERT JUMPDEST POP POP POP POP PUSH1 0x40 MLOAD RETURNDATASIZE PUSH1 0x1F NOT PUSH1 0x1F DUP3 ADD AND DUP3 ADD DUP1 PUSH1 0x40 MSTORE POP DUP2 ADD SWAP1 PUSH2 0x112F SWAP2 SWAP1 PUSH2 0x1E65 JUMP JUMPDEST SWAP1 POP PUSH1 0x0 PUSH1 0x1 DUP6 SUB PUSH2 0x114B JUMPI PUSH2 0x1144 DUP7 PUSH2 0x4F6 JUMP JUMPDEST SWAP1 POP PUSH2 0x11C6 JUMP JUMPDEST PUSH1 0x0 DUP6 SUB PUSH2 0x11C5 JUMPI DUP6 PUSH20 0xFFFFFFFFFFFFFFFFFFFFFFFFFFFFFFFFFFFFFFFF AND PUSH1 0x1 PUSH1 0x0 SWAP1 SLOAD SWAP1 PUSH2 0x100 EXP SWAP1 DIV PUSH20 0xFFFFFFFFFFFFFFFFFFFFFFFFFFFFFFFFFFFFFFFF AND PUSH20 0xFFFFFFFFFFFFFFFFFFFFFFFFFFFFFFFFFFFFFFFF AND SUB PUSH2 0x11B8 JUMPI PUSH2 0x11B1 DUP7 PUSH2 0xD17 JUMP JUMPDEST SWAP1 POP PUSH2 0x11C4 JUMP JUMPDEST PUSH2 0x11C1 DUP7 PUSH2 0x2AE JUMP JUMPDEST SWAP1 POP JUMPDEST JUMPDEST JUMPDEST PUSH2 0x11E6 PUSH1 0x3 SLOAD DUP3 DUP5 PUSH2 0x11D8 SWAP2 SWAP1 PUSH2 0x1F3E JUMP JUMPDEST PUSH2 0x1662 SWAP1 SWAP2 SWAP1 PUSH4 0xFFFFFFFF AND JUMP JUMPDEST SWAP3 POP POP POP SWAP5 SWAP4 POP POP POP POP JUMP JUMPDEST PUSH1 0x0 DUP1 DUP3 PUSH20 0xFFFFFFFFFFFFFFFFFFFFFFFFFFFFFFFFFFFFFFFF AND PUSH4 0x1526FE27 DUP8 PUSH1 0x40 MLOAD DUP3 PUSH4 0xFFFFFFFF AND PUSH1 0xE0 SHL DUP2 MSTORE PUSH1 0x4 ADD PUSH2 0x122E SWAP2 SWAP1 PUSH2 0x1893 JUMP JUMPDEST PUSH1 0xC0 PUSH1 0x40 MLOAD DUP1 DUP4 SUB DUP2 DUP7 GAS STATICCALL ISZERO DUP1 ISZERO PUSH2 0x124B JUMPI RETURNDATASIZE PUSH1 0x0 DUP1 RETURNDATACOPY RETURNDATASIZE PUSH1 0x0 REVERT JUMPDEST POP POP POP POP PUSH1 0x40 MLOAD RETURNDATASIZE PUSH1 0x1F NOT PUSH1 0x1F DUP3 ADD AND DUP3 ADD DUP1 PUSH1 0x40 MSTORE POP DUP2 ADD SWAP1 PUSH2 0x126F SWAP2 SWAP1 PUSH2 0x207B JUMP JUMPDEST SWAP1 POP PUSH1 0x0 PUSH2 0x130C DUP5 PUSH20 0xFFFFFFFFFFFFFFFFFFFFFFFFFFFFFFFFFFFFFFFF AND PUSH4 0x17CAF6F1 PUSH1 0x40 MLOAD DUP2 PUSH4 0xFFFFFFFF AND PUSH1 0xE0 SHL DUP2 MSTORE PUSH1 0x4 ADD PUSH1 0x20 PUSH1 0x40 MLOAD DUP1 DUP4 SUB DUP2 DUP7 GAS STATICCALL ISZERO DUP1 ISZERO PUSH2 0x12C1 JUMPI RETURNDATASIZE PUSH1 0x0 DUP1 RETURNDATACOPY RETURNDATASIZE PUSH1 0x0 REVERT JUMPDEST POP POP POP POP PUSH1 0x40 MLOAD RETURNDATASIZE PUSH1 0x1F NOT PUSH1 0x1F DUP3 ADD AND DUP3 ADD DUP1 PUSH1 0x40 MSTORE POP DUP2 ADD SWAP1 PUSH2 0x12E5 SWAP2 SWAP1 PUSH2 0x1E65 JUMP JUMPDEST PUSH2 0x12FE PUSH1 0x3 SLOAD DUP6 PUSH1 0x20 ADD MLOAD PUSH2 0x158A SWAP1 SWAP2 SWAP1 PUSH4 0xFFFFFFFF AND JUMP JUMPDEST PUSH2 0x1662 SWAP1 SWAP2 SWAP1 PUSH4 0xFFFFFFFF AND JUMP JUMPDEST SWAP1 POP PUSH1 0x0 PUSH2 0x1387 DUP6 PUSH20 0xFFFFFFFFFFFFFFFFFFFFFFFFFFFFFFFFFFFFFFFF AND PUSH4 0x141AA0BA PUSH1 0x40 MLOAD DUP2 PUSH4 0xFFFFFFFF AND PUSH1 0xE0 SHL DUP2 MSTORE PUSH1 0x4 ADD PUSH1 0x20 PUSH1 0x40 MLOAD DUP1 DUP4 SUB DUP2 DUP7 GAS STATICCALL ISZERO DUP1 ISZERO PUSH2 0x135E JUMPI RETURNDATASIZE PUSH1 0x0 DUP1 RETURNDATACOPY RETURNDATASIZE PUSH1 0x0 REVERT JUMPDEST POP POP POP POP PUSH1 0x40 MLOAD RETURNDATASIZE PUSH1 0x1F NOT PUSH1 0x1F DUP3 ADD AND DUP3 ADD DUP1 PUSH1 0x40 MSTORE POP DUP2 ADD SWAP1 PUSH2 0x1382 SWAP2 SWAP1 PUSH2 0x20BD JUMP JUMPDEST PUSH2 0x2AE JUMP JUMPDEST SWAP1 POP PUSH1 0x0 PUSH2 0x140E DUP7 PUSH20 0xFFFFFFFFFFFFFFFFFFFFFFFFFFFFFFFFFFFFFFFF AND PUSH4 0xA1EEF821 PUSH1 0x40 MLOAD DUP2 PUSH4 0xFFFFFFFF AND PUSH1 0xE0 SHL DUP2 MSTORE PUSH1 0x4 ADD PUSH1 0x20 PUSH1 0x40 MLOAD DUP1 DUP4 SUB DUP2 DUP7 GAS STATICCALL ISZERO DUP1 ISZERO PUSH2 0x13D9 JUMPI RETURNDATASIZE PUSH1 0x0 DUP1 RETURNDATACOPY RETURNDATASIZE PUSH1 0x0 REVERT JUMPDEST POP POP POP POP PUSH1 0x40 MLOAD RETURNDATASIZE PUSH1 0x1F NOT PUSH1 0x1F DUP3 ADD AND DUP3 ADD DUP1 PUSH1 0x40 MSTORE POP DUP2 ADD SWAP1 PUSH2 0x13FD SWAP2 SWAP1 PUSH2 0x1E65 JUMP JUMPDEST PUSH1 0x5 SLOAD PUSH2 0x158A SWAP1 SWAP2 SWAP1 PUSH4 0xFFFFFFFF AND JUMP JUMPDEST SWAP1 POP PUSH1 0x0 PUSH2 0x1439 PUSH1 0x3 SLOAD PUSH2 0x142B DUP7 DUP6 PUSH2 0x158A SWAP1 SWAP2 SWAP1 PUSH4 0xFFFFFFFF AND JUMP JUMPDEST PUSH2 0x1662 SWAP1 SWAP2 SWAP1 PUSH4 0xFFFFFFFF AND JUMP JUMPDEST SWAP1 POP PUSH1 0x0 PUSH2 0x1449 DUP12 DUP12 DUP12 DUP12 PUSH2 0x10B2 JUMP JUMPDEST SWAP1 POP PUSH2 0x1483 PUSH1 0x64 PUSH2 0x1475 DUP4 PUSH2 0x1467 DUP9 DUP8 PUSH2 0x158A SWAP1 SWAP2 SWAP1 PUSH4 0xFFFFFFFF AND JUMP JUMPDEST PUSH2 0x1662 SWAP1 SWAP2 SWAP1 PUSH4 0xFFFFFFFF AND JUMP JUMPDEST PUSH2 0x158A SWAP1 SWAP2 SWAP1 PUSH4 0xFFFFFFFF AND JUMP JUMPDEST SWAP7 POP POP POP POP POP POP POP SWAP5 SWAP4 POP POP POP POP JUMP JUMPDEST PUSH2 0x149B PUSH2 0x16AC JUMP JUMPDEST PUSH20 0xFFFFFFFFFFFFFFFFFFFFFFFFFFFFFFFFFFFFFFFF AND PUSH2 0x14B9 PUSH2 0xFA3 JUMP JUMPDEST PUSH20 0xFFFFFFFFFFFFFFFFFFFFFFFFFFFFFFFFFFFFFFFF AND EQ PUSH2 0x150F JUMPI PUSH1 0x40 MLOAD PUSH32 0x8C379A000000000000000000000000000000000000000000000000000000000 DUP2 MSTORE PUSH1 0x4 ADD PUSH2 0x1506 SWAP1 PUSH2 0x1EEF JUMP JUMPDEST PUSH1 0x40 MLOAD DUP1 SWAP2 SUB SWAP1 REVERT JUMPDEST PUSH1 0x0 PUSH20 0xFFFFFFFFFFFFFFFFFFFFFFFFFFFFFFFFFFFFFFFF AND DUP2 PUSH20 0xFFFFFFFFFFFFFFFFFFFFFFFFFFFFFFFFFFFFFFFF AND SUB PUSH2 0x157E JUMPI PUSH1 0x40 MLOAD PUSH32 0x8C379A000000000000000000000000000000000000000000000000000000000 DUP2 MSTORE PUSH1 0x4 ADD PUSH2 0x1575 SWAP1 PUSH2 0x215C JUMP JUMPDEST PUSH1 0x40 MLOAD DUP1 SWAP2 SUB SWAP1 REVERT JUMPDEST PUSH2 0x1587 DUP2 PUSH2 0x16B4 JUMP JUMPDEST POP JUMP JUMPDEST PUSH1 0x0 DUP1 DUP4 SUB PUSH2 0x159C JUMPI PUSH1 0x0 SWAP1 POP PUSH2 0x15FE JUMP JUMPDEST PUSH1 0x0 DUP3 DUP5 PUSH2 0x15AA SWAP2 SWAP1 PUSH2 0x1F3E JUMP JUMPDEST SWAP1 POP DUP3 DUP5 DUP3 PUSH2 0x15B9 SWAP2 SWAP1 PUSH2 0x21AB JUMP JUMPDEST EQ PUSH2 0x15F9 JUMPI PUSH1 0x40 MLOAD PUSH32 0x8C379A000000000000000000000000000000000000000000000000000000000 DUP2 MSTORE PUSH1 0x4 ADD PUSH2 0x15F0 SWAP1 PUSH2 0x224E JUMP JUMPDEST PUSH1 0x40 MLOAD DUP1 SWAP2 SUB SWAP1 REVERT JUMPDEST DUP1 SWAP2 POP POP JUMPDEST SWAP3 SWAP2 POP POP JUMP JUMPDEST PUSH1 0x0 DUP1 DUP3 DUP5 PUSH2 0x1613 SWAP2 SWAP1 PUSH2 0x226E JUMP JUMPDEST SWAP1 POP DUP4 DUP2 LT ISZERO PUSH2 0x1658 JUMPI PUSH1 0x40 MLOAD PUSH32 0x8C379A000000000000000000000000000000000000000000000000000000000 DUP2 MSTORE PUSH1 0x4 ADD PUSH2 0x164F SWAP1 PUSH2 0x2310 JUMP JUMPDEST PUSH1 0x40 MLOAD DUP1 SWAP2 SUB SWAP1 REVERT JUMPDEST DUP1 SWAP2 POP POP SWAP3 SWAP2 POP POP JUMP JUMPDEST PUSH1 0x0 PUSH2 0x16A4 DUP4 DUP4 PUSH1 0x40 MLOAD DUP1 PUSH1 0x40 ADD PUSH1 0x40 MSTORE DUP1 PUSH1 0x1A DUP2 MSTORE PUSH1 0x20 ADD PUSH32 0x536166654D6174683A206469766973696F6E206279207A65726F000000000000 DUP2 MSTORE POP PUSH2 0x1778 JUMP JUMPDEST SWAP1 POP SWAP3 SWAP2 POP POP JUMP JUMPDEST PUSH1 0x0 CALLER SWAP1 POP SWAP1 JUMP JUMPDEST PUSH1 0x0 DUP1 PUSH1 0x0 SWAP1 SLOAD SWAP1 PUSH2 0x100 EXP SWAP1 DIV PUSH20 0xFFFFFFFFFFFFFFFFFFFFFFFFFFFFFFFFFFFFFFFF AND SWAP1 POP DUP2 PUSH1 0x0 DUP1 PUSH2 0x100 EXP DUP2 SLOAD DUP2 PUSH20 0xFFFFFFFFFFFFFFFFFFFFFFFFFFFFFFFFFFFFFFFF MUL NOT AND SWAP1 DUP4 PUSH20 0xFFFFFFFFFFFFFFFFFFFFFFFFFFFFFFFFFFFFFFFF AND MUL OR SWAP1 SSTORE POP DUP2 PUSH20 0xFFFFFFFFFFFFFFFFFFFFFFFFFFFFFFFFFFFFFFFF AND DUP2 PUSH20 0xFFFFFFFFFFFFFFFFFFFFFFFFFFFFFFFFFFFFFFFF AND PUSH32 0x8BE0079C531659141344CD1FD0A4F28419497F9722A3DAAFE3B4186F6B6457E0 PUSH1 0x40 MLOAD PUSH1 0x40 MLOAD DUP1 SWAP2 SUB SWAP1 LOG3 POP POP JUMP JUMPDEST PUSH1 0x0 DUP1 DUP4 GT DUP3 SWAP1 PUSH2 0x17BF JUMPI PUSH1 0x40 MLOAD PUSH32 0x8C379A000000000000000000000000000000000000000000000000000000000 DUP2 MSTORE PUSH1 0x4 ADD PUSH2 0x17B6 SWAP2 SWAP1 PUSH2 0x23A7 JUMP JUMPDEST PUSH1 0x40 MLOAD DUP1 SWAP2 SUB SWAP1 REVERT JUMPDEST POP PUSH1 0x0 DUP4 DUP6 PUSH2 0x17CE SWAP2 SWAP1 PUSH2 0x21AB JUMP JUMPDEST SWAP1 POP DUP1 SWAP2 POP POP SWAP4 SWAP3 POP POP POP JUMP JUMPDEST PUSH1 0x0 PUSH1 0x40 MLOAD SWAP1 POP SWAP1 JUMP JUMPDEST PUSH1 0x0 DUP1 REVERT JUMPDEST PUSH1 0x0 DUP1 REVERT JUMPDEST PUSH1 0x0 PUSH20 0xFFFFFFFFFFFFFFFFFFFFFFFFFFFFFFFFFFFFFFFF DUP3 AND SWAP1 POP SWAP2 SWAP1 POP JUMP JUMPDEST PUSH1 0x0 PUSH2 0x181A DUP3 PUSH2 0x17EF JUMP JUMPDEST SWAP1 POP SWAP2 SWAP1 POP JUMP JUMPDEST PUSH2 0x182A DUP2 PUSH2 0x180F JUMP JUMPDEST DUP2 EQ PUSH2 0x1835 JUMPI PUSH1 0x0 DUP1 REVERT JUMPDEST POP JUMP JUMPDEST PUSH1 0x0 DUP2 CALLDATALOAD SWAP1 POP PUSH2 0x1847 DUP2 PUSH2 0x1821 JUMP JUMPDEST SWAP3 SWAP2 POP POP JUMP JUMPDEST PUSH1 0x0 PUSH1 0x20 DUP3 DUP5 SUB SLT ISZERO PUSH2 0x1863 JUMPI PUSH2 0x1862 PUSH2 0x17E5 JUMP JUMPDEST JUMPDEST PUSH1 0x0 PUSH2 0x1871 DUP5 DUP3 DUP6 ADD PUSH2 0x1838 JUMP JUMPDEST SWAP2 POP POP SWAP3 SWAP2 POP POP JUMP JUMPDEST PUSH1 0x0 DUP2 SWAP1 POP SWAP2 SWAP1 POP JUMP JUMPDEST PUSH2 0x188D DUP2 PUSH2 0x187A JUMP JUMPDEST DUP3 MSTORE POP POP JUMP JUMPDEST PUSH1 0x0 PUSH1 0x20 DUP3 ADD SWAP1 POP PUSH2 0x18A8 PUSH1 0x0 DUP4 ADD DUP5 PUSH2 0x1884 JUMP JUMPDEST SWAP3 SWAP2 POP POP JUMP JUMPDEST PUSH1 0x0 PUSH2 0x18B9 DUP3 PUSH2 0x180F JUMP JUMPDEST SWAP1 POP SWAP2 SWAP1 POP JUMP JUMPDEST PUSH2 0x18C9 DUP2 PUSH2 0x18AE JUMP JUMPDEST DUP2 EQ PUSH2 0x18D4 JUMPI PUSH1 0x0 DUP1 REVERT JUMPDEST POP JUMP JUMPDEST PUSH1 0x0 DUP2 CALLDATALOAD SWAP1 POP PUSH2 0x18E6 DUP2 PUSH2 0x18C0 JUMP JUMPDEST SWAP3 SWAP2 POP POP JUMP JUMPDEST PUSH1 0x0 PUSH1 0x20 DUP3 DUP5 SUB SLT ISZERO PUSH2 0x1902 JUMPI PUSH2 0x1901 PUSH2 0x17E5 JUMP JUMPDEST JUMPDEST PUSH1 0x0 PUSH2 0x1910 DUP5 DUP3 DUP6 ADD PUSH2 0x18D7 JUMP JUMPDEST SWAP2 POP POP SWAP3 SWAP2 POP POP JUMP JUMPDEST PUSH1 0x0 DUP2 SWAP1 POP SWAP2 SWAP1 POP JUMP JUMPDEST PUSH1 0x0 PUSH2 0x193E PUSH2 0x1939 PUSH2 0x1934 DUP5 PUSH2 0x17EF JUMP JUMPDEST PUSH2 0x1919 JUMP JUMPDEST PUSH2 0x17EF JUMP JUMPDEST SWAP1 POP SWAP2 SWAP1 POP JUMP JUMPDEST PUSH1 0x0 PUSH2 0x1950 DUP3 PUSH2 0x1923 JUMP JUMPDEST SWAP1 POP SWAP2 SWAP1 POP JUMP JUMPDEST PUSH1 0x0 PUSH2 0x1962 DUP3 PUSH2 0x1945 JUMP JUMPDEST SWAP1 POP SWAP2 SWAP1 POP JUMP JUMPDEST PUSH2 0x1972 DUP2 PUSH2 0x1957 JUMP JUMPDEST DUP3 MSTORE POP POP JUMP JUMPDEST PUSH1 0x0 PUSH1 0x20 DUP3 ADD SWAP1 POP PUSH2 0x198D PUSH1 0x0 DUP4 ADD DUP5 PUSH2 0x1969 JUMP JUMPDEST SWAP3 SWAP2 POP POP JUMP JUMPDEST PUSH2 0x199C DUP2 PUSH2 0x180F JUMP JUMPDEST DUP3 MSTORE POP POP JUMP JUMPDEST PUSH1 0x0 PUSH1 0x20 DUP3 ADD SWAP1 POP PUSH2 0x19B7 PUSH1 0x0 DUP4 ADD DUP5 PUSH2 0x1993 JUMP JUMPDEST SWAP3 SWAP2 POP POP JUMP JUMPDEST PUSH1 0x0 PUSH2 0x19C8 DUP3 PUSH2 0x180F JUMP JUMPDEST SWAP1 POP SWAP2 SWAP1 POP JUMP JUMPDEST PUSH2 0x19D8 DUP2 PUSH2 0x19BD JUMP JUMPDEST DUP2 EQ PUSH2 0x19E3 JUMPI PUSH1 0x0 DUP1 REVERT JUMPDEST POP JUMP JUMPDEST PUSH1 0x0 DUP2 CALLDATALOAD SWAP1 POP PUSH2 0x19F5 DUP2 PUSH2 0x19CF JUMP JUMPDEST SWAP3 SWAP2 POP POP JUMP JUMPDEST PUSH1 0x0 PUSH1 0x20 DUP3 DUP5 SUB SLT ISZERO PUSH2 0x1A11 JUMPI PUSH2 0x1A10 PUSH2 0x17E5 JUMP JUMPDEST JUMPDEST PUSH1 0x0 PUSH2 0x1A1F DUP5 DUP3 DUP6 ADD PUSH2 0x19E6 JUMP JUMPDEST SWAP2 POP POP SWAP3 SWAP2 POP POP JUMP JUMPDEST PUSH1 0x0 PUSH2 0x1A33 DUP3 PUSH2 0x180F JUMP JUMPDEST SWAP1 POP SWAP2 SWAP1 POP JUMP JUMPDEST PUSH2 0x1A43 DUP2 PUSH2 0x1A28 JUMP JUMPDEST DUP2 EQ PUSH2 0x1A4E JUMPI PUSH1 0x0 DUP1 REVERT JUMPDEST POP JUMP JUMPDEST PUSH1 0x0 DUP2 CALLDATALOAD SWAP1 POP PUSH2 0x1A60 DUP2 PUSH2 0x1A3A JUMP JUMPDEST SWAP3 SWAP2 POP POP JUMP JUMPDEST PUSH1 0x0 PUSH1 0x20 DUP3 DUP5 SUB SLT ISZERO PUSH2 0x1A7C JUMPI PUSH2 0x1A7B PUSH2 0x17E5 JUMP JUMPDEST JUMPDEST PUSH1 0x0 PUSH2 0x1A8A DUP5 DUP3 DUP6 ADD PUSH2 0x1A51 JUMP JUMPDEST SWAP2 POP POP SWAP3 SWAP2 POP POP JUMP JUMPDEST PUSH2 0x1A9C DUP2 PUSH2 0x187A JUMP JUMPDEST DUP2 EQ PUSH2 0x1AA7 JUMPI PUSH1 0x0 DUP1 REVERT JUMPDEST POP JUMP JUMPDEST PUSH1 0x0 DUP2 CALLDATALOAD SWAP1 POP PUSH2 0x1AB9 DUP2 PUSH2 0x1A93 JUMP JUMPDEST SWAP3 SWAP2 POP POP JUMP JUMPDEST PUSH1 0x0 DUP1 PUSH1 0x0 DUP1 PUSH1 0x80 DUP6 DUP8 SUB SLT ISZERO PUSH2 0x1AD9 JUMPI PUSH2 0x1AD8 PUSH2 0x17E5 JUMP JUMPDEST JUMPDEST PUSH1 0x0 PUSH2 0x1AE7 DUP8 DUP3 DUP9 ADD PUSH2 0x1AAA JUMP JUMPDEST SWAP5 POP POP PUSH1 0x20 PUSH2 0x1AF8 DUP8 DUP3 DUP9 ADD PUSH2 0x18D7 JUMP JUMPDEST SWAP4 POP POP PUSH1 0x40 PUSH2 0x1B09 DUP8 DUP3 DUP9 ADD PUSH2 0x1AAA JUMP JUMPDEST SWAP3 POP POP PUSH1 0x60 PUSH2 0x1B1A DUP8 DUP3 DUP9 ADD PUSH2 0x19E6 JUMP JUMPDEST SWAP2 POP POP SWAP3 SWAP6 SWAP2 SWAP5 POP SWAP3 POP JUMP JUMPDEST PUSH32 0x4E487B7100000000000000000000000000000000000000000000000000000000 PUSH1 0x0 MSTORE PUSH1 0x41 PUSH1 0x4 MSTORE PUSH1 0x24 PUSH1 0x0 REVERT JUMPDEST PUSH32 0x4E487B7100000000000000000000000000000000000000000000000000000000 PUSH1 0x0 MSTORE PUSH1 0x32 PUSH1 0x4 MSTORE PUSH1 0x24 PUSH1 0x0 REVERT JUMPDEST PUSH1 0x0 DUP2 MLOAD SWAP1 POP SWAP2 SWAP1 POP JUMP JUMPDEST PUSH1 0x0 DUP3 DUP3 MSTORE PUSH1 0x20 DUP3 ADD SWAP1 POP SWAP3 SWAP2 POP POP JUMP JUMPDEST PUSH1 0x0 DUP2 SWAP1 POP PUSH1 0x20 DUP3 ADD SWAP1 POP SWAP2 SWAP1 POP JUMP JUMPDEST PUSH2 0x1BB9 DUP2 PUSH2 0x180F JUMP JUMPDEST DUP3 MSTORE POP POP JUMP JUMPDEST PUSH1 0x0 PUSH2 0x1BCB DUP4 DUP4 PUSH2 0x1BB0 JUMP JUMPDEST PUSH1 0x20 DUP4 ADD SWAP1 POP SWAP3 SWAP2 POP POP JUMP JUMPDEST PUSH1 0x0 PUSH1 0x20 DUP3 ADD SWAP1 POP SWAP2 SWAP1 POP JUMP JUMPDEST PUSH1 0x0 PUSH2 0x1BEF DUP3 PUSH2 0x1B84 JUMP JUMPDEST PUSH2 0x1BF9 DUP2 DUP6 PUSH2 0x1B8F JUMP JUMPDEST SWAP4 POP PUSH2 0x1C04 DUP4 PUSH2 0x1BA0 JUMP JUMPDEST DUP1 PUSH1 0x0 JUMPDEST DUP4 DUP2 LT ISZERO PUSH2 0x1C35 JUMPI DUP2 MLOAD PUSH2 0x1C1C DUP9 DUP3 PUSH2 0x1BBF JUMP JUMPDEST SWAP8 POP PUSH2 0x1C27 DUP4 PUSH2 0x1BD7 JUMP JUMPDEST SWAP3 POP POP PUSH1 0x1 DUP2 ADD SWAP1 POP PUSH2 0x1C08 JUMP JUMPDEST POP DUP6 SWAP4 POP POP POP POP SWAP3 SWAP2 POP POP JUMP JUMPDEST PUSH1 0x0 PUSH1 0x40 DUP3 ADD SWAP1 POP PUSH2 0x1C57 PUSH1 0x0 DUP4 ADD DUP6 PUSH2 0x1884 JUMP JUMPDEST DUP2 DUP2 SUB PUSH1 0x20 DUP4 ADD MSTORE PUSH2 0x1C69 DUP2 DUP5 PUSH2 0x1BE4 JUMP JUMPDEST SWAP1 POP SWAP4 SWAP3 POP POP POP JUMP JUMPDEST PUSH1 0x0 DUP1 REVERT JUMPDEST PUSH1 0x0 PUSH1 0x1F NOT PUSH1 0x1F DUP4 ADD AND SWAP1 POP SWAP2 SWAP1 POP JUMP JUMPDEST PUSH2 0x1C91 DUP3 PUSH2 0x1C77 JUMP JUMPDEST DUP2 ADD DUP2 DUP2 LT PUSH8 0xFFFFFFFFFFFFFFFF DUP3 GT OR ISZERO PUSH2 0x1CB0 JUMPI PUSH2 0x1CAF PUSH2 0x1B26 JUMP JUMPDEST JUMPDEST DUP1 PUSH1 0x40 MSTORE POP POP POP JUMP JUMPDEST PUSH1 0x0 PUSH2 0x1CC3 PUSH2 0x17DB JUMP JUMPDEST SWAP1 POP PUSH2 0x1CCF DUP3 DUP3 PUSH2 0x1C88 JUMP JUMPDEST SWAP2 SWAP1 POP JUMP JUMPDEST PUSH1 0x0 PUSH8 0xFFFFFFFFFFFFFFFF DUP3 GT ISZERO PUSH2 0x1CEF JUMPI PUSH2 0x1CEE PUSH2 0x1B26 JUMP JUMPDEST JUMPDEST PUSH1 0x20 DUP3 MUL SWAP1 POP PUSH1 0x20 DUP2 ADD SWAP1 POP SWAP2 SWAP1 POP JUMP JUMPDEST PUSH1 0x0 DUP1 REVERT JUMPDEST PUSH1 0x0 DUP2 MLOAD SWAP1 POP PUSH2 0x1D14 DUP2 PUSH2 0x1A93 JUMP JUMPDEST SWAP3 SWAP2 POP POP JUMP JUMPDEST PUSH1 0x0 PUSH2 0x1D2D PUSH2 0x1D28 DUP5 PUSH2 0x1CD4 JUMP JUMPDEST PUSH2 0x1CB9 JUMP JUMPDEST SWAP1 POP DUP1 DUP4 DUP3 MSTORE PUSH1 0x20 DUP3 ADD SWAP1 POP PUSH1 0x20 DUP5 MUL DUP4 ADD DUP6 DUP2 GT ISZERO PUSH2 0x1D50 JUMPI PUSH2 0x1D4F PUSH2 0x1D00 JUMP JUMPDEST JUMPDEST DUP4 JUMPDEST DUP2 DUP2 LT ISZERO PUSH2 0x1D79 JUMPI DUP1 PUSH2 0x1D65 DUP9 DUP3 PUSH2 0x1D05 JUMP JUMPDEST DUP5 MSTORE PUSH1 0x20 DUP5 ADD SWAP4 POP POP PUSH1 0x20 DUP2 ADD SWAP1 POP PUSH2 0x1D52 JUMP JUMPDEST POP POP POP SWAP4 SWAP3 POP POP POP JUMP JUMPDEST PUSH1 0x0 DUP3 PUSH1 0x1F DUP4 ADD SLT PUSH2 0x1D98 JUMPI PUSH2 0x1D97 PUSH2 0x1C72 JUMP JUMPDEST JUMPDEST DUP2 MLOAD PUSH2 0x1DA8 DUP5 DUP3 PUSH1 0x20 DUP7 ADD PUSH2 0x1D1A JUMP JUMPDEST SWAP2 POP POP SWAP3 SWAP2 POP POP JUMP JUMPDEST PUSH1 0x0 PUSH1 0x20 DUP3 DUP5 SUB SLT ISZERO PUSH2 0x1DC7 JUMPI PUSH2 0x1DC6 PUSH2 0x17E5 JUMP JUMPDEST JUMPDEST PUSH1 0x0 DUP3 ADD MLOAD PUSH8 0xFFFFFFFFFFFFFFFF DUP2 GT ISZERO PUSH2 0x1DE5 JUMPI PUSH2 0x1DE4 PUSH2 0x17EA JUMP JUMPDEST JUMPDEST PUSH2 0x1DF1 DUP5 DUP3 DUP6 ADD PUSH2 0x1D83 JUMP JUMPDEST SWAP2 POP POP SWAP3 SWAP2 POP POP JUMP JUMPDEST PUSH1 0x0 PUSH2 0x1E05 DUP3 PUSH2 0x180F JUMP JUMPDEST SWAP1 POP SWAP2 SWAP1 POP JUMP JUMPDEST PUSH2 0x1E15 DUP2 PUSH2 0x1DFA JUMP JUMPDEST DUP2 EQ PUSH2 0x1E20 JUMPI PUSH1 0x0 DUP1 REVERT JUMPDEST POP JUMP JUMPDEST PUSH1 0x0 DUP2 MLOAD SWAP1 POP PUSH2 0x1E32 DUP2 PUSH2 0x1E0C JUMP JUMPDEST SWAP3 SWAP2 POP POP JUMP JUMPDEST PUSH1 0x0 PUSH1 0x20 DUP3 DUP5 SUB SLT ISZERO PUSH2 0x1E4E JUMPI PUSH2 0x1E4D PUSH2 0x17E5 JUMP JUMPDEST JUMPDEST PUSH1 0x0 PUSH2 0x1E5C DUP5 DUP3 DUP6 ADD PUSH2 0x1E23 JUMP JUMPDEST SWAP2 POP POP SWAP3 SWAP2 POP POP JUMP JUMPDEST PUSH1 0x0 PUSH1 0x20 DUP3 DUP5 SUB SLT ISZERO PUSH2 0x1E7B JUMPI PUSH2 0x1E7A PUSH2 0x17E5 JUMP JUMPDEST JUMPDEST PUSH1 0x0 PUSH2 0x1E89 DUP5 DUP3 DUP6 ADD PUSH2 0x1D05 JUMP JUMPDEST SWAP2 POP POP SWAP3 SWAP2 POP POP JUMP JUMPDEST PUSH1 0x0 DUP3 DUP3 MSTORE PUSH1 0x20 DUP3 ADD SWAP1 POP SWAP3 SWAP2 POP POP JUMP JUMPDEST PUSH32 0x4F776E61626C653A2063616C6C6572206973206E6F7420746865206F776E6572 PUSH1 0x0 DUP3 ADD MSTORE POP JUMP JUMPDEST PUSH1 0x0 PUSH2 0x1ED9 PUSH1 0x20 DUP4 PUSH2 0x1E92 JUMP JUMPDEST SWAP2 POP PUSH2 0x1EE4 DUP3 PUSH2 0x1EA3 JUMP JUMPDEST PUSH1 0x20 DUP3 ADD SWAP1 POP SWAP2 SWAP1 POP JUMP JUMPDEST PUSH1 0x0 PUSH1 0x20 DUP3 ADD SWAP1 POP DUP2 DUP2 SUB PUSH1 0x0 DUP4 ADD MSTORE PUSH2 0x1F08 DUP2 PUSH2 0x1ECC JUMP JUMPDEST SWAP1 POP SWAP2 SWAP1 POP JUMP JUMPDEST PUSH32 0x4E487B7100000000000000000000000000000000000000000000000000000000 PUSH1 0x0 MSTORE PUSH1 0x11 PUSH1 0x4 MSTORE PUSH1 0x24 PUSH1 0x0 REVERT JUMPDEST PUSH1 0x0 PUSH2 0x1F49 DUP3 PUSH2 0x187A JUMP JUMPDEST SWAP2 POP PUSH2 0x1F54 DUP4 PUSH2 0x187A JUMP JUMPDEST SWAP3 POP DUP2 PUSH32 0xFFFFFFFFFFFFFFFFFFFFFFFFFFFFFFFFFFFFFFFFFFFFFFFFFFFFFFFFFFFFFFFF DIV DUP4 GT DUP3 ISZERO ISZERO AND ISZERO PUSH2 0x1F8D JUMPI PUSH2 0x1F8C PUSH2 0x1F0F JUMP JUMPDEST JUMPDEST DUP3 DUP3 MUL SWAP1 POP SWAP3 SWAP2 POP POP JUMP JUMPDEST PUSH1 0x0 DUP1 REVERT JUMPDEST PUSH1 0x0 PUSH2 0x1FA8 DUP3 PUSH2 0x180F JUMP JUMPDEST SWAP1 POP SWAP2 SWAP1 POP JUMP JUMPDEST PUSH2 0x1FB8 DUP2 PUSH2 0x1F9D JUMP JUMPDEST DUP2 EQ PUSH2 0x1FC3 JUMPI PUSH1 0x0 DUP1 REVERT JUMPDEST POP JUMP JUMPDEST PUSH1 0x0 DUP2 MLOAD SWAP1 POP PUSH2 0x1FD5 DUP2 PUSH2 0x1FAF JUMP JUMPDEST SWAP3 SWAP2 POP POP JUMP JUMPDEST PUSH1 0x0 PUSH1 0xC0 DUP3 DUP5 SUB SLT ISZERO PUSH2 0x1FF1 JUMPI PUSH2 0x1FF0 PUSH2 0x1F98 JUMP JUMPDEST JUMPDEST PUSH2 0x1FFB PUSH1 0xC0 PUSH2 0x1CB9 JUMP JUMPDEST SWAP1 POP PUSH1 0x0 PUSH2 0x200B DUP5 DUP3 DUP6 ADD PUSH2 0x1E23 JUMP JUMPDEST PUSH1 0x0 DUP4 ADD MSTORE POP PUSH1 0x20 PUSH2 0x201F DUP5 DUP3 DUP6 ADD PUSH2 0x1D05 JUMP JUMPDEST PUSH1 0x20 DUP4 ADD MSTORE POP PUSH1 0x40 PUSH2 0x2033 DUP5 DUP3 DUP6 ADD PUSH2 0x1D05 JUMP JUMPDEST PUSH1 0x40 DUP4 ADD MSTORE POP PUSH1 0x60 PUSH2 0x2047 DUP5 DUP3 DUP6 ADD PUSH2 0x1D05 JUMP JUMPDEST PUSH1 0x60 DUP4 ADD MSTORE POP PUSH1 0x80 PUSH2 0x205B DUP5 DUP3 DUP6 ADD PUSH2 0x1FC6 JUMP JUMPDEST PUSH1 0x80 DUP4 ADD MSTORE POP PUSH1 0xA0 PUSH2 0x206F DUP5 DUP3 DUP6 ADD PUSH2 0x1E23 JUMP JUMPDEST PUSH1 0xA0 DUP4 ADD MSTORE POP SWAP3 SWAP2 POP POP JUMP JUMPDEST PUSH1 0x0 PUSH1 0xC0 DUP3 DUP5 SUB SLT ISZERO PUSH2 0x2091 JUMPI PUSH2 0x2090 PUSH2 0x17E5 JUMP JUMPDEST JUMPDEST PUSH1 0x0 PUSH2 0x209F DUP5 DUP3 DUP6 ADD PUSH2 0x1FDB JUMP JUMPDEST SWAP2 POP POP SWAP3 SWAP2 POP POP JUMP JUMPDEST PUSH1 0x0 DUP2 MLOAD SWAP1 POP PUSH2 0x20B7 DUP2 PUSH2 0x1821 JUMP JUMPDEST SWAP3 SWAP2 POP POP JUMP JUMPDEST PUSH1 0x0 PUSH1 0x20 DUP3 DUP5 SUB SLT ISZERO PUSH2 0x20D3 JUMPI PUSH2 0x20D2 PUSH2 0x17E5 JUMP JUMPDEST JUMPDEST PUSH1 0x0 PUSH2 0x20E1 DUP5 DUP3 DUP6 ADD PUSH2 0x20A8 JUMP JUMPDEST SWAP2 POP POP SWAP3 SWAP2 POP POP JUMP JUMPDEST PUSH32 0x4F776E61626C653A206E6577206F776E657220697320746865207A65726F2061 PUSH1 0x0 DUP3 ADD MSTORE PUSH32 0x6464726573730000000000000000000000000000000000000000000000000000 PUSH1 0x20 DUP3 ADD MSTORE POP JUMP JUMPDEST PUSH1 0x0 PUSH2 0x2146 PUSH1 0x26 DUP4 PUSH2 0x1E92 JUMP JUMPDEST SWAP2 POP PUSH2 0x2151 DUP3 PUSH2 0x20EA JUMP JUMPDEST PUSH1 0x40 DUP3 ADD SWAP1 POP SWAP2 SWAP1 POP JUMP JUMPDEST PUSH1 0x0 PUSH1 0x20 DUP3 ADD SWAP1 POP DUP2 DUP2 SUB PUSH1 0x0 DUP4 ADD MSTORE PUSH2 0x2175 DUP2 PUSH2 0x2139 JUMP JUMPDEST SWAP1 POP SWAP2 SWAP1 POP JUMP JUMPDEST PUSH32 0x4E487B7100000000000000000000000000000000000000000000000000000000 PUSH1 0x0 MSTORE PUSH1 0x12 PUSH1 0x4 MSTORE PUSH1 0x24 PUSH1 0x0 REVERT JUMPDEST PUSH1 0x0 PUSH2 0x21B6 DUP3 PUSH2 0x187A JUMP JUMPDEST SWAP2 POP PUSH2 0x21C1 DUP4 PUSH2 0x187A JUMP JUMPDEST SWAP3 POP DUP3 PUSH2 0x21D1 JUMPI PUSH2 0x21D0 PUSH2 0x217C JUMP JUMPDEST JUMPDEST DUP3 DUP3 DIV SWAP1 POP SWAP3 SWAP2 POP POP JUMP JUMPDEST PUSH32 0x536166654D6174683A206D756C7469706C69636174696F6E206F766572666C6F PUSH1 0x0 DUP3 ADD MSTORE PUSH32 0x7700000000000000000000000000000000000000000000000000000000000000 PUSH1 0x20 DUP3 ADD MSTORE POP JUMP JUMPDEST PUSH1 0x0 PUSH2 0x2238 PUSH1 0x21 DUP4 PUSH2 0x1E92 JUMP JUMPDEST SWAP2 POP PUSH2 0x2243 DUP3 PUSH2 0x21DC JUMP JUMPDEST PUSH1 0x40 DUP3 ADD SWAP1 POP SWAP2 SWAP1 POP JUMP JUMPDEST PUSH1 0x0 PUSH1 0x20 DUP3 ADD SWAP1 POP DUP2 DUP2 SUB PUSH1 0x0 DUP4 ADD MSTORE PUSH2 0x2267 DUP2 PUSH2 0x222B JUMP JUMPDEST SWAP1 POP SWAP2 SWAP1 POP JUMP JUMPDEST PUSH1 0x0 PUSH2 0x2279 DUP3 PUSH2 0x187A JUMP JUMPDEST SWAP2 POP PUSH2 0x2284 DUP4 PUSH2 0x187A JUMP JUMPDEST SWAP3 POP DUP3 PUSH32 0xFFFFFFFFFFFFFFFFFFFFFFFFFFFFFFFFFFFFFFFFFFFFFFFFFFFFFFFFFFFFFFFF SUB DUP3 GT ISZERO PUSH2 0x22B9 JUMPI PUSH2 0x22B8 PUSH2 0x1F0F JUMP JUMPDEST JUMPDEST DUP3 DUP3 ADD SWAP1 POP SWAP3 SWAP2 POP POP JUMP JUMPDEST PUSH32 0x536166654D6174683A206164646974696F6E206F766572666C6F770000000000 PUSH1 0x0 DUP3 ADD MSTORE POP JUMP JUMPDEST PUSH1 0x0 PUSH2 0x22FA PUSH1 0x1B DUP4 PUSH2 0x1E92 JUMP JUMPDEST SWAP2 POP PUSH2 0x2305 DUP3 PUSH2 0x22C4 JUMP JUMPDEST PUSH1 0x20 DUP3 ADD SWAP1 POP SWAP2 SWAP1 POP JUMP JUMPDEST PUSH1 0x0 PUSH1 0x20 DUP3 ADD SWAP1 POP DUP2 DUP2 SUB PUSH1 0x0 DUP4 ADD MSTORE PUSH2 0x2329 DUP2 PUSH2 0x22ED JUMP JUMPDEST SWAP1 POP SWAP2 SWAP1 POP JUMP JUMPDEST PUSH1 0x0 DUP2 MLOAD SWAP1 POP SWAP2 SWAP1 POP JUMP JUMPDEST PUSH1 0x0 JUMPDEST DUP4 DUP2 LT ISZERO PUSH2 0x2359 JUMPI DUP1 DUP3 ADD MLOAD DUP2 DUP5 ADD MSTORE PUSH1 0x20 DUP2 ADD SWAP1 POP PUSH2 0x233E JUMP JUMPDEST DUP4 DUP2 GT ISZERO PUSH2 0x2368 JUMPI PUSH1 0x0 DUP5 DUP5 ADD MSTORE JUMPDEST POP POP POP POP JUMP JUMPDEST PUSH1 0x0 PUSH2 0x2379 DUP3 PUSH2 0x2330 JUMP JUMPDEST PUSH2 0x2383 DUP2 DUP6 PUSH2 0x1E92 JUMP JUMPDEST SWAP4 POP PUSH2 0x2393 DUP2 DUP6 PUSH1 0x20 DUP7 ADD PUSH2 0x233B JUMP JUMPDEST PUSH2 0x239C DUP2 PUSH2 0x1C77 JUMP JUMPDEST DUP5 ADD SWAP2 POP POP SWAP3 SWAP2 POP POP JUMP JUMPDEST PUSH1 0x0 PUSH1 0x20 DUP3 ADD SWAP1 POP DUP2 DUP2 SUB PUSH1 0x0 DUP4 ADD MSTORE PUSH2 0x23C1 DUP2 DUP5 PUSH2 0x236E JUMP JUMPDEST SWAP1 POP SWAP3 SWAP2 POP POP JUMP INVALID LOG2 PUSH5 0x6970667358 0x22 SLT KECCAK256 0xF PUSH18 0xE76838A0CC4A106E5DB61A9FBF4B38803FE5 MSIZE 0xE3 JUMPDEST 0xC2 0x2B DUP5 0x2F 0x4A CHAINID DUP3 SIGNEXTEND PUSH19 0x64736F6C634300080F00330000000000000000 "
				},
				"gasEstimates": {
					"creation": {
						"codeDepositCost": "1843000",
						"executionCost": "infinite",
						"totalCost": "infinite"
					},
					"external": {
						"BUSD()": "2603",
						"CalcApy(uint256,address,uint256,address)": "infinite",
						"CalcLpPrice(address)": "infinite",
						"CalcTotalTVL(address)": "709",
						"Tokenprice(address)": "infinite",
						"WBNB()": "2581",
						"WBNBPrice(address)": "infinite",
						"calcPoolTVLInUSD(uint256,address,uint256,address)": "infinite",
						"owner()": "2567",
						"renounceOwnership()": "30485",
						"routerAddress()": "infinite",
						"setRouter(address)": "27027",
						"transferOwnership(address)": "30808"
					}
				},
				"methodIdentifiers": {
					"BUSD()": "484f4ea9",
					"CalcApy(uint256,address,uint256,address)": "dbb79348",
					"CalcLpPrice(address)": "215cc989",
					"CalcTotalTVL(address)": "81c7f1fc",
					"Tokenprice(address)": "19047f8a",
					"WBNB()": "8dd95002",
					"WBNBPrice(address)": "3b979d45",
					"calcPoolTVLInUSD(uint256,address,uint256,address)": "d979fb5f",
					"owner()": "8da5cb5b",
					"renounceOwnership()": "715018a6",
					"routerAddress()": "3268cc56",
					"setRouter(address)": "c0d78655",
					"transferOwnership(address)": "f2fde38b"
				}
			},
			"storageLayout": {
				"storage": [
					{
						"astId": 509,
						"contract": "contracts/Utils.sol:Utils",
						"label": "_owner",
						"offset": 0,
						"slot": "0",
						"type": "t_address"
					},
					{
						"astId": 757,
						"contract": "contracts/Utils.sol:Utils",
						"label": "WBNB",
						"offset": 0,
						"slot": "1",
						"type": "t_address"
					},
					{
						"astId": 759,
						"contract": "contracts/Utils.sol:Utils",
						"label": "BUSD",
						"offset": 0,
						"slot": "2",
						"type": "t_address"
					},
					{
						"astId": 762,
						"contract": "contracts/Utils.sol:Utils",
						"label": "amount",
						"offset": 0,
						"slot": "3",
						"type": "t_uint256"
					},
					{
						"astId": 765,
						"contract": "contracts/Utils.sol:Utils",
						"label": "routerAddress",
						"offset": 0,
						"slot": "4",
						"type": "t_contract(Router)644"
					},
					{
						"astId": 768,
						"contract": "contracts/Utils.sol:Utils",
						"label": "BLOCKS_PER_YEAR",
						"offset": 0,
						"slot": "5",
						"type": "t_uint256"
					}
				],
				"types": {
					"t_address": {
						"encoding": "inplace",
						"label": "address",
						"numberOfBytes": "20"
					},
					"t_contract(Router)644": {
						"encoding": "inplace",
						"label": "contract Router",
						"numberOfBytes": "20"
					},
					"t_uint256": {
						"encoding": "inplace",
						"label": "uint256",
						"numberOfBytes": "32"
					}
				}
			},
			"userdoc": {
				"kind": "user",
				"methods": {},
				"version": 1
			}
		}
	}
}