{
	"contracts/BSWRoken.sol": {
		"BSWToken": {
			"abi": [
				{
					"anonymous": false,
					"inputs": [
						{
							"indexed": true,
							"internalType": "address",
							"name": "owner",
							"type": "address"
						},
						{
							"indexed": true,
							"internalType": "address",
							"name": "spender",
							"type": "address"
						},
						{
							"indexed": false,
							"internalType": "uint256",
							"name": "value",
							"type": "uint256"
						}
					],
					"name": "Approval",
					"type": "event"
				},
				{
					"anonymous": false,
					"inputs": [
						{
							"indexed": true,
							"internalType": "address",
							"name": "delegator",
							"type": "address"
						},
						{
							"indexed": true,
							"internalType": "address",
							"name": "fromDelegate",
							"type": "address"
						},
						{
							"indexed": true,
							"internalType": "address",
							"name": "toDelegate",
							"type": "address"
						}
					],
					"name": "DelegateChanged",
					"type": "event"
				},
				{
					"anonymous": false,
					"inputs": [
						{
							"indexed": true,
							"internalType": "address",
							"name": "delegate",
							"type": "address"
						},
						{
							"indexed": false,
							"internalType": "uint256",
							"name": "previousBalance",
							"type": "uint256"
						},
						{
							"indexed": false,
							"internalType": "uint256",
							"name": "newBalance",
							"type": "uint256"
						}
					],
					"name": "DelegateVotesChanged",
					"type": "event"
				},
				{
					"anonymous": false,
					"inputs": [
						{
							"indexed": true,
							"internalType": "address",
							"name": "previousOwner",
							"type": "address"
						},
						{
							"indexed": true,
							"internalType": "address",
							"name": "newOwner",
							"type": "address"
						}
					],
					"name": "OwnershipTransferred",
					"type": "event"
				},
				{
					"anonymous": false,
					"inputs": [
						{
							"indexed": true,
							"internalType": "address",
							"name": "from",
							"type": "address"
						},
						{
							"indexed": true,
							"internalType": "address",
							"name": "to",
							"type": "address"
						},
						{
							"indexed": false,
							"internalType": "uint256",
							"name": "value",
							"type": "uint256"
						}
					],
					"name": "Transfer",
					"type": "event"
				},
				{
					"inputs": [],
					"name": "DELEGATION_TYPEHASH",
					"outputs": [
						{
							"internalType": "bytes32",
							"name": "",
							"type": "bytes32"
						}
					],
					"stateMutability": "view",
					"type": "function"
				},
				{
					"inputs": [],
					"name": "DOMAIN_TYPEHASH",
					"outputs": [
						{
							"internalType": "bytes32",
							"name": "",
							"type": "bytes32"
						}
					],
					"stateMutability": "view",
					"type": "function"
				},
				{
					"inputs": [
						{
							"internalType": "address",
							"name": "_addMinter",
							"type": "address"
						}
					],
					"name": "addMinter",
					"outputs": [
						{
							"internalType": "bool",
							"name": "",
							"type": "bool"
						}
					],
					"stateMutability": "nonpayable",
					"type": "function"
				},
				{
					"inputs": [
						{
							"internalType": "address",
							"name": "owner",
							"type": "address"
						},
						{
							"internalType": "address",
							"name": "spender",
							"type": "address"
						}
					],
					"name": "allowance",
					"outputs": [
						{
							"internalType": "uint256",
							"name": "",
							"type": "uint256"
						}
					],
					"stateMutability": "view",
					"type": "function"
				},
				{
					"inputs": [
						{
							"internalType": "address",
							"name": "spender",
							"type": "address"
						},
						{
							"internalType": "uint256",
							"name": "amount",
							"type": "uint256"
						}
					],
					"name": "approve",
					"outputs": [
						{
							"internalType": "bool",
							"name": "",
							"type": "bool"
						}
					],
					"stateMutability": "nonpayable",
					"type": "function"
				},
				{
					"inputs": [
						{
							"internalType": "address",
							"name": "account",
							"type": "address"
						}
					],
					"name": "balanceOf",
					"outputs": [
						{
							"internalType": "uint256",
							"name": "",
							"type": "uint256"
						}
					],
					"stateMutability": "view",
					"type": "function"
				},
				{
					"inputs": [
						{
							"internalType": "address",
							"name": "",
							"type": "address"
						},
						{
							"internalType": "uint32",
							"name": "",
							"type": "uint32"
						}
					],
					"name": "checkpoints",
					"outputs": [
						{
							"internalType": "uint32",
							"name": "fromBlock",
							"type": "uint32"
						},
						{
							"internalType": "uint256",
							"name": "votes",
							"type": "uint256"
						}
					],
					"stateMutability": "view",
					"type": "function"
				},
				{
					"inputs": [],
					"name": "decimals",
					"outputs": [
						{
							"internalType": "uint8",
							"name": "",
							"type": "uint8"
						}
					],
					"stateMutability": "view",
					"type": "function"
				},
				{
					"inputs": [
						{
							"internalType": "address",
							"name": "spender",
							"type": "address"
						},
						{
							"internalType": "uint256",
							"name": "subtractedValue",
							"type": "uint256"
						}
					],
					"name": "decreaseAllowance",
					"outputs": [
						{
							"internalType": "bool",
							"name": "",
							"type": "bool"
						}
					],
					"stateMutability": "nonpayable",
					"type": "function"
				},
				{
					"inputs": [
						{
							"internalType": "address",
							"name": "_delMinter",
							"type": "address"
						}
					],
					"name": "delMinter",
					"outputs": [
						{
							"internalType": "bool",
							"name": "",
							"type": "bool"
						}
					],
					"stateMutability": "nonpayable",
					"type": "function"
				},
				{
					"inputs": [
						{
							"internalType": "address",
							"name": "delegatee",
							"type": "address"
						}
					],
					"name": "delegate",
					"outputs": [],
					"stateMutability": "nonpayable",
					"type": "function"
				},
				{
					"inputs": [
						{
							"internalType": "address",
							"name": "delegatee",
							"type": "address"
						},
						{
							"internalType": "uint256",
							"name": "nonce",
							"type": "uint256"
						},
						{
							"internalType": "uint256",
							"name": "expiry",
							"type": "uint256"
						},
						{
							"internalType": "uint8",
							"name": "v",
							"type": "uint8"
						},
						{
							"internalType": "bytes32",
							"name": "r",
							"type": "bytes32"
						},
						{
							"internalType": "bytes32",
							"name": "s",
							"type": "bytes32"
						}
					],
					"name": "delegateBySig",
					"outputs": [],
					"stateMutability": "nonpayable",
					"type": "function"
				},
				{
					"inputs": [
						{
							"internalType": "address",
							"name": "delegator",
							"type": "address"
						}
					],
					"name": "delegates",
					"outputs": [
						{
							"internalType": "address",
							"name": "",
							"type": "address"
						}
					],
					"stateMutability": "view",
					"type": "function"
				},
				{
					"inputs": [
						{
							"internalType": "address",
							"name": "account",
							"type": "address"
						}
					],
					"name": "getCurrentVotes",
					"outputs": [
						{
							"internalType": "uint256",
							"name": "",
							"type": "uint256"
						}
					],
					"stateMutability": "view",
					"type": "function"
				},
				{
					"inputs": [
						{
							"internalType": "uint256",
							"name": "_index",
							"type": "uint256"
						}
					],
					"name": "getMinter",
					"outputs": [
						{
							"internalType": "address",
							"name": "",
							"type": "address"
						}
					],
					"stateMutability": "view",
					"type": "function"
				},
				{
					"inputs": [],
					"name": "getMinterLength",
					"outputs": [
						{
							"internalType": "uint256",
							"name": "",
							"type": "uint256"
						}
					],
					"stateMutability": "view",
					"type": "function"
				},
				{
					"inputs": [],
					"name": "getOwner",
					"outputs": [
						{
							"internalType": "address",
							"name": "",
							"type": "address"
						}
					],
					"stateMutability": "view",
					"type": "function"
				},
				{
					"inputs": [
						{
							"internalType": "address",
							"name": "account",
							"type": "address"
						},
						{
							"internalType": "uint256",
							"name": "blockNumber",
							"type": "uint256"
						}
					],
					"name": "getPriorVotes",
					"outputs": [
						{
							"internalType": "uint256",
							"name": "",
							"type": "uint256"
						}
					],
					"stateMutability": "view",
					"type": "function"
				},
				{
					"inputs": [
						{
							"internalType": "address",
							"name": "spender",
							"type": "address"
						},
						{
							"internalType": "uint256",
							"name": "addedValue",
							"type": "uint256"
						}
					],
					"name": "increaseAllowance",
					"outputs": [
						{
							"internalType": "bool",
							"name": "",
							"type": "bool"
						}
					],
					"stateMutability": "nonpayable",
					"type": "function"
				},
				{
					"inputs": [
						{
							"internalType": "address",
							"name": "account",
							"type": "address"
						}
					],
					"name": "isMinter",
					"outputs": [
						{
							"internalType": "bool",
							"name": "",
							"type": "bool"
						}
					],
					"stateMutability": "view",
					"type": "function"
				},
				{
					"inputs": [],
					"name": "maxSupply",
					"outputs": [
						{
							"internalType": "uint256",
							"name": "",
							"type": "uint256"
						}
					],
					"stateMutability": "view",
					"type": "function"
				},
				{
					"inputs": [
						{
							"internalType": "address",
							"name": "_to",
							"type": "address"
						},
						{
							"internalType": "uint256",
							"name": "_amount",
							"type": "uint256"
						}
					],
					"name": "mint",
					"outputs": [
						{
							"internalType": "bool",
							"name": "",
							"type": "bool"
						}
					],
					"stateMutability": "nonpayable",
					"type": "function"
				},
				{
					"inputs": [
						{
							"internalType": "uint256",
							"name": "amount",
							"type": "uint256"
						}
					],
					"name": "mint",
					"outputs": [
						{
							"internalType": "bool",
							"name": "",
							"type": "bool"
						}
					],
					"stateMutability": "nonpayable",
					"type": "function"
				},
				{
					"inputs": [],
					"name": "name",
					"outputs": [
						{
							"internalType": "string",
							"name": "",
							"type": "string"
						}
					],
					"stateMutability": "view",
					"type": "function"
				},
				{
					"inputs": [
						{
							"internalType": "address",
							"name": "",
							"type": "address"
						}
					],
					"name": "nonces",
					"outputs": [
						{
							"internalType": "uint256",
							"name": "",
							"type": "uint256"
						}
					],
					"stateMutability": "view",
					"type": "function"
				},
				{
					"inputs": [
						{
							"internalType": "address",
							"name": "",
							"type": "address"
						}
					],
					"name": "numCheckpoints",
					"outputs": [
						{
							"internalType": "uint32",
							"name": "",
							"type": "uint32"
						}
					],
					"stateMutability": "view",
					"type": "function"
				},
				{
					"inputs": [],
					"name": "owner",
					"outputs": [
						{
							"internalType": "address",
							"name": "",
							"type": "address"
						}
					],
					"stateMutability": "view",
					"type": "function"
				},
				{
					"inputs": [],
					"name": "preMineSupply",
					"outputs": [
						{
							"internalType": "uint256",
							"name": "",
							"type": "uint256"
						}
					],
					"stateMutability": "view",
					"type": "function"
				},
				{
					"inputs": [],
					"name": "renounceOwnership",
					"outputs": [],
					"stateMutability": "nonpayable",
					"type": "function"
				},
				{
					"inputs": [],
					"name": "symbol",
					"outputs": [
						{
							"internalType": "string",
							"name": "",
							"type": "string"
						}
					],
					"stateMutability": "view",
					"type": "function"
				},
				{
					"inputs": [],
					"name": "totalSupply",
					"outputs": [
						{
							"internalType": "uint256",
							"name": "",
							"type": "uint256"
						}
					],
					"stateMutability": "view",
					"type": "function"
				},
				{
					"inputs": [
						{
							"internalType": "address",
							"name": "recipient",
							"type": "address"
						},
						{
							"internalType": "uint256",
							"name": "amount",
							"type": "uint256"
						}
					],
					"name": "transfer",
					"outputs": [
						{
							"internalType": "bool",
							"name": "",
							"type": "bool"
						}
					],
					"stateMutability": "nonpayable",
					"type": "function"
				},
				{
					"inputs": [
						{
							"internalType": "address",
							"name": "sender",
							"type": "address"
						},
						{
							"internalType": "address",
							"name": "recipient",
							"type": "address"
						},
						{
							"internalType": "uint256",
							"name": "amount",
							"type": "uint256"
						}
					],
					"name": "transferFrom",
					"outputs": [
						{
							"internalType": "bool",
							"name": "",
							"type": "bool"
						}
					],
					"stateMutability": "nonpayable",
					"type": "function"
				},
				{
					"inputs": [
						{
							"internalType": "address",
							"name": "newOwner",
							"type": "address"
						}
					],
					"name": "transferOwnership",
					"outputs": [],
					"stateMutability": "nonpayable",
					"type": "function"
				}
			],
			"devdoc": {
				"kind": "dev",
				"methods": {
					"allowance(address,address)": {
						"details": "See {BEP20-allowance}."
					},
					"approve(address,uint256)": {
						"details": "See {BEP20-approve}. Requirements: - `spender` cannot be the zero address."
					},
					"balanceOf(address)": {
						"details": "See {BEP20-balanceOf}."
					},
					"decimals()": {
						"details": "Returns the token decimals."
					},
					"decreaseAllowance(address,uint256)": {
						"details": "Atomically decreases the allowance granted to `spender` by the caller. This is an alternative to {approve} that can be used as a mitigation for problems described in {BEP20-approve}. Emits an {Approval} event indicating the updated allowance. Requirements: - `spender` cannot be the zero address. - `spender` must have allowance for the caller of at least `subtractedValue`."
					},
					"delegate(address)": {
						"params": {
							"delegatee": "The address to delegate votes to"
						}
					},
					"delegateBySig(address,uint256,uint256,uint8,bytes32,bytes32)": {
						"params": {
							"delegatee": "The address to delegate votes to",
							"expiry": "The time at which to expire the signature",
							"nonce": "The contract state required to match the signature",
							"r": "Half of the ECDSA signature pair",
							"s": "Half of the ECDSA signature pair",
							"v": "The recovery byte of the signature"
						}
					},
					"delegates(address)": {
						"params": {
							"delegator": "The address to get delegatee for"
						}
					},
					"getCurrentVotes(address)": {
						"params": {
							"account": "The address to get votes balance"
						},
						"returns": {
							"_0": "The number of current votes for `account`"
						}
					},
					"getOwner()": {
						"details": "Returns the bep token owner."
					},
					"getPriorVotes(address,uint256)": {
						"details": "Block number must be a finalized block or else this function will revert to prevent misinformation.",
						"params": {
							"account": "The address of the account to check",
							"blockNumber": "The block number to get the vote balance at"
						},
						"returns": {
							"_0": "The number of votes the account had as of the given block"
						}
					},
					"increaseAllowance(address,uint256)": {
						"details": "Atomically increases the allowance granted to `spender` by the caller. This is an alternative to {approve} that can be used as a mitigation for problems described in {BEP20-approve}. Emits an {Approval} event indicating the updated allowance. Requirements: - `spender` cannot be the zero address."
					},
					"mint(uint256)": {
						"details": "Creates `amount` tokens and assigns them to `msg.sender`, increasing the total supply. Requirements - `msg.sender` must be the token owner"
					},
					"name()": {
						"details": "Returns the token name."
					},
					"owner()": {
						"details": "Returns the address of the current owner."
					},
					"renounceOwnership()": {
						"details": "Leaves the contract without owner. It will not be possible to call `onlyOwner` functions anymore. Can only be called by the current owner. NOTE: Renouncing ownership will leave the contract without an owner, thereby removing any functionality that is only available to the owner."
					},
					"symbol()": {
						"details": "Returns the token symbol."
					},
					"totalSupply()": {
						"details": "See {BEP20-totalSupply}."
					},
					"transfer(address,uint256)": {
						"details": "See {BEP20-transfer}. Requirements: - `recipient` cannot be the zero address. - the caller must have a balance of at least `amount`."
					},
					"transferFrom(address,address,uint256)": {
						"details": "See {BEP20-transferFrom}. Emits an {Approval} event indicating the updated allowance. This is not required by the EIP. See the note at the beginning of {BEP20}; Requirements: - `sender` and `recipient` cannot be the zero address. - `sender` must have a balance of at least `amount`. - the caller must have allowance for `sender`'s tokens of at least `amount`."
					},
					"transferOwnership(address)": {
						"details": "Transfers ownership of the contract to a new account (`newOwner`). Can only be called by the current owner."
					}
				},
				"version": 1
			},
			"evm": {
				"assembly": "    /* \"contracts/BSWRoken.sol\":34123:44210  contract BSWToken is BEP20('Biswap', 'BSW') {\r... */\n  mstore(0x40, 0x80)\n  callvalue\n  dup1\n  iszero\n  tag_1\n  jumpi\n  0x00\n  dup1\n  revert\ntag_1:\n  pop\n    /* \"contracts/BSWRoken.sol\":18190:18380  constructor(string memory name, string memory symbol) public {\r... */\n  mload(0x40)\n  dup1\n  0x40\n  add\n  0x40\n  mstore\n  dup1\n  0x06\n  dup2\n  mstore\n  0x20\n  add\n  0x4269737761700000000000000000000000000000000000000000000000000000\n  dup2\n  mstore\n  pop\n  mload(0x40)\n  dup1\n  0x40\n  add\n  0x40\n  mstore\n  dup1\n  0x03\n  dup2\n  mstore\n  0x20\n  add\n  0x4253570000000000000000000000000000000000000000000000000000000000\n  dup2\n  mstore\n  pop\n    /* \"contracts/BSWRoken.sol\":869:886  address msgSender */\n  0x00\n    /* \"contracts/BSWRoken.sol\":889:901  _msgSender() */\n  tag_7\n    /* \"contracts/BSWRoken.sol\":889:899  _msgSender */\n  shl(0x20, tag_8)\n    /* \"contracts/BSWRoken.sol\":889:901  _msgSender() */\n  0x20\n  shr\n  jump\t// in\ntag_7:\n    /* \"contracts/BSWRoken.sol\":869:901  address msgSender = _msgSender() */\n  swap1\n  pop\n    /* \"contracts/BSWRoken.sol\":921:930  msgSender */\n  dup1\n    /* \"contracts/BSWRoken.sol\":912:918  _owner */\n  0x00\n  dup1\n    /* \"contracts/BSWRoken.sol\":912:930  _owner = msgSender */\n  0x0100\n  exp\n  dup2\n  sload\n  dup2\n  0xffffffffffffffffffffffffffffffffffffffff\n  mul\n  not\n  and\n  swap1\n  dup4\n  0xffffffffffffffffffffffffffffffffffffffff\n  and\n  mul\n  or\n  swap1\n  sstore\n  pop\n    /* \"contracts/BSWRoken.sol\":979:988  msgSender */\n  dup1\n    /* \"contracts/BSWRoken.sol\":946:989  OwnershipTransferred(address(0), msgSender) */\n  0xffffffffffffffffffffffffffffffffffffffff\n  and\n    /* \"contracts/BSWRoken.sol\":975:976  0 */\n  0x00\n    /* \"contracts/BSWRoken.sol\":946:989  OwnershipTransferred(address(0), msgSender) */\n  0xffffffffffffffffffffffffffffffffffffffff\n  and\n  0x8be0079c531659141344cd1fd0a4f28419497f9722a3daafe3b4186f6b6457e0\n  mload(0x40)\n  mload(0x40)\n  dup1\n  swap2\n  sub\n  swap1\n  log3\n    /* \"contracts/BSWRoken.sol\":835:997  constructor() internal {\r... */\n  pop\n    /* \"contracts/BSWRoken.sol\":18270:18274  name */\n  dup2\n    /* \"contracts/BSWRoken.sol\":18262:18267  _name */\n  0x04\n    /* \"contracts/BSWRoken.sol\":18262:18274  _name = name */\n  swap1\n  dup1\n  mload\n  swap1\n  0x20\n  add\n  swap1\n  tag_10\n  swap3\n  swap2\n  swap1\n  tag_11\n  jump\t// in\ntag_10:\n  pop\n    /* \"contracts/BSWRoken.sol\":18295:18301  symbol */\n  dup1\n    /* \"contracts/BSWRoken.sol\":18285:18292  _symbol */\n  0x05\n    /* \"contracts/BSWRoken.sol\":18285:18301  _symbol = symbol */\n  swap1\n  dup1\n  mload\n  swap1\n  0x20\n  add\n  swap1\n  tag_12\n  swap3\n  swap2\n  swap1\n  tag_11\n  jump\t// in\ntag_12:\n  pop\n    /* \"contracts/BSWRoken.sol\":18324:18326  18 */\n  0x12\n    /* \"contracts/BSWRoken.sol\":18312:18321  _decimals */\n  0x06\n  0x00\n    /* \"contracts/BSWRoken.sol\":18312:18326  _decimals = 18 */\n  0x0100\n  exp\n  dup2\n  sload\n  dup2\n  0xff\n  mul\n  not\n  and\n  swap1\n  dup4\n  0xff\n  and\n  mul\n  or\n  swap1\n  sstore\n  pop\n    /* \"contracts/BSWRoken.sol\":18339:18372  _mint(msg.sender, _preMineSupply) */\n  tag_13\n    /* \"contracts/BSWRoken.sol\":18345:18355  msg.sender */\n  caller\n    /* \"contracts/BSWRoken.sol\":17457:17472  10000000 * 1e18 */\n  0x084595161401484a000000\n    /* \"contracts/BSWRoken.sol\":18339:18344  _mint */\n  shl(0x20, tag_14)\n    /* \"contracts/BSWRoken.sol\":18339:18372  _mint(msg.sender, _preMineSupply) */\n  0x20\n  shr\n  jump\t// in\ntag_13:\n  pop\n    /* \"contracts/BSWRoken.sol\":18190:18380  constructor(string memory name, string memory symbol) public {\r... */\n  pop\n  pop\n    /* \"contracts/BSWRoken.sol\":34123:44210  contract BSWToken is BEP20('Biswap', 'BSW') {\r... */\n  jump(tag_15)\n    /* \"contracts/BSWRoken.sol\":242:340  function _msgSender() internal view returns (address payable) {\r... */\ntag_8:\n    /* \"contracts/BSWRoken.sol\":287:302  address payable */\n  0x00\n    /* \"contracts/BSWRoken.sol\":322:332  msg.sender */\n  caller\n    /* \"contracts/BSWRoken.sol\":315:332  return msg.sender */\n  swap1\n  pop\n    /* \"contracts/BSWRoken.sol\":242:340  function _msgSender() internal view returns (address payable) {\r... */\n  swap1\n  jump\t// out\n    /* \"contracts/BSWRoken.sol\":24392:24806  function _mint(address account, uint256 amount) internal returns(bool) {\r... */\ntag_14:\n    /* \"contracts/BSWRoken.sol\":24457:24461  bool */\n  0x00\n    /* \"contracts/BSWRoken.sol\":24501:24502  0 */\n  dup1\n    /* \"contracts/BSWRoken.sol\":24482:24503  account != address(0) */\n  0xffffffffffffffffffffffffffffffffffffffff\n  and\n    /* \"contracts/BSWRoken.sol\":24482:24489  account */\n  dup4\n    /* \"contracts/BSWRoken.sol\":24482:24503  account != address(0) */\n  0xffffffffffffffffffffffffffffffffffffffff\n  and\n  eq\n  iszero\n    /* \"contracts/BSWRoken.sol\":24474:24539  require(account != address(0), 'BEP20: mint to the zero address') */\n  tag_18\n  jumpi\n  mload(0x40)\n  0x08c379a000000000000000000000000000000000000000000000000000000000\n  dup2\n  mstore\n  0x04\n  add\n  dup1\n  dup1\n  0x20\n  add\n  dup3\n  dup2\n  sub\n  dup3\n  mstore\n  0x1f\n  dup2\n  mstore\n  0x20\n  add\n  dup1\n  0x42455032303a206d696e7420746f20746865207a65726f206164647265737300\n  dup2\n  mstore\n  pop\n  0x20\n  add\n  swap2\n  pop\n  pop\n  mload(0x40)\n  dup1\n  swap2\n  sub\n  swap1\n  revert\ntag_18:\n    /* \"contracts/BSWRoken.sol\":17517:17533  700000000 * 1e18 */\n  0x024306c4097859c43c000000\n    /* \"contracts/BSWRoken.sol\":24554:24578  amount.add(_totalSupply) */\n  tag_19\n    /* \"contracts/BSWRoken.sol\":24565:24577  _totalSupply */\n  sload(0x03)\n    /* \"contracts/BSWRoken.sol\":24554:24560  amount */\n  dup5\n    /* \"contracts/BSWRoken.sol\":24554:24564  amount.add */\n  or(tag_0_142, shl(0x20, tag_20))\n  swap1\n    /* \"contracts/BSWRoken.sol\":24554:24578  amount.add(_totalSupply) */\n  swap2\n  swap1\n  0x20\n  shr\n  jump\t// in\ntag_19:\n    /* \"contracts/BSWRoken.sol\":24554:24591  amount.add(_totalSupply) > _maxSupply */\n  gt\n    /* \"contracts/BSWRoken.sol\":24550:24632  if (amount.add(_totalSupply) > _maxSupply) {\r... */\n  iszero\n  tag_21\n  jumpi\n    /* \"contracts/BSWRoken.sol\":24615:24620  false */\n  0x00\n    /* \"contracts/BSWRoken.sol\":24608:24620  return false */\n  swap1\n  pop\n  jump(tag_17)\n    /* \"contracts/BSWRoken.sol\":24550:24632  if (amount.add(_totalSupply) > _maxSupply) {\r... */\ntag_21:\n    /* \"contracts/BSWRoken.sol\":24659:24683  _totalSupply.add(amount) */\n  tag_22\n    /* \"contracts/BSWRoken.sol\":24676:24682  amount */\n  dup3\n    /* \"contracts/BSWRoken.sol\":24659:24671  _totalSupply */\n  sload(0x03)\n    /* \"contracts/BSWRoken.sol\":24659:24675  _totalSupply.add */\n  or(tag_0_142, shl(0x20, tag_20))\n  swap1\n    /* \"contracts/BSWRoken.sol\":24659:24683  _totalSupply.add(amount) */\n  swap2\n  swap1\n  0x20\n  shr\n  jump\t// in\ntag_22:\n    /* \"contracts/BSWRoken.sol\":24644:24656  _totalSupply */\n  0x03\n    /* \"contracts/BSWRoken.sol\":24644:24683  _totalSupply = _totalSupply.add(amount) */\n  dup2\n  swap1\n  sstore\n  pop\n    /* \"contracts/BSWRoken.sol\":24715:24745  _balances[account].add(amount) */\n  tag_23\n    /* \"contracts/BSWRoken.sol\":24738:24744  amount */\n  dup3\n    /* \"contracts/BSWRoken.sol\":24715:24724  _balances */\n  0x01\n    /* \"contracts/BSWRoken.sol\":24715:24733  _balances[account] */\n  0x00\n    /* \"contracts/BSWRoken.sol\":24725:24732  account */\n  dup7\n    /* \"contracts/BSWRoken.sol\":24715:24733  _balances[account] */\n  0xffffffffffffffffffffffffffffffffffffffff\n  and\n  0xffffffffffffffffffffffffffffffffffffffff\n  and\n  dup2\n  mstore\n  0x20\n  add\n  swap1\n  dup2\n  mstore\n  0x20\n  add\n  0x00\n  keccak256\n  sload\n    /* \"contracts/BSWRoken.sol\":24715:24737  _balances[account].add */\n  or(tag_0_142, shl(0x20, tag_20))\n  swap1\n    /* \"contracts/BSWRoken.sol\":24715:24745  _balances[account].add(amount) */\n  swap2\n  swap1\n  0x20\n  shr\n  jump\t// in\ntag_23:\n    /* \"contracts/BSWRoken.sol\":24694:24703  _balances */\n  0x01\n    /* \"contracts/BSWRoken.sol\":24694:24712  _balances[account] */\n  0x00\n    /* \"contracts/BSWRoken.sol\":24704:24711  account */\n  dup6\n    /* \"contracts/BSWRoken.sol\":24694:24712  _balances[account] */\n  0xffffffffffffffffffffffffffffffffffffffff\n  and\n  0xffffffffffffffffffffffffffffffffffffffff\n  and\n  dup2\n  mstore\n  0x20\n  add\n  swap1\n  dup2\n  mstore\n  0x20\n  add\n  0x00\n  keccak256\n    /* \"contracts/BSWRoken.sol\":24694:24745  _balances[account] = _balances[account].add(amount) */\n  dup2\n  swap1\n  sstore\n  pop\n    /* \"contracts/BSWRoken.sol\":24782:24789  account */\n  dup3\n    /* \"contracts/BSWRoken.sol\":24761:24798  Transfer(address(0), account, amount) */\n  0xffffffffffffffffffffffffffffffffffffffff\n  and\n    /* \"contracts/BSWRoken.sol\":24778:24779  0 */\n  0x00\n    /* \"contracts/BSWRoken.sol\":24761:24798  Transfer(address(0), account, amount) */\n  0xffffffffffffffffffffffffffffffffffffffff\n  and\n  0xddf252ad1be2c89b69c2b068fc378daa952ba7f163c4a11628f55a4df523b3ef\n    /* \"contracts/BSWRoken.sol\":24791:24797  amount */\n  dup5\n    /* \"contracts/BSWRoken.sol\":24761:24798  Transfer(address(0), account, amount) */\n  mload(0x40)\n  dup1\n  dup3\n  dup2\n  mstore\n  0x20\n  add\n  swap2\n  pop\n  pop\n  mload(0x40)\n  dup1\n  swap2\n  sub\n  swap1\n  log3\n    /* \"contracts/BSWRoken.sol\":24392:24806  function _mint(address account, uint256 amount) internal returns(bool) {\r... */\ntag_17:\n  swap3\n  swap2\n  pop\n  pop\n  jump\t// out\n    /* \"contracts/BSWRoken.sol\":6000:6181  function add(uint256 a, uint256 b) internal pure returns (uint256) {\r... */\ntag_20:\n    /* \"contracts/BSWRoken.sol\":6058:6065  uint256 */\n  0x00\n    /* \"contracts/BSWRoken.sol\":6078:6087  uint256 c */\n  dup1\n    /* \"contracts/BSWRoken.sol\":6094:6095  b */\n  dup3\n    /* \"contracts/BSWRoken.sol\":6090:6091  a */\n  dup5\n    /* \"contracts/BSWRoken.sol\":6090:6095  a + b */\n  add\n    /* \"contracts/BSWRoken.sol\":6078:6095  uint256 c = a + b */\n  swap1\n  pop\n    /* \"contracts/BSWRoken.sol\":6119:6120  a */\n  dup4\n    /* \"contracts/BSWRoken.sol\":6114:6115  c */\n  dup2\n    /* \"contracts/BSWRoken.sol\":6114:6120  c >= a */\n  lt\n  iszero\n    /* \"contracts/BSWRoken.sol\":6106:6152  require(c >= a, 'SafeMath: addition overflow') */\n  tag_25\n  jumpi\n  mload(0x40)\n  0x08c379a000000000000000000000000000000000000000000000000000000000\n  dup2\n  mstore\n  0x04\n  add\n  dup1\n  dup1\n  0x20\n  add\n  dup3\n  dup2\n  sub\n  dup3\n  mstore\n  0x1b\n  dup2\n  mstore\n  0x20\n  add\n  dup1\n  0x536166654d6174683a206164646974696f6e206f766572666c6f770000000000\n  dup2\n  mstore\n  pop\n  0x20\n  add\n  swap2\n  pop\n  pop\n  mload(0x40)\n  dup1\n  swap2\n  sub\n  swap1\n  revert\ntag_25:\n    /* \"contracts/BSWRoken.sol\":6172:6173  c */\n  dup1\n    /* \"contracts/BSWRoken.sol\":6165:6173  return c */\n  swap2\n  pop\n  pop\n    /* \"contracts/BSWRoken.sol\":6000:6181  function add(uint256 a, uint256 b) internal pure returns (uint256) {\r... */\n  swap3\n  swap2\n  pop\n  pop\n  jump\t// out\n    /* \"contracts/BSWRoken.sol\":34123:44210  contract BSWToken is BEP20('Biswap', 'BSW') {\r... */\ntag_11:\n  dup3\n  dup1\n  sload\n  0x01\n  dup2\n  0x01\n  and\n  iszero\n  0x0100\n  mul\n  sub\n  and\n  0x02\n  swap1\n  div\n  swap1\n  0x00\n  mstore\n  keccak256(0x00, 0x20)\n  swap1\n  0x1f\n  add\n  0x20\n  swap1\n  div\n  dup2\n  add\n  swap3\n  dup3\n  0x1f\n  lt\n  tag_27\n  jumpi\n  dup1\n  mload\n  not(0xff)\n  and\n  dup4\n  dup1\n  add\n  or\n  dup6\n  sstore\n  jump(tag_26)\ntag_27:\n  dup3\n  dup1\n  add\n  0x01\n  add\n  dup6\n  sstore\n  dup3\n  iszero\n  tag_26\n  jumpi\n  swap2\n  dup3\n  add\ntag_28:\n  dup3\n  dup2\n  gt\n  iszero\n  tag_29\n  jumpi\n  dup3\n  mload\n  dup3\n  sstore\n  swap2\n  0x20\n  add\n  swap2\n  swap1\n  0x01\n  add\n  swap1\n  jump(tag_28)\ntag_29:\ntag_26:\n  pop\n  swap1\n  pop\n  tag_30\n  swap2\n  swap1\n  tag_31\n  jump\t// in\ntag_30:\n  pop\n  swap1\n  jump\t// out\ntag_31:\ntag_32:\n  dup1\n  dup3\n  gt\n  iszero\n  tag_33\n  jumpi\n  0x00\n  dup2\n  0x00\n  swap1\n  sstore\n  pop\n  0x01\n  add\n  jump(tag_32)\ntag_33:\n  pop\n  swap1\n  jump\t// out\ntag_15:\n  dataSize(sub_0)\n  dup1\n  dataOffset(sub_0)\n  0x00\n  codecopy\n  0x00\n  return\nstop\n\nsub_0: assembly {\n        /* \"contracts/BSWRoken.sol\":34123:44210  contract BSWToken is BEP20('Biswap', 'BSW') {\r... */\n      mstore(0x40, 0x80)\n      callvalue\n      dup1\n      iszero\n      tag_1\n      jumpi\n      0x00\n      dup1\n      revert\n    tag_1:\n      pop\n      jumpi(tag_2, lt(calldatasize, 0x04))\n      shr(0xe0, calldataload(0x00))\n      dup1\n      0x782d6fe1\n      gt\n      tag_37\n      jumpi\n      dup1\n      0xa9059cbb\n      gt\n      tag_38\n      jumpi\n      dup1\n      0xd5abeb01\n      gt\n      tag_39\n      jumpi\n      dup1\n      0xd5abeb01\n      eq\n      tag_32\n      jumpi\n      dup1\n      0xdd62ed3e\n      eq\n      tag_33\n      jumpi\n      dup1\n      0xe7a324dc\n      eq\n      tag_34\n      jumpi\n      dup1\n      0xf1127ed8\n      eq\n      tag_35\n      jumpi\n      dup1\n      0xf2fde38b\n      eq\n      tag_36\n      jumpi\n      jump(tag_2)\n    tag_39:\n      dup1\n      0xa9059cbb\n      eq\n      tag_28\n      jumpi\n      dup1\n      0xaa271e1a\n      eq\n      tag_29\n      jumpi\n      dup1\n      0xb4b5ea57\n      eq\n      tag_30\n      jumpi\n      dup1\n      0xc3cda520\n      eq\n      tag_31\n      jumpi\n      jump(tag_2)\n    tag_38:\n      dup1\n      0x95d89b41\n      gt\n      tag_40\n      jumpi\n      dup1\n      0x95d89b41\n      eq\n      tag_24\n      jumpi\n      dup1\n      0x983b2d56\n      eq\n      tag_25\n      jumpi\n      dup1\n      0xa0712d68\n      eq\n      tag_26\n      jumpi\n      dup1\n      0xa457c2d7\n      eq\n      tag_27\n      jumpi\n      jump(tag_2)\n    tag_40:\n      dup1\n      0x782d6fe1\n      eq\n      tag_20\n      jumpi\n      dup1\n      0x7ecebe00\n      eq\n      tag_21\n      jumpi\n      dup1\n      0x893d20e8\n      eq\n      tag_22\n      jumpi\n      dup1\n      0x8da5cb5b\n      eq\n      tag_23\n      jumpi\n      jump(tag_2)\n    tag_37:\n      dup1\n      0x313ce567\n      gt\n      tag_41\n      jumpi\n      dup1\n      0x5b7121f8\n      gt\n      tag_42\n      jumpi\n      dup1\n      0x5b7121f8\n      eq\n      tag_15\n      jumpi\n      dup1\n      0x5c19a95c\n      eq\n      tag_16\n      jumpi\n      dup1\n      0x6fcfff45\n      eq\n      tag_17\n      jumpi\n      dup1\n      0x70a08231\n      eq\n      tag_18\n      jumpi\n      dup1\n      0x715018a6\n      eq\n      tag_19\n      jumpi\n      jump(tag_2)\n    tag_42:\n      dup1\n      0x313ce567\n      eq\n      tag_11\n      jumpi\n      dup1\n      0x39509351\n      eq\n      tag_12\n      jumpi\n      dup1\n      0x40c10f19\n      eq\n      tag_13\n      jumpi\n      dup1\n      0x587cde1e\n      eq\n      tag_14\n      jumpi\n      jump(tag_2)\n    tag_41:\n      dup1\n      0x18160ddd\n      gt\n      tag_43\n      jumpi\n      dup1\n      0x18160ddd\n      eq\n      tag_7\n      jumpi\n      dup1\n      0x20606b70\n      eq\n      tag_8\n      jumpi\n      dup1\n      0x23338b88\n      eq\n      tag_9\n      jumpi\n      dup1\n      0x23b872dd\n      eq\n      tag_10\n      jumpi\n      jump(tag_2)\n    tag_43:\n      dup1\n      0x0323aac7\n      eq\n      tag_3\n      jumpi\n      dup1\n      0x06fdde03\n      eq\n      tag_4\n      jumpi\n      dup1\n      0x095ea7b3\n      eq\n      tag_5\n      jumpi\n      dup1\n      0x0c16ea83\n      eq\n      tag_6\n      jumpi\n    tag_2:\n      0x00\n      dup1\n      revert\n        /* \"contracts/BSWRoken.sol\":43583:43696  function getMinterLength() public view returns (uint256) {\r... */\n    tag_3:\n      tag_44\n      tag_45\n      jump\t// in\n    tag_44:\n      mload(0x40)\n      dup1\n      dup3\n      dup2\n      mstore\n      0x20\n      add\n      swap2\n      pop\n      pop\n      mload(0x40)\n      dup1\n      swap2\n      sub\n      swap1\n      return\n        /* \"contracts/BSWRoken.sol\":18605:18697  function name() public override view returns (string memory) {\r... */\n    tag_4:\n      tag_46\n      tag_47\n      jump\t// in\n    tag_46:\n      mload(0x40)\n      dup1\n      dup1\n      0x20\n      add\n      dup3\n      dup2\n      sub\n      dup3\n      mstore\n      dup4\n      dup2\n      dup2\n      mload\n      dup2\n      mstore\n      0x20\n      add\n      swap2\n      pop\n      dup1\n      mload\n      swap1\n      0x20\n      add\n      swap1\n      dup1\n      dup4\n      dup4\n      0x00\n    tag_48:\n      dup4\n      dup2\n      lt\n      iszero\n      tag_50\n      jumpi\n      dup1\n      dup3\n      add\n      mload\n      dup2\n      dup5\n      add\n      mstore\n      0x20\n      dup2\n      add\n      swap1\n      pop\n      jump(tag_48)\n    tag_50:\n      pop\n      pop\n      pop\n      pop\n      swap1\n      pop\n      swap1\n      dup2\n      add\n      swap1\n      0x1f\n      and\n      dup1\n      iszero\n      tag_51\n      jumpi\n      dup1\n      dup3\n      sub\n      dup1\n      mload\n      0x01\n      dup4\n      0x20\n      sub\n      0x0100\n      exp\n      sub\n      not\n      and\n      dup2\n      mstore\n      0x20\n      add\n      swap2\n      pop\n    tag_51:\n      pop\n      swap3\n      pop\n      pop\n      pop\n      mload(0x40)\n      dup1\n      swap2\n      sub\n      swap1\n      return\n        /* \"contracts/BSWRoken.sol\":20308:20469  function approve(address spender, uint256 amount) public override returns (bool) {\r... */\n    tag_5:\n      tag_52\n      0x04\n      dup1\n      calldatasize\n      sub\n      0x40\n      dup2\n      lt\n      iszero\n      tag_53\n      jumpi\n      0x00\n      dup1\n      revert\n    tag_53:\n      dup2\n      add\n      swap1\n      dup1\n      dup1\n      calldataload\n      0xffffffffffffffffffffffffffffffffffffffff\n      and\n      swap1\n      0x20\n      add\n      swap1\n      swap3\n      swap2\n      swap1\n      dup1\n      calldataload\n      swap1\n      0x20\n      add\n      swap1\n      swap3\n      swap2\n      swap1\n      pop\n      pop\n      pop\n      tag_54\n      jump\t// in\n    tag_52:\n      mload(0x40)\n      dup1\n      dup3\n      iszero\n      iszero\n      dup2\n      mstore\n      0x20\n      add\n      swap2\n      pop\n      pop\n      mload(0x40)\n      dup1\n      swap2\n      sub\n      swap1\n      return\n        /* \"contracts/BSWRoken.sol\":19189:19293  function preMineSupply() public override view returns (uint256) {\r... */\n    tag_6:\n      tag_55\n      tag_56\n      jump\t// in\n    tag_55:\n      mload(0x40)\n      dup1\n      dup3\n      dup2\n      mstore\n      0x20\n      add\n      swap2\n      pop\n      pop\n      mload(0x40)\n      dup1\n      swap2\n      sub\n      swap1\n      return\n        /* \"contracts/BSWRoken.sol\":19081:19181  function totalSupply() public override view returns (uint256) {\r... */\n    tag_7:\n      tag_57\n      tag_58\n      jump\t// in\n    tag_57:\n      mload(0x40)\n      dup1\n      dup3\n      dup2\n      mstore\n      0x20\n      add\n      swap2\n      pop\n      pop\n      mload(0x40)\n      dup1\n      swap2\n      sub\n      swap1\n      return\n        /* \"contracts/BSWRoken.sol\":35547:35669  bytes32 public constant DOMAIN_TYPEHASH = keccak256(\"EIP712Domain(string name,uint256 chainId,address verifyingContract)\") */\n    tag_8:\n      tag_59\n      tag_60\n      jump\t// in\n    tag_59:\n      mload(0x40)\n      dup1\n      dup3\n      dup2\n      mstore\n      0x20\n      add\n      swap2\n      pop\n      pop\n      mload(0x40)\n      dup1\n      swap2\n      sub\n      swap1\n      return\n        /* \"contracts/BSWRoken.sol\":43353:43575  function delMinter(address _delMinter) public onlyOwner returns (bool) {\r... */\n    tag_9:\n      tag_61\n      0x04\n      dup1\n      calldatasize\n      sub\n      0x20\n      dup2\n      lt\n      iszero\n      tag_62\n      jumpi\n      0x00\n      dup1\n      revert\n    tag_62:\n      dup2\n      add\n      swap1\n      dup1\n      dup1\n      calldataload\n      0xffffffffffffffffffffffffffffffffffffffff\n      and\n      swap1\n      0x20\n      add\n      swap1\n      swap3\n      swap2\n      swap1\n      pop\n      pop\n      pop\n      tag_63\n      jump\t// in\n    tag_61:\n      mload(0x40)\n      dup1\n      dup3\n      iszero\n      iszero\n      dup2\n      mstore\n      0x20\n      add\n      swap2\n      pop\n      pop\n      mload(0x40)\n      dup1\n      swap2\n      sub\n      swap1\n      return\n        /* \"contracts/BSWRoken.sol\":20940:21337  function transferFrom(\r... */\n    tag_10:\n      tag_64\n      0x04\n      dup1\n      calldatasize\n      sub\n      0x60\n      dup2\n      lt\n      iszero\n      tag_65\n      jumpi\n      0x00\n      dup1\n      revert\n    tag_65:\n      dup2\n      add\n      swap1\n      dup1\n      dup1\n      calldataload\n      0xffffffffffffffffffffffffffffffffffffffff\n      and\n      swap1\n      0x20\n      add\n      swap1\n      swap3\n      swap2\n      swap1\n      dup1\n      calldataload\n      0xffffffffffffffffffffffffffffffffffffffff\n      and\n      swap1\n      0x20\n      add\n      swap1\n      swap3\n      swap2\n      swap1\n      dup1\n      calldataload\n      swap1\n      0x20\n      add\n      swap1\n      swap3\n      swap2\n      swap1\n      pop\n      pop\n      pop\n      tag_66\n      jump\t// in\n    tag_64:\n      mload(0x40)\n      dup1\n      dup3\n      iszero\n      iszero\n      dup2\n      mstore\n      0x20\n      add\n      swap2\n      pop\n      pop\n      mload(0x40)\n      dup1\n      swap2\n      sub\n      swap1\n      return\n        /* \"contracts/BSWRoken.sol\":18764:18856  function decimals() public override view returns (uint8) {\r... */\n    tag_11:\n      tag_67\n      tag_68\n      jump\t// in\n    tag_67:\n      mload(0x40)\n      dup1\n      dup3\n      0xff\n      and\n      dup2\n      mstore\n      0x20\n      add\n      swap2\n      pop\n      pop\n      mload(0x40)\n      dup1\n      swap2\n      sub\n      swap1\n      return\n        /* \"contracts/BSWRoken.sol\":21745:21955  function increaseAllowance(address spender, uint256 addedValue) public returns (bool) {\r... */\n    tag_12:\n      tag_69\n      0x04\n      dup1\n      calldatasize\n      sub\n      0x40\n      dup2\n      lt\n      iszero\n      tag_70\n      jumpi\n      0x00\n      dup1\n      revert\n    tag_70:\n      dup2\n      add\n      swap1\n      dup1\n      dup1\n      calldataload\n      0xffffffffffffffffffffffffffffffffffffffff\n      and\n      swap1\n      0x20\n      add\n      swap1\n      swap3\n      swap2\n      swap1\n      dup1\n      calldataload\n      swap1\n      0x20\n      add\n      swap1\n      swap3\n      swap2\n      swap1\n      pop\n      pop\n      pop\n      tag_71\n      jump\t// in\n    tag_69:\n      mload(0x40)\n      dup1\n      dup3\n      iszero\n      iszero\n      dup2\n      mstore\n      0x20\n      add\n      swap2\n      pop\n      pop\n      mload(0x40)\n      dup1\n      swap2\n      sub\n      swap1\n      return\n        /* \"contracts/BSWRoken.sol\":34330:34529  function mint(address _to, uint256 _amount) public onlyMinter returns(bool) {\r... */\n    tag_13:\n      tag_72\n      0x04\n      dup1\n      calldatasize\n      sub\n      0x40\n      dup2\n      lt\n      iszero\n      tag_73\n      jumpi\n      0x00\n      dup1\n      revert\n    tag_73:\n      dup2\n      add\n      swap1\n      dup1\n      dup1\n      calldataload\n      0xffffffffffffffffffffffffffffffffffffffff\n      and\n      swap1\n      0x20\n      add\n      swap1\n      swap3\n      swap2\n      swap1\n      dup1\n      calldataload\n      swap1\n      0x20\n      add\n      swap1\n      swap3\n      swap2\n      swap1\n      pop\n      pop\n      pop\n      tag_74\n      jump\t// in\n    tag_72:\n      mload(0x40)\n      dup1\n      dup3\n      iszero\n      iszero\n      dup2\n      mstore\n      0x20\n      add\n      swap2\n      pop\n      pop\n      mload(0x40)\n      dup1\n      swap2\n      sub\n      swap1\n      return\n        /* \"contracts/BSWRoken.sol\":36530:36679  function delegates(address delegator)\r... */\n    tag_14:\n      tag_75\n      0x04\n      dup1\n      calldatasize\n      sub\n      0x20\n      dup2\n      lt\n      iszero\n      tag_76\n      jumpi\n      0x00\n      dup1\n      revert\n    tag_76:\n      dup2\n      add\n      swap1\n      dup1\n      dup1\n      calldataload\n      0xffffffffffffffffffffffffffffffffffffffff\n      and\n      swap1\n      0x20\n      add\n      swap1\n      swap3\n      swap2\n      swap1\n      pop\n      pop\n      pop\n      tag_77\n      jump\t// in\n    tag_75:\n      mload(0x40)\n      dup1\n      dup3\n      0xffffffffffffffffffffffffffffffffffffffff\n      and\n      dup2\n      mstore\n      0x20\n      add\n      swap2\n      pop\n      pop\n      mload(0x40)\n      dup1\n      swap2\n      sub\n      swap1\n      return\n        /* \"contracts/BSWRoken.sol\":43841:44054  function getMinter(uint256 _index) public view onlyOwner returns (address){\r... */\n    tag_15:\n      tag_78\n      0x04\n      dup1\n      calldatasize\n      sub\n      0x20\n      dup2\n      lt\n      iszero\n      tag_79\n      jumpi\n      0x00\n      dup1\n      revert\n    tag_79:\n      dup2\n      add\n      swap1\n      dup1\n      dup1\n      calldataload\n      swap1\n      0x20\n      add\n      swap1\n      swap3\n      swap2\n      swap1\n      pop\n      pop\n      pop\n      tag_80\n      jump\t// in\n    tag_78:\n      mload(0x40)\n      dup1\n      dup3\n      0xffffffffffffffffffffffffffffffffffffffff\n      and\n      dup2\n      mstore\n      0x20\n      add\n      swap2\n      pop\n      pop\n      mload(0x40)\n      dup1\n      swap2\n      sub\n      swap1\n      return\n        /* \"contracts/BSWRoken.sol\":36823:36927  function delegate(address delegatee) external {\r... */\n    tag_16:\n      tag_81\n      0x04\n      dup1\n      calldatasize\n      sub\n      0x20\n      dup2\n      lt\n      iszero\n      tag_82\n      jumpi\n      0x00\n      dup1\n      revert\n    tag_82:\n      dup2\n      add\n      swap1\n      dup1\n      dup1\n      calldataload\n      0xffffffffffffffffffffffffffffffffffffffff\n      and\n      swap1\n      0x20\n      add\n      swap1\n      swap3\n      swap2\n      swap1\n      pop\n      pop\n      pop\n      tag_83\n      jump\t// in\n    tag_81:\n      stop\n        /* \"contracts/BSWRoken.sol\":35425:35474  mapping (address => uint32) public numCheckpoints */\n    tag_17:\n      tag_84\n      0x04\n      dup1\n      calldatasize\n      sub\n      0x20\n      dup2\n      lt\n      iszero\n      tag_85\n      jumpi\n      0x00\n      dup1\n      revert\n    tag_85:\n      dup2\n      add\n      swap1\n      dup1\n      dup1\n      calldataload\n      0xffffffffffffffffffffffffffffffffffffffff\n      and\n      swap1\n      0x20\n      add\n      swap1\n      swap3\n      swap2\n      swap1\n      pop\n      pop\n      pop\n      tag_86\n      jump\t// in\n    tag_84:\n      mload(0x40)\n      dup1\n      dup3\n      0xffffffff\n      and\n      dup2\n      mstore\n      0x20\n      add\n      swap2\n      pop\n      pop\n      mload(0x40)\n      dup1\n      swap2\n      sub\n      swap1\n      return\n        /* \"contracts/BSWRoken.sol\":19459:19578  function balanceOf(address account) public override view returns (uint256) {\r... */\n    tag_18:\n      tag_87\n      0x04\n      dup1\n      calldatasize\n      sub\n      0x20\n      dup2\n      lt\n      iszero\n      tag_88\n      jumpi\n      0x00\n      dup1\n      revert\n    tag_88:\n      dup2\n      add\n      swap1\n      dup1\n      dup1\n      calldataload\n      0xffffffffffffffffffffffffffffffffffffffff\n      and\n      swap1\n      0x20\n      add\n      swap1\n      swap3\n      swap2\n      swap1\n      pop\n      pop\n      pop\n      tag_89\n      jump\t// in\n    tag_87:\n      mload(0x40)\n      dup1\n      dup3\n      dup2\n      mstore\n      0x20\n      add\n      swap2\n      pop\n      pop\n      mload(0x40)\n      dup1\n      swap2\n      sub\n      swap1\n      return\n        /* \"contracts/BSWRoken.sol\":1720:1860  function renounceOwnership() public onlyOwner {\r... */\n    tag_19:\n      tag_90\n      tag_91\n      jump\t// in\n    tag_90:\n      stop\n        /* \"contracts/BSWRoken.sol\":39423:40675  function getPriorVotes(address account, uint blockNumber)\r... */\n    tag_20:\n      tag_92\n      0x04\n      dup1\n      calldatasize\n      sub\n      0x40\n      dup2\n      lt\n      iszero\n      tag_93\n      jumpi\n      0x00\n      dup1\n      revert\n    tag_93:\n      dup2\n      add\n      swap1\n      dup1\n      dup1\n      calldataload\n      0xffffffffffffffffffffffffffffffffffffffff\n      and\n      swap1\n      0x20\n      add\n      swap1\n      swap3\n      swap2\n      swap1\n      dup1\n      calldataload\n      swap1\n      0x20\n      add\n      swap1\n      swap3\n      swap2\n      swap1\n      pop\n      pop\n      pop\n      tag_94\n      jump\t// in\n    tag_92:\n      mload(0x40)\n      dup1\n      dup3\n      dup2\n      mstore\n      0x20\n      add\n      swap2\n      pop\n      pop\n      mload(0x40)\n      dup1\n      swap2\n      sub\n      swap1\n      return\n        /* \"contracts/BSWRoken.sol\":35961:36000  mapping (address => uint) public nonces */\n    tag_21:\n      tag_95\n      0x04\n      dup1\n      calldatasize\n      sub\n      0x20\n      dup2\n      lt\n      iszero\n      tag_96\n      jumpi\n      0x00\n      dup1\n      revert\n    tag_96:\n      dup2\n      add\n      swap1\n      dup1\n      dup1\n      calldataload\n      0xffffffffffffffffffffffffffffffffffffffff\n      and\n      swap1\n      0x20\n      add\n      swap1\n      swap3\n      swap2\n      swap1\n      pop\n      pop\n      pop\n      tag_97\n      jump\t// in\n    tag_95:\n      mload(0x40)\n      dup1\n      dup3\n      dup2\n      mstore\n      0x20\n      add\n      swap2\n      pop\n      pop\n      mload(0x40)\n      dup1\n      swap2\n      sub\n      swap1\n      return\n        /* \"contracts/BSWRoken.sol\":18448:18542  function getOwner() external override view returns (address) {\r... */\n    tag_22:\n      tag_98\n      tag_99\n      jump\t// in\n    tag_98:\n      mload(0x40)\n      dup1\n      dup3\n      0xffffffffffffffffffffffffffffffffffffffff\n      and\n      dup2\n      mstore\n      0x20\n      add\n      swap2\n      pop\n      pop\n      mload(0x40)\n      dup1\n      swap2\n      sub\n      swap1\n      return\n        /* \"contracts/BSWRoken.sol\":1078:1157  function owner() public view returns (address) {\r... */\n    tag_23:\n      tag_100\n      tag_101\n      jump\t// in\n    tag_100:\n      mload(0x40)\n      dup1\n      dup3\n      0xffffffffffffffffffffffffffffffffffffffff\n      and\n      dup2\n      mstore\n      0x20\n      add\n      swap2\n      pop\n      pop\n      mload(0x40)\n      dup1\n      swap2\n      sub\n      swap1\n      return\n        /* \"contracts/BSWRoken.sol\":18921:19017  function symbol() public override view returns (string memory) {\r... */\n    tag_24:\n      tag_102\n      tag_103\n      jump\t// in\n    tag_102:\n      mload(0x40)\n      dup1\n      dup1\n      0x20\n      add\n      dup3\n      dup2\n      sub\n      dup3\n      mstore\n      dup4\n      dup2\n      dup2\n      mload\n      dup2\n      mstore\n      0x20\n      add\n      swap2\n      pop\n      dup1\n      mload\n      swap1\n      0x20\n      add\n      swap1\n      dup1\n      dup4\n      dup4\n      0x00\n    tag_104:\n      dup4\n      dup2\n      lt\n      iszero\n      tag_106\n      jumpi\n      dup1\n      dup3\n      add\n      mload\n      dup2\n      dup5\n      add\n      mstore\n      0x20\n      dup2\n      add\n      swap1\n      pop\n      jump(tag_104)\n    tag_106:\n      pop\n      pop\n      pop\n      pop\n      swap1\n      pop\n      swap1\n      dup2\n      add\n      swap1\n      0x1f\n      and\n      dup1\n      iszero\n      tag_107\n      jumpi\n      dup1\n      dup3\n      sub\n      dup1\n      mload\n      0x01\n      dup4\n      0x20\n      sub\n      0x0100\n      exp\n      sub\n      not\n      and\n      dup2\n      mstore\n      0x20\n      add\n      swap2\n      pop\n    tag_107:\n      pop\n      swap3\n      pop\n      pop\n      pop\n      mload(0x40)\n      dup1\n      swap2\n      sub\n      swap1\n      return\n        /* \"contracts/BSWRoken.sol\":43126:43345  function addMinter(address _addMinter) public onlyOwner returns (bool) {\r... */\n    tag_25:\n      tag_108\n      0x04\n      dup1\n      calldatasize\n      sub\n      0x20\n      dup2\n      lt\n      iszero\n      tag_109\n      jumpi\n      0x00\n      dup1\n      revert\n    tag_109:\n      dup2\n      add\n      swap1\n      dup1\n      dup1\n      calldataload\n      0xffffffffffffffffffffffffffffffffffffffff\n      and\n      swap1\n      0x20\n      add\n      swap1\n      swap3\n      swap2\n      swap1\n      pop\n      pop\n      pop\n      tag_110\n      jump\t// in\n    tag_108:\n      mload(0x40)\n      dup1\n      dup3\n      iszero\n      iszero\n      dup2\n      mstore\n      0x20\n      add\n      swap2\n      pop\n      pop\n      mload(0x40)\n      dup1\n      swap2\n      sub\n      swap1\n      return\n        /* \"contracts/BSWRoken.sol\":22986:23116  function mint(uint256 amount) public onlyOwner returns (bool) {\r... */\n    tag_26:\n      tag_111\n      0x04\n      dup1\n      calldatasize\n      sub\n      0x20\n      dup2\n      lt\n      iszero\n      tag_112\n      jumpi\n      0x00\n      dup1\n      revert\n    tag_112:\n      dup2\n      add\n      swap1\n      dup1\n      dup1\n      calldataload\n      swap1\n      0x20\n      add\n      swap1\n      swap3\n      swap2\n      swap1\n      pop\n      pop\n      pop\n      tag_113\n      jump\t// in\n    tag_111:\n      mload(0x40)\n      dup1\n      dup3\n      iszero\n      iszero\n      dup2\n      mstore\n      0x20\n      add\n      swap2\n      pop\n      pop\n      mload(0x40)\n      dup1\n      swap2\n      sub\n      swap1\n      return\n        /* \"contracts/BSWRoken.sol\":22457:22768  function decreaseAllowance(address spender, uint256 subtractedValue) public returns (bool) {\r... */\n    tag_27:\n      tag_114\n      0x04\n      dup1\n      calldatasize\n      sub\n      0x40\n      dup2\n      lt\n      iszero\n      tag_115\n      jumpi\n      0x00\n      dup1\n      revert\n    tag_115:\n      dup2\n      add\n      swap1\n      dup1\n      dup1\n      calldataload\n      0xffffffffffffffffffffffffffffffffffffffff\n      and\n      swap1\n      0x20\n      add\n      swap1\n      swap3\n      swap2\n      swap1\n      dup1\n      calldataload\n      swap1\n      0x20\n      add\n      swap1\n      swap3\n      swap2\n      swap1\n      pop\n      pop\n      pop\n      tag_116\n      jump\t// in\n    tag_114:\n      mload(0x40)\n      dup1\n      dup3\n      iszero\n      iszero\n      dup2\n      mstore\n      0x20\n      add\n      swap2\n      pop\n      pop\n      mload(0x40)\n      dup1\n      swap2\n      sub\n      swap1\n      return\n        /* \"contracts/BSWRoken.sol\":19790:19957  function transfer(address recipient, uint256 amount) public override returns (bool) {\r... */\n    tag_28:\n      tag_117\n      0x04\n      dup1\n      calldatasize\n      sub\n      0x40\n      dup2\n      lt\n      iszero\n      tag_118\n      jumpi\n      0x00\n      dup1\n      revert\n    tag_118:\n      dup2\n      add\n      swap1\n      dup1\n      dup1\n      calldataload\n      0xffffffffffffffffffffffffffffffffffffffff\n      and\n      swap1\n      0x20\n      add\n      swap1\n      swap3\n      swap2\n      swap1\n      dup1\n      calldataload\n      swap1\n      0x20\n      add\n      swap1\n      swap3\n      swap2\n      swap1\n      pop\n      pop\n      pop\n      tag_119\n      jump\t// in\n    tag_117:\n      mload(0x40)\n      dup1\n      dup3\n      iszero\n      iszero\n      dup2\n      mstore\n      0x20\n      add\n      swap2\n      pop\n      pop\n      mload(0x40)\n      dup1\n      swap2\n      sub\n      swap1\n      return\n        /* \"contracts/BSWRoken.sol\":43704:43833  function isMinter(address account) public view returns (bool) {\r... */\n    tag_29:\n      tag_120\n      0x04\n      dup1\n      calldatasize\n      sub\n      0x20\n      dup2\n      lt\n      iszero\n      tag_121\n      jumpi\n      0x00\n      dup1\n      revert\n    tag_121:\n      dup2\n      add\n      swap1\n      dup1\n      dup1\n      calldataload\n      0xffffffffffffffffffffffffffffffffffffffff\n      and\n      swap1\n      0x20\n      add\n      swap1\n      swap3\n      swap2\n      swap1\n      pop\n      pop\n      pop\n      tag_122\n      jump\t// in\n    tag_120:\n      mload(0x40)\n      dup1\n      dup3\n      iszero\n      iszero\n      dup2\n      mstore\n      0x20\n      add\n      swap2\n      pop\n      pop\n      mload(0x40)\n      dup1\n      swap2\n      sub\n      swap1\n      return\n        /* \"contracts/BSWRoken.sol\":38737:38992  function getCurrentVotes(address account)\r... */\n    tag_30:\n      tag_123\n      0x04\n      dup1\n      calldatasize\n      sub\n      0x20\n      dup2\n      lt\n      iszero\n      tag_124\n      jumpi\n      0x00\n      dup1\n      revert\n    tag_124:\n      dup2\n      add\n      swap1\n      dup1\n      dup1\n      calldataload\n      0xffffffffffffffffffffffffffffffffffffffff\n      and\n      swap1\n      0x20\n      add\n      swap1\n      swap3\n      swap2\n      swap1\n      pop\n      pop\n      pop\n      tag_125\n      jump\t// in\n    tag_123:\n      mload(0x40)\n      dup1\n      dup3\n      dup2\n      mstore\n      0x20\n      add\n      swap2\n      pop\n      pop\n      mload(0x40)\n      dup1\n      swap2\n      sub\n      swap1\n      return\n        /* \"contracts/BSWRoken.sol\":37361:38536  function delegateBySig(\r... */\n    tag_31:\n      tag_126\n      0x04\n      dup1\n      calldatasize\n      sub\n      0xc0\n      dup2\n      lt\n      iszero\n      tag_127\n      jumpi\n      0x00\n      dup1\n      revert\n    tag_127:\n      dup2\n      add\n      swap1\n      dup1\n      dup1\n      calldataload\n      0xffffffffffffffffffffffffffffffffffffffff\n      and\n      swap1\n      0x20\n      add\n      swap1\n      swap3\n      swap2\n      swap1\n      dup1\n      calldataload\n      swap1\n      0x20\n      add\n      swap1\n      swap3\n      swap2\n      swap1\n      dup1\n      calldataload\n      swap1\n      0x20\n      add\n      swap1\n      swap3\n      swap2\n      swap1\n      dup1\n      calldataload\n      0xff\n      and\n      swap1\n      0x20\n      add\n      swap1\n      swap3\n      swap2\n      swap1\n      dup1\n      calldataload\n      swap1\n      0x20\n      add\n      swap1\n      swap3\n      swap2\n      swap1\n      dup1\n      calldataload\n      swap1\n      0x20\n      add\n      swap1\n      swap3\n      swap2\n      swap1\n      pop\n      pop\n      pop\n      tag_128\n      jump\t// in\n    tag_126:\n      stop\n        /* \"contracts/BSWRoken.sol\":19301:19397  function maxSupply() public override view returns (uint256) {\r... */\n    tag_32:\n      tag_129\n      tag_130\n      jump\t// in\n    tag_129:\n      mload(0x40)\n      dup1\n      dup3\n      dup2\n      mstore\n      0x20\n      add\n      swap2\n      pop\n      pop\n      mload(0x40)\n      dup1\n      swap2\n      sub\n      swap1\n      return\n        /* \"contracts/BSWRoken.sol\":20019:20162  function allowance(address owner, address spender) public override view returns (uint256) {\r... */\n    tag_33:\n      tag_131\n      0x04\n      dup1\n      calldatasize\n      sub\n      0x40\n      dup2\n      lt\n      iszero\n      tag_132\n      jumpi\n      0x00\n      dup1\n      revert\n    tag_132:\n      dup2\n      add\n      swap1\n      dup1\n      dup1\n      calldataload\n      0xffffffffffffffffffffffffffffffffffffffff\n      and\n      swap1\n      0x20\n      add\n      swap1\n      swap3\n      swap2\n      swap1\n      dup1\n      calldataload\n      0xffffffffffffffffffffffffffffffffffffffff\n      and\n      swap1\n      0x20\n      add\n      swap1\n      swap3\n      swap2\n      swap1\n      pop\n      pop\n      pop\n      tag_133\n      jump\t// in\n    tag_131:\n      mload(0x40)\n      dup1\n      dup3\n      dup2\n      mstore\n      0x20\n      add\n      swap2\n      pop\n      pop\n      mload(0x40)\n      dup1\n      swap2\n      sub\n      swap1\n      return\n        /* \"contracts/BSWRoken.sol\":35763:35880  bytes32 public constant DELEGATION_TYPEHASH = keccak256(\"Delegation(address delegatee,uint256 nonce,uint256 expiry)\") */\n    tag_34:\n      tag_134\n      tag_135\n      jump\t// in\n    tag_134:\n      mload(0x40)\n      dup1\n      dup3\n      dup2\n      mstore\n      0x20\n      add\n      swap2\n      pop\n      pop\n      mload(0x40)\n      dup1\n      swap2\n      sub\n      swap1\n      return\n        /* \"contracts/BSWRoken.sol\":35286:35356  mapping (address => mapping (uint32 => Checkpoint)) public checkpoints */\n    tag_35:\n      tag_136\n      0x04\n      dup1\n      calldatasize\n      sub\n      0x40\n      dup2\n      lt\n      iszero\n      tag_137\n      jumpi\n      0x00\n      dup1\n      revert\n    tag_137:\n      dup2\n      add\n      swap1\n      dup1\n      dup1\n      calldataload\n      0xffffffffffffffffffffffffffffffffffffffff\n      and\n      swap1\n      0x20\n      add\n      swap1\n      swap3\n      swap2\n      swap1\n      dup1\n      calldataload\n      0xffffffff\n      and\n      swap1\n      0x20\n      add\n      swap1\n      swap3\n      swap2\n      swap1\n      pop\n      pop\n      pop\n      tag_138\n      jump\t// in\n    tag_136:\n      mload(0x40)\n      dup1\n      dup4\n      0xffffffff\n      and\n      dup2\n      mstore\n      0x20\n      add\n      dup3\n      dup2\n      mstore\n      0x20\n      add\n      swap3\n      pop\n      pop\n      pop\n      mload(0x40)\n      dup1\n      swap2\n      sub\n      swap1\n      return\n        /* \"contracts/BSWRoken.sol\":2015:2124  function transferOwnership(address newOwner) public onlyOwner {\r... */\n    tag_36:\n      tag_139\n      0x04\n      dup1\n      calldatasize\n      sub\n      0x20\n      dup2\n      lt\n      iszero\n      tag_140\n      jumpi\n      0x00\n      dup1\n      revert\n    tag_140:\n      dup2\n      add\n      swap1\n      dup1\n      dup1\n      calldataload\n      0xffffffffffffffffffffffffffffffffffffffff\n      and\n      swap1\n      0x20\n      add\n      swap1\n      swap3\n      swap2\n      swap1\n      pop\n      pop\n      pop\n      tag_141\n      jump\t// in\n    tag_139:\n      stop\n        /* \"contracts/BSWRoken.sol\":43583:43696  function getMinterLength() public view returns (uint256) {\r... */\n    tag_45:\n        /* \"contracts/BSWRoken.sol\":43631:43638  uint256 */\n      0x00\n        /* \"contracts/BSWRoken.sol\":43658:43688  EnumerableSet.length(_minters) */\n      tag_144\n        /* \"contracts/BSWRoken.sol\":43679:43687  _minters */\n      0x07\n        /* \"contracts/BSWRoken.sol\":43658:43678  EnumerableSet.length */\n      tag_145\n        /* \"contracts/BSWRoken.sol\":43658:43688  EnumerableSet.length(_minters) */\n      jump\t// in\n    tag_144:\n        /* \"contracts/BSWRoken.sol\":43651:43688  return EnumerableSet.length(_minters) */\n      swap1\n      pop\n        /* \"contracts/BSWRoken.sol\":43583:43696  function getMinterLength() public view returns (uint256) {\r... */\n      swap1\n      jump\t// out\n        /* \"contracts/BSWRoken.sol\":18605:18697  function name() public override view returns (string memory) {\r... */\n    tag_47:\n        /* \"contracts/BSWRoken.sol\":18651:18664  string memory */\n      0x60\n        /* \"contracts/BSWRoken.sol\":18684:18689  _name */\n      0x04\n        /* \"contracts/BSWRoken.sol\":18677:18689  return _name */\n      dup1\n      sload\n      0x01\n      dup2\n      0x01\n      and\n      iszero\n      0x0100\n      mul\n      sub\n      and\n      0x02\n      swap1\n      div\n      dup1\n      0x1f\n      add\n      0x20\n      dup1\n      swap2\n      div\n      mul\n      0x20\n      add\n      mload(0x40)\n      swap1\n      dup2\n      add\n      0x40\n      mstore\n      dup1\n      swap3\n      swap2\n      swap1\n      dup2\n      dup2\n      mstore\n      0x20\n      add\n      dup3\n      dup1\n      sload\n      0x01\n      dup2\n      0x01\n      and\n      iszero\n      0x0100\n      mul\n      sub\n      and\n      0x02\n      swap1\n      div\n      dup1\n      iszero\n      tag_147\n      jumpi\n      dup1\n      0x1f\n      lt\n      tag_148\n      jumpi\n      0x0100\n      dup1\n      dup4\n      sload\n      div\n      mul\n      dup4\n      mstore\n      swap2\n      0x20\n      add\n      swap2\n      jump(tag_147)\n    tag_148:\n      dup3\n      add\n      swap2\n      swap1\n      0x00\n      mstore\n      keccak256(0x00, 0x20)\n      swap1\n    tag_149:\n      dup2\n      sload\n      dup2\n      mstore\n      swap1\n      0x01\n      add\n      swap1\n      0x20\n      add\n      dup1\n      dup4\n      gt\n      tag_149\n      jumpi\n      dup3\n      swap1\n      sub\n      0x1f\n      and\n      dup3\n      add\n      swap2\n    tag_147:\n      pop\n      pop\n      pop\n      pop\n      pop\n      swap1\n      pop\n        /* \"contracts/BSWRoken.sol\":18605:18697  function name() public override view returns (string memory) {\r... */\n      swap1\n      jump\t// out\n        /* \"contracts/BSWRoken.sol\":20308:20469  function approve(address spender, uint256 amount) public override returns (bool) {\r... */\n    tag_54:\n        /* \"contracts/BSWRoken.sol\":20383:20387  bool */\n      0x00\n        /* \"contracts/BSWRoken.sol\":20400:20439  _approve(_msgSender(), spender, amount) */\n      tag_151\n        /* \"contracts/BSWRoken.sol\":20409:20421  _msgSender() */\n      tag_152\n        /* \"contracts/BSWRoken.sol\":20409:20419  _msgSender */\n      tag_153\n        /* \"contracts/BSWRoken.sol\":20409:20421  _msgSender() */\n      jump\t// in\n    tag_152:\n        /* \"contracts/BSWRoken.sol\":20423:20430  spender */\n      dup5\n        /* \"contracts/BSWRoken.sol\":20432:20438  amount */\n      dup5\n        /* \"contracts/BSWRoken.sol\":20400:20408  _approve */\n      tag_154\n        /* \"contracts/BSWRoken.sol\":20400:20439  _approve(_msgSender(), spender, amount) */\n      jump\t// in\n    tag_151:\n        /* \"contracts/BSWRoken.sol\":20457:20461  true */\n      0x01\n        /* \"contracts/BSWRoken.sol\":20450:20461  return true */\n      swap1\n      pop\n        /* \"contracts/BSWRoken.sol\":20308:20469  function approve(address spender, uint256 amount) public override returns (bool) {\r... */\n      swap3\n      swap2\n      pop\n      pop\n      jump\t// out\n        /* \"contracts/BSWRoken.sol\":19189:19293  function preMineSupply() public override view returns (uint256) {\r... */\n    tag_56:\n        /* \"contracts/BSWRoken.sol\":19244:19251  uint256 */\n      0x00\n        /* \"contracts/BSWRoken.sol\":17457:17472  10000000 * 1e18 */\n      0x084595161401484a000000\n        /* \"contracts/BSWRoken.sol\":19264:19285  return _preMineSupply */\n      swap1\n      pop\n        /* \"contracts/BSWRoken.sol\":19189:19293  function preMineSupply() public override view returns (uint256) {\r... */\n      swap1\n      jump\t// out\n        /* \"contracts/BSWRoken.sol\":19081:19181  function totalSupply() public override view returns (uint256) {\r... */\n    tag_58:\n        /* \"contracts/BSWRoken.sol\":19134:19141  uint256 */\n      0x00\n        /* \"contracts/BSWRoken.sol\":19161:19173  _totalSupply */\n      sload(0x03)\n        /* \"contracts/BSWRoken.sol\":19154:19173  return _totalSupply */\n      swap1\n      pop\n        /* \"contracts/BSWRoken.sol\":19081:19181  function totalSupply() public override view returns (uint256) {\r... */\n      swap1\n      jump\t// out\n        /* \"contracts/BSWRoken.sol\":35547:35669  bytes32 public constant DOMAIN_TYPEHASH = keccak256(\"EIP712Domain(string name,uint256 chainId,address verifyingContract)\") */\n    tag_60:\n        /* \"contracts/BSWRoken.sol\":35589:35669  keccak256(\"EIP712Domain(string name,uint256 chainId,address verifyingContract)\") */\n      0x8cad95687ba82c2ce50e74f7b754645e5117c3a5bec8151c0726d5857980a866\n        /* \"contracts/BSWRoken.sol\":35547:35669  bytes32 public constant DOMAIN_TYPEHASH = keccak256(\"EIP712Domain(string name,uint256 chainId,address verifyingContract)\") */\n      dup2\n      jump\t// out\n        /* \"contracts/BSWRoken.sol\":43353:43575  function delMinter(address _delMinter) public onlyOwner returns (bool) {\r... */\n    tag_63:\n        /* \"contracts/BSWRoken.sol\":43418:43422  bool */\n      0x00\n        /* \"contracts/BSWRoken.sol\":1300:1312  _msgSender() */\n      tag_158\n        /* \"contracts/BSWRoken.sol\":1300:1310  _msgSender */\n      tag_153\n        /* \"contracts/BSWRoken.sol\":1300:1312  _msgSender() */\n      jump\t// in\n    tag_158:\n        /* \"contracts/BSWRoken.sol\":1290:1312  _owner == _msgSender() */\n      0xffffffffffffffffffffffffffffffffffffffff\n      and\n        /* \"contracts/BSWRoken.sol\":1290:1296  _owner */\n      0x00\n      dup1\n      sload\n      swap1\n      0x0100\n      exp\n      swap1\n      div\n      0xffffffffffffffffffffffffffffffffffffffff\n      and\n        /* \"contracts/BSWRoken.sol\":1290:1312  _owner == _msgSender() */\n      0xffffffffffffffffffffffffffffffffffffffff\n      and\n      eq\n        /* \"contracts/BSWRoken.sol\":1282:1349  require(_owner == _msgSender(), 'Ownable: caller is not the owner') */\n      tag_159\n      jumpi\n      mload(0x40)\n      0x08c379a000000000000000000000000000000000000000000000000000000000\n      dup2\n      mstore\n      0x04\n      add\n      dup1\n      dup1\n      0x20\n      add\n      dup3\n      dup2\n      sub\n      dup3\n      mstore\n      0x20\n      dup2\n      mstore\n      0x20\n      add\n      dup1\n      0x4f776e61626c653a2063616c6c6572206973206e6f7420746865206f776e6572\n      dup2\n      mstore\n      pop\n      0x20\n      add\n      swap2\n      pop\n      pop\n      mload(0x40)\n      dup1\n      swap2\n      sub\n      swap1\n      revert\n    tag_159:\n        /* \"contracts/BSWRoken.sol\":43465:43466  0 */\n      0x00\n        /* \"contracts/BSWRoken.sol\":43443:43467  _delMinter != address(0) */\n      0xffffffffffffffffffffffffffffffffffffffff\n      and\n        /* \"contracts/BSWRoken.sol\":43443:43453  _delMinter */\n      dup3\n        /* \"contracts/BSWRoken.sol\":43443:43467  _delMinter != address(0) */\n      0xffffffffffffffffffffffffffffffffffffffff\n      and\n      eq\n      iszero\n        /* \"contracts/BSWRoken.sol\":43435:43507  require(_delMinter != address(0), \"BSW: _delMinter is the zero address\") */\n      tag_161\n      jumpi\n      mload(0x40)\n      0x08c379a000000000000000000000000000000000000000000000000000000000\n      dup2\n      mstore\n      0x04\n      add\n      dup1\n      dup1\n      0x20\n      add\n      dup3\n      dup2\n      sub\n      dup3\n      mstore\n      0x23\n      dup2\n      mstore\n      0x20\n      add\n      dup1\n      data_343b6672008ba8a2d60f12e2bafe23b4297a6abae9355b455d9fc219953e2685\n      0x23\n      swap2\n      codecopy\n      0x40\n      add\n      swap2\n      pop\n      pop\n      mload(0x40)\n      dup1\n      swap2\n      sub\n      swap1\n      revert\n    tag_161:\n        /* \"contracts/BSWRoken.sol\":43525:43567  EnumerableSet.remove(_minters, _delMinter) */\n      tag_162\n        /* \"contracts/BSWRoken.sol\":43546:43554  _minters */\n      0x07\n        /* \"contracts/BSWRoken.sol\":43556:43566  _delMinter */\n      dup4\n        /* \"contracts/BSWRoken.sol\":43525:43545  EnumerableSet.remove */\n      tag_163\n        /* \"contracts/BSWRoken.sol\":43525:43567  EnumerableSet.remove(_minters, _delMinter) */\n      jump\t// in\n    tag_162:\n        /* \"contracts/BSWRoken.sol\":43518:43567  return EnumerableSet.remove(_minters, _delMinter) */\n      swap1\n      pop\n        /* \"contracts/BSWRoken.sol\":43353:43575  function delMinter(address _delMinter) public onlyOwner returns (bool) {\r... */\n      swap2\n      swap1\n      pop\n      jump\t// out\n        /* \"contracts/BSWRoken.sol\":20940:21337  function transferFrom(\r... */\n    tag_66:\n        /* \"contracts/BSWRoken.sol\":21072:21076  bool */\n      0x00\n        /* \"contracts/BSWRoken.sol\":21089:21125  _transfer(sender, recipient, amount) */\n      tag_165\n        /* \"contracts/BSWRoken.sol\":21099:21105  sender */\n      dup5\n        /* \"contracts/BSWRoken.sol\":21107:21116  recipient */\n      dup5\n        /* \"contracts/BSWRoken.sol\":21118:21124  amount */\n      dup5\n        /* \"contracts/BSWRoken.sol\":21089:21098  _transfer */\n      tag_166\n        /* \"contracts/BSWRoken.sol\":21089:21125  _transfer(sender, recipient, amount) */\n      jump\t// in\n    tag_165:\n        /* \"contracts/BSWRoken.sol\":21136:21307  _approve(\r... */\n      tag_167\n        /* \"contracts/BSWRoken.sol\":21159:21165  sender */\n      dup5\n        /* \"contracts/BSWRoken.sol\":21180:21192  _msgSender() */\n      tag_168\n        /* \"contracts/BSWRoken.sol\":21180:21190  _msgSender */\n      tag_153\n        /* \"contracts/BSWRoken.sol\":21180:21192  _msgSender() */\n      jump\t// in\n    tag_168:\n        /* \"contracts/BSWRoken.sol\":21207:21296  _allowances[sender][_msgSender()].sub(amount, 'BEP20: transfer amount exceeds allowance') */\n      tag_169\n        /* \"contracts/BSWRoken.sol\":21245:21251  amount */\n      dup6\n        /* \"contracts/BSWRoken.sol\":21207:21296  _allowances[sender][_msgSender()].sub(amount, 'BEP20: transfer amount exceeds allowance') */\n      mload(0x40)\n      dup1\n      0x60\n      add\n      0x40\n      mstore\n      dup1\n      0x28\n      dup2\n      mstore\n      0x20\n      add\n      data_4f3506f4ba71c79c3cbd442a3afeb30e9b27af2d84e116a4385b34e267d2287e\n      0x28\n      swap2\n      codecopy\n        /* \"contracts/BSWRoken.sol\":21207:21218  _allowances */\n      0x02\n        /* \"contracts/BSWRoken.sol\":21207:21226  _allowances[sender] */\n      0x00\n        /* \"contracts/BSWRoken.sol\":21219:21225  sender */\n      dup12\n        /* \"contracts/BSWRoken.sol\":21207:21226  _allowances[sender] */\n      0xffffffffffffffffffffffffffffffffffffffff\n      and\n      0xffffffffffffffffffffffffffffffffffffffff\n      and\n      dup2\n      mstore\n      0x20\n      add\n      swap1\n      dup2\n      mstore\n      0x20\n      add\n      0x00\n      keccak256\n        /* \"contracts/BSWRoken.sol\":21207:21240  _allowances[sender][_msgSender()] */\n      0x00\n        /* \"contracts/BSWRoken.sol\":21227:21239  _msgSender() */\n      tag_170\n        /* \"contracts/BSWRoken.sol\":21227:21237  _msgSender */\n      tag_153\n        /* \"contracts/BSWRoken.sol\":21227:21239  _msgSender() */\n      jump\t// in\n    tag_170:\n        /* \"contracts/BSWRoken.sol\":21207:21240  _allowances[sender][_msgSender()] */\n      0xffffffffffffffffffffffffffffffffffffffff\n      and\n      0xffffffffffffffffffffffffffffffffffffffff\n      and\n      dup2\n      mstore\n      0x20\n      add\n      swap1\n      dup2\n      mstore\n      0x20\n      add\n      0x00\n      keccak256\n      sload\n        /* \"contracts/BSWRoken.sol\":21207:21244  _allowances[sender][_msgSender()].sub */\n      tag_171\n      swap1\n        /* \"contracts/BSWRoken.sol\":21207:21296  _allowances[sender][_msgSender()].sub(amount, 'BEP20: transfer amount exceeds allowance') */\n      swap3\n      swap2\n      swap1\n      0xffffffff\n      and\n      jump\t// in\n    tag_169:\n        /* \"contracts/BSWRoken.sol\":21136:21144  _approve */\n      tag_154\n        /* \"contracts/BSWRoken.sol\":21136:21307  _approve(\r... */\n      jump\t// in\n    tag_167:\n        /* \"contracts/BSWRoken.sol\":21325:21329  true */\n      0x01\n        /* \"contracts/BSWRoken.sol\":21318:21329  return true */\n      swap1\n      pop\n        /* \"contracts/BSWRoken.sol\":20940:21337  function transferFrom(\r... */\n      swap4\n      swap3\n      pop\n      pop\n      pop\n      jump\t// out\n        /* \"contracts/BSWRoken.sol\":18764:18856  function decimals() public override view returns (uint8) {\r... */\n    tag_68:\n        /* \"contracts/BSWRoken.sol\":18814:18819  uint8 */\n      0x00\n        /* \"contracts/BSWRoken.sol\":18839:18848  _decimals */\n      0x06\n      0x00\n      swap1\n      sload\n      swap1\n      0x0100\n      exp\n      swap1\n      div\n      0xff\n      and\n        /* \"contracts/BSWRoken.sol\":18832:18848  return _decimals */\n      swap1\n      pop\n        /* \"contracts/BSWRoken.sol\":18764:18856  function decimals() public override view returns (uint8) {\r... */\n      swap1\n      jump\t// out\n        /* \"contracts/BSWRoken.sol\":21745:21955  function increaseAllowance(address spender, uint256 addedValue) public returns (bool) {\r... */\n    tag_71:\n        /* \"contracts/BSWRoken.sol\":21825:21829  bool */\n      0x00\n        /* \"contracts/BSWRoken.sol\":21842:21925  _approve(_msgSender(), spender, _allowances[_msgSender()][spender].add(addedValue)) */\n      tag_174\n        /* \"contracts/BSWRoken.sol\":21851:21863  _msgSender() */\n      tag_175\n        /* \"contracts/BSWRoken.sol\":21851:21861  _msgSender */\n      tag_153\n        /* \"contracts/BSWRoken.sol\":21851:21863  _msgSender() */\n      jump\t// in\n    tag_175:\n        /* \"contracts/BSWRoken.sol\":21865:21872  spender */\n      dup5\n        /* \"contracts/BSWRoken.sol\":21874:21924  _allowances[_msgSender()][spender].add(addedValue) */\n      tag_176\n        /* \"contracts/BSWRoken.sol\":21913:21923  addedValue */\n      dup6\n        /* \"contracts/BSWRoken.sol\":21874:21885  _allowances */\n      0x02\n        /* \"contracts/BSWRoken.sol\":21874:21899  _allowances[_msgSender()] */\n      0x00\n        /* \"contracts/BSWRoken.sol\":21886:21898  _msgSender() */\n      tag_177\n        /* \"contracts/BSWRoken.sol\":21886:21896  _msgSender */\n      tag_153\n        /* \"contracts/BSWRoken.sol\":21886:21898  _msgSender() */\n      jump\t// in\n    tag_177:\n        /* \"contracts/BSWRoken.sol\":21874:21899  _allowances[_msgSender()] */\n      0xffffffffffffffffffffffffffffffffffffffff\n      and\n      0xffffffffffffffffffffffffffffffffffffffff\n      and\n      dup2\n      mstore\n      0x20\n      add\n      swap1\n      dup2\n      mstore\n      0x20\n      add\n      0x00\n      keccak256\n        /* \"contracts/BSWRoken.sol\":21874:21908  _allowances[_msgSender()][spender] */\n      0x00\n        /* \"contracts/BSWRoken.sol\":21900:21907  spender */\n      dup10\n        /* \"contracts/BSWRoken.sol\":21874:21908  _allowances[_msgSender()][spender] */\n      0xffffffffffffffffffffffffffffffffffffffff\n      and\n      0xffffffffffffffffffffffffffffffffffffffff\n      and\n      dup2\n      mstore\n      0x20\n      add\n      swap1\n      dup2\n      mstore\n      0x20\n      add\n      0x00\n      keccak256\n      sload\n        /* \"contracts/BSWRoken.sol\":21874:21912  _allowances[_msgSender()][spender].add */\n      tag_142\n      swap1\n        /* \"contracts/BSWRoken.sol\":21874:21924  _allowances[_msgSender()][spender].add(addedValue) */\n      swap2\n      swap1\n      0xffffffff\n      and\n      jump\t// in\n    tag_176:\n        /* \"contracts/BSWRoken.sol\":21842:21850  _approve */\n      tag_154\n        /* \"contracts/BSWRoken.sol\":21842:21925  _approve(_msgSender(), spender, _allowances[_msgSender()][spender].add(addedValue)) */\n      jump\t// in\n    tag_174:\n        /* \"contracts/BSWRoken.sol\":21943:21947  true */\n      0x01\n        /* \"contracts/BSWRoken.sol\":21936:21947  return true */\n      swap1\n      pop\n        /* \"contracts/BSWRoken.sol\":21745:21955  function increaseAllowance(address spender, uint256 addedValue) public returns (bool) {\r... */\n      swap3\n      swap2\n      pop\n      pop\n      jump\t// out\n        /* \"contracts/BSWRoken.sol\":34330:34529  function mint(address _to, uint256 _amount) public onlyMinter returns(bool) {\r... */\n    tag_74:\n        /* \"contracts/BSWRoken.sol\":34400:34404  bool */\n      0x00\n        /* \"contracts/BSWRoken.sol\":44138:44158  isMinter(msg.sender) */\n      tag_179\n        /* \"contracts/BSWRoken.sol\":44147:44157  msg.sender */\n      caller\n        /* \"contracts/BSWRoken.sol\":44138:44146  isMinter */\n      tag_122\n        /* \"contracts/BSWRoken.sol\":44138:44158  isMinter(msg.sender) */\n      jump\t// in\n    tag_179:\n        /* \"contracts/BSWRoken.sol\":44130:44187  require(isMinter(msg.sender), \"caller is not the minter\") */\n      tag_180\n      jumpi\n      mload(0x40)\n      0x08c379a000000000000000000000000000000000000000000000000000000000\n      dup2\n      mstore\n      0x04\n      add\n      dup1\n      dup1\n      0x20\n      add\n      dup3\n      dup2\n      sub\n      dup3\n      mstore\n      0x18\n      dup2\n      mstore\n      0x20\n      add\n      dup1\n      0x63616c6c6572206973206e6f7420746865206d696e7465720000000000000000\n      dup2\n      mstore\n      pop\n      0x20\n      add\n      swap2\n      pop\n      pop\n      mload(0x40)\n      dup1\n      swap2\n      sub\n      swap1\n      revert\n    tag_180:\n        /* \"contracts/BSWRoken.sol\":34417:34436  _mint(_to, _amount) */\n      tag_182\n        /* \"contracts/BSWRoken.sol\":34423:34426  _to */\n      dup4\n        /* \"contracts/BSWRoken.sol\":34428:34435  _amount */\n      dup4\n        /* \"contracts/BSWRoken.sol\":34417:34422  _mint */\n      tag_183\n        /* \"contracts/BSWRoken.sol\":34417:34436  _mint(_to, _amount) */\n      jump\t// in\n    tag_182:\n      pop\n        /* \"contracts/BSWRoken.sol\":34447:34499  _moveDelegates(address(0), _delegates[_to], _amount) */\n      tag_184\n        /* \"contracts/BSWRoken.sol\":34470:34471  0 */\n      0x00\n        /* \"contracts/BSWRoken.sol\":34474:34484  _delegates */\n      0x09\n        /* \"contracts/BSWRoken.sol\":34474:34489  _delegates[_to] */\n      0x00\n        /* \"contracts/BSWRoken.sol\":34485:34488  _to */\n      dup7\n        /* \"contracts/BSWRoken.sol\":34474:34489  _delegates[_to] */\n      0xffffffffffffffffffffffffffffffffffffffff\n      and\n      0xffffffffffffffffffffffffffffffffffffffff\n      and\n      dup2\n      mstore\n      0x20\n      add\n      swap1\n      dup2\n      mstore\n      0x20\n      add\n      0x00\n      keccak256\n      0x00\n      swap1\n      sload\n      swap1\n      0x0100\n      exp\n      swap1\n      div\n      0xffffffffffffffffffffffffffffffffffffffff\n      and\n        /* \"contracts/BSWRoken.sol\":34491:34498  _amount */\n      dup5\n        /* \"contracts/BSWRoken.sol\":34447:34461  _moveDelegates */\n      tag_185\n        /* \"contracts/BSWRoken.sol\":34447:34499  _moveDelegates(address(0), _delegates[_to], _amount) */\n      jump\t// in\n    tag_184:\n        /* \"contracts/BSWRoken.sol\":34517:34521  true */\n      0x01\n        /* \"contracts/BSWRoken.sol\":34510:34521  return true */\n      swap1\n      pop\n        /* \"contracts/BSWRoken.sol\":34330:34529  function mint(address _to, uint256 _amount) public onlyMinter returns(bool) {\r... */\n      swap3\n      swap2\n      pop\n      pop\n      jump\t// out\n        /* \"contracts/BSWRoken.sol\":36530:36679  function delegates(address delegator)\r... */\n    tag_77:\n        /* \"contracts/BSWRoken.sol\":36618:36625  address */\n      0x00\n        /* \"contracts/BSWRoken.sol\":36650:36660  _delegates */\n      0x09\n        /* \"contracts/BSWRoken.sol\":36650:36671  _delegates[delegator] */\n      0x00\n        /* \"contracts/BSWRoken.sol\":36661:36670  delegator */\n      dup4\n        /* \"contracts/BSWRoken.sol\":36650:36671  _delegates[delegator] */\n      0xffffffffffffffffffffffffffffffffffffffff\n      and\n      0xffffffffffffffffffffffffffffffffffffffff\n      and\n      dup2\n      mstore\n      0x20\n      add\n      swap1\n      dup2\n      mstore\n      0x20\n      add\n      0x00\n      keccak256\n      0x00\n      swap1\n      sload\n      swap1\n      0x0100\n      exp\n      swap1\n      div\n      0xffffffffffffffffffffffffffffffffffffffff\n      and\n        /* \"contracts/BSWRoken.sol\":36643:36671  return _delegates[delegator] */\n      swap1\n      pop\n        /* \"contracts/BSWRoken.sol\":36530:36679  function delegates(address delegator)\r... */\n      swap2\n      swap1\n      pop\n      jump\t// out\n        /* \"contracts/BSWRoken.sol\":43841:44054  function getMinter(uint256 _index) public view onlyOwner returns (address){\r... */\n    tag_80:\n        /* \"contracts/BSWRoken.sol\":43907:43914  address */\n      0x00\n        /* \"contracts/BSWRoken.sol\":1300:1312  _msgSender() */\n      tag_188\n        /* \"contracts/BSWRoken.sol\":1300:1310  _msgSender */\n      tag_153\n        /* \"contracts/BSWRoken.sol\":1300:1312  _msgSender() */\n      jump\t// in\n    tag_188:\n        /* \"contracts/BSWRoken.sol\":1290:1312  _owner == _msgSender() */\n      0xffffffffffffffffffffffffffffffffffffffff\n      and\n        /* \"contracts/BSWRoken.sol\":1290:1296  _owner */\n      0x00\n      dup1\n      sload\n      swap1\n      0x0100\n      exp\n      swap1\n      div\n      0xffffffffffffffffffffffffffffffffffffffff\n      and\n        /* \"contracts/BSWRoken.sol\":1290:1312  _owner == _msgSender() */\n      0xffffffffffffffffffffffffffffffffffffffff\n      and\n      eq\n        /* \"contracts/BSWRoken.sol\":1282:1349  require(_owner == _msgSender(), 'Ownable: caller is not the owner') */\n      tag_189\n      jumpi\n      mload(0x40)\n      0x08c379a000000000000000000000000000000000000000000000000000000000\n      dup2\n      mstore\n      0x04\n      add\n      dup1\n      dup1\n      0x20\n      add\n      dup3\n      dup2\n      sub\n      dup3\n      mstore\n      0x20\n      dup2\n      mstore\n      0x20\n      add\n      dup1\n      0x4f776e61626c653a2063616c6c6572206973206e6f7420746865206f776e6572\n      dup2\n      mstore\n      pop\n      0x20\n      add\n      swap2\n      pop\n      pop\n      mload(0x40)\n      dup1\n      swap2\n      sub\n      swap1\n      revert\n    tag_189:\n        /* \"contracts/BSWRoken.sol\":43964:43965  1 */\n      0x01\n        /* \"contracts/BSWRoken.sol\":43944:43961  getMinterLength() */\n      tag_191\n        /* \"contracts/BSWRoken.sol\":43944:43959  getMinterLength */\n      tag_45\n        /* \"contracts/BSWRoken.sol\":43944:43961  getMinterLength() */\n      jump\t// in\n    tag_191:\n        /* \"contracts/BSWRoken.sol\":43944:43965  getMinterLength() - 1 */\n      sub\n        /* \"contracts/BSWRoken.sol\":43934:43940  _index */\n      dup3\n        /* \"contracts/BSWRoken.sol\":43934:43965  _index <= getMinterLength() - 1 */\n      gt\n      iszero\n        /* \"contracts/BSWRoken.sol\":43926:43994  require(_index <= getMinterLength() - 1, \"BSW: index out of bounds\") */\n      tag_192\n      jumpi\n      mload(0x40)\n      0x08c379a000000000000000000000000000000000000000000000000000000000\n      dup2\n      mstore\n      0x04\n      add\n      dup1\n      dup1\n      0x20\n      add\n      dup3\n      dup2\n      sub\n      dup3\n      mstore\n      0x18\n      dup2\n      mstore\n      0x20\n      add\n      dup1\n      0x4253573a20696e646578206f7574206f6620626f756e64730000000000000000\n      dup2\n      mstore\n      pop\n      0x20\n      add\n      swap2\n      pop\n      pop\n      mload(0x40)\n      dup1\n      swap2\n      sub\n      swap1\n      revert\n    tag_192:\n        /* \"contracts/BSWRoken.sol\":44012:44046  EnumerableSet.at(_minters, _index) */\n      tag_193\n        /* \"contracts/BSWRoken.sol\":44029:44037  _minters */\n      0x07\n        /* \"contracts/BSWRoken.sol\":44039:44045  _index */\n      dup4\n        /* \"contracts/BSWRoken.sol\":44012:44028  EnumerableSet.at */\n      tag_194\n        /* \"contracts/BSWRoken.sol\":44012:44046  EnumerableSet.at(_minters, _index) */\n      jump\t// in\n    tag_193:\n        /* \"contracts/BSWRoken.sol\":44005:44046  return EnumerableSet.at(_minters, _index) */\n      swap1\n      pop\n        /* \"contracts/BSWRoken.sol\":43841:44054  function getMinter(uint256 _index) public view onlyOwner returns (address){\r... */\n      swap2\n      swap1\n      pop\n      jump\t// out\n        /* \"contracts/BSWRoken.sol\":36823:36927  function delegate(address delegatee) external {\r... */\n    tag_83:\n        /* \"contracts/BSWRoken.sol\":36887:36919  _delegate(msg.sender, delegatee) */\n      tag_196\n        /* \"contracts/BSWRoken.sol\":36897:36907  msg.sender */\n      caller\n        /* \"contracts/BSWRoken.sol\":36909:36918  delegatee */\n      dup3\n        /* \"contracts/BSWRoken.sol\":36887:36896  _delegate */\n      tag_197\n        /* \"contracts/BSWRoken.sol\":36887:36919  _delegate(msg.sender, delegatee) */\n      jump\t// in\n    tag_196:\n        /* \"contracts/BSWRoken.sol\":36823:36927  function delegate(address delegatee) external {\r... */\n      pop\n      jump\t// out\n        /* \"contracts/BSWRoken.sol\":35425:35474  mapping (address => uint32) public numCheckpoints */\n    tag_86:\n      mstore(0x20, 0x0b)\n      dup1\n      0x00\n      mstore\n      keccak256(0x00, 0x40)\n      0x00\n      swap2\n      pop\n      sload\n      swap1\n      0x0100\n      exp\n      swap1\n      div\n      0xffffffff\n      and\n      dup2\n      jump\t// out\n        /* \"contracts/BSWRoken.sol\":19459:19578  function balanceOf(address account) public override view returns (uint256) {\r... */\n    tag_89:\n        /* \"contracts/BSWRoken.sol\":19525:19532  uint256 */\n      0x00\n        /* \"contracts/BSWRoken.sol\":19552:19561  _balances */\n      0x01\n        /* \"contracts/BSWRoken.sol\":19552:19570  _balances[account] */\n      0x00\n        /* \"contracts/BSWRoken.sol\":19562:19569  account */\n      dup4\n        /* \"contracts/BSWRoken.sol\":19552:19570  _balances[account] */\n      0xffffffffffffffffffffffffffffffffffffffff\n      and\n      0xffffffffffffffffffffffffffffffffffffffff\n      and\n      dup2\n      mstore\n      0x20\n      add\n      swap1\n      dup2\n      mstore\n      0x20\n      add\n      0x00\n      keccak256\n      sload\n        /* \"contracts/BSWRoken.sol\":19545:19570  return _balances[account] */\n      swap1\n      pop\n        /* \"contracts/BSWRoken.sol\":19459:19578  function balanceOf(address account) public override view returns (uint256) {\r... */\n      swap2\n      swap1\n      pop\n      jump\t// out\n        /* \"contracts/BSWRoken.sol\":1720:1860  function renounceOwnership() public onlyOwner {\r... */\n    tag_91:\n        /* \"contracts/BSWRoken.sol\":1300:1312  _msgSender() */\n      tag_200\n        /* \"contracts/BSWRoken.sol\":1300:1310  _msgSender */\n      tag_153\n        /* \"contracts/BSWRoken.sol\":1300:1312  _msgSender() */\n      jump\t// in\n    tag_200:\n        /* \"contracts/BSWRoken.sol\":1290:1312  _owner == _msgSender() */\n      0xffffffffffffffffffffffffffffffffffffffff\n      and\n        /* \"contracts/BSWRoken.sol\":1290:1296  _owner */\n      0x00\n      dup1\n      sload\n      swap1\n      0x0100\n      exp\n      swap1\n      div\n      0xffffffffffffffffffffffffffffffffffffffff\n      and\n        /* \"contracts/BSWRoken.sol\":1290:1312  _owner == _msgSender() */\n      0xffffffffffffffffffffffffffffffffffffffff\n      and\n      eq\n        /* \"contracts/BSWRoken.sol\":1282:1349  require(_owner == _msgSender(), 'Ownable: caller is not the owner') */\n      tag_201\n      jumpi\n      mload(0x40)\n      0x08c379a000000000000000000000000000000000000000000000000000000000\n      dup2\n      mstore\n      0x04\n      add\n      dup1\n      dup1\n      0x20\n      add\n      dup3\n      dup2\n      sub\n      dup3\n      mstore\n      0x20\n      dup2\n      mstore\n      0x20\n      add\n      dup1\n      0x4f776e61626c653a2063616c6c6572206973206e6f7420746865206f776e6572\n      dup2\n      mstore\n      pop\n      0x20\n      add\n      swap2\n      pop\n      pop\n      mload(0x40)\n      dup1\n      swap2\n      sub\n      swap1\n      revert\n    tag_201:\n        /* \"contracts/BSWRoken.sol\":1819:1820  0 */\n      0x00\n        /* \"contracts/BSWRoken.sol\":1782:1822  OwnershipTransferred(_owner, address(0)) */\n      0xffffffffffffffffffffffffffffffffffffffff\n      and\n        /* \"contracts/BSWRoken.sol\":1803:1809  _owner */\n      0x00\n      dup1\n      sload\n      swap1\n      0x0100\n      exp\n      swap1\n      div\n      0xffffffffffffffffffffffffffffffffffffffff\n      and\n        /* \"contracts/BSWRoken.sol\":1782:1822  OwnershipTransferred(_owner, address(0)) */\n      0xffffffffffffffffffffffffffffffffffffffff\n      and\n      0x8be0079c531659141344cd1fd0a4f28419497f9722a3daafe3b4186f6b6457e0\n      mload(0x40)\n      mload(0x40)\n      dup1\n      swap2\n      sub\n      swap1\n      log3\n        /* \"contracts/BSWRoken.sol\":1850:1851  0 */\n      0x00\n        /* \"contracts/BSWRoken.sol\":1833:1839  _owner */\n      dup1\n      0x00\n        /* \"contracts/BSWRoken.sol\":1833:1852  _owner = address(0) */\n      0x0100\n      exp\n      dup2\n      sload\n      dup2\n      0xffffffffffffffffffffffffffffffffffffffff\n      mul\n      not\n      and\n      swap1\n      dup4\n      0xffffffffffffffffffffffffffffffffffffffff\n      and\n      mul\n      or\n      swap1\n      sstore\n      pop\n        /* \"contracts/BSWRoken.sol\":1720:1860  function renounceOwnership() public onlyOwner {\r... */\n      jump\t// out\n        /* \"contracts/BSWRoken.sol\":39423:40675  function getPriorVotes(address account, uint blockNumber)\r... */\n    tag_94:\n        /* \"contracts/BSWRoken.sol\":39531:39538  uint256 */\n      0x00\n        /* \"contracts/BSWRoken.sol\":39578:39590  block.number */\n      number\n        /* \"contracts/BSWRoken.sol\":39564:39575  blockNumber */\n      dup3\n        /* \"contracts/BSWRoken.sol\":39564:39590  blockNumber < block.number */\n      lt\n        /* \"contracts/BSWRoken.sol\":39556:39633  require(blockNumber < block.number, \"BSW::getPriorVotes: not yet determined\") */\n      tag_204\n      jumpi\n      mload(0x40)\n      0x08c379a000000000000000000000000000000000000000000000000000000000\n      dup2\n      mstore\n      0x04\n      add\n      dup1\n      dup1\n      0x20\n      add\n      dup3\n      dup2\n      sub\n      dup3\n      mstore\n      0x26\n      dup2\n      mstore\n      0x20\n      add\n      dup1\n      data_8def8d0381903c4f0dbf90999bc5ad56605d7e39f13d8733a36481291d7b508c\n      0x26\n      swap2\n      codecopy\n      0x40\n      add\n      swap2\n      pop\n      pop\n      mload(0x40)\n      dup1\n      swap2\n      sub\n      swap1\n      revert\n    tag_204:\n        /* \"contracts/BSWRoken.sol\":39646:39665  uint32 nCheckpoints */\n      0x00\n        /* \"contracts/BSWRoken.sol\":39668:39682  numCheckpoints */\n      0x0b\n        /* \"contracts/BSWRoken.sol\":39668:39691  numCheckpoints[account] */\n      0x00\n        /* \"contracts/BSWRoken.sol\":39683:39690  account */\n      dup6\n        /* \"contracts/BSWRoken.sol\":39668:39691  numCheckpoints[account] */\n      0xffffffffffffffffffffffffffffffffffffffff\n      and\n      0xffffffffffffffffffffffffffffffffffffffff\n      and\n      dup2\n      mstore\n      0x20\n      add\n      swap1\n      dup2\n      mstore\n      0x20\n      add\n      0x00\n      keccak256\n      0x00\n      swap1\n      sload\n      swap1\n      0x0100\n      exp\n      swap1\n      div\n      0xffffffff\n      and\n        /* \"contracts/BSWRoken.sol\":39646:39691  uint32 nCheckpoints = numCheckpoints[account] */\n      swap1\n      pop\n        /* \"contracts/BSWRoken.sol\":39722:39723  0 */\n      0x00\n        /* \"contracts/BSWRoken.sol\":39706:39718  nCheckpoints */\n      dup2\n        /* \"contracts/BSWRoken.sol\":39706:39723  nCheckpoints == 0 */\n      0xffffffff\n      and\n      eq\n        /* \"contracts/BSWRoken.sol\":39702:39760  if (nCheckpoints == 0) {\r... */\n      iszero\n      tag_205\n      jumpi\n        /* \"contracts/BSWRoken.sol\":39747:39748  0 */\n      0x00\n        /* \"contracts/BSWRoken.sol\":39740:39748  return 0 */\n      swap2\n      pop\n      pop\n      jump(tag_203)\n        /* \"contracts/BSWRoken.sol\":39702:39760  if (nCheckpoints == 0) {\r... */\n    tag_205:\n        /* \"contracts/BSWRoken.sol\":39872:39883  blockNumber */\n      dup3\n        /* \"contracts/BSWRoken.sol\":39820:39831  checkpoints */\n      0x0a\n        /* \"contracts/BSWRoken.sol\":39820:39840  checkpoints[account] */\n      0x00\n        /* \"contracts/BSWRoken.sol\":39832:39839  account */\n      dup7\n        /* \"contracts/BSWRoken.sol\":39820:39840  checkpoints[account] */\n      0xffffffffffffffffffffffffffffffffffffffff\n      and\n      0xffffffffffffffffffffffffffffffffffffffff\n      and\n      dup2\n      mstore\n      0x20\n      add\n      swap1\n      dup2\n      mstore\n      0x20\n      add\n      0x00\n      keccak256\n        /* \"contracts/BSWRoken.sol\":39820:39858  checkpoints[account][nCheckpoints - 1] */\n      0x00\n        /* \"contracts/BSWRoken.sol\":39856:39857  1 */\n      0x01\n        /* \"contracts/BSWRoken.sol\":39841:39853  nCheckpoints */\n      dup5\n        /* \"contracts/BSWRoken.sol\":39841:39857  nCheckpoints - 1 */\n      sub\n        /* \"contracts/BSWRoken.sol\":39820:39858  checkpoints[account][nCheckpoints - 1] */\n      0xffffffff\n      and\n      0xffffffff\n      and\n      dup2\n      mstore\n      0x20\n      add\n      swap1\n      dup2\n      mstore\n      0x20\n      add\n      0x00\n      keccak256\n        /* \"contracts/BSWRoken.sol\":39820:39868  checkpoints[account][nCheckpoints - 1].fromBlock */\n      0x00\n      add\n      0x00\n      swap1\n      sload\n      swap1\n      0x0100\n      exp\n      swap1\n      div\n      0xffffffff\n      and\n        /* \"contracts/BSWRoken.sol\":39820:39883  checkpoints[account][nCheckpoints - 1].fromBlock <= blockNumber */\n      0xffffffff\n      and\n      gt\n        /* \"contracts/BSWRoken.sol\":39816:39963  if (checkpoints[account][nCheckpoints - 1].fromBlock <= blockNumber) {\r... */\n      tag_206\n      jumpi\n        /* \"contracts/BSWRoken.sol\":39907:39918  checkpoints */\n      0x0a\n        /* \"contracts/BSWRoken.sol\":39907:39927  checkpoints[account] */\n      0x00\n        /* \"contracts/BSWRoken.sol\":39919:39926  account */\n      dup6\n        /* \"contracts/BSWRoken.sol\":39907:39927  checkpoints[account] */\n      0xffffffffffffffffffffffffffffffffffffffff\n      and\n      0xffffffffffffffffffffffffffffffffffffffff\n      and\n      dup2\n      mstore\n      0x20\n      add\n      swap1\n      dup2\n      mstore\n      0x20\n      add\n      0x00\n      keccak256\n        /* \"contracts/BSWRoken.sol\":39907:39945  checkpoints[account][nCheckpoints - 1] */\n      0x00\n        /* \"contracts/BSWRoken.sol\":39943:39944  1 */\n      0x01\n        /* \"contracts/BSWRoken.sol\":39928:39940  nCheckpoints */\n      dup4\n        /* \"contracts/BSWRoken.sol\":39928:39944  nCheckpoints - 1 */\n      sub\n        /* \"contracts/BSWRoken.sol\":39907:39945  checkpoints[account][nCheckpoints - 1] */\n      0xffffffff\n      and\n      0xffffffff\n      and\n      dup2\n      mstore\n      0x20\n      add\n      swap1\n      dup2\n      mstore\n      0x20\n      add\n      0x00\n      keccak256\n        /* \"contracts/BSWRoken.sol\":39907:39951  checkpoints[account][nCheckpoints - 1].votes */\n      0x01\n      add\n      sload\n        /* \"contracts/BSWRoken.sol\":39900:39951  return checkpoints[account][nCheckpoints - 1].votes */\n      swap2\n      pop\n      pop\n      jump(tag_203)\n        /* \"contracts/BSWRoken.sol\":39816:39963  if (checkpoints[account][nCheckpoints - 1].fromBlock <= blockNumber) {\r... */\n    tag_206:\n        /* \"contracts/BSWRoken.sol\":40060:40071  blockNumber */\n      dup3\n        /* \"contracts/BSWRoken.sol\":40024:40035  checkpoints */\n      0x0a\n        /* \"contracts/BSWRoken.sol\":40024:40044  checkpoints[account] */\n      0x00\n        /* \"contracts/BSWRoken.sol\":40036:40043  account */\n      dup7\n        /* \"contracts/BSWRoken.sol\":40024:40044  checkpoints[account] */\n      0xffffffffffffffffffffffffffffffffffffffff\n      and\n      0xffffffffffffffffffffffffffffffffffffffff\n      and\n      dup2\n      mstore\n      0x20\n      add\n      swap1\n      dup2\n      mstore\n      0x20\n      add\n      0x00\n      keccak256\n        /* \"contracts/BSWRoken.sol\":40024:40047  checkpoints[account][0] */\n      0x00\n        /* \"contracts/BSWRoken.sol\":40045:40046  0 */\n      dup1\n        /* \"contracts/BSWRoken.sol\":40024:40047  checkpoints[account][0] */\n      0xffffffff\n      and\n      dup2\n      mstore\n      0x20\n      add\n      swap1\n      dup2\n      mstore\n      0x20\n      add\n      0x00\n      keccak256\n        /* \"contracts/BSWRoken.sol\":40024:40057  checkpoints[account][0].fromBlock */\n      0x00\n      add\n      0x00\n      swap1\n      sload\n      swap1\n      0x0100\n      exp\n      swap1\n      div\n      0xffffffff\n      and\n        /* \"contracts/BSWRoken.sol\":40024:40071  checkpoints[account][0].fromBlock > blockNumber */\n      0xffffffff\n      and\n      gt\n        /* \"contracts/BSWRoken.sol\":40020:40108  if (checkpoints[account][0].fromBlock > blockNumber) {\r... */\n      iszero\n      tag_207\n      jumpi\n        /* \"contracts/BSWRoken.sol\":40095:40096  0 */\n      0x00\n        /* \"contracts/BSWRoken.sol\":40088:40096  return 0 */\n      swap2\n      pop\n      pop\n      jump(tag_203)\n        /* \"contracts/BSWRoken.sol\":40020:40108  if (checkpoints[account][0].fromBlock > blockNumber) {\r... */\n    tag_207:\n        /* \"contracts/BSWRoken.sol\":40120:40132  uint32 lower */\n      0x00\n        /* \"contracts/BSWRoken.sol\":40147:40159  uint32 upper */\n      dup1\n        /* \"contracts/BSWRoken.sol\":40177:40178  1 */\n      0x01\n        /* \"contracts/BSWRoken.sol\":40162:40174  nCheckpoints */\n      dup4\n        /* \"contracts/BSWRoken.sol\":40162:40178  nCheckpoints - 1 */\n      sub\n        /* \"contracts/BSWRoken.sol\":40147:40178  uint32 upper = nCheckpoints - 1 */\n      swap1\n      pop\n        /* \"contracts/BSWRoken.sol\":40189:40617  while (upper > lower) {\r... */\n    tag_208:\n        /* \"contracts/BSWRoken.sol\":40204:40209  lower */\n      dup2\n        /* \"contracts/BSWRoken.sol\":40196:40209  upper > lower */\n      0xffffffff\n      and\n        /* \"contracts/BSWRoken.sol\":40196:40201  upper */\n      dup2\n        /* \"contracts/BSWRoken.sol\":40196:40209  upper > lower */\n      0xffffffff\n      and\n      gt\n        /* \"contracts/BSWRoken.sol\":40189:40617  while (upper > lower) {\r... */\n      iszero\n      tag_209\n      jumpi\n        /* \"contracts/BSWRoken.sol\":40226:40239  uint32 center */\n      0x00\n        /* \"contracts/BSWRoken.sol\":40268:40269  2 */\n      0x02\n        /* \"contracts/BSWRoken.sol\":40259:40264  lower */\n      dup4\n        /* \"contracts/BSWRoken.sol\":40251:40256  upper */\n      dup4\n        /* \"contracts/BSWRoken.sol\":40251:40264  upper - lower */\n      sub\n        /* \"contracts/BSWRoken.sol\":40250:40269  (upper - lower) / 2 */\n      0xffffffff\n      and\n      dup2\n      tag_210\n      jumpi\n      invalid\n    tag_210:\n      div\n        /* \"contracts/BSWRoken.sol\":40242:40247  upper */\n      dup3\n        /* \"contracts/BSWRoken.sol\":40242:40269  upper - (upper - lower) / 2 */\n      sub\n        /* \"contracts/BSWRoken.sol\":40226:40269  uint32 center = upper - (upper - lower) / 2 */\n      swap1\n      pop\n        /* \"contracts/BSWRoken.sol\":40311:40331  Checkpoint memory cp */\n      tag_211\n      tag_212\n      jump\t// in\n    tag_211:\n        /* \"contracts/BSWRoken.sol\":40334:40345  checkpoints */\n      0x0a\n        /* \"contracts/BSWRoken.sol\":40334:40354  checkpoints[account] */\n      0x00\n        /* \"contracts/BSWRoken.sol\":40346:40353  account */\n      dup10\n        /* \"contracts/BSWRoken.sol\":40334:40354  checkpoints[account] */\n      0xffffffffffffffffffffffffffffffffffffffff\n      and\n      0xffffffffffffffffffffffffffffffffffffffff\n      and\n      dup2\n      mstore\n      0x20\n      add\n      swap1\n      dup2\n      mstore\n      0x20\n      add\n      0x00\n      keccak256\n        /* \"contracts/BSWRoken.sol\":40334:40362  checkpoints[account][center] */\n      0x00\n        /* \"contracts/BSWRoken.sol\":40355:40361  center */\n      dup4\n        /* \"contracts/BSWRoken.sol\":40334:40362  checkpoints[account][center] */\n      0xffffffff\n      and\n      0xffffffff\n      and\n      dup2\n      mstore\n      0x20\n      add\n      swap1\n      dup2\n      mstore\n      0x20\n      add\n      0x00\n      keccak256\n        /* \"contracts/BSWRoken.sol\":40311:40362  Checkpoint memory cp = checkpoints[account][center] */\n      mload(0x40)\n      dup1\n      0x40\n      add\n      0x40\n      mstore\n      swap1\n      dup2\n      0x00\n      dup3\n      add\n      0x00\n      swap1\n      sload\n      swap1\n      0x0100\n      exp\n      swap1\n      div\n      0xffffffff\n      and\n      0xffffffff\n      and\n      0xffffffff\n      and\n      dup2\n      mstore\n      0x20\n      add\n      0x01\n      dup3\n      add\n      sload\n      dup2\n      mstore\n      pop\n      pop\n      swap1\n      pop\n        /* \"contracts/BSWRoken.sol\":40397:40408  blockNumber */\n      dup7\n        /* \"contracts/BSWRoken.sol\":40381:40383  cp */\n      dup2\n        /* \"contracts/BSWRoken.sol\":40381:40393  cp.fromBlock */\n      0x00\n      add\n      mload\n        /* \"contracts/BSWRoken.sol\":40381:40408  cp.fromBlock == blockNumber */\n      0xffffffff\n      and\n      eq\n        /* \"contracts/BSWRoken.sol\":40377:40606  if (cp.fromBlock == blockNumber) {\r... */\n      iszero\n      tag_213\n      jumpi\n        /* \"contracts/BSWRoken.sol\":40436:40438  cp */\n      dup1\n        /* \"contracts/BSWRoken.sol\":40436:40444  cp.votes */\n      0x20\n      add\n      mload\n        /* \"contracts/BSWRoken.sol\":40429:40444  return cp.votes */\n      swap6\n      pop\n      pop\n      pop\n      pop\n      pop\n      pop\n      jump(tag_203)\n        /* \"contracts/BSWRoken.sol\":40377:40606  if (cp.fromBlock == blockNumber) {\r... */\n    tag_213:\n        /* \"contracts/BSWRoken.sol\":40485:40496  blockNumber */\n      dup7\n        /* \"contracts/BSWRoken.sol\":40470:40472  cp */\n      dup2\n        /* \"contracts/BSWRoken.sol\":40470:40482  cp.fromBlock */\n      0x00\n      add\n      mload\n        /* \"contracts/BSWRoken.sol\":40470:40496  cp.fromBlock < blockNumber */\n      0xffffffff\n      and\n      lt\n        /* \"contracts/BSWRoken.sol\":40466:40606  if (cp.fromBlock < blockNumber) {\r... */\n      iszero\n      tag_215\n      jumpi\n        /* \"contracts/BSWRoken.sol\":40525:40531  center */\n      dup2\n        /* \"contracts/BSWRoken.sol\":40517:40531  lower = center */\n      swap4\n      pop\n        /* \"contracts/BSWRoken.sol\":40466:40606  if (cp.fromBlock < blockNumber) {\r... */\n      jump(tag_216)\n    tag_215:\n        /* \"contracts/BSWRoken.sol\":40589:40590  1 */\n      0x01\n        /* \"contracts/BSWRoken.sol\":40580:40586  center */\n      dup3\n        /* \"contracts/BSWRoken.sol\":40580:40590  center - 1 */\n      sub\n        /* \"contracts/BSWRoken.sol\":40572:40590  upper = center - 1 */\n      swap3\n      pop\n        /* \"contracts/BSWRoken.sol\":40466:40606  if (cp.fromBlock < blockNumber) {\r... */\n    tag_216:\n        /* \"contracts/BSWRoken.sol\":40189:40617  while (upper > lower) {\r... */\n      pop\n      pop\n      jump(tag_208)\n    tag_209:\n        /* \"contracts/BSWRoken.sol\":40634:40645  checkpoints */\n      0x0a\n        /* \"contracts/BSWRoken.sol\":40634:40654  checkpoints[account] */\n      0x00\n        /* \"contracts/BSWRoken.sol\":40646:40653  account */\n      dup8\n        /* \"contracts/BSWRoken.sol\":40634:40654  checkpoints[account] */\n      0xffffffffffffffffffffffffffffffffffffffff\n      and\n      0xffffffffffffffffffffffffffffffffffffffff\n      and\n      dup2\n      mstore\n      0x20\n      add\n      swap1\n      dup2\n      mstore\n      0x20\n      add\n      0x00\n      keccak256\n        /* \"contracts/BSWRoken.sol\":40634:40661  checkpoints[account][lower] */\n      0x00\n        /* \"contracts/BSWRoken.sol\":40655:40660  lower */\n      dup4\n        /* \"contracts/BSWRoken.sol\":40634:40661  checkpoints[account][lower] */\n      0xffffffff\n      and\n      0xffffffff\n      and\n      dup2\n      mstore\n      0x20\n      add\n      swap1\n      dup2\n      mstore\n      0x20\n      add\n      0x00\n      keccak256\n        /* \"contracts/BSWRoken.sol\":40634:40667  checkpoints[account][lower].votes */\n      0x01\n      add\n      sload\n        /* \"contracts/BSWRoken.sol\":40627:40667  return checkpoints[account][lower].votes */\n      swap4\n      pop\n      pop\n      pop\n      pop\n        /* \"contracts/BSWRoken.sol\":39423:40675  function getPriorVotes(address account, uint blockNumber)\r... */\n    tag_203:\n      swap3\n      swap2\n      pop\n      pop\n      jump\t// out\n        /* \"contracts/BSWRoken.sol\":35961:36000  mapping (address => uint) public nonces */\n    tag_97:\n      mstore(0x20, 0x0c)\n      dup1\n      0x00\n      mstore\n      keccak256(0x00, 0x40)\n      0x00\n      swap2\n      pop\n      swap1\n      pop\n      sload\n      dup2\n      jump\t// out\n        /* \"contracts/BSWRoken.sol\":18448:18542  function getOwner() external override view returns (address) {\r... */\n    tag_99:\n        /* \"contracts/BSWRoken.sol\":18500:18507  address */\n      0x00\n        /* \"contracts/BSWRoken.sol\":18527:18534  owner() */\n      tag_218\n        /* \"contracts/BSWRoken.sol\":18527:18532  owner */\n      tag_101\n        /* \"contracts/BSWRoken.sol\":18527:18534  owner() */\n      jump\t// in\n    tag_218:\n        /* \"contracts/BSWRoken.sol\":18520:18534  return owner() */\n      swap1\n      pop\n        /* \"contracts/BSWRoken.sol\":18448:18542  function getOwner() external override view returns (address) {\r... */\n      swap1\n      jump\t// out\n        /* \"contracts/BSWRoken.sol\":1078:1157  function owner() public view returns (address) {\r... */\n    tag_101:\n        /* \"contracts/BSWRoken.sol\":1116:1123  address */\n      0x00\n        /* \"contracts/BSWRoken.sol\":1143:1149  _owner */\n      dup1\n      0x00\n      swap1\n      sload\n      swap1\n      0x0100\n      exp\n      swap1\n      div\n      0xffffffffffffffffffffffffffffffffffffffff\n      and\n        /* \"contracts/BSWRoken.sol\":1136:1149  return _owner */\n      swap1\n      pop\n        /* \"contracts/BSWRoken.sol\":1078:1157  function owner() public view returns (address) {\r... */\n      swap1\n      jump\t// out\n        /* \"contracts/BSWRoken.sol\":18921:19017  function symbol() public override view returns (string memory) {\r... */\n    tag_103:\n        /* \"contracts/BSWRoken.sol\":18969:18982  string memory */\n      0x60\n        /* \"contracts/BSWRoken.sol\":19002:19009  _symbol */\n      0x05\n        /* \"contracts/BSWRoken.sol\":18995:19009  return _symbol */\n      dup1\n      sload\n      0x01\n      dup2\n      0x01\n      and\n      iszero\n      0x0100\n      mul\n      sub\n      and\n      0x02\n      swap1\n      div\n      dup1\n      0x1f\n      add\n      0x20\n      dup1\n      swap2\n      div\n      mul\n      0x20\n      add\n      mload(0x40)\n      swap1\n      dup2\n      add\n      0x40\n      mstore\n      dup1\n      swap3\n      swap2\n      swap1\n      dup2\n      dup2\n      mstore\n      0x20\n      add\n      dup3\n      dup1\n      sload\n      0x01\n      dup2\n      0x01\n      and\n      iszero\n      0x0100\n      mul\n      sub\n      and\n      0x02\n      swap1\n      div\n      dup1\n      iszero\n      tag_221\n      jumpi\n      dup1\n      0x1f\n      lt\n      tag_222\n      jumpi\n      0x0100\n      dup1\n      dup4\n      sload\n      div\n      mul\n      dup4\n      mstore\n      swap2\n      0x20\n      add\n      swap2\n      jump(tag_221)\n    tag_222:\n      dup3\n      add\n      swap2\n      swap1\n      0x00\n      mstore\n      keccak256(0x00, 0x20)\n      swap1\n    tag_223:\n      dup2\n      sload\n      dup2\n      mstore\n      swap1\n      0x01\n      add\n      swap1\n      0x20\n      add\n      dup1\n      dup4\n      gt\n      tag_223\n      jumpi\n      dup3\n      swap1\n      sub\n      0x1f\n      and\n      dup3\n      add\n      swap2\n    tag_221:\n      pop\n      pop\n      pop\n      pop\n      pop\n      swap1\n      pop\n        /* \"contracts/BSWRoken.sol\":18921:19017  function symbol() public override view returns (string memory) {\r... */\n      swap1\n      jump\t// out\n        /* \"contracts/BSWRoken.sol\":43126:43345  function addMinter(address _addMinter) public onlyOwner returns (bool) {\r... */\n    tag_110:\n        /* \"contracts/BSWRoken.sol\":43191:43195  bool */\n      0x00\n        /* \"contracts/BSWRoken.sol\":1300:1312  _msgSender() */\n      tag_225\n        /* \"contracts/BSWRoken.sol\":1300:1310  _msgSender */\n      tag_153\n        /* \"contracts/BSWRoken.sol\":1300:1312  _msgSender() */\n      jump\t// in\n    tag_225:\n        /* \"contracts/BSWRoken.sol\":1290:1312  _owner == _msgSender() */\n      0xffffffffffffffffffffffffffffffffffffffff\n      and\n        /* \"contracts/BSWRoken.sol\":1290:1296  _owner */\n      0x00\n      dup1\n      sload\n      swap1\n      0x0100\n      exp\n      swap1\n      div\n      0xffffffffffffffffffffffffffffffffffffffff\n      and\n        /* \"contracts/BSWRoken.sol\":1290:1312  _owner == _msgSender() */\n      0xffffffffffffffffffffffffffffffffffffffff\n      and\n      eq\n        /* \"contracts/BSWRoken.sol\":1282:1349  require(_owner == _msgSender(), 'Ownable: caller is not the owner') */\n      tag_226\n      jumpi\n      mload(0x40)\n      0x08c379a000000000000000000000000000000000000000000000000000000000\n      dup2\n      mstore\n      0x04\n      add\n      dup1\n      dup1\n      0x20\n      add\n      dup3\n      dup2\n      sub\n      dup3\n      mstore\n      0x20\n      dup2\n      mstore\n      0x20\n      add\n      dup1\n      0x4f776e61626c653a2063616c6c6572206973206e6f7420746865206f776e6572\n      dup2\n      mstore\n      pop\n      0x20\n      add\n      swap2\n      pop\n      pop\n      mload(0x40)\n      dup1\n      swap2\n      sub\n      swap1\n      revert\n    tag_226:\n        /* \"contracts/BSWRoken.sol\":43238:43239  0 */\n      0x00\n        /* \"contracts/BSWRoken.sol\":43216:43240  _addMinter != address(0) */\n      0xffffffffffffffffffffffffffffffffffffffff\n      and\n        /* \"contracts/BSWRoken.sol\":43216:43226  _addMinter */\n      dup3\n        /* \"contracts/BSWRoken.sol\":43216:43240  _addMinter != address(0) */\n      0xffffffffffffffffffffffffffffffffffffffff\n      and\n      eq\n      iszero\n        /* \"contracts/BSWRoken.sol\":43208:43280  require(_addMinter != address(0), \"BSW: _addMinter is the zero address\") */\n      tag_228\n      jumpi\n      mload(0x40)\n      0x08c379a000000000000000000000000000000000000000000000000000000000\n      dup2\n      mstore\n      0x04\n      add\n      dup1\n      dup1\n      0x20\n      add\n      dup3\n      dup2\n      sub\n      dup3\n      mstore\n      0x23\n      dup2\n      mstore\n      0x20\n      add\n      dup1\n      data_3dd27a27b94ffd192d4e2ab35c3ee897ae55a9b9f645b350654babd2acfbfa00\n      0x23\n      swap2\n      codecopy\n      0x40\n      add\n      swap2\n      pop\n      pop\n      mload(0x40)\n      dup1\n      swap2\n      sub\n      swap1\n      revert\n    tag_228:\n        /* \"contracts/BSWRoken.sol\":43298:43337  EnumerableSet.add(_minters, _addMinter) */\n      tag_229\n        /* \"contracts/BSWRoken.sol\":43316:43324  _minters */\n      0x07\n        /* \"contracts/BSWRoken.sol\":43326:43336  _addMinter */\n      dup4\n        /* \"contracts/BSWRoken.sol\":43298:43315  EnumerableSet.add */\n      tag_230\n        /* \"contracts/BSWRoken.sol\":43298:43337  EnumerableSet.add(_minters, _addMinter) */\n      jump\t// in\n    tag_229:\n        /* \"contracts/BSWRoken.sol\":43291:43337  return EnumerableSet.add(_minters, _addMinter) */\n      swap1\n      pop\n        /* \"contracts/BSWRoken.sol\":43126:43345  function addMinter(address _addMinter) public onlyOwner returns (bool) {\r... */\n      swap2\n      swap1\n      pop\n      jump\t// out\n        /* \"contracts/BSWRoken.sol\":22986:23116  function mint(uint256 amount) public onlyOwner returns (bool) {\r... */\n    tag_113:\n        /* \"contracts/BSWRoken.sol\":23042:23046  bool */\n      0x00\n        /* \"contracts/BSWRoken.sol\":1300:1312  _msgSender() */\n      tag_232\n        /* \"contracts/BSWRoken.sol\":1300:1310  _msgSender */\n      tag_153\n        /* \"contracts/BSWRoken.sol\":1300:1312  _msgSender() */\n      jump\t// in\n    tag_232:\n        /* \"contracts/BSWRoken.sol\":1290:1312  _owner == _msgSender() */\n      0xffffffffffffffffffffffffffffffffffffffff\n      and\n        /* \"contracts/BSWRoken.sol\":1290:1296  _owner */\n      0x00\n      dup1\n      sload\n      swap1\n      0x0100\n      exp\n      swap1\n      div\n      0xffffffffffffffffffffffffffffffffffffffff\n      and\n        /* \"contracts/BSWRoken.sol\":1290:1312  _owner == _msgSender() */\n      0xffffffffffffffffffffffffffffffffffffffff\n      and\n      eq\n        /* \"contracts/BSWRoken.sol\":1282:1349  require(_owner == _msgSender(), 'Ownable: caller is not the owner') */\n      tag_233\n      jumpi\n      mload(0x40)\n      0x08c379a000000000000000000000000000000000000000000000000000000000\n      dup2\n      mstore\n      0x04\n      add\n      dup1\n      dup1\n      0x20\n      add\n      dup3\n      dup2\n      sub\n      dup3\n      mstore\n      0x20\n      dup2\n      mstore\n      0x20\n      add\n      dup1\n      0x4f776e61626c653a2063616c6c6572206973206e6f7420746865206f776e6572\n      dup2\n      mstore\n      pop\n      0x20\n      add\n      swap2\n      pop\n      pop\n      mload(0x40)\n      dup1\n      swap2\n      sub\n      swap1\n      revert\n    tag_233:\n        /* \"contracts/BSWRoken.sol\":23059:23086  _mint(_msgSender(), amount) */\n      tag_235\n        /* \"contracts/BSWRoken.sol\":23065:23077  _msgSender() */\n      tag_236\n        /* \"contracts/BSWRoken.sol\":23065:23075  _msgSender */\n      tag_153\n        /* \"contracts/BSWRoken.sol\":23065:23077  _msgSender() */\n      jump\t// in\n    tag_236:\n        /* \"contracts/BSWRoken.sol\":23079:23085  amount */\n      dup4\n        /* \"contracts/BSWRoken.sol\":23059:23064  _mint */\n      tag_183\n        /* \"contracts/BSWRoken.sol\":23059:23086  _mint(_msgSender(), amount) */\n      jump\t// in\n    tag_235:\n      pop\n        /* \"contracts/BSWRoken.sol\":23104:23108  true */\n      0x01\n        /* \"contracts/BSWRoken.sol\":23097:23108  return true */\n      swap1\n      pop\n        /* \"contracts/BSWRoken.sol\":22986:23116  function mint(uint256 amount) public onlyOwner returns (bool) {\r... */\n      swap2\n      swap1\n      pop\n      jump\t// out\n        /* \"contracts/BSWRoken.sol\":22457:22768  function decreaseAllowance(address spender, uint256 subtractedValue) public returns (bool) {\r... */\n    tag_116:\n        /* \"contracts/BSWRoken.sol\":22542:22546  bool */\n      0x00\n        /* \"contracts/BSWRoken.sol\":22559:22738  _approve(\r... */\n      tag_238\n        /* \"contracts/BSWRoken.sol\":22582:22594  _msgSender() */\n      tag_239\n        /* \"contracts/BSWRoken.sol\":22582:22592  _msgSender */\n      tag_153\n        /* \"contracts/BSWRoken.sol\":22582:22594  _msgSender() */\n      jump\t// in\n    tag_239:\n        /* \"contracts/BSWRoken.sol\":22609:22616  spender */\n      dup5\n        /* \"contracts/BSWRoken.sol\":22631:22727  _allowances[_msgSender()][spender].sub(subtractedValue, 'BEP20: decreased allowance below zero') */\n      tag_240\n        /* \"contracts/BSWRoken.sol\":22670:22685  subtractedValue */\n      dup6\n        /* \"contracts/BSWRoken.sol\":22631:22727  _allowances[_msgSender()][spender].sub(subtractedValue, 'BEP20: decreased allowance below zero') */\n      mload(0x40)\n      dup1\n      0x60\n      add\n      0x40\n      mstore\n      dup1\n      0x25\n      dup2\n      mstore\n      0x20\n      add\n      data_b7060b3538dcd3ddc8a941c91636a8115a1aa46914747fd9809d543bbb46cd22\n      0x25\n      swap2\n      codecopy\n        /* \"contracts/BSWRoken.sol\":22631:22642  _allowances */\n      0x02\n        /* \"contracts/BSWRoken.sol\":22631:22656  _allowances[_msgSender()] */\n      0x00\n        /* \"contracts/BSWRoken.sol\":22643:22655  _msgSender() */\n      tag_241\n        /* \"contracts/BSWRoken.sol\":22643:22653  _msgSender */\n      tag_153\n        /* \"contracts/BSWRoken.sol\":22643:22655  _msgSender() */\n      jump\t// in\n    tag_241:\n        /* \"contracts/BSWRoken.sol\":22631:22656  _allowances[_msgSender()] */\n      0xffffffffffffffffffffffffffffffffffffffff\n      and\n      0xffffffffffffffffffffffffffffffffffffffff\n      and\n      dup2\n      mstore\n      0x20\n      add\n      swap1\n      dup2\n      mstore\n      0x20\n      add\n      0x00\n      keccak256\n        /* \"contracts/BSWRoken.sol\":22631:22665  _allowances[_msgSender()][spender] */\n      0x00\n        /* \"contracts/BSWRoken.sol\":22657:22664  spender */\n      dup11\n        /* \"contracts/BSWRoken.sol\":22631:22665  _allowances[_msgSender()][spender] */\n      0xffffffffffffffffffffffffffffffffffffffff\n      and\n      0xffffffffffffffffffffffffffffffffffffffff\n      and\n      dup2\n      mstore\n      0x20\n      add\n      swap1\n      dup2\n      mstore\n      0x20\n      add\n      0x00\n      keccak256\n      sload\n        /* \"contracts/BSWRoken.sol\":22631:22669  _allowances[_msgSender()][spender].sub */\n      tag_171\n      swap1\n        /* \"contracts/BSWRoken.sol\":22631:22727  _allowances[_msgSender()][spender].sub(subtractedValue, 'BEP20: decreased allowance below zero') */\n      swap3\n      swap2\n      swap1\n      0xffffffff\n      and\n      jump\t// in\n    tag_240:\n        /* \"contracts/BSWRoken.sol\":22559:22567  _approve */\n      tag_154\n        /* \"contracts/BSWRoken.sol\":22559:22738  _approve(\r... */\n      jump\t// in\n    tag_238:\n        /* \"contracts/BSWRoken.sol\":22756:22760  true */\n      0x01\n        /* \"contracts/BSWRoken.sol\":22749:22760  return true */\n      swap1\n      pop\n        /* \"contracts/BSWRoken.sol\":22457:22768  function decreaseAllowance(address spender, uint256 subtractedValue) public returns (bool) {\r... */\n      swap3\n      swap2\n      pop\n      pop\n      jump\t// out\n        /* \"contracts/BSWRoken.sol\":19790:19957  function transfer(address recipient, uint256 amount) public override returns (bool) {\r... */\n    tag_119:\n        /* \"contracts/BSWRoken.sol\":19868:19872  bool */\n      0x00\n        /* \"contracts/BSWRoken.sol\":19885:19927  _transfer(_msgSender(), recipient, amount) */\n      tag_243\n        /* \"contracts/BSWRoken.sol\":19895:19907  _msgSender() */\n      tag_244\n        /* \"contracts/BSWRoken.sol\":19895:19905  _msgSender */\n      tag_153\n        /* \"contracts/BSWRoken.sol\":19895:19907  _msgSender() */\n      jump\t// in\n    tag_244:\n        /* \"contracts/BSWRoken.sol\":19909:19918  recipient */\n      dup5\n        /* \"contracts/BSWRoken.sol\":19920:19926  amount */\n      dup5\n        /* \"contracts/BSWRoken.sol\":19885:19894  _transfer */\n      tag_166\n        /* \"contracts/BSWRoken.sol\":19885:19927  _transfer(_msgSender(), recipient, amount) */\n      jump\t// in\n    tag_243:\n        /* \"contracts/BSWRoken.sol\":19945:19949  true */\n      0x01\n        /* \"contracts/BSWRoken.sol\":19938:19949  return true */\n      swap1\n      pop\n        /* \"contracts/BSWRoken.sol\":19790:19957  function transfer(address recipient, uint256 amount) public override returns (bool) {\r... */\n      swap3\n      swap2\n      pop\n      pop\n      jump\t// out\n        /* \"contracts/BSWRoken.sol\":43704:43833  function isMinter(address account) public view returns (bool) {\r... */\n    tag_122:\n        /* \"contracts/BSWRoken.sol\":43760:43764  bool */\n      0x00\n        /* \"contracts/BSWRoken.sol\":43784:43825  EnumerableSet.contains(_minters, account) */\n      tag_246\n        /* \"contracts/BSWRoken.sol\":43807:43815  _minters */\n      0x07\n        /* \"contracts/BSWRoken.sol\":43817:43824  account */\n      dup4\n        /* \"contracts/BSWRoken.sol\":43784:43806  EnumerableSet.contains */\n      tag_247\n        /* \"contracts/BSWRoken.sol\":43784:43825  EnumerableSet.contains(_minters, account) */\n      jump\t// in\n    tag_246:\n        /* \"contracts/BSWRoken.sol\":43777:43825  return EnumerableSet.contains(_minters, account) */\n      swap1\n      pop\n        /* \"contracts/BSWRoken.sol\":43704:43833  function isMinter(address account) public view returns (bool) {\r... */\n      swap2\n      swap1\n      pop\n      jump\t// out\n        /* \"contracts/BSWRoken.sol\":38737:38992  function getCurrentVotes(address account)\r... */\n    tag_125:\n        /* \"contracts/BSWRoken.sol\":38829:38836  uint256 */\n      0x00\n        /* \"contracts/BSWRoken.sol\":38854:38873  uint32 nCheckpoints */\n      dup1\n        /* \"contracts/BSWRoken.sol\":38876:38890  numCheckpoints */\n      0x0b\n        /* \"contracts/BSWRoken.sol\":38876:38899  numCheckpoints[account] */\n      0x00\n        /* \"contracts/BSWRoken.sol\":38891:38898  account */\n      dup5\n        /* \"contracts/BSWRoken.sol\":38876:38899  numCheckpoints[account] */\n      0xffffffffffffffffffffffffffffffffffffffff\n      and\n      0xffffffffffffffffffffffffffffffffffffffff\n      and\n      dup2\n      mstore\n      0x20\n      add\n      swap1\n      dup2\n      mstore\n      0x20\n      add\n      0x00\n      keccak256\n      0x00\n      swap1\n      sload\n      swap1\n      0x0100\n      exp\n      swap1\n      div\n      0xffffffff\n      and\n        /* \"contracts/BSWRoken.sol\":38854:38899  uint32 nCheckpoints = numCheckpoints[account] */\n      swap1\n      pop\n        /* \"contracts/BSWRoken.sol\":38932:38933  0 */\n      0x00\n        /* \"contracts/BSWRoken.sol\":38917:38929  nCheckpoints */\n      dup2\n        /* \"contracts/BSWRoken.sol\":38917:38933  nCheckpoints > 0 */\n      0xffffffff\n      and\n      gt\n        /* \"contracts/BSWRoken.sol\":38917:38984  nCheckpoints > 0 ? checkpoints[account][nCheckpoints - 1].votes : 0 */\n      tag_249\n      jumpi\n        /* \"contracts/BSWRoken.sol\":38983:38984  0 */\n      0x00\n        /* \"contracts/BSWRoken.sol\":38917:38984  nCheckpoints > 0 ? checkpoints[account][nCheckpoints - 1].votes : 0 */\n      jump(tag_250)\n    tag_249:\n        /* \"contracts/BSWRoken.sol\":38936:38947  checkpoints */\n      0x0a\n        /* \"contracts/BSWRoken.sol\":38936:38956  checkpoints[account] */\n      0x00\n        /* \"contracts/BSWRoken.sol\":38948:38955  account */\n      dup5\n        /* \"contracts/BSWRoken.sol\":38936:38956  checkpoints[account] */\n      0xffffffffffffffffffffffffffffffffffffffff\n      and\n      0xffffffffffffffffffffffffffffffffffffffff\n      and\n      dup2\n      mstore\n      0x20\n      add\n      swap1\n      dup2\n      mstore\n      0x20\n      add\n      0x00\n      keccak256\n        /* \"contracts/BSWRoken.sol\":38936:38974  checkpoints[account][nCheckpoints - 1] */\n      0x00\n        /* \"contracts/BSWRoken.sol\":38972:38973  1 */\n      0x01\n        /* \"contracts/BSWRoken.sol\":38957:38969  nCheckpoints */\n      dup4\n        /* \"contracts/BSWRoken.sol\":38957:38973  nCheckpoints - 1 */\n      sub\n        /* \"contracts/BSWRoken.sol\":38936:38974  checkpoints[account][nCheckpoints - 1] */\n      0xffffffff\n      and\n      0xffffffff\n      and\n      dup2\n      mstore\n      0x20\n      add\n      swap1\n      dup2\n      mstore\n      0x20\n      add\n      0x00\n      keccak256\n        /* \"contracts/BSWRoken.sol\":38936:38980  checkpoints[account][nCheckpoints - 1].votes */\n      0x01\n      add\n      sload\n        /* \"contracts/BSWRoken.sol\":38917:38984  nCheckpoints > 0 ? checkpoints[account][nCheckpoints - 1].votes : 0 */\n    tag_250:\n        /* \"contracts/BSWRoken.sol\":38910:38984  return nCheckpoints > 0 ? checkpoints[account][nCheckpoints - 1].votes : 0 */\n      swap2\n      pop\n      pop\n        /* \"contracts/BSWRoken.sol\":38737:38992  function getCurrentVotes(address account)\r... */\n      swap2\n      swap1\n      pop\n      jump\t// out\n        /* \"contracts/BSWRoken.sol\":37361:38536  function delegateBySig(\r... */\n    tag_128:\n        /* \"contracts/BSWRoken.sol\":37554:37577  bytes32 domainSeparator */\n      0x00\n        /* \"contracts/BSWRoken.sol\":35589:35669  keccak256(\"EIP712Domain(string name,uint256 chainId,address verifyingContract)\") */\n      0x8cad95687ba82c2ce50e74f7b754645e5117c3a5bec8151c0726d5857980a866\n        /* \"contracts/BSWRoken.sol\":37683:37689  name() */\n      tag_252\n        /* \"contracts/BSWRoken.sol\":37683:37687  name */\n      tag_47\n        /* \"contracts/BSWRoken.sol\":37683:37689  name() */\n      jump\t// in\n    tag_252:\n        /* \"contracts/BSWRoken.sol\":37667:37691  keccak256(bytes(name())) */\n      dup1\n      mload\n      swap1\n      0x20\n      add\n      keccak256\n        /* \"contracts/BSWRoken.sol\":37710:37722  getChainId() */\n      tag_253\n        /* \"contracts/BSWRoken.sol\":37710:37720  getChainId */\n      tag_254\n        /* \"contracts/BSWRoken.sol\":37710:37722  getChainId() */\n      jump\t// in\n    tag_253:\n        /* \"contracts/BSWRoken.sol\":37749:37753  this */\n      address\n        /* \"contracts/BSWRoken.sol\":37604:37769  abi.encode(\r... */\n      add(0x20, mload(0x40))\n      dup1\n      dup6\n      dup2\n      mstore\n      0x20\n      add\n      dup5\n      dup2\n      mstore\n      0x20\n      add\n      dup4\n      dup2\n      mstore\n      0x20\n      add\n      dup3\n      0xffffffffffffffffffffffffffffffffffffffff\n      and\n      dup2\n      mstore\n      0x20\n      add\n      swap5\n      pop\n      pop\n      pop\n      pop\n      pop\n      mload(0x40)\n      0x20\n      dup2\n      dup4\n      sub\n      sub\n      dup2\n      mstore\n      swap1\n      0x40\n      mstore\n        /* \"contracts/BSWRoken.sol\":37580:37780  keccak256(\r... */\n      dup1\n      mload\n      swap1\n      0x20\n      add\n      keccak256\n        /* \"contracts/BSWRoken.sol\":37554:37780  bytes32 domainSeparator = keccak256(\r... */\n      swap1\n      pop\n        /* \"contracts/BSWRoken.sol\":37793:37811  bytes32 structHash */\n      0x00\n        /* \"contracts/BSWRoken.sol\":35809:35880  keccak256(\"Delegation(address delegatee,uint256 nonce,uint256 expiry)\") */\n      0xe48329057bfd03d55e49b547132e39cffd9c1820ad7b9d4c5307691425d15adf\n        /* \"contracts/BSWRoken.sol\":37905:37914  delegatee */\n      dup9\n        /* \"contracts/BSWRoken.sol\":37933:37938  nonce */\n      dup9\n        /* \"contracts/BSWRoken.sol\":37957:37963  expiry */\n      dup9\n        /* \"contracts/BSWRoken.sol\":37838:37978  abi.encode(\r... */\n      add(0x20, mload(0x40))\n      dup1\n      dup6\n      dup2\n      mstore\n      0x20\n      add\n      dup5\n      0xffffffffffffffffffffffffffffffffffffffff\n      and\n      dup2\n      mstore\n      0x20\n      add\n      dup4\n      dup2\n      mstore\n      0x20\n      add\n      dup3\n      dup2\n      mstore\n      0x20\n      add\n      swap5\n      pop\n      pop\n      pop\n      pop\n      pop\n      mload(0x40)\n      0x20\n      dup2\n      dup4\n      sub\n      sub\n      dup2\n      mstore\n      swap1\n      0x40\n      mstore\n        /* \"contracts/BSWRoken.sol\":37814:37989  keccak256(\r... */\n      dup1\n      mload\n      swap1\n      0x20\n      add\n      keccak256\n        /* \"contracts/BSWRoken.sol\":37793:37989  bytes32 structHash = keccak256(\r... */\n      swap1\n      pop\n        /* \"contracts/BSWRoken.sol\":38002:38016  bytes32 digest */\n      0x00\n        /* \"contracts/BSWRoken.sol\":38107:38122  domainSeparator */\n      dup3\n        /* \"contracts/BSWRoken.sol\":38141:38151  structHash */\n      dup3\n        /* \"contracts/BSWRoken.sol\":38043:38166  abi.encodePacked(\r... */\n      add(0x20, mload(0x40))\n      dup1\n      dup1\n      0x1901000000000000000000000000000000000000000000000000000000000000\n      dup2\n      mstore\n      pop\n      0x02\n      add\n      dup4\n      dup2\n      mstore\n      0x20\n      add\n      dup3\n      dup2\n      mstore\n      0x20\n      add\n      swap3\n      pop\n      pop\n      pop\n      mload(0x40)\n      0x20\n      dup2\n      dup4\n      sub\n      sub\n      dup2\n      mstore\n      swap1\n      0x40\n      mstore\n        /* \"contracts/BSWRoken.sol\":38019:38177  keccak256(\r... */\n      dup1\n      mload\n      swap1\n      0x20\n      add\n      keccak256\n        /* \"contracts/BSWRoken.sol\":38002:38177  bytes32 digest = keccak256(\r... */\n      swap1\n      pop\n        /* \"contracts/BSWRoken.sol\":38190:38207  address signatory */\n      0x00\n        /* \"contracts/BSWRoken.sol\":38210:38236  ecrecover(digest, v, r, s) */\n      0x01\n        /* \"contracts/BSWRoken.sol\":38220:38226  digest */\n      dup3\n        /* \"contracts/BSWRoken.sol\":38228:38229  v */\n      dup9\n        /* \"contracts/BSWRoken.sol\":38231:38232  r */\n      dup9\n        /* \"contracts/BSWRoken.sol\":38234:38235  s */\n      dup9\n        /* \"contracts/BSWRoken.sol\":38210:38236  ecrecover(digest, v, r, s) */\n      mload(0x40)\n      0x00\n      dup2\n      mstore\n      0x20\n      add\n      0x40\n      mstore\n      mload(0x40)\n      dup1\n      dup6\n      dup2\n      mstore\n      0x20\n      add\n      dup5\n      0xff\n      and\n      dup2\n      mstore\n      0x20\n      add\n      dup4\n      dup2\n      mstore\n      0x20\n      add\n      dup3\n      dup2\n      mstore\n      0x20\n      add\n      swap5\n      pop\n      pop\n      pop\n      pop\n      pop\n      0x20\n      mload(0x40)\n      0x20\n      dup2\n      sub\n      swap1\n      dup1\n      dup5\n      sub\n      swap1\n      dup6\n      gas\n      staticcall\n      iszero\n      dup1\n      iszero\n      tag_256\n      jumpi\n      returndatasize\n      0x00\n      dup1\n      returndatacopy\n      revert(0x00, returndatasize)\n    tag_256:\n      pop\n      pop\n      pop\n      mload(sub(mload(0x40), 0x20))\n        /* \"contracts/BSWRoken.sol\":38190:38236  address signatory = ecrecover(digest, v, r, s) */\n      swap1\n      pop\n        /* \"contracts/BSWRoken.sol\":38276:38277  0 */\n      0x00\n        /* \"contracts/BSWRoken.sol\":38255:38278  signatory != address(0) */\n      0xffffffffffffffffffffffffffffffffffffffff\n      and\n        /* \"contracts/BSWRoken.sol\":38255:38264  signatory */\n      dup2\n        /* \"contracts/BSWRoken.sol\":38255:38278  signatory != address(0) */\n      0xffffffffffffffffffffffffffffffffffffffff\n      and\n      eq\n      iszero\n        /* \"contracts/BSWRoken.sol\":38247:38320  require(signatory != address(0), \"BSW::delegateBySig: invalid signature\") */\n      tag_257\n      jumpi\n      mload(0x40)\n      0x08c379a000000000000000000000000000000000000000000000000000000000\n      dup2\n      mstore\n      0x04\n      add\n      dup1\n      dup1\n      0x20\n      add\n      dup3\n      dup2\n      sub\n      dup3\n      mstore\n      0x25\n      dup2\n      mstore\n      0x20\n      add\n      dup1\n      data_08257e4ece78d0035b71b3fdd7727d0e4c4ab222824d1ed325679cf18cc340ec\n      0x25\n      swap2\n      codecopy\n      0x40\n      add\n      swap2\n      pop\n      pop\n      mload(0x40)\n      dup1\n      swap2\n      sub\n      swap1\n      revert\n    tag_257:\n        /* \"contracts/BSWRoken.sol\":38348:38354  nonces */\n      0x0c\n        /* \"contracts/BSWRoken.sol\":38348:38365  nonces[signatory] */\n      0x00\n        /* \"contracts/BSWRoken.sol\":38355:38364  signatory */\n      dup3\n        /* \"contracts/BSWRoken.sol\":38348:38365  nonces[signatory] */\n      0xffffffffffffffffffffffffffffffffffffffff\n      and\n      0xffffffffffffffffffffffffffffffffffffffff\n      and\n      dup2\n      mstore\n      0x20\n      add\n      swap1\n      dup2\n      mstore\n      0x20\n      add\n      0x00\n      keccak256\n      0x00\n        /* \"contracts/BSWRoken.sol\":38348:38367  nonces[signatory]++ */\n      dup2\n      sload\n      dup1\n      swap3\n      swap2\n      swap1\n      0x01\n      add\n      swap2\n      swap1\n      pop\n      sstore\n        /* \"contracts/BSWRoken.sol\":38339:38344  nonce */\n      dup10\n        /* \"contracts/BSWRoken.sol\":38339:38367  nonce == nonces[signatory]++ */\n      eq\n        /* \"contracts/BSWRoken.sol\":38331:38405  require(nonce == nonces[signatory]++, \"BSW::delegateBySig: invalid nonce\") */\n      tag_258\n      jumpi\n      mload(0x40)\n      0x08c379a000000000000000000000000000000000000000000000000000000000\n      dup2\n      mstore\n      0x04\n      add\n      dup1\n      dup1\n      0x20\n      add\n      dup3\n      dup2\n      sub\n      dup3\n      mstore\n      0x21\n      dup2\n      mstore\n      0x20\n      add\n      dup1\n      data_703cc8928927461bcb3ce7eb99bebc28dcc785f87a0058270e3f2efa4b27d3d2\n      0x21\n      swap2\n      codecopy\n      0x40\n      add\n      swap2\n      pop\n      pop\n      mload(0x40)\n      dup1\n      swap2\n      sub\n      swap1\n      revert\n    tag_258:\n        /* \"contracts/BSWRoken.sol\":38431:38437  expiry */\n      dup8\n        /* \"contracts/BSWRoken.sol\":38424:38427  now */\n      timestamp\n        /* \"contracts/BSWRoken.sol\":38424:38437  now <= expiry */\n      gt\n      iszero\n        /* \"contracts/BSWRoken.sol\":38416:38479  require(now <= expiry, \"BSW::delegateBySig: signature expired\") */\n      tag_259\n      jumpi\n      mload(0x40)\n      0x08c379a000000000000000000000000000000000000000000000000000000000\n      dup2\n      mstore\n      0x04\n      add\n      dup1\n      dup1\n      0x20\n      add\n      dup3\n      dup2\n      sub\n      dup3\n      mstore\n      0x25\n      dup2\n      mstore\n      0x20\n      add\n      dup1\n      data_e7ee72df1c0a3cb2f17efa1c62124601b99de89871da851b89e43d1f80b2960d\n      0x25\n      swap2\n      codecopy\n      0x40\n      add\n      swap2\n      pop\n      pop\n      mload(0x40)\n      dup1\n      swap2\n      sub\n      swap1\n      revert\n    tag_259:\n        /* \"contracts/BSWRoken.sol\":38497:38528  _delegate(signatory, delegatee) */\n      tag_260\n        /* \"contracts/BSWRoken.sol\":38507:38516  signatory */\n      dup2\n        /* \"contracts/BSWRoken.sol\":38518:38527  delegatee */\n      dup12\n        /* \"contracts/BSWRoken.sol\":38497:38506  _delegate */\n      tag_197\n        /* \"contracts/BSWRoken.sol\":38497:38528  _delegate(signatory, delegatee) */\n      jump\t// in\n    tag_260:\n        /* \"contracts/BSWRoken.sol\":38490:38528  return _delegate(signatory, delegatee) */\n      pop\n      pop\n      pop\n      pop\n        /* \"contracts/BSWRoken.sol\":37361:38536  function delegateBySig(\r... */\n      pop\n      pop\n      pop\n      pop\n      pop\n      pop\n      jump\t// out\n        /* \"contracts/BSWRoken.sol\":19301:19397  function maxSupply() public override view returns (uint256) {\r... */\n    tag_130:\n        /* \"contracts/BSWRoken.sol\":19352:19359  uint256 */\n      0x00\n        /* \"contracts/BSWRoken.sol\":17517:17533  700000000 * 1e18 */\n      0x024306c4097859c43c000000\n        /* \"contracts/BSWRoken.sol\":19372:19389  return _maxSupply */\n      swap1\n      pop\n        /* \"contracts/BSWRoken.sol\":19301:19397  function maxSupply() public override view returns (uint256) {\r... */\n      swap1\n      jump\t// out\n        /* \"contracts/BSWRoken.sol\":20019:20162  function allowance(address owner, address spender) public override view returns (uint256) {\r... */\n    tag_133:\n        /* \"contracts/BSWRoken.sol\":20100:20107  uint256 */\n      0x00\n        /* \"contracts/BSWRoken.sol\":20127:20138  _allowances */\n      0x02\n        /* \"contracts/BSWRoken.sol\":20127:20145  _allowances[owner] */\n      0x00\n        /* \"contracts/BSWRoken.sol\":20139:20144  owner */\n      dup5\n        /* \"contracts/BSWRoken.sol\":20127:20145  _allowances[owner] */\n      0xffffffffffffffffffffffffffffffffffffffff\n      and\n      0xffffffffffffffffffffffffffffffffffffffff\n      and\n      dup2\n      mstore\n      0x20\n      add\n      swap1\n      dup2\n      mstore\n      0x20\n      add\n      0x00\n      keccak256\n        /* \"contracts/BSWRoken.sol\":20127:20154  _allowances[owner][spender] */\n      0x00\n        /* \"contracts/BSWRoken.sol\":20146:20153  spender */\n      dup4\n        /* \"contracts/BSWRoken.sol\":20127:20154  _allowances[owner][spender] */\n      0xffffffffffffffffffffffffffffffffffffffff\n      and\n      0xffffffffffffffffffffffffffffffffffffffff\n      and\n      dup2\n      mstore\n      0x20\n      add\n      swap1\n      dup2\n      mstore\n      0x20\n      add\n      0x00\n      keccak256\n      sload\n        /* \"contracts/BSWRoken.sol\":20120:20154  return _allowances[owner][spender] */\n      swap1\n      pop\n        /* \"contracts/BSWRoken.sol\":20019:20162  function allowance(address owner, address spender) public override view returns (uint256) {\r... */\n      swap3\n      swap2\n      pop\n      pop\n      jump\t// out\n        /* \"contracts/BSWRoken.sol\":35763:35880  bytes32 public constant DELEGATION_TYPEHASH = keccak256(\"Delegation(address delegatee,uint256 nonce,uint256 expiry)\") */\n    tag_135:\n        /* \"contracts/BSWRoken.sol\":35809:35880  keccak256(\"Delegation(address delegatee,uint256 nonce,uint256 expiry)\") */\n      0xe48329057bfd03d55e49b547132e39cffd9c1820ad7b9d4c5307691425d15adf\n        /* \"contracts/BSWRoken.sol\":35763:35880  bytes32 public constant DELEGATION_TYPEHASH = keccak256(\"Delegation(address delegatee,uint256 nonce,uint256 expiry)\") */\n      dup2\n      jump\t// out\n        /* \"contracts/BSWRoken.sol\":35286:35356  mapping (address => mapping (uint32 => Checkpoint)) public checkpoints */\n    tag_138:\n      mstore(0x20, 0x0a)\n      dup2\n      0x00\n      mstore\n      mstore(0x20, keccak256(0x00, 0x40))\n      dup1\n      0x00\n      mstore\n      keccak256(0x00, 0x40)\n      0x00\n      swap2\n      pop\n      swap2\n      pop\n      pop\n      dup1\n      0x00\n      add\n      0x00\n      swap1\n      sload\n      swap1\n      0x0100\n      exp\n      swap1\n      div\n      0xffffffff\n      and\n      swap1\n      dup1\n      0x01\n      add\n      sload\n      swap1\n      pop\n      dup3\n      jump\t// out\n        /* \"contracts/BSWRoken.sol\":2015:2124  function transferOwnership(address newOwner) public onlyOwner {\r... */\n    tag_141:\n        /* \"contracts/BSWRoken.sol\":1300:1312  _msgSender() */\n      tag_264\n        /* \"contracts/BSWRoken.sol\":1300:1310  _msgSender */\n      tag_153\n        /* \"contracts/BSWRoken.sol\":1300:1312  _msgSender() */\n      jump\t// in\n    tag_264:\n        /* \"contracts/BSWRoken.sol\":1290:1312  _owner == _msgSender() */\n      0xffffffffffffffffffffffffffffffffffffffff\n      and\n        /* \"contracts/BSWRoken.sol\":1290:1296  _owner */\n      0x00\n      dup1\n      sload\n      swap1\n      0x0100\n      exp\n      swap1\n      div\n      0xffffffffffffffffffffffffffffffffffffffff\n      and\n        /* \"contracts/BSWRoken.sol\":1290:1312  _owner == _msgSender() */\n      0xffffffffffffffffffffffffffffffffffffffff\n      and\n      eq\n        /* \"contracts/BSWRoken.sol\":1282:1349  require(_owner == _msgSender(), 'Ownable: caller is not the owner') */\n      tag_265\n      jumpi\n      mload(0x40)\n      0x08c379a000000000000000000000000000000000000000000000000000000000\n      dup2\n      mstore\n      0x04\n      add\n      dup1\n      dup1\n      0x20\n      add\n      dup3\n      dup2\n      sub\n      dup3\n      mstore\n      0x20\n      dup2\n      mstore\n      0x20\n      add\n      dup1\n      0x4f776e61626c653a2063616c6c6572206973206e6f7420746865206f776e6572\n      dup2\n      mstore\n      pop\n      0x20\n      add\n      swap2\n      pop\n      pop\n      mload(0x40)\n      dup1\n      swap2\n      sub\n      swap1\n      revert\n    tag_265:\n        /* \"contracts/BSWRoken.sol\":2088:2116  _transferOwnership(newOwner) */\n      tag_267\n        /* \"contracts/BSWRoken.sol\":2107:2115  newOwner */\n      dup2\n        /* \"contracts/BSWRoken.sol\":2088:2106  _transferOwnership */\n      tag_268\n        /* \"contracts/BSWRoken.sol\":2088:2116  _transferOwnership(newOwner) */\n      jump\t// in\n    tag_267:\n        /* \"contracts/BSWRoken.sol\":2015:2124  function transferOwnership(address newOwner) public onlyOwner {\r... */\n      pop\n      jump\t// out\n        /* \"contracts/BSWRoken.sol\":6000:6181  function add(uint256 a, uint256 b) internal pure returns (uint256) {\r... */\n    tag_142:\n        /* \"contracts/BSWRoken.sol\":6058:6065  uint256 */\n      0x00\n        /* \"contracts/BSWRoken.sol\":6078:6087  uint256 c */\n      dup1\n        /* \"contracts/BSWRoken.sol\":6094:6095  b */\n      dup3\n        /* \"contracts/BSWRoken.sol\":6090:6091  a */\n      dup5\n        /* \"contracts/BSWRoken.sol\":6090:6095  a + b */\n      add\n        /* \"contracts/BSWRoken.sol\":6078:6095  uint256 c = a + b */\n      swap1\n      pop\n        /* \"contracts/BSWRoken.sol\":6119:6120  a */\n      dup4\n        /* \"contracts/BSWRoken.sol\":6114:6115  c */\n      dup2\n        /* \"contracts/BSWRoken.sol\":6114:6120  c >= a */\n      lt\n      iszero\n        /* \"contracts/BSWRoken.sol\":6106:6152  require(c >= a, 'SafeMath: addition overflow') */\n      tag_270\n      jumpi\n      mload(0x40)\n      0x08c379a000000000000000000000000000000000000000000000000000000000\n      dup2\n      mstore\n      0x04\n      add\n      dup1\n      dup1\n      0x20\n      add\n      dup3\n      dup2\n      sub\n      dup3\n      mstore\n      0x1b\n      dup2\n      mstore\n      0x20\n      add\n      dup1\n      0x536166654d6174683a206164646974696f6e206f766572666c6f770000000000\n      dup2\n      mstore\n      pop\n      0x20\n      add\n      swap2\n      pop\n      pop\n      mload(0x40)\n      dup1\n      swap2\n      sub\n      swap1\n      revert\n    tag_270:\n        /* \"contracts/BSWRoken.sol\":6172:6173  c */\n      dup1\n        /* \"contracts/BSWRoken.sol\":6165:6173  return c */\n      swap2\n      pop\n      pop\n        /* \"contracts/BSWRoken.sol\":6000:6181  function add(uint256 a, uint256 b) internal pure returns (uint256) {\r... */\n      swap3\n      swap2\n      pop\n      pop\n      jump\t// out\n        /* \"contracts/BSWRoken.sol\":31849:31966  function length(AddressSet storage set) internal view returns (uint256) {\r... */\n    tag_145:\n        /* \"contracts/BSWRoken.sol\":31912:31919  uint256 */\n      0x00\n        /* \"contracts/BSWRoken.sol\":31939:31958  _length(set._inner) */\n      tag_272\n        /* \"contracts/BSWRoken.sol\":31947:31950  set */\n      dup3\n        /* \"contracts/BSWRoken.sol\":31947:31957  set._inner */\n      0x00\n      add\n        /* \"contracts/BSWRoken.sol\":31939:31946  _length */\n      tag_273\n        /* \"contracts/BSWRoken.sol\":31939:31958  _length(set._inner) */\n      jump\t// in\n    tag_272:\n        /* \"contracts/BSWRoken.sol\":31932:31958  return _length(set._inner) */\n      swap1\n      pop\n        /* \"contracts/BSWRoken.sol\":31849:31966  function length(AddressSet storage set) internal view returns (uint256) {\r... */\n      swap2\n      swap1\n      pop\n      jump\t// out\n        /* \"contracts/BSWRoken.sol\":242:340  function _msgSender() internal view returns (address payable) {\r... */\n    tag_153:\n        /* \"contracts/BSWRoken.sol\":287:302  address payable */\n      0x00\n        /* \"contracts/BSWRoken.sol\":322:332  msg.sender */\n      caller\n        /* \"contracts/BSWRoken.sol\":315:332  return msg.sender */\n      swap1\n      pop\n        /* \"contracts/BSWRoken.sol\":242:340  function _msgSender() internal view returns (address payable) {\r... */\n      swap1\n      jump\t// out\n        /* \"contracts/BSWRoken.sol\":25926:26298  function _approve(\r... */\n    tag_154:\n        /* \"contracts/BSWRoken.sol\":26071:26072  0 */\n      0x00\n        /* \"contracts/BSWRoken.sol\":26054:26073  owner != address(0) */\n      0xffffffffffffffffffffffffffffffffffffffff\n      and\n        /* \"contracts/BSWRoken.sol\":26054:26059  owner */\n      dup4\n        /* \"contracts/BSWRoken.sol\":26054:26073  owner != address(0) */\n      0xffffffffffffffffffffffffffffffffffffffff\n      and\n      eq\n      iszero\n        /* \"contracts/BSWRoken.sol\":26046:26114  require(owner != address(0), 'BEP20: approve from the zero address') */\n      tag_276\n      jumpi\n      mload(0x40)\n      0x08c379a000000000000000000000000000000000000000000000000000000000\n      dup2\n      mstore\n      0x04\n      add\n      dup1\n      dup1\n      0x20\n      add\n      dup3\n      dup2\n      sub\n      dup3\n      mstore\n      0x24\n      dup2\n      mstore\n      0x20\n      add\n      dup1\n      data_1441cfbef485de93bedecc35b3d10fa2992db382c4c9c583a6e423a140abe4a4\n      0x24\n      swap2\n      codecopy\n      0x40\n      add\n      swap2\n      pop\n      pop\n      mload(0x40)\n      dup1\n      swap2\n      sub\n      swap1\n      revert\n    tag_276:\n        /* \"contracts/BSWRoken.sol\":26152:26153  0 */\n      0x00\n        /* \"contracts/BSWRoken.sol\":26133:26154  spender != address(0) */\n      0xffffffffffffffffffffffffffffffffffffffff\n      and\n        /* \"contracts/BSWRoken.sol\":26133:26140  spender */\n      dup3\n        /* \"contracts/BSWRoken.sol\":26133:26154  spender != address(0) */\n      0xffffffffffffffffffffffffffffffffffffffff\n      and\n      eq\n      iszero\n        /* \"contracts/BSWRoken.sol\":26125:26193  require(spender != address(0), 'BEP20: approve to the zero address') */\n      tag_277\n      jumpi\n      mload(0x40)\n      0x08c379a000000000000000000000000000000000000000000000000000000000\n      dup2\n      mstore\n      0x04\n      add\n      dup1\n      dup1\n      0x20\n      add\n      dup3\n      dup2\n      sub\n      dup3\n      mstore\n      0x22\n      dup2\n      mstore\n      0x20\n      add\n      dup1\n      data_f10e7571e18b354270dee950932fb6a745efc79414b2b2556185a4ed6a1af0d5\n      0x22\n      swap2\n      codecopy\n      0x40\n      add\n      swap2\n      pop\n      pop\n      mload(0x40)\n      dup1\n      swap2\n      sub\n      swap1\n      revert\n    tag_277:\n        /* \"contracts/BSWRoken.sol\":26236:26242  amount */\n      dup1\n        /* \"contracts/BSWRoken.sol\":26206:26217  _allowances */\n      0x02\n        /* \"contracts/BSWRoken.sol\":26206:26224  _allowances[owner] */\n      0x00\n        /* \"contracts/BSWRoken.sol\":26218:26223  owner */\n      dup6\n        /* \"contracts/BSWRoken.sol\":26206:26224  _allowances[owner] */\n      0xffffffffffffffffffffffffffffffffffffffff\n      and\n      0xffffffffffffffffffffffffffffffffffffffff\n      and\n      dup2\n      mstore\n      0x20\n      add\n      swap1\n      dup2\n      mstore\n      0x20\n      add\n      0x00\n      keccak256\n        /* \"contracts/BSWRoken.sol\":26206:26233  _allowances[owner][spender] */\n      0x00\n        /* \"contracts/BSWRoken.sol\":26225:26232  spender */\n      dup5\n        /* \"contracts/BSWRoken.sol\":26206:26233  _allowances[owner][spender] */\n      0xffffffffffffffffffffffffffffffffffffffff\n      and\n      0xffffffffffffffffffffffffffffffffffffffff\n      and\n      dup2\n      mstore\n      0x20\n      add\n      swap1\n      dup2\n      mstore\n      0x20\n      add\n      0x00\n      keccak256\n        /* \"contracts/BSWRoken.sol\":26206:26242  _allowances[owner][spender] = amount */\n      dup2\n      swap1\n      sstore\n      pop\n        /* \"contracts/BSWRoken.sol\":26274:26281  spender */\n      dup2\n        /* \"contracts/BSWRoken.sol\":26258:26290  Approval(owner, spender, amount) */\n      0xffffffffffffffffffffffffffffffffffffffff\n      and\n        /* \"contracts/BSWRoken.sol\":26267:26272  owner */\n      dup4\n        /* \"contracts/BSWRoken.sol\":26258:26290  Approval(owner, spender, amount) */\n      0xffffffffffffffffffffffffffffffffffffffff\n      and\n      0x8c5be1e5ebec7d5bd14f71427d1e84f3dd0314c0f7b2291e5b200ac8c7c3b925\n        /* \"contracts/BSWRoken.sol\":26283:26289  amount */\n      dup4\n        /* \"contracts/BSWRoken.sol\":26258:26290  Approval(owner, spender, amount) */\n      mload(0x40)\n      dup1\n      dup3\n      dup2\n      mstore\n      0x20\n      add\n      swap2\n      pop\n      pop\n      mload(0x40)\n      dup1\n      swap2\n      sub\n      swap1\n      log3\n        /* \"contracts/BSWRoken.sol\":25926:26298  function _approve(\r... */\n      pop\n      pop\n      pop\n      jump\t// out\n        /* \"contracts/BSWRoken.sol\":31370:31519  function remove(AddressSet storage set, address value) internal returns (bool) {\r... */\n    tag_163:\n        /* \"contracts/BSWRoken.sol\":31443:31447  bool */\n      0x00\n        /* \"contracts/BSWRoken.sol\":31467:31511  _remove(set._inner, bytes32(uint256(value))) */\n      tag_279\n        /* \"contracts/BSWRoken.sol\":31475:31478  set */\n      dup4\n        /* \"contracts/BSWRoken.sol\":31475:31485  set._inner */\n      0x00\n      add\n        /* \"contracts/BSWRoken.sol\":31503:31508  value */\n      dup4\n        /* \"contracts/BSWRoken.sol\":31495:31509  uint256(value) */\n      0xffffffffffffffffffffffffffffffffffffffff\n      and\n        /* \"contracts/BSWRoken.sol\":31487:31510  bytes32(uint256(value)) */\n      0x00\n      shl\n        /* \"contracts/BSWRoken.sol\":31467:31474  _remove */\n      tag_280\n        /* \"contracts/BSWRoken.sol\":31467:31511  _remove(set._inner, bytes32(uint256(value))) */\n      jump\t// in\n    tag_279:\n        /* \"contracts/BSWRoken.sol\":31460:31511  return _remove(set._inner, bytes32(uint256(value))) */\n      swap1\n      pop\n        /* \"contracts/BSWRoken.sol\":31370:31519  function remove(AddressSet storage set, address value) internal returns (bool) {\r... */\n      swap3\n      swap2\n      pop\n      pop\n      jump\t// out\n        /* \"contracts/BSWRoken.sol\":23606:24111  function _transfer(\r... */\n    tag_166:\n        /* \"contracts/BSWRoken.sol\":23756:23757  0 */\n      0x00\n        /* \"contracts/BSWRoken.sol\":23738:23758  sender != address(0) */\n      0xffffffffffffffffffffffffffffffffffffffff\n      and\n        /* \"contracts/BSWRoken.sol\":23738:23744  sender */\n      dup4\n        /* \"contracts/BSWRoken.sol\":23738:23758  sender != address(0) */\n      0xffffffffffffffffffffffffffffffffffffffff\n      and\n      eq\n      iszero\n        /* \"contracts/BSWRoken.sol\":23730:23800  require(sender != address(0), 'BEP20: transfer from the zero address') */\n      tag_282\n      jumpi\n      mload(0x40)\n      0x08c379a000000000000000000000000000000000000000000000000000000000\n      dup2\n      mstore\n      0x04\n      add\n      dup1\n      dup1\n      0x20\n      add\n      dup3\n      dup2\n      sub\n      dup3\n      mstore\n      0x25\n      dup2\n      mstore\n      0x20\n      add\n      dup1\n      data_0d26cf302d50b28de74be656b11d67092b32131e5712d1bcf08c4e976dacda57\n      0x25\n      swap2\n      codecopy\n      0x40\n      add\n      swap2\n      pop\n      pop\n      mload(0x40)\n      dup1\n      swap2\n      sub\n      swap1\n      revert\n    tag_282:\n        /* \"contracts/BSWRoken.sol\":23840:23841  0 */\n      0x00\n        /* \"contracts/BSWRoken.sol\":23819:23842  recipient != address(0) */\n      0xffffffffffffffffffffffffffffffffffffffff\n      and\n        /* \"contracts/BSWRoken.sol\":23819:23828  recipient */\n      dup3\n        /* \"contracts/BSWRoken.sol\":23819:23842  recipient != address(0) */\n      0xffffffffffffffffffffffffffffffffffffffff\n      and\n      eq\n      iszero\n        /* \"contracts/BSWRoken.sol\":23811:23882  require(recipient != address(0), 'BEP20: transfer to the zero address') */\n      tag_283\n      jumpi\n      mload(0x40)\n      0x08c379a000000000000000000000000000000000000000000000000000000000\n      dup2\n      mstore\n      0x04\n      add\n      dup1\n      dup1\n      0x20\n      add\n      dup3\n      dup2\n      sub\n      dup3\n      mstore\n      0x23\n      dup2\n      mstore\n      0x20\n      add\n      dup1\n      data_ade9efcb59e42e439ffe61509b352b1af56d64ccb68d80b039b7b69578f371d2\n      0x23\n      swap2\n      codecopy\n      0x40\n      add\n      swap2\n      pop\n      pop\n      mload(0x40)\n      dup1\n      swap2\n      sub\n      swap1\n      revert\n    tag_283:\n        /* \"contracts/BSWRoken.sol\":23915:23986  _balances[sender].sub(amount, 'BEP20: transfer amount exceeds balance') */\n      tag_284\n        /* \"contracts/BSWRoken.sol\":23937:23943  amount */\n      dup2\n        /* \"contracts/BSWRoken.sol\":23915:23986  _balances[sender].sub(amount, 'BEP20: transfer amount exceeds balance') */\n      mload(0x40)\n      dup1\n      0x60\n      add\n      0x40\n      mstore\n      dup1\n      0x26\n      dup2\n      mstore\n      0x20\n      add\n      data_a91efd7a65ef5b4ae4d6568d674798b78a5a89184dd296c100513251c22d3e73\n      0x26\n      swap2\n      codecopy\n        /* \"contracts/BSWRoken.sol\":23915:23924  _balances */\n      0x01\n        /* \"contracts/BSWRoken.sol\":23915:23932  _balances[sender] */\n      0x00\n        /* \"contracts/BSWRoken.sol\":23925:23931  sender */\n      dup8\n        /* \"contracts/BSWRoken.sol\":23915:23932  _balances[sender] */\n      0xffffffffffffffffffffffffffffffffffffffff\n      and\n      0xffffffffffffffffffffffffffffffffffffffff\n      and\n      dup2\n      mstore\n      0x20\n      add\n      swap1\n      dup2\n      mstore\n      0x20\n      add\n      0x00\n      keccak256\n      sload\n        /* \"contracts/BSWRoken.sol\":23915:23936  _balances[sender].sub */\n      tag_171\n      swap1\n        /* \"contracts/BSWRoken.sol\":23915:23986  _balances[sender].sub(amount, 'BEP20: transfer amount exceeds balance') */\n      swap3\n      swap2\n      swap1\n      0xffffffff\n      and\n      jump\t// in\n    tag_284:\n        /* \"contracts/BSWRoken.sol\":23895:23904  _balances */\n      0x01\n        /* \"contracts/BSWRoken.sol\":23895:23912  _balances[sender] */\n      0x00\n        /* \"contracts/BSWRoken.sol\":23905:23911  sender */\n      dup6\n        /* \"contracts/BSWRoken.sol\":23895:23912  _balances[sender] */\n      0xffffffffffffffffffffffffffffffffffffffff\n      and\n      0xffffffffffffffffffffffffffffffffffffffff\n      and\n      dup2\n      mstore\n      0x20\n      add\n      swap1\n      dup2\n      mstore\n      0x20\n      add\n      0x00\n      keccak256\n        /* \"contracts/BSWRoken.sol\":23895:23986  _balances[sender] = _balances[sender].sub(amount, 'BEP20: transfer amount exceeds balance') */\n      dup2\n      swap1\n      sstore\n      pop\n        /* \"contracts/BSWRoken.sol\":24020:24052  _balances[recipient].add(amount) */\n      tag_285\n        /* \"contracts/BSWRoken.sol\":24045:24051  amount */\n      dup2\n        /* \"contracts/BSWRoken.sol\":24020:24029  _balances */\n      0x01\n        /* \"contracts/BSWRoken.sol\":24020:24040  _balances[recipient] */\n      0x00\n        /* \"contracts/BSWRoken.sol\":24030:24039  recipient */\n      dup6\n        /* \"contracts/BSWRoken.sol\":24020:24040  _balances[recipient] */\n      0xffffffffffffffffffffffffffffffffffffffff\n      and\n      0xffffffffffffffffffffffffffffffffffffffff\n      and\n      dup2\n      mstore\n      0x20\n      add\n      swap1\n      dup2\n      mstore\n      0x20\n      add\n      0x00\n      keccak256\n      sload\n        /* \"contracts/BSWRoken.sol\":24020:24044  _balances[recipient].add */\n      tag_142\n      swap1\n        /* \"contracts/BSWRoken.sol\":24020:24052  _balances[recipient].add(amount) */\n      swap2\n      swap1\n      0xffffffff\n      and\n      jump\t// in\n    tag_285:\n        /* \"contracts/BSWRoken.sol\":23997:24006  _balances */\n      0x01\n        /* \"contracts/BSWRoken.sol\":23997:24017  _balances[recipient] */\n      0x00\n        /* \"contracts/BSWRoken.sol\":24007:24016  recipient */\n      dup5\n        /* \"contracts/BSWRoken.sol\":23997:24017  _balances[recipient] */\n      0xffffffffffffffffffffffffffffffffffffffff\n      and\n      0xffffffffffffffffffffffffffffffffffffffff\n      and\n      dup2\n      mstore\n      0x20\n      add\n      swap1\n      dup2\n      mstore\n      0x20\n      add\n      0x00\n      keccak256\n        /* \"contracts/BSWRoken.sol\":23997:24052  _balances[recipient] = _balances[recipient].add(amount) */\n      dup2\n      swap1\n      sstore\n      pop\n        /* \"contracts/BSWRoken.sol\":24085:24094  recipient */\n      dup2\n        /* \"contracts/BSWRoken.sol\":24068:24103  Transfer(sender, recipient, amount) */\n      0xffffffffffffffffffffffffffffffffffffffff\n      and\n        /* \"contracts/BSWRoken.sol\":24077:24083  sender */\n      dup4\n        /* \"contracts/BSWRoken.sol\":24068:24103  Transfer(sender, recipient, amount) */\n      0xffffffffffffffffffffffffffffffffffffffff\n      and\n      0xddf252ad1be2c89b69c2b068fc378daa952ba7f163c4a11628f55a4df523b3ef\n        /* \"contracts/BSWRoken.sol\":24096:24102  amount */\n      dup4\n        /* \"contracts/BSWRoken.sol\":24068:24103  Transfer(sender, recipient, amount) */\n      mload(0x40)\n      dup1\n      dup3\n      dup2\n      mstore\n      0x20\n      add\n      swap2\n      pop\n      pop\n      mload(0x40)\n      dup1\n      swap2\n      sub\n      swap1\n      log3\n        /* \"contracts/BSWRoken.sol\":23606:24111  function _transfer(\r... */\n      pop\n      pop\n      pop\n      jump\t// out\n        /* \"contracts/BSWRoken.sol\":6903:7129  function sub(\r... */\n    tag_171:\n        /* \"contracts/BSWRoken.sol\":7023:7030  uint256 */\n      0x00\n        /* \"contracts/BSWRoken.sol\":7056:7057  a */\n      dup4\n        /* \"contracts/BSWRoken.sol\":7051:7052  b */\n      dup4\n        /* \"contracts/BSWRoken.sol\":7051:7057  b <= a */\n      gt\n      iszero\n        /* \"contracts/BSWRoken.sol\":7059:7071  errorMessage */\n      dup3\n        /* \"contracts/BSWRoken.sol\":7043:7072  require(b <= a, errorMessage) */\n      swap1\n      tag_287\n      jumpi\n      mload(0x40)\n      0x08c379a000000000000000000000000000000000000000000000000000000000\n      dup2\n      mstore\n      0x04\n      add\n      dup1\n      dup1\n      0x20\n      add\n      dup3\n      dup2\n      sub\n      dup3\n      mstore\n      dup4\n      dup2\n      dup2\n      mload\n      dup2\n      mstore\n      0x20\n      add\n      swap2\n      pop\n      dup1\n      mload\n      swap1\n      0x20\n      add\n      swap1\n      dup1\n      dup4\n      dup4\n      0x00\n    tag_288:\n      dup4\n      dup2\n      lt\n      iszero\n      tag_290\n      jumpi\n      dup1\n      dup3\n      add\n      mload\n      dup2\n      dup5\n      add\n      mstore\n      0x20\n      dup2\n      add\n      swap1\n      pop\n      jump(tag_288)\n    tag_290:\n      pop\n      pop\n      pop\n      pop\n      swap1\n      pop\n      swap1\n      dup2\n      add\n      swap1\n      0x1f\n      and\n      dup1\n      iszero\n      tag_291\n      jumpi\n      dup1\n      dup3\n      sub\n      dup1\n      mload\n      0x01\n      dup4\n      0x20\n      sub\n      0x0100\n      exp\n      sub\n      not\n      and\n      dup2\n      mstore\n      0x20\n      add\n      swap2\n      pop\n    tag_291:\n      pop\n      swap3\n      pop\n      pop\n      pop\n      mload(0x40)\n      dup1\n      swap2\n      sub\n      swap1\n      revert\n    tag_287:\n      pop\n        /* \"contracts/BSWRoken.sol\":7083:7092  uint256 c */\n      0x00\n        /* \"contracts/BSWRoken.sol\":7099:7100  b */\n      dup4\n        /* \"contracts/BSWRoken.sol\":7095:7096  a */\n      dup6\n        /* \"contracts/BSWRoken.sol\":7095:7100  a - b */\n      sub\n        /* \"contracts/BSWRoken.sol\":7083:7100  uint256 c = a - b */\n      swap1\n      pop\n        /* \"contracts/BSWRoken.sol\":7120:7121  c */\n      dup1\n        /* \"contracts/BSWRoken.sol\":7113:7121  return c */\n      swap2\n      pop\n      pop\n        /* \"contracts/BSWRoken.sol\":6903:7129  function sub(\r... */\n      swap4\n      swap3\n      pop\n      pop\n      pop\n      jump\t// out\n        /* \"contracts/BSWRoken.sol\":24392:24806  function _mint(address account, uint256 amount) internal returns(bool) {\r... */\n    tag_183:\n        /* \"contracts/BSWRoken.sol\":24457:24461  bool */\n      0x00\n        /* \"contracts/BSWRoken.sol\":24501:24502  0 */\n      dup1\n        /* \"contracts/BSWRoken.sol\":24482:24503  account != address(0) */\n      0xffffffffffffffffffffffffffffffffffffffff\n      and\n        /* \"contracts/BSWRoken.sol\":24482:24489  account */\n      dup4\n        /* \"contracts/BSWRoken.sol\":24482:24503  account != address(0) */\n      0xffffffffffffffffffffffffffffffffffffffff\n      and\n      eq\n      iszero\n        /* \"contracts/BSWRoken.sol\":24474:24539  require(account != address(0), 'BEP20: mint to the zero address') */\n      tag_293\n      jumpi\n      mload(0x40)\n      0x08c379a000000000000000000000000000000000000000000000000000000000\n      dup2\n      mstore\n      0x04\n      add\n      dup1\n      dup1\n      0x20\n      add\n      dup3\n      dup2\n      sub\n      dup3\n      mstore\n      0x1f\n      dup2\n      mstore\n      0x20\n      add\n      dup1\n      0x42455032303a206d696e7420746f20746865207a65726f206164647265737300\n      dup2\n      mstore\n      pop\n      0x20\n      add\n      swap2\n      pop\n      pop\n      mload(0x40)\n      dup1\n      swap2\n      sub\n      swap1\n      revert\n    tag_293:\n        /* \"contracts/BSWRoken.sol\":17517:17533  700000000 * 1e18 */\n      0x024306c4097859c43c000000\n        /* \"contracts/BSWRoken.sol\":24554:24578  amount.add(_totalSupply) */\n      tag_294\n        /* \"contracts/BSWRoken.sol\":24565:24577  _totalSupply */\n      sload(0x03)\n        /* \"contracts/BSWRoken.sol\":24554:24560  amount */\n      dup5\n        /* \"contracts/BSWRoken.sol\":24554:24564  amount.add */\n      tag_142\n      swap1\n        /* \"contracts/BSWRoken.sol\":24554:24578  amount.add(_totalSupply) */\n      swap2\n      swap1\n      0xffffffff\n      and\n      jump\t// in\n    tag_294:\n        /* \"contracts/BSWRoken.sol\":24554:24591  amount.add(_totalSupply) > _maxSupply */\n      gt\n        /* \"contracts/BSWRoken.sol\":24550:24632  if (amount.add(_totalSupply) > _maxSupply) {\r... */\n      iszero\n      tag_295\n      jumpi\n        /* \"contracts/BSWRoken.sol\":24615:24620  false */\n      0x00\n        /* \"contracts/BSWRoken.sol\":24608:24620  return false */\n      swap1\n      pop\n      jump(tag_292)\n        /* \"contracts/BSWRoken.sol\":24550:24632  if (amount.add(_totalSupply) > _maxSupply) {\r... */\n    tag_295:\n        /* \"contracts/BSWRoken.sol\":24659:24683  _totalSupply.add(amount) */\n      tag_296\n        /* \"contracts/BSWRoken.sol\":24676:24682  amount */\n      dup3\n        /* \"contracts/BSWRoken.sol\":24659:24671  _totalSupply */\n      sload(0x03)\n        /* \"contracts/BSWRoken.sol\":24659:24675  _totalSupply.add */\n      tag_142\n      swap1\n        /* \"contracts/BSWRoken.sol\":24659:24683  _totalSupply.add(amount) */\n      swap2\n      swap1\n      0xffffffff\n      and\n      jump\t// in\n    tag_296:\n        /* \"contracts/BSWRoken.sol\":24644:24656  _totalSupply */\n      0x03\n        /* \"contracts/BSWRoken.sol\":24644:24683  _totalSupply = _totalSupply.add(amount) */\n      dup2\n      swap1\n      sstore\n      pop\n        /* \"contracts/BSWRoken.sol\":24715:24745  _balances[account].add(amount) */\n      tag_297\n        /* \"contracts/BSWRoken.sol\":24738:24744  amount */\n      dup3\n        /* \"contracts/BSWRoken.sol\":24715:24724  _balances */\n      0x01\n        /* \"contracts/BSWRoken.sol\":24715:24733  _balances[account] */\n      0x00\n        /* \"contracts/BSWRoken.sol\":24725:24732  account */\n      dup7\n        /* \"contracts/BSWRoken.sol\":24715:24733  _balances[account] */\n      0xffffffffffffffffffffffffffffffffffffffff\n      and\n      0xffffffffffffffffffffffffffffffffffffffff\n      and\n      dup2\n      mstore\n      0x20\n      add\n      swap1\n      dup2\n      mstore\n      0x20\n      add\n      0x00\n      keccak256\n      sload\n        /* \"contracts/BSWRoken.sol\":24715:24737  _balances[account].add */\n      tag_142\n      swap1\n        /* \"contracts/BSWRoken.sol\":24715:24745  _balances[account].add(amount) */\n      swap2\n      swap1\n      0xffffffff\n      and\n      jump\t// in\n    tag_297:\n        /* \"contracts/BSWRoken.sol\":24694:24703  _balances */\n      0x01\n        /* \"contracts/BSWRoken.sol\":24694:24712  _balances[account] */\n      0x00\n        /* \"contracts/BSWRoken.sol\":24704:24711  account */\n      dup6\n        /* \"contracts/BSWRoken.sol\":24694:24712  _balances[account] */\n      0xffffffffffffffffffffffffffffffffffffffff\n      and\n      0xffffffffffffffffffffffffffffffffffffffff\n      and\n      dup2\n      mstore\n      0x20\n      add\n      swap1\n      dup2\n      mstore\n      0x20\n      add\n      0x00\n      keccak256\n        /* \"contracts/BSWRoken.sol\":24694:24745  _balances[account] = _balances[account].add(amount) */\n      dup2\n      swap1\n      sstore\n      pop\n        /* \"contracts/BSWRoken.sol\":24782:24789  account */\n      dup3\n        /* \"contracts/BSWRoken.sol\":24761:24798  Transfer(address(0), account, amount) */\n      0xffffffffffffffffffffffffffffffffffffffff\n      and\n        /* \"contracts/BSWRoken.sol\":24778:24779  0 */\n      0x00\n        /* \"contracts/BSWRoken.sol\":24761:24798  Transfer(address(0), account, amount) */\n      0xffffffffffffffffffffffffffffffffffffffff\n      and\n      0xddf252ad1be2c89b69c2b068fc378daa952ba7f163c4a11628f55a4df523b3ef\n        /* \"contracts/BSWRoken.sol\":24791:24797  amount */\n      dup5\n        /* \"contracts/BSWRoken.sol\":24761:24798  Transfer(address(0), account, amount) */\n      mload(0x40)\n      dup1\n      dup3\n      dup2\n      mstore\n      0x20\n      add\n      swap2\n      pop\n      pop\n      mload(0x40)\n      dup1\n      swap2\n      sub\n      swap1\n      log3\n        /* \"contracts/BSWRoken.sol\":24392:24806  function _mint(address account, uint256 amount) internal returns(bool) {\r... */\n    tag_292:\n      swap3\n      swap2\n      pop\n      pop\n      jump\t// out\n        /* \"contracts/BSWRoken.sol\":41128:42075  function _moveDelegates(address srcRep, address dstRep, uint256 amount) internal {\r... */\n    tag_185:\n        /* \"contracts/BSWRoken.sol\":41234:41240  dstRep */\n      dup2\n        /* \"contracts/BSWRoken.sol\":41224:41240  srcRep != dstRep */\n      0xffffffffffffffffffffffffffffffffffffffff\n      and\n        /* \"contracts/BSWRoken.sol\":41224:41230  srcRep */\n      dup4\n        /* \"contracts/BSWRoken.sol\":41224:41240  srcRep != dstRep */\n      0xffffffffffffffffffffffffffffffffffffffff\n      and\n      eq\n      iszero\n        /* \"contracts/BSWRoken.sol\":41224:41254  srcRep != dstRep && amount > 0 */\n      dup1\n      iszero\n      tag_299\n      jumpi\n      pop\n        /* \"contracts/BSWRoken.sol\":41253:41254  0 */\n      0x00\n        /* \"contracts/BSWRoken.sol\":41244:41250  amount */\n      dup2\n        /* \"contracts/BSWRoken.sol\":41244:41254  amount > 0 */\n      gt\n        /* \"contracts/BSWRoken.sol\":41224:41254  srcRep != dstRep && amount > 0 */\n    tag_299:\n        /* \"contracts/BSWRoken.sol\":41220:42068  if (srcRep != dstRep && amount > 0) {\r... */\n      iszero\n      tag_300\n      jumpi\n        /* \"contracts/BSWRoken.sol\":41293:41294  0 */\n      0x00\n        /* \"contracts/BSWRoken.sol\":41275:41295  srcRep != address(0) */\n      0xffffffffffffffffffffffffffffffffffffffff\n      and\n        /* \"contracts/BSWRoken.sol\":41275:41281  srcRep */\n      dup4\n        /* \"contracts/BSWRoken.sol\":41275:41295  srcRep != address(0) */\n      0xffffffffffffffffffffffffffffffffffffffff\n      and\n      eq\n        /* \"contracts/BSWRoken.sol\":41271:41656  if (srcRep != address(0)) {\r... */\n      tag_301\n      jumpi\n        /* \"contracts/BSWRoken.sol\":41364:41380  uint32 srcRepNum */\n      0x00\n        /* \"contracts/BSWRoken.sol\":41383:41397  numCheckpoints */\n      0x0b\n        /* \"contracts/BSWRoken.sol\":41383:41405  numCheckpoints[srcRep] */\n      0x00\n        /* \"contracts/BSWRoken.sol\":41398:41404  srcRep */\n      dup6\n        /* \"contracts/BSWRoken.sol\":41383:41405  numCheckpoints[srcRep] */\n      0xffffffffffffffffffffffffffffffffffffffff\n      and\n      0xffffffffffffffffffffffffffffffffffffffff\n      and\n      dup2\n      mstore\n      0x20\n      add\n      swap1\n      dup2\n      mstore\n      0x20\n      add\n      0x00\n      keccak256\n      0x00\n      swap1\n      sload\n      swap1\n      0x0100\n      exp\n      swap1\n      div\n      0xffffffff\n      and\n        /* \"contracts/BSWRoken.sol\":41364:41405  uint32 srcRepNum = numCheckpoints[srcRep] */\n      swap1\n      pop\n        /* \"contracts/BSWRoken.sol\":41424:41441  uint256 srcRepOld */\n      0x00\n        /* \"contracts/BSWRoken.sol\":41456:41457  0 */\n      dup1\n        /* \"contracts/BSWRoken.sol\":41444:41453  srcRepNum */\n      dup3\n        /* \"contracts/BSWRoken.sol\":41444:41457  srcRepNum > 0 */\n      0xffffffff\n      and\n      gt\n        /* \"contracts/BSWRoken.sol\":41444:41504  srcRepNum > 0 ? checkpoints[srcRep][srcRepNum - 1].votes : 0 */\n      tag_302\n      jumpi\n        /* \"contracts/BSWRoken.sol\":41503:41504  0 */\n      0x00\n        /* \"contracts/BSWRoken.sol\":41444:41504  srcRepNum > 0 ? checkpoints[srcRep][srcRepNum - 1].votes : 0 */\n      jump(tag_303)\n    tag_302:\n        /* \"contracts/BSWRoken.sol\":41460:41471  checkpoints */\n      0x0a\n        /* \"contracts/BSWRoken.sol\":41460:41479  checkpoints[srcRep] */\n      0x00\n        /* \"contracts/BSWRoken.sol\":41472:41478  srcRep */\n      dup7\n        /* \"contracts/BSWRoken.sol\":41460:41479  checkpoints[srcRep] */\n      0xffffffffffffffffffffffffffffffffffffffff\n      and\n      0xffffffffffffffffffffffffffffffffffffffff\n      and\n      dup2\n      mstore\n      0x20\n      add\n      swap1\n      dup2\n      mstore\n      0x20\n      add\n      0x00\n      keccak256\n        /* \"contracts/BSWRoken.sol\":41460:41494  checkpoints[srcRep][srcRepNum - 1] */\n      0x00\n        /* \"contracts/BSWRoken.sol\":41492:41493  1 */\n      0x01\n        /* \"contracts/BSWRoken.sol\":41480:41489  srcRepNum */\n      dup5\n        /* \"contracts/BSWRoken.sol\":41480:41493  srcRepNum - 1 */\n      sub\n        /* \"contracts/BSWRoken.sol\":41460:41494  checkpoints[srcRep][srcRepNum - 1] */\n      0xffffffff\n      and\n      0xffffffff\n      and\n      dup2\n      mstore\n      0x20\n      add\n      swap1\n      dup2\n      mstore\n      0x20\n      add\n      0x00\n      keccak256\n        /* \"contracts/BSWRoken.sol\":41460:41500  checkpoints[srcRep][srcRepNum - 1].votes */\n      0x01\n      add\n      sload\n        /* \"contracts/BSWRoken.sol\":41444:41504  srcRepNum > 0 ? checkpoints[srcRep][srcRepNum - 1].votes : 0 */\n    tag_303:\n        /* \"contracts/BSWRoken.sol\":41424:41504  uint256 srcRepOld = srcRepNum > 0 ? checkpoints[srcRep][srcRepNum - 1].votes : 0 */\n      swap1\n      pop\n        /* \"contracts/BSWRoken.sol\":41523:41540  uint256 srcRepNew */\n      0x00\n        /* \"contracts/BSWRoken.sol\":41543:41564  srcRepOld.sub(amount) */\n      tag_304\n        /* \"contracts/BSWRoken.sol\":41557:41563  amount */\n      dup5\n        /* \"contracts/BSWRoken.sol\":41543:41552  srcRepOld */\n      dup4\n        /* \"contracts/BSWRoken.sol\":41543:41556  srcRepOld.sub */\n      tag_305\n      swap1\n        /* \"contracts/BSWRoken.sol\":41543:41564  srcRepOld.sub(amount) */\n      swap2\n      swap1\n      0xffffffff\n      and\n      jump\t// in\n    tag_304:\n        /* \"contracts/BSWRoken.sol\":41523:41564  uint256 srcRepNew = srcRepOld.sub(amount) */\n      swap1\n      pop\n        /* \"contracts/BSWRoken.sol\":41583:41640  _writeCheckpoint(srcRep, srcRepNum, srcRepOld, srcRepNew) */\n      tag_306\n        /* \"contracts/BSWRoken.sol\":41600:41606  srcRep */\n      dup7\n        /* \"contracts/BSWRoken.sol\":41608:41617  srcRepNum */\n      dup5\n        /* \"contracts/BSWRoken.sol\":41619:41628  srcRepOld */\n      dup5\n        /* \"contracts/BSWRoken.sol\":41630:41639  srcRepNew */\n      dup5\n        /* \"contracts/BSWRoken.sol\":41583:41599  _writeCheckpoint */\n      tag_307\n        /* \"contracts/BSWRoken.sol\":41583:41640  _writeCheckpoint(srcRep, srcRepNum, srcRepOld, srcRepNew) */\n      jump\t// in\n    tag_306:\n        /* \"contracts/BSWRoken.sol\":41271:41656  if (srcRep != address(0)) {\r... */\n      pop\n      pop\n      pop\n    tag_301:\n        /* \"contracts/BSWRoken.sol\":41694:41695  0 */\n      0x00\n        /* \"contracts/BSWRoken.sol\":41676:41696  dstRep != address(0) */\n      0xffffffffffffffffffffffffffffffffffffffff\n      and\n        /* \"contracts/BSWRoken.sol\":41676:41682  dstRep */\n      dup3\n        /* \"contracts/BSWRoken.sol\":41676:41696  dstRep != address(0) */\n      0xffffffffffffffffffffffffffffffffffffffff\n      and\n      eq\n        /* \"contracts/BSWRoken.sol\":41672:42057  if (dstRep != address(0)) {\r... */\n      tag_308\n      jumpi\n        /* \"contracts/BSWRoken.sol\":41765:41781  uint32 dstRepNum */\n      0x00\n        /* \"contracts/BSWRoken.sol\":41784:41798  numCheckpoints */\n      0x0b\n        /* \"contracts/BSWRoken.sol\":41784:41806  numCheckpoints[dstRep] */\n      0x00\n        /* \"contracts/BSWRoken.sol\":41799:41805  dstRep */\n      dup5\n        /* \"contracts/BSWRoken.sol\":41784:41806  numCheckpoints[dstRep] */\n      0xffffffffffffffffffffffffffffffffffffffff\n      and\n      0xffffffffffffffffffffffffffffffffffffffff\n      and\n      dup2\n      mstore\n      0x20\n      add\n      swap1\n      dup2\n      mstore\n      0x20\n      add\n      0x00\n      keccak256\n      0x00\n      swap1\n      sload\n      swap1\n      0x0100\n      exp\n      swap1\n      div\n      0xffffffff\n      and\n        /* \"contracts/BSWRoken.sol\":41765:41806  uint32 dstRepNum = numCheckpoints[dstRep] */\n      swap1\n      pop\n        /* \"contracts/BSWRoken.sol\":41825:41842  uint256 dstRepOld */\n      0x00\n        /* \"contracts/BSWRoken.sol\":41857:41858  0 */\n      dup1\n        /* \"contracts/BSWRoken.sol\":41845:41854  dstRepNum */\n      dup3\n        /* \"contracts/BSWRoken.sol\":41845:41858  dstRepNum > 0 */\n      0xffffffff\n      and\n      gt\n        /* \"contracts/BSWRoken.sol\":41845:41905  dstRepNum > 0 ? checkpoints[dstRep][dstRepNum - 1].votes : 0 */\n      tag_309\n      jumpi\n        /* \"contracts/BSWRoken.sol\":41904:41905  0 */\n      0x00\n        /* \"contracts/BSWRoken.sol\":41845:41905  dstRepNum > 0 ? checkpoints[dstRep][dstRepNum - 1].votes : 0 */\n      jump(tag_310)\n    tag_309:\n        /* \"contracts/BSWRoken.sol\":41861:41872  checkpoints */\n      0x0a\n        /* \"contracts/BSWRoken.sol\":41861:41880  checkpoints[dstRep] */\n      0x00\n        /* \"contracts/BSWRoken.sol\":41873:41879  dstRep */\n      dup6\n        /* \"contracts/BSWRoken.sol\":41861:41880  checkpoints[dstRep] */\n      0xffffffffffffffffffffffffffffffffffffffff\n      and\n      0xffffffffffffffffffffffffffffffffffffffff\n      and\n      dup2\n      mstore\n      0x20\n      add\n      swap1\n      dup2\n      mstore\n      0x20\n      add\n      0x00\n      keccak256\n        /* \"contracts/BSWRoken.sol\":41861:41895  checkpoints[dstRep][dstRepNum - 1] */\n      0x00\n        /* \"contracts/BSWRoken.sol\":41893:41894  1 */\n      0x01\n        /* \"contracts/BSWRoken.sol\":41881:41890  dstRepNum */\n      dup5\n        /* \"contracts/BSWRoken.sol\":41881:41894  dstRepNum - 1 */\n      sub\n        /* \"contracts/BSWRoken.sol\":41861:41895  checkpoints[dstRep][dstRepNum - 1] */\n      0xffffffff\n      and\n      0xffffffff\n      and\n      dup2\n      mstore\n      0x20\n      add\n      swap1\n      dup2\n      mstore\n      0x20\n      add\n      0x00\n      keccak256\n        /* \"contracts/BSWRoken.sol\":41861:41901  checkpoints[dstRep][dstRepNum - 1].votes */\n      0x01\n      add\n      sload\n        /* \"contracts/BSWRoken.sol\":41845:41905  dstRepNum > 0 ? checkpoints[dstRep][dstRepNum - 1].votes : 0 */\n    tag_310:\n        /* \"contracts/BSWRoken.sol\":41825:41905  uint256 dstRepOld = dstRepNum > 0 ? checkpoints[dstRep][dstRepNum - 1].votes : 0 */\n      swap1\n      pop\n        /* \"contracts/BSWRoken.sol\":41924:41941  uint256 dstRepNew */\n      0x00\n        /* \"contracts/BSWRoken.sol\":41944:41965  dstRepOld.add(amount) */\n      tag_311\n        /* \"contracts/BSWRoken.sol\":41958:41964  amount */\n      dup5\n        /* \"contracts/BSWRoken.sol\":41944:41953  dstRepOld */\n      dup4\n        /* \"contracts/BSWRoken.sol\":41944:41957  dstRepOld.add */\n      tag_142\n      swap1\n        /* \"contracts/BSWRoken.sol\":41944:41965  dstRepOld.add(amount) */\n      swap2\n      swap1\n      0xffffffff\n      and\n      jump\t// in\n    tag_311:\n        /* \"contracts/BSWRoken.sol\":41924:41965  uint256 dstRepNew = dstRepOld.add(amount) */\n      swap1\n      pop\n        /* \"contracts/BSWRoken.sol\":41984:42041  _writeCheckpoint(dstRep, dstRepNum, dstRepOld, dstRepNew) */\n      tag_312\n        /* \"contracts/BSWRoken.sol\":42001:42007  dstRep */\n      dup6\n        /* \"contracts/BSWRoken.sol\":42009:42018  dstRepNum */\n      dup5\n        /* \"contracts/BSWRoken.sol\":42020:42029  dstRepOld */\n      dup5\n        /* \"contracts/BSWRoken.sol\":42031:42040  dstRepNew */\n      dup5\n        /* \"contracts/BSWRoken.sol\":41984:42000  _writeCheckpoint */\n      tag_307\n        /* \"contracts/BSWRoken.sol\":41984:42041  _writeCheckpoint(dstRep, dstRepNum, dstRepOld, dstRepNew) */\n      jump\t// in\n    tag_312:\n        /* \"contracts/BSWRoken.sol\":41672:42057  if (dstRep != address(0)) {\r... */\n      pop\n      pop\n      pop\n    tag_308:\n        /* \"contracts/BSWRoken.sol\":41220:42068  if (srcRep != dstRep && amount > 0) {\r... */\n    tag_300:\n        /* \"contracts/BSWRoken.sol\":41128:42075  function _moveDelegates(address srcRep, address dstRep, uint256 amount) internal {\r... */\n      pop\n      pop\n      pop\n      jump\t// out\n        /* \"contracts/BSWRoken.sol\":32320:32469  function at(AddressSet storage set, uint256 index) internal view returns (address) {\r... */\n    tag_194:\n        /* \"contracts/BSWRoken.sol\":32394:32401  address */\n      0x00\n        /* \"contracts/BSWRoken.sol\":32437:32459  _at(set._inner, index) */\n      tag_314\n        /* \"contracts/BSWRoken.sol\":32441:32444  set */\n      dup4\n        /* \"contracts/BSWRoken.sol\":32441:32451  set._inner */\n      0x00\n      add\n        /* \"contracts/BSWRoken.sol\":32453:32458  index */\n      dup4\n        /* \"contracts/BSWRoken.sol\":32437:32440  _at */\n      tag_315\n        /* \"contracts/BSWRoken.sol\":32437:32459  _at(set._inner, index) */\n      jump\t// in\n    tag_314:\n        /* \"contracts/BSWRoken.sol\":32429:32460  uint256(_at(set._inner, index)) */\n      0x00\n      shr\n        /* \"contracts/BSWRoken.sol\":32414:32461  return address(uint256(_at(set._inner, index))) */\n      swap1\n      pop\n        /* \"contracts/BSWRoken.sol\":32320:32469  function at(AddressSet storage set, uint256 index) internal view returns (address) {\r... */\n      swap3\n      swap2\n      pop\n      pop\n      jump\t// out\n        /* \"contracts/BSWRoken.sol\":40683:41120  function _delegate(address delegator, address delegatee)\r... */\n    tag_197:\n        /* \"contracts/BSWRoken.sol\":40774:40797  address currentDelegate */\n      0x00\n        /* \"contracts/BSWRoken.sol\":40800:40810  _delegates */\n      0x09\n        /* \"contracts/BSWRoken.sol\":40800:40821  _delegates[delegator] */\n      0x00\n        /* \"contracts/BSWRoken.sol\":40811:40820  delegator */\n      dup5\n        /* \"contracts/BSWRoken.sol\":40800:40821  _delegates[delegator] */\n      0xffffffffffffffffffffffffffffffffffffffff\n      and\n      0xffffffffffffffffffffffffffffffffffffffff\n      and\n      dup2\n      mstore\n      0x20\n      add\n      swap1\n      dup2\n      mstore\n      0x20\n      add\n      0x00\n      keccak256\n      0x00\n      swap1\n      sload\n      swap1\n      0x0100\n      exp\n      swap1\n      div\n      0xffffffffffffffffffffffffffffffffffffffff\n      and\n        /* \"contracts/BSWRoken.sol\":40774:40821  address currentDelegate = _delegates[delegator] */\n      swap1\n      pop\n        /* \"contracts/BSWRoken.sol\":40832:40856  uint256 delegatorBalance */\n      0x00\n        /* \"contracts/BSWRoken.sol\":40859:40879  balanceOf(delegator) */\n      tag_317\n        /* \"contracts/BSWRoken.sol\":40869:40878  delegator */\n      dup5\n        /* \"contracts/BSWRoken.sol\":40859:40868  balanceOf */\n      tag_89\n        /* \"contracts/BSWRoken.sol\":40859:40879  balanceOf(delegator) */\n      jump\t// in\n    tag_317:\n        /* \"contracts/BSWRoken.sol\":40832:40879  uint256 delegatorBalance = balanceOf(delegator) */\n      swap1\n      pop\n        /* \"contracts/BSWRoken.sol\":40958:40967  delegatee */\n      dup3\n        /* \"contracts/BSWRoken.sol\":40934:40944  _delegates */\n      0x09\n        /* \"contracts/BSWRoken.sol\":40934:40955  _delegates[delegator] */\n      0x00\n        /* \"contracts/BSWRoken.sol\":40945:40954  delegator */\n      dup7\n        /* \"contracts/BSWRoken.sol\":40934:40955  _delegates[delegator] */\n      0xffffffffffffffffffffffffffffffffffffffff\n      and\n      0xffffffffffffffffffffffffffffffffffffffff\n      and\n      dup2\n      mstore\n      0x20\n      add\n      swap1\n      dup2\n      mstore\n      0x20\n      add\n      0x00\n      keccak256\n      0x00\n        /* \"contracts/BSWRoken.sol\":40934:40967  _delegates[delegator] = delegatee */\n      0x0100\n      exp\n      dup2\n      sload\n      dup2\n      0xffffffffffffffffffffffffffffffffffffffff\n      mul\n      not\n      and\n      swap1\n      dup4\n      0xffffffffffffffffffffffffffffffffffffffff\n      and\n      mul\n      or\n      swap1\n      sstore\n      pop\n        /* \"contracts/BSWRoken.sol\":41029:41038  delegatee */\n      dup3\n        /* \"contracts/BSWRoken.sol\":40985:41039  DelegateChanged(delegator, currentDelegate, delegatee) */\n      0xffffffffffffffffffffffffffffffffffffffff\n      and\n        /* \"contracts/BSWRoken.sol\":41012:41027  currentDelegate */\n      dup3\n        /* \"contracts/BSWRoken.sol\":40985:41039  DelegateChanged(delegator, currentDelegate, delegatee) */\n      0xffffffffffffffffffffffffffffffffffffffff\n      and\n        /* \"contracts/BSWRoken.sol\":41001:41010  delegator */\n      dup6\n        /* \"contracts/BSWRoken.sol\":40985:41039  DelegateChanged(delegator, currentDelegate, delegatee) */\n      0xffffffffffffffffffffffffffffffffffffffff\n      and\n      0x3134e8a2e6d97e929a7e54011ea5485d7d196dd5f0ba4d4ef95803e8e3fc257f\n      mload(0x40)\n      mload(0x40)\n      dup1\n      swap2\n      sub\n      swap1\n      log4\n        /* \"contracts/BSWRoken.sol\":41052:41112  _moveDelegates(currentDelegate, delegatee, delegatorBalance) */\n      tag_318\n        /* \"contracts/BSWRoken.sol\":41067:41082  currentDelegate */\n      dup3\n        /* \"contracts/BSWRoken.sol\":41084:41093  delegatee */\n      dup5\n        /* \"contracts/BSWRoken.sol\":41095:41111  delegatorBalance */\n      dup4\n        /* \"contracts/BSWRoken.sol\":41052:41066  _moveDelegates */\n      tag_185\n        /* \"contracts/BSWRoken.sol\":41052:41112  _moveDelegates(currentDelegate, delegatee, delegatorBalance) */\n      jump\t// in\n    tag_318:\n        /* \"contracts/BSWRoken.sol\":40683:41120  function _delegate(address delegator, address delegatee)\r... */\n      pop\n      pop\n      pop\n      pop\n      jump\t// out\n        /* \"contracts/BSWRoken.sol\":31051:31194  function add(AddressSet storage set, address value) internal returns (bool) {\r... */\n    tag_230:\n        /* \"contracts/BSWRoken.sol\":31121:31125  bool */\n      0x00\n        /* \"contracts/BSWRoken.sol\":31145:31186  _add(set._inner, bytes32(uint256(value))) */\n      tag_320\n        /* \"contracts/BSWRoken.sol\":31150:31153  set */\n      dup4\n        /* \"contracts/BSWRoken.sol\":31150:31160  set._inner */\n      0x00\n      add\n        /* \"contracts/BSWRoken.sol\":31178:31183  value */\n      dup4\n        /* \"contracts/BSWRoken.sol\":31170:31184  uint256(value) */\n      0xffffffffffffffffffffffffffffffffffffffff\n      and\n        /* \"contracts/BSWRoken.sol\":31162:31185  bytes32(uint256(value)) */\n      0x00\n      shl\n        /* \"contracts/BSWRoken.sol\":31145:31149  _add */\n      tag_321\n        /* \"contracts/BSWRoken.sol\":31145:31186  _add(set._inner, bytes32(uint256(value))) */\n      jump\t// in\n    tag_320:\n        /* \"contracts/BSWRoken.sol\":31138:31186  return _add(set._inner, bytes32(uint256(value))) */\n      swap1\n      pop\n        /* \"contracts/BSWRoken.sol\":31051:31194  function add(AddressSet storage set, address value) internal returns (bool) {\r... */\n      swap3\n      swap2\n      pop\n      pop\n      jump\t// out\n        /* \"contracts/BSWRoken.sol\":31605:31763  function contains(AddressSet storage set, address value) internal view returns (bool) {\r... */\n    tag_247:\n        /* \"contracts/BSWRoken.sol\":31685:31689  bool */\n      0x00\n        /* \"contracts/BSWRoken.sol\":31709:31755  _contains(set._inner, bytes32(uint256(value))) */\n      tag_323\n        /* \"contracts/BSWRoken.sol\":31719:31722  set */\n      dup4\n        /* \"contracts/BSWRoken.sol\":31719:31729  set._inner */\n      0x00\n      add\n        /* \"contracts/BSWRoken.sol\":31747:31752  value */\n      dup4\n        /* \"contracts/BSWRoken.sol\":31739:31753  uint256(value) */\n      0xffffffffffffffffffffffffffffffffffffffff\n      and\n        /* \"contracts/BSWRoken.sol\":31731:31754  bytes32(uint256(value)) */\n      0x00\n      shl\n        /* \"contracts/BSWRoken.sol\":31709:31718  _contains */\n      tag_324\n        /* \"contracts/BSWRoken.sol\":31709:31755  _contains(set._inner, bytes32(uint256(value))) */\n      jump\t// in\n    tag_323:\n        /* \"contracts/BSWRoken.sol\":31702:31755  return _contains(set._inner, bytes32(uint256(value))) */\n      swap1\n      pop\n        /* \"contracts/BSWRoken.sol\":31605:31763  function contains(AddressSet storage set, address value) internal view returns (bool) {\r... */\n      swap3\n      swap2\n      pop\n      pop\n      jump\t// out\n        /* \"contracts/BSWRoken.sol\":42963:43116  function getChainId() internal pure returns (uint) {\r... */\n    tag_254:\n        /* \"contracts/BSWRoken.sol\":43008:43012  uint */\n      0x00\n        /* \"contracts/BSWRoken.sol\":43025:43040  uint256 chainId */\n      dup1\n        /* \"contracts/BSWRoken.sol\":43073:43082  chainid() */\n      chainid\n        /* \"contracts/BSWRoken.sol\":43062:43082  chainId := chainid() */\n      swap1\n      pop\n        /* \"contracts/BSWRoken.sol\":43101:43108  chainId */\n      dup1\n        /* \"contracts/BSWRoken.sol\":43094:43108  return chainId */\n      swap2\n      pop\n      pop\n        /* \"contracts/BSWRoken.sol\":42963:43116  function getChainId() internal pure returns (uint) {\r... */\n      swap1\n      jump\t// out\n        /* \"contracts/BSWRoken.sol\":2230:2459  function _transferOwnership(address newOwner) internal {\r... */\n    tag_268:\n        /* \"contracts/BSWRoken.sol\":2324:2325  0 */\n      0x00\n        /* \"contracts/BSWRoken.sol\":2304:2326  newOwner != address(0) */\n      0xffffffffffffffffffffffffffffffffffffffff\n      and\n        /* \"contracts/BSWRoken.sol\":2304:2312  newOwner */\n      dup2\n        /* \"contracts/BSWRoken.sol\":2304:2326  newOwner != address(0) */\n      0xffffffffffffffffffffffffffffffffffffffff\n      and\n      eq\n      iszero\n        /* \"contracts/BSWRoken.sol\":2296:2369  require(newOwner != address(0), 'Ownable: new owner is the zero address') */\n      tag_327\n      jumpi\n      mload(0x40)\n      0x08c379a000000000000000000000000000000000000000000000000000000000\n      dup2\n      mstore\n      0x04\n      add\n      dup1\n      dup1\n      0x20\n      add\n      dup3\n      dup2\n      sub\n      dup3\n      mstore\n      0x26\n      dup2\n      mstore\n      0x20\n      add\n      dup1\n      data_245f15ff17f551913a7a18385165551503906a406f905ac1c2437281a7cd0cfe\n      0x26\n      swap2\n      codecopy\n      0x40\n      add\n      swap2\n      pop\n      pop\n      mload(0x40)\n      dup1\n      swap2\n      sub\n      swap1\n      revert\n    tag_327:\n        /* \"contracts/BSWRoken.sol\":2414:2422  newOwner */\n      dup1\n        /* \"contracts/BSWRoken.sol\":2385:2423  OwnershipTransferred(_owner, newOwner) */\n      0xffffffffffffffffffffffffffffffffffffffff\n      and\n        /* \"contracts/BSWRoken.sol\":2406:2412  _owner */\n      0x00\n      dup1\n      sload\n      swap1\n      0x0100\n      exp\n      swap1\n      div\n      0xffffffffffffffffffffffffffffffffffffffff\n      and\n        /* \"contracts/BSWRoken.sol\":2385:2423  OwnershipTransferred(_owner, newOwner) */\n      0xffffffffffffffffffffffffffffffffffffffff\n      and\n      0x8be0079c531659141344cd1fd0a4f28419497f9722a3daafe3b4186f6b6457e0\n      mload(0x40)\n      mload(0x40)\n      dup1\n      swap2\n      sub\n      swap1\n      log3\n        /* \"contracts/BSWRoken.sol\":2443:2451  newOwner */\n      dup1\n        /* \"contracts/BSWRoken.sol\":2434:2440  _owner */\n      0x00\n      dup1\n        /* \"contracts/BSWRoken.sol\":2434:2451  _owner = newOwner */\n      0x0100\n      exp\n      dup2\n      sload\n      dup2\n      0xffffffffffffffffffffffffffffffffffffffff\n      mul\n      not\n      and\n      swap1\n      dup4\n      0xffffffffffffffffffffffffffffffffffffffff\n      and\n      mul\n      or\n      swap1\n      sstore\n      pop\n        /* \"contracts/BSWRoken.sol\":2230:2459  function _transferOwnership(address newOwner) internal {\r... */\n      pop\n      jump\t// out\n        /* \"contracts/BSWRoken.sol\":30130:30239  function _length(Set storage set) private view returns (uint256) {\r... */\n    tag_273:\n        /* \"contracts/BSWRoken.sol\":30186:30193  uint256 */\n      0x00\n        /* \"contracts/BSWRoken.sol\":30213:30216  set */\n      dup2\n        /* \"contracts/BSWRoken.sol\":30213:30224  set._values */\n      0x00\n      add\n        /* \"contracts/BSWRoken.sol\":30213:30231  set._values.length */\n      dup1\n      sload\n      swap1\n      pop\n        /* \"contracts/BSWRoken.sol\":30206:30231  return set._values.length */\n      swap1\n      pop\n        /* \"contracts/BSWRoken.sol\":30130:30239  function _length(Set storage set) private view returns (uint256) {\r... */\n      swap2\n      swap1\n      pop\n      jump\t// out\n        /* \"contracts/BSWRoken.sol\":28272:29829  function _remove(Set storage set, bytes32 value) private returns (bool) {\r... */\n    tag_280:\n        /* \"contracts/BSWRoken.sol\":28338:28342  bool */\n      0x00\n        /* \"contracts/BSWRoken.sol\":28456:28474  uint256 valueIndex */\n      dup1\n        /* \"contracts/BSWRoken.sol\":28477:28480  set */\n      dup4\n        /* \"contracts/BSWRoken.sol\":28477:28489  set._indexes */\n      0x01\n      add\n        /* \"contracts/BSWRoken.sol\":28477:28496  set._indexes[value] */\n      0x00\n        /* \"contracts/BSWRoken.sol\":28490:28495  value */\n      dup5\n        /* \"contracts/BSWRoken.sol\":28477:28496  set._indexes[value] */\n      dup2\n      mstore\n      0x20\n      add\n      swap1\n      dup2\n      mstore\n      0x20\n      add\n      0x00\n      keccak256\n      sload\n        /* \"contracts/BSWRoken.sol\":28456:28496  uint256 valueIndex = set._indexes[value] */\n      swap1\n      pop\n        /* \"contracts/BSWRoken.sol\":28527:28528  0 */\n      0x00\n        /* \"contracts/BSWRoken.sol\":28513:28523  valueIndex */\n      dup2\n        /* \"contracts/BSWRoken.sol\":28513:28528  valueIndex != 0 */\n      eq\n        /* \"contracts/BSWRoken.sol\":28509:29822  if (valueIndex != 0) {\r... */\n      tag_330\n      jumpi\n        /* \"contracts/BSWRoken.sol\":28888:28909  uint256 toDeleteIndex */\n      0x00\n        /* \"contracts/BSWRoken.sol\":28925:28926  1 */\n      0x01\n        /* \"contracts/BSWRoken.sol\":28912:28922  valueIndex */\n      dup3\n        /* \"contracts/BSWRoken.sol\":28912:28926  valueIndex - 1 */\n      sub\n        /* \"contracts/BSWRoken.sol\":28888:28926  uint256 toDeleteIndex = valueIndex - 1 */\n      swap1\n      pop\n        /* \"contracts/BSWRoken.sol\":28941:28958  uint256 lastIndex */\n      0x00\n        /* \"contracts/BSWRoken.sol\":28982:28983  1 */\n      0x01\n        /* \"contracts/BSWRoken.sol\":28961:28964  set */\n      dup7\n        /* \"contracts/BSWRoken.sol\":28961:28972  set._values */\n      0x00\n      add\n        /* \"contracts/BSWRoken.sol\":28961:28979  set._values.length */\n      dup1\n      sload\n      swap1\n      pop\n        /* \"contracts/BSWRoken.sol\":28961:28983  set._values.length - 1 */\n      sub\n        /* \"contracts/BSWRoken.sol\":28941:28983  uint256 lastIndex = set._values.length - 1 */\n      swap1\n      pop\n        /* \"contracts/BSWRoken.sol\":29228:29245  bytes32 lastvalue */\n      0x00\n        /* \"contracts/BSWRoken.sol\":29248:29251  set */\n      dup7\n        /* \"contracts/BSWRoken.sol\":29248:29259  set._values */\n      0x00\n      add\n        /* \"contracts/BSWRoken.sol\":29260:29269  lastIndex */\n      dup3\n        /* \"contracts/BSWRoken.sol\":29248:29270  set._values[lastIndex] */\n      dup2\n      sload\n      dup2\n      lt\n      tag_331\n      jumpi\n      invalid\n    tag_331:\n      swap1\n      0x00\n      mstore\n      keccak256(0x00, 0x20)\n      add\n      sload\n        /* \"contracts/BSWRoken.sol\":29228:29270  bytes32 lastvalue = set._values[lastIndex] */\n      swap1\n      pop\n        /* \"contracts/BSWRoken.sol\":29394:29403  lastvalue */\n      dup1\n        /* \"contracts/BSWRoken.sol\":29365:29368  set */\n      dup8\n        /* \"contracts/BSWRoken.sol\":29365:29376  set._values */\n      0x00\n      add\n        /* \"contracts/BSWRoken.sol\":29377:29390  toDeleteIndex */\n      dup5\n        /* \"contracts/BSWRoken.sol\":29365:29391  set._values[toDeleteIndex] */\n      dup2\n      sload\n      dup2\n      lt\n      tag_333\n      jumpi\n      invalid\n    tag_333:\n      swap1\n      0x00\n      mstore\n      keccak256(0x00, 0x20)\n      add\n        /* \"contracts/BSWRoken.sol\":29365:29403  set._values[toDeleteIndex] = lastvalue */\n      dup2\n      swap1\n      sstore\n      pop\n        /* \"contracts/BSWRoken.sol\":29513:29514  1 */\n      0x01\n        /* \"contracts/BSWRoken.sol\":29497:29510  toDeleteIndex */\n      dup4\n        /* \"contracts/BSWRoken.sol\":29497:29514  toDeleteIndex + 1 */\n      add\n        /* \"contracts/BSWRoken.sol\":29471:29474  set */\n      dup8\n        /* \"contracts/BSWRoken.sol\":29471:29483  set._indexes */\n      0x01\n      add\n        /* \"contracts/BSWRoken.sol\":29471:29494  set._indexes[lastvalue] */\n      0x00\n        /* \"contracts/BSWRoken.sol\":29484:29493  lastvalue */\n      dup4\n        /* \"contracts/BSWRoken.sol\":29471:29494  set._indexes[lastvalue] */\n      dup2\n      mstore\n      0x20\n      add\n      swap1\n      dup2\n      mstore\n      0x20\n      add\n      0x00\n      keccak256\n        /* \"contracts/BSWRoken.sol\":29471:29514  set._indexes[lastvalue] = toDeleteIndex + 1 */\n      dup2\n      swap1\n      sstore\n      pop\n        /* \"contracts/BSWRoken.sol\":29623:29626  set */\n      dup7\n        /* \"contracts/BSWRoken.sol\":29623:29634  set._values */\n      0x00\n      add\n        /* \"contracts/BSWRoken.sol\":29623:29640  set._values.pop() */\n      dup1\n      sload\n      dup1\n      tag_335\n      jumpi\n      invalid\n    tag_335:\n      0x01\n      swap1\n      sub\n      dup2\n      dup2\n      swap1\n      0x00\n      mstore\n      keccak256(0x00, 0x20)\n      add\n      0x00\n      swap1\n      sstore\n      swap1\n      sstore\n        /* \"contracts/BSWRoken.sol\":29718:29721  set */\n      dup7\n        /* \"contracts/BSWRoken.sol\":29718:29730  set._indexes */\n      0x01\n      add\n        /* \"contracts/BSWRoken.sol\":29718:29737  set._indexes[value] */\n      0x00\n        /* \"contracts/BSWRoken.sol\":29731:29736  value */\n      dup8\n        /* \"contracts/BSWRoken.sol\":29718:29737  set._indexes[value] */\n      dup2\n      mstore\n      0x20\n      add\n      swap1\n      dup2\n      mstore\n      0x20\n      add\n      0x00\n      keccak256\n        /* \"contracts/BSWRoken.sol\":29711:29737  delete set._indexes[value] */\n      0x00\n      swap1\n      sstore\n        /* \"contracts/BSWRoken.sol\":29761:29765  true */\n      0x01\n        /* \"contracts/BSWRoken.sol\":29754:29765  return true */\n      swap5\n      pop\n      pop\n      pop\n      pop\n      pop\n      jump(tag_329)\n        /* \"contracts/BSWRoken.sol\":28509:29822  if (valueIndex != 0) {\r... */\n    tag_330:\n        /* \"contracts/BSWRoken.sol\":29805:29810  false */\n      0x00\n        /* \"contracts/BSWRoken.sol\":29798:29810  return false */\n      swap2\n      pop\n      pop\n        /* \"contracts/BSWRoken.sol\":28272:29829  function _remove(Set storage set, bytes32 value) private returns (bool) {\r... */\n    tag_329:\n      swap3\n      swap2\n      pop\n      pop\n      jump\t// out\n        /* \"contracts/BSWRoken.sol\":6464:6600  function sub(uint256 a, uint256 b) internal pure returns (uint256) {\r... */\n    tag_305:\n        /* \"contracts/BSWRoken.sol\":6522:6529  uint256 */\n      0x00\n        /* \"contracts/BSWRoken.sol\":6549:6592  sub(a, b, 'SafeMath: subtraction overflow') */\n      tag_339\n        /* \"contracts/BSWRoken.sol\":6553:6554  a */\n      dup4\n        /* \"contracts/BSWRoken.sol\":6556:6557  b */\n      dup4\n        /* \"contracts/BSWRoken.sol\":6549:6592  sub(a, b, 'SafeMath: subtraction overflow') */\n      mload(0x40)\n      dup1\n      0x40\n      add\n      0x40\n      mstore\n      dup1\n      0x1e\n      dup2\n      mstore\n      0x20\n      add\n      0x536166654d6174683a207375627472616374696f6e206f766572666c6f770000\n      dup2\n      mstore\n      pop\n        /* \"contracts/BSWRoken.sol\":6549:6552  sub */\n      tag_171\n        /* \"contracts/BSWRoken.sol\":6549:6592  sub(a, b, 'SafeMath: subtraction overflow') */\n      jump\t// in\n    tag_339:\n        /* \"contracts/BSWRoken.sol\":6542:6592  return sub(a, b, 'SafeMath: subtraction overflow') */\n      swap1\n      pop\n        /* \"contracts/BSWRoken.sol\":6464:6600  function sub(uint256 a, uint256 b) internal pure returns (uint256) {\r... */\n      swap3\n      swap2\n      pop\n      pop\n      jump\t// out\n        /* \"contracts/BSWRoken.sol\":42083:42786  function _writeCheckpoint(\r... */\n    tag_307:\n        /* \"contracts/BSWRoken.sol\":42262:42280  uint32 blockNumber */\n      0x00\n        /* \"contracts/BSWRoken.sol\":42283:42358  safe32(block.number, \"BSW::_writeCheckpoint: block number exceeds 32 bits\") */\n      tag_341\n        /* \"contracts/BSWRoken.sol\":42290:42302  block.number */\n      number\n        /* \"contracts/BSWRoken.sol\":42283:42358  safe32(block.number, \"BSW::_writeCheckpoint: block number exceeds 32 bits\") */\n      mload(0x40)\n      dup1\n      0x60\n      add\n      0x40\n      mstore\n      dup1\n      0x33\n      dup2\n      mstore\n      0x20\n      add\n      data_90d75040a1927c566993b8a03883c6be72d90ddb915e46a6363c742290549fd6\n      0x33\n      swap2\n      codecopy\n        /* \"contracts/BSWRoken.sol\":42283:42289  safe32 */\n      tag_342\n        /* \"contracts/BSWRoken.sol\":42283:42358  safe32(block.number, \"BSW::_writeCheckpoint: block number exceeds 32 bits\") */\n      jump\t// in\n    tag_341:\n        /* \"contracts/BSWRoken.sol\":42262:42358  uint32 blockNumber = safe32(block.number, \"BSW::_writeCheckpoint: block number exceeds 32 bits\") */\n      swap1\n      pop\n        /* \"contracts/BSWRoken.sol\":42390:42391  0 */\n      0x00\n        /* \"contracts/BSWRoken.sol\":42375:42387  nCheckpoints */\n      dup5\n        /* \"contracts/BSWRoken.sol\":42375:42391  nCheckpoints > 0 */\n      0xffffffff\n      and\n      gt\n        /* \"contracts/BSWRoken.sol\":42375:42460  nCheckpoints > 0 && checkpoints[delegatee][nCheckpoints - 1].fromBlock == blockNumber */\n      dup1\n      iszero\n      tag_343\n      jumpi\n      pop\n        /* \"contracts/BSWRoken.sol\":42449:42460  blockNumber */\n      dup1\n        /* \"contracts/BSWRoken.sol\":42395:42460  checkpoints[delegatee][nCheckpoints - 1].fromBlock == blockNumber */\n      0xffffffff\n      and\n        /* \"contracts/BSWRoken.sol\":42395:42406  checkpoints */\n      0x0a\n        /* \"contracts/BSWRoken.sol\":42395:42417  checkpoints[delegatee] */\n      0x00\n        /* \"contracts/BSWRoken.sol\":42407:42416  delegatee */\n      dup8\n        /* \"contracts/BSWRoken.sol\":42395:42417  checkpoints[delegatee] */\n      0xffffffffffffffffffffffffffffffffffffffff\n      and\n      0xffffffffffffffffffffffffffffffffffffffff\n      and\n      dup2\n      mstore\n      0x20\n      add\n      swap1\n      dup2\n      mstore\n      0x20\n      add\n      0x00\n      keccak256\n        /* \"contracts/BSWRoken.sol\":42395:42435  checkpoints[delegatee][nCheckpoints - 1] */\n      0x00\n        /* \"contracts/BSWRoken.sol\":42433:42434  1 */\n      0x01\n        /* \"contracts/BSWRoken.sol\":42418:42430  nCheckpoints */\n      dup8\n        /* \"contracts/BSWRoken.sol\":42418:42434  nCheckpoints - 1 */\n      sub\n        /* \"contracts/BSWRoken.sol\":42395:42435  checkpoints[delegatee][nCheckpoints - 1] */\n      0xffffffff\n      and\n      0xffffffff\n      and\n      dup2\n      mstore\n      0x20\n      add\n      swap1\n      dup2\n      mstore\n      0x20\n      add\n      0x00\n      keccak256\n        /* \"contracts/BSWRoken.sol\":42395:42445  checkpoints[delegatee][nCheckpoints - 1].fromBlock */\n      0x00\n      add\n      0x00\n      swap1\n      sload\n      swap1\n      0x0100\n      exp\n      swap1\n      div\n      0xffffffff\n      and\n        /* \"contracts/BSWRoken.sol\":42395:42460  checkpoints[delegatee][nCheckpoints - 1].fromBlock == blockNumber */\n      0xffffffff\n      and\n      eq\n        /* \"contracts/BSWRoken.sol\":42375:42460  nCheckpoints > 0 && checkpoints[delegatee][nCheckpoints - 1].fromBlock == blockNumber */\n    tag_343:\n        /* \"contracts/BSWRoken.sol\":42371:42710  if (nCheckpoints > 0 && checkpoints[delegatee][nCheckpoints - 1].fromBlock == blockNumber) {\r... */\n      iszero\n      tag_344\n      jumpi\n        /* \"contracts/BSWRoken.sol\":42526:42534  newVotes */\n      dup2\n        /* \"contracts/BSWRoken.sol\":42477:42488  checkpoints */\n      0x0a\n        /* \"contracts/BSWRoken.sol\":42477:42499  checkpoints[delegatee] */\n      0x00\n        /* \"contracts/BSWRoken.sol\":42489:42498  delegatee */\n      dup8\n        /* \"contracts/BSWRoken.sol\":42477:42499  checkpoints[delegatee] */\n      0xffffffffffffffffffffffffffffffffffffffff\n      and\n      0xffffffffffffffffffffffffffffffffffffffff\n      and\n      dup2\n      mstore\n      0x20\n      add\n      swap1\n      dup2\n      mstore\n      0x20\n      add\n      0x00\n      keccak256\n        /* \"contracts/BSWRoken.sol\":42477:42517  checkpoints[delegatee][nCheckpoints - 1] */\n      0x00\n        /* \"contracts/BSWRoken.sol\":42515:42516  1 */\n      0x01\n        /* \"contracts/BSWRoken.sol\":42500:42512  nCheckpoints */\n      dup8\n        /* \"contracts/BSWRoken.sol\":42500:42516  nCheckpoints - 1 */\n      sub\n        /* \"contracts/BSWRoken.sol\":42477:42517  checkpoints[delegatee][nCheckpoints - 1] */\n      0xffffffff\n      and\n      0xffffffff\n      and\n      dup2\n      mstore\n      0x20\n      add\n      swap1\n      dup2\n      mstore\n      0x20\n      add\n      0x00\n      keccak256\n        /* \"contracts/BSWRoken.sol\":42477:42523  checkpoints[delegatee][nCheckpoints - 1].votes */\n      0x01\n      add\n        /* \"contracts/BSWRoken.sol\":42477:42534  checkpoints[delegatee][nCheckpoints - 1].votes = newVotes */\n      dup2\n      swap1\n      sstore\n      pop\n        /* \"contracts/BSWRoken.sol\":42371:42710  if (nCheckpoints > 0 && checkpoints[delegatee][nCheckpoints - 1].fromBlock == blockNumber) {\r... */\n      jump(tag_345)\n    tag_344:\n        /* \"contracts/BSWRoken.sol\":42606:42639  Checkpoint(blockNumber, newVotes) */\n      mload(0x40)\n      dup1\n      0x40\n      add\n      0x40\n      mstore\n      dup1\n        /* \"contracts/BSWRoken.sol\":42617:42628  blockNumber */\n      dup3\n        /* \"contracts/BSWRoken.sol\":42606:42639  Checkpoint(blockNumber, newVotes) */\n      0xffffffff\n      and\n      dup2\n      mstore\n      0x20\n      add\n        /* \"contracts/BSWRoken.sol\":42630:42638  newVotes */\n      dup4\n        /* \"contracts/BSWRoken.sol\":42606:42639  Checkpoint(blockNumber, newVotes) */\n      dup2\n      mstore\n      pop\n        /* \"contracts/BSWRoken.sol\":42567:42578  checkpoints */\n      0x0a\n        /* \"contracts/BSWRoken.sol\":42567:42589  checkpoints[delegatee] */\n      0x00\n        /* \"contracts/BSWRoken.sol\":42579:42588  delegatee */\n      dup8\n        /* \"contracts/BSWRoken.sol\":42567:42589  checkpoints[delegatee] */\n      0xffffffffffffffffffffffffffffffffffffffff\n      and\n      0xffffffffffffffffffffffffffffffffffffffff\n      and\n      dup2\n      mstore\n      0x20\n      add\n      swap1\n      dup2\n      mstore\n      0x20\n      add\n      0x00\n      keccak256\n        /* \"contracts/BSWRoken.sol\":42567:42603  checkpoints[delegatee][nCheckpoints] */\n      0x00\n        /* \"contracts/BSWRoken.sol\":42590:42602  nCheckpoints */\n      dup7\n        /* \"contracts/BSWRoken.sol\":42567:42603  checkpoints[delegatee][nCheckpoints] */\n      0xffffffff\n      and\n      0xffffffff\n      and\n      dup2\n      mstore\n      0x20\n      add\n      swap1\n      dup2\n      mstore\n      0x20\n      add\n      0x00\n      keccak256\n        /* \"contracts/BSWRoken.sol\":42567:42639  checkpoints[delegatee][nCheckpoints] = Checkpoint(blockNumber, newVotes) */\n      0x00\n      dup3\n      add\n      mload\n      dup2\n      0x00\n      add\n      exp(0x0100, 0x00)\n      dup2\n      sload\n      dup2\n      0xffffffff\n      mul\n      not\n      and\n      swap1\n      dup4\n      0xffffffff\n      and\n      mul\n      or\n      swap1\n      sstore\n      pop\n      0x20\n      dup3\n      add\n      mload\n      dup2\n      0x01\n      add\n      sstore\n      swap1\n      pop\n      pop\n        /* \"contracts/BSWRoken.sol\":42697:42698  1 */\n      0x01\n        /* \"contracts/BSWRoken.sol\":42682:42694  nCheckpoints */\n      dup5\n        /* \"contracts/BSWRoken.sol\":42682:42698  nCheckpoints + 1 */\n      add\n        /* \"contracts/BSWRoken.sol\":42654:42668  numCheckpoints */\n      0x0b\n        /* \"contracts/BSWRoken.sol\":42654:42679  numCheckpoints[delegatee] */\n      0x00\n        /* \"contracts/BSWRoken.sol\":42669:42678  delegatee */\n      dup8\n        /* \"contracts/BSWRoken.sol\":42654:42679  numCheckpoints[delegatee] */\n      0xffffffffffffffffffffffffffffffffffffffff\n      and\n      0xffffffffffffffffffffffffffffffffffffffff\n      and\n      dup2\n      mstore\n      0x20\n      add\n      swap1\n      dup2\n      mstore\n      0x20\n      add\n      0x00\n      keccak256\n      0x00\n        /* \"contracts/BSWRoken.sol\":42654:42698  numCheckpoints[delegatee] = nCheckpoints + 1 */\n      0x0100\n      exp\n      dup2\n      sload\n      dup2\n      0xffffffff\n      mul\n      not\n      and\n      swap1\n      dup4\n      0xffffffff\n      and\n      mul\n      or\n      swap1\n      sstore\n      pop\n        /* \"contracts/BSWRoken.sol\":42371:42710  if (nCheckpoints > 0 && checkpoints[delegatee][nCheckpoints - 1].fromBlock == blockNumber) {\r... */\n    tag_345:\n        /* \"contracts/BSWRoken.sol\":42748:42757  delegatee */\n      dup5\n        /* \"contracts/BSWRoken.sol\":42727:42778  DelegateVotesChanged(delegatee, oldVotes, newVotes) */\n      0xffffffffffffffffffffffffffffffffffffffff\n      and\n      0xdec2bacdd2f05b59de34da9b523dff8be42e5e38e818c82fdb0bae774387a724\n        /* \"contracts/BSWRoken.sol\":42759:42767  oldVotes */\n      dup5\n        /* \"contracts/BSWRoken.sol\":42769:42777  newVotes */\n      dup5\n        /* \"contracts/BSWRoken.sol\":42727:42778  DelegateVotesChanged(delegatee, oldVotes, newVotes) */\n      mload(0x40)\n      dup1\n      dup4\n      dup2\n      mstore\n      0x20\n      add\n      dup3\n      dup2\n      mstore\n      0x20\n      add\n      swap3\n      pop\n      pop\n      pop\n      mload(0x40)\n      dup1\n      swap2\n      sub\n      swap1\n      log2\n        /* \"contracts/BSWRoken.sol\":42083:42786  function _writeCheckpoint(\r... */\n      pop\n      pop\n      pop\n      pop\n      pop\n      jump\t// out\n        /* \"contracts/BSWRoken.sol\":30593:30797  function _at(Set storage set, uint256 index) private view returns (bytes32) {\r... */\n    tag_315:\n        /* \"contracts/BSWRoken.sol\":30660:30667  bytes32 */\n      0x00\n        /* \"contracts/BSWRoken.sol\":30709:30714  index */\n      dup2\n        /* \"contracts/BSWRoken.sol\":30688:30691  set */\n      dup4\n        /* \"contracts/BSWRoken.sol\":30688:30699  set._values */\n      0x00\n      add\n        /* \"contracts/BSWRoken.sol\":30688:30706  set._values.length */\n      dup1\n      sload\n      swap1\n      pop\n        /* \"contracts/BSWRoken.sol\":30688:30714  set._values.length > index */\n      gt\n        /* \"contracts/BSWRoken.sol\":30680:30753  require(set._values.length > index, 'EnumerableSet: index out of bounds') */\n      tag_347\n      jumpi\n      mload(0x40)\n      0x08c379a000000000000000000000000000000000000000000000000000000000\n      dup2\n      mstore\n      0x04\n      add\n      dup1\n      dup1\n      0x20\n      add\n      dup3\n      dup2\n      sub\n      dup3\n      mstore\n      0x22\n      dup2\n      mstore\n      0x20\n      add\n      dup1\n      data_045d6834e6193a687012a3ad777f612279e549b6945364d9d2324f48610d3cbb\n      0x22\n      swap2\n      codecopy\n      0x40\n      add\n      swap2\n      pop\n      pop\n      mload(0x40)\n      dup1\n      swap2\n      sub\n      swap1\n      revert\n    tag_347:\n        /* \"contracts/BSWRoken.sol\":30771:30774  set */\n      dup3\n        /* \"contracts/BSWRoken.sol\":30771:30782  set._values */\n      0x00\n      add\n        /* \"contracts/BSWRoken.sol\":30783:30788  index */\n      dup3\n        /* \"contracts/BSWRoken.sol\":30771:30789  set._values[index] */\n      dup2\n      sload\n      dup2\n      lt\n      tag_348\n      jumpi\n      invalid\n    tag_348:\n      swap1\n      0x00\n      mstore\n      keccak256(0x00, 0x20)\n      add\n      sload\n        /* \"contracts/BSWRoken.sol\":30764:30789  return set._values[index] */\n      swap1\n      pop\n        /* \"contracts/BSWRoken.sol\":30593:30797  function _at(Set storage set, uint256 index) private view returns (bytes32) {\r... */\n      swap3\n      swap2\n      pop\n      pop\n      jump\t// out\n        /* \"contracts/BSWRoken.sol\":27682:28096  function _add(Set storage set, bytes32 value) private returns (bool) {\r... */\n    tag_321:\n        /* \"contracts/BSWRoken.sol\":27745:27749  bool */\n      0x00\n        /* \"contracts/BSWRoken.sol\":27767:27788  _contains(set, value) */\n      tag_351\n        /* \"contracts/BSWRoken.sol\":27777:27780  set */\n      dup4\n        /* \"contracts/BSWRoken.sol\":27782:27787  value */\n      dup4\n        /* \"contracts/BSWRoken.sol\":27767:27776  _contains */\n      tag_324\n        /* \"contracts/BSWRoken.sol\":27767:27788  _contains(set, value) */\n      jump\t// in\n    tag_351:\n        /* \"contracts/BSWRoken.sol\":27762:28089  if (!_contains(set, value)) {\r... */\n      tag_352\n      jumpi\n        /* \"contracts/BSWRoken.sol\":27805:27808  set */\n      dup3\n        /* \"contracts/BSWRoken.sol\":27805:27816  set._values */\n      0x00\n      add\n        /* \"contracts/BSWRoken.sol\":27822:27827  value */\n      dup3\n        /* \"contracts/BSWRoken.sol\":27805:27828  set._values.push(value) */\n      swap1\n      dup1\n      0x01\n      dup2\n      sload\n      add\n      dup1\n      dup3\n      sstore\n      dup1\n      swap2\n      pop\n      pop\n      0x01\n      swap1\n      sub\n      swap1\n      0x00\n      mstore\n      keccak256(0x00, 0x20)\n      add\n      0x00\n      swap1\n      swap2\n      swap1\n      swap2\n      swap1\n      swap2\n      pop\n      sstore\n        /* \"contracts/BSWRoken.sol\":27988:27991  set */\n      dup3\n        /* \"contracts/BSWRoken.sol\":27988:27999  set._values */\n      0x00\n      add\n        /* \"contracts/BSWRoken.sol\":27988:28006  set._values.length */\n      dup1\n      sload\n      swap1\n      pop\n        /* \"contracts/BSWRoken.sol\":27966:27969  set */\n      dup4\n        /* \"contracts/BSWRoken.sol\":27966:27978  set._indexes */\n      0x01\n      add\n        /* \"contracts/BSWRoken.sol\":27966:27985  set._indexes[value] */\n      0x00\n        /* \"contracts/BSWRoken.sol\":27979:27984  value */\n      dup5\n        /* \"contracts/BSWRoken.sol\":27966:27985  set._indexes[value] */\n      dup2\n      mstore\n      0x20\n      add\n      swap1\n      dup2\n      mstore\n      0x20\n      add\n      0x00\n      keccak256\n        /* \"contracts/BSWRoken.sol\":27966:28006  set._indexes[value] = set._values.length */\n      dup2\n      swap1\n      sstore\n      pop\n        /* \"contracts/BSWRoken.sol\":28028:28032  true */\n      0x01\n        /* \"contracts/BSWRoken.sol\":28021:28032  return true */\n      swap1\n      pop\n      jump(tag_350)\n        /* \"contracts/BSWRoken.sol\":27762:28089  if (!_contains(set, value)) {\r... */\n    tag_352:\n        /* \"contracts/BSWRoken.sol\":28072:28077  false */\n      0x00\n        /* \"contracts/BSWRoken.sol\":28065:28077  return false */\n      swap1\n      pop\n        /* \"contracts/BSWRoken.sol\":27682:28096  function _add(Set storage set, bytes32 value) private returns (bool) {\r... */\n    tag_350:\n      swap3\n      swap2\n      pop\n      pop\n      jump\t// out\n        /* \"contracts/BSWRoken.sol\":29915:30044  function _contains(Set storage set, bytes32 value) private view returns (bool) {\r... */\n    tag_324:\n        /* \"contracts/BSWRoken.sol\":29988:29992  bool */\n      0x00\n        /* \"contracts/BSWRoken.sol\":30035:30036  0 */\n      dup1\n        /* \"contracts/BSWRoken.sol\":30012:30015  set */\n      dup4\n        /* \"contracts/BSWRoken.sol\":30012:30024  set._indexes */\n      0x01\n      add\n        /* \"contracts/BSWRoken.sol\":30012:30031  set._indexes[value] */\n      0x00\n        /* \"contracts/BSWRoken.sol\":30025:30030  value */\n      dup5\n        /* \"contracts/BSWRoken.sol\":30012:30031  set._indexes[value] */\n      dup2\n      mstore\n      0x20\n      add\n      swap1\n      dup2\n      mstore\n      0x20\n      add\n      0x00\n      keccak256\n      sload\n        /* \"contracts/BSWRoken.sol\":30012:30036  set._indexes[value] != 0 */\n      eq\n      iszero\n        /* \"contracts/BSWRoken.sol\":30005:30036  return set._indexes[value] != 0 */\n      swap1\n      pop\n        /* \"contracts/BSWRoken.sol\":29915:30044  function _contains(Set storage set, bytes32 value) private view returns (bool) {\r... */\n      swap3\n      swap2\n      pop\n      pop\n      jump\t// out\n        /* \"contracts/BSWRoken.sol\":42794:42955  function safe32(uint n, string memory errorMessage) internal pure returns (uint32) {\r... */\n    tag_342:\n        /* \"contracts/BSWRoken.sol\":42869:42875  uint32 */\n      0x00\n        /* \"contracts/BSWRoken.sol\":42900:42905  2**32 */\n      0x0100000000\n        /* \"contracts/BSWRoken.sol\":42896:42897  n */\n      dup4\n        /* \"contracts/BSWRoken.sol\":42896:42905  n < 2**32 */\n      lt\n        /* \"contracts/BSWRoken.sol\":42907:42919  errorMessage */\n      dup3\n        /* \"contracts/BSWRoken.sol\":42888:42920  require(n < 2**32, errorMessage) */\n      swap1\n      tag_357\n      jumpi\n      mload(0x40)\n      0x08c379a000000000000000000000000000000000000000000000000000000000\n      dup2\n      mstore\n      0x04\n      add\n      dup1\n      dup1\n      0x20\n      add\n      dup3\n      dup2\n      sub\n      dup3\n      mstore\n      dup4\n      dup2\n      dup2\n      mload\n      dup2\n      mstore\n      0x20\n      add\n      swap2\n      pop\n      dup1\n      mload\n      swap1\n      0x20\n      add\n      swap1\n      dup1\n      dup4\n      dup4\n      0x00\n    tag_358:\n      dup4\n      dup2\n      lt\n      iszero\n      tag_360\n      jumpi\n      dup1\n      dup3\n      add\n      mload\n      dup2\n      dup5\n      add\n      mstore\n      0x20\n      dup2\n      add\n      swap1\n      pop\n      jump(tag_358)\n    tag_360:\n      pop\n      pop\n      pop\n      pop\n      swap1\n      pop\n      swap1\n      dup2\n      add\n      swap1\n      0x1f\n      and\n      dup1\n      iszero\n      tag_361\n      jumpi\n      dup1\n      dup3\n      sub\n      dup1\n      mload\n      0x01\n      dup4\n      0x20\n      sub\n      0x0100\n      exp\n      sub\n      not\n      and\n      dup2\n      mstore\n      0x20\n      add\n      swap2\n      pop\n    tag_361:\n      pop\n      swap3\n      pop\n      pop\n      pop\n      mload(0x40)\n      dup1\n      swap2\n      sub\n      swap1\n      revert\n    tag_357:\n      pop\n        /* \"contracts/BSWRoken.sol\":42945:42946  n */\n      dup3\n        /* \"contracts/BSWRoken.sol\":42931:42947  return uint32(n) */\n      swap1\n      pop\n        /* \"contracts/BSWRoken.sol\":42794:42955  function safe32(uint n, string memory errorMessage) internal pure returns (uint32) {\r... */\n      swap3\n      swap2\n      pop\n      pop\n      jump\t// out\n    tag_212:\n      mload(0x40)\n      dup1\n      0x40\n      add\n      0x40\n      mstore\n      dup1\n      and(0xffffffff, 0x00)\n      dup2\n      mstore\n      0x20\n      add\n      0x00\n      dup2\n      mstore\n      pop\n      swap1\n      jump\t// out\n    stop\n    data_045d6834e6193a687012a3ad777f612279e549b6945364d9d2324f48610d3cbb 456e756d657261626c655365743a20696e646578206f7574206f6620626f756e6473\n    data_08257e4ece78d0035b71b3fdd7727d0e4c4ab222824d1ed325679cf18cc340ec 4253573a3a64656c656761746542795369673a20696e76616c6964207369676e6174757265\n    data_0d26cf302d50b28de74be656b11d67092b32131e5712d1bcf08c4e976dacda57 42455032303a207472616e736665722066726f6d20746865207a65726f2061646472657373\n    data_1441cfbef485de93bedecc35b3d10fa2992db382c4c9c583a6e423a140abe4a4 42455032303a20617070726f76652066726f6d20746865207a65726f2061646472657373\n    data_245f15ff17f551913a7a18385165551503906a406f905ac1c2437281a7cd0cfe 4f776e61626c653a206e6577206f776e657220697320746865207a65726f2061646472657373\n    data_343b6672008ba8a2d60f12e2bafe23b4297a6abae9355b455d9fc219953e2685 4253573a205f64656c4d696e74657220697320746865207a65726f2061646472657373\n    data_3dd27a27b94ffd192d4e2ab35c3ee897ae55a9b9f645b350654babd2acfbfa00 4253573a205f6164644d696e74657220697320746865207a65726f2061646472657373\n    data_4f3506f4ba71c79c3cbd442a3afeb30e9b27af2d84e116a4385b34e267d2287e 42455032303a207472616e7366657220616d6f756e74206578636565647320616c6c6f77616e6365\n    data_703cc8928927461bcb3ce7eb99bebc28dcc785f87a0058270e3f2efa4b27d3d2 4253573a3a64656c656761746542795369673a20696e76616c6964206e6f6e6365\n    data_8def8d0381903c4f0dbf90999bc5ad56605d7e39f13d8733a36481291d7b508c 4253573a3a6765745072696f72566f7465733a206e6f74207965742064657465726d696e6564\n    data_90d75040a1927c566993b8a03883c6be72d90ddb915e46a6363c742290549fd6 4253573a3a5f7772697465436865636b706f696e743a20626c6f636b206e756d62657220657863656564732033322062697473\n    data_a91efd7a65ef5b4ae4d6568d674798b78a5a89184dd296c100513251c22d3e73 42455032303a207472616e7366657220616d6f756e7420657863656564732062616c616e6365\n    data_ade9efcb59e42e439ffe61509b352b1af56d64ccb68d80b039b7b69578f371d2 42455032303a207472616e7366657220746f20746865207a65726f2061646472657373\n    data_b7060b3538dcd3ddc8a941c91636a8115a1aa46914747fd9809d543bbb46cd22 42455032303a2064656372656173656420616c6c6f77616e63652062656c6f77207a65726f\n    data_e7ee72df1c0a3cb2f17efa1c62124601b99de89871da851b89e43d1f80b2960d 4253573a3a64656c656761746542795369673a207369676e61747572652065787069726564\n    data_f10e7571e18b354270dee950932fb6a745efc79414b2b2556185a4ed6a1af0d5 42455032303a20617070726f766520746f20746865207a65726f2061646472657373\n\n    auxdata: 0xa264697066735822122083f5033f7d2bc93c8348969f4fefb90bedbbe4b83ddde4e52372c37136720c0764736f6c634300060c0033\n}\n",
				"bytecode": {
					"linkReferences": {},
					"object": "60806040523480156200001157600080fd5b506040518060400160405280600681526020017f42697377617000000000000000000000000000000000000000000000000000008152506040518060400160405280600381526020017f4253570000000000000000000000000000000000000000000000000000000000815250600062000090620001a260201b60201c565b9050806000806101000a81548173ffffffffffffffffffffffffffffffffffffffff021916908373ffffffffffffffffffffffffffffffffffffffff1602179055508073ffffffffffffffffffffffffffffffffffffffff16600073ffffffffffffffffffffffffffffffffffffffff167f8be0079c531659141344cd1fd0a4f28419497f9722a3daafe3b4186f6b6457e060405160405180910390a3508160049080519060200190620001469291906200043d565b5080600590805190602001906200015f9291906200043d565b506012600660006101000a81548160ff021916908360ff16021790555062000199336a084595161401484a000000620001aa60201b60201c565b505050620004e3565b600033905090565b60008073ffffffffffffffffffffffffffffffffffffffff168373ffffffffffffffffffffffffffffffffffffffff1614156200024f576040517f08c379a000000000000000000000000000000000000000000000000000000000815260040180806020018281038252601f8152602001807f42455032303a206d696e7420746f20746865207a65726f20616464726573730081525060200191505060405180910390fd5b6b024306c4097859c43c0000006200027860035484620003b460201b6200237d1790919060201c565b1115620002895760009050620003ae565b620002a582600354620003b460201b6200237d1790919060201c565b6003819055506200030482600160008673ffffffffffffffffffffffffffffffffffffffff1673ffffffffffffffffffffffffffffffffffffffff16815260200190815260200160002054620003b460201b6200237d1790919060201c565b600160008573ffffffffffffffffffffffffffffffffffffffff1673ffffffffffffffffffffffffffffffffffffffff168152602001908152602001600020819055508273ffffffffffffffffffffffffffffffffffffffff16600073ffffffffffffffffffffffffffffffffffffffff167fddf252ad1be2c89b69c2b068fc378daa952ba7f163c4a11628f55a4df523b3ef846040518082815260200191505060405180910390a35b92915050565b60008082840190508381101562000433576040517f08c379a000000000000000000000000000000000000000000000000000000000815260040180806020018281038252601b8152602001807f536166654d6174683a206164646974696f6e206f766572666c6f77000000000081525060200191505060405180910390fd5b8091505092915050565b828054600181600116156101000203166002900490600052602060002090601f016020900481019282601f106200048057805160ff1916838001178555620004b1565b82800160010185558215620004b1579182015b82811115620004b057825182559160200191906001019062000493565b5b509050620004c09190620004c4565b5090565b5b80821115620004df576000816000905550600101620004c5565b5090565b6139de80620004f36000396000f3fe608060405234801561001057600080fd5b50600436106102065760003560e01c8063782d6fe11161011a578063a9059cbb116100ad578063d5abeb011161007c578063d5abeb0114610b31578063dd62ed3e14610b4f578063e7a324dc14610bc7578063f1127ed814610be5578063f2fde38b14610c5a57610206565b8063a9059cbb146109a2578063aa271e1a14610a06578063b4b5ea5714610a60578063c3cda52014610ab857610206565b806395d89b41116100e957806395d89b411461081d578063983b2d56146108a0578063a0712d68146108fa578063a457c2d71461093e57610206565b8063782d6fe1146106fb5780637ecebe001461075d578063893d20e8146107b55780638da5cb5b146107e957610206565b8063313ce5671161019d5780635b7121f81161016c5780635b7121f81461059f5780635c19a95c146105f75780636fcfff451461063b57806370a0823114610699578063715018a6146106f157610206565b8063313ce56714610448578063395093511461046957806340c10f19146104cd578063587cde1e1461053157610206565b806318160ddd116101d957806318160ddd1461032e57806320606b701461034c57806323338b881461036a57806323b872dd146103c457610206565b80630323aac71461020b57806306fdde0314610229578063095ea7b3146102ac5780630c16ea8314610310575b600080fd5b610213610c9e565b6040518082815260200191505060405180910390f35b610231610caf565b6040518080602001828103825283818151815260200191508051906020019080838360005b83811015610271578082015181840152602081019050610256565b50505050905090810190601f16801561029e5780820380516001836020036101000a031916815260200191505b509250505060405180910390f35b6102f8600480360360408110156102c257600080fd5b81019080803573ffffffffffffffffffffffffffffffffffffffff16906020019092919080359060200190929190505050610d51565b60405180821515815260200191505060405180910390f35b610318610d6f565b6040518082815260200191505060405180910390f35b610336610d82565b6040518082815260200191505060405180910390f35b610354610d8c565b6040518082815260200191505060405180910390f35b6103ac6004803603602081101561038057600080fd5b81019080803573ffffffffffffffffffffffffffffffffffffffff169060200190929190505050610db0565b60405180821515815260200191505060405180910390f35b610430600480360360608110156103da57600080fd5b81019080803573ffffffffffffffffffffffffffffffffffffffff169060200190929190803573ffffffffffffffffffffffffffffffffffffffff16906020019092919080359060200190929190505050610f12565b60405180821515815260200191505060405180910390f35b610450610feb565b604051808260ff16815260200191505060405180910390f35b6104b56004803603604081101561047f57600080fd5b81019080803573ffffffffffffffffffffffffffffffffffffffff16906020019092919080359060200190929190505050611002565b60405180821515815260200191505060405180910390f35b610519600480360360408110156104e357600080fd5b81019080803573ffffffffffffffffffffffffffffffffffffffff169060200190929190803590602001909291905050506110b5565b60405180821515815260200191505060405180910390f35b6105736004803603602081101561054757600080fd5b81019080803573ffffffffffffffffffffffffffffffffffffffff1690602001909291905050506111b2565b604051808273ffffffffffffffffffffffffffffffffffffffff16815260200191505060405180910390f35b6105cb600480360360208110156105b557600080fd5b810190808035906020019092919050505061121b565b604051808273ffffffffffffffffffffffffffffffffffffffff16815260200191505060405180910390f35b6106396004803603602081101561060d57600080fd5b81019080803573ffffffffffffffffffffffffffffffffffffffff169060200190929190505050611377565b005b61067d6004803603602081101561065157600080fd5b81019080803573ffffffffffffffffffffffffffffffffffffffff169060200190929190505050611384565b604051808263ffffffff16815260200191505060405180910390f35b6106db600480360360208110156106af57600080fd5b81019080803573ffffffffffffffffffffffffffffffffffffffff1690602001909291905050506113a7565b6040518082815260200191505060405180910390f35b6106f96113f0565b005b6107476004803603604081101561071157600080fd5b81019080803573ffffffffffffffffffffffffffffffffffffffff16906020019092919080359060200190929190505050611576565b6040518082815260200191505060405180910390f35b61079f6004803603602081101561077357600080fd5b81019080803573ffffffffffffffffffffffffffffffffffffffff169060200190929190505050611937565b6040518082815260200191505060405180910390f35b6107bd61194f565b604051808273ffffffffffffffffffffffffffffffffffffffff16815260200191505060405180910390f35b6107f161195e565b604051808273ffffffffffffffffffffffffffffffffffffffff16815260200191505060405180910390f35b610825611987565b6040518080602001828103825283818151815260200191508051906020019080838360005b8381101561086557808201518184015260208101905061084a565b50505050905090810190601f1680156108925780820380516001836020036101000a031916815260200191505b509250505060405180910390f35b6108e2600480360360208110156108b657600080fd5b81019080803573ffffffffffffffffffffffffffffffffffffffff169060200190929190505050611a29565b60405180821515815260200191505060405180910390f35b6109266004803603602081101561091057600080fd5b8101908080359060200190929190505050611b8b565b60405180821515815260200191505060405180910390f35b61098a6004803603604081101561095457600080fd5b81019080803573ffffffffffffffffffffffffffffffffffffffff16906020019092919080359060200190929190505050611c70565b60405180821515815260200191505060405180910390f35b6109ee600480360360408110156109b857600080fd5b81019080803573ffffffffffffffffffffffffffffffffffffffff16906020019092919080359060200190929190505050611d3d565b60405180821515815260200191505060405180910390f35b610a4860048036036020811015610a1c57600080fd5b81019080803573ffffffffffffffffffffffffffffffffffffffff169060200190929190505050611d5b565b60405180821515815260200191505060405180910390f35b610aa260048036036020811015610a7657600080fd5b81019080803573ffffffffffffffffffffffffffffffffffffffff169060200190929190505050611d6f565b6040518082815260200191505060405180910390f35b610b2f600480360360c0811015610ace57600080fd5b81019080803573ffffffffffffffffffffffffffffffffffffffff1690602001909291908035906020019092919080359060200190929190803560ff1690602001909291908035906020019092919080359060200190929190505050611e45565b005b610b396121a9565b6040518082815260200191505060405180910390f35b610bb160048036036040811015610b6557600080fd5b81019080803573ffffffffffffffffffffffffffffffffffffffff169060200190929190803573ffffffffffffffffffffffffffffffffffffffff1690602001909291905050506121bd565b6040518082815260200191505060405180910390f35b610bcf612244565b6040518082815260200191505060405180910390f35b610c3760048036036040811015610bfb57600080fd5b81019080803573ffffffffffffffffffffffffffffffffffffffff169060200190929190803563ffffffff169060200190929190505050612268565b604051808363ffffffff1681526020018281526020019250505060405180910390f35b610c9c60048036036020811015610c7057600080fd5b81019080803573ffffffffffffffffffffffffffffffffffffffff1690602001909291905050506122a9565b005b6000610caa6007612405565b905090565b606060048054600181600116156101000203166002900480601f016020809104026020016040519081016040528092919081815260200182805460018160011615610100020316600290048015610d475780601f10610d1c57610100808354040283529160200191610d47565b820191906000526020600020905b815481529060010190602001808311610d2a57829003601f168201915b5050505050905090565b6000610d65610d5e61241a565b8484612422565b6001905092915050565b60006a084595161401484a000000905090565b6000600354905090565b7f8cad95687ba82c2ce50e74f7b754645e5117c3a5bec8151c0726d5857980a86681565b6000610dba61241a565b73ffffffffffffffffffffffffffffffffffffffff1660008054906101000a900473ffffffffffffffffffffffffffffffffffffffff1673ffffffffffffffffffffffffffffffffffffffff1614610e7a576040517f08c379a00000000000000000000000000000000000000000000000000000000081526004018080602001828103825260208152602001807f4f776e61626c653a2063616c6c6572206973206e6f7420746865206f776e657281525060200191505060405180910390fd5b600073ffffffffffffffffffffffffffffffffffffffff168273ffffffffffffffffffffffffffffffffffffffff161415610f00576040517f08c379a000000000000000000000000000000000000000000000000000000000815260040180806020018281038252602381526020018061380c6023913960400191505060405180910390fd5b610f0b600783612619565b9050919050565b6000610f1f848484612649565b610fe084610f2b61241a565b610fdb8560405180606001604052806028815260200161385260289139600260008b73ffffffffffffffffffffffffffffffffffffffff1673ffffffffffffffffffffffffffffffffffffffff1681526020019081526020016000206000610f9161241a565b73ffffffffffffffffffffffffffffffffffffffff1673ffffffffffffffffffffffffffffffffffffffff168152602001908152602001600020546129039092919063ffffffff16565b612422565b600190509392505050565b6000600660009054906101000a900460ff16905090565b60006110ab61100f61241a565b846110a6856002600061102061241a565b73ffffffffffffffffffffffffffffffffffffffff1673ffffffffffffffffffffffffffffffffffffffff16815260200190815260200160002060008973ffffffffffffffffffffffffffffffffffffffff1673ffffffffffffffffffffffffffffffffffffffff1681526020019081526020016000205461237d90919063ffffffff16565b612422565b6001905092915050565b60006110c033611d5b565b611132576040517f08c379a00000000000000000000000000000000000000000000000000000000081526004018080602001828103825260188152602001807f63616c6c6572206973206e6f7420746865206d696e746572000000000000000081525060200191505060405180910390fd5b61113c83836129c3565b506111a86000600960008673ffffffffffffffffffffffffffffffffffffffff1673ffffffffffffffffffffffffffffffffffffffff16815260200190815260200160002060009054906101000a900473ffffffffffffffffffffffffffffffffffffffff1684612bb5565b6001905092915050565b6000600960008373ffffffffffffffffffffffffffffffffffffffff1673ffffffffffffffffffffffffffffffffffffffff16815260200190815260200160002060009054906101000a900473ffffffffffffffffffffffffffffffffffffffff169050919050565b600061122561241a565b73ffffffffffffffffffffffffffffffffffffffff1660008054906101000a900473ffffffffffffffffffffffffffffffffffffffff1673ffffffffffffffffffffffffffffffffffffffff16146112e5576040517f08c379a00000000000000000000000000000000000000000000000000000000081526004018080602001828103825260208152602001807f4f776e61626c653a2063616c6c6572206973206e6f7420746865206f776e657281525060200191505060405180910390fd5b60016112ef610c9e565b03821115611365576040517f08c379a00000000000000000000000000000000000000000000000000000000081526004018080602001828103825260188152602001807f4253573a20696e646578206f7574206f6620626f756e6473000000000000000081525060200191505060405180910390fd5b611370600783612e52565b9050919050565b6113813382612e6c565b50565b600b6020528060005260406000206000915054906101000a900463ffffffff1681565b6000600160008373ffffffffffffffffffffffffffffffffffffffff1673ffffffffffffffffffffffffffffffffffffffff168152602001908152602001600020549050919050565b6113f861241a565b73ffffffffffffffffffffffffffffffffffffffff1660008054906101000a900473ffffffffffffffffffffffffffffffffffffffff1673ffffffffffffffffffffffffffffffffffffffff16146114b8576040517f08c379a00000000000000000000000000000000000000000000000000000000081526004018080602001828103825260208152602001807f4f776e61626c653a2063616c6c6572206973206e6f7420746865206f776e657281525060200191505060405180910390fd5b600073ffffffffffffffffffffffffffffffffffffffff1660008054906101000a900473ffffffffffffffffffffffffffffffffffffffff1673ffffffffffffffffffffffffffffffffffffffff167f8be0079c531659141344cd1fd0a4f28419497f9722a3daafe3b4186f6b6457e060405160405180910390a360008060006101000a81548173ffffffffffffffffffffffffffffffffffffffff021916908373ffffffffffffffffffffffffffffffffffffffff160217905550565b60004382106115d0576040517f08c379a000000000000000000000000000000000000000000000000000000000815260040180806020018281038252602681526020018061389b6026913960400191505060405180910390fd5b6000600b60008573ffffffffffffffffffffffffffffffffffffffff1673ffffffffffffffffffffffffffffffffffffffff16815260200190815260200160002060009054906101000a900463ffffffff16905060008163ffffffff16141561163d576000915050611931565b82600a60008673ffffffffffffffffffffffffffffffffffffffff1673ffffffffffffffffffffffffffffffffffffffff16815260200190815260200160002060006001840363ffffffff1663ffffffff16815260200190815260200160002060000160009054906101000a900463ffffffff1663ffffffff161161172757600a60008573ffffffffffffffffffffffffffffffffffffffff1673ffffffffffffffffffffffffffffffffffffffff16815260200190815260200160002060006001830363ffffffff1663ffffffff16815260200190815260200160002060010154915050611931565b82600a60008673ffffffffffffffffffffffffffffffffffffffff1673ffffffffffffffffffffffffffffffffffffffff16815260200190815260200160002060008063ffffffff16815260200190815260200160002060000160009054906101000a900463ffffffff1663ffffffff1611156117a8576000915050611931565b6000806001830390505b8163ffffffff168163ffffffff1611156118cb576000600283830363ffffffff16816117da57fe5b04820390506117e7613735565b600a60008973ffffffffffffffffffffffffffffffffffffffff1673ffffffffffffffffffffffffffffffffffffffff16815260200190815260200160002060008363ffffffff1663ffffffff1681526020019081526020016000206040518060400160405290816000820160009054906101000a900463ffffffff1663ffffffff1663ffffffff168152602001600182015481525050905086816000015163ffffffff1614156118a357806020015195505050505050611931565b86816000015163ffffffff1610156118bd578193506118c4565b6001820392505b50506117b2565b600a60008773ffffffffffffffffffffffffffffffffffffffff1673ffffffffffffffffffffffffffffffffffffffff16815260200190815260200160002060008363ffffffff1663ffffffff1681526020019081526020016000206001015493505050505b92915050565b600c6020528060005260406000206000915090505481565b600061195961195e565b905090565b60008060009054906101000a900473ffffffffffffffffffffffffffffffffffffffff16905090565b606060058054600181600116156101000203166002900480601f016020809104026020016040519081016040528092919081815260200182805460018160011615610100020316600290048015611a1f5780601f106119f457610100808354040283529160200191611a1f565b820191906000526020600020905b815481529060010190602001808311611a0257829003601f168201915b5050505050905090565b6000611a3361241a565b73ffffffffffffffffffffffffffffffffffffffff1660008054906101000a900473ffffffffffffffffffffffffffffffffffffffff1673ffffffffffffffffffffffffffffffffffffffff1614611af3576040517f08c379a00000000000000000000000000000000000000000000000000000000081526004018080602001828103825260208152602001807f4f776e61626c653a2063616c6c6572206973206e6f7420746865206f776e657281525060200191505060405180910390fd5b600073ffffffffffffffffffffffffffffffffffffffff168273ffffffffffffffffffffffffffffffffffffffff161415611b79576040517f08c379a000000000000000000000000000000000000000000000000000000000815260040180806020018281038252602381526020018061382f6023913960400191505060405180910390fd5b611b84600783612fdd565b9050919050565b6000611b9561241a565b73ffffffffffffffffffffffffffffffffffffffff1660008054906101000a900473ffffffffffffffffffffffffffffffffffffffff1673ffffffffffffffffffffffffffffffffffffffff1614611c55576040517f08c379a00000000000000000000000000000000000000000000000000000000081526004018080602001828103825260208152602001807f4f776e61626c653a2063616c6c6572206973206e6f7420746865206f776e657281525060200191505060405180910390fd5b611c66611c6061241a565b836129c3565b5060019050919050565b6000611d33611c7d61241a565b84611d2e8560405180606001604052806025815260200161393d6025913960026000611ca761241a565b73ffffffffffffffffffffffffffffffffffffffff1673ffffffffffffffffffffffffffffffffffffffff16815260200190815260200160002060008a73ffffffffffffffffffffffffffffffffffffffff1673ffffffffffffffffffffffffffffffffffffffff168152602001908152602001600020546129039092919063ffffffff16565b612422565b6001905092915050565b6000611d51611d4a61241a565b8484612649565b6001905092915050565b6000611d6860078361300d565b9050919050565b600080600b60008473ffffffffffffffffffffffffffffffffffffffff1673ffffffffffffffffffffffffffffffffffffffff16815260200190815260200160002060009054906101000a900463ffffffff16905060008163ffffffff1611611dd9576000611e3d565b600a60008473ffffffffffffffffffffffffffffffffffffffff1673ffffffffffffffffffffffffffffffffffffffff16815260200190815260200160002060006001830363ffffffff1663ffffffff168152602001908152602001600020600101545b915050919050565b60007f8cad95687ba82c2ce50e74f7b754645e5117c3a5bec8151c0726d5857980a866611e70610caf565b80519060200120611e7f61303d565b30604051602001808581526020018481526020018381526020018273ffffffffffffffffffffffffffffffffffffffff16815260200194505050505060405160208183030381529060405280519060200120905060007fe48329057bfd03d55e49b547132e39cffd9c1820ad7b9d4c5307691425d15adf888888604051602001808581526020018473ffffffffffffffffffffffffffffffffffffffff1681526020018381526020018281526020019450505050506040516020818303038152906040528051906020012090506000828260405160200180807f190100000000000000000000000000000000000000000000000000000000000081525060020183815260200182815260200192505050604051602081830303815290604052805190602001209050600060018288888860405160008152602001604052604051808581526020018460ff1681526020018381526020018281526020019450505050506020604051602081039080840390855afa158015612003573d6000803e3d6000fd5b505050602060405103519050600073ffffffffffffffffffffffffffffffffffffffff168173ffffffffffffffffffffffffffffffffffffffff161415612095576040517f08c379a00000000000000000000000000000000000000000000000000000000081526004018080602001828103825260258152602001806137786025913960400191505060405180910390fd5b600c60008273ffffffffffffffffffffffffffffffffffffffff1673ffffffffffffffffffffffffffffffffffffffff168152602001908152602001600020600081548092919060010191905055891461213a576040517f08c379a000000000000000000000000000000000000000000000000000000000815260040180806020018281038252602181526020018061387a6021913960400191505060405180910390fd5b87421115612193576040517f08c379a00000000000000000000000000000000000000000000000000000000081526004018080602001828103825260258152602001806139626025913960400191505060405180910390fd5b61219d818b612e6c565b50505050505050505050565b60006b024306c4097859c43c000000905090565b6000600260008473ffffffffffffffffffffffffffffffffffffffff1673ffffffffffffffffffffffffffffffffffffffff16815260200190815260200160002060008373ffffffffffffffffffffffffffffffffffffffff1673ffffffffffffffffffffffffffffffffffffffff16815260200190815260200160002054905092915050565b7fe48329057bfd03d55e49b547132e39cffd9c1820ad7b9d4c5307691425d15adf81565b600a602052816000526040600020602052806000526040600020600091509150508060000160009054906101000a900463ffffffff16908060010154905082565b6122b161241a565b73ffffffffffffffffffffffffffffffffffffffff1660008054906101000a900473ffffffffffffffffffffffffffffffffffffffff1673ffffffffffffffffffffffffffffffffffffffff1614612371576040517f08c379a00000000000000000000000000000000000000000000000000000000081526004018080602001828103825260208152602001807f4f776e61626c653a2063616c6c6572206973206e6f7420746865206f776e657281525060200191505060405180910390fd5b61237a8161304a565b50565b6000808284019050838110156123fb576040517f08c379a000000000000000000000000000000000000000000000000000000000815260040180806020018281038252601b8152602001807f536166654d6174683a206164646974696f6e206f766572666c6f77000000000081525060200191505060405180910390fd5b8091505092915050565b60006124138260000161318d565b9050919050565b600033905090565b600073ffffffffffffffffffffffffffffffffffffffff168373ffffffffffffffffffffffffffffffffffffffff1614156124a8576040517f08c379a00000000000000000000000000000000000000000000000000000000081526004018080602001828103825260248152602001806137c26024913960400191505060405180910390fd5b600073ffffffffffffffffffffffffffffffffffffffff168273ffffffffffffffffffffffffffffffffffffffff16141561252e576040517f08c379a00000000000000000000000000000000000000000000000000000000081526004018080602001828103825260228152602001806139876022913960400191505060405180910390fd5b80600260008573ffffffffffffffffffffffffffffffffffffffff1673ffffffffffffffffffffffffffffffffffffffff16815260200190815260200160002060008473ffffffffffffffffffffffffffffffffffffffff1673ffffffffffffffffffffffffffffffffffffffff168152602001908152602001600020819055508173ffffffffffffffffffffffffffffffffffffffff168373ffffffffffffffffffffffffffffffffffffffff167f8c5be1e5ebec7d5bd14f71427d1e84f3dd0314c0f7b2291e5b200ac8c7c3b925836040518082815260200191505060405180910390a3505050565b6000612641836000018373ffffffffffffffffffffffffffffffffffffffff1660001b61319e565b905092915050565b600073ffffffffffffffffffffffffffffffffffffffff168373ffffffffffffffffffffffffffffffffffffffff1614156126cf576040517f08c379a000000000000000000000000000000000000000000000000000000000815260040180806020018281038252602581526020018061379d6025913960400191505060405180910390fd5b600073ffffffffffffffffffffffffffffffffffffffff168273ffffffffffffffffffffffffffffffffffffffff161415612755576040517f08c379a000000000000000000000000000000000000000000000000000000000815260040180806020018281038252602381526020018061391a6023913960400191505060405180910390fd5b6127c1816040518060600160405280602681526020016138f460269139600160008773ffffffffffffffffffffffffffffffffffffffff1673ffffffffffffffffffffffffffffffffffffffff168152602001908152602001600020546129039092919063ffffffff16565b600160008573ffffffffffffffffffffffffffffffffffffffff1673ffffffffffffffffffffffffffffffffffffffff1681526020019081526020016000208190555061285681600160008573ffffffffffffffffffffffffffffffffffffffff1673ffffffffffffffffffffffffffffffffffffffff1681526020019081526020016000205461237d90919063ffffffff16565b600160008473ffffffffffffffffffffffffffffffffffffffff1673ffffffffffffffffffffffffffffffffffffffff168152602001908152602001600020819055508173ffffffffffffffffffffffffffffffffffffffff168373ffffffffffffffffffffffffffffffffffffffff167fddf252ad1be2c89b69c2b068fc378daa952ba7f163c4a11628f55a4df523b3ef836040518082815260200191505060405180910390a3505050565b60008383111582906129b0576040517f08c379a00000000000000000000000000000000000000000000000000000000081526004018080602001828103825283818151815260200191508051906020019080838360005b8381101561297557808201518184015260208101905061295a565b50505050905090810190601f1680156129a25780820380516001836020036101000a031916815260200191505b509250505060405180910390fd5b5060008385039050809150509392505050565b60008073ffffffffffffffffffffffffffffffffffffffff168373ffffffffffffffffffffffffffffffffffffffff161415612a67576040517f08c379a000000000000000000000000000000000000000000000000000000000815260040180806020018281038252601f8152602001807f42455032303a206d696e7420746f20746865207a65726f20616464726573730081525060200191505060405180910390fd5b6b024306c4097859c43c000000612a896003548461237d90919063ffffffff16565b1115612a985760009050612baf565b612aad8260035461237d90919063ffffffff16565b600381905550612b0582600160008673ffffffffffffffffffffffffffffffffffffffff1673ffffffffffffffffffffffffffffffffffffffff1681526020019081526020016000205461237d90919063ffffffff16565b600160008573ffffffffffffffffffffffffffffffffffffffff1673ffffffffffffffffffffffffffffffffffffffff168152602001908152602001600020819055508273ffffffffffffffffffffffffffffffffffffffff16600073ffffffffffffffffffffffffffffffffffffffff167fddf252ad1be2c89b69c2b068fc378daa952ba7f163c4a11628f55a4df523b3ef846040518082815260200191505060405180910390a35b92915050565b8173ffffffffffffffffffffffffffffffffffffffff168373ffffffffffffffffffffffffffffffffffffffff1614158015612bf15750600081115b15612e4d57600073ffffffffffffffffffffffffffffffffffffffff168373ffffffffffffffffffffffffffffffffffffffff1614612d21576000600b60008573ffffffffffffffffffffffffffffffffffffffff1673ffffffffffffffffffffffffffffffffffffffff16815260200190815260200160002060009054906101000a900463ffffffff1690506000808263ffffffff1611612c94576000612cf8565b600a60008673ffffffffffffffffffffffffffffffffffffffff1673ffffffffffffffffffffffffffffffffffffffff16815260200190815260200160002060006001840363ffffffff1663ffffffff168152602001908152602001600020600101545b90506000612d0f848361328690919063ffffffff16565b9050612d1d868484846132d0565b5050505b600073ffffffffffffffffffffffffffffffffffffffff168273ffffffffffffffffffffffffffffffffffffffff1614612e4c576000600b60008473ffffffffffffffffffffffffffffffffffffffff1673ffffffffffffffffffffffffffffffffffffffff16815260200190815260200160002060009054906101000a900463ffffffff1690506000808263ffffffff1611612dbf576000612e23565b600a60008573ffffffffffffffffffffffffffffffffffffffff1673ffffffffffffffffffffffffffffffffffffffff16815260200190815260200160002060006001840363ffffffff1663ffffffff168152602001908152602001600020600101545b90506000612e3a848361237d90919063ffffffff16565b9050612e48858484846132d0565b5050505b5b505050565b6000612e618360000183613564565b60001c905092915050565b6000600960008473ffffffffffffffffffffffffffffffffffffffff1673ffffffffffffffffffffffffffffffffffffffff16815260200190815260200160002060009054906101000a900473ffffffffffffffffffffffffffffffffffffffff1690506000612edb846113a7565b905082600960008673ffffffffffffffffffffffffffffffffffffffff1673ffffffffffffffffffffffffffffffffffffffff16815260200190815260200160002060006101000a81548173ffffffffffffffffffffffffffffffffffffffff021916908373ffffffffffffffffffffffffffffffffffffffff1602179055508273ffffffffffffffffffffffffffffffffffffffff168273ffffffffffffffffffffffffffffffffffffffff168573ffffffffffffffffffffffffffffffffffffffff167f3134e8a2e6d97e929a7e54011ea5485d7d196dd5f0ba4d4ef95803e8e3fc257f60405160405180910390a4612fd7828483612bb5565b50505050565b6000613005836000018373ffffffffffffffffffffffffffffffffffffffff1660001b6135e7565b905092915050565b6000613035836000018373ffffffffffffffffffffffffffffffffffffffff1660001b613657565b905092915050565b6000804690508091505090565b600073ffffffffffffffffffffffffffffffffffffffff168173ffffffffffffffffffffffffffffffffffffffff1614156130d0576040517f08c379a00000000000000000000000000000000000000000000000000000000081526004018080602001828103825260268152602001806137e66026913960400191505060405180910390fd5b8073ffffffffffffffffffffffffffffffffffffffff1660008054906101000a900473ffffffffffffffffffffffffffffffffffffffff1673ffffffffffffffffffffffffffffffffffffffff167f8be0079c531659141344cd1fd0a4f28419497f9722a3daafe3b4186f6b6457e060405160405180910390a3806000806101000a81548173ffffffffffffffffffffffffffffffffffffffff021916908373ffffffffffffffffffffffffffffffffffffffff16021790555050565b600081600001805490509050919050565b6000808360010160008481526020019081526020016000205490506000811461327a57600060018203905060006001866000018054905003905060008660000182815481106131e957fe5b906000526020600020015490508087600001848154811061320657fe5b906000526020600020018190555060018301876001016000838152602001908152602001600020819055508660000180548061323e57fe5b60019003818190600052602060002001600090559055866001016000878152602001908152602001600020600090556001945050505050613280565b60009150505b92915050565b60006132c883836040518060400160405280601e81526020017f536166654d6174683a207375627472616374696f6e206f766572666c6f770000815250612903565b905092915050565b60006132f4436040518060600160405280603381526020016138c16033913961367a565b905060008463ffffffff1611801561338957508063ffffffff16600a60008773ffffffffffffffffffffffffffffffffffffffff1673ffffffffffffffffffffffffffffffffffffffff16815260200190815260200160002060006001870363ffffffff1663ffffffff16815260200190815260200160002060000160009054906101000a900463ffffffff1663ffffffff16145b156133fa5781600a60008773ffffffffffffffffffffffffffffffffffffffff1673ffffffffffffffffffffffffffffffffffffffff16815260200190815260200160002060006001870363ffffffff1663ffffffff16815260200190815260200160002060010181905550613507565b60405180604001604052808263ffffffff16815260200183815250600a60008773ffffffffffffffffffffffffffffffffffffffff1673ffffffffffffffffffffffffffffffffffffffff16815260200190815260200160002060008663ffffffff1663ffffffff16815260200190815260200160002060008201518160000160006101000a81548163ffffffff021916908363ffffffff1602179055506020820151816001015590505060018401600b60008773ffffffffffffffffffffffffffffffffffffffff1673ffffffffffffffffffffffffffffffffffffffff16815260200190815260200160002060006101000a81548163ffffffff021916908363ffffffff1602179055505b8473ffffffffffffffffffffffffffffffffffffffff167fdec2bacdd2f05b59de34da9b523dff8be42e5e38e818c82fdb0bae774387a7248484604051808381526020018281526020019250505060405180910390a25050505050565b6000818360000180549050116135c5576040517f08c379a00000000000000000000000000000000000000000000000000000000081526004018080602001828103825260228152602001806137566022913960400191505060405180910390fd5b8260000182815481106135d457fe5b9060005260206000200154905092915050565b60006135f38383613657565b61364c578260000182908060018154018082558091505060019003906000526020600020016000909190919091505582600001805490508360010160008481526020019081526020016000208190555060019050613651565b600090505b92915050565b600080836001016000848152602001908152602001600020541415905092915050565b60006401000000008310829061372b576040517f08c379a00000000000000000000000000000000000000000000000000000000081526004018080602001828103825283818151815260200191508051906020019080838360005b838110156136f05780820151818401526020810190506136d5565b50505050905090810190601f16801561371d5780820380516001836020036101000a031916815260200191505b509250505060405180910390fd5b5082905092915050565b6040518060400160405280600063ffffffff16815260200160008152509056fe456e756d657261626c655365743a20696e646578206f7574206f6620626f756e64734253573a3a64656c656761746542795369673a20696e76616c6964207369676e617475726542455032303a207472616e736665722066726f6d20746865207a65726f206164647265737342455032303a20617070726f76652066726f6d20746865207a65726f20616464726573734f776e61626c653a206e6577206f776e657220697320746865207a65726f20616464726573734253573a205f64656c4d696e74657220697320746865207a65726f20616464726573734253573a205f6164644d696e74657220697320746865207a65726f206164647265737342455032303a207472616e7366657220616d6f756e74206578636565647320616c6c6f77616e63654253573a3a64656c656761746542795369673a20696e76616c6964206e6f6e63654253573a3a6765745072696f72566f7465733a206e6f74207965742064657465726d696e65644253573a3a5f7772697465436865636b706f696e743a20626c6f636b206e756d6265722065786365656473203332206269747342455032303a207472616e7366657220616d6f756e7420657863656564732062616c616e636542455032303a207472616e7366657220746f20746865207a65726f206164647265737342455032303a2064656372656173656420616c6c6f77616e63652062656c6f77207a65726f4253573a3a64656c656761746542795369673a207369676e6174757265206578706972656442455032303a20617070726f766520746f20746865207a65726f2061646472657373a264697066735822122083f5033f7d2bc93c8348969f4fefb90bedbbe4b83ddde4e52372c37136720c0764736f6c634300060c0033",
					"opcodes": "PUSH1 0x80 PUSH1 0x40 MSTORE CALLVALUE DUP1 ISZERO PUSH3 0x11 JUMPI PUSH1 0x0 DUP1 REVERT JUMPDEST POP PUSH1 0x40 MLOAD DUP1 PUSH1 0x40 ADD PUSH1 0x40 MSTORE DUP1 PUSH1 0x6 DUP2 MSTORE PUSH1 0x20 ADD PUSH32 0x4269737761700000000000000000000000000000000000000000000000000000 DUP2 MSTORE POP PUSH1 0x40 MLOAD DUP1 PUSH1 0x40 ADD PUSH1 0x40 MSTORE DUP1 PUSH1 0x3 DUP2 MSTORE PUSH1 0x20 ADD PUSH32 0x4253570000000000000000000000000000000000000000000000000000000000 DUP2 MSTORE POP PUSH1 0x0 PUSH3 0x90 PUSH3 0x1A2 PUSH1 0x20 SHL PUSH1 0x20 SHR JUMP JUMPDEST SWAP1 POP DUP1 PUSH1 0x0 DUP1 PUSH2 0x100 EXP DUP2 SLOAD DUP2 PUSH20 0xFFFFFFFFFFFFFFFFFFFFFFFFFFFFFFFFFFFFFFFF MUL NOT AND SWAP1 DUP4 PUSH20 0xFFFFFFFFFFFFFFFFFFFFFFFFFFFFFFFFFFFFFFFF AND MUL OR SWAP1 SSTORE POP DUP1 PUSH20 0xFFFFFFFFFFFFFFFFFFFFFFFFFFFFFFFFFFFFFFFF AND PUSH1 0x0 PUSH20 0xFFFFFFFFFFFFFFFFFFFFFFFFFFFFFFFFFFFFFFFF AND PUSH32 0x8BE0079C531659141344CD1FD0A4F28419497F9722A3DAAFE3B4186F6B6457E0 PUSH1 0x40 MLOAD PUSH1 0x40 MLOAD DUP1 SWAP2 SUB SWAP1 LOG3 POP DUP2 PUSH1 0x4 SWAP1 DUP1 MLOAD SWAP1 PUSH1 0x20 ADD SWAP1 PUSH3 0x146 SWAP3 SWAP2 SWAP1 PUSH3 0x43D JUMP JUMPDEST POP DUP1 PUSH1 0x5 SWAP1 DUP1 MLOAD SWAP1 PUSH1 0x20 ADD SWAP1 PUSH3 0x15F SWAP3 SWAP2 SWAP1 PUSH3 0x43D JUMP JUMPDEST POP PUSH1 0x12 PUSH1 0x6 PUSH1 0x0 PUSH2 0x100 EXP DUP2 SLOAD DUP2 PUSH1 0xFF MUL NOT AND SWAP1 DUP4 PUSH1 0xFF AND MUL OR SWAP1 SSTORE POP PUSH3 0x199 CALLER PUSH11 0x84595161401484A000000 PUSH3 0x1AA PUSH1 0x20 SHL PUSH1 0x20 SHR JUMP JUMPDEST POP POP POP PUSH3 0x4E3 JUMP JUMPDEST PUSH1 0x0 CALLER SWAP1 POP SWAP1 JUMP JUMPDEST PUSH1 0x0 DUP1 PUSH20 0xFFFFFFFFFFFFFFFFFFFFFFFFFFFFFFFFFFFFFFFF AND DUP4 PUSH20 0xFFFFFFFFFFFFFFFFFFFFFFFFFFFFFFFFFFFFFFFF AND EQ ISZERO PUSH3 0x24F JUMPI PUSH1 0x40 MLOAD PUSH32 0x8C379A000000000000000000000000000000000000000000000000000000000 DUP2 MSTORE PUSH1 0x4 ADD DUP1 DUP1 PUSH1 0x20 ADD DUP3 DUP2 SUB DUP3 MSTORE PUSH1 0x1F DUP2 MSTORE PUSH1 0x20 ADD DUP1 PUSH32 0x42455032303A206D696E7420746F20746865207A65726F206164647265737300 DUP2 MSTORE POP PUSH1 0x20 ADD SWAP2 POP POP PUSH1 0x40 MLOAD DUP1 SWAP2 SUB SWAP1 REVERT JUMPDEST PUSH12 0x24306C4097859C43C000000 PUSH3 0x278 PUSH1 0x3 SLOAD DUP5 PUSH3 0x3B4 PUSH1 0x20 SHL PUSH3 0x237D OR SWAP1 SWAP2 SWAP1 PUSH1 0x20 SHR JUMP JUMPDEST GT ISZERO PUSH3 0x289 JUMPI PUSH1 0x0 SWAP1 POP PUSH3 0x3AE JUMP JUMPDEST PUSH3 0x2A5 DUP3 PUSH1 0x3 SLOAD PUSH3 0x3B4 PUSH1 0x20 SHL PUSH3 0x237D OR SWAP1 SWAP2 SWAP1 PUSH1 0x20 SHR JUMP JUMPDEST PUSH1 0x3 DUP2 SWAP1 SSTORE POP PUSH3 0x304 DUP3 PUSH1 0x1 PUSH1 0x0 DUP7 PUSH20 0xFFFFFFFFFFFFFFFFFFFFFFFFFFFFFFFFFFFFFFFF AND PUSH20 0xFFFFFFFFFFFFFFFFFFFFFFFFFFFFFFFFFFFFFFFF AND DUP2 MSTORE PUSH1 0x20 ADD SWAP1 DUP2 MSTORE PUSH1 0x20 ADD PUSH1 0x0 KECCAK256 SLOAD PUSH3 0x3B4 PUSH1 0x20 SHL PUSH3 0x237D OR SWAP1 SWAP2 SWAP1 PUSH1 0x20 SHR JUMP JUMPDEST PUSH1 0x1 PUSH1 0x0 DUP6 PUSH20 0xFFFFFFFFFFFFFFFFFFFFFFFFFFFFFFFFFFFFFFFF AND PUSH20 0xFFFFFFFFFFFFFFFFFFFFFFFFFFFFFFFFFFFFFFFF AND DUP2 MSTORE PUSH1 0x20 ADD SWAP1 DUP2 MSTORE PUSH1 0x20 ADD PUSH1 0x0 KECCAK256 DUP2 SWAP1 SSTORE POP DUP3 PUSH20 0xFFFFFFFFFFFFFFFFFFFFFFFFFFFFFFFFFFFFFFFF AND PUSH1 0x0 PUSH20 0xFFFFFFFFFFFFFFFFFFFFFFFFFFFFFFFFFFFFFFFF AND PUSH32 0xDDF252AD1BE2C89B69C2B068FC378DAA952BA7F163C4A11628F55A4DF523B3EF DUP5 PUSH1 0x40 MLOAD DUP1 DUP3 DUP2 MSTORE PUSH1 0x20 ADD SWAP2 POP POP PUSH1 0x40 MLOAD DUP1 SWAP2 SUB SWAP1 LOG3 JUMPDEST SWAP3 SWAP2 POP POP JUMP JUMPDEST PUSH1 0x0 DUP1 DUP3 DUP5 ADD SWAP1 POP DUP4 DUP2 LT ISZERO PUSH3 0x433 JUMPI PUSH1 0x40 MLOAD PUSH32 0x8C379A000000000000000000000000000000000000000000000000000000000 DUP2 MSTORE PUSH1 0x4 ADD DUP1 DUP1 PUSH1 0x20 ADD DUP3 DUP2 SUB DUP3 MSTORE PUSH1 0x1B DUP2 MSTORE PUSH1 0x20 ADD DUP1 PUSH32 0x536166654D6174683A206164646974696F6E206F766572666C6F770000000000 DUP2 MSTORE POP PUSH1 0x20 ADD SWAP2 POP POP PUSH1 0x40 MLOAD DUP1 SWAP2 SUB SWAP1 REVERT JUMPDEST DUP1 SWAP2 POP POP SWAP3 SWAP2 POP POP JUMP JUMPDEST DUP3 DUP1 SLOAD PUSH1 0x1 DUP2 PUSH1 0x1 AND ISZERO PUSH2 0x100 MUL SUB AND PUSH1 0x2 SWAP1 DIV SWAP1 PUSH1 0x0 MSTORE PUSH1 0x20 PUSH1 0x0 KECCAK256 SWAP1 PUSH1 0x1F ADD PUSH1 0x20 SWAP1 DIV DUP2 ADD SWAP3 DUP3 PUSH1 0x1F LT PUSH3 0x480 JUMPI DUP1 MLOAD PUSH1 0xFF NOT AND DUP4 DUP1 ADD OR DUP6 SSTORE PUSH3 0x4B1 JUMP JUMPDEST DUP3 DUP1 ADD PUSH1 0x1 ADD DUP6 SSTORE DUP3 ISZERO PUSH3 0x4B1 JUMPI SWAP2 DUP3 ADD JUMPDEST DUP3 DUP2 GT ISZERO PUSH3 0x4B0 JUMPI DUP3 MLOAD DUP3 SSTORE SWAP2 PUSH1 0x20 ADD SWAP2 SWAP1 PUSH1 0x1 ADD SWAP1 PUSH3 0x493 JUMP JUMPDEST JUMPDEST POP SWAP1 POP PUSH3 0x4C0 SWAP2 SWAP1 PUSH3 0x4C4 JUMP JUMPDEST POP SWAP1 JUMP JUMPDEST JUMPDEST DUP1 DUP3 GT ISZERO PUSH3 0x4DF JUMPI PUSH1 0x0 DUP2 PUSH1 0x0 SWAP1 SSTORE POP PUSH1 0x1 ADD PUSH3 0x4C5 JUMP JUMPDEST POP SWAP1 JUMP JUMPDEST PUSH2 0x39DE DUP1 PUSH3 0x4F3 PUSH1 0x0 CODECOPY PUSH1 0x0 RETURN INVALID PUSH1 0x80 PUSH1 0x40 MSTORE CALLVALUE DUP1 ISZERO PUSH2 0x10 JUMPI PUSH1 0x0 DUP1 REVERT JUMPDEST POP PUSH1 0x4 CALLDATASIZE LT PUSH2 0x206 JUMPI PUSH1 0x0 CALLDATALOAD PUSH1 0xE0 SHR DUP1 PUSH4 0x782D6FE1 GT PUSH2 0x11A JUMPI DUP1 PUSH4 0xA9059CBB GT PUSH2 0xAD JUMPI DUP1 PUSH4 0xD5ABEB01 GT PUSH2 0x7C JUMPI DUP1 PUSH4 0xD5ABEB01 EQ PUSH2 0xB31 JUMPI DUP1 PUSH4 0xDD62ED3E EQ PUSH2 0xB4F JUMPI DUP1 PUSH4 0xE7A324DC EQ PUSH2 0xBC7 JUMPI DUP1 PUSH4 0xF1127ED8 EQ PUSH2 0xBE5 JUMPI DUP1 PUSH4 0xF2FDE38B EQ PUSH2 0xC5A JUMPI PUSH2 0x206 JUMP JUMPDEST DUP1 PUSH4 0xA9059CBB EQ PUSH2 0x9A2 JUMPI DUP1 PUSH4 0xAA271E1A EQ PUSH2 0xA06 JUMPI DUP1 PUSH4 0xB4B5EA57 EQ PUSH2 0xA60 JUMPI DUP1 PUSH4 0xC3CDA520 EQ PUSH2 0xAB8 JUMPI PUSH2 0x206 JUMP JUMPDEST DUP1 PUSH4 0x95D89B41 GT PUSH2 0xE9 JUMPI DUP1 PUSH4 0x95D89B41 EQ PUSH2 0x81D JUMPI DUP1 PUSH4 0x983B2D56 EQ PUSH2 0x8A0 JUMPI DUP1 PUSH4 0xA0712D68 EQ PUSH2 0x8FA JUMPI DUP1 PUSH4 0xA457C2D7 EQ PUSH2 0x93E JUMPI PUSH2 0x206 JUMP JUMPDEST DUP1 PUSH4 0x782D6FE1 EQ PUSH2 0x6FB JUMPI DUP1 PUSH4 0x7ECEBE00 EQ PUSH2 0x75D JUMPI DUP1 PUSH4 0x893D20E8 EQ PUSH2 0x7B5 JUMPI DUP1 PUSH4 0x8DA5CB5B EQ PUSH2 0x7E9 JUMPI PUSH2 0x206 JUMP JUMPDEST DUP1 PUSH4 0x313CE567 GT PUSH2 0x19D JUMPI DUP1 PUSH4 0x5B7121F8 GT PUSH2 0x16C JUMPI DUP1 PUSH4 0x5B7121F8 EQ PUSH2 0x59F JUMPI DUP1 PUSH4 0x5C19A95C EQ PUSH2 0x5F7 JUMPI DUP1 PUSH4 0x6FCFFF45 EQ PUSH2 0x63B JUMPI DUP1 PUSH4 0x70A08231 EQ PUSH2 0x699 JUMPI DUP1 PUSH4 0x715018A6 EQ PUSH2 0x6F1 JUMPI PUSH2 0x206 JUMP JUMPDEST DUP1 PUSH4 0x313CE567 EQ PUSH2 0x448 JUMPI DUP1 PUSH4 0x39509351 EQ PUSH2 0x469 JUMPI DUP1 PUSH4 0x40C10F19 EQ PUSH2 0x4CD JUMPI DUP1 PUSH4 0x587CDE1E EQ PUSH2 0x531 JUMPI PUSH2 0x206 JUMP JUMPDEST DUP1 PUSH4 0x18160DDD GT PUSH2 0x1D9 JUMPI DUP1 PUSH4 0x18160DDD EQ PUSH2 0x32E JUMPI DUP1 PUSH4 0x20606B70 EQ PUSH2 0x34C JUMPI DUP1 PUSH4 0x23338B88 EQ PUSH2 0x36A JUMPI DUP1 PUSH4 0x23B872DD EQ PUSH2 0x3C4 JUMPI PUSH2 0x206 JUMP JUMPDEST DUP1 PUSH4 0x323AAC7 EQ PUSH2 0x20B JUMPI DUP1 PUSH4 0x6FDDE03 EQ PUSH2 0x229 JUMPI DUP1 PUSH4 0x95EA7B3 EQ PUSH2 0x2AC JUMPI DUP1 PUSH4 0xC16EA83 EQ PUSH2 0x310 JUMPI JUMPDEST PUSH1 0x0 DUP1 REVERT JUMPDEST PUSH2 0x213 PUSH2 0xC9E JUMP JUMPDEST PUSH1 0x40 MLOAD DUP1 DUP3 DUP2 MSTORE PUSH1 0x20 ADD SWAP2 POP POP PUSH1 0x40 MLOAD DUP1 SWAP2 SUB SWAP1 RETURN JUMPDEST PUSH2 0x231 PUSH2 0xCAF JUMP JUMPDEST PUSH1 0x40 MLOAD DUP1 DUP1 PUSH1 0x20 ADD DUP3 DUP2 SUB DUP3 MSTORE DUP4 DUP2 DUP2 MLOAD DUP2 MSTORE PUSH1 0x20 ADD SWAP2 POP DUP1 MLOAD SWAP1 PUSH1 0x20 ADD SWAP1 DUP1 DUP4 DUP4 PUSH1 0x0 JUMPDEST DUP4 DUP2 LT ISZERO PUSH2 0x271 JUMPI DUP1 DUP3 ADD MLOAD DUP2 DUP5 ADD MSTORE PUSH1 0x20 DUP2 ADD SWAP1 POP PUSH2 0x256 JUMP JUMPDEST POP POP POP POP SWAP1 POP SWAP1 DUP2 ADD SWAP1 PUSH1 0x1F AND DUP1 ISZERO PUSH2 0x29E JUMPI DUP1 DUP3 SUB DUP1 MLOAD PUSH1 0x1 DUP4 PUSH1 0x20 SUB PUSH2 0x100 EXP SUB NOT AND DUP2 MSTORE PUSH1 0x20 ADD SWAP2 POP JUMPDEST POP SWAP3 POP POP POP PUSH1 0x40 MLOAD DUP1 SWAP2 SUB SWAP1 RETURN JUMPDEST PUSH2 0x2F8 PUSH1 0x4 DUP1 CALLDATASIZE SUB PUSH1 0x40 DUP2 LT ISZERO PUSH2 0x2C2 JUMPI PUSH1 0x0 DUP1 REVERT JUMPDEST DUP2 ADD SWAP1 DUP1 DUP1 CALLDATALOAD PUSH20 0xFFFFFFFFFFFFFFFFFFFFFFFFFFFFFFFFFFFFFFFF AND SWAP1 PUSH1 0x20 ADD SWAP1 SWAP3 SWAP2 SWAP1 DUP1 CALLDATALOAD SWAP1 PUSH1 0x20 ADD SWAP1 SWAP3 SWAP2 SWAP1 POP POP POP PUSH2 0xD51 JUMP JUMPDEST PUSH1 0x40 MLOAD DUP1 DUP3 ISZERO ISZERO DUP2 MSTORE PUSH1 0x20 ADD SWAP2 POP POP PUSH1 0x40 MLOAD DUP1 SWAP2 SUB SWAP1 RETURN JUMPDEST PUSH2 0x318 PUSH2 0xD6F JUMP JUMPDEST PUSH1 0x40 MLOAD DUP1 DUP3 DUP2 MSTORE PUSH1 0x20 ADD SWAP2 POP POP PUSH1 0x40 MLOAD DUP1 SWAP2 SUB SWAP1 RETURN JUMPDEST PUSH2 0x336 PUSH2 0xD82 JUMP JUMPDEST PUSH1 0x40 MLOAD DUP1 DUP3 DUP2 MSTORE PUSH1 0x20 ADD SWAP2 POP POP PUSH1 0x40 MLOAD DUP1 SWAP2 SUB SWAP1 RETURN JUMPDEST PUSH2 0x354 PUSH2 0xD8C JUMP JUMPDEST PUSH1 0x40 MLOAD DUP1 DUP3 DUP2 MSTORE PUSH1 0x20 ADD SWAP2 POP POP PUSH1 0x40 MLOAD DUP1 SWAP2 SUB SWAP1 RETURN JUMPDEST PUSH2 0x3AC PUSH1 0x4 DUP1 CALLDATASIZE SUB PUSH1 0x20 DUP2 LT ISZERO PUSH2 0x380 JUMPI PUSH1 0x0 DUP1 REVERT JUMPDEST DUP2 ADD SWAP1 DUP1 DUP1 CALLDATALOAD PUSH20 0xFFFFFFFFFFFFFFFFFFFFFFFFFFFFFFFFFFFFFFFF AND SWAP1 PUSH1 0x20 ADD SWAP1 SWAP3 SWAP2 SWAP1 POP POP POP PUSH2 0xDB0 JUMP JUMPDEST PUSH1 0x40 MLOAD DUP1 DUP3 ISZERO ISZERO DUP2 MSTORE PUSH1 0x20 ADD SWAP2 POP POP PUSH1 0x40 MLOAD DUP1 SWAP2 SUB SWAP1 RETURN JUMPDEST PUSH2 0x430 PUSH1 0x4 DUP1 CALLDATASIZE SUB PUSH1 0x60 DUP2 LT ISZERO PUSH2 0x3DA JUMPI PUSH1 0x0 DUP1 REVERT JUMPDEST DUP2 ADD SWAP1 DUP1 DUP1 CALLDATALOAD PUSH20 0xFFFFFFFFFFFFFFFFFFFFFFFFFFFFFFFFFFFFFFFF AND SWAP1 PUSH1 0x20 ADD SWAP1 SWAP3 SWAP2 SWAP1 DUP1 CALLDATALOAD PUSH20 0xFFFFFFFFFFFFFFFFFFFFFFFFFFFFFFFFFFFFFFFF AND SWAP1 PUSH1 0x20 ADD SWAP1 SWAP3 SWAP2 SWAP1 DUP1 CALLDATALOAD SWAP1 PUSH1 0x20 ADD SWAP1 SWAP3 SWAP2 SWAP1 POP POP POP PUSH2 0xF12 JUMP JUMPDEST PUSH1 0x40 MLOAD DUP1 DUP3 ISZERO ISZERO DUP2 MSTORE PUSH1 0x20 ADD SWAP2 POP POP PUSH1 0x40 MLOAD DUP1 SWAP2 SUB SWAP1 RETURN JUMPDEST PUSH2 0x450 PUSH2 0xFEB JUMP JUMPDEST PUSH1 0x40 MLOAD DUP1 DUP3 PUSH1 0xFF AND DUP2 MSTORE PUSH1 0x20 ADD SWAP2 POP POP PUSH1 0x40 MLOAD DUP1 SWAP2 SUB SWAP1 RETURN JUMPDEST PUSH2 0x4B5 PUSH1 0x4 DUP1 CALLDATASIZE SUB PUSH1 0x40 DUP2 LT ISZERO PUSH2 0x47F JUMPI PUSH1 0x0 DUP1 REVERT JUMPDEST DUP2 ADD SWAP1 DUP1 DUP1 CALLDATALOAD PUSH20 0xFFFFFFFFFFFFFFFFFFFFFFFFFFFFFFFFFFFFFFFF AND SWAP1 PUSH1 0x20 ADD SWAP1 SWAP3 SWAP2 SWAP1 DUP1 CALLDATALOAD SWAP1 PUSH1 0x20 ADD SWAP1 SWAP3 SWAP2 SWAP1 POP POP POP PUSH2 0x1002 JUMP JUMPDEST PUSH1 0x40 MLOAD DUP1 DUP3 ISZERO ISZERO DUP2 MSTORE PUSH1 0x20 ADD SWAP2 POP POP PUSH1 0x40 MLOAD DUP1 SWAP2 SUB SWAP1 RETURN JUMPDEST PUSH2 0x519 PUSH1 0x4 DUP1 CALLDATASIZE SUB PUSH1 0x40 DUP2 LT ISZERO PUSH2 0x4E3 JUMPI PUSH1 0x0 DUP1 REVERT JUMPDEST DUP2 ADD SWAP1 DUP1 DUP1 CALLDATALOAD PUSH20 0xFFFFFFFFFFFFFFFFFFFFFFFFFFFFFFFFFFFFFFFF AND SWAP1 PUSH1 0x20 ADD SWAP1 SWAP3 SWAP2 SWAP1 DUP1 CALLDATALOAD SWAP1 PUSH1 0x20 ADD SWAP1 SWAP3 SWAP2 SWAP1 POP POP POP PUSH2 0x10B5 JUMP JUMPDEST PUSH1 0x40 MLOAD DUP1 DUP3 ISZERO ISZERO DUP2 MSTORE PUSH1 0x20 ADD SWAP2 POP POP PUSH1 0x40 MLOAD DUP1 SWAP2 SUB SWAP1 RETURN JUMPDEST PUSH2 0x573 PUSH1 0x4 DUP1 CALLDATASIZE SUB PUSH1 0x20 DUP2 LT ISZERO PUSH2 0x547 JUMPI PUSH1 0x0 DUP1 REVERT JUMPDEST DUP2 ADD SWAP1 DUP1 DUP1 CALLDATALOAD PUSH20 0xFFFFFFFFFFFFFFFFFFFFFFFFFFFFFFFFFFFFFFFF AND SWAP1 PUSH1 0x20 ADD SWAP1 SWAP3 SWAP2 SWAP1 POP POP POP PUSH2 0x11B2 JUMP JUMPDEST PUSH1 0x40 MLOAD DUP1 DUP3 PUSH20 0xFFFFFFFFFFFFFFFFFFFFFFFFFFFFFFFFFFFFFFFF AND DUP2 MSTORE PUSH1 0x20 ADD SWAP2 POP POP PUSH1 0x40 MLOAD DUP1 SWAP2 SUB SWAP1 RETURN JUMPDEST PUSH2 0x5CB PUSH1 0x4 DUP1 CALLDATASIZE SUB PUSH1 0x20 DUP2 LT ISZERO PUSH2 0x5B5 JUMPI PUSH1 0x0 DUP1 REVERT JUMPDEST DUP2 ADD SWAP1 DUP1 DUP1 CALLDATALOAD SWAP1 PUSH1 0x20 ADD SWAP1 SWAP3 SWAP2 SWAP1 POP POP POP PUSH2 0x121B JUMP JUMPDEST PUSH1 0x40 MLOAD DUP1 DUP3 PUSH20 0xFFFFFFFFFFFFFFFFFFFFFFFFFFFFFFFFFFFFFFFF AND DUP2 MSTORE PUSH1 0x20 ADD SWAP2 POP POP PUSH1 0x40 MLOAD DUP1 SWAP2 SUB SWAP1 RETURN JUMPDEST PUSH2 0x639 PUSH1 0x4 DUP1 CALLDATASIZE SUB PUSH1 0x20 DUP2 LT ISZERO PUSH2 0x60D JUMPI PUSH1 0x0 DUP1 REVERT JUMPDEST DUP2 ADD SWAP1 DUP1 DUP1 CALLDATALOAD PUSH20 0xFFFFFFFFFFFFFFFFFFFFFFFFFFFFFFFFFFFFFFFF AND SWAP1 PUSH1 0x20 ADD SWAP1 SWAP3 SWAP2 SWAP1 POP POP POP PUSH2 0x1377 JUMP JUMPDEST STOP JUMPDEST PUSH2 0x67D PUSH1 0x4 DUP1 CALLDATASIZE SUB PUSH1 0x20 DUP2 LT ISZERO PUSH2 0x651 JUMPI PUSH1 0x0 DUP1 REVERT JUMPDEST DUP2 ADD SWAP1 DUP1 DUP1 CALLDATALOAD PUSH20 0xFFFFFFFFFFFFFFFFFFFFFFFFFFFFFFFFFFFFFFFF AND SWAP1 PUSH1 0x20 ADD SWAP1 SWAP3 SWAP2 SWAP1 POP POP POP PUSH2 0x1384 JUMP JUMPDEST PUSH1 0x40 MLOAD DUP1 DUP3 PUSH4 0xFFFFFFFF AND DUP2 MSTORE PUSH1 0x20 ADD SWAP2 POP POP PUSH1 0x40 MLOAD DUP1 SWAP2 SUB SWAP1 RETURN JUMPDEST PUSH2 0x6DB PUSH1 0x4 DUP1 CALLDATASIZE SUB PUSH1 0x20 DUP2 LT ISZERO PUSH2 0x6AF JUMPI PUSH1 0x0 DUP1 REVERT JUMPDEST DUP2 ADD SWAP1 DUP1 DUP1 CALLDATALOAD PUSH20 0xFFFFFFFFFFFFFFFFFFFFFFFFFFFFFFFFFFFFFFFF AND SWAP1 PUSH1 0x20 ADD SWAP1 SWAP3 SWAP2 SWAP1 POP POP POP PUSH2 0x13A7 JUMP JUMPDEST PUSH1 0x40 MLOAD DUP1 DUP3 DUP2 MSTORE PUSH1 0x20 ADD SWAP2 POP POP PUSH1 0x40 MLOAD DUP1 SWAP2 SUB SWAP1 RETURN JUMPDEST PUSH2 0x6F9 PUSH2 0x13F0 JUMP JUMPDEST STOP JUMPDEST PUSH2 0x747 PUSH1 0x4 DUP1 CALLDATASIZE SUB PUSH1 0x40 DUP2 LT ISZERO PUSH2 0x711 JUMPI PUSH1 0x0 DUP1 REVERT JUMPDEST DUP2 ADD SWAP1 DUP1 DUP1 CALLDATALOAD PUSH20 0xFFFFFFFFFFFFFFFFFFFFFFFFFFFFFFFFFFFFFFFF AND SWAP1 PUSH1 0x20 ADD SWAP1 SWAP3 SWAP2 SWAP1 DUP1 CALLDATALOAD SWAP1 PUSH1 0x20 ADD SWAP1 SWAP3 SWAP2 SWAP1 POP POP POP PUSH2 0x1576 JUMP JUMPDEST PUSH1 0x40 MLOAD DUP1 DUP3 DUP2 MSTORE PUSH1 0x20 ADD SWAP2 POP POP PUSH1 0x40 MLOAD DUP1 SWAP2 SUB SWAP1 RETURN JUMPDEST PUSH2 0x79F PUSH1 0x4 DUP1 CALLDATASIZE SUB PUSH1 0x20 DUP2 LT ISZERO PUSH2 0x773 JUMPI PUSH1 0x0 DUP1 REVERT JUMPDEST DUP2 ADD SWAP1 DUP1 DUP1 CALLDATALOAD PUSH20 0xFFFFFFFFFFFFFFFFFFFFFFFFFFFFFFFFFFFFFFFF AND SWAP1 PUSH1 0x20 ADD SWAP1 SWAP3 SWAP2 SWAP1 POP POP POP PUSH2 0x1937 JUMP JUMPDEST PUSH1 0x40 MLOAD DUP1 DUP3 DUP2 MSTORE PUSH1 0x20 ADD SWAP2 POP POP PUSH1 0x40 MLOAD DUP1 SWAP2 SUB SWAP1 RETURN JUMPDEST PUSH2 0x7BD PUSH2 0x194F JUMP JUMPDEST PUSH1 0x40 MLOAD DUP1 DUP3 PUSH20 0xFFFFFFFFFFFFFFFFFFFFFFFFFFFFFFFFFFFFFFFF AND DUP2 MSTORE PUSH1 0x20 ADD SWAP2 POP POP PUSH1 0x40 MLOAD DUP1 SWAP2 SUB SWAP1 RETURN JUMPDEST PUSH2 0x7F1 PUSH2 0x195E JUMP JUMPDEST PUSH1 0x40 MLOAD DUP1 DUP3 PUSH20 0xFFFFFFFFFFFFFFFFFFFFFFFFFFFFFFFFFFFFFFFF AND DUP2 MSTORE PUSH1 0x20 ADD SWAP2 POP POP PUSH1 0x40 MLOAD DUP1 SWAP2 SUB SWAP1 RETURN JUMPDEST PUSH2 0x825 PUSH2 0x1987 JUMP JUMPDEST PUSH1 0x40 MLOAD DUP1 DUP1 PUSH1 0x20 ADD DUP3 DUP2 SUB DUP3 MSTORE DUP4 DUP2 DUP2 MLOAD DUP2 MSTORE PUSH1 0x20 ADD SWAP2 POP DUP1 MLOAD SWAP1 PUSH1 0x20 ADD SWAP1 DUP1 DUP4 DUP4 PUSH1 0x0 JUMPDEST DUP4 DUP2 LT ISZERO PUSH2 0x865 JUMPI DUP1 DUP3 ADD MLOAD DUP2 DUP5 ADD MSTORE PUSH1 0x20 DUP2 ADD SWAP1 POP PUSH2 0x84A JUMP JUMPDEST POP POP POP POP SWAP1 POP SWAP1 DUP2 ADD SWAP1 PUSH1 0x1F AND DUP1 ISZERO PUSH2 0x892 JUMPI DUP1 DUP3 SUB DUP1 MLOAD PUSH1 0x1 DUP4 PUSH1 0x20 SUB PUSH2 0x100 EXP SUB NOT AND DUP2 MSTORE PUSH1 0x20 ADD SWAP2 POP JUMPDEST POP SWAP3 POP POP POP PUSH1 0x40 MLOAD DUP1 SWAP2 SUB SWAP1 RETURN JUMPDEST PUSH2 0x8E2 PUSH1 0x4 DUP1 CALLDATASIZE SUB PUSH1 0x20 DUP2 LT ISZERO PUSH2 0x8B6 JUMPI PUSH1 0x0 DUP1 REVERT JUMPDEST DUP2 ADD SWAP1 DUP1 DUP1 CALLDATALOAD PUSH20 0xFFFFFFFFFFFFFFFFFFFFFFFFFFFFFFFFFFFFFFFF AND SWAP1 PUSH1 0x20 ADD SWAP1 SWAP3 SWAP2 SWAP1 POP POP POP PUSH2 0x1A29 JUMP JUMPDEST PUSH1 0x40 MLOAD DUP1 DUP3 ISZERO ISZERO DUP2 MSTORE PUSH1 0x20 ADD SWAP2 POP POP PUSH1 0x40 MLOAD DUP1 SWAP2 SUB SWAP1 RETURN JUMPDEST PUSH2 0x926 PUSH1 0x4 DUP1 CALLDATASIZE SUB PUSH1 0x20 DUP2 LT ISZERO PUSH2 0x910 JUMPI PUSH1 0x0 DUP1 REVERT JUMPDEST DUP2 ADD SWAP1 DUP1 DUP1 CALLDATALOAD SWAP1 PUSH1 0x20 ADD SWAP1 SWAP3 SWAP2 SWAP1 POP POP POP PUSH2 0x1B8B JUMP JUMPDEST PUSH1 0x40 MLOAD DUP1 DUP3 ISZERO ISZERO DUP2 MSTORE PUSH1 0x20 ADD SWAP2 POP POP PUSH1 0x40 MLOAD DUP1 SWAP2 SUB SWAP1 RETURN JUMPDEST PUSH2 0x98A PUSH1 0x4 DUP1 CALLDATASIZE SUB PUSH1 0x40 DUP2 LT ISZERO PUSH2 0x954 JUMPI PUSH1 0x0 DUP1 REVERT JUMPDEST DUP2 ADD SWAP1 DUP1 DUP1 CALLDATALOAD PUSH20 0xFFFFFFFFFFFFFFFFFFFFFFFFFFFFFFFFFFFFFFFF AND SWAP1 PUSH1 0x20 ADD SWAP1 SWAP3 SWAP2 SWAP1 DUP1 CALLDATALOAD SWAP1 PUSH1 0x20 ADD SWAP1 SWAP3 SWAP2 SWAP1 POP POP POP PUSH2 0x1C70 JUMP JUMPDEST PUSH1 0x40 MLOAD DUP1 DUP3 ISZERO ISZERO DUP2 MSTORE PUSH1 0x20 ADD SWAP2 POP POP PUSH1 0x40 MLOAD DUP1 SWAP2 SUB SWAP1 RETURN JUMPDEST PUSH2 0x9EE PUSH1 0x4 DUP1 CALLDATASIZE SUB PUSH1 0x40 DUP2 LT ISZERO PUSH2 0x9B8 JUMPI PUSH1 0x0 DUP1 REVERT JUMPDEST DUP2 ADD SWAP1 DUP1 DUP1 CALLDATALOAD PUSH20 0xFFFFFFFFFFFFFFFFFFFFFFFFFFFFFFFFFFFFFFFF AND SWAP1 PUSH1 0x20 ADD SWAP1 SWAP3 SWAP2 SWAP1 DUP1 CALLDATALOAD SWAP1 PUSH1 0x20 ADD SWAP1 SWAP3 SWAP2 SWAP1 POP POP POP PUSH2 0x1D3D JUMP JUMPDEST PUSH1 0x40 MLOAD DUP1 DUP3 ISZERO ISZERO DUP2 MSTORE PUSH1 0x20 ADD SWAP2 POP POP PUSH1 0x40 MLOAD DUP1 SWAP2 SUB SWAP1 RETURN JUMPDEST PUSH2 0xA48 PUSH1 0x4 DUP1 CALLDATASIZE SUB PUSH1 0x20 DUP2 LT ISZERO PUSH2 0xA1C JUMPI PUSH1 0x0 DUP1 REVERT JUMPDEST DUP2 ADD SWAP1 DUP1 DUP1 CALLDATALOAD PUSH20 0xFFFFFFFFFFFFFFFFFFFFFFFFFFFFFFFFFFFFFFFF AND SWAP1 PUSH1 0x20 ADD SWAP1 SWAP3 SWAP2 SWAP1 POP POP POP PUSH2 0x1D5B JUMP JUMPDEST PUSH1 0x40 MLOAD DUP1 DUP3 ISZERO ISZERO DUP2 MSTORE PUSH1 0x20 ADD SWAP2 POP POP PUSH1 0x40 MLOAD DUP1 SWAP2 SUB SWAP1 RETURN JUMPDEST PUSH2 0xAA2 PUSH1 0x4 DUP1 CALLDATASIZE SUB PUSH1 0x20 DUP2 LT ISZERO PUSH2 0xA76 JUMPI PUSH1 0x0 DUP1 REVERT JUMPDEST DUP2 ADD SWAP1 DUP1 DUP1 CALLDATALOAD PUSH20 0xFFFFFFFFFFFFFFFFFFFFFFFFFFFFFFFFFFFFFFFF AND SWAP1 PUSH1 0x20 ADD SWAP1 SWAP3 SWAP2 SWAP1 POP POP POP PUSH2 0x1D6F JUMP JUMPDEST PUSH1 0x40 MLOAD DUP1 DUP3 DUP2 MSTORE PUSH1 0x20 ADD SWAP2 POP POP PUSH1 0x40 MLOAD DUP1 SWAP2 SUB SWAP1 RETURN JUMPDEST PUSH2 0xB2F PUSH1 0x4 DUP1 CALLDATASIZE SUB PUSH1 0xC0 DUP2 LT ISZERO PUSH2 0xACE JUMPI PUSH1 0x0 DUP1 REVERT JUMPDEST DUP2 ADD SWAP1 DUP1 DUP1 CALLDATALOAD PUSH20 0xFFFFFFFFFFFFFFFFFFFFFFFFFFFFFFFFFFFFFFFF AND SWAP1 PUSH1 0x20 ADD SWAP1 SWAP3 SWAP2 SWAP1 DUP1 CALLDATALOAD SWAP1 PUSH1 0x20 ADD SWAP1 SWAP3 SWAP2 SWAP1 DUP1 CALLDATALOAD SWAP1 PUSH1 0x20 ADD SWAP1 SWAP3 SWAP2 SWAP1 DUP1 CALLDATALOAD PUSH1 0xFF AND SWAP1 PUSH1 0x20 ADD SWAP1 SWAP3 SWAP2 SWAP1 DUP1 CALLDATALOAD SWAP1 PUSH1 0x20 ADD SWAP1 SWAP3 SWAP2 SWAP1 DUP1 CALLDATALOAD SWAP1 PUSH1 0x20 ADD SWAP1 SWAP3 SWAP2 SWAP1 POP POP POP PUSH2 0x1E45 JUMP JUMPDEST STOP JUMPDEST PUSH2 0xB39 PUSH2 0x21A9 JUMP JUMPDEST PUSH1 0x40 MLOAD DUP1 DUP3 DUP2 MSTORE PUSH1 0x20 ADD SWAP2 POP POP PUSH1 0x40 MLOAD DUP1 SWAP2 SUB SWAP1 RETURN JUMPDEST PUSH2 0xBB1 PUSH1 0x4 DUP1 CALLDATASIZE SUB PUSH1 0x40 DUP2 LT ISZERO PUSH2 0xB65 JUMPI PUSH1 0x0 DUP1 REVERT JUMPDEST DUP2 ADD SWAP1 DUP1 DUP1 CALLDATALOAD PUSH20 0xFFFFFFFFFFFFFFFFFFFFFFFFFFFFFFFFFFFFFFFF AND SWAP1 PUSH1 0x20 ADD SWAP1 SWAP3 SWAP2 SWAP1 DUP1 CALLDATALOAD PUSH20 0xFFFFFFFFFFFFFFFFFFFFFFFFFFFFFFFFFFFFFFFF AND SWAP1 PUSH1 0x20 ADD SWAP1 SWAP3 SWAP2 SWAP1 POP POP POP PUSH2 0x21BD JUMP JUMPDEST PUSH1 0x40 MLOAD DUP1 DUP3 DUP2 MSTORE PUSH1 0x20 ADD SWAP2 POP POP PUSH1 0x40 MLOAD DUP1 SWAP2 SUB SWAP1 RETURN JUMPDEST PUSH2 0xBCF PUSH2 0x2244 JUMP JUMPDEST PUSH1 0x40 MLOAD DUP1 DUP3 DUP2 MSTORE PUSH1 0x20 ADD SWAP2 POP POP PUSH1 0x40 MLOAD DUP1 SWAP2 SUB SWAP1 RETURN JUMPDEST PUSH2 0xC37 PUSH1 0x4 DUP1 CALLDATASIZE SUB PUSH1 0x40 DUP2 LT ISZERO PUSH2 0xBFB JUMPI PUSH1 0x0 DUP1 REVERT JUMPDEST DUP2 ADD SWAP1 DUP1 DUP1 CALLDATALOAD PUSH20 0xFFFFFFFFFFFFFFFFFFFFFFFFFFFFFFFFFFFFFFFF AND SWAP1 PUSH1 0x20 ADD SWAP1 SWAP3 SWAP2 SWAP1 DUP1 CALLDATALOAD PUSH4 0xFFFFFFFF AND SWAP1 PUSH1 0x20 ADD SWAP1 SWAP3 SWAP2 SWAP1 POP POP POP PUSH2 0x2268 JUMP JUMPDEST PUSH1 0x40 MLOAD DUP1 DUP4 PUSH4 0xFFFFFFFF AND DUP2 MSTORE PUSH1 0x20 ADD DUP3 DUP2 MSTORE PUSH1 0x20 ADD SWAP3 POP POP POP PUSH1 0x40 MLOAD DUP1 SWAP2 SUB SWAP1 RETURN JUMPDEST PUSH2 0xC9C PUSH1 0x4 DUP1 CALLDATASIZE SUB PUSH1 0x20 DUP2 LT ISZERO PUSH2 0xC70 JUMPI PUSH1 0x0 DUP1 REVERT JUMPDEST DUP2 ADD SWAP1 DUP1 DUP1 CALLDATALOAD PUSH20 0xFFFFFFFFFFFFFFFFFFFFFFFFFFFFFFFFFFFFFFFF AND SWAP1 PUSH1 0x20 ADD SWAP1 SWAP3 SWAP2 SWAP1 POP POP POP PUSH2 0x22A9 JUMP JUMPDEST STOP JUMPDEST PUSH1 0x0 PUSH2 0xCAA PUSH1 0x7 PUSH2 0x2405 JUMP JUMPDEST SWAP1 POP SWAP1 JUMP JUMPDEST PUSH1 0x60 PUSH1 0x4 DUP1 SLOAD PUSH1 0x1 DUP2 PUSH1 0x1 AND ISZERO PUSH2 0x100 MUL SUB AND PUSH1 0x2 SWAP1 DIV DUP1 PUSH1 0x1F ADD PUSH1 0x20 DUP1 SWAP2 DIV MUL PUSH1 0x20 ADD PUSH1 0x40 MLOAD SWAP1 DUP2 ADD PUSH1 0x40 MSTORE DUP1 SWAP3 SWAP2 SWAP1 DUP2 DUP2 MSTORE PUSH1 0x20 ADD DUP3 DUP1 SLOAD PUSH1 0x1 DUP2 PUSH1 0x1 AND ISZERO PUSH2 0x100 MUL SUB AND PUSH1 0x2 SWAP1 DIV DUP1 ISZERO PUSH2 0xD47 JUMPI DUP1 PUSH1 0x1F LT PUSH2 0xD1C JUMPI PUSH2 0x100 DUP1 DUP4 SLOAD DIV MUL DUP4 MSTORE SWAP2 PUSH1 0x20 ADD SWAP2 PUSH2 0xD47 JUMP JUMPDEST DUP3 ADD SWAP2 SWAP1 PUSH1 0x0 MSTORE PUSH1 0x20 PUSH1 0x0 KECCAK256 SWAP1 JUMPDEST DUP2 SLOAD DUP2 MSTORE SWAP1 PUSH1 0x1 ADD SWAP1 PUSH1 0x20 ADD DUP1 DUP4 GT PUSH2 0xD2A JUMPI DUP3 SWAP1 SUB PUSH1 0x1F AND DUP3 ADD SWAP2 JUMPDEST POP POP POP POP POP SWAP1 POP SWAP1 JUMP JUMPDEST PUSH1 0x0 PUSH2 0xD65 PUSH2 0xD5E PUSH2 0x241A JUMP JUMPDEST DUP5 DUP5 PUSH2 0x2422 JUMP JUMPDEST PUSH1 0x1 SWAP1 POP SWAP3 SWAP2 POP POP JUMP JUMPDEST PUSH1 0x0 PUSH11 0x84595161401484A000000 SWAP1 POP SWAP1 JUMP JUMPDEST PUSH1 0x0 PUSH1 0x3 SLOAD SWAP1 POP SWAP1 JUMP JUMPDEST PUSH32 0x8CAD95687BA82C2CE50E74F7B754645E5117C3A5BEC8151C0726D5857980A866 DUP2 JUMP JUMPDEST PUSH1 0x0 PUSH2 0xDBA PUSH2 0x241A JUMP JUMPDEST PUSH20 0xFFFFFFFFFFFFFFFFFFFFFFFFFFFFFFFFFFFFFFFF AND PUSH1 0x0 DUP1 SLOAD SWAP1 PUSH2 0x100 EXP SWAP1 DIV PUSH20 0xFFFFFFFFFFFFFFFFFFFFFFFFFFFFFFFFFFFFFFFF AND PUSH20 0xFFFFFFFFFFFFFFFFFFFFFFFFFFFFFFFFFFFFFFFF AND EQ PUSH2 0xE7A JUMPI PUSH1 0x40 MLOAD PUSH32 0x8C379A000000000000000000000000000000000000000000000000000000000 DUP2 MSTORE PUSH1 0x4 ADD DUP1 DUP1 PUSH1 0x20 ADD DUP3 DUP2 SUB DUP3 MSTORE PUSH1 0x20 DUP2 MSTORE PUSH1 0x20 ADD DUP1 PUSH32 0x4F776E61626C653A2063616C6C6572206973206E6F7420746865206F776E6572 DUP2 MSTORE POP PUSH1 0x20 ADD SWAP2 POP POP PUSH1 0x40 MLOAD DUP1 SWAP2 SUB SWAP1 REVERT JUMPDEST PUSH1 0x0 PUSH20 0xFFFFFFFFFFFFFFFFFFFFFFFFFFFFFFFFFFFFFFFF AND DUP3 PUSH20 0xFFFFFFFFFFFFFFFFFFFFFFFFFFFFFFFFFFFFFFFF AND EQ ISZERO PUSH2 0xF00 JUMPI PUSH1 0x40 MLOAD PUSH32 0x8C379A000000000000000000000000000000000000000000000000000000000 DUP2 MSTORE PUSH1 0x4 ADD DUP1 DUP1 PUSH1 0x20 ADD DUP3 DUP2 SUB DUP3 MSTORE PUSH1 0x23 DUP2 MSTORE PUSH1 0x20 ADD DUP1 PUSH2 0x380C PUSH1 0x23 SWAP2 CODECOPY PUSH1 0x40 ADD SWAP2 POP POP PUSH1 0x40 MLOAD DUP1 SWAP2 SUB SWAP1 REVERT JUMPDEST PUSH2 0xF0B PUSH1 0x7 DUP4 PUSH2 0x2619 JUMP JUMPDEST SWAP1 POP SWAP2 SWAP1 POP JUMP JUMPDEST PUSH1 0x0 PUSH2 0xF1F DUP5 DUP5 DUP5 PUSH2 0x2649 JUMP JUMPDEST PUSH2 0xFE0 DUP5 PUSH2 0xF2B PUSH2 0x241A JUMP JUMPDEST PUSH2 0xFDB DUP6 PUSH1 0x40 MLOAD DUP1 PUSH1 0x60 ADD PUSH1 0x40 MSTORE DUP1 PUSH1 0x28 DUP2 MSTORE PUSH1 0x20 ADD PUSH2 0x3852 PUSH1 0x28 SWAP2 CODECOPY PUSH1 0x2 PUSH1 0x0 DUP12 PUSH20 0xFFFFFFFFFFFFFFFFFFFFFFFFFFFFFFFFFFFFFFFF AND PUSH20 0xFFFFFFFFFFFFFFFFFFFFFFFFFFFFFFFFFFFFFFFF AND DUP2 MSTORE PUSH1 0x20 ADD SWAP1 DUP2 MSTORE PUSH1 0x20 ADD PUSH1 0x0 KECCAK256 PUSH1 0x0 PUSH2 0xF91 PUSH2 0x241A JUMP JUMPDEST PUSH20 0xFFFFFFFFFFFFFFFFFFFFFFFFFFFFFFFFFFFFFFFF AND PUSH20 0xFFFFFFFFFFFFFFFFFFFFFFFFFFFFFFFFFFFFFFFF AND DUP2 MSTORE PUSH1 0x20 ADD SWAP1 DUP2 MSTORE PUSH1 0x20 ADD PUSH1 0x0 KECCAK256 SLOAD PUSH2 0x2903 SWAP1 SWAP3 SWAP2 SWAP1 PUSH4 0xFFFFFFFF AND JUMP JUMPDEST PUSH2 0x2422 JUMP JUMPDEST PUSH1 0x1 SWAP1 POP SWAP4 SWAP3 POP POP POP JUMP JUMPDEST PUSH1 0x0 PUSH1 0x6 PUSH1 0x0 SWAP1 SLOAD SWAP1 PUSH2 0x100 EXP SWAP1 DIV PUSH1 0xFF AND SWAP1 POP SWAP1 JUMP JUMPDEST PUSH1 0x0 PUSH2 0x10AB PUSH2 0x100F PUSH2 0x241A JUMP JUMPDEST DUP5 PUSH2 0x10A6 DUP6 PUSH1 0x2 PUSH1 0x0 PUSH2 0x1020 PUSH2 0x241A JUMP JUMPDEST PUSH20 0xFFFFFFFFFFFFFFFFFFFFFFFFFFFFFFFFFFFFFFFF AND PUSH20 0xFFFFFFFFFFFFFFFFFFFFFFFFFFFFFFFFFFFFFFFF AND DUP2 MSTORE PUSH1 0x20 ADD SWAP1 DUP2 MSTORE PUSH1 0x20 ADD PUSH1 0x0 KECCAK256 PUSH1 0x0 DUP10 PUSH20 0xFFFFFFFFFFFFFFFFFFFFFFFFFFFFFFFFFFFFFFFF AND PUSH20 0xFFFFFFFFFFFFFFFFFFFFFFFFFFFFFFFFFFFFFFFF AND DUP2 MSTORE PUSH1 0x20 ADD SWAP1 DUP2 MSTORE PUSH1 0x20 ADD PUSH1 0x0 KECCAK256 SLOAD PUSH2 0x237D SWAP1 SWAP2 SWAP1 PUSH4 0xFFFFFFFF AND JUMP JUMPDEST PUSH2 0x2422 JUMP JUMPDEST PUSH1 0x1 SWAP1 POP SWAP3 SWAP2 POP POP JUMP JUMPDEST PUSH1 0x0 PUSH2 0x10C0 CALLER PUSH2 0x1D5B JUMP JUMPDEST PUSH2 0x1132 JUMPI PUSH1 0x40 MLOAD PUSH32 0x8C379A000000000000000000000000000000000000000000000000000000000 DUP2 MSTORE PUSH1 0x4 ADD DUP1 DUP1 PUSH1 0x20 ADD DUP3 DUP2 SUB DUP3 MSTORE PUSH1 0x18 DUP2 MSTORE PUSH1 0x20 ADD DUP1 PUSH32 0x63616C6C6572206973206E6F7420746865206D696E7465720000000000000000 DUP2 MSTORE POP PUSH1 0x20 ADD SWAP2 POP POP PUSH1 0x40 MLOAD DUP1 SWAP2 SUB SWAP1 REVERT JUMPDEST PUSH2 0x113C DUP4 DUP4 PUSH2 0x29C3 JUMP JUMPDEST POP PUSH2 0x11A8 PUSH1 0x0 PUSH1 0x9 PUSH1 0x0 DUP7 PUSH20 0xFFFFFFFFFFFFFFFFFFFFFFFFFFFFFFFFFFFFFFFF AND PUSH20 0xFFFFFFFFFFFFFFFFFFFFFFFFFFFFFFFFFFFFFFFF AND DUP2 MSTORE PUSH1 0x20 ADD SWAP1 DUP2 MSTORE PUSH1 0x20 ADD PUSH1 0x0 KECCAK256 PUSH1 0x0 SWAP1 SLOAD SWAP1 PUSH2 0x100 EXP SWAP1 DIV PUSH20 0xFFFFFFFFFFFFFFFFFFFFFFFFFFFFFFFFFFFFFFFF AND DUP5 PUSH2 0x2BB5 JUMP JUMPDEST PUSH1 0x1 SWAP1 POP SWAP3 SWAP2 POP POP JUMP JUMPDEST PUSH1 0x0 PUSH1 0x9 PUSH1 0x0 DUP4 PUSH20 0xFFFFFFFFFFFFFFFFFFFFFFFFFFFFFFFFFFFFFFFF AND PUSH20 0xFFFFFFFFFFFFFFFFFFFFFFFFFFFFFFFFFFFFFFFF AND DUP2 MSTORE PUSH1 0x20 ADD SWAP1 DUP2 MSTORE PUSH1 0x20 ADD PUSH1 0x0 KECCAK256 PUSH1 0x0 SWAP1 SLOAD SWAP1 PUSH2 0x100 EXP SWAP1 DIV PUSH20 0xFFFFFFFFFFFFFFFFFFFFFFFFFFFFFFFFFFFFFFFF AND SWAP1 POP SWAP2 SWAP1 POP JUMP JUMPDEST PUSH1 0x0 PUSH2 0x1225 PUSH2 0x241A JUMP JUMPDEST PUSH20 0xFFFFFFFFFFFFFFFFFFFFFFFFFFFFFFFFFFFFFFFF AND PUSH1 0x0 DUP1 SLOAD SWAP1 PUSH2 0x100 EXP SWAP1 DIV PUSH20 0xFFFFFFFFFFFFFFFFFFFFFFFFFFFFFFFFFFFFFFFF AND PUSH20 0xFFFFFFFFFFFFFFFFFFFFFFFFFFFFFFFFFFFFFFFF AND EQ PUSH2 0x12E5 JUMPI PUSH1 0x40 MLOAD PUSH32 0x8C379A000000000000000000000000000000000000000000000000000000000 DUP2 MSTORE PUSH1 0x4 ADD DUP1 DUP1 PUSH1 0x20 ADD DUP3 DUP2 SUB DUP3 MSTORE PUSH1 0x20 DUP2 MSTORE PUSH1 0x20 ADD DUP1 PUSH32 0x4F776E61626C653A2063616C6C6572206973206E6F7420746865206F776E6572 DUP2 MSTORE POP PUSH1 0x20 ADD SWAP2 POP POP PUSH1 0x40 MLOAD DUP1 SWAP2 SUB SWAP1 REVERT JUMPDEST PUSH1 0x1 PUSH2 0x12EF PUSH2 0xC9E JUMP JUMPDEST SUB DUP3 GT ISZERO PUSH2 0x1365 JUMPI PUSH1 0x40 MLOAD PUSH32 0x8C379A000000000000000000000000000000000000000000000000000000000 DUP2 MSTORE PUSH1 0x4 ADD DUP1 DUP1 PUSH1 0x20 ADD DUP3 DUP2 SUB DUP3 MSTORE PUSH1 0x18 DUP2 MSTORE PUSH1 0x20 ADD DUP1 PUSH32 0x4253573A20696E646578206F7574206F6620626F756E64730000000000000000 DUP2 MSTORE POP PUSH1 0x20 ADD SWAP2 POP POP PUSH1 0x40 MLOAD DUP1 SWAP2 SUB SWAP1 REVERT JUMPDEST PUSH2 0x1370 PUSH1 0x7 DUP4 PUSH2 0x2E52 JUMP JUMPDEST SWAP1 POP SWAP2 SWAP1 POP JUMP JUMPDEST PUSH2 0x1381 CALLER DUP3 PUSH2 0x2E6C JUMP JUMPDEST POP JUMP JUMPDEST PUSH1 0xB PUSH1 0x20 MSTORE DUP1 PUSH1 0x0 MSTORE PUSH1 0x40 PUSH1 0x0 KECCAK256 PUSH1 0x0 SWAP2 POP SLOAD SWAP1 PUSH2 0x100 EXP SWAP1 DIV PUSH4 0xFFFFFFFF AND DUP2 JUMP JUMPDEST PUSH1 0x0 PUSH1 0x1 PUSH1 0x0 DUP4 PUSH20 0xFFFFFFFFFFFFFFFFFFFFFFFFFFFFFFFFFFFFFFFF AND PUSH20 0xFFFFFFFFFFFFFFFFFFFFFFFFFFFFFFFFFFFFFFFF AND DUP2 MSTORE PUSH1 0x20 ADD SWAP1 DUP2 MSTORE PUSH1 0x20 ADD PUSH1 0x0 KECCAK256 SLOAD SWAP1 POP SWAP2 SWAP1 POP JUMP JUMPDEST PUSH2 0x13F8 PUSH2 0x241A JUMP JUMPDEST PUSH20 0xFFFFFFFFFFFFFFFFFFFFFFFFFFFFFFFFFFFFFFFF AND PUSH1 0x0 DUP1 SLOAD SWAP1 PUSH2 0x100 EXP SWAP1 DIV PUSH20 0xFFFFFFFFFFFFFFFFFFFFFFFFFFFFFFFFFFFFFFFF AND PUSH20 0xFFFFFFFFFFFFFFFFFFFFFFFFFFFFFFFFFFFFFFFF AND EQ PUSH2 0x14B8 JUMPI PUSH1 0x40 MLOAD PUSH32 0x8C379A000000000000000000000000000000000000000000000000000000000 DUP2 MSTORE PUSH1 0x4 ADD DUP1 DUP1 PUSH1 0x20 ADD DUP3 DUP2 SUB DUP3 MSTORE PUSH1 0x20 DUP2 MSTORE PUSH1 0x20 ADD DUP1 PUSH32 0x4F776E61626C653A2063616C6C6572206973206E6F7420746865206F776E6572 DUP2 MSTORE POP PUSH1 0x20 ADD SWAP2 POP POP PUSH1 0x40 MLOAD DUP1 SWAP2 SUB SWAP1 REVERT JUMPDEST PUSH1 0x0 PUSH20 0xFFFFFFFFFFFFFFFFFFFFFFFFFFFFFFFFFFFFFFFF AND PUSH1 0x0 DUP1 SLOAD SWAP1 PUSH2 0x100 EXP SWAP1 DIV PUSH20 0xFFFFFFFFFFFFFFFFFFFFFFFFFFFFFFFFFFFFFFFF AND PUSH20 0xFFFFFFFFFFFFFFFFFFFFFFFFFFFFFFFFFFFFFFFF AND PUSH32 0x8BE0079C531659141344CD1FD0A4F28419497F9722A3DAAFE3B4186F6B6457E0 PUSH1 0x40 MLOAD PUSH1 0x40 MLOAD DUP1 SWAP2 SUB SWAP1 LOG3 PUSH1 0x0 DUP1 PUSH1 0x0 PUSH2 0x100 EXP DUP2 SLOAD DUP2 PUSH20 0xFFFFFFFFFFFFFFFFFFFFFFFFFFFFFFFFFFFFFFFF MUL NOT AND SWAP1 DUP4 PUSH20 0xFFFFFFFFFFFFFFFFFFFFFFFFFFFFFFFFFFFFFFFF AND MUL OR SWAP1 SSTORE POP JUMP JUMPDEST PUSH1 0x0 NUMBER DUP3 LT PUSH2 0x15D0 JUMPI PUSH1 0x40 MLOAD PUSH32 0x8C379A000000000000000000000000000000000000000000000000000000000 DUP2 MSTORE PUSH1 0x4 ADD DUP1 DUP1 PUSH1 0x20 ADD DUP3 DUP2 SUB DUP3 MSTORE PUSH1 0x26 DUP2 MSTORE PUSH1 0x20 ADD DUP1 PUSH2 0x389B PUSH1 0x26 SWAP2 CODECOPY PUSH1 0x40 ADD SWAP2 POP POP PUSH1 0x40 MLOAD DUP1 SWAP2 SUB SWAP1 REVERT JUMPDEST PUSH1 0x0 PUSH1 0xB PUSH1 0x0 DUP6 PUSH20 0xFFFFFFFFFFFFFFFFFFFFFFFFFFFFFFFFFFFFFFFF AND PUSH20 0xFFFFFFFFFFFFFFFFFFFFFFFFFFFFFFFFFFFFFFFF AND DUP2 MSTORE PUSH1 0x20 ADD SWAP1 DUP2 MSTORE PUSH1 0x20 ADD PUSH1 0x0 KECCAK256 PUSH1 0x0 SWAP1 SLOAD SWAP1 PUSH2 0x100 EXP SWAP1 DIV PUSH4 0xFFFFFFFF AND SWAP1 POP PUSH1 0x0 DUP2 PUSH4 0xFFFFFFFF AND EQ ISZERO PUSH2 0x163D JUMPI PUSH1 0x0 SWAP2 POP POP PUSH2 0x1931 JUMP JUMPDEST DUP3 PUSH1 0xA PUSH1 0x0 DUP7 PUSH20 0xFFFFFFFFFFFFFFFFFFFFFFFFFFFFFFFFFFFFFFFF AND PUSH20 0xFFFFFFFFFFFFFFFFFFFFFFFFFFFFFFFFFFFFFFFF AND DUP2 MSTORE PUSH1 0x20 ADD SWAP1 DUP2 MSTORE PUSH1 0x20 ADD PUSH1 0x0 KECCAK256 PUSH1 0x0 PUSH1 0x1 DUP5 SUB PUSH4 0xFFFFFFFF AND PUSH4 0xFFFFFFFF AND DUP2 MSTORE PUSH1 0x20 ADD SWAP1 DUP2 MSTORE PUSH1 0x20 ADD PUSH1 0x0 KECCAK256 PUSH1 0x0 ADD PUSH1 0x0 SWAP1 SLOAD SWAP1 PUSH2 0x100 EXP SWAP1 DIV PUSH4 0xFFFFFFFF AND PUSH4 0xFFFFFFFF AND GT PUSH2 0x1727 JUMPI PUSH1 0xA PUSH1 0x0 DUP6 PUSH20 0xFFFFFFFFFFFFFFFFFFFFFFFFFFFFFFFFFFFFFFFF AND PUSH20 0xFFFFFFFFFFFFFFFFFFFFFFFFFFFFFFFFFFFFFFFF AND DUP2 MSTORE PUSH1 0x20 ADD SWAP1 DUP2 MSTORE PUSH1 0x20 ADD PUSH1 0x0 KECCAK256 PUSH1 0x0 PUSH1 0x1 DUP4 SUB PUSH4 0xFFFFFFFF AND PUSH4 0xFFFFFFFF AND DUP2 MSTORE PUSH1 0x20 ADD SWAP1 DUP2 MSTORE PUSH1 0x20 ADD PUSH1 0x0 KECCAK256 PUSH1 0x1 ADD SLOAD SWAP2 POP POP PUSH2 0x1931 JUMP JUMPDEST DUP3 PUSH1 0xA PUSH1 0x0 DUP7 PUSH20 0xFFFFFFFFFFFFFFFFFFFFFFFFFFFFFFFFFFFFFFFF AND PUSH20 0xFFFFFFFFFFFFFFFFFFFFFFFFFFFFFFFFFFFFFFFF AND DUP2 MSTORE PUSH1 0x20 ADD SWAP1 DUP2 MSTORE PUSH1 0x20 ADD PUSH1 0x0 KECCAK256 PUSH1 0x0 DUP1 PUSH4 0xFFFFFFFF AND DUP2 MSTORE PUSH1 0x20 ADD SWAP1 DUP2 MSTORE PUSH1 0x20 ADD PUSH1 0x0 KECCAK256 PUSH1 0x0 ADD PUSH1 0x0 SWAP1 SLOAD SWAP1 PUSH2 0x100 EXP SWAP1 DIV PUSH4 0xFFFFFFFF AND PUSH4 0xFFFFFFFF AND GT ISZERO PUSH2 0x17A8 JUMPI PUSH1 0x0 SWAP2 POP POP PUSH2 0x1931 JUMP JUMPDEST PUSH1 0x0 DUP1 PUSH1 0x1 DUP4 SUB SWAP1 POP JUMPDEST DUP2 PUSH4 0xFFFFFFFF AND DUP2 PUSH4 0xFFFFFFFF AND GT ISZERO PUSH2 0x18CB JUMPI PUSH1 0x0 PUSH1 0x2 DUP4 DUP4 SUB PUSH4 0xFFFFFFFF AND DUP2 PUSH2 0x17DA JUMPI INVALID JUMPDEST DIV DUP3 SUB SWAP1 POP PUSH2 0x17E7 PUSH2 0x3735 JUMP JUMPDEST PUSH1 0xA PUSH1 0x0 DUP10 PUSH20 0xFFFFFFFFFFFFFFFFFFFFFFFFFFFFFFFFFFFFFFFF AND PUSH20 0xFFFFFFFFFFFFFFFFFFFFFFFFFFFFFFFFFFFFFFFF AND DUP2 MSTORE PUSH1 0x20 ADD SWAP1 DUP2 MSTORE PUSH1 0x20 ADD PUSH1 0x0 KECCAK256 PUSH1 0x0 DUP4 PUSH4 0xFFFFFFFF AND PUSH4 0xFFFFFFFF AND DUP2 MSTORE PUSH1 0x20 ADD SWAP1 DUP2 MSTORE PUSH1 0x20 ADD PUSH1 0x0 KECCAK256 PUSH1 0x40 MLOAD DUP1 PUSH1 0x40 ADD PUSH1 0x40 MSTORE SWAP1 DUP2 PUSH1 0x0 DUP3 ADD PUSH1 0x0 SWAP1 SLOAD SWAP1 PUSH2 0x100 EXP SWAP1 DIV PUSH4 0xFFFFFFFF AND PUSH4 0xFFFFFFFF AND PUSH4 0xFFFFFFFF AND DUP2 MSTORE PUSH1 0x20 ADD PUSH1 0x1 DUP3 ADD SLOAD DUP2 MSTORE POP POP SWAP1 POP DUP7 DUP2 PUSH1 0x0 ADD MLOAD PUSH4 0xFFFFFFFF AND EQ ISZERO PUSH2 0x18A3 JUMPI DUP1 PUSH1 0x20 ADD MLOAD SWAP6 POP POP POP POP POP POP PUSH2 0x1931 JUMP JUMPDEST DUP7 DUP2 PUSH1 0x0 ADD MLOAD PUSH4 0xFFFFFFFF AND LT ISZERO PUSH2 0x18BD JUMPI DUP2 SWAP4 POP PUSH2 0x18C4 JUMP JUMPDEST PUSH1 0x1 DUP3 SUB SWAP3 POP JUMPDEST POP POP PUSH2 0x17B2 JUMP JUMPDEST PUSH1 0xA PUSH1 0x0 DUP8 PUSH20 0xFFFFFFFFFFFFFFFFFFFFFFFFFFFFFFFFFFFFFFFF AND PUSH20 0xFFFFFFFFFFFFFFFFFFFFFFFFFFFFFFFFFFFFFFFF AND DUP2 MSTORE PUSH1 0x20 ADD SWAP1 DUP2 MSTORE PUSH1 0x20 ADD PUSH1 0x0 KECCAK256 PUSH1 0x0 DUP4 PUSH4 0xFFFFFFFF AND PUSH4 0xFFFFFFFF AND DUP2 MSTORE PUSH1 0x20 ADD SWAP1 DUP2 MSTORE PUSH1 0x20 ADD PUSH1 0x0 KECCAK256 PUSH1 0x1 ADD SLOAD SWAP4 POP POP POP POP JUMPDEST SWAP3 SWAP2 POP POP JUMP JUMPDEST PUSH1 0xC PUSH1 0x20 MSTORE DUP1 PUSH1 0x0 MSTORE PUSH1 0x40 PUSH1 0x0 KECCAK256 PUSH1 0x0 SWAP2 POP SWAP1 POP SLOAD DUP2 JUMP JUMPDEST PUSH1 0x0 PUSH2 0x1959 PUSH2 0x195E JUMP JUMPDEST SWAP1 POP SWAP1 JUMP JUMPDEST PUSH1 0x0 DUP1 PUSH1 0x0 SWAP1 SLOAD SWAP1 PUSH2 0x100 EXP SWAP1 DIV PUSH20 0xFFFFFFFFFFFFFFFFFFFFFFFFFFFFFFFFFFFFFFFF AND SWAP1 POP SWAP1 JUMP JUMPDEST PUSH1 0x60 PUSH1 0x5 DUP1 SLOAD PUSH1 0x1 DUP2 PUSH1 0x1 AND ISZERO PUSH2 0x100 MUL SUB AND PUSH1 0x2 SWAP1 DIV DUP1 PUSH1 0x1F ADD PUSH1 0x20 DUP1 SWAP2 DIV MUL PUSH1 0x20 ADD PUSH1 0x40 MLOAD SWAP1 DUP2 ADD PUSH1 0x40 MSTORE DUP1 SWAP3 SWAP2 SWAP1 DUP2 DUP2 MSTORE PUSH1 0x20 ADD DUP3 DUP1 SLOAD PUSH1 0x1 DUP2 PUSH1 0x1 AND ISZERO PUSH2 0x100 MUL SUB AND PUSH1 0x2 SWAP1 DIV DUP1 ISZERO PUSH2 0x1A1F JUMPI DUP1 PUSH1 0x1F LT PUSH2 0x19F4 JUMPI PUSH2 0x100 DUP1 DUP4 SLOAD DIV MUL DUP4 MSTORE SWAP2 PUSH1 0x20 ADD SWAP2 PUSH2 0x1A1F JUMP JUMPDEST DUP3 ADD SWAP2 SWAP1 PUSH1 0x0 MSTORE PUSH1 0x20 PUSH1 0x0 KECCAK256 SWAP1 JUMPDEST DUP2 SLOAD DUP2 MSTORE SWAP1 PUSH1 0x1 ADD SWAP1 PUSH1 0x20 ADD DUP1 DUP4 GT PUSH2 0x1A02 JUMPI DUP3 SWAP1 SUB PUSH1 0x1F AND DUP3 ADD SWAP2 JUMPDEST POP POP POP POP POP SWAP1 POP SWAP1 JUMP JUMPDEST PUSH1 0x0 PUSH2 0x1A33 PUSH2 0x241A JUMP JUMPDEST PUSH20 0xFFFFFFFFFFFFFFFFFFFFFFFFFFFFFFFFFFFFFFFF AND PUSH1 0x0 DUP1 SLOAD SWAP1 PUSH2 0x100 EXP SWAP1 DIV PUSH20 0xFFFFFFFFFFFFFFFFFFFFFFFFFFFFFFFFFFFFFFFF AND PUSH20 0xFFFFFFFFFFFFFFFFFFFFFFFFFFFFFFFFFFFFFFFF AND EQ PUSH2 0x1AF3 JUMPI PUSH1 0x40 MLOAD PUSH32 0x8C379A000000000000000000000000000000000000000000000000000000000 DUP2 MSTORE PUSH1 0x4 ADD DUP1 DUP1 PUSH1 0x20 ADD DUP3 DUP2 SUB DUP3 MSTORE PUSH1 0x20 DUP2 MSTORE PUSH1 0x20 ADD DUP1 PUSH32 0x4F776E61626C653A2063616C6C6572206973206E6F7420746865206F776E6572 DUP2 MSTORE POP PUSH1 0x20 ADD SWAP2 POP POP PUSH1 0x40 MLOAD DUP1 SWAP2 SUB SWAP1 REVERT JUMPDEST PUSH1 0x0 PUSH20 0xFFFFFFFFFFFFFFFFFFFFFFFFFFFFFFFFFFFFFFFF AND DUP3 PUSH20 0xFFFFFFFFFFFFFFFFFFFFFFFFFFFFFFFFFFFFFFFF AND EQ ISZERO PUSH2 0x1B79 JUMPI PUSH1 0x40 MLOAD PUSH32 0x8C379A000000000000000000000000000000000000000000000000000000000 DUP2 MSTORE PUSH1 0x4 ADD DUP1 DUP1 PUSH1 0x20 ADD DUP3 DUP2 SUB DUP3 MSTORE PUSH1 0x23 DUP2 MSTORE PUSH1 0x20 ADD DUP1 PUSH2 0x382F PUSH1 0x23 SWAP2 CODECOPY PUSH1 0x40 ADD SWAP2 POP POP PUSH1 0x40 MLOAD DUP1 SWAP2 SUB SWAP1 REVERT JUMPDEST PUSH2 0x1B84 PUSH1 0x7 DUP4 PUSH2 0x2FDD JUMP JUMPDEST SWAP1 POP SWAP2 SWAP1 POP JUMP JUMPDEST PUSH1 0x0 PUSH2 0x1B95 PUSH2 0x241A JUMP JUMPDEST PUSH20 0xFFFFFFFFFFFFFFFFFFFFFFFFFFFFFFFFFFFFFFFF AND PUSH1 0x0 DUP1 SLOAD SWAP1 PUSH2 0x100 EXP SWAP1 DIV PUSH20 0xFFFFFFFFFFFFFFFFFFFFFFFFFFFFFFFFFFFFFFFF AND PUSH20 0xFFFFFFFFFFFFFFFFFFFFFFFFFFFFFFFFFFFFFFFF AND EQ PUSH2 0x1C55 JUMPI PUSH1 0x40 MLOAD PUSH32 0x8C379A000000000000000000000000000000000000000000000000000000000 DUP2 MSTORE PUSH1 0x4 ADD DUP1 DUP1 PUSH1 0x20 ADD DUP3 DUP2 SUB DUP3 MSTORE PUSH1 0x20 DUP2 MSTORE PUSH1 0x20 ADD DUP1 PUSH32 0x4F776E61626C653A2063616C6C6572206973206E6F7420746865206F776E6572 DUP2 MSTORE POP PUSH1 0x20 ADD SWAP2 POP POP PUSH1 0x40 MLOAD DUP1 SWAP2 SUB SWAP1 REVERT JUMPDEST PUSH2 0x1C66 PUSH2 0x1C60 PUSH2 0x241A JUMP JUMPDEST DUP4 PUSH2 0x29C3 JUMP JUMPDEST POP PUSH1 0x1 SWAP1 POP SWAP2 SWAP1 POP JUMP JUMPDEST PUSH1 0x0 PUSH2 0x1D33 PUSH2 0x1C7D PUSH2 0x241A JUMP JUMPDEST DUP5 PUSH2 0x1D2E DUP6 PUSH1 0x40 MLOAD DUP1 PUSH1 0x60 ADD PUSH1 0x40 MSTORE DUP1 PUSH1 0x25 DUP2 MSTORE PUSH1 0x20 ADD PUSH2 0x393D PUSH1 0x25 SWAP2 CODECOPY PUSH1 0x2 PUSH1 0x0 PUSH2 0x1CA7 PUSH2 0x241A JUMP JUMPDEST PUSH20 0xFFFFFFFFFFFFFFFFFFFFFFFFFFFFFFFFFFFFFFFF AND PUSH20 0xFFFFFFFFFFFFFFFFFFFFFFFFFFFFFFFFFFFFFFFF AND DUP2 MSTORE PUSH1 0x20 ADD SWAP1 DUP2 MSTORE PUSH1 0x20 ADD PUSH1 0x0 KECCAK256 PUSH1 0x0 DUP11 PUSH20 0xFFFFFFFFFFFFFFFFFFFFFFFFFFFFFFFFFFFFFFFF AND PUSH20 0xFFFFFFFFFFFFFFFFFFFFFFFFFFFFFFFFFFFFFFFF AND DUP2 MSTORE PUSH1 0x20 ADD SWAP1 DUP2 MSTORE PUSH1 0x20 ADD PUSH1 0x0 KECCAK256 SLOAD PUSH2 0x2903 SWAP1 SWAP3 SWAP2 SWAP1 PUSH4 0xFFFFFFFF AND JUMP JUMPDEST PUSH2 0x2422 JUMP JUMPDEST PUSH1 0x1 SWAP1 POP SWAP3 SWAP2 POP POP JUMP JUMPDEST PUSH1 0x0 PUSH2 0x1D51 PUSH2 0x1D4A PUSH2 0x241A JUMP JUMPDEST DUP5 DUP5 PUSH2 0x2649 JUMP JUMPDEST PUSH1 0x1 SWAP1 POP SWAP3 SWAP2 POP POP JUMP JUMPDEST PUSH1 0x0 PUSH2 0x1D68 PUSH1 0x7 DUP4 PUSH2 0x300D JUMP JUMPDEST SWAP1 POP SWAP2 SWAP1 POP JUMP JUMPDEST PUSH1 0x0 DUP1 PUSH1 0xB PUSH1 0x0 DUP5 PUSH20 0xFFFFFFFFFFFFFFFFFFFFFFFFFFFFFFFFFFFFFFFF AND PUSH20 0xFFFFFFFFFFFFFFFFFFFFFFFFFFFFFFFFFFFFFFFF AND DUP2 MSTORE PUSH1 0x20 ADD SWAP1 DUP2 MSTORE PUSH1 0x20 ADD PUSH1 0x0 KECCAK256 PUSH1 0x0 SWAP1 SLOAD SWAP1 PUSH2 0x100 EXP SWAP1 DIV PUSH4 0xFFFFFFFF AND SWAP1 POP PUSH1 0x0 DUP2 PUSH4 0xFFFFFFFF AND GT PUSH2 0x1DD9 JUMPI PUSH1 0x0 PUSH2 0x1E3D JUMP JUMPDEST PUSH1 0xA PUSH1 0x0 DUP5 PUSH20 0xFFFFFFFFFFFFFFFFFFFFFFFFFFFFFFFFFFFFFFFF AND PUSH20 0xFFFFFFFFFFFFFFFFFFFFFFFFFFFFFFFFFFFFFFFF AND DUP2 MSTORE PUSH1 0x20 ADD SWAP1 DUP2 MSTORE PUSH1 0x20 ADD PUSH1 0x0 KECCAK256 PUSH1 0x0 PUSH1 0x1 DUP4 SUB PUSH4 0xFFFFFFFF AND PUSH4 0xFFFFFFFF AND DUP2 MSTORE PUSH1 0x20 ADD SWAP1 DUP2 MSTORE PUSH1 0x20 ADD PUSH1 0x0 KECCAK256 PUSH1 0x1 ADD SLOAD JUMPDEST SWAP2 POP POP SWAP2 SWAP1 POP JUMP JUMPDEST PUSH1 0x0 PUSH32 0x8CAD95687BA82C2CE50E74F7B754645E5117C3A5BEC8151C0726D5857980A866 PUSH2 0x1E70 PUSH2 0xCAF JUMP JUMPDEST DUP1 MLOAD SWAP1 PUSH1 0x20 ADD KECCAK256 PUSH2 0x1E7F PUSH2 0x303D JUMP JUMPDEST ADDRESS PUSH1 0x40 MLOAD PUSH1 0x20 ADD DUP1 DUP6 DUP2 MSTORE PUSH1 0x20 ADD DUP5 DUP2 MSTORE PUSH1 0x20 ADD DUP4 DUP2 MSTORE PUSH1 0x20 ADD DUP3 PUSH20 0xFFFFFFFFFFFFFFFFFFFFFFFFFFFFFFFFFFFFFFFF AND DUP2 MSTORE PUSH1 0x20 ADD SWAP5 POP POP POP POP POP PUSH1 0x40 MLOAD PUSH1 0x20 DUP2 DUP4 SUB SUB DUP2 MSTORE SWAP1 PUSH1 0x40 MSTORE DUP1 MLOAD SWAP1 PUSH1 0x20 ADD KECCAK256 SWAP1 POP PUSH1 0x0 PUSH32 0xE48329057BFD03D55E49B547132E39CFFD9C1820AD7B9D4C5307691425D15ADF DUP9 DUP9 DUP9 PUSH1 0x40 MLOAD PUSH1 0x20 ADD DUP1 DUP6 DUP2 MSTORE PUSH1 0x20 ADD DUP5 PUSH20 0xFFFFFFFFFFFFFFFFFFFFFFFFFFFFFFFFFFFFFFFF AND DUP2 MSTORE PUSH1 0x20 ADD DUP4 DUP2 MSTORE PUSH1 0x20 ADD DUP3 DUP2 MSTORE PUSH1 0x20 ADD SWAP5 POP POP POP POP POP PUSH1 0x40 MLOAD PUSH1 0x20 DUP2 DUP4 SUB SUB DUP2 MSTORE SWAP1 PUSH1 0x40 MSTORE DUP1 MLOAD SWAP1 PUSH1 0x20 ADD KECCAK256 SWAP1 POP PUSH1 0x0 DUP3 DUP3 PUSH1 0x40 MLOAD PUSH1 0x20 ADD DUP1 DUP1 PUSH32 0x1901000000000000000000000000000000000000000000000000000000000000 DUP2 MSTORE POP PUSH1 0x2 ADD DUP4 DUP2 MSTORE PUSH1 0x20 ADD DUP3 DUP2 MSTORE PUSH1 0x20 ADD SWAP3 POP POP POP PUSH1 0x40 MLOAD PUSH1 0x20 DUP2 DUP4 SUB SUB DUP2 MSTORE SWAP1 PUSH1 0x40 MSTORE DUP1 MLOAD SWAP1 PUSH1 0x20 ADD KECCAK256 SWAP1 POP PUSH1 0x0 PUSH1 0x1 DUP3 DUP9 DUP9 DUP9 PUSH1 0x40 MLOAD PUSH1 0x0 DUP2 MSTORE PUSH1 0x20 ADD PUSH1 0x40 MSTORE PUSH1 0x40 MLOAD DUP1 DUP6 DUP2 MSTORE PUSH1 0x20 ADD DUP5 PUSH1 0xFF AND DUP2 MSTORE PUSH1 0x20 ADD DUP4 DUP2 MSTORE PUSH1 0x20 ADD DUP3 DUP2 MSTORE PUSH1 0x20 ADD SWAP5 POP POP POP POP POP PUSH1 0x20 PUSH1 0x40 MLOAD PUSH1 0x20 DUP2 SUB SWAP1 DUP1 DUP5 SUB SWAP1 DUP6 GAS STATICCALL ISZERO DUP1 ISZERO PUSH2 0x2003 JUMPI RETURNDATASIZE PUSH1 0x0 DUP1 RETURNDATACOPY RETURNDATASIZE PUSH1 0x0 REVERT JUMPDEST POP POP POP PUSH1 0x20 PUSH1 0x40 MLOAD SUB MLOAD SWAP1 POP PUSH1 0x0 PUSH20 0xFFFFFFFFFFFFFFFFFFFFFFFFFFFFFFFFFFFFFFFF AND DUP2 PUSH20 0xFFFFFFFFFFFFFFFFFFFFFFFFFFFFFFFFFFFFFFFF AND EQ ISZERO PUSH2 0x2095 JUMPI PUSH1 0x40 MLOAD PUSH32 0x8C379A000000000000000000000000000000000000000000000000000000000 DUP2 MSTORE PUSH1 0x4 ADD DUP1 DUP1 PUSH1 0x20 ADD DUP3 DUP2 SUB DUP3 MSTORE PUSH1 0x25 DUP2 MSTORE PUSH1 0x20 ADD DUP1 PUSH2 0x3778 PUSH1 0x25 SWAP2 CODECOPY PUSH1 0x40 ADD SWAP2 POP POP PUSH1 0x40 MLOAD DUP1 SWAP2 SUB SWAP1 REVERT JUMPDEST PUSH1 0xC PUSH1 0x0 DUP3 PUSH20 0xFFFFFFFFFFFFFFFFFFFFFFFFFFFFFFFFFFFFFFFF AND PUSH20 0xFFFFFFFFFFFFFFFFFFFFFFFFFFFFFFFFFFFFFFFF AND DUP2 MSTORE PUSH1 0x20 ADD SWAP1 DUP2 MSTORE PUSH1 0x20 ADD PUSH1 0x0 KECCAK256 PUSH1 0x0 DUP2 SLOAD DUP1 SWAP3 SWAP2 SWAP1 PUSH1 0x1 ADD SWAP2 SWAP1 POP SSTORE DUP10 EQ PUSH2 0x213A JUMPI PUSH1 0x40 MLOAD PUSH32 0x8C379A000000000000000000000000000000000000000000000000000000000 DUP2 MSTORE PUSH1 0x4 ADD DUP1 DUP1 PUSH1 0x20 ADD DUP3 DUP2 SUB DUP3 MSTORE PUSH1 0x21 DUP2 MSTORE PUSH1 0x20 ADD DUP1 PUSH2 0x387A PUSH1 0x21 SWAP2 CODECOPY PUSH1 0x40 ADD SWAP2 POP POP PUSH1 0x40 MLOAD DUP1 SWAP2 SUB SWAP1 REVERT JUMPDEST DUP8 TIMESTAMP GT ISZERO PUSH2 0x2193 JUMPI PUSH1 0x40 MLOAD PUSH32 0x8C379A000000000000000000000000000000000000000000000000000000000 DUP2 MSTORE PUSH1 0x4 ADD DUP1 DUP1 PUSH1 0x20 ADD DUP3 DUP2 SUB DUP3 MSTORE PUSH1 0x25 DUP2 MSTORE PUSH1 0x20 ADD DUP1 PUSH2 0x3962 PUSH1 0x25 SWAP2 CODECOPY PUSH1 0x40 ADD SWAP2 POP POP PUSH1 0x40 MLOAD DUP1 SWAP2 SUB SWAP1 REVERT JUMPDEST PUSH2 0x219D DUP2 DUP12 PUSH2 0x2E6C JUMP JUMPDEST POP POP POP POP POP POP POP POP POP POP JUMP JUMPDEST PUSH1 0x0 PUSH12 0x24306C4097859C43C000000 SWAP1 POP SWAP1 JUMP JUMPDEST PUSH1 0x0 PUSH1 0x2 PUSH1 0x0 DUP5 PUSH20 0xFFFFFFFFFFFFFFFFFFFFFFFFFFFFFFFFFFFFFFFF AND PUSH20 0xFFFFFFFFFFFFFFFFFFFFFFFFFFFFFFFFFFFFFFFF AND DUP2 MSTORE PUSH1 0x20 ADD SWAP1 DUP2 MSTORE PUSH1 0x20 ADD PUSH1 0x0 KECCAK256 PUSH1 0x0 DUP4 PUSH20 0xFFFFFFFFFFFFFFFFFFFFFFFFFFFFFFFFFFFFFFFF AND PUSH20 0xFFFFFFFFFFFFFFFFFFFFFFFFFFFFFFFFFFFFFFFF AND DUP2 MSTORE PUSH1 0x20 ADD SWAP1 DUP2 MSTORE PUSH1 0x20 ADD PUSH1 0x0 KECCAK256 SLOAD SWAP1 POP SWAP3 SWAP2 POP POP JUMP JUMPDEST PUSH32 0xE48329057BFD03D55E49B547132E39CFFD9C1820AD7B9D4C5307691425D15ADF DUP2 JUMP JUMPDEST PUSH1 0xA PUSH1 0x20 MSTORE DUP2 PUSH1 0x0 MSTORE PUSH1 0x40 PUSH1 0x0 KECCAK256 PUSH1 0x20 MSTORE DUP1 PUSH1 0x0 MSTORE PUSH1 0x40 PUSH1 0x0 KECCAK256 PUSH1 0x0 SWAP2 POP SWAP2 POP POP DUP1 PUSH1 0x0 ADD PUSH1 0x0 SWAP1 SLOAD SWAP1 PUSH2 0x100 EXP SWAP1 DIV PUSH4 0xFFFFFFFF AND SWAP1 DUP1 PUSH1 0x1 ADD SLOAD SWAP1 POP DUP3 JUMP JUMPDEST PUSH2 0x22B1 PUSH2 0x241A JUMP JUMPDEST PUSH20 0xFFFFFFFFFFFFFFFFFFFFFFFFFFFFFFFFFFFFFFFF AND PUSH1 0x0 DUP1 SLOAD SWAP1 PUSH2 0x100 EXP SWAP1 DIV PUSH20 0xFFFFFFFFFFFFFFFFFFFFFFFFFFFFFFFFFFFFFFFF AND PUSH20 0xFFFFFFFFFFFFFFFFFFFFFFFFFFFFFFFFFFFFFFFF AND EQ PUSH2 0x2371 JUMPI PUSH1 0x40 MLOAD PUSH32 0x8C379A000000000000000000000000000000000000000000000000000000000 DUP2 MSTORE PUSH1 0x4 ADD DUP1 DUP1 PUSH1 0x20 ADD DUP3 DUP2 SUB DUP3 MSTORE PUSH1 0x20 DUP2 MSTORE PUSH1 0x20 ADD DUP1 PUSH32 0x4F776E61626C653A2063616C6C6572206973206E6F7420746865206F776E6572 DUP2 MSTORE POP PUSH1 0x20 ADD SWAP2 POP POP PUSH1 0x40 MLOAD DUP1 SWAP2 SUB SWAP1 REVERT JUMPDEST PUSH2 0x237A DUP2 PUSH2 0x304A JUMP JUMPDEST POP JUMP JUMPDEST PUSH1 0x0 DUP1 DUP3 DUP5 ADD SWAP1 POP DUP4 DUP2 LT ISZERO PUSH2 0x23FB JUMPI PUSH1 0x40 MLOAD PUSH32 0x8C379A000000000000000000000000000000000000000000000000000000000 DUP2 MSTORE PUSH1 0x4 ADD DUP1 DUP1 PUSH1 0x20 ADD DUP3 DUP2 SUB DUP3 MSTORE PUSH1 0x1B DUP2 MSTORE PUSH1 0x20 ADD DUP1 PUSH32 0x536166654D6174683A206164646974696F6E206F766572666C6F770000000000 DUP2 MSTORE POP PUSH1 0x20 ADD SWAP2 POP POP PUSH1 0x40 MLOAD DUP1 SWAP2 SUB SWAP1 REVERT JUMPDEST DUP1 SWAP2 POP POP SWAP3 SWAP2 POP POP JUMP JUMPDEST PUSH1 0x0 PUSH2 0x2413 DUP3 PUSH1 0x0 ADD PUSH2 0x318D JUMP JUMPDEST SWAP1 POP SWAP2 SWAP1 POP JUMP JUMPDEST PUSH1 0x0 CALLER SWAP1 POP SWAP1 JUMP JUMPDEST PUSH1 0x0 PUSH20 0xFFFFFFFFFFFFFFFFFFFFFFFFFFFFFFFFFFFFFFFF AND DUP4 PUSH20 0xFFFFFFFFFFFFFFFFFFFFFFFFFFFFFFFFFFFFFFFF AND EQ ISZERO PUSH2 0x24A8 JUMPI PUSH1 0x40 MLOAD PUSH32 0x8C379A000000000000000000000000000000000000000000000000000000000 DUP2 MSTORE PUSH1 0x4 ADD DUP1 DUP1 PUSH1 0x20 ADD DUP3 DUP2 SUB DUP3 MSTORE PUSH1 0x24 DUP2 MSTORE PUSH1 0x20 ADD DUP1 PUSH2 0x37C2 PUSH1 0x24 SWAP2 CODECOPY PUSH1 0x40 ADD SWAP2 POP POP PUSH1 0x40 MLOAD DUP1 SWAP2 SUB SWAP1 REVERT JUMPDEST PUSH1 0x0 PUSH20 0xFFFFFFFFFFFFFFFFFFFFFFFFFFFFFFFFFFFFFFFF AND DUP3 PUSH20 0xFFFFFFFFFFFFFFFFFFFFFFFFFFFFFFFFFFFFFFFF AND EQ ISZERO PUSH2 0x252E JUMPI PUSH1 0x40 MLOAD PUSH32 0x8C379A000000000000000000000000000000000000000000000000000000000 DUP2 MSTORE PUSH1 0x4 ADD DUP1 DUP1 PUSH1 0x20 ADD DUP3 DUP2 SUB DUP3 MSTORE PUSH1 0x22 DUP2 MSTORE PUSH1 0x20 ADD DUP1 PUSH2 0x3987 PUSH1 0x22 SWAP2 CODECOPY PUSH1 0x40 ADD SWAP2 POP POP PUSH1 0x40 MLOAD DUP1 SWAP2 SUB SWAP1 REVERT JUMPDEST DUP1 PUSH1 0x2 PUSH1 0x0 DUP6 PUSH20 0xFFFFFFFFFFFFFFFFFFFFFFFFFFFFFFFFFFFFFFFF AND PUSH20 0xFFFFFFFFFFFFFFFFFFFFFFFFFFFFFFFFFFFFFFFF AND DUP2 MSTORE PUSH1 0x20 ADD SWAP1 DUP2 MSTORE PUSH1 0x20 ADD PUSH1 0x0 KECCAK256 PUSH1 0x0 DUP5 PUSH20 0xFFFFFFFFFFFFFFFFFFFFFFFFFFFFFFFFFFFFFFFF AND PUSH20 0xFFFFFFFFFFFFFFFFFFFFFFFFFFFFFFFFFFFFFFFF AND DUP2 MSTORE PUSH1 0x20 ADD SWAP1 DUP2 MSTORE PUSH1 0x20 ADD PUSH1 0x0 KECCAK256 DUP2 SWAP1 SSTORE POP DUP2 PUSH20 0xFFFFFFFFFFFFFFFFFFFFFFFFFFFFFFFFFFFFFFFF AND DUP4 PUSH20 0xFFFFFFFFFFFFFFFFFFFFFFFFFFFFFFFFFFFFFFFF AND PUSH32 0x8C5BE1E5EBEC7D5BD14F71427D1E84F3DD0314C0F7B2291E5B200AC8C7C3B925 DUP4 PUSH1 0x40 MLOAD DUP1 DUP3 DUP2 MSTORE PUSH1 0x20 ADD SWAP2 POP POP PUSH1 0x40 MLOAD DUP1 SWAP2 SUB SWAP1 LOG3 POP POP POP JUMP JUMPDEST PUSH1 0x0 PUSH2 0x2641 DUP4 PUSH1 0x0 ADD DUP4 PUSH20 0xFFFFFFFFFFFFFFFFFFFFFFFFFFFFFFFFFFFFFFFF AND PUSH1 0x0 SHL PUSH2 0x319E JUMP JUMPDEST SWAP1 POP SWAP3 SWAP2 POP POP JUMP JUMPDEST PUSH1 0x0 PUSH20 0xFFFFFFFFFFFFFFFFFFFFFFFFFFFFFFFFFFFFFFFF AND DUP4 PUSH20 0xFFFFFFFFFFFFFFFFFFFFFFFFFFFFFFFFFFFFFFFF AND EQ ISZERO PUSH2 0x26CF JUMPI PUSH1 0x40 MLOAD PUSH32 0x8C379A000000000000000000000000000000000000000000000000000000000 DUP2 MSTORE PUSH1 0x4 ADD DUP1 DUP1 PUSH1 0x20 ADD DUP3 DUP2 SUB DUP3 MSTORE PUSH1 0x25 DUP2 MSTORE PUSH1 0x20 ADD DUP1 PUSH2 0x379D PUSH1 0x25 SWAP2 CODECOPY PUSH1 0x40 ADD SWAP2 POP POP PUSH1 0x40 MLOAD DUP1 SWAP2 SUB SWAP1 REVERT JUMPDEST PUSH1 0x0 PUSH20 0xFFFFFFFFFFFFFFFFFFFFFFFFFFFFFFFFFFFFFFFF AND DUP3 PUSH20 0xFFFFFFFFFFFFFFFFFFFFFFFFFFFFFFFFFFFFFFFF AND EQ ISZERO PUSH2 0x2755 JUMPI PUSH1 0x40 MLOAD PUSH32 0x8C379A000000000000000000000000000000000000000000000000000000000 DUP2 MSTORE PUSH1 0x4 ADD DUP1 DUP1 PUSH1 0x20 ADD DUP3 DUP2 SUB DUP3 MSTORE PUSH1 0x23 DUP2 MSTORE PUSH1 0x20 ADD DUP1 PUSH2 0x391A PUSH1 0x23 SWAP2 CODECOPY PUSH1 0x40 ADD SWAP2 POP POP PUSH1 0x40 MLOAD DUP1 SWAP2 SUB SWAP1 REVERT JUMPDEST PUSH2 0x27C1 DUP2 PUSH1 0x40 MLOAD DUP1 PUSH1 0x60 ADD PUSH1 0x40 MSTORE DUP1 PUSH1 0x26 DUP2 MSTORE PUSH1 0x20 ADD PUSH2 0x38F4 PUSH1 0x26 SWAP2 CODECOPY PUSH1 0x1 PUSH1 0x0 DUP8 PUSH20 0xFFFFFFFFFFFFFFFFFFFFFFFFFFFFFFFFFFFFFFFF AND PUSH20 0xFFFFFFFFFFFFFFFFFFFFFFFFFFFFFFFFFFFFFFFF AND DUP2 MSTORE PUSH1 0x20 ADD SWAP1 DUP2 MSTORE PUSH1 0x20 ADD PUSH1 0x0 KECCAK256 SLOAD PUSH2 0x2903 SWAP1 SWAP3 SWAP2 SWAP1 PUSH4 0xFFFFFFFF AND JUMP JUMPDEST PUSH1 0x1 PUSH1 0x0 DUP6 PUSH20 0xFFFFFFFFFFFFFFFFFFFFFFFFFFFFFFFFFFFFFFFF AND PUSH20 0xFFFFFFFFFFFFFFFFFFFFFFFFFFFFFFFFFFFFFFFF AND DUP2 MSTORE PUSH1 0x20 ADD SWAP1 DUP2 MSTORE PUSH1 0x20 ADD PUSH1 0x0 KECCAK256 DUP2 SWAP1 SSTORE POP PUSH2 0x2856 DUP2 PUSH1 0x1 PUSH1 0x0 DUP6 PUSH20 0xFFFFFFFFFFFFFFFFFFFFFFFFFFFFFFFFFFFFFFFF AND PUSH20 0xFFFFFFFFFFFFFFFFFFFFFFFFFFFFFFFFFFFFFFFF AND DUP2 MSTORE PUSH1 0x20 ADD SWAP1 DUP2 MSTORE PUSH1 0x20 ADD PUSH1 0x0 KECCAK256 SLOAD PUSH2 0x237D SWAP1 SWAP2 SWAP1 PUSH4 0xFFFFFFFF AND JUMP JUMPDEST PUSH1 0x1 PUSH1 0x0 DUP5 PUSH20 0xFFFFFFFFFFFFFFFFFFFFFFFFFFFFFFFFFFFFFFFF AND PUSH20 0xFFFFFFFFFFFFFFFFFFFFFFFFFFFFFFFFFFFFFFFF AND DUP2 MSTORE PUSH1 0x20 ADD SWAP1 DUP2 MSTORE PUSH1 0x20 ADD PUSH1 0x0 KECCAK256 DUP2 SWAP1 SSTORE POP DUP2 PUSH20 0xFFFFFFFFFFFFFFFFFFFFFFFFFFFFFFFFFFFFFFFF AND DUP4 PUSH20 0xFFFFFFFFFFFFFFFFFFFFFFFFFFFFFFFFFFFFFFFF AND PUSH32 0xDDF252AD1BE2C89B69C2B068FC378DAA952BA7F163C4A11628F55A4DF523B3EF DUP4 PUSH1 0x40 MLOAD DUP1 DUP3 DUP2 MSTORE PUSH1 0x20 ADD SWAP2 POP POP PUSH1 0x40 MLOAD DUP1 SWAP2 SUB SWAP1 LOG3 POP POP POP JUMP JUMPDEST PUSH1 0x0 DUP4 DUP4 GT ISZERO DUP3 SWAP1 PUSH2 0x29B0 JUMPI PUSH1 0x40 MLOAD PUSH32 0x8C379A000000000000000000000000000000000000000000000000000000000 DUP2 MSTORE PUSH1 0x4 ADD DUP1 DUP1 PUSH1 0x20 ADD DUP3 DUP2 SUB DUP3 MSTORE DUP4 DUP2 DUP2 MLOAD DUP2 MSTORE PUSH1 0x20 ADD SWAP2 POP DUP1 MLOAD SWAP1 PUSH1 0x20 ADD SWAP1 DUP1 DUP4 DUP4 PUSH1 0x0 JUMPDEST DUP4 DUP2 LT ISZERO PUSH2 0x2975 JUMPI DUP1 DUP3 ADD MLOAD DUP2 DUP5 ADD MSTORE PUSH1 0x20 DUP2 ADD SWAP1 POP PUSH2 0x295A JUMP JUMPDEST POP POP POP POP SWAP1 POP SWAP1 DUP2 ADD SWAP1 PUSH1 0x1F AND DUP1 ISZERO PUSH2 0x29A2 JUMPI DUP1 DUP3 SUB DUP1 MLOAD PUSH1 0x1 DUP4 PUSH1 0x20 SUB PUSH2 0x100 EXP SUB NOT AND DUP2 MSTORE PUSH1 0x20 ADD SWAP2 POP JUMPDEST POP SWAP3 POP POP POP PUSH1 0x40 MLOAD DUP1 SWAP2 SUB SWAP1 REVERT JUMPDEST POP PUSH1 0x0 DUP4 DUP6 SUB SWAP1 POP DUP1 SWAP2 POP POP SWAP4 SWAP3 POP POP POP JUMP JUMPDEST PUSH1 0x0 DUP1 PUSH20 0xFFFFFFFFFFFFFFFFFFFFFFFFFFFFFFFFFFFFFFFF AND DUP4 PUSH20 0xFFFFFFFFFFFFFFFFFFFFFFFFFFFFFFFFFFFFFFFF AND EQ ISZERO PUSH2 0x2A67 JUMPI PUSH1 0x40 MLOAD PUSH32 0x8C379A000000000000000000000000000000000000000000000000000000000 DUP2 MSTORE PUSH1 0x4 ADD DUP1 DUP1 PUSH1 0x20 ADD DUP3 DUP2 SUB DUP3 MSTORE PUSH1 0x1F DUP2 MSTORE PUSH1 0x20 ADD DUP1 PUSH32 0x42455032303A206D696E7420746F20746865207A65726F206164647265737300 DUP2 MSTORE POP PUSH1 0x20 ADD SWAP2 POP POP PUSH1 0x40 MLOAD DUP1 SWAP2 SUB SWAP1 REVERT JUMPDEST PUSH12 0x24306C4097859C43C000000 PUSH2 0x2A89 PUSH1 0x3 SLOAD DUP5 PUSH2 0x237D SWAP1 SWAP2 SWAP1 PUSH4 0xFFFFFFFF AND JUMP JUMPDEST GT ISZERO PUSH2 0x2A98 JUMPI PUSH1 0x0 SWAP1 POP PUSH2 0x2BAF JUMP JUMPDEST PUSH2 0x2AAD DUP3 PUSH1 0x3 SLOAD PUSH2 0x237D SWAP1 SWAP2 SWAP1 PUSH4 0xFFFFFFFF AND JUMP JUMPDEST PUSH1 0x3 DUP2 SWAP1 SSTORE POP PUSH2 0x2B05 DUP3 PUSH1 0x1 PUSH1 0x0 DUP7 PUSH20 0xFFFFFFFFFFFFFFFFFFFFFFFFFFFFFFFFFFFFFFFF AND PUSH20 0xFFFFFFFFFFFFFFFFFFFFFFFFFFFFFFFFFFFFFFFF AND DUP2 MSTORE PUSH1 0x20 ADD SWAP1 DUP2 MSTORE PUSH1 0x20 ADD PUSH1 0x0 KECCAK256 SLOAD PUSH2 0x237D SWAP1 SWAP2 SWAP1 PUSH4 0xFFFFFFFF AND JUMP JUMPDEST PUSH1 0x1 PUSH1 0x0 DUP6 PUSH20 0xFFFFFFFFFFFFFFFFFFFFFFFFFFFFFFFFFFFFFFFF AND PUSH20 0xFFFFFFFFFFFFFFFFFFFFFFFFFFFFFFFFFFFFFFFF AND DUP2 MSTORE PUSH1 0x20 ADD SWAP1 DUP2 MSTORE PUSH1 0x20 ADD PUSH1 0x0 KECCAK256 DUP2 SWAP1 SSTORE POP DUP3 PUSH20 0xFFFFFFFFFFFFFFFFFFFFFFFFFFFFFFFFFFFFFFFF AND PUSH1 0x0 PUSH20 0xFFFFFFFFFFFFFFFFFFFFFFFFFFFFFFFFFFFFFFFF AND PUSH32 0xDDF252AD1BE2C89B69C2B068FC378DAA952BA7F163C4A11628F55A4DF523B3EF DUP5 PUSH1 0x40 MLOAD DUP1 DUP3 DUP2 MSTORE PUSH1 0x20 ADD SWAP2 POP POP PUSH1 0x40 MLOAD DUP1 SWAP2 SUB SWAP1 LOG3 JUMPDEST SWAP3 SWAP2 POP POP JUMP JUMPDEST DUP2 PUSH20 0xFFFFFFFFFFFFFFFFFFFFFFFFFFFFFFFFFFFFFFFF AND DUP4 PUSH20 0xFFFFFFFFFFFFFFFFFFFFFFFFFFFFFFFFFFFFFFFF AND EQ ISZERO DUP1 ISZERO PUSH2 0x2BF1 JUMPI POP PUSH1 0x0 DUP2 GT JUMPDEST ISZERO PUSH2 0x2E4D JUMPI PUSH1 0x0 PUSH20 0xFFFFFFFFFFFFFFFFFFFFFFFFFFFFFFFFFFFFFFFF AND DUP4 PUSH20 0xFFFFFFFFFFFFFFFFFFFFFFFFFFFFFFFFFFFFFFFF AND EQ PUSH2 0x2D21 JUMPI PUSH1 0x0 PUSH1 0xB PUSH1 0x0 DUP6 PUSH20 0xFFFFFFFFFFFFFFFFFFFFFFFFFFFFFFFFFFFFFFFF AND PUSH20 0xFFFFFFFFFFFFFFFFFFFFFFFFFFFFFFFFFFFFFFFF AND DUP2 MSTORE PUSH1 0x20 ADD SWAP1 DUP2 MSTORE PUSH1 0x20 ADD PUSH1 0x0 KECCAK256 PUSH1 0x0 SWAP1 SLOAD SWAP1 PUSH2 0x100 EXP SWAP1 DIV PUSH4 0xFFFFFFFF AND SWAP1 POP PUSH1 0x0 DUP1 DUP3 PUSH4 0xFFFFFFFF AND GT PUSH2 0x2C94 JUMPI PUSH1 0x0 PUSH2 0x2CF8 JUMP JUMPDEST PUSH1 0xA PUSH1 0x0 DUP7 PUSH20 0xFFFFFFFFFFFFFFFFFFFFFFFFFFFFFFFFFFFFFFFF AND PUSH20 0xFFFFFFFFFFFFFFFFFFFFFFFFFFFFFFFFFFFFFFFF AND DUP2 MSTORE PUSH1 0x20 ADD SWAP1 DUP2 MSTORE PUSH1 0x20 ADD PUSH1 0x0 KECCAK256 PUSH1 0x0 PUSH1 0x1 DUP5 SUB PUSH4 0xFFFFFFFF AND PUSH4 0xFFFFFFFF AND DUP2 MSTORE PUSH1 0x20 ADD SWAP1 DUP2 MSTORE PUSH1 0x20 ADD PUSH1 0x0 KECCAK256 PUSH1 0x1 ADD SLOAD JUMPDEST SWAP1 POP PUSH1 0x0 PUSH2 0x2D0F DUP5 DUP4 PUSH2 0x3286 SWAP1 SWAP2 SWAP1 PUSH4 0xFFFFFFFF AND JUMP JUMPDEST SWAP1 POP PUSH2 0x2D1D DUP7 DUP5 DUP5 DUP5 PUSH2 0x32D0 JUMP JUMPDEST POP POP POP JUMPDEST PUSH1 0x0 PUSH20 0xFFFFFFFFFFFFFFFFFFFFFFFFFFFFFFFFFFFFFFFF AND DUP3 PUSH20 0xFFFFFFFFFFFFFFFFFFFFFFFFFFFFFFFFFFFFFFFF AND EQ PUSH2 0x2E4C JUMPI PUSH1 0x0 PUSH1 0xB PUSH1 0x0 DUP5 PUSH20 0xFFFFFFFFFFFFFFFFFFFFFFFFFFFFFFFFFFFFFFFF AND PUSH20 0xFFFFFFFFFFFFFFFFFFFFFFFFFFFFFFFFFFFFFFFF AND DUP2 MSTORE PUSH1 0x20 ADD SWAP1 DUP2 MSTORE PUSH1 0x20 ADD PUSH1 0x0 KECCAK256 PUSH1 0x0 SWAP1 SLOAD SWAP1 PUSH2 0x100 EXP SWAP1 DIV PUSH4 0xFFFFFFFF AND SWAP1 POP PUSH1 0x0 DUP1 DUP3 PUSH4 0xFFFFFFFF AND GT PUSH2 0x2DBF JUMPI PUSH1 0x0 PUSH2 0x2E23 JUMP JUMPDEST PUSH1 0xA PUSH1 0x0 DUP6 PUSH20 0xFFFFFFFFFFFFFFFFFFFFFFFFFFFFFFFFFFFFFFFF AND PUSH20 0xFFFFFFFFFFFFFFFFFFFFFFFFFFFFFFFFFFFFFFFF AND DUP2 MSTORE PUSH1 0x20 ADD SWAP1 DUP2 MSTORE PUSH1 0x20 ADD PUSH1 0x0 KECCAK256 PUSH1 0x0 PUSH1 0x1 DUP5 SUB PUSH4 0xFFFFFFFF AND PUSH4 0xFFFFFFFF AND DUP2 MSTORE PUSH1 0x20 ADD SWAP1 DUP2 MSTORE PUSH1 0x20 ADD PUSH1 0x0 KECCAK256 PUSH1 0x1 ADD SLOAD JUMPDEST SWAP1 POP PUSH1 0x0 PUSH2 0x2E3A DUP5 DUP4 PUSH2 0x237D SWAP1 SWAP2 SWAP1 PUSH4 0xFFFFFFFF AND JUMP JUMPDEST SWAP1 POP PUSH2 0x2E48 DUP6 DUP5 DUP5 DUP5 PUSH2 0x32D0 JUMP JUMPDEST POP POP POP JUMPDEST JUMPDEST POP POP POP JUMP JUMPDEST PUSH1 0x0 PUSH2 0x2E61 DUP4 PUSH1 0x0 ADD DUP4 PUSH2 0x3564 JUMP JUMPDEST PUSH1 0x0 SHR SWAP1 POP SWAP3 SWAP2 POP POP JUMP JUMPDEST PUSH1 0x0 PUSH1 0x9 PUSH1 0x0 DUP5 PUSH20 0xFFFFFFFFFFFFFFFFFFFFFFFFFFFFFFFFFFFFFFFF AND PUSH20 0xFFFFFFFFFFFFFFFFFFFFFFFFFFFFFFFFFFFFFFFF AND DUP2 MSTORE PUSH1 0x20 ADD SWAP1 DUP2 MSTORE PUSH1 0x20 ADD PUSH1 0x0 KECCAK256 PUSH1 0x0 SWAP1 SLOAD SWAP1 PUSH2 0x100 EXP SWAP1 DIV PUSH20 0xFFFFFFFFFFFFFFFFFFFFFFFFFFFFFFFFFFFFFFFF AND SWAP1 POP PUSH1 0x0 PUSH2 0x2EDB DUP5 PUSH2 0x13A7 JUMP JUMPDEST SWAP1 POP DUP3 PUSH1 0x9 PUSH1 0x0 DUP7 PUSH20 0xFFFFFFFFFFFFFFFFFFFFFFFFFFFFFFFFFFFFFFFF AND PUSH20 0xFFFFFFFFFFFFFFFFFFFFFFFFFFFFFFFFFFFFFFFF AND DUP2 MSTORE PUSH1 0x20 ADD SWAP1 DUP2 MSTORE PUSH1 0x20 ADD PUSH1 0x0 KECCAK256 PUSH1 0x0 PUSH2 0x100 EXP DUP2 SLOAD DUP2 PUSH20 0xFFFFFFFFFFFFFFFFFFFFFFFFFFFFFFFFFFFFFFFF MUL NOT AND SWAP1 DUP4 PUSH20 0xFFFFFFFFFFFFFFFFFFFFFFFFFFFFFFFFFFFFFFFF AND MUL OR SWAP1 SSTORE POP DUP3 PUSH20 0xFFFFFFFFFFFFFFFFFFFFFFFFFFFFFFFFFFFFFFFF AND DUP3 PUSH20 0xFFFFFFFFFFFFFFFFFFFFFFFFFFFFFFFFFFFFFFFF AND DUP6 PUSH20 0xFFFFFFFFFFFFFFFFFFFFFFFFFFFFFFFFFFFFFFFF AND PUSH32 0x3134E8A2E6D97E929A7E54011EA5485D7D196DD5F0BA4D4EF95803E8E3FC257F PUSH1 0x40 MLOAD PUSH1 0x40 MLOAD DUP1 SWAP2 SUB SWAP1 LOG4 PUSH2 0x2FD7 DUP3 DUP5 DUP4 PUSH2 0x2BB5 JUMP JUMPDEST POP POP POP POP JUMP JUMPDEST PUSH1 0x0 PUSH2 0x3005 DUP4 PUSH1 0x0 ADD DUP4 PUSH20 0xFFFFFFFFFFFFFFFFFFFFFFFFFFFFFFFFFFFFFFFF AND PUSH1 0x0 SHL PUSH2 0x35E7 JUMP JUMPDEST SWAP1 POP SWAP3 SWAP2 POP POP JUMP JUMPDEST PUSH1 0x0 PUSH2 0x3035 DUP4 PUSH1 0x0 ADD DUP4 PUSH20 0xFFFFFFFFFFFFFFFFFFFFFFFFFFFFFFFFFFFFFFFF AND PUSH1 0x0 SHL PUSH2 0x3657 JUMP JUMPDEST SWAP1 POP SWAP3 SWAP2 POP POP JUMP JUMPDEST PUSH1 0x0 DUP1 CHAINID SWAP1 POP DUP1 SWAP2 POP POP SWAP1 JUMP JUMPDEST PUSH1 0x0 PUSH20 0xFFFFFFFFFFFFFFFFFFFFFFFFFFFFFFFFFFFFFFFF AND DUP2 PUSH20 0xFFFFFFFFFFFFFFFFFFFFFFFFFFFFFFFFFFFFFFFF AND EQ ISZERO PUSH2 0x30D0 JUMPI PUSH1 0x40 MLOAD PUSH32 0x8C379A000000000000000000000000000000000000000000000000000000000 DUP2 MSTORE PUSH1 0x4 ADD DUP1 DUP1 PUSH1 0x20 ADD DUP3 DUP2 SUB DUP3 MSTORE PUSH1 0x26 DUP2 MSTORE PUSH1 0x20 ADD DUP1 PUSH2 0x37E6 PUSH1 0x26 SWAP2 CODECOPY PUSH1 0x40 ADD SWAP2 POP POP PUSH1 0x40 MLOAD DUP1 SWAP2 SUB SWAP1 REVERT JUMPDEST DUP1 PUSH20 0xFFFFFFFFFFFFFFFFFFFFFFFFFFFFFFFFFFFFFFFF AND PUSH1 0x0 DUP1 SLOAD SWAP1 PUSH2 0x100 EXP SWAP1 DIV PUSH20 0xFFFFFFFFFFFFFFFFFFFFFFFFFFFFFFFFFFFFFFFF AND PUSH20 0xFFFFFFFFFFFFFFFFFFFFFFFFFFFFFFFFFFFFFFFF AND PUSH32 0x8BE0079C531659141344CD1FD0A4F28419497F9722A3DAAFE3B4186F6B6457E0 PUSH1 0x40 MLOAD PUSH1 0x40 MLOAD DUP1 SWAP2 SUB SWAP1 LOG3 DUP1 PUSH1 0x0 DUP1 PUSH2 0x100 EXP DUP2 SLOAD DUP2 PUSH20 0xFFFFFFFFFFFFFFFFFFFFFFFFFFFFFFFFFFFFFFFF MUL NOT AND SWAP1 DUP4 PUSH20 0xFFFFFFFFFFFFFFFFFFFFFFFFFFFFFFFFFFFFFFFF AND MUL OR SWAP1 SSTORE POP POP JUMP JUMPDEST PUSH1 0x0 DUP2 PUSH1 0x0 ADD DUP1 SLOAD SWAP1 POP SWAP1 POP SWAP2 SWAP1 POP JUMP JUMPDEST PUSH1 0x0 DUP1 DUP4 PUSH1 0x1 ADD PUSH1 0x0 DUP5 DUP2 MSTORE PUSH1 0x20 ADD SWAP1 DUP2 MSTORE PUSH1 0x20 ADD PUSH1 0x0 KECCAK256 SLOAD SWAP1 POP PUSH1 0x0 DUP2 EQ PUSH2 0x327A JUMPI PUSH1 0x0 PUSH1 0x1 DUP3 SUB SWAP1 POP PUSH1 0x0 PUSH1 0x1 DUP7 PUSH1 0x0 ADD DUP1 SLOAD SWAP1 POP SUB SWAP1 POP PUSH1 0x0 DUP7 PUSH1 0x0 ADD DUP3 DUP2 SLOAD DUP2 LT PUSH2 0x31E9 JUMPI INVALID JUMPDEST SWAP1 PUSH1 0x0 MSTORE PUSH1 0x20 PUSH1 0x0 KECCAK256 ADD SLOAD SWAP1 POP DUP1 DUP8 PUSH1 0x0 ADD DUP5 DUP2 SLOAD DUP2 LT PUSH2 0x3206 JUMPI INVALID JUMPDEST SWAP1 PUSH1 0x0 MSTORE PUSH1 0x20 PUSH1 0x0 KECCAK256 ADD DUP2 SWAP1 SSTORE POP PUSH1 0x1 DUP4 ADD DUP8 PUSH1 0x1 ADD PUSH1 0x0 DUP4 DUP2 MSTORE PUSH1 0x20 ADD SWAP1 DUP2 MSTORE PUSH1 0x20 ADD PUSH1 0x0 KECCAK256 DUP2 SWAP1 SSTORE POP DUP7 PUSH1 0x0 ADD DUP1 SLOAD DUP1 PUSH2 0x323E JUMPI INVALID JUMPDEST PUSH1 0x1 SWAP1 SUB DUP2 DUP2 SWAP1 PUSH1 0x0 MSTORE PUSH1 0x20 PUSH1 0x0 KECCAK256 ADD PUSH1 0x0 SWAP1 SSTORE SWAP1 SSTORE DUP7 PUSH1 0x1 ADD PUSH1 0x0 DUP8 DUP2 MSTORE PUSH1 0x20 ADD SWAP1 DUP2 MSTORE PUSH1 0x20 ADD PUSH1 0x0 KECCAK256 PUSH1 0x0 SWAP1 SSTORE PUSH1 0x1 SWAP5 POP POP POP POP POP PUSH2 0x3280 JUMP JUMPDEST PUSH1 0x0 SWAP2 POP POP JUMPDEST SWAP3 SWAP2 POP POP JUMP JUMPDEST PUSH1 0x0 PUSH2 0x32C8 DUP4 DUP4 PUSH1 0x40 MLOAD DUP1 PUSH1 0x40 ADD PUSH1 0x40 MSTORE DUP1 PUSH1 0x1E DUP2 MSTORE PUSH1 0x20 ADD PUSH32 0x536166654D6174683A207375627472616374696F6E206F766572666C6F770000 DUP2 MSTORE POP PUSH2 0x2903 JUMP JUMPDEST SWAP1 POP SWAP3 SWAP2 POP POP JUMP JUMPDEST PUSH1 0x0 PUSH2 0x32F4 NUMBER PUSH1 0x40 MLOAD DUP1 PUSH1 0x60 ADD PUSH1 0x40 MSTORE DUP1 PUSH1 0x33 DUP2 MSTORE PUSH1 0x20 ADD PUSH2 0x38C1 PUSH1 0x33 SWAP2 CODECOPY PUSH2 0x367A JUMP JUMPDEST SWAP1 POP PUSH1 0x0 DUP5 PUSH4 0xFFFFFFFF AND GT DUP1 ISZERO PUSH2 0x3389 JUMPI POP DUP1 PUSH4 0xFFFFFFFF AND PUSH1 0xA PUSH1 0x0 DUP8 PUSH20 0xFFFFFFFFFFFFFFFFFFFFFFFFFFFFFFFFFFFFFFFF AND PUSH20 0xFFFFFFFFFFFFFFFFFFFFFFFFFFFFFFFFFFFFFFFF AND DUP2 MSTORE PUSH1 0x20 ADD SWAP1 DUP2 MSTORE PUSH1 0x20 ADD PUSH1 0x0 KECCAK256 PUSH1 0x0 PUSH1 0x1 DUP8 SUB PUSH4 0xFFFFFFFF AND PUSH4 0xFFFFFFFF AND DUP2 MSTORE PUSH1 0x20 ADD SWAP1 DUP2 MSTORE PUSH1 0x20 ADD PUSH1 0x0 KECCAK256 PUSH1 0x0 ADD PUSH1 0x0 SWAP1 SLOAD SWAP1 PUSH2 0x100 EXP SWAP1 DIV PUSH4 0xFFFFFFFF AND PUSH4 0xFFFFFFFF AND EQ JUMPDEST ISZERO PUSH2 0x33FA JUMPI DUP2 PUSH1 0xA PUSH1 0x0 DUP8 PUSH20 0xFFFFFFFFFFFFFFFFFFFFFFFFFFFFFFFFFFFFFFFF AND PUSH20 0xFFFFFFFFFFFFFFFFFFFFFFFFFFFFFFFFFFFFFFFF AND DUP2 MSTORE PUSH1 0x20 ADD SWAP1 DUP2 MSTORE PUSH1 0x20 ADD PUSH1 0x0 KECCAK256 PUSH1 0x0 PUSH1 0x1 DUP8 SUB PUSH4 0xFFFFFFFF AND PUSH4 0xFFFFFFFF AND DUP2 MSTORE PUSH1 0x20 ADD SWAP1 DUP2 MSTORE PUSH1 0x20 ADD PUSH1 0x0 KECCAK256 PUSH1 0x1 ADD DUP2 SWAP1 SSTORE POP PUSH2 0x3507 JUMP JUMPDEST PUSH1 0x40 MLOAD DUP1 PUSH1 0x40 ADD PUSH1 0x40 MSTORE DUP1 DUP3 PUSH4 0xFFFFFFFF AND DUP2 MSTORE PUSH1 0x20 ADD DUP4 DUP2 MSTORE POP PUSH1 0xA PUSH1 0x0 DUP8 PUSH20 0xFFFFFFFFFFFFFFFFFFFFFFFFFFFFFFFFFFFFFFFF AND PUSH20 0xFFFFFFFFFFFFFFFFFFFFFFFFFFFFFFFFFFFFFFFF AND DUP2 MSTORE PUSH1 0x20 ADD SWAP1 DUP2 MSTORE PUSH1 0x20 ADD PUSH1 0x0 KECCAK256 PUSH1 0x0 DUP7 PUSH4 0xFFFFFFFF AND PUSH4 0xFFFFFFFF AND DUP2 MSTORE PUSH1 0x20 ADD SWAP1 DUP2 MSTORE PUSH1 0x20 ADD PUSH1 0x0 KECCAK256 PUSH1 0x0 DUP3 ADD MLOAD DUP2 PUSH1 0x0 ADD PUSH1 0x0 PUSH2 0x100 EXP DUP2 SLOAD DUP2 PUSH4 0xFFFFFFFF MUL NOT AND SWAP1 DUP4 PUSH4 0xFFFFFFFF AND MUL OR SWAP1 SSTORE POP PUSH1 0x20 DUP3 ADD MLOAD DUP2 PUSH1 0x1 ADD SSTORE SWAP1 POP POP PUSH1 0x1 DUP5 ADD PUSH1 0xB PUSH1 0x0 DUP8 PUSH20 0xFFFFFFFFFFFFFFFFFFFFFFFFFFFFFFFFFFFFFFFF AND PUSH20 0xFFFFFFFFFFFFFFFFFFFFFFFFFFFFFFFFFFFFFFFF AND DUP2 MSTORE PUSH1 0x20 ADD SWAP1 DUP2 MSTORE PUSH1 0x20 ADD PUSH1 0x0 KECCAK256 PUSH1 0x0 PUSH2 0x100 EXP DUP2 SLOAD DUP2 PUSH4 0xFFFFFFFF MUL NOT AND SWAP1 DUP4 PUSH4 0xFFFFFFFF AND MUL OR SWAP1 SSTORE POP JUMPDEST DUP5 PUSH20 0xFFFFFFFFFFFFFFFFFFFFFFFFFFFFFFFFFFFFFFFF AND PUSH32 0xDEC2BACDD2F05B59DE34DA9B523DFF8BE42E5E38E818C82FDB0BAE774387A724 DUP5 DUP5 PUSH1 0x40 MLOAD DUP1 DUP4 DUP2 MSTORE PUSH1 0x20 ADD DUP3 DUP2 MSTORE PUSH1 0x20 ADD SWAP3 POP POP POP PUSH1 0x40 MLOAD DUP1 SWAP2 SUB SWAP1 LOG2 POP POP POP POP POP JUMP JUMPDEST PUSH1 0x0 DUP2 DUP4 PUSH1 0x0 ADD DUP1 SLOAD SWAP1 POP GT PUSH2 0x35C5 JUMPI PUSH1 0x40 MLOAD PUSH32 0x8C379A000000000000000000000000000000000000000000000000000000000 DUP2 MSTORE PUSH1 0x4 ADD DUP1 DUP1 PUSH1 0x20 ADD DUP3 DUP2 SUB DUP3 MSTORE PUSH1 0x22 DUP2 MSTORE PUSH1 0x20 ADD DUP1 PUSH2 0x3756 PUSH1 0x22 SWAP2 CODECOPY PUSH1 0x40 ADD SWAP2 POP POP PUSH1 0x40 MLOAD DUP1 SWAP2 SUB SWAP1 REVERT JUMPDEST DUP3 PUSH1 0x0 ADD DUP3 DUP2 SLOAD DUP2 LT PUSH2 0x35D4 JUMPI INVALID JUMPDEST SWAP1 PUSH1 0x0 MSTORE PUSH1 0x20 PUSH1 0x0 KECCAK256 ADD SLOAD SWAP1 POP SWAP3 SWAP2 POP POP JUMP JUMPDEST PUSH1 0x0 PUSH2 0x35F3 DUP4 DUP4 PUSH2 0x3657 JUMP JUMPDEST PUSH2 0x364C JUMPI DUP3 PUSH1 0x0 ADD DUP3 SWAP1 DUP1 PUSH1 0x1 DUP2 SLOAD ADD DUP1 DUP3 SSTORE DUP1 SWAP2 POP POP PUSH1 0x1 SWAP1 SUB SWAP1 PUSH1 0x0 MSTORE PUSH1 0x20 PUSH1 0x0 KECCAK256 ADD PUSH1 0x0 SWAP1 SWAP2 SWAP1 SWAP2 SWAP1 SWAP2 POP SSTORE DUP3 PUSH1 0x0 ADD DUP1 SLOAD SWAP1 POP DUP4 PUSH1 0x1 ADD PUSH1 0x0 DUP5 DUP2 MSTORE PUSH1 0x20 ADD SWAP1 DUP2 MSTORE PUSH1 0x20 ADD PUSH1 0x0 KECCAK256 DUP2 SWAP1 SSTORE POP PUSH1 0x1 SWAP1 POP PUSH2 0x3651 JUMP JUMPDEST PUSH1 0x0 SWAP1 POP JUMPDEST SWAP3 SWAP2 POP POP JUMP JUMPDEST PUSH1 0x0 DUP1 DUP4 PUSH1 0x1 ADD PUSH1 0x0 DUP5 DUP2 MSTORE PUSH1 0x20 ADD SWAP1 DUP2 MSTORE PUSH1 0x20 ADD PUSH1 0x0 KECCAK256 SLOAD EQ ISZERO SWAP1 POP SWAP3 SWAP2 POP POP JUMP JUMPDEST PUSH1 0x0 PUSH5 0x100000000 DUP4 LT DUP3 SWAP1 PUSH2 0x372B JUMPI PUSH1 0x40 MLOAD PUSH32 0x8C379A000000000000000000000000000000000000000000000000000000000 DUP2 MSTORE PUSH1 0x4 ADD DUP1 DUP1 PUSH1 0x20 ADD DUP3 DUP2 SUB DUP3 MSTORE DUP4 DUP2 DUP2 MLOAD DUP2 MSTORE PUSH1 0x20 ADD SWAP2 POP DUP1 MLOAD SWAP1 PUSH1 0x20 ADD SWAP1 DUP1 DUP4 DUP4 PUSH1 0x0 JUMPDEST DUP4 DUP2 LT ISZERO PUSH2 0x36F0 JUMPI DUP1 DUP3 ADD MLOAD DUP2 DUP5 ADD MSTORE PUSH1 0x20 DUP2 ADD SWAP1 POP PUSH2 0x36D5 JUMP JUMPDEST POP POP POP POP SWAP1 POP SWAP1 DUP2 ADD SWAP1 PUSH1 0x1F AND DUP1 ISZERO PUSH2 0x371D JUMPI DUP1 DUP3 SUB DUP1 MLOAD PUSH1 0x1 DUP4 PUSH1 0x20 SUB PUSH2 0x100 EXP SUB NOT AND DUP2 MSTORE PUSH1 0x20 ADD SWAP2 POP JUMPDEST POP SWAP3 POP POP POP PUSH1 0x40 MLOAD DUP1 SWAP2 SUB SWAP1 REVERT JUMPDEST POP DUP3 SWAP1 POP SWAP3 SWAP2 POP POP JUMP JUMPDEST PUSH1 0x40 MLOAD DUP1 PUSH1 0x40 ADD PUSH1 0x40 MSTORE DUP1 PUSH1 0x0 PUSH4 0xFFFFFFFF AND DUP2 MSTORE PUSH1 0x20 ADD PUSH1 0x0 DUP2 MSTORE POP SWAP1 JUMP INVALID GASLIMIT PUSH15 0x756D657261626C655365743A20696E PUSH5 0x6578206F75 PUSH21 0x206F6620626F756E64734253573A3A64656C656761 PUSH21 0x6542795369673A20696E76616C6964207369676E61 PUSH21 0x75726542455032303A207472616E73666572206672 PUSH16 0x6D20746865207A65726F206164647265 PUSH20 0x7342455032303A20617070726F76652066726F6D KECCAK256 PUSH21 0x6865207A65726F20616464726573734F776E61626C PUSH6 0x3A206E657720 PUSH16 0x776E657220697320746865207A65726F KECCAK256 PUSH2 0x6464 PUSH19 0x6573734253573A205F64656C4D696E74657220 PUSH10 0x7320746865207A65726F KECCAK256 PUSH2 0x6464 PUSH19 0x6573734253573A205F6164644D696E74657220 PUSH10 0x7320746865207A65726F KECCAK256 PUSH2 0x6464 PUSH19 0x65737342455032303A207472616E7366657220 PUSH2 0x6D6F PUSH22 0x6E74206578636565647320616C6C6F77616E63654253 JUMPI GASPRICE GASPRICE PUSH5 0x656C656761 PUSH21 0x6542795369673A20696E76616C6964206E6F6E6365 TIMESTAMP MSTORE8 JUMPI GASPRICE GASPRICE PUSH8 0x65745072696F7256 PUSH16 0x7465733A206E6F742079657420646574 PUSH6 0x726D696E6564 TIMESTAMP MSTORE8 JUMPI GASPRICE GASPRICE 0x5F PUSH24 0x72697465436865636B706F696E743A20626C6F636B206E75 PUSH14 0x6265722065786365656473203332 KECCAK256 PUSH3 0x697473 TIMESTAMP GASLIMIT POP ORIGIN ADDRESS GASPRICE KECCAK256 PUSH21 0x72616E7366657220616D6F756E7420657863656564 PUSH20 0x2062616C616E636542455032303A207472616E73 PUSH7 0x657220746F2074 PUSH9 0x65207A65726F206164 PUSH5 0x7265737342 GASLIMIT POP ORIGIN ADDRESS GASPRICE KECCAK256 PUSH5 0x6563726561 PUSH20 0x656420616C6C6F77616E63652062656C6F77207A PUSH6 0x726F4253573A GASPRICE PUSH5 0x656C656761 PUSH21 0x6542795369673A207369676E617475726520657870 PUSH10 0x72656442455032303A20 PUSH2 0x7070 PUSH19 0x6F766520746F20746865207A65726F20616464 PUSH19 0x657373A264697066735822122083F5033F7D2B 0xC9 EXTCODECOPY DUP4 0x48 SWAP7 SWAP16 0x4F 0xEF 0xB9 SIGNEXTEND 0xED 0xBB 0xE4 0xB8 RETURNDATASIZE 0xDD 0xE4 0xE5 0x23 PUSH19 0xC37136720C0764736F6C634300060C00330000 "
				},
				"gasEstimates": {
					"creation": {
						"codeDepositCost": "2962800",
						"executionCost": "infinite",
						"totalCost": "infinite"
					},
					"external": {
						"DELEGATION_TYPEHASH()": "293",
						"DOMAIN_TYPEHASH()": "273",
						"addMinter(address)": "infinite",
						"allowance(address,address)": "1387",
						"approve(address,uint256)": "infinite",
						"balanceOf(address)": "1307",
						"checkpoints(address,uint32)": "2265",
						"decimals()": "1101",
						"decreaseAllowance(address,uint256)": "infinite",
						"delMinter(address)": "infinite",
						"delegate(address)": "infinite",
						"delegateBySig(address,uint256,uint256,uint8,bytes32,bytes32)": "infinite",
						"delegates(address)": "1350",
						"getCurrentVotes(address)": "2356",
						"getMinter(uint256)": "infinite",
						"getMinterLength()": "1166",
						"getOwner()": "1180",
						"getPriorVotes(address,uint256)": "infinite",
						"increaseAllowance(address,uint256)": "infinite",
						"isMinter(address)": "1386",
						"maxSupply()": "257",
						"mint(address,uint256)": "infinite",
						"mint(uint256)": "infinite",
						"name()": "infinite",
						"nonces(address)": "1237",
						"numCheckpoints(address)": "1289",
						"owner()": "1167",
						"preMineSupply()": "326",
						"renounceOwnership()": "24424",
						"symbol()": "infinite",
						"totalSupply()": "1059",
						"transfer(address,uint256)": "infinite",
						"transferFrom(address,address,uint256)": "infinite",
						"transferOwnership(address)": "infinite"
					},
					"internal": {
						"_delegate(address,address)": "infinite",
						"_moveDelegates(address,address,uint256)": "infinite",
						"_writeCheckpoint(address,uint32,uint256,uint256)": "infinite",
						"getChainId()": "35",
						"safe32(uint256,string memory)": "infinite"
					}
				},
				"methodIdentifiers": {
					"DELEGATION_TYPEHASH()": "e7a324dc",
					"DOMAIN_TYPEHASH()": "20606b70",
					"addMinter(address)": "983b2d56",
					"allowance(address,address)": "dd62ed3e",
					"approve(address,uint256)": "095ea7b3",
					"balanceOf(address)": "70a08231",
					"checkpoints(address,uint32)": "f1127ed8",
					"decimals()": "313ce567",
					"decreaseAllowance(address,uint256)": "a457c2d7",
					"delMinter(address)": "23338b88",
					"delegate(address)": "5c19a95c",
					"delegateBySig(address,uint256,uint256,uint8,bytes32,bytes32)": "c3cda520",
					"delegates(address)": "587cde1e",
					"getCurrentVotes(address)": "b4b5ea57",
					"getMinter(uint256)": "5b7121f8",
					"getMinterLength()": "0323aac7",
					"getOwner()": "893d20e8",
					"getPriorVotes(address,uint256)": "782d6fe1",
					"increaseAllowance(address,uint256)": "39509351",
					"isMinter(address)": "aa271e1a",
					"maxSupply()": "d5abeb01",
					"mint(address,uint256)": "40c10f19",
					"mint(uint256)": "a0712d68",
					"name()": "06fdde03",
					"nonces(address)": "7ecebe00",
					"numCheckpoints(address)": "6fcfff45",
					"owner()": "8da5cb5b",
					"preMineSupply()": "0c16ea83",
					"renounceOwnership()": "715018a6",
					"symbol()": "95d89b41",
					"totalSupply()": "18160ddd",
					"transfer(address,uint256)": "a9059cbb",
					"transferFrom(address,address,uint256)": "23b872dd",
					"transferOwnership(address)": "f2fde38b"
				}
			},
			"storageLayout": {
				"storage": [
					{
						"astId": 30,
						"contract": "contracts/BSWRoken.sol:BSWToken",
						"label": "_owner",
						"offset": 0,
						"slot": "0",
						"type": "t_address"
					},
					{
						"astId": 744,
						"contract": "contracts/BSWRoken.sol:BSWToken",
						"label": "_balances",
						"offset": 0,
						"slot": "1",
						"type": "t_mapping(t_address,t_uint256)"
					},
					{
						"astId": 750,
						"contract": "contracts/BSWRoken.sol:BSWToken",
						"label": "_allowances",
						"offset": 0,
						"slot": "2",
						"type": "t_mapping(t_address,t_mapping(t_address,t_uint256))"
					},
					{
						"astId": 752,
						"contract": "contracts/BSWRoken.sol:BSWToken",
						"label": "_totalSupply",
						"offset": 0,
						"slot": "3",
						"type": "t_uint256"
					},
					{
						"astId": 754,
						"contract": "contracts/BSWRoken.sol:BSWToken",
						"label": "_name",
						"offset": 0,
						"slot": "4",
						"type": "t_string_storage"
					},
					{
						"astId": 756,
						"contract": "contracts/BSWRoken.sol:BSWToken",
						"label": "_symbol",
						"offset": 0,
						"slot": "5",
						"type": "t_string_storage"
					},
					{
						"astId": 758,
						"contract": "contracts/BSWRoken.sol:BSWToken",
						"label": "_decimals",
						"offset": 0,
						"slot": "6",
						"type": "t_uint8"
					},
					{
						"astId": 1684,
						"contract": "contracts/BSWRoken.sol:BSWToken",
						"label": "_minters",
						"offset": 0,
						"slot": "7",
						"type": "t_struct(AddressSet)1471_storage"
					},
					{
						"astId": 1720,
						"contract": "contracts/BSWRoken.sol:BSWToken",
						"label": "_delegates",
						"offset": 0,
						"slot": "9",
						"type": "t_mapping(t_address,t_address)"
					},
					{
						"astId": 1732,
						"contract": "contracts/BSWRoken.sol:BSWToken",
						"label": "checkpoints",
						"offset": 0,
						"slot": "10",
						"type": "t_mapping(t_address,t_mapping(t_uint32,t_struct(Checkpoint)1725_storage))"
					},
					{
						"astId": 1737,
						"contract": "contracts/BSWRoken.sol:BSWToken",
						"label": "numCheckpoints",
						"offset": 0,
						"slot": "11",
						"type": "t_mapping(t_address,t_uint32)"
					},
					{
						"astId": 1754,
						"contract": "contracts/BSWRoken.sol:BSWToken",
						"label": "nonces",
						"offset": 0,
						"slot": "12",
						"type": "t_mapping(t_address,t_uint256)"
					}
				],
				"types": {
					"t_address": {
						"encoding": "inplace",
						"label": "address",
						"numberOfBytes": "20"
					},
					"t_array(t_bytes32)dyn_storage": {
						"base": "t_bytes32",
						"encoding": "dynamic_array",
						"label": "bytes32[]",
						"numberOfBytes": "32"
					},
					"t_bytes32": {
						"encoding": "inplace",
						"label": "bytes32",
						"numberOfBytes": "32"
					},
					"t_mapping(t_address,t_address)": {
						"encoding": "mapping",
						"key": "t_address",
						"label": "mapping(address => address)",
						"numberOfBytes": "32",
						"value": "t_address"
					},
					"t_mapping(t_address,t_mapping(t_address,t_uint256))": {
						"encoding": "mapping",
						"key": "t_address",
						"label": "mapping(address => mapping(address => uint256))",
						"numberOfBytes": "32",
						"value": "t_mapping(t_address,t_uint256)"
					},
					"t_mapping(t_address,t_mapping(t_uint32,t_struct(Checkpoint)1725_storage))": {
						"encoding": "mapping",
						"key": "t_address",
						"label": "mapping(address => mapping(uint32 => struct BSWToken.Checkpoint))",
						"numberOfBytes": "32",
						"value": "t_mapping(t_uint32,t_struct(Checkpoint)1725_storage)"
					},
					"t_mapping(t_address,t_uint256)": {
						"encoding": "mapping",
						"key": "t_address",
						"label": "mapping(address => uint256)",
						"numberOfBytes": "32",
						"value": "t_uint256"
					},
					"t_mapping(t_address,t_uint32)": {
						"encoding": "mapping",
						"key": "t_address",
						"label": "mapping(address => uint32)",
						"numberOfBytes": "32",
						"value": "t_uint32"
					},
					"t_mapping(t_bytes32,t_uint256)": {
						"encoding": "mapping",
						"key": "t_bytes32",
						"label": "mapping(bytes32 => uint256)",
						"numberOfBytes": "32",
						"value": "t_uint256"
					},
					"t_mapping(t_uint32,t_struct(Checkpoint)1725_storage)": {
						"encoding": "mapping",
						"key": "t_uint32",
						"label": "mapping(uint32 => struct BSWToken.Checkpoint)",
						"numberOfBytes": "32",
						"value": "t_struct(Checkpoint)1725_storage"
					},
					"t_string_storage": {
						"encoding": "bytes",
						"label": "string",
						"numberOfBytes": "32"
					},
					"t_struct(AddressSet)1471_storage": {
						"encoding": "inplace",
						"label": "struct EnumerableSet.AddressSet",
						"members": [
							{
								"astId": 1470,
								"contract": "contracts/BSWRoken.sol:BSWToken",
								"label": "_inner",
								"offset": 0,
								"slot": "0",
								"type": "t_struct(Set)1291_storage"
							}
						],
						"numberOfBytes": "64"
					},
					"t_struct(Checkpoint)1725_storage": {
						"encoding": "inplace",
						"label": "struct BSWToken.Checkpoint",
						"members": [
							{
								"astId": 1722,
								"contract": "contracts/BSWRoken.sol:BSWToken",
								"label": "fromBlock",
								"offset": 0,
								"slot": "0",
								"type": "t_uint32"
							},
							{
								"astId": 1724,
								"contract": "contracts/BSWRoken.sol:BSWToken",
								"label": "votes",
								"offset": 0,
								"slot": "1",
								"type": "t_uint256"
							}
						],
						"numberOfBytes": "64"
					},
					"t_struct(Set)1291_storage": {
						"encoding": "inplace",
						"label": "struct EnumerableSet.Set",
						"members": [
							{
								"astId": 1286,
								"contract": "contracts/BSWRoken.sol:BSWToken",
								"label": "_values",
								"offset": 0,
								"slot": "0",
								"type": "t_array(t_bytes32)dyn_storage"
							},
							{
								"astId": 1290,
								"contract": "contracts/BSWRoken.sol:BSWToken",
								"label": "_indexes",
								"offset": 0,
								"slot": "1",
								"type": "t_mapping(t_bytes32,t_uint256)"
							}
						],
						"numberOfBytes": "64"
					},
					"t_uint256": {
						"encoding": "inplace",
						"label": "uint256",
						"numberOfBytes": "32"
					},
					"t_uint32": {
						"encoding": "inplace",
						"label": "uint32",
						"numberOfBytes": "4"
					},
					"t_uint8": {
						"encoding": "inplace",
						"label": "uint8",
						"numberOfBytes": "1"
					}
				}
			},
			"userdoc": {
				"events": {
					"DelegateChanged(address,address,address)": {
						"notice": "An event thats emitted when an account changes its delegate"
					},
					"DelegateVotesChanged(address,uint256,uint256)": {
						"notice": "An event thats emitted when a delegate account's vote balance changes"
					}
				},
				"kind": "user",
				"methods": {
					"DELEGATION_TYPEHASH()": {
						"notice": "The EIP-712 typehash for the delegation struct used by the contract"
					},
					"DOMAIN_TYPEHASH()": {
						"notice": "The EIP-712 typehash for the contract's domain"
					},
					"checkpoints(address,uint32)": {
						"notice": "A record of votes checkpoints for each account, by index"
					},
					"delegate(address)": {
						"notice": "Delegate votes from `msg.sender` to `delegatee`"
					},
					"delegateBySig(address,uint256,uint256,uint8,bytes32,bytes32)": {
						"notice": "Delegates votes from signatory to `delegatee`"
					},
					"delegates(address)": {
						"notice": "Delegate votes from `msg.sender` to `delegatee`"
					},
					"getCurrentVotes(address)": {
						"notice": "Gets the current votes balance for `account`"
					},
					"getPriorVotes(address,uint256)": {
						"notice": "Determine the prior number of votes for an account as of a block number"
					},
					"mint(address,uint256)": {
						"notice": "Creates `_amount` token to `_to`."
					},
					"nonces(address)": {
						"notice": "A record of states for signing / validating signatures"
					},
					"numCheckpoints(address)": {
						"notice": "The number of checkpoints for each account"
					}
				},
				"version": 1
			}
		}
	}
}