{
	"contracts/Utils.sol": {
		"Utils": {
			"abi": [
				{
					"inputs": [],
					"name": "BUSD",
					"outputs": [
						{
							"internalType": "address",
							"name": "",
							"type": "address"
						}
					],
					"stateMutability": "view",
					"type": "function"
				},
				{
					"inputs": [
						{
							"internalType": "uint256",
							"name": "pid",
							"type": "uint256"
						},
						{
							"internalType": "contract LP",
							"name": "lpAddress",
							"type": "address"
						},
						{
							"internalType": "bool",
							"name": "isLp",
							"type": "bool"
						},
						{
							"internalType": "contract MetaMasterChef",
							"name": "MasterChef",
							"type": "address"
						},
						{
							"internalType": "contract Router",
							"name": "routerAddress",
							"type": "address"
						}
					],
					"name": "CalcApy",
					"outputs": [
						{
							"internalType": "uint256",
							"name": "",
							"type": "uint256"
						}
					],
					"stateMutability": "view",
					"type": "function"
				},
				{
					"inputs": [
						{
							"internalType": "contract LP",
							"name": "lpAddress",
							"type": "address"
						},
						{
							"internalType": "contract Router",
							"name": "routerAddress",
							"type": "address"
						}
					],
					"name": "CalcLpPrice",
					"outputs": [
						{
							"internalType": "uint256",
							"name": "",
							"type": "uint256"
						}
					],
					"stateMutability": "view",
					"type": "function"
				},
				{
					"inputs": [
						{
							"internalType": "contract Router",
							"name": "routerAddress",
							"type": "address"
						},
						{
							"internalType": "address",
							"name": "token",
							"type": "address"
						}
					],
					"name": "Tokenprice",
					"outputs": [
						{
							"internalType": "uint256",
							"name": "",
							"type": "uint256"
						}
					],
					"stateMutability": "view",
					"type": "function"
				},
				{
					"inputs": [],
					"name": "WBNB",
					"outputs": [
						{
							"internalType": "address",
							"name": "",
							"type": "address"
						}
					],
					"stateMutability": "view",
					"type": "function"
				},
				{
					"inputs": [
						{
							"internalType": "contract Router",
							"name": "routerAddress",
							"type": "address"
						},
						{
							"internalType": "address",
							"name": "token",
							"type": "address"
						}
					],
					"name": "WBNBPrice",
					"outputs": [
						{
							"internalType": "uint256",
							"name": "",
							"type": "uint256"
						}
					],
					"stateMutability": "view",
					"type": "function"
				},
				{
					"inputs": [
						{
							"internalType": "uint256",
							"name": "pid",
							"type": "uint256"
						},
						{
							"internalType": "contract LP",
							"name": "lpAddress",
							"type": "address"
						},
						{
							"internalType": "bool",
							"name": "isLp",
							"type": "bool"
						},
						{
							"internalType": "contract MetaMasterChef",
							"name": "MasterChef",
							"type": "address"
						},
						{
							"internalType": "contract Router",
							"name": "routerAddress",
							"type": "address"
						}
					],
					"name": "calcPoolTVLInUSD",
					"outputs": [
						{
							"internalType": "uint256",
							"name": "",
							"type": "uint256"
						}
					],
					"stateMutability": "view",
					"type": "function"
				}
			],
			"devdoc": {
				"kind": "dev",
				"methods": {},
				"version": 1
			},
			"evm": {
				"assembly": "    /* \"contracts/Utils.sol\":15071:18266  contract Utils {\r... */\n  mstore(0x40, 0x80)\n    /* \"contracts/Utils.sol\":15148:15190  0xae13d989daC2f0dEbFf460aC112a837C89BAa7cd */\n  0xae13d989dac2f0debff460ac112a837c89baa7cd\n    /* \"contracts/Utils.sol\":15126:15190  address public WBNB = 0xae13d989daC2f0dEbFf460aC112a837C89BAa7cd */\n  0x00\n  dup1\n  0x0100\n  exp\n  dup2\n  sload\n  dup2\n  0xffffffffffffffffffffffffffffffffffffffff\n  mul\n  not\n  and\n  swap1\n  dup4\n  0xffffffffffffffffffffffffffffffffffffffff\n  and\n  mul\n  or\n  swap1\n  sstore\n  pop\n    /* \"contracts/Utils.sol\":15219:15261  0x78867BbEeF44f2326bF8DDd1941a4439382EF2A7 */\n  0x78867bbeef44f2326bf8ddd1941a4439382ef2a7\n    /* \"contracts/Utils.sol\":15197:15261  address public BUSD = 0x78867BbEeF44f2326bF8DDd1941a4439382EF2A7 */\n  0x01\n  exp(0x0100, 0x00)\n  dup2\n  sload\n  dup2\n  0xffffffffffffffffffffffffffffffffffffffff\n  mul\n  not\n  and\n  swap1\n  dup4\n  0xffffffffffffffffffffffffffffffffffffffff\n  and\n  mul\n  or\n  swap1\n  sstore\n  pop\n    /* \"contracts/Utils.sol\":15285:15304  1000000000000000000 */\n  0x0de0b6b3a7640000\n    /* \"contracts/Utils.sol\":15268:15304  uint256 amount = 1000000000000000000 */\n  0x02\n  sstore\n    /* \"contracts/Utils.sol\":15339:15347  10512000 */\n  0xa06680\n    /* \"contracts/Utils.sol\":15313:15347  uint256 BLOCKS_PER_YEAR = 10512000 */\n  0x03\n  sstore\n    /* \"contracts/Utils.sol\":15071:18266  contract Utils {\r... */\n  callvalue\n  dup1\n  iszero\n  tag_1\n  jumpi\n  0x00\n  dup1\n  revert\ntag_1:\n  pop\n  dataSize(sub_0)\n  dup1\n  dataOffset(sub_0)\n  0x00\n  codecopy\n  0x00\n  return\nstop\n\nsub_0: assembly {\n        /* \"contracts/Utils.sol\":15071:18266  contract Utils {\r... */\n      mstore(0x40, 0x80)\n      callvalue\n      dup1\n      iszero\n      tag_1\n      jumpi\n      0x00\n      dup1\n      revert\n    tag_1:\n      pop\n      jumpi(tag_2, lt(calldatasize, 0x04))\n      shr(0xe0, calldataload(0x00))\n      dup1\n      0x484f4ea9\n      gt\n      tag_10\n      jumpi\n      dup1\n      0x484f4ea9\n      eq\n      tag_6\n      jumpi\n      dup1\n      0x8dd95002\n      eq\n      tag_7\n      jumpi\n      dup1\n      0xdbacc97d\n      eq\n      tag_8\n      jumpi\n      dup1\n      0xfe2d40f5\n      eq\n      tag_9\n      jumpi\n      jump(tag_2)\n    tag_10:\n      dup1\n      0x303289bb\n      eq\n      tag_3\n      jumpi\n      dup1\n      0x344e49d9\n      eq\n      tag_4\n      jumpi\n      dup1\n      0x45223a21\n      eq\n      tag_5\n      jumpi\n    tag_2:\n      0x00\n      dup1\n      revert\n        /* \"contracts/Utils.sol\":15679:15934  function WBNBPrice(Router routerAddress, address token) public view returns(uint256){\r... */\n    tag_3:\n      tag_11\n      0x04\n      dup1\n      calldatasize\n      sub\n      dup2\n      add\n      swap1\n      tag_12\n      swap2\n      swap1\n      tag_13\n      jump\t// in\n    tag_12:\n      tag_14\n      jump\t// in\n    tag_11:\n      mload(0x40)\n      tag_15\n      swap2\n      swap1\n      tag_16\n      jump\t// in\n    tag_15:\n      mload(0x40)\n      dup1\n      swap2\n      sub\n      swap1\n      return\n        /* \"contracts/Utils.sol\":15959:16885  function CalcLpPrice(LP lpAddress, Router routerAddress) public view returns(uint256){\r... */\n    tag_4:\n      tag_17\n      0x04\n      dup1\n      calldatasize\n      sub\n      dup2\n      add\n      swap1\n      tag_18\n      swap2\n      swap1\n      tag_19\n      jump\t// in\n    tag_18:\n      tag_20\n      jump\t// in\n    tag_17:\n      mload(0x40)\n      tag_21\n      swap2\n      swap1\n      tag_16\n      jump\t// in\n    tag_21:\n      mload(0x40)\n      dup1\n      swap2\n      sub\n      swap1\n      return\n        /* \"contracts/Utils.sol\":16908:17524  function calcPoolTVLInUSD(uint256 pid, LP lpAddress, bool isLp, MetaMasterChef MasterChef, Router routerAddress) public view returns(uint256){\r... */\n    tag_5:\n      tag_22\n      0x04\n      dup1\n      calldatasize\n      sub\n      dup2\n      add\n      swap1\n      tag_23\n      swap2\n      swap1\n      tag_24\n      jump\t// in\n    tag_23:\n      tag_25\n      jump\t// in\n    tag_22:\n      mload(0x40)\n      tag_26\n      swap2\n      swap1\n      tag_16\n      jump\t// in\n    tag_26:\n      mload(0x40)\n      dup1\n      swap2\n      sub\n      swap1\n      return\n        /* \"contracts/Utils.sol\":15197:15261  address public BUSD = 0x78867BbEeF44f2326bF8DDd1941a4439382EF2A7 */\n    tag_6:\n      tag_27\n      tag_28\n      jump\t// in\n    tag_27:\n      mload(0x40)\n      tag_29\n      swap2\n      swap1\n      tag_30\n      jump\t// in\n    tag_29:\n      mload(0x40)\n      dup1\n      swap2\n      sub\n      swap1\n      return\n        /* \"contracts/Utils.sol\":15126:15190  address public WBNB = 0xae13d989daC2f0dEbFf460aC112a837C89BAa7cd */\n    tag_7:\n      tag_31\n      tag_32\n      jump\t// in\n    tag_31:\n      mload(0x40)\n      tag_33\n      swap2\n      swap1\n      tag_30\n      jump\t// in\n    tag_33:\n      mload(0x40)\n      dup1\n      swap2\n      sub\n      swap1\n      return\n        /* \"contracts/Utils.sol\":15373:15654  function Tokenprice(Router routerAddress, address token) public view returns(uint256){\r... */\n    tag_8:\n      tag_34\n      0x04\n      dup1\n      calldatasize\n      sub\n      dup2\n      add\n      swap1\n      tag_35\n      swap2\n      swap1\n      tag_13\n      jump\t// in\n    tag_35:\n      tag_36\n      jump\t// in\n    tag_34:\n      mload(0x40)\n      tag_37\n      swap2\n      swap1\n      tag_16\n      jump\t// in\n    tag_37:\n      mload(0x40)\n      dup1\n      swap2\n      sub\n      swap1\n      return\n        /* \"contracts/Utils.sol\":17532:18263  function CalcApy(uint256 pid, LP lpAddress,bool isLp, MetaMasterChef MasterChef, Router routerAddress) external view returns(uint256){\r... */\n    tag_9:\n      tag_38\n      0x04\n      dup1\n      calldatasize\n      sub\n      dup2\n      add\n      swap1\n      tag_39\n      swap2\n      swap1\n      tag_24\n      jump\t// in\n    tag_39:\n      tag_40\n      jump\t// in\n    tag_38:\n      mload(0x40)\n      tag_41\n      swap2\n      swap1\n      tag_16\n      jump\t// in\n    tag_41:\n      mload(0x40)\n      dup1\n      swap2\n      sub\n      swap1\n      return\n        /* \"contracts/Utils.sol\":15679:15934  function WBNBPrice(Router routerAddress, address token) public view returns(uint256){\r... */\n    tag_14:\n        /* \"contracts/Utils.sol\":15755:15762  uint256 */\n      0x00\n        /* \"contracts/Utils.sol\":15774:15795  address[] memory path */\n      dup1\n        /* \"contracts/Utils.sol\":15812:15813  2 */\n      0x02\n        /* \"contracts/Utils.sol\":15798:15814  new address[](2) */\n      0xffffffffffffffff\n      dup2\n      gt\n      iszero\n      tag_43\n      jumpi\n      tag_44\n      tag_45\n      jump\t// in\n    tag_44:\n    tag_43:\n      mload(0x40)\n      swap1\n      dup1\n      dup3\n      mstore\n      dup1\n      0x20\n      mul\n      0x20\n      add\n      dup3\n      add\n      0x40\n      mstore\n      dup1\n      iszero\n      tag_46\n      jumpi\n      dup2\n      0x20\n      add\n      0x20\n      dup3\n      mul\n      dup1\n      calldatasize\n      dup4\n      calldatacopy\n      dup1\n      dup3\n      add\n      swap2\n      pop\n      pop\n      swap1\n      pop\n    tag_46:\n      pop\n        /* \"contracts/Utils.sol\":15774:15814  address[] memory path = new address[](2) */\n      swap1\n      pop\n        /* \"contracts/Utils.sol\":15835:15840  token */\n      dup3\n        /* \"contracts/Utils.sol\":15825:15829  path */\n      dup2\n        /* \"contracts/Utils.sol\":15830:15831  0 */\n      0x00\n        /* \"contracts/Utils.sol\":15825:15832  path[0] */\n      dup2\n      mload\n      dup2\n      lt\n      tag_47\n      jumpi\n      tag_48\n      tag_49\n      jump\t// in\n    tag_48:\n    tag_47:\n      0x20\n      mul\n      0x20\n      add\n      add\n        /* \"contracts/Utils.sol\":15825:15840  path[0] = token */\n      swap1\n      0xffffffffffffffffffffffffffffffffffffffff\n      and\n      swap1\n      dup2\n      0xffffffffffffffffffffffffffffffffffffffff\n      and\n      dup2\n      mstore\n      pop\n      pop\n        /* \"contracts/Utils.sol\":15861:15865  BUSD */\n      0x01\n      0x00\n      swap1\n      sload\n      swap1\n      0x0100\n      exp\n      swap1\n      div\n      0xffffffffffffffffffffffffffffffffffffffff\n      and\n        /* \"contracts/Utils.sol\":15851:15855  path */\n      dup2\n        /* \"contracts/Utils.sol\":15856:15857  1 */\n      0x01\n        /* \"contracts/Utils.sol\":15851:15858  path[1] */\n      dup2\n      mload\n      dup2\n      lt\n      tag_50\n      jumpi\n      tag_51\n      tag_49\n      jump\t// in\n    tag_51:\n    tag_50:\n      0x20\n      mul\n      0x20\n      add\n      add\n        /* \"contracts/Utils.sol\":15851:15865  path[1] = BUSD */\n      swap1\n      0xffffffffffffffffffffffffffffffffffffffff\n      and\n      swap1\n      dup2\n      0xffffffffffffffffffffffffffffffffffffffff\n      and\n      dup2\n      mstore\n      pop\n      pop\n        /* \"contracts/Utils.sol\":15883:15896  routerAddress */\n      dup4\n        /* \"contracts/Utils.sol\":15883:15910  routerAddress.getAmountsOut */\n      0xffffffffffffffffffffffffffffffffffffffff\n      and\n      0xd06ca61f\n        /* \"contracts/Utils.sol\":15911:15917  amount */\n      sload(0x02)\n        /* \"contracts/Utils.sol\":15918:15922  path */\n      dup4\n        /* \"contracts/Utils.sol\":15883:15923  routerAddress.getAmountsOut(amount,path) */\n      mload(0x40)\n      dup4\n      0xffffffff\n      and\n      0xe0\n      shl\n      dup2\n      mstore\n      0x04\n      add\n      tag_52\n      swap3\n      swap2\n      swap1\n      tag_53\n      jump\t// in\n    tag_52:\n      0x00\n      mload(0x40)\n      dup1\n      dup4\n      sub\n      dup2\n      dup7\n      dup1\n      extcodesize\n      iszero\n      dup1\n      iszero\n      tag_54\n      jumpi\n      0x00\n      dup1\n      revert\n    tag_54:\n      pop\n      gas\n      staticcall\n      iszero\n      dup1\n      iszero\n      tag_56\n      jumpi\n      returndatasize\n      0x00\n      dup1\n      returndatacopy\n      revert(0x00, returndatasize)\n    tag_56:\n      pop\n      pop\n      pop\n      pop\n      mload(0x40)\n      returndatasize\n      0x00\n      dup3\n      returndatacopy\n      returndatasize\n      not(0x1f)\n      0x1f\n      dup3\n      add\n      and\n      dup3\n      add\n      dup1\n      0x40\n      mstore\n      pop\n      dup2\n      add\n      swap1\n      tag_57\n      swap2\n      swap1\n      tag_58\n      jump\t// in\n    tag_57:\n        /* \"contracts/Utils.sol\":15924:15925  1 */\n      0x01\n        /* \"contracts/Utils.sol\":15883:15926  routerAddress.getAmountsOut(amount,path)[1] */\n      dup2\n      mload\n      dup2\n      lt\n      tag_59\n      jumpi\n      tag_60\n      tag_49\n      jump\t// in\n    tag_60:\n    tag_59:\n      0x20\n      mul\n      0x20\n      add\n      add\n      mload\n        /* \"contracts/Utils.sol\":15876:15926  return routerAddress.getAmountsOut(amount,path)[1] */\n      swap2\n      pop\n      pop\n        /* \"contracts/Utils.sol\":15679:15934  function WBNBPrice(Router routerAddress, address token) public view returns(uint256){\r... */\n      swap3\n      swap2\n      pop\n      pop\n      jump\t// out\n        /* \"contracts/Utils.sol\":15959:16885  function CalcLpPrice(LP lpAddress, Router routerAddress) public view returns(uint256){\r... */\n    tag_20:\n        /* \"contracts/Utils.sol\":16036:16043  uint256 */\n      0x00\n        /* \"contracts/Utils.sol\":16055:16069  uint256 phase1 */\n      dup1\n        /* \"contracts/Utils.sol\":16080:16094  uint256 phase2 */\n      0x00\n        /* \"contracts/Utils.sol\":16133:16142  lpAddress */\n      dup5\n        /* \"contracts/Utils.sol\":16133:16149  lpAddress.token0 */\n      0xffffffffffffffffffffffffffffffffffffffff\n      and\n      0x0dfe1681\n        /* \"contracts/Utils.sol\":16133:16151  lpAddress.token0() */\n      mload(0x40)\n      dup2\n      0xffffffff\n      and\n      0xe0\n      shl\n      dup2\n      mstore\n      0x04\n      add\n      0x20\n      mload(0x40)\n      dup1\n      dup4\n      sub\n      dup2\n      dup7\n      dup1\n      extcodesize\n      iszero\n      dup1\n      iszero\n      tag_62\n      jumpi\n      0x00\n      dup1\n      revert\n    tag_62:\n      pop\n      gas\n      staticcall\n      iszero\n      dup1\n      iszero\n      tag_64\n      jumpi\n      returndatasize\n      0x00\n      dup1\n      returndatacopy\n      revert(0x00, returndatasize)\n    tag_64:\n      pop\n      pop\n      pop\n      pop\n      mload(0x40)\n      returndatasize\n      not(0x1f)\n      0x1f\n      dup3\n      add\n      and\n      dup3\n      add\n      dup1\n      0x40\n      mstore\n      pop\n      dup2\n      add\n      swap1\n      tag_65\n      swap2\n      swap1\n      tag_66\n      jump\t// in\n    tag_65:\n        /* \"contracts/Utils.sol\":16108:16152  address(WBNB) != address(lpAddress.token0()) */\n      0xffffffffffffffffffffffffffffffffffffffff\n      and\n        /* \"contracts/Utils.sol\":16116:16120  WBNB */\n      0x00\n      dup1\n      sload\n      swap1\n      0x0100\n      exp\n      swap1\n      div\n      0xffffffffffffffffffffffffffffffffffffffff\n      and\n        /* \"contracts/Utils.sol\":16108:16152  address(WBNB) != address(lpAddress.token0()) */\n      0xffffffffffffffffffffffffffffffffffffffff\n      and\n      eq\n        /* \"contracts/Utils.sol\":16105:16446  if(address(WBNB) != address(lpAddress.token0())){\r... */\n      tag_67\n      jumpi\n        /* \"contracts/Utils.sol\":16178:16285  lpAddress.token0().balanceOf(address(lpAddress)).mul(Tokenprice(routerAddress,address(lpAddress.token0()))) */\n      tag_68\n        /* \"contracts/Utils.sol\":16231:16284  Tokenprice(routerAddress,address(lpAddress.token0())) */\n      tag_69\n        /* \"contracts/Utils.sol\":16242:16255  routerAddress */\n      dup6\n        /* \"contracts/Utils.sol\":16264:16273  lpAddress */\n      dup8\n        /* \"contracts/Utils.sol\":16264:16280  lpAddress.token0 */\n      0xffffffffffffffffffffffffffffffffffffffff\n      and\n      0x0dfe1681\n        /* \"contracts/Utils.sol\":16264:16282  lpAddress.token0() */\n      mload(0x40)\n      dup2\n      0xffffffff\n      and\n      0xe0\n      shl\n      dup2\n      mstore\n      0x04\n      add\n      0x20\n      mload(0x40)\n      dup1\n      dup4\n      sub\n      dup2\n      dup7\n      dup1\n      extcodesize\n      iszero\n      dup1\n      iszero\n      tag_70\n      jumpi\n      0x00\n      dup1\n      revert\n    tag_70:\n      pop\n      gas\n      staticcall\n      iszero\n      dup1\n      iszero\n      tag_72\n      jumpi\n      returndatasize\n      0x00\n      dup1\n      returndatacopy\n      revert(0x00, returndatasize)\n    tag_72:\n      pop\n      pop\n      pop\n      pop\n      mload(0x40)\n      returndatasize\n      not(0x1f)\n      0x1f\n      dup3\n      add\n      and\n      dup3\n      add\n      dup1\n      0x40\n      mstore\n      pop\n      dup2\n      add\n      swap1\n      tag_73\n      swap2\n      swap1\n      tag_66\n      jump\t// in\n    tag_73:\n        /* \"contracts/Utils.sol\":16231:16241  Tokenprice */\n      tag_36\n        /* \"contracts/Utils.sol\":16231:16284  Tokenprice(routerAddress,address(lpAddress.token0())) */\n      jump\t// in\n    tag_69:\n        /* \"contracts/Utils.sol\":16178:16187  lpAddress */\n      dup7\n        /* \"contracts/Utils.sol\":16178:16194  lpAddress.token0 */\n      0xffffffffffffffffffffffffffffffffffffffff\n      and\n      0x0dfe1681\n        /* \"contracts/Utils.sol\":16178:16196  lpAddress.token0() */\n      mload(0x40)\n      dup2\n      0xffffffff\n      and\n      0xe0\n      shl\n      dup2\n      mstore\n      0x04\n      add\n      0x20\n      mload(0x40)\n      dup1\n      dup4\n      sub\n      dup2\n      dup7\n      dup1\n      extcodesize\n      iszero\n      dup1\n      iszero\n      tag_74\n      jumpi\n      0x00\n      dup1\n      revert\n    tag_74:\n      pop\n      gas\n      staticcall\n      iszero\n      dup1\n      iszero\n      tag_76\n      jumpi\n      returndatasize\n      0x00\n      dup1\n      returndatacopy\n      revert(0x00, returndatasize)\n    tag_76:\n      pop\n      pop\n      pop\n      pop\n      mload(0x40)\n      returndatasize\n      not(0x1f)\n      0x1f\n      dup3\n      add\n      and\n      dup3\n      add\n      dup1\n      0x40\n      mstore\n      pop\n      dup2\n      add\n      swap1\n      tag_77\n      swap2\n      swap1\n      tag_66\n      jump\t// in\n    tag_77:\n        /* \"contracts/Utils.sol\":16178:16206  lpAddress.token0().balanceOf */\n      0xffffffffffffffffffffffffffffffffffffffff\n      and\n      0x70a08231\n        /* \"contracts/Utils.sol\":16215:16224  lpAddress */\n      dup9\n        /* \"contracts/Utils.sol\":16178:16226  lpAddress.token0().balanceOf(address(lpAddress)) */\n      mload(0x40)\n      dup3\n      0xffffffff\n      and\n      0xe0\n      shl\n      dup2\n      mstore\n      0x04\n      add\n      tag_78\n      swap2\n      swap1\n      tag_30\n      jump\t// in\n    tag_78:\n      0x20\n      mload(0x40)\n      dup1\n      dup4\n      sub\n      dup2\n      dup7\n      dup1\n      extcodesize\n      iszero\n      dup1\n      iszero\n      tag_79\n      jumpi\n      0x00\n      dup1\n      revert\n    tag_79:\n      pop\n      gas\n      staticcall\n      iszero\n      dup1\n      iszero\n      tag_81\n      jumpi\n      returndatasize\n      0x00\n      dup1\n      returndatacopy\n      revert(0x00, returndatasize)\n    tag_81:\n      pop\n      pop\n      pop\n      pop\n      mload(0x40)\n      returndatasize\n      not(0x1f)\n      0x1f\n      dup3\n      add\n      and\n      dup3\n      add\n      dup1\n      0x40\n      mstore\n      pop\n      dup2\n      add\n      swap1\n      tag_82\n      swap2\n      swap1\n      tag_83\n      jump\t// in\n    tag_82:\n        /* \"contracts/Utils.sol\":16178:16230  lpAddress.token0().balanceOf(address(lpAddress)).mul */\n      tag_84\n      swap1\n        /* \"contracts/Utils.sol\":16178:16285  lpAddress.token0().balanceOf(address(lpAddress)).mul(Tokenprice(routerAddress,address(lpAddress.token0()))) */\n      swap2\n      swap1\n      0xffffffff\n      and\n      jump\t// in\n    tag_68:\n        /* \"contracts/Utils.sol\":16168:16286  phase1 = (lpAddress.token0().balanceOf(address(lpAddress)).mul(Tokenprice(routerAddress,address(lpAddress.token0())))) */\n      swap2\n      pop\n        /* \"contracts/Utils.sol\":16105:16446  if(address(WBNB) != address(lpAddress.token0())){\r... */\n      jump(tag_85)\n    tag_67:\n        /* \"contracts/Utils.sol\":16327:16433  lpAddress.token0().balanceOf(address(lpAddress)).mul(WBNBPrice(routerAddress,address(lpAddress.token0()))) */\n      tag_86\n        /* \"contracts/Utils.sol\":16380:16432  WBNBPrice(routerAddress,address(lpAddress.token0())) */\n      tag_87\n        /* \"contracts/Utils.sol\":16390:16403  routerAddress */\n      dup6\n        /* \"contracts/Utils.sol\":16412:16421  lpAddress */\n      dup8\n        /* \"contracts/Utils.sol\":16412:16428  lpAddress.token0 */\n      0xffffffffffffffffffffffffffffffffffffffff\n      and\n      0x0dfe1681\n        /* \"contracts/Utils.sol\":16412:16430  lpAddress.token0() */\n      mload(0x40)\n      dup2\n      0xffffffff\n      and\n      0xe0\n      shl\n      dup2\n      mstore\n      0x04\n      add\n      0x20\n      mload(0x40)\n      dup1\n      dup4\n      sub\n      dup2\n      dup7\n      dup1\n      extcodesize\n      iszero\n      dup1\n      iszero\n      tag_88\n      jumpi\n      0x00\n      dup1\n      revert\n    tag_88:\n      pop\n      gas\n      staticcall\n      iszero\n      dup1\n      iszero\n      tag_90\n      jumpi\n      returndatasize\n      0x00\n      dup1\n      returndatacopy\n      revert(0x00, returndatasize)\n    tag_90:\n      pop\n      pop\n      pop\n      pop\n      mload(0x40)\n      returndatasize\n      not(0x1f)\n      0x1f\n      dup3\n      add\n      and\n      dup3\n      add\n      dup1\n      0x40\n      mstore\n      pop\n      dup2\n      add\n      swap1\n      tag_91\n      swap2\n      swap1\n      tag_66\n      jump\t// in\n    tag_91:\n        /* \"contracts/Utils.sol\":16380:16389  WBNBPrice */\n      tag_14\n        /* \"contracts/Utils.sol\":16380:16432  WBNBPrice(routerAddress,address(lpAddress.token0())) */\n      jump\t// in\n    tag_87:\n        /* \"contracts/Utils.sol\":16327:16336  lpAddress */\n      dup7\n        /* \"contracts/Utils.sol\":16327:16343  lpAddress.token0 */\n      0xffffffffffffffffffffffffffffffffffffffff\n      and\n      0x0dfe1681\n        /* \"contracts/Utils.sol\":16327:16345  lpAddress.token0() */\n      mload(0x40)\n      dup2\n      0xffffffff\n      and\n      0xe0\n      shl\n      dup2\n      mstore\n      0x04\n      add\n      0x20\n      mload(0x40)\n      dup1\n      dup4\n      sub\n      dup2\n      dup7\n      dup1\n      extcodesize\n      iszero\n      dup1\n      iszero\n      tag_92\n      jumpi\n      0x00\n      dup1\n      revert\n    tag_92:\n      pop\n      gas\n      staticcall\n      iszero\n      dup1\n      iszero\n      tag_94\n      jumpi\n      returndatasize\n      0x00\n      dup1\n      returndatacopy\n      revert(0x00, returndatasize)\n    tag_94:\n      pop\n      pop\n      pop\n      pop\n      mload(0x40)\n      returndatasize\n      not(0x1f)\n      0x1f\n      dup3\n      add\n      and\n      dup3\n      add\n      dup1\n      0x40\n      mstore\n      pop\n      dup2\n      add\n      swap1\n      tag_95\n      swap2\n      swap1\n      tag_66\n      jump\t// in\n    tag_95:\n        /* \"contracts/Utils.sol\":16327:16355  lpAddress.token0().balanceOf */\n      0xffffffffffffffffffffffffffffffffffffffff\n      and\n      0x70a08231\n        /* \"contracts/Utils.sol\":16364:16373  lpAddress */\n      dup9\n        /* \"contracts/Utils.sol\":16327:16375  lpAddress.token0().balanceOf(address(lpAddress)) */\n      mload(0x40)\n      dup3\n      0xffffffff\n      and\n      0xe0\n      shl\n      dup2\n      mstore\n      0x04\n      add\n      tag_96\n      swap2\n      swap1\n      tag_30\n      jump\t// in\n    tag_96:\n      0x20\n      mload(0x40)\n      dup1\n      dup4\n      sub\n      dup2\n      dup7\n      dup1\n      extcodesize\n      iszero\n      dup1\n      iszero\n      tag_97\n      jumpi\n      0x00\n      dup1\n      revert\n    tag_97:\n      pop\n      gas\n      staticcall\n      iszero\n      dup1\n      iszero\n      tag_99\n      jumpi\n      returndatasize\n      0x00\n      dup1\n      returndatacopy\n      revert(0x00, returndatasize)\n    tag_99:\n      pop\n      pop\n      pop\n      pop\n      mload(0x40)\n      returndatasize\n      not(0x1f)\n      0x1f\n      dup3\n      add\n      and\n      dup3\n      add\n      dup1\n      0x40\n      mstore\n      pop\n      dup2\n      add\n      swap1\n      tag_100\n      swap2\n      swap1\n      tag_83\n      jump\t// in\n    tag_100:\n        /* \"contracts/Utils.sol\":16327:16379  lpAddress.token0().balanceOf(address(lpAddress)).mul */\n      tag_84\n      swap1\n        /* \"contracts/Utils.sol\":16327:16433  lpAddress.token0().balanceOf(address(lpAddress)).mul(WBNBPrice(routerAddress,address(lpAddress.token0()))) */\n      swap2\n      swap1\n      0xffffffff\n      and\n      jump\t// in\n    tag_86:\n        /* \"contracts/Utils.sol\":16317:16434  phase1 = (lpAddress.token0().balanceOf(address(lpAddress)).mul(WBNBPrice(routerAddress,address(lpAddress.token0())))) */\n      swap2\n      pop\n        /* \"contracts/Utils.sol\":16105:16446  if(address(WBNB) != address(lpAddress.token0())){\r... */\n    tag_85:\n        /* \"contracts/Utils.sol\":16486:16495  lpAddress */\n      dup5\n        /* \"contracts/Utils.sol\":16486:16502  lpAddress.token1 */\n      0xffffffffffffffffffffffffffffffffffffffff\n      and\n      0xd21220a7\n        /* \"contracts/Utils.sol\":16486:16504  lpAddress.token1() */\n      mload(0x40)\n      dup2\n      0xffffffff\n      and\n      0xe0\n      shl\n      dup2\n      mstore\n      0x04\n      add\n      0x20\n      mload(0x40)\n      dup1\n      dup4\n      sub\n      dup2\n      dup7\n      dup1\n      extcodesize\n      iszero\n      dup1\n      iszero\n      tag_101\n      jumpi\n      0x00\n      dup1\n      revert\n    tag_101:\n      pop\n      gas\n      staticcall\n      iszero\n      dup1\n      iszero\n      tag_103\n      jumpi\n      returndatasize\n      0x00\n      dup1\n      returndatacopy\n      revert(0x00, returndatasize)\n    tag_103:\n      pop\n      pop\n      pop\n      pop\n      mload(0x40)\n      returndatasize\n      not(0x1f)\n      0x1f\n      dup3\n      add\n      and\n      dup3\n      add\n      dup1\n      0x40\n      mstore\n      pop\n      dup2\n      add\n      swap1\n      tag_104\n      swap2\n      swap1\n      tag_66\n      jump\t// in\n    tag_104:\n        /* \"contracts/Utils.sol\":16461:16505  address(WBNB) != address(lpAddress.token1()) */\n      0xffffffffffffffffffffffffffffffffffffffff\n      and\n        /* \"contracts/Utils.sol\":16469:16473  WBNB */\n      0x00\n      dup1\n      sload\n      swap1\n      0x0100\n      exp\n      swap1\n      div\n      0xffffffffffffffffffffffffffffffffffffffff\n      and\n        /* \"contracts/Utils.sol\":16461:16505  address(WBNB) != address(lpAddress.token1()) */\n      0xffffffffffffffffffffffffffffffffffffffff\n      and\n      eq\n        /* \"contracts/Utils.sol\":16458:16799  if(address(WBNB) != address(lpAddress.token1())){\r... */\n      tag_105\n      jumpi\n        /* \"contracts/Utils.sol\":16531:16638  lpAddress.token1().balanceOf(address(lpAddress)).mul(Tokenprice(routerAddress,address(lpAddress.token1()))) */\n      tag_106\n        /* \"contracts/Utils.sol\":16584:16637  Tokenprice(routerAddress,address(lpAddress.token1())) */\n      tag_107\n        /* \"contracts/Utils.sol\":16595:16608  routerAddress */\n      dup6\n        /* \"contracts/Utils.sol\":16617:16626  lpAddress */\n      dup8\n        /* \"contracts/Utils.sol\":16617:16633  lpAddress.token1 */\n      0xffffffffffffffffffffffffffffffffffffffff\n      and\n      0xd21220a7\n        /* \"contracts/Utils.sol\":16617:16635  lpAddress.token1() */\n      mload(0x40)\n      dup2\n      0xffffffff\n      and\n      0xe0\n      shl\n      dup2\n      mstore\n      0x04\n      add\n      0x20\n      mload(0x40)\n      dup1\n      dup4\n      sub\n      dup2\n      dup7\n      dup1\n      extcodesize\n      iszero\n      dup1\n      iszero\n      tag_108\n      jumpi\n      0x00\n      dup1\n      revert\n    tag_108:\n      pop\n      gas\n      staticcall\n      iszero\n      dup1\n      iszero\n      tag_110\n      jumpi\n      returndatasize\n      0x00\n      dup1\n      returndatacopy\n      revert(0x00, returndatasize)\n    tag_110:\n      pop\n      pop\n      pop\n      pop\n      mload(0x40)\n      returndatasize\n      not(0x1f)\n      0x1f\n      dup3\n      add\n      and\n      dup3\n      add\n      dup1\n      0x40\n      mstore\n      pop\n      dup2\n      add\n      swap1\n      tag_111\n      swap2\n      swap1\n      tag_66\n      jump\t// in\n    tag_111:\n        /* \"contracts/Utils.sol\":16584:16594  Tokenprice */\n      tag_36\n        /* \"contracts/Utils.sol\":16584:16637  Tokenprice(routerAddress,address(lpAddress.token1())) */\n      jump\t// in\n    tag_107:\n        /* \"contracts/Utils.sol\":16531:16540  lpAddress */\n      dup7\n        /* \"contracts/Utils.sol\":16531:16547  lpAddress.token1 */\n      0xffffffffffffffffffffffffffffffffffffffff\n      and\n      0xd21220a7\n        /* \"contracts/Utils.sol\":16531:16549  lpAddress.token1() */\n      mload(0x40)\n      dup2\n      0xffffffff\n      and\n      0xe0\n      shl\n      dup2\n      mstore\n      0x04\n      add\n      0x20\n      mload(0x40)\n      dup1\n      dup4\n      sub\n      dup2\n      dup7\n      dup1\n      extcodesize\n      iszero\n      dup1\n      iszero\n      tag_112\n      jumpi\n      0x00\n      dup1\n      revert\n    tag_112:\n      pop\n      gas\n      staticcall\n      iszero\n      dup1\n      iszero\n      tag_114\n      jumpi\n      returndatasize\n      0x00\n      dup1\n      returndatacopy\n      revert(0x00, returndatasize)\n    tag_114:\n      pop\n      pop\n      pop\n      pop\n      mload(0x40)\n      returndatasize\n      not(0x1f)\n      0x1f\n      dup3\n      add\n      and\n      dup3\n      add\n      dup1\n      0x40\n      mstore\n      pop\n      dup2\n      add\n      swap1\n      tag_115\n      swap2\n      swap1\n      tag_66\n      jump\t// in\n    tag_115:\n        /* \"contracts/Utils.sol\":16531:16559  lpAddress.token1().balanceOf */\n      0xffffffffffffffffffffffffffffffffffffffff\n      and\n      0x70a08231\n        /* \"contracts/Utils.sol\":16568:16577  lpAddress */\n      dup9\n        /* \"contracts/Utils.sol\":16531:16579  lpAddress.token1().balanceOf(address(lpAddress)) */\n      mload(0x40)\n      dup3\n      0xffffffff\n      and\n      0xe0\n      shl\n      dup2\n      mstore\n      0x04\n      add\n      tag_116\n      swap2\n      swap1\n      tag_30\n      jump\t// in\n    tag_116:\n      0x20\n      mload(0x40)\n      dup1\n      dup4\n      sub\n      dup2\n      dup7\n      dup1\n      extcodesize\n      iszero\n      dup1\n      iszero\n      tag_117\n      jumpi\n      0x00\n      dup1\n      revert\n    tag_117:\n      pop\n      gas\n      staticcall\n      iszero\n      dup1\n      iszero\n      tag_119\n      jumpi\n      returndatasize\n      0x00\n      dup1\n      returndatacopy\n      revert(0x00, returndatasize)\n    tag_119:\n      pop\n      pop\n      pop\n      pop\n      mload(0x40)\n      returndatasize\n      not(0x1f)\n      0x1f\n      dup3\n      add\n      and\n      dup3\n      add\n      dup1\n      0x40\n      mstore\n      pop\n      dup2\n      add\n      swap1\n      tag_120\n      swap2\n      swap1\n      tag_83\n      jump\t// in\n    tag_120:\n        /* \"contracts/Utils.sol\":16531:16583  lpAddress.token1().balanceOf(address(lpAddress)).mul */\n      tag_84\n      swap1\n        /* \"contracts/Utils.sol\":16531:16638  lpAddress.token1().balanceOf(address(lpAddress)).mul(Tokenprice(routerAddress,address(lpAddress.token1()))) */\n      swap2\n      swap1\n      0xffffffff\n      and\n      jump\t// in\n    tag_106:\n        /* \"contracts/Utils.sol\":16521:16639  phase2 = (lpAddress.token1().balanceOf(address(lpAddress)).mul(Tokenprice(routerAddress,address(lpAddress.token1())))) */\n      swap1\n      pop\n        /* \"contracts/Utils.sol\":16458:16799  if(address(WBNB) != address(lpAddress.token1())){\r... */\n      jump(tag_121)\n    tag_105:\n        /* \"contracts/Utils.sol\":16680:16786  lpAddress.token1().balanceOf(address(lpAddress)).mul(WBNBPrice(routerAddress,address(lpAddress.token1()))) */\n      tag_122\n        /* \"contracts/Utils.sol\":16733:16785  WBNBPrice(routerAddress,address(lpAddress.token1())) */\n      tag_123\n        /* \"contracts/Utils.sol\":16743:16756  routerAddress */\n      dup6\n        /* \"contracts/Utils.sol\":16765:16774  lpAddress */\n      dup8\n        /* \"contracts/Utils.sol\":16765:16781  lpAddress.token1 */\n      0xffffffffffffffffffffffffffffffffffffffff\n      and\n      0xd21220a7\n        /* \"contracts/Utils.sol\":16765:16783  lpAddress.token1() */\n      mload(0x40)\n      dup2\n      0xffffffff\n      and\n      0xe0\n      shl\n      dup2\n      mstore\n      0x04\n      add\n      0x20\n      mload(0x40)\n      dup1\n      dup4\n      sub\n      dup2\n      dup7\n      dup1\n      extcodesize\n      iszero\n      dup1\n      iszero\n      tag_124\n      jumpi\n      0x00\n      dup1\n      revert\n    tag_124:\n      pop\n      gas\n      staticcall\n      iszero\n      dup1\n      iszero\n      tag_126\n      jumpi\n      returndatasize\n      0x00\n      dup1\n      returndatacopy\n      revert(0x00, returndatasize)\n    tag_126:\n      pop\n      pop\n      pop\n      pop\n      mload(0x40)\n      returndatasize\n      not(0x1f)\n      0x1f\n      dup3\n      add\n      and\n      dup3\n      add\n      dup1\n      0x40\n      mstore\n      pop\n      dup2\n      add\n      swap1\n      tag_127\n      swap2\n      swap1\n      tag_66\n      jump\t// in\n    tag_127:\n        /* \"contracts/Utils.sol\":16733:16742  WBNBPrice */\n      tag_14\n        /* \"contracts/Utils.sol\":16733:16785  WBNBPrice(routerAddress,address(lpAddress.token1())) */\n      jump\t// in\n    tag_123:\n        /* \"contracts/Utils.sol\":16680:16689  lpAddress */\n      dup7\n        /* \"contracts/Utils.sol\":16680:16696  lpAddress.token1 */\n      0xffffffffffffffffffffffffffffffffffffffff\n      and\n      0xd21220a7\n        /* \"contracts/Utils.sol\":16680:16698  lpAddress.token1() */\n      mload(0x40)\n      dup2\n      0xffffffff\n      and\n      0xe0\n      shl\n      dup2\n      mstore\n      0x04\n      add\n      0x20\n      mload(0x40)\n      dup1\n      dup4\n      sub\n      dup2\n      dup7\n      dup1\n      extcodesize\n      iszero\n      dup1\n      iszero\n      tag_128\n      jumpi\n      0x00\n      dup1\n      revert\n    tag_128:\n      pop\n      gas\n      staticcall\n      iszero\n      dup1\n      iszero\n      tag_130\n      jumpi\n      returndatasize\n      0x00\n      dup1\n      returndatacopy\n      revert(0x00, returndatasize)\n    tag_130:\n      pop\n      pop\n      pop\n      pop\n      mload(0x40)\n      returndatasize\n      not(0x1f)\n      0x1f\n      dup3\n      add\n      and\n      dup3\n      add\n      dup1\n      0x40\n      mstore\n      pop\n      dup2\n      add\n      swap1\n      tag_131\n      swap2\n      swap1\n      tag_66\n      jump\t// in\n    tag_131:\n        /* \"contracts/Utils.sol\":16680:16708  lpAddress.token1().balanceOf */\n      0xffffffffffffffffffffffffffffffffffffffff\n      and\n      0x70a08231\n        /* \"contracts/Utils.sol\":16717:16726  lpAddress */\n      dup9\n        /* \"contracts/Utils.sol\":16680:16728  lpAddress.token1().balanceOf(address(lpAddress)) */\n      mload(0x40)\n      dup3\n      0xffffffff\n      and\n      0xe0\n      shl\n      dup2\n      mstore\n      0x04\n      add\n      tag_132\n      swap2\n      swap1\n      tag_30\n      jump\t// in\n    tag_132:\n      0x20\n      mload(0x40)\n      dup1\n      dup4\n      sub\n      dup2\n      dup7\n      dup1\n      extcodesize\n      iszero\n      dup1\n      iszero\n      tag_133\n      jumpi\n      0x00\n      dup1\n      revert\n    tag_133:\n      pop\n      gas\n      staticcall\n      iszero\n      dup1\n      iszero\n      tag_135\n      jumpi\n      returndatasize\n      0x00\n      dup1\n      returndatacopy\n      revert(0x00, returndatasize)\n    tag_135:\n      pop\n      pop\n      pop\n      pop\n      mload(0x40)\n      returndatasize\n      not(0x1f)\n      0x1f\n      dup3\n      add\n      and\n      dup3\n      add\n      dup1\n      0x40\n      mstore\n      pop\n      dup2\n      add\n      swap1\n      tag_136\n      swap2\n      swap1\n      tag_83\n      jump\t// in\n    tag_136:\n        /* \"contracts/Utils.sol\":16680:16732  lpAddress.token1().balanceOf(address(lpAddress)).mul */\n      tag_84\n      swap1\n        /* \"contracts/Utils.sol\":16680:16786  lpAddress.token1().balanceOf(address(lpAddress)).mul(WBNBPrice(routerAddress,address(lpAddress.token1()))) */\n      swap2\n      swap1\n      0xffffffff\n      and\n      jump\t// in\n    tag_122:\n        /* \"contracts/Utils.sol\":16670:16787  phase2 = (lpAddress.token1().balanceOf(address(lpAddress)).mul(WBNBPrice(routerAddress,address(lpAddress.token1())))) */\n      swap1\n      pop\n        /* \"contracts/Utils.sol\":16458:16799  if(address(WBNB) != address(lpAddress.token1())){\r... */\n    tag_121:\n        /* \"contracts/Utils.sol\":16827:16876  (phase1.add(phase2)).div(lpAddress.totalSupply()) */\n      tag_137\n        /* \"contracts/Utils.sol\":16852:16861  lpAddress */\n      dup6\n        /* \"contracts/Utils.sol\":16852:16873  lpAddress.totalSupply */\n      0xffffffffffffffffffffffffffffffffffffffff\n      and\n      0x18160ddd\n        /* \"contracts/Utils.sol\":16852:16875  lpAddress.totalSupply() */\n      mload(0x40)\n      dup2\n      0xffffffff\n      and\n      0xe0\n      shl\n      dup2\n      mstore\n      0x04\n      add\n      0x20\n      mload(0x40)\n      dup1\n      dup4\n      sub\n      dup2\n      dup7\n      dup1\n      extcodesize\n      iszero\n      dup1\n      iszero\n      tag_138\n      jumpi\n      0x00\n      dup1\n      revert\n    tag_138:\n      pop\n      gas\n      staticcall\n      iszero\n      dup1\n      iszero\n      tag_140\n      jumpi\n      returndatasize\n      0x00\n      dup1\n      returndatacopy\n      revert(0x00, returndatasize)\n    tag_140:\n      pop\n      pop\n      pop\n      pop\n      mload(0x40)\n      returndatasize\n      not(0x1f)\n      0x1f\n      dup3\n      add\n      and\n      dup3\n      add\n      dup1\n      0x40\n      mstore\n      pop\n      dup2\n      add\n      swap1\n      tag_141\n      swap2\n      swap1\n      tag_83\n      jump\t// in\n    tag_141:\n        /* \"contracts/Utils.sol\":16828:16846  phase1.add(phase2) */\n      tag_142\n        /* \"contracts/Utils.sol\":16839:16845  phase2 */\n      dup4\n        /* \"contracts/Utils.sol\":16828:16834  phase1 */\n      dup6\n        /* \"contracts/Utils.sol\":16828:16838  phase1.add */\n      tag_143\n      swap1\n        /* \"contracts/Utils.sol\":16828:16846  phase1.add(phase2) */\n      swap2\n      swap1\n      0xffffffff\n      and\n      jump\t// in\n    tag_142:\n        /* \"contracts/Utils.sol\":16827:16851  (phase1.add(phase2)).div */\n      tag_144\n      swap1\n        /* \"contracts/Utils.sol\":16827:16876  (phase1.add(phase2)).div(lpAddress.totalSupply()) */\n      swap2\n      swap1\n      0xffffffff\n      and\n      jump\t// in\n    tag_137:\n        /* \"contracts/Utils.sol\":16819:16877  return ((phase1.add(phase2)).div(lpAddress.totalSupply())) */\n      swap3\n      pop\n      pop\n      pop\n        /* \"contracts/Utils.sol\":15959:16885  function CalcLpPrice(LP lpAddress, Router routerAddress) public view returns(uint256){\r... */\n      swap3\n      swap2\n      pop\n      pop\n      jump\t// out\n        /* \"contracts/Utils.sol\":16908:17524  function calcPoolTVLInUSD(uint256 pid, LP lpAddress, bool isLp, MetaMasterChef MasterChef, Router routerAddress) public view returns(uint256){\r... */\n    tag_25:\n        /* \"contracts/Utils.sol\":17041:17048  uint256 */\n      0x00\n        /* \"contracts/Utils.sol\":17060:17075  uint256 Balance */\n      dup1\n        /* \"contracts/Utils.sol\":17078:17088  MasterChef */\n      dup4\n        /* \"contracts/Utils.sol\":17078:17100  MasterChef.poolBalance */\n      0xffffffffffffffffffffffffffffffffffffffff\n      and\n      0x6a6d964e\n        /* \"contracts/Utils.sol\":17101:17104  pid */\n      dup9\n        /* \"contracts/Utils.sol\":17078:17105  MasterChef.poolBalance(pid) */\n      mload(0x40)\n      dup3\n      0xffffffff\n      and\n      0xe0\n      shl\n      dup2\n      mstore\n      0x04\n      add\n      tag_146\n      swap2\n      swap1\n      tag_16\n      jump\t// in\n    tag_146:\n      0x20\n      mload(0x40)\n      dup1\n      dup4\n      sub\n      dup2\n      dup7\n      dup1\n      extcodesize\n      iszero\n      dup1\n      iszero\n      tag_147\n      jumpi\n      0x00\n      dup1\n      revert\n    tag_147:\n      pop\n      gas\n      staticcall\n      iszero\n      dup1\n      iszero\n      tag_149\n      jumpi\n      returndatasize\n      0x00\n      dup1\n      returndatacopy\n      revert(0x00, returndatasize)\n    tag_149:\n      pop\n      pop\n      pop\n      pop\n      mload(0x40)\n      returndatasize\n      not(0x1f)\n      0x1f\n      dup3\n      add\n      and\n      dup3\n      add\n      dup1\n      0x40\n      mstore\n      pop\n      dup2\n      add\n      swap1\n      tag_150\n      swap2\n      swap1\n      tag_83\n      jump\t// in\n    tag_150:\n        /* \"contracts/Utils.sol\":17060:17105  uint256 Balance = MasterChef.poolBalance(pid) */\n      swap1\n      pop\n        /* \"contracts/Utils.sol\":17116:17129  uint256 price */\n      0x00\n        /* \"contracts/Utils.sol\":17143:17147  isLp */\n      dup6\n        /* \"contracts/Utils.sol\":17140:17468  if(isLp){\r... */\n      iszero\n      tag_151\n      jumpi\n        /* \"contracts/Utils.sol\":17171:17208  CalcLpPrice(lpAddress, routerAddress) */\n      tag_152\n        /* \"contracts/Utils.sol\":17183:17192  lpAddress */\n      dup8\n        /* \"contracts/Utils.sol\":17194:17207  routerAddress */\n      dup6\n        /* \"contracts/Utils.sol\":17171:17182  CalcLpPrice */\n      tag_20\n        /* \"contracts/Utils.sol\":17171:17208  CalcLpPrice(lpAddress, routerAddress) */\n      jump\t// in\n    tag_152:\n        /* \"contracts/Utils.sol\":17163:17208  price = CalcLpPrice(lpAddress, routerAddress) */\n      swap1\n      pop\n        /* \"contracts/Utils.sol\":17140:17468  if(isLp){\r... */\n      jump(tag_153)\n    tag_151:\n        /* \"contracts/Utils.sol\":17267:17276  lpAddress */\n      dup7\n        /* \"contracts/Utils.sol\":17242:17277  address(WBNB) != address(lpAddress) */\n      0xffffffffffffffffffffffffffffffffffffffff\n      and\n        /* \"contracts/Utils.sol\":17250:17254  WBNB */\n      0x00\n      dup1\n      sload\n      swap1\n      0x0100\n      exp\n      swap1\n      div\n      0xffffffffffffffffffffffffffffffffffffffff\n      and\n        /* \"contracts/Utils.sol\":17242:17277  address(WBNB) != address(lpAddress) */\n      0xffffffffffffffffffffffffffffffffffffffff\n      and\n      eq\n        /* \"contracts/Utils.sol\":17239:17457  if(address(WBNB) != address(lpAddress)){\r... */\n      tag_154\n      jumpi\n        /* \"contracts/Utils.sol\":17305:17350  Tokenprice(routerAddress, address(lpAddress)) */\n      tag_155\n        /* \"contracts/Utils.sol\":17316:17329  routerAddress */\n      dup5\n        /* \"contracts/Utils.sol\":17339:17348  lpAddress */\n      dup9\n        /* \"contracts/Utils.sol\":17305:17315  Tokenprice */\n      tag_36\n        /* \"contracts/Utils.sol\":17305:17350  Tokenprice(routerAddress, address(lpAddress)) */\n      jump\t// in\n    tag_155:\n        /* \"contracts/Utils.sol\":17297:17350  price = Tokenprice(routerAddress, address(lpAddress)) */\n      swap1\n      pop\n        /* \"contracts/Utils.sol\":17239:17457  if(address(WBNB) != address(lpAddress)){\r... */\n      jump(tag_156)\n    tag_154:\n        /* \"contracts/Utils.sol\":17397:17441  WBNBPrice(routerAddress, address(lpAddress)) */\n      tag_157\n        /* \"contracts/Utils.sol\":17407:17420  routerAddress */\n      dup5\n        /* \"contracts/Utils.sol\":17430:17439  lpAddress */\n      dup9\n        /* \"contracts/Utils.sol\":17397:17406  WBNBPrice */\n      tag_14\n        /* \"contracts/Utils.sol\":17397:17441  WBNBPrice(routerAddress, address(lpAddress)) */\n      jump\t// in\n    tag_157:\n        /* \"contracts/Utils.sol\":17389:17441  price = WBNBPrice(routerAddress, address(lpAddress)) */\n      swap1\n      pop\n        /* \"contracts/Utils.sol\":17239:17457  if(address(WBNB) != address(lpAddress)){\r... */\n    tag_156:\n        /* \"contracts/Utils.sol\":17140:17468  if(isLp){\r... */\n    tag_153:\n        /* \"contracts/Utils.sol\":17487:17516  (Balance * price).div(amount) */\n      tag_158\n        /* \"contracts/Utils.sol\":17509:17515  amount */\n      sload(0x02)\n        /* \"contracts/Utils.sol\":17498:17503  price */\n      dup3\n        /* \"contracts/Utils.sol\":17488:17495  Balance */\n      dup5\n        /* \"contracts/Utils.sol\":17488:17503  Balance * price */\n      tag_159\n      swap2\n      swap1\n      tag_160\n      jump\t// in\n    tag_159:\n        /* \"contracts/Utils.sol\":17487:17508  (Balance * price).div */\n      tag_144\n      swap1\n        /* \"contracts/Utils.sol\":17487:17516  (Balance * price).div(amount) */\n      swap2\n      swap1\n      0xffffffff\n      and\n      jump\t// in\n    tag_158:\n        /* \"contracts/Utils.sol\":17480:17516  return (Balance * price).div(amount) */\n      swap3\n      pop\n      pop\n      pop\n        /* \"contracts/Utils.sol\":16908:17524  function calcPoolTVLInUSD(uint256 pid, LP lpAddress, bool isLp, MetaMasterChef MasterChef, Router routerAddress) public view returns(uint256){\r... */\n      swap6\n      swap5\n      pop\n      pop\n      pop\n      pop\n      pop\n      jump\t// out\n        /* \"contracts/Utils.sol\":15197:15261  address public BUSD = 0x78867BbEeF44f2326bF8DDd1941a4439382EF2A7 */\n    tag_28:\n      0x01\n      0x00\n      swap1\n      sload\n      swap1\n      0x0100\n      exp\n      swap1\n      div\n      0xffffffffffffffffffffffffffffffffffffffff\n      and\n      dup2\n      jump\t// out\n        /* \"contracts/Utils.sol\":15126:15190  address public WBNB = 0xae13d989daC2f0dEbFf460aC112a837C89BAa7cd */\n    tag_32:\n      0x00\n      dup1\n      sload\n      swap1\n      0x0100\n      exp\n      swap1\n      div\n      0xffffffffffffffffffffffffffffffffffffffff\n      and\n      dup2\n      jump\t// out\n        /* \"contracts/Utils.sol\":15373:15654  function Tokenprice(Router routerAddress, address token) public view returns(uint256){\r... */\n    tag_36:\n        /* \"contracts/Utils.sol\":15450:15457  uint256 */\n      0x00\n        /* \"contracts/Utils.sol\":15469:15490  address[] memory path */\n      dup1\n        /* \"contracts/Utils.sol\":15507:15508  3 */\n      0x03\n        /* \"contracts/Utils.sol\":15493:15509  new address[](3) */\n      0xffffffffffffffff\n      dup2\n      gt\n      iszero\n      tag_162\n      jumpi\n      tag_163\n      tag_45\n      jump\t// in\n    tag_163:\n    tag_162:\n      mload(0x40)\n      swap1\n      dup1\n      dup3\n      mstore\n      dup1\n      0x20\n      mul\n      0x20\n      add\n      dup3\n      add\n      0x40\n      mstore\n      dup1\n      iszero\n      tag_164\n      jumpi\n      dup2\n      0x20\n      add\n      0x20\n      dup3\n      mul\n      dup1\n      calldatasize\n      dup4\n      calldatacopy\n      dup1\n      dup3\n      add\n      swap2\n      pop\n      pop\n      swap1\n      pop\n    tag_164:\n      pop\n        /* \"contracts/Utils.sol\":15469:15509  address[] memory path = new address[](3) */\n      swap1\n      pop\n        /* \"contracts/Utils.sol\":15530:15535  token */\n      dup3\n        /* \"contracts/Utils.sol\":15520:15524  path */\n      dup2\n        /* \"contracts/Utils.sol\":15525:15526  0 */\n      0x00\n        /* \"contracts/Utils.sol\":15520:15527  path[0] */\n      dup2\n      mload\n      dup2\n      lt\n      tag_165\n      jumpi\n      tag_166\n      tag_49\n      jump\t// in\n    tag_166:\n    tag_165:\n      0x20\n      mul\n      0x20\n      add\n      add\n        /* \"contracts/Utils.sol\":15520:15535  path[0] = token */\n      swap1\n      0xffffffffffffffffffffffffffffffffffffffff\n      and\n      swap1\n      dup2\n      0xffffffffffffffffffffffffffffffffffffffff\n      and\n      dup2\n      mstore\n      pop\n      pop\n        /* \"contracts/Utils.sol\":15556:15560  WBNB */\n      0x00\n      dup1\n      sload\n      swap1\n      0x0100\n      exp\n      swap1\n      div\n      0xffffffffffffffffffffffffffffffffffffffff\n      and\n        /* \"contracts/Utils.sol\":15546:15550  path */\n      dup2\n        /* \"contracts/Utils.sol\":15551:15552  1 */\n      0x01\n        /* \"contracts/Utils.sol\":15546:15553  path[1] */\n      dup2\n      mload\n      dup2\n      lt\n      tag_167\n      jumpi\n      tag_168\n      tag_49\n      jump\t// in\n    tag_168:\n    tag_167:\n      0x20\n      mul\n      0x20\n      add\n      add\n        /* \"contracts/Utils.sol\":15546:15560  path[1] = WBNB */\n      swap1\n      0xffffffffffffffffffffffffffffffffffffffff\n      and\n      swap1\n      dup2\n      0xffffffffffffffffffffffffffffffffffffffff\n      and\n      dup2\n      mstore\n      pop\n      pop\n        /* \"contracts/Utils.sol\":15581:15585  BUSD */\n      0x01\n      0x00\n      swap1\n      sload\n      swap1\n      0x0100\n      exp\n      swap1\n      div\n      0xffffffffffffffffffffffffffffffffffffffff\n      and\n        /* \"contracts/Utils.sol\":15571:15575  path */\n      dup2\n        /* \"contracts/Utils.sol\":15576:15577  2 */\n      0x02\n        /* \"contracts/Utils.sol\":15571:15578  path[2] */\n      dup2\n      mload\n      dup2\n      lt\n      tag_169\n      jumpi\n      tag_170\n      tag_49\n      jump\t// in\n    tag_170:\n    tag_169:\n      0x20\n      mul\n      0x20\n      add\n      add\n        /* \"contracts/Utils.sol\":15571:15585  path[2] = BUSD */\n      swap1\n      0xffffffffffffffffffffffffffffffffffffffff\n      and\n      swap1\n      dup2\n      0xffffffffffffffffffffffffffffffffffffffff\n      and\n      dup2\n      mstore\n      pop\n      pop\n        /* \"contracts/Utils.sol\":15603:15616  routerAddress */\n      dup4\n        /* \"contracts/Utils.sol\":15603:15630  routerAddress.getAmountsOut */\n      0xffffffffffffffffffffffffffffffffffffffff\n      and\n      0xd06ca61f\n        /* \"contracts/Utils.sol\":15631:15637  amount */\n      sload(0x02)\n        /* \"contracts/Utils.sol\":15638:15642  path */\n      dup4\n        /* \"contracts/Utils.sol\":15603:15643  routerAddress.getAmountsOut(amount,path) */\n      mload(0x40)\n      dup4\n      0xffffffff\n      and\n      0xe0\n      shl\n      dup2\n      mstore\n      0x04\n      add\n      tag_171\n      swap3\n      swap2\n      swap1\n      tag_53\n      jump\t// in\n    tag_171:\n      0x00\n      mload(0x40)\n      dup1\n      dup4\n      sub\n      dup2\n      dup7\n      dup1\n      extcodesize\n      iszero\n      dup1\n      iszero\n      tag_172\n      jumpi\n      0x00\n      dup1\n      revert\n    tag_172:\n      pop\n      gas\n      staticcall\n      iszero\n      dup1\n      iszero\n      tag_174\n      jumpi\n      returndatasize\n      0x00\n      dup1\n      returndatacopy\n      revert(0x00, returndatasize)\n    tag_174:\n      pop\n      pop\n      pop\n      pop\n      mload(0x40)\n      returndatasize\n      0x00\n      dup3\n      returndatacopy\n      returndatasize\n      not(0x1f)\n      0x1f\n      dup3\n      add\n      and\n      dup3\n      add\n      dup1\n      0x40\n      mstore\n      pop\n      dup2\n      add\n      swap1\n      tag_175\n      swap2\n      swap1\n      tag_58\n      jump\t// in\n    tag_175:\n        /* \"contracts/Utils.sol\":15644:15645  2 */\n      0x02\n        /* \"contracts/Utils.sol\":15603:15646  routerAddress.getAmountsOut(amount,path)[2] */\n      dup2\n      mload\n      dup2\n      lt\n      tag_176\n      jumpi\n      tag_177\n      tag_49\n      jump\t// in\n    tag_177:\n    tag_176:\n      0x20\n      mul\n      0x20\n      add\n      add\n      mload\n        /* \"contracts/Utils.sol\":15596:15646  return routerAddress.getAmountsOut(amount,path)[2] */\n      swap2\n      pop\n      pop\n        /* \"contracts/Utils.sol\":15373:15654  function Tokenprice(Router routerAddress, address token) public view returns(uint256){\r... */\n      swap3\n      swap2\n      pop\n      pop\n      jump\t// out\n        /* \"contracts/Utils.sol\":17532:18263  function CalcApy(uint256 pid, LP lpAddress,bool isLp, MetaMasterChef MasterChef, Router routerAddress) external view returns(uint256){\r... */\n    tag_40:\n        /* \"contracts/Utils.sol\":17657:17664  uint256 */\n      0x00\n        /* \"contracts/Utils.sol\":17676:17696  PoolInfo memory pool */\n      dup1\n        /* \"contracts/Utils.sol\":17699:17709  MasterChef */\n      dup4\n        /* \"contracts/Utils.sol\":17699:17718  MasterChef.poolInfo */\n      0xffffffffffffffffffffffffffffffffffffffff\n      and\n      0x1526fe27\n        /* \"contracts/Utils.sol\":17719:17722  pid */\n      dup9\n        /* \"contracts/Utils.sol\":17699:17723  MasterChef.poolInfo(pid) */\n      mload(0x40)\n      dup3\n      0xffffffff\n      and\n      0xe0\n      shl\n      dup2\n      mstore\n      0x04\n      add\n      tag_179\n      swap2\n      swap1\n      tag_16\n      jump\t// in\n    tag_179:\n      0xc0\n      mload(0x40)\n      dup1\n      dup4\n      sub\n      dup2\n      dup7\n      dup1\n      extcodesize\n      iszero\n      dup1\n      iszero\n      tag_180\n      jumpi\n      0x00\n      dup1\n      revert\n    tag_180:\n      pop\n      gas\n      staticcall\n      iszero\n      dup1\n      iszero\n      tag_182\n      jumpi\n      returndatasize\n      0x00\n      dup1\n      returndatacopy\n      revert(0x00, returndatasize)\n    tag_182:\n      pop\n      pop\n      pop\n      pop\n      mload(0x40)\n      returndatasize\n      not(0x1f)\n      0x1f\n      dup3\n      add\n      and\n      dup3\n      add\n      dup1\n      0x40\n      mstore\n      pop\n      dup2\n      add\n      swap1\n      tag_183\n      swap2\n      swap1\n      tag_184\n      jump\t// in\n    tag_183:\n        /* \"contracts/Utils.sol\":17676:17723  PoolInfo memory pool = MasterChef.poolInfo(pid) */\n      swap1\n      pop\n        /* \"contracts/Utils.sol\":17734:17752  uint256 poolWeight */\n      0x00\n        /* \"contracts/Utils.sol\":17755:17804  pool.allocPoint.mul(MasterChef.totalAllocPoint()) */\n      tag_185\n        /* \"contracts/Utils.sol\":17775:17785  MasterChef */\n      dup6\n        /* \"contracts/Utils.sol\":17775:17801  MasterChef.totalAllocPoint */\n      0xffffffffffffffffffffffffffffffffffffffff\n      and\n      0x17caf6f1\n        /* \"contracts/Utils.sol\":17775:17803  MasterChef.totalAllocPoint() */\n      mload(0x40)\n      dup2\n      0xffffffff\n      and\n      0xe0\n      shl\n      dup2\n      mstore\n      0x04\n      add\n      0x20\n      mload(0x40)\n      dup1\n      dup4\n      sub\n      dup2\n      dup7\n      dup1\n      extcodesize\n      iszero\n      dup1\n      iszero\n      tag_186\n      jumpi\n      0x00\n      dup1\n      revert\n    tag_186:\n      pop\n      gas\n      staticcall\n      iszero\n      dup1\n      iszero\n      tag_188\n      jumpi\n      returndatasize\n      0x00\n      dup1\n      returndatacopy\n      revert(0x00, returndatasize)\n    tag_188:\n      pop\n      pop\n      pop\n      pop\n      mload(0x40)\n      returndatasize\n      not(0x1f)\n      0x1f\n      dup3\n      add\n      and\n      dup3\n      add\n      dup1\n      0x40\n      mstore\n      pop\n      dup2\n      add\n      swap1\n      tag_189\n      swap2\n      swap1\n      tag_83\n      jump\t// in\n    tag_189:\n        /* \"contracts/Utils.sol\":17755:17759  pool */\n      dup4\n        /* \"contracts/Utils.sol\":17755:17770  pool.allocPoint */\n      0x20\n      add\n      mload\n        /* \"contracts/Utils.sol\":17755:17774  pool.allocPoint.mul */\n      tag_84\n      swap1\n        /* \"contracts/Utils.sol\":17755:17804  pool.allocPoint.mul(MasterChef.totalAllocPoint()) */\n      swap2\n      swap1\n      0xffffffff\n      and\n      jump\t// in\n    tag_185:\n        /* \"contracts/Utils.sol\":17734:17804  uint256 poolWeight = pool.allocPoint.mul(MasterChef.totalAllocPoint()) */\n      swap1\n      pop\n        /* \"contracts/Utils.sol\":17815:17839  uint256 rewardTokenPrice */\n      0x00\n        /* \"contracts/Utils.sol\":17842:17885  Tokenprice(routerAddress, MasterChef.DRG()) */\n      tag_190\n        /* \"contracts/Utils.sol\":17853:17866  routerAddress */\n      dup6\n        /* \"contracts/Utils.sol\":17868:17878  MasterChef */\n      dup8\n        /* \"contracts/Utils.sol\":17868:17882  MasterChef.DRG */\n      0xffffffffffffffffffffffffffffffffffffffff\n      and\n      0x141aa0ba\n        /* \"contracts/Utils.sol\":17868:17884  MasterChef.DRG() */\n      mload(0x40)\n      dup2\n      0xffffffff\n      and\n      0xe0\n      shl\n      dup2\n      mstore\n      0x04\n      add\n      0x20\n      mload(0x40)\n      dup1\n      dup4\n      sub\n      dup2\n      dup7\n      dup1\n      extcodesize\n      iszero\n      dup1\n      iszero\n      tag_191\n      jumpi\n      0x00\n      dup1\n      revert\n    tag_191:\n      pop\n      gas\n      staticcall\n      iszero\n      dup1\n      iszero\n      tag_193\n      jumpi\n      returndatasize\n      0x00\n      dup1\n      returndatacopy\n      revert(0x00, returndatasize)\n    tag_193:\n      pop\n      pop\n      pop\n      pop\n      mload(0x40)\n      returndatasize\n      not(0x1f)\n      0x1f\n      dup3\n      add\n      and\n      dup3\n      add\n      dup1\n      0x40\n      mstore\n      pop\n      dup2\n      add\n      swap1\n      tag_194\n      swap2\n      swap1\n      tag_195\n      jump\t// in\n    tag_194:\n        /* \"contracts/Utils.sol\":17842:17852  Tokenprice */\n      tag_36\n        /* \"contracts/Utils.sol\":17842:17885  Tokenprice(routerAddress, MasterChef.DRG()) */\n      jump\t// in\n    tag_190:\n        /* \"contracts/Utils.sol\":17815:17885  uint256 rewardTokenPrice = Tokenprice(routerAddress, MasterChef.DRG()) */\n      swap1\n      pop\n        /* \"contracts/Utils.sol\":17896:17916  uint256 DRG_PER_YEAR */\n      0x00\n        /* \"contracts/Utils.sol\":17919:17976  BLOCKS_PER_YEAR.mul(MasterChef.DRGPerBlock().div(amount)) */\n      tag_196\n        /* \"contracts/Utils.sol\":17939:17975  MasterChef.DRGPerBlock().div(amount) */\n      tag_197\n        /* \"contracts/Utils.sol\":17968:17974  amount */\n      sload(0x02)\n        /* \"contracts/Utils.sol\":17939:17949  MasterChef */\n      dup10\n        /* \"contracts/Utils.sol\":17939:17961  MasterChef.DRGPerBlock */\n      0xffffffffffffffffffffffffffffffffffffffff\n      and\n      0xa1eef821\n        /* \"contracts/Utils.sol\":17939:17963  MasterChef.DRGPerBlock() */\n      mload(0x40)\n      dup2\n      0xffffffff\n      and\n      0xe0\n      shl\n      dup2\n      mstore\n      0x04\n      add\n      0x20\n      mload(0x40)\n      dup1\n      dup4\n      sub\n      dup2\n      dup7\n      dup1\n      extcodesize\n      iszero\n      dup1\n      iszero\n      tag_198\n      jumpi\n      0x00\n      dup1\n      revert\n    tag_198:\n      pop\n      gas\n      staticcall\n      iszero\n      dup1\n      iszero\n      tag_200\n      jumpi\n      returndatasize\n      0x00\n      dup1\n      returndatacopy\n      revert(0x00, returndatasize)\n    tag_200:\n      pop\n      pop\n      pop\n      pop\n      mload(0x40)\n      returndatasize\n      not(0x1f)\n      0x1f\n      dup3\n      add\n      and\n      dup3\n      add\n      dup1\n      0x40\n      mstore\n      pop\n      dup2\n      add\n      swap1\n      tag_201\n      swap2\n      swap1\n      tag_83\n      jump\t// in\n    tag_201:\n        /* \"contracts/Utils.sol\":17939:17967  MasterChef.DRGPerBlock().div */\n      tag_144\n      swap1\n        /* \"contracts/Utils.sol\":17939:17975  MasterChef.DRGPerBlock().div(amount) */\n      swap2\n      swap1\n      0xffffffff\n      and\n      jump\t// in\n    tag_197:\n        /* \"contracts/Utils.sol\":17919:17934  BLOCKS_PER_YEAR */\n      sload(0x03)\n        /* \"contracts/Utils.sol\":17919:17938  BLOCKS_PER_YEAR.mul */\n      tag_84\n      swap1\n        /* \"contracts/Utils.sol\":17919:17976  BLOCKS_PER_YEAR.mul(MasterChef.DRGPerBlock().div(amount)) */\n      swap2\n      swap1\n      0xffffffff\n      and\n      jump\t// in\n    tag_196:\n        /* \"contracts/Utils.sol\":17896:17976  uint256 DRG_PER_YEAR = BLOCKS_PER_YEAR.mul(MasterChef.DRGPerBlock().div(amount)) */\n      swap1\n      pop\n        /* \"contracts/Utils.sol\":17987:18020  uint256 yearlyDRGRewardAllocation */\n      0x00\n        /* \"contracts/Utils.sol\":18023:18051  DRG_PER_YEAR.mul(poolWeight) */\n      tag_202\n        /* \"contracts/Utils.sol\":18040:18050  poolWeight */\n      dup5\n        /* \"contracts/Utils.sol\":18023:18035  DRG_PER_YEAR */\n      dup4\n        /* \"contracts/Utils.sol\":18023:18039  DRG_PER_YEAR.mul */\n      tag_84\n      swap1\n        /* \"contracts/Utils.sol\":18023:18051  DRG_PER_YEAR.mul(poolWeight) */\n      swap2\n      swap1\n      0xffffffff\n      and\n      jump\t// in\n    tag_202:\n        /* \"contracts/Utils.sol\":17987:18051  uint256 yearlyDRGRewardAllocation = DRG_PER_YEAR.mul(poolWeight) */\n      swap1\n      pop\n        /* \"contracts/Utils.sol\":18062:18086  uint256 poolLiquidityUsd */\n      0x00\n        /* \"contracts/Utils.sol\":18089:18154  calcPoolTVLInUSD(pid, lpAddress, isLp, MasterChef, routerAddress) */\n      tag_203\n        /* \"contracts/Utils.sol\":18106:18109  pid */\n      dup13\n        /* \"contracts/Utils.sol\":18111:18120  lpAddress */\n      dup13\n        /* \"contracts/Utils.sol\":18122:18126  isLp */\n      dup13\n        /* \"contracts/Utils.sol\":18128:18138  MasterChef */\n      dup13\n        /* \"contracts/Utils.sol\":18140:18153  routerAddress */\n      dup13\n        /* \"contracts/Utils.sol\":18089:18105  calcPoolTVLInUSD */\n      tag_25\n        /* \"contracts/Utils.sol\":18089:18154  calcPoolTVLInUSD(pid, lpAddress, isLp, MasterChef, routerAddress) */\n      jump\t// in\n    tag_203:\n        /* \"contracts/Utils.sol\":18062:18154  uint256 poolLiquidityUsd = calcPoolTVLInUSD(pid, lpAddress, isLp, MasterChef, routerAddress) */\n      swap1\n      pop\n        /* \"contracts/Utils.sol\":18173:18255  ((yearlyDRGRewardAllocation.mul(rewardTokenPrice)).div(poolLiquidityUsd)).mul(100) */\n      tag_204\n        /* \"contracts/Utils.sol\":18251:18254  100 */\n      0x64\n        /* \"contracts/Utils.sol\":18174:18245  (yearlyDRGRewardAllocation.mul(rewardTokenPrice)).div(poolLiquidityUsd) */\n      tag_205\n        /* \"contracts/Utils.sol\":18228:18244  poolLiquidityUsd */\n      dup4\n        /* \"contracts/Utils.sol\":18175:18222  yearlyDRGRewardAllocation.mul(rewardTokenPrice) */\n      tag_206\n        /* \"contracts/Utils.sol\":18205:18221  rewardTokenPrice */\n      dup9\n        /* \"contracts/Utils.sol\":18175:18200  yearlyDRGRewardAllocation */\n      dup8\n        /* \"contracts/Utils.sol\":18175:18204  yearlyDRGRewardAllocation.mul */\n      tag_84\n      swap1\n        /* \"contracts/Utils.sol\":18175:18222  yearlyDRGRewardAllocation.mul(rewardTokenPrice) */\n      swap2\n      swap1\n      0xffffffff\n      and\n      jump\t// in\n    tag_206:\n        /* \"contracts/Utils.sol\":18174:18227  (yearlyDRGRewardAllocation.mul(rewardTokenPrice)).div */\n      tag_144\n      swap1\n        /* \"contracts/Utils.sol\":18174:18245  (yearlyDRGRewardAllocation.mul(rewardTokenPrice)).div(poolLiquidityUsd) */\n      swap2\n      swap1\n      0xffffffff\n      and\n      jump\t// in\n    tag_205:\n        /* \"contracts/Utils.sol\":18173:18250  ((yearlyDRGRewardAllocation.mul(rewardTokenPrice)).div(poolLiquidityUsd)).mul */\n      tag_84\n      swap1\n        /* \"contracts/Utils.sol\":18173:18255  ((yearlyDRGRewardAllocation.mul(rewardTokenPrice)).div(poolLiquidityUsd)).mul(100) */\n      swap2\n      swap1\n      0xffffffff\n      and\n      jump\t// in\n    tag_204:\n        /* \"contracts/Utils.sol\":18167:18255  return((yearlyDRGRewardAllocation.mul(rewardTokenPrice)).div(poolLiquidityUsd)).mul(100) */\n      swap7\n      pop\n      pop\n      pop\n      pop\n      pop\n      pop\n      pop\n        /* \"contracts/Utils.sol\":17532:18263  function CalcApy(uint256 pid, LP lpAddress,bool isLp, MetaMasterChef MasterChef, Router routerAddress) external view returns(uint256){\r... */\n      swap6\n      swap5\n      pop\n      pop\n      pop\n      pop\n      pop\n      jump\t// out\n        /* \"contracts/Utils.sol\":9965:10436  function mul(uint256 a, uint256 b) internal pure returns (uint256) {\r... */\n    tag_84:\n        /* \"contracts/Utils.sol\":10023:10030  uint256 */\n      0x00\n        /* \"contracts/Utils.sol\":10273:10274  0 */\n      dup1\n        /* \"contracts/Utils.sol\":10268:10269  a */\n      dup4\n        /* \"contracts/Utils.sol\":10268:10274  a == 0 */\n      eq\n        /* \"contracts/Utils.sol\":10264:10311  if (a == 0) {\r... */\n      iszero\n      tag_208\n      jumpi\n        /* \"contracts/Utils.sol\":10298:10299  0 */\n      0x00\n        /* \"contracts/Utils.sol\":10291:10299  return 0 */\n      swap1\n      pop\n      jump(tag_207)\n        /* \"contracts/Utils.sol\":10264:10311  if (a == 0) {\r... */\n    tag_208:\n        /* \"contracts/Utils.sol\":10323:10332  uint256 c */\n      0x00\n        /* \"contracts/Utils.sol\":10339:10340  b */\n      dup3\n        /* \"contracts/Utils.sol\":10335:10336  a */\n      dup5\n        /* \"contracts/Utils.sol\":10335:10340  a * b */\n      tag_209\n      swap2\n      swap1\n      tag_160\n      jump\t// in\n    tag_209:\n        /* \"contracts/Utils.sol\":10323:10340  uint256 c = a * b */\n      swap1\n      pop\n        /* \"contracts/Utils.sol\":10368:10369  b */\n      dup3\n        /* \"contracts/Utils.sol\":10363:10364  a */\n      dup5\n        /* \"contracts/Utils.sol\":10359:10360  c */\n      dup3\n        /* \"contracts/Utils.sol\":10359:10364  c / a */\n      tag_210\n      swap2\n      swap1\n      tag_211\n      jump\t// in\n    tag_210:\n        /* \"contracts/Utils.sol\":10359:10369  c / a == b */\n      eq\n        /* \"contracts/Utils.sol\":10351:10407  require(c / a == b, \"SafeMath: multiplication overflow\") */\n      tag_212\n      jumpi\n      mload(0x40)\n      0x08c379a000000000000000000000000000000000000000000000000000000000\n      dup2\n      mstore\n      0x04\n      add\n      tag_213\n      swap1\n      tag_214\n      jump\t// in\n    tag_213:\n      mload(0x40)\n      dup1\n      swap2\n      sub\n      swap1\n      revert\n    tag_212:\n        /* \"contracts/Utils.sol\":10427:10428  c */\n      dup1\n        /* \"contracts/Utils.sol\":10420:10428  return c */\n      swap2\n      pop\n      pop\n        /* \"contracts/Utils.sol\":9965:10436  function mul(uint256 a, uint256 b) internal pure returns (uint256) {\r... */\n    tag_207:\n      swap3\n      swap2\n      pop\n      pop\n      jump\t// out\n        /* \"contracts/Utils.sol\":8593:8774  function add(uint256 a, uint256 b) internal pure returns (uint256) {\r... */\n    tag_143:\n        /* \"contracts/Utils.sol\":8651:8658  uint256 */\n      0x00\n        /* \"contracts/Utils.sol\":8671:8680  uint256 c */\n      dup1\n        /* \"contracts/Utils.sol\":8687:8688  b */\n      dup3\n        /* \"contracts/Utils.sol\":8683:8684  a */\n      dup5\n        /* \"contracts/Utils.sol\":8683:8688  a + b */\n      tag_216\n      swap2\n      swap1\n      tag_217\n      jump\t// in\n    tag_216:\n        /* \"contracts/Utils.sol\":8671:8688  uint256 c = a + b */\n      swap1\n      pop\n        /* \"contracts/Utils.sol\":8712:8713  a */\n      dup4\n        /* \"contracts/Utils.sol\":8707:8708  c */\n      dup2\n        /* \"contracts/Utils.sol\":8707:8713  c >= a */\n      lt\n      iszero\n        /* \"contracts/Utils.sol\":8699:8745  require(c >= a, \"SafeMath: addition overflow\") */\n      tag_218\n      jumpi\n      mload(0x40)\n      0x08c379a000000000000000000000000000000000000000000000000000000000\n      dup2\n      mstore\n      0x04\n      add\n      tag_219\n      swap1\n      tag_220\n      jump\t// in\n    tag_219:\n      mload(0x40)\n      dup1\n      swap2\n      sub\n      swap1\n      revert\n    tag_218:\n        /* \"contracts/Utils.sol\":8765:8766  c */\n      dup1\n        /* \"contracts/Utils.sol\":8758:8766  return c */\n      swap2\n      pop\n      pop\n        /* \"contracts/Utils.sol\":8593:8774  function add(uint256 a, uint256 b) internal pure returns (uint256) {\r... */\n      swap3\n      swap2\n      pop\n      pop\n      jump\t// out\n        /* \"contracts/Utils.sol\":10904:11036  function div(uint256 a, uint256 b) internal pure returns (uint256) {\r... */\n    tag_144:\n        /* \"contracts/Utils.sol\":10962:10969  uint256 */\n      0x00\n        /* \"contracts/Utils.sol\":10989:11028  div(a, b, \"SafeMath: division by zero\") */\n      tag_222\n        /* \"contracts/Utils.sol\":10993:10994  a */\n      dup4\n        /* \"contracts/Utils.sol\":10996:10997  b */\n      dup4\n        /* \"contracts/Utils.sol\":10989:11028  div(a, b, \"SafeMath: division by zero\") */\n      mload(0x40)\n      dup1\n      0x40\n      add\n      0x40\n      mstore\n      dup1\n      0x1a\n      dup2\n      mstore\n      0x20\n      add\n      0x536166654d6174683a206469766973696f6e206279207a65726f000000000000\n      dup2\n      mstore\n      pop\n        /* \"contracts/Utils.sol\":10989:10992  div */\n      tag_223\n        /* \"contracts/Utils.sol\":10989:11028  div(a, b, \"SafeMath: division by zero\") */\n      jump\t// in\n    tag_222:\n        /* \"contracts/Utils.sol\":10982:11028  return div(a, b, \"SafeMath: division by zero\") */\n      swap1\n      pop\n        /* \"contracts/Utils.sol\":10904:11036  function div(uint256 a, uint256 b) internal pure returns (uint256) {\r... */\n      swap3\n      swap2\n      pop\n      pop\n      jump\t// out\n        /* \"contracts/Utils.sol\":11566:11911  function div(uint256 a, uint256 b, string memory errorMessage) internal pure returns (uint256) {\r... */\n    tag_223:\n        /* \"contracts/Utils.sol\":11652:11659  uint256 */\n      0x00\n        /* \"contracts/Utils.sol\":11751:11752  0 */\n      dup1\n        /* \"contracts/Utils.sol\":11747:11748  b */\n      dup4\n        /* \"contracts/Utils.sol\":11747:11752  b > 0 */\n      gt\n        /* \"contracts/Utils.sol\":11754:11766  errorMessage */\n      dup3\n        /* \"contracts/Utils.sol\":11739:11767  require(b > 0, errorMessage) */\n      swap1\n      tag_225\n      jumpi\n      mload(0x40)\n      0x08c379a000000000000000000000000000000000000000000000000000000000\n      dup2\n      mstore\n      0x04\n      add\n      tag_226\n      swap2\n      swap1\n      tag_227\n      jump\t// in\n    tag_226:\n      mload(0x40)\n      dup1\n      swap2\n      sub\n      swap1\n      revert\n    tag_225:\n      pop\n        /* \"contracts/Utils.sol\":11778:11787  uint256 c */\n      0x00\n        /* \"contracts/Utils.sol\":11794:11795  b */\n      dup4\n        /* \"contracts/Utils.sol\":11790:11791  a */\n      dup6\n        /* \"contracts/Utils.sol\":11790:11795  a / b */\n      tag_228\n      swap2\n      swap1\n      tag_211\n      jump\t// in\n    tag_228:\n        /* \"contracts/Utils.sol\":11778:11795  uint256 c = a / b */\n      swap1\n      pop\n        /* \"contracts/Utils.sol\":11902:11903  c */\n      dup1\n        /* \"contracts/Utils.sol\":11895:11903  return c */\n      swap2\n      pop\n      pop\n        /* \"contracts/Utils.sol\":11566:11911  function div(uint256 a, uint256 b, string memory errorMessage) internal pure returns (uint256) {\r... */\n      swap4\n      swap3\n      pop\n      pop\n      pop\n      jump\t// out\n        /* \"#utility.yul\":24:768   */\n    tag_230:\n        /* \"#utility.yul\":131:136   */\n      0x00\n        /* \"#utility.yul\":156:237   */\n      tag_232\n        /* \"#utility.yul\":172:236   */\n      tag_233\n        /* \"#utility.yul\":229:235   */\n      dup5\n        /* \"#utility.yul\":172:236   */\n      tag_234\n      jump\t// in\n    tag_233:\n        /* \"#utility.yul\":156:237   */\n      tag_235\n      jump\t// in\n    tag_232:\n        /* \"#utility.yul\":147:237   */\n      swap1\n      pop\n        /* \"#utility.yul\":257:262   */\n      dup1\n        /* \"#utility.yul\":286:292   */\n      dup4\n        /* \"#utility.yul\":279:284   */\n      dup3\n        /* \"#utility.yul\":272:293   */\n      mstore\n        /* \"#utility.yul\":320:324   */\n      0x20\n        /* \"#utility.yul\":313:318   */\n      dup3\n        /* \"#utility.yul\":309:325   */\n      add\n        /* \"#utility.yul\":302:325   */\n      swap1\n      pop\n        /* \"#utility.yul\":346:352   */\n      dup3\n        /* \"#utility.yul\":396:399   */\n      dup6\n        /* \"#utility.yul\":388:392   */\n      0x20\n        /* \"#utility.yul\":380:386   */\n      dup7\n        /* \"#utility.yul\":376:393   */\n      mul\n        /* \"#utility.yul\":371:374   */\n      dup3\n        /* \"#utility.yul\":367:394   */\n      add\n        /* \"#utility.yul\":364:400   */\n      gt\n        /* \"#utility.yul\":361:504   */\n      iszero\n      tag_236\n      jumpi\n        /* \"#utility.yul\":415:494   */\n      tag_237\n      tag_238\n      jump\t// in\n    tag_237:\n        /* \"#utility.yul\":361:504   */\n    tag_236:\n        /* \"#utility.yul\":528:529   */\n      0x00\n        /* \"#utility.yul\":513:762   */\n    tag_239:\n        /* \"#utility.yul\":538:544   */\n      dup6\n        /* \"#utility.yul\":535:536   */\n      dup2\n        /* \"#utility.yul\":532:545   */\n      lt\n        /* \"#utility.yul\":513:762   */\n      iszero\n      tag_241\n      jumpi\n        /* \"#utility.yul\":606:609   */\n      dup2\n        /* \"#utility.yul\":635:683   */\n      tag_242\n        /* \"#utility.yul\":679:682   */\n      dup9\n        /* \"#utility.yul\":667:677   */\n      dup3\n        /* \"#utility.yul\":635:683   */\n      tag_243\n      jump\t// in\n    tag_242:\n        /* \"#utility.yul\":630:633   */\n      dup5\n        /* \"#utility.yul\":623:684   */\n      mstore\n        /* \"#utility.yul\":713:717   */\n      0x20\n        /* \"#utility.yul\":708:711   */\n      dup5\n        /* \"#utility.yul\":704:718   */\n      add\n        /* \"#utility.yul\":697:718   */\n      swap4\n      pop\n        /* \"#utility.yul\":747:751   */\n      0x20\n        /* \"#utility.yul\":742:745   */\n      dup4\n        /* \"#utility.yul\":738:752   */\n      add\n        /* \"#utility.yul\":731:752   */\n      swap3\n      pop\n        /* \"#utility.yul\":573:762   */\n      pop\n        /* \"#utility.yul\":560:561   */\n      0x01\n        /* \"#utility.yul\":557:558   */\n      dup2\n        /* \"#utility.yul\":553:562   */\n      add\n        /* \"#utility.yul\":548:562   */\n      swap1\n      pop\n        /* \"#utility.yul\":513:762   */\n      jump(tag_239)\n    tag_241:\n        /* \"#utility.yul\":517:531   */\n      pop\n        /* \"#utility.yul\":137:768   */\n      pop\n      pop\n        /* \"#utility.yul\":24:768   */\n      swap4\n      swap3\n      pop\n      pop\n      pop\n      jump\t// out\n        /* \"#utility.yul\":774:913   */\n    tag_244:\n        /* \"#utility.yul\":820:825   */\n      0x00\n        /* \"#utility.yul\":858:864   */\n      dup2\n        /* \"#utility.yul\":845:865   */\n      calldataload\n        /* \"#utility.yul\":836:865   */\n      swap1\n      pop\n        /* \"#utility.yul\":874:907   */\n      tag_246\n        /* \"#utility.yul\":901:906   */\n      dup2\n        /* \"#utility.yul\":874:907   */\n      tag_247\n      jump\t// in\n    tag_246:\n        /* \"#utility.yul\":774:913   */\n      swap3\n      swap2\n      pop\n      pop\n      jump\t// out\n        /* \"#utility.yul\":919:1062   */\n    tag_248:\n        /* \"#utility.yul\":976:981   */\n      0x00\n        /* \"#utility.yul\":1007:1013   */\n      dup2\n        /* \"#utility.yul\":1001:1014   */\n      mload\n        /* \"#utility.yul\":992:1014   */\n      swap1\n      pop\n        /* \"#utility.yul\":1023:1056   */\n      tag_250\n        /* \"#utility.yul\":1050:1055   */\n      dup2\n        /* \"#utility.yul\":1023:1056   */\n      tag_247\n      jump\t// in\n    tag_250:\n        /* \"#utility.yul\":919:1062   */\n      swap3\n      swap2\n      pop\n      pop\n      jump\t// out\n        /* \"#utility.yul\":1085:1470   */\n    tag_251:\n        /* \"#utility.yul\":1167:1172   */\n      0x00\n        /* \"#utility.yul\":1216:1219   */\n      dup3\n        /* \"#utility.yul\":1209:1213   */\n      0x1f\n        /* \"#utility.yul\":1201:1207   */\n      dup4\n        /* \"#utility.yul\":1197:1214   */\n      add\n        /* \"#utility.yul\":1193:1220   */\n      slt\n        /* \"#utility.yul\":1183:1305   */\n      tag_253\n      jumpi\n        /* \"#utility.yul\":1224:1303   */\n      tag_254\n      tag_255\n      jump\t// in\n    tag_254:\n        /* \"#utility.yul\":1183:1305   */\n    tag_253:\n        /* \"#utility.yul\":1334:1340   */\n      dup2\n        /* \"#utility.yul\":1328:1341   */\n      mload\n        /* \"#utility.yul\":1359:1464   */\n      tag_256\n        /* \"#utility.yul\":1460:1463   */\n      dup5\n        /* \"#utility.yul\":1452:1458   */\n      dup3\n        /* \"#utility.yul\":1445:1449   */\n      0x20\n        /* \"#utility.yul\":1437:1443   */\n      dup7\n        /* \"#utility.yul\":1433:1450   */\n      add\n        /* \"#utility.yul\":1359:1464   */\n      tag_230\n      jump\t// in\n    tag_256:\n        /* \"#utility.yul\":1350:1464   */\n      swap2\n      pop\n        /* \"#utility.yul\":1173:1470   */\n      pop\n        /* \"#utility.yul\":1085:1470   */\n      swap3\n      swap2\n      pop\n      pop\n      jump\t// out\n        /* \"#utility.yul\":1476:1609   */\n    tag_257:\n        /* \"#utility.yul\":1519:1524   */\n      0x00\n        /* \"#utility.yul\":1557:1563   */\n      dup2\n        /* \"#utility.yul\":1544:1564   */\n      calldataload\n        /* \"#utility.yul\":1535:1564   */\n      swap1\n      pop\n        /* \"#utility.yul\":1573:1603   */\n      tag_259\n        /* \"#utility.yul\":1597:1602   */\n      dup2\n        /* \"#utility.yul\":1573:1603   */\n      tag_260\n      jump\t// in\n    tag_259:\n        /* \"#utility.yul\":1476:1609   */\n      swap3\n      swap2\n      pop\n      pop\n      jump\t// out\n        /* \"#utility.yul\":1615:1786   */\n    tag_261:\n        /* \"#utility.yul\":1686:1691   */\n      0x00\n        /* \"#utility.yul\":1717:1723   */\n      dup2\n        /* \"#utility.yul\":1711:1724   */\n      mload\n        /* \"#utility.yul\":1702:1724   */\n      swap1\n      pop\n        /* \"#utility.yul\":1733:1780   */\n      tag_263\n        /* \"#utility.yul\":1774:1779   */\n      dup2\n        /* \"#utility.yul\":1733:1780   */\n      tag_264\n      jump\t// in\n    tag_263:\n        /* \"#utility.yul\":1615:1786   */\n      swap3\n      swap2\n      pop\n      pop\n      jump\t// out\n        /* \"#utility.yul\":1792:1973   */\n    tag_265:\n        /* \"#utility.yul\":1868:1873   */\n      0x00\n        /* \"#utility.yul\":1899:1905   */\n      dup2\n        /* \"#utility.yul\":1893:1906   */\n      mload\n        /* \"#utility.yul\":1884:1906   */\n      swap1\n      pop\n        /* \"#utility.yul\":1915:1967   */\n      tag_267\n        /* \"#utility.yul\":1961:1966   */\n      dup2\n        /* \"#utility.yul\":1915:1967   */\n      tag_268\n      jump\t// in\n    tag_267:\n        /* \"#utility.yul\":1792:1973   */\n      swap3\n      swap2\n      pop\n      pop\n      jump\t// out\n        /* \"#utility.yul\":1979:2138   */\n    tag_269:\n        /* \"#utility.yul\":2035:2040   */\n      0x00\n        /* \"#utility.yul\":2073:2079   */\n      dup2\n        /* \"#utility.yul\":2060:2080   */\n      calldataload\n        /* \"#utility.yul\":2051:2080   */\n      swap1\n      pop\n        /* \"#utility.yul\":2089:2132   */\n      tag_271\n        /* \"#utility.yul\":2126:2131   */\n      dup2\n        /* \"#utility.yul\":2089:2132   */\n      tag_272\n      jump\t// in\n    tag_271:\n        /* \"#utility.yul\":1979:2138   */\n      swap3\n      swap2\n      pop\n      pop\n      jump\t// out\n        /* \"#utility.yul\":2144:2327   */\n    tag_273:\n        /* \"#utility.yul\":2212:2217   */\n      0x00\n        /* \"#utility.yul\":2250:2256   */\n      dup2\n        /* \"#utility.yul\":2237:2257   */\n      calldataload\n        /* \"#utility.yul\":2228:2257   */\n      swap1\n      pop\n        /* \"#utility.yul\":2266:2321   */\n      tag_275\n        /* \"#utility.yul\":2315:2320   */\n      dup2\n        /* \"#utility.yul\":2266:2321   */\n      tag_276\n      jump\t// in\n    tag_275:\n        /* \"#utility.yul\":2144:2327   */\n      swap3\n      swap2\n      pop\n      pop\n      jump\t// out\n        /* \"#utility.yul\":2333:2500   */\n    tag_277:\n        /* \"#utility.yul\":2393:2398   */\n      0x00\n        /* \"#utility.yul\":2431:2437   */\n      dup2\n        /* \"#utility.yul\":2418:2438   */\n      calldataload\n        /* \"#utility.yul\":2409:2438   */\n      swap1\n      pop\n        /* \"#utility.yul\":2447:2494   */\n      tag_279\n        /* \"#utility.yul\":2488:2493   */\n      dup2\n        /* \"#utility.yul\":2447:2494   */\n      tag_280\n      jump\t// in\n    tag_279:\n        /* \"#utility.yul\":2333:2500   */\n      swap3\n      swap2\n      pop\n      pop\n      jump\t// out\n        /* \"#utility.yul\":2529:3920   */\n    tag_281:\n        /* \"#utility.yul\":2614:2619   */\n      0x00\n        /* \"#utility.yul\":2658:2662   */\n      0xc0\n        /* \"#utility.yul\":2646:2655   */\n      dup3\n        /* \"#utility.yul\":2641:2644   */\n      dup5\n        /* \"#utility.yul\":2637:2656   */\n      sub\n        /* \"#utility.yul\":2633:2663   */\n      slt\n        /* \"#utility.yul\":2630:2747   */\n      iszero\n      tag_283\n      jumpi\n        /* \"#utility.yul\":2666:2745   */\n      tag_284\n      tag_285\n      jump\t// in\n    tag_284:\n        /* \"#utility.yul\":2630:2747   */\n    tag_283:\n        /* \"#utility.yul\":2765:2786   */\n      tag_286\n        /* \"#utility.yul\":2781:2785   */\n      0xc0\n        /* \"#utility.yul\":2765:2786   */\n      tag_235\n      jump\t// in\n    tag_286:\n        /* \"#utility.yul\":2756:2786   */\n      swap1\n      pop\n        /* \"#utility.yul\":2848:2849   */\n      0x00\n        /* \"#utility.yul\":2888:2962   */\n      tag_287\n        /* \"#utility.yul\":2958:2961   */\n      dup5\n        /* \"#utility.yul\":2949:2955   */\n      dup3\n        /* \"#utility.yul\":2938:2947   */\n      dup6\n        /* \"#utility.yul\":2934:2956   */\n      add\n        /* \"#utility.yul\":2888:2962   */\n      tag_261\n      jump\t// in\n    tag_287:\n        /* \"#utility.yul\":2881:2885   */\n      0x00\n        /* \"#utility.yul\":2874:2879   */\n      dup4\n        /* \"#utility.yul\":2870:2886   */\n      add\n        /* \"#utility.yul\":2863:2963   */\n      mstore\n        /* \"#utility.yul\":2796:2974   */\n      pop\n        /* \"#utility.yul\":3039:3041   */\n      0x20\n        /* \"#utility.yul\":3080:3140   */\n      tag_288\n        /* \"#utility.yul\":3136:3139   */\n      dup5\n        /* \"#utility.yul\":3127:3133   */\n      dup3\n        /* \"#utility.yul\":3116:3125   */\n      dup6\n        /* \"#utility.yul\":3112:3134   */\n      add\n        /* \"#utility.yul\":3080:3140   */\n      tag_243\n      jump\t// in\n    tag_288:\n        /* \"#utility.yul\":3073:3077   */\n      0x20\n        /* \"#utility.yul\":3066:3071   */\n      dup4\n        /* \"#utility.yul\":3062:3078   */\n      add\n        /* \"#utility.yul\":3055:3141   */\n      mstore\n        /* \"#utility.yul\":2984:3152   */\n      pop\n        /* \"#utility.yul\":3222:3224   */\n      0x40\n        /* \"#utility.yul\":3263:3323   */\n      tag_289\n        /* \"#utility.yul\":3319:3322   */\n      dup5\n        /* \"#utility.yul\":3310:3316   */\n      dup3\n        /* \"#utility.yul\":3299:3308   */\n      dup6\n        /* \"#utility.yul\":3295:3317   */\n      add\n        /* \"#utility.yul\":3263:3323   */\n      tag_243\n      jump\t// in\n    tag_289:\n        /* \"#utility.yul\":3256:3260   */\n      0x40\n        /* \"#utility.yul\":3249:3254   */\n      dup4\n        /* \"#utility.yul\":3245:3261   */\n      add\n        /* \"#utility.yul\":3238:3324   */\n      mstore\n        /* \"#utility.yul\":3162:3335   */\n      pop\n        /* \"#utility.yul\":3404:3406   */\n      0x60\n        /* \"#utility.yul\":3445:3505   */\n      tag_290\n        /* \"#utility.yul\":3501:3504   */\n      dup5\n        /* \"#utility.yul\":3492:3498   */\n      dup3\n        /* \"#utility.yul\":3481:3490   */\n      dup6\n        /* \"#utility.yul\":3477:3499   */\n      add\n        /* \"#utility.yul\":3445:3505   */\n      tag_243\n      jump\t// in\n    tag_290:\n        /* \"#utility.yul\":3438:3442   */\n      0x60\n        /* \"#utility.yul\":3431:3436   */\n      dup4\n        /* \"#utility.yul\":3427:3443   */\n      add\n        /* \"#utility.yul\":3420:3506   */\n      mstore\n        /* \"#utility.yul\":3345:3517   */\n      pop\n        /* \"#utility.yul\":3586:3589   */\n      0x80\n        /* \"#utility.yul\":3628:3707   */\n      tag_291\n        /* \"#utility.yul\":3703:3706   */\n      dup5\n        /* \"#utility.yul\":3694:3700   */\n      dup3\n        /* \"#utility.yul\":3683:3692   */\n      dup6\n        /* \"#utility.yul\":3679:3701   */\n      add\n        /* \"#utility.yul\":3628:3707   */\n      tag_265\n      jump\t// in\n    tag_291:\n        /* \"#utility.yul\":3621:3625   */\n      0x80\n        /* \"#utility.yul\":3614:3619   */\n      dup4\n        /* \"#utility.yul\":3610:3626   */\n      add\n        /* \"#utility.yul\":3603:3708   */\n      mstore\n        /* \"#utility.yul\":3527:3719   */\n      pop\n        /* \"#utility.yul\":3785:3788   */\n      0xa0\n        /* \"#utility.yul\":3827:3901   */\n      tag_292\n        /* \"#utility.yul\":3897:3900   */\n      dup5\n        /* \"#utility.yul\":3888:3894   */\n      dup3\n        /* \"#utility.yul\":3877:3886   */\n      dup6\n        /* \"#utility.yul\":3873:3895   */\n      add\n        /* \"#utility.yul\":3827:3901   */\n      tag_261\n      jump\t// in\n    tag_292:\n        /* \"#utility.yul\":3820:3824   */\n      0xa0\n        /* \"#utility.yul\":3813:3818   */\n      dup4\n        /* \"#utility.yul\":3809:3825   */\n      add\n        /* \"#utility.yul\":3802:3902   */\n      mstore\n        /* \"#utility.yul\":3729:3913   */\n      pop\n        /* \"#utility.yul\":2529:3920   */\n      swap3\n      swap2\n      pop\n      pop\n      jump\t// out\n        /* \"#utility.yul\":3926:4065   */\n    tag_293:\n        /* \"#utility.yul\":3972:3977   */\n      0x00\n        /* \"#utility.yul\":4010:4016   */\n      dup2\n        /* \"#utility.yul\":3997:4017   */\n      calldataload\n        /* \"#utility.yul\":3988:4017   */\n      swap1\n      pop\n        /* \"#utility.yul\":4026:4059   */\n      tag_295\n        /* \"#utility.yul\":4053:4058   */\n      dup2\n        /* \"#utility.yul\":4026:4059   */\n      tag_296\n      jump\t// in\n    tag_295:\n        /* \"#utility.yul\":3926:4065   */\n      swap3\n      swap2\n      pop\n      pop\n      jump\t// out\n        /* \"#utility.yul\":4071:4214   */\n    tag_243:\n        /* \"#utility.yul\":4128:4133   */\n      0x00\n        /* \"#utility.yul\":4159:4165   */\n      dup2\n        /* \"#utility.yul\":4153:4166   */\n      mload\n        /* \"#utility.yul\":4144:4166   */\n      swap1\n      pop\n        /* \"#utility.yul\":4175:4208   */\n      tag_298\n        /* \"#utility.yul\":4202:4207   */\n      dup2\n        /* \"#utility.yul\":4175:4208   */\n      tag_296\n      jump\t// in\n    tag_298:\n        /* \"#utility.yul\":4071:4214   */\n      swap3\n      swap2\n      pop\n      pop\n      jump\t// out\n        /* \"#utility.yul\":4220:4571   */\n    tag_195:\n        /* \"#utility.yul\":4290:4296   */\n      0x00\n        /* \"#utility.yul\":4339:4341   */\n      0x20\n        /* \"#utility.yul\":4327:4336   */\n      dup3\n        /* \"#utility.yul\":4318:4325   */\n      dup5\n        /* \"#utility.yul\":4314:4337   */\n      sub\n        /* \"#utility.yul\":4310:4342   */\n      slt\n        /* \"#utility.yul\":4307:4426   */\n      iszero\n      tag_300\n      jumpi\n        /* \"#utility.yul\":4345:4424   */\n      tag_301\n      tag_302\n      jump\t// in\n    tag_301:\n        /* \"#utility.yul\":4307:4426   */\n    tag_300:\n        /* \"#utility.yul\":4465:4466   */\n      0x00\n        /* \"#utility.yul\":4490:4554   */\n      tag_303\n        /* \"#utility.yul\":4546:4553   */\n      dup5\n        /* \"#utility.yul\":4537:4543   */\n      dup3\n        /* \"#utility.yul\":4526:4535   */\n      dup6\n        /* \"#utility.yul\":4522:4544   */\n      add\n        /* \"#utility.yul\":4490:4554   */\n      tag_248\n      jump\t// in\n    tag_303:\n        /* \"#utility.yul\":4480:4554   */\n      swap2\n      pop\n        /* \"#utility.yul\":4436:4564   */\n      pop\n        /* \"#utility.yul\":4220:4571   */\n      swap3\n      swap2\n      pop\n      pop\n      jump\t// out\n        /* \"#utility.yul\":4577:5131   */\n    tag_58:\n        /* \"#utility.yul\":4672:4678   */\n      0x00\n        /* \"#utility.yul\":4721:4723   */\n      0x20\n        /* \"#utility.yul\":4709:4718   */\n      dup3\n        /* \"#utility.yul\":4700:4707   */\n      dup5\n        /* \"#utility.yul\":4696:4719   */\n      sub\n        /* \"#utility.yul\":4692:4724   */\n      slt\n        /* \"#utility.yul\":4689:4808   */\n      iszero\n      tag_305\n      jumpi\n        /* \"#utility.yul\":4727:4806   */\n      tag_306\n      tag_302\n      jump\t// in\n    tag_306:\n        /* \"#utility.yul\":4689:4808   */\n    tag_305:\n        /* \"#utility.yul\":4868:4869   */\n      0x00\n        /* \"#utility.yul\":4857:4866   */\n      dup3\n        /* \"#utility.yul\":4853:4870   */\n      add\n        /* \"#utility.yul\":4847:4871   */\n      mload\n        /* \"#utility.yul\":4898:4916   */\n      0xffffffffffffffff\n        /* \"#utility.yul\":4890:4896   */\n      dup2\n        /* \"#utility.yul\":4887:4917   */\n      gt\n        /* \"#utility.yul\":4884:5001   */\n      iszero\n      tag_307\n      jumpi\n        /* \"#utility.yul\":4920:4999   */\n      tag_308\n      tag_309\n      jump\t// in\n    tag_308:\n        /* \"#utility.yul\":4884:5001   */\n    tag_307:\n        /* \"#utility.yul\":5025:5114   */\n      tag_310\n        /* \"#utility.yul\":5106:5113   */\n      dup5\n        /* \"#utility.yul\":5097:5103   */\n      dup3\n        /* \"#utility.yul\":5086:5095   */\n      dup6\n        /* \"#utility.yul\":5082:5104   */\n      add\n        /* \"#utility.yul\":5025:5114   */\n      tag_251\n      jump\t// in\n    tag_310:\n        /* \"#utility.yul\":5015:5114   */\n      swap2\n      pop\n        /* \"#utility.yul\":4818:5124   */\n      pop\n        /* \"#utility.yul\":4577:5131   */\n      swap3\n      swap2\n      pop\n      pop\n      jump\t// out\n        /* \"#utility.yul\":5137:5516   */\n    tag_66:\n        /* \"#utility.yul\":5221:5227   */\n      0x00\n        /* \"#utility.yul\":5270:5272   */\n      0x20\n        /* \"#utility.yul\":5258:5267   */\n      dup3\n        /* \"#utility.yul\":5249:5256   */\n      dup5\n        /* \"#utility.yul\":5245:5268   */\n      sub\n        /* \"#utility.yul\":5241:5273   */\n      slt\n        /* \"#utility.yul\":5238:5357   */\n      iszero\n      tag_312\n      jumpi\n        /* \"#utility.yul\":5276:5355   */\n      tag_313\n      tag_302\n      jump\t// in\n    tag_313:\n        /* \"#utility.yul\":5238:5357   */\n    tag_312:\n        /* \"#utility.yul\":5396:5397   */\n      0x00\n        /* \"#utility.yul\":5421:5499   */\n      tag_314\n        /* \"#utility.yul\":5491:5498   */\n      dup5\n        /* \"#utility.yul\":5482:5488   */\n      dup3\n        /* \"#utility.yul\":5471:5480   */\n      dup6\n        /* \"#utility.yul\":5467:5489   */\n      add\n        /* \"#utility.yul\":5421:5499   */\n      tag_261\n      jump\t// in\n    tag_314:\n        /* \"#utility.yul\":5411:5499   */\n      swap2\n      pop\n        /* \"#utility.yul\":5367:5509   */\n      pop\n        /* \"#utility.yul\":5137:5516   */\n      swap3\n      swap2\n      pop\n      pop\n      jump\t// out\n        /* \"#utility.yul\":5522:6044   */\n    tag_19:\n        /* \"#utility.yul\":5614:5620   */\n      0x00\n        /* \"#utility.yul\":5622:5628   */\n      dup1\n        /* \"#utility.yul\":5671:5673   */\n      0x40\n        /* \"#utility.yul\":5659:5668   */\n      dup4\n        /* \"#utility.yul\":5650:5657   */\n      dup6\n        /* \"#utility.yul\":5646:5669   */\n      sub\n        /* \"#utility.yul\":5642:5674   */\n      slt\n        /* \"#utility.yul\":5639:5758   */\n      iszero\n      tag_316\n      jumpi\n        /* \"#utility.yul\":5677:5756   */\n      tag_317\n      tag_302\n      jump\t// in\n    tag_317:\n        /* \"#utility.yul\":5639:5758   */\n    tag_316:\n        /* \"#utility.yul\":5797:5798   */\n      0x00\n        /* \"#utility.yul\":5822:5885   */\n      tag_318\n        /* \"#utility.yul\":5877:5884   */\n      dup6\n        /* \"#utility.yul\":5868:5874   */\n      dup3\n        /* \"#utility.yul\":5857:5866   */\n      dup7\n        /* \"#utility.yul\":5853:5875   */\n      add\n        /* \"#utility.yul\":5822:5885   */\n      tag_269\n      jump\t// in\n    tag_318:\n        /* \"#utility.yul\":5812:5885   */\n      swap3\n      pop\n        /* \"#utility.yul\":5768:5895   */\n      pop\n        /* \"#utility.yul\":5934:5936   */\n      0x20\n        /* \"#utility.yul\":5960:6027   */\n      tag_319\n        /* \"#utility.yul\":6019:6026   */\n      dup6\n        /* \"#utility.yul\":6010:6016   */\n      dup3\n        /* \"#utility.yul\":5999:6008   */\n      dup7\n        /* \"#utility.yul\":5995:6017   */\n      add\n        /* \"#utility.yul\":5960:6027   */\n      tag_277\n      jump\t// in\n    tag_319:\n        /* \"#utility.yul\":5950:6027   */\n      swap2\n      pop\n        /* \"#utility.yul\":5905:6037   */\n      pop\n        /* \"#utility.yul\":5522:6044   */\n      swap3\n      pop\n      swap3\n      swap1\n      pop\n      jump\t// out\n        /* \"#utility.yul\":6050:6552   */\n    tag_13:\n        /* \"#utility.yul\":6132:6138   */\n      0x00\n        /* \"#utility.yul\":6140:6146   */\n      dup1\n        /* \"#utility.yul\":6189:6191   */\n      0x40\n        /* \"#utility.yul\":6177:6186   */\n      dup4\n        /* \"#utility.yul\":6168:6175   */\n      dup6\n        /* \"#utility.yul\":6164:6187   */\n      sub\n        /* \"#utility.yul\":6160:6192   */\n      slt\n        /* \"#utility.yul\":6157:6276   */\n      iszero\n      tag_321\n      jumpi\n        /* \"#utility.yul\":6195:6274   */\n      tag_322\n      tag_302\n      jump\t// in\n    tag_322:\n        /* \"#utility.yul\":6157:6276   */\n    tag_321:\n        /* \"#utility.yul\":6315:6316   */\n      0x00\n        /* \"#utility.yul\":6340:6407   */\n      tag_323\n        /* \"#utility.yul\":6399:6406   */\n      dup6\n        /* \"#utility.yul\":6390:6396   */\n      dup3\n        /* \"#utility.yul\":6379:6388   */\n      dup7\n        /* \"#utility.yul\":6375:6397   */\n      add\n        /* \"#utility.yul\":6340:6407   */\n      tag_277\n      jump\t// in\n    tag_323:\n        /* \"#utility.yul\":6330:6407   */\n      swap3\n      pop\n        /* \"#utility.yul\":6286:6417   */\n      pop\n        /* \"#utility.yul\":6456:6458   */\n      0x20\n        /* \"#utility.yul\":6482:6535   */\n      tag_324\n        /* \"#utility.yul\":6527:6534   */\n      dup6\n        /* \"#utility.yul\":6518:6524   */\n      dup3\n        /* \"#utility.yul\":6507:6516   */\n      dup7\n        /* \"#utility.yul\":6503:6525   */\n      add\n        /* \"#utility.yul\":6482:6535   */\n      tag_244\n      jump\t// in\n    tag_324:\n        /* \"#utility.yul\":6472:6535   */\n      swap2\n      pop\n        /* \"#utility.yul\":6427:6545   */\n      pop\n        /* \"#utility.yul\":6050:6552   */\n      swap3\n      pop\n      swap3\n      swap1\n      pop\n      jump\t// out\n        /* \"#utility.yul\":6558:6960   */\n    tag_184:\n        /* \"#utility.yul\":6653:6659   */\n      0x00\n        /* \"#utility.yul\":6702:6705   */\n      0xc0\n        /* \"#utility.yul\":6690:6699   */\n      dup3\n        /* \"#utility.yul\":6681:6688   */\n      dup5\n        /* \"#utility.yul\":6677:6700   */\n      sub\n        /* \"#utility.yul\":6673:6706   */\n      slt\n        /* \"#utility.yul\":6670:6790   */\n      iszero\n      tag_326\n      jumpi\n        /* \"#utility.yul\":6709:6788   */\n      tag_327\n      tag_302\n      jump\t// in\n    tag_327:\n        /* \"#utility.yul\":6670:6790   */\n    tag_326:\n        /* \"#utility.yul\":6829:6830   */\n      0x00\n        /* \"#utility.yul\":6854:6943   */\n      tag_328\n        /* \"#utility.yul\":6935:6942   */\n      dup5\n        /* \"#utility.yul\":6926:6932   */\n      dup3\n        /* \"#utility.yul\":6915:6924   */\n      dup6\n        /* \"#utility.yul\":6911:6933   */\n      add\n        /* \"#utility.yul\":6854:6943   */\n      tag_281\n      jump\t// in\n    tag_328:\n        /* \"#utility.yul\":6844:6943   */\n      swap2\n      pop\n        /* \"#utility.yul\":6800:6953   */\n      pop\n        /* \"#utility.yul\":6558:6960   */\n      swap3\n      swap2\n      pop\n      pop\n      jump\t// out\n        /* \"#utility.yul\":6966:7317   */\n    tag_83:\n        /* \"#utility.yul\":7036:7042   */\n      0x00\n        /* \"#utility.yul\":7085:7087   */\n      0x20\n        /* \"#utility.yul\":7073:7082   */\n      dup3\n        /* \"#utility.yul\":7064:7071   */\n      dup5\n        /* \"#utility.yul\":7060:7083   */\n      sub\n        /* \"#utility.yul\":7056:7088   */\n      slt\n        /* \"#utility.yul\":7053:7172   */\n      iszero\n      tag_330\n      jumpi\n        /* \"#utility.yul\":7091:7170   */\n      tag_331\n      tag_302\n      jump\t// in\n    tag_331:\n        /* \"#utility.yul\":7053:7172   */\n    tag_330:\n        /* \"#utility.yul\":7211:7212   */\n      0x00\n        /* \"#utility.yul\":7236:7300   */\n      tag_332\n        /* \"#utility.yul\":7292:7299   */\n      dup5\n        /* \"#utility.yul\":7283:7289   */\n      dup3\n        /* \"#utility.yul\":7272:7281   */\n      dup6\n        /* \"#utility.yul\":7268:7290   */\n      add\n        /* \"#utility.yul\":7236:7300   */\n      tag_243\n      jump\t// in\n    tag_332:\n        /* \"#utility.yul\":7226:7300   */\n      swap2\n      pop\n        /* \"#utility.yul\":7182:7310   */\n      pop\n        /* \"#utility.yul\":6966:7317   */\n      swap3\n      swap2\n      pop\n      pop\n      jump\t// out\n        /* \"#utility.yul\":7323:8320   */\n    tag_24:\n        /* \"#utility.yul\":7461:7467   */\n      0x00\n        /* \"#utility.yul\":7469:7475   */\n      dup1\n        /* \"#utility.yul\":7477:7483   */\n      0x00\n        /* \"#utility.yul\":7485:7491   */\n      dup1\n        /* \"#utility.yul\":7493:7499   */\n      0x00\n        /* \"#utility.yul\":7542:7545   */\n      0xa0\n        /* \"#utility.yul\":7530:7539   */\n      dup7\n        /* \"#utility.yul\":7521:7528   */\n      dup9\n        /* \"#utility.yul\":7517:7540   */\n      sub\n        /* \"#utility.yul\":7513:7546   */\n      slt\n        /* \"#utility.yul\":7510:7630   */\n      iszero\n      tag_334\n      jumpi\n        /* \"#utility.yul\":7549:7628   */\n      tag_335\n      tag_302\n      jump\t// in\n    tag_335:\n        /* \"#utility.yul\":7510:7630   */\n    tag_334:\n        /* \"#utility.yul\":7669:7670   */\n      0x00\n        /* \"#utility.yul\":7694:7747   */\n      tag_336\n        /* \"#utility.yul\":7739:7746   */\n      dup9\n        /* \"#utility.yul\":7730:7736   */\n      dup3\n        /* \"#utility.yul\":7719:7728   */\n      dup10\n        /* \"#utility.yul\":7715:7737   */\n      add\n        /* \"#utility.yul\":7694:7747   */\n      tag_293\n      jump\t// in\n    tag_336:\n        /* \"#utility.yul\":7684:7747   */\n      swap6\n      pop\n        /* \"#utility.yul\":7640:7757   */\n      pop\n        /* \"#utility.yul\":7796:7798   */\n      0x20\n        /* \"#utility.yul\":7822:7885   */\n      tag_337\n        /* \"#utility.yul\":7877:7884   */\n      dup9\n        /* \"#utility.yul\":7868:7874   */\n      dup3\n        /* \"#utility.yul\":7857:7866   */\n      dup10\n        /* \"#utility.yul\":7853:7875   */\n      add\n        /* \"#utility.yul\":7822:7885   */\n      tag_269\n      jump\t// in\n    tag_337:\n        /* \"#utility.yul\":7812:7885   */\n      swap5\n      pop\n        /* \"#utility.yul\":7767:7895   */\n      pop\n        /* \"#utility.yul\":7934:7936   */\n      0x40\n        /* \"#utility.yul\":7960:8010   */\n      tag_338\n        /* \"#utility.yul\":8002:8009   */\n      dup9\n        /* \"#utility.yul\":7993:7999   */\n      dup3\n        /* \"#utility.yul\":7982:7991   */\n      dup10\n        /* \"#utility.yul\":7978:8000   */\n      add\n        /* \"#utility.yul\":7960:8010   */\n      tag_257\n      jump\t// in\n    tag_338:\n        /* \"#utility.yul\":7950:8010   */\n      swap4\n      pop\n        /* \"#utility.yul\":7905:8020   */\n      pop\n        /* \"#utility.yul\":8059:8061   */\n      0x60\n        /* \"#utility.yul\":8085:8160   */\n      tag_339\n        /* \"#utility.yul\":8152:8159   */\n      dup9\n        /* \"#utility.yul\":8143:8149   */\n      dup3\n        /* \"#utility.yul\":8132:8141   */\n      dup10\n        /* \"#utility.yul\":8128:8150   */\n      add\n        /* \"#utility.yul\":8085:8160   */\n      tag_273\n      jump\t// in\n    tag_339:\n        /* \"#utility.yul\":8075:8160   */\n      swap3\n      pop\n        /* \"#utility.yul\":8030:8170   */\n      pop\n        /* \"#utility.yul\":8209:8212   */\n      0x80\n        /* \"#utility.yul\":8236:8303   */\n      tag_340\n        /* \"#utility.yul\":8295:8302   */\n      dup9\n        /* \"#utility.yul\":8286:8292   */\n      dup3\n        /* \"#utility.yul\":8275:8284   */\n      dup10\n        /* \"#utility.yul\":8271:8293   */\n      add\n        /* \"#utility.yul\":8236:8303   */\n      tag_277\n      jump\t// in\n    tag_340:\n        /* \"#utility.yul\":8226:8303   */\n      swap2\n      pop\n        /* \"#utility.yul\":8180:8313   */\n      pop\n        /* \"#utility.yul\":7323:8320   */\n      swap3\n      swap6\n      pop\n      swap3\n      swap6\n      swap1\n      swap4\n      pop\n      jump\t// out\n        /* \"#utility.yul\":8326:8505   */\n    tag_341:\n        /* \"#utility.yul\":8395:8405   */\n      0x00\n        /* \"#utility.yul\":8416:8462   */\n      tag_343\n        /* \"#utility.yul\":8458:8461   */\n      dup4\n        /* \"#utility.yul\":8450:8456   */\n      dup4\n        /* \"#utility.yul\":8416:8462   */\n      tag_344\n      jump\t// in\n    tag_343:\n        /* \"#utility.yul\":8494:8498   */\n      0x20\n        /* \"#utility.yul\":8489:8492   */\n      dup4\n        /* \"#utility.yul\":8485:8499   */\n      add\n        /* \"#utility.yul\":8471:8499   */\n      swap1\n      pop\n        /* \"#utility.yul\":8326:8505   */\n      swap3\n      swap2\n      pop\n      pop\n      jump\t// out\n        /* \"#utility.yul\":8511:8619   */\n    tag_344:\n        /* \"#utility.yul\":8588:8612   */\n      tag_346\n        /* \"#utility.yul\":8606:8611   */\n      dup2\n        /* \"#utility.yul\":8588:8612   */\n      tag_347\n      jump\t// in\n    tag_346:\n        /* \"#utility.yul\":8583:8586   */\n      dup3\n        /* \"#utility.yul\":8576:8613   */\n      mstore\n        /* \"#utility.yul\":8511:8619   */\n      pop\n      pop\n      jump\t// out\n        /* \"#utility.yul\":8625:8743   */\n    tag_348:\n        /* \"#utility.yul\":8712:8736   */\n      tag_350\n        /* \"#utility.yul\":8730:8735   */\n      dup2\n        /* \"#utility.yul\":8712:8736   */\n      tag_347\n      jump\t// in\n    tag_350:\n        /* \"#utility.yul\":8707:8710   */\n      dup3\n        /* \"#utility.yul\":8700:8737   */\n      mstore\n        /* \"#utility.yul\":8625:8743   */\n      pop\n      pop\n      jump\t// out\n        /* \"#utility.yul\":8779:9511   */\n    tag_351:\n        /* \"#utility.yul\":8898:8901   */\n      0x00\n        /* \"#utility.yul\":8927:8981   */\n      tag_353\n        /* \"#utility.yul\":8975:8980   */\n      dup3\n        /* \"#utility.yul\":8927:8981   */\n      tag_354\n      jump\t// in\n    tag_353:\n        /* \"#utility.yul\":8997:9083   */\n      tag_355\n        /* \"#utility.yul\":9076:9082   */\n      dup2\n        /* \"#utility.yul\":9071:9074   */\n      dup6\n        /* \"#utility.yul\":8997:9083   */\n      tag_356\n      jump\t// in\n    tag_355:\n        /* \"#utility.yul\":8990:9083   */\n      swap4\n      pop\n        /* \"#utility.yul\":9107:9163   */\n      tag_357\n        /* \"#utility.yul\":9157:9162   */\n      dup4\n        /* \"#utility.yul\":9107:9163   */\n      tag_358\n      jump\t// in\n    tag_357:\n        /* \"#utility.yul\":9186:9193   */\n      dup1\n        /* \"#utility.yul\":9217:9218   */\n      0x00\n        /* \"#utility.yul\":9202:9486   */\n    tag_359:\n        /* \"#utility.yul\":9227:9233   */\n      dup4\n        /* \"#utility.yul\":9224:9225   */\n      dup2\n        /* \"#utility.yul\":9221:9234   */\n      lt\n        /* \"#utility.yul\":9202:9486   */\n      iszero\n      tag_361\n      jumpi\n        /* \"#utility.yul\":9303:9309   */\n      dup2\n        /* \"#utility.yul\":9297:9310   */\n      mload\n        /* \"#utility.yul\":9330:9393   */\n      tag_362\n        /* \"#utility.yul\":9389:9392   */\n      dup9\n        /* \"#utility.yul\":9374:9387   */\n      dup3\n        /* \"#utility.yul\":9330:9393   */\n      tag_341\n      jump\t// in\n    tag_362:\n        /* \"#utility.yul\":9323:9393   */\n      swap8\n      pop\n        /* \"#utility.yul\":9416:9476   */\n      tag_363\n        /* \"#utility.yul\":9469:9475   */\n      dup4\n        /* \"#utility.yul\":9416:9476   */\n      tag_364\n      jump\t// in\n    tag_363:\n        /* \"#utility.yul\":9406:9476   */\n      swap3\n      pop\n        /* \"#utility.yul\":9262:9486   */\n      pop\n        /* \"#utility.yul\":9249:9250   */\n      0x01\n        /* \"#utility.yul\":9246:9247   */\n      dup2\n        /* \"#utility.yul\":9242:9251   */\n      add\n        /* \"#utility.yul\":9237:9251   */\n      swap1\n      pop\n        /* \"#utility.yul\":9202:9486   */\n      jump(tag_359)\n    tag_361:\n        /* \"#utility.yul\":9206:9220   */\n      pop\n        /* \"#utility.yul\":9502:9505   */\n      dup6\n        /* \"#utility.yul\":9495:9505   */\n      swap4\n      pop\n        /* \"#utility.yul\":8903:9511   */\n      pop\n      pop\n      pop\n        /* \"#utility.yul\":8779:9511   */\n      swap3\n      swap2\n      pop\n      pop\n      jump\t// out\n        /* \"#utility.yul\":9517:9881   */\n    tag_365:\n        /* \"#utility.yul\":9605:9608   */\n      0x00\n        /* \"#utility.yul\":9633:9672   */\n      tag_367\n        /* \"#utility.yul\":9666:9671   */\n      dup3\n        /* \"#utility.yul\":9633:9672   */\n      tag_368\n      jump\t// in\n    tag_367:\n        /* \"#utility.yul\":9688:9759   */\n      tag_369\n        /* \"#utility.yul\":9752:9758   */\n      dup2\n        /* \"#utility.yul\":9747:9750   */\n      dup6\n        /* \"#utility.yul\":9688:9759   */\n      tag_370\n      jump\t// in\n    tag_369:\n        /* \"#utility.yul\":9681:9759   */\n      swap4\n      pop\n        /* \"#utility.yul\":9768:9820   */\n      tag_371\n        /* \"#utility.yul\":9813:9819   */\n      dup2\n        /* \"#utility.yul\":9808:9811   */\n      dup6\n        /* \"#utility.yul\":9801:9805   */\n      0x20\n        /* \"#utility.yul\":9794:9799   */\n      dup7\n        /* \"#utility.yul\":9790:9806   */\n      add\n        /* \"#utility.yul\":9768:9820   */\n      tag_372\n      jump\t// in\n    tag_371:\n        /* \"#utility.yul\":9845:9874   */\n      tag_373\n        /* \"#utility.yul\":9867:9873   */\n      dup2\n        /* \"#utility.yul\":9845:9874   */\n      tag_374\n      jump\t// in\n    tag_373:\n        /* \"#utility.yul\":9840:9843   */\n      dup5\n        /* \"#utility.yul\":9836:9875   */\n      add\n        /* \"#utility.yul\":9829:9875   */\n      swap2\n      pop\n        /* \"#utility.yul\":9609:9881   */\n      pop\n        /* \"#utility.yul\":9517:9881   */\n      swap3\n      swap2\n      pop\n      pop\n      jump\t// out\n        /* \"#utility.yul\":9887:10253   */\n    tag_375:\n        /* \"#utility.yul\":10029:10032   */\n      0x00\n        /* \"#utility.yul\":10050:10117   */\n      tag_377\n        /* \"#utility.yul\":10114:10116   */\n      0x1b\n        /* \"#utility.yul\":10109:10112   */\n      dup4\n        /* \"#utility.yul\":10050:10117   */\n      tag_370\n      jump\t// in\n    tag_377:\n        /* \"#utility.yul\":10043:10117   */\n      swap2\n      pop\n        /* \"#utility.yul\":10126:10219   */\n      tag_378\n        /* \"#utility.yul\":10215:10218   */\n      dup3\n        /* \"#utility.yul\":10126:10219   */\n      tag_379\n      jump\t// in\n    tag_378:\n        /* \"#utility.yul\":10244:10246   */\n      0x20\n        /* \"#utility.yul\":10239:10242   */\n      dup3\n        /* \"#utility.yul\":10235:10247   */\n      add\n        /* \"#utility.yul\":10228:10247   */\n      swap1\n      pop\n        /* \"#utility.yul\":9887:10253   */\n      swap2\n      swap1\n      pop\n      jump\t// out\n        /* \"#utility.yul\":10259:10625   */\n    tag_380:\n        /* \"#utility.yul\":10401:10404   */\n      0x00\n        /* \"#utility.yul\":10422:10489   */\n      tag_382\n        /* \"#utility.yul\":10486:10488   */\n      0x21\n        /* \"#utility.yul\":10481:10484   */\n      dup4\n        /* \"#utility.yul\":10422:10489   */\n      tag_370\n      jump\t// in\n    tag_382:\n        /* \"#utility.yul\":10415:10489   */\n      swap2\n      pop\n        /* \"#utility.yul\":10498:10591   */\n      tag_383\n        /* \"#utility.yul\":10587:10590   */\n      dup3\n        /* \"#utility.yul\":10498:10591   */\n      tag_384\n      jump\t// in\n    tag_383:\n        /* \"#utility.yul\":10616:10618   */\n      0x40\n        /* \"#utility.yul\":10611:10614   */\n      dup3\n        /* \"#utility.yul\":10607:10619   */\n      add\n        /* \"#utility.yul\":10600:10619   */\n      swap1\n      pop\n        /* \"#utility.yul\":10259:10625   */\n      swap2\n      swap1\n      pop\n      jump\t// out\n        /* \"#utility.yul\":10631:10749   */\n    tag_385:\n        /* \"#utility.yul\":10718:10742   */\n      tag_387\n        /* \"#utility.yul\":10736:10741   */\n      dup2\n        /* \"#utility.yul\":10718:10742   */\n      tag_388\n      jump\t// in\n    tag_387:\n        /* \"#utility.yul\":10713:10716   */\n      dup3\n        /* \"#utility.yul\":10706:10743   */\n      mstore\n        /* \"#utility.yul\":10631:10749   */\n      pop\n      pop\n      jump\t// out\n        /* \"#utility.yul\":10755:10977   */\n    tag_30:\n        /* \"#utility.yul\":10848:10852   */\n      0x00\n        /* \"#utility.yul\":10886:10888   */\n      0x20\n        /* \"#utility.yul\":10875:10884   */\n      dup3\n        /* \"#utility.yul\":10871:10889   */\n      add\n        /* \"#utility.yul\":10863:10889   */\n      swap1\n      pop\n        /* \"#utility.yul\":10899:10970   */\n      tag_390\n        /* \"#utility.yul\":10967:10968   */\n      0x00\n        /* \"#utility.yul\":10956:10965   */\n      dup4\n        /* \"#utility.yul\":10952:10969   */\n      add\n        /* \"#utility.yul\":10943:10949   */\n      dup5\n        /* \"#utility.yul\":10899:10970   */\n      tag_348\n      jump\t// in\n    tag_390:\n        /* \"#utility.yul\":10755:10977   */\n      swap3\n      swap2\n      pop\n      pop\n      jump\t// out\n        /* \"#utility.yul\":10983:11296   */\n    tag_227:\n        /* \"#utility.yul\":11096:11100   */\n      0x00\n        /* \"#utility.yul\":11134:11136   */\n      0x20\n        /* \"#utility.yul\":11123:11132   */\n      dup3\n        /* \"#utility.yul\":11119:11137   */\n      add\n        /* \"#utility.yul\":11111:11137   */\n      swap1\n      pop\n        /* \"#utility.yul\":11183:11192   */\n      dup2\n        /* \"#utility.yul\":11177:11181   */\n      dup2\n        /* \"#utility.yul\":11173:11193   */\n      sub\n        /* \"#utility.yul\":11169:11170   */\n      0x00\n        /* \"#utility.yul\":11158:11167   */\n      dup4\n        /* \"#utility.yul\":11154:11171   */\n      add\n        /* \"#utility.yul\":11147:11194   */\n      mstore\n        /* \"#utility.yul\":11211:11289   */\n      tag_392\n        /* \"#utility.yul\":11284:11288   */\n      dup2\n        /* \"#utility.yul\":11275:11281   */\n      dup5\n        /* \"#utility.yul\":11211:11289   */\n      tag_365\n      jump\t// in\n    tag_392:\n        /* \"#utility.yul\":11203:11289   */\n      swap1\n      pop\n        /* \"#utility.yul\":10983:11296   */\n      swap3\n      swap2\n      pop\n      pop\n      jump\t// out\n        /* \"#utility.yul\":11302:11721   */\n    tag_220:\n        /* \"#utility.yul\":11468:11472   */\n      0x00\n        /* \"#utility.yul\":11506:11508   */\n      0x20\n        /* \"#utility.yul\":11495:11504   */\n      dup3\n        /* \"#utility.yul\":11491:11509   */\n      add\n        /* \"#utility.yul\":11483:11509   */\n      swap1\n      pop\n        /* \"#utility.yul\":11555:11564   */\n      dup2\n        /* \"#utility.yul\":11549:11553   */\n      dup2\n        /* \"#utility.yul\":11545:11565   */\n      sub\n        /* \"#utility.yul\":11541:11542   */\n      0x00\n        /* \"#utility.yul\":11530:11539   */\n      dup4\n        /* \"#utility.yul\":11526:11543   */\n      add\n        /* \"#utility.yul\":11519:11566   */\n      mstore\n        /* \"#utility.yul\":11583:11714   */\n      tag_394\n        /* \"#utility.yul\":11709:11713   */\n      dup2\n        /* \"#utility.yul\":11583:11714   */\n      tag_375\n      jump\t// in\n    tag_394:\n        /* \"#utility.yul\":11575:11714   */\n      swap1\n      pop\n        /* \"#utility.yul\":11302:11721   */\n      swap2\n      swap1\n      pop\n      jump\t// out\n        /* \"#utility.yul\":11727:12146   */\n    tag_214:\n        /* \"#utility.yul\":11893:11897   */\n      0x00\n        /* \"#utility.yul\":11931:11933   */\n      0x20\n        /* \"#utility.yul\":11920:11929   */\n      dup3\n        /* \"#utility.yul\":11916:11934   */\n      add\n        /* \"#utility.yul\":11908:11934   */\n      swap1\n      pop\n        /* \"#utility.yul\":11980:11989   */\n      dup2\n        /* \"#utility.yul\":11974:11978   */\n      dup2\n        /* \"#utility.yul\":11970:11990   */\n      sub\n        /* \"#utility.yul\":11966:11967   */\n      0x00\n        /* \"#utility.yul\":11955:11964   */\n      dup4\n        /* \"#utility.yul\":11951:11968   */\n      add\n        /* \"#utility.yul\":11944:11991   */\n      mstore\n        /* \"#utility.yul\":12008:12139   */\n      tag_396\n        /* \"#utility.yul\":12134:12138   */\n      dup2\n        /* \"#utility.yul\":12008:12139   */\n      tag_380\n      jump\t// in\n    tag_396:\n        /* \"#utility.yul\":12000:12139   */\n      swap1\n      pop\n        /* \"#utility.yul\":11727:12146   */\n      swap2\n      swap1\n      pop\n      jump\t// out\n        /* \"#utility.yul\":12152:12374   */\n    tag_16:\n        /* \"#utility.yul\":12245:12249   */\n      0x00\n        /* \"#utility.yul\":12283:12285   */\n      0x20\n        /* \"#utility.yul\":12272:12281   */\n      dup3\n        /* \"#utility.yul\":12268:12286   */\n      add\n        /* \"#utility.yul\":12260:12286   */\n      swap1\n      pop\n        /* \"#utility.yul\":12296:12367   */\n      tag_398\n        /* \"#utility.yul\":12364:12365   */\n      0x00\n        /* \"#utility.yul\":12353:12362   */\n      dup4\n        /* \"#utility.yul\":12349:12366   */\n      add\n        /* \"#utility.yul\":12340:12346   */\n      dup5\n        /* \"#utility.yul\":12296:12367   */\n      tag_385\n      jump\t// in\n    tag_398:\n        /* \"#utility.yul\":12152:12374   */\n      swap3\n      swap2\n      pop\n      pop\n      jump\t// out\n        /* \"#utility.yul\":12380:12863   */\n    tag_53:\n        /* \"#utility.yul\":12551:12555   */\n      0x00\n        /* \"#utility.yul\":12589:12591   */\n      0x40\n        /* \"#utility.yul\":12578:12587   */\n      dup3\n        /* \"#utility.yul\":12574:12592   */\n      add\n        /* \"#utility.yul\":12566:12592   */\n      swap1\n      pop\n        /* \"#utility.yul\":12602:12673   */\n      tag_400\n        /* \"#utility.yul\":12670:12671   */\n      0x00\n        /* \"#utility.yul\":12659:12668   */\n      dup4\n        /* \"#utility.yul\":12655:12672   */\n      add\n        /* \"#utility.yul\":12646:12652   */\n      dup6\n        /* \"#utility.yul\":12602:12673   */\n      tag_385\n      jump\t// in\n    tag_400:\n        /* \"#utility.yul\":12720:12729   */\n      dup2\n        /* \"#utility.yul\":12714:12718   */\n      dup2\n        /* \"#utility.yul\":12710:12730   */\n      sub\n        /* \"#utility.yul\":12705:12707   */\n      0x20\n        /* \"#utility.yul\":12694:12703   */\n      dup4\n        /* \"#utility.yul\":12690:12708   */\n      add\n        /* \"#utility.yul\":12683:12731   */\n      mstore\n        /* \"#utility.yul\":12748:12856   */\n      tag_401\n        /* \"#utility.yul\":12851:12855   */\n      dup2\n        /* \"#utility.yul\":12842:12848   */\n      dup5\n        /* \"#utility.yul\":12748:12856   */\n      tag_351\n      jump\t// in\n    tag_401:\n        /* \"#utility.yul\":12740:12856   */\n      swap1\n      pop\n        /* \"#utility.yul\":12380:12863   */\n      swap4\n      swap3\n      pop\n      pop\n      pop\n      jump\t// out\n        /* \"#utility.yul\":12869:12998   */\n    tag_235:\n        /* \"#utility.yul\":12903:12909   */\n      0x00\n        /* \"#utility.yul\":12930:12950   */\n      tag_403\n      tag_404\n      jump\t// in\n    tag_403:\n        /* \"#utility.yul\":12920:12950   */\n      swap1\n      pop\n        /* \"#utility.yul\":12959:12992   */\n      tag_405\n        /* \"#utility.yul\":12987:12991   */\n      dup3\n        /* \"#utility.yul\":12979:12985   */\n      dup3\n        /* \"#utility.yul\":12959:12992   */\n      tag_406\n      jump\t// in\n    tag_405:\n        /* \"#utility.yul\":12869:12998   */\n      swap2\n      swap1\n      pop\n      jump\t// out\n        /* \"#utility.yul\":13004:13079   */\n    tag_404:\n        /* \"#utility.yul\":13037:13043   */\n      0x00\n        /* \"#utility.yul\":13070:13072   */\n      0x40\n        /* \"#utility.yul\":13064:13073   */\n      mload\n        /* \"#utility.yul\":13054:13073   */\n      swap1\n      pop\n        /* \"#utility.yul\":13004:13079   */\n      swap1\n      jump\t// out\n        /* \"#utility.yul\":13085:13396   */\n    tag_234:\n        /* \"#utility.yul\":13162:13166   */\n      0x00\n        /* \"#utility.yul\":13252:13270   */\n      0xffffffffffffffff\n        /* \"#utility.yul\":13244:13250   */\n      dup3\n        /* \"#utility.yul\":13241:13271   */\n      gt\n        /* \"#utility.yul\":13238:13294   */\n      iszero\n      tag_409\n      jumpi\n        /* \"#utility.yul\":13274:13292   */\n      tag_410\n      tag_45\n      jump\t// in\n    tag_410:\n        /* \"#utility.yul\":13238:13294   */\n    tag_409:\n        /* \"#utility.yul\":13324:13328   */\n      0x20\n        /* \"#utility.yul\":13316:13322   */\n      dup3\n        /* \"#utility.yul\":13312:13329   */\n      mul\n        /* \"#utility.yul\":13304:13329   */\n      swap1\n      pop\n        /* \"#utility.yul\":13384:13388   */\n      0x20\n        /* \"#utility.yul\":13378:13382   */\n      dup2\n        /* \"#utility.yul\":13374:13389   */\n      add\n        /* \"#utility.yul\":13366:13389   */\n      swap1\n      pop\n        /* \"#utility.yul\":13085:13396   */\n      swap2\n      swap1\n      pop\n      jump\t// out\n        /* \"#utility.yul\":13402:13534   */\n    tag_358:\n        /* \"#utility.yul\":13469:13473   */\n      0x00\n        /* \"#utility.yul\":13492:13495   */\n      dup2\n        /* \"#utility.yul\":13484:13495   */\n      swap1\n      pop\n        /* \"#utility.yul\":13522:13526   */\n      0x20\n        /* \"#utility.yul\":13517:13520   */\n      dup3\n        /* \"#utility.yul\":13513:13527   */\n      add\n        /* \"#utility.yul\":13505:13527   */\n      swap1\n      pop\n        /* \"#utility.yul\":13402:13534   */\n      swap2\n      swap1\n      pop\n      jump\t// out\n        /* \"#utility.yul\":13540:13654   */\n    tag_354:\n        /* \"#utility.yul\":13607:13613   */\n      0x00\n        /* \"#utility.yul\":13641:13646   */\n      dup2\n        /* \"#utility.yul\":13635:13647   */\n      mload\n        /* \"#utility.yul\":13625:13647   */\n      swap1\n      pop\n        /* \"#utility.yul\":13540:13654   */\n      swap2\n      swap1\n      pop\n      jump\t// out\n        /* \"#utility.yul\":13660:13759   */\n    tag_368:\n        /* \"#utility.yul\":13712:13718   */\n      0x00\n        /* \"#utility.yul\":13746:13751   */\n      dup2\n        /* \"#utility.yul\":13740:13752   */\n      mload\n        /* \"#utility.yul\":13730:13752   */\n      swap1\n      pop\n        /* \"#utility.yul\":13660:13759   */\n      swap2\n      swap1\n      pop\n      jump\t// out\n        /* \"#utility.yul\":13765:13878   */\n    tag_364:\n        /* \"#utility.yul\":13835:13839   */\n      0x00\n        /* \"#utility.yul\":13867:13871   */\n      0x20\n        /* \"#utility.yul\":13862:13865   */\n      dup3\n        /* \"#utility.yul\":13858:13872   */\n      add\n        /* \"#utility.yul\":13850:13872   */\n      swap1\n      pop\n        /* \"#utility.yul\":13765:13878   */\n      swap2\n      swap1\n      pop\n      jump\t// out\n        /* \"#utility.yul\":13884:14068   */\n    tag_356:\n        /* \"#utility.yul\":13983:13994   */\n      0x00\n        /* \"#utility.yul\":14017:14023   */\n      dup3\n        /* \"#utility.yul\":14012:14015   */\n      dup3\n        /* \"#utility.yul\":14005:14024   */\n      mstore\n        /* \"#utility.yul\":14057:14061   */\n      0x20\n        /* \"#utility.yul\":14052:14055   */\n      dup3\n        /* \"#utility.yul\":14048:14062   */\n      add\n        /* \"#utility.yul\":14033:14062   */\n      swap1\n      pop\n        /* \"#utility.yul\":13884:14068   */\n      swap3\n      swap2\n      pop\n      pop\n      jump\t// out\n        /* \"#utility.yul\":14074:14243   */\n    tag_370:\n        /* \"#utility.yul\":14158:14169   */\n      0x00\n        /* \"#utility.yul\":14192:14198   */\n      dup3\n        /* \"#utility.yul\":14187:14190   */\n      dup3\n        /* \"#utility.yul\":14180:14199   */\n      mstore\n        /* \"#utility.yul\":14232:14236   */\n      0x20\n        /* \"#utility.yul\":14227:14230   */\n      dup3\n        /* \"#utility.yul\":14223:14237   */\n      add\n        /* \"#utility.yul\":14208:14237   */\n      swap1\n      pop\n        /* \"#utility.yul\":14074:14243   */\n      swap3\n      swap2\n      pop\n      pop\n      jump\t// out\n        /* \"#utility.yul\":14249:14554   */\n    tag_217:\n        /* \"#utility.yul\":14289:14292   */\n      0x00\n        /* \"#utility.yul\":14308:14328   */\n      tag_418\n        /* \"#utility.yul\":14326:14327   */\n      dup3\n        /* \"#utility.yul\":14308:14328   */\n      tag_388\n      jump\t// in\n    tag_418:\n        /* \"#utility.yul\":14303:14328   */\n      swap2\n      pop\n        /* \"#utility.yul\":14342:14362   */\n      tag_419\n        /* \"#utility.yul\":14360:14361   */\n      dup4\n        /* \"#utility.yul\":14342:14362   */\n      tag_388\n      jump\t// in\n    tag_419:\n        /* \"#utility.yul\":14337:14362   */\n      swap3\n      pop\n        /* \"#utility.yul\":14496:14497   */\n      dup3\n        /* \"#utility.yul\":14428:14494   */\n      0xffffffffffffffffffffffffffffffffffffffffffffffffffffffffffffffff\n        /* \"#utility.yul\":14424:14498   */\n      sub\n        /* \"#utility.yul\":14421:14422   */\n      dup3\n        /* \"#utility.yul\":14418:14499   */\n      gt\n        /* \"#utility.yul\":14415:14522   */\n      iszero\n      tag_420\n      jumpi\n        /* \"#utility.yul\":14502:14520   */\n      tag_421\n      tag_422\n      jump\t// in\n    tag_421:\n        /* \"#utility.yul\":14415:14522   */\n    tag_420:\n        /* \"#utility.yul\":14546:14547   */\n      dup3\n        /* \"#utility.yul\":14543:14544   */\n      dup3\n        /* \"#utility.yul\":14539:14548   */\n      add\n        /* \"#utility.yul\":14532:14548   */\n      swap1\n      pop\n        /* \"#utility.yul\":14249:14554   */\n      swap3\n      swap2\n      pop\n      pop\n      jump\t// out\n        /* \"#utility.yul\":14560:14745   */\n    tag_211:\n        /* \"#utility.yul\":14600:14601   */\n      0x00\n        /* \"#utility.yul\":14617:14637   */\n      tag_424\n        /* \"#utility.yul\":14635:14636   */\n      dup3\n        /* \"#utility.yul\":14617:14637   */\n      tag_388\n      jump\t// in\n    tag_424:\n        /* \"#utility.yul\":14612:14637   */\n      swap2\n      pop\n        /* \"#utility.yul\":14651:14671   */\n      tag_425\n        /* \"#utility.yul\":14669:14670   */\n      dup4\n        /* \"#utility.yul\":14651:14671   */\n      tag_388\n      jump\t// in\n    tag_425:\n        /* \"#utility.yul\":14646:14671   */\n      swap3\n      pop\n        /* \"#utility.yul\":14690:14691   */\n      dup3\n        /* \"#utility.yul\":14680:14715   */\n      tag_426\n      jumpi\n        /* \"#utility.yul\":14695:14713   */\n      tag_427\n      tag_428\n      jump\t// in\n    tag_427:\n        /* \"#utility.yul\":14680:14715   */\n    tag_426:\n        /* \"#utility.yul\":14737:14738   */\n      dup3\n        /* \"#utility.yul\":14734:14735   */\n      dup3\n        /* \"#utility.yul\":14730:14739   */\n      div\n        /* \"#utility.yul\":14725:14739   */\n      swap1\n      pop\n        /* \"#utility.yul\":14560:14745   */\n      swap3\n      swap2\n      pop\n      pop\n      jump\t// out\n        /* \"#utility.yul\":14751:15099   */\n    tag_160:\n        /* \"#utility.yul\":14791:14798   */\n      0x00\n        /* \"#utility.yul\":14814:14834   */\n      tag_430\n        /* \"#utility.yul\":14832:14833   */\n      dup3\n        /* \"#utility.yul\":14814:14834   */\n      tag_388\n      jump\t// in\n    tag_430:\n        /* \"#utility.yul\":14809:14834   */\n      swap2\n      pop\n        /* \"#utility.yul\":14848:14868   */\n      tag_431\n        /* \"#utility.yul\":14866:14867   */\n      dup4\n        /* \"#utility.yul\":14848:14868   */\n      tag_388\n      jump\t// in\n    tag_431:\n        /* \"#utility.yul\":14843:14868   */\n      swap3\n      pop\n        /* \"#utility.yul\":15036:15037   */\n      dup2\n        /* \"#utility.yul\":14968:15034   */\n      0xffffffffffffffffffffffffffffffffffffffffffffffffffffffffffffffff\n        /* \"#utility.yul\":14964:15038   */\n      div\n        /* \"#utility.yul\":14961:14962   */\n      dup4\n        /* \"#utility.yul\":14958:15039   */\n      gt\n        /* \"#utility.yul\":14953:14954   */\n      dup3\n        /* \"#utility.yul\":14946:14955   */\n      iszero\n        /* \"#utility.yul\":14939:14956   */\n      iszero\n        /* \"#utility.yul\":14935:15040   */\n      and\n        /* \"#utility.yul\":14932:15063   */\n      iszero\n      tag_432\n      jumpi\n        /* \"#utility.yul\":15043:15061   */\n      tag_433\n      tag_422\n      jump\t// in\n    tag_433:\n        /* \"#utility.yul\":14932:15063   */\n    tag_432:\n        /* \"#utility.yul\":15091:15092   */\n      dup3\n        /* \"#utility.yul\":15088:15089   */\n      dup3\n        /* \"#utility.yul\":15084:15093   */\n      mul\n        /* \"#utility.yul\":15073:15093   */\n      swap1\n      pop\n        /* \"#utility.yul\":14751:15099   */\n      swap3\n      swap2\n      pop\n      pop\n      jump\t// out\n        /* \"#utility.yul\":15105:15201   */\n    tag_347:\n        /* \"#utility.yul\":15142:15149   */\n      0x00\n        /* \"#utility.yul\":15171:15195   */\n      tag_435\n        /* \"#utility.yul\":15189:15194   */\n      dup3\n        /* \"#utility.yul\":15171:15195   */\n      tag_436\n      jump\t// in\n    tag_435:\n        /* \"#utility.yul\":15160:15195   */\n      swap1\n      pop\n        /* \"#utility.yul\":15105:15201   */\n      swap2\n      swap1\n      pop\n      jump\t// out\n        /* \"#utility.yul\":15207:15297   */\n    tag_437:\n        /* \"#utility.yul\":15241:15248   */\n      0x00\n        /* \"#utility.yul\":15284:15289   */\n      dup2\n        /* \"#utility.yul\":15277:15290   */\n      iszero\n        /* \"#utility.yul\":15270:15291   */\n      iszero\n        /* \"#utility.yul\":15259:15291   */\n      swap1\n      pop\n        /* \"#utility.yul\":15207:15297   */\n      swap2\n      swap1\n      pop\n      jump\t// out\n        /* \"#utility.yul\":15303:15413   */\n    tag_439:\n        /* \"#utility.yul\":15354:15361   */\n      0x00\n        /* \"#utility.yul\":15383:15407   */\n      tag_441\n        /* \"#utility.yul\":15401:15406   */\n      dup3\n        /* \"#utility.yul\":15383:15407   */\n      tag_347\n      jump\t// in\n    tag_441:\n        /* \"#utility.yul\":15372:15407   */\n      swap1\n      pop\n        /* \"#utility.yul\":15303:15413   */\n      swap2\n      swap1\n      pop\n      jump\t// out\n        /* \"#utility.yul\":15419:15534   */\n    tag_442:\n        /* \"#utility.yul\":15475:15482   */\n      0x00\n        /* \"#utility.yul\":15504:15528   */\n      tag_444\n        /* \"#utility.yul\":15522:15527   */\n      dup3\n        /* \"#utility.yul\":15504:15528   */\n      tag_347\n      jump\t// in\n    tag_444:\n        /* \"#utility.yul\":15493:15528   */\n      swap1\n      pop\n        /* \"#utility.yul\":15419:15534   */\n      swap2\n      swap1\n      pop\n      jump\t// out\n        /* \"#utility.yul\":15540:15646   */\n    tag_445:\n        /* \"#utility.yul\":15587:15594   */\n      0x00\n        /* \"#utility.yul\":15616:15640   */\n      tag_447\n        /* \"#utility.yul\":15634:15639   */\n      dup3\n        /* \"#utility.yul\":15616:15640   */\n      tag_347\n      jump\t// in\n    tag_447:\n        /* \"#utility.yul\":15605:15640   */\n      swap1\n      pop\n        /* \"#utility.yul\":15540:15646   */\n      swap2\n      swap1\n      pop\n      jump\t// out\n        /* \"#utility.yul\":15652:15770   */\n    tag_448:\n        /* \"#utility.yul\":15711:15718   */\n      0x00\n        /* \"#utility.yul\":15740:15764   */\n      tag_450\n        /* \"#utility.yul\":15758:15763   */\n      dup3\n        /* \"#utility.yul\":15740:15764   */\n      tag_347\n      jump\t// in\n    tag_450:\n        /* \"#utility.yul\":15729:15764   */\n      swap1\n      pop\n        /* \"#utility.yul\":15652:15770   */\n      swap2\n      swap1\n      pop\n      jump\t// out\n        /* \"#utility.yul\":15776:15886   */\n    tag_451:\n        /* \"#utility.yul\":15827:15834   */\n      0x00\n        /* \"#utility.yul\":15856:15880   */\n      tag_453\n        /* \"#utility.yul\":15874:15879   */\n      dup3\n        /* \"#utility.yul\":15856:15880   */\n      tag_347\n      jump\t// in\n    tag_453:\n        /* \"#utility.yul\":15845:15880   */\n      swap1\n      pop\n        /* \"#utility.yul\":15776:15886   */\n      swap2\n      swap1\n      pop\n      jump\t// out\n        /* \"#utility.yul\":15892:16018   */\n    tag_436:\n        /* \"#utility.yul\":15929:15936   */\n      0x00\n        /* \"#utility.yul\":15969:16011   */\n      0xffffffffffffffffffffffffffffffffffffffff\n        /* \"#utility.yul\":15962:15967   */\n      dup3\n        /* \"#utility.yul\":15958:16012   */\n      and\n        /* \"#utility.yul\":15947:16012   */\n      swap1\n      pop\n        /* \"#utility.yul\":15892:16018   */\n      swap2\n      swap1\n      pop\n      jump\t// out\n        /* \"#utility.yul\":16024:16101   */\n    tag_388:\n        /* \"#utility.yul\":16061:16068   */\n      0x00\n        /* \"#utility.yul\":16090:16095   */\n      dup2\n        /* \"#utility.yul\":16079:16095   */\n      swap1\n      pop\n        /* \"#utility.yul\":16024:16101   */\n      swap2\n      swap1\n      pop\n      jump\t// out\n        /* \"#utility.yul\":16107:16414   */\n    tag_372:\n        /* \"#utility.yul\":16175:16176   */\n      0x00\n        /* \"#utility.yul\":16185:16298   */\n    tag_457:\n        /* \"#utility.yul\":16199:16205   */\n      dup4\n        /* \"#utility.yul\":16196:16197   */\n      dup2\n        /* \"#utility.yul\":16193:16206   */\n      lt\n        /* \"#utility.yul\":16185:16298   */\n      iszero\n      tag_459\n      jumpi\n        /* \"#utility.yul\":16284:16285   */\n      dup1\n        /* \"#utility.yul\":16279:16282   */\n      dup3\n        /* \"#utility.yul\":16275:16286   */\n      add\n        /* \"#utility.yul\":16269:16287   */\n      mload\n        /* \"#utility.yul\":16265:16266   */\n      dup2\n        /* \"#utility.yul\":16260:16263   */\n      dup5\n        /* \"#utility.yul\":16256:16267   */\n      add\n        /* \"#utility.yul\":16249:16288   */\n      mstore\n        /* \"#utility.yul\":16221:16223   */\n      0x20\n        /* \"#utility.yul\":16218:16219   */\n      dup2\n        /* \"#utility.yul\":16214:16224   */\n      add\n        /* \"#utility.yul\":16209:16224   */\n      swap1\n      pop\n        /* \"#utility.yul\":16185:16298   */\n      jump(tag_457)\n    tag_459:\n        /* \"#utility.yul\":16316:16322   */\n      dup4\n        /* \"#utility.yul\":16313:16314   */\n      dup2\n        /* \"#utility.yul\":16310:16323   */\n      gt\n        /* \"#utility.yul\":16307:16408   */\n      iszero\n      tag_460\n      jumpi\n        /* \"#utility.yul\":16396:16397   */\n      0x00\n        /* \"#utility.yul\":16387:16393   */\n      dup5\n        /* \"#utility.yul\":16382:16385   */\n      dup5\n        /* \"#utility.yul\":16378:16394   */\n      add\n        /* \"#utility.yul\":16371:16398   */\n      mstore\n        /* \"#utility.yul\":16307:16408   */\n    tag_460:\n        /* \"#utility.yul\":16156:16414   */\n      pop\n        /* \"#utility.yul\":16107:16414   */\n      pop\n      pop\n      pop\n      jump\t// out\n        /* \"#utility.yul\":16420:16701   */\n    tag_406:\n        /* \"#utility.yul\":16503:16530   */\n      tag_462\n        /* \"#utility.yul\":16525:16529   */\n      dup3\n        /* \"#utility.yul\":16503:16530   */\n      tag_374\n      jump\t// in\n    tag_462:\n        /* \"#utility.yul\":16495:16501   */\n      dup2\n        /* \"#utility.yul\":16491:16531   */\n      add\n        /* \"#utility.yul\":16633:16639   */\n      dup2\n        /* \"#utility.yul\":16621:16631   */\n      dup2\n        /* \"#utility.yul\":16618:16640   */\n      lt\n        /* \"#utility.yul\":16597:16615   */\n      0xffffffffffffffff\n        /* \"#utility.yul\":16585:16595   */\n      dup3\n        /* \"#utility.yul\":16582:16616   */\n      gt\n        /* \"#utility.yul\":16579:16641   */\n      or\n        /* \"#utility.yul\":16576:16664   */\n      iszero\n      tag_463\n      jumpi\n        /* \"#utility.yul\":16644:16662   */\n      tag_464\n      tag_45\n      jump\t// in\n    tag_464:\n        /* \"#utility.yul\":16576:16664   */\n    tag_463:\n        /* \"#utility.yul\":16684:16694   */\n      dup1\n        /* \"#utility.yul\":16680:16682   */\n      0x40\n        /* \"#utility.yul\":16673:16695   */\n      mstore\n        /* \"#utility.yul\":16463:16701   */\n      pop\n        /* \"#utility.yul\":16420:16701   */\n      pop\n      pop\n      jump\t// out\n        /* \"#utility.yul\":16707:16887   */\n    tag_422:\n        /* \"#utility.yul\":16755:16832   */\n      0x4e487b7100000000000000000000000000000000000000000000000000000000\n        /* \"#utility.yul\":16752:16753   */\n      0x00\n        /* \"#utility.yul\":16745:16833   */\n      mstore\n        /* \"#utility.yul\":16852:16856   */\n      0x11\n        /* \"#utility.yul\":16849:16850   */\n      0x04\n        /* \"#utility.yul\":16842:16857   */\n      mstore\n        /* \"#utility.yul\":16876:16880   */\n      0x24\n        /* \"#utility.yul\":16873:16874   */\n      0x00\n        /* \"#utility.yul\":16866:16881   */\n      revert\n        /* \"#utility.yul\":16893:17073   */\n    tag_428:\n        /* \"#utility.yul\":16941:17018   */\n      0x4e487b7100000000000000000000000000000000000000000000000000000000\n        /* \"#utility.yul\":16938:16939   */\n      0x00\n        /* \"#utility.yul\":16931:17019   */\n      mstore\n        /* \"#utility.yul\":17038:17042   */\n      0x12\n        /* \"#utility.yul\":17035:17036   */\n      0x04\n        /* \"#utility.yul\":17028:17043   */\n      mstore\n        /* \"#utility.yul\":17062:17066   */\n      0x24\n        /* \"#utility.yul\":17059:17060   */\n      0x00\n        /* \"#utility.yul\":17052:17067   */\n      revert\n        /* \"#utility.yul\":17079:17259   */\n    tag_49:\n        /* \"#utility.yul\":17127:17204   */\n      0x4e487b7100000000000000000000000000000000000000000000000000000000\n        /* \"#utility.yul\":17124:17125   */\n      0x00\n        /* \"#utility.yul\":17117:17205   */\n      mstore\n        /* \"#utility.yul\":17224:17228   */\n      0x32\n        /* \"#utility.yul\":17221:17222   */\n      0x04\n        /* \"#utility.yul\":17214:17229   */\n      mstore\n        /* \"#utility.yul\":17248:17252   */\n      0x24\n        /* \"#utility.yul\":17245:17246   */\n      0x00\n        /* \"#utility.yul\":17238:17253   */\n      revert\n        /* \"#utility.yul\":17265:17445   */\n    tag_45:\n        /* \"#utility.yul\":17313:17390   */\n      0x4e487b7100000000000000000000000000000000000000000000000000000000\n        /* \"#utility.yul\":17310:17311   */\n      0x00\n        /* \"#utility.yul\":17303:17391   */\n      mstore\n        /* \"#utility.yul\":17410:17414   */\n      0x41\n        /* \"#utility.yul\":17407:17408   */\n      0x04\n        /* \"#utility.yul\":17400:17415   */\n      mstore\n        /* \"#utility.yul\":17434:17438   */\n      0x24\n        /* \"#utility.yul\":17431:17432   */\n      0x00\n        /* \"#utility.yul\":17424:17439   */\n      revert\n        /* \"#utility.yul\":17451:17568   */\n    tag_255:\n        /* \"#utility.yul\":17560:17561   */\n      0x00\n        /* \"#utility.yul\":17557:17558   */\n      dup1\n        /* \"#utility.yul\":17550:17562   */\n      revert\n        /* \"#utility.yul\":17574:17691   */\n    tag_285:\n        /* \"#utility.yul\":17683:17684   */\n      0x00\n        /* \"#utility.yul\":17680:17681   */\n      dup1\n        /* \"#utility.yul\":17673:17685   */\n      revert\n        /* \"#utility.yul\":17820:17937   */\n    tag_238:\n        /* \"#utility.yul\":17929:17930   */\n      0x00\n        /* \"#utility.yul\":17926:17927   */\n      dup1\n        /* \"#utility.yul\":17919:17931   */\n      revert\n        /* \"#utility.yul\":17943:18060   */\n    tag_309:\n        /* \"#utility.yul\":18052:18053   */\n      0x00\n        /* \"#utility.yul\":18049:18050   */\n      dup1\n        /* \"#utility.yul\":18042:18054   */\n      revert\n        /* \"#utility.yul\":18066:18183   */\n    tag_302:\n        /* \"#utility.yul\":18175:18176   */\n      0x00\n        /* \"#utility.yul\":18172:18173   */\n      dup1\n        /* \"#utility.yul\":18165:18177   */\n      revert\n        /* \"#utility.yul\":18189:18291   */\n    tag_374:\n        /* \"#utility.yul\":18230:18236   */\n      0x00\n        /* \"#utility.yul\":18281:18283   */\n      0x1f\n        /* \"#utility.yul\":18277:18284   */\n      not\n        /* \"#utility.yul\":18272:18274   */\n      0x1f\n        /* \"#utility.yul\":18265:18270   */\n      dup4\n        /* \"#utility.yul\":18261:18275   */\n      add\n        /* \"#utility.yul\":18257:18285   */\n      and\n        /* \"#utility.yul\":18247:18285   */\n      swap1\n      pop\n        /* \"#utility.yul\":18189:18291   */\n      swap2\n      swap1\n      pop\n      jump\t// out\n        /* \"#utility.yul\":18297:18474   */\n    tag_379:\n        /* \"#utility.yul\":18437:18466   */\n      0x536166654d6174683a206164646974696f6e206f766572666c6f770000000000\n        /* \"#utility.yul\":18433:18434   */\n      0x00\n        /* \"#utility.yul\":18425:18431   */\n      dup3\n        /* \"#utility.yul\":18421:18435   */\n      add\n        /* \"#utility.yul\":18414:18467   */\n      mstore\n        /* \"#utility.yul\":18297:18474   */\n      pop\n      jump\t// out\n        /* \"#utility.yul\":18480:18700   */\n    tag_384:\n        /* \"#utility.yul\":18620:18654   */\n      0x536166654d6174683a206d756c7469706c69636174696f6e206f766572666c6f\n        /* \"#utility.yul\":18616:18617   */\n      0x00\n        /* \"#utility.yul\":18608:18614   */\n      dup3\n        /* \"#utility.yul\":18604:18618   */\n      add\n        /* \"#utility.yul\":18597:18655   */\n      mstore\n        /* \"#utility.yul\":18689:18692   */\n      0x7700000000000000000000000000000000000000000000000000000000000000\n        /* \"#utility.yul\":18684:18686   */\n      0x20\n        /* \"#utility.yul\":18676:18682   */\n      dup3\n        /* \"#utility.yul\":18672:18687   */\n      add\n        /* \"#utility.yul\":18665:18693   */\n      mstore\n        /* \"#utility.yul\":18480:18700   */\n      pop\n      jump\t// out\n        /* \"#utility.yul\":18706:18828   */\n    tag_247:\n        /* \"#utility.yul\":18779:18803   */\n      tag_480\n        /* \"#utility.yul\":18797:18802   */\n      dup2\n        /* \"#utility.yul\":18779:18803   */\n      tag_347\n      jump\t// in\n    tag_480:\n        /* \"#utility.yul\":18772:18777   */\n      dup2\n        /* \"#utility.yul\":18769:18804   */\n      eq\n        /* \"#utility.yul\":18759:18822   */\n      tag_481\n      jumpi\n        /* \"#utility.yul\":18818:18819   */\n      0x00\n        /* \"#utility.yul\":18815:18816   */\n      dup1\n        /* \"#utility.yul\":18808:18820   */\n      revert\n        /* \"#utility.yul\":18759:18822   */\n    tag_481:\n        /* \"#utility.yul\":18706:18828   */\n      pop\n      jump\t// out\n        /* \"#utility.yul\":18834:18950   */\n    tag_260:\n        /* \"#utility.yul\":18904:18925   */\n      tag_483\n        /* \"#utility.yul\":18919:18924   */\n      dup2\n        /* \"#utility.yul\":18904:18925   */\n      tag_437\n      jump\t// in\n    tag_483:\n        /* \"#utility.yul\":18897:18902   */\n      dup2\n        /* \"#utility.yul\":18894:18926   */\n      eq\n        /* \"#utility.yul\":18884:18944   */\n      tag_484\n      jumpi\n        /* \"#utility.yul\":18940:18941   */\n      0x00\n        /* \"#utility.yul\":18937:18938   */\n      dup1\n        /* \"#utility.yul\":18930:18942   */\n      revert\n        /* \"#utility.yul\":18884:18944   */\n    tag_484:\n        /* \"#utility.yul\":18834:18950   */\n      pop\n      jump\t// out\n        /* \"#utility.yul\":18956:19106   */\n    tag_264:\n        /* \"#utility.yul\":19043:19081   */\n      tag_486\n        /* \"#utility.yul\":19075:19080   */\n      dup2\n        /* \"#utility.yul\":19043:19081   */\n      tag_439\n      jump\t// in\n    tag_486:\n        /* \"#utility.yul\":19036:19041   */\n      dup2\n        /* \"#utility.yul\":19033:19082   */\n      eq\n        /* \"#utility.yul\":19023:19100   */\n      tag_487\n      jumpi\n        /* \"#utility.yul\":19096:19097   */\n      0x00\n        /* \"#utility.yul\":19093:19094   */\n      dup1\n        /* \"#utility.yul\":19086:19098   */\n      revert\n        /* \"#utility.yul\":19023:19100   */\n    tag_487:\n        /* \"#utility.yul\":18956:19106   */\n      pop\n      jump\t// out\n        /* \"#utility.yul\":19112:19272   */\n    tag_268:\n        /* \"#utility.yul\":19204:19247   */\n      tag_489\n        /* \"#utility.yul\":19241:19246   */\n      dup2\n        /* \"#utility.yul\":19204:19247   */\n      tag_442\n      jump\t// in\n    tag_489:\n        /* \"#utility.yul\":19197:19202   */\n      dup2\n        /* \"#utility.yul\":19194:19248   */\n      eq\n        /* \"#utility.yul\":19184:19266   */\n      tag_490\n      jumpi\n        /* \"#utility.yul\":19262:19263   */\n      0x00\n        /* \"#utility.yul\":19259:19260   */\n      dup1\n        /* \"#utility.yul\":19252:19264   */\n      revert\n        /* \"#utility.yul\":19184:19266   */\n    tag_490:\n        /* \"#utility.yul\":19112:19272   */\n      pop\n      jump\t// out\n        /* \"#utility.yul\":19278:19420   */\n    tag_272:\n        /* \"#utility.yul\":19361:19395   */\n      tag_492\n        /* \"#utility.yul\":19389:19394   */\n      dup2\n        /* \"#utility.yul\":19361:19395   */\n      tag_445\n      jump\t// in\n    tag_492:\n        /* \"#utility.yul\":19354:19359   */\n      dup2\n        /* \"#utility.yul\":19351:19396   */\n      eq\n        /* \"#utility.yul\":19341:19414   */\n      tag_493\n      jumpi\n        /* \"#utility.yul\":19410:19411   */\n      0x00\n        /* \"#utility.yul\":19407:19408   */\n      dup1\n        /* \"#utility.yul\":19400:19412   */\n      revert\n        /* \"#utility.yul\":19341:19414   */\n    tag_493:\n        /* \"#utility.yul\":19278:19420   */\n      pop\n      jump\t// out\n        /* \"#utility.yul\":19426:19592   */\n    tag_276:\n        /* \"#utility.yul\":19521:19567   */\n      tag_495\n        /* \"#utility.yul\":19561:19566   */\n      dup2\n        /* \"#utility.yul\":19521:19567   */\n      tag_448\n      jump\t// in\n    tag_495:\n        /* \"#utility.yul\":19514:19519   */\n      dup2\n        /* \"#utility.yul\":19511:19568   */\n      eq\n        /* \"#utility.yul\":19501:19586   */\n      tag_496\n      jumpi\n        /* \"#utility.yul\":19582:19583   */\n      0x00\n        /* \"#utility.yul\":19579:19580   */\n      dup1\n        /* \"#utility.yul\":19572:19584   */\n      revert\n        /* \"#utility.yul\":19501:19586   */\n    tag_496:\n        /* \"#utility.yul\":19426:19592   */\n      pop\n      jump\t// out\n        /* \"#utility.yul\":19598:19748   */\n    tag_280:\n        /* \"#utility.yul\":19685:19723   */\n      tag_498\n        /* \"#utility.yul\":19717:19722   */\n      dup2\n        /* \"#utility.yul\":19685:19723   */\n      tag_451\n      jump\t// in\n    tag_498:\n        /* \"#utility.yul\":19678:19683   */\n      dup2\n        /* \"#utility.yul\":19675:19724   */\n      eq\n        /* \"#utility.yul\":19665:19742   */\n      tag_499\n      jumpi\n        /* \"#utility.yul\":19738:19739   */\n      0x00\n        /* \"#utility.yul\":19735:19736   */\n      dup1\n        /* \"#utility.yul\":19728:19740   */\n      revert\n        /* \"#utility.yul\":19665:19742   */\n    tag_499:\n        /* \"#utility.yul\":19598:19748   */\n      pop\n      jump\t// out\n        /* \"#utility.yul\":19754:19876   */\n    tag_296:\n        /* \"#utility.yul\":19827:19851   */\n      tag_501\n        /* \"#utility.yul\":19845:19850   */\n      dup2\n        /* \"#utility.yul\":19827:19851   */\n      tag_388\n      jump\t// in\n    tag_501:\n        /* \"#utility.yul\":19820:19825   */\n      dup2\n        /* \"#utility.yul\":19817:19852   */\n      eq\n        /* \"#utility.yul\":19807:19870   */\n      tag_502\n      jumpi\n        /* \"#utility.yul\":19866:19867   */\n      0x00\n        /* \"#utility.yul\":19863:19864   */\n      dup1\n        /* \"#utility.yul\":19856:19868   */\n      revert\n        /* \"#utility.yul\":19807:19870   */\n    tag_502:\n        /* \"#utility.yul\":19754:19876   */\n      pop\n      jump\t// out\n\n    auxdata: 0xa264697066735822122094a0a328071baedd897c4e38ef0ed5b1bb4ace4db7bd391e1c2a8e02c664f56064736f6c63430008070033\n}\n",
				"bytecode": {
					"linkReferences": {},
					"object": "608060405273ae13d989dac2f0debff460ac112a837c89baa7cd6000806101000a81548173ffffffffffffffffffffffffffffffffffffffff021916908373ffffffffffffffffffffffffffffffffffffffff1602179055507378867bbeef44f2326bf8ddd1941a4439382ef2a7600160006101000a81548173ffffffffffffffffffffffffffffffffffffffff021916908373ffffffffffffffffffffffffffffffffffffffff160217905550670de0b6b3a764000060025562a066806003553480156100cc57600080fd5b50611f31806100dc6000396000f3fe608060405234801561001057600080fd5b506004361061007d5760003560e01c8063484f4ea91161005b578063484f4ea9146101125780638dd9500214610130578063dbacc97d1461014e578063fe2d40f51461017e5761007d565b8063303289bb14610082578063344e49d9146100b257806345223a21146100e2575b600080fd5b61009c60048036038101906100979190611759565b6101ae565b6040516100a99190611a0d565b60405180910390f35b6100cc60048036038101906100c79190611719565b610373565b6040516100d99190611a0d565b60405180910390f35b6100fc60048036038101906100f791906117f3565b610c50565b6040516101099190611a0d565b60405180910390f35b61011a610d96565b6040516101279190611990565b60405180910390f35b610138610dbc565b6040516101459190611990565b60405180910390f35b61016860048036038101906101639190611759565b610de0565b6040516101759190611a0d565b60405180910390f35b610198600480360381019061019391906117f3565b611014565b6040516101a59190611a0d565b60405180910390f35b600080600267ffffffffffffffff8111156101cc576101cb611d72565b5b6040519080825280602002602001820160405280156101fa5781602001602082028036833780820191505090505b509050828160008151811061021257610211611d43565b5b602002602001019073ffffffffffffffffffffffffffffffffffffffff16908173ffffffffffffffffffffffffffffffffffffffff1681525050600160009054906101000a900473ffffffffffffffffffffffffffffffffffffffff168160018151811061028357610282611d43565b5b602002602001019073ffffffffffffffffffffffffffffffffffffffff16908173ffffffffffffffffffffffffffffffffffffffff16815250508373ffffffffffffffffffffffffffffffffffffffff1663d06ca61f600254836040518363ffffffff1660e01b81526004016102fa929190611a28565b60006040518083038186803b15801561031257600080fd5b505afa158015610326573d6000803e3d6000fd5b505050506040513d6000823e3d601f19601f8201168201806040525081019061034f91906116a3565b60018151811061036257610361611d43565b5b602002602001015191505092915050565b60008060008473ffffffffffffffffffffffffffffffffffffffff16630dfe16816040518163ffffffff1660e01b815260040160206040518083038186803b1580156103be57600080fd5b505afa1580156103d2573d6000803e3d6000fd5b505050506040513d601f19601f820116820180604052508101906103f691906116ec565b73ffffffffffffffffffffffffffffffffffffffff1660008054906101000a900473ffffffffffffffffffffffffffffffffffffffff1673ffffffffffffffffffffffffffffffffffffffff16146105ed576105e66104d2858773ffffffffffffffffffffffffffffffffffffffff16630dfe16816040518163ffffffff1660e01b815260040160206040518083038186803b15801561049557600080fd5b505afa1580156104a9573d6000803e3d6000fd5b505050506040513d601f19601f820116820180604052508101906104cd91906116ec565b610de0565b8673ffffffffffffffffffffffffffffffffffffffff16630dfe16816040518163ffffffff1660e01b815260040160206040518083038186803b15801561051857600080fd5b505afa15801561052c573d6000803e3d6000fd5b505050506040513d601f19601f8201168201806040525081019061055091906116ec565b73ffffffffffffffffffffffffffffffffffffffff166370a08231886040518263ffffffff1660e01b81526004016105889190611990565b60206040518083038186803b1580156105a057600080fd5b505afa1580156105b4573d6000803e3d6000fd5b505050506040513d601f19601f820116820180604052508101906105d891906117c6565b6112e090919063ffffffff16565b915061078e565b61078b610677858773ffffffffffffffffffffffffffffffffffffffff16630dfe16816040518163ffffffff1660e01b815260040160206040518083038186803b15801561063a57600080fd5b505afa15801561064e573d6000803e3d6000fd5b505050506040513d601f19601f8201168201806040525081019061067291906116ec565b6101ae565b8673ffffffffffffffffffffffffffffffffffffffff16630dfe16816040518163ffffffff1660e01b815260040160206040518083038186803b1580156106bd57600080fd5b505afa1580156106d1573d6000803e3d6000fd5b505050506040513d601f19601f820116820180604052508101906106f591906116ec565b73ffffffffffffffffffffffffffffffffffffffff166370a08231886040518263ffffffff1660e01b815260040161072d9190611990565b60206040518083038186803b15801561074557600080fd5b505afa158015610759573d6000803e3d6000fd5b505050506040513d601f19601f8201168201806040525081019061077d91906117c6565b6112e090919063ffffffff16565b91505b8473ffffffffffffffffffffffffffffffffffffffff1663d21220a76040518163ffffffff1660e01b815260040160206040518083038186803b1580156107d457600080fd5b505afa1580156107e8573d6000803e3d6000fd5b505050506040513d601f19601f8201168201806040525081019061080c91906116ec565b73ffffffffffffffffffffffffffffffffffffffff1660008054906101000a900473ffffffffffffffffffffffffffffffffffffffff1673ffffffffffffffffffffffffffffffffffffffff1614610a03576109fc6108e8858773ffffffffffffffffffffffffffffffffffffffff1663d21220a76040518163ffffffff1660e01b815260040160206040518083038186803b1580156108ab57600080fd5b505afa1580156108bf573d6000803e3d6000fd5b505050506040513d601f19601f820116820180604052508101906108e391906116ec565b610de0565b8673ffffffffffffffffffffffffffffffffffffffff1663d21220a76040518163ffffffff1660e01b815260040160206040518083038186803b15801561092e57600080fd5b505afa158015610942573d6000803e3d6000fd5b505050506040513d601f19601f8201168201806040525081019061096691906116ec565b73ffffffffffffffffffffffffffffffffffffffff166370a08231886040518263ffffffff1660e01b815260040161099e9190611990565b60206040518083038186803b1580156109b657600080fd5b505afa1580156109ca573d6000803e3d6000fd5b505050506040513d601f19601f820116820180604052508101906109ee91906117c6565b6112e090919063ffffffff16565b9050610ba4565b610ba1610a8d858773ffffffffffffffffffffffffffffffffffffffff1663d21220a76040518163ffffffff1660e01b815260040160206040518083038186803b158015610a5057600080fd5b505afa158015610a64573d6000803e3d6000fd5b505050506040513d601f19601f82011682018060405250810190610a8891906116ec565b6101ae565b8673ffffffffffffffffffffffffffffffffffffffff1663d21220a76040518163ffffffff1660e01b815260040160206040518083038186803b158015610ad357600080fd5b505afa158015610ae7573d6000803e3d6000fd5b505050506040513d601f19601f82011682018060405250810190610b0b91906116ec565b73ffffffffffffffffffffffffffffffffffffffff166370a08231886040518263ffffffff1660e01b8152600401610b439190611990565b60206040518083038186803b158015610b5b57600080fd5b505afa158015610b6f573d6000803e3d6000fd5b505050506040513d601f19601f82011682018060405250810190610b9391906117c6565b6112e090919063ffffffff16565b90505b610c468573ffffffffffffffffffffffffffffffffffffffff166318160ddd6040518163ffffffff1660e01b815260040160206040518083038186803b158015610bed57600080fd5b505afa158015610c01573d6000803e3d6000fd5b505050506040513d601f19601f82011682018060405250810190610c2591906117c6565b610c38838561135b90919063ffffffff16565b6113b990919063ffffffff16565b9250505092915050565b6000808373ffffffffffffffffffffffffffffffffffffffff16636a6d964e886040518263ffffffff1660e01b8152600401610c8c9190611a0d565b60206040518083038186803b158015610ca457600080fd5b505afa158015610cb8573d6000803e3d6000fd5b505050506040513d601f19601f82011682018060405250810190610cdc91906117c6565b905060008515610cf757610cf08785610373565b9050610d69565b8673ffffffffffffffffffffffffffffffffffffffff1660008054906101000a900473ffffffffffffffffffffffffffffffffffffffff1673ffffffffffffffffffffffffffffffffffffffff1614610d5b57610d548488610de0565b9050610d68565b610d6584886101ae565b90505b5b610d896002548284610d7b9190611b85565b6113b990919063ffffffff16565b9250505095945050505050565b600160009054906101000a900473ffffffffffffffffffffffffffffffffffffffff1681565b60008054906101000a900473ffffffffffffffffffffffffffffffffffffffff1681565b600080600367ffffffffffffffff811115610dfe57610dfd611d72565b5b604051908082528060200260200182016040528015610e2c5781602001602082028036833780820191505090505b5090508281600081518110610e4457610e43611d43565b5b602002602001019073ffffffffffffffffffffffffffffffffffffffff16908173ffffffffffffffffffffffffffffffffffffffff168152505060008054906101000a900473ffffffffffffffffffffffffffffffffffffffff1681600181518110610eb357610eb2611d43565b5b602002602001019073ffffffffffffffffffffffffffffffffffffffff16908173ffffffffffffffffffffffffffffffffffffffff1681525050600160009054906101000a900473ffffffffffffffffffffffffffffffffffffffff1681600281518110610f2457610f23611d43565b5b602002602001019073ffffffffffffffffffffffffffffffffffffffff16908173ffffffffffffffffffffffffffffffffffffffff16815250508373ffffffffffffffffffffffffffffffffffffffff1663d06ca61f600254836040518363ffffffff1660e01b8152600401610f9b929190611a28565b60006040518083038186803b158015610fb357600080fd5b505afa158015610fc7573d6000803e3d6000fd5b505050506040513d6000823e3d601f19601f82011682018060405250810190610ff091906116a3565b60028151811061100357611002611d43565b5b602002602001015191505092915050565b6000808373ffffffffffffffffffffffffffffffffffffffff16631526fe27886040518263ffffffff1660e01b81526004016110509190611a0d565b60c06040518083038186803b15801561106857600080fd5b505afa15801561107c573d6000803e3d6000fd5b505050506040513d601f19601f820116820180604052508101906110a09190611799565b905060006111388573ffffffffffffffffffffffffffffffffffffffff166317caf6f16040518163ffffffff1660e01b815260040160206040518083038186803b1580156110ed57600080fd5b505afa158015611101573d6000803e3d6000fd5b505050506040513d601f19601f8201168201806040525081019061112591906117c6565b83602001516112e090919063ffffffff16565b905060006111c3858773ffffffffffffffffffffffffffffffffffffffff1663141aa0ba6040518163ffffffff1660e01b815260040160206040518083038186803b15801561118657600080fd5b505afa15801561119a573d6000803e3d6000fd5b505050506040513d601f19601f820116820180604052508101906111be9190611676565b610de0565b9050600061126d61125c6002548973ffffffffffffffffffffffffffffffffffffffff1663a1eef8216040518163ffffffff1660e01b815260040160206040518083038186803b15801561121657600080fd5b505afa15801561122a573d6000803e3d6000fd5b505050506040513d601f19601f8201168201806040525081019061124e91906117c6565b6113b990919063ffffffff16565b6003546112e090919063ffffffff16565b9050600061128484836112e090919063ffffffff16565b905060006112958c8c8c8c8c610c50565b90506112cf60646112c1836112b388876112e090919063ffffffff16565b6113b990919063ffffffff16565b6112e090919063ffffffff16565b965050505050505095945050505050565b6000808314156112f35760009050611355565b600082846113019190611b85565b90508284826113109190611b54565b14611350576040517f08c379a0000000000000000000000000000000000000000000000000000000008152600401611347906119ed565b60405180910390fd5b809150505b92915050565b600080828461136a9190611afe565b9050838110156113af576040517f08c379a00000000000000000000000000000000000000000000000000000000081526004016113a6906119cd565b60405180910390fd5b8091505092915050565b60006113fb83836040518060400160405280601a81526020017f536166654d6174683a206469766973696f6e206279207a65726f000000000000815250611403565b905092915050565b6000808311829061144a576040517f08c379a000000000000000000000000000000000000000000000000000000000815260040161144191906119ab565b60405180910390fd5b50600083856114599190611b54565b9050809150509392505050565b600061147961147484611a7d565b611a58565b9050808382526020820190508285602086028201111561149c5761149b611dab565b5b60005b858110156114cc57816114b28882611661565b84526020840193506020830192505060018101905061149f565b5050509392505050565b6000813590506114e581611e43565b92915050565b6000815190506114fa81611e43565b92915050565b600082601f83011261151557611514611da1565b5b8151611525848260208601611466565b91505092915050565b60008135905061153d81611e5a565b92915050565b60008151905061155281611e71565b92915050565b60008151905061156781611e88565b92915050565b60008135905061157c81611e9f565b92915050565b60008135905061159181611eb6565b92915050565b6000813590506115a681611ecd565b92915050565b600060c082840312156115c2576115c1611da6565b5b6115cc60c0611a58565b905060006115dc84828501611543565b60008301525060206115f084828501611661565b602083015250604061160484828501611661565b604083015250606061161884828501611661565b606083015250608061162c84828501611558565b60808301525060a061164084828501611543565b60a08301525092915050565b60008135905061165b81611ee4565b92915050565b60008151905061167081611ee4565b92915050565b60006020828403121561168c5761168b611db5565b5b600061169a848285016114eb565b91505092915050565b6000602082840312156116b9576116b8611db5565b5b600082015167ffffffffffffffff8111156116d7576116d6611db0565b5b6116e384828501611500565b91505092915050565b60006020828403121561170257611701611db5565b5b600061171084828501611543565b91505092915050565b600080604083850312156117305761172f611db5565b5b600061173e8582860161156d565b925050602061174f85828601611597565b9150509250929050565b600080604083850312156117705761176f611db5565b5b600061177e85828601611597565b925050602061178f858286016114d6565b9150509250929050565b600060c082840312156117af576117ae611db5565b5b60006117bd848285016115ac565b91505092915050565b6000602082840312156117dc576117db611db5565b5b60006117ea84828501611661565b91505092915050565b600080600080600060a0868803121561180f5761180e611db5565b5b600061181d8882890161164c565b955050602061182e8882890161156d565b945050604061183f8882890161152e565b935050606061185088828901611582565b925050608061186188828901611597565b9150509295509295909350565b600061187a8383611886565b60208301905092915050565b61188f81611bdf565b82525050565b61189e81611bdf565b82525050565b60006118af82611ab9565b6118b98185611adc565b93506118c483611aa9565b8060005b838110156118f55781516118dc888261186e565b97506118e783611acf565b9250506001810190506118c8565b5085935050505092915050565b600061190d82611ac4565b6119178185611aed565b9350611927818560208601611c81565b61193081611dba565b840191505092915050565b6000611948601b83611aed565b915061195382611dcb565b602082019050919050565b600061196b602183611aed565b915061197682611df4565b604082019050919050565b61198a81611c77565b82525050565b60006020820190506119a56000830184611895565b92915050565b600060208201905081810360008301526119c58184611902565b905092915050565b600060208201905081810360008301526119e68161193b565b9050919050565b60006020820190508181036000830152611a068161195e565b9050919050565b6000602082019050611a226000830184611981565b92915050565b6000604082019050611a3d6000830185611981565b8181036020830152611a4f81846118a4565b90509392505050565b6000611a62611a73565b9050611a6e8282611cb4565b919050565b6000604051905090565b600067ffffffffffffffff821115611a9857611a97611d72565b5b602082029050602081019050919050565b6000819050602082019050919050565b600081519050919050565b600081519050919050565b6000602082019050919050565b600082825260208201905092915050565b600082825260208201905092915050565b6000611b0982611c77565b9150611b1483611c77565b9250827fffffffffffffffffffffffffffffffffffffffffffffffffffffffffffffffff03821115611b4957611b48611ce5565b5b828201905092915050565b6000611b5f82611c77565b9150611b6a83611c77565b925082611b7a57611b79611d14565b5b828204905092915050565b6000611b9082611c77565b9150611b9b83611c77565b9250817fffffffffffffffffffffffffffffffffffffffffffffffffffffffffffffffff0483118215151615611bd457611bd3611ce5565b5b828202905092915050565b6000611bea82611c57565b9050919050565b60008115159050919050565b6000611c0882611bdf565b9050919050565b6000611c1a82611bdf565b9050919050565b6000611c2c82611bdf565b9050919050565b6000611c3e82611bdf565b9050919050565b6000611c5082611bdf565b9050919050565b600073ffffffffffffffffffffffffffffffffffffffff82169050919050565b6000819050919050565b60005b83811015611c9f578082015181840152602081019050611c84565b83811115611cae576000848401525b50505050565b611cbd82611dba565b810181811067ffffffffffffffff82111715611cdc57611cdb611d72565b5b80604052505050565b7f4e487b7100000000000000000000000000000000000000000000000000000000600052601160045260246000fd5b7f4e487b7100000000000000000000000000000000000000000000000000000000600052601260045260246000fd5b7f4e487b7100000000000000000000000000000000000000000000000000000000600052603260045260246000fd5b7f4e487b7100000000000000000000000000000000000000000000000000000000600052604160045260246000fd5b600080fd5b600080fd5b600080fd5b600080fd5b600080fd5b6000601f19601f8301169050919050565b7f536166654d6174683a206164646974696f6e206f766572666c6f770000000000600082015250565b7f536166654d6174683a206d756c7469706c69636174696f6e206f766572666c6f60008201527f7700000000000000000000000000000000000000000000000000000000000000602082015250565b611e4c81611bdf565b8114611e5757600080fd5b50565b611e6381611bf1565b8114611e6e57600080fd5b50565b611e7a81611bfd565b8114611e8557600080fd5b50565b611e9181611c0f565b8114611e9c57600080fd5b50565b611ea881611c21565b8114611eb357600080fd5b50565b611ebf81611c33565b8114611eca57600080fd5b50565b611ed681611c45565b8114611ee157600080fd5b50565b611eed81611c77565b8114611ef857600080fd5b5056fea264697066735822122094a0a328071baedd897c4e38ef0ed5b1bb4ace4db7bd391e1c2a8e02c664f56064736f6c63430008070033",
					"opcodes": "PUSH1 0x80 PUSH1 0x40 MSTORE PUSH20 0xAE13D989DAC2F0DEBFF460AC112A837C89BAA7CD PUSH1 0x0 DUP1 PUSH2 0x100 EXP DUP2 SLOAD DUP2 PUSH20 0xFFFFFFFFFFFFFFFFFFFFFFFFFFFFFFFFFFFFFFFF MUL NOT AND SWAP1 DUP4 PUSH20 0xFFFFFFFFFFFFFFFFFFFFFFFFFFFFFFFFFFFFFFFF AND MUL OR SWAP1 SSTORE POP PUSH20 0x78867BBEEF44F2326BF8DDD1941A4439382EF2A7 PUSH1 0x1 PUSH1 0x0 PUSH2 0x100 EXP DUP2 SLOAD DUP2 PUSH20 0xFFFFFFFFFFFFFFFFFFFFFFFFFFFFFFFFFFFFFFFF MUL NOT AND SWAP1 DUP4 PUSH20 0xFFFFFFFFFFFFFFFFFFFFFFFFFFFFFFFFFFFFFFFF AND MUL OR SWAP1 SSTORE POP PUSH8 0xDE0B6B3A7640000 PUSH1 0x2 SSTORE PUSH3 0xA06680 PUSH1 0x3 SSTORE CALLVALUE DUP1 ISZERO PUSH2 0xCC JUMPI PUSH1 0x0 DUP1 REVERT JUMPDEST POP PUSH2 0x1F31 DUP1 PUSH2 0xDC PUSH1 0x0 CODECOPY PUSH1 0x0 RETURN INVALID PUSH1 0x80 PUSH1 0x40 MSTORE CALLVALUE DUP1 ISZERO PUSH2 0x10 JUMPI PUSH1 0x0 DUP1 REVERT JUMPDEST POP PUSH1 0x4 CALLDATASIZE LT PUSH2 0x7D JUMPI PUSH1 0x0 CALLDATALOAD PUSH1 0xE0 SHR DUP1 PUSH4 0x484F4EA9 GT PUSH2 0x5B JUMPI DUP1 PUSH4 0x484F4EA9 EQ PUSH2 0x112 JUMPI DUP1 PUSH4 0x8DD95002 EQ PUSH2 0x130 JUMPI DUP1 PUSH4 0xDBACC97D EQ PUSH2 0x14E JUMPI DUP1 PUSH4 0xFE2D40F5 EQ PUSH2 0x17E JUMPI PUSH2 0x7D JUMP JUMPDEST DUP1 PUSH4 0x303289BB EQ PUSH2 0x82 JUMPI DUP1 PUSH4 0x344E49D9 EQ PUSH2 0xB2 JUMPI DUP1 PUSH4 0x45223A21 EQ PUSH2 0xE2 JUMPI JUMPDEST PUSH1 0x0 DUP1 REVERT JUMPDEST PUSH2 0x9C PUSH1 0x4 DUP1 CALLDATASIZE SUB DUP2 ADD SWAP1 PUSH2 0x97 SWAP2 SWAP1 PUSH2 0x1759 JUMP JUMPDEST PUSH2 0x1AE JUMP JUMPDEST PUSH1 0x40 MLOAD PUSH2 0xA9 SWAP2 SWAP1 PUSH2 0x1A0D JUMP JUMPDEST PUSH1 0x40 MLOAD DUP1 SWAP2 SUB SWAP1 RETURN JUMPDEST PUSH2 0xCC PUSH1 0x4 DUP1 CALLDATASIZE SUB DUP2 ADD SWAP1 PUSH2 0xC7 SWAP2 SWAP1 PUSH2 0x1719 JUMP JUMPDEST PUSH2 0x373 JUMP JUMPDEST PUSH1 0x40 MLOAD PUSH2 0xD9 SWAP2 SWAP1 PUSH2 0x1A0D JUMP JUMPDEST PUSH1 0x40 MLOAD DUP1 SWAP2 SUB SWAP1 RETURN JUMPDEST PUSH2 0xFC PUSH1 0x4 DUP1 CALLDATASIZE SUB DUP2 ADD SWAP1 PUSH2 0xF7 SWAP2 SWAP1 PUSH2 0x17F3 JUMP JUMPDEST PUSH2 0xC50 JUMP JUMPDEST PUSH1 0x40 MLOAD PUSH2 0x109 SWAP2 SWAP1 PUSH2 0x1A0D JUMP JUMPDEST PUSH1 0x40 MLOAD DUP1 SWAP2 SUB SWAP1 RETURN JUMPDEST PUSH2 0x11A PUSH2 0xD96 JUMP JUMPDEST PUSH1 0x40 MLOAD PUSH2 0x127 SWAP2 SWAP1 PUSH2 0x1990 JUMP JUMPDEST PUSH1 0x40 MLOAD DUP1 SWAP2 SUB SWAP1 RETURN JUMPDEST PUSH2 0x138 PUSH2 0xDBC JUMP JUMPDEST PUSH1 0x40 MLOAD PUSH2 0x145 SWAP2 SWAP1 PUSH2 0x1990 JUMP JUMPDEST PUSH1 0x40 MLOAD DUP1 SWAP2 SUB SWAP1 RETURN JUMPDEST PUSH2 0x168 PUSH1 0x4 DUP1 CALLDATASIZE SUB DUP2 ADD SWAP1 PUSH2 0x163 SWAP2 SWAP1 PUSH2 0x1759 JUMP JUMPDEST PUSH2 0xDE0 JUMP JUMPDEST PUSH1 0x40 MLOAD PUSH2 0x175 SWAP2 SWAP1 PUSH2 0x1A0D JUMP JUMPDEST PUSH1 0x40 MLOAD DUP1 SWAP2 SUB SWAP1 RETURN JUMPDEST PUSH2 0x198 PUSH1 0x4 DUP1 CALLDATASIZE SUB DUP2 ADD SWAP1 PUSH2 0x193 SWAP2 SWAP1 PUSH2 0x17F3 JUMP JUMPDEST PUSH2 0x1014 JUMP JUMPDEST PUSH1 0x40 MLOAD PUSH2 0x1A5 SWAP2 SWAP1 PUSH2 0x1A0D JUMP JUMPDEST PUSH1 0x40 MLOAD DUP1 SWAP2 SUB SWAP1 RETURN JUMPDEST PUSH1 0x0 DUP1 PUSH1 0x2 PUSH8 0xFFFFFFFFFFFFFFFF DUP2 GT ISZERO PUSH2 0x1CC JUMPI PUSH2 0x1CB PUSH2 0x1D72 JUMP JUMPDEST JUMPDEST PUSH1 0x40 MLOAD SWAP1 DUP1 DUP3 MSTORE DUP1 PUSH1 0x20 MUL PUSH1 0x20 ADD DUP3 ADD PUSH1 0x40 MSTORE DUP1 ISZERO PUSH2 0x1FA JUMPI DUP2 PUSH1 0x20 ADD PUSH1 0x20 DUP3 MUL DUP1 CALLDATASIZE DUP4 CALLDATACOPY DUP1 DUP3 ADD SWAP2 POP POP SWAP1 POP JUMPDEST POP SWAP1 POP DUP3 DUP2 PUSH1 0x0 DUP2 MLOAD DUP2 LT PUSH2 0x212 JUMPI PUSH2 0x211 PUSH2 0x1D43 JUMP JUMPDEST JUMPDEST PUSH1 0x20 MUL PUSH1 0x20 ADD ADD SWAP1 PUSH20 0xFFFFFFFFFFFFFFFFFFFFFFFFFFFFFFFFFFFFFFFF AND SWAP1 DUP2 PUSH20 0xFFFFFFFFFFFFFFFFFFFFFFFFFFFFFFFFFFFFFFFF AND DUP2 MSTORE POP POP PUSH1 0x1 PUSH1 0x0 SWAP1 SLOAD SWAP1 PUSH2 0x100 EXP SWAP1 DIV PUSH20 0xFFFFFFFFFFFFFFFFFFFFFFFFFFFFFFFFFFFFFFFF AND DUP2 PUSH1 0x1 DUP2 MLOAD DUP2 LT PUSH2 0x283 JUMPI PUSH2 0x282 PUSH2 0x1D43 JUMP JUMPDEST JUMPDEST PUSH1 0x20 MUL PUSH1 0x20 ADD ADD SWAP1 PUSH20 0xFFFFFFFFFFFFFFFFFFFFFFFFFFFFFFFFFFFFFFFF AND SWAP1 DUP2 PUSH20 0xFFFFFFFFFFFFFFFFFFFFFFFFFFFFFFFFFFFFFFFF AND DUP2 MSTORE POP POP DUP4 PUSH20 0xFFFFFFFFFFFFFFFFFFFFFFFFFFFFFFFFFFFFFFFF AND PUSH4 0xD06CA61F PUSH1 0x2 SLOAD DUP4 PUSH1 0x40 MLOAD DUP4 PUSH4 0xFFFFFFFF AND PUSH1 0xE0 SHL DUP2 MSTORE PUSH1 0x4 ADD PUSH2 0x2FA SWAP3 SWAP2 SWAP1 PUSH2 0x1A28 JUMP JUMPDEST PUSH1 0x0 PUSH1 0x40 MLOAD DUP1 DUP4 SUB DUP2 DUP7 DUP1 EXTCODESIZE ISZERO DUP1 ISZERO PUSH2 0x312 JUMPI PUSH1 0x0 DUP1 REVERT JUMPDEST POP GAS STATICCALL ISZERO DUP1 ISZERO PUSH2 0x326 JUMPI RETURNDATASIZE PUSH1 0x0 DUP1 RETURNDATACOPY RETURNDATASIZE PUSH1 0x0 REVERT JUMPDEST POP POP POP POP PUSH1 0x40 MLOAD RETURNDATASIZE PUSH1 0x0 DUP3 RETURNDATACOPY RETURNDATASIZE PUSH1 0x1F NOT PUSH1 0x1F DUP3 ADD AND DUP3 ADD DUP1 PUSH1 0x40 MSTORE POP DUP2 ADD SWAP1 PUSH2 0x34F SWAP2 SWAP1 PUSH2 0x16A3 JUMP JUMPDEST PUSH1 0x1 DUP2 MLOAD DUP2 LT PUSH2 0x362 JUMPI PUSH2 0x361 PUSH2 0x1D43 JUMP JUMPDEST JUMPDEST PUSH1 0x20 MUL PUSH1 0x20 ADD ADD MLOAD SWAP2 POP POP SWAP3 SWAP2 POP POP JUMP JUMPDEST PUSH1 0x0 DUP1 PUSH1 0x0 DUP5 PUSH20 0xFFFFFFFFFFFFFFFFFFFFFFFFFFFFFFFFFFFFFFFF AND PUSH4 0xDFE1681 PUSH1 0x40 MLOAD DUP2 PUSH4 0xFFFFFFFF AND PUSH1 0xE0 SHL DUP2 MSTORE PUSH1 0x4 ADD PUSH1 0x20 PUSH1 0x40 MLOAD DUP1 DUP4 SUB DUP2 DUP7 DUP1 EXTCODESIZE ISZERO DUP1 ISZERO PUSH2 0x3BE JUMPI PUSH1 0x0 DUP1 REVERT JUMPDEST POP GAS STATICCALL ISZERO DUP1 ISZERO PUSH2 0x3D2 JUMPI RETURNDATASIZE PUSH1 0x0 DUP1 RETURNDATACOPY RETURNDATASIZE PUSH1 0x0 REVERT JUMPDEST POP POP POP POP PUSH1 0x40 MLOAD RETURNDATASIZE PUSH1 0x1F NOT PUSH1 0x1F DUP3 ADD AND DUP3 ADD DUP1 PUSH1 0x40 MSTORE POP DUP2 ADD SWAP1 PUSH2 0x3F6 SWAP2 SWAP1 PUSH2 0x16EC JUMP JUMPDEST PUSH20 0xFFFFFFFFFFFFFFFFFFFFFFFFFFFFFFFFFFFFFFFF AND PUSH1 0x0 DUP1 SLOAD SWAP1 PUSH2 0x100 EXP SWAP1 DIV PUSH20 0xFFFFFFFFFFFFFFFFFFFFFFFFFFFFFFFFFFFFFFFF AND PUSH20 0xFFFFFFFFFFFFFFFFFFFFFFFFFFFFFFFFFFFFFFFF AND EQ PUSH2 0x5ED JUMPI PUSH2 0x5E6 PUSH2 0x4D2 DUP6 DUP8 PUSH20 0xFFFFFFFFFFFFFFFFFFFFFFFFFFFFFFFFFFFFFFFF AND PUSH4 0xDFE1681 PUSH1 0x40 MLOAD DUP2 PUSH4 0xFFFFFFFF AND PUSH1 0xE0 SHL DUP2 MSTORE PUSH1 0x4 ADD PUSH1 0x20 PUSH1 0x40 MLOAD DUP1 DUP4 SUB DUP2 DUP7 DUP1 EXTCODESIZE ISZERO DUP1 ISZERO PUSH2 0x495 JUMPI PUSH1 0x0 DUP1 REVERT JUMPDEST POP GAS STATICCALL ISZERO DUP1 ISZERO PUSH2 0x4A9 JUMPI RETURNDATASIZE PUSH1 0x0 DUP1 RETURNDATACOPY RETURNDATASIZE PUSH1 0x0 REVERT JUMPDEST POP POP POP POP PUSH1 0x40 MLOAD RETURNDATASIZE PUSH1 0x1F NOT PUSH1 0x1F DUP3 ADD AND DUP3 ADD DUP1 PUSH1 0x40 MSTORE POP DUP2 ADD SWAP1 PUSH2 0x4CD SWAP2 SWAP1 PUSH2 0x16EC JUMP JUMPDEST PUSH2 0xDE0 JUMP JUMPDEST DUP7 PUSH20 0xFFFFFFFFFFFFFFFFFFFFFFFFFFFFFFFFFFFFFFFF AND PUSH4 0xDFE1681 PUSH1 0x40 MLOAD DUP2 PUSH4 0xFFFFFFFF AND PUSH1 0xE0 SHL DUP2 MSTORE PUSH1 0x4 ADD PUSH1 0x20 PUSH1 0x40 MLOAD DUP1 DUP4 SUB DUP2 DUP7 DUP1 EXTCODESIZE ISZERO DUP1 ISZERO PUSH2 0x518 JUMPI PUSH1 0x0 DUP1 REVERT JUMPDEST POP GAS STATICCALL ISZERO DUP1 ISZERO PUSH2 0x52C JUMPI RETURNDATASIZE PUSH1 0x0 DUP1 RETURNDATACOPY RETURNDATASIZE PUSH1 0x0 REVERT JUMPDEST POP POP POP POP PUSH1 0x40 MLOAD RETURNDATASIZE PUSH1 0x1F NOT PUSH1 0x1F DUP3 ADD AND DUP3 ADD DUP1 PUSH1 0x40 MSTORE POP DUP2 ADD SWAP1 PUSH2 0x550 SWAP2 SWAP1 PUSH2 0x16EC JUMP JUMPDEST PUSH20 0xFFFFFFFFFFFFFFFFFFFFFFFFFFFFFFFFFFFFFFFF AND PUSH4 0x70A08231 DUP9 PUSH1 0x40 MLOAD DUP3 PUSH4 0xFFFFFFFF AND PUSH1 0xE0 SHL DUP2 MSTORE PUSH1 0x4 ADD PUSH2 0x588 SWAP2 SWAP1 PUSH2 0x1990 JUMP JUMPDEST PUSH1 0x20 PUSH1 0x40 MLOAD DUP1 DUP4 SUB DUP2 DUP7 DUP1 EXTCODESIZE ISZERO DUP1 ISZERO PUSH2 0x5A0 JUMPI PUSH1 0x0 DUP1 REVERT JUMPDEST POP GAS STATICCALL ISZERO DUP1 ISZERO PUSH2 0x5B4 JUMPI RETURNDATASIZE PUSH1 0x0 DUP1 RETURNDATACOPY RETURNDATASIZE PUSH1 0x0 REVERT JUMPDEST POP POP POP POP PUSH1 0x40 MLOAD RETURNDATASIZE PUSH1 0x1F NOT PUSH1 0x1F DUP3 ADD AND DUP3 ADD DUP1 PUSH1 0x40 MSTORE POP DUP2 ADD SWAP1 PUSH2 0x5D8 SWAP2 SWAP1 PUSH2 0x17C6 JUMP JUMPDEST PUSH2 0x12E0 SWAP1 SWAP2 SWAP1 PUSH4 0xFFFFFFFF AND JUMP JUMPDEST SWAP2 POP PUSH2 0x78E JUMP JUMPDEST PUSH2 0x78B PUSH2 0x677 DUP6 DUP8 PUSH20 0xFFFFFFFFFFFFFFFFFFFFFFFFFFFFFFFFFFFFFFFF AND PUSH4 0xDFE1681 PUSH1 0x40 MLOAD DUP2 PUSH4 0xFFFFFFFF AND PUSH1 0xE0 SHL DUP2 MSTORE PUSH1 0x4 ADD PUSH1 0x20 PUSH1 0x40 MLOAD DUP1 DUP4 SUB DUP2 DUP7 DUP1 EXTCODESIZE ISZERO DUP1 ISZERO PUSH2 0x63A JUMPI PUSH1 0x0 DUP1 REVERT JUMPDEST POP GAS STATICCALL ISZERO DUP1 ISZERO PUSH2 0x64E JUMPI RETURNDATASIZE PUSH1 0x0 DUP1 RETURNDATACOPY RETURNDATASIZE PUSH1 0x0 REVERT JUMPDEST POP POP POP POP PUSH1 0x40 MLOAD RETURNDATASIZE PUSH1 0x1F NOT PUSH1 0x1F DUP3 ADD AND DUP3 ADD DUP1 PUSH1 0x40 MSTORE POP DUP2 ADD SWAP1 PUSH2 0x672 SWAP2 SWAP1 PUSH2 0x16EC JUMP JUMPDEST PUSH2 0x1AE JUMP JUMPDEST DUP7 PUSH20 0xFFFFFFFFFFFFFFFFFFFFFFFFFFFFFFFFFFFFFFFF AND PUSH4 0xDFE1681 PUSH1 0x40 MLOAD DUP2 PUSH4 0xFFFFFFFF AND PUSH1 0xE0 SHL DUP2 MSTORE PUSH1 0x4 ADD PUSH1 0x20 PUSH1 0x40 MLOAD DUP1 DUP4 SUB DUP2 DUP7 DUP1 EXTCODESIZE ISZERO DUP1 ISZERO PUSH2 0x6BD JUMPI PUSH1 0x0 DUP1 REVERT JUMPDEST POP GAS STATICCALL ISZERO DUP1 ISZERO PUSH2 0x6D1 JUMPI RETURNDATASIZE PUSH1 0x0 DUP1 RETURNDATACOPY RETURNDATASIZE PUSH1 0x0 REVERT JUMPDEST POP POP POP POP PUSH1 0x40 MLOAD RETURNDATASIZE PUSH1 0x1F NOT PUSH1 0x1F DUP3 ADD AND DUP3 ADD DUP1 PUSH1 0x40 MSTORE POP DUP2 ADD SWAP1 PUSH2 0x6F5 SWAP2 SWAP1 PUSH2 0x16EC JUMP JUMPDEST PUSH20 0xFFFFFFFFFFFFFFFFFFFFFFFFFFFFFFFFFFFFFFFF AND PUSH4 0x70A08231 DUP9 PUSH1 0x40 MLOAD DUP3 PUSH4 0xFFFFFFFF AND PUSH1 0xE0 SHL DUP2 MSTORE PUSH1 0x4 ADD PUSH2 0x72D SWAP2 SWAP1 PUSH2 0x1990 JUMP JUMPDEST PUSH1 0x20 PUSH1 0x40 MLOAD DUP1 DUP4 SUB DUP2 DUP7 DUP1 EXTCODESIZE ISZERO DUP1 ISZERO PUSH2 0x745 JUMPI PUSH1 0x0 DUP1 REVERT JUMPDEST POP GAS STATICCALL ISZERO DUP1 ISZERO PUSH2 0x759 JUMPI RETURNDATASIZE PUSH1 0x0 DUP1 RETURNDATACOPY RETURNDATASIZE PUSH1 0x0 REVERT JUMPDEST POP POP POP POP PUSH1 0x40 MLOAD RETURNDATASIZE PUSH1 0x1F NOT PUSH1 0x1F DUP3 ADD AND DUP3 ADD DUP1 PUSH1 0x40 MSTORE POP DUP2 ADD SWAP1 PUSH2 0x77D SWAP2 SWAP1 PUSH2 0x17C6 JUMP JUMPDEST PUSH2 0x12E0 SWAP1 SWAP2 SWAP1 PUSH4 0xFFFFFFFF AND JUMP JUMPDEST SWAP2 POP JUMPDEST DUP5 PUSH20 0xFFFFFFFFFFFFFFFFFFFFFFFFFFFFFFFFFFFFFFFF AND PUSH4 0xD21220A7 PUSH1 0x40 MLOAD DUP2 PUSH4 0xFFFFFFFF AND PUSH1 0xE0 SHL DUP2 MSTORE PUSH1 0x4 ADD PUSH1 0x20 PUSH1 0x40 MLOAD DUP1 DUP4 SUB DUP2 DUP7 DUP1 EXTCODESIZE ISZERO DUP1 ISZERO PUSH2 0x7D4 JUMPI PUSH1 0x0 DUP1 REVERT JUMPDEST POP GAS STATICCALL ISZERO DUP1 ISZERO PUSH2 0x7E8 JUMPI RETURNDATASIZE PUSH1 0x0 DUP1 RETURNDATACOPY RETURNDATASIZE PUSH1 0x0 REVERT JUMPDEST POP POP POP POP PUSH1 0x40 MLOAD RETURNDATASIZE PUSH1 0x1F NOT PUSH1 0x1F DUP3 ADD AND DUP3 ADD DUP1 PUSH1 0x40 MSTORE POP DUP2 ADD SWAP1 PUSH2 0x80C SWAP2 SWAP1 PUSH2 0x16EC JUMP JUMPDEST PUSH20 0xFFFFFFFFFFFFFFFFFFFFFFFFFFFFFFFFFFFFFFFF AND PUSH1 0x0 DUP1 SLOAD SWAP1 PUSH2 0x100 EXP SWAP1 DIV PUSH20 0xFFFFFFFFFFFFFFFFFFFFFFFFFFFFFFFFFFFFFFFF AND PUSH20 0xFFFFFFFFFFFFFFFFFFFFFFFFFFFFFFFFFFFFFFFF AND EQ PUSH2 0xA03 JUMPI PUSH2 0x9FC PUSH2 0x8E8 DUP6 DUP8 PUSH20 0xFFFFFFFFFFFFFFFFFFFFFFFFFFFFFFFFFFFFFFFF AND PUSH4 0xD21220A7 PUSH1 0x40 MLOAD DUP2 PUSH4 0xFFFFFFFF AND PUSH1 0xE0 SHL DUP2 MSTORE PUSH1 0x4 ADD PUSH1 0x20 PUSH1 0x40 MLOAD DUP1 DUP4 SUB DUP2 DUP7 DUP1 EXTCODESIZE ISZERO DUP1 ISZERO PUSH2 0x8AB JUMPI PUSH1 0x0 DUP1 REVERT JUMPDEST POP GAS STATICCALL ISZERO DUP1 ISZERO PUSH2 0x8BF JUMPI RETURNDATASIZE PUSH1 0x0 DUP1 RETURNDATACOPY RETURNDATASIZE PUSH1 0x0 REVERT JUMPDEST POP POP POP POP PUSH1 0x40 MLOAD RETURNDATASIZE PUSH1 0x1F NOT PUSH1 0x1F DUP3 ADD AND DUP3 ADD DUP1 PUSH1 0x40 MSTORE POP DUP2 ADD SWAP1 PUSH2 0x8E3 SWAP2 SWAP1 PUSH2 0x16EC JUMP JUMPDEST PUSH2 0xDE0 JUMP JUMPDEST DUP7 PUSH20 0xFFFFFFFFFFFFFFFFFFFFFFFFFFFFFFFFFFFFFFFF AND PUSH4 0xD21220A7 PUSH1 0x40 MLOAD DUP2 PUSH4 0xFFFFFFFF AND PUSH1 0xE0 SHL DUP2 MSTORE PUSH1 0x4 ADD PUSH1 0x20 PUSH1 0x40 MLOAD DUP1 DUP4 SUB DUP2 DUP7 DUP1 EXTCODESIZE ISZERO DUP1 ISZERO PUSH2 0x92E JUMPI PUSH1 0x0 DUP1 REVERT JUMPDEST POP GAS STATICCALL ISZERO DUP1 ISZERO PUSH2 0x942 JUMPI RETURNDATASIZE PUSH1 0x0 DUP1 RETURNDATACOPY RETURNDATASIZE PUSH1 0x0 REVERT JUMPDEST POP POP POP POP PUSH1 0x40 MLOAD RETURNDATASIZE PUSH1 0x1F NOT PUSH1 0x1F DUP3 ADD AND DUP3 ADD DUP1 PUSH1 0x40 MSTORE POP DUP2 ADD SWAP1 PUSH2 0x966 SWAP2 SWAP1 PUSH2 0x16EC JUMP JUMPDEST PUSH20 0xFFFFFFFFFFFFFFFFFFFFFFFFFFFFFFFFFFFFFFFF AND PUSH4 0x70A08231 DUP9 PUSH1 0x40 MLOAD DUP3 PUSH4 0xFFFFFFFF AND PUSH1 0xE0 SHL DUP2 MSTORE PUSH1 0x4 ADD PUSH2 0x99E SWAP2 SWAP1 PUSH2 0x1990 JUMP JUMPDEST PUSH1 0x20 PUSH1 0x40 MLOAD DUP1 DUP4 SUB DUP2 DUP7 DUP1 EXTCODESIZE ISZERO DUP1 ISZERO PUSH2 0x9B6 JUMPI PUSH1 0x0 DUP1 REVERT JUMPDEST POP GAS STATICCALL ISZERO DUP1 ISZERO PUSH2 0x9CA JUMPI RETURNDATASIZE PUSH1 0x0 DUP1 RETURNDATACOPY RETURNDATASIZE PUSH1 0x0 REVERT JUMPDEST POP POP POP POP PUSH1 0x40 MLOAD RETURNDATASIZE PUSH1 0x1F NOT PUSH1 0x1F DUP3 ADD AND DUP3 ADD DUP1 PUSH1 0x40 MSTORE POP DUP2 ADD SWAP1 PUSH2 0x9EE SWAP2 SWAP1 PUSH2 0x17C6 JUMP JUMPDEST PUSH2 0x12E0 SWAP1 SWAP2 SWAP1 PUSH4 0xFFFFFFFF AND JUMP JUMPDEST SWAP1 POP PUSH2 0xBA4 JUMP JUMPDEST PUSH2 0xBA1 PUSH2 0xA8D DUP6 DUP8 PUSH20 0xFFFFFFFFFFFFFFFFFFFFFFFFFFFFFFFFFFFFFFFF AND PUSH4 0xD21220A7 PUSH1 0x40 MLOAD DUP2 PUSH4 0xFFFFFFFF AND PUSH1 0xE0 SHL DUP2 MSTORE PUSH1 0x4 ADD PUSH1 0x20 PUSH1 0x40 MLOAD DUP1 DUP4 SUB DUP2 DUP7 DUP1 EXTCODESIZE ISZERO DUP1 ISZERO PUSH2 0xA50 JUMPI PUSH1 0x0 DUP1 REVERT JUMPDEST POP GAS STATICCALL ISZERO DUP1 ISZERO PUSH2 0xA64 JUMPI RETURNDATASIZE PUSH1 0x0 DUP1 RETURNDATACOPY RETURNDATASIZE PUSH1 0x0 REVERT JUMPDEST POP POP POP POP PUSH1 0x40 MLOAD RETURNDATASIZE PUSH1 0x1F NOT PUSH1 0x1F DUP3 ADD AND DUP3 ADD DUP1 PUSH1 0x40 MSTORE POP DUP2 ADD SWAP1 PUSH2 0xA88 SWAP2 SWAP1 PUSH2 0x16EC JUMP JUMPDEST PUSH2 0x1AE JUMP JUMPDEST DUP7 PUSH20 0xFFFFFFFFFFFFFFFFFFFFFFFFFFFFFFFFFFFFFFFF AND PUSH4 0xD21220A7 PUSH1 0x40 MLOAD DUP2 PUSH4 0xFFFFFFFF AND PUSH1 0xE0 SHL DUP2 MSTORE PUSH1 0x4 ADD PUSH1 0x20 PUSH1 0x40 MLOAD DUP1 DUP4 SUB DUP2 DUP7 DUP1 EXTCODESIZE ISZERO DUP1 ISZERO PUSH2 0xAD3 JUMPI PUSH1 0x0 DUP1 REVERT JUMPDEST POP GAS STATICCALL ISZERO DUP1 ISZERO PUSH2 0xAE7 JUMPI RETURNDATASIZE PUSH1 0x0 DUP1 RETURNDATACOPY RETURNDATASIZE PUSH1 0x0 REVERT JUMPDEST POP POP POP POP PUSH1 0x40 MLOAD RETURNDATASIZE PUSH1 0x1F NOT PUSH1 0x1F DUP3 ADD AND DUP3 ADD DUP1 PUSH1 0x40 MSTORE POP DUP2 ADD SWAP1 PUSH2 0xB0B SWAP2 SWAP1 PUSH2 0x16EC JUMP JUMPDEST PUSH20 0xFFFFFFFFFFFFFFFFFFFFFFFFFFFFFFFFFFFFFFFF AND PUSH4 0x70A08231 DUP9 PUSH1 0x40 MLOAD DUP3 PUSH4 0xFFFFFFFF AND PUSH1 0xE0 SHL DUP2 MSTORE PUSH1 0x4 ADD PUSH2 0xB43 SWAP2 SWAP1 PUSH2 0x1990 JUMP JUMPDEST PUSH1 0x20 PUSH1 0x40 MLOAD DUP1 DUP4 SUB DUP2 DUP7 DUP1 EXTCODESIZE ISZERO DUP1 ISZERO PUSH2 0xB5B JUMPI PUSH1 0x0 DUP1 REVERT JUMPDEST POP GAS STATICCALL ISZERO DUP1 ISZERO PUSH2 0xB6F JUMPI RETURNDATASIZE PUSH1 0x0 DUP1 RETURNDATACOPY RETURNDATASIZE PUSH1 0x0 REVERT JUMPDEST POP POP POP POP PUSH1 0x40 MLOAD RETURNDATASIZE PUSH1 0x1F NOT PUSH1 0x1F DUP3 ADD AND DUP3 ADD DUP1 PUSH1 0x40 MSTORE POP DUP2 ADD SWAP1 PUSH2 0xB93 SWAP2 SWAP1 PUSH2 0x17C6 JUMP JUMPDEST PUSH2 0x12E0 SWAP1 SWAP2 SWAP1 PUSH4 0xFFFFFFFF AND JUMP JUMPDEST SWAP1 POP JUMPDEST PUSH2 0xC46 DUP6 PUSH20 0xFFFFFFFFFFFFFFFFFFFFFFFFFFFFFFFFFFFFFFFF AND PUSH4 0x18160DDD PUSH1 0x40 MLOAD DUP2 PUSH4 0xFFFFFFFF AND PUSH1 0xE0 SHL DUP2 MSTORE PUSH1 0x4 ADD PUSH1 0x20 PUSH1 0x40 MLOAD DUP1 DUP4 SUB DUP2 DUP7 DUP1 EXTCODESIZE ISZERO DUP1 ISZERO PUSH2 0xBED JUMPI PUSH1 0x0 DUP1 REVERT JUMPDEST POP GAS STATICCALL ISZERO DUP1 ISZERO PUSH2 0xC01 JUMPI RETURNDATASIZE PUSH1 0x0 DUP1 RETURNDATACOPY RETURNDATASIZE PUSH1 0x0 REVERT JUMPDEST POP POP POP POP PUSH1 0x40 MLOAD RETURNDATASIZE PUSH1 0x1F NOT PUSH1 0x1F DUP3 ADD AND DUP3 ADD DUP1 PUSH1 0x40 MSTORE POP DUP2 ADD SWAP1 PUSH2 0xC25 SWAP2 SWAP1 PUSH2 0x17C6 JUMP JUMPDEST PUSH2 0xC38 DUP4 DUP6 PUSH2 0x135B SWAP1 SWAP2 SWAP1 PUSH4 0xFFFFFFFF AND JUMP JUMPDEST PUSH2 0x13B9 SWAP1 SWAP2 SWAP1 PUSH4 0xFFFFFFFF AND JUMP JUMPDEST SWAP3 POP POP POP SWAP3 SWAP2 POP POP JUMP JUMPDEST PUSH1 0x0 DUP1 DUP4 PUSH20 0xFFFFFFFFFFFFFFFFFFFFFFFFFFFFFFFFFFFFFFFF AND PUSH4 0x6A6D964E DUP9 PUSH1 0x40 MLOAD DUP3 PUSH4 0xFFFFFFFF AND PUSH1 0xE0 SHL DUP2 MSTORE PUSH1 0x4 ADD PUSH2 0xC8C SWAP2 SWAP1 PUSH2 0x1A0D JUMP JUMPDEST PUSH1 0x20 PUSH1 0x40 MLOAD DUP1 DUP4 SUB DUP2 DUP7 DUP1 EXTCODESIZE ISZERO DUP1 ISZERO PUSH2 0xCA4 JUMPI PUSH1 0x0 DUP1 REVERT JUMPDEST POP GAS STATICCALL ISZERO DUP1 ISZERO PUSH2 0xCB8 JUMPI RETURNDATASIZE PUSH1 0x0 DUP1 RETURNDATACOPY RETURNDATASIZE PUSH1 0x0 REVERT JUMPDEST POP POP POP POP PUSH1 0x40 MLOAD RETURNDATASIZE PUSH1 0x1F NOT PUSH1 0x1F DUP3 ADD AND DUP3 ADD DUP1 PUSH1 0x40 MSTORE POP DUP2 ADD SWAP1 PUSH2 0xCDC SWAP2 SWAP1 PUSH2 0x17C6 JUMP JUMPDEST SWAP1 POP PUSH1 0x0 DUP6 ISZERO PUSH2 0xCF7 JUMPI PUSH2 0xCF0 DUP8 DUP6 PUSH2 0x373 JUMP JUMPDEST SWAP1 POP PUSH2 0xD69 JUMP JUMPDEST DUP7 PUSH20 0xFFFFFFFFFFFFFFFFFFFFFFFFFFFFFFFFFFFFFFFF AND PUSH1 0x0 DUP1 SLOAD SWAP1 PUSH2 0x100 EXP SWAP1 DIV PUSH20 0xFFFFFFFFFFFFFFFFFFFFFFFFFFFFFFFFFFFFFFFF AND PUSH20 0xFFFFFFFFFFFFFFFFFFFFFFFFFFFFFFFFFFFFFFFF AND EQ PUSH2 0xD5B JUMPI PUSH2 0xD54 DUP5 DUP9 PUSH2 0xDE0 JUMP JUMPDEST SWAP1 POP PUSH2 0xD68 JUMP JUMPDEST PUSH2 0xD65 DUP5 DUP9 PUSH2 0x1AE JUMP JUMPDEST SWAP1 POP JUMPDEST JUMPDEST PUSH2 0xD89 PUSH1 0x2 SLOAD DUP3 DUP5 PUSH2 0xD7B SWAP2 SWAP1 PUSH2 0x1B85 JUMP JUMPDEST PUSH2 0x13B9 SWAP1 SWAP2 SWAP1 PUSH4 0xFFFFFFFF AND JUMP JUMPDEST SWAP3 POP POP POP SWAP6 SWAP5 POP POP POP POP POP JUMP JUMPDEST PUSH1 0x1 PUSH1 0x0 SWAP1 SLOAD SWAP1 PUSH2 0x100 EXP SWAP1 DIV PUSH20 0xFFFFFFFFFFFFFFFFFFFFFFFFFFFFFFFFFFFFFFFF AND DUP2 JUMP JUMPDEST PUSH1 0x0 DUP1 SLOAD SWAP1 PUSH2 0x100 EXP SWAP1 DIV PUSH20 0xFFFFFFFFFFFFFFFFFFFFFFFFFFFFFFFFFFFFFFFF AND DUP2 JUMP JUMPDEST PUSH1 0x0 DUP1 PUSH1 0x3 PUSH8 0xFFFFFFFFFFFFFFFF DUP2 GT ISZERO PUSH2 0xDFE JUMPI PUSH2 0xDFD PUSH2 0x1D72 JUMP JUMPDEST JUMPDEST PUSH1 0x40 MLOAD SWAP1 DUP1 DUP3 MSTORE DUP1 PUSH1 0x20 MUL PUSH1 0x20 ADD DUP3 ADD PUSH1 0x40 MSTORE DUP1 ISZERO PUSH2 0xE2C JUMPI DUP2 PUSH1 0x20 ADD PUSH1 0x20 DUP3 MUL DUP1 CALLDATASIZE DUP4 CALLDATACOPY DUP1 DUP3 ADD SWAP2 POP POP SWAP1 POP JUMPDEST POP SWAP1 POP DUP3 DUP2 PUSH1 0x0 DUP2 MLOAD DUP2 LT PUSH2 0xE44 JUMPI PUSH2 0xE43 PUSH2 0x1D43 JUMP JUMPDEST JUMPDEST PUSH1 0x20 MUL PUSH1 0x20 ADD ADD SWAP1 PUSH20 0xFFFFFFFFFFFFFFFFFFFFFFFFFFFFFFFFFFFFFFFF AND SWAP1 DUP2 PUSH20 0xFFFFFFFFFFFFFFFFFFFFFFFFFFFFFFFFFFFFFFFF AND DUP2 MSTORE POP POP PUSH1 0x0 DUP1 SLOAD SWAP1 PUSH2 0x100 EXP SWAP1 DIV PUSH20 0xFFFFFFFFFFFFFFFFFFFFFFFFFFFFFFFFFFFFFFFF AND DUP2 PUSH1 0x1 DUP2 MLOAD DUP2 LT PUSH2 0xEB3 JUMPI PUSH2 0xEB2 PUSH2 0x1D43 JUMP JUMPDEST JUMPDEST PUSH1 0x20 MUL PUSH1 0x20 ADD ADD SWAP1 PUSH20 0xFFFFFFFFFFFFFFFFFFFFFFFFFFFFFFFFFFFFFFFF AND SWAP1 DUP2 PUSH20 0xFFFFFFFFFFFFFFFFFFFFFFFFFFFFFFFFFFFFFFFF AND DUP2 MSTORE POP POP PUSH1 0x1 PUSH1 0x0 SWAP1 SLOAD SWAP1 PUSH2 0x100 EXP SWAP1 DIV PUSH20 0xFFFFFFFFFFFFFFFFFFFFFFFFFFFFFFFFFFFFFFFF AND DUP2 PUSH1 0x2 DUP2 MLOAD DUP2 LT PUSH2 0xF24 JUMPI PUSH2 0xF23 PUSH2 0x1D43 JUMP JUMPDEST JUMPDEST PUSH1 0x20 MUL PUSH1 0x20 ADD ADD SWAP1 PUSH20 0xFFFFFFFFFFFFFFFFFFFFFFFFFFFFFFFFFFFFFFFF AND SWAP1 DUP2 PUSH20 0xFFFFFFFFFFFFFFFFFFFFFFFFFFFFFFFFFFFFFFFF AND DUP2 MSTORE POP POP DUP4 PUSH20 0xFFFFFFFFFFFFFFFFFFFFFFFFFFFFFFFFFFFFFFFF AND PUSH4 0xD06CA61F PUSH1 0x2 SLOAD DUP4 PUSH1 0x40 MLOAD DUP4 PUSH4 0xFFFFFFFF AND PUSH1 0xE0 SHL DUP2 MSTORE PUSH1 0x4 ADD PUSH2 0xF9B SWAP3 SWAP2 SWAP1 PUSH2 0x1A28 JUMP JUMPDEST PUSH1 0x0 PUSH1 0x40 MLOAD DUP1 DUP4 SUB DUP2 DUP7 DUP1 EXTCODESIZE ISZERO DUP1 ISZERO PUSH2 0xFB3 JUMPI PUSH1 0x0 DUP1 REVERT JUMPDEST POP GAS STATICCALL ISZERO DUP1 ISZERO PUSH2 0xFC7 JUMPI RETURNDATASIZE PUSH1 0x0 DUP1 RETURNDATACOPY RETURNDATASIZE PUSH1 0x0 REVERT JUMPDEST POP POP POP POP PUSH1 0x40 MLOAD RETURNDATASIZE PUSH1 0x0 DUP3 RETURNDATACOPY RETURNDATASIZE PUSH1 0x1F NOT PUSH1 0x1F DUP3 ADD AND DUP3 ADD DUP1 PUSH1 0x40 MSTORE POP DUP2 ADD SWAP1 PUSH2 0xFF0 SWAP2 SWAP1 PUSH2 0x16A3 JUMP JUMPDEST PUSH1 0x2 DUP2 MLOAD DUP2 LT PUSH2 0x1003 JUMPI PUSH2 0x1002 PUSH2 0x1D43 JUMP JUMPDEST JUMPDEST PUSH1 0x20 MUL PUSH1 0x20 ADD ADD MLOAD SWAP2 POP POP SWAP3 SWAP2 POP POP JUMP JUMPDEST PUSH1 0x0 DUP1 DUP4 PUSH20 0xFFFFFFFFFFFFFFFFFFFFFFFFFFFFFFFFFFFFFFFF AND PUSH4 0x1526FE27 DUP9 PUSH1 0x40 MLOAD DUP3 PUSH4 0xFFFFFFFF AND PUSH1 0xE0 SHL DUP2 MSTORE PUSH1 0x4 ADD PUSH2 0x1050 SWAP2 SWAP1 PUSH2 0x1A0D JUMP JUMPDEST PUSH1 0xC0 PUSH1 0x40 MLOAD DUP1 DUP4 SUB DUP2 DUP7 DUP1 EXTCODESIZE ISZERO DUP1 ISZERO PUSH2 0x1068 JUMPI PUSH1 0x0 DUP1 REVERT JUMPDEST POP GAS STATICCALL ISZERO DUP1 ISZERO PUSH2 0x107C JUMPI RETURNDATASIZE PUSH1 0x0 DUP1 RETURNDATACOPY RETURNDATASIZE PUSH1 0x0 REVERT JUMPDEST POP POP POP POP PUSH1 0x40 MLOAD RETURNDATASIZE PUSH1 0x1F NOT PUSH1 0x1F DUP3 ADD AND DUP3 ADD DUP1 PUSH1 0x40 MSTORE POP DUP2 ADD SWAP1 PUSH2 0x10A0 SWAP2 SWAP1 PUSH2 0x1799 JUMP JUMPDEST SWAP1 POP PUSH1 0x0 PUSH2 0x1138 DUP6 PUSH20 0xFFFFFFFFFFFFFFFFFFFFFFFFFFFFFFFFFFFFFFFF AND PUSH4 0x17CAF6F1 PUSH1 0x40 MLOAD DUP2 PUSH4 0xFFFFFFFF AND PUSH1 0xE0 SHL DUP2 MSTORE PUSH1 0x4 ADD PUSH1 0x20 PUSH1 0x40 MLOAD DUP1 DUP4 SUB DUP2 DUP7 DUP1 EXTCODESIZE ISZERO DUP1 ISZERO PUSH2 0x10ED JUMPI PUSH1 0x0 DUP1 REVERT JUMPDEST POP GAS STATICCALL ISZERO DUP1 ISZERO PUSH2 0x1101 JUMPI RETURNDATASIZE PUSH1 0x0 DUP1 RETURNDATACOPY RETURNDATASIZE PUSH1 0x0 REVERT JUMPDEST POP POP POP POP PUSH1 0x40 MLOAD RETURNDATASIZE PUSH1 0x1F NOT PUSH1 0x1F DUP3 ADD AND DUP3 ADD DUP1 PUSH1 0x40 MSTORE POP DUP2 ADD SWAP1 PUSH2 0x1125 SWAP2 SWAP1 PUSH2 0x17C6 JUMP JUMPDEST DUP4 PUSH1 0x20 ADD MLOAD PUSH2 0x12E0 SWAP1 SWAP2 SWAP1 PUSH4 0xFFFFFFFF AND JUMP JUMPDEST SWAP1 POP PUSH1 0x0 PUSH2 0x11C3 DUP6 DUP8 PUSH20 0xFFFFFFFFFFFFFFFFFFFFFFFFFFFFFFFFFFFFFFFF AND PUSH4 0x141AA0BA PUSH1 0x40 MLOAD DUP2 PUSH4 0xFFFFFFFF AND PUSH1 0xE0 SHL DUP2 MSTORE PUSH1 0x4 ADD PUSH1 0x20 PUSH1 0x40 MLOAD DUP1 DUP4 SUB DUP2 DUP7 DUP1 EXTCODESIZE ISZERO DUP1 ISZERO PUSH2 0x1186 JUMPI PUSH1 0x0 DUP1 REVERT JUMPDEST POP GAS STATICCALL ISZERO DUP1 ISZERO PUSH2 0x119A JUMPI RETURNDATASIZE PUSH1 0x0 DUP1 RETURNDATACOPY RETURNDATASIZE PUSH1 0x0 REVERT JUMPDEST POP POP POP POP PUSH1 0x40 MLOAD RETURNDATASIZE PUSH1 0x1F NOT PUSH1 0x1F DUP3 ADD AND DUP3 ADD DUP1 PUSH1 0x40 MSTORE POP DUP2 ADD SWAP1 PUSH2 0x11BE SWAP2 SWAP1 PUSH2 0x1676 JUMP JUMPDEST PUSH2 0xDE0 JUMP JUMPDEST SWAP1 POP PUSH1 0x0 PUSH2 0x126D PUSH2 0x125C PUSH1 0x2 SLOAD DUP10 PUSH20 0xFFFFFFFFFFFFFFFFFFFFFFFFFFFFFFFFFFFFFFFF AND PUSH4 0xA1EEF821 PUSH1 0x40 MLOAD DUP2 PUSH4 0xFFFFFFFF AND PUSH1 0xE0 SHL DUP2 MSTORE PUSH1 0x4 ADD PUSH1 0x20 PUSH1 0x40 MLOAD DUP1 DUP4 SUB DUP2 DUP7 DUP1 EXTCODESIZE ISZERO DUP1 ISZERO PUSH2 0x1216 JUMPI PUSH1 0x0 DUP1 REVERT JUMPDEST POP GAS STATICCALL ISZERO DUP1 ISZERO PUSH2 0x122A JUMPI RETURNDATASIZE PUSH1 0x0 DUP1 RETURNDATACOPY RETURNDATASIZE PUSH1 0x0 REVERT JUMPDEST POP POP POP POP PUSH1 0x40 MLOAD RETURNDATASIZE PUSH1 0x1F NOT PUSH1 0x1F DUP3 ADD AND DUP3 ADD DUP1 PUSH1 0x40 MSTORE POP DUP2 ADD SWAP1 PUSH2 0x124E SWAP2 SWAP1 PUSH2 0x17C6 JUMP JUMPDEST PUSH2 0x13B9 SWAP1 SWAP2 SWAP1 PUSH4 0xFFFFFFFF AND JUMP JUMPDEST PUSH1 0x3 SLOAD PUSH2 0x12E0 SWAP1 SWAP2 SWAP1 PUSH4 0xFFFFFFFF AND JUMP JUMPDEST SWAP1 POP PUSH1 0x0 PUSH2 0x1284 DUP5 DUP4 PUSH2 0x12E0 SWAP1 SWAP2 SWAP1 PUSH4 0xFFFFFFFF AND JUMP JUMPDEST SWAP1 POP PUSH1 0x0 PUSH2 0x1295 DUP13 DUP13 DUP13 DUP13 DUP13 PUSH2 0xC50 JUMP JUMPDEST SWAP1 POP PUSH2 0x12CF PUSH1 0x64 PUSH2 0x12C1 DUP4 PUSH2 0x12B3 DUP9 DUP8 PUSH2 0x12E0 SWAP1 SWAP2 SWAP1 PUSH4 0xFFFFFFFF AND JUMP JUMPDEST PUSH2 0x13B9 SWAP1 SWAP2 SWAP1 PUSH4 0xFFFFFFFF AND JUMP JUMPDEST PUSH2 0x12E0 SWAP1 SWAP2 SWAP1 PUSH4 0xFFFFFFFF AND JUMP JUMPDEST SWAP7 POP POP POP POP POP POP POP SWAP6 SWAP5 POP POP POP POP POP JUMP JUMPDEST PUSH1 0x0 DUP1 DUP4 EQ ISZERO PUSH2 0x12F3 JUMPI PUSH1 0x0 SWAP1 POP PUSH2 0x1355 JUMP JUMPDEST PUSH1 0x0 DUP3 DUP5 PUSH2 0x1301 SWAP2 SWAP1 PUSH2 0x1B85 JUMP JUMPDEST SWAP1 POP DUP3 DUP5 DUP3 PUSH2 0x1310 SWAP2 SWAP1 PUSH2 0x1B54 JUMP JUMPDEST EQ PUSH2 0x1350 JUMPI PUSH1 0x40 MLOAD PUSH32 0x8C379A000000000000000000000000000000000000000000000000000000000 DUP2 MSTORE PUSH1 0x4 ADD PUSH2 0x1347 SWAP1 PUSH2 0x19ED JUMP JUMPDEST PUSH1 0x40 MLOAD DUP1 SWAP2 SUB SWAP1 REVERT JUMPDEST DUP1 SWAP2 POP POP JUMPDEST SWAP3 SWAP2 POP POP JUMP JUMPDEST PUSH1 0x0 DUP1 DUP3 DUP5 PUSH2 0x136A SWAP2 SWAP1 PUSH2 0x1AFE JUMP JUMPDEST SWAP1 POP DUP4 DUP2 LT ISZERO PUSH2 0x13AF JUMPI PUSH1 0x40 MLOAD PUSH32 0x8C379A000000000000000000000000000000000000000000000000000000000 DUP2 MSTORE PUSH1 0x4 ADD PUSH2 0x13A6 SWAP1 PUSH2 0x19CD JUMP JUMPDEST PUSH1 0x40 MLOAD DUP1 SWAP2 SUB SWAP1 REVERT JUMPDEST DUP1 SWAP2 POP POP SWAP3 SWAP2 POP POP JUMP JUMPDEST PUSH1 0x0 PUSH2 0x13FB DUP4 DUP4 PUSH1 0x40 MLOAD DUP1 PUSH1 0x40 ADD PUSH1 0x40 MSTORE DUP1 PUSH1 0x1A DUP2 MSTORE PUSH1 0x20 ADD PUSH32 0x536166654D6174683A206469766973696F6E206279207A65726F000000000000 DUP2 MSTORE POP PUSH2 0x1403 JUMP JUMPDEST SWAP1 POP SWAP3 SWAP2 POP POP JUMP JUMPDEST PUSH1 0x0 DUP1 DUP4 GT DUP3 SWAP1 PUSH2 0x144A JUMPI PUSH1 0x40 MLOAD PUSH32 0x8C379A000000000000000000000000000000000000000000000000000000000 DUP2 MSTORE PUSH1 0x4 ADD PUSH2 0x1441 SWAP2 SWAP1 PUSH2 0x19AB JUMP JUMPDEST PUSH1 0x40 MLOAD DUP1 SWAP2 SUB SWAP1 REVERT JUMPDEST POP PUSH1 0x0 DUP4 DUP6 PUSH2 0x1459 SWAP2 SWAP1 PUSH2 0x1B54 JUMP JUMPDEST SWAP1 POP DUP1 SWAP2 POP POP SWAP4 SWAP3 POP POP POP JUMP JUMPDEST PUSH1 0x0 PUSH2 0x1479 PUSH2 0x1474 DUP5 PUSH2 0x1A7D JUMP JUMPDEST PUSH2 0x1A58 JUMP JUMPDEST SWAP1 POP DUP1 DUP4 DUP3 MSTORE PUSH1 0x20 DUP3 ADD SWAP1 POP DUP3 DUP6 PUSH1 0x20 DUP7 MUL DUP3 ADD GT ISZERO PUSH2 0x149C JUMPI PUSH2 0x149B PUSH2 0x1DAB JUMP JUMPDEST JUMPDEST PUSH1 0x0 JUMPDEST DUP6 DUP2 LT ISZERO PUSH2 0x14CC JUMPI DUP2 PUSH2 0x14B2 DUP9 DUP3 PUSH2 0x1661 JUMP JUMPDEST DUP5 MSTORE PUSH1 0x20 DUP5 ADD SWAP4 POP PUSH1 0x20 DUP4 ADD SWAP3 POP POP PUSH1 0x1 DUP2 ADD SWAP1 POP PUSH2 0x149F JUMP JUMPDEST POP POP POP SWAP4 SWAP3 POP POP POP JUMP JUMPDEST PUSH1 0x0 DUP2 CALLDATALOAD SWAP1 POP PUSH2 0x14E5 DUP2 PUSH2 0x1E43 JUMP JUMPDEST SWAP3 SWAP2 POP POP JUMP JUMPDEST PUSH1 0x0 DUP2 MLOAD SWAP1 POP PUSH2 0x14FA DUP2 PUSH2 0x1E43 JUMP JUMPDEST SWAP3 SWAP2 POP POP JUMP JUMPDEST PUSH1 0x0 DUP3 PUSH1 0x1F DUP4 ADD SLT PUSH2 0x1515 JUMPI PUSH2 0x1514 PUSH2 0x1DA1 JUMP JUMPDEST JUMPDEST DUP2 MLOAD PUSH2 0x1525 DUP5 DUP3 PUSH1 0x20 DUP7 ADD PUSH2 0x1466 JUMP JUMPDEST SWAP2 POP POP SWAP3 SWAP2 POP POP JUMP JUMPDEST PUSH1 0x0 DUP2 CALLDATALOAD SWAP1 POP PUSH2 0x153D DUP2 PUSH2 0x1E5A JUMP JUMPDEST SWAP3 SWAP2 POP POP JUMP JUMPDEST PUSH1 0x0 DUP2 MLOAD SWAP1 POP PUSH2 0x1552 DUP2 PUSH2 0x1E71 JUMP JUMPDEST SWAP3 SWAP2 POP POP JUMP JUMPDEST PUSH1 0x0 DUP2 MLOAD SWAP1 POP PUSH2 0x1567 DUP2 PUSH2 0x1E88 JUMP JUMPDEST SWAP3 SWAP2 POP POP JUMP JUMPDEST PUSH1 0x0 DUP2 CALLDATALOAD SWAP1 POP PUSH2 0x157C DUP2 PUSH2 0x1E9F JUMP JUMPDEST SWAP3 SWAP2 POP POP JUMP JUMPDEST PUSH1 0x0 DUP2 CALLDATALOAD SWAP1 POP PUSH2 0x1591 DUP2 PUSH2 0x1EB6 JUMP JUMPDEST SWAP3 SWAP2 POP POP JUMP JUMPDEST PUSH1 0x0 DUP2 CALLDATALOAD SWAP1 POP PUSH2 0x15A6 DUP2 PUSH2 0x1ECD JUMP JUMPDEST SWAP3 SWAP2 POP POP JUMP JUMPDEST PUSH1 0x0 PUSH1 0xC0 DUP3 DUP5 SUB SLT ISZERO PUSH2 0x15C2 JUMPI PUSH2 0x15C1 PUSH2 0x1DA6 JUMP JUMPDEST JUMPDEST PUSH2 0x15CC PUSH1 0xC0 PUSH2 0x1A58 JUMP JUMPDEST SWAP1 POP PUSH1 0x0 PUSH2 0x15DC DUP5 DUP3 DUP6 ADD PUSH2 0x1543 JUMP JUMPDEST PUSH1 0x0 DUP4 ADD MSTORE POP PUSH1 0x20 PUSH2 0x15F0 DUP5 DUP3 DUP6 ADD PUSH2 0x1661 JUMP JUMPDEST PUSH1 0x20 DUP4 ADD MSTORE POP PUSH1 0x40 PUSH2 0x1604 DUP5 DUP3 DUP6 ADD PUSH2 0x1661 JUMP JUMPDEST PUSH1 0x40 DUP4 ADD MSTORE POP PUSH1 0x60 PUSH2 0x1618 DUP5 DUP3 DUP6 ADD PUSH2 0x1661 JUMP JUMPDEST PUSH1 0x60 DUP4 ADD MSTORE POP PUSH1 0x80 PUSH2 0x162C DUP5 DUP3 DUP6 ADD PUSH2 0x1558 JUMP JUMPDEST PUSH1 0x80 DUP4 ADD MSTORE POP PUSH1 0xA0 PUSH2 0x1640 DUP5 DUP3 DUP6 ADD PUSH2 0x1543 JUMP JUMPDEST PUSH1 0xA0 DUP4 ADD MSTORE POP SWAP3 SWAP2 POP POP JUMP JUMPDEST PUSH1 0x0 DUP2 CALLDATALOAD SWAP1 POP PUSH2 0x165B DUP2 PUSH2 0x1EE4 JUMP JUMPDEST SWAP3 SWAP2 POP POP JUMP JUMPDEST PUSH1 0x0 DUP2 MLOAD SWAP1 POP PUSH2 0x1670 DUP2 PUSH2 0x1EE4 JUMP JUMPDEST SWAP3 SWAP2 POP POP JUMP JUMPDEST PUSH1 0x0 PUSH1 0x20 DUP3 DUP5 SUB SLT ISZERO PUSH2 0x168C JUMPI PUSH2 0x168B PUSH2 0x1DB5 JUMP JUMPDEST JUMPDEST PUSH1 0x0 PUSH2 0x169A DUP5 DUP3 DUP6 ADD PUSH2 0x14EB JUMP JUMPDEST SWAP2 POP POP SWAP3 SWAP2 POP POP JUMP JUMPDEST PUSH1 0x0 PUSH1 0x20 DUP3 DUP5 SUB SLT ISZERO PUSH2 0x16B9 JUMPI PUSH2 0x16B8 PUSH2 0x1DB5 JUMP JUMPDEST JUMPDEST PUSH1 0x0 DUP3 ADD MLOAD PUSH8 0xFFFFFFFFFFFFFFFF DUP2 GT ISZERO PUSH2 0x16D7 JUMPI PUSH2 0x16D6 PUSH2 0x1DB0 JUMP JUMPDEST JUMPDEST PUSH2 0x16E3 DUP5 DUP3 DUP6 ADD PUSH2 0x1500 JUMP JUMPDEST SWAP2 POP POP SWAP3 SWAP2 POP POP JUMP JUMPDEST PUSH1 0x0 PUSH1 0x20 DUP3 DUP5 SUB SLT ISZERO PUSH2 0x1702 JUMPI PUSH2 0x1701 PUSH2 0x1DB5 JUMP JUMPDEST JUMPDEST PUSH1 0x0 PUSH2 0x1710 DUP5 DUP3 DUP6 ADD PUSH2 0x1543 JUMP JUMPDEST SWAP2 POP POP SWAP3 SWAP2 POP POP JUMP JUMPDEST PUSH1 0x0 DUP1 PUSH1 0x40 DUP4 DUP6 SUB SLT ISZERO PUSH2 0x1730 JUMPI PUSH2 0x172F PUSH2 0x1DB5 JUMP JUMPDEST JUMPDEST PUSH1 0x0 PUSH2 0x173E DUP6 DUP3 DUP7 ADD PUSH2 0x156D JUMP JUMPDEST SWAP3 POP POP PUSH1 0x20 PUSH2 0x174F DUP6 DUP3 DUP7 ADD PUSH2 0x1597 JUMP JUMPDEST SWAP2 POP POP SWAP3 POP SWAP3 SWAP1 POP JUMP JUMPDEST PUSH1 0x0 DUP1 PUSH1 0x40 DUP4 DUP6 SUB SLT ISZERO PUSH2 0x1770 JUMPI PUSH2 0x176F PUSH2 0x1DB5 JUMP JUMPDEST JUMPDEST PUSH1 0x0 PUSH2 0x177E DUP6 DUP3 DUP7 ADD PUSH2 0x1597 JUMP JUMPDEST SWAP3 POP POP PUSH1 0x20 PUSH2 0x178F DUP6 DUP3 DUP7 ADD PUSH2 0x14D6 JUMP JUMPDEST SWAP2 POP POP SWAP3 POP SWAP3 SWAP1 POP JUMP JUMPDEST PUSH1 0x0 PUSH1 0xC0 DUP3 DUP5 SUB SLT ISZERO PUSH2 0x17AF JUMPI PUSH2 0x17AE PUSH2 0x1DB5 JUMP JUMPDEST JUMPDEST PUSH1 0x0 PUSH2 0x17BD DUP5 DUP3 DUP6 ADD PUSH2 0x15AC JUMP JUMPDEST SWAP2 POP POP SWAP3 SWAP2 POP POP JUMP JUMPDEST PUSH1 0x0 PUSH1 0x20 DUP3 DUP5 SUB SLT ISZERO PUSH2 0x17DC JUMPI PUSH2 0x17DB PUSH2 0x1DB5 JUMP JUMPDEST JUMPDEST PUSH1 0x0 PUSH2 0x17EA DUP5 DUP3 DUP6 ADD PUSH2 0x1661 JUMP JUMPDEST SWAP2 POP POP SWAP3 SWAP2 POP POP JUMP JUMPDEST PUSH1 0x0 DUP1 PUSH1 0x0 DUP1 PUSH1 0x0 PUSH1 0xA0 DUP7 DUP9 SUB SLT ISZERO PUSH2 0x180F JUMPI PUSH2 0x180E PUSH2 0x1DB5 JUMP JUMPDEST JUMPDEST PUSH1 0x0 PUSH2 0x181D DUP9 DUP3 DUP10 ADD PUSH2 0x164C JUMP JUMPDEST SWAP6 POP POP PUSH1 0x20 PUSH2 0x182E DUP9 DUP3 DUP10 ADD PUSH2 0x156D JUMP JUMPDEST SWAP5 POP POP PUSH1 0x40 PUSH2 0x183F DUP9 DUP3 DUP10 ADD PUSH2 0x152E JUMP JUMPDEST SWAP4 POP POP PUSH1 0x60 PUSH2 0x1850 DUP9 DUP3 DUP10 ADD PUSH2 0x1582 JUMP JUMPDEST SWAP3 POP POP PUSH1 0x80 PUSH2 0x1861 DUP9 DUP3 DUP10 ADD PUSH2 0x1597 JUMP JUMPDEST SWAP2 POP POP SWAP3 SWAP6 POP SWAP3 SWAP6 SWAP1 SWAP4 POP JUMP JUMPDEST PUSH1 0x0 PUSH2 0x187A DUP4 DUP4 PUSH2 0x1886 JUMP JUMPDEST PUSH1 0x20 DUP4 ADD SWAP1 POP SWAP3 SWAP2 POP POP JUMP JUMPDEST PUSH2 0x188F DUP2 PUSH2 0x1BDF JUMP JUMPDEST DUP3 MSTORE POP POP JUMP JUMPDEST PUSH2 0x189E DUP2 PUSH2 0x1BDF JUMP JUMPDEST DUP3 MSTORE POP POP JUMP JUMPDEST PUSH1 0x0 PUSH2 0x18AF DUP3 PUSH2 0x1AB9 JUMP JUMPDEST PUSH2 0x18B9 DUP2 DUP6 PUSH2 0x1ADC JUMP JUMPDEST SWAP4 POP PUSH2 0x18C4 DUP4 PUSH2 0x1AA9 JUMP JUMPDEST DUP1 PUSH1 0x0 JUMPDEST DUP4 DUP2 LT ISZERO PUSH2 0x18F5 JUMPI DUP2 MLOAD PUSH2 0x18DC DUP9 DUP3 PUSH2 0x186E JUMP JUMPDEST SWAP8 POP PUSH2 0x18E7 DUP4 PUSH2 0x1ACF JUMP JUMPDEST SWAP3 POP POP PUSH1 0x1 DUP2 ADD SWAP1 POP PUSH2 0x18C8 JUMP JUMPDEST POP DUP6 SWAP4 POP POP POP POP SWAP3 SWAP2 POP POP JUMP JUMPDEST PUSH1 0x0 PUSH2 0x190D DUP3 PUSH2 0x1AC4 JUMP JUMPDEST PUSH2 0x1917 DUP2 DUP6 PUSH2 0x1AED JUMP JUMPDEST SWAP4 POP PUSH2 0x1927 DUP2 DUP6 PUSH1 0x20 DUP7 ADD PUSH2 0x1C81 JUMP JUMPDEST PUSH2 0x1930 DUP2 PUSH2 0x1DBA JUMP JUMPDEST DUP5 ADD SWAP2 POP POP SWAP3 SWAP2 POP POP JUMP JUMPDEST PUSH1 0x0 PUSH2 0x1948 PUSH1 0x1B DUP4 PUSH2 0x1AED JUMP JUMPDEST SWAP2 POP PUSH2 0x1953 DUP3 PUSH2 0x1DCB JUMP JUMPDEST PUSH1 0x20 DUP3 ADD SWAP1 POP SWAP2 SWAP1 POP JUMP JUMPDEST PUSH1 0x0 PUSH2 0x196B PUSH1 0x21 DUP4 PUSH2 0x1AED JUMP JUMPDEST SWAP2 POP PUSH2 0x1976 DUP3 PUSH2 0x1DF4 JUMP JUMPDEST PUSH1 0x40 DUP3 ADD SWAP1 POP SWAP2 SWAP1 POP JUMP JUMPDEST PUSH2 0x198A DUP2 PUSH2 0x1C77 JUMP JUMPDEST DUP3 MSTORE POP POP JUMP JUMPDEST PUSH1 0x0 PUSH1 0x20 DUP3 ADD SWAP1 POP PUSH2 0x19A5 PUSH1 0x0 DUP4 ADD DUP5 PUSH2 0x1895 JUMP JUMPDEST SWAP3 SWAP2 POP POP JUMP JUMPDEST PUSH1 0x0 PUSH1 0x20 DUP3 ADD SWAP1 POP DUP2 DUP2 SUB PUSH1 0x0 DUP4 ADD MSTORE PUSH2 0x19C5 DUP2 DUP5 PUSH2 0x1902 JUMP JUMPDEST SWAP1 POP SWAP3 SWAP2 POP POP JUMP JUMPDEST PUSH1 0x0 PUSH1 0x20 DUP3 ADD SWAP1 POP DUP2 DUP2 SUB PUSH1 0x0 DUP4 ADD MSTORE PUSH2 0x19E6 DUP2 PUSH2 0x193B JUMP JUMPDEST SWAP1 POP SWAP2 SWAP1 POP JUMP JUMPDEST PUSH1 0x0 PUSH1 0x20 DUP3 ADD SWAP1 POP DUP2 DUP2 SUB PUSH1 0x0 DUP4 ADD MSTORE PUSH2 0x1A06 DUP2 PUSH2 0x195E JUMP JUMPDEST SWAP1 POP SWAP2 SWAP1 POP JUMP JUMPDEST PUSH1 0x0 PUSH1 0x20 DUP3 ADD SWAP1 POP PUSH2 0x1A22 PUSH1 0x0 DUP4 ADD DUP5 PUSH2 0x1981 JUMP JUMPDEST SWAP3 SWAP2 POP POP JUMP JUMPDEST PUSH1 0x0 PUSH1 0x40 DUP3 ADD SWAP1 POP PUSH2 0x1A3D PUSH1 0x0 DUP4 ADD DUP6 PUSH2 0x1981 JUMP JUMPDEST DUP2 DUP2 SUB PUSH1 0x20 DUP4 ADD MSTORE PUSH2 0x1A4F DUP2 DUP5 PUSH2 0x18A4 JUMP JUMPDEST SWAP1 POP SWAP4 SWAP3 POP POP POP JUMP JUMPDEST PUSH1 0x0 PUSH2 0x1A62 PUSH2 0x1A73 JUMP JUMPDEST SWAP1 POP PUSH2 0x1A6E DUP3 DUP3 PUSH2 0x1CB4 JUMP JUMPDEST SWAP2 SWAP1 POP JUMP JUMPDEST PUSH1 0x0 PUSH1 0x40 MLOAD SWAP1 POP SWAP1 JUMP JUMPDEST PUSH1 0x0 PUSH8 0xFFFFFFFFFFFFFFFF DUP3 GT ISZERO PUSH2 0x1A98 JUMPI PUSH2 0x1A97 PUSH2 0x1D72 JUMP JUMPDEST JUMPDEST PUSH1 0x20 DUP3 MUL SWAP1 POP PUSH1 0x20 DUP2 ADD SWAP1 POP SWAP2 SWAP1 POP JUMP JUMPDEST PUSH1 0x0 DUP2 SWAP1 POP PUSH1 0x20 DUP3 ADD SWAP1 POP SWAP2 SWAP1 POP JUMP JUMPDEST PUSH1 0x0 DUP2 MLOAD SWAP1 POP SWAP2 SWAP1 POP JUMP JUMPDEST PUSH1 0x0 DUP2 MLOAD SWAP1 POP SWAP2 SWAP1 POP JUMP JUMPDEST PUSH1 0x0 PUSH1 0x20 DUP3 ADD SWAP1 POP SWAP2 SWAP1 POP JUMP JUMPDEST PUSH1 0x0 DUP3 DUP3 MSTORE PUSH1 0x20 DUP3 ADD SWAP1 POP SWAP3 SWAP2 POP POP JUMP JUMPDEST PUSH1 0x0 DUP3 DUP3 MSTORE PUSH1 0x20 DUP3 ADD SWAP1 POP SWAP3 SWAP2 POP POP JUMP JUMPDEST PUSH1 0x0 PUSH2 0x1B09 DUP3 PUSH2 0x1C77 JUMP JUMPDEST SWAP2 POP PUSH2 0x1B14 DUP4 PUSH2 0x1C77 JUMP JUMPDEST SWAP3 POP DUP3 PUSH32 0xFFFFFFFFFFFFFFFFFFFFFFFFFFFFFFFFFFFFFFFFFFFFFFFFFFFFFFFFFFFFFFFF SUB DUP3 GT ISZERO PUSH2 0x1B49 JUMPI PUSH2 0x1B48 PUSH2 0x1CE5 JUMP JUMPDEST JUMPDEST DUP3 DUP3 ADD SWAP1 POP SWAP3 SWAP2 POP POP JUMP JUMPDEST PUSH1 0x0 PUSH2 0x1B5F DUP3 PUSH2 0x1C77 JUMP JUMPDEST SWAP2 POP PUSH2 0x1B6A DUP4 PUSH2 0x1C77 JUMP JUMPDEST SWAP3 POP DUP3 PUSH2 0x1B7A JUMPI PUSH2 0x1B79 PUSH2 0x1D14 JUMP JUMPDEST JUMPDEST DUP3 DUP3 DIV SWAP1 POP SWAP3 SWAP2 POP POP JUMP JUMPDEST PUSH1 0x0 PUSH2 0x1B90 DUP3 PUSH2 0x1C77 JUMP JUMPDEST SWAP2 POP PUSH2 0x1B9B DUP4 PUSH2 0x1C77 JUMP JUMPDEST SWAP3 POP DUP2 PUSH32 0xFFFFFFFFFFFFFFFFFFFFFFFFFFFFFFFFFFFFFFFFFFFFFFFFFFFFFFFFFFFFFFFF DIV DUP4 GT DUP3 ISZERO ISZERO AND ISZERO PUSH2 0x1BD4 JUMPI PUSH2 0x1BD3 PUSH2 0x1CE5 JUMP JUMPDEST JUMPDEST DUP3 DUP3 MUL SWAP1 POP SWAP3 SWAP2 POP POP JUMP JUMPDEST PUSH1 0x0 PUSH2 0x1BEA DUP3 PUSH2 0x1C57 JUMP JUMPDEST SWAP1 POP SWAP2 SWAP1 POP JUMP JUMPDEST PUSH1 0x0 DUP2 ISZERO ISZERO SWAP1 POP SWAP2 SWAP1 POP JUMP JUMPDEST PUSH1 0x0 PUSH2 0x1C08 DUP3 PUSH2 0x1BDF JUMP JUMPDEST SWAP1 POP SWAP2 SWAP1 POP JUMP JUMPDEST PUSH1 0x0 PUSH2 0x1C1A DUP3 PUSH2 0x1BDF JUMP JUMPDEST SWAP1 POP SWAP2 SWAP1 POP JUMP JUMPDEST PUSH1 0x0 PUSH2 0x1C2C DUP3 PUSH2 0x1BDF JUMP JUMPDEST SWAP1 POP SWAP2 SWAP1 POP JUMP JUMPDEST PUSH1 0x0 PUSH2 0x1C3E DUP3 PUSH2 0x1BDF JUMP JUMPDEST SWAP1 POP SWAP2 SWAP1 POP JUMP JUMPDEST PUSH1 0x0 PUSH2 0x1C50 DUP3 PUSH2 0x1BDF JUMP JUMPDEST SWAP1 POP SWAP2 SWAP1 POP JUMP JUMPDEST PUSH1 0x0 PUSH20 0xFFFFFFFFFFFFFFFFFFFFFFFFFFFFFFFFFFFFFFFF DUP3 AND SWAP1 POP SWAP2 SWAP1 POP JUMP JUMPDEST PUSH1 0x0 DUP2 SWAP1 POP SWAP2 SWAP1 POP JUMP JUMPDEST PUSH1 0x0 JUMPDEST DUP4 DUP2 LT ISZERO PUSH2 0x1C9F JUMPI DUP1 DUP3 ADD MLOAD DUP2 DUP5 ADD MSTORE PUSH1 0x20 DUP2 ADD SWAP1 POP PUSH2 0x1C84 JUMP JUMPDEST DUP4 DUP2 GT ISZERO PUSH2 0x1CAE JUMPI PUSH1 0x0 DUP5 DUP5 ADD MSTORE JUMPDEST POP POP POP POP JUMP JUMPDEST PUSH2 0x1CBD DUP3 PUSH2 0x1DBA JUMP JUMPDEST DUP2 ADD DUP2 DUP2 LT PUSH8 0xFFFFFFFFFFFFFFFF DUP3 GT OR ISZERO PUSH2 0x1CDC JUMPI PUSH2 0x1CDB PUSH2 0x1D72 JUMP JUMPDEST JUMPDEST DUP1 PUSH1 0x40 MSTORE POP POP POP JUMP JUMPDEST PUSH32 0x4E487B7100000000000000000000000000000000000000000000000000000000 PUSH1 0x0 MSTORE PUSH1 0x11 PUSH1 0x4 MSTORE PUSH1 0x24 PUSH1 0x0 REVERT JUMPDEST PUSH32 0x4E487B7100000000000000000000000000000000000000000000000000000000 PUSH1 0x0 MSTORE PUSH1 0x12 PUSH1 0x4 MSTORE PUSH1 0x24 PUSH1 0x0 REVERT JUMPDEST PUSH32 0x4E487B7100000000000000000000000000000000000000000000000000000000 PUSH1 0x0 MSTORE PUSH1 0x32 PUSH1 0x4 MSTORE PUSH1 0x24 PUSH1 0x0 REVERT JUMPDEST PUSH32 0x4E487B7100000000000000000000000000000000000000000000000000000000 PUSH1 0x0 MSTORE PUSH1 0x41 PUSH1 0x4 MSTORE PUSH1 0x24 PUSH1 0x0 REVERT JUMPDEST PUSH1 0x0 DUP1 REVERT JUMPDEST PUSH1 0x0 DUP1 REVERT JUMPDEST PUSH1 0x0 DUP1 REVERT JUMPDEST PUSH1 0x0 DUP1 REVERT JUMPDEST PUSH1 0x0 DUP1 REVERT JUMPDEST PUSH1 0x0 PUSH1 0x1F NOT PUSH1 0x1F DUP4 ADD AND SWAP1 POP SWAP2 SWAP1 POP JUMP JUMPDEST PUSH32 0x536166654D6174683A206164646974696F6E206F766572666C6F770000000000 PUSH1 0x0 DUP3 ADD MSTORE POP JUMP JUMPDEST PUSH32 0x536166654D6174683A206D756C7469706C69636174696F6E206F766572666C6F PUSH1 0x0 DUP3 ADD MSTORE PUSH32 0x7700000000000000000000000000000000000000000000000000000000000000 PUSH1 0x20 DUP3 ADD MSTORE POP JUMP JUMPDEST PUSH2 0x1E4C DUP2 PUSH2 0x1BDF JUMP JUMPDEST DUP2 EQ PUSH2 0x1E57 JUMPI PUSH1 0x0 DUP1 REVERT JUMPDEST POP JUMP JUMPDEST PUSH2 0x1E63 DUP2 PUSH2 0x1BF1 JUMP JUMPDEST DUP2 EQ PUSH2 0x1E6E JUMPI PUSH1 0x0 DUP1 REVERT JUMPDEST POP JUMP JUMPDEST PUSH2 0x1E7A DUP2 PUSH2 0x1BFD JUMP JUMPDEST DUP2 EQ PUSH2 0x1E85 JUMPI PUSH1 0x0 DUP1 REVERT JUMPDEST POP JUMP JUMPDEST PUSH2 0x1E91 DUP2 PUSH2 0x1C0F JUMP JUMPDEST DUP2 EQ PUSH2 0x1E9C JUMPI PUSH1 0x0 DUP1 REVERT JUMPDEST POP JUMP JUMPDEST PUSH2 0x1EA8 DUP2 PUSH2 0x1C21 JUMP JUMPDEST DUP2 EQ PUSH2 0x1EB3 JUMPI PUSH1 0x0 DUP1 REVERT JUMPDEST POP JUMP JUMPDEST PUSH2 0x1EBF DUP2 PUSH2 0x1C33 JUMP JUMPDEST DUP2 EQ PUSH2 0x1ECA JUMPI PUSH1 0x0 DUP1 REVERT JUMPDEST POP JUMP JUMPDEST PUSH2 0x1ED6 DUP2 PUSH2 0x1C45 JUMP JUMPDEST DUP2 EQ PUSH2 0x1EE1 JUMPI PUSH1 0x0 DUP1 REVERT JUMPDEST POP JUMP JUMPDEST PUSH2 0x1EED DUP2 PUSH2 0x1C77 JUMP JUMPDEST DUP2 EQ PUSH2 0x1EF8 JUMPI PUSH1 0x0 DUP1 REVERT JUMPDEST POP JUMP INVALID LOG2 PUSH5 0x6970667358 0x22 SLT KECCAK256 SWAP5 LOG0 LOG3 0x28 SMOD SHL 0xAE 0xDD DUP10 PUSH29 0x4E38EF0ED5B1BB4ACE4DB7BD391E1C2A8E02C664F56064736F6C634300 ADDMOD SMOD STOP CALLER "
				},
				"gasEstimates": {
					"creation": {
						"codeDepositCost": "1597000",
						"executionCost": "94419",
						"totalCost": "1691419"
					},
					"external": {
						"BUSD()": "2514",
						"CalcApy(uint256,address,bool,address,address)": "infinite",
						"CalcLpPrice(address,address)": "infinite",
						"Tokenprice(address,address)": "infinite",
						"WBNB()": "2533",
						"WBNBPrice(address,address)": "infinite",
						"calcPoolTVLInUSD(uint256,address,bool,address,address)": "infinite"
					}
				},
				"methodIdentifiers": {
					"BUSD()": "484f4ea9",
					"CalcApy(uint256,address,bool,address,address)": "fe2d40f5",
					"CalcLpPrice(address,address)": "344e49d9",
					"Tokenprice(address,address)": "dbacc97d",
					"WBNB()": "8dd95002",
					"WBNBPrice(address,address)": "303289bb",
					"calcPoolTVLInUSD(uint256,address,bool,address,address)": "45223a21"
				}
			},
			"storageLayout": {
				"storage": [
					{
						"astId": 631,
						"contract": "contracts/Utils.sol:Utils",
						"label": "WBNB",
						"offset": 0,
						"slot": "0",
						"type": "t_address"
					},
					{
						"astId": 634,
						"contract": "contracts/Utils.sol:Utils",
						"label": "BUSD",
						"offset": 0,
						"slot": "1",
						"type": "t_address"
					},
					{
						"astId": 637,
						"contract": "contracts/Utils.sol:Utils",
						"label": "amount",
						"offset": 0,
						"slot": "2",
						"type": "t_uint256"
					},
					{
						"astId": 640,
						"contract": "contracts/Utils.sol:Utils",
						"label": "BLOCKS_PER_YEAR",
						"offset": 0,
						"slot": "3",
						"type": "t_uint256"
					}
				],
				"types": {
					"t_address": {
						"encoding": "inplace",
						"label": "address",
						"numberOfBytes": "20"
					},
					"t_uint256": {
						"encoding": "inplace",
						"label": "uint256",
						"numberOfBytes": "32"
					}
				}
			},
			"userdoc": {
				"kind": "user",
				"methods": {},
				"version": 1
			}
		}
	}
}