{
	"contracts/Utils.sol": {
		"Utils": {
			"abi": [
				{
					"inputs": [
						{
							"internalType": "contract Router",
							"name": "_routerAddress",
							"type": "address"
						}
					],
					"stateMutability": "nonpayable",
					"type": "constructor"
				},
				{
					"anonymous": false,
					"inputs": [
						{
							"indexed": true,
							"internalType": "address",
							"name": "previousOwner",
							"type": "address"
						},
						{
							"indexed": true,
							"internalType": "address",
							"name": "newOwner",
							"type": "address"
						}
					],
					"name": "OwnershipTransferred",
					"type": "event"
				},
				{
					"inputs": [],
					"name": "BUSD",
					"outputs": [
						{
							"internalType": "address",
							"name": "",
							"type": "address"
						}
					],
					"stateMutability": "view",
					"type": "function"
				},
				{
					"inputs": [
						{
							"internalType": "uint256",
							"name": "pid",
							"type": "uint256"
						},
						{
							"internalType": "contract LP",
							"name": "lpAddress",
							"type": "address"
						},
						{
							"internalType": "uint256",
							"name": "isLp",
							"type": "uint256"
						},
						{
							"internalType": "contract MetaMasterChef",
							"name": "MasterChef",
							"type": "address"
						}
					],
					"name": "CalcApy",
					"outputs": [
						{
							"internalType": "uint256",
							"name": "",
							"type": "uint256"
						}
					],
					"stateMutability": "view",
					"type": "function"
				},
				{
					"inputs": [
						{
							"internalType": "contract LP",
							"name": "lpAddress",
							"type": "address"
						}
					],
					"name": "CalcLpPrice",
					"outputs": [
						{
							"internalType": "uint256",
							"name": "",
							"type": "uint256"
						}
					],
					"stateMutability": "view",
					"type": "function"
				},
				{
					"inputs": [
						{
							"internalType": "address",
							"name": "token",
							"type": "address"
						}
					],
					"name": "Tokenprice",
					"outputs": [
						{
							"internalType": "uint256",
							"name": "",
							"type": "uint256"
						}
					],
					"stateMutability": "view",
					"type": "function"
				},
				{
					"inputs": [],
					"name": "WBNB",
					"outputs": [
						{
							"internalType": "address",
							"name": "",
							"type": "address"
						}
					],
					"stateMutability": "view",
					"type": "function"
				},
				{
					"inputs": [
						{
							"internalType": "address",
							"name": "token",
							"type": "address"
						}
					],
					"name": "WBNBPrice",
					"outputs": [
						{
							"internalType": "uint256",
							"name": "",
							"type": "uint256"
						}
					],
					"stateMutability": "view",
					"type": "function"
				},
				{
					"inputs": [
						{
							"internalType": "uint256",
							"name": "pid",
							"type": "uint256"
						},
						{
							"internalType": "contract LP",
							"name": "lpAddress",
							"type": "address"
						},
						{
							"internalType": "uint256",
							"name": "isLp",
							"type": "uint256"
						},
						{
							"internalType": "contract MetaMasterChef",
							"name": "MasterChef",
							"type": "address"
						}
					],
					"name": "calcPoolTVLInUSD",
					"outputs": [
						{
							"internalType": "uint256",
							"name": "",
							"type": "uint256"
						}
					],
					"stateMutability": "view",
					"type": "function"
				},
				{
					"inputs": [
						{
							"internalType": "uint256",
							"name": "pid",
							"type": "uint256"
						},
						{
							"internalType": "contract MetaMasterChef",
							"name": "MasterChef",
							"type": "address"
						}
					],
					"name": "getPoolWeight",
					"outputs": [
						{
							"internalType": "uint256",
							"name": "",
							"type": "uint256"
						}
					],
					"stateMutability": "view",
					"type": "function"
				},
				{
					"inputs": [
						{
							"internalType": "contract MetaMasterChef",
							"name": "MasterChef",
							"type": "address"
						}
					],
					"name": "getRewardTokenPrice",
					"outputs": [
						{
							"internalType": "uint256",
							"name": "",
							"type": "uint256"
						}
					],
					"stateMutability": "view",
					"type": "function"
				},
				{
					"inputs": [
						{
							"internalType": "uint256",
							"name": "pid",
							"type": "uint256"
						},
						{
							"internalType": "contract MetaMasterChef",
							"name": "MasterChef",
							"type": "address"
						}
					],
					"name": "getyearlyDRGRewardAllocation",
					"outputs": [
						{
							"internalType": "uint256",
							"name": "",
							"type": "uint256"
						}
					],
					"stateMutability": "view",
					"type": "function"
				},
				{
					"inputs": [],
					"name": "owner",
					"outputs": [
						{
							"internalType": "address",
							"name": "",
							"type": "address"
						}
					],
					"stateMutability": "view",
					"type": "function"
				},
				{
					"inputs": [],
					"name": "renounceOwnership",
					"outputs": [],
					"stateMutability": "nonpayable",
					"type": "function"
				},
				{
					"inputs": [],
					"name": "routerAddress",
					"outputs": [
						{
							"internalType": "contract Router",
							"name": "",
							"type": "address"
						}
					],
					"stateMutability": "view",
					"type": "function"
				},
				{
					"inputs": [
						{
							"internalType": "contract Router",
							"name": "_routerAddress",
							"type": "address"
						}
					],
					"name": "setRouter",
					"outputs": [],
					"stateMutability": "nonpayable",
					"type": "function"
				},
				{
					"inputs": [
						{
							"internalType": "address",
							"name": "newOwner",
							"type": "address"
						}
					],
					"name": "transferOwnership",
					"outputs": [],
					"stateMutability": "nonpayable",
					"type": "function"
				}
			],
			"devdoc": {
				"kind": "dev",
				"methods": {
					"owner()": {
						"details": "Returns the address of the current owner."
					},
					"renounceOwnership()": {
						"details": "Leaves the contract without owner. It will not be possible to call `onlyOwner` functions anymore. Can only be called by the current owner. NOTE: Renouncing ownership will leave the contract without an owner, thereby removing any functionality that is only available to the owner."
					},
					"transferOwnership(address)": {
						"details": "Transfers ownership of the contract to a new account (`newOwner`). Can only be called by the current owner."
					}
				},
				"version": 1
			},
			"evm": {
				"assembly": "    /* \"contracts/Utils.sol\":17198:21292  contract Utils is Ownable{... */\n  mstore(0x40, 0x80)\n    /* \"contracts/Utils.sol\":17285:17327  0xae13d989daC2f0dEbFf460aC112a837C89BAa7cd */\n  0xae13d989dac2f0debff460ac112a837c89baa7cd\n    /* \"contracts/Utils.sol\":17263:17327  address public WBNB = 0xae13d989daC2f0dEbFf460aC112a837C89BAa7cd */\n  0x01\n  exp(0x0100, 0x00)\n  dup2\n  sload\n  dup2\n  0xffffffffffffffffffffffffffffffffffffffff\n  mul\n  not\n  and\n  swap1\n  dup4\n  0xffffffffffffffffffffffffffffffffffffffff\n  and\n  mul\n  or\n  swap1\n  sstore\n  pop\n    /* \"contracts/Utils.sol\":17356:17398  0x78867BbEeF44f2326bF8DDd1941a4439382EF2A7 */\n  0x78867bbeef44f2326bf8ddd1941a4439382ef2a7\n    /* \"contracts/Utils.sol\":17334:17398  address public BUSD = 0x78867BbEeF44f2326bF8DDd1941a4439382EF2A7 */\n  0x02\n  exp(0x0100, 0x00)\n  dup2\n  sload\n  dup2\n  0xffffffffffffffffffffffffffffffffffffffff\n  mul\n  not\n  and\n  swap1\n  dup4\n  0xffffffffffffffffffffffffffffffffffffffff\n  and\n  mul\n  or\n  swap1\n  sstore\n  pop\n    /* \"contracts/Utils.sol\":17422:17441  1000000000000000000 */\n  0x0de0b6b3a7640000\n    /* \"contracts/Utils.sol\":17405:17441  uint256 amount = 1000000000000000000 */\n  0x03\n  sstore\n    /* \"contracts/Utils.sol\":17510:17518  10512000 */\n  0xa06680\n    /* \"contracts/Utils.sol\":17484:17518  uint256 BLOCKS_PER_YEAR = 10512000 */\n  0x05\n  sstore\n    /* \"contracts/Utils.sol\":17528:17613  constructor(Router _routerAddress) {... */\n  callvalue\n  dup1\n  iszero\n  tag_1\n  jumpi\n  0x00\n  dup1\n  revert\ntag_1:\n  pop\n  mload(0x40)\n  sub(codesize, bytecodeSize)\n  dup1\n  bytecodeSize\n  dup4\n  codecopy\n  dup2\n  dup2\n  add\n  0x40\n  mstore\n  dup2\n  add\n  swap1\n  tag_2\n  swap2\n  swap1\n  tag_3\n  jump\t// in\ntag_2:\n    /* \"contracts/Utils.sol\":13728:13760  _transferOwnership(_msgSender()) */\n  tag_7\n    /* \"contracts/Utils.sol\":13747:13759  _msgSender() */\n  tag_8\n    /* \"contracts/Utils.sol\":13747:13757  _msgSender */\n  shl(0x20, tag_9)\n    /* \"contracts/Utils.sol\":13747:13759  _msgSender() */\n  0x20\n  shr\n  jump\t// in\ntag_8:\n    /* \"contracts/Utils.sol\":13728:13746  _transferOwnership */\n  shl(0x20, tag_10)\n    /* \"contracts/Utils.sol\":13728:13760  _transferOwnership(_msgSender()) */\n  0x20\n  shr\n  jump\t// in\ntag_7:\n    /* \"contracts/Utils.sol\":17591:17605  _routerAddress */\n  dup1\n    /* \"contracts/Utils.sol\":17575:17588  routerAddress */\n  0x04\n  0x00\n    /* \"contracts/Utils.sol\":17575:17605  routerAddress = _routerAddress */\n  0x0100\n  exp\n  dup2\n  sload\n  dup2\n  0xffffffffffffffffffffffffffffffffffffffff\n  mul\n  not\n  and\n  swap1\n  dup4\n  0xffffffffffffffffffffffffffffffffffffffff\n  and\n  mul\n  or\n  swap1\n  sstore\n  pop\n    /* \"contracts/Utils.sol\":17528:17613  constructor(Router _routerAddress) {... */\n  pop\n    /* \"contracts/Utils.sol\":17198:21292  contract Utils is Ownable{... */\n  jump(tag_12)\n    /* \"contracts/Utils.sol\":13223:13321  function _msgSender() internal view virtual returns (address) {... */\ntag_9:\n    /* \"contracts/Utils.sol\":13276:13283  address */\n  0x00\n    /* \"contracts/Utils.sol\":13303:13313  msg.sender */\n  caller\n    /* \"contracts/Utils.sol\":13296:13313  return msg.sender */\n  swap1\n  pop\n    /* \"contracts/Utils.sol\":13223:13321  function _msgSender() internal view virtual returns (address) {... */\n  swap1\n  jump\t// out\n    /* \"contracts/Utils.sol\":15119:15310  function _transferOwnership(address newOwner) internal virtual {... */\ntag_10:\n    /* \"contracts/Utils.sol\":15193:15209  address oldOwner */\n  0x00\n    /* \"contracts/Utils.sol\":15212:15218  _owner */\n  dup1\n  0x00\n  swap1\n  sload\n  swap1\n  0x0100\n  exp\n  swap1\n  div\n  0xffffffffffffffffffffffffffffffffffffffff\n  and\n    /* \"contracts/Utils.sol\":15193:15218  address oldOwner = _owner */\n  swap1\n  pop\n    /* \"contracts/Utils.sol\":15238:15246  newOwner */\n  dup2\n    /* \"contracts/Utils.sol\":15229:15235  _owner */\n  0x00\n  dup1\n    /* \"contracts/Utils.sol\":15229:15246  _owner = newOwner */\n  0x0100\n  exp\n  dup2\n  sload\n  dup2\n  0xffffffffffffffffffffffffffffffffffffffff\n  mul\n  not\n  and\n  swap1\n  dup4\n  0xffffffffffffffffffffffffffffffffffffffff\n  and\n  mul\n  or\n  swap1\n  sstore\n  pop\n    /* \"contracts/Utils.sol\":15293:15301  newOwner */\n  dup2\n    /* \"contracts/Utils.sol\":15262:15302  OwnershipTransferred(oldOwner, newOwner) */\n  0xffffffffffffffffffffffffffffffffffffffff\n  and\n    /* \"contracts/Utils.sol\":15283:15291  oldOwner */\n  dup2\n    /* \"contracts/Utils.sol\":15262:15302  OwnershipTransferred(oldOwner, newOwner) */\n  0xffffffffffffffffffffffffffffffffffffffff\n  and\n  0x8be0079c531659141344cd1fd0a4f28419497f9722a3daafe3b4186f6b6457e0\n  mload(0x40)\n  mload(0x40)\n  dup1\n  swap2\n  sub\n  swap1\n  log3\n    /* \"contracts/Utils.sol\":15182:15310  {... */\n  pop\n    /* \"contracts/Utils.sol\":15119:15310  function _transferOwnership(address newOwner) internal virtual {... */\n  pop\n  jump\t// out\n    /* \"#utility.yul\":88:205   */\ntag_16:\n    /* \"#utility.yul\":197:198   */\n  0x00\n    /* \"#utility.yul\":194:195   */\n  dup1\n    /* \"#utility.yul\":187:199   */\n  revert\n    /* \"#utility.yul\":334:460   */\ntag_18:\n    /* \"#utility.yul\":371:378   */\n  0x00\n    /* \"#utility.yul\":411:453   */\n  0xffffffffffffffffffffffffffffffffffffffff\n    /* \"#utility.yul\":404:409   */\n  dup3\n    /* \"#utility.yul\":400:454   */\n  and\n    /* \"#utility.yul\":389:454   */\n  swap1\n  pop\n    /* \"#utility.yul\":334:460   */\n  swap2\n  swap1\n  pop\n  jump\t// out\n    /* \"#utility.yul\":466:562   */\ntag_19:\n    /* \"#utility.yul\":503:510   */\n  0x00\n    /* \"#utility.yul\":532:556   */\n  tag_29\n    /* \"#utility.yul\":550:555   */\n  dup3\n    /* \"#utility.yul\":532:556   */\n  tag_18\n  jump\t// in\ntag_29:\n    /* \"#utility.yul\":521:556   */\n  swap1\n  pop\n    /* \"#utility.yul\":466:562   */\n  swap2\n  swap1\n  pop\n  jump\t// out\n    /* \"#utility.yul\":568:678   */\ntag_20:\n    /* \"#utility.yul\":619:626   */\n  0x00\n    /* \"#utility.yul\":648:672   */\n  tag_31\n    /* \"#utility.yul\":666:671   */\n  dup3\n    /* \"#utility.yul\":648:672   */\n  tag_19\n  jump\t// in\ntag_31:\n    /* \"#utility.yul\":637:672   */\n  swap1\n  pop\n    /* \"#utility.yul\":568:678   */\n  swap2\n  swap1\n  pop\n  jump\t// out\n    /* \"#utility.yul\":684:834   */\ntag_21:\n    /* \"#utility.yul\":771:809   */\n  tag_33\n    /* \"#utility.yul\":803:808   */\n  dup2\n    /* \"#utility.yul\":771:809   */\n  tag_20\n  jump\t// in\ntag_33:\n    /* \"#utility.yul\":764:769   */\n  dup2\n    /* \"#utility.yul\":761:810   */\n  eq\n    /* \"#utility.yul\":751:828   */\n  tag_34\n  jumpi\n    /* \"#utility.yul\":824:825   */\n  0x00\n    /* \"#utility.yul\":821:822   */\n  dup1\n    /* \"#utility.yul\":814:826   */\n  revert\n    /* \"#utility.yul\":751:828   */\ntag_34:\n    /* \"#utility.yul\":684:834   */\n  pop\n  jump\t// out\n    /* \"#utility.yul\":840:1011   */\ntag_22:\n    /* \"#utility.yul\":911:916   */\n  0x00\n    /* \"#utility.yul\":942:948   */\n  dup2\n    /* \"#utility.yul\":936:949   */\n  mload\n    /* \"#utility.yul\":927:949   */\n  swap1\n  pop\n    /* \"#utility.yul\":958:1005   */\n  tag_36\n    /* \"#utility.yul\":999:1004   */\n  dup2\n    /* \"#utility.yul\":958:1005   */\n  tag_21\n  jump\t// in\ntag_36:\n    /* \"#utility.yul\":840:1011   */\n  swap3\n  swap2\n  pop\n  pop\n  jump\t// out\n    /* \"#utility.yul\":1017:1396   */\ntag_3:\n    /* \"#utility.yul\":1101:1107   */\n  0x00\n    /* \"#utility.yul\":1150:1152   */\n  0x20\n    /* \"#utility.yul\":1138:1147   */\n  dup3\n    /* \"#utility.yul\":1129:1136   */\n  dup5\n    /* \"#utility.yul\":1125:1148   */\n  sub\n    /* \"#utility.yul\":1121:1153   */\n  slt\n    /* \"#utility.yul\":1118:1237   */\n  iszero\n  tag_38\n  jumpi\n    /* \"#utility.yul\":1156:1235   */\n  tag_39\n  tag_16\n  jump\t// in\ntag_39:\n    /* \"#utility.yul\":1118:1237   */\ntag_38:\n    /* \"#utility.yul\":1276:1277   */\n  0x00\n    /* \"#utility.yul\":1301:1379   */\n  tag_40\n    /* \"#utility.yul\":1371:1378   */\n  dup5\n    /* \"#utility.yul\":1362:1368   */\n  dup3\n    /* \"#utility.yul\":1351:1360   */\n  dup6\n    /* \"#utility.yul\":1347:1369   */\n  add\n    /* \"#utility.yul\":1301:1379   */\n  tag_22\n  jump\t// in\ntag_40:\n    /* \"#utility.yul\":1291:1379   */\n  swap2\n  pop\n    /* \"#utility.yul\":1247:1389   */\n  pop\n    /* \"#utility.yul\":1017:1396   */\n  swap3\n  swap2\n  pop\n  pop\n  jump\t// out\n    /* \"contracts/Utils.sol\":17198:21292  contract Utils is Ownable{... */\ntag_12:\n  dataSize(sub_0)\n  dup1\n  dataOffset(sub_0)\n  0x00\n  codecopy\n  0x00\n  return\nstop\n\nsub_0: assembly {\n        /* \"contracts/Utils.sol\":17198:21292  contract Utils is Ownable{... */\n      mstore(0x40, 0x80)\n      callvalue\n      dup1\n      iszero\n      tag_1\n      jumpi\n      0x00\n      dup1\n      revert\n    tag_1:\n      pop\n      jumpi(tag_2, lt(calldatasize, 0x04))\n      shr(0xe0, calldataload(0x00))\n      dup1\n      0x88eee253\n      gt\n      tag_18\n      jumpi\n      dup1\n      0xd979fb5f\n      gt\n      tag_19\n      jumpi\n      dup1\n      0xd979fb5f\n      eq\n      tag_14\n      jumpi\n      dup1\n      0xdba88007\n      eq\n      tag_15\n      jumpi\n      dup1\n      0xdbb79348\n      eq\n      tag_16\n      jumpi\n      dup1\n      0xf2fde38b\n      eq\n      tag_17\n      jumpi\n      jump(tag_2)\n    tag_19:\n      dup1\n      0x88eee253\n      eq\n      tag_10\n      jumpi\n      dup1\n      0x8da5cb5b\n      eq\n      tag_11\n      jumpi\n      dup1\n      0x8dd95002\n      eq\n      tag_12\n      jumpi\n      dup1\n      0xc0d78655\n      eq\n      tag_13\n      jumpi\n      jump(tag_2)\n    tag_18:\n      dup1\n      0x3b979d45\n      gt\n      tag_20\n      jumpi\n      dup1\n      0x3b979d45\n      eq\n      tag_6\n      jumpi\n      dup1\n      0x484f4ea9\n      eq\n      tag_7\n      jumpi\n      dup1\n      0x4abddbe3\n      eq\n      tag_8\n      jumpi\n      dup1\n      0x715018a6\n      eq\n      tag_9\n      jumpi\n      jump(tag_2)\n    tag_20:\n      dup1\n      0x19047f8a\n      eq\n      tag_3\n      jumpi\n      dup1\n      0x215cc989\n      eq\n      tag_4\n      jumpi\n      dup1\n      0x3268cc56\n      eq\n      tag_5\n      jumpi\n    tag_2:\n      0x00\n      dup1\n      revert\n        /* \"contracts/Utils.sol\":17753:18012  function Tokenprice(address token) public view returns(uint256){... */\n    tag_3:\n      tag_21\n      0x04\n      dup1\n      calldatasize\n      sub\n      dup2\n      add\n      swap1\n      tag_22\n      swap2\n      swap1\n      tag_23\n      jump\t// in\n    tag_22:\n      tag_24\n      jump\t// in\n    tag_21:\n      mload(0x40)\n      tag_25\n      swap2\n      swap1\n      tag_26\n      jump\t// in\n    tag_25:\n      mload(0x40)\n      dup1\n      swap2\n      sub\n      swap1\n      return\n        /* \"contracts/Utils.sol\":18295:19143  function CalcLpPrice(LP lpAddress) public view returns(uint256){... */\n    tag_4:\n      tag_27\n      0x04\n      dup1\n      calldatasize\n      sub\n      dup2\n      add\n      swap1\n      tag_28\n      swap2\n      swap1\n      tag_29\n      jump\t// in\n    tag_28:\n      tag_30\n      jump\t// in\n    tag_27:\n      mload(0x40)\n      tag_31\n      swap2\n      swap1\n      tag_26\n      jump\t// in\n    tag_31:\n      mload(0x40)\n      dup1\n      swap2\n      sub\n      swap1\n      return\n        /* \"contracts/Utils.sol\":17448:17475  Router public routerAddress */\n    tag_5:\n      tag_32\n      tag_33\n      jump\t// in\n    tag_32:\n      mload(0x40)\n      tag_34\n      swap2\n      swap1\n      tag_35\n      jump\t// in\n    tag_34:\n      mload(0x40)\n      dup1\n      swap2\n      sub\n      swap1\n      return\n        /* \"contracts/Utils.sol\":18037:18270  function WBNBPrice(address token) public view returns(uint256){... */\n    tag_6:\n      tag_36\n      0x04\n      dup1\n      calldatasize\n      sub\n      dup2\n      add\n      swap1\n      tag_37\n      swap2\n      swap1\n      tag_23\n      jump\t// in\n    tag_37:\n      tag_38\n      jump\t// in\n    tag_36:\n      mload(0x40)\n      tag_39\n      swap2\n      swap1\n      tag_26\n      jump\t// in\n    tag_39:\n      mload(0x40)\n      dup1\n      swap2\n      sub\n      swap1\n      return\n        /* \"contracts/Utils.sol\":17334:17398  address public BUSD = 0x78867BbEeF44f2326bF8DDd1941a4439382EF2A7 */\n    tag_7:\n      tag_40\n      tag_41\n      jump\t// in\n    tag_40:\n      mload(0x40)\n      tag_42\n      swap2\n      swap1\n      tag_43\n      jump\t// in\n    tag_42:\n      mload(0x40)\n      dup1\n      swap2\n      sub\n      swap1\n      return\n        /* \"contracts/Utils.sol\":19745:20025  function getPoolWeight(uint256 pid, MetaMasterChef MasterChef) public view returns(uint256){... */\n    tag_8:\n      tag_44\n      0x04\n      dup1\n      calldatasize\n      sub\n      dup2\n      add\n      swap1\n      tag_45\n      swap2\n      swap1\n      tag_46\n      jump\t// in\n    tag_45:\n      tag_47\n      jump\t// in\n    tag_44:\n      mload(0x40)\n      tag_48\n      swap2\n      swap1\n      tag_26\n      jump\t// in\n    tag_48:\n      mload(0x40)\n      dup1\n      swap2\n      sub\n      swap1\n      return\n        /* \"contracts/Utils.sol\":14500:14603  function renounceOwnership() public virtual onlyOwner {... */\n    tag_9:\n      tag_49\n      tag_50\n      jump\t// in\n    tag_49:\n      stop\n        /* \"contracts/Utils.sol\":20033:20377  function getyearlyDRGRewardAllocation(uint256 pid, MetaMasterChef MasterChef) external view returns(uint256){... */\n    tag_10:\n      tag_51\n      0x04\n      dup1\n      calldatasize\n      sub\n      dup2\n      add\n      swap1\n      tag_52\n      swap2\n      swap1\n      tag_46\n      jump\t// in\n    tag_52:\n      tag_53\n      jump\t// in\n    tag_51:\n      mload(0x40)\n      tag_54\n      swap2\n      swap1\n      tag_26\n      jump\t// in\n    tag_54:\n      mload(0x40)\n      dup1\n      swap2\n      sub\n      swap1\n      return\n        /* \"contracts/Utils.sol\":13849:13936  function owner() public view virtual returns (address) {... */\n    tag_11:\n      tag_55\n      tag_56\n      jump\t// in\n    tag_55:\n      mload(0x40)\n      tag_57\n      swap2\n      swap1\n      tag_43\n      jump\t// in\n    tag_57:\n      mload(0x40)\n      dup1\n      swap2\n      sub\n      swap1\n      return\n        /* \"contracts/Utils.sol\":17263:17327  address public WBNB = 0xae13d989daC2f0dEbFf460aC112a837C89BAa7cd */\n    tag_12:\n      tag_58\n      tag_59\n      jump\t// in\n    tag_58:\n      mload(0x40)\n      tag_60\n      swap2\n      swap1\n      tag_43\n      jump\t// in\n    tag_60:\n      mload(0x40)\n      dup1\n      swap2\n      sub\n      swap1\n      return\n        /* \"contracts/Utils.sol\":17621:17728  function setRouter(Router _routerAddress) public onlyOwner{... */\n    tag_13:\n      tag_61\n      0x04\n      dup1\n      calldatasize\n      sub\n      dup2\n      add\n      swap1\n      tag_62\n      swap2\n      swap1\n      tag_63\n      jump\t// in\n    tag_62:\n      tag_64\n      jump\t// in\n    tag_61:\n      stop\n        /* \"contracts/Utils.sol\":19166:19737  function calcPoolTVLInUSD(uint256 pid, LP lpAddress, uint256 isLp, MetaMasterChef MasterChef) public view returns(uint256){... */\n    tag_14:\n      tag_65\n      0x04\n      dup1\n      calldatasize\n      sub\n      dup2\n      add\n      swap1\n      tag_66\n      swap2\n      swap1\n      tag_67\n      jump\t// in\n    tag_66:\n      tag_68\n      jump\t// in\n    tag_65:\n      mload(0x40)\n      tag_69\n      swap2\n      swap1\n      tag_26\n      jump\t// in\n    tag_69:\n      mload(0x40)\n      dup1\n      swap2\n      sub\n      swap1\n      return\n        /* \"contracts/Utils.sol\":20385:20579  function getRewardTokenPrice(MetaMasterChef MasterChef) external view returns(uint256){... */\n    tag_15:\n      tag_70\n      0x04\n      dup1\n      calldatasize\n      sub\n      dup2\n      add\n      swap1\n      tag_71\n      swap2\n      swap1\n      tag_72\n      jump\t// in\n    tag_71:\n      tag_73\n      jump\t// in\n    tag_70:\n      mload(0x40)\n      tag_74\n      swap2\n      swap1\n      tag_26\n      jump\t// in\n    tag_74:\n      mload(0x40)\n      dup1\n      swap2\n      sub\n      swap1\n      return\n        /* \"contracts/Utils.sol\":20587:21289  function CalcApy(uint256 pid, LP lpAddress,uint256 isLp, MetaMasterChef MasterChef) external view returns(uint256){... */\n    tag_16:\n      tag_75\n      0x04\n      dup1\n      calldatasize\n      sub\n      dup2\n      add\n      swap1\n      tag_76\n      swap2\n      swap1\n      tag_67\n      jump\t// in\n    tag_76:\n      tag_77\n      jump\t// in\n    tag_75:\n      mload(0x40)\n      tag_78\n      swap2\n      swap1\n      tag_26\n      jump\t// in\n    tag_78:\n      mload(0x40)\n      dup1\n      swap2\n      sub\n      swap1\n      return\n        /* \"contracts/Utils.sol\":14758:14959  function transferOwnership(address newOwner) public virtual onlyOwner {... */\n    tag_17:\n      tag_79\n      0x04\n      dup1\n      calldatasize\n      sub\n      dup2\n      add\n      swap1\n      tag_80\n      swap2\n      swap1\n      tag_23\n      jump\t// in\n    tag_80:\n      tag_81\n      jump\t// in\n    tag_79:\n      stop\n        /* \"contracts/Utils.sol\":17753:18012  function Tokenprice(address token) public view returns(uint256){... */\n    tag_24:\n        /* \"contracts/Utils.sol\":17808:17815  uint256 */\n      0x00\n        /* \"contracts/Utils.sol\":17827:17848  address[] memory path */\n      dup1\n        /* \"contracts/Utils.sol\":17865:17866  3 */\n      0x03\n        /* \"contracts/Utils.sol\":17851:17867  new address[](3) */\n      0xffffffffffffffff\n      dup2\n      gt\n      iszero\n      tag_83\n      jumpi\n      tag_84\n      tag_85\n      jump\t// in\n    tag_84:\n    tag_83:\n      mload(0x40)\n      swap1\n      dup1\n      dup3\n      mstore\n      dup1\n      0x20\n      mul\n      0x20\n      add\n      dup3\n      add\n      0x40\n      mstore\n      dup1\n      iszero\n      tag_86\n      jumpi\n      dup2\n      0x20\n      add\n      0x20\n      dup3\n      mul\n      dup1\n      calldatasize\n      dup4\n      calldatacopy\n      dup1\n      dup3\n      add\n      swap2\n      pop\n      pop\n      swap1\n      pop\n    tag_86:\n      pop\n        /* \"contracts/Utils.sol\":17827:17867  address[] memory path = new address[](3) */\n      swap1\n      pop\n        /* \"contracts/Utils.sol\":17888:17893  token */\n      dup3\n        /* \"contracts/Utils.sol\":17878:17882  path */\n      dup2\n        /* \"contracts/Utils.sol\":17883:17884  0 */\n      0x00\n        /* \"contracts/Utils.sol\":17878:17885  path[0] */\n      dup2\n      mload\n      dup2\n      lt\n      tag_87\n      jumpi\n      tag_88\n      tag_89\n      jump\t// in\n    tag_88:\n    tag_87:\n      0x20\n      mul\n      0x20\n      add\n      add\n        /* \"contracts/Utils.sol\":17878:17893  path[0] = token */\n      swap1\n      0xffffffffffffffffffffffffffffffffffffffff\n      and\n      swap1\n      dup2\n      0xffffffffffffffffffffffffffffffffffffffff\n      and\n      dup2\n      mstore\n      pop\n      pop\n        /* \"contracts/Utils.sol\":17914:17918  WBNB */\n      0x01\n      0x00\n      swap1\n      sload\n      swap1\n      0x0100\n      exp\n      swap1\n      div\n      0xffffffffffffffffffffffffffffffffffffffff\n      and\n        /* \"contracts/Utils.sol\":17904:17908  path */\n      dup2\n        /* \"contracts/Utils.sol\":17909:17910  1 */\n      0x01\n        /* \"contracts/Utils.sol\":17904:17911  path[1] */\n      dup2\n      mload\n      dup2\n      lt\n      tag_90\n      jumpi\n      tag_91\n      tag_89\n      jump\t// in\n    tag_91:\n    tag_90:\n      0x20\n      mul\n      0x20\n      add\n      add\n        /* \"contracts/Utils.sol\":17904:17918  path[1] = WBNB */\n      swap1\n      0xffffffffffffffffffffffffffffffffffffffff\n      and\n      swap1\n      dup2\n      0xffffffffffffffffffffffffffffffffffffffff\n      and\n      dup2\n      mstore\n      pop\n      pop\n        /* \"contracts/Utils.sol\":17939:17943  BUSD */\n      0x02\n      0x00\n      swap1\n      sload\n      swap1\n      0x0100\n      exp\n      swap1\n      div\n      0xffffffffffffffffffffffffffffffffffffffff\n      and\n        /* \"contracts/Utils.sol\":17929:17933  path */\n      dup2\n        /* \"contracts/Utils.sol\":17934:17935  2 */\n      0x02\n        /* \"contracts/Utils.sol\":17929:17936  path[2] */\n      dup2\n      mload\n      dup2\n      lt\n      tag_92\n      jumpi\n      tag_93\n      tag_89\n      jump\t// in\n    tag_93:\n    tag_92:\n      0x20\n      mul\n      0x20\n      add\n      add\n        /* \"contracts/Utils.sol\":17929:17943  path[2] = BUSD */\n      swap1\n      0xffffffffffffffffffffffffffffffffffffffff\n      and\n      swap1\n      dup2\n      0xffffffffffffffffffffffffffffffffffffffff\n      and\n      dup2\n      mstore\n      pop\n      pop\n        /* \"contracts/Utils.sol\":17961:17974  routerAddress */\n      0x04\n      0x00\n      swap1\n      sload\n      swap1\n      0x0100\n      exp\n      swap1\n      div\n      0xffffffffffffffffffffffffffffffffffffffff\n      and\n        /* \"contracts/Utils.sol\":17961:17988  routerAddress.getAmountsOut */\n      0xffffffffffffffffffffffffffffffffffffffff\n      and\n      0xd06ca61f\n        /* \"contracts/Utils.sol\":17989:17995  amount */\n      sload(0x03)\n        /* \"contracts/Utils.sol\":17996:18000  path */\n      dup4\n        /* \"contracts/Utils.sol\":17961:18001  routerAddress.getAmountsOut(amount,path) */\n      mload(0x40)\n      dup4\n      0xffffffff\n      and\n      0xe0\n      shl\n      dup2\n      mstore\n      0x04\n      add\n      tag_94\n      swap3\n      swap2\n      swap1\n      tag_95\n      jump\t// in\n    tag_94:\n      0x00\n      mload(0x40)\n      dup1\n      dup4\n      sub\n      dup2\n      dup7\n      gas\n      staticcall\n      iszero\n      dup1\n      iszero\n      tag_97\n      jumpi\n      returndatasize\n      0x00\n      dup1\n      returndatacopy\n      revert(0x00, returndatasize)\n    tag_97:\n      pop\n      pop\n      pop\n      pop\n      mload(0x40)\n      returndatasize\n      0x00\n      dup3\n      returndatacopy\n      returndatasize\n      not(0x1f)\n      0x1f\n      dup3\n      add\n      and\n      dup3\n      add\n      dup1\n      0x40\n      mstore\n      pop\n      dup2\n      add\n      swap1\n      tag_98\n      swap2\n      swap1\n      tag_99\n      jump\t// in\n    tag_98:\n        /* \"contracts/Utils.sol\":18002:18003  2 */\n      0x02\n        /* \"contracts/Utils.sol\":17961:18004  routerAddress.getAmountsOut(amount,path)[2] */\n      dup2\n      mload\n      dup2\n      lt\n      tag_100\n      jumpi\n      tag_101\n      tag_89\n      jump\t// in\n    tag_101:\n    tag_100:\n      0x20\n      mul\n      0x20\n      add\n      add\n      mload\n        /* \"contracts/Utils.sol\":17954:18004  return routerAddress.getAmountsOut(amount,path)[2] */\n      swap2\n      pop\n      pop\n        /* \"contracts/Utils.sol\":17753:18012  function Tokenprice(address token) public view returns(uint256){... */\n      swap2\n      swap1\n      pop\n      jump\t// out\n        /* \"contracts/Utils.sol\":18295:19143  function CalcLpPrice(LP lpAddress) public view returns(uint256){... */\n    tag_30:\n        /* \"contracts/Utils.sol\":18350:18357  uint256 */\n      0x00\n        /* \"contracts/Utils.sol\":18369:18383  uint256 phase1 */\n      dup1\n        /* \"contracts/Utils.sol\":18394:18408  uint256 phase2 */\n      0x00\n        /* \"contracts/Utils.sol\":18447:18456  lpAddress */\n      dup4\n        /* \"contracts/Utils.sol\":18447:18463  lpAddress.token0 */\n      0xffffffffffffffffffffffffffffffffffffffff\n      and\n      0x0dfe1681\n        /* \"contracts/Utils.sol\":18447:18465  lpAddress.token0() */\n      mload(0x40)\n      dup2\n      0xffffffff\n      and\n      0xe0\n      shl\n      dup2\n      mstore\n      0x04\n      add\n      0x20\n      mload(0x40)\n      dup1\n      dup4\n      sub\n      dup2\n      dup7\n      gas\n      staticcall\n      iszero\n      dup1\n      iszero\n      tag_104\n      jumpi\n      returndatasize\n      0x00\n      dup1\n      returndatacopy\n      revert(0x00, returndatasize)\n    tag_104:\n      pop\n      pop\n      pop\n      pop\n      mload(0x40)\n      returndatasize\n      not(0x1f)\n      0x1f\n      dup3\n      add\n      and\n      dup3\n      add\n      dup1\n      0x40\n      mstore\n      pop\n      dup2\n      add\n      swap1\n      tag_105\n      swap2\n      swap1\n      tag_106\n      jump\t// in\n    tag_105:\n        /* \"contracts/Utils.sol\":18422:18466  address(WBNB) == address(lpAddress.token0()) */\n      0xffffffffffffffffffffffffffffffffffffffff\n      and\n        /* \"contracts/Utils.sol\":18430:18434  WBNB */\n      0x01\n      0x00\n      swap1\n      sload\n      swap1\n      0x0100\n      exp\n      swap1\n      div\n      0xffffffffffffffffffffffffffffffffffffffff\n      and\n        /* \"contracts/Utils.sol\":18422:18466  address(WBNB) == address(lpAddress.token0()) */\n      0xffffffffffffffffffffffffffffffffffffffff\n      and\n      sub\n        /* \"contracts/Utils.sol\":18419:18732  if(address(WBNB) == address(lpAddress.token0())){... */\n      tag_107\n      jumpi\n        /* \"contracts/Utils.sol\":18492:18584  lpAddress.token0().balanceOf(address(lpAddress)).mul(WBNBPrice(address(lpAddress.token0()))) */\n      tag_108\n        /* \"contracts/Utils.sol\":18545:18583  WBNBPrice(address(lpAddress.token0())) */\n      tag_109\n        /* \"contracts/Utils.sol\":18563:18572  lpAddress */\n      dup6\n        /* \"contracts/Utils.sol\":18563:18579  lpAddress.token0 */\n      0xffffffffffffffffffffffffffffffffffffffff\n      and\n      0x0dfe1681\n        /* \"contracts/Utils.sol\":18563:18581  lpAddress.token0() */\n      mload(0x40)\n      dup2\n      0xffffffff\n      and\n      0xe0\n      shl\n      dup2\n      mstore\n      0x04\n      add\n      0x20\n      mload(0x40)\n      dup1\n      dup4\n      sub\n      dup2\n      dup7\n      gas\n      staticcall\n      iszero\n      dup1\n      iszero\n      tag_111\n      jumpi\n      returndatasize\n      0x00\n      dup1\n      returndatacopy\n      revert(0x00, returndatasize)\n    tag_111:\n      pop\n      pop\n      pop\n      pop\n      mload(0x40)\n      returndatasize\n      not(0x1f)\n      0x1f\n      dup3\n      add\n      and\n      dup3\n      add\n      dup1\n      0x40\n      mstore\n      pop\n      dup2\n      add\n      swap1\n      tag_112\n      swap2\n      swap1\n      tag_106\n      jump\t// in\n    tag_112:\n        /* \"contracts/Utils.sol\":18545:18554  WBNBPrice */\n      tag_38\n        /* \"contracts/Utils.sol\":18545:18583  WBNBPrice(address(lpAddress.token0())) */\n      jump\t// in\n    tag_109:\n        /* \"contracts/Utils.sol\":18492:18501  lpAddress */\n      dup6\n        /* \"contracts/Utils.sol\":18492:18508  lpAddress.token0 */\n      0xffffffffffffffffffffffffffffffffffffffff\n      and\n      0x0dfe1681\n        /* \"contracts/Utils.sol\":18492:18510  lpAddress.token0() */\n      mload(0x40)\n      dup2\n      0xffffffff\n      and\n      0xe0\n      shl\n      dup2\n      mstore\n      0x04\n      add\n      0x20\n      mload(0x40)\n      dup1\n      dup4\n      sub\n      dup2\n      dup7\n      gas\n      staticcall\n      iszero\n      dup1\n      iszero\n      tag_114\n      jumpi\n      returndatasize\n      0x00\n      dup1\n      returndatacopy\n      revert(0x00, returndatasize)\n    tag_114:\n      pop\n      pop\n      pop\n      pop\n      mload(0x40)\n      returndatasize\n      not(0x1f)\n      0x1f\n      dup3\n      add\n      and\n      dup3\n      add\n      dup1\n      0x40\n      mstore\n      pop\n      dup2\n      add\n      swap1\n      tag_115\n      swap2\n      swap1\n      tag_106\n      jump\t// in\n    tag_115:\n        /* \"contracts/Utils.sol\":18492:18520  lpAddress.token0().balanceOf */\n      0xffffffffffffffffffffffffffffffffffffffff\n      and\n      0x70a08231\n        /* \"contracts/Utils.sol\":18529:18538  lpAddress */\n      dup8\n        /* \"contracts/Utils.sol\":18492:18540  lpAddress.token0().balanceOf(address(lpAddress)) */\n      mload(0x40)\n      dup3\n      0xffffffff\n      and\n      0xe0\n      shl\n      dup2\n      mstore\n      0x04\n      add\n      tag_116\n      swap2\n      swap1\n      tag_43\n      jump\t// in\n    tag_116:\n      0x20\n      mload(0x40)\n      dup1\n      dup4\n      sub\n      dup2\n      dup7\n      gas\n      staticcall\n      iszero\n      dup1\n      iszero\n      tag_118\n      jumpi\n      returndatasize\n      0x00\n      dup1\n      returndatacopy\n      revert(0x00, returndatasize)\n    tag_118:\n      pop\n      pop\n      pop\n      pop\n      mload(0x40)\n      returndatasize\n      not(0x1f)\n      0x1f\n      dup3\n      add\n      and\n      dup3\n      add\n      dup1\n      0x40\n      mstore\n      pop\n      dup2\n      add\n      swap1\n      tag_119\n      swap2\n      swap1\n      tag_120\n      jump\t// in\n    tag_119:\n        /* \"contracts/Utils.sol\":18492:18544  lpAddress.token0().balanceOf(address(lpAddress)).mul */\n      tag_121\n      swap1\n        /* \"contracts/Utils.sol\":18492:18584  lpAddress.token0().balanceOf(address(lpAddress)).mul(WBNBPrice(address(lpAddress.token0()))) */\n      swap2\n      swap1\n      0xffffffff\n      and\n      jump\t// in\n    tag_108:\n        /* \"contracts/Utils.sol\":18482:18585  phase1 = (lpAddress.token0().balanceOf(address(lpAddress)).mul(WBNBPrice(address(lpAddress.token0())))) */\n      swap2\n      pop\n        /* \"contracts/Utils.sol\":18419:18732  if(address(WBNB) == address(lpAddress.token0())){... */\n      jump(tag_122)\n    tag_107:\n        /* \"contracts/Utils.sol\":18626:18719  lpAddress.token0().balanceOf(address(lpAddress)).mul(Tokenprice(address(lpAddress.token0()))) */\n      tag_123\n        /* \"contracts/Utils.sol\":18679:18718  Tokenprice(address(lpAddress.token0())) */\n      tag_124\n        /* \"contracts/Utils.sol\":18698:18707  lpAddress */\n      dup6\n        /* \"contracts/Utils.sol\":18698:18714  lpAddress.token0 */\n      0xffffffffffffffffffffffffffffffffffffffff\n      and\n      0x0dfe1681\n        /* \"contracts/Utils.sol\":18698:18716  lpAddress.token0() */\n      mload(0x40)\n      dup2\n      0xffffffff\n      and\n      0xe0\n      shl\n      dup2\n      mstore\n      0x04\n      add\n      0x20\n      mload(0x40)\n      dup1\n      dup4\n      sub\n      dup2\n      dup7\n      gas\n      staticcall\n      iszero\n      dup1\n      iszero\n      tag_126\n      jumpi\n      returndatasize\n      0x00\n      dup1\n      returndatacopy\n      revert(0x00, returndatasize)\n    tag_126:\n      pop\n      pop\n      pop\n      pop\n      mload(0x40)\n      returndatasize\n      not(0x1f)\n      0x1f\n      dup3\n      add\n      and\n      dup3\n      add\n      dup1\n      0x40\n      mstore\n      pop\n      dup2\n      add\n      swap1\n      tag_127\n      swap2\n      swap1\n      tag_106\n      jump\t// in\n    tag_127:\n        /* \"contracts/Utils.sol\":18679:18689  Tokenprice */\n      tag_24\n        /* \"contracts/Utils.sol\":18679:18718  Tokenprice(address(lpAddress.token0())) */\n      jump\t// in\n    tag_124:\n        /* \"contracts/Utils.sol\":18626:18635  lpAddress */\n      dup6\n        /* \"contracts/Utils.sol\":18626:18642  lpAddress.token0 */\n      0xffffffffffffffffffffffffffffffffffffffff\n      and\n      0x0dfe1681\n        /* \"contracts/Utils.sol\":18626:18644  lpAddress.token0() */\n      mload(0x40)\n      dup2\n      0xffffffff\n      and\n      0xe0\n      shl\n      dup2\n      mstore\n      0x04\n      add\n      0x20\n      mload(0x40)\n      dup1\n      dup4\n      sub\n      dup2\n      dup7\n      gas\n      staticcall\n      iszero\n      dup1\n      iszero\n      tag_129\n      jumpi\n      returndatasize\n      0x00\n      dup1\n      returndatacopy\n      revert(0x00, returndatasize)\n    tag_129:\n      pop\n      pop\n      pop\n      pop\n      mload(0x40)\n      returndatasize\n      not(0x1f)\n      0x1f\n      dup3\n      add\n      and\n      dup3\n      add\n      dup1\n      0x40\n      mstore\n      pop\n      dup2\n      add\n      swap1\n      tag_130\n      swap2\n      swap1\n      tag_106\n      jump\t// in\n    tag_130:\n        /* \"contracts/Utils.sol\":18626:18654  lpAddress.token0().balanceOf */\n      0xffffffffffffffffffffffffffffffffffffffff\n      and\n      0x70a08231\n        /* \"contracts/Utils.sol\":18663:18672  lpAddress */\n      dup8\n        /* \"contracts/Utils.sol\":18626:18674  lpAddress.token0().balanceOf(address(lpAddress)) */\n      mload(0x40)\n      dup3\n      0xffffffff\n      and\n      0xe0\n      shl\n      dup2\n      mstore\n      0x04\n      add\n      tag_131\n      swap2\n      swap1\n      tag_43\n      jump\t// in\n    tag_131:\n      0x20\n      mload(0x40)\n      dup1\n      dup4\n      sub\n      dup2\n      dup7\n      gas\n      staticcall\n      iszero\n      dup1\n      iszero\n      tag_133\n      jumpi\n      returndatasize\n      0x00\n      dup1\n      returndatacopy\n      revert(0x00, returndatasize)\n    tag_133:\n      pop\n      pop\n      pop\n      pop\n      mload(0x40)\n      returndatasize\n      not(0x1f)\n      0x1f\n      dup3\n      add\n      and\n      dup3\n      add\n      dup1\n      0x40\n      mstore\n      pop\n      dup2\n      add\n      swap1\n      tag_134\n      swap2\n      swap1\n      tag_120\n      jump\t// in\n    tag_134:\n        /* \"contracts/Utils.sol\":18626:18678  lpAddress.token0().balanceOf(address(lpAddress)).mul */\n      tag_121\n      swap1\n        /* \"contracts/Utils.sol\":18626:18719  lpAddress.token0().balanceOf(address(lpAddress)).mul(Tokenprice(address(lpAddress.token0()))) */\n      swap2\n      swap1\n      0xffffffff\n      and\n      jump\t// in\n    tag_123:\n        /* \"contracts/Utils.sol\":18616:18720  phase1 = (lpAddress.token0().balanceOf(address(lpAddress)).mul(Tokenprice(address(lpAddress.token0())))) */\n      swap2\n      pop\n        /* \"contracts/Utils.sol\":18419:18732  if(address(WBNB) == address(lpAddress.token0())){... */\n    tag_122:\n        /* \"contracts/Utils.sol\":18772:18781  lpAddress */\n      dup4\n        /* \"contracts/Utils.sol\":18772:18788  lpAddress.token1 */\n      0xffffffffffffffffffffffffffffffffffffffff\n      and\n      0xd21220a7\n        /* \"contracts/Utils.sol\":18772:18790  lpAddress.token1() */\n      mload(0x40)\n      dup2\n      0xffffffff\n      and\n      0xe0\n      shl\n      dup2\n      mstore\n      0x04\n      add\n      0x20\n      mload(0x40)\n      dup1\n      dup4\n      sub\n      dup2\n      dup7\n      gas\n      staticcall\n      iszero\n      dup1\n      iszero\n      tag_136\n      jumpi\n      returndatasize\n      0x00\n      dup1\n      returndatacopy\n      revert(0x00, returndatasize)\n    tag_136:\n      pop\n      pop\n      pop\n      pop\n      mload(0x40)\n      returndatasize\n      not(0x1f)\n      0x1f\n      dup3\n      add\n      and\n      dup3\n      add\n      dup1\n      0x40\n      mstore\n      pop\n      dup2\n      add\n      swap1\n      tag_137\n      swap2\n      swap1\n      tag_106\n      jump\t// in\n    tag_137:\n        /* \"contracts/Utils.sol\":18747:18791  address(WBNB) == address(lpAddress.token1()) */\n      0xffffffffffffffffffffffffffffffffffffffff\n      and\n        /* \"contracts/Utils.sol\":18755:18759  WBNB */\n      0x01\n      0x00\n      swap1\n      sload\n      swap1\n      0x0100\n      exp\n      swap1\n      div\n      0xffffffffffffffffffffffffffffffffffffffff\n      and\n        /* \"contracts/Utils.sol\":18747:18791  address(WBNB) == address(lpAddress.token1()) */\n      0xffffffffffffffffffffffffffffffffffffffff\n      and\n      sub\n        /* \"contracts/Utils.sol\":18744:19057  if(address(WBNB) == address(lpAddress.token1())){... */\n      tag_138\n      jumpi\n        /* \"contracts/Utils.sol\":18817:18909  lpAddress.token1().balanceOf(address(lpAddress)).mul(WBNBPrice(address(lpAddress.token1()))) */\n      tag_139\n        /* \"contracts/Utils.sol\":18870:18908  WBNBPrice(address(lpAddress.token1())) */\n      tag_140\n        /* \"contracts/Utils.sol\":18888:18897  lpAddress */\n      dup6\n        /* \"contracts/Utils.sol\":18888:18904  lpAddress.token1 */\n      0xffffffffffffffffffffffffffffffffffffffff\n      and\n      0xd21220a7\n        /* \"contracts/Utils.sol\":18888:18906  lpAddress.token1() */\n      mload(0x40)\n      dup2\n      0xffffffff\n      and\n      0xe0\n      shl\n      dup2\n      mstore\n      0x04\n      add\n      0x20\n      mload(0x40)\n      dup1\n      dup4\n      sub\n      dup2\n      dup7\n      gas\n      staticcall\n      iszero\n      dup1\n      iszero\n      tag_142\n      jumpi\n      returndatasize\n      0x00\n      dup1\n      returndatacopy\n      revert(0x00, returndatasize)\n    tag_142:\n      pop\n      pop\n      pop\n      pop\n      mload(0x40)\n      returndatasize\n      not(0x1f)\n      0x1f\n      dup3\n      add\n      and\n      dup3\n      add\n      dup1\n      0x40\n      mstore\n      pop\n      dup2\n      add\n      swap1\n      tag_143\n      swap2\n      swap1\n      tag_106\n      jump\t// in\n    tag_143:\n        /* \"contracts/Utils.sol\":18870:18879  WBNBPrice */\n      tag_38\n        /* \"contracts/Utils.sol\":18870:18908  WBNBPrice(address(lpAddress.token1())) */\n      jump\t// in\n    tag_140:\n        /* \"contracts/Utils.sol\":18817:18826  lpAddress */\n      dup6\n        /* \"contracts/Utils.sol\":18817:18833  lpAddress.token1 */\n      0xffffffffffffffffffffffffffffffffffffffff\n      and\n      0xd21220a7\n        /* \"contracts/Utils.sol\":18817:18835  lpAddress.token1() */\n      mload(0x40)\n      dup2\n      0xffffffff\n      and\n      0xe0\n      shl\n      dup2\n      mstore\n      0x04\n      add\n      0x20\n      mload(0x40)\n      dup1\n      dup4\n      sub\n      dup2\n      dup7\n      gas\n      staticcall\n      iszero\n      dup1\n      iszero\n      tag_145\n      jumpi\n      returndatasize\n      0x00\n      dup1\n      returndatacopy\n      revert(0x00, returndatasize)\n    tag_145:\n      pop\n      pop\n      pop\n      pop\n      mload(0x40)\n      returndatasize\n      not(0x1f)\n      0x1f\n      dup3\n      add\n      and\n      dup3\n      add\n      dup1\n      0x40\n      mstore\n      pop\n      dup2\n      add\n      swap1\n      tag_146\n      swap2\n      swap1\n      tag_106\n      jump\t// in\n    tag_146:\n        /* \"contracts/Utils.sol\":18817:18845  lpAddress.token1().balanceOf */\n      0xffffffffffffffffffffffffffffffffffffffff\n      and\n      0x70a08231\n        /* \"contracts/Utils.sol\":18854:18863  lpAddress */\n      dup8\n        /* \"contracts/Utils.sol\":18817:18865  lpAddress.token1().balanceOf(address(lpAddress)) */\n      mload(0x40)\n      dup3\n      0xffffffff\n      and\n      0xe0\n      shl\n      dup2\n      mstore\n      0x04\n      add\n      tag_147\n      swap2\n      swap1\n      tag_43\n      jump\t// in\n    tag_147:\n      0x20\n      mload(0x40)\n      dup1\n      dup4\n      sub\n      dup2\n      dup7\n      gas\n      staticcall\n      iszero\n      dup1\n      iszero\n      tag_149\n      jumpi\n      returndatasize\n      0x00\n      dup1\n      returndatacopy\n      revert(0x00, returndatasize)\n    tag_149:\n      pop\n      pop\n      pop\n      pop\n      mload(0x40)\n      returndatasize\n      not(0x1f)\n      0x1f\n      dup3\n      add\n      and\n      dup3\n      add\n      dup1\n      0x40\n      mstore\n      pop\n      dup2\n      add\n      swap1\n      tag_150\n      swap2\n      swap1\n      tag_120\n      jump\t// in\n    tag_150:\n        /* \"contracts/Utils.sol\":18817:18869  lpAddress.token1().balanceOf(address(lpAddress)).mul */\n      tag_121\n      swap1\n        /* \"contracts/Utils.sol\":18817:18909  lpAddress.token1().balanceOf(address(lpAddress)).mul(WBNBPrice(address(lpAddress.token1()))) */\n      swap2\n      swap1\n      0xffffffff\n      and\n      jump\t// in\n    tag_139:\n        /* \"contracts/Utils.sol\":18807:18910  phase2 = (lpAddress.token1().balanceOf(address(lpAddress)).mul(WBNBPrice(address(lpAddress.token1())))) */\n      swap1\n      pop\n        /* \"contracts/Utils.sol\":18744:19057  if(address(WBNB) == address(lpAddress.token1())){... */\n      jump(tag_151)\n    tag_138:\n        /* \"contracts/Utils.sol\":18951:19044  lpAddress.token1().balanceOf(address(lpAddress)).mul(Tokenprice(address(lpAddress.token1()))) */\n      tag_152\n        /* \"contracts/Utils.sol\":19004:19043  Tokenprice(address(lpAddress.token1())) */\n      tag_153\n        /* \"contracts/Utils.sol\":19023:19032  lpAddress */\n      dup6\n        /* \"contracts/Utils.sol\":19023:19039  lpAddress.token1 */\n      0xffffffffffffffffffffffffffffffffffffffff\n      and\n      0xd21220a7\n        /* \"contracts/Utils.sol\":19023:19041  lpAddress.token1() */\n      mload(0x40)\n      dup2\n      0xffffffff\n      and\n      0xe0\n      shl\n      dup2\n      mstore\n      0x04\n      add\n      0x20\n      mload(0x40)\n      dup1\n      dup4\n      sub\n      dup2\n      dup7\n      gas\n      staticcall\n      iszero\n      dup1\n      iszero\n      tag_155\n      jumpi\n      returndatasize\n      0x00\n      dup1\n      returndatacopy\n      revert(0x00, returndatasize)\n    tag_155:\n      pop\n      pop\n      pop\n      pop\n      mload(0x40)\n      returndatasize\n      not(0x1f)\n      0x1f\n      dup3\n      add\n      and\n      dup3\n      add\n      dup1\n      0x40\n      mstore\n      pop\n      dup2\n      add\n      swap1\n      tag_156\n      swap2\n      swap1\n      tag_106\n      jump\t// in\n    tag_156:\n        /* \"contracts/Utils.sol\":19004:19014  Tokenprice */\n      tag_24\n        /* \"contracts/Utils.sol\":19004:19043  Tokenprice(address(lpAddress.token1())) */\n      jump\t// in\n    tag_153:\n        /* \"contracts/Utils.sol\":18951:18960  lpAddress */\n      dup6\n        /* \"contracts/Utils.sol\":18951:18967  lpAddress.token1 */\n      0xffffffffffffffffffffffffffffffffffffffff\n      and\n      0xd21220a7\n        /* \"contracts/Utils.sol\":18951:18969  lpAddress.token1() */\n      mload(0x40)\n      dup2\n      0xffffffff\n      and\n      0xe0\n      shl\n      dup2\n      mstore\n      0x04\n      add\n      0x20\n      mload(0x40)\n      dup1\n      dup4\n      sub\n      dup2\n      dup7\n      gas\n      staticcall\n      iszero\n      dup1\n      iszero\n      tag_158\n      jumpi\n      returndatasize\n      0x00\n      dup1\n      returndatacopy\n      revert(0x00, returndatasize)\n    tag_158:\n      pop\n      pop\n      pop\n      pop\n      mload(0x40)\n      returndatasize\n      not(0x1f)\n      0x1f\n      dup3\n      add\n      and\n      dup3\n      add\n      dup1\n      0x40\n      mstore\n      pop\n      dup2\n      add\n      swap1\n      tag_159\n      swap2\n      swap1\n      tag_106\n      jump\t// in\n    tag_159:\n        /* \"contracts/Utils.sol\":18951:18979  lpAddress.token1().balanceOf */\n      0xffffffffffffffffffffffffffffffffffffffff\n      and\n      0x70a08231\n        /* \"contracts/Utils.sol\":18988:18997  lpAddress */\n      dup8\n        /* \"contracts/Utils.sol\":18951:18999  lpAddress.token1().balanceOf(address(lpAddress)) */\n      mload(0x40)\n      dup3\n      0xffffffff\n      and\n      0xe0\n      shl\n      dup2\n      mstore\n      0x04\n      add\n      tag_160\n      swap2\n      swap1\n      tag_43\n      jump\t// in\n    tag_160:\n      0x20\n      mload(0x40)\n      dup1\n      dup4\n      sub\n      dup2\n      dup7\n      gas\n      staticcall\n      iszero\n      dup1\n      iszero\n      tag_162\n      jumpi\n      returndatasize\n      0x00\n      dup1\n      returndatacopy\n      revert(0x00, returndatasize)\n    tag_162:\n      pop\n      pop\n      pop\n      pop\n      mload(0x40)\n      returndatasize\n      not(0x1f)\n      0x1f\n      dup3\n      add\n      and\n      dup3\n      add\n      dup1\n      0x40\n      mstore\n      pop\n      dup2\n      add\n      swap1\n      tag_163\n      swap2\n      swap1\n      tag_120\n      jump\t// in\n    tag_163:\n        /* \"contracts/Utils.sol\":18951:19003  lpAddress.token1().balanceOf(address(lpAddress)).mul */\n      tag_121\n      swap1\n        /* \"contracts/Utils.sol\":18951:19044  lpAddress.token1().balanceOf(address(lpAddress)).mul(Tokenprice(address(lpAddress.token1()))) */\n      swap2\n      swap1\n      0xffffffff\n      and\n      jump\t// in\n    tag_152:\n        /* \"contracts/Utils.sol\":18941:19045  phase2 = (lpAddress.token1().balanceOf(address(lpAddress)).mul(Tokenprice(address(lpAddress.token1())))) */\n      swap1\n      pop\n        /* \"contracts/Utils.sol\":18744:19057  if(address(WBNB) == address(lpAddress.token1())){... */\n    tag_151:\n        /* \"contracts/Utils.sol\":19085:19134  (phase1.add(phase2)).div(lpAddress.totalSupply()) */\n      tag_164\n        /* \"contracts/Utils.sol\":19110:19119  lpAddress */\n      dup5\n        /* \"contracts/Utils.sol\":19110:19131  lpAddress.totalSupply */\n      0xffffffffffffffffffffffffffffffffffffffff\n      and\n      0x18160ddd\n        /* \"contracts/Utils.sol\":19110:19133  lpAddress.totalSupply() */\n      mload(0x40)\n      dup2\n      0xffffffff\n      and\n      0xe0\n      shl\n      dup2\n      mstore\n      0x04\n      add\n      0x20\n      mload(0x40)\n      dup1\n      dup4\n      sub\n      dup2\n      dup7\n      gas\n      staticcall\n      iszero\n      dup1\n      iszero\n      tag_166\n      jumpi\n      returndatasize\n      0x00\n      dup1\n      returndatacopy\n      revert(0x00, returndatasize)\n    tag_166:\n      pop\n      pop\n      pop\n      pop\n      mload(0x40)\n      returndatasize\n      not(0x1f)\n      0x1f\n      dup3\n      add\n      and\n      dup3\n      add\n      dup1\n      0x40\n      mstore\n      pop\n      dup2\n      add\n      swap1\n      tag_167\n      swap2\n      swap1\n      tag_120\n      jump\t// in\n    tag_167:\n        /* \"contracts/Utils.sol\":19086:19104  phase1.add(phase2) */\n      tag_168\n        /* \"contracts/Utils.sol\":19097:19103  phase2 */\n      dup4\n        /* \"contracts/Utils.sol\":19086:19092  phase1 */\n      dup6\n        /* \"contracts/Utils.sol\":19086:19096  phase1.add */\n      tag_169\n      swap1\n        /* \"contracts/Utils.sol\":19086:19104  phase1.add(phase2) */\n      swap2\n      swap1\n      0xffffffff\n      and\n      jump\t// in\n    tag_168:\n        /* \"contracts/Utils.sol\":19085:19109  (phase1.add(phase2)).div */\n      tag_170\n      swap1\n        /* \"contracts/Utils.sol\":19085:19134  (phase1.add(phase2)).div(lpAddress.totalSupply()) */\n      swap2\n      swap1\n      0xffffffff\n      and\n      jump\t// in\n    tag_164:\n        /* \"contracts/Utils.sol\":19077:19135  return ((phase1.add(phase2)).div(lpAddress.totalSupply())) */\n      swap3\n      pop\n      pop\n      pop\n        /* \"contracts/Utils.sol\":18295:19143  function CalcLpPrice(LP lpAddress) public view returns(uint256){... */\n      swap2\n      swap1\n      pop\n      jump\t// out\n        /* \"contracts/Utils.sol\":17448:17475  Router public routerAddress */\n    tag_33:\n      0x04\n      0x00\n      swap1\n      sload\n      swap1\n      0x0100\n      exp\n      swap1\n      div\n      0xffffffffffffffffffffffffffffffffffffffff\n      and\n      dup2\n      jump\t// out\n        /* \"contracts/Utils.sol\":18037:18270  function WBNBPrice(address token) public view returns(uint256){... */\n    tag_38:\n        /* \"contracts/Utils.sol\":18091:18098  uint256 */\n      0x00\n        /* \"contracts/Utils.sol\":18110:18131  address[] memory path */\n      dup1\n        /* \"contracts/Utils.sol\":18148:18149  2 */\n      0x02\n        /* \"contracts/Utils.sol\":18134:18150  new address[](2) */\n      0xffffffffffffffff\n      dup2\n      gt\n      iszero\n      tag_172\n      jumpi\n      tag_173\n      tag_85\n      jump\t// in\n    tag_173:\n    tag_172:\n      mload(0x40)\n      swap1\n      dup1\n      dup3\n      mstore\n      dup1\n      0x20\n      mul\n      0x20\n      add\n      dup3\n      add\n      0x40\n      mstore\n      dup1\n      iszero\n      tag_174\n      jumpi\n      dup2\n      0x20\n      add\n      0x20\n      dup3\n      mul\n      dup1\n      calldatasize\n      dup4\n      calldatacopy\n      dup1\n      dup3\n      add\n      swap2\n      pop\n      pop\n      swap1\n      pop\n    tag_174:\n      pop\n        /* \"contracts/Utils.sol\":18110:18150  address[] memory path = new address[](2) */\n      swap1\n      pop\n        /* \"contracts/Utils.sol\":18171:18176  token */\n      dup3\n        /* \"contracts/Utils.sol\":18161:18165  path */\n      dup2\n        /* \"contracts/Utils.sol\":18166:18167  0 */\n      0x00\n        /* \"contracts/Utils.sol\":18161:18168  path[0] */\n      dup2\n      mload\n      dup2\n      lt\n      tag_175\n      jumpi\n      tag_176\n      tag_89\n      jump\t// in\n    tag_176:\n    tag_175:\n      0x20\n      mul\n      0x20\n      add\n      add\n        /* \"contracts/Utils.sol\":18161:18176  path[0] = token */\n      swap1\n      0xffffffffffffffffffffffffffffffffffffffff\n      and\n      swap1\n      dup2\n      0xffffffffffffffffffffffffffffffffffffffff\n      and\n      dup2\n      mstore\n      pop\n      pop\n        /* \"contracts/Utils.sol\":18197:18201  BUSD */\n      0x02\n      0x00\n      swap1\n      sload\n      swap1\n      0x0100\n      exp\n      swap1\n      div\n      0xffffffffffffffffffffffffffffffffffffffff\n      and\n        /* \"contracts/Utils.sol\":18187:18191  path */\n      dup2\n        /* \"contracts/Utils.sol\":18192:18193  1 */\n      0x01\n        /* \"contracts/Utils.sol\":18187:18194  path[1] */\n      dup2\n      mload\n      dup2\n      lt\n      tag_177\n      jumpi\n      tag_178\n      tag_89\n      jump\t// in\n    tag_178:\n    tag_177:\n      0x20\n      mul\n      0x20\n      add\n      add\n        /* \"contracts/Utils.sol\":18187:18201  path[1] = BUSD */\n      swap1\n      0xffffffffffffffffffffffffffffffffffffffff\n      and\n      swap1\n      dup2\n      0xffffffffffffffffffffffffffffffffffffffff\n      and\n      dup2\n      mstore\n      pop\n      pop\n        /* \"contracts/Utils.sol\":18219:18232  routerAddress */\n      0x04\n      0x00\n      swap1\n      sload\n      swap1\n      0x0100\n      exp\n      swap1\n      div\n      0xffffffffffffffffffffffffffffffffffffffff\n      and\n        /* \"contracts/Utils.sol\":18219:18246  routerAddress.getAmountsOut */\n      0xffffffffffffffffffffffffffffffffffffffff\n      and\n      0xd06ca61f\n        /* \"contracts/Utils.sol\":18247:18253  amount */\n      sload(0x03)\n        /* \"contracts/Utils.sol\":18254:18258  path */\n      dup4\n        /* \"contracts/Utils.sol\":18219:18259  routerAddress.getAmountsOut(amount,path) */\n      mload(0x40)\n      dup4\n      0xffffffff\n      and\n      0xe0\n      shl\n      dup2\n      mstore\n      0x04\n      add\n      tag_179\n      swap3\n      swap2\n      swap1\n      tag_95\n      jump\t// in\n    tag_179:\n      0x00\n      mload(0x40)\n      dup1\n      dup4\n      sub\n      dup2\n      dup7\n      gas\n      staticcall\n      iszero\n      dup1\n      iszero\n      tag_181\n      jumpi\n      returndatasize\n      0x00\n      dup1\n      returndatacopy\n      revert(0x00, returndatasize)\n    tag_181:\n      pop\n      pop\n      pop\n      pop\n      mload(0x40)\n      returndatasize\n      0x00\n      dup3\n      returndatacopy\n      returndatasize\n      not(0x1f)\n      0x1f\n      dup3\n      add\n      and\n      dup3\n      add\n      dup1\n      0x40\n      mstore\n      pop\n      dup2\n      add\n      swap1\n      tag_182\n      swap2\n      swap1\n      tag_99\n      jump\t// in\n    tag_182:\n        /* \"contracts/Utils.sol\":18260:18261  1 */\n      0x01\n        /* \"contracts/Utils.sol\":18219:18262  routerAddress.getAmountsOut(amount,path)[1] */\n      dup2\n      mload\n      dup2\n      lt\n      tag_183\n      jumpi\n      tag_184\n      tag_89\n      jump\t// in\n    tag_184:\n    tag_183:\n      0x20\n      mul\n      0x20\n      add\n      add\n      mload\n        /* \"contracts/Utils.sol\":18212:18262  return routerAddress.getAmountsOut(amount,path)[1] */\n      swap2\n      pop\n      pop\n        /* \"contracts/Utils.sol\":18037:18270  function WBNBPrice(address token) public view returns(uint256){... */\n      swap2\n      swap1\n      pop\n      jump\t// out\n        /* \"contracts/Utils.sol\":17334:17398  address public BUSD = 0x78867BbEeF44f2326bF8DDd1941a4439382EF2A7 */\n    tag_41:\n      0x02\n      0x00\n      swap1\n      sload\n      swap1\n      0x0100\n      exp\n      swap1\n      div\n      0xffffffffffffffffffffffffffffffffffffffff\n      and\n      dup2\n      jump\t// out\n        /* \"contracts/Utils.sol\":19745:20025  function getPoolWeight(uint256 pid, MetaMasterChef MasterChef) public view returns(uint256){... */\n    tag_47:\n        /* \"contracts/Utils.sol\":19828:19835  uint256 */\n      0x00\n        /* \"contracts/Utils.sol\":19847:19867  PoolInfo memory pool */\n      dup1\n        /* \"contracts/Utils.sol\":19870:19880  MasterChef */\n      dup3\n        /* \"contracts/Utils.sol\":19870:19889  MasterChef.poolInfo */\n      0xffffffffffffffffffffffffffffffffffffffff\n      and\n      0x1526fe27\n        /* \"contracts/Utils.sol\":19890:19893  pid */\n      dup6\n        /* \"contracts/Utils.sol\":19870:19894  MasterChef.poolInfo(pid) */\n      mload(0x40)\n      dup3\n      0xffffffff\n      and\n      0xe0\n      shl\n      dup2\n      mstore\n      0x04\n      add\n      tag_186\n      swap2\n      swap1\n      tag_26\n      jump\t// in\n    tag_186:\n      0xc0\n      mload(0x40)\n      dup1\n      dup4\n      sub\n      dup2\n      dup7\n      gas\n      staticcall\n      iszero\n      dup1\n      iszero\n      tag_188\n      jumpi\n      returndatasize\n      0x00\n      dup1\n      returndatacopy\n      revert(0x00, returndatasize)\n    tag_188:\n      pop\n      pop\n      pop\n      pop\n      mload(0x40)\n      returndatasize\n      not(0x1f)\n      0x1f\n      dup3\n      add\n      and\n      dup3\n      add\n      dup1\n      0x40\n      mstore\n      pop\n      dup2\n      add\n      swap1\n      tag_189\n      swap2\n      swap1\n      tag_190\n      jump\t// in\n    tag_189:\n        /* \"contracts/Utils.sol\":19847:19894  PoolInfo memory pool = MasterChef.poolInfo(pid) */\n      swap1\n      pop\n        /* \"contracts/Utils.sol\":19905:19923  uint256 poolWeight */\n      0x00\n        /* \"contracts/Utils.sol\":19926:19989  (pool.allocPoint.mul(amount)).div(MasterChef.totalAllocPoint()) */\n      tag_191\n        /* \"contracts/Utils.sol\":19960:19970  MasterChef */\n      dup5\n        /* \"contracts/Utils.sol\":19960:19986  MasterChef.totalAllocPoint */\n      0xffffffffffffffffffffffffffffffffffffffff\n      and\n      0x17caf6f1\n        /* \"contracts/Utils.sol\":19960:19988  MasterChef.totalAllocPoint() */\n      mload(0x40)\n      dup2\n      0xffffffff\n      and\n      0xe0\n      shl\n      dup2\n      mstore\n      0x04\n      add\n      0x20\n      mload(0x40)\n      dup1\n      dup4\n      sub\n      dup2\n      dup7\n      gas\n      staticcall\n      iszero\n      dup1\n      iszero\n      tag_193\n      jumpi\n      returndatasize\n      0x00\n      dup1\n      returndatacopy\n      revert(0x00, returndatasize)\n    tag_193:\n      pop\n      pop\n      pop\n      pop\n      mload(0x40)\n      returndatasize\n      not(0x1f)\n      0x1f\n      dup3\n      add\n      and\n      dup3\n      add\n      dup1\n      0x40\n      mstore\n      pop\n      dup2\n      add\n      swap1\n      tag_194\n      swap2\n      swap1\n      tag_120\n      jump\t// in\n    tag_194:\n        /* \"contracts/Utils.sol\":19927:19954  pool.allocPoint.mul(amount) */\n      tag_195\n        /* \"contracts/Utils.sol\":19947:19953  amount */\n      sload(0x03)\n        /* \"contracts/Utils.sol\":19927:19931  pool */\n      dup6\n        /* \"contracts/Utils.sol\":19927:19942  pool.allocPoint */\n      0x20\n      add\n      mload\n        /* \"contracts/Utils.sol\":19927:19946  pool.allocPoint.mul */\n      tag_121\n      swap1\n        /* \"contracts/Utils.sol\":19927:19954  pool.allocPoint.mul(amount) */\n      swap2\n      swap1\n      0xffffffff\n      and\n      jump\t// in\n    tag_195:\n        /* \"contracts/Utils.sol\":19926:19959  (pool.allocPoint.mul(amount)).div */\n      tag_170\n      swap1\n        /* \"contracts/Utils.sol\":19926:19989  (pool.allocPoint.mul(amount)).div(MasterChef.totalAllocPoint()) */\n      swap2\n      swap1\n      0xffffffff\n      and\n      jump\t// in\n    tag_191:\n        /* \"contracts/Utils.sol\":19905:19989  uint256 poolWeight = (pool.allocPoint.mul(amount)).div(MasterChef.totalAllocPoint()) */\n      swap1\n      pop\n        /* \"contracts/Utils.sol\":20007:20017  poolWeight */\n      dup1\n        /* \"contracts/Utils.sol\":20000:20017  return poolWeight */\n      swap3\n      pop\n      pop\n      pop\n        /* \"contracts/Utils.sol\":19745:20025  function getPoolWeight(uint256 pid, MetaMasterChef MasterChef) public view returns(uint256){... */\n      swap3\n      swap2\n      pop\n      pop\n      jump\t// out\n        /* \"contracts/Utils.sol\":14500:14603  function renounceOwnership() public virtual onlyOwner {... */\n    tag_50:\n        /* \"contracts/Utils.sol\":14080:14092  _msgSender() */\n      tag_197\n        /* \"contracts/Utils.sol\":14080:14090  _msgSender */\n      tag_198\n        /* \"contracts/Utils.sol\":14080:14092  _msgSender() */\n      jump\t// in\n    tag_197:\n        /* \"contracts/Utils.sol\":14069:14092  owner() == _msgSender() */\n      0xffffffffffffffffffffffffffffffffffffffff\n      and\n        /* \"contracts/Utils.sol\":14069:14076  owner() */\n      tag_199\n        /* \"contracts/Utils.sol\":14069:14074  owner */\n      tag_56\n        /* \"contracts/Utils.sol\":14069:14076  owner() */\n      jump\t// in\n    tag_199:\n        /* \"contracts/Utils.sol\":14069:14092  owner() == _msgSender() */\n      0xffffffffffffffffffffffffffffffffffffffff\n      and\n      eq\n        /* \"contracts/Utils.sol\":14061:14129  require(owner() == _msgSender(), \"Ownable: caller is not the owner\") */\n      tag_200\n      jumpi\n      mload(0x40)\n      0x08c379a000000000000000000000000000000000000000000000000000000000\n      dup2\n      mstore\n      0x04\n      add\n      tag_201\n      swap1\n      tag_202\n      jump\t// in\n    tag_201:\n      mload(0x40)\n      dup1\n      swap2\n      sub\n      swap1\n      revert\n    tag_200:\n        /* \"contracts/Utils.sol\":14565:14595  _transferOwnership(address(0)) */\n      tag_204\n        /* \"contracts/Utils.sol\":14592:14593  0 */\n      0x00\n        /* \"contracts/Utils.sol\":14565:14583  _transferOwnership */\n      tag_205\n        /* \"contracts/Utils.sol\":14565:14595  _transferOwnership(address(0)) */\n      jump\t// in\n    tag_204:\n        /* \"contracts/Utils.sol\":14500:14603  function renounceOwnership() public virtual onlyOwner {... */\n      jump\t// out\n        /* \"contracts/Utils.sol\":20033:20377  function getyearlyDRGRewardAllocation(uint256 pid, MetaMasterChef MasterChef) external view returns(uint256){... */\n    tag_53:\n        /* \"contracts/Utils.sol\":20133:20140  uint256 */\n      0x00\n        /* \"contracts/Utils.sol\":20152:20172  uint256 DRG_PER_YEAR */\n      dup1\n        /* \"contracts/Utils.sol\":20175:20220  BLOCKS_PER_YEAR.mul(MasterChef.DRGPerBlock()) */\n      tag_207\n        /* \"contracts/Utils.sol\":20195:20205  MasterChef */\n      dup4\n        /* \"contracts/Utils.sol\":20195:20217  MasterChef.DRGPerBlock */\n      0xffffffffffffffffffffffffffffffffffffffff\n      and\n      0xa1eef821\n        /* \"contracts/Utils.sol\":20195:20219  MasterChef.DRGPerBlock() */\n      mload(0x40)\n      dup2\n      0xffffffff\n      and\n      0xe0\n      shl\n      dup2\n      mstore\n      0x04\n      add\n      0x20\n      mload(0x40)\n      dup1\n      dup4\n      sub\n      dup2\n      dup7\n      gas\n      staticcall\n      iszero\n      dup1\n      iszero\n      tag_209\n      jumpi\n      returndatasize\n      0x00\n      dup1\n      returndatacopy\n      revert(0x00, returndatasize)\n    tag_209:\n      pop\n      pop\n      pop\n      pop\n      mload(0x40)\n      returndatasize\n      not(0x1f)\n      0x1f\n      dup3\n      add\n      and\n      dup3\n      add\n      dup1\n      0x40\n      mstore\n      pop\n      dup2\n      add\n      swap1\n      tag_210\n      swap2\n      swap1\n      tag_120\n      jump\t// in\n    tag_210:\n        /* \"contracts/Utils.sol\":20175:20190  BLOCKS_PER_YEAR */\n      sload(0x05)\n        /* \"contracts/Utils.sol\":20175:20194  BLOCKS_PER_YEAR.mul */\n      tag_121\n      swap1\n        /* \"contracts/Utils.sol\":20175:20220  BLOCKS_PER_YEAR.mul(MasterChef.DRGPerBlock()) */\n      swap2\n      swap1\n      0xffffffff\n      and\n      jump\t// in\n    tag_207:\n        /* \"contracts/Utils.sol\":20152:20220  uint256 DRG_PER_YEAR = BLOCKS_PER_YEAR.mul(MasterChef.DRGPerBlock()) */\n      swap1\n      pop\n        /* \"contracts/Utils.sol\":20231:20264  uint256 yearlyDRGRewardAllocation */\n      0x00\n        /* \"contracts/Utils.sol\":20267:20314  DRG_PER_YEAR.mul(getPoolWeight(pid,MasterChef)) */\n      tag_211\n        /* \"contracts/Utils.sol\":20284:20313  getPoolWeight(pid,MasterChef) */\n      tag_212\n        /* \"contracts/Utils.sol\":20298:20301  pid */\n      dup7\n        /* \"contracts/Utils.sol\":20302:20312  MasterChef */\n      dup7\n        /* \"contracts/Utils.sol\":20284:20297  getPoolWeight */\n      tag_47\n        /* \"contracts/Utils.sol\":20284:20313  getPoolWeight(pid,MasterChef) */\n      jump\t// in\n    tag_212:\n        /* \"contracts/Utils.sol\":20267:20279  DRG_PER_YEAR */\n      dup4\n        /* \"contracts/Utils.sol\":20267:20283  DRG_PER_YEAR.mul */\n      tag_121\n      swap1\n        /* \"contracts/Utils.sol\":20267:20314  DRG_PER_YEAR.mul(getPoolWeight(pid,MasterChef)) */\n      swap2\n      swap1\n      0xffffffff\n      and\n      jump\t// in\n    tag_211:\n        /* \"contracts/Utils.sol\":20231:20314  uint256 yearlyDRGRewardAllocation = DRG_PER_YEAR.mul(getPoolWeight(pid,MasterChef)) */\n      swap1\n      pop\n        /* \"contracts/Utils.sol\":20332:20369  yearlyDRGRewardAllocation.div(amount) */\n      tag_213\n        /* \"contracts/Utils.sol\":20362:20368  amount */\n      sload(0x03)\n        /* \"contracts/Utils.sol\":20332:20357  yearlyDRGRewardAllocation */\n      dup3\n        /* \"contracts/Utils.sol\":20332:20361  yearlyDRGRewardAllocation.div */\n      tag_170\n      swap1\n        /* \"contracts/Utils.sol\":20332:20369  yearlyDRGRewardAllocation.div(amount) */\n      swap2\n      swap1\n      0xffffffff\n      and\n      jump\t// in\n    tag_213:\n        /* \"contracts/Utils.sol\":20325:20369  return yearlyDRGRewardAllocation.div(amount) */\n      swap3\n      pop\n      pop\n      pop\n        /* \"contracts/Utils.sol\":20033:20377  function getyearlyDRGRewardAllocation(uint256 pid, MetaMasterChef MasterChef) external view returns(uint256){... */\n      swap3\n      swap2\n      pop\n      pop\n      jump\t// out\n        /* \"contracts/Utils.sol\":13849:13936  function owner() public view virtual returns (address) {... */\n    tag_56:\n        /* \"contracts/Utils.sol\":13895:13902  address */\n      0x00\n        /* \"contracts/Utils.sol\":13922:13928  _owner */\n      dup1\n      0x00\n      swap1\n      sload\n      swap1\n      0x0100\n      exp\n      swap1\n      div\n      0xffffffffffffffffffffffffffffffffffffffff\n      and\n        /* \"contracts/Utils.sol\":13915:13928  return _owner */\n      swap1\n      pop\n        /* \"contracts/Utils.sol\":13849:13936  function owner() public view virtual returns (address) {... */\n      swap1\n      jump\t// out\n        /* \"contracts/Utils.sol\":17263:17327  address public WBNB = 0xae13d989daC2f0dEbFf460aC112a837C89BAa7cd */\n    tag_59:\n      0x01\n      0x00\n      swap1\n      sload\n      swap1\n      0x0100\n      exp\n      swap1\n      div\n      0xffffffffffffffffffffffffffffffffffffffff\n      and\n      dup2\n      jump\t// out\n        /* \"contracts/Utils.sol\":17621:17728  function setRouter(Router _routerAddress) public onlyOwner{... */\n    tag_64:\n        /* \"contracts/Utils.sol\":14080:14092  _msgSender() */\n      tag_216\n        /* \"contracts/Utils.sol\":14080:14090  _msgSender */\n      tag_198\n        /* \"contracts/Utils.sol\":14080:14092  _msgSender() */\n      jump\t// in\n    tag_216:\n        /* \"contracts/Utils.sol\":14069:14092  owner() == _msgSender() */\n      0xffffffffffffffffffffffffffffffffffffffff\n      and\n        /* \"contracts/Utils.sol\":14069:14076  owner() */\n      tag_217\n        /* \"contracts/Utils.sol\":14069:14074  owner */\n      tag_56\n        /* \"contracts/Utils.sol\":14069:14076  owner() */\n      jump\t// in\n    tag_217:\n        /* \"contracts/Utils.sol\":14069:14092  owner() == _msgSender() */\n      0xffffffffffffffffffffffffffffffffffffffff\n      and\n      eq\n        /* \"contracts/Utils.sol\":14061:14129  require(owner() == _msgSender(), \"Ownable: caller is not the owner\") */\n      tag_218\n      jumpi\n      mload(0x40)\n      0x08c379a000000000000000000000000000000000000000000000000000000000\n      dup2\n      mstore\n      0x04\n      add\n      tag_219\n      swap1\n      tag_202\n      jump\t// in\n    tag_219:\n      mload(0x40)\n      dup1\n      swap2\n      sub\n      swap1\n      revert\n    tag_218:\n        /* \"contracts/Utils.sol\":17706:17720  _routerAddress */\n      dup1\n        /* \"contracts/Utils.sol\":17690:17703  routerAddress */\n      0x04\n      0x00\n        /* \"contracts/Utils.sol\":17690:17720  routerAddress = _routerAddress */\n      0x0100\n      exp\n      dup2\n      sload\n      dup2\n      0xffffffffffffffffffffffffffffffffffffffff\n      mul\n      not\n      and\n      swap1\n      dup4\n      0xffffffffffffffffffffffffffffffffffffffff\n      and\n      mul\n      or\n      swap1\n      sstore\n      pop\n        /* \"contracts/Utils.sol\":17621:17728  function setRouter(Router _routerAddress) public onlyOwner{... */\n      pop\n      jump\t// out\n        /* \"contracts/Utils.sol\":19166:19737  function calcPoolTVLInUSD(uint256 pid, LP lpAddress, uint256 isLp, MetaMasterChef MasterChef) public view returns(uint256){... */\n    tag_68:\n        /* \"contracts/Utils.sol\":19280:19287  uint256 */\n      0x00\n        /* \"contracts/Utils.sol\":19299:19314  uint256 Balance */\n      dup1\n        /* \"contracts/Utils.sol\":19317:19327  MasterChef */\n      dup3\n        /* \"contracts/Utils.sol\":19317:19339  MasterChef.poolBalance */\n      0xffffffffffffffffffffffffffffffffffffffff\n      and\n      0x6a6d964e\n        /* \"contracts/Utils.sol\":19340:19343  pid */\n      dup8\n        /* \"contracts/Utils.sol\":19317:19344  MasterChef.poolBalance(pid) */\n      mload(0x40)\n      dup3\n      0xffffffff\n      and\n      0xe0\n      shl\n      dup2\n      mstore\n      0x04\n      add\n      tag_222\n      swap2\n      swap1\n      tag_26\n      jump\t// in\n    tag_222:\n      0x20\n      mload(0x40)\n      dup1\n      dup4\n      sub\n      dup2\n      dup7\n      gas\n      staticcall\n      iszero\n      dup1\n      iszero\n      tag_224\n      jumpi\n      returndatasize\n      0x00\n      dup1\n      returndatacopy\n      revert(0x00, returndatasize)\n    tag_224:\n      pop\n      pop\n      pop\n      pop\n      mload(0x40)\n      returndatasize\n      not(0x1f)\n      0x1f\n      dup3\n      add\n      and\n      dup3\n      add\n      dup1\n      0x40\n      mstore\n      pop\n      dup2\n      add\n      swap1\n      tag_225\n      swap2\n      swap1\n      tag_120\n      jump\t// in\n    tag_225:\n        /* \"contracts/Utils.sol\":19299:19344  uint256 Balance = MasterChef.poolBalance(pid) */\n      swap1\n      pop\n        /* \"contracts/Utils.sol\":19355:19368  uint256 price */\n      0x00\n        /* \"contracts/Utils.sol\":19390:19391  0 */\n      dup1\n        /* \"contracts/Utils.sol\":19382:19386  isLp */\n      dup6\n        /* \"contracts/Utils.sol\":19382:19391  isLp == 0 */\n      sub\n        /* \"contracts/Utils.sol\":19379:19681  if(isLp == 0){... */\n      tag_226\n      jumpi\n        /* \"contracts/Utils.sol\":19415:19437  CalcLpPrice(lpAddress) */\n      tag_227\n        /* \"contracts/Utils.sol\":19427:19436  lpAddress */\n      dup7\n        /* \"contracts/Utils.sol\":19415:19426  CalcLpPrice */\n      tag_30\n        /* \"contracts/Utils.sol\":19415:19437  CalcLpPrice(lpAddress) */\n      jump\t// in\n    tag_227:\n        /* \"contracts/Utils.sol\":19407:19437  price = CalcLpPrice(lpAddress) */\n      swap1\n      pop\n        /* \"contracts/Utils.sol\":19379:19681  if(isLp == 0){... */\n      jump(tag_228)\n    tag_226:\n        /* \"contracts/Utils.sol\":19465:19466  1 */\n      0x01\n        /* \"contracts/Utils.sol\":19457:19461  isLp */\n      dup6\n        /* \"contracts/Utils.sol\":19457:19466  isLp == 1 */\n      sub\n        /* \"contracts/Utils.sol\":19454:19681  if(isLp == 1){... */\n      tag_229\n      jumpi\n        /* \"contracts/Utils.sol\":19510:19519  lpAddress */\n      dup6\n        /* \"contracts/Utils.sol\":19485:19520  address(WBNB) == address(lpAddress) */\n      0xffffffffffffffffffffffffffffffffffffffff\n      and\n        /* \"contracts/Utils.sol\":19493:19497  WBNB */\n      0x01\n      0x00\n      swap1\n      sload\n      swap1\n      0x0100\n      exp\n      swap1\n      div\n      0xffffffffffffffffffffffffffffffffffffffff\n      and\n        /* \"contracts/Utils.sol\":19485:19520  address(WBNB) == address(lpAddress) */\n      0xffffffffffffffffffffffffffffffffffffffff\n      and\n      sub\n        /* \"contracts/Utils.sol\":19482:19670  if(address(WBNB) == address(lpAddress)){... */\n      tag_230\n      jumpi\n        /* \"contracts/Utils.sol\":19548:19577  WBNBPrice(address(lpAddress)) */\n      tag_231\n        /* \"contracts/Utils.sol\":19566:19575  lpAddress */\n      dup7\n        /* \"contracts/Utils.sol\":19548:19557  WBNBPrice */\n      tag_38\n        /* \"contracts/Utils.sol\":19548:19577  WBNBPrice(address(lpAddress)) */\n      jump\t// in\n    tag_231:\n        /* \"contracts/Utils.sol\":19540:19577  price = WBNBPrice(address(lpAddress)) */\n      swap1\n      pop\n        /* \"contracts/Utils.sol\":19482:19670  if(address(WBNB) == address(lpAddress)){... */\n      jump(tag_232)\n    tag_230:\n        /* \"contracts/Utils.sol\":19624:19654  Tokenprice(address(lpAddress)) */\n      tag_233\n        /* \"contracts/Utils.sol\":19643:19652  lpAddress */\n      dup7\n        /* \"contracts/Utils.sol\":19624:19634  Tokenprice */\n      tag_24\n        /* \"contracts/Utils.sol\":19624:19654  Tokenprice(address(lpAddress)) */\n      jump\t// in\n    tag_233:\n        /* \"contracts/Utils.sol\":19616:19654  price = Tokenprice(address(lpAddress)) */\n      swap1\n      pop\n        /* \"contracts/Utils.sol\":19482:19670  if(address(WBNB) == address(lpAddress)){... */\n    tag_232:\n        /* \"contracts/Utils.sol\":19454:19681  if(isLp == 1){... */\n    tag_229:\n        /* \"contracts/Utils.sol\":19379:19681  if(isLp == 0){... */\n    tag_228:\n        /* \"contracts/Utils.sol\":19700:19729  (Balance * price).div(amount) */\n      tag_234\n        /* \"contracts/Utils.sol\":19722:19728  amount */\n      sload(0x03)\n        /* \"contracts/Utils.sol\":19711:19716  price */\n      dup3\n        /* \"contracts/Utils.sol\":19701:19708  Balance */\n      dup5\n        /* \"contracts/Utils.sol\":19701:19716  Balance * price */\n      tag_235\n      swap2\n      swap1\n      tag_236\n      jump\t// in\n    tag_235:\n        /* \"contracts/Utils.sol\":19700:19721  (Balance * price).div */\n      tag_170\n      swap1\n        /* \"contracts/Utils.sol\":19700:19729  (Balance * price).div(amount) */\n      swap2\n      swap1\n      0xffffffff\n      and\n      jump\t// in\n    tag_234:\n        /* \"contracts/Utils.sol\":19693:19729  return (Balance * price).div(amount) */\n      swap3\n      pop\n      pop\n      pop\n        /* \"contracts/Utils.sol\":19166:19737  function calcPoolTVLInUSD(uint256 pid, LP lpAddress, uint256 isLp, MetaMasterChef MasterChef) public view returns(uint256){... */\n      swap5\n      swap4\n      pop\n      pop\n      pop\n      pop\n      jump\t// out\n        /* \"contracts/Utils.sol\":20385:20579  function getRewardTokenPrice(MetaMasterChef MasterChef) external view returns(uint256){... */\n    tag_73:\n        /* \"contracts/Utils.sol\":20463:20470  uint256 */\n      0x00\n        /* \"contracts/Utils.sol\":20482:20506  uint256 rewardTokenPrice */\n      dup1\n        /* \"contracts/Utils.sol\":20509:20537  Tokenprice(MasterChef.DRG()) */\n      tag_238\n        /* \"contracts/Utils.sol\":20520:20530  MasterChef */\n      dup4\n        /* \"contracts/Utils.sol\":20520:20534  MasterChef.DRG */\n      0xffffffffffffffffffffffffffffffffffffffff\n      and\n      0x141aa0ba\n        /* \"contracts/Utils.sol\":20520:20536  MasterChef.DRG() */\n      mload(0x40)\n      dup2\n      0xffffffff\n      and\n      0xe0\n      shl\n      dup2\n      mstore\n      0x04\n      add\n      0x20\n      mload(0x40)\n      dup1\n      dup4\n      sub\n      dup2\n      dup7\n      gas\n      staticcall\n      iszero\n      dup1\n      iszero\n      tag_240\n      jumpi\n      returndatasize\n      0x00\n      dup1\n      returndatacopy\n      revert(0x00, returndatasize)\n    tag_240:\n      pop\n      pop\n      pop\n      pop\n      mload(0x40)\n      returndatasize\n      not(0x1f)\n      0x1f\n      dup3\n      add\n      and\n      dup3\n      add\n      dup1\n      0x40\n      mstore\n      pop\n      dup2\n      add\n      swap1\n      tag_241\n      swap2\n      swap1\n      tag_242\n      jump\t// in\n    tag_241:\n        /* \"contracts/Utils.sol\":20509:20519  Tokenprice */\n      tag_24\n        /* \"contracts/Utils.sol\":20509:20537  Tokenprice(MasterChef.DRG()) */\n      jump\t// in\n    tag_238:\n        /* \"contracts/Utils.sol\":20482:20537  uint256 rewardTokenPrice = Tokenprice(MasterChef.DRG()) */\n      swap1\n      pop\n        /* \"contracts/Utils.sol\":20555:20571  rewardTokenPrice */\n      dup1\n        /* \"contracts/Utils.sol\":20548:20571  return rewardTokenPrice */\n      swap2\n      pop\n      pop\n        /* \"contracts/Utils.sol\":20385:20579  function getRewardTokenPrice(MetaMasterChef MasterChef) external view returns(uint256){... */\n      swap2\n      swap1\n      pop\n      jump\t// out\n        /* \"contracts/Utils.sol\":20587:21289  function CalcApy(uint256 pid, LP lpAddress,uint256 isLp, MetaMasterChef MasterChef) external view returns(uint256){... */\n    tag_77:\n        /* \"contracts/Utils.sol\":20693:20700  uint256 */\n      0x00\n        /* \"contracts/Utils.sol\":20712:20732  PoolInfo memory pool */\n      dup1\n        /* \"contracts/Utils.sol\":20735:20745  MasterChef */\n      dup3\n        /* \"contracts/Utils.sol\":20735:20754  MasterChef.poolInfo */\n      0xffffffffffffffffffffffffffffffffffffffff\n      and\n      0x1526fe27\n        /* \"contracts/Utils.sol\":20755:20758  pid */\n      dup8\n        /* \"contracts/Utils.sol\":20735:20759  MasterChef.poolInfo(pid) */\n      mload(0x40)\n      dup3\n      0xffffffff\n      and\n      0xe0\n      shl\n      dup2\n      mstore\n      0x04\n      add\n      tag_244\n      swap2\n      swap1\n      tag_26\n      jump\t// in\n    tag_244:\n      0xc0\n      mload(0x40)\n      dup1\n      dup4\n      sub\n      dup2\n      dup7\n      gas\n      staticcall\n      iszero\n      dup1\n      iszero\n      tag_246\n      jumpi\n      returndatasize\n      0x00\n      dup1\n      returndatacopy\n      revert(0x00, returndatasize)\n    tag_246:\n      pop\n      pop\n      pop\n      pop\n      mload(0x40)\n      returndatasize\n      not(0x1f)\n      0x1f\n      dup3\n      add\n      and\n      dup3\n      add\n      dup1\n      0x40\n      mstore\n      pop\n      dup2\n      add\n      swap1\n      tag_247\n      swap2\n      swap1\n      tag_190\n      jump\t// in\n    tag_247:\n        /* \"contracts/Utils.sol\":20712:20759  PoolInfo memory pool = MasterChef.poolInfo(pid) */\n      swap1\n      pop\n        /* \"contracts/Utils.sol\":20770:20788  uint256 poolWeight */\n      0x00\n        /* \"contracts/Utils.sol\":20791:20856  ((pool.allocPoint).mul(amount)).div(MasterChef.totalAllocPoint()) */\n      tag_248\n        /* \"contracts/Utils.sol\":20827:20837  MasterChef */\n      dup5\n        /* \"contracts/Utils.sol\":20827:20853  MasterChef.totalAllocPoint */\n      0xffffffffffffffffffffffffffffffffffffffff\n      and\n      0x17caf6f1\n        /* \"contracts/Utils.sol\":20827:20855  MasterChef.totalAllocPoint() */\n      mload(0x40)\n      dup2\n      0xffffffff\n      and\n      0xe0\n      shl\n      dup2\n      mstore\n      0x04\n      add\n      0x20\n      mload(0x40)\n      dup1\n      dup4\n      sub\n      dup2\n      dup7\n      gas\n      staticcall\n      iszero\n      dup1\n      iszero\n      tag_250\n      jumpi\n      returndatasize\n      0x00\n      dup1\n      returndatacopy\n      revert(0x00, returndatasize)\n    tag_250:\n      pop\n      pop\n      pop\n      pop\n      mload(0x40)\n      returndatasize\n      not(0x1f)\n      0x1f\n      dup3\n      add\n      and\n      dup3\n      add\n      dup1\n      0x40\n      mstore\n      pop\n      dup2\n      add\n      swap1\n      tag_251\n      swap2\n      swap1\n      tag_120\n      jump\t// in\n    tag_251:\n        /* \"contracts/Utils.sol\":20792:20821  (pool.allocPoint).mul(amount) */\n      tag_252\n        /* \"contracts/Utils.sol\":20814:20820  amount */\n      sload(0x03)\n        /* \"contracts/Utils.sol\":20793:20797  pool */\n      dup6\n        /* \"contracts/Utils.sol\":20793:20808  pool.allocPoint */\n      0x20\n      add\n      mload\n        /* \"contracts/Utils.sol\":20792:20813  (pool.allocPoint).mul */\n      tag_121\n      swap1\n        /* \"contracts/Utils.sol\":20792:20821  (pool.allocPoint).mul(amount) */\n      swap2\n      swap1\n      0xffffffff\n      and\n      jump\t// in\n    tag_252:\n        /* \"contracts/Utils.sol\":20791:20826  ((pool.allocPoint).mul(amount)).div */\n      tag_170\n      swap1\n        /* \"contracts/Utils.sol\":20791:20856  ((pool.allocPoint).mul(amount)).div(MasterChef.totalAllocPoint()) */\n      swap2\n      swap1\n      0xffffffff\n      and\n      jump\t// in\n    tag_248:\n        /* \"contracts/Utils.sol\":20770:20856  uint256 poolWeight = ((pool.allocPoint).mul(amount)).div(MasterChef.totalAllocPoint()) */\n      swap1\n      pop\n        /* \"contracts/Utils.sol\":20867:20891  uint256 rewardTokenPrice */\n      0x00\n        /* \"contracts/Utils.sol\":20894:20922  Tokenprice(MasterChef.DRG()) */\n      tag_253\n        /* \"contracts/Utils.sol\":20905:20915  MasterChef */\n      dup6\n        /* \"contracts/Utils.sol\":20905:20919  MasterChef.DRG */\n      0xffffffffffffffffffffffffffffffffffffffff\n      and\n      0x141aa0ba\n        /* \"contracts/Utils.sol\":20905:20921  MasterChef.DRG() */\n      mload(0x40)\n      dup2\n      0xffffffff\n      and\n      0xe0\n      shl\n      dup2\n      mstore\n      0x04\n      add\n      0x20\n      mload(0x40)\n      dup1\n      dup4\n      sub\n      dup2\n      dup7\n      gas\n      staticcall\n      iszero\n      dup1\n      iszero\n      tag_255\n      jumpi\n      returndatasize\n      0x00\n      dup1\n      returndatacopy\n      revert(0x00, returndatasize)\n    tag_255:\n      pop\n      pop\n      pop\n      pop\n      mload(0x40)\n      returndatasize\n      not(0x1f)\n      0x1f\n      dup3\n      add\n      and\n      dup3\n      add\n      dup1\n      0x40\n      mstore\n      pop\n      dup2\n      add\n      swap1\n      tag_256\n      swap2\n      swap1\n      tag_242\n      jump\t// in\n    tag_256:\n        /* \"contracts/Utils.sol\":20894:20904  Tokenprice */\n      tag_24\n        /* \"contracts/Utils.sol\":20894:20922  Tokenprice(MasterChef.DRG()) */\n      jump\t// in\n    tag_253:\n        /* \"contracts/Utils.sol\":20867:20922  uint256 rewardTokenPrice = Tokenprice(MasterChef.DRG()) */\n      swap1\n      pop\n        /* \"contracts/Utils.sol\":20933:20953  uint256 DRG_PER_YEAR */\n      0x00\n        /* \"contracts/Utils.sol\":20956:21001  BLOCKS_PER_YEAR.mul(MasterChef.DRGPerBlock()) */\n      tag_257\n        /* \"contracts/Utils.sol\":20976:20986  MasterChef */\n      dup7\n        /* \"contracts/Utils.sol\":20976:20998  MasterChef.DRGPerBlock */\n      0xffffffffffffffffffffffffffffffffffffffff\n      and\n      0xa1eef821\n        /* \"contracts/Utils.sol\":20976:21000  MasterChef.DRGPerBlock() */\n      mload(0x40)\n      dup2\n      0xffffffff\n      and\n      0xe0\n      shl\n      dup2\n      mstore\n      0x04\n      add\n      0x20\n      mload(0x40)\n      dup1\n      dup4\n      sub\n      dup2\n      dup7\n      gas\n      staticcall\n      iszero\n      dup1\n      iszero\n      tag_259\n      jumpi\n      returndatasize\n      0x00\n      dup1\n      returndatacopy\n      revert(0x00, returndatasize)\n    tag_259:\n      pop\n      pop\n      pop\n      pop\n      mload(0x40)\n      returndatasize\n      not(0x1f)\n      0x1f\n      dup3\n      add\n      and\n      dup3\n      add\n      dup1\n      0x40\n      mstore\n      pop\n      dup2\n      add\n      swap1\n      tag_260\n      swap2\n      swap1\n      tag_120\n      jump\t// in\n    tag_260:\n        /* \"contracts/Utils.sol\":20956:20971  BLOCKS_PER_YEAR */\n      sload(0x05)\n        /* \"contracts/Utils.sol\":20956:20975  BLOCKS_PER_YEAR.mul */\n      tag_121\n      swap1\n        /* \"contracts/Utils.sol\":20956:21001  BLOCKS_PER_YEAR.mul(MasterChef.DRGPerBlock()) */\n      swap2\n      swap1\n      0xffffffff\n      and\n      jump\t// in\n    tag_257:\n        /* \"contracts/Utils.sol\":20933:21001  uint256 DRG_PER_YEAR = BLOCKS_PER_YEAR.mul(MasterChef.DRGPerBlock()) */\n      swap1\n      pop\n        /* \"contracts/Utils.sol\":21012:21045  uint256 yearlyDRGRewardAllocation */\n      0x00\n        /* \"contracts/Utils.sol\":21048:21090  (DRG_PER_YEAR.mul(poolWeight)).div(amount) */\n      tag_261\n        /* \"contracts/Utils.sol\":21083:21089  amount */\n      sload(0x03)\n        /* \"contracts/Utils.sol\":21049:21077  DRG_PER_YEAR.mul(poolWeight) */\n      tag_262\n        /* \"contracts/Utils.sol\":21066:21076  poolWeight */\n      dup7\n        /* \"contracts/Utils.sol\":21049:21061  DRG_PER_YEAR */\n      dup6\n        /* \"contracts/Utils.sol\":21049:21065  DRG_PER_YEAR.mul */\n      tag_121\n      swap1\n        /* \"contracts/Utils.sol\":21049:21077  DRG_PER_YEAR.mul(poolWeight) */\n      swap2\n      swap1\n      0xffffffff\n      and\n      jump\t// in\n    tag_262:\n        /* \"contracts/Utils.sol\":21048:21082  (DRG_PER_YEAR.mul(poolWeight)).div */\n      tag_170\n      swap1\n        /* \"contracts/Utils.sol\":21048:21090  (DRG_PER_YEAR.mul(poolWeight)).div(amount) */\n      swap2\n      swap1\n      0xffffffff\n      and\n      jump\t// in\n    tag_261:\n        /* \"contracts/Utils.sol\":21012:21090  uint256 yearlyDRGRewardAllocation = (DRG_PER_YEAR.mul(poolWeight)).div(amount) */\n      swap1\n      pop\n        /* \"contracts/Utils.sol\":21101:21125  uint256 poolLiquidityUsd */\n      0x00\n        /* \"contracts/Utils.sol\":21128:21178  calcPoolTVLInUSD(pid, lpAddress, isLp, MasterChef) */\n      tag_263\n        /* \"contracts/Utils.sol\":21145:21148  pid */\n      dup12\n        /* \"contracts/Utils.sol\":21150:21159  lpAddress */\n      dup12\n        /* \"contracts/Utils.sol\":21161:21165  isLp */\n      dup12\n        /* \"contracts/Utils.sol\":21167:21177  MasterChef */\n      dup12\n        /* \"contracts/Utils.sol\":21128:21144  calcPoolTVLInUSD */\n      tag_68\n        /* \"contracts/Utils.sol\":21128:21178  calcPoolTVLInUSD(pid, lpAddress, isLp, MasterChef) */\n      jump\t// in\n    tag_263:\n        /* \"contracts/Utils.sol\":21101:21178  uint256 poolLiquidityUsd = calcPoolTVLInUSD(pid, lpAddress, isLp, MasterChef) */\n      swap1\n      pop\n        /* \"contracts/Utils.sol\":21197:21281  (((yearlyDRGRewardAllocation.mul(rewardTokenPrice))).div(poolLiquidityUsd)).mul(100) */\n      tag_264\n        /* \"contracts/Utils.sol\":21277:21280  100 */\n      0x64\n        /* \"contracts/Utils.sol\":21198:21271  ((yearlyDRGRewardAllocation.mul(rewardTokenPrice))).div(poolLiquidityUsd) */\n      tag_265\n        /* \"contracts/Utils.sol\":21254:21270  poolLiquidityUsd */\n      dup4\n        /* \"contracts/Utils.sol\":21200:21247  yearlyDRGRewardAllocation.mul(rewardTokenPrice) */\n      tag_266\n        /* \"contracts/Utils.sol\":21230:21246  rewardTokenPrice */\n      dup9\n        /* \"contracts/Utils.sol\":21200:21225  yearlyDRGRewardAllocation */\n      dup8\n        /* \"contracts/Utils.sol\":21200:21229  yearlyDRGRewardAllocation.mul */\n      tag_121\n      swap1\n        /* \"contracts/Utils.sol\":21200:21247  yearlyDRGRewardAllocation.mul(rewardTokenPrice) */\n      swap2\n      swap1\n      0xffffffff\n      and\n      jump\t// in\n    tag_266:\n        /* \"contracts/Utils.sol\":21198:21253  ((yearlyDRGRewardAllocation.mul(rewardTokenPrice))).div */\n      tag_170\n      swap1\n        /* \"contracts/Utils.sol\":21198:21271  ((yearlyDRGRewardAllocation.mul(rewardTokenPrice))).div(poolLiquidityUsd) */\n      swap2\n      swap1\n      0xffffffff\n      and\n      jump\t// in\n    tag_265:\n        /* \"contracts/Utils.sol\":21197:21276  (((yearlyDRGRewardAllocation.mul(rewardTokenPrice))).div(poolLiquidityUsd)).mul */\n      tag_121\n      swap1\n        /* \"contracts/Utils.sol\":21197:21281  (((yearlyDRGRewardAllocation.mul(rewardTokenPrice))).div(poolLiquidityUsd)).mul(100) */\n      swap2\n      swap1\n      0xffffffff\n      and\n      jump\t// in\n    tag_264:\n        /* \"contracts/Utils.sol\":21191:21281  return(((yearlyDRGRewardAllocation.mul(rewardTokenPrice))).div(poolLiquidityUsd)).mul(100) */\n      swap7\n      pop\n      pop\n      pop\n      pop\n      pop\n      pop\n      pop\n        /* \"contracts/Utils.sol\":20587:21289  function CalcApy(uint256 pid, LP lpAddress,uint256 isLp, MetaMasterChef MasterChef) external view returns(uint256){... */\n      swap5\n      swap4\n      pop\n      pop\n      pop\n      pop\n      jump\t// out\n        /* \"contracts/Utils.sol\":14758:14959  function transferOwnership(address newOwner) public virtual onlyOwner {... */\n    tag_81:\n        /* \"contracts/Utils.sol\":14080:14092  _msgSender() */\n      tag_268\n        /* \"contracts/Utils.sol\":14080:14090  _msgSender */\n      tag_198\n        /* \"contracts/Utils.sol\":14080:14092  _msgSender() */\n      jump\t// in\n    tag_268:\n        /* \"contracts/Utils.sol\":14069:14092  owner() == _msgSender() */\n      0xffffffffffffffffffffffffffffffffffffffff\n      and\n        /* \"contracts/Utils.sol\":14069:14076  owner() */\n      tag_269\n        /* \"contracts/Utils.sol\":14069:14074  owner */\n      tag_56\n        /* \"contracts/Utils.sol\":14069:14076  owner() */\n      jump\t// in\n    tag_269:\n        /* \"contracts/Utils.sol\":14069:14092  owner() == _msgSender() */\n      0xffffffffffffffffffffffffffffffffffffffff\n      and\n      eq\n        /* \"contracts/Utils.sol\":14061:14129  require(owner() == _msgSender(), \"Ownable: caller is not the owner\") */\n      tag_270\n      jumpi\n      mload(0x40)\n      0x08c379a000000000000000000000000000000000000000000000000000000000\n      dup2\n      mstore\n      0x04\n      add\n      tag_271\n      swap1\n      tag_202\n      jump\t// in\n    tag_271:\n      mload(0x40)\n      dup1\n      swap2\n      sub\n      swap1\n      revert\n    tag_270:\n        /* \"contracts/Utils.sol\":14867:14868  0 */\n      0x00\n        /* \"contracts/Utils.sol\":14847:14869  newOwner != address(0) */\n      0xffffffffffffffffffffffffffffffffffffffff\n      and\n        /* \"contracts/Utils.sol\":14847:14855  newOwner */\n      dup2\n        /* \"contracts/Utils.sol\":14847:14869  newOwner != address(0) */\n      0xffffffffffffffffffffffffffffffffffffffff\n      and\n      sub\n        /* \"contracts/Utils.sol\":14839:14912  require(newOwner != address(0), \"Ownable: new owner is the zero address\") */\n      tag_273\n      jumpi\n      mload(0x40)\n      0x08c379a000000000000000000000000000000000000000000000000000000000\n      dup2\n      mstore\n      0x04\n      add\n      tag_274\n      swap1\n      tag_275\n      jump\t// in\n    tag_274:\n      mload(0x40)\n      dup1\n      swap2\n      sub\n      swap1\n      revert\n    tag_273:\n        /* \"contracts/Utils.sol\":14923:14951  _transferOwnership(newOwner) */\n      tag_276\n        /* \"contracts/Utils.sol\":14942:14950  newOwner */\n      dup2\n        /* \"contracts/Utils.sol\":14923:14941  _transferOwnership */\n      tag_205\n        /* \"contracts/Utils.sol\":14923:14951  _transferOwnership(newOwner) */\n      jump\t// in\n    tag_276:\n        /* \"contracts/Utils.sol\":14758:14959  function transferOwnership(address newOwner) public virtual onlyOwner {... */\n      pop\n      jump\t// out\n        /* \"contracts/Utils.sol\":9965:10436  function mul(uint256 a, uint256 b) internal pure returns (uint256) {... */\n    tag_121:\n        /* \"contracts/Utils.sol\":10023:10030  uint256 */\n      0x00\n        /* \"contracts/Utils.sol\":10273:10274  0 */\n      dup1\n        /* \"contracts/Utils.sol\":10268:10269  a */\n      dup4\n        /* \"contracts/Utils.sol\":10268:10274  a == 0 */\n      sub\n        /* \"contracts/Utils.sol\":10264:10311  if (a == 0) {... */\n      tag_278\n      jumpi\n        /* \"contracts/Utils.sol\":10298:10299  0 */\n      0x00\n        /* \"contracts/Utils.sol\":10291:10299  return 0 */\n      swap1\n      pop\n      jump(tag_277)\n        /* \"contracts/Utils.sol\":10264:10311  if (a == 0) {... */\n    tag_278:\n        /* \"contracts/Utils.sol\":10323:10332  uint256 c */\n      0x00\n        /* \"contracts/Utils.sol\":10339:10340  b */\n      dup3\n        /* \"contracts/Utils.sol\":10335:10336  a */\n      dup5\n        /* \"contracts/Utils.sol\":10335:10340  a * b */\n      tag_279\n      swap2\n      swap1\n      tag_236\n      jump\t// in\n    tag_279:\n        /* \"contracts/Utils.sol\":10323:10340  uint256 c = a * b */\n      swap1\n      pop\n        /* \"contracts/Utils.sol\":10368:10369  b */\n      dup3\n        /* \"contracts/Utils.sol\":10363:10364  a */\n      dup5\n        /* \"contracts/Utils.sol\":10359:10360  c */\n      dup3\n        /* \"contracts/Utils.sol\":10359:10364  c / a */\n      tag_280\n      swap2\n      swap1\n      tag_281\n      jump\t// in\n    tag_280:\n        /* \"contracts/Utils.sol\":10359:10369  c / a == b */\n      eq\n        /* \"contracts/Utils.sol\":10351:10407  require(c / a == b, \"SafeMath: multiplication overflow\") */\n      tag_282\n      jumpi\n      mload(0x40)\n      0x08c379a000000000000000000000000000000000000000000000000000000000\n      dup2\n      mstore\n      0x04\n      add\n      tag_283\n      swap1\n      tag_284\n      jump\t// in\n    tag_283:\n      mload(0x40)\n      dup1\n      swap2\n      sub\n      swap1\n      revert\n    tag_282:\n        /* \"contracts/Utils.sol\":10427:10428  c */\n      dup1\n        /* \"contracts/Utils.sol\":10420:10428  return c */\n      swap2\n      pop\n      pop\n        /* \"contracts/Utils.sol\":9965:10436  function mul(uint256 a, uint256 b) internal pure returns (uint256) {... */\n    tag_277:\n      swap3\n      swap2\n      pop\n      pop\n      jump\t// out\n        /* \"contracts/Utils.sol\":8593:8774  function add(uint256 a, uint256 b) internal pure returns (uint256) {... */\n    tag_169:\n        /* \"contracts/Utils.sol\":8651:8658  uint256 */\n      0x00\n        /* \"contracts/Utils.sol\":8671:8680  uint256 c */\n      dup1\n        /* \"contracts/Utils.sol\":8687:8688  b */\n      dup3\n        /* \"contracts/Utils.sol\":8683:8684  a */\n      dup5\n        /* \"contracts/Utils.sol\":8683:8688  a + b */\n      tag_286\n      swap2\n      swap1\n      tag_287\n      jump\t// in\n    tag_286:\n        /* \"contracts/Utils.sol\":8671:8688  uint256 c = a + b */\n      swap1\n      pop\n        /* \"contracts/Utils.sol\":8712:8713  a */\n      dup4\n        /* \"contracts/Utils.sol\":8707:8708  c */\n      dup2\n        /* \"contracts/Utils.sol\":8707:8713  c >= a */\n      lt\n      iszero\n        /* \"contracts/Utils.sol\":8699:8745  require(c >= a, \"SafeMath: addition overflow\") */\n      tag_288\n      jumpi\n      mload(0x40)\n      0x08c379a000000000000000000000000000000000000000000000000000000000\n      dup2\n      mstore\n      0x04\n      add\n      tag_289\n      swap1\n      tag_290\n      jump\t// in\n    tag_289:\n      mload(0x40)\n      dup1\n      swap2\n      sub\n      swap1\n      revert\n    tag_288:\n        /* \"contracts/Utils.sol\":8765:8766  c */\n      dup1\n        /* \"contracts/Utils.sol\":8758:8766  return c */\n      swap2\n      pop\n      pop\n        /* \"contracts/Utils.sol\":8593:8774  function add(uint256 a, uint256 b) internal pure returns (uint256) {... */\n      swap3\n      swap2\n      pop\n      pop\n      jump\t// out\n        /* \"contracts/Utils.sol\":10904:11036  function div(uint256 a, uint256 b) internal pure returns (uint256) {... */\n    tag_170:\n        /* \"contracts/Utils.sol\":10962:10969  uint256 */\n      0x00\n        /* \"contracts/Utils.sol\":10989:11028  div(a, b, \"SafeMath: division by zero\") */\n      tag_292\n        /* \"contracts/Utils.sol\":10993:10994  a */\n      dup4\n        /* \"contracts/Utils.sol\":10996:10997  b */\n      dup4\n        /* \"contracts/Utils.sol\":10989:11028  div(a, b, \"SafeMath: division by zero\") */\n      mload(0x40)\n      dup1\n      0x40\n      add\n      0x40\n      mstore\n      dup1\n      0x1a\n      dup2\n      mstore\n      0x20\n      add\n      0x536166654d6174683a206469766973696f6e206279207a65726f000000000000\n      dup2\n      mstore\n      pop\n        /* \"contracts/Utils.sol\":10989:10992  div */\n      tag_293\n        /* \"contracts/Utils.sol\":10989:11028  div(a, b, \"SafeMath: division by zero\") */\n      jump\t// in\n    tag_292:\n        /* \"contracts/Utils.sol\":10982:11028  return div(a, b, \"SafeMath: division by zero\") */\n      swap1\n      pop\n        /* \"contracts/Utils.sol\":10904:11036  function div(uint256 a, uint256 b) internal pure returns (uint256) {... */\n      swap3\n      swap2\n      pop\n      pop\n      jump\t// out\n        /* \"contracts/Utils.sol\":13223:13321  function _msgSender() internal view virtual returns (address) {... */\n    tag_198:\n        /* \"contracts/Utils.sol\":13276:13283  address */\n      0x00\n        /* \"contracts/Utils.sol\":13303:13313  msg.sender */\n      caller\n        /* \"contracts/Utils.sol\":13296:13313  return msg.sender */\n      swap1\n      pop\n        /* \"contracts/Utils.sol\":13223:13321  function _msgSender() internal view virtual returns (address) {... */\n      swap1\n      jump\t// out\n        /* \"contracts/Utils.sol\":15119:15310  function _transferOwnership(address newOwner) internal virtual {... */\n    tag_205:\n        /* \"contracts/Utils.sol\":15193:15209  address oldOwner */\n      0x00\n        /* \"contracts/Utils.sol\":15212:15218  _owner */\n      dup1\n      0x00\n      swap1\n      sload\n      swap1\n      0x0100\n      exp\n      swap1\n      div\n      0xffffffffffffffffffffffffffffffffffffffff\n      and\n        /* \"contracts/Utils.sol\":15193:15218  address oldOwner = _owner */\n      swap1\n      pop\n        /* \"contracts/Utils.sol\":15238:15246  newOwner */\n      dup2\n        /* \"contracts/Utils.sol\":15229:15235  _owner */\n      0x00\n      dup1\n        /* \"contracts/Utils.sol\":15229:15246  _owner = newOwner */\n      0x0100\n      exp\n      dup2\n      sload\n      dup2\n      0xffffffffffffffffffffffffffffffffffffffff\n      mul\n      not\n      and\n      swap1\n      dup4\n      0xffffffffffffffffffffffffffffffffffffffff\n      and\n      mul\n      or\n      swap1\n      sstore\n      pop\n        /* \"contracts/Utils.sol\":15293:15301  newOwner */\n      dup2\n        /* \"contracts/Utils.sol\":15262:15302  OwnershipTransferred(oldOwner, newOwner) */\n      0xffffffffffffffffffffffffffffffffffffffff\n      and\n        /* \"contracts/Utils.sol\":15283:15291  oldOwner */\n      dup2\n        /* \"contracts/Utils.sol\":15262:15302  OwnershipTransferred(oldOwner, newOwner) */\n      0xffffffffffffffffffffffffffffffffffffffff\n      and\n      0x8be0079c531659141344cd1fd0a4f28419497f9722a3daafe3b4186f6b6457e0\n      mload(0x40)\n      mload(0x40)\n      dup1\n      swap2\n      sub\n      swap1\n      log3\n        /* \"contracts/Utils.sol\":15182:15310  {... */\n      pop\n        /* \"contracts/Utils.sol\":15119:15310  function _transferOwnership(address newOwner) internal virtual {... */\n      pop\n      jump\t// out\n        /* \"contracts/Utils.sol\":11566:11911  function div(uint256 a, uint256 b, string memory errorMessage) internal pure returns (uint256) {... */\n    tag_293:\n        /* \"contracts/Utils.sol\":11652:11659  uint256 */\n      0x00\n        /* \"contracts/Utils.sol\":11751:11752  0 */\n      dup1\n        /* \"contracts/Utils.sol\":11747:11748  b */\n      dup4\n        /* \"contracts/Utils.sol\":11747:11752  b > 0 */\n      gt\n        /* \"contracts/Utils.sol\":11754:11766  errorMessage */\n      dup3\n        /* \"contracts/Utils.sol\":11739:11767  require(b > 0, errorMessage) */\n      swap1\n      tag_297\n      jumpi\n      mload(0x40)\n      0x08c379a000000000000000000000000000000000000000000000000000000000\n      dup2\n      mstore\n      0x04\n      add\n      tag_298\n      swap2\n      swap1\n      tag_299\n      jump\t// in\n    tag_298:\n      mload(0x40)\n      dup1\n      swap2\n      sub\n      swap1\n      revert\n    tag_297:\n      pop\n        /* \"contracts/Utils.sol\":11778:11787  uint256 c */\n      0x00\n        /* \"contracts/Utils.sol\":11794:11795  b */\n      dup4\n        /* \"contracts/Utils.sol\":11790:11791  a */\n      dup6\n        /* \"contracts/Utils.sol\":11790:11795  a / b */\n      tag_300\n      swap2\n      swap1\n      tag_281\n      jump\t// in\n    tag_300:\n        /* \"contracts/Utils.sol\":11778:11795  uint256 c = a / b */\n      swap1\n      pop\n        /* \"contracts/Utils.sol\":11902:11903  c */\n      dup1\n        /* \"contracts/Utils.sol\":11895:11903  return c */\n      swap2\n      pop\n      pop\n        /* \"contracts/Utils.sol\":11566:11911  function div(uint256 a, uint256 b, string memory errorMessage) internal pure returns (uint256) {... */\n      swap4\n      swap3\n      pop\n      pop\n      pop\n      jump\t// out\n        /* \"#utility.yul\":7:82   */\n    tag_301:\n        /* \"#utility.yul\":40:46   */\n      0x00\n        /* \"#utility.yul\":73:75   */\n      0x40\n        /* \"#utility.yul\":67:76   */\n      mload\n        /* \"#utility.yul\":57:76   */\n      swap1\n      pop\n        /* \"#utility.yul\":7:82   */\n      swap1\n      jump\t// out\n        /* \"#utility.yul\":88:205   */\n    tag_302:\n        /* \"#utility.yul\":197:198   */\n      0x00\n        /* \"#utility.yul\":194:195   */\n      dup1\n        /* \"#utility.yul\":187:199   */\n      revert\n        /* \"#utility.yul\":211:328   */\n    tag_303:\n        /* \"#utility.yul\":320:321   */\n      0x00\n        /* \"#utility.yul\":317:318   */\n      dup1\n        /* \"#utility.yul\":310:322   */\n      revert\n        /* \"#utility.yul\":334:460   */\n    tag_304:\n        /* \"#utility.yul\":371:378   */\n      0x00\n        /* \"#utility.yul\":411:453   */\n      0xffffffffffffffffffffffffffffffffffffffff\n        /* \"#utility.yul\":404:409   */\n      dup3\n        /* \"#utility.yul\":400:454   */\n      and\n        /* \"#utility.yul\":389:454   */\n      swap1\n      pop\n        /* \"#utility.yul\":334:460   */\n      swap2\n      swap1\n      pop\n      jump\t// out\n        /* \"#utility.yul\":466:562   */\n    tag_305:\n        /* \"#utility.yul\":503:510   */\n      0x00\n        /* \"#utility.yul\":532:556   */\n      tag_373\n        /* \"#utility.yul\":550:555   */\n      dup3\n        /* \"#utility.yul\":532:556   */\n      tag_304\n      jump\t// in\n    tag_373:\n        /* \"#utility.yul\":521:556   */\n      swap1\n      pop\n        /* \"#utility.yul\":466:562   */\n      swap2\n      swap1\n      pop\n      jump\t// out\n        /* \"#utility.yul\":568:690   */\n    tag_306:\n        /* \"#utility.yul\":641:665   */\n      tag_375\n        /* \"#utility.yul\":659:664   */\n      dup2\n        /* \"#utility.yul\":641:665   */\n      tag_305\n      jump\t// in\n    tag_375:\n        /* \"#utility.yul\":634:639   */\n      dup2\n        /* \"#utility.yul\":631:666   */\n      eq\n        /* \"#utility.yul\":621:684   */\n      tag_376\n      jumpi\n        /* \"#utility.yul\":680:681   */\n      0x00\n        /* \"#utility.yul\":677:678   */\n      dup1\n        /* \"#utility.yul\":670:682   */\n      revert\n        /* \"#utility.yul\":621:684   */\n    tag_376:\n        /* \"#utility.yul\":568:690   */\n      pop\n      jump\t// out\n        /* \"#utility.yul\":696:835   */\n    tag_307:\n        /* \"#utility.yul\":742:747   */\n      0x00\n        /* \"#utility.yul\":780:786   */\n      dup2\n        /* \"#utility.yul\":767:787   */\n      calldataload\n        /* \"#utility.yul\":758:787   */\n      swap1\n      pop\n        /* \"#utility.yul\":796:829   */\n      tag_378\n        /* \"#utility.yul\":823:828   */\n      dup2\n        /* \"#utility.yul\":796:829   */\n      tag_306\n      jump\t// in\n    tag_378:\n        /* \"#utility.yul\":696:835   */\n      swap3\n      swap2\n      pop\n      pop\n      jump\t// out\n        /* \"#utility.yul\":841:1170   */\n    tag_23:\n        /* \"#utility.yul\":900:906   */\n      0x00\n        /* \"#utility.yul\":949:951   */\n      0x20\n        /* \"#utility.yul\":937:946   */\n      dup3\n        /* \"#utility.yul\":928:935   */\n      dup5\n        /* \"#utility.yul\":924:947   */\n      sub\n        /* \"#utility.yul\":920:952   */\n      slt\n        /* \"#utility.yul\":917:1036   */\n      iszero\n      tag_380\n      jumpi\n        /* \"#utility.yul\":955:1034   */\n      tag_381\n      tag_302\n      jump\t// in\n    tag_381:\n        /* \"#utility.yul\":917:1036   */\n    tag_380:\n        /* \"#utility.yul\":1075:1076   */\n      0x00\n        /* \"#utility.yul\":1100:1153   */\n      tag_382\n        /* \"#utility.yul\":1145:1152   */\n      dup5\n        /* \"#utility.yul\":1136:1142   */\n      dup3\n        /* \"#utility.yul\":1125:1134   */\n      dup6\n        /* \"#utility.yul\":1121:1143   */\n      add\n        /* \"#utility.yul\":1100:1153   */\n      tag_307\n      jump\t// in\n    tag_382:\n        /* \"#utility.yul\":1090:1153   */\n      swap2\n      pop\n        /* \"#utility.yul\":1046:1163   */\n      pop\n        /* \"#utility.yul\":841:1170   */\n      swap3\n      swap2\n      pop\n      pop\n      jump\t// out\n        /* \"#utility.yul\":1176:1253   */\n    tag_308:\n        /* \"#utility.yul\":1213:1220   */\n      0x00\n        /* \"#utility.yul\":1242:1247   */\n      dup2\n        /* \"#utility.yul\":1231:1247   */\n      swap1\n      pop\n        /* \"#utility.yul\":1176:1253   */\n      swap2\n      swap1\n      pop\n      jump\t// out\n        /* \"#utility.yul\":1259:1377   */\n    tag_309:\n        /* \"#utility.yul\":1346:1370   */\n      tag_385\n        /* \"#utility.yul\":1364:1369   */\n      dup2\n        /* \"#utility.yul\":1346:1370   */\n      tag_308\n      jump\t// in\n    tag_385:\n        /* \"#utility.yul\":1341:1344   */\n      dup3\n        /* \"#utility.yul\":1334:1371   */\n      mstore\n        /* \"#utility.yul\":1259:1377   */\n      pop\n      pop\n      jump\t// out\n        /* \"#utility.yul\":1383:1605   */\n    tag_26:\n        /* \"#utility.yul\":1476:1480   */\n      0x00\n        /* \"#utility.yul\":1514:1516   */\n      0x20\n        /* \"#utility.yul\":1503:1512   */\n      dup3\n        /* \"#utility.yul\":1499:1517   */\n      add\n        /* \"#utility.yul\":1491:1517   */\n      swap1\n      pop\n        /* \"#utility.yul\":1527:1598   */\n      tag_387\n        /* \"#utility.yul\":1595:1596   */\n      0x00\n        /* \"#utility.yul\":1584:1593   */\n      dup4\n        /* \"#utility.yul\":1580:1597   */\n      add\n        /* \"#utility.yul\":1571:1577   */\n      dup5\n        /* \"#utility.yul\":1527:1598   */\n      tag_309\n      jump\t// in\n    tag_387:\n        /* \"#utility.yul\":1383:1605   */\n      swap3\n      swap2\n      pop\n      pop\n      jump\t// out\n        /* \"#utility.yul\":1611:1717   */\n    tag_310:\n        /* \"#utility.yul\":1658:1665   */\n      0x00\n        /* \"#utility.yul\":1687:1711   */\n      tag_389\n        /* \"#utility.yul\":1705:1710   */\n      dup3\n        /* \"#utility.yul\":1687:1711   */\n      tag_305\n      jump\t// in\n    tag_389:\n        /* \"#utility.yul\":1676:1711   */\n      swap1\n      pop\n        /* \"#utility.yul\":1611:1717   */\n      swap2\n      swap1\n      pop\n      jump\t// out\n        /* \"#utility.yul\":1723:1865   */\n    tag_311:\n        /* \"#utility.yul\":1806:1840   */\n      tag_391\n        /* \"#utility.yul\":1834:1839   */\n      dup2\n        /* \"#utility.yul\":1806:1840   */\n      tag_310\n      jump\t// in\n    tag_391:\n        /* \"#utility.yul\":1799:1804   */\n      dup2\n        /* \"#utility.yul\":1796:1841   */\n      eq\n        /* \"#utility.yul\":1786:1859   */\n      tag_392\n      jumpi\n        /* \"#utility.yul\":1855:1856   */\n      0x00\n        /* \"#utility.yul\":1852:1853   */\n      dup1\n        /* \"#utility.yul\":1845:1857   */\n      revert\n        /* \"#utility.yul\":1786:1859   */\n    tag_392:\n        /* \"#utility.yul\":1723:1865   */\n      pop\n      jump\t// out\n        /* \"#utility.yul\":1871:2030   */\n    tag_312:\n        /* \"#utility.yul\":1927:1932   */\n      0x00\n        /* \"#utility.yul\":1965:1971   */\n      dup2\n        /* \"#utility.yul\":1952:1972   */\n      calldataload\n        /* \"#utility.yul\":1943:1972   */\n      swap1\n      pop\n        /* \"#utility.yul\":1981:2024   */\n      tag_394\n        /* \"#utility.yul\":2018:2023   */\n      dup2\n        /* \"#utility.yul\":1981:2024   */\n      tag_311\n      jump\t// in\n    tag_394:\n        /* \"#utility.yul\":1871:2030   */\n      swap3\n      swap2\n      pop\n      pop\n      jump\t// out\n        /* \"#utility.yul\":2036:2385   */\n    tag_29:\n        /* \"#utility.yul\":2105:2111   */\n      0x00\n        /* \"#utility.yul\":2154:2156   */\n      0x20\n        /* \"#utility.yul\":2142:2151   */\n      dup3\n        /* \"#utility.yul\":2133:2140   */\n      dup5\n        /* \"#utility.yul\":2129:2152   */\n      sub\n        /* \"#utility.yul\":2125:2157   */\n      slt\n        /* \"#utility.yul\":2122:2241   */\n      iszero\n      tag_396\n      jumpi\n        /* \"#utility.yul\":2160:2239   */\n      tag_397\n      tag_302\n      jump\t// in\n    tag_397:\n        /* \"#utility.yul\":2122:2241   */\n    tag_396:\n        /* \"#utility.yul\":2280:2281   */\n      0x00\n        /* \"#utility.yul\":2305:2368   */\n      tag_398\n        /* \"#utility.yul\":2360:2367   */\n      dup5\n        /* \"#utility.yul\":2351:2357   */\n      dup3\n        /* \"#utility.yul\":2340:2349   */\n      dup6\n        /* \"#utility.yul\":2336:2358   */\n      add\n        /* \"#utility.yul\":2305:2368   */\n      tag_312\n      jump\t// in\n    tag_398:\n        /* \"#utility.yul\":2295:2368   */\n      swap2\n      pop\n        /* \"#utility.yul\":2251:2378   */\n      pop\n        /* \"#utility.yul\":2036:2385   */\n      swap3\n      swap2\n      pop\n      pop\n      jump\t// out\n        /* \"#utility.yul\":2391:2451   */\n    tag_313:\n        /* \"#utility.yul\":2419:2422   */\n      0x00\n        /* \"#utility.yul\":2440:2445   */\n      dup2\n        /* \"#utility.yul\":2433:2445   */\n      swap1\n      pop\n        /* \"#utility.yul\":2391:2451   */\n      swap2\n      swap1\n      pop\n      jump\t// out\n        /* \"#utility.yul\":2457:2599   */\n    tag_314:\n        /* \"#utility.yul\":2507:2516   */\n      0x00\n        /* \"#utility.yul\":2540:2593   */\n      tag_401\n        /* \"#utility.yul\":2558:2592   */\n      tag_402\n        /* \"#utility.yul\":2567:2591   */\n      tag_403\n        /* \"#utility.yul\":2585:2590   */\n      dup5\n        /* \"#utility.yul\":2567:2591   */\n      tag_304\n      jump\t// in\n    tag_403:\n        /* \"#utility.yul\":2558:2592   */\n      tag_313\n      jump\t// in\n    tag_402:\n        /* \"#utility.yul\":2540:2593   */\n      tag_304\n      jump\t// in\n    tag_401:\n        /* \"#utility.yul\":2527:2593   */\n      swap1\n      pop\n        /* \"#utility.yul\":2457:2599   */\n      swap2\n      swap1\n      pop\n      jump\t// out\n        /* \"#utility.yul\":2605:2731   */\n    tag_315:\n        /* \"#utility.yul\":2655:2664   */\n      0x00\n        /* \"#utility.yul\":2688:2725   */\n      tag_405\n        /* \"#utility.yul\":2719:2724   */\n      dup3\n        /* \"#utility.yul\":2688:2725   */\n      tag_314\n      jump\t// in\n    tag_405:\n        /* \"#utility.yul\":2675:2725   */\n      swap1\n      pop\n        /* \"#utility.yul\":2605:2731   */\n      swap2\n      swap1\n      pop\n      jump\t// out\n        /* \"#utility.yul\":2737:2877   */\n    tag_316:\n        /* \"#utility.yul\":2801:2810   */\n      0x00\n        /* \"#utility.yul\":2834:2871   */\n      tag_407\n        /* \"#utility.yul\":2865:2870   */\n      dup3\n        /* \"#utility.yul\":2834:2871   */\n      tag_315\n      jump\t// in\n    tag_407:\n        /* \"#utility.yul\":2821:2871   */\n      swap1\n      pop\n        /* \"#utility.yul\":2737:2877   */\n      swap2\n      swap1\n      pop\n      jump\t// out\n        /* \"#utility.yul\":2883:3042   */\n    tag_317:\n        /* \"#utility.yul\":2984:3035   */\n      tag_409\n        /* \"#utility.yul\":3029:3034   */\n      dup2\n        /* \"#utility.yul\":2984:3035   */\n      tag_316\n      jump\t// in\n    tag_409:\n        /* \"#utility.yul\":2979:2982   */\n      dup3\n        /* \"#utility.yul\":2972:3036   */\n      mstore\n        /* \"#utility.yul\":2883:3042   */\n      pop\n      pop\n      jump\t// out\n        /* \"#utility.yul\":3048:3298   */\n    tag_35:\n        /* \"#utility.yul\":3155:3159   */\n      0x00\n        /* \"#utility.yul\":3193:3195   */\n      0x20\n        /* \"#utility.yul\":3182:3191   */\n      dup3\n        /* \"#utility.yul\":3178:3196   */\n      add\n        /* \"#utility.yul\":3170:3196   */\n      swap1\n      pop\n        /* \"#utility.yul\":3206:3291   */\n      tag_411\n        /* \"#utility.yul\":3288:3289   */\n      0x00\n        /* \"#utility.yul\":3277:3286   */\n      dup4\n        /* \"#utility.yul\":3273:3290   */\n      add\n        /* \"#utility.yul\":3264:3270   */\n      dup5\n        /* \"#utility.yul\":3206:3291   */\n      tag_317\n      jump\t// in\n    tag_411:\n        /* \"#utility.yul\":3048:3298   */\n      swap3\n      swap2\n      pop\n      pop\n      jump\t// out\n        /* \"#utility.yul\":3304:3422   */\n    tag_318:\n        /* \"#utility.yul\":3391:3415   */\n      tag_413\n        /* \"#utility.yul\":3409:3414   */\n      dup2\n        /* \"#utility.yul\":3391:3415   */\n      tag_305\n      jump\t// in\n    tag_413:\n        /* \"#utility.yul\":3386:3389   */\n      dup3\n        /* \"#utility.yul\":3379:3416   */\n      mstore\n        /* \"#utility.yul\":3304:3422   */\n      pop\n      pop\n      jump\t// out\n        /* \"#utility.yul\":3428:3650   */\n    tag_43:\n        /* \"#utility.yul\":3521:3525   */\n      0x00\n        /* \"#utility.yul\":3559:3561   */\n      0x20\n        /* \"#utility.yul\":3548:3557   */\n      dup3\n        /* \"#utility.yul\":3544:3562   */\n      add\n        /* \"#utility.yul\":3536:3562   */\n      swap1\n      pop\n        /* \"#utility.yul\":3572:3643   */\n      tag_415\n        /* \"#utility.yul\":3640:3641   */\n      0x00\n        /* \"#utility.yul\":3629:3638   */\n      dup4\n        /* \"#utility.yul\":3625:3642   */\n      add\n        /* \"#utility.yul\":3616:3622   */\n      dup5\n        /* \"#utility.yul\":3572:3643   */\n      tag_318\n      jump\t// in\n    tag_415:\n        /* \"#utility.yul\":3428:3650   */\n      swap3\n      swap2\n      pop\n      pop\n      jump\t// out\n        /* \"#utility.yul\":3656:3778   */\n    tag_319:\n        /* \"#utility.yul\":3729:3753   */\n      tag_417\n        /* \"#utility.yul\":3747:3752   */\n      dup2\n        /* \"#utility.yul\":3729:3753   */\n      tag_308\n      jump\t// in\n    tag_417:\n        /* \"#utility.yul\":3722:3727   */\n      dup2\n        /* \"#utility.yul\":3719:3754   */\n      eq\n        /* \"#utility.yul\":3709:3772   */\n      tag_418\n      jumpi\n        /* \"#utility.yul\":3768:3769   */\n      0x00\n        /* \"#utility.yul\":3765:3766   */\n      dup1\n        /* \"#utility.yul\":3758:3770   */\n      revert\n        /* \"#utility.yul\":3709:3772   */\n    tag_418:\n        /* \"#utility.yul\":3656:3778   */\n      pop\n      jump\t// out\n        /* \"#utility.yul\":3784:3923   */\n    tag_320:\n        /* \"#utility.yul\":3830:3835   */\n      0x00\n        /* \"#utility.yul\":3868:3874   */\n      dup2\n        /* \"#utility.yul\":3855:3875   */\n      calldataload\n        /* \"#utility.yul\":3846:3875   */\n      swap1\n      pop\n        /* \"#utility.yul\":3884:3917   */\n      tag_420\n        /* \"#utility.yul\":3911:3916   */\n      dup2\n        /* \"#utility.yul\":3884:3917   */\n      tag_319\n      jump\t// in\n    tag_420:\n        /* \"#utility.yul\":3784:3923   */\n      swap3\n      swap2\n      pop\n      pop\n      jump\t// out\n        /* \"#utility.yul\":3929:4047   */\n    tag_321:\n        /* \"#utility.yul\":3988:3995   */\n      0x00\n        /* \"#utility.yul\":4017:4041   */\n      tag_422\n        /* \"#utility.yul\":4035:4040   */\n      dup3\n        /* \"#utility.yul\":4017:4041   */\n      tag_305\n      jump\t// in\n    tag_422:\n        /* \"#utility.yul\":4006:4041   */\n      swap1\n      pop\n        /* \"#utility.yul\":3929:4047   */\n      swap2\n      swap1\n      pop\n      jump\t// out\n        /* \"#utility.yul\":4053:4219   */\n    tag_322:\n        /* \"#utility.yul\":4148:4194   */\n      tag_424\n        /* \"#utility.yul\":4188:4193   */\n      dup2\n        /* \"#utility.yul\":4148:4194   */\n      tag_321\n      jump\t// in\n    tag_424:\n        /* \"#utility.yul\":4141:4146   */\n      dup2\n        /* \"#utility.yul\":4138:4195   */\n      eq\n        /* \"#utility.yul\":4128:4213   */\n      tag_425\n      jumpi\n        /* \"#utility.yul\":4209:4210   */\n      0x00\n        /* \"#utility.yul\":4206:4207   */\n      dup1\n        /* \"#utility.yul\":4199:4211   */\n      revert\n        /* \"#utility.yul\":4128:4213   */\n    tag_425:\n        /* \"#utility.yul\":4053:4219   */\n      pop\n      jump\t// out\n        /* \"#utility.yul\":4225:4408   */\n    tag_323:\n        /* \"#utility.yul\":4293:4298   */\n      0x00\n        /* \"#utility.yul\":4331:4337   */\n      dup2\n        /* \"#utility.yul\":4318:4338   */\n      calldataload\n        /* \"#utility.yul\":4309:4338   */\n      swap1\n      pop\n        /* \"#utility.yul\":4347:4402   */\n      tag_427\n        /* \"#utility.yul\":4396:4401   */\n      dup2\n        /* \"#utility.yul\":4347:4402   */\n      tag_322\n      jump\t// in\n    tag_427:\n        /* \"#utility.yul\":4225:4408   */\n      swap3\n      swap2\n      pop\n      pop\n      jump\t// out\n        /* \"#utility.yul\":4414:4932   */\n    tag_46:\n        /* \"#utility.yul\":4504:4510   */\n      0x00\n        /* \"#utility.yul\":4512:4518   */\n      dup1\n        /* \"#utility.yul\":4561:4563   */\n      0x40\n        /* \"#utility.yul\":4549:4558   */\n      dup4\n        /* \"#utility.yul\":4540:4547   */\n      dup6\n        /* \"#utility.yul\":4536:4559   */\n      sub\n        /* \"#utility.yul\":4532:4564   */\n      slt\n        /* \"#utility.yul\":4529:4648   */\n      iszero\n      tag_429\n      jumpi\n        /* \"#utility.yul\":4567:4646   */\n      tag_430\n      tag_302\n      jump\t// in\n    tag_430:\n        /* \"#utility.yul\":4529:4648   */\n    tag_429:\n        /* \"#utility.yul\":4687:4688   */\n      0x00\n        /* \"#utility.yul\":4712:4765   */\n      tag_431\n        /* \"#utility.yul\":4757:4764   */\n      dup6\n        /* \"#utility.yul\":4748:4754   */\n      dup3\n        /* \"#utility.yul\":4737:4746   */\n      dup7\n        /* \"#utility.yul\":4733:4755   */\n      add\n        /* \"#utility.yul\":4712:4765   */\n      tag_320\n      jump\t// in\n    tag_431:\n        /* \"#utility.yul\":4702:4765   */\n      swap3\n      pop\n        /* \"#utility.yul\":4658:4775   */\n      pop\n        /* \"#utility.yul\":4814:4816   */\n      0x20\n        /* \"#utility.yul\":4840:4915   */\n      tag_432\n        /* \"#utility.yul\":4907:4914   */\n      dup6\n        /* \"#utility.yul\":4898:4904   */\n      dup3\n        /* \"#utility.yul\":4887:4896   */\n      dup7\n        /* \"#utility.yul\":4883:4905   */\n      add\n        /* \"#utility.yul\":4840:4915   */\n      tag_323\n      jump\t// in\n    tag_432:\n        /* \"#utility.yul\":4830:4915   */\n      swap2\n      pop\n        /* \"#utility.yul\":4785:4925   */\n      pop\n        /* \"#utility.yul\":4414:4932   */\n      swap3\n      pop\n      swap3\n      swap1\n      pop\n      jump\t// out\n        /* \"#utility.yul\":4938:5048   */\n    tag_324:\n        /* \"#utility.yul\":4989:4996   */\n      0x00\n        /* \"#utility.yul\":5018:5042   */\n      tag_434\n        /* \"#utility.yul\":5036:5041   */\n      dup3\n        /* \"#utility.yul\":5018:5042   */\n      tag_305\n      jump\t// in\n    tag_434:\n        /* \"#utility.yul\":5007:5042   */\n      swap1\n      pop\n        /* \"#utility.yul\":4938:5048   */\n      swap2\n      swap1\n      pop\n      jump\t// out\n        /* \"#utility.yul\":5054:5204   */\n    tag_325:\n        /* \"#utility.yul\":5141:5179   */\n      tag_436\n        /* \"#utility.yul\":5173:5178   */\n      dup2\n        /* \"#utility.yul\":5141:5179   */\n      tag_324\n      jump\t// in\n    tag_436:\n        /* \"#utility.yul\":5134:5139   */\n      dup2\n        /* \"#utility.yul\":5131:5180   */\n      eq\n        /* \"#utility.yul\":5121:5198   */\n      tag_437\n      jumpi\n        /* \"#utility.yul\":5194:5195   */\n      0x00\n        /* \"#utility.yul\":5191:5192   */\n      dup1\n        /* \"#utility.yul\":5184:5196   */\n      revert\n        /* \"#utility.yul\":5121:5198   */\n    tag_437:\n        /* \"#utility.yul\":5054:5204   */\n      pop\n      jump\t// out\n        /* \"#utility.yul\":5210:5377   */\n    tag_326:\n        /* \"#utility.yul\":5270:5275   */\n      0x00\n        /* \"#utility.yul\":5308:5314   */\n      dup2\n        /* \"#utility.yul\":5295:5315   */\n      calldataload\n        /* \"#utility.yul\":5286:5315   */\n      swap1\n      pop\n        /* \"#utility.yul\":5324:5371   */\n      tag_439\n        /* \"#utility.yul\":5365:5370   */\n      dup2\n        /* \"#utility.yul\":5324:5371   */\n      tag_325\n      jump\t// in\n    tag_439:\n        /* \"#utility.yul\":5210:5377   */\n      swap3\n      swap2\n      pop\n      pop\n      jump\t// out\n        /* \"#utility.yul\":5383:5740   */\n    tag_63:\n        /* \"#utility.yul\":5456:5462   */\n      0x00\n        /* \"#utility.yul\":5505:5507   */\n      0x20\n        /* \"#utility.yul\":5493:5502   */\n      dup3\n        /* \"#utility.yul\":5484:5491   */\n      dup5\n        /* \"#utility.yul\":5480:5503   */\n      sub\n        /* \"#utility.yul\":5476:5508   */\n      slt\n        /* \"#utility.yul\":5473:5592   */\n      iszero\n      tag_441\n      jumpi\n        /* \"#utility.yul\":5511:5590   */\n      tag_442\n      tag_302\n      jump\t// in\n    tag_442:\n        /* \"#utility.yul\":5473:5592   */\n    tag_441:\n        /* \"#utility.yul\":5631:5632   */\n      0x00\n        /* \"#utility.yul\":5656:5723   */\n      tag_443\n        /* \"#utility.yul\":5715:5722   */\n      dup5\n        /* \"#utility.yul\":5706:5712   */\n      dup3\n        /* \"#utility.yul\":5695:5704   */\n      dup6\n        /* \"#utility.yul\":5691:5713   */\n      add\n        /* \"#utility.yul\":5656:5723   */\n      tag_326\n      jump\t// in\n    tag_443:\n        /* \"#utility.yul\":5646:5723   */\n      swap2\n      pop\n        /* \"#utility.yul\":5602:5733   */\n      pop\n        /* \"#utility.yul\":5383:5740   */\n      swap3\n      swap2\n      pop\n      pop\n      jump\t// out\n        /* \"#utility.yul\":5746:6575   */\n    tag_67:\n        /* \"#utility.yul\":5864:5870   */\n      0x00\n        /* \"#utility.yul\":5872:5878   */\n      dup1\n        /* \"#utility.yul\":5880:5886   */\n      0x00\n        /* \"#utility.yul\":5888:5894   */\n      dup1\n        /* \"#utility.yul\":5937:5940   */\n      0x80\n        /* \"#utility.yul\":5925:5934   */\n      dup6\n        /* \"#utility.yul\":5916:5923   */\n      dup8\n        /* \"#utility.yul\":5912:5935   */\n      sub\n        /* \"#utility.yul\":5908:5941   */\n      slt\n        /* \"#utility.yul\":5905:6025   */\n      iszero\n      tag_445\n      jumpi\n        /* \"#utility.yul\":5944:6023   */\n      tag_446\n      tag_302\n      jump\t// in\n    tag_446:\n        /* \"#utility.yul\":5905:6025   */\n    tag_445:\n        /* \"#utility.yul\":6064:6065   */\n      0x00\n        /* \"#utility.yul\":6089:6142   */\n      tag_447\n        /* \"#utility.yul\":6134:6141   */\n      dup8\n        /* \"#utility.yul\":6125:6131   */\n      dup3\n        /* \"#utility.yul\":6114:6123   */\n      dup9\n        /* \"#utility.yul\":6110:6132   */\n      add\n        /* \"#utility.yul\":6089:6142   */\n      tag_320\n      jump\t// in\n    tag_447:\n        /* \"#utility.yul\":6079:6142   */\n      swap5\n      pop\n        /* \"#utility.yul\":6035:6152   */\n      pop\n        /* \"#utility.yul\":6191:6193   */\n      0x20\n        /* \"#utility.yul\":6217:6280   */\n      tag_448\n        /* \"#utility.yul\":6272:6279   */\n      dup8\n        /* \"#utility.yul\":6263:6269   */\n      dup3\n        /* \"#utility.yul\":6252:6261   */\n      dup9\n        /* \"#utility.yul\":6248:6270   */\n      add\n        /* \"#utility.yul\":6217:6280   */\n      tag_312\n      jump\t// in\n    tag_448:\n        /* \"#utility.yul\":6207:6280   */\n      swap4\n      pop\n        /* \"#utility.yul\":6162:6290   */\n      pop\n        /* \"#utility.yul\":6329:6331   */\n      0x40\n        /* \"#utility.yul\":6355:6408   */\n      tag_449\n        /* \"#utility.yul\":6400:6407   */\n      dup8\n        /* \"#utility.yul\":6391:6397   */\n      dup3\n        /* \"#utility.yul\":6380:6389   */\n      dup9\n        /* \"#utility.yul\":6376:6398   */\n      add\n        /* \"#utility.yul\":6355:6408   */\n      tag_320\n      jump\t// in\n    tag_449:\n        /* \"#utility.yul\":6345:6408   */\n      swap3\n      pop\n        /* \"#utility.yul\":6300:6418   */\n      pop\n        /* \"#utility.yul\":6457:6459   */\n      0x60\n        /* \"#utility.yul\":6483:6558   */\n      tag_450\n        /* \"#utility.yul\":6550:6557   */\n      dup8\n        /* \"#utility.yul\":6541:6547   */\n      dup3\n        /* \"#utility.yul\":6530:6539   */\n      dup9\n        /* \"#utility.yul\":6526:6548   */\n      add\n        /* \"#utility.yul\":6483:6558   */\n      tag_323\n      jump\t// in\n    tag_450:\n        /* \"#utility.yul\":6473:6558   */\n      swap2\n      pop\n        /* \"#utility.yul\":6428:6568   */\n      pop\n        /* \"#utility.yul\":5746:6575   */\n      swap3\n      swap6\n      swap2\n      swap5\n      pop\n      swap3\n      pop\n      jump\t// out\n        /* \"#utility.yul\":6581:6954   */\n    tag_72:\n        /* \"#utility.yul\":6662:6668   */\n      0x00\n        /* \"#utility.yul\":6711:6713   */\n      0x20\n        /* \"#utility.yul\":6699:6708   */\n      dup3\n        /* \"#utility.yul\":6690:6697   */\n      dup5\n        /* \"#utility.yul\":6686:6709   */\n      sub\n        /* \"#utility.yul\":6682:6714   */\n      slt\n        /* \"#utility.yul\":6679:6798   */\n      iszero\n      tag_452\n      jumpi\n        /* \"#utility.yul\":6717:6796   */\n      tag_453\n      tag_302\n      jump\t// in\n    tag_453:\n        /* \"#utility.yul\":6679:6798   */\n    tag_452:\n        /* \"#utility.yul\":6837:6838   */\n      0x00\n        /* \"#utility.yul\":6862:6937   */\n      tag_454\n        /* \"#utility.yul\":6929:6936   */\n      dup5\n        /* \"#utility.yul\":6920:6926   */\n      dup3\n        /* \"#utility.yul\":6909:6918   */\n      dup6\n        /* \"#utility.yul\":6905:6927   */\n      add\n        /* \"#utility.yul\":6862:6937   */\n      tag_323\n      jump\t// in\n    tag_454:\n        /* \"#utility.yul\":6852:6937   */\n      swap2\n      pop\n        /* \"#utility.yul\":6808:6947   */\n      pop\n        /* \"#utility.yul\":6581:6954   */\n      swap3\n      swap2\n      pop\n      pop\n      jump\t// out\n        /* \"#utility.yul\":6960:7140   */\n    tag_85:\n        /* \"#utility.yul\":7008:7085   */\n      0x4e487b7100000000000000000000000000000000000000000000000000000000\n        /* \"#utility.yul\":7005:7006   */\n      0x00\n        /* \"#utility.yul\":6998:7086   */\n      mstore\n        /* \"#utility.yul\":7105:7109   */\n      0x41\n        /* \"#utility.yul\":7102:7103   */\n      0x04\n        /* \"#utility.yul\":7095:7110   */\n      mstore\n        /* \"#utility.yul\":7129:7133   */\n      0x24\n        /* \"#utility.yul\":7126:7127   */\n      0x00\n        /* \"#utility.yul\":7119:7134   */\n      revert\n        /* \"#utility.yul\":7146:7326   */\n    tag_89:\n        /* \"#utility.yul\":7194:7271   */\n      0x4e487b7100000000000000000000000000000000000000000000000000000000\n        /* \"#utility.yul\":7191:7192   */\n      0x00\n        /* \"#utility.yul\":7184:7272   */\n      mstore\n        /* \"#utility.yul\":7291:7295   */\n      0x32\n        /* \"#utility.yul\":7288:7289   */\n      0x04\n        /* \"#utility.yul\":7281:7296   */\n      mstore\n        /* \"#utility.yul\":7315:7319   */\n      0x24\n        /* \"#utility.yul\":7312:7313   */\n      0x00\n        /* \"#utility.yul\":7305:7320   */\n      revert\n        /* \"#utility.yul\":7332:7446   */\n    tag_327:\n        /* \"#utility.yul\":7399:7405   */\n      0x00\n        /* \"#utility.yul\":7433:7438   */\n      dup2\n        /* \"#utility.yul\":7427:7439   */\n      mload\n        /* \"#utility.yul\":7417:7439   */\n      swap1\n      pop\n        /* \"#utility.yul\":7332:7446   */\n      swap2\n      swap1\n      pop\n      jump\t// out\n        /* \"#utility.yul\":7452:7636   */\n    tag_328:\n        /* \"#utility.yul\":7551:7562   */\n      0x00\n        /* \"#utility.yul\":7585:7591   */\n      dup3\n        /* \"#utility.yul\":7580:7583   */\n      dup3\n        /* \"#utility.yul\":7573:7592   */\n      mstore\n        /* \"#utility.yul\":7625:7629   */\n      0x20\n        /* \"#utility.yul\":7620:7623   */\n      dup3\n        /* \"#utility.yul\":7616:7630   */\n      add\n        /* \"#utility.yul\":7601:7630   */\n      swap1\n      pop\n        /* \"#utility.yul\":7452:7636   */\n      swap3\n      swap2\n      pop\n      pop\n      jump\t// out\n        /* \"#utility.yul\":7642:7774   */\n    tag_329:\n        /* \"#utility.yul\":7709:7713   */\n      0x00\n        /* \"#utility.yul\":7732:7735   */\n      dup2\n        /* \"#utility.yul\":7724:7735   */\n      swap1\n      pop\n        /* \"#utility.yul\":7762:7766   */\n      0x20\n        /* \"#utility.yul\":7757:7760   */\n      dup3\n        /* \"#utility.yul\":7753:7767   */\n      add\n        /* \"#utility.yul\":7745:7767   */\n      swap1\n      pop\n        /* \"#utility.yul\":7642:7774   */\n      swap2\n      swap1\n      pop\n      jump\t// out\n        /* \"#utility.yul\":7780:7888   */\n    tag_330:\n        /* \"#utility.yul\":7857:7881   */\n      tag_461\n        /* \"#utility.yul\":7875:7880   */\n      dup2\n        /* \"#utility.yul\":7857:7881   */\n      tag_305\n      jump\t// in\n    tag_461:\n        /* \"#utility.yul\":7852:7855   */\n      dup3\n        /* \"#utility.yul\":7845:7882   */\n      mstore\n        /* \"#utility.yul\":7780:7888   */\n      pop\n      pop\n      jump\t// out\n        /* \"#utility.yul\":7894:8073   */\n    tag_331:\n        /* \"#utility.yul\":7963:7973   */\n      0x00\n        /* \"#utility.yul\":7984:8030   */\n      tag_463\n        /* \"#utility.yul\":8026:8029   */\n      dup4\n        /* \"#utility.yul\":8018:8024   */\n      dup4\n        /* \"#utility.yul\":7984:8030   */\n      tag_330\n      jump\t// in\n    tag_463:\n        /* \"#utility.yul\":8062:8066   */\n      0x20\n        /* \"#utility.yul\":8057:8060   */\n      dup4\n        /* \"#utility.yul\":8053:8067   */\n      add\n        /* \"#utility.yul\":8039:8067   */\n      swap1\n      pop\n        /* \"#utility.yul\":7894:8073   */\n      swap3\n      swap2\n      pop\n      pop\n      jump\t// out\n        /* \"#utility.yul\":8079:8192   */\n    tag_332:\n        /* \"#utility.yul\":8149:8153   */\n      0x00\n        /* \"#utility.yul\":8181:8185   */\n      0x20\n        /* \"#utility.yul\":8176:8179   */\n      dup3\n        /* \"#utility.yul\":8172:8186   */\n      add\n        /* \"#utility.yul\":8164:8186   */\n      swap1\n      pop\n        /* \"#utility.yul\":8079:8192   */\n      swap2\n      swap1\n      pop\n      jump\t// out\n        /* \"#utility.yul\":8228:8960   */\n    tag_333:\n        /* \"#utility.yul\":8347:8350   */\n      0x00\n        /* \"#utility.yul\":8376:8430   */\n      tag_466\n        /* \"#utility.yul\":8424:8429   */\n      dup3\n        /* \"#utility.yul\":8376:8430   */\n      tag_327\n      jump\t// in\n    tag_466:\n        /* \"#utility.yul\":8446:8532   */\n      tag_467\n        /* \"#utility.yul\":8525:8531   */\n      dup2\n        /* \"#utility.yul\":8520:8523   */\n      dup6\n        /* \"#utility.yul\":8446:8532   */\n      tag_328\n      jump\t// in\n    tag_467:\n        /* \"#utility.yul\":8439:8532   */\n      swap4\n      pop\n        /* \"#utility.yul\":8556:8612   */\n      tag_468\n        /* \"#utility.yul\":8606:8611   */\n      dup4\n        /* \"#utility.yul\":8556:8612   */\n      tag_329\n      jump\t// in\n    tag_468:\n        /* \"#utility.yul\":8635:8642   */\n      dup1\n        /* \"#utility.yul\":8666:8667   */\n      0x00\n        /* \"#utility.yul\":8651:8935   */\n    tag_469:\n        /* \"#utility.yul\":8676:8682   */\n      dup4\n        /* \"#utility.yul\":8673:8674   */\n      dup2\n        /* \"#utility.yul\":8670:8683   */\n      lt\n        /* \"#utility.yul\":8651:8935   */\n      iszero\n      tag_471\n      jumpi\n        /* \"#utility.yul\":8752:8758   */\n      dup2\n        /* \"#utility.yul\":8746:8759   */\n      mload\n        /* \"#utility.yul\":8779:8842   */\n      tag_472\n        /* \"#utility.yul\":8838:8841   */\n      dup9\n        /* \"#utility.yul\":8823:8836   */\n      dup3\n        /* \"#utility.yul\":8779:8842   */\n      tag_331\n      jump\t// in\n    tag_472:\n        /* \"#utility.yul\":8772:8842   */\n      swap8\n      pop\n        /* \"#utility.yul\":8865:8925   */\n      tag_473\n        /* \"#utility.yul\":8918:8924   */\n      dup4\n        /* \"#utility.yul\":8865:8925   */\n      tag_332\n      jump\t// in\n    tag_473:\n        /* \"#utility.yul\":8855:8925   */\n      swap3\n      pop\n        /* \"#utility.yul\":8711:8935   */\n      pop\n        /* \"#utility.yul\":8698:8699   */\n      0x01\n        /* \"#utility.yul\":8695:8696   */\n      dup2\n        /* \"#utility.yul\":8691:8700   */\n      add\n        /* \"#utility.yul\":8686:8700   */\n      swap1\n      pop\n        /* \"#utility.yul\":8651:8935   */\n      jump(tag_469)\n    tag_471:\n        /* \"#utility.yul\":8655:8669   */\n      pop\n        /* \"#utility.yul\":8951:8954   */\n      dup6\n        /* \"#utility.yul\":8944:8954   */\n      swap4\n      pop\n        /* \"#utility.yul\":8352:8960   */\n      pop\n      pop\n      pop\n        /* \"#utility.yul\":8228:8960   */\n      swap3\n      swap2\n      pop\n      pop\n      jump\t// out\n        /* \"#utility.yul\":8966:9449   */\n    tag_95:\n        /* \"#utility.yul\":9137:9141   */\n      0x00\n        /* \"#utility.yul\":9175:9177   */\n      0x40\n        /* \"#utility.yul\":9164:9173   */\n      dup3\n        /* \"#utility.yul\":9160:9178   */\n      add\n        /* \"#utility.yul\":9152:9178   */\n      swap1\n      pop\n        /* \"#utility.yul\":9188:9259   */\n      tag_475\n        /* \"#utility.yul\":9256:9257   */\n      0x00\n        /* \"#utility.yul\":9245:9254   */\n      dup4\n        /* \"#utility.yul\":9241:9258   */\n      add\n        /* \"#utility.yul\":9232:9238   */\n      dup6\n        /* \"#utility.yul\":9188:9259   */\n      tag_309\n      jump\t// in\n    tag_475:\n        /* \"#utility.yul\":9306:9315   */\n      dup2\n        /* \"#utility.yul\":9300:9304   */\n      dup2\n        /* \"#utility.yul\":9296:9316   */\n      sub\n        /* \"#utility.yul\":9291:9293   */\n      0x20\n        /* \"#utility.yul\":9280:9289   */\n      dup4\n        /* \"#utility.yul\":9276:9294   */\n      add\n        /* \"#utility.yul\":9269:9317   */\n      mstore\n        /* \"#utility.yul\":9334:9442   */\n      tag_476\n        /* \"#utility.yul\":9437:9441   */\n      dup2\n        /* \"#utility.yul\":9428:9434   */\n      dup5\n        /* \"#utility.yul\":9334:9442   */\n      tag_333\n      jump\t// in\n    tag_476:\n        /* \"#utility.yul\":9326:9442   */\n      swap1\n      pop\n        /* \"#utility.yul\":8966:9449   */\n      swap4\n      swap3\n      pop\n      pop\n      pop\n      jump\t// out\n        /* \"#utility.yul\":9455:9572   */\n    tag_334:\n        /* \"#utility.yul\":9564:9565   */\n      0x00\n        /* \"#utility.yul\":9561:9562   */\n      dup1\n        /* \"#utility.yul\":9554:9566   */\n      revert\n        /* \"#utility.yul\":9578:9680   */\n    tag_335:\n        /* \"#utility.yul\":9619:9625   */\n      0x00\n        /* \"#utility.yul\":9670:9672   */\n      0x1f\n        /* \"#utility.yul\":9666:9673   */\n      not\n        /* \"#utility.yul\":9661:9663   */\n      0x1f\n        /* \"#utility.yul\":9654:9659   */\n      dup4\n        /* \"#utility.yul\":9650:9664   */\n      add\n        /* \"#utility.yul\":9646:9674   */\n      and\n        /* \"#utility.yul\":9636:9674   */\n      swap1\n      pop\n        /* \"#utility.yul\":9578:9680   */\n      swap2\n      swap1\n      pop\n      jump\t// out\n        /* \"#utility.yul\":9686:9967   */\n    tag_336:\n        /* \"#utility.yul\":9769:9796   */\n      tag_480\n        /* \"#utility.yul\":9791:9795   */\n      dup3\n        /* \"#utility.yul\":9769:9796   */\n      tag_335\n      jump\t// in\n    tag_480:\n        /* \"#utility.yul\":9761:9767   */\n      dup2\n        /* \"#utility.yul\":9757:9797   */\n      add\n        /* \"#utility.yul\":9899:9905   */\n      dup2\n        /* \"#utility.yul\":9887:9897   */\n      dup2\n        /* \"#utility.yul\":9884:9906   */\n      lt\n        /* \"#utility.yul\":9863:9881   */\n      0xffffffffffffffff\n        /* \"#utility.yul\":9851:9861   */\n      dup3\n        /* \"#utility.yul\":9848:9882   */\n      gt\n        /* \"#utility.yul\":9845:9907   */\n      or\n        /* \"#utility.yul\":9842:9930   */\n      iszero\n      tag_481\n      jumpi\n        /* \"#utility.yul\":9910:9928   */\n      tag_482\n      tag_85\n      jump\t// in\n    tag_482:\n        /* \"#utility.yul\":9842:9930   */\n    tag_481:\n        /* \"#utility.yul\":9950:9960   */\n      dup1\n        /* \"#utility.yul\":9946:9948   */\n      0x40\n        /* \"#utility.yul\":9939:9961   */\n      mstore\n        /* \"#utility.yul\":9729:9967   */\n      pop\n        /* \"#utility.yul\":9686:9967   */\n      pop\n      pop\n      jump\t// out\n        /* \"#utility.yul\":9973:10102   */\n    tag_337:\n        /* \"#utility.yul\":10007:10013   */\n      0x00\n        /* \"#utility.yul\":10034:10054   */\n      tag_484\n      tag_301\n      jump\t// in\n    tag_484:\n        /* \"#utility.yul\":10024:10054   */\n      swap1\n      pop\n        /* \"#utility.yul\":10063:10096   */\n      tag_485\n        /* \"#utility.yul\":10091:10095   */\n      dup3\n        /* \"#utility.yul\":10083:10089   */\n      dup3\n        /* \"#utility.yul\":10063:10096   */\n      tag_336\n      jump\t// in\n    tag_485:\n        /* \"#utility.yul\":9973:10102   */\n      swap2\n      swap1\n      pop\n      jump\t// out\n        /* \"#utility.yul\":10108:10419   */\n    tag_338:\n        /* \"#utility.yul\":10185:10189   */\n      0x00\n        /* \"#utility.yul\":10275:10293   */\n      0xffffffffffffffff\n        /* \"#utility.yul\":10267:10273   */\n      dup3\n        /* \"#utility.yul\":10264:10294   */\n      gt\n        /* \"#utility.yul\":10261:10317   */\n      iszero\n      tag_487\n      jumpi\n        /* \"#utility.yul\":10297:10315   */\n      tag_488\n      tag_85\n      jump\t// in\n    tag_488:\n        /* \"#utility.yul\":10261:10317   */\n    tag_487:\n        /* \"#utility.yul\":10347:10351   */\n      0x20\n        /* \"#utility.yul\":10339:10345   */\n      dup3\n        /* \"#utility.yul\":10335:10352   */\n      mul\n        /* \"#utility.yul\":10327:10352   */\n      swap1\n      pop\n        /* \"#utility.yul\":10407:10411   */\n      0x20\n        /* \"#utility.yul\":10401:10405   */\n      dup2\n        /* \"#utility.yul\":10397:10412   */\n      add\n        /* \"#utility.yul\":10389:10412   */\n      swap1\n      pop\n        /* \"#utility.yul\":10108:10419   */\n      swap2\n      swap1\n      pop\n      jump\t// out\n        /* \"#utility.yul\":10425:10542   */\n    tag_339:\n        /* \"#utility.yul\":10534:10535   */\n      0x00\n        /* \"#utility.yul\":10531:10532   */\n      dup1\n        /* \"#utility.yul\":10524:10536   */\n      revert\n        /* \"#utility.yul\":10548:10691   */\n    tag_340:\n        /* \"#utility.yul\":10605:10610   */\n      0x00\n        /* \"#utility.yul\":10636:10642   */\n      dup2\n        /* \"#utility.yul\":10630:10643   */\n      mload\n        /* \"#utility.yul\":10621:10643   */\n      swap1\n      pop\n        /* \"#utility.yul\":10652:10685   */\n      tag_491\n        /* \"#utility.yul\":10679:10684   */\n      dup2\n        /* \"#utility.yul\":10652:10685   */\n      tag_319\n      jump\t// in\n    tag_491:\n        /* \"#utility.yul\":10548:10691   */\n      swap3\n      swap2\n      pop\n      pop\n      jump\t// out\n        /* \"#utility.yul\":10714:11446   */\n    tag_341:\n        /* \"#utility.yul\":10821:10826   */\n      0x00\n        /* \"#utility.yul\":10846:10927   */\n      tag_493\n        /* \"#utility.yul\":10862:10926   */\n      tag_494\n        /* \"#utility.yul\":10919:10925   */\n      dup5\n        /* \"#utility.yul\":10862:10926   */\n      tag_338\n      jump\t// in\n    tag_494:\n        /* \"#utility.yul\":10846:10927   */\n      tag_337\n      jump\t// in\n    tag_493:\n        /* \"#utility.yul\":10837:10927   */\n      swap1\n      pop\n        /* \"#utility.yul\":10947:10952   */\n      dup1\n        /* \"#utility.yul\":10976:10982   */\n      dup4\n        /* \"#utility.yul\":10969:10974   */\n      dup3\n        /* \"#utility.yul\":10962:10983   */\n      mstore\n        /* \"#utility.yul\":11010:11014   */\n      0x20\n        /* \"#utility.yul\":11003:11008   */\n      dup3\n        /* \"#utility.yul\":10999:11015   */\n      add\n        /* \"#utility.yul\":10992:11015   */\n      swap1\n      pop\n        /* \"#utility.yul\":11063:11067   */\n      0x20\n        /* \"#utility.yul\":11055:11061   */\n      dup5\n        /* \"#utility.yul\":11051:11068   */\n      mul\n        /* \"#utility.yul\":11043:11049   */\n      dup4\n        /* \"#utility.yul\":11039:11069   */\n      add\n        /* \"#utility.yul\":11092:11095   */\n      dup6\n        /* \"#utility.yul\":11084:11090   */\n      dup2\n        /* \"#utility.yul\":11081:11096   */\n      gt\n        /* \"#utility.yul\":11078:11200   */\n      iszero\n      tag_495\n      jumpi\n        /* \"#utility.yul\":11111:11190   */\n      tag_496\n      tag_339\n      jump\t// in\n    tag_496:\n        /* \"#utility.yul\":11078:11200   */\n    tag_495:\n        /* \"#utility.yul\":11226:11232   */\n      dup4\n        /* \"#utility.yul\":11209:11440   */\n    tag_497:\n        /* \"#utility.yul\":11243:11249   */\n      dup2\n        /* \"#utility.yul\":11238:11241   */\n      dup2\n        /* \"#utility.yul\":11235:11250   */\n      lt\n        /* \"#utility.yul\":11209:11440   */\n      iszero\n      tag_499\n      jumpi\n        /* \"#utility.yul\":11318:11321   */\n      dup1\n        /* \"#utility.yul\":11347:11395   */\n      tag_500\n        /* \"#utility.yul\":11391:11394   */\n      dup9\n        /* \"#utility.yul\":11379:11389   */\n      dup3\n        /* \"#utility.yul\":11347:11395   */\n      tag_340\n      jump\t// in\n    tag_500:\n        /* \"#utility.yul\":11342:11345   */\n      dup5\n        /* \"#utility.yul\":11335:11396   */\n      mstore\n        /* \"#utility.yul\":11425:11429   */\n      0x20\n        /* \"#utility.yul\":11420:11423   */\n      dup5\n        /* \"#utility.yul\":11416:11430   */\n      add\n        /* \"#utility.yul\":11409:11430   */\n      swap4\n      pop\n        /* \"#utility.yul\":11285:11440   */\n      pop\n        /* \"#utility.yul\":11269:11273   */\n      0x20\n        /* \"#utility.yul\":11264:11267   */\n      dup2\n        /* \"#utility.yul\":11260:11274   */\n      add\n        /* \"#utility.yul\":11253:11274   */\n      swap1\n      pop\n        /* \"#utility.yul\":11209:11440   */\n      jump(tag_497)\n    tag_499:\n        /* \"#utility.yul\":11213:11234   */\n      pop\n        /* \"#utility.yul\":10827:11446   */\n      pop\n      pop\n        /* \"#utility.yul\":10714:11446   */\n      swap4\n      swap3\n      pop\n      pop\n      pop\n      jump\t// out\n        /* \"#utility.yul\":11469:11854   */\n    tag_342:\n        /* \"#utility.yul\":11551:11556   */\n      0x00\n        /* \"#utility.yul\":11600:11603   */\n      dup3\n        /* \"#utility.yul\":11593:11597   */\n      0x1f\n        /* \"#utility.yul\":11585:11591   */\n      dup4\n        /* \"#utility.yul\":11581:11598   */\n      add\n        /* \"#utility.yul\":11577:11604   */\n      slt\n        /* \"#utility.yul\":11567:11689   */\n      tag_502\n      jumpi\n        /* \"#utility.yul\":11608:11687   */\n      tag_503\n      tag_334\n      jump\t// in\n    tag_503:\n        /* \"#utility.yul\":11567:11689   */\n    tag_502:\n        /* \"#utility.yul\":11718:11724   */\n      dup2\n        /* \"#utility.yul\":11712:11725   */\n      mload\n        /* \"#utility.yul\":11743:11848   */\n      tag_504\n        /* \"#utility.yul\":11844:11847   */\n      dup5\n        /* \"#utility.yul\":11836:11842   */\n      dup3\n        /* \"#utility.yul\":11829:11833   */\n      0x20\n        /* \"#utility.yul\":11821:11827   */\n      dup7\n        /* \"#utility.yul\":11817:11834   */\n      add\n        /* \"#utility.yul\":11743:11848   */\n      tag_341\n      jump\t// in\n    tag_504:\n        /* \"#utility.yul\":11734:11848   */\n      swap2\n      pop\n        /* \"#utility.yul\":11557:11854   */\n      pop\n        /* \"#utility.yul\":11469:11854   */\n      swap3\n      swap2\n      pop\n      pop\n      jump\t// out\n        /* \"#utility.yul\":11860:12414   */\n    tag_99:\n        /* \"#utility.yul\":11955:11961   */\n      0x00\n        /* \"#utility.yul\":12004:12006   */\n      0x20\n        /* \"#utility.yul\":11992:12001   */\n      dup3\n        /* \"#utility.yul\":11983:11990   */\n      dup5\n        /* \"#utility.yul\":11979:12002   */\n      sub\n        /* \"#utility.yul\":11975:12007   */\n      slt\n        /* \"#utility.yul\":11972:12091   */\n      iszero\n      tag_506\n      jumpi\n        /* \"#utility.yul\":12010:12089   */\n      tag_507\n      tag_302\n      jump\t// in\n    tag_507:\n        /* \"#utility.yul\":11972:12091   */\n    tag_506:\n        /* \"#utility.yul\":12151:12152   */\n      0x00\n        /* \"#utility.yul\":12140:12149   */\n      dup3\n        /* \"#utility.yul\":12136:12153   */\n      add\n        /* \"#utility.yul\":12130:12154   */\n      mload\n        /* \"#utility.yul\":12181:12199   */\n      0xffffffffffffffff\n        /* \"#utility.yul\":12173:12179   */\n      dup2\n        /* \"#utility.yul\":12170:12200   */\n      gt\n        /* \"#utility.yul\":12167:12284   */\n      iszero\n      tag_508\n      jumpi\n        /* \"#utility.yul\":12203:12282   */\n      tag_509\n      tag_303\n      jump\t// in\n    tag_509:\n        /* \"#utility.yul\":12167:12284   */\n    tag_508:\n        /* \"#utility.yul\":12308:12397   */\n      tag_510\n        /* \"#utility.yul\":12389:12396   */\n      dup5\n        /* \"#utility.yul\":12380:12386   */\n      dup3\n        /* \"#utility.yul\":12369:12378   */\n      dup6\n        /* \"#utility.yul\":12365:12387   */\n      add\n        /* \"#utility.yul\":12308:12397   */\n      tag_342\n      jump\t// in\n    tag_510:\n        /* \"#utility.yul\":12298:12397   */\n      swap2\n      pop\n        /* \"#utility.yul\":12101:12407   */\n      pop\n        /* \"#utility.yul\":11860:12414   */\n      swap3\n      swap2\n      pop\n      pop\n      jump\t// out\n        /* \"#utility.yul\":12420:12530   */\n    tag_343:\n        /* \"#utility.yul\":12471:12478   */\n      0x00\n        /* \"#utility.yul\":12500:12524   */\n      tag_512\n        /* \"#utility.yul\":12518:12523   */\n      dup3\n        /* \"#utility.yul\":12500:12524   */\n      tag_305\n      jump\t// in\n    tag_512:\n        /* \"#utility.yul\":12489:12524   */\n      swap1\n      pop\n        /* \"#utility.yul\":12420:12530   */\n      swap2\n      swap1\n      pop\n      jump\t// out\n        /* \"#utility.yul\":12536:12686   */\n    tag_344:\n        /* \"#utility.yul\":12623:12661   */\n      tag_514\n        /* \"#utility.yul\":12655:12660   */\n      dup2\n        /* \"#utility.yul\":12623:12661   */\n      tag_343\n      jump\t// in\n    tag_514:\n        /* \"#utility.yul\":12616:12621   */\n      dup2\n        /* \"#utility.yul\":12613:12662   */\n      eq\n        /* \"#utility.yul\":12603:12680   */\n      tag_515\n      jumpi\n        /* \"#utility.yul\":12676:12677   */\n      0x00\n        /* \"#utility.yul\":12673:12674   */\n      dup1\n        /* \"#utility.yul\":12666:12678   */\n      revert\n        /* \"#utility.yul\":12603:12680   */\n    tag_515:\n        /* \"#utility.yul\":12536:12686   */\n      pop\n      jump\t// out\n        /* \"#utility.yul\":12692:12863   */\n    tag_345:\n        /* \"#utility.yul\":12763:12768   */\n      0x00\n        /* \"#utility.yul\":12794:12800   */\n      dup2\n        /* \"#utility.yul\":12788:12801   */\n      mload\n        /* \"#utility.yul\":12779:12801   */\n      swap1\n      pop\n        /* \"#utility.yul\":12810:12857   */\n      tag_517\n        /* \"#utility.yul\":12851:12856   */\n      dup2\n        /* \"#utility.yul\":12810:12857   */\n      tag_344\n      jump\t// in\n    tag_517:\n        /* \"#utility.yul\":12692:12863   */\n      swap3\n      swap2\n      pop\n      pop\n      jump\t// out\n        /* \"#utility.yul\":12869:13248   */\n    tag_106:\n        /* \"#utility.yul\":12953:12959   */\n      0x00\n        /* \"#utility.yul\":13002:13004   */\n      0x20\n        /* \"#utility.yul\":12990:12999   */\n      dup3\n        /* \"#utility.yul\":12981:12988   */\n      dup5\n        /* \"#utility.yul\":12977:13000   */\n      sub\n        /* \"#utility.yul\":12973:13005   */\n      slt\n        /* \"#utility.yul\":12970:13089   */\n      iszero\n      tag_519\n      jumpi\n        /* \"#utility.yul\":13008:13087   */\n      tag_520\n      tag_302\n      jump\t// in\n    tag_520:\n        /* \"#utility.yul\":12970:13089   */\n    tag_519:\n        /* \"#utility.yul\":13128:13129   */\n      0x00\n        /* \"#utility.yul\":13153:13231   */\n      tag_521\n        /* \"#utility.yul\":13223:13230   */\n      dup5\n        /* \"#utility.yul\":13214:13220   */\n      dup3\n        /* \"#utility.yul\":13203:13212   */\n      dup6\n        /* \"#utility.yul\":13199:13221   */\n      add\n        /* \"#utility.yul\":13153:13231   */\n      tag_345\n      jump\t// in\n    tag_521:\n        /* \"#utility.yul\":13143:13231   */\n      swap2\n      pop\n        /* \"#utility.yul\":13099:13241   */\n      pop\n        /* \"#utility.yul\":12869:13248   */\n      swap3\n      swap2\n      pop\n      pop\n      jump\t// out\n        /* \"#utility.yul\":13254:13605   */\n    tag_120:\n        /* \"#utility.yul\":13324:13330   */\n      0x00\n        /* \"#utility.yul\":13373:13375   */\n      0x20\n        /* \"#utility.yul\":13361:13370   */\n      dup3\n        /* \"#utility.yul\":13352:13359   */\n      dup5\n        /* \"#utility.yul\":13348:13371   */\n      sub\n        /* \"#utility.yul\":13344:13376   */\n      slt\n        /* \"#utility.yul\":13341:13460   */\n      iszero\n      tag_523\n      jumpi\n        /* \"#utility.yul\":13379:13458   */\n      tag_524\n      tag_302\n      jump\t// in\n    tag_524:\n        /* \"#utility.yul\":13341:13460   */\n    tag_523:\n        /* \"#utility.yul\":13499:13500   */\n      0x00\n        /* \"#utility.yul\":13524:13588   */\n      tag_525\n        /* \"#utility.yul\":13580:13587   */\n      dup5\n        /* \"#utility.yul\":13571:13577   */\n      dup3\n        /* \"#utility.yul\":13560:13569   */\n      dup6\n        /* \"#utility.yul\":13556:13578   */\n      add\n        /* \"#utility.yul\":13524:13588   */\n      tag_340\n      jump\t// in\n    tag_525:\n        /* \"#utility.yul\":13514:13588   */\n      swap2\n      pop\n        /* \"#utility.yul\":13470:13598   */\n      pop\n        /* \"#utility.yul\":13254:13605   */\n      swap3\n      swap2\n      pop\n      pop\n      jump\t// out\n        /* \"#utility.yul\":13611:13728   */\n    tag_346:\n        /* \"#utility.yul\":13720:13721   */\n      0x00\n        /* \"#utility.yul\":13717:13718   */\n      dup1\n        /* \"#utility.yul\":13710:13722   */\n      revert\n        /* \"#utility.yul\":13857:13972   */\n    tag_348:\n        /* \"#utility.yul\":13913:13920   */\n      0x00\n        /* \"#utility.yul\":13942:13966   */\n      tag_529\n        /* \"#utility.yul\":13960:13965   */\n      dup3\n        /* \"#utility.yul\":13942:13966   */\n      tag_305\n      jump\t// in\n    tag_529:\n        /* \"#utility.yul\":13931:13966   */\n      swap1\n      pop\n        /* \"#utility.yul\":13857:13972   */\n      swap2\n      swap1\n      pop\n      jump\t// out\n        /* \"#utility.yul\":13978:14138   */\n    tag_349:\n        /* \"#utility.yul\":14070:14113   */\n      tag_531\n        /* \"#utility.yul\":14107:14112   */\n      dup2\n        /* \"#utility.yul\":14070:14113   */\n      tag_348\n      jump\t// in\n    tag_531:\n        /* \"#utility.yul\":14063:14068   */\n      dup2\n        /* \"#utility.yul\":14060:14114   */\n      eq\n        /* \"#utility.yul\":14050:14132   */\n      tag_532\n      jumpi\n        /* \"#utility.yul\":14128:14129   */\n      0x00\n        /* \"#utility.yul\":14125:14126   */\n      dup1\n        /* \"#utility.yul\":14118:14130   */\n      revert\n        /* \"#utility.yul\":14050:14132   */\n    tag_532:\n        /* \"#utility.yul\":13978:14138   */\n      pop\n      jump\t// out\n        /* \"#utility.yul\":14144:14325   */\n    tag_350:\n        /* \"#utility.yul\":14220:14225   */\n      0x00\n        /* \"#utility.yul\":14251:14257   */\n      dup2\n        /* \"#utility.yul\":14245:14258   */\n      mload\n        /* \"#utility.yul\":14236:14258   */\n      swap1\n      pop\n        /* \"#utility.yul\":14267:14319   */\n      tag_534\n        /* \"#utility.yul\":14313:14318   */\n      dup2\n        /* \"#utility.yul\":14267:14319   */\n      tag_349\n      jump\t// in\n    tag_534:\n        /* \"#utility.yul\":14144:14325   */\n      swap3\n      swap2\n      pop\n      pop\n      jump\t// out\n        /* \"#utility.yul\":14354:15745   */\n    tag_351:\n        /* \"#utility.yul\":14439:14444   */\n      0x00\n        /* \"#utility.yul\":14483:14487   */\n      0xc0\n        /* \"#utility.yul\":14471:14480   */\n      dup3\n        /* \"#utility.yul\":14466:14469   */\n      dup5\n        /* \"#utility.yul\":14462:14481   */\n      sub\n        /* \"#utility.yul\":14458:14488   */\n      slt\n        /* \"#utility.yul\":14455:14572   */\n      iszero\n      tag_536\n      jumpi\n        /* \"#utility.yul\":14491:14570   */\n      tag_537\n      tag_346\n      jump\t// in\n    tag_537:\n        /* \"#utility.yul\":14455:14572   */\n    tag_536:\n        /* \"#utility.yul\":14590:14611   */\n      tag_538\n        /* \"#utility.yul\":14606:14610   */\n      0xc0\n        /* \"#utility.yul\":14590:14611   */\n      tag_337\n      jump\t// in\n    tag_538:\n        /* \"#utility.yul\":14581:14611   */\n      swap1\n      pop\n        /* \"#utility.yul\":14673:14674   */\n      0x00\n        /* \"#utility.yul\":14713:14787   */\n      tag_539\n        /* \"#utility.yul\":14783:14786   */\n      dup5\n        /* \"#utility.yul\":14774:14780   */\n      dup3\n        /* \"#utility.yul\":14763:14772   */\n      dup6\n        /* \"#utility.yul\":14759:14781   */\n      add\n        /* \"#utility.yul\":14713:14787   */\n      tag_345\n      jump\t// in\n    tag_539:\n        /* \"#utility.yul\":14706:14710   */\n      0x00\n        /* \"#utility.yul\":14699:14704   */\n      dup4\n        /* \"#utility.yul\":14695:14711   */\n      add\n        /* \"#utility.yul\":14688:14788   */\n      mstore\n        /* \"#utility.yul\":14621:14799   */\n      pop\n        /* \"#utility.yul\":14864:14866   */\n      0x20\n        /* \"#utility.yul\":14905:14965   */\n      tag_540\n        /* \"#utility.yul\":14961:14964   */\n      dup5\n        /* \"#utility.yul\":14952:14958   */\n      dup3\n        /* \"#utility.yul\":14941:14950   */\n      dup6\n        /* \"#utility.yul\":14937:14959   */\n      add\n        /* \"#utility.yul\":14905:14965   */\n      tag_340\n      jump\t// in\n    tag_540:\n        /* \"#utility.yul\":14898:14902   */\n      0x20\n        /* \"#utility.yul\":14891:14896   */\n      dup4\n        /* \"#utility.yul\":14887:14903   */\n      add\n        /* \"#utility.yul\":14880:14966   */\n      mstore\n        /* \"#utility.yul\":14809:14977   */\n      pop\n        /* \"#utility.yul\":15047:15049   */\n      0x40\n        /* \"#utility.yul\":15088:15148   */\n      tag_541\n        /* \"#utility.yul\":15144:15147   */\n      dup5\n        /* \"#utility.yul\":15135:15141   */\n      dup3\n        /* \"#utility.yul\":15124:15133   */\n      dup6\n        /* \"#utility.yul\":15120:15142   */\n      add\n        /* \"#utility.yul\":15088:15148   */\n      tag_340\n      jump\t// in\n    tag_541:\n        /* \"#utility.yul\":15081:15085   */\n      0x40\n        /* \"#utility.yul\":15074:15079   */\n      dup4\n        /* \"#utility.yul\":15070:15086   */\n      add\n        /* \"#utility.yul\":15063:15149   */\n      mstore\n        /* \"#utility.yul\":14987:15160   */\n      pop\n        /* \"#utility.yul\":15229:15231   */\n      0x60\n        /* \"#utility.yul\":15270:15330   */\n      tag_542\n        /* \"#utility.yul\":15326:15329   */\n      dup5\n        /* \"#utility.yul\":15317:15323   */\n      dup3\n        /* \"#utility.yul\":15306:15315   */\n      dup6\n        /* \"#utility.yul\":15302:15324   */\n      add\n        /* \"#utility.yul\":15270:15330   */\n      tag_340\n      jump\t// in\n    tag_542:\n        /* \"#utility.yul\":15263:15267   */\n      0x60\n        /* \"#utility.yul\":15256:15261   */\n      dup4\n        /* \"#utility.yul\":15252:15268   */\n      add\n        /* \"#utility.yul\":15245:15331   */\n      mstore\n        /* \"#utility.yul\":15170:15342   */\n      pop\n        /* \"#utility.yul\":15411:15414   */\n      0x80\n        /* \"#utility.yul\":15453:15532   */\n      tag_543\n        /* \"#utility.yul\":15528:15531   */\n      dup5\n        /* \"#utility.yul\":15519:15525   */\n      dup3\n        /* \"#utility.yul\":15508:15517   */\n      dup6\n        /* \"#utility.yul\":15504:15526   */\n      add\n        /* \"#utility.yul\":15453:15532   */\n      tag_350\n      jump\t// in\n    tag_543:\n        /* \"#utility.yul\":15446:15450   */\n      0x80\n        /* \"#utility.yul\":15439:15444   */\n      dup4\n        /* \"#utility.yul\":15435:15451   */\n      add\n        /* \"#utility.yul\":15428:15533   */\n      mstore\n        /* \"#utility.yul\":15352:15544   */\n      pop\n        /* \"#utility.yul\":15610:15613   */\n      0xa0\n        /* \"#utility.yul\":15652:15726   */\n      tag_544\n        /* \"#utility.yul\":15722:15725   */\n      dup5\n        /* \"#utility.yul\":15713:15719   */\n      dup3\n        /* \"#utility.yul\":15702:15711   */\n      dup6\n        /* \"#utility.yul\":15698:15720   */\n      add\n        /* \"#utility.yul\":15652:15726   */\n      tag_345\n      jump\t// in\n    tag_544:\n        /* \"#utility.yul\":15645:15649   */\n      0xa0\n        /* \"#utility.yul\":15638:15643   */\n      dup4\n        /* \"#utility.yul\":15634:15650   */\n      add\n        /* \"#utility.yul\":15627:15727   */\n      mstore\n        /* \"#utility.yul\":15554:15738   */\n      pop\n        /* \"#utility.yul\":14354:15745   */\n      swap3\n      swap2\n      pop\n      pop\n      jump\t// out\n        /* \"#utility.yul\":15751:16153   */\n    tag_190:\n        /* \"#utility.yul\":15846:15852   */\n      0x00\n        /* \"#utility.yul\":15895:15898   */\n      0xc0\n        /* \"#utility.yul\":15883:15892   */\n      dup3\n        /* \"#utility.yul\":15874:15881   */\n      dup5\n        /* \"#utility.yul\":15870:15893   */\n      sub\n        /* \"#utility.yul\":15866:15899   */\n      slt\n        /* \"#utility.yul\":15863:15983   */\n      iszero\n      tag_546\n      jumpi\n        /* \"#utility.yul\":15902:15981   */\n      tag_547\n      tag_302\n      jump\t// in\n    tag_547:\n        /* \"#utility.yul\":15863:15983   */\n    tag_546:\n        /* \"#utility.yul\":16022:16023   */\n      0x00\n        /* \"#utility.yul\":16047:16136   */\n      tag_548\n        /* \"#utility.yul\":16128:16135   */\n      dup5\n        /* \"#utility.yul\":16119:16125   */\n      dup3\n        /* \"#utility.yul\":16108:16117   */\n      dup6\n        /* \"#utility.yul\":16104:16126   */\n      add\n        /* \"#utility.yul\":16047:16136   */\n      tag_351\n      jump\t// in\n    tag_548:\n        /* \"#utility.yul\":16037:16136   */\n      swap2\n      pop\n        /* \"#utility.yul\":15993:16146   */\n      pop\n        /* \"#utility.yul\":15751:16153   */\n      swap3\n      swap2\n      pop\n      pop\n      jump\t// out\n        /* \"#utility.yul\":16159:16328   */\n    tag_352:\n        /* \"#utility.yul\":16243:16254   */\n      0x00\n        /* \"#utility.yul\":16277:16283   */\n      dup3\n        /* \"#utility.yul\":16272:16275   */\n      dup3\n        /* \"#utility.yul\":16265:16284   */\n      mstore\n        /* \"#utility.yul\":16317:16321   */\n      0x20\n        /* \"#utility.yul\":16312:16315   */\n      dup3\n        /* \"#utility.yul\":16308:16322   */\n      add\n        /* \"#utility.yul\":16293:16322   */\n      swap1\n      pop\n        /* \"#utility.yul\":16159:16328   */\n      swap3\n      swap2\n      pop\n      pop\n      jump\t// out\n        /* \"#utility.yul\":16334:16516   */\n    tag_353:\n        /* \"#utility.yul\":16474:16508   */\n      0x4f776e61626c653a2063616c6c6572206973206e6f7420746865206f776e6572\n        /* \"#utility.yul\":16470:16471   */\n      0x00\n        /* \"#utility.yul\":16462:16468   */\n      dup3\n        /* \"#utility.yul\":16458:16472   */\n      add\n        /* \"#utility.yul\":16451:16509   */\n      mstore\n        /* \"#utility.yul\":16334:16516   */\n      pop\n      jump\t// out\n        /* \"#utility.yul\":16522:16888   */\n    tag_354:\n        /* \"#utility.yul\":16664:16667   */\n      0x00\n        /* \"#utility.yul\":16685:16752   */\n      tag_552\n        /* \"#utility.yul\":16749:16751   */\n      0x20\n        /* \"#utility.yul\":16744:16747   */\n      dup4\n        /* \"#utility.yul\":16685:16752   */\n      tag_352\n      jump\t// in\n    tag_552:\n        /* \"#utility.yul\":16678:16752   */\n      swap2\n      pop\n        /* \"#utility.yul\":16761:16854   */\n      tag_553\n        /* \"#utility.yul\":16850:16853   */\n      dup3\n        /* \"#utility.yul\":16761:16854   */\n      tag_353\n      jump\t// in\n    tag_553:\n        /* \"#utility.yul\":16879:16881   */\n      0x20\n        /* \"#utility.yul\":16874:16877   */\n      dup3\n        /* \"#utility.yul\":16870:16882   */\n      add\n        /* \"#utility.yul\":16863:16882   */\n      swap1\n      pop\n        /* \"#utility.yul\":16522:16888   */\n      swap2\n      swap1\n      pop\n      jump\t// out\n        /* \"#utility.yul\":16894:17313   */\n    tag_202:\n        /* \"#utility.yul\":17060:17064   */\n      0x00\n        /* \"#utility.yul\":17098:17100   */\n      0x20\n        /* \"#utility.yul\":17087:17096   */\n      dup3\n        /* \"#utility.yul\":17083:17101   */\n      add\n        /* \"#utility.yul\":17075:17101   */\n      swap1\n      pop\n        /* \"#utility.yul\":17147:17156   */\n      dup2\n        /* \"#utility.yul\":17141:17145   */\n      dup2\n        /* \"#utility.yul\":17137:17157   */\n      sub\n        /* \"#utility.yul\":17133:17134   */\n      0x00\n        /* \"#utility.yul\":17122:17131   */\n      dup4\n        /* \"#utility.yul\":17118:17135   */\n      add\n        /* \"#utility.yul\":17111:17158   */\n      mstore\n        /* \"#utility.yul\":17175:17306   */\n      tag_555\n        /* \"#utility.yul\":17301:17305   */\n      dup2\n        /* \"#utility.yul\":17175:17306   */\n      tag_354\n      jump\t// in\n    tag_555:\n        /* \"#utility.yul\":17167:17306   */\n      swap1\n      pop\n        /* \"#utility.yul\":16894:17313   */\n      swap2\n      swap1\n      pop\n      jump\t// out\n        /* \"#utility.yul\":17319:17499   */\n    tag_355:\n        /* \"#utility.yul\":17367:17444   */\n      0x4e487b7100000000000000000000000000000000000000000000000000000000\n        /* \"#utility.yul\":17364:17365   */\n      0x00\n        /* \"#utility.yul\":17357:17445   */\n      mstore\n        /* \"#utility.yul\":17464:17468   */\n      0x11\n        /* \"#utility.yul\":17461:17462   */\n      0x04\n        /* \"#utility.yul\":17454:17469   */\n      mstore\n        /* \"#utility.yul\":17488:17492   */\n      0x24\n        /* \"#utility.yul\":17485:17486   */\n      0x00\n        /* \"#utility.yul\":17478:17493   */\n      revert\n        /* \"#utility.yul\":17505:17853   */\n    tag_236:\n        /* \"#utility.yul\":17545:17552   */\n      0x00\n        /* \"#utility.yul\":17568:17588   */\n      tag_558\n        /* \"#utility.yul\":17586:17587   */\n      dup3\n        /* \"#utility.yul\":17568:17588   */\n      tag_308\n      jump\t// in\n    tag_558:\n        /* \"#utility.yul\":17563:17588   */\n      swap2\n      pop\n        /* \"#utility.yul\":17602:17622   */\n      tag_559\n        /* \"#utility.yul\":17620:17621   */\n      dup4\n        /* \"#utility.yul\":17602:17622   */\n      tag_308\n      jump\t// in\n    tag_559:\n        /* \"#utility.yul\":17597:17622   */\n      swap3\n      pop\n        /* \"#utility.yul\":17790:17791   */\n      dup2\n        /* \"#utility.yul\":17722:17788   */\n      0xffffffffffffffffffffffffffffffffffffffffffffffffffffffffffffffff\n        /* \"#utility.yul\":17718:17792   */\n      div\n        /* \"#utility.yul\":17715:17716   */\n      dup4\n        /* \"#utility.yul\":17712:17793   */\n      gt\n        /* \"#utility.yul\":17707:17708   */\n      dup3\n        /* \"#utility.yul\":17700:17709   */\n      iszero\n        /* \"#utility.yul\":17693:17710   */\n      iszero\n        /* \"#utility.yul\":17689:17794   */\n      and\n        /* \"#utility.yul\":17686:17817   */\n      iszero\n      tag_560\n      jumpi\n        /* \"#utility.yul\":17797:17815   */\n      tag_561\n      tag_355\n      jump\t// in\n    tag_561:\n        /* \"#utility.yul\":17686:17817   */\n    tag_560:\n        /* \"#utility.yul\":17845:17846   */\n      dup3\n        /* \"#utility.yul\":17842:17843   */\n      dup3\n        /* \"#utility.yul\":17838:17847   */\n      mul\n        /* \"#utility.yul\":17827:17847   */\n      swap1\n      pop\n        /* \"#utility.yul\":17505:17853   */\n      swap3\n      swap2\n      pop\n      pop\n      jump\t// out\n        /* \"#utility.yul\":17859:18002   */\n    tag_356:\n        /* \"#utility.yul\":17916:17921   */\n      0x00\n        /* \"#utility.yul\":17947:17953   */\n      dup2\n        /* \"#utility.yul\":17941:17954   */\n      mload\n        /* \"#utility.yul\":17932:17954   */\n      swap1\n      pop\n        /* \"#utility.yul\":17963:17996   */\n      tag_563\n        /* \"#utility.yul\":17990:17995   */\n      dup2\n        /* \"#utility.yul\":17963:17996   */\n      tag_306\n      jump\t// in\n    tag_563:\n        /* \"#utility.yul\":17859:18002   */\n      swap3\n      swap2\n      pop\n      pop\n      jump\t// out\n        /* \"#utility.yul\":18008:18359   */\n    tag_242:\n        /* \"#utility.yul\":18078:18084   */\n      0x00\n        /* \"#utility.yul\":18127:18129   */\n      0x20\n        /* \"#utility.yul\":18115:18124   */\n      dup3\n        /* \"#utility.yul\":18106:18113   */\n      dup5\n        /* \"#utility.yul\":18102:18125   */\n      sub\n        /* \"#utility.yul\":18098:18130   */\n      slt\n        /* \"#utility.yul\":18095:18214   */\n      iszero\n      tag_565\n      jumpi\n        /* \"#utility.yul\":18133:18212   */\n      tag_566\n      tag_302\n      jump\t// in\n    tag_566:\n        /* \"#utility.yul\":18095:18214   */\n    tag_565:\n        /* \"#utility.yul\":18253:18254   */\n      0x00\n        /* \"#utility.yul\":18278:18342   */\n      tag_567\n        /* \"#utility.yul\":18334:18341   */\n      dup5\n        /* \"#utility.yul\":18325:18331   */\n      dup3\n        /* \"#utility.yul\":18314:18323   */\n      dup6\n        /* \"#utility.yul\":18310:18332   */\n      add\n        /* \"#utility.yul\":18278:18342   */\n      tag_356\n      jump\t// in\n    tag_567:\n        /* \"#utility.yul\":18268:18342   */\n      swap2\n      pop\n        /* \"#utility.yul\":18224:18352   */\n      pop\n        /* \"#utility.yul\":18008:18359   */\n      swap3\n      swap2\n      pop\n      pop\n      jump\t// out\n        /* \"#utility.yul\":18365:18590   */\n    tag_357:\n        /* \"#utility.yul\":18505:18539   */\n      0x4f776e61626c653a206e6577206f776e657220697320746865207a65726f2061\n        /* \"#utility.yul\":18501:18502   */\n      0x00\n        /* \"#utility.yul\":18493:18499   */\n      dup3\n        /* \"#utility.yul\":18489:18503   */\n      add\n        /* \"#utility.yul\":18482:18540   */\n      mstore\n        /* \"#utility.yul\":18574:18582   */\n      0x6464726573730000000000000000000000000000000000000000000000000000\n        /* \"#utility.yul\":18569:18571   */\n      0x20\n        /* \"#utility.yul\":18561:18567   */\n      dup3\n        /* \"#utility.yul\":18557:18572   */\n      add\n        /* \"#utility.yul\":18550:18583   */\n      mstore\n        /* \"#utility.yul\":18365:18590   */\n      pop\n      jump\t// out\n        /* \"#utility.yul\":18596:18962   */\n    tag_358:\n        /* \"#utility.yul\":18738:18741   */\n      0x00\n        /* \"#utility.yul\":18759:18826   */\n      tag_570\n        /* \"#utility.yul\":18823:18825   */\n      0x26\n        /* \"#utility.yul\":18818:18821   */\n      dup4\n        /* \"#utility.yul\":18759:18826   */\n      tag_352\n      jump\t// in\n    tag_570:\n        /* \"#utility.yul\":18752:18826   */\n      swap2\n      pop\n        /* \"#utility.yul\":18835:18928   */\n      tag_571\n        /* \"#utility.yul\":18924:18927   */\n      dup3\n        /* \"#utility.yul\":18835:18928   */\n      tag_357\n      jump\t// in\n    tag_571:\n        /* \"#utility.yul\":18953:18955   */\n      0x40\n        /* \"#utility.yul\":18948:18951   */\n      dup3\n        /* \"#utility.yul\":18944:18956   */\n      add\n        /* \"#utility.yul\":18937:18956   */\n      swap1\n      pop\n        /* \"#utility.yul\":18596:18962   */\n      swap2\n      swap1\n      pop\n      jump\t// out\n        /* \"#utility.yul\":18968:19387   */\n    tag_275:\n        /* \"#utility.yul\":19134:19138   */\n      0x00\n        /* \"#utility.yul\":19172:19174   */\n      0x20\n        /* \"#utility.yul\":19161:19170   */\n      dup3\n        /* \"#utility.yul\":19157:19175   */\n      add\n        /* \"#utility.yul\":19149:19175   */\n      swap1\n      pop\n        /* \"#utility.yul\":19221:19230   */\n      dup2\n        /* \"#utility.yul\":19215:19219   */\n      dup2\n        /* \"#utility.yul\":19211:19231   */\n      sub\n        /* \"#utility.yul\":19207:19208   */\n      0x00\n        /* \"#utility.yul\":19196:19205   */\n      dup4\n        /* \"#utility.yul\":19192:19209   */\n      add\n        /* \"#utility.yul\":19185:19232   */\n      mstore\n        /* \"#utility.yul\":19249:19380   */\n      tag_573\n        /* \"#utility.yul\":19375:19379   */\n      dup2\n        /* \"#utility.yul\":19249:19380   */\n      tag_358\n      jump\t// in\n    tag_573:\n        /* \"#utility.yul\":19241:19380   */\n      swap1\n      pop\n        /* \"#utility.yul\":18968:19387   */\n      swap2\n      swap1\n      pop\n      jump\t// out\n        /* \"#utility.yul\":19393:19573   */\n    tag_359:\n        /* \"#utility.yul\":19441:19518   */\n      0x4e487b7100000000000000000000000000000000000000000000000000000000\n        /* \"#utility.yul\":19438:19439   */\n      0x00\n        /* \"#utility.yul\":19431:19519   */\n      mstore\n        /* \"#utility.yul\":19538:19542   */\n      0x12\n        /* \"#utility.yul\":19535:19536   */\n      0x04\n        /* \"#utility.yul\":19528:19543   */\n      mstore\n        /* \"#utility.yul\":19562:19566   */\n      0x24\n        /* \"#utility.yul\":19559:19560   */\n      0x00\n        /* \"#utility.yul\":19552:19567   */\n      revert\n        /* \"#utility.yul\":19579:19764   */\n    tag_281:\n        /* \"#utility.yul\":19619:19620   */\n      0x00\n        /* \"#utility.yul\":19636:19656   */\n      tag_576\n        /* \"#utility.yul\":19654:19655   */\n      dup3\n        /* \"#utility.yul\":19636:19656   */\n      tag_308\n      jump\t// in\n    tag_576:\n        /* \"#utility.yul\":19631:19656   */\n      swap2\n      pop\n        /* \"#utility.yul\":19670:19690   */\n      tag_577\n        /* \"#utility.yul\":19688:19689   */\n      dup4\n        /* \"#utility.yul\":19670:19690   */\n      tag_308\n      jump\t// in\n    tag_577:\n        /* \"#utility.yul\":19665:19690   */\n      swap3\n      pop\n        /* \"#utility.yul\":19709:19710   */\n      dup3\n        /* \"#utility.yul\":19699:19734   */\n      tag_578\n      jumpi\n        /* \"#utility.yul\":19714:19732   */\n      tag_579\n      tag_359\n      jump\t// in\n    tag_579:\n        /* \"#utility.yul\":19699:19734   */\n    tag_578:\n        /* \"#utility.yul\":19756:19757   */\n      dup3\n        /* \"#utility.yul\":19753:19754   */\n      dup3\n        /* \"#utility.yul\":19749:19758   */\n      div\n        /* \"#utility.yul\":19744:19758   */\n      swap1\n      pop\n        /* \"#utility.yul\":19579:19764   */\n      swap3\n      swap2\n      pop\n      pop\n      jump\t// out\n        /* \"#utility.yul\":19770:19990   */\n    tag_360:\n        /* \"#utility.yul\":19910:19944   */\n      0x536166654d6174683a206d756c7469706c69636174696f6e206f766572666c6f\n        /* \"#utility.yul\":19906:19907   */\n      0x00\n        /* \"#utility.yul\":19898:19904   */\n      dup3\n        /* \"#utility.yul\":19894:19908   */\n      add\n        /* \"#utility.yul\":19887:19945   */\n      mstore\n        /* \"#utility.yul\":19979:19982   */\n      0x7700000000000000000000000000000000000000000000000000000000000000\n        /* \"#utility.yul\":19974:19976   */\n      0x20\n        /* \"#utility.yul\":19966:19972   */\n      dup3\n        /* \"#utility.yul\":19962:19977   */\n      add\n        /* \"#utility.yul\":19955:19983   */\n      mstore\n        /* \"#utility.yul\":19770:19990   */\n      pop\n      jump\t// out\n        /* \"#utility.yul\":19996:20362   */\n    tag_361:\n        /* \"#utility.yul\":20138:20141   */\n      0x00\n        /* \"#utility.yul\":20159:20226   */\n      tag_582\n        /* \"#utility.yul\":20223:20225   */\n      0x21\n        /* \"#utility.yul\":20218:20221   */\n      dup4\n        /* \"#utility.yul\":20159:20226   */\n      tag_352\n      jump\t// in\n    tag_582:\n        /* \"#utility.yul\":20152:20226   */\n      swap2\n      pop\n        /* \"#utility.yul\":20235:20328   */\n      tag_583\n        /* \"#utility.yul\":20324:20327   */\n      dup3\n        /* \"#utility.yul\":20235:20328   */\n      tag_360\n      jump\t// in\n    tag_583:\n        /* \"#utility.yul\":20353:20355   */\n      0x40\n        /* \"#utility.yul\":20348:20351   */\n      dup3\n        /* \"#utility.yul\":20344:20356   */\n      add\n        /* \"#utility.yul\":20337:20356   */\n      swap1\n      pop\n        /* \"#utility.yul\":19996:20362   */\n      swap2\n      swap1\n      pop\n      jump\t// out\n        /* \"#utility.yul\":20368:20787   */\n    tag_284:\n        /* \"#utility.yul\":20534:20538   */\n      0x00\n        /* \"#utility.yul\":20572:20574   */\n      0x20\n        /* \"#utility.yul\":20561:20570   */\n      dup3\n        /* \"#utility.yul\":20557:20575   */\n      add\n        /* \"#utility.yul\":20549:20575   */\n      swap1\n      pop\n        /* \"#utility.yul\":20621:20630   */\n      dup2\n        /* \"#utility.yul\":20615:20619   */\n      dup2\n        /* \"#utility.yul\":20611:20631   */\n      sub\n        /* \"#utility.yul\":20607:20608   */\n      0x00\n        /* \"#utility.yul\":20596:20605   */\n      dup4\n        /* \"#utility.yul\":20592:20609   */\n      add\n        /* \"#utility.yul\":20585:20632   */\n      mstore\n        /* \"#utility.yul\":20649:20780   */\n      tag_585\n        /* \"#utility.yul\":20775:20779   */\n      dup2\n        /* \"#utility.yul\":20649:20780   */\n      tag_361\n      jump\t// in\n    tag_585:\n        /* \"#utility.yul\":20641:20780   */\n      swap1\n      pop\n        /* \"#utility.yul\":20368:20787   */\n      swap2\n      swap1\n      pop\n      jump\t// out\n        /* \"#utility.yul\":20793:21098   */\n    tag_287:\n        /* \"#utility.yul\":20833:20836   */\n      0x00\n        /* \"#utility.yul\":20852:20872   */\n      tag_587\n        /* \"#utility.yul\":20870:20871   */\n      dup3\n        /* \"#utility.yul\":20852:20872   */\n      tag_308\n      jump\t// in\n    tag_587:\n        /* \"#utility.yul\":20847:20872   */\n      swap2\n      pop\n        /* \"#utility.yul\":20886:20906   */\n      tag_588\n        /* \"#utility.yul\":20904:20905   */\n      dup4\n        /* \"#utility.yul\":20886:20906   */\n      tag_308\n      jump\t// in\n    tag_588:\n        /* \"#utility.yul\":20881:20906   */\n      swap3\n      pop\n        /* \"#utility.yul\":21040:21041   */\n      dup3\n        /* \"#utility.yul\":20972:21038   */\n      0xffffffffffffffffffffffffffffffffffffffffffffffffffffffffffffffff\n        /* \"#utility.yul\":20968:21042   */\n      sub\n        /* \"#utility.yul\":20965:20966   */\n      dup3\n        /* \"#utility.yul\":20962:21043   */\n      gt\n        /* \"#utility.yul\":20959:21066   */\n      iszero\n      tag_589\n      jumpi\n        /* \"#utility.yul\":21046:21064   */\n      tag_590\n      tag_355\n      jump\t// in\n    tag_590:\n        /* \"#utility.yul\":20959:21066   */\n    tag_589:\n        /* \"#utility.yul\":21090:21091   */\n      dup3\n        /* \"#utility.yul\":21087:21088   */\n      dup3\n        /* \"#utility.yul\":21083:21092   */\n      add\n        /* \"#utility.yul\":21076:21092   */\n      swap1\n      pop\n        /* \"#utility.yul\":20793:21098   */\n      swap3\n      swap2\n      pop\n      pop\n      jump\t// out\n        /* \"#utility.yul\":21104:21281   */\n    tag_362:\n        /* \"#utility.yul\":21244:21273   */\n      0x536166654d6174683a206164646974696f6e206f766572666c6f770000000000\n        /* \"#utility.yul\":21240:21241   */\n      0x00\n        /* \"#utility.yul\":21232:21238   */\n      dup3\n        /* \"#utility.yul\":21228:21242   */\n      add\n        /* \"#utility.yul\":21221:21274   */\n      mstore\n        /* \"#utility.yul\":21104:21281   */\n      pop\n      jump\t// out\n        /* \"#utility.yul\":21287:21653   */\n    tag_363:\n        /* \"#utility.yul\":21429:21432   */\n      0x00\n        /* \"#utility.yul\":21450:21517   */\n      tag_593\n        /* \"#utility.yul\":21514:21516   */\n      0x1b\n        /* \"#utility.yul\":21509:21512   */\n      dup4\n        /* \"#utility.yul\":21450:21517   */\n      tag_352\n      jump\t// in\n    tag_593:\n        /* \"#utility.yul\":21443:21517   */\n      swap2\n      pop\n        /* \"#utility.yul\":21526:21619   */\n      tag_594\n        /* \"#utility.yul\":21615:21618   */\n      dup3\n        /* \"#utility.yul\":21526:21619   */\n      tag_362\n      jump\t// in\n    tag_594:\n        /* \"#utility.yul\":21644:21646   */\n      0x20\n        /* \"#utility.yul\":21639:21642   */\n      dup3\n        /* \"#utility.yul\":21635:21647   */\n      add\n        /* \"#utility.yul\":21628:21647   */\n      swap1\n      pop\n        /* \"#utility.yul\":21287:21653   */\n      swap2\n      swap1\n      pop\n      jump\t// out\n        /* \"#utility.yul\":21659:22078   */\n    tag_290:\n        /* \"#utility.yul\":21825:21829   */\n      0x00\n        /* \"#utility.yul\":21863:21865   */\n      0x20\n        /* \"#utility.yul\":21852:21861   */\n      dup3\n        /* \"#utility.yul\":21848:21866   */\n      add\n        /* \"#utility.yul\":21840:21866   */\n      swap1\n      pop\n        /* \"#utility.yul\":21912:21921   */\n      dup2\n        /* \"#utility.yul\":21906:21910   */\n      dup2\n        /* \"#utility.yul\":21902:21922   */\n      sub\n        /* \"#utility.yul\":21898:21899   */\n      0x00\n        /* \"#utility.yul\":21887:21896   */\n      dup4\n        /* \"#utility.yul\":21883:21900   */\n      add\n        /* \"#utility.yul\":21876:21923   */\n      mstore\n        /* \"#utility.yul\":21940:22071   */\n      tag_596\n        /* \"#utility.yul\":22066:22070   */\n      dup2\n        /* \"#utility.yul\":21940:22071   */\n      tag_363\n      jump\t// in\n    tag_596:\n        /* \"#utility.yul\":21932:22071   */\n      swap1\n      pop\n        /* \"#utility.yul\":21659:22078   */\n      swap2\n      swap1\n      pop\n      jump\t// out\n        /* \"#utility.yul\":22084:22183   */\n    tag_364:\n        /* \"#utility.yul\":22136:22142   */\n      0x00\n        /* \"#utility.yul\":22170:22175   */\n      dup2\n        /* \"#utility.yul\":22164:22176   */\n      mload\n        /* \"#utility.yul\":22154:22176   */\n      swap1\n      pop\n        /* \"#utility.yul\":22084:22183   */\n      swap2\n      swap1\n      pop\n      jump\t// out\n        /* \"#utility.yul\":22189:22496   */\n    tag_365:\n        /* \"#utility.yul\":22257:22258   */\n      0x00\n        /* \"#utility.yul\":22267:22380   */\n    tag_599:\n        /* \"#utility.yul\":22281:22287   */\n      dup4\n        /* \"#utility.yul\":22278:22279   */\n      dup2\n        /* \"#utility.yul\":22275:22288   */\n      lt\n        /* \"#utility.yul\":22267:22380   */\n      iszero\n      tag_601\n      jumpi\n        /* \"#utility.yul\":22366:22367   */\n      dup1\n        /* \"#utility.yul\":22361:22364   */\n      dup3\n        /* \"#utility.yul\":22357:22368   */\n      add\n        /* \"#utility.yul\":22351:22369   */\n      mload\n        /* \"#utility.yul\":22347:22348   */\n      dup2\n        /* \"#utility.yul\":22342:22345   */\n      dup5\n        /* \"#utility.yul\":22338:22349   */\n      add\n        /* \"#utility.yul\":22331:22370   */\n      mstore\n        /* \"#utility.yul\":22303:22305   */\n      0x20\n        /* \"#utility.yul\":22300:22301   */\n      dup2\n        /* \"#utility.yul\":22296:22306   */\n      add\n        /* \"#utility.yul\":22291:22306   */\n      swap1\n      pop\n        /* \"#utility.yul\":22267:22380   */\n      jump(tag_599)\n    tag_601:\n        /* \"#utility.yul\":22398:22404   */\n      dup4\n        /* \"#utility.yul\":22395:22396   */\n      dup2\n        /* \"#utility.yul\":22392:22405   */\n      gt\n        /* \"#utility.yul\":22389:22490   */\n      iszero\n      tag_602\n      jumpi\n        /* \"#utility.yul\":22478:22479   */\n      0x00\n        /* \"#utility.yul\":22469:22475   */\n      dup5\n        /* \"#utility.yul\":22464:22467   */\n      dup5\n        /* \"#utility.yul\":22460:22476   */\n      add\n        /* \"#utility.yul\":22453:22480   */\n      mstore\n        /* \"#utility.yul\":22389:22490   */\n    tag_602:\n        /* \"#utility.yul\":22238:22496   */\n      pop\n        /* \"#utility.yul\":22189:22496   */\n      pop\n      pop\n      pop\n      jump\t// out\n        /* \"#utility.yul\":22502:22866   */\n    tag_366:\n        /* \"#utility.yul\":22590:22593   */\n      0x00\n        /* \"#utility.yul\":22618:22657   */\n      tag_604\n        /* \"#utility.yul\":22651:22656   */\n      dup3\n        /* \"#utility.yul\":22618:22657   */\n      tag_364\n      jump\t// in\n    tag_604:\n        /* \"#utility.yul\":22673:22744   */\n      tag_605\n        /* \"#utility.yul\":22737:22743   */\n      dup2\n        /* \"#utility.yul\":22732:22735   */\n      dup6\n        /* \"#utility.yul\":22673:22744   */\n      tag_352\n      jump\t// in\n    tag_605:\n        /* \"#utility.yul\":22666:22744   */\n      swap4\n      pop\n        /* \"#utility.yul\":22753:22805   */\n      tag_606\n        /* \"#utility.yul\":22798:22804   */\n      dup2\n        /* \"#utility.yul\":22793:22796   */\n      dup6\n        /* \"#utility.yul\":22786:22790   */\n      0x20\n        /* \"#utility.yul\":22779:22784   */\n      dup7\n        /* \"#utility.yul\":22775:22791   */\n      add\n        /* \"#utility.yul\":22753:22805   */\n      tag_365\n      jump\t// in\n    tag_606:\n        /* \"#utility.yul\":22830:22859   */\n      tag_607\n        /* \"#utility.yul\":22852:22858   */\n      dup2\n        /* \"#utility.yul\":22830:22859   */\n      tag_335\n      jump\t// in\n    tag_607:\n        /* \"#utility.yul\":22825:22828   */\n      dup5\n        /* \"#utility.yul\":22821:22860   */\n      add\n        /* \"#utility.yul\":22814:22860   */\n      swap2\n      pop\n        /* \"#utility.yul\":22594:22866   */\n      pop\n        /* \"#utility.yul\":22502:22866   */\n      swap3\n      swap2\n      pop\n      pop\n      jump\t// out\n        /* \"#utility.yul\":22872:23185   */\n    tag_299:\n        /* \"#utility.yul\":22985:22989   */\n      0x00\n        /* \"#utility.yul\":23023:23025   */\n      0x20\n        /* \"#utility.yul\":23012:23021   */\n      dup3\n        /* \"#utility.yul\":23008:23026   */\n      add\n        /* \"#utility.yul\":23000:23026   */\n      swap1\n      pop\n        /* \"#utility.yul\":23072:23081   */\n      dup2\n        /* \"#utility.yul\":23066:23070   */\n      dup2\n        /* \"#utility.yul\":23062:23082   */\n      sub\n        /* \"#utility.yul\":23058:23059   */\n      0x00\n        /* \"#utility.yul\":23047:23056   */\n      dup4\n        /* \"#utility.yul\":23043:23060   */\n      add\n        /* \"#utility.yul\":23036:23083   */\n      mstore\n        /* \"#utility.yul\":23100:23178   */\n      tag_609\n        /* \"#utility.yul\":23173:23177   */\n      dup2\n        /* \"#utility.yul\":23164:23170   */\n      dup5\n        /* \"#utility.yul\":23100:23178   */\n      tag_366\n      jump\t// in\n    tag_609:\n        /* \"#utility.yul\":23092:23178   */\n      swap1\n      pop\n        /* \"#utility.yul\":22872:23185   */\n      swap3\n      swap2\n      pop\n      pop\n      jump\t// out\n\n    auxdata: 0xa26469706673582212202ea8db6d44899636b489d6218dee2faefe4e5f7f42d897d138f562b60aa20ef164736f6c634300080f0033\n}\n",
				"bytecode": {
					"linkReferences": {},
					"object": "608060405273ae13d989dac2f0debff460ac112a837c89baa7cd600160006101000a81548173ffffffffffffffffffffffffffffffffffffffff021916908373ffffffffffffffffffffffffffffffffffffffff1602179055507378867bbeef44f2326bf8ddd1941a4439382ef2a7600260006101000a81548173ffffffffffffffffffffffffffffffffffffffff021916908373ffffffffffffffffffffffffffffffffffffffff160217905550670de0b6b3a764000060035562a06680600555348015620000ce57600080fd5b5060405162002a1838038062002a188339818101604052810190620000f49190620002a6565b62000114620001086200015c60201b60201c565b6200016460201b60201c565b80600460006101000a81548173ffffffffffffffffffffffffffffffffffffffff021916908373ffffffffffffffffffffffffffffffffffffffff16021790555050620002d8565b600033905090565b60008060009054906101000a900473ffffffffffffffffffffffffffffffffffffffff169050816000806101000a81548173ffffffffffffffffffffffffffffffffffffffff021916908373ffffffffffffffffffffffffffffffffffffffff1602179055508173ffffffffffffffffffffffffffffffffffffffff168173ffffffffffffffffffffffffffffffffffffffff167f8be0079c531659141344cd1fd0a4f28419497f9722a3daafe3b4186f6b6457e060405160405180910390a35050565b600080fd5b600073ffffffffffffffffffffffffffffffffffffffff82169050919050565b60006200025a826200022d565b9050919050565b60006200026e826200024d565b9050919050565b620002808162000261565b81146200028c57600080fd5b50565b600081519050620002a08162000275565b92915050565b600060208284031215620002bf57620002be62000228565b5b6000620002cf848285016200028f565b91505092915050565b61273080620002e86000396000f3fe608060405234801561001057600080fd5b50600436106100f55760003560e01c806388eee25311610097578063d979fb5f11610066578063d979fb5f14610288578063dba88007146102b8578063dbb79348146102e8578063f2fde38b14610318576100f5565b806388eee253146102005780638da5cb5b146102305780638dd950021461024e578063c0d786551461026c576100f5565b80633b979d45116100d35780633b979d4514610178578063484f4ea9146101a85780634abddbe3146101c6578063715018a6146101f6576100f5565b806319047f8a146100fa578063215cc9891461012a5780633268cc561461015a575b600080fd5b610114600480360381019061010f9190611b3e565b610334565b6040516101219190611b84565b60405180910390f35b610144600480360381019061013f9190611bdd565b61057c565b6040516101519190611b84565b60405180910390f35b610162610d77565b60405161016f9190611c69565b60405180910390f35b610192600480360381019061018d9190611b3e565b610d9d565b60405161019f9190611b84565b60405180910390f35b6101b0610f74565b6040516101bd9190611c93565b60405180910390f35b6101e060048036038101906101db9190611d18565b610f9a565b6040516101ed9190611b84565b60405180910390f35b6101fe6110c1565b005b61021a60048036038101906102159190611d18565b611149565b6040516102279190611b84565b60405180910390f35b610238611210565b6040516102459190611c93565b60405180910390f35b610256611239565b6040516102639190611c93565b60405180910390f35b61028660048036038101906102819190611d96565b61125f565b005b6102a2600480360381019061029d9190611dc3565b61131f565b6040516102af9190611b84565b60405180910390f35b6102d260048036038101906102cd9190611e2a565b61145e565b6040516102df9190611b84565b60405180910390f35b61030260048036038101906102fd9190611dc3565b6114e3565b60405161030f9190611b84565b60405180910390f35b610332600480360381019061032d9190611b3e565b611784565b005b600080600367ffffffffffffffff81111561035257610351611e57565b5b6040519080825280602002602001820160405280156103805781602001602082028036833780820191505090505b509050828160008151811061039857610397611e86565b5b602002602001019073ffffffffffffffffffffffffffffffffffffffff16908173ffffffffffffffffffffffffffffffffffffffff1681525050600160009054906101000a900473ffffffffffffffffffffffffffffffffffffffff168160018151811061040957610408611e86565b5b602002602001019073ffffffffffffffffffffffffffffffffffffffff16908173ffffffffffffffffffffffffffffffffffffffff1681525050600260009054906101000a900473ffffffffffffffffffffffffffffffffffffffff168160028151811061047a57610479611e86565b5b602002602001019073ffffffffffffffffffffffffffffffffffffffff16908173ffffffffffffffffffffffffffffffffffffffff1681525050600460009054906101000a900473ffffffffffffffffffffffffffffffffffffffff1673ffffffffffffffffffffffffffffffffffffffff1663d06ca61f600354836040518363ffffffff1660e01b8152600401610513929190611f73565b600060405180830381865afa158015610530573d6000803e3d6000fd5b505050506040513d6000823e3d601f19601f8201168201806040525081019061055991906120e2565b60028151811061056c5761056b611e86565b5b6020026020010151915050919050565b60008060008373ffffffffffffffffffffffffffffffffffffffff16630dfe16816040518163ffffffff1660e01b8152600401602060405180830381865afa1580156105cc573d6000803e3d6000fd5b505050506040513d601f19601f820116820180604052508101906105f09190612169565b73ffffffffffffffffffffffffffffffffffffffff16600160009054906101000a900473ffffffffffffffffffffffffffffffffffffffff1673ffffffffffffffffffffffffffffffffffffffff16036107bb576107b46106be8573ffffffffffffffffffffffffffffffffffffffff16630dfe16816040518163ffffffff1660e01b8152600401602060405180830381865afa158015610695573d6000803e3d6000fd5b505050506040513d601f19601f820116820180604052508101906106b99190612169565b610d9d565b8573ffffffffffffffffffffffffffffffffffffffff16630dfe16816040518163ffffffff1660e01b8152600401602060405180830381865afa158015610709573d6000803e3d6000fd5b505050506040513d601f19601f8201168201806040525081019061072d9190612169565b73ffffffffffffffffffffffffffffffffffffffff166370a08231876040518263ffffffff1660e01b81526004016107659190611c93565b602060405180830381865afa158015610782573d6000803e3d6000fd5b505050506040513d601f19601f820116820180604052508101906107a69190612196565b61187b90919063ffffffff16565b915061092e565b61092b6108358573ffffffffffffffffffffffffffffffffffffffff16630dfe16816040518163ffffffff1660e01b8152600401602060405180830381865afa15801561080c573d6000803e3d6000fd5b505050506040513d601f19601f820116820180604052508101906108309190612169565b610334565b8573ffffffffffffffffffffffffffffffffffffffff16630dfe16816040518163ffffffff1660e01b8152600401602060405180830381865afa158015610880573d6000803e3d6000fd5b505050506040513d601f19601f820116820180604052508101906108a49190612169565b73ffffffffffffffffffffffffffffffffffffffff166370a08231876040518263ffffffff1660e01b81526004016108dc9190611c93565b602060405180830381865afa1580156108f9573d6000803e3d6000fd5b505050506040513d601f19601f8201168201806040525081019061091d9190612196565b61187b90919063ffffffff16565b91505b8373ffffffffffffffffffffffffffffffffffffffff1663d21220a76040518163ffffffff1660e01b8152600401602060405180830381865afa158015610979573d6000803e3d6000fd5b505050506040513d601f19601f8201168201806040525081019061099d9190612169565b73ffffffffffffffffffffffffffffffffffffffff16600160009054906101000a900473ffffffffffffffffffffffffffffffffffffffff1673ffffffffffffffffffffffffffffffffffffffff1603610b6857610b61610a6b8573ffffffffffffffffffffffffffffffffffffffff1663d21220a76040518163ffffffff1660e01b8152600401602060405180830381865afa158015610a42573d6000803e3d6000fd5b505050506040513d601f19601f82011682018060405250810190610a669190612169565b610d9d565b8573ffffffffffffffffffffffffffffffffffffffff1663d21220a76040518163ffffffff1660e01b8152600401602060405180830381865afa158015610ab6573d6000803e3d6000fd5b505050506040513d601f19601f82011682018060405250810190610ada9190612169565b73ffffffffffffffffffffffffffffffffffffffff166370a08231876040518263ffffffff1660e01b8152600401610b129190611c93565b602060405180830381865afa158015610b2f573d6000803e3d6000fd5b505050506040513d601f19601f82011682018060405250810190610b539190612196565b61187b90919063ffffffff16565b9050610cdb565b610cd8610be28573ffffffffffffffffffffffffffffffffffffffff1663d21220a76040518163ffffffff1660e01b8152600401602060405180830381865afa158015610bb9573d6000803e3d6000fd5b505050506040513d601f19601f82011682018060405250810190610bdd9190612169565b610334565b8573ffffffffffffffffffffffffffffffffffffffff1663d21220a76040518163ffffffff1660e01b8152600401602060405180830381865afa158015610c2d573d6000803e3d6000fd5b505050506040513d601f19601f82011682018060405250810190610c519190612169565b73ffffffffffffffffffffffffffffffffffffffff166370a08231876040518263ffffffff1660e01b8152600401610c899190611c93565b602060405180830381865afa158015610ca6573d6000803e3d6000fd5b505050506040513d601f19601f82011682018060405250810190610cca9190612196565b61187b90919063ffffffff16565b90505b610d6e8473ffffffffffffffffffffffffffffffffffffffff166318160ddd6040518163ffffffff1660e01b8152600401602060405180830381865afa158015610d29573d6000803e3d6000fd5b505050506040513d601f19601f82011682018060405250810190610d4d9190612196565b610d6083856118f590919063ffffffff16565b61195390919063ffffffff16565b92505050919050565b600460009054906101000a900473ffffffffffffffffffffffffffffffffffffffff1681565b600080600267ffffffffffffffff811115610dbb57610dba611e57565b5b604051908082528060200260200182016040528015610de95781602001602082028036833780820191505090505b5090508281600081518110610e0157610e00611e86565b5b602002602001019073ffffffffffffffffffffffffffffffffffffffff16908173ffffffffffffffffffffffffffffffffffffffff1681525050600260009054906101000a900473ffffffffffffffffffffffffffffffffffffffff1681600181518110610e7257610e71611e86565b5b602002602001019073ffffffffffffffffffffffffffffffffffffffff16908173ffffffffffffffffffffffffffffffffffffffff1681525050600460009054906101000a900473ffffffffffffffffffffffffffffffffffffffff1673ffffffffffffffffffffffffffffffffffffffff1663d06ca61f600354836040518363ffffffff1660e01b8152600401610f0b929190611f73565b600060405180830381865afa158015610f28573d6000803e3d6000fd5b505050506040513d6000823e3d601f19601f82011682018060405250810190610f5191906120e2565b600181518110610f6457610f63611e86565b5b6020026020010151915050919050565b600260009054906101000a900473ffffffffffffffffffffffffffffffffffffffff1681565b6000808273ffffffffffffffffffffffffffffffffffffffff16631526fe27856040518263ffffffff1660e01b8152600401610fd69190611b84565b60c060405180830381865afa158015610ff3573d6000803e3d6000fd5b505050506040513d601f19601f8201168201806040525081019061101791906122a6565b905060006110b48473ffffffffffffffffffffffffffffffffffffffff166317caf6f16040518163ffffffff1660e01b8152600401602060405180830381865afa158015611069573d6000803e3d6000fd5b505050506040513d601f19601f8201168201806040525081019061108d9190612196565b6110a6600354856020015161187b90919063ffffffff16565b61195390919063ffffffff16565b9050809250505092915050565b6110c961199d565b73ffffffffffffffffffffffffffffffffffffffff166110e7611210565b73ffffffffffffffffffffffffffffffffffffffff161461113d576040517f08c379a000000000000000000000000000000000000000000000000000000000815260040161113490612330565b60405180910390fd5b61114760006119a5565b565b6000806111cf8373ffffffffffffffffffffffffffffffffffffffff1663a1eef8216040518163ffffffff1660e01b8152600401602060405180830381865afa15801561119a573d6000803e3d6000fd5b505050506040513d601f19601f820116820180604052508101906111be9190612196565b60055461187b90919063ffffffff16565b905060006111ef6111e08686610f9a565b8361187b90919063ffffffff16565b90506112066003548261195390919063ffffffff16565b9250505092915050565b60008060009054906101000a900473ffffffffffffffffffffffffffffffffffffffff16905090565b600160009054906101000a900473ffffffffffffffffffffffffffffffffffffffff1681565b61126761199d565b73ffffffffffffffffffffffffffffffffffffffff16611285611210565b73ffffffffffffffffffffffffffffffffffffffff16146112db576040517f08c379a00000000000000000000000000000000000000000000000000000000081526004016112d290612330565b60405180910390fd5b80600460006101000a81548173ffffffffffffffffffffffffffffffffffffffff021916908373ffffffffffffffffffffffffffffffffffffffff16021790555050565b6000808273ffffffffffffffffffffffffffffffffffffffff16636a6d964e876040518263ffffffff1660e01b815260040161135b9190611b84565b602060405180830381865afa158015611378573d6000803e3d6000fd5b505050506040513d601f19601f8201168201806040525081019061139c9190612196565b905060008085036113b7576113b08661057c565b9050611432565b60018503611431578573ffffffffffffffffffffffffffffffffffffffff16600160009054906101000a900473ffffffffffffffffffffffffffffffffffffffff1673ffffffffffffffffffffffffffffffffffffffff16036114245761141d86610d9d565b9050611430565b61142d86610334565b90505b5b5b6114526003548284611444919061237f565b61195390919063ffffffff16565b92505050949350505050565b6000806114d88373ffffffffffffffffffffffffffffffffffffffff1663141aa0ba6040518163ffffffff1660e01b8152600401602060405180830381865afa1580156114af573d6000803e3d6000fd5b505050506040513d601f19601f820116820180604052508101906114d391906123ee565b610334565b905080915050919050565b6000808273ffffffffffffffffffffffffffffffffffffffff16631526fe27876040518263ffffffff1660e01b815260040161151f9190611b84565b60c060405180830381865afa15801561153c573d6000803e3d6000fd5b505050506040513d601f19601f8201168201806040525081019061156091906122a6565b905060006115fd8473ffffffffffffffffffffffffffffffffffffffff166317caf6f16040518163ffffffff1660e01b8152600401602060405180830381865afa1580156115b2573d6000803e3d6000fd5b505050506040513d601f19601f820116820180604052508101906115d69190612196565b6115ef600354856020015161187b90919063ffffffff16565b61195390919063ffffffff16565b905060006116788573ffffffffffffffffffffffffffffffffffffffff1663141aa0ba6040518163ffffffff1660e01b8152600401602060405180830381865afa15801561164f573d6000803e3d6000fd5b505050506040513d601f19601f8201168201806040525081019061167391906123ee565b610334565b905060006116ff8673ffffffffffffffffffffffffffffffffffffffff1663a1eef8216040518163ffffffff1660e01b8152600401602060405180830381865afa1580156116ca573d6000803e3d6000fd5b505050506040513d601f19601f820116820180604052508101906116ee9190612196565b60055461187b90919063ffffffff16565b9050600061172a60035461171c868561187b90919063ffffffff16565b61195390919063ffffffff16565b9050600061173a8b8b8b8b61131f565b9050611774606461176683611758888761187b90919063ffffffff16565b61195390919063ffffffff16565b61187b90919063ffffffff16565b9650505050505050949350505050565b61178c61199d565b73ffffffffffffffffffffffffffffffffffffffff166117aa611210565b73ffffffffffffffffffffffffffffffffffffffff1614611800576040517f08c379a00000000000000000000000000000000000000000000000000000000081526004016117f790612330565b60405180910390fd5b600073ffffffffffffffffffffffffffffffffffffffff168173ffffffffffffffffffffffffffffffffffffffff160361186f576040517f08c379a00000000000000000000000000000000000000000000000000000000081526004016118669061248d565b60405180910390fd5b611878816119a5565b50565b600080830361188d57600090506118ef565b6000828461189b919061237f565b90508284826118aa91906124dc565b146118ea576040517f08c379a00000000000000000000000000000000000000000000000000000000081526004016118e19061257f565b60405180910390fd5b809150505b92915050565b6000808284611904919061259f565b905083811015611949576040517f08c379a000000000000000000000000000000000000000000000000000000000815260040161194090612641565b60405180910390fd5b8091505092915050565b600061199583836040518060400160405280601a81526020017f536166654d6174683a206469766973696f6e206279207a65726f000000000000815250611a69565b905092915050565b600033905090565b60008060009054906101000a900473ffffffffffffffffffffffffffffffffffffffff169050816000806101000a81548173ffffffffffffffffffffffffffffffffffffffff021916908373ffffffffffffffffffffffffffffffffffffffff1602179055508173ffffffffffffffffffffffffffffffffffffffff168173ffffffffffffffffffffffffffffffffffffffff167f8be0079c531659141344cd1fd0a4f28419497f9722a3daafe3b4186f6b6457e060405160405180910390a35050565b60008083118290611ab0576040517f08c379a0000000000000000000000000000000000000000000000000000000008152600401611aa791906126d8565b60405180910390fd5b5060008385611abf91906124dc565b9050809150509392505050565b6000604051905090565b600080fd5b600080fd5b600073ffffffffffffffffffffffffffffffffffffffff82169050919050565b6000611b0b82611ae0565b9050919050565b611b1b81611b00565b8114611b2657600080fd5b50565b600081359050611b3881611b12565b92915050565b600060208284031215611b5457611b53611ad6565b5b6000611b6284828501611b29565b91505092915050565b6000819050919050565b611b7e81611b6b565b82525050565b6000602082019050611b996000830184611b75565b92915050565b6000611baa82611b00565b9050919050565b611bba81611b9f565b8114611bc557600080fd5b50565b600081359050611bd781611bb1565b92915050565b600060208284031215611bf357611bf2611ad6565b5b6000611c0184828501611bc8565b91505092915050565b6000819050919050565b6000611c2f611c2a611c2584611ae0565b611c0a565b611ae0565b9050919050565b6000611c4182611c14565b9050919050565b6000611c5382611c36565b9050919050565b611c6381611c48565b82525050565b6000602082019050611c7e6000830184611c5a565b92915050565b611c8d81611b00565b82525050565b6000602082019050611ca86000830184611c84565b92915050565b611cb781611b6b565b8114611cc257600080fd5b50565b600081359050611cd481611cae565b92915050565b6000611ce582611b00565b9050919050565b611cf581611cda565b8114611d0057600080fd5b50565b600081359050611d1281611cec565b92915050565b60008060408385031215611d2f57611d2e611ad6565b5b6000611d3d85828601611cc5565b9250506020611d4e85828601611d03565b9150509250929050565b6000611d6382611b00565b9050919050565b611d7381611d58565b8114611d7e57600080fd5b50565b600081359050611d9081611d6a565b92915050565b600060208284031215611dac57611dab611ad6565b5b6000611dba84828501611d81565b91505092915050565b60008060008060808587031215611ddd57611ddc611ad6565b5b6000611deb87828801611cc5565b9450506020611dfc87828801611bc8565b9350506040611e0d87828801611cc5565b9250506060611e1e87828801611d03565b91505092959194509250565b600060208284031215611e4057611e3f611ad6565b5b6000611e4e84828501611d03565b91505092915050565b7f4e487b7100000000000000000000000000000000000000000000000000000000600052604160045260246000fd5b7f4e487b7100000000000000000000000000000000000000000000000000000000600052603260045260246000fd5b600081519050919050565b600082825260208201905092915050565b6000819050602082019050919050565b611eea81611b00565b82525050565b6000611efc8383611ee1565b60208301905092915050565b6000602082019050919050565b6000611f2082611eb5565b611f2a8185611ec0565b9350611f3583611ed1565b8060005b83811015611f66578151611f4d8882611ef0565b9750611f5883611f08565b925050600181019050611f39565b5085935050505092915050565b6000604082019050611f886000830185611b75565b8181036020830152611f9a8184611f15565b90509392505050565b600080fd5b6000601f19601f8301169050919050565b611fc282611fa8565b810181811067ffffffffffffffff82111715611fe157611fe0611e57565b5b80604052505050565b6000611ff4611acc565b90506120008282611fb9565b919050565b600067ffffffffffffffff8211156120205761201f611e57565b5b602082029050602081019050919050565b600080fd5b60008151905061204581611cae565b92915050565b600061205e61205984612005565b611fea565b9050808382526020820190506020840283018581111561208157612080612031565b5b835b818110156120aa57806120968882612036565b845260208401935050602081019050612083565b5050509392505050565b600082601f8301126120c9576120c8611fa3565b5b81516120d984826020860161204b565b91505092915050565b6000602082840312156120f8576120f7611ad6565b5b600082015167ffffffffffffffff81111561211657612115611adb565b5b612122848285016120b4565b91505092915050565b600061213682611b00565b9050919050565b6121468161212b565b811461215157600080fd5b50565b6000815190506121638161213d565b92915050565b60006020828403121561217f5761217e611ad6565b5b600061218d84828501612154565b91505092915050565b6000602082840312156121ac576121ab611ad6565b5b60006121ba84828501612036565b91505092915050565b600080fd5b60006121d382611b00565b9050919050565b6121e3816121c8565b81146121ee57600080fd5b50565b600081519050612200816121da565b92915050565b600060c0828403121561221c5761221b6121c3565b5b61222660c0611fea565b9050600061223684828501612154565b600083015250602061224a84828501612036565b602083015250604061225e84828501612036565b604083015250606061227284828501612036565b6060830152506080612286848285016121f1565b60808301525060a061229a84828501612154565b60a08301525092915050565b600060c082840312156122bc576122bb611ad6565b5b60006122ca84828501612206565b91505092915050565b600082825260208201905092915050565b7f4f776e61626c653a2063616c6c6572206973206e6f7420746865206f776e6572600082015250565b600061231a6020836122d3565b9150612325826122e4565b602082019050919050565b600060208201905081810360008301526123498161230d565b9050919050565b7f4e487b7100000000000000000000000000000000000000000000000000000000600052601160045260246000fd5b600061238a82611b6b565b915061239583611b6b565b9250817fffffffffffffffffffffffffffffffffffffffffffffffffffffffffffffffff04831182151516156123ce576123cd612350565b5b828202905092915050565b6000815190506123e881611b12565b92915050565b60006020828403121561240457612403611ad6565b5b6000612412848285016123d9565b91505092915050565b7f4f776e61626c653a206e6577206f776e657220697320746865207a65726f206160008201527f6464726573730000000000000000000000000000000000000000000000000000602082015250565b60006124776026836122d3565b91506124828261241b565b604082019050919050565b600060208201905081810360008301526124a68161246a565b9050919050565b7f4e487b7100000000000000000000000000000000000000000000000000000000600052601260045260246000fd5b60006124e782611b6b565b91506124f283611b6b565b925082612502576125016124ad565b5b828204905092915050565b7f536166654d6174683a206d756c7469706c69636174696f6e206f766572666c6f60008201527f7700000000000000000000000000000000000000000000000000000000000000602082015250565b60006125696021836122d3565b91506125748261250d565b604082019050919050565b600060208201905081810360008301526125988161255c565b9050919050565b60006125aa82611b6b565b91506125b583611b6b565b9250827fffffffffffffffffffffffffffffffffffffffffffffffffffffffffffffffff038211156125ea576125e9612350565b5b828201905092915050565b7f536166654d6174683a206164646974696f6e206f766572666c6f770000000000600082015250565b600061262b601b836122d3565b9150612636826125f5565b602082019050919050565b6000602082019050818103600083015261265a8161261e565b9050919050565b600081519050919050565b60005b8381101561268a57808201518184015260208101905061266f565b83811115612699576000848401525b50505050565b60006126aa82612661565b6126b481856122d3565b93506126c481856020860161266c565b6126cd81611fa8565b840191505092915050565b600060208201905081810360008301526126f2818461269f565b90509291505056fea26469706673582212202ea8db6d44899636b489d6218dee2faefe4e5f7f42d897d138f562b60aa20ef164736f6c634300080f0033",
					"opcodes": "PUSH1 0x80 PUSH1 0x40 MSTORE PUSH20 0xAE13D989DAC2F0DEBFF460AC112A837C89BAA7CD PUSH1 0x1 PUSH1 0x0 PUSH2 0x100 EXP DUP2 SLOAD DUP2 PUSH20 0xFFFFFFFFFFFFFFFFFFFFFFFFFFFFFFFFFFFFFFFF MUL NOT AND SWAP1 DUP4 PUSH20 0xFFFFFFFFFFFFFFFFFFFFFFFFFFFFFFFFFFFFFFFF AND MUL OR SWAP1 SSTORE POP PUSH20 0x78867BBEEF44F2326BF8DDD1941A4439382EF2A7 PUSH1 0x2 PUSH1 0x0 PUSH2 0x100 EXP DUP2 SLOAD DUP2 PUSH20 0xFFFFFFFFFFFFFFFFFFFFFFFFFFFFFFFFFFFFFFFF MUL NOT AND SWAP1 DUP4 PUSH20 0xFFFFFFFFFFFFFFFFFFFFFFFFFFFFFFFFFFFFFFFF AND MUL OR SWAP1 SSTORE POP PUSH8 0xDE0B6B3A7640000 PUSH1 0x3 SSTORE PUSH3 0xA06680 PUSH1 0x5 SSTORE CALLVALUE DUP1 ISZERO PUSH3 0xCE JUMPI PUSH1 0x0 DUP1 REVERT JUMPDEST POP PUSH1 0x40 MLOAD PUSH3 0x2A18 CODESIZE SUB DUP1 PUSH3 0x2A18 DUP4 CODECOPY DUP2 DUP2 ADD PUSH1 0x40 MSTORE DUP2 ADD SWAP1 PUSH3 0xF4 SWAP2 SWAP1 PUSH3 0x2A6 JUMP JUMPDEST PUSH3 0x114 PUSH3 0x108 PUSH3 0x15C PUSH1 0x20 SHL PUSH1 0x20 SHR JUMP JUMPDEST PUSH3 0x164 PUSH1 0x20 SHL PUSH1 0x20 SHR JUMP JUMPDEST DUP1 PUSH1 0x4 PUSH1 0x0 PUSH2 0x100 EXP DUP2 SLOAD DUP2 PUSH20 0xFFFFFFFFFFFFFFFFFFFFFFFFFFFFFFFFFFFFFFFF MUL NOT AND SWAP1 DUP4 PUSH20 0xFFFFFFFFFFFFFFFFFFFFFFFFFFFFFFFFFFFFFFFF AND MUL OR SWAP1 SSTORE POP POP PUSH3 0x2D8 JUMP JUMPDEST PUSH1 0x0 CALLER SWAP1 POP SWAP1 JUMP JUMPDEST PUSH1 0x0 DUP1 PUSH1 0x0 SWAP1 SLOAD SWAP1 PUSH2 0x100 EXP SWAP1 DIV PUSH20 0xFFFFFFFFFFFFFFFFFFFFFFFFFFFFFFFFFFFFFFFF AND SWAP1 POP DUP2 PUSH1 0x0 DUP1 PUSH2 0x100 EXP DUP2 SLOAD DUP2 PUSH20 0xFFFFFFFFFFFFFFFFFFFFFFFFFFFFFFFFFFFFFFFF MUL NOT AND SWAP1 DUP4 PUSH20 0xFFFFFFFFFFFFFFFFFFFFFFFFFFFFFFFFFFFFFFFF AND MUL OR SWAP1 SSTORE POP DUP2 PUSH20 0xFFFFFFFFFFFFFFFFFFFFFFFFFFFFFFFFFFFFFFFF AND DUP2 PUSH20 0xFFFFFFFFFFFFFFFFFFFFFFFFFFFFFFFFFFFFFFFF AND PUSH32 0x8BE0079C531659141344CD1FD0A4F28419497F9722A3DAAFE3B4186F6B6457E0 PUSH1 0x40 MLOAD PUSH1 0x40 MLOAD DUP1 SWAP2 SUB SWAP1 LOG3 POP POP JUMP JUMPDEST PUSH1 0x0 DUP1 REVERT JUMPDEST PUSH1 0x0 PUSH20 0xFFFFFFFFFFFFFFFFFFFFFFFFFFFFFFFFFFFFFFFF DUP3 AND SWAP1 POP SWAP2 SWAP1 POP JUMP JUMPDEST PUSH1 0x0 PUSH3 0x25A DUP3 PUSH3 0x22D JUMP JUMPDEST SWAP1 POP SWAP2 SWAP1 POP JUMP JUMPDEST PUSH1 0x0 PUSH3 0x26E DUP3 PUSH3 0x24D JUMP JUMPDEST SWAP1 POP SWAP2 SWAP1 POP JUMP JUMPDEST PUSH3 0x280 DUP2 PUSH3 0x261 JUMP JUMPDEST DUP2 EQ PUSH3 0x28C JUMPI PUSH1 0x0 DUP1 REVERT JUMPDEST POP JUMP JUMPDEST PUSH1 0x0 DUP2 MLOAD SWAP1 POP PUSH3 0x2A0 DUP2 PUSH3 0x275 JUMP JUMPDEST SWAP3 SWAP2 POP POP JUMP JUMPDEST PUSH1 0x0 PUSH1 0x20 DUP3 DUP5 SUB SLT ISZERO PUSH3 0x2BF JUMPI PUSH3 0x2BE PUSH3 0x228 JUMP JUMPDEST JUMPDEST PUSH1 0x0 PUSH3 0x2CF DUP5 DUP3 DUP6 ADD PUSH3 0x28F JUMP JUMPDEST SWAP2 POP POP SWAP3 SWAP2 POP POP JUMP JUMPDEST PUSH2 0x2730 DUP1 PUSH3 0x2E8 PUSH1 0x0 CODECOPY PUSH1 0x0 RETURN INVALID PUSH1 0x80 PUSH1 0x40 MSTORE CALLVALUE DUP1 ISZERO PUSH2 0x10 JUMPI PUSH1 0x0 DUP1 REVERT JUMPDEST POP PUSH1 0x4 CALLDATASIZE LT PUSH2 0xF5 JUMPI PUSH1 0x0 CALLDATALOAD PUSH1 0xE0 SHR DUP1 PUSH4 0x88EEE253 GT PUSH2 0x97 JUMPI DUP1 PUSH4 0xD979FB5F GT PUSH2 0x66 JUMPI DUP1 PUSH4 0xD979FB5F EQ PUSH2 0x288 JUMPI DUP1 PUSH4 0xDBA88007 EQ PUSH2 0x2B8 JUMPI DUP1 PUSH4 0xDBB79348 EQ PUSH2 0x2E8 JUMPI DUP1 PUSH4 0xF2FDE38B EQ PUSH2 0x318 JUMPI PUSH2 0xF5 JUMP JUMPDEST DUP1 PUSH4 0x88EEE253 EQ PUSH2 0x200 JUMPI DUP1 PUSH4 0x8DA5CB5B EQ PUSH2 0x230 JUMPI DUP1 PUSH4 0x8DD95002 EQ PUSH2 0x24E JUMPI DUP1 PUSH4 0xC0D78655 EQ PUSH2 0x26C JUMPI PUSH2 0xF5 JUMP JUMPDEST DUP1 PUSH4 0x3B979D45 GT PUSH2 0xD3 JUMPI DUP1 PUSH4 0x3B979D45 EQ PUSH2 0x178 JUMPI DUP1 PUSH4 0x484F4EA9 EQ PUSH2 0x1A8 JUMPI DUP1 PUSH4 0x4ABDDBE3 EQ PUSH2 0x1C6 JUMPI DUP1 PUSH4 0x715018A6 EQ PUSH2 0x1F6 JUMPI PUSH2 0xF5 JUMP JUMPDEST DUP1 PUSH4 0x19047F8A EQ PUSH2 0xFA JUMPI DUP1 PUSH4 0x215CC989 EQ PUSH2 0x12A JUMPI DUP1 PUSH4 0x3268CC56 EQ PUSH2 0x15A JUMPI JUMPDEST PUSH1 0x0 DUP1 REVERT JUMPDEST PUSH2 0x114 PUSH1 0x4 DUP1 CALLDATASIZE SUB DUP2 ADD SWAP1 PUSH2 0x10F SWAP2 SWAP1 PUSH2 0x1B3E JUMP JUMPDEST PUSH2 0x334 JUMP JUMPDEST PUSH1 0x40 MLOAD PUSH2 0x121 SWAP2 SWAP1 PUSH2 0x1B84 JUMP JUMPDEST PUSH1 0x40 MLOAD DUP1 SWAP2 SUB SWAP1 RETURN JUMPDEST PUSH2 0x144 PUSH1 0x4 DUP1 CALLDATASIZE SUB DUP2 ADD SWAP1 PUSH2 0x13F SWAP2 SWAP1 PUSH2 0x1BDD JUMP JUMPDEST PUSH2 0x57C JUMP JUMPDEST PUSH1 0x40 MLOAD PUSH2 0x151 SWAP2 SWAP1 PUSH2 0x1B84 JUMP JUMPDEST PUSH1 0x40 MLOAD DUP1 SWAP2 SUB SWAP1 RETURN JUMPDEST PUSH2 0x162 PUSH2 0xD77 JUMP JUMPDEST PUSH1 0x40 MLOAD PUSH2 0x16F SWAP2 SWAP1 PUSH2 0x1C69 JUMP JUMPDEST PUSH1 0x40 MLOAD DUP1 SWAP2 SUB SWAP1 RETURN JUMPDEST PUSH2 0x192 PUSH1 0x4 DUP1 CALLDATASIZE SUB DUP2 ADD SWAP1 PUSH2 0x18D SWAP2 SWAP1 PUSH2 0x1B3E JUMP JUMPDEST PUSH2 0xD9D JUMP JUMPDEST PUSH1 0x40 MLOAD PUSH2 0x19F SWAP2 SWAP1 PUSH2 0x1B84 JUMP JUMPDEST PUSH1 0x40 MLOAD DUP1 SWAP2 SUB SWAP1 RETURN JUMPDEST PUSH2 0x1B0 PUSH2 0xF74 JUMP JUMPDEST PUSH1 0x40 MLOAD PUSH2 0x1BD SWAP2 SWAP1 PUSH2 0x1C93 JUMP JUMPDEST PUSH1 0x40 MLOAD DUP1 SWAP2 SUB SWAP1 RETURN JUMPDEST PUSH2 0x1E0 PUSH1 0x4 DUP1 CALLDATASIZE SUB DUP2 ADD SWAP1 PUSH2 0x1DB SWAP2 SWAP1 PUSH2 0x1D18 JUMP JUMPDEST PUSH2 0xF9A JUMP JUMPDEST PUSH1 0x40 MLOAD PUSH2 0x1ED SWAP2 SWAP1 PUSH2 0x1B84 JUMP JUMPDEST PUSH1 0x40 MLOAD DUP1 SWAP2 SUB SWAP1 RETURN JUMPDEST PUSH2 0x1FE PUSH2 0x10C1 JUMP JUMPDEST STOP JUMPDEST PUSH2 0x21A PUSH1 0x4 DUP1 CALLDATASIZE SUB DUP2 ADD SWAP1 PUSH2 0x215 SWAP2 SWAP1 PUSH2 0x1D18 JUMP JUMPDEST PUSH2 0x1149 JUMP JUMPDEST PUSH1 0x40 MLOAD PUSH2 0x227 SWAP2 SWAP1 PUSH2 0x1B84 JUMP JUMPDEST PUSH1 0x40 MLOAD DUP1 SWAP2 SUB SWAP1 RETURN JUMPDEST PUSH2 0x238 PUSH2 0x1210 JUMP JUMPDEST PUSH1 0x40 MLOAD PUSH2 0x245 SWAP2 SWAP1 PUSH2 0x1C93 JUMP JUMPDEST PUSH1 0x40 MLOAD DUP1 SWAP2 SUB SWAP1 RETURN JUMPDEST PUSH2 0x256 PUSH2 0x1239 JUMP JUMPDEST PUSH1 0x40 MLOAD PUSH2 0x263 SWAP2 SWAP1 PUSH2 0x1C93 JUMP JUMPDEST PUSH1 0x40 MLOAD DUP1 SWAP2 SUB SWAP1 RETURN JUMPDEST PUSH2 0x286 PUSH1 0x4 DUP1 CALLDATASIZE SUB DUP2 ADD SWAP1 PUSH2 0x281 SWAP2 SWAP1 PUSH2 0x1D96 JUMP JUMPDEST PUSH2 0x125F JUMP JUMPDEST STOP JUMPDEST PUSH2 0x2A2 PUSH1 0x4 DUP1 CALLDATASIZE SUB DUP2 ADD SWAP1 PUSH2 0x29D SWAP2 SWAP1 PUSH2 0x1DC3 JUMP JUMPDEST PUSH2 0x131F JUMP JUMPDEST PUSH1 0x40 MLOAD PUSH2 0x2AF SWAP2 SWAP1 PUSH2 0x1B84 JUMP JUMPDEST PUSH1 0x40 MLOAD DUP1 SWAP2 SUB SWAP1 RETURN JUMPDEST PUSH2 0x2D2 PUSH1 0x4 DUP1 CALLDATASIZE SUB DUP2 ADD SWAP1 PUSH2 0x2CD SWAP2 SWAP1 PUSH2 0x1E2A JUMP JUMPDEST PUSH2 0x145E JUMP JUMPDEST PUSH1 0x40 MLOAD PUSH2 0x2DF SWAP2 SWAP1 PUSH2 0x1B84 JUMP JUMPDEST PUSH1 0x40 MLOAD DUP1 SWAP2 SUB SWAP1 RETURN JUMPDEST PUSH2 0x302 PUSH1 0x4 DUP1 CALLDATASIZE SUB DUP2 ADD SWAP1 PUSH2 0x2FD SWAP2 SWAP1 PUSH2 0x1DC3 JUMP JUMPDEST PUSH2 0x14E3 JUMP JUMPDEST PUSH1 0x40 MLOAD PUSH2 0x30F SWAP2 SWAP1 PUSH2 0x1B84 JUMP JUMPDEST PUSH1 0x40 MLOAD DUP1 SWAP2 SUB SWAP1 RETURN JUMPDEST PUSH2 0x332 PUSH1 0x4 DUP1 CALLDATASIZE SUB DUP2 ADD SWAP1 PUSH2 0x32D SWAP2 SWAP1 PUSH2 0x1B3E JUMP JUMPDEST PUSH2 0x1784 JUMP JUMPDEST STOP JUMPDEST PUSH1 0x0 DUP1 PUSH1 0x3 PUSH8 0xFFFFFFFFFFFFFFFF DUP2 GT ISZERO PUSH2 0x352 JUMPI PUSH2 0x351 PUSH2 0x1E57 JUMP JUMPDEST JUMPDEST PUSH1 0x40 MLOAD SWAP1 DUP1 DUP3 MSTORE DUP1 PUSH1 0x20 MUL PUSH1 0x20 ADD DUP3 ADD PUSH1 0x40 MSTORE DUP1 ISZERO PUSH2 0x380 JUMPI DUP2 PUSH1 0x20 ADD PUSH1 0x20 DUP3 MUL DUP1 CALLDATASIZE DUP4 CALLDATACOPY DUP1 DUP3 ADD SWAP2 POP POP SWAP1 POP JUMPDEST POP SWAP1 POP DUP3 DUP2 PUSH1 0x0 DUP2 MLOAD DUP2 LT PUSH2 0x398 JUMPI PUSH2 0x397 PUSH2 0x1E86 JUMP JUMPDEST JUMPDEST PUSH1 0x20 MUL PUSH1 0x20 ADD ADD SWAP1 PUSH20 0xFFFFFFFFFFFFFFFFFFFFFFFFFFFFFFFFFFFFFFFF AND SWAP1 DUP2 PUSH20 0xFFFFFFFFFFFFFFFFFFFFFFFFFFFFFFFFFFFFFFFF AND DUP2 MSTORE POP POP PUSH1 0x1 PUSH1 0x0 SWAP1 SLOAD SWAP1 PUSH2 0x100 EXP SWAP1 DIV PUSH20 0xFFFFFFFFFFFFFFFFFFFFFFFFFFFFFFFFFFFFFFFF AND DUP2 PUSH1 0x1 DUP2 MLOAD DUP2 LT PUSH2 0x409 JUMPI PUSH2 0x408 PUSH2 0x1E86 JUMP JUMPDEST JUMPDEST PUSH1 0x20 MUL PUSH1 0x20 ADD ADD SWAP1 PUSH20 0xFFFFFFFFFFFFFFFFFFFFFFFFFFFFFFFFFFFFFFFF AND SWAP1 DUP2 PUSH20 0xFFFFFFFFFFFFFFFFFFFFFFFFFFFFFFFFFFFFFFFF AND DUP2 MSTORE POP POP PUSH1 0x2 PUSH1 0x0 SWAP1 SLOAD SWAP1 PUSH2 0x100 EXP SWAP1 DIV PUSH20 0xFFFFFFFFFFFFFFFFFFFFFFFFFFFFFFFFFFFFFFFF AND DUP2 PUSH1 0x2 DUP2 MLOAD DUP2 LT PUSH2 0x47A JUMPI PUSH2 0x479 PUSH2 0x1E86 JUMP JUMPDEST JUMPDEST PUSH1 0x20 MUL PUSH1 0x20 ADD ADD SWAP1 PUSH20 0xFFFFFFFFFFFFFFFFFFFFFFFFFFFFFFFFFFFFFFFF AND SWAP1 DUP2 PUSH20 0xFFFFFFFFFFFFFFFFFFFFFFFFFFFFFFFFFFFFFFFF AND DUP2 MSTORE POP POP PUSH1 0x4 PUSH1 0x0 SWAP1 SLOAD SWAP1 PUSH2 0x100 EXP SWAP1 DIV PUSH20 0xFFFFFFFFFFFFFFFFFFFFFFFFFFFFFFFFFFFFFFFF AND PUSH20 0xFFFFFFFFFFFFFFFFFFFFFFFFFFFFFFFFFFFFFFFF AND PUSH4 0xD06CA61F PUSH1 0x3 SLOAD DUP4 PUSH1 0x40 MLOAD DUP4 PUSH4 0xFFFFFFFF AND PUSH1 0xE0 SHL DUP2 MSTORE PUSH1 0x4 ADD PUSH2 0x513 SWAP3 SWAP2 SWAP1 PUSH2 0x1F73 JUMP JUMPDEST PUSH1 0x0 PUSH1 0x40 MLOAD DUP1 DUP4 SUB DUP2 DUP7 GAS STATICCALL ISZERO DUP1 ISZERO PUSH2 0x530 JUMPI RETURNDATASIZE PUSH1 0x0 DUP1 RETURNDATACOPY RETURNDATASIZE PUSH1 0x0 REVERT JUMPDEST POP POP POP POP PUSH1 0x40 MLOAD RETURNDATASIZE PUSH1 0x0 DUP3 RETURNDATACOPY RETURNDATASIZE PUSH1 0x1F NOT PUSH1 0x1F DUP3 ADD AND DUP3 ADD DUP1 PUSH1 0x40 MSTORE POP DUP2 ADD SWAP1 PUSH2 0x559 SWAP2 SWAP1 PUSH2 0x20E2 JUMP JUMPDEST PUSH1 0x2 DUP2 MLOAD DUP2 LT PUSH2 0x56C JUMPI PUSH2 0x56B PUSH2 0x1E86 JUMP JUMPDEST JUMPDEST PUSH1 0x20 MUL PUSH1 0x20 ADD ADD MLOAD SWAP2 POP POP SWAP2 SWAP1 POP JUMP JUMPDEST PUSH1 0x0 DUP1 PUSH1 0x0 DUP4 PUSH20 0xFFFFFFFFFFFFFFFFFFFFFFFFFFFFFFFFFFFFFFFF AND PUSH4 0xDFE1681 PUSH1 0x40 MLOAD DUP2 PUSH4 0xFFFFFFFF AND PUSH1 0xE0 SHL DUP2 MSTORE PUSH1 0x4 ADD PUSH1 0x20 PUSH1 0x40 MLOAD DUP1 DUP4 SUB DUP2 DUP7 GAS STATICCALL ISZERO DUP1 ISZERO PUSH2 0x5CC JUMPI RETURNDATASIZE PUSH1 0x0 DUP1 RETURNDATACOPY RETURNDATASIZE PUSH1 0x0 REVERT JUMPDEST POP POP POP POP PUSH1 0x40 MLOAD RETURNDATASIZE PUSH1 0x1F NOT PUSH1 0x1F DUP3 ADD AND DUP3 ADD DUP1 PUSH1 0x40 MSTORE POP DUP2 ADD SWAP1 PUSH2 0x5F0 SWAP2 SWAP1 PUSH2 0x2169 JUMP JUMPDEST PUSH20 0xFFFFFFFFFFFFFFFFFFFFFFFFFFFFFFFFFFFFFFFF AND PUSH1 0x1 PUSH1 0x0 SWAP1 SLOAD SWAP1 PUSH2 0x100 EXP SWAP1 DIV PUSH20 0xFFFFFFFFFFFFFFFFFFFFFFFFFFFFFFFFFFFFFFFF AND PUSH20 0xFFFFFFFFFFFFFFFFFFFFFFFFFFFFFFFFFFFFFFFF AND SUB PUSH2 0x7BB JUMPI PUSH2 0x7B4 PUSH2 0x6BE DUP6 PUSH20 0xFFFFFFFFFFFFFFFFFFFFFFFFFFFFFFFFFFFFFFFF AND PUSH4 0xDFE1681 PUSH1 0x40 MLOAD DUP2 PUSH4 0xFFFFFFFF AND PUSH1 0xE0 SHL DUP2 MSTORE PUSH1 0x4 ADD PUSH1 0x20 PUSH1 0x40 MLOAD DUP1 DUP4 SUB DUP2 DUP7 GAS STATICCALL ISZERO DUP1 ISZERO PUSH2 0x695 JUMPI RETURNDATASIZE PUSH1 0x0 DUP1 RETURNDATACOPY RETURNDATASIZE PUSH1 0x0 REVERT JUMPDEST POP POP POP POP PUSH1 0x40 MLOAD RETURNDATASIZE PUSH1 0x1F NOT PUSH1 0x1F DUP3 ADD AND DUP3 ADD DUP1 PUSH1 0x40 MSTORE POP DUP2 ADD SWAP1 PUSH2 0x6B9 SWAP2 SWAP1 PUSH2 0x2169 JUMP JUMPDEST PUSH2 0xD9D JUMP JUMPDEST DUP6 PUSH20 0xFFFFFFFFFFFFFFFFFFFFFFFFFFFFFFFFFFFFFFFF AND PUSH4 0xDFE1681 PUSH1 0x40 MLOAD DUP2 PUSH4 0xFFFFFFFF AND PUSH1 0xE0 SHL DUP2 MSTORE PUSH1 0x4 ADD PUSH1 0x20 PUSH1 0x40 MLOAD DUP1 DUP4 SUB DUP2 DUP7 GAS STATICCALL ISZERO DUP1 ISZERO PUSH2 0x709 JUMPI RETURNDATASIZE PUSH1 0x0 DUP1 RETURNDATACOPY RETURNDATASIZE PUSH1 0x0 REVERT JUMPDEST POP POP POP POP PUSH1 0x40 MLOAD RETURNDATASIZE PUSH1 0x1F NOT PUSH1 0x1F DUP3 ADD AND DUP3 ADD DUP1 PUSH1 0x40 MSTORE POP DUP2 ADD SWAP1 PUSH2 0x72D SWAP2 SWAP1 PUSH2 0x2169 JUMP JUMPDEST PUSH20 0xFFFFFFFFFFFFFFFFFFFFFFFFFFFFFFFFFFFFFFFF AND PUSH4 0x70A08231 DUP8 PUSH1 0x40 MLOAD DUP3 PUSH4 0xFFFFFFFF AND PUSH1 0xE0 SHL DUP2 MSTORE PUSH1 0x4 ADD PUSH2 0x765 SWAP2 SWAP1 PUSH2 0x1C93 JUMP JUMPDEST PUSH1 0x20 PUSH1 0x40 MLOAD DUP1 DUP4 SUB DUP2 DUP7 GAS STATICCALL ISZERO DUP1 ISZERO PUSH2 0x782 JUMPI RETURNDATASIZE PUSH1 0x0 DUP1 RETURNDATACOPY RETURNDATASIZE PUSH1 0x0 REVERT JUMPDEST POP POP POP POP PUSH1 0x40 MLOAD RETURNDATASIZE PUSH1 0x1F NOT PUSH1 0x1F DUP3 ADD AND DUP3 ADD DUP1 PUSH1 0x40 MSTORE POP DUP2 ADD SWAP1 PUSH2 0x7A6 SWAP2 SWAP1 PUSH2 0x2196 JUMP JUMPDEST PUSH2 0x187B SWAP1 SWAP2 SWAP1 PUSH4 0xFFFFFFFF AND JUMP JUMPDEST SWAP2 POP PUSH2 0x92E JUMP JUMPDEST PUSH2 0x92B PUSH2 0x835 DUP6 PUSH20 0xFFFFFFFFFFFFFFFFFFFFFFFFFFFFFFFFFFFFFFFF AND PUSH4 0xDFE1681 PUSH1 0x40 MLOAD DUP2 PUSH4 0xFFFFFFFF AND PUSH1 0xE0 SHL DUP2 MSTORE PUSH1 0x4 ADD PUSH1 0x20 PUSH1 0x40 MLOAD DUP1 DUP4 SUB DUP2 DUP7 GAS STATICCALL ISZERO DUP1 ISZERO PUSH2 0x80C JUMPI RETURNDATASIZE PUSH1 0x0 DUP1 RETURNDATACOPY RETURNDATASIZE PUSH1 0x0 REVERT JUMPDEST POP POP POP POP PUSH1 0x40 MLOAD RETURNDATASIZE PUSH1 0x1F NOT PUSH1 0x1F DUP3 ADD AND DUP3 ADD DUP1 PUSH1 0x40 MSTORE POP DUP2 ADD SWAP1 PUSH2 0x830 SWAP2 SWAP1 PUSH2 0x2169 JUMP JUMPDEST PUSH2 0x334 JUMP JUMPDEST DUP6 PUSH20 0xFFFFFFFFFFFFFFFFFFFFFFFFFFFFFFFFFFFFFFFF AND PUSH4 0xDFE1681 PUSH1 0x40 MLOAD DUP2 PUSH4 0xFFFFFFFF AND PUSH1 0xE0 SHL DUP2 MSTORE PUSH1 0x4 ADD PUSH1 0x20 PUSH1 0x40 MLOAD DUP1 DUP4 SUB DUP2 DUP7 GAS STATICCALL ISZERO DUP1 ISZERO PUSH2 0x880 JUMPI RETURNDATASIZE PUSH1 0x0 DUP1 RETURNDATACOPY RETURNDATASIZE PUSH1 0x0 REVERT JUMPDEST POP POP POP POP PUSH1 0x40 MLOAD RETURNDATASIZE PUSH1 0x1F NOT PUSH1 0x1F DUP3 ADD AND DUP3 ADD DUP1 PUSH1 0x40 MSTORE POP DUP2 ADD SWAP1 PUSH2 0x8A4 SWAP2 SWAP1 PUSH2 0x2169 JUMP JUMPDEST PUSH20 0xFFFFFFFFFFFFFFFFFFFFFFFFFFFFFFFFFFFFFFFF AND PUSH4 0x70A08231 DUP8 PUSH1 0x40 MLOAD DUP3 PUSH4 0xFFFFFFFF AND PUSH1 0xE0 SHL DUP2 MSTORE PUSH1 0x4 ADD PUSH2 0x8DC SWAP2 SWAP1 PUSH2 0x1C93 JUMP JUMPDEST PUSH1 0x20 PUSH1 0x40 MLOAD DUP1 DUP4 SUB DUP2 DUP7 GAS STATICCALL ISZERO DUP1 ISZERO PUSH2 0x8F9 JUMPI RETURNDATASIZE PUSH1 0x0 DUP1 RETURNDATACOPY RETURNDATASIZE PUSH1 0x0 REVERT JUMPDEST POP POP POP POP PUSH1 0x40 MLOAD RETURNDATASIZE PUSH1 0x1F NOT PUSH1 0x1F DUP3 ADD AND DUP3 ADD DUP1 PUSH1 0x40 MSTORE POP DUP2 ADD SWAP1 PUSH2 0x91D SWAP2 SWAP1 PUSH2 0x2196 JUMP JUMPDEST PUSH2 0x187B SWAP1 SWAP2 SWAP1 PUSH4 0xFFFFFFFF AND JUMP JUMPDEST SWAP2 POP JUMPDEST DUP4 PUSH20 0xFFFFFFFFFFFFFFFFFFFFFFFFFFFFFFFFFFFFFFFF AND PUSH4 0xD21220A7 PUSH1 0x40 MLOAD DUP2 PUSH4 0xFFFFFFFF AND PUSH1 0xE0 SHL DUP2 MSTORE PUSH1 0x4 ADD PUSH1 0x20 PUSH1 0x40 MLOAD DUP1 DUP4 SUB DUP2 DUP7 GAS STATICCALL ISZERO DUP1 ISZERO PUSH2 0x979 JUMPI RETURNDATASIZE PUSH1 0x0 DUP1 RETURNDATACOPY RETURNDATASIZE PUSH1 0x0 REVERT JUMPDEST POP POP POP POP PUSH1 0x40 MLOAD RETURNDATASIZE PUSH1 0x1F NOT PUSH1 0x1F DUP3 ADD AND DUP3 ADD DUP1 PUSH1 0x40 MSTORE POP DUP2 ADD SWAP1 PUSH2 0x99D SWAP2 SWAP1 PUSH2 0x2169 JUMP JUMPDEST PUSH20 0xFFFFFFFFFFFFFFFFFFFFFFFFFFFFFFFFFFFFFFFF AND PUSH1 0x1 PUSH1 0x0 SWAP1 SLOAD SWAP1 PUSH2 0x100 EXP SWAP1 DIV PUSH20 0xFFFFFFFFFFFFFFFFFFFFFFFFFFFFFFFFFFFFFFFF AND PUSH20 0xFFFFFFFFFFFFFFFFFFFFFFFFFFFFFFFFFFFFFFFF AND SUB PUSH2 0xB68 JUMPI PUSH2 0xB61 PUSH2 0xA6B DUP6 PUSH20 0xFFFFFFFFFFFFFFFFFFFFFFFFFFFFFFFFFFFFFFFF AND PUSH4 0xD21220A7 PUSH1 0x40 MLOAD DUP2 PUSH4 0xFFFFFFFF AND PUSH1 0xE0 SHL DUP2 MSTORE PUSH1 0x4 ADD PUSH1 0x20 PUSH1 0x40 MLOAD DUP1 DUP4 SUB DUP2 DUP7 GAS STATICCALL ISZERO DUP1 ISZERO PUSH2 0xA42 JUMPI RETURNDATASIZE PUSH1 0x0 DUP1 RETURNDATACOPY RETURNDATASIZE PUSH1 0x0 REVERT JUMPDEST POP POP POP POP PUSH1 0x40 MLOAD RETURNDATASIZE PUSH1 0x1F NOT PUSH1 0x1F DUP3 ADD AND DUP3 ADD DUP1 PUSH1 0x40 MSTORE POP DUP2 ADD SWAP1 PUSH2 0xA66 SWAP2 SWAP1 PUSH2 0x2169 JUMP JUMPDEST PUSH2 0xD9D JUMP JUMPDEST DUP6 PUSH20 0xFFFFFFFFFFFFFFFFFFFFFFFFFFFFFFFFFFFFFFFF AND PUSH4 0xD21220A7 PUSH1 0x40 MLOAD DUP2 PUSH4 0xFFFFFFFF AND PUSH1 0xE0 SHL DUP2 MSTORE PUSH1 0x4 ADD PUSH1 0x20 PUSH1 0x40 MLOAD DUP1 DUP4 SUB DUP2 DUP7 GAS STATICCALL ISZERO DUP1 ISZERO PUSH2 0xAB6 JUMPI RETURNDATASIZE PUSH1 0x0 DUP1 RETURNDATACOPY RETURNDATASIZE PUSH1 0x0 REVERT JUMPDEST POP POP POP POP PUSH1 0x40 MLOAD RETURNDATASIZE PUSH1 0x1F NOT PUSH1 0x1F DUP3 ADD AND DUP3 ADD DUP1 PUSH1 0x40 MSTORE POP DUP2 ADD SWAP1 PUSH2 0xADA SWAP2 SWAP1 PUSH2 0x2169 JUMP JUMPDEST PUSH20 0xFFFFFFFFFFFFFFFFFFFFFFFFFFFFFFFFFFFFFFFF AND PUSH4 0x70A08231 DUP8 PUSH1 0x40 MLOAD DUP3 PUSH4 0xFFFFFFFF AND PUSH1 0xE0 SHL DUP2 MSTORE PUSH1 0x4 ADD PUSH2 0xB12 SWAP2 SWAP1 PUSH2 0x1C93 JUMP JUMPDEST PUSH1 0x20 PUSH1 0x40 MLOAD DUP1 DUP4 SUB DUP2 DUP7 GAS STATICCALL ISZERO DUP1 ISZERO PUSH2 0xB2F JUMPI RETURNDATASIZE PUSH1 0x0 DUP1 RETURNDATACOPY RETURNDATASIZE PUSH1 0x0 REVERT JUMPDEST POP POP POP POP PUSH1 0x40 MLOAD RETURNDATASIZE PUSH1 0x1F NOT PUSH1 0x1F DUP3 ADD AND DUP3 ADD DUP1 PUSH1 0x40 MSTORE POP DUP2 ADD SWAP1 PUSH2 0xB53 SWAP2 SWAP1 PUSH2 0x2196 JUMP JUMPDEST PUSH2 0x187B SWAP1 SWAP2 SWAP1 PUSH4 0xFFFFFFFF AND JUMP JUMPDEST SWAP1 POP PUSH2 0xCDB JUMP JUMPDEST PUSH2 0xCD8 PUSH2 0xBE2 DUP6 PUSH20 0xFFFFFFFFFFFFFFFFFFFFFFFFFFFFFFFFFFFFFFFF AND PUSH4 0xD21220A7 PUSH1 0x40 MLOAD DUP2 PUSH4 0xFFFFFFFF AND PUSH1 0xE0 SHL DUP2 MSTORE PUSH1 0x4 ADD PUSH1 0x20 PUSH1 0x40 MLOAD DUP1 DUP4 SUB DUP2 DUP7 GAS STATICCALL ISZERO DUP1 ISZERO PUSH2 0xBB9 JUMPI RETURNDATASIZE PUSH1 0x0 DUP1 RETURNDATACOPY RETURNDATASIZE PUSH1 0x0 REVERT JUMPDEST POP POP POP POP PUSH1 0x40 MLOAD RETURNDATASIZE PUSH1 0x1F NOT PUSH1 0x1F DUP3 ADD AND DUP3 ADD DUP1 PUSH1 0x40 MSTORE POP DUP2 ADD SWAP1 PUSH2 0xBDD SWAP2 SWAP1 PUSH2 0x2169 JUMP JUMPDEST PUSH2 0x334 JUMP JUMPDEST DUP6 PUSH20 0xFFFFFFFFFFFFFFFFFFFFFFFFFFFFFFFFFFFFFFFF AND PUSH4 0xD21220A7 PUSH1 0x40 MLOAD DUP2 PUSH4 0xFFFFFFFF AND PUSH1 0xE0 SHL DUP2 MSTORE PUSH1 0x4 ADD PUSH1 0x20 PUSH1 0x40 MLOAD DUP1 DUP4 SUB DUP2 DUP7 GAS STATICCALL ISZERO DUP1 ISZERO PUSH2 0xC2D JUMPI RETURNDATASIZE PUSH1 0x0 DUP1 RETURNDATACOPY RETURNDATASIZE PUSH1 0x0 REVERT JUMPDEST POP POP POP POP PUSH1 0x40 MLOAD RETURNDATASIZE PUSH1 0x1F NOT PUSH1 0x1F DUP3 ADD AND DUP3 ADD DUP1 PUSH1 0x40 MSTORE POP DUP2 ADD SWAP1 PUSH2 0xC51 SWAP2 SWAP1 PUSH2 0x2169 JUMP JUMPDEST PUSH20 0xFFFFFFFFFFFFFFFFFFFFFFFFFFFFFFFFFFFFFFFF AND PUSH4 0x70A08231 DUP8 PUSH1 0x40 MLOAD DUP3 PUSH4 0xFFFFFFFF AND PUSH1 0xE0 SHL DUP2 MSTORE PUSH1 0x4 ADD PUSH2 0xC89 SWAP2 SWAP1 PUSH2 0x1C93 JUMP JUMPDEST PUSH1 0x20 PUSH1 0x40 MLOAD DUP1 DUP4 SUB DUP2 DUP7 GAS STATICCALL ISZERO DUP1 ISZERO PUSH2 0xCA6 JUMPI RETURNDATASIZE PUSH1 0x0 DUP1 RETURNDATACOPY RETURNDATASIZE PUSH1 0x0 REVERT JUMPDEST POP POP POP POP PUSH1 0x40 MLOAD RETURNDATASIZE PUSH1 0x1F NOT PUSH1 0x1F DUP3 ADD AND DUP3 ADD DUP1 PUSH1 0x40 MSTORE POP DUP2 ADD SWAP1 PUSH2 0xCCA SWAP2 SWAP1 PUSH2 0x2196 JUMP JUMPDEST PUSH2 0x187B SWAP1 SWAP2 SWAP1 PUSH4 0xFFFFFFFF AND JUMP JUMPDEST SWAP1 POP JUMPDEST PUSH2 0xD6E DUP5 PUSH20 0xFFFFFFFFFFFFFFFFFFFFFFFFFFFFFFFFFFFFFFFF AND PUSH4 0x18160DDD PUSH1 0x40 MLOAD DUP2 PUSH4 0xFFFFFFFF AND PUSH1 0xE0 SHL DUP2 MSTORE PUSH1 0x4 ADD PUSH1 0x20 PUSH1 0x40 MLOAD DUP1 DUP4 SUB DUP2 DUP7 GAS STATICCALL ISZERO DUP1 ISZERO PUSH2 0xD29 JUMPI RETURNDATASIZE PUSH1 0x0 DUP1 RETURNDATACOPY RETURNDATASIZE PUSH1 0x0 REVERT JUMPDEST POP POP POP POP PUSH1 0x40 MLOAD RETURNDATASIZE PUSH1 0x1F NOT PUSH1 0x1F DUP3 ADD AND DUP3 ADD DUP1 PUSH1 0x40 MSTORE POP DUP2 ADD SWAP1 PUSH2 0xD4D SWAP2 SWAP1 PUSH2 0x2196 JUMP JUMPDEST PUSH2 0xD60 DUP4 DUP6 PUSH2 0x18F5 SWAP1 SWAP2 SWAP1 PUSH4 0xFFFFFFFF AND JUMP JUMPDEST PUSH2 0x1953 SWAP1 SWAP2 SWAP1 PUSH4 0xFFFFFFFF AND JUMP JUMPDEST SWAP3 POP POP POP SWAP2 SWAP1 POP JUMP JUMPDEST PUSH1 0x4 PUSH1 0x0 SWAP1 SLOAD SWAP1 PUSH2 0x100 EXP SWAP1 DIV PUSH20 0xFFFFFFFFFFFFFFFFFFFFFFFFFFFFFFFFFFFFFFFF AND DUP2 JUMP JUMPDEST PUSH1 0x0 DUP1 PUSH1 0x2 PUSH8 0xFFFFFFFFFFFFFFFF DUP2 GT ISZERO PUSH2 0xDBB JUMPI PUSH2 0xDBA PUSH2 0x1E57 JUMP JUMPDEST JUMPDEST PUSH1 0x40 MLOAD SWAP1 DUP1 DUP3 MSTORE DUP1 PUSH1 0x20 MUL PUSH1 0x20 ADD DUP3 ADD PUSH1 0x40 MSTORE DUP1 ISZERO PUSH2 0xDE9 JUMPI DUP2 PUSH1 0x20 ADD PUSH1 0x20 DUP3 MUL DUP1 CALLDATASIZE DUP4 CALLDATACOPY DUP1 DUP3 ADD SWAP2 POP POP SWAP1 POP JUMPDEST POP SWAP1 POP DUP3 DUP2 PUSH1 0x0 DUP2 MLOAD DUP2 LT PUSH2 0xE01 JUMPI PUSH2 0xE00 PUSH2 0x1E86 JUMP JUMPDEST JUMPDEST PUSH1 0x20 MUL PUSH1 0x20 ADD ADD SWAP1 PUSH20 0xFFFFFFFFFFFFFFFFFFFFFFFFFFFFFFFFFFFFFFFF AND SWAP1 DUP2 PUSH20 0xFFFFFFFFFFFFFFFFFFFFFFFFFFFFFFFFFFFFFFFF AND DUP2 MSTORE POP POP PUSH1 0x2 PUSH1 0x0 SWAP1 SLOAD SWAP1 PUSH2 0x100 EXP SWAP1 DIV PUSH20 0xFFFFFFFFFFFFFFFFFFFFFFFFFFFFFFFFFFFFFFFF AND DUP2 PUSH1 0x1 DUP2 MLOAD DUP2 LT PUSH2 0xE72 JUMPI PUSH2 0xE71 PUSH2 0x1E86 JUMP JUMPDEST JUMPDEST PUSH1 0x20 MUL PUSH1 0x20 ADD ADD SWAP1 PUSH20 0xFFFFFFFFFFFFFFFFFFFFFFFFFFFFFFFFFFFFFFFF AND SWAP1 DUP2 PUSH20 0xFFFFFFFFFFFFFFFFFFFFFFFFFFFFFFFFFFFFFFFF AND DUP2 MSTORE POP POP PUSH1 0x4 PUSH1 0x0 SWAP1 SLOAD SWAP1 PUSH2 0x100 EXP SWAP1 DIV PUSH20 0xFFFFFFFFFFFFFFFFFFFFFFFFFFFFFFFFFFFFFFFF AND PUSH20 0xFFFFFFFFFFFFFFFFFFFFFFFFFFFFFFFFFFFFFFFF AND PUSH4 0xD06CA61F PUSH1 0x3 SLOAD DUP4 PUSH1 0x40 MLOAD DUP4 PUSH4 0xFFFFFFFF AND PUSH1 0xE0 SHL DUP2 MSTORE PUSH1 0x4 ADD PUSH2 0xF0B SWAP3 SWAP2 SWAP1 PUSH2 0x1F73 JUMP JUMPDEST PUSH1 0x0 PUSH1 0x40 MLOAD DUP1 DUP4 SUB DUP2 DUP7 GAS STATICCALL ISZERO DUP1 ISZERO PUSH2 0xF28 JUMPI RETURNDATASIZE PUSH1 0x0 DUP1 RETURNDATACOPY RETURNDATASIZE PUSH1 0x0 REVERT JUMPDEST POP POP POP POP PUSH1 0x40 MLOAD RETURNDATASIZE PUSH1 0x0 DUP3 RETURNDATACOPY RETURNDATASIZE PUSH1 0x1F NOT PUSH1 0x1F DUP3 ADD AND DUP3 ADD DUP1 PUSH1 0x40 MSTORE POP DUP2 ADD SWAP1 PUSH2 0xF51 SWAP2 SWAP1 PUSH2 0x20E2 JUMP JUMPDEST PUSH1 0x1 DUP2 MLOAD DUP2 LT PUSH2 0xF64 JUMPI PUSH2 0xF63 PUSH2 0x1E86 JUMP JUMPDEST JUMPDEST PUSH1 0x20 MUL PUSH1 0x20 ADD ADD MLOAD SWAP2 POP POP SWAP2 SWAP1 POP JUMP JUMPDEST PUSH1 0x2 PUSH1 0x0 SWAP1 SLOAD SWAP1 PUSH2 0x100 EXP SWAP1 DIV PUSH20 0xFFFFFFFFFFFFFFFFFFFFFFFFFFFFFFFFFFFFFFFF AND DUP2 JUMP JUMPDEST PUSH1 0x0 DUP1 DUP3 PUSH20 0xFFFFFFFFFFFFFFFFFFFFFFFFFFFFFFFFFFFFFFFF AND PUSH4 0x1526FE27 DUP6 PUSH1 0x40 MLOAD DUP3 PUSH4 0xFFFFFFFF AND PUSH1 0xE0 SHL DUP2 MSTORE PUSH1 0x4 ADD PUSH2 0xFD6 SWAP2 SWAP1 PUSH2 0x1B84 JUMP JUMPDEST PUSH1 0xC0 PUSH1 0x40 MLOAD DUP1 DUP4 SUB DUP2 DUP7 GAS STATICCALL ISZERO DUP1 ISZERO PUSH2 0xFF3 JUMPI RETURNDATASIZE PUSH1 0x0 DUP1 RETURNDATACOPY RETURNDATASIZE PUSH1 0x0 REVERT JUMPDEST POP POP POP POP PUSH1 0x40 MLOAD RETURNDATASIZE PUSH1 0x1F NOT PUSH1 0x1F DUP3 ADD AND DUP3 ADD DUP1 PUSH1 0x40 MSTORE POP DUP2 ADD SWAP1 PUSH2 0x1017 SWAP2 SWAP1 PUSH2 0x22A6 JUMP JUMPDEST SWAP1 POP PUSH1 0x0 PUSH2 0x10B4 DUP5 PUSH20 0xFFFFFFFFFFFFFFFFFFFFFFFFFFFFFFFFFFFFFFFF AND PUSH4 0x17CAF6F1 PUSH1 0x40 MLOAD DUP2 PUSH4 0xFFFFFFFF AND PUSH1 0xE0 SHL DUP2 MSTORE PUSH1 0x4 ADD PUSH1 0x20 PUSH1 0x40 MLOAD DUP1 DUP4 SUB DUP2 DUP7 GAS STATICCALL ISZERO DUP1 ISZERO PUSH2 0x1069 JUMPI RETURNDATASIZE PUSH1 0x0 DUP1 RETURNDATACOPY RETURNDATASIZE PUSH1 0x0 REVERT JUMPDEST POP POP POP POP PUSH1 0x40 MLOAD RETURNDATASIZE PUSH1 0x1F NOT PUSH1 0x1F DUP3 ADD AND DUP3 ADD DUP1 PUSH1 0x40 MSTORE POP DUP2 ADD SWAP1 PUSH2 0x108D SWAP2 SWAP1 PUSH2 0x2196 JUMP JUMPDEST PUSH2 0x10A6 PUSH1 0x3 SLOAD DUP6 PUSH1 0x20 ADD MLOAD PUSH2 0x187B SWAP1 SWAP2 SWAP1 PUSH4 0xFFFFFFFF AND JUMP JUMPDEST PUSH2 0x1953 SWAP1 SWAP2 SWAP1 PUSH4 0xFFFFFFFF AND JUMP JUMPDEST SWAP1 POP DUP1 SWAP3 POP POP POP SWAP3 SWAP2 POP POP JUMP JUMPDEST PUSH2 0x10C9 PUSH2 0x199D JUMP JUMPDEST PUSH20 0xFFFFFFFFFFFFFFFFFFFFFFFFFFFFFFFFFFFFFFFF AND PUSH2 0x10E7 PUSH2 0x1210 JUMP JUMPDEST PUSH20 0xFFFFFFFFFFFFFFFFFFFFFFFFFFFFFFFFFFFFFFFF AND EQ PUSH2 0x113D JUMPI PUSH1 0x40 MLOAD PUSH32 0x8C379A000000000000000000000000000000000000000000000000000000000 DUP2 MSTORE PUSH1 0x4 ADD PUSH2 0x1134 SWAP1 PUSH2 0x2330 JUMP JUMPDEST PUSH1 0x40 MLOAD DUP1 SWAP2 SUB SWAP1 REVERT JUMPDEST PUSH2 0x1147 PUSH1 0x0 PUSH2 0x19A5 JUMP JUMPDEST JUMP JUMPDEST PUSH1 0x0 DUP1 PUSH2 0x11CF DUP4 PUSH20 0xFFFFFFFFFFFFFFFFFFFFFFFFFFFFFFFFFFFFFFFF AND PUSH4 0xA1EEF821 PUSH1 0x40 MLOAD DUP2 PUSH4 0xFFFFFFFF AND PUSH1 0xE0 SHL DUP2 MSTORE PUSH1 0x4 ADD PUSH1 0x20 PUSH1 0x40 MLOAD DUP1 DUP4 SUB DUP2 DUP7 GAS STATICCALL ISZERO DUP1 ISZERO PUSH2 0x119A JUMPI RETURNDATASIZE PUSH1 0x0 DUP1 RETURNDATACOPY RETURNDATASIZE PUSH1 0x0 REVERT JUMPDEST POP POP POP POP PUSH1 0x40 MLOAD RETURNDATASIZE PUSH1 0x1F NOT PUSH1 0x1F DUP3 ADD AND DUP3 ADD DUP1 PUSH1 0x40 MSTORE POP DUP2 ADD SWAP1 PUSH2 0x11BE SWAP2 SWAP1 PUSH2 0x2196 JUMP JUMPDEST PUSH1 0x5 SLOAD PUSH2 0x187B SWAP1 SWAP2 SWAP1 PUSH4 0xFFFFFFFF AND JUMP JUMPDEST SWAP1 POP PUSH1 0x0 PUSH2 0x11EF PUSH2 0x11E0 DUP7 DUP7 PUSH2 0xF9A JUMP JUMPDEST DUP4 PUSH2 0x187B SWAP1 SWAP2 SWAP1 PUSH4 0xFFFFFFFF AND JUMP JUMPDEST SWAP1 POP PUSH2 0x1206 PUSH1 0x3 SLOAD DUP3 PUSH2 0x1953 SWAP1 SWAP2 SWAP1 PUSH4 0xFFFFFFFF AND JUMP JUMPDEST SWAP3 POP POP POP SWAP3 SWAP2 POP POP JUMP JUMPDEST PUSH1 0x0 DUP1 PUSH1 0x0 SWAP1 SLOAD SWAP1 PUSH2 0x100 EXP SWAP1 DIV PUSH20 0xFFFFFFFFFFFFFFFFFFFFFFFFFFFFFFFFFFFFFFFF AND SWAP1 POP SWAP1 JUMP JUMPDEST PUSH1 0x1 PUSH1 0x0 SWAP1 SLOAD SWAP1 PUSH2 0x100 EXP SWAP1 DIV PUSH20 0xFFFFFFFFFFFFFFFFFFFFFFFFFFFFFFFFFFFFFFFF AND DUP2 JUMP JUMPDEST PUSH2 0x1267 PUSH2 0x199D JUMP JUMPDEST PUSH20 0xFFFFFFFFFFFFFFFFFFFFFFFFFFFFFFFFFFFFFFFF AND PUSH2 0x1285 PUSH2 0x1210 JUMP JUMPDEST PUSH20 0xFFFFFFFFFFFFFFFFFFFFFFFFFFFFFFFFFFFFFFFF AND EQ PUSH2 0x12DB JUMPI PUSH1 0x40 MLOAD PUSH32 0x8C379A000000000000000000000000000000000000000000000000000000000 DUP2 MSTORE PUSH1 0x4 ADD PUSH2 0x12D2 SWAP1 PUSH2 0x2330 JUMP JUMPDEST PUSH1 0x40 MLOAD DUP1 SWAP2 SUB SWAP1 REVERT JUMPDEST DUP1 PUSH1 0x4 PUSH1 0x0 PUSH2 0x100 EXP DUP2 SLOAD DUP2 PUSH20 0xFFFFFFFFFFFFFFFFFFFFFFFFFFFFFFFFFFFFFFFF MUL NOT AND SWAP1 DUP4 PUSH20 0xFFFFFFFFFFFFFFFFFFFFFFFFFFFFFFFFFFFFFFFF AND MUL OR SWAP1 SSTORE POP POP JUMP JUMPDEST PUSH1 0x0 DUP1 DUP3 PUSH20 0xFFFFFFFFFFFFFFFFFFFFFFFFFFFFFFFFFFFFFFFF AND PUSH4 0x6A6D964E DUP8 PUSH1 0x40 MLOAD DUP3 PUSH4 0xFFFFFFFF AND PUSH1 0xE0 SHL DUP2 MSTORE PUSH1 0x4 ADD PUSH2 0x135B SWAP2 SWAP1 PUSH2 0x1B84 JUMP JUMPDEST PUSH1 0x20 PUSH1 0x40 MLOAD DUP1 DUP4 SUB DUP2 DUP7 GAS STATICCALL ISZERO DUP1 ISZERO PUSH2 0x1378 JUMPI RETURNDATASIZE PUSH1 0x0 DUP1 RETURNDATACOPY RETURNDATASIZE PUSH1 0x0 REVERT JUMPDEST POP POP POP POP PUSH1 0x40 MLOAD RETURNDATASIZE PUSH1 0x1F NOT PUSH1 0x1F DUP3 ADD AND DUP3 ADD DUP1 PUSH1 0x40 MSTORE POP DUP2 ADD SWAP1 PUSH2 0x139C SWAP2 SWAP1 PUSH2 0x2196 JUMP JUMPDEST SWAP1 POP PUSH1 0x0 DUP1 DUP6 SUB PUSH2 0x13B7 JUMPI PUSH2 0x13B0 DUP7 PUSH2 0x57C JUMP JUMPDEST SWAP1 POP PUSH2 0x1432 JUMP JUMPDEST PUSH1 0x1 DUP6 SUB PUSH2 0x1431 JUMPI DUP6 PUSH20 0xFFFFFFFFFFFFFFFFFFFFFFFFFFFFFFFFFFFFFFFF AND PUSH1 0x1 PUSH1 0x0 SWAP1 SLOAD SWAP1 PUSH2 0x100 EXP SWAP1 DIV PUSH20 0xFFFFFFFFFFFFFFFFFFFFFFFFFFFFFFFFFFFFFFFF AND PUSH20 0xFFFFFFFFFFFFFFFFFFFFFFFFFFFFFFFFFFFFFFFF AND SUB PUSH2 0x1424 JUMPI PUSH2 0x141D DUP7 PUSH2 0xD9D JUMP JUMPDEST SWAP1 POP PUSH2 0x1430 JUMP JUMPDEST PUSH2 0x142D DUP7 PUSH2 0x334 JUMP JUMPDEST SWAP1 POP JUMPDEST JUMPDEST JUMPDEST PUSH2 0x1452 PUSH1 0x3 SLOAD DUP3 DUP5 PUSH2 0x1444 SWAP2 SWAP1 PUSH2 0x237F JUMP JUMPDEST PUSH2 0x1953 SWAP1 SWAP2 SWAP1 PUSH4 0xFFFFFFFF AND JUMP JUMPDEST SWAP3 POP POP POP SWAP5 SWAP4 POP POP POP POP JUMP JUMPDEST PUSH1 0x0 DUP1 PUSH2 0x14D8 DUP4 PUSH20 0xFFFFFFFFFFFFFFFFFFFFFFFFFFFFFFFFFFFFFFFF AND PUSH4 0x141AA0BA PUSH1 0x40 MLOAD DUP2 PUSH4 0xFFFFFFFF AND PUSH1 0xE0 SHL DUP2 MSTORE PUSH1 0x4 ADD PUSH1 0x20 PUSH1 0x40 MLOAD DUP1 DUP4 SUB DUP2 DUP7 GAS STATICCALL ISZERO DUP1 ISZERO PUSH2 0x14AF JUMPI RETURNDATASIZE PUSH1 0x0 DUP1 RETURNDATACOPY RETURNDATASIZE PUSH1 0x0 REVERT JUMPDEST POP POP POP POP PUSH1 0x40 MLOAD RETURNDATASIZE PUSH1 0x1F NOT PUSH1 0x1F DUP3 ADD AND DUP3 ADD DUP1 PUSH1 0x40 MSTORE POP DUP2 ADD SWAP1 PUSH2 0x14D3 SWAP2 SWAP1 PUSH2 0x23EE JUMP JUMPDEST PUSH2 0x334 JUMP JUMPDEST SWAP1 POP DUP1 SWAP2 POP POP SWAP2 SWAP1 POP JUMP JUMPDEST PUSH1 0x0 DUP1 DUP3 PUSH20 0xFFFFFFFFFFFFFFFFFFFFFFFFFFFFFFFFFFFFFFFF AND PUSH4 0x1526FE27 DUP8 PUSH1 0x40 MLOAD DUP3 PUSH4 0xFFFFFFFF AND PUSH1 0xE0 SHL DUP2 MSTORE PUSH1 0x4 ADD PUSH2 0x151F SWAP2 SWAP1 PUSH2 0x1B84 JUMP JUMPDEST PUSH1 0xC0 PUSH1 0x40 MLOAD DUP1 DUP4 SUB DUP2 DUP7 GAS STATICCALL ISZERO DUP1 ISZERO PUSH2 0x153C JUMPI RETURNDATASIZE PUSH1 0x0 DUP1 RETURNDATACOPY RETURNDATASIZE PUSH1 0x0 REVERT JUMPDEST POP POP POP POP PUSH1 0x40 MLOAD RETURNDATASIZE PUSH1 0x1F NOT PUSH1 0x1F DUP3 ADD AND DUP3 ADD DUP1 PUSH1 0x40 MSTORE POP DUP2 ADD SWAP1 PUSH2 0x1560 SWAP2 SWAP1 PUSH2 0x22A6 JUMP JUMPDEST SWAP1 POP PUSH1 0x0 PUSH2 0x15FD DUP5 PUSH20 0xFFFFFFFFFFFFFFFFFFFFFFFFFFFFFFFFFFFFFFFF AND PUSH4 0x17CAF6F1 PUSH1 0x40 MLOAD DUP2 PUSH4 0xFFFFFFFF AND PUSH1 0xE0 SHL DUP2 MSTORE PUSH1 0x4 ADD PUSH1 0x20 PUSH1 0x40 MLOAD DUP1 DUP4 SUB DUP2 DUP7 GAS STATICCALL ISZERO DUP1 ISZERO PUSH2 0x15B2 JUMPI RETURNDATASIZE PUSH1 0x0 DUP1 RETURNDATACOPY RETURNDATASIZE PUSH1 0x0 REVERT JUMPDEST POP POP POP POP PUSH1 0x40 MLOAD RETURNDATASIZE PUSH1 0x1F NOT PUSH1 0x1F DUP3 ADD AND DUP3 ADD DUP1 PUSH1 0x40 MSTORE POP DUP2 ADD SWAP1 PUSH2 0x15D6 SWAP2 SWAP1 PUSH2 0x2196 JUMP JUMPDEST PUSH2 0x15EF PUSH1 0x3 SLOAD DUP6 PUSH1 0x20 ADD MLOAD PUSH2 0x187B SWAP1 SWAP2 SWAP1 PUSH4 0xFFFFFFFF AND JUMP JUMPDEST PUSH2 0x1953 SWAP1 SWAP2 SWAP1 PUSH4 0xFFFFFFFF AND JUMP JUMPDEST SWAP1 POP PUSH1 0x0 PUSH2 0x1678 DUP6 PUSH20 0xFFFFFFFFFFFFFFFFFFFFFFFFFFFFFFFFFFFFFFFF AND PUSH4 0x141AA0BA PUSH1 0x40 MLOAD DUP2 PUSH4 0xFFFFFFFF AND PUSH1 0xE0 SHL DUP2 MSTORE PUSH1 0x4 ADD PUSH1 0x20 PUSH1 0x40 MLOAD DUP1 DUP4 SUB DUP2 DUP7 GAS STATICCALL ISZERO DUP1 ISZERO PUSH2 0x164F JUMPI RETURNDATASIZE PUSH1 0x0 DUP1 RETURNDATACOPY RETURNDATASIZE PUSH1 0x0 REVERT JUMPDEST POP POP POP POP PUSH1 0x40 MLOAD RETURNDATASIZE PUSH1 0x1F NOT PUSH1 0x1F DUP3 ADD AND DUP3 ADD DUP1 PUSH1 0x40 MSTORE POP DUP2 ADD SWAP1 PUSH2 0x1673 SWAP2 SWAP1 PUSH2 0x23EE JUMP JUMPDEST PUSH2 0x334 JUMP JUMPDEST SWAP1 POP PUSH1 0x0 PUSH2 0x16FF DUP7 PUSH20 0xFFFFFFFFFFFFFFFFFFFFFFFFFFFFFFFFFFFFFFFF AND PUSH4 0xA1EEF821 PUSH1 0x40 MLOAD DUP2 PUSH4 0xFFFFFFFF AND PUSH1 0xE0 SHL DUP2 MSTORE PUSH1 0x4 ADD PUSH1 0x20 PUSH1 0x40 MLOAD DUP1 DUP4 SUB DUP2 DUP7 GAS STATICCALL ISZERO DUP1 ISZERO PUSH2 0x16CA JUMPI RETURNDATASIZE PUSH1 0x0 DUP1 RETURNDATACOPY RETURNDATASIZE PUSH1 0x0 REVERT JUMPDEST POP POP POP POP PUSH1 0x40 MLOAD RETURNDATASIZE PUSH1 0x1F NOT PUSH1 0x1F DUP3 ADD AND DUP3 ADD DUP1 PUSH1 0x40 MSTORE POP DUP2 ADD SWAP1 PUSH2 0x16EE SWAP2 SWAP1 PUSH2 0x2196 JUMP JUMPDEST PUSH1 0x5 SLOAD PUSH2 0x187B SWAP1 SWAP2 SWAP1 PUSH4 0xFFFFFFFF AND JUMP JUMPDEST SWAP1 POP PUSH1 0x0 PUSH2 0x172A PUSH1 0x3 SLOAD PUSH2 0x171C DUP7 DUP6 PUSH2 0x187B SWAP1 SWAP2 SWAP1 PUSH4 0xFFFFFFFF AND JUMP JUMPDEST PUSH2 0x1953 SWAP1 SWAP2 SWAP1 PUSH4 0xFFFFFFFF AND JUMP JUMPDEST SWAP1 POP PUSH1 0x0 PUSH2 0x173A DUP12 DUP12 DUP12 DUP12 PUSH2 0x131F JUMP JUMPDEST SWAP1 POP PUSH2 0x1774 PUSH1 0x64 PUSH2 0x1766 DUP4 PUSH2 0x1758 DUP9 DUP8 PUSH2 0x187B SWAP1 SWAP2 SWAP1 PUSH4 0xFFFFFFFF AND JUMP JUMPDEST PUSH2 0x1953 SWAP1 SWAP2 SWAP1 PUSH4 0xFFFFFFFF AND JUMP JUMPDEST PUSH2 0x187B SWAP1 SWAP2 SWAP1 PUSH4 0xFFFFFFFF AND JUMP JUMPDEST SWAP7 POP POP POP POP POP POP POP SWAP5 SWAP4 POP POP POP POP JUMP JUMPDEST PUSH2 0x178C PUSH2 0x199D JUMP JUMPDEST PUSH20 0xFFFFFFFFFFFFFFFFFFFFFFFFFFFFFFFFFFFFFFFF AND PUSH2 0x17AA PUSH2 0x1210 JUMP JUMPDEST PUSH20 0xFFFFFFFFFFFFFFFFFFFFFFFFFFFFFFFFFFFFFFFF AND EQ PUSH2 0x1800 JUMPI PUSH1 0x40 MLOAD PUSH32 0x8C379A000000000000000000000000000000000000000000000000000000000 DUP2 MSTORE PUSH1 0x4 ADD PUSH2 0x17F7 SWAP1 PUSH2 0x2330 JUMP JUMPDEST PUSH1 0x40 MLOAD DUP1 SWAP2 SUB SWAP1 REVERT JUMPDEST PUSH1 0x0 PUSH20 0xFFFFFFFFFFFFFFFFFFFFFFFFFFFFFFFFFFFFFFFF AND DUP2 PUSH20 0xFFFFFFFFFFFFFFFFFFFFFFFFFFFFFFFFFFFFFFFF AND SUB PUSH2 0x186F JUMPI PUSH1 0x40 MLOAD PUSH32 0x8C379A000000000000000000000000000000000000000000000000000000000 DUP2 MSTORE PUSH1 0x4 ADD PUSH2 0x1866 SWAP1 PUSH2 0x248D JUMP JUMPDEST PUSH1 0x40 MLOAD DUP1 SWAP2 SUB SWAP1 REVERT JUMPDEST PUSH2 0x1878 DUP2 PUSH2 0x19A5 JUMP JUMPDEST POP JUMP JUMPDEST PUSH1 0x0 DUP1 DUP4 SUB PUSH2 0x188D JUMPI PUSH1 0x0 SWAP1 POP PUSH2 0x18EF JUMP JUMPDEST PUSH1 0x0 DUP3 DUP5 PUSH2 0x189B SWAP2 SWAP1 PUSH2 0x237F JUMP JUMPDEST SWAP1 POP DUP3 DUP5 DUP3 PUSH2 0x18AA SWAP2 SWAP1 PUSH2 0x24DC JUMP JUMPDEST EQ PUSH2 0x18EA JUMPI PUSH1 0x40 MLOAD PUSH32 0x8C379A000000000000000000000000000000000000000000000000000000000 DUP2 MSTORE PUSH1 0x4 ADD PUSH2 0x18E1 SWAP1 PUSH2 0x257F JUMP JUMPDEST PUSH1 0x40 MLOAD DUP1 SWAP2 SUB SWAP1 REVERT JUMPDEST DUP1 SWAP2 POP POP JUMPDEST SWAP3 SWAP2 POP POP JUMP JUMPDEST PUSH1 0x0 DUP1 DUP3 DUP5 PUSH2 0x1904 SWAP2 SWAP1 PUSH2 0x259F JUMP JUMPDEST SWAP1 POP DUP4 DUP2 LT ISZERO PUSH2 0x1949 JUMPI PUSH1 0x40 MLOAD PUSH32 0x8C379A000000000000000000000000000000000000000000000000000000000 DUP2 MSTORE PUSH1 0x4 ADD PUSH2 0x1940 SWAP1 PUSH2 0x2641 JUMP JUMPDEST PUSH1 0x40 MLOAD DUP1 SWAP2 SUB SWAP1 REVERT JUMPDEST DUP1 SWAP2 POP POP SWAP3 SWAP2 POP POP JUMP JUMPDEST PUSH1 0x0 PUSH2 0x1995 DUP4 DUP4 PUSH1 0x40 MLOAD DUP1 PUSH1 0x40 ADD PUSH1 0x40 MSTORE DUP1 PUSH1 0x1A DUP2 MSTORE PUSH1 0x20 ADD PUSH32 0x536166654D6174683A206469766973696F6E206279207A65726F000000000000 DUP2 MSTORE POP PUSH2 0x1A69 JUMP JUMPDEST SWAP1 POP SWAP3 SWAP2 POP POP JUMP JUMPDEST PUSH1 0x0 CALLER SWAP1 POP SWAP1 JUMP JUMPDEST PUSH1 0x0 DUP1 PUSH1 0x0 SWAP1 SLOAD SWAP1 PUSH2 0x100 EXP SWAP1 DIV PUSH20 0xFFFFFFFFFFFFFFFFFFFFFFFFFFFFFFFFFFFFFFFF AND SWAP1 POP DUP2 PUSH1 0x0 DUP1 PUSH2 0x100 EXP DUP2 SLOAD DUP2 PUSH20 0xFFFFFFFFFFFFFFFFFFFFFFFFFFFFFFFFFFFFFFFF MUL NOT AND SWAP1 DUP4 PUSH20 0xFFFFFFFFFFFFFFFFFFFFFFFFFFFFFFFFFFFFFFFF AND MUL OR SWAP1 SSTORE POP DUP2 PUSH20 0xFFFFFFFFFFFFFFFFFFFFFFFFFFFFFFFFFFFFFFFF AND DUP2 PUSH20 0xFFFFFFFFFFFFFFFFFFFFFFFFFFFFFFFFFFFFFFFF AND PUSH32 0x8BE0079C531659141344CD1FD0A4F28419497F9722A3DAAFE3B4186F6B6457E0 PUSH1 0x40 MLOAD PUSH1 0x40 MLOAD DUP1 SWAP2 SUB SWAP1 LOG3 POP POP JUMP JUMPDEST PUSH1 0x0 DUP1 DUP4 GT DUP3 SWAP1 PUSH2 0x1AB0 JUMPI PUSH1 0x40 MLOAD PUSH32 0x8C379A000000000000000000000000000000000000000000000000000000000 DUP2 MSTORE PUSH1 0x4 ADD PUSH2 0x1AA7 SWAP2 SWAP1 PUSH2 0x26D8 JUMP JUMPDEST PUSH1 0x40 MLOAD DUP1 SWAP2 SUB SWAP1 REVERT JUMPDEST POP PUSH1 0x0 DUP4 DUP6 PUSH2 0x1ABF SWAP2 SWAP1 PUSH2 0x24DC JUMP JUMPDEST SWAP1 POP DUP1 SWAP2 POP POP SWAP4 SWAP3 POP POP POP JUMP JUMPDEST PUSH1 0x0 PUSH1 0x40 MLOAD SWAP1 POP SWAP1 JUMP JUMPDEST PUSH1 0x0 DUP1 REVERT JUMPDEST PUSH1 0x0 DUP1 REVERT JUMPDEST PUSH1 0x0 PUSH20 0xFFFFFFFFFFFFFFFFFFFFFFFFFFFFFFFFFFFFFFFF DUP3 AND SWAP1 POP SWAP2 SWAP1 POP JUMP JUMPDEST PUSH1 0x0 PUSH2 0x1B0B DUP3 PUSH2 0x1AE0 JUMP JUMPDEST SWAP1 POP SWAP2 SWAP1 POP JUMP JUMPDEST PUSH2 0x1B1B DUP2 PUSH2 0x1B00 JUMP JUMPDEST DUP2 EQ PUSH2 0x1B26 JUMPI PUSH1 0x0 DUP1 REVERT JUMPDEST POP JUMP JUMPDEST PUSH1 0x0 DUP2 CALLDATALOAD SWAP1 POP PUSH2 0x1B38 DUP2 PUSH2 0x1B12 JUMP JUMPDEST SWAP3 SWAP2 POP POP JUMP JUMPDEST PUSH1 0x0 PUSH1 0x20 DUP3 DUP5 SUB SLT ISZERO PUSH2 0x1B54 JUMPI PUSH2 0x1B53 PUSH2 0x1AD6 JUMP JUMPDEST JUMPDEST PUSH1 0x0 PUSH2 0x1B62 DUP5 DUP3 DUP6 ADD PUSH2 0x1B29 JUMP JUMPDEST SWAP2 POP POP SWAP3 SWAP2 POP POP JUMP JUMPDEST PUSH1 0x0 DUP2 SWAP1 POP SWAP2 SWAP1 POP JUMP JUMPDEST PUSH2 0x1B7E DUP2 PUSH2 0x1B6B JUMP JUMPDEST DUP3 MSTORE POP POP JUMP JUMPDEST PUSH1 0x0 PUSH1 0x20 DUP3 ADD SWAP1 POP PUSH2 0x1B99 PUSH1 0x0 DUP4 ADD DUP5 PUSH2 0x1B75 JUMP JUMPDEST SWAP3 SWAP2 POP POP JUMP JUMPDEST PUSH1 0x0 PUSH2 0x1BAA DUP3 PUSH2 0x1B00 JUMP JUMPDEST SWAP1 POP SWAP2 SWAP1 POP JUMP JUMPDEST PUSH2 0x1BBA DUP2 PUSH2 0x1B9F JUMP JUMPDEST DUP2 EQ PUSH2 0x1BC5 JUMPI PUSH1 0x0 DUP1 REVERT JUMPDEST POP JUMP JUMPDEST PUSH1 0x0 DUP2 CALLDATALOAD SWAP1 POP PUSH2 0x1BD7 DUP2 PUSH2 0x1BB1 JUMP JUMPDEST SWAP3 SWAP2 POP POP JUMP JUMPDEST PUSH1 0x0 PUSH1 0x20 DUP3 DUP5 SUB SLT ISZERO PUSH2 0x1BF3 JUMPI PUSH2 0x1BF2 PUSH2 0x1AD6 JUMP JUMPDEST JUMPDEST PUSH1 0x0 PUSH2 0x1C01 DUP5 DUP3 DUP6 ADD PUSH2 0x1BC8 JUMP JUMPDEST SWAP2 POP POP SWAP3 SWAP2 POP POP JUMP JUMPDEST PUSH1 0x0 DUP2 SWAP1 POP SWAP2 SWAP1 POP JUMP JUMPDEST PUSH1 0x0 PUSH2 0x1C2F PUSH2 0x1C2A PUSH2 0x1C25 DUP5 PUSH2 0x1AE0 JUMP JUMPDEST PUSH2 0x1C0A JUMP JUMPDEST PUSH2 0x1AE0 JUMP JUMPDEST SWAP1 POP SWAP2 SWAP1 POP JUMP JUMPDEST PUSH1 0x0 PUSH2 0x1C41 DUP3 PUSH2 0x1C14 JUMP JUMPDEST SWAP1 POP SWAP2 SWAP1 POP JUMP JUMPDEST PUSH1 0x0 PUSH2 0x1C53 DUP3 PUSH2 0x1C36 JUMP JUMPDEST SWAP1 POP SWAP2 SWAP1 POP JUMP JUMPDEST PUSH2 0x1C63 DUP2 PUSH2 0x1C48 JUMP JUMPDEST DUP3 MSTORE POP POP JUMP JUMPDEST PUSH1 0x0 PUSH1 0x20 DUP3 ADD SWAP1 POP PUSH2 0x1C7E PUSH1 0x0 DUP4 ADD DUP5 PUSH2 0x1C5A JUMP JUMPDEST SWAP3 SWAP2 POP POP JUMP JUMPDEST PUSH2 0x1C8D DUP2 PUSH2 0x1B00 JUMP JUMPDEST DUP3 MSTORE POP POP JUMP JUMPDEST PUSH1 0x0 PUSH1 0x20 DUP3 ADD SWAP1 POP PUSH2 0x1CA8 PUSH1 0x0 DUP4 ADD DUP5 PUSH2 0x1C84 JUMP JUMPDEST SWAP3 SWAP2 POP POP JUMP JUMPDEST PUSH2 0x1CB7 DUP2 PUSH2 0x1B6B JUMP JUMPDEST DUP2 EQ PUSH2 0x1CC2 JUMPI PUSH1 0x0 DUP1 REVERT JUMPDEST POP JUMP JUMPDEST PUSH1 0x0 DUP2 CALLDATALOAD SWAP1 POP PUSH2 0x1CD4 DUP2 PUSH2 0x1CAE JUMP JUMPDEST SWAP3 SWAP2 POP POP JUMP JUMPDEST PUSH1 0x0 PUSH2 0x1CE5 DUP3 PUSH2 0x1B00 JUMP JUMPDEST SWAP1 POP SWAP2 SWAP1 POP JUMP JUMPDEST PUSH2 0x1CF5 DUP2 PUSH2 0x1CDA JUMP JUMPDEST DUP2 EQ PUSH2 0x1D00 JUMPI PUSH1 0x0 DUP1 REVERT JUMPDEST POP JUMP JUMPDEST PUSH1 0x0 DUP2 CALLDATALOAD SWAP1 POP PUSH2 0x1D12 DUP2 PUSH2 0x1CEC JUMP JUMPDEST SWAP3 SWAP2 POP POP JUMP JUMPDEST PUSH1 0x0 DUP1 PUSH1 0x40 DUP4 DUP6 SUB SLT ISZERO PUSH2 0x1D2F JUMPI PUSH2 0x1D2E PUSH2 0x1AD6 JUMP JUMPDEST JUMPDEST PUSH1 0x0 PUSH2 0x1D3D DUP6 DUP3 DUP7 ADD PUSH2 0x1CC5 JUMP JUMPDEST SWAP3 POP POP PUSH1 0x20 PUSH2 0x1D4E DUP6 DUP3 DUP7 ADD PUSH2 0x1D03 JUMP JUMPDEST SWAP2 POP POP SWAP3 POP SWAP3 SWAP1 POP JUMP JUMPDEST PUSH1 0x0 PUSH2 0x1D63 DUP3 PUSH2 0x1B00 JUMP JUMPDEST SWAP1 POP SWAP2 SWAP1 POP JUMP JUMPDEST PUSH2 0x1D73 DUP2 PUSH2 0x1D58 JUMP JUMPDEST DUP2 EQ PUSH2 0x1D7E JUMPI PUSH1 0x0 DUP1 REVERT JUMPDEST POP JUMP JUMPDEST PUSH1 0x0 DUP2 CALLDATALOAD SWAP1 POP PUSH2 0x1D90 DUP2 PUSH2 0x1D6A JUMP JUMPDEST SWAP3 SWAP2 POP POP JUMP JUMPDEST PUSH1 0x0 PUSH1 0x20 DUP3 DUP5 SUB SLT ISZERO PUSH2 0x1DAC JUMPI PUSH2 0x1DAB PUSH2 0x1AD6 JUMP JUMPDEST JUMPDEST PUSH1 0x0 PUSH2 0x1DBA DUP5 DUP3 DUP6 ADD PUSH2 0x1D81 JUMP JUMPDEST SWAP2 POP POP SWAP3 SWAP2 POP POP JUMP JUMPDEST PUSH1 0x0 DUP1 PUSH1 0x0 DUP1 PUSH1 0x80 DUP6 DUP8 SUB SLT ISZERO PUSH2 0x1DDD JUMPI PUSH2 0x1DDC PUSH2 0x1AD6 JUMP JUMPDEST JUMPDEST PUSH1 0x0 PUSH2 0x1DEB DUP8 DUP3 DUP9 ADD PUSH2 0x1CC5 JUMP JUMPDEST SWAP5 POP POP PUSH1 0x20 PUSH2 0x1DFC DUP8 DUP3 DUP9 ADD PUSH2 0x1BC8 JUMP JUMPDEST SWAP4 POP POP PUSH1 0x40 PUSH2 0x1E0D DUP8 DUP3 DUP9 ADD PUSH2 0x1CC5 JUMP JUMPDEST SWAP3 POP POP PUSH1 0x60 PUSH2 0x1E1E DUP8 DUP3 DUP9 ADD PUSH2 0x1D03 JUMP JUMPDEST SWAP2 POP POP SWAP3 SWAP6 SWAP2 SWAP5 POP SWAP3 POP JUMP JUMPDEST PUSH1 0x0 PUSH1 0x20 DUP3 DUP5 SUB SLT ISZERO PUSH2 0x1E40 JUMPI PUSH2 0x1E3F PUSH2 0x1AD6 JUMP JUMPDEST JUMPDEST PUSH1 0x0 PUSH2 0x1E4E DUP5 DUP3 DUP6 ADD PUSH2 0x1D03 JUMP JUMPDEST SWAP2 POP POP SWAP3 SWAP2 POP POP JUMP JUMPDEST PUSH32 0x4E487B7100000000000000000000000000000000000000000000000000000000 PUSH1 0x0 MSTORE PUSH1 0x41 PUSH1 0x4 MSTORE PUSH1 0x24 PUSH1 0x0 REVERT JUMPDEST PUSH32 0x4E487B7100000000000000000000000000000000000000000000000000000000 PUSH1 0x0 MSTORE PUSH1 0x32 PUSH1 0x4 MSTORE PUSH1 0x24 PUSH1 0x0 REVERT JUMPDEST PUSH1 0x0 DUP2 MLOAD SWAP1 POP SWAP2 SWAP1 POP JUMP JUMPDEST PUSH1 0x0 DUP3 DUP3 MSTORE PUSH1 0x20 DUP3 ADD SWAP1 POP SWAP3 SWAP2 POP POP JUMP JUMPDEST PUSH1 0x0 DUP2 SWAP1 POP PUSH1 0x20 DUP3 ADD SWAP1 POP SWAP2 SWAP1 POP JUMP JUMPDEST PUSH2 0x1EEA DUP2 PUSH2 0x1B00 JUMP JUMPDEST DUP3 MSTORE POP POP JUMP JUMPDEST PUSH1 0x0 PUSH2 0x1EFC DUP4 DUP4 PUSH2 0x1EE1 JUMP JUMPDEST PUSH1 0x20 DUP4 ADD SWAP1 POP SWAP3 SWAP2 POP POP JUMP JUMPDEST PUSH1 0x0 PUSH1 0x20 DUP3 ADD SWAP1 POP SWAP2 SWAP1 POP JUMP JUMPDEST PUSH1 0x0 PUSH2 0x1F20 DUP3 PUSH2 0x1EB5 JUMP JUMPDEST PUSH2 0x1F2A DUP2 DUP6 PUSH2 0x1EC0 JUMP JUMPDEST SWAP4 POP PUSH2 0x1F35 DUP4 PUSH2 0x1ED1 JUMP JUMPDEST DUP1 PUSH1 0x0 JUMPDEST DUP4 DUP2 LT ISZERO PUSH2 0x1F66 JUMPI DUP2 MLOAD PUSH2 0x1F4D DUP9 DUP3 PUSH2 0x1EF0 JUMP JUMPDEST SWAP8 POP PUSH2 0x1F58 DUP4 PUSH2 0x1F08 JUMP JUMPDEST SWAP3 POP POP PUSH1 0x1 DUP2 ADD SWAP1 POP PUSH2 0x1F39 JUMP JUMPDEST POP DUP6 SWAP4 POP POP POP POP SWAP3 SWAP2 POP POP JUMP JUMPDEST PUSH1 0x0 PUSH1 0x40 DUP3 ADD SWAP1 POP PUSH2 0x1F88 PUSH1 0x0 DUP4 ADD DUP6 PUSH2 0x1B75 JUMP JUMPDEST DUP2 DUP2 SUB PUSH1 0x20 DUP4 ADD MSTORE PUSH2 0x1F9A DUP2 DUP5 PUSH2 0x1F15 JUMP JUMPDEST SWAP1 POP SWAP4 SWAP3 POP POP POP JUMP JUMPDEST PUSH1 0x0 DUP1 REVERT JUMPDEST PUSH1 0x0 PUSH1 0x1F NOT PUSH1 0x1F DUP4 ADD AND SWAP1 POP SWAP2 SWAP1 POP JUMP JUMPDEST PUSH2 0x1FC2 DUP3 PUSH2 0x1FA8 JUMP JUMPDEST DUP2 ADD DUP2 DUP2 LT PUSH8 0xFFFFFFFFFFFFFFFF DUP3 GT OR ISZERO PUSH2 0x1FE1 JUMPI PUSH2 0x1FE0 PUSH2 0x1E57 JUMP JUMPDEST JUMPDEST DUP1 PUSH1 0x40 MSTORE POP POP POP JUMP JUMPDEST PUSH1 0x0 PUSH2 0x1FF4 PUSH2 0x1ACC JUMP JUMPDEST SWAP1 POP PUSH2 0x2000 DUP3 DUP3 PUSH2 0x1FB9 JUMP JUMPDEST SWAP2 SWAP1 POP JUMP JUMPDEST PUSH1 0x0 PUSH8 0xFFFFFFFFFFFFFFFF DUP3 GT ISZERO PUSH2 0x2020 JUMPI PUSH2 0x201F PUSH2 0x1E57 JUMP JUMPDEST JUMPDEST PUSH1 0x20 DUP3 MUL SWAP1 POP PUSH1 0x20 DUP2 ADD SWAP1 POP SWAP2 SWAP1 POP JUMP JUMPDEST PUSH1 0x0 DUP1 REVERT JUMPDEST PUSH1 0x0 DUP2 MLOAD SWAP1 POP PUSH2 0x2045 DUP2 PUSH2 0x1CAE JUMP JUMPDEST SWAP3 SWAP2 POP POP JUMP JUMPDEST PUSH1 0x0 PUSH2 0x205E PUSH2 0x2059 DUP5 PUSH2 0x2005 JUMP JUMPDEST PUSH2 0x1FEA JUMP JUMPDEST SWAP1 POP DUP1 DUP4 DUP3 MSTORE PUSH1 0x20 DUP3 ADD SWAP1 POP PUSH1 0x20 DUP5 MUL DUP4 ADD DUP6 DUP2 GT ISZERO PUSH2 0x2081 JUMPI PUSH2 0x2080 PUSH2 0x2031 JUMP JUMPDEST JUMPDEST DUP4 JUMPDEST DUP2 DUP2 LT ISZERO PUSH2 0x20AA JUMPI DUP1 PUSH2 0x2096 DUP9 DUP3 PUSH2 0x2036 JUMP JUMPDEST DUP5 MSTORE PUSH1 0x20 DUP5 ADD SWAP4 POP POP PUSH1 0x20 DUP2 ADD SWAP1 POP PUSH2 0x2083 JUMP JUMPDEST POP POP POP SWAP4 SWAP3 POP POP POP JUMP JUMPDEST PUSH1 0x0 DUP3 PUSH1 0x1F DUP4 ADD SLT PUSH2 0x20C9 JUMPI PUSH2 0x20C8 PUSH2 0x1FA3 JUMP JUMPDEST JUMPDEST DUP2 MLOAD PUSH2 0x20D9 DUP5 DUP3 PUSH1 0x20 DUP7 ADD PUSH2 0x204B JUMP JUMPDEST SWAP2 POP POP SWAP3 SWAP2 POP POP JUMP JUMPDEST PUSH1 0x0 PUSH1 0x20 DUP3 DUP5 SUB SLT ISZERO PUSH2 0x20F8 JUMPI PUSH2 0x20F7 PUSH2 0x1AD6 JUMP JUMPDEST JUMPDEST PUSH1 0x0 DUP3 ADD MLOAD PUSH8 0xFFFFFFFFFFFFFFFF DUP2 GT ISZERO PUSH2 0x2116 JUMPI PUSH2 0x2115 PUSH2 0x1ADB JUMP JUMPDEST JUMPDEST PUSH2 0x2122 DUP5 DUP3 DUP6 ADD PUSH2 0x20B4 JUMP JUMPDEST SWAP2 POP POP SWAP3 SWAP2 POP POP JUMP JUMPDEST PUSH1 0x0 PUSH2 0x2136 DUP3 PUSH2 0x1B00 JUMP JUMPDEST SWAP1 POP SWAP2 SWAP1 POP JUMP JUMPDEST PUSH2 0x2146 DUP2 PUSH2 0x212B JUMP JUMPDEST DUP2 EQ PUSH2 0x2151 JUMPI PUSH1 0x0 DUP1 REVERT JUMPDEST POP JUMP JUMPDEST PUSH1 0x0 DUP2 MLOAD SWAP1 POP PUSH2 0x2163 DUP2 PUSH2 0x213D JUMP JUMPDEST SWAP3 SWAP2 POP POP JUMP JUMPDEST PUSH1 0x0 PUSH1 0x20 DUP3 DUP5 SUB SLT ISZERO PUSH2 0x217F JUMPI PUSH2 0x217E PUSH2 0x1AD6 JUMP JUMPDEST JUMPDEST PUSH1 0x0 PUSH2 0x218D DUP5 DUP3 DUP6 ADD PUSH2 0x2154 JUMP JUMPDEST SWAP2 POP POP SWAP3 SWAP2 POP POP JUMP JUMPDEST PUSH1 0x0 PUSH1 0x20 DUP3 DUP5 SUB SLT ISZERO PUSH2 0x21AC JUMPI PUSH2 0x21AB PUSH2 0x1AD6 JUMP JUMPDEST JUMPDEST PUSH1 0x0 PUSH2 0x21BA DUP5 DUP3 DUP6 ADD PUSH2 0x2036 JUMP JUMPDEST SWAP2 POP POP SWAP3 SWAP2 POP POP JUMP JUMPDEST PUSH1 0x0 DUP1 REVERT JUMPDEST PUSH1 0x0 PUSH2 0x21D3 DUP3 PUSH2 0x1B00 JUMP JUMPDEST SWAP1 POP SWAP2 SWAP1 POP JUMP JUMPDEST PUSH2 0x21E3 DUP2 PUSH2 0x21C8 JUMP JUMPDEST DUP2 EQ PUSH2 0x21EE JUMPI PUSH1 0x0 DUP1 REVERT JUMPDEST POP JUMP JUMPDEST PUSH1 0x0 DUP2 MLOAD SWAP1 POP PUSH2 0x2200 DUP2 PUSH2 0x21DA JUMP JUMPDEST SWAP3 SWAP2 POP POP JUMP JUMPDEST PUSH1 0x0 PUSH1 0xC0 DUP3 DUP5 SUB SLT ISZERO PUSH2 0x221C JUMPI PUSH2 0x221B PUSH2 0x21C3 JUMP JUMPDEST JUMPDEST PUSH2 0x2226 PUSH1 0xC0 PUSH2 0x1FEA JUMP JUMPDEST SWAP1 POP PUSH1 0x0 PUSH2 0x2236 DUP5 DUP3 DUP6 ADD PUSH2 0x2154 JUMP JUMPDEST PUSH1 0x0 DUP4 ADD MSTORE POP PUSH1 0x20 PUSH2 0x224A DUP5 DUP3 DUP6 ADD PUSH2 0x2036 JUMP JUMPDEST PUSH1 0x20 DUP4 ADD MSTORE POP PUSH1 0x40 PUSH2 0x225E DUP5 DUP3 DUP6 ADD PUSH2 0x2036 JUMP JUMPDEST PUSH1 0x40 DUP4 ADD MSTORE POP PUSH1 0x60 PUSH2 0x2272 DUP5 DUP3 DUP6 ADD PUSH2 0x2036 JUMP JUMPDEST PUSH1 0x60 DUP4 ADD MSTORE POP PUSH1 0x80 PUSH2 0x2286 DUP5 DUP3 DUP6 ADD PUSH2 0x21F1 JUMP JUMPDEST PUSH1 0x80 DUP4 ADD MSTORE POP PUSH1 0xA0 PUSH2 0x229A DUP5 DUP3 DUP6 ADD PUSH2 0x2154 JUMP JUMPDEST PUSH1 0xA0 DUP4 ADD MSTORE POP SWAP3 SWAP2 POP POP JUMP JUMPDEST PUSH1 0x0 PUSH1 0xC0 DUP3 DUP5 SUB SLT ISZERO PUSH2 0x22BC JUMPI PUSH2 0x22BB PUSH2 0x1AD6 JUMP JUMPDEST JUMPDEST PUSH1 0x0 PUSH2 0x22CA DUP5 DUP3 DUP6 ADD PUSH2 0x2206 JUMP JUMPDEST SWAP2 POP POP SWAP3 SWAP2 POP POP JUMP JUMPDEST PUSH1 0x0 DUP3 DUP3 MSTORE PUSH1 0x20 DUP3 ADD SWAP1 POP SWAP3 SWAP2 POP POP JUMP JUMPDEST PUSH32 0x4F776E61626C653A2063616C6C6572206973206E6F7420746865206F776E6572 PUSH1 0x0 DUP3 ADD MSTORE POP JUMP JUMPDEST PUSH1 0x0 PUSH2 0x231A PUSH1 0x20 DUP4 PUSH2 0x22D3 JUMP JUMPDEST SWAP2 POP PUSH2 0x2325 DUP3 PUSH2 0x22E4 JUMP JUMPDEST PUSH1 0x20 DUP3 ADD SWAP1 POP SWAP2 SWAP1 POP JUMP JUMPDEST PUSH1 0x0 PUSH1 0x20 DUP3 ADD SWAP1 POP DUP2 DUP2 SUB PUSH1 0x0 DUP4 ADD MSTORE PUSH2 0x2349 DUP2 PUSH2 0x230D JUMP JUMPDEST SWAP1 POP SWAP2 SWAP1 POP JUMP JUMPDEST PUSH32 0x4E487B7100000000000000000000000000000000000000000000000000000000 PUSH1 0x0 MSTORE PUSH1 0x11 PUSH1 0x4 MSTORE PUSH1 0x24 PUSH1 0x0 REVERT JUMPDEST PUSH1 0x0 PUSH2 0x238A DUP3 PUSH2 0x1B6B JUMP JUMPDEST SWAP2 POP PUSH2 0x2395 DUP4 PUSH2 0x1B6B JUMP JUMPDEST SWAP3 POP DUP2 PUSH32 0xFFFFFFFFFFFFFFFFFFFFFFFFFFFFFFFFFFFFFFFFFFFFFFFFFFFFFFFFFFFFFFFF DIV DUP4 GT DUP3 ISZERO ISZERO AND ISZERO PUSH2 0x23CE JUMPI PUSH2 0x23CD PUSH2 0x2350 JUMP JUMPDEST JUMPDEST DUP3 DUP3 MUL SWAP1 POP SWAP3 SWAP2 POP POP JUMP JUMPDEST PUSH1 0x0 DUP2 MLOAD SWAP1 POP PUSH2 0x23E8 DUP2 PUSH2 0x1B12 JUMP JUMPDEST SWAP3 SWAP2 POP POP JUMP JUMPDEST PUSH1 0x0 PUSH1 0x20 DUP3 DUP5 SUB SLT ISZERO PUSH2 0x2404 JUMPI PUSH2 0x2403 PUSH2 0x1AD6 JUMP JUMPDEST JUMPDEST PUSH1 0x0 PUSH2 0x2412 DUP5 DUP3 DUP6 ADD PUSH2 0x23D9 JUMP JUMPDEST SWAP2 POP POP SWAP3 SWAP2 POP POP JUMP JUMPDEST PUSH32 0x4F776E61626C653A206E6577206F776E657220697320746865207A65726F2061 PUSH1 0x0 DUP3 ADD MSTORE PUSH32 0x6464726573730000000000000000000000000000000000000000000000000000 PUSH1 0x20 DUP3 ADD MSTORE POP JUMP JUMPDEST PUSH1 0x0 PUSH2 0x2477 PUSH1 0x26 DUP4 PUSH2 0x22D3 JUMP JUMPDEST SWAP2 POP PUSH2 0x2482 DUP3 PUSH2 0x241B JUMP JUMPDEST PUSH1 0x40 DUP3 ADD SWAP1 POP SWAP2 SWAP1 POP JUMP JUMPDEST PUSH1 0x0 PUSH1 0x20 DUP3 ADD SWAP1 POP DUP2 DUP2 SUB PUSH1 0x0 DUP4 ADD MSTORE PUSH2 0x24A6 DUP2 PUSH2 0x246A JUMP JUMPDEST SWAP1 POP SWAP2 SWAP1 POP JUMP JUMPDEST PUSH32 0x4E487B7100000000000000000000000000000000000000000000000000000000 PUSH1 0x0 MSTORE PUSH1 0x12 PUSH1 0x4 MSTORE PUSH1 0x24 PUSH1 0x0 REVERT JUMPDEST PUSH1 0x0 PUSH2 0x24E7 DUP3 PUSH2 0x1B6B JUMP JUMPDEST SWAP2 POP PUSH2 0x24F2 DUP4 PUSH2 0x1B6B JUMP JUMPDEST SWAP3 POP DUP3 PUSH2 0x2502 JUMPI PUSH2 0x2501 PUSH2 0x24AD JUMP JUMPDEST JUMPDEST DUP3 DUP3 DIV SWAP1 POP SWAP3 SWAP2 POP POP JUMP JUMPDEST PUSH32 0x536166654D6174683A206D756C7469706C69636174696F6E206F766572666C6F PUSH1 0x0 DUP3 ADD MSTORE PUSH32 0x7700000000000000000000000000000000000000000000000000000000000000 PUSH1 0x20 DUP3 ADD MSTORE POP JUMP JUMPDEST PUSH1 0x0 PUSH2 0x2569 PUSH1 0x21 DUP4 PUSH2 0x22D3 JUMP JUMPDEST SWAP2 POP PUSH2 0x2574 DUP3 PUSH2 0x250D JUMP JUMPDEST PUSH1 0x40 DUP3 ADD SWAP1 POP SWAP2 SWAP1 POP JUMP JUMPDEST PUSH1 0x0 PUSH1 0x20 DUP3 ADD SWAP1 POP DUP2 DUP2 SUB PUSH1 0x0 DUP4 ADD MSTORE PUSH2 0x2598 DUP2 PUSH2 0x255C JUMP JUMPDEST SWAP1 POP SWAP2 SWAP1 POP JUMP JUMPDEST PUSH1 0x0 PUSH2 0x25AA DUP3 PUSH2 0x1B6B JUMP JUMPDEST SWAP2 POP PUSH2 0x25B5 DUP4 PUSH2 0x1B6B JUMP JUMPDEST SWAP3 POP DUP3 PUSH32 0xFFFFFFFFFFFFFFFFFFFFFFFFFFFFFFFFFFFFFFFFFFFFFFFFFFFFFFFFFFFFFFFF SUB DUP3 GT ISZERO PUSH2 0x25EA JUMPI PUSH2 0x25E9 PUSH2 0x2350 JUMP JUMPDEST JUMPDEST DUP3 DUP3 ADD SWAP1 POP SWAP3 SWAP2 POP POP JUMP JUMPDEST PUSH32 0x536166654D6174683A206164646974696F6E206F766572666C6F770000000000 PUSH1 0x0 DUP3 ADD MSTORE POP JUMP JUMPDEST PUSH1 0x0 PUSH2 0x262B PUSH1 0x1B DUP4 PUSH2 0x22D3 JUMP JUMPDEST SWAP2 POP PUSH2 0x2636 DUP3 PUSH2 0x25F5 JUMP JUMPDEST PUSH1 0x20 DUP3 ADD SWAP1 POP SWAP2 SWAP1 POP JUMP JUMPDEST PUSH1 0x0 PUSH1 0x20 DUP3 ADD SWAP1 POP DUP2 DUP2 SUB PUSH1 0x0 DUP4 ADD MSTORE PUSH2 0x265A DUP2 PUSH2 0x261E JUMP JUMPDEST SWAP1 POP SWAP2 SWAP1 POP JUMP JUMPDEST PUSH1 0x0 DUP2 MLOAD SWAP1 POP SWAP2 SWAP1 POP JUMP JUMPDEST PUSH1 0x0 JUMPDEST DUP4 DUP2 LT ISZERO PUSH2 0x268A JUMPI DUP1 DUP3 ADD MLOAD DUP2 DUP5 ADD MSTORE PUSH1 0x20 DUP2 ADD SWAP1 POP PUSH2 0x266F JUMP JUMPDEST DUP4 DUP2 GT ISZERO PUSH2 0x2699 JUMPI PUSH1 0x0 DUP5 DUP5 ADD MSTORE JUMPDEST POP POP POP POP JUMP JUMPDEST PUSH1 0x0 PUSH2 0x26AA DUP3 PUSH2 0x2661 JUMP JUMPDEST PUSH2 0x26B4 DUP2 DUP6 PUSH2 0x22D3 JUMP JUMPDEST SWAP4 POP PUSH2 0x26C4 DUP2 DUP6 PUSH1 0x20 DUP7 ADD PUSH2 0x266C JUMP JUMPDEST PUSH2 0x26CD DUP2 PUSH2 0x1FA8 JUMP JUMPDEST DUP5 ADD SWAP2 POP POP SWAP3 SWAP2 POP POP JUMP JUMPDEST PUSH1 0x0 PUSH1 0x20 DUP3 ADD SWAP1 POP DUP2 DUP2 SUB PUSH1 0x0 DUP4 ADD MSTORE PUSH2 0x26F2 DUP2 DUP5 PUSH2 0x269F JUMP JUMPDEST SWAP1 POP SWAP3 SWAP2 POP POP JUMP INVALID LOG2 PUSH5 0x6970667358 0x22 SLT KECCAK256 0x2E 0xA8 0xDB PUSH14 0x44899636B489D6218DEE2FAEFE4E 0x5F PUSH32 0x42D897D138F562B60AA20EF164736F6C634300080F0033000000000000000000 "
				},
				"gasEstimates": {
					"creation": {
						"codeDepositCost": "2006400",
						"executionCost": "infinite",
						"totalCost": "infinite"
					},
					"external": {
						"BUSD()": "2559",
						"CalcApy(uint256,address,uint256,address)": "infinite",
						"CalcLpPrice(address)": "infinite",
						"Tokenprice(address)": "infinite",
						"WBNB()": "2581",
						"WBNBPrice(address)": "infinite",
						"calcPoolTVLInUSD(uint256,address,uint256,address)": "infinite",
						"getPoolWeight(uint256,address)": "infinite",
						"getRewardTokenPrice(address)": "infinite",
						"getyearlyDRGRewardAllocation(uint256,address)": "infinite",
						"owner()": "2567",
						"renounceOwnership()": "30463",
						"routerAddress()": "infinite",
						"setRouter(address)": "27094",
						"transferOwnership(address)": "30808"
					}
				},
				"methodIdentifiers": {
					"BUSD()": "484f4ea9",
					"CalcApy(uint256,address,uint256,address)": "dbb79348",
					"CalcLpPrice(address)": "215cc989",
					"Tokenprice(address)": "19047f8a",
					"WBNB()": "8dd95002",
					"WBNBPrice(address)": "3b979d45",
					"calcPoolTVLInUSD(uint256,address,uint256,address)": "d979fb5f",
					"getPoolWeight(uint256,address)": "4abddbe3",
					"getRewardTokenPrice(address)": "dba88007",
					"getyearlyDRGRewardAllocation(uint256,address)": "88eee253",
					"owner()": "8da5cb5b",
					"renounceOwnership()": "715018a6",
					"routerAddress()": "3268cc56",
					"setRouter(address)": "c0d78655",
					"transferOwnership(address)": "f2fde38b"
				}
			},
			"storageLayout": {
				"storage": [
					{
						"astId": 509,
						"contract": "contracts/Utils.sol:Utils",
						"label": "_owner",
						"offset": 0,
						"slot": "0",
						"type": "t_address"
					},
					{
						"astId": 753,
						"contract": "contracts/Utils.sol:Utils",
						"label": "WBNB",
						"offset": 0,
						"slot": "1",
						"type": "t_address"
					},
					{
						"astId": 756,
						"contract": "contracts/Utils.sol:Utils",
						"label": "BUSD",
						"offset": 0,
						"slot": "2",
						"type": "t_address"
					},
					{
						"astId": 759,
						"contract": "contracts/Utils.sol:Utils",
						"label": "amount",
						"offset": 0,
						"slot": "3",
						"type": "t_uint256"
					},
					{
						"astId": 762,
						"contract": "contracts/Utils.sol:Utils",
						"label": "routerAddress",
						"offset": 0,
						"slot": "4",
						"type": "t_contract(Router)644"
					},
					{
						"astId": 765,
						"contract": "contracts/Utils.sol:Utils",
						"label": "BLOCKS_PER_YEAR",
						"offset": 0,
						"slot": "5",
						"type": "t_uint256"
					}
				],
				"types": {
					"t_address": {
						"encoding": "inplace",
						"label": "address",
						"numberOfBytes": "20"
					},
					"t_contract(Router)644": {
						"encoding": "inplace",
						"label": "contract Router",
						"numberOfBytes": "20"
					},
					"t_uint256": {
						"encoding": "inplace",
						"label": "uint256",
						"numberOfBytes": "32"
					}
				}
			},
			"userdoc": {
				"kind": "user",
				"methods": {},
				"version": 1
			}
		}
	}
}