{
	"contracts/Utils.sol": {
		"Utils": {
			"abi": [
				{
					"inputs": [
						{
							"internalType": "contract Router",
							"name": "_routerAddress",
							"type": "address"
						},
						{
							"internalType": "address",
							"name": "_WBNB",
							"type": "address"
						},
						{
							"internalType": "address",
							"name": "_BUSD",
							"type": "address"
						}
					],
					"stateMutability": "nonpayable",
					"type": "constructor"
				},
				{
					"anonymous": false,
					"inputs": [
						{
							"indexed": true,
							"internalType": "address",
							"name": "previousOwner",
							"type": "address"
						},
						{
							"indexed": true,
							"internalType": "address",
							"name": "newOwner",
							"type": "address"
						}
					],
					"name": "OwnershipTransferred",
					"type": "event"
				},
				{
					"inputs": [],
					"name": "BUSD",
					"outputs": [
						{
							"internalType": "address",
							"name": "",
							"type": "address"
						}
					],
					"stateMutability": "view",
					"type": "function"
				},
				{
					"inputs": [
						{
							"internalType": "uint256",
							"name": "pid",
							"type": "uint256"
						},
						{
							"internalType": "contract LP",
							"name": "lpAddress",
							"type": "address"
						},
						{
							"internalType": "uint256",
							"name": "isLp",
							"type": "uint256"
						},
						{
							"internalType": "contract MetaMasterChef",
							"name": "MasterChef",
							"type": "address"
						}
					],
					"name": "CalcApy",
					"outputs": [
						{
							"internalType": "uint256",
							"name": "",
							"type": "uint256"
						}
					],
					"stateMutability": "view",
					"type": "function"
				},
				{
					"inputs": [
						{
							"internalType": "contract LP",
							"name": "lpAddress",
							"type": "address"
						}
					],
					"name": "CalcLpPrice",
					"outputs": [
						{
							"internalType": "uint256",
							"name": "",
							"type": "uint256"
						}
					],
					"stateMutability": "view",
					"type": "function"
				},
				{
					"inputs": [
						{
							"internalType": "contract MetaMasterChef",
							"name": "MasterChef",
							"type": "address"
						},
						{
							"internalType": "contract LP",
							"name": "lpAddress",
							"type": "address"
						}
					],
					"name": "CalcTotalTVL",
					"outputs": [
						{
							"internalType": "uint256",
							"name": "",
							"type": "uint256"
						}
					],
					"stateMutability": "view",
					"type": "function"
				},
				{
					"inputs": [
						{
							"internalType": "address",
							"name": "token",
							"type": "address"
						}
					],
					"name": "Tokenprice",
					"outputs": [
						{
							"internalType": "uint256",
							"name": "",
							"type": "uint256"
						}
					],
					"stateMutability": "view",
					"type": "function"
				},
				{
					"inputs": [],
					"name": "WBNB",
					"outputs": [
						{
							"internalType": "address",
							"name": "",
							"type": "address"
						}
					],
					"stateMutability": "view",
					"type": "function"
				},
				{
					"inputs": [
						{
							"internalType": "address",
							"name": "token",
							"type": "address"
						}
					],
					"name": "WBNBPrice",
					"outputs": [
						{
							"internalType": "uint256",
							"name": "",
							"type": "uint256"
						}
					],
					"stateMutability": "view",
					"type": "function"
				},
				{
					"inputs": [
						{
							"internalType": "uint256",
							"name": "pid",
							"type": "uint256"
						},
						{
							"internalType": "contract LP",
							"name": "lpAddress",
							"type": "address"
						},
						{
							"internalType": "uint256",
							"name": "isLp",
							"type": "uint256"
						},
						{
							"internalType": "contract MetaMasterChef",
							"name": "MasterChef",
							"type": "address"
						}
					],
					"name": "calcPoolTVLInUSD",
					"outputs": [
						{
							"internalType": "uint256",
							"name": "",
							"type": "uint256"
						}
					],
					"stateMutability": "view",
					"type": "function"
				},
				{
					"inputs": [
						{
							"internalType": "contract LP",
							"name": "lpAddress",
							"type": "address"
						}
					],
					"name": "isLpAddress",
					"outputs": [
						{
							"internalType": "uint256",
							"name": "",
							"type": "uint256"
						}
					],
					"stateMutability": "view",
					"type": "function"
				},
				{
					"inputs": [],
					"name": "owner",
					"outputs": [
						{
							"internalType": "address",
							"name": "",
							"type": "address"
						}
					],
					"stateMutability": "view",
					"type": "function"
				},
				{
					"inputs": [],
					"name": "renounceOwnership",
					"outputs": [],
					"stateMutability": "nonpayable",
					"type": "function"
				},
				{
					"inputs": [],
					"name": "routerAddress",
					"outputs": [
						{
							"internalType": "contract Router",
							"name": "",
							"type": "address"
						}
					],
					"stateMutability": "view",
					"type": "function"
				},
				{
					"inputs": [
						{
							"internalType": "contract Router",
							"name": "_routerAddress",
							"type": "address"
						}
					],
					"name": "setRouter",
					"outputs": [],
					"stateMutability": "nonpayable",
					"type": "function"
				},
				{
					"inputs": [
						{
							"internalType": "address",
							"name": "newOwner",
							"type": "address"
						}
					],
					"name": "transferOwnership",
					"outputs": [],
					"stateMutability": "nonpayable",
					"type": "function"
				}
			],
			"devdoc": {
				"kind": "dev",
				"methods": {
					"owner()": {
						"details": "Returns the address of the current owner."
					},
					"renounceOwnership()": {
						"details": "Leaves the contract without owner. It will not be possible to call `onlyOwner` functions anymore. Can only be called by the current owner. NOTE: Renouncing ownership will leave the contract without an owner, thereby removing any functionality that is only available to the owner."
					},
					"transferOwnership(address)": {
						"details": "Transfers ownership of the contract to a new account (`newOwner`). Can only be called by the current owner."
					}
				},
				"version": 1
			},
			"evm": {
				"assembly": "    /* \"contracts/Utils.sol\":17259:21305  contract Utils is Ownable{... */\n  mstore(0x40, 0x80)\n    /* \"contracts/Utils.sol\":17509:17528  1000000000000000000 */\n  0x0de0b6b3a7640000\n    /* \"contracts/Utils.sol\":17492:17528  uint256 amount = 1000000000000000000 */\n  0x03\n  sstore\n    /* \"contracts/Utils.sol\":17597:17605  10512000 */\n  0xa06680\n    /* \"contracts/Utils.sol\":17571:17605  uint256 BLOCKS_PER_YEAR = 10512000 */\n  0x05\n  sstore\n    /* \"contracts/Utils.sol\":17615:17778  constructor(Router _routerAddress, address _WBNB, address _BUSD) {... */\n  callvalue\n  dup1\n  iszero\n  tag_1\n  jumpi\n  0x00\n  dup1\n  revert\ntag_1:\n  pop\n  mload(0x40)\n  sub(codesize, bytecodeSize)\n  dup1\n  bytecodeSize\n  dup4\n  codecopy\n  dup2\n  dup2\n  add\n  0x40\n  mstore\n  dup2\n  add\n  swap1\n  tag_2\n  swap2\n  swap1\n  tag_3\n  jump\t// in\ntag_2:\n    /* \"contracts/Utils.sol\":13728:13760  _transferOwnership(_msgSender()) */\n  tag_7\n    /* \"contracts/Utils.sol\":13747:13759  _msgSender() */\n  tag_8\n    /* \"contracts/Utils.sol\":13747:13757  _msgSender */\n  shl(0x20, tag_9)\n    /* \"contracts/Utils.sol\":13747:13759  _msgSender() */\n  0x20\n  shr\n  jump\t// in\ntag_8:\n    /* \"contracts/Utils.sol\":13728:13746  _transferOwnership */\n  shl(0x20, tag_10)\n    /* \"contracts/Utils.sol\":13728:13760  _transferOwnership(_msgSender()) */\n  0x20\n  shr\n  jump\t// in\ntag_7:\n    /* \"contracts/Utils.sol\":17708:17722  _routerAddress */\n  dup3\n    /* \"contracts/Utils.sol\":17692:17705  routerAddress */\n  0x04\n  0x00\n    /* \"contracts/Utils.sol\":17692:17722  routerAddress = _routerAddress */\n  0x0100\n  exp\n  dup2\n  sload\n  dup2\n  0xffffffffffffffffffffffffffffffffffffffff\n  mul\n  not\n  and\n  swap1\n  dup4\n  0xffffffffffffffffffffffffffffffffffffffff\n  and\n  mul\n  or\n  swap1\n  sstore\n  pop\n    /* \"contracts/Utils.sol\":17741:17746  _WBNB */\n  dup2\n    /* \"contracts/Utils.sol\":17734:17738  WBNB */\n  0x01\n  0x00\n    /* \"contracts/Utils.sol\":17734:17746  WBNB = _WBNB */\n  0x0100\n  exp\n  dup2\n  sload\n  dup2\n  0xffffffffffffffffffffffffffffffffffffffff\n  mul\n  not\n  and\n  swap1\n  dup4\n  0xffffffffffffffffffffffffffffffffffffffff\n  and\n  mul\n  or\n  swap1\n  sstore\n  pop\n    /* \"contracts/Utils.sol\":17765:17770  _BUSD */\n  dup1\n    /* \"contracts/Utils.sol\":17758:17762  BUSD */\n  0x02\n  0x00\n    /* \"contracts/Utils.sol\":17758:17770  BUSD = _BUSD */\n  0x0100\n  exp\n  dup2\n  sload\n  dup2\n  0xffffffffffffffffffffffffffffffffffffffff\n  mul\n  not\n  and\n  swap1\n  dup4\n  0xffffffffffffffffffffffffffffffffffffffff\n  and\n  mul\n  or\n  swap1\n  sstore\n  pop\n    /* \"contracts/Utils.sol\":17615:17778  constructor(Router _routerAddress, address _WBNB, address _BUSD) {... */\n  pop\n  pop\n  pop\n    /* \"contracts/Utils.sol\":17259:21305  contract Utils is Ownable{... */\n  jump(tag_12)\n    /* \"contracts/Utils.sol\":13223:13321  function _msgSender() internal view virtual returns (address) {... */\ntag_9:\n    /* \"contracts/Utils.sol\":13276:13283  address */\n  0x00\n    /* \"contracts/Utils.sol\":13303:13313  msg.sender */\n  caller\n    /* \"contracts/Utils.sol\":13296:13313  return msg.sender */\n  swap1\n  pop\n    /* \"contracts/Utils.sol\":13223:13321  function _msgSender() internal view virtual returns (address) {... */\n  swap1\n  jump\t// out\n    /* \"contracts/Utils.sol\":15119:15310  function _transferOwnership(address newOwner) internal virtual {... */\ntag_10:\n    /* \"contracts/Utils.sol\":15193:15209  address oldOwner */\n  0x00\n    /* \"contracts/Utils.sol\":15212:15218  _owner */\n  dup1\n  0x00\n  swap1\n  sload\n  swap1\n  0x0100\n  exp\n  swap1\n  div\n  0xffffffffffffffffffffffffffffffffffffffff\n  and\n    /* \"contracts/Utils.sol\":15193:15218  address oldOwner = _owner */\n  swap1\n  pop\n    /* \"contracts/Utils.sol\":15238:15246  newOwner */\n  dup2\n    /* \"contracts/Utils.sol\":15229:15235  _owner */\n  0x00\n  dup1\n    /* \"contracts/Utils.sol\":15229:15246  _owner = newOwner */\n  0x0100\n  exp\n  dup2\n  sload\n  dup2\n  0xffffffffffffffffffffffffffffffffffffffff\n  mul\n  not\n  and\n  swap1\n  dup4\n  0xffffffffffffffffffffffffffffffffffffffff\n  and\n  mul\n  or\n  swap1\n  sstore\n  pop\n    /* \"contracts/Utils.sol\":15293:15301  newOwner */\n  dup2\n    /* \"contracts/Utils.sol\":15262:15302  OwnershipTransferred(oldOwner, newOwner) */\n  0xffffffffffffffffffffffffffffffffffffffff\n  and\n    /* \"contracts/Utils.sol\":15283:15291  oldOwner */\n  dup2\n    /* \"contracts/Utils.sol\":15262:15302  OwnershipTransferred(oldOwner, newOwner) */\n  0xffffffffffffffffffffffffffffffffffffffff\n  and\n  0x8be0079c531659141344cd1fd0a4f28419497f9722a3daafe3b4186f6b6457e0\n  mload(0x40)\n  mload(0x40)\n  dup1\n  swap2\n  sub\n  swap1\n  log3\n    /* \"contracts/Utils.sol\":15182:15310  {... */\n  pop\n    /* \"contracts/Utils.sol\":15119:15310  function _transferOwnership(address newOwner) internal virtual {... */\n  pop\n  jump\t// out\n    /* \"#utility.yul\":88:205   */\ntag_16:\n    /* \"#utility.yul\":197:198   */\n  0x00\n    /* \"#utility.yul\":194:195   */\n  dup1\n    /* \"#utility.yul\":187:199   */\n  revert\n    /* \"#utility.yul\":334:460   */\ntag_18:\n    /* \"#utility.yul\":371:378   */\n  0x00\n    /* \"#utility.yul\":411:453   */\n  0xffffffffffffffffffffffffffffffffffffffff\n    /* \"#utility.yul\":404:409   */\n  dup3\n    /* \"#utility.yul\":400:454   */\n  and\n    /* \"#utility.yul\":389:454   */\n  swap1\n  pop\n    /* \"#utility.yul\":334:460   */\n  swap2\n  swap1\n  pop\n  jump\t// out\n    /* \"#utility.yul\":466:562   */\ntag_19:\n    /* \"#utility.yul\":503:510   */\n  0x00\n    /* \"#utility.yul\":532:556   */\n  tag_31\n    /* \"#utility.yul\":550:555   */\n  dup3\n    /* \"#utility.yul\":532:556   */\n  tag_18\n  jump\t// in\ntag_31:\n    /* \"#utility.yul\":521:556   */\n  swap1\n  pop\n    /* \"#utility.yul\":466:562   */\n  swap2\n  swap1\n  pop\n  jump\t// out\n    /* \"#utility.yul\":568:678   */\ntag_20:\n    /* \"#utility.yul\":619:626   */\n  0x00\n    /* \"#utility.yul\":648:672   */\n  tag_33\n    /* \"#utility.yul\":666:671   */\n  dup3\n    /* \"#utility.yul\":648:672   */\n  tag_19\n  jump\t// in\ntag_33:\n    /* \"#utility.yul\":637:672   */\n  swap1\n  pop\n    /* \"#utility.yul\":568:678   */\n  swap2\n  swap1\n  pop\n  jump\t// out\n    /* \"#utility.yul\":684:834   */\ntag_21:\n    /* \"#utility.yul\":771:809   */\n  tag_35\n    /* \"#utility.yul\":803:808   */\n  dup2\n    /* \"#utility.yul\":771:809   */\n  tag_20\n  jump\t// in\ntag_35:\n    /* \"#utility.yul\":764:769   */\n  dup2\n    /* \"#utility.yul\":761:810   */\n  eq\n    /* \"#utility.yul\":751:828   */\n  tag_36\n  jumpi\n    /* \"#utility.yul\":824:825   */\n  0x00\n    /* \"#utility.yul\":821:822   */\n  dup1\n    /* \"#utility.yul\":814:826   */\n  revert\n    /* \"#utility.yul\":751:828   */\ntag_36:\n    /* \"#utility.yul\":684:834   */\n  pop\n  jump\t// out\n    /* \"#utility.yul\":840:1011   */\ntag_22:\n    /* \"#utility.yul\":911:916   */\n  0x00\n    /* \"#utility.yul\":942:948   */\n  dup2\n    /* \"#utility.yul\":936:949   */\n  mload\n    /* \"#utility.yul\":927:949   */\n  swap1\n  pop\n    /* \"#utility.yul\":958:1005   */\n  tag_38\n    /* \"#utility.yul\":999:1004   */\n  dup2\n    /* \"#utility.yul\":958:1005   */\n  tag_21\n  jump\t// in\ntag_38:\n    /* \"#utility.yul\":840:1011   */\n  swap3\n  swap2\n  pop\n  pop\n  jump\t// out\n    /* \"#utility.yul\":1017:1139   */\ntag_23:\n    /* \"#utility.yul\":1090:1114   */\n  tag_40\n    /* \"#utility.yul\":1108:1113   */\n  dup2\n    /* \"#utility.yul\":1090:1114   */\n  tag_19\n  jump\t// in\ntag_40:\n    /* \"#utility.yul\":1083:1088   */\n  dup2\n    /* \"#utility.yul\":1080:1115   */\n  eq\n    /* \"#utility.yul\":1070:1133   */\n  tag_41\n  jumpi\n    /* \"#utility.yul\":1129:1130   */\n  0x00\n    /* \"#utility.yul\":1126:1127   */\n  dup1\n    /* \"#utility.yul\":1119:1131   */\n  revert\n    /* \"#utility.yul\":1070:1133   */\ntag_41:\n    /* \"#utility.yul\":1017:1139   */\n  pop\n  jump\t// out\n    /* \"#utility.yul\":1145:1288   */\ntag_24:\n    /* \"#utility.yul\":1202:1207   */\n  0x00\n    /* \"#utility.yul\":1233:1239   */\n  dup2\n    /* \"#utility.yul\":1227:1240   */\n  mload\n    /* \"#utility.yul\":1218:1240   */\n  swap1\n  pop\n    /* \"#utility.yul\":1249:1282   */\n  tag_43\n    /* \"#utility.yul\":1276:1281   */\n  dup2\n    /* \"#utility.yul\":1249:1282   */\n  tag_23\n  jump\t// in\ntag_43:\n    /* \"#utility.yul\":1145:1288   */\n  swap3\n  swap2\n  pop\n  pop\n  jump\t// out\n    /* \"#utility.yul\":1294:1985   */\ntag_3:\n    /* \"#utility.yul\":1396:1402   */\n  0x00\n    /* \"#utility.yul\":1404:1410   */\n  dup1\n    /* \"#utility.yul\":1412:1418   */\n  0x00\n    /* \"#utility.yul\":1461:1463   */\n  0x60\n    /* \"#utility.yul\":1449:1458   */\n  dup5\n    /* \"#utility.yul\":1440:1447   */\n  dup7\n    /* \"#utility.yul\":1436:1459   */\n  sub\n    /* \"#utility.yul\":1432:1464   */\n  slt\n    /* \"#utility.yul\":1429:1548   */\n  iszero\n  tag_45\n  jumpi\n    /* \"#utility.yul\":1467:1546   */\n  tag_46\n  tag_16\n  jump\t// in\ntag_46:\n    /* \"#utility.yul\":1429:1548   */\ntag_45:\n    /* \"#utility.yul\":1587:1588   */\n  0x00\n    /* \"#utility.yul\":1612:1690   */\n  tag_47\n    /* \"#utility.yul\":1682:1689   */\n  dup7\n    /* \"#utility.yul\":1673:1679   */\n  dup3\n    /* \"#utility.yul\":1662:1671   */\n  dup8\n    /* \"#utility.yul\":1658:1680   */\n  add\n    /* \"#utility.yul\":1612:1690   */\n  tag_22\n  jump\t// in\ntag_47:\n    /* \"#utility.yul\":1602:1690   */\n  swap4\n  pop\n    /* \"#utility.yul\":1558:1700   */\n  pop\n    /* \"#utility.yul\":1739:1741   */\n  0x20\n    /* \"#utility.yul\":1765:1829   */\n  tag_48\n    /* \"#utility.yul\":1821:1828   */\n  dup7\n    /* \"#utility.yul\":1812:1818   */\n  dup3\n    /* \"#utility.yul\":1801:1810   */\n  dup8\n    /* \"#utility.yul\":1797:1819   */\n  add\n    /* \"#utility.yul\":1765:1829   */\n  tag_24\n  jump\t// in\ntag_48:\n    /* \"#utility.yul\":1755:1829   */\n  swap3\n  pop\n    /* \"#utility.yul\":1710:1839   */\n  pop\n    /* \"#utility.yul\":1878:1880   */\n  0x40\n    /* \"#utility.yul\":1904:1968   */\n  tag_49\n    /* \"#utility.yul\":1960:1967   */\n  dup7\n    /* \"#utility.yul\":1951:1957   */\n  dup3\n    /* \"#utility.yul\":1940:1949   */\n  dup8\n    /* \"#utility.yul\":1936:1958   */\n  add\n    /* \"#utility.yul\":1904:1968   */\n  tag_24\n  jump\t// in\ntag_49:\n    /* \"#utility.yul\":1894:1968   */\n  swap2\n  pop\n    /* \"#utility.yul\":1849:1978   */\n  pop\n    /* \"#utility.yul\":1294:1985   */\n  swap3\n  pop\n  swap3\n  pop\n  swap3\n  jump\t// out\n    /* \"contracts/Utils.sol\":17259:21305  contract Utils is Ownable{... */\ntag_12:\n  dataSize(sub_0)\n  dup1\n  dataOffset(sub_0)\n  0x00\n  codecopy\n  0x00\n  return\nstop\n\nsub_0: assembly {\n        /* \"contracts/Utils.sol\":17259:21305  contract Utils is Ownable{... */\n      mstore(0x40, 0x80)\n      callvalue\n      dup1\n      iszero\n      tag_1\n      jumpi\n      0x00\n      dup1\n      revert\n    tag_1:\n      pop\n      jumpi(tag_2, lt(calldatasize, 0x04))\n      shr(0xe0, calldataload(0x00))\n      dup1\n      0x8da5cb5b\n      gt\n      tag_17\n      jumpi\n      dup1\n      0xc0d78655\n      gt\n      tag_18\n      jumpi\n      dup1\n      0xc0d78655\n      eq\n      tag_13\n      jumpi\n      dup1\n      0xd979fb5f\n      eq\n      tag_14\n      jumpi\n      dup1\n      0xdbb79348\n      eq\n      tag_15\n      jumpi\n      dup1\n      0xf2fde38b\n      eq\n      tag_16\n      jumpi\n      jump(tag_2)\n    tag_18:\n      dup1\n      0x8da5cb5b\n      eq\n      tag_10\n      jumpi\n      dup1\n      0x8dd95002\n      eq\n      tag_11\n      jumpi\n      dup1\n      0x91c6579e\n      eq\n      tag_12\n      jumpi\n      jump(tag_2)\n    tag_17:\n      dup1\n      0x3268cc56\n      gt\n      tag_19\n      jumpi\n      dup1\n      0x3268cc56\n      eq\n      tag_6\n      jumpi\n      dup1\n      0x3b979d45\n      eq\n      tag_7\n      jumpi\n      dup1\n      0x484f4ea9\n      eq\n      tag_8\n      jumpi\n      dup1\n      0x715018a6\n      eq\n      tag_9\n      jumpi\n      jump(tag_2)\n    tag_19:\n      dup1\n      0x19047f8a\n      eq\n      tag_3\n      jumpi\n      dup1\n      0x215cc989\n      eq\n      tag_4\n      jumpi\n      dup1\n      0x2f7c5980\n      eq\n      tag_5\n      jumpi\n    tag_2:\n      0x00\n      dup1\n      revert\n        /* \"contracts/Utils.sol\":17918:18177  function Tokenprice(address token) public view returns(uint256){... */\n    tag_3:\n      tag_20\n      0x04\n      dup1\n      calldatasize\n      sub\n      dup2\n      add\n      swap1\n      tag_21\n      swap2\n      swap1\n      tag_22\n      jump\t// in\n    tag_21:\n      tag_23\n      jump\t// in\n    tag_20:\n      mload(0x40)\n      tag_24\n      swap2\n      swap1\n      tag_25\n      jump\t// in\n    tag_24:\n      mload(0x40)\n      dup1\n      swap2\n      sub\n      swap1\n      return\n        /* \"contracts/Utils.sol\":18460:19308  function CalcLpPrice(LP lpAddress) public view returns(uint256){... */\n    tag_4:\n      tag_26\n      0x04\n      dup1\n      calldatasize\n      sub\n      dup2\n      add\n      swap1\n      tag_27\n      swap2\n      swap1\n      tag_28\n      jump\t// in\n    tag_27:\n      tag_29\n      jump\t// in\n    tag_26:\n      mload(0x40)\n      tag_30\n      swap2\n      swap1\n      tag_25\n      jump\t// in\n    tag_30:\n      mload(0x40)\n      dup1\n      swap2\n      sub\n      swap1\n      return\n        /* \"contracts/Utils.sol\":20620:20799  function isLpAddress(LP lpAddress) public view returns(uint256){... */\n    tag_5:\n      tag_31\n      0x04\n      dup1\n      calldatasize\n      sub\n      dup2\n      add\n      swap1\n      tag_32\n      swap2\n      swap1\n      tag_28\n      jump\t// in\n    tag_32:\n      tag_33\n      jump\t// in\n    tag_31:\n      mload(0x40)\n      tag_34\n      swap2\n      swap1\n      tag_25\n      jump\t// in\n    tag_34:\n      mload(0x40)\n      dup1\n      swap2\n      sub\n      swap1\n      return\n        /* \"contracts/Utils.sol\":17535:17562  Router public routerAddress */\n    tag_6:\n      tag_35\n      tag_36\n      jump\t// in\n    tag_35:\n      mload(0x40)\n      tag_37\n      swap2\n      swap1\n      tag_38\n      jump\t// in\n    tag_37:\n      mload(0x40)\n      dup1\n      swap2\n      sub\n      swap1\n      return\n        /* \"contracts/Utils.sol\":18202:18435  function WBNBPrice(address token) public view returns(uint256){... */\n    tag_7:\n      tag_39\n      0x04\n      dup1\n      calldatasize\n      sub\n      dup2\n      add\n      swap1\n      tag_40\n      swap2\n      swap1\n      tag_22\n      jump\t// in\n    tag_40:\n      tag_41\n      jump\t// in\n    tag_39:\n      mload(0x40)\n      tag_42\n      swap2\n      swap1\n      tag_25\n      jump\t// in\n    tag_42:\n      mload(0x40)\n      dup1\n      swap2\n      sub\n      swap1\n      return\n        /* \"contracts/Utils.sol\":17466:17485  address public BUSD */\n    tag_8:\n      tag_43\n      tag_44\n      jump\t// in\n    tag_43:\n      mload(0x40)\n      tag_45\n      swap2\n      swap1\n      tag_46\n      jump\t// in\n    tag_45:\n      mload(0x40)\n      dup1\n      swap2\n      sub\n      swap1\n      return\n        /* \"contracts/Utils.sol\":14500:14603  function renounceOwnership() public virtual onlyOwner {... */\n    tag_9:\n      tag_47\n      tag_48\n      jump\t// in\n    tag_47:\n      stop\n        /* \"contracts/Utils.sol\":13849:13936  function owner() public view virtual returns (address) {... */\n    tag_10:\n      tag_49\n      tag_50\n      jump\t// in\n    tag_49:\n      mload(0x40)\n      tag_51\n      swap2\n      swap1\n      tag_46\n      jump\t// in\n    tag_51:\n      mload(0x40)\n      dup1\n      swap2\n      sub\n      swap1\n      return\n        /* \"contracts/Utils.sol\":17440:17459  address public WBNB */\n    tag_11:\n      tag_52\n      tag_53\n      jump\t// in\n    tag_52:\n      mload(0x40)\n      tag_54\n      swap2\n      swap1\n      tag_46\n      jump\t// in\n    tag_54:\n      mload(0x40)\n      dup1\n      swap2\n      sub\n      swap1\n      return\n        /* \"contracts/Utils.sol\":20807:21302  function CalcTotalTVL(MetaMasterChef MasterChef,LP lpAddress) external view returns(uint256){... */\n    tag_12:\n      tag_55\n      0x04\n      dup1\n      calldatasize\n      sub\n      dup2\n      add\n      swap1\n      tag_56\n      swap2\n      swap1\n      tag_57\n      jump\t// in\n    tag_56:\n      tag_58\n      jump\t// in\n    tag_55:\n      mload(0x40)\n      tag_59\n      swap2\n      swap1\n      tag_25\n      jump\t// in\n    tag_59:\n      mload(0x40)\n      dup1\n      swap2\n      sub\n      swap1\n      return\n        /* \"contracts/Utils.sol\":17786:17893  function setRouter(Router _routerAddress) public onlyOwner{... */\n    tag_13:\n      tag_60\n      0x04\n      dup1\n      calldatasize\n      sub\n      dup2\n      add\n      swap1\n      tag_61\n      swap2\n      swap1\n      tag_62\n      jump\t// in\n    tag_61:\n      tag_63\n      jump\t// in\n    tag_60:\n      stop\n        /* \"contracts/Utils.sol\":19331:19902  function calcPoolTVLInUSD(uint256 pid, LP lpAddress, uint256 isLp, MetaMasterChef MasterChef) public view returns(uint256){... */\n    tag_14:\n      tag_64\n      0x04\n      dup1\n      calldatasize\n      sub\n      dup2\n      add\n      swap1\n      tag_65\n      swap2\n      swap1\n      tag_66\n      jump\t// in\n    tag_65:\n      tag_67\n      jump\t// in\n    tag_64:\n      mload(0x40)\n      tag_68\n      swap2\n      swap1\n      tag_25\n      jump\t// in\n    tag_68:\n      mload(0x40)\n      dup1\n      swap2\n      sub\n      swap1\n      return\n        /* \"contracts/Utils.sol\":19910:20612  function CalcApy(uint256 pid, LP lpAddress,uint256 isLp, MetaMasterChef MasterChef) external view returns(uint256){... */\n    tag_15:\n      tag_69\n      0x04\n      dup1\n      calldatasize\n      sub\n      dup2\n      add\n      swap1\n      tag_70\n      swap2\n      swap1\n      tag_66\n      jump\t// in\n    tag_70:\n      tag_71\n      jump\t// in\n    tag_69:\n      mload(0x40)\n      tag_72\n      swap2\n      swap1\n      tag_25\n      jump\t// in\n    tag_72:\n      mload(0x40)\n      dup1\n      swap2\n      sub\n      swap1\n      return\n        /* \"contracts/Utils.sol\":14758:14959  function transferOwnership(address newOwner) public virtual onlyOwner {... */\n    tag_16:\n      tag_73\n      0x04\n      dup1\n      calldatasize\n      sub\n      dup2\n      add\n      swap1\n      tag_74\n      swap2\n      swap1\n      tag_22\n      jump\t// in\n    tag_74:\n      tag_75\n      jump\t// in\n    tag_73:\n      stop\n        /* \"contracts/Utils.sol\":17918:18177  function Tokenprice(address token) public view returns(uint256){... */\n    tag_23:\n        /* \"contracts/Utils.sol\":17973:17980  uint256 */\n      0x00\n        /* \"contracts/Utils.sol\":17992:18013  address[] memory path */\n      dup1\n        /* \"contracts/Utils.sol\":18030:18031  3 */\n      0x03\n        /* \"contracts/Utils.sol\":18016:18032  new address[](3) */\n      0xffffffffffffffff\n      dup2\n      gt\n      iszero\n      tag_77\n      jumpi\n      tag_78\n      tag_79\n      jump\t// in\n    tag_78:\n    tag_77:\n      mload(0x40)\n      swap1\n      dup1\n      dup3\n      mstore\n      dup1\n      0x20\n      mul\n      0x20\n      add\n      dup3\n      add\n      0x40\n      mstore\n      dup1\n      iszero\n      tag_80\n      jumpi\n      dup2\n      0x20\n      add\n      0x20\n      dup3\n      mul\n      dup1\n      calldatasize\n      dup4\n      calldatacopy\n      dup1\n      dup3\n      add\n      swap2\n      pop\n      pop\n      swap1\n      pop\n    tag_80:\n      pop\n        /* \"contracts/Utils.sol\":17992:18032  address[] memory path = new address[](3) */\n      swap1\n      pop\n        /* \"contracts/Utils.sol\":18053:18058  token */\n      dup3\n        /* \"contracts/Utils.sol\":18043:18047  path */\n      dup2\n        /* \"contracts/Utils.sol\":18048:18049  0 */\n      0x00\n        /* \"contracts/Utils.sol\":18043:18050  path[0] */\n      dup2\n      mload\n      dup2\n      lt\n      tag_81\n      jumpi\n      tag_82\n      tag_83\n      jump\t// in\n    tag_82:\n    tag_81:\n      0x20\n      mul\n      0x20\n      add\n      add\n        /* \"contracts/Utils.sol\":18043:18058  path[0] = token */\n      swap1\n      0xffffffffffffffffffffffffffffffffffffffff\n      and\n      swap1\n      dup2\n      0xffffffffffffffffffffffffffffffffffffffff\n      and\n      dup2\n      mstore\n      pop\n      pop\n        /* \"contracts/Utils.sol\":18079:18083  WBNB */\n      0x01\n      0x00\n      swap1\n      sload\n      swap1\n      0x0100\n      exp\n      swap1\n      div\n      0xffffffffffffffffffffffffffffffffffffffff\n      and\n        /* \"contracts/Utils.sol\":18069:18073  path */\n      dup2\n        /* \"contracts/Utils.sol\":18074:18075  1 */\n      0x01\n        /* \"contracts/Utils.sol\":18069:18076  path[1] */\n      dup2\n      mload\n      dup2\n      lt\n      tag_84\n      jumpi\n      tag_85\n      tag_83\n      jump\t// in\n    tag_85:\n    tag_84:\n      0x20\n      mul\n      0x20\n      add\n      add\n        /* \"contracts/Utils.sol\":18069:18083  path[1] = WBNB */\n      swap1\n      0xffffffffffffffffffffffffffffffffffffffff\n      and\n      swap1\n      dup2\n      0xffffffffffffffffffffffffffffffffffffffff\n      and\n      dup2\n      mstore\n      pop\n      pop\n        /* \"contracts/Utils.sol\":18104:18108  BUSD */\n      0x02\n      0x00\n      swap1\n      sload\n      swap1\n      0x0100\n      exp\n      swap1\n      div\n      0xffffffffffffffffffffffffffffffffffffffff\n      and\n        /* \"contracts/Utils.sol\":18094:18098  path */\n      dup2\n        /* \"contracts/Utils.sol\":18099:18100  2 */\n      0x02\n        /* \"contracts/Utils.sol\":18094:18101  path[2] */\n      dup2\n      mload\n      dup2\n      lt\n      tag_86\n      jumpi\n      tag_87\n      tag_83\n      jump\t// in\n    tag_87:\n    tag_86:\n      0x20\n      mul\n      0x20\n      add\n      add\n        /* \"contracts/Utils.sol\":18094:18108  path[2] = BUSD */\n      swap1\n      0xffffffffffffffffffffffffffffffffffffffff\n      and\n      swap1\n      dup2\n      0xffffffffffffffffffffffffffffffffffffffff\n      and\n      dup2\n      mstore\n      pop\n      pop\n        /* \"contracts/Utils.sol\":18126:18139  routerAddress */\n      0x04\n      0x00\n      swap1\n      sload\n      swap1\n      0x0100\n      exp\n      swap1\n      div\n      0xffffffffffffffffffffffffffffffffffffffff\n      and\n        /* \"contracts/Utils.sol\":18126:18153  routerAddress.getAmountsOut */\n      0xffffffffffffffffffffffffffffffffffffffff\n      and\n      0xd06ca61f\n        /* \"contracts/Utils.sol\":18154:18160  amount */\n      sload(0x03)\n        /* \"contracts/Utils.sol\":18161:18165  path */\n      dup4\n        /* \"contracts/Utils.sol\":18126:18166  routerAddress.getAmountsOut(amount,path) */\n      mload(0x40)\n      dup4\n      0xffffffff\n      and\n      0xe0\n      shl\n      dup2\n      mstore\n      0x04\n      add\n      tag_88\n      swap3\n      swap2\n      swap1\n      tag_89\n      jump\t// in\n    tag_88:\n      0x00\n      mload(0x40)\n      dup1\n      dup4\n      sub\n      dup2\n      dup7\n      gas\n      staticcall\n      iszero\n      dup1\n      iszero\n      tag_91\n      jumpi\n      returndatasize\n      0x00\n      dup1\n      returndatacopy\n      revert(0x00, returndatasize)\n    tag_91:\n      pop\n      pop\n      pop\n      pop\n      mload(0x40)\n      returndatasize\n      0x00\n      dup3\n      returndatacopy\n      returndatasize\n      not(0x1f)\n      0x1f\n      dup3\n      add\n      and\n      dup3\n      add\n      dup1\n      0x40\n      mstore\n      pop\n      dup2\n      add\n      swap1\n      tag_92\n      swap2\n      swap1\n      tag_93\n      jump\t// in\n    tag_92:\n        /* \"contracts/Utils.sol\":18167:18168  2 */\n      0x02\n        /* \"contracts/Utils.sol\":18126:18169  routerAddress.getAmountsOut(amount,path)[2] */\n      dup2\n      mload\n      dup2\n      lt\n      tag_94\n      jumpi\n      tag_95\n      tag_83\n      jump\t// in\n    tag_95:\n    tag_94:\n      0x20\n      mul\n      0x20\n      add\n      add\n      mload\n        /* \"contracts/Utils.sol\":18119:18169  return routerAddress.getAmountsOut(amount,path)[2] */\n      swap2\n      pop\n      pop\n        /* \"contracts/Utils.sol\":17918:18177  function Tokenprice(address token) public view returns(uint256){... */\n      swap2\n      swap1\n      pop\n      jump\t// out\n        /* \"contracts/Utils.sol\":18460:19308  function CalcLpPrice(LP lpAddress) public view returns(uint256){... */\n    tag_29:\n        /* \"contracts/Utils.sol\":18515:18522  uint256 */\n      0x00\n        /* \"contracts/Utils.sol\":18534:18548  uint256 phase1 */\n      dup1\n        /* \"contracts/Utils.sol\":18559:18573  uint256 phase2 */\n      0x00\n        /* \"contracts/Utils.sol\":18612:18621  lpAddress */\n      dup4\n        /* \"contracts/Utils.sol\":18612:18628  lpAddress.token0 */\n      0xffffffffffffffffffffffffffffffffffffffff\n      and\n      0x0dfe1681\n        /* \"contracts/Utils.sol\":18612:18630  lpAddress.token0() */\n      mload(0x40)\n      dup2\n      0xffffffff\n      and\n      0xe0\n      shl\n      dup2\n      mstore\n      0x04\n      add\n      0x20\n      mload(0x40)\n      dup1\n      dup4\n      sub\n      dup2\n      dup7\n      gas\n      staticcall\n      iszero\n      dup1\n      iszero\n      tag_98\n      jumpi\n      returndatasize\n      0x00\n      dup1\n      returndatacopy\n      revert(0x00, returndatasize)\n    tag_98:\n      pop\n      pop\n      pop\n      pop\n      mload(0x40)\n      returndatasize\n      not(0x1f)\n      0x1f\n      dup3\n      add\n      and\n      dup3\n      add\n      dup1\n      0x40\n      mstore\n      pop\n      dup2\n      add\n      swap1\n      tag_99\n      swap2\n      swap1\n      tag_100\n      jump\t// in\n    tag_99:\n        /* \"contracts/Utils.sol\":18587:18631  address(WBNB) == address(lpAddress.token0()) */\n      0xffffffffffffffffffffffffffffffffffffffff\n      and\n        /* \"contracts/Utils.sol\":18595:18599  WBNB */\n      0x01\n      0x00\n      swap1\n      sload\n      swap1\n      0x0100\n      exp\n      swap1\n      div\n      0xffffffffffffffffffffffffffffffffffffffff\n      and\n        /* \"contracts/Utils.sol\":18587:18631  address(WBNB) == address(lpAddress.token0()) */\n      0xffffffffffffffffffffffffffffffffffffffff\n      and\n      sub\n        /* \"contracts/Utils.sol\":18584:18897  if(address(WBNB) == address(lpAddress.token0())){... */\n      tag_101\n      jumpi\n        /* \"contracts/Utils.sol\":18657:18749  lpAddress.token0().balanceOf(address(lpAddress)).mul(WBNBPrice(address(lpAddress.token0()))) */\n      tag_102\n        /* \"contracts/Utils.sol\":18710:18748  WBNBPrice(address(lpAddress.token0())) */\n      tag_103\n        /* \"contracts/Utils.sol\":18728:18737  lpAddress */\n      dup6\n        /* \"contracts/Utils.sol\":18728:18744  lpAddress.token0 */\n      0xffffffffffffffffffffffffffffffffffffffff\n      and\n      0x0dfe1681\n        /* \"contracts/Utils.sol\":18728:18746  lpAddress.token0() */\n      mload(0x40)\n      dup2\n      0xffffffff\n      and\n      0xe0\n      shl\n      dup2\n      mstore\n      0x04\n      add\n      0x20\n      mload(0x40)\n      dup1\n      dup4\n      sub\n      dup2\n      dup7\n      gas\n      staticcall\n      iszero\n      dup1\n      iszero\n      tag_105\n      jumpi\n      returndatasize\n      0x00\n      dup1\n      returndatacopy\n      revert(0x00, returndatasize)\n    tag_105:\n      pop\n      pop\n      pop\n      pop\n      mload(0x40)\n      returndatasize\n      not(0x1f)\n      0x1f\n      dup3\n      add\n      and\n      dup3\n      add\n      dup1\n      0x40\n      mstore\n      pop\n      dup2\n      add\n      swap1\n      tag_106\n      swap2\n      swap1\n      tag_100\n      jump\t// in\n    tag_106:\n        /* \"contracts/Utils.sol\":18710:18719  WBNBPrice */\n      tag_41\n        /* \"contracts/Utils.sol\":18710:18748  WBNBPrice(address(lpAddress.token0())) */\n      jump\t// in\n    tag_103:\n        /* \"contracts/Utils.sol\":18657:18666  lpAddress */\n      dup6\n        /* \"contracts/Utils.sol\":18657:18673  lpAddress.token0 */\n      0xffffffffffffffffffffffffffffffffffffffff\n      and\n      0x0dfe1681\n        /* \"contracts/Utils.sol\":18657:18675  lpAddress.token0() */\n      mload(0x40)\n      dup2\n      0xffffffff\n      and\n      0xe0\n      shl\n      dup2\n      mstore\n      0x04\n      add\n      0x20\n      mload(0x40)\n      dup1\n      dup4\n      sub\n      dup2\n      dup7\n      gas\n      staticcall\n      iszero\n      dup1\n      iszero\n      tag_108\n      jumpi\n      returndatasize\n      0x00\n      dup1\n      returndatacopy\n      revert(0x00, returndatasize)\n    tag_108:\n      pop\n      pop\n      pop\n      pop\n      mload(0x40)\n      returndatasize\n      not(0x1f)\n      0x1f\n      dup3\n      add\n      and\n      dup3\n      add\n      dup1\n      0x40\n      mstore\n      pop\n      dup2\n      add\n      swap1\n      tag_109\n      swap2\n      swap1\n      tag_100\n      jump\t// in\n    tag_109:\n        /* \"contracts/Utils.sol\":18657:18685  lpAddress.token0().balanceOf */\n      0xffffffffffffffffffffffffffffffffffffffff\n      and\n      0x70a08231\n        /* \"contracts/Utils.sol\":18694:18703  lpAddress */\n      dup8\n        /* \"contracts/Utils.sol\":18657:18705  lpAddress.token0().balanceOf(address(lpAddress)) */\n      mload(0x40)\n      dup3\n      0xffffffff\n      and\n      0xe0\n      shl\n      dup2\n      mstore\n      0x04\n      add\n      tag_110\n      swap2\n      swap1\n      tag_46\n      jump\t// in\n    tag_110:\n      0x20\n      mload(0x40)\n      dup1\n      dup4\n      sub\n      dup2\n      dup7\n      gas\n      staticcall\n      iszero\n      dup1\n      iszero\n      tag_112\n      jumpi\n      returndatasize\n      0x00\n      dup1\n      returndatacopy\n      revert(0x00, returndatasize)\n    tag_112:\n      pop\n      pop\n      pop\n      pop\n      mload(0x40)\n      returndatasize\n      not(0x1f)\n      0x1f\n      dup3\n      add\n      and\n      dup3\n      add\n      dup1\n      0x40\n      mstore\n      pop\n      dup2\n      add\n      swap1\n      tag_113\n      swap2\n      swap1\n      tag_114\n      jump\t// in\n    tag_113:\n        /* \"contracts/Utils.sol\":18657:18709  lpAddress.token0().balanceOf(address(lpAddress)).mul */\n      tag_115\n      swap1\n        /* \"contracts/Utils.sol\":18657:18749  lpAddress.token0().balanceOf(address(lpAddress)).mul(WBNBPrice(address(lpAddress.token0()))) */\n      swap2\n      swap1\n      0xffffffff\n      and\n      jump\t// in\n    tag_102:\n        /* \"contracts/Utils.sol\":18647:18750  phase1 = (lpAddress.token0().balanceOf(address(lpAddress)).mul(WBNBPrice(address(lpAddress.token0())))) */\n      swap2\n      pop\n        /* \"contracts/Utils.sol\":18584:18897  if(address(WBNB) == address(lpAddress.token0())){... */\n      jump(tag_116)\n    tag_101:\n        /* \"contracts/Utils.sol\":18791:18884  lpAddress.token0().balanceOf(address(lpAddress)).mul(Tokenprice(address(lpAddress.token0()))) */\n      tag_117\n        /* \"contracts/Utils.sol\":18844:18883  Tokenprice(address(lpAddress.token0())) */\n      tag_118\n        /* \"contracts/Utils.sol\":18863:18872  lpAddress */\n      dup6\n        /* \"contracts/Utils.sol\":18863:18879  lpAddress.token0 */\n      0xffffffffffffffffffffffffffffffffffffffff\n      and\n      0x0dfe1681\n        /* \"contracts/Utils.sol\":18863:18881  lpAddress.token0() */\n      mload(0x40)\n      dup2\n      0xffffffff\n      and\n      0xe0\n      shl\n      dup2\n      mstore\n      0x04\n      add\n      0x20\n      mload(0x40)\n      dup1\n      dup4\n      sub\n      dup2\n      dup7\n      gas\n      staticcall\n      iszero\n      dup1\n      iszero\n      tag_120\n      jumpi\n      returndatasize\n      0x00\n      dup1\n      returndatacopy\n      revert(0x00, returndatasize)\n    tag_120:\n      pop\n      pop\n      pop\n      pop\n      mload(0x40)\n      returndatasize\n      not(0x1f)\n      0x1f\n      dup3\n      add\n      and\n      dup3\n      add\n      dup1\n      0x40\n      mstore\n      pop\n      dup2\n      add\n      swap1\n      tag_121\n      swap2\n      swap1\n      tag_100\n      jump\t// in\n    tag_121:\n        /* \"contracts/Utils.sol\":18844:18854  Tokenprice */\n      tag_23\n        /* \"contracts/Utils.sol\":18844:18883  Tokenprice(address(lpAddress.token0())) */\n      jump\t// in\n    tag_118:\n        /* \"contracts/Utils.sol\":18791:18800  lpAddress */\n      dup6\n        /* \"contracts/Utils.sol\":18791:18807  lpAddress.token0 */\n      0xffffffffffffffffffffffffffffffffffffffff\n      and\n      0x0dfe1681\n        /* \"contracts/Utils.sol\":18791:18809  lpAddress.token0() */\n      mload(0x40)\n      dup2\n      0xffffffff\n      and\n      0xe0\n      shl\n      dup2\n      mstore\n      0x04\n      add\n      0x20\n      mload(0x40)\n      dup1\n      dup4\n      sub\n      dup2\n      dup7\n      gas\n      staticcall\n      iszero\n      dup1\n      iszero\n      tag_123\n      jumpi\n      returndatasize\n      0x00\n      dup1\n      returndatacopy\n      revert(0x00, returndatasize)\n    tag_123:\n      pop\n      pop\n      pop\n      pop\n      mload(0x40)\n      returndatasize\n      not(0x1f)\n      0x1f\n      dup3\n      add\n      and\n      dup3\n      add\n      dup1\n      0x40\n      mstore\n      pop\n      dup2\n      add\n      swap1\n      tag_124\n      swap2\n      swap1\n      tag_100\n      jump\t// in\n    tag_124:\n        /* \"contracts/Utils.sol\":18791:18819  lpAddress.token0().balanceOf */\n      0xffffffffffffffffffffffffffffffffffffffff\n      and\n      0x70a08231\n        /* \"contracts/Utils.sol\":18828:18837  lpAddress */\n      dup8\n        /* \"contracts/Utils.sol\":18791:18839  lpAddress.token0().balanceOf(address(lpAddress)) */\n      mload(0x40)\n      dup3\n      0xffffffff\n      and\n      0xe0\n      shl\n      dup2\n      mstore\n      0x04\n      add\n      tag_125\n      swap2\n      swap1\n      tag_46\n      jump\t// in\n    tag_125:\n      0x20\n      mload(0x40)\n      dup1\n      dup4\n      sub\n      dup2\n      dup7\n      gas\n      staticcall\n      iszero\n      dup1\n      iszero\n      tag_127\n      jumpi\n      returndatasize\n      0x00\n      dup1\n      returndatacopy\n      revert(0x00, returndatasize)\n    tag_127:\n      pop\n      pop\n      pop\n      pop\n      mload(0x40)\n      returndatasize\n      not(0x1f)\n      0x1f\n      dup3\n      add\n      and\n      dup3\n      add\n      dup1\n      0x40\n      mstore\n      pop\n      dup2\n      add\n      swap1\n      tag_128\n      swap2\n      swap1\n      tag_114\n      jump\t// in\n    tag_128:\n        /* \"contracts/Utils.sol\":18791:18843  lpAddress.token0().balanceOf(address(lpAddress)).mul */\n      tag_115\n      swap1\n        /* \"contracts/Utils.sol\":18791:18884  lpAddress.token0().balanceOf(address(lpAddress)).mul(Tokenprice(address(lpAddress.token0()))) */\n      swap2\n      swap1\n      0xffffffff\n      and\n      jump\t// in\n    tag_117:\n        /* \"contracts/Utils.sol\":18781:18885  phase1 = (lpAddress.token0().balanceOf(address(lpAddress)).mul(Tokenprice(address(lpAddress.token0())))) */\n      swap2\n      pop\n        /* \"contracts/Utils.sol\":18584:18897  if(address(WBNB) == address(lpAddress.token0())){... */\n    tag_116:\n        /* \"contracts/Utils.sol\":18937:18946  lpAddress */\n      dup4\n        /* \"contracts/Utils.sol\":18937:18953  lpAddress.token1 */\n      0xffffffffffffffffffffffffffffffffffffffff\n      and\n      0xd21220a7\n        /* \"contracts/Utils.sol\":18937:18955  lpAddress.token1() */\n      mload(0x40)\n      dup2\n      0xffffffff\n      and\n      0xe0\n      shl\n      dup2\n      mstore\n      0x04\n      add\n      0x20\n      mload(0x40)\n      dup1\n      dup4\n      sub\n      dup2\n      dup7\n      gas\n      staticcall\n      iszero\n      dup1\n      iszero\n      tag_130\n      jumpi\n      returndatasize\n      0x00\n      dup1\n      returndatacopy\n      revert(0x00, returndatasize)\n    tag_130:\n      pop\n      pop\n      pop\n      pop\n      mload(0x40)\n      returndatasize\n      not(0x1f)\n      0x1f\n      dup3\n      add\n      and\n      dup3\n      add\n      dup1\n      0x40\n      mstore\n      pop\n      dup2\n      add\n      swap1\n      tag_131\n      swap2\n      swap1\n      tag_100\n      jump\t// in\n    tag_131:\n        /* \"contracts/Utils.sol\":18912:18956  address(WBNB) == address(lpAddress.token1()) */\n      0xffffffffffffffffffffffffffffffffffffffff\n      and\n        /* \"contracts/Utils.sol\":18920:18924  WBNB */\n      0x01\n      0x00\n      swap1\n      sload\n      swap1\n      0x0100\n      exp\n      swap1\n      div\n      0xffffffffffffffffffffffffffffffffffffffff\n      and\n        /* \"contracts/Utils.sol\":18912:18956  address(WBNB) == address(lpAddress.token1()) */\n      0xffffffffffffffffffffffffffffffffffffffff\n      and\n      sub\n        /* \"contracts/Utils.sol\":18909:19222  if(address(WBNB) == address(lpAddress.token1())){... */\n      tag_132\n      jumpi\n        /* \"contracts/Utils.sol\":18982:19074  lpAddress.token1().balanceOf(address(lpAddress)).mul(WBNBPrice(address(lpAddress.token1()))) */\n      tag_133\n        /* \"contracts/Utils.sol\":19035:19073  WBNBPrice(address(lpAddress.token1())) */\n      tag_134\n        /* \"contracts/Utils.sol\":19053:19062  lpAddress */\n      dup6\n        /* \"contracts/Utils.sol\":19053:19069  lpAddress.token1 */\n      0xffffffffffffffffffffffffffffffffffffffff\n      and\n      0xd21220a7\n        /* \"contracts/Utils.sol\":19053:19071  lpAddress.token1() */\n      mload(0x40)\n      dup2\n      0xffffffff\n      and\n      0xe0\n      shl\n      dup2\n      mstore\n      0x04\n      add\n      0x20\n      mload(0x40)\n      dup1\n      dup4\n      sub\n      dup2\n      dup7\n      gas\n      staticcall\n      iszero\n      dup1\n      iszero\n      tag_136\n      jumpi\n      returndatasize\n      0x00\n      dup1\n      returndatacopy\n      revert(0x00, returndatasize)\n    tag_136:\n      pop\n      pop\n      pop\n      pop\n      mload(0x40)\n      returndatasize\n      not(0x1f)\n      0x1f\n      dup3\n      add\n      and\n      dup3\n      add\n      dup1\n      0x40\n      mstore\n      pop\n      dup2\n      add\n      swap1\n      tag_137\n      swap2\n      swap1\n      tag_100\n      jump\t// in\n    tag_137:\n        /* \"contracts/Utils.sol\":19035:19044  WBNBPrice */\n      tag_41\n        /* \"contracts/Utils.sol\":19035:19073  WBNBPrice(address(lpAddress.token1())) */\n      jump\t// in\n    tag_134:\n        /* \"contracts/Utils.sol\":18982:18991  lpAddress */\n      dup6\n        /* \"contracts/Utils.sol\":18982:18998  lpAddress.token1 */\n      0xffffffffffffffffffffffffffffffffffffffff\n      and\n      0xd21220a7\n        /* \"contracts/Utils.sol\":18982:19000  lpAddress.token1() */\n      mload(0x40)\n      dup2\n      0xffffffff\n      and\n      0xe0\n      shl\n      dup2\n      mstore\n      0x04\n      add\n      0x20\n      mload(0x40)\n      dup1\n      dup4\n      sub\n      dup2\n      dup7\n      gas\n      staticcall\n      iszero\n      dup1\n      iszero\n      tag_139\n      jumpi\n      returndatasize\n      0x00\n      dup1\n      returndatacopy\n      revert(0x00, returndatasize)\n    tag_139:\n      pop\n      pop\n      pop\n      pop\n      mload(0x40)\n      returndatasize\n      not(0x1f)\n      0x1f\n      dup3\n      add\n      and\n      dup3\n      add\n      dup1\n      0x40\n      mstore\n      pop\n      dup2\n      add\n      swap1\n      tag_140\n      swap2\n      swap1\n      tag_100\n      jump\t// in\n    tag_140:\n        /* \"contracts/Utils.sol\":18982:19010  lpAddress.token1().balanceOf */\n      0xffffffffffffffffffffffffffffffffffffffff\n      and\n      0x70a08231\n        /* \"contracts/Utils.sol\":19019:19028  lpAddress */\n      dup8\n        /* \"contracts/Utils.sol\":18982:19030  lpAddress.token1().balanceOf(address(lpAddress)) */\n      mload(0x40)\n      dup3\n      0xffffffff\n      and\n      0xe0\n      shl\n      dup2\n      mstore\n      0x04\n      add\n      tag_141\n      swap2\n      swap1\n      tag_46\n      jump\t// in\n    tag_141:\n      0x20\n      mload(0x40)\n      dup1\n      dup4\n      sub\n      dup2\n      dup7\n      gas\n      staticcall\n      iszero\n      dup1\n      iszero\n      tag_143\n      jumpi\n      returndatasize\n      0x00\n      dup1\n      returndatacopy\n      revert(0x00, returndatasize)\n    tag_143:\n      pop\n      pop\n      pop\n      pop\n      mload(0x40)\n      returndatasize\n      not(0x1f)\n      0x1f\n      dup3\n      add\n      and\n      dup3\n      add\n      dup1\n      0x40\n      mstore\n      pop\n      dup2\n      add\n      swap1\n      tag_144\n      swap2\n      swap1\n      tag_114\n      jump\t// in\n    tag_144:\n        /* \"contracts/Utils.sol\":18982:19034  lpAddress.token1().balanceOf(address(lpAddress)).mul */\n      tag_115\n      swap1\n        /* \"contracts/Utils.sol\":18982:19074  lpAddress.token1().balanceOf(address(lpAddress)).mul(WBNBPrice(address(lpAddress.token1()))) */\n      swap2\n      swap1\n      0xffffffff\n      and\n      jump\t// in\n    tag_133:\n        /* \"contracts/Utils.sol\":18972:19075  phase2 = (lpAddress.token1().balanceOf(address(lpAddress)).mul(WBNBPrice(address(lpAddress.token1())))) */\n      swap1\n      pop\n        /* \"contracts/Utils.sol\":18909:19222  if(address(WBNB) == address(lpAddress.token1())){... */\n      jump(tag_145)\n    tag_132:\n        /* \"contracts/Utils.sol\":19116:19209  lpAddress.token1().balanceOf(address(lpAddress)).mul(Tokenprice(address(lpAddress.token1()))) */\n      tag_146\n        /* \"contracts/Utils.sol\":19169:19208  Tokenprice(address(lpAddress.token1())) */\n      tag_147\n        /* \"contracts/Utils.sol\":19188:19197  lpAddress */\n      dup6\n        /* \"contracts/Utils.sol\":19188:19204  lpAddress.token1 */\n      0xffffffffffffffffffffffffffffffffffffffff\n      and\n      0xd21220a7\n        /* \"contracts/Utils.sol\":19188:19206  lpAddress.token1() */\n      mload(0x40)\n      dup2\n      0xffffffff\n      and\n      0xe0\n      shl\n      dup2\n      mstore\n      0x04\n      add\n      0x20\n      mload(0x40)\n      dup1\n      dup4\n      sub\n      dup2\n      dup7\n      gas\n      staticcall\n      iszero\n      dup1\n      iszero\n      tag_149\n      jumpi\n      returndatasize\n      0x00\n      dup1\n      returndatacopy\n      revert(0x00, returndatasize)\n    tag_149:\n      pop\n      pop\n      pop\n      pop\n      mload(0x40)\n      returndatasize\n      not(0x1f)\n      0x1f\n      dup3\n      add\n      and\n      dup3\n      add\n      dup1\n      0x40\n      mstore\n      pop\n      dup2\n      add\n      swap1\n      tag_150\n      swap2\n      swap1\n      tag_100\n      jump\t// in\n    tag_150:\n        /* \"contracts/Utils.sol\":19169:19179  Tokenprice */\n      tag_23\n        /* \"contracts/Utils.sol\":19169:19208  Tokenprice(address(lpAddress.token1())) */\n      jump\t// in\n    tag_147:\n        /* \"contracts/Utils.sol\":19116:19125  lpAddress */\n      dup6\n        /* \"contracts/Utils.sol\":19116:19132  lpAddress.token1 */\n      0xffffffffffffffffffffffffffffffffffffffff\n      and\n      0xd21220a7\n        /* \"contracts/Utils.sol\":19116:19134  lpAddress.token1() */\n      mload(0x40)\n      dup2\n      0xffffffff\n      and\n      0xe0\n      shl\n      dup2\n      mstore\n      0x04\n      add\n      0x20\n      mload(0x40)\n      dup1\n      dup4\n      sub\n      dup2\n      dup7\n      gas\n      staticcall\n      iszero\n      dup1\n      iszero\n      tag_152\n      jumpi\n      returndatasize\n      0x00\n      dup1\n      returndatacopy\n      revert(0x00, returndatasize)\n    tag_152:\n      pop\n      pop\n      pop\n      pop\n      mload(0x40)\n      returndatasize\n      not(0x1f)\n      0x1f\n      dup3\n      add\n      and\n      dup3\n      add\n      dup1\n      0x40\n      mstore\n      pop\n      dup2\n      add\n      swap1\n      tag_153\n      swap2\n      swap1\n      tag_100\n      jump\t// in\n    tag_153:\n        /* \"contracts/Utils.sol\":19116:19144  lpAddress.token1().balanceOf */\n      0xffffffffffffffffffffffffffffffffffffffff\n      and\n      0x70a08231\n        /* \"contracts/Utils.sol\":19153:19162  lpAddress */\n      dup8\n        /* \"contracts/Utils.sol\":19116:19164  lpAddress.token1().balanceOf(address(lpAddress)) */\n      mload(0x40)\n      dup3\n      0xffffffff\n      and\n      0xe0\n      shl\n      dup2\n      mstore\n      0x04\n      add\n      tag_154\n      swap2\n      swap1\n      tag_46\n      jump\t// in\n    tag_154:\n      0x20\n      mload(0x40)\n      dup1\n      dup4\n      sub\n      dup2\n      dup7\n      gas\n      staticcall\n      iszero\n      dup1\n      iszero\n      tag_156\n      jumpi\n      returndatasize\n      0x00\n      dup1\n      returndatacopy\n      revert(0x00, returndatasize)\n    tag_156:\n      pop\n      pop\n      pop\n      pop\n      mload(0x40)\n      returndatasize\n      not(0x1f)\n      0x1f\n      dup3\n      add\n      and\n      dup3\n      add\n      dup1\n      0x40\n      mstore\n      pop\n      dup2\n      add\n      swap1\n      tag_157\n      swap2\n      swap1\n      tag_114\n      jump\t// in\n    tag_157:\n        /* \"contracts/Utils.sol\":19116:19168  lpAddress.token1().balanceOf(address(lpAddress)).mul */\n      tag_115\n      swap1\n        /* \"contracts/Utils.sol\":19116:19209  lpAddress.token1().balanceOf(address(lpAddress)).mul(Tokenprice(address(lpAddress.token1()))) */\n      swap2\n      swap1\n      0xffffffff\n      and\n      jump\t// in\n    tag_146:\n        /* \"contracts/Utils.sol\":19106:19210  phase2 = (lpAddress.token1().balanceOf(address(lpAddress)).mul(Tokenprice(address(lpAddress.token1())))) */\n      swap1\n      pop\n        /* \"contracts/Utils.sol\":18909:19222  if(address(WBNB) == address(lpAddress.token1())){... */\n    tag_145:\n        /* \"contracts/Utils.sol\":19250:19299  (phase1.add(phase2)).div(lpAddress.totalSupply()) */\n      tag_158\n        /* \"contracts/Utils.sol\":19275:19284  lpAddress */\n      dup5\n        /* \"contracts/Utils.sol\":19275:19296  lpAddress.totalSupply */\n      0xffffffffffffffffffffffffffffffffffffffff\n      and\n      0x18160ddd\n        /* \"contracts/Utils.sol\":19275:19298  lpAddress.totalSupply() */\n      mload(0x40)\n      dup2\n      0xffffffff\n      and\n      0xe0\n      shl\n      dup2\n      mstore\n      0x04\n      add\n      0x20\n      mload(0x40)\n      dup1\n      dup4\n      sub\n      dup2\n      dup7\n      gas\n      staticcall\n      iszero\n      dup1\n      iszero\n      tag_160\n      jumpi\n      returndatasize\n      0x00\n      dup1\n      returndatacopy\n      revert(0x00, returndatasize)\n    tag_160:\n      pop\n      pop\n      pop\n      pop\n      mload(0x40)\n      returndatasize\n      not(0x1f)\n      0x1f\n      dup3\n      add\n      and\n      dup3\n      add\n      dup1\n      0x40\n      mstore\n      pop\n      dup2\n      add\n      swap1\n      tag_161\n      swap2\n      swap1\n      tag_114\n      jump\t// in\n    tag_161:\n        /* \"contracts/Utils.sol\":19251:19269  phase1.add(phase2) */\n      tag_162\n        /* \"contracts/Utils.sol\":19262:19268  phase2 */\n      dup4\n        /* \"contracts/Utils.sol\":19251:19257  phase1 */\n      dup6\n        /* \"contracts/Utils.sol\":19251:19261  phase1.add */\n      tag_163\n      swap1\n        /* \"contracts/Utils.sol\":19251:19269  phase1.add(phase2) */\n      swap2\n      swap1\n      0xffffffff\n      and\n      jump\t// in\n    tag_162:\n        /* \"contracts/Utils.sol\":19250:19274  (phase1.add(phase2)).div */\n      tag_164\n      swap1\n        /* \"contracts/Utils.sol\":19250:19299  (phase1.add(phase2)).div(lpAddress.totalSupply()) */\n      swap2\n      swap1\n      0xffffffff\n      and\n      jump\t// in\n    tag_158:\n        /* \"contracts/Utils.sol\":19242:19300  return ((phase1.add(phase2)).div(lpAddress.totalSupply())) */\n      swap3\n      pop\n      pop\n      pop\n        /* \"contracts/Utils.sol\":18460:19308  function CalcLpPrice(LP lpAddress) public view returns(uint256){... */\n      swap2\n      swap1\n      pop\n      jump\t// out\n        /* \"contracts/Utils.sol\":20620:20799  function isLpAddress(LP lpAddress) public view returns(uint256){... */\n    tag_33:\n        /* \"contracts/Utils.sol\":20675:20682  uint256 */\n      0x00\n        /* \"contracts/Utils.sol\":20698:20707  lpAddress */\n      dup2\n        /* \"contracts/Utils.sol\":20698:20714  lpAddress.token0 */\n      0xffffffffffffffffffffffffffffffffffffffff\n      and\n      0x0dfe1681\n        /* \"contracts/Utils.sol\":20698:20716  lpAddress.token0() */\n      mload(0x40)\n      dup2\n      0xffffffff\n      and\n      0xe0\n      shl\n      dup2\n      mstore\n      0x04\n      add\n      0x20\n      mload(0x40)\n      dup1\n      dup4\n      sub\n      dup2\n      dup7\n      gas\n      staticcall\n      swap3\n      pop\n      pop\n      pop\n      dup1\n      iszero\n      tag_166\n      jumpi\n      pop\n      mload(0x40)\n      returndatasize\n      not(0x1f)\n      0x1f\n      dup3\n      add\n      and\n      dup3\n      add\n      dup1\n      0x40\n      mstore\n      pop\n      dup2\n      add\n      swap1\n      tag_167\n      swap2\n      swap1\n      tag_100\n      jump\t// in\n    tag_167:\n      0x01\n    tag_166:\n        /* \"contracts/Utils.sol\":20694:20792  try lpAddress.token0() {... */\n      tag_168\n      jumpi\n        /* \"contracts/Utils.sol\":20779:20780  0 */\n      0x00\n        /* \"contracts/Utils.sol\":20772:20780  return 0 */\n      swap1\n      pop\n      jump(tag_165)\n        /* \"contracts/Utils.sol\":20694:20792  try lpAddress.token0() {... */\n    tag_168:\n      pop\n        /* \"contracts/Utils.sol\":20739:20740  1 */\n      0x01\n        /* \"contracts/Utils.sol\":20732:20740  return 1 */\n      swap1\n      pop\n        /* \"contracts/Utils.sol\":20620:20799  function isLpAddress(LP lpAddress) public view returns(uint256){... */\n    tag_165:\n      swap2\n      swap1\n      pop\n      jump\t// out\n        /* \"contracts/Utils.sol\":17535:17562  Router public routerAddress */\n    tag_36:\n      0x04\n      0x00\n      swap1\n      sload\n      swap1\n      0x0100\n      exp\n      swap1\n      div\n      0xffffffffffffffffffffffffffffffffffffffff\n      and\n      dup2\n      jump\t// out\n        /* \"contracts/Utils.sol\":18202:18435  function WBNBPrice(address token) public view returns(uint256){... */\n    tag_41:\n        /* \"contracts/Utils.sol\":18256:18263  uint256 */\n      0x00\n        /* \"contracts/Utils.sol\":18275:18296  address[] memory path */\n      dup1\n        /* \"contracts/Utils.sol\":18313:18314  2 */\n      0x02\n        /* \"contracts/Utils.sol\":18299:18315  new address[](2) */\n      0xffffffffffffffff\n      dup2\n      gt\n      iszero\n      tag_174\n      jumpi\n      tag_175\n      tag_79\n      jump\t// in\n    tag_175:\n    tag_174:\n      mload(0x40)\n      swap1\n      dup1\n      dup3\n      mstore\n      dup1\n      0x20\n      mul\n      0x20\n      add\n      dup3\n      add\n      0x40\n      mstore\n      dup1\n      iszero\n      tag_176\n      jumpi\n      dup2\n      0x20\n      add\n      0x20\n      dup3\n      mul\n      dup1\n      calldatasize\n      dup4\n      calldatacopy\n      dup1\n      dup3\n      add\n      swap2\n      pop\n      pop\n      swap1\n      pop\n    tag_176:\n      pop\n        /* \"contracts/Utils.sol\":18275:18315  address[] memory path = new address[](2) */\n      swap1\n      pop\n        /* \"contracts/Utils.sol\":18336:18341  token */\n      dup3\n        /* \"contracts/Utils.sol\":18326:18330  path */\n      dup2\n        /* \"contracts/Utils.sol\":18331:18332  0 */\n      0x00\n        /* \"contracts/Utils.sol\":18326:18333  path[0] */\n      dup2\n      mload\n      dup2\n      lt\n      tag_177\n      jumpi\n      tag_178\n      tag_83\n      jump\t// in\n    tag_178:\n    tag_177:\n      0x20\n      mul\n      0x20\n      add\n      add\n        /* \"contracts/Utils.sol\":18326:18341  path[0] = token */\n      swap1\n      0xffffffffffffffffffffffffffffffffffffffff\n      and\n      swap1\n      dup2\n      0xffffffffffffffffffffffffffffffffffffffff\n      and\n      dup2\n      mstore\n      pop\n      pop\n        /* \"contracts/Utils.sol\":18362:18366  BUSD */\n      0x02\n      0x00\n      swap1\n      sload\n      swap1\n      0x0100\n      exp\n      swap1\n      div\n      0xffffffffffffffffffffffffffffffffffffffff\n      and\n        /* \"contracts/Utils.sol\":18352:18356  path */\n      dup2\n        /* \"contracts/Utils.sol\":18357:18358  1 */\n      0x01\n        /* \"contracts/Utils.sol\":18352:18359  path[1] */\n      dup2\n      mload\n      dup2\n      lt\n      tag_179\n      jumpi\n      tag_180\n      tag_83\n      jump\t// in\n    tag_180:\n    tag_179:\n      0x20\n      mul\n      0x20\n      add\n      add\n        /* \"contracts/Utils.sol\":18352:18366  path[1] = BUSD */\n      swap1\n      0xffffffffffffffffffffffffffffffffffffffff\n      and\n      swap1\n      dup2\n      0xffffffffffffffffffffffffffffffffffffffff\n      and\n      dup2\n      mstore\n      pop\n      pop\n        /* \"contracts/Utils.sol\":18384:18397  routerAddress */\n      0x04\n      0x00\n      swap1\n      sload\n      swap1\n      0x0100\n      exp\n      swap1\n      div\n      0xffffffffffffffffffffffffffffffffffffffff\n      and\n        /* \"contracts/Utils.sol\":18384:18411  routerAddress.getAmountsOut */\n      0xffffffffffffffffffffffffffffffffffffffff\n      and\n      0xd06ca61f\n        /* \"contracts/Utils.sol\":18412:18418  amount */\n      sload(0x03)\n        /* \"contracts/Utils.sol\":18419:18423  path */\n      dup4\n        /* \"contracts/Utils.sol\":18384:18424  routerAddress.getAmountsOut(amount,path) */\n      mload(0x40)\n      dup4\n      0xffffffff\n      and\n      0xe0\n      shl\n      dup2\n      mstore\n      0x04\n      add\n      tag_181\n      swap3\n      swap2\n      swap1\n      tag_89\n      jump\t// in\n    tag_181:\n      0x00\n      mload(0x40)\n      dup1\n      dup4\n      sub\n      dup2\n      dup7\n      gas\n      staticcall\n      iszero\n      dup1\n      iszero\n      tag_183\n      jumpi\n      returndatasize\n      0x00\n      dup1\n      returndatacopy\n      revert(0x00, returndatasize)\n    tag_183:\n      pop\n      pop\n      pop\n      pop\n      mload(0x40)\n      returndatasize\n      0x00\n      dup3\n      returndatacopy\n      returndatasize\n      not(0x1f)\n      0x1f\n      dup3\n      add\n      and\n      dup3\n      add\n      dup1\n      0x40\n      mstore\n      pop\n      dup2\n      add\n      swap1\n      tag_184\n      swap2\n      swap1\n      tag_93\n      jump\t// in\n    tag_184:\n        /* \"contracts/Utils.sol\":18425:18426  1 */\n      0x01\n        /* \"contracts/Utils.sol\":18384:18427  routerAddress.getAmountsOut(amount,path)[1] */\n      dup2\n      mload\n      dup2\n      lt\n      tag_185\n      jumpi\n      tag_186\n      tag_83\n      jump\t// in\n    tag_186:\n    tag_185:\n      0x20\n      mul\n      0x20\n      add\n      add\n      mload\n        /* \"contracts/Utils.sol\":18377:18427  return routerAddress.getAmountsOut(amount,path)[1] */\n      swap2\n      pop\n      pop\n        /* \"contracts/Utils.sol\":18202:18435  function WBNBPrice(address token) public view returns(uint256){... */\n      swap2\n      swap1\n      pop\n      jump\t// out\n        /* \"contracts/Utils.sol\":17466:17485  address public BUSD */\n    tag_44:\n      0x02\n      0x00\n      swap1\n      sload\n      swap1\n      0x0100\n      exp\n      swap1\n      div\n      0xffffffffffffffffffffffffffffffffffffffff\n      and\n      dup2\n      jump\t// out\n        /* \"contracts/Utils.sol\":14500:14603  function renounceOwnership() public virtual onlyOwner {... */\n    tag_48:\n        /* \"contracts/Utils.sol\":14080:14092  _msgSender() */\n      tag_188\n        /* \"contracts/Utils.sol\":14080:14090  _msgSender */\n      tag_189\n        /* \"contracts/Utils.sol\":14080:14092  _msgSender() */\n      jump\t// in\n    tag_188:\n        /* \"contracts/Utils.sol\":14069:14092  owner() == _msgSender() */\n      0xffffffffffffffffffffffffffffffffffffffff\n      and\n        /* \"contracts/Utils.sol\":14069:14076  owner() */\n      tag_190\n        /* \"contracts/Utils.sol\":14069:14074  owner */\n      tag_50\n        /* \"contracts/Utils.sol\":14069:14076  owner() */\n      jump\t// in\n    tag_190:\n        /* \"contracts/Utils.sol\":14069:14092  owner() == _msgSender() */\n      0xffffffffffffffffffffffffffffffffffffffff\n      and\n      eq\n        /* \"contracts/Utils.sol\":14061:14129  require(owner() == _msgSender(), \"Ownable: caller is not the owner\") */\n      tag_191\n      jumpi\n      mload(0x40)\n      0x08c379a000000000000000000000000000000000000000000000000000000000\n      dup2\n      mstore\n      0x04\n      add\n      tag_192\n      swap1\n      tag_193\n      jump\t// in\n    tag_192:\n      mload(0x40)\n      dup1\n      swap2\n      sub\n      swap1\n      revert\n    tag_191:\n        /* \"contracts/Utils.sol\":14565:14595  _transferOwnership(address(0)) */\n      tag_195\n        /* \"contracts/Utils.sol\":14592:14593  0 */\n      0x00\n        /* \"contracts/Utils.sol\":14565:14583  _transferOwnership */\n      tag_196\n        /* \"contracts/Utils.sol\":14565:14595  _transferOwnership(address(0)) */\n      jump\t// in\n    tag_195:\n        /* \"contracts/Utils.sol\":14500:14603  function renounceOwnership() public virtual onlyOwner {... */\n      jump\t// out\n        /* \"contracts/Utils.sol\":13849:13936  function owner() public view virtual returns (address) {... */\n    tag_50:\n        /* \"contracts/Utils.sol\":13895:13902  address */\n      0x00\n        /* \"contracts/Utils.sol\":13922:13928  _owner */\n      dup1\n      0x00\n      swap1\n      sload\n      swap1\n      0x0100\n      exp\n      swap1\n      div\n      0xffffffffffffffffffffffffffffffffffffffff\n      and\n        /* \"contracts/Utils.sol\":13915:13928  return _owner */\n      swap1\n      pop\n        /* \"contracts/Utils.sol\":13849:13936  function owner() public view virtual returns (address) {... */\n      swap1\n      jump\t// out\n        /* \"contracts/Utils.sol\":17440:17459  address public WBNB */\n    tag_53:\n      0x01\n      0x00\n      swap1\n      sload\n      swap1\n      0x0100\n      exp\n      swap1\n      div\n      0xffffffffffffffffffffffffffffffffffffffff\n      and\n      dup2\n      jump\t// out\n        /* \"contracts/Utils.sol\":20807:21302  function CalcTotalTVL(MetaMasterChef MasterChef,LP lpAddress) external view returns(uint256){... */\n    tag_58:\n        /* \"contracts/Utils.sol\":20891:20898  uint256 */\n      0x00\n        /* \"contracts/Utils.sol\":20910:20930  PoolInfo memory pool */\n      tag_199\n      tag_200\n      jump\t// in\n    tag_199:\n        /* \"contracts/Utils.sol\":20941:20952  uint256 TVL */\n      0x00\n        /* \"contracts/Utils.sol\":20971:20980  uint256 i */\n      dup1\n        /* \"contracts/Utils.sol\":20967:21295  for(uint256 i=0; i< MasterChef.poolLength(); i++){... */\n    tag_201:\n        /* \"contracts/Utils.sol\":20987:20997  MasterChef */\n      dup6\n        /* \"contracts/Utils.sol\":20987:21008  MasterChef.poolLength */\n      0xffffffffffffffffffffffffffffffffffffffff\n      and\n      0x081e3eda\n        /* \"contracts/Utils.sol\":20987:21010  MasterChef.poolLength() */\n      mload(0x40)\n      dup2\n      0xffffffff\n      and\n      0xe0\n      shl\n      dup2\n      mstore\n      0x04\n      add\n      0x20\n      mload(0x40)\n      dup1\n      dup4\n      sub\n      dup2\n      dup7\n      gas\n      staticcall\n      iszero\n      dup1\n      iszero\n      tag_205\n      jumpi\n      returndatasize\n      0x00\n      dup1\n      returndatacopy\n      revert(0x00, returndatasize)\n    tag_205:\n      pop\n      pop\n      pop\n      pop\n      mload(0x40)\n      returndatasize\n      not(0x1f)\n      0x1f\n      dup3\n      add\n      and\n      dup3\n      add\n      dup1\n      0x40\n      mstore\n      pop\n      dup2\n      add\n      swap1\n      tag_206\n      swap2\n      swap1\n      tag_114\n      jump\t// in\n    tag_206:\n        /* \"contracts/Utils.sol\":20984:20985  i */\n      dup2\n        /* \"contracts/Utils.sol\":20984:21010  i< MasterChef.poolLength() */\n      lt\n        /* \"contracts/Utils.sol\":20967:21295  for(uint256 i=0; i< MasterChef.poolLength(); i++){... */\n      iszero\n      tag_202\n      jumpi\n        /* \"contracts/Utils.sol\":21038:21048  MasterChef */\n      dup6\n        /* \"contracts/Utils.sol\":21038:21057  MasterChef.poolInfo */\n      0xffffffffffffffffffffffffffffffffffffffff\n      and\n      0x1526fe27\n        /* \"contracts/Utils.sol\":21058:21059  i */\n      dup3\n        /* \"contracts/Utils.sol\":21038:21060  MasterChef.poolInfo(i) */\n      mload(0x40)\n      dup3\n      0xffffffff\n      and\n      0xe0\n      shl\n      dup2\n      mstore\n      0x04\n      add\n      tag_207\n      swap2\n      swap1\n      tag_25\n      jump\t// in\n    tag_207:\n      0xc0\n      mload(0x40)\n      dup1\n      dup4\n      sub\n      dup2\n      dup7\n      gas\n      staticcall\n      iszero\n      dup1\n      iszero\n      tag_209\n      jumpi\n      returndatasize\n      0x00\n      dup1\n      returndatacopy\n      revert(0x00, returndatasize)\n    tag_209:\n      pop\n      pop\n      pop\n      pop\n      mload(0x40)\n      returndatasize\n      not(0x1f)\n      0x1f\n      dup3\n      add\n      and\n      dup3\n      add\n      dup1\n      0x40\n      mstore\n      pop\n      dup2\n      add\n      swap1\n      tag_210\n      swap2\n      swap1\n      tag_211\n      jump\t// in\n    tag_210:\n        /* \"contracts/Utils.sol\":21031:21060  pool = MasterChef.poolInfo(i) */\n      swap3\n      pop\n        /* \"contracts/Utils.sol\":21104:21105  1 */\n      0x01\n        /* \"contracts/Utils.sol\":21078:21100  isLpAddress(lpAddress) */\n      tag_212\n        /* \"contracts/Utils.sol\":21090:21099  lpAddress */\n      dup7\n        /* \"contracts/Utils.sol\":21078:21089  isLpAddress */\n      tag_33\n        /* \"contracts/Utils.sol\":21078:21100  isLpAddress(lpAddress) */\n      jump\t// in\n    tag_212:\n        /* \"contracts/Utils.sol\":21078:21105  isLpAddress(lpAddress) == 1 */\n      sub\n        /* \"contracts/Utils.sol\":21075:21284  if(isLpAddress(lpAddress) == 1){... */\n      tag_213\n      jumpi\n        /* \"contracts/Utils.sol\":21132:21177  calcPoolTVLInUSD(i, lpAddress, 1, MasterChef) */\n      tag_214\n        /* \"contracts/Utils.sol\":21149:21150  i */\n      dup2\n        /* \"contracts/Utils.sol\":21152:21161  lpAddress */\n      dup7\n        /* \"contracts/Utils.sol\":21163:21164  1 */\n      0x01\n        /* \"contracts/Utils.sol\":21166:21176  MasterChef */\n      dup10\n        /* \"contracts/Utils.sol\":21132:21148  calcPoolTVLInUSD */\n      tag_67\n        /* \"contracts/Utils.sol\":21132:21177  calcPoolTVLInUSD(i, lpAddress, 1, MasterChef) */\n      jump\t// in\n    tag_214:\n        /* \"contracts/Utils.sol\":21125:21177  TVL += calcPoolTVLInUSD(i, lpAddress, 1, MasterChef) */\n      dup3\n      tag_215\n      swap2\n      swap1\n      tag_216\n      jump\t// in\n    tag_215:\n      swap2\n      pop\n        /* \"contracts/Utils.sol\":21075:21284  if(isLpAddress(lpAddress) == 1){... */\n      jump(tag_217)\n    tag_213:\n        /* \"contracts/Utils.sol\":21223:21268  calcPoolTVLInUSD(i, lpAddress, 0, MasterChef) */\n      tag_218\n        /* \"contracts/Utils.sol\":21240:21241  i */\n      dup2\n        /* \"contracts/Utils.sol\":21243:21252  lpAddress */\n      dup7\n        /* \"contracts/Utils.sol\":21254:21255  0 */\n      0x00\n        /* \"contracts/Utils.sol\":21257:21267  MasterChef */\n      dup10\n        /* \"contracts/Utils.sol\":21223:21239  calcPoolTVLInUSD */\n      tag_67\n        /* \"contracts/Utils.sol\":21223:21268  calcPoolTVLInUSD(i, lpAddress, 0, MasterChef) */\n      jump\t// in\n    tag_218:\n        /* \"contracts/Utils.sol\":21216:21268  TVL += calcPoolTVLInUSD(i, lpAddress, 0, MasterChef) */\n      dup3\n      tag_219\n      swap2\n      swap1\n      tag_216\n      jump\t// in\n    tag_219:\n      swap2\n      pop\n        /* \"contracts/Utils.sol\":21075:21284  if(isLpAddress(lpAddress) == 1){... */\n    tag_217:\n        /* \"contracts/Utils.sol\":21012:21015  i++ */\n      dup1\n      dup1\n      tag_220\n      swap1\n      tag_221\n      jump\t// in\n    tag_220:\n      swap2\n      pop\n      pop\n        /* \"contracts/Utils.sol\":20967:21295  for(uint256 i=0; i< MasterChef.poolLength(); i++){... */\n      jump(tag_201)\n    tag_202:\n      pop\n        /* \"contracts/Utils.sol\":20899:21302  {... */\n      pop\n      pop\n        /* \"contracts/Utils.sol\":20807:21302  function CalcTotalTVL(MetaMasterChef MasterChef,LP lpAddress) external view returns(uint256){... */\n      swap3\n      swap2\n      pop\n      pop\n      jump\t// out\n        /* \"contracts/Utils.sol\":17786:17893  function setRouter(Router _routerAddress) public onlyOwner{... */\n    tag_63:\n        /* \"contracts/Utils.sol\":14080:14092  _msgSender() */\n      tag_223\n        /* \"contracts/Utils.sol\":14080:14090  _msgSender */\n      tag_189\n        /* \"contracts/Utils.sol\":14080:14092  _msgSender() */\n      jump\t// in\n    tag_223:\n        /* \"contracts/Utils.sol\":14069:14092  owner() == _msgSender() */\n      0xffffffffffffffffffffffffffffffffffffffff\n      and\n        /* \"contracts/Utils.sol\":14069:14076  owner() */\n      tag_224\n        /* \"contracts/Utils.sol\":14069:14074  owner */\n      tag_50\n        /* \"contracts/Utils.sol\":14069:14076  owner() */\n      jump\t// in\n    tag_224:\n        /* \"contracts/Utils.sol\":14069:14092  owner() == _msgSender() */\n      0xffffffffffffffffffffffffffffffffffffffff\n      and\n      eq\n        /* \"contracts/Utils.sol\":14061:14129  require(owner() == _msgSender(), \"Ownable: caller is not the owner\") */\n      tag_225\n      jumpi\n      mload(0x40)\n      0x08c379a000000000000000000000000000000000000000000000000000000000\n      dup2\n      mstore\n      0x04\n      add\n      tag_226\n      swap1\n      tag_193\n      jump\t// in\n    tag_226:\n      mload(0x40)\n      dup1\n      swap2\n      sub\n      swap1\n      revert\n    tag_225:\n        /* \"contracts/Utils.sol\":17871:17885  _routerAddress */\n      dup1\n        /* \"contracts/Utils.sol\":17855:17868  routerAddress */\n      0x04\n      0x00\n        /* \"contracts/Utils.sol\":17855:17885  routerAddress = _routerAddress */\n      0x0100\n      exp\n      dup2\n      sload\n      dup2\n      0xffffffffffffffffffffffffffffffffffffffff\n      mul\n      not\n      and\n      swap1\n      dup4\n      0xffffffffffffffffffffffffffffffffffffffff\n      and\n      mul\n      or\n      swap1\n      sstore\n      pop\n        /* \"contracts/Utils.sol\":17786:17893  function setRouter(Router _routerAddress) public onlyOwner{... */\n      pop\n      jump\t// out\n        /* \"contracts/Utils.sol\":19331:19902  function calcPoolTVLInUSD(uint256 pid, LP lpAddress, uint256 isLp, MetaMasterChef MasterChef) public view returns(uint256){... */\n    tag_67:\n        /* \"contracts/Utils.sol\":19445:19452  uint256 */\n      0x00\n        /* \"contracts/Utils.sol\":19464:19479  uint256 Balance */\n      dup1\n        /* \"contracts/Utils.sol\":19482:19492  MasterChef */\n      dup3\n        /* \"contracts/Utils.sol\":19482:19504  MasterChef.poolBalance */\n      0xffffffffffffffffffffffffffffffffffffffff\n      and\n      0x6a6d964e\n        /* \"contracts/Utils.sol\":19505:19508  pid */\n      dup8\n        /* \"contracts/Utils.sol\":19482:19509  MasterChef.poolBalance(pid) */\n      mload(0x40)\n      dup3\n      0xffffffff\n      and\n      0xe0\n      shl\n      dup2\n      mstore\n      0x04\n      add\n      tag_229\n      swap2\n      swap1\n      tag_25\n      jump\t// in\n    tag_229:\n      0x20\n      mload(0x40)\n      dup1\n      dup4\n      sub\n      dup2\n      dup7\n      gas\n      staticcall\n      iszero\n      dup1\n      iszero\n      tag_231\n      jumpi\n      returndatasize\n      0x00\n      dup1\n      returndatacopy\n      revert(0x00, returndatasize)\n    tag_231:\n      pop\n      pop\n      pop\n      pop\n      mload(0x40)\n      returndatasize\n      not(0x1f)\n      0x1f\n      dup3\n      add\n      and\n      dup3\n      add\n      dup1\n      0x40\n      mstore\n      pop\n      dup2\n      add\n      swap1\n      tag_232\n      swap2\n      swap1\n      tag_114\n      jump\t// in\n    tag_232:\n        /* \"contracts/Utils.sol\":19464:19509  uint256 Balance = MasterChef.poolBalance(pid) */\n      swap1\n      pop\n        /* \"contracts/Utils.sol\":19520:19533  uint256 price */\n      0x00\n        /* \"contracts/Utils.sol\":19555:19556  1 */\n      0x01\n        /* \"contracts/Utils.sol\":19547:19551  isLp */\n      dup6\n        /* \"contracts/Utils.sol\":19547:19556  isLp == 1 */\n      sub\n        /* \"contracts/Utils.sol\":19544:19846  if(isLp == 1){... */\n      tag_233\n      jumpi\n        /* \"contracts/Utils.sol\":19580:19602  CalcLpPrice(lpAddress) */\n      tag_234\n        /* \"contracts/Utils.sol\":19592:19601  lpAddress */\n      dup7\n        /* \"contracts/Utils.sol\":19580:19591  CalcLpPrice */\n      tag_29\n        /* \"contracts/Utils.sol\":19580:19602  CalcLpPrice(lpAddress) */\n      jump\t// in\n    tag_234:\n        /* \"contracts/Utils.sol\":19572:19602  price = CalcLpPrice(lpAddress) */\n      swap1\n      pop\n        /* \"contracts/Utils.sol\":19544:19846  if(isLp == 1){... */\n      jump(tag_235)\n    tag_233:\n        /* \"contracts/Utils.sol\":19630:19631  0 */\n      0x00\n        /* \"contracts/Utils.sol\":19622:19626  isLp */\n      dup6\n        /* \"contracts/Utils.sol\":19622:19631  isLp == 0 */\n      sub\n        /* \"contracts/Utils.sol\":19619:19846  if(isLp == 0){... */\n      tag_236\n      jumpi\n        /* \"contracts/Utils.sol\":19675:19684  lpAddress */\n      dup6\n        /* \"contracts/Utils.sol\":19650:19685  address(WBNB) == address(lpAddress) */\n      0xffffffffffffffffffffffffffffffffffffffff\n      and\n        /* \"contracts/Utils.sol\":19658:19662  WBNB */\n      0x01\n      0x00\n      swap1\n      sload\n      swap1\n      0x0100\n      exp\n      swap1\n      div\n      0xffffffffffffffffffffffffffffffffffffffff\n      and\n        /* \"contracts/Utils.sol\":19650:19685  address(WBNB) == address(lpAddress) */\n      0xffffffffffffffffffffffffffffffffffffffff\n      and\n      sub\n        /* \"contracts/Utils.sol\":19647:19835  if(address(WBNB) == address(lpAddress)){... */\n      tag_237\n      jumpi\n        /* \"contracts/Utils.sol\":19713:19742  WBNBPrice(address(lpAddress)) */\n      tag_238\n        /* \"contracts/Utils.sol\":19731:19740  lpAddress */\n      dup7\n        /* \"contracts/Utils.sol\":19713:19722  WBNBPrice */\n      tag_41\n        /* \"contracts/Utils.sol\":19713:19742  WBNBPrice(address(lpAddress)) */\n      jump\t// in\n    tag_238:\n        /* \"contracts/Utils.sol\":19705:19742  price = WBNBPrice(address(lpAddress)) */\n      swap1\n      pop\n        /* \"contracts/Utils.sol\":19647:19835  if(address(WBNB) == address(lpAddress)){... */\n      jump(tag_239)\n    tag_237:\n        /* \"contracts/Utils.sol\":19789:19819  Tokenprice(address(lpAddress)) */\n      tag_240\n        /* \"contracts/Utils.sol\":19808:19817  lpAddress */\n      dup7\n        /* \"contracts/Utils.sol\":19789:19799  Tokenprice */\n      tag_23\n        /* \"contracts/Utils.sol\":19789:19819  Tokenprice(address(lpAddress)) */\n      jump\t// in\n    tag_240:\n        /* \"contracts/Utils.sol\":19781:19819  price = Tokenprice(address(lpAddress)) */\n      swap1\n      pop\n        /* \"contracts/Utils.sol\":19647:19835  if(address(WBNB) == address(lpAddress)){... */\n    tag_239:\n        /* \"contracts/Utils.sol\":19619:19846  if(isLp == 0){... */\n    tag_236:\n        /* \"contracts/Utils.sol\":19544:19846  if(isLp == 1){... */\n    tag_235:\n        /* \"contracts/Utils.sol\":19865:19894  (Balance * price).div(amount) */\n      tag_241\n        /* \"contracts/Utils.sol\":19887:19893  amount */\n      sload(0x03)\n        /* \"contracts/Utils.sol\":19876:19881  price */\n      dup3\n        /* \"contracts/Utils.sol\":19866:19873  Balance */\n      dup5\n        /* \"contracts/Utils.sol\":19866:19881  Balance * price */\n      tag_242\n      swap2\n      swap1\n      tag_243\n      jump\t// in\n    tag_242:\n        /* \"contracts/Utils.sol\":19865:19886  (Balance * price).div */\n      tag_164\n      swap1\n        /* \"contracts/Utils.sol\":19865:19894  (Balance * price).div(amount) */\n      swap2\n      swap1\n      0xffffffff\n      and\n      jump\t// in\n    tag_241:\n        /* \"contracts/Utils.sol\":19858:19894  return (Balance * price).div(amount) */\n      swap3\n      pop\n      pop\n      pop\n        /* \"contracts/Utils.sol\":19331:19902  function calcPoolTVLInUSD(uint256 pid, LP lpAddress, uint256 isLp, MetaMasterChef MasterChef) public view returns(uint256){... */\n      swap5\n      swap4\n      pop\n      pop\n      pop\n      pop\n      jump\t// out\n        /* \"contracts/Utils.sol\":19910:20612  function CalcApy(uint256 pid, LP lpAddress,uint256 isLp, MetaMasterChef MasterChef) external view returns(uint256){... */\n    tag_71:\n        /* \"contracts/Utils.sol\":20016:20023  uint256 */\n      0x00\n        /* \"contracts/Utils.sol\":20035:20055  PoolInfo memory pool */\n      dup1\n        /* \"contracts/Utils.sol\":20058:20068  MasterChef */\n      dup3\n        /* \"contracts/Utils.sol\":20058:20077  MasterChef.poolInfo */\n      0xffffffffffffffffffffffffffffffffffffffff\n      and\n      0x1526fe27\n        /* \"contracts/Utils.sol\":20078:20081  pid */\n      dup8\n        /* \"contracts/Utils.sol\":20058:20082  MasterChef.poolInfo(pid) */\n      mload(0x40)\n      dup3\n      0xffffffff\n      and\n      0xe0\n      shl\n      dup2\n      mstore\n      0x04\n      add\n      tag_245\n      swap2\n      swap1\n      tag_25\n      jump\t// in\n    tag_245:\n      0xc0\n      mload(0x40)\n      dup1\n      dup4\n      sub\n      dup2\n      dup7\n      gas\n      staticcall\n      iszero\n      dup1\n      iszero\n      tag_247\n      jumpi\n      returndatasize\n      0x00\n      dup1\n      returndatacopy\n      revert(0x00, returndatasize)\n    tag_247:\n      pop\n      pop\n      pop\n      pop\n      mload(0x40)\n      returndatasize\n      not(0x1f)\n      0x1f\n      dup3\n      add\n      and\n      dup3\n      add\n      dup1\n      0x40\n      mstore\n      pop\n      dup2\n      add\n      swap1\n      tag_248\n      swap2\n      swap1\n      tag_211\n      jump\t// in\n    tag_248:\n        /* \"contracts/Utils.sol\":20035:20082  PoolInfo memory pool = MasterChef.poolInfo(pid) */\n      swap1\n      pop\n        /* \"contracts/Utils.sol\":20093:20111  uint256 poolWeight */\n      0x00\n        /* \"contracts/Utils.sol\":20114:20179  ((pool.allocPoint).mul(amount)).div(MasterChef.totalAllocPoint()) */\n      tag_249\n        /* \"contracts/Utils.sol\":20150:20160  MasterChef */\n      dup5\n        /* \"contracts/Utils.sol\":20150:20176  MasterChef.totalAllocPoint */\n      0xffffffffffffffffffffffffffffffffffffffff\n      and\n      0x17caf6f1\n        /* \"contracts/Utils.sol\":20150:20178  MasterChef.totalAllocPoint() */\n      mload(0x40)\n      dup2\n      0xffffffff\n      and\n      0xe0\n      shl\n      dup2\n      mstore\n      0x04\n      add\n      0x20\n      mload(0x40)\n      dup1\n      dup4\n      sub\n      dup2\n      dup7\n      gas\n      staticcall\n      iszero\n      dup1\n      iszero\n      tag_251\n      jumpi\n      returndatasize\n      0x00\n      dup1\n      returndatacopy\n      revert(0x00, returndatasize)\n    tag_251:\n      pop\n      pop\n      pop\n      pop\n      mload(0x40)\n      returndatasize\n      not(0x1f)\n      0x1f\n      dup3\n      add\n      and\n      dup3\n      add\n      dup1\n      0x40\n      mstore\n      pop\n      dup2\n      add\n      swap1\n      tag_252\n      swap2\n      swap1\n      tag_114\n      jump\t// in\n    tag_252:\n        /* \"contracts/Utils.sol\":20115:20144  (pool.allocPoint).mul(amount) */\n      tag_253\n        /* \"contracts/Utils.sol\":20137:20143  amount */\n      sload(0x03)\n        /* \"contracts/Utils.sol\":20116:20120  pool */\n      dup6\n        /* \"contracts/Utils.sol\":20116:20131  pool.allocPoint */\n      0x20\n      add\n      mload\n        /* \"contracts/Utils.sol\":20115:20136  (pool.allocPoint).mul */\n      tag_115\n      swap1\n        /* \"contracts/Utils.sol\":20115:20144  (pool.allocPoint).mul(amount) */\n      swap2\n      swap1\n      0xffffffff\n      and\n      jump\t// in\n    tag_253:\n        /* \"contracts/Utils.sol\":20114:20149  ((pool.allocPoint).mul(amount)).div */\n      tag_164\n      swap1\n        /* \"contracts/Utils.sol\":20114:20179  ((pool.allocPoint).mul(amount)).div(MasterChef.totalAllocPoint()) */\n      swap2\n      swap1\n      0xffffffff\n      and\n      jump\t// in\n    tag_249:\n        /* \"contracts/Utils.sol\":20093:20179  uint256 poolWeight = ((pool.allocPoint).mul(amount)).div(MasterChef.totalAllocPoint()) */\n      swap1\n      pop\n        /* \"contracts/Utils.sol\":20190:20214  uint256 rewardTokenPrice */\n      0x00\n        /* \"contracts/Utils.sol\":20217:20245  Tokenprice(MasterChef.DRG()) */\n      tag_254\n        /* \"contracts/Utils.sol\":20228:20238  MasterChef */\n      dup6\n        /* \"contracts/Utils.sol\":20228:20242  MasterChef.DRG */\n      0xffffffffffffffffffffffffffffffffffffffff\n      and\n      0x141aa0ba\n        /* \"contracts/Utils.sol\":20228:20244  MasterChef.DRG() */\n      mload(0x40)\n      dup2\n      0xffffffff\n      and\n      0xe0\n      shl\n      dup2\n      mstore\n      0x04\n      add\n      0x20\n      mload(0x40)\n      dup1\n      dup4\n      sub\n      dup2\n      dup7\n      gas\n      staticcall\n      iszero\n      dup1\n      iszero\n      tag_256\n      jumpi\n      returndatasize\n      0x00\n      dup1\n      returndatacopy\n      revert(0x00, returndatasize)\n    tag_256:\n      pop\n      pop\n      pop\n      pop\n      mload(0x40)\n      returndatasize\n      not(0x1f)\n      0x1f\n      dup3\n      add\n      and\n      dup3\n      add\n      dup1\n      0x40\n      mstore\n      pop\n      dup2\n      add\n      swap1\n      tag_257\n      swap2\n      swap1\n      tag_258\n      jump\t// in\n    tag_257:\n        /* \"contracts/Utils.sol\":20217:20227  Tokenprice */\n      tag_23\n        /* \"contracts/Utils.sol\":20217:20245  Tokenprice(MasterChef.DRG()) */\n      jump\t// in\n    tag_254:\n        /* \"contracts/Utils.sol\":20190:20245  uint256 rewardTokenPrice = Tokenprice(MasterChef.DRG()) */\n      swap1\n      pop\n        /* \"contracts/Utils.sol\":20256:20276  uint256 DRG_PER_YEAR */\n      0x00\n        /* \"contracts/Utils.sol\":20279:20324  BLOCKS_PER_YEAR.mul(MasterChef.DRGPerBlock()) */\n      tag_259\n        /* \"contracts/Utils.sol\":20299:20309  MasterChef */\n      dup7\n        /* \"contracts/Utils.sol\":20299:20321  MasterChef.DRGPerBlock */\n      0xffffffffffffffffffffffffffffffffffffffff\n      and\n      0xa1eef821\n        /* \"contracts/Utils.sol\":20299:20323  MasterChef.DRGPerBlock() */\n      mload(0x40)\n      dup2\n      0xffffffff\n      and\n      0xe0\n      shl\n      dup2\n      mstore\n      0x04\n      add\n      0x20\n      mload(0x40)\n      dup1\n      dup4\n      sub\n      dup2\n      dup7\n      gas\n      staticcall\n      iszero\n      dup1\n      iszero\n      tag_261\n      jumpi\n      returndatasize\n      0x00\n      dup1\n      returndatacopy\n      revert(0x00, returndatasize)\n    tag_261:\n      pop\n      pop\n      pop\n      pop\n      mload(0x40)\n      returndatasize\n      not(0x1f)\n      0x1f\n      dup3\n      add\n      and\n      dup3\n      add\n      dup1\n      0x40\n      mstore\n      pop\n      dup2\n      add\n      swap1\n      tag_262\n      swap2\n      swap1\n      tag_114\n      jump\t// in\n    tag_262:\n        /* \"contracts/Utils.sol\":20279:20294  BLOCKS_PER_YEAR */\n      sload(0x05)\n        /* \"contracts/Utils.sol\":20279:20298  BLOCKS_PER_YEAR.mul */\n      tag_115\n      swap1\n        /* \"contracts/Utils.sol\":20279:20324  BLOCKS_PER_YEAR.mul(MasterChef.DRGPerBlock()) */\n      swap2\n      swap1\n      0xffffffff\n      and\n      jump\t// in\n    tag_259:\n        /* \"contracts/Utils.sol\":20256:20324  uint256 DRG_PER_YEAR = BLOCKS_PER_YEAR.mul(MasterChef.DRGPerBlock()) */\n      swap1\n      pop\n        /* \"contracts/Utils.sol\":20335:20368  uint256 yearlyDRGRewardAllocation */\n      0x00\n        /* \"contracts/Utils.sol\":20371:20413  (DRG_PER_YEAR.mul(poolWeight)).div(amount) */\n      tag_263\n        /* \"contracts/Utils.sol\":20406:20412  amount */\n      sload(0x03)\n        /* \"contracts/Utils.sol\":20372:20400  DRG_PER_YEAR.mul(poolWeight) */\n      tag_264\n        /* \"contracts/Utils.sol\":20389:20399  poolWeight */\n      dup7\n        /* \"contracts/Utils.sol\":20372:20384  DRG_PER_YEAR */\n      dup6\n        /* \"contracts/Utils.sol\":20372:20388  DRG_PER_YEAR.mul */\n      tag_115\n      swap1\n        /* \"contracts/Utils.sol\":20372:20400  DRG_PER_YEAR.mul(poolWeight) */\n      swap2\n      swap1\n      0xffffffff\n      and\n      jump\t// in\n    tag_264:\n        /* \"contracts/Utils.sol\":20371:20405  (DRG_PER_YEAR.mul(poolWeight)).div */\n      tag_164\n      swap1\n        /* \"contracts/Utils.sol\":20371:20413  (DRG_PER_YEAR.mul(poolWeight)).div(amount) */\n      swap2\n      swap1\n      0xffffffff\n      and\n      jump\t// in\n    tag_263:\n        /* \"contracts/Utils.sol\":20335:20413  uint256 yearlyDRGRewardAllocation = (DRG_PER_YEAR.mul(poolWeight)).div(amount) */\n      swap1\n      pop\n        /* \"contracts/Utils.sol\":20424:20448  uint256 poolLiquidityUsd */\n      0x00\n        /* \"contracts/Utils.sol\":20451:20501  calcPoolTVLInUSD(pid, lpAddress, isLp, MasterChef) */\n      tag_265\n        /* \"contracts/Utils.sol\":20468:20471  pid */\n      dup12\n        /* \"contracts/Utils.sol\":20473:20482  lpAddress */\n      dup12\n        /* \"contracts/Utils.sol\":20484:20488  isLp */\n      dup12\n        /* \"contracts/Utils.sol\":20490:20500  MasterChef */\n      dup12\n        /* \"contracts/Utils.sol\":20451:20467  calcPoolTVLInUSD */\n      tag_67\n        /* \"contracts/Utils.sol\":20451:20501  calcPoolTVLInUSD(pid, lpAddress, isLp, MasterChef) */\n      jump\t// in\n    tag_265:\n        /* \"contracts/Utils.sol\":20424:20501  uint256 poolLiquidityUsd = calcPoolTVLInUSD(pid, lpAddress, isLp, MasterChef) */\n      swap1\n      pop\n        /* \"contracts/Utils.sol\":20520:20604  (((yearlyDRGRewardAllocation.mul(rewardTokenPrice))).div(poolLiquidityUsd)).mul(100) */\n      tag_266\n        /* \"contracts/Utils.sol\":20600:20603  100 */\n      0x64\n        /* \"contracts/Utils.sol\":20521:20594  ((yearlyDRGRewardAllocation.mul(rewardTokenPrice))).div(poolLiquidityUsd) */\n      tag_267\n        /* \"contracts/Utils.sol\":20577:20593  poolLiquidityUsd */\n      dup4\n        /* \"contracts/Utils.sol\":20523:20570  yearlyDRGRewardAllocation.mul(rewardTokenPrice) */\n      tag_268\n        /* \"contracts/Utils.sol\":20553:20569  rewardTokenPrice */\n      dup9\n        /* \"contracts/Utils.sol\":20523:20548  yearlyDRGRewardAllocation */\n      dup8\n        /* \"contracts/Utils.sol\":20523:20552  yearlyDRGRewardAllocation.mul */\n      tag_115\n      swap1\n        /* \"contracts/Utils.sol\":20523:20570  yearlyDRGRewardAllocation.mul(rewardTokenPrice) */\n      swap2\n      swap1\n      0xffffffff\n      and\n      jump\t// in\n    tag_268:\n        /* \"contracts/Utils.sol\":20521:20576  ((yearlyDRGRewardAllocation.mul(rewardTokenPrice))).div */\n      tag_164\n      swap1\n        /* \"contracts/Utils.sol\":20521:20594  ((yearlyDRGRewardAllocation.mul(rewardTokenPrice))).div(poolLiquidityUsd) */\n      swap2\n      swap1\n      0xffffffff\n      and\n      jump\t// in\n    tag_267:\n        /* \"contracts/Utils.sol\":20520:20599  (((yearlyDRGRewardAllocation.mul(rewardTokenPrice))).div(poolLiquidityUsd)).mul */\n      tag_115\n      swap1\n        /* \"contracts/Utils.sol\":20520:20604  (((yearlyDRGRewardAllocation.mul(rewardTokenPrice))).div(poolLiquidityUsd)).mul(100) */\n      swap2\n      swap1\n      0xffffffff\n      and\n      jump\t// in\n    tag_266:\n        /* \"contracts/Utils.sol\":20514:20604  return(((yearlyDRGRewardAllocation.mul(rewardTokenPrice))).div(poolLiquidityUsd)).mul(100) */\n      swap7\n      pop\n      pop\n      pop\n      pop\n      pop\n      pop\n      pop\n        /* \"contracts/Utils.sol\":19910:20612  function CalcApy(uint256 pid, LP lpAddress,uint256 isLp, MetaMasterChef MasterChef) external view returns(uint256){... */\n      swap5\n      swap4\n      pop\n      pop\n      pop\n      pop\n      jump\t// out\n        /* \"contracts/Utils.sol\":14758:14959  function transferOwnership(address newOwner) public virtual onlyOwner {... */\n    tag_75:\n        /* \"contracts/Utils.sol\":14080:14092  _msgSender() */\n      tag_270\n        /* \"contracts/Utils.sol\":14080:14090  _msgSender */\n      tag_189\n        /* \"contracts/Utils.sol\":14080:14092  _msgSender() */\n      jump\t// in\n    tag_270:\n        /* \"contracts/Utils.sol\":14069:14092  owner() == _msgSender() */\n      0xffffffffffffffffffffffffffffffffffffffff\n      and\n        /* \"contracts/Utils.sol\":14069:14076  owner() */\n      tag_271\n        /* \"contracts/Utils.sol\":14069:14074  owner */\n      tag_50\n        /* \"contracts/Utils.sol\":14069:14076  owner() */\n      jump\t// in\n    tag_271:\n        /* \"contracts/Utils.sol\":14069:14092  owner() == _msgSender() */\n      0xffffffffffffffffffffffffffffffffffffffff\n      and\n      eq\n        /* \"contracts/Utils.sol\":14061:14129  require(owner() == _msgSender(), \"Ownable: caller is not the owner\") */\n      tag_272\n      jumpi\n      mload(0x40)\n      0x08c379a000000000000000000000000000000000000000000000000000000000\n      dup2\n      mstore\n      0x04\n      add\n      tag_273\n      swap1\n      tag_193\n      jump\t// in\n    tag_273:\n      mload(0x40)\n      dup1\n      swap2\n      sub\n      swap1\n      revert\n    tag_272:\n        /* \"contracts/Utils.sol\":14867:14868  0 */\n      0x00\n        /* \"contracts/Utils.sol\":14847:14869  newOwner != address(0) */\n      0xffffffffffffffffffffffffffffffffffffffff\n      and\n        /* \"contracts/Utils.sol\":14847:14855  newOwner */\n      dup2\n        /* \"contracts/Utils.sol\":14847:14869  newOwner != address(0) */\n      0xffffffffffffffffffffffffffffffffffffffff\n      and\n      sub\n        /* \"contracts/Utils.sol\":14839:14912  require(newOwner != address(0), \"Ownable: new owner is the zero address\") */\n      tag_275\n      jumpi\n      mload(0x40)\n      0x08c379a000000000000000000000000000000000000000000000000000000000\n      dup2\n      mstore\n      0x04\n      add\n      tag_276\n      swap1\n      tag_277\n      jump\t// in\n    tag_276:\n      mload(0x40)\n      dup1\n      swap2\n      sub\n      swap1\n      revert\n    tag_275:\n        /* \"contracts/Utils.sol\":14923:14951  _transferOwnership(newOwner) */\n      tag_278\n        /* \"contracts/Utils.sol\":14942:14950  newOwner */\n      dup2\n        /* \"contracts/Utils.sol\":14923:14941  _transferOwnership */\n      tag_196\n        /* \"contracts/Utils.sol\":14923:14951  _transferOwnership(newOwner) */\n      jump\t// in\n    tag_278:\n        /* \"contracts/Utils.sol\":14758:14959  function transferOwnership(address newOwner) public virtual onlyOwner {... */\n      pop\n      jump\t// out\n        /* \"contracts/Utils.sol\":9965:10436  function mul(uint256 a, uint256 b) internal pure returns (uint256) {... */\n    tag_115:\n        /* \"contracts/Utils.sol\":10023:10030  uint256 */\n      0x00\n        /* \"contracts/Utils.sol\":10273:10274  0 */\n      dup1\n        /* \"contracts/Utils.sol\":10268:10269  a */\n      dup4\n        /* \"contracts/Utils.sol\":10268:10274  a == 0 */\n      sub\n        /* \"contracts/Utils.sol\":10264:10311  if (a == 0) {... */\n      tag_280\n      jumpi\n        /* \"contracts/Utils.sol\":10298:10299  0 */\n      0x00\n        /* \"contracts/Utils.sol\":10291:10299  return 0 */\n      swap1\n      pop\n      jump(tag_279)\n        /* \"contracts/Utils.sol\":10264:10311  if (a == 0) {... */\n    tag_280:\n        /* \"contracts/Utils.sol\":10323:10332  uint256 c */\n      0x00\n        /* \"contracts/Utils.sol\":10339:10340  b */\n      dup3\n        /* \"contracts/Utils.sol\":10335:10336  a */\n      dup5\n        /* \"contracts/Utils.sol\":10335:10340  a * b */\n      tag_281\n      swap2\n      swap1\n      tag_243\n      jump\t// in\n    tag_281:\n        /* \"contracts/Utils.sol\":10323:10340  uint256 c = a * b */\n      swap1\n      pop\n        /* \"contracts/Utils.sol\":10368:10369  b */\n      dup3\n        /* \"contracts/Utils.sol\":10363:10364  a */\n      dup5\n        /* \"contracts/Utils.sol\":10359:10360  c */\n      dup3\n        /* \"contracts/Utils.sol\":10359:10364  c / a */\n      tag_282\n      swap2\n      swap1\n      tag_283\n      jump\t// in\n    tag_282:\n        /* \"contracts/Utils.sol\":10359:10369  c / a == b */\n      eq\n        /* \"contracts/Utils.sol\":10351:10407  require(c / a == b, \"SafeMath: multiplication overflow\") */\n      tag_284\n      jumpi\n      mload(0x40)\n      0x08c379a000000000000000000000000000000000000000000000000000000000\n      dup2\n      mstore\n      0x04\n      add\n      tag_285\n      swap1\n      tag_286\n      jump\t// in\n    tag_285:\n      mload(0x40)\n      dup1\n      swap2\n      sub\n      swap1\n      revert\n    tag_284:\n        /* \"contracts/Utils.sol\":10427:10428  c */\n      dup1\n        /* \"contracts/Utils.sol\":10420:10428  return c */\n      swap2\n      pop\n      pop\n        /* \"contracts/Utils.sol\":9965:10436  function mul(uint256 a, uint256 b) internal pure returns (uint256) {... */\n    tag_279:\n      swap3\n      swap2\n      pop\n      pop\n      jump\t// out\n        /* \"contracts/Utils.sol\":8593:8774  function add(uint256 a, uint256 b) internal pure returns (uint256) {... */\n    tag_163:\n        /* \"contracts/Utils.sol\":8651:8658  uint256 */\n      0x00\n        /* \"contracts/Utils.sol\":8671:8680  uint256 c */\n      dup1\n        /* \"contracts/Utils.sol\":8687:8688  b */\n      dup3\n        /* \"contracts/Utils.sol\":8683:8684  a */\n      dup5\n        /* \"contracts/Utils.sol\":8683:8688  a + b */\n      tag_288\n      swap2\n      swap1\n      tag_216\n      jump\t// in\n    tag_288:\n        /* \"contracts/Utils.sol\":8671:8688  uint256 c = a + b */\n      swap1\n      pop\n        /* \"contracts/Utils.sol\":8712:8713  a */\n      dup4\n        /* \"contracts/Utils.sol\":8707:8708  c */\n      dup2\n        /* \"contracts/Utils.sol\":8707:8713  c >= a */\n      lt\n      iszero\n        /* \"contracts/Utils.sol\":8699:8745  require(c >= a, \"SafeMath: addition overflow\") */\n      tag_289\n      jumpi\n      mload(0x40)\n      0x08c379a000000000000000000000000000000000000000000000000000000000\n      dup2\n      mstore\n      0x04\n      add\n      tag_290\n      swap1\n      tag_291\n      jump\t// in\n    tag_290:\n      mload(0x40)\n      dup1\n      swap2\n      sub\n      swap1\n      revert\n    tag_289:\n        /* \"contracts/Utils.sol\":8765:8766  c */\n      dup1\n        /* \"contracts/Utils.sol\":8758:8766  return c */\n      swap2\n      pop\n      pop\n        /* \"contracts/Utils.sol\":8593:8774  function add(uint256 a, uint256 b) internal pure returns (uint256) {... */\n      swap3\n      swap2\n      pop\n      pop\n      jump\t// out\n        /* \"contracts/Utils.sol\":10904:11036  function div(uint256 a, uint256 b) internal pure returns (uint256) {... */\n    tag_164:\n        /* \"contracts/Utils.sol\":10962:10969  uint256 */\n      0x00\n        /* \"contracts/Utils.sol\":10989:11028  div(a, b, \"SafeMath: division by zero\") */\n      tag_293\n        /* \"contracts/Utils.sol\":10993:10994  a */\n      dup4\n        /* \"contracts/Utils.sol\":10996:10997  b */\n      dup4\n        /* \"contracts/Utils.sol\":10989:11028  div(a, b, \"SafeMath: division by zero\") */\n      mload(0x40)\n      dup1\n      0x40\n      add\n      0x40\n      mstore\n      dup1\n      0x1a\n      dup2\n      mstore\n      0x20\n      add\n      0x536166654d6174683a206469766973696f6e206279207a65726f000000000000\n      dup2\n      mstore\n      pop\n        /* \"contracts/Utils.sol\":10989:10992  div */\n      tag_294\n        /* \"contracts/Utils.sol\":10989:11028  div(a, b, \"SafeMath: division by zero\") */\n      jump\t// in\n    tag_293:\n        /* \"contracts/Utils.sol\":10982:11028  return div(a, b, \"SafeMath: division by zero\") */\n      swap1\n      pop\n        /* \"contracts/Utils.sol\":10904:11036  function div(uint256 a, uint256 b) internal pure returns (uint256) {... */\n      swap3\n      swap2\n      pop\n      pop\n      jump\t// out\n        /* \"contracts/Utils.sol\":13223:13321  function _msgSender() internal view virtual returns (address) {... */\n    tag_189:\n        /* \"contracts/Utils.sol\":13276:13283  address */\n      0x00\n        /* \"contracts/Utils.sol\":13303:13313  msg.sender */\n      caller\n        /* \"contracts/Utils.sol\":13296:13313  return msg.sender */\n      swap1\n      pop\n        /* \"contracts/Utils.sol\":13223:13321  function _msgSender() internal view virtual returns (address) {... */\n      swap1\n      jump\t// out\n        /* \"contracts/Utils.sol\":15119:15310  function _transferOwnership(address newOwner) internal virtual {... */\n    tag_196:\n        /* \"contracts/Utils.sol\":15193:15209  address oldOwner */\n      0x00\n        /* \"contracts/Utils.sol\":15212:15218  _owner */\n      dup1\n      0x00\n      swap1\n      sload\n      swap1\n      0x0100\n      exp\n      swap1\n      div\n      0xffffffffffffffffffffffffffffffffffffffff\n      and\n        /* \"contracts/Utils.sol\":15193:15218  address oldOwner = _owner */\n      swap1\n      pop\n        /* \"contracts/Utils.sol\":15238:15246  newOwner */\n      dup2\n        /* \"contracts/Utils.sol\":15229:15235  _owner */\n      0x00\n      dup1\n        /* \"contracts/Utils.sol\":15229:15246  _owner = newOwner */\n      0x0100\n      exp\n      dup2\n      sload\n      dup2\n      0xffffffffffffffffffffffffffffffffffffffff\n      mul\n      not\n      and\n      swap1\n      dup4\n      0xffffffffffffffffffffffffffffffffffffffff\n      and\n      mul\n      or\n      swap1\n      sstore\n      pop\n        /* \"contracts/Utils.sol\":15293:15301  newOwner */\n      dup2\n        /* \"contracts/Utils.sol\":15262:15302  OwnershipTransferred(oldOwner, newOwner) */\n      0xffffffffffffffffffffffffffffffffffffffff\n      and\n        /* \"contracts/Utils.sol\":15283:15291  oldOwner */\n      dup2\n        /* \"contracts/Utils.sol\":15262:15302  OwnershipTransferred(oldOwner, newOwner) */\n      0xffffffffffffffffffffffffffffffffffffffff\n      and\n      0x8be0079c531659141344cd1fd0a4f28419497f9722a3daafe3b4186f6b6457e0\n      mload(0x40)\n      mload(0x40)\n      dup1\n      swap2\n      sub\n      swap1\n      log3\n        /* \"contracts/Utils.sol\":15182:15310  {... */\n      pop\n        /* \"contracts/Utils.sol\":15119:15310  function _transferOwnership(address newOwner) internal virtual {... */\n      pop\n      jump\t// out\n        /* \"contracts/Utils.sol\":11566:11911  function div(uint256 a, uint256 b, string memory errorMessage) internal pure returns (uint256) {... */\n    tag_294:\n        /* \"contracts/Utils.sol\":11652:11659  uint256 */\n      0x00\n        /* \"contracts/Utils.sol\":11751:11752  0 */\n      dup1\n        /* \"contracts/Utils.sol\":11747:11748  b */\n      dup4\n        /* \"contracts/Utils.sol\":11747:11752  b > 0 */\n      gt\n        /* \"contracts/Utils.sol\":11754:11766  errorMessage */\n      dup3\n        /* \"contracts/Utils.sol\":11739:11767  require(b > 0, errorMessage) */\n      swap1\n      tag_298\n      jumpi\n      mload(0x40)\n      0x08c379a000000000000000000000000000000000000000000000000000000000\n      dup2\n      mstore\n      0x04\n      add\n      tag_299\n      swap2\n      swap1\n      tag_300\n      jump\t// in\n    tag_299:\n      mload(0x40)\n      dup1\n      swap2\n      sub\n      swap1\n      revert\n    tag_298:\n      pop\n        /* \"contracts/Utils.sol\":11778:11787  uint256 c */\n      0x00\n        /* \"contracts/Utils.sol\":11794:11795  b */\n      dup4\n        /* \"contracts/Utils.sol\":11790:11791  a */\n      dup6\n        /* \"contracts/Utils.sol\":11790:11795  a / b */\n      tag_301\n      swap2\n      swap1\n      tag_283\n      jump\t// in\n    tag_301:\n        /* \"contracts/Utils.sol\":11778:11795  uint256 c = a / b */\n      swap1\n      pop\n        /* \"contracts/Utils.sol\":11902:11903  c */\n      dup1\n        /* \"contracts/Utils.sol\":11895:11903  return c */\n      swap2\n      pop\n      pop\n        /* \"contracts/Utils.sol\":11566:11911  function div(uint256 a, uint256 b, string memory errorMessage) internal pure returns (uint256) {... */\n      swap4\n      swap3\n      pop\n      pop\n      pop\n      jump\t// out\n    tag_200:\n      mload(0x40)\n      dup1\n      0xc0\n      add\n      0x40\n      mstore\n      dup1\n      and(0xffffffffffffffffffffffffffffffffffffffff, 0x00)\n      dup2\n      mstore\n      0x20\n      add\n      0x00\n      dup2\n      mstore\n      0x20\n      add\n      0x00\n      dup2\n      mstore\n      0x20\n      add\n      0x00\n      dup2\n      mstore\n      0x20\n      add\n      and(0xffffffffffffffffffffffffffffffffffffffff, 0x00)\n      dup2\n      mstore\n      0x20\n      add\n      and(0xffffffffffffffffffffffffffffffffffffffff, 0x00)\n      dup2\n      mstore\n      pop\n      swap1\n      jump\t// out\n        /* \"#utility.yul\":7:82   */\n    tag_302:\n        /* \"#utility.yul\":40:46   */\n      0x00\n        /* \"#utility.yul\":73:75   */\n      0x40\n        /* \"#utility.yul\":67:76   */\n      mload\n        /* \"#utility.yul\":57:76   */\n      swap1\n      pop\n        /* \"#utility.yul\":7:82   */\n      swap1\n      jump\t// out\n        /* \"#utility.yul\":88:205   */\n    tag_303:\n        /* \"#utility.yul\":197:198   */\n      0x00\n        /* \"#utility.yul\":194:195   */\n      dup1\n        /* \"#utility.yul\":187:199   */\n      revert\n        /* \"#utility.yul\":211:328   */\n    tag_304:\n        /* \"#utility.yul\":320:321   */\n      0x00\n        /* \"#utility.yul\":317:318   */\n      dup1\n        /* \"#utility.yul\":310:322   */\n      revert\n        /* \"#utility.yul\":334:460   */\n    tag_305:\n        /* \"#utility.yul\":371:378   */\n      0x00\n        /* \"#utility.yul\":411:453   */\n      0xffffffffffffffffffffffffffffffffffffffff\n        /* \"#utility.yul\":404:409   */\n      dup3\n        /* \"#utility.yul\":400:454   */\n      and\n        /* \"#utility.yul\":389:454   */\n      swap1\n      pop\n        /* \"#utility.yul\":334:460   */\n      swap2\n      swap1\n      pop\n      jump\t// out\n        /* \"#utility.yul\":466:562   */\n    tag_306:\n        /* \"#utility.yul\":503:510   */\n      0x00\n        /* \"#utility.yul\":532:556   */\n      tag_374\n        /* \"#utility.yul\":550:555   */\n      dup3\n        /* \"#utility.yul\":532:556   */\n      tag_305\n      jump\t// in\n    tag_374:\n        /* \"#utility.yul\":521:556   */\n      swap1\n      pop\n        /* \"#utility.yul\":466:562   */\n      swap2\n      swap1\n      pop\n      jump\t// out\n        /* \"#utility.yul\":568:690   */\n    tag_307:\n        /* \"#utility.yul\":641:665   */\n      tag_376\n        /* \"#utility.yul\":659:664   */\n      dup2\n        /* \"#utility.yul\":641:665   */\n      tag_306\n      jump\t// in\n    tag_376:\n        /* \"#utility.yul\":634:639   */\n      dup2\n        /* \"#utility.yul\":631:666   */\n      eq\n        /* \"#utility.yul\":621:684   */\n      tag_377\n      jumpi\n        /* \"#utility.yul\":680:681   */\n      0x00\n        /* \"#utility.yul\":677:678   */\n      dup1\n        /* \"#utility.yul\":670:682   */\n      revert\n        /* \"#utility.yul\":621:684   */\n    tag_377:\n        /* \"#utility.yul\":568:690   */\n      pop\n      jump\t// out\n        /* \"#utility.yul\":696:835   */\n    tag_308:\n        /* \"#utility.yul\":742:747   */\n      0x00\n        /* \"#utility.yul\":780:786   */\n      dup2\n        /* \"#utility.yul\":767:787   */\n      calldataload\n        /* \"#utility.yul\":758:787   */\n      swap1\n      pop\n        /* \"#utility.yul\":796:829   */\n      tag_379\n        /* \"#utility.yul\":823:828   */\n      dup2\n        /* \"#utility.yul\":796:829   */\n      tag_307\n      jump\t// in\n    tag_379:\n        /* \"#utility.yul\":696:835   */\n      swap3\n      swap2\n      pop\n      pop\n      jump\t// out\n        /* \"#utility.yul\":841:1170   */\n    tag_22:\n        /* \"#utility.yul\":900:906   */\n      0x00\n        /* \"#utility.yul\":949:951   */\n      0x20\n        /* \"#utility.yul\":937:946   */\n      dup3\n        /* \"#utility.yul\":928:935   */\n      dup5\n        /* \"#utility.yul\":924:947   */\n      sub\n        /* \"#utility.yul\":920:952   */\n      slt\n        /* \"#utility.yul\":917:1036   */\n      iszero\n      tag_381\n      jumpi\n        /* \"#utility.yul\":955:1034   */\n      tag_382\n      tag_303\n      jump\t// in\n    tag_382:\n        /* \"#utility.yul\":917:1036   */\n    tag_381:\n        /* \"#utility.yul\":1075:1076   */\n      0x00\n        /* \"#utility.yul\":1100:1153   */\n      tag_383\n        /* \"#utility.yul\":1145:1152   */\n      dup5\n        /* \"#utility.yul\":1136:1142   */\n      dup3\n        /* \"#utility.yul\":1125:1134   */\n      dup6\n        /* \"#utility.yul\":1121:1143   */\n      add\n        /* \"#utility.yul\":1100:1153   */\n      tag_308\n      jump\t// in\n    tag_383:\n        /* \"#utility.yul\":1090:1153   */\n      swap2\n      pop\n        /* \"#utility.yul\":1046:1163   */\n      pop\n        /* \"#utility.yul\":841:1170   */\n      swap3\n      swap2\n      pop\n      pop\n      jump\t// out\n        /* \"#utility.yul\":1176:1253   */\n    tag_309:\n        /* \"#utility.yul\":1213:1220   */\n      0x00\n        /* \"#utility.yul\":1242:1247   */\n      dup2\n        /* \"#utility.yul\":1231:1247   */\n      swap1\n      pop\n        /* \"#utility.yul\":1176:1253   */\n      swap2\n      swap1\n      pop\n      jump\t// out\n        /* \"#utility.yul\":1259:1377   */\n    tag_310:\n        /* \"#utility.yul\":1346:1370   */\n      tag_386\n        /* \"#utility.yul\":1364:1369   */\n      dup2\n        /* \"#utility.yul\":1346:1370   */\n      tag_309\n      jump\t// in\n    tag_386:\n        /* \"#utility.yul\":1341:1344   */\n      dup3\n        /* \"#utility.yul\":1334:1371   */\n      mstore\n        /* \"#utility.yul\":1259:1377   */\n      pop\n      pop\n      jump\t// out\n        /* \"#utility.yul\":1383:1605   */\n    tag_25:\n        /* \"#utility.yul\":1476:1480   */\n      0x00\n        /* \"#utility.yul\":1514:1516   */\n      0x20\n        /* \"#utility.yul\":1503:1512   */\n      dup3\n        /* \"#utility.yul\":1499:1517   */\n      add\n        /* \"#utility.yul\":1491:1517   */\n      swap1\n      pop\n        /* \"#utility.yul\":1527:1598   */\n      tag_388\n        /* \"#utility.yul\":1595:1596   */\n      0x00\n        /* \"#utility.yul\":1584:1593   */\n      dup4\n        /* \"#utility.yul\":1580:1597   */\n      add\n        /* \"#utility.yul\":1571:1577   */\n      dup5\n        /* \"#utility.yul\":1527:1598   */\n      tag_310\n      jump\t// in\n    tag_388:\n        /* \"#utility.yul\":1383:1605   */\n      swap3\n      swap2\n      pop\n      pop\n      jump\t// out\n        /* \"#utility.yul\":1611:1717   */\n    tag_311:\n        /* \"#utility.yul\":1658:1665   */\n      0x00\n        /* \"#utility.yul\":1687:1711   */\n      tag_390\n        /* \"#utility.yul\":1705:1710   */\n      dup3\n        /* \"#utility.yul\":1687:1711   */\n      tag_306\n      jump\t// in\n    tag_390:\n        /* \"#utility.yul\":1676:1711   */\n      swap1\n      pop\n        /* \"#utility.yul\":1611:1717   */\n      swap2\n      swap1\n      pop\n      jump\t// out\n        /* \"#utility.yul\":1723:1865   */\n    tag_312:\n        /* \"#utility.yul\":1806:1840   */\n      tag_392\n        /* \"#utility.yul\":1834:1839   */\n      dup2\n        /* \"#utility.yul\":1806:1840   */\n      tag_311\n      jump\t// in\n    tag_392:\n        /* \"#utility.yul\":1799:1804   */\n      dup2\n        /* \"#utility.yul\":1796:1841   */\n      eq\n        /* \"#utility.yul\":1786:1859   */\n      tag_393\n      jumpi\n        /* \"#utility.yul\":1855:1856   */\n      0x00\n        /* \"#utility.yul\":1852:1853   */\n      dup1\n        /* \"#utility.yul\":1845:1857   */\n      revert\n        /* \"#utility.yul\":1786:1859   */\n    tag_393:\n        /* \"#utility.yul\":1723:1865   */\n      pop\n      jump\t// out\n        /* \"#utility.yul\":1871:2030   */\n    tag_313:\n        /* \"#utility.yul\":1927:1932   */\n      0x00\n        /* \"#utility.yul\":1965:1971   */\n      dup2\n        /* \"#utility.yul\":1952:1972   */\n      calldataload\n        /* \"#utility.yul\":1943:1972   */\n      swap1\n      pop\n        /* \"#utility.yul\":1981:2024   */\n      tag_395\n        /* \"#utility.yul\":2018:2023   */\n      dup2\n        /* \"#utility.yul\":1981:2024   */\n      tag_312\n      jump\t// in\n    tag_395:\n        /* \"#utility.yul\":1871:2030   */\n      swap3\n      swap2\n      pop\n      pop\n      jump\t// out\n        /* \"#utility.yul\":2036:2385   */\n    tag_28:\n        /* \"#utility.yul\":2105:2111   */\n      0x00\n        /* \"#utility.yul\":2154:2156   */\n      0x20\n        /* \"#utility.yul\":2142:2151   */\n      dup3\n        /* \"#utility.yul\":2133:2140   */\n      dup5\n        /* \"#utility.yul\":2129:2152   */\n      sub\n        /* \"#utility.yul\":2125:2157   */\n      slt\n        /* \"#utility.yul\":2122:2241   */\n      iszero\n      tag_397\n      jumpi\n        /* \"#utility.yul\":2160:2239   */\n      tag_398\n      tag_303\n      jump\t// in\n    tag_398:\n        /* \"#utility.yul\":2122:2241   */\n    tag_397:\n        /* \"#utility.yul\":2280:2281   */\n      0x00\n        /* \"#utility.yul\":2305:2368   */\n      tag_399\n        /* \"#utility.yul\":2360:2367   */\n      dup5\n        /* \"#utility.yul\":2351:2357   */\n      dup3\n        /* \"#utility.yul\":2340:2349   */\n      dup6\n        /* \"#utility.yul\":2336:2358   */\n      add\n        /* \"#utility.yul\":2305:2368   */\n      tag_313\n      jump\t// in\n    tag_399:\n        /* \"#utility.yul\":2295:2368   */\n      swap2\n      pop\n        /* \"#utility.yul\":2251:2378   */\n      pop\n        /* \"#utility.yul\":2036:2385   */\n      swap3\n      swap2\n      pop\n      pop\n      jump\t// out\n        /* \"#utility.yul\":2391:2451   */\n    tag_314:\n        /* \"#utility.yul\":2419:2422   */\n      0x00\n        /* \"#utility.yul\":2440:2445   */\n      dup2\n        /* \"#utility.yul\":2433:2445   */\n      swap1\n      pop\n        /* \"#utility.yul\":2391:2451   */\n      swap2\n      swap1\n      pop\n      jump\t// out\n        /* \"#utility.yul\":2457:2599   */\n    tag_315:\n        /* \"#utility.yul\":2507:2516   */\n      0x00\n        /* \"#utility.yul\":2540:2593   */\n      tag_402\n        /* \"#utility.yul\":2558:2592   */\n      tag_403\n        /* \"#utility.yul\":2567:2591   */\n      tag_404\n        /* \"#utility.yul\":2585:2590   */\n      dup5\n        /* \"#utility.yul\":2567:2591   */\n      tag_305\n      jump\t// in\n    tag_404:\n        /* \"#utility.yul\":2558:2592   */\n      tag_314\n      jump\t// in\n    tag_403:\n        /* \"#utility.yul\":2540:2593   */\n      tag_305\n      jump\t// in\n    tag_402:\n        /* \"#utility.yul\":2527:2593   */\n      swap1\n      pop\n        /* \"#utility.yul\":2457:2599   */\n      swap2\n      swap1\n      pop\n      jump\t// out\n        /* \"#utility.yul\":2605:2731   */\n    tag_316:\n        /* \"#utility.yul\":2655:2664   */\n      0x00\n        /* \"#utility.yul\":2688:2725   */\n      tag_406\n        /* \"#utility.yul\":2719:2724   */\n      dup3\n        /* \"#utility.yul\":2688:2725   */\n      tag_315\n      jump\t// in\n    tag_406:\n        /* \"#utility.yul\":2675:2725   */\n      swap1\n      pop\n        /* \"#utility.yul\":2605:2731   */\n      swap2\n      swap1\n      pop\n      jump\t// out\n        /* \"#utility.yul\":2737:2877   */\n    tag_317:\n        /* \"#utility.yul\":2801:2810   */\n      0x00\n        /* \"#utility.yul\":2834:2871   */\n      tag_408\n        /* \"#utility.yul\":2865:2870   */\n      dup3\n        /* \"#utility.yul\":2834:2871   */\n      tag_316\n      jump\t// in\n    tag_408:\n        /* \"#utility.yul\":2821:2871   */\n      swap1\n      pop\n        /* \"#utility.yul\":2737:2877   */\n      swap2\n      swap1\n      pop\n      jump\t// out\n        /* \"#utility.yul\":2883:3042   */\n    tag_318:\n        /* \"#utility.yul\":2984:3035   */\n      tag_410\n        /* \"#utility.yul\":3029:3034   */\n      dup2\n        /* \"#utility.yul\":2984:3035   */\n      tag_317\n      jump\t// in\n    tag_410:\n        /* \"#utility.yul\":2979:2982   */\n      dup3\n        /* \"#utility.yul\":2972:3036   */\n      mstore\n        /* \"#utility.yul\":2883:3042   */\n      pop\n      pop\n      jump\t// out\n        /* \"#utility.yul\":3048:3298   */\n    tag_38:\n        /* \"#utility.yul\":3155:3159   */\n      0x00\n        /* \"#utility.yul\":3193:3195   */\n      0x20\n        /* \"#utility.yul\":3182:3191   */\n      dup3\n        /* \"#utility.yul\":3178:3196   */\n      add\n        /* \"#utility.yul\":3170:3196   */\n      swap1\n      pop\n        /* \"#utility.yul\":3206:3291   */\n      tag_412\n        /* \"#utility.yul\":3288:3289   */\n      0x00\n        /* \"#utility.yul\":3277:3286   */\n      dup4\n        /* \"#utility.yul\":3273:3290   */\n      add\n        /* \"#utility.yul\":3264:3270   */\n      dup5\n        /* \"#utility.yul\":3206:3291   */\n      tag_318\n      jump\t// in\n    tag_412:\n        /* \"#utility.yul\":3048:3298   */\n      swap3\n      swap2\n      pop\n      pop\n      jump\t// out\n        /* \"#utility.yul\":3304:3422   */\n    tag_319:\n        /* \"#utility.yul\":3391:3415   */\n      tag_414\n        /* \"#utility.yul\":3409:3414   */\n      dup2\n        /* \"#utility.yul\":3391:3415   */\n      tag_306\n      jump\t// in\n    tag_414:\n        /* \"#utility.yul\":3386:3389   */\n      dup3\n        /* \"#utility.yul\":3379:3416   */\n      mstore\n        /* \"#utility.yul\":3304:3422   */\n      pop\n      pop\n      jump\t// out\n        /* \"#utility.yul\":3428:3650   */\n    tag_46:\n        /* \"#utility.yul\":3521:3525   */\n      0x00\n        /* \"#utility.yul\":3559:3561   */\n      0x20\n        /* \"#utility.yul\":3548:3557   */\n      dup3\n        /* \"#utility.yul\":3544:3562   */\n      add\n        /* \"#utility.yul\":3536:3562   */\n      swap1\n      pop\n        /* \"#utility.yul\":3572:3643   */\n      tag_416\n        /* \"#utility.yul\":3640:3641   */\n      0x00\n        /* \"#utility.yul\":3629:3638   */\n      dup4\n        /* \"#utility.yul\":3625:3642   */\n      add\n        /* \"#utility.yul\":3616:3622   */\n      dup5\n        /* \"#utility.yul\":3572:3643   */\n      tag_319\n      jump\t// in\n    tag_416:\n        /* \"#utility.yul\":3428:3650   */\n      swap3\n      swap2\n      pop\n      pop\n      jump\t// out\n        /* \"#utility.yul\":3656:3774   */\n    tag_320:\n        /* \"#utility.yul\":3715:3722   */\n      0x00\n        /* \"#utility.yul\":3744:3768   */\n      tag_418\n        /* \"#utility.yul\":3762:3767   */\n      dup3\n        /* \"#utility.yul\":3744:3768   */\n      tag_306\n      jump\t// in\n    tag_418:\n        /* \"#utility.yul\":3733:3768   */\n      swap1\n      pop\n        /* \"#utility.yul\":3656:3774   */\n      swap2\n      swap1\n      pop\n      jump\t// out\n        /* \"#utility.yul\":3780:3946   */\n    tag_321:\n        /* \"#utility.yul\":3875:3921   */\n      tag_420\n        /* \"#utility.yul\":3915:3920   */\n      dup2\n        /* \"#utility.yul\":3875:3921   */\n      tag_320\n      jump\t// in\n    tag_420:\n        /* \"#utility.yul\":3868:3873   */\n      dup2\n        /* \"#utility.yul\":3865:3922   */\n      eq\n        /* \"#utility.yul\":3855:3940   */\n      tag_421\n      jumpi\n        /* \"#utility.yul\":3936:3937   */\n      0x00\n        /* \"#utility.yul\":3933:3934   */\n      dup1\n        /* \"#utility.yul\":3926:3938   */\n      revert\n        /* \"#utility.yul\":3855:3940   */\n    tag_421:\n        /* \"#utility.yul\":3780:3946   */\n      pop\n      jump\t// out\n        /* \"#utility.yul\":3952:4135   */\n    tag_322:\n        /* \"#utility.yul\":4020:4025   */\n      0x00\n        /* \"#utility.yul\":4058:4064   */\n      dup2\n        /* \"#utility.yul\":4045:4065   */\n      calldataload\n        /* \"#utility.yul\":4036:4065   */\n      swap1\n      pop\n        /* \"#utility.yul\":4074:4129   */\n      tag_423\n        /* \"#utility.yul\":4123:4128   */\n      dup2\n        /* \"#utility.yul\":4074:4129   */\n      tag_321\n      jump\t// in\n    tag_423:\n        /* \"#utility.yul\":3952:4135   */\n      swap3\n      swap2\n      pop\n      pop\n      jump\t// out\n        /* \"#utility.yul\":4141:4679   */\n    tag_57:\n        /* \"#utility.yul\":4241:4247   */\n      0x00\n        /* \"#utility.yul\":4249:4255   */\n      dup1\n        /* \"#utility.yul\":4298:4300   */\n      0x40\n        /* \"#utility.yul\":4286:4295   */\n      dup4\n        /* \"#utility.yul\":4277:4284   */\n      dup6\n        /* \"#utility.yul\":4273:4296   */\n      sub\n        /* \"#utility.yul\":4269:4301   */\n      slt\n        /* \"#utility.yul\":4266:4385   */\n      iszero\n      tag_425\n      jumpi\n        /* \"#utility.yul\":4304:4383   */\n      tag_426\n      tag_303\n      jump\t// in\n    tag_426:\n        /* \"#utility.yul\":4266:4385   */\n    tag_425:\n        /* \"#utility.yul\":4424:4425   */\n      0x00\n        /* \"#utility.yul\":4449:4524   */\n      tag_427\n        /* \"#utility.yul\":4516:4523   */\n      dup6\n        /* \"#utility.yul\":4507:4513   */\n      dup3\n        /* \"#utility.yul\":4496:4505   */\n      dup7\n        /* \"#utility.yul\":4492:4514   */\n      add\n        /* \"#utility.yul\":4449:4524   */\n      tag_322\n      jump\t// in\n    tag_427:\n        /* \"#utility.yul\":4439:4524   */\n      swap3\n      pop\n        /* \"#utility.yul\":4395:4534   */\n      pop\n        /* \"#utility.yul\":4573:4575   */\n      0x20\n        /* \"#utility.yul\":4599:4662   */\n      tag_428\n        /* \"#utility.yul\":4654:4661   */\n      dup6\n        /* \"#utility.yul\":4645:4651   */\n      dup3\n        /* \"#utility.yul\":4634:4643   */\n      dup7\n        /* \"#utility.yul\":4630:4652   */\n      add\n        /* \"#utility.yul\":4599:4662   */\n      tag_313\n      jump\t// in\n    tag_428:\n        /* \"#utility.yul\":4589:4662   */\n      swap2\n      pop\n        /* \"#utility.yul\":4544:4672   */\n      pop\n        /* \"#utility.yul\":4141:4679   */\n      swap3\n      pop\n      swap3\n      swap1\n      pop\n      jump\t// out\n        /* \"#utility.yul\":4685:4795   */\n    tag_323:\n        /* \"#utility.yul\":4736:4743   */\n      0x00\n        /* \"#utility.yul\":4765:4789   */\n      tag_430\n        /* \"#utility.yul\":4783:4788   */\n      dup3\n        /* \"#utility.yul\":4765:4789   */\n      tag_306\n      jump\t// in\n    tag_430:\n        /* \"#utility.yul\":4754:4789   */\n      swap1\n      pop\n        /* \"#utility.yul\":4685:4795   */\n      swap2\n      swap1\n      pop\n      jump\t// out\n        /* \"#utility.yul\":4801:4951   */\n    tag_324:\n        /* \"#utility.yul\":4888:4926   */\n      tag_432\n        /* \"#utility.yul\":4920:4925   */\n      dup2\n        /* \"#utility.yul\":4888:4926   */\n      tag_323\n      jump\t// in\n    tag_432:\n        /* \"#utility.yul\":4881:4886   */\n      dup2\n        /* \"#utility.yul\":4878:4927   */\n      eq\n        /* \"#utility.yul\":4868:4945   */\n      tag_433\n      jumpi\n        /* \"#utility.yul\":4941:4942   */\n      0x00\n        /* \"#utility.yul\":4938:4939   */\n      dup1\n        /* \"#utility.yul\":4931:4943   */\n      revert\n        /* \"#utility.yul\":4868:4945   */\n    tag_433:\n        /* \"#utility.yul\":4801:4951   */\n      pop\n      jump\t// out\n        /* \"#utility.yul\":4957:5124   */\n    tag_325:\n        /* \"#utility.yul\":5017:5022   */\n      0x00\n        /* \"#utility.yul\":5055:5061   */\n      dup2\n        /* \"#utility.yul\":5042:5062   */\n      calldataload\n        /* \"#utility.yul\":5033:5062   */\n      swap1\n      pop\n        /* \"#utility.yul\":5071:5118   */\n      tag_435\n        /* \"#utility.yul\":5112:5117   */\n      dup2\n        /* \"#utility.yul\":5071:5118   */\n      tag_324\n      jump\t// in\n    tag_435:\n        /* \"#utility.yul\":4957:5124   */\n      swap3\n      swap2\n      pop\n      pop\n      jump\t// out\n        /* \"#utility.yul\":5130:5487   */\n    tag_62:\n        /* \"#utility.yul\":5203:5209   */\n      0x00\n        /* \"#utility.yul\":5252:5254   */\n      0x20\n        /* \"#utility.yul\":5240:5249   */\n      dup3\n        /* \"#utility.yul\":5231:5238   */\n      dup5\n        /* \"#utility.yul\":5227:5250   */\n      sub\n        /* \"#utility.yul\":5223:5255   */\n      slt\n        /* \"#utility.yul\":5220:5339   */\n      iszero\n      tag_437\n      jumpi\n        /* \"#utility.yul\":5258:5337   */\n      tag_438\n      tag_303\n      jump\t// in\n    tag_438:\n        /* \"#utility.yul\":5220:5339   */\n    tag_437:\n        /* \"#utility.yul\":5378:5379   */\n      0x00\n        /* \"#utility.yul\":5403:5470   */\n      tag_439\n        /* \"#utility.yul\":5462:5469   */\n      dup5\n        /* \"#utility.yul\":5453:5459   */\n      dup3\n        /* \"#utility.yul\":5442:5451   */\n      dup6\n        /* \"#utility.yul\":5438:5460   */\n      add\n        /* \"#utility.yul\":5403:5470   */\n      tag_325\n      jump\t// in\n    tag_439:\n        /* \"#utility.yul\":5393:5470   */\n      swap2\n      pop\n        /* \"#utility.yul\":5349:5480   */\n      pop\n        /* \"#utility.yul\":5130:5487   */\n      swap3\n      swap2\n      pop\n      pop\n      jump\t// out\n        /* \"#utility.yul\":5493:5615   */\n    tag_326:\n        /* \"#utility.yul\":5566:5590   */\n      tag_441\n        /* \"#utility.yul\":5584:5589   */\n      dup2\n        /* \"#utility.yul\":5566:5590   */\n      tag_309\n      jump\t// in\n    tag_441:\n        /* \"#utility.yul\":5559:5564   */\n      dup2\n        /* \"#utility.yul\":5556:5591   */\n      eq\n        /* \"#utility.yul\":5546:5609   */\n      tag_442\n      jumpi\n        /* \"#utility.yul\":5605:5606   */\n      0x00\n        /* \"#utility.yul\":5602:5603   */\n      dup1\n        /* \"#utility.yul\":5595:5607   */\n      revert\n        /* \"#utility.yul\":5546:5609   */\n    tag_442:\n        /* \"#utility.yul\":5493:5615   */\n      pop\n      jump\t// out\n        /* \"#utility.yul\":5621:5760   */\n    tag_327:\n        /* \"#utility.yul\":5667:5672   */\n      0x00\n        /* \"#utility.yul\":5705:5711   */\n      dup2\n        /* \"#utility.yul\":5692:5712   */\n      calldataload\n        /* \"#utility.yul\":5683:5712   */\n      swap1\n      pop\n        /* \"#utility.yul\":5721:5754   */\n      tag_444\n        /* \"#utility.yul\":5748:5753   */\n      dup2\n        /* \"#utility.yul\":5721:5754   */\n      tag_326\n      jump\t// in\n    tag_444:\n        /* \"#utility.yul\":5621:5760   */\n      swap3\n      swap2\n      pop\n      pop\n      jump\t// out\n        /* \"#utility.yul\":5766:6595   */\n    tag_66:\n        /* \"#utility.yul\":5884:5890   */\n      0x00\n        /* \"#utility.yul\":5892:5898   */\n      dup1\n        /* \"#utility.yul\":5900:5906   */\n      0x00\n        /* \"#utility.yul\":5908:5914   */\n      dup1\n        /* \"#utility.yul\":5957:5960   */\n      0x80\n        /* \"#utility.yul\":5945:5954   */\n      dup6\n        /* \"#utility.yul\":5936:5943   */\n      dup8\n        /* \"#utility.yul\":5932:5955   */\n      sub\n        /* \"#utility.yul\":5928:5961   */\n      slt\n        /* \"#utility.yul\":5925:6045   */\n      iszero\n      tag_446\n      jumpi\n        /* \"#utility.yul\":5964:6043   */\n      tag_447\n      tag_303\n      jump\t// in\n    tag_447:\n        /* \"#utility.yul\":5925:6045   */\n    tag_446:\n        /* \"#utility.yul\":6084:6085   */\n      0x00\n        /* \"#utility.yul\":6109:6162   */\n      tag_448\n        /* \"#utility.yul\":6154:6161   */\n      dup8\n        /* \"#utility.yul\":6145:6151   */\n      dup3\n        /* \"#utility.yul\":6134:6143   */\n      dup9\n        /* \"#utility.yul\":6130:6152   */\n      add\n        /* \"#utility.yul\":6109:6162   */\n      tag_327\n      jump\t// in\n    tag_448:\n        /* \"#utility.yul\":6099:6162   */\n      swap5\n      pop\n        /* \"#utility.yul\":6055:6172   */\n      pop\n        /* \"#utility.yul\":6211:6213   */\n      0x20\n        /* \"#utility.yul\":6237:6300   */\n      tag_449\n        /* \"#utility.yul\":6292:6299   */\n      dup8\n        /* \"#utility.yul\":6283:6289   */\n      dup3\n        /* \"#utility.yul\":6272:6281   */\n      dup9\n        /* \"#utility.yul\":6268:6290   */\n      add\n        /* \"#utility.yul\":6237:6300   */\n      tag_313\n      jump\t// in\n    tag_449:\n        /* \"#utility.yul\":6227:6300   */\n      swap4\n      pop\n        /* \"#utility.yul\":6182:6310   */\n      pop\n        /* \"#utility.yul\":6349:6351   */\n      0x40\n        /* \"#utility.yul\":6375:6428   */\n      tag_450\n        /* \"#utility.yul\":6420:6427   */\n      dup8\n        /* \"#utility.yul\":6411:6417   */\n      dup3\n        /* \"#utility.yul\":6400:6409   */\n      dup9\n        /* \"#utility.yul\":6396:6418   */\n      add\n        /* \"#utility.yul\":6375:6428   */\n      tag_327\n      jump\t// in\n    tag_450:\n        /* \"#utility.yul\":6365:6428   */\n      swap3\n      pop\n        /* \"#utility.yul\":6320:6438   */\n      pop\n        /* \"#utility.yul\":6477:6479   */\n      0x60\n        /* \"#utility.yul\":6503:6578   */\n      tag_451\n        /* \"#utility.yul\":6570:6577   */\n      dup8\n        /* \"#utility.yul\":6561:6567   */\n      dup3\n        /* \"#utility.yul\":6550:6559   */\n      dup9\n        /* \"#utility.yul\":6546:6568   */\n      add\n        /* \"#utility.yul\":6503:6578   */\n      tag_322\n      jump\t// in\n    tag_451:\n        /* \"#utility.yul\":6493:6578   */\n      swap2\n      pop\n        /* \"#utility.yul\":6448:6588   */\n      pop\n        /* \"#utility.yul\":5766:6595   */\n      swap3\n      swap6\n      swap2\n      swap5\n      pop\n      swap3\n      pop\n      jump\t// out\n        /* \"#utility.yul\":6601:6781   */\n    tag_79:\n        /* \"#utility.yul\":6649:6726   */\n      0x4e487b7100000000000000000000000000000000000000000000000000000000\n        /* \"#utility.yul\":6646:6647   */\n      0x00\n        /* \"#utility.yul\":6639:6727   */\n      mstore\n        /* \"#utility.yul\":6746:6750   */\n      0x41\n        /* \"#utility.yul\":6743:6744   */\n      0x04\n        /* \"#utility.yul\":6736:6751   */\n      mstore\n        /* \"#utility.yul\":6770:6774   */\n      0x24\n        /* \"#utility.yul\":6767:6768   */\n      0x00\n        /* \"#utility.yul\":6760:6775   */\n      revert\n        /* \"#utility.yul\":6787:6967   */\n    tag_83:\n        /* \"#utility.yul\":6835:6912   */\n      0x4e487b7100000000000000000000000000000000000000000000000000000000\n        /* \"#utility.yul\":6832:6833   */\n      0x00\n        /* \"#utility.yul\":6825:6913   */\n      mstore\n        /* \"#utility.yul\":6932:6936   */\n      0x32\n        /* \"#utility.yul\":6929:6930   */\n      0x04\n        /* \"#utility.yul\":6922:6937   */\n      mstore\n        /* \"#utility.yul\":6956:6960   */\n      0x24\n        /* \"#utility.yul\":6953:6954   */\n      0x00\n        /* \"#utility.yul\":6946:6961   */\n      revert\n        /* \"#utility.yul\":6973:7087   */\n    tag_328:\n        /* \"#utility.yul\":7040:7046   */\n      0x00\n        /* \"#utility.yul\":7074:7079   */\n      dup2\n        /* \"#utility.yul\":7068:7080   */\n      mload\n        /* \"#utility.yul\":7058:7080   */\n      swap1\n      pop\n        /* \"#utility.yul\":6973:7087   */\n      swap2\n      swap1\n      pop\n      jump\t// out\n        /* \"#utility.yul\":7093:7277   */\n    tag_329:\n        /* \"#utility.yul\":7192:7203   */\n      0x00\n        /* \"#utility.yul\":7226:7232   */\n      dup3\n        /* \"#utility.yul\":7221:7224   */\n      dup3\n        /* \"#utility.yul\":7214:7233   */\n      mstore\n        /* \"#utility.yul\":7266:7270   */\n      0x20\n        /* \"#utility.yul\":7261:7264   */\n      dup3\n        /* \"#utility.yul\":7257:7271   */\n      add\n        /* \"#utility.yul\":7242:7271   */\n      swap1\n      pop\n        /* \"#utility.yul\":7093:7277   */\n      swap3\n      swap2\n      pop\n      pop\n      jump\t// out\n        /* \"#utility.yul\":7283:7415   */\n    tag_330:\n        /* \"#utility.yul\":7350:7354   */\n      0x00\n        /* \"#utility.yul\":7373:7376   */\n      dup2\n        /* \"#utility.yul\":7365:7376   */\n      swap1\n      pop\n        /* \"#utility.yul\":7403:7407   */\n      0x20\n        /* \"#utility.yul\":7398:7401   */\n      dup3\n        /* \"#utility.yul\":7394:7408   */\n      add\n        /* \"#utility.yul\":7386:7408   */\n      swap1\n      pop\n        /* \"#utility.yul\":7283:7415   */\n      swap2\n      swap1\n      pop\n      jump\t// out\n        /* \"#utility.yul\":7421:7529   */\n    tag_331:\n        /* \"#utility.yul\":7498:7522   */\n      tag_458\n        /* \"#utility.yul\":7516:7521   */\n      dup2\n        /* \"#utility.yul\":7498:7522   */\n      tag_306\n      jump\t// in\n    tag_458:\n        /* \"#utility.yul\":7493:7496   */\n      dup3\n        /* \"#utility.yul\":7486:7523   */\n      mstore\n        /* \"#utility.yul\":7421:7529   */\n      pop\n      pop\n      jump\t// out\n        /* \"#utility.yul\":7535:7714   */\n    tag_332:\n        /* \"#utility.yul\":7604:7614   */\n      0x00\n        /* \"#utility.yul\":7625:7671   */\n      tag_460\n        /* \"#utility.yul\":7667:7670   */\n      dup4\n        /* \"#utility.yul\":7659:7665   */\n      dup4\n        /* \"#utility.yul\":7625:7671   */\n      tag_331\n      jump\t// in\n    tag_460:\n        /* \"#utility.yul\":7703:7707   */\n      0x20\n        /* \"#utility.yul\":7698:7701   */\n      dup4\n        /* \"#utility.yul\":7694:7708   */\n      add\n        /* \"#utility.yul\":7680:7708   */\n      swap1\n      pop\n        /* \"#utility.yul\":7535:7714   */\n      swap3\n      swap2\n      pop\n      pop\n      jump\t// out\n        /* \"#utility.yul\":7720:7833   */\n    tag_333:\n        /* \"#utility.yul\":7790:7794   */\n      0x00\n        /* \"#utility.yul\":7822:7826   */\n      0x20\n        /* \"#utility.yul\":7817:7820   */\n      dup3\n        /* \"#utility.yul\":7813:7827   */\n      add\n        /* \"#utility.yul\":7805:7827   */\n      swap1\n      pop\n        /* \"#utility.yul\":7720:7833   */\n      swap2\n      swap1\n      pop\n      jump\t// out\n        /* \"#utility.yul\":7869:8601   */\n    tag_334:\n        /* \"#utility.yul\":7988:7991   */\n      0x00\n        /* \"#utility.yul\":8017:8071   */\n      tag_463\n        /* \"#utility.yul\":8065:8070   */\n      dup3\n        /* \"#utility.yul\":8017:8071   */\n      tag_328\n      jump\t// in\n    tag_463:\n        /* \"#utility.yul\":8087:8173   */\n      tag_464\n        /* \"#utility.yul\":8166:8172   */\n      dup2\n        /* \"#utility.yul\":8161:8164   */\n      dup6\n        /* \"#utility.yul\":8087:8173   */\n      tag_329\n      jump\t// in\n    tag_464:\n        /* \"#utility.yul\":8080:8173   */\n      swap4\n      pop\n        /* \"#utility.yul\":8197:8253   */\n      tag_465\n        /* \"#utility.yul\":8247:8252   */\n      dup4\n        /* \"#utility.yul\":8197:8253   */\n      tag_330\n      jump\t// in\n    tag_465:\n        /* \"#utility.yul\":8276:8283   */\n      dup1\n        /* \"#utility.yul\":8307:8308   */\n      0x00\n        /* \"#utility.yul\":8292:8576   */\n    tag_466:\n        /* \"#utility.yul\":8317:8323   */\n      dup4\n        /* \"#utility.yul\":8314:8315   */\n      dup2\n        /* \"#utility.yul\":8311:8324   */\n      lt\n        /* \"#utility.yul\":8292:8576   */\n      iszero\n      tag_468\n      jumpi\n        /* \"#utility.yul\":8393:8399   */\n      dup2\n        /* \"#utility.yul\":8387:8400   */\n      mload\n        /* \"#utility.yul\":8420:8483   */\n      tag_469\n        /* \"#utility.yul\":8479:8482   */\n      dup9\n        /* \"#utility.yul\":8464:8477   */\n      dup3\n        /* \"#utility.yul\":8420:8483   */\n      tag_332\n      jump\t// in\n    tag_469:\n        /* \"#utility.yul\":8413:8483   */\n      swap8\n      pop\n        /* \"#utility.yul\":8506:8566   */\n      tag_470\n        /* \"#utility.yul\":8559:8565   */\n      dup4\n        /* \"#utility.yul\":8506:8566   */\n      tag_333\n      jump\t// in\n    tag_470:\n        /* \"#utility.yul\":8496:8566   */\n      swap3\n      pop\n        /* \"#utility.yul\":8352:8576   */\n      pop\n        /* \"#utility.yul\":8339:8340   */\n      0x01\n        /* \"#utility.yul\":8336:8337   */\n      dup2\n        /* \"#utility.yul\":8332:8341   */\n      add\n        /* \"#utility.yul\":8327:8341   */\n      swap1\n      pop\n        /* \"#utility.yul\":8292:8576   */\n      jump(tag_466)\n    tag_468:\n        /* \"#utility.yul\":8296:8310   */\n      pop\n        /* \"#utility.yul\":8592:8595   */\n      dup6\n        /* \"#utility.yul\":8585:8595   */\n      swap4\n      pop\n        /* \"#utility.yul\":7993:8601   */\n      pop\n      pop\n      pop\n        /* \"#utility.yul\":7869:8601   */\n      swap3\n      swap2\n      pop\n      pop\n      jump\t// out\n        /* \"#utility.yul\":8607:9090   */\n    tag_89:\n        /* \"#utility.yul\":8778:8782   */\n      0x00\n        /* \"#utility.yul\":8816:8818   */\n      0x40\n        /* \"#utility.yul\":8805:8814   */\n      dup3\n        /* \"#utility.yul\":8801:8819   */\n      add\n        /* \"#utility.yul\":8793:8819   */\n      swap1\n      pop\n        /* \"#utility.yul\":8829:8900   */\n      tag_472\n        /* \"#utility.yul\":8897:8898   */\n      0x00\n        /* \"#utility.yul\":8886:8895   */\n      dup4\n        /* \"#utility.yul\":8882:8899   */\n      add\n        /* \"#utility.yul\":8873:8879   */\n      dup6\n        /* \"#utility.yul\":8829:8900   */\n      tag_310\n      jump\t// in\n    tag_472:\n        /* \"#utility.yul\":8947:8956   */\n      dup2\n        /* \"#utility.yul\":8941:8945   */\n      dup2\n        /* \"#utility.yul\":8937:8957   */\n      sub\n        /* \"#utility.yul\":8932:8934   */\n      0x20\n        /* \"#utility.yul\":8921:8930   */\n      dup4\n        /* \"#utility.yul\":8917:8935   */\n      add\n        /* \"#utility.yul\":8910:8958   */\n      mstore\n        /* \"#utility.yul\":8975:9083   */\n      tag_473\n        /* \"#utility.yul\":9078:9082   */\n      dup2\n        /* \"#utility.yul\":9069:9075   */\n      dup5\n        /* \"#utility.yul\":8975:9083   */\n      tag_334\n      jump\t// in\n    tag_473:\n        /* \"#utility.yul\":8967:9083   */\n      swap1\n      pop\n        /* \"#utility.yul\":8607:9090   */\n      swap4\n      swap3\n      pop\n      pop\n      pop\n      jump\t// out\n        /* \"#utility.yul\":9096:9213   */\n    tag_335:\n        /* \"#utility.yul\":9205:9206   */\n      0x00\n        /* \"#utility.yul\":9202:9203   */\n      dup1\n        /* \"#utility.yul\":9195:9207   */\n      revert\n        /* \"#utility.yul\":9219:9321   */\n    tag_336:\n        /* \"#utility.yul\":9260:9266   */\n      0x00\n        /* \"#utility.yul\":9311:9313   */\n      0x1f\n        /* \"#utility.yul\":9307:9314   */\n      not\n        /* \"#utility.yul\":9302:9304   */\n      0x1f\n        /* \"#utility.yul\":9295:9300   */\n      dup4\n        /* \"#utility.yul\":9291:9305   */\n      add\n        /* \"#utility.yul\":9287:9315   */\n      and\n        /* \"#utility.yul\":9277:9315   */\n      swap1\n      pop\n        /* \"#utility.yul\":9219:9321   */\n      swap2\n      swap1\n      pop\n      jump\t// out\n        /* \"#utility.yul\":9327:9608   */\n    tag_337:\n        /* \"#utility.yul\":9410:9437   */\n      tag_477\n        /* \"#utility.yul\":9432:9436   */\n      dup3\n        /* \"#utility.yul\":9410:9437   */\n      tag_336\n      jump\t// in\n    tag_477:\n        /* \"#utility.yul\":9402:9408   */\n      dup2\n        /* \"#utility.yul\":9398:9438   */\n      add\n        /* \"#utility.yul\":9540:9546   */\n      dup2\n        /* \"#utility.yul\":9528:9538   */\n      dup2\n        /* \"#utility.yul\":9525:9547   */\n      lt\n        /* \"#utility.yul\":9504:9522   */\n      0xffffffffffffffff\n        /* \"#utility.yul\":9492:9502   */\n      dup3\n        /* \"#utility.yul\":9489:9523   */\n      gt\n        /* \"#utility.yul\":9486:9548   */\n      or\n        /* \"#utility.yul\":9483:9571   */\n      iszero\n      tag_478\n      jumpi\n        /* \"#utility.yul\":9551:9569   */\n      tag_479\n      tag_79\n      jump\t// in\n    tag_479:\n        /* \"#utility.yul\":9483:9571   */\n    tag_478:\n        /* \"#utility.yul\":9591:9601   */\n      dup1\n        /* \"#utility.yul\":9587:9589   */\n      0x40\n        /* \"#utility.yul\":9580:9602   */\n      mstore\n        /* \"#utility.yul\":9370:9608   */\n      pop\n        /* \"#utility.yul\":9327:9608   */\n      pop\n      pop\n      jump\t// out\n        /* \"#utility.yul\":9614:9743   */\n    tag_338:\n        /* \"#utility.yul\":9648:9654   */\n      0x00\n        /* \"#utility.yul\":9675:9695   */\n      tag_481\n      tag_302\n      jump\t// in\n    tag_481:\n        /* \"#utility.yul\":9665:9695   */\n      swap1\n      pop\n        /* \"#utility.yul\":9704:9737   */\n      tag_482\n        /* \"#utility.yul\":9732:9736   */\n      dup3\n        /* \"#utility.yul\":9724:9730   */\n      dup3\n        /* \"#utility.yul\":9704:9737   */\n      tag_337\n      jump\t// in\n    tag_482:\n        /* \"#utility.yul\":9614:9743   */\n      swap2\n      swap1\n      pop\n      jump\t// out\n        /* \"#utility.yul\":9749:10060   */\n    tag_339:\n        /* \"#utility.yul\":9826:9830   */\n      0x00\n        /* \"#utility.yul\":9916:9934   */\n      0xffffffffffffffff\n        /* \"#utility.yul\":9908:9914   */\n      dup3\n        /* \"#utility.yul\":9905:9935   */\n      gt\n        /* \"#utility.yul\":9902:9958   */\n      iszero\n      tag_484\n      jumpi\n        /* \"#utility.yul\":9938:9956   */\n      tag_485\n      tag_79\n      jump\t// in\n    tag_485:\n        /* \"#utility.yul\":9902:9958   */\n    tag_484:\n        /* \"#utility.yul\":9988:9992   */\n      0x20\n        /* \"#utility.yul\":9980:9986   */\n      dup3\n        /* \"#utility.yul\":9976:9993   */\n      mul\n        /* \"#utility.yul\":9968:9993   */\n      swap1\n      pop\n        /* \"#utility.yul\":10048:10052   */\n      0x20\n        /* \"#utility.yul\":10042:10046   */\n      dup2\n        /* \"#utility.yul\":10038:10053   */\n      add\n        /* \"#utility.yul\":10030:10053   */\n      swap1\n      pop\n        /* \"#utility.yul\":9749:10060   */\n      swap2\n      swap1\n      pop\n      jump\t// out\n        /* \"#utility.yul\":10066:10183   */\n    tag_340:\n        /* \"#utility.yul\":10175:10176   */\n      0x00\n        /* \"#utility.yul\":10172:10173   */\n      dup1\n        /* \"#utility.yul\":10165:10177   */\n      revert\n        /* \"#utility.yul\":10189:10332   */\n    tag_341:\n        /* \"#utility.yul\":10246:10251   */\n      0x00\n        /* \"#utility.yul\":10277:10283   */\n      dup2\n        /* \"#utility.yul\":10271:10284   */\n      mload\n        /* \"#utility.yul\":10262:10284   */\n      swap1\n      pop\n        /* \"#utility.yul\":10293:10326   */\n      tag_488\n        /* \"#utility.yul\":10320:10325   */\n      dup2\n        /* \"#utility.yul\":10293:10326   */\n      tag_326\n      jump\t// in\n    tag_488:\n        /* \"#utility.yul\":10189:10332   */\n      swap3\n      swap2\n      pop\n      pop\n      jump\t// out\n        /* \"#utility.yul\":10355:11087   */\n    tag_342:\n        /* \"#utility.yul\":10462:10467   */\n      0x00\n        /* \"#utility.yul\":10487:10568   */\n      tag_490\n        /* \"#utility.yul\":10503:10567   */\n      tag_491\n        /* \"#utility.yul\":10560:10566   */\n      dup5\n        /* \"#utility.yul\":10503:10567   */\n      tag_339\n      jump\t// in\n    tag_491:\n        /* \"#utility.yul\":10487:10568   */\n      tag_338\n      jump\t// in\n    tag_490:\n        /* \"#utility.yul\":10478:10568   */\n      swap1\n      pop\n        /* \"#utility.yul\":10588:10593   */\n      dup1\n        /* \"#utility.yul\":10617:10623   */\n      dup4\n        /* \"#utility.yul\":10610:10615   */\n      dup3\n        /* \"#utility.yul\":10603:10624   */\n      mstore\n        /* \"#utility.yul\":10651:10655   */\n      0x20\n        /* \"#utility.yul\":10644:10649   */\n      dup3\n        /* \"#utility.yul\":10640:10656   */\n      add\n        /* \"#utility.yul\":10633:10656   */\n      swap1\n      pop\n        /* \"#utility.yul\":10704:10708   */\n      0x20\n        /* \"#utility.yul\":10696:10702   */\n      dup5\n        /* \"#utility.yul\":10692:10709   */\n      mul\n        /* \"#utility.yul\":10684:10690   */\n      dup4\n        /* \"#utility.yul\":10680:10710   */\n      add\n        /* \"#utility.yul\":10733:10736   */\n      dup6\n        /* \"#utility.yul\":10725:10731   */\n      dup2\n        /* \"#utility.yul\":10722:10737   */\n      gt\n        /* \"#utility.yul\":10719:10841   */\n      iszero\n      tag_492\n      jumpi\n        /* \"#utility.yul\":10752:10831   */\n      tag_493\n      tag_340\n      jump\t// in\n    tag_493:\n        /* \"#utility.yul\":10719:10841   */\n    tag_492:\n        /* \"#utility.yul\":10867:10873   */\n      dup4\n        /* \"#utility.yul\":10850:11081   */\n    tag_494:\n        /* \"#utility.yul\":10884:10890   */\n      dup2\n        /* \"#utility.yul\":10879:10882   */\n      dup2\n        /* \"#utility.yul\":10876:10891   */\n      lt\n        /* \"#utility.yul\":10850:11081   */\n      iszero\n      tag_496\n      jumpi\n        /* \"#utility.yul\":10959:10962   */\n      dup1\n        /* \"#utility.yul\":10988:11036   */\n      tag_497\n        /* \"#utility.yul\":11032:11035   */\n      dup9\n        /* \"#utility.yul\":11020:11030   */\n      dup3\n        /* \"#utility.yul\":10988:11036   */\n      tag_341\n      jump\t// in\n    tag_497:\n        /* \"#utility.yul\":10983:10986   */\n      dup5\n        /* \"#utility.yul\":10976:11037   */\n      mstore\n        /* \"#utility.yul\":11066:11070   */\n      0x20\n        /* \"#utility.yul\":11061:11064   */\n      dup5\n        /* \"#utility.yul\":11057:11071   */\n      add\n        /* \"#utility.yul\":11050:11071   */\n      swap4\n      pop\n        /* \"#utility.yul\":10926:11081   */\n      pop\n        /* \"#utility.yul\":10910:10914   */\n      0x20\n        /* \"#utility.yul\":10905:10908   */\n      dup2\n        /* \"#utility.yul\":10901:10915   */\n      add\n        /* \"#utility.yul\":10894:10915   */\n      swap1\n      pop\n        /* \"#utility.yul\":10850:11081   */\n      jump(tag_494)\n    tag_496:\n        /* \"#utility.yul\":10854:10875   */\n      pop\n        /* \"#utility.yul\":10468:11087   */\n      pop\n      pop\n        /* \"#utility.yul\":10355:11087   */\n      swap4\n      swap3\n      pop\n      pop\n      pop\n      jump\t// out\n        /* \"#utility.yul\":11110:11495   */\n    tag_343:\n        /* \"#utility.yul\":11192:11197   */\n      0x00\n        /* \"#utility.yul\":11241:11244   */\n      dup3\n        /* \"#utility.yul\":11234:11238   */\n      0x1f\n        /* \"#utility.yul\":11226:11232   */\n      dup4\n        /* \"#utility.yul\":11222:11239   */\n      add\n        /* \"#utility.yul\":11218:11245   */\n      slt\n        /* \"#utility.yul\":11208:11330   */\n      tag_499\n      jumpi\n        /* \"#utility.yul\":11249:11328   */\n      tag_500\n      tag_335\n      jump\t// in\n    tag_500:\n        /* \"#utility.yul\":11208:11330   */\n    tag_499:\n        /* \"#utility.yul\":11359:11365   */\n      dup2\n        /* \"#utility.yul\":11353:11366   */\n      mload\n        /* \"#utility.yul\":11384:11489   */\n      tag_501\n        /* \"#utility.yul\":11485:11488   */\n      dup5\n        /* \"#utility.yul\":11477:11483   */\n      dup3\n        /* \"#utility.yul\":11470:11474   */\n      0x20\n        /* \"#utility.yul\":11462:11468   */\n      dup7\n        /* \"#utility.yul\":11458:11475   */\n      add\n        /* \"#utility.yul\":11384:11489   */\n      tag_342\n      jump\t// in\n    tag_501:\n        /* \"#utility.yul\":11375:11489   */\n      swap2\n      pop\n        /* \"#utility.yul\":11198:11495   */\n      pop\n        /* \"#utility.yul\":11110:11495   */\n      swap3\n      swap2\n      pop\n      pop\n      jump\t// out\n        /* \"#utility.yul\":11501:12055   */\n    tag_93:\n        /* \"#utility.yul\":11596:11602   */\n      0x00\n        /* \"#utility.yul\":11645:11647   */\n      0x20\n        /* \"#utility.yul\":11633:11642   */\n      dup3\n        /* \"#utility.yul\":11624:11631   */\n      dup5\n        /* \"#utility.yul\":11620:11643   */\n      sub\n        /* \"#utility.yul\":11616:11648   */\n      slt\n        /* \"#utility.yul\":11613:11732   */\n      iszero\n      tag_503\n      jumpi\n        /* \"#utility.yul\":11651:11730   */\n      tag_504\n      tag_303\n      jump\t// in\n    tag_504:\n        /* \"#utility.yul\":11613:11732   */\n    tag_503:\n        /* \"#utility.yul\":11792:11793   */\n      0x00\n        /* \"#utility.yul\":11781:11790   */\n      dup3\n        /* \"#utility.yul\":11777:11794   */\n      add\n        /* \"#utility.yul\":11771:11795   */\n      mload\n        /* \"#utility.yul\":11822:11840   */\n      0xffffffffffffffff\n        /* \"#utility.yul\":11814:11820   */\n      dup2\n        /* \"#utility.yul\":11811:11841   */\n      gt\n        /* \"#utility.yul\":11808:11925   */\n      iszero\n      tag_505\n      jumpi\n        /* \"#utility.yul\":11844:11923   */\n      tag_506\n      tag_304\n      jump\t// in\n    tag_506:\n        /* \"#utility.yul\":11808:11925   */\n    tag_505:\n        /* \"#utility.yul\":11949:12038   */\n      tag_507\n        /* \"#utility.yul\":12030:12037   */\n      dup5\n        /* \"#utility.yul\":12021:12027   */\n      dup3\n        /* \"#utility.yul\":12010:12019   */\n      dup6\n        /* \"#utility.yul\":12006:12028   */\n      add\n        /* \"#utility.yul\":11949:12038   */\n      tag_343\n      jump\t// in\n    tag_507:\n        /* \"#utility.yul\":11939:12038   */\n      swap2\n      pop\n        /* \"#utility.yul\":11742:12048   */\n      pop\n        /* \"#utility.yul\":11501:12055   */\n      swap3\n      swap2\n      pop\n      pop\n      jump\t// out\n        /* \"#utility.yul\":12061:12171   */\n    tag_344:\n        /* \"#utility.yul\":12112:12119   */\n      0x00\n        /* \"#utility.yul\":12141:12165   */\n      tag_509\n        /* \"#utility.yul\":12159:12164   */\n      dup3\n        /* \"#utility.yul\":12141:12165   */\n      tag_306\n      jump\t// in\n    tag_509:\n        /* \"#utility.yul\":12130:12165   */\n      swap1\n      pop\n        /* \"#utility.yul\":12061:12171   */\n      swap2\n      swap1\n      pop\n      jump\t// out\n        /* \"#utility.yul\":12177:12327   */\n    tag_345:\n        /* \"#utility.yul\":12264:12302   */\n      tag_511\n        /* \"#utility.yul\":12296:12301   */\n      dup2\n        /* \"#utility.yul\":12264:12302   */\n      tag_344\n      jump\t// in\n    tag_511:\n        /* \"#utility.yul\":12257:12262   */\n      dup2\n        /* \"#utility.yul\":12254:12303   */\n      eq\n        /* \"#utility.yul\":12244:12321   */\n      tag_512\n      jumpi\n        /* \"#utility.yul\":12317:12318   */\n      0x00\n        /* \"#utility.yul\":12314:12315   */\n      dup1\n        /* \"#utility.yul\":12307:12319   */\n      revert\n        /* \"#utility.yul\":12244:12321   */\n    tag_512:\n        /* \"#utility.yul\":12177:12327   */\n      pop\n      jump\t// out\n        /* \"#utility.yul\":12333:12504   */\n    tag_346:\n        /* \"#utility.yul\":12404:12409   */\n      0x00\n        /* \"#utility.yul\":12435:12441   */\n      dup2\n        /* \"#utility.yul\":12429:12442   */\n      mload\n        /* \"#utility.yul\":12420:12442   */\n      swap1\n      pop\n        /* \"#utility.yul\":12451:12498   */\n      tag_514\n        /* \"#utility.yul\":12492:12497   */\n      dup2\n        /* \"#utility.yul\":12451:12498   */\n      tag_345\n      jump\t// in\n    tag_514:\n        /* \"#utility.yul\":12333:12504   */\n      swap3\n      swap2\n      pop\n      pop\n      jump\t// out\n        /* \"#utility.yul\":12510:12889   */\n    tag_100:\n        /* \"#utility.yul\":12594:12600   */\n      0x00\n        /* \"#utility.yul\":12643:12645   */\n      0x20\n        /* \"#utility.yul\":12631:12640   */\n      dup3\n        /* \"#utility.yul\":12622:12629   */\n      dup5\n        /* \"#utility.yul\":12618:12641   */\n      sub\n        /* \"#utility.yul\":12614:12646   */\n      slt\n        /* \"#utility.yul\":12611:12730   */\n      iszero\n      tag_516\n      jumpi\n        /* \"#utility.yul\":12649:12728   */\n      tag_517\n      tag_303\n      jump\t// in\n    tag_517:\n        /* \"#utility.yul\":12611:12730   */\n    tag_516:\n        /* \"#utility.yul\":12769:12770   */\n      0x00\n        /* \"#utility.yul\":12794:12872   */\n      tag_518\n        /* \"#utility.yul\":12864:12871   */\n      dup5\n        /* \"#utility.yul\":12855:12861   */\n      dup3\n        /* \"#utility.yul\":12844:12853   */\n      dup6\n        /* \"#utility.yul\":12840:12862   */\n      add\n        /* \"#utility.yul\":12794:12872   */\n      tag_346\n      jump\t// in\n    tag_518:\n        /* \"#utility.yul\":12784:12872   */\n      swap2\n      pop\n        /* \"#utility.yul\":12740:12882   */\n      pop\n        /* \"#utility.yul\":12510:12889   */\n      swap3\n      swap2\n      pop\n      pop\n      jump\t// out\n        /* \"#utility.yul\":12895:13246   */\n    tag_114:\n        /* \"#utility.yul\":12965:12971   */\n      0x00\n        /* \"#utility.yul\":13014:13016   */\n      0x20\n        /* \"#utility.yul\":13002:13011   */\n      dup3\n        /* \"#utility.yul\":12993:13000   */\n      dup5\n        /* \"#utility.yul\":12989:13012   */\n      sub\n        /* \"#utility.yul\":12985:13017   */\n      slt\n        /* \"#utility.yul\":12982:13101   */\n      iszero\n      tag_520\n      jumpi\n        /* \"#utility.yul\":13020:13099   */\n      tag_521\n      tag_303\n      jump\t// in\n    tag_521:\n        /* \"#utility.yul\":12982:13101   */\n    tag_520:\n        /* \"#utility.yul\":13140:13141   */\n      0x00\n        /* \"#utility.yul\":13165:13229   */\n      tag_522\n        /* \"#utility.yul\":13221:13228   */\n      dup5\n        /* \"#utility.yul\":13212:13218   */\n      dup3\n        /* \"#utility.yul\":13201:13210   */\n      dup6\n        /* \"#utility.yul\":13197:13219   */\n      add\n        /* \"#utility.yul\":13165:13229   */\n      tag_341\n      jump\t// in\n    tag_522:\n        /* \"#utility.yul\":13155:13229   */\n      swap2\n      pop\n        /* \"#utility.yul\":13111:13239   */\n      pop\n        /* \"#utility.yul\":12895:13246   */\n      swap3\n      swap2\n      pop\n      pop\n      jump\t// out\n        /* \"#utility.yul\":13252:13421   */\n    tag_347:\n        /* \"#utility.yul\":13336:13347   */\n      0x00\n        /* \"#utility.yul\":13370:13376   */\n      dup3\n        /* \"#utility.yul\":13365:13368   */\n      dup3\n        /* \"#utility.yul\":13358:13377   */\n      mstore\n        /* \"#utility.yul\":13410:13414   */\n      0x20\n        /* \"#utility.yul\":13405:13408   */\n      dup3\n        /* \"#utility.yul\":13401:13415   */\n      add\n        /* \"#utility.yul\":13386:13415   */\n      swap1\n      pop\n        /* \"#utility.yul\":13252:13421   */\n      swap3\n      swap2\n      pop\n      pop\n      jump\t// out\n        /* \"#utility.yul\":13427:13609   */\n    tag_348:\n        /* \"#utility.yul\":13567:13601   */\n      0x4f776e61626c653a2063616c6c6572206973206e6f7420746865206f776e6572\n        /* \"#utility.yul\":13563:13564   */\n      0x00\n        /* \"#utility.yul\":13555:13561   */\n      dup3\n        /* \"#utility.yul\":13551:13565   */\n      add\n        /* \"#utility.yul\":13544:13602   */\n      mstore\n        /* \"#utility.yul\":13427:13609   */\n      pop\n      jump\t// out\n        /* \"#utility.yul\":13615:13981   */\n    tag_349:\n        /* \"#utility.yul\":13757:13760   */\n      0x00\n        /* \"#utility.yul\":13778:13845   */\n      tag_526\n        /* \"#utility.yul\":13842:13844   */\n      0x20\n        /* \"#utility.yul\":13837:13840   */\n      dup4\n        /* \"#utility.yul\":13778:13845   */\n      tag_347\n      jump\t// in\n    tag_526:\n        /* \"#utility.yul\":13771:13845   */\n      swap2\n      pop\n        /* \"#utility.yul\":13854:13947   */\n      tag_527\n        /* \"#utility.yul\":13943:13946   */\n      dup3\n        /* \"#utility.yul\":13854:13947   */\n      tag_348\n      jump\t// in\n    tag_527:\n        /* \"#utility.yul\":13972:13974   */\n      0x20\n        /* \"#utility.yul\":13967:13970   */\n      dup3\n        /* \"#utility.yul\":13963:13975   */\n      add\n        /* \"#utility.yul\":13956:13975   */\n      swap1\n      pop\n        /* \"#utility.yul\":13615:13981   */\n      swap2\n      swap1\n      pop\n      jump\t// out\n        /* \"#utility.yul\":13987:14406   */\n    tag_193:\n        /* \"#utility.yul\":14153:14157   */\n      0x00\n        /* \"#utility.yul\":14191:14193   */\n      0x20\n        /* \"#utility.yul\":14180:14189   */\n      dup3\n        /* \"#utility.yul\":14176:14194   */\n      add\n        /* \"#utility.yul\":14168:14194   */\n      swap1\n      pop\n        /* \"#utility.yul\":14240:14249   */\n      dup2\n        /* \"#utility.yul\":14234:14238   */\n      dup2\n        /* \"#utility.yul\":14230:14250   */\n      sub\n        /* \"#utility.yul\":14226:14227   */\n      0x00\n        /* \"#utility.yul\":14215:14224   */\n      dup4\n        /* \"#utility.yul\":14211:14228   */\n      add\n        /* \"#utility.yul\":14204:14251   */\n      mstore\n        /* \"#utility.yul\":14268:14399   */\n      tag_529\n        /* \"#utility.yul\":14394:14398   */\n      dup2\n        /* \"#utility.yul\":14268:14399   */\n      tag_349\n      jump\t// in\n    tag_529:\n        /* \"#utility.yul\":14260:14399   */\n      swap1\n      pop\n        /* \"#utility.yul\":13987:14406   */\n      swap2\n      swap1\n      pop\n      jump\t// out\n        /* \"#utility.yul\":14412:14529   */\n    tag_350:\n        /* \"#utility.yul\":14521:14522   */\n      0x00\n        /* \"#utility.yul\":14518:14519   */\n      dup1\n        /* \"#utility.yul\":14511:14523   */\n      revert\n        /* \"#utility.yul\":14658:14773   */\n    tag_352:\n        /* \"#utility.yul\":14714:14721   */\n      0x00\n        /* \"#utility.yul\":14743:14767   */\n      tag_533\n        /* \"#utility.yul\":14761:14766   */\n      dup3\n        /* \"#utility.yul\":14743:14767   */\n      tag_306\n      jump\t// in\n    tag_533:\n        /* \"#utility.yul\":14732:14767   */\n      swap1\n      pop\n        /* \"#utility.yul\":14658:14773   */\n      swap2\n      swap1\n      pop\n      jump\t// out\n        /* \"#utility.yul\":14779:14939   */\n    tag_353:\n        /* \"#utility.yul\":14871:14914   */\n      tag_535\n        /* \"#utility.yul\":14908:14913   */\n      dup2\n        /* \"#utility.yul\":14871:14914   */\n      tag_352\n      jump\t// in\n    tag_535:\n        /* \"#utility.yul\":14864:14869   */\n      dup2\n        /* \"#utility.yul\":14861:14915   */\n      eq\n        /* \"#utility.yul\":14851:14933   */\n      tag_536\n      jumpi\n        /* \"#utility.yul\":14929:14930   */\n      0x00\n        /* \"#utility.yul\":14926:14927   */\n      dup1\n        /* \"#utility.yul\":14919:14931   */\n      revert\n        /* \"#utility.yul\":14851:14933   */\n    tag_536:\n        /* \"#utility.yul\":14779:14939   */\n      pop\n      jump\t// out\n        /* \"#utility.yul\":14945:15126   */\n    tag_354:\n        /* \"#utility.yul\":15021:15026   */\n      0x00\n        /* \"#utility.yul\":15052:15058   */\n      dup2\n        /* \"#utility.yul\":15046:15059   */\n      mload\n        /* \"#utility.yul\":15037:15059   */\n      swap1\n      pop\n        /* \"#utility.yul\":15068:15120   */\n      tag_538\n        /* \"#utility.yul\":15114:15119   */\n      dup2\n        /* \"#utility.yul\":15068:15120   */\n      tag_353\n      jump\t// in\n    tag_538:\n        /* \"#utility.yul\":14945:15126   */\n      swap3\n      swap2\n      pop\n      pop\n      jump\t// out\n        /* \"#utility.yul\":15155:16546   */\n    tag_355:\n        /* \"#utility.yul\":15240:15245   */\n      0x00\n        /* \"#utility.yul\":15284:15288   */\n      0xc0\n        /* \"#utility.yul\":15272:15281   */\n      dup3\n        /* \"#utility.yul\":15267:15270   */\n      dup5\n        /* \"#utility.yul\":15263:15282   */\n      sub\n        /* \"#utility.yul\":15259:15289   */\n      slt\n        /* \"#utility.yul\":15256:15373   */\n      iszero\n      tag_540\n      jumpi\n        /* \"#utility.yul\":15292:15371   */\n      tag_541\n      tag_350\n      jump\t// in\n    tag_541:\n        /* \"#utility.yul\":15256:15373   */\n    tag_540:\n        /* \"#utility.yul\":15391:15412   */\n      tag_542\n        /* \"#utility.yul\":15407:15411   */\n      0xc0\n        /* \"#utility.yul\":15391:15412   */\n      tag_338\n      jump\t// in\n    tag_542:\n        /* \"#utility.yul\":15382:15412   */\n      swap1\n      pop\n        /* \"#utility.yul\":15474:15475   */\n      0x00\n        /* \"#utility.yul\":15514:15588   */\n      tag_543\n        /* \"#utility.yul\":15584:15587   */\n      dup5\n        /* \"#utility.yul\":15575:15581   */\n      dup3\n        /* \"#utility.yul\":15564:15573   */\n      dup6\n        /* \"#utility.yul\":15560:15582   */\n      add\n        /* \"#utility.yul\":15514:15588   */\n      tag_346\n      jump\t// in\n    tag_543:\n        /* \"#utility.yul\":15507:15511   */\n      0x00\n        /* \"#utility.yul\":15500:15505   */\n      dup4\n        /* \"#utility.yul\":15496:15512   */\n      add\n        /* \"#utility.yul\":15489:15589   */\n      mstore\n        /* \"#utility.yul\":15422:15600   */\n      pop\n        /* \"#utility.yul\":15665:15667   */\n      0x20\n        /* \"#utility.yul\":15706:15766   */\n      tag_544\n        /* \"#utility.yul\":15762:15765   */\n      dup5\n        /* \"#utility.yul\":15753:15759   */\n      dup3\n        /* \"#utility.yul\":15742:15751   */\n      dup6\n        /* \"#utility.yul\":15738:15760   */\n      add\n        /* \"#utility.yul\":15706:15766   */\n      tag_341\n      jump\t// in\n    tag_544:\n        /* \"#utility.yul\":15699:15703   */\n      0x20\n        /* \"#utility.yul\":15692:15697   */\n      dup4\n        /* \"#utility.yul\":15688:15704   */\n      add\n        /* \"#utility.yul\":15681:15767   */\n      mstore\n        /* \"#utility.yul\":15610:15778   */\n      pop\n        /* \"#utility.yul\":15848:15850   */\n      0x40\n        /* \"#utility.yul\":15889:15949   */\n      tag_545\n        /* \"#utility.yul\":15945:15948   */\n      dup5\n        /* \"#utility.yul\":15936:15942   */\n      dup3\n        /* \"#utility.yul\":15925:15934   */\n      dup6\n        /* \"#utility.yul\":15921:15943   */\n      add\n        /* \"#utility.yul\":15889:15949   */\n      tag_341\n      jump\t// in\n    tag_545:\n        /* \"#utility.yul\":15882:15886   */\n      0x40\n        /* \"#utility.yul\":15875:15880   */\n      dup4\n        /* \"#utility.yul\":15871:15887   */\n      add\n        /* \"#utility.yul\":15864:15950   */\n      mstore\n        /* \"#utility.yul\":15788:15961   */\n      pop\n        /* \"#utility.yul\":16030:16032   */\n      0x60\n        /* \"#utility.yul\":16071:16131   */\n      tag_546\n        /* \"#utility.yul\":16127:16130   */\n      dup5\n        /* \"#utility.yul\":16118:16124   */\n      dup3\n        /* \"#utility.yul\":16107:16116   */\n      dup6\n        /* \"#utility.yul\":16103:16125   */\n      add\n        /* \"#utility.yul\":16071:16131   */\n      tag_341\n      jump\t// in\n    tag_546:\n        /* \"#utility.yul\":16064:16068   */\n      0x60\n        /* \"#utility.yul\":16057:16062   */\n      dup4\n        /* \"#utility.yul\":16053:16069   */\n      add\n        /* \"#utility.yul\":16046:16132   */\n      mstore\n        /* \"#utility.yul\":15971:16143   */\n      pop\n        /* \"#utility.yul\":16212:16215   */\n      0x80\n        /* \"#utility.yul\":16254:16333   */\n      tag_547\n        /* \"#utility.yul\":16329:16332   */\n      dup5\n        /* \"#utility.yul\":16320:16326   */\n      dup3\n        /* \"#utility.yul\":16309:16318   */\n      dup6\n        /* \"#utility.yul\":16305:16327   */\n      add\n        /* \"#utility.yul\":16254:16333   */\n      tag_354\n      jump\t// in\n    tag_547:\n        /* \"#utility.yul\":16247:16251   */\n      0x80\n        /* \"#utility.yul\":16240:16245   */\n      dup4\n        /* \"#utility.yul\":16236:16252   */\n      add\n        /* \"#utility.yul\":16229:16334   */\n      mstore\n        /* \"#utility.yul\":16153:16345   */\n      pop\n        /* \"#utility.yul\":16411:16414   */\n      0xa0\n        /* \"#utility.yul\":16453:16527   */\n      tag_548\n        /* \"#utility.yul\":16523:16526   */\n      dup5\n        /* \"#utility.yul\":16514:16520   */\n      dup3\n        /* \"#utility.yul\":16503:16512   */\n      dup6\n        /* \"#utility.yul\":16499:16521   */\n      add\n        /* \"#utility.yul\":16453:16527   */\n      tag_346\n      jump\t// in\n    tag_548:\n        /* \"#utility.yul\":16446:16450   */\n      0xa0\n        /* \"#utility.yul\":16439:16444   */\n      dup4\n        /* \"#utility.yul\":16435:16451   */\n      add\n        /* \"#utility.yul\":16428:16528   */\n      mstore\n        /* \"#utility.yul\":16355:16539   */\n      pop\n        /* \"#utility.yul\":15155:16546   */\n      swap3\n      swap2\n      pop\n      pop\n      jump\t// out\n        /* \"#utility.yul\":16552:16954   */\n    tag_211:\n        /* \"#utility.yul\":16647:16653   */\n      0x00\n        /* \"#utility.yul\":16696:16699   */\n      0xc0\n        /* \"#utility.yul\":16684:16693   */\n      dup3\n        /* \"#utility.yul\":16675:16682   */\n      dup5\n        /* \"#utility.yul\":16671:16694   */\n      sub\n        /* \"#utility.yul\":16667:16700   */\n      slt\n        /* \"#utility.yul\":16664:16784   */\n      iszero\n      tag_550\n      jumpi\n        /* \"#utility.yul\":16703:16782   */\n      tag_551\n      tag_303\n      jump\t// in\n    tag_551:\n        /* \"#utility.yul\":16664:16784   */\n    tag_550:\n        /* \"#utility.yul\":16823:16824   */\n      0x00\n        /* \"#utility.yul\":16848:16937   */\n      tag_552\n        /* \"#utility.yul\":16929:16936   */\n      dup5\n        /* \"#utility.yul\":16920:16926   */\n      dup3\n        /* \"#utility.yul\":16909:16918   */\n      dup6\n        /* \"#utility.yul\":16905:16927   */\n      add\n        /* \"#utility.yul\":16848:16937   */\n      tag_355\n      jump\t// in\n    tag_552:\n        /* \"#utility.yul\":16838:16937   */\n      swap2\n      pop\n        /* \"#utility.yul\":16794:16947   */\n      pop\n        /* \"#utility.yul\":16552:16954   */\n      swap3\n      swap2\n      pop\n      pop\n      jump\t// out\n        /* \"#utility.yul\":16960:17140   */\n    tag_356:\n        /* \"#utility.yul\":17008:17085   */\n      0x4e487b7100000000000000000000000000000000000000000000000000000000\n        /* \"#utility.yul\":17005:17006   */\n      0x00\n        /* \"#utility.yul\":16998:17086   */\n      mstore\n        /* \"#utility.yul\":17105:17109   */\n      0x11\n        /* \"#utility.yul\":17102:17103   */\n      0x04\n        /* \"#utility.yul\":17095:17110   */\n      mstore\n        /* \"#utility.yul\":17129:17133   */\n      0x24\n        /* \"#utility.yul\":17126:17127   */\n      0x00\n        /* \"#utility.yul\":17119:17134   */\n      revert\n        /* \"#utility.yul\":17146:17451   */\n    tag_216:\n        /* \"#utility.yul\":17186:17189   */\n      0x00\n        /* \"#utility.yul\":17205:17225   */\n      tag_555\n        /* \"#utility.yul\":17223:17224   */\n      dup3\n        /* \"#utility.yul\":17205:17225   */\n      tag_309\n      jump\t// in\n    tag_555:\n        /* \"#utility.yul\":17200:17225   */\n      swap2\n      pop\n        /* \"#utility.yul\":17239:17259   */\n      tag_556\n        /* \"#utility.yul\":17257:17258   */\n      dup4\n        /* \"#utility.yul\":17239:17259   */\n      tag_309\n      jump\t// in\n    tag_556:\n        /* \"#utility.yul\":17234:17259   */\n      swap3\n      pop\n        /* \"#utility.yul\":17393:17394   */\n      dup3\n        /* \"#utility.yul\":17325:17391   */\n      0xffffffffffffffffffffffffffffffffffffffffffffffffffffffffffffffff\n        /* \"#utility.yul\":17321:17395   */\n      sub\n        /* \"#utility.yul\":17318:17319   */\n      dup3\n        /* \"#utility.yul\":17315:17396   */\n      gt\n        /* \"#utility.yul\":17312:17419   */\n      iszero\n      tag_557\n      jumpi\n        /* \"#utility.yul\":17399:17417   */\n      tag_558\n      tag_356\n      jump\t// in\n    tag_558:\n        /* \"#utility.yul\":17312:17419   */\n    tag_557:\n        /* \"#utility.yul\":17443:17444   */\n      dup3\n        /* \"#utility.yul\":17440:17441   */\n      dup3\n        /* \"#utility.yul\":17436:17445   */\n      add\n        /* \"#utility.yul\":17429:17445   */\n      swap1\n      pop\n        /* \"#utility.yul\":17146:17451   */\n      swap3\n      swap2\n      pop\n      pop\n      jump\t// out\n        /* \"#utility.yul\":17457:17690   */\n    tag_221:\n        /* \"#utility.yul\":17496:17499   */\n      0x00\n        /* \"#utility.yul\":17519:17543   */\n      tag_560\n        /* \"#utility.yul\":17537:17542   */\n      dup3\n        /* \"#utility.yul\":17519:17543   */\n      tag_309\n      jump\t// in\n    tag_560:\n        /* \"#utility.yul\":17510:17543   */\n      swap2\n      pop\n        /* \"#utility.yul\":17565:17631   */\n      0xffffffffffffffffffffffffffffffffffffffffffffffffffffffffffffffff\n        /* \"#utility.yul\":17558:17563   */\n      dup3\n        /* \"#utility.yul\":17555:17632   */\n      sub\n        /* \"#utility.yul\":17552:17655   */\n      tag_561\n      jumpi\n        /* \"#utility.yul\":17635:17653   */\n      tag_562\n      tag_356\n      jump\t// in\n    tag_562:\n        /* \"#utility.yul\":17552:17655   */\n    tag_561:\n        /* \"#utility.yul\":17682:17683   */\n      0x01\n        /* \"#utility.yul\":17675:17680   */\n      dup3\n        /* \"#utility.yul\":17671:17684   */\n      add\n        /* \"#utility.yul\":17664:17684   */\n      swap1\n      pop\n        /* \"#utility.yul\":17457:17690   */\n      swap2\n      swap1\n      pop\n      jump\t// out\n        /* \"#utility.yul\":17696:18044   */\n    tag_243:\n        /* \"#utility.yul\":17736:17743   */\n      0x00\n        /* \"#utility.yul\":17759:17779   */\n      tag_564\n        /* \"#utility.yul\":17777:17778   */\n      dup3\n        /* \"#utility.yul\":17759:17779   */\n      tag_309\n      jump\t// in\n    tag_564:\n        /* \"#utility.yul\":17754:17779   */\n      swap2\n      pop\n        /* \"#utility.yul\":17793:17813   */\n      tag_565\n        /* \"#utility.yul\":17811:17812   */\n      dup4\n        /* \"#utility.yul\":17793:17813   */\n      tag_309\n      jump\t// in\n    tag_565:\n        /* \"#utility.yul\":17788:17813   */\n      swap3\n      pop\n        /* \"#utility.yul\":17981:17982   */\n      dup2\n        /* \"#utility.yul\":17913:17979   */\n      0xffffffffffffffffffffffffffffffffffffffffffffffffffffffffffffffff\n        /* \"#utility.yul\":17909:17983   */\n      div\n        /* \"#utility.yul\":17906:17907   */\n      dup4\n        /* \"#utility.yul\":17903:17984   */\n      gt\n        /* \"#utility.yul\":17898:17899   */\n      dup3\n        /* \"#utility.yul\":17891:17900   */\n      iszero\n        /* \"#utility.yul\":17884:17901   */\n      iszero\n        /* \"#utility.yul\":17880:17985   */\n      and\n        /* \"#utility.yul\":17877:18008   */\n      iszero\n      tag_566\n      jumpi\n        /* \"#utility.yul\":17988:18006   */\n      tag_567\n      tag_356\n      jump\t// in\n    tag_567:\n        /* \"#utility.yul\":17877:18008   */\n    tag_566:\n        /* \"#utility.yul\":18036:18037   */\n      dup3\n        /* \"#utility.yul\":18033:18034   */\n      dup3\n        /* \"#utility.yul\":18029:18038   */\n      mul\n        /* \"#utility.yul\":18018:18038   */\n      swap1\n      pop\n        /* \"#utility.yul\":17696:18044   */\n      swap3\n      swap2\n      pop\n      pop\n      jump\t// out\n        /* \"#utility.yul\":18050:18193   */\n    tag_357:\n        /* \"#utility.yul\":18107:18112   */\n      0x00\n        /* \"#utility.yul\":18138:18144   */\n      dup2\n        /* \"#utility.yul\":18132:18145   */\n      mload\n        /* \"#utility.yul\":18123:18145   */\n      swap1\n      pop\n        /* \"#utility.yul\":18154:18187   */\n      tag_569\n        /* \"#utility.yul\":18181:18186   */\n      dup2\n        /* \"#utility.yul\":18154:18187   */\n      tag_307\n      jump\t// in\n    tag_569:\n        /* \"#utility.yul\":18050:18193   */\n      swap3\n      swap2\n      pop\n      pop\n      jump\t// out\n        /* \"#utility.yul\":18199:18550   */\n    tag_258:\n        /* \"#utility.yul\":18269:18275   */\n      0x00\n        /* \"#utility.yul\":18318:18320   */\n      0x20\n        /* \"#utility.yul\":18306:18315   */\n      dup3\n        /* \"#utility.yul\":18297:18304   */\n      dup5\n        /* \"#utility.yul\":18293:18316   */\n      sub\n        /* \"#utility.yul\":18289:18321   */\n      slt\n        /* \"#utility.yul\":18286:18405   */\n      iszero\n      tag_571\n      jumpi\n        /* \"#utility.yul\":18324:18403   */\n      tag_572\n      tag_303\n      jump\t// in\n    tag_572:\n        /* \"#utility.yul\":18286:18405   */\n    tag_571:\n        /* \"#utility.yul\":18444:18445   */\n      0x00\n        /* \"#utility.yul\":18469:18533   */\n      tag_573\n        /* \"#utility.yul\":18525:18532   */\n      dup5\n        /* \"#utility.yul\":18516:18522   */\n      dup3\n        /* \"#utility.yul\":18505:18514   */\n      dup6\n        /* \"#utility.yul\":18501:18523   */\n      add\n        /* \"#utility.yul\":18469:18533   */\n      tag_357\n      jump\t// in\n    tag_573:\n        /* \"#utility.yul\":18459:18533   */\n      swap2\n      pop\n        /* \"#utility.yul\":18415:18543   */\n      pop\n        /* \"#utility.yul\":18199:18550   */\n      swap3\n      swap2\n      pop\n      pop\n      jump\t// out\n        /* \"#utility.yul\":18556:18781   */\n    tag_358:\n        /* \"#utility.yul\":18696:18730   */\n      0x4f776e61626c653a206e6577206f776e657220697320746865207a65726f2061\n        /* \"#utility.yul\":18692:18693   */\n      0x00\n        /* \"#utility.yul\":18684:18690   */\n      dup3\n        /* \"#utility.yul\":18680:18694   */\n      add\n        /* \"#utility.yul\":18673:18731   */\n      mstore\n        /* \"#utility.yul\":18765:18773   */\n      0x6464726573730000000000000000000000000000000000000000000000000000\n        /* \"#utility.yul\":18760:18762   */\n      0x20\n        /* \"#utility.yul\":18752:18758   */\n      dup3\n        /* \"#utility.yul\":18748:18763   */\n      add\n        /* \"#utility.yul\":18741:18774   */\n      mstore\n        /* \"#utility.yul\":18556:18781   */\n      pop\n      jump\t// out\n        /* \"#utility.yul\":18787:19153   */\n    tag_359:\n        /* \"#utility.yul\":18929:18932   */\n      0x00\n        /* \"#utility.yul\":18950:19017   */\n      tag_576\n        /* \"#utility.yul\":19014:19016   */\n      0x26\n        /* \"#utility.yul\":19009:19012   */\n      dup4\n        /* \"#utility.yul\":18950:19017   */\n      tag_347\n      jump\t// in\n    tag_576:\n        /* \"#utility.yul\":18943:19017   */\n      swap2\n      pop\n        /* \"#utility.yul\":19026:19119   */\n      tag_577\n        /* \"#utility.yul\":19115:19118   */\n      dup3\n        /* \"#utility.yul\":19026:19119   */\n      tag_358\n      jump\t// in\n    tag_577:\n        /* \"#utility.yul\":19144:19146   */\n      0x40\n        /* \"#utility.yul\":19139:19142   */\n      dup3\n        /* \"#utility.yul\":19135:19147   */\n      add\n        /* \"#utility.yul\":19128:19147   */\n      swap1\n      pop\n        /* \"#utility.yul\":18787:19153   */\n      swap2\n      swap1\n      pop\n      jump\t// out\n        /* \"#utility.yul\":19159:19578   */\n    tag_277:\n        /* \"#utility.yul\":19325:19329   */\n      0x00\n        /* \"#utility.yul\":19363:19365   */\n      0x20\n        /* \"#utility.yul\":19352:19361   */\n      dup3\n        /* \"#utility.yul\":19348:19366   */\n      add\n        /* \"#utility.yul\":19340:19366   */\n      swap1\n      pop\n        /* \"#utility.yul\":19412:19421   */\n      dup2\n        /* \"#utility.yul\":19406:19410   */\n      dup2\n        /* \"#utility.yul\":19402:19422   */\n      sub\n        /* \"#utility.yul\":19398:19399   */\n      0x00\n        /* \"#utility.yul\":19387:19396   */\n      dup4\n        /* \"#utility.yul\":19383:19400   */\n      add\n        /* \"#utility.yul\":19376:19423   */\n      mstore\n        /* \"#utility.yul\":19440:19571   */\n      tag_579\n        /* \"#utility.yul\":19566:19570   */\n      dup2\n        /* \"#utility.yul\":19440:19571   */\n      tag_359\n      jump\t// in\n    tag_579:\n        /* \"#utility.yul\":19432:19571   */\n      swap1\n      pop\n        /* \"#utility.yul\":19159:19578   */\n      swap2\n      swap1\n      pop\n      jump\t// out\n        /* \"#utility.yul\":19584:19764   */\n    tag_360:\n        /* \"#utility.yul\":19632:19709   */\n      0x4e487b7100000000000000000000000000000000000000000000000000000000\n        /* \"#utility.yul\":19629:19630   */\n      0x00\n        /* \"#utility.yul\":19622:19710   */\n      mstore\n        /* \"#utility.yul\":19729:19733   */\n      0x12\n        /* \"#utility.yul\":19726:19727   */\n      0x04\n        /* \"#utility.yul\":19719:19734   */\n      mstore\n        /* \"#utility.yul\":19753:19757   */\n      0x24\n        /* \"#utility.yul\":19750:19751   */\n      0x00\n        /* \"#utility.yul\":19743:19758   */\n      revert\n        /* \"#utility.yul\":19770:19955   */\n    tag_283:\n        /* \"#utility.yul\":19810:19811   */\n      0x00\n        /* \"#utility.yul\":19827:19847   */\n      tag_582\n        /* \"#utility.yul\":19845:19846   */\n      dup3\n        /* \"#utility.yul\":19827:19847   */\n      tag_309\n      jump\t// in\n    tag_582:\n        /* \"#utility.yul\":19822:19847   */\n      swap2\n      pop\n        /* \"#utility.yul\":19861:19881   */\n      tag_583\n        /* \"#utility.yul\":19879:19880   */\n      dup4\n        /* \"#utility.yul\":19861:19881   */\n      tag_309\n      jump\t// in\n    tag_583:\n        /* \"#utility.yul\":19856:19881   */\n      swap3\n      pop\n        /* \"#utility.yul\":19900:19901   */\n      dup3\n        /* \"#utility.yul\":19890:19925   */\n      tag_584\n      jumpi\n        /* \"#utility.yul\":19905:19923   */\n      tag_585\n      tag_360\n      jump\t// in\n    tag_585:\n        /* \"#utility.yul\":19890:19925   */\n    tag_584:\n        /* \"#utility.yul\":19947:19948   */\n      dup3\n        /* \"#utility.yul\":19944:19945   */\n      dup3\n        /* \"#utility.yul\":19940:19949   */\n      div\n        /* \"#utility.yul\":19935:19949   */\n      swap1\n      pop\n        /* \"#utility.yul\":19770:19955   */\n      swap3\n      swap2\n      pop\n      pop\n      jump\t// out\n        /* \"#utility.yul\":19961:20181   */\n    tag_361:\n        /* \"#utility.yul\":20101:20135   */\n      0x536166654d6174683a206d756c7469706c69636174696f6e206f766572666c6f\n        /* \"#utility.yul\":20097:20098   */\n      0x00\n        /* \"#utility.yul\":20089:20095   */\n      dup3\n        /* \"#utility.yul\":20085:20099   */\n      add\n        /* \"#utility.yul\":20078:20136   */\n      mstore\n        /* \"#utility.yul\":20170:20173   */\n      0x7700000000000000000000000000000000000000000000000000000000000000\n        /* \"#utility.yul\":20165:20167   */\n      0x20\n        /* \"#utility.yul\":20157:20163   */\n      dup3\n        /* \"#utility.yul\":20153:20168   */\n      add\n        /* \"#utility.yul\":20146:20174   */\n      mstore\n        /* \"#utility.yul\":19961:20181   */\n      pop\n      jump\t// out\n        /* \"#utility.yul\":20187:20553   */\n    tag_362:\n        /* \"#utility.yul\":20329:20332   */\n      0x00\n        /* \"#utility.yul\":20350:20417   */\n      tag_588\n        /* \"#utility.yul\":20414:20416   */\n      0x21\n        /* \"#utility.yul\":20409:20412   */\n      dup4\n        /* \"#utility.yul\":20350:20417   */\n      tag_347\n      jump\t// in\n    tag_588:\n        /* \"#utility.yul\":20343:20417   */\n      swap2\n      pop\n        /* \"#utility.yul\":20426:20519   */\n      tag_589\n        /* \"#utility.yul\":20515:20518   */\n      dup3\n        /* \"#utility.yul\":20426:20519   */\n      tag_361\n      jump\t// in\n    tag_589:\n        /* \"#utility.yul\":20544:20546   */\n      0x40\n        /* \"#utility.yul\":20539:20542   */\n      dup3\n        /* \"#utility.yul\":20535:20547   */\n      add\n        /* \"#utility.yul\":20528:20547   */\n      swap1\n      pop\n        /* \"#utility.yul\":20187:20553   */\n      swap2\n      swap1\n      pop\n      jump\t// out\n        /* \"#utility.yul\":20559:20978   */\n    tag_286:\n        /* \"#utility.yul\":20725:20729   */\n      0x00\n        /* \"#utility.yul\":20763:20765   */\n      0x20\n        /* \"#utility.yul\":20752:20761   */\n      dup3\n        /* \"#utility.yul\":20748:20766   */\n      add\n        /* \"#utility.yul\":20740:20766   */\n      swap1\n      pop\n        /* \"#utility.yul\":20812:20821   */\n      dup2\n        /* \"#utility.yul\":20806:20810   */\n      dup2\n        /* \"#utility.yul\":20802:20822   */\n      sub\n        /* \"#utility.yul\":20798:20799   */\n      0x00\n        /* \"#utility.yul\":20787:20796   */\n      dup4\n        /* \"#utility.yul\":20783:20800   */\n      add\n        /* \"#utility.yul\":20776:20823   */\n      mstore\n        /* \"#utility.yul\":20840:20971   */\n      tag_591\n        /* \"#utility.yul\":20966:20970   */\n      dup2\n        /* \"#utility.yul\":20840:20971   */\n      tag_362\n      jump\t// in\n    tag_591:\n        /* \"#utility.yul\":20832:20971   */\n      swap1\n      pop\n        /* \"#utility.yul\":20559:20978   */\n      swap2\n      swap1\n      pop\n      jump\t// out\n        /* \"#utility.yul\":20984:21161   */\n    tag_363:\n        /* \"#utility.yul\":21124:21153   */\n      0x536166654d6174683a206164646974696f6e206f766572666c6f770000000000\n        /* \"#utility.yul\":21120:21121   */\n      0x00\n        /* \"#utility.yul\":21112:21118   */\n      dup3\n        /* \"#utility.yul\":21108:21122   */\n      add\n        /* \"#utility.yul\":21101:21154   */\n      mstore\n        /* \"#utility.yul\":20984:21161   */\n      pop\n      jump\t// out\n        /* \"#utility.yul\":21167:21533   */\n    tag_364:\n        /* \"#utility.yul\":21309:21312   */\n      0x00\n        /* \"#utility.yul\":21330:21397   */\n      tag_594\n        /* \"#utility.yul\":21394:21396   */\n      0x1b\n        /* \"#utility.yul\":21389:21392   */\n      dup4\n        /* \"#utility.yul\":21330:21397   */\n      tag_347\n      jump\t// in\n    tag_594:\n        /* \"#utility.yul\":21323:21397   */\n      swap2\n      pop\n        /* \"#utility.yul\":21406:21499   */\n      tag_595\n        /* \"#utility.yul\":21495:21498   */\n      dup3\n        /* \"#utility.yul\":21406:21499   */\n      tag_363\n      jump\t// in\n    tag_595:\n        /* \"#utility.yul\":21524:21526   */\n      0x20\n        /* \"#utility.yul\":21519:21522   */\n      dup3\n        /* \"#utility.yul\":21515:21527   */\n      add\n        /* \"#utility.yul\":21508:21527   */\n      swap1\n      pop\n        /* \"#utility.yul\":21167:21533   */\n      swap2\n      swap1\n      pop\n      jump\t// out\n        /* \"#utility.yul\":21539:21958   */\n    tag_291:\n        /* \"#utility.yul\":21705:21709   */\n      0x00\n        /* \"#utility.yul\":21743:21745   */\n      0x20\n        /* \"#utility.yul\":21732:21741   */\n      dup3\n        /* \"#utility.yul\":21728:21746   */\n      add\n        /* \"#utility.yul\":21720:21746   */\n      swap1\n      pop\n        /* \"#utility.yul\":21792:21801   */\n      dup2\n        /* \"#utility.yul\":21786:21790   */\n      dup2\n        /* \"#utility.yul\":21782:21802   */\n      sub\n        /* \"#utility.yul\":21778:21779   */\n      0x00\n        /* \"#utility.yul\":21767:21776   */\n      dup4\n        /* \"#utility.yul\":21763:21780   */\n      add\n        /* \"#utility.yul\":21756:21803   */\n      mstore\n        /* \"#utility.yul\":21820:21951   */\n      tag_597\n        /* \"#utility.yul\":21946:21950   */\n      dup2\n        /* \"#utility.yul\":21820:21951   */\n      tag_364\n      jump\t// in\n    tag_597:\n        /* \"#utility.yul\":21812:21951   */\n      swap1\n      pop\n        /* \"#utility.yul\":21539:21958   */\n      swap2\n      swap1\n      pop\n      jump\t// out\n        /* \"#utility.yul\":21964:22063   */\n    tag_365:\n        /* \"#utility.yul\":22016:22022   */\n      0x00\n        /* \"#utility.yul\":22050:22055   */\n      dup2\n        /* \"#utility.yul\":22044:22056   */\n      mload\n        /* \"#utility.yul\":22034:22056   */\n      swap1\n      pop\n        /* \"#utility.yul\":21964:22063   */\n      swap2\n      swap1\n      pop\n      jump\t// out\n        /* \"#utility.yul\":22069:22376   */\n    tag_366:\n        /* \"#utility.yul\":22137:22138   */\n      0x00\n        /* \"#utility.yul\":22147:22260   */\n    tag_600:\n        /* \"#utility.yul\":22161:22167   */\n      dup4\n        /* \"#utility.yul\":22158:22159   */\n      dup2\n        /* \"#utility.yul\":22155:22168   */\n      lt\n        /* \"#utility.yul\":22147:22260   */\n      iszero\n      tag_602\n      jumpi\n        /* \"#utility.yul\":22246:22247   */\n      dup1\n        /* \"#utility.yul\":22241:22244   */\n      dup3\n        /* \"#utility.yul\":22237:22248   */\n      add\n        /* \"#utility.yul\":22231:22249   */\n      mload\n        /* \"#utility.yul\":22227:22228   */\n      dup2\n        /* \"#utility.yul\":22222:22225   */\n      dup5\n        /* \"#utility.yul\":22218:22229   */\n      add\n        /* \"#utility.yul\":22211:22250   */\n      mstore\n        /* \"#utility.yul\":22183:22185   */\n      0x20\n        /* \"#utility.yul\":22180:22181   */\n      dup2\n        /* \"#utility.yul\":22176:22186   */\n      add\n        /* \"#utility.yul\":22171:22186   */\n      swap1\n      pop\n        /* \"#utility.yul\":22147:22260   */\n      jump(tag_600)\n    tag_602:\n        /* \"#utility.yul\":22278:22284   */\n      dup4\n        /* \"#utility.yul\":22275:22276   */\n      dup2\n        /* \"#utility.yul\":22272:22285   */\n      gt\n        /* \"#utility.yul\":22269:22370   */\n      iszero\n      tag_603\n      jumpi\n        /* \"#utility.yul\":22358:22359   */\n      0x00\n        /* \"#utility.yul\":22349:22355   */\n      dup5\n        /* \"#utility.yul\":22344:22347   */\n      dup5\n        /* \"#utility.yul\":22340:22356   */\n      add\n        /* \"#utility.yul\":22333:22360   */\n      mstore\n        /* \"#utility.yul\":22269:22370   */\n    tag_603:\n        /* \"#utility.yul\":22118:22376   */\n      pop\n        /* \"#utility.yul\":22069:22376   */\n      pop\n      pop\n      pop\n      jump\t// out\n        /* \"#utility.yul\":22382:22746   */\n    tag_367:\n        /* \"#utility.yul\":22470:22473   */\n      0x00\n        /* \"#utility.yul\":22498:22537   */\n      tag_605\n        /* \"#utility.yul\":22531:22536   */\n      dup3\n        /* \"#utility.yul\":22498:22537   */\n      tag_365\n      jump\t// in\n    tag_605:\n        /* \"#utility.yul\":22553:22624   */\n      tag_606\n        /* \"#utility.yul\":22617:22623   */\n      dup2\n        /* \"#utility.yul\":22612:22615   */\n      dup6\n        /* \"#utility.yul\":22553:22624   */\n      tag_347\n      jump\t// in\n    tag_606:\n        /* \"#utility.yul\":22546:22624   */\n      swap4\n      pop\n        /* \"#utility.yul\":22633:22685   */\n      tag_607\n        /* \"#utility.yul\":22678:22684   */\n      dup2\n        /* \"#utility.yul\":22673:22676   */\n      dup6\n        /* \"#utility.yul\":22666:22670   */\n      0x20\n        /* \"#utility.yul\":22659:22664   */\n      dup7\n        /* \"#utility.yul\":22655:22671   */\n      add\n        /* \"#utility.yul\":22633:22685   */\n      tag_366\n      jump\t// in\n    tag_607:\n        /* \"#utility.yul\":22710:22739   */\n      tag_608\n        /* \"#utility.yul\":22732:22738   */\n      dup2\n        /* \"#utility.yul\":22710:22739   */\n      tag_336\n      jump\t// in\n    tag_608:\n        /* \"#utility.yul\":22705:22708   */\n      dup5\n        /* \"#utility.yul\":22701:22740   */\n      add\n        /* \"#utility.yul\":22694:22740   */\n      swap2\n      pop\n        /* \"#utility.yul\":22474:22746   */\n      pop\n        /* \"#utility.yul\":22382:22746   */\n      swap3\n      swap2\n      pop\n      pop\n      jump\t// out\n        /* \"#utility.yul\":22752:23065   */\n    tag_300:\n        /* \"#utility.yul\":22865:22869   */\n      0x00\n        /* \"#utility.yul\":22903:22905   */\n      0x20\n        /* \"#utility.yul\":22892:22901   */\n      dup3\n        /* \"#utility.yul\":22888:22906   */\n      add\n        /* \"#utility.yul\":22880:22906   */\n      swap1\n      pop\n        /* \"#utility.yul\":22952:22961   */\n      dup2\n        /* \"#utility.yul\":22946:22950   */\n      dup2\n        /* \"#utility.yul\":22942:22962   */\n      sub\n        /* \"#utility.yul\":22938:22939   */\n      0x00\n        /* \"#utility.yul\":22927:22936   */\n      dup4\n        /* \"#utility.yul\":22923:22940   */\n      add\n        /* \"#utility.yul\":22916:22963   */\n      mstore\n        /* \"#utility.yul\":22980:23058   */\n      tag_610\n        /* \"#utility.yul\":23053:23057   */\n      dup2\n        /* \"#utility.yul\":23044:23050   */\n      dup5\n        /* \"#utility.yul\":22980:23058   */\n      tag_367\n      jump\t// in\n    tag_610:\n        /* \"#utility.yul\":22972:23058   */\n      swap1\n      pop\n        /* \"#utility.yul\":22752:23065   */\n      swap3\n      swap2\n      pop\n      pop\n      jump\t// out\n\n    auxdata: 0xa2646970667358221220fc0665377e047bdc15c62cec68d5c175de8bd51308b18c2bb889703c3267fc2f64736f6c634300080f0033\n}\n",
				"bytecode": {
					"linkReferences": {},
					"object": "6080604052670de0b6b3a764000060035562a066806005553480156200002457600080fd5b5060405162002a1b38038062002a1b83398181016040528101906200004a9190620002b1565b6200006a6200005e6200013660201b60201c565b6200013e60201b60201c565b82600460006101000a81548173ffffffffffffffffffffffffffffffffffffffff021916908373ffffffffffffffffffffffffffffffffffffffff16021790555081600160006101000a81548173ffffffffffffffffffffffffffffffffffffffff021916908373ffffffffffffffffffffffffffffffffffffffff16021790555080600260006101000a81548173ffffffffffffffffffffffffffffffffffffffff021916908373ffffffffffffffffffffffffffffffffffffffff1602179055505050506200030d565b600033905090565b60008060009054906101000a900473ffffffffffffffffffffffffffffffffffffffff169050816000806101000a81548173ffffffffffffffffffffffffffffffffffffffff021916908373ffffffffffffffffffffffffffffffffffffffff1602179055508173ffffffffffffffffffffffffffffffffffffffff168173ffffffffffffffffffffffffffffffffffffffff167f8be0079c531659141344cd1fd0a4f28419497f9722a3daafe3b4186f6b6457e060405160405180910390a35050565b600080fd5b600073ffffffffffffffffffffffffffffffffffffffff82169050919050565b6000620002348262000207565b9050919050565b6000620002488262000227565b9050919050565b6200025a816200023b565b81146200026657600080fd5b50565b6000815190506200027a816200024f565b92915050565b6200028b8162000227565b81146200029757600080fd5b50565b600081519050620002ab8162000280565b92915050565b600080600060608486031215620002cd57620002cc62000202565b5b6000620002dd8682870162000269565b9350506020620002f0868287016200029a565b925050604062000303868287016200029a565b9150509250925092565b6126fe806200031d6000396000f3fe608060405234801561001057600080fd5b50600436106100ea5760003560e01c80638da5cb5b1161008c578063c0d7865511610066578063c0d7865514610261578063d979fb5f1461027d578063dbb79348146102ad578063f2fde38b146102dd576100ea565b80638da5cb5b146101f55780638dd950021461021357806391c6579e14610231576100ea565b80633268cc56116100c85780633268cc561461017f5780633b979d451461019d578063484f4ea9146101cd578063715018a6146101eb576100ea565b806319047f8a146100ef578063215cc9891461011f5780632f7c59801461014f575b600080fd5b61010960048036038101906101049190611af1565b6102f9565b6040516101169190611b37565b60405180910390f35b61013960048036038101906101349190611b90565b610541565b6040516101469190611b37565b60405180910390f35b61016960048036038101906101649190611b90565b610d3c565b6040516101769190611b37565b60405180910390f35b610187610dbe565b6040516101949190611c1c565b60405180910390f35b6101b760048036038101906101b29190611af1565b610de4565b6040516101c49190611b37565b60405180910390f35b6101d5610fbb565b6040516101e29190611c46565b60405180910390f35b6101f3610fe1565b005b6101fd611069565b60405161020a9190611c46565b60405180910390f35b61021b611092565b6040516102289190611c46565b60405180910390f35b61024b60048036038101906102469190611c9f565b6110b8565b6040516102589190611b37565b60405180910390f35b61027b60048036038101906102769190611d1d565b61121e565b005b61029760048036038101906102929190611d76565b6112de565b6040516102a49190611b37565b60405180910390f35b6102c760048036038101906102c29190611d76565b61141e565b6040516102d49190611b37565b60405180910390f35b6102f760048036038101906102f29190611af1565b6116bf565b005b600080600367ffffffffffffffff81111561031757610316611ddd565b5b6040519080825280602002602001820160405280156103455781602001602082028036833780820191505090505b509050828160008151811061035d5761035c611e0c565b5b602002602001019073ffffffffffffffffffffffffffffffffffffffff16908173ffffffffffffffffffffffffffffffffffffffff1681525050600160009054906101000a900473ffffffffffffffffffffffffffffffffffffffff16816001815181106103ce576103cd611e0c565b5b602002602001019073ffffffffffffffffffffffffffffffffffffffff16908173ffffffffffffffffffffffffffffffffffffffff1681525050600260009054906101000a900473ffffffffffffffffffffffffffffffffffffffff168160028151811061043f5761043e611e0c565b5b602002602001019073ffffffffffffffffffffffffffffffffffffffff16908173ffffffffffffffffffffffffffffffffffffffff1681525050600460009054906101000a900473ffffffffffffffffffffffffffffffffffffffff1673ffffffffffffffffffffffffffffffffffffffff1663d06ca61f600354836040518363ffffffff1660e01b81526004016104d8929190611ef9565b600060405180830381865afa1580156104f5573d6000803e3d6000fd5b505050506040513d6000823e3d601f19601f8201168201806040525081019061051e9190612068565b60028151811061053157610530611e0c565b5b6020026020010151915050919050565b60008060008373ffffffffffffffffffffffffffffffffffffffff16630dfe16816040518163ffffffff1660e01b8152600401602060405180830381865afa158015610591573d6000803e3d6000fd5b505050506040513d601f19601f820116820180604052508101906105b591906120ef565b73ffffffffffffffffffffffffffffffffffffffff16600160009054906101000a900473ffffffffffffffffffffffffffffffffffffffff1673ffffffffffffffffffffffffffffffffffffffff1603610780576107796106838573ffffffffffffffffffffffffffffffffffffffff16630dfe16816040518163ffffffff1660e01b8152600401602060405180830381865afa15801561065a573d6000803e3d6000fd5b505050506040513d601f19601f8201168201806040525081019061067e91906120ef565b610de4565b8573ffffffffffffffffffffffffffffffffffffffff16630dfe16816040518163ffffffff1660e01b8152600401602060405180830381865afa1580156106ce573d6000803e3d6000fd5b505050506040513d601f19601f820116820180604052508101906106f291906120ef565b73ffffffffffffffffffffffffffffffffffffffff166370a08231876040518263ffffffff1660e01b815260040161072a9190611c46565b602060405180830381865afa158015610747573d6000803e3d6000fd5b505050506040513d601f19601f8201168201806040525081019061076b919061211c565b6117b690919063ffffffff16565b91506108f3565b6108f06107fa8573ffffffffffffffffffffffffffffffffffffffff16630dfe16816040518163ffffffff1660e01b8152600401602060405180830381865afa1580156107d1573d6000803e3d6000fd5b505050506040513d601f19601f820116820180604052508101906107f591906120ef565b6102f9565b8573ffffffffffffffffffffffffffffffffffffffff16630dfe16816040518163ffffffff1660e01b8152600401602060405180830381865afa158015610845573d6000803e3d6000fd5b505050506040513d601f19601f8201168201806040525081019061086991906120ef565b73ffffffffffffffffffffffffffffffffffffffff166370a08231876040518263ffffffff1660e01b81526004016108a19190611c46565b602060405180830381865afa1580156108be573d6000803e3d6000fd5b505050506040513d601f19601f820116820180604052508101906108e2919061211c565b6117b690919063ffffffff16565b91505b8373ffffffffffffffffffffffffffffffffffffffff1663d21220a76040518163ffffffff1660e01b8152600401602060405180830381865afa15801561093e573d6000803e3d6000fd5b505050506040513d601f19601f8201168201806040525081019061096291906120ef565b73ffffffffffffffffffffffffffffffffffffffff16600160009054906101000a900473ffffffffffffffffffffffffffffffffffffffff1673ffffffffffffffffffffffffffffffffffffffff1603610b2d57610b26610a308573ffffffffffffffffffffffffffffffffffffffff1663d21220a76040518163ffffffff1660e01b8152600401602060405180830381865afa158015610a07573d6000803e3d6000fd5b505050506040513d601f19601f82011682018060405250810190610a2b91906120ef565b610de4565b8573ffffffffffffffffffffffffffffffffffffffff1663d21220a76040518163ffffffff1660e01b8152600401602060405180830381865afa158015610a7b573d6000803e3d6000fd5b505050506040513d601f19601f82011682018060405250810190610a9f91906120ef565b73ffffffffffffffffffffffffffffffffffffffff166370a08231876040518263ffffffff1660e01b8152600401610ad79190611c46565b602060405180830381865afa158015610af4573d6000803e3d6000fd5b505050506040513d601f19601f82011682018060405250810190610b18919061211c565b6117b690919063ffffffff16565b9050610ca0565b610c9d610ba78573ffffffffffffffffffffffffffffffffffffffff1663d21220a76040518163ffffffff1660e01b8152600401602060405180830381865afa158015610b7e573d6000803e3d6000fd5b505050506040513d601f19601f82011682018060405250810190610ba291906120ef565b6102f9565b8573ffffffffffffffffffffffffffffffffffffffff1663d21220a76040518163ffffffff1660e01b8152600401602060405180830381865afa158015610bf2573d6000803e3d6000fd5b505050506040513d601f19601f82011682018060405250810190610c1691906120ef565b73ffffffffffffffffffffffffffffffffffffffff166370a08231876040518263ffffffff1660e01b8152600401610c4e9190611c46565b602060405180830381865afa158015610c6b573d6000803e3d6000fd5b505050506040513d601f19601f82011682018060405250810190610c8f919061211c565b6117b690919063ffffffff16565b90505b610d338473ffffffffffffffffffffffffffffffffffffffff166318160ddd6040518163ffffffff1660e01b8152600401602060405180830381865afa158015610cee573d6000803e3d6000fd5b505050506040513d601f19601f82011682018060405250810190610d12919061211c565b610d25838561183090919063ffffffff16565b61188e90919063ffffffff16565b92505050919050565b60008173ffffffffffffffffffffffffffffffffffffffff16630dfe16816040518163ffffffff1660e01b8152600401602060405180830381865afa925050508015610da657506040513d601f19601f82011682018060405250810190610da391906120ef565b60015b610db35760009050610db9565b50600190505b919050565b600460009054906101000a900473ffffffffffffffffffffffffffffffffffffffff1681565b600080600267ffffffffffffffff811115610e0257610e01611ddd565b5b604051908082528060200260200182016040528015610e305781602001602082028036833780820191505090505b5090508281600081518110610e4857610e47611e0c565b5b602002602001019073ffffffffffffffffffffffffffffffffffffffff16908173ffffffffffffffffffffffffffffffffffffffff1681525050600260009054906101000a900473ffffffffffffffffffffffffffffffffffffffff1681600181518110610eb957610eb8611e0c565b5b602002602001019073ffffffffffffffffffffffffffffffffffffffff16908173ffffffffffffffffffffffffffffffffffffffff1681525050600460009054906101000a900473ffffffffffffffffffffffffffffffffffffffff1673ffffffffffffffffffffffffffffffffffffffff1663d06ca61f600354836040518363ffffffff1660e01b8152600401610f52929190611ef9565b600060405180830381865afa158015610f6f573d6000803e3d6000fd5b505050506040513d6000823e3d601f19601f82011682018060405250810190610f989190612068565b600181518110610fab57610faa611e0c565b5b6020026020010151915050919050565b600260009054906101000a900473ffffffffffffffffffffffffffffffffffffffff1681565b610fe96118d8565b73ffffffffffffffffffffffffffffffffffffffff16611007611069565b73ffffffffffffffffffffffffffffffffffffffff161461105d576040517f08c379a0000000000000000000000000000000000000000000000000000000008152600401611054906121a6565b60405180910390fd5b61106760006118e0565b565b60008060009054906101000a900473ffffffffffffffffffffffffffffffffffffffff16905090565b600160009054906101000a900473ffffffffffffffffffffffffffffffffffffffff1681565b60006110c2611a07565b6000805b8573ffffffffffffffffffffffffffffffffffffffff1663081e3eda6040518163ffffffff1660e01b8152600401602060405180830381865afa158015611111573d6000803e3d6000fd5b505050506040513d601f19601f82011682018060405250810190611135919061211c565b811015611215578573ffffffffffffffffffffffffffffffffffffffff16631526fe27826040518263ffffffff1660e01b81526004016111759190611b37565b60c060405180830381865afa158015611192573d6000803e3d6000fd5b505050506040513d601f19601f820116820180604052508101906111b691906122a9565b925060016111c386610d3c565b036111e7576111d581866001896112de565b826111e09190612305565b9150611202565b6111f481866000896112de565b826111ff9190612305565b91505b808061120d9061235b565b9150506110c6565b50505092915050565b6112266118d8565b73ffffffffffffffffffffffffffffffffffffffff16611244611069565b73ffffffffffffffffffffffffffffffffffffffff161461129a576040517f08c379a0000000000000000000000000000000000000000000000000000000008152600401611291906121a6565b60405180910390fd5b80600460006101000a81548173ffffffffffffffffffffffffffffffffffffffff021916908373ffffffffffffffffffffffffffffffffffffffff16021790555050565b6000808273ffffffffffffffffffffffffffffffffffffffff16636a6d964e876040518263ffffffff1660e01b815260040161131a9190611b37565b602060405180830381865afa158015611337573d6000803e3d6000fd5b505050506040513d601f19601f8201168201806040525081019061135b919061211c565b90506000600185036113775761137086610541565b90506113f2565b600085036113f1578573ffffffffffffffffffffffffffffffffffffffff16600160009054906101000a900473ffffffffffffffffffffffffffffffffffffffff1673ffffffffffffffffffffffffffffffffffffffff16036113e4576113dd86610de4565b90506113f0565b6113ed866102f9565b90505b5b5b611412600354828461140491906123a3565b61188e90919063ffffffff16565b92505050949350505050565b6000808273ffffffffffffffffffffffffffffffffffffffff16631526fe27876040518263ffffffff1660e01b815260040161145a9190611b37565b60c060405180830381865afa158015611477573d6000803e3d6000fd5b505050506040513d601f19601f8201168201806040525081019061149b91906122a9565b905060006115388473ffffffffffffffffffffffffffffffffffffffff166317caf6f16040518163ffffffff1660e01b8152600401602060405180830381865afa1580156114ed573d6000803e3d6000fd5b505050506040513d601f19601f82011682018060405250810190611511919061211c565b61152a60035485602001516117b690919063ffffffff16565b61188e90919063ffffffff16565b905060006115b38573ffffffffffffffffffffffffffffffffffffffff1663141aa0ba6040518163ffffffff1660e01b8152600401602060405180830381865afa15801561158a573d6000803e3d6000fd5b505050506040513d601f19601f820116820180604052508101906115ae9190612412565b6102f9565b9050600061163a8673ffffffffffffffffffffffffffffffffffffffff1663a1eef8216040518163ffffffff1660e01b8152600401602060405180830381865afa158015611605573d6000803e3d6000fd5b505050506040513d601f19601f82011682018060405250810190611629919061211c565b6005546117b690919063ffffffff16565b9050600061166560035461165786856117b690919063ffffffff16565b61188e90919063ffffffff16565b905060006116758b8b8b8b6112de565b90506116af60646116a18361169388876117b690919063ffffffff16565b61188e90919063ffffffff16565b6117b690919063ffffffff16565b9650505050505050949350505050565b6116c76118d8565b73ffffffffffffffffffffffffffffffffffffffff166116e5611069565b73ffffffffffffffffffffffffffffffffffffffff161461173b576040517f08c379a0000000000000000000000000000000000000000000000000000000008152600401611732906121a6565b60405180910390fd5b600073ffffffffffffffffffffffffffffffffffffffff168173ffffffffffffffffffffffffffffffffffffffff16036117aa576040517f08c379a00000000000000000000000000000000000000000000000000000000081526004016117a1906124b1565b60405180910390fd5b6117b3816118e0565b50565b60008083036117c8576000905061182a565b600082846117d691906123a3565b90508284826117e59190612500565b14611825576040517f08c379a000000000000000000000000000000000000000000000000000000000815260040161181c906125a3565b60405180910390fd5b809150505b92915050565b600080828461183f9190612305565b905083811015611884576040517f08c379a000000000000000000000000000000000000000000000000000000000815260040161187b9061260f565b60405180910390fd5b8091505092915050565b60006118d083836040518060400160405280601a81526020017f536166654d6174683a206469766973696f6e206279207a65726f0000000000008152506119a4565b905092915050565b600033905090565b60008060009054906101000a900473ffffffffffffffffffffffffffffffffffffffff169050816000806101000a81548173ffffffffffffffffffffffffffffffffffffffff021916908373ffffffffffffffffffffffffffffffffffffffff1602179055508173ffffffffffffffffffffffffffffffffffffffff168173ffffffffffffffffffffffffffffffffffffffff167f8be0079c531659141344cd1fd0a4f28419497f9722a3daafe3b4186f6b6457e060405160405180910390a35050565b600080831182906119eb576040517f08c379a00000000000000000000000000000000000000000000000000000000081526004016119e291906126a6565b60405180910390fd5b50600083856119fa9190612500565b9050809150509392505050565b6040518060c00160405280600073ffffffffffffffffffffffffffffffffffffffff168152602001600081526020016000815260200160008152602001600073ffffffffffffffffffffffffffffffffffffffff168152602001600073ffffffffffffffffffffffffffffffffffffffff1681525090565b6000604051905090565b600080fd5b600080fd5b600073ffffffffffffffffffffffffffffffffffffffff82169050919050565b6000611abe82611a93565b9050919050565b611ace81611ab3565b8114611ad957600080fd5b50565b600081359050611aeb81611ac5565b92915050565b600060208284031215611b0757611b06611a89565b5b6000611b1584828501611adc565b91505092915050565b6000819050919050565b611b3181611b1e565b82525050565b6000602082019050611b4c6000830184611b28565b92915050565b6000611b5d82611ab3565b9050919050565b611b6d81611b52565b8114611b7857600080fd5b50565b600081359050611b8a81611b64565b92915050565b600060208284031215611ba657611ba5611a89565b5b6000611bb484828501611b7b565b91505092915050565b6000819050919050565b6000611be2611bdd611bd884611a93565b611bbd565b611a93565b9050919050565b6000611bf482611bc7565b9050919050565b6000611c0682611be9565b9050919050565b611c1681611bfb565b82525050565b6000602082019050611c316000830184611c0d565b92915050565b611c4081611ab3565b82525050565b6000602082019050611c5b6000830184611c37565b92915050565b6000611c6c82611ab3565b9050919050565b611c7c81611c61565b8114611c8757600080fd5b50565b600081359050611c9981611c73565b92915050565b60008060408385031215611cb657611cb5611a89565b5b6000611cc485828601611c8a565b9250506020611cd585828601611b7b565b9150509250929050565b6000611cea82611ab3565b9050919050565b611cfa81611cdf565b8114611d0557600080fd5b50565b600081359050611d1781611cf1565b92915050565b600060208284031215611d3357611d32611a89565b5b6000611d4184828501611d08565b91505092915050565b611d5381611b1e565b8114611d5e57600080fd5b50565b600081359050611d7081611d4a565b92915050565b60008060008060808587031215611d9057611d8f611a89565b5b6000611d9e87828801611d61565b9450506020611daf87828801611b7b565b9350506040611dc087828801611d61565b9250506060611dd187828801611c8a565b91505092959194509250565b7f4e487b7100000000000000000000000000000000000000000000000000000000600052604160045260246000fd5b7f4e487b7100000000000000000000000000000000000000000000000000000000600052603260045260246000fd5b600081519050919050565b600082825260208201905092915050565b6000819050602082019050919050565b611e7081611ab3565b82525050565b6000611e828383611e67565b60208301905092915050565b6000602082019050919050565b6000611ea682611e3b565b611eb08185611e46565b9350611ebb83611e57565b8060005b83811015611eec578151611ed38882611e76565b9750611ede83611e8e565b925050600181019050611ebf565b5085935050505092915050565b6000604082019050611f0e6000830185611b28565b8181036020830152611f208184611e9b565b90509392505050565b600080fd5b6000601f19601f8301169050919050565b611f4882611f2e565b810181811067ffffffffffffffff82111715611f6757611f66611ddd565b5b80604052505050565b6000611f7a611a7f565b9050611f868282611f3f565b919050565b600067ffffffffffffffff821115611fa657611fa5611ddd565b5b602082029050602081019050919050565b600080fd5b600081519050611fcb81611d4a565b92915050565b6000611fe4611fdf84611f8b565b611f70565b9050808382526020820190506020840283018581111561200757612006611fb7565b5b835b81811015612030578061201c8882611fbc565b845260208401935050602081019050612009565b5050509392505050565b600082601f83011261204f5761204e611f29565b5b815161205f848260208601611fd1565b91505092915050565b60006020828403121561207e5761207d611a89565b5b600082015167ffffffffffffffff81111561209c5761209b611a8e565b5b6120a88482850161203a565b91505092915050565b60006120bc82611ab3565b9050919050565b6120cc816120b1565b81146120d757600080fd5b50565b6000815190506120e9816120c3565b92915050565b60006020828403121561210557612104611a89565b5b6000612113848285016120da565b91505092915050565b60006020828403121561213257612131611a89565b5b600061214084828501611fbc565b91505092915050565b600082825260208201905092915050565b7f4f776e61626c653a2063616c6c6572206973206e6f7420746865206f776e6572600082015250565b6000612190602083612149565b915061219b8261215a565b602082019050919050565b600060208201905081810360008301526121bf81612183565b9050919050565b600080fd5b60006121d682611ab3565b9050919050565b6121e6816121cb565b81146121f157600080fd5b50565b600081519050612203816121dd565b92915050565b600060c0828403121561221f5761221e6121c6565b5b61222960c0611f70565b90506000612239848285016120da565b600083015250602061224d84828501611fbc565b602083015250604061226184828501611fbc565b604083015250606061227584828501611fbc565b6060830152506080612289848285016121f4565b60808301525060a061229d848285016120da565b60a08301525092915050565b600060c082840312156122bf576122be611a89565b5b60006122cd84828501612209565b91505092915050565b7f4e487b7100000000000000000000000000000000000000000000000000000000600052601160045260246000fd5b600061231082611b1e565b915061231b83611b1e565b9250827fffffffffffffffffffffffffffffffffffffffffffffffffffffffffffffffff038211156123505761234f6122d6565b5b828201905092915050565b600061236682611b1e565b91507fffffffffffffffffffffffffffffffffffffffffffffffffffffffffffffffff8203612398576123976122d6565b5b600182019050919050565b60006123ae82611b1e565b91506123b983611b1e565b9250817fffffffffffffffffffffffffffffffffffffffffffffffffffffffffffffffff04831182151516156123f2576123f16122d6565b5b828202905092915050565b60008151905061240c81611ac5565b92915050565b60006020828403121561242857612427611a89565b5b6000612436848285016123fd565b91505092915050565b7f4f776e61626c653a206e6577206f776e657220697320746865207a65726f206160008201527f6464726573730000000000000000000000000000000000000000000000000000602082015250565b600061249b602683612149565b91506124a68261243f565b604082019050919050565b600060208201905081810360008301526124ca8161248e565b9050919050565b7f4e487b7100000000000000000000000000000000000000000000000000000000600052601260045260246000fd5b600061250b82611b1e565b915061251683611b1e565b925082612526576125256124d1565b5b828204905092915050565b7f536166654d6174683a206d756c7469706c69636174696f6e206f766572666c6f60008201527f7700000000000000000000000000000000000000000000000000000000000000602082015250565b600061258d602183612149565b915061259882612531565b604082019050919050565b600060208201905081810360008301526125bc81612580565b9050919050565b7f536166654d6174683a206164646974696f6e206f766572666c6f770000000000600082015250565b60006125f9601b83612149565b9150612604826125c3565b602082019050919050565b60006020820190508181036000830152612628816125ec565b9050919050565b600081519050919050565b60005b8381101561265857808201518184015260208101905061263d565b83811115612667576000848401525b50505050565b60006126788261262f565b6126828185612149565b935061269281856020860161263a565b61269b81611f2e565b840191505092915050565b600060208201905081810360008301526126c0818461266d565b90509291505056fea2646970667358221220fc0665377e047bdc15c62cec68d5c175de8bd51308b18c2bb889703c3267fc2f64736f6c634300080f0033",
					"opcodes": "PUSH1 0x80 PUSH1 0x40 MSTORE PUSH8 0xDE0B6B3A7640000 PUSH1 0x3 SSTORE PUSH3 0xA06680 PUSH1 0x5 SSTORE CALLVALUE DUP1 ISZERO PUSH3 0x24 JUMPI PUSH1 0x0 DUP1 REVERT JUMPDEST POP PUSH1 0x40 MLOAD PUSH3 0x2A1B CODESIZE SUB DUP1 PUSH3 0x2A1B DUP4 CODECOPY DUP2 DUP2 ADD PUSH1 0x40 MSTORE DUP2 ADD SWAP1 PUSH3 0x4A SWAP2 SWAP1 PUSH3 0x2B1 JUMP JUMPDEST PUSH3 0x6A PUSH3 0x5E PUSH3 0x136 PUSH1 0x20 SHL PUSH1 0x20 SHR JUMP JUMPDEST PUSH3 0x13E PUSH1 0x20 SHL PUSH1 0x20 SHR JUMP JUMPDEST DUP3 PUSH1 0x4 PUSH1 0x0 PUSH2 0x100 EXP DUP2 SLOAD DUP2 PUSH20 0xFFFFFFFFFFFFFFFFFFFFFFFFFFFFFFFFFFFFFFFF MUL NOT AND SWAP1 DUP4 PUSH20 0xFFFFFFFFFFFFFFFFFFFFFFFFFFFFFFFFFFFFFFFF AND MUL OR SWAP1 SSTORE POP DUP2 PUSH1 0x1 PUSH1 0x0 PUSH2 0x100 EXP DUP2 SLOAD DUP2 PUSH20 0xFFFFFFFFFFFFFFFFFFFFFFFFFFFFFFFFFFFFFFFF MUL NOT AND SWAP1 DUP4 PUSH20 0xFFFFFFFFFFFFFFFFFFFFFFFFFFFFFFFFFFFFFFFF AND MUL OR SWAP1 SSTORE POP DUP1 PUSH1 0x2 PUSH1 0x0 PUSH2 0x100 EXP DUP2 SLOAD DUP2 PUSH20 0xFFFFFFFFFFFFFFFFFFFFFFFFFFFFFFFFFFFFFFFF MUL NOT AND SWAP1 DUP4 PUSH20 0xFFFFFFFFFFFFFFFFFFFFFFFFFFFFFFFFFFFFFFFF AND MUL OR SWAP1 SSTORE POP POP POP POP PUSH3 0x30D JUMP JUMPDEST PUSH1 0x0 CALLER SWAP1 POP SWAP1 JUMP JUMPDEST PUSH1 0x0 DUP1 PUSH1 0x0 SWAP1 SLOAD SWAP1 PUSH2 0x100 EXP SWAP1 DIV PUSH20 0xFFFFFFFFFFFFFFFFFFFFFFFFFFFFFFFFFFFFFFFF AND SWAP1 POP DUP2 PUSH1 0x0 DUP1 PUSH2 0x100 EXP DUP2 SLOAD DUP2 PUSH20 0xFFFFFFFFFFFFFFFFFFFFFFFFFFFFFFFFFFFFFFFF MUL NOT AND SWAP1 DUP4 PUSH20 0xFFFFFFFFFFFFFFFFFFFFFFFFFFFFFFFFFFFFFFFF AND MUL OR SWAP1 SSTORE POP DUP2 PUSH20 0xFFFFFFFFFFFFFFFFFFFFFFFFFFFFFFFFFFFFFFFF AND DUP2 PUSH20 0xFFFFFFFFFFFFFFFFFFFFFFFFFFFFFFFFFFFFFFFF AND PUSH32 0x8BE0079C531659141344CD1FD0A4F28419497F9722A3DAAFE3B4186F6B6457E0 PUSH1 0x40 MLOAD PUSH1 0x40 MLOAD DUP1 SWAP2 SUB SWAP1 LOG3 POP POP JUMP JUMPDEST PUSH1 0x0 DUP1 REVERT JUMPDEST PUSH1 0x0 PUSH20 0xFFFFFFFFFFFFFFFFFFFFFFFFFFFFFFFFFFFFFFFF DUP3 AND SWAP1 POP SWAP2 SWAP1 POP JUMP JUMPDEST PUSH1 0x0 PUSH3 0x234 DUP3 PUSH3 0x207 JUMP JUMPDEST SWAP1 POP SWAP2 SWAP1 POP JUMP JUMPDEST PUSH1 0x0 PUSH3 0x248 DUP3 PUSH3 0x227 JUMP JUMPDEST SWAP1 POP SWAP2 SWAP1 POP JUMP JUMPDEST PUSH3 0x25A DUP2 PUSH3 0x23B JUMP JUMPDEST DUP2 EQ PUSH3 0x266 JUMPI PUSH1 0x0 DUP1 REVERT JUMPDEST POP JUMP JUMPDEST PUSH1 0x0 DUP2 MLOAD SWAP1 POP PUSH3 0x27A DUP2 PUSH3 0x24F JUMP JUMPDEST SWAP3 SWAP2 POP POP JUMP JUMPDEST PUSH3 0x28B DUP2 PUSH3 0x227 JUMP JUMPDEST DUP2 EQ PUSH3 0x297 JUMPI PUSH1 0x0 DUP1 REVERT JUMPDEST POP JUMP JUMPDEST PUSH1 0x0 DUP2 MLOAD SWAP1 POP PUSH3 0x2AB DUP2 PUSH3 0x280 JUMP JUMPDEST SWAP3 SWAP2 POP POP JUMP JUMPDEST PUSH1 0x0 DUP1 PUSH1 0x0 PUSH1 0x60 DUP5 DUP7 SUB SLT ISZERO PUSH3 0x2CD JUMPI PUSH3 0x2CC PUSH3 0x202 JUMP JUMPDEST JUMPDEST PUSH1 0x0 PUSH3 0x2DD DUP7 DUP3 DUP8 ADD PUSH3 0x269 JUMP JUMPDEST SWAP4 POP POP PUSH1 0x20 PUSH3 0x2F0 DUP7 DUP3 DUP8 ADD PUSH3 0x29A JUMP JUMPDEST SWAP3 POP POP PUSH1 0x40 PUSH3 0x303 DUP7 DUP3 DUP8 ADD PUSH3 0x29A JUMP JUMPDEST SWAP2 POP POP SWAP3 POP SWAP3 POP SWAP3 JUMP JUMPDEST PUSH2 0x26FE DUP1 PUSH3 0x31D PUSH1 0x0 CODECOPY PUSH1 0x0 RETURN INVALID PUSH1 0x80 PUSH1 0x40 MSTORE CALLVALUE DUP1 ISZERO PUSH2 0x10 JUMPI PUSH1 0x0 DUP1 REVERT JUMPDEST POP PUSH1 0x4 CALLDATASIZE LT PUSH2 0xEA JUMPI PUSH1 0x0 CALLDATALOAD PUSH1 0xE0 SHR DUP1 PUSH4 0x8DA5CB5B GT PUSH2 0x8C JUMPI DUP1 PUSH4 0xC0D78655 GT PUSH2 0x66 JUMPI DUP1 PUSH4 0xC0D78655 EQ PUSH2 0x261 JUMPI DUP1 PUSH4 0xD979FB5F EQ PUSH2 0x27D JUMPI DUP1 PUSH4 0xDBB79348 EQ PUSH2 0x2AD JUMPI DUP1 PUSH4 0xF2FDE38B EQ PUSH2 0x2DD JUMPI PUSH2 0xEA JUMP JUMPDEST DUP1 PUSH4 0x8DA5CB5B EQ PUSH2 0x1F5 JUMPI DUP1 PUSH4 0x8DD95002 EQ PUSH2 0x213 JUMPI DUP1 PUSH4 0x91C6579E EQ PUSH2 0x231 JUMPI PUSH2 0xEA JUMP JUMPDEST DUP1 PUSH4 0x3268CC56 GT PUSH2 0xC8 JUMPI DUP1 PUSH4 0x3268CC56 EQ PUSH2 0x17F JUMPI DUP1 PUSH4 0x3B979D45 EQ PUSH2 0x19D JUMPI DUP1 PUSH4 0x484F4EA9 EQ PUSH2 0x1CD JUMPI DUP1 PUSH4 0x715018A6 EQ PUSH2 0x1EB JUMPI PUSH2 0xEA JUMP JUMPDEST DUP1 PUSH4 0x19047F8A EQ PUSH2 0xEF JUMPI DUP1 PUSH4 0x215CC989 EQ PUSH2 0x11F JUMPI DUP1 PUSH4 0x2F7C5980 EQ PUSH2 0x14F JUMPI JUMPDEST PUSH1 0x0 DUP1 REVERT JUMPDEST PUSH2 0x109 PUSH1 0x4 DUP1 CALLDATASIZE SUB DUP2 ADD SWAP1 PUSH2 0x104 SWAP2 SWAP1 PUSH2 0x1AF1 JUMP JUMPDEST PUSH2 0x2F9 JUMP JUMPDEST PUSH1 0x40 MLOAD PUSH2 0x116 SWAP2 SWAP1 PUSH2 0x1B37 JUMP JUMPDEST PUSH1 0x40 MLOAD DUP1 SWAP2 SUB SWAP1 RETURN JUMPDEST PUSH2 0x139 PUSH1 0x4 DUP1 CALLDATASIZE SUB DUP2 ADD SWAP1 PUSH2 0x134 SWAP2 SWAP1 PUSH2 0x1B90 JUMP JUMPDEST PUSH2 0x541 JUMP JUMPDEST PUSH1 0x40 MLOAD PUSH2 0x146 SWAP2 SWAP1 PUSH2 0x1B37 JUMP JUMPDEST PUSH1 0x40 MLOAD DUP1 SWAP2 SUB SWAP1 RETURN JUMPDEST PUSH2 0x169 PUSH1 0x4 DUP1 CALLDATASIZE SUB DUP2 ADD SWAP1 PUSH2 0x164 SWAP2 SWAP1 PUSH2 0x1B90 JUMP JUMPDEST PUSH2 0xD3C JUMP JUMPDEST PUSH1 0x40 MLOAD PUSH2 0x176 SWAP2 SWAP1 PUSH2 0x1B37 JUMP JUMPDEST PUSH1 0x40 MLOAD DUP1 SWAP2 SUB SWAP1 RETURN JUMPDEST PUSH2 0x187 PUSH2 0xDBE JUMP JUMPDEST PUSH1 0x40 MLOAD PUSH2 0x194 SWAP2 SWAP1 PUSH2 0x1C1C JUMP JUMPDEST PUSH1 0x40 MLOAD DUP1 SWAP2 SUB SWAP1 RETURN JUMPDEST PUSH2 0x1B7 PUSH1 0x4 DUP1 CALLDATASIZE SUB DUP2 ADD SWAP1 PUSH2 0x1B2 SWAP2 SWAP1 PUSH2 0x1AF1 JUMP JUMPDEST PUSH2 0xDE4 JUMP JUMPDEST PUSH1 0x40 MLOAD PUSH2 0x1C4 SWAP2 SWAP1 PUSH2 0x1B37 JUMP JUMPDEST PUSH1 0x40 MLOAD DUP1 SWAP2 SUB SWAP1 RETURN JUMPDEST PUSH2 0x1D5 PUSH2 0xFBB JUMP JUMPDEST PUSH1 0x40 MLOAD PUSH2 0x1E2 SWAP2 SWAP1 PUSH2 0x1C46 JUMP JUMPDEST PUSH1 0x40 MLOAD DUP1 SWAP2 SUB SWAP1 RETURN JUMPDEST PUSH2 0x1F3 PUSH2 0xFE1 JUMP JUMPDEST STOP JUMPDEST PUSH2 0x1FD PUSH2 0x1069 JUMP JUMPDEST PUSH1 0x40 MLOAD PUSH2 0x20A SWAP2 SWAP1 PUSH2 0x1C46 JUMP JUMPDEST PUSH1 0x40 MLOAD DUP1 SWAP2 SUB SWAP1 RETURN JUMPDEST PUSH2 0x21B PUSH2 0x1092 JUMP JUMPDEST PUSH1 0x40 MLOAD PUSH2 0x228 SWAP2 SWAP1 PUSH2 0x1C46 JUMP JUMPDEST PUSH1 0x40 MLOAD DUP1 SWAP2 SUB SWAP1 RETURN JUMPDEST PUSH2 0x24B PUSH1 0x4 DUP1 CALLDATASIZE SUB DUP2 ADD SWAP1 PUSH2 0x246 SWAP2 SWAP1 PUSH2 0x1C9F JUMP JUMPDEST PUSH2 0x10B8 JUMP JUMPDEST PUSH1 0x40 MLOAD PUSH2 0x258 SWAP2 SWAP1 PUSH2 0x1B37 JUMP JUMPDEST PUSH1 0x40 MLOAD DUP1 SWAP2 SUB SWAP1 RETURN JUMPDEST PUSH2 0x27B PUSH1 0x4 DUP1 CALLDATASIZE SUB DUP2 ADD SWAP1 PUSH2 0x276 SWAP2 SWAP1 PUSH2 0x1D1D JUMP JUMPDEST PUSH2 0x121E JUMP JUMPDEST STOP JUMPDEST PUSH2 0x297 PUSH1 0x4 DUP1 CALLDATASIZE SUB DUP2 ADD SWAP1 PUSH2 0x292 SWAP2 SWAP1 PUSH2 0x1D76 JUMP JUMPDEST PUSH2 0x12DE JUMP JUMPDEST PUSH1 0x40 MLOAD PUSH2 0x2A4 SWAP2 SWAP1 PUSH2 0x1B37 JUMP JUMPDEST PUSH1 0x40 MLOAD DUP1 SWAP2 SUB SWAP1 RETURN JUMPDEST PUSH2 0x2C7 PUSH1 0x4 DUP1 CALLDATASIZE SUB DUP2 ADD SWAP1 PUSH2 0x2C2 SWAP2 SWAP1 PUSH2 0x1D76 JUMP JUMPDEST PUSH2 0x141E JUMP JUMPDEST PUSH1 0x40 MLOAD PUSH2 0x2D4 SWAP2 SWAP1 PUSH2 0x1B37 JUMP JUMPDEST PUSH1 0x40 MLOAD DUP1 SWAP2 SUB SWAP1 RETURN JUMPDEST PUSH2 0x2F7 PUSH1 0x4 DUP1 CALLDATASIZE SUB DUP2 ADD SWAP1 PUSH2 0x2F2 SWAP2 SWAP1 PUSH2 0x1AF1 JUMP JUMPDEST PUSH2 0x16BF JUMP JUMPDEST STOP JUMPDEST PUSH1 0x0 DUP1 PUSH1 0x3 PUSH8 0xFFFFFFFFFFFFFFFF DUP2 GT ISZERO PUSH2 0x317 JUMPI PUSH2 0x316 PUSH2 0x1DDD JUMP JUMPDEST JUMPDEST PUSH1 0x40 MLOAD SWAP1 DUP1 DUP3 MSTORE DUP1 PUSH1 0x20 MUL PUSH1 0x20 ADD DUP3 ADD PUSH1 0x40 MSTORE DUP1 ISZERO PUSH2 0x345 JUMPI DUP2 PUSH1 0x20 ADD PUSH1 0x20 DUP3 MUL DUP1 CALLDATASIZE DUP4 CALLDATACOPY DUP1 DUP3 ADD SWAP2 POP POP SWAP1 POP JUMPDEST POP SWAP1 POP DUP3 DUP2 PUSH1 0x0 DUP2 MLOAD DUP2 LT PUSH2 0x35D JUMPI PUSH2 0x35C PUSH2 0x1E0C JUMP JUMPDEST JUMPDEST PUSH1 0x20 MUL PUSH1 0x20 ADD ADD SWAP1 PUSH20 0xFFFFFFFFFFFFFFFFFFFFFFFFFFFFFFFFFFFFFFFF AND SWAP1 DUP2 PUSH20 0xFFFFFFFFFFFFFFFFFFFFFFFFFFFFFFFFFFFFFFFF AND DUP2 MSTORE POP POP PUSH1 0x1 PUSH1 0x0 SWAP1 SLOAD SWAP1 PUSH2 0x100 EXP SWAP1 DIV PUSH20 0xFFFFFFFFFFFFFFFFFFFFFFFFFFFFFFFFFFFFFFFF AND DUP2 PUSH1 0x1 DUP2 MLOAD DUP2 LT PUSH2 0x3CE JUMPI PUSH2 0x3CD PUSH2 0x1E0C JUMP JUMPDEST JUMPDEST PUSH1 0x20 MUL PUSH1 0x20 ADD ADD SWAP1 PUSH20 0xFFFFFFFFFFFFFFFFFFFFFFFFFFFFFFFFFFFFFFFF AND SWAP1 DUP2 PUSH20 0xFFFFFFFFFFFFFFFFFFFFFFFFFFFFFFFFFFFFFFFF AND DUP2 MSTORE POP POP PUSH1 0x2 PUSH1 0x0 SWAP1 SLOAD SWAP1 PUSH2 0x100 EXP SWAP1 DIV PUSH20 0xFFFFFFFFFFFFFFFFFFFFFFFFFFFFFFFFFFFFFFFF AND DUP2 PUSH1 0x2 DUP2 MLOAD DUP2 LT PUSH2 0x43F JUMPI PUSH2 0x43E PUSH2 0x1E0C JUMP JUMPDEST JUMPDEST PUSH1 0x20 MUL PUSH1 0x20 ADD ADD SWAP1 PUSH20 0xFFFFFFFFFFFFFFFFFFFFFFFFFFFFFFFFFFFFFFFF AND SWAP1 DUP2 PUSH20 0xFFFFFFFFFFFFFFFFFFFFFFFFFFFFFFFFFFFFFFFF AND DUP2 MSTORE POP POP PUSH1 0x4 PUSH1 0x0 SWAP1 SLOAD SWAP1 PUSH2 0x100 EXP SWAP1 DIV PUSH20 0xFFFFFFFFFFFFFFFFFFFFFFFFFFFFFFFFFFFFFFFF AND PUSH20 0xFFFFFFFFFFFFFFFFFFFFFFFFFFFFFFFFFFFFFFFF AND PUSH4 0xD06CA61F PUSH1 0x3 SLOAD DUP4 PUSH1 0x40 MLOAD DUP4 PUSH4 0xFFFFFFFF AND PUSH1 0xE0 SHL DUP2 MSTORE PUSH1 0x4 ADD PUSH2 0x4D8 SWAP3 SWAP2 SWAP1 PUSH2 0x1EF9 JUMP JUMPDEST PUSH1 0x0 PUSH1 0x40 MLOAD DUP1 DUP4 SUB DUP2 DUP7 GAS STATICCALL ISZERO DUP1 ISZERO PUSH2 0x4F5 JUMPI RETURNDATASIZE PUSH1 0x0 DUP1 RETURNDATACOPY RETURNDATASIZE PUSH1 0x0 REVERT JUMPDEST POP POP POP POP PUSH1 0x40 MLOAD RETURNDATASIZE PUSH1 0x0 DUP3 RETURNDATACOPY RETURNDATASIZE PUSH1 0x1F NOT PUSH1 0x1F DUP3 ADD AND DUP3 ADD DUP1 PUSH1 0x40 MSTORE POP DUP2 ADD SWAP1 PUSH2 0x51E SWAP2 SWAP1 PUSH2 0x2068 JUMP JUMPDEST PUSH1 0x2 DUP2 MLOAD DUP2 LT PUSH2 0x531 JUMPI PUSH2 0x530 PUSH2 0x1E0C JUMP JUMPDEST JUMPDEST PUSH1 0x20 MUL PUSH1 0x20 ADD ADD MLOAD SWAP2 POP POP SWAP2 SWAP1 POP JUMP JUMPDEST PUSH1 0x0 DUP1 PUSH1 0x0 DUP4 PUSH20 0xFFFFFFFFFFFFFFFFFFFFFFFFFFFFFFFFFFFFFFFF AND PUSH4 0xDFE1681 PUSH1 0x40 MLOAD DUP2 PUSH4 0xFFFFFFFF AND PUSH1 0xE0 SHL DUP2 MSTORE PUSH1 0x4 ADD PUSH1 0x20 PUSH1 0x40 MLOAD DUP1 DUP4 SUB DUP2 DUP7 GAS STATICCALL ISZERO DUP1 ISZERO PUSH2 0x591 JUMPI RETURNDATASIZE PUSH1 0x0 DUP1 RETURNDATACOPY RETURNDATASIZE PUSH1 0x0 REVERT JUMPDEST POP POP POP POP PUSH1 0x40 MLOAD RETURNDATASIZE PUSH1 0x1F NOT PUSH1 0x1F DUP3 ADD AND DUP3 ADD DUP1 PUSH1 0x40 MSTORE POP DUP2 ADD SWAP1 PUSH2 0x5B5 SWAP2 SWAP1 PUSH2 0x20EF JUMP JUMPDEST PUSH20 0xFFFFFFFFFFFFFFFFFFFFFFFFFFFFFFFFFFFFFFFF AND PUSH1 0x1 PUSH1 0x0 SWAP1 SLOAD SWAP1 PUSH2 0x100 EXP SWAP1 DIV PUSH20 0xFFFFFFFFFFFFFFFFFFFFFFFFFFFFFFFFFFFFFFFF AND PUSH20 0xFFFFFFFFFFFFFFFFFFFFFFFFFFFFFFFFFFFFFFFF AND SUB PUSH2 0x780 JUMPI PUSH2 0x779 PUSH2 0x683 DUP6 PUSH20 0xFFFFFFFFFFFFFFFFFFFFFFFFFFFFFFFFFFFFFFFF AND PUSH4 0xDFE1681 PUSH1 0x40 MLOAD DUP2 PUSH4 0xFFFFFFFF AND PUSH1 0xE0 SHL DUP2 MSTORE PUSH1 0x4 ADD PUSH1 0x20 PUSH1 0x40 MLOAD DUP1 DUP4 SUB DUP2 DUP7 GAS STATICCALL ISZERO DUP1 ISZERO PUSH2 0x65A JUMPI RETURNDATASIZE PUSH1 0x0 DUP1 RETURNDATACOPY RETURNDATASIZE PUSH1 0x0 REVERT JUMPDEST POP POP POP POP PUSH1 0x40 MLOAD RETURNDATASIZE PUSH1 0x1F NOT PUSH1 0x1F DUP3 ADD AND DUP3 ADD DUP1 PUSH1 0x40 MSTORE POP DUP2 ADD SWAP1 PUSH2 0x67E SWAP2 SWAP1 PUSH2 0x20EF JUMP JUMPDEST PUSH2 0xDE4 JUMP JUMPDEST DUP6 PUSH20 0xFFFFFFFFFFFFFFFFFFFFFFFFFFFFFFFFFFFFFFFF AND PUSH4 0xDFE1681 PUSH1 0x40 MLOAD DUP2 PUSH4 0xFFFFFFFF AND PUSH1 0xE0 SHL DUP2 MSTORE PUSH1 0x4 ADD PUSH1 0x20 PUSH1 0x40 MLOAD DUP1 DUP4 SUB DUP2 DUP7 GAS STATICCALL ISZERO DUP1 ISZERO PUSH2 0x6CE JUMPI RETURNDATASIZE PUSH1 0x0 DUP1 RETURNDATACOPY RETURNDATASIZE PUSH1 0x0 REVERT JUMPDEST POP POP POP POP PUSH1 0x40 MLOAD RETURNDATASIZE PUSH1 0x1F NOT PUSH1 0x1F DUP3 ADD AND DUP3 ADD DUP1 PUSH1 0x40 MSTORE POP DUP2 ADD SWAP1 PUSH2 0x6F2 SWAP2 SWAP1 PUSH2 0x20EF JUMP JUMPDEST PUSH20 0xFFFFFFFFFFFFFFFFFFFFFFFFFFFFFFFFFFFFFFFF AND PUSH4 0x70A08231 DUP8 PUSH1 0x40 MLOAD DUP3 PUSH4 0xFFFFFFFF AND PUSH1 0xE0 SHL DUP2 MSTORE PUSH1 0x4 ADD PUSH2 0x72A SWAP2 SWAP1 PUSH2 0x1C46 JUMP JUMPDEST PUSH1 0x20 PUSH1 0x40 MLOAD DUP1 DUP4 SUB DUP2 DUP7 GAS STATICCALL ISZERO DUP1 ISZERO PUSH2 0x747 JUMPI RETURNDATASIZE PUSH1 0x0 DUP1 RETURNDATACOPY RETURNDATASIZE PUSH1 0x0 REVERT JUMPDEST POP POP POP POP PUSH1 0x40 MLOAD RETURNDATASIZE PUSH1 0x1F NOT PUSH1 0x1F DUP3 ADD AND DUP3 ADD DUP1 PUSH1 0x40 MSTORE POP DUP2 ADD SWAP1 PUSH2 0x76B SWAP2 SWAP1 PUSH2 0x211C JUMP JUMPDEST PUSH2 0x17B6 SWAP1 SWAP2 SWAP1 PUSH4 0xFFFFFFFF AND JUMP JUMPDEST SWAP2 POP PUSH2 0x8F3 JUMP JUMPDEST PUSH2 0x8F0 PUSH2 0x7FA DUP6 PUSH20 0xFFFFFFFFFFFFFFFFFFFFFFFFFFFFFFFFFFFFFFFF AND PUSH4 0xDFE1681 PUSH1 0x40 MLOAD DUP2 PUSH4 0xFFFFFFFF AND PUSH1 0xE0 SHL DUP2 MSTORE PUSH1 0x4 ADD PUSH1 0x20 PUSH1 0x40 MLOAD DUP1 DUP4 SUB DUP2 DUP7 GAS STATICCALL ISZERO DUP1 ISZERO PUSH2 0x7D1 JUMPI RETURNDATASIZE PUSH1 0x0 DUP1 RETURNDATACOPY RETURNDATASIZE PUSH1 0x0 REVERT JUMPDEST POP POP POP POP PUSH1 0x40 MLOAD RETURNDATASIZE PUSH1 0x1F NOT PUSH1 0x1F DUP3 ADD AND DUP3 ADD DUP1 PUSH1 0x40 MSTORE POP DUP2 ADD SWAP1 PUSH2 0x7F5 SWAP2 SWAP1 PUSH2 0x20EF JUMP JUMPDEST PUSH2 0x2F9 JUMP JUMPDEST DUP6 PUSH20 0xFFFFFFFFFFFFFFFFFFFFFFFFFFFFFFFFFFFFFFFF AND PUSH4 0xDFE1681 PUSH1 0x40 MLOAD DUP2 PUSH4 0xFFFFFFFF AND PUSH1 0xE0 SHL DUP2 MSTORE PUSH1 0x4 ADD PUSH1 0x20 PUSH1 0x40 MLOAD DUP1 DUP4 SUB DUP2 DUP7 GAS STATICCALL ISZERO DUP1 ISZERO PUSH2 0x845 JUMPI RETURNDATASIZE PUSH1 0x0 DUP1 RETURNDATACOPY RETURNDATASIZE PUSH1 0x0 REVERT JUMPDEST POP POP POP POP PUSH1 0x40 MLOAD RETURNDATASIZE PUSH1 0x1F NOT PUSH1 0x1F DUP3 ADD AND DUP3 ADD DUP1 PUSH1 0x40 MSTORE POP DUP2 ADD SWAP1 PUSH2 0x869 SWAP2 SWAP1 PUSH2 0x20EF JUMP JUMPDEST PUSH20 0xFFFFFFFFFFFFFFFFFFFFFFFFFFFFFFFFFFFFFFFF AND PUSH4 0x70A08231 DUP8 PUSH1 0x40 MLOAD DUP3 PUSH4 0xFFFFFFFF AND PUSH1 0xE0 SHL DUP2 MSTORE PUSH1 0x4 ADD PUSH2 0x8A1 SWAP2 SWAP1 PUSH2 0x1C46 JUMP JUMPDEST PUSH1 0x20 PUSH1 0x40 MLOAD DUP1 DUP4 SUB DUP2 DUP7 GAS STATICCALL ISZERO DUP1 ISZERO PUSH2 0x8BE JUMPI RETURNDATASIZE PUSH1 0x0 DUP1 RETURNDATACOPY RETURNDATASIZE PUSH1 0x0 REVERT JUMPDEST POP POP POP POP PUSH1 0x40 MLOAD RETURNDATASIZE PUSH1 0x1F NOT PUSH1 0x1F DUP3 ADD AND DUP3 ADD DUP1 PUSH1 0x40 MSTORE POP DUP2 ADD SWAP1 PUSH2 0x8E2 SWAP2 SWAP1 PUSH2 0x211C JUMP JUMPDEST PUSH2 0x17B6 SWAP1 SWAP2 SWAP1 PUSH4 0xFFFFFFFF AND JUMP JUMPDEST SWAP2 POP JUMPDEST DUP4 PUSH20 0xFFFFFFFFFFFFFFFFFFFFFFFFFFFFFFFFFFFFFFFF AND PUSH4 0xD21220A7 PUSH1 0x40 MLOAD DUP2 PUSH4 0xFFFFFFFF AND PUSH1 0xE0 SHL DUP2 MSTORE PUSH1 0x4 ADD PUSH1 0x20 PUSH1 0x40 MLOAD DUP1 DUP4 SUB DUP2 DUP7 GAS STATICCALL ISZERO DUP1 ISZERO PUSH2 0x93E JUMPI RETURNDATASIZE PUSH1 0x0 DUP1 RETURNDATACOPY RETURNDATASIZE PUSH1 0x0 REVERT JUMPDEST POP POP POP POP PUSH1 0x40 MLOAD RETURNDATASIZE PUSH1 0x1F NOT PUSH1 0x1F DUP3 ADD AND DUP3 ADD DUP1 PUSH1 0x40 MSTORE POP DUP2 ADD SWAP1 PUSH2 0x962 SWAP2 SWAP1 PUSH2 0x20EF JUMP JUMPDEST PUSH20 0xFFFFFFFFFFFFFFFFFFFFFFFFFFFFFFFFFFFFFFFF AND PUSH1 0x1 PUSH1 0x0 SWAP1 SLOAD SWAP1 PUSH2 0x100 EXP SWAP1 DIV PUSH20 0xFFFFFFFFFFFFFFFFFFFFFFFFFFFFFFFFFFFFFFFF AND PUSH20 0xFFFFFFFFFFFFFFFFFFFFFFFFFFFFFFFFFFFFFFFF AND SUB PUSH2 0xB2D JUMPI PUSH2 0xB26 PUSH2 0xA30 DUP6 PUSH20 0xFFFFFFFFFFFFFFFFFFFFFFFFFFFFFFFFFFFFFFFF AND PUSH4 0xD21220A7 PUSH1 0x40 MLOAD DUP2 PUSH4 0xFFFFFFFF AND PUSH1 0xE0 SHL DUP2 MSTORE PUSH1 0x4 ADD PUSH1 0x20 PUSH1 0x40 MLOAD DUP1 DUP4 SUB DUP2 DUP7 GAS STATICCALL ISZERO DUP1 ISZERO PUSH2 0xA07 JUMPI RETURNDATASIZE PUSH1 0x0 DUP1 RETURNDATACOPY RETURNDATASIZE PUSH1 0x0 REVERT JUMPDEST POP POP POP POP PUSH1 0x40 MLOAD RETURNDATASIZE PUSH1 0x1F NOT PUSH1 0x1F DUP3 ADD AND DUP3 ADD DUP1 PUSH1 0x40 MSTORE POP DUP2 ADD SWAP1 PUSH2 0xA2B SWAP2 SWAP1 PUSH2 0x20EF JUMP JUMPDEST PUSH2 0xDE4 JUMP JUMPDEST DUP6 PUSH20 0xFFFFFFFFFFFFFFFFFFFFFFFFFFFFFFFFFFFFFFFF AND PUSH4 0xD21220A7 PUSH1 0x40 MLOAD DUP2 PUSH4 0xFFFFFFFF AND PUSH1 0xE0 SHL DUP2 MSTORE PUSH1 0x4 ADD PUSH1 0x20 PUSH1 0x40 MLOAD DUP1 DUP4 SUB DUP2 DUP7 GAS STATICCALL ISZERO DUP1 ISZERO PUSH2 0xA7B JUMPI RETURNDATASIZE PUSH1 0x0 DUP1 RETURNDATACOPY RETURNDATASIZE PUSH1 0x0 REVERT JUMPDEST POP POP POP POP PUSH1 0x40 MLOAD RETURNDATASIZE PUSH1 0x1F NOT PUSH1 0x1F DUP3 ADD AND DUP3 ADD DUP1 PUSH1 0x40 MSTORE POP DUP2 ADD SWAP1 PUSH2 0xA9F SWAP2 SWAP1 PUSH2 0x20EF JUMP JUMPDEST PUSH20 0xFFFFFFFFFFFFFFFFFFFFFFFFFFFFFFFFFFFFFFFF AND PUSH4 0x70A08231 DUP8 PUSH1 0x40 MLOAD DUP3 PUSH4 0xFFFFFFFF AND PUSH1 0xE0 SHL DUP2 MSTORE PUSH1 0x4 ADD PUSH2 0xAD7 SWAP2 SWAP1 PUSH2 0x1C46 JUMP JUMPDEST PUSH1 0x20 PUSH1 0x40 MLOAD DUP1 DUP4 SUB DUP2 DUP7 GAS STATICCALL ISZERO DUP1 ISZERO PUSH2 0xAF4 JUMPI RETURNDATASIZE PUSH1 0x0 DUP1 RETURNDATACOPY RETURNDATASIZE PUSH1 0x0 REVERT JUMPDEST POP POP POP POP PUSH1 0x40 MLOAD RETURNDATASIZE PUSH1 0x1F NOT PUSH1 0x1F DUP3 ADD AND DUP3 ADD DUP1 PUSH1 0x40 MSTORE POP DUP2 ADD SWAP1 PUSH2 0xB18 SWAP2 SWAP1 PUSH2 0x211C JUMP JUMPDEST PUSH2 0x17B6 SWAP1 SWAP2 SWAP1 PUSH4 0xFFFFFFFF AND JUMP JUMPDEST SWAP1 POP PUSH2 0xCA0 JUMP JUMPDEST PUSH2 0xC9D PUSH2 0xBA7 DUP6 PUSH20 0xFFFFFFFFFFFFFFFFFFFFFFFFFFFFFFFFFFFFFFFF AND PUSH4 0xD21220A7 PUSH1 0x40 MLOAD DUP2 PUSH4 0xFFFFFFFF AND PUSH1 0xE0 SHL DUP2 MSTORE PUSH1 0x4 ADD PUSH1 0x20 PUSH1 0x40 MLOAD DUP1 DUP4 SUB DUP2 DUP7 GAS STATICCALL ISZERO DUP1 ISZERO PUSH2 0xB7E JUMPI RETURNDATASIZE PUSH1 0x0 DUP1 RETURNDATACOPY RETURNDATASIZE PUSH1 0x0 REVERT JUMPDEST POP POP POP POP PUSH1 0x40 MLOAD RETURNDATASIZE PUSH1 0x1F NOT PUSH1 0x1F DUP3 ADD AND DUP3 ADD DUP1 PUSH1 0x40 MSTORE POP DUP2 ADD SWAP1 PUSH2 0xBA2 SWAP2 SWAP1 PUSH2 0x20EF JUMP JUMPDEST PUSH2 0x2F9 JUMP JUMPDEST DUP6 PUSH20 0xFFFFFFFFFFFFFFFFFFFFFFFFFFFFFFFFFFFFFFFF AND PUSH4 0xD21220A7 PUSH1 0x40 MLOAD DUP2 PUSH4 0xFFFFFFFF AND PUSH1 0xE0 SHL DUP2 MSTORE PUSH1 0x4 ADD PUSH1 0x20 PUSH1 0x40 MLOAD DUP1 DUP4 SUB DUP2 DUP7 GAS STATICCALL ISZERO DUP1 ISZERO PUSH2 0xBF2 JUMPI RETURNDATASIZE PUSH1 0x0 DUP1 RETURNDATACOPY RETURNDATASIZE PUSH1 0x0 REVERT JUMPDEST POP POP POP POP PUSH1 0x40 MLOAD RETURNDATASIZE PUSH1 0x1F NOT PUSH1 0x1F DUP3 ADD AND DUP3 ADD DUP1 PUSH1 0x40 MSTORE POP DUP2 ADD SWAP1 PUSH2 0xC16 SWAP2 SWAP1 PUSH2 0x20EF JUMP JUMPDEST PUSH20 0xFFFFFFFFFFFFFFFFFFFFFFFFFFFFFFFFFFFFFFFF AND PUSH4 0x70A08231 DUP8 PUSH1 0x40 MLOAD DUP3 PUSH4 0xFFFFFFFF AND PUSH1 0xE0 SHL DUP2 MSTORE PUSH1 0x4 ADD PUSH2 0xC4E SWAP2 SWAP1 PUSH2 0x1C46 JUMP JUMPDEST PUSH1 0x20 PUSH1 0x40 MLOAD DUP1 DUP4 SUB DUP2 DUP7 GAS STATICCALL ISZERO DUP1 ISZERO PUSH2 0xC6B JUMPI RETURNDATASIZE PUSH1 0x0 DUP1 RETURNDATACOPY RETURNDATASIZE PUSH1 0x0 REVERT JUMPDEST POP POP POP POP PUSH1 0x40 MLOAD RETURNDATASIZE PUSH1 0x1F NOT PUSH1 0x1F DUP3 ADD AND DUP3 ADD DUP1 PUSH1 0x40 MSTORE POP DUP2 ADD SWAP1 PUSH2 0xC8F SWAP2 SWAP1 PUSH2 0x211C JUMP JUMPDEST PUSH2 0x17B6 SWAP1 SWAP2 SWAP1 PUSH4 0xFFFFFFFF AND JUMP JUMPDEST SWAP1 POP JUMPDEST PUSH2 0xD33 DUP5 PUSH20 0xFFFFFFFFFFFFFFFFFFFFFFFFFFFFFFFFFFFFFFFF AND PUSH4 0x18160DDD PUSH1 0x40 MLOAD DUP2 PUSH4 0xFFFFFFFF AND PUSH1 0xE0 SHL DUP2 MSTORE PUSH1 0x4 ADD PUSH1 0x20 PUSH1 0x40 MLOAD DUP1 DUP4 SUB DUP2 DUP7 GAS STATICCALL ISZERO DUP1 ISZERO PUSH2 0xCEE JUMPI RETURNDATASIZE PUSH1 0x0 DUP1 RETURNDATACOPY RETURNDATASIZE PUSH1 0x0 REVERT JUMPDEST POP POP POP POP PUSH1 0x40 MLOAD RETURNDATASIZE PUSH1 0x1F NOT PUSH1 0x1F DUP3 ADD AND DUP3 ADD DUP1 PUSH1 0x40 MSTORE POP DUP2 ADD SWAP1 PUSH2 0xD12 SWAP2 SWAP1 PUSH2 0x211C JUMP JUMPDEST PUSH2 0xD25 DUP4 DUP6 PUSH2 0x1830 SWAP1 SWAP2 SWAP1 PUSH4 0xFFFFFFFF AND JUMP JUMPDEST PUSH2 0x188E SWAP1 SWAP2 SWAP1 PUSH4 0xFFFFFFFF AND JUMP JUMPDEST SWAP3 POP POP POP SWAP2 SWAP1 POP JUMP JUMPDEST PUSH1 0x0 DUP2 PUSH20 0xFFFFFFFFFFFFFFFFFFFFFFFFFFFFFFFFFFFFFFFF AND PUSH4 0xDFE1681 PUSH1 0x40 MLOAD DUP2 PUSH4 0xFFFFFFFF AND PUSH1 0xE0 SHL DUP2 MSTORE PUSH1 0x4 ADD PUSH1 0x20 PUSH1 0x40 MLOAD DUP1 DUP4 SUB DUP2 DUP7 GAS STATICCALL SWAP3 POP POP POP DUP1 ISZERO PUSH2 0xDA6 JUMPI POP PUSH1 0x40 MLOAD RETURNDATASIZE PUSH1 0x1F NOT PUSH1 0x1F DUP3 ADD AND DUP3 ADD DUP1 PUSH1 0x40 MSTORE POP DUP2 ADD SWAP1 PUSH2 0xDA3 SWAP2 SWAP1 PUSH2 0x20EF JUMP JUMPDEST PUSH1 0x1 JUMPDEST PUSH2 0xDB3 JUMPI PUSH1 0x0 SWAP1 POP PUSH2 0xDB9 JUMP JUMPDEST POP PUSH1 0x1 SWAP1 POP JUMPDEST SWAP2 SWAP1 POP JUMP JUMPDEST PUSH1 0x4 PUSH1 0x0 SWAP1 SLOAD SWAP1 PUSH2 0x100 EXP SWAP1 DIV PUSH20 0xFFFFFFFFFFFFFFFFFFFFFFFFFFFFFFFFFFFFFFFF AND DUP2 JUMP JUMPDEST PUSH1 0x0 DUP1 PUSH1 0x2 PUSH8 0xFFFFFFFFFFFFFFFF DUP2 GT ISZERO PUSH2 0xE02 JUMPI PUSH2 0xE01 PUSH2 0x1DDD JUMP JUMPDEST JUMPDEST PUSH1 0x40 MLOAD SWAP1 DUP1 DUP3 MSTORE DUP1 PUSH1 0x20 MUL PUSH1 0x20 ADD DUP3 ADD PUSH1 0x40 MSTORE DUP1 ISZERO PUSH2 0xE30 JUMPI DUP2 PUSH1 0x20 ADD PUSH1 0x20 DUP3 MUL DUP1 CALLDATASIZE DUP4 CALLDATACOPY DUP1 DUP3 ADD SWAP2 POP POP SWAP1 POP JUMPDEST POP SWAP1 POP DUP3 DUP2 PUSH1 0x0 DUP2 MLOAD DUP2 LT PUSH2 0xE48 JUMPI PUSH2 0xE47 PUSH2 0x1E0C JUMP JUMPDEST JUMPDEST PUSH1 0x20 MUL PUSH1 0x20 ADD ADD SWAP1 PUSH20 0xFFFFFFFFFFFFFFFFFFFFFFFFFFFFFFFFFFFFFFFF AND SWAP1 DUP2 PUSH20 0xFFFFFFFFFFFFFFFFFFFFFFFFFFFFFFFFFFFFFFFF AND DUP2 MSTORE POP POP PUSH1 0x2 PUSH1 0x0 SWAP1 SLOAD SWAP1 PUSH2 0x100 EXP SWAP1 DIV PUSH20 0xFFFFFFFFFFFFFFFFFFFFFFFFFFFFFFFFFFFFFFFF AND DUP2 PUSH1 0x1 DUP2 MLOAD DUP2 LT PUSH2 0xEB9 JUMPI PUSH2 0xEB8 PUSH2 0x1E0C JUMP JUMPDEST JUMPDEST PUSH1 0x20 MUL PUSH1 0x20 ADD ADD SWAP1 PUSH20 0xFFFFFFFFFFFFFFFFFFFFFFFFFFFFFFFFFFFFFFFF AND SWAP1 DUP2 PUSH20 0xFFFFFFFFFFFFFFFFFFFFFFFFFFFFFFFFFFFFFFFF AND DUP2 MSTORE POP POP PUSH1 0x4 PUSH1 0x0 SWAP1 SLOAD SWAP1 PUSH2 0x100 EXP SWAP1 DIV PUSH20 0xFFFFFFFFFFFFFFFFFFFFFFFFFFFFFFFFFFFFFFFF AND PUSH20 0xFFFFFFFFFFFFFFFFFFFFFFFFFFFFFFFFFFFFFFFF AND PUSH4 0xD06CA61F PUSH1 0x3 SLOAD DUP4 PUSH1 0x40 MLOAD DUP4 PUSH4 0xFFFFFFFF AND PUSH1 0xE0 SHL DUP2 MSTORE PUSH1 0x4 ADD PUSH2 0xF52 SWAP3 SWAP2 SWAP1 PUSH2 0x1EF9 JUMP JUMPDEST PUSH1 0x0 PUSH1 0x40 MLOAD DUP1 DUP4 SUB DUP2 DUP7 GAS STATICCALL ISZERO DUP1 ISZERO PUSH2 0xF6F JUMPI RETURNDATASIZE PUSH1 0x0 DUP1 RETURNDATACOPY RETURNDATASIZE PUSH1 0x0 REVERT JUMPDEST POP POP POP POP PUSH1 0x40 MLOAD RETURNDATASIZE PUSH1 0x0 DUP3 RETURNDATACOPY RETURNDATASIZE PUSH1 0x1F NOT PUSH1 0x1F DUP3 ADD AND DUP3 ADD DUP1 PUSH1 0x40 MSTORE POP DUP2 ADD SWAP1 PUSH2 0xF98 SWAP2 SWAP1 PUSH2 0x2068 JUMP JUMPDEST PUSH1 0x1 DUP2 MLOAD DUP2 LT PUSH2 0xFAB JUMPI PUSH2 0xFAA PUSH2 0x1E0C JUMP JUMPDEST JUMPDEST PUSH1 0x20 MUL PUSH1 0x20 ADD ADD MLOAD SWAP2 POP POP SWAP2 SWAP1 POP JUMP JUMPDEST PUSH1 0x2 PUSH1 0x0 SWAP1 SLOAD SWAP1 PUSH2 0x100 EXP SWAP1 DIV PUSH20 0xFFFFFFFFFFFFFFFFFFFFFFFFFFFFFFFFFFFFFFFF AND DUP2 JUMP JUMPDEST PUSH2 0xFE9 PUSH2 0x18D8 JUMP JUMPDEST PUSH20 0xFFFFFFFFFFFFFFFFFFFFFFFFFFFFFFFFFFFFFFFF AND PUSH2 0x1007 PUSH2 0x1069 JUMP JUMPDEST PUSH20 0xFFFFFFFFFFFFFFFFFFFFFFFFFFFFFFFFFFFFFFFF AND EQ PUSH2 0x105D JUMPI PUSH1 0x40 MLOAD PUSH32 0x8C379A000000000000000000000000000000000000000000000000000000000 DUP2 MSTORE PUSH1 0x4 ADD PUSH2 0x1054 SWAP1 PUSH2 0x21A6 JUMP JUMPDEST PUSH1 0x40 MLOAD DUP1 SWAP2 SUB SWAP1 REVERT JUMPDEST PUSH2 0x1067 PUSH1 0x0 PUSH2 0x18E0 JUMP JUMPDEST JUMP JUMPDEST PUSH1 0x0 DUP1 PUSH1 0x0 SWAP1 SLOAD SWAP1 PUSH2 0x100 EXP SWAP1 DIV PUSH20 0xFFFFFFFFFFFFFFFFFFFFFFFFFFFFFFFFFFFFFFFF AND SWAP1 POP SWAP1 JUMP JUMPDEST PUSH1 0x1 PUSH1 0x0 SWAP1 SLOAD SWAP1 PUSH2 0x100 EXP SWAP1 DIV PUSH20 0xFFFFFFFFFFFFFFFFFFFFFFFFFFFFFFFFFFFFFFFF AND DUP2 JUMP JUMPDEST PUSH1 0x0 PUSH2 0x10C2 PUSH2 0x1A07 JUMP JUMPDEST PUSH1 0x0 DUP1 JUMPDEST DUP6 PUSH20 0xFFFFFFFFFFFFFFFFFFFFFFFFFFFFFFFFFFFFFFFF AND PUSH4 0x81E3EDA PUSH1 0x40 MLOAD DUP2 PUSH4 0xFFFFFFFF AND PUSH1 0xE0 SHL DUP2 MSTORE PUSH1 0x4 ADD PUSH1 0x20 PUSH1 0x40 MLOAD DUP1 DUP4 SUB DUP2 DUP7 GAS STATICCALL ISZERO DUP1 ISZERO PUSH2 0x1111 JUMPI RETURNDATASIZE PUSH1 0x0 DUP1 RETURNDATACOPY RETURNDATASIZE PUSH1 0x0 REVERT JUMPDEST POP POP POP POP PUSH1 0x40 MLOAD RETURNDATASIZE PUSH1 0x1F NOT PUSH1 0x1F DUP3 ADD AND DUP3 ADD DUP1 PUSH1 0x40 MSTORE POP DUP2 ADD SWAP1 PUSH2 0x1135 SWAP2 SWAP1 PUSH2 0x211C JUMP JUMPDEST DUP2 LT ISZERO PUSH2 0x1215 JUMPI DUP6 PUSH20 0xFFFFFFFFFFFFFFFFFFFFFFFFFFFFFFFFFFFFFFFF AND PUSH4 0x1526FE27 DUP3 PUSH1 0x40 MLOAD DUP3 PUSH4 0xFFFFFFFF AND PUSH1 0xE0 SHL DUP2 MSTORE PUSH1 0x4 ADD PUSH2 0x1175 SWAP2 SWAP1 PUSH2 0x1B37 JUMP JUMPDEST PUSH1 0xC0 PUSH1 0x40 MLOAD DUP1 DUP4 SUB DUP2 DUP7 GAS STATICCALL ISZERO DUP1 ISZERO PUSH2 0x1192 JUMPI RETURNDATASIZE PUSH1 0x0 DUP1 RETURNDATACOPY RETURNDATASIZE PUSH1 0x0 REVERT JUMPDEST POP POP POP POP PUSH1 0x40 MLOAD RETURNDATASIZE PUSH1 0x1F NOT PUSH1 0x1F DUP3 ADD AND DUP3 ADD DUP1 PUSH1 0x40 MSTORE POP DUP2 ADD SWAP1 PUSH2 0x11B6 SWAP2 SWAP1 PUSH2 0x22A9 JUMP JUMPDEST SWAP3 POP PUSH1 0x1 PUSH2 0x11C3 DUP7 PUSH2 0xD3C JUMP JUMPDEST SUB PUSH2 0x11E7 JUMPI PUSH2 0x11D5 DUP2 DUP7 PUSH1 0x1 DUP10 PUSH2 0x12DE JUMP JUMPDEST DUP3 PUSH2 0x11E0 SWAP2 SWAP1 PUSH2 0x2305 JUMP JUMPDEST SWAP2 POP PUSH2 0x1202 JUMP JUMPDEST PUSH2 0x11F4 DUP2 DUP7 PUSH1 0x0 DUP10 PUSH2 0x12DE JUMP JUMPDEST DUP3 PUSH2 0x11FF SWAP2 SWAP1 PUSH2 0x2305 JUMP JUMPDEST SWAP2 POP JUMPDEST DUP1 DUP1 PUSH2 0x120D SWAP1 PUSH2 0x235B JUMP JUMPDEST SWAP2 POP POP PUSH2 0x10C6 JUMP JUMPDEST POP POP POP SWAP3 SWAP2 POP POP JUMP JUMPDEST PUSH2 0x1226 PUSH2 0x18D8 JUMP JUMPDEST PUSH20 0xFFFFFFFFFFFFFFFFFFFFFFFFFFFFFFFFFFFFFFFF AND PUSH2 0x1244 PUSH2 0x1069 JUMP JUMPDEST PUSH20 0xFFFFFFFFFFFFFFFFFFFFFFFFFFFFFFFFFFFFFFFF AND EQ PUSH2 0x129A JUMPI PUSH1 0x40 MLOAD PUSH32 0x8C379A000000000000000000000000000000000000000000000000000000000 DUP2 MSTORE PUSH1 0x4 ADD PUSH2 0x1291 SWAP1 PUSH2 0x21A6 JUMP JUMPDEST PUSH1 0x40 MLOAD DUP1 SWAP2 SUB SWAP1 REVERT JUMPDEST DUP1 PUSH1 0x4 PUSH1 0x0 PUSH2 0x100 EXP DUP2 SLOAD DUP2 PUSH20 0xFFFFFFFFFFFFFFFFFFFFFFFFFFFFFFFFFFFFFFFF MUL NOT AND SWAP1 DUP4 PUSH20 0xFFFFFFFFFFFFFFFFFFFFFFFFFFFFFFFFFFFFFFFF AND MUL OR SWAP1 SSTORE POP POP JUMP JUMPDEST PUSH1 0x0 DUP1 DUP3 PUSH20 0xFFFFFFFFFFFFFFFFFFFFFFFFFFFFFFFFFFFFFFFF AND PUSH4 0x6A6D964E DUP8 PUSH1 0x40 MLOAD DUP3 PUSH4 0xFFFFFFFF AND PUSH1 0xE0 SHL DUP2 MSTORE PUSH1 0x4 ADD PUSH2 0x131A SWAP2 SWAP1 PUSH2 0x1B37 JUMP JUMPDEST PUSH1 0x20 PUSH1 0x40 MLOAD DUP1 DUP4 SUB DUP2 DUP7 GAS STATICCALL ISZERO DUP1 ISZERO PUSH2 0x1337 JUMPI RETURNDATASIZE PUSH1 0x0 DUP1 RETURNDATACOPY RETURNDATASIZE PUSH1 0x0 REVERT JUMPDEST POP POP POP POP PUSH1 0x40 MLOAD RETURNDATASIZE PUSH1 0x1F NOT PUSH1 0x1F DUP3 ADD AND DUP3 ADD DUP1 PUSH1 0x40 MSTORE POP DUP2 ADD SWAP1 PUSH2 0x135B SWAP2 SWAP1 PUSH2 0x211C JUMP JUMPDEST SWAP1 POP PUSH1 0x0 PUSH1 0x1 DUP6 SUB PUSH2 0x1377 JUMPI PUSH2 0x1370 DUP7 PUSH2 0x541 JUMP JUMPDEST SWAP1 POP PUSH2 0x13F2 JUMP JUMPDEST PUSH1 0x0 DUP6 SUB PUSH2 0x13F1 JUMPI DUP6 PUSH20 0xFFFFFFFFFFFFFFFFFFFFFFFFFFFFFFFFFFFFFFFF AND PUSH1 0x1 PUSH1 0x0 SWAP1 SLOAD SWAP1 PUSH2 0x100 EXP SWAP1 DIV PUSH20 0xFFFFFFFFFFFFFFFFFFFFFFFFFFFFFFFFFFFFFFFF AND PUSH20 0xFFFFFFFFFFFFFFFFFFFFFFFFFFFFFFFFFFFFFFFF AND SUB PUSH2 0x13E4 JUMPI PUSH2 0x13DD DUP7 PUSH2 0xDE4 JUMP JUMPDEST SWAP1 POP PUSH2 0x13F0 JUMP JUMPDEST PUSH2 0x13ED DUP7 PUSH2 0x2F9 JUMP JUMPDEST SWAP1 POP JUMPDEST JUMPDEST JUMPDEST PUSH2 0x1412 PUSH1 0x3 SLOAD DUP3 DUP5 PUSH2 0x1404 SWAP2 SWAP1 PUSH2 0x23A3 JUMP JUMPDEST PUSH2 0x188E SWAP1 SWAP2 SWAP1 PUSH4 0xFFFFFFFF AND JUMP JUMPDEST SWAP3 POP POP POP SWAP5 SWAP4 POP POP POP POP JUMP JUMPDEST PUSH1 0x0 DUP1 DUP3 PUSH20 0xFFFFFFFFFFFFFFFFFFFFFFFFFFFFFFFFFFFFFFFF AND PUSH4 0x1526FE27 DUP8 PUSH1 0x40 MLOAD DUP3 PUSH4 0xFFFFFFFF AND PUSH1 0xE0 SHL DUP2 MSTORE PUSH1 0x4 ADD PUSH2 0x145A SWAP2 SWAP1 PUSH2 0x1B37 JUMP JUMPDEST PUSH1 0xC0 PUSH1 0x40 MLOAD DUP1 DUP4 SUB DUP2 DUP7 GAS STATICCALL ISZERO DUP1 ISZERO PUSH2 0x1477 JUMPI RETURNDATASIZE PUSH1 0x0 DUP1 RETURNDATACOPY RETURNDATASIZE PUSH1 0x0 REVERT JUMPDEST POP POP POP POP PUSH1 0x40 MLOAD RETURNDATASIZE PUSH1 0x1F NOT PUSH1 0x1F DUP3 ADD AND DUP3 ADD DUP1 PUSH1 0x40 MSTORE POP DUP2 ADD SWAP1 PUSH2 0x149B SWAP2 SWAP1 PUSH2 0x22A9 JUMP JUMPDEST SWAP1 POP PUSH1 0x0 PUSH2 0x1538 DUP5 PUSH20 0xFFFFFFFFFFFFFFFFFFFFFFFFFFFFFFFFFFFFFFFF AND PUSH4 0x17CAF6F1 PUSH1 0x40 MLOAD DUP2 PUSH4 0xFFFFFFFF AND PUSH1 0xE0 SHL DUP2 MSTORE PUSH1 0x4 ADD PUSH1 0x20 PUSH1 0x40 MLOAD DUP1 DUP4 SUB DUP2 DUP7 GAS STATICCALL ISZERO DUP1 ISZERO PUSH2 0x14ED JUMPI RETURNDATASIZE PUSH1 0x0 DUP1 RETURNDATACOPY RETURNDATASIZE PUSH1 0x0 REVERT JUMPDEST POP POP POP POP PUSH1 0x40 MLOAD RETURNDATASIZE PUSH1 0x1F NOT PUSH1 0x1F DUP3 ADD AND DUP3 ADD DUP1 PUSH1 0x40 MSTORE POP DUP2 ADD SWAP1 PUSH2 0x1511 SWAP2 SWAP1 PUSH2 0x211C JUMP JUMPDEST PUSH2 0x152A PUSH1 0x3 SLOAD DUP6 PUSH1 0x20 ADD MLOAD PUSH2 0x17B6 SWAP1 SWAP2 SWAP1 PUSH4 0xFFFFFFFF AND JUMP JUMPDEST PUSH2 0x188E SWAP1 SWAP2 SWAP1 PUSH4 0xFFFFFFFF AND JUMP JUMPDEST SWAP1 POP PUSH1 0x0 PUSH2 0x15B3 DUP6 PUSH20 0xFFFFFFFFFFFFFFFFFFFFFFFFFFFFFFFFFFFFFFFF AND PUSH4 0x141AA0BA PUSH1 0x40 MLOAD DUP2 PUSH4 0xFFFFFFFF AND PUSH1 0xE0 SHL DUP2 MSTORE PUSH1 0x4 ADD PUSH1 0x20 PUSH1 0x40 MLOAD DUP1 DUP4 SUB DUP2 DUP7 GAS STATICCALL ISZERO DUP1 ISZERO PUSH2 0x158A JUMPI RETURNDATASIZE PUSH1 0x0 DUP1 RETURNDATACOPY RETURNDATASIZE PUSH1 0x0 REVERT JUMPDEST POP POP POP POP PUSH1 0x40 MLOAD RETURNDATASIZE PUSH1 0x1F NOT PUSH1 0x1F DUP3 ADD AND DUP3 ADD DUP1 PUSH1 0x40 MSTORE POP DUP2 ADD SWAP1 PUSH2 0x15AE SWAP2 SWAP1 PUSH2 0x2412 JUMP JUMPDEST PUSH2 0x2F9 JUMP JUMPDEST SWAP1 POP PUSH1 0x0 PUSH2 0x163A DUP7 PUSH20 0xFFFFFFFFFFFFFFFFFFFFFFFFFFFFFFFFFFFFFFFF AND PUSH4 0xA1EEF821 PUSH1 0x40 MLOAD DUP2 PUSH4 0xFFFFFFFF AND PUSH1 0xE0 SHL DUP2 MSTORE PUSH1 0x4 ADD PUSH1 0x20 PUSH1 0x40 MLOAD DUP1 DUP4 SUB DUP2 DUP7 GAS STATICCALL ISZERO DUP1 ISZERO PUSH2 0x1605 JUMPI RETURNDATASIZE PUSH1 0x0 DUP1 RETURNDATACOPY RETURNDATASIZE PUSH1 0x0 REVERT JUMPDEST POP POP POP POP PUSH1 0x40 MLOAD RETURNDATASIZE PUSH1 0x1F NOT PUSH1 0x1F DUP3 ADD AND DUP3 ADD DUP1 PUSH1 0x40 MSTORE POP DUP2 ADD SWAP1 PUSH2 0x1629 SWAP2 SWAP1 PUSH2 0x211C JUMP JUMPDEST PUSH1 0x5 SLOAD PUSH2 0x17B6 SWAP1 SWAP2 SWAP1 PUSH4 0xFFFFFFFF AND JUMP JUMPDEST SWAP1 POP PUSH1 0x0 PUSH2 0x1665 PUSH1 0x3 SLOAD PUSH2 0x1657 DUP7 DUP6 PUSH2 0x17B6 SWAP1 SWAP2 SWAP1 PUSH4 0xFFFFFFFF AND JUMP JUMPDEST PUSH2 0x188E SWAP1 SWAP2 SWAP1 PUSH4 0xFFFFFFFF AND JUMP JUMPDEST SWAP1 POP PUSH1 0x0 PUSH2 0x1675 DUP12 DUP12 DUP12 DUP12 PUSH2 0x12DE JUMP JUMPDEST SWAP1 POP PUSH2 0x16AF PUSH1 0x64 PUSH2 0x16A1 DUP4 PUSH2 0x1693 DUP9 DUP8 PUSH2 0x17B6 SWAP1 SWAP2 SWAP1 PUSH4 0xFFFFFFFF AND JUMP JUMPDEST PUSH2 0x188E SWAP1 SWAP2 SWAP1 PUSH4 0xFFFFFFFF AND JUMP JUMPDEST PUSH2 0x17B6 SWAP1 SWAP2 SWAP1 PUSH4 0xFFFFFFFF AND JUMP JUMPDEST SWAP7 POP POP POP POP POP POP POP SWAP5 SWAP4 POP POP POP POP JUMP JUMPDEST PUSH2 0x16C7 PUSH2 0x18D8 JUMP JUMPDEST PUSH20 0xFFFFFFFFFFFFFFFFFFFFFFFFFFFFFFFFFFFFFFFF AND PUSH2 0x16E5 PUSH2 0x1069 JUMP JUMPDEST PUSH20 0xFFFFFFFFFFFFFFFFFFFFFFFFFFFFFFFFFFFFFFFF AND EQ PUSH2 0x173B JUMPI PUSH1 0x40 MLOAD PUSH32 0x8C379A000000000000000000000000000000000000000000000000000000000 DUP2 MSTORE PUSH1 0x4 ADD PUSH2 0x1732 SWAP1 PUSH2 0x21A6 JUMP JUMPDEST PUSH1 0x40 MLOAD DUP1 SWAP2 SUB SWAP1 REVERT JUMPDEST PUSH1 0x0 PUSH20 0xFFFFFFFFFFFFFFFFFFFFFFFFFFFFFFFFFFFFFFFF AND DUP2 PUSH20 0xFFFFFFFFFFFFFFFFFFFFFFFFFFFFFFFFFFFFFFFF AND SUB PUSH2 0x17AA JUMPI PUSH1 0x40 MLOAD PUSH32 0x8C379A000000000000000000000000000000000000000000000000000000000 DUP2 MSTORE PUSH1 0x4 ADD PUSH2 0x17A1 SWAP1 PUSH2 0x24B1 JUMP JUMPDEST PUSH1 0x40 MLOAD DUP1 SWAP2 SUB SWAP1 REVERT JUMPDEST PUSH2 0x17B3 DUP2 PUSH2 0x18E0 JUMP JUMPDEST POP JUMP JUMPDEST PUSH1 0x0 DUP1 DUP4 SUB PUSH2 0x17C8 JUMPI PUSH1 0x0 SWAP1 POP PUSH2 0x182A JUMP JUMPDEST PUSH1 0x0 DUP3 DUP5 PUSH2 0x17D6 SWAP2 SWAP1 PUSH2 0x23A3 JUMP JUMPDEST SWAP1 POP DUP3 DUP5 DUP3 PUSH2 0x17E5 SWAP2 SWAP1 PUSH2 0x2500 JUMP JUMPDEST EQ PUSH2 0x1825 JUMPI PUSH1 0x40 MLOAD PUSH32 0x8C379A000000000000000000000000000000000000000000000000000000000 DUP2 MSTORE PUSH1 0x4 ADD PUSH2 0x181C SWAP1 PUSH2 0x25A3 JUMP JUMPDEST PUSH1 0x40 MLOAD DUP1 SWAP2 SUB SWAP1 REVERT JUMPDEST DUP1 SWAP2 POP POP JUMPDEST SWAP3 SWAP2 POP POP JUMP JUMPDEST PUSH1 0x0 DUP1 DUP3 DUP5 PUSH2 0x183F SWAP2 SWAP1 PUSH2 0x2305 JUMP JUMPDEST SWAP1 POP DUP4 DUP2 LT ISZERO PUSH2 0x1884 JUMPI PUSH1 0x40 MLOAD PUSH32 0x8C379A000000000000000000000000000000000000000000000000000000000 DUP2 MSTORE PUSH1 0x4 ADD PUSH2 0x187B SWAP1 PUSH2 0x260F JUMP JUMPDEST PUSH1 0x40 MLOAD DUP1 SWAP2 SUB SWAP1 REVERT JUMPDEST DUP1 SWAP2 POP POP SWAP3 SWAP2 POP POP JUMP JUMPDEST PUSH1 0x0 PUSH2 0x18D0 DUP4 DUP4 PUSH1 0x40 MLOAD DUP1 PUSH1 0x40 ADD PUSH1 0x40 MSTORE DUP1 PUSH1 0x1A DUP2 MSTORE PUSH1 0x20 ADD PUSH32 0x536166654D6174683A206469766973696F6E206279207A65726F000000000000 DUP2 MSTORE POP PUSH2 0x19A4 JUMP JUMPDEST SWAP1 POP SWAP3 SWAP2 POP POP JUMP JUMPDEST PUSH1 0x0 CALLER SWAP1 POP SWAP1 JUMP JUMPDEST PUSH1 0x0 DUP1 PUSH1 0x0 SWAP1 SLOAD SWAP1 PUSH2 0x100 EXP SWAP1 DIV PUSH20 0xFFFFFFFFFFFFFFFFFFFFFFFFFFFFFFFFFFFFFFFF AND SWAP1 POP DUP2 PUSH1 0x0 DUP1 PUSH2 0x100 EXP DUP2 SLOAD DUP2 PUSH20 0xFFFFFFFFFFFFFFFFFFFFFFFFFFFFFFFFFFFFFFFF MUL NOT AND SWAP1 DUP4 PUSH20 0xFFFFFFFFFFFFFFFFFFFFFFFFFFFFFFFFFFFFFFFF AND MUL OR SWAP1 SSTORE POP DUP2 PUSH20 0xFFFFFFFFFFFFFFFFFFFFFFFFFFFFFFFFFFFFFFFF AND DUP2 PUSH20 0xFFFFFFFFFFFFFFFFFFFFFFFFFFFFFFFFFFFFFFFF AND PUSH32 0x8BE0079C531659141344CD1FD0A4F28419497F9722A3DAAFE3B4186F6B6457E0 PUSH1 0x40 MLOAD PUSH1 0x40 MLOAD DUP1 SWAP2 SUB SWAP1 LOG3 POP POP JUMP JUMPDEST PUSH1 0x0 DUP1 DUP4 GT DUP3 SWAP1 PUSH2 0x19EB JUMPI PUSH1 0x40 MLOAD PUSH32 0x8C379A000000000000000000000000000000000000000000000000000000000 DUP2 MSTORE PUSH1 0x4 ADD PUSH2 0x19E2 SWAP2 SWAP1 PUSH2 0x26A6 JUMP JUMPDEST PUSH1 0x40 MLOAD DUP1 SWAP2 SUB SWAP1 REVERT JUMPDEST POP PUSH1 0x0 DUP4 DUP6 PUSH2 0x19FA SWAP2 SWAP1 PUSH2 0x2500 JUMP JUMPDEST SWAP1 POP DUP1 SWAP2 POP POP SWAP4 SWAP3 POP POP POP JUMP JUMPDEST PUSH1 0x40 MLOAD DUP1 PUSH1 0xC0 ADD PUSH1 0x40 MSTORE DUP1 PUSH1 0x0 PUSH20 0xFFFFFFFFFFFFFFFFFFFFFFFFFFFFFFFFFFFFFFFF AND DUP2 MSTORE PUSH1 0x20 ADD PUSH1 0x0 DUP2 MSTORE PUSH1 0x20 ADD PUSH1 0x0 DUP2 MSTORE PUSH1 0x20 ADD PUSH1 0x0 DUP2 MSTORE PUSH1 0x20 ADD PUSH1 0x0 PUSH20 0xFFFFFFFFFFFFFFFFFFFFFFFFFFFFFFFFFFFFFFFF AND DUP2 MSTORE PUSH1 0x20 ADD PUSH1 0x0 PUSH20 0xFFFFFFFFFFFFFFFFFFFFFFFFFFFFFFFFFFFFFFFF AND DUP2 MSTORE POP SWAP1 JUMP JUMPDEST PUSH1 0x0 PUSH1 0x40 MLOAD SWAP1 POP SWAP1 JUMP JUMPDEST PUSH1 0x0 DUP1 REVERT JUMPDEST PUSH1 0x0 DUP1 REVERT JUMPDEST PUSH1 0x0 PUSH20 0xFFFFFFFFFFFFFFFFFFFFFFFFFFFFFFFFFFFFFFFF DUP3 AND SWAP1 POP SWAP2 SWAP1 POP JUMP JUMPDEST PUSH1 0x0 PUSH2 0x1ABE DUP3 PUSH2 0x1A93 JUMP JUMPDEST SWAP1 POP SWAP2 SWAP1 POP JUMP JUMPDEST PUSH2 0x1ACE DUP2 PUSH2 0x1AB3 JUMP JUMPDEST DUP2 EQ PUSH2 0x1AD9 JUMPI PUSH1 0x0 DUP1 REVERT JUMPDEST POP JUMP JUMPDEST PUSH1 0x0 DUP2 CALLDATALOAD SWAP1 POP PUSH2 0x1AEB DUP2 PUSH2 0x1AC5 JUMP JUMPDEST SWAP3 SWAP2 POP POP JUMP JUMPDEST PUSH1 0x0 PUSH1 0x20 DUP3 DUP5 SUB SLT ISZERO PUSH2 0x1B07 JUMPI PUSH2 0x1B06 PUSH2 0x1A89 JUMP JUMPDEST JUMPDEST PUSH1 0x0 PUSH2 0x1B15 DUP5 DUP3 DUP6 ADD PUSH2 0x1ADC JUMP JUMPDEST SWAP2 POP POP SWAP3 SWAP2 POP POP JUMP JUMPDEST PUSH1 0x0 DUP2 SWAP1 POP SWAP2 SWAP1 POP JUMP JUMPDEST PUSH2 0x1B31 DUP2 PUSH2 0x1B1E JUMP JUMPDEST DUP3 MSTORE POP POP JUMP JUMPDEST PUSH1 0x0 PUSH1 0x20 DUP3 ADD SWAP1 POP PUSH2 0x1B4C PUSH1 0x0 DUP4 ADD DUP5 PUSH2 0x1B28 JUMP JUMPDEST SWAP3 SWAP2 POP POP JUMP JUMPDEST PUSH1 0x0 PUSH2 0x1B5D DUP3 PUSH2 0x1AB3 JUMP JUMPDEST SWAP1 POP SWAP2 SWAP1 POP JUMP JUMPDEST PUSH2 0x1B6D DUP2 PUSH2 0x1B52 JUMP JUMPDEST DUP2 EQ PUSH2 0x1B78 JUMPI PUSH1 0x0 DUP1 REVERT JUMPDEST POP JUMP JUMPDEST PUSH1 0x0 DUP2 CALLDATALOAD SWAP1 POP PUSH2 0x1B8A DUP2 PUSH2 0x1B64 JUMP JUMPDEST SWAP3 SWAP2 POP POP JUMP JUMPDEST PUSH1 0x0 PUSH1 0x20 DUP3 DUP5 SUB SLT ISZERO PUSH2 0x1BA6 JUMPI PUSH2 0x1BA5 PUSH2 0x1A89 JUMP JUMPDEST JUMPDEST PUSH1 0x0 PUSH2 0x1BB4 DUP5 DUP3 DUP6 ADD PUSH2 0x1B7B JUMP JUMPDEST SWAP2 POP POP SWAP3 SWAP2 POP POP JUMP JUMPDEST PUSH1 0x0 DUP2 SWAP1 POP SWAP2 SWAP1 POP JUMP JUMPDEST PUSH1 0x0 PUSH2 0x1BE2 PUSH2 0x1BDD PUSH2 0x1BD8 DUP5 PUSH2 0x1A93 JUMP JUMPDEST PUSH2 0x1BBD JUMP JUMPDEST PUSH2 0x1A93 JUMP JUMPDEST SWAP1 POP SWAP2 SWAP1 POP JUMP JUMPDEST PUSH1 0x0 PUSH2 0x1BF4 DUP3 PUSH2 0x1BC7 JUMP JUMPDEST SWAP1 POP SWAP2 SWAP1 POP JUMP JUMPDEST PUSH1 0x0 PUSH2 0x1C06 DUP3 PUSH2 0x1BE9 JUMP JUMPDEST SWAP1 POP SWAP2 SWAP1 POP JUMP JUMPDEST PUSH2 0x1C16 DUP2 PUSH2 0x1BFB JUMP JUMPDEST DUP3 MSTORE POP POP JUMP JUMPDEST PUSH1 0x0 PUSH1 0x20 DUP3 ADD SWAP1 POP PUSH2 0x1C31 PUSH1 0x0 DUP4 ADD DUP5 PUSH2 0x1C0D JUMP JUMPDEST SWAP3 SWAP2 POP POP JUMP JUMPDEST PUSH2 0x1C40 DUP2 PUSH2 0x1AB3 JUMP JUMPDEST DUP3 MSTORE POP POP JUMP JUMPDEST PUSH1 0x0 PUSH1 0x20 DUP3 ADD SWAP1 POP PUSH2 0x1C5B PUSH1 0x0 DUP4 ADD DUP5 PUSH2 0x1C37 JUMP JUMPDEST SWAP3 SWAP2 POP POP JUMP JUMPDEST PUSH1 0x0 PUSH2 0x1C6C DUP3 PUSH2 0x1AB3 JUMP JUMPDEST SWAP1 POP SWAP2 SWAP1 POP JUMP JUMPDEST PUSH2 0x1C7C DUP2 PUSH2 0x1C61 JUMP JUMPDEST DUP2 EQ PUSH2 0x1C87 JUMPI PUSH1 0x0 DUP1 REVERT JUMPDEST POP JUMP JUMPDEST PUSH1 0x0 DUP2 CALLDATALOAD SWAP1 POP PUSH2 0x1C99 DUP2 PUSH2 0x1C73 JUMP JUMPDEST SWAP3 SWAP2 POP POP JUMP JUMPDEST PUSH1 0x0 DUP1 PUSH1 0x40 DUP4 DUP6 SUB SLT ISZERO PUSH2 0x1CB6 JUMPI PUSH2 0x1CB5 PUSH2 0x1A89 JUMP JUMPDEST JUMPDEST PUSH1 0x0 PUSH2 0x1CC4 DUP6 DUP3 DUP7 ADD PUSH2 0x1C8A JUMP JUMPDEST SWAP3 POP POP PUSH1 0x20 PUSH2 0x1CD5 DUP6 DUP3 DUP7 ADD PUSH2 0x1B7B JUMP JUMPDEST SWAP2 POP POP SWAP3 POP SWAP3 SWAP1 POP JUMP JUMPDEST PUSH1 0x0 PUSH2 0x1CEA DUP3 PUSH2 0x1AB3 JUMP JUMPDEST SWAP1 POP SWAP2 SWAP1 POP JUMP JUMPDEST PUSH2 0x1CFA DUP2 PUSH2 0x1CDF JUMP JUMPDEST DUP2 EQ PUSH2 0x1D05 JUMPI PUSH1 0x0 DUP1 REVERT JUMPDEST POP JUMP JUMPDEST PUSH1 0x0 DUP2 CALLDATALOAD SWAP1 POP PUSH2 0x1D17 DUP2 PUSH2 0x1CF1 JUMP JUMPDEST SWAP3 SWAP2 POP POP JUMP JUMPDEST PUSH1 0x0 PUSH1 0x20 DUP3 DUP5 SUB SLT ISZERO PUSH2 0x1D33 JUMPI PUSH2 0x1D32 PUSH2 0x1A89 JUMP JUMPDEST JUMPDEST PUSH1 0x0 PUSH2 0x1D41 DUP5 DUP3 DUP6 ADD PUSH2 0x1D08 JUMP JUMPDEST SWAP2 POP POP SWAP3 SWAP2 POP POP JUMP JUMPDEST PUSH2 0x1D53 DUP2 PUSH2 0x1B1E JUMP JUMPDEST DUP2 EQ PUSH2 0x1D5E JUMPI PUSH1 0x0 DUP1 REVERT JUMPDEST POP JUMP JUMPDEST PUSH1 0x0 DUP2 CALLDATALOAD SWAP1 POP PUSH2 0x1D70 DUP2 PUSH2 0x1D4A JUMP JUMPDEST SWAP3 SWAP2 POP POP JUMP JUMPDEST PUSH1 0x0 DUP1 PUSH1 0x0 DUP1 PUSH1 0x80 DUP6 DUP8 SUB SLT ISZERO PUSH2 0x1D90 JUMPI PUSH2 0x1D8F PUSH2 0x1A89 JUMP JUMPDEST JUMPDEST PUSH1 0x0 PUSH2 0x1D9E DUP8 DUP3 DUP9 ADD PUSH2 0x1D61 JUMP JUMPDEST SWAP5 POP POP PUSH1 0x20 PUSH2 0x1DAF DUP8 DUP3 DUP9 ADD PUSH2 0x1B7B JUMP JUMPDEST SWAP4 POP POP PUSH1 0x40 PUSH2 0x1DC0 DUP8 DUP3 DUP9 ADD PUSH2 0x1D61 JUMP JUMPDEST SWAP3 POP POP PUSH1 0x60 PUSH2 0x1DD1 DUP8 DUP3 DUP9 ADD PUSH2 0x1C8A JUMP JUMPDEST SWAP2 POP POP SWAP3 SWAP6 SWAP2 SWAP5 POP SWAP3 POP JUMP JUMPDEST PUSH32 0x4E487B7100000000000000000000000000000000000000000000000000000000 PUSH1 0x0 MSTORE PUSH1 0x41 PUSH1 0x4 MSTORE PUSH1 0x24 PUSH1 0x0 REVERT JUMPDEST PUSH32 0x4E487B7100000000000000000000000000000000000000000000000000000000 PUSH1 0x0 MSTORE PUSH1 0x32 PUSH1 0x4 MSTORE PUSH1 0x24 PUSH1 0x0 REVERT JUMPDEST PUSH1 0x0 DUP2 MLOAD SWAP1 POP SWAP2 SWAP1 POP JUMP JUMPDEST PUSH1 0x0 DUP3 DUP3 MSTORE PUSH1 0x20 DUP3 ADD SWAP1 POP SWAP3 SWAP2 POP POP JUMP JUMPDEST PUSH1 0x0 DUP2 SWAP1 POP PUSH1 0x20 DUP3 ADD SWAP1 POP SWAP2 SWAP1 POP JUMP JUMPDEST PUSH2 0x1E70 DUP2 PUSH2 0x1AB3 JUMP JUMPDEST DUP3 MSTORE POP POP JUMP JUMPDEST PUSH1 0x0 PUSH2 0x1E82 DUP4 DUP4 PUSH2 0x1E67 JUMP JUMPDEST PUSH1 0x20 DUP4 ADD SWAP1 POP SWAP3 SWAP2 POP POP JUMP JUMPDEST PUSH1 0x0 PUSH1 0x20 DUP3 ADD SWAP1 POP SWAP2 SWAP1 POP JUMP JUMPDEST PUSH1 0x0 PUSH2 0x1EA6 DUP3 PUSH2 0x1E3B JUMP JUMPDEST PUSH2 0x1EB0 DUP2 DUP6 PUSH2 0x1E46 JUMP JUMPDEST SWAP4 POP PUSH2 0x1EBB DUP4 PUSH2 0x1E57 JUMP JUMPDEST DUP1 PUSH1 0x0 JUMPDEST DUP4 DUP2 LT ISZERO PUSH2 0x1EEC JUMPI DUP2 MLOAD PUSH2 0x1ED3 DUP9 DUP3 PUSH2 0x1E76 JUMP JUMPDEST SWAP8 POP PUSH2 0x1EDE DUP4 PUSH2 0x1E8E JUMP JUMPDEST SWAP3 POP POP PUSH1 0x1 DUP2 ADD SWAP1 POP PUSH2 0x1EBF JUMP JUMPDEST POP DUP6 SWAP4 POP POP POP POP SWAP3 SWAP2 POP POP JUMP JUMPDEST PUSH1 0x0 PUSH1 0x40 DUP3 ADD SWAP1 POP PUSH2 0x1F0E PUSH1 0x0 DUP4 ADD DUP6 PUSH2 0x1B28 JUMP JUMPDEST DUP2 DUP2 SUB PUSH1 0x20 DUP4 ADD MSTORE PUSH2 0x1F20 DUP2 DUP5 PUSH2 0x1E9B JUMP JUMPDEST SWAP1 POP SWAP4 SWAP3 POP POP POP JUMP JUMPDEST PUSH1 0x0 DUP1 REVERT JUMPDEST PUSH1 0x0 PUSH1 0x1F NOT PUSH1 0x1F DUP4 ADD AND SWAP1 POP SWAP2 SWAP1 POP JUMP JUMPDEST PUSH2 0x1F48 DUP3 PUSH2 0x1F2E JUMP JUMPDEST DUP2 ADD DUP2 DUP2 LT PUSH8 0xFFFFFFFFFFFFFFFF DUP3 GT OR ISZERO PUSH2 0x1F67 JUMPI PUSH2 0x1F66 PUSH2 0x1DDD JUMP JUMPDEST JUMPDEST DUP1 PUSH1 0x40 MSTORE POP POP POP JUMP JUMPDEST PUSH1 0x0 PUSH2 0x1F7A PUSH2 0x1A7F JUMP JUMPDEST SWAP1 POP PUSH2 0x1F86 DUP3 DUP3 PUSH2 0x1F3F JUMP JUMPDEST SWAP2 SWAP1 POP JUMP JUMPDEST PUSH1 0x0 PUSH8 0xFFFFFFFFFFFFFFFF DUP3 GT ISZERO PUSH2 0x1FA6 JUMPI PUSH2 0x1FA5 PUSH2 0x1DDD JUMP JUMPDEST JUMPDEST PUSH1 0x20 DUP3 MUL SWAP1 POP PUSH1 0x20 DUP2 ADD SWAP1 POP SWAP2 SWAP1 POP JUMP JUMPDEST PUSH1 0x0 DUP1 REVERT JUMPDEST PUSH1 0x0 DUP2 MLOAD SWAP1 POP PUSH2 0x1FCB DUP2 PUSH2 0x1D4A JUMP JUMPDEST SWAP3 SWAP2 POP POP JUMP JUMPDEST PUSH1 0x0 PUSH2 0x1FE4 PUSH2 0x1FDF DUP5 PUSH2 0x1F8B JUMP JUMPDEST PUSH2 0x1F70 JUMP JUMPDEST SWAP1 POP DUP1 DUP4 DUP3 MSTORE PUSH1 0x20 DUP3 ADD SWAP1 POP PUSH1 0x20 DUP5 MUL DUP4 ADD DUP6 DUP2 GT ISZERO PUSH2 0x2007 JUMPI PUSH2 0x2006 PUSH2 0x1FB7 JUMP JUMPDEST JUMPDEST DUP4 JUMPDEST DUP2 DUP2 LT ISZERO PUSH2 0x2030 JUMPI DUP1 PUSH2 0x201C DUP9 DUP3 PUSH2 0x1FBC JUMP JUMPDEST DUP5 MSTORE PUSH1 0x20 DUP5 ADD SWAP4 POP POP PUSH1 0x20 DUP2 ADD SWAP1 POP PUSH2 0x2009 JUMP JUMPDEST POP POP POP SWAP4 SWAP3 POP POP POP JUMP JUMPDEST PUSH1 0x0 DUP3 PUSH1 0x1F DUP4 ADD SLT PUSH2 0x204F JUMPI PUSH2 0x204E PUSH2 0x1F29 JUMP JUMPDEST JUMPDEST DUP2 MLOAD PUSH2 0x205F DUP5 DUP3 PUSH1 0x20 DUP7 ADD PUSH2 0x1FD1 JUMP JUMPDEST SWAP2 POP POP SWAP3 SWAP2 POP POP JUMP JUMPDEST PUSH1 0x0 PUSH1 0x20 DUP3 DUP5 SUB SLT ISZERO PUSH2 0x207E JUMPI PUSH2 0x207D PUSH2 0x1A89 JUMP JUMPDEST JUMPDEST PUSH1 0x0 DUP3 ADD MLOAD PUSH8 0xFFFFFFFFFFFFFFFF DUP2 GT ISZERO PUSH2 0x209C JUMPI PUSH2 0x209B PUSH2 0x1A8E JUMP JUMPDEST JUMPDEST PUSH2 0x20A8 DUP5 DUP3 DUP6 ADD PUSH2 0x203A JUMP JUMPDEST SWAP2 POP POP SWAP3 SWAP2 POP POP JUMP JUMPDEST PUSH1 0x0 PUSH2 0x20BC DUP3 PUSH2 0x1AB3 JUMP JUMPDEST SWAP1 POP SWAP2 SWAP1 POP JUMP JUMPDEST PUSH2 0x20CC DUP2 PUSH2 0x20B1 JUMP JUMPDEST DUP2 EQ PUSH2 0x20D7 JUMPI PUSH1 0x0 DUP1 REVERT JUMPDEST POP JUMP JUMPDEST PUSH1 0x0 DUP2 MLOAD SWAP1 POP PUSH2 0x20E9 DUP2 PUSH2 0x20C3 JUMP JUMPDEST SWAP3 SWAP2 POP POP JUMP JUMPDEST PUSH1 0x0 PUSH1 0x20 DUP3 DUP5 SUB SLT ISZERO PUSH2 0x2105 JUMPI PUSH2 0x2104 PUSH2 0x1A89 JUMP JUMPDEST JUMPDEST PUSH1 0x0 PUSH2 0x2113 DUP5 DUP3 DUP6 ADD PUSH2 0x20DA JUMP JUMPDEST SWAP2 POP POP SWAP3 SWAP2 POP POP JUMP JUMPDEST PUSH1 0x0 PUSH1 0x20 DUP3 DUP5 SUB SLT ISZERO PUSH2 0x2132 JUMPI PUSH2 0x2131 PUSH2 0x1A89 JUMP JUMPDEST JUMPDEST PUSH1 0x0 PUSH2 0x2140 DUP5 DUP3 DUP6 ADD PUSH2 0x1FBC JUMP JUMPDEST SWAP2 POP POP SWAP3 SWAP2 POP POP JUMP JUMPDEST PUSH1 0x0 DUP3 DUP3 MSTORE PUSH1 0x20 DUP3 ADD SWAP1 POP SWAP3 SWAP2 POP POP JUMP JUMPDEST PUSH32 0x4F776E61626C653A2063616C6C6572206973206E6F7420746865206F776E6572 PUSH1 0x0 DUP3 ADD MSTORE POP JUMP JUMPDEST PUSH1 0x0 PUSH2 0x2190 PUSH1 0x20 DUP4 PUSH2 0x2149 JUMP JUMPDEST SWAP2 POP PUSH2 0x219B DUP3 PUSH2 0x215A JUMP JUMPDEST PUSH1 0x20 DUP3 ADD SWAP1 POP SWAP2 SWAP1 POP JUMP JUMPDEST PUSH1 0x0 PUSH1 0x20 DUP3 ADD SWAP1 POP DUP2 DUP2 SUB PUSH1 0x0 DUP4 ADD MSTORE PUSH2 0x21BF DUP2 PUSH2 0x2183 JUMP JUMPDEST SWAP1 POP SWAP2 SWAP1 POP JUMP JUMPDEST PUSH1 0x0 DUP1 REVERT JUMPDEST PUSH1 0x0 PUSH2 0x21D6 DUP3 PUSH2 0x1AB3 JUMP JUMPDEST SWAP1 POP SWAP2 SWAP1 POP JUMP JUMPDEST PUSH2 0x21E6 DUP2 PUSH2 0x21CB JUMP JUMPDEST DUP2 EQ PUSH2 0x21F1 JUMPI PUSH1 0x0 DUP1 REVERT JUMPDEST POP JUMP JUMPDEST PUSH1 0x0 DUP2 MLOAD SWAP1 POP PUSH2 0x2203 DUP2 PUSH2 0x21DD JUMP JUMPDEST SWAP3 SWAP2 POP POP JUMP JUMPDEST PUSH1 0x0 PUSH1 0xC0 DUP3 DUP5 SUB SLT ISZERO PUSH2 0x221F JUMPI PUSH2 0x221E PUSH2 0x21C6 JUMP JUMPDEST JUMPDEST PUSH2 0x2229 PUSH1 0xC0 PUSH2 0x1F70 JUMP JUMPDEST SWAP1 POP PUSH1 0x0 PUSH2 0x2239 DUP5 DUP3 DUP6 ADD PUSH2 0x20DA JUMP JUMPDEST PUSH1 0x0 DUP4 ADD MSTORE POP PUSH1 0x20 PUSH2 0x224D DUP5 DUP3 DUP6 ADD PUSH2 0x1FBC JUMP JUMPDEST PUSH1 0x20 DUP4 ADD MSTORE POP PUSH1 0x40 PUSH2 0x2261 DUP5 DUP3 DUP6 ADD PUSH2 0x1FBC JUMP JUMPDEST PUSH1 0x40 DUP4 ADD MSTORE POP PUSH1 0x60 PUSH2 0x2275 DUP5 DUP3 DUP6 ADD PUSH2 0x1FBC JUMP JUMPDEST PUSH1 0x60 DUP4 ADD MSTORE POP PUSH1 0x80 PUSH2 0x2289 DUP5 DUP3 DUP6 ADD PUSH2 0x21F4 JUMP JUMPDEST PUSH1 0x80 DUP4 ADD MSTORE POP PUSH1 0xA0 PUSH2 0x229D DUP5 DUP3 DUP6 ADD PUSH2 0x20DA JUMP JUMPDEST PUSH1 0xA0 DUP4 ADD MSTORE POP SWAP3 SWAP2 POP POP JUMP JUMPDEST PUSH1 0x0 PUSH1 0xC0 DUP3 DUP5 SUB SLT ISZERO PUSH2 0x22BF JUMPI PUSH2 0x22BE PUSH2 0x1A89 JUMP JUMPDEST JUMPDEST PUSH1 0x0 PUSH2 0x22CD DUP5 DUP3 DUP6 ADD PUSH2 0x2209 JUMP JUMPDEST SWAP2 POP POP SWAP3 SWAP2 POP POP JUMP JUMPDEST PUSH32 0x4E487B7100000000000000000000000000000000000000000000000000000000 PUSH1 0x0 MSTORE PUSH1 0x11 PUSH1 0x4 MSTORE PUSH1 0x24 PUSH1 0x0 REVERT JUMPDEST PUSH1 0x0 PUSH2 0x2310 DUP3 PUSH2 0x1B1E JUMP JUMPDEST SWAP2 POP PUSH2 0x231B DUP4 PUSH2 0x1B1E JUMP JUMPDEST SWAP3 POP DUP3 PUSH32 0xFFFFFFFFFFFFFFFFFFFFFFFFFFFFFFFFFFFFFFFFFFFFFFFFFFFFFFFFFFFFFFFF SUB DUP3 GT ISZERO PUSH2 0x2350 JUMPI PUSH2 0x234F PUSH2 0x22D6 JUMP JUMPDEST JUMPDEST DUP3 DUP3 ADD SWAP1 POP SWAP3 SWAP2 POP POP JUMP JUMPDEST PUSH1 0x0 PUSH2 0x2366 DUP3 PUSH2 0x1B1E JUMP JUMPDEST SWAP2 POP PUSH32 0xFFFFFFFFFFFFFFFFFFFFFFFFFFFFFFFFFFFFFFFFFFFFFFFFFFFFFFFFFFFFFFFF DUP3 SUB PUSH2 0x2398 JUMPI PUSH2 0x2397 PUSH2 0x22D6 JUMP JUMPDEST JUMPDEST PUSH1 0x1 DUP3 ADD SWAP1 POP SWAP2 SWAP1 POP JUMP JUMPDEST PUSH1 0x0 PUSH2 0x23AE DUP3 PUSH2 0x1B1E JUMP JUMPDEST SWAP2 POP PUSH2 0x23B9 DUP4 PUSH2 0x1B1E JUMP JUMPDEST SWAP3 POP DUP2 PUSH32 0xFFFFFFFFFFFFFFFFFFFFFFFFFFFFFFFFFFFFFFFFFFFFFFFFFFFFFFFFFFFFFFFF DIV DUP4 GT DUP3 ISZERO ISZERO AND ISZERO PUSH2 0x23F2 JUMPI PUSH2 0x23F1 PUSH2 0x22D6 JUMP JUMPDEST JUMPDEST DUP3 DUP3 MUL SWAP1 POP SWAP3 SWAP2 POP POP JUMP JUMPDEST PUSH1 0x0 DUP2 MLOAD SWAP1 POP PUSH2 0x240C DUP2 PUSH2 0x1AC5 JUMP JUMPDEST SWAP3 SWAP2 POP POP JUMP JUMPDEST PUSH1 0x0 PUSH1 0x20 DUP3 DUP5 SUB SLT ISZERO PUSH2 0x2428 JUMPI PUSH2 0x2427 PUSH2 0x1A89 JUMP JUMPDEST JUMPDEST PUSH1 0x0 PUSH2 0x2436 DUP5 DUP3 DUP6 ADD PUSH2 0x23FD JUMP JUMPDEST SWAP2 POP POP SWAP3 SWAP2 POP POP JUMP JUMPDEST PUSH32 0x4F776E61626C653A206E6577206F776E657220697320746865207A65726F2061 PUSH1 0x0 DUP3 ADD MSTORE PUSH32 0x6464726573730000000000000000000000000000000000000000000000000000 PUSH1 0x20 DUP3 ADD MSTORE POP JUMP JUMPDEST PUSH1 0x0 PUSH2 0x249B PUSH1 0x26 DUP4 PUSH2 0x2149 JUMP JUMPDEST SWAP2 POP PUSH2 0x24A6 DUP3 PUSH2 0x243F JUMP JUMPDEST PUSH1 0x40 DUP3 ADD SWAP1 POP SWAP2 SWAP1 POP JUMP JUMPDEST PUSH1 0x0 PUSH1 0x20 DUP3 ADD SWAP1 POP DUP2 DUP2 SUB PUSH1 0x0 DUP4 ADD MSTORE PUSH2 0x24CA DUP2 PUSH2 0x248E JUMP JUMPDEST SWAP1 POP SWAP2 SWAP1 POP JUMP JUMPDEST PUSH32 0x4E487B7100000000000000000000000000000000000000000000000000000000 PUSH1 0x0 MSTORE PUSH1 0x12 PUSH1 0x4 MSTORE PUSH1 0x24 PUSH1 0x0 REVERT JUMPDEST PUSH1 0x0 PUSH2 0x250B DUP3 PUSH2 0x1B1E JUMP JUMPDEST SWAP2 POP PUSH2 0x2516 DUP4 PUSH2 0x1B1E JUMP JUMPDEST SWAP3 POP DUP3 PUSH2 0x2526 JUMPI PUSH2 0x2525 PUSH2 0x24D1 JUMP JUMPDEST JUMPDEST DUP3 DUP3 DIV SWAP1 POP SWAP3 SWAP2 POP POP JUMP JUMPDEST PUSH32 0x536166654D6174683A206D756C7469706C69636174696F6E206F766572666C6F PUSH1 0x0 DUP3 ADD MSTORE PUSH32 0x7700000000000000000000000000000000000000000000000000000000000000 PUSH1 0x20 DUP3 ADD MSTORE POP JUMP JUMPDEST PUSH1 0x0 PUSH2 0x258D PUSH1 0x21 DUP4 PUSH2 0x2149 JUMP JUMPDEST SWAP2 POP PUSH2 0x2598 DUP3 PUSH2 0x2531 JUMP JUMPDEST PUSH1 0x40 DUP3 ADD SWAP1 POP SWAP2 SWAP1 POP JUMP JUMPDEST PUSH1 0x0 PUSH1 0x20 DUP3 ADD SWAP1 POP DUP2 DUP2 SUB PUSH1 0x0 DUP4 ADD MSTORE PUSH2 0x25BC DUP2 PUSH2 0x2580 JUMP JUMPDEST SWAP1 POP SWAP2 SWAP1 POP JUMP JUMPDEST PUSH32 0x536166654D6174683A206164646974696F6E206F766572666C6F770000000000 PUSH1 0x0 DUP3 ADD MSTORE POP JUMP JUMPDEST PUSH1 0x0 PUSH2 0x25F9 PUSH1 0x1B DUP4 PUSH2 0x2149 JUMP JUMPDEST SWAP2 POP PUSH2 0x2604 DUP3 PUSH2 0x25C3 JUMP JUMPDEST PUSH1 0x20 DUP3 ADD SWAP1 POP SWAP2 SWAP1 POP JUMP JUMPDEST PUSH1 0x0 PUSH1 0x20 DUP3 ADD SWAP1 POP DUP2 DUP2 SUB PUSH1 0x0 DUP4 ADD MSTORE PUSH2 0x2628 DUP2 PUSH2 0x25EC JUMP JUMPDEST SWAP1 POP SWAP2 SWAP1 POP JUMP JUMPDEST PUSH1 0x0 DUP2 MLOAD SWAP1 POP SWAP2 SWAP1 POP JUMP JUMPDEST PUSH1 0x0 JUMPDEST DUP4 DUP2 LT ISZERO PUSH2 0x2658 JUMPI DUP1 DUP3 ADD MLOAD DUP2 DUP5 ADD MSTORE PUSH1 0x20 DUP2 ADD SWAP1 POP PUSH2 0x263D JUMP JUMPDEST DUP4 DUP2 GT ISZERO PUSH2 0x2667 JUMPI PUSH1 0x0 DUP5 DUP5 ADD MSTORE JUMPDEST POP POP POP POP JUMP JUMPDEST PUSH1 0x0 PUSH2 0x2678 DUP3 PUSH2 0x262F JUMP JUMPDEST PUSH2 0x2682 DUP2 DUP6 PUSH2 0x2149 JUMP JUMPDEST SWAP4 POP PUSH2 0x2692 DUP2 DUP6 PUSH1 0x20 DUP7 ADD PUSH2 0x263A JUMP JUMPDEST PUSH2 0x269B DUP2 PUSH2 0x1F2E JUMP JUMPDEST DUP5 ADD SWAP2 POP POP SWAP3 SWAP2 POP POP JUMP JUMPDEST PUSH1 0x0 PUSH1 0x20 DUP3 ADD SWAP1 POP DUP2 DUP2 SUB PUSH1 0x0 DUP4 ADD MSTORE PUSH2 0x26C0 DUP2 DUP5 PUSH2 0x266D JUMP JUMPDEST SWAP1 POP SWAP3 SWAP2 POP POP JUMP INVALID LOG2 PUSH5 0x6970667358 0x22 SLT KECCAK256 0xFC MOD PUSH6 0x377E047BDC15 0xC6 0x2C 0xEC PUSH9 0xD5C175DE8BD51308B1 DUP13 0x2B 0xB8 DUP10 PUSH17 0x3C3267FC2F64736F6C634300080F003300 "
				},
				"gasEstimates": {
					"creation": {
						"codeDepositCost": "1996400",
						"executionCost": "infinite",
						"totalCost": "infinite"
					},
					"external": {
						"BUSD()": "2581",
						"CalcApy(uint256,address,uint256,address)": "infinite",
						"CalcLpPrice(address)": "infinite",
						"CalcTotalTVL(address,address)": "infinite",
						"Tokenprice(address)": "infinite",
						"WBNB()": "2559",
						"WBNBPrice(address)": "infinite",
						"calcPoolTVLInUSD(uint256,address,uint256,address)": "infinite",
						"isLpAddress(address)": "infinite",
						"owner()": "2545",
						"renounceOwnership()": "30463",
						"routerAddress()": "infinite",
						"setRouter(address)": "27027",
						"transferOwnership(address)": "30808"
					}
				},
				"methodIdentifiers": {
					"BUSD()": "484f4ea9",
					"CalcApy(uint256,address,uint256,address)": "dbb79348",
					"CalcLpPrice(address)": "215cc989",
					"CalcTotalTVL(address,address)": "91c6579e",
					"Tokenprice(address)": "19047f8a",
					"WBNB()": "8dd95002",
					"WBNBPrice(address)": "3b979d45",
					"calcPoolTVLInUSD(uint256,address,uint256,address)": "d979fb5f",
					"isLpAddress(address)": "2f7c5980",
					"owner()": "8da5cb5b",
					"renounceOwnership()": "715018a6",
					"routerAddress()": "3268cc56",
					"setRouter(address)": "c0d78655",
					"transferOwnership(address)": "f2fde38b"
				}
			},
			"storageLayout": {
				"storage": [
					{
						"astId": 509,
						"contract": "contracts/Utils.sol:Utils",
						"label": "_owner",
						"offset": 0,
						"slot": "0",
						"type": "t_address"
					},
					{
						"astId": 757,
						"contract": "contracts/Utils.sol:Utils",
						"label": "WBNB",
						"offset": 0,
						"slot": "1",
						"type": "t_address"
					},
					{
						"astId": 759,
						"contract": "contracts/Utils.sol:Utils",
						"label": "BUSD",
						"offset": 0,
						"slot": "2",
						"type": "t_address"
					},
					{
						"astId": 762,
						"contract": "contracts/Utils.sol:Utils",
						"label": "amount",
						"offset": 0,
						"slot": "3",
						"type": "t_uint256"
					},
					{
						"astId": 765,
						"contract": "contracts/Utils.sol:Utils",
						"label": "routerAddress",
						"offset": 0,
						"slot": "4",
						"type": "t_contract(Router)644"
					},
					{
						"astId": 768,
						"contract": "contracts/Utils.sol:Utils",
						"label": "BLOCKS_PER_YEAR",
						"offset": 0,
						"slot": "5",
						"type": "t_uint256"
					}
				],
				"types": {
					"t_address": {
						"encoding": "inplace",
						"label": "address",
						"numberOfBytes": "20"
					},
					"t_contract(Router)644": {
						"encoding": "inplace",
						"label": "contract Router",
						"numberOfBytes": "20"
					},
					"t_uint256": {
						"encoding": "inplace",
						"label": "uint256",
						"numberOfBytes": "32"
					}
				}
			},
			"userdoc": {
				"kind": "user",
				"methods": {},
				"version": 1
			}
		}
	}
}