{
	"contracts/NFTMasterChef.sol": {
		"NFTMasterChef": {
			"abi": [
				{
					"inputs": [
						{
							"internalType": "contract IERC20",
							"name": "_DDT",
							"type": "address"
						},
						{
							"internalType": "uint256",
							"name": "_PowerPerBlock",
							"type": "uint256"
						},
						{
							"internalType": "uint256",
							"name": "_startBlock",
							"type": "uint256"
						}
					],
					"stateMutability": "nonpayable",
					"type": "constructor"
				},
				{
					"anonymous": false,
					"inputs": [
						{
							"indexed": true,
							"internalType": "address",
							"name": "user",
							"type": "address"
						},
						{
							"indexed": true,
							"internalType": "uint256",
							"name": "pid",
							"type": "uint256"
						},
						{
							"indexed": false,
							"internalType": "uint256",
							"name": "amount",
							"type": "uint256"
						}
					],
					"name": "Deposit",
					"type": "event"
				},
				{
					"anonymous": false,
					"inputs": [
						{
							"indexed": true,
							"internalType": "address",
							"name": "user",
							"type": "address"
						},
						{
							"indexed": true,
							"internalType": "uint256",
							"name": "pid",
							"type": "uint256"
						},
						{
							"indexed": false,
							"internalType": "uint256",
							"name": "amount",
							"type": "uint256"
						}
					],
					"name": "EmergencyWithdraw",
					"type": "event"
				},
				{
					"anonymous": false,
					"inputs": [
						{
							"indexed": true,
							"internalType": "address",
							"name": "previousOwner",
							"type": "address"
						},
						{
							"indexed": true,
							"internalType": "address",
							"name": "newOwner",
							"type": "address"
						}
					],
					"name": "OwnershipTransferred",
					"type": "event"
				},
				{
					"anonymous": false,
					"inputs": [
						{
							"indexed": true,
							"internalType": "address",
							"name": "user",
							"type": "address"
						},
						{
							"indexed": true,
							"internalType": "uint256",
							"name": "pid",
							"type": "uint256"
						},
						{
							"indexed": false,
							"internalType": "uint256",
							"name": "amount",
							"type": "uint256"
						}
					],
					"name": "Withdraw",
					"type": "event"
				},
				{
					"inputs": [],
					"name": "BONUS_MULTIPLIER",
					"outputs": [
						{
							"internalType": "uint256",
							"name": "",
							"type": "uint256"
						}
					],
					"stateMutability": "view",
					"type": "function"
				},
				{
					"inputs": [],
					"name": "DDT",
					"outputs": [
						{
							"internalType": "contract IERC20",
							"name": "",
							"type": "address"
						}
					],
					"stateMutability": "view",
					"type": "function"
				},
				{
					"inputs": [],
					"name": "DDTMasterchef",
					"outputs": [
						{
							"internalType": "address",
							"name": "",
							"type": "address"
						}
					],
					"stateMutability": "view",
					"type": "function"
				},
				{
					"inputs": [],
					"name": "NFTStakeAddress",
					"outputs": [
						{
							"internalType": "address",
							"name": "",
							"type": "address"
						}
					],
					"stateMutability": "view",
					"type": "function"
				},
				{
					"inputs": [],
					"name": "PowerPerBlock",
					"outputs": [
						{
							"internalType": "uint256",
							"name": "",
							"type": "uint256"
						}
					],
					"stateMutability": "view",
					"type": "function"
				},
				{
					"inputs": [
						{
							"internalType": "uint256",
							"name": "_allocPoint",
							"type": "uint256"
						},
						{
							"internalType": "contract IERC20",
							"name": "_lpToken",
							"type": "address"
						},
						{
							"internalType": "bool",
							"name": "_withUpdate",
							"type": "bool"
						}
					],
					"name": "add",
					"outputs": [],
					"stateMutability": "nonpayable",
					"type": "function"
				},
				{
					"inputs": [
						{
							"internalType": "contract IERC721",
							"name": "_NFT",
							"type": "address"
						},
						{
							"internalType": "uint256",
							"name": "_power",
							"type": "uint256"
						}
					],
					"name": "addNFT",
					"outputs": [],
					"stateMutability": "nonpayable",
					"type": "function"
				},
				{
					"inputs": [
						{
							"internalType": "uint256",
							"name": "level",
							"type": "uint256"
						},
						{
							"internalType": "uint256",
							"name": "_pid",
							"type": "uint256"
						}
					],
					"name": "claimNFTReward",
					"outputs": [],
					"stateMutability": "nonpayable",
					"type": "function"
				},
				{
					"inputs": [
						{
							"internalType": "uint256",
							"name": "_pid",
							"type": "uint256"
						},
						{
							"internalType": "uint256",
							"name": "_amount",
							"type": "uint256"
						}
					],
					"name": "deposit",
					"outputs": [],
					"stateMutability": "nonpayable",
					"type": "function"
				},
				{
					"inputs": [
						{
							"internalType": "uint256",
							"name": "_pid",
							"type": "uint256"
						}
					],
					"name": "emergencyWithdraw",
					"outputs": [],
					"stateMutability": "nonpayable",
					"type": "function"
				},
				{
					"inputs": [
						{
							"internalType": "uint256",
							"name": "_amount",
							"type": "uint256"
						}
					],
					"name": "enterStaking",
					"outputs": [],
					"stateMutability": "nonpayable",
					"type": "function"
				},
				{
					"inputs": [
						{
							"internalType": "uint256",
							"name": "_amount",
							"type": "uint256"
						},
						{
							"internalType": "address",
							"name": "_account",
							"type": "address"
						}
					],
					"name": "enterStakingCompund",
					"outputs": [],
					"stateMutability": "nonpayable",
					"type": "function"
				},
				{
					"inputs": [
						{
							"internalType": "uint256",
							"name": "_from",
							"type": "uint256"
						},
						{
							"internalType": "uint256",
							"name": "_to",
							"type": "uint256"
						}
					],
					"name": "getMultiplier",
					"outputs": [
						{
							"internalType": "uint256",
							"name": "",
							"type": "uint256"
						}
					],
					"stateMutability": "view",
					"type": "function"
				},
				{
					"inputs": [
						{
							"internalType": "address",
							"name": "account",
							"type": "address"
						}
					],
					"name": "getPowerBalance",
					"outputs": [
						{
							"internalType": "uint256",
							"name": "",
							"type": "uint256"
						}
					],
					"stateMutability": "view",
					"type": "function"
				},
				{
					"inputs": [
						{
							"internalType": "uint256",
							"name": "_amount",
							"type": "uint256"
						}
					],
					"name": "leaveStaking",
					"outputs": [],
					"stateMutability": "nonpayable",
					"type": "function"
				},
				{
					"inputs": [],
					"name": "massUpdatePools",
					"outputs": [],
					"stateMutability": "nonpayable",
					"type": "function"
				},
				{
					"inputs": [
						{
							"internalType": "uint256",
							"name": "_pid",
							"type": "uint256"
						}
					],
					"name": "migrate",
					"outputs": [],
					"stateMutability": "nonpayable",
					"type": "function"
				},
				{
					"inputs": [],
					"name": "migrator",
					"outputs": [
						{
							"internalType": "contract IMigratorChef",
							"name": "",
							"type": "address"
						}
					],
					"stateMutability": "view",
					"type": "function"
				},
				{
					"inputs": [
						{
							"internalType": "uint256",
							"name": "",
							"type": "uint256"
						}
					],
					"name": "nftsInfo",
					"outputs": [
						{
							"internalType": "contract IERC721",
							"name": "NFT",
							"type": "address"
						},
						{
							"internalType": "uint256",
							"name": "power",
							"type": "uint256"
						}
					],
					"stateMutability": "view",
					"type": "function"
				},
				{
					"inputs": [],
					"name": "owner",
					"outputs": [
						{
							"internalType": "address",
							"name": "",
							"type": "address"
						}
					],
					"stateMutability": "view",
					"type": "function"
				},
				{
					"inputs": [
						{
							"internalType": "uint256",
							"name": "_pid",
							"type": "uint256"
						},
						{
							"internalType": "address",
							"name": "_user",
							"type": "address"
						}
					],
					"name": "pendingPower",
					"outputs": [
						{
							"internalType": "uint256",
							"name": "",
							"type": "uint256"
						}
					],
					"stateMutability": "view",
					"type": "function"
				},
				{
					"inputs": [
						{
							"internalType": "uint256",
							"name": "",
							"type": "uint256"
						}
					],
					"name": "poolInfo",
					"outputs": [
						{
							"internalType": "contract IERC20",
							"name": "lpToken",
							"type": "address"
						},
						{
							"internalType": "uint256",
							"name": "allocPoint",
							"type": "uint256"
						},
						{
							"internalType": "uint256",
							"name": "lastRewardBlock",
							"type": "uint256"
						},
						{
							"internalType": "uint256",
							"name": "accPowerPerShare",
							"type": "uint256"
						}
					],
					"stateMutability": "view",
					"type": "function"
				},
				{
					"inputs": [],
					"name": "poolLength",
					"outputs": [
						{
							"internalType": "uint256",
							"name": "",
							"type": "uint256"
						}
					],
					"stateMutability": "view",
					"type": "function"
				},
				{
					"inputs": [
						{
							"internalType": "address",
							"name": "",
							"type": "address"
						}
					],
					"name": "powerBalance",
					"outputs": [
						{
							"internalType": "uint256",
							"name": "",
							"type": "uint256"
						}
					],
					"stateMutability": "view",
					"type": "function"
				},
				{
					"inputs": [],
					"name": "renounceOwnership",
					"outputs": [],
					"stateMutability": "nonpayable",
					"type": "function"
				},
				{
					"inputs": [
						{
							"internalType": "uint256",
							"name": "_pid",
							"type": "uint256"
						},
						{
							"internalType": "uint256",
							"name": "_allocPoint",
							"type": "uint256"
						},
						{
							"internalType": "bool",
							"name": "_withUpdate",
							"type": "bool"
						}
					],
					"name": "set",
					"outputs": [],
					"stateMutability": "nonpayable",
					"type": "function"
				},
				{
					"inputs": [
						{
							"internalType": "contract IMigratorChef",
							"name": "_migrator",
							"type": "address"
						}
					],
					"name": "setMigrator",
					"outputs": [],
					"stateMutability": "nonpayable",
					"type": "function"
				},
				{
					"inputs": [],
					"name": "startBlock",
					"outputs": [
						{
							"internalType": "uint256",
							"name": "",
							"type": "uint256"
						}
					],
					"stateMutability": "view",
					"type": "function"
				},
				{
					"inputs": [],
					"name": "totalAllocPoint",
					"outputs": [
						{
							"internalType": "uint256",
							"name": "",
							"type": "uint256"
						}
					],
					"stateMutability": "view",
					"type": "function"
				},
				{
					"inputs": [
						{
							"internalType": "address",
							"name": "newOwner",
							"type": "address"
						}
					],
					"name": "transferOwnership",
					"outputs": [],
					"stateMutability": "nonpayable",
					"type": "function"
				},
				{
					"inputs": [
						{
							"internalType": "uint256",
							"name": "multiplierNumber",
							"type": "uint256"
						}
					],
					"name": "updateMultiplier",
					"outputs": [],
					"stateMutability": "nonpayable",
					"type": "function"
				},
				{
					"inputs": [
						{
							"internalType": "uint256",
							"name": "level",
							"type": "uint256"
						},
						{
							"internalType": "uint256",
							"name": "_power",
							"type": "uint256"
						}
					],
					"name": "updateNFT",
					"outputs": [],
					"stateMutability": "nonpayable",
					"type": "function"
				},
				{
					"inputs": [
						{
							"internalType": "address",
							"name": "_NFTStakeAddress",
							"type": "address"
						}
					],
					"name": "updateNFTStakeAddress",
					"outputs": [],
					"stateMutability": "nonpayable",
					"type": "function"
				},
				{
					"inputs": [
						{
							"internalType": "uint256",
							"name": "_pid",
							"type": "uint256"
						}
					],
					"name": "updatePool",
					"outputs": [],
					"stateMutability": "nonpayable",
					"type": "function"
				},
				{
					"inputs": [
						{
							"internalType": "uint256",
							"name": "newAmount",
							"type": "uint256"
						}
					],
					"name": "updatePowerPerBlock",
					"outputs": [],
					"stateMutability": "nonpayable",
					"type": "function"
				},
				{
					"inputs": [
						{
							"internalType": "uint256",
							"name": "",
							"type": "uint256"
						},
						{
							"internalType": "address",
							"name": "",
							"type": "address"
						}
					],
					"name": "userInfo",
					"outputs": [
						{
							"internalType": "uint256",
							"name": "amount",
							"type": "uint256"
						},
						{
							"internalType": "uint256",
							"name": "rewardDebt",
							"type": "uint256"
						}
					],
					"stateMutability": "view",
					"type": "function"
				},
				{
					"inputs": [
						{
							"internalType": "uint256",
							"name": "_pid",
							"type": "uint256"
						},
						{
							"internalType": "uint256",
							"name": "_amount",
							"type": "uint256"
						}
					],
					"name": "withdraw",
					"outputs": [],
					"stateMutability": "nonpayable",
					"type": "function"
				}
			],
			"devdoc": {
				"kind": "dev",
				"methods": {
					"owner()": {
						"details": "Returns the address of the current owner."
					},
					"renounceOwnership()": {
						"details": "Leaves the contract without owner. It will not be possible to call `onlyOwner` functions anymore. Can only be called by the current owner. NOTE: Renouncing ownership will leave the contract without an owner, thereby removing any functionality that is only available to the owner."
					},
					"transferOwnership(address)": {
						"details": "Transfers ownership of the contract to a new account (`newOwner`). Can only be called by the current owner."
					}
				},
				"version": 1
			},
			"evm": {
				"assembly": "    /* \"contracts/NFTMasterChef.sol\":22111:36115  contract NFTMasterChef is Ownable {\r... */\n  mstore(0x40, 0x80)\n    /* \"contracts/NFTMasterChef.sol\":23774:23775  1 */\n  0x01\n    /* \"contracts/NFTMasterChef.sol\":23740:23775  uint256 public BONUS_MULTIPLIER = 1 */\n  0x04\n  sstore\n    /* \"contracts/NFTMasterChef.sol\":24217:24218  0 */\n  0x00\n    /* \"contracts/NFTMasterChef.sol\":24184:24218  uint256 public totalAllocPoint = 0 */\n  0x08\n  sstore\n    /* \"contracts/NFTMasterChef.sol\":24724:25186  constructor(\r... */\n  callvalue\n  dup1\n  iszero\n  tag_1\n  jumpi\n  0x00\n  dup1\n  revert\ntag_1:\n  pop\n  mload(0x40)\n  sub(codesize, bytecodeSize)\n  dup1\n  bytecodeSize\n  dup4\n  codecopy\n  dup2\n  dup2\n  add\n  0x40\n  mstore\n  dup2\n  add\n  swap1\n  tag_2\n  swap2\n  swap1\n  tag_3\n  jump\t// in\ntag_2:\n    /* \"contracts/NFTMasterChef.sol\":19984:20016  _transferOwnership(_msgSender()) */\n  tag_7\n    /* \"contracts/NFTMasterChef.sol\":20003:20015  _msgSender() */\n  tag_8\n    /* \"contracts/NFTMasterChef.sol\":20003:20013  _msgSender */\n  shl(0x20, tag_9)\n    /* \"contracts/NFTMasterChef.sol\":20003:20015  _msgSender() */\n  0x20\n  shr\n  jump\t// in\ntag_8:\n    /* \"contracts/NFTMasterChef.sol\":19984:20002  _transferOwnership */\n  shl(0x20, tag_10)\n    /* \"contracts/NFTMasterChef.sol\":19984:20016  _transferOwnership(_msgSender()) */\n  0x20\n  shr\n  jump\t// in\ntag_7:\n    /* \"contracts/NFTMasterChef.sol\":24845:24849  _DDT */\n  dup3\n    /* \"contracts/NFTMasterChef.sol\":24839:24842  DDT */\n  0x02\n  0x00\n    /* \"contracts/NFTMasterChef.sol\":24839:24849  DDT = _DDT */\n  0x0100\n  exp\n  dup2\n  sload\n  dup2\n  0xffffffffffffffffffffffffffffffffffffffff\n  mul\n  not\n  and\n  swap1\n  dup4\n  0xffffffffffffffffffffffffffffffffffffffff\n  and\n  mul\n  or\n  swap1\n  sstore\n  pop\n    /* \"contracts/NFTMasterChef.sol\":24876:24890  _PowerPerBlock */\n  dup2\n    /* \"contracts/NFTMasterChef.sol\":24860:24873  PowerPerBlock */\n  0x03\n    /* \"contracts/NFTMasterChef.sol\":24860:24890  PowerPerBlock = _PowerPerBlock */\n  dup2\n  swap1\n  sstore\n  pop\n    /* \"contracts/NFTMasterChef.sol\":24914:24925  _startBlock */\n  dup1\n    /* \"contracts/NFTMasterChef.sol\":24901:24911  startBlock */\n  0x09\n    /* \"contracts/NFTMasterChef.sol\":24901:24925  startBlock = _startBlock */\n  dup2\n  swap1\n  sstore\n  pop\n    /* \"contracts/NFTMasterChef.sol\":24971:24979  poolInfo */\n  0x06\n    /* \"contracts/NFTMasterChef.sol\":24985:25140  PoolInfo({\r... */\n  mload(0x40)\n  dup1\n  0x80\n  add\n  0x40\n  mstore\n  dup1\n    /* \"contracts/NFTMasterChef.sol\":25018:25021  DDT */\n  0x02\n  0x00\n  swap1\n  sload\n  swap1\n  0x0100\n  exp\n  swap1\n  div\n  0xffffffffffffffffffffffffffffffffffffffff\n  and\n    /* \"contracts/NFTMasterChef.sol\":24985:25140  PoolInfo({\r... */\n  0xffffffffffffffffffffffffffffffffffffffff\n  and\n  dup2\n  mstore\n  0x20\n  add\n    /* \"contracts/NFTMasterChef.sol\":25048:25052  1000 */\n  0x03e8\n    /* \"contracts/NFTMasterChef.sol\":24985:25140  PoolInfo({\r... */\n  dup2\n  mstore\n  0x20\n  add\n    /* \"contracts/NFTMasterChef.sol\":25084:25094  startBlock */\n  sload(0x09)\n    /* \"contracts/NFTMasterChef.sol\":24985:25140  PoolInfo({\r... */\n  dup2\n  mstore\n  0x20\n  add\n    /* \"contracts/NFTMasterChef.sol\":25127:25128  0 */\n  0x00\n    /* \"contracts/NFTMasterChef.sol\":24985:25140  PoolInfo({\r... */\n  dup2\n  mstore\n  pop\n    /* \"contracts/NFTMasterChef.sol\":24971:25141  poolInfo.push(PoolInfo({\r... */\n  swap1\n  dup1\n  0x01\n  dup2\n  sload\n  add\n  dup1\n  dup3\n  sstore\n  dup1\n  swap2\n  pop\n  pop\n  0x01\n  swap1\n  sub\n  swap1\n  0x00\n  mstore\n  keccak256(0x00, 0x20)\n  swap1\n  0x04\n  mul\n  add\n  0x00\n  swap1\n  swap2\n  swap1\n  swap2\n  swap1\n  swap2\n  pop\n  0x00\n  dup3\n  add\n  mload\n  dup2\n  0x00\n  add\n  exp(0x0100, 0x00)\n  dup2\n  sload\n  dup2\n  0xffffffffffffffffffffffffffffffffffffffff\n  mul\n  not\n  and\n  swap1\n  dup4\n  0xffffffffffffffffffffffffffffffffffffffff\n  and\n  mul\n  or\n  swap1\n  sstore\n  pop\n  0x20\n  dup3\n  add\n  mload\n  dup2\n  0x01\n  add\n  sstore\n  0x40\n  dup3\n  add\n  mload\n  dup2\n  0x02\n  add\n  sstore\n  0x60\n  dup3\n  add\n  mload\n  dup2\n  0x03\n  add\n  sstore\n  pop\n  pop\n    /* \"contracts/NFTMasterChef.sol\":25172:25176  1000 */\n  0x03e8\n    /* \"contracts/NFTMasterChef.sol\":25154:25169  totalAllocPoint */\n  0x08\n    /* \"contracts/NFTMasterChef.sol\":25154:25176  totalAllocPoint = 1000 */\n  dup2\n  swap1\n  sstore\n  pop\n    /* \"contracts/NFTMasterChef.sol\":24724:25186  constructor(\r... */\n  pop\n  pop\n  pop\n    /* \"contracts/NFTMasterChef.sol\":22111:36115  contract NFTMasterChef is Ownable {\r... */\n  jump(tag_13)\n    /* \"contracts/NFTMasterChef.sol\":19479:19577  function _msgSender() internal view virtual returns (address) {\r... */\ntag_9:\n    /* \"contracts/NFTMasterChef.sol\":19532:19539  address */\n  0x00\n    /* \"contracts/NFTMasterChef.sol\":19559:19569  msg.sender */\n  caller\n    /* \"contracts/NFTMasterChef.sol\":19552:19569  return msg.sender */\n  swap1\n  pop\n    /* \"contracts/NFTMasterChef.sol\":19479:19577  function _msgSender() internal view virtual returns (address) {\r... */\n  swap1\n  jump\t// out\n    /* \"contracts/NFTMasterChef.sol\":21375:21566  function _transferOwnership(address newOwner) internal virtual {\r... */\ntag_10:\n    /* \"contracts/NFTMasterChef.sol\":21449:21465  address oldOwner */\n  0x00\n    /* \"contracts/NFTMasterChef.sol\":21468:21474  _owner */\n  dup1\n  0x00\n  swap1\n  sload\n  swap1\n  0x0100\n  exp\n  swap1\n  div\n  0xffffffffffffffffffffffffffffffffffffffff\n  and\n    /* \"contracts/NFTMasterChef.sol\":21449:21474  address oldOwner = _owner */\n  swap1\n  pop\n    /* \"contracts/NFTMasterChef.sol\":21494:21502  newOwner */\n  dup2\n    /* \"contracts/NFTMasterChef.sol\":21485:21491  _owner */\n  0x00\n  dup1\n    /* \"contracts/NFTMasterChef.sol\":21485:21502  _owner = newOwner */\n  0x0100\n  exp\n  dup2\n  sload\n  dup2\n  0xffffffffffffffffffffffffffffffffffffffff\n  mul\n  not\n  and\n  swap1\n  dup4\n  0xffffffffffffffffffffffffffffffffffffffff\n  and\n  mul\n  or\n  swap1\n  sstore\n  pop\n    /* \"contracts/NFTMasterChef.sol\":21549:21557  newOwner */\n  dup2\n    /* \"contracts/NFTMasterChef.sol\":21518:21558  OwnershipTransferred(oldOwner, newOwner) */\n  0xffffffffffffffffffffffffffffffffffffffff\n  and\n    /* \"contracts/NFTMasterChef.sol\":21539:21547  oldOwner */\n  dup2\n    /* \"contracts/NFTMasterChef.sol\":21518:21558  OwnershipTransferred(oldOwner, newOwner) */\n  0xffffffffffffffffffffffffffffffffffffffff\n  and\n  0x8be0079c531659141344cd1fd0a4f28419497f9722a3daafe3b4186f6b6457e0\n  mload(0x40)\n  mload(0x40)\n  dup1\n  swap2\n  sub\n  swap1\n  log3\n    /* \"contracts/NFTMasterChef.sol\":21438:21566  {\r... */\n  pop\n    /* \"contracts/NFTMasterChef.sol\":21375:21566  function _transferOwnership(address newOwner) internal virtual {\r... */\n  pop\n  jump\t// out\n    /* \"#utility.yul\":7:178   */\ntag_17:\n    /* \"#utility.yul\":78:83   */\n  0x00\n    /* \"#utility.yul\":109:115   */\n  dup2\n    /* \"#utility.yul\":103:116   */\n  mload\n    /* \"#utility.yul\":94:116   */\n  swap1\n  pop\n    /* \"#utility.yul\":125:172   */\n  tag_19\n    /* \"#utility.yul\":166:171   */\n  dup2\n    /* \"#utility.yul\":125:172   */\n  tag_20\n  jump\t// in\ntag_19:\n    /* \"#utility.yul\":7:178   */\n  swap3\n  swap2\n  pop\n  pop\n  jump\t// out\n    /* \"#utility.yul\":184:327   */\ntag_21:\n    /* \"#utility.yul\":241:246   */\n  0x00\n    /* \"#utility.yul\":272:278   */\n  dup2\n    /* \"#utility.yul\":266:279   */\n  mload\n    /* \"#utility.yul\":257:279   */\n  swap1\n  pop\n    /* \"#utility.yul\":288:321   */\n  tag_23\n    /* \"#utility.yul\":315:320   */\n  dup2\n    /* \"#utility.yul\":288:321   */\n  tag_24\n  jump\t// in\ntag_23:\n    /* \"#utility.yul\":184:327   */\n  swap3\n  swap2\n  pop\n  pop\n  jump\t// out\n    /* \"#utility.yul\":333:1024   */\ntag_3:\n    /* \"#utility.yul\":435:441   */\n  0x00\n    /* \"#utility.yul\":443:449   */\n  dup1\n    /* \"#utility.yul\":451:457   */\n  0x00\n    /* \"#utility.yul\":500:502   */\n  0x60\n    /* \"#utility.yul\":488:497   */\n  dup5\n    /* \"#utility.yul\":479:486   */\n  dup7\n    /* \"#utility.yul\":475:498   */\n  sub\n    /* \"#utility.yul\":471:503   */\n  slt\n    /* \"#utility.yul\":468:587   */\n  iszero\n  tag_26\n  jumpi\n    /* \"#utility.yul\":506:585   */\n  tag_27\n  tag_28\n  jump\t// in\ntag_27:\n    /* \"#utility.yul\":468:587   */\ntag_26:\n    /* \"#utility.yul\":626:627   */\n  0x00\n    /* \"#utility.yul\":651:729   */\n  tag_29\n    /* \"#utility.yul\":721:728   */\n  dup7\n    /* \"#utility.yul\":712:718   */\n  dup3\n    /* \"#utility.yul\":701:710   */\n  dup8\n    /* \"#utility.yul\":697:719   */\n  add\n    /* \"#utility.yul\":651:729   */\n  tag_17\n  jump\t// in\ntag_29:\n    /* \"#utility.yul\":641:729   */\n  swap4\n  pop\n    /* \"#utility.yul\":597:739   */\n  pop\n    /* \"#utility.yul\":778:780   */\n  0x20\n    /* \"#utility.yul\":804:868   */\n  tag_30\n    /* \"#utility.yul\":860:867   */\n  dup7\n    /* \"#utility.yul\":851:857   */\n  dup3\n    /* \"#utility.yul\":840:849   */\n  dup8\n    /* \"#utility.yul\":836:858   */\n  add\n    /* \"#utility.yul\":804:868   */\n  tag_21\n  jump\t// in\ntag_30:\n    /* \"#utility.yul\":794:868   */\n  swap3\n  pop\n    /* \"#utility.yul\":749:878   */\n  pop\n    /* \"#utility.yul\":917:919   */\n  0x40\n    /* \"#utility.yul\":943:1007   */\n  tag_31\n    /* \"#utility.yul\":999:1006   */\n  dup7\n    /* \"#utility.yul\":990:996   */\n  dup3\n    /* \"#utility.yul\":979:988   */\n  dup8\n    /* \"#utility.yul\":975:997   */\n  add\n    /* \"#utility.yul\":943:1007   */\n  tag_21\n  jump\t// in\ntag_31:\n    /* \"#utility.yul\":933:1007   */\n  swap2\n  pop\n    /* \"#utility.yul\":888:1017   */\n  pop\n    /* \"#utility.yul\":333:1024   */\n  swap3\n  pop\n  swap3\n  pop\n  swap3\n  jump\t// out\n    /* \"#utility.yul\":1111:1207   */\ntag_34:\n    /* \"#utility.yul\":1148:1155   */\n  0x00\n    /* \"#utility.yul\":1177:1201   */\n  tag_36\n    /* \"#utility.yul\":1195:1200   */\n  dup3\n    /* \"#utility.yul\":1177:1201   */\n  tag_37\n  jump\t// in\ntag_36:\n    /* \"#utility.yul\":1166:1201   */\n  swap1\n  pop\n    /* \"#utility.yul\":1111:1207   */\n  swap2\n  swap1\n  pop\n  jump\t// out\n    /* \"#utility.yul\":1213:1323   */\ntag_38:\n    /* \"#utility.yul\":1264:1271   */\n  0x00\n    /* \"#utility.yul\":1293:1317   */\n  tag_40\n    /* \"#utility.yul\":1311:1316   */\n  dup3\n    /* \"#utility.yul\":1293:1317   */\n  tag_34\n  jump\t// in\ntag_40:\n    /* \"#utility.yul\":1282:1317   */\n  swap1\n  pop\n    /* \"#utility.yul\":1213:1323   */\n  swap2\n  swap1\n  pop\n  jump\t// out\n    /* \"#utility.yul\":1329:1455   */\ntag_37:\n    /* \"#utility.yul\":1366:1373   */\n  0x00\n    /* \"#utility.yul\":1406:1448   */\n  0xffffffffffffffffffffffffffffffffffffffff\n    /* \"#utility.yul\":1399:1404   */\n  dup3\n    /* \"#utility.yul\":1395:1449   */\n  and\n    /* \"#utility.yul\":1384:1449   */\n  swap1\n  pop\n    /* \"#utility.yul\":1329:1455   */\n  swap2\n  swap1\n  pop\n  jump\t// out\n    /* \"#utility.yul\":1461:1538   */\ntag_42:\n    /* \"#utility.yul\":1498:1505   */\n  0x00\n    /* \"#utility.yul\":1527:1532   */\n  dup2\n    /* \"#utility.yul\":1516:1532   */\n  swap1\n  pop\n    /* \"#utility.yul\":1461:1538   */\n  swap2\n  swap1\n  pop\n  jump\t// out\n    /* \"#utility.yul\":1667:1784   */\ntag_28:\n    /* \"#utility.yul\":1776:1777   */\n  0x00\n    /* \"#utility.yul\":1773:1774   */\n  dup1\n    /* \"#utility.yul\":1766:1778   */\n  revert\n    /* \"#utility.yul\":1790:1940   */\ntag_20:\n    /* \"#utility.yul\":1877:1915   */\n  tag_48\n    /* \"#utility.yul\":1909:1914   */\n  dup2\n    /* \"#utility.yul\":1877:1915   */\n  tag_38\n  jump\t// in\ntag_48:\n    /* \"#utility.yul\":1870:1875   */\n  dup2\n    /* \"#utility.yul\":1867:1916   */\n  eq\n    /* \"#utility.yul\":1857:1934   */\n  tag_49\n  jumpi\n    /* \"#utility.yul\":1930:1931   */\n  0x00\n    /* \"#utility.yul\":1927:1928   */\n  dup1\n    /* \"#utility.yul\":1920:1932   */\n  revert\n    /* \"#utility.yul\":1857:1934   */\ntag_49:\n    /* \"#utility.yul\":1790:1940   */\n  pop\n  jump\t// out\n    /* \"#utility.yul\":1946:2068   */\ntag_24:\n    /* \"#utility.yul\":2019:2043   */\n  tag_51\n    /* \"#utility.yul\":2037:2042   */\n  dup2\n    /* \"#utility.yul\":2019:2043   */\n  tag_42\n  jump\t// in\ntag_51:\n    /* \"#utility.yul\":2012:2017   */\n  dup2\n    /* \"#utility.yul\":2009:2044   */\n  eq\n    /* \"#utility.yul\":1999:2062   */\n  tag_52\n  jumpi\n    /* \"#utility.yul\":2058:2059   */\n  0x00\n    /* \"#utility.yul\":2055:2056   */\n  dup1\n    /* \"#utility.yul\":2048:2060   */\n  revert\n    /* \"#utility.yul\":1999:2062   */\ntag_52:\n    /* \"#utility.yul\":1946:2068   */\n  pop\n  jump\t// out\n    /* \"contracts/NFTMasterChef.sol\":22111:36115  contract NFTMasterChef is Ownable {\r... */\ntag_13:\n  dataSize(sub_0)\n  dup1\n  dataOffset(sub_0)\n  0x00\n  codecopy\n  0x00\n  return\nstop\n\nsub_0: assembly {\n        /* \"contracts/NFTMasterChef.sol\":22111:36115  contract NFTMasterChef is Ownable {\r... */\n      mstore(0x40, 0x80)\n      callvalue\n      dup1\n      iszero\n      tag_1\n      jumpi\n      0x00\n      dup1\n      revert\n    tag_1:\n      pop\n      jumpi(tag_2, lt(calldatasize, 0x04))\n      shr(0xe0, calldataload(0x00))\n      dup1\n      0x61c1b724\n      gt\n      tag_40\n      jumpi\n      dup1\n      0x8da5cb5b\n      gt\n      tag_41\n      jumpi\n      dup1\n      0xcf35fddf\n      gt\n      tag_42\n      jumpi\n      dup1\n      0xcf35fddf\n      eq\n      tag_35\n      jumpi\n      dup1\n      0xd209db8c\n      eq\n      tag_36\n      jumpi\n      dup1\n      0xe2bbb158\n      eq\n      tag_37\n      jumpi\n      dup1\n      0xf2fde38b\n      eq\n      tag_38\n      jumpi\n      dup1\n      0xf3239ab5\n      eq\n      tag_39\n      jumpi\n      jump(tag_2)\n    tag_42:\n      dup1\n      0x8da5cb5b\n      eq\n      tag_30\n      jumpi\n      dup1\n      0x8dbb1e3a\n      eq\n      tag_31\n      jumpi\n      dup1\n      0x93f1a40b\n      eq\n      tag_32\n      jumpi\n      dup1\n      0xc11490cc\n      eq\n      tag_33\n      jumpi\n      dup1\n      0xcb3cba55\n      eq\n      tag_34\n      jumpi\n      jump(tag_2)\n    tag_41:\n      dup1\n      0x71916982\n      gt\n      tag_43\n      jumpi\n      dup1\n      0x71916982\n      eq\n      tag_25\n      jumpi\n      dup1\n      0x7cd07e47\n      eq\n      tag_26\n      jumpi\n      dup1\n      0x83e32135\n      eq\n      tag_27\n      jumpi\n      dup1\n      0x8aa28550\n      eq\n      tag_28\n      jumpi\n      dup1\n      0x8c51793b\n      eq\n      tag_29\n      jumpi\n      jump(tag_2)\n    tag_43:\n      dup1\n      0x61c1b724\n      eq\n      tag_21\n      jumpi\n      dup1\n      0x630b5ba1\n      eq\n      tag_22\n      jumpi\n      dup1\n      0x64482f79\n      eq\n      tag_23\n      jumpi\n      dup1\n      0x715018a6\n      eq\n      tag_24\n      jumpi\n      jump(tag_2)\n    tag_40:\n      dup1\n      0x41441d3b\n      gt\n      tag_44\n      jumpi\n      dup1\n      0x4ea2813c\n      gt\n      tag_45\n      jumpi\n      dup1\n      0x4ea2813c\n      eq\n      tag_16\n      jumpi\n      dup1\n      0x51eb05a6\n      eq\n      tag_17\n      jumpi\n      dup1\n      0x5312ea8e\n      eq\n      tag_18\n      jumpi\n      dup1\n      0x5990c569\n      eq\n      tag_19\n      jumpi\n      dup1\n      0x5ffe6146\n      eq\n      tag_20\n      jumpi\n      jump(tag_2)\n    tag_45:\n      dup1\n      0x41441d3b\n      eq\n      tag_12\n      jumpi\n      dup1\n      0x441a3e70\n      eq\n      tag_13\n      jumpi\n      dup1\n      0x454b0608\n      eq\n      tag_14\n      jumpi\n      dup1\n      0x48cd4cb1\n      eq\n      tag_15\n      jumpi\n      jump(tag_2)\n    tag_44:\n      dup1\n      0x17caf6f1\n      gt\n      tag_46\n      jumpi\n      dup1\n      0x17caf6f1\n      eq\n      tag_7\n      jumpi\n      dup1\n      0x1d5fbd87\n      eq\n      tag_8\n      jumpi\n      dup1\n      0x1eaaa045\n      eq\n      tag_9\n      jumpi\n      dup1\n      0x23cf3118\n      eq\n      tag_10\n      jumpi\n      dup1\n      0x3df7aff3\n      eq\n      tag_11\n      jumpi\n      jump(tag_2)\n    tag_46:\n      dup1\n      0x081e3eda\n      eq\n      tag_3\n      jumpi\n      dup1\n      0x0ba33a58\n      eq\n      tag_4\n      jumpi\n      dup1\n      0x1058d281\n      eq\n      tag_5\n      jumpi\n      dup1\n      0x1526fe27\n      eq\n      tag_6\n      jumpi\n    tag_2:\n      0x00\n      dup1\n      revert\n        /* \"contracts/NFTMasterChef.sol\":27199:27294  function poolLength() external view returns (uint256) {\r... */\n    tag_3:\n      tag_47\n      tag_48\n      jump\t// in\n    tag_47:\n      mload(0x40)\n      tag_49\n      swap2\n      swap1\n      tag_50\n      jump\t// in\n    tag_49:\n      mload(0x40)\n      dup1\n      swap2\n      sub\n      swap1\n      return\n        /* \"contracts/NFTMasterChef.sol\":25194:25320  function updateNFTStakeAddress(address _NFTStakeAddress) public onlyOwner{\r... */\n    tag_4:\n      tag_51\n      0x04\n      dup1\n      calldatasize\n      sub\n      dup2\n      add\n      swap1\n      tag_52\n      swap2\n      swap1\n      tag_53\n      jump\t// in\n    tag_52:\n      tag_54\n      jump\t// in\n    tag_51:\n      stop\n        /* \"contracts/NFTMasterChef.sol\":34809:35556  function leaveStaking(uint256 _amount) public {\r... */\n    tag_5:\n      tag_55\n      0x04\n      dup1\n      calldatasize\n      sub\n      dup2\n      add\n      swap1\n      tag_56\n      swap2\n      swap1\n      tag_57\n      jump\t// in\n    tag_56:\n      tag_58\n      jump\t// in\n    tag_55:\n      stop\n        /* \"contracts/NFTMasterChef.sol\":23943:23969  PoolInfo[] public poolInfo */\n    tag_6:\n      tag_59\n      0x04\n      dup1\n      calldatasize\n      sub\n      dup2\n      add\n      swap1\n      tag_60\n      swap2\n      swap1\n      tag_57\n      jump\t// in\n    tag_60:\n      tag_61\n      jump\t// in\n    tag_59:\n      mload(0x40)\n      tag_62\n      swap5\n      swap4\n      swap3\n      swap2\n      swap1\n      tag_63\n      jump\t// in\n    tag_62:\n      mload(0x40)\n      dup1\n      swap2\n      sub\n      swap1\n      return\n        /* \"contracts/NFTMasterChef.sol\":24184:24218  uint256 public totalAllocPoint = 0 */\n    tag_7:\n      tag_64\n      tag_65\n      jump\t// in\n    tag_64:\n      mload(0x40)\n      tag_66\n      swap2\n      swap1\n      tag_50\n      jump\t// in\n    tag_66:\n      mload(0x40)\n      dup1\n      swap2\n      sub\n      swap1\n      return\n        /* \"contracts/NFTMasterChef.sol\":25792:27060  function claimNFTReward(uint256 level, uint256 _pid) public {\r... */\n    tag_8:\n      tag_67\n      0x04\n      dup1\n      calldatasize\n      sub\n      dup2\n      add\n      swap1\n      tag_68\n      swap2\n      swap1\n      tag_69\n      jump\t// in\n    tag_68:\n      tag_70\n      jump\t// in\n    tag_67:\n      stop\n        /* \"contracts/NFTMasterChef.sol\":27463:28023  function add( uint256 _allocPoint, IERC20 _lpToken, bool _withUpdate ) public onlyOwner {\r... */\n    tag_9:\n      tag_71\n      0x04\n      dup1\n      calldatasize\n      sub\n      dup2\n      add\n      swap1\n      tag_72\n      swap2\n      swap1\n      tag_73\n      jump\t// in\n    tag_72:\n      tag_74\n      jump\t// in\n    tag_71:\n      stop\n        /* \"contracts/NFTMasterChef.sol\":28501:28603  function setMigrator(IMigratorChef _migrator) public onlyOwner {\r... */\n    tag_10:\n      tag_75\n      0x04\n      dup1\n      calldatasize\n      sub\n      dup2\n      add\n      swap1\n      tag_76\n      swap2\n      swap1\n      tag_77\n      jump\t// in\n    tag_76:\n      tag_78\n      jump\t// in\n    tag_75:\n      stop\n        /* \"contracts/NFTMasterChef.sol\":36003:36112  function updatePowerPerBlock(uint256 newAmount) public onlyOwner {\r... */\n    tag_11:\n      tag_79\n      0x04\n      dup1\n      calldatasize\n      sub\n      dup2\n      add\n      swap1\n      tag_80\n      swap2\n      swap1\n      tag_57\n      jump\t// in\n    tag_80:\n      tag_81\n      jump\t// in\n    tag_79:\n      stop\n        /* \"contracts/NFTMasterChef.sol\":33056:33853  function enterStaking(uint256 _amount) public {\r... */\n    tag_12:\n      tag_82\n      0x04\n      dup1\n      calldatasize\n      sub\n      dup2\n      add\n      swap1\n      tag_83\n      swap2\n      swap1\n      tag_57\n      jump\t// in\n    tag_83:\n      tag_84\n      jump\t// in\n    tag_82:\n      stop\n        /* \"contracts/NFTMasterChef.sol\":32216:33003  function withdraw(uint256 _pid, uint256 _amount) public {\r... */\n    tag_13:\n      tag_85\n      0x04\n      dup1\n      calldatasize\n      sub\n      dup2\n      add\n      swap1\n      tag_86\n      swap2\n      swap1\n      tag_69\n      jump\t// in\n    tag_86:\n      tag_87\n      jump\t// in\n    tag_85:\n      stop\n        /* \"contracts/NFTMasterChef.sol\":28726:29217  function migrate(uint256 _pid) public {\r... */\n    tag_14:\n      tag_88\n      0x04\n      dup1\n      calldatasize\n      sub\n      dup2\n      add\n      swap1\n      tag_89\n      swap2\n      swap1\n      tag_57\n      jump\t// in\n    tag_89:\n      tag_90\n      jump\t// in\n    tag_88:\n      stop\n        /* \"contracts/NFTMasterChef.sol\":24276:24301  uint256 public startBlock */\n    tag_15:\n      tag_91\n      tag_92\n      jump\t// in\n    tag_91:\n      mload(0x40)\n      tag_93\n      swap2\n      swap1\n      tag_50\n      jump\t// in\n    tag_93:\n      mload(0x40)\n      dup1\n      swap2\n      sub\n      swap1\n      return\n        /* \"contracts/NFTMasterChef.sol\":25454:25660  function addNFT(IERC721 _NFT, uint256 _power) public onlyOwner {\r... */\n    tag_16:\n      tag_94\n      0x04\n      dup1\n      calldatasize\n      sub\n      dup2\n      add\n      swap1\n      tag_95\n      swap2\n      swap1\n      tag_96\n      jump\t// in\n    tag_95:\n      tag_97\n      jump\t// in\n    tag_94:\n      stop\n        /* \"contracts/NFTMasterChef.sol\":30608:31298  function updatePool(uint256 _pid) public {\r... */\n    tag_17:\n      tag_98\n      0x04\n      dup1\n      calldatasize\n      sub\n      dup2\n      add\n      swap1\n      tag_99\n      swap2\n      swap1\n      tag_57\n      jump\t// in\n    tag_99:\n      tag_100\n      jump\t// in\n    tag_98:\n      stop\n        /* \"contracts/NFTMasterChef.sol\":35635:35991  function emergencyWithdraw(uint256 _pid) public {\r... */\n    tag_18:\n      tag_101\n      0x04\n      dup1\n      calldatasize\n      sub\n      dup2\n      add\n      swap1\n      tag_102\n      swap2\n      swap1\n      tag_57\n      jump\t// in\n    tag_102:\n      tag_103\n      jump\t// in\n    tag_101:\n      stop\n        /* \"contracts/NFTMasterChef.sol\":23657:23685  uint256 public PowerPerBlock */\n    tag_19:\n      tag_104\n      tag_105\n      jump\t// in\n    tag_104:\n      mload(0x40)\n      tag_106\n      swap2\n      swap1\n      tag_50\n      jump\t// in\n    tag_106:\n      mload(0x40)\n      dup1\n      swap2\n      sub\n      swap1\n      return\n        /* \"contracts/NFTMasterChef.sol\":27068:27191  function updateMultiplier(uint256 multiplierNumber) public onlyOwner {\r... */\n    tag_20:\n      tag_107\n      0x04\n      dup1\n      calldatasize\n      sub\n      dup2\n      add\n      swap1\n      tag_108\n      swap2\n      swap1\n      tag_57\n      jump\t// in\n    tag_108:\n      tag_109\n      jump\t// in\n    tag_107:\n      stop\n        /* \"contracts/NFTMasterChef.sol\":23533:23559  NFTsInfo[] public nftsInfo */\n    tag_21:\n      tag_110\n      0x04\n      dup1\n      calldatasize\n      sub\n      dup2\n      add\n      swap1\n      tag_111\n      swap2\n      swap1\n      tag_57\n      jump\t// in\n    tag_111:\n      tag_112\n      jump\t// in\n    tag_110:\n      mload(0x40)\n      tag_113\n      swap3\n      swap2\n      swap1\n      tag_114\n      jump\t// in\n    tag_113:\n      mload(0x40)\n      dup1\n      swap2\n      sub\n      swap1\n      return\n        /* \"contracts/NFTMasterChef.sol\":30352:30532  function massUpdatePools() public {\r... */\n    tag_22:\n      tag_115\n      tag_116\n      jump\t// in\n    tag_115:\n      stop\n        /* \"contracts/NFTMasterChef.sol\":28120:28425  function set( uint256 _pid, uint256 _allocPoint, bool _withUpdate) public onlyOwner {\r... */\n    tag_23:\n      tag_117\n      0x04\n      dup1\n      calldatasize\n      sub\n      dup2\n      add\n      swap1\n      tag_118\n      swap2\n      swap1\n      tag_119\n      jump\t// in\n    tag_118:\n      tag_120\n      jump\t// in\n    tag_117:\n      stop\n        /* \"contracts/NFTMasterChef.sol\":20756:20859  function renounceOwnership() public virtual onlyOwner {\r... */\n    tag_24:\n      tag_121\n      tag_122\n      jump\t// in\n    tag_121:\n      stop\n        /* \"contracts/NFTMasterChef.sol\":24347:24375  address public DDTMasterchef */\n    tag_25:\n      tag_123\n      tag_124\n      jump\t// in\n    tag_123:\n      mload(0x40)\n      tag_125\n      swap2\n      swap1\n      tag_126\n      jump\t// in\n    tag_125:\n      mload(0x40)\n      dup1\n      swap2\n      sub\n      swap1\n      return\n        /* \"contracts/NFTMasterChef.sol\":23880:23909  IMigratorChef public migrator */\n    tag_26:\n      tag_127\n      tag_128\n      jump\t// in\n    tag_127:\n      mload(0x40)\n      tag_129\n      swap2\n      swap1\n      tag_130\n      jump\t// in\n    tag_129:\n      mload(0x40)\n      dup1\n      swap2\n      sub\n      swap1\n      return\n        /* \"contracts/NFTMasterChef.sol\":24310:24340  address public NFTStakeAddress */\n    tag_27:\n      tag_131\n      tag_132\n      jump\t// in\n    tag_131:\n      mload(0x40)\n      tag_133\n      swap2\n      swap1\n      tag_126\n      jump\t// in\n    tag_133:\n      mload(0x40)\n      dup1\n      swap2\n      sub\n      swap1\n      return\n        /* \"contracts/NFTMasterChef.sol\":23740:23775  uint256 public BONUS_MULTIPLIER = 1 */\n    tag_28:\n      tag_134\n      tag_135\n      jump\t// in\n    tag_134:\n      mload(0x40)\n      tag_136\n      swap2\n      swap1\n      tag_50\n      jump\t// in\n    tag_136:\n      mload(0x40)\n      dup1\n      swap2\n      sub\n      swap1\n      return\n        /* \"contracts/NFTMasterChef.sol\":25328:25446  function getPowerBalance(address account) public view returns(uint256) {\r... */\n    tag_29:\n      tag_137\n      0x04\n      dup1\n      calldatasize\n      sub\n      dup2\n      add\n      swap1\n      tag_138\n      swap2\n      swap1\n      tag_53\n      jump\t// in\n    tag_138:\n      tag_139\n      jump\t// in\n    tag_137:\n      mload(0x40)\n      tag_140\n      swap2\n      swap1\n      tag_50\n      jump\t// in\n    tag_140:\n      mload(0x40)\n      dup1\n      swap2\n      sub\n      swap1\n      return\n        /* \"contracts/NFTMasterChef.sol\":20105:20192  function owner() public view virtual returns (address) {\r... */\n    tag_30:\n      tag_141\n      tag_142\n      jump\t// in\n    tag_141:\n      mload(0x40)\n      tag_143\n      swap2\n      swap1\n      tag_126\n      jump\t// in\n    tag_143:\n      mload(0x40)\n      dup1\n      swap2\n      sub\n      swap1\n      return\n        /* \"contracts/NFTMasterChef.sol\":29293:29437  function getMultiplier(uint256 _from, uint256 _to) public view returns (uint256) {\r... */\n    tag_31:\n      tag_144\n      0x04\n      dup1\n      calldatasize\n      sub\n      dup2\n      add\n      swap1\n      tag_145\n      swap2\n      swap1\n      tag_69\n      jump\t// in\n    tag_145:\n      tag_146\n      jump\t// in\n    tag_144:\n      mload(0x40)\n      tag_147\n      swap2\n      swap1\n      tag_50\n      jump\t// in\n    tag_147:\n      mload(0x40)\n      dup1\n      swap2\n      sub\n      swap1\n      return\n        /* \"contracts/NFTMasterChef.sol\":24025:24089  mapping(uint256 => mapping(address => UserInfo)) public userInfo */\n    tag_32:\n      tag_148\n      0x04\n      dup1\n      calldatasize\n      sub\n      dup2\n      add\n      swap1\n      tag_149\n      swap2\n      swap1\n      tag_150\n      jump\t// in\n    tag_149:\n      tag_151\n      jump\t// in\n    tag_148:\n      mload(0x40)\n      tag_152\n      swap3\n      swap2\n      swap1\n      tag_153\n      jump\t// in\n    tag_152:\n      mload(0x40)\n      dup1\n      swap2\n      sub\n      swap1\n      return\n        /* \"contracts/NFTMasterChef.sol\":25668:25784  function updateNFT(uint256 level, uint256 _power) public onlyOwner {\r... */\n    tag_33:\n      tag_154\n      0x04\n      dup1\n      calldatasize\n      sub\n      dup2\n      add\n      swap1\n      tag_155\n      swap2\n      swap1\n      tag_69\n      jump\t// in\n    tag_155:\n      tag_156\n      jump\t// in\n    tag_154:\n      stop\n        /* \"contracts/NFTMasterChef.sol\":23593:23610  IERC20 public DDT */\n    tag_34:\n      tag_157\n      tag_158\n      jump\t// in\n    tag_157:\n      mload(0x40)\n      tag_159\n      swap2\n      swap1\n      tag_160\n      jump\t// in\n    tag_159:\n      mload(0x40)\n      dup1\n      swap2\n      sub\n      swap1\n      return\n        /* \"contracts/NFTMasterChef.sol\":33861:34757  function enterStakingCompund(uint256 _amount, address _account) public {\r... */\n    tag_35:\n      tag_161\n      0x04\n      dup1\n      calldatasize\n      sub\n      dup2\n      add\n      swap1\n      tag_162\n      swap2\n      swap1\n      tag_150\n      jump\t// in\n    tag_162:\n      tag_163\n      jump\t// in\n    tag_161:\n      stop\n        /* \"contracts/NFTMasterChef.sol\":24384:24431  mapping(address => uint256) public powerBalance */\n    tag_36:\n      tag_164\n      0x04\n      dup1\n      calldatasize\n      sub\n      dup2\n      add\n      swap1\n      tag_165\n      swap2\n      swap1\n      tag_53\n      jump\t// in\n    tag_165:\n      tag_166\n      jump\t// in\n    tag_164:\n      mload(0x40)\n      tag_167\n      swap2\n      swap1\n      tag_50\n      jump\t// in\n    tag_167:\n      mload(0x40)\n      dup1\n      swap2\n      sub\n      swap1\n      return\n        /* \"contracts/NFTMasterChef.sol\":31368:32164  function deposit(uint256 _pid, uint256 _amount) public {\r... */\n    tag_37:\n      tag_168\n      0x04\n      dup1\n      calldatasize\n      sub\n      dup2\n      add\n      swap1\n      tag_169\n      swap2\n      swap1\n      tag_69\n      jump\t// in\n    tag_169:\n      tag_170\n      jump\t// in\n    tag_168:\n      stop\n        /* \"contracts/NFTMasterChef.sol\":21014:21215  function transferOwnership(address newOwner) public virtual onlyOwner {\r... */\n    tag_38:\n      tag_171\n      0x04\n      dup1\n      calldatasize\n      sub\n      dup2\n      add\n      swap1\n      tag_172\n      swap2\n      swap1\n      tag_53\n      jump\t// in\n    tag_172:\n      tag_173\n      jump\t// in\n    tag_171:\n      stop\n        /* \"contracts/NFTMasterChef.sol\":29502:30269  function pendingPower(uint256 _pid, address _user) external view returns (uint256){\r... */\n    tag_39:\n      tag_174\n      0x04\n      dup1\n      calldatasize\n      sub\n      dup2\n      add\n      swap1\n      tag_175\n      swap2\n      swap1\n      tag_150\n      jump\t// in\n    tag_175:\n      tag_176\n      jump\t// in\n    tag_174:\n      mload(0x40)\n      tag_177\n      swap2\n      swap1\n      tag_50\n      jump\t// in\n    tag_177:\n      mload(0x40)\n      dup1\n      swap2\n      sub\n      swap1\n      return\n        /* \"contracts/NFTMasterChef.sol\":27199:27294  function poolLength() external view returns (uint256) {\r... */\n    tag_48:\n        /* \"contracts/NFTMasterChef.sol\":27244:27251  uint256 */\n      0x00\n        /* \"contracts/NFTMasterChef.sol\":27271:27279  poolInfo */\n      0x06\n        /* \"contracts/NFTMasterChef.sol\":27271:27286  poolInfo.length */\n      dup1\n      sload\n      swap1\n      pop\n        /* \"contracts/NFTMasterChef.sol\":27264:27286  return poolInfo.length */\n      swap1\n      pop\n        /* \"contracts/NFTMasterChef.sol\":27199:27294  function poolLength() external view returns (uint256) {\r... */\n      swap1\n      jump\t// out\n        /* \"contracts/NFTMasterChef.sol\":25194:25320  function updateNFTStakeAddress(address _NFTStakeAddress) public onlyOwner{\r... */\n    tag_54:\n        /* \"contracts/NFTMasterChef.sol\":20336:20348  _msgSender() */\n      tag_180\n        /* \"contracts/NFTMasterChef.sol\":20336:20346  _msgSender */\n      tag_181\n        /* \"contracts/NFTMasterChef.sol\":20336:20348  _msgSender() */\n      jump\t// in\n    tag_180:\n        /* \"contracts/NFTMasterChef.sol\":20325:20348  owner() == _msgSender() */\n      0xffffffffffffffffffffffffffffffffffffffff\n      and\n        /* \"contracts/NFTMasterChef.sol\":20325:20332  owner() */\n      tag_182\n        /* \"contracts/NFTMasterChef.sol\":20325:20330  owner */\n      tag_142\n        /* \"contracts/NFTMasterChef.sol\":20325:20332  owner() */\n      jump\t// in\n    tag_182:\n        /* \"contracts/NFTMasterChef.sol\":20325:20348  owner() == _msgSender() */\n      0xffffffffffffffffffffffffffffffffffffffff\n      and\n      eq\n        /* \"contracts/NFTMasterChef.sol\":20317:20385  require(owner() == _msgSender(), \"Ownable: caller is not the owner\") */\n      tag_183\n      jumpi\n      mload(0x40)\n      0x08c379a000000000000000000000000000000000000000000000000000000000\n      dup2\n      mstore\n      0x04\n      add\n      tag_184\n      swap1\n      tag_185\n      jump\t// in\n    tag_184:\n      mload(0x40)\n      dup1\n      swap2\n      sub\n      swap1\n      revert\n    tag_183:\n        /* \"contracts/NFTMasterChef.sol\":25296:25312  _NFTStakeAddress */\n      dup1\n        /* \"contracts/NFTMasterChef.sol\":25278:25293  NFTStakeAddress */\n      0x0a\n      0x00\n        /* \"contracts/NFTMasterChef.sol\":25278:25312  NFTStakeAddress = _NFTStakeAddress */\n      0x0100\n      exp\n      dup2\n      sload\n      dup2\n      0xffffffffffffffffffffffffffffffffffffffff\n      mul\n      not\n      and\n      swap1\n      dup4\n      0xffffffffffffffffffffffffffffffffffffffff\n      and\n      mul\n      or\n      swap1\n      sstore\n      pop\n        /* \"contracts/NFTMasterChef.sol\":25194:25320  function updateNFTStakeAddress(address _NFTStakeAddress) public onlyOwner{\r... */\n      pop\n      jump\t// out\n        /* \"contracts/NFTMasterChef.sol\":34809:35556  function leaveStaking(uint256 _amount) public {\r... */\n    tag_58:\n        /* \"contracts/NFTMasterChef.sol\":34866:34887  PoolInfo storage pool */\n      0x00\n        /* \"contracts/NFTMasterChef.sol\":34890:34898  poolInfo */\n      0x06\n        /* \"contracts/NFTMasterChef.sol\":34899:34900  0 */\n      0x00\n        /* \"contracts/NFTMasterChef.sol\":34890:34901  poolInfo[0] */\n      dup2\n      sload\n      dup2\n      lt\n      tag_188\n      jumpi\n      tag_189\n      tag_190\n      jump\t// in\n    tag_189:\n    tag_188:\n      swap1\n      0x00\n      mstore\n      keccak256(0x00, 0x20)\n      swap1\n      0x04\n      mul\n      add\n        /* \"contracts/NFTMasterChef.sol\":34866:34901  PoolInfo storage pool = poolInfo[0] */\n      swap1\n      pop\n        /* \"contracts/NFTMasterChef.sol\":34912:34933  UserInfo storage user */\n      0x00\n        /* \"contracts/NFTMasterChef.sol\":34936:34944  userInfo */\n      0x07\n        /* \"contracts/NFTMasterChef.sol\":34936:34947  userInfo[0] */\n      0x00\n        /* \"contracts/NFTMasterChef.sol\":34945:34946  0 */\n      dup1\n        /* \"contracts/NFTMasterChef.sol\":34936:34947  userInfo[0] */\n      dup2\n      mstore\n      0x20\n      add\n      swap1\n      dup2\n      mstore\n      0x20\n      add\n      0x00\n      keccak256\n        /* \"contracts/NFTMasterChef.sol\":34936:34959  userInfo[0][msg.sender] */\n      0x00\n        /* \"contracts/NFTMasterChef.sol\":34948:34958  msg.sender */\n      caller\n        /* \"contracts/NFTMasterChef.sol\":34936:34959  userInfo[0][msg.sender] */\n      0xffffffffffffffffffffffffffffffffffffffff\n      and\n      0xffffffffffffffffffffffffffffffffffffffff\n      and\n      dup2\n      mstore\n      0x20\n      add\n      swap1\n      dup2\n      mstore\n      0x20\n      add\n      0x00\n      keccak256\n        /* \"contracts/NFTMasterChef.sol\":34912:34959  UserInfo storage user = userInfo[0][msg.sender] */\n      swap1\n      pop\n        /* \"contracts/NFTMasterChef.sol\":34993:35000  _amount */\n      dup3\n        /* \"contracts/NFTMasterChef.sol\":34978:34982  user */\n      dup2\n        /* \"contracts/NFTMasterChef.sol\":34978:34989  user.amount */\n      0x00\n      add\n      sload\n        /* \"contracts/NFTMasterChef.sol\":34978:35000  user.amount >= _amount */\n      lt\n      iszero\n        /* \"contracts/NFTMasterChef.sol\":34970:35023  require(user.amount >= _amount, \"withdraw: not good\") */\n      tag_192\n      jumpi\n      mload(0x40)\n      0x08c379a000000000000000000000000000000000000000000000000000000000\n      dup2\n      mstore\n      0x04\n      add\n      tag_193\n      swap1\n      tag_194\n      jump\t// in\n    tag_193:\n      mload(0x40)\n      dup1\n      swap2\n      sub\n      swap1\n      revert\n    tag_192:\n        /* \"contracts/NFTMasterChef.sol\":35034:35047  updatePool(0) */\n      tag_195\n        /* \"contracts/NFTMasterChef.sol\":35045:35046  0 */\n      0x00\n        /* \"contracts/NFTMasterChef.sol\":35034:35044  updatePool */\n      tag_100\n        /* \"contracts/NFTMasterChef.sol\":35034:35047  updatePool(0) */\n      jump\t// in\n    tag_195:\n        /* \"contracts/NFTMasterChef.sol\":35058:35073  uint256 pending */\n      0x00\n        /* \"contracts/NFTMasterChef.sol\":35076:35145  user.amount.mul(pool.accPowerPerShare).div(1e12).sub(user.rewardDebt) */\n      tag_196\n        /* \"contracts/NFTMasterChef.sol\":35129:35133  user */\n      dup3\n        /* \"contracts/NFTMasterChef.sol\":35129:35144  user.rewardDebt */\n      0x01\n      add\n      sload\n        /* \"contracts/NFTMasterChef.sol\":35076:35124  user.amount.mul(pool.accPowerPerShare).div(1e12) */\n      tag_197\n        /* \"contracts/NFTMasterChef.sol\":35119:35123  1e12 */\n      0xe8d4a51000\n        /* \"contracts/NFTMasterChef.sol\":35076:35114  user.amount.mul(pool.accPowerPerShare) */\n      tag_198\n        /* \"contracts/NFTMasterChef.sol\":35092:35096  pool */\n      dup8\n        /* \"contracts/NFTMasterChef.sol\":35092:35113  pool.accPowerPerShare */\n      0x03\n      add\n      sload\n        /* \"contracts/NFTMasterChef.sol\":35076:35080  user */\n      dup8\n        /* \"contracts/NFTMasterChef.sol\":35076:35087  user.amount */\n      0x00\n      add\n      sload\n        /* \"contracts/NFTMasterChef.sol\":35076:35091  user.amount.mul */\n      tag_199\n      swap1\n        /* \"contracts/NFTMasterChef.sol\":35076:35114  user.amount.mul(pool.accPowerPerShare) */\n      swap2\n      swap1\n      0xffffffff\n      and\n      jump\t// in\n    tag_198:\n        /* \"contracts/NFTMasterChef.sol\":35076:35118  user.amount.mul(pool.accPowerPerShare).div */\n      tag_200\n      swap1\n        /* \"contracts/NFTMasterChef.sol\":35076:35124  user.amount.mul(pool.accPowerPerShare).div(1e12) */\n      swap2\n      swap1\n      0xffffffff\n      and\n      jump\t// in\n    tag_197:\n        /* \"contracts/NFTMasterChef.sol\":35076:35128  user.amount.mul(pool.accPowerPerShare).div(1e12).sub */\n      tag_201\n      swap1\n        /* \"contracts/NFTMasterChef.sol\":35076:35145  user.amount.mul(pool.accPowerPerShare).div(1e12).sub(user.rewardDebt) */\n      swap2\n      swap1\n      0xffffffff\n      and\n      jump\t// in\n    tag_196:\n        /* \"contracts/NFTMasterChef.sol\":35058:35145  uint256 pending = user.amount.mul(pool.accPowerPerShare).div(1e12).sub(user.rewardDebt) */\n      swap1\n      pop\n        /* \"contracts/NFTMasterChef.sol\":35169:35170  0 */\n      0x00\n        /* \"contracts/NFTMasterChef.sol\":35159:35166  pending */\n      dup2\n        /* \"contracts/NFTMasterChef.sol\":35159:35170  pending > 0 */\n      gt\n        /* \"contracts/NFTMasterChef.sol\":35156:35263  if(pending > 0) {\r... */\n      iszero\n      tag_202\n      jumpi\n        /* \"contracts/NFTMasterChef.sol\":35214:35251  powerBalance[msg.sender].add(pending) */\n      tag_203\n        /* \"contracts/NFTMasterChef.sol\":35243:35250  pending */\n      dup2\n        /* \"contracts/NFTMasterChef.sol\":35214:35226  powerBalance */\n      0x0c\n        /* \"contracts/NFTMasterChef.sol\":35214:35238  powerBalance[msg.sender] */\n      0x00\n        /* \"contracts/NFTMasterChef.sol\":35227:35237  msg.sender */\n      caller\n        /* \"contracts/NFTMasterChef.sol\":35214:35238  powerBalance[msg.sender] */\n      0xffffffffffffffffffffffffffffffffffffffff\n      and\n      0xffffffffffffffffffffffffffffffffffffffff\n      and\n      dup2\n      mstore\n      0x20\n      add\n      swap1\n      dup2\n      mstore\n      0x20\n      add\n      0x00\n      keccak256\n      sload\n        /* \"contracts/NFTMasterChef.sol\":35214:35242  powerBalance[msg.sender].add */\n      tag_204\n      swap1\n        /* \"contracts/NFTMasterChef.sol\":35214:35251  powerBalance[msg.sender].add(pending) */\n      swap2\n      swap1\n      0xffffffff\n      and\n      jump\t// in\n    tag_203:\n        /* \"contracts/NFTMasterChef.sol\":35187:35199  powerBalance */\n      0x0c\n        /* \"contracts/NFTMasterChef.sol\":35187:35211  powerBalance[msg.sender] */\n      0x00\n        /* \"contracts/NFTMasterChef.sol\":35200:35210  msg.sender */\n      caller\n        /* \"contracts/NFTMasterChef.sol\":35187:35211  powerBalance[msg.sender] */\n      0xffffffffffffffffffffffffffffffffffffffff\n      and\n      0xffffffffffffffffffffffffffffffffffffffff\n      and\n      dup2\n      mstore\n      0x20\n      add\n      swap1\n      dup2\n      mstore\n      0x20\n      add\n      0x00\n      keccak256\n        /* \"contracts/NFTMasterChef.sol\":35187:35251  powerBalance[msg.sender] = powerBalance[msg.sender].add(pending) */\n      dup2\n      swap1\n      sstore\n      pop\n        /* \"contracts/NFTMasterChef.sol\":35156:35263  if(pending > 0) {\r... */\n    tag_202:\n        /* \"contracts/NFTMasterChef.sol\":35286:35287  0 */\n      0x00\n        /* \"contracts/NFTMasterChef.sol\":35276:35283  _amount */\n      dup5\n        /* \"contracts/NFTMasterChef.sol\":35276:35287  _amount > 0 */\n      gt\n        /* \"contracts/NFTMasterChef.sol\":35273:35424  if(_amount > 0) {\r... */\n      iszero\n      tag_205\n      jumpi\n        /* \"contracts/NFTMasterChef.sol\":35318:35342  user.amount.sub(_amount) */\n      tag_206\n        /* \"contracts/NFTMasterChef.sol\":35334:35341  _amount */\n      dup5\n        /* \"contracts/NFTMasterChef.sol\":35318:35322  user */\n      dup4\n        /* \"contracts/NFTMasterChef.sol\":35318:35329  user.amount */\n      0x00\n      add\n      sload\n        /* \"contracts/NFTMasterChef.sol\":35318:35333  user.amount.sub */\n      tag_201\n      swap1\n        /* \"contracts/NFTMasterChef.sol\":35318:35342  user.amount.sub(_amount) */\n      swap2\n      swap1\n      0xffffffff\n      and\n      jump\t// in\n    tag_206:\n        /* \"contracts/NFTMasterChef.sol\":35304:35308  user */\n      dup3\n        /* \"contracts/NFTMasterChef.sol\":35304:35315  user.amount */\n      0x00\n      add\n        /* \"contracts/NFTMasterChef.sol\":35304:35342  user.amount = user.amount.sub(_amount) */\n      dup2\n      swap1\n      sstore\n      pop\n        /* \"contracts/NFTMasterChef.sol\":35357:35412  pool.lpToken.safeTransfer(address(msg.sender), _amount) */\n      tag_207\n        /* \"contracts/NFTMasterChef.sol\":35391:35401  msg.sender */\n      caller\n        /* \"contracts/NFTMasterChef.sol\":35404:35411  _amount */\n      dup6\n        /* \"contracts/NFTMasterChef.sol\":35357:35361  pool */\n      dup6\n        /* \"contracts/NFTMasterChef.sol\":35357:35369  pool.lpToken */\n      0x00\n      add\n      0x00\n      swap1\n      sload\n      swap1\n      0x0100\n      exp\n      swap1\n      div\n      0xffffffffffffffffffffffffffffffffffffffff\n      and\n        /* \"contracts/NFTMasterChef.sol\":35357:35382  pool.lpToken.safeTransfer */\n      0xffffffffffffffffffffffffffffffffffffffff\n      and\n      tag_208\n      swap1\n        /* \"contracts/NFTMasterChef.sol\":35357:35412  pool.lpToken.safeTransfer(address(msg.sender), _amount) */\n      swap3\n      swap2\n      swap1\n      0xffffffff\n      and\n      jump\t// in\n    tag_207:\n        /* \"contracts/NFTMasterChef.sol\":35273:35424  if(_amount > 0) {\r... */\n    tag_205:\n        /* \"contracts/NFTMasterChef.sol\":35452:35500  user.amount.mul(pool.accPowerPerShare).div(1e12) */\n      tag_209\n        /* \"contracts/NFTMasterChef.sol\":35495:35499  1e12 */\n      0xe8d4a51000\n        /* \"contracts/NFTMasterChef.sol\":35452:35490  user.amount.mul(pool.accPowerPerShare) */\n      tag_210\n        /* \"contracts/NFTMasterChef.sol\":35468:35472  pool */\n      dup6\n        /* \"contracts/NFTMasterChef.sol\":35468:35489  pool.accPowerPerShare */\n      0x03\n      add\n      sload\n        /* \"contracts/NFTMasterChef.sol\":35452:35456  user */\n      dup6\n        /* \"contracts/NFTMasterChef.sol\":35452:35463  user.amount */\n      0x00\n      add\n      sload\n        /* \"contracts/NFTMasterChef.sol\":35452:35467  user.amount.mul */\n      tag_199\n      swap1\n        /* \"contracts/NFTMasterChef.sol\":35452:35490  user.amount.mul(pool.accPowerPerShare) */\n      swap2\n      swap1\n      0xffffffff\n      and\n      jump\t// in\n    tag_210:\n        /* \"contracts/NFTMasterChef.sol\":35452:35494  user.amount.mul(pool.accPowerPerShare).div */\n      tag_200\n      swap1\n        /* \"contracts/NFTMasterChef.sol\":35452:35500  user.amount.mul(pool.accPowerPerShare).div(1e12) */\n      swap2\n      swap1\n      0xffffffff\n      and\n      jump\t// in\n    tag_209:\n        /* \"contracts/NFTMasterChef.sol\":35434:35438  user */\n      dup3\n        /* \"contracts/NFTMasterChef.sol\":35434:35449  user.rewardDebt */\n      0x01\n      add\n        /* \"contracts/NFTMasterChef.sol\":35434:35500  user.rewardDebt = user.amount.mul(pool.accPowerPerShare).div(1e12) */\n      dup2\n      swap1\n      sstore\n      pop\n        /* \"contracts/NFTMasterChef.sol\":35537:35538  0 */\n      0x00\n        /* \"contracts/NFTMasterChef.sol\":35525:35535  msg.sender */\n      caller\n        /* \"contracts/NFTMasterChef.sol\":35516:35548  Withdraw(msg.sender, 0, _amount) */\n      0xffffffffffffffffffffffffffffffffffffffff\n      and\n      0xf279e6a1f5e320cca91135676d9cb6e44ca8a08c0b88342bcdb1144f6511b568\n        /* \"contracts/NFTMasterChef.sol\":35540:35547  _amount */\n      dup7\n        /* \"contracts/NFTMasterChef.sol\":35516:35548  Withdraw(msg.sender, 0, _amount) */\n      mload(0x40)\n      tag_211\n      swap2\n      swap1\n      tag_50\n      jump\t// in\n    tag_211:\n      mload(0x40)\n      dup1\n      swap2\n      sub\n      swap1\n      log3\n        /* \"contracts/NFTMasterChef.sol\":34855:35556  {\r... */\n      pop\n      pop\n      pop\n        /* \"contracts/NFTMasterChef.sol\":34809:35556  function leaveStaking(uint256 _amount) public {\r... */\n      pop\n      jump\t// out\n        /* \"contracts/NFTMasterChef.sol\":23943:23969  PoolInfo[] public poolInfo */\n    tag_61:\n      0x06\n      dup2\n      dup2\n      sload\n      dup2\n      lt\n      tag_212\n      jumpi\n      0x00\n      dup1\n      revert\n    tag_212:\n      swap1\n      0x00\n      mstore\n      keccak256(0x00, 0x20)\n      swap1\n      0x04\n      mul\n      add\n      0x00\n      swap2\n      pop\n      swap1\n      pop\n      dup1\n      0x00\n      add\n      0x00\n      swap1\n      sload\n      swap1\n      0x0100\n      exp\n      swap1\n      div\n      0xffffffffffffffffffffffffffffffffffffffff\n      and\n      swap1\n      dup1\n      0x01\n      add\n      sload\n      swap1\n      dup1\n      0x02\n      add\n      sload\n      swap1\n      dup1\n      0x03\n      add\n      sload\n      swap1\n      pop\n      dup5\n      jump\t// out\n        /* \"contracts/NFTMasterChef.sol\":24184:24218  uint256 public totalAllocPoint = 0 */\n    tag_65:\n      sload(0x08)\n      dup2\n      jump\t// out\n        /* \"contracts/NFTMasterChef.sol\":25792:27060  function claimNFTReward(uint256 level, uint256 _pid) public {\r... */\n    tag_70:\n        /* \"contracts/NFTMasterChef.sol\":25863:25884  PoolInfo storage pool */\n      0x00\n        /* \"contracts/NFTMasterChef.sol\":25887:25895  poolInfo */\n      0x06\n        /* \"contracts/NFTMasterChef.sol\":25896:25900  _pid */\n      dup3\n        /* \"contracts/NFTMasterChef.sol\":25887:25901  poolInfo[_pid] */\n      dup2\n      sload\n      dup2\n      lt\n      tag_215\n      jumpi\n      tag_216\n      tag_190\n      jump\t// in\n    tag_216:\n    tag_215:\n      swap1\n      0x00\n      mstore\n      keccak256(0x00, 0x20)\n      swap1\n      0x04\n      mul\n      add\n        /* \"contracts/NFTMasterChef.sol\":25863:25901  PoolInfo storage pool = poolInfo[_pid] */\n      swap1\n      pop\n        /* \"contracts/NFTMasterChef.sol\":25912:25933  UserInfo storage user */\n      0x00\n        /* \"contracts/NFTMasterChef.sol\":25936:25944  userInfo */\n      0x07\n        /* \"contracts/NFTMasterChef.sol\":25936:25950  userInfo[_pid] */\n      0x00\n        /* \"contracts/NFTMasterChef.sol\":25945:25949  _pid */\n      dup5\n        /* \"contracts/NFTMasterChef.sol\":25936:25950  userInfo[_pid] */\n      dup2\n      mstore\n      0x20\n      add\n      swap1\n      dup2\n      mstore\n      0x20\n      add\n      0x00\n      keccak256\n        /* \"contracts/NFTMasterChef.sol\":25936:25962  userInfo[_pid][msg.sender] */\n      0x00\n        /* \"contracts/NFTMasterChef.sol\":25951:25961  msg.sender */\n      caller\n        /* \"contracts/NFTMasterChef.sol\":25936:25962  userInfo[_pid][msg.sender] */\n      0xffffffffffffffffffffffffffffffffffffffff\n      and\n      0xffffffffffffffffffffffffffffffffffffffff\n      and\n      dup2\n      mstore\n      0x20\n      add\n      swap1\n      dup2\n      mstore\n      0x20\n      add\n      0x00\n      keccak256\n        /* \"contracts/NFTMasterChef.sol\":25912:25962  UserInfo storage user = userInfo[_pid][msg.sender] */\n      swap1\n      pop\n        /* \"contracts/NFTMasterChef.sol\":25973:25997  uint256 accPowerPerShare */\n      0x00\n        /* \"contracts/NFTMasterChef.sol\":26000:26004  pool */\n      dup3\n        /* \"contracts/NFTMasterChef.sol\":26000:26021  pool.accPowerPerShare */\n      0x03\n      add\n      sload\n        /* \"contracts/NFTMasterChef.sol\":25973:26021  uint256 accPowerPerShare = pool.accPowerPerShare */\n      swap1\n      pop\n        /* \"contracts/NFTMasterChef.sol\":26032:26048  uint256 lpSupply */\n      0x00\n        /* \"contracts/NFTMasterChef.sol\":26051:26055  pool */\n      dup4\n        /* \"contracts/NFTMasterChef.sol\":26051:26063  pool.lpToken */\n      0x00\n      add\n      0x00\n      swap1\n      sload\n      swap1\n      0x0100\n      exp\n      swap1\n      div\n      0xffffffffffffffffffffffffffffffffffffffff\n      and\n        /* \"contracts/NFTMasterChef.sol\":26051:26073  pool.lpToken.balanceOf */\n      0xffffffffffffffffffffffffffffffffffffffff\n      and\n      0x70a08231\n        /* \"contracts/NFTMasterChef.sol\":26082:26086  this */\n      address\n        /* \"contracts/NFTMasterChef.sol\":26051:26088  pool.lpToken.balanceOf(address(this)) */\n      mload(0x40)\n      dup3\n      0xffffffff\n      and\n      0xe0\n      shl\n      dup2\n      mstore\n      0x04\n      add\n      tag_218\n      swap2\n      swap1\n      tag_126\n      jump\t// in\n    tag_218:\n      0x20\n      mload(0x40)\n      dup1\n      dup4\n      sub\n      dup2\n      dup7\n      dup1\n      extcodesize\n      iszero\n      dup1\n      iszero\n      tag_219\n      jumpi\n      0x00\n      dup1\n      revert\n    tag_219:\n      pop\n      gas\n      staticcall\n      iszero\n      dup1\n      iszero\n      tag_221\n      jumpi\n      returndatasize\n      0x00\n      dup1\n      returndatacopy\n      revert(0x00, returndatasize)\n    tag_221:\n      pop\n      pop\n      pop\n      pop\n      mload(0x40)\n      returndatasize\n      not(0x1f)\n      0x1f\n      dup3\n      add\n      and\n      dup3\n      add\n      dup1\n      0x40\n      mstore\n      pop\n      dup2\n      add\n      swap1\n      tag_222\n      swap2\n      swap1\n      tag_223\n      jump\t// in\n    tag_222:\n        /* \"contracts/NFTMasterChef.sol\":26032:26088  uint256 lpSupply = pool.lpToken.balanceOf(address(this)) */\n      swap1\n      pop\n        /* \"contracts/NFTMasterChef.sol\":26118:26122  pool */\n      dup4\n        /* \"contracts/NFTMasterChef.sol\":26118:26138  pool.lastRewardBlock */\n      0x02\n      add\n      sload\n        /* \"contracts/NFTMasterChef.sol\":26103:26115  block.number */\n      number\n        /* \"contracts/NFTMasterChef.sol\":26103:26138  block.number > pool.lastRewardBlock */\n      gt\n        /* \"contracts/NFTMasterChef.sol\":26103:26155  block.number > pool.lastRewardBlock && lpSupply != 0 */\n      dup1\n      iszero\n      tag_224\n      jumpi\n      pop\n        /* \"contracts/NFTMasterChef.sol\":26154:26155  0 */\n      0x00\n        /* \"contracts/NFTMasterChef.sol\":26142:26150  lpSupply */\n      dup2\n        /* \"contracts/NFTMasterChef.sol\":26142:26155  lpSupply != 0 */\n      eq\n      iszero\n        /* \"contracts/NFTMasterChef.sol\":26103:26155  block.number > pool.lastRewardBlock && lpSupply != 0 */\n    tag_224:\n        /* \"contracts/NFTMasterChef.sol\":26099:26453  if (block.number > pool.lastRewardBlock && lpSupply != 0) {\r... */\n      iszero\n      tag_225\n      jumpi\n        /* \"contracts/NFTMasterChef.sol\":26172:26190  uint256 multiplier */\n      0x00\n        /* \"contracts/NFTMasterChef.sol\":26193:26242  getMultiplier(pool.lastRewardBlock, block.number) */\n      tag_226\n        /* \"contracts/NFTMasterChef.sol\":26207:26211  pool */\n      dup6\n        /* \"contracts/NFTMasterChef.sol\":26207:26227  pool.lastRewardBlock */\n      0x02\n      add\n      sload\n        /* \"contracts/NFTMasterChef.sol\":26229:26241  block.number */\n      number\n        /* \"contracts/NFTMasterChef.sol\":26193:26206  getMultiplier */\n      tag_146\n        /* \"contracts/NFTMasterChef.sol\":26193:26242  getMultiplier(pool.lastRewardBlock, block.number) */\n      jump\t// in\n    tag_226:\n        /* \"contracts/NFTMasterChef.sol\":26172:26242  uint256 multiplier = getMultiplier(pool.lastRewardBlock, block.number) */\n      swap1\n      pop\n        /* \"contracts/NFTMasterChef.sol\":26257:26276  uint256 PowerReward */\n      0x00\n        /* \"contracts/NFTMasterChef.sol\":26279:26350  multiplier.mul(PowerPerBlock).mul(pool.allocPoint).div(totalAllocPoint) */\n      tag_227\n        /* \"contracts/NFTMasterChef.sol\":26334:26349  totalAllocPoint */\n      sload(0x08)\n        /* \"contracts/NFTMasterChef.sol\":26279:26329  multiplier.mul(PowerPerBlock).mul(pool.allocPoint) */\n      tag_228\n        /* \"contracts/NFTMasterChef.sol\":26313:26317  pool */\n      dup9\n        /* \"contracts/NFTMasterChef.sol\":26313:26328  pool.allocPoint */\n      0x01\n      add\n      sload\n        /* \"contracts/NFTMasterChef.sol\":26279:26308  multiplier.mul(PowerPerBlock) */\n      tag_229\n        /* \"contracts/NFTMasterChef.sol\":26294:26307  PowerPerBlock */\n      sload(0x03)\n        /* \"contracts/NFTMasterChef.sol\":26279:26289  multiplier */\n      dup8\n        /* \"contracts/NFTMasterChef.sol\":26279:26293  multiplier.mul */\n      tag_199\n      swap1\n        /* \"contracts/NFTMasterChef.sol\":26279:26308  multiplier.mul(PowerPerBlock) */\n      swap2\n      swap1\n      0xffffffff\n      and\n      jump\t// in\n    tag_229:\n        /* \"contracts/NFTMasterChef.sol\":26279:26312  multiplier.mul(PowerPerBlock).mul */\n      tag_199\n      swap1\n        /* \"contracts/NFTMasterChef.sol\":26279:26329  multiplier.mul(PowerPerBlock).mul(pool.allocPoint) */\n      swap2\n      swap1\n      0xffffffff\n      and\n      jump\t// in\n    tag_228:\n        /* \"contracts/NFTMasterChef.sol\":26279:26333  multiplier.mul(PowerPerBlock).mul(pool.allocPoint).div */\n      tag_200\n      swap1\n        /* \"contracts/NFTMasterChef.sol\":26279:26350  multiplier.mul(PowerPerBlock).mul(pool.allocPoint).div(totalAllocPoint) */\n      swap2\n      swap1\n      0xffffffff\n      and\n      jump\t// in\n    tag_227:\n        /* \"contracts/NFTMasterChef.sol\":26257:26350  uint256 PowerReward = multiplier.mul(PowerPerBlock).mul(pool.allocPoint).div(totalAllocPoint) */\n      swap1\n      pop\n        /* \"contracts/NFTMasterChef.sol\":26384:26441  accPowerPerShare.add(PowerReward.mul(1e12).div(lpSupply)) */\n      tag_230\n        /* \"contracts/NFTMasterChef.sol\":26405:26440  PowerReward.mul(1e12).div(lpSupply) */\n      tag_231\n        /* \"contracts/NFTMasterChef.sol\":26431:26439  lpSupply */\n      dup5\n        /* \"contracts/NFTMasterChef.sol\":26405:26426  PowerReward.mul(1e12) */\n      tag_232\n        /* \"contracts/NFTMasterChef.sol\":26421:26425  1e12 */\n      0xe8d4a51000\n        /* \"contracts/NFTMasterChef.sol\":26405:26416  PowerReward */\n      dup6\n        /* \"contracts/NFTMasterChef.sol\":26405:26420  PowerReward.mul */\n      tag_199\n      swap1\n        /* \"contracts/NFTMasterChef.sol\":26405:26426  PowerReward.mul(1e12) */\n      swap2\n      swap1\n      0xffffffff\n      and\n      jump\t// in\n    tag_232:\n        /* \"contracts/NFTMasterChef.sol\":26405:26430  PowerReward.mul(1e12).div */\n      tag_200\n      swap1\n        /* \"contracts/NFTMasterChef.sol\":26405:26440  PowerReward.mul(1e12).div(lpSupply) */\n      swap2\n      swap1\n      0xffffffff\n      and\n      jump\t// in\n    tag_231:\n        /* \"contracts/NFTMasterChef.sol\":26384:26400  accPowerPerShare */\n      dup6\n        /* \"contracts/NFTMasterChef.sol\":26384:26404  accPowerPerShare.add */\n      tag_204\n      swap1\n        /* \"contracts/NFTMasterChef.sol\":26384:26441  accPowerPerShare.add(PowerReward.mul(1e12).div(lpSupply)) */\n      swap2\n      swap1\n      0xffffffff\n      and\n      jump\t// in\n    tag_230:\n        /* \"contracts/NFTMasterChef.sol\":26365:26441  accPowerPerShare = accPowerPerShare.add(PowerReward.mul(1e12).div(lpSupply)) */\n      swap4\n      pop\n        /* \"contracts/NFTMasterChef.sol\":26157:26453  {\r... */\n      pop\n      pop\n        /* \"contracts/NFTMasterChef.sol\":26099:26453  if (block.number > pool.lastRewardBlock && lpSupply != 0) {\r... */\n    tag_225:\n        /* \"contracts/NFTMasterChef.sol\":26463:26478  uint256 pending */\n      0x00\n        /* \"contracts/NFTMasterChef.sol\":26481:26545  user.amount.mul(accPowerPerShare).div(1e12).sub(user.rewardDebt) */\n      tag_233\n        /* \"contracts/NFTMasterChef.sol\":26529:26533  user */\n      dup5\n        /* \"contracts/NFTMasterChef.sol\":26529:26544  user.rewardDebt */\n      0x01\n      add\n      sload\n        /* \"contracts/NFTMasterChef.sol\":26481:26524  user.amount.mul(accPowerPerShare).div(1e12) */\n      tag_234\n        /* \"contracts/NFTMasterChef.sol\":26519:26523  1e12 */\n      0xe8d4a51000\n        /* \"contracts/NFTMasterChef.sol\":26481:26514  user.amount.mul(accPowerPerShare) */\n      tag_235\n        /* \"contracts/NFTMasterChef.sol\":26497:26513  accPowerPerShare */\n      dup8\n        /* \"contracts/NFTMasterChef.sol\":26481:26485  user */\n      dup10\n        /* \"contracts/NFTMasterChef.sol\":26481:26492  user.amount */\n      0x00\n      add\n      sload\n        /* \"contracts/NFTMasterChef.sol\":26481:26496  user.amount.mul */\n      tag_199\n      swap1\n        /* \"contracts/NFTMasterChef.sol\":26481:26514  user.amount.mul(accPowerPerShare) */\n      swap2\n      swap1\n      0xffffffff\n      and\n      jump\t// in\n    tag_235:\n        /* \"contracts/NFTMasterChef.sol\":26481:26518  user.amount.mul(accPowerPerShare).div */\n      tag_200\n      swap1\n        /* \"contracts/NFTMasterChef.sol\":26481:26524  user.amount.mul(accPowerPerShare).div(1e12) */\n      swap2\n      swap1\n      0xffffffff\n      and\n      jump\t// in\n    tag_234:\n        /* \"contracts/NFTMasterChef.sol\":26481:26528  user.amount.mul(accPowerPerShare).div(1e12).sub */\n      tag_201\n      swap1\n        /* \"contracts/NFTMasterChef.sol\":26481:26545  user.amount.mul(accPowerPerShare).div(1e12).sub(user.rewardDebt) */\n      swap2\n      swap1\n      0xffffffff\n      and\n      jump\t// in\n    tag_233:\n        /* \"contracts/NFTMasterChef.sol\":26463:26545  uint256 pending = user.amount.mul(accPowerPerShare).div(1e12).sub(user.rewardDebt) */\n      swap1\n      pop\n        /* \"contracts/NFTMasterChef.sol\":26556:26576  NFTsInfo storage nft */\n      0x00\n        /* \"contracts/NFTMasterChef.sol\":26579:26587  nftsInfo */\n      0x01\n        /* \"contracts/NFTMasterChef.sol\":26588:26593  level */\n      dup9\n        /* \"contracts/NFTMasterChef.sol\":26579:26594  nftsInfo[level] */\n      dup2\n      sload\n      dup2\n      lt\n      tag_236\n      jumpi\n      tag_237\n      tag_190\n      jump\t// in\n    tag_237:\n    tag_236:\n      swap1\n      0x00\n      mstore\n      keccak256(0x00, 0x20)\n      swap1\n      0x02\n      mul\n      add\n        /* \"contracts/NFTMasterChef.sol\":26556:26594  NFTsInfo storage nft = nftsInfo[level] */\n      swap1\n      pop\n        /* \"contracts/NFTMasterChef.sol\":26605:26618  uint256 total */\n      0x00\n        /* \"contracts/NFTMasterChef.sol\":26621:26658  pending.add(powerBalance[msg.sender]) */\n      tag_239\n        /* \"contracts/NFTMasterChef.sol\":26633:26645  powerBalance */\n      0x0c\n        /* \"contracts/NFTMasterChef.sol\":26633:26657  powerBalance[msg.sender] */\n      0x00\n        /* \"contracts/NFTMasterChef.sol\":26646:26656  msg.sender */\n      caller\n        /* \"contracts/NFTMasterChef.sol\":26633:26657  powerBalance[msg.sender] */\n      0xffffffffffffffffffffffffffffffffffffffff\n      and\n      0xffffffffffffffffffffffffffffffffffffffff\n      and\n      dup2\n      mstore\n      0x20\n      add\n      swap1\n      dup2\n      mstore\n      0x20\n      add\n      0x00\n      keccak256\n      sload\n        /* \"contracts/NFTMasterChef.sol\":26621:26628  pending */\n      dup5\n        /* \"contracts/NFTMasterChef.sol\":26621:26632  pending.add */\n      tag_204\n      swap1\n        /* \"contracts/NFTMasterChef.sol\":26621:26658  pending.add(powerBalance[msg.sender]) */\n      swap2\n      swap1\n      0xffffffff\n      and\n      jump\t// in\n    tag_239:\n        /* \"contracts/NFTMasterChef.sol\":26605:26658  uint256 total = pending.add(powerBalance[msg.sender]) */\n      swap1\n      pop\n        /* \"contracts/NFTMasterChef.sol\":26680:26683  nft */\n      dup2\n        /* \"contracts/NFTMasterChef.sol\":26680:26689  nft.power */\n      0x01\n      add\n      sload\n        /* \"contracts/NFTMasterChef.sol\":26672:26677  total */\n      dup2\n        /* \"contracts/NFTMasterChef.sol\":26672:26689  total > nft.power */\n      gt\n        /* \"contracts/NFTMasterChef.sol\":26669:26857  if(total > nft.power){\r... */\n      iszero\n      tag_240\n      jumpi\n        /* \"contracts/NFTMasterChef.sol\":26716:26717  0 */\n      0x00\n        /* \"contracts/NFTMasterChef.sol\":26708:26712  _pid */\n      dup9\n        /* \"contracts/NFTMasterChef.sol\":26708:26717  _pid == 0 */\n      eq\n        /* \"contracts/NFTMasterChef.sol\":26705:26768  if(_pid == 0){\r... */\n      iszero\n      tag_241\n      jumpi\n        /* \"contracts/NFTMasterChef.sol\":26737:26752  leaveStaking(0) */\n      tag_242\n        /* \"contracts/NFTMasterChef.sol\":26750:26751  0 */\n      0x00\n        /* \"contracts/NFTMasterChef.sol\":26737:26749  leaveStaking */\n      tag_58\n        /* \"contracts/NFTMasterChef.sol\":26737:26752  leaveStaking(0) */\n      jump\t// in\n    tag_242:\n        /* \"contracts/NFTMasterChef.sol\":26705:26768  if(_pid == 0){\r... */\n    tag_241:\n        /* \"contracts/NFTMasterChef.sol\":26793:26794  0 */\n      0x00\n        /* \"contracts/NFTMasterChef.sol\":26785:26789  _pid */\n      dup9\n        /* \"contracts/NFTMasterChef.sol\":26785:26794  _pid != 0 */\n      eq\n        /* \"contracts/NFTMasterChef.sol\":26782:26846  if(_pid != 0){\r... */\n      tag_243\n      jumpi\n        /* \"contracts/NFTMasterChef.sol\":26814:26830  withdraw(_pid,0) */\n      tag_244\n        /* \"contracts/NFTMasterChef.sol\":26823:26827  _pid */\n      dup9\n        /* \"contracts/NFTMasterChef.sol\":26828:26829  0 */\n      0x00\n        /* \"contracts/NFTMasterChef.sol\":26814:26822  withdraw */\n      tag_87\n        /* \"contracts/NFTMasterChef.sol\":26814:26830  withdraw(_pid,0) */\n      jump\t// in\n    tag_244:\n        /* \"contracts/NFTMasterChef.sol\":26782:26846  if(_pid != 0){\r... */\n    tag_243:\n        /* \"contracts/NFTMasterChef.sol\":26669:26857  if(total > nft.power){\r... */\n    tag_240:\n        /* \"contracts/NFTMasterChef.sol\":26887:26899  powerBalance */\n      0x0c\n        /* \"contracts/NFTMasterChef.sol\":26887:26911  powerBalance[msg.sender] */\n      0x00\n        /* \"contracts/NFTMasterChef.sol\":26900:26910  msg.sender */\n      caller\n        /* \"contracts/NFTMasterChef.sol\":26887:26911  powerBalance[msg.sender] */\n      0xffffffffffffffffffffffffffffffffffffffff\n      and\n      0xffffffffffffffffffffffffffffffffffffffff\n      and\n      dup2\n      mstore\n      0x20\n      add\n      swap1\n      dup2\n      mstore\n      0x20\n      add\n      0x00\n      keccak256\n      sload\n        /* \"contracts/NFTMasterChef.sol\":26875:26878  nft */\n      dup3\n        /* \"contracts/NFTMasterChef.sol\":26875:26884  nft.power */\n      0x01\n      add\n      sload\n        /* \"contracts/NFTMasterChef.sol\":26875:26911  nft.power < powerBalance[msg.sender] */\n      lt\n        /* \"contracts/NFTMasterChef.sol\":26867:26935  require(nft.power < powerBalance[msg.sender], \"Power is not enough\") */\n      tag_245\n      jumpi\n      mload(0x40)\n      0x08c379a000000000000000000000000000000000000000000000000000000000\n      dup2\n      mstore\n      0x04\n      add\n      tag_246\n      swap1\n      tag_247\n      jump\t// in\n    tag_246:\n      mload(0x40)\n      dup1\n      swap2\n      sub\n      swap1\n      revert\n    tag_245:\n        /* \"contracts/NFTMasterChef.sol\":26973:27012  powerBalance[msg.sender].sub(nft.power) */\n      tag_248\n        /* \"contracts/NFTMasterChef.sol\":27002:27005  nft */\n      dup3\n        /* \"contracts/NFTMasterChef.sol\":27002:27011  nft.power */\n      0x01\n      add\n      sload\n        /* \"contracts/NFTMasterChef.sol\":26973:26985  powerBalance */\n      0x0c\n        /* \"contracts/NFTMasterChef.sol\":26973:26997  powerBalance[msg.sender] */\n      0x00\n        /* \"contracts/NFTMasterChef.sol\":26986:26996  msg.sender */\n      caller\n        /* \"contracts/NFTMasterChef.sol\":26973:26997  powerBalance[msg.sender] */\n      0xffffffffffffffffffffffffffffffffffffffff\n      and\n      0xffffffffffffffffffffffffffffffffffffffff\n      and\n      dup2\n      mstore\n      0x20\n      add\n      swap1\n      dup2\n      mstore\n      0x20\n      add\n      0x00\n      keccak256\n      sload\n        /* \"contracts/NFTMasterChef.sol\":26973:27001  powerBalance[msg.sender].sub */\n      tag_201\n      swap1\n        /* \"contracts/NFTMasterChef.sol\":26973:27012  powerBalance[msg.sender].sub(nft.power) */\n      swap2\n      swap1\n      0xffffffff\n      and\n      jump\t// in\n    tag_248:\n        /* \"contracts/NFTMasterChef.sol\":26946:26958  powerBalance */\n      0x0c\n        /* \"contracts/NFTMasterChef.sol\":26946:26970  powerBalance[msg.sender] */\n      0x00\n        /* \"contracts/NFTMasterChef.sol\":26959:26969  msg.sender */\n      caller\n        /* \"contracts/NFTMasterChef.sol\":26946:26970  powerBalance[msg.sender] */\n      0xffffffffffffffffffffffffffffffffffffffff\n      and\n      0xffffffffffffffffffffffffffffffffffffffff\n      and\n      dup2\n      mstore\n      0x20\n      add\n      swap1\n      dup2\n      mstore\n      0x20\n      add\n      0x00\n      keccak256\n        /* \"contracts/NFTMasterChef.sol\":26946:27012  powerBalance[msg.sender] = powerBalance[msg.sender].sub(nft.power) */\n      dup2\n      swap1\n      sstore\n      pop\n        /* \"contracts/NFTMasterChef.sol\":27023:27026  nft */\n      dup2\n        /* \"contracts/NFTMasterChef.sol\":27023:27030  nft.NFT */\n      0x00\n      add\n      0x00\n      swap1\n      sload\n      swap1\n      0x0100\n      exp\n      swap1\n      div\n      0xffffffffffffffffffffffffffffffffffffffff\n      and\n        /* \"contracts/NFTMasterChef.sol\":27023:27040  nft.NFT.createNFT */\n      0xffffffffffffffffffffffffffffffffffffffff\n      and\n      0x17e5883c\n        /* \"contracts/NFTMasterChef.sol\":27041:27051  msg.sender */\n      caller\n        /* \"contracts/NFTMasterChef.sol\":27023:27052  nft.NFT.createNFT(msg.sender) */\n      mload(0x40)\n      dup3\n      0xffffffff\n      and\n      0xe0\n      shl\n      dup2\n      mstore\n      0x04\n      add\n      tag_249\n      swap2\n      swap1\n      tag_126\n      jump\t// in\n    tag_249:\n      0x00\n      mload(0x40)\n      dup1\n      dup4\n      sub\n      dup2\n      0x00\n      dup8\n      dup1\n      extcodesize\n      iszero\n      dup1\n      iszero\n      tag_250\n      jumpi\n      0x00\n      dup1\n      revert\n    tag_250:\n      pop\n      gas\n      call\n      iszero\n      dup1\n      iszero\n      tag_252\n      jumpi\n      returndatasize\n      0x00\n      dup1\n      returndatacopy\n      revert(0x00, returndatasize)\n    tag_252:\n      pop\n      pop\n      pop\n      pop\n        /* \"contracts/NFTMasterChef.sol\":25852:27060  {\r... */\n      pop\n      pop\n      pop\n      pop\n      pop\n      pop\n      pop\n        /* \"contracts/NFTMasterChef.sol\":25792:27060  function claimNFTReward(uint256 level, uint256 _pid) public {\r... */\n      pop\n      pop\n      jump\t// out\n        /* \"contracts/NFTMasterChef.sol\":27463:28023  function add( uint256 _allocPoint, IERC20 _lpToken, bool _withUpdate ) public onlyOwner {\r... */\n    tag_74:\n        /* \"contracts/NFTMasterChef.sol\":20336:20348  _msgSender() */\n      tag_254\n        /* \"contracts/NFTMasterChef.sol\":20336:20346  _msgSender */\n      tag_181\n        /* \"contracts/NFTMasterChef.sol\":20336:20348  _msgSender() */\n      jump\t// in\n    tag_254:\n        /* \"contracts/NFTMasterChef.sol\":20325:20348  owner() == _msgSender() */\n      0xffffffffffffffffffffffffffffffffffffffff\n      and\n        /* \"contracts/NFTMasterChef.sol\":20325:20332  owner() */\n      tag_255\n        /* \"contracts/NFTMasterChef.sol\":20325:20330  owner */\n      tag_142\n        /* \"contracts/NFTMasterChef.sol\":20325:20332  owner() */\n      jump\t// in\n    tag_255:\n        /* \"contracts/NFTMasterChef.sol\":20325:20348  owner() == _msgSender() */\n      0xffffffffffffffffffffffffffffffffffffffff\n      and\n      eq\n        /* \"contracts/NFTMasterChef.sol\":20317:20385  require(owner() == _msgSender(), \"Ownable: caller is not the owner\") */\n      tag_256\n      jumpi\n      mload(0x40)\n      0x08c379a000000000000000000000000000000000000000000000000000000000\n      dup2\n      mstore\n      0x04\n      add\n      tag_257\n      swap1\n      tag_185\n      jump\t// in\n    tag_257:\n      mload(0x40)\n      dup1\n      swap2\n      sub\n      swap1\n      revert\n    tag_256:\n        /* \"contracts/NFTMasterChef.sol\":27566:27577  _withUpdate */\n      dup1\n        /* \"contracts/NFTMasterChef.sol\":27562:27623  if (_withUpdate) {\r... */\n      iszero\n      tag_259\n      jumpi\n        /* \"contracts/NFTMasterChef.sol\":27594:27611  massUpdatePools() */\n      tag_260\n        /* \"contracts/NFTMasterChef.sol\":27594:27609  massUpdatePools */\n      tag_116\n        /* \"contracts/NFTMasterChef.sol\":27594:27611  massUpdatePools() */\n      jump\t// in\n    tag_260:\n        /* \"contracts/NFTMasterChef.sol\":27562:27623  if (_withUpdate) {\r... */\n    tag_259:\n        /* \"contracts/NFTMasterChef.sol\":27633:27656  uint256 lastRewardBlock */\n      0x00\n        /* \"contracts/NFTMasterChef.sol\":27674:27684  startBlock */\n      sload(0x09)\n        /* \"contracts/NFTMasterChef.sol\":27659:27671  block.number */\n      number\n        /* \"contracts/NFTMasterChef.sol\":27659:27684  block.number > startBlock */\n      gt\n        /* \"contracts/NFTMasterChef.sol\":27659:27712  block.number > startBlock ? block.number : startBlock */\n      tag_261\n      jumpi\n        /* \"contracts/NFTMasterChef.sol\":27702:27712  startBlock */\n      sload(0x09)\n        /* \"contracts/NFTMasterChef.sol\":27659:27712  block.number > startBlock ? block.number : startBlock */\n      jump(tag_262)\n    tag_261:\n        /* \"contracts/NFTMasterChef.sol\":27687:27699  block.number */\n      number\n        /* \"contracts/NFTMasterChef.sol\":27659:27712  block.number > startBlock ? block.number : startBlock */\n    tag_262:\n        /* \"contracts/NFTMasterChef.sol\":27633:27712  uint256 lastRewardBlock = block.number > startBlock ? block.number : startBlock */\n      swap1\n      pop\n        /* \"contracts/NFTMasterChef.sol\":27741:27773  totalAllocPoint.add(_allocPoint) */\n      tag_263\n        /* \"contracts/NFTMasterChef.sol\":27761:27772  _allocPoint */\n      dup5\n        /* \"contracts/NFTMasterChef.sol\":27741:27756  totalAllocPoint */\n      sload(0x08)\n        /* \"contracts/NFTMasterChef.sol\":27741:27760  totalAllocPoint.add */\n      tag_204\n      swap1\n        /* \"contracts/NFTMasterChef.sol\":27741:27773  totalAllocPoint.add(_allocPoint) */\n      swap2\n      swap1\n      0xffffffff\n      and\n      jump\t// in\n    tag_263:\n        /* \"contracts/NFTMasterChef.sol\":27723:27738  totalAllocPoint */\n      0x08\n        /* \"contracts/NFTMasterChef.sol\":27723:27773  totalAllocPoint = totalAllocPoint.add(_allocPoint) */\n      dup2\n      swap1\n      sstore\n      pop\n        /* \"contracts/NFTMasterChef.sol\":27784:27792  poolInfo */\n      0x06\n        /* \"contracts/NFTMasterChef.sol\":27812:28004  PoolInfo({\r... */\n      mload(0x40)\n      dup1\n      0x80\n      add\n      0x40\n      mstore\n      dup1\n        /* \"contracts/NFTMasterChef.sol\":27849:27857  _lpToken */\n      dup6\n        /* \"contracts/NFTMasterChef.sol\":27812:28004  PoolInfo({\r... */\n      0xffffffffffffffffffffffffffffffffffffffff\n      and\n      dup2\n      mstore\n      0x20\n      add\n        /* \"contracts/NFTMasterChef.sol\":27888:27899  _allocPoint */\n      dup7\n        /* \"contracts/NFTMasterChef.sol\":27812:28004  PoolInfo({\r... */\n      dup2\n      mstore\n      0x20\n      add\n        /* \"contracts/NFTMasterChef.sol\":27935:27950  lastRewardBlock */\n      dup4\n        /* \"contracts/NFTMasterChef.sol\":27812:28004  PoolInfo({\r... */\n      dup2\n      mstore\n      0x20\n      add\n        /* \"contracts/NFTMasterChef.sol\":27987:27988  0 */\n      0x00\n        /* \"contracts/NFTMasterChef.sol\":27812:28004  PoolInfo({\r... */\n      dup2\n      mstore\n      pop\n        /* \"contracts/NFTMasterChef.sol\":27784:28015  poolInfo.push(\r... */\n      swap1\n      dup1\n      0x01\n      dup2\n      sload\n      add\n      dup1\n      dup3\n      sstore\n      dup1\n      swap2\n      pop\n      pop\n      0x01\n      swap1\n      sub\n      swap1\n      0x00\n      mstore\n      keccak256(0x00, 0x20)\n      swap1\n      0x04\n      mul\n      add\n      0x00\n      swap1\n      swap2\n      swap1\n      swap2\n      swap1\n      swap2\n      pop\n      0x00\n      dup3\n      add\n      mload\n      dup2\n      0x00\n      add\n      exp(0x0100, 0x00)\n      dup2\n      sload\n      dup2\n      0xffffffffffffffffffffffffffffffffffffffff\n      mul\n      not\n      and\n      swap1\n      dup4\n      0xffffffffffffffffffffffffffffffffffffffff\n      and\n      mul\n      or\n      swap1\n      sstore\n      pop\n      0x20\n      dup3\n      add\n      mload\n      dup2\n      0x01\n      add\n      sstore\n      0x40\n      dup3\n      add\n      mload\n      dup2\n      0x02\n      add\n      sstore\n      0x60\n      dup3\n      add\n      mload\n      dup2\n      0x03\n      add\n      sstore\n      pop\n      pop\n        /* \"contracts/NFTMasterChef.sol\":27551:28023  {\r... */\n      pop\n        /* \"contracts/NFTMasterChef.sol\":27463:28023  function add( uint256 _allocPoint, IERC20 _lpToken, bool _withUpdate ) public onlyOwner {\r... */\n      pop\n      pop\n      pop\n      jump\t// out\n        /* \"contracts/NFTMasterChef.sol\":28501:28603  function setMigrator(IMigratorChef _migrator) public onlyOwner {\r... */\n    tag_78:\n        /* \"contracts/NFTMasterChef.sol\":20336:20348  _msgSender() */\n      tag_266\n        /* \"contracts/NFTMasterChef.sol\":20336:20346  _msgSender */\n      tag_181\n        /* \"contracts/NFTMasterChef.sol\":20336:20348  _msgSender() */\n      jump\t// in\n    tag_266:\n        /* \"contracts/NFTMasterChef.sol\":20325:20348  owner() == _msgSender() */\n      0xffffffffffffffffffffffffffffffffffffffff\n      and\n        /* \"contracts/NFTMasterChef.sol\":20325:20332  owner() */\n      tag_267\n        /* \"contracts/NFTMasterChef.sol\":20325:20330  owner */\n      tag_142\n        /* \"contracts/NFTMasterChef.sol\":20325:20332  owner() */\n      jump\t// in\n    tag_267:\n        /* \"contracts/NFTMasterChef.sol\":20325:20348  owner() == _msgSender() */\n      0xffffffffffffffffffffffffffffffffffffffff\n      and\n      eq\n        /* \"contracts/NFTMasterChef.sol\":20317:20385  require(owner() == _msgSender(), \"Ownable: caller is not the owner\") */\n      tag_268\n      jumpi\n      mload(0x40)\n      0x08c379a000000000000000000000000000000000000000000000000000000000\n      dup2\n      mstore\n      0x04\n      add\n      tag_269\n      swap1\n      tag_185\n      jump\t// in\n    tag_269:\n      mload(0x40)\n      dup1\n      swap2\n      sub\n      swap1\n      revert\n    tag_268:\n        /* \"contracts/NFTMasterChef.sol\":28586:28595  _migrator */\n      dup1\n        /* \"contracts/NFTMasterChef.sol\":28575:28583  migrator */\n      0x05\n      0x00\n        /* \"contracts/NFTMasterChef.sol\":28575:28595  migrator = _migrator */\n      0x0100\n      exp\n      dup2\n      sload\n      dup2\n      0xffffffffffffffffffffffffffffffffffffffff\n      mul\n      not\n      and\n      swap1\n      dup4\n      0xffffffffffffffffffffffffffffffffffffffff\n      and\n      mul\n      or\n      swap1\n      sstore\n      pop\n        /* \"contracts/NFTMasterChef.sol\":28501:28603  function setMigrator(IMigratorChef _migrator) public onlyOwner {\r... */\n      pop\n      jump\t// out\n        /* \"contracts/NFTMasterChef.sol\":36003:36112  function updatePowerPerBlock(uint256 newAmount) public onlyOwner {\r... */\n    tag_81:\n        /* \"contracts/NFTMasterChef.sol\":20336:20348  _msgSender() */\n      tag_272\n        /* \"contracts/NFTMasterChef.sol\":20336:20346  _msgSender */\n      tag_181\n        /* \"contracts/NFTMasterChef.sol\":20336:20348  _msgSender() */\n      jump\t// in\n    tag_272:\n        /* \"contracts/NFTMasterChef.sol\":20325:20348  owner() == _msgSender() */\n      0xffffffffffffffffffffffffffffffffffffffff\n      and\n        /* \"contracts/NFTMasterChef.sol\":20325:20332  owner() */\n      tag_273\n        /* \"contracts/NFTMasterChef.sol\":20325:20330  owner */\n      tag_142\n        /* \"contracts/NFTMasterChef.sol\":20325:20332  owner() */\n      jump\t// in\n    tag_273:\n        /* \"contracts/NFTMasterChef.sol\":20325:20348  owner() == _msgSender() */\n      0xffffffffffffffffffffffffffffffffffffffff\n      and\n      eq\n        /* \"contracts/NFTMasterChef.sol\":20317:20385  require(owner() == _msgSender(), \"Ownable: caller is not the owner\") */\n      tag_274\n      jumpi\n      mload(0x40)\n      0x08c379a000000000000000000000000000000000000000000000000000000000\n      dup2\n      mstore\n      0x04\n      add\n      tag_275\n      swap1\n      tag_185\n      jump\t// in\n    tag_275:\n      mload(0x40)\n      dup1\n      swap2\n      sub\n      swap1\n      revert\n    tag_274:\n        /* \"contracts/NFTMasterChef.sol\":36095:36104  newAmount */\n      dup1\n        /* \"contracts/NFTMasterChef.sol\":36079:36092  PowerPerBlock */\n      0x03\n        /* \"contracts/NFTMasterChef.sol\":36079:36104  PowerPerBlock = newAmount */\n      dup2\n      swap1\n      sstore\n      pop\n        /* \"contracts/NFTMasterChef.sol\":36003:36112  function updatePowerPerBlock(uint256 newAmount) public onlyOwner {\r... */\n      pop\n      jump\t// out\n        /* \"contracts/NFTMasterChef.sol\":33056:33853  function enterStaking(uint256 _amount) public {\r... */\n    tag_84:\n        /* \"contracts/NFTMasterChef.sol\":33113:33134  PoolInfo storage pool */\n      0x00\n        /* \"contracts/NFTMasterChef.sol\":33137:33145  poolInfo */\n      0x06\n        /* \"contracts/NFTMasterChef.sol\":33146:33147  0 */\n      0x00\n        /* \"contracts/NFTMasterChef.sol\":33137:33148  poolInfo[0] */\n      dup2\n      sload\n      dup2\n      lt\n      tag_278\n      jumpi\n      tag_279\n      tag_190\n      jump\t// in\n    tag_279:\n    tag_278:\n      swap1\n      0x00\n      mstore\n      keccak256(0x00, 0x20)\n      swap1\n      0x04\n      mul\n      add\n        /* \"contracts/NFTMasterChef.sol\":33113:33148  PoolInfo storage pool = poolInfo[0] */\n      swap1\n      pop\n        /* \"contracts/NFTMasterChef.sol\":33159:33180  UserInfo storage user */\n      0x00\n        /* \"contracts/NFTMasterChef.sol\":33183:33191  userInfo */\n      0x07\n        /* \"contracts/NFTMasterChef.sol\":33183:33194  userInfo[0] */\n      0x00\n        /* \"contracts/NFTMasterChef.sol\":33192:33193  0 */\n      dup1\n        /* \"contracts/NFTMasterChef.sol\":33183:33194  userInfo[0] */\n      dup2\n      mstore\n      0x20\n      add\n      swap1\n      dup2\n      mstore\n      0x20\n      add\n      0x00\n      keccak256\n        /* \"contracts/NFTMasterChef.sol\":33183:33215  userInfo[0][address(msg.sender)] */\n      0x00\n        /* \"contracts/NFTMasterChef.sol\":33203:33213  msg.sender */\n      caller\n        /* \"contracts/NFTMasterChef.sol\":33183:33215  userInfo[0][address(msg.sender)] */\n      0xffffffffffffffffffffffffffffffffffffffff\n      and\n      0xffffffffffffffffffffffffffffffffffffffff\n      and\n      dup2\n      mstore\n      0x20\n      add\n      swap1\n      dup2\n      mstore\n      0x20\n      add\n      0x00\n      keccak256\n        /* \"contracts/NFTMasterChef.sol\":33159:33215  UserInfo storage user = userInfo[0][address(msg.sender)] */\n      swap1\n      pop\n        /* \"contracts/NFTMasterChef.sol\":33236:33249  updatePool(0) */\n      tag_281\n        /* \"contracts/NFTMasterChef.sol\":33247:33248  0 */\n      0x00\n        /* \"contracts/NFTMasterChef.sol\":33236:33246  updatePool */\n      tag_100\n        /* \"contracts/NFTMasterChef.sol\":33236:33249  updatePool(0) */\n      jump\t// in\n    tag_281:\n        /* \"contracts/NFTMasterChef.sol\":33278:33279  0 */\n      0x00\n        /* \"contracts/NFTMasterChef.sol\":33264:33268  user */\n      dup2\n        /* \"contracts/NFTMasterChef.sol\":33264:33275  user.amount */\n      0x00\n      add\n      sload\n        /* \"contracts/NFTMasterChef.sol\":33264:33279  user.amount > 0 */\n      gt\n        /* \"contracts/NFTMasterChef.sol\":33260:33542  if (user.amount > 0) {\r... */\n      iszero\n      tag_282\n      jumpi\n        /* \"contracts/NFTMasterChef.sol\":33296:33311  uint256 pending */\n      0x00\n        /* \"contracts/NFTMasterChef.sol\":33314:33383  user.amount.mul(pool.accPowerPerShare).div(1e12).sub(user.rewardDebt) */\n      tag_283\n        /* \"contracts/NFTMasterChef.sol\":33367:33371  user */\n      dup3\n        /* \"contracts/NFTMasterChef.sol\":33367:33382  user.rewardDebt */\n      0x01\n      add\n      sload\n        /* \"contracts/NFTMasterChef.sol\":33314:33362  user.amount.mul(pool.accPowerPerShare).div(1e12) */\n      tag_284\n        /* \"contracts/NFTMasterChef.sol\":33357:33361  1e12 */\n      0xe8d4a51000\n        /* \"contracts/NFTMasterChef.sol\":33314:33352  user.amount.mul(pool.accPowerPerShare) */\n      tag_285\n        /* \"contracts/NFTMasterChef.sol\":33330:33334  pool */\n      dup8\n        /* \"contracts/NFTMasterChef.sol\":33330:33351  pool.accPowerPerShare */\n      0x03\n      add\n      sload\n        /* \"contracts/NFTMasterChef.sol\":33314:33318  user */\n      dup8\n        /* \"contracts/NFTMasterChef.sol\":33314:33325  user.amount */\n      0x00\n      add\n      sload\n        /* \"contracts/NFTMasterChef.sol\":33314:33329  user.amount.mul */\n      tag_199\n      swap1\n        /* \"contracts/NFTMasterChef.sol\":33314:33352  user.amount.mul(pool.accPowerPerShare) */\n      swap2\n      swap1\n      0xffffffff\n      and\n      jump\t// in\n    tag_285:\n        /* \"contracts/NFTMasterChef.sol\":33314:33356  user.amount.mul(pool.accPowerPerShare).div */\n      tag_200\n      swap1\n        /* \"contracts/NFTMasterChef.sol\":33314:33362  user.amount.mul(pool.accPowerPerShare).div(1e12) */\n      swap2\n      swap1\n      0xffffffff\n      and\n      jump\t// in\n    tag_284:\n        /* \"contracts/NFTMasterChef.sol\":33314:33366  user.amount.mul(pool.accPowerPerShare).div(1e12).sub */\n      tag_201\n      swap1\n        /* \"contracts/NFTMasterChef.sol\":33314:33383  user.amount.mul(pool.accPowerPerShare).div(1e12).sub(user.rewardDebt) */\n      swap2\n      swap1\n      0xffffffff\n      and\n      jump\t// in\n    tag_283:\n        /* \"contracts/NFTMasterChef.sol\":33296:33383  uint256 pending = user.amount.mul(pool.accPowerPerShare).div(1e12).sub(user.rewardDebt) */\n      swap1\n      pop\n        /* \"contracts/NFTMasterChef.sol\":33411:33412  0 */\n      0x00\n        /* \"contracts/NFTMasterChef.sol\":33401:33408  pending */\n      dup2\n        /* \"contracts/NFTMasterChef.sol\":33401:33412  pending > 0 */\n      gt\n        /* \"contracts/NFTMasterChef.sol\":33398:33531  if(pending > 0) {\r... */\n      iszero\n      tag_286\n      jumpi\n        /* \"contracts/NFTMasterChef.sol\":33469:33515  powerBalance[address(msg.sender)].add(pending) */\n      tag_287\n        /* \"contracts/NFTMasterChef.sol\":33507:33514  pending */\n      dup2\n        /* \"contracts/NFTMasterChef.sol\":33469:33481  powerBalance */\n      0x0c\n        /* \"contracts/NFTMasterChef.sol\":33469:33502  powerBalance[address(msg.sender)] */\n      0x00\n        /* \"contracts/NFTMasterChef.sol\":33490:33500  msg.sender */\n      caller\n        /* \"contracts/NFTMasterChef.sol\":33469:33502  powerBalance[address(msg.sender)] */\n      0xffffffffffffffffffffffffffffffffffffffff\n      and\n      0xffffffffffffffffffffffffffffffffffffffff\n      and\n      dup2\n      mstore\n      0x20\n      add\n      swap1\n      dup2\n      mstore\n      0x20\n      add\n      0x00\n      keccak256\n      sload\n        /* \"contracts/NFTMasterChef.sol\":33469:33506  powerBalance[address(msg.sender)].add */\n      tag_204\n      swap1\n        /* \"contracts/NFTMasterChef.sol\":33469:33515  powerBalance[address(msg.sender)].add(pending) */\n      swap2\n      swap1\n      0xffffffff\n      and\n      jump\t// in\n    tag_287:\n        /* \"contracts/NFTMasterChef.sol\":33433:33445  powerBalance */\n      0x0c\n        /* \"contracts/NFTMasterChef.sol\":33433:33466  powerBalance[address(msg.sender)] */\n      0x00\n        /* \"contracts/NFTMasterChef.sol\":33454:33464  msg.sender */\n      caller\n        /* \"contracts/NFTMasterChef.sol\":33433:33466  powerBalance[address(msg.sender)] */\n      0xffffffffffffffffffffffffffffffffffffffff\n      and\n      0xffffffffffffffffffffffffffffffffffffffff\n      and\n      dup2\n      mstore\n      0x20\n      add\n      swap1\n      dup2\n      mstore\n      0x20\n      add\n      0x00\n      keccak256\n        /* \"contracts/NFTMasterChef.sol\":33433:33515  powerBalance[address(msg.sender)] = powerBalance[address(msg.sender)].add(pending) */\n      dup2\n      swap1\n      sstore\n      pop\n        /* \"contracts/NFTMasterChef.sol\":33398:33531  if(pending > 0) {\r... */\n    tag_286:\n        /* \"contracts/NFTMasterChef.sol\":33281:33542  {\r... */\n      pop\n        /* \"contracts/NFTMasterChef.sol\":33260:33542  if (user.amount > 0) {\r... */\n    tag_282:\n        /* \"contracts/NFTMasterChef.sol\":33565:33566  0 */\n      0x00\n        /* \"contracts/NFTMasterChef.sol\":33555:33562  _amount */\n      dup4\n        /* \"contracts/NFTMasterChef.sol\":33555:33566  _amount > 0 */\n      gt\n        /* \"contracts/NFTMasterChef.sol\":33552:33722  if(_amount > 0) {\r... */\n      iszero\n      tag_288\n      jumpi\n        /* \"contracts/NFTMasterChef.sol\":33583:33657  pool.lpToken.safeTransferFrom(address(msg.sender), address(this), _amount) */\n      tag_289\n        /* \"contracts/NFTMasterChef.sol\":33621:33631  msg.sender */\n      caller\n        /* \"contracts/NFTMasterChef.sol\":33642:33646  this */\n      address\n        /* \"contracts/NFTMasterChef.sol\":33649:33656  _amount */\n      dup6\n        /* \"contracts/NFTMasterChef.sol\":33583:33587  pool */\n      dup6\n        /* \"contracts/NFTMasterChef.sol\":33583:33595  pool.lpToken */\n      0x00\n      add\n      0x00\n      swap1\n      sload\n      swap1\n      0x0100\n      exp\n      swap1\n      div\n      0xffffffffffffffffffffffffffffffffffffffff\n      and\n        /* \"contracts/NFTMasterChef.sol\":33583:33612  pool.lpToken.safeTransferFrom */\n      0xffffffffffffffffffffffffffffffffffffffff\n      and\n      tag_290\n      swap1\n        /* \"contracts/NFTMasterChef.sol\":33583:33657  pool.lpToken.safeTransferFrom(address(msg.sender), address(this), _amount) */\n      swap4\n      swap3\n      swap2\n      swap1\n      0xffffffff\n      and\n      jump\t// in\n    tag_289:\n        /* \"contracts/NFTMasterChef.sol\":33686:33710  user.amount.add(_amount) */\n      tag_291\n        /* \"contracts/NFTMasterChef.sol\":33702:33709  _amount */\n      dup4\n        /* \"contracts/NFTMasterChef.sol\":33686:33690  user */\n      dup3\n        /* \"contracts/NFTMasterChef.sol\":33686:33697  user.amount */\n      0x00\n      add\n      sload\n        /* \"contracts/NFTMasterChef.sol\":33686:33701  user.amount.add */\n      tag_204\n      swap1\n        /* \"contracts/NFTMasterChef.sol\":33686:33710  user.amount.add(_amount) */\n      swap2\n      swap1\n      0xffffffff\n      and\n      jump\t// in\n    tag_291:\n        /* \"contracts/NFTMasterChef.sol\":33672:33676  user */\n      dup2\n        /* \"contracts/NFTMasterChef.sol\":33672:33683  user.amount */\n      0x00\n      add\n        /* \"contracts/NFTMasterChef.sol\":33672:33710  user.amount = user.amount.add(_amount) */\n      dup2\n      swap1\n      sstore\n      pop\n        /* \"contracts/NFTMasterChef.sol\":33552:33722  if(_amount > 0) {\r... */\n    tag_288:\n        /* \"contracts/NFTMasterChef.sol\":33750:33798  user.amount.mul(pool.accPowerPerShare).div(1e12) */\n      tag_292\n        /* \"contracts/NFTMasterChef.sol\":33793:33797  1e12 */\n      0xe8d4a51000\n        /* \"contracts/NFTMasterChef.sol\":33750:33788  user.amount.mul(pool.accPowerPerShare) */\n      tag_293\n        /* \"contracts/NFTMasterChef.sol\":33766:33770  pool */\n      dup5\n        /* \"contracts/NFTMasterChef.sol\":33766:33787  pool.accPowerPerShare */\n      0x03\n      add\n      sload\n        /* \"contracts/NFTMasterChef.sol\":33750:33754  user */\n      dup5\n        /* \"contracts/NFTMasterChef.sol\":33750:33761  user.amount */\n      0x00\n      add\n      sload\n        /* \"contracts/NFTMasterChef.sol\":33750:33765  user.amount.mul */\n      tag_199\n      swap1\n        /* \"contracts/NFTMasterChef.sol\":33750:33788  user.amount.mul(pool.accPowerPerShare) */\n      swap2\n      swap1\n      0xffffffff\n      and\n      jump\t// in\n    tag_293:\n        /* \"contracts/NFTMasterChef.sol\":33750:33792  user.amount.mul(pool.accPowerPerShare).div */\n      tag_200\n      swap1\n        /* \"contracts/NFTMasterChef.sol\":33750:33798  user.amount.mul(pool.accPowerPerShare).div(1e12) */\n      swap2\n      swap1\n      0xffffffff\n      and\n      jump\t// in\n    tag_292:\n        /* \"contracts/NFTMasterChef.sol\":33732:33736  user */\n      dup2\n        /* \"contracts/NFTMasterChef.sol\":33732:33747  user.rewardDebt */\n      0x01\n      add\n        /* \"contracts/NFTMasterChef.sol\":33732:33798  user.rewardDebt = user.amount.mul(pool.accPowerPerShare).div(1e12) */\n      dup2\n      swap1\n      sstore\n      pop\n        /* \"contracts/NFTMasterChef.sol\":33834:33835  0 */\n      0x00\n        /* \"contracts/NFTMasterChef.sol\":33822:33832  msg.sender */\n      caller\n        /* \"contracts/NFTMasterChef.sol\":33814:33845  Deposit(msg.sender, 0, _amount) */\n      0xffffffffffffffffffffffffffffffffffffffff\n      and\n      0x90890809c654f11d6e72a28fa60149770a0d11ec6c92319d6ceb2bb0a4ea1a15\n        /* \"contracts/NFTMasterChef.sol\":33837:33844  _amount */\n      dup6\n        /* \"contracts/NFTMasterChef.sol\":33814:33845  Deposit(msg.sender, 0, _amount) */\n      mload(0x40)\n      tag_294\n      swap2\n      swap1\n      tag_50\n      jump\t// in\n    tag_294:\n      mload(0x40)\n      dup1\n      swap2\n      sub\n      swap1\n      log3\n        /* \"contracts/NFTMasterChef.sol\":33102:33853  {\r... */\n      pop\n      pop\n        /* \"contracts/NFTMasterChef.sol\":33056:33853  function enterStaking(uint256 _amount) public {\r... */\n      pop\n      jump\t// out\n        /* \"contracts/NFTMasterChef.sol\":32216:33003  function withdraw(uint256 _pid, uint256 _amount) public {\r... */\n    tag_87:\n        /* \"contracts/NFTMasterChef.sol\":32302:32303  0 */\n      0x00\n        /* \"contracts/NFTMasterChef.sol\":32294:32298  _pid */\n      dup3\n        /* \"contracts/NFTMasterChef.sol\":32294:32303  _pid != 0 */\n      eq\n      iszero\n        /* \"contracts/NFTMasterChef.sol\":32285:32335  require (_pid != 0, 'withdraw Power by unstaking') */\n      tag_296\n      jumpi\n      mload(0x40)\n      0x08c379a000000000000000000000000000000000000000000000000000000000\n      dup2\n      mstore\n      0x04\n      add\n      tag_297\n      swap1\n      tag_298\n      jump\t// in\n    tag_297:\n      mload(0x40)\n      dup1\n      swap2\n      sub\n      swap1\n      revert\n    tag_296:\n        /* \"contracts/NFTMasterChef.sol\":32348:32369  PoolInfo storage pool */\n      0x00\n        /* \"contracts/NFTMasterChef.sol\":32372:32380  poolInfo */\n      0x06\n        /* \"contracts/NFTMasterChef.sol\":32381:32385  _pid */\n      dup4\n        /* \"contracts/NFTMasterChef.sol\":32372:32386  poolInfo[_pid] */\n      dup2\n      sload\n      dup2\n      lt\n      tag_299\n      jumpi\n      tag_300\n      tag_190\n      jump\t// in\n    tag_300:\n    tag_299:\n      swap1\n      0x00\n      mstore\n      keccak256(0x00, 0x20)\n      swap1\n      0x04\n      mul\n      add\n        /* \"contracts/NFTMasterChef.sol\":32348:32386  PoolInfo storage pool = poolInfo[_pid] */\n      swap1\n      pop\n        /* \"contracts/NFTMasterChef.sol\":32397:32418  UserInfo storage user */\n      0x00\n        /* \"contracts/NFTMasterChef.sol\":32421:32429  userInfo */\n      0x07\n        /* \"contracts/NFTMasterChef.sol\":32421:32435  userInfo[_pid] */\n      0x00\n        /* \"contracts/NFTMasterChef.sol\":32430:32434  _pid */\n      dup6\n        /* \"contracts/NFTMasterChef.sol\":32421:32435  userInfo[_pid] */\n      dup2\n      mstore\n      0x20\n      add\n      swap1\n      dup2\n      mstore\n      0x20\n      add\n      0x00\n      keccak256\n        /* \"contracts/NFTMasterChef.sol\":32421:32447  userInfo[_pid][msg.sender] */\n      0x00\n        /* \"contracts/NFTMasterChef.sol\":32436:32446  msg.sender */\n      caller\n        /* \"contracts/NFTMasterChef.sol\":32421:32447  userInfo[_pid][msg.sender] */\n      0xffffffffffffffffffffffffffffffffffffffff\n      and\n      0xffffffffffffffffffffffffffffffffffffffff\n      and\n      dup2\n      mstore\n      0x20\n      add\n      swap1\n      dup2\n      mstore\n      0x20\n      add\n      0x00\n      keccak256\n        /* \"contracts/NFTMasterChef.sol\":32397:32447  UserInfo storage user = userInfo[_pid][msg.sender] */\n      swap1\n      pop\n        /* \"contracts/NFTMasterChef.sol\":32481:32488  _amount */\n      dup3\n        /* \"contracts/NFTMasterChef.sol\":32466:32470  user */\n      dup2\n        /* \"contracts/NFTMasterChef.sol\":32466:32477  user.amount */\n      0x00\n      add\n      sload\n        /* \"contracts/NFTMasterChef.sol\":32466:32488  user.amount >= _amount */\n      lt\n      iszero\n        /* \"contracts/NFTMasterChef.sol\":32458:32511  require(user.amount >= _amount, \"withdraw: not good\") */\n      tag_302\n      jumpi\n      mload(0x40)\n      0x08c379a000000000000000000000000000000000000000000000000000000000\n      dup2\n      mstore\n      0x04\n      add\n      tag_303\n      swap1\n      tag_194\n      jump\t// in\n    tag_303:\n      mload(0x40)\n      dup1\n      swap2\n      sub\n      swap1\n      revert\n    tag_302:\n        /* \"contracts/NFTMasterChef.sol\":32522:32538  updatePool(_pid) */\n      tag_304\n        /* \"contracts/NFTMasterChef.sol\":32533:32537  _pid */\n      dup5\n        /* \"contracts/NFTMasterChef.sol\":32522:32532  updatePool */\n      tag_100\n        /* \"contracts/NFTMasterChef.sol\":32522:32538  updatePool(_pid) */\n      jump\t// in\n    tag_304:\n        /* \"contracts/NFTMasterChef.sol\":32549:32564  uint256 pending */\n      0x00\n        /* \"contracts/NFTMasterChef.sol\":32567:32636  user.amount.mul(pool.accPowerPerShare).div(1e12).sub(user.rewardDebt) */\n      tag_305\n        /* \"contracts/NFTMasterChef.sol\":32620:32624  user */\n      dup3\n        /* \"contracts/NFTMasterChef.sol\":32620:32635  user.rewardDebt */\n      0x01\n      add\n      sload\n        /* \"contracts/NFTMasterChef.sol\":32567:32615  user.amount.mul(pool.accPowerPerShare).div(1e12) */\n      tag_306\n        /* \"contracts/NFTMasterChef.sol\":32610:32614  1e12 */\n      0xe8d4a51000\n        /* \"contracts/NFTMasterChef.sol\":32567:32605  user.amount.mul(pool.accPowerPerShare) */\n      tag_307\n        /* \"contracts/NFTMasterChef.sol\":32583:32587  pool */\n      dup8\n        /* \"contracts/NFTMasterChef.sol\":32583:32604  pool.accPowerPerShare */\n      0x03\n      add\n      sload\n        /* \"contracts/NFTMasterChef.sol\":32567:32571  user */\n      dup8\n        /* \"contracts/NFTMasterChef.sol\":32567:32578  user.amount */\n      0x00\n      add\n      sload\n        /* \"contracts/NFTMasterChef.sol\":32567:32582  user.amount.mul */\n      tag_199\n      swap1\n        /* \"contracts/NFTMasterChef.sol\":32567:32605  user.amount.mul(pool.accPowerPerShare) */\n      swap2\n      swap1\n      0xffffffff\n      and\n      jump\t// in\n    tag_307:\n        /* \"contracts/NFTMasterChef.sol\":32567:32609  user.amount.mul(pool.accPowerPerShare).div */\n      tag_200\n      swap1\n        /* \"contracts/NFTMasterChef.sol\":32567:32615  user.amount.mul(pool.accPowerPerShare).div(1e12) */\n      swap2\n      swap1\n      0xffffffff\n      and\n      jump\t// in\n    tag_306:\n        /* \"contracts/NFTMasterChef.sol\":32567:32619  user.amount.mul(pool.accPowerPerShare).div(1e12).sub */\n      tag_201\n      swap1\n        /* \"contracts/NFTMasterChef.sol\":32567:32636  user.amount.mul(pool.accPowerPerShare).div(1e12).sub(user.rewardDebt) */\n      swap2\n      swap1\n      0xffffffff\n      and\n      jump\t// in\n    tag_305:\n        /* \"contracts/NFTMasterChef.sol\":32549:32636  uint256 pending = user.amount.mul(pool.accPowerPerShare).div(1e12).sub(user.rewardDebt) */\n      swap1\n      pop\n        /* \"contracts/NFTMasterChef.sol\":32660:32661  0 */\n      0x00\n        /* \"contracts/NFTMasterChef.sol\":32650:32657  pending */\n      dup2\n        /* \"contracts/NFTMasterChef.sol\":32650:32661  pending > 0 */\n      gt\n        /* \"contracts/NFTMasterChef.sol\":32647:32753  if(pending > 0){\r... */\n      iszero\n      tag_308\n      jumpi\n        /* \"contracts/NFTMasterChef.sol\":32704:32741  powerBalance[msg.sender].add(pending) */\n      tag_309\n        /* \"contracts/NFTMasterChef.sol\":32733:32740  pending */\n      dup2\n        /* \"contracts/NFTMasterChef.sol\":32704:32716  powerBalance */\n      0x0c\n        /* \"contracts/NFTMasterChef.sol\":32704:32728  powerBalance[msg.sender] */\n      0x00\n        /* \"contracts/NFTMasterChef.sol\":32717:32727  msg.sender */\n      caller\n        /* \"contracts/NFTMasterChef.sol\":32704:32728  powerBalance[msg.sender] */\n      0xffffffffffffffffffffffffffffffffffffffff\n      and\n      0xffffffffffffffffffffffffffffffffffffffff\n      and\n      dup2\n      mstore\n      0x20\n      add\n      swap1\n      dup2\n      mstore\n      0x20\n      add\n      0x00\n      keccak256\n      sload\n        /* \"contracts/NFTMasterChef.sol\":32704:32732  powerBalance[msg.sender].add */\n      tag_204\n      swap1\n        /* \"contracts/NFTMasterChef.sol\":32704:32741  powerBalance[msg.sender].add(pending) */\n      swap2\n      swap1\n      0xffffffff\n      and\n      jump\t// in\n    tag_309:\n        /* \"contracts/NFTMasterChef.sol\":32677:32689  powerBalance */\n      0x0c\n        /* \"contracts/NFTMasterChef.sol\":32677:32701  powerBalance[msg.sender] */\n      0x00\n        /* \"contracts/NFTMasterChef.sol\":32690:32700  msg.sender */\n      caller\n        /* \"contracts/NFTMasterChef.sol\":32677:32701  powerBalance[msg.sender] */\n      0xffffffffffffffffffffffffffffffffffffffff\n      and\n      0xffffffffffffffffffffffffffffffffffffffff\n      and\n      dup2\n      mstore\n      0x20\n      add\n      swap1\n      dup2\n      mstore\n      0x20\n      add\n      0x00\n      keccak256\n        /* \"contracts/NFTMasterChef.sol\":32677:32741  powerBalance[msg.sender] = powerBalance[msg.sender].add(pending) */\n      dup2\n      swap1\n      sstore\n      pop\n        /* \"contracts/NFTMasterChef.sol\":32647:32753  if(pending > 0){\r... */\n    tag_308:\n        /* \"contracts/NFTMasterChef.sol\":32777:32801  user.amount.sub(_amount) */\n      tag_310\n        /* \"contracts/NFTMasterChef.sol\":32793:32800  _amount */\n      dup5\n        /* \"contracts/NFTMasterChef.sol\":32777:32781  user */\n      dup4\n        /* \"contracts/NFTMasterChef.sol\":32777:32788  user.amount */\n      0x00\n      add\n      sload\n        /* \"contracts/NFTMasterChef.sol\":32777:32792  user.amount.sub */\n      tag_201\n      swap1\n        /* \"contracts/NFTMasterChef.sol\":32777:32801  user.amount.sub(_amount) */\n      swap2\n      swap1\n      0xffffffff\n      and\n      jump\t// in\n    tag_310:\n        /* \"contracts/NFTMasterChef.sol\":32763:32767  user */\n      dup3\n        /* \"contracts/NFTMasterChef.sol\":32763:32774  user.amount */\n      0x00\n      add\n        /* \"contracts/NFTMasterChef.sol\":32763:32801  user.amount = user.amount.sub(_amount) */\n      dup2\n      swap1\n      sstore\n      pop\n        /* \"contracts/NFTMasterChef.sol\":32830:32878  user.amount.mul(pool.accPowerPerShare).div(1e12) */\n      tag_311\n        /* \"contracts/NFTMasterChef.sol\":32873:32877  1e12 */\n      0xe8d4a51000\n        /* \"contracts/NFTMasterChef.sol\":32830:32868  user.amount.mul(pool.accPowerPerShare) */\n      tag_312\n        /* \"contracts/NFTMasterChef.sol\":32846:32850  pool */\n      dup6\n        /* \"contracts/NFTMasterChef.sol\":32846:32867  pool.accPowerPerShare */\n      0x03\n      add\n      sload\n        /* \"contracts/NFTMasterChef.sol\":32830:32834  user */\n      dup6\n        /* \"contracts/NFTMasterChef.sol\":32830:32841  user.amount */\n      0x00\n      add\n      sload\n        /* \"contracts/NFTMasterChef.sol\":32830:32845  user.amount.mul */\n      tag_199\n      swap1\n        /* \"contracts/NFTMasterChef.sol\":32830:32868  user.amount.mul(pool.accPowerPerShare) */\n      swap2\n      swap1\n      0xffffffff\n      and\n      jump\t// in\n    tag_312:\n        /* \"contracts/NFTMasterChef.sol\":32830:32872  user.amount.mul(pool.accPowerPerShare).div */\n      tag_200\n      swap1\n        /* \"contracts/NFTMasterChef.sol\":32830:32878  user.amount.mul(pool.accPowerPerShare).div(1e12) */\n      swap2\n      swap1\n      0xffffffff\n      and\n      jump\t// in\n    tag_311:\n        /* \"contracts/NFTMasterChef.sol\":32812:32816  user */\n      dup3\n        /* \"contracts/NFTMasterChef.sol\":32812:32827  user.rewardDebt */\n      0x01\n      add\n        /* \"contracts/NFTMasterChef.sol\":32812:32878  user.rewardDebt = user.amount.mul(pool.accPowerPerShare).div(1e12) */\n      dup2\n      swap1\n      sstore\n      pop\n        /* \"contracts/NFTMasterChef.sol\":32889:32944  pool.lpToken.safeTransfer(address(msg.sender), _amount) */\n      tag_313\n        /* \"contracts/NFTMasterChef.sol\":32923:32933  msg.sender */\n      caller\n        /* \"contracts/NFTMasterChef.sol\":32936:32943  _amount */\n      dup6\n        /* \"contracts/NFTMasterChef.sol\":32889:32893  pool */\n      dup6\n        /* \"contracts/NFTMasterChef.sol\":32889:32901  pool.lpToken */\n      0x00\n      add\n      0x00\n      swap1\n      sload\n      swap1\n      0x0100\n      exp\n      swap1\n      div\n      0xffffffffffffffffffffffffffffffffffffffff\n      and\n        /* \"contracts/NFTMasterChef.sol\":32889:32914  pool.lpToken.safeTransfer */\n      0xffffffffffffffffffffffffffffffffffffffff\n      and\n      tag_208\n      swap1\n        /* \"contracts/NFTMasterChef.sol\":32889:32944  pool.lpToken.safeTransfer(address(msg.sender), _amount) */\n      swap3\n      swap2\n      swap1\n      0xffffffff\n      and\n      jump\t// in\n    tag_313:\n        /* \"contracts/NFTMasterChef.sol\":32981:32985  _pid */\n      dup5\n        /* \"contracts/NFTMasterChef.sol\":32969:32979  msg.sender */\n      caller\n        /* \"contracts/NFTMasterChef.sol\":32960:32995  Withdraw(msg.sender, _pid, _amount) */\n      0xffffffffffffffffffffffffffffffffffffffff\n      and\n      0xf279e6a1f5e320cca91135676d9cb6e44ca8a08c0b88342bcdb1144f6511b568\n        /* \"contracts/NFTMasterChef.sol\":32987:32994  _amount */\n      dup7\n        /* \"contracts/NFTMasterChef.sol\":32960:32995  Withdraw(msg.sender, _pid, _amount) */\n      mload(0x40)\n      tag_314\n      swap2\n      swap1\n      tag_50\n      jump\t// in\n    tag_314:\n      mload(0x40)\n      dup1\n      swap2\n      sub\n      swap1\n      log3\n        /* \"contracts/NFTMasterChef.sol\":32272:33003  {\r... */\n      pop\n      pop\n      pop\n        /* \"contracts/NFTMasterChef.sol\":32216:33003  function withdraw(uint256 _pid, uint256 _amount) public {\r... */\n      pop\n      pop\n      jump\t// out\n        /* \"contracts/NFTMasterChef.sol\":28726:29217  function migrate(uint256 _pid) public {\r... */\n    tag_90:\n        /* \"contracts/NFTMasterChef.sol\":28812:28813  0 */\n      0x00\n        /* \"contracts/NFTMasterChef.sol\":28783:28814  address(migrator) != address(0) */\n      0xffffffffffffffffffffffffffffffffffffffff\n      and\n        /* \"contracts/NFTMasterChef.sol\":28791:28799  migrator */\n      0x05\n      0x00\n      swap1\n      sload\n      swap1\n      0x0100\n      exp\n      swap1\n      div\n      0xffffffffffffffffffffffffffffffffffffffff\n      and\n        /* \"contracts/NFTMasterChef.sol\":28783:28814  address(migrator) != address(0) */\n      0xffffffffffffffffffffffffffffffffffffffff\n      and\n      eq\n      iszero\n        /* \"contracts/NFTMasterChef.sol\":28775:28839  require(address(migrator) != address(0), \"migrate: no migrator\") */\n      tag_316\n      jumpi\n      mload(0x40)\n      0x08c379a000000000000000000000000000000000000000000000000000000000\n      dup2\n      mstore\n      0x04\n      add\n      tag_317\n      swap1\n      tag_318\n      jump\t// in\n    tag_317:\n      mload(0x40)\n      dup1\n      swap2\n      sub\n      swap1\n      revert\n    tag_316:\n        /* \"contracts/NFTMasterChef.sol\":28850:28871  PoolInfo storage pool */\n      0x00\n        /* \"contracts/NFTMasterChef.sol\":28874:28882  poolInfo */\n      0x06\n        /* \"contracts/NFTMasterChef.sol\":28883:28887  _pid */\n      dup3\n        /* \"contracts/NFTMasterChef.sol\":28874:28888  poolInfo[_pid] */\n      dup2\n      sload\n      dup2\n      lt\n      tag_319\n      jumpi\n      tag_320\n      tag_190\n      jump\t// in\n    tag_320:\n    tag_319:\n      swap1\n      0x00\n      mstore\n      keccak256(0x00, 0x20)\n      swap1\n      0x04\n      mul\n      add\n        /* \"contracts/NFTMasterChef.sol\":28850:28888  PoolInfo storage pool = poolInfo[_pid] */\n      swap1\n      pop\n        /* \"contracts/NFTMasterChef.sol\":28899:28913  IERC20 lpToken */\n      0x00\n        /* \"contracts/NFTMasterChef.sol\":28916:28920  pool */\n      dup2\n        /* \"contracts/NFTMasterChef.sol\":28916:28928  pool.lpToken */\n      0x00\n      add\n      0x00\n      swap1\n      sload\n      swap1\n      0x0100\n      exp\n      swap1\n      div\n      0xffffffffffffffffffffffffffffffffffffffff\n      and\n        /* \"contracts/NFTMasterChef.sol\":28899:28928  IERC20 lpToken = pool.lpToken */\n      swap1\n      pop\n        /* \"contracts/NFTMasterChef.sol\":28939:28950  uint256 bal */\n      0x00\n        /* \"contracts/NFTMasterChef.sol\":28953:28960  lpToken */\n      dup2\n        /* \"contracts/NFTMasterChef.sol\":28953:28970  lpToken.balanceOf */\n      0xffffffffffffffffffffffffffffffffffffffff\n      and\n      0x70a08231\n        /* \"contracts/NFTMasterChef.sol\":28979:28983  this */\n      address\n        /* \"contracts/NFTMasterChef.sol\":28953:28985  lpToken.balanceOf(address(this)) */\n      mload(0x40)\n      dup3\n      0xffffffff\n      and\n      0xe0\n      shl\n      dup2\n      mstore\n      0x04\n      add\n      tag_322\n      swap2\n      swap1\n      tag_126\n      jump\t// in\n    tag_322:\n      0x20\n      mload(0x40)\n      dup1\n      dup4\n      sub\n      dup2\n      dup7\n      dup1\n      extcodesize\n      iszero\n      dup1\n      iszero\n      tag_323\n      jumpi\n      0x00\n      dup1\n      revert\n    tag_323:\n      pop\n      gas\n      staticcall\n      iszero\n      dup1\n      iszero\n      tag_325\n      jumpi\n      returndatasize\n      0x00\n      dup1\n      returndatacopy\n      revert(0x00, returndatasize)\n    tag_325:\n      pop\n      pop\n      pop\n      pop\n      mload(0x40)\n      returndatasize\n      not(0x1f)\n      0x1f\n      dup3\n      add\n      and\n      dup3\n      add\n      dup1\n      0x40\n      mstore\n      pop\n      dup2\n      add\n      swap1\n      tag_326\n      swap2\n      swap1\n      tag_223\n      jump\t// in\n    tag_326:\n        /* \"contracts/NFTMasterChef.sol\":28939:28985  uint256 bal = lpToken.balanceOf(address(this)) */\n      swap1\n      pop\n        /* \"contracts/NFTMasterChef.sol\":28996:29039  lpToken.safeApprove(address(migrator), bal) */\n      tag_327\n        /* \"contracts/NFTMasterChef.sol\":29024:29032  migrator */\n      0x05\n      0x00\n      swap1\n      sload\n      swap1\n      0x0100\n      exp\n      swap1\n      div\n      0xffffffffffffffffffffffffffffffffffffffff\n      and\n        /* \"contracts/NFTMasterChef.sol\":29035:29038  bal */\n      dup3\n        /* \"contracts/NFTMasterChef.sol\":28996:29003  lpToken */\n      dup5\n        /* \"contracts/NFTMasterChef.sol\":28996:29015  lpToken.safeApprove */\n      0xffffffffffffffffffffffffffffffffffffffff\n      and\n      tag_328\n      swap1\n        /* \"contracts/NFTMasterChef.sol\":28996:29039  lpToken.safeApprove(address(migrator), bal) */\n      swap3\n      swap2\n      swap1\n      0xffffffff\n      and\n      jump\t// in\n    tag_327:\n        /* \"contracts/NFTMasterChef.sol\":29050:29067  IERC20 newLpToken */\n      0x00\n        /* \"contracts/NFTMasterChef.sol\":29070:29078  migrator */\n      0x05\n      0x00\n      swap1\n      sload\n      swap1\n      0x0100\n      exp\n      swap1\n      div\n      0xffffffffffffffffffffffffffffffffffffffff\n      and\n        /* \"contracts/NFTMasterChef.sol\":29070:29086  migrator.migrate */\n      0xffffffffffffffffffffffffffffffffffffffff\n      and\n      0xce5494bb\n        /* \"contracts/NFTMasterChef.sol\":29087:29094  lpToken */\n      dup5\n        /* \"contracts/NFTMasterChef.sol\":29070:29095  migrator.migrate(lpToken) */\n      mload(0x40)\n      dup3\n      0xffffffff\n      and\n      0xe0\n      shl\n      dup2\n      mstore\n      0x04\n      add\n      tag_329\n      swap2\n      swap1\n      tag_160\n      jump\t// in\n    tag_329:\n      0x20\n      mload(0x40)\n      dup1\n      dup4\n      sub\n      dup2\n      0x00\n      dup8\n      dup1\n      extcodesize\n      iszero\n      dup1\n      iszero\n      tag_330\n      jumpi\n      0x00\n      dup1\n      revert\n    tag_330:\n      pop\n      gas\n      call\n      iszero\n      dup1\n      iszero\n      tag_332\n      jumpi\n      returndatasize\n      0x00\n      dup1\n      returndatacopy\n      revert(0x00, returndatasize)\n    tag_332:\n      pop\n      pop\n      pop\n      pop\n      mload(0x40)\n      returndatasize\n      not(0x1f)\n      0x1f\n      dup3\n      add\n      and\n      dup3\n      add\n      dup1\n      0x40\n      mstore\n      pop\n      dup2\n      add\n      swap1\n      tag_333\n      swap2\n      swap1\n      tag_334\n      jump\t// in\n    tag_333:\n        /* \"contracts/NFTMasterChef.sol\":29050:29095  IERC20 newLpToken = migrator.migrate(lpToken) */\n      swap1\n      pop\n        /* \"contracts/NFTMasterChef.sol\":29121:29131  newLpToken */\n      dup1\n        /* \"contracts/NFTMasterChef.sol\":29121:29141  newLpToken.balanceOf */\n      0xffffffffffffffffffffffffffffffffffffffff\n      and\n      0x70a08231\n        /* \"contracts/NFTMasterChef.sol\":29150:29154  this */\n      address\n        /* \"contracts/NFTMasterChef.sol\":29121:29156  newLpToken.balanceOf(address(this)) */\n      mload(0x40)\n      dup3\n      0xffffffff\n      and\n      0xe0\n      shl\n      dup2\n      mstore\n      0x04\n      add\n      tag_335\n      swap2\n      swap1\n      tag_126\n      jump\t// in\n    tag_335:\n      0x20\n      mload(0x40)\n      dup1\n      dup4\n      sub\n      dup2\n      dup7\n      dup1\n      extcodesize\n      iszero\n      dup1\n      iszero\n      tag_336\n      jumpi\n      0x00\n      dup1\n      revert\n    tag_336:\n      pop\n      gas\n      staticcall\n      iszero\n      dup1\n      iszero\n      tag_338\n      jumpi\n      returndatasize\n      0x00\n      dup1\n      returndatacopy\n      revert(0x00, returndatasize)\n    tag_338:\n      pop\n      pop\n      pop\n      pop\n      mload(0x40)\n      returndatasize\n      not(0x1f)\n      0x1f\n      dup3\n      add\n      and\n      dup3\n      add\n      dup1\n      0x40\n      mstore\n      pop\n      dup2\n      add\n      swap1\n      tag_339\n      swap2\n      swap1\n      tag_223\n      jump\t// in\n    tag_339:\n        /* \"contracts/NFTMasterChef.sol\":29114:29117  bal */\n      dup3\n        /* \"contracts/NFTMasterChef.sol\":29114:29156  bal == newLpToken.balanceOf(address(this)) */\n      eq\n        /* \"contracts/NFTMasterChef.sol\":29106:29173  require(bal == newLpToken.balanceOf(address(this)), \"migrate: bad\") */\n      tag_340\n      jumpi\n      mload(0x40)\n      0x08c379a000000000000000000000000000000000000000000000000000000000\n      dup2\n      mstore\n      0x04\n      add\n      tag_341\n      swap1\n      tag_342\n      jump\t// in\n    tag_341:\n      mload(0x40)\n      dup1\n      swap2\n      sub\n      swap1\n      revert\n    tag_340:\n        /* \"contracts/NFTMasterChef.sol\":29199:29209  newLpToken */\n      dup1\n        /* \"contracts/NFTMasterChef.sol\":29184:29188  pool */\n      dup5\n        /* \"contracts/NFTMasterChef.sol\":29184:29196  pool.lpToken */\n      0x00\n      add\n      0x00\n        /* \"contracts/NFTMasterChef.sol\":29184:29209  pool.lpToken = newLpToken */\n      0x0100\n      exp\n      dup2\n      sload\n      dup2\n      0xffffffffffffffffffffffffffffffffffffffff\n      mul\n      not\n      and\n      swap1\n      dup4\n      0xffffffffffffffffffffffffffffffffffffffff\n      and\n      mul\n      or\n      swap1\n      sstore\n      pop\n        /* \"contracts/NFTMasterChef.sol\":28764:29217  {\r... */\n      pop\n      pop\n      pop\n      pop\n        /* \"contracts/NFTMasterChef.sol\":28726:29217  function migrate(uint256 _pid) public {\r... */\n      pop\n      jump\t// out\n        /* \"contracts/NFTMasterChef.sol\":24276:24301  uint256 public startBlock */\n    tag_92:\n      sload(0x09)\n      dup2\n      jump\t// out\n        /* \"contracts/NFTMasterChef.sol\":25454:25660  function addNFT(IERC721 _NFT, uint256 _power) public onlyOwner {\r... */\n    tag_97:\n        /* \"contracts/NFTMasterChef.sol\":20336:20348  _msgSender() */\n      tag_344\n        /* \"contracts/NFTMasterChef.sol\":20336:20346  _msgSender */\n      tag_181\n        /* \"contracts/NFTMasterChef.sol\":20336:20348  _msgSender() */\n      jump\t// in\n    tag_344:\n        /* \"contracts/NFTMasterChef.sol\":20325:20348  owner() == _msgSender() */\n      0xffffffffffffffffffffffffffffffffffffffff\n      and\n        /* \"contracts/NFTMasterChef.sol\":20325:20332  owner() */\n      tag_345\n        /* \"contracts/NFTMasterChef.sol\":20325:20330  owner */\n      tag_142\n        /* \"contracts/NFTMasterChef.sol\":20325:20332  owner() */\n      jump\t// in\n    tag_345:\n        /* \"contracts/NFTMasterChef.sol\":20325:20348  owner() == _msgSender() */\n      0xffffffffffffffffffffffffffffffffffffffff\n      and\n      eq\n        /* \"contracts/NFTMasterChef.sol\":20317:20385  require(owner() == _msgSender(), \"Ownable: caller is not the owner\") */\n      tag_346\n      jumpi\n      mload(0x40)\n      0x08c379a000000000000000000000000000000000000000000000000000000000\n      dup2\n      mstore\n      0x04\n      add\n      tag_347\n      swap1\n      tag_185\n      jump\t// in\n    tag_347:\n      mload(0x40)\n      dup1\n      swap2\n      sub\n      swap1\n      revert\n    tag_346:\n        /* \"contracts/NFTMasterChef.sol\":25528:25536  nftsInfo */\n      0x01\n        /* \"contracts/NFTMasterChef.sol\":25556:25641  NFTsInfo({\r... */\n      mload(0x40)\n      dup1\n      0x40\n      add\n      0x40\n      mstore\n      dup1\n        /* \"contracts/NFTMasterChef.sol\":25589:25593  _NFT */\n      dup5\n        /* \"contracts/NFTMasterChef.sol\":25556:25641  NFTsInfo({\r... */\n      0xffffffffffffffffffffffffffffffffffffffff\n      and\n      dup2\n      mstore\n      0x20\n      add\n        /* \"contracts/NFTMasterChef.sol\":25619:25625  _power */\n      dup4\n        /* \"contracts/NFTMasterChef.sol\":25556:25641  NFTsInfo({\r... */\n      dup2\n      mstore\n      pop\n        /* \"contracts/NFTMasterChef.sol\":25528:25652  nftsInfo.push(\r... */\n      swap1\n      dup1\n      0x01\n      dup2\n      sload\n      add\n      dup1\n      dup3\n      sstore\n      dup1\n      swap2\n      pop\n      pop\n      0x01\n      swap1\n      sub\n      swap1\n      0x00\n      mstore\n      keccak256(0x00, 0x20)\n      swap1\n      0x02\n      mul\n      add\n      0x00\n      swap1\n      swap2\n      swap1\n      swap2\n      swap1\n      swap2\n      pop\n      0x00\n      dup3\n      add\n      mload\n      dup2\n      0x00\n      add\n      exp(0x0100, 0x00)\n      dup2\n      sload\n      dup2\n      0xffffffffffffffffffffffffffffffffffffffff\n      mul\n      not\n      and\n      swap1\n      dup4\n      0xffffffffffffffffffffffffffffffffffffffff\n      and\n      mul\n      or\n      swap1\n      sstore\n      pop\n      0x20\n      dup3\n      add\n      mload\n      dup2\n      0x01\n      add\n      sstore\n      pop\n      pop\n        /* \"contracts/NFTMasterChef.sol\":25454:25660  function addNFT(IERC721 _NFT, uint256 _power) public onlyOwner {\r... */\n      pop\n      pop\n      jump\t// out\n        /* \"contracts/NFTMasterChef.sol\":30608:31298  function updatePool(uint256 _pid) public {\r... */\n    tag_100:\n        /* \"contracts/NFTMasterChef.sol\":30660:30681  PoolInfo storage pool */\n      0x00\n        /* \"contracts/NFTMasterChef.sol\":30684:30692  poolInfo */\n      0x06\n        /* \"contracts/NFTMasterChef.sol\":30693:30697  _pid */\n      dup3\n        /* \"contracts/NFTMasterChef.sol\":30684:30698  poolInfo[_pid] */\n      dup2\n      sload\n      dup2\n      lt\n      tag_351\n      jumpi\n      tag_352\n      tag_190\n      jump\t// in\n    tag_352:\n    tag_351:\n      swap1\n      0x00\n      mstore\n      keccak256(0x00, 0x20)\n      swap1\n      0x04\n      mul\n      add\n        /* \"contracts/NFTMasterChef.sol\":30660:30698  PoolInfo storage pool = poolInfo[_pid] */\n      swap1\n      pop\n        /* \"contracts/NFTMasterChef.sol\":30729:30733  pool */\n      dup1\n        /* \"contracts/NFTMasterChef.sol\":30729:30749  pool.lastRewardBlock */\n      0x02\n      add\n      sload\n        /* \"contracts/NFTMasterChef.sol\":30713:30725  block.number */\n      number\n        /* \"contracts/NFTMasterChef.sol\":30713:30749  block.number <= pool.lastRewardBlock */\n      gt\n        /* \"contracts/NFTMasterChef.sol\":30709:30784  if (block.number <= pool.lastRewardBlock) {\r... */\n      tag_354\n      jumpi\n        /* \"contracts/NFTMasterChef.sol\":30766:30773  return; */\n      pop\n      jump(tag_350)\n        /* \"contracts/NFTMasterChef.sol\":30709:30784  if (block.number <= pool.lastRewardBlock) {\r... */\n    tag_354:\n        /* \"contracts/NFTMasterChef.sol\":30794:30810  uint256 lpSupply */\n      0x00\n        /* \"contracts/NFTMasterChef.sol\":30813:30817  pool */\n      dup2\n        /* \"contracts/NFTMasterChef.sol\":30813:30825  pool.lpToken */\n      0x00\n      add\n      0x00\n      swap1\n      sload\n      swap1\n      0x0100\n      exp\n      swap1\n      div\n      0xffffffffffffffffffffffffffffffffffffffff\n      and\n        /* \"contracts/NFTMasterChef.sol\":30813:30835  pool.lpToken.balanceOf */\n      0xffffffffffffffffffffffffffffffffffffffff\n      and\n      0x70a08231\n        /* \"contracts/NFTMasterChef.sol\":30844:30848  this */\n      address\n        /* \"contracts/NFTMasterChef.sol\":30813:30850  pool.lpToken.balanceOf(address(this)) */\n      mload(0x40)\n      dup3\n      0xffffffff\n      and\n      0xe0\n      shl\n      dup2\n      mstore\n      0x04\n      add\n      tag_355\n      swap2\n      swap1\n      tag_126\n      jump\t// in\n    tag_355:\n      0x20\n      mload(0x40)\n      dup1\n      dup4\n      sub\n      dup2\n      dup7\n      dup1\n      extcodesize\n      iszero\n      dup1\n      iszero\n      tag_356\n      jumpi\n      0x00\n      dup1\n      revert\n    tag_356:\n      pop\n      gas\n      staticcall\n      iszero\n      dup1\n      iszero\n      tag_358\n      jumpi\n      returndatasize\n      0x00\n      dup1\n      returndatacopy\n      revert(0x00, returndatasize)\n    tag_358:\n      pop\n      pop\n      pop\n      pop\n      mload(0x40)\n      returndatasize\n      not(0x1f)\n      0x1f\n      dup3\n      add\n      and\n      dup3\n      add\n      dup1\n      0x40\n      mstore\n      pop\n      dup2\n      add\n      swap1\n      tag_359\n      swap2\n      swap1\n      tag_223\n      jump\t// in\n    tag_359:\n        /* \"contracts/NFTMasterChef.sol\":30794:30850  uint256 lpSupply = pool.lpToken.balanceOf(address(this)) */\n      swap1\n      pop\n        /* \"contracts/NFTMasterChef.sol\":30877:30878  0 */\n      0x00\n        /* \"contracts/NFTMasterChef.sol\":30865:30873  lpSupply */\n      dup2\n        /* \"contracts/NFTMasterChef.sol\":30865:30878  lpSupply <= 0 */\n      gt\n        /* \"contracts/NFTMasterChef.sol\":30861:30963  if (lpSupply <= 0) {\r... */\n      tag_360\n      jumpi\n        /* \"contracts/NFTMasterChef.sol\":30918:30930  block.number */\n      number\n        /* \"contracts/NFTMasterChef.sol\":30895:30899  pool */\n      dup3\n        /* \"contracts/NFTMasterChef.sol\":30895:30915  pool.lastRewardBlock */\n      0x02\n      add\n        /* \"contracts/NFTMasterChef.sol\":30895:30930  pool.lastRewardBlock = block.number */\n      dup2\n      swap1\n      sstore\n      pop\n        /* \"contracts/NFTMasterChef.sol\":30945:30952  return; */\n      pop\n      pop\n      jump(tag_350)\n        /* \"contracts/NFTMasterChef.sol\":30861:30963  if (lpSupply <= 0) {\r... */\n    tag_360:\n        /* \"contracts/NFTMasterChef.sol\":30973:30991  uint256 multiplier */\n      0x00\n        /* \"contracts/NFTMasterChef.sol\":30994:31043  getMultiplier(pool.lastRewardBlock, block.number) */\n      tag_361\n        /* \"contracts/NFTMasterChef.sol\":31008:31012  pool */\n      dup4\n        /* \"contracts/NFTMasterChef.sol\":31008:31028  pool.lastRewardBlock */\n      0x02\n      add\n      sload\n        /* \"contracts/NFTMasterChef.sol\":31030:31042  block.number */\n      number\n        /* \"contracts/NFTMasterChef.sol\":30994:31007  getMultiplier */\n      tag_146\n        /* \"contracts/NFTMasterChef.sol\":30994:31043  getMultiplier(pool.lastRewardBlock, block.number) */\n      jump\t// in\n    tag_361:\n        /* \"contracts/NFTMasterChef.sol\":30973:31043  uint256 multiplier = getMultiplier(pool.lastRewardBlock, block.number) */\n      swap1\n      pop\n        /* \"contracts/NFTMasterChef.sol\":31054:31073  uint256 PowerReward */\n      0x00\n        /* \"contracts/NFTMasterChef.sol\":31076:31147  multiplier.mul(PowerPerBlock).mul(pool.allocPoint).div(totalAllocPoint) */\n      tag_362\n        /* \"contracts/NFTMasterChef.sol\":31131:31146  totalAllocPoint */\n      sload(0x08)\n        /* \"contracts/NFTMasterChef.sol\":31076:31126  multiplier.mul(PowerPerBlock).mul(pool.allocPoint) */\n      tag_363\n        /* \"contracts/NFTMasterChef.sol\":31110:31114  pool */\n      dup7\n        /* \"contracts/NFTMasterChef.sol\":31110:31125  pool.allocPoint */\n      0x01\n      add\n      sload\n        /* \"contracts/NFTMasterChef.sol\":31076:31105  multiplier.mul(PowerPerBlock) */\n      tag_364\n        /* \"contracts/NFTMasterChef.sol\":31091:31104  PowerPerBlock */\n      sload(0x03)\n        /* \"contracts/NFTMasterChef.sol\":31076:31086  multiplier */\n      dup8\n        /* \"contracts/NFTMasterChef.sol\":31076:31090  multiplier.mul */\n      tag_199\n      swap1\n        /* \"contracts/NFTMasterChef.sol\":31076:31105  multiplier.mul(PowerPerBlock) */\n      swap2\n      swap1\n      0xffffffff\n      and\n      jump\t// in\n    tag_364:\n        /* \"contracts/NFTMasterChef.sol\":31076:31109  multiplier.mul(PowerPerBlock).mul */\n      tag_199\n      swap1\n        /* \"contracts/NFTMasterChef.sol\":31076:31126  multiplier.mul(PowerPerBlock).mul(pool.allocPoint) */\n      swap2\n      swap1\n      0xffffffff\n      and\n      jump\t// in\n    tag_363:\n        /* \"contracts/NFTMasterChef.sol\":31076:31130  multiplier.mul(PowerPerBlock).mul(pool.allocPoint).div */\n      tag_200\n      swap1\n        /* \"contracts/NFTMasterChef.sol\":31076:31147  multiplier.mul(PowerPerBlock).mul(pool.allocPoint).div(totalAllocPoint) */\n      swap2\n      swap1\n      0xffffffff\n      and\n      jump\t// in\n    tag_362:\n        /* \"contracts/NFTMasterChef.sol\":31054:31147  uint256 PowerReward = multiplier.mul(PowerPerBlock).mul(pool.allocPoint).div(totalAllocPoint) */\n      swap1\n      pop\n        /* \"contracts/NFTMasterChef.sol\":31182:31244  pool.accPowerPerShare.add(PowerReward.mul(1e12).div(lpSupply)) */\n      tag_365\n        /* \"contracts/NFTMasterChef.sol\":31208:31243  PowerReward.mul(1e12).div(lpSupply) */\n      tag_366\n        /* \"contracts/NFTMasterChef.sol\":31234:31242  lpSupply */\n      dup5\n        /* \"contracts/NFTMasterChef.sol\":31208:31229  PowerReward.mul(1e12) */\n      tag_367\n        /* \"contracts/NFTMasterChef.sol\":31224:31228  1e12 */\n      0xe8d4a51000\n        /* \"contracts/NFTMasterChef.sol\":31208:31219  PowerReward */\n      dup6\n        /* \"contracts/NFTMasterChef.sol\":31208:31223  PowerReward.mul */\n      tag_199\n      swap1\n        /* \"contracts/NFTMasterChef.sol\":31208:31229  PowerReward.mul(1e12) */\n      swap2\n      swap1\n      0xffffffff\n      and\n      jump\t// in\n    tag_367:\n        /* \"contracts/NFTMasterChef.sol\":31208:31233  PowerReward.mul(1e12).div */\n      tag_200\n      swap1\n        /* \"contracts/NFTMasterChef.sol\":31208:31243  PowerReward.mul(1e12).div(lpSupply) */\n      swap2\n      swap1\n      0xffffffff\n      and\n      jump\t// in\n    tag_366:\n        /* \"contracts/NFTMasterChef.sol\":31182:31186  pool */\n      dup6\n        /* \"contracts/NFTMasterChef.sol\":31182:31203  pool.accPowerPerShare */\n      0x03\n      add\n      sload\n        /* \"contracts/NFTMasterChef.sol\":31182:31207  pool.accPowerPerShare.add */\n      tag_204\n      swap1\n        /* \"contracts/NFTMasterChef.sol\":31182:31244  pool.accPowerPerShare.add(PowerReward.mul(1e12).div(lpSupply)) */\n      swap2\n      swap1\n      0xffffffff\n      and\n      jump\t// in\n    tag_365:\n        /* \"contracts/NFTMasterChef.sol\":31158:31162  pool */\n      dup5\n        /* \"contracts/NFTMasterChef.sol\":31158:31179  pool.accPowerPerShare */\n      0x03\n      add\n        /* \"contracts/NFTMasterChef.sol\":31158:31244  pool.accPowerPerShare = pool.accPowerPerShare.add(PowerReward.mul(1e12).div(lpSupply)) */\n      dup2\n      swap1\n      sstore\n      pop\n        /* \"contracts/NFTMasterChef.sol\":31278:31290  block.number */\n      number\n        /* \"contracts/NFTMasterChef.sol\":31255:31259  pool */\n      dup5\n        /* \"contracts/NFTMasterChef.sol\":31255:31275  pool.lastRewardBlock */\n      0x02\n      add\n        /* \"contracts/NFTMasterChef.sol\":31255:31290  pool.lastRewardBlock = block.number */\n      dup2\n      swap1\n      sstore\n      pop\n        /* \"contracts/NFTMasterChef.sol\":30649:31298  {\r... */\n      pop\n      pop\n      pop\n      pop\n        /* \"contracts/NFTMasterChef.sol\":30608:31298  function updatePool(uint256 _pid) public {\r... */\n    tag_350:\n      pop\n      jump\t// out\n        /* \"contracts/NFTMasterChef.sol\":35635:35991  function emergencyWithdraw(uint256 _pid) public {\r... */\n    tag_103:\n        /* \"contracts/NFTMasterChef.sol\":35694:35715  PoolInfo storage pool */\n      0x00\n        /* \"contracts/NFTMasterChef.sol\":35718:35726  poolInfo */\n      0x06\n        /* \"contracts/NFTMasterChef.sol\":35727:35731  _pid */\n      dup3\n        /* \"contracts/NFTMasterChef.sol\":35718:35732  poolInfo[_pid] */\n      dup2\n      sload\n      dup2\n      lt\n      tag_369\n      jumpi\n      tag_370\n      tag_190\n      jump\t// in\n    tag_370:\n    tag_369:\n      swap1\n      0x00\n      mstore\n      keccak256(0x00, 0x20)\n      swap1\n      0x04\n      mul\n      add\n        /* \"contracts/NFTMasterChef.sol\":35694:35732  PoolInfo storage pool = poolInfo[_pid] */\n      swap1\n      pop\n        /* \"contracts/NFTMasterChef.sol\":35743:35764  UserInfo storage user */\n      0x00\n        /* \"contracts/NFTMasterChef.sol\":35767:35775  userInfo */\n      0x07\n        /* \"contracts/NFTMasterChef.sol\":35767:35781  userInfo[_pid] */\n      0x00\n        /* \"contracts/NFTMasterChef.sol\":35776:35780  _pid */\n      dup5\n        /* \"contracts/NFTMasterChef.sol\":35767:35781  userInfo[_pid] */\n      dup2\n      mstore\n      0x20\n      add\n      swap1\n      dup2\n      mstore\n      0x20\n      add\n      0x00\n      keccak256\n        /* \"contracts/NFTMasterChef.sol\":35767:35793  userInfo[_pid][msg.sender] */\n      0x00\n        /* \"contracts/NFTMasterChef.sol\":35782:35792  msg.sender */\n      caller\n        /* \"contracts/NFTMasterChef.sol\":35767:35793  userInfo[_pid][msg.sender] */\n      0xffffffffffffffffffffffffffffffffffffffff\n      and\n      0xffffffffffffffffffffffffffffffffffffffff\n      and\n      dup2\n      mstore\n      0x20\n      add\n      swap1\n      dup2\n      mstore\n      0x20\n      add\n      0x00\n      keccak256\n        /* \"contracts/NFTMasterChef.sol\":35743:35793  UserInfo storage user = userInfo[_pid][msg.sender] */\n      swap1\n      pop\n        /* \"contracts/NFTMasterChef.sol\":35804:35863  pool.lpToken.safeTransfer(address(msg.sender), user.amount) */\n      tag_372\n        /* \"contracts/NFTMasterChef.sol\":35838:35848  msg.sender */\n      caller\n        /* \"contracts/NFTMasterChef.sol\":35851:35855  user */\n      dup3\n        /* \"contracts/NFTMasterChef.sol\":35851:35862  user.amount */\n      0x00\n      add\n      sload\n        /* \"contracts/NFTMasterChef.sol\":35804:35808  pool */\n      dup5\n        /* \"contracts/NFTMasterChef.sol\":35804:35816  pool.lpToken */\n      0x00\n      add\n      0x00\n      swap1\n      sload\n      swap1\n      0x0100\n      exp\n      swap1\n      div\n      0xffffffffffffffffffffffffffffffffffffffff\n      and\n        /* \"contracts/NFTMasterChef.sol\":35804:35829  pool.lpToken.safeTransfer */\n      0xffffffffffffffffffffffffffffffffffffffff\n      and\n      tag_208\n      swap1\n        /* \"contracts/NFTMasterChef.sol\":35804:35863  pool.lpToken.safeTransfer(address(msg.sender), user.amount) */\n      swap3\n      swap2\n      swap1\n      0xffffffff\n      and\n      jump\t// in\n    tag_372:\n        /* \"contracts/NFTMasterChef.sol\":35909:35913  _pid */\n      dup3\n        /* \"contracts/NFTMasterChef.sol\":35897:35907  msg.sender */\n      caller\n        /* \"contracts/NFTMasterChef.sol\":35879:35927  EmergencyWithdraw(msg.sender, _pid, user.amount) */\n      0xffffffffffffffffffffffffffffffffffffffff\n      and\n      0xbb757047c2b5f3974fe26b7c10f732e7bce710b0952a71082702781e62ae0595\n        /* \"contracts/NFTMasterChef.sol\":35915:35919  user */\n      dup4\n        /* \"contracts/NFTMasterChef.sol\":35915:35926  user.amount */\n      0x00\n      add\n      sload\n        /* \"contracts/NFTMasterChef.sol\":35879:35927  EmergencyWithdraw(msg.sender, _pid, user.amount) */\n      mload(0x40)\n      tag_373\n      swap2\n      swap1\n      tag_50\n      jump\t// in\n    tag_373:\n      mload(0x40)\n      dup1\n      swap2\n      sub\n      swap1\n      log3\n        /* \"contracts/NFTMasterChef.sol\":35952:35953  0 */\n      0x00\n        /* \"contracts/NFTMasterChef.sol\":35938:35942  user */\n      dup2\n        /* \"contracts/NFTMasterChef.sol\":35938:35949  user.amount */\n      0x00\n      add\n        /* \"contracts/NFTMasterChef.sol\":35938:35953  user.amount = 0 */\n      dup2\n      swap1\n      sstore\n      pop\n        /* \"contracts/NFTMasterChef.sol\":35982:35983  0 */\n      0x00\n        /* \"contracts/NFTMasterChef.sol\":35964:35968  user */\n      dup2\n        /* \"contracts/NFTMasterChef.sol\":35964:35979  user.rewardDebt */\n      0x01\n      add\n        /* \"contracts/NFTMasterChef.sol\":35964:35983  user.rewardDebt = 0 */\n      dup2\n      swap1\n      sstore\n      pop\n        /* \"contracts/NFTMasterChef.sol\":35683:35991  {\r... */\n      pop\n      pop\n        /* \"contracts/NFTMasterChef.sol\":35635:35991  function emergencyWithdraw(uint256 _pid) public {\r... */\n      pop\n      jump\t// out\n        /* \"contracts/NFTMasterChef.sol\":23657:23685  uint256 public PowerPerBlock */\n    tag_105:\n      sload(0x03)\n      dup2\n      jump\t// out\n        /* \"contracts/NFTMasterChef.sol\":27068:27191  function updateMultiplier(uint256 multiplierNumber) public onlyOwner {\r... */\n    tag_109:\n        /* \"contracts/NFTMasterChef.sol\":20336:20348  _msgSender() */\n      tag_375\n        /* \"contracts/NFTMasterChef.sol\":20336:20346  _msgSender */\n      tag_181\n        /* \"contracts/NFTMasterChef.sol\":20336:20348  _msgSender() */\n      jump\t// in\n    tag_375:\n        /* \"contracts/NFTMasterChef.sol\":20325:20348  owner() == _msgSender() */\n      0xffffffffffffffffffffffffffffffffffffffff\n      and\n        /* \"contracts/NFTMasterChef.sol\":20325:20332  owner() */\n      tag_376\n        /* \"contracts/NFTMasterChef.sol\":20325:20330  owner */\n      tag_142\n        /* \"contracts/NFTMasterChef.sol\":20325:20332  owner() */\n      jump\t// in\n    tag_376:\n        /* \"contracts/NFTMasterChef.sol\":20325:20348  owner() == _msgSender() */\n      0xffffffffffffffffffffffffffffffffffffffff\n      and\n      eq\n        /* \"contracts/NFTMasterChef.sol\":20317:20385  require(owner() == _msgSender(), \"Ownable: caller is not the owner\") */\n      tag_377\n      jumpi\n      mload(0x40)\n      0x08c379a000000000000000000000000000000000000000000000000000000000\n      dup2\n      mstore\n      0x04\n      add\n      tag_378\n      swap1\n      tag_185\n      jump\t// in\n    tag_378:\n      mload(0x40)\n      dup1\n      swap2\n      sub\n      swap1\n      revert\n    tag_377:\n        /* \"contracts/NFTMasterChef.sol\":27167:27183  multiplierNumber */\n      dup1\n        /* \"contracts/NFTMasterChef.sol\":27148:27164  BONUS_MULTIPLIER */\n      0x04\n        /* \"contracts/NFTMasterChef.sol\":27148:27183  BONUS_MULTIPLIER = multiplierNumber */\n      dup2\n      swap1\n      sstore\n      pop\n        /* \"contracts/NFTMasterChef.sol\":27068:27191  function updateMultiplier(uint256 multiplierNumber) public onlyOwner {\r... */\n      pop\n      jump\t// out\n        /* \"contracts/NFTMasterChef.sol\":23533:23559  NFTsInfo[] public nftsInfo */\n    tag_112:\n      0x01\n      dup2\n      dup2\n      sload\n      dup2\n      lt\n      tag_380\n      jumpi\n      0x00\n      dup1\n      revert\n    tag_380:\n      swap1\n      0x00\n      mstore\n      keccak256(0x00, 0x20)\n      swap1\n      0x02\n      mul\n      add\n      0x00\n      swap2\n      pop\n      swap1\n      pop\n      dup1\n      0x00\n      add\n      0x00\n      swap1\n      sload\n      swap1\n      0x0100\n      exp\n      swap1\n      div\n      0xffffffffffffffffffffffffffffffffffffffff\n      and\n      swap1\n      dup1\n      0x01\n      add\n      sload\n      swap1\n      pop\n      dup3\n      jump\t// out\n        /* \"contracts/NFTMasterChef.sol\":30352:30532  function massUpdatePools() public {\r... */\n    tag_116:\n        /* \"contracts/NFTMasterChef.sol\":30397:30411  uint256 length */\n      0x00\n        /* \"contracts/NFTMasterChef.sol\":30414:30422  poolInfo */\n      0x06\n        /* \"contracts/NFTMasterChef.sol\":30414:30429  poolInfo.length */\n      dup1\n      sload\n      swap1\n      pop\n        /* \"contracts/NFTMasterChef.sol\":30397:30429  uint256 length = poolInfo.length */\n      swap1\n      pop\n        /* \"contracts/NFTMasterChef.sol\":30445:30456  uint256 pid */\n      0x00\n        /* \"contracts/NFTMasterChef.sol\":30440:30525  for (uint256 pid = 0; pid < length; ++pid) {\r... */\n    tag_383:\n        /* \"contracts/NFTMasterChef.sol\":30468:30474  length */\n      dup2\n        /* \"contracts/NFTMasterChef.sol\":30462:30465  pid */\n      dup2\n        /* \"contracts/NFTMasterChef.sol\":30462:30474  pid < length */\n      lt\n        /* \"contracts/NFTMasterChef.sol\":30440:30525  for (uint256 pid = 0; pid < length; ++pid) {\r... */\n      iszero\n      tag_384\n      jumpi\n        /* \"contracts/NFTMasterChef.sol\":30498:30513  updatePool(pid) */\n      tag_386\n        /* \"contracts/NFTMasterChef.sol\":30509:30512  pid */\n      dup2\n        /* \"contracts/NFTMasterChef.sol\":30498:30508  updatePool */\n      tag_100\n        /* \"contracts/NFTMasterChef.sol\":30498:30513  updatePool(pid) */\n      jump\t// in\n    tag_386:\n        /* \"contracts/NFTMasterChef.sol\":30476:30481  ++pid */\n      dup1\n      tag_387\n      swap1\n      tag_388\n      jump\t// in\n    tag_387:\n      swap1\n      pop\n        /* \"contracts/NFTMasterChef.sol\":30440:30525  for (uint256 pid = 0; pid < length; ++pid) {\r... */\n      jump(tag_383)\n    tag_384:\n      pop\n        /* \"contracts/NFTMasterChef.sol\":30386:30532  {\r... */\n      pop\n        /* \"contracts/NFTMasterChef.sol\":30352:30532  function massUpdatePools() public {\r... */\n      jump\t// out\n        /* \"contracts/NFTMasterChef.sol\":28120:28425  function set( uint256 _pid, uint256 _allocPoint, bool _withUpdate) public onlyOwner {\r... */\n    tag_120:\n        /* \"contracts/NFTMasterChef.sol\":20336:20348  _msgSender() */\n      tag_390\n        /* \"contracts/NFTMasterChef.sol\":20336:20346  _msgSender */\n      tag_181\n        /* \"contracts/NFTMasterChef.sol\":20336:20348  _msgSender() */\n      jump\t// in\n    tag_390:\n        /* \"contracts/NFTMasterChef.sol\":20325:20348  owner() == _msgSender() */\n      0xffffffffffffffffffffffffffffffffffffffff\n      and\n        /* \"contracts/NFTMasterChef.sol\":20325:20332  owner() */\n      tag_391\n        /* \"contracts/NFTMasterChef.sol\":20325:20330  owner */\n      tag_142\n        /* \"contracts/NFTMasterChef.sol\":20325:20332  owner() */\n      jump\t// in\n    tag_391:\n        /* \"contracts/NFTMasterChef.sol\":20325:20348  owner() == _msgSender() */\n      0xffffffffffffffffffffffffffffffffffffffff\n      and\n      eq\n        /* \"contracts/NFTMasterChef.sol\":20317:20385  require(owner() == _msgSender(), \"Ownable: caller is not the owner\") */\n      tag_392\n      jumpi\n      mload(0x40)\n      0x08c379a000000000000000000000000000000000000000000000000000000000\n      dup2\n      mstore\n      0x04\n      add\n      tag_393\n      swap1\n      tag_185\n      jump\t// in\n    tag_393:\n      mload(0x40)\n      dup1\n      swap2\n      sub\n      swap1\n      revert\n    tag_392:\n        /* \"contracts/NFTMasterChef.sol\":28219:28230  _withUpdate */\n      dup1\n        /* \"contracts/NFTMasterChef.sol\":28215:28276  if (_withUpdate) {\r... */\n      iszero\n      tag_395\n      jumpi\n        /* \"contracts/NFTMasterChef.sol\":28247:28264  massUpdatePools() */\n      tag_396\n        /* \"contracts/NFTMasterChef.sol\":28247:28262  massUpdatePools */\n      tag_116\n        /* \"contracts/NFTMasterChef.sol\":28247:28264  massUpdatePools() */\n      jump\t// in\n    tag_396:\n        /* \"contracts/NFTMasterChef.sol\":28215:28276  if (_withUpdate) {\r... */\n    tag_395:\n        /* \"contracts/NFTMasterChef.sol\":28304:28367  totalAllocPoint.sub(poolInfo[_pid].allocPoint).add(_allocPoint) */\n      tag_397\n        /* \"contracts/NFTMasterChef.sol\":28355:28366  _allocPoint */\n      dup3\n        /* \"contracts/NFTMasterChef.sol\":28304:28350  totalAllocPoint.sub(poolInfo[_pid].allocPoint) */\n      tag_398\n        /* \"contracts/NFTMasterChef.sol\":28324:28332  poolInfo */\n      0x06\n        /* \"contracts/NFTMasterChef.sol\":28333:28337  _pid */\n      dup7\n        /* \"contracts/NFTMasterChef.sol\":28324:28338  poolInfo[_pid] */\n      dup2\n      sload\n      dup2\n      lt\n      tag_399\n      jumpi\n      tag_400\n      tag_190\n      jump\t// in\n    tag_400:\n    tag_399:\n      swap1\n      0x00\n      mstore\n      keccak256(0x00, 0x20)\n      swap1\n      0x04\n      mul\n      add\n        /* \"contracts/NFTMasterChef.sol\":28324:28349  poolInfo[_pid].allocPoint */\n      0x01\n      add\n      sload\n        /* \"contracts/NFTMasterChef.sol\":28304:28319  totalAllocPoint */\n      sload(0x08)\n        /* \"contracts/NFTMasterChef.sol\":28304:28323  totalAllocPoint.sub */\n      tag_201\n      swap1\n        /* \"contracts/NFTMasterChef.sol\":28304:28350  totalAllocPoint.sub(poolInfo[_pid].allocPoint) */\n      swap2\n      swap1\n      0xffffffff\n      and\n      jump\t// in\n    tag_398:\n        /* \"contracts/NFTMasterChef.sol\":28304:28354  totalAllocPoint.sub(poolInfo[_pid].allocPoint).add */\n      tag_204\n      swap1\n        /* \"contracts/NFTMasterChef.sol\":28304:28367  totalAllocPoint.sub(poolInfo[_pid].allocPoint).add(_allocPoint) */\n      swap2\n      swap1\n      0xffffffff\n      and\n      jump\t// in\n    tag_397:\n        /* \"contracts/NFTMasterChef.sol\":28286:28301  totalAllocPoint */\n      0x08\n        /* \"contracts/NFTMasterChef.sol\":28286:28367  totalAllocPoint = totalAllocPoint.sub(poolInfo[_pid].allocPoint).add(_allocPoint) */\n      dup2\n      swap1\n      sstore\n      pop\n        /* \"contracts/NFTMasterChef.sol\":28406:28417  _allocPoint */\n      dup2\n        /* \"contracts/NFTMasterChef.sol\":28378:28386  poolInfo */\n      0x06\n        /* \"contracts/NFTMasterChef.sol\":28387:28391  _pid */\n      dup5\n        /* \"contracts/NFTMasterChef.sol\":28378:28392  poolInfo[_pid] */\n      dup2\n      sload\n      dup2\n      lt\n      tag_402\n      jumpi\n      tag_403\n      tag_190\n      jump\t// in\n    tag_403:\n    tag_402:\n      swap1\n      0x00\n      mstore\n      keccak256(0x00, 0x20)\n      swap1\n      0x04\n      mul\n      add\n        /* \"contracts/NFTMasterChef.sol\":28378:28403  poolInfo[_pid].allocPoint */\n      0x01\n      add\n        /* \"contracts/NFTMasterChef.sol\":28378:28417  poolInfo[_pid].allocPoint = _allocPoint */\n      dup2\n      swap1\n      sstore\n      pop\n        /* \"contracts/NFTMasterChef.sol\":28120:28425  function set( uint256 _pid, uint256 _allocPoint, bool _withUpdate) public onlyOwner {\r... */\n      pop\n      pop\n      pop\n      jump\t// out\n        /* \"contracts/NFTMasterChef.sol\":20756:20859  function renounceOwnership() public virtual onlyOwner {\r... */\n    tag_122:\n        /* \"contracts/NFTMasterChef.sol\":20336:20348  _msgSender() */\n      tag_406\n        /* \"contracts/NFTMasterChef.sol\":20336:20346  _msgSender */\n      tag_181\n        /* \"contracts/NFTMasterChef.sol\":20336:20348  _msgSender() */\n      jump\t// in\n    tag_406:\n        /* \"contracts/NFTMasterChef.sol\":20325:20348  owner() == _msgSender() */\n      0xffffffffffffffffffffffffffffffffffffffff\n      and\n        /* \"contracts/NFTMasterChef.sol\":20325:20332  owner() */\n      tag_407\n        /* \"contracts/NFTMasterChef.sol\":20325:20330  owner */\n      tag_142\n        /* \"contracts/NFTMasterChef.sol\":20325:20332  owner() */\n      jump\t// in\n    tag_407:\n        /* \"contracts/NFTMasterChef.sol\":20325:20348  owner() == _msgSender() */\n      0xffffffffffffffffffffffffffffffffffffffff\n      and\n      eq\n        /* \"contracts/NFTMasterChef.sol\":20317:20385  require(owner() == _msgSender(), \"Ownable: caller is not the owner\") */\n      tag_408\n      jumpi\n      mload(0x40)\n      0x08c379a000000000000000000000000000000000000000000000000000000000\n      dup2\n      mstore\n      0x04\n      add\n      tag_409\n      swap1\n      tag_185\n      jump\t// in\n    tag_409:\n      mload(0x40)\n      dup1\n      swap2\n      sub\n      swap1\n      revert\n    tag_408:\n        /* \"contracts/NFTMasterChef.sol\":20821:20851  _transferOwnership(address(0)) */\n      tag_411\n        /* \"contracts/NFTMasterChef.sol\":20848:20849  0 */\n      0x00\n        /* \"contracts/NFTMasterChef.sol\":20821:20839  _transferOwnership */\n      tag_412\n        /* \"contracts/NFTMasterChef.sol\":20821:20851  _transferOwnership(address(0)) */\n      jump\t// in\n    tag_411:\n        /* \"contracts/NFTMasterChef.sol\":20756:20859  function renounceOwnership() public virtual onlyOwner {\r... */\n      jump\t// out\n        /* \"contracts/NFTMasterChef.sol\":24347:24375  address public DDTMasterchef */\n    tag_124:\n      0x0b\n      0x00\n      swap1\n      sload\n      swap1\n      0x0100\n      exp\n      swap1\n      div\n      0xffffffffffffffffffffffffffffffffffffffff\n      and\n      dup2\n      jump\t// out\n        /* \"contracts/NFTMasterChef.sol\":23880:23909  IMigratorChef public migrator */\n    tag_128:\n      0x05\n      0x00\n      swap1\n      sload\n      swap1\n      0x0100\n      exp\n      swap1\n      div\n      0xffffffffffffffffffffffffffffffffffffffff\n      and\n      dup2\n      jump\t// out\n        /* \"contracts/NFTMasterChef.sol\":24310:24340  address public NFTStakeAddress */\n    tag_132:\n      0x0a\n      0x00\n      swap1\n      sload\n      swap1\n      0x0100\n      exp\n      swap1\n      div\n      0xffffffffffffffffffffffffffffffffffffffff\n      and\n      dup2\n      jump\t// out\n        /* \"contracts/NFTMasterChef.sol\":23740:23775  uint256 public BONUS_MULTIPLIER = 1 */\n    tag_135:\n      sload(0x04)\n      dup2\n      jump\t// out\n        /* \"contracts/NFTMasterChef.sol\":25328:25446  function getPowerBalance(address account) public view returns(uint256) {\r... */\n    tag_139:\n        /* \"contracts/NFTMasterChef.sol\":25390:25397  uint256 */\n      0x00\n        /* \"contracts/NFTMasterChef.sol\":25417:25429  powerBalance */\n      0x0c\n        /* \"contracts/NFTMasterChef.sol\":25417:25438  powerBalance[account] */\n      0x00\n        /* \"contracts/NFTMasterChef.sol\":25430:25437  account */\n      dup4\n        /* \"contracts/NFTMasterChef.sol\":25417:25438  powerBalance[account] */\n      0xffffffffffffffffffffffffffffffffffffffff\n      and\n      0xffffffffffffffffffffffffffffffffffffffff\n      and\n      dup2\n      mstore\n      0x20\n      add\n      swap1\n      dup2\n      mstore\n      0x20\n      add\n      0x00\n      keccak256\n      sload\n        /* \"contracts/NFTMasterChef.sol\":25410:25438  return powerBalance[account] */\n      swap1\n      pop\n        /* \"contracts/NFTMasterChef.sol\":25328:25446  function getPowerBalance(address account) public view returns(uint256) {\r... */\n      swap2\n      swap1\n      pop\n      jump\t// out\n        /* \"contracts/NFTMasterChef.sol\":20105:20192  function owner() public view virtual returns (address) {\r... */\n    tag_142:\n        /* \"contracts/NFTMasterChef.sol\":20151:20158  address */\n      0x00\n        /* \"contracts/NFTMasterChef.sol\":20178:20184  _owner */\n      dup1\n      0x00\n      swap1\n      sload\n      swap1\n      0x0100\n      exp\n      swap1\n      div\n      0xffffffffffffffffffffffffffffffffffffffff\n      and\n        /* \"contracts/NFTMasterChef.sol\":20171:20184  return _owner */\n      swap1\n      pop\n        /* \"contracts/NFTMasterChef.sol\":20105:20192  function owner() public view virtual returns (address) {\r... */\n      swap1\n      jump\t// out\n        /* \"contracts/NFTMasterChef.sol\":29293:29437  function getMultiplier(uint256 _from, uint256 _to) public view returns (uint256) {\r... */\n    tag_146:\n        /* \"contracts/NFTMasterChef.sol\":29365:29372  uint256 */\n      0x00\n        /* \"contracts/NFTMasterChef.sol\":29393:29429  _to.sub(_from).mul(BONUS_MULTIPLIER) */\n      tag_416\n        /* \"contracts/NFTMasterChef.sol\":29412:29428  BONUS_MULTIPLIER */\n      sload(0x04)\n        /* \"contracts/NFTMasterChef.sol\":29393:29407  _to.sub(_from) */\n      tag_417\n        /* \"contracts/NFTMasterChef.sol\":29401:29406  _from */\n      dup6\n        /* \"contracts/NFTMasterChef.sol\":29393:29396  _to */\n      dup6\n        /* \"contracts/NFTMasterChef.sol\":29393:29400  _to.sub */\n      tag_201\n      swap1\n        /* \"contracts/NFTMasterChef.sol\":29393:29407  _to.sub(_from) */\n      swap2\n      swap1\n      0xffffffff\n      and\n      jump\t// in\n    tag_417:\n        /* \"contracts/NFTMasterChef.sol\":29393:29411  _to.sub(_from).mul */\n      tag_199\n      swap1\n        /* \"contracts/NFTMasterChef.sol\":29393:29429  _to.sub(_from).mul(BONUS_MULTIPLIER) */\n      swap2\n      swap1\n      0xffffffff\n      and\n      jump\t// in\n    tag_416:\n        /* \"contracts/NFTMasterChef.sol\":29386:29429  return _to.sub(_from).mul(BONUS_MULTIPLIER) */\n      swap1\n      pop\n        /* \"contracts/NFTMasterChef.sol\":29293:29437  function getMultiplier(uint256 _from, uint256 _to) public view returns (uint256) {\r... */\n      swap3\n      swap2\n      pop\n      pop\n      jump\t// out\n        /* \"contracts/NFTMasterChef.sol\":24025:24089  mapping(uint256 => mapping(address => UserInfo)) public userInfo */\n    tag_151:\n      mstore(0x20, 0x07)\n      dup2\n      0x00\n      mstore\n      mstore(0x20, keccak256(0x00, 0x40))\n      dup1\n      0x00\n      mstore\n      keccak256(0x00, 0x40)\n      0x00\n      swap2\n      pop\n      swap2\n      pop\n      pop\n      dup1\n      0x00\n      add\n      sload\n      swap1\n      dup1\n      0x01\n      add\n      sload\n      swap1\n      pop\n      dup3\n      jump\t// out\n        /* \"contracts/NFTMasterChef.sol\":25668:25784  function updateNFT(uint256 level, uint256 _power) public onlyOwner {\r... */\n    tag_156:\n        /* \"contracts/NFTMasterChef.sol\":20336:20348  _msgSender() */\n      tag_419\n        /* \"contracts/NFTMasterChef.sol\":20336:20346  _msgSender */\n      tag_181\n        /* \"contracts/NFTMasterChef.sol\":20336:20348  _msgSender() */\n      jump\t// in\n    tag_419:\n        /* \"contracts/NFTMasterChef.sol\":20325:20348  owner() == _msgSender() */\n      0xffffffffffffffffffffffffffffffffffffffff\n      and\n        /* \"contracts/NFTMasterChef.sol\":20325:20332  owner() */\n      tag_420\n        /* \"contracts/NFTMasterChef.sol\":20325:20330  owner */\n      tag_142\n        /* \"contracts/NFTMasterChef.sol\":20325:20332  owner() */\n      jump\t// in\n    tag_420:\n        /* \"contracts/NFTMasterChef.sol\":20325:20348  owner() == _msgSender() */\n      0xffffffffffffffffffffffffffffffffffffffff\n      and\n      eq\n        /* \"contracts/NFTMasterChef.sol\":20317:20385  require(owner() == _msgSender(), \"Ownable: caller is not the owner\") */\n      tag_421\n      jumpi\n      mload(0x40)\n      0x08c379a000000000000000000000000000000000000000000000000000000000\n      dup2\n      mstore\n      0x04\n      add\n      tag_422\n      swap1\n      tag_185\n      jump\t// in\n    tag_422:\n      mload(0x40)\n      dup1\n      swap2\n      sub\n      swap1\n      revert\n    tag_421:\n        /* \"contracts/NFTMasterChef.sol\":25770:25776  _power */\n      dup1\n        /* \"contracts/NFTMasterChef.sol\":25746:25754  nftsInfo */\n      0x01\n        /* \"contracts/NFTMasterChef.sol\":25755:25760  level */\n      dup4\n        /* \"contracts/NFTMasterChef.sol\":25746:25761  nftsInfo[level] */\n      dup2\n      sload\n      dup2\n      lt\n      tag_424\n      jumpi\n      tag_425\n      tag_190\n      jump\t// in\n    tag_425:\n    tag_424:\n      swap1\n      0x00\n      mstore\n      keccak256(0x00, 0x20)\n      swap1\n      0x02\n      mul\n      add\n        /* \"contracts/NFTMasterChef.sol\":25746:25767  nftsInfo[level].power */\n      0x01\n      add\n        /* \"contracts/NFTMasterChef.sol\":25746:25776  nftsInfo[level].power = _power */\n      dup2\n      swap1\n      sstore\n      pop\n        /* \"contracts/NFTMasterChef.sol\":25668:25784  function updateNFT(uint256 level, uint256 _power) public onlyOwner {\r... */\n      pop\n      pop\n      jump\t// out\n        /* \"contracts/NFTMasterChef.sol\":23593:23610  IERC20 public DDT */\n    tag_158:\n      0x02\n      0x00\n      swap1\n      sload\n      swap1\n      0x0100\n      exp\n      swap1\n      div\n      0xffffffffffffffffffffffffffffffffffffffff\n      and\n      dup2\n      jump\t// out\n        /* \"contracts/NFTMasterChef.sol\":33861:34757  function enterStakingCompund(uint256 _amount, address _account) public {\r... */\n    tag_163:\n        /* \"contracts/NFTMasterChef.sol\":33965:33980  NFTStakeAddress */\n      0x0a\n      0x00\n      swap1\n      sload\n      swap1\n      0x0100\n      exp\n      swap1\n      div\n      0xffffffffffffffffffffffffffffffffffffffff\n      and\n        /* \"contracts/NFTMasterChef.sol\":33951:33980  msg.sender == NFTStakeAddress */\n      0xffffffffffffffffffffffffffffffffffffffff\n      and\n        /* \"contracts/NFTMasterChef.sol\":33951:33961  msg.sender */\n      caller\n        /* \"contracts/NFTMasterChef.sol\":33951:33980  msg.sender == NFTStakeAddress */\n      0xffffffffffffffffffffffffffffffffffffffff\n      and\n      eq\n        /* \"contracts/NFTMasterChef.sol\":33951:33989  msg.sender == NFTStakeAddress || 1 > 0 */\n      dup1\n      tag_428\n      jumpi\n      pop\n        /* \"contracts/NFTMasterChef.sol\":33988:33989  0 */\n      0x00\n        /* \"contracts/NFTMasterChef.sol\":33984:33985  1 */\n      0x01\n        /* \"contracts/NFTMasterChef.sol\":33984:33989  1 > 0 */\n      gt\n        /* \"contracts/NFTMasterChef.sol\":33951:33989  msg.sender == NFTStakeAddress || 1 > 0 */\n    tag_428:\n        /* \"contracts/NFTMasterChef.sol\":33943:34014  require(msg.sender == NFTStakeAddress || 1 > 0, \"Caller is not family\") */\n      tag_429\n      jumpi\n      mload(0x40)\n      0x08c379a000000000000000000000000000000000000000000000000000000000\n      dup2\n      mstore\n      0x04\n      add\n      tag_430\n      swap1\n      tag_431\n      jump\t// in\n    tag_430:\n      mload(0x40)\n      dup1\n      swap2\n      sub\n      swap1\n      revert\n    tag_429:\n        /* \"contracts/NFTMasterChef.sol\":34025:34046  PoolInfo storage pool */\n      0x00\n        /* \"contracts/NFTMasterChef.sol\":34049:34057  poolInfo */\n      0x06\n        /* \"contracts/NFTMasterChef.sol\":34058:34059  0 */\n      0x00\n        /* \"contracts/NFTMasterChef.sol\":34049:34060  poolInfo[0] */\n      dup2\n      sload\n      dup2\n      lt\n      tag_432\n      jumpi\n      tag_433\n      tag_190\n      jump\t// in\n    tag_433:\n    tag_432:\n      swap1\n      0x00\n      mstore\n      keccak256(0x00, 0x20)\n      swap1\n      0x04\n      mul\n      add\n        /* \"contracts/NFTMasterChef.sol\":34025:34060  PoolInfo storage pool = poolInfo[0] */\n      swap1\n      pop\n        /* \"contracts/NFTMasterChef.sol\":34071:34092  UserInfo storage user */\n      0x00\n        /* \"contracts/NFTMasterChef.sol\":34095:34103  userInfo */\n      0x07\n        /* \"contracts/NFTMasterChef.sol\":34095:34106  userInfo[0] */\n      0x00\n        /* \"contracts/NFTMasterChef.sol\":34104:34105  0 */\n      dup1\n        /* \"contracts/NFTMasterChef.sol\":34095:34106  userInfo[0] */\n      dup2\n      mstore\n      0x20\n      add\n      swap1\n      dup2\n      mstore\n      0x20\n      add\n      0x00\n      keccak256\n        /* \"contracts/NFTMasterChef.sol\":34095:34125  userInfo[0][address(_account)] */\n      0x00\n        /* \"contracts/NFTMasterChef.sol\":34115:34123  _account */\n      dup5\n        /* \"contracts/NFTMasterChef.sol\":34095:34125  userInfo[0][address(_account)] */\n      0xffffffffffffffffffffffffffffffffffffffff\n      and\n      0xffffffffffffffffffffffffffffffffffffffff\n      and\n      dup2\n      mstore\n      0x20\n      add\n      swap1\n      dup2\n      mstore\n      0x20\n      add\n      0x00\n      keccak256\n        /* \"contracts/NFTMasterChef.sol\":34071:34125  UserInfo storage user = userInfo[0][address(_account)] */\n      swap1\n      pop\n        /* \"contracts/NFTMasterChef.sol\":34146:34159  updatePool(0) */\n      tag_435\n        /* \"contracts/NFTMasterChef.sol\":34157:34158  0 */\n      0x00\n        /* \"contracts/NFTMasterChef.sol\":34146:34156  updatePool */\n      tag_100\n        /* \"contracts/NFTMasterChef.sol\":34146:34159  updatePool(0) */\n      jump\t// in\n    tag_435:\n        /* \"contracts/NFTMasterChef.sol\":34188:34189  0 */\n      0x00\n        /* \"contracts/NFTMasterChef.sol\":34174:34178  user */\n      dup2\n        /* \"contracts/NFTMasterChef.sol\":34174:34185  user.amount */\n      0x00\n      add\n      sload\n        /* \"contracts/NFTMasterChef.sol\":34174:34189  user.amount > 0 */\n      gt\n        /* \"contracts/NFTMasterChef.sol\":34170:34448  if (user.amount > 0) {\r... */\n      iszero\n      tag_436\n      jumpi\n        /* \"contracts/NFTMasterChef.sol\":34206:34221  uint256 pending */\n      0x00\n        /* \"contracts/NFTMasterChef.sol\":34224:34293  user.amount.mul(pool.accPowerPerShare).div(1e12).sub(user.rewardDebt) */\n      tag_437\n        /* \"contracts/NFTMasterChef.sol\":34277:34281  user */\n      dup3\n        /* \"contracts/NFTMasterChef.sol\":34277:34292  user.rewardDebt */\n      0x01\n      add\n      sload\n        /* \"contracts/NFTMasterChef.sol\":34224:34272  user.amount.mul(pool.accPowerPerShare).div(1e12) */\n      tag_438\n        /* \"contracts/NFTMasterChef.sol\":34267:34271  1e12 */\n      0xe8d4a51000\n        /* \"contracts/NFTMasterChef.sol\":34224:34262  user.amount.mul(pool.accPowerPerShare) */\n      tag_439\n        /* \"contracts/NFTMasterChef.sol\":34240:34244  pool */\n      dup8\n        /* \"contracts/NFTMasterChef.sol\":34240:34261  pool.accPowerPerShare */\n      0x03\n      add\n      sload\n        /* \"contracts/NFTMasterChef.sol\":34224:34228  user */\n      dup8\n        /* \"contracts/NFTMasterChef.sol\":34224:34235  user.amount */\n      0x00\n      add\n      sload\n        /* \"contracts/NFTMasterChef.sol\":34224:34239  user.amount.mul */\n      tag_199\n      swap1\n        /* \"contracts/NFTMasterChef.sol\":34224:34262  user.amount.mul(pool.accPowerPerShare) */\n      swap2\n      swap1\n      0xffffffff\n      and\n      jump\t// in\n    tag_439:\n        /* \"contracts/NFTMasterChef.sol\":34224:34266  user.amount.mul(pool.accPowerPerShare).div */\n      tag_200\n      swap1\n        /* \"contracts/NFTMasterChef.sol\":34224:34272  user.amount.mul(pool.accPowerPerShare).div(1e12) */\n      swap2\n      swap1\n      0xffffffff\n      and\n      jump\t// in\n    tag_438:\n        /* \"contracts/NFTMasterChef.sol\":34224:34276  user.amount.mul(pool.accPowerPerShare).div(1e12).sub */\n      tag_201\n      swap1\n        /* \"contracts/NFTMasterChef.sol\":34224:34293  user.amount.mul(pool.accPowerPerShare).div(1e12).sub(user.rewardDebt) */\n      swap2\n      swap1\n      0xffffffff\n      and\n      jump\t// in\n    tag_437:\n        /* \"contracts/NFTMasterChef.sol\":34206:34293  uint256 pending = user.amount.mul(pool.accPowerPerShare).div(1e12).sub(user.rewardDebt) */\n      swap1\n      pop\n        /* \"contracts/NFTMasterChef.sol\":34321:34322  0 */\n      0x00\n        /* \"contracts/NFTMasterChef.sol\":34311:34318  pending */\n      dup2\n        /* \"contracts/NFTMasterChef.sol\":34311:34322  pending > 0 */\n      gt\n        /* \"contracts/NFTMasterChef.sol\":34308:34437  if(pending > 0) {\r... */\n      iszero\n      tag_440\n      jumpi\n        /* \"contracts/NFTMasterChef.sol\":34377:34421  powerBalance[address(_account)].add(pending) */\n      tag_441\n        /* \"contracts/NFTMasterChef.sol\":34413:34420  pending */\n      dup2\n        /* \"contracts/NFTMasterChef.sol\":34377:34389  powerBalance */\n      0x0c\n        /* \"contracts/NFTMasterChef.sol\":34377:34408  powerBalance[address(_account)] */\n      0x00\n        /* \"contracts/NFTMasterChef.sol\":34398:34406  _account */\n      dup8\n        /* \"contracts/NFTMasterChef.sol\":34377:34408  powerBalance[address(_account)] */\n      0xffffffffffffffffffffffffffffffffffffffff\n      and\n      0xffffffffffffffffffffffffffffffffffffffff\n      and\n      dup2\n      mstore\n      0x20\n      add\n      swap1\n      dup2\n      mstore\n      0x20\n      add\n      0x00\n      keccak256\n      sload\n        /* \"contracts/NFTMasterChef.sol\":34377:34412  powerBalance[address(_account)].add */\n      tag_204\n      swap1\n        /* \"contracts/NFTMasterChef.sol\":34377:34421  powerBalance[address(_account)].add(pending) */\n      swap2\n      swap1\n      0xffffffff\n      and\n      jump\t// in\n    tag_441:\n        /* \"contracts/NFTMasterChef.sol\":34343:34355  powerBalance */\n      0x0c\n        /* \"contracts/NFTMasterChef.sol\":34343:34374  powerBalance[address(_account)] */\n      0x00\n        /* \"contracts/NFTMasterChef.sol\":34364:34372  _account */\n      dup7\n        /* \"contracts/NFTMasterChef.sol\":34343:34374  powerBalance[address(_account)] */\n      0xffffffffffffffffffffffffffffffffffffffff\n      and\n      0xffffffffffffffffffffffffffffffffffffffff\n      and\n      dup2\n      mstore\n      0x20\n      add\n      swap1\n      dup2\n      mstore\n      0x20\n      add\n      0x00\n      keccak256\n        /* \"contracts/NFTMasterChef.sol\":34343:34421  powerBalance[address(_account)] = powerBalance[address(_account)].add(pending) */\n      dup2\n      swap1\n      sstore\n      pop\n        /* \"contracts/NFTMasterChef.sol\":34308:34437  if(pending > 0) {\r... */\n    tag_440:\n        /* \"contracts/NFTMasterChef.sol\":34191:34448  {\r... */\n      pop\n        /* \"contracts/NFTMasterChef.sol\":34170:34448  if (user.amount > 0) {\r... */\n    tag_436:\n        /* \"contracts/NFTMasterChef.sol\":34471:34472  0 */\n      0x00\n        /* \"contracts/NFTMasterChef.sol\":34461:34468  _amount */\n      dup5\n        /* \"contracts/NFTMasterChef.sol\":34461:34472  _amount > 0 */\n      gt\n        /* \"contracts/NFTMasterChef.sol\":34458:34628  if(_amount > 0) {\r... */\n      iszero\n      tag_442\n      jumpi\n        /* \"contracts/NFTMasterChef.sol\":34489:34563  pool.lpToken.safeTransferFrom(address(msg.sender), address(this), _amount) */\n      tag_443\n        /* \"contracts/NFTMasterChef.sol\":34527:34537  msg.sender */\n      caller\n        /* \"contracts/NFTMasterChef.sol\":34548:34552  this */\n      address\n        /* \"contracts/NFTMasterChef.sol\":34555:34562  _amount */\n      dup7\n        /* \"contracts/NFTMasterChef.sol\":34489:34493  pool */\n      dup6\n        /* \"contracts/NFTMasterChef.sol\":34489:34501  pool.lpToken */\n      0x00\n      add\n      0x00\n      swap1\n      sload\n      swap1\n      0x0100\n      exp\n      swap1\n      div\n      0xffffffffffffffffffffffffffffffffffffffff\n      and\n        /* \"contracts/NFTMasterChef.sol\":34489:34518  pool.lpToken.safeTransferFrom */\n      0xffffffffffffffffffffffffffffffffffffffff\n      and\n      tag_290\n      swap1\n        /* \"contracts/NFTMasterChef.sol\":34489:34563  pool.lpToken.safeTransferFrom(address(msg.sender), address(this), _amount) */\n      swap4\n      swap3\n      swap2\n      swap1\n      0xffffffff\n      and\n      jump\t// in\n    tag_443:\n        /* \"contracts/NFTMasterChef.sol\":34592:34616  user.amount.add(_amount) */\n      tag_444\n        /* \"contracts/NFTMasterChef.sol\":34608:34615  _amount */\n      dup5\n        /* \"contracts/NFTMasterChef.sol\":34592:34596  user */\n      dup3\n        /* \"contracts/NFTMasterChef.sol\":34592:34603  user.amount */\n      0x00\n      add\n      sload\n        /* \"contracts/NFTMasterChef.sol\":34592:34607  user.amount.add */\n      tag_204\n      swap1\n        /* \"contracts/NFTMasterChef.sol\":34592:34616  user.amount.add(_amount) */\n      swap2\n      swap1\n      0xffffffff\n      and\n      jump\t// in\n    tag_444:\n        /* \"contracts/NFTMasterChef.sol\":34578:34582  user */\n      dup2\n        /* \"contracts/NFTMasterChef.sol\":34578:34589  user.amount */\n      0x00\n      add\n        /* \"contracts/NFTMasterChef.sol\":34578:34616  user.amount = user.amount.add(_amount) */\n      dup2\n      swap1\n      sstore\n      pop\n        /* \"contracts/NFTMasterChef.sol\":34458:34628  if(_amount > 0) {\r... */\n    tag_442:\n        /* \"contracts/NFTMasterChef.sol\":34656:34704  user.amount.mul(pool.accPowerPerShare).div(1e12) */\n      tag_445\n        /* \"contracts/NFTMasterChef.sol\":34699:34703  1e12 */\n      0xe8d4a51000\n        /* \"contracts/NFTMasterChef.sol\":34656:34694  user.amount.mul(pool.accPowerPerShare) */\n      tag_446\n        /* \"contracts/NFTMasterChef.sol\":34672:34676  pool */\n      dup5\n        /* \"contracts/NFTMasterChef.sol\":34672:34693  pool.accPowerPerShare */\n      0x03\n      add\n      sload\n        /* \"contracts/NFTMasterChef.sol\":34656:34660  user */\n      dup5\n        /* \"contracts/NFTMasterChef.sol\":34656:34667  user.amount */\n      0x00\n      add\n      sload\n        /* \"contracts/NFTMasterChef.sol\":34656:34671  user.amount.mul */\n      tag_199\n      swap1\n        /* \"contracts/NFTMasterChef.sol\":34656:34694  user.amount.mul(pool.accPowerPerShare) */\n      swap2\n      swap1\n      0xffffffff\n      and\n      jump\t// in\n    tag_446:\n        /* \"contracts/NFTMasterChef.sol\":34656:34698  user.amount.mul(pool.accPowerPerShare).div */\n      tag_200\n      swap1\n        /* \"contracts/NFTMasterChef.sol\":34656:34704  user.amount.mul(pool.accPowerPerShare).div(1e12) */\n      swap2\n      swap1\n      0xffffffff\n      and\n      jump\t// in\n    tag_445:\n        /* \"contracts/NFTMasterChef.sol\":34638:34642  user */\n      dup2\n        /* \"contracts/NFTMasterChef.sol\":34638:34653  user.rewardDebt */\n      0x01\n      add\n        /* \"contracts/NFTMasterChef.sol\":34638:34704  user.rewardDebt = user.amount.mul(pool.accPowerPerShare).div(1e12) */\n      dup2\n      swap1\n      sstore\n      pop\n        /* \"contracts/NFTMasterChef.sol\":34738:34739  0 */\n      0x00\n        /* \"contracts/NFTMasterChef.sol\":34728:34736  _account */\n      dup4\n        /* \"contracts/NFTMasterChef.sol\":34720:34749  Deposit(_account, 0, _amount) */\n      0xffffffffffffffffffffffffffffffffffffffff\n      and\n      0x90890809c654f11d6e72a28fa60149770a0d11ec6c92319d6ceb2bb0a4ea1a15\n        /* \"contracts/NFTMasterChef.sol\":34741:34748  _amount */\n      dup7\n        /* \"contracts/NFTMasterChef.sol\":34720:34749  Deposit(_account, 0, _amount) */\n      mload(0x40)\n      tag_447\n      swap2\n      swap1\n      tag_50\n      jump\t// in\n    tag_447:\n      mload(0x40)\n      dup1\n      swap2\n      sub\n      swap1\n      log3\n        /* \"contracts/NFTMasterChef.sol\":33932:34757  {\r... */\n      pop\n      pop\n        /* \"contracts/NFTMasterChef.sol\":33861:34757  function enterStakingCompund(uint256 _amount, address _account) public {\r... */\n      pop\n      pop\n      jump\t// out\n        /* \"contracts/NFTMasterChef.sol\":24384:24431  mapping(address => uint256) public powerBalance */\n    tag_166:\n      mstore(0x20, 0x0c)\n      dup1\n      0x00\n      mstore\n      keccak256(0x00, 0x40)\n      0x00\n      swap2\n      pop\n      swap1\n      pop\n      sload\n      dup2\n      jump\t// out\n        /* \"contracts/NFTMasterChef.sol\":31368:32164  function deposit(uint256 _pid, uint256 _amount) public {\r... */\n    tag_170:\n        /* \"contracts/NFTMasterChef.sol\":31453:31454  0 */\n      0x00\n        /* \"contracts/NFTMasterChef.sol\":31445:31449  _pid */\n      dup3\n        /* \"contracts/NFTMasterChef.sol\":31445:31454  _pid != 0 */\n      eq\n      iszero\n        /* \"contracts/NFTMasterChef.sol\":31436:31483  require (_pid != 0, 'deposit Power by staking') */\n      tag_449\n      jumpi\n      mload(0x40)\n      0x08c379a000000000000000000000000000000000000000000000000000000000\n      dup2\n      mstore\n      0x04\n      add\n      tag_450\n      swap1\n      tag_451\n      jump\t// in\n    tag_450:\n      mload(0x40)\n      dup1\n      swap2\n      sub\n      swap1\n      revert\n    tag_449:\n        /* \"contracts/NFTMasterChef.sol\":31496:31517  PoolInfo storage pool */\n      0x00\n        /* \"contracts/NFTMasterChef.sol\":31520:31528  poolInfo */\n      0x06\n        /* \"contracts/NFTMasterChef.sol\":31529:31533  _pid */\n      dup4\n        /* \"contracts/NFTMasterChef.sol\":31520:31534  poolInfo[_pid] */\n      dup2\n      sload\n      dup2\n      lt\n      tag_452\n      jumpi\n      tag_453\n      tag_190\n      jump\t// in\n    tag_453:\n    tag_452:\n      swap1\n      0x00\n      mstore\n      keccak256(0x00, 0x20)\n      swap1\n      0x04\n      mul\n      add\n        /* \"contracts/NFTMasterChef.sol\":31496:31534  PoolInfo storage pool = poolInfo[_pid] */\n      swap1\n      pop\n        /* \"contracts/NFTMasterChef.sol\":31545:31566  UserInfo storage user */\n      0x00\n        /* \"contracts/NFTMasterChef.sol\":31569:31577  userInfo */\n      0x07\n        /* \"contracts/NFTMasterChef.sol\":31569:31583  userInfo[_pid] */\n      0x00\n        /* \"contracts/NFTMasterChef.sol\":31578:31582  _pid */\n      dup6\n        /* \"contracts/NFTMasterChef.sol\":31569:31583  userInfo[_pid] */\n      dup2\n      mstore\n      0x20\n      add\n      swap1\n      dup2\n      mstore\n      0x20\n      add\n      0x00\n      keccak256\n        /* \"contracts/NFTMasterChef.sol\":31569:31595  userInfo[_pid][msg.sender] */\n      0x00\n        /* \"contracts/NFTMasterChef.sol\":31584:31594  msg.sender */\n      caller\n        /* \"contracts/NFTMasterChef.sol\":31569:31595  userInfo[_pid][msg.sender] */\n      0xffffffffffffffffffffffffffffffffffffffff\n      and\n      0xffffffffffffffffffffffffffffffffffffffff\n      and\n      dup2\n      mstore\n      0x20\n      add\n      swap1\n      dup2\n      mstore\n      0x20\n      add\n      0x00\n      keccak256\n        /* \"contracts/NFTMasterChef.sol\":31545:31595  UserInfo storage user = userInfo[_pid][msg.sender] */\n      swap1\n      pop\n        /* \"contracts/NFTMasterChef.sol\":31606:31622  updatePool(_pid) */\n      tag_455\n        /* \"contracts/NFTMasterChef.sol\":31617:31621  _pid */\n      dup5\n        /* \"contracts/NFTMasterChef.sol\":31606:31616  updatePool */\n      tag_100\n        /* \"contracts/NFTMasterChef.sol\":31606:31622  updatePool(_pid) */\n      jump\t// in\n    tag_455:\n        /* \"contracts/NFTMasterChef.sol\":31651:31652  0 */\n      0x00\n        /* \"contracts/NFTMasterChef.sol\":31637:31641  user */\n      dup2\n        /* \"contracts/NFTMasterChef.sol\":31637:31648  user.amount */\n      0x00\n      add\n      sload\n        /* \"contracts/NFTMasterChef.sol\":31637:31652  user.amount > 0 */\n      gt\n        /* \"contracts/NFTMasterChef.sol\":31633:31896  if (user.amount > 0) {\r... */\n      iszero\n      tag_456\n      jumpi\n        /* \"contracts/NFTMasterChef.sol\":31669:31684  uint256 pending */\n      0x00\n        /* \"contracts/NFTMasterChef.sol\":31687:31756  user.amount.mul(pool.accPowerPerShare).div(1e12).sub(user.rewardDebt) */\n      tag_457\n        /* \"contracts/NFTMasterChef.sol\":31740:31744  user */\n      dup3\n        /* \"contracts/NFTMasterChef.sol\":31740:31755  user.rewardDebt */\n      0x01\n      add\n      sload\n        /* \"contracts/NFTMasterChef.sol\":31687:31735  user.amount.mul(pool.accPowerPerShare).div(1e12) */\n      tag_458\n        /* \"contracts/NFTMasterChef.sol\":31730:31734  1e12 */\n      0xe8d4a51000\n        /* \"contracts/NFTMasterChef.sol\":31687:31725  user.amount.mul(pool.accPowerPerShare) */\n      tag_459\n        /* \"contracts/NFTMasterChef.sol\":31703:31707  pool */\n      dup8\n        /* \"contracts/NFTMasterChef.sol\":31703:31724  pool.accPowerPerShare */\n      0x03\n      add\n      sload\n        /* \"contracts/NFTMasterChef.sol\":31687:31691  user */\n      dup8\n        /* \"contracts/NFTMasterChef.sol\":31687:31698  user.amount */\n      0x00\n      add\n      sload\n        /* \"contracts/NFTMasterChef.sol\":31687:31702  user.amount.mul */\n      tag_199\n      swap1\n        /* \"contracts/NFTMasterChef.sol\":31687:31725  user.amount.mul(pool.accPowerPerShare) */\n      swap2\n      swap1\n      0xffffffff\n      and\n      jump\t// in\n    tag_459:\n        /* \"contracts/NFTMasterChef.sol\":31687:31729  user.amount.mul(pool.accPowerPerShare).div */\n      tag_200\n      swap1\n        /* \"contracts/NFTMasterChef.sol\":31687:31735  user.amount.mul(pool.accPowerPerShare).div(1e12) */\n      swap2\n      swap1\n      0xffffffff\n      and\n      jump\t// in\n    tag_458:\n        /* \"contracts/NFTMasterChef.sol\":31687:31739  user.amount.mul(pool.accPowerPerShare).div(1e12).sub */\n      tag_201\n      swap1\n        /* \"contracts/NFTMasterChef.sol\":31687:31756  user.amount.mul(pool.accPowerPerShare).div(1e12).sub(user.rewardDebt) */\n      swap2\n      swap1\n      0xffffffff\n      and\n      jump\t// in\n    tag_457:\n        /* \"contracts/NFTMasterChef.sol\":31669:31756  uint256 pending = user.amount.mul(pool.accPowerPerShare).div(1e12).sub(user.rewardDebt) */\n      swap1\n      pop\n        /* \"contracts/NFTMasterChef.sol\":31784:31785  0 */\n      0x00\n        /* \"contracts/NFTMasterChef.sol\":31774:31781  pending */\n      dup2\n        /* \"contracts/NFTMasterChef.sol\":31774:31785  pending > 0 */\n      gt\n        /* \"contracts/NFTMasterChef.sol\":31771:31885  if(pending > 0){\r... */\n      iszero\n      tag_460\n      jumpi\n        /* \"contracts/NFTMasterChef.sol\":31832:31869  powerBalance[msg.sender].add(pending) */\n      tag_461\n        /* \"contracts/NFTMasterChef.sol\":31861:31868  pending */\n      dup2\n        /* \"contracts/NFTMasterChef.sol\":31832:31844  powerBalance */\n      0x0c\n        /* \"contracts/NFTMasterChef.sol\":31832:31856  powerBalance[msg.sender] */\n      0x00\n        /* \"contracts/NFTMasterChef.sol\":31845:31855  msg.sender */\n      caller\n        /* \"contracts/NFTMasterChef.sol\":31832:31856  powerBalance[msg.sender] */\n      0xffffffffffffffffffffffffffffffffffffffff\n      and\n      0xffffffffffffffffffffffffffffffffffffffff\n      and\n      dup2\n      mstore\n      0x20\n      add\n      swap1\n      dup2\n      mstore\n      0x20\n      add\n      0x00\n      keccak256\n      sload\n        /* \"contracts/NFTMasterChef.sol\":31832:31860  powerBalance[msg.sender].add */\n      tag_204\n      swap1\n        /* \"contracts/NFTMasterChef.sol\":31832:31869  powerBalance[msg.sender].add(pending) */\n      swap2\n      swap1\n      0xffffffff\n      and\n      jump\t// in\n    tag_461:\n        /* \"contracts/NFTMasterChef.sol\":31805:31817  powerBalance */\n      0x0c\n        /* \"contracts/NFTMasterChef.sol\":31805:31829  powerBalance[msg.sender] */\n      0x00\n        /* \"contracts/NFTMasterChef.sol\":31818:31828  msg.sender */\n      caller\n        /* \"contracts/NFTMasterChef.sol\":31805:31829  powerBalance[msg.sender] */\n      0xffffffffffffffffffffffffffffffffffffffff\n      and\n      0xffffffffffffffffffffffffffffffffffffffff\n      and\n      dup2\n      mstore\n      0x20\n      add\n      swap1\n      dup2\n      mstore\n      0x20\n      add\n      0x00\n      keccak256\n        /* \"contracts/NFTMasterChef.sol\":31805:31869  powerBalance[msg.sender] = powerBalance[msg.sender].add(pending) */\n      dup2\n      swap1\n      sstore\n      pop\n        /* \"contracts/NFTMasterChef.sol\":31771:31885  if(pending > 0){\r... */\n    tag_460:\n        /* \"contracts/NFTMasterChef.sol\":31654:31896  {\r... */\n      pop\n        /* \"contracts/NFTMasterChef.sol\":31633:31896  if (user.amount > 0) {\r... */\n    tag_456:\n        /* \"contracts/NFTMasterChef.sol\":31906:31980  pool.lpToken.safeTransferFrom(address(msg.sender), address(this), _amount) */\n      tag_462\n        /* \"contracts/NFTMasterChef.sol\":31944:31954  msg.sender */\n      caller\n        /* \"contracts/NFTMasterChef.sol\":31965:31969  this */\n      address\n        /* \"contracts/NFTMasterChef.sol\":31972:31979  _amount */\n      dup6\n        /* \"contracts/NFTMasterChef.sol\":31906:31910  pool */\n      dup6\n        /* \"contracts/NFTMasterChef.sol\":31906:31918  pool.lpToken */\n      0x00\n      add\n      0x00\n      swap1\n      sload\n      swap1\n      0x0100\n      exp\n      swap1\n      div\n      0xffffffffffffffffffffffffffffffffffffffff\n      and\n        /* \"contracts/NFTMasterChef.sol\":31906:31935  pool.lpToken.safeTransferFrom */\n      0xffffffffffffffffffffffffffffffffffffffff\n      and\n      tag_290\n      swap1\n        /* \"contracts/NFTMasterChef.sol\":31906:31980  pool.lpToken.safeTransferFrom(address(msg.sender), address(this), _amount) */\n      swap4\n      swap3\n      swap2\n      swap1\n      0xffffffff\n      and\n      jump\t// in\n    tag_462:\n        /* \"contracts/NFTMasterChef.sol\":32005:32029  user.amount.add(_amount) */\n      tag_463\n        /* \"contracts/NFTMasterChef.sol\":32021:32028  _amount */\n      dup4\n        /* \"contracts/NFTMasterChef.sol\":32005:32009  user */\n      dup3\n        /* \"contracts/NFTMasterChef.sol\":32005:32016  user.amount */\n      0x00\n      add\n      sload\n        /* \"contracts/NFTMasterChef.sol\":32005:32020  user.amount.add */\n      tag_204\n      swap1\n        /* \"contracts/NFTMasterChef.sol\":32005:32029  user.amount.add(_amount) */\n      swap2\n      swap1\n      0xffffffff\n      and\n      jump\t// in\n    tag_463:\n        /* \"contracts/NFTMasterChef.sol\":31991:31995  user */\n      dup2\n        /* \"contracts/NFTMasterChef.sol\":31991:32002  user.amount */\n      0x00\n      add\n        /* \"contracts/NFTMasterChef.sol\":31991:32029  user.amount = user.amount.add(_amount) */\n      dup2\n      swap1\n      sstore\n      pop\n        /* \"contracts/NFTMasterChef.sol\":32058:32106  user.amount.mul(pool.accPowerPerShare).div(1e12) */\n      tag_464\n        /* \"contracts/NFTMasterChef.sol\":32101:32105  1e12 */\n      0xe8d4a51000\n        /* \"contracts/NFTMasterChef.sol\":32058:32096  user.amount.mul(pool.accPowerPerShare) */\n      tag_465\n        /* \"contracts/NFTMasterChef.sol\":32074:32078  pool */\n      dup5\n        /* \"contracts/NFTMasterChef.sol\":32074:32095  pool.accPowerPerShare */\n      0x03\n      add\n      sload\n        /* \"contracts/NFTMasterChef.sol\":32058:32062  user */\n      dup5\n        /* \"contracts/NFTMasterChef.sol\":32058:32069  user.amount */\n      0x00\n      add\n      sload\n        /* \"contracts/NFTMasterChef.sol\":32058:32073  user.amount.mul */\n      tag_199\n      swap1\n        /* \"contracts/NFTMasterChef.sol\":32058:32096  user.amount.mul(pool.accPowerPerShare) */\n      swap2\n      swap1\n      0xffffffff\n      and\n      jump\t// in\n    tag_465:\n        /* \"contracts/NFTMasterChef.sol\":32058:32100  user.amount.mul(pool.accPowerPerShare).div */\n      tag_200\n      swap1\n        /* \"contracts/NFTMasterChef.sol\":32058:32106  user.amount.mul(pool.accPowerPerShare).div(1e12) */\n      swap2\n      swap1\n      0xffffffff\n      and\n      jump\t// in\n    tag_464:\n        /* \"contracts/NFTMasterChef.sol\":32040:32044  user */\n      dup2\n        /* \"contracts/NFTMasterChef.sol\":32040:32055  user.rewardDebt */\n      0x01\n      add\n        /* \"contracts/NFTMasterChef.sol\":32040:32106  user.rewardDebt = user.amount.mul(pool.accPowerPerShare).div(1e12) */\n      dup2\n      swap1\n      sstore\n      pop\n        /* \"contracts/NFTMasterChef.sol\":32142:32146  _pid */\n      dup4\n        /* \"contracts/NFTMasterChef.sol\":32130:32140  msg.sender */\n      caller\n        /* \"contracts/NFTMasterChef.sol\":32122:32156  Deposit(msg.sender, _pid, _amount) */\n      0xffffffffffffffffffffffffffffffffffffffff\n      and\n      0x90890809c654f11d6e72a28fa60149770a0d11ec6c92319d6ceb2bb0a4ea1a15\n        /* \"contracts/NFTMasterChef.sol\":32148:32155  _amount */\n      dup6\n        /* \"contracts/NFTMasterChef.sol\":32122:32156  Deposit(msg.sender, _pid, _amount) */\n      mload(0x40)\n      tag_466\n      swap2\n      swap1\n      tag_50\n      jump\t// in\n    tag_466:\n      mload(0x40)\n      dup1\n      swap2\n      sub\n      swap1\n      log3\n        /* \"contracts/NFTMasterChef.sol\":31423:32164  {\r... */\n      pop\n      pop\n        /* \"contracts/NFTMasterChef.sol\":31368:32164  function deposit(uint256 _pid, uint256 _amount) public {\r... */\n      pop\n      pop\n      jump\t// out\n        /* \"contracts/NFTMasterChef.sol\":21014:21215  function transferOwnership(address newOwner) public virtual onlyOwner {\r... */\n    tag_173:\n        /* \"contracts/NFTMasterChef.sol\":20336:20348  _msgSender() */\n      tag_468\n        /* \"contracts/NFTMasterChef.sol\":20336:20346  _msgSender */\n      tag_181\n        /* \"contracts/NFTMasterChef.sol\":20336:20348  _msgSender() */\n      jump\t// in\n    tag_468:\n        /* \"contracts/NFTMasterChef.sol\":20325:20348  owner() == _msgSender() */\n      0xffffffffffffffffffffffffffffffffffffffff\n      and\n        /* \"contracts/NFTMasterChef.sol\":20325:20332  owner() */\n      tag_469\n        /* \"contracts/NFTMasterChef.sol\":20325:20330  owner */\n      tag_142\n        /* \"contracts/NFTMasterChef.sol\":20325:20332  owner() */\n      jump\t// in\n    tag_469:\n        /* \"contracts/NFTMasterChef.sol\":20325:20348  owner() == _msgSender() */\n      0xffffffffffffffffffffffffffffffffffffffff\n      and\n      eq\n        /* \"contracts/NFTMasterChef.sol\":20317:20385  require(owner() == _msgSender(), \"Ownable: caller is not the owner\") */\n      tag_470\n      jumpi\n      mload(0x40)\n      0x08c379a000000000000000000000000000000000000000000000000000000000\n      dup2\n      mstore\n      0x04\n      add\n      tag_471\n      swap1\n      tag_185\n      jump\t// in\n    tag_471:\n      mload(0x40)\n      dup1\n      swap2\n      sub\n      swap1\n      revert\n    tag_470:\n        /* \"contracts/NFTMasterChef.sol\":21123:21124  0 */\n      0x00\n        /* \"contracts/NFTMasterChef.sol\":21103:21125  newOwner != address(0) */\n      0xffffffffffffffffffffffffffffffffffffffff\n      and\n        /* \"contracts/NFTMasterChef.sol\":21103:21111  newOwner */\n      dup2\n        /* \"contracts/NFTMasterChef.sol\":21103:21125  newOwner != address(0) */\n      0xffffffffffffffffffffffffffffffffffffffff\n      and\n      eq\n      iszero\n        /* \"contracts/NFTMasterChef.sol\":21095:21168  require(newOwner != address(0), \"Ownable: new owner is the zero address\") */\n      tag_473\n      jumpi\n      mload(0x40)\n      0x08c379a000000000000000000000000000000000000000000000000000000000\n      dup2\n      mstore\n      0x04\n      add\n      tag_474\n      swap1\n      tag_475\n      jump\t// in\n    tag_474:\n      mload(0x40)\n      dup1\n      swap2\n      sub\n      swap1\n      revert\n    tag_473:\n        /* \"contracts/NFTMasterChef.sol\":21179:21207  _transferOwnership(newOwner) */\n      tag_476\n        /* \"contracts/NFTMasterChef.sol\":21198:21206  newOwner */\n      dup2\n        /* \"contracts/NFTMasterChef.sol\":21179:21197  _transferOwnership */\n      tag_412\n        /* \"contracts/NFTMasterChef.sol\":21179:21207  _transferOwnership(newOwner) */\n      jump\t// in\n    tag_476:\n        /* \"contracts/NFTMasterChef.sol\":21014:21215  function transferOwnership(address newOwner) public virtual onlyOwner {\r... */\n      pop\n      jump\t// out\n        /* \"contracts/NFTMasterChef.sol\":29502:30269  function pendingPower(uint256 _pid, address _user) external view returns (uint256){\r... */\n    tag_176:\n        /* \"contracts/NFTMasterChef.sol\":29576:29583  uint256 */\n      0x00\n        /* \"contracts/NFTMasterChef.sol\":29595:29616  PoolInfo storage pool */\n      dup1\n        /* \"contracts/NFTMasterChef.sol\":29619:29627  poolInfo */\n      0x06\n        /* \"contracts/NFTMasterChef.sol\":29628:29632  _pid */\n      dup5\n        /* \"contracts/NFTMasterChef.sol\":29619:29633  poolInfo[_pid] */\n      dup2\n      sload\n      dup2\n      lt\n      tag_478\n      jumpi\n      tag_479\n      tag_190\n      jump\t// in\n    tag_479:\n    tag_478:\n      swap1\n      0x00\n      mstore\n      keccak256(0x00, 0x20)\n      swap1\n      0x04\n      mul\n      add\n        /* \"contracts/NFTMasterChef.sol\":29595:29633  PoolInfo storage pool = poolInfo[_pid] */\n      swap1\n      pop\n        /* \"contracts/NFTMasterChef.sol\":29644:29665  UserInfo storage user */\n      0x00\n        /* \"contracts/NFTMasterChef.sol\":29668:29676  userInfo */\n      0x07\n        /* \"contracts/NFTMasterChef.sol\":29668:29682  userInfo[_pid] */\n      0x00\n        /* \"contracts/NFTMasterChef.sol\":29677:29681  _pid */\n      dup7\n        /* \"contracts/NFTMasterChef.sol\":29668:29682  userInfo[_pid] */\n      dup2\n      mstore\n      0x20\n      add\n      swap1\n      dup2\n      mstore\n      0x20\n      add\n      0x00\n      keccak256\n        /* \"contracts/NFTMasterChef.sol\":29668:29689  userInfo[_pid][_user] */\n      0x00\n        /* \"contracts/NFTMasterChef.sol\":29683:29688  _user */\n      dup6\n        /* \"contracts/NFTMasterChef.sol\":29668:29689  userInfo[_pid][_user] */\n      0xffffffffffffffffffffffffffffffffffffffff\n      and\n      0xffffffffffffffffffffffffffffffffffffffff\n      and\n      dup2\n      mstore\n      0x20\n      add\n      swap1\n      dup2\n      mstore\n      0x20\n      add\n      0x00\n      keccak256\n        /* \"contracts/NFTMasterChef.sol\":29644:29689  UserInfo storage user = userInfo[_pid][_user] */\n      swap1\n      pop\n        /* \"contracts/NFTMasterChef.sol\":29700:29724  uint256 accPowerPerShare */\n      0x00\n        /* \"contracts/NFTMasterChef.sol\":29727:29731  pool */\n      dup3\n        /* \"contracts/NFTMasterChef.sol\":29727:29748  pool.accPowerPerShare */\n      0x03\n      add\n      sload\n        /* \"contracts/NFTMasterChef.sol\":29700:29748  uint256 accPowerPerShare = pool.accPowerPerShare */\n      swap1\n      pop\n        /* \"contracts/NFTMasterChef.sol\":29759:29775  uint256 lpSupply */\n      0x00\n        /* \"contracts/NFTMasterChef.sol\":29778:29782  pool */\n      dup4\n        /* \"contracts/NFTMasterChef.sol\":29778:29790  pool.lpToken */\n      0x00\n      add\n      0x00\n      swap1\n      sload\n      swap1\n      0x0100\n      exp\n      swap1\n      div\n      0xffffffffffffffffffffffffffffffffffffffff\n      and\n        /* \"contracts/NFTMasterChef.sol\":29778:29800  pool.lpToken.balanceOf */\n      0xffffffffffffffffffffffffffffffffffffffff\n      and\n      0x70a08231\n        /* \"contracts/NFTMasterChef.sol\":29809:29813  this */\n      address\n        /* \"contracts/NFTMasterChef.sol\":29778:29815  pool.lpToken.balanceOf(address(this)) */\n      mload(0x40)\n      dup3\n      0xffffffff\n      and\n      0xe0\n      shl\n      dup2\n      mstore\n      0x04\n      add\n      tag_481\n      swap2\n      swap1\n      tag_126\n      jump\t// in\n    tag_481:\n      0x20\n      mload(0x40)\n      dup1\n      dup4\n      sub\n      dup2\n      dup7\n      dup1\n      extcodesize\n      iszero\n      dup1\n      iszero\n      tag_482\n      jumpi\n      0x00\n      dup1\n      revert\n    tag_482:\n      pop\n      gas\n      staticcall\n      iszero\n      dup1\n      iszero\n      tag_484\n      jumpi\n      returndatasize\n      0x00\n      dup1\n      returndatacopy\n      revert(0x00, returndatasize)\n    tag_484:\n      pop\n      pop\n      pop\n      pop\n      mload(0x40)\n      returndatasize\n      not(0x1f)\n      0x1f\n      dup3\n      add\n      and\n      dup3\n      add\n      dup1\n      0x40\n      mstore\n      pop\n      dup2\n      add\n      swap1\n      tag_485\n      swap2\n      swap1\n      tag_223\n      jump\t// in\n    tag_485:\n        /* \"contracts/NFTMasterChef.sol\":29759:29815  uint256 lpSupply = pool.lpToken.balanceOf(address(this)) */\n      swap1\n      pop\n        /* \"contracts/NFTMasterChef.sol\":29845:29849  pool */\n      dup4\n        /* \"contracts/NFTMasterChef.sol\":29845:29865  pool.lastRewardBlock */\n      0x02\n      add\n      sload\n        /* \"contracts/NFTMasterChef.sol\":29830:29842  block.number */\n      number\n        /* \"contracts/NFTMasterChef.sol\":29830:29865  block.number > pool.lastRewardBlock */\n      gt\n        /* \"contracts/NFTMasterChef.sol\":29830:29882  block.number > pool.lastRewardBlock && lpSupply != 0 */\n      dup1\n      iszero\n      tag_486\n      jumpi\n      pop\n        /* \"contracts/NFTMasterChef.sol\":29881:29882  0 */\n      0x00\n        /* \"contracts/NFTMasterChef.sol\":29869:29877  lpSupply */\n      dup2\n        /* \"contracts/NFTMasterChef.sol\":29869:29882  lpSupply != 0 */\n      eq\n      iszero\n        /* \"contracts/NFTMasterChef.sol\":29830:29882  block.number > pool.lastRewardBlock && lpSupply != 0 */\n    tag_486:\n        /* \"contracts/NFTMasterChef.sol\":29826:30180  if (block.number > pool.lastRewardBlock && lpSupply != 0) {\r... */\n      iszero\n      tag_487\n      jumpi\n        /* \"contracts/NFTMasterChef.sol\":29899:29917  uint256 multiplier */\n      0x00\n        /* \"contracts/NFTMasterChef.sol\":29920:29969  getMultiplier(pool.lastRewardBlock, block.number) */\n      tag_488\n        /* \"contracts/NFTMasterChef.sol\":29934:29938  pool */\n      dup6\n        /* \"contracts/NFTMasterChef.sol\":29934:29954  pool.lastRewardBlock */\n      0x02\n      add\n      sload\n        /* \"contracts/NFTMasterChef.sol\":29956:29968  block.number */\n      number\n        /* \"contracts/NFTMasterChef.sol\":29920:29933  getMultiplier */\n      tag_146\n        /* \"contracts/NFTMasterChef.sol\":29920:29969  getMultiplier(pool.lastRewardBlock, block.number) */\n      jump\t// in\n    tag_488:\n        /* \"contracts/NFTMasterChef.sol\":29899:29969  uint256 multiplier = getMultiplier(pool.lastRewardBlock, block.number) */\n      swap1\n      pop\n        /* \"contracts/NFTMasterChef.sol\":29984:30003  uint256 PowerReward */\n      0x00\n        /* \"contracts/NFTMasterChef.sol\":30006:30077  multiplier.mul(PowerPerBlock).mul(pool.allocPoint).div(totalAllocPoint) */\n      tag_489\n        /* \"contracts/NFTMasterChef.sol\":30061:30076  totalAllocPoint */\n      sload(0x08)\n        /* \"contracts/NFTMasterChef.sol\":30006:30056  multiplier.mul(PowerPerBlock).mul(pool.allocPoint) */\n      tag_490\n        /* \"contracts/NFTMasterChef.sol\":30040:30044  pool */\n      dup9\n        /* \"contracts/NFTMasterChef.sol\":30040:30055  pool.allocPoint */\n      0x01\n      add\n      sload\n        /* \"contracts/NFTMasterChef.sol\":30006:30035  multiplier.mul(PowerPerBlock) */\n      tag_491\n        /* \"contracts/NFTMasterChef.sol\":30021:30034  PowerPerBlock */\n      sload(0x03)\n        /* \"contracts/NFTMasterChef.sol\":30006:30016  multiplier */\n      dup8\n        /* \"contracts/NFTMasterChef.sol\":30006:30020  multiplier.mul */\n      tag_199\n      swap1\n        /* \"contracts/NFTMasterChef.sol\":30006:30035  multiplier.mul(PowerPerBlock) */\n      swap2\n      swap1\n      0xffffffff\n      and\n      jump\t// in\n    tag_491:\n        /* \"contracts/NFTMasterChef.sol\":30006:30039  multiplier.mul(PowerPerBlock).mul */\n      tag_199\n      swap1\n        /* \"contracts/NFTMasterChef.sol\":30006:30056  multiplier.mul(PowerPerBlock).mul(pool.allocPoint) */\n      swap2\n      swap1\n      0xffffffff\n      and\n      jump\t// in\n    tag_490:\n        /* \"contracts/NFTMasterChef.sol\":30006:30060  multiplier.mul(PowerPerBlock).mul(pool.allocPoint).div */\n      tag_200\n      swap1\n        /* \"contracts/NFTMasterChef.sol\":30006:30077  multiplier.mul(PowerPerBlock).mul(pool.allocPoint).div(totalAllocPoint) */\n      swap2\n      swap1\n      0xffffffff\n      and\n      jump\t// in\n    tag_489:\n        /* \"contracts/NFTMasterChef.sol\":29984:30077  uint256 PowerReward = multiplier.mul(PowerPerBlock).mul(pool.allocPoint).div(totalAllocPoint) */\n      swap1\n      pop\n        /* \"contracts/NFTMasterChef.sol\":30111:30168  accPowerPerShare.add(PowerReward.mul(1e12).div(lpSupply)) */\n      tag_492\n        /* \"contracts/NFTMasterChef.sol\":30132:30167  PowerReward.mul(1e12).div(lpSupply) */\n      tag_493\n        /* \"contracts/NFTMasterChef.sol\":30158:30166  lpSupply */\n      dup5\n        /* \"contracts/NFTMasterChef.sol\":30132:30153  PowerReward.mul(1e12) */\n      tag_494\n        /* \"contracts/NFTMasterChef.sol\":30148:30152  1e12 */\n      0xe8d4a51000\n        /* \"contracts/NFTMasterChef.sol\":30132:30143  PowerReward */\n      dup6\n        /* \"contracts/NFTMasterChef.sol\":30132:30147  PowerReward.mul */\n      tag_199\n      swap1\n        /* \"contracts/NFTMasterChef.sol\":30132:30153  PowerReward.mul(1e12) */\n      swap2\n      swap1\n      0xffffffff\n      and\n      jump\t// in\n    tag_494:\n        /* \"contracts/NFTMasterChef.sol\":30132:30157  PowerReward.mul(1e12).div */\n      tag_200\n      swap1\n        /* \"contracts/NFTMasterChef.sol\":30132:30167  PowerReward.mul(1e12).div(lpSupply) */\n      swap2\n      swap1\n      0xffffffff\n      and\n      jump\t// in\n    tag_493:\n        /* \"contracts/NFTMasterChef.sol\":30111:30127  accPowerPerShare */\n      dup6\n        /* \"contracts/NFTMasterChef.sol\":30111:30131  accPowerPerShare.add */\n      tag_204\n      swap1\n        /* \"contracts/NFTMasterChef.sol\":30111:30168  accPowerPerShare.add(PowerReward.mul(1e12).div(lpSupply)) */\n      swap2\n      swap1\n      0xffffffff\n      and\n      jump\t// in\n    tag_492:\n        /* \"contracts/NFTMasterChef.sol\":30092:30168  accPowerPerShare = accPowerPerShare.add(PowerReward.mul(1e12).div(lpSupply)) */\n      swap4\n      pop\n        /* \"contracts/NFTMasterChef.sol\":29884:30180  {\r... */\n      pop\n      pop\n        /* \"contracts/NFTMasterChef.sol\":29826:30180  if (block.number > pool.lastRewardBlock && lpSupply != 0) {\r... */\n    tag_487:\n        /* \"contracts/NFTMasterChef.sol\":30197:30261  user.amount.mul(accPowerPerShare).div(1e12).sub(user.rewardDebt) */\n      tag_495\n        /* \"contracts/NFTMasterChef.sol\":30245:30249  user */\n      dup4\n        /* \"contracts/NFTMasterChef.sol\":30245:30260  user.rewardDebt */\n      0x01\n      add\n      sload\n        /* \"contracts/NFTMasterChef.sol\":30197:30240  user.amount.mul(accPowerPerShare).div(1e12) */\n      tag_496\n        /* \"contracts/NFTMasterChef.sol\":30235:30239  1e12 */\n      0xe8d4a51000\n        /* \"contracts/NFTMasterChef.sol\":30197:30230  user.amount.mul(accPowerPerShare) */\n      tag_497\n        /* \"contracts/NFTMasterChef.sol\":30213:30229  accPowerPerShare */\n      dup7\n        /* \"contracts/NFTMasterChef.sol\":30197:30201  user */\n      dup9\n        /* \"contracts/NFTMasterChef.sol\":30197:30208  user.amount */\n      0x00\n      add\n      sload\n        /* \"contracts/NFTMasterChef.sol\":30197:30212  user.amount.mul */\n      tag_199\n      swap1\n        /* \"contracts/NFTMasterChef.sol\":30197:30230  user.amount.mul(accPowerPerShare) */\n      swap2\n      swap1\n      0xffffffff\n      and\n      jump\t// in\n    tag_497:\n        /* \"contracts/NFTMasterChef.sol\":30197:30234  user.amount.mul(accPowerPerShare).div */\n      tag_200\n      swap1\n        /* \"contracts/NFTMasterChef.sol\":30197:30240  user.amount.mul(accPowerPerShare).div(1e12) */\n      swap2\n      swap1\n      0xffffffff\n      and\n      jump\t// in\n    tag_496:\n        /* \"contracts/NFTMasterChef.sol\":30197:30244  user.amount.mul(accPowerPerShare).div(1e12).sub */\n      tag_201\n      swap1\n        /* \"contracts/NFTMasterChef.sol\":30197:30261  user.amount.mul(accPowerPerShare).div(1e12).sub(user.rewardDebt) */\n      swap2\n      swap1\n      0xffffffff\n      and\n      jump\t// in\n    tag_495:\n        /* \"contracts/NFTMasterChef.sol\":30190:30261  return user.amount.mul(accPowerPerShare).div(1e12).sub(user.rewardDebt) */\n      swap5\n      pop\n      pop\n      pop\n      pop\n      pop\n        /* \"contracts/NFTMasterChef.sol\":29502:30269  function pendingPower(uint256 _pid, address _user) external view returns (uint256){\r... */\n      swap3\n      swap2\n      pop\n      pop\n      jump\t// out\n        /* \"contracts/NFTMasterChef.sol\":19479:19577  function _msgSender() internal view virtual returns (address) {\r... */\n    tag_181:\n        /* \"contracts/NFTMasterChef.sol\":19532:19539  address */\n      0x00\n        /* \"contracts/NFTMasterChef.sol\":19559:19569  msg.sender */\n      caller\n        /* \"contracts/NFTMasterChef.sol\":19552:19569  return msg.sender */\n      swap1\n      pop\n        /* \"contracts/NFTMasterChef.sol\":19479:19577  function _msgSender() internal view virtual returns (address) {\r... */\n      swap1\n      jump\t// out\n        /* \"contracts/NFTMasterChef.sol\":1757:2228  function mul(uint256 a, uint256 b) internal pure returns (uint256) {\r... */\n    tag_199:\n        /* \"contracts/NFTMasterChef.sol\":1815:1822  uint256 */\n      0x00\n        /* \"contracts/NFTMasterChef.sol\":2065:2066  0 */\n      dup1\n        /* \"contracts/NFTMasterChef.sol\":2060:2061  a */\n      dup4\n        /* \"contracts/NFTMasterChef.sol\":2060:2066  a == 0 */\n      eq\n        /* \"contracts/NFTMasterChef.sol\":2056:2103  if (a == 0) {\r... */\n      iszero\n      tag_500\n      jumpi\n        /* \"contracts/NFTMasterChef.sol\":2090:2091  0 */\n      0x00\n        /* \"contracts/NFTMasterChef.sol\":2083:2091  return 0 */\n      swap1\n      pop\n      jump(tag_499)\n        /* \"contracts/NFTMasterChef.sol\":2056:2103  if (a == 0) {\r... */\n    tag_500:\n        /* \"contracts/NFTMasterChef.sol\":2115:2124  uint256 c */\n      0x00\n        /* \"contracts/NFTMasterChef.sol\":2131:2132  b */\n      dup3\n        /* \"contracts/NFTMasterChef.sol\":2127:2128  a */\n      dup5\n        /* \"contracts/NFTMasterChef.sol\":2127:2132  a * b */\n      tag_501\n      swap2\n      swap1\n      tag_502\n      jump\t// in\n    tag_501:\n        /* \"contracts/NFTMasterChef.sol\":2115:2132  uint256 c = a * b */\n      swap1\n      pop\n        /* \"contracts/NFTMasterChef.sol\":2160:2161  b */\n      dup3\n        /* \"contracts/NFTMasterChef.sol\":2155:2156  a */\n      dup5\n        /* \"contracts/NFTMasterChef.sol\":2151:2152  c */\n      dup3\n        /* \"contracts/NFTMasterChef.sol\":2151:2156  c / a */\n      tag_503\n      swap2\n      swap1\n      tag_504\n      jump\t// in\n    tag_503:\n        /* \"contracts/NFTMasterChef.sol\":2151:2161  c / a == b */\n      eq\n        /* \"contracts/NFTMasterChef.sol\":2143:2199  require(c / a == b, \"SafeMath: multiplication overflow\") */\n      tag_505\n      jumpi\n      mload(0x40)\n      0x08c379a000000000000000000000000000000000000000000000000000000000\n      dup2\n      mstore\n      0x04\n      add\n      tag_506\n      swap1\n      tag_507\n      jump\t// in\n    tag_506:\n      mload(0x40)\n      dup1\n      swap2\n      sub\n      swap1\n      revert\n    tag_505:\n        /* \"contracts/NFTMasterChef.sol\":2219:2220  c */\n      dup1\n        /* \"contracts/NFTMasterChef.sol\":2212:2220  return c */\n      swap2\n      pop\n      pop\n        /* \"contracts/NFTMasterChef.sol\":1757:2228  function mul(uint256 a, uint256 b) internal pure returns (uint256) {\r... */\n    tag_499:\n      swap3\n      swap2\n      pop\n      pop\n      jump\t// out\n        /* \"contracts/NFTMasterChef.sol\":2696:2828  function div(uint256 a, uint256 b) internal pure returns (uint256) {\r... */\n    tag_200:\n        /* \"contracts/NFTMasterChef.sol\":2754:2761  uint256 */\n      0x00\n        /* \"contracts/NFTMasterChef.sol\":2781:2820  div(a, b, \"SafeMath: division by zero\") */\n      tag_509\n        /* \"contracts/NFTMasterChef.sol\":2785:2786  a */\n      dup4\n        /* \"contracts/NFTMasterChef.sol\":2788:2789  b */\n      dup4\n        /* \"contracts/NFTMasterChef.sol\":2781:2820  div(a, b, \"SafeMath: division by zero\") */\n      mload(0x40)\n      dup1\n      0x40\n      add\n      0x40\n      mstore\n      dup1\n      0x1a\n      dup2\n      mstore\n      0x20\n      add\n      0x536166654d6174683a206469766973696f6e206279207a65726f000000000000\n      dup2\n      mstore\n      pop\n        /* \"contracts/NFTMasterChef.sol\":2781:2784  div */\n      tag_510\n        /* \"contracts/NFTMasterChef.sol\":2781:2820  div(a, b, \"SafeMath: division by zero\") */\n      jump\t// in\n    tag_509:\n        /* \"contracts/NFTMasterChef.sol\":2774:2820  return div(a, b, \"SafeMath: division by zero\") */\n      swap1\n      pop\n        /* \"contracts/NFTMasterChef.sol\":2696:2828  function div(uint256 a, uint256 b) internal pure returns (uint256) {\r... */\n      swap3\n      swap2\n      pop\n      pop\n      jump\t// out\n        /* \"contracts/NFTMasterChef.sol\":841:977  function sub(uint256 a, uint256 b) internal pure returns (uint256) {\r... */\n    tag_201:\n        /* \"contracts/NFTMasterChef.sol\":899:906  uint256 */\n      0x00\n        /* \"contracts/NFTMasterChef.sol\":926:969  sub(a, b, \"SafeMath: subtraction overflow\") */\n      tag_512\n        /* \"contracts/NFTMasterChef.sol\":930:931  a */\n      dup4\n        /* \"contracts/NFTMasterChef.sol\":933:934  b */\n      dup4\n        /* \"contracts/NFTMasterChef.sol\":926:969  sub(a, b, \"SafeMath: subtraction overflow\") */\n      mload(0x40)\n      dup1\n      0x40\n      add\n      0x40\n      mstore\n      dup1\n      0x1e\n      dup2\n      mstore\n      0x20\n      add\n      0x536166654d6174683a207375627472616374696f6e206f766572666c6f770000\n      dup2\n      mstore\n      pop\n        /* \"contracts/NFTMasterChef.sol\":926:929  sub */\n      tag_513\n        /* \"contracts/NFTMasterChef.sol\":926:969  sub(a, b, \"SafeMath: subtraction overflow\") */\n      jump\t// in\n    tag_512:\n        /* \"contracts/NFTMasterChef.sol\":919:969  return sub(a, b, \"SafeMath: subtraction overflow\") */\n      swap1\n      pop\n        /* \"contracts/NFTMasterChef.sol\":841:977  function sub(uint256 a, uint256 b) internal pure returns (uint256) {\r... */\n      swap3\n      swap2\n      pop\n      pop\n      jump\t// out\n        /* \"contracts/NFTMasterChef.sol\":385:566  function add(uint256 a, uint256 b) internal pure returns (uint256) {\r... */\n    tag_204:\n        /* \"contracts/NFTMasterChef.sol\":443:450  uint256 */\n      0x00\n        /* \"contracts/NFTMasterChef.sol\":463:472  uint256 c */\n      dup1\n        /* \"contracts/NFTMasterChef.sol\":479:480  b */\n      dup3\n        /* \"contracts/NFTMasterChef.sol\":475:476  a */\n      dup5\n        /* \"contracts/NFTMasterChef.sol\":475:480  a + b */\n      tag_515\n      swap2\n      swap1\n      tag_516\n      jump\t// in\n    tag_515:\n        /* \"contracts/NFTMasterChef.sol\":463:480  uint256 c = a + b */\n      swap1\n      pop\n        /* \"contracts/NFTMasterChef.sol\":504:505  a */\n      dup4\n        /* \"contracts/NFTMasterChef.sol\":499:500  c */\n      dup2\n        /* \"contracts/NFTMasterChef.sol\":499:505  c >= a */\n      lt\n      iszero\n        /* \"contracts/NFTMasterChef.sol\":491:537  require(c >= a, \"SafeMath: addition overflow\") */\n      tag_517\n      jumpi\n      mload(0x40)\n      0x08c379a000000000000000000000000000000000000000000000000000000000\n      dup2\n      mstore\n      0x04\n      add\n      tag_518\n      swap1\n      tag_519\n      jump\t// in\n    tag_518:\n      mload(0x40)\n      dup1\n      swap2\n      sub\n      swap1\n      revert\n    tag_517:\n        /* \"contracts/NFTMasterChef.sol\":557:558  c */\n      dup1\n        /* \"contracts/NFTMasterChef.sol\":550:558  return c */\n      swap2\n      pop\n      pop\n        /* \"contracts/NFTMasterChef.sol\":385:566  function add(uint256 a, uint256 b) internal pure returns (uint256) {\r... */\n      swap3\n      swap2\n      pop\n      pop\n      jump\t// out\n        /* \"contracts/NFTMasterChef.sol\":16150:16361  function safeTransfer(\r... */\n    tag_208:\n        /* \"contracts/NFTMasterChef.sol\":16267:16353  _callOptionalReturn(token, abi.encodeWithSelector(token.transfer.selector, to, value)) */\n      tag_521\n        /* \"contracts/NFTMasterChef.sol\":16287:16292  token */\n      dup4\n        /* \"contracts/NFTMasterChef.sol\":16317:16340  token.transfer.selector */\n      shl(0xe0, 0xa9059cbb)\n        /* \"contracts/NFTMasterChef.sol\":16342:16344  to */\n      dup5\n        /* \"contracts/NFTMasterChef.sol\":16346:16351  value */\n      dup5\n        /* \"contracts/NFTMasterChef.sol\":16294:16352  abi.encodeWithSelector(token.transfer.selector, to, value) */\n      add(0x24, mload(0x40))\n      tag_522\n      swap3\n      swap2\n      swap1\n      tag_523\n      jump\t// in\n    tag_522:\n      mload(0x40)\n      0x20\n      dup2\n      dup4\n      sub\n      sub\n      dup2\n      mstore\n      swap1\n      0x40\n      mstore\n      swap1\n      not(0xffffffffffffffffffffffffffffffffffffffffffffffffffffffff)\n      and\n      0x20\n      dup3\n      add\n      dup1\n      mload\n      0xffffffffffffffffffffffffffffffffffffffffffffffffffffffff\n      dup4\n      dup2\n      dup4\n      and\n      or\n      dup4\n      mstore\n      pop\n      pop\n      pop\n      pop\n        /* \"contracts/NFTMasterChef.sol\":16267:16286  _callOptionalReturn */\n      tag_524\n        /* \"contracts/NFTMasterChef.sol\":16267:16353  _callOptionalReturn(token, abi.encodeWithSelector(token.transfer.selector, to, value)) */\n      jump\t// in\n    tag_521:\n        /* \"contracts/NFTMasterChef.sol\":16150:16361  function safeTransfer(\r... */\n      pop\n      pop\n      pop\n      jump\t// out\n        /* \"contracts/NFTMasterChef.sol\":16369:16617  function safeTransferFrom(\r... */\n    tag_290:\n        /* \"contracts/NFTMasterChef.sol\":16513:16609  _callOptionalReturn(token, abi.encodeWithSelector(token.transferFrom.selector, from, to, value)) */\n      tag_526\n        /* \"contracts/NFTMasterChef.sol\":16533:16538  token */\n      dup5\n        /* \"contracts/NFTMasterChef.sol\":16563:16590  token.transferFrom.selector */\n      shl(0xe0, 0x23b872dd)\n        /* \"contracts/NFTMasterChef.sol\":16592:16596  from */\n      dup6\n        /* \"contracts/NFTMasterChef.sol\":16598:16600  to */\n      dup6\n        /* \"contracts/NFTMasterChef.sol\":16602:16607  value */\n      dup6\n        /* \"contracts/NFTMasterChef.sol\":16540:16608  abi.encodeWithSelector(token.transferFrom.selector, from, to, value) */\n      add(0x24, mload(0x40))\n      tag_527\n      swap4\n      swap3\n      swap2\n      swap1\n      tag_528\n      jump\t// in\n    tag_527:\n      mload(0x40)\n      0x20\n      dup2\n      dup4\n      sub\n      sub\n      dup2\n      mstore\n      swap1\n      0x40\n      mstore\n      swap1\n      not(0xffffffffffffffffffffffffffffffffffffffffffffffffffffffff)\n      and\n      0x20\n      dup3\n      add\n      dup1\n      mload\n      0xffffffffffffffffffffffffffffffffffffffffffffffffffffffff\n      dup4\n      dup2\n      dup4\n      and\n      or\n      dup4\n      mstore\n      pop\n      pop\n      pop\n      pop\n        /* \"contracts/NFTMasterChef.sol\":16513:16532  _callOptionalReturn */\n      tag_524\n        /* \"contracts/NFTMasterChef.sol\":16513:16609  _callOptionalReturn(token, abi.encodeWithSelector(token.transferFrom.selector, from, to, value)) */\n      jump\t// in\n    tag_526:\n        /* \"contracts/NFTMasterChef.sol\":16369:16617  function safeTransferFrom(\r... */\n      pop\n      pop\n      pop\n      pop\n      jump\t// out\n        /* \"contracts/NFTMasterChef.sol\":16886:17502  function safeApprove(\r... */\n    tag_328:\n        /* \"contracts/NFTMasterChef.sol\":17259:17260  0 */\n      0x00\n        /* \"contracts/NFTMasterChef.sol\":17250:17255  value */\n      dup2\n        /* \"contracts/NFTMasterChef.sol\":17250:17260  value == 0 */\n      eq\n        /* \"contracts/NFTMasterChef.sol\":17249:17311  (value == 0) || (token.allowance(address(this), spender) == 0) */\n      dup1\n      tag_530\n      jumpi\n      pop\n        /* \"contracts/NFTMasterChef.sol\":17309:17310  0 */\n      0x00\n        /* \"contracts/NFTMasterChef.sol\":17266:17271  token */\n      dup4\n        /* \"contracts/NFTMasterChef.sol\":17266:17281  token.allowance */\n      0xffffffffffffffffffffffffffffffffffffffff\n      and\n      0xdd62ed3e\n        /* \"contracts/NFTMasterChef.sol\":17290:17294  this */\n      address\n        /* \"contracts/NFTMasterChef.sol\":17297:17304  spender */\n      dup6\n        /* \"contracts/NFTMasterChef.sol\":17266:17305  token.allowance(address(this), spender) */\n      mload(0x40)\n      dup4\n      0xffffffff\n      and\n      0xe0\n      shl\n      dup2\n      mstore\n      0x04\n      add\n      tag_531\n      swap3\n      swap2\n      swap1\n      tag_532\n      jump\t// in\n    tag_531:\n      0x20\n      mload(0x40)\n      dup1\n      dup4\n      sub\n      dup2\n      dup7\n      dup1\n      extcodesize\n      iszero\n      dup1\n      iszero\n      tag_533\n      jumpi\n      0x00\n      dup1\n      revert\n    tag_533:\n      pop\n      gas\n      staticcall\n      iszero\n      dup1\n      iszero\n      tag_535\n      jumpi\n      returndatasize\n      0x00\n      dup1\n      returndatacopy\n      revert(0x00, returndatasize)\n    tag_535:\n      pop\n      pop\n      pop\n      pop\n      mload(0x40)\n      returndatasize\n      not(0x1f)\n      0x1f\n      dup3\n      add\n      and\n      dup3\n      add\n      dup1\n      0x40\n      mstore\n      pop\n      dup2\n      add\n      swap1\n      tag_536\n      swap2\n      swap1\n      tag_223\n      jump\t// in\n    tag_536:\n        /* \"contracts/NFTMasterChef.sol\":17266:17310  token.allowance(address(this), spender) == 0 */\n      eq\n        /* \"contracts/NFTMasterChef.sol\":17249:17311  (value == 0) || (token.allowance(address(this), spender) == 0) */\n    tag_530:\n        /* \"contracts/NFTMasterChef.sol\":17227:17393  require(\r... */\n      tag_537\n      jumpi\n      mload(0x40)\n      0x08c379a000000000000000000000000000000000000000000000000000000000\n      dup2\n      mstore\n      0x04\n      add\n      tag_538\n      swap1\n      tag_539\n      jump\t// in\n    tag_538:\n      mload(0x40)\n      dup1\n      swap2\n      sub\n      swap1\n      revert\n    tag_537:\n        /* \"contracts/NFTMasterChef.sol\":17404:17494  _callOptionalReturn(token, abi.encodeWithSelector(token.approve.selector, spender, value)) */\n      tag_540\n        /* \"contracts/NFTMasterChef.sol\":17424:17429  token */\n      dup4\n        /* \"contracts/NFTMasterChef.sol\":17454:17476  token.approve.selector */\n      shl(0xe0, 0x095ea7b3)\n        /* \"contracts/NFTMasterChef.sol\":17478:17485  spender */\n      dup5\n        /* \"contracts/NFTMasterChef.sol\":17487:17492  value */\n      dup5\n        /* \"contracts/NFTMasterChef.sol\":17431:17493  abi.encodeWithSelector(token.approve.selector, spender, value) */\n      add(0x24, mload(0x40))\n      tag_541\n      swap3\n      swap2\n      swap1\n      tag_523\n      jump\t// in\n    tag_541:\n      mload(0x40)\n      0x20\n      dup2\n      dup4\n      sub\n      sub\n      dup2\n      mstore\n      swap1\n      0x40\n      mstore\n      swap1\n      not(0xffffffffffffffffffffffffffffffffffffffffffffffffffffffff)\n      and\n      0x20\n      dup3\n      add\n      dup1\n      mload\n      0xffffffffffffffffffffffffffffffffffffffffffffffffffffffff\n      dup4\n      dup2\n      dup4\n      and\n      or\n      dup4\n      mstore\n      pop\n      pop\n      pop\n      pop\n        /* \"contracts/NFTMasterChef.sol\":17404:17423  _callOptionalReturn */\n      tag_524\n        /* \"contracts/NFTMasterChef.sol\":17404:17494  _callOptionalReturn(token, abi.encodeWithSelector(token.approve.selector, spender, value)) */\n      jump\t// in\n    tag_540:\n        /* \"contracts/NFTMasterChef.sol\":16886:17502  function safeApprove(\r... */\n      pop\n      pop\n      pop\n      jump\t// out\n        /* \"contracts/NFTMasterChef.sol\":21375:21566  function _transferOwnership(address newOwner) internal virtual {\r... */\n    tag_412:\n        /* \"contracts/NFTMasterChef.sol\":21449:21465  address oldOwner */\n      0x00\n        /* \"contracts/NFTMasterChef.sol\":21468:21474  _owner */\n      dup1\n      0x00\n      swap1\n      sload\n      swap1\n      0x0100\n      exp\n      swap1\n      div\n      0xffffffffffffffffffffffffffffffffffffffff\n      and\n        /* \"contracts/NFTMasterChef.sol\":21449:21474  address oldOwner = _owner */\n      swap1\n      pop\n        /* \"contracts/NFTMasterChef.sol\":21494:21502  newOwner */\n      dup2\n        /* \"contracts/NFTMasterChef.sol\":21485:21491  _owner */\n      0x00\n      dup1\n        /* \"contracts/NFTMasterChef.sol\":21485:21502  _owner = newOwner */\n      0x0100\n      exp\n      dup2\n      sload\n      dup2\n      0xffffffffffffffffffffffffffffffffffffffff\n      mul\n      not\n      and\n      swap1\n      dup4\n      0xffffffffffffffffffffffffffffffffffffffff\n      and\n      mul\n      or\n      swap1\n      sstore\n      pop\n        /* \"contracts/NFTMasterChef.sol\":21549:21557  newOwner */\n      dup2\n        /* \"contracts/NFTMasterChef.sol\":21518:21558  OwnershipTransferred(oldOwner, newOwner) */\n      0xffffffffffffffffffffffffffffffffffffffff\n      and\n        /* \"contracts/NFTMasterChef.sol\":21539:21547  oldOwner */\n      dup2\n        /* \"contracts/NFTMasterChef.sol\":21518:21558  OwnershipTransferred(oldOwner, newOwner) */\n      0xffffffffffffffffffffffffffffffffffffffff\n      and\n      0x8be0079c531659141344cd1fd0a4f28419497f9722a3daafe3b4186f6b6457e0\n      mload(0x40)\n      mload(0x40)\n      dup1\n      swap2\n      sub\n      swap1\n      log3\n        /* \"contracts/NFTMasterChef.sol\":21438:21566  {\r... */\n      pop\n        /* \"contracts/NFTMasterChef.sol\":21375:21566  function _transferOwnership(address newOwner) internal virtual {\r... */\n      pop\n      jump\t// out\n        /* \"contracts/NFTMasterChef.sol\":3358:3703  function div(uint256 a, uint256 b, string memory errorMessage) internal pure returns (uint256) {\r... */\n    tag_510:\n        /* \"contracts/NFTMasterChef.sol\":3444:3451  uint256 */\n      0x00\n        /* \"contracts/NFTMasterChef.sol\":3543:3544  0 */\n      dup1\n        /* \"contracts/NFTMasterChef.sol\":3539:3540  b */\n      dup4\n        /* \"contracts/NFTMasterChef.sol\":3539:3544  b > 0 */\n      gt\n        /* \"contracts/NFTMasterChef.sol\":3546:3558  errorMessage */\n      dup3\n        /* \"contracts/NFTMasterChef.sol\":3531:3559  require(b > 0, errorMessage) */\n      swap1\n      tag_544\n      jumpi\n      mload(0x40)\n      0x08c379a000000000000000000000000000000000000000000000000000000000\n      dup2\n      mstore\n      0x04\n      add\n      tag_545\n      swap2\n      swap1\n      tag_546\n      jump\t// in\n    tag_545:\n      mload(0x40)\n      dup1\n      swap2\n      sub\n      swap1\n      revert\n    tag_544:\n      pop\n        /* \"contracts/NFTMasterChef.sol\":3570:3579  uint256 c */\n      0x00\n        /* \"contracts/NFTMasterChef.sol\":3586:3587  b */\n      dup4\n        /* \"contracts/NFTMasterChef.sol\":3582:3583  a */\n      dup6\n        /* \"contracts/NFTMasterChef.sol\":3582:3587  a / b */\n      tag_547\n      swap2\n      swap1\n      tag_504\n      jump\t// in\n    tag_547:\n        /* \"contracts/NFTMasterChef.sol\":3570:3587  uint256 c = a / b */\n      swap1\n      pop\n        /* \"contracts/NFTMasterChef.sol\":3694:3695  c */\n      dup1\n        /* \"contracts/NFTMasterChef.sol\":3687:3695  return c */\n      swap2\n      pop\n      pop\n        /* \"contracts/NFTMasterChef.sol\":3358:3703  function div(uint256 a, uint256 b, string memory errorMessage) internal pure returns (uint256) {\r... */\n      swap4\n      swap3\n      pop\n      pop\n      pop\n      jump\t// out\n        /* \"contracts/NFTMasterChef.sol\":1314:1506  function sub(uint256 a, uint256 b, string memory errorMessage) internal pure returns (uint256) {\r... */\n    tag_513:\n        /* \"contracts/NFTMasterChef.sol\":1400:1407  uint256 */\n      0x00\n        /* \"contracts/NFTMasterChef.sol\":1433:1434  a */\n      dup4\n        /* \"contracts/NFTMasterChef.sol\":1428:1429  b */\n      dup4\n        /* \"contracts/NFTMasterChef.sol\":1428:1434  b <= a */\n      gt\n      iszero\n        /* \"contracts/NFTMasterChef.sol\":1436:1448  errorMessage */\n      dup3\n        /* \"contracts/NFTMasterChef.sol\":1420:1449  require(b <= a, errorMessage) */\n      swap1\n      tag_549\n      jumpi\n      mload(0x40)\n      0x08c379a000000000000000000000000000000000000000000000000000000000\n      dup2\n      mstore\n      0x04\n      add\n      tag_550\n      swap2\n      swap1\n      tag_546\n      jump\t// in\n    tag_550:\n      mload(0x40)\n      dup1\n      swap2\n      sub\n      swap1\n      revert\n    tag_549:\n      pop\n        /* \"contracts/NFTMasterChef.sol\":1460:1469  uint256 c */\n      0x00\n        /* \"contracts/NFTMasterChef.sol\":1476:1477  b */\n      dup4\n        /* \"contracts/NFTMasterChef.sol\":1472:1473  a */\n      dup6\n        /* \"contracts/NFTMasterChef.sol\":1472:1477  a - b */\n      tag_551\n      swap2\n      swap1\n      tag_552\n      jump\t// in\n    tag_551:\n        /* \"contracts/NFTMasterChef.sol\":1460:1477  uint256 c = a - b */\n      swap1\n      pop\n        /* \"contracts/NFTMasterChef.sol\":1497:1498  c */\n      dup1\n        /* \"contracts/NFTMasterChef.sol\":1490:1498  return c */\n      swap2\n      pop\n      pop\n        /* \"contracts/NFTMasterChef.sol\":1314:1506  function sub(uint256 a, uint256 b, string memory errorMessage) internal pure returns (uint256) {\r... */\n      swap4\n      swap3\n      pop\n      pop\n      pop\n      jump\t// out\n        /* \"contracts/NFTMasterChef.sol\":18723:19439  function _callOptionalReturn(IERC20 token, bytes memory data) private {\r... */\n    tag_524:\n        /* \"contracts/NFTMasterChef.sol\":19147:19170  bytes memory returndata */\n      0x00\n        /* \"contracts/NFTMasterChef.sol\":19173:19242  address(token).functionCall(data, \"SafeERC20: low-level call failed\") */\n      tag_554\n        /* \"contracts/NFTMasterChef.sol\":19201:19205  data */\n      dup3\n        /* \"contracts/NFTMasterChef.sol\":19173:19242  address(token).functionCall(data, \"SafeERC20: low-level call failed\") */\n      mload(0x40)\n      dup1\n      0x40\n      add\n      0x40\n      mstore\n      dup1\n      0x20\n      dup2\n      mstore\n      0x20\n      add\n      0x5361666545524332303a206c6f772d6c6576656c2063616c6c206661696c6564\n      dup2\n      mstore\n      pop\n        /* \"contracts/NFTMasterChef.sol\":19181:19186  token */\n      dup6\n        /* \"contracts/NFTMasterChef.sol\":19173:19200  address(token).functionCall */\n      0xffffffffffffffffffffffffffffffffffffffff\n      and\n      tag_555\n      swap1\n        /* \"contracts/NFTMasterChef.sol\":19173:19242  address(token).functionCall(data, \"SafeERC20: low-level call failed\") */\n      swap3\n      swap2\n      swap1\n      0xffffffff\n      and\n      jump\t// in\n    tag_554:\n        /* \"contracts/NFTMasterChef.sol\":19147:19242  bytes memory returndata = address(token).functionCall(data, \"SafeERC20: low-level call failed\") */\n      swap1\n      pop\n        /* \"contracts/NFTMasterChef.sol\":19277:19278  0 */\n      0x00\n        /* \"contracts/NFTMasterChef.sol\":19257:19267  returndata */\n      dup2\n        /* \"contracts/NFTMasterChef.sol\":19257:19274  returndata.length */\n      mload\n        /* \"contracts/NFTMasterChef.sol\":19257:19278  returndata.length > 0 */\n      gt\n        /* \"contracts/NFTMasterChef.sol\":19253:19432  if (returndata.length > 0) {\r... */\n      iszero\n      tag_556\n      jumpi\n        /* \"contracts/NFTMasterChef.sol\":19354:19364  returndata */\n      dup1\n        /* \"contracts/NFTMasterChef.sol\":19343:19373  abi.decode(returndata, (bool)) */\n      dup1\n      0x20\n      add\n      swap1\n      mload\n      dup2\n      add\n      swap1\n      tag_557\n      swap2\n      swap1\n      tag_558\n      jump\t// in\n    tag_557:\n        /* \"contracts/NFTMasterChef.sol\":19335:19420  require(abi.decode(returndata, (bool)), \"SafeERC20: ERC20 operation did not succeed\") */\n      tag_559\n      jumpi\n      mload(0x40)\n      0x08c379a000000000000000000000000000000000000000000000000000000000\n      dup2\n      mstore\n      0x04\n      add\n      tag_560\n      swap1\n      tag_561\n      jump\t// in\n    tag_560:\n      mload(0x40)\n      dup1\n      swap2\n      sub\n      swap1\n      revert\n    tag_559:\n        /* \"contracts/NFTMasterChef.sol\":19253:19432  if (returndata.length > 0) {\r... */\n    tag_556:\n        /* \"contracts/NFTMasterChef.sol\":18793:19439  {\r... */\n      pop\n        /* \"contracts/NFTMasterChef.sol\":18723:19439  function _callOptionalReturn(IERC20 token, bytes memory data) private {\r... */\n      pop\n      pop\n      jump\t// out\n        /* \"contracts/NFTMasterChef.sol\":11566:11795  function functionCall(\r... */\n    tag_555:\n        /* \"contracts/NFTMasterChef.sol\":11703:11715  bytes memory */\n      0x60\n        /* \"contracts/NFTMasterChef.sol\":11735:11787  functionCallWithValue(target, data, 0, errorMessage) */\n      tag_563\n        /* \"contracts/NFTMasterChef.sol\":11757:11763  target */\n      dup5\n        /* \"contracts/NFTMasterChef.sol\":11765:11769  data */\n      dup5\n        /* \"contracts/NFTMasterChef.sol\":11771:11772  0 */\n      0x00\n        /* \"contracts/NFTMasterChef.sol\":11774:11786  errorMessage */\n      dup6\n        /* \"contracts/NFTMasterChef.sol\":11735:11756  functionCallWithValue */\n      tag_564\n        /* \"contracts/NFTMasterChef.sol\":11735:11787  functionCallWithValue(target, data, 0, errorMessage) */\n      jump\t// in\n    tag_563:\n        /* \"contracts/NFTMasterChef.sol\":11728:11787  return functionCallWithValue(target, data, 0, errorMessage) */\n      swap1\n      pop\n        /* \"contracts/NFTMasterChef.sol\":11566:11795  function functionCall(\r... */\n      swap4\n      swap3\n      pop\n      pop\n      pop\n      jump\t// out\n        /* \"contracts/NFTMasterChef.sol\":12686:13196  function functionCallWithValue(\r... */\n    tag_564:\n        /* \"contracts/NFTMasterChef.sol\":12856:12868  bytes memory */\n      0x60\n        /* \"contracts/NFTMasterChef.sol\":12914:12919  value */\n      dup3\n        /* \"contracts/NFTMasterChef.sol\":12889:12910  address(this).balance */\n      selfbalance\n        /* \"contracts/NFTMasterChef.sol\":12889:12919  address(this).balance >= value */\n      lt\n      iszero\n        /* \"contracts/NFTMasterChef.sol\":12881:12962  require(address(this).balance >= value, \"Address: insufficient balance for call\") */\n      tag_566\n      jumpi\n      mload(0x40)\n      0x08c379a000000000000000000000000000000000000000000000000000000000\n      dup2\n      mstore\n      0x04\n      add\n      tag_567\n      swap1\n      tag_568\n      jump\t// in\n    tag_567:\n      mload(0x40)\n      dup1\n      swap2\n      sub\n      swap1\n      revert\n    tag_566:\n        /* \"contracts/NFTMasterChef.sol\":12981:12999  isContract(target) */\n      tag_569\n        /* \"contracts/NFTMasterChef.sol\":12992:12998  target */\n      dup6\n        /* \"contracts/NFTMasterChef.sol\":12981:12991  isContract */\n      tag_570\n        /* \"contracts/NFTMasterChef.sol\":12981:12999  isContract(target) */\n      jump\t// in\n    tag_569:\n        /* \"contracts/NFTMasterChef.sol\":12973:13033  require(isContract(target), \"Address: call to non-contract\") */\n      tag_571\n      jumpi\n      mload(0x40)\n      0x08c379a000000000000000000000000000000000000000000000000000000000\n      dup2\n      mstore\n      0x04\n      add\n      tag_572\n      swap1\n      tag_573\n      jump\t// in\n    tag_572:\n      mload(0x40)\n      dup1\n      swap2\n      sub\n      swap1\n      revert\n    tag_571:\n        /* \"contracts/NFTMasterChef.sol\":13047:13059  bool success */\n      0x00\n        /* \"contracts/NFTMasterChef.sol\":13061:13084  bytes memory returndata */\n      dup1\n        /* \"contracts/NFTMasterChef.sol\":13088:13094  target */\n      dup7\n        /* \"contracts/NFTMasterChef.sol\":13088:13099  target.call */\n      0xffffffffffffffffffffffffffffffffffffffff\n      and\n        /* \"contracts/NFTMasterChef.sol\":13107:13112  value */\n      dup6\n        /* \"contracts/NFTMasterChef.sol\":13114:13118  data */\n      dup8\n        /* \"contracts/NFTMasterChef.sol\":13088:13119  target.call{value: value}(data) */\n      mload(0x40)\n      tag_574\n      swap2\n      swap1\n      tag_575\n      jump\t// in\n    tag_574:\n      0x00\n      mload(0x40)\n      dup1\n      dup4\n      sub\n      dup2\n      dup6\n      dup8\n      gas\n      call\n      swap3\n      pop\n      pop\n      pop\n      returndatasize\n      dup1\n      0x00\n      dup2\n      eq\n      tag_578\n      jumpi\n      mload(0x40)\n      swap2\n      pop\n      and(add(returndatasize, 0x3f), not(0x1f))\n      dup3\n      add\n      0x40\n      mstore\n      returndatasize\n      dup3\n      mstore\n      returndatasize\n      0x00\n      0x20\n      dup5\n      add\n      returndatacopy\n      jump(tag_577)\n    tag_578:\n      0x60\n      swap2\n      pop\n    tag_577:\n      pop\n        /* \"contracts/NFTMasterChef.sol\":13046:13119  (bool success, bytes memory returndata) = target.call{value: value}(data) */\n      swap2\n      pop\n      swap2\n      pop\n        /* \"contracts/NFTMasterChef.sol\":13137:13188  verifyCallResult(success, returndata, errorMessage) */\n      tag_579\n        /* \"contracts/NFTMasterChef.sol\":13154:13161  success */\n      dup3\n        /* \"contracts/NFTMasterChef.sol\":13163:13173  returndata */\n      dup3\n        /* \"contracts/NFTMasterChef.sol\":13175:13187  errorMessage */\n      dup7\n        /* \"contracts/NFTMasterChef.sol\":13137:13153  verifyCallResult */\n      tag_580\n        /* \"contracts/NFTMasterChef.sol\":13137:13188  verifyCallResult(success, returndata, errorMessage) */\n      jump\t// in\n    tag_579:\n        /* \"contracts/NFTMasterChef.sol\":13130:13188  return verifyCallResult(success, returndata, errorMessage) */\n      swap3\n      pop\n      pop\n      pop\n        /* \"contracts/NFTMasterChef.sol\":12686:13196  function functionCallWithValue(\r... */\n      swap5\n      swap4\n      pop\n      pop\n      pop\n      pop\n      jump\t// out\n        /* \"contracts/NFTMasterChef.sol\":8821:9147  function isContract(address account) internal view returns (bool) {\r... */\n    tag_570:\n        /* \"contracts/NFTMasterChef.sol\":8881:8885  bool */\n      0x00\n        /* \"contracts/NFTMasterChef.sol\":9138:9139  0 */\n      dup1\n        /* \"contracts/NFTMasterChef.sol\":9116:9123  account */\n      dup3\n        /* \"contracts/NFTMasterChef.sol\":9116:9135  account.code.length */\n      0xffffffffffffffffffffffffffffffffffffffff\n      and\n      extcodesize\n        /* \"contracts/NFTMasterChef.sol\":9116:9139  account.code.length > 0 */\n      gt\n        /* \"contracts/NFTMasterChef.sol\":9109:9139  return account.code.length > 0 */\n      swap1\n      pop\n        /* \"contracts/NFTMasterChef.sol\":8821:9147  function isContract(address account) internal view returns (bool) {\r... */\n      swap2\n      swap1\n      pop\n      jump\t// out\n        /* \"contracts/NFTMasterChef.sol\":15372:16084  function verifyCallResult(\r... */\n    tag_580:\n        /* \"contracts/NFTMasterChef.sol\":15522:15534  bytes memory */\n      0x60\n        /* \"contracts/NFTMasterChef.sol\":15551:15558  success */\n      dup4\n        /* \"contracts/NFTMasterChef.sol\":15547:16077  if (success) {\r... */\n      iszero\n      tag_583\n      jumpi\n        /* \"contracts/NFTMasterChef.sol\":15582:15592  returndata */\n      dup3\n        /* \"contracts/NFTMasterChef.sol\":15575:15592  return returndata */\n      swap1\n      pop\n      jump(tag_582)\n        /* \"contracts/NFTMasterChef.sol\":15547:16077  if (success) {\r... */\n    tag_583:\n        /* \"contracts/NFTMasterChef.sol\":15716:15717  0 */\n      0x00\n        /* \"contracts/NFTMasterChef.sol\":15696:15706  returndata */\n      dup4\n        /* \"contracts/NFTMasterChef.sol\":15696:15713  returndata.length */\n      mload\n        /* \"contracts/NFTMasterChef.sol\":15696:15717  returndata.length > 0 */\n      gt\n        /* \"contracts/NFTMasterChef.sol\":15692:16066  if (returndata.length > 0) {\r... */\n      iszero\n      tag_585\n      jumpi\n        /* \"contracts/NFTMasterChef.sol\":15894:15904  returndata */\n      dup3\n        /* \"contracts/NFTMasterChef.sol\":15888:15905  mload(returndata) */\n      mload\n        /* \"contracts/NFTMasterChef.sol\":15955:15970  returndata_size */\n      dup1\n        /* \"contracts/NFTMasterChef.sol\":15942:15952  returndata */\n      dup5\n        /* \"contracts/NFTMasterChef.sol\":15938:15940  32 */\n      0x20\n        /* \"contracts/NFTMasterChef.sol\":15934:15953  add(32, returndata) */\n      add\n        /* \"contracts/NFTMasterChef.sol\":15927:15971  revert(add(32, returndata), returndata_size) */\n      revert\n        /* \"contracts/NFTMasterChef.sol\":15692:16066  if (returndata.length > 0) {\r... */\n    tag_585:\n        /* \"contracts/NFTMasterChef.sol\":16037:16049  errorMessage */\n      dup2\n        /* \"contracts/NFTMasterChef.sol\":16030:16050  revert(errorMessage) */\n      mload(0x40)\n      0x08c379a000000000000000000000000000000000000000000000000000000000\n      dup2\n      mstore\n      0x04\n      add\n      tag_587\n      swap2\n      swap1\n      tag_546\n      jump\t// in\n    tag_587:\n      mload(0x40)\n      dup1\n      swap2\n      sub\n      swap1\n      revert\n        /* \"contracts/NFTMasterChef.sol\":15372:16084  function verifyCallResult(\r... */\n    tag_582:\n      swap4\n      swap3\n      pop\n      pop\n      pop\n      jump\t// out\n        /* \"#utility.yul\":7:146   */\n    tag_589:\n        /* \"#utility.yul\":53:58   */\n      0x00\n        /* \"#utility.yul\":91:97   */\n      dup2\n        /* \"#utility.yul\":78:98   */\n      calldataload\n        /* \"#utility.yul\":69:98   */\n      swap1\n      pop\n        /* \"#utility.yul\":107:140   */\n      tag_591\n        /* \"#utility.yul\":134:139   */\n      dup2\n        /* \"#utility.yul\":107:140   */\n      tag_592\n      jump\t// in\n    tag_591:\n        /* \"#utility.yul\":7:146   */\n      swap3\n      swap2\n      pop\n      pop\n      jump\t// out\n        /* \"#utility.yul\":152:285   */\n    tag_593:\n        /* \"#utility.yul\":195:200   */\n      0x00\n        /* \"#utility.yul\":233:239   */\n      dup2\n        /* \"#utility.yul\":220:240   */\n      calldataload\n        /* \"#utility.yul\":211:240   */\n      swap1\n      pop\n        /* \"#utility.yul\":249:279   */\n      tag_595\n        /* \"#utility.yul\":273:278   */\n      dup2\n        /* \"#utility.yul\":249:279   */\n      tag_596\n      jump\t// in\n    tag_595:\n        /* \"#utility.yul\":152:285   */\n      swap3\n      swap2\n      pop\n      pop\n      jump\t// out\n        /* \"#utility.yul\":291:428   */\n    tag_597:\n        /* \"#utility.yul\":345:350   */\n      0x00\n        /* \"#utility.yul\":376:382   */\n      dup2\n        /* \"#utility.yul\":370:383   */\n      mload\n        /* \"#utility.yul\":361:383   */\n      swap1\n      pop\n        /* \"#utility.yul\":392:422   */\n      tag_599\n        /* \"#utility.yul\":416:421   */\n      dup2\n        /* \"#utility.yul\":392:422   */\n      tag_596\n      jump\t// in\n    tag_599:\n        /* \"#utility.yul\":291:428   */\n      swap3\n      swap2\n      pop\n      pop\n      jump\t// out\n        /* \"#utility.yul\":434:601   */\n    tag_600:\n        /* \"#utility.yul\":494:499   */\n      0x00\n        /* \"#utility.yul\":532:538   */\n      dup2\n        /* \"#utility.yul\":519:539   */\n      calldataload\n        /* \"#utility.yul\":510:539   */\n      swap1\n      pop\n        /* \"#utility.yul\":548:595   */\n      tag_602\n        /* \"#utility.yul\":589:594   */\n      dup2\n        /* \"#utility.yul\":548:595   */\n      tag_603\n      jump\t// in\n    tag_602:\n        /* \"#utility.yul\":434:601   */\n      swap3\n      swap2\n      pop\n      pop\n      jump\t// out\n        /* \"#utility.yul\":607:778   */\n    tag_604:\n        /* \"#utility.yul\":678:683   */\n      0x00\n        /* \"#utility.yul\":709:715   */\n      dup2\n        /* \"#utility.yul\":703:716   */\n      mload\n        /* \"#utility.yul\":694:716   */\n      swap1\n      pop\n        /* \"#utility.yul\":725:772   */\n      tag_606\n        /* \"#utility.yul\":766:771   */\n      dup2\n        /* \"#utility.yul\":725:772   */\n      tag_603\n      jump\t// in\n    tag_606:\n        /* \"#utility.yul\":607:778   */\n      swap3\n      swap2\n      pop\n      pop\n      jump\t// out\n        /* \"#utility.yul\":784:953   */\n    tag_607:\n        /* \"#utility.yul\":845:850   */\n      0x00\n        /* \"#utility.yul\":883:889   */\n      dup2\n        /* \"#utility.yul\":870:890   */\n      calldataload\n        /* \"#utility.yul\":861:890   */\n      swap1\n      pop\n        /* \"#utility.yul\":899:947   */\n      tag_609\n        /* \"#utility.yul\":941:946   */\n      dup2\n        /* \"#utility.yul\":899:947   */\n      tag_610\n      jump\t// in\n    tag_609:\n        /* \"#utility.yul\":784:953   */\n      swap3\n      swap2\n      pop\n      pop\n      jump\t// out\n        /* \"#utility.yul\":959:1140   */\n    tag_611:\n        /* \"#utility.yul\":1026:1031   */\n      0x00\n        /* \"#utility.yul\":1064:1070   */\n      dup2\n        /* \"#utility.yul\":1051:1071   */\n      calldataload\n        /* \"#utility.yul\":1042:1071   */\n      swap1\n      pop\n        /* \"#utility.yul\":1080:1134   */\n      tag_613\n        /* \"#utility.yul\":1128:1133   */\n      dup2\n        /* \"#utility.yul\":1080:1134   */\n      tag_614\n      jump\t// in\n    tag_613:\n        /* \"#utility.yul\":959:1140   */\n      swap3\n      swap2\n      pop\n      pop\n      jump\t// out\n        /* \"#utility.yul\":1146:1285   */\n    tag_615:\n        /* \"#utility.yul\":1192:1197   */\n      0x00\n        /* \"#utility.yul\":1230:1236   */\n      dup2\n        /* \"#utility.yul\":1217:1237   */\n      calldataload\n        /* \"#utility.yul\":1208:1237   */\n      swap1\n      pop\n        /* \"#utility.yul\":1246:1279   */\n      tag_617\n        /* \"#utility.yul\":1273:1278   */\n      dup2\n        /* \"#utility.yul\":1246:1279   */\n      tag_618\n      jump\t// in\n    tag_617:\n        /* \"#utility.yul\":1146:1285   */\n      swap3\n      swap2\n      pop\n      pop\n      jump\t// out\n        /* \"#utility.yul\":1291:1434   */\n    tag_619:\n        /* \"#utility.yul\":1348:1353   */\n      0x00\n        /* \"#utility.yul\":1379:1385   */\n      dup2\n        /* \"#utility.yul\":1373:1386   */\n      mload\n        /* \"#utility.yul\":1364:1386   */\n      swap1\n      pop\n        /* \"#utility.yul\":1395:1428   */\n      tag_621\n        /* \"#utility.yul\":1422:1427   */\n      dup2\n        /* \"#utility.yul\":1395:1428   */\n      tag_618\n      jump\t// in\n    tag_621:\n        /* \"#utility.yul\":1291:1434   */\n      swap3\n      swap2\n      pop\n      pop\n      jump\t// out\n        /* \"#utility.yul\":1440:1769   */\n    tag_53:\n        /* \"#utility.yul\":1499:1505   */\n      0x00\n        /* \"#utility.yul\":1548:1550   */\n      0x20\n        /* \"#utility.yul\":1536:1545   */\n      dup3\n        /* \"#utility.yul\":1527:1534   */\n      dup5\n        /* \"#utility.yul\":1523:1546   */\n      sub\n        /* \"#utility.yul\":1519:1551   */\n      slt\n        /* \"#utility.yul\":1516:1635   */\n      iszero\n      tag_623\n      jumpi\n        /* \"#utility.yul\":1554:1633   */\n      tag_624\n      tag_625\n      jump\t// in\n    tag_624:\n        /* \"#utility.yul\":1516:1635   */\n    tag_623:\n        /* \"#utility.yul\":1674:1675   */\n      0x00\n        /* \"#utility.yul\":1699:1752   */\n      tag_626\n        /* \"#utility.yul\":1744:1751   */\n      dup5\n        /* \"#utility.yul\":1735:1741   */\n      dup3\n        /* \"#utility.yul\":1724:1733   */\n      dup6\n        /* \"#utility.yul\":1720:1742   */\n      add\n        /* \"#utility.yul\":1699:1752   */\n      tag_589\n      jump\t// in\n    tag_626:\n        /* \"#utility.yul\":1689:1752   */\n      swap2\n      pop\n        /* \"#utility.yul\":1645:1762   */\n      pop\n        /* \"#utility.yul\":1440:1769   */\n      swap3\n      swap2\n      pop\n      pop\n      jump\t// out\n        /* \"#utility.yul\":1775:2120   */\n    tag_558:\n        /* \"#utility.yul\":1842:1848   */\n      0x00\n        /* \"#utility.yul\":1891:1893   */\n      0x20\n        /* \"#utility.yul\":1879:1888   */\n      dup3\n        /* \"#utility.yul\":1870:1877   */\n      dup5\n        /* \"#utility.yul\":1866:1889   */\n      sub\n        /* \"#utility.yul\":1862:1894   */\n      slt\n        /* \"#utility.yul\":1859:1978   */\n      iszero\n      tag_628\n      jumpi\n        /* \"#utility.yul\":1897:1976   */\n      tag_629\n      tag_625\n      jump\t// in\n    tag_629:\n        /* \"#utility.yul\":1859:1978   */\n    tag_628:\n        /* \"#utility.yul\":2017:2018   */\n      0x00\n        /* \"#utility.yul\":2042:2103   */\n      tag_630\n        /* \"#utility.yul\":2095:2102   */\n      dup5\n        /* \"#utility.yul\":2086:2092   */\n      dup3\n        /* \"#utility.yul\":2075:2084   */\n      dup6\n        /* \"#utility.yul\":2071:2093   */\n      add\n        /* \"#utility.yul\":2042:2103   */\n      tag_597\n      jump\t// in\n    tag_630:\n        /* \"#utility.yul\":2032:2103   */\n      swap2\n      pop\n        /* \"#utility.yul\":1988:2113   */\n      pop\n        /* \"#utility.yul\":1775:2120   */\n      swap3\n      swap2\n      pop\n      pop\n      jump\t// out\n        /* \"#utility.yul\":2126:2505   */\n    tag_334:\n        /* \"#utility.yul\":2210:2216   */\n      0x00\n        /* \"#utility.yul\":2259:2261   */\n      0x20\n        /* \"#utility.yul\":2247:2256   */\n      dup3\n        /* \"#utility.yul\":2238:2245   */\n      dup5\n        /* \"#utility.yul\":2234:2257   */\n      sub\n        /* \"#utility.yul\":2230:2262   */\n      slt\n        /* \"#utility.yul\":2227:2346   */\n      iszero\n      tag_632\n      jumpi\n        /* \"#utility.yul\":2265:2344   */\n      tag_633\n      tag_625\n      jump\t// in\n    tag_633:\n        /* \"#utility.yul\":2227:2346   */\n    tag_632:\n        /* \"#utility.yul\":2385:2386   */\n      0x00\n        /* \"#utility.yul\":2410:2488   */\n      tag_634\n        /* \"#utility.yul\":2480:2487   */\n      dup5\n        /* \"#utility.yul\":2471:2477   */\n      dup3\n        /* \"#utility.yul\":2460:2469   */\n      dup6\n        /* \"#utility.yul\":2456:2478   */\n      add\n        /* \"#utility.yul\":2410:2488   */\n      tag_604\n      jump\t// in\n    tag_634:\n        /* \"#utility.yul\":2400:2488   */\n      swap2\n      pop\n        /* \"#utility.yul\":2356:2498   */\n      pop\n        /* \"#utility.yul\":2126:2505   */\n      swap3\n      swap2\n      pop\n      pop\n      jump\t// out\n        /* \"#utility.yul\":2511:3015   */\n    tag_96:\n        /* \"#utility.yul\":2594:2600   */\n      0x00\n        /* \"#utility.yul\":2602:2608   */\n      dup1\n        /* \"#utility.yul\":2651:2653   */\n      0x40\n        /* \"#utility.yul\":2639:2648   */\n      dup4\n        /* \"#utility.yul\":2630:2637   */\n      dup6\n        /* \"#utility.yul\":2626:2649   */\n      sub\n        /* \"#utility.yul\":2622:2654   */\n      slt\n        /* \"#utility.yul\":2619:2738   */\n      iszero\n      tag_636\n      jumpi\n        /* \"#utility.yul\":2657:2736   */\n      tag_637\n      tag_625\n      jump\t// in\n    tag_637:\n        /* \"#utility.yul\":2619:2738   */\n    tag_636:\n        /* \"#utility.yul\":2777:2778   */\n      0x00\n        /* \"#utility.yul\":2802:2870   */\n      tag_638\n        /* \"#utility.yul\":2862:2869   */\n      dup6\n        /* \"#utility.yul\":2853:2859   */\n      dup3\n        /* \"#utility.yul\":2842:2851   */\n      dup7\n        /* \"#utility.yul\":2838:2860   */\n      add\n        /* \"#utility.yul\":2802:2870   */\n      tag_607\n      jump\t// in\n    tag_638:\n        /* \"#utility.yul\":2792:2870   */\n      swap3\n      pop\n        /* \"#utility.yul\":2748:2880   */\n      pop\n        /* \"#utility.yul\":2919:2921   */\n      0x20\n        /* \"#utility.yul\":2945:2998   */\n      tag_639\n        /* \"#utility.yul\":2990:2997   */\n      dup6\n        /* \"#utility.yul\":2981:2987   */\n      dup3\n        /* \"#utility.yul\":2970:2979   */\n      dup7\n        /* \"#utility.yul\":2966:2988   */\n      add\n        /* \"#utility.yul\":2945:2998   */\n      tag_615\n      jump\t// in\n    tag_639:\n        /* \"#utility.yul\":2935:2998   */\n      swap2\n      pop\n        /* \"#utility.yul\":2890:3008   */\n      pop\n        /* \"#utility.yul\":2511:3015   */\n      swap3\n      pop\n      swap3\n      swap1\n      pop\n      jump\t// out\n        /* \"#utility.yul\":3021:3392   */\n    tag_77:\n        /* \"#utility.yul\":3101:3107   */\n      0x00\n        /* \"#utility.yul\":3150:3152   */\n      0x20\n        /* \"#utility.yul\":3138:3147   */\n      dup3\n        /* \"#utility.yul\":3129:3136   */\n      dup5\n        /* \"#utility.yul\":3125:3148   */\n      sub\n        /* \"#utility.yul\":3121:3153   */\n      slt\n        /* \"#utility.yul\":3118:3237   */\n      iszero\n      tag_641\n      jumpi\n        /* \"#utility.yul\":3156:3235   */\n      tag_642\n      tag_625\n      jump\t// in\n    tag_642:\n        /* \"#utility.yul\":3118:3237   */\n    tag_641:\n        /* \"#utility.yul\":3276:3277   */\n      0x00\n        /* \"#utility.yul\":3301:3375   */\n      tag_643\n        /* \"#utility.yul\":3367:3374   */\n      dup5\n        /* \"#utility.yul\":3358:3364   */\n      dup3\n        /* \"#utility.yul\":3347:3356   */\n      dup6\n        /* \"#utility.yul\":3343:3365   */\n      add\n        /* \"#utility.yul\":3301:3375   */\n      tag_611\n      jump\t// in\n    tag_643:\n        /* \"#utility.yul\":3291:3375   */\n      swap2\n      pop\n        /* \"#utility.yul\":3247:3385   */\n      pop\n        /* \"#utility.yul\":3021:3392   */\n      swap3\n      swap2\n      pop\n      pop\n      jump\t// out\n        /* \"#utility.yul\":3398:3727   */\n    tag_57:\n        /* \"#utility.yul\":3457:3463   */\n      0x00\n        /* \"#utility.yul\":3506:3508   */\n      0x20\n        /* \"#utility.yul\":3494:3503   */\n      dup3\n        /* \"#utility.yul\":3485:3492   */\n      dup5\n        /* \"#utility.yul\":3481:3504   */\n      sub\n        /* \"#utility.yul\":3477:3509   */\n      slt\n        /* \"#utility.yul\":3474:3593   */\n      iszero\n      tag_645\n      jumpi\n        /* \"#utility.yul\":3512:3591   */\n      tag_646\n      tag_625\n      jump\t// in\n    tag_646:\n        /* \"#utility.yul\":3474:3593   */\n    tag_645:\n        /* \"#utility.yul\":3632:3633   */\n      0x00\n        /* \"#utility.yul\":3657:3710   */\n      tag_647\n        /* \"#utility.yul\":3702:3709   */\n      dup5\n        /* \"#utility.yul\":3693:3699   */\n      dup3\n        /* \"#utility.yul\":3682:3691   */\n      dup6\n        /* \"#utility.yul\":3678:3700   */\n      add\n        /* \"#utility.yul\":3657:3710   */\n      tag_615\n      jump\t// in\n    tag_647:\n        /* \"#utility.yul\":3647:3710   */\n      swap2\n      pop\n        /* \"#utility.yul\":3603:3720   */\n      pop\n        /* \"#utility.yul\":3398:3727   */\n      swap3\n      swap2\n      pop\n      pop\n      jump\t// out\n        /* \"#utility.yul\":3733:4084   */\n    tag_223:\n        /* \"#utility.yul\":3803:3809   */\n      0x00\n        /* \"#utility.yul\":3852:3854   */\n      0x20\n        /* \"#utility.yul\":3840:3849   */\n      dup3\n        /* \"#utility.yul\":3831:3838   */\n      dup5\n        /* \"#utility.yul\":3827:3850   */\n      sub\n        /* \"#utility.yul\":3823:3855   */\n      slt\n        /* \"#utility.yul\":3820:3939   */\n      iszero\n      tag_649\n      jumpi\n        /* \"#utility.yul\":3858:3937   */\n      tag_650\n      tag_625\n      jump\t// in\n    tag_650:\n        /* \"#utility.yul\":3820:3939   */\n    tag_649:\n        /* \"#utility.yul\":3978:3979   */\n      0x00\n        /* \"#utility.yul\":4003:4067   */\n      tag_651\n        /* \"#utility.yul\":4059:4066   */\n      dup5\n        /* \"#utility.yul\":4050:4056   */\n      dup3\n        /* \"#utility.yul\":4039:4048   */\n      dup6\n        /* \"#utility.yul\":4035:4057   */\n      add\n        /* \"#utility.yul\":4003:4067   */\n      tag_619\n      jump\t// in\n    tag_651:\n        /* \"#utility.yul\":3993:4067   */\n      swap2\n      pop\n        /* \"#utility.yul\":3949:4077   */\n      pop\n        /* \"#utility.yul\":3733:4084   */\n      swap3\n      swap2\n      pop\n      pop\n      jump\t// out\n        /* \"#utility.yul\":4090:4564   */\n    tag_150:\n        /* \"#utility.yul\":4158:4164   */\n      0x00\n        /* \"#utility.yul\":4166:4172   */\n      dup1\n        /* \"#utility.yul\":4215:4217   */\n      0x40\n        /* \"#utility.yul\":4203:4212   */\n      dup4\n        /* \"#utility.yul\":4194:4201   */\n      dup6\n        /* \"#utility.yul\":4190:4213   */\n      sub\n        /* \"#utility.yul\":4186:4218   */\n      slt\n        /* \"#utility.yul\":4183:4302   */\n      iszero\n      tag_653\n      jumpi\n        /* \"#utility.yul\":4221:4300   */\n      tag_654\n      tag_625\n      jump\t// in\n    tag_654:\n        /* \"#utility.yul\":4183:4302   */\n    tag_653:\n        /* \"#utility.yul\":4341:4342   */\n      0x00\n        /* \"#utility.yul\":4366:4419   */\n      tag_655\n        /* \"#utility.yul\":4411:4418   */\n      dup6\n        /* \"#utility.yul\":4402:4408   */\n      dup3\n        /* \"#utility.yul\":4391:4400   */\n      dup7\n        /* \"#utility.yul\":4387:4409   */\n      add\n        /* \"#utility.yul\":4366:4419   */\n      tag_615\n      jump\t// in\n    tag_655:\n        /* \"#utility.yul\":4356:4419   */\n      swap3\n      pop\n        /* \"#utility.yul\":4312:4429   */\n      pop\n        /* \"#utility.yul\":4468:4470   */\n      0x20\n        /* \"#utility.yul\":4494:4547   */\n      tag_656\n        /* \"#utility.yul\":4539:4546   */\n      dup6\n        /* \"#utility.yul\":4530:4536   */\n      dup3\n        /* \"#utility.yul\":4519:4528   */\n      dup7\n        /* \"#utility.yul\":4515:4537   */\n      add\n        /* \"#utility.yul\":4494:4547   */\n      tag_589\n      jump\t// in\n    tag_656:\n        /* \"#utility.yul\":4484:4547   */\n      swap2\n      pop\n        /* \"#utility.yul\":4439:4557   */\n      pop\n        /* \"#utility.yul\":4090:4564   */\n      swap3\n      pop\n      swap3\n      swap1\n      pop\n      jump\t// out\n        /* \"#utility.yul\":4570:5211   */\n    tag_73:\n        /* \"#utility.yul\":4658:4664   */\n      0x00\n        /* \"#utility.yul\":4666:4672   */\n      dup1\n        /* \"#utility.yul\":4674:4680   */\n      0x00\n        /* \"#utility.yul\":4723:4725   */\n      0x60\n        /* \"#utility.yul\":4711:4720   */\n      dup5\n        /* \"#utility.yul\":4702:4709   */\n      dup7\n        /* \"#utility.yul\":4698:4721   */\n      sub\n        /* \"#utility.yul\":4694:4726   */\n      slt\n        /* \"#utility.yul\":4691:4810   */\n      iszero\n      tag_658\n      jumpi\n        /* \"#utility.yul\":4729:4808   */\n      tag_659\n      tag_625\n      jump\t// in\n    tag_659:\n        /* \"#utility.yul\":4691:4810   */\n    tag_658:\n        /* \"#utility.yul\":4849:4850   */\n      0x00\n        /* \"#utility.yul\":4874:4927   */\n      tag_660\n        /* \"#utility.yul\":4919:4926   */\n      dup7\n        /* \"#utility.yul\":4910:4916   */\n      dup3\n        /* \"#utility.yul\":4899:4908   */\n      dup8\n        /* \"#utility.yul\":4895:4917   */\n      add\n        /* \"#utility.yul\":4874:4927   */\n      tag_615\n      jump\t// in\n    tag_660:\n        /* \"#utility.yul\":4864:4927   */\n      swap4\n      pop\n        /* \"#utility.yul\":4820:4937   */\n      pop\n        /* \"#utility.yul\":4976:4978   */\n      0x20\n        /* \"#utility.yul\":5002:5069   */\n      tag_661\n        /* \"#utility.yul\":5061:5068   */\n      dup7\n        /* \"#utility.yul\":5052:5058   */\n      dup3\n        /* \"#utility.yul\":5041:5050   */\n      dup8\n        /* \"#utility.yul\":5037:5059   */\n      add\n        /* \"#utility.yul\":5002:5069   */\n      tag_600\n      jump\t// in\n    tag_661:\n        /* \"#utility.yul\":4992:5069   */\n      swap3\n      pop\n        /* \"#utility.yul\":4947:5079   */\n      pop\n        /* \"#utility.yul\":5118:5120   */\n      0x40\n        /* \"#utility.yul\":5144:5194   */\n      tag_662\n        /* \"#utility.yul\":5186:5193   */\n      dup7\n        /* \"#utility.yul\":5177:5183   */\n      dup3\n        /* \"#utility.yul\":5166:5175   */\n      dup8\n        /* \"#utility.yul\":5162:5184   */\n      add\n        /* \"#utility.yul\":5144:5194   */\n      tag_593\n      jump\t// in\n    tag_662:\n        /* \"#utility.yul\":5134:5194   */\n      swap2\n      pop\n        /* \"#utility.yul\":5089:5204   */\n      pop\n        /* \"#utility.yul\":4570:5211   */\n      swap3\n      pop\n      swap3\n      pop\n      swap3\n      jump\t// out\n        /* \"#utility.yul\":5217:5691   */\n    tag_69:\n        /* \"#utility.yul\":5285:5291   */\n      0x00\n        /* \"#utility.yul\":5293:5299   */\n      dup1\n        /* \"#utility.yul\":5342:5344   */\n      0x40\n        /* \"#utility.yul\":5330:5339   */\n      dup4\n        /* \"#utility.yul\":5321:5328   */\n      dup6\n        /* \"#utility.yul\":5317:5340   */\n      sub\n        /* \"#utility.yul\":5313:5345   */\n      slt\n        /* \"#utility.yul\":5310:5429   */\n      iszero\n      tag_664\n      jumpi\n        /* \"#utility.yul\":5348:5427   */\n      tag_665\n      tag_625\n      jump\t// in\n    tag_665:\n        /* \"#utility.yul\":5310:5429   */\n    tag_664:\n        /* \"#utility.yul\":5468:5469   */\n      0x00\n        /* \"#utility.yul\":5493:5546   */\n      tag_666\n        /* \"#utility.yul\":5538:5545   */\n      dup6\n        /* \"#utility.yul\":5529:5535   */\n      dup3\n        /* \"#utility.yul\":5518:5527   */\n      dup7\n        /* \"#utility.yul\":5514:5536   */\n      add\n        /* \"#utility.yul\":5493:5546   */\n      tag_615\n      jump\t// in\n    tag_666:\n        /* \"#utility.yul\":5483:5546   */\n      swap3\n      pop\n        /* \"#utility.yul\":5439:5556   */\n      pop\n        /* \"#utility.yul\":5595:5597   */\n      0x20\n        /* \"#utility.yul\":5621:5674   */\n      tag_667\n        /* \"#utility.yul\":5666:5673   */\n      dup6\n        /* \"#utility.yul\":5657:5663   */\n      dup3\n        /* \"#utility.yul\":5646:5655   */\n      dup7\n        /* \"#utility.yul\":5642:5664   */\n      add\n        /* \"#utility.yul\":5621:5674   */\n      tag_615\n      jump\t// in\n    tag_667:\n        /* \"#utility.yul\":5611:5674   */\n      swap2\n      pop\n        /* \"#utility.yul\":5566:5684   */\n      pop\n        /* \"#utility.yul\":5217:5691   */\n      swap3\n      pop\n      swap3\n      swap1\n      pop\n      jump\t// out\n        /* \"#utility.yul\":5697:6310   */\n    tag_119:\n        /* \"#utility.yul\":5771:5777   */\n      0x00\n        /* \"#utility.yul\":5779:5785   */\n      dup1\n        /* \"#utility.yul\":5787:5793   */\n      0x00\n        /* \"#utility.yul\":5836:5838   */\n      0x60\n        /* \"#utility.yul\":5824:5833   */\n      dup5\n        /* \"#utility.yul\":5815:5822   */\n      dup7\n        /* \"#utility.yul\":5811:5834   */\n      sub\n        /* \"#utility.yul\":5807:5839   */\n      slt\n        /* \"#utility.yul\":5804:5923   */\n      iszero\n      tag_669\n      jumpi\n        /* \"#utility.yul\":5842:5921   */\n      tag_670\n      tag_625\n      jump\t// in\n    tag_670:\n        /* \"#utility.yul\":5804:5923   */\n    tag_669:\n        /* \"#utility.yul\":5962:5963   */\n      0x00\n        /* \"#utility.yul\":5987:6040   */\n      tag_671\n        /* \"#utility.yul\":6032:6039   */\n      dup7\n        /* \"#utility.yul\":6023:6029   */\n      dup3\n        /* \"#utility.yul\":6012:6021   */\n      dup8\n        /* \"#utility.yul\":6008:6030   */\n      add\n        /* \"#utility.yul\":5987:6040   */\n      tag_615\n      jump\t// in\n    tag_671:\n        /* \"#utility.yul\":5977:6040   */\n      swap4\n      pop\n        /* \"#utility.yul\":5933:6050   */\n      pop\n        /* \"#utility.yul\":6089:6091   */\n      0x20\n        /* \"#utility.yul\":6115:6168   */\n      tag_672\n        /* \"#utility.yul\":6160:6167   */\n      dup7\n        /* \"#utility.yul\":6151:6157   */\n      dup3\n        /* \"#utility.yul\":6140:6149   */\n      dup8\n        /* \"#utility.yul\":6136:6158   */\n      add\n        /* \"#utility.yul\":6115:6168   */\n      tag_615\n      jump\t// in\n    tag_672:\n        /* \"#utility.yul\":6105:6168   */\n      swap3\n      pop\n        /* \"#utility.yul\":6060:6178   */\n      pop\n        /* \"#utility.yul\":6217:6219   */\n      0x40\n        /* \"#utility.yul\":6243:6293   */\n      tag_673\n        /* \"#utility.yul\":6285:6292   */\n      dup7\n        /* \"#utility.yul\":6276:6282   */\n      dup3\n        /* \"#utility.yul\":6265:6274   */\n      dup8\n        /* \"#utility.yul\":6261:6283   */\n      add\n        /* \"#utility.yul\":6243:6293   */\n      tag_593\n      jump\t// in\n    tag_673:\n        /* \"#utility.yul\":6233:6293   */\n      swap2\n      pop\n        /* \"#utility.yul\":6188:6303   */\n      pop\n        /* \"#utility.yul\":5697:6310   */\n      swap3\n      pop\n      swap3\n      pop\n      swap3\n      jump\t// out\n        /* \"#utility.yul\":6316:6434   */\n    tag_674:\n        /* \"#utility.yul\":6403:6427   */\n      tag_676\n        /* \"#utility.yul\":6421:6426   */\n      dup2\n        /* \"#utility.yul\":6403:6427   */\n      tag_677\n      jump\t// in\n    tag_676:\n        /* \"#utility.yul\":6398:6401   */\n      dup3\n        /* \"#utility.yul\":6391:6428   */\n      mstore\n        /* \"#utility.yul\":6316:6434   */\n      pop\n      pop\n      jump\t// out\n        /* \"#utility.yul\":6440:6813   */\n    tag_678:\n        /* \"#utility.yul\":6544:6547   */\n      0x00\n        /* \"#utility.yul\":6572:6610   */\n      tag_680\n        /* \"#utility.yul\":6604:6609   */\n      dup3\n        /* \"#utility.yul\":6572:6610   */\n      tag_681\n      jump\t// in\n    tag_680:\n        /* \"#utility.yul\":6626:6714   */\n      tag_682\n        /* \"#utility.yul\":6707:6713   */\n      dup2\n        /* \"#utility.yul\":6702:6705   */\n      dup6\n        /* \"#utility.yul\":6626:6714   */\n      tag_683\n      jump\t// in\n    tag_682:\n        /* \"#utility.yul\":6619:6714   */\n      swap4\n      pop\n        /* \"#utility.yul\":6723:6775   */\n      tag_684\n        /* \"#utility.yul\":6768:6774   */\n      dup2\n        /* \"#utility.yul\":6763:6766   */\n      dup6\n        /* \"#utility.yul\":6756:6760   */\n      0x20\n        /* \"#utility.yul\":6749:6754   */\n      dup7\n        /* \"#utility.yul\":6745:6761   */\n      add\n        /* \"#utility.yul\":6723:6775   */\n      tag_685\n      jump\t// in\n    tag_684:\n        /* \"#utility.yul\":6800:6806   */\n      dup1\n        /* \"#utility.yul\":6795:6798   */\n      dup5\n        /* \"#utility.yul\":6791:6807   */\n      add\n        /* \"#utility.yul\":6784:6807   */\n      swap2\n      pop\n        /* \"#utility.yul\":6548:6813   */\n      pop\n        /* \"#utility.yul\":6440:6813   */\n      swap3\n      swap2\n      pop\n      pop\n      jump\t// out\n        /* \"#utility.yul\":6819:6978   */\n    tag_686:\n        /* \"#utility.yul\":6920:6971   */\n      tag_688\n        /* \"#utility.yul\":6965:6970   */\n      dup2\n        /* \"#utility.yul\":6920:6971   */\n      tag_689\n      jump\t// in\n    tag_688:\n        /* \"#utility.yul\":6915:6918   */\n      dup3\n        /* \"#utility.yul\":6908:6972   */\n      mstore\n        /* \"#utility.yul\":6819:6978   */\n      pop\n      pop\n      jump\t// out\n        /* \"#utility.yul\":6984:7145   */\n    tag_690:\n        /* \"#utility.yul\":7086:7138   */\n      tag_692\n        /* \"#utility.yul\":7132:7137   */\n      dup2\n        /* \"#utility.yul\":7086:7138   */\n      tag_693\n      jump\t// in\n    tag_692:\n        /* \"#utility.yul\":7081:7084   */\n      dup3\n        /* \"#utility.yul\":7074:7139   */\n      mstore\n        /* \"#utility.yul\":6984:7145   */\n      pop\n      pop\n      jump\t// out\n        /* \"#utility.yul\":7151:7324   */\n    tag_694:\n        /* \"#utility.yul\":7259:7317   */\n      tag_696\n        /* \"#utility.yul\":7311:7316   */\n      dup2\n        /* \"#utility.yul\":7259:7317   */\n      tag_697\n      jump\t// in\n    tag_696:\n        /* \"#utility.yul\":7254:7257   */\n      dup3\n        /* \"#utility.yul\":7247:7318   */\n      mstore\n        /* \"#utility.yul\":7151:7324   */\n      pop\n      pop\n      jump\t// out\n        /* \"#utility.yul\":7330:7694   */\n    tag_698:\n        /* \"#utility.yul\":7418:7421   */\n      0x00\n        /* \"#utility.yul\":7446:7485   */\n      tag_700\n        /* \"#utility.yul\":7479:7484   */\n      dup3\n        /* \"#utility.yul\":7446:7485   */\n      tag_701\n      jump\t// in\n    tag_700:\n        /* \"#utility.yul\":7501:7572   */\n      tag_702\n        /* \"#utility.yul\":7565:7571   */\n      dup2\n        /* \"#utility.yul\":7560:7563   */\n      dup6\n        /* \"#utility.yul\":7501:7572   */\n      tag_703\n      jump\t// in\n    tag_702:\n        /* \"#utility.yul\":7494:7572   */\n      swap4\n      pop\n        /* \"#utility.yul\":7581:7633   */\n      tag_704\n        /* \"#utility.yul\":7626:7632   */\n      dup2\n        /* \"#utility.yul\":7621:7624   */\n      dup6\n        /* \"#utility.yul\":7614:7618   */\n      0x20\n        /* \"#utility.yul\":7607:7612   */\n      dup7\n        /* \"#utility.yul\":7603:7619   */\n      add\n        /* \"#utility.yul\":7581:7633   */\n      tag_685\n      jump\t// in\n    tag_704:\n        /* \"#utility.yul\":7658:7687   */\n      tag_705\n        /* \"#utility.yul\":7680:7686   */\n      dup2\n        /* \"#utility.yul\":7658:7687   */\n      tag_706\n      jump\t// in\n    tag_705:\n        /* \"#utility.yul\":7653:7656   */\n      dup5\n        /* \"#utility.yul\":7649:7688   */\n      add\n        /* \"#utility.yul\":7642:7688   */\n      swap2\n      pop\n        /* \"#utility.yul\":7422:7694   */\n      pop\n        /* \"#utility.yul\":7330:7694   */\n      swap3\n      swap2\n      pop\n      pop\n      jump\t// out\n        /* \"#utility.yul\":7700:8066   */\n    tag_707:\n        /* \"#utility.yul\":7842:7845   */\n      0x00\n        /* \"#utility.yul\":7863:7930   */\n      tag_709\n        /* \"#utility.yul\":7927:7929   */\n      0x26\n        /* \"#utility.yul\":7922:7925   */\n      dup4\n        /* \"#utility.yul\":7863:7930   */\n      tag_703\n      jump\t// in\n    tag_709:\n        /* \"#utility.yul\":7856:7930   */\n      swap2\n      pop\n        /* \"#utility.yul\":7939:8032   */\n      tag_710\n        /* \"#utility.yul\":8028:8031   */\n      dup3\n        /* \"#utility.yul\":7939:8032   */\n      tag_711\n      jump\t// in\n    tag_710:\n        /* \"#utility.yul\":8057:8059   */\n      0x40\n        /* \"#utility.yul\":8052:8055   */\n      dup3\n        /* \"#utility.yul\":8048:8060   */\n      add\n        /* \"#utility.yul\":8041:8060   */\n      swap1\n      pop\n        /* \"#utility.yul\":7700:8066   */\n      swap2\n      swap1\n      pop\n      jump\t// out\n        /* \"#utility.yul\":8072:8438   */\n    tag_712:\n        /* \"#utility.yul\":8214:8217   */\n      0x00\n        /* \"#utility.yul\":8235:8302   */\n      tag_714\n        /* \"#utility.yul\":8299:8301   */\n      0x13\n        /* \"#utility.yul\":8294:8297   */\n      dup4\n        /* \"#utility.yul\":8235:8302   */\n      tag_703\n      jump\t// in\n    tag_714:\n        /* \"#utility.yul\":8228:8302   */\n      swap2\n      pop\n        /* \"#utility.yul\":8311:8404   */\n      tag_715\n        /* \"#utility.yul\":8400:8403   */\n      dup3\n        /* \"#utility.yul\":8311:8404   */\n      tag_716\n      jump\t// in\n    tag_715:\n        /* \"#utility.yul\":8429:8431   */\n      0x20\n        /* \"#utility.yul\":8424:8427   */\n      dup3\n        /* \"#utility.yul\":8420:8432   */\n      add\n        /* \"#utility.yul\":8413:8432   */\n      swap1\n      pop\n        /* \"#utility.yul\":8072:8438   */\n      swap2\n      swap1\n      pop\n      jump\t// out\n        /* \"#utility.yul\":8444:8810   */\n    tag_717:\n        /* \"#utility.yul\":8586:8589   */\n      0x00\n        /* \"#utility.yul\":8607:8674   */\n      tag_719\n        /* \"#utility.yul\":8671:8673   */\n      0x1b\n        /* \"#utility.yul\":8666:8669   */\n      dup4\n        /* \"#utility.yul\":8607:8674   */\n      tag_703\n      jump\t// in\n    tag_719:\n        /* \"#utility.yul\":8600:8674   */\n      swap2\n      pop\n        /* \"#utility.yul\":8683:8776   */\n      tag_720\n        /* \"#utility.yul\":8772:8775   */\n      dup3\n        /* \"#utility.yul\":8683:8776   */\n      tag_721\n      jump\t// in\n    tag_720:\n        /* \"#utility.yul\":8801:8803   */\n      0x20\n        /* \"#utility.yul\":8796:8799   */\n      dup3\n        /* \"#utility.yul\":8792:8804   */\n      add\n        /* \"#utility.yul\":8785:8804   */\n      swap1\n      pop\n        /* \"#utility.yul\":8444:8810   */\n      swap2\n      swap1\n      pop\n      jump\t// out\n        /* \"#utility.yul\":8816:9182   */\n    tag_722:\n        /* \"#utility.yul\":8958:8961   */\n      0x00\n        /* \"#utility.yul\":8979:9046   */\n      tag_724\n        /* \"#utility.yul\":9043:9045   */\n      0x1b\n        /* \"#utility.yul\":9038:9041   */\n      dup4\n        /* \"#utility.yul\":8979:9046   */\n      tag_703\n      jump\t// in\n    tag_724:\n        /* \"#utility.yul\":8972:9046   */\n      swap2\n      pop\n        /* \"#utility.yul\":9055:9148   */\n      tag_725\n        /* \"#utility.yul\":9144:9147   */\n      dup3\n        /* \"#utility.yul\":9055:9148   */\n      tag_726\n      jump\t// in\n    tag_725:\n        /* \"#utility.yul\":9173:9175   */\n      0x20\n        /* \"#utility.yul\":9168:9171   */\n      dup3\n        /* \"#utility.yul\":9164:9176   */\n      add\n        /* \"#utility.yul\":9157:9176   */\n      swap1\n      pop\n        /* \"#utility.yul\":8816:9182   */\n      swap2\n      swap1\n      pop\n      jump\t// out\n        /* \"#utility.yul\":9188:9554   */\n    tag_727:\n        /* \"#utility.yul\":9330:9333   */\n      0x00\n        /* \"#utility.yul\":9351:9418   */\n      tag_729\n        /* \"#utility.yul\":9415:9417   */\n      0x26\n        /* \"#utility.yul\":9410:9413   */\n      dup4\n        /* \"#utility.yul\":9351:9418   */\n      tag_703\n      jump\t// in\n    tag_729:\n        /* \"#utility.yul\":9344:9418   */\n      swap2\n      pop\n        /* \"#utility.yul\":9427:9520   */\n      tag_730\n        /* \"#utility.yul\":9516:9519   */\n      dup3\n        /* \"#utility.yul\":9427:9520   */\n      tag_731\n      jump\t// in\n    tag_730:\n        /* \"#utility.yul\":9545:9547   */\n      0x40\n        /* \"#utility.yul\":9540:9543   */\n      dup3\n        /* \"#utility.yul\":9536:9548   */\n      add\n        /* \"#utility.yul\":9529:9548   */\n      swap1\n      pop\n        /* \"#utility.yul\":9188:9554   */\n      swap2\n      swap1\n      pop\n      jump\t// out\n        /* \"#utility.yul\":9560:9926   */\n    tag_732:\n        /* \"#utility.yul\":9702:9705   */\n      0x00\n        /* \"#utility.yul\":9723:9790   */\n      tag_734\n        /* \"#utility.yul\":9787:9789   */\n      0x18\n        /* \"#utility.yul\":9782:9785   */\n      dup4\n        /* \"#utility.yul\":9723:9790   */\n      tag_703\n      jump\t// in\n    tag_734:\n        /* \"#utility.yul\":9716:9790   */\n      swap2\n      pop\n        /* \"#utility.yul\":9799:9892   */\n      tag_735\n        /* \"#utility.yul\":9888:9891   */\n      dup3\n        /* \"#utility.yul\":9799:9892   */\n      tag_736\n      jump\t// in\n    tag_735:\n        /* \"#utility.yul\":9917:9919   */\n      0x20\n        /* \"#utility.yul\":9912:9915   */\n      dup3\n        /* \"#utility.yul\":9908:9920   */\n      add\n        /* \"#utility.yul\":9901:9920   */\n      swap1\n      pop\n        /* \"#utility.yul\":9560:9926   */\n      swap2\n      swap1\n      pop\n      jump\t// out\n        /* \"#utility.yul\":9932:10298   */\n    tag_737:\n        /* \"#utility.yul\":10074:10077   */\n      0x00\n        /* \"#utility.yul\":10095:10162   */\n      tag_739\n        /* \"#utility.yul\":10159:10161   */\n      0x21\n        /* \"#utility.yul\":10154:10157   */\n      dup4\n        /* \"#utility.yul\":10095:10162   */\n      tag_703\n      jump\t// in\n    tag_739:\n        /* \"#utility.yul\":10088:10162   */\n      swap2\n      pop\n        /* \"#utility.yul\":10171:10264   */\n      tag_740\n        /* \"#utility.yul\":10260:10263   */\n      dup3\n        /* \"#utility.yul\":10171:10264   */\n      tag_741\n      jump\t// in\n    tag_740:\n        /* \"#utility.yul\":10289:10291   */\n      0x40\n        /* \"#utility.yul\":10284:10287   */\n      dup3\n        /* \"#utility.yul\":10280:10292   */\n      add\n        /* \"#utility.yul\":10273:10292   */\n      swap1\n      pop\n        /* \"#utility.yul\":9932:10298   */\n      swap2\n      swap1\n      pop\n      jump\t// out\n        /* \"#utility.yul\":10304:10670   */\n    tag_742:\n        /* \"#utility.yul\":10446:10449   */\n      0x00\n        /* \"#utility.yul\":10467:10534   */\n      tag_744\n        /* \"#utility.yul\":10531:10533   */\n      0x20\n        /* \"#utility.yul\":10526:10529   */\n      dup4\n        /* \"#utility.yul\":10467:10534   */\n      tag_703\n      jump\t// in\n    tag_744:\n        /* \"#utility.yul\":10460:10534   */\n      swap2\n      pop\n        /* \"#utility.yul\":10543:10636   */\n      tag_745\n        /* \"#utility.yul\":10632:10635   */\n      dup3\n        /* \"#utility.yul\":10543:10636   */\n      tag_746\n      jump\t// in\n    tag_745:\n        /* \"#utility.yul\":10661:10663   */\n      0x20\n        /* \"#utility.yul\":10656:10659   */\n      dup3\n        /* \"#utility.yul\":10652:10664   */\n      add\n        /* \"#utility.yul\":10645:10664   */\n      swap1\n      pop\n        /* \"#utility.yul\":10304:10670   */\n      swap2\n      swap1\n      pop\n      jump\t// out\n        /* \"#utility.yul\":10676:11042   */\n    tag_747:\n        /* \"#utility.yul\":10818:10821   */\n      0x00\n        /* \"#utility.yul\":10839:10906   */\n      tag_749\n        /* \"#utility.yul\":10903:10905   */\n      0x14\n        /* \"#utility.yul\":10898:10901   */\n      dup4\n        /* \"#utility.yul\":10839:10906   */\n      tag_703\n      jump\t// in\n    tag_749:\n        /* \"#utility.yul\":10832:10906   */\n      swap2\n      pop\n        /* \"#utility.yul\":10915:11008   */\n      tag_750\n        /* \"#utility.yul\":11004:11007   */\n      dup3\n        /* \"#utility.yul\":10915:11008   */\n      tag_751\n      jump\t// in\n    tag_750:\n        /* \"#utility.yul\":11033:11035   */\n      0x20\n        /* \"#utility.yul\":11028:11031   */\n      dup3\n        /* \"#utility.yul\":11024:11036   */\n      add\n        /* \"#utility.yul\":11017:11036   */\n      swap1\n      pop\n        /* \"#utility.yul\":10676:11042   */\n      swap2\n      swap1\n      pop\n      jump\t// out\n        /* \"#utility.yul\":11048:11414   */\n    tag_752:\n        /* \"#utility.yul\":11190:11193   */\n      0x00\n        /* \"#utility.yul\":11211:11278   */\n      tag_754\n        /* \"#utility.yul\":11275:11277   */\n      0x1d\n        /* \"#utility.yul\":11270:11273   */\n      dup4\n        /* \"#utility.yul\":11211:11278   */\n      tag_703\n      jump\t// in\n    tag_754:\n        /* \"#utility.yul\":11204:11278   */\n      swap2\n      pop\n        /* \"#utility.yul\":11287:11380   */\n      tag_755\n        /* \"#utility.yul\":11376:11379   */\n      dup3\n        /* \"#utility.yul\":11287:11380   */\n      tag_756\n      jump\t// in\n    tag_755:\n        /* \"#utility.yul\":11405:11407   */\n      0x20\n        /* \"#utility.yul\":11400:11403   */\n      dup3\n        /* \"#utility.yul\":11396:11408   */\n      add\n        /* \"#utility.yul\":11389:11408   */\n      swap1\n      pop\n        /* \"#utility.yul\":11048:11414   */\n      swap2\n      swap1\n      pop\n      jump\t// out\n        /* \"#utility.yul\":11420:11786   */\n    tag_757:\n        /* \"#utility.yul\":11562:11565   */\n      0x00\n        /* \"#utility.yul\":11583:11650   */\n      tag_759\n        /* \"#utility.yul\":11647:11649   */\n      0x12\n        /* \"#utility.yul\":11642:11645   */\n      dup4\n        /* \"#utility.yul\":11583:11650   */\n      tag_703\n      jump\t// in\n    tag_759:\n        /* \"#utility.yul\":11576:11650   */\n      swap2\n      pop\n        /* \"#utility.yul\":11659:11752   */\n      tag_760\n        /* \"#utility.yul\":11748:11751   */\n      dup3\n        /* \"#utility.yul\":11659:11752   */\n      tag_761\n      jump\t// in\n    tag_760:\n        /* \"#utility.yul\":11777:11779   */\n      0x20\n        /* \"#utility.yul\":11772:11775   */\n      dup3\n        /* \"#utility.yul\":11768:11780   */\n      add\n        /* \"#utility.yul\":11761:11780   */\n      swap1\n      pop\n        /* \"#utility.yul\":11420:11786   */\n      swap2\n      swap1\n      pop\n      jump\t// out\n        /* \"#utility.yul\":11792:12158   */\n    tag_762:\n        /* \"#utility.yul\":11934:11937   */\n      0x00\n        /* \"#utility.yul\":11955:12022   */\n      tag_764\n        /* \"#utility.yul\":12019:12021   */\n      0x2a\n        /* \"#utility.yul\":12014:12017   */\n      dup4\n        /* \"#utility.yul\":11955:12022   */\n      tag_703\n      jump\t// in\n    tag_764:\n        /* \"#utility.yul\":11948:12022   */\n      swap2\n      pop\n        /* \"#utility.yul\":12031:12124   */\n      tag_765\n        /* \"#utility.yul\":12120:12123   */\n      dup3\n        /* \"#utility.yul\":12031:12124   */\n      tag_766\n      jump\t// in\n    tag_765:\n        /* \"#utility.yul\":12149:12151   */\n      0x40\n        /* \"#utility.yul\":12144:12147   */\n      dup3\n        /* \"#utility.yul\":12140:12152   */\n      add\n        /* \"#utility.yul\":12133:12152   */\n      swap1\n      pop\n        /* \"#utility.yul\":11792:12158   */\n      swap2\n      swap1\n      pop\n      jump\t// out\n        /* \"#utility.yul\":12164:12530   */\n    tag_767:\n        /* \"#utility.yul\":12306:12309   */\n      0x00\n        /* \"#utility.yul\":12327:12394   */\n      tag_769\n        /* \"#utility.yul\":12391:12393   */\n      0x0c\n        /* \"#utility.yul\":12386:12389   */\n      dup4\n        /* \"#utility.yul\":12327:12394   */\n      tag_703\n      jump\t// in\n    tag_769:\n        /* \"#utility.yul\":12320:12394   */\n      swap2\n      pop\n        /* \"#utility.yul\":12403:12496   */\n      tag_770\n        /* \"#utility.yul\":12492:12495   */\n      dup3\n        /* \"#utility.yul\":12403:12496   */\n      tag_771\n      jump\t// in\n    tag_770:\n        /* \"#utility.yul\":12521:12523   */\n      0x20\n        /* \"#utility.yul\":12516:12519   */\n      dup3\n        /* \"#utility.yul\":12512:12524   */\n      add\n        /* \"#utility.yul\":12505:12524   */\n      swap1\n      pop\n        /* \"#utility.yul\":12164:12530   */\n      swap2\n      swap1\n      pop\n      jump\t// out\n        /* \"#utility.yul\":12536:12902   */\n    tag_772:\n        /* \"#utility.yul\":12678:12681   */\n      0x00\n        /* \"#utility.yul\":12699:12766   */\n      tag_774\n        /* \"#utility.yul\":12763:12765   */\n      0x36\n        /* \"#utility.yul\":12758:12761   */\n      dup4\n        /* \"#utility.yul\":12699:12766   */\n      tag_703\n      jump\t// in\n    tag_774:\n        /* \"#utility.yul\":12692:12766   */\n      swap2\n      pop\n        /* \"#utility.yul\":12775:12868   */\n      tag_775\n        /* \"#utility.yul\":12864:12867   */\n      dup3\n        /* \"#utility.yul\":12775:12868   */\n      tag_776\n      jump\t// in\n    tag_775:\n        /* \"#utility.yul\":12893:12895   */\n      0x40\n        /* \"#utility.yul\":12888:12891   */\n      dup3\n        /* \"#utility.yul\":12884:12896   */\n      add\n        /* \"#utility.yul\":12877:12896   */\n      swap1\n      pop\n        /* \"#utility.yul\":12536:12902   */\n      swap2\n      swap1\n      pop\n      jump\t// out\n        /* \"#utility.yul\":12908:13274   */\n    tag_777:\n        /* \"#utility.yul\":13050:13053   */\n      0x00\n        /* \"#utility.yul\":13071:13138   */\n      tag_779\n        /* \"#utility.yul\":13135:13137   */\n      0x14\n        /* \"#utility.yul\":13130:13133   */\n      dup4\n        /* \"#utility.yul\":13071:13138   */\n      tag_703\n      jump\t// in\n    tag_779:\n        /* \"#utility.yul\":13064:13138   */\n      swap2\n      pop\n        /* \"#utility.yul\":13147:13240   */\n      tag_780\n        /* \"#utility.yul\":13236:13239   */\n      dup3\n        /* \"#utility.yul\":13147:13240   */\n      tag_781\n      jump\t// in\n    tag_780:\n        /* \"#utility.yul\":13265:13267   */\n      0x20\n        /* \"#utility.yul\":13260:13263   */\n      dup3\n        /* \"#utility.yul\":13256:13268   */\n      add\n        /* \"#utility.yul\":13249:13268   */\n      swap1\n      pop\n        /* \"#utility.yul\":12908:13274   */\n      swap2\n      swap1\n      pop\n      jump\t// out\n        /* \"#utility.yul\":13280:13398   */\n    tag_782:\n        /* \"#utility.yul\":13367:13391   */\n      tag_784\n        /* \"#utility.yul\":13385:13390   */\n      dup2\n        /* \"#utility.yul\":13367:13391   */\n      tag_785\n      jump\t// in\n    tag_784:\n        /* \"#utility.yul\":13362:13365   */\n      dup3\n        /* \"#utility.yul\":13355:13392   */\n      mstore\n        /* \"#utility.yul\":13280:13398   */\n      pop\n      pop\n      jump\t// out\n        /* \"#utility.yul\":13404:13675   */\n    tag_575:\n        /* \"#utility.yul\":13534:13537   */\n      0x00\n        /* \"#utility.yul\":13556:13649   */\n      tag_787\n        /* \"#utility.yul\":13645:13648   */\n      dup3\n        /* \"#utility.yul\":13636:13642   */\n      dup5\n        /* \"#utility.yul\":13556:13649   */\n      tag_678\n      jump\t// in\n    tag_787:\n        /* \"#utility.yul\":13549:13649   */\n      swap2\n      pop\n        /* \"#utility.yul\":13666:13669   */\n      dup2\n        /* \"#utility.yul\":13659:13669   */\n      swap1\n      pop\n        /* \"#utility.yul\":13404:13675   */\n      swap3\n      swap2\n      pop\n      pop\n      jump\t// out\n        /* \"#utility.yul\":13681:13903   */\n    tag_126:\n        /* \"#utility.yul\":13774:13778   */\n      0x00\n        /* \"#utility.yul\":13812:13814   */\n      0x20\n        /* \"#utility.yul\":13801:13810   */\n      dup3\n        /* \"#utility.yul\":13797:13815   */\n      add\n        /* \"#utility.yul\":13789:13815   */\n      swap1\n      pop\n        /* \"#utility.yul\":13825:13896   */\n      tag_789\n        /* \"#utility.yul\":13893:13894   */\n      0x00\n        /* \"#utility.yul\":13882:13891   */\n      dup4\n        /* \"#utility.yul\":13878:13895   */\n      add\n        /* \"#utility.yul\":13869:13875   */\n      dup5\n        /* \"#utility.yul\":13825:13896   */\n      tag_674\n      jump\t// in\n    tag_789:\n        /* \"#utility.yul\":13681:13903   */\n      swap3\n      swap2\n      pop\n      pop\n      jump\t// out\n        /* \"#utility.yul\":13909:14241   */\n    tag_532:\n        /* \"#utility.yul\":14030:14034   */\n      0x00\n        /* \"#utility.yul\":14068:14070   */\n      0x40\n        /* \"#utility.yul\":14057:14066   */\n      dup3\n        /* \"#utility.yul\":14053:14071   */\n      add\n        /* \"#utility.yul\":14045:14071   */\n      swap1\n      pop\n        /* \"#utility.yul\":14081:14152   */\n      tag_791\n        /* \"#utility.yul\":14149:14150   */\n      0x00\n        /* \"#utility.yul\":14138:14147   */\n      dup4\n        /* \"#utility.yul\":14134:14151   */\n      add\n        /* \"#utility.yul\":14125:14131   */\n      dup6\n        /* \"#utility.yul\":14081:14152   */\n      tag_674\n      jump\t// in\n    tag_791:\n        /* \"#utility.yul\":14162:14234   */\n      tag_792\n        /* \"#utility.yul\":14230:14232   */\n      0x20\n        /* \"#utility.yul\":14219:14228   */\n      dup4\n        /* \"#utility.yul\":14215:14233   */\n      add\n        /* \"#utility.yul\":14206:14212   */\n      dup5\n        /* \"#utility.yul\":14162:14234   */\n      tag_674\n      jump\t// in\n    tag_792:\n        /* \"#utility.yul\":13909:14241   */\n      swap4\n      swap3\n      pop\n      pop\n      pop\n      jump\t// out\n        /* \"#utility.yul\":14247:14689   */\n    tag_528:\n        /* \"#utility.yul\":14396:14400   */\n      0x00\n        /* \"#utility.yul\":14434:14436   */\n      0x60\n        /* \"#utility.yul\":14423:14432   */\n      dup3\n        /* \"#utility.yul\":14419:14437   */\n      add\n        /* \"#utility.yul\":14411:14437   */\n      swap1\n      pop\n        /* \"#utility.yul\":14447:14518   */\n      tag_794\n        /* \"#utility.yul\":14515:14516   */\n      0x00\n        /* \"#utility.yul\":14504:14513   */\n      dup4\n        /* \"#utility.yul\":14500:14517   */\n      add\n        /* \"#utility.yul\":14491:14497   */\n      dup7\n        /* \"#utility.yul\":14447:14518   */\n      tag_674\n      jump\t// in\n    tag_794:\n        /* \"#utility.yul\":14528:14600   */\n      tag_795\n        /* \"#utility.yul\":14596:14598   */\n      0x20\n        /* \"#utility.yul\":14585:14594   */\n      dup4\n        /* \"#utility.yul\":14581:14599   */\n      add\n        /* \"#utility.yul\":14572:14578   */\n      dup6\n        /* \"#utility.yul\":14528:14600   */\n      tag_674\n      jump\t// in\n    tag_795:\n        /* \"#utility.yul\":14610:14682   */\n      tag_796\n        /* \"#utility.yul\":14678:14680   */\n      0x40\n        /* \"#utility.yul\":14667:14676   */\n      dup4\n        /* \"#utility.yul\":14663:14681   */\n      add\n        /* \"#utility.yul\":14654:14660   */\n      dup5\n        /* \"#utility.yul\":14610:14682   */\n      tag_782\n      jump\t// in\n    tag_796:\n        /* \"#utility.yul\":14247:14689   */\n      swap5\n      swap4\n      pop\n      pop\n      pop\n      pop\n      jump\t// out\n        /* \"#utility.yul\":14695:15027   */\n    tag_523:\n        /* \"#utility.yul\":14816:14820   */\n      0x00\n        /* \"#utility.yul\":14854:14856   */\n      0x40\n        /* \"#utility.yul\":14843:14852   */\n      dup3\n        /* \"#utility.yul\":14839:14857   */\n      add\n        /* \"#utility.yul\":14831:14857   */\n      swap1\n      pop\n        /* \"#utility.yul\":14867:14938   */\n      tag_798\n        /* \"#utility.yul\":14935:14936   */\n      0x00\n        /* \"#utility.yul\":14924:14933   */\n      dup4\n        /* \"#utility.yul\":14920:14937   */\n      add\n        /* \"#utility.yul\":14911:14917   */\n      dup6\n        /* \"#utility.yul\":14867:14938   */\n      tag_674\n      jump\t// in\n    tag_798:\n        /* \"#utility.yul\":14948:15020   */\n      tag_799\n        /* \"#utility.yul\":15016:15018   */\n      0x20\n        /* \"#utility.yul\":15005:15014   */\n      dup4\n        /* \"#utility.yul\":15001:15019   */\n      add\n        /* \"#utility.yul\":14992:14998   */\n      dup5\n        /* \"#utility.yul\":14948:15020   */\n      tag_782\n      jump\t// in\n    tag_799:\n        /* \"#utility.yul\":14695:15027   */\n      swap4\n      swap3\n      pop\n      pop\n      pop\n      jump\t// out\n        /* \"#utility.yul\":15033:15283   */\n    tag_160:\n        /* \"#utility.yul\":15140:15144   */\n      0x00\n        /* \"#utility.yul\":15178:15180   */\n      0x20\n        /* \"#utility.yul\":15167:15176   */\n      dup3\n        /* \"#utility.yul\":15163:15181   */\n      add\n        /* \"#utility.yul\":15155:15181   */\n      swap1\n      pop\n        /* \"#utility.yul\":15191:15276   */\n      tag_801\n        /* \"#utility.yul\":15273:15274   */\n      0x00\n        /* \"#utility.yul\":15262:15271   */\n      dup4\n        /* \"#utility.yul\":15258:15275   */\n      add\n        /* \"#utility.yul\":15249:15255   */\n      dup5\n        /* \"#utility.yul\":15191:15276   */\n      tag_686\n      jump\t// in\n    tag_801:\n        /* \"#utility.yul\":15033:15283   */\n      swap3\n      swap2\n      pop\n      pop\n      jump\t// out\n        /* \"#utility.yul\":15289:15870   */\n    tag_63:\n        /* \"#utility.yul\":15480:15484   */\n      0x00\n        /* \"#utility.yul\":15518:15521   */\n      0x80\n        /* \"#utility.yul\":15507:15516   */\n      dup3\n        /* \"#utility.yul\":15503:15522   */\n      add\n        /* \"#utility.yul\":15495:15522   */\n      swap1\n      pop\n        /* \"#utility.yul\":15532:15617   */\n      tag_803\n        /* \"#utility.yul\":15614:15615   */\n      0x00\n        /* \"#utility.yul\":15603:15612   */\n      dup4\n        /* \"#utility.yul\":15599:15616   */\n      add\n        /* \"#utility.yul\":15590:15596   */\n      dup8\n        /* \"#utility.yul\":15532:15617   */\n      tag_686\n      jump\t// in\n    tag_803:\n        /* \"#utility.yul\":15627:15699   */\n      tag_804\n        /* \"#utility.yul\":15695:15697   */\n      0x20\n        /* \"#utility.yul\":15684:15693   */\n      dup4\n        /* \"#utility.yul\":15680:15698   */\n      add\n        /* \"#utility.yul\":15671:15677   */\n      dup7\n        /* \"#utility.yul\":15627:15699   */\n      tag_782\n      jump\t// in\n    tag_804:\n        /* \"#utility.yul\":15709:15781   */\n      tag_805\n        /* \"#utility.yul\":15777:15779   */\n      0x40\n        /* \"#utility.yul\":15766:15775   */\n      dup4\n        /* \"#utility.yul\":15762:15780   */\n      add\n        /* \"#utility.yul\":15753:15759   */\n      dup6\n        /* \"#utility.yul\":15709:15781   */\n      tag_782\n      jump\t// in\n    tag_805:\n        /* \"#utility.yul\":15791:15863   */\n      tag_806\n        /* \"#utility.yul\":15859:15861   */\n      0x60\n        /* \"#utility.yul\":15848:15857   */\n      dup4\n        /* \"#utility.yul\":15844:15862   */\n      add\n        /* \"#utility.yul\":15835:15841   */\n      dup5\n        /* \"#utility.yul\":15791:15863   */\n      tag_782\n      jump\t// in\n    tag_806:\n        /* \"#utility.yul\":15289:15870   */\n      swap6\n      swap5\n      pop\n      pop\n      pop\n      pop\n      pop\n      jump\t// out\n        /* \"#utility.yul\":15876:16238   */\n    tag_114:\n        /* \"#utility.yul\":16012:16016   */\n      0x00\n        /* \"#utility.yul\":16050:16052   */\n      0x40\n        /* \"#utility.yul\":16039:16048   */\n      dup3\n        /* \"#utility.yul\":16035:16053   */\n      add\n        /* \"#utility.yul\":16027:16053   */\n      swap1\n      pop\n        /* \"#utility.yul\":16063:16149   */\n      tag_808\n        /* \"#utility.yul\":16146:16147   */\n      0x00\n        /* \"#utility.yul\":16135:16144   */\n      dup4\n        /* \"#utility.yul\":16131:16148   */\n      add\n        /* \"#utility.yul\":16122:16128   */\n      dup6\n        /* \"#utility.yul\":16063:16149   */\n      tag_690\n      jump\t// in\n    tag_808:\n        /* \"#utility.yul\":16159:16231   */\n      tag_809\n        /* \"#utility.yul\":16227:16229   */\n      0x20\n        /* \"#utility.yul\":16216:16225   */\n      dup4\n        /* \"#utility.yul\":16212:16230   */\n      add\n        /* \"#utility.yul\":16203:16209   */\n      dup5\n        /* \"#utility.yul\":16159:16231   */\n      tag_782\n      jump\t// in\n    tag_809:\n        /* \"#utility.yul\":15876:16238   */\n      swap4\n      swap3\n      pop\n      pop\n      pop\n      jump\t// out\n        /* \"#utility.yul\":16244:16508   */\n    tag_130:\n        /* \"#utility.yul\":16358:16362   */\n      0x00\n        /* \"#utility.yul\":16396:16398   */\n      0x20\n        /* \"#utility.yul\":16385:16394   */\n      dup3\n        /* \"#utility.yul\":16381:16399   */\n      add\n        /* \"#utility.yul\":16373:16399   */\n      swap1\n      pop\n        /* \"#utility.yul\":16409:16501   */\n      tag_811\n        /* \"#utility.yul\":16498:16499   */\n      0x00\n        /* \"#utility.yul\":16487:16496   */\n      dup4\n        /* \"#utility.yul\":16483:16500   */\n      add\n        /* \"#utility.yul\":16474:16480   */\n      dup5\n        /* \"#utility.yul\":16409:16501   */\n      tag_694\n      jump\t// in\n    tag_811:\n        /* \"#utility.yul\":16244:16508   */\n      swap3\n      swap2\n      pop\n      pop\n      jump\t// out\n        /* \"#utility.yul\":16514:16827   */\n    tag_546:\n        /* \"#utility.yul\":16627:16631   */\n      0x00\n        /* \"#utility.yul\":16665:16667   */\n      0x20\n        /* \"#utility.yul\":16654:16663   */\n      dup3\n        /* \"#utility.yul\":16650:16668   */\n      add\n        /* \"#utility.yul\":16642:16668   */\n      swap1\n      pop\n        /* \"#utility.yul\":16714:16723   */\n      dup2\n        /* \"#utility.yul\":16708:16712   */\n      dup2\n        /* \"#utility.yul\":16704:16724   */\n      sub\n        /* \"#utility.yul\":16700:16701   */\n      0x00\n        /* \"#utility.yul\":16689:16698   */\n      dup4\n        /* \"#utility.yul\":16685:16702   */\n      add\n        /* \"#utility.yul\":16678:16725   */\n      mstore\n        /* \"#utility.yul\":16742:16820   */\n      tag_813\n        /* \"#utility.yul\":16815:16819   */\n      dup2\n        /* \"#utility.yul\":16806:16812   */\n      dup5\n        /* \"#utility.yul\":16742:16820   */\n      tag_698\n      jump\t// in\n    tag_813:\n        /* \"#utility.yul\":16734:16820   */\n      swap1\n      pop\n        /* \"#utility.yul\":16514:16827   */\n      swap3\n      swap2\n      pop\n      pop\n      jump\t// out\n        /* \"#utility.yul\":16833:17252   */\n    tag_475:\n        /* \"#utility.yul\":16999:17003   */\n      0x00\n        /* \"#utility.yul\":17037:17039   */\n      0x20\n        /* \"#utility.yul\":17026:17035   */\n      dup3\n        /* \"#utility.yul\":17022:17040   */\n      add\n        /* \"#utility.yul\":17014:17040   */\n      swap1\n      pop\n        /* \"#utility.yul\":17086:17095   */\n      dup2\n        /* \"#utility.yul\":17080:17084   */\n      dup2\n        /* \"#utility.yul\":17076:17096   */\n      sub\n        /* \"#utility.yul\":17072:17073   */\n      0x00\n        /* \"#utility.yul\":17061:17070   */\n      dup4\n        /* \"#utility.yul\":17057:17074   */\n      add\n        /* \"#utility.yul\":17050:17097   */\n      mstore\n        /* \"#utility.yul\":17114:17245   */\n      tag_815\n        /* \"#utility.yul\":17240:17244   */\n      dup2\n        /* \"#utility.yul\":17114:17245   */\n      tag_707\n      jump\t// in\n    tag_815:\n        /* \"#utility.yul\":17106:17245   */\n      swap1\n      pop\n        /* \"#utility.yul\":16833:17252   */\n      swap2\n      swap1\n      pop\n      jump\t// out\n        /* \"#utility.yul\":17258:17677   */\n    tag_247:\n        /* \"#utility.yul\":17424:17428   */\n      0x00\n        /* \"#utility.yul\":17462:17464   */\n      0x20\n        /* \"#utility.yul\":17451:17460   */\n      dup3\n        /* \"#utility.yul\":17447:17465   */\n      add\n        /* \"#utility.yul\":17439:17465   */\n      swap1\n      pop\n        /* \"#utility.yul\":17511:17520   */\n      dup2\n        /* \"#utility.yul\":17505:17509   */\n      dup2\n        /* \"#utility.yul\":17501:17521   */\n      sub\n        /* \"#utility.yul\":17497:17498   */\n      0x00\n        /* \"#utility.yul\":17486:17495   */\n      dup4\n        /* \"#utility.yul\":17482:17499   */\n      add\n        /* \"#utility.yul\":17475:17522   */\n      mstore\n        /* \"#utility.yul\":17539:17670   */\n      tag_817\n        /* \"#utility.yul\":17665:17669   */\n      dup2\n        /* \"#utility.yul\":17539:17670   */\n      tag_712\n      jump\t// in\n    tag_817:\n        /* \"#utility.yul\":17531:17670   */\n      swap1\n      pop\n        /* \"#utility.yul\":17258:17677   */\n      swap2\n      swap1\n      pop\n      jump\t// out\n        /* \"#utility.yul\":17683:18102   */\n    tag_298:\n        /* \"#utility.yul\":17849:17853   */\n      0x00\n        /* \"#utility.yul\":17887:17889   */\n      0x20\n        /* \"#utility.yul\":17876:17885   */\n      dup3\n        /* \"#utility.yul\":17872:17890   */\n      add\n        /* \"#utility.yul\":17864:17890   */\n      swap1\n      pop\n        /* \"#utility.yul\":17936:17945   */\n      dup2\n        /* \"#utility.yul\":17930:17934   */\n      dup2\n        /* \"#utility.yul\":17926:17946   */\n      sub\n        /* \"#utility.yul\":17922:17923   */\n      0x00\n        /* \"#utility.yul\":17911:17920   */\n      dup4\n        /* \"#utility.yul\":17907:17924   */\n      add\n        /* \"#utility.yul\":17900:17947   */\n      mstore\n        /* \"#utility.yul\":17964:18095   */\n      tag_819\n        /* \"#utility.yul\":18090:18094   */\n      dup2\n        /* \"#utility.yul\":17964:18095   */\n      tag_717\n      jump\t// in\n    tag_819:\n        /* \"#utility.yul\":17956:18095   */\n      swap1\n      pop\n        /* \"#utility.yul\":17683:18102   */\n      swap2\n      swap1\n      pop\n      jump\t// out\n        /* \"#utility.yul\":18108:18527   */\n    tag_519:\n        /* \"#utility.yul\":18274:18278   */\n      0x00\n        /* \"#utility.yul\":18312:18314   */\n      0x20\n        /* \"#utility.yul\":18301:18310   */\n      dup3\n        /* \"#utility.yul\":18297:18315   */\n      add\n        /* \"#utility.yul\":18289:18315   */\n      swap1\n      pop\n        /* \"#utility.yul\":18361:18370   */\n      dup2\n        /* \"#utility.yul\":18355:18359   */\n      dup2\n        /* \"#utility.yul\":18351:18371   */\n      sub\n        /* \"#utility.yul\":18347:18348   */\n      0x00\n        /* \"#utility.yul\":18336:18345   */\n      dup4\n        /* \"#utility.yul\":18332:18349   */\n      add\n        /* \"#utility.yul\":18325:18372   */\n      mstore\n        /* \"#utility.yul\":18389:18520   */\n      tag_821\n        /* \"#utility.yul\":18515:18519   */\n      dup2\n        /* \"#utility.yul\":18389:18520   */\n      tag_722\n      jump\t// in\n    tag_821:\n        /* \"#utility.yul\":18381:18520   */\n      swap1\n      pop\n        /* \"#utility.yul\":18108:18527   */\n      swap2\n      swap1\n      pop\n      jump\t// out\n        /* \"#utility.yul\":18533:18952   */\n    tag_568:\n        /* \"#utility.yul\":18699:18703   */\n      0x00\n        /* \"#utility.yul\":18737:18739   */\n      0x20\n        /* \"#utility.yul\":18726:18735   */\n      dup3\n        /* \"#utility.yul\":18722:18740   */\n      add\n        /* \"#utility.yul\":18714:18740   */\n      swap1\n      pop\n        /* \"#utility.yul\":18786:18795   */\n      dup2\n        /* \"#utility.yul\":18780:18784   */\n      dup2\n        /* \"#utility.yul\":18776:18796   */\n      sub\n        /* \"#utility.yul\":18772:18773   */\n      0x00\n        /* \"#utility.yul\":18761:18770   */\n      dup4\n        /* \"#utility.yul\":18757:18774   */\n      add\n        /* \"#utility.yul\":18750:18797   */\n      mstore\n        /* \"#utility.yul\":18814:18945   */\n      tag_823\n        /* \"#utility.yul\":18940:18944   */\n      dup2\n        /* \"#utility.yul\":18814:18945   */\n      tag_727\n      jump\t// in\n    tag_823:\n        /* \"#utility.yul\":18806:18945   */\n      swap1\n      pop\n        /* \"#utility.yul\":18533:18952   */\n      swap2\n      swap1\n      pop\n      jump\t// out\n        /* \"#utility.yul\":18958:19377   */\n    tag_451:\n        /* \"#utility.yul\":19124:19128   */\n      0x00\n        /* \"#utility.yul\":19162:19164   */\n      0x20\n        /* \"#utility.yul\":19151:19160   */\n      dup3\n        /* \"#utility.yul\":19147:19165   */\n      add\n        /* \"#utility.yul\":19139:19165   */\n      swap1\n      pop\n        /* \"#utility.yul\":19211:19220   */\n      dup2\n        /* \"#utility.yul\":19205:19209   */\n      dup2\n        /* \"#utility.yul\":19201:19221   */\n      sub\n        /* \"#utility.yul\":19197:19198   */\n      0x00\n        /* \"#utility.yul\":19186:19195   */\n      dup4\n        /* \"#utility.yul\":19182:19199   */\n      add\n        /* \"#utility.yul\":19175:19222   */\n      mstore\n        /* \"#utility.yul\":19239:19370   */\n      tag_825\n        /* \"#utility.yul\":19365:19369   */\n      dup2\n        /* \"#utility.yul\":19239:19370   */\n      tag_732\n      jump\t// in\n    tag_825:\n        /* \"#utility.yul\":19231:19370   */\n      swap1\n      pop\n        /* \"#utility.yul\":18958:19377   */\n      swap2\n      swap1\n      pop\n      jump\t// out\n        /* \"#utility.yul\":19383:19802   */\n    tag_507:\n        /* \"#utility.yul\":19549:19553   */\n      0x00\n        /* \"#utility.yul\":19587:19589   */\n      0x20\n        /* \"#utility.yul\":19576:19585   */\n      dup3\n        /* \"#utility.yul\":19572:19590   */\n      add\n        /* \"#utility.yul\":19564:19590   */\n      swap1\n      pop\n        /* \"#utility.yul\":19636:19645   */\n      dup2\n        /* \"#utility.yul\":19630:19634   */\n      dup2\n        /* \"#utility.yul\":19626:19646   */\n      sub\n        /* \"#utility.yul\":19622:19623   */\n      0x00\n        /* \"#utility.yul\":19611:19620   */\n      dup4\n        /* \"#utility.yul\":19607:19624   */\n      add\n        /* \"#utility.yul\":19600:19647   */\n      mstore\n        /* \"#utility.yul\":19664:19795   */\n      tag_827\n        /* \"#utility.yul\":19790:19794   */\n      dup2\n        /* \"#utility.yul\":19664:19795   */\n      tag_737\n      jump\t// in\n    tag_827:\n        /* \"#utility.yul\":19656:19795   */\n      swap1\n      pop\n        /* \"#utility.yul\":19383:19802   */\n      swap2\n      swap1\n      pop\n      jump\t// out\n        /* \"#utility.yul\":19808:20227   */\n    tag_185:\n        /* \"#utility.yul\":19974:19978   */\n      0x00\n        /* \"#utility.yul\":20012:20014   */\n      0x20\n        /* \"#utility.yul\":20001:20010   */\n      dup3\n        /* \"#utility.yul\":19997:20015   */\n      add\n        /* \"#utility.yul\":19989:20015   */\n      swap1\n      pop\n        /* \"#utility.yul\":20061:20070   */\n      dup2\n        /* \"#utility.yul\":20055:20059   */\n      dup2\n        /* \"#utility.yul\":20051:20071   */\n      sub\n        /* \"#utility.yul\":20047:20048   */\n      0x00\n        /* \"#utility.yul\":20036:20045   */\n      dup4\n        /* \"#utility.yul\":20032:20049   */\n      add\n        /* \"#utility.yul\":20025:20072   */\n      mstore\n        /* \"#utility.yul\":20089:20220   */\n      tag_829\n        /* \"#utility.yul\":20215:20219   */\n      dup2\n        /* \"#utility.yul\":20089:20220   */\n      tag_742\n      jump\t// in\n    tag_829:\n        /* \"#utility.yul\":20081:20220   */\n      swap1\n      pop\n        /* \"#utility.yul\":19808:20227   */\n      swap2\n      swap1\n      pop\n      jump\t// out\n        /* \"#utility.yul\":20233:20652   */\n    tag_431:\n        /* \"#utility.yul\":20399:20403   */\n      0x00\n        /* \"#utility.yul\":20437:20439   */\n      0x20\n        /* \"#utility.yul\":20426:20435   */\n      dup3\n        /* \"#utility.yul\":20422:20440   */\n      add\n        /* \"#utility.yul\":20414:20440   */\n      swap1\n      pop\n        /* \"#utility.yul\":20486:20495   */\n      dup2\n        /* \"#utility.yul\":20480:20484   */\n      dup2\n        /* \"#utility.yul\":20476:20496   */\n      sub\n        /* \"#utility.yul\":20472:20473   */\n      0x00\n        /* \"#utility.yul\":20461:20470   */\n      dup4\n        /* \"#utility.yul\":20457:20474   */\n      add\n        /* \"#utility.yul\":20450:20497   */\n      mstore\n        /* \"#utility.yul\":20514:20645   */\n      tag_831\n        /* \"#utility.yul\":20640:20644   */\n      dup2\n        /* \"#utility.yul\":20514:20645   */\n      tag_747\n      jump\t// in\n    tag_831:\n        /* \"#utility.yul\":20506:20645   */\n      swap1\n      pop\n        /* \"#utility.yul\":20233:20652   */\n      swap2\n      swap1\n      pop\n      jump\t// out\n        /* \"#utility.yul\":20658:21077   */\n    tag_573:\n        /* \"#utility.yul\":20824:20828   */\n      0x00\n        /* \"#utility.yul\":20862:20864   */\n      0x20\n        /* \"#utility.yul\":20851:20860   */\n      dup3\n        /* \"#utility.yul\":20847:20865   */\n      add\n        /* \"#utility.yul\":20839:20865   */\n      swap1\n      pop\n        /* \"#utility.yul\":20911:20920   */\n      dup2\n        /* \"#utility.yul\":20905:20909   */\n      dup2\n        /* \"#utility.yul\":20901:20921   */\n      sub\n        /* \"#utility.yul\":20897:20898   */\n      0x00\n        /* \"#utility.yul\":20886:20895   */\n      dup4\n        /* \"#utility.yul\":20882:20899   */\n      add\n        /* \"#utility.yul\":20875:20922   */\n      mstore\n        /* \"#utility.yul\":20939:21070   */\n      tag_833\n        /* \"#utility.yul\":21065:21069   */\n      dup2\n        /* \"#utility.yul\":20939:21070   */\n      tag_752\n      jump\t// in\n    tag_833:\n        /* \"#utility.yul\":20931:21070   */\n      swap1\n      pop\n        /* \"#utility.yul\":20658:21077   */\n      swap2\n      swap1\n      pop\n      jump\t// out\n        /* \"#utility.yul\":21083:21502   */\n    tag_194:\n        /* \"#utility.yul\":21249:21253   */\n      0x00\n        /* \"#utility.yul\":21287:21289   */\n      0x20\n        /* \"#utility.yul\":21276:21285   */\n      dup3\n        /* \"#utility.yul\":21272:21290   */\n      add\n        /* \"#utility.yul\":21264:21290   */\n      swap1\n      pop\n        /* \"#utility.yul\":21336:21345   */\n      dup2\n        /* \"#utility.yul\":21330:21334   */\n      dup2\n        /* \"#utility.yul\":21326:21346   */\n      sub\n        /* \"#utility.yul\":21322:21323   */\n      0x00\n        /* \"#utility.yul\":21311:21320   */\n      dup4\n        /* \"#utility.yul\":21307:21324   */\n      add\n        /* \"#utility.yul\":21300:21347   */\n      mstore\n        /* \"#utility.yul\":21364:21495   */\n      tag_835\n        /* \"#utility.yul\":21490:21494   */\n      dup2\n        /* \"#utility.yul\":21364:21495   */\n      tag_757\n      jump\t// in\n    tag_835:\n        /* \"#utility.yul\":21356:21495   */\n      swap1\n      pop\n        /* \"#utility.yul\":21083:21502   */\n      swap2\n      swap1\n      pop\n      jump\t// out\n        /* \"#utility.yul\":21508:21927   */\n    tag_561:\n        /* \"#utility.yul\":21674:21678   */\n      0x00\n        /* \"#utility.yul\":21712:21714   */\n      0x20\n        /* \"#utility.yul\":21701:21710   */\n      dup3\n        /* \"#utility.yul\":21697:21715   */\n      add\n        /* \"#utility.yul\":21689:21715   */\n      swap1\n      pop\n        /* \"#utility.yul\":21761:21770   */\n      dup2\n        /* \"#utility.yul\":21755:21759   */\n      dup2\n        /* \"#utility.yul\":21751:21771   */\n      sub\n        /* \"#utility.yul\":21747:21748   */\n      0x00\n        /* \"#utility.yul\":21736:21745   */\n      dup4\n        /* \"#utility.yul\":21732:21749   */\n      add\n        /* \"#utility.yul\":21725:21772   */\n      mstore\n        /* \"#utility.yul\":21789:21920   */\n      tag_837\n        /* \"#utility.yul\":21915:21919   */\n      dup2\n        /* \"#utility.yul\":21789:21920   */\n      tag_762\n      jump\t// in\n    tag_837:\n        /* \"#utility.yul\":21781:21920   */\n      swap1\n      pop\n        /* \"#utility.yul\":21508:21927   */\n      swap2\n      swap1\n      pop\n      jump\t// out\n        /* \"#utility.yul\":21933:22352   */\n    tag_342:\n        /* \"#utility.yul\":22099:22103   */\n      0x00\n        /* \"#utility.yul\":22137:22139   */\n      0x20\n        /* \"#utility.yul\":22126:22135   */\n      dup3\n        /* \"#utility.yul\":22122:22140   */\n      add\n        /* \"#utility.yul\":22114:22140   */\n      swap1\n      pop\n        /* \"#utility.yul\":22186:22195   */\n      dup2\n        /* \"#utility.yul\":22180:22184   */\n      dup2\n        /* \"#utility.yul\":22176:22196   */\n      sub\n        /* \"#utility.yul\":22172:22173   */\n      0x00\n        /* \"#utility.yul\":22161:22170   */\n      dup4\n        /* \"#utility.yul\":22157:22174   */\n      add\n        /* \"#utility.yul\":22150:22197   */\n      mstore\n        /* \"#utility.yul\":22214:22345   */\n      tag_839\n        /* \"#utility.yul\":22340:22344   */\n      dup2\n        /* \"#utility.yul\":22214:22345   */\n      tag_767\n      jump\t// in\n    tag_839:\n        /* \"#utility.yul\":22206:22345   */\n      swap1\n      pop\n        /* \"#utility.yul\":21933:22352   */\n      swap2\n      swap1\n      pop\n      jump\t// out\n        /* \"#utility.yul\":22358:22777   */\n    tag_539:\n        /* \"#utility.yul\":22524:22528   */\n      0x00\n        /* \"#utility.yul\":22562:22564   */\n      0x20\n        /* \"#utility.yul\":22551:22560   */\n      dup3\n        /* \"#utility.yul\":22547:22565   */\n      add\n        /* \"#utility.yul\":22539:22565   */\n      swap1\n      pop\n        /* \"#utility.yul\":22611:22620   */\n      dup2\n        /* \"#utility.yul\":22605:22609   */\n      dup2\n        /* \"#utility.yul\":22601:22621   */\n      sub\n        /* \"#utility.yul\":22597:22598   */\n      0x00\n        /* \"#utility.yul\":22586:22595   */\n      dup4\n        /* \"#utility.yul\":22582:22599   */\n      add\n        /* \"#utility.yul\":22575:22622   */\n      mstore\n        /* \"#utility.yul\":22639:22770   */\n      tag_841\n        /* \"#utility.yul\":22765:22769   */\n      dup2\n        /* \"#utility.yul\":22639:22770   */\n      tag_772\n      jump\t// in\n    tag_841:\n        /* \"#utility.yul\":22631:22770   */\n      swap1\n      pop\n        /* \"#utility.yul\":22358:22777   */\n      swap2\n      swap1\n      pop\n      jump\t// out\n        /* \"#utility.yul\":22783:23202   */\n    tag_318:\n        /* \"#utility.yul\":22949:22953   */\n      0x00\n        /* \"#utility.yul\":22987:22989   */\n      0x20\n        /* \"#utility.yul\":22976:22985   */\n      dup3\n        /* \"#utility.yul\":22972:22990   */\n      add\n        /* \"#utility.yul\":22964:22990   */\n      swap1\n      pop\n        /* \"#utility.yul\":23036:23045   */\n      dup2\n        /* \"#utility.yul\":23030:23034   */\n      dup2\n        /* \"#utility.yul\":23026:23046   */\n      sub\n        /* \"#utility.yul\":23022:23023   */\n      0x00\n        /* \"#utility.yul\":23011:23020   */\n      dup4\n        /* \"#utility.yul\":23007:23024   */\n      add\n        /* \"#utility.yul\":23000:23047   */\n      mstore\n        /* \"#utility.yul\":23064:23195   */\n      tag_843\n        /* \"#utility.yul\":23190:23194   */\n      dup2\n        /* \"#utility.yul\":23064:23195   */\n      tag_777\n      jump\t// in\n    tag_843:\n        /* \"#utility.yul\":23056:23195   */\n      swap1\n      pop\n        /* \"#utility.yul\":22783:23202   */\n      swap2\n      swap1\n      pop\n      jump\t// out\n        /* \"#utility.yul\":23208:23430   */\n    tag_50:\n        /* \"#utility.yul\":23301:23305   */\n      0x00\n        /* \"#utility.yul\":23339:23341   */\n      0x20\n        /* \"#utility.yul\":23328:23337   */\n      dup3\n        /* \"#utility.yul\":23324:23342   */\n      add\n        /* \"#utility.yul\":23316:23342   */\n      swap1\n      pop\n        /* \"#utility.yul\":23352:23423   */\n      tag_845\n        /* \"#utility.yul\":23420:23421   */\n      0x00\n        /* \"#utility.yul\":23409:23418   */\n      dup4\n        /* \"#utility.yul\":23405:23422   */\n      add\n        /* \"#utility.yul\":23396:23402   */\n      dup5\n        /* \"#utility.yul\":23352:23423   */\n      tag_782\n      jump\t// in\n    tag_845:\n        /* \"#utility.yul\":23208:23430   */\n      swap3\n      swap2\n      pop\n      pop\n      jump\t// out\n        /* \"#utility.yul\":23436:23768   */\n    tag_153:\n        /* \"#utility.yul\":23557:23561   */\n      0x00\n        /* \"#utility.yul\":23595:23597   */\n      0x40\n        /* \"#utility.yul\":23584:23593   */\n      dup3\n        /* \"#utility.yul\":23580:23598   */\n      add\n        /* \"#utility.yul\":23572:23598   */\n      swap1\n      pop\n        /* \"#utility.yul\":23608:23679   */\n      tag_847\n        /* \"#utility.yul\":23676:23677   */\n      0x00\n        /* \"#utility.yul\":23665:23674   */\n      dup4\n        /* \"#utility.yul\":23661:23678   */\n      add\n        /* \"#utility.yul\":23652:23658   */\n      dup6\n        /* \"#utility.yul\":23608:23679   */\n      tag_782\n      jump\t// in\n    tag_847:\n        /* \"#utility.yul\":23689:23761   */\n      tag_848\n        /* \"#utility.yul\":23757:23759   */\n      0x20\n        /* \"#utility.yul\":23746:23755   */\n      dup4\n        /* \"#utility.yul\":23742:23760   */\n      add\n        /* \"#utility.yul\":23733:23739   */\n      dup5\n        /* \"#utility.yul\":23689:23761   */\n      tag_782\n      jump\t// in\n    tag_848:\n        /* \"#utility.yul\":23436:23768   */\n      swap4\n      swap3\n      pop\n      pop\n      pop\n      jump\t// out\n        /* \"#utility.yul\":23855:23953   */\n    tag_681:\n        /* \"#utility.yul\":23906:23912   */\n      0x00\n        /* \"#utility.yul\":23940:23945   */\n      dup2\n        /* \"#utility.yul\":23934:23946   */\n      mload\n        /* \"#utility.yul\":23924:23946   */\n      swap1\n      pop\n        /* \"#utility.yul\":23855:23953   */\n      swap2\n      swap1\n      pop\n      jump\t// out\n        /* \"#utility.yul\":23959:24058   */\n    tag_701:\n        /* \"#utility.yul\":24011:24017   */\n      0x00\n        /* \"#utility.yul\":24045:24050   */\n      dup2\n        /* \"#utility.yul\":24039:24051   */\n      mload\n        /* \"#utility.yul\":24029:24051   */\n      swap1\n      pop\n        /* \"#utility.yul\":23959:24058   */\n      swap2\n      swap1\n      pop\n      jump\t// out\n        /* \"#utility.yul\":24064:24211   */\n    tag_683:\n        /* \"#utility.yul\":24165:24176   */\n      0x00\n        /* \"#utility.yul\":24202:24205   */\n      dup2\n        /* \"#utility.yul\":24187:24205   */\n      swap1\n      pop\n        /* \"#utility.yul\":24064:24211   */\n      swap3\n      swap2\n      pop\n      pop\n      jump\t// out\n        /* \"#utility.yul\":24217:24386   */\n    tag_703:\n        /* \"#utility.yul\":24301:24312   */\n      0x00\n        /* \"#utility.yul\":24335:24341   */\n      dup3\n        /* \"#utility.yul\":24330:24333   */\n      dup3\n        /* \"#utility.yul\":24323:24342   */\n      mstore\n        /* \"#utility.yul\":24375:24379   */\n      0x20\n        /* \"#utility.yul\":24370:24373   */\n      dup3\n        /* \"#utility.yul\":24366:24380   */\n      add\n        /* \"#utility.yul\":24351:24380   */\n      swap1\n      pop\n        /* \"#utility.yul\":24217:24386   */\n      swap3\n      swap2\n      pop\n      pop\n      jump\t// out\n        /* \"#utility.yul\":24392:24697   */\n    tag_516:\n        /* \"#utility.yul\":24432:24435   */\n      0x00\n        /* \"#utility.yul\":24451:24471   */\n      tag_856\n        /* \"#utility.yul\":24469:24470   */\n      dup3\n        /* \"#utility.yul\":24451:24471   */\n      tag_785\n      jump\t// in\n    tag_856:\n        /* \"#utility.yul\":24446:24471   */\n      swap2\n      pop\n        /* \"#utility.yul\":24485:24505   */\n      tag_857\n        /* \"#utility.yul\":24503:24504   */\n      dup4\n        /* \"#utility.yul\":24485:24505   */\n      tag_785\n      jump\t// in\n    tag_857:\n        /* \"#utility.yul\":24480:24505   */\n      swap3\n      pop\n        /* \"#utility.yul\":24639:24640   */\n      dup3\n        /* \"#utility.yul\":24571:24637   */\n      0xffffffffffffffffffffffffffffffffffffffffffffffffffffffffffffffff\n        /* \"#utility.yul\":24567:24641   */\n      sub\n        /* \"#utility.yul\":24564:24565   */\n      dup3\n        /* \"#utility.yul\":24561:24642   */\n      gt\n        /* \"#utility.yul\":24558:24665   */\n      iszero\n      tag_858\n      jumpi\n        /* \"#utility.yul\":24645:24663   */\n      tag_859\n      tag_860\n      jump\t// in\n    tag_859:\n        /* \"#utility.yul\":24558:24665   */\n    tag_858:\n        /* \"#utility.yul\":24689:24690   */\n      dup3\n        /* \"#utility.yul\":24686:24687   */\n      dup3\n        /* \"#utility.yul\":24682:24691   */\n      add\n        /* \"#utility.yul\":24675:24691   */\n      swap1\n      pop\n        /* \"#utility.yul\":24392:24697   */\n      swap3\n      swap2\n      pop\n      pop\n      jump\t// out\n        /* \"#utility.yul\":24703:24888   */\n    tag_504:\n        /* \"#utility.yul\":24743:24744   */\n      0x00\n        /* \"#utility.yul\":24760:24780   */\n      tag_862\n        /* \"#utility.yul\":24778:24779   */\n      dup3\n        /* \"#utility.yul\":24760:24780   */\n      tag_785\n      jump\t// in\n    tag_862:\n        /* \"#utility.yul\":24755:24780   */\n      swap2\n      pop\n        /* \"#utility.yul\":24794:24814   */\n      tag_863\n        /* \"#utility.yul\":24812:24813   */\n      dup4\n        /* \"#utility.yul\":24794:24814   */\n      tag_785\n      jump\t// in\n    tag_863:\n        /* \"#utility.yul\":24789:24814   */\n      swap3\n      pop\n        /* \"#utility.yul\":24833:24834   */\n      dup3\n        /* \"#utility.yul\":24823:24858   */\n      tag_864\n      jumpi\n        /* \"#utility.yul\":24838:24856   */\n      tag_865\n      tag_866\n      jump\t// in\n    tag_865:\n        /* \"#utility.yul\":24823:24858   */\n    tag_864:\n        /* \"#utility.yul\":24880:24881   */\n      dup3\n        /* \"#utility.yul\":24877:24878   */\n      dup3\n        /* \"#utility.yul\":24873:24882   */\n      div\n        /* \"#utility.yul\":24868:24882   */\n      swap1\n      pop\n        /* \"#utility.yul\":24703:24888   */\n      swap3\n      swap2\n      pop\n      pop\n      jump\t// out\n        /* \"#utility.yul\":24894:25242   */\n    tag_502:\n        /* \"#utility.yul\":24934:24941   */\n      0x00\n        /* \"#utility.yul\":24957:24977   */\n      tag_868\n        /* \"#utility.yul\":24975:24976   */\n      dup3\n        /* \"#utility.yul\":24957:24977   */\n      tag_785\n      jump\t// in\n    tag_868:\n        /* \"#utility.yul\":24952:24977   */\n      swap2\n      pop\n        /* \"#utility.yul\":24991:25011   */\n      tag_869\n        /* \"#utility.yul\":25009:25010   */\n      dup4\n        /* \"#utility.yul\":24991:25011   */\n      tag_785\n      jump\t// in\n    tag_869:\n        /* \"#utility.yul\":24986:25011   */\n      swap3\n      pop\n        /* \"#utility.yul\":25179:25180   */\n      dup2\n        /* \"#utility.yul\":25111:25177   */\n      0xffffffffffffffffffffffffffffffffffffffffffffffffffffffffffffffff\n        /* \"#utility.yul\":25107:25181   */\n      div\n        /* \"#utility.yul\":25104:25105   */\n      dup4\n        /* \"#utility.yul\":25101:25182   */\n      gt\n        /* \"#utility.yul\":25096:25097   */\n      dup3\n        /* \"#utility.yul\":25089:25098   */\n      iszero\n        /* \"#utility.yul\":25082:25099   */\n      iszero\n        /* \"#utility.yul\":25078:25183   */\n      and\n        /* \"#utility.yul\":25075:25206   */\n      iszero\n      tag_870\n      jumpi\n        /* \"#utility.yul\":25186:25204   */\n      tag_871\n      tag_860\n      jump\t// in\n    tag_871:\n        /* \"#utility.yul\":25075:25206   */\n    tag_870:\n        /* \"#utility.yul\":25234:25235   */\n      dup3\n        /* \"#utility.yul\":25231:25232   */\n      dup3\n        /* \"#utility.yul\":25227:25236   */\n      mul\n        /* \"#utility.yul\":25216:25236   */\n      swap1\n      pop\n        /* \"#utility.yul\":24894:25242   */\n      swap3\n      swap2\n      pop\n      pop\n      jump\t// out\n        /* \"#utility.yul\":25248:25439   */\n    tag_552:\n        /* \"#utility.yul\":25288:25292   */\n      0x00\n        /* \"#utility.yul\":25308:25328   */\n      tag_873\n        /* \"#utility.yul\":25326:25327   */\n      dup3\n        /* \"#utility.yul\":25308:25328   */\n      tag_785\n      jump\t// in\n    tag_873:\n        /* \"#utility.yul\":25303:25328   */\n      swap2\n      pop\n        /* \"#utility.yul\":25342:25362   */\n      tag_874\n        /* \"#utility.yul\":25360:25361   */\n      dup4\n        /* \"#utility.yul\":25342:25362   */\n      tag_785\n      jump\t// in\n    tag_874:\n        /* \"#utility.yul\":25337:25362   */\n      swap3\n      pop\n        /* \"#utility.yul\":25381:25382   */\n      dup3\n        /* \"#utility.yul\":25378:25379   */\n      dup3\n        /* \"#utility.yul\":25375:25383   */\n      lt\n        /* \"#utility.yul\":25372:25406   */\n      iszero\n      tag_875\n      jumpi\n        /* \"#utility.yul\":25386:25404   */\n      tag_876\n      tag_860\n      jump\t// in\n    tag_876:\n        /* \"#utility.yul\":25372:25406   */\n    tag_875:\n        /* \"#utility.yul\":25431:25432   */\n      dup3\n        /* \"#utility.yul\":25428:25429   */\n      dup3\n        /* \"#utility.yul\":25424:25433   */\n      sub\n        /* \"#utility.yul\":25416:25433   */\n      swap1\n      pop\n        /* \"#utility.yul\":25248:25439   */\n      swap3\n      swap2\n      pop\n      pop\n      jump\t// out\n        /* \"#utility.yul\":25445:25541   */\n    tag_677:\n        /* \"#utility.yul\":25482:25489   */\n      0x00\n        /* \"#utility.yul\":25511:25535   */\n      tag_878\n        /* \"#utility.yul\":25529:25534   */\n      dup3\n        /* \"#utility.yul\":25511:25535   */\n      tag_879\n      jump\t// in\n    tag_878:\n        /* \"#utility.yul\":25500:25535   */\n      swap1\n      pop\n        /* \"#utility.yul\":25445:25541   */\n      swap2\n      swap1\n      pop\n      jump\t// out\n        /* \"#utility.yul\":25547:25637   */\n    tag_880:\n        /* \"#utility.yul\":25581:25588   */\n      0x00\n        /* \"#utility.yul\":25624:25629   */\n      dup2\n        /* \"#utility.yul\":25617:25630   */\n      iszero\n        /* \"#utility.yul\":25610:25631   */\n      iszero\n        /* \"#utility.yul\":25599:25631   */\n      swap1\n      pop\n        /* \"#utility.yul\":25547:25637   */\n      swap2\n      swap1\n      pop\n      jump\t// out\n        /* \"#utility.yul\":25643:25753   */\n    tag_882:\n        /* \"#utility.yul\":25694:25701   */\n      0x00\n        /* \"#utility.yul\":25723:25747   */\n      tag_884\n        /* \"#utility.yul\":25741:25746   */\n      dup3\n        /* \"#utility.yul\":25723:25747   */\n      tag_677\n      jump\t// in\n    tag_884:\n        /* \"#utility.yul\":25712:25747   */\n      swap1\n      pop\n        /* \"#utility.yul\":25643:25753   */\n      swap2\n      swap1\n      pop\n      jump\t// out\n        /* \"#utility.yul\":25759:25870   */\n    tag_885:\n        /* \"#utility.yul\":25811:25818   */\n      0x00\n        /* \"#utility.yul\":25840:25864   */\n      tag_887\n        /* \"#utility.yul\":25858:25863   */\n      dup3\n        /* \"#utility.yul\":25840:25864   */\n      tag_677\n      jump\t// in\n    tag_887:\n        /* \"#utility.yul\":25829:25864   */\n      swap1\n      pop\n        /* \"#utility.yul\":25759:25870   */\n      swap2\n      swap1\n      pop\n      jump\t// out\n        /* \"#utility.yul\":25876:25993   */\n    tag_888:\n        /* \"#utility.yul\":25934:25941   */\n      0x00\n        /* \"#utility.yul\":25963:25987   */\n      tag_890\n        /* \"#utility.yul\":25981:25986   */\n      dup3\n        /* \"#utility.yul\":25963:25987   */\n      tag_677\n      jump\t// in\n    tag_890:\n        /* \"#utility.yul\":25952:25987   */\n      swap1\n      pop\n        /* \"#utility.yul\":25876:25993   */\n      swap2\n      swap1\n      pop\n      jump\t// out\n        /* \"#utility.yul\":25999:26125   */\n    tag_879:\n        /* \"#utility.yul\":26036:26043   */\n      0x00\n        /* \"#utility.yul\":26076:26118   */\n      0xffffffffffffffffffffffffffffffffffffffff\n        /* \"#utility.yul\":26069:26074   */\n      dup3\n        /* \"#utility.yul\":26065:26119   */\n      and\n        /* \"#utility.yul\":26054:26119   */\n      swap1\n      pop\n        /* \"#utility.yul\":25999:26125   */\n      swap2\n      swap1\n      pop\n      jump\t// out\n        /* \"#utility.yul\":26131:26208   */\n    tag_785:\n        /* \"#utility.yul\":26168:26175   */\n      0x00\n        /* \"#utility.yul\":26197:26202   */\n      dup2\n        /* \"#utility.yul\":26186:26202   */\n      swap1\n      pop\n        /* \"#utility.yul\":26131:26208   */\n      swap2\n      swap1\n      pop\n      jump\t// out\n        /* \"#utility.yul\":26214:26354   */\n    tag_689:\n        /* \"#utility.yul\":26278:26287   */\n      0x00\n        /* \"#utility.yul\":26311:26348   */\n      tag_894\n        /* \"#utility.yul\":26342:26347   */\n      dup3\n        /* \"#utility.yul\":26311:26348   */\n      tag_895\n      jump\t// in\n    tag_894:\n        /* \"#utility.yul\":26298:26348   */\n      swap1\n      pop\n        /* \"#utility.yul\":26214:26354   */\n      swap2\n      swap1\n      pop\n      jump\t// out\n        /* \"#utility.yul\":26360:26501   */\n    tag_693:\n        /* \"#utility.yul\":26425:26434   */\n      0x00\n        /* \"#utility.yul\":26458:26495   */\n      tag_897\n        /* \"#utility.yul\":26489:26494   */\n      dup3\n        /* \"#utility.yul\":26458:26495   */\n      tag_895\n      jump\t// in\n    tag_897:\n        /* \"#utility.yul\":26445:26495   */\n      swap1\n      pop\n        /* \"#utility.yul\":26360:26501   */\n      swap2\n      swap1\n      pop\n      jump\t// out\n        /* \"#utility.yul\":26507:26654   */\n    tag_697:\n        /* \"#utility.yul\":26578:26587   */\n      0x00\n        /* \"#utility.yul\":26611:26648   */\n      tag_899\n        /* \"#utility.yul\":26642:26647   */\n      dup3\n        /* \"#utility.yul\":26611:26648   */\n      tag_895\n      jump\t// in\n    tag_899:\n        /* \"#utility.yul\":26598:26648   */\n      swap1\n      pop\n        /* \"#utility.yul\":26507:26654   */\n      swap2\n      swap1\n      pop\n      jump\t// out\n        /* \"#utility.yul\":26660:26786   */\n    tag_895:\n        /* \"#utility.yul\":26710:26719   */\n      0x00\n        /* \"#utility.yul\":26743:26780   */\n      tag_901\n        /* \"#utility.yul\":26774:26779   */\n      dup3\n        /* \"#utility.yul\":26743:26780   */\n      tag_902\n      jump\t// in\n    tag_901:\n        /* \"#utility.yul\":26730:26780   */\n      swap1\n      pop\n        /* \"#utility.yul\":26660:26786   */\n      swap2\n      swap1\n      pop\n      jump\t// out\n        /* \"#utility.yul\":26792:26905   */\n    tag_902:\n        /* \"#utility.yul\":26842:26851   */\n      0x00\n        /* \"#utility.yul\":26875:26899   */\n      tag_904\n        /* \"#utility.yul\":26893:26898   */\n      dup3\n        /* \"#utility.yul\":26875:26899   */\n      tag_879\n      jump\t// in\n    tag_904:\n        /* \"#utility.yul\":26862:26899   */\n      swap1\n      pop\n        /* \"#utility.yul\":26792:26905   */\n      swap2\n      swap1\n      pop\n      jump\t// out\n        /* \"#utility.yul\":26911:27218   */\n    tag_685:\n        /* \"#utility.yul\":26979:26980   */\n      0x00\n        /* \"#utility.yul\":26989:27102   */\n    tag_906:\n        /* \"#utility.yul\":27003:27009   */\n      dup4\n        /* \"#utility.yul\":27000:27001   */\n      dup2\n        /* \"#utility.yul\":26997:27010   */\n      lt\n        /* \"#utility.yul\":26989:27102   */\n      iszero\n      tag_908\n      jumpi\n        /* \"#utility.yul\":27088:27089   */\n      dup1\n        /* \"#utility.yul\":27083:27086   */\n      dup3\n        /* \"#utility.yul\":27079:27090   */\n      add\n        /* \"#utility.yul\":27073:27091   */\n      mload\n        /* \"#utility.yul\":27069:27070   */\n      dup2\n        /* \"#utility.yul\":27064:27067   */\n      dup5\n        /* \"#utility.yul\":27060:27071   */\n      add\n        /* \"#utility.yul\":27053:27092   */\n      mstore\n        /* \"#utility.yul\":27025:27027   */\n      0x20\n        /* \"#utility.yul\":27022:27023   */\n      dup2\n        /* \"#utility.yul\":27018:27028   */\n      add\n        /* \"#utility.yul\":27013:27028   */\n      swap1\n      pop\n        /* \"#utility.yul\":26989:27102   */\n      jump(tag_906)\n    tag_908:\n        /* \"#utility.yul\":27120:27126   */\n      dup4\n        /* \"#utility.yul\":27117:27118   */\n      dup2\n        /* \"#utility.yul\":27114:27127   */\n      gt\n        /* \"#utility.yul\":27111:27212   */\n      iszero\n      tag_909\n      jumpi\n        /* \"#utility.yul\":27200:27201   */\n      0x00\n        /* \"#utility.yul\":27191:27197   */\n      dup5\n        /* \"#utility.yul\":27186:27189   */\n      dup5\n        /* \"#utility.yul\":27182:27198   */\n      add\n        /* \"#utility.yul\":27175:27202   */\n      mstore\n        /* \"#utility.yul\":27111:27212   */\n    tag_909:\n        /* \"#utility.yul\":26960:27218   */\n      pop\n        /* \"#utility.yul\":26911:27218   */\n      pop\n      pop\n      pop\n      jump\t// out\n        /* \"#utility.yul\":27224:27457   */\n    tag_388:\n        /* \"#utility.yul\":27263:27266   */\n      0x00\n        /* \"#utility.yul\":27286:27310   */\n      tag_911\n        /* \"#utility.yul\":27304:27309   */\n      dup3\n        /* \"#utility.yul\":27286:27310   */\n      tag_785\n      jump\t// in\n    tag_911:\n        /* \"#utility.yul\":27277:27310   */\n      swap2\n      pop\n        /* \"#utility.yul\":27332:27398   */\n      0xffffffffffffffffffffffffffffffffffffffffffffffffffffffffffffffff\n        /* \"#utility.yul\":27325:27330   */\n      dup3\n        /* \"#utility.yul\":27322:27399   */\n      eq\n        /* \"#utility.yul\":27319:27422   */\n      iszero\n      tag_912\n      jumpi\n        /* \"#utility.yul\":27402:27420   */\n      tag_913\n      tag_860\n      jump\t// in\n    tag_913:\n        /* \"#utility.yul\":27319:27422   */\n    tag_912:\n        /* \"#utility.yul\":27449:27450   */\n      0x01\n        /* \"#utility.yul\":27442:27447   */\n      dup3\n        /* \"#utility.yul\":27438:27451   */\n      add\n        /* \"#utility.yul\":27431:27451   */\n      swap1\n      pop\n        /* \"#utility.yul\":27224:27457   */\n      swap2\n      swap1\n      pop\n      jump\t// out\n        /* \"#utility.yul\":27463:27643   */\n    tag_860:\n        /* \"#utility.yul\":27511:27588   */\n      0x4e487b7100000000000000000000000000000000000000000000000000000000\n        /* \"#utility.yul\":27508:27509   */\n      0x00\n        /* \"#utility.yul\":27501:27589   */\n      mstore\n        /* \"#utility.yul\":27608:27612   */\n      0x11\n        /* \"#utility.yul\":27605:27606   */\n      0x04\n        /* \"#utility.yul\":27598:27613   */\n      mstore\n        /* \"#utility.yul\":27632:27636   */\n      0x24\n        /* \"#utility.yul\":27629:27630   */\n      0x00\n        /* \"#utility.yul\":27622:27637   */\n      revert\n        /* \"#utility.yul\":27649:27829   */\n    tag_866:\n        /* \"#utility.yul\":27697:27774   */\n      0x4e487b7100000000000000000000000000000000000000000000000000000000\n        /* \"#utility.yul\":27694:27695   */\n      0x00\n        /* \"#utility.yul\":27687:27775   */\n      mstore\n        /* \"#utility.yul\":27794:27798   */\n      0x12\n        /* \"#utility.yul\":27791:27792   */\n      0x04\n        /* \"#utility.yul\":27784:27799   */\n      mstore\n        /* \"#utility.yul\":27818:27822   */\n      0x24\n        /* \"#utility.yul\":27815:27816   */\n      0x00\n        /* \"#utility.yul\":27808:27823   */\n      revert\n        /* \"#utility.yul\":27835:28015   */\n    tag_190:\n        /* \"#utility.yul\":27883:27960   */\n      0x4e487b7100000000000000000000000000000000000000000000000000000000\n        /* \"#utility.yul\":27880:27881   */\n      0x00\n        /* \"#utility.yul\":27873:27961   */\n      mstore\n        /* \"#utility.yul\":27980:27984   */\n      0x32\n        /* \"#utility.yul\":27977:27978   */\n      0x04\n        /* \"#utility.yul\":27970:27985   */\n      mstore\n        /* \"#utility.yul\":28004:28008   */\n      0x24\n        /* \"#utility.yul\":28001:28002   */\n      0x00\n        /* \"#utility.yul\":27994:28009   */\n      revert\n        /* \"#utility.yul\":28144:28261   */\n    tag_625:\n        /* \"#utility.yul\":28253:28254   */\n      0x00\n        /* \"#utility.yul\":28250:28251   */\n      dup1\n        /* \"#utility.yul\":28243:28255   */\n      revert\n        /* \"#utility.yul\":28267:28369   */\n    tag_706:\n        /* \"#utility.yul\":28308:28314   */\n      0x00\n        /* \"#utility.yul\":28359:28361   */\n      0x1f\n        /* \"#utility.yul\":28355:28362   */\n      not\n        /* \"#utility.yul\":28350:28352   */\n      0x1f\n        /* \"#utility.yul\":28343:28348   */\n      dup4\n        /* \"#utility.yul\":28339:28353   */\n      add\n        /* \"#utility.yul\":28335:28363   */\n      and\n        /* \"#utility.yul\":28325:28363   */\n      swap1\n      pop\n        /* \"#utility.yul\":28267:28369   */\n      swap2\n      swap1\n      pop\n      jump\t// out\n        /* \"#utility.yul\":28375:28600   */\n    tag_711:\n        /* \"#utility.yul\":28515:28549   */\n      0x4f776e61626c653a206e6577206f776e657220697320746865207a65726f2061\n        /* \"#utility.yul\":28511:28512   */\n      0x00\n        /* \"#utility.yul\":28503:28509   */\n      dup3\n        /* \"#utility.yul\":28499:28513   */\n      add\n        /* \"#utility.yul\":28492:28550   */\n      mstore\n        /* \"#utility.yul\":28584:28592   */\n      0x6464726573730000000000000000000000000000000000000000000000000000\n        /* \"#utility.yul\":28579:28581   */\n      0x20\n        /* \"#utility.yul\":28571:28577   */\n      dup3\n        /* \"#utility.yul\":28567:28582   */\n      add\n        /* \"#utility.yul\":28560:28593   */\n      mstore\n        /* \"#utility.yul\":28375:28600   */\n      pop\n      jump\t// out\n        /* \"#utility.yul\":28606:28775   */\n    tag_716:\n        /* \"#utility.yul\":28746:28767   */\n      0x506f776572206973206e6f7420656e6f75676800000000000000000000000000\n        /* \"#utility.yul\":28742:28743   */\n      0x00\n        /* \"#utility.yul\":28734:28740   */\n      dup3\n        /* \"#utility.yul\":28730:28744   */\n      add\n        /* \"#utility.yul\":28723:28768   */\n      mstore\n        /* \"#utility.yul\":28606:28775   */\n      pop\n      jump\t// out\n        /* \"#utility.yul\":28781:28958   */\n    tag_721:\n        /* \"#utility.yul\":28921:28950   */\n      0x776974686472617720506f77657220627920756e7374616b696e670000000000\n        /* \"#utility.yul\":28917:28918   */\n      0x00\n        /* \"#utility.yul\":28909:28915   */\n      dup3\n        /* \"#utility.yul\":28905:28919   */\n      add\n        /* \"#utility.yul\":28898:28951   */\n      mstore\n        /* \"#utility.yul\":28781:28958   */\n      pop\n      jump\t// out\n        /* \"#utility.yul\":28964:29141   */\n    tag_726:\n        /* \"#utility.yul\":29104:29133   */\n      0x536166654d6174683a206164646974696f6e206f766572666c6f770000000000\n        /* \"#utility.yul\":29100:29101   */\n      0x00\n        /* \"#utility.yul\":29092:29098   */\n      dup3\n        /* \"#utility.yul\":29088:29102   */\n      add\n        /* \"#utility.yul\":29081:29134   */\n      mstore\n        /* \"#utility.yul\":28964:29141   */\n      pop\n      jump\t// out\n        /* \"#utility.yul\":29147:29372   */\n    tag_731:\n        /* \"#utility.yul\":29287:29321   */\n      0x416464726573733a20696e73756666696369656e742062616c616e636520666f\n        /* \"#utility.yul\":29283:29284   */\n      0x00\n        /* \"#utility.yul\":29275:29281   */\n      dup3\n        /* \"#utility.yul\":29271:29285   */\n      add\n        /* \"#utility.yul\":29264:29322   */\n      mstore\n        /* \"#utility.yul\":29356:29364   */\n      0x722063616c6c0000000000000000000000000000000000000000000000000000\n        /* \"#utility.yul\":29351:29353   */\n      0x20\n        /* \"#utility.yul\":29343:29349   */\n      dup3\n        /* \"#utility.yul\":29339:29354   */\n      add\n        /* \"#utility.yul\":29332:29365   */\n      mstore\n        /* \"#utility.yul\":29147:29372   */\n      pop\n      jump\t// out\n        /* \"#utility.yul\":29378:29552   */\n    tag_736:\n        /* \"#utility.yul\":29518:29544   */\n      0x6465706f73697420506f776572206279207374616b696e670000000000000000\n        /* \"#utility.yul\":29514:29515   */\n      0x00\n        /* \"#utility.yul\":29506:29512   */\n      dup3\n        /* \"#utility.yul\":29502:29516   */\n      add\n        /* \"#utility.yul\":29495:29545   */\n      mstore\n        /* \"#utility.yul\":29378:29552   */\n      pop\n      jump\t// out\n        /* \"#utility.yul\":29558:29778   */\n    tag_741:\n        /* \"#utility.yul\":29698:29732   */\n      0x536166654d6174683a206d756c7469706c69636174696f6e206f766572666c6f\n        /* \"#utility.yul\":29694:29695   */\n      0x00\n        /* \"#utility.yul\":29686:29692   */\n      dup3\n        /* \"#utility.yul\":29682:29696   */\n      add\n        /* \"#utility.yul\":29675:29733   */\n      mstore\n        /* \"#utility.yul\":29767:29770   */\n      0x7700000000000000000000000000000000000000000000000000000000000000\n        /* \"#utility.yul\":29762:29764   */\n      0x20\n        /* \"#utility.yul\":29754:29760   */\n      dup3\n        /* \"#utility.yul\":29750:29765   */\n      add\n        /* \"#utility.yul\":29743:29771   */\n      mstore\n        /* \"#utility.yul\":29558:29778   */\n      pop\n      jump\t// out\n        /* \"#utility.yul\":29784:29966   */\n    tag_746:\n        /* \"#utility.yul\":29924:29958   */\n      0x4f776e61626c653a2063616c6c6572206973206e6f7420746865206f776e6572\n        /* \"#utility.yul\":29920:29921   */\n      0x00\n        /* \"#utility.yul\":29912:29918   */\n      dup3\n        /* \"#utility.yul\":29908:29922   */\n      add\n        /* \"#utility.yul\":29901:29959   */\n      mstore\n        /* \"#utility.yul\":29784:29966   */\n      pop\n      jump\t// out\n        /* \"#utility.yul\":29972:30142   */\n    tag_751:\n        /* \"#utility.yul\":30112:30134   */\n      0x43616c6c6572206973206e6f742066616d696c79000000000000000000000000\n        /* \"#utility.yul\":30108:30109   */\n      0x00\n        /* \"#utility.yul\":30100:30106   */\n      dup3\n        /* \"#utility.yul\":30096:30110   */\n      add\n        /* \"#utility.yul\":30089:30135   */\n      mstore\n        /* \"#utility.yul\":29972:30142   */\n      pop\n      jump\t// out\n        /* \"#utility.yul\":30148:30327   */\n    tag_756:\n        /* \"#utility.yul\":30288:30319   */\n      0x416464726573733a2063616c6c20746f206e6f6e2d636f6e7472616374000000\n        /* \"#utility.yul\":30284:30285   */\n      0x00\n        /* \"#utility.yul\":30276:30282   */\n      dup3\n        /* \"#utility.yul\":30272:30286   */\n      add\n        /* \"#utility.yul\":30265:30320   */\n      mstore\n        /* \"#utility.yul\":30148:30327   */\n      pop\n      jump\t// out\n        /* \"#utility.yul\":30333:30501   */\n    tag_761:\n        /* \"#utility.yul\":30473:30493   */\n      0x77697468647261773a206e6f7420676f6f640000000000000000000000000000\n        /* \"#utility.yul\":30469:30470   */\n      0x00\n        /* \"#utility.yul\":30461:30467   */\n      dup3\n        /* \"#utility.yul\":30457:30471   */\n      add\n        /* \"#utility.yul\":30450:30494   */\n      mstore\n        /* \"#utility.yul\":30333:30501   */\n      pop\n      jump\t// out\n        /* \"#utility.yul\":30507:30736   */\n    tag_766:\n        /* \"#utility.yul\":30647:30681   */\n      0x5361666545524332303a204552433230206f7065726174696f6e20646964206e\n        /* \"#utility.yul\":30643:30644   */\n      0x00\n        /* \"#utility.yul\":30635:30641   */\n      dup3\n        /* \"#utility.yul\":30631:30645   */\n      add\n        /* \"#utility.yul\":30624:30682   */\n      mstore\n        /* \"#utility.yul\":30716:30728   */\n      0x6f74207375636365656400000000000000000000000000000000000000000000\n        /* \"#utility.yul\":30711:30713   */\n      0x20\n        /* \"#utility.yul\":30703:30709   */\n      dup3\n        /* \"#utility.yul\":30699:30714   */\n      add\n        /* \"#utility.yul\":30692:30729   */\n      mstore\n        /* \"#utility.yul\":30507:30736   */\n      pop\n      jump\t// out\n        /* \"#utility.yul\":30742:30904   */\n    tag_771:\n        /* \"#utility.yul\":30882:30896   */\n      0x6d6967726174653a206261640000000000000000000000000000000000000000\n        /* \"#utility.yul\":30878:30879   */\n      0x00\n        /* \"#utility.yul\":30870:30876   */\n      dup3\n        /* \"#utility.yul\":30866:30880   */\n      add\n        /* \"#utility.yul\":30859:30897   */\n      mstore\n        /* \"#utility.yul\":30742:30904   */\n      pop\n      jump\t// out\n        /* \"#utility.yul\":30910:31151   */\n    tag_776:\n        /* \"#utility.yul\":31050:31084   */\n      0x5361666545524332303a20617070726f76652066726f6d206e6f6e2d7a65726f\n        /* \"#utility.yul\":31046:31047   */\n      0x00\n        /* \"#utility.yul\":31038:31044   */\n      dup3\n        /* \"#utility.yul\":31034:31048   */\n      add\n        /* \"#utility.yul\":31027:31085   */\n      mstore\n        /* \"#utility.yul\":31119:31143   */\n      0x20746f206e6f6e2d7a65726f20616c6c6f77616e636500000000000000000000\n        /* \"#utility.yul\":31114:31116   */\n      0x20\n        /* \"#utility.yul\":31106:31112   */\n      dup3\n        /* \"#utility.yul\":31102:31117   */\n      add\n        /* \"#utility.yul\":31095:31144   */\n      mstore\n        /* \"#utility.yul\":30910:31151   */\n      pop\n      jump\t// out\n        /* \"#utility.yul\":31157:31327   */\n    tag_781:\n        /* \"#utility.yul\":31297:31319   */\n      0x6d6967726174653a206e6f206d69677261746f72000000000000000000000000\n        /* \"#utility.yul\":31293:31294   */\n      0x00\n        /* \"#utility.yul\":31285:31291   */\n      dup3\n        /* \"#utility.yul\":31281:31295   */\n      add\n        /* \"#utility.yul\":31274:31320   */\n      mstore\n        /* \"#utility.yul\":31157:31327   */\n      pop\n      jump\t// out\n        /* \"#utility.yul\":31333:31455   */\n    tag_592:\n        /* \"#utility.yul\":31406:31430   */\n      tag_937\n        /* \"#utility.yul\":31424:31429   */\n      dup2\n        /* \"#utility.yul\":31406:31430   */\n      tag_677\n      jump\t// in\n    tag_937:\n        /* \"#utility.yul\":31399:31404   */\n      dup2\n        /* \"#utility.yul\":31396:31431   */\n      eq\n        /* \"#utility.yul\":31386:31449   */\n      tag_938\n      jumpi\n        /* \"#utility.yul\":31445:31446   */\n      0x00\n        /* \"#utility.yul\":31442:31443   */\n      dup1\n        /* \"#utility.yul\":31435:31447   */\n      revert\n        /* \"#utility.yul\":31386:31449   */\n    tag_938:\n        /* \"#utility.yul\":31333:31455   */\n      pop\n      jump\t// out\n        /* \"#utility.yul\":31461:31577   */\n    tag_596:\n        /* \"#utility.yul\":31531:31552   */\n      tag_940\n        /* \"#utility.yul\":31546:31551   */\n      dup2\n        /* \"#utility.yul\":31531:31552   */\n      tag_880\n      jump\t// in\n    tag_940:\n        /* \"#utility.yul\":31524:31529   */\n      dup2\n        /* \"#utility.yul\":31521:31553   */\n      eq\n        /* \"#utility.yul\":31511:31571   */\n      tag_941\n      jumpi\n        /* \"#utility.yul\":31567:31568   */\n      0x00\n        /* \"#utility.yul\":31564:31565   */\n      dup1\n        /* \"#utility.yul\":31557:31569   */\n      revert\n        /* \"#utility.yul\":31511:31571   */\n    tag_941:\n        /* \"#utility.yul\":31461:31577   */\n      pop\n      jump\t// out\n        /* \"#utility.yul\":31583:31733   */\n    tag_603:\n        /* \"#utility.yul\":31670:31708   */\n      tag_943\n        /* \"#utility.yul\":31702:31707   */\n      dup2\n        /* \"#utility.yul\":31670:31708   */\n      tag_882\n      jump\t// in\n    tag_943:\n        /* \"#utility.yul\":31663:31668   */\n      dup2\n        /* \"#utility.yul\":31660:31709   */\n      eq\n        /* \"#utility.yul\":31650:31727   */\n      tag_944\n      jumpi\n        /* \"#utility.yul\":31723:31724   */\n      0x00\n        /* \"#utility.yul\":31720:31721   */\n      dup1\n        /* \"#utility.yul\":31713:31725   */\n      revert\n        /* \"#utility.yul\":31650:31727   */\n    tag_944:\n        /* \"#utility.yul\":31583:31733   */\n      pop\n      jump\t// out\n        /* \"#utility.yul\":31739:31891   */\n    tag_610:\n        /* \"#utility.yul\":31827:31866   */\n      tag_946\n        /* \"#utility.yul\":31860:31865   */\n      dup2\n        /* \"#utility.yul\":31827:31866   */\n      tag_885\n      jump\t// in\n    tag_946:\n        /* \"#utility.yul\":31820:31825   */\n      dup2\n        /* \"#utility.yul\":31817:31867   */\n      eq\n        /* \"#utility.yul\":31807:31885   */\n      tag_947\n      jumpi\n        /* \"#utility.yul\":31881:31882   */\n      0x00\n        /* \"#utility.yul\":31878:31879   */\n      dup1\n        /* \"#utility.yul\":31871:31883   */\n      revert\n        /* \"#utility.yul\":31807:31885   */\n    tag_947:\n        /* \"#utility.yul\":31739:31891   */\n      pop\n      jump\t// out\n        /* \"#utility.yul\":31897:32061   */\n    tag_614:\n        /* \"#utility.yul\":31991:32036   */\n      tag_949\n        /* \"#utility.yul\":32030:32035   */\n      dup2\n        /* \"#utility.yul\":31991:32036   */\n      tag_888\n      jump\t// in\n    tag_949:\n        /* \"#utility.yul\":31984:31989   */\n      dup2\n        /* \"#utility.yul\":31981:32037   */\n      eq\n        /* \"#utility.yul\":31971:32055   */\n      tag_950\n      jumpi\n        /* \"#utility.yul\":32051:32052   */\n      0x00\n        /* \"#utility.yul\":32048:32049   */\n      dup1\n        /* \"#utility.yul\":32041:32053   */\n      revert\n        /* \"#utility.yul\":31971:32055   */\n    tag_950:\n        /* \"#utility.yul\":31897:32061   */\n      pop\n      jump\t// out\n        /* \"#utility.yul\":32067:32189   */\n    tag_618:\n        /* \"#utility.yul\":32140:32164   */\n      tag_952\n        /* \"#utility.yul\":32158:32163   */\n      dup2\n        /* \"#utility.yul\":32140:32164   */\n      tag_785\n      jump\t// in\n    tag_952:\n        /* \"#utility.yul\":32133:32138   */\n      dup2\n        /* \"#utility.yul\":32130:32165   */\n      eq\n        /* \"#utility.yul\":32120:32183   */\n      tag_953\n      jumpi\n        /* \"#utility.yul\":32179:32180   */\n      0x00\n        /* \"#utility.yul\":32176:32177   */\n      dup1\n        /* \"#utility.yul\":32169:32181   */\n      revert\n        /* \"#utility.yul\":32120:32183   */\n    tag_953:\n        /* \"#utility.yul\":32067:32189   */\n      pop\n      jump\t// out\n\n    auxdata: 0xa26469706673582212206b52a6c08afcefd74110e5339af0d515af0bfd2ad19efbf69ced67c240f8f50964736f6c63430008070033\n}\n",
				"bytecode": {
					"linkReferences": {},
					"object": "6080604052600160045560006008553480156200001b57600080fd5b506040516200495b3803806200495b8339818101604052810190620000419190620002ac565b6200006162000055620001b260201b60201c565b620001ba60201b60201c565b82600260006101000a81548173ffffffffffffffffffffffffffffffffffffffff021916908373ffffffffffffffffffffffffffffffffffffffff160217905550816003819055508060098190555060066040518060800160405280600260009054906101000a900473ffffffffffffffffffffffffffffffffffffffff1673ffffffffffffffffffffffffffffffffffffffff1681526020016103e8815260200160095481526020016000815250908060018154018082558091505060019003906000526020600020906004020160009091909190915060008201518160000160006101000a81548173ffffffffffffffffffffffffffffffffffffffff021916908373ffffffffffffffffffffffffffffffffffffffff16021790555060208201518160010155604082015181600201556060820151816003015550506103e860088190555050505062000393565b600033905090565b60008060009054906101000a900473ffffffffffffffffffffffffffffffffffffffff169050816000806101000a81548173ffffffffffffffffffffffffffffffffffffffff021916908373ffffffffffffffffffffffffffffffffffffffff1602179055508173ffffffffffffffffffffffffffffffffffffffff168173ffffffffffffffffffffffffffffffffffffffff167f8be0079c531659141344cd1fd0a4f28419497f9722a3daafe3b4186f6b6457e060405160405180910390a35050565b6000815190506200028f816200035f565b92915050565b600081519050620002a68162000379565b92915050565b600080600060608486031215620002c857620002c76200035a565b5b6000620002d8868287016200027e565b9350506020620002eb8682870162000295565b9250506040620002fe8682870162000295565b9150509250925092565b6000620003158262000330565b9050919050565b6000620003298262000308565b9050919050565b600073ffffffffffffffffffffffffffffffffffffffff82169050919050565b6000819050919050565b600080fd5b6200036a816200031c565b81146200037657600080fd5b50565b620003848162000350565b81146200039057600080fd5b50565b6145b880620003a36000396000f3fe608060405234801561001057600080fd5b50600436106102275760003560e01c806361c1b724116101305780638da5cb5b116100b8578063cf35fddf1161007c578063cf35fddf14610605578063d209db8c14610621578063e2bbb15814610651578063f2fde38b1461066d578063f3239ab51461068957610227565b80638da5cb5b1461054c5780638dbb1e3a1461056a57806393f1a40b1461059a578063c11490cc146105cb578063cb3cba55146105e757610227565b806371916982116100ff57806371916982146104a45780637cd07e47146104c257806383e32135146104e05780638aa28550146104fe5780638c51793b1461051c57610227565b806361c1b72414610443578063630b5ba11461047457806364482f791461047e578063715018a61461049a57610227565b806341441d3b116101b35780634ea2813c116101825780634ea2813c146103b557806351eb05a6146103d15780635312ea8e146103ed5780635990c569146104095780635ffe61461461042757610227565b806341441d3b14610343578063441a3e701461035f578063454b06081461037b57806348cd4cb11461039757610227565b806317caf6f1116101fa57806317caf6f1146102b55780631d5fbd87146102d35780631eaaa045146102ef57806323cf31181461030b5780633df7aff31461032757610227565b8063081e3eda1461022c5780630ba33a581461024a5780631058d281146102665780631526fe2714610282575b600080fd5b6102346106b9565b6040516102419190613e51565b60405180910390f35b610264600480360381019061025f91906135ba565b6106c6565b005b610280600480360381019061027b91906136ae565b610786565b005b61029c600480360381019061029791906136ae565b610a45565b6040516102ac9493929190613bc6565b60405180910390f35b6102bd610aa5565b6040516102ca9190613e51565b60405180910390f35b6102ed60048036038101906102e8919061379b565b610aab565b005b61030960048036038101906103049190613748565b610f3f565b005b61032560048036038101906103209190613681565b6110cc565b005b610341600480360381019061033c91906136ae565b61118c565b005b61035d600480360381019061035891906136ae565b611212565b005b6103796004803603810190610374919061379b565b61149a565b005b610395600480360381019061039091906136ae565b611791565b005b61039f611b11565b6040516103ac9190613e51565b60405180910390f35b6103cf60048036038101906103ca9190613641565b611b17565b005b6103eb60048036038101906103e691906136ae565b611c40565b005b610407600480360381019061040291906136ae565b611dee565b005b610411611f27565b60405161041e9190613e51565b60405180910390f35b610441600480360381019061043c91906136ae565b611f2d565b005b61045d600480360381019061045891906136ae565b611fb3565b60405161046b929190613c0b565b60405180910390f35b61047c612007565b005b610498600480360381019061049391906137db565b61203a565b005b6104a2612146565b005b6104ac6121ce565b6040516104b99190613b07565b60405180910390f35b6104ca6121f4565b6040516104d79190613c34565b60405180910390f35b6104e861221a565b6040516104f59190613b07565b60405180910390f35b610506612240565b6040516105139190613e51565b60405180910390f35b610536600480360381019061053191906135ba565b612246565b6040516105439190613e51565b60405180910390f35b61055461228f565b6040516105619190613b07565b60405180910390f35b610584600480360381019061057f919061379b565b6122b8565b6040516105919190613e51565b60405180910390f35b6105b460048036038101906105af9190613708565b6122e9565b6040516105c2929190613e6c565b60405180910390f35b6105e560048036038101906105e0919061379b565b61231a565b005b6105ef6123c4565b6040516105fc9190613bab565b60405180910390f35b61061f600480360381019061061a9190613708565b6123ea565b005b61063b600480360381019061063691906135ba565b61270f565b6040516106489190613e51565b60405180910390f35b61066b6004803603810190610666919061379b565b612727565b005b610687600480360381019061068291906135ba565b6129e7565b005b6106a3600480360381019061069e9190613708565b612adf565b6040516106b09190613e51565b60405180910390f35b6000600680549050905090565b6106ce612d13565b73ffffffffffffffffffffffffffffffffffffffff166106ec61228f565b73ffffffffffffffffffffffffffffffffffffffff1614610742576040517f08c379a000000000000000000000000000000000000000000000000000000000815260040161073990613d51565b60405180910390fd5b80600a60006101000a81548173ffffffffffffffffffffffffffffffffffffffff021916908373ffffffffffffffffffffffffffffffffffffffff16021790555050565b6000600660008154811061079d5761079c61418e565b5b9060005260206000209060040201905060006007600080815260200190815260200160002060003373ffffffffffffffffffffffffffffffffffffffff1673ffffffffffffffffffffffffffffffffffffffff16815260200190815260200160002090508281600001541015610848576040517f08c379a000000000000000000000000000000000000000000000000000000000815260040161083f90613db1565b60405180910390fd5b6108526000611c40565b600061089c826001015461088e64e8d4a5100061088087600301548760000154612d1b90919063ffffffff16565b612d9690919063ffffffff16565b612de090919063ffffffff16565b9050600081111561093d576108f981600c60003373ffffffffffffffffffffffffffffffffffffffff1673ffffffffffffffffffffffffffffffffffffffff16815260200190815260200160002054612e2a90919063ffffffff16565b600c60003373ffffffffffffffffffffffffffffffffffffffff1673ffffffffffffffffffffffffffffffffffffffff168152602001908152602001600020819055505b60008411156109b55761095d848360000154612de090919063ffffffff16565b82600001819055506109b433858560000160009054906101000a900473ffffffffffffffffffffffffffffffffffffffff1673ffffffffffffffffffffffffffffffffffffffff16612e889092919063ffffffff16565b5b6109e764e8d4a510006109d985600301548560000154612d1b90919063ffffffff16565b612d9690919063ffffffff16565b826001018190555060003373ffffffffffffffffffffffffffffffffffffffff167ff279e6a1f5e320cca91135676d9cb6e44ca8a08c0b88342bcdb1144f6511b56886604051610a379190613e51565b60405180910390a350505050565b60068181548110610a5557600080fd5b90600052602060002090600402016000915090508060000160009054906101000a900473ffffffffffffffffffffffffffffffffffffffff16908060010154908060020154908060030154905084565b60085481565b600060068281548110610ac157610ac061418e565b5b9060005260206000209060040201905060006007600084815260200190815260200160002060003373ffffffffffffffffffffffffffffffffffffffff1673ffffffffffffffffffffffffffffffffffffffff168152602001908152602001600020905060008260030154905060008360000160009054906101000a900473ffffffffffffffffffffffffffffffffffffffff1673ffffffffffffffffffffffffffffffffffffffff166370a08231306040518263ffffffff1660e01b8152600401610b8d9190613b07565b60206040518083038186803b158015610ba557600080fd5b505afa158015610bb9573d6000803e3d6000fd5b505050506040513d601f19601f82011682018060405250810190610bdd91906136db565b9050836002015443118015610bf3575060008114155b15610c8e576000610c088560020154436122b8565b90506000610c4b600854610c3d8860010154610c2f60035487612d1b90919063ffffffff16565b612d1b90919063ffffffff16565b612d9690919063ffffffff16565b9050610c89610c7a84610c6c64e8d4a5100085612d1b90919063ffffffff16565b612d9690919063ffffffff16565b85612e2a90919063ffffffff16565b935050505b6000610cd48460010154610cc664e8d4a51000610cb8878960000154612d1b90919063ffffffff16565b612d9690919063ffffffff16565b612de090919063ffffffff16565b9050600060018881548110610cec57610ceb61418e565b5b906000526020600020906002020190506000610d50600c60003373ffffffffffffffffffffffffffffffffffffffff1673ffffffffffffffffffffffffffffffffffffffff1681526020019081526020016000205484612e2a90919063ffffffff16565b90508160010154811115610d87576000881415610d7257610d716000610786565b5b60008814610d8657610d8588600061149a565b5b5b600c60003373ffffffffffffffffffffffffffffffffffffffff1673ffffffffffffffffffffffffffffffffffffffff16815260200190815260200160002054826001015410610e0c576040517f08c379a0000000000000000000000000000000000000000000000000000000008152600401610e0390613c91565b60405180910390fd5b610e628260010154600c60003373ffffffffffffffffffffffffffffffffffffffff1673ffffffffffffffffffffffffffffffffffffffff16815260200190815260200160002054612de090919063ffffffff16565b600c60003373ffffffffffffffffffffffffffffffffffffffff1673ffffffffffffffffffffffffffffffffffffffff168152602001908152602001600020819055508160000160009054906101000a900473ffffffffffffffffffffffffffffffffffffffff1673ffffffffffffffffffffffffffffffffffffffff166317e5883c336040518263ffffffff1660e01b8152600401610f029190613b07565b600060405180830381600087803b158015610f1c57600080fd5b505af1158015610f30573d6000803e3d6000fd5b50505050505050505050505050565b610f47612d13565b73ffffffffffffffffffffffffffffffffffffffff16610f6561228f565b73ffffffffffffffffffffffffffffffffffffffff1614610fbb576040517f08c379a0000000000000000000000000000000000000000000000000000000008152600401610fb290613d51565b60405180910390fd5b8015610fca57610fc9612007565b5b60006009544311610fdd57600954610fdf565b435b9050610ff684600854612e2a90919063ffffffff16565b600881905550600660405180608001604052808573ffffffffffffffffffffffffffffffffffffffff1681526020018681526020018381526020016000815250908060018154018082558091505060019003906000526020600020906004020160009091909190915060008201518160000160006101000a81548173ffffffffffffffffffffffffffffffffffffffff021916908373ffffffffffffffffffffffffffffffffffffffff160217905550602082015181600101556040820151816002015560608201518160030155505050505050565b6110d4612d13565b73ffffffffffffffffffffffffffffffffffffffff166110f261228f565b73ffffffffffffffffffffffffffffffffffffffff1614611148576040517f08c379a000000000000000000000000000000000000000000000000000000000815260040161113f90613d51565b60405180910390fd5b80600560006101000a81548173ffffffffffffffffffffffffffffffffffffffff021916908373ffffffffffffffffffffffffffffffffffffffff16021790555050565b611194612d13565b73ffffffffffffffffffffffffffffffffffffffff166111b261228f565b73ffffffffffffffffffffffffffffffffffffffff1614611208576040517f08c379a00000000000000000000000000000000000000000000000000000000081526004016111ff90613d51565b60405180910390fd5b8060038190555050565b600060066000815481106112295761122861418e565b5b9060005260206000209060040201905060006007600080815260200190815260200160002060003373ffffffffffffffffffffffffffffffffffffffff1673ffffffffffffffffffffffffffffffffffffffff16815260200190815260200160002090506112976000611c40565b6000816000015411156113915760006112ee82600101546112e064e8d4a510006112d287600301548760000154612d1b90919063ffffffff16565b612d9690919063ffffffff16565b612de090919063ffffffff16565b9050600081111561138f5761134b81600c60003373ffffffffffffffffffffffffffffffffffffffff1673ffffffffffffffffffffffffffffffffffffffff16815260200190815260200160002054612e2a90919063ffffffff16565b600c60003373ffffffffffffffffffffffffffffffffffffffff1673ffffffffffffffffffffffffffffffffffffffff168152602001908152602001600020819055505b505b600083111561140b576113eb3330858560000160009054906101000a900473ffffffffffffffffffffffffffffffffffffffff1673ffffffffffffffffffffffffffffffffffffffff16612f0e909392919063ffffffff16565b611402838260000154612e2a90919063ffffffff16565b81600001819055505b61143d64e8d4a5100061142f84600301548460000154612d1b90919063ffffffff16565b612d9690919063ffffffff16565b816001018190555060003373ffffffffffffffffffffffffffffffffffffffff167f90890809c654f11d6e72a28fa60149770a0d11ec6c92319d6ceb2bb0a4ea1a158560405161148d9190613e51565b60405180910390a3505050565b60008214156114de576040517f08c379a00000000000000000000000000000000000000000000000000000000081526004016114d590613cb1565b60405180910390fd5b6000600683815481106114f4576114f361418e565b5b9060005260206000209060040201905060006007600085815260200190815260200160002060003373ffffffffffffffffffffffffffffffffffffffff1673ffffffffffffffffffffffffffffffffffffffff1681526020019081526020016000209050828160000154101561159f576040517f08c379a000000000000000000000000000000000000000000000000000000000815260040161159690613db1565b60405180910390fd5b6115a884611c40565b60006115f282600101546115e464e8d4a510006115d687600301548760000154612d1b90919063ffffffff16565b612d9690919063ffffffff16565b612de090919063ffffffff16565b905060008111156116935761164f81600c60003373ffffffffffffffffffffffffffffffffffffffff1673ffffffffffffffffffffffffffffffffffffffff16815260200190815260200160002054612e2a90919063ffffffff16565b600c60003373ffffffffffffffffffffffffffffffffffffffff1673ffffffffffffffffffffffffffffffffffffffff168152602001908152602001600020819055505b6116aa848360000154612de090919063ffffffff16565b82600001819055506116e464e8d4a510006116d685600301548560000154612d1b90919063ffffffff16565b612d9690919063ffffffff16565b826001018190555061173b33858560000160009054906101000a900473ffffffffffffffffffffffffffffffffffffffff1673ffffffffffffffffffffffffffffffffffffffff16612e889092919063ffffffff16565b843373ffffffffffffffffffffffffffffffffffffffff167ff279e6a1f5e320cca91135676d9cb6e44ca8a08c0b88342bcdb1144f6511b568866040516117829190613e51565b60405180910390a35050505050565b600073ffffffffffffffffffffffffffffffffffffffff16600560009054906101000a900473ffffffffffffffffffffffffffffffffffffffff1673ffffffffffffffffffffffffffffffffffffffff161415611823576040517f08c379a000000000000000000000000000000000000000000000000000000000815260040161181a90613e31565b60405180910390fd5b6000600682815481106118395761183861418e565b5b9060005260206000209060040201905060008160000160009054906101000a900473ffffffffffffffffffffffffffffffffffffffff16905060008173ffffffffffffffffffffffffffffffffffffffff166370a08231306040518263ffffffff1660e01b81526004016118ad9190613b07565b60206040518083038186803b1580156118c557600080fd5b505afa1580156118d9573d6000803e3d6000fd5b505050506040513d601f19601f820116820180604052508101906118fd91906136db565b905061194c600560009054906101000a900473ffffffffffffffffffffffffffffffffffffffff16828473ffffffffffffffffffffffffffffffffffffffff16612f979092919063ffffffff16565b6000600560009054906101000a900473ffffffffffffffffffffffffffffffffffffffff1673ffffffffffffffffffffffffffffffffffffffff1663ce5494bb846040518263ffffffff1660e01b81526004016119a99190613bab565b602060405180830381600087803b1580156119c357600080fd5b505af11580156119d7573d6000803e3d6000fd5b505050506040513d601f19601f820116820180604052508101906119fb9190613614565b90508073ffffffffffffffffffffffffffffffffffffffff166370a08231306040518263ffffffff1660e01b8152600401611a369190613b07565b60206040518083038186803b158015611a4e57600080fd5b505afa158015611a62573d6000803e3d6000fd5b505050506040513d601f19601f82011682018060405250810190611a8691906136db565b8214611ac7576040517f08c379a0000000000000000000000000000000000000000000000000000000008152600401611abe90613df1565b60405180910390fd5b808460000160006101000a81548173ffffffffffffffffffffffffffffffffffffffff021916908373ffffffffffffffffffffffffffffffffffffffff1602179055505050505050565b60095481565b611b1f612d13565b73ffffffffffffffffffffffffffffffffffffffff16611b3d61228f565b73ffffffffffffffffffffffffffffffffffffffff1614611b93576040517f08c379a0000000000000000000000000000000000000000000000000000000008152600401611b8a90613d51565b60405180910390fd5b600160405180604001604052808473ffffffffffffffffffffffffffffffffffffffff16815260200183815250908060018154018082558091505060019003906000526020600020906002020160009091909190915060008201518160000160006101000a81548173ffffffffffffffffffffffffffffffffffffffff021916908373ffffffffffffffffffffffffffffffffffffffff1602179055506020820151816001015550505050565b600060068281548110611c5657611c5561418e565b5b9060005260206000209060040201905080600201544311611c775750611deb565b60008160000160009054906101000a900473ffffffffffffffffffffffffffffffffffffffff1673ffffffffffffffffffffffffffffffffffffffff166370a08231306040518263ffffffff1660e01b8152600401611cd69190613b07565b60206040518083038186803b158015611cee57600080fd5b505afa158015611d02573d6000803e3d6000fd5b505050506040513d601f19601f82011682018060405250810190611d2691906136db565b905060008111611d40574382600201819055505050611deb565b6000611d508360020154436122b8565b90506000611d93600854611d858660010154611d7760035487612d1b90919063ffffffff16565b612d1b90919063ffffffff16565b612d9690919063ffffffff16565b9050611dd5611dc284611db464e8d4a5100085612d1b90919063ffffffff16565b612d9690919063ffffffff16565b8560030154612e2a90919063ffffffff16565b8460030181905550438460020181905550505050505b50565b600060068281548110611e0457611e0361418e565b5b9060005260206000209060040201905060006007600084815260200190815260200160002060003373ffffffffffffffffffffffffffffffffffffffff1673ffffffffffffffffffffffffffffffffffffffff1681526020019081526020016000209050611ebb3382600001548460000160009054906101000a900473ffffffffffffffffffffffffffffffffffffffff1673ffffffffffffffffffffffffffffffffffffffff16612e889092919063ffffffff16565b823373ffffffffffffffffffffffffffffffffffffffff167fbb757047c2b5f3974fe26b7c10f732e7bce710b0952a71082702781e62ae05958360000154604051611f069190613e51565b60405180910390a36000816000018190555060008160010181905550505050565b60035481565b611f35612d13565b73ffffffffffffffffffffffffffffffffffffffff16611f5361228f565b73ffffffffffffffffffffffffffffffffffffffff1614611fa9576040517f08c379a0000000000000000000000000000000000000000000000000000000008152600401611fa090613d51565b60405180910390fd5b8060048190555050565b60018181548110611fc357600080fd5b90600052602060002090600202016000915090508060000160009054906101000a900473ffffffffffffffffffffffffffffffffffffffff16908060010154905082565b6000600680549050905060005b818110156120365761202581611c40565b8061202f906140e7565b9050612014565b5050565b612042612d13565b73ffffffffffffffffffffffffffffffffffffffff1661206061228f565b73ffffffffffffffffffffffffffffffffffffffff16146120b6576040517f08c379a00000000000000000000000000000000000000000000000000000000081526004016120ad90613d51565b60405180910390fd5b80156120c5576120c4612007565b5b61211182612103600686815481106120e0576120df61418e565b5b906000526020600020906004020160010154600854612de090919063ffffffff16565b612e2a90919063ffffffff16565b600881905550816006848154811061212c5761212b61418e565b5b906000526020600020906004020160010181905550505050565b61214e612d13565b73ffffffffffffffffffffffffffffffffffffffff1661216c61228f565b73ffffffffffffffffffffffffffffffffffffffff16146121c2576040517f08c379a00000000000000000000000000000000000000000000000000000000081526004016121b990613d51565b60405180910390fd5b6121cc60006130f5565b565b600b60009054906101000a900473ffffffffffffffffffffffffffffffffffffffff1681565b600560009054906101000a900473ffffffffffffffffffffffffffffffffffffffff1681565b600a60009054906101000a900473ffffffffffffffffffffffffffffffffffffffff1681565b60045481565b6000600c60008373ffffffffffffffffffffffffffffffffffffffff1673ffffffffffffffffffffffffffffffffffffffff168152602001908152602001600020549050919050565b60008060009054906101000a900473ffffffffffffffffffffffffffffffffffffffff16905090565b60006122e16004546122d38585612de090919063ffffffff16565b612d1b90919063ffffffff16565b905092915050565b6007602052816000526040600020602052806000526040600020600091509150508060000154908060010154905082565b612322612d13565b73ffffffffffffffffffffffffffffffffffffffff1661234061228f565b73ffffffffffffffffffffffffffffffffffffffff1614612396576040517f08c379a000000000000000000000000000000000000000000000000000000000815260040161238d90613d51565b60405180910390fd5b80600183815481106123ab576123aa61418e565b5b9060005260206000209060020201600101819055505050565b600260009054906101000a900473ffffffffffffffffffffffffffffffffffffffff1681565b600a60009054906101000a900473ffffffffffffffffffffffffffffffffffffffff1673ffffffffffffffffffffffffffffffffffffffff163373ffffffffffffffffffffffffffffffffffffffff161480612447575060006001115b612486576040517f08c379a000000000000000000000000000000000000000000000000000000000815260040161247d90613d71565b60405180910390fd5b6000600660008154811061249d5761249c61418e565b5b9060005260206000209060040201905060006007600080815260200190815260200160002060008473ffffffffffffffffffffffffffffffffffffffff1673ffffffffffffffffffffffffffffffffffffffff168152602001908152602001600020905061250b6000611c40565b600081600001541115612605576000612562826001015461255464e8d4a5100061254687600301548760000154612d1b90919063ffffffff16565b612d9690919063ffffffff16565b612de090919063ffffffff16565b90506000811115612603576125bf81600c60008773ffffffffffffffffffffffffffffffffffffffff1673ffffffffffffffffffffffffffffffffffffffff16815260200190815260200160002054612e2a90919063ffffffff16565b600c60008673ffffffffffffffffffffffffffffffffffffffff1673ffffffffffffffffffffffffffffffffffffffff168152602001908152602001600020819055505b505b600084111561267f5761265f3330868560000160009054906101000a900473ffffffffffffffffffffffffffffffffffffffff1673ffffffffffffffffffffffffffffffffffffffff16612f0e909392919063ffffffff16565b612676848260000154612e2a90919063ffffffff16565b81600001819055505b6126b164e8d4a510006126a384600301548460000154612d1b90919063ffffffff16565b612d9690919063ffffffff16565b816001018190555060008373ffffffffffffffffffffffffffffffffffffffff167f90890809c654f11d6e72a28fa60149770a0d11ec6c92319d6ceb2bb0a4ea1a15866040516127019190613e51565b60405180910390a350505050565b600c6020528060005260406000206000915090505481565b600082141561276b576040517f08c379a000000000000000000000000000000000000000000000000000000000815260040161276290613d11565b60405180910390fd5b6000600683815481106127815761278061418e565b5b9060005260206000209060040201905060006007600085815260200190815260200160002060003373ffffffffffffffffffffffffffffffffffffffff1673ffffffffffffffffffffffffffffffffffffffff16815260200190815260200160002090506127ee84611c40565b6000816000015411156128e8576000612845826001015461283764e8d4a5100061282987600301548760000154612d1b90919063ffffffff16565b612d9690919063ffffffff16565b612de090919063ffffffff16565b905060008111156128e6576128a281600c60003373ffffffffffffffffffffffffffffffffffffffff1673ffffffffffffffffffffffffffffffffffffffff16815260200190815260200160002054612e2a90919063ffffffff16565b600c60003373ffffffffffffffffffffffffffffffffffffffff1673ffffffffffffffffffffffffffffffffffffffff168152602001908152602001600020819055505b505b6129393330858560000160009054906101000a900473ffffffffffffffffffffffffffffffffffffffff1673ffffffffffffffffffffffffffffffffffffffff16612f0e909392919063ffffffff16565b612950838260000154612e2a90919063ffffffff16565b816000018190555061298a64e8d4a5100061297c84600301548460000154612d1b90919063ffffffff16565b612d9690919063ffffffff16565b8160010181905550833373ffffffffffffffffffffffffffffffffffffffff167f90890809c654f11d6e72a28fa60149770a0d11ec6c92319d6ceb2bb0a4ea1a15856040516129d99190613e51565b60405180910390a350505050565b6129ef612d13565b73ffffffffffffffffffffffffffffffffffffffff16612a0d61228f565b73ffffffffffffffffffffffffffffffffffffffff1614612a63576040517f08c379a0000000000000000000000000000000000000000000000000000000008152600401612a5a90613d51565b60405180910390fd5b600073ffffffffffffffffffffffffffffffffffffffff168173ffffffffffffffffffffffffffffffffffffffff161415612ad3576040517f08c379a0000000000000000000000000000000000000000000000000000000008152600401612aca90613c71565b60405180910390fd5b612adc816130f5565b50565b60008060068481548110612af657612af561418e565b5b9060005260206000209060040201905060006007600086815260200190815260200160002060008573ffffffffffffffffffffffffffffffffffffffff1673ffffffffffffffffffffffffffffffffffffffff168152602001908152602001600020905060008260030154905060008360000160009054906101000a900473ffffffffffffffffffffffffffffffffffffffff1673ffffffffffffffffffffffffffffffffffffffff166370a08231306040518263ffffffff1660e01b8152600401612bc29190613b07565b60206040518083038186803b158015612bda57600080fd5b505afa158015612bee573d6000803e3d6000fd5b505050506040513d601f19601f82011682018060405250810190612c1291906136db565b9050836002015443118015612c28575060008114155b15612cc3576000612c3d8560020154436122b8565b90506000612c80600854612c728860010154612c6460035487612d1b90919063ffffffff16565b612d1b90919063ffffffff16565b612d9690919063ffffffff16565b9050612cbe612caf84612ca164e8d4a5100085612d1b90919063ffffffff16565b612d9690919063ffffffff16565b85612e2a90919063ffffffff16565b935050505b612d078360010154612cf964e8d4a51000612ceb868860000154612d1b90919063ffffffff16565b612d9690919063ffffffff16565b612de090919063ffffffff16565b94505050505092915050565b600033905090565b600080831415612d2e5760009050612d90565b60008284612d3c9190613f4e565b9050828482612d4b9190613f1d565b14612d8b576040517f08c379a0000000000000000000000000000000000000000000000000000000008152600401612d8290613d31565b60405180910390fd5b809150505b92915050565b6000612dd883836040518060400160405280601a81526020017f536166654d6174683a206469766973696f6e206279207a65726f0000000000008152506131b9565b905092915050565b6000612e2283836040518060400160405280601e81526020017f536166654d6174683a207375627472616374696f6e206f766572666c6f77000081525061321c565b905092915050565b6000808284612e399190613ec7565b905083811015612e7e576040517f08c379a0000000000000000000000000000000000000000000000000000000008152600401612e7590613cd1565b60405180910390fd5b8091505092915050565b612f098363a9059cbb60e01b8484604051602401612ea7929190613b82565b604051602081830303815290604052907bffffffffffffffffffffffffffffffffffffffffffffffffffffffff19166020820180517bffffffffffffffffffffffffffffffffffffffffffffffffffffffff8381831617835250505050613280565b505050565b612f91846323b872dd60e01b858585604051602401612f2f93929190613b4b565b604051602081830303815290604052907bffffffffffffffffffffffffffffffffffffffffffffffffffffffff19166020820180517bffffffffffffffffffffffffffffffffffffffffffffffffffffffff8381831617835250505050613280565b50505050565b6000811480613030575060008373ffffffffffffffffffffffffffffffffffffffff1663dd62ed3e30856040518363ffffffff1660e01b8152600401612fde929190613b22565b60206040518083038186803b158015612ff657600080fd5b505afa15801561300a573d6000803e3d6000fd5b505050506040513d601f19601f8201168201806040525081019061302e91906136db565b145b61306f576040517f08c379a000000000000000000000000000000000000000000000000000000000815260040161306690613e11565b60405180910390fd5b6130f08363095ea7b360e01b848460405160240161308e929190613b82565b604051602081830303815290604052907bffffffffffffffffffffffffffffffffffffffffffffffffffffffff19166020820180517bffffffffffffffffffffffffffffffffffffffffffffffffffffffff8381831617835250505050613280565b505050565b60008060009054906101000a900473ffffffffffffffffffffffffffffffffffffffff169050816000806101000a81548173ffffffffffffffffffffffffffffffffffffffff021916908373ffffffffffffffffffffffffffffffffffffffff1602179055508173ffffffffffffffffffffffffffffffffffffffff168173ffffffffffffffffffffffffffffffffffffffff167f8be0079c531659141344cd1fd0a4f28419497f9722a3daafe3b4186f6b6457e060405160405180910390a35050565b60008083118290613200576040517f08c379a00000000000000000000000000000000000000000000000000000000081526004016131f79190613c4f565b60405180910390fd5b506000838561320f9190613f1d565b9050809150509392505050565b6000838311158290613264576040517f08c379a000000000000000000000000000000000000000000000000000000000815260040161325b9190613c4f565b60405180910390fd5b50600083856132739190613fa8565b9050809150509392505050565b60006132e2826040518060400160405280602081526020017f5361666545524332303a206c6f772d6c6576656c2063616c6c206661696c65648152508573ffffffffffffffffffffffffffffffffffffffff166133479092919063ffffffff16565b9050600081511115613342578080602001905181019061330291906135e7565b613341576040517f08c379a000000000000000000000000000000000000000000000000000000000815260040161333890613dd1565b60405180910390fd5b5b505050565b6060613356848460008561335f565b90509392505050565b6060824710156133a4576040517f08c379a000000000000000000000000000000000000000000000000000000000815260040161339b90613cf1565b60405180910390fd5b6133ad85613473565b6133ec576040517f08c379a00000000000000000000000000000000000000000000000000000000081526004016133e390613d91565b60405180910390fd5b6000808673ffffffffffffffffffffffffffffffffffffffff1685876040516134159190613af0565b60006040518083038185875af1925050503d8060008114613452576040519150601f19603f3d011682016040523d82523d6000602084013e613457565b606091505b5091509150613467828286613496565b92505050949350505050565b6000808273ffffffffffffffffffffffffffffffffffffffff163b119050919050565b606083156134a6578290506134f6565b6000835111156134b95782518084602001fd5b816040517f08c379a00000000000000000000000000000000000000000000000000000000081526004016134ed9190613c4f565b60405180910390fd5b9392505050565b60008135905061350c816144f8565b92915050565b6000813590506135218161450f565b92915050565b6000815190506135368161450f565b92915050565b60008135905061354b81614526565b92915050565b60008151905061356081614526565b92915050565b6000813590506135758161453d565b92915050565b60008135905061358a81614554565b92915050565b60008135905061359f8161456b565b92915050565b6000815190506135b48161456b565b92915050565b6000602082840312156135d0576135cf6141bd565b5b60006135de848285016134fd565b91505092915050565b6000602082840312156135fd576135fc6141bd565b5b600061360b84828501613527565b91505092915050565b60006020828403121561362a576136296141bd565b5b600061363884828501613551565b91505092915050565b60008060408385031215613658576136576141bd565b5b600061366685828601613566565b925050602061367785828601613590565b9150509250929050565b600060208284031215613697576136966141bd565b5b60006136a58482850161357b565b91505092915050565b6000602082840312156136c4576136c36141bd565b5b60006136d284828501613590565b91505092915050565b6000602082840312156136f1576136f06141bd565b5b60006136ff848285016135a5565b91505092915050565b6000806040838503121561371f5761371e6141bd565b5b600061372d85828601613590565b925050602061373e858286016134fd565b9150509250929050565b600080600060608486031215613761576137606141bd565b5b600061376f86828701613590565b93505060206137808682870161353c565b925050604061379186828701613512565b9150509250925092565b600080604083850312156137b2576137b16141bd565b5b60006137c085828601613590565b92505060206137d185828601613590565b9150509250929050565b6000806000606084860312156137f4576137f36141bd565b5b600061380286828701613590565b935050602061381386828701613590565b925050604061382486828701613512565b9150509250925092565b61383781613fdc565b82525050565b600061384882613e95565b6138528185613eab565b93506138628185602086016140b4565b80840191505092915050565b6138778161405a565b82525050565b6138868161406c565b82525050565b6138958161407e565b82525050565b60006138a682613ea0565b6138b08185613eb6565b93506138c08185602086016140b4565b6138c9816141c2565b840191505092915050565b60006138e1602683613eb6565b91506138ec826141d3565b604082019050919050565b6000613904601383613eb6565b915061390f82614222565b602082019050919050565b6000613927601b83613eb6565b91506139328261424b565b602082019050919050565b600061394a601b83613eb6565b915061395582614274565b602082019050919050565b600061396d602683613eb6565b91506139788261429d565b604082019050919050565b6000613990601883613eb6565b915061399b826142ec565b602082019050919050565b60006139b3602183613eb6565b91506139be82614315565b604082019050919050565b60006139d6602083613eb6565b91506139e182614364565b602082019050919050565b60006139f9601483613eb6565b9150613a048261438d565b602082019050919050565b6000613a1c601d83613eb6565b9150613a27826143b6565b602082019050919050565b6000613a3f601283613eb6565b9150613a4a826143df565b602082019050919050565b6000613a62602a83613eb6565b9150613a6d82614408565b604082019050919050565b6000613a85600c83613eb6565b9150613a9082614457565b602082019050919050565b6000613aa8603683613eb6565b9150613ab382614480565b604082019050919050565b6000613acb601483613eb6565b9150613ad6826144cf565b602082019050919050565b613aea81614050565b82525050565b6000613afc828461383d565b915081905092915050565b6000602082019050613b1c600083018461382e565b92915050565b6000604082019050613b37600083018561382e565b613b44602083018461382e565b9392505050565b6000606082019050613b60600083018661382e565b613b6d602083018561382e565b613b7a6040830184613ae1565b949350505050565b6000604082019050613b97600083018561382e565b613ba46020830184613ae1565b9392505050565b6000602082019050613bc0600083018461386e565b92915050565b6000608082019050613bdb600083018761386e565b613be86020830186613ae1565b613bf56040830185613ae1565b613c026060830184613ae1565b95945050505050565b6000604082019050613c20600083018561387d565b613c2d6020830184613ae1565b9392505050565b6000602082019050613c49600083018461388c565b92915050565b60006020820190508181036000830152613c69818461389b565b905092915050565b60006020820190508181036000830152613c8a816138d4565b9050919050565b60006020820190508181036000830152613caa816138f7565b9050919050565b60006020820190508181036000830152613cca8161391a565b9050919050565b60006020820190508181036000830152613cea8161393d565b9050919050565b60006020820190508181036000830152613d0a81613960565b9050919050565b60006020820190508181036000830152613d2a81613983565b9050919050565b60006020820190508181036000830152613d4a816139a6565b9050919050565b60006020820190508181036000830152613d6a816139c9565b9050919050565b60006020820190508181036000830152613d8a816139ec565b9050919050565b60006020820190508181036000830152613daa81613a0f565b9050919050565b60006020820190508181036000830152613dca81613a32565b9050919050565b60006020820190508181036000830152613dea81613a55565b9050919050565b60006020820190508181036000830152613e0a81613a78565b9050919050565b60006020820190508181036000830152613e2a81613a9b565b9050919050565b60006020820190508181036000830152613e4a81613abe565b9050919050565b6000602082019050613e666000830184613ae1565b92915050565b6000604082019050613e816000830185613ae1565b613e8e6020830184613ae1565b9392505050565b600081519050919050565b600081519050919050565b600081905092915050565b600082825260208201905092915050565b6000613ed282614050565b9150613edd83614050565b9250827fffffffffffffffffffffffffffffffffffffffffffffffffffffffffffffffff03821115613f1257613f11614130565b5b828201905092915050565b6000613f2882614050565b9150613f3383614050565b925082613f4357613f4261415f565b5b828204905092915050565b6000613f5982614050565b9150613f6483614050565b9250817fffffffffffffffffffffffffffffffffffffffffffffffffffffffffffffffff0483118215151615613f9d57613f9c614130565b5b828202905092915050565b6000613fb382614050565b9150613fbe83614050565b925082821015613fd157613fd0614130565b5b828203905092915050565b6000613fe782614030565b9050919050565b60008115159050919050565b600061400582613fdc565b9050919050565b600061401782613fdc565b9050919050565b600061402982613fdc565b9050919050565b600073ffffffffffffffffffffffffffffffffffffffff82169050919050565b6000819050919050565b600061406582614090565b9050919050565b600061407782614090565b9050919050565b600061408982614090565b9050919050565b600061409b826140a2565b9050919050565b60006140ad82614030565b9050919050565b60005b838110156140d25780820151818401526020810190506140b7565b838111156140e1576000848401525b50505050565b60006140f282614050565b91507fffffffffffffffffffffffffffffffffffffffffffffffffffffffffffffffff82141561412557614124614130565b5b600182019050919050565b7f4e487b7100000000000000000000000000000000000000000000000000000000600052601160045260246000fd5b7f4e487b7100000000000000000000000000000000000000000000000000000000600052601260045260246000fd5b7f4e487b7100000000000000000000000000000000000000000000000000000000600052603260045260246000fd5b600080fd5b6000601f19601f8301169050919050565b7f4f776e61626c653a206e6577206f776e657220697320746865207a65726f206160008201527f6464726573730000000000000000000000000000000000000000000000000000602082015250565b7f506f776572206973206e6f7420656e6f75676800000000000000000000000000600082015250565b7f776974686472617720506f77657220627920756e7374616b696e670000000000600082015250565b7f536166654d6174683a206164646974696f6e206f766572666c6f770000000000600082015250565b7f416464726573733a20696e73756666696369656e742062616c616e636520666f60008201527f722063616c6c0000000000000000000000000000000000000000000000000000602082015250565b7f6465706f73697420506f776572206279207374616b696e670000000000000000600082015250565b7f536166654d6174683a206d756c7469706c69636174696f6e206f766572666c6f60008201527f7700000000000000000000000000000000000000000000000000000000000000602082015250565b7f4f776e61626c653a2063616c6c6572206973206e6f7420746865206f776e6572600082015250565b7f43616c6c6572206973206e6f742066616d696c79000000000000000000000000600082015250565b7f416464726573733a2063616c6c20746f206e6f6e2d636f6e7472616374000000600082015250565b7f77697468647261773a206e6f7420676f6f640000000000000000000000000000600082015250565b7f5361666545524332303a204552433230206f7065726174696f6e20646964206e60008201527f6f74207375636365656400000000000000000000000000000000000000000000602082015250565b7f6d6967726174653a206261640000000000000000000000000000000000000000600082015250565b7f5361666545524332303a20617070726f76652066726f6d206e6f6e2d7a65726f60008201527f20746f206e6f6e2d7a65726f20616c6c6f77616e636500000000000000000000602082015250565b7f6d6967726174653a206e6f206d69677261746f72000000000000000000000000600082015250565b61450181613fdc565b811461450c57600080fd5b50565b61451881613fee565b811461452357600080fd5b50565b61452f81613ffa565b811461453a57600080fd5b50565b6145468161400c565b811461455157600080fd5b50565b61455d8161401e565b811461456857600080fd5b50565b61457481614050565b811461457f57600080fd5b5056fea26469706673582212206b52a6c08afcefd74110e5339af0d515af0bfd2ad19efbf69ced67c240f8f50964736f6c63430008070033",
					"opcodes": "PUSH1 0x80 PUSH1 0x40 MSTORE PUSH1 0x1 PUSH1 0x4 SSTORE PUSH1 0x0 PUSH1 0x8 SSTORE CALLVALUE DUP1 ISZERO PUSH3 0x1B JUMPI PUSH1 0x0 DUP1 REVERT JUMPDEST POP PUSH1 0x40 MLOAD PUSH3 0x495B CODESIZE SUB DUP1 PUSH3 0x495B DUP4 CODECOPY DUP2 DUP2 ADD PUSH1 0x40 MSTORE DUP2 ADD SWAP1 PUSH3 0x41 SWAP2 SWAP1 PUSH3 0x2AC JUMP JUMPDEST PUSH3 0x61 PUSH3 0x55 PUSH3 0x1B2 PUSH1 0x20 SHL PUSH1 0x20 SHR JUMP JUMPDEST PUSH3 0x1BA PUSH1 0x20 SHL PUSH1 0x20 SHR JUMP JUMPDEST DUP3 PUSH1 0x2 PUSH1 0x0 PUSH2 0x100 EXP DUP2 SLOAD DUP2 PUSH20 0xFFFFFFFFFFFFFFFFFFFFFFFFFFFFFFFFFFFFFFFF MUL NOT AND SWAP1 DUP4 PUSH20 0xFFFFFFFFFFFFFFFFFFFFFFFFFFFFFFFFFFFFFFFF AND MUL OR SWAP1 SSTORE POP DUP2 PUSH1 0x3 DUP2 SWAP1 SSTORE POP DUP1 PUSH1 0x9 DUP2 SWAP1 SSTORE POP PUSH1 0x6 PUSH1 0x40 MLOAD DUP1 PUSH1 0x80 ADD PUSH1 0x40 MSTORE DUP1 PUSH1 0x2 PUSH1 0x0 SWAP1 SLOAD SWAP1 PUSH2 0x100 EXP SWAP1 DIV PUSH20 0xFFFFFFFFFFFFFFFFFFFFFFFFFFFFFFFFFFFFFFFF AND PUSH20 0xFFFFFFFFFFFFFFFFFFFFFFFFFFFFFFFFFFFFFFFF AND DUP2 MSTORE PUSH1 0x20 ADD PUSH2 0x3E8 DUP2 MSTORE PUSH1 0x20 ADD PUSH1 0x9 SLOAD DUP2 MSTORE PUSH1 0x20 ADD PUSH1 0x0 DUP2 MSTORE POP SWAP1 DUP1 PUSH1 0x1 DUP2 SLOAD ADD DUP1 DUP3 SSTORE DUP1 SWAP2 POP POP PUSH1 0x1 SWAP1 SUB SWAP1 PUSH1 0x0 MSTORE PUSH1 0x20 PUSH1 0x0 KECCAK256 SWAP1 PUSH1 0x4 MUL ADD PUSH1 0x0 SWAP1 SWAP2 SWAP1 SWAP2 SWAP1 SWAP2 POP PUSH1 0x0 DUP3 ADD MLOAD DUP2 PUSH1 0x0 ADD PUSH1 0x0 PUSH2 0x100 EXP DUP2 SLOAD DUP2 PUSH20 0xFFFFFFFFFFFFFFFFFFFFFFFFFFFFFFFFFFFFFFFF MUL NOT AND SWAP1 DUP4 PUSH20 0xFFFFFFFFFFFFFFFFFFFFFFFFFFFFFFFFFFFFFFFF AND MUL OR SWAP1 SSTORE POP PUSH1 0x20 DUP3 ADD MLOAD DUP2 PUSH1 0x1 ADD SSTORE PUSH1 0x40 DUP3 ADD MLOAD DUP2 PUSH1 0x2 ADD SSTORE PUSH1 0x60 DUP3 ADD MLOAD DUP2 PUSH1 0x3 ADD SSTORE POP POP PUSH2 0x3E8 PUSH1 0x8 DUP2 SWAP1 SSTORE POP POP POP POP PUSH3 0x393 JUMP JUMPDEST PUSH1 0x0 CALLER SWAP1 POP SWAP1 JUMP JUMPDEST PUSH1 0x0 DUP1 PUSH1 0x0 SWAP1 SLOAD SWAP1 PUSH2 0x100 EXP SWAP1 DIV PUSH20 0xFFFFFFFFFFFFFFFFFFFFFFFFFFFFFFFFFFFFFFFF AND SWAP1 POP DUP2 PUSH1 0x0 DUP1 PUSH2 0x100 EXP DUP2 SLOAD DUP2 PUSH20 0xFFFFFFFFFFFFFFFFFFFFFFFFFFFFFFFFFFFFFFFF MUL NOT AND SWAP1 DUP4 PUSH20 0xFFFFFFFFFFFFFFFFFFFFFFFFFFFFFFFFFFFFFFFF AND MUL OR SWAP1 SSTORE POP DUP2 PUSH20 0xFFFFFFFFFFFFFFFFFFFFFFFFFFFFFFFFFFFFFFFF AND DUP2 PUSH20 0xFFFFFFFFFFFFFFFFFFFFFFFFFFFFFFFFFFFFFFFF AND PUSH32 0x8BE0079C531659141344CD1FD0A4F28419497F9722A3DAAFE3B4186F6B6457E0 PUSH1 0x40 MLOAD PUSH1 0x40 MLOAD DUP1 SWAP2 SUB SWAP1 LOG3 POP POP JUMP JUMPDEST PUSH1 0x0 DUP2 MLOAD SWAP1 POP PUSH3 0x28F DUP2 PUSH3 0x35F JUMP JUMPDEST SWAP3 SWAP2 POP POP JUMP JUMPDEST PUSH1 0x0 DUP2 MLOAD SWAP1 POP PUSH3 0x2A6 DUP2 PUSH3 0x379 JUMP JUMPDEST SWAP3 SWAP2 POP POP JUMP JUMPDEST PUSH1 0x0 DUP1 PUSH1 0x0 PUSH1 0x60 DUP5 DUP7 SUB SLT ISZERO PUSH3 0x2C8 JUMPI PUSH3 0x2C7 PUSH3 0x35A JUMP JUMPDEST JUMPDEST PUSH1 0x0 PUSH3 0x2D8 DUP7 DUP3 DUP8 ADD PUSH3 0x27E JUMP JUMPDEST SWAP4 POP POP PUSH1 0x20 PUSH3 0x2EB DUP7 DUP3 DUP8 ADD PUSH3 0x295 JUMP JUMPDEST SWAP3 POP POP PUSH1 0x40 PUSH3 0x2FE DUP7 DUP3 DUP8 ADD PUSH3 0x295 JUMP JUMPDEST SWAP2 POP POP SWAP3 POP SWAP3 POP SWAP3 JUMP JUMPDEST PUSH1 0x0 PUSH3 0x315 DUP3 PUSH3 0x330 JUMP JUMPDEST SWAP1 POP SWAP2 SWAP1 POP JUMP JUMPDEST PUSH1 0x0 PUSH3 0x329 DUP3 PUSH3 0x308 JUMP JUMPDEST SWAP1 POP SWAP2 SWAP1 POP JUMP JUMPDEST PUSH1 0x0 PUSH20 0xFFFFFFFFFFFFFFFFFFFFFFFFFFFFFFFFFFFFFFFF DUP3 AND SWAP1 POP SWAP2 SWAP1 POP JUMP JUMPDEST PUSH1 0x0 DUP2 SWAP1 POP SWAP2 SWAP1 POP JUMP JUMPDEST PUSH1 0x0 DUP1 REVERT JUMPDEST PUSH3 0x36A DUP2 PUSH3 0x31C JUMP JUMPDEST DUP2 EQ PUSH3 0x376 JUMPI PUSH1 0x0 DUP1 REVERT JUMPDEST POP JUMP JUMPDEST PUSH3 0x384 DUP2 PUSH3 0x350 JUMP JUMPDEST DUP2 EQ PUSH3 0x390 JUMPI PUSH1 0x0 DUP1 REVERT JUMPDEST POP JUMP JUMPDEST PUSH2 0x45B8 DUP1 PUSH3 0x3A3 PUSH1 0x0 CODECOPY PUSH1 0x0 RETURN INVALID PUSH1 0x80 PUSH1 0x40 MSTORE CALLVALUE DUP1 ISZERO PUSH2 0x10 JUMPI PUSH1 0x0 DUP1 REVERT JUMPDEST POP PUSH1 0x4 CALLDATASIZE LT PUSH2 0x227 JUMPI PUSH1 0x0 CALLDATALOAD PUSH1 0xE0 SHR DUP1 PUSH4 0x61C1B724 GT PUSH2 0x130 JUMPI DUP1 PUSH4 0x8DA5CB5B GT PUSH2 0xB8 JUMPI DUP1 PUSH4 0xCF35FDDF GT PUSH2 0x7C JUMPI DUP1 PUSH4 0xCF35FDDF EQ PUSH2 0x605 JUMPI DUP1 PUSH4 0xD209DB8C EQ PUSH2 0x621 JUMPI DUP1 PUSH4 0xE2BBB158 EQ PUSH2 0x651 JUMPI DUP1 PUSH4 0xF2FDE38B EQ PUSH2 0x66D JUMPI DUP1 PUSH4 0xF3239AB5 EQ PUSH2 0x689 JUMPI PUSH2 0x227 JUMP JUMPDEST DUP1 PUSH4 0x8DA5CB5B EQ PUSH2 0x54C JUMPI DUP1 PUSH4 0x8DBB1E3A EQ PUSH2 0x56A JUMPI DUP1 PUSH4 0x93F1A40B EQ PUSH2 0x59A JUMPI DUP1 PUSH4 0xC11490CC EQ PUSH2 0x5CB JUMPI DUP1 PUSH4 0xCB3CBA55 EQ PUSH2 0x5E7 JUMPI PUSH2 0x227 JUMP JUMPDEST DUP1 PUSH4 0x71916982 GT PUSH2 0xFF JUMPI DUP1 PUSH4 0x71916982 EQ PUSH2 0x4A4 JUMPI DUP1 PUSH4 0x7CD07E47 EQ PUSH2 0x4C2 JUMPI DUP1 PUSH4 0x83E32135 EQ PUSH2 0x4E0 JUMPI DUP1 PUSH4 0x8AA28550 EQ PUSH2 0x4FE JUMPI DUP1 PUSH4 0x8C51793B EQ PUSH2 0x51C JUMPI PUSH2 0x227 JUMP JUMPDEST DUP1 PUSH4 0x61C1B724 EQ PUSH2 0x443 JUMPI DUP1 PUSH4 0x630B5BA1 EQ PUSH2 0x474 JUMPI DUP1 PUSH4 0x64482F79 EQ PUSH2 0x47E JUMPI DUP1 PUSH4 0x715018A6 EQ PUSH2 0x49A JUMPI PUSH2 0x227 JUMP JUMPDEST DUP1 PUSH4 0x41441D3B GT PUSH2 0x1B3 JUMPI DUP1 PUSH4 0x4EA2813C GT PUSH2 0x182 JUMPI DUP1 PUSH4 0x4EA2813C EQ PUSH2 0x3B5 JUMPI DUP1 PUSH4 0x51EB05A6 EQ PUSH2 0x3D1 JUMPI DUP1 PUSH4 0x5312EA8E EQ PUSH2 0x3ED JUMPI DUP1 PUSH4 0x5990C569 EQ PUSH2 0x409 JUMPI DUP1 PUSH4 0x5FFE6146 EQ PUSH2 0x427 JUMPI PUSH2 0x227 JUMP JUMPDEST DUP1 PUSH4 0x41441D3B EQ PUSH2 0x343 JUMPI DUP1 PUSH4 0x441A3E70 EQ PUSH2 0x35F JUMPI DUP1 PUSH4 0x454B0608 EQ PUSH2 0x37B JUMPI DUP1 PUSH4 0x48CD4CB1 EQ PUSH2 0x397 JUMPI PUSH2 0x227 JUMP JUMPDEST DUP1 PUSH4 0x17CAF6F1 GT PUSH2 0x1FA JUMPI DUP1 PUSH4 0x17CAF6F1 EQ PUSH2 0x2B5 JUMPI DUP1 PUSH4 0x1D5FBD87 EQ PUSH2 0x2D3 JUMPI DUP1 PUSH4 0x1EAAA045 EQ PUSH2 0x2EF JUMPI DUP1 PUSH4 0x23CF3118 EQ PUSH2 0x30B JUMPI DUP1 PUSH4 0x3DF7AFF3 EQ PUSH2 0x327 JUMPI PUSH2 0x227 JUMP JUMPDEST DUP1 PUSH4 0x81E3EDA EQ PUSH2 0x22C JUMPI DUP1 PUSH4 0xBA33A58 EQ PUSH2 0x24A JUMPI DUP1 PUSH4 0x1058D281 EQ PUSH2 0x266 JUMPI DUP1 PUSH4 0x1526FE27 EQ PUSH2 0x282 JUMPI JUMPDEST PUSH1 0x0 DUP1 REVERT JUMPDEST PUSH2 0x234 PUSH2 0x6B9 JUMP JUMPDEST PUSH1 0x40 MLOAD PUSH2 0x241 SWAP2 SWAP1 PUSH2 0x3E51 JUMP JUMPDEST PUSH1 0x40 MLOAD DUP1 SWAP2 SUB SWAP1 RETURN JUMPDEST PUSH2 0x264 PUSH1 0x4 DUP1 CALLDATASIZE SUB DUP2 ADD SWAP1 PUSH2 0x25F SWAP2 SWAP1 PUSH2 0x35BA JUMP JUMPDEST PUSH2 0x6C6 JUMP JUMPDEST STOP JUMPDEST PUSH2 0x280 PUSH1 0x4 DUP1 CALLDATASIZE SUB DUP2 ADD SWAP1 PUSH2 0x27B SWAP2 SWAP1 PUSH2 0x36AE JUMP JUMPDEST PUSH2 0x786 JUMP JUMPDEST STOP JUMPDEST PUSH2 0x29C PUSH1 0x4 DUP1 CALLDATASIZE SUB DUP2 ADD SWAP1 PUSH2 0x297 SWAP2 SWAP1 PUSH2 0x36AE JUMP JUMPDEST PUSH2 0xA45 JUMP JUMPDEST PUSH1 0x40 MLOAD PUSH2 0x2AC SWAP5 SWAP4 SWAP3 SWAP2 SWAP1 PUSH2 0x3BC6 JUMP JUMPDEST PUSH1 0x40 MLOAD DUP1 SWAP2 SUB SWAP1 RETURN JUMPDEST PUSH2 0x2BD PUSH2 0xAA5 JUMP JUMPDEST PUSH1 0x40 MLOAD PUSH2 0x2CA SWAP2 SWAP1 PUSH2 0x3E51 JUMP JUMPDEST PUSH1 0x40 MLOAD DUP1 SWAP2 SUB SWAP1 RETURN JUMPDEST PUSH2 0x2ED PUSH1 0x4 DUP1 CALLDATASIZE SUB DUP2 ADD SWAP1 PUSH2 0x2E8 SWAP2 SWAP1 PUSH2 0x379B JUMP JUMPDEST PUSH2 0xAAB JUMP JUMPDEST STOP JUMPDEST PUSH2 0x309 PUSH1 0x4 DUP1 CALLDATASIZE SUB DUP2 ADD SWAP1 PUSH2 0x304 SWAP2 SWAP1 PUSH2 0x3748 JUMP JUMPDEST PUSH2 0xF3F JUMP JUMPDEST STOP JUMPDEST PUSH2 0x325 PUSH1 0x4 DUP1 CALLDATASIZE SUB DUP2 ADD SWAP1 PUSH2 0x320 SWAP2 SWAP1 PUSH2 0x3681 JUMP JUMPDEST PUSH2 0x10CC JUMP JUMPDEST STOP JUMPDEST PUSH2 0x341 PUSH1 0x4 DUP1 CALLDATASIZE SUB DUP2 ADD SWAP1 PUSH2 0x33C SWAP2 SWAP1 PUSH2 0x36AE JUMP JUMPDEST PUSH2 0x118C JUMP JUMPDEST STOP JUMPDEST PUSH2 0x35D PUSH1 0x4 DUP1 CALLDATASIZE SUB DUP2 ADD SWAP1 PUSH2 0x358 SWAP2 SWAP1 PUSH2 0x36AE JUMP JUMPDEST PUSH2 0x1212 JUMP JUMPDEST STOP JUMPDEST PUSH2 0x379 PUSH1 0x4 DUP1 CALLDATASIZE SUB DUP2 ADD SWAP1 PUSH2 0x374 SWAP2 SWAP1 PUSH2 0x379B JUMP JUMPDEST PUSH2 0x149A JUMP JUMPDEST STOP JUMPDEST PUSH2 0x395 PUSH1 0x4 DUP1 CALLDATASIZE SUB DUP2 ADD SWAP1 PUSH2 0x390 SWAP2 SWAP1 PUSH2 0x36AE JUMP JUMPDEST PUSH2 0x1791 JUMP JUMPDEST STOP JUMPDEST PUSH2 0x39F PUSH2 0x1B11 JUMP JUMPDEST PUSH1 0x40 MLOAD PUSH2 0x3AC SWAP2 SWAP1 PUSH2 0x3E51 JUMP JUMPDEST PUSH1 0x40 MLOAD DUP1 SWAP2 SUB SWAP1 RETURN JUMPDEST PUSH2 0x3CF PUSH1 0x4 DUP1 CALLDATASIZE SUB DUP2 ADD SWAP1 PUSH2 0x3CA SWAP2 SWAP1 PUSH2 0x3641 JUMP JUMPDEST PUSH2 0x1B17 JUMP JUMPDEST STOP JUMPDEST PUSH2 0x3EB PUSH1 0x4 DUP1 CALLDATASIZE SUB DUP2 ADD SWAP1 PUSH2 0x3E6 SWAP2 SWAP1 PUSH2 0x36AE JUMP JUMPDEST PUSH2 0x1C40 JUMP JUMPDEST STOP JUMPDEST PUSH2 0x407 PUSH1 0x4 DUP1 CALLDATASIZE SUB DUP2 ADD SWAP1 PUSH2 0x402 SWAP2 SWAP1 PUSH2 0x36AE JUMP JUMPDEST PUSH2 0x1DEE JUMP JUMPDEST STOP JUMPDEST PUSH2 0x411 PUSH2 0x1F27 JUMP JUMPDEST PUSH1 0x40 MLOAD PUSH2 0x41E SWAP2 SWAP1 PUSH2 0x3E51 JUMP JUMPDEST PUSH1 0x40 MLOAD DUP1 SWAP2 SUB SWAP1 RETURN JUMPDEST PUSH2 0x441 PUSH1 0x4 DUP1 CALLDATASIZE SUB DUP2 ADD SWAP1 PUSH2 0x43C SWAP2 SWAP1 PUSH2 0x36AE JUMP JUMPDEST PUSH2 0x1F2D JUMP JUMPDEST STOP JUMPDEST PUSH2 0x45D PUSH1 0x4 DUP1 CALLDATASIZE SUB DUP2 ADD SWAP1 PUSH2 0x458 SWAP2 SWAP1 PUSH2 0x36AE JUMP JUMPDEST PUSH2 0x1FB3 JUMP JUMPDEST PUSH1 0x40 MLOAD PUSH2 0x46B SWAP3 SWAP2 SWAP1 PUSH2 0x3C0B JUMP JUMPDEST PUSH1 0x40 MLOAD DUP1 SWAP2 SUB SWAP1 RETURN JUMPDEST PUSH2 0x47C PUSH2 0x2007 JUMP JUMPDEST STOP JUMPDEST PUSH2 0x498 PUSH1 0x4 DUP1 CALLDATASIZE SUB DUP2 ADD SWAP1 PUSH2 0x493 SWAP2 SWAP1 PUSH2 0x37DB JUMP JUMPDEST PUSH2 0x203A JUMP JUMPDEST STOP JUMPDEST PUSH2 0x4A2 PUSH2 0x2146 JUMP JUMPDEST STOP JUMPDEST PUSH2 0x4AC PUSH2 0x21CE JUMP JUMPDEST PUSH1 0x40 MLOAD PUSH2 0x4B9 SWAP2 SWAP1 PUSH2 0x3B07 JUMP JUMPDEST PUSH1 0x40 MLOAD DUP1 SWAP2 SUB SWAP1 RETURN JUMPDEST PUSH2 0x4CA PUSH2 0x21F4 JUMP JUMPDEST PUSH1 0x40 MLOAD PUSH2 0x4D7 SWAP2 SWAP1 PUSH2 0x3C34 JUMP JUMPDEST PUSH1 0x40 MLOAD DUP1 SWAP2 SUB SWAP1 RETURN JUMPDEST PUSH2 0x4E8 PUSH2 0x221A JUMP JUMPDEST PUSH1 0x40 MLOAD PUSH2 0x4F5 SWAP2 SWAP1 PUSH2 0x3B07 JUMP JUMPDEST PUSH1 0x40 MLOAD DUP1 SWAP2 SUB SWAP1 RETURN JUMPDEST PUSH2 0x506 PUSH2 0x2240 JUMP JUMPDEST PUSH1 0x40 MLOAD PUSH2 0x513 SWAP2 SWAP1 PUSH2 0x3E51 JUMP JUMPDEST PUSH1 0x40 MLOAD DUP1 SWAP2 SUB SWAP1 RETURN JUMPDEST PUSH2 0x536 PUSH1 0x4 DUP1 CALLDATASIZE SUB DUP2 ADD SWAP1 PUSH2 0x531 SWAP2 SWAP1 PUSH2 0x35BA JUMP JUMPDEST PUSH2 0x2246 JUMP JUMPDEST PUSH1 0x40 MLOAD PUSH2 0x543 SWAP2 SWAP1 PUSH2 0x3E51 JUMP JUMPDEST PUSH1 0x40 MLOAD DUP1 SWAP2 SUB SWAP1 RETURN JUMPDEST PUSH2 0x554 PUSH2 0x228F JUMP JUMPDEST PUSH1 0x40 MLOAD PUSH2 0x561 SWAP2 SWAP1 PUSH2 0x3B07 JUMP JUMPDEST PUSH1 0x40 MLOAD DUP1 SWAP2 SUB SWAP1 RETURN JUMPDEST PUSH2 0x584 PUSH1 0x4 DUP1 CALLDATASIZE SUB DUP2 ADD SWAP1 PUSH2 0x57F SWAP2 SWAP1 PUSH2 0x379B JUMP JUMPDEST PUSH2 0x22B8 JUMP JUMPDEST PUSH1 0x40 MLOAD PUSH2 0x591 SWAP2 SWAP1 PUSH2 0x3E51 JUMP JUMPDEST PUSH1 0x40 MLOAD DUP1 SWAP2 SUB SWAP1 RETURN JUMPDEST PUSH2 0x5B4 PUSH1 0x4 DUP1 CALLDATASIZE SUB DUP2 ADD SWAP1 PUSH2 0x5AF SWAP2 SWAP1 PUSH2 0x3708 JUMP JUMPDEST PUSH2 0x22E9 JUMP JUMPDEST PUSH1 0x40 MLOAD PUSH2 0x5C2 SWAP3 SWAP2 SWAP1 PUSH2 0x3E6C JUMP JUMPDEST PUSH1 0x40 MLOAD DUP1 SWAP2 SUB SWAP1 RETURN JUMPDEST PUSH2 0x5E5 PUSH1 0x4 DUP1 CALLDATASIZE SUB DUP2 ADD SWAP1 PUSH2 0x5E0 SWAP2 SWAP1 PUSH2 0x379B JUMP JUMPDEST PUSH2 0x231A JUMP JUMPDEST STOP JUMPDEST PUSH2 0x5EF PUSH2 0x23C4 JUMP JUMPDEST PUSH1 0x40 MLOAD PUSH2 0x5FC SWAP2 SWAP1 PUSH2 0x3BAB JUMP JUMPDEST PUSH1 0x40 MLOAD DUP1 SWAP2 SUB SWAP1 RETURN JUMPDEST PUSH2 0x61F PUSH1 0x4 DUP1 CALLDATASIZE SUB DUP2 ADD SWAP1 PUSH2 0x61A SWAP2 SWAP1 PUSH2 0x3708 JUMP JUMPDEST PUSH2 0x23EA JUMP JUMPDEST STOP JUMPDEST PUSH2 0x63B PUSH1 0x4 DUP1 CALLDATASIZE SUB DUP2 ADD SWAP1 PUSH2 0x636 SWAP2 SWAP1 PUSH2 0x35BA JUMP JUMPDEST PUSH2 0x270F JUMP JUMPDEST PUSH1 0x40 MLOAD PUSH2 0x648 SWAP2 SWAP1 PUSH2 0x3E51 JUMP JUMPDEST PUSH1 0x40 MLOAD DUP1 SWAP2 SUB SWAP1 RETURN JUMPDEST PUSH2 0x66B PUSH1 0x4 DUP1 CALLDATASIZE SUB DUP2 ADD SWAP1 PUSH2 0x666 SWAP2 SWAP1 PUSH2 0x379B JUMP JUMPDEST PUSH2 0x2727 JUMP JUMPDEST STOP JUMPDEST PUSH2 0x687 PUSH1 0x4 DUP1 CALLDATASIZE SUB DUP2 ADD SWAP1 PUSH2 0x682 SWAP2 SWAP1 PUSH2 0x35BA JUMP JUMPDEST PUSH2 0x29E7 JUMP JUMPDEST STOP JUMPDEST PUSH2 0x6A3 PUSH1 0x4 DUP1 CALLDATASIZE SUB DUP2 ADD SWAP1 PUSH2 0x69E SWAP2 SWAP1 PUSH2 0x3708 JUMP JUMPDEST PUSH2 0x2ADF JUMP JUMPDEST PUSH1 0x40 MLOAD PUSH2 0x6B0 SWAP2 SWAP1 PUSH2 0x3E51 JUMP JUMPDEST PUSH1 0x40 MLOAD DUP1 SWAP2 SUB SWAP1 RETURN JUMPDEST PUSH1 0x0 PUSH1 0x6 DUP1 SLOAD SWAP1 POP SWAP1 POP SWAP1 JUMP JUMPDEST PUSH2 0x6CE PUSH2 0x2D13 JUMP JUMPDEST PUSH20 0xFFFFFFFFFFFFFFFFFFFFFFFFFFFFFFFFFFFFFFFF AND PUSH2 0x6EC PUSH2 0x228F JUMP JUMPDEST PUSH20 0xFFFFFFFFFFFFFFFFFFFFFFFFFFFFFFFFFFFFFFFF AND EQ PUSH2 0x742 JUMPI PUSH1 0x40 MLOAD PUSH32 0x8C379A000000000000000000000000000000000000000000000000000000000 DUP2 MSTORE PUSH1 0x4 ADD PUSH2 0x739 SWAP1 PUSH2 0x3D51 JUMP JUMPDEST PUSH1 0x40 MLOAD DUP1 SWAP2 SUB SWAP1 REVERT JUMPDEST DUP1 PUSH1 0xA PUSH1 0x0 PUSH2 0x100 EXP DUP2 SLOAD DUP2 PUSH20 0xFFFFFFFFFFFFFFFFFFFFFFFFFFFFFFFFFFFFFFFF MUL NOT AND SWAP1 DUP4 PUSH20 0xFFFFFFFFFFFFFFFFFFFFFFFFFFFFFFFFFFFFFFFF AND MUL OR SWAP1 SSTORE POP POP JUMP JUMPDEST PUSH1 0x0 PUSH1 0x6 PUSH1 0x0 DUP2 SLOAD DUP2 LT PUSH2 0x79D JUMPI PUSH2 0x79C PUSH2 0x418E JUMP JUMPDEST JUMPDEST SWAP1 PUSH1 0x0 MSTORE PUSH1 0x20 PUSH1 0x0 KECCAK256 SWAP1 PUSH1 0x4 MUL ADD SWAP1 POP PUSH1 0x0 PUSH1 0x7 PUSH1 0x0 DUP1 DUP2 MSTORE PUSH1 0x20 ADD SWAP1 DUP2 MSTORE PUSH1 0x20 ADD PUSH1 0x0 KECCAK256 PUSH1 0x0 CALLER PUSH20 0xFFFFFFFFFFFFFFFFFFFFFFFFFFFFFFFFFFFFFFFF AND PUSH20 0xFFFFFFFFFFFFFFFFFFFFFFFFFFFFFFFFFFFFFFFF AND DUP2 MSTORE PUSH1 0x20 ADD SWAP1 DUP2 MSTORE PUSH1 0x20 ADD PUSH1 0x0 KECCAK256 SWAP1 POP DUP3 DUP2 PUSH1 0x0 ADD SLOAD LT ISZERO PUSH2 0x848 JUMPI PUSH1 0x40 MLOAD PUSH32 0x8C379A000000000000000000000000000000000000000000000000000000000 DUP2 MSTORE PUSH1 0x4 ADD PUSH2 0x83F SWAP1 PUSH2 0x3DB1 JUMP JUMPDEST PUSH1 0x40 MLOAD DUP1 SWAP2 SUB SWAP1 REVERT JUMPDEST PUSH2 0x852 PUSH1 0x0 PUSH2 0x1C40 JUMP JUMPDEST PUSH1 0x0 PUSH2 0x89C DUP3 PUSH1 0x1 ADD SLOAD PUSH2 0x88E PUSH5 0xE8D4A51000 PUSH2 0x880 DUP8 PUSH1 0x3 ADD SLOAD DUP8 PUSH1 0x0 ADD SLOAD PUSH2 0x2D1B SWAP1 SWAP2 SWAP1 PUSH4 0xFFFFFFFF AND JUMP JUMPDEST PUSH2 0x2D96 SWAP1 SWAP2 SWAP1 PUSH4 0xFFFFFFFF AND JUMP JUMPDEST PUSH2 0x2DE0 SWAP1 SWAP2 SWAP1 PUSH4 0xFFFFFFFF AND JUMP JUMPDEST SWAP1 POP PUSH1 0x0 DUP2 GT ISZERO PUSH2 0x93D JUMPI PUSH2 0x8F9 DUP2 PUSH1 0xC PUSH1 0x0 CALLER PUSH20 0xFFFFFFFFFFFFFFFFFFFFFFFFFFFFFFFFFFFFFFFF AND PUSH20 0xFFFFFFFFFFFFFFFFFFFFFFFFFFFFFFFFFFFFFFFF AND DUP2 MSTORE PUSH1 0x20 ADD SWAP1 DUP2 MSTORE PUSH1 0x20 ADD PUSH1 0x0 KECCAK256 SLOAD PUSH2 0x2E2A SWAP1 SWAP2 SWAP1 PUSH4 0xFFFFFFFF AND JUMP JUMPDEST PUSH1 0xC PUSH1 0x0 CALLER PUSH20 0xFFFFFFFFFFFFFFFFFFFFFFFFFFFFFFFFFFFFFFFF AND PUSH20 0xFFFFFFFFFFFFFFFFFFFFFFFFFFFFFFFFFFFFFFFF AND DUP2 MSTORE PUSH1 0x20 ADD SWAP1 DUP2 MSTORE PUSH1 0x20 ADD PUSH1 0x0 KECCAK256 DUP2 SWAP1 SSTORE POP JUMPDEST PUSH1 0x0 DUP5 GT ISZERO PUSH2 0x9B5 JUMPI PUSH2 0x95D DUP5 DUP4 PUSH1 0x0 ADD SLOAD PUSH2 0x2DE0 SWAP1 SWAP2 SWAP1 PUSH4 0xFFFFFFFF AND JUMP JUMPDEST DUP3 PUSH1 0x0 ADD DUP2 SWAP1 SSTORE POP PUSH2 0x9B4 CALLER DUP6 DUP6 PUSH1 0x0 ADD PUSH1 0x0 SWAP1 SLOAD SWAP1 PUSH2 0x100 EXP SWAP1 DIV PUSH20 0xFFFFFFFFFFFFFFFFFFFFFFFFFFFFFFFFFFFFFFFF AND PUSH20 0xFFFFFFFFFFFFFFFFFFFFFFFFFFFFFFFFFFFFFFFF AND PUSH2 0x2E88 SWAP1 SWAP3 SWAP2 SWAP1 PUSH4 0xFFFFFFFF AND JUMP JUMPDEST JUMPDEST PUSH2 0x9E7 PUSH5 0xE8D4A51000 PUSH2 0x9D9 DUP6 PUSH1 0x3 ADD SLOAD DUP6 PUSH1 0x0 ADD SLOAD PUSH2 0x2D1B SWAP1 SWAP2 SWAP1 PUSH4 0xFFFFFFFF AND JUMP JUMPDEST PUSH2 0x2D96 SWAP1 SWAP2 SWAP1 PUSH4 0xFFFFFFFF AND JUMP JUMPDEST DUP3 PUSH1 0x1 ADD DUP2 SWAP1 SSTORE POP PUSH1 0x0 CALLER PUSH20 0xFFFFFFFFFFFFFFFFFFFFFFFFFFFFFFFFFFFFFFFF AND PUSH32 0xF279E6A1F5E320CCA91135676D9CB6E44CA8A08C0B88342BCDB1144F6511B568 DUP7 PUSH1 0x40 MLOAD PUSH2 0xA37 SWAP2 SWAP1 PUSH2 0x3E51 JUMP JUMPDEST PUSH1 0x40 MLOAD DUP1 SWAP2 SUB SWAP1 LOG3 POP POP POP POP JUMP JUMPDEST PUSH1 0x6 DUP2 DUP2 SLOAD DUP2 LT PUSH2 0xA55 JUMPI PUSH1 0x0 DUP1 REVERT JUMPDEST SWAP1 PUSH1 0x0 MSTORE PUSH1 0x20 PUSH1 0x0 KECCAK256 SWAP1 PUSH1 0x4 MUL ADD PUSH1 0x0 SWAP2 POP SWAP1 POP DUP1 PUSH1 0x0 ADD PUSH1 0x0 SWAP1 SLOAD SWAP1 PUSH2 0x100 EXP SWAP1 DIV PUSH20 0xFFFFFFFFFFFFFFFFFFFFFFFFFFFFFFFFFFFFFFFF AND SWAP1 DUP1 PUSH1 0x1 ADD SLOAD SWAP1 DUP1 PUSH1 0x2 ADD SLOAD SWAP1 DUP1 PUSH1 0x3 ADD SLOAD SWAP1 POP DUP5 JUMP JUMPDEST PUSH1 0x8 SLOAD DUP2 JUMP JUMPDEST PUSH1 0x0 PUSH1 0x6 DUP3 DUP2 SLOAD DUP2 LT PUSH2 0xAC1 JUMPI PUSH2 0xAC0 PUSH2 0x418E JUMP JUMPDEST JUMPDEST SWAP1 PUSH1 0x0 MSTORE PUSH1 0x20 PUSH1 0x0 KECCAK256 SWAP1 PUSH1 0x4 MUL ADD SWAP1 POP PUSH1 0x0 PUSH1 0x7 PUSH1 0x0 DUP5 DUP2 MSTORE PUSH1 0x20 ADD SWAP1 DUP2 MSTORE PUSH1 0x20 ADD PUSH1 0x0 KECCAK256 PUSH1 0x0 CALLER PUSH20 0xFFFFFFFFFFFFFFFFFFFFFFFFFFFFFFFFFFFFFFFF AND PUSH20 0xFFFFFFFFFFFFFFFFFFFFFFFFFFFFFFFFFFFFFFFF AND DUP2 MSTORE PUSH1 0x20 ADD SWAP1 DUP2 MSTORE PUSH1 0x20 ADD PUSH1 0x0 KECCAK256 SWAP1 POP PUSH1 0x0 DUP3 PUSH1 0x3 ADD SLOAD SWAP1 POP PUSH1 0x0 DUP4 PUSH1 0x0 ADD PUSH1 0x0 SWAP1 SLOAD SWAP1 PUSH2 0x100 EXP SWAP1 DIV PUSH20 0xFFFFFFFFFFFFFFFFFFFFFFFFFFFFFFFFFFFFFFFF AND PUSH20 0xFFFFFFFFFFFFFFFFFFFFFFFFFFFFFFFFFFFFFFFF AND PUSH4 0x70A08231 ADDRESS PUSH1 0x40 MLOAD DUP3 PUSH4 0xFFFFFFFF AND PUSH1 0xE0 SHL DUP2 MSTORE PUSH1 0x4 ADD PUSH2 0xB8D SWAP2 SWAP1 PUSH2 0x3B07 JUMP JUMPDEST PUSH1 0x20 PUSH1 0x40 MLOAD DUP1 DUP4 SUB DUP2 DUP7 DUP1 EXTCODESIZE ISZERO DUP1 ISZERO PUSH2 0xBA5 JUMPI PUSH1 0x0 DUP1 REVERT JUMPDEST POP GAS STATICCALL ISZERO DUP1 ISZERO PUSH2 0xBB9 JUMPI RETURNDATASIZE PUSH1 0x0 DUP1 RETURNDATACOPY RETURNDATASIZE PUSH1 0x0 REVERT JUMPDEST POP POP POP POP PUSH1 0x40 MLOAD RETURNDATASIZE PUSH1 0x1F NOT PUSH1 0x1F DUP3 ADD AND DUP3 ADD DUP1 PUSH1 0x40 MSTORE POP DUP2 ADD SWAP1 PUSH2 0xBDD SWAP2 SWAP1 PUSH2 0x36DB JUMP JUMPDEST SWAP1 POP DUP4 PUSH1 0x2 ADD SLOAD NUMBER GT DUP1 ISZERO PUSH2 0xBF3 JUMPI POP PUSH1 0x0 DUP2 EQ ISZERO JUMPDEST ISZERO PUSH2 0xC8E JUMPI PUSH1 0x0 PUSH2 0xC08 DUP6 PUSH1 0x2 ADD SLOAD NUMBER PUSH2 0x22B8 JUMP JUMPDEST SWAP1 POP PUSH1 0x0 PUSH2 0xC4B PUSH1 0x8 SLOAD PUSH2 0xC3D DUP9 PUSH1 0x1 ADD SLOAD PUSH2 0xC2F PUSH1 0x3 SLOAD DUP8 PUSH2 0x2D1B SWAP1 SWAP2 SWAP1 PUSH4 0xFFFFFFFF AND JUMP JUMPDEST PUSH2 0x2D1B SWAP1 SWAP2 SWAP1 PUSH4 0xFFFFFFFF AND JUMP JUMPDEST PUSH2 0x2D96 SWAP1 SWAP2 SWAP1 PUSH4 0xFFFFFFFF AND JUMP JUMPDEST SWAP1 POP PUSH2 0xC89 PUSH2 0xC7A DUP5 PUSH2 0xC6C PUSH5 0xE8D4A51000 DUP6 PUSH2 0x2D1B SWAP1 SWAP2 SWAP1 PUSH4 0xFFFFFFFF AND JUMP JUMPDEST PUSH2 0x2D96 SWAP1 SWAP2 SWAP1 PUSH4 0xFFFFFFFF AND JUMP JUMPDEST DUP6 PUSH2 0x2E2A SWAP1 SWAP2 SWAP1 PUSH4 0xFFFFFFFF AND JUMP JUMPDEST SWAP4 POP POP POP JUMPDEST PUSH1 0x0 PUSH2 0xCD4 DUP5 PUSH1 0x1 ADD SLOAD PUSH2 0xCC6 PUSH5 0xE8D4A51000 PUSH2 0xCB8 DUP8 DUP10 PUSH1 0x0 ADD SLOAD PUSH2 0x2D1B SWAP1 SWAP2 SWAP1 PUSH4 0xFFFFFFFF AND JUMP JUMPDEST PUSH2 0x2D96 SWAP1 SWAP2 SWAP1 PUSH4 0xFFFFFFFF AND JUMP JUMPDEST PUSH2 0x2DE0 SWAP1 SWAP2 SWAP1 PUSH4 0xFFFFFFFF AND JUMP JUMPDEST SWAP1 POP PUSH1 0x0 PUSH1 0x1 DUP9 DUP2 SLOAD DUP2 LT PUSH2 0xCEC JUMPI PUSH2 0xCEB PUSH2 0x418E JUMP JUMPDEST JUMPDEST SWAP1 PUSH1 0x0 MSTORE PUSH1 0x20 PUSH1 0x0 KECCAK256 SWAP1 PUSH1 0x2 MUL ADD SWAP1 POP PUSH1 0x0 PUSH2 0xD50 PUSH1 0xC PUSH1 0x0 CALLER PUSH20 0xFFFFFFFFFFFFFFFFFFFFFFFFFFFFFFFFFFFFFFFF AND PUSH20 0xFFFFFFFFFFFFFFFFFFFFFFFFFFFFFFFFFFFFFFFF AND DUP2 MSTORE PUSH1 0x20 ADD SWAP1 DUP2 MSTORE PUSH1 0x20 ADD PUSH1 0x0 KECCAK256 SLOAD DUP5 PUSH2 0x2E2A SWAP1 SWAP2 SWAP1 PUSH4 0xFFFFFFFF AND JUMP JUMPDEST SWAP1 POP DUP2 PUSH1 0x1 ADD SLOAD DUP2 GT ISZERO PUSH2 0xD87 JUMPI PUSH1 0x0 DUP9 EQ ISZERO PUSH2 0xD72 JUMPI PUSH2 0xD71 PUSH1 0x0 PUSH2 0x786 JUMP JUMPDEST JUMPDEST PUSH1 0x0 DUP9 EQ PUSH2 0xD86 JUMPI PUSH2 0xD85 DUP9 PUSH1 0x0 PUSH2 0x149A JUMP JUMPDEST JUMPDEST JUMPDEST PUSH1 0xC PUSH1 0x0 CALLER PUSH20 0xFFFFFFFFFFFFFFFFFFFFFFFFFFFFFFFFFFFFFFFF AND PUSH20 0xFFFFFFFFFFFFFFFFFFFFFFFFFFFFFFFFFFFFFFFF AND DUP2 MSTORE PUSH1 0x20 ADD SWAP1 DUP2 MSTORE PUSH1 0x20 ADD PUSH1 0x0 KECCAK256 SLOAD DUP3 PUSH1 0x1 ADD SLOAD LT PUSH2 0xE0C JUMPI PUSH1 0x40 MLOAD PUSH32 0x8C379A000000000000000000000000000000000000000000000000000000000 DUP2 MSTORE PUSH1 0x4 ADD PUSH2 0xE03 SWAP1 PUSH2 0x3C91 JUMP JUMPDEST PUSH1 0x40 MLOAD DUP1 SWAP2 SUB SWAP1 REVERT JUMPDEST PUSH2 0xE62 DUP3 PUSH1 0x1 ADD SLOAD PUSH1 0xC PUSH1 0x0 CALLER PUSH20 0xFFFFFFFFFFFFFFFFFFFFFFFFFFFFFFFFFFFFFFFF AND PUSH20 0xFFFFFFFFFFFFFFFFFFFFFFFFFFFFFFFFFFFFFFFF AND DUP2 MSTORE PUSH1 0x20 ADD SWAP1 DUP2 MSTORE PUSH1 0x20 ADD PUSH1 0x0 KECCAK256 SLOAD PUSH2 0x2DE0 SWAP1 SWAP2 SWAP1 PUSH4 0xFFFFFFFF AND JUMP JUMPDEST PUSH1 0xC PUSH1 0x0 CALLER PUSH20 0xFFFFFFFFFFFFFFFFFFFFFFFFFFFFFFFFFFFFFFFF AND PUSH20 0xFFFFFFFFFFFFFFFFFFFFFFFFFFFFFFFFFFFFFFFF AND DUP2 MSTORE PUSH1 0x20 ADD SWAP1 DUP2 MSTORE PUSH1 0x20 ADD PUSH1 0x0 KECCAK256 DUP2 SWAP1 SSTORE POP DUP2 PUSH1 0x0 ADD PUSH1 0x0 SWAP1 SLOAD SWAP1 PUSH2 0x100 EXP SWAP1 DIV PUSH20 0xFFFFFFFFFFFFFFFFFFFFFFFFFFFFFFFFFFFFFFFF AND PUSH20 0xFFFFFFFFFFFFFFFFFFFFFFFFFFFFFFFFFFFFFFFF AND PUSH4 0x17E5883C CALLER PUSH1 0x40 MLOAD DUP3 PUSH4 0xFFFFFFFF AND PUSH1 0xE0 SHL DUP2 MSTORE PUSH1 0x4 ADD PUSH2 0xF02 SWAP2 SWAP1 PUSH2 0x3B07 JUMP JUMPDEST PUSH1 0x0 PUSH1 0x40 MLOAD DUP1 DUP4 SUB DUP2 PUSH1 0x0 DUP8 DUP1 EXTCODESIZE ISZERO DUP1 ISZERO PUSH2 0xF1C JUMPI PUSH1 0x0 DUP1 REVERT JUMPDEST POP GAS CALL ISZERO DUP1 ISZERO PUSH2 0xF30 JUMPI RETURNDATASIZE PUSH1 0x0 DUP1 RETURNDATACOPY RETURNDATASIZE PUSH1 0x0 REVERT JUMPDEST POP POP POP POP POP POP POP POP POP POP POP POP POP JUMP JUMPDEST PUSH2 0xF47 PUSH2 0x2D13 JUMP JUMPDEST PUSH20 0xFFFFFFFFFFFFFFFFFFFFFFFFFFFFFFFFFFFFFFFF AND PUSH2 0xF65 PUSH2 0x228F JUMP JUMPDEST PUSH20 0xFFFFFFFFFFFFFFFFFFFFFFFFFFFFFFFFFFFFFFFF AND EQ PUSH2 0xFBB JUMPI PUSH1 0x40 MLOAD PUSH32 0x8C379A000000000000000000000000000000000000000000000000000000000 DUP2 MSTORE PUSH1 0x4 ADD PUSH2 0xFB2 SWAP1 PUSH2 0x3D51 JUMP JUMPDEST PUSH1 0x40 MLOAD DUP1 SWAP2 SUB SWAP1 REVERT JUMPDEST DUP1 ISZERO PUSH2 0xFCA JUMPI PUSH2 0xFC9 PUSH2 0x2007 JUMP JUMPDEST JUMPDEST PUSH1 0x0 PUSH1 0x9 SLOAD NUMBER GT PUSH2 0xFDD JUMPI PUSH1 0x9 SLOAD PUSH2 0xFDF JUMP JUMPDEST NUMBER JUMPDEST SWAP1 POP PUSH2 0xFF6 DUP5 PUSH1 0x8 SLOAD PUSH2 0x2E2A SWAP1 SWAP2 SWAP1 PUSH4 0xFFFFFFFF AND JUMP JUMPDEST PUSH1 0x8 DUP2 SWAP1 SSTORE POP PUSH1 0x6 PUSH1 0x40 MLOAD DUP1 PUSH1 0x80 ADD PUSH1 0x40 MSTORE DUP1 DUP6 PUSH20 0xFFFFFFFFFFFFFFFFFFFFFFFFFFFFFFFFFFFFFFFF AND DUP2 MSTORE PUSH1 0x20 ADD DUP7 DUP2 MSTORE PUSH1 0x20 ADD DUP4 DUP2 MSTORE PUSH1 0x20 ADD PUSH1 0x0 DUP2 MSTORE POP SWAP1 DUP1 PUSH1 0x1 DUP2 SLOAD ADD DUP1 DUP3 SSTORE DUP1 SWAP2 POP POP PUSH1 0x1 SWAP1 SUB SWAP1 PUSH1 0x0 MSTORE PUSH1 0x20 PUSH1 0x0 KECCAK256 SWAP1 PUSH1 0x4 MUL ADD PUSH1 0x0 SWAP1 SWAP2 SWAP1 SWAP2 SWAP1 SWAP2 POP PUSH1 0x0 DUP3 ADD MLOAD DUP2 PUSH1 0x0 ADD PUSH1 0x0 PUSH2 0x100 EXP DUP2 SLOAD DUP2 PUSH20 0xFFFFFFFFFFFFFFFFFFFFFFFFFFFFFFFFFFFFFFFF MUL NOT AND SWAP1 DUP4 PUSH20 0xFFFFFFFFFFFFFFFFFFFFFFFFFFFFFFFFFFFFFFFF AND MUL OR SWAP1 SSTORE POP PUSH1 0x20 DUP3 ADD MLOAD DUP2 PUSH1 0x1 ADD SSTORE PUSH1 0x40 DUP3 ADD MLOAD DUP2 PUSH1 0x2 ADD SSTORE PUSH1 0x60 DUP3 ADD MLOAD DUP2 PUSH1 0x3 ADD SSTORE POP POP POP POP POP POP JUMP JUMPDEST PUSH2 0x10D4 PUSH2 0x2D13 JUMP JUMPDEST PUSH20 0xFFFFFFFFFFFFFFFFFFFFFFFFFFFFFFFFFFFFFFFF AND PUSH2 0x10F2 PUSH2 0x228F JUMP JUMPDEST PUSH20 0xFFFFFFFFFFFFFFFFFFFFFFFFFFFFFFFFFFFFFFFF AND EQ PUSH2 0x1148 JUMPI PUSH1 0x40 MLOAD PUSH32 0x8C379A000000000000000000000000000000000000000000000000000000000 DUP2 MSTORE PUSH1 0x4 ADD PUSH2 0x113F SWAP1 PUSH2 0x3D51 JUMP JUMPDEST PUSH1 0x40 MLOAD DUP1 SWAP2 SUB SWAP1 REVERT JUMPDEST DUP1 PUSH1 0x5 PUSH1 0x0 PUSH2 0x100 EXP DUP2 SLOAD DUP2 PUSH20 0xFFFFFFFFFFFFFFFFFFFFFFFFFFFFFFFFFFFFFFFF MUL NOT AND SWAP1 DUP4 PUSH20 0xFFFFFFFFFFFFFFFFFFFFFFFFFFFFFFFFFFFFFFFF AND MUL OR SWAP1 SSTORE POP POP JUMP JUMPDEST PUSH2 0x1194 PUSH2 0x2D13 JUMP JUMPDEST PUSH20 0xFFFFFFFFFFFFFFFFFFFFFFFFFFFFFFFFFFFFFFFF AND PUSH2 0x11B2 PUSH2 0x228F JUMP JUMPDEST PUSH20 0xFFFFFFFFFFFFFFFFFFFFFFFFFFFFFFFFFFFFFFFF AND EQ PUSH2 0x1208 JUMPI PUSH1 0x40 MLOAD PUSH32 0x8C379A000000000000000000000000000000000000000000000000000000000 DUP2 MSTORE PUSH1 0x4 ADD PUSH2 0x11FF SWAP1 PUSH2 0x3D51 JUMP JUMPDEST PUSH1 0x40 MLOAD DUP1 SWAP2 SUB SWAP1 REVERT JUMPDEST DUP1 PUSH1 0x3 DUP2 SWAP1 SSTORE POP POP JUMP JUMPDEST PUSH1 0x0 PUSH1 0x6 PUSH1 0x0 DUP2 SLOAD DUP2 LT PUSH2 0x1229 JUMPI PUSH2 0x1228 PUSH2 0x418E JUMP JUMPDEST JUMPDEST SWAP1 PUSH1 0x0 MSTORE PUSH1 0x20 PUSH1 0x0 KECCAK256 SWAP1 PUSH1 0x4 MUL ADD SWAP1 POP PUSH1 0x0 PUSH1 0x7 PUSH1 0x0 DUP1 DUP2 MSTORE PUSH1 0x20 ADD SWAP1 DUP2 MSTORE PUSH1 0x20 ADD PUSH1 0x0 KECCAK256 PUSH1 0x0 CALLER PUSH20 0xFFFFFFFFFFFFFFFFFFFFFFFFFFFFFFFFFFFFFFFF AND PUSH20 0xFFFFFFFFFFFFFFFFFFFFFFFFFFFFFFFFFFFFFFFF AND DUP2 MSTORE PUSH1 0x20 ADD SWAP1 DUP2 MSTORE PUSH1 0x20 ADD PUSH1 0x0 KECCAK256 SWAP1 POP PUSH2 0x1297 PUSH1 0x0 PUSH2 0x1C40 JUMP JUMPDEST PUSH1 0x0 DUP2 PUSH1 0x0 ADD SLOAD GT ISZERO PUSH2 0x1391 JUMPI PUSH1 0x0 PUSH2 0x12EE DUP3 PUSH1 0x1 ADD SLOAD PUSH2 0x12E0 PUSH5 0xE8D4A51000 PUSH2 0x12D2 DUP8 PUSH1 0x3 ADD SLOAD DUP8 PUSH1 0x0 ADD SLOAD PUSH2 0x2D1B SWAP1 SWAP2 SWAP1 PUSH4 0xFFFFFFFF AND JUMP JUMPDEST PUSH2 0x2D96 SWAP1 SWAP2 SWAP1 PUSH4 0xFFFFFFFF AND JUMP JUMPDEST PUSH2 0x2DE0 SWAP1 SWAP2 SWAP1 PUSH4 0xFFFFFFFF AND JUMP JUMPDEST SWAP1 POP PUSH1 0x0 DUP2 GT ISZERO PUSH2 0x138F JUMPI PUSH2 0x134B DUP2 PUSH1 0xC PUSH1 0x0 CALLER PUSH20 0xFFFFFFFFFFFFFFFFFFFFFFFFFFFFFFFFFFFFFFFF AND PUSH20 0xFFFFFFFFFFFFFFFFFFFFFFFFFFFFFFFFFFFFFFFF AND DUP2 MSTORE PUSH1 0x20 ADD SWAP1 DUP2 MSTORE PUSH1 0x20 ADD PUSH1 0x0 KECCAK256 SLOAD PUSH2 0x2E2A SWAP1 SWAP2 SWAP1 PUSH4 0xFFFFFFFF AND JUMP JUMPDEST PUSH1 0xC PUSH1 0x0 CALLER PUSH20 0xFFFFFFFFFFFFFFFFFFFFFFFFFFFFFFFFFFFFFFFF AND PUSH20 0xFFFFFFFFFFFFFFFFFFFFFFFFFFFFFFFFFFFFFFFF AND DUP2 MSTORE PUSH1 0x20 ADD SWAP1 DUP2 MSTORE PUSH1 0x20 ADD PUSH1 0x0 KECCAK256 DUP2 SWAP1 SSTORE POP JUMPDEST POP JUMPDEST PUSH1 0x0 DUP4 GT ISZERO PUSH2 0x140B JUMPI PUSH2 0x13EB CALLER ADDRESS DUP6 DUP6 PUSH1 0x0 ADD PUSH1 0x0 SWAP1 SLOAD SWAP1 PUSH2 0x100 EXP SWAP1 DIV PUSH20 0xFFFFFFFFFFFFFFFFFFFFFFFFFFFFFFFFFFFFFFFF AND PUSH20 0xFFFFFFFFFFFFFFFFFFFFFFFFFFFFFFFFFFFFFFFF AND PUSH2 0x2F0E SWAP1 SWAP4 SWAP3 SWAP2 SWAP1 PUSH4 0xFFFFFFFF AND JUMP JUMPDEST PUSH2 0x1402 DUP4 DUP3 PUSH1 0x0 ADD SLOAD PUSH2 0x2E2A SWAP1 SWAP2 SWAP1 PUSH4 0xFFFFFFFF AND JUMP JUMPDEST DUP2 PUSH1 0x0 ADD DUP2 SWAP1 SSTORE POP JUMPDEST PUSH2 0x143D PUSH5 0xE8D4A51000 PUSH2 0x142F DUP5 PUSH1 0x3 ADD SLOAD DUP5 PUSH1 0x0 ADD SLOAD PUSH2 0x2D1B SWAP1 SWAP2 SWAP1 PUSH4 0xFFFFFFFF AND JUMP JUMPDEST PUSH2 0x2D96 SWAP1 SWAP2 SWAP1 PUSH4 0xFFFFFFFF AND JUMP JUMPDEST DUP2 PUSH1 0x1 ADD DUP2 SWAP1 SSTORE POP PUSH1 0x0 CALLER PUSH20 0xFFFFFFFFFFFFFFFFFFFFFFFFFFFFFFFFFFFFFFFF AND PUSH32 0x90890809C654F11D6E72A28FA60149770A0D11EC6C92319D6CEB2BB0A4EA1A15 DUP6 PUSH1 0x40 MLOAD PUSH2 0x148D SWAP2 SWAP1 PUSH2 0x3E51 JUMP JUMPDEST PUSH1 0x40 MLOAD DUP1 SWAP2 SUB SWAP1 LOG3 POP POP POP JUMP JUMPDEST PUSH1 0x0 DUP3 EQ ISZERO PUSH2 0x14DE JUMPI PUSH1 0x40 MLOAD PUSH32 0x8C379A000000000000000000000000000000000000000000000000000000000 DUP2 MSTORE PUSH1 0x4 ADD PUSH2 0x14D5 SWAP1 PUSH2 0x3CB1 JUMP JUMPDEST PUSH1 0x40 MLOAD DUP1 SWAP2 SUB SWAP1 REVERT JUMPDEST PUSH1 0x0 PUSH1 0x6 DUP4 DUP2 SLOAD DUP2 LT PUSH2 0x14F4 JUMPI PUSH2 0x14F3 PUSH2 0x418E JUMP JUMPDEST JUMPDEST SWAP1 PUSH1 0x0 MSTORE PUSH1 0x20 PUSH1 0x0 KECCAK256 SWAP1 PUSH1 0x4 MUL ADD SWAP1 POP PUSH1 0x0 PUSH1 0x7 PUSH1 0x0 DUP6 DUP2 MSTORE PUSH1 0x20 ADD SWAP1 DUP2 MSTORE PUSH1 0x20 ADD PUSH1 0x0 KECCAK256 PUSH1 0x0 CALLER PUSH20 0xFFFFFFFFFFFFFFFFFFFFFFFFFFFFFFFFFFFFFFFF AND PUSH20 0xFFFFFFFFFFFFFFFFFFFFFFFFFFFFFFFFFFFFFFFF AND DUP2 MSTORE PUSH1 0x20 ADD SWAP1 DUP2 MSTORE PUSH1 0x20 ADD PUSH1 0x0 KECCAK256 SWAP1 POP DUP3 DUP2 PUSH1 0x0 ADD SLOAD LT ISZERO PUSH2 0x159F JUMPI PUSH1 0x40 MLOAD PUSH32 0x8C379A000000000000000000000000000000000000000000000000000000000 DUP2 MSTORE PUSH1 0x4 ADD PUSH2 0x1596 SWAP1 PUSH2 0x3DB1 JUMP JUMPDEST PUSH1 0x40 MLOAD DUP1 SWAP2 SUB SWAP1 REVERT JUMPDEST PUSH2 0x15A8 DUP5 PUSH2 0x1C40 JUMP JUMPDEST PUSH1 0x0 PUSH2 0x15F2 DUP3 PUSH1 0x1 ADD SLOAD PUSH2 0x15E4 PUSH5 0xE8D4A51000 PUSH2 0x15D6 DUP8 PUSH1 0x3 ADD SLOAD DUP8 PUSH1 0x0 ADD SLOAD PUSH2 0x2D1B SWAP1 SWAP2 SWAP1 PUSH4 0xFFFFFFFF AND JUMP JUMPDEST PUSH2 0x2D96 SWAP1 SWAP2 SWAP1 PUSH4 0xFFFFFFFF AND JUMP JUMPDEST PUSH2 0x2DE0 SWAP1 SWAP2 SWAP1 PUSH4 0xFFFFFFFF AND JUMP JUMPDEST SWAP1 POP PUSH1 0x0 DUP2 GT ISZERO PUSH2 0x1693 JUMPI PUSH2 0x164F DUP2 PUSH1 0xC PUSH1 0x0 CALLER PUSH20 0xFFFFFFFFFFFFFFFFFFFFFFFFFFFFFFFFFFFFFFFF AND PUSH20 0xFFFFFFFFFFFFFFFFFFFFFFFFFFFFFFFFFFFFFFFF AND DUP2 MSTORE PUSH1 0x20 ADD SWAP1 DUP2 MSTORE PUSH1 0x20 ADD PUSH1 0x0 KECCAK256 SLOAD PUSH2 0x2E2A SWAP1 SWAP2 SWAP1 PUSH4 0xFFFFFFFF AND JUMP JUMPDEST PUSH1 0xC PUSH1 0x0 CALLER PUSH20 0xFFFFFFFFFFFFFFFFFFFFFFFFFFFFFFFFFFFFFFFF AND PUSH20 0xFFFFFFFFFFFFFFFFFFFFFFFFFFFFFFFFFFFFFFFF AND DUP2 MSTORE PUSH1 0x20 ADD SWAP1 DUP2 MSTORE PUSH1 0x20 ADD PUSH1 0x0 KECCAK256 DUP2 SWAP1 SSTORE POP JUMPDEST PUSH2 0x16AA DUP5 DUP4 PUSH1 0x0 ADD SLOAD PUSH2 0x2DE0 SWAP1 SWAP2 SWAP1 PUSH4 0xFFFFFFFF AND JUMP JUMPDEST DUP3 PUSH1 0x0 ADD DUP2 SWAP1 SSTORE POP PUSH2 0x16E4 PUSH5 0xE8D4A51000 PUSH2 0x16D6 DUP6 PUSH1 0x3 ADD SLOAD DUP6 PUSH1 0x0 ADD SLOAD PUSH2 0x2D1B SWAP1 SWAP2 SWAP1 PUSH4 0xFFFFFFFF AND JUMP JUMPDEST PUSH2 0x2D96 SWAP1 SWAP2 SWAP1 PUSH4 0xFFFFFFFF AND JUMP JUMPDEST DUP3 PUSH1 0x1 ADD DUP2 SWAP1 SSTORE POP PUSH2 0x173B CALLER DUP6 DUP6 PUSH1 0x0 ADD PUSH1 0x0 SWAP1 SLOAD SWAP1 PUSH2 0x100 EXP SWAP1 DIV PUSH20 0xFFFFFFFFFFFFFFFFFFFFFFFFFFFFFFFFFFFFFFFF AND PUSH20 0xFFFFFFFFFFFFFFFFFFFFFFFFFFFFFFFFFFFFFFFF AND PUSH2 0x2E88 SWAP1 SWAP3 SWAP2 SWAP1 PUSH4 0xFFFFFFFF AND JUMP JUMPDEST DUP5 CALLER PUSH20 0xFFFFFFFFFFFFFFFFFFFFFFFFFFFFFFFFFFFFFFFF AND PUSH32 0xF279E6A1F5E320CCA91135676D9CB6E44CA8A08C0B88342BCDB1144F6511B568 DUP7 PUSH1 0x40 MLOAD PUSH2 0x1782 SWAP2 SWAP1 PUSH2 0x3E51 JUMP JUMPDEST PUSH1 0x40 MLOAD DUP1 SWAP2 SUB SWAP1 LOG3 POP POP POP POP POP JUMP JUMPDEST PUSH1 0x0 PUSH20 0xFFFFFFFFFFFFFFFFFFFFFFFFFFFFFFFFFFFFFFFF AND PUSH1 0x5 PUSH1 0x0 SWAP1 SLOAD SWAP1 PUSH2 0x100 EXP SWAP1 DIV PUSH20 0xFFFFFFFFFFFFFFFFFFFFFFFFFFFFFFFFFFFFFFFF AND PUSH20 0xFFFFFFFFFFFFFFFFFFFFFFFFFFFFFFFFFFFFFFFF AND EQ ISZERO PUSH2 0x1823 JUMPI PUSH1 0x40 MLOAD PUSH32 0x8C379A000000000000000000000000000000000000000000000000000000000 DUP2 MSTORE PUSH1 0x4 ADD PUSH2 0x181A SWAP1 PUSH2 0x3E31 JUMP JUMPDEST PUSH1 0x40 MLOAD DUP1 SWAP2 SUB SWAP1 REVERT JUMPDEST PUSH1 0x0 PUSH1 0x6 DUP3 DUP2 SLOAD DUP2 LT PUSH2 0x1839 JUMPI PUSH2 0x1838 PUSH2 0x418E JUMP JUMPDEST JUMPDEST SWAP1 PUSH1 0x0 MSTORE PUSH1 0x20 PUSH1 0x0 KECCAK256 SWAP1 PUSH1 0x4 MUL ADD SWAP1 POP PUSH1 0x0 DUP2 PUSH1 0x0 ADD PUSH1 0x0 SWAP1 SLOAD SWAP1 PUSH2 0x100 EXP SWAP1 DIV PUSH20 0xFFFFFFFFFFFFFFFFFFFFFFFFFFFFFFFFFFFFFFFF AND SWAP1 POP PUSH1 0x0 DUP2 PUSH20 0xFFFFFFFFFFFFFFFFFFFFFFFFFFFFFFFFFFFFFFFF AND PUSH4 0x70A08231 ADDRESS PUSH1 0x40 MLOAD DUP3 PUSH4 0xFFFFFFFF AND PUSH1 0xE0 SHL DUP2 MSTORE PUSH1 0x4 ADD PUSH2 0x18AD SWAP2 SWAP1 PUSH2 0x3B07 JUMP JUMPDEST PUSH1 0x20 PUSH1 0x40 MLOAD DUP1 DUP4 SUB DUP2 DUP7 DUP1 EXTCODESIZE ISZERO DUP1 ISZERO PUSH2 0x18C5 JUMPI PUSH1 0x0 DUP1 REVERT JUMPDEST POP GAS STATICCALL ISZERO DUP1 ISZERO PUSH2 0x18D9 JUMPI RETURNDATASIZE PUSH1 0x0 DUP1 RETURNDATACOPY RETURNDATASIZE PUSH1 0x0 REVERT JUMPDEST POP POP POP POP PUSH1 0x40 MLOAD RETURNDATASIZE PUSH1 0x1F NOT PUSH1 0x1F DUP3 ADD AND DUP3 ADD DUP1 PUSH1 0x40 MSTORE POP DUP2 ADD SWAP1 PUSH2 0x18FD SWAP2 SWAP1 PUSH2 0x36DB JUMP JUMPDEST SWAP1 POP PUSH2 0x194C PUSH1 0x5 PUSH1 0x0 SWAP1 SLOAD SWAP1 PUSH2 0x100 EXP SWAP1 DIV PUSH20 0xFFFFFFFFFFFFFFFFFFFFFFFFFFFFFFFFFFFFFFFF AND DUP3 DUP5 PUSH20 0xFFFFFFFFFFFFFFFFFFFFFFFFFFFFFFFFFFFFFFFF AND PUSH2 0x2F97 SWAP1 SWAP3 SWAP2 SWAP1 PUSH4 0xFFFFFFFF AND JUMP JUMPDEST PUSH1 0x0 PUSH1 0x5 PUSH1 0x0 SWAP1 SLOAD SWAP1 PUSH2 0x100 EXP SWAP1 DIV PUSH20 0xFFFFFFFFFFFFFFFFFFFFFFFFFFFFFFFFFFFFFFFF AND PUSH20 0xFFFFFFFFFFFFFFFFFFFFFFFFFFFFFFFFFFFFFFFF AND PUSH4 0xCE5494BB DUP5 PUSH1 0x40 MLOAD DUP3 PUSH4 0xFFFFFFFF AND PUSH1 0xE0 SHL DUP2 MSTORE PUSH1 0x4 ADD PUSH2 0x19A9 SWAP2 SWAP1 PUSH2 0x3BAB JUMP JUMPDEST PUSH1 0x20 PUSH1 0x40 MLOAD DUP1 DUP4 SUB DUP2 PUSH1 0x0 DUP8 DUP1 EXTCODESIZE ISZERO DUP1 ISZERO PUSH2 0x19C3 JUMPI PUSH1 0x0 DUP1 REVERT JUMPDEST POP GAS CALL ISZERO DUP1 ISZERO PUSH2 0x19D7 JUMPI RETURNDATASIZE PUSH1 0x0 DUP1 RETURNDATACOPY RETURNDATASIZE PUSH1 0x0 REVERT JUMPDEST POP POP POP POP PUSH1 0x40 MLOAD RETURNDATASIZE PUSH1 0x1F NOT PUSH1 0x1F DUP3 ADD AND DUP3 ADD DUP1 PUSH1 0x40 MSTORE POP DUP2 ADD SWAP1 PUSH2 0x19FB SWAP2 SWAP1 PUSH2 0x3614 JUMP JUMPDEST SWAP1 POP DUP1 PUSH20 0xFFFFFFFFFFFFFFFFFFFFFFFFFFFFFFFFFFFFFFFF AND PUSH4 0x70A08231 ADDRESS PUSH1 0x40 MLOAD DUP3 PUSH4 0xFFFFFFFF AND PUSH1 0xE0 SHL DUP2 MSTORE PUSH1 0x4 ADD PUSH2 0x1A36 SWAP2 SWAP1 PUSH2 0x3B07 JUMP JUMPDEST PUSH1 0x20 PUSH1 0x40 MLOAD DUP1 DUP4 SUB DUP2 DUP7 DUP1 EXTCODESIZE ISZERO DUP1 ISZERO PUSH2 0x1A4E JUMPI PUSH1 0x0 DUP1 REVERT JUMPDEST POP GAS STATICCALL ISZERO DUP1 ISZERO PUSH2 0x1A62 JUMPI RETURNDATASIZE PUSH1 0x0 DUP1 RETURNDATACOPY RETURNDATASIZE PUSH1 0x0 REVERT JUMPDEST POP POP POP POP PUSH1 0x40 MLOAD RETURNDATASIZE PUSH1 0x1F NOT PUSH1 0x1F DUP3 ADD AND DUP3 ADD DUP1 PUSH1 0x40 MSTORE POP DUP2 ADD SWAP1 PUSH2 0x1A86 SWAP2 SWAP1 PUSH2 0x36DB JUMP JUMPDEST DUP3 EQ PUSH2 0x1AC7 JUMPI PUSH1 0x40 MLOAD PUSH32 0x8C379A000000000000000000000000000000000000000000000000000000000 DUP2 MSTORE PUSH1 0x4 ADD PUSH2 0x1ABE SWAP1 PUSH2 0x3DF1 JUMP JUMPDEST PUSH1 0x40 MLOAD DUP1 SWAP2 SUB SWAP1 REVERT JUMPDEST DUP1 DUP5 PUSH1 0x0 ADD PUSH1 0x0 PUSH2 0x100 EXP DUP2 SLOAD DUP2 PUSH20 0xFFFFFFFFFFFFFFFFFFFFFFFFFFFFFFFFFFFFFFFF MUL NOT AND SWAP1 DUP4 PUSH20 0xFFFFFFFFFFFFFFFFFFFFFFFFFFFFFFFFFFFFFFFF AND MUL OR SWAP1 SSTORE POP POP POP POP POP POP JUMP JUMPDEST PUSH1 0x9 SLOAD DUP2 JUMP JUMPDEST PUSH2 0x1B1F PUSH2 0x2D13 JUMP JUMPDEST PUSH20 0xFFFFFFFFFFFFFFFFFFFFFFFFFFFFFFFFFFFFFFFF AND PUSH2 0x1B3D PUSH2 0x228F JUMP JUMPDEST PUSH20 0xFFFFFFFFFFFFFFFFFFFFFFFFFFFFFFFFFFFFFFFF AND EQ PUSH2 0x1B93 JUMPI PUSH1 0x40 MLOAD PUSH32 0x8C379A000000000000000000000000000000000000000000000000000000000 DUP2 MSTORE PUSH1 0x4 ADD PUSH2 0x1B8A SWAP1 PUSH2 0x3D51 JUMP JUMPDEST PUSH1 0x40 MLOAD DUP1 SWAP2 SUB SWAP1 REVERT JUMPDEST PUSH1 0x1 PUSH1 0x40 MLOAD DUP1 PUSH1 0x40 ADD PUSH1 0x40 MSTORE DUP1 DUP5 PUSH20 0xFFFFFFFFFFFFFFFFFFFFFFFFFFFFFFFFFFFFFFFF AND DUP2 MSTORE PUSH1 0x20 ADD DUP4 DUP2 MSTORE POP SWAP1 DUP1 PUSH1 0x1 DUP2 SLOAD ADD DUP1 DUP3 SSTORE DUP1 SWAP2 POP POP PUSH1 0x1 SWAP1 SUB SWAP1 PUSH1 0x0 MSTORE PUSH1 0x20 PUSH1 0x0 KECCAK256 SWAP1 PUSH1 0x2 MUL ADD PUSH1 0x0 SWAP1 SWAP2 SWAP1 SWAP2 SWAP1 SWAP2 POP PUSH1 0x0 DUP3 ADD MLOAD DUP2 PUSH1 0x0 ADD PUSH1 0x0 PUSH2 0x100 EXP DUP2 SLOAD DUP2 PUSH20 0xFFFFFFFFFFFFFFFFFFFFFFFFFFFFFFFFFFFFFFFF MUL NOT AND SWAP1 DUP4 PUSH20 0xFFFFFFFFFFFFFFFFFFFFFFFFFFFFFFFFFFFFFFFF AND MUL OR SWAP1 SSTORE POP PUSH1 0x20 DUP3 ADD MLOAD DUP2 PUSH1 0x1 ADD SSTORE POP POP POP POP JUMP JUMPDEST PUSH1 0x0 PUSH1 0x6 DUP3 DUP2 SLOAD DUP2 LT PUSH2 0x1C56 JUMPI PUSH2 0x1C55 PUSH2 0x418E JUMP JUMPDEST JUMPDEST SWAP1 PUSH1 0x0 MSTORE PUSH1 0x20 PUSH1 0x0 KECCAK256 SWAP1 PUSH1 0x4 MUL ADD SWAP1 POP DUP1 PUSH1 0x2 ADD SLOAD NUMBER GT PUSH2 0x1C77 JUMPI POP PUSH2 0x1DEB JUMP JUMPDEST PUSH1 0x0 DUP2 PUSH1 0x0 ADD PUSH1 0x0 SWAP1 SLOAD SWAP1 PUSH2 0x100 EXP SWAP1 DIV PUSH20 0xFFFFFFFFFFFFFFFFFFFFFFFFFFFFFFFFFFFFFFFF AND PUSH20 0xFFFFFFFFFFFFFFFFFFFFFFFFFFFFFFFFFFFFFFFF AND PUSH4 0x70A08231 ADDRESS PUSH1 0x40 MLOAD DUP3 PUSH4 0xFFFFFFFF AND PUSH1 0xE0 SHL DUP2 MSTORE PUSH1 0x4 ADD PUSH2 0x1CD6 SWAP2 SWAP1 PUSH2 0x3B07 JUMP JUMPDEST PUSH1 0x20 PUSH1 0x40 MLOAD DUP1 DUP4 SUB DUP2 DUP7 DUP1 EXTCODESIZE ISZERO DUP1 ISZERO PUSH2 0x1CEE JUMPI PUSH1 0x0 DUP1 REVERT JUMPDEST POP GAS STATICCALL ISZERO DUP1 ISZERO PUSH2 0x1D02 JUMPI RETURNDATASIZE PUSH1 0x0 DUP1 RETURNDATACOPY RETURNDATASIZE PUSH1 0x0 REVERT JUMPDEST POP POP POP POP PUSH1 0x40 MLOAD RETURNDATASIZE PUSH1 0x1F NOT PUSH1 0x1F DUP3 ADD AND DUP3 ADD DUP1 PUSH1 0x40 MSTORE POP DUP2 ADD SWAP1 PUSH2 0x1D26 SWAP2 SWAP1 PUSH2 0x36DB JUMP JUMPDEST SWAP1 POP PUSH1 0x0 DUP2 GT PUSH2 0x1D40 JUMPI NUMBER DUP3 PUSH1 0x2 ADD DUP2 SWAP1 SSTORE POP POP POP PUSH2 0x1DEB JUMP JUMPDEST PUSH1 0x0 PUSH2 0x1D50 DUP4 PUSH1 0x2 ADD SLOAD NUMBER PUSH2 0x22B8 JUMP JUMPDEST SWAP1 POP PUSH1 0x0 PUSH2 0x1D93 PUSH1 0x8 SLOAD PUSH2 0x1D85 DUP7 PUSH1 0x1 ADD SLOAD PUSH2 0x1D77 PUSH1 0x3 SLOAD DUP8 PUSH2 0x2D1B SWAP1 SWAP2 SWAP1 PUSH4 0xFFFFFFFF AND JUMP JUMPDEST PUSH2 0x2D1B SWAP1 SWAP2 SWAP1 PUSH4 0xFFFFFFFF AND JUMP JUMPDEST PUSH2 0x2D96 SWAP1 SWAP2 SWAP1 PUSH4 0xFFFFFFFF AND JUMP JUMPDEST SWAP1 POP PUSH2 0x1DD5 PUSH2 0x1DC2 DUP5 PUSH2 0x1DB4 PUSH5 0xE8D4A51000 DUP6 PUSH2 0x2D1B SWAP1 SWAP2 SWAP1 PUSH4 0xFFFFFFFF AND JUMP JUMPDEST PUSH2 0x2D96 SWAP1 SWAP2 SWAP1 PUSH4 0xFFFFFFFF AND JUMP JUMPDEST DUP6 PUSH1 0x3 ADD SLOAD PUSH2 0x2E2A SWAP1 SWAP2 SWAP1 PUSH4 0xFFFFFFFF AND JUMP JUMPDEST DUP5 PUSH1 0x3 ADD DUP2 SWAP1 SSTORE POP NUMBER DUP5 PUSH1 0x2 ADD DUP2 SWAP1 SSTORE POP POP POP POP POP JUMPDEST POP JUMP JUMPDEST PUSH1 0x0 PUSH1 0x6 DUP3 DUP2 SLOAD DUP2 LT PUSH2 0x1E04 JUMPI PUSH2 0x1E03 PUSH2 0x418E JUMP JUMPDEST JUMPDEST SWAP1 PUSH1 0x0 MSTORE PUSH1 0x20 PUSH1 0x0 KECCAK256 SWAP1 PUSH1 0x4 MUL ADD SWAP1 POP PUSH1 0x0 PUSH1 0x7 PUSH1 0x0 DUP5 DUP2 MSTORE PUSH1 0x20 ADD SWAP1 DUP2 MSTORE PUSH1 0x20 ADD PUSH1 0x0 KECCAK256 PUSH1 0x0 CALLER PUSH20 0xFFFFFFFFFFFFFFFFFFFFFFFFFFFFFFFFFFFFFFFF AND PUSH20 0xFFFFFFFFFFFFFFFFFFFFFFFFFFFFFFFFFFFFFFFF AND DUP2 MSTORE PUSH1 0x20 ADD SWAP1 DUP2 MSTORE PUSH1 0x20 ADD PUSH1 0x0 KECCAK256 SWAP1 POP PUSH2 0x1EBB CALLER DUP3 PUSH1 0x0 ADD SLOAD DUP5 PUSH1 0x0 ADD PUSH1 0x0 SWAP1 SLOAD SWAP1 PUSH2 0x100 EXP SWAP1 DIV PUSH20 0xFFFFFFFFFFFFFFFFFFFFFFFFFFFFFFFFFFFFFFFF AND PUSH20 0xFFFFFFFFFFFFFFFFFFFFFFFFFFFFFFFFFFFFFFFF AND PUSH2 0x2E88 SWAP1 SWAP3 SWAP2 SWAP1 PUSH4 0xFFFFFFFF AND JUMP JUMPDEST DUP3 CALLER PUSH20 0xFFFFFFFFFFFFFFFFFFFFFFFFFFFFFFFFFFFFFFFF AND PUSH32 0xBB757047C2B5F3974FE26B7C10F732E7BCE710B0952A71082702781E62AE0595 DUP4 PUSH1 0x0 ADD SLOAD PUSH1 0x40 MLOAD PUSH2 0x1F06 SWAP2 SWAP1 PUSH2 0x3E51 JUMP JUMPDEST PUSH1 0x40 MLOAD DUP1 SWAP2 SUB SWAP1 LOG3 PUSH1 0x0 DUP2 PUSH1 0x0 ADD DUP2 SWAP1 SSTORE POP PUSH1 0x0 DUP2 PUSH1 0x1 ADD DUP2 SWAP1 SSTORE POP POP POP POP JUMP JUMPDEST PUSH1 0x3 SLOAD DUP2 JUMP JUMPDEST PUSH2 0x1F35 PUSH2 0x2D13 JUMP JUMPDEST PUSH20 0xFFFFFFFFFFFFFFFFFFFFFFFFFFFFFFFFFFFFFFFF AND PUSH2 0x1F53 PUSH2 0x228F JUMP JUMPDEST PUSH20 0xFFFFFFFFFFFFFFFFFFFFFFFFFFFFFFFFFFFFFFFF AND EQ PUSH2 0x1FA9 JUMPI PUSH1 0x40 MLOAD PUSH32 0x8C379A000000000000000000000000000000000000000000000000000000000 DUP2 MSTORE PUSH1 0x4 ADD PUSH2 0x1FA0 SWAP1 PUSH2 0x3D51 JUMP JUMPDEST PUSH1 0x40 MLOAD DUP1 SWAP2 SUB SWAP1 REVERT JUMPDEST DUP1 PUSH1 0x4 DUP2 SWAP1 SSTORE POP POP JUMP JUMPDEST PUSH1 0x1 DUP2 DUP2 SLOAD DUP2 LT PUSH2 0x1FC3 JUMPI PUSH1 0x0 DUP1 REVERT JUMPDEST SWAP1 PUSH1 0x0 MSTORE PUSH1 0x20 PUSH1 0x0 KECCAK256 SWAP1 PUSH1 0x2 MUL ADD PUSH1 0x0 SWAP2 POP SWAP1 POP DUP1 PUSH1 0x0 ADD PUSH1 0x0 SWAP1 SLOAD SWAP1 PUSH2 0x100 EXP SWAP1 DIV PUSH20 0xFFFFFFFFFFFFFFFFFFFFFFFFFFFFFFFFFFFFFFFF AND SWAP1 DUP1 PUSH1 0x1 ADD SLOAD SWAP1 POP DUP3 JUMP JUMPDEST PUSH1 0x0 PUSH1 0x6 DUP1 SLOAD SWAP1 POP SWAP1 POP PUSH1 0x0 JUMPDEST DUP2 DUP2 LT ISZERO PUSH2 0x2036 JUMPI PUSH2 0x2025 DUP2 PUSH2 0x1C40 JUMP JUMPDEST DUP1 PUSH2 0x202F SWAP1 PUSH2 0x40E7 JUMP JUMPDEST SWAP1 POP PUSH2 0x2014 JUMP JUMPDEST POP POP JUMP JUMPDEST PUSH2 0x2042 PUSH2 0x2D13 JUMP JUMPDEST PUSH20 0xFFFFFFFFFFFFFFFFFFFFFFFFFFFFFFFFFFFFFFFF AND PUSH2 0x2060 PUSH2 0x228F JUMP JUMPDEST PUSH20 0xFFFFFFFFFFFFFFFFFFFFFFFFFFFFFFFFFFFFFFFF AND EQ PUSH2 0x20B6 JUMPI PUSH1 0x40 MLOAD PUSH32 0x8C379A000000000000000000000000000000000000000000000000000000000 DUP2 MSTORE PUSH1 0x4 ADD PUSH2 0x20AD SWAP1 PUSH2 0x3D51 JUMP JUMPDEST PUSH1 0x40 MLOAD DUP1 SWAP2 SUB SWAP1 REVERT JUMPDEST DUP1 ISZERO PUSH2 0x20C5 JUMPI PUSH2 0x20C4 PUSH2 0x2007 JUMP JUMPDEST JUMPDEST PUSH2 0x2111 DUP3 PUSH2 0x2103 PUSH1 0x6 DUP7 DUP2 SLOAD DUP2 LT PUSH2 0x20E0 JUMPI PUSH2 0x20DF PUSH2 0x418E JUMP JUMPDEST JUMPDEST SWAP1 PUSH1 0x0 MSTORE PUSH1 0x20 PUSH1 0x0 KECCAK256 SWAP1 PUSH1 0x4 MUL ADD PUSH1 0x1 ADD SLOAD PUSH1 0x8 SLOAD PUSH2 0x2DE0 SWAP1 SWAP2 SWAP1 PUSH4 0xFFFFFFFF AND JUMP JUMPDEST PUSH2 0x2E2A SWAP1 SWAP2 SWAP1 PUSH4 0xFFFFFFFF AND JUMP JUMPDEST PUSH1 0x8 DUP2 SWAP1 SSTORE POP DUP2 PUSH1 0x6 DUP5 DUP2 SLOAD DUP2 LT PUSH2 0x212C JUMPI PUSH2 0x212B PUSH2 0x418E JUMP JUMPDEST JUMPDEST SWAP1 PUSH1 0x0 MSTORE PUSH1 0x20 PUSH1 0x0 KECCAK256 SWAP1 PUSH1 0x4 MUL ADD PUSH1 0x1 ADD DUP2 SWAP1 SSTORE POP POP POP POP JUMP JUMPDEST PUSH2 0x214E PUSH2 0x2D13 JUMP JUMPDEST PUSH20 0xFFFFFFFFFFFFFFFFFFFFFFFFFFFFFFFFFFFFFFFF AND PUSH2 0x216C PUSH2 0x228F JUMP JUMPDEST PUSH20 0xFFFFFFFFFFFFFFFFFFFFFFFFFFFFFFFFFFFFFFFF AND EQ PUSH2 0x21C2 JUMPI PUSH1 0x40 MLOAD PUSH32 0x8C379A000000000000000000000000000000000000000000000000000000000 DUP2 MSTORE PUSH1 0x4 ADD PUSH2 0x21B9 SWAP1 PUSH2 0x3D51 JUMP JUMPDEST PUSH1 0x40 MLOAD DUP1 SWAP2 SUB SWAP1 REVERT JUMPDEST PUSH2 0x21CC PUSH1 0x0 PUSH2 0x30F5 JUMP JUMPDEST JUMP JUMPDEST PUSH1 0xB PUSH1 0x0 SWAP1 SLOAD SWAP1 PUSH2 0x100 EXP SWAP1 DIV PUSH20 0xFFFFFFFFFFFFFFFFFFFFFFFFFFFFFFFFFFFFFFFF AND DUP2 JUMP JUMPDEST PUSH1 0x5 PUSH1 0x0 SWAP1 SLOAD SWAP1 PUSH2 0x100 EXP SWAP1 DIV PUSH20 0xFFFFFFFFFFFFFFFFFFFFFFFFFFFFFFFFFFFFFFFF AND DUP2 JUMP JUMPDEST PUSH1 0xA PUSH1 0x0 SWAP1 SLOAD SWAP1 PUSH2 0x100 EXP SWAP1 DIV PUSH20 0xFFFFFFFFFFFFFFFFFFFFFFFFFFFFFFFFFFFFFFFF AND DUP2 JUMP JUMPDEST PUSH1 0x4 SLOAD DUP2 JUMP JUMPDEST PUSH1 0x0 PUSH1 0xC PUSH1 0x0 DUP4 PUSH20 0xFFFFFFFFFFFFFFFFFFFFFFFFFFFFFFFFFFFFFFFF AND PUSH20 0xFFFFFFFFFFFFFFFFFFFFFFFFFFFFFFFFFFFFFFFF AND DUP2 MSTORE PUSH1 0x20 ADD SWAP1 DUP2 MSTORE PUSH1 0x20 ADD PUSH1 0x0 KECCAK256 SLOAD SWAP1 POP SWAP2 SWAP1 POP JUMP JUMPDEST PUSH1 0x0 DUP1 PUSH1 0x0 SWAP1 SLOAD SWAP1 PUSH2 0x100 EXP SWAP1 DIV PUSH20 0xFFFFFFFFFFFFFFFFFFFFFFFFFFFFFFFFFFFFFFFF AND SWAP1 POP SWAP1 JUMP JUMPDEST PUSH1 0x0 PUSH2 0x22E1 PUSH1 0x4 SLOAD PUSH2 0x22D3 DUP6 DUP6 PUSH2 0x2DE0 SWAP1 SWAP2 SWAP1 PUSH4 0xFFFFFFFF AND JUMP JUMPDEST PUSH2 0x2D1B SWAP1 SWAP2 SWAP1 PUSH4 0xFFFFFFFF AND JUMP JUMPDEST SWAP1 POP SWAP3 SWAP2 POP POP JUMP JUMPDEST PUSH1 0x7 PUSH1 0x20 MSTORE DUP2 PUSH1 0x0 MSTORE PUSH1 0x40 PUSH1 0x0 KECCAK256 PUSH1 0x20 MSTORE DUP1 PUSH1 0x0 MSTORE PUSH1 0x40 PUSH1 0x0 KECCAK256 PUSH1 0x0 SWAP2 POP SWAP2 POP POP DUP1 PUSH1 0x0 ADD SLOAD SWAP1 DUP1 PUSH1 0x1 ADD SLOAD SWAP1 POP DUP3 JUMP JUMPDEST PUSH2 0x2322 PUSH2 0x2D13 JUMP JUMPDEST PUSH20 0xFFFFFFFFFFFFFFFFFFFFFFFFFFFFFFFFFFFFFFFF AND PUSH2 0x2340 PUSH2 0x228F JUMP JUMPDEST PUSH20 0xFFFFFFFFFFFFFFFFFFFFFFFFFFFFFFFFFFFFFFFF AND EQ PUSH2 0x2396 JUMPI PUSH1 0x40 MLOAD PUSH32 0x8C379A000000000000000000000000000000000000000000000000000000000 DUP2 MSTORE PUSH1 0x4 ADD PUSH2 0x238D SWAP1 PUSH2 0x3D51 JUMP JUMPDEST PUSH1 0x40 MLOAD DUP1 SWAP2 SUB SWAP1 REVERT JUMPDEST DUP1 PUSH1 0x1 DUP4 DUP2 SLOAD DUP2 LT PUSH2 0x23AB JUMPI PUSH2 0x23AA PUSH2 0x418E JUMP JUMPDEST JUMPDEST SWAP1 PUSH1 0x0 MSTORE PUSH1 0x20 PUSH1 0x0 KECCAK256 SWAP1 PUSH1 0x2 MUL ADD PUSH1 0x1 ADD DUP2 SWAP1 SSTORE POP POP POP JUMP JUMPDEST PUSH1 0x2 PUSH1 0x0 SWAP1 SLOAD SWAP1 PUSH2 0x100 EXP SWAP1 DIV PUSH20 0xFFFFFFFFFFFFFFFFFFFFFFFFFFFFFFFFFFFFFFFF AND DUP2 JUMP JUMPDEST PUSH1 0xA PUSH1 0x0 SWAP1 SLOAD SWAP1 PUSH2 0x100 EXP SWAP1 DIV PUSH20 0xFFFFFFFFFFFFFFFFFFFFFFFFFFFFFFFFFFFFFFFF AND PUSH20 0xFFFFFFFFFFFFFFFFFFFFFFFFFFFFFFFFFFFFFFFF AND CALLER PUSH20 0xFFFFFFFFFFFFFFFFFFFFFFFFFFFFFFFFFFFFFFFF AND EQ DUP1 PUSH2 0x2447 JUMPI POP PUSH1 0x0 PUSH1 0x1 GT JUMPDEST PUSH2 0x2486 JUMPI PUSH1 0x40 MLOAD PUSH32 0x8C379A000000000000000000000000000000000000000000000000000000000 DUP2 MSTORE PUSH1 0x4 ADD PUSH2 0x247D SWAP1 PUSH2 0x3D71 JUMP JUMPDEST PUSH1 0x40 MLOAD DUP1 SWAP2 SUB SWAP1 REVERT JUMPDEST PUSH1 0x0 PUSH1 0x6 PUSH1 0x0 DUP2 SLOAD DUP2 LT PUSH2 0x249D JUMPI PUSH2 0x249C PUSH2 0x418E JUMP JUMPDEST JUMPDEST SWAP1 PUSH1 0x0 MSTORE PUSH1 0x20 PUSH1 0x0 KECCAK256 SWAP1 PUSH1 0x4 MUL ADD SWAP1 POP PUSH1 0x0 PUSH1 0x7 PUSH1 0x0 DUP1 DUP2 MSTORE PUSH1 0x20 ADD SWAP1 DUP2 MSTORE PUSH1 0x20 ADD PUSH1 0x0 KECCAK256 PUSH1 0x0 DUP5 PUSH20 0xFFFFFFFFFFFFFFFFFFFFFFFFFFFFFFFFFFFFFFFF AND PUSH20 0xFFFFFFFFFFFFFFFFFFFFFFFFFFFFFFFFFFFFFFFF AND DUP2 MSTORE PUSH1 0x20 ADD SWAP1 DUP2 MSTORE PUSH1 0x20 ADD PUSH1 0x0 KECCAK256 SWAP1 POP PUSH2 0x250B PUSH1 0x0 PUSH2 0x1C40 JUMP JUMPDEST PUSH1 0x0 DUP2 PUSH1 0x0 ADD SLOAD GT ISZERO PUSH2 0x2605 JUMPI PUSH1 0x0 PUSH2 0x2562 DUP3 PUSH1 0x1 ADD SLOAD PUSH2 0x2554 PUSH5 0xE8D4A51000 PUSH2 0x2546 DUP8 PUSH1 0x3 ADD SLOAD DUP8 PUSH1 0x0 ADD SLOAD PUSH2 0x2D1B SWAP1 SWAP2 SWAP1 PUSH4 0xFFFFFFFF AND JUMP JUMPDEST PUSH2 0x2D96 SWAP1 SWAP2 SWAP1 PUSH4 0xFFFFFFFF AND JUMP JUMPDEST PUSH2 0x2DE0 SWAP1 SWAP2 SWAP1 PUSH4 0xFFFFFFFF AND JUMP JUMPDEST SWAP1 POP PUSH1 0x0 DUP2 GT ISZERO PUSH2 0x2603 JUMPI PUSH2 0x25BF DUP2 PUSH1 0xC PUSH1 0x0 DUP8 PUSH20 0xFFFFFFFFFFFFFFFFFFFFFFFFFFFFFFFFFFFFFFFF AND PUSH20 0xFFFFFFFFFFFFFFFFFFFFFFFFFFFFFFFFFFFFFFFF AND DUP2 MSTORE PUSH1 0x20 ADD SWAP1 DUP2 MSTORE PUSH1 0x20 ADD PUSH1 0x0 KECCAK256 SLOAD PUSH2 0x2E2A SWAP1 SWAP2 SWAP1 PUSH4 0xFFFFFFFF AND JUMP JUMPDEST PUSH1 0xC PUSH1 0x0 DUP7 PUSH20 0xFFFFFFFFFFFFFFFFFFFFFFFFFFFFFFFFFFFFFFFF AND PUSH20 0xFFFFFFFFFFFFFFFFFFFFFFFFFFFFFFFFFFFFFFFF AND DUP2 MSTORE PUSH1 0x20 ADD SWAP1 DUP2 MSTORE PUSH1 0x20 ADD PUSH1 0x0 KECCAK256 DUP2 SWAP1 SSTORE POP JUMPDEST POP JUMPDEST PUSH1 0x0 DUP5 GT ISZERO PUSH2 0x267F JUMPI PUSH2 0x265F CALLER ADDRESS DUP7 DUP6 PUSH1 0x0 ADD PUSH1 0x0 SWAP1 SLOAD SWAP1 PUSH2 0x100 EXP SWAP1 DIV PUSH20 0xFFFFFFFFFFFFFFFFFFFFFFFFFFFFFFFFFFFFFFFF AND PUSH20 0xFFFFFFFFFFFFFFFFFFFFFFFFFFFFFFFFFFFFFFFF AND PUSH2 0x2F0E SWAP1 SWAP4 SWAP3 SWAP2 SWAP1 PUSH4 0xFFFFFFFF AND JUMP JUMPDEST PUSH2 0x2676 DUP5 DUP3 PUSH1 0x0 ADD SLOAD PUSH2 0x2E2A SWAP1 SWAP2 SWAP1 PUSH4 0xFFFFFFFF AND JUMP JUMPDEST DUP2 PUSH1 0x0 ADD DUP2 SWAP1 SSTORE POP JUMPDEST PUSH2 0x26B1 PUSH5 0xE8D4A51000 PUSH2 0x26A3 DUP5 PUSH1 0x3 ADD SLOAD DUP5 PUSH1 0x0 ADD SLOAD PUSH2 0x2D1B SWAP1 SWAP2 SWAP1 PUSH4 0xFFFFFFFF AND JUMP JUMPDEST PUSH2 0x2D96 SWAP1 SWAP2 SWAP1 PUSH4 0xFFFFFFFF AND JUMP JUMPDEST DUP2 PUSH1 0x1 ADD DUP2 SWAP1 SSTORE POP PUSH1 0x0 DUP4 PUSH20 0xFFFFFFFFFFFFFFFFFFFFFFFFFFFFFFFFFFFFFFFF AND PUSH32 0x90890809C654F11D6E72A28FA60149770A0D11EC6C92319D6CEB2BB0A4EA1A15 DUP7 PUSH1 0x40 MLOAD PUSH2 0x2701 SWAP2 SWAP1 PUSH2 0x3E51 JUMP JUMPDEST PUSH1 0x40 MLOAD DUP1 SWAP2 SUB SWAP1 LOG3 POP POP POP POP JUMP JUMPDEST PUSH1 0xC PUSH1 0x20 MSTORE DUP1 PUSH1 0x0 MSTORE PUSH1 0x40 PUSH1 0x0 KECCAK256 PUSH1 0x0 SWAP2 POP SWAP1 POP SLOAD DUP2 JUMP JUMPDEST PUSH1 0x0 DUP3 EQ ISZERO PUSH2 0x276B JUMPI PUSH1 0x40 MLOAD PUSH32 0x8C379A000000000000000000000000000000000000000000000000000000000 DUP2 MSTORE PUSH1 0x4 ADD PUSH2 0x2762 SWAP1 PUSH2 0x3D11 JUMP JUMPDEST PUSH1 0x40 MLOAD DUP1 SWAP2 SUB SWAP1 REVERT JUMPDEST PUSH1 0x0 PUSH1 0x6 DUP4 DUP2 SLOAD DUP2 LT PUSH2 0x2781 JUMPI PUSH2 0x2780 PUSH2 0x418E JUMP JUMPDEST JUMPDEST SWAP1 PUSH1 0x0 MSTORE PUSH1 0x20 PUSH1 0x0 KECCAK256 SWAP1 PUSH1 0x4 MUL ADD SWAP1 POP PUSH1 0x0 PUSH1 0x7 PUSH1 0x0 DUP6 DUP2 MSTORE PUSH1 0x20 ADD SWAP1 DUP2 MSTORE PUSH1 0x20 ADD PUSH1 0x0 KECCAK256 PUSH1 0x0 CALLER PUSH20 0xFFFFFFFFFFFFFFFFFFFFFFFFFFFFFFFFFFFFFFFF AND PUSH20 0xFFFFFFFFFFFFFFFFFFFFFFFFFFFFFFFFFFFFFFFF AND DUP2 MSTORE PUSH1 0x20 ADD SWAP1 DUP2 MSTORE PUSH1 0x20 ADD PUSH1 0x0 KECCAK256 SWAP1 POP PUSH2 0x27EE DUP5 PUSH2 0x1C40 JUMP JUMPDEST PUSH1 0x0 DUP2 PUSH1 0x0 ADD SLOAD GT ISZERO PUSH2 0x28E8 JUMPI PUSH1 0x0 PUSH2 0x2845 DUP3 PUSH1 0x1 ADD SLOAD PUSH2 0x2837 PUSH5 0xE8D4A51000 PUSH2 0x2829 DUP8 PUSH1 0x3 ADD SLOAD DUP8 PUSH1 0x0 ADD SLOAD PUSH2 0x2D1B SWAP1 SWAP2 SWAP1 PUSH4 0xFFFFFFFF AND JUMP JUMPDEST PUSH2 0x2D96 SWAP1 SWAP2 SWAP1 PUSH4 0xFFFFFFFF AND JUMP JUMPDEST PUSH2 0x2DE0 SWAP1 SWAP2 SWAP1 PUSH4 0xFFFFFFFF AND JUMP JUMPDEST SWAP1 POP PUSH1 0x0 DUP2 GT ISZERO PUSH2 0x28E6 JUMPI PUSH2 0x28A2 DUP2 PUSH1 0xC PUSH1 0x0 CALLER PUSH20 0xFFFFFFFFFFFFFFFFFFFFFFFFFFFFFFFFFFFFFFFF AND PUSH20 0xFFFFFFFFFFFFFFFFFFFFFFFFFFFFFFFFFFFFFFFF AND DUP2 MSTORE PUSH1 0x20 ADD SWAP1 DUP2 MSTORE PUSH1 0x20 ADD PUSH1 0x0 KECCAK256 SLOAD PUSH2 0x2E2A SWAP1 SWAP2 SWAP1 PUSH4 0xFFFFFFFF AND JUMP JUMPDEST PUSH1 0xC PUSH1 0x0 CALLER PUSH20 0xFFFFFFFFFFFFFFFFFFFFFFFFFFFFFFFFFFFFFFFF AND PUSH20 0xFFFFFFFFFFFFFFFFFFFFFFFFFFFFFFFFFFFFFFFF AND DUP2 MSTORE PUSH1 0x20 ADD SWAP1 DUP2 MSTORE PUSH1 0x20 ADD PUSH1 0x0 KECCAK256 DUP2 SWAP1 SSTORE POP JUMPDEST POP JUMPDEST PUSH2 0x2939 CALLER ADDRESS DUP6 DUP6 PUSH1 0x0 ADD PUSH1 0x0 SWAP1 SLOAD SWAP1 PUSH2 0x100 EXP SWAP1 DIV PUSH20 0xFFFFFFFFFFFFFFFFFFFFFFFFFFFFFFFFFFFFFFFF AND PUSH20 0xFFFFFFFFFFFFFFFFFFFFFFFFFFFFFFFFFFFFFFFF AND PUSH2 0x2F0E SWAP1 SWAP4 SWAP3 SWAP2 SWAP1 PUSH4 0xFFFFFFFF AND JUMP JUMPDEST PUSH2 0x2950 DUP4 DUP3 PUSH1 0x0 ADD SLOAD PUSH2 0x2E2A SWAP1 SWAP2 SWAP1 PUSH4 0xFFFFFFFF AND JUMP JUMPDEST DUP2 PUSH1 0x0 ADD DUP2 SWAP1 SSTORE POP PUSH2 0x298A PUSH5 0xE8D4A51000 PUSH2 0x297C DUP5 PUSH1 0x3 ADD SLOAD DUP5 PUSH1 0x0 ADD SLOAD PUSH2 0x2D1B SWAP1 SWAP2 SWAP1 PUSH4 0xFFFFFFFF AND JUMP JUMPDEST PUSH2 0x2D96 SWAP1 SWAP2 SWAP1 PUSH4 0xFFFFFFFF AND JUMP JUMPDEST DUP2 PUSH1 0x1 ADD DUP2 SWAP1 SSTORE POP DUP4 CALLER PUSH20 0xFFFFFFFFFFFFFFFFFFFFFFFFFFFFFFFFFFFFFFFF AND PUSH32 0x90890809C654F11D6E72A28FA60149770A0D11EC6C92319D6CEB2BB0A4EA1A15 DUP6 PUSH1 0x40 MLOAD PUSH2 0x29D9 SWAP2 SWAP1 PUSH2 0x3E51 JUMP JUMPDEST PUSH1 0x40 MLOAD DUP1 SWAP2 SUB SWAP1 LOG3 POP POP POP POP JUMP JUMPDEST PUSH2 0x29EF PUSH2 0x2D13 JUMP JUMPDEST PUSH20 0xFFFFFFFFFFFFFFFFFFFFFFFFFFFFFFFFFFFFFFFF AND PUSH2 0x2A0D PUSH2 0x228F JUMP JUMPDEST PUSH20 0xFFFFFFFFFFFFFFFFFFFFFFFFFFFFFFFFFFFFFFFF AND EQ PUSH2 0x2A63 JUMPI PUSH1 0x40 MLOAD PUSH32 0x8C379A000000000000000000000000000000000000000000000000000000000 DUP2 MSTORE PUSH1 0x4 ADD PUSH2 0x2A5A SWAP1 PUSH2 0x3D51 JUMP JUMPDEST PUSH1 0x40 MLOAD DUP1 SWAP2 SUB SWAP1 REVERT JUMPDEST PUSH1 0x0 PUSH20 0xFFFFFFFFFFFFFFFFFFFFFFFFFFFFFFFFFFFFFFFF AND DUP2 PUSH20 0xFFFFFFFFFFFFFFFFFFFFFFFFFFFFFFFFFFFFFFFF AND EQ ISZERO PUSH2 0x2AD3 JUMPI PUSH1 0x40 MLOAD PUSH32 0x8C379A000000000000000000000000000000000000000000000000000000000 DUP2 MSTORE PUSH1 0x4 ADD PUSH2 0x2ACA SWAP1 PUSH2 0x3C71 JUMP JUMPDEST PUSH1 0x40 MLOAD DUP1 SWAP2 SUB SWAP1 REVERT JUMPDEST PUSH2 0x2ADC DUP2 PUSH2 0x30F5 JUMP JUMPDEST POP JUMP JUMPDEST PUSH1 0x0 DUP1 PUSH1 0x6 DUP5 DUP2 SLOAD DUP2 LT PUSH2 0x2AF6 JUMPI PUSH2 0x2AF5 PUSH2 0x418E JUMP JUMPDEST JUMPDEST SWAP1 PUSH1 0x0 MSTORE PUSH1 0x20 PUSH1 0x0 KECCAK256 SWAP1 PUSH1 0x4 MUL ADD SWAP1 POP PUSH1 0x0 PUSH1 0x7 PUSH1 0x0 DUP7 DUP2 MSTORE PUSH1 0x20 ADD SWAP1 DUP2 MSTORE PUSH1 0x20 ADD PUSH1 0x0 KECCAK256 PUSH1 0x0 DUP6 PUSH20 0xFFFFFFFFFFFFFFFFFFFFFFFFFFFFFFFFFFFFFFFF AND PUSH20 0xFFFFFFFFFFFFFFFFFFFFFFFFFFFFFFFFFFFFFFFF AND DUP2 MSTORE PUSH1 0x20 ADD SWAP1 DUP2 MSTORE PUSH1 0x20 ADD PUSH1 0x0 KECCAK256 SWAP1 POP PUSH1 0x0 DUP3 PUSH1 0x3 ADD SLOAD SWAP1 POP PUSH1 0x0 DUP4 PUSH1 0x0 ADD PUSH1 0x0 SWAP1 SLOAD SWAP1 PUSH2 0x100 EXP SWAP1 DIV PUSH20 0xFFFFFFFFFFFFFFFFFFFFFFFFFFFFFFFFFFFFFFFF AND PUSH20 0xFFFFFFFFFFFFFFFFFFFFFFFFFFFFFFFFFFFFFFFF AND PUSH4 0x70A08231 ADDRESS PUSH1 0x40 MLOAD DUP3 PUSH4 0xFFFFFFFF AND PUSH1 0xE0 SHL DUP2 MSTORE PUSH1 0x4 ADD PUSH2 0x2BC2 SWAP2 SWAP1 PUSH2 0x3B07 JUMP JUMPDEST PUSH1 0x20 PUSH1 0x40 MLOAD DUP1 DUP4 SUB DUP2 DUP7 DUP1 EXTCODESIZE ISZERO DUP1 ISZERO PUSH2 0x2BDA JUMPI PUSH1 0x0 DUP1 REVERT JUMPDEST POP GAS STATICCALL ISZERO DUP1 ISZERO PUSH2 0x2BEE JUMPI RETURNDATASIZE PUSH1 0x0 DUP1 RETURNDATACOPY RETURNDATASIZE PUSH1 0x0 REVERT JUMPDEST POP POP POP POP PUSH1 0x40 MLOAD RETURNDATASIZE PUSH1 0x1F NOT PUSH1 0x1F DUP3 ADD AND DUP3 ADD DUP1 PUSH1 0x40 MSTORE POP DUP2 ADD SWAP1 PUSH2 0x2C12 SWAP2 SWAP1 PUSH2 0x36DB JUMP JUMPDEST SWAP1 POP DUP4 PUSH1 0x2 ADD SLOAD NUMBER GT DUP1 ISZERO PUSH2 0x2C28 JUMPI POP PUSH1 0x0 DUP2 EQ ISZERO JUMPDEST ISZERO PUSH2 0x2CC3 JUMPI PUSH1 0x0 PUSH2 0x2C3D DUP6 PUSH1 0x2 ADD SLOAD NUMBER PUSH2 0x22B8 JUMP JUMPDEST SWAP1 POP PUSH1 0x0 PUSH2 0x2C80 PUSH1 0x8 SLOAD PUSH2 0x2C72 DUP9 PUSH1 0x1 ADD SLOAD PUSH2 0x2C64 PUSH1 0x3 SLOAD DUP8 PUSH2 0x2D1B SWAP1 SWAP2 SWAP1 PUSH4 0xFFFFFFFF AND JUMP JUMPDEST PUSH2 0x2D1B SWAP1 SWAP2 SWAP1 PUSH4 0xFFFFFFFF AND JUMP JUMPDEST PUSH2 0x2D96 SWAP1 SWAP2 SWAP1 PUSH4 0xFFFFFFFF AND JUMP JUMPDEST SWAP1 POP PUSH2 0x2CBE PUSH2 0x2CAF DUP5 PUSH2 0x2CA1 PUSH5 0xE8D4A51000 DUP6 PUSH2 0x2D1B SWAP1 SWAP2 SWAP1 PUSH4 0xFFFFFFFF AND JUMP JUMPDEST PUSH2 0x2D96 SWAP1 SWAP2 SWAP1 PUSH4 0xFFFFFFFF AND JUMP JUMPDEST DUP6 PUSH2 0x2E2A SWAP1 SWAP2 SWAP1 PUSH4 0xFFFFFFFF AND JUMP JUMPDEST SWAP4 POP POP POP JUMPDEST PUSH2 0x2D07 DUP4 PUSH1 0x1 ADD SLOAD PUSH2 0x2CF9 PUSH5 0xE8D4A51000 PUSH2 0x2CEB DUP7 DUP9 PUSH1 0x0 ADD SLOAD PUSH2 0x2D1B SWAP1 SWAP2 SWAP1 PUSH4 0xFFFFFFFF AND JUMP JUMPDEST PUSH2 0x2D96 SWAP1 SWAP2 SWAP1 PUSH4 0xFFFFFFFF AND JUMP JUMPDEST PUSH2 0x2DE0 SWAP1 SWAP2 SWAP1 PUSH4 0xFFFFFFFF AND JUMP JUMPDEST SWAP5 POP POP POP POP POP SWAP3 SWAP2 POP POP JUMP JUMPDEST PUSH1 0x0 CALLER SWAP1 POP SWAP1 JUMP JUMPDEST PUSH1 0x0 DUP1 DUP4 EQ ISZERO PUSH2 0x2D2E JUMPI PUSH1 0x0 SWAP1 POP PUSH2 0x2D90 JUMP JUMPDEST PUSH1 0x0 DUP3 DUP5 PUSH2 0x2D3C SWAP2 SWAP1 PUSH2 0x3F4E JUMP JUMPDEST SWAP1 POP DUP3 DUP5 DUP3 PUSH2 0x2D4B SWAP2 SWAP1 PUSH2 0x3F1D JUMP JUMPDEST EQ PUSH2 0x2D8B JUMPI PUSH1 0x40 MLOAD PUSH32 0x8C379A000000000000000000000000000000000000000000000000000000000 DUP2 MSTORE PUSH1 0x4 ADD PUSH2 0x2D82 SWAP1 PUSH2 0x3D31 JUMP JUMPDEST PUSH1 0x40 MLOAD DUP1 SWAP2 SUB SWAP1 REVERT JUMPDEST DUP1 SWAP2 POP POP JUMPDEST SWAP3 SWAP2 POP POP JUMP JUMPDEST PUSH1 0x0 PUSH2 0x2DD8 DUP4 DUP4 PUSH1 0x40 MLOAD DUP1 PUSH1 0x40 ADD PUSH1 0x40 MSTORE DUP1 PUSH1 0x1A DUP2 MSTORE PUSH1 0x20 ADD PUSH32 0x536166654D6174683A206469766973696F6E206279207A65726F000000000000 DUP2 MSTORE POP PUSH2 0x31B9 JUMP JUMPDEST SWAP1 POP SWAP3 SWAP2 POP POP JUMP JUMPDEST PUSH1 0x0 PUSH2 0x2E22 DUP4 DUP4 PUSH1 0x40 MLOAD DUP1 PUSH1 0x40 ADD PUSH1 0x40 MSTORE DUP1 PUSH1 0x1E DUP2 MSTORE PUSH1 0x20 ADD PUSH32 0x536166654D6174683A207375627472616374696F6E206F766572666C6F770000 DUP2 MSTORE POP PUSH2 0x321C JUMP JUMPDEST SWAP1 POP SWAP3 SWAP2 POP POP JUMP JUMPDEST PUSH1 0x0 DUP1 DUP3 DUP5 PUSH2 0x2E39 SWAP2 SWAP1 PUSH2 0x3EC7 JUMP JUMPDEST SWAP1 POP DUP4 DUP2 LT ISZERO PUSH2 0x2E7E JUMPI PUSH1 0x40 MLOAD PUSH32 0x8C379A000000000000000000000000000000000000000000000000000000000 DUP2 MSTORE PUSH1 0x4 ADD PUSH2 0x2E75 SWAP1 PUSH2 0x3CD1 JUMP JUMPDEST PUSH1 0x40 MLOAD DUP1 SWAP2 SUB SWAP1 REVERT JUMPDEST DUP1 SWAP2 POP POP SWAP3 SWAP2 POP POP JUMP JUMPDEST PUSH2 0x2F09 DUP4 PUSH4 0xA9059CBB PUSH1 0xE0 SHL DUP5 DUP5 PUSH1 0x40 MLOAD PUSH1 0x24 ADD PUSH2 0x2EA7 SWAP3 SWAP2 SWAP1 PUSH2 0x3B82 JUMP JUMPDEST PUSH1 0x40 MLOAD PUSH1 0x20 DUP2 DUP4 SUB SUB DUP2 MSTORE SWAP1 PUSH1 0x40 MSTORE SWAP1 PUSH28 0xFFFFFFFFFFFFFFFFFFFFFFFFFFFFFFFFFFFFFFFFFFFFFFFFFFFFFFFF NOT AND PUSH1 0x20 DUP3 ADD DUP1 MLOAD PUSH28 0xFFFFFFFFFFFFFFFFFFFFFFFFFFFFFFFFFFFFFFFFFFFFFFFFFFFFFFFF DUP4 DUP2 DUP4 AND OR DUP4 MSTORE POP POP POP POP PUSH2 0x3280 JUMP JUMPDEST POP POP POP JUMP JUMPDEST PUSH2 0x2F91 DUP5 PUSH4 0x23B872DD PUSH1 0xE0 SHL DUP6 DUP6 DUP6 PUSH1 0x40 MLOAD PUSH1 0x24 ADD PUSH2 0x2F2F SWAP4 SWAP3 SWAP2 SWAP1 PUSH2 0x3B4B JUMP JUMPDEST PUSH1 0x40 MLOAD PUSH1 0x20 DUP2 DUP4 SUB SUB DUP2 MSTORE SWAP1 PUSH1 0x40 MSTORE SWAP1 PUSH28 0xFFFFFFFFFFFFFFFFFFFFFFFFFFFFFFFFFFFFFFFFFFFFFFFFFFFFFFFF NOT AND PUSH1 0x20 DUP3 ADD DUP1 MLOAD PUSH28 0xFFFFFFFFFFFFFFFFFFFFFFFFFFFFFFFFFFFFFFFFFFFFFFFFFFFFFFFF DUP4 DUP2 DUP4 AND OR DUP4 MSTORE POP POP POP POP PUSH2 0x3280 JUMP JUMPDEST POP POP POP POP JUMP JUMPDEST PUSH1 0x0 DUP2 EQ DUP1 PUSH2 0x3030 JUMPI POP PUSH1 0x0 DUP4 PUSH20 0xFFFFFFFFFFFFFFFFFFFFFFFFFFFFFFFFFFFFFFFF AND PUSH4 0xDD62ED3E ADDRESS DUP6 PUSH1 0x40 MLOAD DUP4 PUSH4 0xFFFFFFFF AND PUSH1 0xE0 SHL DUP2 MSTORE PUSH1 0x4 ADD PUSH2 0x2FDE SWAP3 SWAP2 SWAP1 PUSH2 0x3B22 JUMP JUMPDEST PUSH1 0x20 PUSH1 0x40 MLOAD DUP1 DUP4 SUB DUP2 DUP7 DUP1 EXTCODESIZE ISZERO DUP1 ISZERO PUSH2 0x2FF6 JUMPI PUSH1 0x0 DUP1 REVERT JUMPDEST POP GAS STATICCALL ISZERO DUP1 ISZERO PUSH2 0x300A JUMPI RETURNDATASIZE PUSH1 0x0 DUP1 RETURNDATACOPY RETURNDATASIZE PUSH1 0x0 REVERT JUMPDEST POP POP POP POP PUSH1 0x40 MLOAD RETURNDATASIZE PUSH1 0x1F NOT PUSH1 0x1F DUP3 ADD AND DUP3 ADD DUP1 PUSH1 0x40 MSTORE POP DUP2 ADD SWAP1 PUSH2 0x302E SWAP2 SWAP1 PUSH2 0x36DB JUMP JUMPDEST EQ JUMPDEST PUSH2 0x306F JUMPI PUSH1 0x40 MLOAD PUSH32 0x8C379A000000000000000000000000000000000000000000000000000000000 DUP2 MSTORE PUSH1 0x4 ADD PUSH2 0x3066 SWAP1 PUSH2 0x3E11 JUMP JUMPDEST PUSH1 0x40 MLOAD DUP1 SWAP2 SUB SWAP1 REVERT JUMPDEST PUSH2 0x30F0 DUP4 PUSH4 0x95EA7B3 PUSH1 0xE0 SHL DUP5 DUP5 PUSH1 0x40 MLOAD PUSH1 0x24 ADD PUSH2 0x308E SWAP3 SWAP2 SWAP1 PUSH2 0x3B82 JUMP JUMPDEST PUSH1 0x40 MLOAD PUSH1 0x20 DUP2 DUP4 SUB SUB DUP2 MSTORE SWAP1 PUSH1 0x40 MSTORE SWAP1 PUSH28 0xFFFFFFFFFFFFFFFFFFFFFFFFFFFFFFFFFFFFFFFFFFFFFFFFFFFFFFFF NOT AND PUSH1 0x20 DUP3 ADD DUP1 MLOAD PUSH28 0xFFFFFFFFFFFFFFFFFFFFFFFFFFFFFFFFFFFFFFFFFFFFFFFFFFFFFFFF DUP4 DUP2 DUP4 AND OR DUP4 MSTORE POP POP POP POP PUSH2 0x3280 JUMP JUMPDEST POP POP POP JUMP JUMPDEST PUSH1 0x0 DUP1 PUSH1 0x0 SWAP1 SLOAD SWAP1 PUSH2 0x100 EXP SWAP1 DIV PUSH20 0xFFFFFFFFFFFFFFFFFFFFFFFFFFFFFFFFFFFFFFFF AND SWAP1 POP DUP2 PUSH1 0x0 DUP1 PUSH2 0x100 EXP DUP2 SLOAD DUP2 PUSH20 0xFFFFFFFFFFFFFFFFFFFFFFFFFFFFFFFFFFFFFFFF MUL NOT AND SWAP1 DUP4 PUSH20 0xFFFFFFFFFFFFFFFFFFFFFFFFFFFFFFFFFFFFFFFF AND MUL OR SWAP1 SSTORE POP DUP2 PUSH20 0xFFFFFFFFFFFFFFFFFFFFFFFFFFFFFFFFFFFFFFFF AND DUP2 PUSH20 0xFFFFFFFFFFFFFFFFFFFFFFFFFFFFFFFFFFFFFFFF AND PUSH32 0x8BE0079C531659141344CD1FD0A4F28419497F9722A3DAAFE3B4186F6B6457E0 PUSH1 0x40 MLOAD PUSH1 0x40 MLOAD DUP1 SWAP2 SUB SWAP1 LOG3 POP POP JUMP JUMPDEST PUSH1 0x0 DUP1 DUP4 GT DUP3 SWAP1 PUSH2 0x3200 JUMPI PUSH1 0x40 MLOAD PUSH32 0x8C379A000000000000000000000000000000000000000000000000000000000 DUP2 MSTORE PUSH1 0x4 ADD PUSH2 0x31F7 SWAP2 SWAP1 PUSH2 0x3C4F JUMP JUMPDEST PUSH1 0x40 MLOAD DUP1 SWAP2 SUB SWAP1 REVERT JUMPDEST POP PUSH1 0x0 DUP4 DUP6 PUSH2 0x320F SWAP2 SWAP1 PUSH2 0x3F1D JUMP JUMPDEST SWAP1 POP DUP1 SWAP2 POP POP SWAP4 SWAP3 POP POP POP JUMP JUMPDEST PUSH1 0x0 DUP4 DUP4 GT ISZERO DUP3 SWAP1 PUSH2 0x3264 JUMPI PUSH1 0x40 MLOAD PUSH32 0x8C379A000000000000000000000000000000000000000000000000000000000 DUP2 MSTORE PUSH1 0x4 ADD PUSH2 0x325B SWAP2 SWAP1 PUSH2 0x3C4F JUMP JUMPDEST PUSH1 0x40 MLOAD DUP1 SWAP2 SUB SWAP1 REVERT JUMPDEST POP PUSH1 0x0 DUP4 DUP6 PUSH2 0x3273 SWAP2 SWAP1 PUSH2 0x3FA8 JUMP JUMPDEST SWAP1 POP DUP1 SWAP2 POP POP SWAP4 SWAP3 POP POP POP JUMP JUMPDEST PUSH1 0x0 PUSH2 0x32E2 DUP3 PUSH1 0x40 MLOAD DUP1 PUSH1 0x40 ADD PUSH1 0x40 MSTORE DUP1 PUSH1 0x20 DUP2 MSTORE PUSH1 0x20 ADD PUSH32 0x5361666545524332303A206C6F772D6C6576656C2063616C6C206661696C6564 DUP2 MSTORE POP DUP6 PUSH20 0xFFFFFFFFFFFFFFFFFFFFFFFFFFFFFFFFFFFFFFFF AND PUSH2 0x3347 SWAP1 SWAP3 SWAP2 SWAP1 PUSH4 0xFFFFFFFF AND JUMP JUMPDEST SWAP1 POP PUSH1 0x0 DUP2 MLOAD GT ISZERO PUSH2 0x3342 JUMPI DUP1 DUP1 PUSH1 0x20 ADD SWAP1 MLOAD DUP2 ADD SWAP1 PUSH2 0x3302 SWAP2 SWAP1 PUSH2 0x35E7 JUMP JUMPDEST PUSH2 0x3341 JUMPI PUSH1 0x40 MLOAD PUSH32 0x8C379A000000000000000000000000000000000000000000000000000000000 DUP2 MSTORE PUSH1 0x4 ADD PUSH2 0x3338 SWAP1 PUSH2 0x3DD1 JUMP JUMPDEST PUSH1 0x40 MLOAD DUP1 SWAP2 SUB SWAP1 REVERT JUMPDEST JUMPDEST POP POP POP JUMP JUMPDEST PUSH1 0x60 PUSH2 0x3356 DUP5 DUP5 PUSH1 0x0 DUP6 PUSH2 0x335F JUMP JUMPDEST SWAP1 POP SWAP4 SWAP3 POP POP POP JUMP JUMPDEST PUSH1 0x60 DUP3 SELFBALANCE LT ISZERO PUSH2 0x33A4 JUMPI PUSH1 0x40 MLOAD PUSH32 0x8C379A000000000000000000000000000000000000000000000000000000000 DUP2 MSTORE PUSH1 0x4 ADD PUSH2 0x339B SWAP1 PUSH2 0x3CF1 JUMP JUMPDEST PUSH1 0x40 MLOAD DUP1 SWAP2 SUB SWAP1 REVERT JUMPDEST PUSH2 0x33AD DUP6 PUSH2 0x3473 JUMP JUMPDEST PUSH2 0x33EC JUMPI PUSH1 0x40 MLOAD PUSH32 0x8C379A000000000000000000000000000000000000000000000000000000000 DUP2 MSTORE PUSH1 0x4 ADD PUSH2 0x33E3 SWAP1 PUSH2 0x3D91 JUMP JUMPDEST PUSH1 0x40 MLOAD DUP1 SWAP2 SUB SWAP1 REVERT JUMPDEST PUSH1 0x0 DUP1 DUP7 PUSH20 0xFFFFFFFFFFFFFFFFFFFFFFFFFFFFFFFFFFFFFFFF AND DUP6 DUP8 PUSH1 0x40 MLOAD PUSH2 0x3415 SWAP2 SWAP1 PUSH2 0x3AF0 JUMP JUMPDEST PUSH1 0x0 PUSH1 0x40 MLOAD DUP1 DUP4 SUB DUP2 DUP6 DUP8 GAS CALL SWAP3 POP POP POP RETURNDATASIZE DUP1 PUSH1 0x0 DUP2 EQ PUSH2 0x3452 JUMPI PUSH1 0x40 MLOAD SWAP2 POP PUSH1 0x1F NOT PUSH1 0x3F RETURNDATASIZE ADD AND DUP3 ADD PUSH1 0x40 MSTORE RETURNDATASIZE DUP3 MSTORE RETURNDATASIZE PUSH1 0x0 PUSH1 0x20 DUP5 ADD RETURNDATACOPY PUSH2 0x3457 JUMP JUMPDEST PUSH1 0x60 SWAP2 POP JUMPDEST POP SWAP2 POP SWAP2 POP PUSH2 0x3467 DUP3 DUP3 DUP7 PUSH2 0x3496 JUMP JUMPDEST SWAP3 POP POP POP SWAP5 SWAP4 POP POP POP POP JUMP JUMPDEST PUSH1 0x0 DUP1 DUP3 PUSH20 0xFFFFFFFFFFFFFFFFFFFFFFFFFFFFFFFFFFFFFFFF AND EXTCODESIZE GT SWAP1 POP SWAP2 SWAP1 POP JUMP JUMPDEST PUSH1 0x60 DUP4 ISZERO PUSH2 0x34A6 JUMPI DUP3 SWAP1 POP PUSH2 0x34F6 JUMP JUMPDEST PUSH1 0x0 DUP4 MLOAD GT ISZERO PUSH2 0x34B9 JUMPI DUP3 MLOAD DUP1 DUP5 PUSH1 0x20 ADD REVERT JUMPDEST DUP2 PUSH1 0x40 MLOAD PUSH32 0x8C379A000000000000000000000000000000000000000000000000000000000 DUP2 MSTORE PUSH1 0x4 ADD PUSH2 0x34ED SWAP2 SWAP1 PUSH2 0x3C4F JUMP JUMPDEST PUSH1 0x40 MLOAD DUP1 SWAP2 SUB SWAP1 REVERT JUMPDEST SWAP4 SWAP3 POP POP POP JUMP JUMPDEST PUSH1 0x0 DUP2 CALLDATALOAD SWAP1 POP PUSH2 0x350C DUP2 PUSH2 0x44F8 JUMP JUMPDEST SWAP3 SWAP2 POP POP JUMP JUMPDEST PUSH1 0x0 DUP2 CALLDATALOAD SWAP1 POP PUSH2 0x3521 DUP2 PUSH2 0x450F JUMP JUMPDEST SWAP3 SWAP2 POP POP JUMP JUMPDEST PUSH1 0x0 DUP2 MLOAD SWAP1 POP PUSH2 0x3536 DUP2 PUSH2 0x450F JUMP JUMPDEST SWAP3 SWAP2 POP POP JUMP JUMPDEST PUSH1 0x0 DUP2 CALLDATALOAD SWAP1 POP PUSH2 0x354B DUP2 PUSH2 0x4526 JUMP JUMPDEST SWAP3 SWAP2 POP POP JUMP JUMPDEST PUSH1 0x0 DUP2 MLOAD SWAP1 POP PUSH2 0x3560 DUP2 PUSH2 0x4526 JUMP JUMPDEST SWAP3 SWAP2 POP POP JUMP JUMPDEST PUSH1 0x0 DUP2 CALLDATALOAD SWAP1 POP PUSH2 0x3575 DUP2 PUSH2 0x453D JUMP JUMPDEST SWAP3 SWAP2 POP POP JUMP JUMPDEST PUSH1 0x0 DUP2 CALLDATALOAD SWAP1 POP PUSH2 0x358A DUP2 PUSH2 0x4554 JUMP JUMPDEST SWAP3 SWAP2 POP POP JUMP JUMPDEST PUSH1 0x0 DUP2 CALLDATALOAD SWAP1 POP PUSH2 0x359F DUP2 PUSH2 0x456B JUMP JUMPDEST SWAP3 SWAP2 POP POP JUMP JUMPDEST PUSH1 0x0 DUP2 MLOAD SWAP1 POP PUSH2 0x35B4 DUP2 PUSH2 0x456B JUMP JUMPDEST SWAP3 SWAP2 POP POP JUMP JUMPDEST PUSH1 0x0 PUSH1 0x20 DUP3 DUP5 SUB SLT ISZERO PUSH2 0x35D0 JUMPI PUSH2 0x35CF PUSH2 0x41BD JUMP JUMPDEST JUMPDEST PUSH1 0x0 PUSH2 0x35DE DUP5 DUP3 DUP6 ADD PUSH2 0x34FD JUMP JUMPDEST SWAP2 POP POP SWAP3 SWAP2 POP POP JUMP JUMPDEST PUSH1 0x0 PUSH1 0x20 DUP3 DUP5 SUB SLT ISZERO PUSH2 0x35FD JUMPI PUSH2 0x35FC PUSH2 0x41BD JUMP JUMPDEST JUMPDEST PUSH1 0x0 PUSH2 0x360B DUP5 DUP3 DUP6 ADD PUSH2 0x3527 JUMP JUMPDEST SWAP2 POP POP SWAP3 SWAP2 POP POP JUMP JUMPDEST PUSH1 0x0 PUSH1 0x20 DUP3 DUP5 SUB SLT ISZERO PUSH2 0x362A JUMPI PUSH2 0x3629 PUSH2 0x41BD JUMP JUMPDEST JUMPDEST PUSH1 0x0 PUSH2 0x3638 DUP5 DUP3 DUP6 ADD PUSH2 0x3551 JUMP JUMPDEST SWAP2 POP POP SWAP3 SWAP2 POP POP JUMP JUMPDEST PUSH1 0x0 DUP1 PUSH1 0x40 DUP4 DUP6 SUB SLT ISZERO PUSH2 0x3658 JUMPI PUSH2 0x3657 PUSH2 0x41BD JUMP JUMPDEST JUMPDEST PUSH1 0x0 PUSH2 0x3666 DUP6 DUP3 DUP7 ADD PUSH2 0x3566 JUMP JUMPDEST SWAP3 POP POP PUSH1 0x20 PUSH2 0x3677 DUP6 DUP3 DUP7 ADD PUSH2 0x3590 JUMP JUMPDEST SWAP2 POP POP SWAP3 POP SWAP3 SWAP1 POP JUMP JUMPDEST PUSH1 0x0 PUSH1 0x20 DUP3 DUP5 SUB SLT ISZERO PUSH2 0x3697 JUMPI PUSH2 0x3696 PUSH2 0x41BD JUMP JUMPDEST JUMPDEST PUSH1 0x0 PUSH2 0x36A5 DUP5 DUP3 DUP6 ADD PUSH2 0x357B JUMP JUMPDEST SWAP2 POP POP SWAP3 SWAP2 POP POP JUMP JUMPDEST PUSH1 0x0 PUSH1 0x20 DUP3 DUP5 SUB SLT ISZERO PUSH2 0x36C4 JUMPI PUSH2 0x36C3 PUSH2 0x41BD JUMP JUMPDEST JUMPDEST PUSH1 0x0 PUSH2 0x36D2 DUP5 DUP3 DUP6 ADD PUSH2 0x3590 JUMP JUMPDEST SWAP2 POP POP SWAP3 SWAP2 POP POP JUMP JUMPDEST PUSH1 0x0 PUSH1 0x20 DUP3 DUP5 SUB SLT ISZERO PUSH2 0x36F1 JUMPI PUSH2 0x36F0 PUSH2 0x41BD JUMP JUMPDEST JUMPDEST PUSH1 0x0 PUSH2 0x36FF DUP5 DUP3 DUP6 ADD PUSH2 0x35A5 JUMP JUMPDEST SWAP2 POP POP SWAP3 SWAP2 POP POP JUMP JUMPDEST PUSH1 0x0 DUP1 PUSH1 0x40 DUP4 DUP6 SUB SLT ISZERO PUSH2 0x371F JUMPI PUSH2 0x371E PUSH2 0x41BD JUMP JUMPDEST JUMPDEST PUSH1 0x0 PUSH2 0x372D DUP6 DUP3 DUP7 ADD PUSH2 0x3590 JUMP JUMPDEST SWAP3 POP POP PUSH1 0x20 PUSH2 0x373E DUP6 DUP3 DUP7 ADD PUSH2 0x34FD JUMP JUMPDEST SWAP2 POP POP SWAP3 POP SWAP3 SWAP1 POP JUMP JUMPDEST PUSH1 0x0 DUP1 PUSH1 0x0 PUSH1 0x60 DUP5 DUP7 SUB SLT ISZERO PUSH2 0x3761 JUMPI PUSH2 0x3760 PUSH2 0x41BD JUMP JUMPDEST JUMPDEST PUSH1 0x0 PUSH2 0x376F DUP7 DUP3 DUP8 ADD PUSH2 0x3590 JUMP JUMPDEST SWAP4 POP POP PUSH1 0x20 PUSH2 0x3780 DUP7 DUP3 DUP8 ADD PUSH2 0x353C JUMP JUMPDEST SWAP3 POP POP PUSH1 0x40 PUSH2 0x3791 DUP7 DUP3 DUP8 ADD PUSH2 0x3512 JUMP JUMPDEST SWAP2 POP POP SWAP3 POP SWAP3 POP SWAP3 JUMP JUMPDEST PUSH1 0x0 DUP1 PUSH1 0x40 DUP4 DUP6 SUB SLT ISZERO PUSH2 0x37B2 JUMPI PUSH2 0x37B1 PUSH2 0x41BD JUMP JUMPDEST JUMPDEST PUSH1 0x0 PUSH2 0x37C0 DUP6 DUP3 DUP7 ADD PUSH2 0x3590 JUMP JUMPDEST SWAP3 POP POP PUSH1 0x20 PUSH2 0x37D1 DUP6 DUP3 DUP7 ADD PUSH2 0x3590 JUMP JUMPDEST SWAP2 POP POP SWAP3 POP SWAP3 SWAP1 POP JUMP JUMPDEST PUSH1 0x0 DUP1 PUSH1 0x0 PUSH1 0x60 DUP5 DUP7 SUB SLT ISZERO PUSH2 0x37F4 JUMPI PUSH2 0x37F3 PUSH2 0x41BD JUMP JUMPDEST JUMPDEST PUSH1 0x0 PUSH2 0x3802 DUP7 DUP3 DUP8 ADD PUSH2 0x3590 JUMP JUMPDEST SWAP4 POP POP PUSH1 0x20 PUSH2 0x3813 DUP7 DUP3 DUP8 ADD PUSH2 0x3590 JUMP JUMPDEST SWAP3 POP POP PUSH1 0x40 PUSH2 0x3824 DUP7 DUP3 DUP8 ADD PUSH2 0x3512 JUMP JUMPDEST SWAP2 POP POP SWAP3 POP SWAP3 POP SWAP3 JUMP JUMPDEST PUSH2 0x3837 DUP2 PUSH2 0x3FDC JUMP JUMPDEST DUP3 MSTORE POP POP JUMP JUMPDEST PUSH1 0x0 PUSH2 0x3848 DUP3 PUSH2 0x3E95 JUMP JUMPDEST PUSH2 0x3852 DUP2 DUP6 PUSH2 0x3EAB JUMP JUMPDEST SWAP4 POP PUSH2 0x3862 DUP2 DUP6 PUSH1 0x20 DUP7 ADD PUSH2 0x40B4 JUMP JUMPDEST DUP1 DUP5 ADD SWAP2 POP POP SWAP3 SWAP2 POP POP JUMP JUMPDEST PUSH2 0x3877 DUP2 PUSH2 0x405A JUMP JUMPDEST DUP3 MSTORE POP POP JUMP JUMPDEST PUSH2 0x3886 DUP2 PUSH2 0x406C JUMP JUMPDEST DUP3 MSTORE POP POP JUMP JUMPDEST PUSH2 0x3895 DUP2 PUSH2 0x407E JUMP JUMPDEST DUP3 MSTORE POP POP JUMP JUMPDEST PUSH1 0x0 PUSH2 0x38A6 DUP3 PUSH2 0x3EA0 JUMP JUMPDEST PUSH2 0x38B0 DUP2 DUP6 PUSH2 0x3EB6 JUMP JUMPDEST SWAP4 POP PUSH2 0x38C0 DUP2 DUP6 PUSH1 0x20 DUP7 ADD PUSH2 0x40B4 JUMP JUMPDEST PUSH2 0x38C9 DUP2 PUSH2 0x41C2 JUMP JUMPDEST DUP5 ADD SWAP2 POP POP SWAP3 SWAP2 POP POP JUMP JUMPDEST PUSH1 0x0 PUSH2 0x38E1 PUSH1 0x26 DUP4 PUSH2 0x3EB6 JUMP JUMPDEST SWAP2 POP PUSH2 0x38EC DUP3 PUSH2 0x41D3 JUMP JUMPDEST PUSH1 0x40 DUP3 ADD SWAP1 POP SWAP2 SWAP1 POP JUMP JUMPDEST PUSH1 0x0 PUSH2 0x3904 PUSH1 0x13 DUP4 PUSH2 0x3EB6 JUMP JUMPDEST SWAP2 POP PUSH2 0x390F DUP3 PUSH2 0x4222 JUMP JUMPDEST PUSH1 0x20 DUP3 ADD SWAP1 POP SWAP2 SWAP1 POP JUMP JUMPDEST PUSH1 0x0 PUSH2 0x3927 PUSH1 0x1B DUP4 PUSH2 0x3EB6 JUMP JUMPDEST SWAP2 POP PUSH2 0x3932 DUP3 PUSH2 0x424B JUMP JUMPDEST PUSH1 0x20 DUP3 ADD SWAP1 POP SWAP2 SWAP1 POP JUMP JUMPDEST PUSH1 0x0 PUSH2 0x394A PUSH1 0x1B DUP4 PUSH2 0x3EB6 JUMP JUMPDEST SWAP2 POP PUSH2 0x3955 DUP3 PUSH2 0x4274 JUMP JUMPDEST PUSH1 0x20 DUP3 ADD SWAP1 POP SWAP2 SWAP1 POP JUMP JUMPDEST PUSH1 0x0 PUSH2 0x396D PUSH1 0x26 DUP4 PUSH2 0x3EB6 JUMP JUMPDEST SWAP2 POP PUSH2 0x3978 DUP3 PUSH2 0x429D JUMP JUMPDEST PUSH1 0x40 DUP3 ADD SWAP1 POP SWAP2 SWAP1 POP JUMP JUMPDEST PUSH1 0x0 PUSH2 0x3990 PUSH1 0x18 DUP4 PUSH2 0x3EB6 JUMP JUMPDEST SWAP2 POP PUSH2 0x399B DUP3 PUSH2 0x42EC JUMP JUMPDEST PUSH1 0x20 DUP3 ADD SWAP1 POP SWAP2 SWAP1 POP JUMP JUMPDEST PUSH1 0x0 PUSH2 0x39B3 PUSH1 0x21 DUP4 PUSH2 0x3EB6 JUMP JUMPDEST SWAP2 POP PUSH2 0x39BE DUP3 PUSH2 0x4315 JUMP JUMPDEST PUSH1 0x40 DUP3 ADD SWAP1 POP SWAP2 SWAP1 POP JUMP JUMPDEST PUSH1 0x0 PUSH2 0x39D6 PUSH1 0x20 DUP4 PUSH2 0x3EB6 JUMP JUMPDEST SWAP2 POP PUSH2 0x39E1 DUP3 PUSH2 0x4364 JUMP JUMPDEST PUSH1 0x20 DUP3 ADD SWAP1 POP SWAP2 SWAP1 POP JUMP JUMPDEST PUSH1 0x0 PUSH2 0x39F9 PUSH1 0x14 DUP4 PUSH2 0x3EB6 JUMP JUMPDEST SWAP2 POP PUSH2 0x3A04 DUP3 PUSH2 0x438D JUMP JUMPDEST PUSH1 0x20 DUP3 ADD SWAP1 POP SWAP2 SWAP1 POP JUMP JUMPDEST PUSH1 0x0 PUSH2 0x3A1C PUSH1 0x1D DUP4 PUSH2 0x3EB6 JUMP JUMPDEST SWAP2 POP PUSH2 0x3A27 DUP3 PUSH2 0x43B6 JUMP JUMPDEST PUSH1 0x20 DUP3 ADD SWAP1 POP SWAP2 SWAP1 POP JUMP JUMPDEST PUSH1 0x0 PUSH2 0x3A3F PUSH1 0x12 DUP4 PUSH2 0x3EB6 JUMP JUMPDEST SWAP2 POP PUSH2 0x3A4A DUP3 PUSH2 0x43DF JUMP JUMPDEST PUSH1 0x20 DUP3 ADD SWAP1 POP SWAP2 SWAP1 POP JUMP JUMPDEST PUSH1 0x0 PUSH2 0x3A62 PUSH1 0x2A DUP4 PUSH2 0x3EB6 JUMP JUMPDEST SWAP2 POP PUSH2 0x3A6D DUP3 PUSH2 0x4408 JUMP JUMPDEST PUSH1 0x40 DUP3 ADD SWAP1 POP SWAP2 SWAP1 POP JUMP JUMPDEST PUSH1 0x0 PUSH2 0x3A85 PUSH1 0xC DUP4 PUSH2 0x3EB6 JUMP JUMPDEST SWAP2 POP PUSH2 0x3A90 DUP3 PUSH2 0x4457 JUMP JUMPDEST PUSH1 0x20 DUP3 ADD SWAP1 POP SWAP2 SWAP1 POP JUMP JUMPDEST PUSH1 0x0 PUSH2 0x3AA8 PUSH1 0x36 DUP4 PUSH2 0x3EB6 JUMP JUMPDEST SWAP2 POP PUSH2 0x3AB3 DUP3 PUSH2 0x4480 JUMP JUMPDEST PUSH1 0x40 DUP3 ADD SWAP1 POP SWAP2 SWAP1 POP JUMP JUMPDEST PUSH1 0x0 PUSH2 0x3ACB PUSH1 0x14 DUP4 PUSH2 0x3EB6 JUMP JUMPDEST SWAP2 POP PUSH2 0x3AD6 DUP3 PUSH2 0x44CF JUMP JUMPDEST PUSH1 0x20 DUP3 ADD SWAP1 POP SWAP2 SWAP1 POP JUMP JUMPDEST PUSH2 0x3AEA DUP2 PUSH2 0x4050 JUMP JUMPDEST DUP3 MSTORE POP POP JUMP JUMPDEST PUSH1 0x0 PUSH2 0x3AFC DUP3 DUP5 PUSH2 0x383D JUMP JUMPDEST SWAP2 POP DUP2 SWAP1 POP SWAP3 SWAP2 POP POP JUMP JUMPDEST PUSH1 0x0 PUSH1 0x20 DUP3 ADD SWAP1 POP PUSH2 0x3B1C PUSH1 0x0 DUP4 ADD DUP5 PUSH2 0x382E JUMP JUMPDEST SWAP3 SWAP2 POP POP JUMP JUMPDEST PUSH1 0x0 PUSH1 0x40 DUP3 ADD SWAP1 POP PUSH2 0x3B37 PUSH1 0x0 DUP4 ADD DUP6 PUSH2 0x382E JUMP JUMPDEST PUSH2 0x3B44 PUSH1 0x20 DUP4 ADD DUP5 PUSH2 0x382E JUMP JUMPDEST SWAP4 SWAP3 POP POP POP JUMP JUMPDEST PUSH1 0x0 PUSH1 0x60 DUP3 ADD SWAP1 POP PUSH2 0x3B60 PUSH1 0x0 DUP4 ADD DUP7 PUSH2 0x382E JUMP JUMPDEST PUSH2 0x3B6D PUSH1 0x20 DUP4 ADD DUP6 PUSH2 0x382E JUMP JUMPDEST PUSH2 0x3B7A PUSH1 0x40 DUP4 ADD DUP5 PUSH2 0x3AE1 JUMP JUMPDEST SWAP5 SWAP4 POP POP POP POP JUMP JUMPDEST PUSH1 0x0 PUSH1 0x40 DUP3 ADD SWAP1 POP PUSH2 0x3B97 PUSH1 0x0 DUP4 ADD DUP6 PUSH2 0x382E JUMP JUMPDEST PUSH2 0x3BA4 PUSH1 0x20 DUP4 ADD DUP5 PUSH2 0x3AE1 JUMP JUMPDEST SWAP4 SWAP3 POP POP POP JUMP JUMPDEST PUSH1 0x0 PUSH1 0x20 DUP3 ADD SWAP1 POP PUSH2 0x3BC0 PUSH1 0x0 DUP4 ADD DUP5 PUSH2 0x386E JUMP JUMPDEST SWAP3 SWAP2 POP POP JUMP JUMPDEST PUSH1 0x0 PUSH1 0x80 DUP3 ADD SWAP1 POP PUSH2 0x3BDB PUSH1 0x0 DUP4 ADD DUP8 PUSH2 0x386E JUMP JUMPDEST PUSH2 0x3BE8 PUSH1 0x20 DUP4 ADD DUP7 PUSH2 0x3AE1 JUMP JUMPDEST PUSH2 0x3BF5 PUSH1 0x40 DUP4 ADD DUP6 PUSH2 0x3AE1 JUMP JUMPDEST PUSH2 0x3C02 PUSH1 0x60 DUP4 ADD DUP5 PUSH2 0x3AE1 JUMP JUMPDEST SWAP6 SWAP5 POP POP POP POP POP JUMP JUMPDEST PUSH1 0x0 PUSH1 0x40 DUP3 ADD SWAP1 POP PUSH2 0x3C20 PUSH1 0x0 DUP4 ADD DUP6 PUSH2 0x387D JUMP JUMPDEST PUSH2 0x3C2D PUSH1 0x20 DUP4 ADD DUP5 PUSH2 0x3AE1 JUMP JUMPDEST SWAP4 SWAP3 POP POP POP JUMP JUMPDEST PUSH1 0x0 PUSH1 0x20 DUP3 ADD SWAP1 POP PUSH2 0x3C49 PUSH1 0x0 DUP4 ADD DUP5 PUSH2 0x388C JUMP JUMPDEST SWAP3 SWAP2 POP POP JUMP JUMPDEST PUSH1 0x0 PUSH1 0x20 DUP3 ADD SWAP1 POP DUP2 DUP2 SUB PUSH1 0x0 DUP4 ADD MSTORE PUSH2 0x3C69 DUP2 DUP5 PUSH2 0x389B JUMP JUMPDEST SWAP1 POP SWAP3 SWAP2 POP POP JUMP JUMPDEST PUSH1 0x0 PUSH1 0x20 DUP3 ADD SWAP1 POP DUP2 DUP2 SUB PUSH1 0x0 DUP4 ADD MSTORE PUSH2 0x3C8A DUP2 PUSH2 0x38D4 JUMP JUMPDEST SWAP1 POP SWAP2 SWAP1 POP JUMP JUMPDEST PUSH1 0x0 PUSH1 0x20 DUP3 ADD SWAP1 POP DUP2 DUP2 SUB PUSH1 0x0 DUP4 ADD MSTORE PUSH2 0x3CAA DUP2 PUSH2 0x38F7 JUMP JUMPDEST SWAP1 POP SWAP2 SWAP1 POP JUMP JUMPDEST PUSH1 0x0 PUSH1 0x20 DUP3 ADD SWAP1 POP DUP2 DUP2 SUB PUSH1 0x0 DUP4 ADD MSTORE PUSH2 0x3CCA DUP2 PUSH2 0x391A JUMP JUMPDEST SWAP1 POP SWAP2 SWAP1 POP JUMP JUMPDEST PUSH1 0x0 PUSH1 0x20 DUP3 ADD SWAP1 POP DUP2 DUP2 SUB PUSH1 0x0 DUP4 ADD MSTORE PUSH2 0x3CEA DUP2 PUSH2 0x393D JUMP JUMPDEST SWAP1 POP SWAP2 SWAP1 POP JUMP JUMPDEST PUSH1 0x0 PUSH1 0x20 DUP3 ADD SWAP1 POP DUP2 DUP2 SUB PUSH1 0x0 DUP4 ADD MSTORE PUSH2 0x3D0A DUP2 PUSH2 0x3960 JUMP JUMPDEST SWAP1 POP SWAP2 SWAP1 POP JUMP JUMPDEST PUSH1 0x0 PUSH1 0x20 DUP3 ADD SWAP1 POP DUP2 DUP2 SUB PUSH1 0x0 DUP4 ADD MSTORE PUSH2 0x3D2A DUP2 PUSH2 0x3983 JUMP JUMPDEST SWAP1 POP SWAP2 SWAP1 POP JUMP JUMPDEST PUSH1 0x0 PUSH1 0x20 DUP3 ADD SWAP1 POP DUP2 DUP2 SUB PUSH1 0x0 DUP4 ADD MSTORE PUSH2 0x3D4A DUP2 PUSH2 0x39A6 JUMP JUMPDEST SWAP1 POP SWAP2 SWAP1 POP JUMP JUMPDEST PUSH1 0x0 PUSH1 0x20 DUP3 ADD SWAP1 POP DUP2 DUP2 SUB PUSH1 0x0 DUP4 ADD MSTORE PUSH2 0x3D6A DUP2 PUSH2 0x39C9 JUMP JUMPDEST SWAP1 POP SWAP2 SWAP1 POP JUMP JUMPDEST PUSH1 0x0 PUSH1 0x20 DUP3 ADD SWAP1 POP DUP2 DUP2 SUB PUSH1 0x0 DUP4 ADD MSTORE PUSH2 0x3D8A DUP2 PUSH2 0x39EC JUMP JUMPDEST SWAP1 POP SWAP2 SWAP1 POP JUMP JUMPDEST PUSH1 0x0 PUSH1 0x20 DUP3 ADD SWAP1 POP DUP2 DUP2 SUB PUSH1 0x0 DUP4 ADD MSTORE PUSH2 0x3DAA DUP2 PUSH2 0x3A0F JUMP JUMPDEST SWAP1 POP SWAP2 SWAP1 POP JUMP JUMPDEST PUSH1 0x0 PUSH1 0x20 DUP3 ADD SWAP1 POP DUP2 DUP2 SUB PUSH1 0x0 DUP4 ADD MSTORE PUSH2 0x3DCA DUP2 PUSH2 0x3A32 JUMP JUMPDEST SWAP1 POP SWAP2 SWAP1 POP JUMP JUMPDEST PUSH1 0x0 PUSH1 0x20 DUP3 ADD SWAP1 POP DUP2 DUP2 SUB PUSH1 0x0 DUP4 ADD MSTORE PUSH2 0x3DEA DUP2 PUSH2 0x3A55 JUMP JUMPDEST SWAP1 POP SWAP2 SWAP1 POP JUMP JUMPDEST PUSH1 0x0 PUSH1 0x20 DUP3 ADD SWAP1 POP DUP2 DUP2 SUB PUSH1 0x0 DUP4 ADD MSTORE PUSH2 0x3E0A DUP2 PUSH2 0x3A78 JUMP JUMPDEST SWAP1 POP SWAP2 SWAP1 POP JUMP JUMPDEST PUSH1 0x0 PUSH1 0x20 DUP3 ADD SWAP1 POP DUP2 DUP2 SUB PUSH1 0x0 DUP4 ADD MSTORE PUSH2 0x3E2A DUP2 PUSH2 0x3A9B JUMP JUMPDEST SWAP1 POP SWAP2 SWAP1 POP JUMP JUMPDEST PUSH1 0x0 PUSH1 0x20 DUP3 ADD SWAP1 POP DUP2 DUP2 SUB PUSH1 0x0 DUP4 ADD MSTORE PUSH2 0x3E4A DUP2 PUSH2 0x3ABE JUMP JUMPDEST SWAP1 POP SWAP2 SWAP1 POP JUMP JUMPDEST PUSH1 0x0 PUSH1 0x20 DUP3 ADD SWAP1 POP PUSH2 0x3E66 PUSH1 0x0 DUP4 ADD DUP5 PUSH2 0x3AE1 JUMP JUMPDEST SWAP3 SWAP2 POP POP JUMP JUMPDEST PUSH1 0x0 PUSH1 0x40 DUP3 ADD SWAP1 POP PUSH2 0x3E81 PUSH1 0x0 DUP4 ADD DUP6 PUSH2 0x3AE1 JUMP JUMPDEST PUSH2 0x3E8E PUSH1 0x20 DUP4 ADD DUP5 PUSH2 0x3AE1 JUMP JUMPDEST SWAP4 SWAP3 POP POP POP JUMP JUMPDEST PUSH1 0x0 DUP2 MLOAD SWAP1 POP SWAP2 SWAP1 POP JUMP JUMPDEST PUSH1 0x0 DUP2 MLOAD SWAP1 POP SWAP2 SWAP1 POP JUMP JUMPDEST PUSH1 0x0 DUP2 SWAP1 POP SWAP3 SWAP2 POP POP JUMP JUMPDEST PUSH1 0x0 DUP3 DUP3 MSTORE PUSH1 0x20 DUP3 ADD SWAP1 POP SWAP3 SWAP2 POP POP JUMP JUMPDEST PUSH1 0x0 PUSH2 0x3ED2 DUP3 PUSH2 0x4050 JUMP JUMPDEST SWAP2 POP PUSH2 0x3EDD DUP4 PUSH2 0x4050 JUMP JUMPDEST SWAP3 POP DUP3 PUSH32 0xFFFFFFFFFFFFFFFFFFFFFFFFFFFFFFFFFFFFFFFFFFFFFFFFFFFFFFFFFFFFFFFF SUB DUP3 GT ISZERO PUSH2 0x3F12 JUMPI PUSH2 0x3F11 PUSH2 0x4130 JUMP JUMPDEST JUMPDEST DUP3 DUP3 ADD SWAP1 POP SWAP3 SWAP2 POP POP JUMP JUMPDEST PUSH1 0x0 PUSH2 0x3F28 DUP3 PUSH2 0x4050 JUMP JUMPDEST SWAP2 POP PUSH2 0x3F33 DUP4 PUSH2 0x4050 JUMP JUMPDEST SWAP3 POP DUP3 PUSH2 0x3F43 JUMPI PUSH2 0x3F42 PUSH2 0x415F JUMP JUMPDEST JUMPDEST DUP3 DUP3 DIV SWAP1 POP SWAP3 SWAP2 POP POP JUMP JUMPDEST PUSH1 0x0 PUSH2 0x3F59 DUP3 PUSH2 0x4050 JUMP JUMPDEST SWAP2 POP PUSH2 0x3F64 DUP4 PUSH2 0x4050 JUMP JUMPDEST SWAP3 POP DUP2 PUSH32 0xFFFFFFFFFFFFFFFFFFFFFFFFFFFFFFFFFFFFFFFFFFFFFFFFFFFFFFFFFFFFFFFF DIV DUP4 GT DUP3 ISZERO ISZERO AND ISZERO PUSH2 0x3F9D JUMPI PUSH2 0x3F9C PUSH2 0x4130 JUMP JUMPDEST JUMPDEST DUP3 DUP3 MUL SWAP1 POP SWAP3 SWAP2 POP POP JUMP JUMPDEST PUSH1 0x0 PUSH2 0x3FB3 DUP3 PUSH2 0x4050 JUMP JUMPDEST SWAP2 POP PUSH2 0x3FBE DUP4 PUSH2 0x4050 JUMP JUMPDEST SWAP3 POP DUP3 DUP3 LT ISZERO PUSH2 0x3FD1 JUMPI PUSH2 0x3FD0 PUSH2 0x4130 JUMP JUMPDEST JUMPDEST DUP3 DUP3 SUB SWAP1 POP SWAP3 SWAP2 POP POP JUMP JUMPDEST PUSH1 0x0 PUSH2 0x3FE7 DUP3 PUSH2 0x4030 JUMP JUMPDEST SWAP1 POP SWAP2 SWAP1 POP JUMP JUMPDEST PUSH1 0x0 DUP2 ISZERO ISZERO SWAP1 POP SWAP2 SWAP1 POP JUMP JUMPDEST PUSH1 0x0 PUSH2 0x4005 DUP3 PUSH2 0x3FDC JUMP JUMPDEST SWAP1 POP SWAP2 SWAP1 POP JUMP JUMPDEST PUSH1 0x0 PUSH2 0x4017 DUP3 PUSH2 0x3FDC JUMP JUMPDEST SWAP1 POP SWAP2 SWAP1 POP JUMP JUMPDEST PUSH1 0x0 PUSH2 0x4029 DUP3 PUSH2 0x3FDC JUMP JUMPDEST SWAP1 POP SWAP2 SWAP1 POP JUMP JUMPDEST PUSH1 0x0 PUSH20 0xFFFFFFFFFFFFFFFFFFFFFFFFFFFFFFFFFFFFFFFF DUP3 AND SWAP1 POP SWAP2 SWAP1 POP JUMP JUMPDEST PUSH1 0x0 DUP2 SWAP1 POP SWAP2 SWAP1 POP JUMP JUMPDEST PUSH1 0x0 PUSH2 0x4065 DUP3 PUSH2 0x4090 JUMP JUMPDEST SWAP1 POP SWAP2 SWAP1 POP JUMP JUMPDEST PUSH1 0x0 PUSH2 0x4077 DUP3 PUSH2 0x4090 JUMP JUMPDEST SWAP1 POP SWAP2 SWAP1 POP JUMP JUMPDEST PUSH1 0x0 PUSH2 0x4089 DUP3 PUSH2 0x4090 JUMP JUMPDEST SWAP1 POP SWAP2 SWAP1 POP JUMP JUMPDEST PUSH1 0x0 PUSH2 0x409B DUP3 PUSH2 0x40A2 JUMP JUMPDEST SWAP1 POP SWAP2 SWAP1 POP JUMP JUMPDEST PUSH1 0x0 PUSH2 0x40AD DUP3 PUSH2 0x4030 JUMP JUMPDEST SWAP1 POP SWAP2 SWAP1 POP JUMP JUMPDEST PUSH1 0x0 JUMPDEST DUP4 DUP2 LT ISZERO PUSH2 0x40D2 JUMPI DUP1 DUP3 ADD MLOAD DUP2 DUP5 ADD MSTORE PUSH1 0x20 DUP2 ADD SWAP1 POP PUSH2 0x40B7 JUMP JUMPDEST DUP4 DUP2 GT ISZERO PUSH2 0x40E1 JUMPI PUSH1 0x0 DUP5 DUP5 ADD MSTORE JUMPDEST POP POP POP POP JUMP JUMPDEST PUSH1 0x0 PUSH2 0x40F2 DUP3 PUSH2 0x4050 JUMP JUMPDEST SWAP2 POP PUSH32 0xFFFFFFFFFFFFFFFFFFFFFFFFFFFFFFFFFFFFFFFFFFFFFFFFFFFFFFFFFFFFFFFF DUP3 EQ ISZERO PUSH2 0x4125 JUMPI PUSH2 0x4124 PUSH2 0x4130 JUMP JUMPDEST JUMPDEST PUSH1 0x1 DUP3 ADD SWAP1 POP SWAP2 SWAP1 POP JUMP JUMPDEST PUSH32 0x4E487B7100000000000000000000000000000000000000000000000000000000 PUSH1 0x0 MSTORE PUSH1 0x11 PUSH1 0x4 MSTORE PUSH1 0x24 PUSH1 0x0 REVERT JUMPDEST PUSH32 0x4E487B7100000000000000000000000000000000000000000000000000000000 PUSH1 0x0 MSTORE PUSH1 0x12 PUSH1 0x4 MSTORE PUSH1 0x24 PUSH1 0x0 REVERT JUMPDEST PUSH32 0x4E487B7100000000000000000000000000000000000000000000000000000000 PUSH1 0x0 MSTORE PUSH1 0x32 PUSH1 0x4 MSTORE PUSH1 0x24 PUSH1 0x0 REVERT JUMPDEST PUSH1 0x0 DUP1 REVERT JUMPDEST PUSH1 0x0 PUSH1 0x1F NOT PUSH1 0x1F DUP4 ADD AND SWAP1 POP SWAP2 SWAP1 POP JUMP JUMPDEST PUSH32 0x4F776E61626C653A206E6577206F776E657220697320746865207A65726F2061 PUSH1 0x0 DUP3 ADD MSTORE PUSH32 0x6464726573730000000000000000000000000000000000000000000000000000 PUSH1 0x20 DUP3 ADD MSTORE POP JUMP JUMPDEST PUSH32 0x506F776572206973206E6F7420656E6F75676800000000000000000000000000 PUSH1 0x0 DUP3 ADD MSTORE POP JUMP JUMPDEST PUSH32 0x776974686472617720506F77657220627920756E7374616B696E670000000000 PUSH1 0x0 DUP3 ADD MSTORE POP JUMP JUMPDEST PUSH32 0x536166654D6174683A206164646974696F6E206F766572666C6F770000000000 PUSH1 0x0 DUP3 ADD MSTORE POP JUMP JUMPDEST PUSH32 0x416464726573733A20696E73756666696369656E742062616C616E636520666F PUSH1 0x0 DUP3 ADD MSTORE PUSH32 0x722063616C6C0000000000000000000000000000000000000000000000000000 PUSH1 0x20 DUP3 ADD MSTORE POP JUMP JUMPDEST PUSH32 0x6465706F73697420506F776572206279207374616B696E670000000000000000 PUSH1 0x0 DUP3 ADD MSTORE POP JUMP JUMPDEST PUSH32 0x536166654D6174683A206D756C7469706C69636174696F6E206F766572666C6F PUSH1 0x0 DUP3 ADD MSTORE PUSH32 0x7700000000000000000000000000000000000000000000000000000000000000 PUSH1 0x20 DUP3 ADD MSTORE POP JUMP JUMPDEST PUSH32 0x4F776E61626C653A2063616C6C6572206973206E6F7420746865206F776E6572 PUSH1 0x0 DUP3 ADD MSTORE POP JUMP JUMPDEST PUSH32 0x43616C6C6572206973206E6F742066616D696C79000000000000000000000000 PUSH1 0x0 DUP3 ADD MSTORE POP JUMP JUMPDEST PUSH32 0x416464726573733A2063616C6C20746F206E6F6E2D636F6E7472616374000000 PUSH1 0x0 DUP3 ADD MSTORE POP JUMP JUMPDEST PUSH32 0x77697468647261773A206E6F7420676F6F640000000000000000000000000000 PUSH1 0x0 DUP3 ADD MSTORE POP JUMP JUMPDEST PUSH32 0x5361666545524332303A204552433230206F7065726174696F6E20646964206E PUSH1 0x0 DUP3 ADD MSTORE PUSH32 0x6F74207375636365656400000000000000000000000000000000000000000000 PUSH1 0x20 DUP3 ADD MSTORE POP JUMP JUMPDEST PUSH32 0x6D6967726174653A206261640000000000000000000000000000000000000000 PUSH1 0x0 DUP3 ADD MSTORE POP JUMP JUMPDEST PUSH32 0x5361666545524332303A20617070726F76652066726F6D206E6F6E2D7A65726F PUSH1 0x0 DUP3 ADD MSTORE PUSH32 0x20746F206E6F6E2D7A65726F20616C6C6F77616E636500000000000000000000 PUSH1 0x20 DUP3 ADD MSTORE POP JUMP JUMPDEST PUSH32 0x6D6967726174653A206E6F206D69677261746F72000000000000000000000000 PUSH1 0x0 DUP3 ADD MSTORE POP JUMP JUMPDEST PUSH2 0x4501 DUP2 PUSH2 0x3FDC JUMP JUMPDEST DUP2 EQ PUSH2 0x450C JUMPI PUSH1 0x0 DUP1 REVERT JUMPDEST POP JUMP JUMPDEST PUSH2 0x4518 DUP2 PUSH2 0x3FEE JUMP JUMPDEST DUP2 EQ PUSH2 0x4523 JUMPI PUSH1 0x0 DUP1 REVERT JUMPDEST POP JUMP JUMPDEST PUSH2 0x452F DUP2 PUSH2 0x3FFA JUMP JUMPDEST DUP2 EQ PUSH2 0x453A JUMPI PUSH1 0x0 DUP1 REVERT JUMPDEST POP JUMP JUMPDEST PUSH2 0x4546 DUP2 PUSH2 0x400C JUMP JUMPDEST DUP2 EQ PUSH2 0x4551 JUMPI PUSH1 0x0 DUP1 REVERT JUMPDEST POP JUMP JUMPDEST PUSH2 0x455D DUP2 PUSH2 0x401E JUMP JUMPDEST DUP2 EQ PUSH2 0x4568 JUMPI PUSH1 0x0 DUP1 REVERT JUMPDEST POP JUMP JUMPDEST PUSH2 0x4574 DUP2 PUSH2 0x4050 JUMP JUMPDEST DUP2 EQ PUSH2 0x457F JUMPI PUSH1 0x0 DUP1 REVERT JUMPDEST POP JUMP INVALID LOG2 PUSH5 0x6970667358 0x22 SLT KECCAK256 PUSH12 0x52A6C08AFCEFD74110E5339A CREATE 0xD5 ISZERO 0xAF SIGNEXTEND REVERT 0x2A 0xD1 SWAP15 0xFB 0xF6 SWAP13 0xED PUSH8 0xC240F8F50964736F PUSH13 0x63430008070033000000000000 "
				},
				"gasEstimates": {
					"creation": {
						"codeDepositCost": "3569600",
						"executionCost": "infinite",
						"totalCost": "infinite"
					},
					"external": {
						"BONUS_MULTIPLIER()": "2540",
						"DDT()": "2733",
						"DDTMasterchef()": "2559",
						"NFTStakeAddress()": "2603",
						"PowerPerBlock()": "2540",
						"add(uint256,address,bool)": "infinite",
						"addNFT(address,uint256)": "73759",
						"claimNFTReward(uint256,uint256)": "infinite",
						"deposit(uint256,uint256)": "infinite",
						"emergencyWithdraw(uint256)": "infinite",
						"enterStaking(uint256)": "infinite",
						"enterStakingCompund(uint256,address)": "infinite",
						"getMultiplier(uint256,uint256)": "infinite",
						"getPowerBalance(address)": "2974",
						"leaveStaking(uint256)": "infinite",
						"massUpdatePools()": "infinite",
						"migrate(uint256)": "infinite",
						"migrator()": "2667",
						"nftsInfo(uint256)": "infinite",
						"owner()": "2567",
						"pendingPower(uint256,address)": "infinite",
						"poolInfo(uint256)": "infinite",
						"poolLength()": "2492",
						"powerBalance(address)": "2880",
						"renounceOwnership()": "30486",
						"set(uint256,uint256,bool)": "infinite",
						"setMigrator(address)": "27117",
						"startBlock()": "2541",
						"totalAllocPoint()": "2475",
						"transferOwnership(address)": "30833",
						"updateMultiplier(uint256)": "24893",
						"updateNFT(uint256,uint256)": "infinite",
						"updateNFTStakeAddress(address)": "27031",
						"updatePool(uint256)": "infinite",
						"updatePowerPerBlock(uint256)": "24894",
						"userInfo(uint256,address)": "infinite",
						"withdraw(uint256,uint256)": "infinite"
					}
				},
				"methodIdentifiers": {
					"BONUS_MULTIPLIER()": "8aa28550",
					"DDT()": "cb3cba55",
					"DDTMasterchef()": "71916982",
					"NFTStakeAddress()": "83e32135",
					"PowerPerBlock()": "5990c569",
					"add(uint256,address,bool)": "1eaaa045",
					"addNFT(address,uint256)": "4ea2813c",
					"claimNFTReward(uint256,uint256)": "1d5fbd87",
					"deposit(uint256,uint256)": "e2bbb158",
					"emergencyWithdraw(uint256)": "5312ea8e",
					"enterStaking(uint256)": "41441d3b",
					"enterStakingCompund(uint256,address)": "cf35fddf",
					"getMultiplier(uint256,uint256)": "8dbb1e3a",
					"getPowerBalance(address)": "8c51793b",
					"leaveStaking(uint256)": "1058d281",
					"massUpdatePools()": "630b5ba1",
					"migrate(uint256)": "454b0608",
					"migrator()": "7cd07e47",
					"nftsInfo(uint256)": "61c1b724",
					"owner()": "8da5cb5b",
					"pendingPower(uint256,address)": "f3239ab5",
					"poolInfo(uint256)": "1526fe27",
					"poolLength()": "081e3eda",
					"powerBalance(address)": "d209db8c",
					"renounceOwnership()": "715018a6",
					"set(uint256,uint256,bool)": "64482f79",
					"setMigrator(address)": "23cf3118",
					"startBlock()": "48cd4cb1",
					"totalAllocPoint()": "17caf6f1",
					"transferOwnership(address)": "f2fde38b",
					"updateMultiplier(uint256)": "5ffe6146",
					"updateNFT(uint256,uint256)": "c11490cc",
					"updateNFTStakeAddress(address)": "0ba33a58",
					"updatePool(uint256)": "51eb05a6",
					"updatePowerPerBlock(uint256)": "3df7aff3",
					"userInfo(uint256,address)": "93f1a40b",
					"withdraw(uint256,uint256)": "441a3e70"
				}
			},
			"storageLayout": {
				"storage": [
					{
						"astId": 820,
						"contract": "contracts/NFTMasterChef.sol:NFTMasterChef",
						"label": "_owner",
						"offset": 0,
						"slot": "0",
						"type": "t_address"
					},
					{
						"astId": 967,
						"contract": "contracts/NFTMasterChef.sol:NFTMasterChef",
						"label": "nftsInfo",
						"offset": 0,
						"slot": "1",
						"type": "t_array(t_struct(NFTsInfo)963_storage)dyn_storage"
					},
					{
						"astId": 970,
						"contract": "contracts/NFTMasterChef.sol:NFTMasterChef",
						"label": "DDT",
						"offset": 0,
						"slot": "2",
						"type": "t_contract(IERC20)286"
					},
					{
						"astId": 972,
						"contract": "contracts/NFTMasterChef.sol:NFTMasterChef",
						"label": "PowerPerBlock",
						"offset": 0,
						"slot": "3",
						"type": "t_uint256"
					},
					{
						"astId": 975,
						"contract": "contracts/NFTMasterChef.sol:NFTMasterChef",
						"label": "BONUS_MULTIPLIER",
						"offset": 0,
						"slot": "4",
						"type": "t_uint256"
					},
					{
						"astId": 978,
						"contract": "contracts/NFTMasterChef.sol:NFTMasterChef",
						"label": "migrator",
						"offset": 0,
						"slot": "5",
						"type": "t_contract(IMigratorChef)927"
					},
					{
						"astId": 982,
						"contract": "contracts/NFTMasterChef.sol:NFTMasterChef",
						"label": "poolInfo",
						"offset": 0,
						"slot": "6",
						"type": "t_array(t_struct(PoolInfo)957_storage)dyn_storage"
					},
					{
						"astId": 989,
						"contract": "contracts/NFTMasterChef.sol:NFTMasterChef",
						"label": "userInfo",
						"offset": 0,
						"slot": "7",
						"type": "t_mapping(t_uint256,t_mapping(t_address,t_struct(UserInfo)947_storage))"
					},
					{
						"astId": 992,
						"contract": "contracts/NFTMasterChef.sol:NFTMasterChef",
						"label": "totalAllocPoint",
						"offset": 0,
						"slot": "8",
						"type": "t_uint256"
					},
					{
						"astId": 994,
						"contract": "contracts/NFTMasterChef.sol:NFTMasterChef",
						"label": "startBlock",
						"offset": 0,
						"slot": "9",
						"type": "t_uint256"
					},
					{
						"astId": 996,
						"contract": "contracts/NFTMasterChef.sol:NFTMasterChef",
						"label": "NFTStakeAddress",
						"offset": 0,
						"slot": "10",
						"type": "t_address"
					},
					{
						"astId": 998,
						"contract": "contracts/NFTMasterChef.sol:NFTMasterChef",
						"label": "DDTMasterchef",
						"offset": 0,
						"slot": "11",
						"type": "t_address"
					},
					{
						"astId": 1002,
						"contract": "contracts/NFTMasterChef.sol:NFTMasterChef",
						"label": "powerBalance",
						"offset": 0,
						"slot": "12",
						"type": "t_mapping(t_address,t_uint256)"
					}
				],
				"types": {
					"t_address": {
						"encoding": "inplace",
						"label": "address",
						"numberOfBytes": "20"
					},
					"t_array(t_struct(NFTsInfo)963_storage)dyn_storage": {
						"base": "t_struct(NFTsInfo)963_storage",
						"encoding": "dynamic_array",
						"label": "struct NFTMasterChef.NFTsInfo[]",
						"numberOfBytes": "32"
					},
					"t_array(t_struct(PoolInfo)957_storage)dyn_storage": {
						"base": "t_struct(PoolInfo)957_storage",
						"encoding": "dynamic_array",
						"label": "struct NFTMasterChef.PoolInfo[]",
						"numberOfBytes": "32"
					},
					"t_contract(IERC20)286": {
						"encoding": "inplace",
						"label": "contract IERC20",
						"numberOfBytes": "20"
					},
					"t_contract(IERC721)933": {
						"encoding": "inplace",
						"label": "contract IERC721",
						"numberOfBytes": "20"
					},
					"t_contract(IMigratorChef)927": {
						"encoding": "inplace",
						"label": "contract IMigratorChef",
						"numberOfBytes": "20"
					},
					"t_mapping(t_address,t_struct(UserInfo)947_storage)": {
						"encoding": "mapping",
						"key": "t_address",
						"label": "mapping(address => struct NFTMasterChef.UserInfo)",
						"numberOfBytes": "32",
						"value": "t_struct(UserInfo)947_storage"
					},
					"t_mapping(t_address,t_uint256)": {
						"encoding": "mapping",
						"key": "t_address",
						"label": "mapping(address => uint256)",
						"numberOfBytes": "32",
						"value": "t_uint256"
					},
					"t_mapping(t_uint256,t_mapping(t_address,t_struct(UserInfo)947_storage))": {
						"encoding": "mapping",
						"key": "t_uint256",
						"label": "mapping(uint256 => mapping(address => struct NFTMasterChef.UserInfo))",
						"numberOfBytes": "32",
						"value": "t_mapping(t_address,t_struct(UserInfo)947_storage)"
					},
					"t_struct(NFTsInfo)963_storage": {
						"encoding": "inplace",
						"label": "struct NFTMasterChef.NFTsInfo",
						"members": [
							{
								"astId": 960,
								"contract": "contracts/NFTMasterChef.sol:NFTMasterChef",
								"label": "NFT",
								"offset": 0,
								"slot": "0",
								"type": "t_contract(IERC721)933"
							},
							{
								"astId": 962,
								"contract": "contracts/NFTMasterChef.sol:NFTMasterChef",
								"label": "power",
								"offset": 0,
								"slot": "1",
								"type": "t_uint256"
							}
						],
						"numberOfBytes": "64"
					},
					"t_struct(PoolInfo)957_storage": {
						"encoding": "inplace",
						"label": "struct NFTMasterChef.PoolInfo",
						"members": [
							{
								"astId": 950,
								"contract": "contracts/NFTMasterChef.sol:NFTMasterChef",
								"label": "lpToken",
								"offset": 0,
								"slot": "0",
								"type": "t_contract(IERC20)286"
							},
							{
								"astId": 952,
								"contract": "contracts/NFTMasterChef.sol:NFTMasterChef",
								"label": "allocPoint",
								"offset": 0,
								"slot": "1",
								"type": "t_uint256"
							},
							{
								"astId": 954,
								"contract": "contracts/NFTMasterChef.sol:NFTMasterChef",
								"label": "lastRewardBlock",
								"offset": 0,
								"slot": "2",
								"type": "t_uint256"
							},
							{
								"astId": 956,
								"contract": "contracts/NFTMasterChef.sol:NFTMasterChef",
								"label": "accPowerPerShare",
								"offset": 0,
								"slot": "3",
								"type": "t_uint256"
							}
						],
						"numberOfBytes": "128"
					},
					"t_struct(UserInfo)947_storage": {
						"encoding": "inplace",
						"label": "struct NFTMasterChef.UserInfo",
						"members": [
							{
								"astId": 944,
								"contract": "contracts/NFTMasterChef.sol:NFTMasterChef",
								"label": "amount",
								"offset": 0,
								"slot": "0",
								"type": "t_uint256"
							},
							{
								"astId": 946,
								"contract": "contracts/NFTMasterChef.sol:NFTMasterChef",
								"label": "rewardDebt",
								"offset": 0,
								"slot": "1",
								"type": "t_uint256"
							}
						],
						"numberOfBytes": "64"
					},
					"t_uint256": {
						"encoding": "inplace",
						"label": "uint256",
						"numberOfBytes": "32"
					}
				}
			},
			"userdoc": {
				"kind": "user",
				"methods": {},
				"version": 1
			}
		}
	}
}