{
	"contracts/LpPrice.sol": {
		"LpUtils": {
			"abi": [
				{
					"inputs": [],
					"name": "BUSD",
					"outputs": [
						{
							"internalType": "address",
							"name": "",
							"type": "address"
						}
					],
					"stateMutability": "view",
					"type": "function"
				},
				{
					"inputs": [],
					"name": "WBNB",
					"outputs": [
						{
							"internalType": "address",
							"name": "",
							"type": "address"
						}
					],
					"stateMutability": "view",
					"type": "function"
				},
				{
					"inputs": [
						{
							"internalType": "contract Router",
							"name": "routerAddress",
							"type": "address"
						},
						{
							"internalType": "address",
							"name": "token",
							"type": "address"
						}
					],
					"name": "price",
					"outputs": [
						{
							"internalType": "uint256[]",
							"name": "amounts",
							"type": "uint256[]"
						}
					],
					"stateMutability": "view",
					"type": "function"
				},
				{
					"inputs": [
						{
							"internalType": "contract IERC20",
							"name": "lpAddress",
							"type": "address"
						}
					],
					"name": "token0",
					"outputs": [
						{
							"internalType": "address",
							"name": "",
							"type": "address"
						}
					],
					"stateMutability": "view",
					"type": "function"
				},
				{
					"inputs": [
						{
							"internalType": "contract IERC20",
							"name": "lpAddress",
							"type": "address"
						}
					],
					"name": "token1",
					"outputs": [
						{
							"internalType": "address",
							"name": "",
							"type": "address"
						}
					],
					"stateMutability": "view",
					"type": "function"
				},
				{
					"inputs": [
						{
							"internalType": "contract IERC20",
							"name": "lpAddress",
							"type": "address"
						}
					],
					"name": "totalSupply",
					"outputs": [
						{
							"internalType": "uint256",
							"name": "",
							"type": "uint256"
						}
					],
					"stateMutability": "view",
					"type": "function"
				}
			],
			"devdoc": {
				"kind": "dev",
				"methods": {},
				"version": 1
			},
			"evm": {
				"assembly": "    /* \"contracts/LpPrice.sol\":8846:10006  contract LpUtils {\r... */\n  mstore(0x40, 0x80)\n    /* \"contracts/LpPrice.sol\":8892:8934  0xae13d989daC2f0dEbFf460aC112a837C89BAa7cd */\n  0xae13d989dac2f0debff460ac112a837c89baa7cd\n    /* \"contracts/LpPrice.sol\":8870:8934  address public WBNB = 0xae13d989daC2f0dEbFf460aC112a837C89BAa7cd */\n  0x00\n  dup1\n  0x0100\n  exp\n  dup2\n  sload\n  dup2\n  0xffffffffffffffffffffffffffffffffffffffff\n  mul\n  not\n  and\n  swap1\n  dup4\n  0xffffffffffffffffffffffffffffffffffffffff\n  and\n  mul\n  or\n  swap1\n  sstore\n  pop\n    /* \"contracts/LpPrice.sol\":8963:9005  0x78867BbEeF44f2326bF8DDd1941a4439382EF2A7 */\n  0x78867bbeef44f2326bf8ddd1941a4439382ef2a7\n    /* \"contracts/LpPrice.sol\":8941:9005  address public BUSD = 0x78867BbEeF44f2326bF8DDd1941a4439382EF2A7 */\n  0x01\n  exp(0x0100, 0x00)\n  dup2\n  sload\n  dup2\n  0xffffffffffffffffffffffffffffffffffffffff\n  mul\n  not\n  and\n  swap1\n  dup4\n  0xffffffffffffffffffffffffffffffffffffffff\n  and\n  mul\n  or\n  swap1\n  sstore\n  pop\n    /* \"contracts/LpPrice.sol\":9029:9048  1000000000000000000 */\n  0x0de0b6b3a7640000\n    /* \"contracts/LpPrice.sol\":9012:9048  uint256 amount = 1000000000000000000 */\n  0x02\n  sstore\n    /* \"contracts/LpPrice.sol\":8846:10006  contract LpUtils {\r... */\n  callvalue\n  dup1\n  iszero\n  tag_1\n  jumpi\n  0x00\n  dup1\n  revert\ntag_1:\n  pop\n  dataSize(sub_0)\n  dup1\n  dataOffset(sub_0)\n  0x00\n  codecopy\n  0x00\n  return\nstop\n\nsub_0: assembly {\n        /* \"contracts/LpPrice.sol\":8846:10006  contract LpUtils {\r... */\n      mstore(0x40, 0x80)\n      callvalue\n      dup1\n      iszero\n      tag_1\n      jumpi\n      0x00\n      dup1\n      revert\n    tag_1:\n      pop\n      jumpi(tag_2, lt(calldatasize, 0x04))\n      shr(0xe0, calldataload(0x00))\n      dup1\n      0x2b00490d\n      eq\n      tag_3\n      jumpi\n      dup1\n      0x37823795\n      eq\n      tag_4\n      jumpi\n      dup1\n      0x484f4ea9\n      eq\n      tag_5\n      jumpi\n      dup1\n      0x76bf39a3\n      eq\n      tag_6\n      jumpi\n      dup1\n      0x8dd95002\n      eq\n      tag_7\n      jumpi\n      dup1\n      0xe4dc2aa4\n      eq\n      tag_8\n      jumpi\n    tag_2:\n      0x00\n      dup1\n      revert\n        /* \"contracts/LpPrice.sol\":9739:10003  function price(Router routerAddress, address token) external view returns(uint[] memory amounts){\r... */\n    tag_3:\n      tag_9\n      0x04\n      dup1\n      calldatasize\n      sub\n      dup2\n      add\n      swap1\n      tag_10\n      swap2\n      swap1\n      tag_11\n      jump\t// in\n    tag_10:\n      tag_12\n      jump\t// in\n    tag_9:\n      mload(0x40)\n      tag_13\n      swap2\n      swap1\n      tag_14\n      jump\t// in\n    tag_13:\n      mload(0x40)\n      dup1\n      swap2\n      sub\n      swap1\n      return\n        /* \"contracts/LpPrice.sol\":9623:9731  function token1(IERC20 lpAddress) external view returns(address){\r... */\n    tag_4:\n      tag_15\n      0x04\n      dup1\n      calldatasize\n      sub\n      dup2\n      add\n      swap1\n      tag_16\n      swap2\n      swap1\n      tag_17\n      jump\t// in\n    tag_16:\n      tag_18\n      jump\t// in\n    tag_15:\n      mload(0x40)\n      tag_19\n      swap2\n      swap1\n      tag_20\n      jump\t// in\n    tag_19:\n      mload(0x40)\n      dup1\n      swap2\n      sub\n      swap1\n      return\n        /* \"contracts/LpPrice.sol\":8941:9005  address public BUSD = 0x78867BbEeF44f2326bF8DDd1941a4439382EF2A7 */\n    tag_5:\n      tag_21\n      tag_22\n      jump\t// in\n    tag_21:\n      mload(0x40)\n      tag_23\n      swap2\n      swap1\n      tag_20\n      jump\t// in\n    tag_23:\n      mload(0x40)\n      dup1\n      swap2\n      sub\n      swap1\n      return\n        /* \"contracts/LpPrice.sol\":9507:9615  function token0(IERC20 lpAddress) external view returns(address){\r... */\n    tag_6:\n      tag_24\n      0x04\n      dup1\n      calldatasize\n      sub\n      dup2\n      add\n      swap1\n      tag_25\n      swap2\n      swap1\n      tag_17\n      jump\t// in\n    tag_25:\n      tag_26\n      jump\t// in\n    tag_24:\n      mload(0x40)\n      tag_27\n      swap2\n      swap1\n      tag_20\n      jump\t// in\n    tag_27:\n      mload(0x40)\n      dup1\n      swap2\n      sub\n      swap1\n      return\n        /* \"contracts/LpPrice.sol\":8870:8934  address public WBNB = 0xae13d989daC2f0dEbFf460aC112a837C89BAa7cd */\n    tag_7:\n      tag_28\n      tag_29\n      jump\t// in\n    tag_28:\n      mload(0x40)\n      tag_30\n      swap2\n      swap1\n      tag_20\n      jump\t// in\n    tag_30:\n      mload(0x40)\n      dup1\n      swap2\n      sub\n      swap1\n      return\n        /* \"contracts/LpPrice.sol\":9381:9499  function totalSupply(IERC20 lpAddress) external view returns(uint256){\r... */\n    tag_8:\n      tag_31\n      0x04\n      dup1\n      calldatasize\n      sub\n      dup2\n      add\n      swap1\n      tag_32\n      swap2\n      swap1\n      tag_17\n      jump\t// in\n    tag_32:\n      tag_33\n      jump\t// in\n    tag_31:\n      mload(0x40)\n      tag_34\n      swap2\n      swap1\n      tag_35\n      jump\t// in\n    tag_34:\n      mload(0x40)\n      dup1\n      swap2\n      sub\n      swap1\n      return\n        /* \"contracts/LpPrice.sol\":9739:10003  function price(Router routerAddress, address token) external view returns(uint[] memory amounts){\r... */\n    tag_12:\n        /* \"contracts/LpPrice.sol\":9813:9834  uint[] memory amounts */\n      0x60\n        /* \"contracts/LpPrice.sol\":9846:9867  address[] memory path */\n      0x00\n        /* \"contracts/LpPrice.sol\":9884:9885  3 */\n      0x03\n        /* \"contracts/LpPrice.sol\":9870:9886  new address[](3) */\n      0xffffffffffffffff\n      dup2\n      gt\n      iszero\n      tag_37\n      jumpi\n      tag_38\n      tag_39\n      jump\t// in\n    tag_38:\n    tag_37:\n      mload(0x40)\n      swap1\n      dup1\n      dup3\n      mstore\n      dup1\n      0x20\n      mul\n      0x20\n      add\n      dup3\n      add\n      0x40\n      mstore\n      dup1\n      iszero\n      tag_40\n      jumpi\n      dup2\n      0x20\n      add\n      0x20\n      dup3\n      mul\n      dup1\n      calldatasize\n      dup4\n      calldatacopy\n      dup1\n      dup3\n      add\n      swap2\n      pop\n      pop\n      swap1\n      pop\n    tag_40:\n      pop\n        /* \"contracts/LpPrice.sol\":9846:9886  address[] memory path = new address[](3) */\n      swap1\n      pop\n        /* \"contracts/LpPrice.sol\":9907:9912  token */\n      dup3\n        /* \"contracts/LpPrice.sol\":9897:9901  path */\n      dup2\n        /* \"contracts/LpPrice.sol\":9902:9903  0 */\n      0x00\n        /* \"contracts/LpPrice.sol\":9897:9904  path[0] */\n      dup2\n      mload\n      dup2\n      lt\n      tag_41\n      jumpi\n      tag_42\n      tag_43\n      jump\t// in\n    tag_42:\n    tag_41:\n      0x20\n      mul\n      0x20\n      add\n      add\n        /* \"contracts/LpPrice.sol\":9897:9912  path[0] = token */\n      swap1\n      0xffffffffffffffffffffffffffffffffffffffff\n      and\n      swap1\n      dup2\n      0xffffffffffffffffffffffffffffffffffffffff\n      and\n      dup2\n      mstore\n      pop\n      pop\n        /* \"contracts/LpPrice.sol\":9933:9937  WBNB */\n      0x00\n      dup1\n      sload\n      swap1\n      0x0100\n      exp\n      swap1\n      div\n      0xffffffffffffffffffffffffffffffffffffffff\n      and\n        /* \"contracts/LpPrice.sol\":9923:9927  path */\n      dup2\n        /* \"contracts/LpPrice.sol\":9928:9929  1 */\n      0x01\n        /* \"contracts/LpPrice.sol\":9923:9930  path[1] */\n      dup2\n      mload\n      dup2\n      lt\n      tag_44\n      jumpi\n      tag_45\n      tag_43\n      jump\t// in\n    tag_45:\n    tag_44:\n      0x20\n      mul\n      0x20\n      add\n      add\n        /* \"contracts/LpPrice.sol\":9923:9937  path[1] = WBNB */\n      swap1\n      0xffffffffffffffffffffffffffffffffffffffff\n      and\n      swap1\n      dup2\n      0xffffffffffffffffffffffffffffffffffffffff\n      and\n      dup2\n      mstore\n      pop\n      pop\n        /* \"contracts/LpPrice.sol\":9955:9968  routerAddress */\n      dup4\n        /* \"contracts/LpPrice.sol\":9955:9982  routerAddress.getAmountsOut */\n      0xffffffffffffffffffffffffffffffffffffffff\n      and\n      0xd06ca61f\n        /* \"contracts/LpPrice.sol\":9983:9989  amount */\n      sload(0x02)\n        /* \"contracts/LpPrice.sol\":9990:9994  path */\n      dup4\n        /* \"contracts/LpPrice.sol\":9955:9995  routerAddress.getAmountsOut(amount,path) */\n      mload(0x40)\n      dup4\n      0xffffffff\n      and\n      0xe0\n      shl\n      dup2\n      mstore\n      0x04\n      add\n      tag_46\n      swap3\n      swap2\n      swap1\n      tag_47\n      jump\t// in\n    tag_46:\n      0x00\n      mload(0x40)\n      dup1\n      dup4\n      sub\n      dup2\n      dup7\n      dup1\n      extcodesize\n      iszero\n      dup1\n      iszero\n      tag_48\n      jumpi\n      0x00\n      dup1\n      revert\n    tag_48:\n      pop\n      gas\n      staticcall\n      iszero\n      dup1\n      iszero\n      tag_50\n      jumpi\n      returndatasize\n      0x00\n      dup1\n      returndatacopy\n      revert(0x00, returndatasize)\n    tag_50:\n      pop\n      pop\n      pop\n      pop\n      mload(0x40)\n      returndatasize\n      0x00\n      dup3\n      returndatacopy\n      returndatasize\n      not(0x1f)\n      0x1f\n      dup3\n      add\n      and\n      dup3\n      add\n      dup1\n      0x40\n      mstore\n      pop\n      dup2\n      add\n      swap1\n      tag_51\n      swap2\n      swap1\n      tag_52\n      jump\t// in\n    tag_51:\n        /* \"contracts/LpPrice.sol\":9948:9995  return routerAddress.getAmountsOut(amount,path) */\n      swap2\n      pop\n      pop\n        /* \"contracts/LpPrice.sol\":9739:10003  function price(Router routerAddress, address token) external view returns(uint[] memory amounts){\r... */\n      swap3\n      swap2\n      pop\n      pop\n      jump\t// out\n        /* \"contracts/LpPrice.sol\":9623:9731  function token1(IERC20 lpAddress) external view returns(address){\r... */\n    tag_18:\n        /* \"contracts/LpPrice.sol\":9679:9686  address */\n      0x00\n        /* \"contracts/LpPrice.sol\":9705:9714  lpAddress */\n      dup2\n        /* \"contracts/LpPrice.sol\":9705:9721  lpAddress.token1 */\n      0xffffffffffffffffffffffffffffffffffffffff\n      and\n      0xd21220a7\n        /* \"contracts/LpPrice.sol\":9705:9723  lpAddress.token1() */\n      mload(0x40)\n      dup2\n      0xffffffff\n      and\n      0xe0\n      shl\n      dup2\n      mstore\n      0x04\n      add\n      0x20\n      mload(0x40)\n      dup1\n      dup4\n      sub\n      dup2\n      dup7\n      dup1\n      extcodesize\n      iszero\n      dup1\n      iszero\n      tag_54\n      jumpi\n      0x00\n      dup1\n      revert\n    tag_54:\n      pop\n      gas\n      staticcall\n      iszero\n      dup1\n      iszero\n      tag_56\n      jumpi\n      returndatasize\n      0x00\n      dup1\n      returndatacopy\n      revert(0x00, returndatasize)\n    tag_56:\n      pop\n      pop\n      pop\n      pop\n      mload(0x40)\n      returndatasize\n      not(0x1f)\n      0x1f\n      dup3\n      add\n      and\n      dup3\n      add\n      dup1\n      0x40\n      mstore\n      pop\n      dup2\n      add\n      swap1\n      tag_57\n      swap2\n      swap1\n      tag_58\n      jump\t// in\n    tag_57:\n        /* \"contracts/LpPrice.sol\":9698:9723  return lpAddress.token1() */\n      swap1\n      pop\n        /* \"contracts/LpPrice.sol\":9623:9731  function token1(IERC20 lpAddress) external view returns(address){\r... */\n      swap2\n      swap1\n      pop\n      jump\t// out\n        /* \"contracts/LpPrice.sol\":8941:9005  address public BUSD = 0x78867BbEeF44f2326bF8DDd1941a4439382EF2A7 */\n    tag_22:\n      0x01\n      0x00\n      swap1\n      sload\n      swap1\n      0x0100\n      exp\n      swap1\n      div\n      0xffffffffffffffffffffffffffffffffffffffff\n      and\n      dup2\n      jump\t// out\n        /* \"contracts/LpPrice.sol\":9507:9615  function token0(IERC20 lpAddress) external view returns(address){\r... */\n    tag_26:\n        /* \"contracts/LpPrice.sol\":9563:9570  address */\n      0x00\n        /* \"contracts/LpPrice.sol\":9589:9598  lpAddress */\n      dup2\n        /* \"contracts/LpPrice.sol\":9589:9605  lpAddress.token0 */\n      0xffffffffffffffffffffffffffffffffffffffff\n      and\n      0x0dfe1681\n        /* \"contracts/LpPrice.sol\":9589:9607  lpAddress.token0() */\n      mload(0x40)\n      dup2\n      0xffffffff\n      and\n      0xe0\n      shl\n      dup2\n      mstore\n      0x04\n      add\n      0x20\n      mload(0x40)\n      dup1\n      dup4\n      sub\n      dup2\n      dup7\n      dup1\n      extcodesize\n      iszero\n      dup1\n      iszero\n      tag_60\n      jumpi\n      0x00\n      dup1\n      revert\n    tag_60:\n      pop\n      gas\n      staticcall\n      iszero\n      dup1\n      iszero\n      tag_62\n      jumpi\n      returndatasize\n      0x00\n      dup1\n      returndatacopy\n      revert(0x00, returndatasize)\n    tag_62:\n      pop\n      pop\n      pop\n      pop\n      mload(0x40)\n      returndatasize\n      not(0x1f)\n      0x1f\n      dup3\n      add\n      and\n      dup3\n      add\n      dup1\n      0x40\n      mstore\n      pop\n      dup2\n      add\n      swap1\n      tag_63\n      swap2\n      swap1\n      tag_58\n      jump\t// in\n    tag_63:\n        /* \"contracts/LpPrice.sol\":9582:9607  return lpAddress.token0() */\n      swap1\n      pop\n        /* \"contracts/LpPrice.sol\":9507:9615  function token0(IERC20 lpAddress) external view returns(address){\r... */\n      swap2\n      swap1\n      pop\n      jump\t// out\n        /* \"contracts/LpPrice.sol\":8870:8934  address public WBNB = 0xae13d989daC2f0dEbFf460aC112a837C89BAa7cd */\n    tag_29:\n      0x00\n      dup1\n      sload\n      swap1\n      0x0100\n      exp\n      swap1\n      div\n      0xffffffffffffffffffffffffffffffffffffffff\n      and\n      dup2\n      jump\t// out\n        /* \"contracts/LpPrice.sol\":9381:9499  function totalSupply(IERC20 lpAddress) external view returns(uint256){\r... */\n    tag_33:\n        /* \"contracts/LpPrice.sol\":9442:9449  uint256 */\n      0x00\n        /* \"contracts/LpPrice.sol\":9468:9477  lpAddress */\n      dup2\n        /* \"contracts/LpPrice.sol\":9468:9489  lpAddress.totalSupply */\n      0xffffffffffffffffffffffffffffffffffffffff\n      and\n      0x18160ddd\n        /* \"contracts/LpPrice.sol\":9468:9491  lpAddress.totalSupply() */\n      mload(0x40)\n      dup2\n      0xffffffff\n      and\n      0xe0\n      shl\n      dup2\n      mstore\n      0x04\n      add\n      0x20\n      mload(0x40)\n      dup1\n      dup4\n      sub\n      dup2\n      dup7\n      dup1\n      extcodesize\n      iszero\n      dup1\n      iszero\n      tag_65\n      jumpi\n      0x00\n      dup1\n      revert\n    tag_65:\n      pop\n      gas\n      staticcall\n      iszero\n      dup1\n      iszero\n      tag_67\n      jumpi\n      returndatasize\n      0x00\n      dup1\n      returndatacopy\n      revert(0x00, returndatasize)\n    tag_67:\n      pop\n      pop\n      pop\n      pop\n      mload(0x40)\n      returndatasize\n      not(0x1f)\n      0x1f\n      dup3\n      add\n      and\n      dup3\n      add\n      dup1\n      0x40\n      mstore\n      pop\n      dup2\n      add\n      swap1\n      tag_68\n      swap2\n      swap1\n      tag_69\n      jump\t// in\n    tag_68:\n        /* \"contracts/LpPrice.sol\":9461:9491  return lpAddress.totalSupply() */\n      swap1\n      pop\n        /* \"contracts/LpPrice.sol\":9381:9499  function totalSupply(IERC20 lpAddress) external view returns(uint256){\r... */\n      swap2\n      swap1\n      pop\n      jump\t// out\n        /* \"#utility.yul\":24:768   */\n    tag_71:\n        /* \"#utility.yul\":131:136   */\n      0x00\n        /* \"#utility.yul\":156:237   */\n      tag_73\n        /* \"#utility.yul\":172:236   */\n      tag_74\n        /* \"#utility.yul\":229:235   */\n      dup5\n        /* \"#utility.yul\":172:236   */\n      tag_75\n      jump\t// in\n    tag_74:\n        /* \"#utility.yul\":156:237   */\n      tag_76\n      jump\t// in\n    tag_73:\n        /* \"#utility.yul\":147:237   */\n      swap1\n      pop\n        /* \"#utility.yul\":257:262   */\n      dup1\n        /* \"#utility.yul\":286:292   */\n      dup4\n        /* \"#utility.yul\":279:284   */\n      dup3\n        /* \"#utility.yul\":272:293   */\n      mstore\n        /* \"#utility.yul\":320:324   */\n      0x20\n        /* \"#utility.yul\":313:318   */\n      dup3\n        /* \"#utility.yul\":309:325   */\n      add\n        /* \"#utility.yul\":302:325   */\n      swap1\n      pop\n        /* \"#utility.yul\":346:352   */\n      dup3\n        /* \"#utility.yul\":396:399   */\n      dup6\n        /* \"#utility.yul\":388:392   */\n      0x20\n        /* \"#utility.yul\":380:386   */\n      dup7\n        /* \"#utility.yul\":376:393   */\n      mul\n        /* \"#utility.yul\":371:374   */\n      dup3\n        /* \"#utility.yul\":367:394   */\n      add\n        /* \"#utility.yul\":364:400   */\n      gt\n        /* \"#utility.yul\":361:504   */\n      iszero\n      tag_77\n      jumpi\n        /* \"#utility.yul\":415:494   */\n      tag_78\n      tag_79\n      jump\t// in\n    tag_78:\n        /* \"#utility.yul\":361:504   */\n    tag_77:\n        /* \"#utility.yul\":528:529   */\n      0x00\n        /* \"#utility.yul\":513:762   */\n    tag_80:\n        /* \"#utility.yul\":538:544   */\n      dup6\n        /* \"#utility.yul\":535:536   */\n      dup2\n        /* \"#utility.yul\":532:545   */\n      lt\n        /* \"#utility.yul\":513:762   */\n      iszero\n      tag_82\n      jumpi\n        /* \"#utility.yul\":606:609   */\n      dup2\n        /* \"#utility.yul\":635:683   */\n      tag_83\n        /* \"#utility.yul\":679:682   */\n      dup9\n        /* \"#utility.yul\":667:677   */\n      dup3\n        /* \"#utility.yul\":635:683   */\n      tag_84\n      jump\t// in\n    tag_83:\n        /* \"#utility.yul\":630:633   */\n      dup5\n        /* \"#utility.yul\":623:684   */\n      mstore\n        /* \"#utility.yul\":713:717   */\n      0x20\n        /* \"#utility.yul\":708:711   */\n      dup5\n        /* \"#utility.yul\":704:718   */\n      add\n        /* \"#utility.yul\":697:718   */\n      swap4\n      pop\n        /* \"#utility.yul\":747:751   */\n      0x20\n        /* \"#utility.yul\":742:745   */\n      dup4\n        /* \"#utility.yul\":738:752   */\n      add\n        /* \"#utility.yul\":731:752   */\n      swap3\n      pop\n        /* \"#utility.yul\":573:762   */\n      pop\n        /* \"#utility.yul\":560:561   */\n      0x01\n        /* \"#utility.yul\":557:558   */\n      dup2\n        /* \"#utility.yul\":553:562   */\n      add\n        /* \"#utility.yul\":548:562   */\n      swap1\n      pop\n        /* \"#utility.yul\":513:762   */\n      jump(tag_80)\n    tag_82:\n        /* \"#utility.yul\":517:531   */\n      pop\n        /* \"#utility.yul\":137:768   */\n      pop\n      pop\n        /* \"#utility.yul\":24:768   */\n      swap4\n      swap3\n      pop\n      pop\n      pop\n      jump\t// out\n        /* \"#utility.yul\":774:913   */\n    tag_85:\n        /* \"#utility.yul\":820:825   */\n      0x00\n        /* \"#utility.yul\":858:864   */\n      dup2\n        /* \"#utility.yul\":845:865   */\n      calldataload\n        /* \"#utility.yul\":836:865   */\n      swap1\n      pop\n        /* \"#utility.yul\":874:907   */\n      tag_87\n        /* \"#utility.yul\":901:906   */\n      dup2\n        /* \"#utility.yul\":874:907   */\n      tag_88\n      jump\t// in\n    tag_87:\n        /* \"#utility.yul\":774:913   */\n      swap3\n      swap2\n      pop\n      pop\n      jump\t// out\n        /* \"#utility.yul\":919:1062   */\n    tag_89:\n        /* \"#utility.yul\":976:981   */\n      0x00\n        /* \"#utility.yul\":1007:1013   */\n      dup2\n        /* \"#utility.yul\":1001:1014   */\n      mload\n        /* \"#utility.yul\":992:1014   */\n      swap1\n      pop\n        /* \"#utility.yul\":1023:1056   */\n      tag_91\n        /* \"#utility.yul\":1050:1055   */\n      dup2\n        /* \"#utility.yul\":1023:1056   */\n      tag_88\n      jump\t// in\n    tag_91:\n        /* \"#utility.yul\":919:1062   */\n      swap3\n      swap2\n      pop\n      pop\n      jump\t// out\n        /* \"#utility.yul\":1085:1470   */\n    tag_92:\n        /* \"#utility.yul\":1167:1172   */\n      0x00\n        /* \"#utility.yul\":1216:1219   */\n      dup3\n        /* \"#utility.yul\":1209:1213   */\n      0x1f\n        /* \"#utility.yul\":1201:1207   */\n      dup4\n        /* \"#utility.yul\":1197:1214   */\n      add\n        /* \"#utility.yul\":1193:1220   */\n      slt\n        /* \"#utility.yul\":1183:1305   */\n      tag_94\n      jumpi\n        /* \"#utility.yul\":1224:1303   */\n      tag_95\n      tag_96\n      jump\t// in\n    tag_95:\n        /* \"#utility.yul\":1183:1305   */\n    tag_94:\n        /* \"#utility.yul\":1334:1340   */\n      dup2\n        /* \"#utility.yul\":1328:1341   */\n      mload\n        /* \"#utility.yul\":1359:1464   */\n      tag_97\n        /* \"#utility.yul\":1460:1463   */\n      dup5\n        /* \"#utility.yul\":1452:1458   */\n      dup3\n        /* \"#utility.yul\":1445:1449   */\n      0x20\n        /* \"#utility.yul\":1437:1443   */\n      dup7\n        /* \"#utility.yul\":1433:1450   */\n      add\n        /* \"#utility.yul\":1359:1464   */\n      tag_71\n      jump\t// in\n    tag_97:\n        /* \"#utility.yul\":1350:1464   */\n      swap2\n      pop\n        /* \"#utility.yul\":1173:1470   */\n      pop\n        /* \"#utility.yul\":1085:1470   */\n      swap3\n      swap2\n      pop\n      pop\n      jump\t// out\n        /* \"#utility.yul\":1476:1641   */\n    tag_98:\n        /* \"#utility.yul\":1535:1540   */\n      0x00\n        /* \"#utility.yul\":1573:1579   */\n      dup2\n        /* \"#utility.yul\":1560:1580   */\n      calldataload\n        /* \"#utility.yul\":1551:1580   */\n      swap1\n      pop\n        /* \"#utility.yul\":1589:1635   */\n      tag_100\n        /* \"#utility.yul\":1629:1634   */\n      dup2\n        /* \"#utility.yul\":1589:1635   */\n      tag_101\n      jump\t// in\n    tag_100:\n        /* \"#utility.yul\":1476:1641   */\n      swap3\n      swap2\n      pop\n      pop\n      jump\t// out\n        /* \"#utility.yul\":1647:1814   */\n    tag_102:\n        /* \"#utility.yul\":1707:1712   */\n      0x00\n        /* \"#utility.yul\":1745:1751   */\n      dup2\n        /* \"#utility.yul\":1732:1752   */\n      calldataload\n        /* \"#utility.yul\":1723:1752   */\n      swap1\n      pop\n        /* \"#utility.yul\":1761:1808   */\n      tag_104\n        /* \"#utility.yul\":1802:1807   */\n      dup2\n        /* \"#utility.yul\":1761:1808   */\n      tag_105\n      jump\t// in\n    tag_104:\n        /* \"#utility.yul\":1647:1814   */\n      swap3\n      swap2\n      pop\n      pop\n      jump\t// out\n        /* \"#utility.yul\":1820:1963   */\n    tag_84:\n        /* \"#utility.yul\":1877:1882   */\n      0x00\n        /* \"#utility.yul\":1908:1914   */\n      dup2\n        /* \"#utility.yul\":1902:1915   */\n      mload\n        /* \"#utility.yul\":1893:1915   */\n      swap1\n      pop\n        /* \"#utility.yul\":1924:1957   */\n      tag_107\n        /* \"#utility.yul\":1951:1956   */\n      dup2\n        /* \"#utility.yul\":1924:1957   */\n      tag_108\n      jump\t// in\n    tag_107:\n        /* \"#utility.yul\":1820:1963   */\n      swap3\n      swap2\n      pop\n      pop\n      jump\t// out\n        /* \"#utility.yul\":1969:2320   */\n    tag_58:\n        /* \"#utility.yul\":2039:2045   */\n      0x00\n        /* \"#utility.yul\":2088:2090   */\n      0x20\n        /* \"#utility.yul\":2076:2085   */\n      dup3\n        /* \"#utility.yul\":2067:2074   */\n      dup5\n        /* \"#utility.yul\":2063:2086   */\n      sub\n        /* \"#utility.yul\":2059:2091   */\n      slt\n        /* \"#utility.yul\":2056:2175   */\n      iszero\n      tag_110\n      jumpi\n        /* \"#utility.yul\":2094:2173   */\n      tag_111\n      tag_112\n      jump\t// in\n    tag_111:\n        /* \"#utility.yul\":2056:2175   */\n    tag_110:\n        /* \"#utility.yul\":2214:2215   */\n      0x00\n        /* \"#utility.yul\":2239:2303   */\n      tag_113\n        /* \"#utility.yul\":2295:2302   */\n      dup5\n        /* \"#utility.yul\":2286:2292   */\n      dup3\n        /* \"#utility.yul\":2275:2284   */\n      dup6\n        /* \"#utility.yul\":2271:2293   */\n      add\n        /* \"#utility.yul\":2239:2303   */\n      tag_89\n      jump\t// in\n    tag_113:\n        /* \"#utility.yul\":2229:2303   */\n      swap2\n      pop\n        /* \"#utility.yul\":2185:2313   */\n      pop\n        /* \"#utility.yul\":1969:2320   */\n      swap3\n      swap2\n      pop\n      pop\n      jump\t// out\n        /* \"#utility.yul\":2326:2880   */\n    tag_52:\n        /* \"#utility.yul\":2421:2427   */\n      0x00\n        /* \"#utility.yul\":2470:2472   */\n      0x20\n        /* \"#utility.yul\":2458:2467   */\n      dup3\n        /* \"#utility.yul\":2449:2456   */\n      dup5\n        /* \"#utility.yul\":2445:2468   */\n      sub\n        /* \"#utility.yul\":2441:2473   */\n      slt\n        /* \"#utility.yul\":2438:2557   */\n      iszero\n      tag_115\n      jumpi\n        /* \"#utility.yul\":2476:2555   */\n      tag_116\n      tag_112\n      jump\t// in\n    tag_116:\n        /* \"#utility.yul\":2438:2557   */\n    tag_115:\n        /* \"#utility.yul\":2617:2618   */\n      0x00\n        /* \"#utility.yul\":2606:2615   */\n      dup3\n        /* \"#utility.yul\":2602:2619   */\n      add\n        /* \"#utility.yul\":2596:2620   */\n      mload\n        /* \"#utility.yul\":2647:2665   */\n      0xffffffffffffffff\n        /* \"#utility.yul\":2639:2645   */\n      dup2\n        /* \"#utility.yul\":2636:2666   */\n      gt\n        /* \"#utility.yul\":2633:2750   */\n      iszero\n      tag_117\n      jumpi\n        /* \"#utility.yul\":2669:2748   */\n      tag_118\n      tag_119\n      jump\t// in\n    tag_118:\n        /* \"#utility.yul\":2633:2750   */\n    tag_117:\n        /* \"#utility.yul\":2774:2863   */\n      tag_120\n        /* \"#utility.yul\":2855:2862   */\n      dup5\n        /* \"#utility.yul\":2846:2852   */\n      dup3\n        /* \"#utility.yul\":2835:2844   */\n      dup6\n        /* \"#utility.yul\":2831:2853   */\n      add\n        /* \"#utility.yul\":2774:2863   */\n      tag_92\n      jump\t// in\n    tag_120:\n        /* \"#utility.yul\":2764:2863   */\n      swap2\n      pop\n        /* \"#utility.yul\":2567:2873   */\n      pop\n        /* \"#utility.yul\":2326:2880   */\n      swap3\n      swap2\n      pop\n      pop\n      jump\t// out\n        /* \"#utility.yul\":2886:3241   */\n    tag_17:\n        /* \"#utility.yul\":2958:2964   */\n      0x00\n        /* \"#utility.yul\":3007:3009   */\n      0x20\n        /* \"#utility.yul\":2995:3004   */\n      dup3\n        /* \"#utility.yul\":2986:2993   */\n      dup5\n        /* \"#utility.yul\":2982:3005   */\n      sub\n        /* \"#utility.yul\":2978:3010   */\n      slt\n        /* \"#utility.yul\":2975:3094   */\n      iszero\n      tag_122\n      jumpi\n        /* \"#utility.yul\":3013:3092   */\n      tag_123\n      tag_112\n      jump\t// in\n    tag_123:\n        /* \"#utility.yul\":2975:3094   */\n    tag_122:\n        /* \"#utility.yul\":3133:3134   */\n      0x00\n        /* \"#utility.yul\":3158:3224   */\n      tag_124\n        /* \"#utility.yul\":3216:3223   */\n      dup5\n        /* \"#utility.yul\":3207:3213   */\n      dup3\n        /* \"#utility.yul\":3196:3205   */\n      dup6\n        /* \"#utility.yul\":3192:3214   */\n      add\n        /* \"#utility.yul\":3158:3224   */\n      tag_98\n      jump\t// in\n    tag_124:\n        /* \"#utility.yul\":3148:3224   */\n      swap2\n      pop\n        /* \"#utility.yul\":3104:3234   */\n      pop\n        /* \"#utility.yul\":2886:3241   */\n      swap3\n      swap2\n      pop\n      pop\n      jump\t// out\n        /* \"#utility.yul\":3247:3749   */\n    tag_11:\n        /* \"#utility.yul\":3329:3335   */\n      0x00\n        /* \"#utility.yul\":3337:3343   */\n      dup1\n        /* \"#utility.yul\":3386:3388   */\n      0x40\n        /* \"#utility.yul\":3374:3383   */\n      dup4\n        /* \"#utility.yul\":3365:3372   */\n      dup6\n        /* \"#utility.yul\":3361:3384   */\n      sub\n        /* \"#utility.yul\":3357:3389   */\n      slt\n        /* \"#utility.yul\":3354:3473   */\n      iszero\n      tag_126\n      jumpi\n        /* \"#utility.yul\":3392:3471   */\n      tag_127\n      tag_112\n      jump\t// in\n    tag_127:\n        /* \"#utility.yul\":3354:3473   */\n    tag_126:\n        /* \"#utility.yul\":3512:3513   */\n      0x00\n        /* \"#utility.yul\":3537:3604   */\n      tag_128\n        /* \"#utility.yul\":3596:3603   */\n      dup6\n        /* \"#utility.yul\":3587:3593   */\n      dup3\n        /* \"#utility.yul\":3576:3585   */\n      dup7\n        /* \"#utility.yul\":3572:3594   */\n      add\n        /* \"#utility.yul\":3537:3604   */\n      tag_102\n      jump\t// in\n    tag_128:\n        /* \"#utility.yul\":3527:3604   */\n      swap3\n      pop\n        /* \"#utility.yul\":3483:3614   */\n      pop\n        /* \"#utility.yul\":3653:3655   */\n      0x20\n        /* \"#utility.yul\":3679:3732   */\n      tag_129\n        /* \"#utility.yul\":3724:3731   */\n      dup6\n        /* \"#utility.yul\":3715:3721   */\n      dup3\n        /* \"#utility.yul\":3704:3713   */\n      dup7\n        /* \"#utility.yul\":3700:3722   */\n      add\n        /* \"#utility.yul\":3679:3732   */\n      tag_85\n      jump\t// in\n    tag_129:\n        /* \"#utility.yul\":3669:3732   */\n      swap2\n      pop\n        /* \"#utility.yul\":3624:3742   */\n      pop\n        /* \"#utility.yul\":3247:3749   */\n      swap3\n      pop\n      swap3\n      swap1\n      pop\n      jump\t// out\n        /* \"#utility.yul\":3755:4106   */\n    tag_69:\n        /* \"#utility.yul\":3825:3831   */\n      0x00\n        /* \"#utility.yul\":3874:3876   */\n      0x20\n        /* \"#utility.yul\":3862:3871   */\n      dup3\n        /* \"#utility.yul\":3853:3860   */\n      dup5\n        /* \"#utility.yul\":3849:3872   */\n      sub\n        /* \"#utility.yul\":3845:3877   */\n      slt\n        /* \"#utility.yul\":3842:3961   */\n      iszero\n      tag_131\n      jumpi\n        /* \"#utility.yul\":3880:3959   */\n      tag_132\n      tag_112\n      jump\t// in\n    tag_132:\n        /* \"#utility.yul\":3842:3961   */\n    tag_131:\n        /* \"#utility.yul\":4000:4001   */\n      0x00\n        /* \"#utility.yul\":4025:4089   */\n      tag_133\n        /* \"#utility.yul\":4081:4088   */\n      dup5\n        /* \"#utility.yul\":4072:4078   */\n      dup3\n        /* \"#utility.yul\":4061:4070   */\n      dup6\n        /* \"#utility.yul\":4057:4079   */\n      add\n        /* \"#utility.yul\":4025:4089   */\n      tag_84\n      jump\t// in\n    tag_133:\n        /* \"#utility.yul\":4015:4089   */\n      swap2\n      pop\n        /* \"#utility.yul\":3971:4099   */\n      pop\n        /* \"#utility.yul\":3755:4106   */\n      swap3\n      swap2\n      pop\n      pop\n      jump\t// out\n        /* \"#utility.yul\":4112:4291   */\n    tag_134:\n        /* \"#utility.yul\":4181:4191   */\n      0x00\n        /* \"#utility.yul\":4202:4248   */\n      tag_136\n        /* \"#utility.yul\":4244:4247   */\n      dup4\n        /* \"#utility.yul\":4236:4242   */\n      dup4\n        /* \"#utility.yul\":4202:4248   */\n      tag_137\n      jump\t// in\n    tag_136:\n        /* \"#utility.yul\":4280:4284   */\n      0x20\n        /* \"#utility.yul\":4275:4278   */\n      dup4\n        /* \"#utility.yul\":4271:4285   */\n      add\n        /* \"#utility.yul\":4257:4285   */\n      swap1\n      pop\n        /* \"#utility.yul\":4112:4291   */\n      swap3\n      swap2\n      pop\n      pop\n      jump\t// out\n        /* \"#utility.yul\":4297:4476   */\n    tag_138:\n        /* \"#utility.yul\":4366:4376   */\n      0x00\n        /* \"#utility.yul\":4387:4433   */\n      tag_140\n        /* \"#utility.yul\":4429:4432   */\n      dup4\n        /* \"#utility.yul\":4421:4427   */\n      dup4\n        /* \"#utility.yul\":4387:4433   */\n      tag_141\n      jump\t// in\n    tag_140:\n        /* \"#utility.yul\":4465:4469   */\n      0x20\n        /* \"#utility.yul\":4460:4463   */\n      dup4\n        /* \"#utility.yul\":4456:4470   */\n      add\n        /* \"#utility.yul\":4442:4470   */\n      swap1\n      pop\n        /* \"#utility.yul\":4297:4476   */\n      swap3\n      swap2\n      pop\n      pop\n      jump\t// out\n        /* \"#utility.yul\":4482:4590   */\n    tag_137:\n        /* \"#utility.yul\":4559:4583   */\n      tag_143\n        /* \"#utility.yul\":4577:4582   */\n      dup2\n        /* \"#utility.yul\":4559:4583   */\n      tag_144\n      jump\t// in\n    tag_143:\n        /* \"#utility.yul\":4554:4557   */\n      dup3\n        /* \"#utility.yul\":4547:4584   */\n      mstore\n        /* \"#utility.yul\":4482:4590   */\n      pop\n      pop\n      jump\t// out\n        /* \"#utility.yul\":4596:4714   */\n    tag_145:\n        /* \"#utility.yul\":4683:4707   */\n      tag_147\n        /* \"#utility.yul\":4701:4706   */\n      dup2\n        /* \"#utility.yul\":4683:4707   */\n      tag_144\n      jump\t// in\n    tag_147:\n        /* \"#utility.yul\":4678:4681   */\n      dup3\n        /* \"#utility.yul\":4671:4708   */\n      mstore\n        /* \"#utility.yul\":4596:4714   */\n      pop\n      pop\n      jump\t// out\n        /* \"#utility.yul\":4750:5482   */\n    tag_148:\n        /* \"#utility.yul\":4869:4872   */\n      0x00\n        /* \"#utility.yul\":4898:4952   */\n      tag_150\n        /* \"#utility.yul\":4946:4951   */\n      dup3\n        /* \"#utility.yul\":4898:4952   */\n      tag_151\n      jump\t// in\n    tag_150:\n        /* \"#utility.yul\":4968:5054   */\n      tag_152\n        /* \"#utility.yul\":5047:5053   */\n      dup2\n        /* \"#utility.yul\":5042:5045   */\n      dup6\n        /* \"#utility.yul\":4968:5054   */\n      tag_153\n      jump\t// in\n    tag_152:\n        /* \"#utility.yul\":4961:5054   */\n      swap4\n      pop\n        /* \"#utility.yul\":5078:5134   */\n      tag_154\n        /* \"#utility.yul\":5128:5133   */\n      dup4\n        /* \"#utility.yul\":5078:5134   */\n      tag_155\n      jump\t// in\n    tag_154:\n        /* \"#utility.yul\":5157:5164   */\n      dup1\n        /* \"#utility.yul\":5188:5189   */\n      0x00\n        /* \"#utility.yul\":5173:5457   */\n    tag_156:\n        /* \"#utility.yul\":5198:5204   */\n      dup4\n        /* \"#utility.yul\":5195:5196   */\n      dup2\n        /* \"#utility.yul\":5192:5205   */\n      lt\n        /* \"#utility.yul\":5173:5457   */\n      iszero\n      tag_158\n      jumpi\n        /* \"#utility.yul\":5274:5280   */\n      dup2\n        /* \"#utility.yul\":5268:5281   */\n      mload\n        /* \"#utility.yul\":5301:5364   */\n      tag_159\n        /* \"#utility.yul\":5360:5363   */\n      dup9\n        /* \"#utility.yul\":5345:5358   */\n      dup3\n        /* \"#utility.yul\":5301:5364   */\n      tag_134\n      jump\t// in\n    tag_159:\n        /* \"#utility.yul\":5294:5364   */\n      swap8\n      pop\n        /* \"#utility.yul\":5387:5447   */\n      tag_160\n        /* \"#utility.yul\":5440:5446   */\n      dup4\n        /* \"#utility.yul\":5387:5447   */\n      tag_161\n      jump\t// in\n    tag_160:\n        /* \"#utility.yul\":5377:5447   */\n      swap3\n      pop\n        /* \"#utility.yul\":5233:5457   */\n      pop\n        /* \"#utility.yul\":5220:5221   */\n      0x01\n        /* \"#utility.yul\":5217:5218   */\n      dup2\n        /* \"#utility.yul\":5213:5222   */\n      add\n        /* \"#utility.yul\":5208:5222   */\n      swap1\n      pop\n        /* \"#utility.yul\":5173:5457   */\n      jump(tag_156)\n    tag_158:\n        /* \"#utility.yul\":5177:5191   */\n      pop\n        /* \"#utility.yul\":5473:5476   */\n      dup6\n        /* \"#utility.yul\":5466:5476   */\n      swap4\n      pop\n        /* \"#utility.yul\":4874:5482   */\n      pop\n      pop\n      pop\n        /* \"#utility.yul\":4750:5482   */\n      swap3\n      swap2\n      pop\n      pop\n      jump\t// out\n        /* \"#utility.yul\":5518:6250   */\n    tag_162:\n        /* \"#utility.yul\":5637:5640   */\n      0x00\n        /* \"#utility.yul\":5666:5720   */\n      tag_164\n        /* \"#utility.yul\":5714:5719   */\n      dup3\n        /* \"#utility.yul\":5666:5720   */\n      tag_165\n      jump\t// in\n    tag_164:\n        /* \"#utility.yul\":5736:5822   */\n      tag_166\n        /* \"#utility.yul\":5815:5821   */\n      dup2\n        /* \"#utility.yul\":5810:5813   */\n      dup6\n        /* \"#utility.yul\":5736:5822   */\n      tag_167\n      jump\t// in\n    tag_166:\n        /* \"#utility.yul\":5729:5822   */\n      swap4\n      pop\n        /* \"#utility.yul\":5846:5902   */\n      tag_168\n        /* \"#utility.yul\":5896:5901   */\n      dup4\n        /* \"#utility.yul\":5846:5902   */\n      tag_169\n      jump\t// in\n    tag_168:\n        /* \"#utility.yul\":5925:5932   */\n      dup1\n        /* \"#utility.yul\":5956:5957   */\n      0x00\n        /* \"#utility.yul\":5941:6225   */\n    tag_170:\n        /* \"#utility.yul\":5966:5972   */\n      dup4\n        /* \"#utility.yul\":5963:5964   */\n      dup2\n        /* \"#utility.yul\":5960:5973   */\n      lt\n        /* \"#utility.yul\":5941:6225   */\n      iszero\n      tag_172\n      jumpi\n        /* \"#utility.yul\":6042:6048   */\n      dup2\n        /* \"#utility.yul\":6036:6049   */\n      mload\n        /* \"#utility.yul\":6069:6132   */\n      tag_173\n        /* \"#utility.yul\":6128:6131   */\n      dup9\n        /* \"#utility.yul\":6113:6126   */\n      dup3\n        /* \"#utility.yul\":6069:6132   */\n      tag_138\n      jump\t// in\n    tag_173:\n        /* \"#utility.yul\":6062:6132   */\n      swap8\n      pop\n        /* \"#utility.yul\":6155:6215   */\n      tag_174\n        /* \"#utility.yul\":6208:6214   */\n      dup4\n        /* \"#utility.yul\":6155:6215   */\n      tag_175\n      jump\t// in\n    tag_174:\n        /* \"#utility.yul\":6145:6215   */\n      swap3\n      pop\n        /* \"#utility.yul\":6001:6225   */\n      pop\n        /* \"#utility.yul\":5988:5989   */\n      0x01\n        /* \"#utility.yul\":5985:5986   */\n      dup2\n        /* \"#utility.yul\":5981:5990   */\n      add\n        /* \"#utility.yul\":5976:5990   */\n      swap1\n      pop\n        /* \"#utility.yul\":5941:6225   */\n      jump(tag_170)\n    tag_172:\n        /* \"#utility.yul\":5945:5959   */\n      pop\n        /* \"#utility.yul\":6241:6244   */\n      dup6\n        /* \"#utility.yul\":6234:6244   */\n      swap4\n      pop\n        /* \"#utility.yul\":5642:6250   */\n      pop\n      pop\n      pop\n        /* \"#utility.yul\":5518:6250   */\n      swap3\n      swap2\n      pop\n      pop\n      jump\t// out\n        /* \"#utility.yul\":6256:6364   */\n    tag_141:\n        /* \"#utility.yul\":6333:6357   */\n      tag_177\n        /* \"#utility.yul\":6351:6356   */\n      dup2\n        /* \"#utility.yul\":6333:6357   */\n      tag_178\n      jump\t// in\n    tag_177:\n        /* \"#utility.yul\":6328:6331   */\n      dup3\n        /* \"#utility.yul\":6321:6358   */\n      mstore\n        /* \"#utility.yul\":6256:6364   */\n      pop\n      pop\n      jump\t// out\n        /* \"#utility.yul\":6370:6488   */\n    tag_179:\n        /* \"#utility.yul\":6457:6481   */\n      tag_181\n        /* \"#utility.yul\":6475:6480   */\n      dup2\n        /* \"#utility.yul\":6457:6481   */\n      tag_178\n      jump\t// in\n    tag_181:\n        /* \"#utility.yul\":6452:6455   */\n      dup3\n        /* \"#utility.yul\":6445:6482   */\n      mstore\n        /* \"#utility.yul\":6370:6488   */\n      pop\n      pop\n      jump\t// out\n        /* \"#utility.yul\":6494:6716   */\n    tag_20:\n        /* \"#utility.yul\":6587:6591   */\n      0x00\n        /* \"#utility.yul\":6625:6627   */\n      0x20\n        /* \"#utility.yul\":6614:6623   */\n      dup3\n        /* \"#utility.yul\":6610:6628   */\n      add\n        /* \"#utility.yul\":6602:6628   */\n      swap1\n      pop\n        /* \"#utility.yul\":6638:6709   */\n      tag_183\n        /* \"#utility.yul\":6706:6707   */\n      0x00\n        /* \"#utility.yul\":6695:6704   */\n      dup4\n        /* \"#utility.yul\":6691:6708   */\n      add\n        /* \"#utility.yul\":6682:6688   */\n      dup5\n        /* \"#utility.yul\":6638:6709   */\n      tag_145\n      jump\t// in\n    tag_183:\n        /* \"#utility.yul\":6494:6716   */\n      swap3\n      swap2\n      pop\n      pop\n      jump\t// out\n        /* \"#utility.yul\":6722:7095   */\n    tag_14:\n        /* \"#utility.yul\":6865:6869   */\n      0x00\n        /* \"#utility.yul\":6903:6905   */\n      0x20\n        /* \"#utility.yul\":6892:6901   */\n      dup3\n        /* \"#utility.yul\":6888:6906   */\n      add\n        /* \"#utility.yul\":6880:6906   */\n      swap1\n      pop\n        /* \"#utility.yul\":6952:6961   */\n      dup2\n        /* \"#utility.yul\":6946:6950   */\n      dup2\n        /* \"#utility.yul\":6942:6962   */\n      sub\n        /* \"#utility.yul\":6938:6939   */\n      0x00\n        /* \"#utility.yul\":6927:6936   */\n      dup4\n        /* \"#utility.yul\":6923:6940   */\n      add\n        /* \"#utility.yul\":6916:6963   */\n      mstore\n        /* \"#utility.yul\":6980:7088   */\n      tag_185\n        /* \"#utility.yul\":7083:7087   */\n      dup2\n        /* \"#utility.yul\":7074:7080   */\n      dup5\n        /* \"#utility.yul\":6980:7088   */\n      tag_162\n      jump\t// in\n    tag_185:\n        /* \"#utility.yul\":6972:7088   */\n      swap1\n      pop\n        /* \"#utility.yul\":6722:7095   */\n      swap3\n      swap2\n      pop\n      pop\n      jump\t// out\n        /* \"#utility.yul\":7101:7323   */\n    tag_35:\n        /* \"#utility.yul\":7194:7198   */\n      0x00\n        /* \"#utility.yul\":7232:7234   */\n      0x20\n        /* \"#utility.yul\":7221:7230   */\n      dup3\n        /* \"#utility.yul\":7217:7235   */\n      add\n        /* \"#utility.yul\":7209:7235   */\n      swap1\n      pop\n        /* \"#utility.yul\":7245:7316   */\n      tag_187\n        /* \"#utility.yul\":7313:7314   */\n      0x00\n        /* \"#utility.yul\":7302:7311   */\n      dup4\n        /* \"#utility.yul\":7298:7315   */\n      add\n        /* \"#utility.yul\":7289:7295   */\n      dup5\n        /* \"#utility.yul\":7245:7316   */\n      tag_179\n      jump\t// in\n    tag_187:\n        /* \"#utility.yul\":7101:7323   */\n      swap3\n      swap2\n      pop\n      pop\n      jump\t// out\n        /* \"#utility.yul\":7329:7812   */\n    tag_47:\n        /* \"#utility.yul\":7500:7504   */\n      0x00\n        /* \"#utility.yul\":7538:7540   */\n      0x40\n        /* \"#utility.yul\":7527:7536   */\n      dup3\n        /* \"#utility.yul\":7523:7541   */\n      add\n        /* \"#utility.yul\":7515:7541   */\n      swap1\n      pop\n        /* \"#utility.yul\":7551:7622   */\n      tag_189\n        /* \"#utility.yul\":7619:7620   */\n      0x00\n        /* \"#utility.yul\":7608:7617   */\n      dup4\n        /* \"#utility.yul\":7604:7621   */\n      add\n        /* \"#utility.yul\":7595:7601   */\n      dup6\n        /* \"#utility.yul\":7551:7622   */\n      tag_179\n      jump\t// in\n    tag_189:\n        /* \"#utility.yul\":7669:7678   */\n      dup2\n        /* \"#utility.yul\":7663:7667   */\n      dup2\n        /* \"#utility.yul\":7659:7679   */\n      sub\n        /* \"#utility.yul\":7654:7656   */\n      0x20\n        /* \"#utility.yul\":7643:7652   */\n      dup4\n        /* \"#utility.yul\":7639:7657   */\n      add\n        /* \"#utility.yul\":7632:7680   */\n      mstore\n        /* \"#utility.yul\":7697:7805   */\n      tag_190\n        /* \"#utility.yul\":7800:7804   */\n      dup2\n        /* \"#utility.yul\":7791:7797   */\n      dup5\n        /* \"#utility.yul\":7697:7805   */\n      tag_148\n      jump\t// in\n    tag_190:\n        /* \"#utility.yul\":7689:7805   */\n      swap1\n      pop\n        /* \"#utility.yul\":7329:7812   */\n      swap4\n      swap3\n      pop\n      pop\n      pop\n      jump\t// out\n        /* \"#utility.yul\":7818:7947   */\n    tag_76:\n        /* \"#utility.yul\":7852:7858   */\n      0x00\n        /* \"#utility.yul\":7879:7899   */\n      tag_192\n      tag_193\n      jump\t// in\n    tag_192:\n        /* \"#utility.yul\":7869:7899   */\n      swap1\n      pop\n        /* \"#utility.yul\":7908:7941   */\n      tag_194\n        /* \"#utility.yul\":7936:7940   */\n      dup3\n        /* \"#utility.yul\":7928:7934   */\n      dup3\n        /* \"#utility.yul\":7908:7941   */\n      tag_195\n      jump\t// in\n    tag_194:\n        /* \"#utility.yul\":7818:7947   */\n      swap2\n      swap1\n      pop\n      jump\t// out\n        /* \"#utility.yul\":7953:8028   */\n    tag_193:\n        /* \"#utility.yul\":7986:7992   */\n      0x00\n        /* \"#utility.yul\":8019:8021   */\n      0x40\n        /* \"#utility.yul\":8013:8022   */\n      mload\n        /* \"#utility.yul\":8003:8022   */\n      swap1\n      pop\n        /* \"#utility.yul\":7953:8028   */\n      swap1\n      jump\t// out\n        /* \"#utility.yul\":8034:8345   */\n    tag_75:\n        /* \"#utility.yul\":8111:8115   */\n      0x00\n        /* \"#utility.yul\":8201:8219   */\n      0xffffffffffffffff\n        /* \"#utility.yul\":8193:8199   */\n      dup3\n        /* \"#utility.yul\":8190:8220   */\n      gt\n        /* \"#utility.yul\":8187:8243   */\n      iszero\n      tag_198\n      jumpi\n        /* \"#utility.yul\":8223:8241   */\n      tag_199\n      tag_39\n      jump\t// in\n    tag_199:\n        /* \"#utility.yul\":8187:8243   */\n    tag_198:\n        /* \"#utility.yul\":8273:8277   */\n      0x20\n        /* \"#utility.yul\":8265:8271   */\n      dup3\n        /* \"#utility.yul\":8261:8278   */\n      mul\n        /* \"#utility.yul\":8253:8278   */\n      swap1\n      pop\n        /* \"#utility.yul\":8333:8337   */\n      0x20\n        /* \"#utility.yul\":8327:8331   */\n      dup2\n        /* \"#utility.yul\":8323:8338   */\n      add\n        /* \"#utility.yul\":8315:8338   */\n      swap1\n      pop\n        /* \"#utility.yul\":8034:8345   */\n      swap2\n      swap1\n      pop\n      jump\t// out\n        /* \"#utility.yul\":8351:8483   */\n    tag_155:\n        /* \"#utility.yul\":8418:8422   */\n      0x00\n        /* \"#utility.yul\":8441:8444   */\n      dup2\n        /* \"#utility.yul\":8433:8444   */\n      swap1\n      pop\n        /* \"#utility.yul\":8471:8475   */\n      0x20\n        /* \"#utility.yul\":8466:8469   */\n      dup3\n        /* \"#utility.yul\":8462:8476   */\n      add\n        /* \"#utility.yul\":8454:8476   */\n      swap1\n      pop\n        /* \"#utility.yul\":8351:8483   */\n      swap2\n      swap1\n      pop\n      jump\t// out\n        /* \"#utility.yul\":8489:8621   */\n    tag_169:\n        /* \"#utility.yul\":8556:8560   */\n      0x00\n        /* \"#utility.yul\":8579:8582   */\n      dup2\n        /* \"#utility.yul\":8571:8582   */\n      swap1\n      pop\n        /* \"#utility.yul\":8609:8613   */\n      0x20\n        /* \"#utility.yul\":8604:8607   */\n      dup3\n        /* \"#utility.yul\":8600:8614   */\n      add\n        /* \"#utility.yul\":8592:8614   */\n      swap1\n      pop\n        /* \"#utility.yul\":8489:8621   */\n      swap2\n      swap1\n      pop\n      jump\t// out\n        /* \"#utility.yul\":8627:8741   */\n    tag_151:\n        /* \"#utility.yul\":8694:8700   */\n      0x00\n        /* \"#utility.yul\":8728:8733   */\n      dup2\n        /* \"#utility.yul\":8722:8734   */\n      mload\n        /* \"#utility.yul\":8712:8734   */\n      swap1\n      pop\n        /* \"#utility.yul\":8627:8741   */\n      swap2\n      swap1\n      pop\n      jump\t// out\n        /* \"#utility.yul\":8747:8861   */\n    tag_165:\n        /* \"#utility.yul\":8814:8820   */\n      0x00\n        /* \"#utility.yul\":8848:8853   */\n      dup2\n        /* \"#utility.yul\":8842:8854   */\n      mload\n        /* \"#utility.yul\":8832:8854   */\n      swap1\n      pop\n        /* \"#utility.yul\":8747:8861   */\n      swap2\n      swap1\n      pop\n      jump\t// out\n        /* \"#utility.yul\":8867:8980   */\n    tag_161:\n        /* \"#utility.yul\":8937:8941   */\n      0x00\n        /* \"#utility.yul\":8969:8973   */\n      0x20\n        /* \"#utility.yul\":8964:8967   */\n      dup3\n        /* \"#utility.yul\":8960:8974   */\n      add\n        /* \"#utility.yul\":8952:8974   */\n      swap1\n      pop\n        /* \"#utility.yul\":8867:8980   */\n      swap2\n      swap1\n      pop\n      jump\t// out\n        /* \"#utility.yul\":8986:9099   */\n    tag_175:\n        /* \"#utility.yul\":9056:9060   */\n      0x00\n        /* \"#utility.yul\":9088:9092   */\n      0x20\n        /* \"#utility.yul\":9083:9086   */\n      dup3\n        /* \"#utility.yul\":9079:9093   */\n      add\n        /* \"#utility.yul\":9071:9093   */\n      swap1\n      pop\n        /* \"#utility.yul\":8986:9099   */\n      swap2\n      swap1\n      pop\n      jump\t// out\n        /* \"#utility.yul\":9105:9289   */\n    tag_153:\n        /* \"#utility.yul\":9204:9215   */\n      0x00\n        /* \"#utility.yul\":9238:9244   */\n      dup3\n        /* \"#utility.yul\":9233:9236   */\n      dup3\n        /* \"#utility.yul\":9226:9245   */\n      mstore\n        /* \"#utility.yul\":9278:9282   */\n      0x20\n        /* \"#utility.yul\":9273:9276   */\n      dup3\n        /* \"#utility.yul\":9269:9283   */\n      add\n        /* \"#utility.yul\":9254:9283   */\n      swap1\n      pop\n        /* \"#utility.yul\":9105:9289   */\n      swap3\n      swap2\n      pop\n      pop\n      jump\t// out\n        /* \"#utility.yul\":9295:9479   */\n    tag_167:\n        /* \"#utility.yul\":9394:9405   */\n      0x00\n        /* \"#utility.yul\":9428:9434   */\n      dup3\n        /* \"#utility.yul\":9423:9426   */\n      dup3\n        /* \"#utility.yul\":9416:9435   */\n      mstore\n        /* \"#utility.yul\":9468:9472   */\n      0x20\n        /* \"#utility.yul\":9463:9466   */\n      dup3\n        /* \"#utility.yul\":9459:9473   */\n      add\n        /* \"#utility.yul\":9444:9473   */\n      swap1\n      pop\n        /* \"#utility.yul\":9295:9479   */\n      swap3\n      swap2\n      pop\n      pop\n      jump\t// out\n        /* \"#utility.yul\":9485:9581   */\n    tag_144:\n        /* \"#utility.yul\":9522:9529   */\n      0x00\n        /* \"#utility.yul\":9551:9575   */\n      tag_209\n        /* \"#utility.yul\":9569:9574   */\n      dup3\n        /* \"#utility.yul\":9551:9575   */\n      tag_210\n      jump\t// in\n    tag_209:\n        /* \"#utility.yul\":9540:9575   */\n      swap1\n      pop\n        /* \"#utility.yul\":9485:9581   */\n      swap2\n      swap1\n      pop\n      jump\t// out\n        /* \"#utility.yul\":9587:9696   */\n    tag_211:\n        /* \"#utility.yul\":9637:9644   */\n      0x00\n        /* \"#utility.yul\":9666:9690   */\n      tag_213\n        /* \"#utility.yul\":9684:9689   */\n      dup3\n        /* \"#utility.yul\":9666:9690   */\n      tag_144\n      jump\t// in\n    tag_213:\n        /* \"#utility.yul\":9655:9690   */\n      swap1\n      pop\n        /* \"#utility.yul\":9587:9696   */\n      swap2\n      swap1\n      pop\n      jump\t// out\n        /* \"#utility.yul\":9702:9812   */\n    tag_214:\n        /* \"#utility.yul\":9753:9760   */\n      0x00\n        /* \"#utility.yul\":9782:9806   */\n      tag_216\n        /* \"#utility.yul\":9800:9805   */\n      dup3\n        /* \"#utility.yul\":9782:9806   */\n      tag_144\n      jump\t// in\n    tag_216:\n        /* \"#utility.yul\":9771:9806   */\n      swap1\n      pop\n        /* \"#utility.yul\":9702:9812   */\n      swap2\n      swap1\n      pop\n      jump\t// out\n        /* \"#utility.yul\":9818:9944   */\n    tag_210:\n        /* \"#utility.yul\":9855:9862   */\n      0x00\n        /* \"#utility.yul\":9895:9937   */\n      0xffffffffffffffffffffffffffffffffffffffff\n        /* \"#utility.yul\":9888:9893   */\n      dup3\n        /* \"#utility.yul\":9884:9938   */\n      and\n        /* \"#utility.yul\":9873:9938   */\n      swap1\n      pop\n        /* \"#utility.yul\":9818:9944   */\n      swap2\n      swap1\n      pop\n      jump\t// out\n        /* \"#utility.yul\":9950:10027   */\n    tag_178:\n        /* \"#utility.yul\":9987:9994   */\n      0x00\n        /* \"#utility.yul\":10016:10021   */\n      dup2\n        /* \"#utility.yul\":10005:10021   */\n      swap1\n      pop\n        /* \"#utility.yul\":9950:10027   */\n      swap2\n      swap1\n      pop\n      jump\t// out\n        /* \"#utility.yul\":10033:10314   */\n    tag_195:\n        /* \"#utility.yul\":10116:10143   */\n      tag_220\n        /* \"#utility.yul\":10138:10142   */\n      dup3\n        /* \"#utility.yul\":10116:10143   */\n      tag_221\n      jump\t// in\n    tag_220:\n        /* \"#utility.yul\":10108:10114   */\n      dup2\n        /* \"#utility.yul\":10104:10144   */\n      add\n        /* \"#utility.yul\":10246:10252   */\n      dup2\n        /* \"#utility.yul\":10234:10244   */\n      dup2\n        /* \"#utility.yul\":10231:10253   */\n      lt\n        /* \"#utility.yul\":10210:10228   */\n      0xffffffffffffffff\n        /* \"#utility.yul\":10198:10208   */\n      dup3\n        /* \"#utility.yul\":10195:10229   */\n      gt\n        /* \"#utility.yul\":10192:10254   */\n      or\n        /* \"#utility.yul\":10189:10277   */\n      iszero\n      tag_222\n      jumpi\n        /* \"#utility.yul\":10257:10275   */\n      tag_223\n      tag_39\n      jump\t// in\n    tag_223:\n        /* \"#utility.yul\":10189:10277   */\n    tag_222:\n        /* \"#utility.yul\":10297:10307   */\n      dup1\n        /* \"#utility.yul\":10293:10295   */\n      0x40\n        /* \"#utility.yul\":10286:10308   */\n      mstore\n        /* \"#utility.yul\":10076:10314   */\n      pop\n        /* \"#utility.yul\":10033:10314   */\n      pop\n      pop\n      jump\t// out\n        /* \"#utility.yul\":10320:10500   */\n    tag_43:\n        /* \"#utility.yul\":10368:10445   */\n      0x4e487b7100000000000000000000000000000000000000000000000000000000\n        /* \"#utility.yul\":10365:10366   */\n      0x00\n        /* \"#utility.yul\":10358:10446   */\n      mstore\n        /* \"#utility.yul\":10465:10469   */\n      0x32\n        /* \"#utility.yul\":10462:10463   */\n      0x04\n        /* \"#utility.yul\":10455:10470   */\n      mstore\n        /* \"#utility.yul\":10489:10493   */\n      0x24\n        /* \"#utility.yul\":10486:10487   */\n      0x00\n        /* \"#utility.yul\":10479:10494   */\n      revert\n        /* \"#utility.yul\":10506:10686   */\n    tag_39:\n        /* \"#utility.yul\":10554:10631   */\n      0x4e487b7100000000000000000000000000000000000000000000000000000000\n        /* \"#utility.yul\":10551:10552   */\n      0x00\n        /* \"#utility.yul\":10544:10632   */\n      mstore\n        /* \"#utility.yul\":10651:10655   */\n      0x41\n        /* \"#utility.yul\":10648:10649   */\n      0x04\n        /* \"#utility.yul\":10641:10656   */\n      mstore\n        /* \"#utility.yul\":10675:10679   */\n      0x24\n        /* \"#utility.yul\":10672:10673   */\n      0x00\n        /* \"#utility.yul\":10665:10680   */\n      revert\n        /* \"#utility.yul\":10692:10809   */\n    tag_96:\n        /* \"#utility.yul\":10801:10802   */\n      0x00\n        /* \"#utility.yul\":10798:10799   */\n      dup1\n        /* \"#utility.yul\":10791:10803   */\n      revert\n        /* \"#utility.yul\":10815:10932   */\n    tag_79:\n        /* \"#utility.yul\":10924:10925   */\n      0x00\n        /* \"#utility.yul\":10921:10922   */\n      dup1\n        /* \"#utility.yul\":10914:10926   */\n      revert\n        /* \"#utility.yul\":10938:11055   */\n    tag_119:\n        /* \"#utility.yul\":11047:11048   */\n      0x00\n        /* \"#utility.yul\":11044:11045   */\n      dup1\n        /* \"#utility.yul\":11037:11049   */\n      revert\n        /* \"#utility.yul\":11061:11178   */\n    tag_112:\n        /* \"#utility.yul\":11170:11171   */\n      0x00\n        /* \"#utility.yul\":11167:11168   */\n      dup1\n        /* \"#utility.yul\":11160:11172   */\n      revert\n        /* \"#utility.yul\":11184:11286   */\n    tag_221:\n        /* \"#utility.yul\":11225:11231   */\n      0x00\n        /* \"#utility.yul\":11276:11278   */\n      0x1f\n        /* \"#utility.yul\":11272:11279   */\n      not\n        /* \"#utility.yul\":11267:11269   */\n      0x1f\n        /* \"#utility.yul\":11260:11265   */\n      dup4\n        /* \"#utility.yul\":11256:11270   */\n      add\n        /* \"#utility.yul\":11252:11280   */\n      and\n        /* \"#utility.yul\":11242:11280   */\n      swap1\n      pop\n        /* \"#utility.yul\":11184:11286   */\n      swap2\n      swap1\n      pop\n      jump\t// out\n        /* \"#utility.yul\":11292:11414   */\n    tag_88:\n        /* \"#utility.yul\":11365:11389   */\n      tag_232\n        /* \"#utility.yul\":11383:11388   */\n      dup2\n        /* \"#utility.yul\":11365:11389   */\n      tag_144\n      jump\t// in\n    tag_232:\n        /* \"#utility.yul\":11358:11363   */\n      dup2\n        /* \"#utility.yul\":11355:11390   */\n      eq\n        /* \"#utility.yul\":11345:11408   */\n      tag_233\n      jumpi\n        /* \"#utility.yul\":11404:11405   */\n      0x00\n        /* \"#utility.yul\":11401:11402   */\n      dup1\n        /* \"#utility.yul\":11394:11406   */\n      revert\n        /* \"#utility.yul\":11345:11408   */\n    tag_233:\n        /* \"#utility.yul\":11292:11414   */\n      pop\n      jump\t// out\n        /* \"#utility.yul\":11420:11568   */\n    tag_101:\n        /* \"#utility.yul\":11506:11543   */\n      tag_235\n        /* \"#utility.yul\":11537:11542   */\n      dup2\n        /* \"#utility.yul\":11506:11543   */\n      tag_211\n      jump\t// in\n    tag_235:\n        /* \"#utility.yul\":11499:11504   */\n      dup2\n        /* \"#utility.yul\":11496:11544   */\n      eq\n        /* \"#utility.yul\":11486:11562   */\n      tag_236\n      jumpi\n        /* \"#utility.yul\":11558:11559   */\n      0x00\n        /* \"#utility.yul\":11555:11556   */\n      dup1\n        /* \"#utility.yul\":11548:11560   */\n      revert\n        /* \"#utility.yul\":11486:11562   */\n    tag_236:\n        /* \"#utility.yul\":11420:11568   */\n      pop\n      jump\t// out\n        /* \"#utility.yul\":11574:11724   */\n    tag_105:\n        /* \"#utility.yul\":11661:11699   */\n      tag_238\n        /* \"#utility.yul\":11693:11698   */\n      dup2\n        /* \"#utility.yul\":11661:11699   */\n      tag_214\n      jump\t// in\n    tag_238:\n        /* \"#utility.yul\":11654:11659   */\n      dup2\n        /* \"#utility.yul\":11651:11700   */\n      eq\n        /* \"#utility.yul\":11641:11718   */\n      tag_239\n      jumpi\n        /* \"#utility.yul\":11714:11715   */\n      0x00\n        /* \"#utility.yul\":11711:11712   */\n      dup1\n        /* \"#utility.yul\":11704:11716   */\n      revert\n        /* \"#utility.yul\":11641:11718   */\n    tag_239:\n        /* \"#utility.yul\":11574:11724   */\n      pop\n      jump\t// out\n        /* \"#utility.yul\":11730:11852   */\n    tag_108:\n        /* \"#utility.yul\":11803:11827   */\n      tag_241\n        /* \"#utility.yul\":11821:11826   */\n      dup2\n        /* \"#utility.yul\":11803:11827   */\n      tag_178\n      jump\t// in\n    tag_241:\n        /* \"#utility.yul\":11796:11801   */\n      dup2\n        /* \"#utility.yul\":11793:11828   */\n      eq\n        /* \"#utility.yul\":11783:11846   */\n      tag_242\n      jumpi\n        /* \"#utility.yul\":11842:11843   */\n      0x00\n        /* \"#utility.yul\":11839:11840   */\n      dup1\n        /* \"#utility.yul\":11832:11844   */\n      revert\n        /* \"#utility.yul\":11783:11846   */\n    tag_242:\n        /* \"#utility.yul\":11730:11852   */\n      pop\n      jump\t// out\n\n    auxdata: 0xa2646970667358221220cb2d1a49cbccdcbf841c1007367dcf0262f9cd7b15e3444af5bca9379893becf64736f6c63430008070033\n}\n",
				"bytecode": {
					"linkReferences": {},
					"object": "608060405273ae13d989dac2f0debff460ac112a837c89baa7cd6000806101000a81548173ffffffffffffffffffffffffffffffffffffffff021916908373ffffffffffffffffffffffffffffffffffffffff1602179055507378867bbeef44f2326bf8ddd1941a4439382ef2a7600160006101000a81548173ffffffffffffffffffffffffffffffffffffffff021916908373ffffffffffffffffffffffffffffffffffffffff160217905550670de0b6b3a76400006002553480156100c557600080fd5b50610b1b806100d56000396000f3fe608060405234801561001057600080fd5b50600436106100625760003560e01c80632b00490d146100675780633782379514610097578063484f4ea9146100c757806376bf39a3146100e55780638dd9500214610115578063e4dc2aa414610133575b600080fd5b610081600480360381019061007c9190610695565b610163565b60405161008e9190610845565b60405180910390f35b6100b160048036038101906100ac9190610668565b61030c565b6040516100be919061082a565b60405180910390f35b6100cf610393565b6040516100dc919061082a565b60405180910390f35b6100ff60048036038101906100fa9190610668565b6103b9565b60405161010c919061082a565b60405180910390f35b61011d610440565b60405161012a919061082a565b60405180910390f35b61014d60048036038101906101489190610668565b610464565b60405161015a9190610867565b60405180910390f35b60606000600367ffffffffffffffff81111561018257610181610a35565b5b6040519080825280602002602001820160405280156101b05781602001602082028036833780820191505090505b50905082816000815181106101c8576101c7610a06565b5b602002602001019073ffffffffffffffffffffffffffffffffffffffff16908173ffffffffffffffffffffffffffffffffffffffff168152505060008054906101000a900473ffffffffffffffffffffffffffffffffffffffff168160018151811061023757610236610a06565b5b602002602001019073ffffffffffffffffffffffffffffffffffffffff16908173ffffffffffffffffffffffffffffffffffffffff16815250508373ffffffffffffffffffffffffffffffffffffffff1663d06ca61f600254836040518363ffffffff1660e01b81526004016102ae929190610882565b60006040518083038186803b1580156102c657600080fd5b505afa1580156102da573d6000803e3d6000fd5b505050506040513d6000823e3d601f19601f82011682018060405250810190610303919061061f565b91505092915050565b60008173ffffffffffffffffffffffffffffffffffffffff1663d21220a76040518163ffffffff1660e01b815260040160206040518083038186803b15801561035457600080fd5b505afa158015610368573d6000803e3d6000fd5b505050506040513d601f19601f8201168201806040525081019061038c91906105f2565b9050919050565b600160009054906101000a900473ffffffffffffffffffffffffffffffffffffffff1681565b60008173ffffffffffffffffffffffffffffffffffffffff16630dfe16816040518163ffffffff1660e01b815260040160206040518083038186803b15801561040157600080fd5b505afa158015610415573d6000803e3d6000fd5b505050506040513d601f19601f8201168201806040525081019061043991906105f2565b9050919050565b60008054906101000a900473ffffffffffffffffffffffffffffffffffffffff1681565b60008173ffffffffffffffffffffffffffffffffffffffff166318160ddd6040518163ffffffff1660e01b815260040160206040518083038186803b1580156104ac57600080fd5b505afa1580156104c0573d6000803e3d6000fd5b505050506040513d601f19601f820116820180604052508101906104e491906106d5565b9050919050565b60006104fe6104f9846108d7565b6108b2565b9050808382526020820190508285602086028201111561052157610520610a69565b5b60005b85811015610551578161053788826105dd565b845260208401935060208301925050600181019050610524565b5050509392505050565b60008135905061056a81610a89565b92915050565b60008151905061057f81610a89565b92915050565b600082601f83011261059a57610599610a64565b5b81516105aa8482602086016104eb565b91505092915050565b6000813590506105c281610aa0565b92915050565b6000813590506105d781610ab7565b92915050565b6000815190506105ec81610ace565b92915050565b60006020828403121561060857610607610a73565b5b600061061684828501610570565b91505092915050565b60006020828403121561063557610634610a73565b5b600082015167ffffffffffffffff81111561065357610652610a6e565b5b61065f84828501610585565b91505092915050565b60006020828403121561067e5761067d610a73565b5b600061068c848285016105b3565b91505092915050565b600080604083850312156106ac576106ab610a73565b5b60006106ba858286016105c8565b92505060206106cb8582860161055b565b9150509250929050565b6000602082840312156106eb576106ea610a73565b5b60006106f9848285016105dd565b91505092915050565b600061070e8383610732565b60208301905092915050565b6000610726838361080c565b60208301905092915050565b61073b81610975565b82525050565b61074a81610975565b82525050565b600061075b82610923565b6107658185610953565b935061077083610903565b8060005b838110156107a15781516107888882610702565b975061079383610939565b925050600181019050610774565b5085935050505092915050565b60006107b98261092e565b6107c38185610964565b93506107ce83610913565b8060005b838110156107ff5781516107e6888261071a565b97506107f183610946565b9250506001810190506107d2565b5085935050505092915050565b610815816109cb565b82525050565b610824816109cb565b82525050565b600060208201905061083f6000830184610741565b92915050565b6000602082019050818103600083015261085f81846107ae565b905092915050565b600060208201905061087c600083018461081b565b92915050565b6000604082019050610897600083018561081b565b81810360208301526108a98184610750565b90509392505050565b60006108bc6108cd565b90506108c882826109d5565b919050565b6000604051905090565b600067ffffffffffffffff8211156108f2576108f1610a35565b5b602082029050602081019050919050565b6000819050602082019050919050565b6000819050602082019050919050565b600081519050919050565b600081519050919050565b6000602082019050919050565b6000602082019050919050565b600082825260208201905092915050565b600082825260208201905092915050565b6000610980826109ab565b9050919050565b600061099282610975565b9050919050565b60006109a482610975565b9050919050565b600073ffffffffffffffffffffffffffffffffffffffff82169050919050565b6000819050919050565b6109de82610a78565b810181811067ffffffffffffffff821117156109fd576109fc610a35565b5b80604052505050565b7f4e487b7100000000000000000000000000000000000000000000000000000000600052603260045260246000fd5b7f4e487b7100000000000000000000000000000000000000000000000000000000600052604160045260246000fd5b600080fd5b600080fd5b600080fd5b600080fd5b6000601f19601f8301169050919050565b610a9281610975565b8114610a9d57600080fd5b50565b610aa981610987565b8114610ab457600080fd5b50565b610ac081610999565b8114610acb57600080fd5b50565b610ad7816109cb565b8114610ae257600080fd5b5056fea2646970667358221220cb2d1a49cbccdcbf841c1007367dcf0262f9cd7b15e3444af5bca9379893becf64736f6c63430008070033",
					"opcodes": "PUSH1 0x80 PUSH1 0x40 MSTORE PUSH20 0xAE13D989DAC2F0DEBFF460AC112A837C89BAA7CD PUSH1 0x0 DUP1 PUSH2 0x100 EXP DUP2 SLOAD DUP2 PUSH20 0xFFFFFFFFFFFFFFFFFFFFFFFFFFFFFFFFFFFFFFFF MUL NOT AND SWAP1 DUP4 PUSH20 0xFFFFFFFFFFFFFFFFFFFFFFFFFFFFFFFFFFFFFFFF AND MUL OR SWAP1 SSTORE POP PUSH20 0x78867BBEEF44F2326BF8DDD1941A4439382EF2A7 PUSH1 0x1 PUSH1 0x0 PUSH2 0x100 EXP DUP2 SLOAD DUP2 PUSH20 0xFFFFFFFFFFFFFFFFFFFFFFFFFFFFFFFFFFFFFFFF MUL NOT AND SWAP1 DUP4 PUSH20 0xFFFFFFFFFFFFFFFFFFFFFFFFFFFFFFFFFFFFFFFF AND MUL OR SWAP1 SSTORE POP PUSH8 0xDE0B6B3A7640000 PUSH1 0x2 SSTORE CALLVALUE DUP1 ISZERO PUSH2 0xC5 JUMPI PUSH1 0x0 DUP1 REVERT JUMPDEST POP PUSH2 0xB1B DUP1 PUSH2 0xD5 PUSH1 0x0 CODECOPY PUSH1 0x0 RETURN INVALID PUSH1 0x80 PUSH1 0x40 MSTORE CALLVALUE DUP1 ISZERO PUSH2 0x10 JUMPI PUSH1 0x0 DUP1 REVERT JUMPDEST POP PUSH1 0x4 CALLDATASIZE LT PUSH2 0x62 JUMPI PUSH1 0x0 CALLDATALOAD PUSH1 0xE0 SHR DUP1 PUSH4 0x2B00490D EQ PUSH2 0x67 JUMPI DUP1 PUSH4 0x37823795 EQ PUSH2 0x97 JUMPI DUP1 PUSH4 0x484F4EA9 EQ PUSH2 0xC7 JUMPI DUP1 PUSH4 0x76BF39A3 EQ PUSH2 0xE5 JUMPI DUP1 PUSH4 0x8DD95002 EQ PUSH2 0x115 JUMPI DUP1 PUSH4 0xE4DC2AA4 EQ PUSH2 0x133 JUMPI JUMPDEST PUSH1 0x0 DUP1 REVERT JUMPDEST PUSH2 0x81 PUSH1 0x4 DUP1 CALLDATASIZE SUB DUP2 ADD SWAP1 PUSH2 0x7C SWAP2 SWAP1 PUSH2 0x695 JUMP JUMPDEST PUSH2 0x163 JUMP JUMPDEST PUSH1 0x40 MLOAD PUSH2 0x8E SWAP2 SWAP1 PUSH2 0x845 JUMP JUMPDEST PUSH1 0x40 MLOAD DUP1 SWAP2 SUB SWAP1 RETURN JUMPDEST PUSH2 0xB1 PUSH1 0x4 DUP1 CALLDATASIZE SUB DUP2 ADD SWAP1 PUSH2 0xAC SWAP2 SWAP1 PUSH2 0x668 JUMP JUMPDEST PUSH2 0x30C JUMP JUMPDEST PUSH1 0x40 MLOAD PUSH2 0xBE SWAP2 SWAP1 PUSH2 0x82A JUMP JUMPDEST PUSH1 0x40 MLOAD DUP1 SWAP2 SUB SWAP1 RETURN JUMPDEST PUSH2 0xCF PUSH2 0x393 JUMP JUMPDEST PUSH1 0x40 MLOAD PUSH2 0xDC SWAP2 SWAP1 PUSH2 0x82A JUMP JUMPDEST PUSH1 0x40 MLOAD DUP1 SWAP2 SUB SWAP1 RETURN JUMPDEST PUSH2 0xFF PUSH1 0x4 DUP1 CALLDATASIZE SUB DUP2 ADD SWAP1 PUSH2 0xFA SWAP2 SWAP1 PUSH2 0x668 JUMP JUMPDEST PUSH2 0x3B9 JUMP JUMPDEST PUSH1 0x40 MLOAD PUSH2 0x10C SWAP2 SWAP1 PUSH2 0x82A JUMP JUMPDEST PUSH1 0x40 MLOAD DUP1 SWAP2 SUB SWAP1 RETURN JUMPDEST PUSH2 0x11D PUSH2 0x440 JUMP JUMPDEST PUSH1 0x40 MLOAD PUSH2 0x12A SWAP2 SWAP1 PUSH2 0x82A JUMP JUMPDEST PUSH1 0x40 MLOAD DUP1 SWAP2 SUB SWAP1 RETURN JUMPDEST PUSH2 0x14D PUSH1 0x4 DUP1 CALLDATASIZE SUB DUP2 ADD SWAP1 PUSH2 0x148 SWAP2 SWAP1 PUSH2 0x668 JUMP JUMPDEST PUSH2 0x464 JUMP JUMPDEST PUSH1 0x40 MLOAD PUSH2 0x15A SWAP2 SWAP1 PUSH2 0x867 JUMP JUMPDEST PUSH1 0x40 MLOAD DUP1 SWAP2 SUB SWAP1 RETURN JUMPDEST PUSH1 0x60 PUSH1 0x0 PUSH1 0x3 PUSH8 0xFFFFFFFFFFFFFFFF DUP2 GT ISZERO PUSH2 0x182 JUMPI PUSH2 0x181 PUSH2 0xA35 JUMP JUMPDEST JUMPDEST PUSH1 0x40 MLOAD SWAP1 DUP1 DUP3 MSTORE DUP1 PUSH1 0x20 MUL PUSH1 0x20 ADD DUP3 ADD PUSH1 0x40 MSTORE DUP1 ISZERO PUSH2 0x1B0 JUMPI DUP2 PUSH1 0x20 ADD PUSH1 0x20 DUP3 MUL DUP1 CALLDATASIZE DUP4 CALLDATACOPY DUP1 DUP3 ADD SWAP2 POP POP SWAP1 POP JUMPDEST POP SWAP1 POP DUP3 DUP2 PUSH1 0x0 DUP2 MLOAD DUP2 LT PUSH2 0x1C8 JUMPI PUSH2 0x1C7 PUSH2 0xA06 JUMP JUMPDEST JUMPDEST PUSH1 0x20 MUL PUSH1 0x20 ADD ADD SWAP1 PUSH20 0xFFFFFFFFFFFFFFFFFFFFFFFFFFFFFFFFFFFFFFFF AND SWAP1 DUP2 PUSH20 0xFFFFFFFFFFFFFFFFFFFFFFFFFFFFFFFFFFFFFFFF AND DUP2 MSTORE POP POP PUSH1 0x0 DUP1 SLOAD SWAP1 PUSH2 0x100 EXP SWAP1 DIV PUSH20 0xFFFFFFFFFFFFFFFFFFFFFFFFFFFFFFFFFFFFFFFF AND DUP2 PUSH1 0x1 DUP2 MLOAD DUP2 LT PUSH2 0x237 JUMPI PUSH2 0x236 PUSH2 0xA06 JUMP JUMPDEST JUMPDEST PUSH1 0x20 MUL PUSH1 0x20 ADD ADD SWAP1 PUSH20 0xFFFFFFFFFFFFFFFFFFFFFFFFFFFFFFFFFFFFFFFF AND SWAP1 DUP2 PUSH20 0xFFFFFFFFFFFFFFFFFFFFFFFFFFFFFFFFFFFFFFFF AND DUP2 MSTORE POP POP DUP4 PUSH20 0xFFFFFFFFFFFFFFFFFFFFFFFFFFFFFFFFFFFFFFFF AND PUSH4 0xD06CA61F PUSH1 0x2 SLOAD DUP4 PUSH1 0x40 MLOAD DUP4 PUSH4 0xFFFFFFFF AND PUSH1 0xE0 SHL DUP2 MSTORE PUSH1 0x4 ADD PUSH2 0x2AE SWAP3 SWAP2 SWAP1 PUSH2 0x882 JUMP JUMPDEST PUSH1 0x0 PUSH1 0x40 MLOAD DUP1 DUP4 SUB DUP2 DUP7 DUP1 EXTCODESIZE ISZERO DUP1 ISZERO PUSH2 0x2C6 JUMPI PUSH1 0x0 DUP1 REVERT JUMPDEST POP GAS STATICCALL ISZERO DUP1 ISZERO PUSH2 0x2DA JUMPI RETURNDATASIZE PUSH1 0x0 DUP1 RETURNDATACOPY RETURNDATASIZE PUSH1 0x0 REVERT JUMPDEST POP POP POP POP PUSH1 0x40 MLOAD RETURNDATASIZE PUSH1 0x0 DUP3 RETURNDATACOPY RETURNDATASIZE PUSH1 0x1F NOT PUSH1 0x1F DUP3 ADD AND DUP3 ADD DUP1 PUSH1 0x40 MSTORE POP DUP2 ADD SWAP1 PUSH2 0x303 SWAP2 SWAP1 PUSH2 0x61F JUMP JUMPDEST SWAP2 POP POP SWAP3 SWAP2 POP POP JUMP JUMPDEST PUSH1 0x0 DUP2 PUSH20 0xFFFFFFFFFFFFFFFFFFFFFFFFFFFFFFFFFFFFFFFF AND PUSH4 0xD21220A7 PUSH1 0x40 MLOAD DUP2 PUSH4 0xFFFFFFFF AND PUSH1 0xE0 SHL DUP2 MSTORE PUSH1 0x4 ADD PUSH1 0x20 PUSH1 0x40 MLOAD DUP1 DUP4 SUB DUP2 DUP7 DUP1 EXTCODESIZE ISZERO DUP1 ISZERO PUSH2 0x354 JUMPI PUSH1 0x0 DUP1 REVERT JUMPDEST POP GAS STATICCALL ISZERO DUP1 ISZERO PUSH2 0x368 JUMPI RETURNDATASIZE PUSH1 0x0 DUP1 RETURNDATACOPY RETURNDATASIZE PUSH1 0x0 REVERT JUMPDEST POP POP POP POP PUSH1 0x40 MLOAD RETURNDATASIZE PUSH1 0x1F NOT PUSH1 0x1F DUP3 ADD AND DUP3 ADD DUP1 PUSH1 0x40 MSTORE POP DUP2 ADD SWAP1 PUSH2 0x38C SWAP2 SWAP1 PUSH2 0x5F2 JUMP JUMPDEST SWAP1 POP SWAP2 SWAP1 POP JUMP JUMPDEST PUSH1 0x1 PUSH1 0x0 SWAP1 SLOAD SWAP1 PUSH2 0x100 EXP SWAP1 DIV PUSH20 0xFFFFFFFFFFFFFFFFFFFFFFFFFFFFFFFFFFFFFFFF AND DUP2 JUMP JUMPDEST PUSH1 0x0 DUP2 PUSH20 0xFFFFFFFFFFFFFFFFFFFFFFFFFFFFFFFFFFFFFFFF AND PUSH4 0xDFE1681 PUSH1 0x40 MLOAD DUP2 PUSH4 0xFFFFFFFF AND PUSH1 0xE0 SHL DUP2 MSTORE PUSH1 0x4 ADD PUSH1 0x20 PUSH1 0x40 MLOAD DUP1 DUP4 SUB DUP2 DUP7 DUP1 EXTCODESIZE ISZERO DUP1 ISZERO PUSH2 0x401 JUMPI PUSH1 0x0 DUP1 REVERT JUMPDEST POP GAS STATICCALL ISZERO DUP1 ISZERO PUSH2 0x415 JUMPI RETURNDATASIZE PUSH1 0x0 DUP1 RETURNDATACOPY RETURNDATASIZE PUSH1 0x0 REVERT JUMPDEST POP POP POP POP PUSH1 0x40 MLOAD RETURNDATASIZE PUSH1 0x1F NOT PUSH1 0x1F DUP3 ADD AND DUP3 ADD DUP1 PUSH1 0x40 MSTORE POP DUP2 ADD SWAP1 PUSH2 0x439 SWAP2 SWAP1 PUSH2 0x5F2 JUMP JUMPDEST SWAP1 POP SWAP2 SWAP1 POP JUMP JUMPDEST PUSH1 0x0 DUP1 SLOAD SWAP1 PUSH2 0x100 EXP SWAP1 DIV PUSH20 0xFFFFFFFFFFFFFFFFFFFFFFFFFFFFFFFFFFFFFFFF AND DUP2 JUMP JUMPDEST PUSH1 0x0 DUP2 PUSH20 0xFFFFFFFFFFFFFFFFFFFFFFFFFFFFFFFFFFFFFFFF AND PUSH4 0x18160DDD PUSH1 0x40 MLOAD DUP2 PUSH4 0xFFFFFFFF AND PUSH1 0xE0 SHL DUP2 MSTORE PUSH1 0x4 ADD PUSH1 0x20 PUSH1 0x40 MLOAD DUP1 DUP4 SUB DUP2 DUP7 DUP1 EXTCODESIZE ISZERO DUP1 ISZERO PUSH2 0x4AC JUMPI PUSH1 0x0 DUP1 REVERT JUMPDEST POP GAS STATICCALL ISZERO DUP1 ISZERO PUSH2 0x4C0 JUMPI RETURNDATASIZE PUSH1 0x0 DUP1 RETURNDATACOPY RETURNDATASIZE PUSH1 0x0 REVERT JUMPDEST POP POP POP POP PUSH1 0x40 MLOAD RETURNDATASIZE PUSH1 0x1F NOT PUSH1 0x1F DUP3 ADD AND DUP3 ADD DUP1 PUSH1 0x40 MSTORE POP DUP2 ADD SWAP1 PUSH2 0x4E4 SWAP2 SWAP1 PUSH2 0x6D5 JUMP JUMPDEST SWAP1 POP SWAP2 SWAP1 POP JUMP JUMPDEST PUSH1 0x0 PUSH2 0x4FE PUSH2 0x4F9 DUP5 PUSH2 0x8D7 JUMP JUMPDEST PUSH2 0x8B2 JUMP JUMPDEST SWAP1 POP DUP1 DUP4 DUP3 MSTORE PUSH1 0x20 DUP3 ADD SWAP1 POP DUP3 DUP6 PUSH1 0x20 DUP7 MUL DUP3 ADD GT ISZERO PUSH2 0x521 JUMPI PUSH2 0x520 PUSH2 0xA69 JUMP JUMPDEST JUMPDEST PUSH1 0x0 JUMPDEST DUP6 DUP2 LT ISZERO PUSH2 0x551 JUMPI DUP2 PUSH2 0x537 DUP9 DUP3 PUSH2 0x5DD JUMP JUMPDEST DUP5 MSTORE PUSH1 0x20 DUP5 ADD SWAP4 POP PUSH1 0x20 DUP4 ADD SWAP3 POP POP PUSH1 0x1 DUP2 ADD SWAP1 POP PUSH2 0x524 JUMP JUMPDEST POP POP POP SWAP4 SWAP3 POP POP POP JUMP JUMPDEST PUSH1 0x0 DUP2 CALLDATALOAD SWAP1 POP PUSH2 0x56A DUP2 PUSH2 0xA89 JUMP JUMPDEST SWAP3 SWAP2 POP POP JUMP JUMPDEST PUSH1 0x0 DUP2 MLOAD SWAP1 POP PUSH2 0x57F DUP2 PUSH2 0xA89 JUMP JUMPDEST SWAP3 SWAP2 POP POP JUMP JUMPDEST PUSH1 0x0 DUP3 PUSH1 0x1F DUP4 ADD SLT PUSH2 0x59A JUMPI PUSH2 0x599 PUSH2 0xA64 JUMP JUMPDEST JUMPDEST DUP2 MLOAD PUSH2 0x5AA DUP5 DUP3 PUSH1 0x20 DUP7 ADD PUSH2 0x4EB JUMP JUMPDEST SWAP2 POP POP SWAP3 SWAP2 POP POP JUMP JUMPDEST PUSH1 0x0 DUP2 CALLDATALOAD SWAP1 POP PUSH2 0x5C2 DUP2 PUSH2 0xAA0 JUMP JUMPDEST SWAP3 SWAP2 POP POP JUMP JUMPDEST PUSH1 0x0 DUP2 CALLDATALOAD SWAP1 POP PUSH2 0x5D7 DUP2 PUSH2 0xAB7 JUMP JUMPDEST SWAP3 SWAP2 POP POP JUMP JUMPDEST PUSH1 0x0 DUP2 MLOAD SWAP1 POP PUSH2 0x5EC DUP2 PUSH2 0xACE JUMP JUMPDEST SWAP3 SWAP2 POP POP JUMP JUMPDEST PUSH1 0x0 PUSH1 0x20 DUP3 DUP5 SUB SLT ISZERO PUSH2 0x608 JUMPI PUSH2 0x607 PUSH2 0xA73 JUMP JUMPDEST JUMPDEST PUSH1 0x0 PUSH2 0x616 DUP5 DUP3 DUP6 ADD PUSH2 0x570 JUMP JUMPDEST SWAP2 POP POP SWAP3 SWAP2 POP POP JUMP JUMPDEST PUSH1 0x0 PUSH1 0x20 DUP3 DUP5 SUB SLT ISZERO PUSH2 0x635 JUMPI PUSH2 0x634 PUSH2 0xA73 JUMP JUMPDEST JUMPDEST PUSH1 0x0 DUP3 ADD MLOAD PUSH8 0xFFFFFFFFFFFFFFFF DUP2 GT ISZERO PUSH2 0x653 JUMPI PUSH2 0x652 PUSH2 0xA6E JUMP JUMPDEST JUMPDEST PUSH2 0x65F DUP5 DUP3 DUP6 ADD PUSH2 0x585 JUMP JUMPDEST SWAP2 POP POP SWAP3 SWAP2 POP POP JUMP JUMPDEST PUSH1 0x0 PUSH1 0x20 DUP3 DUP5 SUB SLT ISZERO PUSH2 0x67E JUMPI PUSH2 0x67D PUSH2 0xA73 JUMP JUMPDEST JUMPDEST PUSH1 0x0 PUSH2 0x68C DUP5 DUP3 DUP6 ADD PUSH2 0x5B3 JUMP JUMPDEST SWAP2 POP POP SWAP3 SWAP2 POP POP JUMP JUMPDEST PUSH1 0x0 DUP1 PUSH1 0x40 DUP4 DUP6 SUB SLT ISZERO PUSH2 0x6AC JUMPI PUSH2 0x6AB PUSH2 0xA73 JUMP JUMPDEST JUMPDEST PUSH1 0x0 PUSH2 0x6BA DUP6 DUP3 DUP7 ADD PUSH2 0x5C8 JUMP JUMPDEST SWAP3 POP POP PUSH1 0x20 PUSH2 0x6CB DUP6 DUP3 DUP7 ADD PUSH2 0x55B JUMP JUMPDEST SWAP2 POP POP SWAP3 POP SWAP3 SWAP1 POP JUMP JUMPDEST PUSH1 0x0 PUSH1 0x20 DUP3 DUP5 SUB SLT ISZERO PUSH2 0x6EB JUMPI PUSH2 0x6EA PUSH2 0xA73 JUMP JUMPDEST JUMPDEST PUSH1 0x0 PUSH2 0x6F9 DUP5 DUP3 DUP6 ADD PUSH2 0x5DD JUMP JUMPDEST SWAP2 POP POP SWAP3 SWAP2 POP POP JUMP JUMPDEST PUSH1 0x0 PUSH2 0x70E DUP4 DUP4 PUSH2 0x732 JUMP JUMPDEST PUSH1 0x20 DUP4 ADD SWAP1 POP SWAP3 SWAP2 POP POP JUMP JUMPDEST PUSH1 0x0 PUSH2 0x726 DUP4 DUP4 PUSH2 0x80C JUMP JUMPDEST PUSH1 0x20 DUP4 ADD SWAP1 POP SWAP3 SWAP2 POP POP JUMP JUMPDEST PUSH2 0x73B DUP2 PUSH2 0x975 JUMP JUMPDEST DUP3 MSTORE POP POP JUMP JUMPDEST PUSH2 0x74A DUP2 PUSH2 0x975 JUMP JUMPDEST DUP3 MSTORE POP POP JUMP JUMPDEST PUSH1 0x0 PUSH2 0x75B DUP3 PUSH2 0x923 JUMP JUMPDEST PUSH2 0x765 DUP2 DUP6 PUSH2 0x953 JUMP JUMPDEST SWAP4 POP PUSH2 0x770 DUP4 PUSH2 0x903 JUMP JUMPDEST DUP1 PUSH1 0x0 JUMPDEST DUP4 DUP2 LT ISZERO PUSH2 0x7A1 JUMPI DUP2 MLOAD PUSH2 0x788 DUP9 DUP3 PUSH2 0x702 JUMP JUMPDEST SWAP8 POP PUSH2 0x793 DUP4 PUSH2 0x939 JUMP JUMPDEST SWAP3 POP POP PUSH1 0x1 DUP2 ADD SWAP1 POP PUSH2 0x774 JUMP JUMPDEST POP DUP6 SWAP4 POP POP POP POP SWAP3 SWAP2 POP POP JUMP JUMPDEST PUSH1 0x0 PUSH2 0x7B9 DUP3 PUSH2 0x92E JUMP JUMPDEST PUSH2 0x7C3 DUP2 DUP6 PUSH2 0x964 JUMP JUMPDEST SWAP4 POP PUSH2 0x7CE DUP4 PUSH2 0x913 JUMP JUMPDEST DUP1 PUSH1 0x0 JUMPDEST DUP4 DUP2 LT ISZERO PUSH2 0x7FF JUMPI DUP2 MLOAD PUSH2 0x7E6 DUP9 DUP3 PUSH2 0x71A JUMP JUMPDEST SWAP8 POP PUSH2 0x7F1 DUP4 PUSH2 0x946 JUMP JUMPDEST SWAP3 POP POP PUSH1 0x1 DUP2 ADD SWAP1 POP PUSH2 0x7D2 JUMP JUMPDEST POP DUP6 SWAP4 POP POP POP POP SWAP3 SWAP2 POP POP JUMP JUMPDEST PUSH2 0x815 DUP2 PUSH2 0x9CB JUMP JUMPDEST DUP3 MSTORE POP POP JUMP JUMPDEST PUSH2 0x824 DUP2 PUSH2 0x9CB JUMP JUMPDEST DUP3 MSTORE POP POP JUMP JUMPDEST PUSH1 0x0 PUSH1 0x20 DUP3 ADD SWAP1 POP PUSH2 0x83F PUSH1 0x0 DUP4 ADD DUP5 PUSH2 0x741 JUMP JUMPDEST SWAP3 SWAP2 POP POP JUMP JUMPDEST PUSH1 0x0 PUSH1 0x20 DUP3 ADD SWAP1 POP DUP2 DUP2 SUB PUSH1 0x0 DUP4 ADD MSTORE PUSH2 0x85F DUP2 DUP5 PUSH2 0x7AE JUMP JUMPDEST SWAP1 POP SWAP3 SWAP2 POP POP JUMP JUMPDEST PUSH1 0x0 PUSH1 0x20 DUP3 ADD SWAP1 POP PUSH2 0x87C PUSH1 0x0 DUP4 ADD DUP5 PUSH2 0x81B JUMP JUMPDEST SWAP3 SWAP2 POP POP JUMP JUMPDEST PUSH1 0x0 PUSH1 0x40 DUP3 ADD SWAP1 POP PUSH2 0x897 PUSH1 0x0 DUP4 ADD DUP6 PUSH2 0x81B JUMP JUMPDEST DUP2 DUP2 SUB PUSH1 0x20 DUP4 ADD MSTORE PUSH2 0x8A9 DUP2 DUP5 PUSH2 0x750 JUMP JUMPDEST SWAP1 POP SWAP4 SWAP3 POP POP POP JUMP JUMPDEST PUSH1 0x0 PUSH2 0x8BC PUSH2 0x8CD JUMP JUMPDEST SWAP1 POP PUSH2 0x8C8 DUP3 DUP3 PUSH2 0x9D5 JUMP JUMPDEST SWAP2 SWAP1 POP JUMP JUMPDEST PUSH1 0x0 PUSH1 0x40 MLOAD SWAP1 POP SWAP1 JUMP JUMPDEST PUSH1 0x0 PUSH8 0xFFFFFFFFFFFFFFFF DUP3 GT ISZERO PUSH2 0x8F2 JUMPI PUSH2 0x8F1 PUSH2 0xA35 JUMP JUMPDEST JUMPDEST PUSH1 0x20 DUP3 MUL SWAP1 POP PUSH1 0x20 DUP2 ADD SWAP1 POP SWAP2 SWAP1 POP JUMP JUMPDEST PUSH1 0x0 DUP2 SWAP1 POP PUSH1 0x20 DUP3 ADD SWAP1 POP SWAP2 SWAP1 POP JUMP JUMPDEST PUSH1 0x0 DUP2 SWAP1 POP PUSH1 0x20 DUP3 ADD SWAP1 POP SWAP2 SWAP1 POP JUMP JUMPDEST PUSH1 0x0 DUP2 MLOAD SWAP1 POP SWAP2 SWAP1 POP JUMP JUMPDEST PUSH1 0x0 DUP2 MLOAD SWAP1 POP SWAP2 SWAP1 POP JUMP JUMPDEST PUSH1 0x0 PUSH1 0x20 DUP3 ADD SWAP1 POP SWAP2 SWAP1 POP JUMP JUMPDEST PUSH1 0x0 PUSH1 0x20 DUP3 ADD SWAP1 POP SWAP2 SWAP1 POP JUMP JUMPDEST PUSH1 0x0 DUP3 DUP3 MSTORE PUSH1 0x20 DUP3 ADD SWAP1 POP SWAP3 SWAP2 POP POP JUMP JUMPDEST PUSH1 0x0 DUP3 DUP3 MSTORE PUSH1 0x20 DUP3 ADD SWAP1 POP SWAP3 SWAP2 POP POP JUMP JUMPDEST PUSH1 0x0 PUSH2 0x980 DUP3 PUSH2 0x9AB JUMP JUMPDEST SWAP1 POP SWAP2 SWAP1 POP JUMP JUMPDEST PUSH1 0x0 PUSH2 0x992 DUP3 PUSH2 0x975 JUMP JUMPDEST SWAP1 POP SWAP2 SWAP1 POP JUMP JUMPDEST PUSH1 0x0 PUSH2 0x9A4 DUP3 PUSH2 0x975 JUMP JUMPDEST SWAP1 POP SWAP2 SWAP1 POP JUMP JUMPDEST PUSH1 0x0 PUSH20 0xFFFFFFFFFFFFFFFFFFFFFFFFFFFFFFFFFFFFFFFF DUP3 AND SWAP1 POP SWAP2 SWAP1 POP JUMP JUMPDEST PUSH1 0x0 DUP2 SWAP1 POP SWAP2 SWAP1 POP JUMP JUMPDEST PUSH2 0x9DE DUP3 PUSH2 0xA78 JUMP JUMPDEST DUP2 ADD DUP2 DUP2 LT PUSH8 0xFFFFFFFFFFFFFFFF DUP3 GT OR ISZERO PUSH2 0x9FD JUMPI PUSH2 0x9FC PUSH2 0xA35 JUMP JUMPDEST JUMPDEST DUP1 PUSH1 0x40 MSTORE POP POP POP JUMP JUMPDEST PUSH32 0x4E487B7100000000000000000000000000000000000000000000000000000000 PUSH1 0x0 MSTORE PUSH1 0x32 PUSH1 0x4 MSTORE PUSH1 0x24 PUSH1 0x0 REVERT JUMPDEST PUSH32 0x4E487B7100000000000000000000000000000000000000000000000000000000 PUSH1 0x0 MSTORE PUSH1 0x41 PUSH1 0x4 MSTORE PUSH1 0x24 PUSH1 0x0 REVERT JUMPDEST PUSH1 0x0 DUP1 REVERT JUMPDEST PUSH1 0x0 DUP1 REVERT JUMPDEST PUSH1 0x0 DUP1 REVERT JUMPDEST PUSH1 0x0 DUP1 REVERT JUMPDEST PUSH1 0x0 PUSH1 0x1F NOT PUSH1 0x1F DUP4 ADD AND SWAP1 POP SWAP2 SWAP1 POP JUMP JUMPDEST PUSH2 0xA92 DUP2 PUSH2 0x975 JUMP JUMPDEST DUP2 EQ PUSH2 0xA9D JUMPI PUSH1 0x0 DUP1 REVERT JUMPDEST POP JUMP JUMPDEST PUSH2 0xAA9 DUP2 PUSH2 0x987 JUMP JUMPDEST DUP2 EQ PUSH2 0xAB4 JUMPI PUSH1 0x0 DUP1 REVERT JUMPDEST POP JUMP JUMPDEST PUSH2 0xAC0 DUP2 PUSH2 0x999 JUMP JUMPDEST DUP2 EQ PUSH2 0xACB JUMPI PUSH1 0x0 DUP1 REVERT JUMPDEST POP JUMP JUMPDEST PUSH2 0xAD7 DUP2 PUSH2 0x9CB JUMP JUMPDEST DUP2 EQ PUSH2 0xAE2 JUMPI PUSH1 0x0 DUP1 REVERT JUMPDEST POP JUMP INVALID LOG2 PUSH5 0x6970667358 0x22 SLT KECCAK256 0xCB 0x2D BYTE 0x49 0xCB 0xCC 0xDC 0xBF DUP5 SHR LT SMOD CALLDATASIZE PUSH30 0xCF0262F9CD7B15E3444AF5BCA9379893BECF64736F6C6343000807003300 "
				},
				"gasEstimates": {
					"creation": {
						"codeDepositCost": "568600",
						"executionCost": "71240",
						"totalCost": "639840"
					},
					"external": {
						"BUSD()": "2536",
						"WBNB()": "2577",
						"price(address,address)": "infinite",
						"token0(address)": "infinite",
						"token1(address)": "infinite",
						"totalSupply(address)": "infinite"
					}
				},
				"methodIdentifiers": {
					"BUSD()": "484f4ea9",
					"WBNB()": "8dd95002",
					"price(address,address)": "2b00490d",
					"token0(address)": "76bf39a3",
					"token1(address)": "37823795",
					"totalSupply(address)": "e4dc2aa4"
				}
			},
			"storageLayout": {
				"storage": [
					{
						"astId": 332,
						"contract": "contracts/LpPrice.sol:LpUtils",
						"label": "WBNB",
						"offset": 0,
						"slot": "0",
						"type": "t_address"
					},
					{
						"astId": 335,
						"contract": "contracts/LpPrice.sol:LpUtils",
						"label": "BUSD",
						"offset": 0,
						"slot": "1",
						"type": "t_address"
					},
					{
						"astId": 338,
						"contract": "contracts/LpPrice.sol:LpUtils",
						"label": "amount",
						"offset": 0,
						"slot": "2",
						"type": "t_uint256"
					}
				],
				"types": {
					"t_address": {
						"encoding": "inplace",
						"label": "address",
						"numberOfBytes": "20"
					},
					"t_uint256": {
						"encoding": "inplace",
						"label": "uint256",
						"numberOfBytes": "32"
					}
				}
			},
			"userdoc": {
				"kind": "user",
				"methods": {},
				"version": 1
			}
		}
	}
}