{
	"contracts/DDTMasterChef.sol": {
		"DDTMasterChef": {
			"abi": [
				{
					"inputs": [
						{
							"internalType": "contract IERC20",
							"name": "_DDT",
							"type": "address"
						},
						{
							"internalType": "contract INFTMasterchef",
							"name": "_NFTMasterChef",
							"type": "address"
						},
						{
							"internalType": "address",
							"name": "_devaddr",
							"type": "address"
						},
						{
							"internalType": "uint256",
							"name": "_DDTPerBlock",
							"type": "uint256"
						},
						{
							"internalType": "uint256",
							"name": "_startBlock",
							"type": "uint256"
						}
					],
					"stateMutability": "nonpayable",
					"type": "constructor"
				},
				{
					"anonymous": false,
					"inputs": [
						{
							"indexed": true,
							"internalType": "address",
							"name": "user",
							"type": "address"
						},
						{
							"indexed": true,
							"internalType": "uint256",
							"name": "pid",
							"type": "uint256"
						},
						{
							"indexed": false,
							"internalType": "uint256",
							"name": "amount",
							"type": "uint256"
						}
					],
					"name": "Deposit",
					"type": "event"
				},
				{
					"anonymous": false,
					"inputs": [
						{
							"indexed": true,
							"internalType": "address",
							"name": "user",
							"type": "address"
						},
						{
							"indexed": true,
							"internalType": "uint256",
							"name": "pid",
							"type": "uint256"
						},
						{
							"indexed": false,
							"internalType": "uint256",
							"name": "amount",
							"type": "uint256"
						}
					],
					"name": "EmergencyWithdraw",
					"type": "event"
				},
				{
					"anonymous": false,
					"inputs": [
						{
							"indexed": true,
							"internalType": "address",
							"name": "previousOwner",
							"type": "address"
						},
						{
							"indexed": true,
							"internalType": "address",
							"name": "newOwner",
							"type": "address"
						}
					],
					"name": "OwnershipTransferred",
					"type": "event"
				},
				{
					"anonymous": false,
					"inputs": [
						{
							"indexed": true,
							"internalType": "address",
							"name": "user",
							"type": "address"
						},
						{
							"indexed": true,
							"internalType": "uint256",
							"name": "pid",
							"type": "uint256"
						},
						{
							"indexed": false,
							"internalType": "uint256",
							"name": "amount",
							"type": "uint256"
						}
					],
					"name": "Withdraw",
					"type": "event"
				},
				{
					"inputs": [],
					"name": "BONUS_MULTIPLIER",
					"outputs": [
						{
							"internalType": "uint256",
							"name": "",
							"type": "uint256"
						}
					],
					"stateMutability": "view",
					"type": "function"
				},
				{
					"inputs": [],
					"name": "DDT",
					"outputs": [
						{
							"internalType": "contract IERC20",
							"name": "",
							"type": "address"
						}
					],
					"stateMutability": "view",
					"type": "function"
				},
				{
					"inputs": [],
					"name": "DDTPerBlock",
					"outputs": [
						{
							"internalType": "uint256",
							"name": "",
							"type": "uint256"
						}
					],
					"stateMutability": "view",
					"type": "function"
				},
				{
					"inputs": [],
					"name": "NFTMasterChef",
					"outputs": [
						{
							"internalType": "contract INFTMasterchef",
							"name": "",
							"type": "address"
						}
					],
					"stateMutability": "view",
					"type": "function"
				},
				{
					"inputs": [
						{
							"internalType": "uint256",
							"name": "_allocPoint",
							"type": "uint256"
						},
						{
							"internalType": "contract IERC20",
							"name": "_lpToken",
							"type": "address"
						},
						{
							"internalType": "bool",
							"name": "_withUpdate",
							"type": "bool"
						},
						{
							"internalType": "contract IMasterChef",
							"name": "_poolMasterChef",
							"type": "address"
						},
						{
							"internalType": "contract IERC20",
							"name": "_rewardToken",
							"type": "address"
						},
						{
							"internalType": "uint256",
							"name": "_fee",
							"type": "uint256"
						},
						{
							"internalType": "uint256",
							"name": "_method",
							"type": "uint256"
						}
					],
					"name": "add",
					"outputs": [],
					"stateMutability": "nonpayable",
					"type": "function"
				},
				{
					"inputs": [
						{
							"internalType": "uint256",
							"name": "_pid",
							"type": "uint256"
						}
					],
					"name": "compundDDT",
					"outputs": [],
					"stateMutability": "nonpayable",
					"type": "function"
				},
				{
					"inputs": [
						{
							"internalType": "uint256",
							"name": "_pid",
							"type": "uint256"
						},
						{
							"internalType": "uint256",
							"name": "_otherChefPid",
							"type": "uint256"
						},
						{
							"internalType": "uint256",
							"name": "_amount",
							"type": "uint256"
						}
					],
					"name": "deposit",
					"outputs": [],
					"stateMutability": "nonpayable",
					"type": "function"
				},
				{
					"inputs": [],
					"name": "devaddr",
					"outputs": [
						{
							"internalType": "address",
							"name": "",
							"type": "address"
						}
					],
					"stateMutability": "view",
					"type": "function"
				},
				{
					"inputs": [
						{
							"internalType": "uint256",
							"name": "_pid",
							"type": "uint256"
						}
					],
					"name": "emergencyWithdraw",
					"outputs": [],
					"stateMutability": "nonpayable",
					"type": "function"
				},
				{
					"inputs": [
						{
							"internalType": "uint256",
							"name": "_pid",
							"type": "uint256"
						}
					],
					"name": "emergencyWithdrawFromOtherChef",
					"outputs": [],
					"stateMutability": "nonpayable",
					"type": "function"
				},
				{
					"inputs": [
						{
							"internalType": "uint256",
							"name": "_pid",
							"type": "uint256"
						}
					],
					"name": "enablePool",
					"outputs": [],
					"stateMutability": "nonpayable",
					"type": "function"
				},
				{
					"inputs": [
						{
							"internalType": "uint256",
							"name": "_from",
							"type": "uint256"
						},
						{
							"internalType": "uint256",
							"name": "_to",
							"type": "uint256"
						}
					],
					"name": "getMultiplier",
					"outputs": [
						{
							"internalType": "uint256",
							"name": "",
							"type": "uint256"
						}
					],
					"stateMutability": "view",
					"type": "function"
				},
				{
					"inputs": [
						{
							"internalType": "uint256",
							"name": "_pid",
							"type": "uint256"
						},
						{
							"internalType": "address",
							"name": "_user",
							"type": "address"
						}
					],
					"name": "getUserBalance",
					"outputs": [
						{
							"internalType": "uint256",
							"name": "",
							"type": "uint256"
						}
					],
					"stateMutability": "view",
					"type": "function"
				},
				{
					"inputs": [],
					"name": "massUpdatePools",
					"outputs": [],
					"stateMutability": "nonpayable",
					"type": "function"
				},
				{
					"inputs": [
						{
							"internalType": "uint256",
							"name": "_pid",
							"type": "uint256"
						}
					],
					"name": "migrate",
					"outputs": [],
					"stateMutability": "nonpayable",
					"type": "function"
				},
				{
					"inputs": [],
					"name": "migrator",
					"outputs": [
						{
							"internalType": "contract IMigratorChef",
							"name": "",
							"type": "address"
						}
					],
					"stateMutability": "view",
					"type": "function"
				},
				{
					"inputs": [],
					"name": "owner",
					"outputs": [
						{
							"internalType": "address",
							"name": "",
							"type": "address"
						}
					],
					"stateMutability": "view",
					"type": "function"
				},
				{
					"inputs": [
						{
							"internalType": "uint256",
							"name": "_pid",
							"type": "uint256"
						},
						{
							"internalType": "address",
							"name": "_user",
							"type": "address"
						}
					],
					"name": "pendingDDT",
					"outputs": [
						{
							"internalType": "uint256",
							"name": "",
							"type": "uint256"
						}
					],
					"stateMutability": "view",
					"type": "function"
				},
				{
					"inputs": [
						{
							"internalType": "uint256",
							"name": "",
							"type": "uint256"
						}
					],
					"name": "poolBalance",
					"outputs": [
						{
							"internalType": "uint256",
							"name": "",
							"type": "uint256"
						}
					],
					"stateMutability": "view",
					"type": "function"
				},
				{
					"inputs": [
						{
							"internalType": "uint256",
							"name": "",
							"type": "uint256"
						}
					],
					"name": "poolInfo",
					"outputs": [
						{
							"internalType": "contract IERC20",
							"name": "lpToken",
							"type": "address"
						},
						{
							"internalType": "uint256",
							"name": "allocPoint",
							"type": "uint256"
						},
						{
							"internalType": "uint256",
							"name": "lastRewardBlock",
							"type": "uint256"
						},
						{
							"internalType": "uint256",
							"name": "accDDTPerShare",
							"type": "uint256"
						},
						{
							"internalType": "contract IMasterChef",
							"name": "poolMasterChef",
							"type": "address"
						},
						{
							"internalType": "contract IERC20",
							"name": "rewardToken",
							"type": "address"
						},
						{
							"internalType": "uint256",
							"name": "fee",
							"type": "uint256"
						},
						{
							"internalType": "uint256",
							"name": "method",
							"type": "uint256"
						}
					],
					"stateMutability": "view",
					"type": "function"
				},
				{
					"inputs": [],
					"name": "poolLength",
					"outputs": [
						{
							"internalType": "uint256",
							"name": "",
							"type": "uint256"
						}
					],
					"stateMutability": "view",
					"type": "function"
				},
				{
					"inputs": [],
					"name": "renounceOwnership",
					"outputs": [],
					"stateMutability": "nonpayable",
					"type": "function"
				},
				{
					"inputs": [
						{
							"internalType": "uint256",
							"name": "_pid",
							"type": "uint256"
						},
						{
							"internalType": "uint256",
							"name": "_allocPoint",
							"type": "uint256"
						},
						{
							"internalType": "bool",
							"name": "_withUpdate",
							"type": "bool"
						}
					],
					"name": "set",
					"outputs": [],
					"stateMutability": "nonpayable",
					"type": "function"
				},
				{
					"inputs": [
						{
							"internalType": "address",
							"name": "_devaddr",
							"type": "address"
						}
					],
					"name": "setDevAddress",
					"outputs": [],
					"stateMutability": "nonpayable",
					"type": "function"
				},
				{
					"inputs": [
						{
							"internalType": "contract IMigratorChef",
							"name": "_migrator",
							"type": "address"
						}
					],
					"name": "setMigrator",
					"outputs": [],
					"stateMutability": "nonpayable",
					"type": "function"
				},
				{
					"inputs": [],
					"name": "startBlock",
					"outputs": [
						{
							"internalType": "uint256",
							"name": "",
							"type": "uint256"
						}
					],
					"stateMutability": "view",
					"type": "function"
				},
				{
					"inputs": [],
					"name": "totalAllocPoint",
					"outputs": [
						{
							"internalType": "uint256",
							"name": "",
							"type": "uint256"
						}
					],
					"stateMutability": "view",
					"type": "function"
				},
				{
					"inputs": [
						{
							"internalType": "address",
							"name": "newOwner",
							"type": "address"
						}
					],
					"name": "transferOwnership",
					"outputs": [],
					"stateMutability": "nonpayable",
					"type": "function"
				},
				{
					"inputs": [
						{
							"internalType": "uint256",
							"name": "newAmount",
							"type": "uint256"
						}
					],
					"name": "updateDDTPerBlock",
					"outputs": [],
					"stateMutability": "nonpayable",
					"type": "function"
				},
				{
					"inputs": [
						{
							"internalType": "uint256",
							"name": "multiplierNumber",
							"type": "uint256"
						}
					],
					"name": "updateMultiplier",
					"outputs": [],
					"stateMutability": "nonpayable",
					"type": "function"
				},
				{
					"inputs": [
						{
							"internalType": "uint256",
							"name": "_pid",
							"type": "uint256"
						}
					],
					"name": "updatePool",
					"outputs": [],
					"stateMutability": "nonpayable",
					"type": "function"
				},
				{
					"inputs": [
						{
							"internalType": "uint256",
							"name": "",
							"type": "uint256"
						},
						{
							"internalType": "address",
							"name": "",
							"type": "address"
						}
					],
					"name": "userInfo",
					"outputs": [
						{
							"internalType": "uint256",
							"name": "amount",
							"type": "uint256"
						},
						{
							"internalType": "uint256",
							"name": "rewardDebt",
							"type": "uint256"
						}
					],
					"stateMutability": "view",
					"type": "function"
				},
				{
					"inputs": [
						{
							"internalType": "uint256",
							"name": "_pid",
							"type": "uint256"
						},
						{
							"internalType": "uint256",
							"name": "_otherChefPid",
							"type": "uint256"
						},
						{
							"internalType": "uint256",
							"name": "_amount",
							"type": "uint256"
						}
					],
					"name": "withdraw",
					"outputs": [],
					"stateMutability": "nonpayable",
					"type": "function"
				}
			],
			"devdoc": {
				"kind": "dev",
				"methods": {
					"owner()": {
						"details": "Returns the address of the current owner."
					},
					"renounceOwnership()": {
						"details": "Leaves the contract without owner. It will not be possible to call `onlyOwner` functions anymore. Can only be called by the current owner. NOTE: Renouncing ownership will leave the contract without an owner, thereby removing any functionality that is only available to the owner."
					},
					"transferOwnership(address)": {
						"details": "Transfers ownership of the contract to a new account (`newOwner`). Can only be called by the current owner."
					}
				},
				"version": 1
			},
			"evm": {
				"assembly": "    /* \"contracts/DDTMasterChef.sol\":22843:35382  contract DDTMasterChef is Ownable {\r... */\n  mstore(0x40, 0x80)\n    /* \"contracts/DDTMasterChef.sol\":24534:24535  1 */\n  0x01\n    /* \"contracts/DDTMasterChef.sol\":24500:24535  uint256 public BONUS_MULTIPLIER = 1 */\n  0x04\n  sstore\n    /* \"contracts/DDTMasterChef.sol\":24977:24978  0 */\n  0x00\n    /* \"contracts/DDTMasterChef.sol\":24944:24978  uint256 public totalAllocPoint = 0 */\n  0x08\n  sstore\n    /* \"contracts/DDTMasterChef.sol\":25148:25192  11111111111111111111111111111111111111111111 */\n  0x7f8c9ef06e25a77fe790001fac71c71c71c7\n    /* \"contracts/DDTMasterChef.sol\":25124:25192  uint256 approveAmount = 11111111111111111111111111111111111111111111 */\n  0x0b\n  sstore\n    /* \"contracts/DDTMasterChef.sol\":25217:25227  100*(1e18) */\n  0x056bc75e2d63100000\n    /* \"contracts/DDTMasterChef.sol\":25199:25227  uint256 percent = 100*(1e18) */\n  0x0c\n  sstore\n    /* \"contracts/DDTMasterChef.sol\":25564:25904  constructor(\r... */\n  callvalue\n  dup1\n  iszero\n  tag_1\n  jumpi\n  0x00\n  dup1\n  revert\ntag_1:\n  pop\n  mload(0x40)\n  sub(codesize, bytecodeSize)\n  dup1\n  bytecodeSize\n  dup4\n  codecopy\n  dup2\n  dup2\n  add\n  0x40\n  mstore\n  dup2\n  add\n  swap1\n  tag_2\n  swap2\n  swap1\n  tag_3\n  jump\t// in\ntag_2:\n    /* \"contracts/DDTMasterChef.sol\":19984:20016  _transferOwnership(_msgSender()) */\n  tag_7\n    /* \"contracts/DDTMasterChef.sol\":20003:20015  _msgSender() */\n  tag_8\n    /* \"contracts/DDTMasterChef.sol\":20003:20013  _msgSender */\n  shl(0x20, tag_9)\n    /* \"contracts/DDTMasterChef.sol\":20003:20015  _msgSender() */\n  0x20\n  shr\n  jump\t// in\ntag_8:\n    /* \"contracts/DDTMasterChef.sol\":19984:20002  _transferOwnership */\n  shl(0x20, tag_10)\n    /* \"contracts/DDTMasterChef.sol\":19984:20016  _transferOwnership(_msgSender()) */\n  0x20\n  shr\n  jump\t// in\ntag_7:\n    /* \"contracts/DDTMasterChef.sol\":25750:25754  _DDT */\n  dup5\n    /* \"contracts/DDTMasterChef.sol\":25744:25747  DDT */\n  0x01\n  0x00\n    /* \"contracts/DDTMasterChef.sol\":25744:25754  DDT = _DDT */\n  0x0100\n  exp\n  dup2\n  sload\n  dup2\n  0xffffffffffffffffffffffffffffffffffffffff\n  mul\n  not\n  and\n  swap1\n  dup4\n  0xffffffffffffffffffffffffffffffffffffffff\n  and\n  mul\n  or\n  swap1\n  sstore\n  pop\n    /* \"contracts/DDTMasterChef.sol\":25775:25783  _devaddr */\n  dup3\n    /* \"contracts/DDTMasterChef.sol\":25765:25772  devaddr */\n  0x02\n  0x00\n    /* \"contracts/DDTMasterChef.sol\":25765:25783  devaddr = _devaddr */\n  0x0100\n  exp\n  dup2\n  sload\n  dup2\n  0xffffffffffffffffffffffffffffffffffffffff\n  mul\n  not\n  and\n  swap1\n  dup4\n  0xffffffffffffffffffffffffffffffffffffffff\n  and\n  mul\n  or\n  swap1\n  sstore\n  pop\n    /* \"contracts/DDTMasterChef.sol\":25808:25820  _DDTPerBlock */\n  dup2\n    /* \"contracts/DDTMasterChef.sol\":25794:25805  DDTPerBlock */\n  0x03\n    /* \"contracts/DDTMasterChef.sol\":25794:25820  DDTPerBlock = _DDTPerBlock */\n  dup2\n  swap1\n  sstore\n  pop\n    /* \"contracts/DDTMasterChef.sol\":25844:25855  _startBlock */\n  dup1\n    /* \"contracts/DDTMasterChef.sol\":25831:25841  startBlock */\n  0x09\n    /* \"contracts/DDTMasterChef.sol\":25831:25855  startBlock = _startBlock */\n  dup2\n  swap1\n  sstore\n  pop\n    /* \"contracts/DDTMasterChef.sol\":25882:25896  _NFTMasterChef */\n  dup4\n    /* \"contracts/DDTMasterChef.sol\":25866:25879  NFTMasterChef */\n  0x0d\n  0x00\n    /* \"contracts/DDTMasterChef.sol\":25866:25896  NFTMasterChef = _NFTMasterChef */\n  0x0100\n  exp\n  dup2\n  sload\n  dup2\n  0xffffffffffffffffffffffffffffffffffffffff\n  mul\n  not\n  and\n  swap1\n  dup4\n  0xffffffffffffffffffffffffffffffffffffffff\n  and\n  mul\n  or\n  swap1\n  sstore\n  pop\n    /* \"contracts/DDTMasterChef.sol\":25564:25904  constructor(\r... */\n  pop\n  pop\n  pop\n  pop\n  pop\n    /* \"contracts/DDTMasterChef.sol\":22843:35382  contract DDTMasterChef is Ownable {\r... */\n  jump(tag_12)\n    /* \"contracts/DDTMasterChef.sol\":19479:19577  function _msgSender() internal view virtual returns (address) {\r... */\ntag_9:\n    /* \"contracts/DDTMasterChef.sol\":19532:19539  address */\n  0x00\n    /* \"contracts/DDTMasterChef.sol\":19559:19569  msg.sender */\n  caller\n    /* \"contracts/DDTMasterChef.sol\":19552:19569  return msg.sender */\n  swap1\n  pop\n    /* \"contracts/DDTMasterChef.sol\":19479:19577  function _msgSender() internal view virtual returns (address) {\r... */\n  swap1\n  jump\t// out\n    /* \"contracts/DDTMasterChef.sol\":21375:21566  function _transferOwnership(address newOwner) internal virtual {\r... */\ntag_10:\n    /* \"contracts/DDTMasterChef.sol\":21449:21465  address oldOwner */\n  0x00\n    /* \"contracts/DDTMasterChef.sol\":21468:21474  _owner */\n  dup1\n  0x00\n  swap1\n  sload\n  swap1\n  0x0100\n  exp\n  swap1\n  div\n  0xffffffffffffffffffffffffffffffffffffffff\n  and\n    /* \"contracts/DDTMasterChef.sol\":21449:21474  address oldOwner = _owner */\n  swap1\n  pop\n    /* \"contracts/DDTMasterChef.sol\":21494:21502  newOwner */\n  dup2\n    /* \"contracts/DDTMasterChef.sol\":21485:21491  _owner */\n  0x00\n  dup1\n    /* \"contracts/DDTMasterChef.sol\":21485:21502  _owner = newOwner */\n  0x0100\n  exp\n  dup2\n  sload\n  dup2\n  0xffffffffffffffffffffffffffffffffffffffff\n  mul\n  not\n  and\n  swap1\n  dup4\n  0xffffffffffffffffffffffffffffffffffffffff\n  and\n  mul\n  or\n  swap1\n  sstore\n  pop\n    /* \"contracts/DDTMasterChef.sol\":21549:21557  newOwner */\n  dup2\n    /* \"contracts/DDTMasterChef.sol\":21518:21558  OwnershipTransferred(oldOwner, newOwner) */\n  0xffffffffffffffffffffffffffffffffffffffff\n  and\n    /* \"contracts/DDTMasterChef.sol\":21539:21547  oldOwner */\n  dup2\n    /* \"contracts/DDTMasterChef.sol\":21518:21558  OwnershipTransferred(oldOwner, newOwner) */\n  0xffffffffffffffffffffffffffffffffffffffff\n  and\n  0x8be0079c531659141344cd1fd0a4f28419497f9722a3daafe3b4186f6b6457e0\n  mload(0x40)\n  mload(0x40)\n  dup1\n  swap2\n  sub\n  swap1\n  log3\n    /* \"contracts/DDTMasterChef.sol\":21438:21566  {\r... */\n  pop\n    /* \"contracts/DDTMasterChef.sol\":21375:21566  function _transferOwnership(address newOwner) internal virtual {\r... */\n  pop\n  jump\t// out\n    /* \"#utility.yul\":7:150   */\ntag_16:\n    /* \"#utility.yul\":64:69   */\n  0x00\n    /* \"#utility.yul\":95:101   */\n  dup2\n    /* \"#utility.yul\":89:102   */\n  mload\n    /* \"#utility.yul\":80:102   */\n  swap1\n  pop\n    /* \"#utility.yul\":111:144   */\n  tag_18\n    /* \"#utility.yul\":138:143   */\n  dup2\n    /* \"#utility.yul\":111:144   */\n  tag_19\n  jump\t// in\ntag_18:\n    /* \"#utility.yul\":7:150   */\n  swap3\n  swap2\n  pop\n  pop\n  jump\t// out\n    /* \"#utility.yul\":156:327   */\ntag_20:\n    /* \"#utility.yul\":227:232   */\n  0x00\n    /* \"#utility.yul\":258:264   */\n  dup2\n    /* \"#utility.yul\":252:265   */\n  mload\n    /* \"#utility.yul\":243:265   */\n  swap1\n  pop\n    /* \"#utility.yul\":274:321   */\n  tag_22\n    /* \"#utility.yul\":315:320   */\n  dup2\n    /* \"#utility.yul\":274:321   */\n  tag_23\n  jump\t// in\ntag_22:\n    /* \"#utility.yul\":156:327   */\n  swap3\n  swap2\n  pop\n  pop\n  jump\t// out\n    /* \"#utility.yul\":333:520   */\ntag_24:\n    /* \"#utility.yul\":412:417   */\n  0x00\n    /* \"#utility.yul\":443:449   */\n  dup2\n    /* \"#utility.yul\":437:450   */\n  mload\n    /* \"#utility.yul\":428:450   */\n  swap1\n  pop\n    /* \"#utility.yul\":459:514   */\n  tag_26\n    /* \"#utility.yul\":508:513   */\n  dup2\n    /* \"#utility.yul\":459:514   */\n  tag_27\n  jump\t// in\ntag_26:\n    /* \"#utility.yul\":333:520   */\n  swap3\n  swap2\n  pop\n  pop\n  jump\t// out\n    /* \"#utility.yul\":526:669   */\ntag_28:\n    /* \"#utility.yul\":583:588   */\n  0x00\n    /* \"#utility.yul\":614:620   */\n  dup2\n    /* \"#utility.yul\":608:621   */\n  mload\n    /* \"#utility.yul\":599:621   */\n  swap1\n  pop\n    /* \"#utility.yul\":630:663   */\n  tag_30\n    /* \"#utility.yul\":657:662   */\n  dup2\n    /* \"#utility.yul\":630:663   */\n  tag_31\n  jump\t// in\ntag_30:\n    /* \"#utility.yul\":526:669   */\n  swap3\n  swap2\n  pop\n  pop\n  jump\t// out\n    /* \"#utility.yul\":675:1724   */\ntag_3:\n    /* \"#utility.yul\":817:823   */\n  0x00\n    /* \"#utility.yul\":825:831   */\n  dup1\n    /* \"#utility.yul\":833:839   */\n  0x00\n    /* \"#utility.yul\":841:847   */\n  dup1\n    /* \"#utility.yul\":849:855   */\n  0x00\n    /* \"#utility.yul\":898:901   */\n  0xa0\n    /* \"#utility.yul\":886:895   */\n  dup7\n    /* \"#utility.yul\":877:884   */\n  dup9\n    /* \"#utility.yul\":873:896   */\n  sub\n    /* \"#utility.yul\":869:902   */\n  slt\n    /* \"#utility.yul\":866:986   */\n  iszero\n  tag_33\n  jumpi\n    /* \"#utility.yul\":905:984   */\n  tag_34\n  tag_35\n  jump\t// in\ntag_34:\n    /* \"#utility.yul\":866:986   */\ntag_33:\n    /* \"#utility.yul\":1025:1026   */\n  0x00\n    /* \"#utility.yul\":1050:1128   */\n  tag_36\n    /* \"#utility.yul\":1120:1127   */\n  dup9\n    /* \"#utility.yul\":1111:1117   */\n  dup3\n    /* \"#utility.yul\":1100:1109   */\n  dup10\n    /* \"#utility.yul\":1096:1118   */\n  add\n    /* \"#utility.yul\":1050:1128   */\n  tag_20\n  jump\t// in\ntag_36:\n    /* \"#utility.yul\":1040:1128   */\n  swap6\n  pop\n    /* \"#utility.yul\":996:1138   */\n  pop\n    /* \"#utility.yul\":1177:1179   */\n  0x20\n    /* \"#utility.yul\":1203:1289   */\n  tag_37\n    /* \"#utility.yul\":1281:1288   */\n  dup9\n    /* \"#utility.yul\":1272:1278   */\n  dup3\n    /* \"#utility.yul\":1261:1270   */\n  dup10\n    /* \"#utility.yul\":1257:1279   */\n  add\n    /* \"#utility.yul\":1203:1289   */\n  tag_24\n  jump\t// in\ntag_37:\n    /* \"#utility.yul\":1193:1289   */\n  swap5\n  pop\n    /* \"#utility.yul\":1148:1299   */\n  pop\n    /* \"#utility.yul\":1338:1340   */\n  0x40\n    /* \"#utility.yul\":1364:1428   */\n  tag_38\n    /* \"#utility.yul\":1420:1427   */\n  dup9\n    /* \"#utility.yul\":1411:1417   */\n  dup3\n    /* \"#utility.yul\":1400:1409   */\n  dup10\n    /* \"#utility.yul\":1396:1418   */\n  add\n    /* \"#utility.yul\":1364:1428   */\n  tag_16\n  jump\t// in\ntag_38:\n    /* \"#utility.yul\":1354:1428   */\n  swap4\n  pop\n    /* \"#utility.yul\":1309:1438   */\n  pop\n    /* \"#utility.yul\":1477:1479   */\n  0x60\n    /* \"#utility.yul\":1503:1567   */\n  tag_39\n    /* \"#utility.yul\":1559:1566   */\n  dup9\n    /* \"#utility.yul\":1550:1556   */\n  dup3\n    /* \"#utility.yul\":1539:1548   */\n  dup10\n    /* \"#utility.yul\":1535:1557   */\n  add\n    /* \"#utility.yul\":1503:1567   */\n  tag_28\n  jump\t// in\ntag_39:\n    /* \"#utility.yul\":1493:1567   */\n  swap3\n  pop\n    /* \"#utility.yul\":1448:1577   */\n  pop\n    /* \"#utility.yul\":1616:1619   */\n  0x80\n    /* \"#utility.yul\":1643:1707   */\n  tag_40\n    /* \"#utility.yul\":1699:1706   */\n  dup9\n    /* \"#utility.yul\":1690:1696   */\n  dup3\n    /* \"#utility.yul\":1679:1688   */\n  dup10\n    /* \"#utility.yul\":1675:1697   */\n  add\n    /* \"#utility.yul\":1643:1707   */\n  tag_28\n  jump\t// in\ntag_40:\n    /* \"#utility.yul\":1633:1707   */\n  swap2\n  pop\n    /* \"#utility.yul\":1587:1717   */\n  pop\n    /* \"#utility.yul\":675:1724   */\n  swap3\n  swap6\n  pop\n  swap3\n  swap6\n  swap1\n  swap4\n  pop\n  jump\t// out\n    /* \"#utility.yul\":1811:1907   */\ntag_43:\n    /* \"#utility.yul\":1848:1855   */\n  0x00\n    /* \"#utility.yul\":1877:1901   */\n  tag_45\n    /* \"#utility.yul\":1895:1900   */\n  dup3\n    /* \"#utility.yul\":1877:1901   */\n  tag_46\n  jump\t// in\ntag_45:\n    /* \"#utility.yul\":1866:1901   */\n  swap1\n  pop\n    /* \"#utility.yul\":1811:1907   */\n  swap2\n  swap1\n  pop\n  jump\t// out\n    /* \"#utility.yul\":1913:2023   */\ntag_47:\n    /* \"#utility.yul\":1964:1971   */\n  0x00\n    /* \"#utility.yul\":1993:2017   */\n  tag_49\n    /* \"#utility.yul\":2011:2016   */\n  dup3\n    /* \"#utility.yul\":1993:2017   */\n  tag_43\n  jump\t// in\ntag_49:\n    /* \"#utility.yul\":1982:2017   */\n  swap1\n  pop\n    /* \"#utility.yul\":1913:2023   */\n  swap2\n  swap1\n  pop\n  jump\t// out\n    /* \"#utility.yul\":2029:2147   */\ntag_50:\n    /* \"#utility.yul\":2088:2095   */\n  0x00\n    /* \"#utility.yul\":2117:2141   */\n  tag_52\n    /* \"#utility.yul\":2135:2140   */\n  dup3\n    /* \"#utility.yul\":2117:2141   */\n  tag_43\n  jump\t// in\ntag_52:\n    /* \"#utility.yul\":2106:2141   */\n  swap1\n  pop\n    /* \"#utility.yul\":2029:2147   */\n  swap2\n  swap1\n  pop\n  jump\t// out\n    /* \"#utility.yul\":2153:2279   */\ntag_46:\n    /* \"#utility.yul\":2190:2197   */\n  0x00\n    /* \"#utility.yul\":2230:2272   */\n  0xffffffffffffffffffffffffffffffffffffffff\n    /* \"#utility.yul\":2223:2228   */\n  dup3\n    /* \"#utility.yul\":2219:2273   */\n  and\n    /* \"#utility.yul\":2208:2273   */\n  swap1\n  pop\n    /* \"#utility.yul\":2153:2279   */\n  swap2\n  swap1\n  pop\n  jump\t// out\n    /* \"#utility.yul\":2285:2362   */\ntag_54:\n    /* \"#utility.yul\":2322:2329   */\n  0x00\n    /* \"#utility.yul\":2351:2356   */\n  dup2\n    /* \"#utility.yul\":2340:2356   */\n  swap1\n  pop\n    /* \"#utility.yul\":2285:2362   */\n  swap2\n  swap1\n  pop\n  jump\t// out\n    /* \"#utility.yul\":2491:2608   */\ntag_35:\n    /* \"#utility.yul\":2600:2601   */\n  0x00\n    /* \"#utility.yul\":2597:2598   */\n  dup1\n    /* \"#utility.yul\":2590:2602   */\n  revert\n    /* \"#utility.yul\":2614:2736   */\ntag_19:\n    /* \"#utility.yul\":2687:2711   */\n  tag_60\n    /* \"#utility.yul\":2705:2710   */\n  dup2\n    /* \"#utility.yul\":2687:2711   */\n  tag_43\n  jump\t// in\ntag_60:\n    /* \"#utility.yul\":2680:2685   */\n  dup2\n    /* \"#utility.yul\":2677:2712   */\n  eq\n    /* \"#utility.yul\":2667:2730   */\n  tag_61\n  jumpi\n    /* \"#utility.yul\":2726:2727   */\n  0x00\n    /* \"#utility.yul\":2723:2724   */\n  dup1\n    /* \"#utility.yul\":2716:2728   */\n  revert\n    /* \"#utility.yul\":2667:2730   */\ntag_61:\n    /* \"#utility.yul\":2614:2736   */\n  pop\n  jump\t// out\n    /* \"#utility.yul\":2742:2892   */\ntag_23:\n    /* \"#utility.yul\":2829:2867   */\n  tag_63\n    /* \"#utility.yul\":2861:2866   */\n  dup2\n    /* \"#utility.yul\":2829:2867   */\n  tag_47\n  jump\t// in\ntag_63:\n    /* \"#utility.yul\":2822:2827   */\n  dup2\n    /* \"#utility.yul\":2819:2868   */\n  eq\n    /* \"#utility.yul\":2809:2886   */\n  tag_64\n  jumpi\n    /* \"#utility.yul\":2882:2883   */\n  0x00\n    /* \"#utility.yul\":2879:2880   */\n  dup1\n    /* \"#utility.yul\":2872:2884   */\n  revert\n    /* \"#utility.yul\":2809:2886   */\ntag_64:\n    /* \"#utility.yul\":2742:2892   */\n  pop\n  jump\t// out\n    /* \"#utility.yul\":2898:3064   */\ntag_27:\n    /* \"#utility.yul\":2993:3039   */\n  tag_66\n    /* \"#utility.yul\":3033:3038   */\n  dup2\n    /* \"#utility.yul\":2993:3039   */\n  tag_50\n  jump\t// in\ntag_66:\n    /* \"#utility.yul\":2986:2991   */\n  dup2\n    /* \"#utility.yul\":2983:3040   */\n  eq\n    /* \"#utility.yul\":2973:3058   */\n  tag_67\n  jumpi\n    /* \"#utility.yul\":3054:3055   */\n  0x00\n    /* \"#utility.yul\":3051:3052   */\n  dup1\n    /* \"#utility.yul\":3044:3056   */\n  revert\n    /* \"#utility.yul\":2973:3058   */\ntag_67:\n    /* \"#utility.yul\":2898:3064   */\n  pop\n  jump\t// out\n    /* \"#utility.yul\":3070:3192   */\ntag_31:\n    /* \"#utility.yul\":3143:3167   */\n  tag_69\n    /* \"#utility.yul\":3161:3166   */\n  dup2\n    /* \"#utility.yul\":3143:3167   */\n  tag_54\n  jump\t// in\ntag_69:\n    /* \"#utility.yul\":3136:3141   */\n  dup2\n    /* \"#utility.yul\":3133:3168   */\n  eq\n    /* \"#utility.yul\":3123:3186   */\n  tag_70\n  jumpi\n    /* \"#utility.yul\":3182:3183   */\n  0x00\n    /* \"#utility.yul\":3179:3180   */\n  dup1\n    /* \"#utility.yul\":3172:3184   */\n  revert\n    /* \"#utility.yul\":3123:3186   */\ntag_70:\n    /* \"#utility.yul\":3070:3192   */\n  pop\n  jump\t// out\n    /* \"contracts/DDTMasterChef.sol\":22843:35382  contract DDTMasterChef is Ownable {\r... */\ntag_12:\n  dataSize(sub_0)\n  dup1\n  dataOffset(sub_0)\n  0x00\n  codecopy\n  0x00\n  return\nstop\n\nsub_0: assembly {\n        /* \"contracts/DDTMasterChef.sol\":22843:35382  contract DDTMasterChef is Ownable {\r... */\n      mstore(0x40, 0x80)\n      callvalue\n      dup1\n      iszero\n      tag_1\n      jumpi\n      0x00\n      dup1\n      revert\n    tag_1:\n      pop\n      jumpi(tag_2, lt(calldatasize, 0x04))\n      shr(0xe0, calldataload(0x00))\n      dup1\n      0x6a6d964e\n      gt\n      tag_36\n      jumpi\n      dup1\n      0xcb3cba55\n      gt\n      tag_37\n      jumpi\n      dup1\n      0xd49e77cd\n      gt\n      tag_38\n      jumpi\n      dup1\n      0xd49e77cd\n      eq\n      tag_31\n      jumpi\n      dup1\n      0xe4d09896\n      eq\n      tag_32\n      jumpi\n      dup1\n      0xeeac3ae8\n      eq\n      tag_33\n      jumpi\n      dup1\n      0xf2fde38b\n      eq\n      tag_34\n      jumpi\n      dup1\n      0xf395db2c\n      eq\n      tag_35\n      jumpi\n      jump(tag_2)\n    tag_38:\n      dup1\n      0xcb3cba55\n      eq\n      tag_27\n      jumpi\n      dup1\n      0xcdfb6cf3\n      eq\n      tag_28\n      jumpi\n      dup1\n      0xd0d41fe1\n      eq\n      tag_29\n      jumpi\n      dup1\n      0xd1634b8f\n      eq\n      tag_30\n      jumpi\n      jump(tag_2)\n    tag_37:\n      dup1\n      0x8da5cb5b\n      gt\n      tag_39\n      jumpi\n      dup1\n      0x8da5cb5b\n      eq\n      tag_23\n      jumpi\n      dup1\n      0x8dbb1e3a\n      eq\n      tag_24\n      jumpi\n      dup1\n      0x93f1a40b\n      eq\n      tag_25\n      jumpi\n      dup1\n      0xa41fe49f\n      eq\n      tag_26\n      jumpi\n      jump(tag_2)\n    tag_39:\n      dup1\n      0x6a6d964e\n      eq\n      tag_19\n      jumpi\n      dup1\n      0x715018a6\n      eq\n      tag_20\n      jumpi\n      dup1\n      0x7cd07e47\n      eq\n      tag_21\n      jumpi\n      dup1\n      0x8aa28550\n      eq\n      tag_22\n      jumpi\n      jump(tag_2)\n    tag_36:\n      dup1\n      0x48cd4cb1\n      gt\n      tag_40\n      jumpi\n      dup1\n      0x612eee43\n      gt\n      tag_41\n      jumpi\n      dup1\n      0x612eee43\n      eq\n      tag_15\n      jumpi\n      dup1\n      0x630b5ba1\n      eq\n      tag_16\n      jumpi\n      dup1\n      0x64482f79\n      eq\n      tag_17\n      jumpi\n      dup1\n      0x64944193\n      eq\n      tag_18\n      jumpi\n      jump(tag_2)\n    tag_41:\n      dup1\n      0x48cd4cb1\n      eq\n      tag_11\n      jumpi\n      dup1\n      0x51eb05a6\n      eq\n      tag_12\n      jumpi\n      dup1\n      0x5312ea8e\n      eq\n      tag_13\n      jumpi\n      dup1\n      0x5ffe6146\n      eq\n      tag_14\n      jumpi\n      jump(tag_2)\n    tag_40:\n      dup1\n      0x17caf6f1\n      gt\n      tag_42\n      jumpi\n      dup1\n      0x17caf6f1\n      eq\n      tag_7\n      jumpi\n      dup1\n      0x2080baab\n      eq\n      tag_8\n      jumpi\n      dup1\n      0x23cf3118\n      eq\n      tag_9\n      jumpi\n      dup1\n      0x454b0608\n      eq\n      tag_10\n      jumpi\n      jump(tag_2)\n    tag_42:\n      dup1\n      0xaeef8a\n      eq\n      tag_3\n      jumpi\n      dup1\n      0x081e3eda\n      eq\n      tag_4\n      jumpi\n      dup1\n      0x1395d8c9\n      eq\n      tag_5\n      jumpi\n      dup1\n      0x1526fe27\n      eq\n      tag_6\n      jumpi\n    tag_2:\n      0x00\n      dup1\n      revert\n        /* \"contracts/DDTMasterChef.sol\":30835:32381  function deposit(uint256 _pid,uint256 _otherChefPid, uint256 _amount) public {\r... */\n    tag_3:\n      tag_43\n      0x04\n      dup1\n      calldatasize\n      sub\n      dup2\n      add\n      swap1\n      tag_44\n      swap2\n      swap1\n      tag_45\n      jump\t// in\n    tag_44:\n      tag_46\n      jump\t// in\n    tag_43:\n      stop\n        /* \"contracts/DDTMasterChef.sol\":26043:26138  function poolLength() external view returns (uint256) {\r... */\n    tag_4:\n      tag_47\n      tag_48\n      jump\t// in\n    tag_47:\n      mload(0x40)\n      tag_49\n      swap2\n      swap1\n      tag_50\n      jump\t// in\n    tag_49:\n      mload(0x40)\n      dup1\n      swap2\n      sub\n      swap1\n      return\n        /* \"contracts/DDTMasterChef.sol\":33582:34159  function compundDDT(uint256 _pid) public {\r... */\n    tag_5:\n      tag_51\n      0x04\n      dup1\n      calldatasize\n      sub\n      dup2\n      add\n      swap1\n      tag_52\n      swap2\n      swap1\n      tag_53\n      jump\t// in\n    tag_52:\n      tag_54\n      jump\t// in\n    tag_51:\n      stop\n        /* \"contracts/DDTMasterChef.sol\":24703:24729  PoolInfo[] public poolInfo */\n    tag_6:\n      tag_55\n      0x04\n      dup1\n      calldatasize\n      sub\n      dup2\n      add\n      swap1\n      tag_56\n      swap2\n      swap1\n      tag_53\n      jump\t// in\n    tag_56:\n      tag_57\n      jump\t// in\n    tag_55:\n      mload(0x40)\n      tag_58\n      swap9\n      swap8\n      swap7\n      swap6\n      swap5\n      swap4\n      swap3\n      swap2\n      swap1\n      tag_59\n      jump\t// in\n    tag_58:\n      mload(0x40)\n      dup1\n      swap2\n      sub\n      swap1\n      return\n        /* \"contracts/DDTMasterChef.sol\":24944:24978  uint256 public totalAllocPoint = 0 */\n    tag_7:\n      tag_60\n      tag_61\n      jump\t// in\n    tag_60:\n      mload(0x40)\n      tag_62\n      swap2\n      swap1\n      tag_50\n      jump\t// in\n    tag_62:\n      mload(0x40)\n      dup1\n      swap2\n      sub\n      swap1\n      return\n        /* \"contracts/DDTMasterChef.sol\":28748:29477  function pendingDDT(uint256 _pid, address _user) external view returns (uint256){\r... */\n    tag_8:\n      tag_63\n      0x04\n      dup1\n      calldatasize\n      sub\n      dup2\n      add\n      swap1\n      tag_64\n      swap2\n      swap1\n      tag_65\n      jump\t// in\n    tag_64:\n      tag_66\n      jump\t// in\n    tag_63:\n      mload(0x40)\n      tag_67\n      swap2\n      swap1\n      tag_50\n      jump\t// in\n    tag_67:\n      mload(0x40)\n      dup1\n      swap2\n      sub\n      swap1\n      return\n        /* \"contracts/DDTMasterChef.sol\":27764:27866  function setMigrator(IMigratorChef _migrator) public onlyOwner {\r... */\n    tag_9:\n      tag_68\n      0x04\n      dup1\n      calldatasize\n      sub\n      dup2\n      add\n      swap1\n      tag_69\n      swap2\n      swap1\n      tag_70\n      jump\t// in\n    tag_69:\n      tag_71\n      jump\t// in\n    tag_68:\n      stop\n        /* \"contracts/DDTMasterChef.sol\":27989:28465  function migrate(uint256 _pid) public {\r... */\n    tag_10:\n      tag_72\n      0x04\n      dup1\n      calldatasize\n      sub\n      dup2\n      add\n      swap1\n      tag_73\n      swap2\n      swap1\n      tag_53\n      jump\t// in\n    tag_73:\n      tag_74\n      jump\t// in\n    tag_72:\n      stop\n        /* \"contracts/DDTMasterChef.sol\":25034:25059  uint256 public startBlock */\n    tag_11:\n      tag_75\n      tag_76\n      jump\t// in\n    tag_75:\n      mload(0x40)\n      tag_77\n      swap2\n      swap1\n      tag_50\n      jump\t// in\n    tag_77:\n      mload(0x40)\n      dup1\n      swap2\n      sub\n      swap1\n      return\n        /* \"contracts/DDTMasterChef.sol\":29816:30521  function updatePool(uint256 _pid) public {\r... */\n    tag_12:\n      tag_78\n      0x04\n      dup1\n      calldatasize\n      sub\n      dup2\n      add\n      swap1\n      tag_79\n      swap2\n      swap1\n      tag_53\n      jump\t// in\n    tag_79:\n      tag_80\n      jump\t// in\n    tag_78:\n      stop\n        /* \"contracts/DDTMasterChef.sol\":34420:34776  function emergencyWithdraw(uint256 _pid) public {\r... */\n    tag_13:\n      tag_81\n      0x04\n      dup1\n      calldatasize\n      sub\n      dup2\n      add\n      swap1\n      tag_82\n      swap2\n      swap1\n      tag_53\n      jump\t// in\n    tag_82:\n      tag_83\n      jump\t// in\n    tag_81:\n      stop\n        /* \"contracts/DDTMasterChef.sol\":25912:26035  function updateMultiplier(uint256 multiplierNumber) public onlyOwner {\r... */\n    tag_14:\n      tag_84\n      0x04\n      dup1\n      calldatasize\n      sub\n      dup2\n      add\n      swap1\n      tag_85\n      swap2\n      swap1\n      tag_53\n      jump\t// in\n    tag_85:\n      tag_86\n      jump\t// in\n    tag_84:\n      stop\n        /* \"contracts/DDTMasterChef.sol\":35274:35379  function updateDDTPerBlock(uint256 newAmount) public onlyOwner {\r... */\n    tag_15:\n      tag_87\n      0x04\n      dup1\n      calldatasize\n      sub\n      dup2\n      add\n      swap1\n      tag_88\n      swap2\n      swap1\n      tag_53\n      jump\t// in\n    tag_88:\n      tag_89\n      jump\t// in\n    tag_87:\n      stop\n        /* \"contracts/DDTMasterChef.sol\":29560:29740  function massUpdatePools() public {\r... */\n    tag_16:\n      tag_90\n      tag_91\n      jump\t// in\n    tag_90:\n      stop\n        /* \"contracts/DDTMasterChef.sol\":27383:27688  function set( uint256 _pid, uint256 _allocPoint, bool _withUpdate) public onlyOwner {\r... */\n    tag_17:\n      tag_92\n      0x04\n      dup1\n      calldatasize\n      sub\n      dup2\n      add\n      swap1\n      tag_93\n      swap2\n      swap1\n      tag_94\n      jump\t// in\n    tag_93:\n      tag_95\n      jump\t// in\n    tag_92:\n      stop\n        /* \"contracts/DDTMasterChef.sol\":26494:27288  function add( uint256 _allocPoint, IERC20 _lpToken, bool _withUpdate, IMasterChef _poolMasterChef, IERC20 _rewardToken, uint256 _fee, uint256 _method) public onlyOwner {\r... */\n    tag_18:\n      tag_96\n      0x04\n      dup1\n      calldatasize\n      sub\n      dup2\n      add\n      swap1\n      tag_97\n      swap2\n      swap1\n      tag_98\n      jump\t// in\n    tag_97:\n      tag_99\n      jump\t// in\n    tag_96:\n      stop\n        /* \"contracts/DDTMasterChef.sol\":25068:25115  mapping (uint256 => uint256) public poolBalance */\n    tag_19:\n      tag_100\n      0x04\n      dup1\n      calldatasize\n      sub\n      dup2\n      add\n      swap1\n      tag_101\n      swap2\n      swap1\n      tag_53\n      jump\t// in\n    tag_101:\n      tag_102\n      jump\t// in\n    tag_100:\n      mload(0x40)\n      tag_103\n      swap2\n      swap1\n      tag_50\n      jump\t// in\n    tag_103:\n      mload(0x40)\n      dup1\n      swap2\n      sub\n      swap1\n      return\n        /* \"contracts/DDTMasterChef.sol\":20756:20859  function renounceOwnership() public virtual onlyOwner {\r... */\n    tag_20:\n      tag_104\n      tag_105\n      jump\t// in\n    tag_104:\n      stop\n        /* \"contracts/DDTMasterChef.sol\":24640:24669  IMigratorChef public migrator */\n    tag_21:\n      tag_106\n      tag_107\n      jump\t// in\n    tag_106:\n      mload(0x40)\n      tag_108\n      swap2\n      swap1\n      tag_109\n      jump\t// in\n    tag_108:\n      mload(0x40)\n      dup1\n      swap2\n      sub\n      swap1\n      return\n        /* \"contracts/DDTMasterChef.sol\":24500:24535  uint256 public BONUS_MULTIPLIER = 1 */\n    tag_22:\n      tag_110\n      tag_111\n      jump\t// in\n    tag_110:\n      mload(0x40)\n      tag_112\n      swap2\n      swap1\n      tag_50\n      jump\t// in\n    tag_112:\n      mload(0x40)\n      dup1\n      swap2\n      sub\n      swap1\n      return\n        /* \"contracts/DDTMasterChef.sol\":20105:20192  function owner() public view virtual returns (address) {\r... */\n    tag_23:\n      tag_113\n      tag_114\n      jump\t// in\n    tag_113:\n      mload(0x40)\n      tag_115\n      swap2\n      swap1\n      tag_116\n      jump\t// in\n    tag_115:\n      mload(0x40)\n      dup1\n      swap2\n      sub\n      swap1\n      return\n        /* \"contracts/DDTMasterChef.sol\":28541:28685  function getMultiplier(uint256 _from, uint256 _to) public view returns (uint256) {\r... */\n    tag_24:\n      tag_117\n      0x04\n      dup1\n      calldatasize\n      sub\n      dup2\n      add\n      swap1\n      tag_118\n      swap2\n      swap1\n      tag_119\n      jump\t// in\n    tag_118:\n      tag_120\n      jump\t// in\n    tag_117:\n      mload(0x40)\n      tag_121\n      swap2\n      swap1\n      tag_50\n      jump\t// in\n    tag_121:\n      mload(0x40)\n      dup1\n      swap2\n      sub\n      swap1\n      return\n        /* \"contracts/DDTMasterChef.sol\":24785:24849  mapping(uint256 => mapping(address => UserInfo)) public userInfo */\n    tag_25:\n      tag_122\n      0x04\n      dup1\n      calldatasize\n      sub\n      dup2\n      add\n      swap1\n      tag_123\n      swap2\n      swap1\n      tag_65\n      jump\t// in\n    tag_123:\n      tag_124\n      jump\t// in\n    tag_122:\n      mload(0x40)\n      tag_125\n      swap3\n      swap2\n      swap1\n      tag_126\n      jump\t// in\n    tag_125:\n      mload(0x40)\n      dup1\n      swap2\n      sub\n      swap1\n      return\n        /* \"contracts/DDTMasterChef.sol\":32433:33574  function withdraw(uint256 _pid, uint256 _otherChefPid, uint256 _amount) public {\r... */\n    tag_26:\n      tag_127\n      0x04\n      dup1\n      calldatasize\n      sub\n      dup2\n      add\n      swap1\n      tag_128\n      swap2\n      swap1\n      tag_45\n      jump\t// in\n    tag_128:\n      tag_129\n      jump\t// in\n    tag_127:\n      stop\n        /* \"contracts/DDTMasterChef.sol\":24309:24326  IERC20 public DDT */\n    tag_27:\n      tag_130\n      tag_131\n      jump\t// in\n    tag_130:\n      mload(0x40)\n      tag_132\n      swap2\n      swap1\n      tag_133\n      jump\t// in\n    tag_132:\n      mload(0x40)\n      dup1\n      swap2\n      sub\n      swap1\n      return\n        /* \"contracts/DDTMasterChef.sol\":26146:26323  function getUserBalance(uint256 _pid, address _user) external view returns (uint256){\r... */\n    tag_28:\n      tag_134\n      0x04\n      dup1\n      calldatasize\n      sub\n      dup2\n      add\n      swap1\n      tag_135\n      swap2\n      swap1\n      tag_65\n      jump\t// in\n    tag_135:\n      tag_136\n      jump\t// in\n    tag_134:\n      mload(0x40)\n      tag_137\n      swap2\n      swap1\n      tag_50\n      jump\t// in\n    tag_137:\n      mload(0x40)\n      dup1\n      swap2\n      sub\n      swap1\n      return\n        /* \"contracts/DDTMasterChef.sol\":35173:35268  function setDevAddress(address _devaddr) public onlyOwner {\r... */\n    tag_29:\n      tag_138\n      0x04\n      dup1\n      calldatasize\n      sub\n      dup2\n      add\n      swap1\n      tag_139\n      swap2\n      swap1\n      tag_140\n      jump\t// in\n    tag_139:\n      tag_141\n      jump\t// in\n    tag_138:\n      stop\n        /* \"contracts/DDTMasterChef.sol\":34167:34349  function emergencyWithdrawFromOtherChef(uint256 _pid) public onlyOwner {\r... */\n    tag_30:\n      tag_142\n      0x04\n      dup1\n      calldatasize\n      sub\n      dup2\n      add\n      swap1\n      tag_143\n      swap2\n      swap1\n      tag_53\n      jump\t// in\n    tag_143:\n      tag_144\n      jump\t// in\n    tag_142:\n      stop\n        /* \"contracts/DDTMasterChef.sol\":24354:24376  address public devaddr */\n    tag_31:\n      tag_145\n      tag_146\n      jump\t// in\n    tag_145:\n      mload(0x40)\n      tag_147\n      swap2\n      swap1\n      tag_116\n      jump\t// in\n    tag_147:\n      mload(0x40)\n      dup1\n      swap2\n      sub\n      swap1\n      return\n        /* \"contracts/DDTMasterChef.sol\":25236:25271  INFTMasterchef public NFTMasterChef */\n    tag_32:\n      tag_148\n      tag_149\n      jump\t// in\n    tag_148:\n      mload(0x40)\n      tag_150\n      swap2\n      swap1\n      tag_151\n      jump\t// in\n    tag_150:\n      mload(0x40)\n      dup1\n      swap2\n      sub\n      swap1\n      return\n        /* \"contracts/DDTMasterChef.sol\":30529:30767  function enablePool(uint256 _pid) public {\r... */\n    tag_33:\n      tag_152\n      0x04\n      dup1\n      calldatasize\n      sub\n      dup2\n      add\n      swap1\n      tag_153\n      swap2\n      swap1\n      tag_53\n      jump\t// in\n    tag_153:\n      tag_154\n      jump\t// in\n    tag_152:\n      stop\n        /* \"contracts/DDTMasterChef.sol\":21014:21215  function transferOwnership(address newOwner) public virtual onlyOwner {\r... */\n    tag_34:\n      tag_155\n      0x04\n      dup1\n      calldatasize\n      sub\n      dup2\n      add\n      swap1\n      tag_156\n      swap2\n      swap1\n      tag_140\n      jump\t// in\n    tag_156:\n      tag_157\n      jump\t// in\n    tag_155:\n      stop\n        /* \"contracts/DDTMasterChef.sol\":24421:24447  uint256 public DDTPerBlock */\n    tag_35:\n      tag_158\n      tag_159\n      jump\t// in\n    tag_158:\n      mload(0x40)\n      tag_160\n      swap2\n      swap1\n      tag_50\n      jump\t// in\n    tag_160:\n      mload(0x40)\n      dup1\n      swap2\n      sub\n      swap1\n      return\n        /* \"contracts/DDTMasterChef.sol\":30835:32381  function deposit(uint256 _pid,uint256 _otherChefPid, uint256 _amount) public {\r... */\n    tag_46:\n        /* \"contracts/DDTMasterChef.sol\":30951:30952  0 */\n      0x00\n        /* \"contracts/DDTMasterChef.sol\":30941:30948  _amount */\n      dup2\n        /* \"contracts/DDTMasterChef.sol\":30941:30952  _amount > 0 */\n      gt\n        /* \"contracts/DDTMasterChef.sol\":30933:30970  require(_amount > 0,\"Amount is zero\") */\n      tag_162\n      jumpi\n      mload(0x40)\n      0x08c379a000000000000000000000000000000000000000000000000000000000\n      dup2\n      mstore\n      0x04\n      add\n      tag_163\n      swap1\n      tag_164\n      jump\t// in\n    tag_163:\n      mload(0x40)\n      dup1\n      swap2\n      sub\n      swap1\n      revert\n    tag_162:\n        /* \"contracts/DDTMasterChef.sol\":30983:31004  PoolInfo storage pool */\n      0x00\n        /* \"contracts/DDTMasterChef.sol\":31007:31015  poolInfo */\n      0x06\n        /* \"contracts/DDTMasterChef.sol\":31016:31020  _pid */\n      dup5\n        /* \"contracts/DDTMasterChef.sol\":31007:31021  poolInfo[_pid] */\n      dup2\n      sload\n      dup2\n      lt\n      tag_165\n      jumpi\n      tag_166\n      tag_167\n      jump\t// in\n    tag_166:\n    tag_165:\n      swap1\n      0x00\n      mstore\n      keccak256(0x00, 0x20)\n      swap1\n      0x08\n      mul\n      add\n        /* \"contracts/DDTMasterChef.sol\":30983:31021  PoolInfo storage pool = poolInfo[_pid] */\n      swap1\n      pop\n        /* \"contracts/DDTMasterChef.sol\":31032:31053  UserInfo storage user */\n      0x00\n        /* \"contracts/DDTMasterChef.sol\":31056:31064  userInfo */\n      0x07\n        /* \"contracts/DDTMasterChef.sol\":31056:31070  userInfo[_pid] */\n      0x00\n        /* \"contracts/DDTMasterChef.sol\":31065:31069  _pid */\n      dup7\n        /* \"contracts/DDTMasterChef.sol\":31056:31070  userInfo[_pid] */\n      dup2\n      mstore\n      0x20\n      add\n      swap1\n      dup2\n      mstore\n      0x20\n      add\n      0x00\n      keccak256\n        /* \"contracts/DDTMasterChef.sol\":31056:31082  userInfo[_pid][msg.sender] */\n      0x00\n        /* \"contracts/DDTMasterChef.sol\":31071:31081  msg.sender */\n      caller\n        /* \"contracts/DDTMasterChef.sol\":31056:31082  userInfo[_pid][msg.sender] */\n      0xffffffffffffffffffffffffffffffffffffffff\n      and\n      0xffffffffffffffffffffffffffffffffffffffff\n      and\n      dup2\n      mstore\n      0x20\n      add\n      swap1\n      dup2\n      mstore\n      0x20\n      add\n      0x00\n      keccak256\n        /* \"contracts/DDTMasterChef.sol\":31032:31082  UserInfo storage user = userInfo[_pid][msg.sender] */\n      swap1\n      pop\n        /* \"contracts/DDTMasterChef.sol\":31093:31109  updatePool(_pid) */\n      tag_169\n        /* \"contracts/DDTMasterChef.sol\":31104:31108  _pid */\n      dup6\n        /* \"contracts/DDTMasterChef.sol\":31093:31103  updatePool */\n      tag_80\n        /* \"contracts/DDTMasterChef.sol\":31093:31109  updatePool(_pid) */\n      jump\t// in\n    tag_169:\n        /* \"contracts/DDTMasterChef.sol\":31138:31139  0 */\n      0x00\n        /* \"contracts/DDTMasterChef.sol\":31124:31128  user */\n      dup2\n        /* \"contracts/DDTMasterChef.sol\":31124:31135  user.amount */\n      0x00\n      add\n      sload\n        /* \"contracts/DDTMasterChef.sol\":31124:31139  user.amount > 0 */\n      gt\n        /* \"contracts/DDTMasterChef.sol\":31120:31362  if (user.amount > 0) {\r... */\n      iszero\n      tag_170\n      jumpi\n        /* \"contracts/DDTMasterChef.sol\":31156:31171  uint256 pending */\n      0x00\n        /* \"contracts/DDTMasterChef.sol\":31174:31241  user.amount.mul(pool.accDDTPerShare).div(1e12).sub(user.rewardDebt) */\n      tag_171\n        /* \"contracts/DDTMasterChef.sol\":31225:31229  user */\n      dup3\n        /* \"contracts/DDTMasterChef.sol\":31225:31240  user.rewardDebt */\n      0x01\n      add\n      sload\n        /* \"contracts/DDTMasterChef.sol\":31174:31220  user.amount.mul(pool.accDDTPerShare).div(1e12) */\n      tag_172\n        /* \"contracts/DDTMasterChef.sol\":31215:31219  1e12 */\n      0xe8d4a51000\n        /* \"contracts/DDTMasterChef.sol\":31174:31210  user.amount.mul(pool.accDDTPerShare) */\n      tag_173\n        /* \"contracts/DDTMasterChef.sol\":31190:31194  pool */\n      dup8\n        /* \"contracts/DDTMasterChef.sol\":31190:31209  pool.accDDTPerShare */\n      0x03\n      add\n      sload\n        /* \"contracts/DDTMasterChef.sol\":31174:31178  user */\n      dup8\n        /* \"contracts/DDTMasterChef.sol\":31174:31185  user.amount */\n      0x00\n      add\n      sload\n        /* \"contracts/DDTMasterChef.sol\":31174:31189  user.amount.mul */\n      tag_174\n      swap1\n        /* \"contracts/DDTMasterChef.sol\":31174:31210  user.amount.mul(pool.accDDTPerShare) */\n      swap2\n      swap1\n      0xffffffff\n      and\n      jump\t// in\n    tag_173:\n        /* \"contracts/DDTMasterChef.sol\":31174:31214  user.amount.mul(pool.accDDTPerShare).div */\n      tag_175\n      swap1\n        /* \"contracts/DDTMasterChef.sol\":31174:31220  user.amount.mul(pool.accDDTPerShare).div(1e12) */\n      swap2\n      swap1\n      0xffffffff\n      and\n      jump\t// in\n    tag_172:\n        /* \"contracts/DDTMasterChef.sol\":31174:31224  user.amount.mul(pool.accDDTPerShare).div(1e12).sub */\n      tag_176\n      swap1\n        /* \"contracts/DDTMasterChef.sol\":31174:31241  user.amount.mul(pool.accDDTPerShare).div(1e12).sub(user.rewardDebt) */\n      swap2\n      swap1\n      0xffffffff\n      and\n      jump\t// in\n    tag_171:\n        /* \"contracts/DDTMasterChef.sol\":31156:31241  uint256 pending = user.amount.mul(pool.accDDTPerShare).div(1e12).sub(user.rewardDebt) */\n      swap1\n      pop\n        /* \"contracts/DDTMasterChef.sol\":31269:31270  0 */\n      0x00\n        /* \"contracts/DDTMasterChef.sol\":31259:31266  pending */\n      dup2\n        /* \"contracts/DDTMasterChef.sol\":31259:31270  pending > 0 */\n      gt\n        /* \"contracts/DDTMasterChef.sol\":31256:31351  if(pending > 0){\r... */\n      iszero\n      tag_177\n      jumpi\n        /* \"contracts/DDTMasterChef.sol\":31290:31335  safeDDTTransfer(address(msg.sender), pending) */\n      tag_178\n        /* \"contracts/DDTMasterChef.sol\":31314:31324  msg.sender */\n      caller\n        /* \"contracts/DDTMasterChef.sol\":31327:31334  pending */\n      dup3\n        /* \"contracts/DDTMasterChef.sol\":31290:31305  safeDDTTransfer */\n      tag_179\n        /* \"contracts/DDTMasterChef.sol\":31290:31335  safeDDTTransfer(address(msg.sender), pending) */\n      jump\t// in\n    tag_178:\n        /* \"contracts/DDTMasterChef.sol\":31256:31351  if(pending > 0){\r... */\n    tag_177:\n        /* \"contracts/DDTMasterChef.sol\":31141:31362  {\r... */\n      pop\n        /* \"contracts/DDTMasterChef.sol\":31120:31362  if (user.amount > 0) {\r... */\n    tag_170:\n        /* \"contracts/DDTMasterChef.sol\":31446:31453  _amount */\n      dup3\n        /* \"contracts/DDTMasterChef.sol\":31375:31379  pool */\n      dup3\n        /* \"contracts/DDTMasterChef.sol\":31375:31387  pool.lpToken */\n      0x00\n      add\n      0x00\n      swap1\n      sload\n      swap1\n      0x0100\n      exp\n      swap1\n      div\n      0xffffffffffffffffffffffffffffffffffffffff\n      and\n        /* \"contracts/DDTMasterChef.sol\":31375:31397  pool.lpToken.allowance */\n      0xffffffffffffffffffffffffffffffffffffffff\n      and\n      0xdd62ed3e\n        /* \"contracts/DDTMasterChef.sol\":31406:31410  this */\n      address\n        /* \"contracts/DDTMasterChef.sol\":31421:31425  pool */\n      dup6\n        /* \"contracts/DDTMasterChef.sol\":31421:31440  pool.poolMasterChef */\n      0x04\n      add\n      0x00\n      swap1\n      sload\n      swap1\n      0x0100\n      exp\n      swap1\n      div\n      0xffffffffffffffffffffffffffffffffffffffff\n      and\n        /* \"contracts/DDTMasterChef.sol\":31375:31442  pool.lpToken.allowance(address(this), address(pool.poolMasterChef)) */\n      mload(0x40)\n      dup4\n      0xffffffff\n      and\n      0xe0\n      shl\n      dup2\n      mstore\n      0x04\n      add\n      tag_180\n      swap3\n      swap2\n      swap1\n      tag_181\n      jump\t// in\n    tag_180:\n      0x20\n      mload(0x40)\n      dup1\n      dup4\n      sub\n      dup2\n      dup7\n      dup1\n      extcodesize\n      iszero\n      dup1\n      iszero\n      tag_182\n      jumpi\n      0x00\n      dup1\n      revert\n    tag_182:\n      pop\n      gas\n      staticcall\n      iszero\n      dup1\n      iszero\n      tag_184\n      jumpi\n      returndatasize\n      0x00\n      dup1\n      returndatacopy\n      revert(0x00, returndatasize)\n    tag_184:\n      pop\n      pop\n      pop\n      pop\n      mload(0x40)\n      returndatasize\n      not(0x1f)\n      0x1f\n      dup3\n      add\n      and\n      dup3\n      add\n      dup1\n      0x40\n      mstore\n      pop\n      dup2\n      add\n      swap1\n      tag_185\n      swap2\n      swap1\n      tag_186\n      jump\t// in\n    tag_185:\n        /* \"contracts/DDTMasterChef.sol\":31375:31453  pool.lpToken.allowance(address(this), address(pool.poolMasterChef)) <= _amount */\n      gt\n        /* \"contracts/DDTMasterChef.sol\":31372:31497  if(pool.lpToken.allowance(address(this), address(pool.poolMasterChef)) <= _amount){\r... */\n      tag_187\n      jumpi\n        /* \"contracts/DDTMasterChef.sol\":31469:31485  enablePool(_pid) */\n      tag_188\n        /* \"contracts/DDTMasterChef.sol\":31480:31484  _pid */\n      dup6\n        /* \"contracts/DDTMasterChef.sol\":31469:31479  enablePool */\n      tag_154\n        /* \"contracts/DDTMasterChef.sol\":31469:31485  enablePool(_pid) */\n      jump\t// in\n    tag_188:\n        /* \"contracts/DDTMasterChef.sol\":31372:31497  if(pool.lpToken.allowance(address(this), address(pool.poolMasterChef)) <= _amount){\r... */\n    tag_187:\n        /* \"contracts/DDTMasterChef.sol\":31507:31518  uint256 fee */\n      0x00\n        /* \"contracts/DDTMasterChef.sol\":31521:31555  _amount.mul(pool.fee).div(percent) */\n      tag_189\n        /* \"contracts/DDTMasterChef.sol\":31547:31554  percent */\n      sload(0x0c)\n        /* \"contracts/DDTMasterChef.sol\":31521:31542  _amount.mul(pool.fee) */\n      tag_190\n        /* \"contracts/DDTMasterChef.sol\":31533:31537  pool */\n      dup6\n        /* \"contracts/DDTMasterChef.sol\":31533:31541  pool.fee */\n      0x06\n      add\n      sload\n        /* \"contracts/DDTMasterChef.sol\":31521:31528  _amount */\n      dup8\n        /* \"contracts/DDTMasterChef.sol\":31521:31532  _amount.mul */\n      tag_174\n      swap1\n        /* \"contracts/DDTMasterChef.sol\":31521:31542  _amount.mul(pool.fee) */\n      swap2\n      swap1\n      0xffffffff\n      and\n      jump\t// in\n    tag_190:\n        /* \"contracts/DDTMasterChef.sol\":31521:31546  _amount.mul(pool.fee).div */\n      tag_175\n      swap1\n        /* \"contracts/DDTMasterChef.sol\":31521:31555  _amount.mul(pool.fee).div(percent) */\n      swap2\n      swap1\n      0xffffffff\n      and\n      jump\t// in\n    tag_189:\n        /* \"contracts/DDTMasterChef.sol\":31507:31555  uint256 fee = _amount.mul(pool.fee).div(percent) */\n      swap1\n      pop\n        /* \"contracts/DDTMasterChef.sol\":31566:31583  uint256 newAmount */\n      0x00\n        /* \"contracts/DDTMasterChef.sol\":31586:31602  _amount.sub(fee) */\n      tag_191\n        /* \"contracts/DDTMasterChef.sol\":31598:31601  fee */\n      dup3\n        /* \"contracts/DDTMasterChef.sol\":31586:31593  _amount */\n      dup7\n        /* \"contracts/DDTMasterChef.sol\":31586:31597  _amount.sub */\n      tag_176\n      swap1\n        /* \"contracts/DDTMasterChef.sol\":31586:31602  _amount.sub(fee) */\n      swap2\n      swap1\n      0xffffffff\n      and\n      jump\t// in\n    tag_191:\n        /* \"contracts/DDTMasterChef.sol\":31566:31602  uint256 newAmount = _amount.sub(fee) */\n      swap1\n      pop\n        /* \"contracts/DDTMasterChef.sol\":31613:31689  pool.lpToken.safeTransferFrom(address(msg.sender), address(this), newAmount) */\n      tag_192\n        /* \"contracts/DDTMasterChef.sol\":31651:31661  msg.sender */\n      caller\n        /* \"contracts/DDTMasterChef.sol\":31672:31676  this */\n      address\n        /* \"contracts/DDTMasterChef.sol\":31679:31688  newAmount */\n      dup4\n        /* \"contracts/DDTMasterChef.sol\":31613:31617  pool */\n      dup8\n        /* \"contracts/DDTMasterChef.sol\":31613:31625  pool.lpToken */\n      0x00\n      add\n      0x00\n      swap1\n      sload\n      swap1\n      0x0100\n      exp\n      swap1\n      div\n      0xffffffffffffffffffffffffffffffffffffffff\n      and\n        /* \"contracts/DDTMasterChef.sol\":31613:31642  pool.lpToken.safeTransferFrom */\n      0xffffffffffffffffffffffffffffffffffffffff\n      and\n      tag_193\n      swap1\n        /* \"contracts/DDTMasterChef.sol\":31613:31689  pool.lpToken.safeTransferFrom(address(msg.sender), address(this), newAmount) */\n      swap4\n      swap3\n      swap2\n      swap1\n      0xffffffff\n      and\n      jump\t// in\n    tag_192:\n        /* \"contracts/DDTMasterChef.sol\":31700:31773  pool.lpToken.safeTransferFrom(address(msg.sender), address(devaddr), fee) */\n      tag_194\n        /* \"contracts/DDTMasterChef.sol\":31738:31748  msg.sender */\n      caller\n        /* \"contracts/DDTMasterChef.sol\":31759:31766  devaddr */\n      0x02\n      0x00\n      swap1\n      sload\n      swap1\n      0x0100\n      exp\n      swap1\n      div\n      0xffffffffffffffffffffffffffffffffffffffff\n      and\n        /* \"contracts/DDTMasterChef.sol\":31769:31772  fee */\n      dup5\n        /* \"contracts/DDTMasterChef.sol\":31700:31704  pool */\n      dup8\n        /* \"contracts/DDTMasterChef.sol\":31700:31712  pool.lpToken */\n      0x00\n      add\n      0x00\n      swap1\n      sload\n      swap1\n      0x0100\n      exp\n      swap1\n      div\n      0xffffffffffffffffffffffffffffffffffffffff\n      and\n        /* \"contracts/DDTMasterChef.sol\":31700:31729  pool.lpToken.safeTransferFrom */\n      0xffffffffffffffffffffffffffffffffffffffff\n      and\n      tag_193\n      swap1\n        /* \"contracts/DDTMasterChef.sol\":31700:31773  pool.lpToken.safeTransferFrom(address(msg.sender), address(devaddr), fee) */\n      swap4\n      swap3\n      swap2\n      swap1\n      0xffffffff\n      and\n      jump\t// in\n    tag_194:\n        /* \"contracts/DDTMasterChef.sol\":31802:31803  0 */\n      0x00\n        /* \"contracts/DDTMasterChef.sol\":31787:31791  pool */\n      dup5\n        /* \"contracts/DDTMasterChef.sol\":31787:31798  pool.method */\n      0x07\n      add\n      sload\n        /* \"contracts/DDTMasterChef.sol\":31787:31803  pool.method == 0 */\n      eq\n        /* \"contracts/DDTMasterChef.sol\":31784:31958  if(pool.method == 0){\r... */\n      iszero\n      tag_195\n      jumpi\n        /* \"contracts/DDTMasterChef.sol\":31819:31823  pool */\n      dup4\n        /* \"contracts/DDTMasterChef.sol\":31819:31838  pool.poolMasterChef */\n      0x04\n      add\n      0x00\n      swap1\n      sload\n      swap1\n      0x0100\n      exp\n      swap1\n      div\n      0xffffffffffffffffffffffffffffffffffffffff\n      and\n        /* \"contracts/DDTMasterChef.sol\":31819:31851  pool.poolMasterChef.enterStaking */\n      0xffffffffffffffffffffffffffffffffffffffff\n      and\n      0x41441d3b\n        /* \"contracts/DDTMasterChef.sol\":31852:31861  newAmount */\n      dup3\n        /* \"contracts/DDTMasterChef.sol\":31819:31862  pool.poolMasterChef.enterStaking(newAmount) */\n      mload(0x40)\n      dup3\n      0xffffffff\n      and\n      0xe0\n      shl\n      dup2\n      mstore\n      0x04\n      add\n      tag_196\n      swap2\n      swap1\n      tag_50\n      jump\t// in\n    tag_196:\n      0x00\n      mload(0x40)\n      dup1\n      dup4\n      sub\n      dup2\n      0x00\n      dup8\n      dup1\n      extcodesize\n      iszero\n      dup1\n      iszero\n      tag_197\n      jumpi\n      0x00\n      dup1\n      revert\n    tag_197:\n      pop\n      gas\n      call\n      iszero\n      dup1\n      iszero\n      tag_199\n      jumpi\n      returndatasize\n      0x00\n      dup1\n      returndatacopy\n      revert(0x00, returndatasize)\n    tag_199:\n      pop\n      pop\n      pop\n      pop\n        /* \"contracts/DDTMasterChef.sol\":31784:31958  if(pool.method == 0){\r... */\n      jump(tag_200)\n    tag_195:\n        /* \"contracts/DDTMasterChef.sol\":31893:31897  pool */\n      dup4\n        /* \"contracts/DDTMasterChef.sol\":31893:31912  pool.poolMasterChef */\n      0x04\n      add\n      0x00\n      swap1\n      sload\n      swap1\n      0x0100\n      exp\n      swap1\n      div\n      0xffffffffffffffffffffffffffffffffffffffff\n      and\n        /* \"contracts/DDTMasterChef.sol\":31893:31920  pool.poolMasterChef.deposit */\n      0xffffffffffffffffffffffffffffffffffffffff\n      and\n      0xe2bbb158\n        /* \"contracts/DDTMasterChef.sol\":31921:31934  _otherChefPid */\n      dup8\n        /* \"contracts/DDTMasterChef.sol\":31936:31945  newAmount */\n      dup4\n        /* \"contracts/DDTMasterChef.sol\":31893:31946  pool.poolMasterChef.deposit(_otherChefPid, newAmount) */\n      mload(0x40)\n      dup4\n      0xffffffff\n      and\n      0xe0\n      shl\n      dup2\n      mstore\n      0x04\n      add\n      tag_201\n      swap3\n      swap2\n      swap1\n      tag_126\n      jump\t// in\n    tag_201:\n      0x00\n      mload(0x40)\n      dup1\n      dup4\n      sub\n      dup2\n      0x00\n      dup8\n      dup1\n      extcodesize\n      iszero\n      dup1\n      iszero\n      tag_202\n      jumpi\n      0x00\n      dup1\n      revert\n    tag_202:\n      pop\n      gas\n      call\n      iszero\n      dup1\n      iszero\n      tag_204\n      jumpi\n      returndatasize\n      0x00\n      dup1\n      returndatacopy\n      revert(0x00, returndatasize)\n    tag_204:\n      pop\n      pop\n      pop\n      pop\n        /* \"contracts/DDTMasterChef.sol\":31784:31958  if(pool.method == 0){\r... */\n    tag_200:\n        /* \"contracts/DDTMasterChef.sol\":31982:32008  user.amount.add(newAmount) */\n      tag_205\n        /* \"contracts/DDTMasterChef.sol\":31998:32007  newAmount */\n      dup2\n        /* \"contracts/DDTMasterChef.sol\":31982:31986  user */\n      dup5\n        /* \"contracts/DDTMasterChef.sol\":31982:31993  user.amount */\n      0x00\n      add\n      sload\n        /* \"contracts/DDTMasterChef.sol\":31982:31997  user.amount.add */\n      tag_206\n      swap1\n        /* \"contracts/DDTMasterChef.sol\":31982:32008  user.amount.add(newAmount) */\n      swap2\n      swap1\n      0xffffffff\n      and\n      jump\t// in\n    tag_205:\n        /* \"contracts/DDTMasterChef.sol\":31968:31972  user */\n      dup4\n        /* \"contracts/DDTMasterChef.sol\":31968:31979  user.amount */\n      0x00\n      add\n        /* \"contracts/DDTMasterChef.sol\":31968:32008  user.amount = user.amount.add(newAmount) */\n      dup2\n      swap1\n      sstore\n      pop\n        /* \"contracts/DDTMasterChef.sol\":32039:32071  poolBalance[_pid].add(newAmount) */\n      tag_207\n        /* \"contracts/DDTMasterChef.sol\":32061:32070  newAmount */\n      dup2\n        /* \"contracts/DDTMasterChef.sol\":32039:32050  poolBalance */\n      0x0a\n        /* \"contracts/DDTMasterChef.sol\":32039:32056  poolBalance[_pid] */\n      0x00\n        /* \"contracts/DDTMasterChef.sol\":32051:32055  _pid */\n      dup11\n        /* \"contracts/DDTMasterChef.sol\":32039:32056  poolBalance[_pid] */\n      dup2\n      mstore\n      0x20\n      add\n      swap1\n      dup2\n      mstore\n      0x20\n      add\n      0x00\n      keccak256\n      sload\n        /* \"contracts/DDTMasterChef.sol\":32039:32060  poolBalance[_pid].add */\n      tag_206\n      swap1\n        /* \"contracts/DDTMasterChef.sol\":32039:32071  poolBalance[_pid].add(newAmount) */\n      swap2\n      swap1\n      0xffffffff\n      and\n      jump\t// in\n    tag_207:\n        /* \"contracts/DDTMasterChef.sol\":32019:32030  poolBalance */\n      0x0a\n        /* \"contracts/DDTMasterChef.sol\":32019:32036  poolBalance[_pid] */\n      0x00\n        /* \"contracts/DDTMasterChef.sol\":32031:32035  _pid */\n      dup10\n        /* \"contracts/DDTMasterChef.sol\":32019:32036  poolBalance[_pid] */\n      dup2\n      mstore\n      0x20\n      add\n      swap1\n      dup2\n      mstore\n      0x20\n      add\n      0x00\n      keccak256\n        /* \"contracts/DDTMasterChef.sol\":32019:32071  poolBalance[_pid] = poolBalance[_pid].add(newAmount) */\n      dup2\n      swap1\n      sstore\n      pop\n        /* \"contracts/DDTMasterChef.sol\":32100:32146  user.amount.mul(pool.accDDTPerShare).div(1e12) */\n      tag_208\n        /* \"contracts/DDTMasterChef.sol\":32141:32145  1e12 */\n      0xe8d4a51000\n        /* \"contracts/DDTMasterChef.sol\":32100:32136  user.amount.mul(pool.accDDTPerShare) */\n      tag_209\n        /* \"contracts/DDTMasterChef.sol\":32116:32120  pool */\n      dup7\n        /* \"contracts/DDTMasterChef.sol\":32116:32135  pool.accDDTPerShare */\n      0x03\n      add\n      sload\n        /* \"contracts/DDTMasterChef.sol\":32100:32104  user */\n      dup7\n        /* \"contracts/DDTMasterChef.sol\":32100:32111  user.amount */\n      0x00\n      add\n      sload\n        /* \"contracts/DDTMasterChef.sol\":32100:32115  user.amount.mul */\n      tag_174\n      swap1\n        /* \"contracts/DDTMasterChef.sol\":32100:32136  user.amount.mul(pool.accDDTPerShare) */\n      swap2\n      swap1\n      0xffffffff\n      and\n      jump\t// in\n    tag_209:\n        /* \"contracts/DDTMasterChef.sol\":32100:32140  user.amount.mul(pool.accDDTPerShare).div */\n      tag_175\n      swap1\n        /* \"contracts/DDTMasterChef.sol\":32100:32146  user.amount.mul(pool.accDDTPerShare).div(1e12) */\n      swap2\n      swap1\n      0xffffffff\n      and\n      jump\t// in\n    tag_208:\n        /* \"contracts/DDTMasterChef.sol\":32082:32086  user */\n      dup4\n        /* \"contracts/DDTMasterChef.sol\":32082:32097  user.rewardDebt */\n      0x01\n      add\n        /* \"contracts/DDTMasterChef.sol\":32082:32146  user.rewardDebt = user.amount.mul(pool.accDDTPerShare).div(1e12) */\n      dup2\n      swap1\n      sstore\n      pop\n        /* \"contracts/DDTMasterChef.sol\":32157:32171  uint256 reward */\n      0x00\n        /* \"contracts/DDTMasterChef.sol\":32174:32178  pool */\n      dup5\n        /* \"contracts/DDTMasterChef.sol\":32174:32190  pool.rewardToken */\n      0x05\n      add\n      0x00\n      swap1\n      sload\n      swap1\n      0x0100\n      exp\n      swap1\n      div\n      0xffffffffffffffffffffffffffffffffffffffff\n      and\n        /* \"contracts/DDTMasterChef.sol\":32174:32200  pool.rewardToken.balanceOf */\n      0xffffffffffffffffffffffffffffffffffffffff\n      and\n      0x70a08231\n        /* \"contracts/DDTMasterChef.sol\":32209:32213  this */\n      address\n        /* \"contracts/DDTMasterChef.sol\":32174:32215  pool.rewardToken.balanceOf(address(this)) */\n      mload(0x40)\n      dup3\n      0xffffffff\n      and\n      0xe0\n      shl\n      dup2\n      mstore\n      0x04\n      add\n      tag_210\n      swap2\n      swap1\n      tag_116\n      jump\t// in\n    tag_210:\n      0x20\n      mload(0x40)\n      dup1\n      dup4\n      sub\n      dup2\n      dup7\n      dup1\n      extcodesize\n      iszero\n      dup1\n      iszero\n      tag_211\n      jumpi\n      0x00\n      dup1\n      revert\n    tag_211:\n      pop\n      gas\n      staticcall\n      iszero\n      dup1\n      iszero\n      tag_213\n      jumpi\n      returndatasize\n      0x00\n      dup1\n      returndatacopy\n      revert(0x00, returndatasize)\n    tag_213:\n      pop\n      pop\n      pop\n      pop\n      mload(0x40)\n      returndatasize\n      not(0x1f)\n      0x1f\n      dup3\n      add\n      and\n      dup3\n      add\n      dup1\n      0x40\n      mstore\n      pop\n      dup2\n      add\n      swap1\n      tag_214\n      swap2\n      swap1\n      tag_186\n      jump\t// in\n    tag_214:\n        /* \"contracts/DDTMasterChef.sol\":32157:32215  uint256 reward = pool.rewardToken.balanceOf(address(this)) */\n      swap1\n      pop\n        /* \"contracts/DDTMasterChef.sol\":32238:32239  0 */\n      0x00\n        /* \"contracts/DDTMasterChef.sol\":32229:32235  reward */\n      dup2\n        /* \"contracts/DDTMasterChef.sol\":32229:32239  reward > 0 */\n      gt\n        /* \"contracts/DDTMasterChef.sol\":32226:32322  if(reward > 0){\r... */\n      iszero\n      tag_215\n      jumpi\n        /* \"contracts/DDTMasterChef.sol\":32255:32310  pool.rewardToken.safeTransfer(address(devaddr), reward) */\n      tag_216\n        /* \"contracts/DDTMasterChef.sol\":32293:32300  devaddr */\n      0x02\n      0x00\n      swap1\n      sload\n      swap1\n      0x0100\n      exp\n      swap1\n      div\n      0xffffffffffffffffffffffffffffffffffffffff\n      and\n        /* \"contracts/DDTMasterChef.sol\":32303:32309  reward */\n      dup3\n        /* \"contracts/DDTMasterChef.sol\":32255:32259  pool */\n      dup8\n        /* \"contracts/DDTMasterChef.sol\":32255:32271  pool.rewardToken */\n      0x05\n      add\n      0x00\n      swap1\n      sload\n      swap1\n      0x0100\n      exp\n      swap1\n      div\n      0xffffffffffffffffffffffffffffffffffffffff\n      and\n        /* \"contracts/DDTMasterChef.sol\":32255:32284  pool.rewardToken.safeTransfer */\n      0xffffffffffffffffffffffffffffffffffffffff\n      and\n      tag_217\n      swap1\n        /* \"contracts/DDTMasterChef.sol\":32255:32310  pool.rewardToken.safeTransfer(address(devaddr), reward) */\n      swap3\n      swap2\n      swap1\n      0xffffffff\n      and\n      jump\t// in\n    tag_216:\n        /* \"contracts/DDTMasterChef.sol\":32226:32322  if(reward > 0){\r... */\n    tag_215:\n        /* \"contracts/DDTMasterChef.sol\":32357:32361  _pid */\n      dup8\n        /* \"contracts/DDTMasterChef.sol\":32345:32355  msg.sender */\n      caller\n        /* \"contracts/DDTMasterChef.sol\":32337:32373  Deposit(msg.sender, _pid, newAmount) */\n      0xffffffffffffffffffffffffffffffffffffffff\n      and\n      0x90890809c654f11d6e72a28fa60149770a0d11ec6c92319d6ceb2bb0a4ea1a15\n        /* \"contracts/DDTMasterChef.sol\":32363:32372  newAmount */\n      dup5\n        /* \"contracts/DDTMasterChef.sol\":32337:32373  Deposit(msg.sender, _pid, newAmount) */\n      mload(0x40)\n      tag_218\n      swap2\n      swap1\n      tag_50\n      jump\t// in\n    tag_218:\n      mload(0x40)\n      dup1\n      swap2\n      sub\n      swap1\n      log3\n        /* \"contracts/DDTMasterChef.sol\":30912:32381  {\r... */\n      pop\n      pop\n      pop\n      pop\n      pop\n        /* \"contracts/DDTMasterChef.sol\":30835:32381  function deposit(uint256 _pid,uint256 _otherChefPid, uint256 _amount) public {\r... */\n      pop\n      pop\n      pop\n      jump\t// out\n        /* \"contracts/DDTMasterChef.sol\":26043:26138  function poolLength() external view returns (uint256) {\r... */\n    tag_48:\n        /* \"contracts/DDTMasterChef.sol\":26088:26095  uint256 */\n      0x00\n        /* \"contracts/DDTMasterChef.sol\":26115:26123  poolInfo */\n      0x06\n        /* \"contracts/DDTMasterChef.sol\":26115:26130  poolInfo.length */\n      dup1\n      sload\n      swap1\n      pop\n        /* \"contracts/DDTMasterChef.sol\":26108:26130  return poolInfo.length */\n      swap1\n      pop\n        /* \"contracts/DDTMasterChef.sol\":26043:26138  function poolLength() external view returns (uint256) {\r... */\n      swap1\n      jump\t// out\n        /* \"contracts/DDTMasterChef.sol\":33582:34159  function compundDDT(uint256 _pid) public {\r... */\n    tag_54:\n        /* \"contracts/DDTMasterChef.sol\":33634:33655  PoolInfo storage pool */\n      0x00\n        /* \"contracts/DDTMasterChef.sol\":33658:33666  poolInfo */\n      0x06\n        /* \"contracts/DDTMasterChef.sol\":33667:33671  _pid */\n      dup3\n        /* \"contracts/DDTMasterChef.sol\":33658:33672  poolInfo[_pid] */\n      dup2\n      sload\n      dup2\n      lt\n      tag_221\n      jumpi\n      tag_222\n      tag_167\n      jump\t// in\n    tag_222:\n    tag_221:\n      swap1\n      0x00\n      mstore\n      keccak256(0x00, 0x20)\n      swap1\n      0x08\n      mul\n      add\n        /* \"contracts/DDTMasterChef.sol\":33634:33672  PoolInfo storage pool = poolInfo[_pid] */\n      swap1\n      pop\n        /* \"contracts/DDTMasterChef.sol\":33683:33704  UserInfo storage user */\n      0x00\n        /* \"contracts/DDTMasterChef.sol\":33707:33715  userInfo */\n      0x07\n        /* \"contracts/DDTMasterChef.sol\":33707:33721  userInfo[_pid] */\n      0x00\n        /* \"contracts/DDTMasterChef.sol\":33716:33720  _pid */\n      dup5\n        /* \"contracts/DDTMasterChef.sol\":33707:33721  userInfo[_pid] */\n      dup2\n      mstore\n      0x20\n      add\n      swap1\n      dup2\n      mstore\n      0x20\n      add\n      0x00\n      keccak256\n        /* \"contracts/DDTMasterChef.sol\":33707:33733  userInfo[_pid][msg.sender] */\n      0x00\n        /* \"contracts/DDTMasterChef.sol\":33722:33732  msg.sender */\n      caller\n        /* \"contracts/DDTMasterChef.sol\":33707:33733  userInfo[_pid][msg.sender] */\n      0xffffffffffffffffffffffffffffffffffffffff\n      and\n      0xffffffffffffffffffffffffffffffffffffffff\n      and\n      dup2\n      mstore\n      0x20\n      add\n      swap1\n      dup2\n      mstore\n      0x20\n      add\n      0x00\n      keccak256\n        /* \"contracts/DDTMasterChef.sol\":33683:33733  UserInfo storage user = userInfo[_pid][msg.sender] */\n      swap1\n      pop\n        /* \"contracts/DDTMasterChef.sol\":33744:33760  updatePool(_pid) */\n      tag_224\n        /* \"contracts/DDTMasterChef.sol\":33755:33759  _pid */\n      dup4\n        /* \"contracts/DDTMasterChef.sol\":33744:33754  updatePool */\n      tag_80\n        /* \"contracts/DDTMasterChef.sol\":33744:33760  updatePool(_pid) */\n      jump\t// in\n    tag_224:\n        /* \"contracts/DDTMasterChef.sol\":33771:33786  uint256 pending */\n      0x00\n        /* \"contracts/DDTMasterChef.sol\":33789:33856  user.amount.mul(pool.accDDTPerShare).div(1e12).sub(user.rewardDebt) */\n      tag_225\n        /* \"contracts/DDTMasterChef.sol\":33840:33844  user */\n      dup3\n        /* \"contracts/DDTMasterChef.sol\":33840:33855  user.rewardDebt */\n      0x01\n      add\n      sload\n        /* \"contracts/DDTMasterChef.sol\":33789:33835  user.amount.mul(pool.accDDTPerShare).div(1e12) */\n      tag_226\n        /* \"contracts/DDTMasterChef.sol\":33830:33834  1e12 */\n      0xe8d4a51000\n        /* \"contracts/DDTMasterChef.sol\":33789:33825  user.amount.mul(pool.accDDTPerShare) */\n      tag_227\n        /* \"contracts/DDTMasterChef.sol\":33805:33809  pool */\n      dup8\n        /* \"contracts/DDTMasterChef.sol\":33805:33824  pool.accDDTPerShare */\n      0x03\n      add\n      sload\n        /* \"contracts/DDTMasterChef.sol\":33789:33793  user */\n      dup8\n        /* \"contracts/DDTMasterChef.sol\":33789:33800  user.amount */\n      0x00\n      add\n      sload\n        /* \"contracts/DDTMasterChef.sol\":33789:33804  user.amount.mul */\n      tag_174\n      swap1\n        /* \"contracts/DDTMasterChef.sol\":33789:33825  user.amount.mul(pool.accDDTPerShare) */\n      swap2\n      swap1\n      0xffffffff\n      and\n      jump\t// in\n    tag_227:\n        /* \"contracts/DDTMasterChef.sol\":33789:33829  user.amount.mul(pool.accDDTPerShare).div */\n      tag_175\n      swap1\n        /* \"contracts/DDTMasterChef.sol\":33789:33835  user.amount.mul(pool.accDDTPerShare).div(1e12) */\n      swap2\n      swap1\n      0xffffffff\n      and\n      jump\t// in\n    tag_226:\n        /* \"contracts/DDTMasterChef.sol\":33789:33839  user.amount.mul(pool.accDDTPerShare).div(1e12).sub */\n      tag_176\n      swap1\n        /* \"contracts/DDTMasterChef.sol\":33789:33856  user.amount.mul(pool.accDDTPerShare).div(1e12).sub(user.rewardDebt) */\n      swap2\n      swap1\n      0xffffffff\n      and\n      jump\t// in\n    tag_225:\n        /* \"contracts/DDTMasterChef.sol\":33771:33856  uint256 pending = user.amount.mul(pool.accDDTPerShare).div(1e12).sub(user.rewardDebt) */\n      swap1\n      pop\n        /* \"contracts/DDTMasterChef.sol\":33885:33886  0 */\n      0x00\n        /* \"contracts/DDTMasterChef.sol\":33875:33882  pending */\n      dup2\n        /* \"contracts/DDTMasterChef.sol\":33875:33886  pending > 0 */\n      gt\n        /* \"contracts/DDTMasterChef.sol\":33867:33905  require(pending > 0, \"Amount is zero\") */\n      tag_228\n      jumpi\n      mload(0x40)\n      0x08c379a000000000000000000000000000000000000000000000000000000000\n      dup2\n      mstore\n      0x04\n      add\n      tag_229\n      swap1\n      tag_164\n      jump\t// in\n    tag_229:\n      mload(0x40)\n      dup1\n      swap2\n      sub\n      swap1\n      revert\n    tag_228:\n        /* \"contracts/DDTMasterChef.sol\":33916:33919  DDT */\n      0x01\n      0x00\n      swap1\n      sload\n      swap1\n      0x0100\n      exp\n      swap1\n      div\n      0xffffffffffffffffffffffffffffffffffffffff\n      and\n        /* \"contracts/DDTMasterChef.sol\":33916:33927  DDT.approve */\n      0xffffffffffffffffffffffffffffffffffffffff\n      and\n      0x095ea7b3\n        /* \"contracts/DDTMasterChef.sol\":33936:33949  NFTMasterChef */\n      0x0d\n      0x00\n      swap1\n      sload\n      swap1\n      0x0100\n      exp\n      swap1\n      div\n      0xffffffffffffffffffffffffffffffffffffffff\n      and\n        /* \"contracts/DDTMasterChef.sol\":33952:33959  pending */\n      dup4\n        /* \"contracts/DDTMasterChef.sol\":33916:33960  DDT.approve(address(NFTMasterChef), pending) */\n      mload(0x40)\n      dup4\n      0xffffffff\n      and\n      0xe0\n      shl\n      dup2\n      mstore\n      0x04\n      add\n      tag_230\n      swap3\n      swap2\n      swap1\n      tag_231\n      jump\t// in\n    tag_230:\n      0x20\n      mload(0x40)\n      dup1\n      dup4\n      sub\n      dup2\n      0x00\n      dup8\n      dup1\n      extcodesize\n      iszero\n      dup1\n      iszero\n      tag_232\n      jumpi\n      0x00\n      dup1\n      revert\n    tag_232:\n      pop\n      gas\n      call\n      iszero\n      dup1\n      iszero\n      tag_234\n      jumpi\n      returndatasize\n      0x00\n      dup1\n      returndatacopy\n      revert(0x00, returndatasize)\n    tag_234:\n      pop\n      pop\n      pop\n      pop\n      mload(0x40)\n      returndatasize\n      not(0x1f)\n      0x1f\n      dup3\n      add\n      and\n      dup3\n      add\n      dup1\n      0x40\n      mstore\n      pop\n      dup2\n      add\n      swap1\n      tag_235\n      swap2\n      swap1\n      tag_236\n      jump\t// in\n    tag_235:\n      pop\n        /* \"contracts/DDTMasterChef.sol\":33971:33984  NFTMasterChef */\n      0x0d\n      0x00\n      swap1\n      sload\n      swap1\n      0x0100\n      exp\n      swap1\n      div\n      0xffffffffffffffffffffffffffffffffffffffff\n      and\n        /* \"contracts/DDTMasterChef.sol\":33971:34004  NFTMasterChef.enterStakingCompund */\n      0xffffffffffffffffffffffffffffffffffffffff\n      and\n      0xcf35fddf\n        /* \"contracts/DDTMasterChef.sol\":34005:34012  pending */\n      dup3\n        /* \"contracts/DDTMasterChef.sol\":34014:34024  msg.sender */\n      caller\n        /* \"contracts/DDTMasterChef.sol\":33971:34025  NFTMasterChef.enterStakingCompund(pending, msg.sender) */\n      mload(0x40)\n      dup4\n      0xffffffff\n      and\n      0xe0\n      shl\n      dup2\n      mstore\n      0x04\n      add\n      tag_237\n      swap3\n      swap2\n      swap1\n      tag_238\n      jump\t// in\n    tag_237:\n      0x00\n      mload(0x40)\n      dup1\n      dup4\n      sub\n      dup2\n      0x00\n      dup8\n      dup1\n      extcodesize\n      iszero\n      dup1\n      iszero\n      tag_239\n      jumpi\n      0x00\n      dup1\n      revert\n    tag_239:\n      pop\n      gas\n      call\n      iszero\n      dup1\n      iszero\n      tag_241\n      jumpi\n      returndatasize\n      0x00\n      dup1\n      returndatacopy\n      revert(0x00, returndatasize)\n    tag_241:\n      pop\n      pop\n      pop\n      pop\n        /* \"contracts/DDTMasterChef.sol\":34054:34100  user.amount.mul(pool.accDDTPerShare).div(1e12) */\n      tag_242\n        /* \"contracts/DDTMasterChef.sol\":34095:34099  1e12 */\n      0xe8d4a51000\n        /* \"contracts/DDTMasterChef.sol\":34054:34090  user.amount.mul(pool.accDDTPerShare) */\n      tag_243\n        /* \"contracts/DDTMasterChef.sol\":34070:34074  pool */\n      dup6\n        /* \"contracts/DDTMasterChef.sol\":34070:34089  pool.accDDTPerShare */\n      0x03\n      add\n      sload\n        /* \"contracts/DDTMasterChef.sol\":34054:34058  user */\n      dup6\n        /* \"contracts/DDTMasterChef.sol\":34054:34065  user.amount */\n      0x00\n      add\n      sload\n        /* \"contracts/DDTMasterChef.sol\":34054:34069  user.amount.mul */\n      tag_174\n      swap1\n        /* \"contracts/DDTMasterChef.sol\":34054:34090  user.amount.mul(pool.accDDTPerShare) */\n      swap2\n      swap1\n      0xffffffff\n      and\n      jump\t// in\n    tag_243:\n        /* \"contracts/DDTMasterChef.sol\":34054:34094  user.amount.mul(pool.accDDTPerShare).div */\n      tag_175\n      swap1\n        /* \"contracts/DDTMasterChef.sol\":34054:34100  user.amount.mul(pool.accDDTPerShare).div(1e12) */\n      swap2\n      swap1\n      0xffffffff\n      and\n      jump\t// in\n    tag_242:\n        /* \"contracts/DDTMasterChef.sol\":34036:34040  user */\n      dup3\n        /* \"contracts/DDTMasterChef.sol\":34036:34051  user.rewardDebt */\n      0x01\n      add\n        /* \"contracts/DDTMasterChef.sol\":34036:34100  user.rewardDebt = user.amount.mul(pool.accDDTPerShare).div(1e12) */\n      dup2\n      swap1\n      sstore\n      pop\n        /* \"contracts/DDTMasterChef.sol\":34137:34141  _pid */\n      dup4\n        /* \"contracts/DDTMasterChef.sol\":34125:34135  msg.sender */\n      caller\n        /* \"contracts/DDTMasterChef.sol\":34116:34151  Withdraw(msg.sender, _pid, pending) */\n      0xffffffffffffffffffffffffffffffffffffffff\n      and\n      0xf279e6a1f5e320cca91135676d9cb6e44ca8a08c0b88342bcdb1144f6511b568\n        /* \"contracts/DDTMasterChef.sol\":34143:34150  pending */\n      dup4\n        /* \"contracts/DDTMasterChef.sol\":34116:34151  Withdraw(msg.sender, _pid, pending) */\n      mload(0x40)\n      tag_244\n      swap2\n      swap1\n      tag_50\n      jump\t// in\n    tag_244:\n      mload(0x40)\n      dup1\n      swap2\n      sub\n      swap1\n      log3\n        /* \"contracts/DDTMasterChef.sol\":33623:34159  {\r... */\n      pop\n      pop\n      pop\n        /* \"contracts/DDTMasterChef.sol\":33582:34159  function compundDDT(uint256 _pid) public {\r... */\n      pop\n      jump\t// out\n        /* \"contracts/DDTMasterChef.sol\":24703:24729  PoolInfo[] public poolInfo */\n    tag_57:\n      0x06\n      dup2\n      dup2\n      sload\n      dup2\n      lt\n      tag_245\n      jumpi\n      0x00\n      dup1\n      revert\n    tag_245:\n      swap1\n      0x00\n      mstore\n      keccak256(0x00, 0x20)\n      swap1\n      0x08\n      mul\n      add\n      0x00\n      swap2\n      pop\n      swap1\n      pop\n      dup1\n      0x00\n      add\n      0x00\n      swap1\n      sload\n      swap1\n      0x0100\n      exp\n      swap1\n      div\n      0xffffffffffffffffffffffffffffffffffffffff\n      and\n      swap1\n      dup1\n      0x01\n      add\n      sload\n      swap1\n      dup1\n      0x02\n      add\n      sload\n      swap1\n      dup1\n      0x03\n      add\n      sload\n      swap1\n      dup1\n      0x04\n      add\n      0x00\n      swap1\n      sload\n      swap1\n      0x0100\n      exp\n      swap1\n      div\n      0xffffffffffffffffffffffffffffffffffffffff\n      and\n      swap1\n      dup1\n      0x05\n      add\n      0x00\n      swap1\n      sload\n      swap1\n      0x0100\n      exp\n      swap1\n      div\n      0xffffffffffffffffffffffffffffffffffffffff\n      and\n      swap1\n      dup1\n      0x06\n      add\n      sload\n      swap1\n      dup1\n      0x07\n      add\n      sload\n      swap1\n      pop\n      dup9\n      jump\t// out\n        /* \"contracts/DDTMasterChef.sol\":24944:24978  uint256 public totalAllocPoint = 0 */\n    tag_61:\n      sload(0x08)\n      dup2\n      jump\t// out\n        /* \"contracts/DDTMasterChef.sol\":28748:29477  function pendingDDT(uint256 _pid, address _user) external view returns (uint256){\r... */\n    tag_66:\n        /* \"contracts/DDTMasterChef.sol\":28820:28827  uint256 */\n      0x00\n        /* \"contracts/DDTMasterChef.sol\":28839:28860  PoolInfo storage pool */\n      dup1\n        /* \"contracts/DDTMasterChef.sol\":28863:28871  poolInfo */\n      0x06\n        /* \"contracts/DDTMasterChef.sol\":28872:28876  _pid */\n      dup5\n        /* \"contracts/DDTMasterChef.sol\":28863:28877  poolInfo[_pid] */\n      dup2\n      sload\n      dup2\n      lt\n      tag_248\n      jumpi\n      tag_249\n      tag_167\n      jump\t// in\n    tag_249:\n    tag_248:\n      swap1\n      0x00\n      mstore\n      keccak256(0x00, 0x20)\n      swap1\n      0x08\n      mul\n      add\n        /* \"contracts/DDTMasterChef.sol\":28839:28877  PoolInfo storage pool = poolInfo[_pid] */\n      swap1\n      pop\n        /* \"contracts/DDTMasterChef.sol\":28888:28909  UserInfo storage user */\n      0x00\n        /* \"contracts/DDTMasterChef.sol\":28912:28920  userInfo */\n      0x07\n        /* \"contracts/DDTMasterChef.sol\":28912:28926  userInfo[_pid] */\n      0x00\n        /* \"contracts/DDTMasterChef.sol\":28921:28925  _pid */\n      dup7\n        /* \"contracts/DDTMasterChef.sol\":28912:28926  userInfo[_pid] */\n      dup2\n      mstore\n      0x20\n      add\n      swap1\n      dup2\n      mstore\n      0x20\n      add\n      0x00\n      keccak256\n        /* \"contracts/DDTMasterChef.sol\":28912:28933  userInfo[_pid][_user] */\n      0x00\n        /* \"contracts/DDTMasterChef.sol\":28927:28932  _user */\n      dup6\n        /* \"contracts/DDTMasterChef.sol\":28912:28933  userInfo[_pid][_user] */\n      0xffffffffffffffffffffffffffffffffffffffff\n      and\n      0xffffffffffffffffffffffffffffffffffffffff\n      and\n      dup2\n      mstore\n      0x20\n      add\n      swap1\n      dup2\n      mstore\n      0x20\n      add\n      0x00\n      keccak256\n        /* \"contracts/DDTMasterChef.sol\":28888:28933  UserInfo storage user = userInfo[_pid][_user] */\n      swap1\n      pop\n        /* \"contracts/DDTMasterChef.sol\":28944:28966  uint256 accDDTPerShare */\n      0x00\n        /* \"contracts/DDTMasterChef.sol\":28969:28973  pool */\n      dup3\n        /* \"contracts/DDTMasterChef.sol\":28969:28988  pool.accDDTPerShare */\n      0x03\n      add\n      sload\n        /* \"contracts/DDTMasterChef.sol\":28944:28988  uint256 accDDTPerShare = pool.accDDTPerShare */\n      swap1\n      pop\n        /* \"contracts/DDTMasterChef.sol\":28999:29015  uint256 lpSupply */\n      0x00\n        /* \"contracts/DDTMasterChef.sol\":29018:29029  poolBalance */\n      0x0a\n        /* \"contracts/DDTMasterChef.sol\":29018:29035  poolBalance[_pid] */\n      0x00\n        /* \"contracts/DDTMasterChef.sol\":29030:29034  _pid */\n      dup9\n        /* \"contracts/DDTMasterChef.sol\":29018:29035  poolBalance[_pid] */\n      dup2\n      mstore\n      0x20\n      add\n      swap1\n      dup2\n      mstore\n      0x20\n      add\n      0x00\n      keccak256\n      sload\n        /* \"contracts/DDTMasterChef.sol\":28999:29035  uint256 lpSupply = poolBalance[_pid] */\n      swap1\n      pop\n        /* \"contracts/DDTMasterChef.sol\":29065:29069  pool */\n      dup4\n        /* \"contracts/DDTMasterChef.sol\":29065:29085  pool.lastRewardBlock */\n      0x02\n      add\n      sload\n        /* \"contracts/DDTMasterChef.sol\":29050:29062  block.number */\n      number\n        /* \"contracts/DDTMasterChef.sol\":29050:29085  block.number > pool.lastRewardBlock */\n      gt\n        /* \"contracts/DDTMasterChef.sol\":29050:29102  block.number > pool.lastRewardBlock && lpSupply != 0 */\n      dup1\n      iszero\n      tag_251\n      jumpi\n      pop\n        /* \"contracts/DDTMasterChef.sol\":29101:29102  0 */\n      0x00\n        /* \"contracts/DDTMasterChef.sol\":29089:29097  lpSupply */\n      dup2\n        /* \"contracts/DDTMasterChef.sol\":29089:29102  lpSupply != 0 */\n      eq\n      iszero\n        /* \"contracts/DDTMasterChef.sol\":29050:29102  block.number > pool.lastRewardBlock && lpSupply != 0 */\n    tag_251:\n        /* \"contracts/DDTMasterChef.sol\":29046:29390  if (block.number > pool.lastRewardBlock && lpSupply != 0) {\r... */\n      iszero\n      tag_252\n      jumpi\n        /* \"contracts/DDTMasterChef.sol\":29119:29137  uint256 multiplier */\n      0x00\n        /* \"contracts/DDTMasterChef.sol\":29140:29189  getMultiplier(pool.lastRewardBlock, block.number) */\n      tag_253\n        /* \"contracts/DDTMasterChef.sol\":29154:29158  pool */\n      dup6\n        /* \"contracts/DDTMasterChef.sol\":29154:29174  pool.lastRewardBlock */\n      0x02\n      add\n      sload\n        /* \"contracts/DDTMasterChef.sol\":29176:29188  block.number */\n      number\n        /* \"contracts/DDTMasterChef.sol\":29140:29153  getMultiplier */\n      tag_120\n        /* \"contracts/DDTMasterChef.sol\":29140:29189  getMultiplier(pool.lastRewardBlock, block.number) */\n      jump\t// in\n    tag_253:\n        /* \"contracts/DDTMasterChef.sol\":29119:29189  uint256 multiplier = getMultiplier(pool.lastRewardBlock, block.number) */\n      swap1\n      pop\n        /* \"contracts/DDTMasterChef.sol\":29204:29221  uint256 DDTReward */\n      0x00\n        /* \"contracts/DDTMasterChef.sol\":29224:29293  multiplier.mul(DDTPerBlock).mul(pool.allocPoint).div(totalAllocPoint) */\n      tag_254\n        /* \"contracts/DDTMasterChef.sol\":29277:29292  totalAllocPoint */\n      sload(0x08)\n        /* \"contracts/DDTMasterChef.sol\":29224:29272  multiplier.mul(DDTPerBlock).mul(pool.allocPoint) */\n      tag_255\n        /* \"contracts/DDTMasterChef.sol\":29256:29260  pool */\n      dup9\n        /* \"contracts/DDTMasterChef.sol\":29256:29271  pool.allocPoint */\n      0x01\n      add\n      sload\n        /* \"contracts/DDTMasterChef.sol\":29224:29251  multiplier.mul(DDTPerBlock) */\n      tag_256\n        /* \"contracts/DDTMasterChef.sol\":29239:29250  DDTPerBlock */\n      sload(0x03)\n        /* \"contracts/DDTMasterChef.sol\":29224:29234  multiplier */\n      dup8\n        /* \"contracts/DDTMasterChef.sol\":29224:29238  multiplier.mul */\n      tag_174\n      swap1\n        /* \"contracts/DDTMasterChef.sol\":29224:29251  multiplier.mul(DDTPerBlock) */\n      swap2\n      swap1\n      0xffffffff\n      and\n      jump\t// in\n    tag_256:\n        /* \"contracts/DDTMasterChef.sol\":29224:29255  multiplier.mul(DDTPerBlock).mul */\n      tag_174\n      swap1\n        /* \"contracts/DDTMasterChef.sol\":29224:29272  multiplier.mul(DDTPerBlock).mul(pool.allocPoint) */\n      swap2\n      swap1\n      0xffffffff\n      and\n      jump\t// in\n    tag_255:\n        /* \"contracts/DDTMasterChef.sol\":29224:29276  multiplier.mul(DDTPerBlock).mul(pool.allocPoint).div */\n      tag_175\n      swap1\n        /* \"contracts/DDTMasterChef.sol\":29224:29293  multiplier.mul(DDTPerBlock).mul(pool.allocPoint).div(totalAllocPoint) */\n      swap2\n      swap1\n      0xffffffff\n      and\n      jump\t// in\n    tag_254:\n        /* \"contracts/DDTMasterChef.sol\":29204:29293  uint256 DDTReward = multiplier.mul(DDTPerBlock).mul(pool.allocPoint).div(totalAllocPoint) */\n      swap1\n      pop\n        /* \"contracts/DDTMasterChef.sol\":29325:29378  accDDTPerShare.add(DDTReward.mul(1e12).div(lpSupply)) */\n      tag_257\n        /* \"contracts/DDTMasterChef.sol\":29344:29377  DDTReward.mul(1e12).div(lpSupply) */\n      tag_258\n        /* \"contracts/DDTMasterChef.sol\":29368:29376  lpSupply */\n      dup5\n        /* \"contracts/DDTMasterChef.sol\":29344:29363  DDTReward.mul(1e12) */\n      tag_259\n        /* \"contracts/DDTMasterChef.sol\":29358:29362  1e12 */\n      0xe8d4a51000\n        /* \"contracts/DDTMasterChef.sol\":29344:29353  DDTReward */\n      dup6\n        /* \"contracts/DDTMasterChef.sol\":29344:29357  DDTReward.mul */\n      tag_174\n      swap1\n        /* \"contracts/DDTMasterChef.sol\":29344:29363  DDTReward.mul(1e12) */\n      swap2\n      swap1\n      0xffffffff\n      and\n      jump\t// in\n    tag_259:\n        /* \"contracts/DDTMasterChef.sol\":29344:29367  DDTReward.mul(1e12).div */\n      tag_175\n      swap1\n        /* \"contracts/DDTMasterChef.sol\":29344:29377  DDTReward.mul(1e12).div(lpSupply) */\n      swap2\n      swap1\n      0xffffffff\n      and\n      jump\t// in\n    tag_258:\n        /* \"contracts/DDTMasterChef.sol\":29325:29339  accDDTPerShare */\n      dup6\n        /* \"contracts/DDTMasterChef.sol\":29325:29343  accDDTPerShare.add */\n      tag_206\n      swap1\n        /* \"contracts/DDTMasterChef.sol\":29325:29378  accDDTPerShare.add(DDTReward.mul(1e12).div(lpSupply)) */\n      swap2\n      swap1\n      0xffffffff\n      and\n      jump\t// in\n    tag_257:\n        /* \"contracts/DDTMasterChef.sol\":29308:29378  accDDTPerShare = accDDTPerShare.add(DDTReward.mul(1e12).div(lpSupply)) */\n      swap4\n      pop\n        /* \"contracts/DDTMasterChef.sol\":29104:29390  {\r... */\n      pop\n      pop\n        /* \"contracts/DDTMasterChef.sol\":29046:29390  if (block.number > pool.lastRewardBlock && lpSupply != 0) {\r... */\n    tag_252:\n        /* \"contracts/DDTMasterChef.sol\":29407:29469  user.amount.mul(accDDTPerShare).div(1e12).sub(user.rewardDebt) */\n      tag_260\n        /* \"contracts/DDTMasterChef.sol\":29453:29457  user */\n      dup4\n        /* \"contracts/DDTMasterChef.sol\":29453:29468  user.rewardDebt */\n      0x01\n      add\n      sload\n        /* \"contracts/DDTMasterChef.sol\":29407:29448  user.amount.mul(accDDTPerShare).div(1e12) */\n      tag_261\n        /* \"contracts/DDTMasterChef.sol\":29443:29447  1e12 */\n      0xe8d4a51000\n        /* \"contracts/DDTMasterChef.sol\":29407:29438  user.amount.mul(accDDTPerShare) */\n      tag_262\n        /* \"contracts/DDTMasterChef.sol\":29423:29437  accDDTPerShare */\n      dup7\n        /* \"contracts/DDTMasterChef.sol\":29407:29411  user */\n      dup9\n        /* \"contracts/DDTMasterChef.sol\":29407:29418  user.amount */\n      0x00\n      add\n      sload\n        /* \"contracts/DDTMasterChef.sol\":29407:29422  user.amount.mul */\n      tag_174\n      swap1\n        /* \"contracts/DDTMasterChef.sol\":29407:29438  user.amount.mul(accDDTPerShare) */\n      swap2\n      swap1\n      0xffffffff\n      and\n      jump\t// in\n    tag_262:\n        /* \"contracts/DDTMasterChef.sol\":29407:29442  user.amount.mul(accDDTPerShare).div */\n      tag_175\n      swap1\n        /* \"contracts/DDTMasterChef.sol\":29407:29448  user.amount.mul(accDDTPerShare).div(1e12) */\n      swap2\n      swap1\n      0xffffffff\n      and\n      jump\t// in\n    tag_261:\n        /* \"contracts/DDTMasterChef.sol\":29407:29452  user.amount.mul(accDDTPerShare).div(1e12).sub */\n      tag_176\n      swap1\n        /* \"contracts/DDTMasterChef.sol\":29407:29469  user.amount.mul(accDDTPerShare).div(1e12).sub(user.rewardDebt) */\n      swap2\n      swap1\n      0xffffffff\n      and\n      jump\t// in\n    tag_260:\n        /* \"contracts/DDTMasterChef.sol\":29400:29469  return user.amount.mul(accDDTPerShare).div(1e12).sub(user.rewardDebt) */\n      swap5\n      pop\n      pop\n      pop\n      pop\n      pop\n        /* \"contracts/DDTMasterChef.sol\":28748:29477  function pendingDDT(uint256 _pid, address _user) external view returns (uint256){\r... */\n      swap3\n      swap2\n      pop\n      pop\n      jump\t// out\n        /* \"contracts/DDTMasterChef.sol\":27764:27866  function setMigrator(IMigratorChef _migrator) public onlyOwner {\r... */\n    tag_71:\n        /* \"contracts/DDTMasterChef.sol\":20336:20348  _msgSender() */\n      tag_264\n        /* \"contracts/DDTMasterChef.sol\":20336:20346  _msgSender */\n      tag_265\n        /* \"contracts/DDTMasterChef.sol\":20336:20348  _msgSender() */\n      jump\t// in\n    tag_264:\n        /* \"contracts/DDTMasterChef.sol\":20325:20348  owner() == _msgSender() */\n      0xffffffffffffffffffffffffffffffffffffffff\n      and\n        /* \"contracts/DDTMasterChef.sol\":20325:20332  owner() */\n      tag_266\n        /* \"contracts/DDTMasterChef.sol\":20325:20330  owner */\n      tag_114\n        /* \"contracts/DDTMasterChef.sol\":20325:20332  owner() */\n      jump\t// in\n    tag_266:\n        /* \"contracts/DDTMasterChef.sol\":20325:20348  owner() == _msgSender() */\n      0xffffffffffffffffffffffffffffffffffffffff\n      and\n      eq\n        /* \"contracts/DDTMasterChef.sol\":20317:20385  require(owner() == _msgSender(), \"Ownable: caller is not the owner\") */\n      tag_267\n      jumpi\n      mload(0x40)\n      0x08c379a000000000000000000000000000000000000000000000000000000000\n      dup2\n      mstore\n      0x04\n      add\n      tag_268\n      swap1\n      tag_269\n      jump\t// in\n    tag_268:\n      mload(0x40)\n      dup1\n      swap2\n      sub\n      swap1\n      revert\n    tag_267:\n        /* \"contracts/DDTMasterChef.sol\":27849:27858  _migrator */\n      dup1\n        /* \"contracts/DDTMasterChef.sol\":27838:27846  migrator */\n      0x05\n      0x00\n        /* \"contracts/DDTMasterChef.sol\":27838:27858  migrator = _migrator */\n      0x0100\n      exp\n      dup2\n      sload\n      dup2\n      0xffffffffffffffffffffffffffffffffffffffff\n      mul\n      not\n      and\n      swap1\n      dup4\n      0xffffffffffffffffffffffffffffffffffffffff\n      and\n      mul\n      or\n      swap1\n      sstore\n      pop\n        /* \"contracts/DDTMasterChef.sol\":27764:27866  function setMigrator(IMigratorChef _migrator) public onlyOwner {\r... */\n      pop\n      jump\t// out\n        /* \"contracts/DDTMasterChef.sol\":27989:28465  function migrate(uint256 _pid) public {\r... */\n    tag_74:\n        /* \"contracts/DDTMasterChef.sol\":28075:28076  0 */\n      0x00\n        /* \"contracts/DDTMasterChef.sol\":28046:28077  address(migrator) != address(0) */\n      0xffffffffffffffffffffffffffffffffffffffff\n      and\n        /* \"contracts/DDTMasterChef.sol\":28054:28062  migrator */\n      0x05\n      0x00\n      swap1\n      sload\n      swap1\n      0x0100\n      exp\n      swap1\n      div\n      0xffffffffffffffffffffffffffffffffffffffff\n      and\n        /* \"contracts/DDTMasterChef.sol\":28046:28077  address(migrator) != address(0) */\n      0xffffffffffffffffffffffffffffffffffffffff\n      and\n      eq\n      iszero\n        /* \"contracts/DDTMasterChef.sol\":28038:28102  require(address(migrator) != address(0), \"migrate: no migrator\") */\n      tag_272\n      jumpi\n      mload(0x40)\n      0x08c379a000000000000000000000000000000000000000000000000000000000\n      dup2\n      mstore\n      0x04\n      add\n      tag_273\n      swap1\n      tag_274\n      jump\t// in\n    tag_273:\n      mload(0x40)\n      dup1\n      swap2\n      sub\n      swap1\n      revert\n    tag_272:\n        /* \"contracts/DDTMasterChef.sol\":28113:28134  PoolInfo storage pool */\n      0x00\n        /* \"contracts/DDTMasterChef.sol\":28137:28145  poolInfo */\n      0x06\n        /* \"contracts/DDTMasterChef.sol\":28146:28150  _pid */\n      dup3\n        /* \"contracts/DDTMasterChef.sol\":28137:28151  poolInfo[_pid] */\n      dup2\n      sload\n      dup2\n      lt\n      tag_275\n      jumpi\n      tag_276\n      tag_167\n      jump\t// in\n    tag_276:\n    tag_275:\n      swap1\n      0x00\n      mstore\n      keccak256(0x00, 0x20)\n      swap1\n      0x08\n      mul\n      add\n        /* \"contracts/DDTMasterChef.sol\":28113:28151  PoolInfo storage pool = poolInfo[_pid] */\n      swap1\n      pop\n        /* \"contracts/DDTMasterChef.sol\":28162:28176  IERC20 lpToken */\n      0x00\n        /* \"contracts/DDTMasterChef.sol\":28179:28183  pool */\n      dup2\n        /* \"contracts/DDTMasterChef.sol\":28179:28191  pool.lpToken */\n      0x00\n      add\n      0x00\n      swap1\n      sload\n      swap1\n      0x0100\n      exp\n      swap1\n      div\n      0xffffffffffffffffffffffffffffffffffffffff\n      and\n        /* \"contracts/DDTMasterChef.sol\":28162:28191  IERC20 lpToken = pool.lpToken */\n      swap1\n      pop\n        /* \"contracts/DDTMasterChef.sol\":28202:28213  uint256 bal */\n      0x00\n        /* \"contracts/DDTMasterChef.sol\":28216:28227  poolBalance */\n      0x0a\n        /* \"contracts/DDTMasterChef.sol\":28216:28233  poolBalance[_pid] */\n      0x00\n        /* \"contracts/DDTMasterChef.sol\":28228:28232  _pid */\n      dup6\n        /* \"contracts/DDTMasterChef.sol\":28216:28233  poolBalance[_pid] */\n      dup2\n      mstore\n      0x20\n      add\n      swap1\n      dup2\n      mstore\n      0x20\n      add\n      0x00\n      keccak256\n      sload\n        /* \"contracts/DDTMasterChef.sol\":28202:28233  uint256 bal = poolBalance[_pid] */\n      swap1\n      pop\n        /* \"contracts/DDTMasterChef.sol\":28244:28287  lpToken.safeApprove(address(migrator), bal) */\n      tag_278\n        /* \"contracts/DDTMasterChef.sol\":28272:28280  migrator */\n      0x05\n      0x00\n      swap1\n      sload\n      swap1\n      0x0100\n      exp\n      swap1\n      div\n      0xffffffffffffffffffffffffffffffffffffffff\n      and\n        /* \"contracts/DDTMasterChef.sol\":28283:28286  bal */\n      dup3\n        /* \"contracts/DDTMasterChef.sol\":28244:28251  lpToken */\n      dup5\n        /* \"contracts/DDTMasterChef.sol\":28244:28263  lpToken.safeApprove */\n      0xffffffffffffffffffffffffffffffffffffffff\n      and\n      tag_279\n      swap1\n        /* \"contracts/DDTMasterChef.sol\":28244:28287  lpToken.safeApprove(address(migrator), bal) */\n      swap3\n      swap2\n      swap1\n      0xffffffff\n      and\n      jump\t// in\n    tag_278:\n        /* \"contracts/DDTMasterChef.sol\":28298:28315  IERC20 newLpToken */\n      0x00\n        /* \"contracts/DDTMasterChef.sol\":28318:28326  migrator */\n      0x05\n      0x00\n      swap1\n      sload\n      swap1\n      0x0100\n      exp\n      swap1\n      div\n      0xffffffffffffffffffffffffffffffffffffffff\n      and\n        /* \"contracts/DDTMasterChef.sol\":28318:28334  migrator.migrate */\n      0xffffffffffffffffffffffffffffffffffffffff\n      and\n      0xce5494bb\n        /* \"contracts/DDTMasterChef.sol\":28335:28342  lpToken */\n      dup5\n        /* \"contracts/DDTMasterChef.sol\":28318:28343  migrator.migrate(lpToken) */\n      mload(0x40)\n      dup3\n      0xffffffff\n      and\n      0xe0\n      shl\n      dup2\n      mstore\n      0x04\n      add\n      tag_280\n      swap2\n      swap1\n      tag_133\n      jump\t// in\n    tag_280:\n      0x20\n      mload(0x40)\n      dup1\n      dup4\n      sub\n      dup2\n      0x00\n      dup8\n      dup1\n      extcodesize\n      iszero\n      dup1\n      iszero\n      tag_281\n      jumpi\n      0x00\n      dup1\n      revert\n    tag_281:\n      pop\n      gas\n      call\n      iszero\n      dup1\n      iszero\n      tag_283\n      jumpi\n      returndatasize\n      0x00\n      dup1\n      returndatacopy\n      revert(0x00, returndatasize)\n    tag_283:\n      pop\n      pop\n      pop\n      pop\n      mload(0x40)\n      returndatasize\n      not(0x1f)\n      0x1f\n      dup3\n      add\n      and\n      dup3\n      add\n      dup1\n      0x40\n      mstore\n      pop\n      dup2\n      add\n      swap1\n      tag_284\n      swap2\n      swap1\n      tag_285\n      jump\t// in\n    tag_284:\n        /* \"contracts/DDTMasterChef.sol\":28298:28343  IERC20 newLpToken = migrator.migrate(lpToken) */\n      swap1\n      pop\n        /* \"contracts/DDTMasterChef.sol\":28369:28379  newLpToken */\n      dup1\n        /* \"contracts/DDTMasterChef.sol\":28369:28389  newLpToken.balanceOf */\n      0xffffffffffffffffffffffffffffffffffffffff\n      and\n      0x70a08231\n        /* \"contracts/DDTMasterChef.sol\":28398:28402  this */\n      address\n        /* \"contracts/DDTMasterChef.sol\":28369:28404  newLpToken.balanceOf(address(this)) */\n      mload(0x40)\n      dup3\n      0xffffffff\n      and\n      0xe0\n      shl\n      dup2\n      mstore\n      0x04\n      add\n      tag_286\n      swap2\n      swap1\n      tag_116\n      jump\t// in\n    tag_286:\n      0x20\n      mload(0x40)\n      dup1\n      dup4\n      sub\n      dup2\n      dup7\n      dup1\n      extcodesize\n      iszero\n      dup1\n      iszero\n      tag_287\n      jumpi\n      0x00\n      dup1\n      revert\n    tag_287:\n      pop\n      gas\n      staticcall\n      iszero\n      dup1\n      iszero\n      tag_289\n      jumpi\n      returndatasize\n      0x00\n      dup1\n      returndatacopy\n      revert(0x00, returndatasize)\n    tag_289:\n      pop\n      pop\n      pop\n      pop\n      mload(0x40)\n      returndatasize\n      not(0x1f)\n      0x1f\n      dup3\n      add\n      and\n      dup3\n      add\n      dup1\n      0x40\n      mstore\n      pop\n      dup2\n      add\n      swap1\n      tag_290\n      swap2\n      swap1\n      tag_186\n      jump\t// in\n    tag_290:\n        /* \"contracts/DDTMasterChef.sol\":28362:28365  bal */\n      dup3\n        /* \"contracts/DDTMasterChef.sol\":28362:28404  bal == newLpToken.balanceOf(address(this)) */\n      eq\n        /* \"contracts/DDTMasterChef.sol\":28354:28421  require(bal == newLpToken.balanceOf(address(this)), \"migrate: bad\") */\n      tag_291\n      jumpi\n      mload(0x40)\n      0x08c379a000000000000000000000000000000000000000000000000000000000\n      dup2\n      mstore\n      0x04\n      add\n      tag_292\n      swap1\n      tag_293\n      jump\t// in\n    tag_292:\n      mload(0x40)\n      dup1\n      swap2\n      sub\n      swap1\n      revert\n    tag_291:\n        /* \"contracts/DDTMasterChef.sol\":28447:28457  newLpToken */\n      dup1\n        /* \"contracts/DDTMasterChef.sol\":28432:28436  pool */\n      dup5\n        /* \"contracts/DDTMasterChef.sol\":28432:28444  pool.lpToken */\n      0x00\n      add\n      0x00\n        /* \"contracts/DDTMasterChef.sol\":28432:28457  pool.lpToken = newLpToken */\n      0x0100\n      exp\n      dup2\n      sload\n      dup2\n      0xffffffffffffffffffffffffffffffffffffffff\n      mul\n      not\n      and\n      swap1\n      dup4\n      0xffffffffffffffffffffffffffffffffffffffff\n      and\n      mul\n      or\n      swap1\n      sstore\n      pop\n        /* \"contracts/DDTMasterChef.sol\":28027:28465  {\r... */\n      pop\n      pop\n      pop\n      pop\n        /* \"contracts/DDTMasterChef.sol\":27989:28465  function migrate(uint256 _pid) public {\r... */\n      pop\n      jump\t// out\n        /* \"contracts/DDTMasterChef.sol\":25034:25059  uint256 public startBlock */\n    tag_76:\n      sload(0x09)\n      dup2\n      jump\t// out\n        /* \"contracts/DDTMasterChef.sol\":29816:30521  function updatePool(uint256 _pid) public {\r... */\n    tag_80:\n        /* \"contracts/DDTMasterChef.sol\":29868:29889  PoolInfo storage pool */\n      0x00\n        /* \"contracts/DDTMasterChef.sol\":29892:29900  poolInfo */\n      0x06\n        /* \"contracts/DDTMasterChef.sol\":29901:29905  _pid */\n      dup3\n        /* \"contracts/DDTMasterChef.sol\":29892:29906  poolInfo[_pid] */\n      dup2\n      sload\n      dup2\n      lt\n      tag_295\n      jumpi\n      tag_296\n      tag_167\n      jump\t// in\n    tag_296:\n    tag_295:\n      swap1\n      0x00\n      mstore\n      keccak256(0x00, 0x20)\n      swap1\n      0x08\n      mul\n      add\n        /* \"contracts/DDTMasterChef.sol\":29868:29906  PoolInfo storage pool = poolInfo[_pid] */\n      swap1\n      pop\n        /* \"contracts/DDTMasterChef.sol\":29937:29941  pool */\n      dup1\n        /* \"contracts/DDTMasterChef.sol\":29937:29957  pool.lastRewardBlock */\n      0x02\n      add\n      sload\n        /* \"contracts/DDTMasterChef.sol\":29921:29933  block.number */\n      number\n        /* \"contracts/DDTMasterChef.sol\":29921:29957  block.number <= pool.lastRewardBlock */\n      gt\n        /* \"contracts/DDTMasterChef.sol\":29917:29992  if (block.number <= pool.lastRewardBlock) {\r... */\n      tag_298\n      jumpi\n        /* \"contracts/DDTMasterChef.sol\":29974:29981  return; */\n      pop\n      jump(tag_294)\n        /* \"contracts/DDTMasterChef.sol\":29917:29992  if (block.number <= pool.lastRewardBlock) {\r... */\n    tag_298:\n        /* \"contracts/DDTMasterChef.sol\":30002:30018  uint256 lpSupply */\n      0x00\n        /* \"contracts/DDTMasterChef.sol\":30021:30032  poolBalance */\n      0x0a\n        /* \"contracts/DDTMasterChef.sol\":30021:30038  poolBalance[_pid] */\n      0x00\n        /* \"contracts/DDTMasterChef.sol\":30033:30037  _pid */\n      dup5\n        /* \"contracts/DDTMasterChef.sol\":30021:30038  poolBalance[_pid] */\n      dup2\n      mstore\n      0x20\n      add\n      swap1\n      dup2\n      mstore\n      0x20\n      add\n      0x00\n      keccak256\n      sload\n        /* \"contracts/DDTMasterChef.sol\":30002:30038  uint256 lpSupply = poolBalance[_pid] */\n      swap1\n      pop\n        /* \"contracts/DDTMasterChef.sol\":30065:30066  0 */\n      0x00\n        /* \"contracts/DDTMasterChef.sol\":30053:30061  lpSupply */\n      dup2\n        /* \"contracts/DDTMasterChef.sol\":30053:30066  lpSupply <= 0 */\n      gt\n        /* \"contracts/DDTMasterChef.sol\":30049:30151  if (lpSupply <= 0) {\r... */\n      tag_299\n      jumpi\n        /* \"contracts/DDTMasterChef.sol\":30106:30118  block.number */\n      number\n        /* \"contracts/DDTMasterChef.sol\":30083:30087  pool */\n      dup3\n        /* \"contracts/DDTMasterChef.sol\":30083:30103  pool.lastRewardBlock */\n      0x02\n      add\n        /* \"contracts/DDTMasterChef.sol\":30083:30118  pool.lastRewardBlock = block.number */\n      dup2\n      swap1\n      sstore\n      pop\n        /* \"contracts/DDTMasterChef.sol\":30133:30140  return; */\n      pop\n      pop\n      jump(tag_294)\n        /* \"contracts/DDTMasterChef.sol\":30049:30151  if (lpSupply <= 0) {\r... */\n    tag_299:\n        /* \"contracts/DDTMasterChef.sol\":30161:30179  uint256 multiplier */\n      0x00\n        /* \"contracts/DDTMasterChef.sol\":30182:30231  getMultiplier(pool.lastRewardBlock, block.number) */\n      tag_300\n        /* \"contracts/DDTMasterChef.sol\":30196:30200  pool */\n      dup4\n        /* \"contracts/DDTMasterChef.sol\":30196:30216  pool.lastRewardBlock */\n      0x02\n      add\n      sload\n        /* \"contracts/DDTMasterChef.sol\":30218:30230  block.number */\n      number\n        /* \"contracts/DDTMasterChef.sol\":30182:30195  getMultiplier */\n      tag_120\n        /* \"contracts/DDTMasterChef.sol\":30182:30231  getMultiplier(pool.lastRewardBlock, block.number) */\n      jump\t// in\n    tag_300:\n        /* \"contracts/DDTMasterChef.sol\":30161:30231  uint256 multiplier = getMultiplier(pool.lastRewardBlock, block.number) */\n      swap1\n      pop\n        /* \"contracts/DDTMasterChef.sol\":30242:30259  uint256 DDTReward */\n      0x00\n        /* \"contracts/DDTMasterChef.sol\":30262:30331  multiplier.mul(DDTPerBlock).mul(pool.allocPoint).div(totalAllocPoint) */\n      tag_301\n        /* \"contracts/DDTMasterChef.sol\":30315:30330  totalAllocPoint */\n      sload(0x08)\n        /* \"contracts/DDTMasterChef.sol\":30262:30310  multiplier.mul(DDTPerBlock).mul(pool.allocPoint) */\n      tag_302\n        /* \"contracts/DDTMasterChef.sol\":30294:30298  pool */\n      dup7\n        /* \"contracts/DDTMasterChef.sol\":30294:30309  pool.allocPoint */\n      0x01\n      add\n      sload\n        /* \"contracts/DDTMasterChef.sol\":30262:30289  multiplier.mul(DDTPerBlock) */\n      tag_303\n        /* \"contracts/DDTMasterChef.sol\":30277:30288  DDTPerBlock */\n      sload(0x03)\n        /* \"contracts/DDTMasterChef.sol\":30262:30272  multiplier */\n      dup8\n        /* \"contracts/DDTMasterChef.sol\":30262:30276  multiplier.mul */\n      tag_174\n      swap1\n        /* \"contracts/DDTMasterChef.sol\":30262:30289  multiplier.mul(DDTPerBlock) */\n      swap2\n      swap1\n      0xffffffff\n      and\n      jump\t// in\n    tag_303:\n        /* \"contracts/DDTMasterChef.sol\":30262:30293  multiplier.mul(DDTPerBlock).mul */\n      tag_174\n      swap1\n        /* \"contracts/DDTMasterChef.sol\":30262:30310  multiplier.mul(DDTPerBlock).mul(pool.allocPoint) */\n      swap2\n      swap1\n      0xffffffff\n      and\n      jump\t// in\n    tag_302:\n        /* \"contracts/DDTMasterChef.sol\":30262:30314  multiplier.mul(DDTPerBlock).mul(pool.allocPoint).div */\n      tag_175\n      swap1\n        /* \"contracts/DDTMasterChef.sol\":30262:30331  multiplier.mul(DDTPerBlock).mul(pool.allocPoint).div(totalAllocPoint) */\n      swap2\n      swap1\n      0xffffffff\n      and\n      jump\t// in\n    tag_301:\n        /* \"contracts/DDTMasterChef.sol\":30242:30331  uint256 DDTReward = multiplier.mul(DDTPerBlock).mul(pool.allocPoint).div(totalAllocPoint) */\n      swap1\n      pop\n        /* \"contracts/DDTMasterChef.sol\":30342:30345  DDT */\n      0x01\n      0x00\n      swap1\n      sload\n      swap1\n      0x0100\n      exp\n      swap1\n      div\n      0xffffffffffffffffffffffffffffffffffffffff\n      and\n        /* \"contracts/DDTMasterChef.sol\":30342:30350  DDT.mint */\n      0xffffffffffffffffffffffffffffffffffffffff\n      and\n      0x40c10f19\n        /* \"contracts/DDTMasterChef.sol\":30359:30363  this */\n      address\n        /* \"contracts/DDTMasterChef.sol\":30366:30375  DDTReward */\n      dup4\n        /* \"contracts/DDTMasterChef.sol\":30342:30376  DDT.mint(address(this), DDTReward) */\n      mload(0x40)\n      dup4\n      0xffffffff\n      and\n      0xe0\n      shl\n      dup2\n      mstore\n      0x04\n      add\n      tag_304\n      swap3\n      swap2\n      swap1\n      tag_231\n      jump\t// in\n    tag_304:\n      0x20\n      mload(0x40)\n      dup1\n      dup4\n      sub\n      dup2\n      0x00\n      dup8\n      dup1\n      extcodesize\n      iszero\n      dup1\n      iszero\n      tag_305\n      jumpi\n      0x00\n      dup1\n      revert\n    tag_305:\n      pop\n      gas\n      call\n      iszero\n      dup1\n      iszero\n      tag_307\n      jumpi\n      returndatasize\n      0x00\n      dup1\n      returndatacopy\n      revert(0x00, returndatasize)\n    tag_307:\n      pop\n      pop\n      pop\n      pop\n      mload(0x40)\n      returndatasize\n      not(0x1f)\n      0x1f\n      dup3\n      add\n      and\n      dup3\n      add\n      dup1\n      0x40\n      mstore\n      pop\n      dup2\n      add\n      swap1\n      tag_308\n      swap2\n      swap1\n      tag_236\n      jump\t// in\n    tag_308:\n      pop\n        /* \"contracts/DDTMasterChef.sol\":30409:30467  pool.accDDTPerShare.add(DDTReward.mul(1e12).div(lpSupply)) */\n      tag_309\n        /* \"contracts/DDTMasterChef.sol\":30433:30466  DDTReward.mul(1e12).div(lpSupply) */\n      tag_310\n        /* \"contracts/DDTMasterChef.sol\":30457:30465  lpSupply */\n      dup5\n        /* \"contracts/DDTMasterChef.sol\":30433:30452  DDTReward.mul(1e12) */\n      tag_311\n        /* \"contracts/DDTMasterChef.sol\":30447:30451  1e12 */\n      0xe8d4a51000\n        /* \"contracts/DDTMasterChef.sol\":30433:30442  DDTReward */\n      dup6\n        /* \"contracts/DDTMasterChef.sol\":30433:30446  DDTReward.mul */\n      tag_174\n      swap1\n        /* \"contracts/DDTMasterChef.sol\":30433:30452  DDTReward.mul(1e12) */\n      swap2\n      swap1\n      0xffffffff\n      and\n      jump\t// in\n    tag_311:\n        /* \"contracts/DDTMasterChef.sol\":30433:30456  DDTReward.mul(1e12).div */\n      tag_175\n      swap1\n        /* \"contracts/DDTMasterChef.sol\":30433:30466  DDTReward.mul(1e12).div(lpSupply) */\n      swap2\n      swap1\n      0xffffffff\n      and\n      jump\t// in\n    tag_310:\n        /* \"contracts/DDTMasterChef.sol\":30409:30413  pool */\n      dup6\n        /* \"contracts/DDTMasterChef.sol\":30409:30428  pool.accDDTPerShare */\n      0x03\n      add\n      sload\n        /* \"contracts/DDTMasterChef.sol\":30409:30432  pool.accDDTPerShare.add */\n      tag_206\n      swap1\n        /* \"contracts/DDTMasterChef.sol\":30409:30467  pool.accDDTPerShare.add(DDTReward.mul(1e12).div(lpSupply)) */\n      swap2\n      swap1\n      0xffffffff\n      and\n      jump\t// in\n    tag_309:\n        /* \"contracts/DDTMasterChef.sol\":30387:30391  pool */\n      dup5\n        /* \"contracts/DDTMasterChef.sol\":30387:30406  pool.accDDTPerShare */\n      0x03\n      add\n        /* \"contracts/DDTMasterChef.sol\":30387:30467  pool.accDDTPerShare = pool.accDDTPerShare.add(DDTReward.mul(1e12).div(lpSupply)) */\n      dup2\n      swap1\n      sstore\n      pop\n        /* \"contracts/DDTMasterChef.sol\":30501:30513  block.number */\n      number\n        /* \"contracts/DDTMasterChef.sol\":30478:30482  pool */\n      dup5\n        /* \"contracts/DDTMasterChef.sol\":30478:30498  pool.lastRewardBlock */\n      0x02\n      add\n        /* \"contracts/DDTMasterChef.sol\":30478:30513  pool.lastRewardBlock = block.number */\n      dup2\n      swap1\n      sstore\n      pop\n        /* \"contracts/DDTMasterChef.sol\":29857:30521  {\r... */\n      pop\n      pop\n      pop\n      pop\n        /* \"contracts/DDTMasterChef.sol\":29816:30521  function updatePool(uint256 _pid) public {\r... */\n    tag_294:\n      pop\n      jump\t// out\n        /* \"contracts/DDTMasterChef.sol\":34420:34776  function emergencyWithdraw(uint256 _pid) public {\r... */\n    tag_83:\n        /* \"contracts/DDTMasterChef.sol\":34479:34500  PoolInfo storage pool */\n      0x00\n        /* \"contracts/DDTMasterChef.sol\":34503:34511  poolInfo */\n      0x06\n        /* \"contracts/DDTMasterChef.sol\":34512:34516  _pid */\n      dup3\n        /* \"contracts/DDTMasterChef.sol\":34503:34517  poolInfo[_pid] */\n      dup2\n      sload\n      dup2\n      lt\n      tag_313\n      jumpi\n      tag_314\n      tag_167\n      jump\t// in\n    tag_314:\n    tag_313:\n      swap1\n      0x00\n      mstore\n      keccak256(0x00, 0x20)\n      swap1\n      0x08\n      mul\n      add\n        /* \"contracts/DDTMasterChef.sol\":34479:34517  PoolInfo storage pool = poolInfo[_pid] */\n      swap1\n      pop\n        /* \"contracts/DDTMasterChef.sol\":34528:34549  UserInfo storage user */\n      0x00\n        /* \"contracts/DDTMasterChef.sol\":34552:34560  userInfo */\n      0x07\n        /* \"contracts/DDTMasterChef.sol\":34552:34566  userInfo[_pid] */\n      0x00\n        /* \"contracts/DDTMasterChef.sol\":34561:34565  _pid */\n      dup5\n        /* \"contracts/DDTMasterChef.sol\":34552:34566  userInfo[_pid] */\n      dup2\n      mstore\n      0x20\n      add\n      swap1\n      dup2\n      mstore\n      0x20\n      add\n      0x00\n      keccak256\n        /* \"contracts/DDTMasterChef.sol\":34552:34578  userInfo[_pid][msg.sender] */\n      0x00\n        /* \"contracts/DDTMasterChef.sol\":34567:34577  msg.sender */\n      caller\n        /* \"contracts/DDTMasterChef.sol\":34552:34578  userInfo[_pid][msg.sender] */\n      0xffffffffffffffffffffffffffffffffffffffff\n      and\n      0xffffffffffffffffffffffffffffffffffffffff\n      and\n      dup2\n      mstore\n      0x20\n      add\n      swap1\n      dup2\n      mstore\n      0x20\n      add\n      0x00\n      keccak256\n        /* \"contracts/DDTMasterChef.sol\":34528:34578  UserInfo storage user = userInfo[_pid][msg.sender] */\n      swap1\n      pop\n        /* \"contracts/DDTMasterChef.sol\":34589:34648  pool.lpToken.safeTransfer(address(msg.sender), user.amount) */\n      tag_316\n        /* \"contracts/DDTMasterChef.sol\":34623:34633  msg.sender */\n      caller\n        /* \"contracts/DDTMasterChef.sol\":34636:34640  user */\n      dup3\n        /* \"contracts/DDTMasterChef.sol\":34636:34647  user.amount */\n      0x00\n      add\n      sload\n        /* \"contracts/DDTMasterChef.sol\":34589:34593  pool */\n      dup5\n        /* \"contracts/DDTMasterChef.sol\":34589:34601  pool.lpToken */\n      0x00\n      add\n      0x00\n      swap1\n      sload\n      swap1\n      0x0100\n      exp\n      swap1\n      div\n      0xffffffffffffffffffffffffffffffffffffffff\n      and\n        /* \"contracts/DDTMasterChef.sol\":34589:34614  pool.lpToken.safeTransfer */\n      0xffffffffffffffffffffffffffffffffffffffff\n      and\n      tag_217\n      swap1\n        /* \"contracts/DDTMasterChef.sol\":34589:34648  pool.lpToken.safeTransfer(address(msg.sender), user.amount) */\n      swap3\n      swap2\n      swap1\n      0xffffffff\n      and\n      jump\t// in\n    tag_316:\n        /* \"contracts/DDTMasterChef.sol\":34694:34698  _pid */\n      dup3\n        /* \"contracts/DDTMasterChef.sol\":34682:34692  msg.sender */\n      caller\n        /* \"contracts/DDTMasterChef.sol\":34664:34712  EmergencyWithdraw(msg.sender, _pid, user.amount) */\n      0xffffffffffffffffffffffffffffffffffffffff\n      and\n      0xbb757047c2b5f3974fe26b7c10f732e7bce710b0952a71082702781e62ae0595\n        /* \"contracts/DDTMasterChef.sol\":34700:34704  user */\n      dup4\n        /* \"contracts/DDTMasterChef.sol\":34700:34711  user.amount */\n      0x00\n      add\n      sload\n        /* \"contracts/DDTMasterChef.sol\":34664:34712  EmergencyWithdraw(msg.sender, _pid, user.amount) */\n      mload(0x40)\n      tag_317\n      swap2\n      swap1\n      tag_50\n      jump\t// in\n    tag_317:\n      mload(0x40)\n      dup1\n      swap2\n      sub\n      swap1\n      log3\n        /* \"contracts/DDTMasterChef.sol\":34737:34738  0 */\n      0x00\n        /* \"contracts/DDTMasterChef.sol\":34723:34727  user */\n      dup2\n        /* \"contracts/DDTMasterChef.sol\":34723:34734  user.amount */\n      0x00\n      add\n        /* \"contracts/DDTMasterChef.sol\":34723:34738  user.amount = 0 */\n      dup2\n      swap1\n      sstore\n      pop\n        /* \"contracts/DDTMasterChef.sol\":34767:34768  0 */\n      0x00\n        /* \"contracts/DDTMasterChef.sol\":34749:34753  user */\n      dup2\n        /* \"contracts/DDTMasterChef.sol\":34749:34764  user.rewardDebt */\n      0x01\n      add\n        /* \"contracts/DDTMasterChef.sol\":34749:34768  user.rewardDebt = 0 */\n      dup2\n      swap1\n      sstore\n      pop\n        /* \"contracts/DDTMasterChef.sol\":34468:34776  {\r... */\n      pop\n      pop\n        /* \"contracts/DDTMasterChef.sol\":34420:34776  function emergencyWithdraw(uint256 _pid) public {\r... */\n      pop\n      jump\t// out\n        /* \"contracts/DDTMasterChef.sol\":25912:26035  function updateMultiplier(uint256 multiplierNumber) public onlyOwner {\r... */\n    tag_86:\n        /* \"contracts/DDTMasterChef.sol\":20336:20348  _msgSender() */\n      tag_319\n        /* \"contracts/DDTMasterChef.sol\":20336:20346  _msgSender */\n      tag_265\n        /* \"contracts/DDTMasterChef.sol\":20336:20348  _msgSender() */\n      jump\t// in\n    tag_319:\n        /* \"contracts/DDTMasterChef.sol\":20325:20348  owner() == _msgSender() */\n      0xffffffffffffffffffffffffffffffffffffffff\n      and\n        /* \"contracts/DDTMasterChef.sol\":20325:20332  owner() */\n      tag_320\n        /* \"contracts/DDTMasterChef.sol\":20325:20330  owner */\n      tag_114\n        /* \"contracts/DDTMasterChef.sol\":20325:20332  owner() */\n      jump\t// in\n    tag_320:\n        /* \"contracts/DDTMasterChef.sol\":20325:20348  owner() == _msgSender() */\n      0xffffffffffffffffffffffffffffffffffffffff\n      and\n      eq\n        /* \"contracts/DDTMasterChef.sol\":20317:20385  require(owner() == _msgSender(), \"Ownable: caller is not the owner\") */\n      tag_321\n      jumpi\n      mload(0x40)\n      0x08c379a000000000000000000000000000000000000000000000000000000000\n      dup2\n      mstore\n      0x04\n      add\n      tag_322\n      swap1\n      tag_269\n      jump\t// in\n    tag_322:\n      mload(0x40)\n      dup1\n      swap2\n      sub\n      swap1\n      revert\n    tag_321:\n        /* \"contracts/DDTMasterChef.sol\":26011:26027  multiplierNumber */\n      dup1\n        /* \"contracts/DDTMasterChef.sol\":25992:26008  BONUS_MULTIPLIER */\n      0x04\n        /* \"contracts/DDTMasterChef.sol\":25992:26027  BONUS_MULTIPLIER = multiplierNumber */\n      dup2\n      swap1\n      sstore\n      pop\n        /* \"contracts/DDTMasterChef.sol\":25912:26035  function updateMultiplier(uint256 multiplierNumber) public onlyOwner {\r... */\n      pop\n      jump\t// out\n        /* \"contracts/DDTMasterChef.sol\":35274:35379  function updateDDTPerBlock(uint256 newAmount) public onlyOwner {\r... */\n    tag_89:\n        /* \"contracts/DDTMasterChef.sol\":20336:20348  _msgSender() */\n      tag_325\n        /* \"contracts/DDTMasterChef.sol\":20336:20346  _msgSender */\n      tag_265\n        /* \"contracts/DDTMasterChef.sol\":20336:20348  _msgSender() */\n      jump\t// in\n    tag_325:\n        /* \"contracts/DDTMasterChef.sol\":20325:20348  owner() == _msgSender() */\n      0xffffffffffffffffffffffffffffffffffffffff\n      and\n        /* \"contracts/DDTMasterChef.sol\":20325:20332  owner() */\n      tag_326\n        /* \"contracts/DDTMasterChef.sol\":20325:20330  owner */\n      tag_114\n        /* \"contracts/DDTMasterChef.sol\":20325:20332  owner() */\n      jump\t// in\n    tag_326:\n        /* \"contracts/DDTMasterChef.sol\":20325:20348  owner() == _msgSender() */\n      0xffffffffffffffffffffffffffffffffffffffff\n      and\n      eq\n        /* \"contracts/DDTMasterChef.sol\":20317:20385  require(owner() == _msgSender(), \"Ownable: caller is not the owner\") */\n      tag_327\n      jumpi\n      mload(0x40)\n      0x08c379a000000000000000000000000000000000000000000000000000000000\n      dup2\n      mstore\n      0x04\n      add\n      tag_328\n      swap1\n      tag_269\n      jump\t// in\n    tag_328:\n      mload(0x40)\n      dup1\n      swap2\n      sub\n      swap1\n      revert\n    tag_327:\n        /* \"contracts/DDTMasterChef.sol\":35362:35371  newAmount */\n      dup1\n        /* \"contracts/DDTMasterChef.sol\":35348:35359  DDTPerBlock */\n      0x03\n        /* \"contracts/DDTMasterChef.sol\":35348:35371  DDTPerBlock = newAmount */\n      dup2\n      swap1\n      sstore\n      pop\n        /* \"contracts/DDTMasterChef.sol\":35274:35379  function updateDDTPerBlock(uint256 newAmount) public onlyOwner {\r... */\n      pop\n      jump\t// out\n        /* \"contracts/DDTMasterChef.sol\":29560:29740  function massUpdatePools() public {\r... */\n    tag_91:\n        /* \"contracts/DDTMasterChef.sol\":29605:29619  uint256 length */\n      0x00\n        /* \"contracts/DDTMasterChef.sol\":29622:29630  poolInfo */\n      0x06\n        /* \"contracts/DDTMasterChef.sol\":29622:29637  poolInfo.length */\n      dup1\n      sload\n      swap1\n      pop\n        /* \"contracts/DDTMasterChef.sol\":29605:29637  uint256 length = poolInfo.length */\n      swap1\n      pop\n        /* \"contracts/DDTMasterChef.sol\":29653:29664  uint256 pid */\n      0x00\n        /* \"contracts/DDTMasterChef.sol\":29648:29733  for (uint256 pid = 0; pid < length; ++pid) {\r... */\n    tag_331:\n        /* \"contracts/DDTMasterChef.sol\":29676:29682  length */\n      dup2\n        /* \"contracts/DDTMasterChef.sol\":29670:29673  pid */\n      dup2\n        /* \"contracts/DDTMasterChef.sol\":29670:29682  pid < length */\n      lt\n        /* \"contracts/DDTMasterChef.sol\":29648:29733  for (uint256 pid = 0; pid < length; ++pid) {\r... */\n      iszero\n      tag_332\n      jumpi\n        /* \"contracts/DDTMasterChef.sol\":29706:29721  updatePool(pid) */\n      tag_334\n        /* \"contracts/DDTMasterChef.sol\":29717:29720  pid */\n      dup2\n        /* \"contracts/DDTMasterChef.sol\":29706:29716  updatePool */\n      tag_80\n        /* \"contracts/DDTMasterChef.sol\":29706:29721  updatePool(pid) */\n      jump\t// in\n    tag_334:\n        /* \"contracts/DDTMasterChef.sol\":29684:29689  ++pid */\n      dup1\n      tag_335\n      swap1\n      tag_336\n      jump\t// in\n    tag_335:\n      swap1\n      pop\n        /* \"contracts/DDTMasterChef.sol\":29648:29733  for (uint256 pid = 0; pid < length; ++pid) {\r... */\n      jump(tag_331)\n    tag_332:\n      pop\n        /* \"contracts/DDTMasterChef.sol\":29594:29740  {\r... */\n      pop\n        /* \"contracts/DDTMasterChef.sol\":29560:29740  function massUpdatePools() public {\r... */\n      jump\t// out\n        /* \"contracts/DDTMasterChef.sol\":27383:27688  function set( uint256 _pid, uint256 _allocPoint, bool _withUpdate) public onlyOwner {\r... */\n    tag_95:\n        /* \"contracts/DDTMasterChef.sol\":20336:20348  _msgSender() */\n      tag_338\n        /* \"contracts/DDTMasterChef.sol\":20336:20346  _msgSender */\n      tag_265\n        /* \"contracts/DDTMasterChef.sol\":20336:20348  _msgSender() */\n      jump\t// in\n    tag_338:\n        /* \"contracts/DDTMasterChef.sol\":20325:20348  owner() == _msgSender() */\n      0xffffffffffffffffffffffffffffffffffffffff\n      and\n        /* \"contracts/DDTMasterChef.sol\":20325:20332  owner() */\n      tag_339\n        /* \"contracts/DDTMasterChef.sol\":20325:20330  owner */\n      tag_114\n        /* \"contracts/DDTMasterChef.sol\":20325:20332  owner() */\n      jump\t// in\n    tag_339:\n        /* \"contracts/DDTMasterChef.sol\":20325:20348  owner() == _msgSender() */\n      0xffffffffffffffffffffffffffffffffffffffff\n      and\n      eq\n        /* \"contracts/DDTMasterChef.sol\":20317:20385  require(owner() == _msgSender(), \"Ownable: caller is not the owner\") */\n      tag_340\n      jumpi\n      mload(0x40)\n      0x08c379a000000000000000000000000000000000000000000000000000000000\n      dup2\n      mstore\n      0x04\n      add\n      tag_341\n      swap1\n      tag_269\n      jump\t// in\n    tag_341:\n      mload(0x40)\n      dup1\n      swap2\n      sub\n      swap1\n      revert\n    tag_340:\n        /* \"contracts/DDTMasterChef.sol\":27482:27493  _withUpdate */\n      dup1\n        /* \"contracts/DDTMasterChef.sol\":27478:27539  if (_withUpdate) {\r... */\n      iszero\n      tag_343\n      jumpi\n        /* \"contracts/DDTMasterChef.sol\":27510:27527  massUpdatePools() */\n      tag_344\n        /* \"contracts/DDTMasterChef.sol\":27510:27525  massUpdatePools */\n      tag_91\n        /* \"contracts/DDTMasterChef.sol\":27510:27527  massUpdatePools() */\n      jump\t// in\n    tag_344:\n        /* \"contracts/DDTMasterChef.sol\":27478:27539  if (_withUpdate) {\r... */\n    tag_343:\n        /* \"contracts/DDTMasterChef.sol\":27567:27630  totalAllocPoint.sub(poolInfo[_pid].allocPoint).add(_allocPoint) */\n      tag_345\n        /* \"contracts/DDTMasterChef.sol\":27618:27629  _allocPoint */\n      dup3\n        /* \"contracts/DDTMasterChef.sol\":27567:27613  totalAllocPoint.sub(poolInfo[_pid].allocPoint) */\n      tag_346\n        /* \"contracts/DDTMasterChef.sol\":27587:27595  poolInfo */\n      0x06\n        /* \"contracts/DDTMasterChef.sol\":27596:27600  _pid */\n      dup7\n        /* \"contracts/DDTMasterChef.sol\":27587:27601  poolInfo[_pid] */\n      dup2\n      sload\n      dup2\n      lt\n      tag_347\n      jumpi\n      tag_348\n      tag_167\n      jump\t// in\n    tag_348:\n    tag_347:\n      swap1\n      0x00\n      mstore\n      keccak256(0x00, 0x20)\n      swap1\n      0x08\n      mul\n      add\n        /* \"contracts/DDTMasterChef.sol\":27587:27612  poolInfo[_pid].allocPoint */\n      0x01\n      add\n      sload\n        /* \"contracts/DDTMasterChef.sol\":27567:27582  totalAllocPoint */\n      sload(0x08)\n        /* \"contracts/DDTMasterChef.sol\":27567:27586  totalAllocPoint.sub */\n      tag_176\n      swap1\n        /* \"contracts/DDTMasterChef.sol\":27567:27613  totalAllocPoint.sub(poolInfo[_pid].allocPoint) */\n      swap2\n      swap1\n      0xffffffff\n      and\n      jump\t// in\n    tag_346:\n        /* \"contracts/DDTMasterChef.sol\":27567:27617  totalAllocPoint.sub(poolInfo[_pid].allocPoint).add */\n      tag_206\n      swap1\n        /* \"contracts/DDTMasterChef.sol\":27567:27630  totalAllocPoint.sub(poolInfo[_pid].allocPoint).add(_allocPoint) */\n      swap2\n      swap1\n      0xffffffff\n      and\n      jump\t// in\n    tag_345:\n        /* \"contracts/DDTMasterChef.sol\":27549:27564  totalAllocPoint */\n      0x08\n        /* \"contracts/DDTMasterChef.sol\":27549:27630  totalAllocPoint = totalAllocPoint.sub(poolInfo[_pid].allocPoint).add(_allocPoint) */\n      dup2\n      swap1\n      sstore\n      pop\n        /* \"contracts/DDTMasterChef.sol\":27669:27680  _allocPoint */\n      dup2\n        /* \"contracts/DDTMasterChef.sol\":27641:27649  poolInfo */\n      0x06\n        /* \"contracts/DDTMasterChef.sol\":27650:27654  _pid */\n      dup5\n        /* \"contracts/DDTMasterChef.sol\":27641:27655  poolInfo[_pid] */\n      dup2\n      sload\n      dup2\n      lt\n      tag_350\n      jumpi\n      tag_351\n      tag_167\n      jump\t// in\n    tag_351:\n    tag_350:\n      swap1\n      0x00\n      mstore\n      keccak256(0x00, 0x20)\n      swap1\n      0x08\n      mul\n      add\n        /* \"contracts/DDTMasterChef.sol\":27641:27666  poolInfo[_pid].allocPoint */\n      0x01\n      add\n        /* \"contracts/DDTMasterChef.sol\":27641:27680  poolInfo[_pid].allocPoint = _allocPoint */\n      dup2\n      swap1\n      sstore\n      pop\n        /* \"contracts/DDTMasterChef.sol\":27383:27688  function set( uint256 _pid, uint256 _allocPoint, bool _withUpdate) public onlyOwner {\r... */\n      pop\n      pop\n      pop\n      jump\t// out\n        /* \"contracts/DDTMasterChef.sol\":26494:27288  function add( uint256 _allocPoint, IERC20 _lpToken, bool _withUpdate, IMasterChef _poolMasterChef, IERC20 _rewardToken, uint256 _fee, uint256 _method) public onlyOwner {\r... */\n    tag_99:\n        /* \"contracts/DDTMasterChef.sol\":20336:20348  _msgSender() */\n      tag_354\n        /* \"contracts/DDTMasterChef.sol\":20336:20346  _msgSender */\n      tag_265\n        /* \"contracts/DDTMasterChef.sol\":20336:20348  _msgSender() */\n      jump\t// in\n    tag_354:\n        /* \"contracts/DDTMasterChef.sol\":20325:20348  owner() == _msgSender() */\n      0xffffffffffffffffffffffffffffffffffffffff\n      and\n        /* \"contracts/DDTMasterChef.sol\":20325:20332  owner() */\n      tag_355\n        /* \"contracts/DDTMasterChef.sol\":20325:20330  owner */\n      tag_114\n        /* \"contracts/DDTMasterChef.sol\":20325:20332  owner() */\n      jump\t// in\n    tag_355:\n        /* \"contracts/DDTMasterChef.sol\":20325:20348  owner() == _msgSender() */\n      0xffffffffffffffffffffffffffffffffffffffff\n      and\n      eq\n        /* \"contracts/DDTMasterChef.sol\":20317:20385  require(owner() == _msgSender(), \"Ownable: caller is not the owner\") */\n      tag_356\n      jumpi\n      mload(0x40)\n      0x08c379a000000000000000000000000000000000000000000000000000000000\n      dup2\n      mstore\n      0x04\n      add\n      tag_357\n      swap1\n      tag_269\n      jump\t// in\n    tag_357:\n      mload(0x40)\n      dup1\n      swap2\n      sub\n      swap1\n      revert\n    tag_356:\n        /* \"contracts/DDTMasterChef.sol\":26677:26688  _withUpdate */\n      dup5\n        /* \"contracts/DDTMasterChef.sol\":26673:26734  if (_withUpdate) {\r... */\n      iszero\n      tag_359\n      jumpi\n        /* \"contracts/DDTMasterChef.sol\":26705:26722  massUpdatePools() */\n      tag_360\n        /* \"contracts/DDTMasterChef.sol\":26705:26720  massUpdatePools */\n      tag_91\n        /* \"contracts/DDTMasterChef.sol\":26705:26722  massUpdatePools() */\n      jump\t// in\n    tag_360:\n        /* \"contracts/DDTMasterChef.sol\":26673:26734  if (_withUpdate) {\r... */\n    tag_359:\n        /* \"contracts/DDTMasterChef.sol\":26744:26767  uint256 lastRewardBlock */\n      0x00\n        /* \"contracts/DDTMasterChef.sol\":26785:26795  startBlock */\n      sload(0x09)\n        /* \"contracts/DDTMasterChef.sol\":26770:26782  block.number */\n      number\n        /* \"contracts/DDTMasterChef.sol\":26770:26795  block.number > startBlock */\n      gt\n        /* \"contracts/DDTMasterChef.sol\":26770:26823  block.number > startBlock ? block.number : startBlock */\n      tag_361\n      jumpi\n        /* \"contracts/DDTMasterChef.sol\":26813:26823  startBlock */\n      sload(0x09)\n        /* \"contracts/DDTMasterChef.sol\":26770:26823  block.number > startBlock ? block.number : startBlock */\n      jump(tag_362)\n    tag_361:\n        /* \"contracts/DDTMasterChef.sol\":26798:26810  block.number */\n      number\n        /* \"contracts/DDTMasterChef.sol\":26770:26823  block.number > startBlock ? block.number : startBlock */\n    tag_362:\n        /* \"contracts/DDTMasterChef.sol\":26744:26823  uint256 lastRewardBlock = block.number > startBlock ? block.number : startBlock */\n      swap1\n      pop\n        /* \"contracts/DDTMasterChef.sol\":26852:26884  totalAllocPoint.add(_allocPoint) */\n      tag_363\n        /* \"contracts/DDTMasterChef.sol\":26872:26883  _allocPoint */\n      dup9\n        /* \"contracts/DDTMasterChef.sol\":26852:26867  totalAllocPoint */\n      sload(0x08)\n        /* \"contracts/DDTMasterChef.sol\":26852:26871  totalAllocPoint.add */\n      tag_206\n      swap1\n        /* \"contracts/DDTMasterChef.sol\":26852:26884  totalAllocPoint.add(_allocPoint) */\n      swap2\n      swap1\n      0xffffffff\n      and\n      jump\t// in\n    tag_363:\n        /* \"contracts/DDTMasterChef.sol\":26834:26849  totalAllocPoint */\n      0x08\n        /* \"contracts/DDTMasterChef.sol\":26834:26884  totalAllocPoint = totalAllocPoint.add(_allocPoint) */\n      dup2\n      swap1\n      sstore\n      pop\n        /* \"contracts/DDTMasterChef.sol\":26895:26903  poolInfo */\n      0x06\n        /* \"contracts/DDTMasterChef.sol\":26923:27269  PoolInfo({\r... */\n      mload(0x40)\n      dup1\n      0x0100\n      add\n      0x40\n      mstore\n      dup1\n        /* \"contracts/DDTMasterChef.sol\":26960:26968  _lpToken */\n      dup10\n        /* \"contracts/DDTMasterChef.sol\":26923:27269  PoolInfo({\r... */\n      0xffffffffffffffffffffffffffffffffffffffff\n      and\n      dup2\n      mstore\n      0x20\n      add\n        /* \"contracts/DDTMasterChef.sol\":26999:27010  _allocPoint */\n      dup11\n        /* \"contracts/DDTMasterChef.sol\":26923:27269  PoolInfo({\r... */\n      dup2\n      mstore\n      0x20\n      add\n        /* \"contracts/DDTMasterChef.sol\":27046:27061  lastRewardBlock */\n      dup4\n        /* \"contracts/DDTMasterChef.sol\":26923:27269  PoolInfo({\r... */\n      dup2\n      mstore\n      0x20\n      add\n        /* \"contracts/DDTMasterChef.sol\":27096:27097  0 */\n      0x00\n        /* \"contracts/DDTMasterChef.sol\":26923:27269  PoolInfo({\r... */\n      dup2\n      mstore\n      0x20\n      add\n        /* \"contracts/DDTMasterChef.sol\":27132:27147  _poolMasterChef */\n      dup8\n        /* \"contracts/DDTMasterChef.sol\":26923:27269  PoolInfo({\r... */\n      0xffffffffffffffffffffffffffffffffffffffff\n      and\n      dup2\n      mstore\n      0x20\n      add\n        /* \"contracts/DDTMasterChef.sol\":27179:27191  _rewardToken */\n      dup7\n        /* \"contracts/DDTMasterChef.sol\":26923:27269  PoolInfo({\r... */\n      0xffffffffffffffffffffffffffffffffffffffff\n      and\n      dup2\n      mstore\n      0x20\n      add\n        /* \"contracts/DDTMasterChef.sol\":27215:27219  _fee */\n      dup6\n        /* \"contracts/DDTMasterChef.sol\":26923:27269  PoolInfo({\r... */\n      dup2\n      mstore\n      0x20\n      add\n        /* \"contracts/DDTMasterChef.sol\":27246:27253  _method */\n      dup5\n        /* \"contracts/DDTMasterChef.sol\":26923:27269  PoolInfo({\r... */\n      dup2\n      mstore\n      pop\n        /* \"contracts/DDTMasterChef.sol\":26895:27280  poolInfo.push(\r... */\n      swap1\n      dup1\n      0x01\n      dup2\n      sload\n      add\n      dup1\n      dup3\n      sstore\n      dup1\n      swap2\n      pop\n      pop\n      0x01\n      swap1\n      sub\n      swap1\n      0x00\n      mstore\n      keccak256(0x00, 0x20)\n      swap1\n      0x08\n      mul\n      add\n      0x00\n      swap1\n      swap2\n      swap1\n      swap2\n      swap1\n      swap2\n      pop\n      0x00\n      dup3\n      add\n      mload\n      dup2\n      0x00\n      add\n      exp(0x0100, 0x00)\n      dup2\n      sload\n      dup2\n      0xffffffffffffffffffffffffffffffffffffffff\n      mul\n      not\n      and\n      swap1\n      dup4\n      0xffffffffffffffffffffffffffffffffffffffff\n      and\n      mul\n      or\n      swap1\n      sstore\n      pop\n      0x20\n      dup3\n      add\n      mload\n      dup2\n      0x01\n      add\n      sstore\n      0x40\n      dup3\n      add\n      mload\n      dup2\n      0x02\n      add\n      sstore\n      0x60\n      dup3\n      add\n      mload\n      dup2\n      0x03\n      add\n      sstore\n      0x80\n      dup3\n      add\n      mload\n      dup2\n      0x04\n      add\n      exp(0x0100, 0x00)\n      dup2\n      sload\n      dup2\n      0xffffffffffffffffffffffffffffffffffffffff\n      mul\n      not\n      and\n      swap1\n      dup4\n      0xffffffffffffffffffffffffffffffffffffffff\n      and\n      mul\n      or\n      swap1\n      sstore\n      pop\n      0xa0\n      dup3\n      add\n      mload\n      dup2\n      0x05\n      add\n      exp(0x0100, 0x00)\n      dup2\n      sload\n      dup2\n      0xffffffffffffffffffffffffffffffffffffffff\n      mul\n      not\n      and\n      swap1\n      dup4\n      0xffffffffffffffffffffffffffffffffffffffff\n      and\n      mul\n      or\n      swap1\n      sstore\n      pop\n      0xc0\n      dup3\n      add\n      mload\n      dup2\n      0x06\n      add\n      sstore\n      0xe0\n      dup3\n      add\n      mload\n      dup2\n      0x07\n      add\n      sstore\n      pop\n      pop\n        /* \"contracts/DDTMasterChef.sol\":26662:27288  {\r... */\n      pop\n        /* \"contracts/DDTMasterChef.sol\":26494:27288  function add( uint256 _allocPoint, IERC20 _lpToken, bool _withUpdate, IMasterChef _poolMasterChef, IERC20 _rewardToken, uint256 _fee, uint256 _method) public onlyOwner {\r... */\n      pop\n      pop\n      pop\n      pop\n      pop\n      pop\n      pop\n      jump\t// out\n        /* \"contracts/DDTMasterChef.sol\":25068:25115  mapping (uint256 => uint256) public poolBalance */\n    tag_102:\n      mstore(0x20, 0x0a)\n      dup1\n      0x00\n      mstore\n      keccak256(0x00, 0x40)\n      0x00\n      swap2\n      pop\n      swap1\n      pop\n      sload\n      dup2\n      jump\t// out\n        /* \"contracts/DDTMasterChef.sol\":20756:20859  function renounceOwnership() public virtual onlyOwner {\r... */\n    tag_105:\n        /* \"contracts/DDTMasterChef.sol\":20336:20348  _msgSender() */\n      tag_366\n        /* \"contracts/DDTMasterChef.sol\":20336:20346  _msgSender */\n      tag_265\n        /* \"contracts/DDTMasterChef.sol\":20336:20348  _msgSender() */\n      jump\t// in\n    tag_366:\n        /* \"contracts/DDTMasterChef.sol\":20325:20348  owner() == _msgSender() */\n      0xffffffffffffffffffffffffffffffffffffffff\n      and\n        /* \"contracts/DDTMasterChef.sol\":20325:20332  owner() */\n      tag_367\n        /* \"contracts/DDTMasterChef.sol\":20325:20330  owner */\n      tag_114\n        /* \"contracts/DDTMasterChef.sol\":20325:20332  owner() */\n      jump\t// in\n    tag_367:\n        /* \"contracts/DDTMasterChef.sol\":20325:20348  owner() == _msgSender() */\n      0xffffffffffffffffffffffffffffffffffffffff\n      and\n      eq\n        /* \"contracts/DDTMasterChef.sol\":20317:20385  require(owner() == _msgSender(), \"Ownable: caller is not the owner\") */\n      tag_368\n      jumpi\n      mload(0x40)\n      0x08c379a000000000000000000000000000000000000000000000000000000000\n      dup2\n      mstore\n      0x04\n      add\n      tag_369\n      swap1\n      tag_269\n      jump\t// in\n    tag_369:\n      mload(0x40)\n      dup1\n      swap2\n      sub\n      swap1\n      revert\n    tag_368:\n        /* \"contracts/DDTMasterChef.sol\":20821:20851  _transferOwnership(address(0)) */\n      tag_371\n        /* \"contracts/DDTMasterChef.sol\":20848:20849  0 */\n      0x00\n        /* \"contracts/DDTMasterChef.sol\":20821:20839  _transferOwnership */\n      tag_372\n        /* \"contracts/DDTMasterChef.sol\":20821:20851  _transferOwnership(address(0)) */\n      jump\t// in\n    tag_371:\n        /* \"contracts/DDTMasterChef.sol\":20756:20859  function renounceOwnership() public virtual onlyOwner {\r... */\n      jump\t// out\n        /* \"contracts/DDTMasterChef.sol\":24640:24669  IMigratorChef public migrator */\n    tag_107:\n      0x05\n      0x00\n      swap1\n      sload\n      swap1\n      0x0100\n      exp\n      swap1\n      div\n      0xffffffffffffffffffffffffffffffffffffffff\n      and\n      dup2\n      jump\t// out\n        /* \"contracts/DDTMasterChef.sol\":24500:24535  uint256 public BONUS_MULTIPLIER = 1 */\n    tag_111:\n      sload(0x04)\n      dup2\n      jump\t// out\n        /* \"contracts/DDTMasterChef.sol\":20105:20192  function owner() public view virtual returns (address) {\r... */\n    tag_114:\n        /* \"contracts/DDTMasterChef.sol\":20151:20158  address */\n      0x00\n        /* \"contracts/DDTMasterChef.sol\":20178:20184  _owner */\n      dup1\n      0x00\n      swap1\n      sload\n      swap1\n      0x0100\n      exp\n      swap1\n      div\n      0xffffffffffffffffffffffffffffffffffffffff\n      and\n        /* \"contracts/DDTMasterChef.sol\":20171:20184  return _owner */\n      swap1\n      pop\n        /* \"contracts/DDTMasterChef.sol\":20105:20192  function owner() public view virtual returns (address) {\r... */\n      swap1\n      jump\t// out\n        /* \"contracts/DDTMasterChef.sol\":28541:28685  function getMultiplier(uint256 _from, uint256 _to) public view returns (uint256) {\r... */\n    tag_120:\n        /* \"contracts/DDTMasterChef.sol\":28613:28620  uint256 */\n      0x00\n        /* \"contracts/DDTMasterChef.sol\":28641:28677  _to.sub(_from).mul(BONUS_MULTIPLIER) */\n      tag_375\n        /* \"contracts/DDTMasterChef.sol\":28660:28676  BONUS_MULTIPLIER */\n      sload(0x04)\n        /* \"contracts/DDTMasterChef.sol\":28641:28655  _to.sub(_from) */\n      tag_376\n        /* \"contracts/DDTMasterChef.sol\":28649:28654  _from */\n      dup6\n        /* \"contracts/DDTMasterChef.sol\":28641:28644  _to */\n      dup6\n        /* \"contracts/DDTMasterChef.sol\":28641:28648  _to.sub */\n      tag_176\n      swap1\n        /* \"contracts/DDTMasterChef.sol\":28641:28655  _to.sub(_from) */\n      swap2\n      swap1\n      0xffffffff\n      and\n      jump\t// in\n    tag_376:\n        /* \"contracts/DDTMasterChef.sol\":28641:28659  _to.sub(_from).mul */\n      tag_174\n      swap1\n        /* \"contracts/DDTMasterChef.sol\":28641:28677  _to.sub(_from).mul(BONUS_MULTIPLIER) */\n      swap2\n      swap1\n      0xffffffff\n      and\n      jump\t// in\n    tag_375:\n        /* \"contracts/DDTMasterChef.sol\":28634:28677  return _to.sub(_from).mul(BONUS_MULTIPLIER) */\n      swap1\n      pop\n        /* \"contracts/DDTMasterChef.sol\":28541:28685  function getMultiplier(uint256 _from, uint256 _to) public view returns (uint256) {\r... */\n      swap3\n      swap2\n      pop\n      pop\n      jump\t// out\n        /* \"contracts/DDTMasterChef.sol\":24785:24849  mapping(uint256 => mapping(address => UserInfo)) public userInfo */\n    tag_124:\n      mstore(0x20, 0x07)\n      dup2\n      0x00\n      mstore\n      mstore(0x20, keccak256(0x00, 0x40))\n      dup1\n      0x00\n      mstore\n      keccak256(0x00, 0x40)\n      0x00\n      swap2\n      pop\n      swap2\n      pop\n      pop\n      dup1\n      0x00\n      add\n      sload\n      swap1\n      dup1\n      0x01\n      add\n      sload\n      swap1\n      pop\n      dup3\n      jump\t// out\n        /* \"contracts/DDTMasterChef.sol\":32433:33574  function withdraw(uint256 _pid, uint256 _otherChefPid, uint256 _amount) public {\r... */\n    tag_129:\n        /* \"contracts/DDTMasterChef.sol\":32525:32546  PoolInfo storage pool */\n      0x00\n        /* \"contracts/DDTMasterChef.sol\":32549:32557  poolInfo */\n      0x06\n        /* \"contracts/DDTMasterChef.sol\":32558:32562  _pid */\n      dup5\n        /* \"contracts/DDTMasterChef.sol\":32549:32563  poolInfo[_pid] */\n      dup2\n      sload\n      dup2\n      lt\n      tag_378\n      jumpi\n      tag_379\n      tag_167\n      jump\t// in\n    tag_379:\n    tag_378:\n      swap1\n      0x00\n      mstore\n      keccak256(0x00, 0x20)\n      swap1\n      0x08\n      mul\n      add\n        /* \"contracts/DDTMasterChef.sol\":32525:32563  PoolInfo storage pool = poolInfo[_pid] */\n      swap1\n      pop\n        /* \"contracts/DDTMasterChef.sol\":32574:32595  UserInfo storage user */\n      0x00\n        /* \"contracts/DDTMasterChef.sol\":32598:32606  userInfo */\n      0x07\n        /* \"contracts/DDTMasterChef.sol\":32598:32612  userInfo[_pid] */\n      0x00\n        /* \"contracts/DDTMasterChef.sol\":32607:32611  _pid */\n      dup7\n        /* \"contracts/DDTMasterChef.sol\":32598:32612  userInfo[_pid] */\n      dup2\n      mstore\n      0x20\n      add\n      swap1\n      dup2\n      mstore\n      0x20\n      add\n      0x00\n      keccak256\n        /* \"contracts/DDTMasterChef.sol\":32598:32624  userInfo[_pid][msg.sender] */\n      0x00\n        /* \"contracts/DDTMasterChef.sol\":32613:32623  msg.sender */\n      caller\n        /* \"contracts/DDTMasterChef.sol\":32598:32624  userInfo[_pid][msg.sender] */\n      0xffffffffffffffffffffffffffffffffffffffff\n      and\n      0xffffffffffffffffffffffffffffffffffffffff\n      and\n      dup2\n      mstore\n      0x20\n      add\n      swap1\n      dup2\n      mstore\n      0x20\n      add\n      0x00\n      keccak256\n        /* \"contracts/DDTMasterChef.sol\":32574:32624  UserInfo storage user = userInfo[_pid][msg.sender] */\n      swap1\n      pop\n        /* \"contracts/DDTMasterChef.sol\":32658:32665  _amount */\n      dup3\n        /* \"contracts/DDTMasterChef.sol\":32643:32647  user */\n      dup2\n        /* \"contracts/DDTMasterChef.sol\":32643:32654  user.amount */\n      0x00\n      add\n      sload\n        /* \"contracts/DDTMasterChef.sol\":32643:32665  user.amount >= _amount */\n      lt\n      iszero\n        /* \"contracts/DDTMasterChef.sol\":32635:32688  require(user.amount >= _amount, \"withdraw: not good\") */\n      tag_381\n      jumpi\n      mload(0x40)\n      0x08c379a000000000000000000000000000000000000000000000000000000000\n      dup2\n      mstore\n      0x04\n      add\n      tag_382\n      swap1\n      tag_383\n      jump\t// in\n    tag_382:\n      mload(0x40)\n      dup1\n      swap2\n      sub\n      swap1\n      revert\n    tag_381:\n        /* \"contracts/DDTMasterChef.sol\":32699:32715  updatePool(_pid) */\n      tag_384\n        /* \"contracts/DDTMasterChef.sol\":32710:32714  _pid */\n      dup6\n        /* \"contracts/DDTMasterChef.sol\":32699:32709  updatePool */\n      tag_80\n        /* \"contracts/DDTMasterChef.sol\":32699:32715  updatePool(_pid) */\n      jump\t// in\n    tag_384:\n        /* \"contracts/DDTMasterChef.sol\":32726:32741  uint256 pending */\n      0x00\n        /* \"contracts/DDTMasterChef.sol\":32744:32811  user.amount.mul(pool.accDDTPerShare).div(1e12).sub(user.rewardDebt) */\n      tag_385\n        /* \"contracts/DDTMasterChef.sol\":32795:32799  user */\n      dup3\n        /* \"contracts/DDTMasterChef.sol\":32795:32810  user.rewardDebt */\n      0x01\n      add\n      sload\n        /* \"contracts/DDTMasterChef.sol\":32744:32790  user.amount.mul(pool.accDDTPerShare).div(1e12) */\n      tag_386\n        /* \"contracts/DDTMasterChef.sol\":32785:32789  1e12 */\n      0xe8d4a51000\n        /* \"contracts/DDTMasterChef.sol\":32744:32780  user.amount.mul(pool.accDDTPerShare) */\n      tag_387\n        /* \"contracts/DDTMasterChef.sol\":32760:32764  pool */\n      dup8\n        /* \"contracts/DDTMasterChef.sol\":32760:32779  pool.accDDTPerShare */\n      0x03\n      add\n      sload\n        /* \"contracts/DDTMasterChef.sol\":32744:32748  user */\n      dup8\n        /* \"contracts/DDTMasterChef.sol\":32744:32755  user.amount */\n      0x00\n      add\n      sload\n        /* \"contracts/DDTMasterChef.sol\":32744:32759  user.amount.mul */\n      tag_174\n      swap1\n        /* \"contracts/DDTMasterChef.sol\":32744:32780  user.amount.mul(pool.accDDTPerShare) */\n      swap2\n      swap1\n      0xffffffff\n      and\n      jump\t// in\n    tag_387:\n        /* \"contracts/DDTMasterChef.sol\":32744:32784  user.amount.mul(pool.accDDTPerShare).div */\n      tag_175\n      swap1\n        /* \"contracts/DDTMasterChef.sol\":32744:32790  user.amount.mul(pool.accDDTPerShare).div(1e12) */\n      swap2\n      swap1\n      0xffffffff\n      and\n      jump\t// in\n    tag_386:\n        /* \"contracts/DDTMasterChef.sol\":32744:32794  user.amount.mul(pool.accDDTPerShare).div(1e12).sub */\n      tag_176\n      swap1\n        /* \"contracts/DDTMasterChef.sol\":32744:32811  user.amount.mul(pool.accDDTPerShare).div(1e12).sub(user.rewardDebt) */\n      swap2\n      swap1\n      0xffffffff\n      and\n      jump\t// in\n    tag_385:\n        /* \"contracts/DDTMasterChef.sol\":32726:32811  uint256 pending = user.amount.mul(pool.accDDTPerShare).div(1e12).sub(user.rewardDebt) */\n      swap1\n      pop\n        /* \"contracts/DDTMasterChef.sol\":32835:32836  0 */\n      0x00\n        /* \"contracts/DDTMasterChef.sol\":32825:32832  pending */\n      dup2\n        /* \"contracts/DDTMasterChef.sol\":32825:32836  pending > 0 */\n      gt\n        /* \"contracts/DDTMasterChef.sol\":32822:32909  if(pending > 0){\r... */\n      iszero\n      tag_388\n      jumpi\n        /* \"contracts/DDTMasterChef.sol\":32852:32897  safeDDTTransfer(address(msg.sender), pending) */\n      tag_389\n        /* \"contracts/DDTMasterChef.sol\":32876:32886  msg.sender */\n      caller\n        /* \"contracts/DDTMasterChef.sol\":32889:32896  pending */\n      dup3\n        /* \"contracts/DDTMasterChef.sol\":32852:32867  safeDDTTransfer */\n      tag_179\n        /* \"contracts/DDTMasterChef.sol\":32852:32897  safeDDTTransfer(address(msg.sender), pending) */\n      jump\t// in\n    tag_389:\n        /* \"contracts/DDTMasterChef.sol\":32822:32909  if(pending > 0){\r... */\n    tag_388:\n        /* \"contracts/DDTMasterChef.sol\":32933:32957  user.amount.sub(_amount) */\n      tag_390\n        /* \"contracts/DDTMasterChef.sol\":32949:32956  _amount */\n      dup5\n        /* \"contracts/DDTMasterChef.sol\":32933:32937  user */\n      dup4\n        /* \"contracts/DDTMasterChef.sol\":32933:32944  user.amount */\n      0x00\n      add\n      sload\n        /* \"contracts/DDTMasterChef.sol\":32933:32948  user.amount.sub */\n      tag_176\n      swap1\n        /* \"contracts/DDTMasterChef.sol\":32933:32957  user.amount.sub(_amount) */\n      swap2\n      swap1\n      0xffffffff\n      and\n      jump\t// in\n    tag_390:\n        /* \"contracts/DDTMasterChef.sol\":32919:32923  user */\n      dup3\n        /* \"contracts/DDTMasterChef.sol\":32919:32930  user.amount */\n      0x00\n      add\n        /* \"contracts/DDTMasterChef.sol\":32919:32957  user.amount = user.amount.sub(_amount) */\n      dup2\n      swap1\n      sstore\n      pop\n        /* \"contracts/DDTMasterChef.sol\":32988:33018  poolBalance[_pid].sub(_amount) */\n      tag_391\n        /* \"contracts/DDTMasterChef.sol\":33010:33017  _amount */\n      dup5\n        /* \"contracts/DDTMasterChef.sol\":32988:32999  poolBalance */\n      0x0a\n        /* \"contracts/DDTMasterChef.sol\":32988:33005  poolBalance[_pid] */\n      0x00\n        /* \"contracts/DDTMasterChef.sol\":33000:33004  _pid */\n      dup10\n        /* \"contracts/DDTMasterChef.sol\":32988:33005  poolBalance[_pid] */\n      dup2\n      mstore\n      0x20\n      add\n      swap1\n      dup2\n      mstore\n      0x20\n      add\n      0x00\n      keccak256\n      sload\n        /* \"contracts/DDTMasterChef.sol\":32988:33009  poolBalance[_pid].sub */\n      tag_176\n      swap1\n        /* \"contracts/DDTMasterChef.sol\":32988:33018  poolBalance[_pid].sub(_amount) */\n      swap2\n      swap1\n      0xffffffff\n      and\n      jump\t// in\n    tag_391:\n        /* \"contracts/DDTMasterChef.sol\":32968:32979  poolBalance */\n      0x0a\n        /* \"contracts/DDTMasterChef.sol\":32968:32985  poolBalance[_pid] */\n      0x00\n        /* \"contracts/DDTMasterChef.sol\":32980:32984  _pid */\n      dup9\n        /* \"contracts/DDTMasterChef.sol\":32968:32985  poolBalance[_pid] */\n      dup2\n      mstore\n      0x20\n      add\n      swap1\n      dup2\n      mstore\n      0x20\n      add\n      0x00\n      keccak256\n        /* \"contracts/DDTMasterChef.sol\":32968:33018  poolBalance[_pid] = poolBalance[_pid].sub(_amount) */\n      dup2\n      swap1\n      sstore\n      pop\n        /* \"contracts/DDTMasterChef.sol\":33047:33093  user.amount.mul(pool.accDDTPerShare).div(1e12) */\n      tag_392\n        /* \"contracts/DDTMasterChef.sol\":33088:33092  1e12 */\n      0xe8d4a51000\n        /* \"contracts/DDTMasterChef.sol\":33047:33083  user.amount.mul(pool.accDDTPerShare) */\n      tag_393\n        /* \"contracts/DDTMasterChef.sol\":33063:33067  pool */\n      dup6\n        /* \"contracts/DDTMasterChef.sol\":33063:33082  pool.accDDTPerShare */\n      0x03\n      add\n      sload\n        /* \"contracts/DDTMasterChef.sol\":33047:33051  user */\n      dup6\n        /* \"contracts/DDTMasterChef.sol\":33047:33058  user.amount */\n      0x00\n      add\n      sload\n        /* \"contracts/DDTMasterChef.sol\":33047:33062  user.amount.mul */\n      tag_174\n      swap1\n        /* \"contracts/DDTMasterChef.sol\":33047:33083  user.amount.mul(pool.accDDTPerShare) */\n      swap2\n      swap1\n      0xffffffff\n      and\n      jump\t// in\n    tag_393:\n        /* \"contracts/DDTMasterChef.sol\":33047:33087  user.amount.mul(pool.accDDTPerShare).div */\n      tag_175\n      swap1\n        /* \"contracts/DDTMasterChef.sol\":33047:33093  user.amount.mul(pool.accDDTPerShare).div(1e12) */\n      swap2\n      swap1\n      0xffffffff\n      and\n      jump\t// in\n    tag_392:\n        /* \"contracts/DDTMasterChef.sol\":33029:33033  user */\n      dup3\n        /* \"contracts/DDTMasterChef.sol\":33029:33044  user.rewardDebt */\n      0x01\n      add\n        /* \"contracts/DDTMasterChef.sol\":33029:33093  user.rewardDebt = user.amount.mul(pool.accDDTPerShare).div(1e12) */\n      dup2\n      swap1\n      sstore\n      pop\n        /* \"contracts/DDTMasterChef.sol\":33122:33123  0 */\n      0x00\n        /* \"contracts/DDTMasterChef.sol\":33107:33111  pool */\n      dup4\n        /* \"contracts/DDTMasterChef.sol\":33107:33118  pool.method */\n      0x07\n      add\n      sload\n        /* \"contracts/DDTMasterChef.sol\":33107:33123  pool.method == 0 */\n      eq\n        /* \"contracts/DDTMasterChef.sol\":33104:33275  if(pool.method == 0){\r... */\n      iszero\n      tag_394\n      jumpi\n        /* \"contracts/DDTMasterChef.sol\":33139:33143  pool */\n      dup3\n        /* \"contracts/DDTMasterChef.sol\":33139:33158  pool.poolMasterChef */\n      0x04\n      add\n      0x00\n      swap1\n      sload\n      swap1\n      0x0100\n      exp\n      swap1\n      div\n      0xffffffffffffffffffffffffffffffffffffffff\n      and\n        /* \"contracts/DDTMasterChef.sol\":33139:33171  pool.poolMasterChef.leaveStaking */\n      0xffffffffffffffffffffffffffffffffffffffff\n      and\n      0x1058d281\n        /* \"contracts/DDTMasterChef.sol\":33172:33179  _amount */\n      dup6\n        /* \"contracts/DDTMasterChef.sol\":33139:33180  pool.poolMasterChef.leaveStaking(_amount) */\n      mload(0x40)\n      dup3\n      0xffffffff\n      and\n      0xe0\n      shl\n      dup2\n      mstore\n      0x04\n      add\n      tag_395\n      swap2\n      swap1\n      tag_50\n      jump\t// in\n    tag_395:\n      0x00\n      mload(0x40)\n      dup1\n      dup4\n      sub\n      dup2\n      0x00\n      dup8\n      dup1\n      extcodesize\n      iszero\n      dup1\n      iszero\n      tag_396\n      jumpi\n      0x00\n      dup1\n      revert\n    tag_396:\n      pop\n      gas\n      call\n      iszero\n      dup1\n      iszero\n      tag_398\n      jumpi\n      returndatasize\n      0x00\n      dup1\n      returndatacopy\n      revert(0x00, returndatasize)\n    tag_398:\n      pop\n      pop\n      pop\n      pop\n        /* \"contracts/DDTMasterChef.sol\":33104:33275  if(pool.method == 0){\r... */\n      jump(tag_399)\n    tag_394:\n        /* \"contracts/DDTMasterChef.sol\":33211:33215  pool */\n      dup3\n        /* \"contracts/DDTMasterChef.sol\":33211:33230  pool.poolMasterChef */\n      0x04\n      add\n      0x00\n      swap1\n      sload\n      swap1\n      0x0100\n      exp\n      swap1\n      div\n      0xffffffffffffffffffffffffffffffffffffffff\n      and\n        /* \"contracts/DDTMasterChef.sol\":33211:33239  pool.poolMasterChef.withdraw */\n      0xffffffffffffffffffffffffffffffffffffffff\n      and\n      0x441a3e70\n        /* \"contracts/DDTMasterChef.sol\":33240:33253  _otherChefPid */\n      dup7\n        /* \"contracts/DDTMasterChef.sol\":33255:33262  _amount */\n      dup7\n        /* \"contracts/DDTMasterChef.sol\":33211:33263  pool.poolMasterChef.withdraw(_otherChefPid, _amount) */\n      mload(0x40)\n      dup4\n      0xffffffff\n      and\n      0xe0\n      shl\n      dup2\n      mstore\n      0x04\n      add\n      tag_400\n      swap3\n      swap2\n      swap1\n      tag_126\n      jump\t// in\n    tag_400:\n      0x00\n      mload(0x40)\n      dup1\n      dup4\n      sub\n      dup2\n      0x00\n      dup8\n      dup1\n      extcodesize\n      iszero\n      dup1\n      iszero\n      tag_401\n      jumpi\n      0x00\n      dup1\n      revert\n    tag_401:\n      pop\n      gas\n      call\n      iszero\n      dup1\n      iszero\n      tag_403\n      jumpi\n      returndatasize\n      0x00\n      dup1\n      returndatacopy\n      revert(0x00, returndatasize)\n    tag_403:\n      pop\n      pop\n      pop\n      pop\n        /* \"contracts/DDTMasterChef.sol\":33104:33275  if(pool.method == 0){\r... */\n    tag_399:\n        /* \"contracts/DDTMasterChef.sol\":33285:33340  pool.lpToken.safeTransfer(address(msg.sender), _amount) */\n      tag_404\n        /* \"contracts/DDTMasterChef.sol\":33319:33329  msg.sender */\n      caller\n        /* \"contracts/DDTMasterChef.sol\":33332:33339  _amount */\n      dup6\n        /* \"contracts/DDTMasterChef.sol\":33285:33289  pool */\n      dup6\n        /* \"contracts/DDTMasterChef.sol\":33285:33297  pool.lpToken */\n      0x00\n      add\n      0x00\n      swap1\n      sload\n      swap1\n      0x0100\n      exp\n      swap1\n      div\n      0xffffffffffffffffffffffffffffffffffffffff\n      and\n        /* \"contracts/DDTMasterChef.sol\":33285:33310  pool.lpToken.safeTransfer */\n      0xffffffffffffffffffffffffffffffffffffffff\n      and\n      tag_217\n      swap1\n        /* \"contracts/DDTMasterChef.sol\":33285:33340  pool.lpToken.safeTransfer(address(msg.sender), _amount) */\n      swap3\n      swap2\n      swap1\n      0xffffffff\n      and\n      jump\t// in\n    tag_404:\n        /* \"contracts/DDTMasterChef.sol\":33351:33365  uint256 reward */\n      0x00\n        /* \"contracts/DDTMasterChef.sol\":33368:33372  pool */\n      dup4\n        /* \"contracts/DDTMasterChef.sol\":33368:33384  pool.rewardToken */\n      0x05\n      add\n      0x00\n      swap1\n      sload\n      swap1\n      0x0100\n      exp\n      swap1\n      div\n      0xffffffffffffffffffffffffffffffffffffffff\n      and\n        /* \"contracts/DDTMasterChef.sol\":33368:33394  pool.rewardToken.balanceOf */\n      0xffffffffffffffffffffffffffffffffffffffff\n      and\n      0x70a08231\n        /* \"contracts/DDTMasterChef.sol\":33403:33407  this */\n      address\n        /* \"contracts/DDTMasterChef.sol\":33368:33409  pool.rewardToken.balanceOf(address(this)) */\n      mload(0x40)\n      dup3\n      0xffffffff\n      and\n      0xe0\n      shl\n      dup2\n      mstore\n      0x04\n      add\n      tag_405\n      swap2\n      swap1\n      tag_116\n      jump\t// in\n    tag_405:\n      0x20\n      mload(0x40)\n      dup1\n      dup4\n      sub\n      dup2\n      dup7\n      dup1\n      extcodesize\n      iszero\n      dup1\n      iszero\n      tag_406\n      jumpi\n      0x00\n      dup1\n      revert\n    tag_406:\n      pop\n      gas\n      staticcall\n      iszero\n      dup1\n      iszero\n      tag_408\n      jumpi\n      returndatasize\n      0x00\n      dup1\n      returndatacopy\n      revert(0x00, returndatasize)\n    tag_408:\n      pop\n      pop\n      pop\n      pop\n      mload(0x40)\n      returndatasize\n      not(0x1f)\n      0x1f\n      dup3\n      add\n      and\n      dup3\n      add\n      dup1\n      0x40\n      mstore\n      pop\n      dup2\n      add\n      swap1\n      tag_409\n      swap2\n      swap1\n      tag_186\n      jump\t// in\n    tag_409:\n        /* \"contracts/DDTMasterChef.sol\":33351:33409  uint256 reward = pool.rewardToken.balanceOf(address(this)) */\n      swap1\n      pop\n        /* \"contracts/DDTMasterChef.sol\":33432:33433  0 */\n      0x00\n        /* \"contracts/DDTMasterChef.sol\":33423:33429  reward */\n      dup2\n        /* \"contracts/DDTMasterChef.sol\":33423:33433  reward > 0 */\n      gt\n        /* \"contracts/DDTMasterChef.sol\":33420:33516  if(reward > 0){\r... */\n      iszero\n      tag_410\n      jumpi\n        /* \"contracts/DDTMasterChef.sol\":33449:33504  pool.rewardToken.safeTransfer(address(devaddr), reward) */\n      tag_411\n        /* \"contracts/DDTMasterChef.sol\":33487:33494  devaddr */\n      0x02\n      0x00\n      swap1\n      sload\n      swap1\n      0x0100\n      exp\n      swap1\n      div\n      0xffffffffffffffffffffffffffffffffffffffff\n      and\n        /* \"contracts/DDTMasterChef.sol\":33497:33503  reward */\n      dup3\n        /* \"contracts/DDTMasterChef.sol\":33449:33453  pool */\n      dup7\n        /* \"contracts/DDTMasterChef.sol\":33449:33465  pool.rewardToken */\n      0x05\n      add\n      0x00\n      swap1\n      sload\n      swap1\n      0x0100\n      exp\n      swap1\n      div\n      0xffffffffffffffffffffffffffffffffffffffff\n      and\n        /* \"contracts/DDTMasterChef.sol\":33449:33478  pool.rewardToken.safeTransfer */\n      0xffffffffffffffffffffffffffffffffffffffff\n      and\n      tag_217\n      swap1\n        /* \"contracts/DDTMasterChef.sol\":33449:33504  pool.rewardToken.safeTransfer(address(devaddr), reward) */\n      swap3\n      swap2\n      swap1\n      0xffffffff\n      and\n      jump\t// in\n    tag_411:\n        /* \"contracts/DDTMasterChef.sol\":33420:33516  if(reward > 0){\r... */\n    tag_410:\n        /* \"contracts/DDTMasterChef.sol\":33552:33556  _pid */\n      dup7\n        /* \"contracts/DDTMasterChef.sol\":33540:33550  msg.sender */\n      caller\n        /* \"contracts/DDTMasterChef.sol\":33531:33566  Withdraw(msg.sender, _pid, _amount) */\n      0xffffffffffffffffffffffffffffffffffffffff\n      and\n      0xf279e6a1f5e320cca91135676d9cb6e44ca8a08c0b88342bcdb1144f6511b568\n        /* \"contracts/DDTMasterChef.sol\":33558:33565  _amount */\n      dup8\n        /* \"contracts/DDTMasterChef.sol\":33531:33566  Withdraw(msg.sender, _pid, _amount) */\n      mload(0x40)\n      tag_412\n      swap2\n      swap1\n      tag_50\n      jump\t// in\n    tag_412:\n      mload(0x40)\n      dup1\n      swap2\n      sub\n      swap1\n      log3\n        /* \"contracts/DDTMasterChef.sol\":32512:33574  {\r... */\n      pop\n      pop\n      pop\n      pop\n        /* \"contracts/DDTMasterChef.sol\":32433:33574  function withdraw(uint256 _pid, uint256 _otherChefPid, uint256 _amount) public {\r... */\n      pop\n      pop\n      pop\n      jump\t// out\n        /* \"contracts/DDTMasterChef.sol\":24309:24326  IERC20 public DDT */\n    tag_131:\n      0x01\n      0x00\n      swap1\n      sload\n      swap1\n      0x0100\n      exp\n      swap1\n      div\n      0xffffffffffffffffffffffffffffffffffffffff\n      and\n      dup2\n      jump\t// out\n        /* \"contracts/DDTMasterChef.sol\":26146:26323  function getUserBalance(uint256 _pid, address _user) external view returns (uint256){\r... */\n    tag_136:\n        /* \"contracts/DDTMasterChef.sol\":26222:26229  uint256 */\n      0x00\n        /* \"contracts/DDTMasterChef.sol\":26241:26262  UserInfo storage user */\n      dup1\n        /* \"contracts/DDTMasterChef.sol\":26265:26273  userInfo */\n      0x07\n        /* \"contracts/DDTMasterChef.sol\":26265:26279  userInfo[_pid] */\n      0x00\n        /* \"contracts/DDTMasterChef.sol\":26274:26278  _pid */\n      dup6\n        /* \"contracts/DDTMasterChef.sol\":26265:26279  userInfo[_pid] */\n      dup2\n      mstore\n      0x20\n      add\n      swap1\n      dup2\n      mstore\n      0x20\n      add\n      0x00\n      keccak256\n        /* \"contracts/DDTMasterChef.sol\":26265:26286  userInfo[_pid][_user] */\n      0x00\n        /* \"contracts/DDTMasterChef.sol\":26280:26285  _user */\n      dup5\n        /* \"contracts/DDTMasterChef.sol\":26265:26286  userInfo[_pid][_user] */\n      0xffffffffffffffffffffffffffffffffffffffff\n      and\n      0xffffffffffffffffffffffffffffffffffffffff\n      and\n      dup2\n      mstore\n      0x20\n      add\n      swap1\n      dup2\n      mstore\n      0x20\n      add\n      0x00\n      keccak256\n        /* \"contracts/DDTMasterChef.sol\":26241:26286  UserInfo storage user = userInfo[_pid][_user] */\n      swap1\n      pop\n        /* \"contracts/DDTMasterChef.sol\":26304:26308  user */\n      dup1\n        /* \"contracts/DDTMasterChef.sol\":26304:26315  user.amount */\n      0x00\n      add\n      sload\n        /* \"contracts/DDTMasterChef.sol\":26297:26315  return user.amount */\n      swap2\n      pop\n      pop\n        /* \"contracts/DDTMasterChef.sol\":26146:26323  function getUserBalance(uint256 _pid, address _user) external view returns (uint256){\r... */\n      swap3\n      swap2\n      pop\n      pop\n      jump\t// out\n        /* \"contracts/DDTMasterChef.sol\":35173:35268  function setDevAddress(address _devaddr) public onlyOwner {\r... */\n    tag_141:\n        /* \"contracts/DDTMasterChef.sol\":20336:20348  _msgSender() */\n      tag_415\n        /* \"contracts/DDTMasterChef.sol\":20336:20346  _msgSender */\n      tag_265\n        /* \"contracts/DDTMasterChef.sol\":20336:20348  _msgSender() */\n      jump\t// in\n    tag_415:\n        /* \"contracts/DDTMasterChef.sol\":20325:20348  owner() == _msgSender() */\n      0xffffffffffffffffffffffffffffffffffffffff\n      and\n        /* \"contracts/DDTMasterChef.sol\":20325:20332  owner() */\n      tag_416\n        /* \"contracts/DDTMasterChef.sol\":20325:20330  owner */\n      tag_114\n        /* \"contracts/DDTMasterChef.sol\":20325:20332  owner() */\n      jump\t// in\n    tag_416:\n        /* \"contracts/DDTMasterChef.sol\":20325:20348  owner() == _msgSender() */\n      0xffffffffffffffffffffffffffffffffffffffff\n      and\n      eq\n        /* \"contracts/DDTMasterChef.sol\":20317:20385  require(owner() == _msgSender(), \"Ownable: caller is not the owner\") */\n      tag_417\n      jumpi\n      mload(0x40)\n      0x08c379a000000000000000000000000000000000000000000000000000000000\n      dup2\n      mstore\n      0x04\n      add\n      tag_418\n      swap1\n      tag_269\n      jump\t// in\n    tag_418:\n      mload(0x40)\n      dup1\n      swap2\n      sub\n      swap1\n      revert\n    tag_417:\n        /* \"contracts/DDTMasterChef.sol\":35252:35260  _devaddr */\n      dup1\n        /* \"contracts/DDTMasterChef.sol\":35242:35249  devaddr */\n      0x02\n      0x00\n        /* \"contracts/DDTMasterChef.sol\":35242:35260  devaddr = _devaddr */\n      0x0100\n      exp\n      dup2\n      sload\n      dup2\n      0xffffffffffffffffffffffffffffffffffffffff\n      mul\n      not\n      and\n      swap1\n      dup4\n      0xffffffffffffffffffffffffffffffffffffffff\n      and\n      mul\n      or\n      swap1\n      sstore\n      pop\n        /* \"contracts/DDTMasterChef.sol\":35173:35268  function setDevAddress(address _devaddr) public onlyOwner {\r... */\n      pop\n      jump\t// out\n        /* \"contracts/DDTMasterChef.sol\":34167:34349  function emergencyWithdrawFromOtherChef(uint256 _pid) public onlyOwner {\r... */\n    tag_144:\n        /* \"contracts/DDTMasterChef.sol\":20336:20348  _msgSender() */\n      tag_421\n        /* \"contracts/DDTMasterChef.sol\":20336:20346  _msgSender */\n      tag_265\n        /* \"contracts/DDTMasterChef.sol\":20336:20348  _msgSender() */\n      jump\t// in\n    tag_421:\n        /* \"contracts/DDTMasterChef.sol\":20325:20348  owner() == _msgSender() */\n      0xffffffffffffffffffffffffffffffffffffffff\n      and\n        /* \"contracts/DDTMasterChef.sol\":20325:20332  owner() */\n      tag_422\n        /* \"contracts/DDTMasterChef.sol\":20325:20330  owner */\n      tag_114\n        /* \"contracts/DDTMasterChef.sol\":20325:20332  owner() */\n      jump\t// in\n    tag_422:\n        /* \"contracts/DDTMasterChef.sol\":20325:20348  owner() == _msgSender() */\n      0xffffffffffffffffffffffffffffffffffffffff\n      and\n      eq\n        /* \"contracts/DDTMasterChef.sol\":20317:20385  require(owner() == _msgSender(), \"Ownable: caller is not the owner\") */\n      tag_423\n      jumpi\n      mload(0x40)\n      0x08c379a000000000000000000000000000000000000000000000000000000000\n      dup2\n      mstore\n      0x04\n      add\n      tag_424\n      swap1\n      tag_269\n      jump\t// in\n    tag_424:\n      mload(0x40)\n      dup1\n      swap2\n      sub\n      swap1\n      revert\n    tag_423:\n        /* \"contracts/DDTMasterChef.sol\":34249:34270  PoolInfo storage pool */\n      0x00\n        /* \"contracts/DDTMasterChef.sol\":34273:34281  poolInfo */\n      0x06\n        /* \"contracts/DDTMasterChef.sol\":34282:34286  _pid */\n      dup3\n        /* \"contracts/DDTMasterChef.sol\":34273:34287  poolInfo[_pid] */\n      dup2\n      sload\n      dup2\n      lt\n      tag_426\n      jumpi\n      tag_427\n      tag_167\n      jump\t// in\n    tag_427:\n    tag_426:\n      swap1\n      0x00\n      mstore\n      keccak256(0x00, 0x20)\n      swap1\n      0x08\n      mul\n      add\n        /* \"contracts/DDTMasterChef.sol\":34249:34287  PoolInfo storage pool = poolInfo[_pid] */\n      swap1\n      pop\n        /* \"contracts/DDTMasterChef.sol\":34298:34302  pool */\n      dup1\n        /* \"contracts/DDTMasterChef.sol\":34298:34317  pool.poolMasterChef */\n      0x04\n      add\n      0x00\n      swap1\n      sload\n      swap1\n      0x0100\n      exp\n      swap1\n      div\n      0xffffffffffffffffffffffffffffffffffffffff\n      and\n        /* \"contracts/DDTMasterChef.sol\":34298:34335  pool.poolMasterChef.emergencyWithdraw */\n      0xffffffffffffffffffffffffffffffffffffffff\n      and\n      0x5312ea8e\n        /* \"contracts/DDTMasterChef.sol\":34336:34340  _pid */\n      dup4\n        /* \"contracts/DDTMasterChef.sol\":34298:34341  pool.poolMasterChef.emergencyWithdraw(_pid) */\n      mload(0x40)\n      dup3\n      0xffffffff\n      and\n      0xe0\n      shl\n      dup2\n      mstore\n      0x04\n      add\n      tag_429\n      swap2\n      swap1\n      tag_50\n      jump\t// in\n    tag_429:\n      0x00\n      mload(0x40)\n      dup1\n      dup4\n      sub\n      dup2\n      0x00\n      dup8\n      dup1\n      extcodesize\n      iszero\n      dup1\n      iszero\n      tag_430\n      jumpi\n      0x00\n      dup1\n      revert\n    tag_430:\n      pop\n      gas\n      call\n      iszero\n      dup1\n      iszero\n      tag_432\n      jumpi\n      returndatasize\n      0x00\n      dup1\n      returndatacopy\n      revert(0x00, returndatasize)\n    tag_432:\n      pop\n      pop\n      pop\n      pop\n        /* \"contracts/DDTMasterChef.sol\":34238:34349  {\r... */\n      pop\n        /* \"contracts/DDTMasterChef.sol\":34167:34349  function emergencyWithdrawFromOtherChef(uint256 _pid) public onlyOwner {\r... */\n      pop\n      jump\t// out\n        /* \"contracts/DDTMasterChef.sol\":24354:24376  address public devaddr */\n    tag_146:\n      0x02\n      0x00\n      swap1\n      sload\n      swap1\n      0x0100\n      exp\n      swap1\n      div\n      0xffffffffffffffffffffffffffffffffffffffff\n      and\n      dup2\n      jump\t// out\n        /* \"contracts/DDTMasterChef.sol\":25236:25271  INFTMasterchef public NFTMasterChef */\n    tag_149:\n      0x0d\n      0x00\n      swap1\n      sload\n      swap1\n      0x0100\n      exp\n      swap1\n      div\n      0xffffffffffffffffffffffffffffffffffffffff\n      and\n      dup2\n      jump\t// out\n        /* \"contracts/DDTMasterChef.sol\":30529:30767  function enablePool(uint256 _pid) public {\r... */\n    tag_154:\n        /* \"contracts/DDTMasterChef.sol\":30581:30602  PoolInfo storage pool */\n      0x00\n        /* \"contracts/DDTMasterChef.sol\":30605:30613  poolInfo */\n      0x06\n        /* \"contracts/DDTMasterChef.sol\":30614:30618  _pid */\n      dup3\n        /* \"contracts/DDTMasterChef.sol\":30605:30619  poolInfo[_pid] */\n      dup2\n      sload\n      dup2\n      lt\n      tag_434\n      jumpi\n      tag_435\n      tag_167\n      jump\t// in\n    tag_435:\n    tag_434:\n      swap1\n      0x00\n      mstore\n      keccak256(0x00, 0x20)\n      swap1\n      0x08\n      mul\n      add\n        /* \"contracts/DDTMasterChef.sol\":30581:30619  PoolInfo storage pool = poolInfo[_pid] */\n      swap1\n      pop\n        /* \"contracts/DDTMasterChef.sol\":30630:30634  pool */\n      dup1\n        /* \"contracts/DDTMasterChef.sol\":30630:30642  pool.lpToken */\n      0x00\n      add\n      0x00\n      swap1\n      sload\n      swap1\n      0x0100\n      exp\n      swap1\n      div\n      0xffffffffffffffffffffffffffffffffffffffff\n      and\n        /* \"contracts/DDTMasterChef.sol\":30630:30650  pool.lpToken.approve */\n      0xffffffffffffffffffffffffffffffffffffffff\n      and\n      0x095ea7b3\n        /* \"contracts/DDTMasterChef.sol\":30659:30663  pool */\n      dup3\n        /* \"contracts/DDTMasterChef.sol\":30659:30678  pool.poolMasterChef */\n      0x04\n      add\n      0x00\n      swap1\n      sload\n      swap1\n      0x0100\n      exp\n      swap1\n      div\n      0xffffffffffffffffffffffffffffffffffffffff\n      and\n        /* \"contracts/DDTMasterChef.sol\":30680:30693  approveAmount */\n      sload(0x0b)\n        /* \"contracts/DDTMasterChef.sol\":30630:30694  pool.lpToken.approve(address(pool.poolMasterChef),approveAmount) */\n      mload(0x40)\n      dup4\n      0xffffffff\n      and\n      0xe0\n      shl\n      dup2\n      mstore\n      0x04\n      add\n      tag_437\n      swap3\n      swap2\n      swap1\n      tag_231\n      jump\t// in\n    tag_437:\n      0x20\n      mload(0x40)\n      dup1\n      dup4\n      sub\n      dup2\n      0x00\n      dup8\n      dup1\n      extcodesize\n      iszero\n      dup1\n      iszero\n      tag_438\n      jumpi\n      0x00\n      dup1\n      revert\n    tag_438:\n      pop\n      gas\n      call\n      iszero\n      dup1\n      iszero\n      tag_440\n      jumpi\n      returndatasize\n      0x00\n      dup1\n      returndatacopy\n      revert(0x00, returndatasize)\n    tag_440:\n      pop\n      pop\n      pop\n      pop\n      mload(0x40)\n      returndatasize\n      not(0x1f)\n      0x1f\n      dup3\n      add\n      and\n      dup3\n      add\n      dup1\n      0x40\n      mstore\n      pop\n      dup2\n      add\n      swap1\n      tag_441\n      swap2\n      swap1\n      tag_236\n      jump\t// in\n    tag_441:\n      pop\n        /* \"contracts/DDTMasterChef.sol\":30705:30709  pool */\n      dup1\n        /* \"contracts/DDTMasterChef.sol\":30705:30721  pool.rewardToken */\n      0x05\n      add\n      0x00\n      swap1\n      sload\n      swap1\n      0x0100\n      exp\n      swap1\n      div\n      0xffffffffffffffffffffffffffffffffffffffff\n      and\n        /* \"contracts/DDTMasterChef.sol\":30705:30729  pool.rewardToken.approve */\n      0xffffffffffffffffffffffffffffffffffffffff\n      and\n      0x095ea7b3\n        /* \"contracts/DDTMasterChef.sol\":30738:30742  this */\n      address\n        /* \"contracts/DDTMasterChef.sol\":30745:30758  approveAmount */\n      sload(0x0b)\n        /* \"contracts/DDTMasterChef.sol\":30705:30759  pool.rewardToken.approve(address(this), approveAmount) */\n      mload(0x40)\n      dup4\n      0xffffffff\n      and\n      0xe0\n      shl\n      dup2\n      mstore\n      0x04\n      add\n      tag_442\n      swap3\n      swap2\n      swap1\n      tag_231\n      jump\t// in\n    tag_442:\n      0x20\n      mload(0x40)\n      dup1\n      dup4\n      sub\n      dup2\n      0x00\n      dup8\n      dup1\n      extcodesize\n      iszero\n      dup1\n      iszero\n      tag_443\n      jumpi\n      0x00\n      dup1\n      revert\n    tag_443:\n      pop\n      gas\n      call\n      iszero\n      dup1\n      iszero\n      tag_445\n      jumpi\n      returndatasize\n      0x00\n      dup1\n      returndatacopy\n      revert(0x00, returndatasize)\n    tag_445:\n      pop\n      pop\n      pop\n      pop\n      mload(0x40)\n      returndatasize\n      not(0x1f)\n      0x1f\n      dup3\n      add\n      and\n      dup3\n      add\n      dup1\n      0x40\n      mstore\n      pop\n      dup2\n      add\n      swap1\n      tag_446\n      swap2\n      swap1\n      tag_236\n      jump\t// in\n    tag_446:\n      pop\n        /* \"contracts/DDTMasterChef.sol\":30570:30767  {\r... */\n      pop\n        /* \"contracts/DDTMasterChef.sol\":30529:30767  function enablePool(uint256 _pid) public {\r... */\n      pop\n      jump\t// out\n        /* \"contracts/DDTMasterChef.sol\":21014:21215  function transferOwnership(address newOwner) public virtual onlyOwner {\r... */\n    tag_157:\n        /* \"contracts/DDTMasterChef.sol\":20336:20348  _msgSender() */\n      tag_448\n        /* \"contracts/DDTMasterChef.sol\":20336:20346  _msgSender */\n      tag_265\n        /* \"contracts/DDTMasterChef.sol\":20336:20348  _msgSender() */\n      jump\t// in\n    tag_448:\n        /* \"contracts/DDTMasterChef.sol\":20325:20348  owner() == _msgSender() */\n      0xffffffffffffffffffffffffffffffffffffffff\n      and\n        /* \"contracts/DDTMasterChef.sol\":20325:20332  owner() */\n      tag_449\n        /* \"contracts/DDTMasterChef.sol\":20325:20330  owner */\n      tag_114\n        /* \"contracts/DDTMasterChef.sol\":20325:20332  owner() */\n      jump\t// in\n    tag_449:\n        /* \"contracts/DDTMasterChef.sol\":20325:20348  owner() == _msgSender() */\n      0xffffffffffffffffffffffffffffffffffffffff\n      and\n      eq\n        /* \"contracts/DDTMasterChef.sol\":20317:20385  require(owner() == _msgSender(), \"Ownable: caller is not the owner\") */\n      tag_450\n      jumpi\n      mload(0x40)\n      0x08c379a000000000000000000000000000000000000000000000000000000000\n      dup2\n      mstore\n      0x04\n      add\n      tag_451\n      swap1\n      tag_269\n      jump\t// in\n    tag_451:\n      mload(0x40)\n      dup1\n      swap2\n      sub\n      swap1\n      revert\n    tag_450:\n        /* \"contracts/DDTMasterChef.sol\":21123:21124  0 */\n      0x00\n        /* \"contracts/DDTMasterChef.sol\":21103:21125  newOwner != address(0) */\n      0xffffffffffffffffffffffffffffffffffffffff\n      and\n        /* \"contracts/DDTMasterChef.sol\":21103:21111  newOwner */\n      dup2\n        /* \"contracts/DDTMasterChef.sol\":21103:21125  newOwner != address(0) */\n      0xffffffffffffffffffffffffffffffffffffffff\n      and\n      eq\n      iszero\n        /* \"contracts/DDTMasterChef.sol\":21095:21168  require(newOwner != address(0), \"Ownable: new owner is the zero address\") */\n      tag_453\n      jumpi\n      mload(0x40)\n      0x08c379a000000000000000000000000000000000000000000000000000000000\n      dup2\n      mstore\n      0x04\n      add\n      tag_454\n      swap1\n      tag_455\n      jump\t// in\n    tag_454:\n      mload(0x40)\n      dup1\n      swap2\n      sub\n      swap1\n      revert\n    tag_453:\n        /* \"contracts/DDTMasterChef.sol\":21179:21207  _transferOwnership(newOwner) */\n      tag_456\n        /* \"contracts/DDTMasterChef.sol\":21198:21206  newOwner */\n      dup2\n        /* \"contracts/DDTMasterChef.sol\":21179:21197  _transferOwnership */\n      tag_372\n        /* \"contracts/DDTMasterChef.sol\":21179:21207  _transferOwnership(newOwner) */\n      jump\t// in\n    tag_456:\n        /* \"contracts/DDTMasterChef.sol\":21014:21215  function transferOwnership(address newOwner) public virtual onlyOwner {\r... */\n      pop\n      jump\t// out\n        /* \"contracts/DDTMasterChef.sol\":24421:24447  uint256 public DDTPerBlock */\n    tag_159:\n      sload(0x03)\n      dup2\n      jump\t// out\n        /* \"contracts/DDTMasterChef.sol\":1757:2228  function mul(uint256 a, uint256 b) internal pure returns (uint256) {\r... */\n    tag_174:\n        /* \"contracts/DDTMasterChef.sol\":1815:1822  uint256 */\n      0x00\n        /* \"contracts/DDTMasterChef.sol\":2065:2066  0 */\n      dup1\n        /* \"contracts/DDTMasterChef.sol\":2060:2061  a */\n      dup4\n        /* \"contracts/DDTMasterChef.sol\":2060:2066  a == 0 */\n      eq\n        /* \"contracts/DDTMasterChef.sol\":2056:2103  if (a == 0) {\r... */\n      iszero\n      tag_458\n      jumpi\n        /* \"contracts/DDTMasterChef.sol\":2090:2091  0 */\n      0x00\n        /* \"contracts/DDTMasterChef.sol\":2083:2091  return 0 */\n      swap1\n      pop\n      jump(tag_457)\n        /* \"contracts/DDTMasterChef.sol\":2056:2103  if (a == 0) {\r... */\n    tag_458:\n        /* \"contracts/DDTMasterChef.sol\":2115:2124  uint256 c */\n      0x00\n        /* \"contracts/DDTMasterChef.sol\":2131:2132  b */\n      dup3\n        /* \"contracts/DDTMasterChef.sol\":2127:2128  a */\n      dup5\n        /* \"contracts/DDTMasterChef.sol\":2127:2132  a * b */\n      tag_459\n      swap2\n      swap1\n      tag_460\n      jump\t// in\n    tag_459:\n        /* \"contracts/DDTMasterChef.sol\":2115:2132  uint256 c = a * b */\n      swap1\n      pop\n        /* \"contracts/DDTMasterChef.sol\":2160:2161  b */\n      dup3\n        /* \"contracts/DDTMasterChef.sol\":2155:2156  a */\n      dup5\n        /* \"contracts/DDTMasterChef.sol\":2151:2152  c */\n      dup3\n        /* \"contracts/DDTMasterChef.sol\":2151:2156  c / a */\n      tag_461\n      swap2\n      swap1\n      tag_462\n      jump\t// in\n    tag_461:\n        /* \"contracts/DDTMasterChef.sol\":2151:2161  c / a == b */\n      eq\n        /* \"contracts/DDTMasterChef.sol\":2143:2199  require(c / a == b, \"SafeMath: multiplication overflow\") */\n      tag_463\n      jumpi\n      mload(0x40)\n      0x08c379a000000000000000000000000000000000000000000000000000000000\n      dup2\n      mstore\n      0x04\n      add\n      tag_464\n      swap1\n      tag_465\n      jump\t// in\n    tag_464:\n      mload(0x40)\n      dup1\n      swap2\n      sub\n      swap1\n      revert\n    tag_463:\n        /* \"contracts/DDTMasterChef.sol\":2219:2220  c */\n      dup1\n        /* \"contracts/DDTMasterChef.sol\":2212:2220  return c */\n      swap2\n      pop\n      pop\n        /* \"contracts/DDTMasterChef.sol\":1757:2228  function mul(uint256 a, uint256 b) internal pure returns (uint256) {\r... */\n    tag_457:\n      swap3\n      swap2\n      pop\n      pop\n      jump\t// out\n        /* \"contracts/DDTMasterChef.sol\":2696:2828  function div(uint256 a, uint256 b) internal pure returns (uint256) {\r... */\n    tag_175:\n        /* \"contracts/DDTMasterChef.sol\":2754:2761  uint256 */\n      0x00\n        /* \"contracts/DDTMasterChef.sol\":2781:2820  div(a, b, \"SafeMath: division by zero\") */\n      tag_467\n        /* \"contracts/DDTMasterChef.sol\":2785:2786  a */\n      dup4\n        /* \"contracts/DDTMasterChef.sol\":2788:2789  b */\n      dup4\n        /* \"contracts/DDTMasterChef.sol\":2781:2820  div(a, b, \"SafeMath: division by zero\") */\n      mload(0x40)\n      dup1\n      0x40\n      add\n      0x40\n      mstore\n      dup1\n      0x1a\n      dup2\n      mstore\n      0x20\n      add\n      0x536166654d6174683a206469766973696f6e206279207a65726f000000000000\n      dup2\n      mstore\n      pop\n        /* \"contracts/DDTMasterChef.sol\":2781:2784  div */\n      tag_468\n        /* \"contracts/DDTMasterChef.sol\":2781:2820  div(a, b, \"SafeMath: division by zero\") */\n      jump\t// in\n    tag_467:\n        /* \"contracts/DDTMasterChef.sol\":2774:2820  return div(a, b, \"SafeMath: division by zero\") */\n      swap1\n      pop\n        /* \"contracts/DDTMasterChef.sol\":2696:2828  function div(uint256 a, uint256 b) internal pure returns (uint256) {\r... */\n      swap3\n      swap2\n      pop\n      pop\n      jump\t// out\n        /* \"contracts/DDTMasterChef.sol\":841:977  function sub(uint256 a, uint256 b) internal pure returns (uint256) {\r... */\n    tag_176:\n        /* \"contracts/DDTMasterChef.sol\":899:906  uint256 */\n      0x00\n        /* \"contracts/DDTMasterChef.sol\":926:969  sub(a, b, \"SafeMath: subtraction overflow\") */\n      tag_470\n        /* \"contracts/DDTMasterChef.sol\":930:931  a */\n      dup4\n        /* \"contracts/DDTMasterChef.sol\":933:934  b */\n      dup4\n        /* \"contracts/DDTMasterChef.sol\":926:969  sub(a, b, \"SafeMath: subtraction overflow\") */\n      mload(0x40)\n      dup1\n      0x40\n      add\n      0x40\n      mstore\n      dup1\n      0x1e\n      dup2\n      mstore\n      0x20\n      add\n      0x536166654d6174683a207375627472616374696f6e206f766572666c6f770000\n      dup2\n      mstore\n      pop\n        /* \"contracts/DDTMasterChef.sol\":926:929  sub */\n      tag_471\n        /* \"contracts/DDTMasterChef.sol\":926:969  sub(a, b, \"SafeMath: subtraction overflow\") */\n      jump\t// in\n    tag_470:\n        /* \"contracts/DDTMasterChef.sol\":919:969  return sub(a, b, \"SafeMath: subtraction overflow\") */\n      swap1\n      pop\n        /* \"contracts/DDTMasterChef.sol\":841:977  function sub(uint256 a, uint256 b) internal pure returns (uint256) {\r... */\n      swap3\n      swap2\n      pop\n      pop\n      jump\t// out\n        /* \"contracts/DDTMasterChef.sol\":34888:35159  function safeDDTTransfer(address _to, uint256 _amount) internal {\r... */\n    tag_179:\n        /* \"contracts/DDTMasterChef.sol\":34963:34977  uint256 DDTBal */\n      0x00\n        /* \"contracts/DDTMasterChef.sol\":34980:34983  DDT */\n      0x01\n      0x00\n      swap1\n      sload\n      swap1\n      0x0100\n      exp\n      swap1\n      div\n      0xffffffffffffffffffffffffffffffffffffffff\n      and\n        /* \"contracts/DDTMasterChef.sol\":34980:34993  DDT.balanceOf */\n      0xffffffffffffffffffffffffffffffffffffffff\n      and\n      0x70a08231\n        /* \"contracts/DDTMasterChef.sol\":35002:35006  this */\n      address\n        /* \"contracts/DDTMasterChef.sol\":34980:35008  DDT.balanceOf(address(this)) */\n      mload(0x40)\n      dup3\n      0xffffffff\n      and\n      0xe0\n      shl\n      dup2\n      mstore\n      0x04\n      add\n      tag_473\n      swap2\n      swap1\n      tag_116\n      jump\t// in\n    tag_473:\n      0x20\n      mload(0x40)\n      dup1\n      dup4\n      sub\n      dup2\n      dup7\n      dup1\n      extcodesize\n      iszero\n      dup1\n      iszero\n      tag_474\n      jumpi\n      0x00\n      dup1\n      revert\n    tag_474:\n      pop\n      gas\n      staticcall\n      iszero\n      dup1\n      iszero\n      tag_476\n      jumpi\n      returndatasize\n      0x00\n      dup1\n      returndatacopy\n      revert(0x00, returndatasize)\n    tag_476:\n      pop\n      pop\n      pop\n      pop\n      mload(0x40)\n      returndatasize\n      not(0x1f)\n      0x1f\n      dup3\n      add\n      and\n      dup3\n      add\n      dup1\n      0x40\n      mstore\n      pop\n      dup2\n      add\n      swap1\n      tag_477\n      swap2\n      swap1\n      tag_186\n      jump\t// in\n    tag_477:\n        /* \"contracts/DDTMasterChef.sol\":34963:35008  uint256 DDTBal = DDT.balanceOf(address(this)) */\n      swap1\n      pop\n        /* \"contracts/DDTMasterChef.sol\":35033:35039  DDTBal */\n      dup1\n        /* \"contracts/DDTMasterChef.sol\":35023:35030  _amount */\n      dup3\n        /* \"contracts/DDTMasterChef.sol\":35023:35039  _amount > DDTBal */\n      gt\n        /* \"contracts/DDTMasterChef.sol\":35019:35152  if (_amount > DDTBal) {\r... */\n      iszero\n      tag_478\n      jumpi\n        /* \"contracts/DDTMasterChef.sol\":35056:35059  DDT */\n      0x01\n      0x00\n      swap1\n      sload\n      swap1\n      0x0100\n      exp\n      swap1\n      div\n      0xffffffffffffffffffffffffffffffffffffffff\n      and\n        /* \"contracts/DDTMasterChef.sol\":35056:35068  DDT.transfer */\n      0xffffffffffffffffffffffffffffffffffffffff\n      and\n      0xa9059cbb\n        /* \"contracts/DDTMasterChef.sol\":35069:35072  _to */\n      dup5\n        /* \"contracts/DDTMasterChef.sol\":35074:35080  DDTBal */\n      dup4\n        /* \"contracts/DDTMasterChef.sol\":35056:35081  DDT.transfer(_to, DDTBal) */\n      mload(0x40)\n      dup4\n      0xffffffff\n      and\n      0xe0\n      shl\n      dup2\n      mstore\n      0x04\n      add\n      tag_479\n      swap3\n      swap2\n      swap1\n      tag_231\n      jump\t// in\n    tag_479:\n      0x20\n      mload(0x40)\n      dup1\n      dup4\n      sub\n      dup2\n      0x00\n      dup8\n      dup1\n      extcodesize\n      iszero\n      dup1\n      iszero\n      tag_480\n      jumpi\n      0x00\n      dup1\n      revert\n    tag_480:\n      pop\n      gas\n      call\n      iszero\n      dup1\n      iszero\n      tag_482\n      jumpi\n      returndatasize\n      0x00\n      dup1\n      returndatacopy\n      revert(0x00, returndatasize)\n    tag_482:\n      pop\n      pop\n      pop\n      pop\n      mload(0x40)\n      returndatasize\n      not(0x1f)\n      0x1f\n      dup3\n      add\n      and\n      dup3\n      add\n      dup1\n      0x40\n      mstore\n      pop\n      dup2\n      add\n      swap1\n      tag_483\n      swap2\n      swap1\n      tag_236\n      jump\t// in\n    tag_483:\n      pop\n        /* \"contracts/DDTMasterChef.sol\":35019:35152  if (_amount > DDTBal) {\r... */\n      jump(tag_484)\n    tag_478:\n        /* \"contracts/DDTMasterChef.sol\":35114:35117  DDT */\n      0x01\n      0x00\n      swap1\n      sload\n      swap1\n      0x0100\n      exp\n      swap1\n      div\n      0xffffffffffffffffffffffffffffffffffffffff\n      and\n        /* \"contracts/DDTMasterChef.sol\":35114:35126  DDT.transfer */\n      0xffffffffffffffffffffffffffffffffffffffff\n      and\n      0xa9059cbb\n        /* \"contracts/DDTMasterChef.sol\":35127:35130  _to */\n      dup5\n        /* \"contracts/DDTMasterChef.sol\":35132:35139  _amount */\n      dup5\n        /* \"contracts/DDTMasterChef.sol\":35114:35140  DDT.transfer(_to, _amount) */\n      mload(0x40)\n      dup4\n      0xffffffff\n      and\n      0xe0\n      shl\n      dup2\n      mstore\n      0x04\n      add\n      tag_485\n      swap3\n      swap2\n      swap1\n      tag_231\n      jump\t// in\n    tag_485:\n      0x20\n      mload(0x40)\n      dup1\n      dup4\n      sub\n      dup2\n      0x00\n      dup8\n      dup1\n      extcodesize\n      iszero\n      dup1\n      iszero\n      tag_486\n      jumpi\n      0x00\n      dup1\n      revert\n    tag_486:\n      pop\n      gas\n      call\n      iszero\n      dup1\n      iszero\n      tag_488\n      jumpi\n      returndatasize\n      0x00\n      dup1\n      returndatacopy\n      revert(0x00, returndatasize)\n    tag_488:\n      pop\n      pop\n      pop\n      pop\n      mload(0x40)\n      returndatasize\n      not(0x1f)\n      0x1f\n      dup3\n      add\n      and\n      dup3\n      add\n      dup1\n      0x40\n      mstore\n      pop\n      dup2\n      add\n      swap1\n      tag_489\n      swap2\n      swap1\n      tag_236\n      jump\t// in\n    tag_489:\n      pop\n        /* \"contracts/DDTMasterChef.sol\":35019:35152  if (_amount > DDTBal) {\r... */\n    tag_484:\n        /* \"contracts/DDTMasterChef.sol\":34952:35159  {\r... */\n      pop\n        /* \"contracts/DDTMasterChef.sol\":34888:35159  function safeDDTTransfer(address _to, uint256 _amount) internal {\r... */\n      pop\n      pop\n      jump\t// out\n        /* \"contracts/DDTMasterChef.sol\":16369:16617  function safeTransferFrom(\r... */\n    tag_193:\n        /* \"contracts/DDTMasterChef.sol\":16513:16609  _callOptionalReturn(token, abi.encodeWithSelector(token.transferFrom.selector, from, to, value)) */\n      tag_491\n        /* \"contracts/DDTMasterChef.sol\":16533:16538  token */\n      dup5\n        /* \"contracts/DDTMasterChef.sol\":16563:16590  token.transferFrom.selector */\n      shl(0xe0, 0x23b872dd)\n        /* \"contracts/DDTMasterChef.sol\":16592:16596  from */\n      dup6\n        /* \"contracts/DDTMasterChef.sol\":16598:16600  to */\n      dup6\n        /* \"contracts/DDTMasterChef.sol\":16602:16607  value */\n      dup6\n        /* \"contracts/DDTMasterChef.sol\":16540:16608  abi.encodeWithSelector(token.transferFrom.selector, from, to, value) */\n      add(0x24, mload(0x40))\n      tag_492\n      swap4\n      swap3\n      swap2\n      swap1\n      tag_493\n      jump\t// in\n    tag_492:\n      mload(0x40)\n      0x20\n      dup2\n      dup4\n      sub\n      sub\n      dup2\n      mstore\n      swap1\n      0x40\n      mstore\n      swap1\n      not(0xffffffffffffffffffffffffffffffffffffffffffffffffffffffff)\n      and\n      0x20\n      dup3\n      add\n      dup1\n      mload\n      0xffffffffffffffffffffffffffffffffffffffffffffffffffffffff\n      dup4\n      dup2\n      dup4\n      and\n      or\n      dup4\n      mstore\n      pop\n      pop\n      pop\n      pop\n        /* \"contracts/DDTMasterChef.sol\":16513:16532  _callOptionalReturn */\n      tag_494\n        /* \"contracts/DDTMasterChef.sol\":16513:16609  _callOptionalReturn(token, abi.encodeWithSelector(token.transferFrom.selector, from, to, value)) */\n      jump\t// in\n    tag_491:\n        /* \"contracts/DDTMasterChef.sol\":16369:16617  function safeTransferFrom(\r... */\n      pop\n      pop\n      pop\n      pop\n      jump\t// out\n        /* \"contracts/DDTMasterChef.sol\":385:566  function add(uint256 a, uint256 b) internal pure returns (uint256) {\r... */\n    tag_206:\n        /* \"contracts/DDTMasterChef.sol\":443:450  uint256 */\n      0x00\n        /* \"contracts/DDTMasterChef.sol\":463:472  uint256 c */\n      dup1\n        /* \"contracts/DDTMasterChef.sol\":479:480  b */\n      dup3\n        /* \"contracts/DDTMasterChef.sol\":475:476  a */\n      dup5\n        /* \"contracts/DDTMasterChef.sol\":475:480  a + b */\n      tag_496\n      swap2\n      swap1\n      tag_497\n      jump\t// in\n    tag_496:\n        /* \"contracts/DDTMasterChef.sol\":463:480  uint256 c = a + b */\n      swap1\n      pop\n        /* \"contracts/DDTMasterChef.sol\":504:505  a */\n      dup4\n        /* \"contracts/DDTMasterChef.sol\":499:500  c */\n      dup2\n        /* \"contracts/DDTMasterChef.sol\":499:505  c >= a */\n      lt\n      iszero\n        /* \"contracts/DDTMasterChef.sol\":491:537  require(c >= a, \"SafeMath: addition overflow\") */\n      tag_498\n      jumpi\n      mload(0x40)\n      0x08c379a000000000000000000000000000000000000000000000000000000000\n      dup2\n      mstore\n      0x04\n      add\n      tag_499\n      swap1\n      tag_500\n      jump\t// in\n    tag_499:\n      mload(0x40)\n      dup1\n      swap2\n      sub\n      swap1\n      revert\n    tag_498:\n        /* \"contracts/DDTMasterChef.sol\":557:558  c */\n      dup1\n        /* \"contracts/DDTMasterChef.sol\":550:558  return c */\n      swap2\n      pop\n      pop\n        /* \"contracts/DDTMasterChef.sol\":385:566  function add(uint256 a, uint256 b) internal pure returns (uint256) {\r... */\n      swap3\n      swap2\n      pop\n      pop\n      jump\t// out\n        /* \"contracts/DDTMasterChef.sol\":16150:16361  function safeTransfer(\r... */\n    tag_217:\n        /* \"contracts/DDTMasterChef.sol\":16267:16353  _callOptionalReturn(token, abi.encodeWithSelector(token.transfer.selector, to, value)) */\n      tag_502\n        /* \"contracts/DDTMasterChef.sol\":16287:16292  token */\n      dup4\n        /* \"contracts/DDTMasterChef.sol\":16317:16340  token.transfer.selector */\n      shl(0xe0, 0xa9059cbb)\n        /* \"contracts/DDTMasterChef.sol\":16342:16344  to */\n      dup5\n        /* \"contracts/DDTMasterChef.sol\":16346:16351  value */\n      dup5\n        /* \"contracts/DDTMasterChef.sol\":16294:16352  abi.encodeWithSelector(token.transfer.selector, to, value) */\n      add(0x24, mload(0x40))\n      tag_503\n      swap3\n      swap2\n      swap1\n      tag_231\n      jump\t// in\n    tag_503:\n      mload(0x40)\n      0x20\n      dup2\n      dup4\n      sub\n      sub\n      dup2\n      mstore\n      swap1\n      0x40\n      mstore\n      swap1\n      not(0xffffffffffffffffffffffffffffffffffffffffffffffffffffffff)\n      and\n      0x20\n      dup3\n      add\n      dup1\n      mload\n      0xffffffffffffffffffffffffffffffffffffffffffffffffffffffff\n      dup4\n      dup2\n      dup4\n      and\n      or\n      dup4\n      mstore\n      pop\n      pop\n      pop\n      pop\n        /* \"contracts/DDTMasterChef.sol\":16267:16286  _callOptionalReturn */\n      tag_494\n        /* \"contracts/DDTMasterChef.sol\":16267:16353  _callOptionalReturn(token, abi.encodeWithSelector(token.transfer.selector, to, value)) */\n      jump\t// in\n    tag_502:\n        /* \"contracts/DDTMasterChef.sol\":16150:16361  function safeTransfer(\r... */\n      pop\n      pop\n      pop\n      jump\t// out\n        /* \"contracts/DDTMasterChef.sol\":19479:19577  function _msgSender() internal view virtual returns (address) {\r... */\n    tag_265:\n        /* \"contracts/DDTMasterChef.sol\":19532:19539  address */\n      0x00\n        /* \"contracts/DDTMasterChef.sol\":19559:19569  msg.sender */\n      caller\n        /* \"contracts/DDTMasterChef.sol\":19552:19569  return msg.sender */\n      swap1\n      pop\n        /* \"contracts/DDTMasterChef.sol\":19479:19577  function _msgSender() internal view virtual returns (address) {\r... */\n      swap1\n      jump\t// out\n        /* \"contracts/DDTMasterChef.sol\":16886:17502  function safeApprove(\r... */\n    tag_279:\n        /* \"contracts/DDTMasterChef.sol\":17259:17260  0 */\n      0x00\n        /* \"contracts/DDTMasterChef.sol\":17250:17255  value */\n      dup2\n        /* \"contracts/DDTMasterChef.sol\":17250:17260  value == 0 */\n      eq\n        /* \"contracts/DDTMasterChef.sol\":17249:17311  (value == 0) || (token.allowance(address(this), spender) == 0) */\n      dup1\n      tag_506\n      jumpi\n      pop\n        /* \"contracts/DDTMasterChef.sol\":17309:17310  0 */\n      0x00\n        /* \"contracts/DDTMasterChef.sol\":17266:17271  token */\n      dup4\n        /* \"contracts/DDTMasterChef.sol\":17266:17281  token.allowance */\n      0xffffffffffffffffffffffffffffffffffffffff\n      and\n      0xdd62ed3e\n        /* \"contracts/DDTMasterChef.sol\":17290:17294  this */\n      address\n        /* \"contracts/DDTMasterChef.sol\":17297:17304  spender */\n      dup6\n        /* \"contracts/DDTMasterChef.sol\":17266:17305  token.allowance(address(this), spender) */\n      mload(0x40)\n      dup4\n      0xffffffff\n      and\n      0xe0\n      shl\n      dup2\n      mstore\n      0x04\n      add\n      tag_507\n      swap3\n      swap2\n      swap1\n      tag_181\n      jump\t// in\n    tag_507:\n      0x20\n      mload(0x40)\n      dup1\n      dup4\n      sub\n      dup2\n      dup7\n      dup1\n      extcodesize\n      iszero\n      dup1\n      iszero\n      tag_508\n      jumpi\n      0x00\n      dup1\n      revert\n    tag_508:\n      pop\n      gas\n      staticcall\n      iszero\n      dup1\n      iszero\n      tag_510\n      jumpi\n      returndatasize\n      0x00\n      dup1\n      returndatacopy\n      revert(0x00, returndatasize)\n    tag_510:\n      pop\n      pop\n      pop\n      pop\n      mload(0x40)\n      returndatasize\n      not(0x1f)\n      0x1f\n      dup3\n      add\n      and\n      dup3\n      add\n      dup1\n      0x40\n      mstore\n      pop\n      dup2\n      add\n      swap1\n      tag_511\n      swap2\n      swap1\n      tag_186\n      jump\t// in\n    tag_511:\n        /* \"contracts/DDTMasterChef.sol\":17266:17310  token.allowance(address(this), spender) == 0 */\n      eq\n        /* \"contracts/DDTMasterChef.sol\":17249:17311  (value == 0) || (token.allowance(address(this), spender) == 0) */\n    tag_506:\n        /* \"contracts/DDTMasterChef.sol\":17227:17393  require(\r... */\n      tag_512\n      jumpi\n      mload(0x40)\n      0x08c379a000000000000000000000000000000000000000000000000000000000\n      dup2\n      mstore\n      0x04\n      add\n      tag_513\n      swap1\n      tag_514\n      jump\t// in\n    tag_513:\n      mload(0x40)\n      dup1\n      swap2\n      sub\n      swap1\n      revert\n    tag_512:\n        /* \"contracts/DDTMasterChef.sol\":17404:17494  _callOptionalReturn(token, abi.encodeWithSelector(token.approve.selector, spender, value)) */\n      tag_515\n        /* \"contracts/DDTMasterChef.sol\":17424:17429  token */\n      dup4\n        /* \"contracts/DDTMasterChef.sol\":17454:17476  token.approve.selector */\n      shl(0xe0, 0x095ea7b3)\n        /* \"contracts/DDTMasterChef.sol\":17478:17485  spender */\n      dup5\n        /* \"contracts/DDTMasterChef.sol\":17487:17492  value */\n      dup5\n        /* \"contracts/DDTMasterChef.sol\":17431:17493  abi.encodeWithSelector(token.approve.selector, spender, value) */\n      add(0x24, mload(0x40))\n      tag_516\n      swap3\n      swap2\n      swap1\n      tag_231\n      jump\t// in\n    tag_516:\n      mload(0x40)\n      0x20\n      dup2\n      dup4\n      sub\n      sub\n      dup2\n      mstore\n      swap1\n      0x40\n      mstore\n      swap1\n      not(0xffffffffffffffffffffffffffffffffffffffffffffffffffffffff)\n      and\n      0x20\n      dup3\n      add\n      dup1\n      mload\n      0xffffffffffffffffffffffffffffffffffffffffffffffffffffffff\n      dup4\n      dup2\n      dup4\n      and\n      or\n      dup4\n      mstore\n      pop\n      pop\n      pop\n      pop\n        /* \"contracts/DDTMasterChef.sol\":17404:17423  _callOptionalReturn */\n      tag_494\n        /* \"contracts/DDTMasterChef.sol\":17404:17494  _callOptionalReturn(token, abi.encodeWithSelector(token.approve.selector, spender, value)) */\n      jump\t// in\n    tag_515:\n        /* \"contracts/DDTMasterChef.sol\":16886:17502  function safeApprove(\r... */\n      pop\n      pop\n      pop\n      jump\t// out\n        /* \"contracts/DDTMasterChef.sol\":21375:21566  function _transferOwnership(address newOwner) internal virtual {\r... */\n    tag_372:\n        /* \"contracts/DDTMasterChef.sol\":21449:21465  address oldOwner */\n      0x00\n        /* \"contracts/DDTMasterChef.sol\":21468:21474  _owner */\n      dup1\n      0x00\n      swap1\n      sload\n      swap1\n      0x0100\n      exp\n      swap1\n      div\n      0xffffffffffffffffffffffffffffffffffffffff\n      and\n        /* \"contracts/DDTMasterChef.sol\":21449:21474  address oldOwner = _owner */\n      swap1\n      pop\n        /* \"contracts/DDTMasterChef.sol\":21494:21502  newOwner */\n      dup2\n        /* \"contracts/DDTMasterChef.sol\":21485:21491  _owner */\n      0x00\n      dup1\n        /* \"contracts/DDTMasterChef.sol\":21485:21502  _owner = newOwner */\n      0x0100\n      exp\n      dup2\n      sload\n      dup2\n      0xffffffffffffffffffffffffffffffffffffffff\n      mul\n      not\n      and\n      swap1\n      dup4\n      0xffffffffffffffffffffffffffffffffffffffff\n      and\n      mul\n      or\n      swap1\n      sstore\n      pop\n        /* \"contracts/DDTMasterChef.sol\":21549:21557  newOwner */\n      dup2\n        /* \"contracts/DDTMasterChef.sol\":21518:21558  OwnershipTransferred(oldOwner, newOwner) */\n      0xffffffffffffffffffffffffffffffffffffffff\n      and\n        /* \"contracts/DDTMasterChef.sol\":21539:21547  oldOwner */\n      dup2\n        /* \"contracts/DDTMasterChef.sol\":21518:21558  OwnershipTransferred(oldOwner, newOwner) */\n      0xffffffffffffffffffffffffffffffffffffffff\n      and\n      0x8be0079c531659141344cd1fd0a4f28419497f9722a3daafe3b4186f6b6457e0\n      mload(0x40)\n      mload(0x40)\n      dup1\n      swap2\n      sub\n      swap1\n      log3\n        /* \"contracts/DDTMasterChef.sol\":21438:21566  {\r... */\n      pop\n        /* \"contracts/DDTMasterChef.sol\":21375:21566  function _transferOwnership(address newOwner) internal virtual {\r... */\n      pop\n      jump\t// out\n        /* \"contracts/DDTMasterChef.sol\":3358:3703  function div(uint256 a, uint256 b, string memory errorMessage) internal pure returns (uint256) {\r... */\n    tag_468:\n        /* \"contracts/DDTMasterChef.sol\":3444:3451  uint256 */\n      0x00\n        /* \"contracts/DDTMasterChef.sol\":3543:3544  0 */\n      dup1\n        /* \"contracts/DDTMasterChef.sol\":3539:3540  b */\n      dup4\n        /* \"contracts/DDTMasterChef.sol\":3539:3544  b > 0 */\n      gt\n        /* \"contracts/DDTMasterChef.sol\":3546:3558  errorMessage */\n      dup3\n        /* \"contracts/DDTMasterChef.sol\":3531:3559  require(b > 0, errorMessage) */\n      swap1\n      tag_519\n      jumpi\n      mload(0x40)\n      0x08c379a000000000000000000000000000000000000000000000000000000000\n      dup2\n      mstore\n      0x04\n      add\n      tag_520\n      swap2\n      swap1\n      tag_521\n      jump\t// in\n    tag_520:\n      mload(0x40)\n      dup1\n      swap2\n      sub\n      swap1\n      revert\n    tag_519:\n      pop\n        /* \"contracts/DDTMasterChef.sol\":3570:3579  uint256 c */\n      0x00\n        /* \"contracts/DDTMasterChef.sol\":3586:3587  b */\n      dup4\n        /* \"contracts/DDTMasterChef.sol\":3582:3583  a */\n      dup6\n        /* \"contracts/DDTMasterChef.sol\":3582:3587  a / b */\n      tag_522\n      swap2\n      swap1\n      tag_462\n      jump\t// in\n    tag_522:\n        /* \"contracts/DDTMasterChef.sol\":3570:3587  uint256 c = a / b */\n      swap1\n      pop\n        /* \"contracts/DDTMasterChef.sol\":3694:3695  c */\n      dup1\n        /* \"contracts/DDTMasterChef.sol\":3687:3695  return c */\n      swap2\n      pop\n      pop\n        /* \"contracts/DDTMasterChef.sol\":3358:3703  function div(uint256 a, uint256 b, string memory errorMessage) internal pure returns (uint256) {\r... */\n      swap4\n      swap3\n      pop\n      pop\n      pop\n      jump\t// out\n        /* \"contracts/DDTMasterChef.sol\":1314:1506  function sub(uint256 a, uint256 b, string memory errorMessage) internal pure returns (uint256) {\r... */\n    tag_471:\n        /* \"contracts/DDTMasterChef.sol\":1400:1407  uint256 */\n      0x00\n        /* \"contracts/DDTMasterChef.sol\":1433:1434  a */\n      dup4\n        /* \"contracts/DDTMasterChef.sol\":1428:1429  b */\n      dup4\n        /* \"contracts/DDTMasterChef.sol\":1428:1434  b <= a */\n      gt\n      iszero\n        /* \"contracts/DDTMasterChef.sol\":1436:1448  errorMessage */\n      dup3\n        /* \"contracts/DDTMasterChef.sol\":1420:1449  require(b <= a, errorMessage) */\n      swap1\n      tag_524\n      jumpi\n      mload(0x40)\n      0x08c379a000000000000000000000000000000000000000000000000000000000\n      dup2\n      mstore\n      0x04\n      add\n      tag_525\n      swap2\n      swap1\n      tag_521\n      jump\t// in\n    tag_525:\n      mload(0x40)\n      dup1\n      swap2\n      sub\n      swap1\n      revert\n    tag_524:\n      pop\n        /* \"contracts/DDTMasterChef.sol\":1460:1469  uint256 c */\n      0x00\n        /* \"contracts/DDTMasterChef.sol\":1476:1477  b */\n      dup4\n        /* \"contracts/DDTMasterChef.sol\":1472:1473  a */\n      dup6\n        /* \"contracts/DDTMasterChef.sol\":1472:1477  a - b */\n      tag_526\n      swap2\n      swap1\n      tag_527\n      jump\t// in\n    tag_526:\n        /* \"contracts/DDTMasterChef.sol\":1460:1477  uint256 c = a - b */\n      swap1\n      pop\n        /* \"contracts/DDTMasterChef.sol\":1497:1498  c */\n      dup1\n        /* \"contracts/DDTMasterChef.sol\":1490:1498  return c */\n      swap2\n      pop\n      pop\n        /* \"contracts/DDTMasterChef.sol\":1314:1506  function sub(uint256 a, uint256 b, string memory errorMessage) internal pure returns (uint256) {\r... */\n      swap4\n      swap3\n      pop\n      pop\n      pop\n      jump\t// out\n        /* \"contracts/DDTMasterChef.sol\":18723:19439  function _callOptionalReturn(IERC20 token, bytes memory data) private {\r... */\n    tag_494:\n        /* \"contracts/DDTMasterChef.sol\":19147:19170  bytes memory returndata */\n      0x00\n        /* \"contracts/DDTMasterChef.sol\":19173:19242  address(token).functionCall(data, \"SafeERC20: low-level call failed\") */\n      tag_529\n        /* \"contracts/DDTMasterChef.sol\":19201:19205  data */\n      dup3\n        /* \"contracts/DDTMasterChef.sol\":19173:19242  address(token).functionCall(data, \"SafeERC20: low-level call failed\") */\n      mload(0x40)\n      dup1\n      0x40\n      add\n      0x40\n      mstore\n      dup1\n      0x20\n      dup2\n      mstore\n      0x20\n      add\n      0x5361666545524332303a206c6f772d6c6576656c2063616c6c206661696c6564\n      dup2\n      mstore\n      pop\n        /* \"contracts/DDTMasterChef.sol\":19181:19186  token */\n      dup6\n        /* \"contracts/DDTMasterChef.sol\":19173:19200  address(token).functionCall */\n      0xffffffffffffffffffffffffffffffffffffffff\n      and\n      tag_530\n      swap1\n        /* \"contracts/DDTMasterChef.sol\":19173:19242  address(token).functionCall(data, \"SafeERC20: low-level call failed\") */\n      swap3\n      swap2\n      swap1\n      0xffffffff\n      and\n      jump\t// in\n    tag_529:\n        /* \"contracts/DDTMasterChef.sol\":19147:19242  bytes memory returndata = address(token).functionCall(data, \"SafeERC20: low-level call failed\") */\n      swap1\n      pop\n        /* \"contracts/DDTMasterChef.sol\":19277:19278  0 */\n      0x00\n        /* \"contracts/DDTMasterChef.sol\":19257:19267  returndata */\n      dup2\n        /* \"contracts/DDTMasterChef.sol\":19257:19274  returndata.length */\n      mload\n        /* \"contracts/DDTMasterChef.sol\":19257:19278  returndata.length > 0 */\n      gt\n        /* \"contracts/DDTMasterChef.sol\":19253:19432  if (returndata.length > 0) {\r... */\n      iszero\n      tag_531\n      jumpi\n        /* \"contracts/DDTMasterChef.sol\":19354:19364  returndata */\n      dup1\n        /* \"contracts/DDTMasterChef.sol\":19343:19373  abi.decode(returndata, (bool)) */\n      dup1\n      0x20\n      add\n      swap1\n      mload\n      dup2\n      add\n      swap1\n      tag_532\n      swap2\n      swap1\n      tag_236\n      jump\t// in\n    tag_532:\n        /* \"contracts/DDTMasterChef.sol\":19335:19420  require(abi.decode(returndata, (bool)), \"SafeERC20: ERC20 operation did not succeed\") */\n      tag_533\n      jumpi\n      mload(0x40)\n      0x08c379a000000000000000000000000000000000000000000000000000000000\n      dup2\n      mstore\n      0x04\n      add\n      tag_534\n      swap1\n      tag_535\n      jump\t// in\n    tag_534:\n      mload(0x40)\n      dup1\n      swap2\n      sub\n      swap1\n      revert\n    tag_533:\n        /* \"contracts/DDTMasterChef.sol\":19253:19432  if (returndata.length > 0) {\r... */\n    tag_531:\n        /* \"contracts/DDTMasterChef.sol\":18793:19439  {\r... */\n      pop\n        /* \"contracts/DDTMasterChef.sol\":18723:19439  function _callOptionalReturn(IERC20 token, bytes memory data) private {\r... */\n      pop\n      pop\n      jump\t// out\n        /* \"contracts/DDTMasterChef.sol\":11566:11795  function functionCall(\r... */\n    tag_530:\n        /* \"contracts/DDTMasterChef.sol\":11703:11715  bytes memory */\n      0x60\n        /* \"contracts/DDTMasterChef.sol\":11735:11787  functionCallWithValue(target, data, 0, errorMessage) */\n      tag_537\n        /* \"contracts/DDTMasterChef.sol\":11757:11763  target */\n      dup5\n        /* \"contracts/DDTMasterChef.sol\":11765:11769  data */\n      dup5\n        /* \"contracts/DDTMasterChef.sol\":11771:11772  0 */\n      0x00\n        /* \"contracts/DDTMasterChef.sol\":11774:11786  errorMessage */\n      dup6\n        /* \"contracts/DDTMasterChef.sol\":11735:11756  functionCallWithValue */\n      tag_538\n        /* \"contracts/DDTMasterChef.sol\":11735:11787  functionCallWithValue(target, data, 0, errorMessage) */\n      jump\t// in\n    tag_537:\n        /* \"contracts/DDTMasterChef.sol\":11728:11787  return functionCallWithValue(target, data, 0, errorMessage) */\n      swap1\n      pop\n        /* \"contracts/DDTMasterChef.sol\":11566:11795  function functionCall(\r... */\n      swap4\n      swap3\n      pop\n      pop\n      pop\n      jump\t// out\n        /* \"contracts/DDTMasterChef.sol\":12686:13196  function functionCallWithValue(\r... */\n    tag_538:\n        /* \"contracts/DDTMasterChef.sol\":12856:12868  bytes memory */\n      0x60\n        /* \"contracts/DDTMasterChef.sol\":12914:12919  value */\n      dup3\n        /* \"contracts/DDTMasterChef.sol\":12889:12910  address(this).balance */\n      selfbalance\n        /* \"contracts/DDTMasterChef.sol\":12889:12919  address(this).balance >= value */\n      lt\n      iszero\n        /* \"contracts/DDTMasterChef.sol\":12881:12962  require(address(this).balance >= value, \"Address: insufficient balance for call\") */\n      tag_540\n      jumpi\n      mload(0x40)\n      0x08c379a000000000000000000000000000000000000000000000000000000000\n      dup2\n      mstore\n      0x04\n      add\n      tag_541\n      swap1\n      tag_542\n      jump\t// in\n    tag_541:\n      mload(0x40)\n      dup1\n      swap2\n      sub\n      swap1\n      revert\n    tag_540:\n        /* \"contracts/DDTMasterChef.sol\":12981:12999  isContract(target) */\n      tag_543\n        /* \"contracts/DDTMasterChef.sol\":12992:12998  target */\n      dup6\n        /* \"contracts/DDTMasterChef.sol\":12981:12991  isContract */\n      tag_544\n        /* \"contracts/DDTMasterChef.sol\":12981:12999  isContract(target) */\n      jump\t// in\n    tag_543:\n        /* \"contracts/DDTMasterChef.sol\":12973:13033  require(isContract(target), \"Address: call to non-contract\") */\n      tag_545\n      jumpi\n      mload(0x40)\n      0x08c379a000000000000000000000000000000000000000000000000000000000\n      dup2\n      mstore\n      0x04\n      add\n      tag_546\n      swap1\n      tag_547\n      jump\t// in\n    tag_546:\n      mload(0x40)\n      dup1\n      swap2\n      sub\n      swap1\n      revert\n    tag_545:\n        /* \"contracts/DDTMasterChef.sol\":13047:13059  bool success */\n      0x00\n        /* \"contracts/DDTMasterChef.sol\":13061:13084  bytes memory returndata */\n      dup1\n        /* \"contracts/DDTMasterChef.sol\":13088:13094  target */\n      dup7\n        /* \"contracts/DDTMasterChef.sol\":13088:13099  target.call */\n      0xffffffffffffffffffffffffffffffffffffffff\n      and\n        /* \"contracts/DDTMasterChef.sol\":13107:13112  value */\n      dup6\n        /* \"contracts/DDTMasterChef.sol\":13114:13118  data */\n      dup8\n        /* \"contracts/DDTMasterChef.sol\":13088:13119  target.call{value: value}(data) */\n      mload(0x40)\n      tag_548\n      swap2\n      swap1\n      tag_549\n      jump\t// in\n    tag_548:\n      0x00\n      mload(0x40)\n      dup1\n      dup4\n      sub\n      dup2\n      dup6\n      dup8\n      gas\n      call\n      swap3\n      pop\n      pop\n      pop\n      returndatasize\n      dup1\n      0x00\n      dup2\n      eq\n      tag_552\n      jumpi\n      mload(0x40)\n      swap2\n      pop\n      and(add(returndatasize, 0x3f), not(0x1f))\n      dup3\n      add\n      0x40\n      mstore\n      returndatasize\n      dup3\n      mstore\n      returndatasize\n      0x00\n      0x20\n      dup5\n      add\n      returndatacopy\n      jump(tag_551)\n    tag_552:\n      0x60\n      swap2\n      pop\n    tag_551:\n      pop\n        /* \"contracts/DDTMasterChef.sol\":13046:13119  (bool success, bytes memory returndata) = target.call{value: value}(data) */\n      swap2\n      pop\n      swap2\n      pop\n        /* \"contracts/DDTMasterChef.sol\":13137:13188  verifyCallResult(success, returndata, errorMessage) */\n      tag_553\n        /* \"contracts/DDTMasterChef.sol\":13154:13161  success */\n      dup3\n        /* \"contracts/DDTMasterChef.sol\":13163:13173  returndata */\n      dup3\n        /* \"contracts/DDTMasterChef.sol\":13175:13187  errorMessage */\n      dup7\n        /* \"contracts/DDTMasterChef.sol\":13137:13153  verifyCallResult */\n      tag_554\n        /* \"contracts/DDTMasterChef.sol\":13137:13188  verifyCallResult(success, returndata, errorMessage) */\n      jump\t// in\n    tag_553:\n        /* \"contracts/DDTMasterChef.sol\":13130:13188  return verifyCallResult(success, returndata, errorMessage) */\n      swap3\n      pop\n      pop\n      pop\n        /* \"contracts/DDTMasterChef.sol\":12686:13196  function functionCallWithValue(\r... */\n      swap5\n      swap4\n      pop\n      pop\n      pop\n      pop\n      jump\t// out\n        /* \"contracts/DDTMasterChef.sol\":8821:9147  function isContract(address account) internal view returns (bool) {\r... */\n    tag_544:\n        /* \"contracts/DDTMasterChef.sol\":8881:8885  bool */\n      0x00\n        /* \"contracts/DDTMasterChef.sol\":9138:9139  0 */\n      dup1\n        /* \"contracts/DDTMasterChef.sol\":9116:9123  account */\n      dup3\n        /* \"contracts/DDTMasterChef.sol\":9116:9135  account.code.length */\n      0xffffffffffffffffffffffffffffffffffffffff\n      and\n      extcodesize\n        /* \"contracts/DDTMasterChef.sol\":9116:9139  account.code.length > 0 */\n      gt\n        /* \"contracts/DDTMasterChef.sol\":9109:9139  return account.code.length > 0 */\n      swap1\n      pop\n        /* \"contracts/DDTMasterChef.sol\":8821:9147  function isContract(address account) internal view returns (bool) {\r... */\n      swap2\n      swap1\n      pop\n      jump\t// out\n        /* \"contracts/DDTMasterChef.sol\":15372:16084  function verifyCallResult(\r... */\n    tag_554:\n        /* \"contracts/DDTMasterChef.sol\":15522:15534  bytes memory */\n      0x60\n        /* \"contracts/DDTMasterChef.sol\":15551:15558  success */\n      dup4\n        /* \"contracts/DDTMasterChef.sol\":15547:16077  if (success) {\r... */\n      iszero\n      tag_557\n      jumpi\n        /* \"contracts/DDTMasterChef.sol\":15582:15592  returndata */\n      dup3\n        /* \"contracts/DDTMasterChef.sol\":15575:15592  return returndata */\n      swap1\n      pop\n      jump(tag_556)\n        /* \"contracts/DDTMasterChef.sol\":15547:16077  if (success) {\r... */\n    tag_557:\n        /* \"contracts/DDTMasterChef.sol\":15716:15717  0 */\n      0x00\n        /* \"contracts/DDTMasterChef.sol\":15696:15706  returndata */\n      dup4\n        /* \"contracts/DDTMasterChef.sol\":15696:15713  returndata.length */\n      mload\n        /* \"contracts/DDTMasterChef.sol\":15696:15717  returndata.length > 0 */\n      gt\n        /* \"contracts/DDTMasterChef.sol\":15692:16066  if (returndata.length > 0) {\r... */\n      iszero\n      tag_559\n      jumpi\n        /* \"contracts/DDTMasterChef.sol\":15894:15904  returndata */\n      dup3\n        /* \"contracts/DDTMasterChef.sol\":15888:15905  mload(returndata) */\n      mload\n        /* \"contracts/DDTMasterChef.sol\":15955:15970  returndata_size */\n      dup1\n        /* \"contracts/DDTMasterChef.sol\":15942:15952  returndata */\n      dup5\n        /* \"contracts/DDTMasterChef.sol\":15938:15940  32 */\n      0x20\n        /* \"contracts/DDTMasterChef.sol\":15934:15953  add(32, returndata) */\n      add\n        /* \"contracts/DDTMasterChef.sol\":15927:15971  revert(add(32, returndata), returndata_size) */\n      revert\n        /* \"contracts/DDTMasterChef.sol\":15692:16066  if (returndata.length > 0) {\r... */\n    tag_559:\n        /* \"contracts/DDTMasterChef.sol\":16037:16049  errorMessage */\n      dup2\n        /* \"contracts/DDTMasterChef.sol\":16030:16050  revert(errorMessage) */\n      mload(0x40)\n      0x08c379a000000000000000000000000000000000000000000000000000000000\n      dup2\n      mstore\n      0x04\n      add\n      tag_561\n      swap2\n      swap1\n      tag_521\n      jump\t// in\n    tag_561:\n      mload(0x40)\n      dup1\n      swap2\n      sub\n      swap1\n      revert\n        /* \"contracts/DDTMasterChef.sol\":15372:16084  function verifyCallResult(\r... */\n    tag_556:\n      swap4\n      swap3\n      pop\n      pop\n      pop\n      jump\t// out\n        /* \"#utility.yul\":7:146   */\n    tag_563:\n        /* \"#utility.yul\":53:58   */\n      0x00\n        /* \"#utility.yul\":91:97   */\n      dup2\n        /* \"#utility.yul\":78:98   */\n      calldataload\n        /* \"#utility.yul\":69:98   */\n      swap1\n      pop\n        /* \"#utility.yul\":107:140   */\n      tag_565\n        /* \"#utility.yul\":134:139   */\n      dup2\n        /* \"#utility.yul\":107:140   */\n      tag_566\n      jump\t// in\n    tag_565:\n        /* \"#utility.yul\":7:146   */\n      swap3\n      swap2\n      pop\n      pop\n      jump\t// out\n        /* \"#utility.yul\":152:285   */\n    tag_567:\n        /* \"#utility.yul\":195:200   */\n      0x00\n        /* \"#utility.yul\":233:239   */\n      dup2\n        /* \"#utility.yul\":220:240   */\n      calldataload\n        /* \"#utility.yul\":211:240   */\n      swap1\n      pop\n        /* \"#utility.yul\":249:279   */\n      tag_569\n        /* \"#utility.yul\":273:278   */\n      dup2\n        /* \"#utility.yul\":249:279   */\n      tag_570\n      jump\t// in\n    tag_569:\n        /* \"#utility.yul\":152:285   */\n      swap3\n      swap2\n      pop\n      pop\n      jump\t// out\n        /* \"#utility.yul\":291:428   */\n    tag_571:\n        /* \"#utility.yul\":345:350   */\n      0x00\n        /* \"#utility.yul\":376:382   */\n      dup2\n        /* \"#utility.yul\":370:383   */\n      mload\n        /* \"#utility.yul\":361:383   */\n      swap1\n      pop\n        /* \"#utility.yul\":392:422   */\n      tag_573\n        /* \"#utility.yul\":416:421   */\n      dup2\n        /* \"#utility.yul\":392:422   */\n      tag_570\n      jump\t// in\n    tag_573:\n        /* \"#utility.yul\":291:428   */\n      swap3\n      swap2\n      pop\n      pop\n      jump\t// out\n        /* \"#utility.yul\":434:601   */\n    tag_574:\n        /* \"#utility.yul\":494:499   */\n      0x00\n        /* \"#utility.yul\":532:538   */\n      dup2\n        /* \"#utility.yul\":519:539   */\n      calldataload\n        /* \"#utility.yul\":510:539   */\n      swap1\n      pop\n        /* \"#utility.yul\":548:595   */\n      tag_576\n        /* \"#utility.yul\":589:594   */\n      dup2\n        /* \"#utility.yul\":548:595   */\n      tag_577\n      jump\t// in\n    tag_576:\n        /* \"#utility.yul\":434:601   */\n      swap3\n      swap2\n      pop\n      pop\n      jump\t// out\n        /* \"#utility.yul\":607:778   */\n    tag_578:\n        /* \"#utility.yul\":678:683   */\n      0x00\n        /* \"#utility.yul\":709:715   */\n      dup2\n        /* \"#utility.yul\":703:716   */\n      mload\n        /* \"#utility.yul\":694:716   */\n      swap1\n      pop\n        /* \"#utility.yul\":725:772   */\n      tag_580\n        /* \"#utility.yul\":766:771   */\n      dup2\n        /* \"#utility.yul\":725:772   */\n      tag_577\n      jump\t// in\n    tag_580:\n        /* \"#utility.yul\":607:778   */\n      swap3\n      swap2\n      pop\n      pop\n      jump\t// out\n        /* \"#utility.yul\":784:961   */\n    tag_581:\n        /* \"#utility.yul\":849:854   */\n      0x00\n        /* \"#utility.yul\":887:893   */\n      dup2\n        /* \"#utility.yul\":874:894   */\n      calldataload\n        /* \"#utility.yul\":865:894   */\n      swap1\n      pop\n        /* \"#utility.yul\":903:955   */\n      tag_583\n        /* \"#utility.yul\":949:954   */\n      dup2\n        /* \"#utility.yul\":903:955   */\n      tag_584\n      jump\t// in\n    tag_583:\n        /* \"#utility.yul\":784:961   */\n      swap3\n      swap2\n      pop\n      pop\n      jump\t// out\n        /* \"#utility.yul\":967:1148   */\n    tag_585:\n        /* \"#utility.yul\":1034:1039   */\n      0x00\n        /* \"#utility.yul\":1072:1078   */\n      dup2\n        /* \"#utility.yul\":1059:1079   */\n      calldataload\n        /* \"#utility.yul\":1050:1079   */\n      swap1\n      pop\n        /* \"#utility.yul\":1088:1142   */\n      tag_587\n        /* \"#utility.yul\":1136:1141   */\n      dup2\n        /* \"#utility.yul\":1088:1142   */\n      tag_588\n      jump\t// in\n    tag_587:\n        /* \"#utility.yul\":967:1148   */\n      swap3\n      swap2\n      pop\n      pop\n      jump\t// out\n        /* \"#utility.yul\":1154:1293   */\n    tag_589:\n        /* \"#utility.yul\":1200:1205   */\n      0x00\n        /* \"#utility.yul\":1238:1244   */\n      dup2\n        /* \"#utility.yul\":1225:1245   */\n      calldataload\n        /* \"#utility.yul\":1216:1245   */\n      swap1\n      pop\n        /* \"#utility.yul\":1254:1287   */\n      tag_591\n        /* \"#utility.yul\":1281:1286   */\n      dup2\n        /* \"#utility.yul\":1254:1287   */\n      tag_592\n      jump\t// in\n    tag_591:\n        /* \"#utility.yul\":1154:1293   */\n      swap3\n      swap2\n      pop\n      pop\n      jump\t// out\n        /* \"#utility.yul\":1299:1442   */\n    tag_593:\n        /* \"#utility.yul\":1356:1361   */\n      0x00\n        /* \"#utility.yul\":1387:1393   */\n      dup2\n        /* \"#utility.yul\":1381:1394   */\n      mload\n        /* \"#utility.yul\":1372:1394   */\n      swap1\n      pop\n        /* \"#utility.yul\":1403:1436   */\n      tag_595\n        /* \"#utility.yul\":1430:1435   */\n      dup2\n        /* \"#utility.yul\":1403:1436   */\n      tag_592\n      jump\t// in\n    tag_595:\n        /* \"#utility.yul\":1299:1442   */\n      swap3\n      swap2\n      pop\n      pop\n      jump\t// out\n        /* \"#utility.yul\":1448:1777   */\n    tag_140:\n        /* \"#utility.yul\":1507:1513   */\n      0x00\n        /* \"#utility.yul\":1556:1558   */\n      0x20\n        /* \"#utility.yul\":1544:1553   */\n      dup3\n        /* \"#utility.yul\":1535:1542   */\n      dup5\n        /* \"#utility.yul\":1531:1554   */\n      sub\n        /* \"#utility.yul\":1527:1559   */\n      slt\n        /* \"#utility.yul\":1524:1643   */\n      iszero\n      tag_597\n      jumpi\n        /* \"#utility.yul\":1562:1641   */\n      tag_598\n      tag_599\n      jump\t// in\n    tag_598:\n        /* \"#utility.yul\":1524:1643   */\n    tag_597:\n        /* \"#utility.yul\":1682:1683   */\n      0x00\n        /* \"#utility.yul\":1707:1760   */\n      tag_600\n        /* \"#utility.yul\":1752:1759   */\n      dup5\n        /* \"#utility.yul\":1743:1749   */\n      dup3\n        /* \"#utility.yul\":1732:1741   */\n      dup6\n        /* \"#utility.yul\":1728:1750   */\n      add\n        /* \"#utility.yul\":1707:1760   */\n      tag_563\n      jump\t// in\n    tag_600:\n        /* \"#utility.yul\":1697:1760   */\n      swap2\n      pop\n        /* \"#utility.yul\":1653:1770   */\n      pop\n        /* \"#utility.yul\":1448:1777   */\n      swap3\n      swap2\n      pop\n      pop\n      jump\t// out\n        /* \"#utility.yul\":1783:2128   */\n    tag_236:\n        /* \"#utility.yul\":1850:1856   */\n      0x00\n        /* \"#utility.yul\":1899:1901   */\n      0x20\n        /* \"#utility.yul\":1887:1896   */\n      dup3\n        /* \"#utility.yul\":1878:1885   */\n      dup5\n        /* \"#utility.yul\":1874:1897   */\n      sub\n        /* \"#utility.yul\":1870:1902   */\n      slt\n        /* \"#utility.yul\":1867:1986   */\n      iszero\n      tag_602\n      jumpi\n        /* \"#utility.yul\":1905:1984   */\n      tag_603\n      tag_599\n      jump\t// in\n    tag_603:\n        /* \"#utility.yul\":1867:1986   */\n    tag_602:\n        /* \"#utility.yul\":2025:2026   */\n      0x00\n        /* \"#utility.yul\":2050:2111   */\n      tag_604\n        /* \"#utility.yul\":2103:2110   */\n      dup5\n        /* \"#utility.yul\":2094:2100   */\n      dup3\n        /* \"#utility.yul\":2083:2092   */\n      dup6\n        /* \"#utility.yul\":2079:2101   */\n      add\n        /* \"#utility.yul\":2050:2111   */\n      tag_571\n      jump\t// in\n    tag_604:\n        /* \"#utility.yul\":2040:2111   */\n      swap2\n      pop\n        /* \"#utility.yul\":1996:2121   */\n      pop\n        /* \"#utility.yul\":1783:2128   */\n      swap3\n      swap2\n      pop\n      pop\n      jump\t// out\n        /* \"#utility.yul\":2134:2513   */\n    tag_285:\n        /* \"#utility.yul\":2218:2224   */\n      0x00\n        /* \"#utility.yul\":2267:2269   */\n      0x20\n        /* \"#utility.yul\":2255:2264   */\n      dup3\n        /* \"#utility.yul\":2246:2253   */\n      dup5\n        /* \"#utility.yul\":2242:2265   */\n      sub\n        /* \"#utility.yul\":2238:2270   */\n      slt\n        /* \"#utility.yul\":2235:2354   */\n      iszero\n      tag_606\n      jumpi\n        /* \"#utility.yul\":2273:2352   */\n      tag_607\n      tag_599\n      jump\t// in\n    tag_607:\n        /* \"#utility.yul\":2235:2354   */\n    tag_606:\n        /* \"#utility.yul\":2393:2394   */\n      0x00\n        /* \"#utility.yul\":2418:2496   */\n      tag_608\n        /* \"#utility.yul\":2488:2495   */\n      dup5\n        /* \"#utility.yul\":2479:2485   */\n      dup3\n        /* \"#utility.yul\":2468:2477   */\n      dup6\n        /* \"#utility.yul\":2464:2486   */\n      add\n        /* \"#utility.yul\":2418:2496   */\n      tag_578\n      jump\t// in\n    tag_608:\n        /* \"#utility.yul\":2408:2496   */\n      swap2\n      pop\n        /* \"#utility.yul\":2364:2506   */\n      pop\n        /* \"#utility.yul\":2134:2513   */\n      swap3\n      swap2\n      pop\n      pop\n      jump\t// out\n        /* \"#utility.yul\":2519:2890   */\n    tag_70:\n        /* \"#utility.yul\":2599:2605   */\n      0x00\n        /* \"#utility.yul\":2648:2650   */\n      0x20\n        /* \"#utility.yul\":2636:2645   */\n      dup3\n        /* \"#utility.yul\":2627:2634   */\n      dup5\n        /* \"#utility.yul\":2623:2646   */\n      sub\n        /* \"#utility.yul\":2619:2651   */\n      slt\n        /* \"#utility.yul\":2616:2735   */\n      iszero\n      tag_610\n      jumpi\n        /* \"#utility.yul\":2654:2733   */\n      tag_611\n      tag_599\n      jump\t// in\n    tag_611:\n        /* \"#utility.yul\":2616:2735   */\n    tag_610:\n        /* \"#utility.yul\":2774:2775   */\n      0x00\n        /* \"#utility.yul\":2799:2873   */\n      tag_612\n        /* \"#utility.yul\":2865:2872   */\n      dup5\n        /* \"#utility.yul\":2856:2862   */\n      dup3\n        /* \"#utility.yul\":2845:2854   */\n      dup6\n        /* \"#utility.yul\":2841:2863   */\n      add\n        /* \"#utility.yul\":2799:2873   */\n      tag_585\n      jump\t// in\n    tag_612:\n        /* \"#utility.yul\":2789:2873   */\n      swap2\n      pop\n        /* \"#utility.yul\":2745:2883   */\n      pop\n        /* \"#utility.yul\":2519:2890   */\n      swap3\n      swap2\n      pop\n      pop\n      jump\t// out\n        /* \"#utility.yul\":2896:3225   */\n    tag_53:\n        /* \"#utility.yul\":2955:2961   */\n      0x00\n        /* \"#utility.yul\":3004:3006   */\n      0x20\n        /* \"#utility.yul\":2992:3001   */\n      dup3\n        /* \"#utility.yul\":2983:2990   */\n      dup5\n        /* \"#utility.yul\":2979:3002   */\n      sub\n        /* \"#utility.yul\":2975:3007   */\n      slt\n        /* \"#utility.yul\":2972:3091   */\n      iszero\n      tag_614\n      jumpi\n        /* \"#utility.yul\":3010:3089   */\n      tag_615\n      tag_599\n      jump\t// in\n    tag_615:\n        /* \"#utility.yul\":2972:3091   */\n    tag_614:\n        /* \"#utility.yul\":3130:3131   */\n      0x00\n        /* \"#utility.yul\":3155:3208   */\n      tag_616\n        /* \"#utility.yul\":3200:3207   */\n      dup5\n        /* \"#utility.yul\":3191:3197   */\n      dup3\n        /* \"#utility.yul\":3180:3189   */\n      dup6\n        /* \"#utility.yul\":3176:3198   */\n      add\n        /* \"#utility.yul\":3155:3208   */\n      tag_589\n      jump\t// in\n    tag_616:\n        /* \"#utility.yul\":3145:3208   */\n      swap2\n      pop\n        /* \"#utility.yul\":3101:3218   */\n      pop\n        /* \"#utility.yul\":2896:3225   */\n      swap3\n      swap2\n      pop\n      pop\n      jump\t// out\n        /* \"#utility.yul\":3231:3582   */\n    tag_186:\n        /* \"#utility.yul\":3301:3307   */\n      0x00\n        /* \"#utility.yul\":3350:3352   */\n      0x20\n        /* \"#utility.yul\":3338:3347   */\n      dup3\n        /* \"#utility.yul\":3329:3336   */\n      dup5\n        /* \"#utility.yul\":3325:3348   */\n      sub\n        /* \"#utility.yul\":3321:3353   */\n      slt\n        /* \"#utility.yul\":3318:3437   */\n      iszero\n      tag_618\n      jumpi\n        /* \"#utility.yul\":3356:3435   */\n      tag_619\n      tag_599\n      jump\t// in\n    tag_619:\n        /* \"#utility.yul\":3318:3437   */\n    tag_618:\n        /* \"#utility.yul\":3476:3477   */\n      0x00\n        /* \"#utility.yul\":3501:3565   */\n      tag_620\n        /* \"#utility.yul\":3557:3564   */\n      dup5\n        /* \"#utility.yul\":3548:3554   */\n      dup3\n        /* \"#utility.yul\":3537:3546   */\n      dup6\n        /* \"#utility.yul\":3533:3555   */\n      add\n        /* \"#utility.yul\":3501:3565   */\n      tag_593\n      jump\t// in\n    tag_620:\n        /* \"#utility.yul\":3491:3565   */\n      swap2\n      pop\n        /* \"#utility.yul\":3447:3575   */\n      pop\n        /* \"#utility.yul\":3231:3582   */\n      swap3\n      swap2\n      pop\n      pop\n      jump\t// out\n        /* \"#utility.yul\":3588:4062   */\n    tag_65:\n        /* \"#utility.yul\":3656:3662   */\n      0x00\n        /* \"#utility.yul\":3664:3670   */\n      dup1\n        /* \"#utility.yul\":3713:3715   */\n      0x40\n        /* \"#utility.yul\":3701:3710   */\n      dup4\n        /* \"#utility.yul\":3692:3699   */\n      dup6\n        /* \"#utility.yul\":3688:3711   */\n      sub\n        /* \"#utility.yul\":3684:3716   */\n      slt\n        /* \"#utility.yul\":3681:3800   */\n      iszero\n      tag_622\n      jumpi\n        /* \"#utility.yul\":3719:3798   */\n      tag_623\n      tag_599\n      jump\t// in\n    tag_623:\n        /* \"#utility.yul\":3681:3800   */\n    tag_622:\n        /* \"#utility.yul\":3839:3840   */\n      0x00\n        /* \"#utility.yul\":3864:3917   */\n      tag_624\n        /* \"#utility.yul\":3909:3916   */\n      dup6\n        /* \"#utility.yul\":3900:3906   */\n      dup3\n        /* \"#utility.yul\":3889:3898   */\n      dup7\n        /* \"#utility.yul\":3885:3907   */\n      add\n        /* \"#utility.yul\":3864:3917   */\n      tag_589\n      jump\t// in\n    tag_624:\n        /* \"#utility.yul\":3854:3917   */\n      swap3\n      pop\n        /* \"#utility.yul\":3810:3927   */\n      pop\n        /* \"#utility.yul\":3966:3968   */\n      0x20\n        /* \"#utility.yul\":3992:4045   */\n      tag_625\n        /* \"#utility.yul\":4037:4044   */\n      dup6\n        /* \"#utility.yul\":4028:4034   */\n      dup3\n        /* \"#utility.yul\":4017:4026   */\n      dup7\n        /* \"#utility.yul\":4013:4035   */\n      add\n        /* \"#utility.yul\":3992:4045   */\n      tag_563\n      jump\t// in\n    tag_625:\n        /* \"#utility.yul\":3982:4045   */\n      swap2\n      pop\n        /* \"#utility.yul\":3937:4055   */\n      pop\n        /* \"#utility.yul\":3588:4062   */\n      swap3\n      pop\n      swap3\n      swap1\n      pop\n      jump\t// out\n        /* \"#utility.yul\":4068:5359   */\n    tag_98:\n        /* \"#utility.yul\":4225:4231   */\n      0x00\n        /* \"#utility.yul\":4233:4239   */\n      dup1\n        /* \"#utility.yul\":4241:4247   */\n      0x00\n        /* \"#utility.yul\":4249:4255   */\n      dup1\n        /* \"#utility.yul\":4257:4263   */\n      0x00\n        /* \"#utility.yul\":4265:4271   */\n      dup1\n        /* \"#utility.yul\":4273:4279   */\n      0x00\n        /* \"#utility.yul\":4322:4325   */\n      0xe0\n        /* \"#utility.yul\":4310:4319   */\n      dup9\n        /* \"#utility.yul\":4301:4308   */\n      dup11\n        /* \"#utility.yul\":4297:4320   */\n      sub\n        /* \"#utility.yul\":4293:4326   */\n      slt\n        /* \"#utility.yul\":4290:4410   */\n      iszero\n      tag_627\n      jumpi\n        /* \"#utility.yul\":4329:4408   */\n      tag_628\n      tag_599\n      jump\t// in\n    tag_628:\n        /* \"#utility.yul\":4290:4410   */\n    tag_627:\n        /* \"#utility.yul\":4449:4450   */\n      0x00\n        /* \"#utility.yul\":4474:4527   */\n      tag_629\n        /* \"#utility.yul\":4519:4526   */\n      dup11\n        /* \"#utility.yul\":4510:4516   */\n      dup3\n        /* \"#utility.yul\":4499:4508   */\n      dup12\n        /* \"#utility.yul\":4495:4517   */\n      add\n        /* \"#utility.yul\":4474:4527   */\n      tag_589\n      jump\t// in\n    tag_629:\n        /* \"#utility.yul\":4464:4527   */\n      swap8\n      pop\n        /* \"#utility.yul\":4420:4537   */\n      pop\n        /* \"#utility.yul\":4576:4578   */\n      0x20\n        /* \"#utility.yul\":4602:4669   */\n      tag_630\n        /* \"#utility.yul\":4661:4668   */\n      dup11\n        /* \"#utility.yul\":4652:4658   */\n      dup3\n        /* \"#utility.yul\":4641:4650   */\n      dup12\n        /* \"#utility.yul\":4637:4659   */\n      add\n        /* \"#utility.yul\":4602:4669   */\n      tag_574\n      jump\t// in\n    tag_630:\n        /* \"#utility.yul\":4592:4669   */\n      swap7\n      pop\n        /* \"#utility.yul\":4547:4679   */\n      pop\n        /* \"#utility.yul\":4718:4720   */\n      0x40\n        /* \"#utility.yul\":4744:4794   */\n      tag_631\n        /* \"#utility.yul\":4786:4793   */\n      dup11\n        /* \"#utility.yul\":4777:4783   */\n      dup3\n        /* \"#utility.yul\":4766:4775   */\n      dup12\n        /* \"#utility.yul\":4762:4784   */\n      add\n        /* \"#utility.yul\":4744:4794   */\n      tag_567\n      jump\t// in\n    tag_631:\n        /* \"#utility.yul\":4734:4794   */\n      swap6\n      pop\n        /* \"#utility.yul\":4689:4804   */\n      pop\n        /* \"#utility.yul\":4843:4845   */\n      0x60\n        /* \"#utility.yul\":4869:4941   */\n      tag_632\n        /* \"#utility.yul\":4933:4940   */\n      dup11\n        /* \"#utility.yul\":4924:4930   */\n      dup3\n        /* \"#utility.yul\":4913:4922   */\n      dup12\n        /* \"#utility.yul\":4909:4931   */\n      add\n        /* \"#utility.yul\":4869:4941   */\n      tag_581\n      jump\t// in\n    tag_632:\n        /* \"#utility.yul\":4859:4941   */\n      swap5\n      pop\n        /* \"#utility.yul\":4814:4951   */\n      pop\n        /* \"#utility.yul\":4990:4993   */\n      0x80\n        /* \"#utility.yul\":5017:5084   */\n      tag_633\n        /* \"#utility.yul\":5076:5083   */\n      dup11\n        /* \"#utility.yul\":5067:5073   */\n      dup3\n        /* \"#utility.yul\":5056:5065   */\n      dup12\n        /* \"#utility.yul\":5052:5074   */\n      add\n        /* \"#utility.yul\":5017:5084   */\n      tag_574\n      jump\t// in\n    tag_633:\n        /* \"#utility.yul\":5007:5084   */\n      swap4\n      pop\n        /* \"#utility.yul\":4961:5094   */\n      pop\n        /* \"#utility.yul\":5133:5136   */\n      0xa0\n        /* \"#utility.yul\":5160:5213   */\n      tag_634\n        /* \"#utility.yul\":5205:5212   */\n      dup11\n        /* \"#utility.yul\":5196:5202   */\n      dup3\n        /* \"#utility.yul\":5185:5194   */\n      dup12\n        /* \"#utility.yul\":5181:5203   */\n      add\n        /* \"#utility.yul\":5160:5213   */\n      tag_589\n      jump\t// in\n    tag_634:\n        /* \"#utility.yul\":5150:5213   */\n      swap3\n      pop\n        /* \"#utility.yul\":5104:5223   */\n      pop\n        /* \"#utility.yul\":5262:5265   */\n      0xc0\n        /* \"#utility.yul\":5289:5342   */\n      tag_635\n        /* \"#utility.yul\":5334:5341   */\n      dup11\n        /* \"#utility.yul\":5325:5331   */\n      dup3\n        /* \"#utility.yul\":5314:5323   */\n      dup12\n        /* \"#utility.yul\":5310:5332   */\n      add\n        /* \"#utility.yul\":5289:5342   */\n      tag_589\n      jump\t// in\n    tag_635:\n        /* \"#utility.yul\":5279:5342   */\n      swap2\n      pop\n        /* \"#utility.yul\":5233:5352   */\n      pop\n        /* \"#utility.yul\":4068:5359   */\n      swap3\n      swap6\n      swap9\n      swap2\n      swap5\n      swap8\n      pop\n      swap3\n      swap6\n      pop\n      jump\t// out\n        /* \"#utility.yul\":5365:5839   */\n    tag_119:\n        /* \"#utility.yul\":5433:5439   */\n      0x00\n        /* \"#utility.yul\":5441:5447   */\n      dup1\n        /* \"#utility.yul\":5490:5492   */\n      0x40\n        /* \"#utility.yul\":5478:5487   */\n      dup4\n        /* \"#utility.yul\":5469:5476   */\n      dup6\n        /* \"#utility.yul\":5465:5488   */\n      sub\n        /* \"#utility.yul\":5461:5493   */\n      slt\n        /* \"#utility.yul\":5458:5577   */\n      iszero\n      tag_637\n      jumpi\n        /* \"#utility.yul\":5496:5575   */\n      tag_638\n      tag_599\n      jump\t// in\n    tag_638:\n        /* \"#utility.yul\":5458:5577   */\n    tag_637:\n        /* \"#utility.yul\":5616:5617   */\n      0x00\n        /* \"#utility.yul\":5641:5694   */\n      tag_639\n        /* \"#utility.yul\":5686:5693   */\n      dup6\n        /* \"#utility.yul\":5677:5683   */\n      dup3\n        /* \"#utility.yul\":5666:5675   */\n      dup7\n        /* \"#utility.yul\":5662:5684   */\n      add\n        /* \"#utility.yul\":5641:5694   */\n      tag_589\n      jump\t// in\n    tag_639:\n        /* \"#utility.yul\":5631:5694   */\n      swap3\n      pop\n        /* \"#utility.yul\":5587:5704   */\n      pop\n        /* \"#utility.yul\":5743:5745   */\n      0x20\n        /* \"#utility.yul\":5769:5822   */\n      tag_640\n        /* \"#utility.yul\":5814:5821   */\n      dup6\n        /* \"#utility.yul\":5805:5811   */\n      dup3\n        /* \"#utility.yul\":5794:5803   */\n      dup7\n        /* \"#utility.yul\":5790:5812   */\n      add\n        /* \"#utility.yul\":5769:5822   */\n      tag_589\n      jump\t// in\n    tag_640:\n        /* \"#utility.yul\":5759:5822   */\n      swap2\n      pop\n        /* \"#utility.yul\":5714:5832   */\n      pop\n        /* \"#utility.yul\":5365:5839   */\n      swap3\n      pop\n      swap3\n      swap1\n      pop\n      jump\t// out\n        /* \"#utility.yul\":5845:6458   */\n    tag_94:\n        /* \"#utility.yul\":5919:5925   */\n      0x00\n        /* \"#utility.yul\":5927:5933   */\n      dup1\n        /* \"#utility.yul\":5935:5941   */\n      0x00\n        /* \"#utility.yul\":5984:5986   */\n      0x60\n        /* \"#utility.yul\":5972:5981   */\n      dup5\n        /* \"#utility.yul\":5963:5970   */\n      dup7\n        /* \"#utility.yul\":5959:5982   */\n      sub\n        /* \"#utility.yul\":5955:5987   */\n      slt\n        /* \"#utility.yul\":5952:6071   */\n      iszero\n      tag_642\n      jumpi\n        /* \"#utility.yul\":5990:6069   */\n      tag_643\n      tag_599\n      jump\t// in\n    tag_643:\n        /* \"#utility.yul\":5952:6071   */\n    tag_642:\n        /* \"#utility.yul\":6110:6111   */\n      0x00\n        /* \"#utility.yul\":6135:6188   */\n      tag_644\n        /* \"#utility.yul\":6180:6187   */\n      dup7\n        /* \"#utility.yul\":6171:6177   */\n      dup3\n        /* \"#utility.yul\":6160:6169   */\n      dup8\n        /* \"#utility.yul\":6156:6178   */\n      add\n        /* \"#utility.yul\":6135:6188   */\n      tag_589\n      jump\t// in\n    tag_644:\n        /* \"#utility.yul\":6125:6188   */\n      swap4\n      pop\n        /* \"#utility.yul\":6081:6198   */\n      pop\n        /* \"#utility.yul\":6237:6239   */\n      0x20\n        /* \"#utility.yul\":6263:6316   */\n      tag_645\n        /* \"#utility.yul\":6308:6315   */\n      dup7\n        /* \"#utility.yul\":6299:6305   */\n      dup3\n        /* \"#utility.yul\":6288:6297   */\n      dup8\n        /* \"#utility.yul\":6284:6306   */\n      add\n        /* \"#utility.yul\":6263:6316   */\n      tag_589\n      jump\t// in\n    tag_645:\n        /* \"#utility.yul\":6253:6316   */\n      swap3\n      pop\n        /* \"#utility.yul\":6208:6326   */\n      pop\n        /* \"#utility.yul\":6365:6367   */\n      0x40\n        /* \"#utility.yul\":6391:6441   */\n      tag_646\n        /* \"#utility.yul\":6433:6440   */\n      dup7\n        /* \"#utility.yul\":6424:6430   */\n      dup3\n        /* \"#utility.yul\":6413:6422   */\n      dup8\n        /* \"#utility.yul\":6409:6431   */\n      add\n        /* \"#utility.yul\":6391:6441   */\n      tag_567\n      jump\t// in\n    tag_646:\n        /* \"#utility.yul\":6381:6441   */\n      swap2\n      pop\n        /* \"#utility.yul\":6336:6451   */\n      pop\n        /* \"#utility.yul\":5845:6458   */\n      swap3\n      pop\n      swap3\n      pop\n      swap3\n      jump\t// out\n        /* \"#utility.yul\":6464:7083   */\n    tag_45:\n        /* \"#utility.yul\":6541:6547   */\n      0x00\n        /* \"#utility.yul\":6549:6555   */\n      dup1\n        /* \"#utility.yul\":6557:6563   */\n      0x00\n        /* \"#utility.yul\":6606:6608   */\n      0x60\n        /* \"#utility.yul\":6594:6603   */\n      dup5\n        /* \"#utility.yul\":6585:6592   */\n      dup7\n        /* \"#utility.yul\":6581:6604   */\n      sub\n        /* \"#utility.yul\":6577:6609   */\n      slt\n        /* \"#utility.yul\":6574:6693   */\n      iszero\n      tag_648\n      jumpi\n        /* \"#utility.yul\":6612:6691   */\n      tag_649\n      tag_599\n      jump\t// in\n    tag_649:\n        /* \"#utility.yul\":6574:6693   */\n    tag_648:\n        /* \"#utility.yul\":6732:6733   */\n      0x00\n        /* \"#utility.yul\":6757:6810   */\n      tag_650\n        /* \"#utility.yul\":6802:6809   */\n      dup7\n        /* \"#utility.yul\":6793:6799   */\n      dup3\n        /* \"#utility.yul\":6782:6791   */\n      dup8\n        /* \"#utility.yul\":6778:6800   */\n      add\n        /* \"#utility.yul\":6757:6810   */\n      tag_589\n      jump\t// in\n    tag_650:\n        /* \"#utility.yul\":6747:6810   */\n      swap4\n      pop\n        /* \"#utility.yul\":6703:6820   */\n      pop\n        /* \"#utility.yul\":6859:6861   */\n      0x20\n        /* \"#utility.yul\":6885:6938   */\n      tag_651\n        /* \"#utility.yul\":6930:6937   */\n      dup7\n        /* \"#utility.yul\":6921:6927   */\n      dup3\n        /* \"#utility.yul\":6910:6919   */\n      dup8\n        /* \"#utility.yul\":6906:6928   */\n      add\n        /* \"#utility.yul\":6885:6938   */\n      tag_589\n      jump\t// in\n    tag_651:\n        /* \"#utility.yul\":6875:6938   */\n      swap3\n      pop\n        /* \"#utility.yul\":6830:6948   */\n      pop\n        /* \"#utility.yul\":6987:6989   */\n      0x40\n        /* \"#utility.yul\":7013:7066   */\n      tag_652\n        /* \"#utility.yul\":7058:7065   */\n      dup7\n        /* \"#utility.yul\":7049:7055   */\n      dup3\n        /* \"#utility.yul\":7038:7047   */\n      dup8\n        /* \"#utility.yul\":7034:7056   */\n      add\n        /* \"#utility.yul\":7013:7066   */\n      tag_589\n      jump\t// in\n    tag_652:\n        /* \"#utility.yul\":7003:7066   */\n      swap2\n      pop\n        /* \"#utility.yul\":6958:7076   */\n      pop\n        /* \"#utility.yul\":6464:7083   */\n      swap3\n      pop\n      swap3\n      pop\n      swap3\n      jump\t// out\n        /* \"#utility.yul\":7089:7207   */\n    tag_653:\n        /* \"#utility.yul\":7176:7200   */\n      tag_655\n        /* \"#utility.yul\":7194:7199   */\n      dup2\n        /* \"#utility.yul\":7176:7200   */\n      tag_656\n      jump\t// in\n    tag_655:\n        /* \"#utility.yul\":7171:7174   */\n      dup3\n        /* \"#utility.yul\":7164:7201   */\n      mstore\n        /* \"#utility.yul\":7089:7207   */\n      pop\n      pop\n      jump\t// out\n        /* \"#utility.yul\":7213:7586   */\n    tag_657:\n        /* \"#utility.yul\":7317:7320   */\n      0x00\n        /* \"#utility.yul\":7345:7383   */\n      tag_659\n        /* \"#utility.yul\":7377:7382   */\n      dup3\n        /* \"#utility.yul\":7345:7383   */\n      tag_660\n      jump\t// in\n    tag_659:\n        /* \"#utility.yul\":7399:7487   */\n      tag_661\n        /* \"#utility.yul\":7480:7486   */\n      dup2\n        /* \"#utility.yul\":7475:7478   */\n      dup6\n        /* \"#utility.yul\":7399:7487   */\n      tag_662\n      jump\t// in\n    tag_661:\n        /* \"#utility.yul\":7392:7487   */\n      swap4\n      pop\n        /* \"#utility.yul\":7496:7548   */\n      tag_663\n        /* \"#utility.yul\":7541:7547   */\n      dup2\n        /* \"#utility.yul\":7536:7539   */\n      dup6\n        /* \"#utility.yul\":7529:7533   */\n      0x20\n        /* \"#utility.yul\":7522:7527   */\n      dup7\n        /* \"#utility.yul\":7518:7534   */\n      add\n        /* \"#utility.yul\":7496:7548   */\n      tag_664\n      jump\t// in\n    tag_663:\n        /* \"#utility.yul\":7573:7579   */\n      dup1\n        /* \"#utility.yul\":7568:7571   */\n      dup5\n        /* \"#utility.yul\":7564:7580   */\n      add\n        /* \"#utility.yul\":7557:7580   */\n      swap2\n      pop\n        /* \"#utility.yul\":7321:7586   */\n      pop\n        /* \"#utility.yul\":7213:7586   */\n      swap3\n      swap2\n      pop\n      pop\n      jump\t// out\n        /* \"#utility.yul\":7592:7751   */\n    tag_665:\n        /* \"#utility.yul\":7693:7744   */\n      tag_667\n        /* \"#utility.yul\":7738:7743   */\n      dup2\n        /* \"#utility.yul\":7693:7744   */\n      tag_668\n      jump\t// in\n    tag_667:\n        /* \"#utility.yul\":7688:7691   */\n      dup3\n        /* \"#utility.yul\":7681:7745   */\n      mstore\n        /* \"#utility.yul\":7592:7751   */\n      pop\n      pop\n      jump\t// out\n        /* \"#utility.yul\":7757:7926   */\n    tag_669:\n        /* \"#utility.yul\":7863:7919   */\n      tag_671\n        /* \"#utility.yul\":7913:7918   */\n      dup2\n        /* \"#utility.yul\":7863:7919   */\n      tag_672\n      jump\t// in\n    tag_671:\n        /* \"#utility.yul\":7858:7861   */\n      dup3\n        /* \"#utility.yul\":7851:7920   */\n      mstore\n        /* \"#utility.yul\":7757:7926   */\n      pop\n      pop\n      jump\t// out\n        /* \"#utility.yul\":7932:8105   */\n    tag_673:\n        /* \"#utility.yul\":8040:8098   */\n      tag_675\n        /* \"#utility.yul\":8092:8097   */\n      dup2\n        /* \"#utility.yul\":8040:8098   */\n      tag_676\n      jump\t// in\n    tag_675:\n        /* \"#utility.yul\":8035:8038   */\n      dup3\n        /* \"#utility.yul\":8028:8099   */\n      mstore\n        /* \"#utility.yul\":7932:8105   */\n      pop\n      pop\n      jump\t// out\n        /* \"#utility.yul\":8111:8286   */\n    tag_677:\n        /* \"#utility.yul\":8220:8279   */\n      tag_679\n        /* \"#utility.yul\":8273:8278   */\n      dup2\n        /* \"#utility.yul\":8220:8279   */\n      tag_680\n      jump\t// in\n    tag_679:\n        /* \"#utility.yul\":8215:8218   */\n      dup3\n        /* \"#utility.yul\":8208:8280   */\n      mstore\n        /* \"#utility.yul\":8111:8286   */\n      pop\n      pop\n      jump\t// out\n        /* \"#utility.yul\":8292:8656   */\n    tag_681:\n        /* \"#utility.yul\":8380:8383   */\n      0x00\n        /* \"#utility.yul\":8408:8447   */\n      tag_683\n        /* \"#utility.yul\":8441:8446   */\n      dup3\n        /* \"#utility.yul\":8408:8447   */\n      tag_684\n      jump\t// in\n    tag_683:\n        /* \"#utility.yul\":8463:8534   */\n      tag_685\n        /* \"#utility.yul\":8527:8533   */\n      dup2\n        /* \"#utility.yul\":8522:8525   */\n      dup6\n        /* \"#utility.yul\":8463:8534   */\n      tag_686\n      jump\t// in\n    tag_685:\n        /* \"#utility.yul\":8456:8534   */\n      swap4\n      pop\n        /* \"#utility.yul\":8543:8595   */\n      tag_687\n        /* \"#utility.yul\":8588:8594   */\n      dup2\n        /* \"#utility.yul\":8583:8586   */\n      dup6\n        /* \"#utility.yul\":8576:8580   */\n      0x20\n        /* \"#utility.yul\":8569:8574   */\n      dup7\n        /* \"#utility.yul\":8565:8581   */\n      add\n        /* \"#utility.yul\":8543:8595   */\n      tag_664\n      jump\t// in\n    tag_687:\n        /* \"#utility.yul\":8620:8649   */\n      tag_688\n        /* \"#utility.yul\":8642:8648   */\n      dup2\n        /* \"#utility.yul\":8620:8649   */\n      tag_689\n      jump\t// in\n    tag_688:\n        /* \"#utility.yul\":8615:8618   */\n      dup5\n        /* \"#utility.yul\":8611:8650   */\n      add\n        /* \"#utility.yul\":8604:8650   */\n      swap2\n      pop\n        /* \"#utility.yul\":8384:8656   */\n      pop\n        /* \"#utility.yul\":8292:8656   */\n      swap3\n      swap2\n      pop\n      pop\n      jump\t// out\n        /* \"#utility.yul\":8662:9028   */\n    tag_690:\n        /* \"#utility.yul\":8804:8807   */\n      0x00\n        /* \"#utility.yul\":8825:8892   */\n      tag_692\n        /* \"#utility.yul\":8889:8891   */\n      0x26\n        /* \"#utility.yul\":8884:8887   */\n      dup4\n        /* \"#utility.yul\":8825:8892   */\n      tag_686\n      jump\t// in\n    tag_692:\n        /* \"#utility.yul\":8818:8892   */\n      swap2\n      pop\n        /* \"#utility.yul\":8901:8994   */\n      tag_693\n        /* \"#utility.yul\":8990:8993   */\n      dup3\n        /* \"#utility.yul\":8901:8994   */\n      tag_694\n      jump\t// in\n    tag_693:\n        /* \"#utility.yul\":9019:9021   */\n      0x40\n        /* \"#utility.yul\":9014:9017   */\n      dup3\n        /* \"#utility.yul\":9010:9022   */\n      add\n        /* \"#utility.yul\":9003:9022   */\n      swap1\n      pop\n        /* \"#utility.yul\":8662:9028   */\n      swap2\n      swap1\n      pop\n      jump\t// out\n        /* \"#utility.yul\":9034:9400   */\n    tag_695:\n        /* \"#utility.yul\":9176:9179   */\n      0x00\n        /* \"#utility.yul\":9197:9264   */\n      tag_697\n        /* \"#utility.yul\":9261:9263   */\n      0x1b\n        /* \"#utility.yul\":9256:9259   */\n      dup4\n        /* \"#utility.yul\":9197:9264   */\n      tag_686\n      jump\t// in\n    tag_697:\n        /* \"#utility.yul\":9190:9264   */\n      swap2\n      pop\n        /* \"#utility.yul\":9273:9366   */\n      tag_698\n        /* \"#utility.yul\":9362:9365   */\n      dup3\n        /* \"#utility.yul\":9273:9366   */\n      tag_699\n      jump\t// in\n    tag_698:\n        /* \"#utility.yul\":9391:9393   */\n      0x20\n        /* \"#utility.yul\":9386:9389   */\n      dup3\n        /* \"#utility.yul\":9382:9394   */\n      add\n        /* \"#utility.yul\":9375:9394   */\n      swap1\n      pop\n        /* \"#utility.yul\":9034:9400   */\n      swap2\n      swap1\n      pop\n      jump\t// out\n        /* \"#utility.yul\":9406:9772   */\n    tag_700:\n        /* \"#utility.yul\":9548:9551   */\n      0x00\n        /* \"#utility.yul\":9569:9636   */\n      tag_702\n        /* \"#utility.yul\":9633:9635   */\n      0x26\n        /* \"#utility.yul\":9628:9631   */\n      dup4\n        /* \"#utility.yul\":9569:9636   */\n      tag_686\n      jump\t// in\n    tag_702:\n        /* \"#utility.yul\":9562:9636   */\n      swap2\n      pop\n        /* \"#utility.yul\":9645:9738   */\n      tag_703\n        /* \"#utility.yul\":9734:9737   */\n      dup3\n        /* \"#utility.yul\":9645:9738   */\n      tag_704\n      jump\t// in\n    tag_703:\n        /* \"#utility.yul\":9763:9765   */\n      0x40\n        /* \"#utility.yul\":9758:9761   */\n      dup3\n        /* \"#utility.yul\":9754:9766   */\n      add\n        /* \"#utility.yul\":9747:9766   */\n      swap1\n      pop\n        /* \"#utility.yul\":9406:9772   */\n      swap2\n      swap1\n      pop\n      jump\t// out\n        /* \"#utility.yul\":9778:10144   */\n    tag_705:\n        /* \"#utility.yul\":9920:9923   */\n      0x00\n        /* \"#utility.yul\":9941:10008   */\n      tag_707\n        /* \"#utility.yul\":10005:10007   */\n      0x0e\n        /* \"#utility.yul\":10000:10003   */\n      dup4\n        /* \"#utility.yul\":9941:10008   */\n      tag_686\n      jump\t// in\n    tag_707:\n        /* \"#utility.yul\":9934:10008   */\n      swap2\n      pop\n        /* \"#utility.yul\":10017:10110   */\n      tag_708\n        /* \"#utility.yul\":10106:10109   */\n      dup3\n        /* \"#utility.yul\":10017:10110   */\n      tag_709\n      jump\t// in\n    tag_708:\n        /* \"#utility.yul\":10135:10137   */\n      0x20\n        /* \"#utility.yul\":10130:10133   */\n      dup3\n        /* \"#utility.yul\":10126:10138   */\n      add\n        /* \"#utility.yul\":10119:10138   */\n      swap1\n      pop\n        /* \"#utility.yul\":9778:10144   */\n      swap2\n      swap1\n      pop\n      jump\t// out\n        /* \"#utility.yul\":10150:10516   */\n    tag_710:\n        /* \"#utility.yul\":10292:10295   */\n      0x00\n        /* \"#utility.yul\":10313:10380   */\n      tag_712\n        /* \"#utility.yul\":10377:10379   */\n      0x21\n        /* \"#utility.yul\":10372:10375   */\n      dup4\n        /* \"#utility.yul\":10313:10380   */\n      tag_686\n      jump\t// in\n    tag_712:\n        /* \"#utility.yul\":10306:10380   */\n      swap2\n      pop\n        /* \"#utility.yul\":10389:10482   */\n      tag_713\n        /* \"#utility.yul\":10478:10481   */\n      dup3\n        /* \"#utility.yul\":10389:10482   */\n      tag_714\n      jump\t// in\n    tag_713:\n        /* \"#utility.yul\":10507:10509   */\n      0x40\n        /* \"#utility.yul\":10502:10505   */\n      dup3\n        /* \"#utility.yul\":10498:10510   */\n      add\n        /* \"#utility.yul\":10491:10510   */\n      swap1\n      pop\n        /* \"#utility.yul\":10150:10516   */\n      swap2\n      swap1\n      pop\n      jump\t// out\n        /* \"#utility.yul\":10522:10888   */\n    tag_715:\n        /* \"#utility.yul\":10664:10667   */\n      0x00\n        /* \"#utility.yul\":10685:10752   */\n      tag_717\n        /* \"#utility.yul\":10749:10751   */\n      0x20\n        /* \"#utility.yul\":10744:10747   */\n      dup4\n        /* \"#utility.yul\":10685:10752   */\n      tag_686\n      jump\t// in\n    tag_717:\n        /* \"#utility.yul\":10678:10752   */\n      swap2\n      pop\n        /* \"#utility.yul\":10761:10854   */\n      tag_718\n        /* \"#utility.yul\":10850:10853   */\n      dup3\n        /* \"#utility.yul\":10761:10854   */\n      tag_719\n      jump\t// in\n    tag_718:\n        /* \"#utility.yul\":10879:10881   */\n      0x20\n        /* \"#utility.yul\":10874:10877   */\n      dup3\n        /* \"#utility.yul\":10870:10882   */\n      add\n        /* \"#utility.yul\":10863:10882   */\n      swap1\n      pop\n        /* \"#utility.yul\":10522:10888   */\n      swap2\n      swap1\n      pop\n      jump\t// out\n        /* \"#utility.yul\":10894:11260   */\n    tag_720:\n        /* \"#utility.yul\":11036:11039   */\n      0x00\n        /* \"#utility.yul\":11057:11124   */\n      tag_722\n        /* \"#utility.yul\":11121:11123   */\n      0x1d\n        /* \"#utility.yul\":11116:11119   */\n      dup4\n        /* \"#utility.yul\":11057:11124   */\n      tag_686\n      jump\t// in\n    tag_722:\n        /* \"#utility.yul\":11050:11124   */\n      swap2\n      pop\n        /* \"#utility.yul\":11133:11226   */\n      tag_723\n        /* \"#utility.yul\":11222:11225   */\n      dup3\n        /* \"#utility.yul\":11133:11226   */\n      tag_724\n      jump\t// in\n    tag_723:\n        /* \"#utility.yul\":11251:11253   */\n      0x20\n        /* \"#utility.yul\":11246:11249   */\n      dup3\n        /* \"#utility.yul\":11242:11254   */\n      add\n        /* \"#utility.yul\":11235:11254   */\n      swap1\n      pop\n        /* \"#utility.yul\":10894:11260   */\n      swap2\n      swap1\n      pop\n      jump\t// out\n        /* \"#utility.yul\":11266:11632   */\n    tag_725:\n        /* \"#utility.yul\":11408:11411   */\n      0x00\n        /* \"#utility.yul\":11429:11496   */\n      tag_727\n        /* \"#utility.yul\":11493:11495   */\n      0x12\n        /* \"#utility.yul\":11488:11491   */\n      dup4\n        /* \"#utility.yul\":11429:11496   */\n      tag_686\n      jump\t// in\n    tag_727:\n        /* \"#utility.yul\":11422:11496   */\n      swap2\n      pop\n        /* \"#utility.yul\":11505:11598   */\n      tag_728\n        /* \"#utility.yul\":11594:11597   */\n      dup3\n        /* \"#utility.yul\":11505:11598   */\n      tag_729\n      jump\t// in\n    tag_728:\n        /* \"#utility.yul\":11623:11625   */\n      0x20\n        /* \"#utility.yul\":11618:11621   */\n      dup3\n        /* \"#utility.yul\":11614:11626   */\n      add\n        /* \"#utility.yul\":11607:11626   */\n      swap1\n      pop\n        /* \"#utility.yul\":11266:11632   */\n      swap2\n      swap1\n      pop\n      jump\t// out\n        /* \"#utility.yul\":11638:12004   */\n    tag_730:\n        /* \"#utility.yul\":11780:11783   */\n      0x00\n        /* \"#utility.yul\":11801:11868   */\n      tag_732\n        /* \"#utility.yul\":11865:11867   */\n      0x2a\n        /* \"#utility.yul\":11860:11863   */\n      dup4\n        /* \"#utility.yul\":11801:11868   */\n      tag_686\n      jump\t// in\n    tag_732:\n        /* \"#utility.yul\":11794:11868   */\n      swap2\n      pop\n        /* \"#utility.yul\":11877:11970   */\n      tag_733\n        /* \"#utility.yul\":11966:11969   */\n      dup3\n        /* \"#utility.yul\":11877:11970   */\n      tag_734\n      jump\t// in\n    tag_733:\n        /* \"#utility.yul\":11995:11997   */\n      0x40\n        /* \"#utility.yul\":11990:11993   */\n      dup3\n        /* \"#utility.yul\":11986:11998   */\n      add\n        /* \"#utility.yul\":11979:11998   */\n      swap1\n      pop\n        /* \"#utility.yul\":11638:12004   */\n      swap2\n      swap1\n      pop\n      jump\t// out\n        /* \"#utility.yul\":12010:12376   */\n    tag_735:\n        /* \"#utility.yul\":12152:12155   */\n      0x00\n        /* \"#utility.yul\":12173:12240   */\n      tag_737\n        /* \"#utility.yul\":12237:12239   */\n      0x0c\n        /* \"#utility.yul\":12232:12235   */\n      dup4\n        /* \"#utility.yul\":12173:12240   */\n      tag_686\n      jump\t// in\n    tag_737:\n        /* \"#utility.yul\":12166:12240   */\n      swap2\n      pop\n        /* \"#utility.yul\":12249:12342   */\n      tag_738\n        /* \"#utility.yul\":12338:12341   */\n      dup3\n        /* \"#utility.yul\":12249:12342   */\n      tag_739\n      jump\t// in\n    tag_738:\n        /* \"#utility.yul\":12367:12369   */\n      0x20\n        /* \"#utility.yul\":12362:12365   */\n      dup3\n        /* \"#utility.yul\":12358:12370   */\n      add\n        /* \"#utility.yul\":12351:12370   */\n      swap1\n      pop\n        /* \"#utility.yul\":12010:12376   */\n      swap2\n      swap1\n      pop\n      jump\t// out\n        /* \"#utility.yul\":12382:12748   */\n    tag_740:\n        /* \"#utility.yul\":12524:12527   */\n      0x00\n        /* \"#utility.yul\":12545:12612   */\n      tag_742\n        /* \"#utility.yul\":12609:12611   */\n      0x36\n        /* \"#utility.yul\":12604:12607   */\n      dup4\n        /* \"#utility.yul\":12545:12612   */\n      tag_686\n      jump\t// in\n    tag_742:\n        /* \"#utility.yul\":12538:12612   */\n      swap2\n      pop\n        /* \"#utility.yul\":12621:12714   */\n      tag_743\n        /* \"#utility.yul\":12710:12713   */\n      dup3\n        /* \"#utility.yul\":12621:12714   */\n      tag_744\n      jump\t// in\n    tag_743:\n        /* \"#utility.yul\":12739:12741   */\n      0x40\n        /* \"#utility.yul\":12734:12737   */\n      dup3\n        /* \"#utility.yul\":12730:12742   */\n      add\n        /* \"#utility.yul\":12723:12742   */\n      swap1\n      pop\n        /* \"#utility.yul\":12382:12748   */\n      swap2\n      swap1\n      pop\n      jump\t// out\n        /* \"#utility.yul\":12754:13120   */\n    tag_745:\n        /* \"#utility.yul\":12896:12899   */\n      0x00\n        /* \"#utility.yul\":12917:12984   */\n      tag_747\n        /* \"#utility.yul\":12981:12983   */\n      0x14\n        /* \"#utility.yul\":12976:12979   */\n      dup4\n        /* \"#utility.yul\":12917:12984   */\n      tag_686\n      jump\t// in\n    tag_747:\n        /* \"#utility.yul\":12910:12984   */\n      swap2\n      pop\n        /* \"#utility.yul\":12993:13086   */\n      tag_748\n        /* \"#utility.yul\":13082:13085   */\n      dup3\n        /* \"#utility.yul\":12993:13086   */\n      tag_749\n      jump\t// in\n    tag_748:\n        /* \"#utility.yul\":13111:13113   */\n      0x20\n        /* \"#utility.yul\":13106:13109   */\n      dup3\n        /* \"#utility.yul\":13102:13114   */\n      add\n        /* \"#utility.yul\":13095:13114   */\n      swap1\n      pop\n        /* \"#utility.yul\":12754:13120   */\n      swap2\n      swap1\n      pop\n      jump\t// out\n        /* \"#utility.yul\":13126:13244   */\n    tag_750:\n        /* \"#utility.yul\":13213:13237   */\n      tag_752\n        /* \"#utility.yul\":13231:13236   */\n      dup2\n        /* \"#utility.yul\":13213:13237   */\n      tag_753\n      jump\t// in\n    tag_752:\n        /* \"#utility.yul\":13208:13211   */\n      dup3\n        /* \"#utility.yul\":13201:13238   */\n      mstore\n        /* \"#utility.yul\":13126:13244   */\n      pop\n      pop\n      jump\t// out\n        /* \"#utility.yul\":13250:13521   */\n    tag_549:\n        /* \"#utility.yul\":13380:13383   */\n      0x00\n        /* \"#utility.yul\":13402:13495   */\n      tag_755\n        /* \"#utility.yul\":13491:13494   */\n      dup3\n        /* \"#utility.yul\":13482:13488   */\n      dup5\n        /* \"#utility.yul\":13402:13495   */\n      tag_657\n      jump\t// in\n    tag_755:\n        /* \"#utility.yul\":13395:13495   */\n      swap2\n      pop\n        /* \"#utility.yul\":13512:13515   */\n      dup2\n        /* \"#utility.yul\":13505:13515   */\n      swap1\n      pop\n        /* \"#utility.yul\":13250:13521   */\n      swap3\n      swap2\n      pop\n      pop\n      jump\t// out\n        /* \"#utility.yul\":13527:13749   */\n    tag_116:\n        /* \"#utility.yul\":13620:13624   */\n      0x00\n        /* \"#utility.yul\":13658:13660   */\n      0x20\n        /* \"#utility.yul\":13647:13656   */\n      dup3\n        /* \"#utility.yul\":13643:13661   */\n      add\n        /* \"#utility.yul\":13635:13661   */\n      swap1\n      pop\n        /* \"#utility.yul\":13671:13742   */\n      tag_757\n        /* \"#utility.yul\":13739:13740   */\n      0x00\n        /* \"#utility.yul\":13728:13737   */\n      dup4\n        /* \"#utility.yul\":13724:13741   */\n      add\n        /* \"#utility.yul\":13715:13721   */\n      dup5\n        /* \"#utility.yul\":13671:13742   */\n      tag_653\n      jump\t// in\n    tag_757:\n        /* \"#utility.yul\":13527:13749   */\n      swap3\n      swap2\n      pop\n      pop\n      jump\t// out\n        /* \"#utility.yul\":13755:14087   */\n    tag_181:\n        /* \"#utility.yul\":13876:13880   */\n      0x00\n        /* \"#utility.yul\":13914:13916   */\n      0x40\n        /* \"#utility.yul\":13903:13912   */\n      dup3\n        /* \"#utility.yul\":13899:13917   */\n      add\n        /* \"#utility.yul\":13891:13917   */\n      swap1\n      pop\n        /* \"#utility.yul\":13927:13998   */\n      tag_759\n        /* \"#utility.yul\":13995:13996   */\n      0x00\n        /* \"#utility.yul\":13984:13993   */\n      dup4\n        /* \"#utility.yul\":13980:13997   */\n      add\n        /* \"#utility.yul\":13971:13977   */\n      dup6\n        /* \"#utility.yul\":13927:13998   */\n      tag_653\n      jump\t// in\n    tag_759:\n        /* \"#utility.yul\":14008:14080   */\n      tag_760\n        /* \"#utility.yul\":14076:14078   */\n      0x20\n        /* \"#utility.yul\":14065:14074   */\n      dup4\n        /* \"#utility.yul\":14061:14079   */\n      add\n        /* \"#utility.yul\":14052:14058   */\n      dup5\n        /* \"#utility.yul\":14008:14080   */\n      tag_653\n      jump\t// in\n    tag_760:\n        /* \"#utility.yul\":13755:14087   */\n      swap4\n      swap3\n      pop\n      pop\n      pop\n      jump\t// out\n        /* \"#utility.yul\":14093:14535   */\n    tag_493:\n        /* \"#utility.yul\":14242:14246   */\n      0x00\n        /* \"#utility.yul\":14280:14282   */\n      0x60\n        /* \"#utility.yul\":14269:14278   */\n      dup3\n        /* \"#utility.yul\":14265:14283   */\n      add\n        /* \"#utility.yul\":14257:14283   */\n      swap1\n      pop\n        /* \"#utility.yul\":14293:14364   */\n      tag_762\n        /* \"#utility.yul\":14361:14362   */\n      0x00\n        /* \"#utility.yul\":14350:14359   */\n      dup4\n        /* \"#utility.yul\":14346:14363   */\n      add\n        /* \"#utility.yul\":14337:14343   */\n      dup7\n        /* \"#utility.yul\":14293:14364   */\n      tag_653\n      jump\t// in\n    tag_762:\n        /* \"#utility.yul\":14374:14446   */\n      tag_763\n        /* \"#utility.yul\":14442:14444   */\n      0x20\n        /* \"#utility.yul\":14431:14440   */\n      dup4\n        /* \"#utility.yul\":14427:14445   */\n      add\n        /* \"#utility.yul\":14418:14424   */\n      dup6\n        /* \"#utility.yul\":14374:14446   */\n      tag_653\n      jump\t// in\n    tag_763:\n        /* \"#utility.yul\":14456:14528   */\n      tag_764\n        /* \"#utility.yul\":14524:14526   */\n      0x40\n        /* \"#utility.yul\":14513:14522   */\n      dup4\n        /* \"#utility.yul\":14509:14527   */\n      add\n        /* \"#utility.yul\":14500:14506   */\n      dup5\n        /* \"#utility.yul\":14456:14528   */\n      tag_750\n      jump\t// in\n    tag_764:\n        /* \"#utility.yul\":14093:14535   */\n      swap5\n      swap4\n      pop\n      pop\n      pop\n      pop\n      jump\t// out\n        /* \"#utility.yul\":14541:14873   */\n    tag_231:\n        /* \"#utility.yul\":14662:14666   */\n      0x00\n        /* \"#utility.yul\":14700:14702   */\n      0x40\n        /* \"#utility.yul\":14689:14698   */\n      dup3\n        /* \"#utility.yul\":14685:14703   */\n      add\n        /* \"#utility.yul\":14677:14703   */\n      swap1\n      pop\n        /* \"#utility.yul\":14713:14784   */\n      tag_766\n        /* \"#utility.yul\":14781:14782   */\n      0x00\n        /* \"#utility.yul\":14770:14779   */\n      dup4\n        /* \"#utility.yul\":14766:14783   */\n      add\n        /* \"#utility.yul\":14757:14763   */\n      dup6\n        /* \"#utility.yul\":14713:14784   */\n      tag_653\n      jump\t// in\n    tag_766:\n        /* \"#utility.yul\":14794:14866   */\n      tag_767\n        /* \"#utility.yul\":14862:14864   */\n      0x20\n        /* \"#utility.yul\":14851:14860   */\n      dup4\n        /* \"#utility.yul\":14847:14865   */\n      add\n        /* \"#utility.yul\":14838:14844   */\n      dup5\n        /* \"#utility.yul\":14794:14866   */\n      tag_750\n      jump\t// in\n    tag_767:\n        /* \"#utility.yul\":14541:14873   */\n      swap4\n      swap3\n      pop\n      pop\n      pop\n      jump\t// out\n        /* \"#utility.yul\":14879:15129   */\n    tag_133:\n        /* \"#utility.yul\":14986:14990   */\n      0x00\n        /* \"#utility.yul\":15024:15026   */\n      0x20\n        /* \"#utility.yul\":15013:15022   */\n      dup3\n        /* \"#utility.yul\":15009:15027   */\n      add\n        /* \"#utility.yul\":15001:15027   */\n      swap1\n      pop\n        /* \"#utility.yul\":15037:15122   */\n      tag_769\n        /* \"#utility.yul\":15119:15120   */\n      0x00\n        /* \"#utility.yul\":15108:15117   */\n      dup4\n        /* \"#utility.yul\":15104:15121   */\n      add\n        /* \"#utility.yul\":15095:15101   */\n      dup5\n        /* \"#utility.yul\":15037:15122   */\n      tag_665\n      jump\t// in\n    tag_769:\n        /* \"#utility.yul\":14879:15129   */\n      swap3\n      swap2\n      pop\n      pop\n      jump\t// out\n        /* \"#utility.yul\":15135:16226   */\n    tag_59:\n        /* \"#utility.yul\":15471:15475   */\n      0x00\n        /* \"#utility.yul\":15509:15512   */\n      0x0100\n        /* \"#utility.yul\":15498:15507   */\n      dup3\n        /* \"#utility.yul\":15494:15513   */\n      add\n        /* \"#utility.yul\":15486:15513   */\n      swap1\n      pop\n        /* \"#utility.yul\":15523:15608   */\n      tag_771\n        /* \"#utility.yul\":15605:15606   */\n      0x00\n        /* \"#utility.yul\":15594:15603   */\n      dup4\n        /* \"#utility.yul\":15590:15607   */\n      add\n        /* \"#utility.yul\":15581:15587   */\n      dup12\n        /* \"#utility.yul\":15523:15608   */\n      tag_665\n      jump\t// in\n    tag_771:\n        /* \"#utility.yul\":15618:15690   */\n      tag_772\n        /* \"#utility.yul\":15686:15688   */\n      0x20\n        /* \"#utility.yul\":15675:15684   */\n      dup4\n        /* \"#utility.yul\":15671:15689   */\n      add\n        /* \"#utility.yul\":15662:15668   */\n      dup11\n        /* \"#utility.yul\":15618:15690   */\n      tag_750\n      jump\t// in\n    tag_772:\n        /* \"#utility.yul\":15700:15772   */\n      tag_773\n        /* \"#utility.yul\":15768:15770   */\n      0x40\n        /* \"#utility.yul\":15757:15766   */\n      dup4\n        /* \"#utility.yul\":15753:15771   */\n      add\n        /* \"#utility.yul\":15744:15750   */\n      dup10\n        /* \"#utility.yul\":15700:15772   */\n      tag_750\n      jump\t// in\n    tag_773:\n        /* \"#utility.yul\":15782:15854   */\n      tag_774\n        /* \"#utility.yul\":15850:15852   */\n      0x60\n        /* \"#utility.yul\":15839:15848   */\n      dup4\n        /* \"#utility.yul\":15835:15853   */\n      add\n        /* \"#utility.yul\":15826:15832   */\n      dup9\n        /* \"#utility.yul\":15782:15854   */\n      tag_750\n      jump\t// in\n    tag_774:\n        /* \"#utility.yul\":15864:15956   */\n      tag_775\n        /* \"#utility.yul\":15951:15954   */\n      0x80\n        /* \"#utility.yul\":15940:15949   */\n      dup4\n        /* \"#utility.yul\":15936:15955   */\n      add\n        /* \"#utility.yul\":15927:15933   */\n      dup8\n        /* \"#utility.yul\":15864:15956   */\n      tag_669\n      jump\t// in\n    tag_775:\n        /* \"#utility.yul\":15966:16053   */\n      tag_776\n        /* \"#utility.yul\":16048:16051   */\n      0xa0\n        /* \"#utility.yul\":16037:16046   */\n      dup4\n        /* \"#utility.yul\":16033:16052   */\n      add\n        /* \"#utility.yul\":16024:16030   */\n      dup7\n        /* \"#utility.yul\":15966:16053   */\n      tag_665\n      jump\t// in\n    tag_776:\n        /* \"#utility.yul\":16063:16136   */\n      tag_777\n        /* \"#utility.yul\":16131:16134   */\n      0xc0\n        /* \"#utility.yul\":16120:16129   */\n      dup4\n        /* \"#utility.yul\":16116:16135   */\n      add\n        /* \"#utility.yul\":16107:16113   */\n      dup6\n        /* \"#utility.yul\":16063:16136   */\n      tag_750\n      jump\t// in\n    tag_777:\n        /* \"#utility.yul\":16146:16219   */\n      tag_778\n        /* \"#utility.yul\":16214:16217   */\n      0xe0\n        /* \"#utility.yul\":16203:16212   */\n      dup4\n        /* \"#utility.yul\":16199:16218   */\n      add\n        /* \"#utility.yul\":16190:16196   */\n      dup5\n        /* \"#utility.yul\":16146:16219   */\n      tag_750\n      jump\t// in\n    tag_778:\n        /* \"#utility.yul\":15135:16226   */\n      swap10\n      swap9\n      pop\n      pop\n      pop\n      pop\n      pop\n      pop\n      pop\n      pop\n      pop\n      jump\t// out\n        /* \"#utility.yul\":16232:16496   */\n    tag_109:\n        /* \"#utility.yul\":16346:16350   */\n      0x00\n        /* \"#utility.yul\":16384:16386   */\n      0x20\n        /* \"#utility.yul\":16373:16382   */\n      dup3\n        /* \"#utility.yul\":16369:16387   */\n      add\n        /* \"#utility.yul\":16361:16387   */\n      swap1\n      pop\n        /* \"#utility.yul\":16397:16489   */\n      tag_780\n        /* \"#utility.yul\":16486:16487   */\n      0x00\n        /* \"#utility.yul\":16475:16484   */\n      dup4\n        /* \"#utility.yul\":16471:16488   */\n      add\n        /* \"#utility.yul\":16462:16468   */\n      dup5\n        /* \"#utility.yul\":16397:16489   */\n      tag_673\n      jump\t// in\n    tag_780:\n        /* \"#utility.yul\":16232:16496   */\n      swap3\n      swap2\n      pop\n      pop\n      jump\t// out\n        /* \"#utility.yul\":16502:16768   */\n    tag_151:\n        /* \"#utility.yul\":16617:16621   */\n      0x00\n        /* \"#utility.yul\":16655:16657   */\n      0x20\n        /* \"#utility.yul\":16644:16653   */\n      dup3\n        /* \"#utility.yul\":16640:16658   */\n      add\n        /* \"#utility.yul\":16632:16658   */\n      swap1\n      pop\n        /* \"#utility.yul\":16668:16761   */\n      tag_782\n        /* \"#utility.yul\":16758:16759   */\n      0x00\n        /* \"#utility.yul\":16747:16756   */\n      dup4\n        /* \"#utility.yul\":16743:16760   */\n      add\n        /* \"#utility.yul\":16734:16740   */\n      dup5\n        /* \"#utility.yul\":16668:16761   */\n      tag_677\n      jump\t// in\n    tag_782:\n        /* \"#utility.yul\":16502:16768   */\n      swap3\n      swap2\n      pop\n      pop\n      jump\t// out\n        /* \"#utility.yul\":16774:17087   */\n    tag_521:\n        /* \"#utility.yul\":16887:16891   */\n      0x00\n        /* \"#utility.yul\":16925:16927   */\n      0x20\n        /* \"#utility.yul\":16914:16923   */\n      dup3\n        /* \"#utility.yul\":16910:16928   */\n      add\n        /* \"#utility.yul\":16902:16928   */\n      swap1\n      pop\n        /* \"#utility.yul\":16974:16983   */\n      dup2\n        /* \"#utility.yul\":16968:16972   */\n      dup2\n        /* \"#utility.yul\":16964:16984   */\n      sub\n        /* \"#utility.yul\":16960:16961   */\n      0x00\n        /* \"#utility.yul\":16949:16958   */\n      dup4\n        /* \"#utility.yul\":16945:16962   */\n      add\n        /* \"#utility.yul\":16938:16985   */\n      mstore\n        /* \"#utility.yul\":17002:17080   */\n      tag_784\n        /* \"#utility.yul\":17075:17079   */\n      dup2\n        /* \"#utility.yul\":17066:17072   */\n      dup5\n        /* \"#utility.yul\":17002:17080   */\n      tag_681\n      jump\t// in\n    tag_784:\n        /* \"#utility.yul\":16994:17080   */\n      swap1\n      pop\n        /* \"#utility.yul\":16774:17087   */\n      swap3\n      swap2\n      pop\n      pop\n      jump\t// out\n        /* \"#utility.yul\":17093:17512   */\n    tag_455:\n        /* \"#utility.yul\":17259:17263   */\n      0x00\n        /* \"#utility.yul\":17297:17299   */\n      0x20\n        /* \"#utility.yul\":17286:17295   */\n      dup3\n        /* \"#utility.yul\":17282:17300   */\n      add\n        /* \"#utility.yul\":17274:17300   */\n      swap1\n      pop\n        /* \"#utility.yul\":17346:17355   */\n      dup2\n        /* \"#utility.yul\":17340:17344   */\n      dup2\n        /* \"#utility.yul\":17336:17356   */\n      sub\n        /* \"#utility.yul\":17332:17333   */\n      0x00\n        /* \"#utility.yul\":17321:17330   */\n      dup4\n        /* \"#utility.yul\":17317:17334   */\n      add\n        /* \"#utility.yul\":17310:17357   */\n      mstore\n        /* \"#utility.yul\":17374:17505   */\n      tag_786\n        /* \"#utility.yul\":17500:17504   */\n      dup2\n        /* \"#utility.yul\":17374:17505   */\n      tag_690\n      jump\t// in\n    tag_786:\n        /* \"#utility.yul\":17366:17505   */\n      swap1\n      pop\n        /* \"#utility.yul\":17093:17512   */\n      swap2\n      swap1\n      pop\n      jump\t// out\n        /* \"#utility.yul\":17518:17937   */\n    tag_500:\n        /* \"#utility.yul\":17684:17688   */\n      0x00\n        /* \"#utility.yul\":17722:17724   */\n      0x20\n        /* \"#utility.yul\":17711:17720   */\n      dup3\n        /* \"#utility.yul\":17707:17725   */\n      add\n        /* \"#utility.yul\":17699:17725   */\n      swap1\n      pop\n        /* \"#utility.yul\":17771:17780   */\n      dup2\n        /* \"#utility.yul\":17765:17769   */\n      dup2\n        /* \"#utility.yul\":17761:17781   */\n      sub\n        /* \"#utility.yul\":17757:17758   */\n      0x00\n        /* \"#utility.yul\":17746:17755   */\n      dup4\n        /* \"#utility.yul\":17742:17759   */\n      add\n        /* \"#utility.yul\":17735:17782   */\n      mstore\n        /* \"#utility.yul\":17799:17930   */\n      tag_788\n        /* \"#utility.yul\":17925:17929   */\n      dup2\n        /* \"#utility.yul\":17799:17930   */\n      tag_695\n      jump\t// in\n    tag_788:\n        /* \"#utility.yul\":17791:17930   */\n      swap1\n      pop\n        /* \"#utility.yul\":17518:17937   */\n      swap2\n      swap1\n      pop\n      jump\t// out\n        /* \"#utility.yul\":17943:18362   */\n    tag_542:\n        /* \"#utility.yul\":18109:18113   */\n      0x00\n        /* \"#utility.yul\":18147:18149   */\n      0x20\n        /* \"#utility.yul\":18136:18145   */\n      dup3\n        /* \"#utility.yul\":18132:18150   */\n      add\n        /* \"#utility.yul\":18124:18150   */\n      swap1\n      pop\n        /* \"#utility.yul\":18196:18205   */\n      dup2\n        /* \"#utility.yul\":18190:18194   */\n      dup2\n        /* \"#utility.yul\":18186:18206   */\n      sub\n        /* \"#utility.yul\":18182:18183   */\n      0x00\n        /* \"#utility.yul\":18171:18180   */\n      dup4\n        /* \"#utility.yul\":18167:18184   */\n      add\n        /* \"#utility.yul\":18160:18207   */\n      mstore\n        /* \"#utility.yul\":18224:18355   */\n      tag_790\n        /* \"#utility.yul\":18350:18354   */\n      dup2\n        /* \"#utility.yul\":18224:18355   */\n      tag_700\n      jump\t// in\n    tag_790:\n        /* \"#utility.yul\":18216:18355   */\n      swap1\n      pop\n        /* \"#utility.yul\":17943:18362   */\n      swap2\n      swap1\n      pop\n      jump\t// out\n        /* \"#utility.yul\":18368:18787   */\n    tag_164:\n        /* \"#utility.yul\":18534:18538   */\n      0x00\n        /* \"#utility.yul\":18572:18574   */\n      0x20\n        /* \"#utility.yul\":18561:18570   */\n      dup3\n        /* \"#utility.yul\":18557:18575   */\n      add\n        /* \"#utility.yul\":18549:18575   */\n      swap1\n      pop\n        /* \"#utility.yul\":18621:18630   */\n      dup2\n        /* \"#utility.yul\":18615:18619   */\n      dup2\n        /* \"#utility.yul\":18611:18631   */\n      sub\n        /* \"#utility.yul\":18607:18608   */\n      0x00\n        /* \"#utility.yul\":18596:18605   */\n      dup4\n        /* \"#utility.yul\":18592:18609   */\n      add\n        /* \"#utility.yul\":18585:18632   */\n      mstore\n        /* \"#utility.yul\":18649:18780   */\n      tag_792\n        /* \"#utility.yul\":18775:18779   */\n      dup2\n        /* \"#utility.yul\":18649:18780   */\n      tag_705\n      jump\t// in\n    tag_792:\n        /* \"#utility.yul\":18641:18780   */\n      swap1\n      pop\n        /* \"#utility.yul\":18368:18787   */\n      swap2\n      swap1\n      pop\n      jump\t// out\n        /* \"#utility.yul\":18793:19212   */\n    tag_465:\n        /* \"#utility.yul\":18959:18963   */\n      0x00\n        /* \"#utility.yul\":18997:18999   */\n      0x20\n        /* \"#utility.yul\":18986:18995   */\n      dup3\n        /* \"#utility.yul\":18982:19000   */\n      add\n        /* \"#utility.yul\":18974:19000   */\n      swap1\n      pop\n        /* \"#utility.yul\":19046:19055   */\n      dup2\n        /* \"#utility.yul\":19040:19044   */\n      dup2\n        /* \"#utility.yul\":19036:19056   */\n      sub\n        /* \"#utility.yul\":19032:19033   */\n      0x00\n        /* \"#utility.yul\":19021:19030   */\n      dup4\n        /* \"#utility.yul\":19017:19034   */\n      add\n        /* \"#utility.yul\":19010:19057   */\n      mstore\n        /* \"#utility.yul\":19074:19205   */\n      tag_794\n        /* \"#utility.yul\":19200:19204   */\n      dup2\n        /* \"#utility.yul\":19074:19205   */\n      tag_710\n      jump\t// in\n    tag_794:\n        /* \"#utility.yul\":19066:19205   */\n      swap1\n      pop\n        /* \"#utility.yul\":18793:19212   */\n      swap2\n      swap1\n      pop\n      jump\t// out\n        /* \"#utility.yul\":19218:19637   */\n    tag_269:\n        /* \"#utility.yul\":19384:19388   */\n      0x00\n        /* \"#utility.yul\":19422:19424   */\n      0x20\n        /* \"#utility.yul\":19411:19420   */\n      dup3\n        /* \"#utility.yul\":19407:19425   */\n      add\n        /* \"#utility.yul\":19399:19425   */\n      swap1\n      pop\n        /* \"#utility.yul\":19471:19480   */\n      dup2\n        /* \"#utility.yul\":19465:19469   */\n      dup2\n        /* \"#utility.yul\":19461:19481   */\n      sub\n        /* \"#utility.yul\":19457:19458   */\n      0x00\n        /* \"#utility.yul\":19446:19455   */\n      dup4\n        /* \"#utility.yul\":19442:19459   */\n      add\n        /* \"#utility.yul\":19435:19482   */\n      mstore\n        /* \"#utility.yul\":19499:19630   */\n      tag_796\n        /* \"#utility.yul\":19625:19629   */\n      dup2\n        /* \"#utility.yul\":19499:19630   */\n      tag_715\n      jump\t// in\n    tag_796:\n        /* \"#utility.yul\":19491:19630   */\n      swap1\n      pop\n        /* \"#utility.yul\":19218:19637   */\n      swap2\n      swap1\n      pop\n      jump\t// out\n        /* \"#utility.yul\":19643:20062   */\n    tag_547:\n        /* \"#utility.yul\":19809:19813   */\n      0x00\n        /* \"#utility.yul\":19847:19849   */\n      0x20\n        /* \"#utility.yul\":19836:19845   */\n      dup3\n        /* \"#utility.yul\":19832:19850   */\n      add\n        /* \"#utility.yul\":19824:19850   */\n      swap1\n      pop\n        /* \"#utility.yul\":19896:19905   */\n      dup2\n        /* \"#utility.yul\":19890:19894   */\n      dup2\n        /* \"#utility.yul\":19886:19906   */\n      sub\n        /* \"#utility.yul\":19882:19883   */\n      0x00\n        /* \"#utility.yul\":19871:19880   */\n      dup4\n        /* \"#utility.yul\":19867:19884   */\n      add\n        /* \"#utility.yul\":19860:19907   */\n      mstore\n        /* \"#utility.yul\":19924:20055   */\n      tag_798\n        /* \"#utility.yul\":20050:20054   */\n      dup2\n        /* \"#utility.yul\":19924:20055   */\n      tag_720\n      jump\t// in\n    tag_798:\n        /* \"#utility.yul\":19916:20055   */\n      swap1\n      pop\n        /* \"#utility.yul\":19643:20062   */\n      swap2\n      swap1\n      pop\n      jump\t// out\n        /* \"#utility.yul\":20068:20487   */\n    tag_383:\n        /* \"#utility.yul\":20234:20238   */\n      0x00\n        /* \"#utility.yul\":20272:20274   */\n      0x20\n        /* \"#utility.yul\":20261:20270   */\n      dup3\n        /* \"#utility.yul\":20257:20275   */\n      add\n        /* \"#utility.yul\":20249:20275   */\n      swap1\n      pop\n        /* \"#utility.yul\":20321:20330   */\n      dup2\n        /* \"#utility.yul\":20315:20319   */\n      dup2\n        /* \"#utility.yul\":20311:20331   */\n      sub\n        /* \"#utility.yul\":20307:20308   */\n      0x00\n        /* \"#utility.yul\":20296:20305   */\n      dup4\n        /* \"#utility.yul\":20292:20309   */\n      add\n        /* \"#utility.yul\":20285:20332   */\n      mstore\n        /* \"#utility.yul\":20349:20480   */\n      tag_800\n        /* \"#utility.yul\":20475:20479   */\n      dup2\n        /* \"#utility.yul\":20349:20480   */\n      tag_725\n      jump\t// in\n    tag_800:\n        /* \"#utility.yul\":20341:20480   */\n      swap1\n      pop\n        /* \"#utility.yul\":20068:20487   */\n      swap2\n      swap1\n      pop\n      jump\t// out\n        /* \"#utility.yul\":20493:20912   */\n    tag_535:\n        /* \"#utility.yul\":20659:20663   */\n      0x00\n        /* \"#utility.yul\":20697:20699   */\n      0x20\n        /* \"#utility.yul\":20686:20695   */\n      dup3\n        /* \"#utility.yul\":20682:20700   */\n      add\n        /* \"#utility.yul\":20674:20700   */\n      swap1\n      pop\n        /* \"#utility.yul\":20746:20755   */\n      dup2\n        /* \"#utility.yul\":20740:20744   */\n      dup2\n        /* \"#utility.yul\":20736:20756   */\n      sub\n        /* \"#utility.yul\":20732:20733   */\n      0x00\n        /* \"#utility.yul\":20721:20730   */\n      dup4\n        /* \"#utility.yul\":20717:20734   */\n      add\n        /* \"#utility.yul\":20710:20757   */\n      mstore\n        /* \"#utility.yul\":20774:20905   */\n      tag_802\n        /* \"#utility.yul\":20900:20904   */\n      dup2\n        /* \"#utility.yul\":20774:20905   */\n      tag_730\n      jump\t// in\n    tag_802:\n        /* \"#utility.yul\":20766:20905   */\n      swap1\n      pop\n        /* \"#utility.yul\":20493:20912   */\n      swap2\n      swap1\n      pop\n      jump\t// out\n        /* \"#utility.yul\":20918:21337   */\n    tag_293:\n        /* \"#utility.yul\":21084:21088   */\n      0x00\n        /* \"#utility.yul\":21122:21124   */\n      0x20\n        /* \"#utility.yul\":21111:21120   */\n      dup3\n        /* \"#utility.yul\":21107:21125   */\n      add\n        /* \"#utility.yul\":21099:21125   */\n      swap1\n      pop\n        /* \"#utility.yul\":21171:21180   */\n      dup2\n        /* \"#utility.yul\":21165:21169   */\n      dup2\n        /* \"#utility.yul\":21161:21181   */\n      sub\n        /* \"#utility.yul\":21157:21158   */\n      0x00\n        /* \"#utility.yul\":21146:21155   */\n      dup4\n        /* \"#utility.yul\":21142:21159   */\n      add\n        /* \"#utility.yul\":21135:21182   */\n      mstore\n        /* \"#utility.yul\":21199:21330   */\n      tag_804\n        /* \"#utility.yul\":21325:21329   */\n      dup2\n        /* \"#utility.yul\":21199:21330   */\n      tag_735\n      jump\t// in\n    tag_804:\n        /* \"#utility.yul\":21191:21330   */\n      swap1\n      pop\n        /* \"#utility.yul\":20918:21337   */\n      swap2\n      swap1\n      pop\n      jump\t// out\n        /* \"#utility.yul\":21343:21762   */\n    tag_514:\n        /* \"#utility.yul\":21509:21513   */\n      0x00\n        /* \"#utility.yul\":21547:21549   */\n      0x20\n        /* \"#utility.yul\":21536:21545   */\n      dup3\n        /* \"#utility.yul\":21532:21550   */\n      add\n        /* \"#utility.yul\":21524:21550   */\n      swap1\n      pop\n        /* \"#utility.yul\":21596:21605   */\n      dup2\n        /* \"#utility.yul\":21590:21594   */\n      dup2\n        /* \"#utility.yul\":21586:21606   */\n      sub\n        /* \"#utility.yul\":21582:21583   */\n      0x00\n        /* \"#utility.yul\":21571:21580   */\n      dup4\n        /* \"#utility.yul\":21567:21584   */\n      add\n        /* \"#utility.yul\":21560:21607   */\n      mstore\n        /* \"#utility.yul\":21624:21755   */\n      tag_806\n        /* \"#utility.yul\":21750:21754   */\n      dup2\n        /* \"#utility.yul\":21624:21755   */\n      tag_740\n      jump\t// in\n    tag_806:\n        /* \"#utility.yul\":21616:21755   */\n      swap1\n      pop\n        /* \"#utility.yul\":21343:21762   */\n      swap2\n      swap1\n      pop\n      jump\t// out\n        /* \"#utility.yul\":21768:22187   */\n    tag_274:\n        /* \"#utility.yul\":21934:21938   */\n      0x00\n        /* \"#utility.yul\":21972:21974   */\n      0x20\n        /* \"#utility.yul\":21961:21970   */\n      dup3\n        /* \"#utility.yul\":21957:21975   */\n      add\n        /* \"#utility.yul\":21949:21975   */\n      swap1\n      pop\n        /* \"#utility.yul\":22021:22030   */\n      dup2\n        /* \"#utility.yul\":22015:22019   */\n      dup2\n        /* \"#utility.yul\":22011:22031   */\n      sub\n        /* \"#utility.yul\":22007:22008   */\n      0x00\n        /* \"#utility.yul\":21996:22005   */\n      dup4\n        /* \"#utility.yul\":21992:22009   */\n      add\n        /* \"#utility.yul\":21985:22032   */\n      mstore\n        /* \"#utility.yul\":22049:22180   */\n      tag_808\n        /* \"#utility.yul\":22175:22179   */\n      dup2\n        /* \"#utility.yul\":22049:22180   */\n      tag_745\n      jump\t// in\n    tag_808:\n        /* \"#utility.yul\":22041:22180   */\n      swap1\n      pop\n        /* \"#utility.yul\":21768:22187   */\n      swap2\n      swap1\n      pop\n      jump\t// out\n        /* \"#utility.yul\":22193:22415   */\n    tag_50:\n        /* \"#utility.yul\":22286:22290   */\n      0x00\n        /* \"#utility.yul\":22324:22326   */\n      0x20\n        /* \"#utility.yul\":22313:22322   */\n      dup3\n        /* \"#utility.yul\":22309:22327   */\n      add\n        /* \"#utility.yul\":22301:22327   */\n      swap1\n      pop\n        /* \"#utility.yul\":22337:22408   */\n      tag_810\n        /* \"#utility.yul\":22405:22406   */\n      0x00\n        /* \"#utility.yul\":22394:22403   */\n      dup4\n        /* \"#utility.yul\":22390:22407   */\n      add\n        /* \"#utility.yul\":22381:22387   */\n      dup5\n        /* \"#utility.yul\":22337:22408   */\n      tag_750\n      jump\t// in\n    tag_810:\n        /* \"#utility.yul\":22193:22415   */\n      swap3\n      swap2\n      pop\n      pop\n      jump\t// out\n        /* \"#utility.yul\":22421:22753   */\n    tag_238:\n        /* \"#utility.yul\":22542:22546   */\n      0x00\n        /* \"#utility.yul\":22580:22582   */\n      0x40\n        /* \"#utility.yul\":22569:22578   */\n      dup3\n        /* \"#utility.yul\":22565:22583   */\n      add\n        /* \"#utility.yul\":22557:22583   */\n      swap1\n      pop\n        /* \"#utility.yul\":22593:22664   */\n      tag_812\n        /* \"#utility.yul\":22661:22662   */\n      0x00\n        /* \"#utility.yul\":22650:22659   */\n      dup4\n        /* \"#utility.yul\":22646:22663   */\n      add\n        /* \"#utility.yul\":22637:22643   */\n      dup6\n        /* \"#utility.yul\":22593:22664   */\n      tag_750\n      jump\t// in\n    tag_812:\n        /* \"#utility.yul\":22674:22746   */\n      tag_813\n        /* \"#utility.yul\":22742:22744   */\n      0x20\n        /* \"#utility.yul\":22731:22740   */\n      dup4\n        /* \"#utility.yul\":22727:22745   */\n      add\n        /* \"#utility.yul\":22718:22724   */\n      dup5\n        /* \"#utility.yul\":22674:22746   */\n      tag_653\n      jump\t// in\n    tag_813:\n        /* \"#utility.yul\":22421:22753   */\n      swap4\n      swap3\n      pop\n      pop\n      pop\n      jump\t// out\n        /* \"#utility.yul\":22759:23091   */\n    tag_126:\n        /* \"#utility.yul\":22880:22884   */\n      0x00\n        /* \"#utility.yul\":22918:22920   */\n      0x40\n        /* \"#utility.yul\":22907:22916   */\n      dup3\n        /* \"#utility.yul\":22903:22921   */\n      add\n        /* \"#utility.yul\":22895:22921   */\n      swap1\n      pop\n        /* \"#utility.yul\":22931:23002   */\n      tag_815\n        /* \"#utility.yul\":22999:23000   */\n      0x00\n        /* \"#utility.yul\":22988:22997   */\n      dup4\n        /* \"#utility.yul\":22984:23001   */\n      add\n        /* \"#utility.yul\":22975:22981   */\n      dup6\n        /* \"#utility.yul\":22931:23002   */\n      tag_750\n      jump\t// in\n    tag_815:\n        /* \"#utility.yul\":23012:23084   */\n      tag_816\n        /* \"#utility.yul\":23080:23082   */\n      0x20\n        /* \"#utility.yul\":23069:23078   */\n      dup4\n        /* \"#utility.yul\":23065:23083   */\n      add\n        /* \"#utility.yul\":23056:23062   */\n      dup5\n        /* \"#utility.yul\":23012:23084   */\n      tag_750\n      jump\t// in\n    tag_816:\n        /* \"#utility.yul\":22759:23091   */\n      swap4\n      swap3\n      pop\n      pop\n      pop\n      jump\t// out\n        /* \"#utility.yul\":23178:23276   */\n    tag_660:\n        /* \"#utility.yul\":23229:23235   */\n      0x00\n        /* \"#utility.yul\":23263:23268   */\n      dup2\n        /* \"#utility.yul\":23257:23269   */\n      mload\n        /* \"#utility.yul\":23247:23269   */\n      swap1\n      pop\n        /* \"#utility.yul\":23178:23276   */\n      swap2\n      swap1\n      pop\n      jump\t// out\n        /* \"#utility.yul\":23282:23381   */\n    tag_684:\n        /* \"#utility.yul\":23334:23340   */\n      0x00\n        /* \"#utility.yul\":23368:23373   */\n      dup2\n        /* \"#utility.yul\":23362:23374   */\n      mload\n        /* \"#utility.yul\":23352:23374   */\n      swap1\n      pop\n        /* \"#utility.yul\":23282:23381   */\n      swap2\n      swap1\n      pop\n      jump\t// out\n        /* \"#utility.yul\":23387:23534   */\n    tag_662:\n        /* \"#utility.yul\":23488:23499   */\n      0x00\n        /* \"#utility.yul\":23525:23528   */\n      dup2\n        /* \"#utility.yul\":23510:23528   */\n      swap1\n      pop\n        /* \"#utility.yul\":23387:23534   */\n      swap3\n      swap2\n      pop\n      pop\n      jump\t// out\n        /* \"#utility.yul\":23540:23709   */\n    tag_686:\n        /* \"#utility.yul\":23624:23635   */\n      0x00\n        /* \"#utility.yul\":23658:23664   */\n      dup3\n        /* \"#utility.yul\":23653:23656   */\n      dup3\n        /* \"#utility.yul\":23646:23665   */\n      mstore\n        /* \"#utility.yul\":23698:23702   */\n      0x20\n        /* \"#utility.yul\":23693:23696   */\n      dup3\n        /* \"#utility.yul\":23689:23703   */\n      add\n        /* \"#utility.yul\":23674:23703   */\n      swap1\n      pop\n        /* \"#utility.yul\":23540:23709   */\n      swap3\n      swap2\n      pop\n      pop\n      jump\t// out\n        /* \"#utility.yul\":23715:24020   */\n    tag_497:\n        /* \"#utility.yul\":23755:23758   */\n      0x00\n        /* \"#utility.yul\":23774:23794   */\n      tag_824\n        /* \"#utility.yul\":23792:23793   */\n      dup3\n        /* \"#utility.yul\":23774:23794   */\n      tag_753\n      jump\t// in\n    tag_824:\n        /* \"#utility.yul\":23769:23794   */\n      swap2\n      pop\n        /* \"#utility.yul\":23808:23828   */\n      tag_825\n        /* \"#utility.yul\":23826:23827   */\n      dup4\n        /* \"#utility.yul\":23808:23828   */\n      tag_753\n      jump\t// in\n    tag_825:\n        /* \"#utility.yul\":23803:23828   */\n      swap3\n      pop\n        /* \"#utility.yul\":23962:23963   */\n      dup3\n        /* \"#utility.yul\":23894:23960   */\n      0xffffffffffffffffffffffffffffffffffffffffffffffffffffffffffffffff\n        /* \"#utility.yul\":23890:23964   */\n      sub\n        /* \"#utility.yul\":23887:23888   */\n      dup3\n        /* \"#utility.yul\":23884:23965   */\n      gt\n        /* \"#utility.yul\":23881:23988   */\n      iszero\n      tag_826\n      jumpi\n        /* \"#utility.yul\":23968:23986   */\n      tag_827\n      tag_828\n      jump\t// in\n    tag_827:\n        /* \"#utility.yul\":23881:23988   */\n    tag_826:\n        /* \"#utility.yul\":24012:24013   */\n      dup3\n        /* \"#utility.yul\":24009:24010   */\n      dup3\n        /* \"#utility.yul\":24005:24014   */\n      add\n        /* \"#utility.yul\":23998:24014   */\n      swap1\n      pop\n        /* \"#utility.yul\":23715:24020   */\n      swap3\n      swap2\n      pop\n      pop\n      jump\t// out\n        /* \"#utility.yul\":24026:24211   */\n    tag_462:\n        /* \"#utility.yul\":24066:24067   */\n      0x00\n        /* \"#utility.yul\":24083:24103   */\n      tag_830\n        /* \"#utility.yul\":24101:24102   */\n      dup3\n        /* \"#utility.yul\":24083:24103   */\n      tag_753\n      jump\t// in\n    tag_830:\n        /* \"#utility.yul\":24078:24103   */\n      swap2\n      pop\n        /* \"#utility.yul\":24117:24137   */\n      tag_831\n        /* \"#utility.yul\":24135:24136   */\n      dup4\n        /* \"#utility.yul\":24117:24137   */\n      tag_753\n      jump\t// in\n    tag_831:\n        /* \"#utility.yul\":24112:24137   */\n      swap3\n      pop\n        /* \"#utility.yul\":24156:24157   */\n      dup3\n        /* \"#utility.yul\":24146:24181   */\n      tag_832\n      jumpi\n        /* \"#utility.yul\":24161:24179   */\n      tag_833\n      tag_834\n      jump\t// in\n    tag_833:\n        /* \"#utility.yul\":24146:24181   */\n    tag_832:\n        /* \"#utility.yul\":24203:24204   */\n      dup3\n        /* \"#utility.yul\":24200:24201   */\n      dup3\n        /* \"#utility.yul\":24196:24205   */\n      div\n        /* \"#utility.yul\":24191:24205   */\n      swap1\n      pop\n        /* \"#utility.yul\":24026:24211   */\n      swap3\n      swap2\n      pop\n      pop\n      jump\t// out\n        /* \"#utility.yul\":24217:24565   */\n    tag_460:\n        /* \"#utility.yul\":24257:24264   */\n      0x00\n        /* \"#utility.yul\":24280:24300   */\n      tag_836\n        /* \"#utility.yul\":24298:24299   */\n      dup3\n        /* \"#utility.yul\":24280:24300   */\n      tag_753\n      jump\t// in\n    tag_836:\n        /* \"#utility.yul\":24275:24300   */\n      swap2\n      pop\n        /* \"#utility.yul\":24314:24334   */\n      tag_837\n        /* \"#utility.yul\":24332:24333   */\n      dup4\n        /* \"#utility.yul\":24314:24334   */\n      tag_753\n      jump\t// in\n    tag_837:\n        /* \"#utility.yul\":24309:24334   */\n      swap3\n      pop\n        /* \"#utility.yul\":24502:24503   */\n      dup2\n        /* \"#utility.yul\":24434:24500   */\n      0xffffffffffffffffffffffffffffffffffffffffffffffffffffffffffffffff\n        /* \"#utility.yul\":24430:24504   */\n      div\n        /* \"#utility.yul\":24427:24428   */\n      dup4\n        /* \"#utility.yul\":24424:24505   */\n      gt\n        /* \"#utility.yul\":24419:24420   */\n      dup3\n        /* \"#utility.yul\":24412:24421   */\n      iszero\n        /* \"#utility.yul\":24405:24422   */\n      iszero\n        /* \"#utility.yul\":24401:24506   */\n      and\n        /* \"#utility.yul\":24398:24529   */\n      iszero\n      tag_838\n      jumpi\n        /* \"#utility.yul\":24509:24527   */\n      tag_839\n      tag_828\n      jump\t// in\n    tag_839:\n        /* \"#utility.yul\":24398:24529   */\n    tag_838:\n        /* \"#utility.yul\":24557:24558   */\n      dup3\n        /* \"#utility.yul\":24554:24555   */\n      dup3\n        /* \"#utility.yul\":24550:24559   */\n      mul\n        /* \"#utility.yul\":24539:24559   */\n      swap1\n      pop\n        /* \"#utility.yul\":24217:24565   */\n      swap3\n      swap2\n      pop\n      pop\n      jump\t// out\n        /* \"#utility.yul\":24571:24762   */\n    tag_527:\n        /* \"#utility.yul\":24611:24615   */\n      0x00\n        /* \"#utility.yul\":24631:24651   */\n      tag_841\n        /* \"#utility.yul\":24649:24650   */\n      dup3\n        /* \"#utility.yul\":24631:24651   */\n      tag_753\n      jump\t// in\n    tag_841:\n        /* \"#utility.yul\":24626:24651   */\n      swap2\n      pop\n        /* \"#utility.yul\":24665:24685   */\n      tag_842\n        /* \"#utility.yul\":24683:24684   */\n      dup4\n        /* \"#utility.yul\":24665:24685   */\n      tag_753\n      jump\t// in\n    tag_842:\n        /* \"#utility.yul\":24660:24685   */\n      swap3\n      pop\n        /* \"#utility.yul\":24704:24705   */\n      dup3\n        /* \"#utility.yul\":24701:24702   */\n      dup3\n        /* \"#utility.yul\":24698:24706   */\n      lt\n        /* \"#utility.yul\":24695:24729   */\n      iszero\n      tag_843\n      jumpi\n        /* \"#utility.yul\":24709:24727   */\n      tag_844\n      tag_828\n      jump\t// in\n    tag_844:\n        /* \"#utility.yul\":24695:24729   */\n    tag_843:\n        /* \"#utility.yul\":24754:24755   */\n      dup3\n        /* \"#utility.yul\":24751:24752   */\n      dup3\n        /* \"#utility.yul\":24747:24756   */\n      sub\n        /* \"#utility.yul\":24739:24756   */\n      swap1\n      pop\n        /* \"#utility.yul\":24571:24762   */\n      swap3\n      swap2\n      pop\n      pop\n      jump\t// out\n        /* \"#utility.yul\":24768:24864   */\n    tag_656:\n        /* \"#utility.yul\":24805:24812   */\n      0x00\n        /* \"#utility.yul\":24834:24858   */\n      tag_846\n        /* \"#utility.yul\":24852:24857   */\n      dup3\n        /* \"#utility.yul\":24834:24858   */\n      tag_847\n      jump\t// in\n    tag_846:\n        /* \"#utility.yul\":24823:24858   */\n      swap1\n      pop\n        /* \"#utility.yul\":24768:24864   */\n      swap2\n      swap1\n      pop\n      jump\t// out\n        /* \"#utility.yul\":24870:24960   */\n    tag_848:\n        /* \"#utility.yul\":24904:24911   */\n      0x00\n        /* \"#utility.yul\":24947:24952   */\n      dup2\n        /* \"#utility.yul\":24940:24953   */\n      iszero\n        /* \"#utility.yul\":24933:24954   */\n      iszero\n        /* \"#utility.yul\":24922:24954   */\n      swap1\n      pop\n        /* \"#utility.yul\":24870:24960   */\n      swap2\n      swap1\n      pop\n      jump\t// out\n        /* \"#utility.yul\":24966:25076   */\n    tag_850:\n        /* \"#utility.yul\":25017:25024   */\n      0x00\n        /* \"#utility.yul\":25046:25070   */\n      tag_852\n        /* \"#utility.yul\":25064:25069   */\n      dup3\n        /* \"#utility.yul\":25046:25070   */\n      tag_656\n      jump\t// in\n    tag_852:\n        /* \"#utility.yul\":25035:25070   */\n      swap1\n      pop\n        /* \"#utility.yul\":24966:25076   */\n      swap2\n      swap1\n      pop\n      jump\t// out\n        /* \"#utility.yul\":25082:25197   */\n    tag_853:\n        /* \"#utility.yul\":25138:25145   */\n      0x00\n        /* \"#utility.yul\":25167:25191   */\n      tag_855\n        /* \"#utility.yul\":25185:25190   */\n      dup3\n        /* \"#utility.yul\":25167:25191   */\n      tag_656\n      jump\t// in\n    tag_855:\n        /* \"#utility.yul\":25156:25191   */\n      swap1\n      pop\n        /* \"#utility.yul\":25082:25197   */\n      swap2\n      swap1\n      pop\n      jump\t// out\n        /* \"#utility.yul\":25203:25320   */\n    tag_856:\n        /* \"#utility.yul\":25261:25268   */\n      0x00\n        /* \"#utility.yul\":25290:25314   */\n      tag_858\n        /* \"#utility.yul\":25308:25313   */\n      dup3\n        /* \"#utility.yul\":25290:25314   */\n      tag_656\n      jump\t// in\n    tag_858:\n        /* \"#utility.yul\":25279:25314   */\n      swap1\n      pop\n        /* \"#utility.yul\":25203:25320   */\n      swap2\n      swap1\n      pop\n      jump\t// out\n        /* \"#utility.yul\":25326:25452   */\n    tag_847:\n        /* \"#utility.yul\":25363:25370   */\n      0x00\n        /* \"#utility.yul\":25403:25445   */\n      0xffffffffffffffffffffffffffffffffffffffff\n        /* \"#utility.yul\":25396:25401   */\n      dup3\n        /* \"#utility.yul\":25392:25446   */\n      and\n        /* \"#utility.yul\":25381:25446   */\n      swap1\n      pop\n        /* \"#utility.yul\":25326:25452   */\n      swap2\n      swap1\n      pop\n      jump\t// out\n        /* \"#utility.yul\":25458:25535   */\n    tag_753:\n        /* \"#utility.yul\":25495:25502   */\n      0x00\n        /* \"#utility.yul\":25524:25529   */\n      dup2\n        /* \"#utility.yul\":25513:25529   */\n      swap1\n      pop\n        /* \"#utility.yul\":25458:25535   */\n      swap2\n      swap1\n      pop\n      jump\t// out\n        /* \"#utility.yul\":25541:25681   */\n    tag_668:\n        /* \"#utility.yul\":25605:25614   */\n      0x00\n        /* \"#utility.yul\":25638:25675   */\n      tag_862\n        /* \"#utility.yul\":25669:25674   */\n      dup3\n        /* \"#utility.yul\":25638:25675   */\n      tag_863\n      jump\t// in\n    tag_862:\n        /* \"#utility.yul\":25625:25675   */\n      swap1\n      pop\n        /* \"#utility.yul\":25541:25681   */\n      swap2\n      swap1\n      pop\n      jump\t// out\n        /* \"#utility.yul\":25687:25832   */\n    tag_672:\n        /* \"#utility.yul\":25756:25765   */\n      0x00\n        /* \"#utility.yul\":25789:25826   */\n      tag_865\n        /* \"#utility.yul\":25820:25825   */\n      dup3\n        /* \"#utility.yul\":25789:25826   */\n      tag_863\n      jump\t// in\n    tag_865:\n        /* \"#utility.yul\":25776:25826   */\n      swap1\n      pop\n        /* \"#utility.yul\":25687:25832   */\n      swap2\n      swap1\n      pop\n      jump\t// out\n        /* \"#utility.yul\":25838:25985   */\n    tag_676:\n        /* \"#utility.yul\":25909:25918   */\n      0x00\n        /* \"#utility.yul\":25942:25979   */\n      tag_867\n        /* \"#utility.yul\":25973:25978   */\n      dup3\n        /* \"#utility.yul\":25942:25979   */\n      tag_863\n      jump\t// in\n    tag_867:\n        /* \"#utility.yul\":25929:25979   */\n      swap1\n      pop\n        /* \"#utility.yul\":25838:25985   */\n      swap2\n      swap1\n      pop\n      jump\t// out\n        /* \"#utility.yul\":25991:26139   */\n    tag_680:\n        /* \"#utility.yul\":26063:26072   */\n      0x00\n        /* \"#utility.yul\":26096:26133   */\n      tag_869\n        /* \"#utility.yul\":26127:26132   */\n      dup3\n        /* \"#utility.yul\":26096:26133   */\n      tag_863\n      jump\t// in\n    tag_869:\n        /* \"#utility.yul\":26083:26133   */\n      swap1\n      pop\n        /* \"#utility.yul\":25991:26139   */\n      swap2\n      swap1\n      pop\n      jump\t// out\n        /* \"#utility.yul\":26145:26271   */\n    tag_863:\n        /* \"#utility.yul\":26195:26204   */\n      0x00\n        /* \"#utility.yul\":26228:26265   */\n      tag_871\n        /* \"#utility.yul\":26259:26264   */\n      dup3\n        /* \"#utility.yul\":26228:26265   */\n      tag_872\n      jump\t// in\n    tag_871:\n        /* \"#utility.yul\":26215:26265   */\n      swap1\n      pop\n        /* \"#utility.yul\":26145:26271   */\n      swap2\n      swap1\n      pop\n      jump\t// out\n        /* \"#utility.yul\":26277:26390   */\n    tag_872:\n        /* \"#utility.yul\":26327:26336   */\n      0x00\n        /* \"#utility.yul\":26360:26384   */\n      tag_874\n        /* \"#utility.yul\":26378:26383   */\n      dup3\n        /* \"#utility.yul\":26360:26384   */\n      tag_847\n      jump\t// in\n    tag_874:\n        /* \"#utility.yul\":26347:26384   */\n      swap1\n      pop\n        /* \"#utility.yul\":26277:26390   */\n      swap2\n      swap1\n      pop\n      jump\t// out\n        /* \"#utility.yul\":26396:26703   */\n    tag_664:\n        /* \"#utility.yul\":26464:26465   */\n      0x00\n        /* \"#utility.yul\":26474:26587   */\n    tag_876:\n        /* \"#utility.yul\":26488:26494   */\n      dup4\n        /* \"#utility.yul\":26485:26486   */\n      dup2\n        /* \"#utility.yul\":26482:26495   */\n      lt\n        /* \"#utility.yul\":26474:26587   */\n      iszero\n      tag_878\n      jumpi\n        /* \"#utility.yul\":26573:26574   */\n      dup1\n        /* \"#utility.yul\":26568:26571   */\n      dup3\n        /* \"#utility.yul\":26564:26575   */\n      add\n        /* \"#utility.yul\":26558:26576   */\n      mload\n        /* \"#utility.yul\":26554:26555   */\n      dup2\n        /* \"#utility.yul\":26549:26552   */\n      dup5\n        /* \"#utility.yul\":26545:26556   */\n      add\n        /* \"#utility.yul\":26538:26577   */\n      mstore\n        /* \"#utility.yul\":26510:26512   */\n      0x20\n        /* \"#utility.yul\":26507:26508   */\n      dup2\n        /* \"#utility.yul\":26503:26513   */\n      add\n        /* \"#utility.yul\":26498:26513   */\n      swap1\n      pop\n        /* \"#utility.yul\":26474:26587   */\n      jump(tag_876)\n    tag_878:\n        /* \"#utility.yul\":26605:26611   */\n      dup4\n        /* \"#utility.yul\":26602:26603   */\n      dup2\n        /* \"#utility.yul\":26599:26612   */\n      gt\n        /* \"#utility.yul\":26596:26697   */\n      iszero\n      tag_879\n      jumpi\n        /* \"#utility.yul\":26685:26686   */\n      0x00\n        /* \"#utility.yul\":26676:26682   */\n      dup5\n        /* \"#utility.yul\":26671:26674   */\n      dup5\n        /* \"#utility.yul\":26667:26683   */\n      add\n        /* \"#utility.yul\":26660:26687   */\n      mstore\n        /* \"#utility.yul\":26596:26697   */\n    tag_879:\n        /* \"#utility.yul\":26445:26703   */\n      pop\n        /* \"#utility.yul\":26396:26703   */\n      pop\n      pop\n      pop\n      jump\t// out\n        /* \"#utility.yul\":26709:26942   */\n    tag_336:\n        /* \"#utility.yul\":26748:26751   */\n      0x00\n        /* \"#utility.yul\":26771:26795   */\n      tag_881\n        /* \"#utility.yul\":26789:26794   */\n      dup3\n        /* \"#utility.yul\":26771:26795   */\n      tag_753\n      jump\t// in\n    tag_881:\n        /* \"#utility.yul\":26762:26795   */\n      swap2\n      pop\n        /* \"#utility.yul\":26817:26883   */\n      0xffffffffffffffffffffffffffffffffffffffffffffffffffffffffffffffff\n        /* \"#utility.yul\":26810:26815   */\n      dup3\n        /* \"#utility.yul\":26807:26884   */\n      eq\n        /* \"#utility.yul\":26804:26907   */\n      iszero\n      tag_882\n      jumpi\n        /* \"#utility.yul\":26887:26905   */\n      tag_883\n      tag_828\n      jump\t// in\n    tag_883:\n        /* \"#utility.yul\":26804:26907   */\n    tag_882:\n        /* \"#utility.yul\":26934:26935   */\n      0x01\n        /* \"#utility.yul\":26927:26932   */\n      dup3\n        /* \"#utility.yul\":26923:26936   */\n      add\n        /* \"#utility.yul\":26916:26936   */\n      swap1\n      pop\n        /* \"#utility.yul\":26709:26942   */\n      swap2\n      swap1\n      pop\n      jump\t// out\n        /* \"#utility.yul\":26948:27128   */\n    tag_828:\n        /* \"#utility.yul\":26996:27073   */\n      0x4e487b7100000000000000000000000000000000000000000000000000000000\n        /* \"#utility.yul\":26993:26994   */\n      0x00\n        /* \"#utility.yul\":26986:27074   */\n      mstore\n        /* \"#utility.yul\":27093:27097   */\n      0x11\n        /* \"#utility.yul\":27090:27091   */\n      0x04\n        /* \"#utility.yul\":27083:27098   */\n      mstore\n        /* \"#utility.yul\":27117:27121   */\n      0x24\n        /* \"#utility.yul\":27114:27115   */\n      0x00\n        /* \"#utility.yul\":27107:27122   */\n      revert\n        /* \"#utility.yul\":27134:27314   */\n    tag_834:\n        /* \"#utility.yul\":27182:27259   */\n      0x4e487b7100000000000000000000000000000000000000000000000000000000\n        /* \"#utility.yul\":27179:27180   */\n      0x00\n        /* \"#utility.yul\":27172:27260   */\n      mstore\n        /* \"#utility.yul\":27279:27283   */\n      0x12\n        /* \"#utility.yul\":27276:27277   */\n      0x04\n        /* \"#utility.yul\":27269:27284   */\n      mstore\n        /* \"#utility.yul\":27303:27307   */\n      0x24\n        /* \"#utility.yul\":27300:27301   */\n      0x00\n        /* \"#utility.yul\":27293:27308   */\n      revert\n        /* \"#utility.yul\":27320:27500   */\n    tag_167:\n        /* \"#utility.yul\":27368:27445   */\n      0x4e487b7100000000000000000000000000000000000000000000000000000000\n        /* \"#utility.yul\":27365:27366   */\n      0x00\n        /* \"#utility.yul\":27358:27446   */\n      mstore\n        /* \"#utility.yul\":27465:27469   */\n      0x32\n        /* \"#utility.yul\":27462:27463   */\n      0x04\n        /* \"#utility.yul\":27455:27470   */\n      mstore\n        /* \"#utility.yul\":27489:27493   */\n      0x24\n        /* \"#utility.yul\":27486:27487   */\n      0x00\n        /* \"#utility.yul\":27479:27494   */\n      revert\n        /* \"#utility.yul\":27629:27746   */\n    tag_599:\n        /* \"#utility.yul\":27738:27739   */\n      0x00\n        /* \"#utility.yul\":27735:27736   */\n      dup1\n        /* \"#utility.yul\":27728:27740   */\n      revert\n        /* \"#utility.yul\":27752:27854   */\n    tag_689:\n        /* \"#utility.yul\":27793:27799   */\n      0x00\n        /* \"#utility.yul\":27844:27846   */\n      0x1f\n        /* \"#utility.yul\":27840:27847   */\n      not\n        /* \"#utility.yul\":27835:27837   */\n      0x1f\n        /* \"#utility.yul\":27828:27833   */\n      dup4\n        /* \"#utility.yul\":27824:27838   */\n      add\n        /* \"#utility.yul\":27820:27848   */\n      and\n        /* \"#utility.yul\":27810:27848   */\n      swap1\n      pop\n        /* \"#utility.yul\":27752:27854   */\n      swap2\n      swap1\n      pop\n      jump\t// out\n        /* \"#utility.yul\":27860:28085   */\n    tag_694:\n        /* \"#utility.yul\":28000:28034   */\n      0x4f776e61626c653a206e6577206f776e657220697320746865207a65726f2061\n        /* \"#utility.yul\":27996:27997   */\n      0x00\n        /* \"#utility.yul\":27988:27994   */\n      dup3\n        /* \"#utility.yul\":27984:27998   */\n      add\n        /* \"#utility.yul\":27977:28035   */\n      mstore\n        /* \"#utility.yul\":28069:28077   */\n      0x6464726573730000000000000000000000000000000000000000000000000000\n        /* \"#utility.yul\":28064:28066   */\n      0x20\n        /* \"#utility.yul\":28056:28062   */\n      dup3\n        /* \"#utility.yul\":28052:28067   */\n      add\n        /* \"#utility.yul\":28045:28078   */\n      mstore\n        /* \"#utility.yul\":27860:28085   */\n      pop\n      jump\t// out\n        /* \"#utility.yul\":28091:28268   */\n    tag_699:\n        /* \"#utility.yul\":28231:28260   */\n      0x536166654d6174683a206164646974696f6e206f766572666c6f770000000000\n        /* \"#utility.yul\":28227:28228   */\n      0x00\n        /* \"#utility.yul\":28219:28225   */\n      dup3\n        /* \"#utility.yul\":28215:28229   */\n      add\n        /* \"#utility.yul\":28208:28261   */\n      mstore\n        /* \"#utility.yul\":28091:28268   */\n      pop\n      jump\t// out\n        /* \"#utility.yul\":28274:28499   */\n    tag_704:\n        /* \"#utility.yul\":28414:28448   */\n      0x416464726573733a20696e73756666696369656e742062616c616e636520666f\n        /* \"#utility.yul\":28410:28411   */\n      0x00\n        /* \"#utility.yul\":28402:28408   */\n      dup3\n        /* \"#utility.yul\":28398:28412   */\n      add\n        /* \"#utility.yul\":28391:28449   */\n      mstore\n        /* \"#utility.yul\":28483:28491   */\n      0x722063616c6c0000000000000000000000000000000000000000000000000000\n        /* \"#utility.yul\":28478:28480   */\n      0x20\n        /* \"#utility.yul\":28470:28476   */\n      dup3\n        /* \"#utility.yul\":28466:28481   */\n      add\n        /* \"#utility.yul\":28459:28492   */\n      mstore\n        /* \"#utility.yul\":28274:28499   */\n      pop\n      jump\t// out\n        /* \"#utility.yul\":28505:28669   */\n    tag_709:\n        /* \"#utility.yul\":28645:28661   */\n      0x416d6f756e74206973207a65726f000000000000000000000000000000000000\n        /* \"#utility.yul\":28641:28642   */\n      0x00\n        /* \"#utility.yul\":28633:28639   */\n      dup3\n        /* \"#utility.yul\":28629:28643   */\n      add\n        /* \"#utility.yul\":28622:28662   */\n      mstore\n        /* \"#utility.yul\":28505:28669   */\n      pop\n      jump\t// out\n        /* \"#utility.yul\":28675:28895   */\n    tag_714:\n        /* \"#utility.yul\":28815:28849   */\n      0x536166654d6174683a206d756c7469706c69636174696f6e206f766572666c6f\n        /* \"#utility.yul\":28811:28812   */\n      0x00\n        /* \"#utility.yul\":28803:28809   */\n      dup3\n        /* \"#utility.yul\":28799:28813   */\n      add\n        /* \"#utility.yul\":28792:28850   */\n      mstore\n        /* \"#utility.yul\":28884:28887   */\n      0x7700000000000000000000000000000000000000000000000000000000000000\n        /* \"#utility.yul\":28879:28881   */\n      0x20\n        /* \"#utility.yul\":28871:28877   */\n      dup3\n        /* \"#utility.yul\":28867:28882   */\n      add\n        /* \"#utility.yul\":28860:28888   */\n      mstore\n        /* \"#utility.yul\":28675:28895   */\n      pop\n      jump\t// out\n        /* \"#utility.yul\":28901:29083   */\n    tag_719:\n        /* \"#utility.yul\":29041:29075   */\n      0x4f776e61626c653a2063616c6c6572206973206e6f7420746865206f776e6572\n        /* \"#utility.yul\":29037:29038   */\n      0x00\n        /* \"#utility.yul\":29029:29035   */\n      dup3\n        /* \"#utility.yul\":29025:29039   */\n      add\n        /* \"#utility.yul\":29018:29076   */\n      mstore\n        /* \"#utility.yul\":28901:29083   */\n      pop\n      jump\t// out\n        /* \"#utility.yul\":29089:29268   */\n    tag_724:\n        /* \"#utility.yul\":29229:29260   */\n      0x416464726573733a2063616c6c20746f206e6f6e2d636f6e7472616374000000\n        /* \"#utility.yul\":29225:29226   */\n      0x00\n        /* \"#utility.yul\":29217:29223   */\n      dup3\n        /* \"#utility.yul\":29213:29227   */\n      add\n        /* \"#utility.yul\":29206:29261   */\n      mstore\n        /* \"#utility.yul\":29089:29268   */\n      pop\n      jump\t// out\n        /* \"#utility.yul\":29274:29442   */\n    tag_729:\n        /* \"#utility.yul\":29414:29434   */\n      0x77697468647261773a206e6f7420676f6f640000000000000000000000000000\n        /* \"#utility.yul\":29410:29411   */\n      0x00\n        /* \"#utility.yul\":29402:29408   */\n      dup3\n        /* \"#utility.yul\":29398:29412   */\n      add\n        /* \"#utility.yul\":29391:29435   */\n      mstore\n        /* \"#utility.yul\":29274:29442   */\n      pop\n      jump\t// out\n        /* \"#utility.yul\":29448:29677   */\n    tag_734:\n        /* \"#utility.yul\":29588:29622   */\n      0x5361666545524332303a204552433230206f7065726174696f6e20646964206e\n        /* \"#utility.yul\":29584:29585   */\n      0x00\n        /* \"#utility.yul\":29576:29582   */\n      dup3\n        /* \"#utility.yul\":29572:29586   */\n      add\n        /* \"#utility.yul\":29565:29623   */\n      mstore\n        /* \"#utility.yul\":29657:29669   */\n      0x6f74207375636365656400000000000000000000000000000000000000000000\n        /* \"#utility.yul\":29652:29654   */\n      0x20\n        /* \"#utility.yul\":29644:29650   */\n      dup3\n        /* \"#utility.yul\":29640:29655   */\n      add\n        /* \"#utility.yul\":29633:29670   */\n      mstore\n        /* \"#utility.yul\":29448:29677   */\n      pop\n      jump\t// out\n        /* \"#utility.yul\":29683:29845   */\n    tag_739:\n        /* \"#utility.yul\":29823:29837   */\n      0x6d6967726174653a206261640000000000000000000000000000000000000000\n        /* \"#utility.yul\":29819:29820   */\n      0x00\n        /* \"#utility.yul\":29811:29817   */\n      dup3\n        /* \"#utility.yul\":29807:29821   */\n      add\n        /* \"#utility.yul\":29800:29838   */\n      mstore\n        /* \"#utility.yul\":29683:29845   */\n      pop\n      jump\t// out\n        /* \"#utility.yul\":29851:30092   */\n    tag_744:\n        /* \"#utility.yul\":29991:30025   */\n      0x5361666545524332303a20617070726f76652066726f6d206e6f6e2d7a65726f\n        /* \"#utility.yul\":29987:29988   */\n      0x00\n        /* \"#utility.yul\":29979:29985   */\n      dup3\n        /* \"#utility.yul\":29975:29989   */\n      add\n        /* \"#utility.yul\":29968:30026   */\n      mstore\n        /* \"#utility.yul\":30060:30084   */\n      0x20746f206e6f6e2d7a65726f20616c6c6f77616e636500000000000000000000\n        /* \"#utility.yul\":30055:30057   */\n      0x20\n        /* \"#utility.yul\":30047:30053   */\n      dup3\n        /* \"#utility.yul\":30043:30058   */\n      add\n        /* \"#utility.yul\":30036:30085   */\n      mstore\n        /* \"#utility.yul\":29851:30092   */\n      pop\n      jump\t// out\n        /* \"#utility.yul\":30098:30268   */\n    tag_749:\n        /* \"#utility.yul\":30238:30260   */\n      0x6d6967726174653a206e6f206d69677261746f72000000000000000000000000\n        /* \"#utility.yul\":30234:30235   */\n      0x00\n        /* \"#utility.yul\":30226:30232   */\n      dup3\n        /* \"#utility.yul\":30222:30236   */\n      add\n        /* \"#utility.yul\":30215:30261   */\n      mstore\n        /* \"#utility.yul\":30098:30268   */\n      pop\n      jump\t// out\n        /* \"#utility.yul\":30274:30396   */\n    tag_566:\n        /* \"#utility.yul\":30347:30371   */\n      tag_904\n        /* \"#utility.yul\":30365:30370   */\n      dup2\n        /* \"#utility.yul\":30347:30371   */\n      tag_656\n      jump\t// in\n    tag_904:\n        /* \"#utility.yul\":30340:30345   */\n      dup2\n        /* \"#utility.yul\":30337:30372   */\n      eq\n        /* \"#utility.yul\":30327:30390   */\n      tag_905\n      jumpi\n        /* \"#utility.yul\":30386:30387   */\n      0x00\n        /* \"#utility.yul\":30383:30384   */\n      dup1\n        /* \"#utility.yul\":30376:30388   */\n      revert\n        /* \"#utility.yul\":30327:30390   */\n    tag_905:\n        /* \"#utility.yul\":30274:30396   */\n      pop\n      jump\t// out\n        /* \"#utility.yul\":30402:30518   */\n    tag_570:\n        /* \"#utility.yul\":30472:30493   */\n      tag_907\n        /* \"#utility.yul\":30487:30492   */\n      dup2\n        /* \"#utility.yul\":30472:30493   */\n      tag_848\n      jump\t// in\n    tag_907:\n        /* \"#utility.yul\":30465:30470   */\n      dup2\n        /* \"#utility.yul\":30462:30494   */\n      eq\n        /* \"#utility.yul\":30452:30512   */\n      tag_908\n      jumpi\n        /* \"#utility.yul\":30508:30509   */\n      0x00\n        /* \"#utility.yul\":30505:30506   */\n      dup1\n        /* \"#utility.yul\":30498:30510   */\n      revert\n        /* \"#utility.yul\":30452:30512   */\n    tag_908:\n        /* \"#utility.yul\":30402:30518   */\n      pop\n      jump\t// out\n        /* \"#utility.yul\":30524:30674   */\n    tag_577:\n        /* \"#utility.yul\":30611:30649   */\n      tag_910\n        /* \"#utility.yul\":30643:30648   */\n      dup2\n        /* \"#utility.yul\":30611:30649   */\n      tag_850\n      jump\t// in\n    tag_910:\n        /* \"#utility.yul\":30604:30609   */\n      dup2\n        /* \"#utility.yul\":30601:30650   */\n      eq\n        /* \"#utility.yul\":30591:30668   */\n      tag_911\n      jumpi\n        /* \"#utility.yul\":30664:30665   */\n      0x00\n        /* \"#utility.yul\":30661:30662   */\n      dup1\n        /* \"#utility.yul\":30654:30666   */\n      revert\n        /* \"#utility.yul\":30591:30668   */\n    tag_911:\n        /* \"#utility.yul\":30524:30674   */\n      pop\n      jump\t// out\n        /* \"#utility.yul\":30680:30840   */\n    tag_584:\n        /* \"#utility.yul\":30772:30815   */\n      tag_913\n        /* \"#utility.yul\":30809:30814   */\n      dup2\n        /* \"#utility.yul\":30772:30815   */\n      tag_853\n      jump\t// in\n    tag_913:\n        /* \"#utility.yul\":30765:30770   */\n      dup2\n        /* \"#utility.yul\":30762:30816   */\n      eq\n        /* \"#utility.yul\":30752:30834   */\n      tag_914\n      jumpi\n        /* \"#utility.yul\":30830:30831   */\n      0x00\n        /* \"#utility.yul\":30827:30828   */\n      dup1\n        /* \"#utility.yul\":30820:30832   */\n      revert\n        /* \"#utility.yul\":30752:30834   */\n    tag_914:\n        /* \"#utility.yul\":30680:30840   */\n      pop\n      jump\t// out\n        /* \"#utility.yul\":30846:31010   */\n    tag_588:\n        /* \"#utility.yul\":30940:30985   */\n      tag_916\n        /* \"#utility.yul\":30979:30984   */\n      dup2\n        /* \"#utility.yul\":30940:30985   */\n      tag_856\n      jump\t// in\n    tag_916:\n        /* \"#utility.yul\":30933:30938   */\n      dup2\n        /* \"#utility.yul\":30930:30986   */\n      eq\n        /* \"#utility.yul\":30920:31004   */\n      tag_917\n      jumpi\n        /* \"#utility.yul\":31000:31001   */\n      0x00\n        /* \"#utility.yul\":30997:30998   */\n      dup1\n        /* \"#utility.yul\":30990:31002   */\n      revert\n        /* \"#utility.yul\":30920:31004   */\n    tag_917:\n        /* \"#utility.yul\":30846:31010   */\n      pop\n      jump\t// out\n        /* \"#utility.yul\":31016:31138   */\n    tag_592:\n        /* \"#utility.yul\":31089:31113   */\n      tag_919\n        /* \"#utility.yul\":31107:31112   */\n      dup2\n        /* \"#utility.yul\":31089:31113   */\n      tag_753\n      jump\t// in\n    tag_919:\n        /* \"#utility.yul\":31082:31087   */\n      dup2\n        /* \"#utility.yul\":31079:31114   */\n      eq\n        /* \"#utility.yul\":31069:31132   */\n      tag_920\n      jumpi\n        /* \"#utility.yul\":31128:31129   */\n      0x00\n        /* \"#utility.yul\":31125:31126   */\n      dup1\n        /* \"#utility.yul\":31118:31130   */\n      revert\n        /* \"#utility.yul\":31069:31132   */\n    tag_920:\n        /* \"#utility.yul\":31016:31138   */\n      pop\n      jump\t// out\n\n    auxdata: 0xa26469706673582212202fcc3712c0e4950e3650dcbf45ed5fa3069d21dc1cdd9921189cf3aa1c13021d64736f6c63430008070033\n}\n",
				"bytecode": {
					"linkReferences": {},
					"object": "608060405260016004556000600855717f8c9ef06e25a77fe790001fac71c71c71c7600b5568056bc75e2d63100000600c553480156200003e57600080fd5b506040516200475d3803806200475d833981810160405281019062000064919062000288565b62000084620000786200016060201b60201c565b6200016860201b60201c565b84600160006101000a81548173ffffffffffffffffffffffffffffffffffffffff021916908373ffffffffffffffffffffffffffffffffffffffff16021790555082600260006101000a81548173ffffffffffffffffffffffffffffffffffffffff021916908373ffffffffffffffffffffffffffffffffffffffff160217905550816003819055508060098190555083600d60006101000a81548173ffffffffffffffffffffffffffffffffffffffff021916908373ffffffffffffffffffffffffffffffffffffffff1602179055505050505050620003e3565b600033905090565b60008060009054906101000a900473ffffffffffffffffffffffffffffffffffffffff169050816000806101000a81548173ffffffffffffffffffffffffffffffffffffffff021916908373ffffffffffffffffffffffffffffffffffffffff1602179055508173ffffffffffffffffffffffffffffffffffffffff168173ffffffffffffffffffffffffffffffffffffffff167f8be0079c531659141344cd1fd0a4f28419497f9722a3daafe3b4186f6b6457e060405160405180910390a35050565b6000815190506200023d816200037b565b92915050565b600081519050620002548162000395565b92915050565b6000815190506200026b81620003af565b92915050565b6000815190506200028281620003c9565b92915050565b600080600080600060a08688031215620002a757620002a662000376565b5b6000620002b78882890162000243565b9550506020620002ca888289016200025a565b9450506040620002dd888289016200022c565b9350506060620002f08882890162000271565b9250506080620003038882890162000271565b9150509295509295909350565b60006200031d826200034c565b9050919050565b6000620003318262000310565b9050919050565b6000620003458262000310565b9050919050565b600073ffffffffffffffffffffffffffffffffffffffff82169050919050565b6000819050919050565b600080fd5b620003868162000310565b81146200039257600080fd5b50565b620003a08162000324565b8114620003ac57600080fd5b50565b620003ba8162000338565b8114620003c657600080fd5b50565b620003d4816200036c565b8114620003e057600080fd5b50565b61436a80620003f36000396000f3fe608060405234801561001057600080fd5b50600436106101fa5760003560e01c80636a6d964e1161011a578063cb3cba55116100ad578063d49e77cd1161007c578063d49e77cd14610579578063e4d0989614610597578063eeac3ae8146105b5578063f2fde38b146105d1578063f395db2c146105ed576101fa565b8063cb3cba55146104f3578063cdfb6cf314610511578063d0d41fe114610541578063d1634b8f1461055d576101fa565b80638da5cb5b116100e95780638da5cb5b146104585780638dbb1e3a1461047657806393f1a40b146104a6578063a41fe49f146104d7576101fa565b80636a6d964e146103e2578063715018a6146104125780637cd07e471461041c5780638aa285501461043a576101fa565b806348cd4cb111610192578063612eee4311610161578063612eee4314610384578063630b5ba1146103a057806364482f79146103aa57806364944193146103c6576101fa565b806348cd4cb11461031257806351eb05a6146103305780635312ea8e1461034c5780635ffe614614610368576101fa565b806317caf6f1116101ce57806317caf6f11461028c5780632080baab146102aa57806323cf3118146102da578063454b0608146102f6576101fa565b8062aeef8a146101ff578063081e3eda1461021b5780631395d8c9146102395780631526fe2714610255575b600080fd5b6102196004803603810190610214919061365c565b61060b565b005b610223610c7b565b6040516102309190613c43565b60405180910390f35b610253600480360381019061024e919061348d565b610c88565b005b61026f600480360381019061026a919061348d565b610f8a565b6040516102839897969594939291906139ed565b60405180910390f35b610294611042565b6040516102a19190613c43565b60405180910390f35b6102c460048036038101906102bf91906134e7565b611048565b6040516102d19190613c43565b60405180910390f35b6102f460048036038101906102ef9190613460565b6111e3565b005b610310600480360381019061030b919061348d565b6112a3565b005b61031a6115ae565b6040516103279190613c43565b60405180910390f35b61034a6004803603810190610345919061348d565b6115b4565b005b6103666004803603810190610361919061348d565b611779565b005b610382600480360381019061037d919061348d565b6118b2565b005b61039e6004803603810190610399919061348d565b611938565b005b6103a86119be565b005b6103c460048036038101906103bf9190613609565b6119f1565b005b6103e060048036038101906103db9190613527565b611afd565b005b6103fc60048036038101906103f7919061348d565b611d75565b6040516104099190613c43565b60405180910390f35b61041a611d8d565b005b610424611e15565b6040516104319190613a6b565b60405180910390f35b610442611e3b565b60405161044f9190613c43565b60405180910390f35b610460611e41565b60405161046d919061392e565b60405180910390f35b610490600480360381019061048b91906135c9565b611e6a565b60405161049d9190613c43565b60405180910390f35b6104c060048036038101906104bb91906134e7565b611e9b565b6040516104ce929190613c87565b60405180910390f35b6104f160048036038101906104ec919061365c565b611ecc565b005b6104fb612392565b60405161050891906139d2565b60405180910390f35b61052b600480360381019061052691906134e7565b6123b8565b6040516105389190613c43565b60405180910390f35b61055b600480360381019061055691906133d9565b61241b565b005b6105776004803603810190610572919061348d565b6124db565b005b610581612610565b60405161058e919061392e565b60405180910390f35b61059f612636565b6040516105ac9190613a86565b60405180910390f35b6105cf60048036038101906105ca919061348d565b61265c565b005b6105eb60048036038101906105e691906133d9565b612812565b005b6105f561290a565b6040516106029190613c43565b60405180910390f35b6000811161064e576040517f08c379a000000000000000000000000000000000000000000000000000000000815260040161064590613b23565b60405180910390fd5b60006006848154811061066457610663613fbb565b5b9060005260206000209060080201905060006007600086815260200190815260200160002060003373ffffffffffffffffffffffffffffffffffffffff1673ffffffffffffffffffffffffffffffffffffffff16815260200190815260200160002090506106d1856115b4565b600081600001541115610740576000610728826001015461071a64e8d4a5100061070c8760030154876000015461291090919063ffffffff16565b61298b90919063ffffffff16565b6129d590919063ffffffff16565b9050600081111561073e5761073d3382612a1f565b5b505b828260000160009054906101000a900473ffffffffffffffffffffffffffffffffffffffff1673ffffffffffffffffffffffffffffffffffffffff1663dd62ed3e308560040160009054906101000a900473ffffffffffffffffffffffffffffffffffffffff166040518363ffffffff1660e01b81526004016107c4929190613949565b60206040518083038186803b1580156107dc57600080fd5b505afa1580156107f0573d6000803e3d6000fd5b505050506040513d601f19601f8201168201806040525081019061081491906134ba565b11610823576108228561265c565b5b6000610850600c5461084285600601548761291090919063ffffffff16565b61298b90919063ffffffff16565b9050600061086782866129d590919063ffffffff16565b90506108ba3330838760000160009054906101000a900473ffffffffffffffffffffffffffffffffffffffff1673ffffffffffffffffffffffffffffffffffffffff16612c41909392919063ffffffff16565b61092d33600260009054906101000a900473ffffffffffffffffffffffffffffffffffffffff16848760000160009054906101000a900473ffffffffffffffffffffffffffffffffffffffff1673ffffffffffffffffffffffffffffffffffffffff16612c41909392919063ffffffff16565b6000846007015414156109ce578360040160009054906101000a900473ffffffffffffffffffffffffffffffffffffffff1673ffffffffffffffffffffffffffffffffffffffff166341441d3b826040518263ffffffff1660e01b81526004016109979190613c43565b600060405180830381600087803b1580156109b157600080fd5b505af11580156109c5573d6000803e3d6000fd5b50505050610a60565b8360040160009054906101000a900473ffffffffffffffffffffffffffffffffffffffff1673ffffffffffffffffffffffffffffffffffffffff1663e2bbb15887836040518363ffffffff1660e01b8152600401610a2d929190613c87565b600060405180830381600087803b158015610a4757600080fd5b505af1158015610a5b573d6000803e3d6000fd5b505050505b610a77818460000154612cca90919063ffffffff16565b8360000181905550610aa581600a60008a815260200190815260200160002054612cca90919063ffffffff16565b600a600089815260200190815260200160002081905550610aee64e8d4a51000610ae08660030154866000015461291090919063ffffffff16565b61298b90919063ffffffff16565b836001018190555060008460050160009054906101000a900473ffffffffffffffffffffffffffffffffffffffff1673ffffffffffffffffffffffffffffffffffffffff166370a08231306040518263ffffffff1660e01b8152600401610b55919061392e565b60206040518083038186803b158015610b6d57600080fd5b505afa158015610b81573d6000803e3d6000fd5b505050506040513d601f19601f82011682018060405250810190610ba591906134ba565b90506000811115610c2257610c21600260009054906101000a900473ffffffffffffffffffffffffffffffffffffffff16828760050160009054906101000a900473ffffffffffffffffffffffffffffffffffffffff1673ffffffffffffffffffffffffffffffffffffffff16612d289092919063ffffffff16565b5b873373ffffffffffffffffffffffffffffffffffffffff167f90890809c654f11d6e72a28fa60149770a0d11ec6c92319d6ceb2bb0a4ea1a1584604051610c699190613c43565b60405180910390a35050505050505050565b6000600680549050905090565b600060068281548110610c9e57610c9d613fbb565b5b9060005260206000209060080201905060006007600084815260200190815260200160002060003373ffffffffffffffffffffffffffffffffffffffff1673ffffffffffffffffffffffffffffffffffffffff1681526020019081526020016000209050610d0b836115b4565b6000610d558260010154610d4764e8d4a51000610d398760030154876000015461291090919063ffffffff16565b61298b90919063ffffffff16565b6129d590919063ffffffff16565b905060008111610d9a576040517f08c379a0000000000000000000000000000000000000000000000000000000008152600401610d9190613b23565b60405180910390fd5b600160009054906101000a900473ffffffffffffffffffffffffffffffffffffffff1673ffffffffffffffffffffffffffffffffffffffff1663095ea7b3600d60009054906101000a900473ffffffffffffffffffffffffffffffffffffffff16836040518363ffffffff1660e01b8152600401610e199291906139a9565b602060405180830381600087803b158015610e3357600080fd5b505af1158015610e47573d6000803e3d6000fd5b505050506040513d601f19601f82011682018060405250810190610e6b9190613406565b50600d60009054906101000a900473ffffffffffffffffffffffffffffffffffffffff1673ffffffffffffffffffffffffffffffffffffffff1663cf35fddf82336040518363ffffffff1660e01b8152600401610ec9929190613c5e565b600060405180830381600087803b158015610ee357600080fd5b505af1158015610ef7573d6000803e3d6000fd5b50505050610f2d64e8d4a51000610f1f8560030154856000015461291090919063ffffffff16565b61298b90919063ffffffff16565b8260010181905550833373ffffffffffffffffffffffffffffffffffffffff167ff279e6a1f5e320cca91135676d9cb6e44ca8a08c0b88342bcdb1144f6511b56883604051610f7c9190613c43565b60405180910390a350505050565b60068181548110610f9a57600080fd5b90600052602060002090600802016000915090508060000160009054906101000a900473ffffffffffffffffffffffffffffffffffffffff16908060010154908060020154908060030154908060040160009054906101000a900473ffffffffffffffffffffffffffffffffffffffff16908060050160009054906101000a900473ffffffffffffffffffffffffffffffffffffffff16908060060154908060070154905088565b60085481565b6000806006848154811061105f5761105e613fbb565b5b9060005260206000209060080201905060006007600086815260200190815260200160002060008573ffffffffffffffffffffffffffffffffffffffff1673ffffffffffffffffffffffffffffffffffffffff16815260200190815260200160002090506000826003015490506000600a60008881526020019081526020016000205490508360020154431180156110f8575060008114155b1561119357600061110d856002015443611e6a565b9050600061115060085461114288600101546111346003548761291090919063ffffffff16565b61291090919063ffffffff16565b61298b90919063ffffffff16565b905061118e61117f8461117164e8d4a510008561291090919063ffffffff16565b61298b90919063ffffffff16565b85612cca90919063ffffffff16565b935050505b6111d783600101546111c964e8d4a510006111bb86886000015461291090919063ffffffff16565b61298b90919063ffffffff16565b6129d590919063ffffffff16565b94505050505092915050565b6111eb612dae565b73ffffffffffffffffffffffffffffffffffffffff16611209611e41565b73ffffffffffffffffffffffffffffffffffffffff161461125f576040517f08c379a000000000000000000000000000000000000000000000000000000000815260040161125690613b63565b60405180910390fd5b80600560006101000a81548173ffffffffffffffffffffffffffffffffffffffff021916908373ffffffffffffffffffffffffffffffffffffffff16021790555050565b600073ffffffffffffffffffffffffffffffffffffffff16600560009054906101000a900473ffffffffffffffffffffffffffffffffffffffff1673ffffffffffffffffffffffffffffffffffffffff161415611335576040517f08c379a000000000000000000000000000000000000000000000000000000000815260040161132c90613c23565b60405180910390fd5b60006006828154811061134b5761134a613fbb565b5b9060005260206000209060080201905060008160000160009054906101000a900473ffffffffffffffffffffffffffffffffffffffff1690506000600a60008581526020019081526020016000205490506113e9600560009054906101000a900473ffffffffffffffffffffffffffffffffffffffff16828473ffffffffffffffffffffffffffffffffffffffff16612db69092919063ffffffff16565b6000600560009054906101000a900473ffffffffffffffffffffffffffffffffffffffff1673ffffffffffffffffffffffffffffffffffffffff1663ce5494bb846040518263ffffffff1660e01b815260040161144691906139d2565b602060405180830381600087803b15801561146057600080fd5b505af1158015611474573d6000803e3d6000fd5b505050506040513d601f19601f820116820180604052508101906114989190613433565b90508073ffffffffffffffffffffffffffffffffffffffff166370a08231306040518263ffffffff1660e01b81526004016114d3919061392e565b60206040518083038186803b1580156114eb57600080fd5b505afa1580156114ff573d6000803e3d6000fd5b505050506040513d601f19601f8201168201806040525081019061152391906134ba565b8214611564576040517f08c379a000000000000000000000000000000000000000000000000000000000815260040161155b90613be3565b60405180910390fd5b808460000160006101000a81548173ffffffffffffffffffffffffffffffffffffffff021916908373ffffffffffffffffffffffffffffffffffffffff1602179055505050505050565b60095481565b6000600682815481106115ca576115c9613fbb565b5b90600052602060002090600802019050806002015443116115eb5750611776565b6000600a60008481526020019081526020016000205490506000811161161b574382600201819055505050611776565b600061162b836002015443611e6a565b9050600061166e60085461166086600101546116526003548761291090919063ffffffff16565b61291090919063ffffffff16565b61298b90919063ffffffff16565b9050600160009054906101000a900473ffffffffffffffffffffffffffffffffffffffff1673ffffffffffffffffffffffffffffffffffffffff166340c10f1930836040518363ffffffff1660e01b81526004016116cd9291906139a9565b602060405180830381600087803b1580156116e757600080fd5b505af11580156116fb573d6000803e3d6000fd5b505050506040513d601f19601f8201168201806040525081019061171f9190613406565b5061176061174d8461173f64e8d4a510008561291090919063ffffffff16565b61298b90919063ffffffff16565b8560030154612cca90919063ffffffff16565b8460030181905550438460020181905550505050505b50565b60006006828154811061178f5761178e613fbb565b5b9060005260206000209060080201905060006007600084815260200190815260200160002060003373ffffffffffffffffffffffffffffffffffffffff1673ffffffffffffffffffffffffffffffffffffffff16815260200190815260200160002090506118463382600001548460000160009054906101000a900473ffffffffffffffffffffffffffffffffffffffff1673ffffffffffffffffffffffffffffffffffffffff16612d289092919063ffffffff16565b823373ffffffffffffffffffffffffffffffffffffffff167fbb757047c2b5f3974fe26b7c10f732e7bce710b0952a71082702781e62ae059583600001546040516118919190613c43565b60405180910390a36000816000018190555060008160010181905550505050565b6118ba612dae565b73ffffffffffffffffffffffffffffffffffffffff166118d8611e41565b73ffffffffffffffffffffffffffffffffffffffff161461192e576040517f08c379a000000000000000000000000000000000000000000000000000000000815260040161192590613b63565b60405180910390fd5b8060048190555050565b611940612dae565b73ffffffffffffffffffffffffffffffffffffffff1661195e611e41565b73ffffffffffffffffffffffffffffffffffffffff16146119b4576040517f08c379a00000000000000000000000000000000000000000000000000000000081526004016119ab90613b63565b60405180910390fd5b8060038190555050565b6000600680549050905060005b818110156119ed576119dc816115b4565b806119e690613f14565b90506119cb565b5050565b6119f9612dae565b73ffffffffffffffffffffffffffffffffffffffff16611a17611e41565b73ffffffffffffffffffffffffffffffffffffffff1614611a6d576040517f08c379a0000000000000000000000000000000000000000000000000000000008152600401611a6490613b63565b60405180910390fd5b8015611a7c57611a7b6119be565b5b611ac882611aba60068681548110611a9757611a96613fbb565b5b9060005260206000209060080201600101546008546129d590919063ffffffff16565b612cca90919063ffffffff16565b6008819055508160068481548110611ae357611ae2613fbb565b5b906000526020600020906008020160010181905550505050565b611b05612dae565b73ffffffffffffffffffffffffffffffffffffffff16611b23611e41565b73ffffffffffffffffffffffffffffffffffffffff1614611b79576040517f08c379a0000000000000000000000000000000000000000000000000000000008152600401611b7090613b63565b60405180910390fd5b8415611b8857611b876119be565b5b60006009544311611b9b57600954611b9d565b435b9050611bb488600854612cca90919063ffffffff16565b60088190555060066040518061010001604052808973ffffffffffffffffffffffffffffffffffffffff1681526020018a8152602001838152602001600081526020018773ffffffffffffffffffffffffffffffffffffffff1681526020018673ffffffffffffffffffffffffffffffffffffffff16815260200185815260200184815250908060018154018082558091505060019003906000526020600020906008020160009091909190915060008201518160000160006101000a81548173ffffffffffffffffffffffffffffffffffffffff021916908373ffffffffffffffffffffffffffffffffffffffff16021790555060208201518160010155604082015181600201556060820151816003015560808201518160040160006101000a81548173ffffffffffffffffffffffffffffffffffffffff021916908373ffffffffffffffffffffffffffffffffffffffff16021790555060a08201518160050160006101000a81548173ffffffffffffffffffffffffffffffffffffffff021916908373ffffffffffffffffffffffffffffffffffffffff16021790555060c0820151816006015560e0820151816007015550505050505050505050565b600a6020528060005260406000206000915090505481565b611d95612dae565b73ffffffffffffffffffffffffffffffffffffffff16611db3611e41565b73ffffffffffffffffffffffffffffffffffffffff1614611e09576040517f08c379a0000000000000000000000000000000000000000000000000000000008152600401611e0090613b63565b60405180910390fd5b611e136000612f14565b565b600560009054906101000a900473ffffffffffffffffffffffffffffffffffffffff1681565b60045481565b60008060009054906101000a900473ffffffffffffffffffffffffffffffffffffffff16905090565b6000611e93600454611e8585856129d590919063ffffffff16565b61291090919063ffffffff16565b905092915050565b6007602052816000526040600020602052806000526040600020600091509150508060000154908060010154905082565b600060068481548110611ee257611ee1613fbb565b5b9060005260206000209060080201905060006007600086815260200190815260200160002060003373ffffffffffffffffffffffffffffffffffffffff1673ffffffffffffffffffffffffffffffffffffffff16815260200190815260200160002090508281600001541015611f8d576040517f08c379a0000000000000000000000000000000000000000000000000000000008152600401611f8490613ba3565b60405180910390fd5b611f96856115b4565b6000611fe08260010154611fd264e8d4a51000611fc48760030154876000015461291090919063ffffffff16565b61298b90919063ffffffff16565b6129d590919063ffffffff16565b90506000811115611ff657611ff53382612a1f565b5b61200d8483600001546129d590919063ffffffff16565b826000018190555061203b84600a6000898152602001908152602001600020546129d590919063ffffffff16565b600a60008881526020019081526020016000208190555061208464e8d4a510006120768560030154856000015461291090919063ffffffff16565b61298b90919063ffffffff16565b826001018190555060008360070154141561212d578260040160009054906101000a900473ffffffffffffffffffffffffffffffffffffffff1673ffffffffffffffffffffffffffffffffffffffff16631058d281856040518263ffffffff1660e01b81526004016120f69190613c43565b600060405180830381600087803b15801561211057600080fd5b505af1158015612124573d6000803e3d6000fd5b505050506121bf565b8260040160009054906101000a900473ffffffffffffffffffffffffffffffffffffffff1673ffffffffffffffffffffffffffffffffffffffff1663441a3e7086866040518363ffffffff1660e01b815260040161218c929190613c87565b600060405180830381600087803b1580156121a657600080fd5b505af11580156121ba573d6000803e3d6000fd5b505050505b61220e33858560000160009054906101000a900473ffffffffffffffffffffffffffffffffffffffff1673ffffffffffffffffffffffffffffffffffffffff16612d289092919063ffffffff16565b60008360050160009054906101000a900473ffffffffffffffffffffffffffffffffffffffff1673ffffffffffffffffffffffffffffffffffffffff166370a08231306040518263ffffffff1660e01b815260040161226d919061392e565b60206040518083038186803b15801561228557600080fd5b505afa158015612299573d6000803e3d6000fd5b505050506040513d601f19601f820116820180604052508101906122bd91906134ba565b9050600081111561233a57612339600260009054906101000a900473ffffffffffffffffffffffffffffffffffffffff16828660050160009054906101000a900473ffffffffffffffffffffffffffffffffffffffff1673ffffffffffffffffffffffffffffffffffffffff16612d289092919063ffffffff16565b5b863373ffffffffffffffffffffffffffffffffffffffff167ff279e6a1f5e320cca91135676d9cb6e44ca8a08c0b88342bcdb1144f6511b568876040516123819190613c43565b60405180910390a350505050505050565b600160009054906101000a900473ffffffffffffffffffffffffffffffffffffffff1681565b6000806007600085815260200190815260200160002060008473ffffffffffffffffffffffffffffffffffffffff1673ffffffffffffffffffffffffffffffffffffffff1681526020019081526020016000209050806000015491505092915050565b612423612dae565b73ffffffffffffffffffffffffffffffffffffffff16612441611e41565b73ffffffffffffffffffffffffffffffffffffffff1614612497576040517f08c379a000000000000000000000000000000000000000000000000000000000815260040161248e90613b63565b60405180910390fd5b80600260006101000a81548173ffffffffffffffffffffffffffffffffffffffff021916908373ffffffffffffffffffffffffffffffffffffffff16021790555050565b6124e3612dae565b73ffffffffffffffffffffffffffffffffffffffff16612501611e41565b73ffffffffffffffffffffffffffffffffffffffff1614612557576040517f08c379a000000000000000000000000000000000000000000000000000000000815260040161254e90613b63565b60405180910390fd5b60006006828154811061256d5761256c613fbb565b5b906000526020600020906008020190508060040160009054906101000a900473ffffffffffffffffffffffffffffffffffffffff1673ffffffffffffffffffffffffffffffffffffffff16635312ea8e836040518263ffffffff1660e01b81526004016125da9190613c43565b600060405180830381600087803b1580156125f457600080fd5b505af1158015612608573d6000803e3d6000fd5b505050505050565b600260009054906101000a900473ffffffffffffffffffffffffffffffffffffffff1681565b600d60009054906101000a900473ffffffffffffffffffffffffffffffffffffffff1681565b60006006828154811061267257612671613fbb565b5b906000526020600020906008020190508060000160009054906101000a900473ffffffffffffffffffffffffffffffffffffffff1673ffffffffffffffffffffffffffffffffffffffff1663095ea7b38260040160009054906101000a900473ffffffffffffffffffffffffffffffffffffffff16600b546040518363ffffffff1660e01b81526004016127079291906139a9565b602060405180830381600087803b15801561272157600080fd5b505af1158015612735573d6000803e3d6000fd5b505050506040513d601f19601f820116820180604052508101906127599190613406565b508060050160009054906101000a900473ffffffffffffffffffffffffffffffffffffffff1673ffffffffffffffffffffffffffffffffffffffff1663095ea7b330600b546040518363ffffffff1660e01b81526004016127bb9291906139a9565b602060405180830381600087803b1580156127d557600080fd5b505af11580156127e9573d6000803e3d6000fd5b505050506040513d601f19601f8201168201806040525081019061280d9190613406565b505050565b61281a612dae565b73ffffffffffffffffffffffffffffffffffffffff16612838611e41565b73ffffffffffffffffffffffffffffffffffffffff161461288e576040517f08c379a000000000000000000000000000000000000000000000000000000000815260040161288590613b63565b60405180910390fd5b600073ffffffffffffffffffffffffffffffffffffffff168173ffffffffffffffffffffffffffffffffffffffff1614156128fe576040517f08c379a00000000000000000000000000000000000000000000000000000000081526004016128f590613ac3565b60405180910390fd5b61290781612f14565b50565b60035481565b6000808314156129235760009050612985565b600082846129319190613d69565b90508284826129409190613d38565b14612980576040517f08c379a000000000000000000000000000000000000000000000000000000000815260040161297790613b43565b60405180910390fd5b809150505b92915050565b60006129cd83836040518060400160405280601a81526020017f536166654d6174683a206469766973696f6e206279207a65726f000000000000815250612fd8565b905092915050565b6000612a1783836040518060400160405280601e81526020017f536166654d6174683a207375627472616374696f6e206f766572666c6f77000081525061303b565b905092915050565b6000600160009054906101000a900473ffffffffffffffffffffffffffffffffffffffff1673ffffffffffffffffffffffffffffffffffffffff166370a08231306040518263ffffffff1660e01b8152600401612a7c919061392e565b60206040518083038186803b158015612a9457600080fd5b505afa158015612aa8573d6000803e3d6000fd5b505050506040513d601f19601f82011682018060405250810190612acc91906134ba565b905080821115612b8b57600160009054906101000a900473ffffffffffffffffffffffffffffffffffffffff1673ffffffffffffffffffffffffffffffffffffffff1663a9059cbb84836040518363ffffffff1660e01b8152600401612b339291906139a9565b602060405180830381600087803b158015612b4d57600080fd5b505af1158015612b61573d6000803e3d6000fd5b505050506040513d601f19601f82011682018060405250810190612b859190613406565b50612c3c565b600160009054906101000a900473ffffffffffffffffffffffffffffffffffffffff1673ffffffffffffffffffffffffffffffffffffffff1663a9059cbb84846040518363ffffffff1660e01b8152600401612be89291906139a9565b602060405180830381600087803b158015612c0257600080fd5b505af1158015612c16573d6000803e3d6000fd5b505050506040513d601f19601f82011682018060405250810190612c3a9190613406565b505b505050565b612cc4846323b872dd60e01b858585604051602401612c6293929190613972565b604051602081830303815290604052907bffffffffffffffffffffffffffffffffffffffffffffffffffffffff19166020820180517bffffffffffffffffffffffffffffffffffffffffffffffffffffffff838183161783525050505061309f565b50505050565b6000808284612cd99190613ce2565b905083811015612d1e576040517f08c379a0000000000000000000000000000000000000000000000000000000008152600401612d1590613ae3565b60405180910390fd5b8091505092915050565b612da98363a9059cbb60e01b8484604051602401612d479291906139a9565b604051602081830303815290604052907bffffffffffffffffffffffffffffffffffffffffffffffffffffffff19166020820180517bffffffffffffffffffffffffffffffffffffffffffffffffffffffff838183161783525050505061309f565b505050565b600033905090565b6000811480612e4f575060008373ffffffffffffffffffffffffffffffffffffffff1663dd62ed3e30856040518363ffffffff1660e01b8152600401612dfd929190613949565b60206040518083038186803b158015612e1557600080fd5b505afa158015612e29573d6000803e3d6000fd5b505050506040513d601f19601f82011682018060405250810190612e4d91906134ba565b145b612e8e576040517f08c379a0000000000000000000000000000000000000000000000000000000008152600401612e8590613c03565b60405180910390fd5b612f0f8363095ea7b360e01b8484604051602401612ead9291906139a9565b604051602081830303815290604052907bffffffffffffffffffffffffffffffffffffffffffffffffffffffff19166020820180517bffffffffffffffffffffffffffffffffffffffffffffffffffffffff838183161783525050505061309f565b505050565b60008060009054906101000a900473ffffffffffffffffffffffffffffffffffffffff169050816000806101000a81548173ffffffffffffffffffffffffffffffffffffffff021916908373ffffffffffffffffffffffffffffffffffffffff1602179055508173ffffffffffffffffffffffffffffffffffffffff168173ffffffffffffffffffffffffffffffffffffffff167f8be0079c531659141344cd1fd0a4f28419497f9722a3daafe3b4186f6b6457e060405160405180910390a35050565b6000808311829061301f576040517f08c379a00000000000000000000000000000000000000000000000000000000081526004016130169190613aa1565b60405180910390fd5b506000838561302e9190613d38565b9050809150509392505050565b6000838311158290613083576040517f08c379a000000000000000000000000000000000000000000000000000000000815260040161307a9190613aa1565b60405180910390fd5b50600083856130929190613dc3565b9050809150509392505050565b6000613101826040518060400160405280602081526020017f5361666545524332303a206c6f772d6c6576656c2063616c6c206661696c65648152508573ffffffffffffffffffffffffffffffffffffffff166131669092919063ffffffff16565b905060008151111561316157808060200190518101906131219190613406565b613160576040517f08c379a000000000000000000000000000000000000000000000000000000000815260040161315790613bc3565b60405180910390fd5b5b505050565b6060613175848460008561317e565b90509392505050565b6060824710156131c3576040517f08c379a00000000000000000000000000000000000000000000000000000000081526004016131ba90613b03565b60405180910390fd5b6131cc85613292565b61320b576040517f08c379a000000000000000000000000000000000000000000000000000000000815260040161320290613b83565b60405180910390fd5b6000808673ffffffffffffffffffffffffffffffffffffffff1685876040516132349190613917565b60006040518083038185875af1925050503d8060008114613271576040519150601f19603f3d011682016040523d82523d6000602084013e613276565b606091505b50915091506132868282866132b5565b92505050949350505050565b6000808273ffffffffffffffffffffffffffffffffffffffff163b119050919050565b606083156132c557829050613315565b6000835111156132d85782518084602001fd5b816040517f08c379a000000000000000000000000000000000000000000000000000000000815260040161330c9190613aa1565b60405180910390fd5b9392505050565b60008135905061332b816142aa565b92915050565b600081359050613340816142c1565b92915050565b600081519050613355816142c1565b92915050565b60008135905061336a816142d8565b92915050565b60008151905061337f816142d8565b92915050565b600081359050613394816142ef565b92915050565b6000813590506133a981614306565b92915050565b6000813590506133be8161431d565b92915050565b6000815190506133d38161431d565b92915050565b6000602082840312156133ef576133ee613fea565b5b60006133fd8482850161331c565b91505092915050565b60006020828403121561341c5761341b613fea565b5b600061342a84828501613346565b91505092915050565b60006020828403121561344957613448613fea565b5b600061345784828501613370565b91505092915050565b60006020828403121561347657613475613fea565b5b60006134848482850161339a565b91505092915050565b6000602082840312156134a3576134a2613fea565b5b60006134b1848285016133af565b91505092915050565b6000602082840312156134d0576134cf613fea565b5b60006134de848285016133c4565b91505092915050565b600080604083850312156134fe576134fd613fea565b5b600061350c858286016133af565b925050602061351d8582860161331c565b9150509250929050565b600080600080600080600060e0888a03121561354657613545613fea565b5b60006135548a828b016133af565b97505060206135658a828b0161335b565b96505060406135768a828b01613331565b95505060606135878a828b01613385565b94505060806135988a828b0161335b565b93505060a06135a98a828b016133af565b92505060c06135ba8a828b016133af565b91505092959891949750929550565b600080604083850312156135e0576135df613fea565b5b60006135ee858286016133af565b92505060206135ff858286016133af565b9150509250929050565b60008060006060848603121561362257613621613fea565b5b6000613630868287016133af565b9350506020613641868287016133af565b925050604061365286828701613331565b9150509250925092565b60008060006060848603121561367557613674613fea565b5b6000613683868287016133af565b9350506020613694868287016133af565b92505060406136a5868287016133af565b9150509250925092565b6136b881613df7565b82525050565b60006136c982613cb0565b6136d38185613cc6565b93506136e3818560208601613ee1565b80840191505092915050565b6136f881613e75565b82525050565b61370781613e87565b82525050565b61371681613e99565b82525050565b61372581613eab565b82525050565b600061373682613cbb565b6137408185613cd1565b9350613750818560208601613ee1565b61375981613fef565b840191505092915050565b6000613771602683613cd1565b915061377c82614000565b604082019050919050565b6000613794601b83613cd1565b915061379f8261404f565b602082019050919050565b60006137b7602683613cd1565b91506137c282614078565b604082019050919050565b60006137da600e83613cd1565b91506137e5826140c7565b602082019050919050565b60006137fd602183613cd1565b9150613808826140f0565b604082019050919050565b6000613820602083613cd1565b915061382b8261413f565b602082019050919050565b6000613843601d83613cd1565b915061384e82614168565b602082019050919050565b6000613866601283613cd1565b915061387182614191565b602082019050919050565b6000613889602a83613cd1565b9150613894826141ba565b604082019050919050565b60006138ac600c83613cd1565b91506138b782614209565b602082019050919050565b60006138cf603683613cd1565b91506138da82614232565b604082019050919050565b60006138f2601483613cd1565b91506138fd82614281565b602082019050919050565b61391181613e6b565b82525050565b600061392382846136be565b915081905092915050565b600060208201905061394360008301846136af565b92915050565b600060408201905061395e60008301856136af565b61396b60208301846136af565b9392505050565b600060608201905061398760008301866136af565b61399460208301856136af565b6139a16040830184613908565b949350505050565b60006040820190506139be60008301856136af565b6139cb6020830184613908565b9392505050565b60006020820190506139e760008301846136ef565b92915050565b600061010082019050613a03600083018b6136ef565b613a10602083018a613908565b613a1d6040830189613908565b613a2a6060830188613908565b613a3760808301876136fe565b613a4460a08301866136ef565b613a5160c0830185613908565b613a5e60e0830184613908565b9998505050505050505050565b6000602082019050613a80600083018461370d565b92915050565b6000602082019050613a9b600083018461371c565b92915050565b60006020820190508181036000830152613abb818461372b565b905092915050565b60006020820190508181036000830152613adc81613764565b9050919050565b60006020820190508181036000830152613afc81613787565b9050919050565b60006020820190508181036000830152613b1c816137aa565b9050919050565b60006020820190508181036000830152613b3c816137cd565b9050919050565b60006020820190508181036000830152613b5c816137f0565b9050919050565b60006020820190508181036000830152613b7c81613813565b9050919050565b60006020820190508181036000830152613b9c81613836565b9050919050565b60006020820190508181036000830152613bbc81613859565b9050919050565b60006020820190508181036000830152613bdc8161387c565b9050919050565b60006020820190508181036000830152613bfc8161389f565b9050919050565b60006020820190508181036000830152613c1c816138c2565b9050919050565b60006020820190508181036000830152613c3c816138e5565b9050919050565b6000602082019050613c586000830184613908565b92915050565b6000604082019050613c736000830185613908565b613c8060208301846136af565b9392505050565b6000604082019050613c9c6000830185613908565b613ca96020830184613908565b9392505050565b600081519050919050565b600081519050919050565b600081905092915050565b600082825260208201905092915050565b6000613ced82613e6b565b9150613cf883613e6b565b9250827fffffffffffffffffffffffffffffffffffffffffffffffffffffffffffffffff03821115613d2d57613d2c613f5d565b5b828201905092915050565b6000613d4382613e6b565b9150613d4e83613e6b565b925082613d5e57613d5d613f8c565b5b828204905092915050565b6000613d7482613e6b565b9150613d7f83613e6b565b9250817fffffffffffffffffffffffffffffffffffffffffffffffffffffffffffffffff0483118215151615613db857613db7613f5d565b5b828202905092915050565b6000613dce82613e6b565b9150613dd983613e6b565b925082821015613dec57613deb613f5d565b5b828203905092915050565b6000613e0282613e4b565b9050919050565b60008115159050919050565b6000613e2082613df7565b9050919050565b6000613e3282613df7565b9050919050565b6000613e4482613df7565b9050919050565b600073ffffffffffffffffffffffffffffffffffffffff82169050919050565b6000819050919050565b6000613e8082613ebd565b9050919050565b6000613e9282613ebd565b9050919050565b6000613ea482613ebd565b9050919050565b6000613eb682613ebd565b9050919050565b6000613ec882613ecf565b9050919050565b6000613eda82613e4b565b9050919050565b60005b83811015613eff578082015181840152602081019050613ee4565b83811115613f0e576000848401525b50505050565b6000613f1f82613e6b565b91507fffffffffffffffffffffffffffffffffffffffffffffffffffffffffffffffff821415613f5257613f51613f5d565b5b600182019050919050565b7f4e487b7100000000000000000000000000000000000000000000000000000000600052601160045260246000fd5b7f4e487b7100000000000000000000000000000000000000000000000000000000600052601260045260246000fd5b7f4e487b7100000000000000000000000000000000000000000000000000000000600052603260045260246000fd5b600080fd5b6000601f19601f8301169050919050565b7f4f776e61626c653a206e6577206f776e657220697320746865207a65726f206160008201527f6464726573730000000000000000000000000000000000000000000000000000602082015250565b7f536166654d6174683a206164646974696f6e206f766572666c6f770000000000600082015250565b7f416464726573733a20696e73756666696369656e742062616c616e636520666f60008201527f722063616c6c0000000000000000000000000000000000000000000000000000602082015250565b7f416d6f756e74206973207a65726f000000000000000000000000000000000000600082015250565b7f536166654d6174683a206d756c7469706c69636174696f6e206f766572666c6f60008201527f7700000000000000000000000000000000000000000000000000000000000000602082015250565b7f4f776e61626c653a2063616c6c6572206973206e6f7420746865206f776e6572600082015250565b7f416464726573733a2063616c6c20746f206e6f6e2d636f6e7472616374000000600082015250565b7f77697468647261773a206e6f7420676f6f640000000000000000000000000000600082015250565b7f5361666545524332303a204552433230206f7065726174696f6e20646964206e60008201527f6f74207375636365656400000000000000000000000000000000000000000000602082015250565b7f6d6967726174653a206261640000000000000000000000000000000000000000600082015250565b7f5361666545524332303a20617070726f76652066726f6d206e6f6e2d7a65726f60008201527f20746f206e6f6e2d7a65726f20616c6c6f77616e636500000000000000000000602082015250565b7f6d6967726174653a206e6f206d69677261746f72000000000000000000000000600082015250565b6142b381613df7565b81146142be57600080fd5b50565b6142ca81613e09565b81146142d557600080fd5b50565b6142e181613e15565b81146142ec57600080fd5b50565b6142f881613e27565b811461430357600080fd5b50565b61430f81613e39565b811461431a57600080fd5b50565b61432681613e6b565b811461433157600080fd5b5056fea26469706673582212202fcc3712c0e4950e3650dcbf45ed5fa3069d21dc1cdd9921189cf3aa1c13021d64736f6c63430008070033",
					"opcodes": "PUSH1 0x80 PUSH1 0x40 MSTORE PUSH1 0x1 PUSH1 0x4 SSTORE PUSH1 0x0 PUSH1 0x8 SSTORE PUSH18 0x7F8C9EF06E25A77FE790001FAC71C71C71C7 PUSH1 0xB SSTORE PUSH9 0x56BC75E2D63100000 PUSH1 0xC SSTORE CALLVALUE DUP1 ISZERO PUSH3 0x3E JUMPI PUSH1 0x0 DUP1 REVERT JUMPDEST POP PUSH1 0x40 MLOAD PUSH3 0x475D CODESIZE SUB DUP1 PUSH3 0x475D DUP4 CODECOPY DUP2 DUP2 ADD PUSH1 0x40 MSTORE DUP2 ADD SWAP1 PUSH3 0x64 SWAP2 SWAP1 PUSH3 0x288 JUMP JUMPDEST PUSH3 0x84 PUSH3 0x78 PUSH3 0x160 PUSH1 0x20 SHL PUSH1 0x20 SHR JUMP JUMPDEST PUSH3 0x168 PUSH1 0x20 SHL PUSH1 0x20 SHR JUMP JUMPDEST DUP5 PUSH1 0x1 PUSH1 0x0 PUSH2 0x100 EXP DUP2 SLOAD DUP2 PUSH20 0xFFFFFFFFFFFFFFFFFFFFFFFFFFFFFFFFFFFFFFFF MUL NOT AND SWAP1 DUP4 PUSH20 0xFFFFFFFFFFFFFFFFFFFFFFFFFFFFFFFFFFFFFFFF AND MUL OR SWAP1 SSTORE POP DUP3 PUSH1 0x2 PUSH1 0x0 PUSH2 0x100 EXP DUP2 SLOAD DUP2 PUSH20 0xFFFFFFFFFFFFFFFFFFFFFFFFFFFFFFFFFFFFFFFF MUL NOT AND SWAP1 DUP4 PUSH20 0xFFFFFFFFFFFFFFFFFFFFFFFFFFFFFFFFFFFFFFFF AND MUL OR SWAP1 SSTORE POP DUP2 PUSH1 0x3 DUP2 SWAP1 SSTORE POP DUP1 PUSH1 0x9 DUP2 SWAP1 SSTORE POP DUP4 PUSH1 0xD PUSH1 0x0 PUSH2 0x100 EXP DUP2 SLOAD DUP2 PUSH20 0xFFFFFFFFFFFFFFFFFFFFFFFFFFFFFFFFFFFFFFFF MUL NOT AND SWAP1 DUP4 PUSH20 0xFFFFFFFFFFFFFFFFFFFFFFFFFFFFFFFFFFFFFFFF AND MUL OR SWAP1 SSTORE POP POP POP POP POP POP PUSH3 0x3E3 JUMP JUMPDEST PUSH1 0x0 CALLER SWAP1 POP SWAP1 JUMP JUMPDEST PUSH1 0x0 DUP1 PUSH1 0x0 SWAP1 SLOAD SWAP1 PUSH2 0x100 EXP SWAP1 DIV PUSH20 0xFFFFFFFFFFFFFFFFFFFFFFFFFFFFFFFFFFFFFFFF AND SWAP1 POP DUP2 PUSH1 0x0 DUP1 PUSH2 0x100 EXP DUP2 SLOAD DUP2 PUSH20 0xFFFFFFFFFFFFFFFFFFFFFFFFFFFFFFFFFFFFFFFF MUL NOT AND SWAP1 DUP4 PUSH20 0xFFFFFFFFFFFFFFFFFFFFFFFFFFFFFFFFFFFFFFFF AND MUL OR SWAP1 SSTORE POP DUP2 PUSH20 0xFFFFFFFFFFFFFFFFFFFFFFFFFFFFFFFFFFFFFFFF AND DUP2 PUSH20 0xFFFFFFFFFFFFFFFFFFFFFFFFFFFFFFFFFFFFFFFF AND PUSH32 0x8BE0079C531659141344CD1FD0A4F28419497F9722A3DAAFE3B4186F6B6457E0 PUSH1 0x40 MLOAD PUSH1 0x40 MLOAD DUP1 SWAP2 SUB SWAP1 LOG3 POP POP JUMP JUMPDEST PUSH1 0x0 DUP2 MLOAD SWAP1 POP PUSH3 0x23D DUP2 PUSH3 0x37B JUMP JUMPDEST SWAP3 SWAP2 POP POP JUMP JUMPDEST PUSH1 0x0 DUP2 MLOAD SWAP1 POP PUSH3 0x254 DUP2 PUSH3 0x395 JUMP JUMPDEST SWAP3 SWAP2 POP POP JUMP JUMPDEST PUSH1 0x0 DUP2 MLOAD SWAP1 POP PUSH3 0x26B DUP2 PUSH3 0x3AF JUMP JUMPDEST SWAP3 SWAP2 POP POP JUMP JUMPDEST PUSH1 0x0 DUP2 MLOAD SWAP1 POP PUSH3 0x282 DUP2 PUSH3 0x3C9 JUMP JUMPDEST SWAP3 SWAP2 POP POP JUMP JUMPDEST PUSH1 0x0 DUP1 PUSH1 0x0 DUP1 PUSH1 0x0 PUSH1 0xA0 DUP7 DUP9 SUB SLT ISZERO PUSH3 0x2A7 JUMPI PUSH3 0x2A6 PUSH3 0x376 JUMP JUMPDEST JUMPDEST PUSH1 0x0 PUSH3 0x2B7 DUP9 DUP3 DUP10 ADD PUSH3 0x243 JUMP JUMPDEST SWAP6 POP POP PUSH1 0x20 PUSH3 0x2CA DUP9 DUP3 DUP10 ADD PUSH3 0x25A JUMP JUMPDEST SWAP5 POP POP PUSH1 0x40 PUSH3 0x2DD DUP9 DUP3 DUP10 ADD PUSH3 0x22C JUMP JUMPDEST SWAP4 POP POP PUSH1 0x60 PUSH3 0x2F0 DUP9 DUP3 DUP10 ADD PUSH3 0x271 JUMP JUMPDEST SWAP3 POP POP PUSH1 0x80 PUSH3 0x303 DUP9 DUP3 DUP10 ADD PUSH3 0x271 JUMP JUMPDEST SWAP2 POP POP SWAP3 SWAP6 POP SWAP3 SWAP6 SWAP1 SWAP4 POP JUMP JUMPDEST PUSH1 0x0 PUSH3 0x31D DUP3 PUSH3 0x34C JUMP JUMPDEST SWAP1 POP SWAP2 SWAP1 POP JUMP JUMPDEST PUSH1 0x0 PUSH3 0x331 DUP3 PUSH3 0x310 JUMP JUMPDEST SWAP1 POP SWAP2 SWAP1 POP JUMP JUMPDEST PUSH1 0x0 PUSH3 0x345 DUP3 PUSH3 0x310 JUMP JUMPDEST SWAP1 POP SWAP2 SWAP1 POP JUMP JUMPDEST PUSH1 0x0 PUSH20 0xFFFFFFFFFFFFFFFFFFFFFFFFFFFFFFFFFFFFFFFF DUP3 AND SWAP1 POP SWAP2 SWAP1 POP JUMP JUMPDEST PUSH1 0x0 DUP2 SWAP1 POP SWAP2 SWAP1 POP JUMP JUMPDEST PUSH1 0x0 DUP1 REVERT JUMPDEST PUSH3 0x386 DUP2 PUSH3 0x310 JUMP JUMPDEST DUP2 EQ PUSH3 0x392 JUMPI PUSH1 0x0 DUP1 REVERT JUMPDEST POP JUMP JUMPDEST PUSH3 0x3A0 DUP2 PUSH3 0x324 JUMP JUMPDEST DUP2 EQ PUSH3 0x3AC JUMPI PUSH1 0x0 DUP1 REVERT JUMPDEST POP JUMP JUMPDEST PUSH3 0x3BA DUP2 PUSH3 0x338 JUMP JUMPDEST DUP2 EQ PUSH3 0x3C6 JUMPI PUSH1 0x0 DUP1 REVERT JUMPDEST POP JUMP JUMPDEST PUSH3 0x3D4 DUP2 PUSH3 0x36C JUMP JUMPDEST DUP2 EQ PUSH3 0x3E0 JUMPI PUSH1 0x0 DUP1 REVERT JUMPDEST POP JUMP JUMPDEST PUSH2 0x436A DUP1 PUSH3 0x3F3 PUSH1 0x0 CODECOPY PUSH1 0x0 RETURN INVALID PUSH1 0x80 PUSH1 0x40 MSTORE CALLVALUE DUP1 ISZERO PUSH2 0x10 JUMPI PUSH1 0x0 DUP1 REVERT JUMPDEST POP PUSH1 0x4 CALLDATASIZE LT PUSH2 0x1FA JUMPI PUSH1 0x0 CALLDATALOAD PUSH1 0xE0 SHR DUP1 PUSH4 0x6A6D964E GT PUSH2 0x11A JUMPI DUP1 PUSH4 0xCB3CBA55 GT PUSH2 0xAD JUMPI DUP1 PUSH4 0xD49E77CD GT PUSH2 0x7C JUMPI DUP1 PUSH4 0xD49E77CD EQ PUSH2 0x579 JUMPI DUP1 PUSH4 0xE4D09896 EQ PUSH2 0x597 JUMPI DUP1 PUSH4 0xEEAC3AE8 EQ PUSH2 0x5B5 JUMPI DUP1 PUSH4 0xF2FDE38B EQ PUSH2 0x5D1 JUMPI DUP1 PUSH4 0xF395DB2C EQ PUSH2 0x5ED JUMPI PUSH2 0x1FA JUMP JUMPDEST DUP1 PUSH4 0xCB3CBA55 EQ PUSH2 0x4F3 JUMPI DUP1 PUSH4 0xCDFB6CF3 EQ PUSH2 0x511 JUMPI DUP1 PUSH4 0xD0D41FE1 EQ PUSH2 0x541 JUMPI DUP1 PUSH4 0xD1634B8F EQ PUSH2 0x55D JUMPI PUSH2 0x1FA JUMP JUMPDEST DUP1 PUSH4 0x8DA5CB5B GT PUSH2 0xE9 JUMPI DUP1 PUSH4 0x8DA5CB5B EQ PUSH2 0x458 JUMPI DUP1 PUSH4 0x8DBB1E3A EQ PUSH2 0x476 JUMPI DUP1 PUSH4 0x93F1A40B EQ PUSH2 0x4A6 JUMPI DUP1 PUSH4 0xA41FE49F EQ PUSH2 0x4D7 JUMPI PUSH2 0x1FA JUMP JUMPDEST DUP1 PUSH4 0x6A6D964E EQ PUSH2 0x3E2 JUMPI DUP1 PUSH4 0x715018A6 EQ PUSH2 0x412 JUMPI DUP1 PUSH4 0x7CD07E47 EQ PUSH2 0x41C JUMPI DUP1 PUSH4 0x8AA28550 EQ PUSH2 0x43A JUMPI PUSH2 0x1FA JUMP JUMPDEST DUP1 PUSH4 0x48CD4CB1 GT PUSH2 0x192 JUMPI DUP1 PUSH4 0x612EEE43 GT PUSH2 0x161 JUMPI DUP1 PUSH4 0x612EEE43 EQ PUSH2 0x384 JUMPI DUP1 PUSH4 0x630B5BA1 EQ PUSH2 0x3A0 JUMPI DUP1 PUSH4 0x64482F79 EQ PUSH2 0x3AA JUMPI DUP1 PUSH4 0x64944193 EQ PUSH2 0x3C6 JUMPI PUSH2 0x1FA JUMP JUMPDEST DUP1 PUSH4 0x48CD4CB1 EQ PUSH2 0x312 JUMPI DUP1 PUSH4 0x51EB05A6 EQ PUSH2 0x330 JUMPI DUP1 PUSH4 0x5312EA8E EQ PUSH2 0x34C JUMPI DUP1 PUSH4 0x5FFE6146 EQ PUSH2 0x368 JUMPI PUSH2 0x1FA JUMP JUMPDEST DUP1 PUSH4 0x17CAF6F1 GT PUSH2 0x1CE JUMPI DUP1 PUSH4 0x17CAF6F1 EQ PUSH2 0x28C JUMPI DUP1 PUSH4 0x2080BAAB EQ PUSH2 0x2AA JUMPI DUP1 PUSH4 0x23CF3118 EQ PUSH2 0x2DA JUMPI DUP1 PUSH4 0x454B0608 EQ PUSH2 0x2F6 JUMPI PUSH2 0x1FA JUMP JUMPDEST DUP1 PUSH3 0xAEEF8A EQ PUSH2 0x1FF JUMPI DUP1 PUSH4 0x81E3EDA EQ PUSH2 0x21B JUMPI DUP1 PUSH4 0x1395D8C9 EQ PUSH2 0x239 JUMPI DUP1 PUSH4 0x1526FE27 EQ PUSH2 0x255 JUMPI JUMPDEST PUSH1 0x0 DUP1 REVERT JUMPDEST PUSH2 0x219 PUSH1 0x4 DUP1 CALLDATASIZE SUB DUP2 ADD SWAP1 PUSH2 0x214 SWAP2 SWAP1 PUSH2 0x365C JUMP JUMPDEST PUSH2 0x60B JUMP JUMPDEST STOP JUMPDEST PUSH2 0x223 PUSH2 0xC7B JUMP JUMPDEST PUSH1 0x40 MLOAD PUSH2 0x230 SWAP2 SWAP1 PUSH2 0x3C43 JUMP JUMPDEST PUSH1 0x40 MLOAD DUP1 SWAP2 SUB SWAP1 RETURN JUMPDEST PUSH2 0x253 PUSH1 0x4 DUP1 CALLDATASIZE SUB DUP2 ADD SWAP1 PUSH2 0x24E SWAP2 SWAP1 PUSH2 0x348D JUMP JUMPDEST PUSH2 0xC88 JUMP JUMPDEST STOP JUMPDEST PUSH2 0x26F PUSH1 0x4 DUP1 CALLDATASIZE SUB DUP2 ADD SWAP1 PUSH2 0x26A SWAP2 SWAP1 PUSH2 0x348D JUMP JUMPDEST PUSH2 0xF8A JUMP JUMPDEST PUSH1 0x40 MLOAD PUSH2 0x283 SWAP9 SWAP8 SWAP7 SWAP6 SWAP5 SWAP4 SWAP3 SWAP2 SWAP1 PUSH2 0x39ED JUMP JUMPDEST PUSH1 0x40 MLOAD DUP1 SWAP2 SUB SWAP1 RETURN JUMPDEST PUSH2 0x294 PUSH2 0x1042 JUMP JUMPDEST PUSH1 0x40 MLOAD PUSH2 0x2A1 SWAP2 SWAP1 PUSH2 0x3C43 JUMP JUMPDEST PUSH1 0x40 MLOAD DUP1 SWAP2 SUB SWAP1 RETURN JUMPDEST PUSH2 0x2C4 PUSH1 0x4 DUP1 CALLDATASIZE SUB DUP2 ADD SWAP1 PUSH2 0x2BF SWAP2 SWAP1 PUSH2 0x34E7 JUMP JUMPDEST PUSH2 0x1048 JUMP JUMPDEST PUSH1 0x40 MLOAD PUSH2 0x2D1 SWAP2 SWAP1 PUSH2 0x3C43 JUMP JUMPDEST PUSH1 0x40 MLOAD DUP1 SWAP2 SUB SWAP1 RETURN JUMPDEST PUSH2 0x2F4 PUSH1 0x4 DUP1 CALLDATASIZE SUB DUP2 ADD SWAP1 PUSH2 0x2EF SWAP2 SWAP1 PUSH2 0x3460 JUMP JUMPDEST PUSH2 0x11E3 JUMP JUMPDEST STOP JUMPDEST PUSH2 0x310 PUSH1 0x4 DUP1 CALLDATASIZE SUB DUP2 ADD SWAP1 PUSH2 0x30B SWAP2 SWAP1 PUSH2 0x348D JUMP JUMPDEST PUSH2 0x12A3 JUMP JUMPDEST STOP JUMPDEST PUSH2 0x31A PUSH2 0x15AE JUMP JUMPDEST PUSH1 0x40 MLOAD PUSH2 0x327 SWAP2 SWAP1 PUSH2 0x3C43 JUMP JUMPDEST PUSH1 0x40 MLOAD DUP1 SWAP2 SUB SWAP1 RETURN JUMPDEST PUSH2 0x34A PUSH1 0x4 DUP1 CALLDATASIZE SUB DUP2 ADD SWAP1 PUSH2 0x345 SWAP2 SWAP1 PUSH2 0x348D JUMP JUMPDEST PUSH2 0x15B4 JUMP JUMPDEST STOP JUMPDEST PUSH2 0x366 PUSH1 0x4 DUP1 CALLDATASIZE SUB DUP2 ADD SWAP1 PUSH2 0x361 SWAP2 SWAP1 PUSH2 0x348D JUMP JUMPDEST PUSH2 0x1779 JUMP JUMPDEST STOP JUMPDEST PUSH2 0x382 PUSH1 0x4 DUP1 CALLDATASIZE SUB DUP2 ADD SWAP1 PUSH2 0x37D SWAP2 SWAP1 PUSH2 0x348D JUMP JUMPDEST PUSH2 0x18B2 JUMP JUMPDEST STOP JUMPDEST PUSH2 0x39E PUSH1 0x4 DUP1 CALLDATASIZE SUB DUP2 ADD SWAP1 PUSH2 0x399 SWAP2 SWAP1 PUSH2 0x348D JUMP JUMPDEST PUSH2 0x1938 JUMP JUMPDEST STOP JUMPDEST PUSH2 0x3A8 PUSH2 0x19BE JUMP JUMPDEST STOP JUMPDEST PUSH2 0x3C4 PUSH1 0x4 DUP1 CALLDATASIZE SUB DUP2 ADD SWAP1 PUSH2 0x3BF SWAP2 SWAP1 PUSH2 0x3609 JUMP JUMPDEST PUSH2 0x19F1 JUMP JUMPDEST STOP JUMPDEST PUSH2 0x3E0 PUSH1 0x4 DUP1 CALLDATASIZE SUB DUP2 ADD SWAP1 PUSH2 0x3DB SWAP2 SWAP1 PUSH2 0x3527 JUMP JUMPDEST PUSH2 0x1AFD JUMP JUMPDEST STOP JUMPDEST PUSH2 0x3FC PUSH1 0x4 DUP1 CALLDATASIZE SUB DUP2 ADD SWAP1 PUSH2 0x3F7 SWAP2 SWAP1 PUSH2 0x348D JUMP JUMPDEST PUSH2 0x1D75 JUMP JUMPDEST PUSH1 0x40 MLOAD PUSH2 0x409 SWAP2 SWAP1 PUSH2 0x3C43 JUMP JUMPDEST PUSH1 0x40 MLOAD DUP1 SWAP2 SUB SWAP1 RETURN JUMPDEST PUSH2 0x41A PUSH2 0x1D8D JUMP JUMPDEST STOP JUMPDEST PUSH2 0x424 PUSH2 0x1E15 JUMP JUMPDEST PUSH1 0x40 MLOAD PUSH2 0x431 SWAP2 SWAP1 PUSH2 0x3A6B JUMP JUMPDEST PUSH1 0x40 MLOAD DUP1 SWAP2 SUB SWAP1 RETURN JUMPDEST PUSH2 0x442 PUSH2 0x1E3B JUMP JUMPDEST PUSH1 0x40 MLOAD PUSH2 0x44F SWAP2 SWAP1 PUSH2 0x3C43 JUMP JUMPDEST PUSH1 0x40 MLOAD DUP1 SWAP2 SUB SWAP1 RETURN JUMPDEST PUSH2 0x460 PUSH2 0x1E41 JUMP JUMPDEST PUSH1 0x40 MLOAD PUSH2 0x46D SWAP2 SWAP1 PUSH2 0x392E JUMP JUMPDEST PUSH1 0x40 MLOAD DUP1 SWAP2 SUB SWAP1 RETURN JUMPDEST PUSH2 0x490 PUSH1 0x4 DUP1 CALLDATASIZE SUB DUP2 ADD SWAP1 PUSH2 0x48B SWAP2 SWAP1 PUSH2 0x35C9 JUMP JUMPDEST PUSH2 0x1E6A JUMP JUMPDEST PUSH1 0x40 MLOAD PUSH2 0x49D SWAP2 SWAP1 PUSH2 0x3C43 JUMP JUMPDEST PUSH1 0x40 MLOAD DUP1 SWAP2 SUB SWAP1 RETURN JUMPDEST PUSH2 0x4C0 PUSH1 0x4 DUP1 CALLDATASIZE SUB DUP2 ADD SWAP1 PUSH2 0x4BB SWAP2 SWAP1 PUSH2 0x34E7 JUMP JUMPDEST PUSH2 0x1E9B JUMP JUMPDEST PUSH1 0x40 MLOAD PUSH2 0x4CE SWAP3 SWAP2 SWAP1 PUSH2 0x3C87 JUMP JUMPDEST PUSH1 0x40 MLOAD DUP1 SWAP2 SUB SWAP1 RETURN JUMPDEST PUSH2 0x4F1 PUSH1 0x4 DUP1 CALLDATASIZE SUB DUP2 ADD SWAP1 PUSH2 0x4EC SWAP2 SWAP1 PUSH2 0x365C JUMP JUMPDEST PUSH2 0x1ECC JUMP JUMPDEST STOP JUMPDEST PUSH2 0x4FB PUSH2 0x2392 JUMP JUMPDEST PUSH1 0x40 MLOAD PUSH2 0x508 SWAP2 SWAP1 PUSH2 0x39D2 JUMP JUMPDEST PUSH1 0x40 MLOAD DUP1 SWAP2 SUB SWAP1 RETURN JUMPDEST PUSH2 0x52B PUSH1 0x4 DUP1 CALLDATASIZE SUB DUP2 ADD SWAP1 PUSH2 0x526 SWAP2 SWAP1 PUSH2 0x34E7 JUMP JUMPDEST PUSH2 0x23B8 JUMP JUMPDEST PUSH1 0x40 MLOAD PUSH2 0x538 SWAP2 SWAP1 PUSH2 0x3C43 JUMP JUMPDEST PUSH1 0x40 MLOAD DUP1 SWAP2 SUB SWAP1 RETURN JUMPDEST PUSH2 0x55B PUSH1 0x4 DUP1 CALLDATASIZE SUB DUP2 ADD SWAP1 PUSH2 0x556 SWAP2 SWAP1 PUSH2 0x33D9 JUMP JUMPDEST PUSH2 0x241B JUMP JUMPDEST STOP JUMPDEST PUSH2 0x577 PUSH1 0x4 DUP1 CALLDATASIZE SUB DUP2 ADD SWAP1 PUSH2 0x572 SWAP2 SWAP1 PUSH2 0x348D JUMP JUMPDEST PUSH2 0x24DB JUMP JUMPDEST STOP JUMPDEST PUSH2 0x581 PUSH2 0x2610 JUMP JUMPDEST PUSH1 0x40 MLOAD PUSH2 0x58E SWAP2 SWAP1 PUSH2 0x392E JUMP JUMPDEST PUSH1 0x40 MLOAD DUP1 SWAP2 SUB SWAP1 RETURN JUMPDEST PUSH2 0x59F PUSH2 0x2636 JUMP JUMPDEST PUSH1 0x40 MLOAD PUSH2 0x5AC SWAP2 SWAP1 PUSH2 0x3A86 JUMP JUMPDEST PUSH1 0x40 MLOAD DUP1 SWAP2 SUB SWAP1 RETURN JUMPDEST PUSH2 0x5CF PUSH1 0x4 DUP1 CALLDATASIZE SUB DUP2 ADD SWAP1 PUSH2 0x5CA SWAP2 SWAP1 PUSH2 0x348D JUMP JUMPDEST PUSH2 0x265C JUMP JUMPDEST STOP JUMPDEST PUSH2 0x5EB PUSH1 0x4 DUP1 CALLDATASIZE SUB DUP2 ADD SWAP1 PUSH2 0x5E6 SWAP2 SWAP1 PUSH2 0x33D9 JUMP JUMPDEST PUSH2 0x2812 JUMP JUMPDEST STOP JUMPDEST PUSH2 0x5F5 PUSH2 0x290A JUMP JUMPDEST PUSH1 0x40 MLOAD PUSH2 0x602 SWAP2 SWAP1 PUSH2 0x3C43 JUMP JUMPDEST PUSH1 0x40 MLOAD DUP1 SWAP2 SUB SWAP1 RETURN JUMPDEST PUSH1 0x0 DUP2 GT PUSH2 0x64E JUMPI PUSH1 0x40 MLOAD PUSH32 0x8C379A000000000000000000000000000000000000000000000000000000000 DUP2 MSTORE PUSH1 0x4 ADD PUSH2 0x645 SWAP1 PUSH2 0x3B23 JUMP JUMPDEST PUSH1 0x40 MLOAD DUP1 SWAP2 SUB SWAP1 REVERT JUMPDEST PUSH1 0x0 PUSH1 0x6 DUP5 DUP2 SLOAD DUP2 LT PUSH2 0x664 JUMPI PUSH2 0x663 PUSH2 0x3FBB JUMP JUMPDEST JUMPDEST SWAP1 PUSH1 0x0 MSTORE PUSH1 0x20 PUSH1 0x0 KECCAK256 SWAP1 PUSH1 0x8 MUL ADD SWAP1 POP PUSH1 0x0 PUSH1 0x7 PUSH1 0x0 DUP7 DUP2 MSTORE PUSH1 0x20 ADD SWAP1 DUP2 MSTORE PUSH1 0x20 ADD PUSH1 0x0 KECCAK256 PUSH1 0x0 CALLER PUSH20 0xFFFFFFFFFFFFFFFFFFFFFFFFFFFFFFFFFFFFFFFF AND PUSH20 0xFFFFFFFFFFFFFFFFFFFFFFFFFFFFFFFFFFFFFFFF AND DUP2 MSTORE PUSH1 0x20 ADD SWAP1 DUP2 MSTORE PUSH1 0x20 ADD PUSH1 0x0 KECCAK256 SWAP1 POP PUSH2 0x6D1 DUP6 PUSH2 0x15B4 JUMP JUMPDEST PUSH1 0x0 DUP2 PUSH1 0x0 ADD SLOAD GT ISZERO PUSH2 0x740 JUMPI PUSH1 0x0 PUSH2 0x728 DUP3 PUSH1 0x1 ADD SLOAD PUSH2 0x71A PUSH5 0xE8D4A51000 PUSH2 0x70C DUP8 PUSH1 0x3 ADD SLOAD DUP8 PUSH1 0x0 ADD SLOAD PUSH2 0x2910 SWAP1 SWAP2 SWAP1 PUSH4 0xFFFFFFFF AND JUMP JUMPDEST PUSH2 0x298B SWAP1 SWAP2 SWAP1 PUSH4 0xFFFFFFFF AND JUMP JUMPDEST PUSH2 0x29D5 SWAP1 SWAP2 SWAP1 PUSH4 0xFFFFFFFF AND JUMP JUMPDEST SWAP1 POP PUSH1 0x0 DUP2 GT ISZERO PUSH2 0x73E JUMPI PUSH2 0x73D CALLER DUP3 PUSH2 0x2A1F JUMP JUMPDEST JUMPDEST POP JUMPDEST DUP3 DUP3 PUSH1 0x0 ADD PUSH1 0x0 SWAP1 SLOAD SWAP1 PUSH2 0x100 EXP SWAP1 DIV PUSH20 0xFFFFFFFFFFFFFFFFFFFFFFFFFFFFFFFFFFFFFFFF AND PUSH20 0xFFFFFFFFFFFFFFFFFFFFFFFFFFFFFFFFFFFFFFFF AND PUSH4 0xDD62ED3E ADDRESS DUP6 PUSH1 0x4 ADD PUSH1 0x0 SWAP1 SLOAD SWAP1 PUSH2 0x100 EXP SWAP1 DIV PUSH20 0xFFFFFFFFFFFFFFFFFFFFFFFFFFFFFFFFFFFFFFFF AND PUSH1 0x40 MLOAD DUP4 PUSH4 0xFFFFFFFF AND PUSH1 0xE0 SHL DUP2 MSTORE PUSH1 0x4 ADD PUSH2 0x7C4 SWAP3 SWAP2 SWAP1 PUSH2 0x3949 JUMP JUMPDEST PUSH1 0x20 PUSH1 0x40 MLOAD DUP1 DUP4 SUB DUP2 DUP7 DUP1 EXTCODESIZE ISZERO DUP1 ISZERO PUSH2 0x7DC JUMPI PUSH1 0x0 DUP1 REVERT JUMPDEST POP GAS STATICCALL ISZERO DUP1 ISZERO PUSH2 0x7F0 JUMPI RETURNDATASIZE PUSH1 0x0 DUP1 RETURNDATACOPY RETURNDATASIZE PUSH1 0x0 REVERT JUMPDEST POP POP POP POP PUSH1 0x40 MLOAD RETURNDATASIZE PUSH1 0x1F NOT PUSH1 0x1F DUP3 ADD AND DUP3 ADD DUP1 PUSH1 0x40 MSTORE POP DUP2 ADD SWAP1 PUSH2 0x814 SWAP2 SWAP1 PUSH2 0x34BA JUMP JUMPDEST GT PUSH2 0x823 JUMPI PUSH2 0x822 DUP6 PUSH2 0x265C JUMP JUMPDEST JUMPDEST PUSH1 0x0 PUSH2 0x850 PUSH1 0xC SLOAD PUSH2 0x842 DUP6 PUSH1 0x6 ADD SLOAD DUP8 PUSH2 0x2910 SWAP1 SWAP2 SWAP1 PUSH4 0xFFFFFFFF AND JUMP JUMPDEST PUSH2 0x298B SWAP1 SWAP2 SWAP1 PUSH4 0xFFFFFFFF AND JUMP JUMPDEST SWAP1 POP PUSH1 0x0 PUSH2 0x867 DUP3 DUP7 PUSH2 0x29D5 SWAP1 SWAP2 SWAP1 PUSH4 0xFFFFFFFF AND JUMP JUMPDEST SWAP1 POP PUSH2 0x8BA CALLER ADDRESS DUP4 DUP8 PUSH1 0x0 ADD PUSH1 0x0 SWAP1 SLOAD SWAP1 PUSH2 0x100 EXP SWAP1 DIV PUSH20 0xFFFFFFFFFFFFFFFFFFFFFFFFFFFFFFFFFFFFFFFF AND PUSH20 0xFFFFFFFFFFFFFFFFFFFFFFFFFFFFFFFFFFFFFFFF AND PUSH2 0x2C41 SWAP1 SWAP4 SWAP3 SWAP2 SWAP1 PUSH4 0xFFFFFFFF AND JUMP JUMPDEST PUSH2 0x92D CALLER PUSH1 0x2 PUSH1 0x0 SWAP1 SLOAD SWAP1 PUSH2 0x100 EXP SWAP1 DIV PUSH20 0xFFFFFFFFFFFFFFFFFFFFFFFFFFFFFFFFFFFFFFFF AND DUP5 DUP8 PUSH1 0x0 ADD PUSH1 0x0 SWAP1 SLOAD SWAP1 PUSH2 0x100 EXP SWAP1 DIV PUSH20 0xFFFFFFFFFFFFFFFFFFFFFFFFFFFFFFFFFFFFFFFF AND PUSH20 0xFFFFFFFFFFFFFFFFFFFFFFFFFFFFFFFFFFFFFFFF AND PUSH2 0x2C41 SWAP1 SWAP4 SWAP3 SWAP2 SWAP1 PUSH4 0xFFFFFFFF AND JUMP JUMPDEST PUSH1 0x0 DUP5 PUSH1 0x7 ADD SLOAD EQ ISZERO PUSH2 0x9CE JUMPI DUP4 PUSH1 0x4 ADD PUSH1 0x0 SWAP1 SLOAD SWAP1 PUSH2 0x100 EXP SWAP1 DIV PUSH20 0xFFFFFFFFFFFFFFFFFFFFFFFFFFFFFFFFFFFFFFFF AND PUSH20 0xFFFFFFFFFFFFFFFFFFFFFFFFFFFFFFFFFFFFFFFF AND PUSH4 0x41441D3B DUP3 PUSH1 0x40 MLOAD DUP3 PUSH4 0xFFFFFFFF AND PUSH1 0xE0 SHL DUP2 MSTORE PUSH1 0x4 ADD PUSH2 0x997 SWAP2 SWAP1 PUSH2 0x3C43 JUMP JUMPDEST PUSH1 0x0 PUSH1 0x40 MLOAD DUP1 DUP4 SUB DUP2 PUSH1 0x0 DUP8 DUP1 EXTCODESIZE ISZERO DUP1 ISZERO PUSH2 0x9B1 JUMPI PUSH1 0x0 DUP1 REVERT JUMPDEST POP GAS CALL ISZERO DUP1 ISZERO PUSH2 0x9C5 JUMPI RETURNDATASIZE PUSH1 0x0 DUP1 RETURNDATACOPY RETURNDATASIZE PUSH1 0x0 REVERT JUMPDEST POP POP POP POP PUSH2 0xA60 JUMP JUMPDEST DUP4 PUSH1 0x4 ADD PUSH1 0x0 SWAP1 SLOAD SWAP1 PUSH2 0x100 EXP SWAP1 DIV PUSH20 0xFFFFFFFFFFFFFFFFFFFFFFFFFFFFFFFFFFFFFFFF AND PUSH20 0xFFFFFFFFFFFFFFFFFFFFFFFFFFFFFFFFFFFFFFFF AND PUSH4 0xE2BBB158 DUP8 DUP4 PUSH1 0x40 MLOAD DUP4 PUSH4 0xFFFFFFFF AND PUSH1 0xE0 SHL DUP2 MSTORE PUSH1 0x4 ADD PUSH2 0xA2D SWAP3 SWAP2 SWAP1 PUSH2 0x3C87 JUMP JUMPDEST PUSH1 0x0 PUSH1 0x40 MLOAD DUP1 DUP4 SUB DUP2 PUSH1 0x0 DUP8 DUP1 EXTCODESIZE ISZERO DUP1 ISZERO PUSH2 0xA47 JUMPI PUSH1 0x0 DUP1 REVERT JUMPDEST POP GAS CALL ISZERO DUP1 ISZERO PUSH2 0xA5B JUMPI RETURNDATASIZE PUSH1 0x0 DUP1 RETURNDATACOPY RETURNDATASIZE PUSH1 0x0 REVERT JUMPDEST POP POP POP POP JUMPDEST PUSH2 0xA77 DUP2 DUP5 PUSH1 0x0 ADD SLOAD PUSH2 0x2CCA SWAP1 SWAP2 SWAP1 PUSH4 0xFFFFFFFF AND JUMP JUMPDEST DUP4 PUSH1 0x0 ADD DUP2 SWAP1 SSTORE POP PUSH2 0xAA5 DUP2 PUSH1 0xA PUSH1 0x0 DUP11 DUP2 MSTORE PUSH1 0x20 ADD SWAP1 DUP2 MSTORE PUSH1 0x20 ADD PUSH1 0x0 KECCAK256 SLOAD PUSH2 0x2CCA SWAP1 SWAP2 SWAP1 PUSH4 0xFFFFFFFF AND JUMP JUMPDEST PUSH1 0xA PUSH1 0x0 DUP10 DUP2 MSTORE PUSH1 0x20 ADD SWAP1 DUP2 MSTORE PUSH1 0x20 ADD PUSH1 0x0 KECCAK256 DUP2 SWAP1 SSTORE POP PUSH2 0xAEE PUSH5 0xE8D4A51000 PUSH2 0xAE0 DUP7 PUSH1 0x3 ADD SLOAD DUP7 PUSH1 0x0 ADD SLOAD PUSH2 0x2910 SWAP1 SWAP2 SWAP1 PUSH4 0xFFFFFFFF AND JUMP JUMPDEST PUSH2 0x298B SWAP1 SWAP2 SWAP1 PUSH4 0xFFFFFFFF AND JUMP JUMPDEST DUP4 PUSH1 0x1 ADD DUP2 SWAP1 SSTORE POP PUSH1 0x0 DUP5 PUSH1 0x5 ADD PUSH1 0x0 SWAP1 SLOAD SWAP1 PUSH2 0x100 EXP SWAP1 DIV PUSH20 0xFFFFFFFFFFFFFFFFFFFFFFFFFFFFFFFFFFFFFFFF AND PUSH20 0xFFFFFFFFFFFFFFFFFFFFFFFFFFFFFFFFFFFFFFFF AND PUSH4 0x70A08231 ADDRESS PUSH1 0x40 MLOAD DUP3 PUSH4 0xFFFFFFFF AND PUSH1 0xE0 SHL DUP2 MSTORE PUSH1 0x4 ADD PUSH2 0xB55 SWAP2 SWAP1 PUSH2 0x392E JUMP JUMPDEST PUSH1 0x20 PUSH1 0x40 MLOAD DUP1 DUP4 SUB DUP2 DUP7 DUP1 EXTCODESIZE ISZERO DUP1 ISZERO PUSH2 0xB6D JUMPI PUSH1 0x0 DUP1 REVERT JUMPDEST POP GAS STATICCALL ISZERO DUP1 ISZERO PUSH2 0xB81 JUMPI RETURNDATASIZE PUSH1 0x0 DUP1 RETURNDATACOPY RETURNDATASIZE PUSH1 0x0 REVERT JUMPDEST POP POP POP POP PUSH1 0x40 MLOAD RETURNDATASIZE PUSH1 0x1F NOT PUSH1 0x1F DUP3 ADD AND DUP3 ADD DUP1 PUSH1 0x40 MSTORE POP DUP2 ADD SWAP1 PUSH2 0xBA5 SWAP2 SWAP1 PUSH2 0x34BA JUMP JUMPDEST SWAP1 POP PUSH1 0x0 DUP2 GT ISZERO PUSH2 0xC22 JUMPI PUSH2 0xC21 PUSH1 0x2 PUSH1 0x0 SWAP1 SLOAD SWAP1 PUSH2 0x100 EXP SWAP1 DIV PUSH20 0xFFFFFFFFFFFFFFFFFFFFFFFFFFFFFFFFFFFFFFFF AND DUP3 DUP8 PUSH1 0x5 ADD PUSH1 0x0 SWAP1 SLOAD SWAP1 PUSH2 0x100 EXP SWAP1 DIV PUSH20 0xFFFFFFFFFFFFFFFFFFFFFFFFFFFFFFFFFFFFFFFF AND PUSH20 0xFFFFFFFFFFFFFFFFFFFFFFFFFFFFFFFFFFFFFFFF AND PUSH2 0x2D28 SWAP1 SWAP3 SWAP2 SWAP1 PUSH4 0xFFFFFFFF AND JUMP JUMPDEST JUMPDEST DUP8 CALLER PUSH20 0xFFFFFFFFFFFFFFFFFFFFFFFFFFFFFFFFFFFFFFFF AND PUSH32 0x90890809C654F11D6E72A28FA60149770A0D11EC6C92319D6CEB2BB0A4EA1A15 DUP5 PUSH1 0x40 MLOAD PUSH2 0xC69 SWAP2 SWAP1 PUSH2 0x3C43 JUMP JUMPDEST PUSH1 0x40 MLOAD DUP1 SWAP2 SUB SWAP1 LOG3 POP POP POP POP POP POP POP POP JUMP JUMPDEST PUSH1 0x0 PUSH1 0x6 DUP1 SLOAD SWAP1 POP SWAP1 POP SWAP1 JUMP JUMPDEST PUSH1 0x0 PUSH1 0x6 DUP3 DUP2 SLOAD DUP2 LT PUSH2 0xC9E JUMPI PUSH2 0xC9D PUSH2 0x3FBB JUMP JUMPDEST JUMPDEST SWAP1 PUSH1 0x0 MSTORE PUSH1 0x20 PUSH1 0x0 KECCAK256 SWAP1 PUSH1 0x8 MUL ADD SWAP1 POP PUSH1 0x0 PUSH1 0x7 PUSH1 0x0 DUP5 DUP2 MSTORE PUSH1 0x20 ADD SWAP1 DUP2 MSTORE PUSH1 0x20 ADD PUSH1 0x0 KECCAK256 PUSH1 0x0 CALLER PUSH20 0xFFFFFFFFFFFFFFFFFFFFFFFFFFFFFFFFFFFFFFFF AND PUSH20 0xFFFFFFFFFFFFFFFFFFFFFFFFFFFFFFFFFFFFFFFF AND DUP2 MSTORE PUSH1 0x20 ADD SWAP1 DUP2 MSTORE PUSH1 0x20 ADD PUSH1 0x0 KECCAK256 SWAP1 POP PUSH2 0xD0B DUP4 PUSH2 0x15B4 JUMP JUMPDEST PUSH1 0x0 PUSH2 0xD55 DUP3 PUSH1 0x1 ADD SLOAD PUSH2 0xD47 PUSH5 0xE8D4A51000 PUSH2 0xD39 DUP8 PUSH1 0x3 ADD SLOAD DUP8 PUSH1 0x0 ADD SLOAD PUSH2 0x2910 SWAP1 SWAP2 SWAP1 PUSH4 0xFFFFFFFF AND JUMP JUMPDEST PUSH2 0x298B SWAP1 SWAP2 SWAP1 PUSH4 0xFFFFFFFF AND JUMP JUMPDEST PUSH2 0x29D5 SWAP1 SWAP2 SWAP1 PUSH4 0xFFFFFFFF AND JUMP JUMPDEST SWAP1 POP PUSH1 0x0 DUP2 GT PUSH2 0xD9A JUMPI PUSH1 0x40 MLOAD PUSH32 0x8C379A000000000000000000000000000000000000000000000000000000000 DUP2 MSTORE PUSH1 0x4 ADD PUSH2 0xD91 SWAP1 PUSH2 0x3B23 JUMP JUMPDEST PUSH1 0x40 MLOAD DUP1 SWAP2 SUB SWAP1 REVERT JUMPDEST PUSH1 0x1 PUSH1 0x0 SWAP1 SLOAD SWAP1 PUSH2 0x100 EXP SWAP1 DIV PUSH20 0xFFFFFFFFFFFFFFFFFFFFFFFFFFFFFFFFFFFFFFFF AND PUSH20 0xFFFFFFFFFFFFFFFFFFFFFFFFFFFFFFFFFFFFFFFF AND PUSH4 0x95EA7B3 PUSH1 0xD PUSH1 0x0 SWAP1 SLOAD SWAP1 PUSH2 0x100 EXP SWAP1 DIV PUSH20 0xFFFFFFFFFFFFFFFFFFFFFFFFFFFFFFFFFFFFFFFF AND DUP4 PUSH1 0x40 MLOAD DUP4 PUSH4 0xFFFFFFFF AND PUSH1 0xE0 SHL DUP2 MSTORE PUSH1 0x4 ADD PUSH2 0xE19 SWAP3 SWAP2 SWAP1 PUSH2 0x39A9 JUMP JUMPDEST PUSH1 0x20 PUSH1 0x40 MLOAD DUP1 DUP4 SUB DUP2 PUSH1 0x0 DUP8 DUP1 EXTCODESIZE ISZERO DUP1 ISZERO PUSH2 0xE33 JUMPI PUSH1 0x0 DUP1 REVERT JUMPDEST POP GAS CALL ISZERO DUP1 ISZERO PUSH2 0xE47 JUMPI RETURNDATASIZE PUSH1 0x0 DUP1 RETURNDATACOPY RETURNDATASIZE PUSH1 0x0 REVERT JUMPDEST POP POP POP POP PUSH1 0x40 MLOAD RETURNDATASIZE PUSH1 0x1F NOT PUSH1 0x1F DUP3 ADD AND DUP3 ADD DUP1 PUSH1 0x40 MSTORE POP DUP2 ADD SWAP1 PUSH2 0xE6B SWAP2 SWAP1 PUSH2 0x3406 JUMP JUMPDEST POP PUSH1 0xD PUSH1 0x0 SWAP1 SLOAD SWAP1 PUSH2 0x100 EXP SWAP1 DIV PUSH20 0xFFFFFFFFFFFFFFFFFFFFFFFFFFFFFFFFFFFFFFFF AND PUSH20 0xFFFFFFFFFFFFFFFFFFFFFFFFFFFFFFFFFFFFFFFF AND PUSH4 0xCF35FDDF DUP3 CALLER PUSH1 0x40 MLOAD DUP4 PUSH4 0xFFFFFFFF AND PUSH1 0xE0 SHL DUP2 MSTORE PUSH1 0x4 ADD PUSH2 0xEC9 SWAP3 SWAP2 SWAP1 PUSH2 0x3C5E JUMP JUMPDEST PUSH1 0x0 PUSH1 0x40 MLOAD DUP1 DUP4 SUB DUP2 PUSH1 0x0 DUP8 DUP1 EXTCODESIZE ISZERO DUP1 ISZERO PUSH2 0xEE3 JUMPI PUSH1 0x0 DUP1 REVERT JUMPDEST POP GAS CALL ISZERO DUP1 ISZERO PUSH2 0xEF7 JUMPI RETURNDATASIZE PUSH1 0x0 DUP1 RETURNDATACOPY RETURNDATASIZE PUSH1 0x0 REVERT JUMPDEST POP POP POP POP PUSH2 0xF2D PUSH5 0xE8D4A51000 PUSH2 0xF1F DUP6 PUSH1 0x3 ADD SLOAD DUP6 PUSH1 0x0 ADD SLOAD PUSH2 0x2910 SWAP1 SWAP2 SWAP1 PUSH4 0xFFFFFFFF AND JUMP JUMPDEST PUSH2 0x298B SWAP1 SWAP2 SWAP1 PUSH4 0xFFFFFFFF AND JUMP JUMPDEST DUP3 PUSH1 0x1 ADD DUP2 SWAP1 SSTORE POP DUP4 CALLER PUSH20 0xFFFFFFFFFFFFFFFFFFFFFFFFFFFFFFFFFFFFFFFF AND PUSH32 0xF279E6A1F5E320CCA91135676D9CB6E44CA8A08C0B88342BCDB1144F6511B568 DUP4 PUSH1 0x40 MLOAD PUSH2 0xF7C SWAP2 SWAP1 PUSH2 0x3C43 JUMP JUMPDEST PUSH1 0x40 MLOAD DUP1 SWAP2 SUB SWAP1 LOG3 POP POP POP POP JUMP JUMPDEST PUSH1 0x6 DUP2 DUP2 SLOAD DUP2 LT PUSH2 0xF9A JUMPI PUSH1 0x0 DUP1 REVERT JUMPDEST SWAP1 PUSH1 0x0 MSTORE PUSH1 0x20 PUSH1 0x0 KECCAK256 SWAP1 PUSH1 0x8 MUL ADD PUSH1 0x0 SWAP2 POP SWAP1 POP DUP1 PUSH1 0x0 ADD PUSH1 0x0 SWAP1 SLOAD SWAP1 PUSH2 0x100 EXP SWAP1 DIV PUSH20 0xFFFFFFFFFFFFFFFFFFFFFFFFFFFFFFFFFFFFFFFF AND SWAP1 DUP1 PUSH1 0x1 ADD SLOAD SWAP1 DUP1 PUSH1 0x2 ADD SLOAD SWAP1 DUP1 PUSH1 0x3 ADD SLOAD SWAP1 DUP1 PUSH1 0x4 ADD PUSH1 0x0 SWAP1 SLOAD SWAP1 PUSH2 0x100 EXP SWAP1 DIV PUSH20 0xFFFFFFFFFFFFFFFFFFFFFFFFFFFFFFFFFFFFFFFF AND SWAP1 DUP1 PUSH1 0x5 ADD PUSH1 0x0 SWAP1 SLOAD SWAP1 PUSH2 0x100 EXP SWAP1 DIV PUSH20 0xFFFFFFFFFFFFFFFFFFFFFFFFFFFFFFFFFFFFFFFF AND SWAP1 DUP1 PUSH1 0x6 ADD SLOAD SWAP1 DUP1 PUSH1 0x7 ADD SLOAD SWAP1 POP DUP9 JUMP JUMPDEST PUSH1 0x8 SLOAD DUP2 JUMP JUMPDEST PUSH1 0x0 DUP1 PUSH1 0x6 DUP5 DUP2 SLOAD DUP2 LT PUSH2 0x105F JUMPI PUSH2 0x105E PUSH2 0x3FBB JUMP JUMPDEST JUMPDEST SWAP1 PUSH1 0x0 MSTORE PUSH1 0x20 PUSH1 0x0 KECCAK256 SWAP1 PUSH1 0x8 MUL ADD SWAP1 POP PUSH1 0x0 PUSH1 0x7 PUSH1 0x0 DUP7 DUP2 MSTORE PUSH1 0x20 ADD SWAP1 DUP2 MSTORE PUSH1 0x20 ADD PUSH1 0x0 KECCAK256 PUSH1 0x0 DUP6 PUSH20 0xFFFFFFFFFFFFFFFFFFFFFFFFFFFFFFFFFFFFFFFF AND PUSH20 0xFFFFFFFFFFFFFFFFFFFFFFFFFFFFFFFFFFFFFFFF AND DUP2 MSTORE PUSH1 0x20 ADD SWAP1 DUP2 MSTORE PUSH1 0x20 ADD PUSH1 0x0 KECCAK256 SWAP1 POP PUSH1 0x0 DUP3 PUSH1 0x3 ADD SLOAD SWAP1 POP PUSH1 0x0 PUSH1 0xA PUSH1 0x0 DUP9 DUP2 MSTORE PUSH1 0x20 ADD SWAP1 DUP2 MSTORE PUSH1 0x20 ADD PUSH1 0x0 KECCAK256 SLOAD SWAP1 POP DUP4 PUSH1 0x2 ADD SLOAD NUMBER GT DUP1 ISZERO PUSH2 0x10F8 JUMPI POP PUSH1 0x0 DUP2 EQ ISZERO JUMPDEST ISZERO PUSH2 0x1193 JUMPI PUSH1 0x0 PUSH2 0x110D DUP6 PUSH1 0x2 ADD SLOAD NUMBER PUSH2 0x1E6A JUMP JUMPDEST SWAP1 POP PUSH1 0x0 PUSH2 0x1150 PUSH1 0x8 SLOAD PUSH2 0x1142 DUP9 PUSH1 0x1 ADD SLOAD PUSH2 0x1134 PUSH1 0x3 SLOAD DUP8 PUSH2 0x2910 SWAP1 SWAP2 SWAP1 PUSH4 0xFFFFFFFF AND JUMP JUMPDEST PUSH2 0x2910 SWAP1 SWAP2 SWAP1 PUSH4 0xFFFFFFFF AND JUMP JUMPDEST PUSH2 0x298B SWAP1 SWAP2 SWAP1 PUSH4 0xFFFFFFFF AND JUMP JUMPDEST SWAP1 POP PUSH2 0x118E PUSH2 0x117F DUP5 PUSH2 0x1171 PUSH5 0xE8D4A51000 DUP6 PUSH2 0x2910 SWAP1 SWAP2 SWAP1 PUSH4 0xFFFFFFFF AND JUMP JUMPDEST PUSH2 0x298B SWAP1 SWAP2 SWAP1 PUSH4 0xFFFFFFFF AND JUMP JUMPDEST DUP6 PUSH2 0x2CCA SWAP1 SWAP2 SWAP1 PUSH4 0xFFFFFFFF AND JUMP JUMPDEST SWAP4 POP POP POP JUMPDEST PUSH2 0x11D7 DUP4 PUSH1 0x1 ADD SLOAD PUSH2 0x11C9 PUSH5 0xE8D4A51000 PUSH2 0x11BB DUP7 DUP9 PUSH1 0x0 ADD SLOAD PUSH2 0x2910 SWAP1 SWAP2 SWAP1 PUSH4 0xFFFFFFFF AND JUMP JUMPDEST PUSH2 0x298B SWAP1 SWAP2 SWAP1 PUSH4 0xFFFFFFFF AND JUMP JUMPDEST PUSH2 0x29D5 SWAP1 SWAP2 SWAP1 PUSH4 0xFFFFFFFF AND JUMP JUMPDEST SWAP5 POP POP POP POP POP SWAP3 SWAP2 POP POP JUMP JUMPDEST PUSH2 0x11EB PUSH2 0x2DAE JUMP JUMPDEST PUSH20 0xFFFFFFFFFFFFFFFFFFFFFFFFFFFFFFFFFFFFFFFF AND PUSH2 0x1209 PUSH2 0x1E41 JUMP JUMPDEST PUSH20 0xFFFFFFFFFFFFFFFFFFFFFFFFFFFFFFFFFFFFFFFF AND EQ PUSH2 0x125F JUMPI PUSH1 0x40 MLOAD PUSH32 0x8C379A000000000000000000000000000000000000000000000000000000000 DUP2 MSTORE PUSH1 0x4 ADD PUSH2 0x1256 SWAP1 PUSH2 0x3B63 JUMP JUMPDEST PUSH1 0x40 MLOAD DUP1 SWAP2 SUB SWAP1 REVERT JUMPDEST DUP1 PUSH1 0x5 PUSH1 0x0 PUSH2 0x100 EXP DUP2 SLOAD DUP2 PUSH20 0xFFFFFFFFFFFFFFFFFFFFFFFFFFFFFFFFFFFFFFFF MUL NOT AND SWAP1 DUP4 PUSH20 0xFFFFFFFFFFFFFFFFFFFFFFFFFFFFFFFFFFFFFFFF AND MUL OR SWAP1 SSTORE POP POP JUMP JUMPDEST PUSH1 0x0 PUSH20 0xFFFFFFFFFFFFFFFFFFFFFFFFFFFFFFFFFFFFFFFF AND PUSH1 0x5 PUSH1 0x0 SWAP1 SLOAD SWAP1 PUSH2 0x100 EXP SWAP1 DIV PUSH20 0xFFFFFFFFFFFFFFFFFFFFFFFFFFFFFFFFFFFFFFFF AND PUSH20 0xFFFFFFFFFFFFFFFFFFFFFFFFFFFFFFFFFFFFFFFF AND EQ ISZERO PUSH2 0x1335 JUMPI PUSH1 0x40 MLOAD PUSH32 0x8C379A000000000000000000000000000000000000000000000000000000000 DUP2 MSTORE PUSH1 0x4 ADD PUSH2 0x132C SWAP1 PUSH2 0x3C23 JUMP JUMPDEST PUSH1 0x40 MLOAD DUP1 SWAP2 SUB SWAP1 REVERT JUMPDEST PUSH1 0x0 PUSH1 0x6 DUP3 DUP2 SLOAD DUP2 LT PUSH2 0x134B JUMPI PUSH2 0x134A PUSH2 0x3FBB JUMP JUMPDEST JUMPDEST SWAP1 PUSH1 0x0 MSTORE PUSH1 0x20 PUSH1 0x0 KECCAK256 SWAP1 PUSH1 0x8 MUL ADD SWAP1 POP PUSH1 0x0 DUP2 PUSH1 0x0 ADD PUSH1 0x0 SWAP1 SLOAD SWAP1 PUSH2 0x100 EXP SWAP1 DIV PUSH20 0xFFFFFFFFFFFFFFFFFFFFFFFFFFFFFFFFFFFFFFFF AND SWAP1 POP PUSH1 0x0 PUSH1 0xA PUSH1 0x0 DUP6 DUP2 MSTORE PUSH1 0x20 ADD SWAP1 DUP2 MSTORE PUSH1 0x20 ADD PUSH1 0x0 KECCAK256 SLOAD SWAP1 POP PUSH2 0x13E9 PUSH1 0x5 PUSH1 0x0 SWAP1 SLOAD SWAP1 PUSH2 0x100 EXP SWAP1 DIV PUSH20 0xFFFFFFFFFFFFFFFFFFFFFFFFFFFFFFFFFFFFFFFF AND DUP3 DUP5 PUSH20 0xFFFFFFFFFFFFFFFFFFFFFFFFFFFFFFFFFFFFFFFF AND PUSH2 0x2DB6 SWAP1 SWAP3 SWAP2 SWAP1 PUSH4 0xFFFFFFFF AND JUMP JUMPDEST PUSH1 0x0 PUSH1 0x5 PUSH1 0x0 SWAP1 SLOAD SWAP1 PUSH2 0x100 EXP SWAP1 DIV PUSH20 0xFFFFFFFFFFFFFFFFFFFFFFFFFFFFFFFFFFFFFFFF AND PUSH20 0xFFFFFFFFFFFFFFFFFFFFFFFFFFFFFFFFFFFFFFFF AND PUSH4 0xCE5494BB DUP5 PUSH1 0x40 MLOAD DUP3 PUSH4 0xFFFFFFFF AND PUSH1 0xE0 SHL DUP2 MSTORE PUSH1 0x4 ADD PUSH2 0x1446 SWAP2 SWAP1 PUSH2 0x39D2 JUMP JUMPDEST PUSH1 0x20 PUSH1 0x40 MLOAD DUP1 DUP4 SUB DUP2 PUSH1 0x0 DUP8 DUP1 EXTCODESIZE ISZERO DUP1 ISZERO PUSH2 0x1460 JUMPI PUSH1 0x0 DUP1 REVERT JUMPDEST POP GAS CALL ISZERO DUP1 ISZERO PUSH2 0x1474 JUMPI RETURNDATASIZE PUSH1 0x0 DUP1 RETURNDATACOPY RETURNDATASIZE PUSH1 0x0 REVERT JUMPDEST POP POP POP POP PUSH1 0x40 MLOAD RETURNDATASIZE PUSH1 0x1F NOT PUSH1 0x1F DUP3 ADD AND DUP3 ADD DUP1 PUSH1 0x40 MSTORE POP DUP2 ADD SWAP1 PUSH2 0x1498 SWAP2 SWAP1 PUSH2 0x3433 JUMP JUMPDEST SWAP1 POP DUP1 PUSH20 0xFFFFFFFFFFFFFFFFFFFFFFFFFFFFFFFFFFFFFFFF AND PUSH4 0x70A08231 ADDRESS PUSH1 0x40 MLOAD DUP3 PUSH4 0xFFFFFFFF AND PUSH1 0xE0 SHL DUP2 MSTORE PUSH1 0x4 ADD PUSH2 0x14D3 SWAP2 SWAP1 PUSH2 0x392E JUMP JUMPDEST PUSH1 0x20 PUSH1 0x40 MLOAD DUP1 DUP4 SUB DUP2 DUP7 DUP1 EXTCODESIZE ISZERO DUP1 ISZERO PUSH2 0x14EB JUMPI PUSH1 0x0 DUP1 REVERT JUMPDEST POP GAS STATICCALL ISZERO DUP1 ISZERO PUSH2 0x14FF JUMPI RETURNDATASIZE PUSH1 0x0 DUP1 RETURNDATACOPY RETURNDATASIZE PUSH1 0x0 REVERT JUMPDEST POP POP POP POP PUSH1 0x40 MLOAD RETURNDATASIZE PUSH1 0x1F NOT PUSH1 0x1F DUP3 ADD AND DUP3 ADD DUP1 PUSH1 0x40 MSTORE POP DUP2 ADD SWAP1 PUSH2 0x1523 SWAP2 SWAP1 PUSH2 0x34BA JUMP JUMPDEST DUP3 EQ PUSH2 0x1564 JUMPI PUSH1 0x40 MLOAD PUSH32 0x8C379A000000000000000000000000000000000000000000000000000000000 DUP2 MSTORE PUSH1 0x4 ADD PUSH2 0x155B SWAP1 PUSH2 0x3BE3 JUMP JUMPDEST PUSH1 0x40 MLOAD DUP1 SWAP2 SUB SWAP1 REVERT JUMPDEST DUP1 DUP5 PUSH1 0x0 ADD PUSH1 0x0 PUSH2 0x100 EXP DUP2 SLOAD DUP2 PUSH20 0xFFFFFFFFFFFFFFFFFFFFFFFFFFFFFFFFFFFFFFFF MUL NOT AND SWAP1 DUP4 PUSH20 0xFFFFFFFFFFFFFFFFFFFFFFFFFFFFFFFFFFFFFFFF AND MUL OR SWAP1 SSTORE POP POP POP POP POP POP JUMP JUMPDEST PUSH1 0x9 SLOAD DUP2 JUMP JUMPDEST PUSH1 0x0 PUSH1 0x6 DUP3 DUP2 SLOAD DUP2 LT PUSH2 0x15CA JUMPI PUSH2 0x15C9 PUSH2 0x3FBB JUMP JUMPDEST JUMPDEST SWAP1 PUSH1 0x0 MSTORE PUSH1 0x20 PUSH1 0x0 KECCAK256 SWAP1 PUSH1 0x8 MUL ADD SWAP1 POP DUP1 PUSH1 0x2 ADD SLOAD NUMBER GT PUSH2 0x15EB JUMPI POP PUSH2 0x1776 JUMP JUMPDEST PUSH1 0x0 PUSH1 0xA PUSH1 0x0 DUP5 DUP2 MSTORE PUSH1 0x20 ADD SWAP1 DUP2 MSTORE PUSH1 0x20 ADD PUSH1 0x0 KECCAK256 SLOAD SWAP1 POP PUSH1 0x0 DUP2 GT PUSH2 0x161B JUMPI NUMBER DUP3 PUSH1 0x2 ADD DUP2 SWAP1 SSTORE POP POP POP PUSH2 0x1776 JUMP JUMPDEST PUSH1 0x0 PUSH2 0x162B DUP4 PUSH1 0x2 ADD SLOAD NUMBER PUSH2 0x1E6A JUMP JUMPDEST SWAP1 POP PUSH1 0x0 PUSH2 0x166E PUSH1 0x8 SLOAD PUSH2 0x1660 DUP7 PUSH1 0x1 ADD SLOAD PUSH2 0x1652 PUSH1 0x3 SLOAD DUP8 PUSH2 0x2910 SWAP1 SWAP2 SWAP1 PUSH4 0xFFFFFFFF AND JUMP JUMPDEST PUSH2 0x2910 SWAP1 SWAP2 SWAP1 PUSH4 0xFFFFFFFF AND JUMP JUMPDEST PUSH2 0x298B SWAP1 SWAP2 SWAP1 PUSH4 0xFFFFFFFF AND JUMP JUMPDEST SWAP1 POP PUSH1 0x1 PUSH1 0x0 SWAP1 SLOAD SWAP1 PUSH2 0x100 EXP SWAP1 DIV PUSH20 0xFFFFFFFFFFFFFFFFFFFFFFFFFFFFFFFFFFFFFFFF AND PUSH20 0xFFFFFFFFFFFFFFFFFFFFFFFFFFFFFFFFFFFFFFFF AND PUSH4 0x40C10F19 ADDRESS DUP4 PUSH1 0x40 MLOAD DUP4 PUSH4 0xFFFFFFFF AND PUSH1 0xE0 SHL DUP2 MSTORE PUSH1 0x4 ADD PUSH2 0x16CD SWAP3 SWAP2 SWAP1 PUSH2 0x39A9 JUMP JUMPDEST PUSH1 0x20 PUSH1 0x40 MLOAD DUP1 DUP4 SUB DUP2 PUSH1 0x0 DUP8 DUP1 EXTCODESIZE ISZERO DUP1 ISZERO PUSH2 0x16E7 JUMPI PUSH1 0x0 DUP1 REVERT JUMPDEST POP GAS CALL ISZERO DUP1 ISZERO PUSH2 0x16FB JUMPI RETURNDATASIZE PUSH1 0x0 DUP1 RETURNDATACOPY RETURNDATASIZE PUSH1 0x0 REVERT JUMPDEST POP POP POP POP PUSH1 0x40 MLOAD RETURNDATASIZE PUSH1 0x1F NOT PUSH1 0x1F DUP3 ADD AND DUP3 ADD DUP1 PUSH1 0x40 MSTORE POP DUP2 ADD SWAP1 PUSH2 0x171F SWAP2 SWAP1 PUSH2 0x3406 JUMP JUMPDEST POP PUSH2 0x1760 PUSH2 0x174D DUP5 PUSH2 0x173F PUSH5 0xE8D4A51000 DUP6 PUSH2 0x2910 SWAP1 SWAP2 SWAP1 PUSH4 0xFFFFFFFF AND JUMP JUMPDEST PUSH2 0x298B SWAP1 SWAP2 SWAP1 PUSH4 0xFFFFFFFF AND JUMP JUMPDEST DUP6 PUSH1 0x3 ADD SLOAD PUSH2 0x2CCA SWAP1 SWAP2 SWAP1 PUSH4 0xFFFFFFFF AND JUMP JUMPDEST DUP5 PUSH1 0x3 ADD DUP2 SWAP1 SSTORE POP NUMBER DUP5 PUSH1 0x2 ADD DUP2 SWAP1 SSTORE POP POP POP POP POP JUMPDEST POP JUMP JUMPDEST PUSH1 0x0 PUSH1 0x6 DUP3 DUP2 SLOAD DUP2 LT PUSH2 0x178F JUMPI PUSH2 0x178E PUSH2 0x3FBB JUMP JUMPDEST JUMPDEST SWAP1 PUSH1 0x0 MSTORE PUSH1 0x20 PUSH1 0x0 KECCAK256 SWAP1 PUSH1 0x8 MUL ADD SWAP1 POP PUSH1 0x0 PUSH1 0x7 PUSH1 0x0 DUP5 DUP2 MSTORE PUSH1 0x20 ADD SWAP1 DUP2 MSTORE PUSH1 0x20 ADD PUSH1 0x0 KECCAK256 PUSH1 0x0 CALLER PUSH20 0xFFFFFFFFFFFFFFFFFFFFFFFFFFFFFFFFFFFFFFFF AND PUSH20 0xFFFFFFFFFFFFFFFFFFFFFFFFFFFFFFFFFFFFFFFF AND DUP2 MSTORE PUSH1 0x20 ADD SWAP1 DUP2 MSTORE PUSH1 0x20 ADD PUSH1 0x0 KECCAK256 SWAP1 POP PUSH2 0x1846 CALLER DUP3 PUSH1 0x0 ADD SLOAD DUP5 PUSH1 0x0 ADD PUSH1 0x0 SWAP1 SLOAD SWAP1 PUSH2 0x100 EXP SWAP1 DIV PUSH20 0xFFFFFFFFFFFFFFFFFFFFFFFFFFFFFFFFFFFFFFFF AND PUSH20 0xFFFFFFFFFFFFFFFFFFFFFFFFFFFFFFFFFFFFFFFF AND PUSH2 0x2D28 SWAP1 SWAP3 SWAP2 SWAP1 PUSH4 0xFFFFFFFF AND JUMP JUMPDEST DUP3 CALLER PUSH20 0xFFFFFFFFFFFFFFFFFFFFFFFFFFFFFFFFFFFFFFFF AND PUSH32 0xBB757047C2B5F3974FE26B7C10F732E7BCE710B0952A71082702781E62AE0595 DUP4 PUSH1 0x0 ADD SLOAD PUSH1 0x40 MLOAD PUSH2 0x1891 SWAP2 SWAP1 PUSH2 0x3C43 JUMP JUMPDEST PUSH1 0x40 MLOAD DUP1 SWAP2 SUB SWAP1 LOG3 PUSH1 0x0 DUP2 PUSH1 0x0 ADD DUP2 SWAP1 SSTORE POP PUSH1 0x0 DUP2 PUSH1 0x1 ADD DUP2 SWAP1 SSTORE POP POP POP POP JUMP JUMPDEST PUSH2 0x18BA PUSH2 0x2DAE JUMP JUMPDEST PUSH20 0xFFFFFFFFFFFFFFFFFFFFFFFFFFFFFFFFFFFFFFFF AND PUSH2 0x18D8 PUSH2 0x1E41 JUMP JUMPDEST PUSH20 0xFFFFFFFFFFFFFFFFFFFFFFFFFFFFFFFFFFFFFFFF AND EQ PUSH2 0x192E JUMPI PUSH1 0x40 MLOAD PUSH32 0x8C379A000000000000000000000000000000000000000000000000000000000 DUP2 MSTORE PUSH1 0x4 ADD PUSH2 0x1925 SWAP1 PUSH2 0x3B63 JUMP JUMPDEST PUSH1 0x40 MLOAD DUP1 SWAP2 SUB SWAP1 REVERT JUMPDEST DUP1 PUSH1 0x4 DUP2 SWAP1 SSTORE POP POP JUMP JUMPDEST PUSH2 0x1940 PUSH2 0x2DAE JUMP JUMPDEST PUSH20 0xFFFFFFFFFFFFFFFFFFFFFFFFFFFFFFFFFFFFFFFF AND PUSH2 0x195E PUSH2 0x1E41 JUMP JUMPDEST PUSH20 0xFFFFFFFFFFFFFFFFFFFFFFFFFFFFFFFFFFFFFFFF AND EQ PUSH2 0x19B4 JUMPI PUSH1 0x40 MLOAD PUSH32 0x8C379A000000000000000000000000000000000000000000000000000000000 DUP2 MSTORE PUSH1 0x4 ADD PUSH2 0x19AB SWAP1 PUSH2 0x3B63 JUMP JUMPDEST PUSH1 0x40 MLOAD DUP1 SWAP2 SUB SWAP1 REVERT JUMPDEST DUP1 PUSH1 0x3 DUP2 SWAP1 SSTORE POP POP JUMP JUMPDEST PUSH1 0x0 PUSH1 0x6 DUP1 SLOAD SWAP1 POP SWAP1 POP PUSH1 0x0 JUMPDEST DUP2 DUP2 LT ISZERO PUSH2 0x19ED JUMPI PUSH2 0x19DC DUP2 PUSH2 0x15B4 JUMP JUMPDEST DUP1 PUSH2 0x19E6 SWAP1 PUSH2 0x3F14 JUMP JUMPDEST SWAP1 POP PUSH2 0x19CB JUMP JUMPDEST POP POP JUMP JUMPDEST PUSH2 0x19F9 PUSH2 0x2DAE JUMP JUMPDEST PUSH20 0xFFFFFFFFFFFFFFFFFFFFFFFFFFFFFFFFFFFFFFFF AND PUSH2 0x1A17 PUSH2 0x1E41 JUMP JUMPDEST PUSH20 0xFFFFFFFFFFFFFFFFFFFFFFFFFFFFFFFFFFFFFFFF AND EQ PUSH2 0x1A6D JUMPI PUSH1 0x40 MLOAD PUSH32 0x8C379A000000000000000000000000000000000000000000000000000000000 DUP2 MSTORE PUSH1 0x4 ADD PUSH2 0x1A64 SWAP1 PUSH2 0x3B63 JUMP JUMPDEST PUSH1 0x40 MLOAD DUP1 SWAP2 SUB SWAP1 REVERT JUMPDEST DUP1 ISZERO PUSH2 0x1A7C JUMPI PUSH2 0x1A7B PUSH2 0x19BE JUMP JUMPDEST JUMPDEST PUSH2 0x1AC8 DUP3 PUSH2 0x1ABA PUSH1 0x6 DUP7 DUP2 SLOAD DUP2 LT PUSH2 0x1A97 JUMPI PUSH2 0x1A96 PUSH2 0x3FBB JUMP JUMPDEST JUMPDEST SWAP1 PUSH1 0x0 MSTORE PUSH1 0x20 PUSH1 0x0 KECCAK256 SWAP1 PUSH1 0x8 MUL ADD PUSH1 0x1 ADD SLOAD PUSH1 0x8 SLOAD PUSH2 0x29D5 SWAP1 SWAP2 SWAP1 PUSH4 0xFFFFFFFF AND JUMP JUMPDEST PUSH2 0x2CCA SWAP1 SWAP2 SWAP1 PUSH4 0xFFFFFFFF AND JUMP JUMPDEST PUSH1 0x8 DUP2 SWAP1 SSTORE POP DUP2 PUSH1 0x6 DUP5 DUP2 SLOAD DUP2 LT PUSH2 0x1AE3 JUMPI PUSH2 0x1AE2 PUSH2 0x3FBB JUMP JUMPDEST JUMPDEST SWAP1 PUSH1 0x0 MSTORE PUSH1 0x20 PUSH1 0x0 KECCAK256 SWAP1 PUSH1 0x8 MUL ADD PUSH1 0x1 ADD DUP2 SWAP1 SSTORE POP POP POP POP JUMP JUMPDEST PUSH2 0x1B05 PUSH2 0x2DAE JUMP JUMPDEST PUSH20 0xFFFFFFFFFFFFFFFFFFFFFFFFFFFFFFFFFFFFFFFF AND PUSH2 0x1B23 PUSH2 0x1E41 JUMP JUMPDEST PUSH20 0xFFFFFFFFFFFFFFFFFFFFFFFFFFFFFFFFFFFFFFFF AND EQ PUSH2 0x1B79 JUMPI PUSH1 0x40 MLOAD PUSH32 0x8C379A000000000000000000000000000000000000000000000000000000000 DUP2 MSTORE PUSH1 0x4 ADD PUSH2 0x1B70 SWAP1 PUSH2 0x3B63 JUMP JUMPDEST PUSH1 0x40 MLOAD DUP1 SWAP2 SUB SWAP1 REVERT JUMPDEST DUP5 ISZERO PUSH2 0x1B88 JUMPI PUSH2 0x1B87 PUSH2 0x19BE JUMP JUMPDEST JUMPDEST PUSH1 0x0 PUSH1 0x9 SLOAD NUMBER GT PUSH2 0x1B9B JUMPI PUSH1 0x9 SLOAD PUSH2 0x1B9D JUMP JUMPDEST NUMBER JUMPDEST SWAP1 POP PUSH2 0x1BB4 DUP9 PUSH1 0x8 SLOAD PUSH2 0x2CCA SWAP1 SWAP2 SWAP1 PUSH4 0xFFFFFFFF AND JUMP JUMPDEST PUSH1 0x8 DUP2 SWAP1 SSTORE POP PUSH1 0x6 PUSH1 0x40 MLOAD DUP1 PUSH2 0x100 ADD PUSH1 0x40 MSTORE DUP1 DUP10 PUSH20 0xFFFFFFFFFFFFFFFFFFFFFFFFFFFFFFFFFFFFFFFF AND DUP2 MSTORE PUSH1 0x20 ADD DUP11 DUP2 MSTORE PUSH1 0x20 ADD DUP4 DUP2 MSTORE PUSH1 0x20 ADD PUSH1 0x0 DUP2 MSTORE PUSH1 0x20 ADD DUP8 PUSH20 0xFFFFFFFFFFFFFFFFFFFFFFFFFFFFFFFFFFFFFFFF AND DUP2 MSTORE PUSH1 0x20 ADD DUP7 PUSH20 0xFFFFFFFFFFFFFFFFFFFFFFFFFFFFFFFFFFFFFFFF AND DUP2 MSTORE PUSH1 0x20 ADD DUP6 DUP2 MSTORE PUSH1 0x20 ADD DUP5 DUP2 MSTORE POP SWAP1 DUP1 PUSH1 0x1 DUP2 SLOAD ADD DUP1 DUP3 SSTORE DUP1 SWAP2 POP POP PUSH1 0x1 SWAP1 SUB SWAP1 PUSH1 0x0 MSTORE PUSH1 0x20 PUSH1 0x0 KECCAK256 SWAP1 PUSH1 0x8 MUL ADD PUSH1 0x0 SWAP1 SWAP2 SWAP1 SWAP2 SWAP1 SWAP2 POP PUSH1 0x0 DUP3 ADD MLOAD DUP2 PUSH1 0x0 ADD PUSH1 0x0 PUSH2 0x100 EXP DUP2 SLOAD DUP2 PUSH20 0xFFFFFFFFFFFFFFFFFFFFFFFFFFFFFFFFFFFFFFFF MUL NOT AND SWAP1 DUP4 PUSH20 0xFFFFFFFFFFFFFFFFFFFFFFFFFFFFFFFFFFFFFFFF AND MUL OR SWAP1 SSTORE POP PUSH1 0x20 DUP3 ADD MLOAD DUP2 PUSH1 0x1 ADD SSTORE PUSH1 0x40 DUP3 ADD MLOAD DUP2 PUSH1 0x2 ADD SSTORE PUSH1 0x60 DUP3 ADD MLOAD DUP2 PUSH1 0x3 ADD SSTORE PUSH1 0x80 DUP3 ADD MLOAD DUP2 PUSH1 0x4 ADD PUSH1 0x0 PUSH2 0x100 EXP DUP2 SLOAD DUP2 PUSH20 0xFFFFFFFFFFFFFFFFFFFFFFFFFFFFFFFFFFFFFFFF MUL NOT AND SWAP1 DUP4 PUSH20 0xFFFFFFFFFFFFFFFFFFFFFFFFFFFFFFFFFFFFFFFF AND MUL OR SWAP1 SSTORE POP PUSH1 0xA0 DUP3 ADD MLOAD DUP2 PUSH1 0x5 ADD PUSH1 0x0 PUSH2 0x100 EXP DUP2 SLOAD DUP2 PUSH20 0xFFFFFFFFFFFFFFFFFFFFFFFFFFFFFFFFFFFFFFFF MUL NOT AND SWAP1 DUP4 PUSH20 0xFFFFFFFFFFFFFFFFFFFFFFFFFFFFFFFFFFFFFFFF AND MUL OR SWAP1 SSTORE POP PUSH1 0xC0 DUP3 ADD MLOAD DUP2 PUSH1 0x6 ADD SSTORE PUSH1 0xE0 DUP3 ADD MLOAD DUP2 PUSH1 0x7 ADD SSTORE POP POP POP POP POP POP POP POP POP POP JUMP JUMPDEST PUSH1 0xA PUSH1 0x20 MSTORE DUP1 PUSH1 0x0 MSTORE PUSH1 0x40 PUSH1 0x0 KECCAK256 PUSH1 0x0 SWAP2 POP SWAP1 POP SLOAD DUP2 JUMP JUMPDEST PUSH2 0x1D95 PUSH2 0x2DAE JUMP JUMPDEST PUSH20 0xFFFFFFFFFFFFFFFFFFFFFFFFFFFFFFFFFFFFFFFF AND PUSH2 0x1DB3 PUSH2 0x1E41 JUMP JUMPDEST PUSH20 0xFFFFFFFFFFFFFFFFFFFFFFFFFFFFFFFFFFFFFFFF AND EQ PUSH2 0x1E09 JUMPI PUSH1 0x40 MLOAD PUSH32 0x8C379A000000000000000000000000000000000000000000000000000000000 DUP2 MSTORE PUSH1 0x4 ADD PUSH2 0x1E00 SWAP1 PUSH2 0x3B63 JUMP JUMPDEST PUSH1 0x40 MLOAD DUP1 SWAP2 SUB SWAP1 REVERT JUMPDEST PUSH2 0x1E13 PUSH1 0x0 PUSH2 0x2F14 JUMP JUMPDEST JUMP JUMPDEST PUSH1 0x5 PUSH1 0x0 SWAP1 SLOAD SWAP1 PUSH2 0x100 EXP SWAP1 DIV PUSH20 0xFFFFFFFFFFFFFFFFFFFFFFFFFFFFFFFFFFFFFFFF AND DUP2 JUMP JUMPDEST PUSH1 0x4 SLOAD DUP2 JUMP JUMPDEST PUSH1 0x0 DUP1 PUSH1 0x0 SWAP1 SLOAD SWAP1 PUSH2 0x100 EXP SWAP1 DIV PUSH20 0xFFFFFFFFFFFFFFFFFFFFFFFFFFFFFFFFFFFFFFFF AND SWAP1 POP SWAP1 JUMP JUMPDEST PUSH1 0x0 PUSH2 0x1E93 PUSH1 0x4 SLOAD PUSH2 0x1E85 DUP6 DUP6 PUSH2 0x29D5 SWAP1 SWAP2 SWAP1 PUSH4 0xFFFFFFFF AND JUMP JUMPDEST PUSH2 0x2910 SWAP1 SWAP2 SWAP1 PUSH4 0xFFFFFFFF AND JUMP JUMPDEST SWAP1 POP SWAP3 SWAP2 POP POP JUMP JUMPDEST PUSH1 0x7 PUSH1 0x20 MSTORE DUP2 PUSH1 0x0 MSTORE PUSH1 0x40 PUSH1 0x0 KECCAK256 PUSH1 0x20 MSTORE DUP1 PUSH1 0x0 MSTORE PUSH1 0x40 PUSH1 0x0 KECCAK256 PUSH1 0x0 SWAP2 POP SWAP2 POP POP DUP1 PUSH1 0x0 ADD SLOAD SWAP1 DUP1 PUSH1 0x1 ADD SLOAD SWAP1 POP DUP3 JUMP JUMPDEST PUSH1 0x0 PUSH1 0x6 DUP5 DUP2 SLOAD DUP2 LT PUSH2 0x1EE2 JUMPI PUSH2 0x1EE1 PUSH2 0x3FBB JUMP JUMPDEST JUMPDEST SWAP1 PUSH1 0x0 MSTORE PUSH1 0x20 PUSH1 0x0 KECCAK256 SWAP1 PUSH1 0x8 MUL ADD SWAP1 POP PUSH1 0x0 PUSH1 0x7 PUSH1 0x0 DUP7 DUP2 MSTORE PUSH1 0x20 ADD SWAP1 DUP2 MSTORE PUSH1 0x20 ADD PUSH1 0x0 KECCAK256 PUSH1 0x0 CALLER PUSH20 0xFFFFFFFFFFFFFFFFFFFFFFFFFFFFFFFFFFFFFFFF AND PUSH20 0xFFFFFFFFFFFFFFFFFFFFFFFFFFFFFFFFFFFFFFFF AND DUP2 MSTORE PUSH1 0x20 ADD SWAP1 DUP2 MSTORE PUSH1 0x20 ADD PUSH1 0x0 KECCAK256 SWAP1 POP DUP3 DUP2 PUSH1 0x0 ADD SLOAD LT ISZERO PUSH2 0x1F8D JUMPI PUSH1 0x40 MLOAD PUSH32 0x8C379A000000000000000000000000000000000000000000000000000000000 DUP2 MSTORE PUSH1 0x4 ADD PUSH2 0x1F84 SWAP1 PUSH2 0x3BA3 JUMP JUMPDEST PUSH1 0x40 MLOAD DUP1 SWAP2 SUB SWAP1 REVERT JUMPDEST PUSH2 0x1F96 DUP6 PUSH2 0x15B4 JUMP JUMPDEST PUSH1 0x0 PUSH2 0x1FE0 DUP3 PUSH1 0x1 ADD SLOAD PUSH2 0x1FD2 PUSH5 0xE8D4A51000 PUSH2 0x1FC4 DUP8 PUSH1 0x3 ADD SLOAD DUP8 PUSH1 0x0 ADD SLOAD PUSH2 0x2910 SWAP1 SWAP2 SWAP1 PUSH4 0xFFFFFFFF AND JUMP JUMPDEST PUSH2 0x298B SWAP1 SWAP2 SWAP1 PUSH4 0xFFFFFFFF AND JUMP JUMPDEST PUSH2 0x29D5 SWAP1 SWAP2 SWAP1 PUSH4 0xFFFFFFFF AND JUMP JUMPDEST SWAP1 POP PUSH1 0x0 DUP2 GT ISZERO PUSH2 0x1FF6 JUMPI PUSH2 0x1FF5 CALLER DUP3 PUSH2 0x2A1F JUMP JUMPDEST JUMPDEST PUSH2 0x200D DUP5 DUP4 PUSH1 0x0 ADD SLOAD PUSH2 0x29D5 SWAP1 SWAP2 SWAP1 PUSH4 0xFFFFFFFF AND JUMP JUMPDEST DUP3 PUSH1 0x0 ADD DUP2 SWAP1 SSTORE POP PUSH2 0x203B DUP5 PUSH1 0xA PUSH1 0x0 DUP10 DUP2 MSTORE PUSH1 0x20 ADD SWAP1 DUP2 MSTORE PUSH1 0x20 ADD PUSH1 0x0 KECCAK256 SLOAD PUSH2 0x29D5 SWAP1 SWAP2 SWAP1 PUSH4 0xFFFFFFFF AND JUMP JUMPDEST PUSH1 0xA PUSH1 0x0 DUP9 DUP2 MSTORE PUSH1 0x20 ADD SWAP1 DUP2 MSTORE PUSH1 0x20 ADD PUSH1 0x0 KECCAK256 DUP2 SWAP1 SSTORE POP PUSH2 0x2084 PUSH5 0xE8D4A51000 PUSH2 0x2076 DUP6 PUSH1 0x3 ADD SLOAD DUP6 PUSH1 0x0 ADD SLOAD PUSH2 0x2910 SWAP1 SWAP2 SWAP1 PUSH4 0xFFFFFFFF AND JUMP JUMPDEST PUSH2 0x298B SWAP1 SWAP2 SWAP1 PUSH4 0xFFFFFFFF AND JUMP JUMPDEST DUP3 PUSH1 0x1 ADD DUP2 SWAP1 SSTORE POP PUSH1 0x0 DUP4 PUSH1 0x7 ADD SLOAD EQ ISZERO PUSH2 0x212D JUMPI DUP3 PUSH1 0x4 ADD PUSH1 0x0 SWAP1 SLOAD SWAP1 PUSH2 0x100 EXP SWAP1 DIV PUSH20 0xFFFFFFFFFFFFFFFFFFFFFFFFFFFFFFFFFFFFFFFF AND PUSH20 0xFFFFFFFFFFFFFFFFFFFFFFFFFFFFFFFFFFFFFFFF AND PUSH4 0x1058D281 DUP6 PUSH1 0x40 MLOAD DUP3 PUSH4 0xFFFFFFFF AND PUSH1 0xE0 SHL DUP2 MSTORE PUSH1 0x4 ADD PUSH2 0x20F6 SWAP2 SWAP1 PUSH2 0x3C43 JUMP JUMPDEST PUSH1 0x0 PUSH1 0x40 MLOAD DUP1 DUP4 SUB DUP2 PUSH1 0x0 DUP8 DUP1 EXTCODESIZE ISZERO DUP1 ISZERO PUSH2 0x2110 JUMPI PUSH1 0x0 DUP1 REVERT JUMPDEST POP GAS CALL ISZERO DUP1 ISZERO PUSH2 0x2124 JUMPI RETURNDATASIZE PUSH1 0x0 DUP1 RETURNDATACOPY RETURNDATASIZE PUSH1 0x0 REVERT JUMPDEST POP POP POP POP PUSH2 0x21BF JUMP JUMPDEST DUP3 PUSH1 0x4 ADD PUSH1 0x0 SWAP1 SLOAD SWAP1 PUSH2 0x100 EXP SWAP1 DIV PUSH20 0xFFFFFFFFFFFFFFFFFFFFFFFFFFFFFFFFFFFFFFFF AND PUSH20 0xFFFFFFFFFFFFFFFFFFFFFFFFFFFFFFFFFFFFFFFF AND PUSH4 0x441A3E70 DUP7 DUP7 PUSH1 0x40 MLOAD DUP4 PUSH4 0xFFFFFFFF AND PUSH1 0xE0 SHL DUP2 MSTORE PUSH1 0x4 ADD PUSH2 0x218C SWAP3 SWAP2 SWAP1 PUSH2 0x3C87 JUMP JUMPDEST PUSH1 0x0 PUSH1 0x40 MLOAD DUP1 DUP4 SUB DUP2 PUSH1 0x0 DUP8 DUP1 EXTCODESIZE ISZERO DUP1 ISZERO PUSH2 0x21A6 JUMPI PUSH1 0x0 DUP1 REVERT JUMPDEST POP GAS CALL ISZERO DUP1 ISZERO PUSH2 0x21BA JUMPI RETURNDATASIZE PUSH1 0x0 DUP1 RETURNDATACOPY RETURNDATASIZE PUSH1 0x0 REVERT JUMPDEST POP POP POP POP JUMPDEST PUSH2 0x220E CALLER DUP6 DUP6 PUSH1 0x0 ADD PUSH1 0x0 SWAP1 SLOAD SWAP1 PUSH2 0x100 EXP SWAP1 DIV PUSH20 0xFFFFFFFFFFFFFFFFFFFFFFFFFFFFFFFFFFFFFFFF AND PUSH20 0xFFFFFFFFFFFFFFFFFFFFFFFFFFFFFFFFFFFFFFFF AND PUSH2 0x2D28 SWAP1 SWAP3 SWAP2 SWAP1 PUSH4 0xFFFFFFFF AND JUMP JUMPDEST PUSH1 0x0 DUP4 PUSH1 0x5 ADD PUSH1 0x0 SWAP1 SLOAD SWAP1 PUSH2 0x100 EXP SWAP1 DIV PUSH20 0xFFFFFFFFFFFFFFFFFFFFFFFFFFFFFFFFFFFFFFFF AND PUSH20 0xFFFFFFFFFFFFFFFFFFFFFFFFFFFFFFFFFFFFFFFF AND PUSH4 0x70A08231 ADDRESS PUSH1 0x40 MLOAD DUP3 PUSH4 0xFFFFFFFF AND PUSH1 0xE0 SHL DUP2 MSTORE PUSH1 0x4 ADD PUSH2 0x226D SWAP2 SWAP1 PUSH2 0x392E JUMP JUMPDEST PUSH1 0x20 PUSH1 0x40 MLOAD DUP1 DUP4 SUB DUP2 DUP7 DUP1 EXTCODESIZE ISZERO DUP1 ISZERO PUSH2 0x2285 JUMPI PUSH1 0x0 DUP1 REVERT JUMPDEST POP GAS STATICCALL ISZERO DUP1 ISZERO PUSH2 0x2299 JUMPI RETURNDATASIZE PUSH1 0x0 DUP1 RETURNDATACOPY RETURNDATASIZE PUSH1 0x0 REVERT JUMPDEST POP POP POP POP PUSH1 0x40 MLOAD RETURNDATASIZE PUSH1 0x1F NOT PUSH1 0x1F DUP3 ADD AND DUP3 ADD DUP1 PUSH1 0x40 MSTORE POP DUP2 ADD SWAP1 PUSH2 0x22BD SWAP2 SWAP1 PUSH2 0x34BA JUMP JUMPDEST SWAP1 POP PUSH1 0x0 DUP2 GT ISZERO PUSH2 0x233A JUMPI PUSH2 0x2339 PUSH1 0x2 PUSH1 0x0 SWAP1 SLOAD SWAP1 PUSH2 0x100 EXP SWAP1 DIV PUSH20 0xFFFFFFFFFFFFFFFFFFFFFFFFFFFFFFFFFFFFFFFF AND DUP3 DUP7 PUSH1 0x5 ADD PUSH1 0x0 SWAP1 SLOAD SWAP1 PUSH2 0x100 EXP SWAP1 DIV PUSH20 0xFFFFFFFFFFFFFFFFFFFFFFFFFFFFFFFFFFFFFFFF AND PUSH20 0xFFFFFFFFFFFFFFFFFFFFFFFFFFFFFFFFFFFFFFFF AND PUSH2 0x2D28 SWAP1 SWAP3 SWAP2 SWAP1 PUSH4 0xFFFFFFFF AND JUMP JUMPDEST JUMPDEST DUP7 CALLER PUSH20 0xFFFFFFFFFFFFFFFFFFFFFFFFFFFFFFFFFFFFFFFF AND PUSH32 0xF279E6A1F5E320CCA91135676D9CB6E44CA8A08C0B88342BCDB1144F6511B568 DUP8 PUSH1 0x40 MLOAD PUSH2 0x2381 SWAP2 SWAP1 PUSH2 0x3C43 JUMP JUMPDEST PUSH1 0x40 MLOAD DUP1 SWAP2 SUB SWAP1 LOG3 POP POP POP POP POP POP POP JUMP JUMPDEST PUSH1 0x1 PUSH1 0x0 SWAP1 SLOAD SWAP1 PUSH2 0x100 EXP SWAP1 DIV PUSH20 0xFFFFFFFFFFFFFFFFFFFFFFFFFFFFFFFFFFFFFFFF AND DUP2 JUMP JUMPDEST PUSH1 0x0 DUP1 PUSH1 0x7 PUSH1 0x0 DUP6 DUP2 MSTORE PUSH1 0x20 ADD SWAP1 DUP2 MSTORE PUSH1 0x20 ADD PUSH1 0x0 KECCAK256 PUSH1 0x0 DUP5 PUSH20 0xFFFFFFFFFFFFFFFFFFFFFFFFFFFFFFFFFFFFFFFF AND PUSH20 0xFFFFFFFFFFFFFFFFFFFFFFFFFFFFFFFFFFFFFFFF AND DUP2 MSTORE PUSH1 0x20 ADD SWAP1 DUP2 MSTORE PUSH1 0x20 ADD PUSH1 0x0 KECCAK256 SWAP1 POP DUP1 PUSH1 0x0 ADD SLOAD SWAP2 POP POP SWAP3 SWAP2 POP POP JUMP JUMPDEST PUSH2 0x2423 PUSH2 0x2DAE JUMP JUMPDEST PUSH20 0xFFFFFFFFFFFFFFFFFFFFFFFFFFFFFFFFFFFFFFFF AND PUSH2 0x2441 PUSH2 0x1E41 JUMP JUMPDEST PUSH20 0xFFFFFFFFFFFFFFFFFFFFFFFFFFFFFFFFFFFFFFFF AND EQ PUSH2 0x2497 JUMPI PUSH1 0x40 MLOAD PUSH32 0x8C379A000000000000000000000000000000000000000000000000000000000 DUP2 MSTORE PUSH1 0x4 ADD PUSH2 0x248E SWAP1 PUSH2 0x3B63 JUMP JUMPDEST PUSH1 0x40 MLOAD DUP1 SWAP2 SUB SWAP1 REVERT JUMPDEST DUP1 PUSH1 0x2 PUSH1 0x0 PUSH2 0x100 EXP DUP2 SLOAD DUP2 PUSH20 0xFFFFFFFFFFFFFFFFFFFFFFFFFFFFFFFFFFFFFFFF MUL NOT AND SWAP1 DUP4 PUSH20 0xFFFFFFFFFFFFFFFFFFFFFFFFFFFFFFFFFFFFFFFF AND MUL OR SWAP1 SSTORE POP POP JUMP JUMPDEST PUSH2 0x24E3 PUSH2 0x2DAE JUMP JUMPDEST PUSH20 0xFFFFFFFFFFFFFFFFFFFFFFFFFFFFFFFFFFFFFFFF AND PUSH2 0x2501 PUSH2 0x1E41 JUMP JUMPDEST PUSH20 0xFFFFFFFFFFFFFFFFFFFFFFFFFFFFFFFFFFFFFFFF AND EQ PUSH2 0x2557 JUMPI PUSH1 0x40 MLOAD PUSH32 0x8C379A000000000000000000000000000000000000000000000000000000000 DUP2 MSTORE PUSH1 0x4 ADD PUSH2 0x254E SWAP1 PUSH2 0x3B63 JUMP JUMPDEST PUSH1 0x40 MLOAD DUP1 SWAP2 SUB SWAP1 REVERT JUMPDEST PUSH1 0x0 PUSH1 0x6 DUP3 DUP2 SLOAD DUP2 LT PUSH2 0x256D JUMPI PUSH2 0x256C PUSH2 0x3FBB JUMP JUMPDEST JUMPDEST SWAP1 PUSH1 0x0 MSTORE PUSH1 0x20 PUSH1 0x0 KECCAK256 SWAP1 PUSH1 0x8 MUL ADD SWAP1 POP DUP1 PUSH1 0x4 ADD PUSH1 0x0 SWAP1 SLOAD SWAP1 PUSH2 0x100 EXP SWAP1 DIV PUSH20 0xFFFFFFFFFFFFFFFFFFFFFFFFFFFFFFFFFFFFFFFF AND PUSH20 0xFFFFFFFFFFFFFFFFFFFFFFFFFFFFFFFFFFFFFFFF AND PUSH4 0x5312EA8E DUP4 PUSH1 0x40 MLOAD DUP3 PUSH4 0xFFFFFFFF AND PUSH1 0xE0 SHL DUP2 MSTORE PUSH1 0x4 ADD PUSH2 0x25DA SWAP2 SWAP1 PUSH2 0x3C43 JUMP JUMPDEST PUSH1 0x0 PUSH1 0x40 MLOAD DUP1 DUP4 SUB DUP2 PUSH1 0x0 DUP8 DUP1 EXTCODESIZE ISZERO DUP1 ISZERO PUSH2 0x25F4 JUMPI PUSH1 0x0 DUP1 REVERT JUMPDEST POP GAS CALL ISZERO DUP1 ISZERO PUSH2 0x2608 JUMPI RETURNDATASIZE PUSH1 0x0 DUP1 RETURNDATACOPY RETURNDATASIZE PUSH1 0x0 REVERT JUMPDEST POP POP POP POP POP POP JUMP JUMPDEST PUSH1 0x2 PUSH1 0x0 SWAP1 SLOAD SWAP1 PUSH2 0x100 EXP SWAP1 DIV PUSH20 0xFFFFFFFFFFFFFFFFFFFFFFFFFFFFFFFFFFFFFFFF AND DUP2 JUMP JUMPDEST PUSH1 0xD PUSH1 0x0 SWAP1 SLOAD SWAP1 PUSH2 0x100 EXP SWAP1 DIV PUSH20 0xFFFFFFFFFFFFFFFFFFFFFFFFFFFFFFFFFFFFFFFF AND DUP2 JUMP JUMPDEST PUSH1 0x0 PUSH1 0x6 DUP3 DUP2 SLOAD DUP2 LT PUSH2 0x2672 JUMPI PUSH2 0x2671 PUSH2 0x3FBB JUMP JUMPDEST JUMPDEST SWAP1 PUSH1 0x0 MSTORE PUSH1 0x20 PUSH1 0x0 KECCAK256 SWAP1 PUSH1 0x8 MUL ADD SWAP1 POP DUP1 PUSH1 0x0 ADD PUSH1 0x0 SWAP1 SLOAD SWAP1 PUSH2 0x100 EXP SWAP1 DIV PUSH20 0xFFFFFFFFFFFFFFFFFFFFFFFFFFFFFFFFFFFFFFFF AND PUSH20 0xFFFFFFFFFFFFFFFFFFFFFFFFFFFFFFFFFFFFFFFF AND PUSH4 0x95EA7B3 DUP3 PUSH1 0x4 ADD PUSH1 0x0 SWAP1 SLOAD SWAP1 PUSH2 0x100 EXP SWAP1 DIV PUSH20 0xFFFFFFFFFFFFFFFFFFFFFFFFFFFFFFFFFFFFFFFF AND PUSH1 0xB SLOAD PUSH1 0x40 MLOAD DUP4 PUSH4 0xFFFFFFFF AND PUSH1 0xE0 SHL DUP2 MSTORE PUSH1 0x4 ADD PUSH2 0x2707 SWAP3 SWAP2 SWAP1 PUSH2 0x39A9 JUMP JUMPDEST PUSH1 0x20 PUSH1 0x40 MLOAD DUP1 DUP4 SUB DUP2 PUSH1 0x0 DUP8 DUP1 EXTCODESIZE ISZERO DUP1 ISZERO PUSH2 0x2721 JUMPI PUSH1 0x0 DUP1 REVERT JUMPDEST POP GAS CALL ISZERO DUP1 ISZERO PUSH2 0x2735 JUMPI RETURNDATASIZE PUSH1 0x0 DUP1 RETURNDATACOPY RETURNDATASIZE PUSH1 0x0 REVERT JUMPDEST POP POP POP POP PUSH1 0x40 MLOAD RETURNDATASIZE PUSH1 0x1F NOT PUSH1 0x1F DUP3 ADD AND DUP3 ADD DUP1 PUSH1 0x40 MSTORE POP DUP2 ADD SWAP1 PUSH2 0x2759 SWAP2 SWAP1 PUSH2 0x3406 JUMP JUMPDEST POP DUP1 PUSH1 0x5 ADD PUSH1 0x0 SWAP1 SLOAD SWAP1 PUSH2 0x100 EXP SWAP1 DIV PUSH20 0xFFFFFFFFFFFFFFFFFFFFFFFFFFFFFFFFFFFFFFFF AND PUSH20 0xFFFFFFFFFFFFFFFFFFFFFFFFFFFFFFFFFFFFFFFF AND PUSH4 0x95EA7B3 ADDRESS PUSH1 0xB SLOAD PUSH1 0x40 MLOAD DUP4 PUSH4 0xFFFFFFFF AND PUSH1 0xE0 SHL DUP2 MSTORE PUSH1 0x4 ADD PUSH2 0x27BB SWAP3 SWAP2 SWAP1 PUSH2 0x39A9 JUMP JUMPDEST PUSH1 0x20 PUSH1 0x40 MLOAD DUP1 DUP4 SUB DUP2 PUSH1 0x0 DUP8 DUP1 EXTCODESIZE ISZERO DUP1 ISZERO PUSH2 0x27D5 JUMPI PUSH1 0x0 DUP1 REVERT JUMPDEST POP GAS CALL ISZERO DUP1 ISZERO PUSH2 0x27E9 JUMPI RETURNDATASIZE PUSH1 0x0 DUP1 RETURNDATACOPY RETURNDATASIZE PUSH1 0x0 REVERT JUMPDEST POP POP POP POP PUSH1 0x40 MLOAD RETURNDATASIZE PUSH1 0x1F NOT PUSH1 0x1F DUP3 ADD AND DUP3 ADD DUP1 PUSH1 0x40 MSTORE POP DUP2 ADD SWAP1 PUSH2 0x280D SWAP2 SWAP1 PUSH2 0x3406 JUMP JUMPDEST POP POP POP JUMP JUMPDEST PUSH2 0x281A PUSH2 0x2DAE JUMP JUMPDEST PUSH20 0xFFFFFFFFFFFFFFFFFFFFFFFFFFFFFFFFFFFFFFFF AND PUSH2 0x2838 PUSH2 0x1E41 JUMP JUMPDEST PUSH20 0xFFFFFFFFFFFFFFFFFFFFFFFFFFFFFFFFFFFFFFFF AND EQ PUSH2 0x288E JUMPI PUSH1 0x40 MLOAD PUSH32 0x8C379A000000000000000000000000000000000000000000000000000000000 DUP2 MSTORE PUSH1 0x4 ADD PUSH2 0x2885 SWAP1 PUSH2 0x3B63 JUMP JUMPDEST PUSH1 0x40 MLOAD DUP1 SWAP2 SUB SWAP1 REVERT JUMPDEST PUSH1 0x0 PUSH20 0xFFFFFFFFFFFFFFFFFFFFFFFFFFFFFFFFFFFFFFFF AND DUP2 PUSH20 0xFFFFFFFFFFFFFFFFFFFFFFFFFFFFFFFFFFFFFFFF AND EQ ISZERO PUSH2 0x28FE JUMPI PUSH1 0x40 MLOAD PUSH32 0x8C379A000000000000000000000000000000000000000000000000000000000 DUP2 MSTORE PUSH1 0x4 ADD PUSH2 0x28F5 SWAP1 PUSH2 0x3AC3 JUMP JUMPDEST PUSH1 0x40 MLOAD DUP1 SWAP2 SUB SWAP1 REVERT JUMPDEST PUSH2 0x2907 DUP2 PUSH2 0x2F14 JUMP JUMPDEST POP JUMP JUMPDEST PUSH1 0x3 SLOAD DUP2 JUMP JUMPDEST PUSH1 0x0 DUP1 DUP4 EQ ISZERO PUSH2 0x2923 JUMPI PUSH1 0x0 SWAP1 POP PUSH2 0x2985 JUMP JUMPDEST PUSH1 0x0 DUP3 DUP5 PUSH2 0x2931 SWAP2 SWAP1 PUSH2 0x3D69 JUMP JUMPDEST SWAP1 POP DUP3 DUP5 DUP3 PUSH2 0x2940 SWAP2 SWAP1 PUSH2 0x3D38 JUMP JUMPDEST EQ PUSH2 0x2980 JUMPI PUSH1 0x40 MLOAD PUSH32 0x8C379A000000000000000000000000000000000000000000000000000000000 DUP2 MSTORE PUSH1 0x4 ADD PUSH2 0x2977 SWAP1 PUSH2 0x3B43 JUMP JUMPDEST PUSH1 0x40 MLOAD DUP1 SWAP2 SUB SWAP1 REVERT JUMPDEST DUP1 SWAP2 POP POP JUMPDEST SWAP3 SWAP2 POP POP JUMP JUMPDEST PUSH1 0x0 PUSH2 0x29CD DUP4 DUP4 PUSH1 0x40 MLOAD DUP1 PUSH1 0x40 ADD PUSH1 0x40 MSTORE DUP1 PUSH1 0x1A DUP2 MSTORE PUSH1 0x20 ADD PUSH32 0x536166654D6174683A206469766973696F6E206279207A65726F000000000000 DUP2 MSTORE POP PUSH2 0x2FD8 JUMP JUMPDEST SWAP1 POP SWAP3 SWAP2 POP POP JUMP JUMPDEST PUSH1 0x0 PUSH2 0x2A17 DUP4 DUP4 PUSH1 0x40 MLOAD DUP1 PUSH1 0x40 ADD PUSH1 0x40 MSTORE DUP1 PUSH1 0x1E DUP2 MSTORE PUSH1 0x20 ADD PUSH32 0x536166654D6174683A207375627472616374696F6E206F766572666C6F770000 DUP2 MSTORE POP PUSH2 0x303B JUMP JUMPDEST SWAP1 POP SWAP3 SWAP2 POP POP JUMP JUMPDEST PUSH1 0x0 PUSH1 0x1 PUSH1 0x0 SWAP1 SLOAD SWAP1 PUSH2 0x100 EXP SWAP1 DIV PUSH20 0xFFFFFFFFFFFFFFFFFFFFFFFFFFFFFFFFFFFFFFFF AND PUSH20 0xFFFFFFFFFFFFFFFFFFFFFFFFFFFFFFFFFFFFFFFF AND PUSH4 0x70A08231 ADDRESS PUSH1 0x40 MLOAD DUP3 PUSH4 0xFFFFFFFF AND PUSH1 0xE0 SHL DUP2 MSTORE PUSH1 0x4 ADD PUSH2 0x2A7C SWAP2 SWAP1 PUSH2 0x392E JUMP JUMPDEST PUSH1 0x20 PUSH1 0x40 MLOAD DUP1 DUP4 SUB DUP2 DUP7 DUP1 EXTCODESIZE ISZERO DUP1 ISZERO PUSH2 0x2A94 JUMPI PUSH1 0x0 DUP1 REVERT JUMPDEST POP GAS STATICCALL ISZERO DUP1 ISZERO PUSH2 0x2AA8 JUMPI RETURNDATASIZE PUSH1 0x0 DUP1 RETURNDATACOPY RETURNDATASIZE PUSH1 0x0 REVERT JUMPDEST POP POP POP POP PUSH1 0x40 MLOAD RETURNDATASIZE PUSH1 0x1F NOT PUSH1 0x1F DUP3 ADD AND DUP3 ADD DUP1 PUSH1 0x40 MSTORE POP DUP2 ADD SWAP1 PUSH2 0x2ACC SWAP2 SWAP1 PUSH2 0x34BA JUMP JUMPDEST SWAP1 POP DUP1 DUP3 GT ISZERO PUSH2 0x2B8B JUMPI PUSH1 0x1 PUSH1 0x0 SWAP1 SLOAD SWAP1 PUSH2 0x100 EXP SWAP1 DIV PUSH20 0xFFFFFFFFFFFFFFFFFFFFFFFFFFFFFFFFFFFFFFFF AND PUSH20 0xFFFFFFFFFFFFFFFFFFFFFFFFFFFFFFFFFFFFFFFF AND PUSH4 0xA9059CBB DUP5 DUP4 PUSH1 0x40 MLOAD DUP4 PUSH4 0xFFFFFFFF AND PUSH1 0xE0 SHL DUP2 MSTORE PUSH1 0x4 ADD PUSH2 0x2B33 SWAP3 SWAP2 SWAP1 PUSH2 0x39A9 JUMP JUMPDEST PUSH1 0x20 PUSH1 0x40 MLOAD DUP1 DUP4 SUB DUP2 PUSH1 0x0 DUP8 DUP1 EXTCODESIZE ISZERO DUP1 ISZERO PUSH2 0x2B4D JUMPI PUSH1 0x0 DUP1 REVERT JUMPDEST POP GAS CALL ISZERO DUP1 ISZERO PUSH2 0x2B61 JUMPI RETURNDATASIZE PUSH1 0x0 DUP1 RETURNDATACOPY RETURNDATASIZE PUSH1 0x0 REVERT JUMPDEST POP POP POP POP PUSH1 0x40 MLOAD RETURNDATASIZE PUSH1 0x1F NOT PUSH1 0x1F DUP3 ADD AND DUP3 ADD DUP1 PUSH1 0x40 MSTORE POP DUP2 ADD SWAP1 PUSH2 0x2B85 SWAP2 SWAP1 PUSH2 0x3406 JUMP JUMPDEST POP PUSH2 0x2C3C JUMP JUMPDEST PUSH1 0x1 PUSH1 0x0 SWAP1 SLOAD SWAP1 PUSH2 0x100 EXP SWAP1 DIV PUSH20 0xFFFFFFFFFFFFFFFFFFFFFFFFFFFFFFFFFFFFFFFF AND PUSH20 0xFFFFFFFFFFFFFFFFFFFFFFFFFFFFFFFFFFFFFFFF AND PUSH4 0xA9059CBB DUP5 DUP5 PUSH1 0x40 MLOAD DUP4 PUSH4 0xFFFFFFFF AND PUSH1 0xE0 SHL DUP2 MSTORE PUSH1 0x4 ADD PUSH2 0x2BE8 SWAP3 SWAP2 SWAP1 PUSH2 0x39A9 JUMP JUMPDEST PUSH1 0x20 PUSH1 0x40 MLOAD DUP1 DUP4 SUB DUP2 PUSH1 0x0 DUP8 DUP1 EXTCODESIZE ISZERO DUP1 ISZERO PUSH2 0x2C02 JUMPI PUSH1 0x0 DUP1 REVERT JUMPDEST POP GAS CALL ISZERO DUP1 ISZERO PUSH2 0x2C16 JUMPI RETURNDATASIZE PUSH1 0x0 DUP1 RETURNDATACOPY RETURNDATASIZE PUSH1 0x0 REVERT JUMPDEST POP POP POP POP PUSH1 0x40 MLOAD RETURNDATASIZE PUSH1 0x1F NOT PUSH1 0x1F DUP3 ADD AND DUP3 ADD DUP1 PUSH1 0x40 MSTORE POP DUP2 ADD SWAP1 PUSH2 0x2C3A SWAP2 SWAP1 PUSH2 0x3406 JUMP JUMPDEST POP JUMPDEST POP POP POP JUMP JUMPDEST PUSH2 0x2CC4 DUP5 PUSH4 0x23B872DD PUSH1 0xE0 SHL DUP6 DUP6 DUP6 PUSH1 0x40 MLOAD PUSH1 0x24 ADD PUSH2 0x2C62 SWAP4 SWAP3 SWAP2 SWAP1 PUSH2 0x3972 JUMP JUMPDEST PUSH1 0x40 MLOAD PUSH1 0x20 DUP2 DUP4 SUB SUB DUP2 MSTORE SWAP1 PUSH1 0x40 MSTORE SWAP1 PUSH28 0xFFFFFFFFFFFFFFFFFFFFFFFFFFFFFFFFFFFFFFFFFFFFFFFFFFFFFFFF NOT AND PUSH1 0x20 DUP3 ADD DUP1 MLOAD PUSH28 0xFFFFFFFFFFFFFFFFFFFFFFFFFFFFFFFFFFFFFFFFFFFFFFFFFFFFFFFF DUP4 DUP2 DUP4 AND OR DUP4 MSTORE POP POP POP POP PUSH2 0x309F JUMP JUMPDEST POP POP POP POP JUMP JUMPDEST PUSH1 0x0 DUP1 DUP3 DUP5 PUSH2 0x2CD9 SWAP2 SWAP1 PUSH2 0x3CE2 JUMP JUMPDEST SWAP1 POP DUP4 DUP2 LT ISZERO PUSH2 0x2D1E JUMPI PUSH1 0x40 MLOAD PUSH32 0x8C379A000000000000000000000000000000000000000000000000000000000 DUP2 MSTORE PUSH1 0x4 ADD PUSH2 0x2D15 SWAP1 PUSH2 0x3AE3 JUMP JUMPDEST PUSH1 0x40 MLOAD DUP1 SWAP2 SUB SWAP1 REVERT JUMPDEST DUP1 SWAP2 POP POP SWAP3 SWAP2 POP POP JUMP JUMPDEST PUSH2 0x2DA9 DUP4 PUSH4 0xA9059CBB PUSH1 0xE0 SHL DUP5 DUP5 PUSH1 0x40 MLOAD PUSH1 0x24 ADD PUSH2 0x2D47 SWAP3 SWAP2 SWAP1 PUSH2 0x39A9 JUMP JUMPDEST PUSH1 0x40 MLOAD PUSH1 0x20 DUP2 DUP4 SUB SUB DUP2 MSTORE SWAP1 PUSH1 0x40 MSTORE SWAP1 PUSH28 0xFFFFFFFFFFFFFFFFFFFFFFFFFFFFFFFFFFFFFFFFFFFFFFFFFFFFFFFF NOT AND PUSH1 0x20 DUP3 ADD DUP1 MLOAD PUSH28 0xFFFFFFFFFFFFFFFFFFFFFFFFFFFFFFFFFFFFFFFFFFFFFFFFFFFFFFFF DUP4 DUP2 DUP4 AND OR DUP4 MSTORE POP POP POP POP PUSH2 0x309F JUMP JUMPDEST POP POP POP JUMP JUMPDEST PUSH1 0x0 CALLER SWAP1 POP SWAP1 JUMP JUMPDEST PUSH1 0x0 DUP2 EQ DUP1 PUSH2 0x2E4F JUMPI POP PUSH1 0x0 DUP4 PUSH20 0xFFFFFFFFFFFFFFFFFFFFFFFFFFFFFFFFFFFFFFFF AND PUSH4 0xDD62ED3E ADDRESS DUP6 PUSH1 0x40 MLOAD DUP4 PUSH4 0xFFFFFFFF AND PUSH1 0xE0 SHL DUP2 MSTORE PUSH1 0x4 ADD PUSH2 0x2DFD SWAP3 SWAP2 SWAP1 PUSH2 0x3949 JUMP JUMPDEST PUSH1 0x20 PUSH1 0x40 MLOAD DUP1 DUP4 SUB DUP2 DUP7 DUP1 EXTCODESIZE ISZERO DUP1 ISZERO PUSH2 0x2E15 JUMPI PUSH1 0x0 DUP1 REVERT JUMPDEST POP GAS STATICCALL ISZERO DUP1 ISZERO PUSH2 0x2E29 JUMPI RETURNDATASIZE PUSH1 0x0 DUP1 RETURNDATACOPY RETURNDATASIZE PUSH1 0x0 REVERT JUMPDEST POP POP POP POP PUSH1 0x40 MLOAD RETURNDATASIZE PUSH1 0x1F NOT PUSH1 0x1F DUP3 ADD AND DUP3 ADD DUP1 PUSH1 0x40 MSTORE POP DUP2 ADD SWAP1 PUSH2 0x2E4D SWAP2 SWAP1 PUSH2 0x34BA JUMP JUMPDEST EQ JUMPDEST PUSH2 0x2E8E JUMPI PUSH1 0x40 MLOAD PUSH32 0x8C379A000000000000000000000000000000000000000000000000000000000 DUP2 MSTORE PUSH1 0x4 ADD PUSH2 0x2E85 SWAP1 PUSH2 0x3C03 JUMP JUMPDEST PUSH1 0x40 MLOAD DUP1 SWAP2 SUB SWAP1 REVERT JUMPDEST PUSH2 0x2F0F DUP4 PUSH4 0x95EA7B3 PUSH1 0xE0 SHL DUP5 DUP5 PUSH1 0x40 MLOAD PUSH1 0x24 ADD PUSH2 0x2EAD SWAP3 SWAP2 SWAP1 PUSH2 0x39A9 JUMP JUMPDEST PUSH1 0x40 MLOAD PUSH1 0x20 DUP2 DUP4 SUB SUB DUP2 MSTORE SWAP1 PUSH1 0x40 MSTORE SWAP1 PUSH28 0xFFFFFFFFFFFFFFFFFFFFFFFFFFFFFFFFFFFFFFFFFFFFFFFFFFFFFFFF NOT AND PUSH1 0x20 DUP3 ADD DUP1 MLOAD PUSH28 0xFFFFFFFFFFFFFFFFFFFFFFFFFFFFFFFFFFFFFFFFFFFFFFFFFFFFFFFF DUP4 DUP2 DUP4 AND OR DUP4 MSTORE POP POP POP POP PUSH2 0x309F JUMP JUMPDEST POP POP POP JUMP JUMPDEST PUSH1 0x0 DUP1 PUSH1 0x0 SWAP1 SLOAD SWAP1 PUSH2 0x100 EXP SWAP1 DIV PUSH20 0xFFFFFFFFFFFFFFFFFFFFFFFFFFFFFFFFFFFFFFFF AND SWAP1 POP DUP2 PUSH1 0x0 DUP1 PUSH2 0x100 EXP DUP2 SLOAD DUP2 PUSH20 0xFFFFFFFFFFFFFFFFFFFFFFFFFFFFFFFFFFFFFFFF MUL NOT AND SWAP1 DUP4 PUSH20 0xFFFFFFFFFFFFFFFFFFFFFFFFFFFFFFFFFFFFFFFF AND MUL OR SWAP1 SSTORE POP DUP2 PUSH20 0xFFFFFFFFFFFFFFFFFFFFFFFFFFFFFFFFFFFFFFFF AND DUP2 PUSH20 0xFFFFFFFFFFFFFFFFFFFFFFFFFFFFFFFFFFFFFFFF AND PUSH32 0x8BE0079C531659141344CD1FD0A4F28419497F9722A3DAAFE3B4186F6B6457E0 PUSH1 0x40 MLOAD PUSH1 0x40 MLOAD DUP1 SWAP2 SUB SWAP1 LOG3 POP POP JUMP JUMPDEST PUSH1 0x0 DUP1 DUP4 GT DUP3 SWAP1 PUSH2 0x301F JUMPI PUSH1 0x40 MLOAD PUSH32 0x8C379A000000000000000000000000000000000000000000000000000000000 DUP2 MSTORE PUSH1 0x4 ADD PUSH2 0x3016 SWAP2 SWAP1 PUSH2 0x3AA1 JUMP JUMPDEST PUSH1 0x40 MLOAD DUP1 SWAP2 SUB SWAP1 REVERT JUMPDEST POP PUSH1 0x0 DUP4 DUP6 PUSH2 0x302E SWAP2 SWAP1 PUSH2 0x3D38 JUMP JUMPDEST SWAP1 POP DUP1 SWAP2 POP POP SWAP4 SWAP3 POP POP POP JUMP JUMPDEST PUSH1 0x0 DUP4 DUP4 GT ISZERO DUP3 SWAP1 PUSH2 0x3083 JUMPI PUSH1 0x40 MLOAD PUSH32 0x8C379A000000000000000000000000000000000000000000000000000000000 DUP2 MSTORE PUSH1 0x4 ADD PUSH2 0x307A SWAP2 SWAP1 PUSH2 0x3AA1 JUMP JUMPDEST PUSH1 0x40 MLOAD DUP1 SWAP2 SUB SWAP1 REVERT JUMPDEST POP PUSH1 0x0 DUP4 DUP6 PUSH2 0x3092 SWAP2 SWAP1 PUSH2 0x3DC3 JUMP JUMPDEST SWAP1 POP DUP1 SWAP2 POP POP SWAP4 SWAP3 POP POP POP JUMP JUMPDEST PUSH1 0x0 PUSH2 0x3101 DUP3 PUSH1 0x40 MLOAD DUP1 PUSH1 0x40 ADD PUSH1 0x40 MSTORE DUP1 PUSH1 0x20 DUP2 MSTORE PUSH1 0x20 ADD PUSH32 0x5361666545524332303A206C6F772D6C6576656C2063616C6C206661696C6564 DUP2 MSTORE POP DUP6 PUSH20 0xFFFFFFFFFFFFFFFFFFFFFFFFFFFFFFFFFFFFFFFF AND PUSH2 0x3166 SWAP1 SWAP3 SWAP2 SWAP1 PUSH4 0xFFFFFFFF AND JUMP JUMPDEST SWAP1 POP PUSH1 0x0 DUP2 MLOAD GT ISZERO PUSH2 0x3161 JUMPI DUP1 DUP1 PUSH1 0x20 ADD SWAP1 MLOAD DUP2 ADD SWAP1 PUSH2 0x3121 SWAP2 SWAP1 PUSH2 0x3406 JUMP JUMPDEST PUSH2 0x3160 JUMPI PUSH1 0x40 MLOAD PUSH32 0x8C379A000000000000000000000000000000000000000000000000000000000 DUP2 MSTORE PUSH1 0x4 ADD PUSH2 0x3157 SWAP1 PUSH2 0x3BC3 JUMP JUMPDEST PUSH1 0x40 MLOAD DUP1 SWAP2 SUB SWAP1 REVERT JUMPDEST JUMPDEST POP POP POP JUMP JUMPDEST PUSH1 0x60 PUSH2 0x3175 DUP5 DUP5 PUSH1 0x0 DUP6 PUSH2 0x317E JUMP JUMPDEST SWAP1 POP SWAP4 SWAP3 POP POP POP JUMP JUMPDEST PUSH1 0x60 DUP3 SELFBALANCE LT ISZERO PUSH2 0x31C3 JUMPI PUSH1 0x40 MLOAD PUSH32 0x8C379A000000000000000000000000000000000000000000000000000000000 DUP2 MSTORE PUSH1 0x4 ADD PUSH2 0x31BA SWAP1 PUSH2 0x3B03 JUMP JUMPDEST PUSH1 0x40 MLOAD DUP1 SWAP2 SUB SWAP1 REVERT JUMPDEST PUSH2 0x31CC DUP6 PUSH2 0x3292 JUMP JUMPDEST PUSH2 0x320B JUMPI PUSH1 0x40 MLOAD PUSH32 0x8C379A000000000000000000000000000000000000000000000000000000000 DUP2 MSTORE PUSH1 0x4 ADD PUSH2 0x3202 SWAP1 PUSH2 0x3B83 JUMP JUMPDEST PUSH1 0x40 MLOAD DUP1 SWAP2 SUB SWAP1 REVERT JUMPDEST PUSH1 0x0 DUP1 DUP7 PUSH20 0xFFFFFFFFFFFFFFFFFFFFFFFFFFFFFFFFFFFFFFFF AND DUP6 DUP8 PUSH1 0x40 MLOAD PUSH2 0x3234 SWAP2 SWAP1 PUSH2 0x3917 JUMP JUMPDEST PUSH1 0x0 PUSH1 0x40 MLOAD DUP1 DUP4 SUB DUP2 DUP6 DUP8 GAS CALL SWAP3 POP POP POP RETURNDATASIZE DUP1 PUSH1 0x0 DUP2 EQ PUSH2 0x3271 JUMPI PUSH1 0x40 MLOAD SWAP2 POP PUSH1 0x1F NOT PUSH1 0x3F RETURNDATASIZE ADD AND DUP3 ADD PUSH1 0x40 MSTORE RETURNDATASIZE DUP3 MSTORE RETURNDATASIZE PUSH1 0x0 PUSH1 0x20 DUP5 ADD RETURNDATACOPY PUSH2 0x3276 JUMP JUMPDEST PUSH1 0x60 SWAP2 POP JUMPDEST POP SWAP2 POP SWAP2 POP PUSH2 0x3286 DUP3 DUP3 DUP7 PUSH2 0x32B5 JUMP JUMPDEST SWAP3 POP POP POP SWAP5 SWAP4 POP POP POP POP JUMP JUMPDEST PUSH1 0x0 DUP1 DUP3 PUSH20 0xFFFFFFFFFFFFFFFFFFFFFFFFFFFFFFFFFFFFFFFF AND EXTCODESIZE GT SWAP1 POP SWAP2 SWAP1 POP JUMP JUMPDEST PUSH1 0x60 DUP4 ISZERO PUSH2 0x32C5 JUMPI DUP3 SWAP1 POP PUSH2 0x3315 JUMP JUMPDEST PUSH1 0x0 DUP4 MLOAD GT ISZERO PUSH2 0x32D8 JUMPI DUP3 MLOAD DUP1 DUP5 PUSH1 0x20 ADD REVERT JUMPDEST DUP2 PUSH1 0x40 MLOAD PUSH32 0x8C379A000000000000000000000000000000000000000000000000000000000 DUP2 MSTORE PUSH1 0x4 ADD PUSH2 0x330C SWAP2 SWAP1 PUSH2 0x3AA1 JUMP JUMPDEST PUSH1 0x40 MLOAD DUP1 SWAP2 SUB SWAP1 REVERT JUMPDEST SWAP4 SWAP3 POP POP POP JUMP JUMPDEST PUSH1 0x0 DUP2 CALLDATALOAD SWAP1 POP PUSH2 0x332B DUP2 PUSH2 0x42AA JUMP JUMPDEST SWAP3 SWAP2 POP POP JUMP JUMPDEST PUSH1 0x0 DUP2 CALLDATALOAD SWAP1 POP PUSH2 0x3340 DUP2 PUSH2 0x42C1 JUMP JUMPDEST SWAP3 SWAP2 POP POP JUMP JUMPDEST PUSH1 0x0 DUP2 MLOAD SWAP1 POP PUSH2 0x3355 DUP2 PUSH2 0x42C1 JUMP JUMPDEST SWAP3 SWAP2 POP POP JUMP JUMPDEST PUSH1 0x0 DUP2 CALLDATALOAD SWAP1 POP PUSH2 0x336A DUP2 PUSH2 0x42D8 JUMP JUMPDEST SWAP3 SWAP2 POP POP JUMP JUMPDEST PUSH1 0x0 DUP2 MLOAD SWAP1 POP PUSH2 0x337F DUP2 PUSH2 0x42D8 JUMP JUMPDEST SWAP3 SWAP2 POP POP JUMP JUMPDEST PUSH1 0x0 DUP2 CALLDATALOAD SWAP1 POP PUSH2 0x3394 DUP2 PUSH2 0x42EF JUMP JUMPDEST SWAP3 SWAP2 POP POP JUMP JUMPDEST PUSH1 0x0 DUP2 CALLDATALOAD SWAP1 POP PUSH2 0x33A9 DUP2 PUSH2 0x4306 JUMP JUMPDEST SWAP3 SWAP2 POP POP JUMP JUMPDEST PUSH1 0x0 DUP2 CALLDATALOAD SWAP1 POP PUSH2 0x33BE DUP2 PUSH2 0x431D JUMP JUMPDEST SWAP3 SWAP2 POP POP JUMP JUMPDEST PUSH1 0x0 DUP2 MLOAD SWAP1 POP PUSH2 0x33D3 DUP2 PUSH2 0x431D JUMP JUMPDEST SWAP3 SWAP2 POP POP JUMP JUMPDEST PUSH1 0x0 PUSH1 0x20 DUP3 DUP5 SUB SLT ISZERO PUSH2 0x33EF JUMPI PUSH2 0x33EE PUSH2 0x3FEA JUMP JUMPDEST JUMPDEST PUSH1 0x0 PUSH2 0x33FD DUP5 DUP3 DUP6 ADD PUSH2 0x331C JUMP JUMPDEST SWAP2 POP POP SWAP3 SWAP2 POP POP JUMP JUMPDEST PUSH1 0x0 PUSH1 0x20 DUP3 DUP5 SUB SLT ISZERO PUSH2 0x341C JUMPI PUSH2 0x341B PUSH2 0x3FEA JUMP JUMPDEST JUMPDEST PUSH1 0x0 PUSH2 0x342A DUP5 DUP3 DUP6 ADD PUSH2 0x3346 JUMP JUMPDEST SWAP2 POP POP SWAP3 SWAP2 POP POP JUMP JUMPDEST PUSH1 0x0 PUSH1 0x20 DUP3 DUP5 SUB SLT ISZERO PUSH2 0x3449 JUMPI PUSH2 0x3448 PUSH2 0x3FEA JUMP JUMPDEST JUMPDEST PUSH1 0x0 PUSH2 0x3457 DUP5 DUP3 DUP6 ADD PUSH2 0x3370 JUMP JUMPDEST SWAP2 POP POP SWAP3 SWAP2 POP POP JUMP JUMPDEST PUSH1 0x0 PUSH1 0x20 DUP3 DUP5 SUB SLT ISZERO PUSH2 0x3476 JUMPI PUSH2 0x3475 PUSH2 0x3FEA JUMP JUMPDEST JUMPDEST PUSH1 0x0 PUSH2 0x3484 DUP5 DUP3 DUP6 ADD PUSH2 0x339A JUMP JUMPDEST SWAP2 POP POP SWAP3 SWAP2 POP POP JUMP JUMPDEST PUSH1 0x0 PUSH1 0x20 DUP3 DUP5 SUB SLT ISZERO PUSH2 0x34A3 JUMPI PUSH2 0x34A2 PUSH2 0x3FEA JUMP JUMPDEST JUMPDEST PUSH1 0x0 PUSH2 0x34B1 DUP5 DUP3 DUP6 ADD PUSH2 0x33AF JUMP JUMPDEST SWAP2 POP POP SWAP3 SWAP2 POP POP JUMP JUMPDEST PUSH1 0x0 PUSH1 0x20 DUP3 DUP5 SUB SLT ISZERO PUSH2 0x34D0 JUMPI PUSH2 0x34CF PUSH2 0x3FEA JUMP JUMPDEST JUMPDEST PUSH1 0x0 PUSH2 0x34DE DUP5 DUP3 DUP6 ADD PUSH2 0x33C4 JUMP JUMPDEST SWAP2 POP POP SWAP3 SWAP2 POP POP JUMP JUMPDEST PUSH1 0x0 DUP1 PUSH1 0x40 DUP4 DUP6 SUB SLT ISZERO PUSH2 0x34FE JUMPI PUSH2 0x34FD PUSH2 0x3FEA JUMP JUMPDEST JUMPDEST PUSH1 0x0 PUSH2 0x350C DUP6 DUP3 DUP7 ADD PUSH2 0x33AF JUMP JUMPDEST SWAP3 POP POP PUSH1 0x20 PUSH2 0x351D DUP6 DUP3 DUP7 ADD PUSH2 0x331C JUMP JUMPDEST SWAP2 POP POP SWAP3 POP SWAP3 SWAP1 POP JUMP JUMPDEST PUSH1 0x0 DUP1 PUSH1 0x0 DUP1 PUSH1 0x0 DUP1 PUSH1 0x0 PUSH1 0xE0 DUP9 DUP11 SUB SLT ISZERO PUSH2 0x3546 JUMPI PUSH2 0x3545 PUSH2 0x3FEA JUMP JUMPDEST JUMPDEST PUSH1 0x0 PUSH2 0x3554 DUP11 DUP3 DUP12 ADD PUSH2 0x33AF JUMP JUMPDEST SWAP8 POP POP PUSH1 0x20 PUSH2 0x3565 DUP11 DUP3 DUP12 ADD PUSH2 0x335B JUMP JUMPDEST SWAP7 POP POP PUSH1 0x40 PUSH2 0x3576 DUP11 DUP3 DUP12 ADD PUSH2 0x3331 JUMP JUMPDEST SWAP6 POP POP PUSH1 0x60 PUSH2 0x3587 DUP11 DUP3 DUP12 ADD PUSH2 0x3385 JUMP JUMPDEST SWAP5 POP POP PUSH1 0x80 PUSH2 0x3598 DUP11 DUP3 DUP12 ADD PUSH2 0x335B JUMP JUMPDEST SWAP4 POP POP PUSH1 0xA0 PUSH2 0x35A9 DUP11 DUP3 DUP12 ADD PUSH2 0x33AF JUMP JUMPDEST SWAP3 POP POP PUSH1 0xC0 PUSH2 0x35BA DUP11 DUP3 DUP12 ADD PUSH2 0x33AF JUMP JUMPDEST SWAP2 POP POP SWAP3 SWAP6 SWAP9 SWAP2 SWAP5 SWAP8 POP SWAP3 SWAP6 POP JUMP JUMPDEST PUSH1 0x0 DUP1 PUSH1 0x40 DUP4 DUP6 SUB SLT ISZERO PUSH2 0x35E0 JUMPI PUSH2 0x35DF PUSH2 0x3FEA JUMP JUMPDEST JUMPDEST PUSH1 0x0 PUSH2 0x35EE DUP6 DUP3 DUP7 ADD PUSH2 0x33AF JUMP JUMPDEST SWAP3 POP POP PUSH1 0x20 PUSH2 0x35FF DUP6 DUP3 DUP7 ADD PUSH2 0x33AF JUMP JUMPDEST SWAP2 POP POP SWAP3 POP SWAP3 SWAP1 POP JUMP JUMPDEST PUSH1 0x0 DUP1 PUSH1 0x0 PUSH1 0x60 DUP5 DUP7 SUB SLT ISZERO PUSH2 0x3622 JUMPI PUSH2 0x3621 PUSH2 0x3FEA JUMP JUMPDEST JUMPDEST PUSH1 0x0 PUSH2 0x3630 DUP7 DUP3 DUP8 ADD PUSH2 0x33AF JUMP JUMPDEST SWAP4 POP POP PUSH1 0x20 PUSH2 0x3641 DUP7 DUP3 DUP8 ADD PUSH2 0x33AF JUMP JUMPDEST SWAP3 POP POP PUSH1 0x40 PUSH2 0x3652 DUP7 DUP3 DUP8 ADD PUSH2 0x3331 JUMP JUMPDEST SWAP2 POP POP SWAP3 POP SWAP3 POP SWAP3 JUMP JUMPDEST PUSH1 0x0 DUP1 PUSH1 0x0 PUSH1 0x60 DUP5 DUP7 SUB SLT ISZERO PUSH2 0x3675 JUMPI PUSH2 0x3674 PUSH2 0x3FEA JUMP JUMPDEST JUMPDEST PUSH1 0x0 PUSH2 0x3683 DUP7 DUP3 DUP8 ADD PUSH2 0x33AF JUMP JUMPDEST SWAP4 POP POP PUSH1 0x20 PUSH2 0x3694 DUP7 DUP3 DUP8 ADD PUSH2 0x33AF JUMP JUMPDEST SWAP3 POP POP PUSH1 0x40 PUSH2 0x36A5 DUP7 DUP3 DUP8 ADD PUSH2 0x33AF JUMP JUMPDEST SWAP2 POP POP SWAP3 POP SWAP3 POP SWAP3 JUMP JUMPDEST PUSH2 0x36B8 DUP2 PUSH2 0x3DF7 JUMP JUMPDEST DUP3 MSTORE POP POP JUMP JUMPDEST PUSH1 0x0 PUSH2 0x36C9 DUP3 PUSH2 0x3CB0 JUMP JUMPDEST PUSH2 0x36D3 DUP2 DUP6 PUSH2 0x3CC6 JUMP JUMPDEST SWAP4 POP PUSH2 0x36E3 DUP2 DUP6 PUSH1 0x20 DUP7 ADD PUSH2 0x3EE1 JUMP JUMPDEST DUP1 DUP5 ADD SWAP2 POP POP SWAP3 SWAP2 POP POP JUMP JUMPDEST PUSH2 0x36F8 DUP2 PUSH2 0x3E75 JUMP JUMPDEST DUP3 MSTORE POP POP JUMP JUMPDEST PUSH2 0x3707 DUP2 PUSH2 0x3E87 JUMP JUMPDEST DUP3 MSTORE POP POP JUMP JUMPDEST PUSH2 0x3716 DUP2 PUSH2 0x3E99 JUMP JUMPDEST DUP3 MSTORE POP POP JUMP JUMPDEST PUSH2 0x3725 DUP2 PUSH2 0x3EAB JUMP JUMPDEST DUP3 MSTORE POP POP JUMP JUMPDEST PUSH1 0x0 PUSH2 0x3736 DUP3 PUSH2 0x3CBB JUMP JUMPDEST PUSH2 0x3740 DUP2 DUP6 PUSH2 0x3CD1 JUMP JUMPDEST SWAP4 POP PUSH2 0x3750 DUP2 DUP6 PUSH1 0x20 DUP7 ADD PUSH2 0x3EE1 JUMP JUMPDEST PUSH2 0x3759 DUP2 PUSH2 0x3FEF JUMP JUMPDEST DUP5 ADD SWAP2 POP POP SWAP3 SWAP2 POP POP JUMP JUMPDEST PUSH1 0x0 PUSH2 0x3771 PUSH1 0x26 DUP4 PUSH2 0x3CD1 JUMP JUMPDEST SWAP2 POP PUSH2 0x377C DUP3 PUSH2 0x4000 JUMP JUMPDEST PUSH1 0x40 DUP3 ADD SWAP1 POP SWAP2 SWAP1 POP JUMP JUMPDEST PUSH1 0x0 PUSH2 0x3794 PUSH1 0x1B DUP4 PUSH2 0x3CD1 JUMP JUMPDEST SWAP2 POP PUSH2 0x379F DUP3 PUSH2 0x404F JUMP JUMPDEST PUSH1 0x20 DUP3 ADD SWAP1 POP SWAP2 SWAP1 POP JUMP JUMPDEST PUSH1 0x0 PUSH2 0x37B7 PUSH1 0x26 DUP4 PUSH2 0x3CD1 JUMP JUMPDEST SWAP2 POP PUSH2 0x37C2 DUP3 PUSH2 0x4078 JUMP JUMPDEST PUSH1 0x40 DUP3 ADD SWAP1 POP SWAP2 SWAP1 POP JUMP JUMPDEST PUSH1 0x0 PUSH2 0x37DA PUSH1 0xE DUP4 PUSH2 0x3CD1 JUMP JUMPDEST SWAP2 POP PUSH2 0x37E5 DUP3 PUSH2 0x40C7 JUMP JUMPDEST PUSH1 0x20 DUP3 ADD SWAP1 POP SWAP2 SWAP1 POP JUMP JUMPDEST PUSH1 0x0 PUSH2 0x37FD PUSH1 0x21 DUP4 PUSH2 0x3CD1 JUMP JUMPDEST SWAP2 POP PUSH2 0x3808 DUP3 PUSH2 0x40F0 JUMP JUMPDEST PUSH1 0x40 DUP3 ADD SWAP1 POP SWAP2 SWAP1 POP JUMP JUMPDEST PUSH1 0x0 PUSH2 0x3820 PUSH1 0x20 DUP4 PUSH2 0x3CD1 JUMP JUMPDEST SWAP2 POP PUSH2 0x382B DUP3 PUSH2 0x413F JUMP JUMPDEST PUSH1 0x20 DUP3 ADD SWAP1 POP SWAP2 SWAP1 POP JUMP JUMPDEST PUSH1 0x0 PUSH2 0x3843 PUSH1 0x1D DUP4 PUSH2 0x3CD1 JUMP JUMPDEST SWAP2 POP PUSH2 0x384E DUP3 PUSH2 0x4168 JUMP JUMPDEST PUSH1 0x20 DUP3 ADD SWAP1 POP SWAP2 SWAP1 POP JUMP JUMPDEST PUSH1 0x0 PUSH2 0x3866 PUSH1 0x12 DUP4 PUSH2 0x3CD1 JUMP JUMPDEST SWAP2 POP PUSH2 0x3871 DUP3 PUSH2 0x4191 JUMP JUMPDEST PUSH1 0x20 DUP3 ADD SWAP1 POP SWAP2 SWAP1 POP JUMP JUMPDEST PUSH1 0x0 PUSH2 0x3889 PUSH1 0x2A DUP4 PUSH2 0x3CD1 JUMP JUMPDEST SWAP2 POP PUSH2 0x3894 DUP3 PUSH2 0x41BA JUMP JUMPDEST PUSH1 0x40 DUP3 ADD SWAP1 POP SWAP2 SWAP1 POP JUMP JUMPDEST PUSH1 0x0 PUSH2 0x38AC PUSH1 0xC DUP4 PUSH2 0x3CD1 JUMP JUMPDEST SWAP2 POP PUSH2 0x38B7 DUP3 PUSH2 0x4209 JUMP JUMPDEST PUSH1 0x20 DUP3 ADD SWAP1 POP SWAP2 SWAP1 POP JUMP JUMPDEST PUSH1 0x0 PUSH2 0x38CF PUSH1 0x36 DUP4 PUSH2 0x3CD1 JUMP JUMPDEST SWAP2 POP PUSH2 0x38DA DUP3 PUSH2 0x4232 JUMP JUMPDEST PUSH1 0x40 DUP3 ADD SWAP1 POP SWAP2 SWAP1 POP JUMP JUMPDEST PUSH1 0x0 PUSH2 0x38F2 PUSH1 0x14 DUP4 PUSH2 0x3CD1 JUMP JUMPDEST SWAP2 POP PUSH2 0x38FD DUP3 PUSH2 0x4281 JUMP JUMPDEST PUSH1 0x20 DUP3 ADD SWAP1 POP SWAP2 SWAP1 POP JUMP JUMPDEST PUSH2 0x3911 DUP2 PUSH2 0x3E6B JUMP JUMPDEST DUP3 MSTORE POP POP JUMP JUMPDEST PUSH1 0x0 PUSH2 0x3923 DUP3 DUP5 PUSH2 0x36BE JUMP JUMPDEST SWAP2 POP DUP2 SWAP1 POP SWAP3 SWAP2 POP POP JUMP JUMPDEST PUSH1 0x0 PUSH1 0x20 DUP3 ADD SWAP1 POP PUSH2 0x3943 PUSH1 0x0 DUP4 ADD DUP5 PUSH2 0x36AF JUMP JUMPDEST SWAP3 SWAP2 POP POP JUMP JUMPDEST PUSH1 0x0 PUSH1 0x40 DUP3 ADD SWAP1 POP PUSH2 0x395E PUSH1 0x0 DUP4 ADD DUP6 PUSH2 0x36AF JUMP JUMPDEST PUSH2 0x396B PUSH1 0x20 DUP4 ADD DUP5 PUSH2 0x36AF JUMP JUMPDEST SWAP4 SWAP3 POP POP POP JUMP JUMPDEST PUSH1 0x0 PUSH1 0x60 DUP3 ADD SWAP1 POP PUSH2 0x3987 PUSH1 0x0 DUP4 ADD DUP7 PUSH2 0x36AF JUMP JUMPDEST PUSH2 0x3994 PUSH1 0x20 DUP4 ADD DUP6 PUSH2 0x36AF JUMP JUMPDEST PUSH2 0x39A1 PUSH1 0x40 DUP4 ADD DUP5 PUSH2 0x3908 JUMP JUMPDEST SWAP5 SWAP4 POP POP POP POP JUMP JUMPDEST PUSH1 0x0 PUSH1 0x40 DUP3 ADD SWAP1 POP PUSH2 0x39BE PUSH1 0x0 DUP4 ADD DUP6 PUSH2 0x36AF JUMP JUMPDEST PUSH2 0x39CB PUSH1 0x20 DUP4 ADD DUP5 PUSH2 0x3908 JUMP JUMPDEST SWAP4 SWAP3 POP POP POP JUMP JUMPDEST PUSH1 0x0 PUSH1 0x20 DUP3 ADD SWAP1 POP PUSH2 0x39E7 PUSH1 0x0 DUP4 ADD DUP5 PUSH2 0x36EF JUMP JUMPDEST SWAP3 SWAP2 POP POP JUMP JUMPDEST PUSH1 0x0 PUSH2 0x100 DUP3 ADD SWAP1 POP PUSH2 0x3A03 PUSH1 0x0 DUP4 ADD DUP12 PUSH2 0x36EF JUMP JUMPDEST PUSH2 0x3A10 PUSH1 0x20 DUP4 ADD DUP11 PUSH2 0x3908 JUMP JUMPDEST PUSH2 0x3A1D PUSH1 0x40 DUP4 ADD DUP10 PUSH2 0x3908 JUMP JUMPDEST PUSH2 0x3A2A PUSH1 0x60 DUP4 ADD DUP9 PUSH2 0x3908 JUMP JUMPDEST PUSH2 0x3A37 PUSH1 0x80 DUP4 ADD DUP8 PUSH2 0x36FE JUMP JUMPDEST PUSH2 0x3A44 PUSH1 0xA0 DUP4 ADD DUP7 PUSH2 0x36EF JUMP JUMPDEST PUSH2 0x3A51 PUSH1 0xC0 DUP4 ADD DUP6 PUSH2 0x3908 JUMP JUMPDEST PUSH2 0x3A5E PUSH1 0xE0 DUP4 ADD DUP5 PUSH2 0x3908 JUMP JUMPDEST SWAP10 SWAP9 POP POP POP POP POP POP POP POP POP JUMP JUMPDEST PUSH1 0x0 PUSH1 0x20 DUP3 ADD SWAP1 POP PUSH2 0x3A80 PUSH1 0x0 DUP4 ADD DUP5 PUSH2 0x370D JUMP JUMPDEST SWAP3 SWAP2 POP POP JUMP JUMPDEST PUSH1 0x0 PUSH1 0x20 DUP3 ADD SWAP1 POP PUSH2 0x3A9B PUSH1 0x0 DUP4 ADD DUP5 PUSH2 0x371C JUMP JUMPDEST SWAP3 SWAP2 POP POP JUMP JUMPDEST PUSH1 0x0 PUSH1 0x20 DUP3 ADD SWAP1 POP DUP2 DUP2 SUB PUSH1 0x0 DUP4 ADD MSTORE PUSH2 0x3ABB DUP2 DUP5 PUSH2 0x372B JUMP JUMPDEST SWAP1 POP SWAP3 SWAP2 POP POP JUMP JUMPDEST PUSH1 0x0 PUSH1 0x20 DUP3 ADD SWAP1 POP DUP2 DUP2 SUB PUSH1 0x0 DUP4 ADD MSTORE PUSH2 0x3ADC DUP2 PUSH2 0x3764 JUMP JUMPDEST SWAP1 POP SWAP2 SWAP1 POP JUMP JUMPDEST PUSH1 0x0 PUSH1 0x20 DUP3 ADD SWAP1 POP DUP2 DUP2 SUB PUSH1 0x0 DUP4 ADD MSTORE PUSH2 0x3AFC DUP2 PUSH2 0x3787 JUMP JUMPDEST SWAP1 POP SWAP2 SWAP1 POP JUMP JUMPDEST PUSH1 0x0 PUSH1 0x20 DUP3 ADD SWAP1 POP DUP2 DUP2 SUB PUSH1 0x0 DUP4 ADD MSTORE PUSH2 0x3B1C DUP2 PUSH2 0x37AA JUMP JUMPDEST SWAP1 POP SWAP2 SWAP1 POP JUMP JUMPDEST PUSH1 0x0 PUSH1 0x20 DUP3 ADD SWAP1 POP DUP2 DUP2 SUB PUSH1 0x0 DUP4 ADD MSTORE PUSH2 0x3B3C DUP2 PUSH2 0x37CD JUMP JUMPDEST SWAP1 POP SWAP2 SWAP1 POP JUMP JUMPDEST PUSH1 0x0 PUSH1 0x20 DUP3 ADD SWAP1 POP DUP2 DUP2 SUB PUSH1 0x0 DUP4 ADD MSTORE PUSH2 0x3B5C DUP2 PUSH2 0x37F0 JUMP JUMPDEST SWAP1 POP SWAP2 SWAP1 POP JUMP JUMPDEST PUSH1 0x0 PUSH1 0x20 DUP3 ADD SWAP1 POP DUP2 DUP2 SUB PUSH1 0x0 DUP4 ADD MSTORE PUSH2 0x3B7C DUP2 PUSH2 0x3813 JUMP JUMPDEST SWAP1 POP SWAP2 SWAP1 POP JUMP JUMPDEST PUSH1 0x0 PUSH1 0x20 DUP3 ADD SWAP1 POP DUP2 DUP2 SUB PUSH1 0x0 DUP4 ADD MSTORE PUSH2 0x3B9C DUP2 PUSH2 0x3836 JUMP JUMPDEST SWAP1 POP SWAP2 SWAP1 POP JUMP JUMPDEST PUSH1 0x0 PUSH1 0x20 DUP3 ADD SWAP1 POP DUP2 DUP2 SUB PUSH1 0x0 DUP4 ADD MSTORE PUSH2 0x3BBC DUP2 PUSH2 0x3859 JUMP JUMPDEST SWAP1 POP SWAP2 SWAP1 POP JUMP JUMPDEST PUSH1 0x0 PUSH1 0x20 DUP3 ADD SWAP1 POP DUP2 DUP2 SUB PUSH1 0x0 DUP4 ADD MSTORE PUSH2 0x3BDC DUP2 PUSH2 0x387C JUMP JUMPDEST SWAP1 POP SWAP2 SWAP1 POP JUMP JUMPDEST PUSH1 0x0 PUSH1 0x20 DUP3 ADD SWAP1 POP DUP2 DUP2 SUB PUSH1 0x0 DUP4 ADD MSTORE PUSH2 0x3BFC DUP2 PUSH2 0x389F JUMP JUMPDEST SWAP1 POP SWAP2 SWAP1 POP JUMP JUMPDEST PUSH1 0x0 PUSH1 0x20 DUP3 ADD SWAP1 POP DUP2 DUP2 SUB PUSH1 0x0 DUP4 ADD MSTORE PUSH2 0x3C1C DUP2 PUSH2 0x38C2 JUMP JUMPDEST SWAP1 POP SWAP2 SWAP1 POP JUMP JUMPDEST PUSH1 0x0 PUSH1 0x20 DUP3 ADD SWAP1 POP DUP2 DUP2 SUB PUSH1 0x0 DUP4 ADD MSTORE PUSH2 0x3C3C DUP2 PUSH2 0x38E5 JUMP JUMPDEST SWAP1 POP SWAP2 SWAP1 POP JUMP JUMPDEST PUSH1 0x0 PUSH1 0x20 DUP3 ADD SWAP1 POP PUSH2 0x3C58 PUSH1 0x0 DUP4 ADD DUP5 PUSH2 0x3908 JUMP JUMPDEST SWAP3 SWAP2 POP POP JUMP JUMPDEST PUSH1 0x0 PUSH1 0x40 DUP3 ADD SWAP1 POP PUSH2 0x3C73 PUSH1 0x0 DUP4 ADD DUP6 PUSH2 0x3908 JUMP JUMPDEST PUSH2 0x3C80 PUSH1 0x20 DUP4 ADD DUP5 PUSH2 0x36AF JUMP JUMPDEST SWAP4 SWAP3 POP POP POP JUMP JUMPDEST PUSH1 0x0 PUSH1 0x40 DUP3 ADD SWAP1 POP PUSH2 0x3C9C PUSH1 0x0 DUP4 ADD DUP6 PUSH2 0x3908 JUMP JUMPDEST PUSH2 0x3CA9 PUSH1 0x20 DUP4 ADD DUP5 PUSH2 0x3908 JUMP JUMPDEST SWAP4 SWAP3 POP POP POP JUMP JUMPDEST PUSH1 0x0 DUP2 MLOAD SWAP1 POP SWAP2 SWAP1 POP JUMP JUMPDEST PUSH1 0x0 DUP2 MLOAD SWAP1 POP SWAP2 SWAP1 POP JUMP JUMPDEST PUSH1 0x0 DUP2 SWAP1 POP SWAP3 SWAP2 POP POP JUMP JUMPDEST PUSH1 0x0 DUP3 DUP3 MSTORE PUSH1 0x20 DUP3 ADD SWAP1 POP SWAP3 SWAP2 POP POP JUMP JUMPDEST PUSH1 0x0 PUSH2 0x3CED DUP3 PUSH2 0x3E6B JUMP JUMPDEST SWAP2 POP PUSH2 0x3CF8 DUP4 PUSH2 0x3E6B JUMP JUMPDEST SWAP3 POP DUP3 PUSH32 0xFFFFFFFFFFFFFFFFFFFFFFFFFFFFFFFFFFFFFFFFFFFFFFFFFFFFFFFFFFFFFFFF SUB DUP3 GT ISZERO PUSH2 0x3D2D JUMPI PUSH2 0x3D2C PUSH2 0x3F5D JUMP JUMPDEST JUMPDEST DUP3 DUP3 ADD SWAP1 POP SWAP3 SWAP2 POP POP JUMP JUMPDEST PUSH1 0x0 PUSH2 0x3D43 DUP3 PUSH2 0x3E6B JUMP JUMPDEST SWAP2 POP PUSH2 0x3D4E DUP4 PUSH2 0x3E6B JUMP JUMPDEST SWAP3 POP DUP3 PUSH2 0x3D5E JUMPI PUSH2 0x3D5D PUSH2 0x3F8C JUMP JUMPDEST JUMPDEST DUP3 DUP3 DIV SWAP1 POP SWAP3 SWAP2 POP POP JUMP JUMPDEST PUSH1 0x0 PUSH2 0x3D74 DUP3 PUSH2 0x3E6B JUMP JUMPDEST SWAP2 POP PUSH2 0x3D7F DUP4 PUSH2 0x3E6B JUMP JUMPDEST SWAP3 POP DUP2 PUSH32 0xFFFFFFFFFFFFFFFFFFFFFFFFFFFFFFFFFFFFFFFFFFFFFFFFFFFFFFFFFFFFFFFF DIV DUP4 GT DUP3 ISZERO ISZERO AND ISZERO PUSH2 0x3DB8 JUMPI PUSH2 0x3DB7 PUSH2 0x3F5D JUMP JUMPDEST JUMPDEST DUP3 DUP3 MUL SWAP1 POP SWAP3 SWAP2 POP POP JUMP JUMPDEST PUSH1 0x0 PUSH2 0x3DCE DUP3 PUSH2 0x3E6B JUMP JUMPDEST SWAP2 POP PUSH2 0x3DD9 DUP4 PUSH2 0x3E6B JUMP JUMPDEST SWAP3 POP DUP3 DUP3 LT ISZERO PUSH2 0x3DEC JUMPI PUSH2 0x3DEB PUSH2 0x3F5D JUMP JUMPDEST JUMPDEST DUP3 DUP3 SUB SWAP1 POP SWAP3 SWAP2 POP POP JUMP JUMPDEST PUSH1 0x0 PUSH2 0x3E02 DUP3 PUSH2 0x3E4B JUMP JUMPDEST SWAP1 POP SWAP2 SWAP1 POP JUMP JUMPDEST PUSH1 0x0 DUP2 ISZERO ISZERO SWAP1 POP SWAP2 SWAP1 POP JUMP JUMPDEST PUSH1 0x0 PUSH2 0x3E20 DUP3 PUSH2 0x3DF7 JUMP JUMPDEST SWAP1 POP SWAP2 SWAP1 POP JUMP JUMPDEST PUSH1 0x0 PUSH2 0x3E32 DUP3 PUSH2 0x3DF7 JUMP JUMPDEST SWAP1 POP SWAP2 SWAP1 POP JUMP JUMPDEST PUSH1 0x0 PUSH2 0x3E44 DUP3 PUSH2 0x3DF7 JUMP JUMPDEST SWAP1 POP SWAP2 SWAP1 POP JUMP JUMPDEST PUSH1 0x0 PUSH20 0xFFFFFFFFFFFFFFFFFFFFFFFFFFFFFFFFFFFFFFFF DUP3 AND SWAP1 POP SWAP2 SWAP1 POP JUMP JUMPDEST PUSH1 0x0 DUP2 SWAP1 POP SWAP2 SWAP1 POP JUMP JUMPDEST PUSH1 0x0 PUSH2 0x3E80 DUP3 PUSH2 0x3EBD JUMP JUMPDEST SWAP1 POP SWAP2 SWAP1 POP JUMP JUMPDEST PUSH1 0x0 PUSH2 0x3E92 DUP3 PUSH2 0x3EBD JUMP JUMPDEST SWAP1 POP SWAP2 SWAP1 POP JUMP JUMPDEST PUSH1 0x0 PUSH2 0x3EA4 DUP3 PUSH2 0x3EBD JUMP JUMPDEST SWAP1 POP SWAP2 SWAP1 POP JUMP JUMPDEST PUSH1 0x0 PUSH2 0x3EB6 DUP3 PUSH2 0x3EBD JUMP JUMPDEST SWAP1 POP SWAP2 SWAP1 POP JUMP JUMPDEST PUSH1 0x0 PUSH2 0x3EC8 DUP3 PUSH2 0x3ECF JUMP JUMPDEST SWAP1 POP SWAP2 SWAP1 POP JUMP JUMPDEST PUSH1 0x0 PUSH2 0x3EDA DUP3 PUSH2 0x3E4B JUMP JUMPDEST SWAP1 POP SWAP2 SWAP1 POP JUMP JUMPDEST PUSH1 0x0 JUMPDEST DUP4 DUP2 LT ISZERO PUSH2 0x3EFF JUMPI DUP1 DUP3 ADD MLOAD DUP2 DUP5 ADD MSTORE PUSH1 0x20 DUP2 ADD SWAP1 POP PUSH2 0x3EE4 JUMP JUMPDEST DUP4 DUP2 GT ISZERO PUSH2 0x3F0E JUMPI PUSH1 0x0 DUP5 DUP5 ADD MSTORE JUMPDEST POP POP POP POP JUMP JUMPDEST PUSH1 0x0 PUSH2 0x3F1F DUP3 PUSH2 0x3E6B JUMP JUMPDEST SWAP2 POP PUSH32 0xFFFFFFFFFFFFFFFFFFFFFFFFFFFFFFFFFFFFFFFFFFFFFFFFFFFFFFFFFFFFFFFF DUP3 EQ ISZERO PUSH2 0x3F52 JUMPI PUSH2 0x3F51 PUSH2 0x3F5D JUMP JUMPDEST JUMPDEST PUSH1 0x1 DUP3 ADD SWAP1 POP SWAP2 SWAP1 POP JUMP JUMPDEST PUSH32 0x4E487B7100000000000000000000000000000000000000000000000000000000 PUSH1 0x0 MSTORE PUSH1 0x11 PUSH1 0x4 MSTORE PUSH1 0x24 PUSH1 0x0 REVERT JUMPDEST PUSH32 0x4E487B7100000000000000000000000000000000000000000000000000000000 PUSH1 0x0 MSTORE PUSH1 0x12 PUSH1 0x4 MSTORE PUSH1 0x24 PUSH1 0x0 REVERT JUMPDEST PUSH32 0x4E487B7100000000000000000000000000000000000000000000000000000000 PUSH1 0x0 MSTORE PUSH1 0x32 PUSH1 0x4 MSTORE PUSH1 0x24 PUSH1 0x0 REVERT JUMPDEST PUSH1 0x0 DUP1 REVERT JUMPDEST PUSH1 0x0 PUSH1 0x1F NOT PUSH1 0x1F DUP4 ADD AND SWAP1 POP SWAP2 SWAP1 POP JUMP JUMPDEST PUSH32 0x4F776E61626C653A206E6577206F776E657220697320746865207A65726F2061 PUSH1 0x0 DUP3 ADD MSTORE PUSH32 0x6464726573730000000000000000000000000000000000000000000000000000 PUSH1 0x20 DUP3 ADD MSTORE POP JUMP JUMPDEST PUSH32 0x536166654D6174683A206164646974696F6E206F766572666C6F770000000000 PUSH1 0x0 DUP3 ADD MSTORE POP JUMP JUMPDEST PUSH32 0x416464726573733A20696E73756666696369656E742062616C616E636520666F PUSH1 0x0 DUP3 ADD MSTORE PUSH32 0x722063616C6C0000000000000000000000000000000000000000000000000000 PUSH1 0x20 DUP3 ADD MSTORE POP JUMP JUMPDEST PUSH32 0x416D6F756E74206973207A65726F000000000000000000000000000000000000 PUSH1 0x0 DUP3 ADD MSTORE POP JUMP JUMPDEST PUSH32 0x536166654D6174683A206D756C7469706C69636174696F6E206F766572666C6F PUSH1 0x0 DUP3 ADD MSTORE PUSH32 0x7700000000000000000000000000000000000000000000000000000000000000 PUSH1 0x20 DUP3 ADD MSTORE POP JUMP JUMPDEST PUSH32 0x4F776E61626C653A2063616C6C6572206973206E6F7420746865206F776E6572 PUSH1 0x0 DUP3 ADD MSTORE POP JUMP JUMPDEST PUSH32 0x416464726573733A2063616C6C20746F206E6F6E2D636F6E7472616374000000 PUSH1 0x0 DUP3 ADD MSTORE POP JUMP JUMPDEST PUSH32 0x77697468647261773A206E6F7420676F6F640000000000000000000000000000 PUSH1 0x0 DUP3 ADD MSTORE POP JUMP JUMPDEST PUSH32 0x5361666545524332303A204552433230206F7065726174696F6E20646964206E PUSH1 0x0 DUP3 ADD MSTORE PUSH32 0x6F74207375636365656400000000000000000000000000000000000000000000 PUSH1 0x20 DUP3 ADD MSTORE POP JUMP JUMPDEST PUSH32 0x6D6967726174653A206261640000000000000000000000000000000000000000 PUSH1 0x0 DUP3 ADD MSTORE POP JUMP JUMPDEST PUSH32 0x5361666545524332303A20617070726F76652066726F6D206E6F6E2D7A65726F PUSH1 0x0 DUP3 ADD MSTORE PUSH32 0x20746F206E6F6E2D7A65726F20616C6C6F77616E636500000000000000000000 PUSH1 0x20 DUP3 ADD MSTORE POP JUMP JUMPDEST PUSH32 0x6D6967726174653A206E6F206D69677261746F72000000000000000000000000 PUSH1 0x0 DUP3 ADD MSTORE POP JUMP JUMPDEST PUSH2 0x42B3 DUP2 PUSH2 0x3DF7 JUMP JUMPDEST DUP2 EQ PUSH2 0x42BE JUMPI PUSH1 0x0 DUP1 REVERT JUMPDEST POP JUMP JUMPDEST PUSH2 0x42CA DUP2 PUSH2 0x3E09 JUMP JUMPDEST DUP2 EQ PUSH2 0x42D5 JUMPI PUSH1 0x0 DUP1 REVERT JUMPDEST POP JUMP JUMPDEST PUSH2 0x42E1 DUP2 PUSH2 0x3E15 JUMP JUMPDEST DUP2 EQ PUSH2 0x42EC JUMPI PUSH1 0x0 DUP1 REVERT JUMPDEST POP JUMP JUMPDEST PUSH2 0x42F8 DUP2 PUSH2 0x3E27 JUMP JUMPDEST DUP2 EQ PUSH2 0x4303 JUMPI PUSH1 0x0 DUP1 REVERT JUMPDEST POP JUMP JUMPDEST PUSH2 0x430F DUP2 PUSH2 0x3E39 JUMP JUMPDEST DUP2 EQ PUSH2 0x431A JUMPI PUSH1 0x0 DUP1 REVERT JUMPDEST POP JUMP JUMPDEST PUSH2 0x4326 DUP2 PUSH2 0x3E6B JUMP JUMPDEST DUP2 EQ PUSH2 0x4331 JUMPI PUSH1 0x0 DUP1 REVERT JUMPDEST POP JUMP INVALID LOG2 PUSH5 0x6970667358 0x22 SLT KECCAK256 0x2F 0xCC CALLDATACOPY SLT 0xC0 0xE4 SWAP6 0xE CALLDATASIZE POP 0xDC 0xBF GASLIMIT 0xED 0x5F LOG3 MOD SWAP14 0x21 0xDC SHR 0xDD SWAP10 0x21 XOR SWAP13 RETURN 0xAA SHR SGT MUL SAR PUSH5 0x736F6C6343 STOP ADDMOD SMOD STOP CALLER "
				},
				"gasEstimates": {
					"creation": {
						"codeDepositCost": "3451600",
						"executionCost": "infinite",
						"totalCost": "infinite"
					},
					"external": {
						"BONUS_MULTIPLIER()": "2541",
						"DDT()": "2645",
						"DDTPerBlock()": "2561",
						"NFTMasterChef()": "2666",
						"add(uint256,address,bool,address,address,uint256,uint256)": "infinite",
						"compundDDT(uint256)": "infinite",
						"deposit(uint256,uint256,uint256)": "infinite",
						"devaddr()": "2558",
						"emergencyWithdraw(uint256)": "infinite",
						"emergencyWithdrawFromOtherChef(uint256)": "infinite",
						"enablePool(uint256)": "infinite",
						"getMultiplier(uint256,uint256)": "infinite",
						"getUserBalance(uint256,address)": "infinite",
						"massUpdatePools()": "infinite",
						"migrate(uint256)": "infinite",
						"migrator()": "2690",
						"owner()": "2567",
						"pendingDDT(uint256,address)": "infinite",
						"poolBalance(uint256)": "infinite",
						"poolInfo(uint256)": "infinite",
						"poolLength()": "2514",
						"renounceOwnership()": "30442",
						"set(uint256,uint256,bool)": "infinite",
						"setDevAddress(address)": "27051",
						"setMigrator(address)": "27095",
						"startBlock()": "2475",
						"totalAllocPoint()": "2475",
						"transferOwnership(address)": "30833",
						"updateDDTPerBlock(uint256)": "24805",
						"updateMultiplier(uint256)": "24872",
						"updatePool(uint256)": "infinite",
						"userInfo(uint256,address)": "infinite",
						"withdraw(uint256,uint256,uint256)": "infinite"
					},
					"internal": {
						"safeDDTTransfer(address,uint256)": "infinite"
					}
				},
				"methodIdentifiers": {
					"BONUS_MULTIPLIER()": "8aa28550",
					"DDT()": "cb3cba55",
					"DDTPerBlock()": "f395db2c",
					"NFTMasterChef()": "e4d09896",
					"add(uint256,address,bool,address,address,uint256,uint256)": "64944193",
					"compundDDT(uint256)": "1395d8c9",
					"deposit(uint256,uint256,uint256)": "00aeef8a",
					"devaddr()": "d49e77cd",
					"emergencyWithdraw(uint256)": "5312ea8e",
					"emergencyWithdrawFromOtherChef(uint256)": "d1634b8f",
					"enablePool(uint256)": "eeac3ae8",
					"getMultiplier(uint256,uint256)": "8dbb1e3a",
					"getUserBalance(uint256,address)": "cdfb6cf3",
					"massUpdatePools()": "630b5ba1",
					"migrate(uint256)": "454b0608",
					"migrator()": "7cd07e47",
					"owner()": "8da5cb5b",
					"pendingDDT(uint256,address)": "2080baab",
					"poolBalance(uint256)": "6a6d964e",
					"poolInfo(uint256)": "1526fe27",
					"poolLength()": "081e3eda",
					"renounceOwnership()": "715018a6",
					"set(uint256,uint256,bool)": "64482f79",
					"setDevAddress(address)": "d0d41fe1",
					"setMigrator(address)": "23cf3118",
					"startBlock()": "48cd4cb1",
					"totalAllocPoint()": "17caf6f1",
					"transferOwnership(address)": "f2fde38b",
					"updateDDTPerBlock(uint256)": "612eee43",
					"updateMultiplier(uint256)": "5ffe6146",
					"updatePool(uint256)": "51eb05a6",
					"userInfo(uint256,address)": "93f1a40b",
					"withdraw(uint256,uint256,uint256)": "a41fe49f"
				}
			},
			"storageLayout": {
				"storage": [
					{
						"astId": 820,
						"contract": "contracts/DDTMasterChef.sol:DDTMasterChef",
						"label": "_owner",
						"offset": 0,
						"slot": "0",
						"type": "t_address"
					},
					{
						"astId": 1034,
						"contract": "contracts/DDTMasterChef.sol:DDTMasterChef",
						"label": "DDT",
						"offset": 0,
						"slot": "1",
						"type": "t_contract(IERC20)286"
					},
					{
						"astId": 1036,
						"contract": "contracts/DDTMasterChef.sol:DDTMasterChef",
						"label": "devaddr",
						"offset": 0,
						"slot": "2",
						"type": "t_address"
					},
					{
						"astId": 1038,
						"contract": "contracts/DDTMasterChef.sol:DDTMasterChef",
						"label": "DDTPerBlock",
						"offset": 0,
						"slot": "3",
						"type": "t_uint256"
					},
					{
						"astId": 1041,
						"contract": "contracts/DDTMasterChef.sol:DDTMasterChef",
						"label": "BONUS_MULTIPLIER",
						"offset": 0,
						"slot": "4",
						"type": "t_uint256"
					},
					{
						"astId": 1044,
						"contract": "contracts/DDTMasterChef.sol:DDTMasterChef",
						"label": "migrator",
						"offset": 0,
						"slot": "5",
						"type": "t_contract(IMigratorChef)997"
					},
					{
						"astId": 1048,
						"contract": "contracts/DDTMasterChef.sol:DDTMasterChef",
						"label": "poolInfo",
						"offset": 0,
						"slot": "6",
						"type": "t_array(t_struct(PoolInfo)1031_storage)dyn_storage"
					},
					{
						"astId": 1055,
						"contract": "contracts/DDTMasterChef.sol:DDTMasterChef",
						"label": "userInfo",
						"offset": 0,
						"slot": "7",
						"type": "t_mapping(t_uint256,t_mapping(t_address,t_struct(UserInfo)1011_storage))"
					},
					{
						"astId": 1058,
						"contract": "contracts/DDTMasterChef.sol:DDTMasterChef",
						"label": "totalAllocPoint",
						"offset": 0,
						"slot": "8",
						"type": "t_uint256"
					},
					{
						"astId": 1060,
						"contract": "contracts/DDTMasterChef.sol:DDTMasterChef",
						"label": "startBlock",
						"offset": 0,
						"slot": "9",
						"type": "t_uint256"
					},
					{
						"astId": 1064,
						"contract": "contracts/DDTMasterChef.sol:DDTMasterChef",
						"label": "poolBalance",
						"offset": 0,
						"slot": "10",
						"type": "t_mapping(t_uint256,t_uint256)"
					},
					{
						"astId": 1067,
						"contract": "contracts/DDTMasterChef.sol:DDTMasterChef",
						"label": "approveAmount",
						"offset": 0,
						"slot": "11",
						"type": "t_uint256"
					},
					{
						"astId": 1073,
						"contract": "contracts/DDTMasterChef.sol:DDTMasterChef",
						"label": "percent",
						"offset": 0,
						"slot": "12",
						"type": "t_uint256"
					},
					{
						"astId": 1076,
						"contract": "contracts/DDTMasterChef.sol:DDTMasterChef",
						"label": "NFTMasterChef",
						"offset": 0,
						"slot": "13",
						"type": "t_contract(INFTMasterchef)987"
					}
				],
				"types": {
					"t_address": {
						"encoding": "inplace",
						"label": "address",
						"numberOfBytes": "20"
					},
					"t_array(t_struct(PoolInfo)1031_storage)dyn_storage": {
						"base": "t_struct(PoolInfo)1031_storage",
						"encoding": "dynamic_array",
						"label": "struct DDTMasterChef.PoolInfo[]",
						"numberOfBytes": "32"
					},
					"t_contract(IERC20)286": {
						"encoding": "inplace",
						"label": "contract IERC20",
						"numberOfBytes": "20"
					},
					"t_contract(IMasterChef)971": {
						"encoding": "inplace",
						"label": "contract IMasterChef",
						"numberOfBytes": "20"
					},
					"t_contract(IMigratorChef)997": {
						"encoding": "inplace",
						"label": "contract IMigratorChef",
						"numberOfBytes": "20"
					},
					"t_contract(INFTMasterchef)987": {
						"encoding": "inplace",
						"label": "contract INFTMasterchef",
						"numberOfBytes": "20"
					},
					"t_mapping(t_address,t_struct(UserInfo)1011_storage)": {
						"encoding": "mapping",
						"key": "t_address",
						"label": "mapping(address => struct DDTMasterChef.UserInfo)",
						"numberOfBytes": "32",
						"value": "t_struct(UserInfo)1011_storage"
					},
					"t_mapping(t_uint256,t_mapping(t_address,t_struct(UserInfo)1011_storage))": {
						"encoding": "mapping",
						"key": "t_uint256",
						"label": "mapping(uint256 => mapping(address => struct DDTMasterChef.UserInfo))",
						"numberOfBytes": "32",
						"value": "t_mapping(t_address,t_struct(UserInfo)1011_storage)"
					},
					"t_mapping(t_uint256,t_uint256)": {
						"encoding": "mapping",
						"key": "t_uint256",
						"label": "mapping(uint256 => uint256)",
						"numberOfBytes": "32",
						"value": "t_uint256"
					},
					"t_struct(PoolInfo)1031_storage": {
						"encoding": "inplace",
						"label": "struct DDTMasterChef.PoolInfo",
						"members": [
							{
								"astId": 1014,
								"contract": "contracts/DDTMasterChef.sol:DDTMasterChef",
								"label": "lpToken",
								"offset": 0,
								"slot": "0",
								"type": "t_contract(IERC20)286"
							},
							{
								"astId": 1016,
								"contract": "contracts/DDTMasterChef.sol:DDTMasterChef",
								"label": "allocPoint",
								"offset": 0,
								"slot": "1",
								"type": "t_uint256"
							},
							{
								"astId": 1018,
								"contract": "contracts/DDTMasterChef.sol:DDTMasterChef",
								"label": "lastRewardBlock",
								"offset": 0,
								"slot": "2",
								"type": "t_uint256"
							},
							{
								"astId": 1020,
								"contract": "contracts/DDTMasterChef.sol:DDTMasterChef",
								"label": "accDDTPerShare",
								"offset": 0,
								"slot": "3",
								"type": "t_uint256"
							},
							{
								"astId": 1023,
								"contract": "contracts/DDTMasterChef.sol:DDTMasterChef",
								"label": "poolMasterChef",
								"offset": 0,
								"slot": "4",
								"type": "t_contract(IMasterChef)971"
							},
							{
								"astId": 1026,
								"contract": "contracts/DDTMasterChef.sol:DDTMasterChef",
								"label": "rewardToken",
								"offset": 0,
								"slot": "5",
								"type": "t_contract(IERC20)286"
							},
							{
								"astId": 1028,
								"contract": "contracts/DDTMasterChef.sol:DDTMasterChef",
								"label": "fee",
								"offset": 0,
								"slot": "6",
								"type": "t_uint256"
							},
							{
								"astId": 1030,
								"contract": "contracts/DDTMasterChef.sol:DDTMasterChef",
								"label": "method",
								"offset": 0,
								"slot": "7",
								"type": "t_uint256"
							}
						],
						"numberOfBytes": "256"
					},
					"t_struct(UserInfo)1011_storage": {
						"encoding": "inplace",
						"label": "struct DDTMasterChef.UserInfo",
						"members": [
							{
								"astId": 1008,
								"contract": "contracts/DDTMasterChef.sol:DDTMasterChef",
								"label": "amount",
								"offset": 0,
								"slot": "0",
								"type": "t_uint256"
							},
							{
								"astId": 1010,
								"contract": "contracts/DDTMasterChef.sol:DDTMasterChef",
								"label": "rewardDebt",
								"offset": 0,
								"slot": "1",
								"type": "t_uint256"
							}
						],
						"numberOfBytes": "64"
					},
					"t_uint256": {
						"encoding": "inplace",
						"label": "uint256",
						"numberOfBytes": "32"
					}
				}
			},
			"userdoc": {
				"kind": "user",
				"methods": {},
				"version": 1
			}
		}
	}
}