{
	"contracts/NFTStake.sol": {
		"NFTStake": {
			"abi": [
				{
					"inputs": [
						{
							"internalType": "contract IERC20",
							"name": "_DDT",
							"type": "address"
						},
						{
							"internalType": "contract INFTMasterChef",
							"name": "_NFTMasterChef",
							"type": "address"
						},
						{
							"internalType": "address",
							"name": "_devaddr",
							"type": "address"
						},
						{
							"internalType": "uint256",
							"name": "_DDTPerBlock",
							"type": "uint256"
						},
						{
							"internalType": "uint256",
							"name": "_startBlock",
							"type": "uint256"
						}
					],
					"stateMutability": "nonpayable",
					"type": "constructor"
				},
				{
					"anonymous": false,
					"inputs": [
						{
							"indexed": true,
							"internalType": "address",
							"name": "user",
							"type": "address"
						},
						{
							"indexed": true,
							"internalType": "uint256",
							"name": "pid",
							"type": "uint256"
						},
						{
							"indexed": false,
							"internalType": "uint256",
							"name": "amount",
							"type": "uint256"
						}
					],
					"name": "Deposit",
					"type": "event"
				},
				{
					"anonymous": false,
					"inputs": [
						{
							"indexed": true,
							"internalType": "address",
							"name": "user",
							"type": "address"
						},
						{
							"indexed": true,
							"internalType": "uint256",
							"name": "pid",
							"type": "uint256"
						},
						{
							"indexed": false,
							"internalType": "uint256",
							"name": "amount",
							"type": "uint256"
						}
					],
					"name": "EmergencyWithdraw",
					"type": "event"
				},
				{
					"anonymous": false,
					"inputs": [
						{
							"indexed": true,
							"internalType": "address",
							"name": "previousOwner",
							"type": "address"
						},
						{
							"indexed": true,
							"internalType": "address",
							"name": "newOwner",
							"type": "address"
						}
					],
					"name": "OwnershipTransferred",
					"type": "event"
				},
				{
					"anonymous": false,
					"inputs": [
						{
							"indexed": true,
							"internalType": "address",
							"name": "user",
							"type": "address"
						},
						{
							"indexed": true,
							"internalType": "uint256",
							"name": "pid",
							"type": "uint256"
						},
						{
							"indexed": false,
							"internalType": "uint256",
							"name": "amount",
							"type": "uint256"
						}
					],
					"name": "Withdraw",
					"type": "event"
				},
				{
					"inputs": [],
					"name": "BONUS_MULTIPLIER",
					"outputs": [
						{
							"internalType": "uint256",
							"name": "",
							"type": "uint256"
						}
					],
					"stateMutability": "view",
					"type": "function"
				},
				{
					"inputs": [],
					"name": "DDT",
					"outputs": [
						{
							"internalType": "contract IERC20",
							"name": "",
							"type": "address"
						}
					],
					"stateMutability": "view",
					"type": "function"
				},
				{
					"inputs": [],
					"name": "DDTPerBlock",
					"outputs": [
						{
							"internalType": "uint256",
							"name": "",
							"type": "uint256"
						}
					],
					"stateMutability": "view",
					"type": "function"
				},
				{
					"inputs": [],
					"name": "NFTMasterChef",
					"outputs": [
						{
							"internalType": "contract INFTMasterChef",
							"name": "",
							"type": "address"
						}
					],
					"stateMutability": "view",
					"type": "function"
				},
				{
					"inputs": [
						{
							"internalType": "uint256",
							"name": "_allocPoint",
							"type": "uint256"
						},
						{
							"internalType": "contract IERC721",
							"name": "_NFTToken",
							"type": "address"
						},
						{
							"internalType": "bool",
							"name": "_withUpdate",
							"type": "bool"
						}
					],
					"name": "add",
					"outputs": [],
					"stateMutability": "nonpayable",
					"type": "function"
				},
				{
					"inputs": [
						{
							"internalType": "uint256",
							"name": "_pid",
							"type": "uint256"
						}
					],
					"name": "compundDDT",
					"outputs": [],
					"stateMutability": "nonpayable",
					"type": "function"
				},
				{
					"inputs": [
						{
							"internalType": "uint256",
							"name": "_pid",
							"type": "uint256"
						},
						{
							"internalType": "uint256",
							"name": "_tokenId",
							"type": "uint256"
						}
					],
					"name": "deposit",
					"outputs": [],
					"stateMutability": "nonpayable",
					"type": "function"
				},
				{
					"inputs": [],
					"name": "devaddr",
					"outputs": [
						{
							"internalType": "address",
							"name": "",
							"type": "address"
						}
					],
					"stateMutability": "view",
					"type": "function"
				},
				{
					"inputs": [
						{
							"internalType": "uint256",
							"name": "_from",
							"type": "uint256"
						},
						{
							"internalType": "uint256",
							"name": "_to",
							"type": "uint256"
						}
					],
					"name": "getMultiplier",
					"outputs": [
						{
							"internalType": "uint256",
							"name": "",
							"type": "uint256"
						}
					],
					"stateMutability": "view",
					"type": "function"
				},
				{
					"inputs": [
						{
							"internalType": "uint256",
							"name": "_pid",
							"type": "uint256"
						},
						{
							"internalType": "address",
							"name": "_user",
							"type": "address"
						}
					],
					"name": "getUserTokenIds",
					"outputs": [
						{
							"internalType": "uint256[]",
							"name": "",
							"type": "uint256[]"
						}
					],
					"stateMutability": "view",
					"type": "function"
				},
				{
					"inputs": [],
					"name": "massUpdatePools",
					"outputs": [],
					"stateMutability": "nonpayable",
					"type": "function"
				},
				{
					"inputs": [],
					"name": "migrator",
					"outputs": [
						{
							"internalType": "contract IMigratorChef",
							"name": "",
							"type": "address"
						}
					],
					"stateMutability": "view",
					"type": "function"
				},
				{
					"inputs": [
						{
							"internalType": "address",
							"name": "",
							"type": "address"
						},
						{
							"internalType": "address",
							"name": "",
							"type": "address"
						},
						{
							"internalType": "uint256",
							"name": "",
							"type": "uint256"
						},
						{
							"internalType": "bytes",
							"name": "",
							"type": "bytes"
						}
					],
					"name": "onERC721Received",
					"outputs": [
						{
							"internalType": "bytes4",
							"name": "",
							"type": "bytes4"
						}
					],
					"stateMutability": "nonpayable",
					"type": "function"
				},
				{
					"inputs": [],
					"name": "owner",
					"outputs": [
						{
							"internalType": "address",
							"name": "",
							"type": "address"
						}
					],
					"stateMutability": "view",
					"type": "function"
				},
				{
					"inputs": [
						{
							"internalType": "uint256",
							"name": "_pid",
							"type": "uint256"
						},
						{
							"internalType": "address",
							"name": "_user",
							"type": "address"
						}
					],
					"name": "pendingDDT",
					"outputs": [
						{
							"internalType": "uint256",
							"name": "",
							"type": "uint256"
						}
					],
					"stateMutability": "view",
					"type": "function"
				},
				{
					"inputs": [
						{
							"internalType": "uint256",
							"name": "",
							"type": "uint256"
						}
					],
					"name": "poolInfo",
					"outputs": [
						{
							"internalType": "contract IERC721",
							"name": "NFTToken",
							"type": "address"
						},
						{
							"internalType": "uint256",
							"name": "allocPoint",
							"type": "uint256"
						},
						{
							"internalType": "uint256",
							"name": "lastRewardBlock",
							"type": "uint256"
						},
						{
							"internalType": "uint256",
							"name": "accDDTPerShare",
							"type": "uint256"
						}
					],
					"stateMutability": "view",
					"type": "function"
				},
				{
					"inputs": [],
					"name": "poolLength",
					"outputs": [
						{
							"internalType": "uint256",
							"name": "",
							"type": "uint256"
						}
					],
					"stateMutability": "view",
					"type": "function"
				},
				{
					"inputs": [],
					"name": "renounceOwnership",
					"outputs": [],
					"stateMutability": "nonpayable",
					"type": "function"
				},
				{
					"inputs": [
						{
							"internalType": "uint256",
							"name": "_pid",
							"type": "uint256"
						},
						{
							"internalType": "uint256",
							"name": "_allocPoint",
							"type": "uint256"
						},
						{
							"internalType": "bool",
							"name": "_withUpdate",
							"type": "bool"
						}
					],
					"name": "set",
					"outputs": [],
					"stateMutability": "nonpayable",
					"type": "function"
				},
				{
					"inputs": [
						{
							"internalType": "address",
							"name": "_devaddr",
							"type": "address"
						}
					],
					"name": "setDevAddress",
					"outputs": [],
					"stateMutability": "nonpayable",
					"type": "function"
				},
				{
					"inputs": [
						{
							"internalType": "contract IMigratorChef",
							"name": "_migrator",
							"type": "address"
						}
					],
					"name": "setMigrator",
					"outputs": [],
					"stateMutability": "nonpayable",
					"type": "function"
				},
				{
					"inputs": [],
					"name": "startBlock",
					"outputs": [
						{
							"internalType": "uint256",
							"name": "",
							"type": "uint256"
						}
					],
					"stateMutability": "view",
					"type": "function"
				},
				{
					"inputs": [],
					"name": "totalAllocPoint",
					"outputs": [
						{
							"internalType": "uint256",
							"name": "",
							"type": "uint256"
						}
					],
					"stateMutability": "view",
					"type": "function"
				},
				{
					"inputs": [
						{
							"internalType": "address",
							"name": "newOwner",
							"type": "address"
						}
					],
					"name": "transferOwnership",
					"outputs": [],
					"stateMutability": "nonpayable",
					"type": "function"
				},
				{
					"inputs": [
						{
							"internalType": "uint256",
							"name": "newAmount",
							"type": "uint256"
						}
					],
					"name": "updateDDTPerBlock",
					"outputs": [],
					"stateMutability": "nonpayable",
					"type": "function"
				},
				{
					"inputs": [
						{
							"internalType": "uint256",
							"name": "multiplierNumber",
							"type": "uint256"
						}
					],
					"name": "updateMultiplier",
					"outputs": [],
					"stateMutability": "nonpayable",
					"type": "function"
				},
				{
					"inputs": [
						{
							"internalType": "uint256",
							"name": "_pid",
							"type": "uint256"
						}
					],
					"name": "updatePool",
					"outputs": [],
					"stateMutability": "nonpayable",
					"type": "function"
				},
				{
					"inputs": [
						{
							"internalType": "uint256",
							"name": "",
							"type": "uint256"
						},
						{
							"internalType": "address",
							"name": "",
							"type": "address"
						}
					],
					"name": "userInfo",
					"outputs": [
						{
							"internalType": "uint256",
							"name": "amount",
							"type": "uint256"
						},
						{
							"internalType": "uint256",
							"name": "rewardDebt",
							"type": "uint256"
						}
					],
					"stateMutability": "view",
					"type": "function"
				},
				{
					"inputs": [
						{
							"internalType": "uint256",
							"name": "_pid",
							"type": "uint256"
						},
						{
							"internalType": "uint256",
							"name": "_tokenId",
							"type": "uint256"
						}
					],
					"name": "withdraw",
					"outputs": [],
					"stateMutability": "nonpayable",
					"type": "function"
				}
			],
			"devdoc": {
				"kind": "dev",
				"methods": {
					"owner()": {
						"details": "Returns the address of the current owner."
					},
					"renounceOwnership()": {
						"details": "Leaves the contract without owner. It will not be possible to call `onlyOwner` functions anymore. Can only be called by the current owner. NOTE: Renouncing ownership will leave the contract without an owner, thereby removing any functionality that is only available to the owner."
					},
					"transferOwnership(address)": {
						"details": "Transfers ownership of the contract to a new account (`newOwner`). Can only be called by the current owner."
					}
				},
				"version": 1
			},
			"evm": {
				"assembly": "    /* \"contracts/NFTStake.sol\":28007:38495  contract NFTStake is Ownable, IERC721Receiver {... */\n  mstore(0x40, 0x80)\n    /* \"contracts/NFTStake.sol\":29672:29673  1 */\n  0x01\n    /* \"contracts/NFTStake.sol\":29638:29673  uint256 public BONUS_MULTIPLIER = 1 */\n  0x05\n  sstore\n    /* \"contracts/NFTStake.sol\":30113:30114  0 */\n  0x00\n    /* \"contracts/NFTStake.sol\":30080:30114  uint256 public totalAllocPoint = 0 */\n  0x09\n  sstore\n    /* \"contracts/NFTStake.sol\":30488:30828  constructor(... */\n  callvalue\n  dup1\n  iszero\n  tag_1\n  jumpi\n  0x00\n  dup1\n  revert\ntag_1:\n  pop\n  mload(0x40)\n  sub(codesize, bytecodeSize)\n  dup1\n  bytecodeSize\n  dup4\n  codecopy\n  dup2\n  dup2\n  add\n  0x40\n  mstore\n  dup2\n  add\n  swap1\n  tag_2\n  swap2\n  swap1\n  tag_3\n  jump\t// in\ntag_2:\n    /* \"contracts/NFTStake.sol\":20054:20086  _transferOwnership(_msgSender()) */\n  tag_7\n    /* \"contracts/NFTStake.sol\":20073:20085  _msgSender() */\n  tag_8\n    /* \"contracts/NFTStake.sol\":20073:20083  _msgSender */\n  shl(0x20, tag_9)\n    /* \"contracts/NFTStake.sol\":20073:20085  _msgSender() */\n  0x20\n  shr\n  jump\t// in\ntag_8:\n    /* \"contracts/NFTStake.sol\":20054:20072  _transferOwnership */\n  shl(0x20, tag_10)\n    /* \"contracts/NFTStake.sol\":20054:20086  _transferOwnership(_msgSender()) */\n  0x20\n  shr\n  jump\t// in\ntag_7:\n    /* \"contracts/NFTStake.sol\":30674:30678  _DDT */\n  dup5\n    /* \"contracts/NFTStake.sol\":30668:30671  DDT */\n  0x02\n  0x00\n    /* \"contracts/NFTStake.sol\":30668:30678  DDT = _DDT */\n  0x0100\n  exp\n  dup2\n  sload\n  dup2\n  0xffffffffffffffffffffffffffffffffffffffff\n  mul\n  not\n  and\n  swap1\n  dup4\n  0xffffffffffffffffffffffffffffffffffffffff\n  and\n  mul\n  or\n  swap1\n  sstore\n  pop\n    /* \"contracts/NFTStake.sol\":30705:30719  _NFTMasterChef */\n  dup4\n    /* \"contracts/NFTStake.sol\":30689:30702  NFTMasterChef */\n  0x01\n  0x00\n    /* \"contracts/NFTStake.sol\":30689:30719  NFTMasterChef = _NFTMasterChef */\n  0x0100\n  exp\n  dup2\n  sload\n  dup2\n  0xffffffffffffffffffffffffffffffffffffffff\n  mul\n  not\n  and\n  swap1\n  dup4\n  0xffffffffffffffffffffffffffffffffffffffff\n  and\n  mul\n  or\n  swap1\n  sstore\n  pop\n    /* \"contracts/NFTStake.sol\":30740:30748  _devaddr */\n  dup3\n    /* \"contracts/NFTStake.sol\":30730:30737  devaddr */\n  0x03\n  0x00\n    /* \"contracts/NFTStake.sol\":30730:30748  devaddr = _devaddr */\n  0x0100\n  exp\n  dup2\n  sload\n  dup2\n  0xffffffffffffffffffffffffffffffffffffffff\n  mul\n  not\n  and\n  swap1\n  dup4\n  0xffffffffffffffffffffffffffffffffffffffff\n  and\n  mul\n  or\n  swap1\n  sstore\n  pop\n    /* \"contracts/NFTStake.sol\":30773:30785  _DDTPerBlock */\n  dup2\n    /* \"contracts/NFTStake.sol\":30759:30770  DDTPerBlock */\n  0x04\n    /* \"contracts/NFTStake.sol\":30759:30785  DDTPerBlock = _DDTPerBlock */\n  dup2\n  swap1\n  sstore\n  pop\n    /* \"contracts/NFTStake.sol\":30809:30820  _startBlock */\n  dup1\n    /* \"contracts/NFTStake.sol\":30796:30806  startBlock */\n  0x0a\n    /* \"contracts/NFTStake.sol\":30796:30820  startBlock = _startBlock */\n  dup2\n  swap1\n  sstore\n  pop\n    /* \"contracts/NFTStake.sol\":30488:30828  constructor(... */\n  pop\n  pop\n  pop\n  pop\n  pop\n    /* \"contracts/NFTStake.sol\":28007:38495  contract NFTStake is Ownable, IERC721Receiver {... */\n  jump(tag_12)\n    /* \"contracts/NFTStake.sol\":19549:19647  function _msgSender() internal view virtual returns (address) {... */\ntag_9:\n    /* \"contracts/NFTStake.sol\":19602:19609  address */\n  0x00\n    /* \"contracts/NFTStake.sol\":19629:19639  msg.sender */\n  caller\n    /* \"contracts/NFTStake.sol\":19622:19639  return msg.sender */\n  swap1\n  pop\n    /* \"contracts/NFTStake.sol\":19549:19647  function _msgSender() internal view virtual returns (address) {... */\n  swap1\n  jump\t// out\n    /* \"contracts/NFTStake.sol\":21445:21636  function _transferOwnership(address newOwner) internal virtual {... */\ntag_10:\n    /* \"contracts/NFTStake.sol\":21519:21535  address oldOwner */\n  0x00\n    /* \"contracts/NFTStake.sol\":21538:21544  _owner */\n  dup1\n  0x00\n  swap1\n  sload\n  swap1\n  0x0100\n  exp\n  swap1\n  div\n  0xffffffffffffffffffffffffffffffffffffffff\n  and\n    /* \"contracts/NFTStake.sol\":21519:21544  address oldOwner = _owner */\n  swap1\n  pop\n    /* \"contracts/NFTStake.sol\":21564:21572  newOwner */\n  dup2\n    /* \"contracts/NFTStake.sol\":21555:21561  _owner */\n  0x00\n  dup1\n    /* \"contracts/NFTStake.sol\":21555:21572  _owner = newOwner */\n  0x0100\n  exp\n  dup2\n  sload\n  dup2\n  0xffffffffffffffffffffffffffffffffffffffff\n  mul\n  not\n  and\n  swap1\n  dup4\n  0xffffffffffffffffffffffffffffffffffffffff\n  and\n  mul\n  or\n  swap1\n  sstore\n  pop\n    /* \"contracts/NFTStake.sol\":21619:21627  newOwner */\n  dup2\n    /* \"contracts/NFTStake.sol\":21588:21628  OwnershipTransferred(oldOwner, newOwner) */\n  0xffffffffffffffffffffffffffffffffffffffff\n  and\n    /* \"contracts/NFTStake.sol\":21609:21617  oldOwner */\n  dup2\n    /* \"contracts/NFTStake.sol\":21588:21628  OwnershipTransferred(oldOwner, newOwner) */\n  0xffffffffffffffffffffffffffffffffffffffff\n  and\n  0x8be0079c531659141344cd1fd0a4f28419497f9722a3daafe3b4186f6b6457e0\n  mload(0x40)\n  mload(0x40)\n  dup1\n  swap2\n  sub\n  swap1\n  log3\n    /* \"contracts/NFTStake.sol\":21508:21636  {... */\n  pop\n    /* \"contracts/NFTStake.sol\":21445:21636  function _transferOwnership(address newOwner) internal virtual {... */\n  pop\n  jump\t// out\n    /* \"#utility.yul\":88:205   */\ntag_16:\n    /* \"#utility.yul\":197:198   */\n  0x00\n    /* \"#utility.yul\":194:195   */\n  dup1\n    /* \"#utility.yul\":187:199   */\n  revert\n    /* \"#utility.yul\":334:460   */\ntag_18:\n    /* \"#utility.yul\":371:378   */\n  0x00\n    /* \"#utility.yul\":411:453   */\n  0xffffffffffffffffffffffffffffffffffffffff\n    /* \"#utility.yul\":404:409   */\n  dup3\n    /* \"#utility.yul\":400:454   */\n  and\n    /* \"#utility.yul\":389:454   */\n  swap1\n  pop\n    /* \"#utility.yul\":334:460   */\n  swap2\n  swap1\n  pop\n  jump\t// out\n    /* \"#utility.yul\":466:562   */\ntag_19:\n    /* \"#utility.yul\":503:510   */\n  0x00\n    /* \"#utility.yul\":532:556   */\n  tag_37\n    /* \"#utility.yul\":550:555   */\n  dup3\n    /* \"#utility.yul\":532:556   */\n  tag_18\n  jump\t// in\ntag_37:\n    /* \"#utility.yul\":521:556   */\n  swap1\n  pop\n    /* \"#utility.yul\":466:562   */\n  swap2\n  swap1\n  pop\n  jump\t// out\n    /* \"#utility.yul\":568:678   */\ntag_20:\n    /* \"#utility.yul\":619:626   */\n  0x00\n    /* \"#utility.yul\":648:672   */\n  tag_39\n    /* \"#utility.yul\":666:671   */\n  dup3\n    /* \"#utility.yul\":648:672   */\n  tag_19\n  jump\t// in\ntag_39:\n    /* \"#utility.yul\":637:672   */\n  swap1\n  pop\n    /* \"#utility.yul\":568:678   */\n  swap2\n  swap1\n  pop\n  jump\t// out\n    /* \"#utility.yul\":684:834   */\ntag_21:\n    /* \"#utility.yul\":771:809   */\n  tag_41\n    /* \"#utility.yul\":803:808   */\n  dup2\n    /* \"#utility.yul\":771:809   */\n  tag_20\n  jump\t// in\ntag_41:\n    /* \"#utility.yul\":764:769   */\n  dup2\n    /* \"#utility.yul\":761:810   */\n  eq\n    /* \"#utility.yul\":751:828   */\n  tag_42\n  jumpi\n    /* \"#utility.yul\":824:825   */\n  0x00\n    /* \"#utility.yul\":821:822   */\n  dup1\n    /* \"#utility.yul\":814:826   */\n  revert\n    /* \"#utility.yul\":751:828   */\ntag_42:\n    /* \"#utility.yul\":684:834   */\n  pop\n  jump\t// out\n    /* \"#utility.yul\":840:1011   */\ntag_22:\n    /* \"#utility.yul\":911:916   */\n  0x00\n    /* \"#utility.yul\":942:948   */\n  dup2\n    /* \"#utility.yul\":936:949   */\n  mload\n    /* \"#utility.yul\":927:949   */\n  swap1\n  pop\n    /* \"#utility.yul\":958:1005   */\n  tag_44\n    /* \"#utility.yul\":999:1004   */\n  dup2\n    /* \"#utility.yul\":958:1005   */\n  tag_21\n  jump\t// in\ntag_44:\n    /* \"#utility.yul\":840:1011   */\n  swap3\n  swap2\n  pop\n  pop\n  jump\t// out\n    /* \"#utility.yul\":1017:1136   */\ntag_23:\n    /* \"#utility.yul\":1077:1084   */\n  0x00\n    /* \"#utility.yul\":1106:1130   */\n  tag_46\n    /* \"#utility.yul\":1124:1129   */\n  dup3\n    /* \"#utility.yul\":1106:1130   */\n  tag_19\n  jump\t// in\ntag_46:\n    /* \"#utility.yul\":1095:1130   */\n  swap1\n  pop\n    /* \"#utility.yul\":1017:1136   */\n  swap2\n  swap1\n  pop\n  jump\t// out\n    /* \"#utility.yul\":1142:1310   */\ntag_24:\n    /* \"#utility.yul\":1238:1285   */\n  tag_48\n    /* \"#utility.yul\":1279:1284   */\n  dup2\n    /* \"#utility.yul\":1238:1285   */\n  tag_23\n  jump\t// in\ntag_48:\n    /* \"#utility.yul\":1231:1236   */\n  dup2\n    /* \"#utility.yul\":1228:1286   */\n  eq\n    /* \"#utility.yul\":1218:1304   */\n  tag_49\n  jumpi\n    /* \"#utility.yul\":1300:1301   */\n  0x00\n    /* \"#utility.yul\":1297:1298   */\n  dup1\n    /* \"#utility.yul\":1290:1302   */\n  revert\n    /* \"#utility.yul\":1218:1304   */\ntag_49:\n    /* \"#utility.yul\":1142:1310   */\n  pop\n  jump\t// out\n    /* \"#utility.yul\":1316:1505   */\ntag_25:\n    /* \"#utility.yul\":1396:1401   */\n  0x00\n    /* \"#utility.yul\":1427:1433   */\n  dup2\n    /* \"#utility.yul\":1421:1434   */\n  mload\n    /* \"#utility.yul\":1412:1434   */\n  swap1\n  pop\n    /* \"#utility.yul\":1443:1499   */\n  tag_51\n    /* \"#utility.yul\":1493:1498   */\n  dup2\n    /* \"#utility.yul\":1443:1499   */\n  tag_24\n  jump\t// in\ntag_51:\n    /* \"#utility.yul\":1316:1505   */\n  swap3\n  swap2\n  pop\n  pop\n  jump\t// out\n    /* \"#utility.yul\":1511:1633   */\ntag_26:\n    /* \"#utility.yul\":1584:1608   */\n  tag_53\n    /* \"#utility.yul\":1602:1607   */\n  dup2\n    /* \"#utility.yul\":1584:1608   */\n  tag_19\n  jump\t// in\ntag_53:\n    /* \"#utility.yul\":1577:1582   */\n  dup2\n    /* \"#utility.yul\":1574:1609   */\n  eq\n    /* \"#utility.yul\":1564:1627   */\n  tag_54\n  jumpi\n    /* \"#utility.yul\":1623:1624   */\n  0x00\n    /* \"#utility.yul\":1620:1621   */\n  dup1\n    /* \"#utility.yul\":1613:1625   */\n  revert\n    /* \"#utility.yul\":1564:1627   */\ntag_54:\n    /* \"#utility.yul\":1511:1633   */\n  pop\n  jump\t// out\n    /* \"#utility.yul\":1639:1782   */\ntag_27:\n    /* \"#utility.yul\":1696:1701   */\n  0x00\n    /* \"#utility.yul\":1727:1733   */\n  dup2\n    /* \"#utility.yul\":1721:1734   */\n  mload\n    /* \"#utility.yul\":1712:1734   */\n  swap1\n  pop\n    /* \"#utility.yul\":1743:1776   */\n  tag_56\n    /* \"#utility.yul\":1770:1775   */\n  dup2\n    /* \"#utility.yul\":1743:1776   */\n  tag_26\n  jump\t// in\ntag_56:\n    /* \"#utility.yul\":1639:1782   */\n  swap3\n  swap2\n  pop\n  pop\n  jump\t// out\n    /* \"#utility.yul\":1788:1865   */\ntag_28:\n    /* \"#utility.yul\":1825:1832   */\n  0x00\n    /* \"#utility.yul\":1854:1859   */\n  dup2\n    /* \"#utility.yul\":1843:1859   */\n  swap1\n  pop\n    /* \"#utility.yul\":1788:1865   */\n  swap2\n  swap1\n  pop\n  jump\t// out\n    /* \"#utility.yul\":1871:1993   */\ntag_29:\n    /* \"#utility.yul\":1944:1968   */\n  tag_59\n    /* \"#utility.yul\":1962:1967   */\n  dup2\n    /* \"#utility.yul\":1944:1968   */\n  tag_28\n  jump\t// in\ntag_59:\n    /* \"#utility.yul\":1937:1942   */\n  dup2\n    /* \"#utility.yul\":1934:1969   */\n  eq\n    /* \"#utility.yul\":1924:1987   */\n  tag_60\n  jumpi\n    /* \"#utility.yul\":1983:1984   */\n  0x00\n    /* \"#utility.yul\":1980:1981   */\n  dup1\n    /* \"#utility.yul\":1973:1985   */\n  revert\n    /* \"#utility.yul\":1924:1987   */\ntag_60:\n    /* \"#utility.yul\":1871:1993   */\n  pop\n  jump\t// out\n    /* \"#utility.yul\":1999:2142   */\ntag_30:\n    /* \"#utility.yul\":2056:2061   */\n  0x00\n    /* \"#utility.yul\":2087:2093   */\n  dup2\n    /* \"#utility.yul\":2081:2094   */\n  mload\n    /* \"#utility.yul\":2072:2094   */\n  swap1\n  pop\n    /* \"#utility.yul\":2103:2136   */\n  tag_62\n    /* \"#utility.yul\":2130:2135   */\n  dup2\n    /* \"#utility.yul\":2103:2136   */\n  tag_29\n  jump\t// in\ntag_62:\n    /* \"#utility.yul\":1999:2142   */\n  swap3\n  swap2\n  pop\n  pop\n  jump\t// out\n    /* \"#utility.yul\":2148:3199   */\ntag_3:\n    /* \"#utility.yul\":2291:2297   */\n  0x00\n    /* \"#utility.yul\":2299:2305   */\n  dup1\n    /* \"#utility.yul\":2307:2313   */\n  0x00\n    /* \"#utility.yul\":2315:2321   */\n  dup1\n    /* \"#utility.yul\":2323:2329   */\n  0x00\n    /* \"#utility.yul\":2372:2375   */\n  0xa0\n    /* \"#utility.yul\":2360:2369   */\n  dup7\n    /* \"#utility.yul\":2351:2358   */\n  dup9\n    /* \"#utility.yul\":2347:2370   */\n  sub\n    /* \"#utility.yul\":2343:2376   */\n  slt\n    /* \"#utility.yul\":2340:2460   */\n  iszero\n  tag_64\n  jumpi\n    /* \"#utility.yul\":2379:2458   */\n  tag_65\n  tag_16\n  jump\t// in\ntag_65:\n    /* \"#utility.yul\":2340:2460   */\ntag_64:\n    /* \"#utility.yul\":2499:2500   */\n  0x00\n    /* \"#utility.yul\":2524:2602   */\n  tag_66\n    /* \"#utility.yul\":2594:2601   */\n  dup9\n    /* \"#utility.yul\":2585:2591   */\n  dup3\n    /* \"#utility.yul\":2574:2583   */\n  dup10\n    /* \"#utility.yul\":2570:2592   */\n  add\n    /* \"#utility.yul\":2524:2602   */\n  tag_22\n  jump\t// in\ntag_66:\n    /* \"#utility.yul\":2514:2602   */\n  swap6\n  pop\n    /* \"#utility.yul\":2470:2612   */\n  pop\n    /* \"#utility.yul\":2651:2653   */\n  0x20\n    /* \"#utility.yul\":2677:2764   */\n  tag_67\n    /* \"#utility.yul\":2756:2763   */\n  dup9\n    /* \"#utility.yul\":2747:2753   */\n  dup3\n    /* \"#utility.yul\":2736:2745   */\n  dup10\n    /* \"#utility.yul\":2732:2754   */\n  add\n    /* \"#utility.yul\":2677:2764   */\n  tag_25\n  jump\t// in\ntag_67:\n    /* \"#utility.yul\":2667:2764   */\n  swap5\n  pop\n    /* \"#utility.yul\":2622:2774   */\n  pop\n    /* \"#utility.yul\":2813:2815   */\n  0x40\n    /* \"#utility.yul\":2839:2903   */\n  tag_68\n    /* \"#utility.yul\":2895:2902   */\n  dup9\n    /* \"#utility.yul\":2886:2892   */\n  dup3\n    /* \"#utility.yul\":2875:2884   */\n  dup10\n    /* \"#utility.yul\":2871:2893   */\n  add\n    /* \"#utility.yul\":2839:2903   */\n  tag_27\n  jump\t// in\ntag_68:\n    /* \"#utility.yul\":2829:2903   */\n  swap4\n  pop\n    /* \"#utility.yul\":2784:2913   */\n  pop\n    /* \"#utility.yul\":2952:2954   */\n  0x60\n    /* \"#utility.yul\":2978:3042   */\n  tag_69\n    /* \"#utility.yul\":3034:3041   */\n  dup9\n    /* \"#utility.yul\":3025:3031   */\n  dup3\n    /* \"#utility.yul\":3014:3023   */\n  dup10\n    /* \"#utility.yul\":3010:3032   */\n  add\n    /* \"#utility.yul\":2978:3042   */\n  tag_30\n  jump\t// in\ntag_69:\n    /* \"#utility.yul\":2968:3042   */\n  swap3\n  pop\n    /* \"#utility.yul\":2923:3052   */\n  pop\n    /* \"#utility.yul\":3091:3094   */\n  0x80\n    /* \"#utility.yul\":3118:3182   */\n  tag_70\n    /* \"#utility.yul\":3174:3181   */\n  dup9\n    /* \"#utility.yul\":3165:3171   */\n  dup3\n    /* \"#utility.yul\":3154:3163   */\n  dup10\n    /* \"#utility.yul\":3150:3172   */\n  add\n    /* \"#utility.yul\":3118:3182   */\n  tag_30\n  jump\t// in\ntag_70:\n    /* \"#utility.yul\":3108:3182   */\n  swap2\n  pop\n    /* \"#utility.yul\":3062:3192   */\n  pop\n    /* \"#utility.yul\":2148:3199   */\n  swap3\n  swap6\n  pop\n  swap3\n  swap6\n  swap1\n  swap4\n  pop\n  jump\t// out\n    /* \"contracts/NFTStake.sol\":28007:38495  contract NFTStake is Ownable, IERC721Receiver {... */\ntag_12:\n  dataSize(sub_0)\n  dup1\n  dataOffset(sub_0)\n  0x00\n  codecopy\n  0x00\n  return\nstop\n\nsub_0: assembly {\n        /* \"contracts/NFTStake.sol\":28007:38495  contract NFTStake is Ownable, IERC721Receiver {... */\n      mstore(0x40, 0x80)\n      callvalue\n      dup1\n      iszero\n      tag_1\n      jumpi\n      0x00\n      dup1\n      revert\n    tag_1:\n      pop\n      jumpi(tag_2, lt(calldatasize, 0x04))\n      shr(0xe0, calldataload(0x00))\n      dup1\n      0x64482f79\n      gt\n      tag_32\n      jumpi\n      dup1\n      0xcb3cba55\n      gt\n      tag_33\n      jumpi\n      dup1\n      0xe2bbb158\n      gt\n      tag_34\n      jumpi\n      dup1\n      0xe2bbb158\n      eq\n      tag_28\n      jumpi\n      dup1\n      0xe4d09896\n      eq\n      tag_29\n      jumpi\n      dup1\n      0xf2fde38b\n      eq\n      tag_30\n      jumpi\n      dup1\n      0xf395db2c\n      eq\n      tag_31\n      jumpi\n      jump(tag_2)\n    tag_34:\n      dup1\n      0xcb3cba55\n      eq\n      tag_24\n      jumpi\n      dup1\n      0xd0d41fe1\n      eq\n      tag_25\n      jumpi\n      dup1\n      0xd49e77cd\n      eq\n      tag_26\n      jumpi\n      dup1\n      0xd5545992\n      eq\n      tag_27\n      jumpi\n      jump(tag_2)\n    tag_33:\n      dup1\n      0x8aa28550\n      gt\n      tag_35\n      jumpi\n      dup1\n      0x8aa28550\n      eq\n      tag_20\n      jumpi\n      dup1\n      0x8da5cb5b\n      eq\n      tag_21\n      jumpi\n      dup1\n      0x8dbb1e3a\n      eq\n      tag_22\n      jumpi\n      dup1\n      0x93f1a40b\n      eq\n      tag_23\n      jumpi\n      jump(tag_2)\n    tag_35:\n      dup1\n      0x64482f79\n      eq\n      tag_17\n      jumpi\n      dup1\n      0x715018a6\n      eq\n      tag_18\n      jumpi\n      dup1\n      0x7cd07e47\n      eq\n      tag_19\n      jumpi\n      jump(tag_2)\n    tag_32:\n      dup1\n      0x23cf3118\n      gt\n      tag_36\n      jumpi\n      dup1\n      0x51eb05a6\n      gt\n      tag_37\n      jumpi\n      dup1\n      0x51eb05a6\n      eq\n      tag_13\n      jumpi\n      dup1\n      0x5ffe6146\n      eq\n      tag_14\n      jumpi\n      dup1\n      0x612eee43\n      eq\n      tag_15\n      jumpi\n      dup1\n      0x630b5ba1\n      eq\n      tag_16\n      jumpi\n      jump(tag_2)\n    tag_37:\n      dup1\n      0x23cf3118\n      eq\n      tag_10\n      jumpi\n      dup1\n      0x441a3e70\n      eq\n      tag_11\n      jumpi\n      dup1\n      0x48cd4cb1\n      eq\n      tag_12\n      jumpi\n      jump(tag_2)\n    tag_36:\n      dup1\n      0x1526fe27\n      gt\n      tag_38\n      jumpi\n      dup1\n      0x1526fe27\n      eq\n      tag_6\n      jumpi\n      dup1\n      0x17caf6f1\n      eq\n      tag_7\n      jumpi\n      dup1\n      0x1eaaa045\n      eq\n      tag_8\n      jumpi\n      dup1\n      0x2080baab\n      eq\n      tag_9\n      jumpi\n      jump(tag_2)\n    tag_38:\n      dup1\n      0x081e3eda\n      eq\n      tag_3\n      jumpi\n      dup1\n      0x1395d8c9\n      eq\n      tag_4\n      jumpi\n      dup1\n      0x150b7a02\n      eq\n      tag_5\n      jumpi\n    tag_2:\n      0x00\n      dup1\n      revert\n        /* \"contracts/NFTStake.sol\":31225:31320  function poolLength() external view returns (uint256) {... */\n    tag_3:\n      tag_39\n      tag_40\n      jump\t// in\n    tag_39:\n      mload(0x40)\n      tag_41\n      swap2\n      swap1\n      tag_42\n      jump\t// in\n    tag_41:\n      mload(0x40)\n      dup1\n      swap2\n      sub\n      swap1\n      return\n        /* \"contracts/NFTStake.sol\":37323:37893  function compundDDT(uint256 _pid) public {... */\n    tag_4:\n      tag_43\n      0x04\n      dup1\n      calldatasize\n      sub\n      dup2\n      add\n      swap1\n      tag_44\n      swap2\n      swap1\n      tag_45\n      jump\t// in\n    tag_44:\n      tag_46\n      jump\t// in\n    tag_43:\n      stop\n        /* \"contracts/NFTStake.sol\":30922:31086  function onERC721Received(address, address, uint256, bytes memory) public virtual override returns (bytes4) {... */\n    tag_5:\n      tag_47\n      0x04\n      dup1\n      calldatasize\n      sub\n      dup2\n      add\n      swap1\n      tag_48\n      swap2\n      swap1\n      tag_49\n      jump\t// in\n    tag_48:\n      tag_50\n      jump\t// in\n    tag_47:\n      mload(0x40)\n      tag_51\n      swap2\n      swap1\n      tag_52\n      jump\t// in\n    tag_51:\n      mload(0x40)\n      dup1\n      swap2\n      sub\n      swap1\n      return\n        /* \"contracts/NFTStake.sol\":29839:29865  PoolInfo[] public poolInfo */\n    tag_6:\n      tag_53\n      0x04\n      dup1\n      calldatasize\n      sub\n      dup2\n      add\n      swap1\n      tag_54\n      swap2\n      swap1\n      tag_45\n      jump\t// in\n    tag_54:\n      tag_55\n      jump\t// in\n    tag_53:\n      mload(0x40)\n      tag_56\n      swap5\n      swap4\n      swap3\n      swap2\n      swap1\n      tag_57\n      jump\t// in\n    tag_56:\n      mload(0x40)\n      dup1\n      swap2\n      sub\n      swap1\n      return\n        /* \"contracts/NFTStake.sol\":30080:30114  uint256 public totalAllocPoint = 0 */\n    tag_7:\n      tag_58\n      tag_59\n      jump\t// in\n    tag_58:\n      mload(0x40)\n      tag_60\n      swap2\n      swap1\n      tag_42\n      jump\t// in\n    tag_60:\n      mload(0x40)\n      dup1\n      swap2\n      sub\n      swap1\n      return\n        /* \"contracts/NFTStake.sol\":31489:32051  function add( uint256 _allocPoint, IERC721 _NFTToken, bool _withUpdate ) public onlyOwner {... */\n    tag_8:\n      tag_61\n      0x04\n      dup1\n      calldatasize\n      sub\n      dup2\n      add\n      swap1\n      tag_62\n      swap2\n      swap1\n      tag_63\n      jump\t// in\n    tag_62:\n      tag_64\n      jump\t// in\n    tag_61:\n      stop\n        /* \"contracts/NFTStake.sol\":33108:33861  function pendingDDT(uint256 _pid, address _user) external view returns (uint256){... */\n    tag_9:\n      tag_65\n      0x04\n      dup1\n      calldatasize\n      sub\n      dup2\n      add\n      swap1\n      tag_66\n      swap2\n      swap1\n      tag_67\n      jump\t// in\n    tag_66:\n      tag_68\n      jump\t// in\n    tag_65:\n      mload(0x40)\n      tag_69\n      swap2\n      swap1\n      tag_42\n      jump\t// in\n    tag_69:\n      mload(0x40)\n      dup1\n      swap2\n      sub\n      swap1\n      return\n        /* \"contracts/NFTStake.sol\":32527:32629  function setMigrator(IMigratorChef _migrator) public onlyOwner {... */\n    tag_10:\n      tag_70\n      0x04\n      dup1\n      calldatasize\n      sub\n      dup2\n      add\n      swap1\n      tag_71\n      swap2\n      swap1\n      tag_72\n      jump\t// in\n    tag_71:\n      tag_73\n      jump\t// in\n    tag_70:\n      stop\n        /* \"contracts/NFTStake.sol\":35790:37315  function withdraw(uint256 _pid, uint256 _tokenId) public {... */\n    tag_11:\n      tag_74\n      0x04\n      dup1\n      calldatasize\n      sub\n      dup2\n      add\n      swap1\n      tag_75\n      swap2\n      swap1\n      tag_76\n      jump\t// in\n    tag_75:\n      tag_77\n      jump\t// in\n    tag_74:\n      stop\n        /* \"contracts/NFTStake.sol\":30170:30195  uint256 public startBlock */\n    tag_12:\n      tag_78\n      tag_79\n      jump\t// in\n    tag_78:\n      mload(0x40)\n      tag_80\n      swap2\n      swap1\n      tag_42\n      jump\t// in\n    tag_80:\n      mload(0x40)\n      dup1\n      swap2\n      sub\n      swap1\n      return\n        /* \"contracts/NFTStake.sol\":34200:34929  function updatePool(uint256 _pid) public {... */\n    tag_13:\n      tag_81\n      0x04\n      dup1\n      calldatasize\n      sub\n      dup2\n      add\n      swap1\n      tag_82\n      swap2\n      swap1\n      tag_45\n      jump\t// in\n    tag_82:\n      tag_83\n      jump\t// in\n    tag_81:\n      stop\n        /* \"contracts/NFTStake.sol\":31094:31217  function updateMultiplier(uint256 multiplierNumber) public onlyOwner {... */\n    tag_14:\n      tag_84\n      0x04\n      dup1\n      calldatasize\n      sub\n      dup2\n      add\n      swap1\n      tag_85\n      swap2\n      swap1\n      tag_45\n      jump\t// in\n    tag_85:\n      tag_86\n      jump\t// in\n    tag_84:\n      stop\n        /* \"contracts/NFTStake.sol\":38387:38492  function updateDDTPerBlock(uint256 newAmount) public onlyOwner {... */\n    tag_15:\n      tag_87\n      0x04\n      dup1\n      calldatasize\n      sub\n      dup2\n      add\n      swap1\n      tag_88\n      swap2\n      swap1\n      tag_45\n      jump\t// in\n    tag_88:\n      tag_89\n      jump\t// in\n    tag_87:\n      stop\n        /* \"contracts/NFTStake.sol\":33944:34124  function massUpdatePools() public {... */\n    tag_16:\n      tag_90\n      tag_91\n      jump\t// in\n    tag_90:\n      stop\n        /* \"contracts/NFTStake.sol\":32146:32451  function set( uint256 _pid, uint256 _allocPoint, bool _withUpdate) public onlyOwner {... */\n    tag_17:\n      tag_92\n      0x04\n      dup1\n      calldatasize\n      sub\n      dup2\n      add\n      swap1\n      tag_93\n      swap2\n      swap1\n      tag_94\n      jump\t// in\n    tag_93:\n      tag_95\n      jump\t// in\n    tag_92:\n      stop\n        /* \"contracts/NFTStake.sol\":20826:20929  function renounceOwnership() public virtual onlyOwner {... */\n    tag_18:\n      tag_96\n      tag_97\n      jump\t// in\n    tag_96:\n      stop\n        /* \"contracts/NFTStake.sol\":29776:29805  IMigratorChef public migrator */\n    tag_19:\n      tag_98\n      tag_99\n      jump\t// in\n    tag_98:\n      mload(0x40)\n      tag_100\n      swap2\n      swap1\n      tag_101\n      jump\t// in\n    tag_100:\n      mload(0x40)\n      dup1\n      swap2\n      sub\n      swap1\n      return\n        /* \"contracts/NFTStake.sol\":29638:29673  uint256 public BONUS_MULTIPLIER = 1 */\n    tag_20:\n      tag_102\n      tag_103\n      jump\t// in\n    tag_102:\n      mload(0x40)\n      tag_104\n      swap2\n      swap1\n      tag_42\n      jump\t// in\n    tag_104:\n      mload(0x40)\n      dup1\n      swap2\n      sub\n      swap1\n      return\n        /* \"contracts/NFTStake.sol\":20175:20262  function owner() public view virtual returns (address) {... */\n    tag_21:\n      tag_105\n      tag_106\n      jump\t// in\n    tag_105:\n      mload(0x40)\n      tag_107\n      swap2\n      swap1\n      tag_108\n      jump\t// in\n    tag_107:\n      mload(0x40)\n      dup1\n      swap2\n      sub\n      swap1\n      return\n        /* \"contracts/NFTStake.sol\":32705:32849  function getMultiplier(uint256 _from, uint256 _to) public view returns (uint256) {... */\n    tag_22:\n      tag_109\n      0x04\n      dup1\n      calldatasize\n      sub\n      dup2\n      add\n      swap1\n      tag_110\n      swap2\n      swap1\n      tag_76\n      jump\t// in\n    tag_110:\n      tag_111\n      jump\t// in\n    tag_109:\n      mload(0x40)\n      tag_112\n      swap2\n      swap1\n      tag_42\n      jump\t// in\n    tag_112:\n      mload(0x40)\n      dup1\n      swap2\n      sub\n      swap1\n      return\n        /* \"contracts/NFTStake.sol\":29921:29985  mapping(uint256 => mapping(address => UserInfo)) public userInfo */\n    tag_23:\n      tag_113\n      0x04\n      dup1\n      calldatasize\n      sub\n      dup2\n      add\n      swap1\n      tag_114\n      swap2\n      swap1\n      tag_67\n      jump\t// in\n    tag_114:\n      tag_115\n      jump\t// in\n    tag_113:\n      mload(0x40)\n      tag_116\n      swap3\n      swap2\n      swap1\n      tag_117\n      jump\t// in\n    tag_116:\n      mload(0x40)\n      dup1\n      swap2\n      sub\n      swap1\n      return\n        /* \"contracts/NFTStake.sol\":29447:29464  IERC20 public DDT */\n    tag_24:\n      tag_118\n      tag_119\n      jump\t// in\n    tag_118:\n      mload(0x40)\n      tag_120\n      swap2\n      swap1\n      tag_121\n      jump\t// in\n    tag_120:\n      mload(0x40)\n      dup1\n      swap2\n      sub\n      swap1\n      return\n        /* \"contracts/NFTStake.sol\":38284:38379  function setDevAddress(address _devaddr) public onlyOwner {... */\n    tag_25:\n      tag_122\n      0x04\n      dup1\n      calldatasize\n      sub\n      dup2\n      add\n      swap1\n      tag_123\n      swap2\n      swap1\n      tag_124\n      jump\t// in\n    tag_123:\n      tag_125\n      jump\t// in\n    tag_122:\n      stop\n        /* \"contracts/NFTStake.sol\":29492:29514  address public devaddr */\n    tag_26:\n      tag_126\n      tag_127\n      jump\t// in\n    tag_126:\n      mload(0x40)\n      tag_128\n      swap2\n      swap1\n      tag_108\n      jump\t// in\n    tag_128:\n      mload(0x40)\n      dup1\n      swap2\n      sub\n      swap1\n      return\n        /* \"contracts/NFTStake.sol\":32857:33045  function getUserTokenIds(uint256 _pid, address _user) public view returns (uint256[] memory) {... */\n    tag_27:\n      tag_129\n      0x04\n      dup1\n      calldatasize\n      sub\n      dup2\n      add\n      swap1\n      tag_130\n      swap2\n      swap1\n      tag_67\n      jump\t// in\n    tag_130:\n      tag_131\n      jump\t// in\n    tag_129:\n      mload(0x40)\n      tag_132\n      swap2\n      swap1\n      tag_133\n      jump\t// in\n    tag_132:\n      mload(0x40)\n      dup1\n      swap2\n      sub\n      swap1\n      return\n        /* \"contracts/NFTStake.sol\":34998:35737  function deposit(uint256 _pid, uint256 _tokenId) public {... */\n    tag_28:\n      tag_134\n      0x04\n      dup1\n      calldatasize\n      sub\n      dup2\n      add\n      swap1\n      tag_135\n      swap2\n      swap1\n      tag_76\n      jump\t// in\n    tag_135:\n      tag_136\n      jump\t// in\n    tag_134:\n      stop\n        /* \"contracts/NFTStake.sol\":29380:29415  INFTMasterChef public NFTMasterChef */\n    tag_29:\n      tag_137\n      tag_138\n      jump\t// in\n    tag_137:\n      mload(0x40)\n      tag_139\n      swap2\n      swap1\n      tag_140\n      jump\t// in\n    tag_139:\n      mload(0x40)\n      dup1\n      swap2\n      sub\n      swap1\n      return\n        /* \"contracts/NFTStake.sol\":21084:21285  function transferOwnership(address newOwner) public virtual onlyOwner {... */\n    tag_30:\n      tag_141\n      0x04\n      dup1\n      calldatasize\n      sub\n      dup2\n      add\n      swap1\n      tag_142\n      swap2\n      swap1\n      tag_124\n      jump\t// in\n    tag_142:\n      tag_143\n      jump\t// in\n    tag_141:\n      stop\n        /* \"contracts/NFTStake.sol\":29559:29585  uint256 public DDTPerBlock */\n    tag_31:\n      tag_144\n      tag_145\n      jump\t// in\n    tag_144:\n      mload(0x40)\n      tag_146\n      swap2\n      swap1\n      tag_42\n      jump\t// in\n    tag_146:\n      mload(0x40)\n      dup1\n      swap2\n      sub\n      swap1\n      return\n        /* \"contracts/NFTStake.sol\":31225:31320  function poolLength() external view returns (uint256) {... */\n    tag_40:\n        /* \"contracts/NFTStake.sol\":31270:31277  uint256 */\n      0x00\n        /* \"contracts/NFTStake.sol\":31297:31305  poolInfo */\n      0x07\n        /* \"contracts/NFTStake.sol\":31297:31312  poolInfo.length */\n      dup1\n      sload\n      swap1\n      pop\n        /* \"contracts/NFTStake.sol\":31290:31312  return poolInfo.length */\n      swap1\n      pop\n        /* \"contracts/NFTStake.sol\":31225:31320  function poolLength() external view returns (uint256) {... */\n      swap1\n      jump\t// out\n        /* \"contracts/NFTStake.sol\":37323:37893  function compundDDT(uint256 _pid) public {... */\n    tag_46:\n        /* \"contracts/NFTStake.sol\":37375:37396  PoolInfo storage pool */\n      0x00\n        /* \"contracts/NFTStake.sol\":37399:37407  poolInfo */\n      0x07\n        /* \"contracts/NFTStake.sol\":37408:37412  _pid */\n      dup3\n        /* \"contracts/NFTStake.sol\":37399:37413  poolInfo[_pid] */\n      dup2\n      sload\n      dup2\n      lt\n      tag_149\n      jumpi\n      tag_150\n      tag_151\n      jump\t// in\n    tag_150:\n    tag_149:\n      swap1\n      0x00\n      mstore\n      keccak256(0x00, 0x20)\n      swap1\n      0x04\n      mul\n      add\n        /* \"contracts/NFTStake.sol\":37375:37413  PoolInfo storage pool = poolInfo[_pid] */\n      swap1\n      pop\n        /* \"contracts/NFTStake.sol\":37424:37445  UserInfo storage user */\n      0x00\n        /* \"contracts/NFTStake.sol\":37448:37456  userInfo */\n      0x08\n        /* \"contracts/NFTStake.sol\":37448:37462  userInfo[_pid] */\n      0x00\n        /* \"contracts/NFTStake.sol\":37457:37461  _pid */\n      dup5\n        /* \"contracts/NFTStake.sol\":37448:37462  userInfo[_pid] */\n      dup2\n      mstore\n      0x20\n      add\n      swap1\n      dup2\n      mstore\n      0x20\n      add\n      0x00\n      keccak256\n        /* \"contracts/NFTStake.sol\":37448:37474  userInfo[_pid][msg.sender] */\n      0x00\n        /* \"contracts/NFTStake.sol\":37463:37473  msg.sender */\n      caller\n        /* \"contracts/NFTStake.sol\":37448:37474  userInfo[_pid][msg.sender] */\n      0xffffffffffffffffffffffffffffffffffffffff\n      and\n      0xffffffffffffffffffffffffffffffffffffffff\n      and\n      dup2\n      mstore\n      0x20\n      add\n      swap1\n      dup2\n      mstore\n      0x20\n      add\n      0x00\n      keccak256\n        /* \"contracts/NFTStake.sol\":37424:37474  UserInfo storage user = userInfo[_pid][msg.sender] */\n      swap1\n      pop\n        /* \"contracts/NFTStake.sol\":37485:37501  updatePool(_pid) */\n      tag_153\n        /* \"contracts/NFTStake.sol\":37496:37500  _pid */\n      dup4\n        /* \"contracts/NFTStake.sol\":37485:37495  updatePool */\n      tag_83\n        /* \"contracts/NFTStake.sol\":37485:37501  updatePool(_pid) */\n      jump\t// in\n    tag_153:\n        /* \"contracts/NFTStake.sol\":37512:37527  uint256 pending */\n      0x00\n        /* \"contracts/NFTStake.sol\":37530:37597  user.amount.mul(pool.accDDTPerShare).div(1e12).sub(user.rewardDebt) */\n      tag_154\n        /* \"contracts/NFTStake.sol\":37581:37585  user */\n      dup3\n        /* \"contracts/NFTStake.sol\":37581:37596  user.rewardDebt */\n      0x02\n      add\n      sload\n        /* \"contracts/NFTStake.sol\":37530:37576  user.amount.mul(pool.accDDTPerShare).div(1e12) */\n      tag_155\n        /* \"contracts/NFTStake.sol\":37571:37575  1e12 */\n      0xe8d4a51000\n        /* \"contracts/NFTStake.sol\":37530:37566  user.amount.mul(pool.accDDTPerShare) */\n      tag_156\n        /* \"contracts/NFTStake.sol\":37546:37550  pool */\n      dup8\n        /* \"contracts/NFTStake.sol\":37546:37565  pool.accDDTPerShare */\n      0x03\n      add\n      sload\n        /* \"contracts/NFTStake.sol\":37530:37534  user */\n      dup8\n        /* \"contracts/NFTStake.sol\":37530:37541  user.amount */\n      0x01\n      add\n      sload\n        /* \"contracts/NFTStake.sol\":37530:37545  user.amount.mul */\n      tag_157\n      swap1\n        /* \"contracts/NFTStake.sol\":37530:37566  user.amount.mul(pool.accDDTPerShare) */\n      swap2\n      swap1\n      0xffffffff\n      and\n      jump\t// in\n    tag_156:\n        /* \"contracts/NFTStake.sol\":37530:37570  user.amount.mul(pool.accDDTPerShare).div */\n      tag_158\n      swap1\n        /* \"contracts/NFTStake.sol\":37530:37576  user.amount.mul(pool.accDDTPerShare).div(1e12) */\n      swap2\n      swap1\n      0xffffffff\n      and\n      jump\t// in\n    tag_155:\n        /* \"contracts/NFTStake.sol\":37530:37580  user.amount.mul(pool.accDDTPerShare).div(1e12).sub */\n      tag_159\n      swap1\n        /* \"contracts/NFTStake.sol\":37530:37597  user.amount.mul(pool.accDDTPerShare).div(1e12).sub(user.rewardDebt) */\n      swap2\n      swap1\n      0xffffffff\n      and\n      jump\t// in\n    tag_154:\n        /* \"contracts/NFTStake.sol\":37512:37597  uint256 pending = user.amount.mul(pool.accDDTPerShare).div(1e12).sub(user.rewardDebt) */\n      swap1\n      pop\n        /* \"contracts/NFTStake.sol\":37626:37627  0 */\n      0x00\n        /* \"contracts/NFTStake.sol\":37616:37623  pending */\n      dup2\n        /* \"contracts/NFTStake.sol\":37616:37627  pending > 0 */\n      gt\n        /* \"contracts/NFTStake.sol\":37608:37646  require(pending > 0, \"Amount is zero\") */\n      tag_160\n      jumpi\n      mload(0x40)\n      0x08c379a000000000000000000000000000000000000000000000000000000000\n      dup2\n      mstore\n      0x04\n      add\n      tag_161\n      swap1\n      tag_162\n      jump\t// in\n    tag_161:\n      mload(0x40)\n      dup1\n      swap2\n      sub\n      swap1\n      revert\n    tag_160:\n        /* \"contracts/NFTStake.sol\":37657:37660  DDT */\n      0x02\n      0x00\n      swap1\n      sload\n      swap1\n      0x0100\n      exp\n      swap1\n      div\n      0xffffffffffffffffffffffffffffffffffffffff\n      and\n        /* \"contracts/NFTStake.sol\":37657:37668  DDT.approve */\n      0xffffffffffffffffffffffffffffffffffffffff\n      and\n      0x095ea7b3\n        /* \"contracts/NFTStake.sol\":37677:37690  NFTMasterChef */\n      0x01\n      0x00\n      swap1\n      sload\n      swap1\n      0x0100\n      exp\n      swap1\n      div\n      0xffffffffffffffffffffffffffffffffffffffff\n      and\n        /* \"contracts/NFTStake.sol\":37693:37700  pending */\n      dup4\n        /* \"contracts/NFTStake.sol\":37657:37701  DDT.approve(address(NFTMasterChef), pending) */\n      mload(0x40)\n      dup4\n      0xffffffff\n      and\n      0xe0\n      shl\n      dup2\n      mstore\n      0x04\n      add\n      tag_163\n      swap3\n      swap2\n      swap1\n      tag_164\n      jump\t// in\n    tag_163:\n      0x20\n      mload(0x40)\n      dup1\n      dup4\n      sub\n      dup2\n      0x00\n      dup8\n      gas\n      call\n      iszero\n      dup1\n      iszero\n      tag_166\n      jumpi\n      returndatasize\n      0x00\n      dup1\n      returndatacopy\n      revert(0x00, returndatasize)\n    tag_166:\n      pop\n      pop\n      pop\n      pop\n      mload(0x40)\n      returndatasize\n      not(0x1f)\n      0x1f\n      dup3\n      add\n      and\n      dup3\n      add\n      dup1\n      0x40\n      mstore\n      pop\n      dup2\n      add\n      swap1\n      tag_167\n      swap2\n      swap1\n      tag_168\n      jump\t// in\n    tag_167:\n      pop\n        /* \"contracts/NFTStake.sol\":37712:37725  NFTMasterChef */\n      0x01\n      0x00\n      swap1\n      sload\n      swap1\n      0x0100\n      exp\n      swap1\n      div\n      0xffffffffffffffffffffffffffffffffffffffff\n      and\n        /* \"contracts/NFTStake.sol\":37712:37738  NFTMasterChef.enterStaking */\n      0xffffffffffffffffffffffffffffffffffffffff\n      and\n      0x849df12c\n        /* \"contracts/NFTStake.sol\":37739:37746  pending */\n      dup3\n        /* \"contracts/NFTStake.sol\":37748:37758  msg.sender */\n      caller\n        /* \"contracts/NFTStake.sol\":37712:37759  NFTMasterChef.enterStaking(pending, msg.sender) */\n      mload(0x40)\n      dup4\n      0xffffffff\n      and\n      0xe0\n      shl\n      dup2\n      mstore\n      0x04\n      add\n      tag_169\n      swap3\n      swap2\n      swap1\n      tag_170\n      jump\t// in\n    tag_169:\n      0x00\n      mload(0x40)\n      dup1\n      dup4\n      sub\n      dup2\n      0x00\n      dup8\n      dup1\n      extcodesize\n      iszero\n      dup1\n      iszero\n      tag_171\n      jumpi\n      0x00\n      dup1\n      revert\n    tag_171:\n      pop\n      gas\n      call\n      iszero\n      dup1\n      iszero\n      tag_173\n      jumpi\n      returndatasize\n      0x00\n      dup1\n      returndatacopy\n      revert(0x00, returndatasize)\n    tag_173:\n      pop\n      pop\n      pop\n      pop\n        /* \"contracts/NFTStake.sol\":37788:37834  user.amount.mul(pool.accDDTPerShare).div(1e12) */\n      tag_174\n        /* \"contracts/NFTStake.sol\":37829:37833  1e12 */\n      0xe8d4a51000\n        /* \"contracts/NFTStake.sol\":37788:37824  user.amount.mul(pool.accDDTPerShare) */\n      tag_175\n        /* \"contracts/NFTStake.sol\":37804:37808  pool */\n      dup6\n        /* \"contracts/NFTStake.sol\":37804:37823  pool.accDDTPerShare */\n      0x03\n      add\n      sload\n        /* \"contracts/NFTStake.sol\":37788:37792  user */\n      dup6\n        /* \"contracts/NFTStake.sol\":37788:37799  user.amount */\n      0x01\n      add\n      sload\n        /* \"contracts/NFTStake.sol\":37788:37803  user.amount.mul */\n      tag_157\n      swap1\n        /* \"contracts/NFTStake.sol\":37788:37824  user.amount.mul(pool.accDDTPerShare) */\n      swap2\n      swap1\n      0xffffffff\n      and\n      jump\t// in\n    tag_175:\n        /* \"contracts/NFTStake.sol\":37788:37828  user.amount.mul(pool.accDDTPerShare).div */\n      tag_158\n      swap1\n        /* \"contracts/NFTStake.sol\":37788:37834  user.amount.mul(pool.accDDTPerShare).div(1e12) */\n      swap2\n      swap1\n      0xffffffff\n      and\n      jump\t// in\n    tag_174:\n        /* \"contracts/NFTStake.sol\":37770:37774  user */\n      dup3\n        /* \"contracts/NFTStake.sol\":37770:37785  user.rewardDebt */\n      0x02\n      add\n        /* \"contracts/NFTStake.sol\":37770:37834  user.rewardDebt = user.amount.mul(pool.accDDTPerShare).div(1e12) */\n      dup2\n      swap1\n      sstore\n      pop\n        /* \"contracts/NFTStake.sol\":37871:37875  _pid */\n      dup4\n        /* \"contracts/NFTStake.sol\":37859:37869  msg.sender */\n      caller\n        /* \"contracts/NFTStake.sol\":37850:37885  Withdraw(msg.sender, _pid, pending) */\n      0xffffffffffffffffffffffffffffffffffffffff\n      and\n      0xf279e6a1f5e320cca91135676d9cb6e44ca8a08c0b88342bcdb1144f6511b568\n        /* \"contracts/NFTStake.sol\":37877:37884  pending */\n      dup4\n        /* \"contracts/NFTStake.sol\":37850:37885  Withdraw(msg.sender, _pid, pending) */\n      mload(0x40)\n      tag_176\n      swap2\n      swap1\n      tag_42\n      jump\t// in\n    tag_176:\n      mload(0x40)\n      dup1\n      swap2\n      sub\n      swap1\n      log3\n        /* \"contracts/NFTStake.sol\":37364:37893  {... */\n      pop\n      pop\n      pop\n        /* \"contracts/NFTStake.sol\":37323:37893  function compundDDT(uint256 _pid) public {... */\n      pop\n      jump\t// out\n        /* \"contracts/NFTStake.sol\":30922:31086  function onERC721Received(address, address, uint256, bytes memory) public virtual override returns (bytes4) {... */\n    tag_50:\n        /* \"contracts/NFTStake.sol\":31022:31028  bytes4 */\n      0x00\n        /* \"contracts/NFTStake.sol\":31048:31078  this.onERC721Received.selector */\n      shl(0xe0, 0x150b7a02)\n        /* \"contracts/NFTStake.sol\":31041:31078  return this.onERC721Received.selector */\n      swap1\n      pop\n        /* \"contracts/NFTStake.sol\":30922:31086  function onERC721Received(address, address, uint256, bytes memory) public virtual override returns (bytes4) {... */\n      swap5\n      swap4\n      pop\n      pop\n      pop\n      pop\n      jump\t// out\n        /* \"contracts/NFTStake.sol\":29839:29865  PoolInfo[] public poolInfo */\n    tag_55:\n      0x07\n      dup2\n      dup2\n      sload\n      dup2\n      lt\n      tag_178\n      jumpi\n      0x00\n      dup1\n      revert\n    tag_178:\n      swap1\n      0x00\n      mstore\n      keccak256(0x00, 0x20)\n      swap1\n      0x04\n      mul\n      add\n      0x00\n      swap2\n      pop\n      swap1\n      pop\n      dup1\n      0x00\n      add\n      0x00\n      swap1\n      sload\n      swap1\n      0x0100\n      exp\n      swap1\n      div\n      0xffffffffffffffffffffffffffffffffffffffff\n      and\n      swap1\n      dup1\n      0x01\n      add\n      sload\n      swap1\n      dup1\n      0x02\n      add\n      sload\n      swap1\n      dup1\n      0x03\n      add\n      sload\n      swap1\n      pop\n      dup5\n      jump\t// out\n        /* \"contracts/NFTStake.sol\":30080:30114  uint256 public totalAllocPoint = 0 */\n    tag_59:\n      sload(0x09)\n      dup2\n      jump\t// out\n        /* \"contracts/NFTStake.sol\":31489:32051  function add( uint256 _allocPoint, IERC721 _NFTToken, bool _withUpdate ) public onlyOwner {... */\n    tag_64:\n        /* \"contracts/NFTStake.sol\":20406:20418  _msgSender() */\n      tag_181\n        /* \"contracts/NFTStake.sol\":20406:20416  _msgSender */\n      tag_182\n        /* \"contracts/NFTStake.sol\":20406:20418  _msgSender() */\n      jump\t// in\n    tag_181:\n        /* \"contracts/NFTStake.sol\":20395:20418  owner() == _msgSender() */\n      0xffffffffffffffffffffffffffffffffffffffff\n      and\n        /* \"contracts/NFTStake.sol\":20395:20402  owner() */\n      tag_183\n        /* \"contracts/NFTStake.sol\":20395:20400  owner */\n      tag_106\n        /* \"contracts/NFTStake.sol\":20395:20402  owner() */\n      jump\t// in\n    tag_183:\n        /* \"contracts/NFTStake.sol\":20395:20418  owner() == _msgSender() */\n      0xffffffffffffffffffffffffffffffffffffffff\n      and\n      eq\n        /* \"contracts/NFTStake.sol\":20387:20455  require(owner() == _msgSender(), \"Ownable: caller is not the owner\") */\n      tag_184\n      jumpi\n      mload(0x40)\n      0x08c379a000000000000000000000000000000000000000000000000000000000\n      dup2\n      mstore\n      0x04\n      add\n      tag_185\n      swap1\n      tag_186\n      jump\t// in\n    tag_185:\n      mload(0x40)\n      dup1\n      swap2\n      sub\n      swap1\n      revert\n    tag_184:\n        /* \"contracts/NFTStake.sol\":31594:31605  _withUpdate */\n      dup1\n        /* \"contracts/NFTStake.sol\":31590:31651  if (_withUpdate) {... */\n      iszero\n      tag_188\n      jumpi\n        /* \"contracts/NFTStake.sol\":31622:31639  massUpdatePools() */\n      tag_189\n        /* \"contracts/NFTStake.sol\":31622:31637  massUpdatePools */\n      tag_91\n        /* \"contracts/NFTStake.sol\":31622:31639  massUpdatePools() */\n      jump\t// in\n    tag_189:\n        /* \"contracts/NFTStake.sol\":31590:31651  if (_withUpdate) {... */\n    tag_188:\n        /* \"contracts/NFTStake.sol\":31661:31684  uint256 lastRewardBlock */\n      0x00\n        /* \"contracts/NFTStake.sol\":31702:31712  startBlock */\n      sload(0x0a)\n        /* \"contracts/NFTStake.sol\":31687:31699  block.number */\n      number\n        /* \"contracts/NFTStake.sol\":31687:31712  block.number > startBlock */\n      gt\n        /* \"contracts/NFTStake.sol\":31687:31740  block.number > startBlock ? block.number : startBlock */\n      tag_190\n      jumpi\n        /* \"contracts/NFTStake.sol\":31730:31740  startBlock */\n      sload(0x0a)\n        /* \"contracts/NFTStake.sol\":31687:31740  block.number > startBlock ? block.number : startBlock */\n      jump(tag_191)\n    tag_190:\n        /* \"contracts/NFTStake.sol\":31715:31727  block.number */\n      number\n        /* \"contracts/NFTStake.sol\":31687:31740  block.number > startBlock ? block.number : startBlock */\n    tag_191:\n        /* \"contracts/NFTStake.sol\":31661:31740  uint256 lastRewardBlock = block.number > startBlock ? block.number : startBlock */\n      swap1\n      pop\n        /* \"contracts/NFTStake.sol\":31769:31801  totalAllocPoint.add(_allocPoint) */\n      tag_192\n        /* \"contracts/NFTStake.sol\":31789:31800  _allocPoint */\n      dup5\n        /* \"contracts/NFTStake.sol\":31769:31784  totalAllocPoint */\n      sload(0x09)\n        /* \"contracts/NFTStake.sol\":31769:31788  totalAllocPoint.add */\n      tag_193\n      swap1\n        /* \"contracts/NFTStake.sol\":31769:31801  totalAllocPoint.add(_allocPoint) */\n      swap2\n      swap1\n      0xffffffff\n      and\n      jump\t// in\n    tag_192:\n        /* \"contracts/NFTStake.sol\":31751:31766  totalAllocPoint */\n      0x09\n        /* \"contracts/NFTStake.sol\":31751:31801  totalAllocPoint = totalAllocPoint.add(_allocPoint) */\n      dup2\n      swap1\n      sstore\n      pop\n        /* \"contracts/NFTStake.sol\":31812:31820  poolInfo */\n      0x07\n        /* \"contracts/NFTStake.sol\":31840:32032  PoolInfo({... */\n      mload(0x40)\n      dup1\n      0x80\n      add\n      0x40\n      mstore\n      dup1\n        /* \"contracts/NFTStake.sol\":31878:31887  _NFTToken */\n      dup6\n        /* \"contracts/NFTStake.sol\":31840:32032  PoolInfo({... */\n      0xffffffffffffffffffffffffffffffffffffffff\n      and\n      dup2\n      mstore\n      0x20\n      add\n        /* \"contracts/NFTStake.sol\":31918:31929  _allocPoint */\n      dup7\n        /* \"contracts/NFTStake.sol\":31840:32032  PoolInfo({... */\n      dup2\n      mstore\n      0x20\n      add\n        /* \"contracts/NFTStake.sol\":31965:31980  lastRewardBlock */\n      dup4\n        /* \"contracts/NFTStake.sol\":31840:32032  PoolInfo({... */\n      dup2\n      mstore\n      0x20\n      add\n        /* \"contracts/NFTStake.sol\":32015:32016  0 */\n      0x00\n        /* \"contracts/NFTStake.sol\":31840:32032  PoolInfo({... */\n      dup2\n      mstore\n      pop\n        /* \"contracts/NFTStake.sol\":31812:32043  poolInfo.push(... */\n      swap1\n      dup1\n      0x01\n      dup2\n      sload\n      add\n      dup1\n      dup3\n      sstore\n      dup1\n      swap2\n      pop\n      pop\n      0x01\n      swap1\n      sub\n      swap1\n      0x00\n      mstore\n      keccak256(0x00, 0x20)\n      swap1\n      0x04\n      mul\n      add\n      0x00\n      swap1\n      swap2\n      swap1\n      swap2\n      swap1\n      swap2\n      pop\n      0x00\n      dup3\n      add\n      mload\n      dup2\n      0x00\n      add\n      exp(0x0100, 0x00)\n      dup2\n      sload\n      dup2\n      0xffffffffffffffffffffffffffffffffffffffff\n      mul\n      not\n      and\n      swap1\n      dup4\n      0xffffffffffffffffffffffffffffffffffffffff\n      and\n      mul\n      or\n      swap1\n      sstore\n      pop\n      0x20\n      dup3\n      add\n      mload\n      dup2\n      0x01\n      add\n      sstore\n      0x40\n      dup3\n      add\n      mload\n      dup2\n      0x02\n      add\n      sstore\n      0x60\n      dup3\n      add\n      mload\n      dup2\n      0x03\n      add\n      sstore\n      pop\n      pop\n        /* \"contracts/NFTStake.sol\":31579:32051  {... */\n      pop\n        /* \"contracts/NFTStake.sol\":31489:32051  function add( uint256 _allocPoint, IERC721 _NFTToken, bool _withUpdate ) public onlyOwner {... */\n      pop\n      pop\n      pop\n      jump\t// out\n        /* \"contracts/NFTStake.sol\":33108:33861  function pendingDDT(uint256 _pid, address _user) external view returns (uint256){... */\n    tag_68:\n        /* \"contracts/NFTStake.sol\":33180:33187  uint256 */\n      0x00\n        /* \"contracts/NFTStake.sol\":33199:33220  PoolInfo storage pool */\n      dup1\n        /* \"contracts/NFTStake.sol\":33223:33231  poolInfo */\n      0x07\n        /* \"contracts/NFTStake.sol\":33232:33236  _pid */\n      dup5\n        /* \"contracts/NFTStake.sol\":33223:33237  poolInfo[_pid] */\n      dup2\n      sload\n      dup2\n      lt\n      tag_196\n      jumpi\n      tag_197\n      tag_151\n      jump\t// in\n    tag_197:\n    tag_196:\n      swap1\n      0x00\n      mstore\n      keccak256(0x00, 0x20)\n      swap1\n      0x04\n      mul\n      add\n        /* \"contracts/NFTStake.sol\":33199:33237  PoolInfo storage pool = poolInfo[_pid] */\n      swap1\n      pop\n        /* \"contracts/NFTStake.sol\":33248:33269  UserInfo storage user */\n      0x00\n        /* \"contracts/NFTStake.sol\":33272:33280  userInfo */\n      0x08\n        /* \"contracts/NFTStake.sol\":33272:33286  userInfo[_pid] */\n      0x00\n        /* \"contracts/NFTStake.sol\":33281:33285  _pid */\n      dup7\n        /* \"contracts/NFTStake.sol\":33272:33286  userInfo[_pid] */\n      dup2\n      mstore\n      0x20\n      add\n      swap1\n      dup2\n      mstore\n      0x20\n      add\n      0x00\n      keccak256\n        /* \"contracts/NFTStake.sol\":33272:33293  userInfo[_pid][_user] */\n      0x00\n        /* \"contracts/NFTStake.sol\":33287:33292  _user */\n      dup6\n        /* \"contracts/NFTStake.sol\":33272:33293  userInfo[_pid][_user] */\n      0xffffffffffffffffffffffffffffffffffffffff\n      and\n      0xffffffffffffffffffffffffffffffffffffffff\n      and\n      dup2\n      mstore\n      0x20\n      add\n      swap1\n      dup2\n      mstore\n      0x20\n      add\n      0x00\n      keccak256\n        /* \"contracts/NFTStake.sol\":33248:33293  UserInfo storage user = userInfo[_pid][_user] */\n      swap1\n      pop\n        /* \"contracts/NFTStake.sol\":33304:33326  uint256 accDDTPerShare */\n      0x00\n        /* \"contracts/NFTStake.sol\":33329:33333  pool */\n      dup3\n        /* \"contracts/NFTStake.sol\":33329:33348  pool.accDDTPerShare */\n      0x03\n      add\n      sload\n        /* \"contracts/NFTStake.sol\":33304:33348  uint256 accDDTPerShare = pool.accDDTPerShare */\n      swap1\n      pop\n        /* \"contracts/NFTStake.sol\":33359:33376  uint256 NFTSupply */\n      0x00\n        /* \"contracts/NFTStake.sol\":33379:33383  pool */\n      dup4\n        /* \"contracts/NFTStake.sol\":33379:33392  pool.NFTToken */\n      0x00\n      add\n      0x00\n      swap1\n      sload\n      swap1\n      0x0100\n      exp\n      swap1\n      div\n      0xffffffffffffffffffffffffffffffffffffffff\n      and\n        /* \"contracts/NFTStake.sol\":33379:33402  pool.NFTToken.balanceOf */\n      0xffffffffffffffffffffffffffffffffffffffff\n      and\n      0x70a08231\n        /* \"contracts/NFTStake.sol\":33411:33415  this */\n      address\n        /* \"contracts/NFTStake.sol\":33379:33417  pool.NFTToken.balanceOf(address(this)) */\n      mload(0x40)\n      dup3\n      0xffffffff\n      and\n      0xe0\n      shl\n      dup2\n      mstore\n      0x04\n      add\n      tag_199\n      swap2\n      swap1\n      tag_108\n      jump\t// in\n    tag_199:\n      0x20\n      mload(0x40)\n      dup1\n      dup4\n      sub\n      dup2\n      dup7\n      gas\n      staticcall\n      iszero\n      dup1\n      iszero\n      tag_201\n      jumpi\n      returndatasize\n      0x00\n      dup1\n      returndatacopy\n      revert(0x00, returndatasize)\n    tag_201:\n      pop\n      pop\n      pop\n      pop\n      mload(0x40)\n      returndatasize\n      not(0x1f)\n      0x1f\n      dup3\n      add\n      and\n      dup3\n      add\n      dup1\n      0x40\n      mstore\n      pop\n      dup2\n      add\n      swap1\n      tag_202\n      swap2\n      swap1\n      tag_203\n      jump\t// in\n    tag_202:\n        /* \"contracts/NFTStake.sol\":33359:33417  uint256 NFTSupply = pool.NFTToken.balanceOf(address(this)) */\n      swap1\n      pop\n        /* \"contracts/NFTStake.sol\":33447:33451  pool */\n      dup4\n        /* \"contracts/NFTStake.sol\":33447:33467  pool.lastRewardBlock */\n      0x02\n      add\n      sload\n        /* \"contracts/NFTStake.sol\":33432:33444  block.number */\n      number\n        /* \"contracts/NFTStake.sol\":33432:33467  block.number > pool.lastRewardBlock */\n      gt\n        /* \"contracts/NFTStake.sol\":33432:33485  block.number > pool.lastRewardBlock && NFTSupply != 0 */\n      dup1\n      iszero\n      tag_204\n      jumpi\n      pop\n        /* \"contracts/NFTStake.sol\":33484:33485  0 */\n      0x00\n        /* \"contracts/NFTStake.sol\":33471:33480  NFTSupply */\n      dup2\n        /* \"contracts/NFTStake.sol\":33471:33485  NFTSupply != 0 */\n      eq\n      iszero\n        /* \"contracts/NFTStake.sol\":33432:33485  block.number > pool.lastRewardBlock && NFTSupply != 0 */\n    tag_204:\n        /* \"contracts/NFTStake.sol\":33428:33774  if (block.number > pool.lastRewardBlock && NFTSupply != 0) {... */\n      iszero\n      tag_205\n      jumpi\n        /* \"contracts/NFTStake.sol\":33502:33520  uint256 multiplier */\n      0x00\n        /* \"contracts/NFTStake.sol\":33523:33572  getMultiplier(pool.lastRewardBlock, block.number) */\n      tag_206\n        /* \"contracts/NFTStake.sol\":33537:33541  pool */\n      dup6\n        /* \"contracts/NFTStake.sol\":33537:33557  pool.lastRewardBlock */\n      0x02\n      add\n      sload\n        /* \"contracts/NFTStake.sol\":33559:33571  block.number */\n      number\n        /* \"contracts/NFTStake.sol\":33523:33536  getMultiplier */\n      tag_111\n        /* \"contracts/NFTStake.sol\":33523:33572  getMultiplier(pool.lastRewardBlock, block.number) */\n      jump\t// in\n    tag_206:\n        /* \"contracts/NFTStake.sol\":33502:33572  uint256 multiplier = getMultiplier(pool.lastRewardBlock, block.number) */\n      swap1\n      pop\n        /* \"contracts/NFTStake.sol\":33587:33604  uint256 DDTReward */\n      0x00\n        /* \"contracts/NFTStake.sol\":33607:33676  multiplier.mul(DDTPerBlock).mul(pool.allocPoint).div(totalAllocPoint) */\n      tag_207\n        /* \"contracts/NFTStake.sol\":33660:33675  totalAllocPoint */\n      sload(0x09)\n        /* \"contracts/NFTStake.sol\":33607:33655  multiplier.mul(DDTPerBlock).mul(pool.allocPoint) */\n      tag_208\n        /* \"contracts/NFTStake.sol\":33639:33643  pool */\n      dup9\n        /* \"contracts/NFTStake.sol\":33639:33654  pool.allocPoint */\n      0x01\n      add\n      sload\n        /* \"contracts/NFTStake.sol\":33607:33634  multiplier.mul(DDTPerBlock) */\n      tag_209\n        /* \"contracts/NFTStake.sol\":33622:33633  DDTPerBlock */\n      sload(0x04)\n        /* \"contracts/NFTStake.sol\":33607:33617  multiplier */\n      dup8\n        /* \"contracts/NFTStake.sol\":33607:33621  multiplier.mul */\n      tag_157\n      swap1\n        /* \"contracts/NFTStake.sol\":33607:33634  multiplier.mul(DDTPerBlock) */\n      swap2\n      swap1\n      0xffffffff\n      and\n      jump\t// in\n    tag_209:\n        /* \"contracts/NFTStake.sol\":33607:33638  multiplier.mul(DDTPerBlock).mul */\n      tag_157\n      swap1\n        /* \"contracts/NFTStake.sol\":33607:33655  multiplier.mul(DDTPerBlock).mul(pool.allocPoint) */\n      swap2\n      swap1\n      0xffffffff\n      and\n      jump\t// in\n    tag_208:\n        /* \"contracts/NFTStake.sol\":33607:33659  multiplier.mul(DDTPerBlock).mul(pool.allocPoint).div */\n      tag_158\n      swap1\n        /* \"contracts/NFTStake.sol\":33607:33676  multiplier.mul(DDTPerBlock).mul(pool.allocPoint).div(totalAllocPoint) */\n      swap2\n      swap1\n      0xffffffff\n      and\n      jump\t// in\n    tag_207:\n        /* \"contracts/NFTStake.sol\":33587:33676  uint256 DDTReward = multiplier.mul(DDTPerBlock).mul(pool.allocPoint).div(totalAllocPoint) */\n      swap1\n      pop\n        /* \"contracts/NFTStake.sol\":33708:33762  accDDTPerShare.add(DDTReward.mul(1e12).div(NFTSupply)) */\n      tag_210\n        /* \"contracts/NFTStake.sol\":33727:33761  DDTReward.mul(1e12).div(NFTSupply) */\n      tag_211\n        /* \"contracts/NFTStake.sol\":33751:33760  NFTSupply */\n      dup5\n        /* \"contracts/NFTStake.sol\":33727:33746  DDTReward.mul(1e12) */\n      tag_212\n        /* \"contracts/NFTStake.sol\":33741:33745  1e12 */\n      0xe8d4a51000\n        /* \"contracts/NFTStake.sol\":33727:33736  DDTReward */\n      dup6\n        /* \"contracts/NFTStake.sol\":33727:33740  DDTReward.mul */\n      tag_157\n      swap1\n        /* \"contracts/NFTStake.sol\":33727:33746  DDTReward.mul(1e12) */\n      swap2\n      swap1\n      0xffffffff\n      and\n      jump\t// in\n    tag_212:\n        /* \"contracts/NFTStake.sol\":33727:33750  DDTReward.mul(1e12).div */\n      tag_158\n      swap1\n        /* \"contracts/NFTStake.sol\":33727:33761  DDTReward.mul(1e12).div(NFTSupply) */\n      swap2\n      swap1\n      0xffffffff\n      and\n      jump\t// in\n    tag_211:\n        /* \"contracts/NFTStake.sol\":33708:33722  accDDTPerShare */\n      dup6\n        /* \"contracts/NFTStake.sol\":33708:33726  accDDTPerShare.add */\n      tag_193\n      swap1\n        /* \"contracts/NFTStake.sol\":33708:33762  accDDTPerShare.add(DDTReward.mul(1e12).div(NFTSupply)) */\n      swap2\n      swap1\n      0xffffffff\n      and\n      jump\t// in\n    tag_210:\n        /* \"contracts/NFTStake.sol\":33691:33762  accDDTPerShare = accDDTPerShare.add(DDTReward.mul(1e12).div(NFTSupply)) */\n      swap4\n      pop\n        /* \"contracts/NFTStake.sol\":33487:33774  {... */\n      pop\n      pop\n        /* \"contracts/NFTStake.sol\":33428:33774  if (block.number > pool.lastRewardBlock && NFTSupply != 0) {... */\n    tag_205:\n        /* \"contracts/NFTStake.sol\":33791:33853  user.amount.mul(accDDTPerShare).div(1e12).sub(user.rewardDebt) */\n      tag_213\n        /* \"contracts/NFTStake.sol\":33837:33841  user */\n      dup4\n        /* \"contracts/NFTStake.sol\":33837:33852  user.rewardDebt */\n      0x02\n      add\n      sload\n        /* \"contracts/NFTStake.sol\":33791:33832  user.amount.mul(accDDTPerShare).div(1e12) */\n      tag_214\n        /* \"contracts/NFTStake.sol\":33827:33831  1e12 */\n      0xe8d4a51000\n        /* \"contracts/NFTStake.sol\":33791:33822  user.amount.mul(accDDTPerShare) */\n      tag_215\n        /* \"contracts/NFTStake.sol\":33807:33821  accDDTPerShare */\n      dup7\n        /* \"contracts/NFTStake.sol\":33791:33795  user */\n      dup9\n        /* \"contracts/NFTStake.sol\":33791:33802  user.amount */\n      0x01\n      add\n      sload\n        /* \"contracts/NFTStake.sol\":33791:33806  user.amount.mul */\n      tag_157\n      swap1\n        /* \"contracts/NFTStake.sol\":33791:33822  user.amount.mul(accDDTPerShare) */\n      swap2\n      swap1\n      0xffffffff\n      and\n      jump\t// in\n    tag_215:\n        /* \"contracts/NFTStake.sol\":33791:33826  user.amount.mul(accDDTPerShare).div */\n      tag_158\n      swap1\n        /* \"contracts/NFTStake.sol\":33791:33832  user.amount.mul(accDDTPerShare).div(1e12) */\n      swap2\n      swap1\n      0xffffffff\n      and\n      jump\t// in\n    tag_214:\n        /* \"contracts/NFTStake.sol\":33791:33836  user.amount.mul(accDDTPerShare).div(1e12).sub */\n      tag_159\n      swap1\n        /* \"contracts/NFTStake.sol\":33791:33853  user.amount.mul(accDDTPerShare).div(1e12).sub(user.rewardDebt) */\n      swap2\n      swap1\n      0xffffffff\n      and\n      jump\t// in\n    tag_213:\n        /* \"contracts/NFTStake.sol\":33784:33853  return user.amount.mul(accDDTPerShare).div(1e12).sub(user.rewardDebt) */\n      swap5\n      pop\n      pop\n      pop\n      pop\n      pop\n        /* \"contracts/NFTStake.sol\":33108:33861  function pendingDDT(uint256 _pid, address _user) external view returns (uint256){... */\n      swap3\n      swap2\n      pop\n      pop\n      jump\t// out\n        /* \"contracts/NFTStake.sol\":32527:32629  function setMigrator(IMigratorChef _migrator) public onlyOwner {... */\n    tag_73:\n        /* \"contracts/NFTStake.sol\":20406:20418  _msgSender() */\n      tag_217\n        /* \"contracts/NFTStake.sol\":20406:20416  _msgSender */\n      tag_182\n        /* \"contracts/NFTStake.sol\":20406:20418  _msgSender() */\n      jump\t// in\n    tag_217:\n        /* \"contracts/NFTStake.sol\":20395:20418  owner() == _msgSender() */\n      0xffffffffffffffffffffffffffffffffffffffff\n      and\n        /* \"contracts/NFTStake.sol\":20395:20402  owner() */\n      tag_218\n        /* \"contracts/NFTStake.sol\":20395:20400  owner */\n      tag_106\n        /* \"contracts/NFTStake.sol\":20395:20402  owner() */\n      jump\t// in\n    tag_218:\n        /* \"contracts/NFTStake.sol\":20395:20418  owner() == _msgSender() */\n      0xffffffffffffffffffffffffffffffffffffffff\n      and\n      eq\n        /* \"contracts/NFTStake.sol\":20387:20455  require(owner() == _msgSender(), \"Ownable: caller is not the owner\") */\n      tag_219\n      jumpi\n      mload(0x40)\n      0x08c379a000000000000000000000000000000000000000000000000000000000\n      dup2\n      mstore\n      0x04\n      add\n      tag_220\n      swap1\n      tag_186\n      jump\t// in\n    tag_220:\n      mload(0x40)\n      dup1\n      swap2\n      sub\n      swap1\n      revert\n    tag_219:\n        /* \"contracts/NFTStake.sol\":32612:32621  _migrator */\n      dup1\n        /* \"contracts/NFTStake.sol\":32601:32609  migrator */\n      0x06\n      0x00\n        /* \"contracts/NFTStake.sol\":32601:32621  migrator = _migrator */\n      0x0100\n      exp\n      dup2\n      sload\n      dup2\n      0xffffffffffffffffffffffffffffffffffffffff\n      mul\n      not\n      and\n      swap1\n      dup4\n      0xffffffffffffffffffffffffffffffffffffffff\n      and\n      mul\n      or\n      swap1\n      sstore\n      pop\n        /* \"contracts/NFTStake.sol\":32527:32629  function setMigrator(IMigratorChef _migrator) public onlyOwner {... */\n      pop\n      jump\t// out\n        /* \"contracts/NFTStake.sol\":35790:37315  function withdraw(uint256 _pid, uint256 _tokenId) public {... */\n    tag_77:\n        /* \"contracts/NFTStake.sol\":35858:35879  PoolInfo storage pool */\n      0x00\n        /* \"contracts/NFTStake.sol\":35882:35890  poolInfo */\n      0x07\n        /* \"contracts/NFTStake.sol\":35891:35895  _pid */\n      dup4\n        /* \"contracts/NFTStake.sol\":35882:35896  poolInfo[_pid] */\n      dup2\n      sload\n      dup2\n      lt\n      tag_223\n      jumpi\n      tag_224\n      tag_151\n      jump\t// in\n    tag_224:\n    tag_223:\n      swap1\n      0x00\n      mstore\n      keccak256(0x00, 0x20)\n      swap1\n      0x04\n      mul\n      add\n        /* \"contracts/NFTStake.sol\":35858:35896  PoolInfo storage pool = poolInfo[_pid] */\n      swap1\n      pop\n        /* \"contracts/NFTStake.sol\":35907:35928  UserInfo storage user */\n      0x00\n        /* \"contracts/NFTStake.sol\":35931:35939  userInfo */\n      0x08\n        /* \"contracts/NFTStake.sol\":35931:35945  userInfo[_pid] */\n      0x00\n        /* \"contracts/NFTStake.sol\":35940:35944  _pid */\n      dup6\n        /* \"contracts/NFTStake.sol\":35931:35945  userInfo[_pid] */\n      dup2\n      mstore\n      0x20\n      add\n      swap1\n      dup2\n      mstore\n      0x20\n      add\n      0x00\n      keccak256\n        /* \"contracts/NFTStake.sol\":35931:35957  userInfo[_pid][msg.sender] */\n      0x00\n        /* \"contracts/NFTStake.sol\":35946:35956  msg.sender */\n      caller\n        /* \"contracts/NFTStake.sol\":35931:35957  userInfo[_pid][msg.sender] */\n      0xffffffffffffffffffffffffffffffffffffffff\n      and\n      0xffffffffffffffffffffffffffffffffffffffff\n      and\n      dup2\n      mstore\n      0x20\n      add\n      swap1\n      dup2\n      mstore\n      0x20\n      add\n      0x00\n      keccak256\n        /* \"contracts/NFTStake.sol\":35907:35957  UserInfo storage user = userInfo[_pid][msg.sender] */\n      swap1\n      pop\n        /* \"contracts/NFTStake.sol\":35968:35983  uint256 pending */\n      0x00\n        /* \"contracts/NFTStake.sol\":36009:36010  0 */\n      dup1\n        /* \"contracts/NFTStake.sol\":35997:36005  _tokenId */\n      dup5\n        /* \"contracts/NFTStake.sol\":35997:36010  _tokenId == 0 */\n      sub\n        /* \"contracts/NFTStake.sol\":35994:37256  if(_tokenId == 0){... */\n      tag_226\n      jumpi\n        /* \"contracts/NFTStake.sol\":36026:36042  updatePool(_pid) */\n      tag_227\n        /* \"contracts/NFTStake.sol\":36037:36041  _pid */\n      dup6\n        /* \"contracts/NFTStake.sol\":36026:36036  updatePool */\n      tag_83\n        /* \"contracts/NFTStake.sol\":36026:36042  updatePool(_pid) */\n      jump\t// in\n    tag_227:\n        /* \"contracts/NFTStake.sol\":36067:36134  user.amount.mul(pool.accDDTPerShare).div(1e12).sub(user.rewardDebt) */\n      tag_228\n        /* \"contracts/NFTStake.sol\":36118:36122  user */\n      dup3\n        /* \"contracts/NFTStake.sol\":36118:36133  user.rewardDebt */\n      0x02\n      add\n      sload\n        /* \"contracts/NFTStake.sol\":36067:36113  user.amount.mul(pool.accDDTPerShare).div(1e12) */\n      tag_229\n        /* \"contracts/NFTStake.sol\":36108:36112  1e12 */\n      0xe8d4a51000\n        /* \"contracts/NFTStake.sol\":36067:36103  user.amount.mul(pool.accDDTPerShare) */\n      tag_230\n        /* \"contracts/NFTStake.sol\":36083:36087  pool */\n      dup8\n        /* \"contracts/NFTStake.sol\":36083:36102  pool.accDDTPerShare */\n      0x03\n      add\n      sload\n        /* \"contracts/NFTStake.sol\":36067:36071  user */\n      dup8\n        /* \"contracts/NFTStake.sol\":36067:36078  user.amount */\n      0x01\n      add\n      sload\n        /* \"contracts/NFTStake.sol\":36067:36082  user.amount.mul */\n      tag_157\n      swap1\n        /* \"contracts/NFTStake.sol\":36067:36103  user.amount.mul(pool.accDDTPerShare) */\n      swap2\n      swap1\n      0xffffffff\n      and\n      jump\t// in\n    tag_230:\n        /* \"contracts/NFTStake.sol\":36067:36107  user.amount.mul(pool.accDDTPerShare).div */\n      tag_158\n      swap1\n        /* \"contracts/NFTStake.sol\":36067:36113  user.amount.mul(pool.accDDTPerShare).div(1e12) */\n      swap2\n      swap1\n      0xffffffff\n      and\n      jump\t// in\n    tag_229:\n        /* \"contracts/NFTStake.sol\":36067:36117  user.amount.mul(pool.accDDTPerShare).div(1e12).sub */\n      tag_159\n      swap1\n        /* \"contracts/NFTStake.sol\":36067:36134  user.amount.mul(pool.accDDTPerShare).div(1e12).sub(user.rewardDebt) */\n      swap2\n      swap1\n      0xffffffff\n      and\n      jump\t// in\n    tag_228:\n        /* \"contracts/NFTStake.sol\":36057:36134  pending = user.amount.mul(pool.accDDTPerShare).div(1e12).sub(user.rewardDebt) */\n      swap1\n      pop\n        /* \"contracts/NFTStake.sol\":36162:36163  0 */\n      0x00\n        /* \"contracts/NFTStake.sol\":36152:36159  pending */\n      dup2\n        /* \"contracts/NFTStake.sol\":36152:36163  pending > 0 */\n      gt\n        /* \"contracts/NFTStake.sol\":36149:36235  if(pending > 0){... */\n      iszero\n      tag_231\n      jumpi\n        /* \"contracts/NFTStake.sol\":36183:36219  safeDDTTransfer(msg.sender, pending) */\n      tag_232\n        /* \"contracts/NFTStake.sol\":36199:36209  msg.sender */\n      caller\n        /* \"contracts/NFTStake.sol\":36211:36218  pending */\n      dup3\n        /* \"contracts/NFTStake.sol\":36183:36198  safeDDTTransfer */\n      tag_233\n        /* \"contracts/NFTStake.sol\":36183:36219  safeDDTTransfer(msg.sender, pending) */\n      jump\t// in\n    tag_232:\n        /* \"contracts/NFTStake.sol\":36149:36235  if(pending > 0){... */\n    tag_231:\n        /* \"contracts/NFTStake.sol\":36267:36313  user.amount.mul(pool.accDDTPerShare).div(1e12) */\n      tag_234\n        /* \"contracts/NFTStake.sol\":36308:36312  1e12 */\n      0xe8d4a51000\n        /* \"contracts/NFTStake.sol\":36267:36303  user.amount.mul(pool.accDDTPerShare) */\n      tag_235\n        /* \"contracts/NFTStake.sol\":36283:36287  pool */\n      dup6\n        /* \"contracts/NFTStake.sol\":36283:36302  pool.accDDTPerShare */\n      0x03\n      add\n      sload\n        /* \"contracts/NFTStake.sol\":36267:36271  user */\n      dup6\n        /* \"contracts/NFTStake.sol\":36267:36278  user.amount */\n      0x01\n      add\n      sload\n        /* \"contracts/NFTStake.sol\":36267:36282  user.amount.mul */\n      tag_157\n      swap1\n        /* \"contracts/NFTStake.sol\":36267:36303  user.amount.mul(pool.accDDTPerShare) */\n      swap2\n      swap1\n      0xffffffff\n      and\n      jump\t// in\n    tag_235:\n        /* \"contracts/NFTStake.sol\":36267:36307  user.amount.mul(pool.accDDTPerShare).div */\n      tag_158\n      swap1\n        /* \"contracts/NFTStake.sol\":36267:36313  user.amount.mul(pool.accDDTPerShare).div(1e12) */\n      swap2\n      swap1\n      0xffffffff\n      and\n      jump\t// in\n    tag_234:\n        /* \"contracts/NFTStake.sol\":36249:36253  user */\n      dup3\n        /* \"contracts/NFTStake.sol\":36249:36264  user.rewardDebt */\n      0x02\n      add\n        /* \"contracts/NFTStake.sol\":36249:36313  user.rewardDebt = user.amount.mul(pool.accDDTPerShare).div(1e12) */\n      dup2\n      swap1\n      sstore\n      pop\n        /* \"contracts/NFTStake.sol\":35994:37256  if(_tokenId == 0){... */\n      jump(tag_236)\n    tag_226:\n        /* \"contracts/NFTStake.sol\":36345:36363  uint256 hasTokenId */\n      0x00\n        /* \"contracts/NFTStake.sol\":36382:36402  uint256 tokenIdIndex */\n      dup1\n        /* \"contracts/NFTStake.sol\":36421:36430  uint256 i */\n      dup1\n        /* \"contracts/NFTStake.sol\":36417:36622  for(uint256 i; i<user.tokenIds.length; i++){... */\n    tag_237:\n        /* \"contracts/NFTStake.sol\":36434:36438  user */\n      dup5\n        /* \"contracts/NFTStake.sol\":36434:36447  user.tokenIds */\n      0x00\n      add\n        /* \"contracts/NFTStake.sol\":36434:36454  user.tokenIds.length */\n      dup1\n      sload\n      swap1\n      pop\n        /* \"contracts/NFTStake.sol\":36432:36433  i */\n      dup2\n        /* \"contracts/NFTStake.sol\":36432:36454  i<user.tokenIds.length */\n      lt\n        /* \"contracts/NFTStake.sol\":36417:36622  for(uint256 i; i<user.tokenIds.length; i++){... */\n      iszero\n      tag_238\n      jumpi\n        /* \"contracts/NFTStake.sol\":36502:36510  _tokenId */\n      dup7\n        /* \"contracts/NFTStake.sol\":36482:36486  user */\n      dup6\n        /* \"contracts/NFTStake.sol\":36482:36495  user.tokenIds */\n      0x00\n      add\n        /* \"contracts/NFTStake.sol\":36496:36497  i */\n      dup3\n        /* \"contracts/NFTStake.sol\":36482:36498  user.tokenIds[i] */\n      dup2\n      sload\n      dup2\n      lt\n      tag_240\n      jumpi\n      tag_241\n      tag_151\n      jump\t// in\n    tag_241:\n    tag_240:\n      swap1\n      0x00\n      mstore\n      keccak256(0x00, 0x20)\n      add\n      sload\n        /* \"contracts/NFTStake.sol\":36482:36510  user.tokenIds[i] == _tokenId */\n      sub\n        /* \"contracts/NFTStake.sol\":36479:36607  if(user.tokenIds[i] == _tokenId){... */\n      tag_243\n      jumpi\n        /* \"contracts/NFTStake.sol\":36547:36548  1 */\n      0x01\n        /* \"contracts/NFTStake.sol\":36534:36548  hasTokenId = 1 */\n      swap3\n      pop\n        /* \"contracts/NFTStake.sol\":36586:36587  i */\n      dup1\n        /* \"contracts/NFTStake.sol\":36571:36587  tokenIdIndex = i */\n      swap2\n      pop\n        /* \"contracts/NFTStake.sol\":36479:36607  if(user.tokenIds[i] == _tokenId){... */\n    tag_243:\n        /* \"contracts/NFTStake.sol\":36456:36459  i++ */\n      dup1\n      dup1\n      tag_244\n      swap1\n      tag_245\n      jump\t// in\n    tag_244:\n      swap2\n      pop\n      pop\n        /* \"contracts/NFTStake.sol\":36417:36622  for(uint256 i; i<user.tokenIds.length; i++){... */\n      jump(tag_237)\n    tag_238:\n      pop\n        /* \"contracts/NFTStake.sol\":36658:36659  1 */\n      0x01\n        /* \"contracts/NFTStake.sol\":36644:36654  hasTokenId */\n      dup3\n        /* \"contracts/NFTStake.sol\":36644:36659  hasTokenId == 1 */\n      eq\n        /* \"contracts/NFTStake.sol\":36636:36693  require(hasTokenId == 1, \"You are not Owner of token id\") */\n      tag_246\n      jumpi\n      mload(0x40)\n      0x08c379a000000000000000000000000000000000000000000000000000000000\n      dup2\n      mstore\n      0x04\n      add\n      tag_247\n      swap1\n      tag_248\n      jump\t// in\n    tag_247:\n      mload(0x40)\n      dup1\n      swap2\n      sub\n      swap1\n      revert\n    tag_246:\n        /* \"contracts/NFTStake.sol\":36731:36732  1 */\n      0x01\n        /* \"contracts/NFTStake.sol\":36716:36720  user */\n      dup5\n        /* \"contracts/NFTStake.sol\":36716:36727  user.amount */\n      0x01\n      add\n      sload\n        /* \"contracts/NFTStake.sol\":36716:36732  user.amount >= 1 */\n      lt\n      iszero\n        /* \"contracts/NFTStake.sol\":36708:36755  require(user.amount >= 1, \"withdraw: not good\") */\n      tag_249\n      jumpi\n      mload(0x40)\n      0x08c379a000000000000000000000000000000000000000000000000000000000\n      dup2\n      mstore\n      0x04\n      add\n      tag_250\n      swap1\n      tag_251\n      jump\t// in\n    tag_250:\n      mload(0x40)\n      dup1\n      swap2\n      sub\n      swap1\n      revert\n    tag_249:\n        /* \"contracts/NFTStake.sol\":36770:36786  updatePool(_pid) */\n      tag_252\n        /* \"contracts/NFTStake.sol\":36781:36785  _pid */\n      dup8\n        /* \"contracts/NFTStake.sol\":36770:36780  updatePool */\n      tag_83\n        /* \"contracts/NFTStake.sol\":36770:36786  updatePool(_pid) */\n      jump\t// in\n    tag_252:\n        /* \"contracts/NFTStake.sol\":36811:36878  user.amount.mul(pool.accDDTPerShare).div(1e12).sub(user.rewardDebt) */\n      tag_253\n        /* \"contracts/NFTStake.sol\":36862:36866  user */\n      dup5\n        /* \"contracts/NFTStake.sol\":36862:36877  user.rewardDebt */\n      0x02\n      add\n      sload\n        /* \"contracts/NFTStake.sol\":36811:36857  user.amount.mul(pool.accDDTPerShare).div(1e12) */\n      tag_254\n        /* \"contracts/NFTStake.sol\":36852:36856  1e12 */\n      0xe8d4a51000\n        /* \"contracts/NFTStake.sol\":36811:36847  user.amount.mul(pool.accDDTPerShare) */\n      tag_255\n        /* \"contracts/NFTStake.sol\":36827:36831  pool */\n      dup10\n        /* \"contracts/NFTStake.sol\":36827:36846  pool.accDDTPerShare */\n      0x03\n      add\n      sload\n        /* \"contracts/NFTStake.sol\":36811:36815  user */\n      dup10\n        /* \"contracts/NFTStake.sol\":36811:36822  user.amount */\n      0x01\n      add\n      sload\n        /* \"contracts/NFTStake.sol\":36811:36826  user.amount.mul */\n      tag_157\n      swap1\n        /* \"contracts/NFTStake.sol\":36811:36847  user.amount.mul(pool.accDDTPerShare) */\n      swap2\n      swap1\n      0xffffffff\n      and\n      jump\t// in\n    tag_255:\n        /* \"contracts/NFTStake.sol\":36811:36851  user.amount.mul(pool.accDDTPerShare).div */\n      tag_158\n      swap1\n        /* \"contracts/NFTStake.sol\":36811:36857  user.amount.mul(pool.accDDTPerShare).div(1e12) */\n      swap2\n      swap1\n      0xffffffff\n      and\n      jump\t// in\n    tag_254:\n        /* \"contracts/NFTStake.sol\":36811:36861  user.amount.mul(pool.accDDTPerShare).div(1e12).sub */\n      tag_159\n      swap1\n        /* \"contracts/NFTStake.sol\":36811:36878  user.amount.mul(pool.accDDTPerShare).div(1e12).sub(user.rewardDebt) */\n      swap2\n      swap1\n      0xffffffff\n      and\n      jump\t// in\n    tag_253:\n        /* \"contracts/NFTStake.sol\":36801:36878  pending = user.amount.mul(pool.accDDTPerShare).div(1e12).sub(user.rewardDebt) */\n      swap3\n      pop\n        /* \"contracts/NFTStake.sol\":36906:36907  0 */\n      0x00\n        /* \"contracts/NFTStake.sol\":36896:36903  pending */\n      dup4\n        /* \"contracts/NFTStake.sol\":36896:36907  pending > 0 */\n      gt\n        /* \"contracts/NFTStake.sol\":36893:36979  if(pending > 0){... */\n      iszero\n      tag_256\n      jumpi\n        /* \"contracts/NFTStake.sol\":36927:36963  safeDDTTransfer(msg.sender, pending) */\n      tag_257\n        /* \"contracts/NFTStake.sol\":36943:36953  msg.sender */\n      caller\n        /* \"contracts/NFTStake.sol\":36955:36962  pending */\n      dup5\n        /* \"contracts/NFTStake.sol\":36927:36942  safeDDTTransfer */\n      tag_233\n        /* \"contracts/NFTStake.sol\":36927:36963  safeDDTTransfer(msg.sender, pending) */\n      jump\t// in\n    tag_257:\n        /* \"contracts/NFTStake.sol\":36893:36979  if(pending > 0){... */\n    tag_256:\n        /* \"contracts/NFTStake.sol\":37007:37025  user.amount.sub(1) */\n      tag_258\n        /* \"contracts/NFTStake.sol\":37023:37024  1 */\n      0x01\n        /* \"contracts/NFTStake.sol\":37007:37011  user */\n      dup6\n        /* \"contracts/NFTStake.sol\":37007:37018  user.amount */\n      0x01\n      add\n      sload\n        /* \"contracts/NFTStake.sol\":37007:37022  user.amount.sub */\n      tag_159\n      swap1\n        /* \"contracts/NFTStake.sol\":37007:37025  user.amount.sub(1) */\n      swap2\n      swap1\n      0xffffffff\n      and\n      jump\t// in\n    tag_258:\n        /* \"contracts/NFTStake.sol\":36993:36997  user */\n      dup5\n        /* \"contracts/NFTStake.sol\":36993:37004  user.amount */\n      0x01\n      add\n        /* \"contracts/NFTStake.sol\":36993:37025  user.amount = user.amount.sub(1) */\n      dup2\n      swap1\n      sstore\n      pop\n        /* \"contracts/NFTStake.sol\":37058:37104  user.amount.mul(pool.accDDTPerShare).div(1e12) */\n      tag_259\n        /* \"contracts/NFTStake.sol\":37099:37103  1e12 */\n      0xe8d4a51000\n        /* \"contracts/NFTStake.sol\":37058:37094  user.amount.mul(pool.accDDTPerShare) */\n      tag_260\n        /* \"contracts/NFTStake.sol\":37074:37078  pool */\n      dup8\n        /* \"contracts/NFTStake.sol\":37074:37093  pool.accDDTPerShare */\n      0x03\n      add\n      sload\n        /* \"contracts/NFTStake.sol\":37058:37062  user */\n      dup8\n        /* \"contracts/NFTStake.sol\":37058:37069  user.amount */\n      0x01\n      add\n      sload\n        /* \"contracts/NFTStake.sol\":37058:37073  user.amount.mul */\n      tag_157\n      swap1\n        /* \"contracts/NFTStake.sol\":37058:37094  user.amount.mul(pool.accDDTPerShare) */\n      swap2\n      swap1\n      0xffffffff\n      and\n      jump\t// in\n    tag_260:\n        /* \"contracts/NFTStake.sol\":37058:37098  user.amount.mul(pool.accDDTPerShare).div */\n      tag_158\n      swap1\n        /* \"contracts/NFTStake.sol\":37058:37104  user.amount.mul(pool.accDDTPerShare).div(1e12) */\n      swap2\n      swap1\n      0xffffffff\n      and\n      jump\t// in\n    tag_259:\n        /* \"contracts/NFTStake.sol\":37040:37044  user */\n      dup5\n        /* \"contracts/NFTStake.sol\":37040:37055  user.rewardDebt */\n      0x02\n      add\n        /* \"contracts/NFTStake.sol\":37040:37104  user.rewardDebt = user.amount.mul(pool.accDDTPerShare).div(1e12) */\n      dup2\n      swap1\n      sstore\n      pop\n        /* \"contracts/NFTStake.sol\":37126:37130  user */\n      dup4\n        /* \"contracts/NFTStake.sol\":37126:37139  user.tokenIds */\n      0x00\n      add\n        /* \"contracts/NFTStake.sol\":37140:37152  tokenIdIndex */\n      dup2\n        /* \"contracts/NFTStake.sol\":37126:37153  user.tokenIds[tokenIdIndex] */\n      dup2\n      sload\n      dup2\n      lt\n      tag_261\n      jumpi\n      tag_262\n      tag_151\n      jump\t// in\n    tag_262:\n    tag_261:\n      swap1\n      0x00\n      mstore\n      keccak256(0x00, 0x20)\n      add\n        /* \"contracts/NFTStake.sol\":37119:37153  delete user.tokenIds[tokenIdIndex] */\n      0x00\n      swap1\n      sstore\n        /* \"contracts/NFTStake.sol\":37168:37172  pool */\n      dup5\n        /* \"contracts/NFTStake.sol\":37168:37181  pool.NFTToken */\n      0x00\n      add\n      0x00\n      swap1\n      sload\n      swap1\n      0x0100\n      exp\n      swap1\n      div\n      0xffffffffffffffffffffffffffffffffffffffff\n      and\n        /* \"contracts/NFTStake.sol\":37168:37198  pool.NFTToken.safeTransferFrom */\n      0xffffffffffffffffffffffffffffffffffffffff\n      and\n      0x42842e0e\n        /* \"contracts/NFTStake.sol\":37207:37211  this */\n      address\n        /* \"contracts/NFTStake.sol\":37222:37232  msg.sender */\n      caller\n        /* \"contracts/NFTStake.sol\":37235:37243  _tokenId */\n      dup10\n        /* \"contracts/NFTStake.sol\":37168:37244  pool.NFTToken.safeTransferFrom(address(this), address(msg.sender), _tokenId) */\n      mload(0x40)\n      dup5\n      0xffffffff\n      and\n      0xe0\n      shl\n      dup2\n      mstore\n      0x04\n      add\n      tag_264\n      swap4\n      swap3\n      swap2\n      swap1\n      tag_265\n      jump\t// in\n    tag_264:\n      0x00\n      mload(0x40)\n      dup1\n      dup4\n      sub\n      dup2\n      0x00\n      dup8\n      dup1\n      extcodesize\n      iszero\n      dup1\n      iszero\n      tag_266\n      jumpi\n      0x00\n      dup1\n      revert\n    tag_266:\n      pop\n      gas\n      call\n      iszero\n      dup1\n      iszero\n      tag_268\n      jumpi\n      returndatasize\n      0x00\n      dup1\n      returndatacopy\n      revert(0x00, returndatasize)\n    tag_268:\n      pop\n      pop\n      pop\n      pop\n        /* \"contracts/NFTStake.sol\":36330:37256  {... */\n      pop\n      pop\n        /* \"contracts/NFTStake.sol\":35994:37256  if(_tokenId == 0){... */\n    tag_236:\n        /* \"contracts/NFTStake.sol\":37292:37296  _pid */\n      dup5\n        /* \"contracts/NFTStake.sol\":37280:37290  msg.sender */\n      caller\n        /* \"contracts/NFTStake.sol\":37271:37307  Withdraw(msg.sender, _pid, _tokenId) */\n      0xffffffffffffffffffffffffffffffffffffffff\n      and\n      0xf279e6a1f5e320cca91135676d9cb6e44ca8a08c0b88342bcdb1144f6511b568\n        /* \"contracts/NFTStake.sol\":37298:37306  _tokenId */\n      dup7\n        /* \"contracts/NFTStake.sol\":37271:37307  Withdraw(msg.sender, _pid, _tokenId) */\n      mload(0x40)\n      tag_269\n      swap2\n      swap1\n      tag_42\n      jump\t// in\n    tag_269:\n      mload(0x40)\n      dup1\n      swap2\n      sub\n      swap1\n      log3\n        /* \"contracts/NFTStake.sol\":35847:37315  {... */\n      pop\n      pop\n      pop\n        /* \"contracts/NFTStake.sol\":35790:37315  function withdraw(uint256 _pid, uint256 _tokenId) public {... */\n      pop\n      pop\n      jump\t// out\n        /* \"contracts/NFTStake.sol\":30170:30195  uint256 public startBlock */\n    tag_79:\n      sload(0x0a)\n      dup2\n      jump\t// out\n        /* \"contracts/NFTStake.sol\":34200:34929  function updatePool(uint256 _pid) public {... */\n    tag_83:\n        /* \"contracts/NFTStake.sol\":34252:34273  PoolInfo storage pool */\n      0x00\n        /* \"contracts/NFTStake.sol\":34276:34284  poolInfo */\n      0x07\n        /* \"contracts/NFTStake.sol\":34285:34289  _pid */\n      dup3\n        /* \"contracts/NFTStake.sol\":34276:34290  poolInfo[_pid] */\n      dup2\n      sload\n      dup2\n      lt\n      tag_271\n      jumpi\n      tag_272\n      tag_151\n      jump\t// in\n    tag_272:\n    tag_271:\n      swap1\n      0x00\n      mstore\n      keccak256(0x00, 0x20)\n      swap1\n      0x04\n      mul\n      add\n        /* \"contracts/NFTStake.sol\":34252:34290  PoolInfo storage pool = poolInfo[_pid] */\n      swap1\n      pop\n        /* \"contracts/NFTStake.sol\":34321:34325  pool */\n      dup1\n        /* \"contracts/NFTStake.sol\":34321:34341  pool.lastRewardBlock */\n      0x02\n      add\n      sload\n        /* \"contracts/NFTStake.sol\":34305:34317  block.number */\n      number\n        /* \"contracts/NFTStake.sol\":34305:34341  block.number <= pool.lastRewardBlock */\n      gt\n        /* \"contracts/NFTStake.sol\":34301:34376  if (block.number <= pool.lastRewardBlock) {... */\n      tag_274\n      jumpi\n        /* \"contracts/NFTStake.sol\":34358:34365  return; */\n      pop\n      jump(tag_270)\n        /* \"contracts/NFTStake.sol\":34301:34376  if (block.number <= pool.lastRewardBlock) {... */\n    tag_274:\n        /* \"contracts/NFTStake.sol\":34386:34403  uint256 NFTSupply */\n      0x00\n        /* \"contracts/NFTStake.sol\":34406:34410  pool */\n      dup2\n        /* \"contracts/NFTStake.sol\":34406:34419  pool.NFTToken */\n      0x00\n      add\n      0x00\n      swap1\n      sload\n      swap1\n      0x0100\n      exp\n      swap1\n      div\n      0xffffffffffffffffffffffffffffffffffffffff\n      and\n        /* \"contracts/NFTStake.sol\":34406:34429  pool.NFTToken.balanceOf */\n      0xffffffffffffffffffffffffffffffffffffffff\n      and\n      0x70a08231\n        /* \"contracts/NFTStake.sol\":34438:34442  this */\n      address\n        /* \"contracts/NFTStake.sol\":34406:34444  pool.NFTToken.balanceOf(address(this)) */\n      mload(0x40)\n      dup3\n      0xffffffff\n      and\n      0xe0\n      shl\n      dup2\n      mstore\n      0x04\n      add\n      tag_275\n      swap2\n      swap1\n      tag_108\n      jump\t// in\n    tag_275:\n      0x20\n      mload(0x40)\n      dup1\n      dup4\n      sub\n      dup2\n      dup7\n      gas\n      staticcall\n      iszero\n      dup1\n      iszero\n      tag_277\n      jumpi\n      returndatasize\n      0x00\n      dup1\n      returndatacopy\n      revert(0x00, returndatasize)\n    tag_277:\n      pop\n      pop\n      pop\n      pop\n      mload(0x40)\n      returndatasize\n      not(0x1f)\n      0x1f\n      dup3\n      add\n      and\n      dup3\n      add\n      dup1\n      0x40\n      mstore\n      pop\n      dup2\n      add\n      swap1\n      tag_278\n      swap2\n      swap1\n      tag_203\n      jump\t// in\n    tag_278:\n        /* \"contracts/NFTStake.sol\":34386:34444  uint256 NFTSupply = pool.NFTToken.balanceOf(address(this)) */\n      swap1\n      pop\n        /* \"contracts/NFTStake.sol\":34472:34473  0 */\n      0x00\n        /* \"contracts/NFTStake.sol\":34459:34468  NFTSupply */\n      dup2\n        /* \"contracts/NFTStake.sol\":34459:34473  NFTSupply <= 0 */\n      gt\n        /* \"contracts/NFTStake.sol\":34455:34558  if (NFTSupply <= 0) {... */\n      tag_279\n      jumpi\n        /* \"contracts/NFTStake.sol\":34513:34525  block.number */\n      number\n        /* \"contracts/NFTStake.sol\":34490:34494  pool */\n      dup3\n        /* \"contracts/NFTStake.sol\":34490:34510  pool.lastRewardBlock */\n      0x02\n      add\n        /* \"contracts/NFTStake.sol\":34490:34525  pool.lastRewardBlock = block.number */\n      dup2\n      swap1\n      sstore\n      pop\n        /* \"contracts/NFTStake.sol\":34540:34547  return; */\n      pop\n      pop\n      jump(tag_270)\n        /* \"contracts/NFTStake.sol\":34455:34558  if (NFTSupply <= 0) {... */\n    tag_279:\n        /* \"contracts/NFTStake.sol\":34568:34586  uint256 multiplier */\n      0x00\n        /* \"contracts/NFTStake.sol\":34589:34638  getMultiplier(pool.lastRewardBlock, block.number) */\n      tag_280\n        /* \"contracts/NFTStake.sol\":34603:34607  pool */\n      dup4\n        /* \"contracts/NFTStake.sol\":34603:34623  pool.lastRewardBlock */\n      0x02\n      add\n      sload\n        /* \"contracts/NFTStake.sol\":34625:34637  block.number */\n      number\n        /* \"contracts/NFTStake.sol\":34589:34602  getMultiplier */\n      tag_111\n        /* \"contracts/NFTStake.sol\":34589:34638  getMultiplier(pool.lastRewardBlock, block.number) */\n      jump\t// in\n    tag_280:\n        /* \"contracts/NFTStake.sol\":34568:34638  uint256 multiplier = getMultiplier(pool.lastRewardBlock, block.number) */\n      swap1\n      pop\n        /* \"contracts/NFTStake.sol\":34649:34666  uint256 DDTReward */\n      0x00\n        /* \"contracts/NFTStake.sol\":34669:34738  multiplier.mul(DDTPerBlock).mul(pool.allocPoint).div(totalAllocPoint) */\n      tag_281\n        /* \"contracts/NFTStake.sol\":34722:34737  totalAllocPoint */\n      sload(0x09)\n        /* \"contracts/NFTStake.sol\":34669:34717  multiplier.mul(DDTPerBlock).mul(pool.allocPoint) */\n      tag_282\n        /* \"contracts/NFTStake.sol\":34701:34705  pool */\n      dup7\n        /* \"contracts/NFTStake.sol\":34701:34716  pool.allocPoint */\n      0x01\n      add\n      sload\n        /* \"contracts/NFTStake.sol\":34669:34696  multiplier.mul(DDTPerBlock) */\n      tag_283\n        /* \"contracts/NFTStake.sol\":34684:34695  DDTPerBlock */\n      sload(0x04)\n        /* \"contracts/NFTStake.sol\":34669:34679  multiplier */\n      dup8\n        /* \"contracts/NFTStake.sol\":34669:34683  multiplier.mul */\n      tag_157\n      swap1\n        /* \"contracts/NFTStake.sol\":34669:34696  multiplier.mul(DDTPerBlock) */\n      swap2\n      swap1\n      0xffffffff\n      and\n      jump\t// in\n    tag_283:\n        /* \"contracts/NFTStake.sol\":34669:34700  multiplier.mul(DDTPerBlock).mul */\n      tag_157\n      swap1\n        /* \"contracts/NFTStake.sol\":34669:34717  multiplier.mul(DDTPerBlock).mul(pool.allocPoint) */\n      swap2\n      swap1\n      0xffffffff\n      and\n      jump\t// in\n    tag_282:\n        /* \"contracts/NFTStake.sol\":34669:34721  multiplier.mul(DDTPerBlock).mul(pool.allocPoint).div */\n      tag_158\n      swap1\n        /* \"contracts/NFTStake.sol\":34669:34738  multiplier.mul(DDTPerBlock).mul(pool.allocPoint).div(totalAllocPoint) */\n      swap2\n      swap1\n      0xffffffff\n      and\n      jump\t// in\n    tag_281:\n        /* \"contracts/NFTStake.sol\":34649:34738  uint256 DDTReward = multiplier.mul(DDTPerBlock).mul(pool.allocPoint).div(totalAllocPoint) */\n      swap1\n      pop\n        /* \"contracts/NFTStake.sol\":34749:34752  DDT */\n      0x02\n      0x00\n      swap1\n      sload\n      swap1\n      0x0100\n      exp\n      swap1\n      div\n      0xffffffffffffffffffffffffffffffffffffffff\n      and\n        /* \"contracts/NFTStake.sol\":34749:34757  DDT.mint */\n      0xffffffffffffffffffffffffffffffffffffffff\n      and\n      0x40c10f19\n        /* \"contracts/NFTStake.sol\":34766:34770  this */\n      address\n        /* \"contracts/NFTStake.sol\":34773:34782  DDTReward */\n      dup4\n        /* \"contracts/NFTStake.sol\":34749:34783  DDT.mint(address(this), DDTReward) */\n      mload(0x40)\n      dup4\n      0xffffffff\n      and\n      0xe0\n      shl\n      dup2\n      mstore\n      0x04\n      add\n      tag_284\n      swap3\n      swap2\n      swap1\n      tag_164\n      jump\t// in\n    tag_284:\n      0x20\n      mload(0x40)\n      dup1\n      dup4\n      sub\n      dup2\n      0x00\n      dup8\n      gas\n      call\n      iszero\n      dup1\n      iszero\n      tag_286\n      jumpi\n      returndatasize\n      0x00\n      dup1\n      returndatacopy\n      revert(0x00, returndatasize)\n    tag_286:\n      pop\n      pop\n      pop\n      pop\n      mload(0x40)\n      returndatasize\n      not(0x1f)\n      0x1f\n      dup3\n      add\n      and\n      dup3\n      add\n      dup1\n      0x40\n      mstore\n      pop\n      dup2\n      add\n      swap1\n      tag_287\n      swap2\n      swap1\n      tag_168\n      jump\t// in\n    tag_287:\n      pop\n        /* \"contracts/NFTStake.sol\":34816:34875  pool.accDDTPerShare.add(DDTReward.mul(1e12).div(NFTSupply)) */\n      tag_288\n        /* \"contracts/NFTStake.sol\":34840:34874  DDTReward.mul(1e12).div(NFTSupply) */\n      tag_289\n        /* \"contracts/NFTStake.sol\":34864:34873  NFTSupply */\n      dup5\n        /* \"contracts/NFTStake.sol\":34840:34859  DDTReward.mul(1e12) */\n      tag_290\n        /* \"contracts/NFTStake.sol\":34854:34858  1e12 */\n      0xe8d4a51000\n        /* \"contracts/NFTStake.sol\":34840:34849  DDTReward */\n      dup6\n        /* \"contracts/NFTStake.sol\":34840:34853  DDTReward.mul */\n      tag_157\n      swap1\n        /* \"contracts/NFTStake.sol\":34840:34859  DDTReward.mul(1e12) */\n      swap2\n      swap1\n      0xffffffff\n      and\n      jump\t// in\n    tag_290:\n        /* \"contracts/NFTStake.sol\":34840:34863  DDTReward.mul(1e12).div */\n      tag_158\n      swap1\n        /* \"contracts/NFTStake.sol\":34840:34874  DDTReward.mul(1e12).div(NFTSupply) */\n      swap2\n      swap1\n      0xffffffff\n      and\n      jump\t// in\n    tag_289:\n        /* \"contracts/NFTStake.sol\":34816:34820  pool */\n      dup6\n        /* \"contracts/NFTStake.sol\":34816:34835  pool.accDDTPerShare */\n      0x03\n      add\n      sload\n        /* \"contracts/NFTStake.sol\":34816:34839  pool.accDDTPerShare.add */\n      tag_193\n      swap1\n        /* \"contracts/NFTStake.sol\":34816:34875  pool.accDDTPerShare.add(DDTReward.mul(1e12).div(NFTSupply)) */\n      swap2\n      swap1\n      0xffffffff\n      and\n      jump\t// in\n    tag_288:\n        /* \"contracts/NFTStake.sol\":34794:34798  pool */\n      dup5\n        /* \"contracts/NFTStake.sol\":34794:34813  pool.accDDTPerShare */\n      0x03\n      add\n        /* \"contracts/NFTStake.sol\":34794:34875  pool.accDDTPerShare = pool.accDDTPerShare.add(DDTReward.mul(1e12).div(NFTSupply)) */\n      dup2\n      swap1\n      sstore\n      pop\n        /* \"contracts/NFTStake.sol\":34909:34921  block.number */\n      number\n        /* \"contracts/NFTStake.sol\":34886:34890  pool */\n      dup5\n        /* \"contracts/NFTStake.sol\":34886:34906  pool.lastRewardBlock */\n      0x02\n      add\n        /* \"contracts/NFTStake.sol\":34886:34921  pool.lastRewardBlock = block.number */\n      dup2\n      swap1\n      sstore\n      pop\n        /* \"contracts/NFTStake.sol\":34241:34929  {... */\n      pop\n      pop\n      pop\n      pop\n        /* \"contracts/NFTStake.sol\":34200:34929  function updatePool(uint256 _pid) public {... */\n    tag_270:\n      pop\n      jump\t// out\n        /* \"contracts/NFTStake.sol\":31094:31217  function updateMultiplier(uint256 multiplierNumber) public onlyOwner {... */\n    tag_86:\n        /* \"contracts/NFTStake.sol\":20406:20418  _msgSender() */\n      tag_292\n        /* \"contracts/NFTStake.sol\":20406:20416  _msgSender */\n      tag_182\n        /* \"contracts/NFTStake.sol\":20406:20418  _msgSender() */\n      jump\t// in\n    tag_292:\n        /* \"contracts/NFTStake.sol\":20395:20418  owner() == _msgSender() */\n      0xffffffffffffffffffffffffffffffffffffffff\n      and\n        /* \"contracts/NFTStake.sol\":20395:20402  owner() */\n      tag_293\n        /* \"contracts/NFTStake.sol\":20395:20400  owner */\n      tag_106\n        /* \"contracts/NFTStake.sol\":20395:20402  owner() */\n      jump\t// in\n    tag_293:\n        /* \"contracts/NFTStake.sol\":20395:20418  owner() == _msgSender() */\n      0xffffffffffffffffffffffffffffffffffffffff\n      and\n      eq\n        /* \"contracts/NFTStake.sol\":20387:20455  require(owner() == _msgSender(), \"Ownable: caller is not the owner\") */\n      tag_294\n      jumpi\n      mload(0x40)\n      0x08c379a000000000000000000000000000000000000000000000000000000000\n      dup2\n      mstore\n      0x04\n      add\n      tag_295\n      swap1\n      tag_186\n      jump\t// in\n    tag_295:\n      mload(0x40)\n      dup1\n      swap2\n      sub\n      swap1\n      revert\n    tag_294:\n        /* \"contracts/NFTStake.sol\":31193:31209  multiplierNumber */\n      dup1\n        /* \"contracts/NFTStake.sol\":31174:31190  BONUS_MULTIPLIER */\n      0x05\n        /* \"contracts/NFTStake.sol\":31174:31209  BONUS_MULTIPLIER = multiplierNumber */\n      dup2\n      swap1\n      sstore\n      pop\n        /* \"contracts/NFTStake.sol\":31094:31217  function updateMultiplier(uint256 multiplierNumber) public onlyOwner {... */\n      pop\n      jump\t// out\n        /* \"contracts/NFTStake.sol\":38387:38492  function updateDDTPerBlock(uint256 newAmount) public onlyOwner {... */\n    tag_89:\n        /* \"contracts/NFTStake.sol\":20406:20418  _msgSender() */\n      tag_298\n        /* \"contracts/NFTStake.sol\":20406:20416  _msgSender */\n      tag_182\n        /* \"contracts/NFTStake.sol\":20406:20418  _msgSender() */\n      jump\t// in\n    tag_298:\n        /* \"contracts/NFTStake.sol\":20395:20418  owner() == _msgSender() */\n      0xffffffffffffffffffffffffffffffffffffffff\n      and\n        /* \"contracts/NFTStake.sol\":20395:20402  owner() */\n      tag_299\n        /* \"contracts/NFTStake.sol\":20395:20400  owner */\n      tag_106\n        /* \"contracts/NFTStake.sol\":20395:20402  owner() */\n      jump\t// in\n    tag_299:\n        /* \"contracts/NFTStake.sol\":20395:20418  owner() == _msgSender() */\n      0xffffffffffffffffffffffffffffffffffffffff\n      and\n      eq\n        /* \"contracts/NFTStake.sol\":20387:20455  require(owner() == _msgSender(), \"Ownable: caller is not the owner\") */\n      tag_300\n      jumpi\n      mload(0x40)\n      0x08c379a000000000000000000000000000000000000000000000000000000000\n      dup2\n      mstore\n      0x04\n      add\n      tag_301\n      swap1\n      tag_186\n      jump\t// in\n    tag_301:\n      mload(0x40)\n      dup1\n      swap2\n      sub\n      swap1\n      revert\n    tag_300:\n        /* \"contracts/NFTStake.sol\":38475:38484  newAmount */\n      dup1\n        /* \"contracts/NFTStake.sol\":38461:38472  DDTPerBlock */\n      0x04\n        /* \"contracts/NFTStake.sol\":38461:38484  DDTPerBlock = newAmount */\n      dup2\n      swap1\n      sstore\n      pop\n        /* \"contracts/NFTStake.sol\":38387:38492  function updateDDTPerBlock(uint256 newAmount) public onlyOwner {... */\n      pop\n      jump\t// out\n        /* \"contracts/NFTStake.sol\":33944:34124  function massUpdatePools() public {... */\n    tag_91:\n        /* \"contracts/NFTStake.sol\":33989:34003  uint256 length */\n      0x00\n        /* \"contracts/NFTStake.sol\":34006:34014  poolInfo */\n      0x07\n        /* \"contracts/NFTStake.sol\":34006:34021  poolInfo.length */\n      dup1\n      sload\n      swap1\n      pop\n        /* \"contracts/NFTStake.sol\":33989:34021  uint256 length = poolInfo.length */\n      swap1\n      pop\n        /* \"contracts/NFTStake.sol\":34037:34048  uint256 pid */\n      0x00\n        /* \"contracts/NFTStake.sol\":34032:34117  for (uint256 pid = 0; pid < length; ++pid) {... */\n    tag_304:\n        /* \"contracts/NFTStake.sol\":34060:34066  length */\n      dup2\n        /* \"contracts/NFTStake.sol\":34054:34057  pid */\n      dup2\n        /* \"contracts/NFTStake.sol\":34054:34066  pid < length */\n      lt\n        /* \"contracts/NFTStake.sol\":34032:34117  for (uint256 pid = 0; pid < length; ++pid) {... */\n      iszero\n      tag_305\n      jumpi\n        /* \"contracts/NFTStake.sol\":34090:34105  updatePool(pid) */\n      tag_307\n        /* \"contracts/NFTStake.sol\":34101:34104  pid */\n      dup2\n        /* \"contracts/NFTStake.sol\":34090:34100  updatePool */\n      tag_83\n        /* \"contracts/NFTStake.sol\":34090:34105  updatePool(pid) */\n      jump\t// in\n    tag_307:\n        /* \"contracts/NFTStake.sol\":34068:34073  ++pid */\n      dup1\n      tag_308\n      swap1\n      tag_245\n      jump\t// in\n    tag_308:\n      swap1\n      pop\n        /* \"contracts/NFTStake.sol\":34032:34117  for (uint256 pid = 0; pid < length; ++pid) {... */\n      jump(tag_304)\n    tag_305:\n      pop\n        /* \"contracts/NFTStake.sol\":33978:34124  {... */\n      pop\n        /* \"contracts/NFTStake.sol\":33944:34124  function massUpdatePools() public {... */\n      jump\t// out\n        /* \"contracts/NFTStake.sol\":32146:32451  function set( uint256 _pid, uint256 _allocPoint, bool _withUpdate) public onlyOwner {... */\n    tag_95:\n        /* \"contracts/NFTStake.sol\":20406:20418  _msgSender() */\n      tag_310\n        /* \"contracts/NFTStake.sol\":20406:20416  _msgSender */\n      tag_182\n        /* \"contracts/NFTStake.sol\":20406:20418  _msgSender() */\n      jump\t// in\n    tag_310:\n        /* \"contracts/NFTStake.sol\":20395:20418  owner() == _msgSender() */\n      0xffffffffffffffffffffffffffffffffffffffff\n      and\n        /* \"contracts/NFTStake.sol\":20395:20402  owner() */\n      tag_311\n        /* \"contracts/NFTStake.sol\":20395:20400  owner */\n      tag_106\n        /* \"contracts/NFTStake.sol\":20395:20402  owner() */\n      jump\t// in\n    tag_311:\n        /* \"contracts/NFTStake.sol\":20395:20418  owner() == _msgSender() */\n      0xffffffffffffffffffffffffffffffffffffffff\n      and\n      eq\n        /* \"contracts/NFTStake.sol\":20387:20455  require(owner() == _msgSender(), \"Ownable: caller is not the owner\") */\n      tag_312\n      jumpi\n      mload(0x40)\n      0x08c379a000000000000000000000000000000000000000000000000000000000\n      dup2\n      mstore\n      0x04\n      add\n      tag_313\n      swap1\n      tag_186\n      jump\t// in\n    tag_313:\n      mload(0x40)\n      dup1\n      swap2\n      sub\n      swap1\n      revert\n    tag_312:\n        /* \"contracts/NFTStake.sol\":32245:32256  _withUpdate */\n      dup1\n        /* \"contracts/NFTStake.sol\":32241:32302  if (_withUpdate) {... */\n      iszero\n      tag_315\n      jumpi\n        /* \"contracts/NFTStake.sol\":32273:32290  massUpdatePools() */\n      tag_316\n        /* \"contracts/NFTStake.sol\":32273:32288  massUpdatePools */\n      tag_91\n        /* \"contracts/NFTStake.sol\":32273:32290  massUpdatePools() */\n      jump\t// in\n    tag_316:\n        /* \"contracts/NFTStake.sol\":32241:32302  if (_withUpdate) {... */\n    tag_315:\n        /* \"contracts/NFTStake.sol\":32330:32393  totalAllocPoint.sub(poolInfo[_pid].allocPoint).add(_allocPoint) */\n      tag_317\n        /* \"contracts/NFTStake.sol\":32381:32392  _allocPoint */\n      dup3\n        /* \"contracts/NFTStake.sol\":32330:32376  totalAllocPoint.sub(poolInfo[_pid].allocPoint) */\n      tag_318\n        /* \"contracts/NFTStake.sol\":32350:32358  poolInfo */\n      0x07\n        /* \"contracts/NFTStake.sol\":32359:32363  _pid */\n      dup7\n        /* \"contracts/NFTStake.sol\":32350:32364  poolInfo[_pid] */\n      dup2\n      sload\n      dup2\n      lt\n      tag_319\n      jumpi\n      tag_320\n      tag_151\n      jump\t// in\n    tag_320:\n    tag_319:\n      swap1\n      0x00\n      mstore\n      keccak256(0x00, 0x20)\n      swap1\n      0x04\n      mul\n      add\n        /* \"contracts/NFTStake.sol\":32350:32375  poolInfo[_pid].allocPoint */\n      0x01\n      add\n      sload\n        /* \"contracts/NFTStake.sol\":32330:32345  totalAllocPoint */\n      sload(0x09)\n        /* \"contracts/NFTStake.sol\":32330:32349  totalAllocPoint.sub */\n      tag_159\n      swap1\n        /* \"contracts/NFTStake.sol\":32330:32376  totalAllocPoint.sub(poolInfo[_pid].allocPoint) */\n      swap2\n      swap1\n      0xffffffff\n      and\n      jump\t// in\n    tag_318:\n        /* \"contracts/NFTStake.sol\":32330:32380  totalAllocPoint.sub(poolInfo[_pid].allocPoint).add */\n      tag_193\n      swap1\n        /* \"contracts/NFTStake.sol\":32330:32393  totalAllocPoint.sub(poolInfo[_pid].allocPoint).add(_allocPoint) */\n      swap2\n      swap1\n      0xffffffff\n      and\n      jump\t// in\n    tag_317:\n        /* \"contracts/NFTStake.sol\":32312:32327  totalAllocPoint */\n      0x09\n        /* \"contracts/NFTStake.sol\":32312:32393  totalAllocPoint = totalAllocPoint.sub(poolInfo[_pid].allocPoint).add(_allocPoint) */\n      dup2\n      swap1\n      sstore\n      pop\n        /* \"contracts/NFTStake.sol\":32432:32443  _allocPoint */\n      dup2\n        /* \"contracts/NFTStake.sol\":32404:32412  poolInfo */\n      0x07\n        /* \"contracts/NFTStake.sol\":32413:32417  _pid */\n      dup5\n        /* \"contracts/NFTStake.sol\":32404:32418  poolInfo[_pid] */\n      dup2\n      sload\n      dup2\n      lt\n      tag_322\n      jumpi\n      tag_323\n      tag_151\n      jump\t// in\n    tag_323:\n    tag_322:\n      swap1\n      0x00\n      mstore\n      keccak256(0x00, 0x20)\n      swap1\n      0x04\n      mul\n      add\n        /* \"contracts/NFTStake.sol\":32404:32429  poolInfo[_pid].allocPoint */\n      0x01\n      add\n        /* \"contracts/NFTStake.sol\":32404:32443  poolInfo[_pid].allocPoint = _allocPoint */\n      dup2\n      swap1\n      sstore\n      pop\n        /* \"contracts/NFTStake.sol\":32146:32451  function set( uint256 _pid, uint256 _allocPoint, bool _withUpdate) public onlyOwner {... */\n      pop\n      pop\n      pop\n      jump\t// out\n        /* \"contracts/NFTStake.sol\":20826:20929  function renounceOwnership() public virtual onlyOwner {... */\n    tag_97:\n        /* \"contracts/NFTStake.sol\":20406:20418  _msgSender() */\n      tag_326\n        /* \"contracts/NFTStake.sol\":20406:20416  _msgSender */\n      tag_182\n        /* \"contracts/NFTStake.sol\":20406:20418  _msgSender() */\n      jump\t// in\n    tag_326:\n        /* \"contracts/NFTStake.sol\":20395:20418  owner() == _msgSender() */\n      0xffffffffffffffffffffffffffffffffffffffff\n      and\n        /* \"contracts/NFTStake.sol\":20395:20402  owner() */\n      tag_327\n        /* \"contracts/NFTStake.sol\":20395:20400  owner */\n      tag_106\n        /* \"contracts/NFTStake.sol\":20395:20402  owner() */\n      jump\t// in\n    tag_327:\n        /* \"contracts/NFTStake.sol\":20395:20418  owner() == _msgSender() */\n      0xffffffffffffffffffffffffffffffffffffffff\n      and\n      eq\n        /* \"contracts/NFTStake.sol\":20387:20455  require(owner() == _msgSender(), \"Ownable: caller is not the owner\") */\n      tag_328\n      jumpi\n      mload(0x40)\n      0x08c379a000000000000000000000000000000000000000000000000000000000\n      dup2\n      mstore\n      0x04\n      add\n      tag_329\n      swap1\n      tag_186\n      jump\t// in\n    tag_329:\n      mload(0x40)\n      dup1\n      swap2\n      sub\n      swap1\n      revert\n    tag_328:\n        /* \"contracts/NFTStake.sol\":20891:20921  _transferOwnership(address(0)) */\n      tag_331\n        /* \"contracts/NFTStake.sol\":20918:20919  0 */\n      0x00\n        /* \"contracts/NFTStake.sol\":20891:20909  _transferOwnership */\n      tag_332\n        /* \"contracts/NFTStake.sol\":20891:20921  _transferOwnership(address(0)) */\n      jump\t// in\n    tag_331:\n        /* \"contracts/NFTStake.sol\":20826:20929  function renounceOwnership() public virtual onlyOwner {... */\n      jump\t// out\n        /* \"contracts/NFTStake.sol\":29776:29805  IMigratorChef public migrator */\n    tag_99:\n      0x06\n      0x00\n      swap1\n      sload\n      swap1\n      0x0100\n      exp\n      swap1\n      div\n      0xffffffffffffffffffffffffffffffffffffffff\n      and\n      dup2\n      jump\t// out\n        /* \"contracts/NFTStake.sol\":29638:29673  uint256 public BONUS_MULTIPLIER = 1 */\n    tag_103:\n      sload(0x05)\n      dup2\n      jump\t// out\n        /* \"contracts/NFTStake.sol\":20175:20262  function owner() public view virtual returns (address) {... */\n    tag_106:\n        /* \"contracts/NFTStake.sol\":20221:20228  address */\n      0x00\n        /* \"contracts/NFTStake.sol\":20248:20254  _owner */\n      dup1\n      0x00\n      swap1\n      sload\n      swap1\n      0x0100\n      exp\n      swap1\n      div\n      0xffffffffffffffffffffffffffffffffffffffff\n      and\n        /* \"contracts/NFTStake.sol\":20241:20254  return _owner */\n      swap1\n      pop\n        /* \"contracts/NFTStake.sol\":20175:20262  function owner() public view virtual returns (address) {... */\n      swap1\n      jump\t// out\n        /* \"contracts/NFTStake.sol\":32705:32849  function getMultiplier(uint256 _from, uint256 _to) public view returns (uint256) {... */\n    tag_111:\n        /* \"contracts/NFTStake.sol\":32777:32784  uint256 */\n      0x00\n        /* \"contracts/NFTStake.sol\":32805:32841  _to.sub(_from).mul(BONUS_MULTIPLIER) */\n      tag_335\n        /* \"contracts/NFTStake.sol\":32824:32840  BONUS_MULTIPLIER */\n      sload(0x05)\n        /* \"contracts/NFTStake.sol\":32805:32819  _to.sub(_from) */\n      tag_336\n        /* \"contracts/NFTStake.sol\":32813:32818  _from */\n      dup6\n        /* \"contracts/NFTStake.sol\":32805:32808  _to */\n      dup6\n        /* \"contracts/NFTStake.sol\":32805:32812  _to.sub */\n      tag_159\n      swap1\n        /* \"contracts/NFTStake.sol\":32805:32819  _to.sub(_from) */\n      swap2\n      swap1\n      0xffffffff\n      and\n      jump\t// in\n    tag_336:\n        /* \"contracts/NFTStake.sol\":32805:32823  _to.sub(_from).mul */\n      tag_157\n      swap1\n        /* \"contracts/NFTStake.sol\":32805:32841  _to.sub(_from).mul(BONUS_MULTIPLIER) */\n      swap2\n      swap1\n      0xffffffff\n      and\n      jump\t// in\n    tag_335:\n        /* \"contracts/NFTStake.sol\":32798:32841  return _to.sub(_from).mul(BONUS_MULTIPLIER) */\n      swap1\n      pop\n        /* \"contracts/NFTStake.sol\":32705:32849  function getMultiplier(uint256 _from, uint256 _to) public view returns (uint256) {... */\n      swap3\n      swap2\n      pop\n      pop\n      jump\t// out\n        /* \"contracts/NFTStake.sol\":29921:29985  mapping(uint256 => mapping(address => UserInfo)) public userInfo */\n    tag_115:\n      mstore(0x20, 0x08)\n      dup2\n      0x00\n      mstore\n      mstore(0x20, keccak256(0x00, 0x40))\n      dup1\n      0x00\n      mstore\n      keccak256(0x00, 0x40)\n      0x00\n      swap2\n      pop\n      swap2\n      pop\n      pop\n      dup1\n      0x01\n      add\n      sload\n      swap1\n      dup1\n      0x02\n      add\n      sload\n      swap1\n      pop\n      dup3\n      jump\t// out\n        /* \"contracts/NFTStake.sol\":29447:29464  IERC20 public DDT */\n    tag_119:\n      0x02\n      0x00\n      swap1\n      sload\n      swap1\n      0x0100\n      exp\n      swap1\n      div\n      0xffffffffffffffffffffffffffffffffffffffff\n      and\n      dup2\n      jump\t// out\n        /* \"contracts/NFTStake.sol\":38284:38379  function setDevAddress(address _devaddr) public onlyOwner {... */\n    tag_125:\n        /* \"contracts/NFTStake.sol\":20406:20418  _msgSender() */\n      tag_338\n        /* \"contracts/NFTStake.sol\":20406:20416  _msgSender */\n      tag_182\n        /* \"contracts/NFTStake.sol\":20406:20418  _msgSender() */\n      jump\t// in\n    tag_338:\n        /* \"contracts/NFTStake.sol\":20395:20418  owner() == _msgSender() */\n      0xffffffffffffffffffffffffffffffffffffffff\n      and\n        /* \"contracts/NFTStake.sol\":20395:20402  owner() */\n      tag_339\n        /* \"contracts/NFTStake.sol\":20395:20400  owner */\n      tag_106\n        /* \"contracts/NFTStake.sol\":20395:20402  owner() */\n      jump\t// in\n    tag_339:\n        /* \"contracts/NFTStake.sol\":20395:20418  owner() == _msgSender() */\n      0xffffffffffffffffffffffffffffffffffffffff\n      and\n      eq\n        /* \"contracts/NFTStake.sol\":20387:20455  require(owner() == _msgSender(), \"Ownable: caller is not the owner\") */\n      tag_340\n      jumpi\n      mload(0x40)\n      0x08c379a000000000000000000000000000000000000000000000000000000000\n      dup2\n      mstore\n      0x04\n      add\n      tag_341\n      swap1\n      tag_186\n      jump\t// in\n    tag_341:\n      mload(0x40)\n      dup1\n      swap2\n      sub\n      swap1\n      revert\n    tag_340:\n        /* \"contracts/NFTStake.sol\":38363:38371  _devaddr */\n      dup1\n        /* \"contracts/NFTStake.sol\":38353:38360  devaddr */\n      0x03\n      0x00\n        /* \"contracts/NFTStake.sol\":38353:38371  devaddr = _devaddr */\n      0x0100\n      exp\n      dup2\n      sload\n      dup2\n      0xffffffffffffffffffffffffffffffffffffffff\n      mul\n      not\n      and\n      swap1\n      dup4\n      0xffffffffffffffffffffffffffffffffffffffff\n      and\n      mul\n      or\n      swap1\n      sstore\n      pop\n        /* \"contracts/NFTStake.sol\":38284:38379  function setDevAddress(address _devaddr) public onlyOwner {... */\n      pop\n      jump\t// out\n        /* \"contracts/NFTStake.sol\":29492:29514  address public devaddr */\n    tag_127:\n      0x03\n      0x00\n      swap1\n      sload\n      swap1\n      0x0100\n      exp\n      swap1\n      div\n      0xffffffffffffffffffffffffffffffffffffffff\n      and\n      dup2\n      jump\t// out\n        /* \"contracts/NFTStake.sol\":32857:33045  function getUserTokenIds(uint256 _pid, address _user) public view returns (uint256[] memory) {... */\n    tag_131:\n        /* \"contracts/NFTStake.sol\":32932:32948  uint256[] memory */\n      0x60\n        /* \"contracts/NFTStake.sol\":32961:32982  UserInfo storage user */\n      0x00\n        /* \"contracts/NFTStake.sol\":32985:32993  userInfo */\n      0x08\n        /* \"contracts/NFTStake.sol\":32985:32999  userInfo[_pid] */\n      0x00\n        /* \"contracts/NFTStake.sol\":32994:32998  _pid */\n      dup6\n        /* \"contracts/NFTStake.sol\":32985:32999  userInfo[_pid] */\n      dup2\n      mstore\n      0x20\n      add\n      swap1\n      dup2\n      mstore\n      0x20\n      add\n      0x00\n      keccak256\n        /* \"contracts/NFTStake.sol\":32985:33006  userInfo[_pid][_user] */\n      0x00\n        /* \"contracts/NFTStake.sol\":33000:33005  _user */\n      dup5\n        /* \"contracts/NFTStake.sol\":32985:33006  userInfo[_pid][_user] */\n      0xffffffffffffffffffffffffffffffffffffffff\n      and\n      0xffffffffffffffffffffffffffffffffffffffff\n      and\n      dup2\n      mstore\n      0x20\n      add\n      swap1\n      dup2\n      mstore\n      0x20\n      add\n      0x00\n      keccak256\n        /* \"contracts/NFTStake.sol\":32961:33006  UserInfo storage user = userInfo[_pid][_user] */\n      swap1\n      pop\n        /* \"contracts/NFTStake.sol\":33024:33028  user */\n      dup1\n        /* \"contracts/NFTStake.sol\":33024:33037  user.tokenIds */\n      0x00\n      add\n        /* \"contracts/NFTStake.sol\":33017:33037  return user.tokenIds */\n      dup1\n      sload\n      dup1\n      0x20\n      mul\n      0x20\n      add\n      mload(0x40)\n      swap1\n      dup2\n      add\n      0x40\n      mstore\n      dup1\n      swap3\n      swap2\n      swap1\n      dup2\n      dup2\n      mstore\n      0x20\n      add\n      dup3\n      dup1\n      sload\n      dup1\n      iszero\n      tag_344\n      jumpi\n      0x20\n      mul\n      dup3\n      add\n      swap2\n      swap1\n      0x00\n      mstore\n      keccak256(0x00, 0x20)\n      swap1\n    tag_345:\n      dup2\n      sload\n      dup2\n      mstore\n      0x20\n      add\n      swap1\n      0x01\n      add\n      swap1\n      dup1\n      dup4\n      gt\n      tag_345\n      jumpi\n    tag_344:\n      pop\n      pop\n      pop\n      pop\n      pop\n      swap2\n      pop\n      pop\n        /* \"contracts/NFTStake.sol\":32857:33045  function getUserTokenIds(uint256 _pid, address _user) public view returns (uint256[] memory) {... */\n      swap3\n      swap2\n      pop\n      pop\n      jump\t// out\n        /* \"contracts/NFTStake.sol\":34998:35737  function deposit(uint256 _pid, uint256 _tokenId) public {... */\n    tag_136:\n        /* \"contracts/NFTStake.sol\":35065:35086  PoolInfo storage pool */\n      0x00\n        /* \"contracts/NFTStake.sol\":35089:35097  poolInfo */\n      0x07\n        /* \"contracts/NFTStake.sol\":35098:35102  _pid */\n      dup4\n        /* \"contracts/NFTStake.sol\":35089:35103  poolInfo[_pid] */\n      dup2\n      sload\n      dup2\n      lt\n      tag_347\n      jumpi\n      tag_348\n      tag_151\n      jump\t// in\n    tag_348:\n    tag_347:\n      swap1\n      0x00\n      mstore\n      keccak256(0x00, 0x20)\n      swap1\n      0x04\n      mul\n      add\n        /* \"contracts/NFTStake.sol\":35065:35103  PoolInfo storage pool = poolInfo[_pid] */\n      swap1\n      pop\n        /* \"contracts/NFTStake.sol\":35114:35135  UserInfo storage user */\n      0x00\n        /* \"contracts/NFTStake.sol\":35138:35146  userInfo */\n      0x08\n        /* \"contracts/NFTStake.sol\":35138:35152  userInfo[_pid] */\n      0x00\n        /* \"contracts/NFTStake.sol\":35147:35151  _pid */\n      dup6\n        /* \"contracts/NFTStake.sol\":35138:35152  userInfo[_pid] */\n      dup2\n      mstore\n      0x20\n      add\n      swap1\n      dup2\n      mstore\n      0x20\n      add\n      0x00\n      keccak256\n        /* \"contracts/NFTStake.sol\":35138:35164  userInfo[_pid][msg.sender] */\n      0x00\n        /* \"contracts/NFTStake.sol\":35153:35163  msg.sender */\n      caller\n        /* \"contracts/NFTStake.sol\":35138:35164  userInfo[_pid][msg.sender] */\n      0xffffffffffffffffffffffffffffffffffffffff\n      and\n      0xffffffffffffffffffffffffffffffffffffffff\n      and\n      dup2\n      mstore\n      0x20\n      add\n      swap1\n      dup2\n      mstore\n      0x20\n      add\n      0x00\n      keccak256\n        /* \"contracts/NFTStake.sol\":35114:35164  UserInfo storage user = userInfo[_pid][msg.sender] */\n      swap1\n      pop\n        /* \"contracts/NFTStake.sol\":35175:35191  updatePool(_pid) */\n      tag_350\n        /* \"contracts/NFTStake.sol\":35186:35190  _pid */\n      dup5\n        /* \"contracts/NFTStake.sol\":35175:35185  updatePool */\n      tag_83\n        /* \"contracts/NFTStake.sol\":35175:35191  updatePool(_pid) */\n      jump\t// in\n    tag_350:\n        /* \"contracts/NFTStake.sol\":35220:35221  0 */\n      0x00\n        /* \"contracts/NFTStake.sol\":35206:35210  user */\n      dup2\n        /* \"contracts/NFTStake.sol\":35206:35217  user.amount */\n      0x01\n      add\n      sload\n        /* \"contracts/NFTStake.sol\":35206:35221  user.amount > 0 */\n      gt\n        /* \"contracts/NFTStake.sol\":35202:35435  if (user.amount > 0) {... */\n      iszero\n      tag_351\n      jumpi\n        /* \"contracts/NFTStake.sol\":35238:35253  uint256 pending */\n      0x00\n        /* \"contracts/NFTStake.sol\":35256:35323  user.amount.mul(pool.accDDTPerShare).div(1e12).sub(user.rewardDebt) */\n      tag_352\n        /* \"contracts/NFTStake.sol\":35307:35311  user */\n      dup3\n        /* \"contracts/NFTStake.sol\":35307:35322  user.rewardDebt */\n      0x02\n      add\n      sload\n        /* \"contracts/NFTStake.sol\":35256:35302  user.amount.mul(pool.accDDTPerShare).div(1e12) */\n      tag_353\n        /* \"contracts/NFTStake.sol\":35297:35301  1e12 */\n      0xe8d4a51000\n        /* \"contracts/NFTStake.sol\":35256:35292  user.amount.mul(pool.accDDTPerShare) */\n      tag_354\n        /* \"contracts/NFTStake.sol\":35272:35276  pool */\n      dup8\n        /* \"contracts/NFTStake.sol\":35272:35291  pool.accDDTPerShare */\n      0x03\n      add\n      sload\n        /* \"contracts/NFTStake.sol\":35256:35260  user */\n      dup8\n        /* \"contracts/NFTStake.sol\":35256:35267  user.amount */\n      0x01\n      add\n      sload\n        /* \"contracts/NFTStake.sol\":35256:35271  user.amount.mul */\n      tag_157\n      swap1\n        /* \"contracts/NFTStake.sol\":35256:35292  user.amount.mul(pool.accDDTPerShare) */\n      swap2\n      swap1\n      0xffffffff\n      and\n      jump\t// in\n    tag_354:\n        /* \"contracts/NFTStake.sol\":35256:35296  user.amount.mul(pool.accDDTPerShare).div */\n      tag_158\n      swap1\n        /* \"contracts/NFTStake.sol\":35256:35302  user.amount.mul(pool.accDDTPerShare).div(1e12) */\n      swap2\n      swap1\n      0xffffffff\n      and\n      jump\t// in\n    tag_353:\n        /* \"contracts/NFTStake.sol\":35256:35306  user.amount.mul(pool.accDDTPerShare).div(1e12).sub */\n      tag_159\n      swap1\n        /* \"contracts/NFTStake.sol\":35256:35323  user.amount.mul(pool.accDDTPerShare).div(1e12).sub(user.rewardDebt) */\n      swap2\n      swap1\n      0xffffffff\n      and\n      jump\t// in\n    tag_352:\n        /* \"contracts/NFTStake.sol\":35238:35323  uint256 pending = user.amount.mul(pool.accDDTPerShare).div(1e12).sub(user.rewardDebt) */\n      swap1\n      pop\n        /* \"contracts/NFTStake.sol\":35351:35352  0 */\n      0x00\n        /* \"contracts/NFTStake.sol\":35341:35348  pending */\n      dup2\n        /* \"contracts/NFTStake.sol\":35341:35352  pending > 0 */\n      gt\n        /* \"contracts/NFTStake.sol\":35338:35424  if(pending > 0){... */\n      iszero\n      tag_355\n      jumpi\n        /* \"contracts/NFTStake.sol\":35372:35408  safeDDTTransfer(msg.sender, pending) */\n      tag_356\n        /* \"contracts/NFTStake.sol\":35388:35398  msg.sender */\n      caller\n        /* \"contracts/NFTStake.sol\":35400:35407  pending */\n      dup3\n        /* \"contracts/NFTStake.sol\":35372:35387  safeDDTTransfer */\n      tag_233\n        /* \"contracts/NFTStake.sol\":35372:35408  safeDDTTransfer(msg.sender, pending) */\n      jump\t// in\n    tag_356:\n        /* \"contracts/NFTStake.sol\":35338:35424  if(pending > 0){... */\n    tag_355:\n        /* \"contracts/NFTStake.sol\":35223:35435  {... */\n      pop\n        /* \"contracts/NFTStake.sol\":35202:35435  if (user.amount > 0) {... */\n    tag_351:\n        /* \"contracts/NFTStake.sol\":35445:35449  pool */\n      dup2\n        /* \"contracts/NFTStake.sol\":35445:35458  pool.NFTToken */\n      0x00\n      add\n      0x00\n      swap1\n      sload\n      swap1\n      0x0100\n      exp\n      swap1\n      div\n      0xffffffffffffffffffffffffffffffffffffffff\n      and\n        /* \"contracts/NFTStake.sol\":35445:35475  pool.NFTToken.safeTransferFrom */\n      0xffffffffffffffffffffffffffffffffffffffff\n      and\n      0x42842e0e\n        /* \"contracts/NFTStake.sol\":35484:35494  msg.sender */\n      caller\n        /* \"contracts/NFTStake.sol\":35505:35509  this */\n      address\n        /* \"contracts/NFTStake.sol\":35512:35520  _tokenId */\n      dup7\n        /* \"contracts/NFTStake.sol\":35445:35521  pool.NFTToken.safeTransferFrom(address(msg.sender), address(this), _tokenId) */\n      mload(0x40)\n      dup5\n      0xffffffff\n      and\n      0xe0\n      shl\n      dup2\n      mstore\n      0x04\n      add\n      tag_357\n      swap4\n      swap3\n      swap2\n      swap1\n      tag_265\n      jump\t// in\n    tag_357:\n      0x00\n      mload(0x40)\n      dup1\n      dup4\n      sub\n      dup2\n      0x00\n      dup8\n      dup1\n      extcodesize\n      iszero\n      dup1\n      iszero\n      tag_358\n      jumpi\n      0x00\n      dup1\n      revert\n    tag_358:\n      pop\n      gas\n      call\n      iszero\n      dup1\n      iszero\n      tag_360\n      jumpi\n      returndatasize\n      0x00\n      dup1\n      returndatacopy\n      revert(0x00, returndatasize)\n    tag_360:\n      pop\n      pop\n      pop\n      pop\n        /* \"contracts/NFTStake.sol\":35546:35564  user.amount.add(1) */\n      tag_361\n        /* \"contracts/NFTStake.sol\":35562:35563  1 */\n      0x01\n        /* \"contracts/NFTStake.sol\":35546:35550  user */\n      dup3\n        /* \"contracts/NFTStake.sol\":35546:35557  user.amount */\n      0x01\n      add\n      sload\n        /* \"contracts/NFTStake.sol\":35546:35561  user.amount.add */\n      tag_193\n      swap1\n        /* \"contracts/NFTStake.sol\":35546:35564  user.amount.add(1) */\n      swap2\n      swap1\n      0xffffffff\n      and\n      jump\t// in\n    tag_361:\n        /* \"contracts/NFTStake.sol\":35532:35536  user */\n      dup2\n        /* \"contracts/NFTStake.sol\":35532:35543  user.amount */\n      0x01\n      add\n        /* \"contracts/NFTStake.sol\":35532:35564  user.amount = user.amount.add(1) */\n      dup2\n      swap1\n      sstore\n      pop\n        /* \"contracts/NFTStake.sol\":35593:35639  user.amount.mul(pool.accDDTPerShare).div(1e12) */\n      tag_362\n        /* \"contracts/NFTStake.sol\":35634:35638  1e12 */\n      0xe8d4a51000\n        /* \"contracts/NFTStake.sol\":35593:35629  user.amount.mul(pool.accDDTPerShare) */\n      tag_363\n        /* \"contracts/NFTStake.sol\":35609:35613  pool */\n      dup5\n        /* \"contracts/NFTStake.sol\":35609:35628  pool.accDDTPerShare */\n      0x03\n      add\n      sload\n        /* \"contracts/NFTStake.sol\":35593:35597  user */\n      dup5\n        /* \"contracts/NFTStake.sol\":35593:35604  user.amount */\n      0x01\n      add\n      sload\n        /* \"contracts/NFTStake.sol\":35593:35608  user.amount.mul */\n      tag_157\n      swap1\n        /* \"contracts/NFTStake.sol\":35593:35629  user.amount.mul(pool.accDDTPerShare) */\n      swap2\n      swap1\n      0xffffffff\n      and\n      jump\t// in\n    tag_363:\n        /* \"contracts/NFTStake.sol\":35593:35633  user.amount.mul(pool.accDDTPerShare).div */\n      tag_158\n      swap1\n        /* \"contracts/NFTStake.sol\":35593:35639  user.amount.mul(pool.accDDTPerShare).div(1e12) */\n      swap2\n      swap1\n      0xffffffff\n      and\n      jump\t// in\n    tag_362:\n        /* \"contracts/NFTStake.sol\":35575:35579  user */\n      dup2\n        /* \"contracts/NFTStake.sol\":35575:35590  user.rewardDebt */\n      0x02\n      add\n        /* \"contracts/NFTStake.sol\":35575:35639  user.rewardDebt = user.amount.mul(pool.accDDTPerShare).div(1e12) */\n      dup2\n      swap1\n      sstore\n      pop\n        /* \"contracts/NFTStake.sol\":35650:35654  user */\n      dup1\n        /* \"contracts/NFTStake.sol\":35650:35663  user.tokenIds */\n      0x00\n      add\n        /* \"contracts/NFTStake.sol\":35669:35677  _tokenId */\n      dup4\n        /* \"contracts/NFTStake.sol\":35650:35678  user.tokenIds.push(_tokenId) */\n      swap1\n      dup1\n      0x01\n      dup2\n      sload\n      add\n      dup1\n      dup3\n      sstore\n      dup1\n      swap2\n      pop\n      pop\n      0x01\n      swap1\n      sub\n      swap1\n      0x00\n      mstore\n      keccak256(0x00, 0x20)\n      add\n      0x00\n      swap1\n      swap2\n      swap1\n      swap2\n      swap1\n      swap2\n      pop\n      sstore\n        /* \"contracts/NFTStake.sol\":35714:35718  _pid */\n      dup4\n        /* \"contracts/NFTStake.sol\":35702:35712  msg.sender */\n      caller\n        /* \"contracts/NFTStake.sol\":35694:35729  Deposit(msg.sender, _pid, _tokenId) */\n      0xffffffffffffffffffffffffffffffffffffffff\n      and\n      0x90890809c654f11d6e72a28fa60149770a0d11ec6c92319d6ceb2bb0a4ea1a15\n        /* \"contracts/NFTStake.sol\":35720:35728  _tokenId */\n      dup6\n        /* \"contracts/NFTStake.sol\":35694:35729  Deposit(msg.sender, _pid, _tokenId) */\n      mload(0x40)\n      tag_365\n      swap2\n      swap1\n      tag_42\n      jump\t// in\n    tag_365:\n      mload(0x40)\n      dup1\n      swap2\n      sub\n      swap1\n      log3\n        /* \"contracts/NFTStake.sol\":35054:35737  {... */\n      pop\n      pop\n        /* \"contracts/NFTStake.sol\":34998:35737  function deposit(uint256 _pid, uint256 _tokenId) public {... */\n      pop\n      pop\n      jump\t// out\n        /* \"contracts/NFTStake.sol\":29380:29415  INFTMasterChef public NFTMasterChef */\n    tag_138:\n      0x01\n      0x00\n      swap1\n      sload\n      swap1\n      0x0100\n      exp\n      swap1\n      div\n      0xffffffffffffffffffffffffffffffffffffffff\n      and\n      dup2\n      jump\t// out\n        /* \"contracts/NFTStake.sol\":21084:21285  function transferOwnership(address newOwner) public virtual onlyOwner {... */\n    tag_143:\n        /* \"contracts/NFTStake.sol\":20406:20418  _msgSender() */\n      tag_367\n        /* \"contracts/NFTStake.sol\":20406:20416  _msgSender */\n      tag_182\n        /* \"contracts/NFTStake.sol\":20406:20418  _msgSender() */\n      jump\t// in\n    tag_367:\n        /* \"contracts/NFTStake.sol\":20395:20418  owner() == _msgSender() */\n      0xffffffffffffffffffffffffffffffffffffffff\n      and\n        /* \"contracts/NFTStake.sol\":20395:20402  owner() */\n      tag_368\n        /* \"contracts/NFTStake.sol\":20395:20400  owner */\n      tag_106\n        /* \"contracts/NFTStake.sol\":20395:20402  owner() */\n      jump\t// in\n    tag_368:\n        /* \"contracts/NFTStake.sol\":20395:20418  owner() == _msgSender() */\n      0xffffffffffffffffffffffffffffffffffffffff\n      and\n      eq\n        /* \"contracts/NFTStake.sol\":20387:20455  require(owner() == _msgSender(), \"Ownable: caller is not the owner\") */\n      tag_369\n      jumpi\n      mload(0x40)\n      0x08c379a000000000000000000000000000000000000000000000000000000000\n      dup2\n      mstore\n      0x04\n      add\n      tag_370\n      swap1\n      tag_186\n      jump\t// in\n    tag_370:\n      mload(0x40)\n      dup1\n      swap2\n      sub\n      swap1\n      revert\n    tag_369:\n        /* \"contracts/NFTStake.sol\":21193:21194  0 */\n      0x00\n        /* \"contracts/NFTStake.sol\":21173:21195  newOwner != address(0) */\n      0xffffffffffffffffffffffffffffffffffffffff\n      and\n        /* \"contracts/NFTStake.sol\":21173:21181  newOwner */\n      dup2\n        /* \"contracts/NFTStake.sol\":21173:21195  newOwner != address(0) */\n      0xffffffffffffffffffffffffffffffffffffffff\n      and\n      sub\n        /* \"contracts/NFTStake.sol\":21165:21238  require(newOwner != address(0), \"Ownable: new owner is the zero address\") */\n      tag_372\n      jumpi\n      mload(0x40)\n      0x08c379a000000000000000000000000000000000000000000000000000000000\n      dup2\n      mstore\n      0x04\n      add\n      tag_373\n      swap1\n      tag_374\n      jump\t// in\n    tag_373:\n      mload(0x40)\n      dup1\n      swap2\n      sub\n      swap1\n      revert\n    tag_372:\n        /* \"contracts/NFTStake.sol\":21249:21277  _transferOwnership(newOwner) */\n      tag_375\n        /* \"contracts/NFTStake.sol\":21268:21276  newOwner */\n      dup2\n        /* \"contracts/NFTStake.sol\":21249:21267  _transferOwnership */\n      tag_332\n        /* \"contracts/NFTStake.sol\":21249:21277  _transferOwnership(newOwner) */\n      jump\t// in\n    tag_375:\n        /* \"contracts/NFTStake.sol\":21084:21285  function transferOwnership(address newOwner) public virtual onlyOwner {... */\n      pop\n      jump\t// out\n        /* \"contracts/NFTStake.sol\":29559:29585  uint256 public DDTPerBlock */\n    tag_145:\n      sload(0x04)\n      dup2\n      jump\t// out\n        /* \"contracts/NFTStake.sol\":1827:2298  function mul(uint256 a, uint256 b) internal pure returns (uint256) {... */\n    tag_157:\n        /* \"contracts/NFTStake.sol\":1885:1892  uint256 */\n      0x00\n        /* \"contracts/NFTStake.sol\":2135:2136  0 */\n      dup1\n        /* \"contracts/NFTStake.sol\":2130:2131  a */\n      dup4\n        /* \"contracts/NFTStake.sol\":2130:2136  a == 0 */\n      sub\n        /* \"contracts/NFTStake.sol\":2126:2173  if (a == 0) {... */\n      tag_377\n      jumpi\n        /* \"contracts/NFTStake.sol\":2160:2161  0 */\n      0x00\n        /* \"contracts/NFTStake.sol\":2153:2161  return 0 */\n      swap1\n      pop\n      jump(tag_376)\n        /* \"contracts/NFTStake.sol\":2126:2173  if (a == 0) {... */\n    tag_377:\n        /* \"contracts/NFTStake.sol\":2185:2194  uint256 c */\n      0x00\n        /* \"contracts/NFTStake.sol\":2201:2202  b */\n      dup3\n        /* \"contracts/NFTStake.sol\":2197:2198  a */\n      dup5\n        /* \"contracts/NFTStake.sol\":2197:2202  a * b */\n      tag_378\n      swap2\n      swap1\n      tag_379\n      jump\t// in\n    tag_378:\n        /* \"contracts/NFTStake.sol\":2185:2202  uint256 c = a * b */\n      swap1\n      pop\n        /* \"contracts/NFTStake.sol\":2230:2231  b */\n      dup3\n        /* \"contracts/NFTStake.sol\":2225:2226  a */\n      dup5\n        /* \"contracts/NFTStake.sol\":2221:2222  c */\n      dup3\n        /* \"contracts/NFTStake.sol\":2221:2226  c / a */\n      tag_380\n      swap2\n      swap1\n      tag_381\n      jump\t// in\n    tag_380:\n        /* \"contracts/NFTStake.sol\":2221:2231  c / a == b */\n      eq\n        /* \"contracts/NFTStake.sol\":2213:2269  require(c / a == b, \"SafeMath: multiplication overflow\") */\n      tag_382\n      jumpi\n      mload(0x40)\n      0x08c379a000000000000000000000000000000000000000000000000000000000\n      dup2\n      mstore\n      0x04\n      add\n      tag_383\n      swap1\n      tag_384\n      jump\t// in\n    tag_383:\n      mload(0x40)\n      dup1\n      swap2\n      sub\n      swap1\n      revert\n    tag_382:\n        /* \"contracts/NFTStake.sol\":2289:2290  c */\n      dup1\n        /* \"contracts/NFTStake.sol\":2282:2290  return c */\n      swap2\n      pop\n      pop\n        /* \"contracts/NFTStake.sol\":1827:2298  function mul(uint256 a, uint256 b) internal pure returns (uint256) {... */\n    tag_376:\n      swap3\n      swap2\n      pop\n      pop\n      jump\t// out\n        /* \"contracts/NFTStake.sol\":2766:2898  function div(uint256 a, uint256 b) internal pure returns (uint256) {... */\n    tag_158:\n        /* \"contracts/NFTStake.sol\":2824:2831  uint256 */\n      0x00\n        /* \"contracts/NFTStake.sol\":2851:2890  div(a, b, \"SafeMath: division by zero\") */\n      tag_386\n        /* \"contracts/NFTStake.sol\":2855:2856  a */\n      dup4\n        /* \"contracts/NFTStake.sol\":2858:2859  b */\n      dup4\n        /* \"contracts/NFTStake.sol\":2851:2890  div(a, b, \"SafeMath: division by zero\") */\n      mload(0x40)\n      dup1\n      0x40\n      add\n      0x40\n      mstore\n      dup1\n      0x1a\n      dup2\n      mstore\n      0x20\n      add\n      0x536166654d6174683a206469766973696f6e206279207a65726f000000000000\n      dup2\n      mstore\n      pop\n        /* \"contracts/NFTStake.sol\":2851:2854  div */\n      tag_387\n        /* \"contracts/NFTStake.sol\":2851:2890  div(a, b, \"SafeMath: division by zero\") */\n      jump\t// in\n    tag_386:\n        /* \"contracts/NFTStake.sol\":2844:2890  return div(a, b, \"SafeMath: division by zero\") */\n      swap1\n      pop\n        /* \"contracts/NFTStake.sol\":2766:2898  function div(uint256 a, uint256 b) internal pure returns (uint256) {... */\n      swap3\n      swap2\n      pop\n      pop\n      jump\t// out\n        /* \"contracts/NFTStake.sol\":911:1047  function sub(uint256 a, uint256 b) internal pure returns (uint256) {... */\n    tag_159:\n        /* \"contracts/NFTStake.sol\":969:976  uint256 */\n      0x00\n        /* \"contracts/NFTStake.sol\":996:1039  sub(a, b, \"SafeMath: subtraction overflow\") */\n      tag_389\n        /* \"contracts/NFTStake.sol\":1000:1001  a */\n      dup4\n        /* \"contracts/NFTStake.sol\":1003:1004  b */\n      dup4\n        /* \"contracts/NFTStake.sol\":996:1039  sub(a, b, \"SafeMath: subtraction overflow\") */\n      mload(0x40)\n      dup1\n      0x40\n      add\n      0x40\n      mstore\n      dup1\n      0x1e\n      dup2\n      mstore\n      0x20\n      add\n      0x536166654d6174683a207375627472616374696f6e206f766572666c6f770000\n      dup2\n      mstore\n      pop\n        /* \"contracts/NFTStake.sol\":996:999  sub */\n      tag_390\n        /* \"contracts/NFTStake.sol\":996:1039  sub(a, b, \"SafeMath: subtraction overflow\") */\n      jump\t// in\n    tag_389:\n        /* \"contracts/NFTStake.sol\":989:1039  return sub(a, b, \"SafeMath: subtraction overflow\") */\n      swap1\n      pop\n        /* \"contracts/NFTStake.sol\":911:1047  function sub(uint256 a, uint256 b) internal pure returns (uint256) {... */\n      swap3\n      swap2\n      pop\n      pop\n      jump\t// out\n        /* \"contracts/NFTStake.sol\":19549:19647  function _msgSender() internal view virtual returns (address) {... */\n    tag_182:\n        /* \"contracts/NFTStake.sol\":19602:19609  address */\n      0x00\n        /* \"contracts/NFTStake.sol\":19629:19639  msg.sender */\n      caller\n        /* \"contracts/NFTStake.sol\":19622:19639  return msg.sender */\n      swap1\n      pop\n        /* \"contracts/NFTStake.sol\":19549:19647  function _msgSender() internal view virtual returns (address) {... */\n      swap1\n      jump\t// out\n        /* \"contracts/NFTStake.sol\":455:636  function add(uint256 a, uint256 b) internal pure returns (uint256) {... */\n    tag_193:\n        /* \"contracts/NFTStake.sol\":513:520  uint256 */\n      0x00\n        /* \"contracts/NFTStake.sol\":533:542  uint256 c */\n      dup1\n        /* \"contracts/NFTStake.sol\":549:550  b */\n      dup3\n        /* \"contracts/NFTStake.sol\":545:546  a */\n      dup5\n        /* \"contracts/NFTStake.sol\":545:550  a + b */\n      tag_393\n      swap2\n      swap1\n      tag_394\n      jump\t// in\n    tag_393:\n        /* \"contracts/NFTStake.sol\":533:550  uint256 c = a + b */\n      swap1\n      pop\n        /* \"contracts/NFTStake.sol\":574:575  a */\n      dup4\n        /* \"contracts/NFTStake.sol\":569:570  c */\n      dup2\n        /* \"contracts/NFTStake.sol\":569:575  c >= a */\n      lt\n      iszero\n        /* \"contracts/NFTStake.sol\":561:607  require(c >= a, \"SafeMath: addition overflow\") */\n      tag_395\n      jumpi\n      mload(0x40)\n      0x08c379a000000000000000000000000000000000000000000000000000000000\n      dup2\n      mstore\n      0x04\n      add\n      tag_396\n      swap1\n      tag_397\n      jump\t// in\n    tag_396:\n      mload(0x40)\n      dup1\n      swap2\n      sub\n      swap1\n      revert\n    tag_395:\n        /* \"contracts/NFTStake.sol\":627:628  c */\n      dup1\n        /* \"contracts/NFTStake.sol\":620:628  return c */\n      swap2\n      pop\n      pop\n        /* \"contracts/NFTStake.sol\":455:636  function add(uint256 a, uint256 b) internal pure returns (uint256) {... */\n      swap3\n      swap2\n      pop\n      pop\n      jump\t// out\n        /* \"contracts/NFTStake.sol\":38005:38276  function safeDDTTransfer(address _to, uint256 _amount) internal {... */\n    tag_233:\n        /* \"contracts/NFTStake.sol\":38080:38094  uint256 DDTbal */\n      0x00\n        /* \"contracts/NFTStake.sol\":38097:38100  DDT */\n      0x02\n      0x00\n      swap1\n      sload\n      swap1\n      0x0100\n      exp\n      swap1\n      div\n      0xffffffffffffffffffffffffffffffffffffffff\n      and\n        /* \"contracts/NFTStake.sol\":38097:38110  DDT.balanceOf */\n      0xffffffffffffffffffffffffffffffffffffffff\n      and\n      0x70a08231\n        /* \"contracts/NFTStake.sol\":38119:38123  this */\n      address\n        /* \"contracts/NFTStake.sol\":38097:38125  DDT.balanceOf(address(this)) */\n      mload(0x40)\n      dup3\n      0xffffffff\n      and\n      0xe0\n      shl\n      dup2\n      mstore\n      0x04\n      add\n      tag_399\n      swap2\n      swap1\n      tag_108\n      jump\t// in\n    tag_399:\n      0x20\n      mload(0x40)\n      dup1\n      dup4\n      sub\n      dup2\n      dup7\n      gas\n      staticcall\n      iszero\n      dup1\n      iszero\n      tag_401\n      jumpi\n      returndatasize\n      0x00\n      dup1\n      returndatacopy\n      revert(0x00, returndatasize)\n    tag_401:\n      pop\n      pop\n      pop\n      pop\n      mload(0x40)\n      returndatasize\n      not(0x1f)\n      0x1f\n      dup3\n      add\n      and\n      dup3\n      add\n      dup1\n      0x40\n      mstore\n      pop\n      dup2\n      add\n      swap1\n      tag_402\n      swap2\n      swap1\n      tag_203\n      jump\t// in\n    tag_402:\n        /* \"contracts/NFTStake.sol\":38080:38125  uint256 DDTbal = DDT.balanceOf(address(this)) */\n      swap1\n      pop\n        /* \"contracts/NFTStake.sol\":38150:38156  DDTbal */\n      dup1\n        /* \"contracts/NFTStake.sol\":38140:38147  _amount */\n      dup3\n        /* \"contracts/NFTStake.sol\":38140:38156  _amount > DDTbal */\n      gt\n        /* \"contracts/NFTStake.sol\":38136:38269  if (_amount > DDTbal) {... */\n      iszero\n      tag_403\n      jumpi\n        /* \"contracts/NFTStake.sol\":38173:38176  DDT */\n      0x02\n      0x00\n      swap1\n      sload\n      swap1\n      0x0100\n      exp\n      swap1\n      div\n      0xffffffffffffffffffffffffffffffffffffffff\n      and\n        /* \"contracts/NFTStake.sol\":38173:38185  DDT.transfer */\n      0xffffffffffffffffffffffffffffffffffffffff\n      and\n      0xa9059cbb\n        /* \"contracts/NFTStake.sol\":38186:38189  _to */\n      dup5\n        /* \"contracts/NFTStake.sol\":38191:38197  DDTbal */\n      dup4\n        /* \"contracts/NFTStake.sol\":38173:38198  DDT.transfer(_to, DDTbal) */\n      mload(0x40)\n      dup4\n      0xffffffff\n      and\n      0xe0\n      shl\n      dup2\n      mstore\n      0x04\n      add\n      tag_404\n      swap3\n      swap2\n      swap1\n      tag_164\n      jump\t// in\n    tag_404:\n      0x20\n      mload(0x40)\n      dup1\n      dup4\n      sub\n      dup2\n      0x00\n      dup8\n      gas\n      call\n      iszero\n      dup1\n      iszero\n      tag_406\n      jumpi\n      returndatasize\n      0x00\n      dup1\n      returndatacopy\n      revert(0x00, returndatasize)\n    tag_406:\n      pop\n      pop\n      pop\n      pop\n      mload(0x40)\n      returndatasize\n      not(0x1f)\n      0x1f\n      dup3\n      add\n      and\n      dup3\n      add\n      dup1\n      0x40\n      mstore\n      pop\n      dup2\n      add\n      swap1\n      tag_407\n      swap2\n      swap1\n      tag_168\n      jump\t// in\n    tag_407:\n      pop\n        /* \"contracts/NFTStake.sol\":38136:38269  if (_amount > DDTbal) {... */\n      jump(tag_408)\n    tag_403:\n        /* \"contracts/NFTStake.sol\":38231:38234  DDT */\n      0x02\n      0x00\n      swap1\n      sload\n      swap1\n      0x0100\n      exp\n      swap1\n      div\n      0xffffffffffffffffffffffffffffffffffffffff\n      and\n        /* \"contracts/NFTStake.sol\":38231:38243  DDT.transfer */\n      0xffffffffffffffffffffffffffffffffffffffff\n      and\n      0xa9059cbb\n        /* \"contracts/NFTStake.sol\":38244:38247  _to */\n      dup5\n        /* \"contracts/NFTStake.sol\":38249:38256  _amount */\n      dup5\n        /* \"contracts/NFTStake.sol\":38231:38257  DDT.transfer(_to, _amount) */\n      mload(0x40)\n      dup4\n      0xffffffff\n      and\n      0xe0\n      shl\n      dup2\n      mstore\n      0x04\n      add\n      tag_409\n      swap3\n      swap2\n      swap1\n      tag_164\n      jump\t// in\n    tag_409:\n      0x20\n      mload(0x40)\n      dup1\n      dup4\n      sub\n      dup2\n      0x00\n      dup8\n      gas\n      call\n      iszero\n      dup1\n      iszero\n      tag_411\n      jumpi\n      returndatasize\n      0x00\n      dup1\n      returndatacopy\n      revert(0x00, returndatasize)\n    tag_411:\n      pop\n      pop\n      pop\n      pop\n      mload(0x40)\n      returndatasize\n      not(0x1f)\n      0x1f\n      dup3\n      add\n      and\n      dup3\n      add\n      dup1\n      0x40\n      mstore\n      pop\n      dup2\n      add\n      swap1\n      tag_412\n      swap2\n      swap1\n      tag_168\n      jump\t// in\n    tag_412:\n      pop\n        /* \"contracts/NFTStake.sol\":38136:38269  if (_amount > DDTbal) {... */\n    tag_408:\n        /* \"contracts/NFTStake.sol\":38069:38276  {... */\n      pop\n        /* \"contracts/NFTStake.sol\":38005:38276  function safeDDTTransfer(address _to, uint256 _amount) internal {... */\n      pop\n      pop\n      jump\t// out\n        /* \"contracts/NFTStake.sol\":21445:21636  function _transferOwnership(address newOwner) internal virtual {... */\n    tag_332:\n        /* \"contracts/NFTStake.sol\":21519:21535  address oldOwner */\n      0x00\n        /* \"contracts/NFTStake.sol\":21538:21544  _owner */\n      dup1\n      0x00\n      swap1\n      sload\n      swap1\n      0x0100\n      exp\n      swap1\n      div\n      0xffffffffffffffffffffffffffffffffffffffff\n      and\n        /* \"contracts/NFTStake.sol\":21519:21544  address oldOwner = _owner */\n      swap1\n      pop\n        /* \"contracts/NFTStake.sol\":21564:21572  newOwner */\n      dup2\n        /* \"contracts/NFTStake.sol\":21555:21561  _owner */\n      0x00\n      dup1\n        /* \"contracts/NFTStake.sol\":21555:21572  _owner = newOwner */\n      0x0100\n      exp\n      dup2\n      sload\n      dup2\n      0xffffffffffffffffffffffffffffffffffffffff\n      mul\n      not\n      and\n      swap1\n      dup4\n      0xffffffffffffffffffffffffffffffffffffffff\n      and\n      mul\n      or\n      swap1\n      sstore\n      pop\n        /* \"contracts/NFTStake.sol\":21619:21627  newOwner */\n      dup2\n        /* \"contracts/NFTStake.sol\":21588:21628  OwnershipTransferred(oldOwner, newOwner) */\n      0xffffffffffffffffffffffffffffffffffffffff\n      and\n        /* \"contracts/NFTStake.sol\":21609:21617  oldOwner */\n      dup2\n        /* \"contracts/NFTStake.sol\":21588:21628  OwnershipTransferred(oldOwner, newOwner) */\n      0xffffffffffffffffffffffffffffffffffffffff\n      and\n      0x8be0079c531659141344cd1fd0a4f28419497f9722a3daafe3b4186f6b6457e0\n      mload(0x40)\n      mload(0x40)\n      dup1\n      swap2\n      sub\n      swap1\n      log3\n        /* \"contracts/NFTStake.sol\":21508:21636  {... */\n      pop\n        /* \"contracts/NFTStake.sol\":21445:21636  function _transferOwnership(address newOwner) internal virtual {... */\n      pop\n      jump\t// out\n        /* \"contracts/NFTStake.sol\":3428:3773  function div(uint256 a, uint256 b, string memory errorMessage) internal pure returns (uint256) {... */\n    tag_387:\n        /* \"contracts/NFTStake.sol\":3514:3521  uint256 */\n      0x00\n        /* \"contracts/NFTStake.sol\":3613:3614  0 */\n      dup1\n        /* \"contracts/NFTStake.sol\":3609:3610  b */\n      dup4\n        /* \"contracts/NFTStake.sol\":3609:3614  b > 0 */\n      gt\n        /* \"contracts/NFTStake.sol\":3616:3628  errorMessage */\n      dup3\n        /* \"contracts/NFTStake.sol\":3601:3629  require(b > 0, errorMessage) */\n      swap1\n      tag_415\n      jumpi\n      mload(0x40)\n      0x08c379a000000000000000000000000000000000000000000000000000000000\n      dup2\n      mstore\n      0x04\n      add\n      tag_416\n      swap2\n      swap1\n      tag_417\n      jump\t// in\n    tag_416:\n      mload(0x40)\n      dup1\n      swap2\n      sub\n      swap1\n      revert\n    tag_415:\n      pop\n        /* \"contracts/NFTStake.sol\":3640:3649  uint256 c */\n      0x00\n        /* \"contracts/NFTStake.sol\":3656:3657  b */\n      dup4\n        /* \"contracts/NFTStake.sol\":3652:3653  a */\n      dup6\n        /* \"contracts/NFTStake.sol\":3652:3657  a / b */\n      tag_418\n      swap2\n      swap1\n      tag_381\n      jump\t// in\n    tag_418:\n        /* \"contracts/NFTStake.sol\":3640:3657  uint256 c = a / b */\n      swap1\n      pop\n        /* \"contracts/NFTStake.sol\":3764:3765  c */\n      dup1\n        /* \"contracts/NFTStake.sol\":3757:3765  return c */\n      swap2\n      pop\n      pop\n        /* \"contracts/NFTStake.sol\":3428:3773  function div(uint256 a, uint256 b, string memory errorMessage) internal pure returns (uint256) {... */\n      swap4\n      swap3\n      pop\n      pop\n      pop\n      jump\t// out\n        /* \"contracts/NFTStake.sol\":1384:1576  function sub(uint256 a, uint256 b, string memory errorMessage) internal pure returns (uint256) {... */\n    tag_390:\n        /* \"contracts/NFTStake.sol\":1470:1477  uint256 */\n      0x00\n        /* \"contracts/NFTStake.sol\":1503:1504  a */\n      dup4\n        /* \"contracts/NFTStake.sol\":1498:1499  b */\n      dup4\n        /* \"contracts/NFTStake.sol\":1498:1504  b <= a */\n      gt\n      iszero\n        /* \"contracts/NFTStake.sol\":1506:1518  errorMessage */\n      dup3\n        /* \"contracts/NFTStake.sol\":1490:1519  require(b <= a, errorMessage) */\n      swap1\n      tag_420\n      jumpi\n      mload(0x40)\n      0x08c379a000000000000000000000000000000000000000000000000000000000\n      dup2\n      mstore\n      0x04\n      add\n      tag_421\n      swap2\n      swap1\n      tag_417\n      jump\t// in\n    tag_421:\n      mload(0x40)\n      dup1\n      swap2\n      sub\n      swap1\n      revert\n    tag_420:\n      pop\n        /* \"contracts/NFTStake.sol\":1530:1539  uint256 c */\n      0x00\n        /* \"contracts/NFTStake.sol\":1546:1547  b */\n      dup4\n        /* \"contracts/NFTStake.sol\":1542:1543  a */\n      dup6\n        /* \"contracts/NFTStake.sol\":1542:1547  a - b */\n      tag_422\n      swap2\n      swap1\n      tag_423\n      jump\t// in\n    tag_422:\n        /* \"contracts/NFTStake.sol\":1530:1547  uint256 c = a - b */\n      swap1\n      pop\n        /* \"contracts/NFTStake.sol\":1567:1568  c */\n      dup1\n        /* \"contracts/NFTStake.sol\":1560:1568  return c */\n      swap2\n      pop\n      pop\n        /* \"contracts/NFTStake.sol\":1384:1576  function sub(uint256 a, uint256 b, string memory errorMessage) internal pure returns (uint256) {... */\n      swap4\n      swap3\n      pop\n      pop\n      pop\n      jump\t// out\n        /* \"#utility.yul\":7:84   */\n    tag_424:\n        /* \"#utility.yul\":44:51   */\n      0x00\n        /* \"#utility.yul\":73:78   */\n      dup2\n        /* \"#utility.yul\":62:78   */\n      swap1\n      pop\n        /* \"#utility.yul\":7:84   */\n      swap2\n      swap1\n      pop\n      jump\t// out\n        /* \"#utility.yul\":90:208   */\n    tag_425:\n        /* \"#utility.yul\":177:201   */\n      tag_500\n        /* \"#utility.yul\":195:200   */\n      dup2\n        /* \"#utility.yul\":177:201   */\n      tag_424\n      jump\t// in\n    tag_500:\n        /* \"#utility.yul\":172:175   */\n      dup3\n        /* \"#utility.yul\":165:202   */\n      mstore\n        /* \"#utility.yul\":90:208   */\n      pop\n      pop\n      jump\t// out\n        /* \"#utility.yul\":214:436   */\n    tag_42:\n        /* \"#utility.yul\":307:311   */\n      0x00\n        /* \"#utility.yul\":345:347   */\n      0x20\n        /* \"#utility.yul\":334:343   */\n      dup3\n        /* \"#utility.yul\":330:348   */\n      add\n        /* \"#utility.yul\":322:348   */\n      swap1\n      pop\n        /* \"#utility.yul\":358:429   */\n      tag_502\n        /* \"#utility.yul\":426:427   */\n      0x00\n        /* \"#utility.yul\":415:424   */\n      dup4\n        /* \"#utility.yul\":411:428   */\n      add\n        /* \"#utility.yul\":402:408   */\n      dup5\n        /* \"#utility.yul\":358:429   */\n      tag_425\n      jump\t// in\n    tag_502:\n        /* \"#utility.yul\":214:436   */\n      swap3\n      swap2\n      pop\n      pop\n      jump\t// out\n        /* \"#utility.yul\":442:517   */\n    tag_426:\n        /* \"#utility.yul\":475:481   */\n      0x00\n        /* \"#utility.yul\":508:510   */\n      0x40\n        /* \"#utility.yul\":502:511   */\n      mload\n        /* \"#utility.yul\":492:511   */\n      swap1\n      pop\n        /* \"#utility.yul\":442:517   */\n      swap1\n      jump\t// out\n        /* \"#utility.yul\":523:640   */\n    tag_427:\n        /* \"#utility.yul\":632:633   */\n      0x00\n        /* \"#utility.yul\":629:630   */\n      dup1\n        /* \"#utility.yul\":622:634   */\n      revert\n        /* \"#utility.yul\":646:763   */\n    tag_428:\n        /* \"#utility.yul\":755:756   */\n      0x00\n        /* \"#utility.yul\":752:753   */\n      dup1\n        /* \"#utility.yul\":745:757   */\n      revert\n        /* \"#utility.yul\":769:891   */\n    tag_429:\n        /* \"#utility.yul\":842:866   */\n      tag_507\n        /* \"#utility.yul\":860:865   */\n      dup2\n        /* \"#utility.yul\":842:866   */\n      tag_424\n      jump\t// in\n    tag_507:\n        /* \"#utility.yul\":835:840   */\n      dup2\n        /* \"#utility.yul\":832:867   */\n      eq\n        /* \"#utility.yul\":822:885   */\n      tag_508\n      jumpi\n        /* \"#utility.yul\":881:882   */\n      0x00\n        /* \"#utility.yul\":878:879   */\n      dup1\n        /* \"#utility.yul\":871:883   */\n      revert\n        /* \"#utility.yul\":822:885   */\n    tag_508:\n        /* \"#utility.yul\":769:891   */\n      pop\n      jump\t// out\n        /* \"#utility.yul\":897:1036   */\n    tag_430:\n        /* \"#utility.yul\":943:948   */\n      0x00\n        /* \"#utility.yul\":981:987   */\n      dup2\n        /* \"#utility.yul\":968:988   */\n      calldataload\n        /* \"#utility.yul\":959:988   */\n      swap1\n      pop\n        /* \"#utility.yul\":997:1030   */\n      tag_510\n        /* \"#utility.yul\":1024:1029   */\n      dup2\n        /* \"#utility.yul\":997:1030   */\n      tag_429\n      jump\t// in\n    tag_510:\n        /* \"#utility.yul\":897:1036   */\n      swap3\n      swap2\n      pop\n      pop\n      jump\t// out\n        /* \"#utility.yul\":1042:1371   */\n    tag_45:\n        /* \"#utility.yul\":1101:1107   */\n      0x00\n        /* \"#utility.yul\":1150:1152   */\n      0x20\n        /* \"#utility.yul\":1138:1147   */\n      dup3\n        /* \"#utility.yul\":1129:1136   */\n      dup5\n        /* \"#utility.yul\":1125:1148   */\n      sub\n        /* \"#utility.yul\":1121:1153   */\n      slt\n        /* \"#utility.yul\":1118:1237   */\n      iszero\n      tag_512\n      jumpi\n        /* \"#utility.yul\":1156:1235   */\n      tag_513\n      tag_427\n      jump\t// in\n    tag_513:\n        /* \"#utility.yul\":1118:1237   */\n    tag_512:\n        /* \"#utility.yul\":1276:1277   */\n      0x00\n        /* \"#utility.yul\":1301:1354   */\n      tag_514\n        /* \"#utility.yul\":1346:1353   */\n      dup5\n        /* \"#utility.yul\":1337:1343   */\n      dup3\n        /* \"#utility.yul\":1326:1335   */\n      dup6\n        /* \"#utility.yul\":1322:1344   */\n      add\n        /* \"#utility.yul\":1301:1354   */\n      tag_430\n      jump\t// in\n    tag_514:\n        /* \"#utility.yul\":1291:1354   */\n      swap2\n      pop\n        /* \"#utility.yul\":1247:1364   */\n      pop\n        /* \"#utility.yul\":1042:1371   */\n      swap3\n      swap2\n      pop\n      pop\n      jump\t// out\n        /* \"#utility.yul\":1377:1503   */\n    tag_431:\n        /* \"#utility.yul\":1414:1421   */\n      0x00\n        /* \"#utility.yul\":1454:1496   */\n      0xffffffffffffffffffffffffffffffffffffffff\n        /* \"#utility.yul\":1447:1452   */\n      dup3\n        /* \"#utility.yul\":1443:1497   */\n      and\n        /* \"#utility.yul\":1432:1497   */\n      swap1\n      pop\n        /* \"#utility.yul\":1377:1503   */\n      swap2\n      swap1\n      pop\n      jump\t// out\n        /* \"#utility.yul\":1509:1605   */\n    tag_432:\n        /* \"#utility.yul\":1546:1553   */\n      0x00\n        /* \"#utility.yul\":1575:1599   */\n      tag_517\n        /* \"#utility.yul\":1593:1598   */\n      dup3\n        /* \"#utility.yul\":1575:1599   */\n      tag_431\n      jump\t// in\n    tag_517:\n        /* \"#utility.yul\":1564:1599   */\n      swap1\n      pop\n        /* \"#utility.yul\":1509:1605   */\n      swap2\n      swap1\n      pop\n      jump\t// out\n        /* \"#utility.yul\":1611:1733   */\n    tag_433:\n        /* \"#utility.yul\":1684:1708   */\n      tag_519\n        /* \"#utility.yul\":1702:1707   */\n      dup2\n        /* \"#utility.yul\":1684:1708   */\n      tag_432\n      jump\t// in\n    tag_519:\n        /* \"#utility.yul\":1677:1682   */\n      dup2\n        /* \"#utility.yul\":1674:1709   */\n      eq\n        /* \"#utility.yul\":1664:1727   */\n      tag_520\n      jumpi\n        /* \"#utility.yul\":1723:1724   */\n      0x00\n        /* \"#utility.yul\":1720:1721   */\n      dup1\n        /* \"#utility.yul\":1713:1725   */\n      revert\n        /* \"#utility.yul\":1664:1727   */\n    tag_520:\n        /* \"#utility.yul\":1611:1733   */\n      pop\n      jump\t// out\n        /* \"#utility.yul\":1739:1878   */\n    tag_434:\n        /* \"#utility.yul\":1785:1790   */\n      0x00\n        /* \"#utility.yul\":1823:1829   */\n      dup2\n        /* \"#utility.yul\":1810:1830   */\n      calldataload\n        /* \"#utility.yul\":1801:1830   */\n      swap1\n      pop\n        /* \"#utility.yul\":1839:1872   */\n      tag_522\n        /* \"#utility.yul\":1866:1871   */\n      dup2\n        /* \"#utility.yul\":1839:1872   */\n      tag_433\n      jump\t// in\n    tag_522:\n        /* \"#utility.yul\":1739:1878   */\n      swap3\n      swap2\n      pop\n      pop\n      jump\t// out\n        /* \"#utility.yul\":1884:2001   */\n    tag_435:\n        /* \"#utility.yul\":1993:1994   */\n      0x00\n        /* \"#utility.yul\":1990:1991   */\n      dup1\n        /* \"#utility.yul\":1983:1995   */\n      revert\n        /* \"#utility.yul\":2007:2124   */\n    tag_436:\n        /* \"#utility.yul\":2116:2117   */\n      0x00\n        /* \"#utility.yul\":2113:2114   */\n      dup1\n        /* \"#utility.yul\":2106:2118   */\n      revert\n        /* \"#utility.yul\":2130:2232   */\n    tag_437:\n        /* \"#utility.yul\":2171:2177   */\n      0x00\n        /* \"#utility.yul\":2222:2224   */\n      0x1f\n        /* \"#utility.yul\":2218:2225   */\n      not\n        /* \"#utility.yul\":2213:2215   */\n      0x1f\n        /* \"#utility.yul\":2206:2211   */\n      dup4\n        /* \"#utility.yul\":2202:2216   */\n      add\n        /* \"#utility.yul\":2198:2226   */\n      and\n        /* \"#utility.yul\":2188:2226   */\n      swap1\n      pop\n        /* \"#utility.yul\":2130:2232   */\n      swap2\n      swap1\n      pop\n      jump\t// out\n        /* \"#utility.yul\":2238:2418   */\n    tag_438:\n        /* \"#utility.yul\":2286:2363   */\n      0x4e487b7100000000000000000000000000000000000000000000000000000000\n        /* \"#utility.yul\":2283:2284   */\n      0x00\n        /* \"#utility.yul\":2276:2364   */\n      mstore\n        /* \"#utility.yul\":2383:2387   */\n      0x41\n        /* \"#utility.yul\":2380:2381   */\n      0x04\n        /* \"#utility.yul\":2373:2388   */\n      mstore\n        /* \"#utility.yul\":2407:2411   */\n      0x24\n        /* \"#utility.yul\":2404:2405   */\n      0x00\n        /* \"#utility.yul\":2397:2412   */\n      revert\n        /* \"#utility.yul\":2424:2705   */\n    tag_439:\n        /* \"#utility.yul\":2507:2534   */\n      tag_528\n        /* \"#utility.yul\":2529:2533   */\n      dup3\n        /* \"#utility.yul\":2507:2534   */\n      tag_437\n      jump\t// in\n    tag_528:\n        /* \"#utility.yul\":2499:2505   */\n      dup2\n        /* \"#utility.yul\":2495:2535   */\n      add\n        /* \"#utility.yul\":2637:2643   */\n      dup2\n        /* \"#utility.yul\":2625:2635   */\n      dup2\n        /* \"#utility.yul\":2622:2644   */\n      lt\n        /* \"#utility.yul\":2601:2619   */\n      0xffffffffffffffff\n        /* \"#utility.yul\":2589:2599   */\n      dup3\n        /* \"#utility.yul\":2586:2620   */\n      gt\n        /* \"#utility.yul\":2583:2645   */\n      or\n        /* \"#utility.yul\":2580:2668   */\n      iszero\n      tag_529\n      jumpi\n        /* \"#utility.yul\":2648:2666   */\n      tag_530\n      tag_438\n      jump\t// in\n    tag_530:\n        /* \"#utility.yul\":2580:2668   */\n    tag_529:\n        /* \"#utility.yul\":2688:2698   */\n      dup1\n        /* \"#utility.yul\":2684:2686   */\n      0x40\n        /* \"#utility.yul\":2677:2699   */\n      mstore\n        /* \"#utility.yul\":2467:2705   */\n      pop\n        /* \"#utility.yul\":2424:2705   */\n      pop\n      pop\n      jump\t// out\n        /* \"#utility.yul\":2711:2840   */\n    tag_440:\n        /* \"#utility.yul\":2745:2751   */\n      0x00\n        /* \"#utility.yul\":2772:2792   */\n      tag_532\n      tag_426\n      jump\t// in\n    tag_532:\n        /* \"#utility.yul\":2762:2792   */\n      swap1\n      pop\n        /* \"#utility.yul\":2801:2834   */\n      tag_533\n        /* \"#utility.yul\":2829:2833   */\n      dup3\n        /* \"#utility.yul\":2821:2827   */\n      dup3\n        /* \"#utility.yul\":2801:2834   */\n      tag_439\n      jump\t// in\n    tag_533:\n        /* \"#utility.yul\":2711:2840   */\n      swap2\n      swap1\n      pop\n      jump\t// out\n        /* \"#utility.yul\":2846:3153   */\n    tag_441:\n        /* \"#utility.yul\":2907:2911   */\n      0x00\n        /* \"#utility.yul\":2997:3015   */\n      0xffffffffffffffff\n        /* \"#utility.yul\":2989:2995   */\n      dup3\n        /* \"#utility.yul\":2986:3016   */\n      gt\n        /* \"#utility.yul\":2983:3039   */\n      iszero\n      tag_535\n      jumpi\n        /* \"#utility.yul\":3019:3037   */\n      tag_536\n      tag_438\n      jump\t// in\n    tag_536:\n        /* \"#utility.yul\":2983:3039   */\n    tag_535:\n        /* \"#utility.yul\":3057:3086   */\n      tag_537\n        /* \"#utility.yul\":3079:3085   */\n      dup3\n        /* \"#utility.yul\":3057:3086   */\n      tag_437\n      jump\t// in\n    tag_537:\n        /* \"#utility.yul\":3049:3086   */\n      swap1\n      pop\n        /* \"#utility.yul\":3141:3145   */\n      0x20\n        /* \"#utility.yul\":3135:3139   */\n      dup2\n        /* \"#utility.yul\":3131:3146   */\n      add\n        /* \"#utility.yul\":3123:3146   */\n      swap1\n      pop\n        /* \"#utility.yul\":2846:3153   */\n      swap2\n      swap1\n      pop\n      jump\t// out\n        /* \"#utility.yul\":3159:3313   */\n    tag_442:\n        /* \"#utility.yul\":3243:3249   */\n      dup3\n        /* \"#utility.yul\":3238:3241   */\n      dup2\n        /* \"#utility.yul\":3233:3236   */\n      dup4\n        /* \"#utility.yul\":3220:3250   */\n      calldatacopy\n        /* \"#utility.yul\":3305:3306   */\n      0x00\n        /* \"#utility.yul\":3296:3302   */\n      dup4\n        /* \"#utility.yul\":3291:3294   */\n      dup4\n        /* \"#utility.yul\":3287:3303   */\n      add\n        /* \"#utility.yul\":3280:3307   */\n      mstore\n        /* \"#utility.yul\":3159:3313   */\n      pop\n      pop\n      pop\n      jump\t// out\n        /* \"#utility.yul\":3319:3729   */\n    tag_443:\n        /* \"#utility.yul\":3396:3401   */\n      0x00\n        /* \"#utility.yul\":3421:3486   */\n      tag_540\n        /* \"#utility.yul\":3437:3485   */\n      tag_541\n        /* \"#utility.yul\":3478:3484   */\n      dup5\n        /* \"#utility.yul\":3437:3485   */\n      tag_441\n      jump\t// in\n    tag_541:\n        /* \"#utility.yul\":3421:3486   */\n      tag_440\n      jump\t// in\n    tag_540:\n        /* \"#utility.yul\":3412:3486   */\n      swap1\n      pop\n        /* \"#utility.yul\":3509:3515   */\n      dup3\n        /* \"#utility.yul\":3502:3507   */\n      dup2\n        /* \"#utility.yul\":3495:3516   */\n      mstore\n        /* \"#utility.yul\":3547:3551   */\n      0x20\n        /* \"#utility.yul\":3540:3545   */\n      dup2\n        /* \"#utility.yul\":3536:3552   */\n      add\n        /* \"#utility.yul\":3585:3588   */\n      dup5\n        /* \"#utility.yul\":3576:3582   */\n      dup5\n        /* \"#utility.yul\":3571:3574   */\n      dup5\n        /* \"#utility.yul\":3567:3583   */\n      add\n        /* \"#utility.yul\":3564:3589   */\n      gt\n        /* \"#utility.yul\":3561:3673   */\n      iszero\n      tag_542\n      jumpi\n        /* \"#utility.yul\":3592:3671   */\n      tag_543\n      tag_436\n      jump\t// in\n    tag_543:\n        /* \"#utility.yul\":3561:3673   */\n    tag_542:\n        /* \"#utility.yul\":3682:3723   */\n      tag_544\n        /* \"#utility.yul\":3716:3722   */\n      dup5\n        /* \"#utility.yul\":3711:3714   */\n      dup3\n        /* \"#utility.yul\":3706:3709   */\n      dup6\n        /* \"#utility.yul\":3682:3723   */\n      tag_442\n      jump\t// in\n    tag_544:\n        /* \"#utility.yul\":3402:3729   */\n      pop\n        /* \"#utility.yul\":3319:3729   */\n      swap4\n      swap3\n      pop\n      pop\n      pop\n      jump\t// out\n        /* \"#utility.yul\":3748:4086   */\n    tag_444:\n        /* \"#utility.yul\":3803:3808   */\n      0x00\n        /* \"#utility.yul\":3852:3855   */\n      dup3\n        /* \"#utility.yul\":3845:3849   */\n      0x1f\n        /* \"#utility.yul\":3837:3843   */\n      dup4\n        /* \"#utility.yul\":3833:3850   */\n      add\n        /* \"#utility.yul\":3829:3856   */\n      slt\n        /* \"#utility.yul\":3819:3941   */\n      tag_546\n      jumpi\n        /* \"#utility.yul\":3860:3939   */\n      tag_547\n      tag_435\n      jump\t// in\n    tag_547:\n        /* \"#utility.yul\":3819:3941   */\n    tag_546:\n        /* \"#utility.yul\":3977:3983   */\n      dup2\n        /* \"#utility.yul\":3964:3984   */\n      calldataload\n        /* \"#utility.yul\":4002:4080   */\n      tag_548\n        /* \"#utility.yul\":4076:4079   */\n      dup5\n        /* \"#utility.yul\":4068:4074   */\n      dup3\n        /* \"#utility.yul\":4061:4065   */\n      0x20\n        /* \"#utility.yul\":4053:4059   */\n      dup7\n        /* \"#utility.yul\":4049:4066   */\n      add\n        /* \"#utility.yul\":4002:4080   */\n      tag_443\n      jump\t// in\n    tag_548:\n        /* \"#utility.yul\":3993:4080   */\n      swap2\n      pop\n        /* \"#utility.yul\":3809:4086   */\n      pop\n        /* \"#utility.yul\":3748:4086   */\n      swap3\n      swap2\n      pop\n      pop\n      jump\t// out\n        /* \"#utility.yul\":4092:5035   */\n    tag_49:\n        /* \"#utility.yul\":4187:4193   */\n      0x00\n        /* \"#utility.yul\":4195:4201   */\n      dup1\n        /* \"#utility.yul\":4203:4209   */\n      0x00\n        /* \"#utility.yul\":4211:4217   */\n      dup1\n        /* \"#utility.yul\":4260:4263   */\n      0x80\n        /* \"#utility.yul\":4248:4257   */\n      dup6\n        /* \"#utility.yul\":4239:4246   */\n      dup8\n        /* \"#utility.yul\":4235:4258   */\n      sub\n        /* \"#utility.yul\":4231:4264   */\n      slt\n        /* \"#utility.yul\":4228:4348   */\n      iszero\n      tag_550\n      jumpi\n        /* \"#utility.yul\":4267:4346   */\n      tag_551\n      tag_427\n      jump\t// in\n    tag_551:\n        /* \"#utility.yul\":4228:4348   */\n    tag_550:\n        /* \"#utility.yul\":4387:4388   */\n      0x00\n        /* \"#utility.yul\":4412:4465   */\n      tag_552\n        /* \"#utility.yul\":4457:4464   */\n      dup8\n        /* \"#utility.yul\":4448:4454   */\n      dup3\n        /* \"#utility.yul\":4437:4446   */\n      dup9\n        /* \"#utility.yul\":4433:4455   */\n      add\n        /* \"#utility.yul\":4412:4465   */\n      tag_434\n      jump\t// in\n    tag_552:\n        /* \"#utility.yul\":4402:4465   */\n      swap5\n      pop\n        /* \"#utility.yul\":4358:4475   */\n      pop\n        /* \"#utility.yul\":4514:4516   */\n      0x20\n        /* \"#utility.yul\":4540:4593   */\n      tag_553\n        /* \"#utility.yul\":4585:4592   */\n      dup8\n        /* \"#utility.yul\":4576:4582   */\n      dup3\n        /* \"#utility.yul\":4565:4574   */\n      dup9\n        /* \"#utility.yul\":4561:4583   */\n      add\n        /* \"#utility.yul\":4540:4593   */\n      tag_434\n      jump\t// in\n    tag_553:\n        /* \"#utility.yul\":4530:4593   */\n      swap4\n      pop\n        /* \"#utility.yul\":4485:4603   */\n      pop\n        /* \"#utility.yul\":4642:4644   */\n      0x40\n        /* \"#utility.yul\":4668:4721   */\n      tag_554\n        /* \"#utility.yul\":4713:4720   */\n      dup8\n        /* \"#utility.yul\":4704:4710   */\n      dup3\n        /* \"#utility.yul\":4693:4702   */\n      dup9\n        /* \"#utility.yul\":4689:4711   */\n      add\n        /* \"#utility.yul\":4668:4721   */\n      tag_430\n      jump\t// in\n    tag_554:\n        /* \"#utility.yul\":4658:4721   */\n      swap3\n      pop\n        /* \"#utility.yul\":4613:4731   */\n      pop\n        /* \"#utility.yul\":4798:4800   */\n      0x60\n        /* \"#utility.yul\":4787:4796   */\n      dup6\n        /* \"#utility.yul\":4783:4801   */\n      add\n        /* \"#utility.yul\":4770:4802   */\n      calldataload\n        /* \"#utility.yul\":4829:4847   */\n      0xffffffffffffffff\n        /* \"#utility.yul\":4821:4827   */\n      dup2\n        /* \"#utility.yul\":4818:4848   */\n      gt\n        /* \"#utility.yul\":4815:4932   */\n      iszero\n      tag_555\n      jumpi\n        /* \"#utility.yul\":4851:4930   */\n      tag_556\n      tag_428\n      jump\t// in\n    tag_556:\n        /* \"#utility.yul\":4815:4932   */\n    tag_555:\n        /* \"#utility.yul\":4956:5018   */\n      tag_557\n        /* \"#utility.yul\":5010:5017   */\n      dup8\n        /* \"#utility.yul\":5001:5007   */\n      dup3\n        /* \"#utility.yul\":4990:4999   */\n      dup9\n        /* \"#utility.yul\":4986:5008   */\n      add\n        /* \"#utility.yul\":4956:5018   */\n      tag_444\n      jump\t// in\n    tag_557:\n        /* \"#utility.yul\":4946:5018   */\n      swap2\n      pop\n        /* \"#utility.yul\":4741:5028   */\n      pop\n        /* \"#utility.yul\":4092:5035   */\n      swap3\n      swap6\n      swap2\n      swap5\n      pop\n      swap3\n      pop\n      jump\t// out\n        /* \"#utility.yul\":5041:5190   */\n    tag_445:\n        /* \"#utility.yul\":5077:5084   */\n      0x00\n        /* \"#utility.yul\":5117:5183   */\n      0xffffffff00000000000000000000000000000000000000000000000000000000\n        /* \"#utility.yul\":5110:5115   */\n      dup3\n        /* \"#utility.yul\":5106:5184   */\n      and\n        /* \"#utility.yul\":5095:5184   */\n      swap1\n      pop\n        /* \"#utility.yul\":5041:5190   */\n      swap2\n      swap1\n      pop\n      jump\t// out\n        /* \"#utility.yul\":5196:5311   */\n    tag_446:\n        /* \"#utility.yul\":5281:5304   */\n      tag_560\n        /* \"#utility.yul\":5298:5303   */\n      dup2\n        /* \"#utility.yul\":5281:5304   */\n      tag_445\n      jump\t// in\n    tag_560:\n        /* \"#utility.yul\":5276:5279   */\n      dup3\n        /* \"#utility.yul\":5269:5305   */\n      mstore\n        /* \"#utility.yul\":5196:5311   */\n      pop\n      pop\n      jump\t// out\n        /* \"#utility.yul\":5317:5535   */\n    tag_52:\n        /* \"#utility.yul\":5408:5412   */\n      0x00\n        /* \"#utility.yul\":5446:5448   */\n      0x20\n        /* \"#utility.yul\":5435:5444   */\n      dup3\n        /* \"#utility.yul\":5431:5449   */\n      add\n        /* \"#utility.yul\":5423:5449   */\n      swap1\n      pop\n        /* \"#utility.yul\":5459:5528   */\n      tag_562\n        /* \"#utility.yul\":5525:5526   */\n      0x00\n        /* \"#utility.yul\":5514:5523   */\n      dup4\n        /* \"#utility.yul\":5510:5527   */\n      add\n        /* \"#utility.yul\":5501:5507   */\n      dup5\n        /* \"#utility.yul\":5459:5528   */\n      tag_446\n      jump\t// in\n    tag_562:\n        /* \"#utility.yul\":5317:5535   */\n      swap3\n      swap2\n      pop\n      pop\n      jump\t// out\n        /* \"#utility.yul\":5541:5601   */\n    tag_447:\n        /* \"#utility.yul\":5569:5572   */\n      0x00\n        /* \"#utility.yul\":5590:5595   */\n      dup2\n        /* \"#utility.yul\":5583:5595   */\n      swap1\n      pop\n        /* \"#utility.yul\":5541:5601   */\n      swap2\n      swap1\n      pop\n      jump\t// out\n        /* \"#utility.yul\":5607:5749   */\n    tag_448:\n        /* \"#utility.yul\":5657:5666   */\n      0x00\n        /* \"#utility.yul\":5690:5743   */\n      tag_565\n        /* \"#utility.yul\":5708:5742   */\n      tag_566\n        /* \"#utility.yul\":5717:5741   */\n      tag_567\n        /* \"#utility.yul\":5735:5740   */\n      dup5\n        /* \"#utility.yul\":5717:5741   */\n      tag_431\n      jump\t// in\n    tag_567:\n        /* \"#utility.yul\":5708:5742   */\n      tag_447\n      jump\t// in\n    tag_566:\n        /* \"#utility.yul\":5690:5743   */\n      tag_431\n      jump\t// in\n    tag_565:\n        /* \"#utility.yul\":5677:5743   */\n      swap1\n      pop\n        /* \"#utility.yul\":5607:5749   */\n      swap2\n      swap1\n      pop\n      jump\t// out\n        /* \"#utility.yul\":5755:5881   */\n    tag_449:\n        /* \"#utility.yul\":5805:5814   */\n      0x00\n        /* \"#utility.yul\":5838:5875   */\n      tag_569\n        /* \"#utility.yul\":5869:5874   */\n      dup3\n        /* \"#utility.yul\":5838:5875   */\n      tag_448\n      jump\t// in\n    tag_569:\n        /* \"#utility.yul\":5825:5875   */\n      swap1\n      pop\n        /* \"#utility.yul\":5755:5881   */\n      swap2\n      swap1\n      pop\n      jump\t// out\n        /* \"#utility.yul\":5887:6029   */\n    tag_450:\n        /* \"#utility.yul\":5953:5962   */\n      0x00\n        /* \"#utility.yul\":5986:6023   */\n      tag_571\n        /* \"#utility.yul\":6017:6022   */\n      dup3\n        /* \"#utility.yul\":5986:6023   */\n      tag_449\n      jump\t// in\n    tag_571:\n        /* \"#utility.yul\":5973:6023   */\n      swap1\n      pop\n        /* \"#utility.yul\":5887:6029   */\n      swap2\n      swap1\n      pop\n      jump\t// out\n        /* \"#utility.yul\":6035:6198   */\n    tag_451:\n        /* \"#utility.yul\":6138:6191   */\n      tag_573\n        /* \"#utility.yul\":6185:6190   */\n      dup2\n        /* \"#utility.yul\":6138:6191   */\n      tag_450\n      jump\t// in\n    tag_573:\n        /* \"#utility.yul\":6133:6136   */\n      dup3\n        /* \"#utility.yul\":6126:6192   */\n      mstore\n        /* \"#utility.yul\":6035:6198   */\n      pop\n      pop\n      jump\t// out\n        /* \"#utility.yul\":6204:6789   */\n    tag_57:\n        /* \"#utility.yul\":6397:6401   */\n      0x00\n        /* \"#utility.yul\":6435:6438   */\n      0x80\n        /* \"#utility.yul\":6424:6433   */\n      dup3\n        /* \"#utility.yul\":6420:6439   */\n      add\n        /* \"#utility.yul\":6412:6439   */\n      swap1\n      pop\n        /* \"#utility.yul\":6449:6536   */\n      tag_575\n        /* \"#utility.yul\":6533:6534   */\n      0x00\n        /* \"#utility.yul\":6522:6531   */\n      dup4\n        /* \"#utility.yul\":6518:6535   */\n      add\n        /* \"#utility.yul\":6509:6515   */\n      dup8\n        /* \"#utility.yul\":6449:6536   */\n      tag_451\n      jump\t// in\n    tag_575:\n        /* \"#utility.yul\":6546:6618   */\n      tag_576\n        /* \"#utility.yul\":6614:6616   */\n      0x20\n        /* \"#utility.yul\":6603:6612   */\n      dup4\n        /* \"#utility.yul\":6599:6617   */\n      add\n        /* \"#utility.yul\":6590:6596   */\n      dup7\n        /* \"#utility.yul\":6546:6618   */\n      tag_425\n      jump\t// in\n    tag_576:\n        /* \"#utility.yul\":6628:6700   */\n      tag_577\n        /* \"#utility.yul\":6696:6698   */\n      0x40\n        /* \"#utility.yul\":6685:6694   */\n      dup4\n        /* \"#utility.yul\":6681:6699   */\n      add\n        /* \"#utility.yul\":6672:6678   */\n      dup6\n        /* \"#utility.yul\":6628:6700   */\n      tag_425\n      jump\t// in\n    tag_577:\n        /* \"#utility.yul\":6710:6782   */\n      tag_578\n        /* \"#utility.yul\":6778:6780   */\n      0x60\n        /* \"#utility.yul\":6767:6776   */\n      dup4\n        /* \"#utility.yul\":6763:6781   */\n      add\n        /* \"#utility.yul\":6754:6760   */\n      dup5\n        /* \"#utility.yul\":6710:6782   */\n      tag_425\n      jump\t// in\n    tag_578:\n        /* \"#utility.yul\":6204:6789   */\n      swap6\n      swap5\n      pop\n      pop\n      pop\n      pop\n      pop\n      jump\t// out\n        /* \"#utility.yul\":6795:6907   */\n    tag_452:\n        /* \"#utility.yul\":6848:6855   */\n      0x00\n        /* \"#utility.yul\":6877:6901   */\n      tag_580\n        /* \"#utility.yul\":6895:6900   */\n      dup3\n        /* \"#utility.yul\":6877:6901   */\n      tag_432\n      jump\t// in\n    tag_580:\n        /* \"#utility.yul\":6866:6901   */\n      swap1\n      pop\n        /* \"#utility.yul\":6795:6907   */\n      swap2\n      swap1\n      pop\n      jump\t// out\n        /* \"#utility.yul\":6913:7067   */\n    tag_453:\n        /* \"#utility.yul\":7002:7042   */\n      tag_582\n        /* \"#utility.yul\":7036:7041   */\n      dup2\n        /* \"#utility.yul\":7002:7042   */\n      tag_452\n      jump\t// in\n    tag_582:\n        /* \"#utility.yul\":6995:7000   */\n      dup2\n        /* \"#utility.yul\":6992:7043   */\n      eq\n        /* \"#utility.yul\":6982:7061   */\n      tag_583\n      jumpi\n        /* \"#utility.yul\":7057:7058   */\n      0x00\n        /* \"#utility.yul\":7054:7055   */\n      dup1\n        /* \"#utility.yul\":7047:7059   */\n      revert\n        /* \"#utility.yul\":6982:7061   */\n    tag_583:\n        /* \"#utility.yul\":6913:7067   */\n      pop\n      jump\t// out\n        /* \"#utility.yul\":7073:7244   */\n    tag_454:\n        /* \"#utility.yul\":7135:7140   */\n      0x00\n        /* \"#utility.yul\":7173:7179   */\n      dup2\n        /* \"#utility.yul\":7160:7180   */\n      calldataload\n        /* \"#utility.yul\":7151:7180   */\n      swap1\n      pop\n        /* \"#utility.yul\":7189:7238   */\n      tag_585\n        /* \"#utility.yul\":7232:7237   */\n      dup2\n        /* \"#utility.yul\":7189:7238   */\n      tag_453\n      jump\t// in\n    tag_585:\n        /* \"#utility.yul\":7073:7244   */\n      swap3\n      swap2\n      pop\n      pop\n      jump\t// out\n        /* \"#utility.yul\":7250:7340   */\n    tag_455:\n        /* \"#utility.yul\":7284:7291   */\n      0x00\n        /* \"#utility.yul\":7327:7332   */\n      dup2\n        /* \"#utility.yul\":7320:7333   */\n      iszero\n        /* \"#utility.yul\":7313:7334   */\n      iszero\n        /* \"#utility.yul\":7302:7334   */\n      swap1\n      pop\n        /* \"#utility.yul\":7250:7340   */\n      swap2\n      swap1\n      pop\n      jump\t// out\n        /* \"#utility.yul\":7346:7462   */\n    tag_456:\n        /* \"#utility.yul\":7416:7437   */\n      tag_588\n        /* \"#utility.yul\":7431:7436   */\n      dup2\n        /* \"#utility.yul\":7416:7437   */\n      tag_455\n      jump\t// in\n    tag_588:\n        /* \"#utility.yul\":7409:7414   */\n      dup2\n        /* \"#utility.yul\":7406:7438   */\n      eq\n        /* \"#utility.yul\":7396:7456   */\n      tag_589\n      jumpi\n        /* \"#utility.yul\":7452:7453   */\n      0x00\n        /* \"#utility.yul\":7449:7450   */\n      dup1\n        /* \"#utility.yul\":7442:7454   */\n      revert\n        /* \"#utility.yul\":7396:7456   */\n    tag_589:\n        /* \"#utility.yul\":7346:7462   */\n      pop\n      jump\t// out\n        /* \"#utility.yul\":7468:7601   */\n    tag_457:\n        /* \"#utility.yul\":7511:7516   */\n      0x00\n        /* \"#utility.yul\":7549:7555   */\n      dup2\n        /* \"#utility.yul\":7536:7556   */\n      calldataload\n        /* \"#utility.yul\":7527:7556   */\n      swap1\n      pop\n        /* \"#utility.yul\":7565:7595   */\n      tag_591\n        /* \"#utility.yul\":7589:7594   */\n      dup2\n        /* \"#utility.yul\":7565:7595   */\n      tag_456\n      jump\t// in\n    tag_591:\n        /* \"#utility.yul\":7468:7601   */\n      swap3\n      swap2\n      pop\n      pop\n      jump\t// out\n        /* \"#utility.yul\":7607:8252   */\n    tag_63:\n        /* \"#utility.yul\":7697:7703   */\n      0x00\n        /* \"#utility.yul\":7705:7711   */\n      dup1\n        /* \"#utility.yul\":7713:7719   */\n      0x00\n        /* \"#utility.yul\":7762:7764   */\n      0x60\n        /* \"#utility.yul\":7750:7759   */\n      dup5\n        /* \"#utility.yul\":7741:7748   */\n      dup7\n        /* \"#utility.yul\":7737:7760   */\n      sub\n        /* \"#utility.yul\":7733:7765   */\n      slt\n        /* \"#utility.yul\":7730:7849   */\n      iszero\n      tag_593\n      jumpi\n        /* \"#utility.yul\":7768:7847   */\n      tag_594\n      tag_427\n      jump\t// in\n    tag_594:\n        /* \"#utility.yul\":7730:7849   */\n    tag_593:\n        /* \"#utility.yul\":7888:7889   */\n      0x00\n        /* \"#utility.yul\":7913:7966   */\n      tag_595\n        /* \"#utility.yul\":7958:7965   */\n      dup7\n        /* \"#utility.yul\":7949:7955   */\n      dup3\n        /* \"#utility.yul\":7938:7947   */\n      dup8\n        /* \"#utility.yul\":7934:7956   */\n      add\n        /* \"#utility.yul\":7913:7966   */\n      tag_430\n      jump\t// in\n    tag_595:\n        /* \"#utility.yul\":7903:7966   */\n      swap4\n      pop\n        /* \"#utility.yul\":7859:7976   */\n      pop\n        /* \"#utility.yul\":8015:8017   */\n      0x20\n        /* \"#utility.yul\":8041:8110   */\n      tag_596\n        /* \"#utility.yul\":8102:8109   */\n      dup7\n        /* \"#utility.yul\":8093:8099   */\n      dup3\n        /* \"#utility.yul\":8082:8091   */\n      dup8\n        /* \"#utility.yul\":8078:8100   */\n      add\n        /* \"#utility.yul\":8041:8110   */\n      tag_454\n      jump\t// in\n    tag_596:\n        /* \"#utility.yul\":8031:8110   */\n      swap3\n      pop\n        /* \"#utility.yul\":7986:8120   */\n      pop\n        /* \"#utility.yul\":8159:8161   */\n      0x40\n        /* \"#utility.yul\":8185:8235   */\n      tag_597\n        /* \"#utility.yul\":8227:8234   */\n      dup7\n        /* \"#utility.yul\":8218:8224   */\n      dup3\n        /* \"#utility.yul\":8207:8216   */\n      dup8\n        /* \"#utility.yul\":8203:8225   */\n      add\n        /* \"#utility.yul\":8185:8235   */\n      tag_457\n      jump\t// in\n    tag_597:\n        /* \"#utility.yul\":8175:8235   */\n      swap2\n      pop\n        /* \"#utility.yul\":8130:8245   */\n      pop\n        /* \"#utility.yul\":7607:8252   */\n      swap3\n      pop\n      swap3\n      pop\n      swap3\n      jump\t// out\n        /* \"#utility.yul\":8258:8732   */\n    tag_67:\n        /* \"#utility.yul\":8326:8332   */\n      0x00\n        /* \"#utility.yul\":8334:8340   */\n      dup1\n        /* \"#utility.yul\":8383:8385   */\n      0x40\n        /* \"#utility.yul\":8371:8380   */\n      dup4\n        /* \"#utility.yul\":8362:8369   */\n      dup6\n        /* \"#utility.yul\":8358:8381   */\n      sub\n        /* \"#utility.yul\":8354:8386   */\n      slt\n        /* \"#utility.yul\":8351:8470   */\n      iszero\n      tag_599\n      jumpi\n        /* \"#utility.yul\":8389:8468   */\n      tag_600\n      tag_427\n      jump\t// in\n    tag_600:\n        /* \"#utility.yul\":8351:8470   */\n    tag_599:\n        /* \"#utility.yul\":8509:8510   */\n      0x00\n        /* \"#utility.yul\":8534:8587   */\n      tag_601\n        /* \"#utility.yul\":8579:8586   */\n      dup6\n        /* \"#utility.yul\":8570:8576   */\n      dup3\n        /* \"#utility.yul\":8559:8568   */\n      dup7\n        /* \"#utility.yul\":8555:8577   */\n      add\n        /* \"#utility.yul\":8534:8587   */\n      tag_430\n      jump\t// in\n    tag_601:\n        /* \"#utility.yul\":8524:8587   */\n      swap3\n      pop\n        /* \"#utility.yul\":8480:8597   */\n      pop\n        /* \"#utility.yul\":8636:8638   */\n      0x20\n        /* \"#utility.yul\":8662:8715   */\n      tag_602\n        /* \"#utility.yul\":8707:8714   */\n      dup6\n        /* \"#utility.yul\":8698:8704   */\n      dup3\n        /* \"#utility.yul\":8687:8696   */\n      dup7\n        /* \"#utility.yul\":8683:8705   */\n      add\n        /* \"#utility.yul\":8662:8715   */\n      tag_434\n      jump\t// in\n    tag_602:\n        /* \"#utility.yul\":8652:8715   */\n      swap2\n      pop\n        /* \"#utility.yul\":8607:8725   */\n      pop\n        /* \"#utility.yul\":8258:8732   */\n      swap3\n      pop\n      swap3\n      swap1\n      pop\n      jump\t// out\n        /* \"#utility.yul\":8738:8855   */\n    tag_458:\n        /* \"#utility.yul\":8796:8803   */\n      0x00\n        /* \"#utility.yul\":8825:8849   */\n      tag_604\n        /* \"#utility.yul\":8843:8848   */\n      dup3\n        /* \"#utility.yul\":8825:8849   */\n      tag_432\n      jump\t// in\n    tag_604:\n        /* \"#utility.yul\":8814:8849   */\n      swap1\n      pop\n        /* \"#utility.yul\":8738:8855   */\n      swap2\n      swap1\n      pop\n      jump\t// out\n        /* \"#utility.yul\":8861:9025   */\n    tag_459:\n        /* \"#utility.yul\":8955:9000   */\n      tag_606\n        /* \"#utility.yul\":8994:8999   */\n      dup2\n        /* \"#utility.yul\":8955:9000   */\n      tag_458\n      jump\t// in\n    tag_606:\n        /* \"#utility.yul\":8948:8953   */\n      dup2\n        /* \"#utility.yul\":8945:9001   */\n      eq\n        /* \"#utility.yul\":8935:9019   */\n      tag_607\n      jumpi\n        /* \"#utility.yul\":9015:9016   */\n      0x00\n        /* \"#utility.yul\":9012:9013   */\n      dup1\n        /* \"#utility.yul\":9005:9017   */\n      revert\n        /* \"#utility.yul\":8935:9019   */\n    tag_607:\n        /* \"#utility.yul\":8861:9025   */\n      pop\n      jump\t// out\n        /* \"#utility.yul\":9031:9212   */\n    tag_460:\n        /* \"#utility.yul\":9098:9103   */\n      0x00\n        /* \"#utility.yul\":9136:9142   */\n      dup2\n        /* \"#utility.yul\":9123:9143   */\n      calldataload\n        /* \"#utility.yul\":9114:9143   */\n      swap1\n      pop\n        /* \"#utility.yul\":9152:9206   */\n      tag_609\n        /* \"#utility.yul\":9200:9205   */\n      dup2\n        /* \"#utility.yul\":9152:9206   */\n      tag_459\n      jump\t// in\n    tag_609:\n        /* \"#utility.yul\":9031:9212   */\n      swap3\n      swap2\n      pop\n      pop\n      jump\t// out\n        /* \"#utility.yul\":9218:9589   */\n    tag_72:\n        /* \"#utility.yul\":9298:9304   */\n      0x00\n        /* \"#utility.yul\":9347:9349   */\n      0x20\n        /* \"#utility.yul\":9335:9344   */\n      dup3\n        /* \"#utility.yul\":9326:9333   */\n      dup5\n        /* \"#utility.yul\":9322:9345   */\n      sub\n        /* \"#utility.yul\":9318:9350   */\n      slt\n        /* \"#utility.yul\":9315:9434   */\n      iszero\n      tag_611\n      jumpi\n        /* \"#utility.yul\":9353:9432   */\n      tag_612\n      tag_427\n      jump\t// in\n    tag_612:\n        /* \"#utility.yul\":9315:9434   */\n    tag_611:\n        /* \"#utility.yul\":9473:9474   */\n      0x00\n        /* \"#utility.yul\":9498:9572   */\n      tag_613\n        /* \"#utility.yul\":9564:9571   */\n      dup5\n        /* \"#utility.yul\":9555:9561   */\n      dup3\n        /* \"#utility.yul\":9544:9553   */\n      dup6\n        /* \"#utility.yul\":9540:9562   */\n      add\n        /* \"#utility.yul\":9498:9572   */\n      tag_460\n      jump\t// in\n    tag_613:\n        /* \"#utility.yul\":9488:9572   */\n      swap2\n      pop\n        /* \"#utility.yul\":9444:9582   */\n      pop\n        /* \"#utility.yul\":9218:9589   */\n      swap3\n      swap2\n      pop\n      pop\n      jump\t// out\n        /* \"#utility.yul\":9595:10069   */\n    tag_76:\n        /* \"#utility.yul\":9663:9669   */\n      0x00\n        /* \"#utility.yul\":9671:9677   */\n      dup1\n        /* \"#utility.yul\":9720:9722   */\n      0x40\n        /* \"#utility.yul\":9708:9717   */\n      dup4\n        /* \"#utility.yul\":9699:9706   */\n      dup6\n        /* \"#utility.yul\":9695:9718   */\n      sub\n        /* \"#utility.yul\":9691:9723   */\n      slt\n        /* \"#utility.yul\":9688:9807   */\n      iszero\n      tag_615\n      jumpi\n        /* \"#utility.yul\":9726:9805   */\n      tag_616\n      tag_427\n      jump\t// in\n    tag_616:\n        /* \"#utility.yul\":9688:9807   */\n    tag_615:\n        /* \"#utility.yul\":9846:9847   */\n      0x00\n        /* \"#utility.yul\":9871:9924   */\n      tag_617\n        /* \"#utility.yul\":9916:9923   */\n      dup6\n        /* \"#utility.yul\":9907:9913   */\n      dup3\n        /* \"#utility.yul\":9896:9905   */\n      dup7\n        /* \"#utility.yul\":9892:9914   */\n      add\n        /* \"#utility.yul\":9871:9924   */\n      tag_430\n      jump\t// in\n    tag_617:\n        /* \"#utility.yul\":9861:9924   */\n      swap3\n      pop\n        /* \"#utility.yul\":9817:9934   */\n      pop\n        /* \"#utility.yul\":9973:9975   */\n      0x20\n        /* \"#utility.yul\":9999:10052   */\n      tag_618\n        /* \"#utility.yul\":10044:10051   */\n      dup6\n        /* \"#utility.yul\":10035:10041   */\n      dup3\n        /* \"#utility.yul\":10024:10033   */\n      dup7\n        /* \"#utility.yul\":10020:10042   */\n      add\n        /* \"#utility.yul\":9999:10052   */\n      tag_430\n      jump\t// in\n    tag_618:\n        /* \"#utility.yul\":9989:10052   */\n      swap2\n      pop\n        /* \"#utility.yul\":9944:10062   */\n      pop\n        /* \"#utility.yul\":9595:10069   */\n      swap3\n      pop\n      swap3\n      swap1\n      pop\n      jump\t// out\n        /* \"#utility.yul\":10075:10688   */\n    tag_94:\n        /* \"#utility.yul\":10149:10155   */\n      0x00\n        /* \"#utility.yul\":10157:10163   */\n      dup1\n        /* \"#utility.yul\":10165:10171   */\n      0x00\n        /* \"#utility.yul\":10214:10216   */\n      0x60\n        /* \"#utility.yul\":10202:10211   */\n      dup5\n        /* \"#utility.yul\":10193:10200   */\n      dup7\n        /* \"#utility.yul\":10189:10212   */\n      sub\n        /* \"#utility.yul\":10185:10217   */\n      slt\n        /* \"#utility.yul\":10182:10301   */\n      iszero\n      tag_620\n      jumpi\n        /* \"#utility.yul\":10220:10299   */\n      tag_621\n      tag_427\n      jump\t// in\n    tag_621:\n        /* \"#utility.yul\":10182:10301   */\n    tag_620:\n        /* \"#utility.yul\":10340:10341   */\n      0x00\n        /* \"#utility.yul\":10365:10418   */\n      tag_622\n        /* \"#utility.yul\":10410:10417   */\n      dup7\n        /* \"#utility.yul\":10401:10407   */\n      dup3\n        /* \"#utility.yul\":10390:10399   */\n      dup8\n        /* \"#utility.yul\":10386:10408   */\n      add\n        /* \"#utility.yul\":10365:10418   */\n      tag_430\n      jump\t// in\n    tag_622:\n        /* \"#utility.yul\":10355:10418   */\n      swap4\n      pop\n        /* \"#utility.yul\":10311:10428   */\n      pop\n        /* \"#utility.yul\":10467:10469   */\n      0x20\n        /* \"#utility.yul\":10493:10546   */\n      tag_623\n        /* \"#utility.yul\":10538:10545   */\n      dup7\n        /* \"#utility.yul\":10529:10535   */\n      dup3\n        /* \"#utility.yul\":10518:10527   */\n      dup8\n        /* \"#utility.yul\":10514:10536   */\n      add\n        /* \"#utility.yul\":10493:10546   */\n      tag_430\n      jump\t// in\n    tag_623:\n        /* \"#utility.yul\":10483:10546   */\n      swap3\n      pop\n        /* \"#utility.yul\":10438:10556   */\n      pop\n        /* \"#utility.yul\":10595:10597   */\n      0x40\n        /* \"#utility.yul\":10621:10671   */\n      tag_624\n        /* \"#utility.yul\":10663:10670   */\n      dup7\n        /* \"#utility.yul\":10654:10660   */\n      dup3\n        /* \"#utility.yul\":10643:10652   */\n      dup8\n        /* \"#utility.yul\":10639:10661   */\n      add\n        /* \"#utility.yul\":10621:10671   */\n      tag_457\n      jump\t// in\n    tag_624:\n        /* \"#utility.yul\":10611:10671   */\n      swap2\n      pop\n        /* \"#utility.yul\":10566:10681   */\n      pop\n        /* \"#utility.yul\":10075:10688   */\n      swap3\n      pop\n      swap3\n      pop\n      swap3\n      jump\t// out\n        /* \"#utility.yul\":10694:10841   */\n    tag_461:\n        /* \"#utility.yul\":10765:10774   */\n      0x00\n        /* \"#utility.yul\":10798:10835   */\n      tag_626\n        /* \"#utility.yul\":10829:10834   */\n      dup3\n        /* \"#utility.yul\":10798:10835   */\n      tag_449\n      jump\t// in\n    tag_626:\n        /* \"#utility.yul\":10785:10835   */\n      swap1\n      pop\n        /* \"#utility.yul\":10694:10841   */\n      swap2\n      swap1\n      pop\n      jump\t// out\n        /* \"#utility.yul\":10847:11020   */\n    tag_462:\n        /* \"#utility.yul\":10955:11013   */\n      tag_628\n        /* \"#utility.yul\":11007:11012   */\n      dup2\n        /* \"#utility.yul\":10955:11013   */\n      tag_461\n      jump\t// in\n    tag_628:\n        /* \"#utility.yul\":10950:10953   */\n      dup3\n        /* \"#utility.yul\":10943:11014   */\n      mstore\n        /* \"#utility.yul\":10847:11020   */\n      pop\n      pop\n      jump\t// out\n        /* \"#utility.yul\":11026:11290   */\n    tag_101:\n        /* \"#utility.yul\":11140:11144   */\n      0x00\n        /* \"#utility.yul\":11178:11180   */\n      0x20\n        /* \"#utility.yul\":11167:11176   */\n      dup3\n        /* \"#utility.yul\":11163:11181   */\n      add\n        /* \"#utility.yul\":11155:11181   */\n      swap1\n      pop\n        /* \"#utility.yul\":11191:11283   */\n      tag_630\n        /* \"#utility.yul\":11280:11281   */\n      0x00\n        /* \"#utility.yul\":11269:11278   */\n      dup4\n        /* \"#utility.yul\":11265:11282   */\n      add\n        /* \"#utility.yul\":11256:11262   */\n      dup5\n        /* \"#utility.yul\":11191:11283   */\n      tag_462\n      jump\t// in\n    tag_630:\n        /* \"#utility.yul\":11026:11290   */\n      swap3\n      swap2\n      pop\n      pop\n      jump\t// out\n        /* \"#utility.yul\":11296:11414   */\n    tag_463:\n        /* \"#utility.yul\":11383:11407   */\n      tag_632\n        /* \"#utility.yul\":11401:11406   */\n      dup2\n        /* \"#utility.yul\":11383:11407   */\n      tag_432\n      jump\t// in\n    tag_632:\n        /* \"#utility.yul\":11378:11381   */\n      dup3\n        /* \"#utility.yul\":11371:11408   */\n      mstore\n        /* \"#utility.yul\":11296:11414   */\n      pop\n      pop\n      jump\t// out\n        /* \"#utility.yul\":11420:11642   */\n    tag_108:\n        /* \"#utility.yul\":11513:11517   */\n      0x00\n        /* \"#utility.yul\":11551:11553   */\n      0x20\n        /* \"#utility.yul\":11540:11549   */\n      dup3\n        /* \"#utility.yul\":11536:11554   */\n      add\n        /* \"#utility.yul\":11528:11554   */\n      swap1\n      pop\n        /* \"#utility.yul\":11564:11635   */\n      tag_634\n        /* \"#utility.yul\":11632:11633   */\n      0x00\n        /* \"#utility.yul\":11621:11630   */\n      dup4\n        /* \"#utility.yul\":11617:11634   */\n      add\n        /* \"#utility.yul\":11608:11614   */\n      dup5\n        /* \"#utility.yul\":11564:11635   */\n      tag_463\n      jump\t// in\n    tag_634:\n        /* \"#utility.yul\":11420:11642   */\n      swap3\n      swap2\n      pop\n      pop\n      jump\t// out\n        /* \"#utility.yul\":11648:11980   */\n    tag_117:\n        /* \"#utility.yul\":11769:11773   */\n      0x00\n        /* \"#utility.yul\":11807:11809   */\n      0x40\n        /* \"#utility.yul\":11796:11805   */\n      dup3\n        /* \"#utility.yul\":11792:11810   */\n      add\n        /* \"#utility.yul\":11784:11810   */\n      swap1\n      pop\n        /* \"#utility.yul\":11820:11891   */\n      tag_636\n        /* \"#utility.yul\":11888:11889   */\n      0x00\n        /* \"#utility.yul\":11877:11886   */\n      dup4\n        /* \"#utility.yul\":11873:11890   */\n      add\n        /* \"#utility.yul\":11864:11870   */\n      dup6\n        /* \"#utility.yul\":11820:11891   */\n      tag_425\n      jump\t// in\n    tag_636:\n        /* \"#utility.yul\":11901:11973   */\n      tag_637\n        /* \"#utility.yul\":11969:11971   */\n      0x20\n        /* \"#utility.yul\":11958:11967   */\n      dup4\n        /* \"#utility.yul\":11954:11972   */\n      add\n        /* \"#utility.yul\":11945:11951   */\n      dup5\n        /* \"#utility.yul\":11901:11973   */\n      tag_425\n      jump\t// in\n    tag_637:\n        /* \"#utility.yul\":11648:11980   */\n      swap4\n      swap3\n      pop\n      pop\n      pop\n      jump\t// out\n        /* \"#utility.yul\":11986:12126   */\n    tag_464:\n        /* \"#utility.yul\":12050:12059   */\n      0x00\n        /* \"#utility.yul\":12083:12120   */\n      tag_639\n        /* \"#utility.yul\":12114:12119   */\n      dup3\n        /* \"#utility.yul\":12083:12120   */\n      tag_449\n      jump\t// in\n    tag_639:\n        /* \"#utility.yul\":12070:12120   */\n      swap1\n      pop\n        /* \"#utility.yul\":11986:12126   */\n      swap2\n      swap1\n      pop\n      jump\t// out\n        /* \"#utility.yul\":12132:12291   */\n    tag_465:\n        /* \"#utility.yul\":12233:12284   */\n      tag_641\n        /* \"#utility.yul\":12278:12283   */\n      dup2\n        /* \"#utility.yul\":12233:12284   */\n      tag_464\n      jump\t// in\n    tag_641:\n        /* \"#utility.yul\":12228:12231   */\n      dup3\n        /* \"#utility.yul\":12221:12285   */\n      mstore\n        /* \"#utility.yul\":12132:12291   */\n      pop\n      pop\n      jump\t// out\n        /* \"#utility.yul\":12297:12547   */\n    tag_121:\n        /* \"#utility.yul\":12404:12408   */\n      0x00\n        /* \"#utility.yul\":12442:12444   */\n      0x20\n        /* \"#utility.yul\":12431:12440   */\n      dup3\n        /* \"#utility.yul\":12427:12445   */\n      add\n        /* \"#utility.yul\":12419:12445   */\n      swap1\n      pop\n        /* \"#utility.yul\":12455:12540   */\n      tag_643\n        /* \"#utility.yul\":12537:12538   */\n      0x00\n        /* \"#utility.yul\":12526:12535   */\n      dup4\n        /* \"#utility.yul\":12522:12539   */\n      add\n        /* \"#utility.yul\":12513:12519   */\n      dup5\n        /* \"#utility.yul\":12455:12540   */\n      tag_465\n      jump\t// in\n    tag_643:\n        /* \"#utility.yul\":12297:12547   */\n      swap3\n      swap2\n      pop\n      pop\n      jump\t// out\n        /* \"#utility.yul\":12553:12882   */\n    tag_124:\n        /* \"#utility.yul\":12612:12618   */\n      0x00\n        /* \"#utility.yul\":12661:12663   */\n      0x20\n        /* \"#utility.yul\":12649:12658   */\n      dup3\n        /* \"#utility.yul\":12640:12647   */\n      dup5\n        /* \"#utility.yul\":12636:12659   */\n      sub\n        /* \"#utility.yul\":12632:12664   */\n      slt\n        /* \"#utility.yul\":12629:12748   */\n      iszero\n      tag_645\n      jumpi\n        /* \"#utility.yul\":12667:12746   */\n      tag_646\n      tag_427\n      jump\t// in\n    tag_646:\n        /* \"#utility.yul\":12629:12748   */\n    tag_645:\n        /* \"#utility.yul\":12787:12788   */\n      0x00\n        /* \"#utility.yul\":12812:12865   */\n      tag_647\n        /* \"#utility.yul\":12857:12864   */\n      dup5\n        /* \"#utility.yul\":12848:12854   */\n      dup3\n        /* \"#utility.yul\":12837:12846   */\n      dup6\n        /* \"#utility.yul\":12833:12855   */\n      add\n        /* \"#utility.yul\":12812:12865   */\n      tag_434\n      jump\t// in\n    tag_647:\n        /* \"#utility.yul\":12802:12865   */\n      swap2\n      pop\n        /* \"#utility.yul\":12758:12875   */\n      pop\n        /* \"#utility.yul\":12553:12882   */\n      swap3\n      swap2\n      pop\n      pop\n      jump\t// out\n        /* \"#utility.yul\":12888:13002   */\n    tag_466:\n        /* \"#utility.yul\":12955:12961   */\n      0x00\n        /* \"#utility.yul\":12989:12994   */\n      dup2\n        /* \"#utility.yul\":12983:12995   */\n      mload\n        /* \"#utility.yul\":12973:12995   */\n      swap1\n      pop\n        /* \"#utility.yul\":12888:13002   */\n      swap2\n      swap1\n      pop\n      jump\t// out\n        /* \"#utility.yul\":13008:13192   */\n    tag_467:\n        /* \"#utility.yul\":13107:13118   */\n      0x00\n        /* \"#utility.yul\":13141:13147   */\n      dup3\n        /* \"#utility.yul\":13136:13139   */\n      dup3\n        /* \"#utility.yul\":13129:13148   */\n      mstore\n        /* \"#utility.yul\":13181:13185   */\n      0x20\n        /* \"#utility.yul\":13176:13179   */\n      dup3\n        /* \"#utility.yul\":13172:13186   */\n      add\n        /* \"#utility.yul\":13157:13186   */\n      swap1\n      pop\n        /* \"#utility.yul\":13008:13192   */\n      swap3\n      swap2\n      pop\n      pop\n      jump\t// out\n        /* \"#utility.yul\":13198:13330   */\n    tag_468:\n        /* \"#utility.yul\":13265:13269   */\n      0x00\n        /* \"#utility.yul\":13288:13291   */\n      dup2\n        /* \"#utility.yul\":13280:13291   */\n      swap1\n      pop\n        /* \"#utility.yul\":13318:13322   */\n      0x20\n        /* \"#utility.yul\":13313:13316   */\n      dup3\n        /* \"#utility.yul\":13309:13323   */\n      add\n        /* \"#utility.yul\":13301:13323   */\n      swap1\n      pop\n        /* \"#utility.yul\":13198:13330   */\n      swap2\n      swap1\n      pop\n      jump\t// out\n        /* \"#utility.yul\":13336:13444   */\n    tag_469:\n        /* \"#utility.yul\":13413:13437   */\n      tag_652\n        /* \"#utility.yul\":13431:13436   */\n      dup2\n        /* \"#utility.yul\":13413:13437   */\n      tag_424\n      jump\t// in\n    tag_652:\n        /* \"#utility.yul\":13408:13411   */\n      dup3\n        /* \"#utility.yul\":13401:13438   */\n      mstore\n        /* \"#utility.yul\":13336:13444   */\n      pop\n      pop\n      jump\t// out\n        /* \"#utility.yul\":13450:13629   */\n    tag_470:\n        /* \"#utility.yul\":13519:13529   */\n      0x00\n        /* \"#utility.yul\":13540:13586   */\n      tag_654\n        /* \"#utility.yul\":13582:13585   */\n      dup4\n        /* \"#utility.yul\":13574:13580   */\n      dup4\n        /* \"#utility.yul\":13540:13586   */\n      tag_469\n      jump\t// in\n    tag_654:\n        /* \"#utility.yul\":13618:13622   */\n      0x20\n        /* \"#utility.yul\":13613:13616   */\n      dup4\n        /* \"#utility.yul\":13609:13623   */\n      add\n        /* \"#utility.yul\":13595:13623   */\n      swap1\n      pop\n        /* \"#utility.yul\":13450:13629   */\n      swap3\n      swap2\n      pop\n      pop\n      jump\t// out\n        /* \"#utility.yul\":13635:13748   */\n    tag_471:\n        /* \"#utility.yul\":13705:13709   */\n      0x00\n        /* \"#utility.yul\":13737:13741   */\n      0x20\n        /* \"#utility.yul\":13732:13735   */\n      dup3\n        /* \"#utility.yul\":13728:13742   */\n      add\n        /* \"#utility.yul\":13720:13742   */\n      swap1\n      pop\n        /* \"#utility.yul\":13635:13748   */\n      swap2\n      swap1\n      pop\n      jump\t// out\n        /* \"#utility.yul\":13784:14516   */\n    tag_472:\n        /* \"#utility.yul\":13903:13906   */\n      0x00\n        /* \"#utility.yul\":13932:13986   */\n      tag_657\n        /* \"#utility.yul\":13980:13985   */\n      dup3\n        /* \"#utility.yul\":13932:13986   */\n      tag_466\n      jump\t// in\n    tag_657:\n        /* \"#utility.yul\":14002:14088   */\n      tag_658\n        /* \"#utility.yul\":14081:14087   */\n      dup2\n        /* \"#utility.yul\":14076:14079   */\n      dup6\n        /* \"#utility.yul\":14002:14088   */\n      tag_467\n      jump\t// in\n    tag_658:\n        /* \"#utility.yul\":13995:14088   */\n      swap4\n      pop\n        /* \"#utility.yul\":14112:14168   */\n      tag_659\n        /* \"#utility.yul\":14162:14167   */\n      dup4\n        /* \"#utility.yul\":14112:14168   */\n      tag_468\n      jump\t// in\n    tag_659:\n        /* \"#utility.yul\":14191:14198   */\n      dup1\n        /* \"#utility.yul\":14222:14223   */\n      0x00\n        /* \"#utility.yul\":14207:14491   */\n    tag_660:\n        /* \"#utility.yul\":14232:14238   */\n      dup4\n        /* \"#utility.yul\":14229:14230   */\n      dup2\n        /* \"#utility.yul\":14226:14239   */\n      lt\n        /* \"#utility.yul\":14207:14491   */\n      iszero\n      tag_662\n      jumpi\n        /* \"#utility.yul\":14308:14314   */\n      dup2\n        /* \"#utility.yul\":14302:14315   */\n      mload\n        /* \"#utility.yul\":14335:14398   */\n      tag_663\n        /* \"#utility.yul\":14394:14397   */\n      dup9\n        /* \"#utility.yul\":14379:14392   */\n      dup3\n        /* \"#utility.yul\":14335:14398   */\n      tag_470\n      jump\t// in\n    tag_663:\n        /* \"#utility.yul\":14328:14398   */\n      swap8\n      pop\n        /* \"#utility.yul\":14421:14481   */\n      tag_664\n        /* \"#utility.yul\":14474:14480   */\n      dup4\n        /* \"#utility.yul\":14421:14481   */\n      tag_471\n      jump\t// in\n    tag_664:\n        /* \"#utility.yul\":14411:14481   */\n      swap3\n      pop\n        /* \"#utility.yul\":14267:14491   */\n      pop\n        /* \"#utility.yul\":14254:14255   */\n      0x01\n        /* \"#utility.yul\":14251:14252   */\n      dup2\n        /* \"#utility.yul\":14247:14256   */\n      add\n        /* \"#utility.yul\":14242:14256   */\n      swap1\n      pop\n        /* \"#utility.yul\":14207:14491   */\n      jump(tag_660)\n    tag_662:\n        /* \"#utility.yul\":14211:14225   */\n      pop\n        /* \"#utility.yul\":14507:14510   */\n      dup6\n        /* \"#utility.yul\":14500:14510   */\n      swap4\n      pop\n        /* \"#utility.yul\":13908:14516   */\n      pop\n      pop\n      pop\n        /* \"#utility.yul\":13784:14516   */\n      swap3\n      swap2\n      pop\n      pop\n      jump\t// out\n        /* \"#utility.yul\":14522:14895   */\n    tag_133:\n        /* \"#utility.yul\":14665:14669   */\n      0x00\n        /* \"#utility.yul\":14703:14705   */\n      0x20\n        /* \"#utility.yul\":14692:14701   */\n      dup3\n        /* \"#utility.yul\":14688:14706   */\n      add\n        /* \"#utility.yul\":14680:14706   */\n      swap1\n      pop\n        /* \"#utility.yul\":14752:14761   */\n      dup2\n        /* \"#utility.yul\":14746:14750   */\n      dup2\n        /* \"#utility.yul\":14742:14762   */\n      sub\n        /* \"#utility.yul\":14738:14739   */\n      0x00\n        /* \"#utility.yul\":14727:14736   */\n      dup4\n        /* \"#utility.yul\":14723:14740   */\n      add\n        /* \"#utility.yul\":14716:14763   */\n      mstore\n        /* \"#utility.yul\":14780:14888   */\n      tag_666\n        /* \"#utility.yul\":14883:14887   */\n      dup2\n        /* \"#utility.yul\":14874:14880   */\n      dup5\n        /* \"#utility.yul\":14780:14888   */\n      tag_472\n      jump\t// in\n    tag_666:\n        /* \"#utility.yul\":14772:14888   */\n      swap1\n      pop\n        /* \"#utility.yul\":14522:14895   */\n      swap3\n      swap2\n      pop\n      pop\n      jump\t// out\n        /* \"#utility.yul\":14901:15050   */\n    tag_473:\n        /* \"#utility.yul\":14974:14983   */\n      0x00\n        /* \"#utility.yul\":15007:15044   */\n      tag_668\n        /* \"#utility.yul\":15038:15043   */\n      dup3\n        /* \"#utility.yul\":15007:15044   */\n      tag_449\n      jump\t// in\n    tag_668:\n        /* \"#utility.yul\":14994:15044   */\n      swap1\n      pop\n        /* \"#utility.yul\":14901:15050   */\n      swap2\n      swap1\n      pop\n      jump\t// out\n        /* \"#utility.yul\":15056:15233   */\n    tag_474:\n        /* \"#utility.yul\":15166:15226   */\n      tag_670\n        /* \"#utility.yul\":15220:15225   */\n      dup2\n        /* \"#utility.yul\":15166:15226   */\n      tag_473\n      jump\t// in\n    tag_670:\n        /* \"#utility.yul\":15161:15164   */\n      dup3\n        /* \"#utility.yul\":15154:15227   */\n      mstore\n        /* \"#utility.yul\":15056:15233   */\n      pop\n      pop\n      jump\t// out\n        /* \"#utility.yul\":15239:15507   */\n    tag_140:\n        /* \"#utility.yul\":15355:15359   */\n      0x00\n        /* \"#utility.yul\":15393:15395   */\n      0x20\n        /* \"#utility.yul\":15382:15391   */\n      dup3\n        /* \"#utility.yul\":15378:15396   */\n      add\n        /* \"#utility.yul\":15370:15396   */\n      swap1\n      pop\n        /* \"#utility.yul\":15406:15500   */\n      tag_672\n        /* \"#utility.yul\":15497:15498   */\n      0x00\n        /* \"#utility.yul\":15486:15495   */\n      dup4\n        /* \"#utility.yul\":15482:15499   */\n      add\n        /* \"#utility.yul\":15473:15479   */\n      dup5\n        /* \"#utility.yul\":15406:15500   */\n      tag_474\n      jump\t// in\n    tag_672:\n        /* \"#utility.yul\":15239:15507   */\n      swap3\n      swap2\n      pop\n      pop\n      jump\t// out\n        /* \"#utility.yul\":15513:15693   */\n    tag_151:\n        /* \"#utility.yul\":15561:15638   */\n      0x4e487b7100000000000000000000000000000000000000000000000000000000\n        /* \"#utility.yul\":15558:15559   */\n      0x00\n        /* \"#utility.yul\":15551:15639   */\n      mstore\n        /* \"#utility.yul\":15658:15662   */\n      0x32\n        /* \"#utility.yul\":15655:15656   */\n      0x04\n        /* \"#utility.yul\":15648:15663   */\n      mstore\n        /* \"#utility.yul\":15682:15686   */\n      0x24\n        /* \"#utility.yul\":15679:15680   */\n      0x00\n        /* \"#utility.yul\":15672:15687   */\n      revert\n        /* \"#utility.yul\":15699:15868   */\n    tag_475:\n        /* \"#utility.yul\":15783:15794   */\n      0x00\n        /* \"#utility.yul\":15817:15823   */\n      dup3\n        /* \"#utility.yul\":15812:15815   */\n      dup3\n        /* \"#utility.yul\":15805:15824   */\n      mstore\n        /* \"#utility.yul\":15857:15861   */\n      0x20\n        /* \"#utility.yul\":15852:15855   */\n      dup3\n        /* \"#utility.yul\":15848:15862   */\n      add\n        /* \"#utility.yul\":15833:15862   */\n      swap1\n      pop\n        /* \"#utility.yul\":15699:15868   */\n      swap3\n      swap2\n      pop\n      pop\n      jump\t// out\n        /* \"#utility.yul\":15874:16038   */\n    tag_476:\n        /* \"#utility.yul\":16014:16030   */\n      0x416d6f756e74206973207a65726f000000000000000000000000000000000000\n        /* \"#utility.yul\":16010:16011   */\n      0x00\n        /* \"#utility.yul\":16002:16008   */\n      dup3\n        /* \"#utility.yul\":15998:16012   */\n      add\n        /* \"#utility.yul\":15991:16031   */\n      mstore\n        /* \"#utility.yul\":15874:16038   */\n      pop\n      jump\t// out\n        /* \"#utility.yul\":16044:16410   */\n    tag_477:\n        /* \"#utility.yul\":16186:16189   */\n      0x00\n        /* \"#utility.yul\":16207:16274   */\n      tag_677\n        /* \"#utility.yul\":16271:16273   */\n      0x0e\n        /* \"#utility.yul\":16266:16269   */\n      dup4\n        /* \"#utility.yul\":16207:16274   */\n      tag_475\n      jump\t// in\n    tag_677:\n        /* \"#utility.yul\":16200:16274   */\n      swap2\n      pop\n        /* \"#utility.yul\":16283:16376   */\n      tag_678\n        /* \"#utility.yul\":16372:16375   */\n      dup3\n        /* \"#utility.yul\":16283:16376   */\n      tag_476\n      jump\t// in\n    tag_678:\n        /* \"#utility.yul\":16401:16403   */\n      0x20\n        /* \"#utility.yul\":16396:16399   */\n      dup3\n        /* \"#utility.yul\":16392:16404   */\n      add\n        /* \"#utility.yul\":16385:16404   */\n      swap1\n      pop\n        /* \"#utility.yul\":16044:16410   */\n      swap2\n      swap1\n      pop\n      jump\t// out\n        /* \"#utility.yul\":16416:16835   */\n    tag_162:\n        /* \"#utility.yul\":16582:16586   */\n      0x00\n        /* \"#utility.yul\":16620:16622   */\n      0x20\n        /* \"#utility.yul\":16609:16618   */\n      dup3\n        /* \"#utility.yul\":16605:16623   */\n      add\n        /* \"#utility.yul\":16597:16623   */\n      swap1\n      pop\n        /* \"#utility.yul\":16669:16678   */\n      dup2\n        /* \"#utility.yul\":16663:16667   */\n      dup2\n        /* \"#utility.yul\":16659:16679   */\n      sub\n        /* \"#utility.yul\":16655:16656   */\n      0x00\n        /* \"#utility.yul\":16644:16653   */\n      dup4\n        /* \"#utility.yul\":16640:16657   */\n      add\n        /* \"#utility.yul\":16633:16680   */\n      mstore\n        /* \"#utility.yul\":16697:16828   */\n      tag_680\n        /* \"#utility.yul\":16823:16827   */\n      dup2\n        /* \"#utility.yul\":16697:16828   */\n      tag_477\n      jump\t// in\n    tag_680:\n        /* \"#utility.yul\":16689:16828   */\n      swap1\n      pop\n        /* \"#utility.yul\":16416:16835   */\n      swap2\n      swap1\n      pop\n      jump\t// out\n        /* \"#utility.yul\":16841:17173   */\n    tag_164:\n        /* \"#utility.yul\":16962:16966   */\n      0x00\n        /* \"#utility.yul\":17000:17002   */\n      0x40\n        /* \"#utility.yul\":16989:16998   */\n      dup3\n        /* \"#utility.yul\":16985:17003   */\n      add\n        /* \"#utility.yul\":16977:17003   */\n      swap1\n      pop\n        /* \"#utility.yul\":17013:17084   */\n      tag_682\n        /* \"#utility.yul\":17081:17082   */\n      0x00\n        /* \"#utility.yul\":17070:17079   */\n      dup4\n        /* \"#utility.yul\":17066:17083   */\n      add\n        /* \"#utility.yul\":17057:17063   */\n      dup6\n        /* \"#utility.yul\":17013:17084   */\n      tag_463\n      jump\t// in\n    tag_682:\n        /* \"#utility.yul\":17094:17166   */\n      tag_683\n        /* \"#utility.yul\":17162:17164   */\n      0x20\n        /* \"#utility.yul\":17151:17160   */\n      dup4\n        /* \"#utility.yul\":17147:17165   */\n      add\n        /* \"#utility.yul\":17138:17144   */\n      dup5\n        /* \"#utility.yul\":17094:17166   */\n      tag_425\n      jump\t// in\n    tag_683:\n        /* \"#utility.yul\":16841:17173   */\n      swap4\n      swap3\n      pop\n      pop\n      pop\n      jump\t// out\n        /* \"#utility.yul\":17179:17316   */\n    tag_478:\n        /* \"#utility.yul\":17233:17238   */\n      0x00\n        /* \"#utility.yul\":17264:17270   */\n      dup2\n        /* \"#utility.yul\":17258:17271   */\n      mload\n        /* \"#utility.yul\":17249:17271   */\n      swap1\n      pop\n        /* \"#utility.yul\":17280:17310   */\n      tag_685\n        /* \"#utility.yul\":17304:17309   */\n      dup2\n        /* \"#utility.yul\":17280:17310   */\n      tag_456\n      jump\t// in\n    tag_685:\n        /* \"#utility.yul\":17179:17316   */\n      swap3\n      swap2\n      pop\n      pop\n      jump\t// out\n        /* \"#utility.yul\":17322:17667   */\n    tag_168:\n        /* \"#utility.yul\":17389:17395   */\n      0x00\n        /* \"#utility.yul\":17438:17440   */\n      0x20\n        /* \"#utility.yul\":17426:17435   */\n      dup3\n        /* \"#utility.yul\":17417:17424   */\n      dup5\n        /* \"#utility.yul\":17413:17436   */\n      sub\n        /* \"#utility.yul\":17409:17441   */\n      slt\n        /* \"#utility.yul\":17406:17525   */\n      iszero\n      tag_687\n      jumpi\n        /* \"#utility.yul\":17444:17523   */\n      tag_688\n      tag_427\n      jump\t// in\n    tag_688:\n        /* \"#utility.yul\":17406:17525   */\n    tag_687:\n        /* \"#utility.yul\":17564:17565   */\n      0x00\n        /* \"#utility.yul\":17589:17650   */\n      tag_689\n        /* \"#utility.yul\":17642:17649   */\n      dup5\n        /* \"#utility.yul\":17633:17639   */\n      dup3\n        /* \"#utility.yul\":17622:17631   */\n      dup6\n        /* \"#utility.yul\":17618:17640   */\n      add\n        /* \"#utility.yul\":17589:17650   */\n      tag_478\n      jump\t// in\n    tag_689:\n        /* \"#utility.yul\":17579:17650   */\n      swap2\n      pop\n        /* \"#utility.yul\":17535:17660   */\n      pop\n        /* \"#utility.yul\":17322:17667   */\n      swap3\n      swap2\n      pop\n      pop\n      jump\t// out\n        /* \"#utility.yul\":17673:18005   */\n    tag_170:\n        /* \"#utility.yul\":17794:17798   */\n      0x00\n        /* \"#utility.yul\":17832:17834   */\n      0x40\n        /* \"#utility.yul\":17821:17830   */\n      dup3\n        /* \"#utility.yul\":17817:17835   */\n      add\n        /* \"#utility.yul\":17809:17835   */\n      swap1\n      pop\n        /* \"#utility.yul\":17845:17916   */\n      tag_691\n        /* \"#utility.yul\":17913:17914   */\n      0x00\n        /* \"#utility.yul\":17902:17911   */\n      dup4\n        /* \"#utility.yul\":17898:17915   */\n      add\n        /* \"#utility.yul\":17889:17895   */\n      dup6\n        /* \"#utility.yul\":17845:17916   */\n      tag_425\n      jump\t// in\n    tag_691:\n        /* \"#utility.yul\":17926:17998   */\n      tag_692\n        /* \"#utility.yul\":17994:17996   */\n      0x20\n        /* \"#utility.yul\":17983:17992   */\n      dup4\n        /* \"#utility.yul\":17979:17997   */\n      add\n        /* \"#utility.yul\":17970:17976   */\n      dup5\n        /* \"#utility.yul\":17926:17998   */\n      tag_463\n      jump\t// in\n    tag_692:\n        /* \"#utility.yul\":17673:18005   */\n      swap4\n      swap3\n      pop\n      pop\n      pop\n      jump\t// out\n        /* \"#utility.yul\":18011:18193   */\n    tag_479:\n        /* \"#utility.yul\":18151:18185   */\n      0x4f776e61626c653a2063616c6c6572206973206e6f7420746865206f776e6572\n        /* \"#utility.yul\":18147:18148   */\n      0x00\n        /* \"#utility.yul\":18139:18145   */\n      dup3\n        /* \"#utility.yul\":18135:18149   */\n      add\n        /* \"#utility.yul\":18128:18186   */\n      mstore\n        /* \"#utility.yul\":18011:18193   */\n      pop\n      jump\t// out\n        /* \"#utility.yul\":18199:18565   */\n    tag_480:\n        /* \"#utility.yul\":18341:18344   */\n      0x00\n        /* \"#utility.yul\":18362:18429   */\n      tag_695\n        /* \"#utility.yul\":18426:18428   */\n      0x20\n        /* \"#utility.yul\":18421:18424   */\n      dup4\n        /* \"#utility.yul\":18362:18429   */\n      tag_475\n      jump\t// in\n    tag_695:\n        /* \"#utility.yul\":18355:18429   */\n      swap2\n      pop\n        /* \"#utility.yul\":18438:18531   */\n      tag_696\n        /* \"#utility.yul\":18527:18530   */\n      dup3\n        /* \"#utility.yul\":18438:18531   */\n      tag_479\n      jump\t// in\n    tag_696:\n        /* \"#utility.yul\":18556:18558   */\n      0x20\n        /* \"#utility.yul\":18551:18554   */\n      dup3\n        /* \"#utility.yul\":18547:18559   */\n      add\n        /* \"#utility.yul\":18540:18559   */\n      swap1\n      pop\n        /* \"#utility.yul\":18199:18565   */\n      swap2\n      swap1\n      pop\n      jump\t// out\n        /* \"#utility.yul\":18571:18990   */\n    tag_186:\n        /* \"#utility.yul\":18737:18741   */\n      0x00\n        /* \"#utility.yul\":18775:18777   */\n      0x20\n        /* \"#utility.yul\":18764:18773   */\n      dup3\n        /* \"#utility.yul\":18760:18778   */\n      add\n        /* \"#utility.yul\":18752:18778   */\n      swap1\n      pop\n        /* \"#utility.yul\":18824:18833   */\n      dup2\n        /* \"#utility.yul\":18818:18822   */\n      dup2\n        /* \"#utility.yul\":18814:18834   */\n      sub\n        /* \"#utility.yul\":18810:18811   */\n      0x00\n        /* \"#utility.yul\":18799:18808   */\n      dup4\n        /* \"#utility.yul\":18795:18812   */\n      add\n        /* \"#utility.yul\":18788:18835   */\n      mstore\n        /* \"#utility.yul\":18852:18983   */\n      tag_698\n        /* \"#utility.yul\":18978:18982   */\n      dup2\n        /* \"#utility.yul\":18852:18983   */\n      tag_480\n      jump\t// in\n    tag_698:\n        /* \"#utility.yul\":18844:18983   */\n      swap1\n      pop\n        /* \"#utility.yul\":18571:18990   */\n      swap2\n      swap1\n      pop\n      jump\t// out\n        /* \"#utility.yul\":18996:19139   */\n    tag_481:\n        /* \"#utility.yul\":19053:19058   */\n      0x00\n        /* \"#utility.yul\":19084:19090   */\n      dup2\n        /* \"#utility.yul\":19078:19091   */\n      mload\n        /* \"#utility.yul\":19069:19091   */\n      swap1\n      pop\n        /* \"#utility.yul\":19100:19133   */\n      tag_700\n        /* \"#utility.yul\":19127:19132   */\n      dup2\n        /* \"#utility.yul\":19100:19133   */\n      tag_429\n      jump\t// in\n    tag_700:\n        /* \"#utility.yul\":18996:19139   */\n      swap3\n      swap2\n      pop\n      pop\n      jump\t// out\n        /* \"#utility.yul\":19145:19496   */\n    tag_203:\n        /* \"#utility.yul\":19215:19221   */\n      0x00\n        /* \"#utility.yul\":19264:19266   */\n      0x20\n        /* \"#utility.yul\":19252:19261   */\n      dup3\n        /* \"#utility.yul\":19243:19250   */\n      dup5\n        /* \"#utility.yul\":19239:19262   */\n      sub\n        /* \"#utility.yul\":19235:19267   */\n      slt\n        /* \"#utility.yul\":19232:19351   */\n      iszero\n      tag_702\n      jumpi\n        /* \"#utility.yul\":19270:19349   */\n      tag_703\n      tag_427\n      jump\t// in\n    tag_703:\n        /* \"#utility.yul\":19232:19351   */\n    tag_702:\n        /* \"#utility.yul\":19390:19391   */\n      0x00\n        /* \"#utility.yul\":19415:19479   */\n      tag_704\n        /* \"#utility.yul\":19471:19478   */\n      dup5\n        /* \"#utility.yul\":19462:19468   */\n      dup3\n        /* \"#utility.yul\":19451:19460   */\n      dup6\n        /* \"#utility.yul\":19447:19469   */\n      add\n        /* \"#utility.yul\":19415:19479   */\n      tag_481\n      jump\t// in\n    tag_704:\n        /* \"#utility.yul\":19405:19479   */\n      swap2\n      pop\n        /* \"#utility.yul\":19361:19489   */\n      pop\n        /* \"#utility.yul\":19145:19496   */\n      swap3\n      swap2\n      pop\n      pop\n      jump\t// out\n        /* \"#utility.yul\":19502:19682   */\n    tag_482:\n        /* \"#utility.yul\":19550:19627   */\n      0x4e487b7100000000000000000000000000000000000000000000000000000000\n        /* \"#utility.yul\":19547:19548   */\n      0x00\n        /* \"#utility.yul\":19540:19628   */\n      mstore\n        /* \"#utility.yul\":19647:19651   */\n      0x11\n        /* \"#utility.yul\":19644:19645   */\n      0x04\n        /* \"#utility.yul\":19637:19652   */\n      mstore\n        /* \"#utility.yul\":19671:19675   */\n      0x24\n        /* \"#utility.yul\":19668:19669   */\n      0x00\n        /* \"#utility.yul\":19661:19676   */\n      revert\n        /* \"#utility.yul\":19688:19921   */\n    tag_245:\n        /* \"#utility.yul\":19727:19730   */\n      0x00\n        /* \"#utility.yul\":19750:19774   */\n      tag_707\n        /* \"#utility.yul\":19768:19773   */\n      dup3\n        /* \"#utility.yul\":19750:19774   */\n      tag_424\n      jump\t// in\n    tag_707:\n        /* \"#utility.yul\":19741:19774   */\n      swap2\n      pop\n        /* \"#utility.yul\":19796:19862   */\n      0xffffffffffffffffffffffffffffffffffffffffffffffffffffffffffffffff\n        /* \"#utility.yul\":19789:19794   */\n      dup3\n        /* \"#utility.yul\":19786:19863   */\n      sub\n        /* \"#utility.yul\":19783:19886   */\n      tag_708\n      jumpi\n        /* \"#utility.yul\":19866:19884   */\n      tag_709\n      tag_482\n      jump\t// in\n    tag_709:\n        /* \"#utility.yul\":19783:19886   */\n    tag_708:\n        /* \"#utility.yul\":19913:19914   */\n      0x01\n        /* \"#utility.yul\":19906:19911   */\n      dup3\n        /* \"#utility.yul\":19902:19915   */\n      add\n        /* \"#utility.yul\":19895:19915   */\n      swap1\n      pop\n        /* \"#utility.yul\":19688:19921   */\n      swap2\n      swap1\n      pop\n      jump\t// out\n        /* \"#utility.yul\":19927:20106   */\n    tag_483:\n        /* \"#utility.yul\":20067:20098   */\n      0x596f7520617265206e6f74204f776e6572206f6620746f6b656e206964000000\n        /* \"#utility.yul\":20063:20064   */\n      0x00\n        /* \"#utility.yul\":20055:20061   */\n      dup3\n        /* \"#utility.yul\":20051:20065   */\n      add\n        /* \"#utility.yul\":20044:20099   */\n      mstore\n        /* \"#utility.yul\":19927:20106   */\n      pop\n      jump\t// out\n        /* \"#utility.yul\":20112:20478   */\n    tag_484:\n        /* \"#utility.yul\":20254:20257   */\n      0x00\n        /* \"#utility.yul\":20275:20342   */\n      tag_712\n        /* \"#utility.yul\":20339:20341   */\n      0x1d\n        /* \"#utility.yul\":20334:20337   */\n      dup4\n        /* \"#utility.yul\":20275:20342   */\n      tag_475\n      jump\t// in\n    tag_712:\n        /* \"#utility.yul\":20268:20342   */\n      swap2\n      pop\n        /* \"#utility.yul\":20351:20444   */\n      tag_713\n        /* \"#utility.yul\":20440:20443   */\n      dup3\n        /* \"#utility.yul\":20351:20444   */\n      tag_483\n      jump\t// in\n    tag_713:\n        /* \"#utility.yul\":20469:20471   */\n      0x20\n        /* \"#utility.yul\":20464:20467   */\n      dup3\n        /* \"#utility.yul\":20460:20472   */\n      add\n        /* \"#utility.yul\":20453:20472   */\n      swap1\n      pop\n        /* \"#utility.yul\":20112:20478   */\n      swap2\n      swap1\n      pop\n      jump\t// out\n        /* \"#utility.yul\":20484:20903   */\n    tag_248:\n        /* \"#utility.yul\":20650:20654   */\n      0x00\n        /* \"#utility.yul\":20688:20690   */\n      0x20\n        /* \"#utility.yul\":20677:20686   */\n      dup3\n        /* \"#utility.yul\":20673:20691   */\n      add\n        /* \"#utility.yul\":20665:20691   */\n      swap1\n      pop\n        /* \"#utility.yul\":20737:20746   */\n      dup2\n        /* \"#utility.yul\":20731:20735   */\n      dup2\n        /* \"#utility.yul\":20727:20747   */\n      sub\n        /* \"#utility.yul\":20723:20724   */\n      0x00\n        /* \"#utility.yul\":20712:20721   */\n      dup4\n        /* \"#utility.yul\":20708:20725   */\n      add\n        /* \"#utility.yul\":20701:20748   */\n      mstore\n        /* \"#utility.yul\":20765:20896   */\n      tag_715\n        /* \"#utility.yul\":20891:20895   */\n      dup2\n        /* \"#utility.yul\":20765:20896   */\n      tag_484\n      jump\t// in\n    tag_715:\n        /* \"#utility.yul\":20757:20896   */\n      swap1\n      pop\n        /* \"#utility.yul\":20484:20903   */\n      swap2\n      swap1\n      pop\n      jump\t// out\n        /* \"#utility.yul\":20909:21077   */\n    tag_485:\n        /* \"#utility.yul\":21049:21069   */\n      0x77697468647261773a206e6f7420676f6f640000000000000000000000000000\n        /* \"#utility.yul\":21045:21046   */\n      0x00\n        /* \"#utility.yul\":21037:21043   */\n      dup3\n        /* \"#utility.yul\":21033:21047   */\n      add\n        /* \"#utility.yul\":21026:21070   */\n      mstore\n        /* \"#utility.yul\":20909:21077   */\n      pop\n      jump\t// out\n        /* \"#utility.yul\":21083:21449   */\n    tag_486:\n        /* \"#utility.yul\":21225:21228   */\n      0x00\n        /* \"#utility.yul\":21246:21313   */\n      tag_718\n        /* \"#utility.yul\":21310:21312   */\n      0x12\n        /* \"#utility.yul\":21305:21308   */\n      dup4\n        /* \"#utility.yul\":21246:21313   */\n      tag_475\n      jump\t// in\n    tag_718:\n        /* \"#utility.yul\":21239:21313   */\n      swap2\n      pop\n        /* \"#utility.yul\":21322:21415   */\n      tag_719\n        /* \"#utility.yul\":21411:21414   */\n      dup3\n        /* \"#utility.yul\":21322:21415   */\n      tag_485\n      jump\t// in\n    tag_719:\n        /* \"#utility.yul\":21440:21442   */\n      0x20\n        /* \"#utility.yul\":21435:21438   */\n      dup3\n        /* \"#utility.yul\":21431:21443   */\n      add\n        /* \"#utility.yul\":21424:21443   */\n      swap1\n      pop\n        /* \"#utility.yul\":21083:21449   */\n      swap2\n      swap1\n      pop\n      jump\t// out\n        /* \"#utility.yul\":21455:21874   */\n    tag_251:\n        /* \"#utility.yul\":21621:21625   */\n      0x00\n        /* \"#utility.yul\":21659:21661   */\n      0x20\n        /* \"#utility.yul\":21648:21657   */\n      dup3\n        /* \"#utility.yul\":21644:21662   */\n      add\n        /* \"#utility.yul\":21636:21662   */\n      swap1\n      pop\n        /* \"#utility.yul\":21708:21717   */\n      dup2\n        /* \"#utility.yul\":21702:21706   */\n      dup2\n        /* \"#utility.yul\":21698:21718   */\n      sub\n        /* \"#utility.yul\":21694:21695   */\n      0x00\n        /* \"#utility.yul\":21683:21692   */\n      dup4\n        /* \"#utility.yul\":21679:21696   */\n      add\n        /* \"#utility.yul\":21672:21719   */\n      mstore\n        /* \"#utility.yul\":21736:21867   */\n      tag_721\n        /* \"#utility.yul\":21862:21866   */\n      dup2\n        /* \"#utility.yul\":21736:21867   */\n      tag_486\n      jump\t// in\n    tag_721:\n        /* \"#utility.yul\":21728:21867   */\n      swap1\n      pop\n        /* \"#utility.yul\":21455:21874   */\n      swap2\n      swap1\n      pop\n      jump\t// out\n        /* \"#utility.yul\":21880:22322   */\n    tag_265:\n        /* \"#utility.yul\":22029:22033   */\n      0x00\n        /* \"#utility.yul\":22067:22069   */\n      0x60\n        /* \"#utility.yul\":22056:22065   */\n      dup3\n        /* \"#utility.yul\":22052:22070   */\n      add\n        /* \"#utility.yul\":22044:22070   */\n      swap1\n      pop\n        /* \"#utility.yul\":22080:22151   */\n      tag_723\n        /* \"#utility.yul\":22148:22149   */\n      0x00\n        /* \"#utility.yul\":22137:22146   */\n      dup4\n        /* \"#utility.yul\":22133:22150   */\n      add\n        /* \"#utility.yul\":22124:22130   */\n      dup7\n        /* \"#utility.yul\":22080:22151   */\n      tag_463\n      jump\t// in\n    tag_723:\n        /* \"#utility.yul\":22161:22233   */\n      tag_724\n        /* \"#utility.yul\":22229:22231   */\n      0x20\n        /* \"#utility.yul\":22218:22227   */\n      dup4\n        /* \"#utility.yul\":22214:22232   */\n      add\n        /* \"#utility.yul\":22205:22211   */\n      dup6\n        /* \"#utility.yul\":22161:22233   */\n      tag_463\n      jump\t// in\n    tag_724:\n        /* \"#utility.yul\":22243:22315   */\n      tag_725\n        /* \"#utility.yul\":22311:22313   */\n      0x40\n        /* \"#utility.yul\":22300:22309   */\n      dup4\n        /* \"#utility.yul\":22296:22314   */\n      add\n        /* \"#utility.yul\":22287:22293   */\n      dup5\n        /* \"#utility.yul\":22243:22315   */\n      tag_425\n      jump\t// in\n    tag_725:\n        /* \"#utility.yul\":21880:22322   */\n      swap5\n      swap4\n      pop\n      pop\n      pop\n      pop\n      jump\t// out\n        /* \"#utility.yul\":22328:22553   */\n    tag_487:\n        /* \"#utility.yul\":22468:22502   */\n      0x4f776e61626c653a206e6577206f776e657220697320746865207a65726f2061\n        /* \"#utility.yul\":22464:22465   */\n      0x00\n        /* \"#utility.yul\":22456:22462   */\n      dup3\n        /* \"#utility.yul\":22452:22466   */\n      add\n        /* \"#utility.yul\":22445:22503   */\n      mstore\n        /* \"#utility.yul\":22537:22545   */\n      0x6464726573730000000000000000000000000000000000000000000000000000\n        /* \"#utility.yul\":22532:22534   */\n      0x20\n        /* \"#utility.yul\":22524:22530   */\n      dup3\n        /* \"#utility.yul\":22520:22535   */\n      add\n        /* \"#utility.yul\":22513:22546   */\n      mstore\n        /* \"#utility.yul\":22328:22553   */\n      pop\n      jump\t// out\n        /* \"#utility.yul\":22559:22925   */\n    tag_488:\n        /* \"#utility.yul\":22701:22704   */\n      0x00\n        /* \"#utility.yul\":22722:22789   */\n      tag_728\n        /* \"#utility.yul\":22786:22788   */\n      0x26\n        /* \"#utility.yul\":22781:22784   */\n      dup4\n        /* \"#utility.yul\":22722:22789   */\n      tag_475\n      jump\t// in\n    tag_728:\n        /* \"#utility.yul\":22715:22789   */\n      swap2\n      pop\n        /* \"#utility.yul\":22798:22891   */\n      tag_729\n        /* \"#utility.yul\":22887:22890   */\n      dup3\n        /* \"#utility.yul\":22798:22891   */\n      tag_487\n      jump\t// in\n    tag_729:\n        /* \"#utility.yul\":22916:22918   */\n      0x40\n        /* \"#utility.yul\":22911:22914   */\n      dup3\n        /* \"#utility.yul\":22907:22919   */\n      add\n        /* \"#utility.yul\":22900:22919   */\n      swap1\n      pop\n        /* \"#utility.yul\":22559:22925   */\n      swap2\n      swap1\n      pop\n      jump\t// out\n        /* \"#utility.yul\":22931:23350   */\n    tag_374:\n        /* \"#utility.yul\":23097:23101   */\n      0x00\n        /* \"#utility.yul\":23135:23137   */\n      0x20\n        /* \"#utility.yul\":23124:23133   */\n      dup3\n        /* \"#utility.yul\":23120:23138   */\n      add\n        /* \"#utility.yul\":23112:23138   */\n      swap1\n      pop\n        /* \"#utility.yul\":23184:23193   */\n      dup2\n        /* \"#utility.yul\":23178:23182   */\n      dup2\n        /* \"#utility.yul\":23174:23194   */\n      sub\n        /* \"#utility.yul\":23170:23171   */\n      0x00\n        /* \"#utility.yul\":23159:23168   */\n      dup4\n        /* \"#utility.yul\":23155:23172   */\n      add\n        /* \"#utility.yul\":23148:23195   */\n      mstore\n        /* \"#utility.yul\":23212:23343   */\n      tag_731\n        /* \"#utility.yul\":23338:23342   */\n      dup2\n        /* \"#utility.yul\":23212:23343   */\n      tag_488\n      jump\t// in\n    tag_731:\n        /* \"#utility.yul\":23204:23343   */\n      swap1\n      pop\n        /* \"#utility.yul\":22931:23350   */\n      swap2\n      swap1\n      pop\n      jump\t// out\n        /* \"#utility.yul\":23356:23704   */\n    tag_379:\n        /* \"#utility.yul\":23396:23403   */\n      0x00\n        /* \"#utility.yul\":23419:23439   */\n      tag_733\n        /* \"#utility.yul\":23437:23438   */\n      dup3\n        /* \"#utility.yul\":23419:23439   */\n      tag_424\n      jump\t// in\n    tag_733:\n        /* \"#utility.yul\":23414:23439   */\n      swap2\n      pop\n        /* \"#utility.yul\":23453:23473   */\n      tag_734\n        /* \"#utility.yul\":23471:23472   */\n      dup4\n        /* \"#utility.yul\":23453:23473   */\n      tag_424\n      jump\t// in\n    tag_734:\n        /* \"#utility.yul\":23448:23473   */\n      swap3\n      pop\n        /* \"#utility.yul\":23641:23642   */\n      dup2\n        /* \"#utility.yul\":23573:23639   */\n      0xffffffffffffffffffffffffffffffffffffffffffffffffffffffffffffffff\n        /* \"#utility.yul\":23569:23643   */\n      div\n        /* \"#utility.yul\":23566:23567   */\n      dup4\n        /* \"#utility.yul\":23563:23644   */\n      gt\n        /* \"#utility.yul\":23558:23559   */\n      dup3\n        /* \"#utility.yul\":23551:23560   */\n      iszero\n        /* \"#utility.yul\":23544:23561   */\n      iszero\n        /* \"#utility.yul\":23540:23645   */\n      and\n        /* \"#utility.yul\":23537:23668   */\n      iszero\n      tag_735\n      jumpi\n        /* \"#utility.yul\":23648:23666   */\n      tag_736\n      tag_482\n      jump\t// in\n    tag_736:\n        /* \"#utility.yul\":23537:23668   */\n    tag_735:\n        /* \"#utility.yul\":23696:23697   */\n      dup3\n        /* \"#utility.yul\":23693:23694   */\n      dup3\n        /* \"#utility.yul\":23689:23698   */\n      mul\n        /* \"#utility.yul\":23678:23698   */\n      swap1\n      pop\n        /* \"#utility.yul\":23356:23704   */\n      swap3\n      swap2\n      pop\n      pop\n      jump\t// out\n        /* \"#utility.yul\":23710:23890   */\n    tag_489:\n        /* \"#utility.yul\":23758:23835   */\n      0x4e487b7100000000000000000000000000000000000000000000000000000000\n        /* \"#utility.yul\":23755:23756   */\n      0x00\n        /* \"#utility.yul\":23748:23836   */\n      mstore\n        /* \"#utility.yul\":23855:23859   */\n      0x12\n        /* \"#utility.yul\":23852:23853   */\n      0x04\n        /* \"#utility.yul\":23845:23860   */\n      mstore\n        /* \"#utility.yul\":23879:23883   */\n      0x24\n        /* \"#utility.yul\":23876:23877   */\n      0x00\n        /* \"#utility.yul\":23869:23884   */\n      revert\n        /* \"#utility.yul\":23896:24081   */\n    tag_381:\n        /* \"#utility.yul\":23936:23937   */\n      0x00\n        /* \"#utility.yul\":23953:23973   */\n      tag_739\n        /* \"#utility.yul\":23971:23972   */\n      dup3\n        /* \"#utility.yul\":23953:23973   */\n      tag_424\n      jump\t// in\n    tag_739:\n        /* \"#utility.yul\":23948:23973   */\n      swap2\n      pop\n        /* \"#utility.yul\":23987:24007   */\n      tag_740\n        /* \"#utility.yul\":24005:24006   */\n      dup4\n        /* \"#utility.yul\":23987:24007   */\n      tag_424\n      jump\t// in\n    tag_740:\n        /* \"#utility.yul\":23982:24007   */\n      swap3\n      pop\n        /* \"#utility.yul\":24026:24027   */\n      dup3\n        /* \"#utility.yul\":24016:24051   */\n      tag_741\n      jumpi\n        /* \"#utility.yul\":24031:24049   */\n      tag_742\n      tag_489\n      jump\t// in\n    tag_742:\n        /* \"#utility.yul\":24016:24051   */\n    tag_741:\n        /* \"#utility.yul\":24073:24074   */\n      dup3\n        /* \"#utility.yul\":24070:24071   */\n      dup3\n        /* \"#utility.yul\":24066:24075   */\n      div\n        /* \"#utility.yul\":24061:24075   */\n      swap1\n      pop\n        /* \"#utility.yul\":23896:24081   */\n      swap3\n      swap2\n      pop\n      pop\n      jump\t// out\n        /* \"#utility.yul\":24087:24307   */\n    tag_490:\n        /* \"#utility.yul\":24227:24261   */\n      0x536166654d6174683a206d756c7469706c69636174696f6e206f766572666c6f\n        /* \"#utility.yul\":24223:24224   */\n      0x00\n        /* \"#utility.yul\":24215:24221   */\n      dup3\n        /* \"#utility.yul\":24211:24225   */\n      add\n        /* \"#utility.yul\":24204:24262   */\n      mstore\n        /* \"#utility.yul\":24296:24299   */\n      0x7700000000000000000000000000000000000000000000000000000000000000\n        /* \"#utility.yul\":24291:24293   */\n      0x20\n        /* \"#utility.yul\":24283:24289   */\n      dup3\n        /* \"#utility.yul\":24279:24294   */\n      add\n        /* \"#utility.yul\":24272:24300   */\n      mstore\n        /* \"#utility.yul\":24087:24307   */\n      pop\n      jump\t// out\n        /* \"#utility.yul\":24313:24679   */\n    tag_491:\n        /* \"#utility.yul\":24455:24458   */\n      0x00\n        /* \"#utility.yul\":24476:24543   */\n      tag_745\n        /* \"#utility.yul\":24540:24542   */\n      0x21\n        /* \"#utility.yul\":24535:24538   */\n      dup4\n        /* \"#utility.yul\":24476:24543   */\n      tag_475\n      jump\t// in\n    tag_745:\n        /* \"#utility.yul\":24469:24543   */\n      swap2\n      pop\n        /* \"#utility.yul\":24552:24645   */\n      tag_746\n        /* \"#utility.yul\":24641:24644   */\n      dup3\n        /* \"#utility.yul\":24552:24645   */\n      tag_490\n      jump\t// in\n    tag_746:\n        /* \"#utility.yul\":24670:24672   */\n      0x40\n        /* \"#utility.yul\":24665:24668   */\n      dup3\n        /* \"#utility.yul\":24661:24673   */\n      add\n        /* \"#utility.yul\":24654:24673   */\n      swap1\n      pop\n        /* \"#utility.yul\":24313:24679   */\n      swap2\n      swap1\n      pop\n      jump\t// out\n        /* \"#utility.yul\":24685:25104   */\n    tag_384:\n        /* \"#utility.yul\":24851:24855   */\n      0x00\n        /* \"#utility.yul\":24889:24891   */\n      0x20\n        /* \"#utility.yul\":24878:24887   */\n      dup3\n        /* \"#utility.yul\":24874:24892   */\n      add\n        /* \"#utility.yul\":24866:24892   */\n      swap1\n      pop\n        /* \"#utility.yul\":24938:24947   */\n      dup2\n        /* \"#utility.yul\":24932:24936   */\n      dup2\n        /* \"#utility.yul\":24928:24948   */\n      sub\n        /* \"#utility.yul\":24924:24925   */\n      0x00\n        /* \"#utility.yul\":24913:24922   */\n      dup4\n        /* \"#utility.yul\":24909:24926   */\n      add\n        /* \"#utility.yul\":24902:24949   */\n      mstore\n        /* \"#utility.yul\":24966:25097   */\n      tag_748\n        /* \"#utility.yul\":25092:25096   */\n      dup2\n        /* \"#utility.yul\":24966:25097   */\n      tag_491\n      jump\t// in\n    tag_748:\n        /* \"#utility.yul\":24958:25097   */\n      swap1\n      pop\n        /* \"#utility.yul\":24685:25104   */\n      swap2\n      swap1\n      pop\n      jump\t// out\n        /* \"#utility.yul\":25110:25415   */\n    tag_394:\n        /* \"#utility.yul\":25150:25153   */\n      0x00\n        /* \"#utility.yul\":25169:25189   */\n      tag_750\n        /* \"#utility.yul\":25187:25188   */\n      dup3\n        /* \"#utility.yul\":25169:25189   */\n      tag_424\n      jump\t// in\n    tag_750:\n        /* \"#utility.yul\":25164:25189   */\n      swap2\n      pop\n        /* \"#utility.yul\":25203:25223   */\n      tag_751\n        /* \"#utility.yul\":25221:25222   */\n      dup4\n        /* \"#utility.yul\":25203:25223   */\n      tag_424\n      jump\t// in\n    tag_751:\n        /* \"#utility.yul\":25198:25223   */\n      swap3\n      pop\n        /* \"#utility.yul\":25357:25358   */\n      dup3\n        /* \"#utility.yul\":25289:25355   */\n      0xffffffffffffffffffffffffffffffffffffffffffffffffffffffffffffffff\n        /* \"#utility.yul\":25285:25359   */\n      sub\n        /* \"#utility.yul\":25282:25283   */\n      dup3\n        /* \"#utility.yul\":25279:25360   */\n      gt\n        /* \"#utility.yul\":25276:25383   */\n      iszero\n      tag_752\n      jumpi\n        /* \"#utility.yul\":25363:25381   */\n      tag_753\n      tag_482\n      jump\t// in\n    tag_753:\n        /* \"#utility.yul\":25276:25383   */\n    tag_752:\n        /* \"#utility.yul\":25407:25408   */\n      dup3\n        /* \"#utility.yul\":25404:25405   */\n      dup3\n        /* \"#utility.yul\":25400:25409   */\n      add\n        /* \"#utility.yul\":25393:25409   */\n      swap1\n      pop\n        /* \"#utility.yul\":25110:25415   */\n      swap3\n      swap2\n      pop\n      pop\n      jump\t// out\n        /* \"#utility.yul\":25421:25598   */\n    tag_492:\n        /* \"#utility.yul\":25561:25590   */\n      0x536166654d6174683a206164646974696f6e206f766572666c6f770000000000\n        /* \"#utility.yul\":25557:25558   */\n      0x00\n        /* \"#utility.yul\":25549:25555   */\n      dup3\n        /* \"#utility.yul\":25545:25559   */\n      add\n        /* \"#utility.yul\":25538:25591   */\n      mstore\n        /* \"#utility.yul\":25421:25598   */\n      pop\n      jump\t// out\n        /* \"#utility.yul\":25604:25970   */\n    tag_493:\n        /* \"#utility.yul\":25746:25749   */\n      0x00\n        /* \"#utility.yul\":25767:25834   */\n      tag_756\n        /* \"#utility.yul\":25831:25833   */\n      0x1b\n        /* \"#utility.yul\":25826:25829   */\n      dup4\n        /* \"#utility.yul\":25767:25834   */\n      tag_475\n      jump\t// in\n    tag_756:\n        /* \"#utility.yul\":25760:25834   */\n      swap2\n      pop\n        /* \"#utility.yul\":25843:25936   */\n      tag_757\n        /* \"#utility.yul\":25932:25935   */\n      dup3\n        /* \"#utility.yul\":25843:25936   */\n      tag_492\n      jump\t// in\n    tag_757:\n        /* \"#utility.yul\":25961:25963   */\n      0x20\n        /* \"#utility.yul\":25956:25959   */\n      dup3\n        /* \"#utility.yul\":25952:25964   */\n      add\n        /* \"#utility.yul\":25945:25964   */\n      swap1\n      pop\n        /* \"#utility.yul\":25604:25970   */\n      swap2\n      swap1\n      pop\n      jump\t// out\n        /* \"#utility.yul\":25976:26395   */\n    tag_397:\n        /* \"#utility.yul\":26142:26146   */\n      0x00\n        /* \"#utility.yul\":26180:26182   */\n      0x20\n        /* \"#utility.yul\":26169:26178   */\n      dup3\n        /* \"#utility.yul\":26165:26183   */\n      add\n        /* \"#utility.yul\":26157:26183   */\n      swap1\n      pop\n        /* \"#utility.yul\":26229:26238   */\n      dup2\n        /* \"#utility.yul\":26223:26227   */\n      dup2\n        /* \"#utility.yul\":26219:26239   */\n      sub\n        /* \"#utility.yul\":26215:26216   */\n      0x00\n        /* \"#utility.yul\":26204:26213   */\n      dup4\n        /* \"#utility.yul\":26200:26217   */\n      add\n        /* \"#utility.yul\":26193:26240   */\n      mstore\n        /* \"#utility.yul\":26257:26388   */\n      tag_759\n        /* \"#utility.yul\":26383:26387   */\n      dup2\n        /* \"#utility.yul\":26257:26388   */\n      tag_493\n      jump\t// in\n    tag_759:\n        /* \"#utility.yul\":26249:26388   */\n      swap1\n      pop\n        /* \"#utility.yul\":25976:26395   */\n      swap2\n      swap1\n      pop\n      jump\t// out\n        /* \"#utility.yul\":26401:26500   */\n    tag_494:\n        /* \"#utility.yul\":26453:26459   */\n      0x00\n        /* \"#utility.yul\":26487:26492   */\n      dup2\n        /* \"#utility.yul\":26481:26493   */\n      mload\n        /* \"#utility.yul\":26471:26493   */\n      swap1\n      pop\n        /* \"#utility.yul\":26401:26500   */\n      swap2\n      swap1\n      pop\n      jump\t// out\n        /* \"#utility.yul\":26506:26813   */\n    tag_495:\n        /* \"#utility.yul\":26574:26575   */\n      0x00\n        /* \"#utility.yul\":26584:26697   */\n    tag_762:\n        /* \"#utility.yul\":26598:26604   */\n      dup4\n        /* \"#utility.yul\":26595:26596   */\n      dup2\n        /* \"#utility.yul\":26592:26605   */\n      lt\n        /* \"#utility.yul\":26584:26697   */\n      iszero\n      tag_764\n      jumpi\n        /* \"#utility.yul\":26683:26684   */\n      dup1\n        /* \"#utility.yul\":26678:26681   */\n      dup3\n        /* \"#utility.yul\":26674:26685   */\n      add\n        /* \"#utility.yul\":26668:26686   */\n      mload\n        /* \"#utility.yul\":26664:26665   */\n      dup2\n        /* \"#utility.yul\":26659:26662   */\n      dup5\n        /* \"#utility.yul\":26655:26666   */\n      add\n        /* \"#utility.yul\":26648:26687   */\n      mstore\n        /* \"#utility.yul\":26620:26622   */\n      0x20\n        /* \"#utility.yul\":26617:26618   */\n      dup2\n        /* \"#utility.yul\":26613:26623   */\n      add\n        /* \"#utility.yul\":26608:26623   */\n      swap1\n      pop\n        /* \"#utility.yul\":26584:26697   */\n      jump(tag_762)\n    tag_764:\n        /* \"#utility.yul\":26715:26721   */\n      dup4\n        /* \"#utility.yul\":26712:26713   */\n      dup2\n        /* \"#utility.yul\":26709:26722   */\n      gt\n        /* \"#utility.yul\":26706:26807   */\n      iszero\n      tag_765\n      jumpi\n        /* \"#utility.yul\":26795:26796   */\n      0x00\n        /* \"#utility.yul\":26786:26792   */\n      dup5\n        /* \"#utility.yul\":26781:26784   */\n      dup5\n        /* \"#utility.yul\":26777:26793   */\n      add\n        /* \"#utility.yul\":26770:26797   */\n      mstore\n        /* \"#utility.yul\":26706:26807   */\n    tag_765:\n        /* \"#utility.yul\":26555:26813   */\n      pop\n        /* \"#utility.yul\":26506:26813   */\n      pop\n      pop\n      pop\n      jump\t// out\n        /* \"#utility.yul\":26819:27183   */\n    tag_496:\n        /* \"#utility.yul\":26907:26910   */\n      0x00\n        /* \"#utility.yul\":26935:26974   */\n      tag_767\n        /* \"#utility.yul\":26968:26973   */\n      dup3\n        /* \"#utility.yul\":26935:26974   */\n      tag_494\n      jump\t// in\n    tag_767:\n        /* \"#utility.yul\":26990:27061   */\n      tag_768\n        /* \"#utility.yul\":27054:27060   */\n      dup2\n        /* \"#utility.yul\":27049:27052   */\n      dup6\n        /* \"#utility.yul\":26990:27061   */\n      tag_475\n      jump\t// in\n    tag_768:\n        /* \"#utility.yul\":26983:27061   */\n      swap4\n      pop\n        /* \"#utility.yul\":27070:27122   */\n      tag_769\n        /* \"#utility.yul\":27115:27121   */\n      dup2\n        /* \"#utility.yul\":27110:27113   */\n      dup6\n        /* \"#utility.yul\":27103:27107   */\n      0x20\n        /* \"#utility.yul\":27096:27101   */\n      dup7\n        /* \"#utility.yul\":27092:27108   */\n      add\n        /* \"#utility.yul\":27070:27122   */\n      tag_495\n      jump\t// in\n    tag_769:\n        /* \"#utility.yul\":27147:27176   */\n      tag_770\n        /* \"#utility.yul\":27169:27175   */\n      dup2\n        /* \"#utility.yul\":27147:27176   */\n      tag_437\n      jump\t// in\n    tag_770:\n        /* \"#utility.yul\":27142:27145   */\n      dup5\n        /* \"#utility.yul\":27138:27177   */\n      add\n        /* \"#utility.yul\":27131:27177   */\n      swap2\n      pop\n        /* \"#utility.yul\":26911:27183   */\n      pop\n        /* \"#utility.yul\":26819:27183   */\n      swap3\n      swap2\n      pop\n      pop\n      jump\t// out\n        /* \"#utility.yul\":27189:27502   */\n    tag_417:\n        /* \"#utility.yul\":27302:27306   */\n      0x00\n        /* \"#utility.yul\":27340:27342   */\n      0x20\n        /* \"#utility.yul\":27329:27338   */\n      dup3\n        /* \"#utility.yul\":27325:27343   */\n      add\n        /* \"#utility.yul\":27317:27343   */\n      swap1\n      pop\n        /* \"#utility.yul\":27389:27398   */\n      dup2\n        /* \"#utility.yul\":27383:27387   */\n      dup2\n        /* \"#utility.yul\":27379:27399   */\n      sub\n        /* \"#utility.yul\":27375:27376   */\n      0x00\n        /* \"#utility.yul\":27364:27373   */\n      dup4\n        /* \"#utility.yul\":27360:27377   */\n      add\n        /* \"#utility.yul\":27353:27400   */\n      mstore\n        /* \"#utility.yul\":27417:27495   */\n      tag_772\n        /* \"#utility.yul\":27490:27494   */\n      dup2\n        /* \"#utility.yul\":27481:27487   */\n      dup5\n        /* \"#utility.yul\":27417:27495   */\n      tag_496\n      jump\t// in\n    tag_772:\n        /* \"#utility.yul\":27409:27495   */\n      swap1\n      pop\n        /* \"#utility.yul\":27189:27502   */\n      swap3\n      swap2\n      pop\n      pop\n      jump\t// out\n        /* \"#utility.yul\":27508:27699   */\n    tag_423:\n        /* \"#utility.yul\":27548:27552   */\n      0x00\n        /* \"#utility.yul\":27568:27588   */\n      tag_774\n        /* \"#utility.yul\":27586:27587   */\n      dup3\n        /* \"#utility.yul\":27568:27588   */\n      tag_424\n      jump\t// in\n    tag_774:\n        /* \"#utility.yul\":27563:27588   */\n      swap2\n      pop\n        /* \"#utility.yul\":27602:27622   */\n      tag_775\n        /* \"#utility.yul\":27620:27621   */\n      dup4\n        /* \"#utility.yul\":27602:27622   */\n      tag_424\n      jump\t// in\n    tag_775:\n        /* \"#utility.yul\":27597:27622   */\n      swap3\n      pop\n        /* \"#utility.yul\":27641:27642   */\n      dup3\n        /* \"#utility.yul\":27638:27639   */\n      dup3\n        /* \"#utility.yul\":27635:27643   */\n      lt\n        /* \"#utility.yul\":27632:27666   */\n      iszero\n      tag_776\n      jumpi\n        /* \"#utility.yul\":27646:27664   */\n      tag_777\n      tag_482\n      jump\t// in\n    tag_777:\n        /* \"#utility.yul\":27632:27666   */\n    tag_776:\n        /* \"#utility.yul\":27691:27692   */\n      dup3\n        /* \"#utility.yul\":27688:27689   */\n      dup3\n        /* \"#utility.yul\":27684:27693   */\n      sub\n        /* \"#utility.yul\":27676:27693   */\n      swap1\n      pop\n        /* \"#utility.yul\":27508:27699   */\n      swap3\n      swap2\n      pop\n      pop\n      jump\t// out\n\n    auxdata: 0xa2646970667358221220065401f608dd177bdc09ce884f4616e27d8b8922b18df9f1fcc7cdba1205120664736f6c634300080f0033\n}\n",
				"bytecode": {
					"linkReferences": {},
					"object": "6080604052600160055560006009553480156200001b57600080fd5b50604051620033fc380380620033fc833981810160405281019062000041919062000338565b62000061620000556200013d60201b60201c565b6200014560201b60201c565b84600260006101000a81548173ffffffffffffffffffffffffffffffffffffffff021916908373ffffffffffffffffffffffffffffffffffffffff16021790555083600160006101000a81548173ffffffffffffffffffffffffffffffffffffffff021916908373ffffffffffffffffffffffffffffffffffffffff16021790555082600360006101000a81548173ffffffffffffffffffffffffffffffffffffffff021916908373ffffffffffffffffffffffffffffffffffffffff1602179055508160048190555080600a819055505050505050620003c0565b600033905090565b60008060009054906101000a900473ffffffffffffffffffffffffffffffffffffffff169050816000806101000a81548173ffffffffffffffffffffffffffffffffffffffff021916908373ffffffffffffffffffffffffffffffffffffffff1602179055508173ffffffffffffffffffffffffffffffffffffffff168173ffffffffffffffffffffffffffffffffffffffff167f8be0079c531659141344cd1fd0a4f28419497f9722a3daafe3b4186f6b6457e060405160405180910390a35050565b600080fd5b600073ffffffffffffffffffffffffffffffffffffffff82169050919050565b60006200023b826200020e565b9050919050565b60006200024f826200022e565b9050919050565b620002618162000242565b81146200026d57600080fd5b50565b600081519050620002818162000256565b92915050565b600062000294826200022e565b9050919050565b620002a68162000287565b8114620002b257600080fd5b50565b600081519050620002c6816200029b565b92915050565b620002d7816200022e565b8114620002e357600080fd5b50565b600081519050620002f781620002cc565b92915050565b6000819050919050565b6200031281620002fd565b81146200031e57600080fd5b50565b600081519050620003328162000307565b92915050565b600080600080600060a0868803121562000357576200035662000209565b5b6000620003678882890162000270565b95505060206200037a88828901620002b5565b94505060406200038d88828901620002e6565b9350506060620003a08882890162000321565b9250506080620003b38882890162000321565b9150509295509295909350565b61302c80620003d06000396000f3fe608060405234801561001057600080fd5b50600436106101cf5760003560e01c806364482f7911610104578063cb3cba55116100a2578063e2bbb15811610071578063e2bbb158146104f8578063e4d0989614610514578063f2fde38b14610532578063f395db2c1461054e576101cf565b8063cb3cba5514610470578063d0d41fe11461048e578063d49e77cd146104aa578063d5545992146104c8576101cf565b80638aa28550116100de5780638aa28550146103d35780638da5cb5b146103f15780638dbb1e3a1461040f57806393f1a40b1461043f576101cf565b806364482f791461038f578063715018a6146103ab5780637cd07e47146103b5576101cf565b806323cf31181161017157806351eb05a61161014b57806351eb05a6146103315780635ffe61461461034d578063612eee4314610369578063630b5ba114610385576101cf565b806323cf3118146102db578063441a3e70146102f757806348cd4cb114610313576101cf565b80631526fe27116101ad5780631526fe271461023e57806317caf6f1146102715780631eaaa0451461028f5780632080baab146102ab576101cf565b8063081e3eda146101d45780631395d8c9146101f2578063150b7a021461020e575b600080fd5b6101dc61056c565b6040516101e99190612151565b60405180910390f35b61020c600480360381019061020791906121ac565b610579565b005b6102286004803603810190610223919061237d565b61086c565b604051610235919061243b565b60405180910390f35b610258600480360381019061025391906121ac565b610880565b60405161026894939291906124b5565b60405180910390f35b6102796108e0565b6040516102869190612151565b60405180910390f35b6102a960048036038101906102a49190612570565b6108e6565b005b6102c560048036038101906102c091906125c3565b610a73565b6040516102d29190612151565b60405180910390f35b6102f560048036038101906102f09190612641565b610c98565b005b610311600480360381019061030c919061266e565b610d58565b005b61031b611134565b6040516103289190612151565b60405180910390f35b61034b600480360381019061034691906121ac565b61113a565b005b610367600480360381019061036291906121ac565b61137a565b005b610383600480360381019061037e91906121ac565b611400565b005b61038d611486565b005b6103a960048036038101906103a491906126ae565b6114b9565b005b6103b36115c5565b005b6103bd61164d565b6040516103ca9190612722565b60405180910390f35b6103db611673565b6040516103e89190612151565b60405180910390f35b6103f9611679565b604051610406919061274c565b60405180910390f35b6104296004803603810190610424919061266e565b6116a2565b6040516104369190612151565b60405180910390f35b610459600480360381019061045491906125c3565b6116d3565b604051610467929190612767565b60405180910390f35b610478611704565b60405161048591906127b1565b60405180910390f35b6104a860048036038101906104a391906127cc565b61172a565b005b6104b26117ea565b6040516104bf919061274c565b60405180910390f35b6104e260048036038101906104dd91906125c3565b611810565b6040516104ef91906128b7565b60405180910390f35b610512600480360381019061050d919061266e565b6118c2565b005b61051c611b21565b60405161052991906128fa565b60405180910390f35b61054c600480360381019061054791906127cc565b611b47565b005b610556611c3e565b6040516105639190612151565b60405180910390f35b6000600780549050905090565b60006007828154811061058f5761058e612915565b5b9060005260206000209060040201905060006008600084815260200190815260200160002060003373ffffffffffffffffffffffffffffffffffffffff1673ffffffffffffffffffffffffffffffffffffffff16815260200190815260200160002090506105fc8361113a565b6000610646826002015461063864e8d4a5100061062a87600301548760010154611c4490919063ffffffff16565b611cbe90919063ffffffff16565b611d0890919063ffffffff16565b90506000811161068b576040517f08c379a0000000000000000000000000000000000000000000000000000000008152600401610682906129a1565b60405180910390fd5b600260009054906101000a900473ffffffffffffffffffffffffffffffffffffffff1673ffffffffffffffffffffffffffffffffffffffff1663095ea7b3600160009054906101000a900473ffffffffffffffffffffffffffffffffffffffff16836040518363ffffffff1660e01b815260040161070a9291906129c1565b6020604051808303816000875af1158015610729573d6000803e3d6000fd5b505050506040513d601f19601f8201168201806040525081019061074d91906129ff565b50600160009054906101000a900473ffffffffffffffffffffffffffffffffffffffff1673ffffffffffffffffffffffffffffffffffffffff1663849df12c82336040518363ffffffff1660e01b81526004016107ab929190612a2c565b600060405180830381600087803b1580156107c557600080fd5b505af11580156107d9573d6000803e3d6000fd5b5050505061080f64e8d4a5100061080185600301548560010154611c4490919063ffffffff16565b611cbe90919063ffffffff16565b8260020181905550833373ffffffffffffffffffffffffffffffffffffffff167ff279e6a1f5e320cca91135676d9cb6e44ca8a08c0b88342bcdb1144f6511b5688360405161085e9190612151565b60405180910390a350505050565b600063150b7a0260e01b9050949350505050565b6007818154811061089057600080fd5b90600052602060002090600402016000915090508060000160009054906101000a900473ffffffffffffffffffffffffffffffffffffffff16908060010154908060020154908060030154905084565b60095481565b6108ee611d52565b73ffffffffffffffffffffffffffffffffffffffff1661090c611679565b73ffffffffffffffffffffffffffffffffffffffff1614610962576040517f08c379a000000000000000000000000000000000000000000000000000000000815260040161095990612aa1565b60405180910390fd5b801561097157610970611486565b5b6000600a54431161098457600a54610986565b435b905061099d84600954611d5a90919063ffffffff16565b600981905550600760405180608001604052808573ffffffffffffffffffffffffffffffffffffffff1681526020018681526020018381526020016000815250908060018154018082558091505060019003906000526020600020906004020160009091909190915060008201518160000160006101000a81548173ffffffffffffffffffffffffffffffffffffffff021916908373ffffffffffffffffffffffffffffffffffffffff160217905550602082015181600101556040820151816002015560608201518160030155505050505050565b60008060078481548110610a8a57610a89612915565b5b9060005260206000209060040201905060006008600086815260200190815260200160002060008573ffffffffffffffffffffffffffffffffffffffff1673ffffffffffffffffffffffffffffffffffffffff168152602001908152602001600020905060008260030154905060008360000160009054906101000a900473ffffffffffffffffffffffffffffffffffffffff1673ffffffffffffffffffffffffffffffffffffffff166370a08231306040518263ffffffff1660e01b8152600401610b56919061274c565b602060405180830381865afa158015610b73573d6000803e3d6000fd5b505050506040513d601f19601f82011682018060405250810190610b979190612ad6565b9050836002015443118015610bad575060008114155b15610c48576000610bc28560020154436116a2565b90506000610c05600954610bf78860010154610be960045487611c4490919063ffffffff16565b611c4490919063ffffffff16565b611cbe90919063ffffffff16565b9050610c43610c3484610c2664e8d4a5100085611c4490919063ffffffff16565b611cbe90919063ffffffff16565b85611d5a90919063ffffffff16565b935050505b610c8c8360020154610c7e64e8d4a51000610c70868860010154611c4490919063ffffffff16565b611cbe90919063ffffffff16565b611d0890919063ffffffff16565b94505050505092915050565b610ca0611d52565b73ffffffffffffffffffffffffffffffffffffffff16610cbe611679565b73ffffffffffffffffffffffffffffffffffffffff1614610d14576040517f08c379a0000000000000000000000000000000000000000000000000000000008152600401610d0b90612aa1565b60405180910390fd5b80600660006101000a81548173ffffffffffffffffffffffffffffffffffffffff021916908373ffffffffffffffffffffffffffffffffffffffff16021790555050565b600060078381548110610d6e57610d6d612915565b5b9060005260206000209060040201905060006008600085815260200190815260200160002060003373ffffffffffffffffffffffffffffffffffffffff1673ffffffffffffffffffffffffffffffffffffffff16815260200190815260200160002090506000808403610e8157610de48561113a565b610e2c8260020154610e1e64e8d4a51000610e1087600301548760010154611c4490919063ffffffff16565b611cbe90919063ffffffff16565b611d0890919063ffffffff16565b90506000811115610e4257610e413382611db8565b5b610e7464e8d4a51000610e6685600301548560010154611c4490919063ffffffff16565b611cbe90919063ffffffff16565b82600201819055506110de565b600080805b8460000180549050811015610ed75786856000018281548110610eac57610eab612915565b5b906000526020600020015403610ec457600192508091505b8080610ecf90612b32565b915050610e86565b5060018214610f1b576040517f08c379a0000000000000000000000000000000000000000000000000000000008152600401610f1290612bc6565b60405180910390fd5b600184600101541015610f63576040517f08c379a0000000000000000000000000000000000000000000000000000000008152600401610f5a90612c32565b60405180910390fd5b610f6c8761113a565b610fb48460020154610fa664e8d4a51000610f9889600301548960010154611c4490919063ffffffff16565b611cbe90919063ffffffff16565b611d0890919063ffffffff16565b92506000831115610fca57610fc93384611db8565b5b610fe260018560010154611d0890919063ffffffff16565b846001018190555061101c64e8d4a5100061100e87600301548760010154611c4490919063ffffffff16565b611cbe90919063ffffffff16565b846002018190555083600001818154811061103a57611039612915565b5b90600052602060002001600090558460000160009054906101000a900473ffffffffffffffffffffffffffffffffffffffff1673ffffffffffffffffffffffffffffffffffffffff166342842e0e3033896040518463ffffffff1660e01b81526004016110a993929190612c52565b600060405180830381600087803b1580156110c357600080fd5b505af11580156110d7573d6000803e3d6000fd5b5050505050505b843373ffffffffffffffffffffffffffffffffffffffff167ff279e6a1f5e320cca91135676d9cb6e44ca8a08c0b88342bcdb1144f6511b568866040516111259190612151565b60405180910390a35050505050565b600a5481565b6000600782815481106111505761114f612915565b5b90600052602060002090600402019050806002015443116111715750611377565b60008160000160009054906101000a900473ffffffffffffffffffffffffffffffffffffffff1673ffffffffffffffffffffffffffffffffffffffff166370a08231306040518263ffffffff1660e01b81526004016111d0919061274c565b602060405180830381865afa1580156111ed573d6000803e3d6000fd5b505050506040513d601f19601f820116820180604052508101906112119190612ad6565b90506000811161122b574382600201819055505050611377565b600061123b8360020154436116a2565b9050600061127e600954611270866001015461126260045487611c4490919063ffffffff16565b611c4490919063ffffffff16565b611cbe90919063ffffffff16565b9050600260009054906101000a900473ffffffffffffffffffffffffffffffffffffffff1673ffffffffffffffffffffffffffffffffffffffff166340c10f1930836040518363ffffffff1660e01b81526004016112dd9291906129c1565b6020604051808303816000875af11580156112fc573d6000803e3d6000fd5b505050506040513d601f19601f8201168201806040525081019061132091906129ff565b5061136161134e8461134064e8d4a5100085611c4490919063ffffffff16565b611cbe90919063ffffffff16565b8560030154611d5a90919063ffffffff16565b8460030181905550438460020181905550505050505b50565b611382611d52565b73ffffffffffffffffffffffffffffffffffffffff166113a0611679565b73ffffffffffffffffffffffffffffffffffffffff16146113f6576040517f08c379a00000000000000000000000000000000000000000000000000000000081526004016113ed90612aa1565b60405180910390fd5b8060058190555050565b611408611d52565b73ffffffffffffffffffffffffffffffffffffffff16611426611679565b73ffffffffffffffffffffffffffffffffffffffff161461147c576040517f08c379a000000000000000000000000000000000000000000000000000000000815260040161147390612aa1565b60405180910390fd5b8060048190555050565b6000600780549050905060005b818110156114b5576114a48161113a565b806114ae90612b32565b9050611493565b5050565b6114c1611d52565b73ffffffffffffffffffffffffffffffffffffffff166114df611679565b73ffffffffffffffffffffffffffffffffffffffff1614611535576040517f08c379a000000000000000000000000000000000000000000000000000000000815260040161152c90612aa1565b60405180910390fd5b801561154457611543611486565b5b611590826115826007868154811061155f5761155e612915565b5b906000526020600020906004020160010154600954611d0890919063ffffffff16565b611d5a90919063ffffffff16565b60098190555081600784815481106115ab576115aa612915565b5b906000526020600020906004020160010181905550505050565b6115cd611d52565b73ffffffffffffffffffffffffffffffffffffffff166115eb611679565b73ffffffffffffffffffffffffffffffffffffffff1614611641576040517f08c379a000000000000000000000000000000000000000000000000000000000815260040161163890612aa1565b60405180910390fd5b61164b6000611fad565b565b600660009054906101000a900473ffffffffffffffffffffffffffffffffffffffff1681565b60055481565b60008060009054906101000a900473ffffffffffffffffffffffffffffffffffffffff16905090565b60006116cb6005546116bd8585611d0890919063ffffffff16565b611c4490919063ffffffff16565b905092915050565b6008602052816000526040600020602052806000526040600020600091509150508060010154908060020154905082565b600260009054906101000a900473ffffffffffffffffffffffffffffffffffffffff1681565b611732611d52565b73ffffffffffffffffffffffffffffffffffffffff16611750611679565b73ffffffffffffffffffffffffffffffffffffffff16146117a6576040517f08c379a000000000000000000000000000000000000000000000000000000000815260040161179d90612aa1565b60405180910390fd5b80600360006101000a81548173ffffffffffffffffffffffffffffffffffffffff021916908373ffffffffffffffffffffffffffffffffffffffff16021790555050565b600360009054906101000a900473ffffffffffffffffffffffffffffffffffffffff1681565b606060006008600085815260200190815260200160002060008473ffffffffffffffffffffffffffffffffffffffff1673ffffffffffffffffffffffffffffffffffffffff1681526020019081526020016000209050806000018054806020026020016040519081016040528092919081815260200182805480156118b457602002820191906000526020600020905b8154815260200190600101908083116118a0575b505050505091505092915050565b6000600783815481106118d8576118d7612915565b5b9060005260206000209060040201905060006008600085815260200190815260200160002060003373ffffffffffffffffffffffffffffffffffffffff1673ffffffffffffffffffffffffffffffffffffffff16815260200190815260200160002090506119458461113a565b6000816001015411156119b457600061199c826002015461198e64e8d4a5100061198087600301548760010154611c4490919063ffffffff16565b611cbe90919063ffffffff16565b611d0890919063ffffffff16565b905060008111156119b2576119b13382611db8565b5b505b8160000160009054906101000a900473ffffffffffffffffffffffffffffffffffffffff1673ffffffffffffffffffffffffffffffffffffffff166342842e0e3330866040518463ffffffff1660e01b8152600401611a1593929190612c52565b600060405180830381600087803b158015611a2f57600080fd5b505af1158015611a43573d6000803e3d6000fd5b50505050611a5f60018260010154611d5a90919063ffffffff16565b8160010181905550611a9964e8d4a51000611a8b84600301548460010154611c4490919063ffffffff16565b611cbe90919063ffffffff16565b816002018190555080600001839080600181540180825580915050600190039060005260206000200160009091909190915055833373ffffffffffffffffffffffffffffffffffffffff167f90890809c654f11d6e72a28fa60149770a0d11ec6c92319d6ceb2bb0a4ea1a1585604051611b139190612151565b60405180910390a350505050565b600160009054906101000a900473ffffffffffffffffffffffffffffffffffffffff1681565b611b4f611d52565b73ffffffffffffffffffffffffffffffffffffffff16611b6d611679565b73ffffffffffffffffffffffffffffffffffffffff1614611bc3576040517f08c379a0000000000000000000000000000000000000000000000000000000008152600401611bba90612aa1565b60405180910390fd5b600073ffffffffffffffffffffffffffffffffffffffff168173ffffffffffffffffffffffffffffffffffffffff1603611c32576040517f08c379a0000000000000000000000000000000000000000000000000000000008152600401611c2990612cfb565b60405180910390fd5b611c3b81611fad565b50565b60045481565b6000808303611c565760009050611cb8565b60008284611c649190612d1b565b9050828482611c739190612da4565b14611cb3576040517f08c379a0000000000000000000000000000000000000000000000000000000008152600401611caa90612e47565b60405180910390fd5b809150505b92915050565b6000611d0083836040518060400160405280601a81526020017f536166654d6174683a206469766973696f6e206279207a65726f000000000000815250612071565b905092915050565b6000611d4a83836040518060400160405280601e81526020017f536166654d6174683a207375627472616374696f6e206f766572666c6f7700008152506120d4565b905092915050565b600033905090565b6000808284611d699190612e67565b905083811015611dae576040517f08c379a0000000000000000000000000000000000000000000000000000000008152600401611da590612f09565b60405180910390fd5b8091505092915050565b6000600260009054906101000a900473ffffffffffffffffffffffffffffffffffffffff1673ffffffffffffffffffffffffffffffffffffffff166370a08231306040518263ffffffff1660e01b8152600401611e15919061274c565b602060405180830381865afa158015611e32573d6000803e3d6000fd5b505050506040513d601f19601f82011682018060405250810190611e569190612ad6565b905080821115611f0657600260009054906101000a900473ffffffffffffffffffffffffffffffffffffffff1673ffffffffffffffffffffffffffffffffffffffff1663a9059cbb84836040518363ffffffff1660e01b8152600401611ebd9291906129c1565b6020604051808303816000875af1158015611edc573d6000803e3d6000fd5b505050506040513d601f19601f82011682018060405250810190611f0091906129ff565b50611fa8565b600260009054906101000a900473ffffffffffffffffffffffffffffffffffffffff1673ffffffffffffffffffffffffffffffffffffffff1663a9059cbb84846040518363ffffffff1660e01b8152600401611f639291906129c1565b6020604051808303816000875af1158015611f82573d6000803e3d6000fd5b505050506040513d601f19601f82011682018060405250810190611fa691906129ff565b505b505050565b60008060009054906101000a900473ffffffffffffffffffffffffffffffffffffffff169050816000806101000a81548173ffffffffffffffffffffffffffffffffffffffff021916908373ffffffffffffffffffffffffffffffffffffffff1602179055508173ffffffffffffffffffffffffffffffffffffffff168173ffffffffffffffffffffffffffffffffffffffff167f8be0079c531659141344cd1fd0a4f28419497f9722a3daafe3b4186f6b6457e060405160405180910390a35050565b600080831182906120b8576040517f08c379a00000000000000000000000000000000000000000000000000000000081526004016120af9190612fa0565b60405180910390fd5b50600083856120c79190612da4565b9050809150509392505050565b600083831115829061211c576040517f08c379a00000000000000000000000000000000000000000000000000000000081526004016121139190612fa0565b60405180910390fd5b506000838561212b9190612fc2565b9050809150509392505050565b6000819050919050565b61214b81612138565b82525050565b60006020820190506121666000830184612142565b92915050565b6000604051905090565b600080fd5b600080fd5b61218981612138565b811461219457600080fd5b50565b6000813590506121a681612180565b92915050565b6000602082840312156121c2576121c1612176565b5b60006121d084828501612197565b91505092915050565b600073ffffffffffffffffffffffffffffffffffffffff82169050919050565b6000612204826121d9565b9050919050565b612214816121f9565b811461221f57600080fd5b50565b6000813590506122318161220b565b92915050565b600080fd5b600080fd5b6000601f19601f8301169050919050565b7f4e487b7100000000000000000000000000000000000000000000000000000000600052604160045260246000fd5b61228a82612241565b810181811067ffffffffffffffff821117156122a9576122a8612252565b5b80604052505050565b60006122bc61216c565b90506122c88282612281565b919050565b600067ffffffffffffffff8211156122e8576122e7612252565b5b6122f182612241565b9050602081019050919050565b82818337600083830152505050565b600061232061231b846122cd565b6122b2565b90508281526020810184848401111561233c5761233b61223c565b5b6123478482856122fe565b509392505050565b600082601f83011261236457612363612237565b5b813561237484826020860161230d565b91505092915050565b6000806000806080858703121561239757612396612176565b5b60006123a587828801612222565b94505060206123b687828801612222565b93505060406123c787828801612197565b925050606085013567ffffffffffffffff8111156123e8576123e761217b565b5b6123f48782880161234f565b91505092959194509250565b60007fffffffff0000000000000000000000000000000000000000000000000000000082169050919050565b61243581612400565b82525050565b6000602082019050612450600083018461242c565b92915050565b6000819050919050565b600061247b612476612471846121d9565b612456565b6121d9565b9050919050565b600061248d82612460565b9050919050565b600061249f82612482565b9050919050565b6124af81612494565b82525050565b60006080820190506124ca60008301876124a6565b6124d76020830186612142565b6124e46040830185612142565b6124f16060830184612142565b95945050505050565b6000612505826121f9565b9050919050565b612515816124fa565b811461252057600080fd5b50565b6000813590506125328161250c565b92915050565b60008115159050919050565b61254d81612538565b811461255857600080fd5b50565b60008135905061256a81612544565b92915050565b60008060006060848603121561258957612588612176565b5b600061259786828701612197565b93505060206125a886828701612523565b92505060406125b98682870161255b565b9150509250925092565b600080604083850312156125da576125d9612176565b5b60006125e885828601612197565b92505060206125f985828601612222565b9150509250929050565b600061260e826121f9565b9050919050565b61261e81612603565b811461262957600080fd5b50565b60008135905061263b81612615565b92915050565b60006020828403121561265757612656612176565b5b60006126658482850161262c565b91505092915050565b6000806040838503121561268557612684612176565b5b600061269385828601612197565b92505060206126a485828601612197565b9150509250929050565b6000806000606084860312156126c7576126c6612176565b5b60006126d586828701612197565b93505060206126e686828701612197565b92505060406126f78682870161255b565b9150509250925092565b600061270c82612482565b9050919050565b61271c81612701565b82525050565b60006020820190506127376000830184612713565b92915050565b612746816121f9565b82525050565b6000602082019050612761600083018461273d565b92915050565b600060408201905061277c6000830185612142565b6127896020830184612142565b9392505050565b600061279b82612482565b9050919050565b6127ab81612790565b82525050565b60006020820190506127c660008301846127a2565b92915050565b6000602082840312156127e2576127e1612176565b5b60006127f084828501612222565b91505092915050565b600081519050919050565b600082825260208201905092915050565b6000819050602082019050919050565b61282e81612138565b82525050565b60006128408383612825565b60208301905092915050565b6000602082019050919050565b6000612864826127f9565b61286e8185612804565b935061287983612815565b8060005b838110156128aa5781516128918882612834565b975061289c8361284c565b92505060018101905061287d565b5085935050505092915050565b600060208201905081810360008301526128d18184612859565b905092915050565b60006128e482612482565b9050919050565b6128f4816128d9565b82525050565b600060208201905061290f60008301846128eb565b92915050565b7f4e487b7100000000000000000000000000000000000000000000000000000000600052603260045260246000fd5b600082825260208201905092915050565b7f416d6f756e74206973207a65726f000000000000000000000000000000000000600082015250565b600061298b600e83612944565b915061299682612955565b602082019050919050565b600060208201905081810360008301526129ba8161297e565b9050919050565b60006040820190506129d6600083018561273d565b6129e36020830184612142565b9392505050565b6000815190506129f981612544565b92915050565b600060208284031215612a1557612a14612176565b5b6000612a23848285016129ea565b91505092915050565b6000604082019050612a416000830185612142565b612a4e602083018461273d565b9392505050565b7f4f776e61626c653a2063616c6c6572206973206e6f7420746865206f776e6572600082015250565b6000612a8b602083612944565b9150612a9682612a55565b602082019050919050565b60006020820190508181036000830152612aba81612a7e565b9050919050565b600081519050612ad081612180565b92915050565b600060208284031215612aec57612aeb612176565b5b6000612afa84828501612ac1565b91505092915050565b7f4e487b7100000000000000000000000000000000000000000000000000000000600052601160045260246000fd5b6000612b3d82612138565b91507fffffffffffffffffffffffffffffffffffffffffffffffffffffffffffffffff8203612b6f57612b6e612b03565b5b600182019050919050565b7f596f7520617265206e6f74204f776e6572206f6620746f6b656e206964000000600082015250565b6000612bb0601d83612944565b9150612bbb82612b7a565b602082019050919050565b60006020820190508181036000830152612bdf81612ba3565b9050919050565b7f77697468647261773a206e6f7420676f6f640000000000000000000000000000600082015250565b6000612c1c601283612944565b9150612c2782612be6565b602082019050919050565b60006020820190508181036000830152612c4b81612c0f565b9050919050565b6000606082019050612c67600083018661273d565b612c74602083018561273d565b612c816040830184612142565b949350505050565b7f4f776e61626c653a206e6577206f776e657220697320746865207a65726f206160008201527f6464726573730000000000000000000000000000000000000000000000000000602082015250565b6000612ce5602683612944565b9150612cf082612c89565b604082019050919050565b60006020820190508181036000830152612d1481612cd8565b9050919050565b6000612d2682612138565b9150612d3183612138565b9250817fffffffffffffffffffffffffffffffffffffffffffffffffffffffffffffffff0483118215151615612d6a57612d69612b03565b5b828202905092915050565b7f4e487b7100000000000000000000000000000000000000000000000000000000600052601260045260246000fd5b6000612daf82612138565b9150612dba83612138565b925082612dca57612dc9612d75565b5b828204905092915050565b7f536166654d6174683a206d756c7469706c69636174696f6e206f766572666c6f60008201527f7700000000000000000000000000000000000000000000000000000000000000602082015250565b6000612e31602183612944565b9150612e3c82612dd5565b604082019050919050565b60006020820190508181036000830152612e6081612e24565b9050919050565b6000612e7282612138565b9150612e7d83612138565b9250827fffffffffffffffffffffffffffffffffffffffffffffffffffffffffffffffff03821115612eb257612eb1612b03565b5b828201905092915050565b7f536166654d6174683a206164646974696f6e206f766572666c6f770000000000600082015250565b6000612ef3601b83612944565b9150612efe82612ebd565b602082019050919050565b60006020820190508181036000830152612f2281612ee6565b9050919050565b600081519050919050565b60005b83811015612f52578082015181840152602081019050612f37565b83811115612f61576000848401525b50505050565b6000612f7282612f29565b612f7c8185612944565b9350612f8c818560208601612f34565b612f9581612241565b840191505092915050565b60006020820190508181036000830152612fba8184612f67565b905092915050565b6000612fcd82612138565b9150612fd883612138565b925082821015612feb57612fea612b03565b5b82820390509291505056fea2646970667358221220065401f608dd177bdc09ce884f4616e27d8b8922b18df9f1fcc7cdba1205120664736f6c634300080f0033",
					"opcodes": "PUSH1 0x80 PUSH1 0x40 MSTORE PUSH1 0x1 PUSH1 0x5 SSTORE PUSH1 0x0 PUSH1 0x9 SSTORE CALLVALUE DUP1 ISZERO PUSH3 0x1B JUMPI PUSH1 0x0 DUP1 REVERT JUMPDEST POP PUSH1 0x40 MLOAD PUSH3 0x33FC CODESIZE SUB DUP1 PUSH3 0x33FC DUP4 CODECOPY DUP2 DUP2 ADD PUSH1 0x40 MSTORE DUP2 ADD SWAP1 PUSH3 0x41 SWAP2 SWAP1 PUSH3 0x338 JUMP JUMPDEST PUSH3 0x61 PUSH3 0x55 PUSH3 0x13D PUSH1 0x20 SHL PUSH1 0x20 SHR JUMP JUMPDEST PUSH3 0x145 PUSH1 0x20 SHL PUSH1 0x20 SHR JUMP JUMPDEST DUP5 PUSH1 0x2 PUSH1 0x0 PUSH2 0x100 EXP DUP2 SLOAD DUP2 PUSH20 0xFFFFFFFFFFFFFFFFFFFFFFFFFFFFFFFFFFFFFFFF MUL NOT AND SWAP1 DUP4 PUSH20 0xFFFFFFFFFFFFFFFFFFFFFFFFFFFFFFFFFFFFFFFF AND MUL OR SWAP1 SSTORE POP DUP4 PUSH1 0x1 PUSH1 0x0 PUSH2 0x100 EXP DUP2 SLOAD DUP2 PUSH20 0xFFFFFFFFFFFFFFFFFFFFFFFFFFFFFFFFFFFFFFFF MUL NOT AND SWAP1 DUP4 PUSH20 0xFFFFFFFFFFFFFFFFFFFFFFFFFFFFFFFFFFFFFFFF AND MUL OR SWAP1 SSTORE POP DUP3 PUSH1 0x3 PUSH1 0x0 PUSH2 0x100 EXP DUP2 SLOAD DUP2 PUSH20 0xFFFFFFFFFFFFFFFFFFFFFFFFFFFFFFFFFFFFFFFF MUL NOT AND SWAP1 DUP4 PUSH20 0xFFFFFFFFFFFFFFFFFFFFFFFFFFFFFFFFFFFFFFFF AND MUL OR SWAP1 SSTORE POP DUP2 PUSH1 0x4 DUP2 SWAP1 SSTORE POP DUP1 PUSH1 0xA DUP2 SWAP1 SSTORE POP POP POP POP POP POP PUSH3 0x3C0 JUMP JUMPDEST PUSH1 0x0 CALLER SWAP1 POP SWAP1 JUMP JUMPDEST PUSH1 0x0 DUP1 PUSH1 0x0 SWAP1 SLOAD SWAP1 PUSH2 0x100 EXP SWAP1 DIV PUSH20 0xFFFFFFFFFFFFFFFFFFFFFFFFFFFFFFFFFFFFFFFF AND SWAP1 POP DUP2 PUSH1 0x0 DUP1 PUSH2 0x100 EXP DUP2 SLOAD DUP2 PUSH20 0xFFFFFFFFFFFFFFFFFFFFFFFFFFFFFFFFFFFFFFFF MUL NOT AND SWAP1 DUP4 PUSH20 0xFFFFFFFFFFFFFFFFFFFFFFFFFFFFFFFFFFFFFFFF AND MUL OR SWAP1 SSTORE POP DUP2 PUSH20 0xFFFFFFFFFFFFFFFFFFFFFFFFFFFFFFFFFFFFFFFF AND DUP2 PUSH20 0xFFFFFFFFFFFFFFFFFFFFFFFFFFFFFFFFFFFFFFFF AND PUSH32 0x8BE0079C531659141344CD1FD0A4F28419497F9722A3DAAFE3B4186F6B6457E0 PUSH1 0x40 MLOAD PUSH1 0x40 MLOAD DUP1 SWAP2 SUB SWAP1 LOG3 POP POP JUMP JUMPDEST PUSH1 0x0 DUP1 REVERT JUMPDEST PUSH1 0x0 PUSH20 0xFFFFFFFFFFFFFFFFFFFFFFFFFFFFFFFFFFFFFFFF DUP3 AND SWAP1 POP SWAP2 SWAP1 POP JUMP JUMPDEST PUSH1 0x0 PUSH3 0x23B DUP3 PUSH3 0x20E JUMP JUMPDEST SWAP1 POP SWAP2 SWAP1 POP JUMP JUMPDEST PUSH1 0x0 PUSH3 0x24F DUP3 PUSH3 0x22E JUMP JUMPDEST SWAP1 POP SWAP2 SWAP1 POP JUMP JUMPDEST PUSH3 0x261 DUP2 PUSH3 0x242 JUMP JUMPDEST DUP2 EQ PUSH3 0x26D JUMPI PUSH1 0x0 DUP1 REVERT JUMPDEST POP JUMP JUMPDEST PUSH1 0x0 DUP2 MLOAD SWAP1 POP PUSH3 0x281 DUP2 PUSH3 0x256 JUMP JUMPDEST SWAP3 SWAP2 POP POP JUMP JUMPDEST PUSH1 0x0 PUSH3 0x294 DUP3 PUSH3 0x22E JUMP JUMPDEST SWAP1 POP SWAP2 SWAP1 POP JUMP JUMPDEST PUSH3 0x2A6 DUP2 PUSH3 0x287 JUMP JUMPDEST DUP2 EQ PUSH3 0x2B2 JUMPI PUSH1 0x0 DUP1 REVERT JUMPDEST POP JUMP JUMPDEST PUSH1 0x0 DUP2 MLOAD SWAP1 POP PUSH3 0x2C6 DUP2 PUSH3 0x29B JUMP JUMPDEST SWAP3 SWAP2 POP POP JUMP JUMPDEST PUSH3 0x2D7 DUP2 PUSH3 0x22E JUMP JUMPDEST DUP2 EQ PUSH3 0x2E3 JUMPI PUSH1 0x0 DUP1 REVERT JUMPDEST POP JUMP JUMPDEST PUSH1 0x0 DUP2 MLOAD SWAP1 POP PUSH3 0x2F7 DUP2 PUSH3 0x2CC JUMP JUMPDEST SWAP3 SWAP2 POP POP JUMP JUMPDEST PUSH1 0x0 DUP2 SWAP1 POP SWAP2 SWAP1 POP JUMP JUMPDEST PUSH3 0x312 DUP2 PUSH3 0x2FD JUMP JUMPDEST DUP2 EQ PUSH3 0x31E JUMPI PUSH1 0x0 DUP1 REVERT JUMPDEST POP JUMP JUMPDEST PUSH1 0x0 DUP2 MLOAD SWAP1 POP PUSH3 0x332 DUP2 PUSH3 0x307 JUMP JUMPDEST SWAP3 SWAP2 POP POP JUMP JUMPDEST PUSH1 0x0 DUP1 PUSH1 0x0 DUP1 PUSH1 0x0 PUSH1 0xA0 DUP7 DUP9 SUB SLT ISZERO PUSH3 0x357 JUMPI PUSH3 0x356 PUSH3 0x209 JUMP JUMPDEST JUMPDEST PUSH1 0x0 PUSH3 0x367 DUP9 DUP3 DUP10 ADD PUSH3 0x270 JUMP JUMPDEST SWAP6 POP POP PUSH1 0x20 PUSH3 0x37A DUP9 DUP3 DUP10 ADD PUSH3 0x2B5 JUMP JUMPDEST SWAP5 POP POP PUSH1 0x40 PUSH3 0x38D DUP9 DUP3 DUP10 ADD PUSH3 0x2E6 JUMP JUMPDEST SWAP4 POP POP PUSH1 0x60 PUSH3 0x3A0 DUP9 DUP3 DUP10 ADD PUSH3 0x321 JUMP JUMPDEST SWAP3 POP POP PUSH1 0x80 PUSH3 0x3B3 DUP9 DUP3 DUP10 ADD PUSH3 0x321 JUMP JUMPDEST SWAP2 POP POP SWAP3 SWAP6 POP SWAP3 SWAP6 SWAP1 SWAP4 POP JUMP JUMPDEST PUSH2 0x302C DUP1 PUSH3 0x3D0 PUSH1 0x0 CODECOPY PUSH1 0x0 RETURN INVALID PUSH1 0x80 PUSH1 0x40 MSTORE CALLVALUE DUP1 ISZERO PUSH2 0x10 JUMPI PUSH1 0x0 DUP1 REVERT JUMPDEST POP PUSH1 0x4 CALLDATASIZE LT PUSH2 0x1CF JUMPI PUSH1 0x0 CALLDATALOAD PUSH1 0xE0 SHR DUP1 PUSH4 0x64482F79 GT PUSH2 0x104 JUMPI DUP1 PUSH4 0xCB3CBA55 GT PUSH2 0xA2 JUMPI DUP1 PUSH4 0xE2BBB158 GT PUSH2 0x71 JUMPI DUP1 PUSH4 0xE2BBB158 EQ PUSH2 0x4F8 JUMPI DUP1 PUSH4 0xE4D09896 EQ PUSH2 0x514 JUMPI DUP1 PUSH4 0xF2FDE38B EQ PUSH2 0x532 JUMPI DUP1 PUSH4 0xF395DB2C EQ PUSH2 0x54E JUMPI PUSH2 0x1CF JUMP JUMPDEST DUP1 PUSH4 0xCB3CBA55 EQ PUSH2 0x470 JUMPI DUP1 PUSH4 0xD0D41FE1 EQ PUSH2 0x48E JUMPI DUP1 PUSH4 0xD49E77CD EQ PUSH2 0x4AA JUMPI DUP1 PUSH4 0xD5545992 EQ PUSH2 0x4C8 JUMPI PUSH2 0x1CF JUMP JUMPDEST DUP1 PUSH4 0x8AA28550 GT PUSH2 0xDE JUMPI DUP1 PUSH4 0x8AA28550 EQ PUSH2 0x3D3 JUMPI DUP1 PUSH4 0x8DA5CB5B EQ PUSH2 0x3F1 JUMPI DUP1 PUSH4 0x8DBB1E3A EQ PUSH2 0x40F JUMPI DUP1 PUSH4 0x93F1A40B EQ PUSH2 0x43F JUMPI PUSH2 0x1CF JUMP JUMPDEST DUP1 PUSH4 0x64482F79 EQ PUSH2 0x38F JUMPI DUP1 PUSH4 0x715018A6 EQ PUSH2 0x3AB JUMPI DUP1 PUSH4 0x7CD07E47 EQ PUSH2 0x3B5 JUMPI PUSH2 0x1CF JUMP JUMPDEST DUP1 PUSH4 0x23CF3118 GT PUSH2 0x171 JUMPI DUP1 PUSH4 0x51EB05A6 GT PUSH2 0x14B JUMPI DUP1 PUSH4 0x51EB05A6 EQ PUSH2 0x331 JUMPI DUP1 PUSH4 0x5FFE6146 EQ PUSH2 0x34D JUMPI DUP1 PUSH4 0x612EEE43 EQ PUSH2 0x369 JUMPI DUP1 PUSH4 0x630B5BA1 EQ PUSH2 0x385 JUMPI PUSH2 0x1CF JUMP JUMPDEST DUP1 PUSH4 0x23CF3118 EQ PUSH2 0x2DB JUMPI DUP1 PUSH4 0x441A3E70 EQ PUSH2 0x2F7 JUMPI DUP1 PUSH4 0x48CD4CB1 EQ PUSH2 0x313 JUMPI PUSH2 0x1CF JUMP JUMPDEST DUP1 PUSH4 0x1526FE27 GT PUSH2 0x1AD JUMPI DUP1 PUSH4 0x1526FE27 EQ PUSH2 0x23E JUMPI DUP1 PUSH4 0x17CAF6F1 EQ PUSH2 0x271 JUMPI DUP1 PUSH4 0x1EAAA045 EQ PUSH2 0x28F JUMPI DUP1 PUSH4 0x2080BAAB EQ PUSH2 0x2AB JUMPI PUSH2 0x1CF JUMP JUMPDEST DUP1 PUSH4 0x81E3EDA EQ PUSH2 0x1D4 JUMPI DUP1 PUSH4 0x1395D8C9 EQ PUSH2 0x1F2 JUMPI DUP1 PUSH4 0x150B7A02 EQ PUSH2 0x20E JUMPI JUMPDEST PUSH1 0x0 DUP1 REVERT JUMPDEST PUSH2 0x1DC PUSH2 0x56C JUMP JUMPDEST PUSH1 0x40 MLOAD PUSH2 0x1E9 SWAP2 SWAP1 PUSH2 0x2151 JUMP JUMPDEST PUSH1 0x40 MLOAD DUP1 SWAP2 SUB SWAP1 RETURN JUMPDEST PUSH2 0x20C PUSH1 0x4 DUP1 CALLDATASIZE SUB DUP2 ADD SWAP1 PUSH2 0x207 SWAP2 SWAP1 PUSH2 0x21AC JUMP JUMPDEST PUSH2 0x579 JUMP JUMPDEST STOP JUMPDEST PUSH2 0x228 PUSH1 0x4 DUP1 CALLDATASIZE SUB DUP2 ADD SWAP1 PUSH2 0x223 SWAP2 SWAP1 PUSH2 0x237D JUMP JUMPDEST PUSH2 0x86C JUMP JUMPDEST PUSH1 0x40 MLOAD PUSH2 0x235 SWAP2 SWAP1 PUSH2 0x243B JUMP JUMPDEST PUSH1 0x40 MLOAD DUP1 SWAP2 SUB SWAP1 RETURN JUMPDEST PUSH2 0x258 PUSH1 0x4 DUP1 CALLDATASIZE SUB DUP2 ADD SWAP1 PUSH2 0x253 SWAP2 SWAP1 PUSH2 0x21AC JUMP JUMPDEST PUSH2 0x880 JUMP JUMPDEST PUSH1 0x40 MLOAD PUSH2 0x268 SWAP5 SWAP4 SWAP3 SWAP2 SWAP1 PUSH2 0x24B5 JUMP JUMPDEST PUSH1 0x40 MLOAD DUP1 SWAP2 SUB SWAP1 RETURN JUMPDEST PUSH2 0x279 PUSH2 0x8E0 JUMP JUMPDEST PUSH1 0x40 MLOAD PUSH2 0x286 SWAP2 SWAP1 PUSH2 0x2151 JUMP JUMPDEST PUSH1 0x40 MLOAD DUP1 SWAP2 SUB SWAP1 RETURN JUMPDEST PUSH2 0x2A9 PUSH1 0x4 DUP1 CALLDATASIZE SUB DUP2 ADD SWAP1 PUSH2 0x2A4 SWAP2 SWAP1 PUSH2 0x2570 JUMP JUMPDEST PUSH2 0x8E6 JUMP JUMPDEST STOP JUMPDEST PUSH2 0x2C5 PUSH1 0x4 DUP1 CALLDATASIZE SUB DUP2 ADD SWAP1 PUSH2 0x2C0 SWAP2 SWAP1 PUSH2 0x25C3 JUMP JUMPDEST PUSH2 0xA73 JUMP JUMPDEST PUSH1 0x40 MLOAD PUSH2 0x2D2 SWAP2 SWAP1 PUSH2 0x2151 JUMP JUMPDEST PUSH1 0x40 MLOAD DUP1 SWAP2 SUB SWAP1 RETURN JUMPDEST PUSH2 0x2F5 PUSH1 0x4 DUP1 CALLDATASIZE SUB DUP2 ADD SWAP1 PUSH2 0x2F0 SWAP2 SWAP1 PUSH2 0x2641 JUMP JUMPDEST PUSH2 0xC98 JUMP JUMPDEST STOP JUMPDEST PUSH2 0x311 PUSH1 0x4 DUP1 CALLDATASIZE SUB DUP2 ADD SWAP1 PUSH2 0x30C SWAP2 SWAP1 PUSH2 0x266E JUMP JUMPDEST PUSH2 0xD58 JUMP JUMPDEST STOP JUMPDEST PUSH2 0x31B PUSH2 0x1134 JUMP JUMPDEST PUSH1 0x40 MLOAD PUSH2 0x328 SWAP2 SWAP1 PUSH2 0x2151 JUMP JUMPDEST PUSH1 0x40 MLOAD DUP1 SWAP2 SUB SWAP1 RETURN JUMPDEST PUSH2 0x34B PUSH1 0x4 DUP1 CALLDATASIZE SUB DUP2 ADD SWAP1 PUSH2 0x346 SWAP2 SWAP1 PUSH2 0x21AC JUMP JUMPDEST PUSH2 0x113A JUMP JUMPDEST STOP JUMPDEST PUSH2 0x367 PUSH1 0x4 DUP1 CALLDATASIZE SUB DUP2 ADD SWAP1 PUSH2 0x362 SWAP2 SWAP1 PUSH2 0x21AC JUMP JUMPDEST PUSH2 0x137A JUMP JUMPDEST STOP JUMPDEST PUSH2 0x383 PUSH1 0x4 DUP1 CALLDATASIZE SUB DUP2 ADD SWAP1 PUSH2 0x37E SWAP2 SWAP1 PUSH2 0x21AC JUMP JUMPDEST PUSH2 0x1400 JUMP JUMPDEST STOP JUMPDEST PUSH2 0x38D PUSH2 0x1486 JUMP JUMPDEST STOP JUMPDEST PUSH2 0x3A9 PUSH1 0x4 DUP1 CALLDATASIZE SUB DUP2 ADD SWAP1 PUSH2 0x3A4 SWAP2 SWAP1 PUSH2 0x26AE JUMP JUMPDEST PUSH2 0x14B9 JUMP JUMPDEST STOP JUMPDEST PUSH2 0x3B3 PUSH2 0x15C5 JUMP JUMPDEST STOP JUMPDEST PUSH2 0x3BD PUSH2 0x164D JUMP JUMPDEST PUSH1 0x40 MLOAD PUSH2 0x3CA SWAP2 SWAP1 PUSH2 0x2722 JUMP JUMPDEST PUSH1 0x40 MLOAD DUP1 SWAP2 SUB SWAP1 RETURN JUMPDEST PUSH2 0x3DB PUSH2 0x1673 JUMP JUMPDEST PUSH1 0x40 MLOAD PUSH2 0x3E8 SWAP2 SWAP1 PUSH2 0x2151 JUMP JUMPDEST PUSH1 0x40 MLOAD DUP1 SWAP2 SUB SWAP1 RETURN JUMPDEST PUSH2 0x3F9 PUSH2 0x1679 JUMP JUMPDEST PUSH1 0x40 MLOAD PUSH2 0x406 SWAP2 SWAP1 PUSH2 0x274C JUMP JUMPDEST PUSH1 0x40 MLOAD DUP1 SWAP2 SUB SWAP1 RETURN JUMPDEST PUSH2 0x429 PUSH1 0x4 DUP1 CALLDATASIZE SUB DUP2 ADD SWAP1 PUSH2 0x424 SWAP2 SWAP1 PUSH2 0x266E JUMP JUMPDEST PUSH2 0x16A2 JUMP JUMPDEST PUSH1 0x40 MLOAD PUSH2 0x436 SWAP2 SWAP1 PUSH2 0x2151 JUMP JUMPDEST PUSH1 0x40 MLOAD DUP1 SWAP2 SUB SWAP1 RETURN JUMPDEST PUSH2 0x459 PUSH1 0x4 DUP1 CALLDATASIZE SUB DUP2 ADD SWAP1 PUSH2 0x454 SWAP2 SWAP1 PUSH2 0x25C3 JUMP JUMPDEST PUSH2 0x16D3 JUMP JUMPDEST PUSH1 0x40 MLOAD PUSH2 0x467 SWAP3 SWAP2 SWAP1 PUSH2 0x2767 JUMP JUMPDEST PUSH1 0x40 MLOAD DUP1 SWAP2 SUB SWAP1 RETURN JUMPDEST PUSH2 0x478 PUSH2 0x1704 JUMP JUMPDEST PUSH1 0x40 MLOAD PUSH2 0x485 SWAP2 SWAP1 PUSH2 0x27B1 JUMP JUMPDEST PUSH1 0x40 MLOAD DUP1 SWAP2 SUB SWAP1 RETURN JUMPDEST PUSH2 0x4A8 PUSH1 0x4 DUP1 CALLDATASIZE SUB DUP2 ADD SWAP1 PUSH2 0x4A3 SWAP2 SWAP1 PUSH2 0x27CC JUMP JUMPDEST PUSH2 0x172A JUMP JUMPDEST STOP JUMPDEST PUSH2 0x4B2 PUSH2 0x17EA JUMP JUMPDEST PUSH1 0x40 MLOAD PUSH2 0x4BF SWAP2 SWAP1 PUSH2 0x274C JUMP JUMPDEST PUSH1 0x40 MLOAD DUP1 SWAP2 SUB SWAP1 RETURN JUMPDEST PUSH2 0x4E2 PUSH1 0x4 DUP1 CALLDATASIZE SUB DUP2 ADD SWAP1 PUSH2 0x4DD SWAP2 SWAP1 PUSH2 0x25C3 JUMP JUMPDEST PUSH2 0x1810 JUMP JUMPDEST PUSH1 0x40 MLOAD PUSH2 0x4EF SWAP2 SWAP1 PUSH2 0x28B7 JUMP JUMPDEST PUSH1 0x40 MLOAD DUP1 SWAP2 SUB SWAP1 RETURN JUMPDEST PUSH2 0x512 PUSH1 0x4 DUP1 CALLDATASIZE SUB DUP2 ADD SWAP1 PUSH2 0x50D SWAP2 SWAP1 PUSH2 0x266E JUMP JUMPDEST PUSH2 0x18C2 JUMP JUMPDEST STOP JUMPDEST PUSH2 0x51C PUSH2 0x1B21 JUMP JUMPDEST PUSH1 0x40 MLOAD PUSH2 0x529 SWAP2 SWAP1 PUSH2 0x28FA JUMP JUMPDEST PUSH1 0x40 MLOAD DUP1 SWAP2 SUB SWAP1 RETURN JUMPDEST PUSH2 0x54C PUSH1 0x4 DUP1 CALLDATASIZE SUB DUP2 ADD SWAP1 PUSH2 0x547 SWAP2 SWAP1 PUSH2 0x27CC JUMP JUMPDEST PUSH2 0x1B47 JUMP JUMPDEST STOP JUMPDEST PUSH2 0x556 PUSH2 0x1C3E JUMP JUMPDEST PUSH1 0x40 MLOAD PUSH2 0x563 SWAP2 SWAP1 PUSH2 0x2151 JUMP JUMPDEST PUSH1 0x40 MLOAD DUP1 SWAP2 SUB SWAP1 RETURN JUMPDEST PUSH1 0x0 PUSH1 0x7 DUP1 SLOAD SWAP1 POP SWAP1 POP SWAP1 JUMP JUMPDEST PUSH1 0x0 PUSH1 0x7 DUP3 DUP2 SLOAD DUP2 LT PUSH2 0x58F JUMPI PUSH2 0x58E PUSH2 0x2915 JUMP JUMPDEST JUMPDEST SWAP1 PUSH1 0x0 MSTORE PUSH1 0x20 PUSH1 0x0 KECCAK256 SWAP1 PUSH1 0x4 MUL ADD SWAP1 POP PUSH1 0x0 PUSH1 0x8 PUSH1 0x0 DUP5 DUP2 MSTORE PUSH1 0x20 ADD SWAP1 DUP2 MSTORE PUSH1 0x20 ADD PUSH1 0x0 KECCAK256 PUSH1 0x0 CALLER PUSH20 0xFFFFFFFFFFFFFFFFFFFFFFFFFFFFFFFFFFFFFFFF AND PUSH20 0xFFFFFFFFFFFFFFFFFFFFFFFFFFFFFFFFFFFFFFFF AND DUP2 MSTORE PUSH1 0x20 ADD SWAP1 DUP2 MSTORE PUSH1 0x20 ADD PUSH1 0x0 KECCAK256 SWAP1 POP PUSH2 0x5FC DUP4 PUSH2 0x113A JUMP JUMPDEST PUSH1 0x0 PUSH2 0x646 DUP3 PUSH1 0x2 ADD SLOAD PUSH2 0x638 PUSH5 0xE8D4A51000 PUSH2 0x62A DUP8 PUSH1 0x3 ADD SLOAD DUP8 PUSH1 0x1 ADD SLOAD PUSH2 0x1C44 SWAP1 SWAP2 SWAP1 PUSH4 0xFFFFFFFF AND JUMP JUMPDEST PUSH2 0x1CBE SWAP1 SWAP2 SWAP1 PUSH4 0xFFFFFFFF AND JUMP JUMPDEST PUSH2 0x1D08 SWAP1 SWAP2 SWAP1 PUSH4 0xFFFFFFFF AND JUMP JUMPDEST SWAP1 POP PUSH1 0x0 DUP2 GT PUSH2 0x68B JUMPI PUSH1 0x40 MLOAD PUSH32 0x8C379A000000000000000000000000000000000000000000000000000000000 DUP2 MSTORE PUSH1 0x4 ADD PUSH2 0x682 SWAP1 PUSH2 0x29A1 JUMP JUMPDEST PUSH1 0x40 MLOAD DUP1 SWAP2 SUB SWAP1 REVERT JUMPDEST PUSH1 0x2 PUSH1 0x0 SWAP1 SLOAD SWAP1 PUSH2 0x100 EXP SWAP1 DIV PUSH20 0xFFFFFFFFFFFFFFFFFFFFFFFFFFFFFFFFFFFFFFFF AND PUSH20 0xFFFFFFFFFFFFFFFFFFFFFFFFFFFFFFFFFFFFFFFF AND PUSH4 0x95EA7B3 PUSH1 0x1 PUSH1 0x0 SWAP1 SLOAD SWAP1 PUSH2 0x100 EXP SWAP1 DIV PUSH20 0xFFFFFFFFFFFFFFFFFFFFFFFFFFFFFFFFFFFFFFFF AND DUP4 PUSH1 0x40 MLOAD DUP4 PUSH4 0xFFFFFFFF AND PUSH1 0xE0 SHL DUP2 MSTORE PUSH1 0x4 ADD PUSH2 0x70A SWAP3 SWAP2 SWAP1 PUSH2 0x29C1 JUMP JUMPDEST PUSH1 0x20 PUSH1 0x40 MLOAD DUP1 DUP4 SUB DUP2 PUSH1 0x0 DUP8 GAS CALL ISZERO DUP1 ISZERO PUSH2 0x729 JUMPI RETURNDATASIZE PUSH1 0x0 DUP1 RETURNDATACOPY RETURNDATASIZE PUSH1 0x0 REVERT JUMPDEST POP POP POP POP PUSH1 0x40 MLOAD RETURNDATASIZE PUSH1 0x1F NOT PUSH1 0x1F DUP3 ADD AND DUP3 ADD DUP1 PUSH1 0x40 MSTORE POP DUP2 ADD SWAP1 PUSH2 0x74D SWAP2 SWAP1 PUSH2 0x29FF JUMP JUMPDEST POP PUSH1 0x1 PUSH1 0x0 SWAP1 SLOAD SWAP1 PUSH2 0x100 EXP SWAP1 DIV PUSH20 0xFFFFFFFFFFFFFFFFFFFFFFFFFFFFFFFFFFFFFFFF AND PUSH20 0xFFFFFFFFFFFFFFFFFFFFFFFFFFFFFFFFFFFFFFFF AND PUSH4 0x849DF12C DUP3 CALLER PUSH1 0x40 MLOAD DUP4 PUSH4 0xFFFFFFFF AND PUSH1 0xE0 SHL DUP2 MSTORE PUSH1 0x4 ADD PUSH2 0x7AB SWAP3 SWAP2 SWAP1 PUSH2 0x2A2C JUMP JUMPDEST PUSH1 0x0 PUSH1 0x40 MLOAD DUP1 DUP4 SUB DUP2 PUSH1 0x0 DUP8 DUP1 EXTCODESIZE ISZERO DUP1 ISZERO PUSH2 0x7C5 JUMPI PUSH1 0x0 DUP1 REVERT JUMPDEST POP GAS CALL ISZERO DUP1 ISZERO PUSH2 0x7D9 JUMPI RETURNDATASIZE PUSH1 0x0 DUP1 RETURNDATACOPY RETURNDATASIZE PUSH1 0x0 REVERT JUMPDEST POP POP POP POP PUSH2 0x80F PUSH5 0xE8D4A51000 PUSH2 0x801 DUP6 PUSH1 0x3 ADD SLOAD DUP6 PUSH1 0x1 ADD SLOAD PUSH2 0x1C44 SWAP1 SWAP2 SWAP1 PUSH4 0xFFFFFFFF AND JUMP JUMPDEST PUSH2 0x1CBE SWAP1 SWAP2 SWAP1 PUSH4 0xFFFFFFFF AND JUMP JUMPDEST DUP3 PUSH1 0x2 ADD DUP2 SWAP1 SSTORE POP DUP4 CALLER PUSH20 0xFFFFFFFFFFFFFFFFFFFFFFFFFFFFFFFFFFFFFFFF AND PUSH32 0xF279E6A1F5E320CCA91135676D9CB6E44CA8A08C0B88342BCDB1144F6511B568 DUP4 PUSH1 0x40 MLOAD PUSH2 0x85E SWAP2 SWAP1 PUSH2 0x2151 JUMP JUMPDEST PUSH1 0x40 MLOAD DUP1 SWAP2 SUB SWAP1 LOG3 POP POP POP POP JUMP JUMPDEST PUSH1 0x0 PUSH4 0x150B7A02 PUSH1 0xE0 SHL SWAP1 POP SWAP5 SWAP4 POP POP POP POP JUMP JUMPDEST PUSH1 0x7 DUP2 DUP2 SLOAD DUP2 LT PUSH2 0x890 JUMPI PUSH1 0x0 DUP1 REVERT JUMPDEST SWAP1 PUSH1 0x0 MSTORE PUSH1 0x20 PUSH1 0x0 KECCAK256 SWAP1 PUSH1 0x4 MUL ADD PUSH1 0x0 SWAP2 POP SWAP1 POP DUP1 PUSH1 0x0 ADD PUSH1 0x0 SWAP1 SLOAD SWAP1 PUSH2 0x100 EXP SWAP1 DIV PUSH20 0xFFFFFFFFFFFFFFFFFFFFFFFFFFFFFFFFFFFFFFFF AND SWAP1 DUP1 PUSH1 0x1 ADD SLOAD SWAP1 DUP1 PUSH1 0x2 ADD SLOAD SWAP1 DUP1 PUSH1 0x3 ADD SLOAD SWAP1 POP DUP5 JUMP JUMPDEST PUSH1 0x9 SLOAD DUP2 JUMP JUMPDEST PUSH2 0x8EE PUSH2 0x1D52 JUMP JUMPDEST PUSH20 0xFFFFFFFFFFFFFFFFFFFFFFFFFFFFFFFFFFFFFFFF AND PUSH2 0x90C PUSH2 0x1679 JUMP JUMPDEST PUSH20 0xFFFFFFFFFFFFFFFFFFFFFFFFFFFFFFFFFFFFFFFF AND EQ PUSH2 0x962 JUMPI PUSH1 0x40 MLOAD PUSH32 0x8C379A000000000000000000000000000000000000000000000000000000000 DUP2 MSTORE PUSH1 0x4 ADD PUSH2 0x959 SWAP1 PUSH2 0x2AA1 JUMP JUMPDEST PUSH1 0x40 MLOAD DUP1 SWAP2 SUB SWAP1 REVERT JUMPDEST DUP1 ISZERO PUSH2 0x971 JUMPI PUSH2 0x970 PUSH2 0x1486 JUMP JUMPDEST JUMPDEST PUSH1 0x0 PUSH1 0xA SLOAD NUMBER GT PUSH2 0x984 JUMPI PUSH1 0xA SLOAD PUSH2 0x986 JUMP JUMPDEST NUMBER JUMPDEST SWAP1 POP PUSH2 0x99D DUP5 PUSH1 0x9 SLOAD PUSH2 0x1D5A SWAP1 SWAP2 SWAP1 PUSH4 0xFFFFFFFF AND JUMP JUMPDEST PUSH1 0x9 DUP2 SWAP1 SSTORE POP PUSH1 0x7 PUSH1 0x40 MLOAD DUP1 PUSH1 0x80 ADD PUSH1 0x40 MSTORE DUP1 DUP6 PUSH20 0xFFFFFFFFFFFFFFFFFFFFFFFFFFFFFFFFFFFFFFFF AND DUP2 MSTORE PUSH1 0x20 ADD DUP7 DUP2 MSTORE PUSH1 0x20 ADD DUP4 DUP2 MSTORE PUSH1 0x20 ADD PUSH1 0x0 DUP2 MSTORE POP SWAP1 DUP1 PUSH1 0x1 DUP2 SLOAD ADD DUP1 DUP3 SSTORE DUP1 SWAP2 POP POP PUSH1 0x1 SWAP1 SUB SWAP1 PUSH1 0x0 MSTORE PUSH1 0x20 PUSH1 0x0 KECCAK256 SWAP1 PUSH1 0x4 MUL ADD PUSH1 0x0 SWAP1 SWAP2 SWAP1 SWAP2 SWAP1 SWAP2 POP PUSH1 0x0 DUP3 ADD MLOAD DUP2 PUSH1 0x0 ADD PUSH1 0x0 PUSH2 0x100 EXP DUP2 SLOAD DUP2 PUSH20 0xFFFFFFFFFFFFFFFFFFFFFFFFFFFFFFFFFFFFFFFF MUL NOT AND SWAP1 DUP4 PUSH20 0xFFFFFFFFFFFFFFFFFFFFFFFFFFFFFFFFFFFFFFFF AND MUL OR SWAP1 SSTORE POP PUSH1 0x20 DUP3 ADD MLOAD DUP2 PUSH1 0x1 ADD SSTORE PUSH1 0x40 DUP3 ADD MLOAD DUP2 PUSH1 0x2 ADD SSTORE PUSH1 0x60 DUP3 ADD MLOAD DUP2 PUSH1 0x3 ADD SSTORE POP POP POP POP POP POP JUMP JUMPDEST PUSH1 0x0 DUP1 PUSH1 0x7 DUP5 DUP2 SLOAD DUP2 LT PUSH2 0xA8A JUMPI PUSH2 0xA89 PUSH2 0x2915 JUMP JUMPDEST JUMPDEST SWAP1 PUSH1 0x0 MSTORE PUSH1 0x20 PUSH1 0x0 KECCAK256 SWAP1 PUSH1 0x4 MUL ADD SWAP1 POP PUSH1 0x0 PUSH1 0x8 PUSH1 0x0 DUP7 DUP2 MSTORE PUSH1 0x20 ADD SWAP1 DUP2 MSTORE PUSH1 0x20 ADD PUSH1 0x0 KECCAK256 PUSH1 0x0 DUP6 PUSH20 0xFFFFFFFFFFFFFFFFFFFFFFFFFFFFFFFFFFFFFFFF AND PUSH20 0xFFFFFFFFFFFFFFFFFFFFFFFFFFFFFFFFFFFFFFFF AND DUP2 MSTORE PUSH1 0x20 ADD SWAP1 DUP2 MSTORE PUSH1 0x20 ADD PUSH1 0x0 KECCAK256 SWAP1 POP PUSH1 0x0 DUP3 PUSH1 0x3 ADD SLOAD SWAP1 POP PUSH1 0x0 DUP4 PUSH1 0x0 ADD PUSH1 0x0 SWAP1 SLOAD SWAP1 PUSH2 0x100 EXP SWAP1 DIV PUSH20 0xFFFFFFFFFFFFFFFFFFFFFFFFFFFFFFFFFFFFFFFF AND PUSH20 0xFFFFFFFFFFFFFFFFFFFFFFFFFFFFFFFFFFFFFFFF AND PUSH4 0x70A08231 ADDRESS PUSH1 0x40 MLOAD DUP3 PUSH4 0xFFFFFFFF AND PUSH1 0xE0 SHL DUP2 MSTORE PUSH1 0x4 ADD PUSH2 0xB56 SWAP2 SWAP1 PUSH2 0x274C JUMP JUMPDEST PUSH1 0x20 PUSH1 0x40 MLOAD DUP1 DUP4 SUB DUP2 DUP7 GAS STATICCALL ISZERO DUP1 ISZERO PUSH2 0xB73 JUMPI RETURNDATASIZE PUSH1 0x0 DUP1 RETURNDATACOPY RETURNDATASIZE PUSH1 0x0 REVERT JUMPDEST POP POP POP POP PUSH1 0x40 MLOAD RETURNDATASIZE PUSH1 0x1F NOT PUSH1 0x1F DUP3 ADD AND DUP3 ADD DUP1 PUSH1 0x40 MSTORE POP DUP2 ADD SWAP1 PUSH2 0xB97 SWAP2 SWAP1 PUSH2 0x2AD6 JUMP JUMPDEST SWAP1 POP DUP4 PUSH1 0x2 ADD SLOAD NUMBER GT DUP1 ISZERO PUSH2 0xBAD JUMPI POP PUSH1 0x0 DUP2 EQ ISZERO JUMPDEST ISZERO PUSH2 0xC48 JUMPI PUSH1 0x0 PUSH2 0xBC2 DUP6 PUSH1 0x2 ADD SLOAD NUMBER PUSH2 0x16A2 JUMP JUMPDEST SWAP1 POP PUSH1 0x0 PUSH2 0xC05 PUSH1 0x9 SLOAD PUSH2 0xBF7 DUP9 PUSH1 0x1 ADD SLOAD PUSH2 0xBE9 PUSH1 0x4 SLOAD DUP8 PUSH2 0x1C44 SWAP1 SWAP2 SWAP1 PUSH4 0xFFFFFFFF AND JUMP JUMPDEST PUSH2 0x1C44 SWAP1 SWAP2 SWAP1 PUSH4 0xFFFFFFFF AND JUMP JUMPDEST PUSH2 0x1CBE SWAP1 SWAP2 SWAP1 PUSH4 0xFFFFFFFF AND JUMP JUMPDEST SWAP1 POP PUSH2 0xC43 PUSH2 0xC34 DUP5 PUSH2 0xC26 PUSH5 0xE8D4A51000 DUP6 PUSH2 0x1C44 SWAP1 SWAP2 SWAP1 PUSH4 0xFFFFFFFF AND JUMP JUMPDEST PUSH2 0x1CBE SWAP1 SWAP2 SWAP1 PUSH4 0xFFFFFFFF AND JUMP JUMPDEST DUP6 PUSH2 0x1D5A SWAP1 SWAP2 SWAP1 PUSH4 0xFFFFFFFF AND JUMP JUMPDEST SWAP4 POP POP POP JUMPDEST PUSH2 0xC8C DUP4 PUSH1 0x2 ADD SLOAD PUSH2 0xC7E PUSH5 0xE8D4A51000 PUSH2 0xC70 DUP7 DUP9 PUSH1 0x1 ADD SLOAD PUSH2 0x1C44 SWAP1 SWAP2 SWAP1 PUSH4 0xFFFFFFFF AND JUMP JUMPDEST PUSH2 0x1CBE SWAP1 SWAP2 SWAP1 PUSH4 0xFFFFFFFF AND JUMP JUMPDEST PUSH2 0x1D08 SWAP1 SWAP2 SWAP1 PUSH4 0xFFFFFFFF AND JUMP JUMPDEST SWAP5 POP POP POP POP POP SWAP3 SWAP2 POP POP JUMP JUMPDEST PUSH2 0xCA0 PUSH2 0x1D52 JUMP JUMPDEST PUSH20 0xFFFFFFFFFFFFFFFFFFFFFFFFFFFFFFFFFFFFFFFF AND PUSH2 0xCBE PUSH2 0x1679 JUMP JUMPDEST PUSH20 0xFFFFFFFFFFFFFFFFFFFFFFFFFFFFFFFFFFFFFFFF AND EQ PUSH2 0xD14 JUMPI PUSH1 0x40 MLOAD PUSH32 0x8C379A000000000000000000000000000000000000000000000000000000000 DUP2 MSTORE PUSH1 0x4 ADD PUSH2 0xD0B SWAP1 PUSH2 0x2AA1 JUMP JUMPDEST PUSH1 0x40 MLOAD DUP1 SWAP2 SUB SWAP1 REVERT JUMPDEST DUP1 PUSH1 0x6 PUSH1 0x0 PUSH2 0x100 EXP DUP2 SLOAD DUP2 PUSH20 0xFFFFFFFFFFFFFFFFFFFFFFFFFFFFFFFFFFFFFFFF MUL NOT AND SWAP1 DUP4 PUSH20 0xFFFFFFFFFFFFFFFFFFFFFFFFFFFFFFFFFFFFFFFF AND MUL OR SWAP1 SSTORE POP POP JUMP JUMPDEST PUSH1 0x0 PUSH1 0x7 DUP4 DUP2 SLOAD DUP2 LT PUSH2 0xD6E JUMPI PUSH2 0xD6D PUSH2 0x2915 JUMP JUMPDEST JUMPDEST SWAP1 PUSH1 0x0 MSTORE PUSH1 0x20 PUSH1 0x0 KECCAK256 SWAP1 PUSH1 0x4 MUL ADD SWAP1 POP PUSH1 0x0 PUSH1 0x8 PUSH1 0x0 DUP6 DUP2 MSTORE PUSH1 0x20 ADD SWAP1 DUP2 MSTORE PUSH1 0x20 ADD PUSH1 0x0 KECCAK256 PUSH1 0x0 CALLER PUSH20 0xFFFFFFFFFFFFFFFFFFFFFFFFFFFFFFFFFFFFFFFF AND PUSH20 0xFFFFFFFFFFFFFFFFFFFFFFFFFFFFFFFFFFFFFFFF AND DUP2 MSTORE PUSH1 0x20 ADD SWAP1 DUP2 MSTORE PUSH1 0x20 ADD PUSH1 0x0 KECCAK256 SWAP1 POP PUSH1 0x0 DUP1 DUP5 SUB PUSH2 0xE81 JUMPI PUSH2 0xDE4 DUP6 PUSH2 0x113A JUMP JUMPDEST PUSH2 0xE2C DUP3 PUSH1 0x2 ADD SLOAD PUSH2 0xE1E PUSH5 0xE8D4A51000 PUSH2 0xE10 DUP8 PUSH1 0x3 ADD SLOAD DUP8 PUSH1 0x1 ADD SLOAD PUSH2 0x1C44 SWAP1 SWAP2 SWAP1 PUSH4 0xFFFFFFFF AND JUMP JUMPDEST PUSH2 0x1CBE SWAP1 SWAP2 SWAP1 PUSH4 0xFFFFFFFF AND JUMP JUMPDEST PUSH2 0x1D08 SWAP1 SWAP2 SWAP1 PUSH4 0xFFFFFFFF AND JUMP JUMPDEST SWAP1 POP PUSH1 0x0 DUP2 GT ISZERO PUSH2 0xE42 JUMPI PUSH2 0xE41 CALLER DUP3 PUSH2 0x1DB8 JUMP JUMPDEST JUMPDEST PUSH2 0xE74 PUSH5 0xE8D4A51000 PUSH2 0xE66 DUP6 PUSH1 0x3 ADD SLOAD DUP6 PUSH1 0x1 ADD SLOAD PUSH2 0x1C44 SWAP1 SWAP2 SWAP1 PUSH4 0xFFFFFFFF AND JUMP JUMPDEST PUSH2 0x1CBE SWAP1 SWAP2 SWAP1 PUSH4 0xFFFFFFFF AND JUMP JUMPDEST DUP3 PUSH1 0x2 ADD DUP2 SWAP1 SSTORE POP PUSH2 0x10DE JUMP JUMPDEST PUSH1 0x0 DUP1 DUP1 JUMPDEST DUP5 PUSH1 0x0 ADD DUP1 SLOAD SWAP1 POP DUP2 LT ISZERO PUSH2 0xED7 JUMPI DUP7 DUP6 PUSH1 0x0 ADD DUP3 DUP2 SLOAD DUP2 LT PUSH2 0xEAC JUMPI PUSH2 0xEAB PUSH2 0x2915 JUMP JUMPDEST JUMPDEST SWAP1 PUSH1 0x0 MSTORE PUSH1 0x20 PUSH1 0x0 KECCAK256 ADD SLOAD SUB PUSH2 0xEC4 JUMPI PUSH1 0x1 SWAP3 POP DUP1 SWAP2 POP JUMPDEST DUP1 DUP1 PUSH2 0xECF SWAP1 PUSH2 0x2B32 JUMP JUMPDEST SWAP2 POP POP PUSH2 0xE86 JUMP JUMPDEST POP PUSH1 0x1 DUP3 EQ PUSH2 0xF1B JUMPI PUSH1 0x40 MLOAD PUSH32 0x8C379A000000000000000000000000000000000000000000000000000000000 DUP2 MSTORE PUSH1 0x4 ADD PUSH2 0xF12 SWAP1 PUSH2 0x2BC6 JUMP JUMPDEST PUSH1 0x40 MLOAD DUP1 SWAP2 SUB SWAP1 REVERT JUMPDEST PUSH1 0x1 DUP5 PUSH1 0x1 ADD SLOAD LT ISZERO PUSH2 0xF63 JUMPI PUSH1 0x40 MLOAD PUSH32 0x8C379A000000000000000000000000000000000000000000000000000000000 DUP2 MSTORE PUSH1 0x4 ADD PUSH2 0xF5A SWAP1 PUSH2 0x2C32 JUMP JUMPDEST PUSH1 0x40 MLOAD DUP1 SWAP2 SUB SWAP1 REVERT JUMPDEST PUSH2 0xF6C DUP8 PUSH2 0x113A JUMP JUMPDEST PUSH2 0xFB4 DUP5 PUSH1 0x2 ADD SLOAD PUSH2 0xFA6 PUSH5 0xE8D4A51000 PUSH2 0xF98 DUP10 PUSH1 0x3 ADD SLOAD DUP10 PUSH1 0x1 ADD SLOAD PUSH2 0x1C44 SWAP1 SWAP2 SWAP1 PUSH4 0xFFFFFFFF AND JUMP JUMPDEST PUSH2 0x1CBE SWAP1 SWAP2 SWAP1 PUSH4 0xFFFFFFFF AND JUMP JUMPDEST PUSH2 0x1D08 SWAP1 SWAP2 SWAP1 PUSH4 0xFFFFFFFF AND JUMP JUMPDEST SWAP3 POP PUSH1 0x0 DUP4 GT ISZERO PUSH2 0xFCA JUMPI PUSH2 0xFC9 CALLER DUP5 PUSH2 0x1DB8 JUMP JUMPDEST JUMPDEST PUSH2 0xFE2 PUSH1 0x1 DUP6 PUSH1 0x1 ADD SLOAD PUSH2 0x1D08 SWAP1 SWAP2 SWAP1 PUSH4 0xFFFFFFFF AND JUMP JUMPDEST DUP5 PUSH1 0x1 ADD DUP2 SWAP1 SSTORE POP PUSH2 0x101C PUSH5 0xE8D4A51000 PUSH2 0x100E DUP8 PUSH1 0x3 ADD SLOAD DUP8 PUSH1 0x1 ADD SLOAD PUSH2 0x1C44 SWAP1 SWAP2 SWAP1 PUSH4 0xFFFFFFFF AND JUMP JUMPDEST PUSH2 0x1CBE SWAP1 SWAP2 SWAP1 PUSH4 0xFFFFFFFF AND JUMP JUMPDEST DUP5 PUSH1 0x2 ADD DUP2 SWAP1 SSTORE POP DUP4 PUSH1 0x0 ADD DUP2 DUP2 SLOAD DUP2 LT PUSH2 0x103A JUMPI PUSH2 0x1039 PUSH2 0x2915 JUMP JUMPDEST JUMPDEST SWAP1 PUSH1 0x0 MSTORE PUSH1 0x20 PUSH1 0x0 KECCAK256 ADD PUSH1 0x0 SWAP1 SSTORE DUP5 PUSH1 0x0 ADD PUSH1 0x0 SWAP1 SLOAD SWAP1 PUSH2 0x100 EXP SWAP1 DIV PUSH20 0xFFFFFFFFFFFFFFFFFFFFFFFFFFFFFFFFFFFFFFFF AND PUSH20 0xFFFFFFFFFFFFFFFFFFFFFFFFFFFFFFFFFFFFFFFF AND PUSH4 0x42842E0E ADDRESS CALLER DUP10 PUSH1 0x40 MLOAD DUP5 PUSH4 0xFFFFFFFF AND PUSH1 0xE0 SHL DUP2 MSTORE PUSH1 0x4 ADD PUSH2 0x10A9 SWAP4 SWAP3 SWAP2 SWAP1 PUSH2 0x2C52 JUMP JUMPDEST PUSH1 0x0 PUSH1 0x40 MLOAD DUP1 DUP4 SUB DUP2 PUSH1 0x0 DUP8 DUP1 EXTCODESIZE ISZERO DUP1 ISZERO PUSH2 0x10C3 JUMPI PUSH1 0x0 DUP1 REVERT JUMPDEST POP GAS CALL ISZERO DUP1 ISZERO PUSH2 0x10D7 JUMPI RETURNDATASIZE PUSH1 0x0 DUP1 RETURNDATACOPY RETURNDATASIZE PUSH1 0x0 REVERT JUMPDEST POP POP POP POP POP POP JUMPDEST DUP5 CALLER PUSH20 0xFFFFFFFFFFFFFFFFFFFFFFFFFFFFFFFFFFFFFFFF AND PUSH32 0xF279E6A1F5E320CCA91135676D9CB6E44CA8A08C0B88342BCDB1144F6511B568 DUP7 PUSH1 0x40 MLOAD PUSH2 0x1125 SWAP2 SWAP1 PUSH2 0x2151 JUMP JUMPDEST PUSH1 0x40 MLOAD DUP1 SWAP2 SUB SWAP1 LOG3 POP POP POP POP POP JUMP JUMPDEST PUSH1 0xA SLOAD DUP2 JUMP JUMPDEST PUSH1 0x0 PUSH1 0x7 DUP3 DUP2 SLOAD DUP2 LT PUSH2 0x1150 JUMPI PUSH2 0x114F PUSH2 0x2915 JUMP JUMPDEST JUMPDEST SWAP1 PUSH1 0x0 MSTORE PUSH1 0x20 PUSH1 0x0 KECCAK256 SWAP1 PUSH1 0x4 MUL ADD SWAP1 POP DUP1 PUSH1 0x2 ADD SLOAD NUMBER GT PUSH2 0x1171 JUMPI POP PUSH2 0x1377 JUMP JUMPDEST PUSH1 0x0 DUP2 PUSH1 0x0 ADD PUSH1 0x0 SWAP1 SLOAD SWAP1 PUSH2 0x100 EXP SWAP1 DIV PUSH20 0xFFFFFFFFFFFFFFFFFFFFFFFFFFFFFFFFFFFFFFFF AND PUSH20 0xFFFFFFFFFFFFFFFFFFFFFFFFFFFFFFFFFFFFFFFF AND PUSH4 0x70A08231 ADDRESS PUSH1 0x40 MLOAD DUP3 PUSH4 0xFFFFFFFF AND PUSH1 0xE0 SHL DUP2 MSTORE PUSH1 0x4 ADD PUSH2 0x11D0 SWAP2 SWAP1 PUSH2 0x274C JUMP JUMPDEST PUSH1 0x20 PUSH1 0x40 MLOAD DUP1 DUP4 SUB DUP2 DUP7 GAS STATICCALL ISZERO DUP1 ISZERO PUSH2 0x11ED JUMPI RETURNDATASIZE PUSH1 0x0 DUP1 RETURNDATACOPY RETURNDATASIZE PUSH1 0x0 REVERT JUMPDEST POP POP POP POP PUSH1 0x40 MLOAD RETURNDATASIZE PUSH1 0x1F NOT PUSH1 0x1F DUP3 ADD AND DUP3 ADD DUP1 PUSH1 0x40 MSTORE POP DUP2 ADD SWAP1 PUSH2 0x1211 SWAP2 SWAP1 PUSH2 0x2AD6 JUMP JUMPDEST SWAP1 POP PUSH1 0x0 DUP2 GT PUSH2 0x122B JUMPI NUMBER DUP3 PUSH1 0x2 ADD DUP2 SWAP1 SSTORE POP POP POP PUSH2 0x1377 JUMP JUMPDEST PUSH1 0x0 PUSH2 0x123B DUP4 PUSH1 0x2 ADD SLOAD NUMBER PUSH2 0x16A2 JUMP JUMPDEST SWAP1 POP PUSH1 0x0 PUSH2 0x127E PUSH1 0x9 SLOAD PUSH2 0x1270 DUP7 PUSH1 0x1 ADD SLOAD PUSH2 0x1262 PUSH1 0x4 SLOAD DUP8 PUSH2 0x1C44 SWAP1 SWAP2 SWAP1 PUSH4 0xFFFFFFFF AND JUMP JUMPDEST PUSH2 0x1C44 SWAP1 SWAP2 SWAP1 PUSH4 0xFFFFFFFF AND JUMP JUMPDEST PUSH2 0x1CBE SWAP1 SWAP2 SWAP1 PUSH4 0xFFFFFFFF AND JUMP JUMPDEST SWAP1 POP PUSH1 0x2 PUSH1 0x0 SWAP1 SLOAD SWAP1 PUSH2 0x100 EXP SWAP1 DIV PUSH20 0xFFFFFFFFFFFFFFFFFFFFFFFFFFFFFFFFFFFFFFFF AND PUSH20 0xFFFFFFFFFFFFFFFFFFFFFFFFFFFFFFFFFFFFFFFF AND PUSH4 0x40C10F19 ADDRESS DUP4 PUSH1 0x40 MLOAD DUP4 PUSH4 0xFFFFFFFF AND PUSH1 0xE0 SHL DUP2 MSTORE PUSH1 0x4 ADD PUSH2 0x12DD SWAP3 SWAP2 SWAP1 PUSH2 0x29C1 JUMP JUMPDEST PUSH1 0x20 PUSH1 0x40 MLOAD DUP1 DUP4 SUB DUP2 PUSH1 0x0 DUP8 GAS CALL ISZERO DUP1 ISZERO PUSH2 0x12FC JUMPI RETURNDATASIZE PUSH1 0x0 DUP1 RETURNDATACOPY RETURNDATASIZE PUSH1 0x0 REVERT JUMPDEST POP POP POP POP PUSH1 0x40 MLOAD RETURNDATASIZE PUSH1 0x1F NOT PUSH1 0x1F DUP3 ADD AND DUP3 ADD DUP1 PUSH1 0x40 MSTORE POP DUP2 ADD SWAP1 PUSH2 0x1320 SWAP2 SWAP1 PUSH2 0x29FF JUMP JUMPDEST POP PUSH2 0x1361 PUSH2 0x134E DUP5 PUSH2 0x1340 PUSH5 0xE8D4A51000 DUP6 PUSH2 0x1C44 SWAP1 SWAP2 SWAP1 PUSH4 0xFFFFFFFF AND JUMP JUMPDEST PUSH2 0x1CBE SWAP1 SWAP2 SWAP1 PUSH4 0xFFFFFFFF AND JUMP JUMPDEST DUP6 PUSH1 0x3 ADD SLOAD PUSH2 0x1D5A SWAP1 SWAP2 SWAP1 PUSH4 0xFFFFFFFF AND JUMP JUMPDEST DUP5 PUSH1 0x3 ADD DUP2 SWAP1 SSTORE POP NUMBER DUP5 PUSH1 0x2 ADD DUP2 SWAP1 SSTORE POP POP POP POP POP JUMPDEST POP JUMP JUMPDEST PUSH2 0x1382 PUSH2 0x1D52 JUMP JUMPDEST PUSH20 0xFFFFFFFFFFFFFFFFFFFFFFFFFFFFFFFFFFFFFFFF AND PUSH2 0x13A0 PUSH2 0x1679 JUMP JUMPDEST PUSH20 0xFFFFFFFFFFFFFFFFFFFFFFFFFFFFFFFFFFFFFFFF AND EQ PUSH2 0x13F6 JUMPI PUSH1 0x40 MLOAD PUSH32 0x8C379A000000000000000000000000000000000000000000000000000000000 DUP2 MSTORE PUSH1 0x4 ADD PUSH2 0x13ED SWAP1 PUSH2 0x2AA1 JUMP JUMPDEST PUSH1 0x40 MLOAD DUP1 SWAP2 SUB SWAP1 REVERT JUMPDEST DUP1 PUSH1 0x5 DUP2 SWAP1 SSTORE POP POP JUMP JUMPDEST PUSH2 0x1408 PUSH2 0x1D52 JUMP JUMPDEST PUSH20 0xFFFFFFFFFFFFFFFFFFFFFFFFFFFFFFFFFFFFFFFF AND PUSH2 0x1426 PUSH2 0x1679 JUMP JUMPDEST PUSH20 0xFFFFFFFFFFFFFFFFFFFFFFFFFFFFFFFFFFFFFFFF AND EQ PUSH2 0x147C JUMPI PUSH1 0x40 MLOAD PUSH32 0x8C379A000000000000000000000000000000000000000000000000000000000 DUP2 MSTORE PUSH1 0x4 ADD PUSH2 0x1473 SWAP1 PUSH2 0x2AA1 JUMP JUMPDEST PUSH1 0x40 MLOAD DUP1 SWAP2 SUB SWAP1 REVERT JUMPDEST DUP1 PUSH1 0x4 DUP2 SWAP1 SSTORE POP POP JUMP JUMPDEST PUSH1 0x0 PUSH1 0x7 DUP1 SLOAD SWAP1 POP SWAP1 POP PUSH1 0x0 JUMPDEST DUP2 DUP2 LT ISZERO PUSH2 0x14B5 JUMPI PUSH2 0x14A4 DUP2 PUSH2 0x113A JUMP JUMPDEST DUP1 PUSH2 0x14AE SWAP1 PUSH2 0x2B32 JUMP JUMPDEST SWAP1 POP PUSH2 0x1493 JUMP JUMPDEST POP POP JUMP JUMPDEST PUSH2 0x14C1 PUSH2 0x1D52 JUMP JUMPDEST PUSH20 0xFFFFFFFFFFFFFFFFFFFFFFFFFFFFFFFFFFFFFFFF AND PUSH2 0x14DF PUSH2 0x1679 JUMP JUMPDEST PUSH20 0xFFFFFFFFFFFFFFFFFFFFFFFFFFFFFFFFFFFFFFFF AND EQ PUSH2 0x1535 JUMPI PUSH1 0x40 MLOAD PUSH32 0x8C379A000000000000000000000000000000000000000000000000000000000 DUP2 MSTORE PUSH1 0x4 ADD PUSH2 0x152C SWAP1 PUSH2 0x2AA1 JUMP JUMPDEST PUSH1 0x40 MLOAD DUP1 SWAP2 SUB SWAP1 REVERT JUMPDEST DUP1 ISZERO PUSH2 0x1544 JUMPI PUSH2 0x1543 PUSH2 0x1486 JUMP JUMPDEST JUMPDEST PUSH2 0x1590 DUP3 PUSH2 0x1582 PUSH1 0x7 DUP7 DUP2 SLOAD DUP2 LT PUSH2 0x155F JUMPI PUSH2 0x155E PUSH2 0x2915 JUMP JUMPDEST JUMPDEST SWAP1 PUSH1 0x0 MSTORE PUSH1 0x20 PUSH1 0x0 KECCAK256 SWAP1 PUSH1 0x4 MUL ADD PUSH1 0x1 ADD SLOAD PUSH1 0x9 SLOAD PUSH2 0x1D08 SWAP1 SWAP2 SWAP1 PUSH4 0xFFFFFFFF AND JUMP JUMPDEST PUSH2 0x1D5A SWAP1 SWAP2 SWAP1 PUSH4 0xFFFFFFFF AND JUMP JUMPDEST PUSH1 0x9 DUP2 SWAP1 SSTORE POP DUP2 PUSH1 0x7 DUP5 DUP2 SLOAD DUP2 LT PUSH2 0x15AB JUMPI PUSH2 0x15AA PUSH2 0x2915 JUMP JUMPDEST JUMPDEST SWAP1 PUSH1 0x0 MSTORE PUSH1 0x20 PUSH1 0x0 KECCAK256 SWAP1 PUSH1 0x4 MUL ADD PUSH1 0x1 ADD DUP2 SWAP1 SSTORE POP POP POP POP JUMP JUMPDEST PUSH2 0x15CD PUSH2 0x1D52 JUMP JUMPDEST PUSH20 0xFFFFFFFFFFFFFFFFFFFFFFFFFFFFFFFFFFFFFFFF AND PUSH2 0x15EB PUSH2 0x1679 JUMP JUMPDEST PUSH20 0xFFFFFFFFFFFFFFFFFFFFFFFFFFFFFFFFFFFFFFFF AND EQ PUSH2 0x1641 JUMPI PUSH1 0x40 MLOAD PUSH32 0x8C379A000000000000000000000000000000000000000000000000000000000 DUP2 MSTORE PUSH1 0x4 ADD PUSH2 0x1638 SWAP1 PUSH2 0x2AA1 JUMP JUMPDEST PUSH1 0x40 MLOAD DUP1 SWAP2 SUB SWAP1 REVERT JUMPDEST PUSH2 0x164B PUSH1 0x0 PUSH2 0x1FAD JUMP JUMPDEST JUMP JUMPDEST PUSH1 0x6 PUSH1 0x0 SWAP1 SLOAD SWAP1 PUSH2 0x100 EXP SWAP1 DIV PUSH20 0xFFFFFFFFFFFFFFFFFFFFFFFFFFFFFFFFFFFFFFFF AND DUP2 JUMP JUMPDEST PUSH1 0x5 SLOAD DUP2 JUMP JUMPDEST PUSH1 0x0 DUP1 PUSH1 0x0 SWAP1 SLOAD SWAP1 PUSH2 0x100 EXP SWAP1 DIV PUSH20 0xFFFFFFFFFFFFFFFFFFFFFFFFFFFFFFFFFFFFFFFF AND SWAP1 POP SWAP1 JUMP JUMPDEST PUSH1 0x0 PUSH2 0x16CB PUSH1 0x5 SLOAD PUSH2 0x16BD DUP6 DUP6 PUSH2 0x1D08 SWAP1 SWAP2 SWAP1 PUSH4 0xFFFFFFFF AND JUMP JUMPDEST PUSH2 0x1C44 SWAP1 SWAP2 SWAP1 PUSH4 0xFFFFFFFF AND JUMP JUMPDEST SWAP1 POP SWAP3 SWAP2 POP POP JUMP JUMPDEST PUSH1 0x8 PUSH1 0x20 MSTORE DUP2 PUSH1 0x0 MSTORE PUSH1 0x40 PUSH1 0x0 KECCAK256 PUSH1 0x20 MSTORE DUP1 PUSH1 0x0 MSTORE PUSH1 0x40 PUSH1 0x0 KECCAK256 PUSH1 0x0 SWAP2 POP SWAP2 POP POP DUP1 PUSH1 0x1 ADD SLOAD SWAP1 DUP1 PUSH1 0x2 ADD SLOAD SWAP1 POP DUP3 JUMP JUMPDEST PUSH1 0x2 PUSH1 0x0 SWAP1 SLOAD SWAP1 PUSH2 0x100 EXP SWAP1 DIV PUSH20 0xFFFFFFFFFFFFFFFFFFFFFFFFFFFFFFFFFFFFFFFF AND DUP2 JUMP JUMPDEST PUSH2 0x1732 PUSH2 0x1D52 JUMP JUMPDEST PUSH20 0xFFFFFFFFFFFFFFFFFFFFFFFFFFFFFFFFFFFFFFFF AND PUSH2 0x1750 PUSH2 0x1679 JUMP JUMPDEST PUSH20 0xFFFFFFFFFFFFFFFFFFFFFFFFFFFFFFFFFFFFFFFF AND EQ PUSH2 0x17A6 JUMPI PUSH1 0x40 MLOAD PUSH32 0x8C379A000000000000000000000000000000000000000000000000000000000 DUP2 MSTORE PUSH1 0x4 ADD PUSH2 0x179D SWAP1 PUSH2 0x2AA1 JUMP JUMPDEST PUSH1 0x40 MLOAD DUP1 SWAP2 SUB SWAP1 REVERT JUMPDEST DUP1 PUSH1 0x3 PUSH1 0x0 PUSH2 0x100 EXP DUP2 SLOAD DUP2 PUSH20 0xFFFFFFFFFFFFFFFFFFFFFFFFFFFFFFFFFFFFFFFF MUL NOT AND SWAP1 DUP4 PUSH20 0xFFFFFFFFFFFFFFFFFFFFFFFFFFFFFFFFFFFFFFFF AND MUL OR SWAP1 SSTORE POP POP JUMP JUMPDEST PUSH1 0x3 PUSH1 0x0 SWAP1 SLOAD SWAP1 PUSH2 0x100 EXP SWAP1 DIV PUSH20 0xFFFFFFFFFFFFFFFFFFFFFFFFFFFFFFFFFFFFFFFF AND DUP2 JUMP JUMPDEST PUSH1 0x60 PUSH1 0x0 PUSH1 0x8 PUSH1 0x0 DUP6 DUP2 MSTORE PUSH1 0x20 ADD SWAP1 DUP2 MSTORE PUSH1 0x20 ADD PUSH1 0x0 KECCAK256 PUSH1 0x0 DUP5 PUSH20 0xFFFFFFFFFFFFFFFFFFFFFFFFFFFFFFFFFFFFFFFF AND PUSH20 0xFFFFFFFFFFFFFFFFFFFFFFFFFFFFFFFFFFFFFFFF AND DUP2 MSTORE PUSH1 0x20 ADD SWAP1 DUP2 MSTORE PUSH1 0x20 ADD PUSH1 0x0 KECCAK256 SWAP1 POP DUP1 PUSH1 0x0 ADD DUP1 SLOAD DUP1 PUSH1 0x20 MUL PUSH1 0x20 ADD PUSH1 0x40 MLOAD SWAP1 DUP2 ADD PUSH1 0x40 MSTORE DUP1 SWAP3 SWAP2 SWAP1 DUP2 DUP2 MSTORE PUSH1 0x20 ADD DUP3 DUP1 SLOAD DUP1 ISZERO PUSH2 0x18B4 JUMPI PUSH1 0x20 MUL DUP3 ADD SWAP2 SWAP1 PUSH1 0x0 MSTORE PUSH1 0x20 PUSH1 0x0 KECCAK256 SWAP1 JUMPDEST DUP2 SLOAD DUP2 MSTORE PUSH1 0x20 ADD SWAP1 PUSH1 0x1 ADD SWAP1 DUP1 DUP4 GT PUSH2 0x18A0 JUMPI JUMPDEST POP POP POP POP POP SWAP2 POP POP SWAP3 SWAP2 POP POP JUMP JUMPDEST PUSH1 0x0 PUSH1 0x7 DUP4 DUP2 SLOAD DUP2 LT PUSH2 0x18D8 JUMPI PUSH2 0x18D7 PUSH2 0x2915 JUMP JUMPDEST JUMPDEST SWAP1 PUSH1 0x0 MSTORE PUSH1 0x20 PUSH1 0x0 KECCAK256 SWAP1 PUSH1 0x4 MUL ADD SWAP1 POP PUSH1 0x0 PUSH1 0x8 PUSH1 0x0 DUP6 DUP2 MSTORE PUSH1 0x20 ADD SWAP1 DUP2 MSTORE PUSH1 0x20 ADD PUSH1 0x0 KECCAK256 PUSH1 0x0 CALLER PUSH20 0xFFFFFFFFFFFFFFFFFFFFFFFFFFFFFFFFFFFFFFFF AND PUSH20 0xFFFFFFFFFFFFFFFFFFFFFFFFFFFFFFFFFFFFFFFF AND DUP2 MSTORE PUSH1 0x20 ADD SWAP1 DUP2 MSTORE PUSH1 0x20 ADD PUSH1 0x0 KECCAK256 SWAP1 POP PUSH2 0x1945 DUP5 PUSH2 0x113A JUMP JUMPDEST PUSH1 0x0 DUP2 PUSH1 0x1 ADD SLOAD GT ISZERO PUSH2 0x19B4 JUMPI PUSH1 0x0 PUSH2 0x199C DUP3 PUSH1 0x2 ADD SLOAD PUSH2 0x198E PUSH5 0xE8D4A51000 PUSH2 0x1980 DUP8 PUSH1 0x3 ADD SLOAD DUP8 PUSH1 0x1 ADD SLOAD PUSH2 0x1C44 SWAP1 SWAP2 SWAP1 PUSH4 0xFFFFFFFF AND JUMP JUMPDEST PUSH2 0x1CBE SWAP1 SWAP2 SWAP1 PUSH4 0xFFFFFFFF AND JUMP JUMPDEST PUSH2 0x1D08 SWAP1 SWAP2 SWAP1 PUSH4 0xFFFFFFFF AND JUMP JUMPDEST SWAP1 POP PUSH1 0x0 DUP2 GT ISZERO PUSH2 0x19B2 JUMPI PUSH2 0x19B1 CALLER DUP3 PUSH2 0x1DB8 JUMP JUMPDEST JUMPDEST POP JUMPDEST DUP2 PUSH1 0x0 ADD PUSH1 0x0 SWAP1 SLOAD SWAP1 PUSH2 0x100 EXP SWAP1 DIV PUSH20 0xFFFFFFFFFFFFFFFFFFFFFFFFFFFFFFFFFFFFFFFF AND PUSH20 0xFFFFFFFFFFFFFFFFFFFFFFFFFFFFFFFFFFFFFFFF AND PUSH4 0x42842E0E CALLER ADDRESS DUP7 PUSH1 0x40 MLOAD DUP5 PUSH4 0xFFFFFFFF AND PUSH1 0xE0 SHL DUP2 MSTORE PUSH1 0x4 ADD PUSH2 0x1A15 SWAP4 SWAP3 SWAP2 SWAP1 PUSH2 0x2C52 JUMP JUMPDEST PUSH1 0x0 PUSH1 0x40 MLOAD DUP1 DUP4 SUB DUP2 PUSH1 0x0 DUP8 DUP1 EXTCODESIZE ISZERO DUP1 ISZERO PUSH2 0x1A2F JUMPI PUSH1 0x0 DUP1 REVERT JUMPDEST POP GAS CALL ISZERO DUP1 ISZERO PUSH2 0x1A43 JUMPI RETURNDATASIZE PUSH1 0x0 DUP1 RETURNDATACOPY RETURNDATASIZE PUSH1 0x0 REVERT JUMPDEST POP POP POP POP PUSH2 0x1A5F PUSH1 0x1 DUP3 PUSH1 0x1 ADD SLOAD PUSH2 0x1D5A SWAP1 SWAP2 SWAP1 PUSH4 0xFFFFFFFF AND JUMP JUMPDEST DUP2 PUSH1 0x1 ADD DUP2 SWAP1 SSTORE POP PUSH2 0x1A99 PUSH5 0xE8D4A51000 PUSH2 0x1A8B DUP5 PUSH1 0x3 ADD SLOAD DUP5 PUSH1 0x1 ADD SLOAD PUSH2 0x1C44 SWAP1 SWAP2 SWAP1 PUSH4 0xFFFFFFFF AND JUMP JUMPDEST PUSH2 0x1CBE SWAP1 SWAP2 SWAP1 PUSH4 0xFFFFFFFF AND JUMP JUMPDEST DUP2 PUSH1 0x2 ADD DUP2 SWAP1 SSTORE POP DUP1 PUSH1 0x0 ADD DUP4 SWAP1 DUP1 PUSH1 0x1 DUP2 SLOAD ADD DUP1 DUP3 SSTORE DUP1 SWAP2 POP POP PUSH1 0x1 SWAP1 SUB SWAP1 PUSH1 0x0 MSTORE PUSH1 0x20 PUSH1 0x0 KECCAK256 ADD PUSH1 0x0 SWAP1 SWAP2 SWAP1 SWAP2 SWAP1 SWAP2 POP SSTORE DUP4 CALLER PUSH20 0xFFFFFFFFFFFFFFFFFFFFFFFFFFFFFFFFFFFFFFFF AND PUSH32 0x90890809C654F11D6E72A28FA60149770A0D11EC6C92319D6CEB2BB0A4EA1A15 DUP6 PUSH1 0x40 MLOAD PUSH2 0x1B13 SWAP2 SWAP1 PUSH2 0x2151 JUMP JUMPDEST PUSH1 0x40 MLOAD DUP1 SWAP2 SUB SWAP1 LOG3 POP POP POP POP JUMP JUMPDEST PUSH1 0x1 PUSH1 0x0 SWAP1 SLOAD SWAP1 PUSH2 0x100 EXP SWAP1 DIV PUSH20 0xFFFFFFFFFFFFFFFFFFFFFFFFFFFFFFFFFFFFFFFF AND DUP2 JUMP JUMPDEST PUSH2 0x1B4F PUSH2 0x1D52 JUMP JUMPDEST PUSH20 0xFFFFFFFFFFFFFFFFFFFFFFFFFFFFFFFFFFFFFFFF AND PUSH2 0x1B6D PUSH2 0x1679 JUMP JUMPDEST PUSH20 0xFFFFFFFFFFFFFFFFFFFFFFFFFFFFFFFFFFFFFFFF AND EQ PUSH2 0x1BC3 JUMPI PUSH1 0x40 MLOAD PUSH32 0x8C379A000000000000000000000000000000000000000000000000000000000 DUP2 MSTORE PUSH1 0x4 ADD PUSH2 0x1BBA SWAP1 PUSH2 0x2AA1 JUMP JUMPDEST PUSH1 0x40 MLOAD DUP1 SWAP2 SUB SWAP1 REVERT JUMPDEST PUSH1 0x0 PUSH20 0xFFFFFFFFFFFFFFFFFFFFFFFFFFFFFFFFFFFFFFFF AND DUP2 PUSH20 0xFFFFFFFFFFFFFFFFFFFFFFFFFFFFFFFFFFFFFFFF AND SUB PUSH2 0x1C32 JUMPI PUSH1 0x40 MLOAD PUSH32 0x8C379A000000000000000000000000000000000000000000000000000000000 DUP2 MSTORE PUSH1 0x4 ADD PUSH2 0x1C29 SWAP1 PUSH2 0x2CFB JUMP JUMPDEST PUSH1 0x40 MLOAD DUP1 SWAP2 SUB SWAP1 REVERT JUMPDEST PUSH2 0x1C3B DUP2 PUSH2 0x1FAD JUMP JUMPDEST POP JUMP JUMPDEST PUSH1 0x4 SLOAD DUP2 JUMP JUMPDEST PUSH1 0x0 DUP1 DUP4 SUB PUSH2 0x1C56 JUMPI PUSH1 0x0 SWAP1 POP PUSH2 0x1CB8 JUMP JUMPDEST PUSH1 0x0 DUP3 DUP5 PUSH2 0x1C64 SWAP2 SWAP1 PUSH2 0x2D1B JUMP JUMPDEST SWAP1 POP DUP3 DUP5 DUP3 PUSH2 0x1C73 SWAP2 SWAP1 PUSH2 0x2DA4 JUMP JUMPDEST EQ PUSH2 0x1CB3 JUMPI PUSH1 0x40 MLOAD PUSH32 0x8C379A000000000000000000000000000000000000000000000000000000000 DUP2 MSTORE PUSH1 0x4 ADD PUSH2 0x1CAA SWAP1 PUSH2 0x2E47 JUMP JUMPDEST PUSH1 0x40 MLOAD DUP1 SWAP2 SUB SWAP1 REVERT JUMPDEST DUP1 SWAP2 POP POP JUMPDEST SWAP3 SWAP2 POP POP JUMP JUMPDEST PUSH1 0x0 PUSH2 0x1D00 DUP4 DUP4 PUSH1 0x40 MLOAD DUP1 PUSH1 0x40 ADD PUSH1 0x40 MSTORE DUP1 PUSH1 0x1A DUP2 MSTORE PUSH1 0x20 ADD PUSH32 0x536166654D6174683A206469766973696F6E206279207A65726F000000000000 DUP2 MSTORE POP PUSH2 0x2071 JUMP JUMPDEST SWAP1 POP SWAP3 SWAP2 POP POP JUMP JUMPDEST PUSH1 0x0 PUSH2 0x1D4A DUP4 DUP4 PUSH1 0x40 MLOAD DUP1 PUSH1 0x40 ADD PUSH1 0x40 MSTORE DUP1 PUSH1 0x1E DUP2 MSTORE PUSH1 0x20 ADD PUSH32 0x536166654D6174683A207375627472616374696F6E206F766572666C6F770000 DUP2 MSTORE POP PUSH2 0x20D4 JUMP JUMPDEST SWAP1 POP SWAP3 SWAP2 POP POP JUMP JUMPDEST PUSH1 0x0 CALLER SWAP1 POP SWAP1 JUMP JUMPDEST PUSH1 0x0 DUP1 DUP3 DUP5 PUSH2 0x1D69 SWAP2 SWAP1 PUSH2 0x2E67 JUMP JUMPDEST SWAP1 POP DUP4 DUP2 LT ISZERO PUSH2 0x1DAE JUMPI PUSH1 0x40 MLOAD PUSH32 0x8C379A000000000000000000000000000000000000000000000000000000000 DUP2 MSTORE PUSH1 0x4 ADD PUSH2 0x1DA5 SWAP1 PUSH2 0x2F09 JUMP JUMPDEST PUSH1 0x40 MLOAD DUP1 SWAP2 SUB SWAP1 REVERT JUMPDEST DUP1 SWAP2 POP POP SWAP3 SWAP2 POP POP JUMP JUMPDEST PUSH1 0x0 PUSH1 0x2 PUSH1 0x0 SWAP1 SLOAD SWAP1 PUSH2 0x100 EXP SWAP1 DIV PUSH20 0xFFFFFFFFFFFFFFFFFFFFFFFFFFFFFFFFFFFFFFFF AND PUSH20 0xFFFFFFFFFFFFFFFFFFFFFFFFFFFFFFFFFFFFFFFF AND PUSH4 0x70A08231 ADDRESS PUSH1 0x40 MLOAD DUP3 PUSH4 0xFFFFFFFF AND PUSH1 0xE0 SHL DUP2 MSTORE PUSH1 0x4 ADD PUSH2 0x1E15 SWAP2 SWAP1 PUSH2 0x274C JUMP JUMPDEST PUSH1 0x20 PUSH1 0x40 MLOAD DUP1 DUP4 SUB DUP2 DUP7 GAS STATICCALL ISZERO DUP1 ISZERO PUSH2 0x1E32 JUMPI RETURNDATASIZE PUSH1 0x0 DUP1 RETURNDATACOPY RETURNDATASIZE PUSH1 0x0 REVERT JUMPDEST POP POP POP POP PUSH1 0x40 MLOAD RETURNDATASIZE PUSH1 0x1F NOT PUSH1 0x1F DUP3 ADD AND DUP3 ADD DUP1 PUSH1 0x40 MSTORE POP DUP2 ADD SWAP1 PUSH2 0x1E56 SWAP2 SWAP1 PUSH2 0x2AD6 JUMP JUMPDEST SWAP1 POP DUP1 DUP3 GT ISZERO PUSH2 0x1F06 JUMPI PUSH1 0x2 PUSH1 0x0 SWAP1 SLOAD SWAP1 PUSH2 0x100 EXP SWAP1 DIV PUSH20 0xFFFFFFFFFFFFFFFFFFFFFFFFFFFFFFFFFFFFFFFF AND PUSH20 0xFFFFFFFFFFFFFFFFFFFFFFFFFFFFFFFFFFFFFFFF AND PUSH4 0xA9059CBB DUP5 DUP4 PUSH1 0x40 MLOAD DUP4 PUSH4 0xFFFFFFFF AND PUSH1 0xE0 SHL DUP2 MSTORE PUSH1 0x4 ADD PUSH2 0x1EBD SWAP3 SWAP2 SWAP1 PUSH2 0x29C1 JUMP JUMPDEST PUSH1 0x20 PUSH1 0x40 MLOAD DUP1 DUP4 SUB DUP2 PUSH1 0x0 DUP8 GAS CALL ISZERO DUP1 ISZERO PUSH2 0x1EDC JUMPI RETURNDATASIZE PUSH1 0x0 DUP1 RETURNDATACOPY RETURNDATASIZE PUSH1 0x0 REVERT JUMPDEST POP POP POP POP PUSH1 0x40 MLOAD RETURNDATASIZE PUSH1 0x1F NOT PUSH1 0x1F DUP3 ADD AND DUP3 ADD DUP1 PUSH1 0x40 MSTORE POP DUP2 ADD SWAP1 PUSH2 0x1F00 SWAP2 SWAP1 PUSH2 0x29FF JUMP JUMPDEST POP PUSH2 0x1FA8 JUMP JUMPDEST PUSH1 0x2 PUSH1 0x0 SWAP1 SLOAD SWAP1 PUSH2 0x100 EXP SWAP1 DIV PUSH20 0xFFFFFFFFFFFFFFFFFFFFFFFFFFFFFFFFFFFFFFFF AND PUSH20 0xFFFFFFFFFFFFFFFFFFFFFFFFFFFFFFFFFFFFFFFF AND PUSH4 0xA9059CBB DUP5 DUP5 PUSH1 0x40 MLOAD DUP4 PUSH4 0xFFFFFFFF AND PUSH1 0xE0 SHL DUP2 MSTORE PUSH1 0x4 ADD PUSH2 0x1F63 SWAP3 SWAP2 SWAP1 PUSH2 0x29C1 JUMP JUMPDEST PUSH1 0x20 PUSH1 0x40 MLOAD DUP1 DUP4 SUB DUP2 PUSH1 0x0 DUP8 GAS CALL ISZERO DUP1 ISZERO PUSH2 0x1F82 JUMPI RETURNDATASIZE PUSH1 0x0 DUP1 RETURNDATACOPY RETURNDATASIZE PUSH1 0x0 REVERT JUMPDEST POP POP POP POP PUSH1 0x40 MLOAD RETURNDATASIZE PUSH1 0x1F NOT PUSH1 0x1F DUP3 ADD AND DUP3 ADD DUP1 PUSH1 0x40 MSTORE POP DUP2 ADD SWAP1 PUSH2 0x1FA6 SWAP2 SWAP1 PUSH2 0x29FF JUMP JUMPDEST POP JUMPDEST POP POP POP JUMP JUMPDEST PUSH1 0x0 DUP1 PUSH1 0x0 SWAP1 SLOAD SWAP1 PUSH2 0x100 EXP SWAP1 DIV PUSH20 0xFFFFFFFFFFFFFFFFFFFFFFFFFFFFFFFFFFFFFFFF AND SWAP1 POP DUP2 PUSH1 0x0 DUP1 PUSH2 0x100 EXP DUP2 SLOAD DUP2 PUSH20 0xFFFFFFFFFFFFFFFFFFFFFFFFFFFFFFFFFFFFFFFF MUL NOT AND SWAP1 DUP4 PUSH20 0xFFFFFFFFFFFFFFFFFFFFFFFFFFFFFFFFFFFFFFFF AND MUL OR SWAP1 SSTORE POP DUP2 PUSH20 0xFFFFFFFFFFFFFFFFFFFFFFFFFFFFFFFFFFFFFFFF AND DUP2 PUSH20 0xFFFFFFFFFFFFFFFFFFFFFFFFFFFFFFFFFFFFFFFF AND PUSH32 0x8BE0079C531659141344CD1FD0A4F28419497F9722A3DAAFE3B4186F6B6457E0 PUSH1 0x40 MLOAD PUSH1 0x40 MLOAD DUP1 SWAP2 SUB SWAP1 LOG3 POP POP JUMP JUMPDEST PUSH1 0x0 DUP1 DUP4 GT DUP3 SWAP1 PUSH2 0x20B8 JUMPI PUSH1 0x40 MLOAD PUSH32 0x8C379A000000000000000000000000000000000000000000000000000000000 DUP2 MSTORE PUSH1 0x4 ADD PUSH2 0x20AF SWAP2 SWAP1 PUSH2 0x2FA0 JUMP JUMPDEST PUSH1 0x40 MLOAD DUP1 SWAP2 SUB SWAP1 REVERT JUMPDEST POP PUSH1 0x0 DUP4 DUP6 PUSH2 0x20C7 SWAP2 SWAP1 PUSH2 0x2DA4 JUMP JUMPDEST SWAP1 POP DUP1 SWAP2 POP POP SWAP4 SWAP3 POP POP POP JUMP JUMPDEST PUSH1 0x0 DUP4 DUP4 GT ISZERO DUP3 SWAP1 PUSH2 0x211C JUMPI PUSH1 0x40 MLOAD PUSH32 0x8C379A000000000000000000000000000000000000000000000000000000000 DUP2 MSTORE PUSH1 0x4 ADD PUSH2 0x2113 SWAP2 SWAP1 PUSH2 0x2FA0 JUMP JUMPDEST PUSH1 0x40 MLOAD DUP1 SWAP2 SUB SWAP1 REVERT JUMPDEST POP PUSH1 0x0 DUP4 DUP6 PUSH2 0x212B SWAP2 SWAP1 PUSH2 0x2FC2 JUMP JUMPDEST SWAP1 POP DUP1 SWAP2 POP POP SWAP4 SWAP3 POP POP POP JUMP JUMPDEST PUSH1 0x0 DUP2 SWAP1 POP SWAP2 SWAP1 POP JUMP JUMPDEST PUSH2 0x214B DUP2 PUSH2 0x2138 JUMP JUMPDEST DUP3 MSTORE POP POP JUMP JUMPDEST PUSH1 0x0 PUSH1 0x20 DUP3 ADD SWAP1 POP PUSH2 0x2166 PUSH1 0x0 DUP4 ADD DUP5 PUSH2 0x2142 JUMP JUMPDEST SWAP3 SWAP2 POP POP JUMP JUMPDEST PUSH1 0x0 PUSH1 0x40 MLOAD SWAP1 POP SWAP1 JUMP JUMPDEST PUSH1 0x0 DUP1 REVERT JUMPDEST PUSH1 0x0 DUP1 REVERT JUMPDEST PUSH2 0x2189 DUP2 PUSH2 0x2138 JUMP JUMPDEST DUP2 EQ PUSH2 0x2194 JUMPI PUSH1 0x0 DUP1 REVERT JUMPDEST POP JUMP JUMPDEST PUSH1 0x0 DUP2 CALLDATALOAD SWAP1 POP PUSH2 0x21A6 DUP2 PUSH2 0x2180 JUMP JUMPDEST SWAP3 SWAP2 POP POP JUMP JUMPDEST PUSH1 0x0 PUSH1 0x20 DUP3 DUP5 SUB SLT ISZERO PUSH2 0x21C2 JUMPI PUSH2 0x21C1 PUSH2 0x2176 JUMP JUMPDEST JUMPDEST PUSH1 0x0 PUSH2 0x21D0 DUP5 DUP3 DUP6 ADD PUSH2 0x2197 JUMP JUMPDEST SWAP2 POP POP SWAP3 SWAP2 POP POP JUMP JUMPDEST PUSH1 0x0 PUSH20 0xFFFFFFFFFFFFFFFFFFFFFFFFFFFFFFFFFFFFFFFF DUP3 AND SWAP1 POP SWAP2 SWAP1 POP JUMP JUMPDEST PUSH1 0x0 PUSH2 0x2204 DUP3 PUSH2 0x21D9 JUMP JUMPDEST SWAP1 POP SWAP2 SWAP1 POP JUMP JUMPDEST PUSH2 0x2214 DUP2 PUSH2 0x21F9 JUMP JUMPDEST DUP2 EQ PUSH2 0x221F JUMPI PUSH1 0x0 DUP1 REVERT JUMPDEST POP JUMP JUMPDEST PUSH1 0x0 DUP2 CALLDATALOAD SWAP1 POP PUSH2 0x2231 DUP2 PUSH2 0x220B JUMP JUMPDEST SWAP3 SWAP2 POP POP JUMP JUMPDEST PUSH1 0x0 DUP1 REVERT JUMPDEST PUSH1 0x0 DUP1 REVERT JUMPDEST PUSH1 0x0 PUSH1 0x1F NOT PUSH1 0x1F DUP4 ADD AND SWAP1 POP SWAP2 SWAP1 POP JUMP JUMPDEST PUSH32 0x4E487B7100000000000000000000000000000000000000000000000000000000 PUSH1 0x0 MSTORE PUSH1 0x41 PUSH1 0x4 MSTORE PUSH1 0x24 PUSH1 0x0 REVERT JUMPDEST PUSH2 0x228A DUP3 PUSH2 0x2241 JUMP JUMPDEST DUP2 ADD DUP2 DUP2 LT PUSH8 0xFFFFFFFFFFFFFFFF DUP3 GT OR ISZERO PUSH2 0x22A9 JUMPI PUSH2 0x22A8 PUSH2 0x2252 JUMP JUMPDEST JUMPDEST DUP1 PUSH1 0x40 MSTORE POP POP POP JUMP JUMPDEST PUSH1 0x0 PUSH2 0x22BC PUSH2 0x216C JUMP JUMPDEST SWAP1 POP PUSH2 0x22C8 DUP3 DUP3 PUSH2 0x2281 JUMP JUMPDEST SWAP2 SWAP1 POP JUMP JUMPDEST PUSH1 0x0 PUSH8 0xFFFFFFFFFFFFFFFF DUP3 GT ISZERO PUSH2 0x22E8 JUMPI PUSH2 0x22E7 PUSH2 0x2252 JUMP JUMPDEST JUMPDEST PUSH2 0x22F1 DUP3 PUSH2 0x2241 JUMP JUMPDEST SWAP1 POP PUSH1 0x20 DUP2 ADD SWAP1 POP SWAP2 SWAP1 POP JUMP JUMPDEST DUP3 DUP2 DUP4 CALLDATACOPY PUSH1 0x0 DUP4 DUP4 ADD MSTORE POP POP POP JUMP JUMPDEST PUSH1 0x0 PUSH2 0x2320 PUSH2 0x231B DUP5 PUSH2 0x22CD JUMP JUMPDEST PUSH2 0x22B2 JUMP JUMPDEST SWAP1 POP DUP3 DUP2 MSTORE PUSH1 0x20 DUP2 ADD DUP5 DUP5 DUP5 ADD GT ISZERO PUSH2 0x233C JUMPI PUSH2 0x233B PUSH2 0x223C JUMP JUMPDEST JUMPDEST PUSH2 0x2347 DUP5 DUP3 DUP6 PUSH2 0x22FE JUMP JUMPDEST POP SWAP4 SWAP3 POP POP POP JUMP JUMPDEST PUSH1 0x0 DUP3 PUSH1 0x1F DUP4 ADD SLT PUSH2 0x2364 JUMPI PUSH2 0x2363 PUSH2 0x2237 JUMP JUMPDEST JUMPDEST DUP2 CALLDATALOAD PUSH2 0x2374 DUP5 DUP3 PUSH1 0x20 DUP7 ADD PUSH2 0x230D JUMP JUMPDEST SWAP2 POP POP SWAP3 SWAP2 POP POP JUMP JUMPDEST PUSH1 0x0 DUP1 PUSH1 0x0 DUP1 PUSH1 0x80 DUP6 DUP8 SUB SLT ISZERO PUSH2 0x2397 JUMPI PUSH2 0x2396 PUSH2 0x2176 JUMP JUMPDEST JUMPDEST PUSH1 0x0 PUSH2 0x23A5 DUP8 DUP3 DUP9 ADD PUSH2 0x2222 JUMP JUMPDEST SWAP5 POP POP PUSH1 0x20 PUSH2 0x23B6 DUP8 DUP3 DUP9 ADD PUSH2 0x2222 JUMP JUMPDEST SWAP4 POP POP PUSH1 0x40 PUSH2 0x23C7 DUP8 DUP3 DUP9 ADD PUSH2 0x2197 JUMP JUMPDEST SWAP3 POP POP PUSH1 0x60 DUP6 ADD CALLDATALOAD PUSH8 0xFFFFFFFFFFFFFFFF DUP2 GT ISZERO PUSH2 0x23E8 JUMPI PUSH2 0x23E7 PUSH2 0x217B JUMP JUMPDEST JUMPDEST PUSH2 0x23F4 DUP8 DUP3 DUP9 ADD PUSH2 0x234F JUMP JUMPDEST SWAP2 POP POP SWAP3 SWAP6 SWAP2 SWAP5 POP SWAP3 POP JUMP JUMPDEST PUSH1 0x0 PUSH32 0xFFFFFFFF00000000000000000000000000000000000000000000000000000000 DUP3 AND SWAP1 POP SWAP2 SWAP1 POP JUMP JUMPDEST PUSH2 0x2435 DUP2 PUSH2 0x2400 JUMP JUMPDEST DUP3 MSTORE POP POP JUMP JUMPDEST PUSH1 0x0 PUSH1 0x20 DUP3 ADD SWAP1 POP PUSH2 0x2450 PUSH1 0x0 DUP4 ADD DUP5 PUSH2 0x242C JUMP JUMPDEST SWAP3 SWAP2 POP POP JUMP JUMPDEST PUSH1 0x0 DUP2 SWAP1 POP SWAP2 SWAP1 POP JUMP JUMPDEST PUSH1 0x0 PUSH2 0x247B PUSH2 0x2476 PUSH2 0x2471 DUP5 PUSH2 0x21D9 JUMP JUMPDEST PUSH2 0x2456 JUMP JUMPDEST PUSH2 0x21D9 JUMP JUMPDEST SWAP1 POP SWAP2 SWAP1 POP JUMP JUMPDEST PUSH1 0x0 PUSH2 0x248D DUP3 PUSH2 0x2460 JUMP JUMPDEST SWAP1 POP SWAP2 SWAP1 POP JUMP JUMPDEST PUSH1 0x0 PUSH2 0x249F DUP3 PUSH2 0x2482 JUMP JUMPDEST SWAP1 POP SWAP2 SWAP1 POP JUMP JUMPDEST PUSH2 0x24AF DUP2 PUSH2 0x2494 JUMP JUMPDEST DUP3 MSTORE POP POP JUMP JUMPDEST PUSH1 0x0 PUSH1 0x80 DUP3 ADD SWAP1 POP PUSH2 0x24CA PUSH1 0x0 DUP4 ADD DUP8 PUSH2 0x24A6 JUMP JUMPDEST PUSH2 0x24D7 PUSH1 0x20 DUP4 ADD DUP7 PUSH2 0x2142 JUMP JUMPDEST PUSH2 0x24E4 PUSH1 0x40 DUP4 ADD DUP6 PUSH2 0x2142 JUMP JUMPDEST PUSH2 0x24F1 PUSH1 0x60 DUP4 ADD DUP5 PUSH2 0x2142 JUMP JUMPDEST SWAP6 SWAP5 POP POP POP POP POP JUMP JUMPDEST PUSH1 0x0 PUSH2 0x2505 DUP3 PUSH2 0x21F9 JUMP JUMPDEST SWAP1 POP SWAP2 SWAP1 POP JUMP JUMPDEST PUSH2 0x2515 DUP2 PUSH2 0x24FA JUMP JUMPDEST DUP2 EQ PUSH2 0x2520 JUMPI PUSH1 0x0 DUP1 REVERT JUMPDEST POP JUMP JUMPDEST PUSH1 0x0 DUP2 CALLDATALOAD SWAP1 POP PUSH2 0x2532 DUP2 PUSH2 0x250C JUMP JUMPDEST SWAP3 SWAP2 POP POP JUMP JUMPDEST PUSH1 0x0 DUP2 ISZERO ISZERO SWAP1 POP SWAP2 SWAP1 POP JUMP JUMPDEST PUSH2 0x254D DUP2 PUSH2 0x2538 JUMP JUMPDEST DUP2 EQ PUSH2 0x2558 JUMPI PUSH1 0x0 DUP1 REVERT JUMPDEST POP JUMP JUMPDEST PUSH1 0x0 DUP2 CALLDATALOAD SWAP1 POP PUSH2 0x256A DUP2 PUSH2 0x2544 JUMP JUMPDEST SWAP3 SWAP2 POP POP JUMP JUMPDEST PUSH1 0x0 DUP1 PUSH1 0x0 PUSH1 0x60 DUP5 DUP7 SUB SLT ISZERO PUSH2 0x2589 JUMPI PUSH2 0x2588 PUSH2 0x2176 JUMP JUMPDEST JUMPDEST PUSH1 0x0 PUSH2 0x2597 DUP7 DUP3 DUP8 ADD PUSH2 0x2197 JUMP JUMPDEST SWAP4 POP POP PUSH1 0x20 PUSH2 0x25A8 DUP7 DUP3 DUP8 ADD PUSH2 0x2523 JUMP JUMPDEST SWAP3 POP POP PUSH1 0x40 PUSH2 0x25B9 DUP7 DUP3 DUP8 ADD PUSH2 0x255B JUMP JUMPDEST SWAP2 POP POP SWAP3 POP SWAP3 POP SWAP3 JUMP JUMPDEST PUSH1 0x0 DUP1 PUSH1 0x40 DUP4 DUP6 SUB SLT ISZERO PUSH2 0x25DA JUMPI PUSH2 0x25D9 PUSH2 0x2176 JUMP JUMPDEST JUMPDEST PUSH1 0x0 PUSH2 0x25E8 DUP6 DUP3 DUP7 ADD PUSH2 0x2197 JUMP JUMPDEST SWAP3 POP POP PUSH1 0x20 PUSH2 0x25F9 DUP6 DUP3 DUP7 ADD PUSH2 0x2222 JUMP JUMPDEST SWAP2 POP POP SWAP3 POP SWAP3 SWAP1 POP JUMP JUMPDEST PUSH1 0x0 PUSH2 0x260E DUP3 PUSH2 0x21F9 JUMP JUMPDEST SWAP1 POP SWAP2 SWAP1 POP JUMP JUMPDEST PUSH2 0x261E DUP2 PUSH2 0x2603 JUMP JUMPDEST DUP2 EQ PUSH2 0x2629 JUMPI PUSH1 0x0 DUP1 REVERT JUMPDEST POP JUMP JUMPDEST PUSH1 0x0 DUP2 CALLDATALOAD SWAP1 POP PUSH2 0x263B DUP2 PUSH2 0x2615 JUMP JUMPDEST SWAP3 SWAP2 POP POP JUMP JUMPDEST PUSH1 0x0 PUSH1 0x20 DUP3 DUP5 SUB SLT ISZERO PUSH2 0x2657 JUMPI PUSH2 0x2656 PUSH2 0x2176 JUMP JUMPDEST JUMPDEST PUSH1 0x0 PUSH2 0x2665 DUP5 DUP3 DUP6 ADD PUSH2 0x262C JUMP JUMPDEST SWAP2 POP POP SWAP3 SWAP2 POP POP JUMP JUMPDEST PUSH1 0x0 DUP1 PUSH1 0x40 DUP4 DUP6 SUB SLT ISZERO PUSH2 0x2685 JUMPI PUSH2 0x2684 PUSH2 0x2176 JUMP JUMPDEST JUMPDEST PUSH1 0x0 PUSH2 0x2693 DUP6 DUP3 DUP7 ADD PUSH2 0x2197 JUMP JUMPDEST SWAP3 POP POP PUSH1 0x20 PUSH2 0x26A4 DUP6 DUP3 DUP7 ADD PUSH2 0x2197 JUMP JUMPDEST SWAP2 POP POP SWAP3 POP SWAP3 SWAP1 POP JUMP JUMPDEST PUSH1 0x0 DUP1 PUSH1 0x0 PUSH1 0x60 DUP5 DUP7 SUB SLT ISZERO PUSH2 0x26C7 JUMPI PUSH2 0x26C6 PUSH2 0x2176 JUMP JUMPDEST JUMPDEST PUSH1 0x0 PUSH2 0x26D5 DUP7 DUP3 DUP8 ADD PUSH2 0x2197 JUMP JUMPDEST SWAP4 POP POP PUSH1 0x20 PUSH2 0x26E6 DUP7 DUP3 DUP8 ADD PUSH2 0x2197 JUMP JUMPDEST SWAP3 POP POP PUSH1 0x40 PUSH2 0x26F7 DUP7 DUP3 DUP8 ADD PUSH2 0x255B JUMP JUMPDEST SWAP2 POP POP SWAP3 POP SWAP3 POP SWAP3 JUMP JUMPDEST PUSH1 0x0 PUSH2 0x270C DUP3 PUSH2 0x2482 JUMP JUMPDEST SWAP1 POP SWAP2 SWAP1 POP JUMP JUMPDEST PUSH2 0x271C DUP2 PUSH2 0x2701 JUMP JUMPDEST DUP3 MSTORE POP POP JUMP JUMPDEST PUSH1 0x0 PUSH1 0x20 DUP3 ADD SWAP1 POP PUSH2 0x2737 PUSH1 0x0 DUP4 ADD DUP5 PUSH2 0x2713 JUMP JUMPDEST SWAP3 SWAP2 POP POP JUMP JUMPDEST PUSH2 0x2746 DUP2 PUSH2 0x21F9 JUMP JUMPDEST DUP3 MSTORE POP POP JUMP JUMPDEST PUSH1 0x0 PUSH1 0x20 DUP3 ADD SWAP1 POP PUSH2 0x2761 PUSH1 0x0 DUP4 ADD DUP5 PUSH2 0x273D JUMP JUMPDEST SWAP3 SWAP2 POP POP JUMP JUMPDEST PUSH1 0x0 PUSH1 0x40 DUP3 ADD SWAP1 POP PUSH2 0x277C PUSH1 0x0 DUP4 ADD DUP6 PUSH2 0x2142 JUMP JUMPDEST PUSH2 0x2789 PUSH1 0x20 DUP4 ADD DUP5 PUSH2 0x2142 JUMP JUMPDEST SWAP4 SWAP3 POP POP POP JUMP JUMPDEST PUSH1 0x0 PUSH2 0x279B DUP3 PUSH2 0x2482 JUMP JUMPDEST SWAP1 POP SWAP2 SWAP1 POP JUMP JUMPDEST PUSH2 0x27AB DUP2 PUSH2 0x2790 JUMP JUMPDEST DUP3 MSTORE POP POP JUMP JUMPDEST PUSH1 0x0 PUSH1 0x20 DUP3 ADD SWAP1 POP PUSH2 0x27C6 PUSH1 0x0 DUP4 ADD DUP5 PUSH2 0x27A2 JUMP JUMPDEST SWAP3 SWAP2 POP POP JUMP JUMPDEST PUSH1 0x0 PUSH1 0x20 DUP3 DUP5 SUB SLT ISZERO PUSH2 0x27E2 JUMPI PUSH2 0x27E1 PUSH2 0x2176 JUMP JUMPDEST JUMPDEST PUSH1 0x0 PUSH2 0x27F0 DUP5 DUP3 DUP6 ADD PUSH2 0x2222 JUMP JUMPDEST SWAP2 POP POP SWAP3 SWAP2 POP POP JUMP JUMPDEST PUSH1 0x0 DUP2 MLOAD SWAP1 POP SWAP2 SWAP1 POP JUMP JUMPDEST PUSH1 0x0 DUP3 DUP3 MSTORE PUSH1 0x20 DUP3 ADD SWAP1 POP SWAP3 SWAP2 POP POP JUMP JUMPDEST PUSH1 0x0 DUP2 SWAP1 POP PUSH1 0x20 DUP3 ADD SWAP1 POP SWAP2 SWAP1 POP JUMP JUMPDEST PUSH2 0x282E DUP2 PUSH2 0x2138 JUMP JUMPDEST DUP3 MSTORE POP POP JUMP JUMPDEST PUSH1 0x0 PUSH2 0x2840 DUP4 DUP4 PUSH2 0x2825 JUMP JUMPDEST PUSH1 0x20 DUP4 ADD SWAP1 POP SWAP3 SWAP2 POP POP JUMP JUMPDEST PUSH1 0x0 PUSH1 0x20 DUP3 ADD SWAP1 POP SWAP2 SWAP1 POP JUMP JUMPDEST PUSH1 0x0 PUSH2 0x2864 DUP3 PUSH2 0x27F9 JUMP JUMPDEST PUSH2 0x286E DUP2 DUP6 PUSH2 0x2804 JUMP JUMPDEST SWAP4 POP PUSH2 0x2879 DUP4 PUSH2 0x2815 JUMP JUMPDEST DUP1 PUSH1 0x0 JUMPDEST DUP4 DUP2 LT ISZERO PUSH2 0x28AA JUMPI DUP2 MLOAD PUSH2 0x2891 DUP9 DUP3 PUSH2 0x2834 JUMP JUMPDEST SWAP8 POP PUSH2 0x289C DUP4 PUSH2 0x284C JUMP JUMPDEST SWAP3 POP POP PUSH1 0x1 DUP2 ADD SWAP1 POP PUSH2 0x287D JUMP JUMPDEST POP DUP6 SWAP4 POP POP POP POP SWAP3 SWAP2 POP POP JUMP JUMPDEST PUSH1 0x0 PUSH1 0x20 DUP3 ADD SWAP1 POP DUP2 DUP2 SUB PUSH1 0x0 DUP4 ADD MSTORE PUSH2 0x28D1 DUP2 DUP5 PUSH2 0x2859 JUMP JUMPDEST SWAP1 POP SWAP3 SWAP2 POP POP JUMP JUMPDEST PUSH1 0x0 PUSH2 0x28E4 DUP3 PUSH2 0x2482 JUMP JUMPDEST SWAP1 POP SWAP2 SWAP1 POP JUMP JUMPDEST PUSH2 0x28F4 DUP2 PUSH2 0x28D9 JUMP JUMPDEST DUP3 MSTORE POP POP JUMP JUMPDEST PUSH1 0x0 PUSH1 0x20 DUP3 ADD SWAP1 POP PUSH2 0x290F PUSH1 0x0 DUP4 ADD DUP5 PUSH2 0x28EB JUMP JUMPDEST SWAP3 SWAP2 POP POP JUMP JUMPDEST PUSH32 0x4E487B7100000000000000000000000000000000000000000000000000000000 PUSH1 0x0 MSTORE PUSH1 0x32 PUSH1 0x4 MSTORE PUSH1 0x24 PUSH1 0x0 REVERT JUMPDEST PUSH1 0x0 DUP3 DUP3 MSTORE PUSH1 0x20 DUP3 ADD SWAP1 POP SWAP3 SWAP2 POP POP JUMP JUMPDEST PUSH32 0x416D6F756E74206973207A65726F000000000000000000000000000000000000 PUSH1 0x0 DUP3 ADD MSTORE POP JUMP JUMPDEST PUSH1 0x0 PUSH2 0x298B PUSH1 0xE DUP4 PUSH2 0x2944 JUMP JUMPDEST SWAP2 POP PUSH2 0x2996 DUP3 PUSH2 0x2955 JUMP JUMPDEST PUSH1 0x20 DUP3 ADD SWAP1 POP SWAP2 SWAP1 POP JUMP JUMPDEST PUSH1 0x0 PUSH1 0x20 DUP3 ADD SWAP1 POP DUP2 DUP2 SUB PUSH1 0x0 DUP4 ADD MSTORE PUSH2 0x29BA DUP2 PUSH2 0x297E JUMP JUMPDEST SWAP1 POP SWAP2 SWAP1 POP JUMP JUMPDEST PUSH1 0x0 PUSH1 0x40 DUP3 ADD SWAP1 POP PUSH2 0x29D6 PUSH1 0x0 DUP4 ADD DUP6 PUSH2 0x273D JUMP JUMPDEST PUSH2 0x29E3 PUSH1 0x20 DUP4 ADD DUP5 PUSH2 0x2142 JUMP JUMPDEST SWAP4 SWAP3 POP POP POP JUMP JUMPDEST PUSH1 0x0 DUP2 MLOAD SWAP1 POP PUSH2 0x29F9 DUP2 PUSH2 0x2544 JUMP JUMPDEST SWAP3 SWAP2 POP POP JUMP JUMPDEST PUSH1 0x0 PUSH1 0x20 DUP3 DUP5 SUB SLT ISZERO PUSH2 0x2A15 JUMPI PUSH2 0x2A14 PUSH2 0x2176 JUMP JUMPDEST JUMPDEST PUSH1 0x0 PUSH2 0x2A23 DUP5 DUP3 DUP6 ADD PUSH2 0x29EA JUMP JUMPDEST SWAP2 POP POP SWAP3 SWAP2 POP POP JUMP JUMPDEST PUSH1 0x0 PUSH1 0x40 DUP3 ADD SWAP1 POP PUSH2 0x2A41 PUSH1 0x0 DUP4 ADD DUP6 PUSH2 0x2142 JUMP JUMPDEST PUSH2 0x2A4E PUSH1 0x20 DUP4 ADD DUP5 PUSH2 0x273D JUMP JUMPDEST SWAP4 SWAP3 POP POP POP JUMP JUMPDEST PUSH32 0x4F776E61626C653A2063616C6C6572206973206E6F7420746865206F776E6572 PUSH1 0x0 DUP3 ADD MSTORE POP JUMP JUMPDEST PUSH1 0x0 PUSH2 0x2A8B PUSH1 0x20 DUP4 PUSH2 0x2944 JUMP JUMPDEST SWAP2 POP PUSH2 0x2A96 DUP3 PUSH2 0x2A55 JUMP JUMPDEST PUSH1 0x20 DUP3 ADD SWAP1 POP SWAP2 SWAP1 POP JUMP JUMPDEST PUSH1 0x0 PUSH1 0x20 DUP3 ADD SWAP1 POP DUP2 DUP2 SUB PUSH1 0x0 DUP4 ADD MSTORE PUSH2 0x2ABA DUP2 PUSH2 0x2A7E JUMP JUMPDEST SWAP1 POP SWAP2 SWAP1 POP JUMP JUMPDEST PUSH1 0x0 DUP2 MLOAD SWAP1 POP PUSH2 0x2AD0 DUP2 PUSH2 0x2180 JUMP JUMPDEST SWAP3 SWAP2 POP POP JUMP JUMPDEST PUSH1 0x0 PUSH1 0x20 DUP3 DUP5 SUB SLT ISZERO PUSH2 0x2AEC JUMPI PUSH2 0x2AEB PUSH2 0x2176 JUMP JUMPDEST JUMPDEST PUSH1 0x0 PUSH2 0x2AFA DUP5 DUP3 DUP6 ADD PUSH2 0x2AC1 JUMP JUMPDEST SWAP2 POP POP SWAP3 SWAP2 POP POP JUMP JUMPDEST PUSH32 0x4E487B7100000000000000000000000000000000000000000000000000000000 PUSH1 0x0 MSTORE PUSH1 0x11 PUSH1 0x4 MSTORE PUSH1 0x24 PUSH1 0x0 REVERT JUMPDEST PUSH1 0x0 PUSH2 0x2B3D DUP3 PUSH2 0x2138 JUMP JUMPDEST SWAP2 POP PUSH32 0xFFFFFFFFFFFFFFFFFFFFFFFFFFFFFFFFFFFFFFFFFFFFFFFFFFFFFFFFFFFFFFFF DUP3 SUB PUSH2 0x2B6F JUMPI PUSH2 0x2B6E PUSH2 0x2B03 JUMP JUMPDEST JUMPDEST PUSH1 0x1 DUP3 ADD SWAP1 POP SWAP2 SWAP1 POP JUMP JUMPDEST PUSH32 0x596F7520617265206E6F74204F776E6572206F6620746F6B656E206964000000 PUSH1 0x0 DUP3 ADD MSTORE POP JUMP JUMPDEST PUSH1 0x0 PUSH2 0x2BB0 PUSH1 0x1D DUP4 PUSH2 0x2944 JUMP JUMPDEST SWAP2 POP PUSH2 0x2BBB DUP3 PUSH2 0x2B7A JUMP JUMPDEST PUSH1 0x20 DUP3 ADD SWAP1 POP SWAP2 SWAP1 POP JUMP JUMPDEST PUSH1 0x0 PUSH1 0x20 DUP3 ADD SWAP1 POP DUP2 DUP2 SUB PUSH1 0x0 DUP4 ADD MSTORE PUSH2 0x2BDF DUP2 PUSH2 0x2BA3 JUMP JUMPDEST SWAP1 POP SWAP2 SWAP1 POP JUMP JUMPDEST PUSH32 0x77697468647261773A206E6F7420676F6F640000000000000000000000000000 PUSH1 0x0 DUP3 ADD MSTORE POP JUMP JUMPDEST PUSH1 0x0 PUSH2 0x2C1C PUSH1 0x12 DUP4 PUSH2 0x2944 JUMP JUMPDEST SWAP2 POP PUSH2 0x2C27 DUP3 PUSH2 0x2BE6 JUMP JUMPDEST PUSH1 0x20 DUP3 ADD SWAP1 POP SWAP2 SWAP1 POP JUMP JUMPDEST PUSH1 0x0 PUSH1 0x20 DUP3 ADD SWAP1 POP DUP2 DUP2 SUB PUSH1 0x0 DUP4 ADD MSTORE PUSH2 0x2C4B DUP2 PUSH2 0x2C0F JUMP JUMPDEST SWAP1 POP SWAP2 SWAP1 POP JUMP JUMPDEST PUSH1 0x0 PUSH1 0x60 DUP3 ADD SWAP1 POP PUSH2 0x2C67 PUSH1 0x0 DUP4 ADD DUP7 PUSH2 0x273D JUMP JUMPDEST PUSH2 0x2C74 PUSH1 0x20 DUP4 ADD DUP6 PUSH2 0x273D JUMP JUMPDEST PUSH2 0x2C81 PUSH1 0x40 DUP4 ADD DUP5 PUSH2 0x2142 JUMP JUMPDEST SWAP5 SWAP4 POP POP POP POP JUMP JUMPDEST PUSH32 0x4F776E61626C653A206E6577206F776E657220697320746865207A65726F2061 PUSH1 0x0 DUP3 ADD MSTORE PUSH32 0x6464726573730000000000000000000000000000000000000000000000000000 PUSH1 0x20 DUP3 ADD MSTORE POP JUMP JUMPDEST PUSH1 0x0 PUSH2 0x2CE5 PUSH1 0x26 DUP4 PUSH2 0x2944 JUMP JUMPDEST SWAP2 POP PUSH2 0x2CF0 DUP3 PUSH2 0x2C89 JUMP JUMPDEST PUSH1 0x40 DUP3 ADD SWAP1 POP SWAP2 SWAP1 POP JUMP JUMPDEST PUSH1 0x0 PUSH1 0x20 DUP3 ADD SWAP1 POP DUP2 DUP2 SUB PUSH1 0x0 DUP4 ADD MSTORE PUSH2 0x2D14 DUP2 PUSH2 0x2CD8 JUMP JUMPDEST SWAP1 POP SWAP2 SWAP1 POP JUMP JUMPDEST PUSH1 0x0 PUSH2 0x2D26 DUP3 PUSH2 0x2138 JUMP JUMPDEST SWAP2 POP PUSH2 0x2D31 DUP4 PUSH2 0x2138 JUMP JUMPDEST SWAP3 POP DUP2 PUSH32 0xFFFFFFFFFFFFFFFFFFFFFFFFFFFFFFFFFFFFFFFFFFFFFFFFFFFFFFFFFFFFFFFF DIV DUP4 GT DUP3 ISZERO ISZERO AND ISZERO PUSH2 0x2D6A JUMPI PUSH2 0x2D69 PUSH2 0x2B03 JUMP JUMPDEST JUMPDEST DUP3 DUP3 MUL SWAP1 POP SWAP3 SWAP2 POP POP JUMP JUMPDEST PUSH32 0x4E487B7100000000000000000000000000000000000000000000000000000000 PUSH1 0x0 MSTORE PUSH1 0x12 PUSH1 0x4 MSTORE PUSH1 0x24 PUSH1 0x0 REVERT JUMPDEST PUSH1 0x0 PUSH2 0x2DAF DUP3 PUSH2 0x2138 JUMP JUMPDEST SWAP2 POP PUSH2 0x2DBA DUP4 PUSH2 0x2138 JUMP JUMPDEST SWAP3 POP DUP3 PUSH2 0x2DCA JUMPI PUSH2 0x2DC9 PUSH2 0x2D75 JUMP JUMPDEST JUMPDEST DUP3 DUP3 DIV SWAP1 POP SWAP3 SWAP2 POP POP JUMP JUMPDEST PUSH32 0x536166654D6174683A206D756C7469706C69636174696F6E206F766572666C6F PUSH1 0x0 DUP3 ADD MSTORE PUSH32 0x7700000000000000000000000000000000000000000000000000000000000000 PUSH1 0x20 DUP3 ADD MSTORE POP JUMP JUMPDEST PUSH1 0x0 PUSH2 0x2E31 PUSH1 0x21 DUP4 PUSH2 0x2944 JUMP JUMPDEST SWAP2 POP PUSH2 0x2E3C DUP3 PUSH2 0x2DD5 JUMP JUMPDEST PUSH1 0x40 DUP3 ADD SWAP1 POP SWAP2 SWAP1 POP JUMP JUMPDEST PUSH1 0x0 PUSH1 0x20 DUP3 ADD SWAP1 POP DUP2 DUP2 SUB PUSH1 0x0 DUP4 ADD MSTORE PUSH2 0x2E60 DUP2 PUSH2 0x2E24 JUMP JUMPDEST SWAP1 POP SWAP2 SWAP1 POP JUMP JUMPDEST PUSH1 0x0 PUSH2 0x2E72 DUP3 PUSH2 0x2138 JUMP JUMPDEST SWAP2 POP PUSH2 0x2E7D DUP4 PUSH2 0x2138 JUMP JUMPDEST SWAP3 POP DUP3 PUSH32 0xFFFFFFFFFFFFFFFFFFFFFFFFFFFFFFFFFFFFFFFFFFFFFFFFFFFFFFFFFFFFFFFF SUB DUP3 GT ISZERO PUSH2 0x2EB2 JUMPI PUSH2 0x2EB1 PUSH2 0x2B03 JUMP JUMPDEST JUMPDEST DUP3 DUP3 ADD SWAP1 POP SWAP3 SWAP2 POP POP JUMP JUMPDEST PUSH32 0x536166654D6174683A206164646974696F6E206F766572666C6F770000000000 PUSH1 0x0 DUP3 ADD MSTORE POP JUMP JUMPDEST PUSH1 0x0 PUSH2 0x2EF3 PUSH1 0x1B DUP4 PUSH2 0x2944 JUMP JUMPDEST SWAP2 POP PUSH2 0x2EFE DUP3 PUSH2 0x2EBD JUMP JUMPDEST PUSH1 0x20 DUP3 ADD SWAP1 POP SWAP2 SWAP1 POP JUMP JUMPDEST PUSH1 0x0 PUSH1 0x20 DUP3 ADD SWAP1 POP DUP2 DUP2 SUB PUSH1 0x0 DUP4 ADD MSTORE PUSH2 0x2F22 DUP2 PUSH2 0x2EE6 JUMP JUMPDEST SWAP1 POP SWAP2 SWAP1 POP JUMP JUMPDEST PUSH1 0x0 DUP2 MLOAD SWAP1 POP SWAP2 SWAP1 POP JUMP JUMPDEST PUSH1 0x0 JUMPDEST DUP4 DUP2 LT ISZERO PUSH2 0x2F52 JUMPI DUP1 DUP3 ADD MLOAD DUP2 DUP5 ADD MSTORE PUSH1 0x20 DUP2 ADD SWAP1 POP PUSH2 0x2F37 JUMP JUMPDEST DUP4 DUP2 GT ISZERO PUSH2 0x2F61 JUMPI PUSH1 0x0 DUP5 DUP5 ADD MSTORE JUMPDEST POP POP POP POP JUMP JUMPDEST PUSH1 0x0 PUSH2 0x2F72 DUP3 PUSH2 0x2F29 JUMP JUMPDEST PUSH2 0x2F7C DUP2 DUP6 PUSH2 0x2944 JUMP JUMPDEST SWAP4 POP PUSH2 0x2F8C DUP2 DUP6 PUSH1 0x20 DUP7 ADD PUSH2 0x2F34 JUMP JUMPDEST PUSH2 0x2F95 DUP2 PUSH2 0x2241 JUMP JUMPDEST DUP5 ADD SWAP2 POP POP SWAP3 SWAP2 POP POP JUMP JUMPDEST PUSH1 0x0 PUSH1 0x20 DUP3 ADD SWAP1 POP DUP2 DUP2 SUB PUSH1 0x0 DUP4 ADD MSTORE PUSH2 0x2FBA DUP2 DUP5 PUSH2 0x2F67 JUMP JUMPDEST SWAP1 POP SWAP3 SWAP2 POP POP JUMP JUMPDEST PUSH1 0x0 PUSH2 0x2FCD DUP3 PUSH2 0x2138 JUMP JUMPDEST SWAP2 POP PUSH2 0x2FD8 DUP4 PUSH2 0x2138 JUMP JUMPDEST SWAP3 POP DUP3 DUP3 LT ISZERO PUSH2 0x2FEB JUMPI PUSH2 0x2FEA PUSH2 0x2B03 JUMP JUMPDEST JUMPDEST DUP3 DUP3 SUB SWAP1 POP SWAP3 SWAP2 POP POP JUMP INVALID LOG2 PUSH5 0x6970667358 0x22 SLT KECCAK256 MOD SLOAD ADD 0xF6 ADDMOD 0xDD OR PUSH28 0xDC09CE884F4616E27D8B8922B18DF9F1FCC7CDBA1205120664736F6C PUSH4 0x4300080F STOP CALLER "
				},
				"gasEstimates": {
					"creation": {
						"codeDepositCost": "2466400",
						"executionCost": "infinite",
						"totalCost": "infinite"
					},
					"external": {
						"BONUS_MULTIPLIER()": "2474",
						"DDT()": "infinite",
						"DDTPerBlock()": "2539",
						"NFTMasterChef()": "infinite",
						"add(uint256,address,bool)": "infinite",
						"compundDDT(uint256)": "infinite",
						"deposit(uint256,uint256)": "infinite",
						"devaddr()": "2603",
						"getMultiplier(uint256,uint256)": "infinite",
						"getUserTokenIds(uint256,address)": "infinite",
						"massUpdatePools()": "infinite",
						"migrator()": "infinite",
						"onERC721Received(address,address,uint256,bytes)": "infinite",
						"owner()": "2589",
						"pendingDDT(uint256,address)": "infinite",
						"poolInfo(uint256)": "infinite",
						"poolLength()": "2492",
						"renounceOwnership()": "30442",
						"set(uint256,uint256,bool)": "infinite",
						"setDevAddress(address)": "27029",
						"setMigrator(address)": "27051",
						"startBlock()": "2519",
						"totalAllocPoint()": "2497",
						"transferOwnership(address)": "30808",
						"updateDDTPerBlock(uint256)": "24849",
						"updateMultiplier(uint256)": "24827",
						"updatePool(uint256)": "infinite",
						"userInfo(uint256,address)": "infinite",
						"withdraw(uint256,uint256)": "infinite"
					},
					"internal": {
						"safeDDTTransfer(address,uint256)": "infinite"
					}
				},
				"methodIdentifiers": {
					"BONUS_MULTIPLIER()": "8aa28550",
					"DDT()": "cb3cba55",
					"DDTPerBlock()": "f395db2c",
					"NFTMasterChef()": "e4d09896",
					"add(uint256,address,bool)": "1eaaa045",
					"compundDDT(uint256)": "1395d8c9",
					"deposit(uint256,uint256)": "e2bbb158",
					"devaddr()": "d49e77cd",
					"getMultiplier(uint256,uint256)": "8dbb1e3a",
					"getUserTokenIds(uint256,address)": "d5545992",
					"massUpdatePools()": "630b5ba1",
					"migrator()": "7cd07e47",
					"onERC721Received(address,address,uint256,bytes)": "150b7a02",
					"owner()": "8da5cb5b",
					"pendingDDT(uint256,address)": "2080baab",
					"poolInfo(uint256)": "1526fe27",
					"poolLength()": "081e3eda",
					"renounceOwnership()": "715018a6",
					"set(uint256,uint256,bool)": "64482f79",
					"setDevAddress(address)": "d0d41fe1",
					"setMigrator(address)": "23cf3118",
					"startBlock()": "48cd4cb1",
					"totalAllocPoint()": "17caf6f1",
					"transferOwnership(address)": "f2fde38b",
					"updateDDTPerBlock(uint256)": "612eee43",
					"updateMultiplier(uint256)": "5ffe6146",
					"updatePool(uint256)": "51eb05a6",
					"userInfo(uint256,address)": "93f1a40b",
					"withdraw(uint256,uint256)": "441a3e70"
				}
			},
			"storageLayout": {
				"storage": [
					{
						"astId": 820,
						"contract": "contracts/NFTStake.sol:NFTStake",
						"label": "_owner",
						"offset": 0,
						"slot": "0",
						"type": "t_address"
					},
					{
						"astId": 1103,
						"contract": "contracts/NFTStake.sol:NFTStake",
						"label": "NFTMasterChef",
						"offset": 0,
						"slot": "1",
						"type": "t_contract(INFTMasterChef)1071"
					},
					{
						"astId": 1106,
						"contract": "contracts/NFTStake.sol:NFTStake",
						"label": "DDT",
						"offset": 0,
						"slot": "2",
						"type": "t_contract(IERC20)286"
					},
					{
						"astId": 1108,
						"contract": "contracts/NFTStake.sol:NFTStake",
						"label": "devaddr",
						"offset": 0,
						"slot": "3",
						"type": "t_address"
					},
					{
						"astId": 1110,
						"contract": "contracts/NFTStake.sol:NFTStake",
						"label": "DDTPerBlock",
						"offset": 0,
						"slot": "4",
						"type": "t_uint256"
					},
					{
						"astId": 1113,
						"contract": "contracts/NFTStake.sol:NFTStake",
						"label": "BONUS_MULTIPLIER",
						"offset": 0,
						"slot": "5",
						"type": "t_uint256"
					},
					{
						"astId": 1116,
						"contract": "contracts/NFTStake.sol:NFTStake",
						"label": "migrator",
						"offset": 0,
						"slot": "6",
						"type": "t_contract(IMigratorChef)927"
					},
					{
						"astId": 1120,
						"contract": "contracts/NFTStake.sol:NFTStake",
						"label": "poolInfo",
						"offset": 0,
						"slot": "7",
						"type": "t_array(t_struct(PoolInfo)1100_storage)dyn_storage"
					},
					{
						"astId": 1127,
						"contract": "contracts/NFTStake.sol:NFTStake",
						"label": "userInfo",
						"offset": 0,
						"slot": "8",
						"type": "t_mapping(t_uint256,t_mapping(t_address,t_struct(UserInfo)1090_storage))"
					},
					{
						"astId": 1130,
						"contract": "contracts/NFTStake.sol:NFTStake",
						"label": "totalAllocPoint",
						"offset": 0,
						"slot": "9",
						"type": "t_uint256"
					},
					{
						"astId": 1132,
						"contract": "contracts/NFTStake.sol:NFTStake",
						"label": "startBlock",
						"offset": 0,
						"slot": "10",
						"type": "t_uint256"
					}
				],
				"types": {
					"t_address": {
						"encoding": "inplace",
						"label": "address",
						"numberOfBytes": "20"
					},
					"t_array(t_struct(PoolInfo)1100_storage)dyn_storage": {
						"base": "t_struct(PoolInfo)1100_storage",
						"encoding": "dynamic_array",
						"label": "struct NFTStake.PoolInfo[]",
						"numberOfBytes": "32"
					},
					"t_array(t_uint256)dyn_storage": {
						"base": "t_uint256",
						"encoding": "dynamic_array",
						"label": "uint256[]",
						"numberOfBytes": "32"
					},
					"t_contract(IERC20)286": {
						"encoding": "inplace",
						"label": "contract IERC20",
						"numberOfBytes": "20"
					},
					"t_contract(IERC721)1048": {
						"encoding": "inplace",
						"label": "contract IERC721",
						"numberOfBytes": "20"
					},
					"t_contract(IMigratorChef)927": {
						"encoding": "inplace",
						"label": "contract IMigratorChef",
						"numberOfBytes": "20"
					},
					"t_contract(INFTMasterChef)1071": {
						"encoding": "inplace",
						"label": "contract INFTMasterChef",
						"numberOfBytes": "20"
					},
					"t_mapping(t_address,t_struct(UserInfo)1090_storage)": {
						"encoding": "mapping",
						"key": "t_address",
						"label": "mapping(address => struct NFTStake.UserInfo)",
						"numberOfBytes": "32",
						"value": "t_struct(UserInfo)1090_storage"
					},
					"t_mapping(t_uint256,t_mapping(t_address,t_struct(UserInfo)1090_storage))": {
						"encoding": "mapping",
						"key": "t_uint256",
						"label": "mapping(uint256 => mapping(address => struct NFTStake.UserInfo))",
						"numberOfBytes": "32",
						"value": "t_mapping(t_address,t_struct(UserInfo)1090_storage)"
					},
					"t_struct(PoolInfo)1100_storage": {
						"encoding": "inplace",
						"label": "struct NFTStake.PoolInfo",
						"members": [
							{
								"astId": 1093,
								"contract": "contracts/NFTStake.sol:NFTStake",
								"label": "NFTToken",
								"offset": 0,
								"slot": "0",
								"type": "t_contract(IERC721)1048"
							},
							{
								"astId": 1095,
								"contract": "contracts/NFTStake.sol:NFTStake",
								"label": "allocPoint",
								"offset": 0,
								"slot": "1",
								"type": "t_uint256"
							},
							{
								"astId": 1097,
								"contract": "contracts/NFTStake.sol:NFTStake",
								"label": "lastRewardBlock",
								"offset": 0,
								"slot": "2",
								"type": "t_uint256"
							},
							{
								"astId": 1099,
								"contract": "contracts/NFTStake.sol:NFTStake",
								"label": "accDDTPerShare",
								"offset": 0,
								"slot": "3",
								"type": "t_uint256"
							}
						],
						"numberOfBytes": "128"
					},
					"t_struct(UserInfo)1090_storage": {
						"encoding": "inplace",
						"label": "struct NFTStake.UserInfo",
						"members": [
							{
								"astId": 1085,
								"contract": "contracts/NFTStake.sol:NFTStake",
								"label": "tokenIds",
								"offset": 0,
								"slot": "0",
								"type": "t_array(t_uint256)dyn_storage"
							},
							{
								"astId": 1087,
								"contract": "contracts/NFTStake.sol:NFTStake",
								"label": "amount",
								"offset": 0,
								"slot": "1",
								"type": "t_uint256"
							},
							{
								"astId": 1089,
								"contract": "contracts/NFTStake.sol:NFTStake",
								"label": "rewardDebt",
								"offset": 0,
								"slot": "2",
								"type": "t_uint256"
							}
						],
						"numberOfBytes": "96"
					},
					"t_uint256": {
						"encoding": "inplace",
						"label": "uint256",
						"numberOfBytes": "32"
					}
				}
			},
			"userdoc": {
				"kind": "user",
				"methods": {
					"onERC721Received(address,address,uint256,bytes)": {
						"notice": "Always returns `IERC721Receiver.onERC721Received.selector`."
					}
				},
				"version": 1
			}
		}
	}
}