{
	"contracts/LpPrice.sol": {
		"LpUtils": {
			"abi": [
				{
					"inputs": [
						{
							"internalType": "contract IERC20",
							"name": "lpAddress",
							"type": "address"
						},
						{
							"internalType": "contract Router",
							"name": "routerAddress",
							"type": "address"
						},
						{
							"internalType": "address",
							"name": "",
							"type": "address"
						}
					],
					"name": "CalcLpPrice",
					"outputs": [
						{
							"internalType": "uint256",
							"name": "",
							"type": "uint256"
						}
					],
					"stateMutability": "view",
					"type": "function"
				}
			],
			"devdoc": {
				"kind": "dev",
				"methods": {},
				"version": 1
			},
			"evm": {
				"assembly": "    /* \"contracts/LpPrice.sol\":8846:9200  contract LpUtils {\r... */\n  mstore(0x40, 0x80)\n    /* \"contracts/LpPrice.sol\":8887:8906  1000000000000000000 */\n  0x0de0b6b3a7640000\n    /* \"contracts/LpPrice.sol\":8870:8906  uint256 amount = 1000000000000000000 */\n  0x00\n  sstore\n    /* \"contracts/LpPrice.sol\":8846:9200  contract LpUtils {\r... */\n  callvalue\n  dup1\n  iszero\n  tag_1\n  jumpi\n  0x00\n  dup1\n  revert\ntag_1:\n  pop\n  dataSize(sub_0)\n  dup1\n  dataOffset(sub_0)\n  0x00\n  codecopy\n  0x00\n  return\nstop\n\nsub_0: assembly {\n        /* \"contracts/LpPrice.sol\":8846:9200  contract LpUtils {\r... */\n      mstore(0x40, 0x80)\n      callvalue\n      dup1\n      iszero\n      tag_1\n      jumpi\n      0x00\n      dup1\n      revert\n    tag_1:\n      pop\n      jumpi(tag_2, lt(calldatasize, 0x04))\n      shr(0xe0, calldataload(0x00))\n      dup1\n      0x20ae0b6d\n      eq\n      tag_3\n      jumpi\n    tag_2:\n      0x00\n      dup1\n      revert\n        /* \"contracts/LpPrice.sol\":8915:9197  function CalcLpPrice(IERC20 lpAddress, Router routerAddress, address) external view returns(uint256){\r... */\n    tag_3:\n      tag_4\n      0x04\n      dup1\n      calldatasize\n      sub\n      dup2\n      add\n      swap1\n      tag_5\n      swap2\n      swap1\n      tag_6\n      jump\t// in\n    tag_5:\n      tag_7\n      jump\t// in\n    tag_4:\n      mload(0x40)\n      tag_8\n      swap2\n      swap1\n      tag_9\n      jump\t// in\n    tag_8:\n      mload(0x40)\n      dup1\n      swap2\n      sub\n      swap1\n      return\n    tag_7:\n        /* \"contracts/LpPrice.sol\":9007:9014  uint256 */\n      0x00\n        /* \"contracts/LpPrice.sol\":9026:9045  uint256 totalSupply */\n      dup1\n        /* \"contracts/LpPrice.sol\":9048:9057  lpAddress */\n      dup5\n        /* \"contracts/LpPrice.sol\":9048:9069  lpAddress.totalSupply */\n      0xffffffffffffffffffffffffffffffffffffffff\n      and\n      0x18160ddd\n        /* \"contracts/LpPrice.sol\":9048:9071  lpAddress.totalSupply() */\n      mload(0x40)\n      dup2\n      0xffffffff\n      and\n      0xe0\n      shl\n      dup2\n      mstore\n      0x04\n      add\n      0x20\n      mload(0x40)\n      dup1\n      dup4\n      sub\n      dup2\n      dup7\n      dup1\n      extcodesize\n      iszero\n      dup1\n      iszero\n      tag_11\n      jumpi\n      0x00\n      dup1\n      revert\n    tag_11:\n      pop\n      gas\n      staticcall\n      iszero\n      dup1\n      iszero\n      tag_13\n      jumpi\n      returndatasize\n      0x00\n      dup1\n      returndatacopy\n      revert(0x00, returndatasize)\n    tag_13:\n      pop\n      pop\n      pop\n      pop\n      mload(0x40)\n      returndatasize\n      not(0x1f)\n      0x1f\n      dup3\n      add\n      and\n      dup3\n      add\n      dup1\n      0x40\n      mstore\n      pop\n      dup2\n      add\n      swap1\n      tag_14\n      swap2\n      swap1\n      tag_15\n      jump\t// in\n    tag_14:\n        /* \"contracts/LpPrice.sol\":9026:9071  uint256 totalSupply = lpAddress.totalSupply() */\n      swap1\n      pop\n        /* \"contracts/LpPrice.sol\":9178:9189  totalSupply */\n      dup1\n        /* \"contracts/LpPrice.sol\":9171:9189  return totalSupply */\n      swap2\n      pop\n      pop\n        /* \"contracts/LpPrice.sol\":8915:9197  function CalcLpPrice(IERC20 lpAddress, Router routerAddress, address) external view returns(uint256){\r... */\n      swap4\n      swap3\n      pop\n      pop\n      pop\n      jump\t// out\n        /* \"#utility.yul\":7:146   */\n    tag_17:\n        /* \"#utility.yul\":53:58   */\n      0x00\n        /* \"#utility.yul\":91:97   */\n      dup2\n        /* \"#utility.yul\":78:98   */\n      calldataload\n        /* \"#utility.yul\":69:98   */\n      swap1\n      pop\n        /* \"#utility.yul\":107:140   */\n      tag_19\n        /* \"#utility.yul\":134:139   */\n      dup2\n        /* \"#utility.yul\":107:140   */\n      tag_20\n      jump\t// in\n    tag_19:\n        /* \"#utility.yul\":7:146   */\n      swap3\n      swap2\n      pop\n      pop\n      jump\t// out\n        /* \"#utility.yul\":152:317   */\n    tag_21:\n        /* \"#utility.yul\":211:216   */\n      0x00\n        /* \"#utility.yul\":249:255   */\n      dup2\n        /* \"#utility.yul\":236:256   */\n      calldataload\n        /* \"#utility.yul\":227:256   */\n      swap1\n      pop\n        /* \"#utility.yul\":265:311   */\n      tag_23\n        /* \"#utility.yul\":305:310   */\n      dup2\n        /* \"#utility.yul\":265:311   */\n      tag_24\n      jump\t// in\n    tag_23:\n        /* \"#utility.yul\":152:317   */\n      swap3\n      swap2\n      pop\n      pop\n      jump\t// out\n        /* \"#utility.yul\":323:490   */\n    tag_25:\n        /* \"#utility.yul\":383:388   */\n      0x00\n        /* \"#utility.yul\":421:427   */\n      dup2\n        /* \"#utility.yul\":408:428   */\n      calldataload\n        /* \"#utility.yul\":399:428   */\n      swap1\n      pop\n        /* \"#utility.yul\":437:484   */\n      tag_27\n        /* \"#utility.yul\":478:483   */\n      dup2\n        /* \"#utility.yul\":437:484   */\n      tag_28\n      jump\t// in\n    tag_27:\n        /* \"#utility.yul\":323:490   */\n      swap3\n      swap2\n      pop\n      pop\n      jump\t// out\n        /* \"#utility.yul\":496:639   */\n    tag_29:\n        /* \"#utility.yul\":553:558   */\n      0x00\n        /* \"#utility.yul\":584:590   */\n      dup2\n        /* \"#utility.yul\":578:591   */\n      mload\n        /* \"#utility.yul\":569:591   */\n      swap1\n      pop\n        /* \"#utility.yul\":600:633   */\n      tag_31\n        /* \"#utility.yul\":627:632   */\n      dup2\n        /* \"#utility.yul\":600:633   */\n      tag_32\n      jump\t// in\n    tag_31:\n        /* \"#utility.yul\":496:639   */\n      swap3\n      swap2\n      pop\n      pop\n      jump\t// out\n        /* \"#utility.yul\":645:1318   */\n    tag_6:\n        /* \"#utility.yul\":749:755   */\n      0x00\n        /* \"#utility.yul\":757:763   */\n      dup1\n        /* \"#utility.yul\":765:771   */\n      0x00\n        /* \"#utility.yul\":814:816   */\n      0x60\n        /* \"#utility.yul\":802:811   */\n      dup5\n        /* \"#utility.yul\":793:800   */\n      dup7\n        /* \"#utility.yul\":789:812   */\n      sub\n        /* \"#utility.yul\":785:817   */\n      slt\n        /* \"#utility.yul\":782:901   */\n      iszero\n      tag_34\n      jumpi\n        /* \"#utility.yul\":820:899   */\n      tag_35\n      tag_36\n      jump\t// in\n    tag_35:\n        /* \"#utility.yul\":782:901   */\n    tag_34:\n        /* \"#utility.yul\":940:941   */\n      0x00\n        /* \"#utility.yul\":965:1031   */\n      tag_37\n        /* \"#utility.yul\":1023:1030   */\n      dup7\n        /* \"#utility.yul\":1014:1020   */\n      dup3\n        /* \"#utility.yul\":1003:1012   */\n      dup8\n        /* \"#utility.yul\":999:1021   */\n      add\n        /* \"#utility.yul\":965:1031   */\n      tag_21\n      jump\t// in\n    tag_37:\n        /* \"#utility.yul\":955:1031   */\n      swap4\n      pop\n        /* \"#utility.yul\":911:1041   */\n      pop\n        /* \"#utility.yul\":1080:1082   */\n      0x20\n        /* \"#utility.yul\":1106:1173   */\n      tag_38\n        /* \"#utility.yul\":1165:1172   */\n      dup7\n        /* \"#utility.yul\":1156:1162   */\n      dup3\n        /* \"#utility.yul\":1145:1154   */\n      dup8\n        /* \"#utility.yul\":1141:1163   */\n      add\n        /* \"#utility.yul\":1106:1173   */\n      tag_25\n      jump\t// in\n    tag_38:\n        /* \"#utility.yul\":1096:1173   */\n      swap3\n      pop\n        /* \"#utility.yul\":1051:1183   */\n      pop\n        /* \"#utility.yul\":1222:1224   */\n      0x40\n        /* \"#utility.yul\":1248:1301   */\n      tag_39\n        /* \"#utility.yul\":1293:1300   */\n      dup7\n        /* \"#utility.yul\":1284:1290   */\n      dup3\n        /* \"#utility.yul\":1273:1282   */\n      dup8\n        /* \"#utility.yul\":1269:1291   */\n      add\n        /* \"#utility.yul\":1248:1301   */\n      tag_17\n      jump\t// in\n    tag_39:\n        /* \"#utility.yul\":1238:1301   */\n      swap2\n      pop\n        /* \"#utility.yul\":1193:1311   */\n      pop\n        /* \"#utility.yul\":645:1318   */\n      swap3\n      pop\n      swap3\n      pop\n      swap3\n      jump\t// out\n        /* \"#utility.yul\":1324:1675   */\n    tag_15:\n        /* \"#utility.yul\":1394:1400   */\n      0x00\n        /* \"#utility.yul\":1443:1445   */\n      0x20\n        /* \"#utility.yul\":1431:1440   */\n      dup3\n        /* \"#utility.yul\":1422:1429   */\n      dup5\n        /* \"#utility.yul\":1418:1441   */\n      sub\n        /* \"#utility.yul\":1414:1446   */\n      slt\n        /* \"#utility.yul\":1411:1530   */\n      iszero\n      tag_41\n      jumpi\n        /* \"#utility.yul\":1449:1528   */\n      tag_42\n      tag_36\n      jump\t// in\n    tag_42:\n        /* \"#utility.yul\":1411:1530   */\n    tag_41:\n        /* \"#utility.yul\":1569:1570   */\n      0x00\n        /* \"#utility.yul\":1594:1658   */\n      tag_43\n        /* \"#utility.yul\":1650:1657   */\n      dup5\n        /* \"#utility.yul\":1641:1647   */\n      dup3\n        /* \"#utility.yul\":1630:1639   */\n      dup6\n        /* \"#utility.yul\":1626:1648   */\n      add\n        /* \"#utility.yul\":1594:1658   */\n      tag_29\n      jump\t// in\n    tag_43:\n        /* \"#utility.yul\":1584:1658   */\n      swap2\n      pop\n        /* \"#utility.yul\":1540:1668   */\n      pop\n        /* \"#utility.yul\":1324:1675   */\n      swap3\n      swap2\n      pop\n      pop\n      jump\t// out\n        /* \"#utility.yul\":1681:1799   */\n    tag_44:\n        /* \"#utility.yul\":1768:1792   */\n      tag_46\n        /* \"#utility.yul\":1786:1791   */\n      dup2\n        /* \"#utility.yul\":1768:1792   */\n      tag_47\n      jump\t// in\n    tag_46:\n        /* \"#utility.yul\":1763:1766   */\n      dup3\n        /* \"#utility.yul\":1756:1793   */\n      mstore\n        /* \"#utility.yul\":1681:1799   */\n      pop\n      pop\n      jump\t// out\n        /* \"#utility.yul\":1805:2027   */\n    tag_9:\n        /* \"#utility.yul\":1898:1902   */\n      0x00\n        /* \"#utility.yul\":1936:1938   */\n      0x20\n        /* \"#utility.yul\":1925:1934   */\n      dup3\n        /* \"#utility.yul\":1921:1939   */\n      add\n        /* \"#utility.yul\":1913:1939   */\n      swap1\n      pop\n        /* \"#utility.yul\":1949:2020   */\n      tag_49\n        /* \"#utility.yul\":2017:2018   */\n      0x00\n        /* \"#utility.yul\":2006:2015   */\n      dup4\n        /* \"#utility.yul\":2002:2019   */\n      add\n        /* \"#utility.yul\":1993:1999   */\n      dup5\n        /* \"#utility.yul\":1949:2020   */\n      tag_44\n      jump\t// in\n    tag_49:\n        /* \"#utility.yul\":1805:2027   */\n      swap3\n      swap2\n      pop\n      pop\n      jump\t// out\n        /* \"#utility.yul\":2114:2210   */\n    tag_52:\n        /* \"#utility.yul\":2151:2158   */\n      0x00\n        /* \"#utility.yul\":2180:2204   */\n      tag_54\n        /* \"#utility.yul\":2198:2203   */\n      dup3\n        /* \"#utility.yul\":2180:2204   */\n      tag_55\n      jump\t// in\n    tag_54:\n        /* \"#utility.yul\":2169:2204   */\n      swap1\n      pop\n        /* \"#utility.yul\":2114:2210   */\n      swap2\n      swap1\n      pop\n      jump\t// out\n        /* \"#utility.yul\":2216:2325   */\n    tag_56:\n        /* \"#utility.yul\":2266:2273   */\n      0x00\n        /* \"#utility.yul\":2295:2319   */\n      tag_58\n        /* \"#utility.yul\":2313:2318   */\n      dup3\n        /* \"#utility.yul\":2295:2319   */\n      tag_52\n      jump\t// in\n    tag_58:\n        /* \"#utility.yul\":2284:2319   */\n      swap1\n      pop\n        /* \"#utility.yul\":2216:2325   */\n      swap2\n      swap1\n      pop\n      jump\t// out\n        /* \"#utility.yul\":2331:2441   */\n    tag_59:\n        /* \"#utility.yul\":2382:2389   */\n      0x00\n        /* \"#utility.yul\":2411:2435   */\n      tag_61\n        /* \"#utility.yul\":2429:2434   */\n      dup3\n        /* \"#utility.yul\":2411:2435   */\n      tag_52\n      jump\t// in\n    tag_61:\n        /* \"#utility.yul\":2400:2435   */\n      swap1\n      pop\n        /* \"#utility.yul\":2331:2441   */\n      swap2\n      swap1\n      pop\n      jump\t// out\n        /* \"#utility.yul\":2447:2573   */\n    tag_55:\n        /* \"#utility.yul\":2484:2491   */\n      0x00\n        /* \"#utility.yul\":2524:2566   */\n      0xffffffffffffffffffffffffffffffffffffffff\n        /* \"#utility.yul\":2517:2522   */\n      dup3\n        /* \"#utility.yul\":2513:2567   */\n      and\n        /* \"#utility.yul\":2502:2567   */\n      swap1\n      pop\n        /* \"#utility.yul\":2447:2573   */\n      swap2\n      swap1\n      pop\n      jump\t// out\n        /* \"#utility.yul\":2579:2656   */\n    tag_47:\n        /* \"#utility.yul\":2616:2623   */\n      0x00\n        /* \"#utility.yul\":2645:2650   */\n      dup2\n        /* \"#utility.yul\":2634:2650   */\n      swap1\n      pop\n        /* \"#utility.yul\":2579:2656   */\n      swap2\n      swap1\n      pop\n      jump\t// out\n        /* \"#utility.yul\":2785:2902   */\n    tag_36:\n        /* \"#utility.yul\":2894:2895   */\n      0x00\n        /* \"#utility.yul\":2891:2892   */\n      dup1\n        /* \"#utility.yul\":2884:2896   */\n      revert\n        /* \"#utility.yul\":2908:3030   */\n    tag_20:\n        /* \"#utility.yul\":2981:3005   */\n      tag_68\n        /* \"#utility.yul\":2999:3004   */\n      dup2\n        /* \"#utility.yul\":2981:3005   */\n      tag_52\n      jump\t// in\n    tag_68:\n        /* \"#utility.yul\":2974:2979   */\n      dup2\n        /* \"#utility.yul\":2971:3006   */\n      eq\n        /* \"#utility.yul\":2961:3024   */\n      tag_69\n      jumpi\n        /* \"#utility.yul\":3020:3021   */\n      0x00\n        /* \"#utility.yul\":3017:3018   */\n      dup1\n        /* \"#utility.yul\":3010:3022   */\n      revert\n        /* \"#utility.yul\":2961:3024   */\n    tag_69:\n        /* \"#utility.yul\":2908:3030   */\n      pop\n      jump\t// out\n        /* \"#utility.yul\":3036:3184   */\n    tag_24:\n        /* \"#utility.yul\":3122:3159   */\n      tag_71\n        /* \"#utility.yul\":3153:3158   */\n      dup2\n        /* \"#utility.yul\":3122:3159   */\n      tag_56\n      jump\t// in\n    tag_71:\n        /* \"#utility.yul\":3115:3120   */\n      dup2\n        /* \"#utility.yul\":3112:3160   */\n      eq\n        /* \"#utility.yul\":3102:3178   */\n      tag_72\n      jumpi\n        /* \"#utility.yul\":3174:3175   */\n      0x00\n        /* \"#utility.yul\":3171:3172   */\n      dup1\n        /* \"#utility.yul\":3164:3176   */\n      revert\n        /* \"#utility.yul\":3102:3178   */\n    tag_72:\n        /* \"#utility.yul\":3036:3184   */\n      pop\n      jump\t// out\n        /* \"#utility.yul\":3190:3340   */\n    tag_28:\n        /* \"#utility.yul\":3277:3315   */\n      tag_74\n        /* \"#utility.yul\":3309:3314   */\n      dup2\n        /* \"#utility.yul\":3277:3315   */\n      tag_59\n      jump\t// in\n    tag_74:\n        /* \"#utility.yul\":3270:3275   */\n      dup2\n        /* \"#utility.yul\":3267:3316   */\n      eq\n        /* \"#utility.yul\":3257:3334   */\n      tag_75\n      jumpi\n        /* \"#utility.yul\":3330:3331   */\n      0x00\n        /* \"#utility.yul\":3327:3328   */\n      dup1\n        /* \"#utility.yul\":3320:3332   */\n      revert\n        /* \"#utility.yul\":3257:3334   */\n    tag_75:\n        /* \"#utility.yul\":3190:3340   */\n      pop\n      jump\t// out\n        /* \"#utility.yul\":3346:3468   */\n    tag_32:\n        /* \"#utility.yul\":3419:3443   */\n      tag_77\n        /* \"#utility.yul\":3437:3442   */\n      dup2\n        /* \"#utility.yul\":3419:3443   */\n      tag_47\n      jump\t// in\n    tag_77:\n        /* \"#utility.yul\":3412:3417   */\n      dup2\n        /* \"#utility.yul\":3409:3444   */\n      eq\n        /* \"#utility.yul\":3399:3462   */\n      tag_78\n      jumpi\n        /* \"#utility.yul\":3458:3459   */\n      0x00\n        /* \"#utility.yul\":3455:3456   */\n      dup1\n        /* \"#utility.yul\":3448:3460   */\n      revert\n        /* \"#utility.yul\":3399:3462   */\n    tag_78:\n        /* \"#utility.yul\":3346:3468   */\n      pop\n      jump\t// out\n\n    auxdata: 0xa264697066735822122086d78871a4edfec93fee8b7168fe866d2ba150f15d540b7e9d2a559a204f696564736f6c63430008070033\n}\n",
				"bytecode": {
					"linkReferences": {},
					"object": "6080604052670de0b6b3a764000060005534801561001c57600080fd5b506102e38061002c6000396000f3fe608060405234801561001057600080fd5b506004361061002b5760003560e01c806320ae0b6d14610030575b600080fd5b61004a60048036038101906100459190610142565b610060565b60405161005791906101d1565b60405180910390f35b6000808473ffffffffffffffffffffffffffffffffffffffff166318160ddd6040518163ffffffff1660e01b815260040160206040518083038186803b1580156100a957600080fd5b505afa1580156100bd573d6000803e3d6000fd5b505050506040513d601f19601f820116820180604052508101906100e19190610195565b9050809150509392505050565b6000813590506100fd81610251565b92915050565b60008135905061011281610268565b92915050565b6000813590506101278161027f565b92915050565b60008151905061013c81610296565b92915050565b60008060006060848603121561015b5761015a61024c565b5b600061016986828701610103565b935050602061017a86828701610118565b925050604061018b868287016100ee565b9150509250925092565b6000602082840312156101ab576101aa61024c565b5b60006101b98482850161012d565b91505092915050565b6101cb81610242565b82525050565b60006020820190506101e660008301846101c2565b92915050565b60006101f782610222565b9050919050565b6000610209826101ec565b9050919050565b600061021b826101ec565b9050919050565b600073ffffffffffffffffffffffffffffffffffffffff82169050919050565b6000819050919050565b600080fd5b61025a816101ec565b811461026557600080fd5b50565b610271816101fe565b811461027c57600080fd5b50565b61028881610210565b811461029357600080fd5b50565b61029f81610242565b81146102aa57600080fd5b5056fea264697066735822122086d78871a4edfec93fee8b7168fe866d2ba150f15d540b7e9d2a559a204f696564736f6c63430008070033",
					"opcodes": "PUSH1 0x80 PUSH1 0x40 MSTORE PUSH8 0xDE0B6B3A7640000 PUSH1 0x0 SSTORE CALLVALUE DUP1 ISZERO PUSH2 0x1C JUMPI PUSH1 0x0 DUP1 REVERT JUMPDEST POP PUSH2 0x2E3 DUP1 PUSH2 0x2C PUSH1 0x0 CODECOPY PUSH1 0x0 RETURN INVALID PUSH1 0x80 PUSH1 0x40 MSTORE CALLVALUE DUP1 ISZERO PUSH2 0x10 JUMPI PUSH1 0x0 DUP1 REVERT JUMPDEST POP PUSH1 0x4 CALLDATASIZE LT PUSH2 0x2B JUMPI PUSH1 0x0 CALLDATALOAD PUSH1 0xE0 SHR DUP1 PUSH4 0x20AE0B6D EQ PUSH2 0x30 JUMPI JUMPDEST PUSH1 0x0 DUP1 REVERT JUMPDEST PUSH2 0x4A PUSH1 0x4 DUP1 CALLDATASIZE SUB DUP2 ADD SWAP1 PUSH2 0x45 SWAP2 SWAP1 PUSH2 0x142 JUMP JUMPDEST PUSH2 0x60 JUMP JUMPDEST PUSH1 0x40 MLOAD PUSH2 0x57 SWAP2 SWAP1 PUSH2 0x1D1 JUMP JUMPDEST PUSH1 0x40 MLOAD DUP1 SWAP2 SUB SWAP1 RETURN JUMPDEST PUSH1 0x0 DUP1 DUP5 PUSH20 0xFFFFFFFFFFFFFFFFFFFFFFFFFFFFFFFFFFFFFFFF AND PUSH4 0x18160DDD PUSH1 0x40 MLOAD DUP2 PUSH4 0xFFFFFFFF AND PUSH1 0xE0 SHL DUP2 MSTORE PUSH1 0x4 ADD PUSH1 0x20 PUSH1 0x40 MLOAD DUP1 DUP4 SUB DUP2 DUP7 DUP1 EXTCODESIZE ISZERO DUP1 ISZERO PUSH2 0xA9 JUMPI PUSH1 0x0 DUP1 REVERT JUMPDEST POP GAS STATICCALL ISZERO DUP1 ISZERO PUSH2 0xBD JUMPI RETURNDATASIZE PUSH1 0x0 DUP1 RETURNDATACOPY RETURNDATASIZE PUSH1 0x0 REVERT JUMPDEST POP POP POP POP PUSH1 0x40 MLOAD RETURNDATASIZE PUSH1 0x1F NOT PUSH1 0x1F DUP3 ADD AND DUP3 ADD DUP1 PUSH1 0x40 MSTORE POP DUP2 ADD SWAP1 PUSH2 0xE1 SWAP2 SWAP1 PUSH2 0x195 JUMP JUMPDEST SWAP1 POP DUP1 SWAP2 POP POP SWAP4 SWAP3 POP POP POP JUMP JUMPDEST PUSH1 0x0 DUP2 CALLDATALOAD SWAP1 POP PUSH2 0xFD DUP2 PUSH2 0x251 JUMP JUMPDEST SWAP3 SWAP2 POP POP JUMP JUMPDEST PUSH1 0x0 DUP2 CALLDATALOAD SWAP1 POP PUSH2 0x112 DUP2 PUSH2 0x268 JUMP JUMPDEST SWAP3 SWAP2 POP POP JUMP JUMPDEST PUSH1 0x0 DUP2 CALLDATALOAD SWAP1 POP PUSH2 0x127 DUP2 PUSH2 0x27F JUMP JUMPDEST SWAP3 SWAP2 POP POP JUMP JUMPDEST PUSH1 0x0 DUP2 MLOAD SWAP1 POP PUSH2 0x13C DUP2 PUSH2 0x296 JUMP JUMPDEST SWAP3 SWAP2 POP POP JUMP JUMPDEST PUSH1 0x0 DUP1 PUSH1 0x0 PUSH1 0x60 DUP5 DUP7 SUB SLT ISZERO PUSH2 0x15B JUMPI PUSH2 0x15A PUSH2 0x24C JUMP JUMPDEST JUMPDEST PUSH1 0x0 PUSH2 0x169 DUP7 DUP3 DUP8 ADD PUSH2 0x103 JUMP JUMPDEST SWAP4 POP POP PUSH1 0x20 PUSH2 0x17A DUP7 DUP3 DUP8 ADD PUSH2 0x118 JUMP JUMPDEST SWAP3 POP POP PUSH1 0x40 PUSH2 0x18B DUP7 DUP3 DUP8 ADD PUSH2 0xEE JUMP JUMPDEST SWAP2 POP POP SWAP3 POP SWAP3 POP SWAP3 JUMP JUMPDEST PUSH1 0x0 PUSH1 0x20 DUP3 DUP5 SUB SLT ISZERO PUSH2 0x1AB JUMPI PUSH2 0x1AA PUSH2 0x24C JUMP JUMPDEST JUMPDEST PUSH1 0x0 PUSH2 0x1B9 DUP5 DUP3 DUP6 ADD PUSH2 0x12D JUMP JUMPDEST SWAP2 POP POP SWAP3 SWAP2 POP POP JUMP JUMPDEST PUSH2 0x1CB DUP2 PUSH2 0x242 JUMP JUMPDEST DUP3 MSTORE POP POP JUMP JUMPDEST PUSH1 0x0 PUSH1 0x20 DUP3 ADD SWAP1 POP PUSH2 0x1E6 PUSH1 0x0 DUP4 ADD DUP5 PUSH2 0x1C2 JUMP JUMPDEST SWAP3 SWAP2 POP POP JUMP JUMPDEST PUSH1 0x0 PUSH2 0x1F7 DUP3 PUSH2 0x222 JUMP JUMPDEST SWAP1 POP SWAP2 SWAP1 POP JUMP JUMPDEST PUSH1 0x0 PUSH2 0x209 DUP3 PUSH2 0x1EC JUMP JUMPDEST SWAP1 POP SWAP2 SWAP1 POP JUMP JUMPDEST PUSH1 0x0 PUSH2 0x21B DUP3 PUSH2 0x1EC JUMP JUMPDEST SWAP1 POP SWAP2 SWAP1 POP JUMP JUMPDEST PUSH1 0x0 PUSH20 0xFFFFFFFFFFFFFFFFFFFFFFFFFFFFFFFFFFFFFFFF DUP3 AND SWAP1 POP SWAP2 SWAP1 POP JUMP JUMPDEST PUSH1 0x0 DUP2 SWAP1 POP SWAP2 SWAP1 POP JUMP JUMPDEST PUSH1 0x0 DUP1 REVERT JUMPDEST PUSH2 0x25A DUP2 PUSH2 0x1EC JUMP JUMPDEST DUP2 EQ PUSH2 0x265 JUMPI PUSH1 0x0 DUP1 REVERT JUMPDEST POP JUMP JUMPDEST PUSH2 0x271 DUP2 PUSH2 0x1FE JUMP JUMPDEST DUP2 EQ PUSH2 0x27C JUMPI PUSH1 0x0 DUP1 REVERT JUMPDEST POP JUMP JUMPDEST PUSH2 0x288 DUP2 PUSH2 0x210 JUMP JUMPDEST DUP2 EQ PUSH2 0x293 JUMPI PUSH1 0x0 DUP1 REVERT JUMPDEST POP JUMP JUMPDEST PUSH2 0x29F DUP2 PUSH2 0x242 JUMP JUMPDEST DUP2 EQ PUSH2 0x2AA JUMPI PUSH1 0x0 DUP1 REVERT JUMPDEST POP JUMP INVALID LOG2 PUSH5 0x6970667358 0x22 SLT KECCAK256 DUP7 0xD7 DUP9 PUSH18 0xA4EDFEC93FEE8B7168FE866D2BA150F15D54 SIGNEXTEND PUSH31 0x9D2A559A204F696564736F6C63430008070033000000000000000000000000 "
				},
				"gasEstimates": {
					"creation": {
						"codeDepositCost": "147800",
						"executionCost": "22302",
						"totalCost": "170102"
					},
					"external": {
						"CalcLpPrice(address,address,address)": "infinite"
					}
				},
				"methodIdentifiers": {
					"CalcLpPrice(address,address,address)": "20ae0b6d"
				}
			},
			"storageLayout": {
				"storage": [
					{
						"astId": 332,
						"contract": "contracts/LpPrice.sol:LpUtils",
						"label": "amount",
						"offset": 0,
						"slot": "0",
						"type": "t_uint256"
					}
				],
				"types": {
					"t_uint256": {
						"encoding": "inplace",
						"label": "uint256",
						"numberOfBytes": "32"
					}
				}
			},
			"userdoc": {
				"kind": "user",
				"methods": {},
				"version": 1
			}
		}
	}
}