{
	"contracts/Utils.sol": {
		"Utils": {
			"abi": [
				{
					"inputs": [],
					"name": "BUSD",
					"outputs": [
						{
							"internalType": "address",
							"name": "",
							"type": "address"
						}
					],
					"stateMutability": "view",
					"type": "function"
				},
				{
					"inputs": [
						{
							"internalType": "uint256",
							"name": "pid",
							"type": "uint256"
						},
						{
							"internalType": "address",
							"name": "lpAddress",
							"type": "address"
						},
						{
							"internalType": "bool",
							"name": "isLp",
							"type": "bool"
						},
						{
							"internalType": "contract MetaMasterChef",
							"name": "MasterChef",
							"type": "address"
						}
					],
					"name": "CalcApy",
					"outputs": [
						{
							"internalType": "uint256",
							"name": "",
							"type": "uint256"
						}
					],
					"stateMutability": "view",
					"type": "function"
				},
				{
					"inputs": [
						{
							"internalType": "contract LP",
							"name": "lpAddress",
							"type": "address"
						},
						{
							"internalType": "contract Router",
							"name": "routerAddress",
							"type": "address"
						}
					],
					"name": "CalcLpPrice",
					"outputs": [
						{
							"internalType": "uint256",
							"name": "",
							"type": "uint256"
						}
					],
					"stateMutability": "view",
					"type": "function"
				},
				{
					"inputs": [],
					"name": "WBNB",
					"outputs": [
						{
							"internalType": "address",
							"name": "",
							"type": "address"
						}
					],
					"stateMutability": "view",
					"type": "function"
				}
			],
			"devdoc": {
				"kind": "dev",
				"methods": {},
				"version": 1
			},
			"evm": {
				"assembly": "    /* \"contracts/Utils.sol\":15071:17164  contract Utils {\r... */\n  mstore(0x40, 0x80)\n    /* \"contracts/Utils.sol\":15148:15190  0xae13d989daC2f0dEbFf460aC112a837C89BAa7cd */\n  0xae13d989dac2f0debff460ac112a837c89baa7cd\n    /* \"contracts/Utils.sol\":15126:15190  address public WBNB = 0xae13d989daC2f0dEbFf460aC112a837C89BAa7cd */\n  0x00\n  dup1\n  0x0100\n  exp\n  dup2\n  sload\n  dup2\n  0xffffffffffffffffffffffffffffffffffffffff\n  mul\n  not\n  and\n  swap1\n  dup4\n  0xffffffffffffffffffffffffffffffffffffffff\n  and\n  mul\n  or\n  swap1\n  sstore\n  pop\n    /* \"contracts/Utils.sol\":15219:15261  0x78867BbEeF44f2326bF8DDd1941a4439382EF2A7 */\n  0x78867bbeef44f2326bf8ddd1941a4439382ef2a7\n    /* \"contracts/Utils.sol\":15197:15261  address public BUSD = 0x78867BbEeF44f2326bF8DDd1941a4439382EF2A7 */\n  0x01\n  exp(0x0100, 0x00)\n  dup2\n  sload\n  dup2\n  0xffffffffffffffffffffffffffffffffffffffff\n  mul\n  not\n  and\n  swap1\n  dup4\n  0xffffffffffffffffffffffffffffffffffffffff\n  and\n  mul\n  or\n  swap1\n  sstore\n  pop\n    /* \"contracts/Utils.sol\":15285:15304  1000000000000000000 */\n  0x0de0b6b3a7640000\n    /* \"contracts/Utils.sol\":15268:15304  uint256 amount = 1000000000000000000 */\n  0x02\n  sstore\n    /* \"contracts/Utils.sol\":15339:15365  10512000000000000000000000 */\n  0x08b200a96f8d058a000000\n    /* \"contracts/Utils.sol\":15313:15365  uint256 BLOCKS_PER_YEAR = 10512000000000000000000000 */\n  0x03\n  sstore\n    /* \"contracts/Utils.sol\":15071:17164  contract Utils {\r... */\n  callvalue\n  dup1\n  iszero\n  tag_1\n  jumpi\n  0x00\n  dup1\n  revert\ntag_1:\n  pop\n  dataSize(sub_0)\n  dup1\n  dataOffset(sub_0)\n  0x00\n  codecopy\n  0x00\n  return\nstop\n\nsub_0: assembly {\n        /* \"contracts/Utils.sol\":15071:17164  contract Utils {\r... */\n      mstore(0x40, 0x80)\n      callvalue\n      dup1\n      iszero\n      tag_1\n      jumpi\n      0x00\n      dup1\n      revert\n    tag_1:\n      pop\n      jumpi(tag_2, lt(calldatasize, 0x04))\n      shr(0xe0, calldataload(0x00))\n      dup1\n      0x1eff56b9\n      eq\n      tag_3\n      jumpi\n      dup1\n      0x344e49d9\n      eq\n      tag_4\n      jumpi\n      dup1\n      0x484f4ea9\n      eq\n      tag_5\n      jumpi\n      dup1\n      0x8dd95002\n      eq\n      tag_6\n      jumpi\n    tag_2:\n      0x00\n      dup1\n      revert\n        /* \"contracts/Utils.sol\":16901:17161  function CalcApy(uint256 pid, address lpAddress,bool isLp, MetaMasterChef MasterChef) external view returns(uint256){\r... */\n    tag_3:\n      tag_7\n      0x04\n      dup1\n      calldatasize\n      sub\n      dup2\n      add\n      swap1\n      tag_8\n      swap2\n      swap1\n      tag_9\n      jump\t// in\n    tag_8:\n      tag_10\n      jump\t// in\n    tag_7:\n      mload(0x40)\n      tag_11\n      swap2\n      swap1\n      tag_12\n      jump\t// in\n    tag_11:\n      mload(0x40)\n      dup1\n      swap2\n      sub\n      swap1\n      return\n        /* \"contracts/Utils.sol\":15930:16858  function CalcLpPrice(LP lpAddress, Router routerAddress) external view returns(uint256){\r... */\n    tag_4:\n      tag_13\n      0x04\n      dup1\n      calldatasize\n      sub\n      dup2\n      add\n      swap1\n      tag_14\n      swap2\n      swap1\n      tag_15\n      jump\t// in\n    tag_14:\n      tag_16\n      jump\t// in\n    tag_13:\n      mload(0x40)\n      tag_17\n      swap2\n      swap1\n      tag_12\n      jump\t// in\n    tag_17:\n      mload(0x40)\n      dup1\n      swap2\n      sub\n      swap1\n      return\n        /* \"contracts/Utils.sol\":15197:15261  address public BUSD = 0x78867BbEeF44f2326bF8DDd1941a4439382EF2A7 */\n    tag_5:\n      tag_18\n      tag_19\n      jump\t// in\n    tag_18:\n      mload(0x40)\n      tag_20\n      swap2\n      swap1\n      tag_21\n      jump\t// in\n    tag_20:\n      mload(0x40)\n      dup1\n      swap2\n      sub\n      swap1\n      return\n        /* \"contracts/Utils.sol\":15126:15190  address public WBNB = 0xae13d989daC2f0dEbFf460aC112a837C89BAa7cd */\n    tag_6:\n      tag_22\n      tag_23\n      jump\t// in\n    tag_22:\n      mload(0x40)\n      tag_24\n      swap2\n      swap1\n      tag_21\n      jump\t// in\n    tag_24:\n      mload(0x40)\n      dup1\n      swap2\n      sub\n      swap1\n      return\n        /* \"contracts/Utils.sol\":16901:17161  function CalcApy(uint256 pid, address lpAddress,bool isLp, MetaMasterChef MasterChef) external view returns(uint256){\r... */\n    tag_10:\n        /* \"contracts/Utils.sol\":17009:17016  uint256 */\n      0x00\n        /* \"contracts/Utils.sol\":17028:17048  PoolInfo memory pool */\n      dup1\n        /* \"contracts/Utils.sol\":17051:17061  MasterChef */\n      dup3\n        /* \"contracts/Utils.sol\":17051:17070  MasterChef.poolInfo */\n      0xffffffffffffffffffffffffffffffffffffffff\n      and\n      0x1526fe27\n        /* \"contracts/Utils.sol\":17071:17074  pid */\n      dup8\n        /* \"contracts/Utils.sol\":17051:17075  MasterChef.poolInfo(pid) */\n      mload(0x40)\n      dup3\n      0xffffffff\n      and\n      0xe0\n      shl\n      dup2\n      mstore\n      0x04\n      add\n      tag_26\n      swap2\n      swap1\n      tag_12\n      jump\t// in\n    tag_26:\n      0xc0\n      mload(0x40)\n      dup1\n      dup4\n      sub\n      dup2\n      dup7\n      dup1\n      extcodesize\n      iszero\n      dup1\n      iszero\n      tag_27\n      jumpi\n      0x00\n      dup1\n      revert\n    tag_27:\n      pop\n      gas\n      staticcall\n      iszero\n      dup1\n      iszero\n      tag_29\n      jumpi\n      returndatasize\n      0x00\n      dup1\n      returndatacopy\n      revert(0x00, returndatasize)\n    tag_29:\n      pop\n      pop\n      pop\n      pop\n      mload(0x40)\n      returndatasize\n      not(0x1f)\n      0x1f\n      dup3\n      add\n      and\n      dup3\n      add\n      dup1\n      0x40\n      mstore\n      pop\n      dup2\n      add\n      swap1\n      tag_30\n      swap2\n      swap1\n      tag_31\n      jump\t// in\n    tag_30:\n        /* \"contracts/Utils.sol\":17028:17075  PoolInfo memory pool = MasterChef.poolInfo(pid) */\n      swap1\n      pop\n        /* \"contracts/Utils.sol\":17086:17104  uint256 poolWeight */\n      0x00\n        /* \"contracts/Utils.sol\":17125:17135  MasterChef */\n      dup4\n        /* \"contracts/Utils.sol\":17125:17151  MasterChef.totalAllocPoint */\n      0xffffffffffffffffffffffffffffffffffffffff\n      and\n      0x17caf6f1\n        /* \"contracts/Utils.sol\":17125:17153  MasterChef.totalAllocPoint() */\n      mload(0x40)\n      dup2\n      0xffffffff\n      and\n      0xe0\n      shl\n      dup2\n      mstore\n      0x04\n      add\n      0x20\n      mload(0x40)\n      dup1\n      dup4\n      sub\n      dup2\n      dup7\n      dup1\n      extcodesize\n      iszero\n      dup1\n      iszero\n      tag_32\n      jumpi\n      0x00\n      dup1\n      revert\n    tag_32:\n      pop\n      gas\n      staticcall\n      iszero\n      dup1\n      iszero\n      tag_34\n      jumpi\n      returndatasize\n      0x00\n      dup1\n      returndatacopy\n      revert(0x00, returndatasize)\n    tag_34:\n      pop\n      pop\n      pop\n      pop\n      mload(0x40)\n      returndatasize\n      not(0x1f)\n      0x1f\n      dup3\n      add\n      and\n      dup3\n      add\n      dup1\n      0x40\n      mstore\n      pop\n      dup2\n      add\n      swap1\n      tag_35\n      swap2\n      swap1\n      tag_36\n      jump\t// in\n    tag_35:\n        /* \"contracts/Utils.sol\":17107:17111  pool */\n      dup3\n        /* \"contracts/Utils.sol\":17107:17122  pool.allocPoint */\n      0x20\n      add\n      mload\n        /* \"contracts/Utils.sol\":17107:17153  pool.allocPoint * MasterChef.totalAllocPoint() */\n      tag_37\n      swap2\n      swap1\n      tag_38\n      jump\t// in\n    tag_37:\n        /* \"contracts/Utils.sol\":17086:17153  uint256 poolWeight = pool.allocPoint * MasterChef.totalAllocPoint() */\n      swap1\n      pop\n        /* \"contracts/Utils.sol\":17017:17161  {\r... */\n      pop\n      pop\n        /* \"contracts/Utils.sol\":16901:17161  function CalcApy(uint256 pid, address lpAddress,bool isLp, MetaMasterChef MasterChef) external view returns(uint256){\r... */\n      swap5\n      swap4\n      pop\n      pop\n      pop\n      pop\n      jump\t// out\n        /* \"contracts/Utils.sol\":15930:16858  function CalcLpPrice(LP lpAddress, Router routerAddress) external view returns(uint256){\r... */\n    tag_16:\n        /* \"contracts/Utils.sol\":16009:16016  uint256 */\n      0x00\n        /* \"contracts/Utils.sol\":16028:16042  uint256 phase1 */\n      dup1\n        /* \"contracts/Utils.sol\":16053:16067  uint256 phase2 */\n      0x00\n        /* \"contracts/Utils.sol\":16106:16115  lpAddress */\n      dup5\n        /* \"contracts/Utils.sol\":16106:16122  lpAddress.token0 */\n      0xffffffffffffffffffffffffffffffffffffffff\n      and\n      0x0dfe1681\n        /* \"contracts/Utils.sol\":16106:16124  lpAddress.token0() */\n      mload(0x40)\n      dup2\n      0xffffffff\n      and\n      0xe0\n      shl\n      dup2\n      mstore\n      0x04\n      add\n      0x20\n      mload(0x40)\n      dup1\n      dup4\n      sub\n      dup2\n      dup7\n      dup1\n      extcodesize\n      iszero\n      dup1\n      iszero\n      tag_40\n      jumpi\n      0x00\n      dup1\n      revert\n    tag_40:\n      pop\n      gas\n      staticcall\n      iszero\n      dup1\n      iszero\n      tag_42\n      jumpi\n      returndatasize\n      0x00\n      dup1\n      returndatacopy\n      revert(0x00, returndatasize)\n    tag_42:\n      pop\n      pop\n      pop\n      pop\n      mload(0x40)\n      returndatasize\n      not(0x1f)\n      0x1f\n      dup3\n      add\n      and\n      dup3\n      add\n      dup1\n      0x40\n      mstore\n      pop\n      dup2\n      add\n      swap1\n      tag_43\n      swap2\n      swap1\n      tag_44\n      jump\t// in\n    tag_43:\n        /* \"contracts/Utils.sol\":16081:16125  address(WBNB) != address(lpAddress.token0()) */\n      0xffffffffffffffffffffffffffffffffffffffff\n      and\n        /* \"contracts/Utils.sol\":16089:16093  WBNB */\n      0x00\n      dup1\n      sload\n      swap1\n      0x0100\n      exp\n      swap1\n      div\n      0xffffffffffffffffffffffffffffffffffffffff\n      and\n        /* \"contracts/Utils.sol\":16081:16125  address(WBNB) != address(lpAddress.token0()) */\n      0xffffffffffffffffffffffffffffffffffffffff\n      and\n      eq\n        /* \"contracts/Utils.sol\":16078:16419  if(address(WBNB) != address(lpAddress.token0())){\r... */\n      tag_45\n      jumpi\n        /* \"contracts/Utils.sol\":16151:16258  lpAddress.token0().balanceOf(address(lpAddress)).mul(Tokenprice(routerAddress,address(lpAddress.token0()))) */\n      tag_46\n        /* \"contracts/Utils.sol\":16204:16257  Tokenprice(routerAddress,address(lpAddress.token0())) */\n      tag_47\n        /* \"contracts/Utils.sol\":16215:16228  routerAddress */\n      dup6\n        /* \"contracts/Utils.sol\":16237:16246  lpAddress */\n      dup8\n        /* \"contracts/Utils.sol\":16237:16253  lpAddress.token0 */\n      0xffffffffffffffffffffffffffffffffffffffff\n      and\n      0x0dfe1681\n        /* \"contracts/Utils.sol\":16237:16255  lpAddress.token0() */\n      mload(0x40)\n      dup2\n      0xffffffff\n      and\n      0xe0\n      shl\n      dup2\n      mstore\n      0x04\n      add\n      0x20\n      mload(0x40)\n      dup1\n      dup4\n      sub\n      dup2\n      dup7\n      dup1\n      extcodesize\n      iszero\n      dup1\n      iszero\n      tag_48\n      jumpi\n      0x00\n      dup1\n      revert\n    tag_48:\n      pop\n      gas\n      staticcall\n      iszero\n      dup1\n      iszero\n      tag_50\n      jumpi\n      returndatasize\n      0x00\n      dup1\n      returndatacopy\n      revert(0x00, returndatasize)\n    tag_50:\n      pop\n      pop\n      pop\n      pop\n      mload(0x40)\n      returndatasize\n      not(0x1f)\n      0x1f\n      dup3\n      add\n      and\n      dup3\n      add\n      dup1\n      0x40\n      mstore\n      pop\n      dup2\n      add\n      swap1\n      tag_51\n      swap2\n      swap1\n      tag_44\n      jump\t// in\n    tag_51:\n        /* \"contracts/Utils.sol\":16204:16214  Tokenprice */\n      tag_52\n        /* \"contracts/Utils.sol\":16204:16257  Tokenprice(routerAddress,address(lpAddress.token0())) */\n      jump\t// in\n    tag_47:\n        /* \"contracts/Utils.sol\":16151:16160  lpAddress */\n      dup7\n        /* \"contracts/Utils.sol\":16151:16167  lpAddress.token0 */\n      0xffffffffffffffffffffffffffffffffffffffff\n      and\n      0x0dfe1681\n        /* \"contracts/Utils.sol\":16151:16169  lpAddress.token0() */\n      mload(0x40)\n      dup2\n      0xffffffff\n      and\n      0xe0\n      shl\n      dup2\n      mstore\n      0x04\n      add\n      0x20\n      mload(0x40)\n      dup1\n      dup4\n      sub\n      dup2\n      dup7\n      dup1\n      extcodesize\n      iszero\n      dup1\n      iszero\n      tag_53\n      jumpi\n      0x00\n      dup1\n      revert\n    tag_53:\n      pop\n      gas\n      staticcall\n      iszero\n      dup1\n      iszero\n      tag_55\n      jumpi\n      returndatasize\n      0x00\n      dup1\n      returndatacopy\n      revert(0x00, returndatasize)\n    tag_55:\n      pop\n      pop\n      pop\n      pop\n      mload(0x40)\n      returndatasize\n      not(0x1f)\n      0x1f\n      dup3\n      add\n      and\n      dup3\n      add\n      dup1\n      0x40\n      mstore\n      pop\n      dup2\n      add\n      swap1\n      tag_56\n      swap2\n      swap1\n      tag_44\n      jump\t// in\n    tag_56:\n        /* \"contracts/Utils.sol\":16151:16179  lpAddress.token0().balanceOf */\n      0xffffffffffffffffffffffffffffffffffffffff\n      and\n      0x70a08231\n        /* \"contracts/Utils.sol\":16188:16197  lpAddress */\n      dup9\n        /* \"contracts/Utils.sol\":16151:16199  lpAddress.token0().balanceOf(address(lpAddress)) */\n      mload(0x40)\n      dup3\n      0xffffffff\n      and\n      0xe0\n      shl\n      dup2\n      mstore\n      0x04\n      add\n      tag_57\n      swap2\n      swap1\n      tag_21\n      jump\t// in\n    tag_57:\n      0x20\n      mload(0x40)\n      dup1\n      dup4\n      sub\n      dup2\n      dup7\n      dup1\n      extcodesize\n      iszero\n      dup1\n      iszero\n      tag_58\n      jumpi\n      0x00\n      dup1\n      revert\n    tag_58:\n      pop\n      gas\n      staticcall\n      iszero\n      dup1\n      iszero\n      tag_60\n      jumpi\n      returndatasize\n      0x00\n      dup1\n      returndatacopy\n      revert(0x00, returndatasize)\n    tag_60:\n      pop\n      pop\n      pop\n      pop\n      mload(0x40)\n      returndatasize\n      not(0x1f)\n      0x1f\n      dup3\n      add\n      and\n      dup3\n      add\n      dup1\n      0x40\n      mstore\n      pop\n      dup2\n      add\n      swap1\n      tag_61\n      swap2\n      swap1\n      tag_36\n      jump\t// in\n    tag_61:\n        /* \"contracts/Utils.sol\":16151:16203  lpAddress.token0().balanceOf(address(lpAddress)).mul */\n      tag_62\n      swap1\n        /* \"contracts/Utils.sol\":16151:16258  lpAddress.token0().balanceOf(address(lpAddress)).mul(Tokenprice(routerAddress,address(lpAddress.token0()))) */\n      swap2\n      swap1\n      0xffffffff\n      and\n      jump\t// in\n    tag_46:\n        /* \"contracts/Utils.sol\":16141:16259  phase1 = (lpAddress.token0().balanceOf(address(lpAddress)).mul(Tokenprice(routerAddress,address(lpAddress.token0())))) */\n      swap2\n      pop\n        /* \"contracts/Utils.sol\":16078:16419  if(address(WBNB) != address(lpAddress.token0())){\r... */\n      jump(tag_63)\n    tag_45:\n        /* \"contracts/Utils.sol\":16300:16406  lpAddress.token0().balanceOf(address(lpAddress)).mul(WBNBPrice(routerAddress,address(lpAddress.token0()))) */\n      tag_64\n        /* \"contracts/Utils.sol\":16353:16405  WBNBPrice(routerAddress,address(lpAddress.token0())) */\n      tag_65\n        /* \"contracts/Utils.sol\":16363:16376  routerAddress */\n      dup6\n        /* \"contracts/Utils.sol\":16385:16394  lpAddress */\n      dup8\n        /* \"contracts/Utils.sol\":16385:16401  lpAddress.token0 */\n      0xffffffffffffffffffffffffffffffffffffffff\n      and\n      0x0dfe1681\n        /* \"contracts/Utils.sol\":16385:16403  lpAddress.token0() */\n      mload(0x40)\n      dup2\n      0xffffffff\n      and\n      0xe0\n      shl\n      dup2\n      mstore\n      0x04\n      add\n      0x20\n      mload(0x40)\n      dup1\n      dup4\n      sub\n      dup2\n      dup7\n      dup1\n      extcodesize\n      iszero\n      dup1\n      iszero\n      tag_66\n      jumpi\n      0x00\n      dup1\n      revert\n    tag_66:\n      pop\n      gas\n      staticcall\n      iszero\n      dup1\n      iszero\n      tag_68\n      jumpi\n      returndatasize\n      0x00\n      dup1\n      returndatacopy\n      revert(0x00, returndatasize)\n    tag_68:\n      pop\n      pop\n      pop\n      pop\n      mload(0x40)\n      returndatasize\n      not(0x1f)\n      0x1f\n      dup3\n      add\n      and\n      dup3\n      add\n      dup1\n      0x40\n      mstore\n      pop\n      dup2\n      add\n      swap1\n      tag_69\n      swap2\n      swap1\n      tag_44\n      jump\t// in\n    tag_69:\n        /* \"contracts/Utils.sol\":16353:16362  WBNBPrice */\n      tag_70\n        /* \"contracts/Utils.sol\":16353:16405  WBNBPrice(routerAddress,address(lpAddress.token0())) */\n      jump\t// in\n    tag_65:\n        /* \"contracts/Utils.sol\":16300:16309  lpAddress */\n      dup7\n        /* \"contracts/Utils.sol\":16300:16316  lpAddress.token0 */\n      0xffffffffffffffffffffffffffffffffffffffff\n      and\n      0x0dfe1681\n        /* \"contracts/Utils.sol\":16300:16318  lpAddress.token0() */\n      mload(0x40)\n      dup2\n      0xffffffff\n      and\n      0xe0\n      shl\n      dup2\n      mstore\n      0x04\n      add\n      0x20\n      mload(0x40)\n      dup1\n      dup4\n      sub\n      dup2\n      dup7\n      dup1\n      extcodesize\n      iszero\n      dup1\n      iszero\n      tag_71\n      jumpi\n      0x00\n      dup1\n      revert\n    tag_71:\n      pop\n      gas\n      staticcall\n      iszero\n      dup1\n      iszero\n      tag_73\n      jumpi\n      returndatasize\n      0x00\n      dup1\n      returndatacopy\n      revert(0x00, returndatasize)\n    tag_73:\n      pop\n      pop\n      pop\n      pop\n      mload(0x40)\n      returndatasize\n      not(0x1f)\n      0x1f\n      dup3\n      add\n      and\n      dup3\n      add\n      dup1\n      0x40\n      mstore\n      pop\n      dup2\n      add\n      swap1\n      tag_74\n      swap2\n      swap1\n      tag_44\n      jump\t// in\n    tag_74:\n        /* \"contracts/Utils.sol\":16300:16328  lpAddress.token0().balanceOf */\n      0xffffffffffffffffffffffffffffffffffffffff\n      and\n      0x70a08231\n        /* \"contracts/Utils.sol\":16337:16346  lpAddress */\n      dup9\n        /* \"contracts/Utils.sol\":16300:16348  lpAddress.token0().balanceOf(address(lpAddress)) */\n      mload(0x40)\n      dup3\n      0xffffffff\n      and\n      0xe0\n      shl\n      dup2\n      mstore\n      0x04\n      add\n      tag_75\n      swap2\n      swap1\n      tag_21\n      jump\t// in\n    tag_75:\n      0x20\n      mload(0x40)\n      dup1\n      dup4\n      sub\n      dup2\n      dup7\n      dup1\n      extcodesize\n      iszero\n      dup1\n      iszero\n      tag_76\n      jumpi\n      0x00\n      dup1\n      revert\n    tag_76:\n      pop\n      gas\n      staticcall\n      iszero\n      dup1\n      iszero\n      tag_78\n      jumpi\n      returndatasize\n      0x00\n      dup1\n      returndatacopy\n      revert(0x00, returndatasize)\n    tag_78:\n      pop\n      pop\n      pop\n      pop\n      mload(0x40)\n      returndatasize\n      not(0x1f)\n      0x1f\n      dup3\n      add\n      and\n      dup3\n      add\n      dup1\n      0x40\n      mstore\n      pop\n      dup2\n      add\n      swap1\n      tag_79\n      swap2\n      swap1\n      tag_36\n      jump\t// in\n    tag_79:\n        /* \"contracts/Utils.sol\":16300:16352  lpAddress.token0().balanceOf(address(lpAddress)).mul */\n      tag_62\n      swap1\n        /* \"contracts/Utils.sol\":16300:16406  lpAddress.token0().balanceOf(address(lpAddress)).mul(WBNBPrice(routerAddress,address(lpAddress.token0()))) */\n      swap2\n      swap1\n      0xffffffff\n      and\n      jump\t// in\n    tag_64:\n        /* \"contracts/Utils.sol\":16290:16407  phase1 = (lpAddress.token0().balanceOf(address(lpAddress)).mul(WBNBPrice(routerAddress,address(lpAddress.token0())))) */\n      swap2\n      pop\n        /* \"contracts/Utils.sol\":16078:16419  if(address(WBNB) != address(lpAddress.token0())){\r... */\n    tag_63:\n        /* \"contracts/Utils.sol\":16459:16468  lpAddress */\n      dup5\n        /* \"contracts/Utils.sol\":16459:16475  lpAddress.token1 */\n      0xffffffffffffffffffffffffffffffffffffffff\n      and\n      0xd21220a7\n        /* \"contracts/Utils.sol\":16459:16477  lpAddress.token1() */\n      mload(0x40)\n      dup2\n      0xffffffff\n      and\n      0xe0\n      shl\n      dup2\n      mstore\n      0x04\n      add\n      0x20\n      mload(0x40)\n      dup1\n      dup4\n      sub\n      dup2\n      dup7\n      dup1\n      extcodesize\n      iszero\n      dup1\n      iszero\n      tag_80\n      jumpi\n      0x00\n      dup1\n      revert\n    tag_80:\n      pop\n      gas\n      staticcall\n      iszero\n      dup1\n      iszero\n      tag_82\n      jumpi\n      returndatasize\n      0x00\n      dup1\n      returndatacopy\n      revert(0x00, returndatasize)\n    tag_82:\n      pop\n      pop\n      pop\n      pop\n      mload(0x40)\n      returndatasize\n      not(0x1f)\n      0x1f\n      dup3\n      add\n      and\n      dup3\n      add\n      dup1\n      0x40\n      mstore\n      pop\n      dup2\n      add\n      swap1\n      tag_83\n      swap2\n      swap1\n      tag_44\n      jump\t// in\n    tag_83:\n        /* \"contracts/Utils.sol\":16434:16478  address(WBNB) != address(lpAddress.token1()) */\n      0xffffffffffffffffffffffffffffffffffffffff\n      and\n        /* \"contracts/Utils.sol\":16442:16446  WBNB */\n      0x00\n      dup1\n      sload\n      swap1\n      0x0100\n      exp\n      swap1\n      div\n      0xffffffffffffffffffffffffffffffffffffffff\n      and\n        /* \"contracts/Utils.sol\":16434:16478  address(WBNB) != address(lpAddress.token1()) */\n      0xffffffffffffffffffffffffffffffffffffffff\n      and\n      eq\n        /* \"contracts/Utils.sol\":16431:16772  if(address(WBNB) != address(lpAddress.token1())){\r... */\n      tag_84\n      jumpi\n        /* \"contracts/Utils.sol\":16504:16611  lpAddress.token1().balanceOf(address(lpAddress)).mul(Tokenprice(routerAddress,address(lpAddress.token1()))) */\n      tag_85\n        /* \"contracts/Utils.sol\":16557:16610  Tokenprice(routerAddress,address(lpAddress.token1())) */\n      tag_86\n        /* \"contracts/Utils.sol\":16568:16581  routerAddress */\n      dup6\n        /* \"contracts/Utils.sol\":16590:16599  lpAddress */\n      dup8\n        /* \"contracts/Utils.sol\":16590:16606  lpAddress.token1 */\n      0xffffffffffffffffffffffffffffffffffffffff\n      and\n      0xd21220a7\n        /* \"contracts/Utils.sol\":16590:16608  lpAddress.token1() */\n      mload(0x40)\n      dup2\n      0xffffffff\n      and\n      0xe0\n      shl\n      dup2\n      mstore\n      0x04\n      add\n      0x20\n      mload(0x40)\n      dup1\n      dup4\n      sub\n      dup2\n      dup7\n      dup1\n      extcodesize\n      iszero\n      dup1\n      iszero\n      tag_87\n      jumpi\n      0x00\n      dup1\n      revert\n    tag_87:\n      pop\n      gas\n      staticcall\n      iszero\n      dup1\n      iszero\n      tag_89\n      jumpi\n      returndatasize\n      0x00\n      dup1\n      returndatacopy\n      revert(0x00, returndatasize)\n    tag_89:\n      pop\n      pop\n      pop\n      pop\n      mload(0x40)\n      returndatasize\n      not(0x1f)\n      0x1f\n      dup3\n      add\n      and\n      dup3\n      add\n      dup1\n      0x40\n      mstore\n      pop\n      dup2\n      add\n      swap1\n      tag_90\n      swap2\n      swap1\n      tag_44\n      jump\t// in\n    tag_90:\n        /* \"contracts/Utils.sol\":16557:16567  Tokenprice */\n      tag_52\n        /* \"contracts/Utils.sol\":16557:16610  Tokenprice(routerAddress,address(lpAddress.token1())) */\n      jump\t// in\n    tag_86:\n        /* \"contracts/Utils.sol\":16504:16513  lpAddress */\n      dup7\n        /* \"contracts/Utils.sol\":16504:16520  lpAddress.token1 */\n      0xffffffffffffffffffffffffffffffffffffffff\n      and\n      0xd21220a7\n        /* \"contracts/Utils.sol\":16504:16522  lpAddress.token1() */\n      mload(0x40)\n      dup2\n      0xffffffff\n      and\n      0xe0\n      shl\n      dup2\n      mstore\n      0x04\n      add\n      0x20\n      mload(0x40)\n      dup1\n      dup4\n      sub\n      dup2\n      dup7\n      dup1\n      extcodesize\n      iszero\n      dup1\n      iszero\n      tag_91\n      jumpi\n      0x00\n      dup1\n      revert\n    tag_91:\n      pop\n      gas\n      staticcall\n      iszero\n      dup1\n      iszero\n      tag_93\n      jumpi\n      returndatasize\n      0x00\n      dup1\n      returndatacopy\n      revert(0x00, returndatasize)\n    tag_93:\n      pop\n      pop\n      pop\n      pop\n      mload(0x40)\n      returndatasize\n      not(0x1f)\n      0x1f\n      dup3\n      add\n      and\n      dup3\n      add\n      dup1\n      0x40\n      mstore\n      pop\n      dup2\n      add\n      swap1\n      tag_94\n      swap2\n      swap1\n      tag_44\n      jump\t// in\n    tag_94:\n        /* \"contracts/Utils.sol\":16504:16532  lpAddress.token1().balanceOf */\n      0xffffffffffffffffffffffffffffffffffffffff\n      and\n      0x70a08231\n        /* \"contracts/Utils.sol\":16541:16550  lpAddress */\n      dup9\n        /* \"contracts/Utils.sol\":16504:16552  lpAddress.token1().balanceOf(address(lpAddress)) */\n      mload(0x40)\n      dup3\n      0xffffffff\n      and\n      0xe0\n      shl\n      dup2\n      mstore\n      0x04\n      add\n      tag_95\n      swap2\n      swap1\n      tag_21\n      jump\t// in\n    tag_95:\n      0x20\n      mload(0x40)\n      dup1\n      dup4\n      sub\n      dup2\n      dup7\n      dup1\n      extcodesize\n      iszero\n      dup1\n      iszero\n      tag_96\n      jumpi\n      0x00\n      dup1\n      revert\n    tag_96:\n      pop\n      gas\n      staticcall\n      iszero\n      dup1\n      iszero\n      tag_98\n      jumpi\n      returndatasize\n      0x00\n      dup1\n      returndatacopy\n      revert(0x00, returndatasize)\n    tag_98:\n      pop\n      pop\n      pop\n      pop\n      mload(0x40)\n      returndatasize\n      not(0x1f)\n      0x1f\n      dup3\n      add\n      and\n      dup3\n      add\n      dup1\n      0x40\n      mstore\n      pop\n      dup2\n      add\n      swap1\n      tag_99\n      swap2\n      swap1\n      tag_36\n      jump\t// in\n    tag_99:\n        /* \"contracts/Utils.sol\":16504:16556  lpAddress.token1().balanceOf(address(lpAddress)).mul */\n      tag_62\n      swap1\n        /* \"contracts/Utils.sol\":16504:16611  lpAddress.token1().balanceOf(address(lpAddress)).mul(Tokenprice(routerAddress,address(lpAddress.token1()))) */\n      swap2\n      swap1\n      0xffffffff\n      and\n      jump\t// in\n    tag_85:\n        /* \"contracts/Utils.sol\":16494:16612  phase2 = (lpAddress.token1().balanceOf(address(lpAddress)).mul(Tokenprice(routerAddress,address(lpAddress.token1())))) */\n      swap1\n      pop\n        /* \"contracts/Utils.sol\":16431:16772  if(address(WBNB) != address(lpAddress.token1())){\r... */\n      jump(tag_100)\n    tag_84:\n        /* \"contracts/Utils.sol\":16653:16759  lpAddress.token1().balanceOf(address(lpAddress)).mul(WBNBPrice(routerAddress,address(lpAddress.token1()))) */\n      tag_101\n        /* \"contracts/Utils.sol\":16706:16758  WBNBPrice(routerAddress,address(lpAddress.token1())) */\n      tag_102\n        /* \"contracts/Utils.sol\":16716:16729  routerAddress */\n      dup6\n        /* \"contracts/Utils.sol\":16738:16747  lpAddress */\n      dup8\n        /* \"contracts/Utils.sol\":16738:16754  lpAddress.token1 */\n      0xffffffffffffffffffffffffffffffffffffffff\n      and\n      0xd21220a7\n        /* \"contracts/Utils.sol\":16738:16756  lpAddress.token1() */\n      mload(0x40)\n      dup2\n      0xffffffff\n      and\n      0xe0\n      shl\n      dup2\n      mstore\n      0x04\n      add\n      0x20\n      mload(0x40)\n      dup1\n      dup4\n      sub\n      dup2\n      dup7\n      dup1\n      extcodesize\n      iszero\n      dup1\n      iszero\n      tag_103\n      jumpi\n      0x00\n      dup1\n      revert\n    tag_103:\n      pop\n      gas\n      staticcall\n      iszero\n      dup1\n      iszero\n      tag_105\n      jumpi\n      returndatasize\n      0x00\n      dup1\n      returndatacopy\n      revert(0x00, returndatasize)\n    tag_105:\n      pop\n      pop\n      pop\n      pop\n      mload(0x40)\n      returndatasize\n      not(0x1f)\n      0x1f\n      dup3\n      add\n      and\n      dup3\n      add\n      dup1\n      0x40\n      mstore\n      pop\n      dup2\n      add\n      swap1\n      tag_106\n      swap2\n      swap1\n      tag_44\n      jump\t// in\n    tag_106:\n        /* \"contracts/Utils.sol\":16706:16715  WBNBPrice */\n      tag_70\n        /* \"contracts/Utils.sol\":16706:16758  WBNBPrice(routerAddress,address(lpAddress.token1())) */\n      jump\t// in\n    tag_102:\n        /* \"contracts/Utils.sol\":16653:16662  lpAddress */\n      dup7\n        /* \"contracts/Utils.sol\":16653:16669  lpAddress.token1 */\n      0xffffffffffffffffffffffffffffffffffffffff\n      and\n      0xd21220a7\n        /* \"contracts/Utils.sol\":16653:16671  lpAddress.token1() */\n      mload(0x40)\n      dup2\n      0xffffffff\n      and\n      0xe0\n      shl\n      dup2\n      mstore\n      0x04\n      add\n      0x20\n      mload(0x40)\n      dup1\n      dup4\n      sub\n      dup2\n      dup7\n      dup1\n      extcodesize\n      iszero\n      dup1\n      iszero\n      tag_107\n      jumpi\n      0x00\n      dup1\n      revert\n    tag_107:\n      pop\n      gas\n      staticcall\n      iszero\n      dup1\n      iszero\n      tag_109\n      jumpi\n      returndatasize\n      0x00\n      dup1\n      returndatacopy\n      revert(0x00, returndatasize)\n    tag_109:\n      pop\n      pop\n      pop\n      pop\n      mload(0x40)\n      returndatasize\n      not(0x1f)\n      0x1f\n      dup3\n      add\n      and\n      dup3\n      add\n      dup1\n      0x40\n      mstore\n      pop\n      dup2\n      add\n      swap1\n      tag_110\n      swap2\n      swap1\n      tag_44\n      jump\t// in\n    tag_110:\n        /* \"contracts/Utils.sol\":16653:16681  lpAddress.token1().balanceOf */\n      0xffffffffffffffffffffffffffffffffffffffff\n      and\n      0x70a08231\n        /* \"contracts/Utils.sol\":16690:16699  lpAddress */\n      dup9\n        /* \"contracts/Utils.sol\":16653:16701  lpAddress.token1().balanceOf(address(lpAddress)) */\n      mload(0x40)\n      dup3\n      0xffffffff\n      and\n      0xe0\n      shl\n      dup2\n      mstore\n      0x04\n      add\n      tag_111\n      swap2\n      swap1\n      tag_21\n      jump\t// in\n    tag_111:\n      0x20\n      mload(0x40)\n      dup1\n      dup4\n      sub\n      dup2\n      dup7\n      dup1\n      extcodesize\n      iszero\n      dup1\n      iszero\n      tag_112\n      jumpi\n      0x00\n      dup1\n      revert\n    tag_112:\n      pop\n      gas\n      staticcall\n      iszero\n      dup1\n      iszero\n      tag_114\n      jumpi\n      returndatasize\n      0x00\n      dup1\n      returndatacopy\n      revert(0x00, returndatasize)\n    tag_114:\n      pop\n      pop\n      pop\n      pop\n      mload(0x40)\n      returndatasize\n      not(0x1f)\n      0x1f\n      dup3\n      add\n      and\n      dup3\n      add\n      dup1\n      0x40\n      mstore\n      pop\n      dup2\n      add\n      swap1\n      tag_115\n      swap2\n      swap1\n      tag_36\n      jump\t// in\n    tag_115:\n        /* \"contracts/Utils.sol\":16653:16705  lpAddress.token1().balanceOf(address(lpAddress)).mul */\n      tag_62\n      swap1\n        /* \"contracts/Utils.sol\":16653:16759  lpAddress.token1().balanceOf(address(lpAddress)).mul(WBNBPrice(routerAddress,address(lpAddress.token1()))) */\n      swap2\n      swap1\n      0xffffffff\n      and\n      jump\t// in\n    tag_101:\n        /* \"contracts/Utils.sol\":16643:16760  phase2 = (lpAddress.token1().balanceOf(address(lpAddress)).mul(WBNBPrice(routerAddress,address(lpAddress.token1())))) */\n      swap1\n      pop\n        /* \"contracts/Utils.sol\":16431:16772  if(address(WBNB) != address(lpAddress.token1())){\r... */\n    tag_100:\n        /* \"contracts/Utils.sol\":16800:16849  (phase1.add(phase2)).div(lpAddress.totalSupply()) */\n      tag_116\n        /* \"contracts/Utils.sol\":16825:16834  lpAddress */\n      dup6\n        /* \"contracts/Utils.sol\":16825:16846  lpAddress.totalSupply */\n      0xffffffffffffffffffffffffffffffffffffffff\n      and\n      0x18160ddd\n        /* \"contracts/Utils.sol\":16825:16848  lpAddress.totalSupply() */\n      mload(0x40)\n      dup2\n      0xffffffff\n      and\n      0xe0\n      shl\n      dup2\n      mstore\n      0x04\n      add\n      0x20\n      mload(0x40)\n      dup1\n      dup4\n      sub\n      dup2\n      dup7\n      dup1\n      extcodesize\n      iszero\n      dup1\n      iszero\n      tag_117\n      jumpi\n      0x00\n      dup1\n      revert\n    tag_117:\n      pop\n      gas\n      staticcall\n      iszero\n      dup1\n      iszero\n      tag_119\n      jumpi\n      returndatasize\n      0x00\n      dup1\n      returndatacopy\n      revert(0x00, returndatasize)\n    tag_119:\n      pop\n      pop\n      pop\n      pop\n      mload(0x40)\n      returndatasize\n      not(0x1f)\n      0x1f\n      dup3\n      add\n      and\n      dup3\n      add\n      dup1\n      0x40\n      mstore\n      pop\n      dup2\n      add\n      swap1\n      tag_120\n      swap2\n      swap1\n      tag_36\n      jump\t// in\n    tag_120:\n        /* \"contracts/Utils.sol\":16801:16819  phase1.add(phase2) */\n      tag_121\n        /* \"contracts/Utils.sol\":16812:16818  phase2 */\n      dup4\n        /* \"contracts/Utils.sol\":16801:16807  phase1 */\n      dup6\n        /* \"contracts/Utils.sol\":16801:16811  phase1.add */\n      tag_122\n      swap1\n        /* \"contracts/Utils.sol\":16801:16819  phase1.add(phase2) */\n      swap2\n      swap1\n      0xffffffff\n      and\n      jump\t// in\n    tag_121:\n        /* \"contracts/Utils.sol\":16800:16824  (phase1.add(phase2)).div */\n      tag_123\n      swap1\n        /* \"contracts/Utils.sol\":16800:16849  (phase1.add(phase2)).div(lpAddress.totalSupply()) */\n      swap2\n      swap1\n      0xffffffff\n      and\n      jump\t// in\n    tag_116:\n        /* \"contracts/Utils.sol\":16792:16850  return ((phase1.add(phase2)).div(lpAddress.totalSupply())) */\n      swap3\n      pop\n      pop\n      pop\n        /* \"contracts/Utils.sol\":15930:16858  function CalcLpPrice(LP lpAddress, Router routerAddress) external view returns(uint256){\r... */\n      swap3\n      swap2\n      pop\n      pop\n      jump\t// out\n        /* \"contracts/Utils.sol\":15197:15261  address public BUSD = 0x78867BbEeF44f2326bF8DDd1941a4439382EF2A7 */\n    tag_19:\n      0x01\n      0x00\n      swap1\n      sload\n      swap1\n      0x0100\n      exp\n      swap1\n      div\n      0xffffffffffffffffffffffffffffffffffffffff\n      and\n      dup2\n      jump\t// out\n        /* \"contracts/Utils.sol\":15126:15190  address public WBNB = 0xae13d989daC2f0dEbFf460aC112a837C89BAa7cd */\n    tag_23:\n      0x00\n      dup1\n      sload\n      swap1\n      0x0100\n      exp\n      swap1\n      div\n      0xffffffffffffffffffffffffffffffffffffffff\n      and\n      dup2\n      jump\t// out\n        /* \"contracts/Utils.sol\":15374:15657  function Tokenprice(Router routerAddress, address token) internal view returns(uint256){\r... */\n    tag_52:\n        /* \"contracts/Utils.sol\":15453:15460  uint256 */\n      0x00\n        /* \"contracts/Utils.sol\":15472:15493  address[] memory path */\n      dup1\n        /* \"contracts/Utils.sol\":15510:15511  3 */\n      0x03\n        /* \"contracts/Utils.sol\":15496:15512  new address[](3) */\n      0xffffffffffffffff\n      dup2\n      gt\n      iszero\n      tag_125\n      jumpi\n      tag_126\n      tag_127\n      jump\t// in\n    tag_126:\n    tag_125:\n      mload(0x40)\n      swap1\n      dup1\n      dup3\n      mstore\n      dup1\n      0x20\n      mul\n      0x20\n      add\n      dup3\n      add\n      0x40\n      mstore\n      dup1\n      iszero\n      tag_128\n      jumpi\n      dup2\n      0x20\n      add\n      0x20\n      dup3\n      mul\n      dup1\n      calldatasize\n      dup4\n      calldatacopy\n      dup1\n      dup3\n      add\n      swap2\n      pop\n      pop\n      swap1\n      pop\n    tag_128:\n      pop\n        /* \"contracts/Utils.sol\":15472:15512  address[] memory path = new address[](3) */\n      swap1\n      pop\n        /* \"contracts/Utils.sol\":15533:15538  token */\n      dup3\n        /* \"contracts/Utils.sol\":15523:15527  path */\n      dup2\n        /* \"contracts/Utils.sol\":15528:15529  0 */\n      0x00\n        /* \"contracts/Utils.sol\":15523:15530  path[0] */\n      dup2\n      mload\n      dup2\n      lt\n      tag_129\n      jumpi\n      tag_130\n      tag_131\n      jump\t// in\n    tag_130:\n    tag_129:\n      0x20\n      mul\n      0x20\n      add\n      add\n        /* \"contracts/Utils.sol\":15523:15538  path[0] = token */\n      swap1\n      0xffffffffffffffffffffffffffffffffffffffff\n      and\n      swap1\n      dup2\n      0xffffffffffffffffffffffffffffffffffffffff\n      and\n      dup2\n      mstore\n      pop\n      pop\n        /* \"contracts/Utils.sol\":15559:15563  WBNB */\n      0x00\n      dup1\n      sload\n      swap1\n      0x0100\n      exp\n      swap1\n      div\n      0xffffffffffffffffffffffffffffffffffffffff\n      and\n        /* \"contracts/Utils.sol\":15549:15553  path */\n      dup2\n        /* \"contracts/Utils.sol\":15554:15555  1 */\n      0x01\n        /* \"contracts/Utils.sol\":15549:15556  path[1] */\n      dup2\n      mload\n      dup2\n      lt\n      tag_132\n      jumpi\n      tag_133\n      tag_131\n      jump\t// in\n    tag_133:\n    tag_132:\n      0x20\n      mul\n      0x20\n      add\n      add\n        /* \"contracts/Utils.sol\":15549:15563  path[1] = WBNB */\n      swap1\n      0xffffffffffffffffffffffffffffffffffffffff\n      and\n      swap1\n      dup2\n      0xffffffffffffffffffffffffffffffffffffffff\n      and\n      dup2\n      mstore\n      pop\n      pop\n        /* \"contracts/Utils.sol\":15584:15588  BUSD */\n      0x01\n      0x00\n      swap1\n      sload\n      swap1\n      0x0100\n      exp\n      swap1\n      div\n      0xffffffffffffffffffffffffffffffffffffffff\n      and\n        /* \"contracts/Utils.sol\":15574:15578  path */\n      dup2\n        /* \"contracts/Utils.sol\":15579:15580  2 */\n      0x02\n        /* \"contracts/Utils.sol\":15574:15581  path[2] */\n      dup2\n      mload\n      dup2\n      lt\n      tag_134\n      jumpi\n      tag_135\n      tag_131\n      jump\t// in\n    tag_135:\n    tag_134:\n      0x20\n      mul\n      0x20\n      add\n      add\n        /* \"contracts/Utils.sol\":15574:15588  path[2] = BUSD */\n      swap1\n      0xffffffffffffffffffffffffffffffffffffffff\n      and\n      swap1\n      dup2\n      0xffffffffffffffffffffffffffffffffffffffff\n      and\n      dup2\n      mstore\n      pop\n      pop\n        /* \"contracts/Utils.sol\":15606:15619  routerAddress */\n      dup4\n        /* \"contracts/Utils.sol\":15606:15633  routerAddress.getAmountsOut */\n      0xffffffffffffffffffffffffffffffffffffffff\n      and\n      0xd06ca61f\n        /* \"contracts/Utils.sol\":15634:15640  amount */\n      sload(0x02)\n        /* \"contracts/Utils.sol\":15641:15645  path */\n      dup4\n        /* \"contracts/Utils.sol\":15606:15646  routerAddress.getAmountsOut(amount,path) */\n      mload(0x40)\n      dup4\n      0xffffffff\n      and\n      0xe0\n      shl\n      dup2\n      mstore\n      0x04\n      add\n      tag_136\n      swap3\n      swap2\n      swap1\n      tag_137\n      jump\t// in\n    tag_136:\n      0x00\n      mload(0x40)\n      dup1\n      dup4\n      sub\n      dup2\n      dup7\n      dup1\n      extcodesize\n      iszero\n      dup1\n      iszero\n      tag_138\n      jumpi\n      0x00\n      dup1\n      revert\n    tag_138:\n      pop\n      gas\n      staticcall\n      iszero\n      dup1\n      iszero\n      tag_140\n      jumpi\n      returndatasize\n      0x00\n      dup1\n      returndatacopy\n      revert(0x00, returndatasize)\n    tag_140:\n      pop\n      pop\n      pop\n      pop\n      mload(0x40)\n      returndatasize\n      0x00\n      dup3\n      returndatacopy\n      returndatasize\n      not(0x1f)\n      0x1f\n      dup3\n      add\n      and\n      dup3\n      add\n      dup1\n      0x40\n      mstore\n      pop\n      dup2\n      add\n      swap1\n      tag_141\n      swap2\n      swap1\n      tag_142\n      jump\t// in\n    tag_141:\n        /* \"contracts/Utils.sol\":15647:15648  2 */\n      0x02\n        /* \"contracts/Utils.sol\":15606:15649  routerAddress.getAmountsOut(amount,path)[2] */\n      dup2\n      mload\n      dup2\n      lt\n      tag_143\n      jumpi\n      tag_144\n      tag_131\n      jump\t// in\n    tag_144:\n    tag_143:\n      0x20\n      mul\n      0x20\n      add\n      add\n      mload\n        /* \"contracts/Utils.sol\":15599:15649  return routerAddress.getAmountsOut(amount,path)[2] */\n      swap2\n      pop\n      pop\n        /* \"contracts/Utils.sol\":15374:15657  function Tokenprice(Router routerAddress, address token) internal view returns(uint256){\r... */\n      swap3\n      swap2\n      pop\n      pop\n      jump\t// out\n        /* \"contracts/Utils.sol\":9965:10436  function mul(uint256 a, uint256 b) internal pure returns (uint256) {\r... */\n    tag_62:\n        /* \"contracts/Utils.sol\":10023:10030  uint256 */\n      0x00\n        /* \"contracts/Utils.sol\":10273:10274  0 */\n      dup1\n        /* \"contracts/Utils.sol\":10268:10269  a */\n      dup4\n        /* \"contracts/Utils.sol\":10268:10274  a == 0 */\n      eq\n        /* \"contracts/Utils.sol\":10264:10311  if (a == 0) {\r... */\n      iszero\n      tag_146\n      jumpi\n        /* \"contracts/Utils.sol\":10298:10299  0 */\n      0x00\n        /* \"contracts/Utils.sol\":10291:10299  return 0 */\n      swap1\n      pop\n      jump(tag_145)\n        /* \"contracts/Utils.sol\":10264:10311  if (a == 0) {\r... */\n    tag_146:\n        /* \"contracts/Utils.sol\":10323:10332  uint256 c */\n      0x00\n        /* \"contracts/Utils.sol\":10339:10340  b */\n      dup3\n        /* \"contracts/Utils.sol\":10335:10336  a */\n      dup5\n        /* \"contracts/Utils.sol\":10335:10340  a * b */\n      tag_147\n      swap2\n      swap1\n      tag_38\n      jump\t// in\n    tag_147:\n        /* \"contracts/Utils.sol\":10323:10340  uint256 c = a * b */\n      swap1\n      pop\n        /* \"contracts/Utils.sol\":10368:10369  b */\n      dup3\n        /* \"contracts/Utils.sol\":10363:10364  a */\n      dup5\n        /* \"contracts/Utils.sol\":10359:10360  c */\n      dup3\n        /* \"contracts/Utils.sol\":10359:10364  c / a */\n      tag_148\n      swap2\n      swap1\n      tag_149\n      jump\t// in\n    tag_148:\n        /* \"contracts/Utils.sol\":10359:10369  c / a == b */\n      eq\n        /* \"contracts/Utils.sol\":10351:10407  require(c / a == b, \"SafeMath: multiplication overflow\") */\n      tag_150\n      jumpi\n      mload(0x40)\n      0x08c379a000000000000000000000000000000000000000000000000000000000\n      dup2\n      mstore\n      0x04\n      add\n      tag_151\n      swap1\n      tag_152\n      jump\t// in\n    tag_151:\n      mload(0x40)\n      dup1\n      swap2\n      sub\n      swap1\n      revert\n    tag_150:\n        /* \"contracts/Utils.sol\":10427:10428  c */\n      dup1\n        /* \"contracts/Utils.sol\":10420:10428  return c */\n      swap2\n      pop\n      pop\n        /* \"contracts/Utils.sol\":9965:10436  function mul(uint256 a, uint256 b) internal pure returns (uint256) {\r... */\n    tag_145:\n      swap3\n      swap2\n      pop\n      pop\n      jump\t// out\n        /* \"contracts/Utils.sol\":15665:15922  function WBNBPrice(Router routerAddress, address token) internal view returns(uint256){\r... */\n    tag_70:\n        /* \"contracts/Utils.sol\":15743:15750  uint256 */\n      0x00\n        /* \"contracts/Utils.sol\":15762:15783  address[] memory path */\n      dup1\n        /* \"contracts/Utils.sol\":15800:15801  2 */\n      0x02\n        /* \"contracts/Utils.sol\":15786:15802  new address[](2) */\n      0xffffffffffffffff\n      dup2\n      gt\n      iszero\n      tag_154\n      jumpi\n      tag_155\n      tag_127\n      jump\t// in\n    tag_155:\n    tag_154:\n      mload(0x40)\n      swap1\n      dup1\n      dup3\n      mstore\n      dup1\n      0x20\n      mul\n      0x20\n      add\n      dup3\n      add\n      0x40\n      mstore\n      dup1\n      iszero\n      tag_156\n      jumpi\n      dup2\n      0x20\n      add\n      0x20\n      dup3\n      mul\n      dup1\n      calldatasize\n      dup4\n      calldatacopy\n      dup1\n      dup3\n      add\n      swap2\n      pop\n      pop\n      swap1\n      pop\n    tag_156:\n      pop\n        /* \"contracts/Utils.sol\":15762:15802  address[] memory path = new address[](2) */\n      swap1\n      pop\n        /* \"contracts/Utils.sol\":15823:15828  token */\n      dup3\n        /* \"contracts/Utils.sol\":15813:15817  path */\n      dup2\n        /* \"contracts/Utils.sol\":15818:15819  0 */\n      0x00\n        /* \"contracts/Utils.sol\":15813:15820  path[0] */\n      dup2\n      mload\n      dup2\n      lt\n      tag_157\n      jumpi\n      tag_158\n      tag_131\n      jump\t// in\n    tag_158:\n    tag_157:\n      0x20\n      mul\n      0x20\n      add\n      add\n        /* \"contracts/Utils.sol\":15813:15828  path[0] = token */\n      swap1\n      0xffffffffffffffffffffffffffffffffffffffff\n      and\n      swap1\n      dup2\n      0xffffffffffffffffffffffffffffffffffffffff\n      and\n      dup2\n      mstore\n      pop\n      pop\n        /* \"contracts/Utils.sol\":15849:15853  BUSD */\n      0x01\n      0x00\n      swap1\n      sload\n      swap1\n      0x0100\n      exp\n      swap1\n      div\n      0xffffffffffffffffffffffffffffffffffffffff\n      and\n        /* \"contracts/Utils.sol\":15839:15843  path */\n      dup2\n        /* \"contracts/Utils.sol\":15844:15845  1 */\n      0x01\n        /* \"contracts/Utils.sol\":15839:15846  path[1] */\n      dup2\n      mload\n      dup2\n      lt\n      tag_159\n      jumpi\n      tag_160\n      tag_131\n      jump\t// in\n    tag_160:\n    tag_159:\n      0x20\n      mul\n      0x20\n      add\n      add\n        /* \"contracts/Utils.sol\":15839:15853  path[1] = BUSD */\n      swap1\n      0xffffffffffffffffffffffffffffffffffffffff\n      and\n      swap1\n      dup2\n      0xffffffffffffffffffffffffffffffffffffffff\n      and\n      dup2\n      mstore\n      pop\n      pop\n        /* \"contracts/Utils.sol\":15871:15884  routerAddress */\n      dup4\n        /* \"contracts/Utils.sol\":15871:15898  routerAddress.getAmountsOut */\n      0xffffffffffffffffffffffffffffffffffffffff\n      and\n      0xd06ca61f\n        /* \"contracts/Utils.sol\":15899:15905  amount */\n      sload(0x02)\n        /* \"contracts/Utils.sol\":15906:15910  path */\n      dup4\n        /* \"contracts/Utils.sol\":15871:15911  routerAddress.getAmountsOut(amount,path) */\n      mload(0x40)\n      dup4\n      0xffffffff\n      and\n      0xe0\n      shl\n      dup2\n      mstore\n      0x04\n      add\n      tag_161\n      swap3\n      swap2\n      swap1\n      tag_137\n      jump\t// in\n    tag_161:\n      0x00\n      mload(0x40)\n      dup1\n      dup4\n      sub\n      dup2\n      dup7\n      dup1\n      extcodesize\n      iszero\n      dup1\n      iszero\n      tag_162\n      jumpi\n      0x00\n      dup1\n      revert\n    tag_162:\n      pop\n      gas\n      staticcall\n      iszero\n      dup1\n      iszero\n      tag_164\n      jumpi\n      returndatasize\n      0x00\n      dup1\n      returndatacopy\n      revert(0x00, returndatasize)\n    tag_164:\n      pop\n      pop\n      pop\n      pop\n      mload(0x40)\n      returndatasize\n      0x00\n      dup3\n      returndatacopy\n      returndatasize\n      not(0x1f)\n      0x1f\n      dup3\n      add\n      and\n      dup3\n      add\n      dup1\n      0x40\n      mstore\n      pop\n      dup2\n      add\n      swap1\n      tag_165\n      swap2\n      swap1\n      tag_142\n      jump\t// in\n    tag_165:\n        /* \"contracts/Utils.sol\":15912:15913  1 */\n      0x01\n        /* \"contracts/Utils.sol\":15871:15914  routerAddress.getAmountsOut(amount,path)[1] */\n      dup2\n      mload\n      dup2\n      lt\n      tag_166\n      jumpi\n      tag_167\n      tag_131\n      jump\t// in\n    tag_167:\n    tag_166:\n      0x20\n      mul\n      0x20\n      add\n      add\n      mload\n        /* \"contracts/Utils.sol\":15864:15914  return routerAddress.getAmountsOut(amount,path)[1] */\n      swap2\n      pop\n      pop\n        /* \"contracts/Utils.sol\":15665:15922  function WBNBPrice(Router routerAddress, address token) internal view returns(uint256){\r... */\n      swap3\n      swap2\n      pop\n      pop\n      jump\t// out\n        /* \"contracts/Utils.sol\":8593:8774  function add(uint256 a, uint256 b) internal pure returns (uint256) {\r... */\n    tag_122:\n        /* \"contracts/Utils.sol\":8651:8658  uint256 */\n      0x00\n        /* \"contracts/Utils.sol\":8671:8680  uint256 c */\n      dup1\n        /* \"contracts/Utils.sol\":8687:8688  b */\n      dup3\n        /* \"contracts/Utils.sol\":8683:8684  a */\n      dup5\n        /* \"contracts/Utils.sol\":8683:8688  a + b */\n      tag_169\n      swap2\n      swap1\n      tag_170\n      jump\t// in\n    tag_169:\n        /* \"contracts/Utils.sol\":8671:8688  uint256 c = a + b */\n      swap1\n      pop\n        /* \"contracts/Utils.sol\":8712:8713  a */\n      dup4\n        /* \"contracts/Utils.sol\":8707:8708  c */\n      dup2\n        /* \"contracts/Utils.sol\":8707:8713  c >= a */\n      lt\n      iszero\n        /* \"contracts/Utils.sol\":8699:8745  require(c >= a, \"SafeMath: addition overflow\") */\n      tag_171\n      jumpi\n      mload(0x40)\n      0x08c379a000000000000000000000000000000000000000000000000000000000\n      dup2\n      mstore\n      0x04\n      add\n      tag_172\n      swap1\n      tag_173\n      jump\t// in\n    tag_172:\n      mload(0x40)\n      dup1\n      swap2\n      sub\n      swap1\n      revert\n    tag_171:\n        /* \"contracts/Utils.sol\":8765:8766  c */\n      dup1\n        /* \"contracts/Utils.sol\":8758:8766  return c */\n      swap2\n      pop\n      pop\n        /* \"contracts/Utils.sol\":8593:8774  function add(uint256 a, uint256 b) internal pure returns (uint256) {\r... */\n      swap3\n      swap2\n      pop\n      pop\n      jump\t// out\n        /* \"contracts/Utils.sol\":10904:11036  function div(uint256 a, uint256 b) internal pure returns (uint256) {\r... */\n    tag_123:\n        /* \"contracts/Utils.sol\":10962:10969  uint256 */\n      0x00\n        /* \"contracts/Utils.sol\":10989:11028  div(a, b, \"SafeMath: division by zero\") */\n      tag_175\n        /* \"contracts/Utils.sol\":10993:10994  a */\n      dup4\n        /* \"contracts/Utils.sol\":10996:10997  b */\n      dup4\n        /* \"contracts/Utils.sol\":10989:11028  div(a, b, \"SafeMath: division by zero\") */\n      mload(0x40)\n      dup1\n      0x40\n      add\n      0x40\n      mstore\n      dup1\n      0x1a\n      dup2\n      mstore\n      0x20\n      add\n      0x536166654d6174683a206469766973696f6e206279207a65726f000000000000\n      dup2\n      mstore\n      pop\n        /* \"contracts/Utils.sol\":10989:10992  div */\n      tag_176\n        /* \"contracts/Utils.sol\":10989:11028  div(a, b, \"SafeMath: division by zero\") */\n      jump\t// in\n    tag_175:\n        /* \"contracts/Utils.sol\":10982:11028  return div(a, b, \"SafeMath: division by zero\") */\n      swap1\n      pop\n        /* \"contracts/Utils.sol\":10904:11036  function div(uint256 a, uint256 b) internal pure returns (uint256) {\r... */\n      swap3\n      swap2\n      pop\n      pop\n      jump\t// out\n        /* \"contracts/Utils.sol\":11566:11911  function div(uint256 a, uint256 b, string memory errorMessage) internal pure returns (uint256) {\r... */\n    tag_176:\n        /* \"contracts/Utils.sol\":11652:11659  uint256 */\n      0x00\n        /* \"contracts/Utils.sol\":11751:11752  0 */\n      dup1\n        /* \"contracts/Utils.sol\":11747:11748  b */\n      dup4\n        /* \"contracts/Utils.sol\":11747:11752  b > 0 */\n      gt\n        /* \"contracts/Utils.sol\":11754:11766  errorMessage */\n      dup3\n        /* \"contracts/Utils.sol\":11739:11767  require(b > 0, errorMessage) */\n      swap1\n      tag_178\n      jumpi\n      mload(0x40)\n      0x08c379a000000000000000000000000000000000000000000000000000000000\n      dup2\n      mstore\n      0x04\n      add\n      tag_179\n      swap2\n      swap1\n      tag_180\n      jump\t// in\n    tag_179:\n      mload(0x40)\n      dup1\n      swap2\n      sub\n      swap1\n      revert\n    tag_178:\n      pop\n        /* \"contracts/Utils.sol\":11778:11787  uint256 c */\n      0x00\n        /* \"contracts/Utils.sol\":11794:11795  b */\n      dup4\n        /* \"contracts/Utils.sol\":11790:11791  a */\n      dup6\n        /* \"contracts/Utils.sol\":11790:11795  a / b */\n      tag_181\n      swap2\n      swap1\n      tag_149\n      jump\t// in\n    tag_181:\n        /* \"contracts/Utils.sol\":11778:11795  uint256 c = a / b */\n      swap1\n      pop\n        /* \"contracts/Utils.sol\":11902:11903  c */\n      dup1\n        /* \"contracts/Utils.sol\":11895:11903  return c */\n      swap2\n      pop\n      pop\n        /* \"contracts/Utils.sol\":11566:11911  function div(uint256 a, uint256 b, string memory errorMessage) internal pure returns (uint256) {\r... */\n      swap4\n      swap3\n      pop\n      pop\n      pop\n      jump\t// out\n        /* \"#utility.yul\":24:768   */\n    tag_183:\n        /* \"#utility.yul\":131:136   */\n      0x00\n        /* \"#utility.yul\":156:237   */\n      tag_185\n        /* \"#utility.yul\":172:236   */\n      tag_186\n        /* \"#utility.yul\":229:235   */\n      dup5\n        /* \"#utility.yul\":172:236   */\n      tag_187\n      jump\t// in\n    tag_186:\n        /* \"#utility.yul\":156:237   */\n      tag_188\n      jump\t// in\n    tag_185:\n        /* \"#utility.yul\":147:237   */\n      swap1\n      pop\n        /* \"#utility.yul\":257:262   */\n      dup1\n        /* \"#utility.yul\":286:292   */\n      dup4\n        /* \"#utility.yul\":279:284   */\n      dup3\n        /* \"#utility.yul\":272:293   */\n      mstore\n        /* \"#utility.yul\":320:324   */\n      0x20\n        /* \"#utility.yul\":313:318   */\n      dup3\n        /* \"#utility.yul\":309:325   */\n      add\n        /* \"#utility.yul\":302:325   */\n      swap1\n      pop\n        /* \"#utility.yul\":346:352   */\n      dup3\n        /* \"#utility.yul\":396:399   */\n      dup6\n        /* \"#utility.yul\":388:392   */\n      0x20\n        /* \"#utility.yul\":380:386   */\n      dup7\n        /* \"#utility.yul\":376:393   */\n      mul\n        /* \"#utility.yul\":371:374   */\n      dup3\n        /* \"#utility.yul\":367:394   */\n      add\n        /* \"#utility.yul\":364:400   */\n      gt\n        /* \"#utility.yul\":361:504   */\n      iszero\n      tag_189\n      jumpi\n        /* \"#utility.yul\":415:494   */\n      tag_190\n      tag_191\n      jump\t// in\n    tag_190:\n        /* \"#utility.yul\":361:504   */\n    tag_189:\n        /* \"#utility.yul\":528:529   */\n      0x00\n        /* \"#utility.yul\":513:762   */\n    tag_192:\n        /* \"#utility.yul\":538:544   */\n      dup6\n        /* \"#utility.yul\":535:536   */\n      dup2\n        /* \"#utility.yul\":532:545   */\n      lt\n        /* \"#utility.yul\":513:762   */\n      iszero\n      tag_194\n      jumpi\n        /* \"#utility.yul\":606:609   */\n      dup2\n        /* \"#utility.yul\":635:683   */\n      tag_195\n        /* \"#utility.yul\":679:682   */\n      dup9\n        /* \"#utility.yul\":667:677   */\n      dup3\n        /* \"#utility.yul\":635:683   */\n      tag_196\n      jump\t// in\n    tag_195:\n        /* \"#utility.yul\":630:633   */\n      dup5\n        /* \"#utility.yul\":623:684   */\n      mstore\n        /* \"#utility.yul\":713:717   */\n      0x20\n        /* \"#utility.yul\":708:711   */\n      dup5\n        /* \"#utility.yul\":704:718   */\n      add\n        /* \"#utility.yul\":697:718   */\n      swap4\n      pop\n        /* \"#utility.yul\":747:751   */\n      0x20\n        /* \"#utility.yul\":742:745   */\n      dup4\n        /* \"#utility.yul\":738:752   */\n      add\n        /* \"#utility.yul\":731:752   */\n      swap3\n      pop\n        /* \"#utility.yul\":573:762   */\n      pop\n        /* \"#utility.yul\":560:561   */\n      0x01\n        /* \"#utility.yul\":557:558   */\n      dup2\n        /* \"#utility.yul\":553:562   */\n      add\n        /* \"#utility.yul\":548:562   */\n      swap1\n      pop\n        /* \"#utility.yul\":513:762   */\n      jump(tag_192)\n    tag_194:\n        /* \"#utility.yul\":517:531   */\n      pop\n        /* \"#utility.yul\":137:768   */\n      pop\n      pop\n        /* \"#utility.yul\":24:768   */\n      swap4\n      swap3\n      pop\n      pop\n      pop\n      jump\t// out\n        /* \"#utility.yul\":774:913   */\n    tag_197:\n        /* \"#utility.yul\":820:825   */\n      0x00\n        /* \"#utility.yul\":858:864   */\n      dup2\n        /* \"#utility.yul\":845:865   */\n      calldataload\n        /* \"#utility.yul\":836:865   */\n      swap1\n      pop\n        /* \"#utility.yul\":874:907   */\n      tag_199\n        /* \"#utility.yul\":901:906   */\n      dup2\n        /* \"#utility.yul\":874:907   */\n      tag_200\n      jump\t// in\n    tag_199:\n        /* \"#utility.yul\":774:913   */\n      swap3\n      swap2\n      pop\n      pop\n      jump\t// out\n        /* \"#utility.yul\":936:1321   */\n    tag_201:\n        /* \"#utility.yul\":1018:1023   */\n      0x00\n        /* \"#utility.yul\":1067:1070   */\n      dup3\n        /* \"#utility.yul\":1060:1064   */\n      0x1f\n        /* \"#utility.yul\":1052:1058   */\n      dup4\n        /* \"#utility.yul\":1048:1065   */\n      add\n        /* \"#utility.yul\":1044:1071   */\n      slt\n        /* \"#utility.yul\":1034:1156   */\n      tag_203\n      jumpi\n        /* \"#utility.yul\":1075:1154   */\n      tag_204\n      tag_205\n      jump\t// in\n    tag_204:\n        /* \"#utility.yul\":1034:1156   */\n    tag_203:\n        /* \"#utility.yul\":1185:1191   */\n      dup2\n        /* \"#utility.yul\":1179:1192   */\n      mload\n        /* \"#utility.yul\":1210:1315   */\n      tag_206\n        /* \"#utility.yul\":1311:1314   */\n      dup5\n        /* \"#utility.yul\":1303:1309   */\n      dup3\n        /* \"#utility.yul\":1296:1300   */\n      0x20\n        /* \"#utility.yul\":1288:1294   */\n      dup7\n        /* \"#utility.yul\":1284:1301   */\n      add\n        /* \"#utility.yul\":1210:1315   */\n      tag_183\n      jump\t// in\n    tag_206:\n        /* \"#utility.yul\":1201:1315   */\n      swap2\n      pop\n        /* \"#utility.yul\":1024:1321   */\n      pop\n        /* \"#utility.yul\":936:1321   */\n      swap3\n      swap2\n      pop\n      pop\n      jump\t// out\n        /* \"#utility.yul\":1327:1460   */\n    tag_207:\n        /* \"#utility.yul\":1370:1375   */\n      0x00\n        /* \"#utility.yul\":1408:1414   */\n      dup2\n        /* \"#utility.yul\":1395:1415   */\n      calldataload\n        /* \"#utility.yul\":1386:1415   */\n      swap1\n      pop\n        /* \"#utility.yul\":1424:1454   */\n      tag_209\n        /* \"#utility.yul\":1448:1453   */\n      dup2\n        /* \"#utility.yul\":1424:1454   */\n      tag_210\n      jump\t// in\n    tag_209:\n        /* \"#utility.yul\":1327:1460   */\n      swap3\n      swap2\n      pop\n      pop\n      jump\t// out\n        /* \"#utility.yul\":1466:1637   */\n    tag_211:\n        /* \"#utility.yul\":1537:1542   */\n      0x00\n        /* \"#utility.yul\":1568:1574   */\n      dup2\n        /* \"#utility.yul\":1562:1575   */\n      mload\n        /* \"#utility.yul\":1553:1575   */\n      swap1\n      pop\n        /* \"#utility.yul\":1584:1631   */\n      tag_213\n        /* \"#utility.yul\":1625:1630   */\n      dup2\n        /* \"#utility.yul\":1584:1631   */\n      tag_214\n      jump\t// in\n    tag_213:\n        /* \"#utility.yul\":1466:1637   */\n      swap3\n      swap2\n      pop\n      pop\n      jump\t// out\n        /* \"#utility.yul\":1643:1824   */\n    tag_215:\n        /* \"#utility.yul\":1719:1724   */\n      0x00\n        /* \"#utility.yul\":1750:1756   */\n      dup2\n        /* \"#utility.yul\":1744:1757   */\n      mload\n        /* \"#utility.yul\":1735:1757   */\n      swap1\n      pop\n        /* \"#utility.yul\":1766:1818   */\n      tag_217\n        /* \"#utility.yul\":1812:1817   */\n      dup2\n        /* \"#utility.yul\":1766:1818   */\n      tag_218\n      jump\t// in\n    tag_217:\n        /* \"#utility.yul\":1643:1824   */\n      swap3\n      swap2\n      pop\n      pop\n      jump\t// out\n        /* \"#utility.yul\":1830:1989   */\n    tag_219:\n        /* \"#utility.yul\":1886:1891   */\n      0x00\n        /* \"#utility.yul\":1924:1930   */\n      dup2\n        /* \"#utility.yul\":1911:1931   */\n      calldataload\n        /* \"#utility.yul\":1902:1931   */\n      swap1\n      pop\n        /* \"#utility.yul\":1940:1983   */\n      tag_221\n        /* \"#utility.yul\":1977:1982   */\n      dup2\n        /* \"#utility.yul\":1940:1983   */\n      tag_222\n      jump\t// in\n    tag_221:\n        /* \"#utility.yul\":1830:1989   */\n      swap3\n      swap2\n      pop\n      pop\n      jump\t// out\n        /* \"#utility.yul\":1995:2178   */\n    tag_223:\n        /* \"#utility.yul\":2063:2068   */\n      0x00\n        /* \"#utility.yul\":2101:2107   */\n      dup2\n        /* \"#utility.yul\":2088:2108   */\n      calldataload\n        /* \"#utility.yul\":2079:2108   */\n      swap1\n      pop\n        /* \"#utility.yul\":2117:2172   */\n      tag_225\n        /* \"#utility.yul\":2166:2171   */\n      dup2\n        /* \"#utility.yul\":2117:2172   */\n      tag_226\n      jump\t// in\n    tag_225:\n        /* \"#utility.yul\":1995:2178   */\n      swap3\n      swap2\n      pop\n      pop\n      jump\t// out\n        /* \"#utility.yul\":2184:2351   */\n    tag_227:\n        /* \"#utility.yul\":2244:2249   */\n      0x00\n        /* \"#utility.yul\":2282:2288   */\n      dup2\n        /* \"#utility.yul\":2269:2289   */\n      calldataload\n        /* \"#utility.yul\":2260:2289   */\n      swap1\n      pop\n        /* \"#utility.yul\":2298:2345   */\n      tag_229\n        /* \"#utility.yul\":2339:2344   */\n      dup2\n        /* \"#utility.yul\":2298:2345   */\n      tag_230\n      jump\t// in\n    tag_229:\n        /* \"#utility.yul\":2184:2351   */\n      swap3\n      swap2\n      pop\n      pop\n      jump\t// out\n        /* \"#utility.yul\":2380:3771   */\n    tag_231:\n        /* \"#utility.yul\":2465:2470   */\n      0x00\n        /* \"#utility.yul\":2509:2513   */\n      0xc0\n        /* \"#utility.yul\":2497:2506   */\n      dup3\n        /* \"#utility.yul\":2492:2495   */\n      dup5\n        /* \"#utility.yul\":2488:2507   */\n      sub\n        /* \"#utility.yul\":2484:2514   */\n      slt\n        /* \"#utility.yul\":2481:2598   */\n      iszero\n      tag_233\n      jumpi\n        /* \"#utility.yul\":2517:2596   */\n      tag_234\n      tag_235\n      jump\t// in\n    tag_234:\n        /* \"#utility.yul\":2481:2598   */\n    tag_233:\n        /* \"#utility.yul\":2616:2637   */\n      tag_236\n        /* \"#utility.yul\":2632:2636   */\n      0xc0\n        /* \"#utility.yul\":2616:2637   */\n      tag_188\n      jump\t// in\n    tag_236:\n        /* \"#utility.yul\":2607:2637   */\n      swap1\n      pop\n        /* \"#utility.yul\":2699:2700   */\n      0x00\n        /* \"#utility.yul\":2739:2813   */\n      tag_237\n        /* \"#utility.yul\":2809:2812   */\n      dup5\n        /* \"#utility.yul\":2800:2806   */\n      dup3\n        /* \"#utility.yul\":2789:2798   */\n      dup6\n        /* \"#utility.yul\":2785:2807   */\n      add\n        /* \"#utility.yul\":2739:2813   */\n      tag_211\n      jump\t// in\n    tag_237:\n        /* \"#utility.yul\":2732:2736   */\n      0x00\n        /* \"#utility.yul\":2725:2730   */\n      dup4\n        /* \"#utility.yul\":2721:2737   */\n      add\n        /* \"#utility.yul\":2714:2814   */\n      mstore\n        /* \"#utility.yul\":2647:2825   */\n      pop\n        /* \"#utility.yul\":2890:2892   */\n      0x20\n        /* \"#utility.yul\":2931:2991   */\n      tag_238\n        /* \"#utility.yul\":2987:2990   */\n      dup5\n        /* \"#utility.yul\":2978:2984   */\n      dup3\n        /* \"#utility.yul\":2967:2976   */\n      dup6\n        /* \"#utility.yul\":2963:2985   */\n      add\n        /* \"#utility.yul\":2931:2991   */\n      tag_196\n      jump\t// in\n    tag_238:\n        /* \"#utility.yul\":2924:2928   */\n      0x20\n        /* \"#utility.yul\":2917:2922   */\n      dup4\n        /* \"#utility.yul\":2913:2929   */\n      add\n        /* \"#utility.yul\":2906:2992   */\n      mstore\n        /* \"#utility.yul\":2835:3003   */\n      pop\n        /* \"#utility.yul\":3073:3075   */\n      0x40\n        /* \"#utility.yul\":3114:3174   */\n      tag_239\n        /* \"#utility.yul\":3170:3173   */\n      dup5\n        /* \"#utility.yul\":3161:3167   */\n      dup3\n        /* \"#utility.yul\":3150:3159   */\n      dup6\n        /* \"#utility.yul\":3146:3168   */\n      add\n        /* \"#utility.yul\":3114:3174   */\n      tag_196\n      jump\t// in\n    tag_239:\n        /* \"#utility.yul\":3107:3111   */\n      0x40\n        /* \"#utility.yul\":3100:3105   */\n      dup4\n        /* \"#utility.yul\":3096:3112   */\n      add\n        /* \"#utility.yul\":3089:3175   */\n      mstore\n        /* \"#utility.yul\":3013:3186   */\n      pop\n        /* \"#utility.yul\":3255:3257   */\n      0x60\n        /* \"#utility.yul\":3296:3356   */\n      tag_240\n        /* \"#utility.yul\":3352:3355   */\n      dup5\n        /* \"#utility.yul\":3343:3349   */\n      dup3\n        /* \"#utility.yul\":3332:3341   */\n      dup6\n        /* \"#utility.yul\":3328:3350   */\n      add\n        /* \"#utility.yul\":3296:3356   */\n      tag_196\n      jump\t// in\n    tag_240:\n        /* \"#utility.yul\":3289:3293   */\n      0x60\n        /* \"#utility.yul\":3282:3287   */\n      dup4\n        /* \"#utility.yul\":3278:3294   */\n      add\n        /* \"#utility.yul\":3271:3357   */\n      mstore\n        /* \"#utility.yul\":3196:3368   */\n      pop\n        /* \"#utility.yul\":3437:3440   */\n      0x80\n        /* \"#utility.yul\":3479:3558   */\n      tag_241\n        /* \"#utility.yul\":3554:3557   */\n      dup5\n        /* \"#utility.yul\":3545:3551   */\n      dup3\n        /* \"#utility.yul\":3534:3543   */\n      dup6\n        /* \"#utility.yul\":3530:3552   */\n      add\n        /* \"#utility.yul\":3479:3558   */\n      tag_215\n      jump\t// in\n    tag_241:\n        /* \"#utility.yul\":3472:3476   */\n      0x80\n        /* \"#utility.yul\":3465:3470   */\n      dup4\n        /* \"#utility.yul\":3461:3477   */\n      add\n        /* \"#utility.yul\":3454:3559   */\n      mstore\n        /* \"#utility.yul\":3378:3570   */\n      pop\n        /* \"#utility.yul\":3636:3639   */\n      0xa0\n        /* \"#utility.yul\":3678:3752   */\n      tag_242\n        /* \"#utility.yul\":3748:3751   */\n      dup5\n        /* \"#utility.yul\":3739:3745   */\n      dup3\n        /* \"#utility.yul\":3728:3737   */\n      dup6\n        /* \"#utility.yul\":3724:3746   */\n      add\n        /* \"#utility.yul\":3678:3752   */\n      tag_211\n      jump\t// in\n    tag_242:\n        /* \"#utility.yul\":3671:3675   */\n      0xa0\n        /* \"#utility.yul\":3664:3669   */\n      dup4\n        /* \"#utility.yul\":3660:3676   */\n      add\n        /* \"#utility.yul\":3653:3753   */\n      mstore\n        /* \"#utility.yul\":3580:3764   */\n      pop\n        /* \"#utility.yul\":2380:3771   */\n      swap3\n      swap2\n      pop\n      pop\n      jump\t// out\n        /* \"#utility.yul\":3777:3916   */\n    tag_243:\n        /* \"#utility.yul\":3823:3828   */\n      0x00\n        /* \"#utility.yul\":3861:3867   */\n      dup2\n        /* \"#utility.yul\":3848:3868   */\n      calldataload\n        /* \"#utility.yul\":3839:3868   */\n      swap1\n      pop\n        /* \"#utility.yul\":3877:3910   */\n      tag_245\n        /* \"#utility.yul\":3904:3909   */\n      dup2\n        /* \"#utility.yul\":3877:3910   */\n      tag_246\n      jump\t// in\n    tag_245:\n        /* \"#utility.yul\":3777:3916   */\n      swap3\n      swap2\n      pop\n      pop\n      jump\t// out\n        /* \"#utility.yul\":3922:4065   */\n    tag_196:\n        /* \"#utility.yul\":3979:3984   */\n      0x00\n        /* \"#utility.yul\":4010:4016   */\n      dup2\n        /* \"#utility.yul\":4004:4017   */\n      mload\n        /* \"#utility.yul\":3995:4017   */\n      swap1\n      pop\n        /* \"#utility.yul\":4026:4059   */\n      tag_248\n        /* \"#utility.yul\":4053:4058   */\n      dup2\n        /* \"#utility.yul\":4026:4059   */\n      tag_246\n      jump\t// in\n    tag_248:\n        /* \"#utility.yul\":3922:4065   */\n      swap3\n      swap2\n      pop\n      pop\n      jump\t// out\n        /* \"#utility.yul\":4071:4625   */\n    tag_142:\n        /* \"#utility.yul\":4166:4172   */\n      0x00\n        /* \"#utility.yul\":4215:4217   */\n      0x20\n        /* \"#utility.yul\":4203:4212   */\n      dup3\n        /* \"#utility.yul\":4194:4201   */\n      dup5\n        /* \"#utility.yul\":4190:4213   */\n      sub\n        /* \"#utility.yul\":4186:4218   */\n      slt\n        /* \"#utility.yul\":4183:4302   */\n      iszero\n      tag_250\n      jumpi\n        /* \"#utility.yul\":4221:4300   */\n      tag_251\n      tag_252\n      jump\t// in\n    tag_251:\n        /* \"#utility.yul\":4183:4302   */\n    tag_250:\n        /* \"#utility.yul\":4362:4363   */\n      0x00\n        /* \"#utility.yul\":4351:4360   */\n      dup3\n        /* \"#utility.yul\":4347:4364   */\n      add\n        /* \"#utility.yul\":4341:4365   */\n      mload\n        /* \"#utility.yul\":4392:4410   */\n      0xffffffffffffffff\n        /* \"#utility.yul\":4384:4390   */\n      dup2\n        /* \"#utility.yul\":4381:4411   */\n      gt\n        /* \"#utility.yul\":4378:4495   */\n      iszero\n      tag_253\n      jumpi\n        /* \"#utility.yul\":4414:4493   */\n      tag_254\n      tag_255\n      jump\t// in\n    tag_254:\n        /* \"#utility.yul\":4378:4495   */\n    tag_253:\n        /* \"#utility.yul\":4519:4608   */\n      tag_256\n        /* \"#utility.yul\":4600:4607   */\n      dup5\n        /* \"#utility.yul\":4591:4597   */\n      dup3\n        /* \"#utility.yul\":4580:4589   */\n      dup6\n        /* \"#utility.yul\":4576:4598   */\n      add\n        /* \"#utility.yul\":4519:4608   */\n      tag_201\n      jump\t// in\n    tag_256:\n        /* \"#utility.yul\":4509:4608   */\n      swap2\n      pop\n        /* \"#utility.yul\":4312:4618   */\n      pop\n        /* \"#utility.yul\":4071:4625   */\n      swap3\n      swap2\n      pop\n      pop\n      jump\t// out\n        /* \"#utility.yul\":4631:5010   */\n    tag_44:\n        /* \"#utility.yul\":4715:4721   */\n      0x00\n        /* \"#utility.yul\":4764:4766   */\n      0x20\n        /* \"#utility.yul\":4752:4761   */\n      dup3\n        /* \"#utility.yul\":4743:4750   */\n      dup5\n        /* \"#utility.yul\":4739:4762   */\n      sub\n        /* \"#utility.yul\":4735:4767   */\n      slt\n        /* \"#utility.yul\":4732:4851   */\n      iszero\n      tag_258\n      jumpi\n        /* \"#utility.yul\":4770:4849   */\n      tag_259\n      tag_252\n      jump\t// in\n    tag_259:\n        /* \"#utility.yul\":4732:4851   */\n    tag_258:\n        /* \"#utility.yul\":4890:4891   */\n      0x00\n        /* \"#utility.yul\":4915:4993   */\n      tag_260\n        /* \"#utility.yul\":4985:4992   */\n      dup5\n        /* \"#utility.yul\":4976:4982   */\n      dup3\n        /* \"#utility.yul\":4965:4974   */\n      dup6\n        /* \"#utility.yul\":4961:4983   */\n      add\n        /* \"#utility.yul\":4915:4993   */\n      tag_211\n      jump\t// in\n    tag_260:\n        /* \"#utility.yul\":4905:4993   */\n      swap2\n      pop\n        /* \"#utility.yul\":4861:5003   */\n      pop\n        /* \"#utility.yul\":4631:5010   */\n      swap3\n      swap2\n      pop\n      pop\n      jump\t// out\n        /* \"#utility.yul\":5016:5538   */\n    tag_15:\n        /* \"#utility.yul\":5108:5114   */\n      0x00\n        /* \"#utility.yul\":5116:5122   */\n      dup1\n        /* \"#utility.yul\":5165:5167   */\n      0x40\n        /* \"#utility.yul\":5153:5162   */\n      dup4\n        /* \"#utility.yul\":5144:5151   */\n      dup6\n        /* \"#utility.yul\":5140:5163   */\n      sub\n        /* \"#utility.yul\":5136:5168   */\n      slt\n        /* \"#utility.yul\":5133:5252   */\n      iszero\n      tag_262\n      jumpi\n        /* \"#utility.yul\":5171:5250   */\n      tag_263\n      tag_252\n      jump\t// in\n    tag_263:\n        /* \"#utility.yul\":5133:5252   */\n    tag_262:\n        /* \"#utility.yul\":5291:5292   */\n      0x00\n        /* \"#utility.yul\":5316:5379   */\n      tag_264\n        /* \"#utility.yul\":5371:5378   */\n      dup6\n        /* \"#utility.yul\":5362:5368   */\n      dup3\n        /* \"#utility.yul\":5351:5360   */\n      dup7\n        /* \"#utility.yul\":5347:5369   */\n      add\n        /* \"#utility.yul\":5316:5379   */\n      tag_219\n      jump\t// in\n    tag_264:\n        /* \"#utility.yul\":5306:5379   */\n      swap3\n      pop\n        /* \"#utility.yul\":5262:5389   */\n      pop\n        /* \"#utility.yul\":5428:5430   */\n      0x20\n        /* \"#utility.yul\":5454:5521   */\n      tag_265\n        /* \"#utility.yul\":5513:5520   */\n      dup6\n        /* \"#utility.yul\":5504:5510   */\n      dup3\n        /* \"#utility.yul\":5493:5502   */\n      dup7\n        /* \"#utility.yul\":5489:5511   */\n      add\n        /* \"#utility.yul\":5454:5521   */\n      tag_227\n      jump\t// in\n    tag_265:\n        /* \"#utility.yul\":5444:5521   */\n      swap2\n      pop\n        /* \"#utility.yul\":5399:5531   */\n      pop\n        /* \"#utility.yul\":5016:5538   */\n      swap3\n      pop\n      swap3\n      swap1\n      pop\n      jump\t// out\n        /* \"#utility.yul\":5544:5946   */\n    tag_31:\n        /* \"#utility.yul\":5639:5645   */\n      0x00\n        /* \"#utility.yul\":5688:5691   */\n      0xc0\n        /* \"#utility.yul\":5676:5685   */\n      dup3\n        /* \"#utility.yul\":5667:5674   */\n      dup5\n        /* \"#utility.yul\":5663:5686   */\n      sub\n        /* \"#utility.yul\":5659:5692   */\n      slt\n        /* \"#utility.yul\":5656:5776   */\n      iszero\n      tag_267\n      jumpi\n        /* \"#utility.yul\":5695:5774   */\n      tag_268\n      tag_252\n      jump\t// in\n    tag_268:\n        /* \"#utility.yul\":5656:5776   */\n    tag_267:\n        /* \"#utility.yul\":5815:5816   */\n      0x00\n        /* \"#utility.yul\":5840:5929   */\n      tag_269\n        /* \"#utility.yul\":5921:5928   */\n      dup5\n        /* \"#utility.yul\":5912:5918   */\n      dup3\n        /* \"#utility.yul\":5901:5910   */\n      dup6\n        /* \"#utility.yul\":5897:5919   */\n      add\n        /* \"#utility.yul\":5840:5929   */\n      tag_231\n      jump\t// in\n    tag_269:\n        /* \"#utility.yul\":5830:5929   */\n      swap2\n      pop\n        /* \"#utility.yul\":5786:5939   */\n      pop\n        /* \"#utility.yul\":5544:5946   */\n      swap3\n      swap2\n      pop\n      pop\n      jump\t// out\n        /* \"#utility.yul\":5952:6303   */\n    tag_36:\n        /* \"#utility.yul\":6022:6028   */\n      0x00\n        /* \"#utility.yul\":6071:6073   */\n      0x20\n        /* \"#utility.yul\":6059:6068   */\n      dup3\n        /* \"#utility.yul\":6050:6057   */\n      dup5\n        /* \"#utility.yul\":6046:6069   */\n      sub\n        /* \"#utility.yul\":6042:6074   */\n      slt\n        /* \"#utility.yul\":6039:6158   */\n      iszero\n      tag_271\n      jumpi\n        /* \"#utility.yul\":6077:6156   */\n      tag_272\n      tag_252\n      jump\t// in\n    tag_272:\n        /* \"#utility.yul\":6039:6158   */\n    tag_271:\n        /* \"#utility.yul\":6197:6198   */\n      0x00\n        /* \"#utility.yul\":6222:6286   */\n      tag_273\n        /* \"#utility.yul\":6278:6285   */\n      dup5\n        /* \"#utility.yul\":6269:6275   */\n      dup3\n        /* \"#utility.yul\":6258:6267   */\n      dup6\n        /* \"#utility.yul\":6254:6276   */\n      add\n        /* \"#utility.yul\":6222:6286   */\n      tag_196\n      jump\t// in\n    tag_273:\n        /* \"#utility.yul\":6212:6286   */\n      swap2\n      pop\n        /* \"#utility.yul\":6168:6296   */\n      pop\n        /* \"#utility.yul\":5952:6303   */\n      swap3\n      swap2\n      pop\n      pop\n      jump\t// out\n        /* \"#utility.yul\":6309:7112   */\n    tag_9:\n        /* \"#utility.yul\":6414:6420   */\n      0x00\n        /* \"#utility.yul\":6422:6428   */\n      dup1\n        /* \"#utility.yul\":6430:6436   */\n      0x00\n        /* \"#utility.yul\":6438:6444   */\n      dup1\n        /* \"#utility.yul\":6487:6490   */\n      0x80\n        /* \"#utility.yul\":6475:6484   */\n      dup6\n        /* \"#utility.yul\":6466:6473   */\n      dup8\n        /* \"#utility.yul\":6462:6485   */\n      sub\n        /* \"#utility.yul\":6458:6491   */\n      slt\n        /* \"#utility.yul\":6455:6575   */\n      iszero\n      tag_275\n      jumpi\n        /* \"#utility.yul\":6494:6573   */\n      tag_276\n      tag_252\n      jump\t// in\n    tag_276:\n        /* \"#utility.yul\":6455:6575   */\n    tag_275:\n        /* \"#utility.yul\":6614:6615   */\n      0x00\n        /* \"#utility.yul\":6639:6692   */\n      tag_277\n        /* \"#utility.yul\":6684:6691   */\n      dup8\n        /* \"#utility.yul\":6675:6681   */\n      dup3\n        /* \"#utility.yul\":6664:6673   */\n      dup9\n        /* \"#utility.yul\":6660:6682   */\n      add\n        /* \"#utility.yul\":6639:6692   */\n      tag_243\n      jump\t// in\n    tag_277:\n        /* \"#utility.yul\":6629:6692   */\n      swap5\n      pop\n        /* \"#utility.yul\":6585:6702   */\n      pop\n        /* \"#utility.yul\":6741:6743   */\n      0x20\n        /* \"#utility.yul\":6767:6820   */\n      tag_278\n        /* \"#utility.yul\":6812:6819   */\n      dup8\n        /* \"#utility.yul\":6803:6809   */\n      dup3\n        /* \"#utility.yul\":6792:6801   */\n      dup9\n        /* \"#utility.yul\":6788:6810   */\n      add\n        /* \"#utility.yul\":6767:6820   */\n      tag_197\n      jump\t// in\n    tag_278:\n        /* \"#utility.yul\":6757:6820   */\n      swap4\n      pop\n        /* \"#utility.yul\":6712:6830   */\n      pop\n        /* \"#utility.yul\":6869:6871   */\n      0x40\n        /* \"#utility.yul\":6895:6945   */\n      tag_279\n        /* \"#utility.yul\":6937:6944   */\n      dup8\n        /* \"#utility.yul\":6928:6934   */\n      dup3\n        /* \"#utility.yul\":6917:6926   */\n      dup9\n        /* \"#utility.yul\":6913:6935   */\n      add\n        /* \"#utility.yul\":6895:6945   */\n      tag_207\n      jump\t// in\n    tag_279:\n        /* \"#utility.yul\":6885:6945   */\n      swap3\n      pop\n        /* \"#utility.yul\":6840:6955   */\n      pop\n        /* \"#utility.yul\":6994:6996   */\n      0x60\n        /* \"#utility.yul\":7020:7095   */\n      tag_280\n        /* \"#utility.yul\":7087:7094   */\n      dup8\n        /* \"#utility.yul\":7078:7084   */\n      dup3\n        /* \"#utility.yul\":7067:7076   */\n      dup9\n        /* \"#utility.yul\":7063:7085   */\n      add\n        /* \"#utility.yul\":7020:7095   */\n      tag_223\n      jump\t// in\n    tag_280:\n        /* \"#utility.yul\":7010:7095   */\n      swap2\n      pop\n        /* \"#utility.yul\":6965:7105   */\n      pop\n        /* \"#utility.yul\":6309:7112   */\n      swap3\n      swap6\n      swap2\n      swap5\n      pop\n      swap3\n      pop\n      jump\t// out\n        /* \"#utility.yul\":7118:7297   */\n    tag_281:\n        /* \"#utility.yul\":7187:7197   */\n      0x00\n        /* \"#utility.yul\":7208:7254   */\n      tag_283\n        /* \"#utility.yul\":7250:7253   */\n      dup4\n        /* \"#utility.yul\":7242:7248   */\n      dup4\n        /* \"#utility.yul\":7208:7254   */\n      tag_284\n      jump\t// in\n    tag_283:\n        /* \"#utility.yul\":7286:7290   */\n      0x20\n        /* \"#utility.yul\":7281:7284   */\n      dup4\n        /* \"#utility.yul\":7277:7291   */\n      add\n        /* \"#utility.yul\":7263:7291   */\n      swap1\n      pop\n        /* \"#utility.yul\":7118:7297   */\n      swap3\n      swap2\n      pop\n      pop\n      jump\t// out\n        /* \"#utility.yul\":7303:7411   */\n    tag_284:\n        /* \"#utility.yul\":7380:7404   */\n      tag_286\n        /* \"#utility.yul\":7398:7403   */\n      dup2\n        /* \"#utility.yul\":7380:7404   */\n      tag_287\n      jump\t// in\n    tag_286:\n        /* \"#utility.yul\":7375:7378   */\n      dup3\n        /* \"#utility.yul\":7368:7405   */\n      mstore\n        /* \"#utility.yul\":7303:7411   */\n      pop\n      pop\n      jump\t// out\n        /* \"#utility.yul\":7417:7535   */\n    tag_288:\n        /* \"#utility.yul\":7504:7528   */\n      tag_290\n        /* \"#utility.yul\":7522:7527   */\n      dup2\n        /* \"#utility.yul\":7504:7528   */\n      tag_287\n      jump\t// in\n    tag_290:\n        /* \"#utility.yul\":7499:7502   */\n      dup3\n        /* \"#utility.yul\":7492:7529   */\n      mstore\n        /* \"#utility.yul\":7417:7535   */\n      pop\n      pop\n      jump\t// out\n        /* \"#utility.yul\":7571:8303   */\n    tag_291:\n        /* \"#utility.yul\":7690:7693   */\n      0x00\n        /* \"#utility.yul\":7719:7773   */\n      tag_293\n        /* \"#utility.yul\":7767:7772   */\n      dup3\n        /* \"#utility.yul\":7719:7773   */\n      tag_294\n      jump\t// in\n    tag_293:\n        /* \"#utility.yul\":7789:7875   */\n      tag_295\n        /* \"#utility.yul\":7868:7874   */\n      dup2\n        /* \"#utility.yul\":7863:7866   */\n      dup6\n        /* \"#utility.yul\":7789:7875   */\n      tag_296\n      jump\t// in\n    tag_295:\n        /* \"#utility.yul\":7782:7875   */\n      swap4\n      pop\n        /* \"#utility.yul\":7899:7955   */\n      tag_297\n        /* \"#utility.yul\":7949:7954   */\n      dup4\n        /* \"#utility.yul\":7899:7955   */\n      tag_298\n      jump\t// in\n    tag_297:\n        /* \"#utility.yul\":7978:7985   */\n      dup1\n        /* \"#utility.yul\":8009:8010   */\n      0x00\n        /* \"#utility.yul\":7994:8278   */\n    tag_299:\n        /* \"#utility.yul\":8019:8025   */\n      dup4\n        /* \"#utility.yul\":8016:8017   */\n      dup2\n        /* \"#utility.yul\":8013:8026   */\n      lt\n        /* \"#utility.yul\":7994:8278   */\n      iszero\n      tag_301\n      jumpi\n        /* \"#utility.yul\":8095:8101   */\n      dup2\n        /* \"#utility.yul\":8089:8102   */\n      mload\n        /* \"#utility.yul\":8122:8185   */\n      tag_302\n        /* \"#utility.yul\":8181:8184   */\n      dup9\n        /* \"#utility.yul\":8166:8179   */\n      dup3\n        /* \"#utility.yul\":8122:8185   */\n      tag_281\n      jump\t// in\n    tag_302:\n        /* \"#utility.yul\":8115:8185   */\n      swap8\n      pop\n        /* \"#utility.yul\":8208:8268   */\n      tag_303\n        /* \"#utility.yul\":8261:8267   */\n      dup4\n        /* \"#utility.yul\":8208:8268   */\n      tag_304\n      jump\t// in\n    tag_303:\n        /* \"#utility.yul\":8198:8268   */\n      swap3\n      pop\n        /* \"#utility.yul\":8054:8278   */\n      pop\n        /* \"#utility.yul\":8041:8042   */\n      0x01\n        /* \"#utility.yul\":8038:8039   */\n      dup2\n        /* \"#utility.yul\":8034:8043   */\n      add\n        /* \"#utility.yul\":8029:8043   */\n      swap1\n      pop\n        /* \"#utility.yul\":7994:8278   */\n      jump(tag_299)\n    tag_301:\n        /* \"#utility.yul\":7998:8012   */\n      pop\n        /* \"#utility.yul\":8294:8297   */\n      dup6\n        /* \"#utility.yul\":8287:8297   */\n      swap4\n      pop\n        /* \"#utility.yul\":7695:8303   */\n      pop\n      pop\n      pop\n        /* \"#utility.yul\":7571:8303   */\n      swap3\n      swap2\n      pop\n      pop\n      jump\t// out\n        /* \"#utility.yul\":8309:8673   */\n    tag_305:\n        /* \"#utility.yul\":8397:8400   */\n      0x00\n        /* \"#utility.yul\":8425:8464   */\n      tag_307\n        /* \"#utility.yul\":8458:8463   */\n      dup3\n        /* \"#utility.yul\":8425:8464   */\n      tag_308\n      jump\t// in\n    tag_307:\n        /* \"#utility.yul\":8480:8551   */\n      tag_309\n        /* \"#utility.yul\":8544:8550   */\n      dup2\n        /* \"#utility.yul\":8539:8542   */\n      dup6\n        /* \"#utility.yul\":8480:8551   */\n      tag_310\n      jump\t// in\n    tag_309:\n        /* \"#utility.yul\":8473:8551   */\n      swap4\n      pop\n        /* \"#utility.yul\":8560:8612   */\n      tag_311\n        /* \"#utility.yul\":8605:8611   */\n      dup2\n        /* \"#utility.yul\":8600:8603   */\n      dup6\n        /* \"#utility.yul\":8593:8597   */\n      0x20\n        /* \"#utility.yul\":8586:8591   */\n      dup7\n        /* \"#utility.yul\":8582:8598   */\n      add\n        /* \"#utility.yul\":8560:8612   */\n      tag_312\n      jump\t// in\n    tag_311:\n        /* \"#utility.yul\":8637:8666   */\n      tag_313\n        /* \"#utility.yul\":8659:8665   */\n      dup2\n        /* \"#utility.yul\":8637:8666   */\n      tag_314\n      jump\t// in\n    tag_313:\n        /* \"#utility.yul\":8632:8635   */\n      dup5\n        /* \"#utility.yul\":8628:8667   */\n      add\n        /* \"#utility.yul\":8621:8667   */\n      swap2\n      pop\n        /* \"#utility.yul\":8401:8673   */\n      pop\n        /* \"#utility.yul\":8309:8673   */\n      swap3\n      swap2\n      pop\n      pop\n      jump\t// out\n        /* \"#utility.yul\":8679:9045   */\n    tag_315:\n        /* \"#utility.yul\":8821:8824   */\n      0x00\n        /* \"#utility.yul\":8842:8909   */\n      tag_317\n        /* \"#utility.yul\":8906:8908   */\n      0x1b\n        /* \"#utility.yul\":8901:8904   */\n      dup4\n        /* \"#utility.yul\":8842:8909   */\n      tag_310\n      jump\t// in\n    tag_317:\n        /* \"#utility.yul\":8835:8909   */\n      swap2\n      pop\n        /* \"#utility.yul\":8918:9011   */\n      tag_318\n        /* \"#utility.yul\":9007:9010   */\n      dup3\n        /* \"#utility.yul\":8918:9011   */\n      tag_319\n      jump\t// in\n    tag_318:\n        /* \"#utility.yul\":9036:9038   */\n      0x20\n        /* \"#utility.yul\":9031:9034   */\n      dup3\n        /* \"#utility.yul\":9027:9039   */\n      add\n        /* \"#utility.yul\":9020:9039   */\n      swap1\n      pop\n        /* \"#utility.yul\":8679:9045   */\n      swap2\n      swap1\n      pop\n      jump\t// out\n        /* \"#utility.yul\":9051:9417   */\n    tag_320:\n        /* \"#utility.yul\":9193:9196   */\n      0x00\n        /* \"#utility.yul\":9214:9281   */\n      tag_322\n        /* \"#utility.yul\":9278:9280   */\n      0x21\n        /* \"#utility.yul\":9273:9276   */\n      dup4\n        /* \"#utility.yul\":9214:9281   */\n      tag_310\n      jump\t// in\n    tag_322:\n        /* \"#utility.yul\":9207:9281   */\n      swap2\n      pop\n        /* \"#utility.yul\":9290:9383   */\n      tag_323\n        /* \"#utility.yul\":9379:9382   */\n      dup3\n        /* \"#utility.yul\":9290:9383   */\n      tag_324\n      jump\t// in\n    tag_323:\n        /* \"#utility.yul\":9408:9410   */\n      0x40\n        /* \"#utility.yul\":9403:9406   */\n      dup3\n        /* \"#utility.yul\":9399:9411   */\n      add\n        /* \"#utility.yul\":9392:9411   */\n      swap1\n      pop\n        /* \"#utility.yul\":9051:9417   */\n      swap2\n      swap1\n      pop\n      jump\t// out\n        /* \"#utility.yul\":9423:9541   */\n    tag_325:\n        /* \"#utility.yul\":9510:9534   */\n      tag_327\n        /* \"#utility.yul\":9528:9533   */\n      dup2\n        /* \"#utility.yul\":9510:9534   */\n      tag_328\n      jump\t// in\n    tag_327:\n        /* \"#utility.yul\":9505:9508   */\n      dup3\n        /* \"#utility.yul\":9498:9535   */\n      mstore\n        /* \"#utility.yul\":9423:9541   */\n      pop\n      pop\n      jump\t// out\n        /* \"#utility.yul\":9547:9769   */\n    tag_21:\n        /* \"#utility.yul\":9640:9644   */\n      0x00\n        /* \"#utility.yul\":9678:9680   */\n      0x20\n        /* \"#utility.yul\":9667:9676   */\n      dup3\n        /* \"#utility.yul\":9663:9681   */\n      add\n        /* \"#utility.yul\":9655:9681   */\n      swap1\n      pop\n        /* \"#utility.yul\":9691:9762   */\n      tag_330\n        /* \"#utility.yul\":9759:9760   */\n      0x00\n        /* \"#utility.yul\":9748:9757   */\n      dup4\n        /* \"#utility.yul\":9744:9761   */\n      add\n        /* \"#utility.yul\":9735:9741   */\n      dup5\n        /* \"#utility.yul\":9691:9762   */\n      tag_288\n      jump\t// in\n    tag_330:\n        /* \"#utility.yul\":9547:9769   */\n      swap3\n      swap2\n      pop\n      pop\n      jump\t// out\n        /* \"#utility.yul\":9775:10088   */\n    tag_180:\n        /* \"#utility.yul\":9888:9892   */\n      0x00\n        /* \"#utility.yul\":9926:9928   */\n      0x20\n        /* \"#utility.yul\":9915:9924   */\n      dup3\n        /* \"#utility.yul\":9911:9929   */\n      add\n        /* \"#utility.yul\":9903:9929   */\n      swap1\n      pop\n        /* \"#utility.yul\":9975:9984   */\n      dup2\n        /* \"#utility.yul\":9969:9973   */\n      dup2\n        /* \"#utility.yul\":9965:9985   */\n      sub\n        /* \"#utility.yul\":9961:9962   */\n      0x00\n        /* \"#utility.yul\":9950:9959   */\n      dup4\n        /* \"#utility.yul\":9946:9963   */\n      add\n        /* \"#utility.yul\":9939:9986   */\n      mstore\n        /* \"#utility.yul\":10003:10081   */\n      tag_332\n        /* \"#utility.yul\":10076:10080   */\n      dup2\n        /* \"#utility.yul\":10067:10073   */\n      dup5\n        /* \"#utility.yul\":10003:10081   */\n      tag_305\n      jump\t// in\n    tag_332:\n        /* \"#utility.yul\":9995:10081   */\n      swap1\n      pop\n        /* \"#utility.yul\":9775:10088   */\n      swap3\n      swap2\n      pop\n      pop\n      jump\t// out\n        /* \"#utility.yul\":10094:10513   */\n    tag_173:\n        /* \"#utility.yul\":10260:10264   */\n      0x00\n        /* \"#utility.yul\":10298:10300   */\n      0x20\n        /* \"#utility.yul\":10287:10296   */\n      dup3\n        /* \"#utility.yul\":10283:10301   */\n      add\n        /* \"#utility.yul\":10275:10301   */\n      swap1\n      pop\n        /* \"#utility.yul\":10347:10356   */\n      dup2\n        /* \"#utility.yul\":10341:10345   */\n      dup2\n        /* \"#utility.yul\":10337:10357   */\n      sub\n        /* \"#utility.yul\":10333:10334   */\n      0x00\n        /* \"#utility.yul\":10322:10331   */\n      dup4\n        /* \"#utility.yul\":10318:10335   */\n      add\n        /* \"#utility.yul\":10311:10358   */\n      mstore\n        /* \"#utility.yul\":10375:10506   */\n      tag_334\n        /* \"#utility.yul\":10501:10505   */\n      dup2\n        /* \"#utility.yul\":10375:10506   */\n      tag_315\n      jump\t// in\n    tag_334:\n        /* \"#utility.yul\":10367:10506   */\n      swap1\n      pop\n        /* \"#utility.yul\":10094:10513   */\n      swap2\n      swap1\n      pop\n      jump\t// out\n        /* \"#utility.yul\":10519:10938   */\n    tag_152:\n        /* \"#utility.yul\":10685:10689   */\n      0x00\n        /* \"#utility.yul\":10723:10725   */\n      0x20\n        /* \"#utility.yul\":10712:10721   */\n      dup3\n        /* \"#utility.yul\":10708:10726   */\n      add\n        /* \"#utility.yul\":10700:10726   */\n      swap1\n      pop\n        /* \"#utility.yul\":10772:10781   */\n      dup2\n        /* \"#utility.yul\":10766:10770   */\n      dup2\n        /* \"#utility.yul\":10762:10782   */\n      sub\n        /* \"#utility.yul\":10758:10759   */\n      0x00\n        /* \"#utility.yul\":10747:10756   */\n      dup4\n        /* \"#utility.yul\":10743:10760   */\n      add\n        /* \"#utility.yul\":10736:10783   */\n      mstore\n        /* \"#utility.yul\":10800:10931   */\n      tag_336\n        /* \"#utility.yul\":10926:10930   */\n      dup2\n        /* \"#utility.yul\":10800:10931   */\n      tag_320\n      jump\t// in\n    tag_336:\n        /* \"#utility.yul\":10792:10931   */\n      swap1\n      pop\n        /* \"#utility.yul\":10519:10938   */\n      swap2\n      swap1\n      pop\n      jump\t// out\n        /* \"#utility.yul\":10944:11166   */\n    tag_12:\n        /* \"#utility.yul\":11037:11041   */\n      0x00\n        /* \"#utility.yul\":11075:11077   */\n      0x20\n        /* \"#utility.yul\":11064:11073   */\n      dup3\n        /* \"#utility.yul\":11060:11078   */\n      add\n        /* \"#utility.yul\":11052:11078   */\n      swap1\n      pop\n        /* \"#utility.yul\":11088:11159   */\n      tag_338\n        /* \"#utility.yul\":11156:11157   */\n      0x00\n        /* \"#utility.yul\":11145:11154   */\n      dup4\n        /* \"#utility.yul\":11141:11158   */\n      add\n        /* \"#utility.yul\":11132:11138   */\n      dup5\n        /* \"#utility.yul\":11088:11159   */\n      tag_325\n      jump\t// in\n    tag_338:\n        /* \"#utility.yul\":10944:11166   */\n      swap3\n      swap2\n      pop\n      pop\n      jump\t// out\n        /* \"#utility.yul\":11172:11655   */\n    tag_137:\n        /* \"#utility.yul\":11343:11347   */\n      0x00\n        /* \"#utility.yul\":11381:11383   */\n      0x40\n        /* \"#utility.yul\":11370:11379   */\n      dup3\n        /* \"#utility.yul\":11366:11384   */\n      add\n        /* \"#utility.yul\":11358:11384   */\n      swap1\n      pop\n        /* \"#utility.yul\":11394:11465   */\n      tag_340\n        /* \"#utility.yul\":11462:11463   */\n      0x00\n        /* \"#utility.yul\":11451:11460   */\n      dup4\n        /* \"#utility.yul\":11447:11464   */\n      add\n        /* \"#utility.yul\":11438:11444   */\n      dup6\n        /* \"#utility.yul\":11394:11465   */\n      tag_325\n      jump\t// in\n    tag_340:\n        /* \"#utility.yul\":11512:11521   */\n      dup2\n        /* \"#utility.yul\":11506:11510   */\n      dup2\n        /* \"#utility.yul\":11502:11522   */\n      sub\n        /* \"#utility.yul\":11497:11499   */\n      0x20\n        /* \"#utility.yul\":11486:11495   */\n      dup4\n        /* \"#utility.yul\":11482:11500   */\n      add\n        /* \"#utility.yul\":11475:11523   */\n      mstore\n        /* \"#utility.yul\":11540:11648   */\n      tag_341\n        /* \"#utility.yul\":11643:11647   */\n      dup2\n        /* \"#utility.yul\":11634:11640   */\n      dup5\n        /* \"#utility.yul\":11540:11648   */\n      tag_291\n      jump\t// in\n    tag_341:\n        /* \"#utility.yul\":11532:11648   */\n      swap1\n      pop\n        /* \"#utility.yul\":11172:11655   */\n      swap4\n      swap3\n      pop\n      pop\n      pop\n      jump\t// out\n        /* \"#utility.yul\":11661:11790   */\n    tag_188:\n        /* \"#utility.yul\":11695:11701   */\n      0x00\n        /* \"#utility.yul\":11722:11742   */\n      tag_343\n      tag_344\n      jump\t// in\n    tag_343:\n        /* \"#utility.yul\":11712:11742   */\n      swap1\n      pop\n        /* \"#utility.yul\":11751:11784   */\n      tag_345\n        /* \"#utility.yul\":11779:11783   */\n      dup3\n        /* \"#utility.yul\":11771:11777   */\n      dup3\n        /* \"#utility.yul\":11751:11784   */\n      tag_346\n      jump\t// in\n    tag_345:\n        /* \"#utility.yul\":11661:11790   */\n      swap2\n      swap1\n      pop\n      jump\t// out\n        /* \"#utility.yul\":11796:11871   */\n    tag_344:\n        /* \"#utility.yul\":11829:11835   */\n      0x00\n        /* \"#utility.yul\":11862:11864   */\n      0x40\n        /* \"#utility.yul\":11856:11865   */\n      mload\n        /* \"#utility.yul\":11846:11865   */\n      swap1\n      pop\n        /* \"#utility.yul\":11796:11871   */\n      swap1\n      jump\t// out\n        /* \"#utility.yul\":11877:12188   */\n    tag_187:\n        /* \"#utility.yul\":11954:11958   */\n      0x00\n        /* \"#utility.yul\":12044:12062   */\n      0xffffffffffffffff\n        /* \"#utility.yul\":12036:12042   */\n      dup3\n        /* \"#utility.yul\":12033:12063   */\n      gt\n        /* \"#utility.yul\":12030:12086   */\n      iszero\n      tag_349\n      jumpi\n        /* \"#utility.yul\":12066:12084   */\n      tag_350\n      tag_127\n      jump\t// in\n    tag_350:\n        /* \"#utility.yul\":12030:12086   */\n    tag_349:\n        /* \"#utility.yul\":12116:12120   */\n      0x20\n        /* \"#utility.yul\":12108:12114   */\n      dup3\n        /* \"#utility.yul\":12104:12121   */\n      mul\n        /* \"#utility.yul\":12096:12121   */\n      swap1\n      pop\n        /* \"#utility.yul\":12176:12180   */\n      0x20\n        /* \"#utility.yul\":12170:12174   */\n      dup2\n        /* \"#utility.yul\":12166:12181   */\n      add\n        /* \"#utility.yul\":12158:12181   */\n      swap1\n      pop\n        /* \"#utility.yul\":11877:12188   */\n      swap2\n      swap1\n      pop\n      jump\t// out\n        /* \"#utility.yul\":12194:12326   */\n    tag_298:\n        /* \"#utility.yul\":12261:12265   */\n      0x00\n        /* \"#utility.yul\":12284:12287   */\n      dup2\n        /* \"#utility.yul\":12276:12287   */\n      swap1\n      pop\n        /* \"#utility.yul\":12314:12318   */\n      0x20\n        /* \"#utility.yul\":12309:12312   */\n      dup3\n        /* \"#utility.yul\":12305:12319   */\n      add\n        /* \"#utility.yul\":12297:12319   */\n      swap1\n      pop\n        /* \"#utility.yul\":12194:12326   */\n      swap2\n      swap1\n      pop\n      jump\t// out\n        /* \"#utility.yul\":12332:12446   */\n    tag_294:\n        /* \"#utility.yul\":12399:12405   */\n      0x00\n        /* \"#utility.yul\":12433:12438   */\n      dup2\n        /* \"#utility.yul\":12427:12439   */\n      mload\n        /* \"#utility.yul\":12417:12439   */\n      swap1\n      pop\n        /* \"#utility.yul\":12332:12446   */\n      swap2\n      swap1\n      pop\n      jump\t// out\n        /* \"#utility.yul\":12452:12551   */\n    tag_308:\n        /* \"#utility.yul\":12504:12510   */\n      0x00\n        /* \"#utility.yul\":12538:12543   */\n      dup2\n        /* \"#utility.yul\":12532:12544   */\n      mload\n        /* \"#utility.yul\":12522:12544   */\n      swap1\n      pop\n        /* \"#utility.yul\":12452:12551   */\n      swap2\n      swap1\n      pop\n      jump\t// out\n        /* \"#utility.yul\":12557:12670   */\n    tag_304:\n        /* \"#utility.yul\":12627:12631   */\n      0x00\n        /* \"#utility.yul\":12659:12663   */\n      0x20\n        /* \"#utility.yul\":12654:12657   */\n      dup3\n        /* \"#utility.yul\":12650:12664   */\n      add\n        /* \"#utility.yul\":12642:12664   */\n      swap1\n      pop\n        /* \"#utility.yul\":12557:12670   */\n      swap2\n      swap1\n      pop\n      jump\t// out\n        /* \"#utility.yul\":12676:12860   */\n    tag_296:\n        /* \"#utility.yul\":12775:12786   */\n      0x00\n        /* \"#utility.yul\":12809:12815   */\n      dup3\n        /* \"#utility.yul\":12804:12807   */\n      dup3\n        /* \"#utility.yul\":12797:12816   */\n      mstore\n        /* \"#utility.yul\":12849:12853   */\n      0x20\n        /* \"#utility.yul\":12844:12847   */\n      dup3\n        /* \"#utility.yul\":12840:12854   */\n      add\n        /* \"#utility.yul\":12825:12854   */\n      swap1\n      pop\n        /* \"#utility.yul\":12676:12860   */\n      swap3\n      swap2\n      pop\n      pop\n      jump\t// out\n        /* \"#utility.yul\":12866:13035   */\n    tag_310:\n        /* \"#utility.yul\":12950:12961   */\n      0x00\n        /* \"#utility.yul\":12984:12990   */\n      dup3\n        /* \"#utility.yul\":12979:12982   */\n      dup3\n        /* \"#utility.yul\":12972:12991   */\n      mstore\n        /* \"#utility.yul\":13024:13028   */\n      0x20\n        /* \"#utility.yul\":13019:13022   */\n      dup3\n        /* \"#utility.yul\":13015:13029   */\n      add\n        /* \"#utility.yul\":13000:13029   */\n      swap1\n      pop\n        /* \"#utility.yul\":12866:13035   */\n      swap3\n      swap2\n      pop\n      pop\n      jump\t// out\n        /* \"#utility.yul\":13041:13346   */\n    tag_170:\n        /* \"#utility.yul\":13081:13084   */\n      0x00\n        /* \"#utility.yul\":13100:13120   */\n      tag_358\n        /* \"#utility.yul\":13118:13119   */\n      dup3\n        /* \"#utility.yul\":13100:13120   */\n      tag_328\n      jump\t// in\n    tag_358:\n        /* \"#utility.yul\":13095:13120   */\n      swap2\n      pop\n        /* \"#utility.yul\":13134:13154   */\n      tag_359\n        /* \"#utility.yul\":13152:13153   */\n      dup4\n        /* \"#utility.yul\":13134:13154   */\n      tag_328\n      jump\t// in\n    tag_359:\n        /* \"#utility.yul\":13129:13154   */\n      swap3\n      pop\n        /* \"#utility.yul\":13288:13289   */\n      dup3\n        /* \"#utility.yul\":13220:13286   */\n      0xffffffffffffffffffffffffffffffffffffffffffffffffffffffffffffffff\n        /* \"#utility.yul\":13216:13290   */\n      sub\n        /* \"#utility.yul\":13213:13214   */\n      dup3\n        /* \"#utility.yul\":13210:13291   */\n      gt\n        /* \"#utility.yul\":13207:13314   */\n      iszero\n      tag_360\n      jumpi\n        /* \"#utility.yul\":13294:13312   */\n      tag_361\n      tag_362\n      jump\t// in\n    tag_361:\n        /* \"#utility.yul\":13207:13314   */\n    tag_360:\n        /* \"#utility.yul\":13338:13339   */\n      dup3\n        /* \"#utility.yul\":13335:13336   */\n      dup3\n        /* \"#utility.yul\":13331:13340   */\n      add\n        /* \"#utility.yul\":13324:13340   */\n      swap1\n      pop\n        /* \"#utility.yul\":13041:13346   */\n      swap3\n      swap2\n      pop\n      pop\n      jump\t// out\n        /* \"#utility.yul\":13352:13537   */\n    tag_149:\n        /* \"#utility.yul\":13392:13393   */\n      0x00\n        /* \"#utility.yul\":13409:13429   */\n      tag_364\n        /* \"#utility.yul\":13427:13428   */\n      dup3\n        /* \"#utility.yul\":13409:13429   */\n      tag_328\n      jump\t// in\n    tag_364:\n        /* \"#utility.yul\":13404:13429   */\n      swap2\n      pop\n        /* \"#utility.yul\":13443:13463   */\n      tag_365\n        /* \"#utility.yul\":13461:13462   */\n      dup4\n        /* \"#utility.yul\":13443:13463   */\n      tag_328\n      jump\t// in\n    tag_365:\n        /* \"#utility.yul\":13438:13463   */\n      swap3\n      pop\n        /* \"#utility.yul\":13482:13483   */\n      dup3\n        /* \"#utility.yul\":13472:13507   */\n      tag_366\n      jumpi\n        /* \"#utility.yul\":13487:13505   */\n      tag_367\n      tag_368\n      jump\t// in\n    tag_367:\n        /* \"#utility.yul\":13472:13507   */\n    tag_366:\n        /* \"#utility.yul\":13529:13530   */\n      dup3\n        /* \"#utility.yul\":13526:13527   */\n      dup3\n        /* \"#utility.yul\":13522:13531   */\n      div\n        /* \"#utility.yul\":13517:13531   */\n      swap1\n      pop\n        /* \"#utility.yul\":13352:13537   */\n      swap3\n      swap2\n      pop\n      pop\n      jump\t// out\n        /* \"#utility.yul\":13543:13891   */\n    tag_38:\n        /* \"#utility.yul\":13583:13590   */\n      0x00\n        /* \"#utility.yul\":13606:13626   */\n      tag_370\n        /* \"#utility.yul\":13624:13625   */\n      dup3\n        /* \"#utility.yul\":13606:13626   */\n      tag_328\n      jump\t// in\n    tag_370:\n        /* \"#utility.yul\":13601:13626   */\n      swap2\n      pop\n        /* \"#utility.yul\":13640:13660   */\n      tag_371\n        /* \"#utility.yul\":13658:13659   */\n      dup4\n        /* \"#utility.yul\":13640:13660   */\n      tag_328\n      jump\t// in\n    tag_371:\n        /* \"#utility.yul\":13635:13660   */\n      swap3\n      pop\n        /* \"#utility.yul\":13828:13829   */\n      dup2\n        /* \"#utility.yul\":13760:13826   */\n      0xffffffffffffffffffffffffffffffffffffffffffffffffffffffffffffffff\n        /* \"#utility.yul\":13756:13830   */\n      div\n        /* \"#utility.yul\":13753:13754   */\n      dup4\n        /* \"#utility.yul\":13750:13831   */\n      gt\n        /* \"#utility.yul\":13745:13746   */\n      dup3\n        /* \"#utility.yul\":13738:13747   */\n      iszero\n        /* \"#utility.yul\":13731:13748   */\n      iszero\n        /* \"#utility.yul\":13727:13832   */\n      and\n        /* \"#utility.yul\":13724:13855   */\n      iszero\n      tag_372\n      jumpi\n        /* \"#utility.yul\":13835:13853   */\n      tag_373\n      tag_362\n      jump\t// in\n    tag_373:\n        /* \"#utility.yul\":13724:13855   */\n    tag_372:\n        /* \"#utility.yul\":13883:13884   */\n      dup3\n        /* \"#utility.yul\":13880:13881   */\n      dup3\n        /* \"#utility.yul\":13876:13885   */\n      mul\n        /* \"#utility.yul\":13865:13885   */\n      swap1\n      pop\n        /* \"#utility.yul\":13543:13891   */\n      swap3\n      swap2\n      pop\n      pop\n      jump\t// out\n        /* \"#utility.yul\":13897:13993   */\n    tag_287:\n        /* \"#utility.yul\":13934:13941   */\n      0x00\n        /* \"#utility.yul\":13963:13987   */\n      tag_375\n        /* \"#utility.yul\":13981:13986   */\n      dup3\n        /* \"#utility.yul\":13963:13987   */\n      tag_376\n      jump\t// in\n    tag_375:\n        /* \"#utility.yul\":13952:13987   */\n      swap1\n      pop\n        /* \"#utility.yul\":13897:13993   */\n      swap2\n      swap1\n      pop\n      jump\t// out\n        /* \"#utility.yul\":13999:14089   */\n    tag_377:\n        /* \"#utility.yul\":14033:14040   */\n      0x00\n        /* \"#utility.yul\":14076:14081   */\n      dup2\n        /* \"#utility.yul\":14069:14082   */\n      iszero\n        /* \"#utility.yul\":14062:14083   */\n      iszero\n        /* \"#utility.yul\":14051:14083   */\n      swap1\n      pop\n        /* \"#utility.yul\":13999:14089   */\n      swap2\n      swap1\n      pop\n      jump\t// out\n        /* \"#utility.yul\":14095:14205   */\n    tag_379:\n        /* \"#utility.yul\":14146:14153   */\n      0x00\n        /* \"#utility.yul\":14175:14199   */\n      tag_381\n        /* \"#utility.yul\":14193:14198   */\n      dup3\n        /* \"#utility.yul\":14175:14199   */\n      tag_287\n      jump\t// in\n    tag_381:\n        /* \"#utility.yul\":14164:14199   */\n      swap1\n      pop\n        /* \"#utility.yul\":14095:14205   */\n      swap2\n      swap1\n      pop\n      jump\t// out\n        /* \"#utility.yul\":14211:14326   */\n    tag_382:\n        /* \"#utility.yul\":14267:14274   */\n      0x00\n        /* \"#utility.yul\":14296:14320   */\n      tag_384\n        /* \"#utility.yul\":14314:14319   */\n      dup3\n        /* \"#utility.yul\":14296:14320   */\n      tag_287\n      jump\t// in\n    tag_384:\n        /* \"#utility.yul\":14285:14320   */\n      swap1\n      pop\n        /* \"#utility.yul\":14211:14326   */\n      swap2\n      swap1\n      pop\n      jump\t// out\n        /* \"#utility.yul\":14332:14438   */\n    tag_385:\n        /* \"#utility.yul\":14379:14386   */\n      0x00\n        /* \"#utility.yul\":14408:14432   */\n      tag_387\n        /* \"#utility.yul\":14426:14431   */\n      dup3\n        /* \"#utility.yul\":14408:14432   */\n      tag_287\n      jump\t// in\n    tag_387:\n        /* \"#utility.yul\":14397:14432   */\n      swap1\n      pop\n        /* \"#utility.yul\":14332:14438   */\n      swap2\n      swap1\n      pop\n      jump\t// out\n        /* \"#utility.yul\":14444:14562   */\n    tag_388:\n        /* \"#utility.yul\":14503:14510   */\n      0x00\n        /* \"#utility.yul\":14532:14556   */\n      tag_390\n        /* \"#utility.yul\":14550:14555   */\n      dup3\n        /* \"#utility.yul\":14532:14556   */\n      tag_287\n      jump\t// in\n    tag_390:\n        /* \"#utility.yul\":14521:14556   */\n      swap1\n      pop\n        /* \"#utility.yul\":14444:14562   */\n      swap2\n      swap1\n      pop\n      jump\t// out\n        /* \"#utility.yul\":14568:14678   */\n    tag_391:\n        /* \"#utility.yul\":14619:14626   */\n      0x00\n        /* \"#utility.yul\":14648:14672   */\n      tag_393\n        /* \"#utility.yul\":14666:14671   */\n      dup3\n        /* \"#utility.yul\":14648:14672   */\n      tag_287\n      jump\t// in\n    tag_393:\n        /* \"#utility.yul\":14637:14672   */\n      swap1\n      pop\n        /* \"#utility.yul\":14568:14678   */\n      swap2\n      swap1\n      pop\n      jump\t// out\n        /* \"#utility.yul\":14684:14810   */\n    tag_376:\n        /* \"#utility.yul\":14721:14728   */\n      0x00\n        /* \"#utility.yul\":14761:14803   */\n      0xffffffffffffffffffffffffffffffffffffffff\n        /* \"#utility.yul\":14754:14759   */\n      dup3\n        /* \"#utility.yul\":14750:14804   */\n      and\n        /* \"#utility.yul\":14739:14804   */\n      swap1\n      pop\n        /* \"#utility.yul\":14684:14810   */\n      swap2\n      swap1\n      pop\n      jump\t// out\n        /* \"#utility.yul\":14816:14893   */\n    tag_328:\n        /* \"#utility.yul\":14853:14860   */\n      0x00\n        /* \"#utility.yul\":14882:14887   */\n      dup2\n        /* \"#utility.yul\":14871:14887   */\n      swap1\n      pop\n        /* \"#utility.yul\":14816:14893   */\n      swap2\n      swap1\n      pop\n      jump\t// out\n        /* \"#utility.yul\":14899:15206   */\n    tag_312:\n        /* \"#utility.yul\":14967:14968   */\n      0x00\n        /* \"#utility.yul\":14977:15090   */\n    tag_397:\n        /* \"#utility.yul\":14991:14997   */\n      dup4\n        /* \"#utility.yul\":14988:14989   */\n      dup2\n        /* \"#utility.yul\":14985:14998   */\n      lt\n        /* \"#utility.yul\":14977:15090   */\n      iszero\n      tag_399\n      jumpi\n        /* \"#utility.yul\":15076:15077   */\n      dup1\n        /* \"#utility.yul\":15071:15074   */\n      dup3\n        /* \"#utility.yul\":15067:15078   */\n      add\n        /* \"#utility.yul\":15061:15079   */\n      mload\n        /* \"#utility.yul\":15057:15058   */\n      dup2\n        /* \"#utility.yul\":15052:15055   */\n      dup5\n        /* \"#utility.yul\":15048:15059   */\n      add\n        /* \"#utility.yul\":15041:15080   */\n      mstore\n        /* \"#utility.yul\":15013:15015   */\n      0x20\n        /* \"#utility.yul\":15010:15011   */\n      dup2\n        /* \"#utility.yul\":15006:15016   */\n      add\n        /* \"#utility.yul\":15001:15016   */\n      swap1\n      pop\n        /* \"#utility.yul\":14977:15090   */\n      jump(tag_397)\n    tag_399:\n        /* \"#utility.yul\":15108:15114   */\n      dup4\n        /* \"#utility.yul\":15105:15106   */\n      dup2\n        /* \"#utility.yul\":15102:15115   */\n      gt\n        /* \"#utility.yul\":15099:15200   */\n      iszero\n      tag_400\n      jumpi\n        /* \"#utility.yul\":15188:15189   */\n      0x00\n        /* \"#utility.yul\":15179:15185   */\n      dup5\n        /* \"#utility.yul\":15174:15177   */\n      dup5\n        /* \"#utility.yul\":15170:15186   */\n      add\n        /* \"#utility.yul\":15163:15190   */\n      mstore\n        /* \"#utility.yul\":15099:15200   */\n    tag_400:\n        /* \"#utility.yul\":14948:15206   */\n      pop\n        /* \"#utility.yul\":14899:15206   */\n      pop\n      pop\n      pop\n      jump\t// out\n        /* \"#utility.yul\":15212:15493   */\n    tag_346:\n        /* \"#utility.yul\":15295:15322   */\n      tag_402\n        /* \"#utility.yul\":15317:15321   */\n      dup3\n        /* \"#utility.yul\":15295:15322   */\n      tag_314\n      jump\t// in\n    tag_402:\n        /* \"#utility.yul\":15287:15293   */\n      dup2\n        /* \"#utility.yul\":15283:15323   */\n      add\n        /* \"#utility.yul\":15425:15431   */\n      dup2\n        /* \"#utility.yul\":15413:15423   */\n      dup2\n        /* \"#utility.yul\":15410:15432   */\n      lt\n        /* \"#utility.yul\":15389:15407   */\n      0xffffffffffffffff\n        /* \"#utility.yul\":15377:15387   */\n      dup3\n        /* \"#utility.yul\":15374:15408   */\n      gt\n        /* \"#utility.yul\":15371:15433   */\n      or\n        /* \"#utility.yul\":15368:15456   */\n      iszero\n      tag_403\n      jumpi\n        /* \"#utility.yul\":15436:15454   */\n      tag_404\n      tag_127\n      jump\t// in\n    tag_404:\n        /* \"#utility.yul\":15368:15456   */\n    tag_403:\n        /* \"#utility.yul\":15476:15486   */\n      dup1\n        /* \"#utility.yul\":15472:15474   */\n      0x40\n        /* \"#utility.yul\":15465:15487   */\n      mstore\n        /* \"#utility.yul\":15255:15493   */\n      pop\n        /* \"#utility.yul\":15212:15493   */\n      pop\n      pop\n      jump\t// out\n        /* \"#utility.yul\":15499:15679   */\n    tag_362:\n        /* \"#utility.yul\":15547:15624   */\n      0x4e487b7100000000000000000000000000000000000000000000000000000000\n        /* \"#utility.yul\":15544:15545   */\n      0x00\n        /* \"#utility.yul\":15537:15625   */\n      mstore\n        /* \"#utility.yul\":15644:15648   */\n      0x11\n        /* \"#utility.yul\":15641:15642   */\n      0x04\n        /* \"#utility.yul\":15634:15649   */\n      mstore\n        /* \"#utility.yul\":15668:15672   */\n      0x24\n        /* \"#utility.yul\":15665:15666   */\n      0x00\n        /* \"#utility.yul\":15658:15673   */\n      revert\n        /* \"#utility.yul\":15685:15865   */\n    tag_368:\n        /* \"#utility.yul\":15733:15810   */\n      0x4e487b7100000000000000000000000000000000000000000000000000000000\n        /* \"#utility.yul\":15730:15731   */\n      0x00\n        /* \"#utility.yul\":15723:15811   */\n      mstore\n        /* \"#utility.yul\":15830:15834   */\n      0x12\n        /* \"#utility.yul\":15827:15828   */\n      0x04\n        /* \"#utility.yul\":15820:15835   */\n      mstore\n        /* \"#utility.yul\":15854:15858   */\n      0x24\n        /* \"#utility.yul\":15851:15852   */\n      0x00\n        /* \"#utility.yul\":15844:15859   */\n      revert\n        /* \"#utility.yul\":15871:16051   */\n    tag_131:\n        /* \"#utility.yul\":15919:15996   */\n      0x4e487b7100000000000000000000000000000000000000000000000000000000\n        /* \"#utility.yul\":15916:15917   */\n      0x00\n        /* \"#utility.yul\":15909:15997   */\n      mstore\n        /* \"#utility.yul\":16016:16020   */\n      0x32\n        /* \"#utility.yul\":16013:16014   */\n      0x04\n        /* \"#utility.yul\":16006:16021   */\n      mstore\n        /* \"#utility.yul\":16040:16044   */\n      0x24\n        /* \"#utility.yul\":16037:16038   */\n      0x00\n        /* \"#utility.yul\":16030:16045   */\n      revert\n        /* \"#utility.yul\":16057:16237   */\n    tag_127:\n        /* \"#utility.yul\":16105:16182   */\n      0x4e487b7100000000000000000000000000000000000000000000000000000000\n        /* \"#utility.yul\":16102:16103   */\n      0x00\n        /* \"#utility.yul\":16095:16183   */\n      mstore\n        /* \"#utility.yul\":16202:16206   */\n      0x41\n        /* \"#utility.yul\":16199:16200   */\n      0x04\n        /* \"#utility.yul\":16192:16207   */\n      mstore\n        /* \"#utility.yul\":16226:16230   */\n      0x24\n        /* \"#utility.yul\":16223:16224   */\n      0x00\n        /* \"#utility.yul\":16216:16231   */\n      revert\n        /* \"#utility.yul\":16243:16360   */\n    tag_205:\n        /* \"#utility.yul\":16352:16353   */\n      0x00\n        /* \"#utility.yul\":16349:16350   */\n      dup1\n        /* \"#utility.yul\":16342:16354   */\n      revert\n        /* \"#utility.yul\":16366:16483   */\n    tag_235:\n        /* \"#utility.yul\":16475:16476   */\n      0x00\n        /* \"#utility.yul\":16472:16473   */\n      dup1\n        /* \"#utility.yul\":16465:16477   */\n      revert\n        /* \"#utility.yul\":16612:16729   */\n    tag_191:\n        /* \"#utility.yul\":16721:16722   */\n      0x00\n        /* \"#utility.yul\":16718:16719   */\n      dup1\n        /* \"#utility.yul\":16711:16723   */\n      revert\n        /* \"#utility.yul\":16735:16852   */\n    tag_255:\n        /* \"#utility.yul\":16844:16845   */\n      0x00\n        /* \"#utility.yul\":16841:16842   */\n      dup1\n        /* \"#utility.yul\":16834:16846   */\n      revert\n        /* \"#utility.yul\":16858:16975   */\n    tag_252:\n        /* \"#utility.yul\":16967:16968   */\n      0x00\n        /* \"#utility.yul\":16964:16965   */\n      dup1\n        /* \"#utility.yul\":16957:16969   */\n      revert\n        /* \"#utility.yul\":16981:17083   */\n    tag_314:\n        /* \"#utility.yul\":17022:17028   */\n      0x00\n        /* \"#utility.yul\":17073:17075   */\n      0x1f\n        /* \"#utility.yul\":17069:17076   */\n      not\n        /* \"#utility.yul\":17064:17066   */\n      0x1f\n        /* \"#utility.yul\":17057:17062   */\n      dup4\n        /* \"#utility.yul\":17053:17067   */\n      add\n        /* \"#utility.yul\":17049:17077   */\n      and\n        /* \"#utility.yul\":17039:17077   */\n      swap1\n      pop\n        /* \"#utility.yul\":16981:17083   */\n      swap2\n      swap1\n      pop\n      jump\t// out\n        /* \"#utility.yul\":17089:17266   */\n    tag_319:\n        /* \"#utility.yul\":17229:17258   */\n      0x536166654d6174683a206164646974696f6e206f766572666c6f770000000000\n        /* \"#utility.yul\":17225:17226   */\n      0x00\n        /* \"#utility.yul\":17217:17223   */\n      dup3\n        /* \"#utility.yul\":17213:17227   */\n      add\n        /* \"#utility.yul\":17206:17259   */\n      mstore\n        /* \"#utility.yul\":17089:17266   */\n      pop\n      jump\t// out\n        /* \"#utility.yul\":17272:17492   */\n    tag_324:\n        /* \"#utility.yul\":17412:17446   */\n      0x536166654d6174683a206d756c7469706c69636174696f6e206f766572666c6f\n        /* \"#utility.yul\":17408:17409   */\n      0x00\n        /* \"#utility.yul\":17400:17406   */\n      dup3\n        /* \"#utility.yul\":17396:17410   */\n      add\n        /* \"#utility.yul\":17389:17447   */\n      mstore\n        /* \"#utility.yul\":17481:17484   */\n      0x7700000000000000000000000000000000000000000000000000000000000000\n        /* \"#utility.yul\":17476:17478   */\n      0x20\n        /* \"#utility.yul\":17468:17474   */\n      dup3\n        /* \"#utility.yul\":17464:17479   */\n      add\n        /* \"#utility.yul\":17457:17485   */\n      mstore\n        /* \"#utility.yul\":17272:17492   */\n      pop\n      jump\t// out\n        /* \"#utility.yul\":17498:17620   */\n    tag_200:\n        /* \"#utility.yul\":17571:17595   */\n      tag_420\n        /* \"#utility.yul\":17589:17594   */\n      dup2\n        /* \"#utility.yul\":17571:17595   */\n      tag_287\n      jump\t// in\n    tag_420:\n        /* \"#utility.yul\":17564:17569   */\n      dup2\n        /* \"#utility.yul\":17561:17596   */\n      eq\n        /* \"#utility.yul\":17551:17614   */\n      tag_421\n      jumpi\n        /* \"#utility.yul\":17610:17611   */\n      0x00\n        /* \"#utility.yul\":17607:17608   */\n      dup1\n        /* \"#utility.yul\":17600:17612   */\n      revert\n        /* \"#utility.yul\":17551:17614   */\n    tag_421:\n        /* \"#utility.yul\":17498:17620   */\n      pop\n      jump\t// out\n        /* \"#utility.yul\":17626:17742   */\n    tag_210:\n        /* \"#utility.yul\":17696:17717   */\n      tag_423\n        /* \"#utility.yul\":17711:17716   */\n      dup2\n        /* \"#utility.yul\":17696:17717   */\n      tag_377\n      jump\t// in\n    tag_423:\n        /* \"#utility.yul\":17689:17694   */\n      dup2\n        /* \"#utility.yul\":17686:17718   */\n      eq\n        /* \"#utility.yul\":17676:17736   */\n      tag_424\n      jumpi\n        /* \"#utility.yul\":17732:17733   */\n      0x00\n        /* \"#utility.yul\":17729:17730   */\n      dup1\n        /* \"#utility.yul\":17722:17734   */\n      revert\n        /* \"#utility.yul\":17676:17736   */\n    tag_424:\n        /* \"#utility.yul\":17626:17742   */\n      pop\n      jump\t// out\n        /* \"#utility.yul\":17748:17898   */\n    tag_214:\n        /* \"#utility.yul\":17835:17873   */\n      tag_426\n        /* \"#utility.yul\":17867:17872   */\n      dup2\n        /* \"#utility.yul\":17835:17873   */\n      tag_379\n      jump\t// in\n    tag_426:\n        /* \"#utility.yul\":17828:17833   */\n      dup2\n        /* \"#utility.yul\":17825:17874   */\n      eq\n        /* \"#utility.yul\":17815:17892   */\n      tag_427\n      jumpi\n        /* \"#utility.yul\":17888:17889   */\n      0x00\n        /* \"#utility.yul\":17885:17886   */\n      dup1\n        /* \"#utility.yul\":17878:17890   */\n      revert\n        /* \"#utility.yul\":17815:17892   */\n    tag_427:\n        /* \"#utility.yul\":17748:17898   */\n      pop\n      jump\t// out\n        /* \"#utility.yul\":17904:18064   */\n    tag_218:\n        /* \"#utility.yul\":17996:18039   */\n      tag_429\n        /* \"#utility.yul\":18033:18038   */\n      dup2\n        /* \"#utility.yul\":17996:18039   */\n      tag_382\n      jump\t// in\n    tag_429:\n        /* \"#utility.yul\":17989:17994   */\n      dup2\n        /* \"#utility.yul\":17986:18040   */\n      eq\n        /* \"#utility.yul\":17976:18058   */\n      tag_430\n      jumpi\n        /* \"#utility.yul\":18054:18055   */\n      0x00\n        /* \"#utility.yul\":18051:18052   */\n      dup1\n        /* \"#utility.yul\":18044:18056   */\n      revert\n        /* \"#utility.yul\":17976:18058   */\n    tag_430:\n        /* \"#utility.yul\":17904:18064   */\n      pop\n      jump\t// out\n        /* \"#utility.yul\":18070:18212   */\n    tag_222:\n        /* \"#utility.yul\":18153:18187   */\n      tag_432\n        /* \"#utility.yul\":18181:18186   */\n      dup2\n        /* \"#utility.yul\":18153:18187   */\n      tag_385\n      jump\t// in\n    tag_432:\n        /* \"#utility.yul\":18146:18151   */\n      dup2\n        /* \"#utility.yul\":18143:18188   */\n      eq\n        /* \"#utility.yul\":18133:18206   */\n      tag_433\n      jumpi\n        /* \"#utility.yul\":18202:18203   */\n      0x00\n        /* \"#utility.yul\":18199:18200   */\n      dup1\n        /* \"#utility.yul\":18192:18204   */\n      revert\n        /* \"#utility.yul\":18133:18206   */\n    tag_433:\n        /* \"#utility.yul\":18070:18212   */\n      pop\n      jump\t// out\n        /* \"#utility.yul\":18218:18384   */\n    tag_226:\n        /* \"#utility.yul\":18313:18359   */\n      tag_435\n        /* \"#utility.yul\":18353:18358   */\n      dup2\n        /* \"#utility.yul\":18313:18359   */\n      tag_388\n      jump\t// in\n    tag_435:\n        /* \"#utility.yul\":18306:18311   */\n      dup2\n        /* \"#utility.yul\":18303:18360   */\n      eq\n        /* \"#utility.yul\":18293:18378   */\n      tag_436\n      jumpi\n        /* \"#utility.yul\":18374:18375   */\n      0x00\n        /* \"#utility.yul\":18371:18372   */\n      dup1\n        /* \"#utility.yul\":18364:18376   */\n      revert\n        /* \"#utility.yul\":18293:18378   */\n    tag_436:\n        /* \"#utility.yul\":18218:18384   */\n      pop\n      jump\t// out\n        /* \"#utility.yul\":18390:18540   */\n    tag_230:\n        /* \"#utility.yul\":18477:18515   */\n      tag_438\n        /* \"#utility.yul\":18509:18514   */\n      dup2\n        /* \"#utility.yul\":18477:18515   */\n      tag_391\n      jump\t// in\n    tag_438:\n        /* \"#utility.yul\":18470:18475   */\n      dup2\n        /* \"#utility.yul\":18467:18516   */\n      eq\n        /* \"#utility.yul\":18457:18534   */\n      tag_439\n      jumpi\n        /* \"#utility.yul\":18530:18531   */\n      0x00\n        /* \"#utility.yul\":18527:18528   */\n      dup1\n        /* \"#utility.yul\":18520:18532   */\n      revert\n        /* \"#utility.yul\":18457:18534   */\n    tag_439:\n        /* \"#utility.yul\":18390:18540   */\n      pop\n      jump\t// out\n        /* \"#utility.yul\":18546:18668   */\n    tag_246:\n        /* \"#utility.yul\":18619:18643   */\n      tag_441\n        /* \"#utility.yul\":18637:18642   */\n      dup2\n        /* \"#utility.yul\":18619:18643   */\n      tag_328\n      jump\t// in\n    tag_441:\n        /* \"#utility.yul\":18612:18617   */\n      dup2\n        /* \"#utility.yul\":18609:18644   */\n      eq\n        /* \"#utility.yul\":18599:18662   */\n      tag_442\n      jumpi\n        /* \"#utility.yul\":18658:18659   */\n      0x00\n        /* \"#utility.yul\":18655:18656   */\n      dup1\n        /* \"#utility.yul\":18648:18660   */\n      revert\n        /* \"#utility.yul\":18599:18662   */\n    tag_442:\n        /* \"#utility.yul\":18546:18668   */\n      pop\n      jump\t// out\n\n    auxdata: 0xa26469706673582212200b551f69012995c8757636479175235d6c41d8cad8264f33dcc6076992aa12d764736f6c63430008070033\n}\n",
				"bytecode": {
					"linkReferences": {},
					"object": "608060405273ae13d989dac2f0debff460ac112a837c89baa7cd6000806101000a81548173ffffffffffffffffffffffffffffffffffffffff021916908373ffffffffffffffffffffffffffffffffffffffff1602179055507378867bbeef44f2326bf8ddd1941a4439382ef2a7600160006101000a81548173ffffffffffffffffffffffffffffffffffffffff021916908373ffffffffffffffffffffffffffffffffffffffff160217905550670de0b6b3a76400006002556a08b200a96f8d058a0000006003553480156100d457600080fd5b50611af1806100e46000396000f3fe608060405234801561001057600080fd5b506004361061004c5760003560e01c80631eff56b914610051578063344e49d914610081578063484f4ea9146100b15780638dd95002146100cf575b600080fd5b61006b600480360381019061006691906113c7565b6100ed565b60405161007891906115cd565b60405180910390f35b61009b6004803603810190610096919061132d565b610216565b6040516100a891906115cd565b60405180910390f35b6100b9610af3565b6040516100c69190611550565b60405180910390f35b6100d7610b19565b6040516100e49190611550565b60405180910390f35b6000808273ffffffffffffffffffffffffffffffffffffffff16631526fe27876040518263ffffffff1660e01b815260040161012991906115cd565b60c06040518083038186803b15801561014157600080fd5b505afa158015610155573d6000803e3d6000fd5b505050506040513d601f19601f82011682018060405250810190610179919061136d565b905060008373ffffffffffffffffffffffffffffffffffffffff166317caf6f16040518163ffffffff1660e01b815260040160206040518083038186803b1580156101c357600080fd5b505afa1580156101d7573d6000803e3d6000fd5b505050506040513d601f19601f820116820180604052508101906101fb919061139a565b826020015161020a9190611745565b90505050949350505050565b60008060008473ffffffffffffffffffffffffffffffffffffffff16630dfe16816040518163ffffffff1660e01b815260040160206040518083038186803b15801561026157600080fd5b505afa158015610275573d6000803e3d6000fd5b505050506040513d601f19601f820116820180604052508101906102999190611300565b73ffffffffffffffffffffffffffffffffffffffff1660008054906101000a900473ffffffffffffffffffffffffffffffffffffffff1673ffffffffffffffffffffffffffffffffffffffff161461049057610489610375858773ffffffffffffffffffffffffffffffffffffffff16630dfe16816040518163ffffffff1660e01b815260040160206040518083038186803b15801561033857600080fd5b505afa15801561034c573d6000803e3d6000fd5b505050506040513d601f19601f820116820180604052508101906103709190611300565b610b3d565b8673ffffffffffffffffffffffffffffffffffffffff16630dfe16816040518163ffffffff1660e01b815260040160206040518083038186803b1580156103bb57600080fd5b505afa1580156103cf573d6000803e3d6000fd5b505050506040513d601f19601f820116820180604052508101906103f39190611300565b73ffffffffffffffffffffffffffffffffffffffff166370a08231886040518263ffffffff1660e01b815260040161042b9190611550565b60206040518083038186803b15801561044357600080fd5b505afa158015610457573d6000803e3d6000fd5b505050506040513d601f19601f8201168201806040525081019061047b919061139a565b610d7190919063ffffffff16565b9150610631565b61062e61051a858773ffffffffffffffffffffffffffffffffffffffff16630dfe16816040518163ffffffff1660e01b815260040160206040518083038186803b1580156104dd57600080fd5b505afa1580156104f1573d6000803e3d6000fd5b505050506040513d601f19601f820116820180604052508101906105159190611300565b610dec565b8673ffffffffffffffffffffffffffffffffffffffff16630dfe16816040518163ffffffff1660e01b815260040160206040518083038186803b15801561056057600080fd5b505afa158015610574573d6000803e3d6000fd5b505050506040513d601f19601f820116820180604052508101906105989190611300565b73ffffffffffffffffffffffffffffffffffffffff166370a08231886040518263ffffffff1660e01b81526004016105d09190611550565b60206040518083038186803b1580156105e857600080fd5b505afa1580156105fc573d6000803e3d6000fd5b505050506040513d601f19601f82011682018060405250810190610620919061139a565b610d7190919063ffffffff16565b91505b8473ffffffffffffffffffffffffffffffffffffffff1663d21220a76040518163ffffffff1660e01b815260040160206040518083038186803b15801561067757600080fd5b505afa15801561068b573d6000803e3d6000fd5b505050506040513d601f19601f820116820180604052508101906106af9190611300565b73ffffffffffffffffffffffffffffffffffffffff1660008054906101000a900473ffffffffffffffffffffffffffffffffffffffff1673ffffffffffffffffffffffffffffffffffffffff16146108a65761089f61078b858773ffffffffffffffffffffffffffffffffffffffff1663d21220a76040518163ffffffff1660e01b815260040160206040518083038186803b15801561074e57600080fd5b505afa158015610762573d6000803e3d6000fd5b505050506040513d601f19601f820116820180604052508101906107869190611300565b610b3d565b8673ffffffffffffffffffffffffffffffffffffffff1663d21220a76040518163ffffffff1660e01b815260040160206040518083038186803b1580156107d157600080fd5b505afa1580156107e5573d6000803e3d6000fd5b505050506040513d601f19601f820116820180604052508101906108099190611300565b73ffffffffffffffffffffffffffffffffffffffff166370a08231886040518263ffffffff1660e01b81526004016108419190611550565b60206040518083038186803b15801561085957600080fd5b505afa15801561086d573d6000803e3d6000fd5b505050506040513d601f19601f82011682018060405250810190610891919061139a565b610d7190919063ffffffff16565b9050610a47565b610a44610930858773ffffffffffffffffffffffffffffffffffffffff1663d21220a76040518163ffffffff1660e01b815260040160206040518083038186803b1580156108f357600080fd5b505afa158015610907573d6000803e3d6000fd5b505050506040513d601f19601f8201168201806040525081019061092b9190611300565b610dec565b8673ffffffffffffffffffffffffffffffffffffffff1663d21220a76040518163ffffffff1660e01b815260040160206040518083038186803b15801561097657600080fd5b505afa15801561098a573d6000803e3d6000fd5b505050506040513d601f19601f820116820180604052508101906109ae9190611300565b73ffffffffffffffffffffffffffffffffffffffff166370a08231886040518263ffffffff1660e01b81526004016109e69190611550565b60206040518083038186803b1580156109fe57600080fd5b505afa158015610a12573d6000803e3d6000fd5b505050506040513d601f19601f82011682018060405250810190610a36919061139a565b610d7190919063ffffffff16565b90505b610ae98573ffffffffffffffffffffffffffffffffffffffff166318160ddd6040518163ffffffff1660e01b815260040160206040518083038186803b158015610a9057600080fd5b505afa158015610aa4573d6000803e3d6000fd5b505050506040513d601f19601f82011682018060405250810190610ac8919061139a565b610adb8385610fb190919063ffffffff16565b61100f90919063ffffffff16565b9250505092915050565b600160009054906101000a900473ffffffffffffffffffffffffffffffffffffffff1681565b60008054906101000a900473ffffffffffffffffffffffffffffffffffffffff1681565b600080600367ffffffffffffffff811115610b5b57610b5a611932565b5b604051908082528060200260200182016040528015610b895781602001602082028036833780820191505090505b5090508281600081518110610ba157610ba0611903565b5b602002602001019073ffffffffffffffffffffffffffffffffffffffff16908173ffffffffffffffffffffffffffffffffffffffff168152505060008054906101000a900473ffffffffffffffffffffffffffffffffffffffff1681600181518110610c1057610c0f611903565b5b602002602001019073ffffffffffffffffffffffffffffffffffffffff16908173ffffffffffffffffffffffffffffffffffffffff1681525050600160009054906101000a900473ffffffffffffffffffffffffffffffffffffffff1681600281518110610c8157610c80611903565b5b602002602001019073ffffffffffffffffffffffffffffffffffffffff16908173ffffffffffffffffffffffffffffffffffffffff16815250508373ffffffffffffffffffffffffffffffffffffffff1663d06ca61f600254836040518363ffffffff1660e01b8152600401610cf89291906115e8565b60006040518083038186803b158015610d1057600080fd5b505afa158015610d24573d6000803e3d6000fd5b505050506040513d6000823e3d601f19601f82011682018060405250810190610d4d91906112b7565b600281518110610d6057610d5f611903565b5b602002602001015191505092915050565b600080831415610d845760009050610de6565b60008284610d929190611745565b9050828482610da19190611714565b14610de1576040517f08c379a0000000000000000000000000000000000000000000000000000000008152600401610dd8906115ad565b60405180910390fd5b809150505b92915050565b600080600267ffffffffffffffff811115610e0a57610e09611932565b5b604051908082528060200260200182016040528015610e385781602001602082028036833780820191505090505b5090508281600081518110610e5057610e4f611903565b5b602002602001019073ffffffffffffffffffffffffffffffffffffffff16908173ffffffffffffffffffffffffffffffffffffffff1681525050600160009054906101000a900473ffffffffffffffffffffffffffffffffffffffff1681600181518110610ec157610ec0611903565b5b602002602001019073ffffffffffffffffffffffffffffffffffffffff16908173ffffffffffffffffffffffffffffffffffffffff16815250508373ffffffffffffffffffffffffffffffffffffffff1663d06ca61f600254836040518363ffffffff1660e01b8152600401610f389291906115e8565b60006040518083038186803b158015610f5057600080fd5b505afa158015610f64573d6000803e3d6000fd5b505050506040513d6000823e3d601f19601f82011682018060405250810190610f8d91906112b7565b600181518110610fa057610f9f611903565b5b602002602001015191505092915050565b6000808284610fc091906116be565b905083811015611005576040517f08c379a0000000000000000000000000000000000000000000000000000000008152600401610ffc9061158d565b60405180910390fd5b8091505092915050565b600061105183836040518060400160405280601a81526020017f536166654d6174683a206469766973696f6e206279207a65726f000000000000815250611059565b905092915050565b600080831182906110a0576040517f08c379a0000000000000000000000000000000000000000000000000000000008152600401611097919061156b565b60405180910390fd5b50600083856110af9190611714565b9050809150509392505050565b60006110cf6110ca8461163d565b611618565b905080838252602082019050828560208602820111156110f2576110f161196b565b5b60005b85811015611122578161110888826112a2565b8452602084019350602083019250506001810190506110f5565b5050509392505050565b60008135905061113b81611a03565b92915050565b600082601f83011261115657611155611961565b5b81516111668482602086016110bc565b91505092915050565b60008135905061117e81611a1a565b92915050565b60008151905061119381611a31565b92915050565b6000815190506111a881611a48565b92915050565b6000813590506111bd81611a5f565b92915050565b6000813590506111d281611a76565b92915050565b6000813590506111e781611a8d565b92915050565b600060c0828403121561120357611202611966565b5b61120d60c0611618565b9050600061121d84828501611184565b6000830152506020611231848285016112a2565b6020830152506040611245848285016112a2565b6040830152506060611259848285016112a2565b606083015250608061126d84828501611199565b60808301525060a061128184828501611184565b60a08301525092915050565b60008135905061129c81611aa4565b92915050565b6000815190506112b181611aa4565b92915050565b6000602082840312156112cd576112cc611975565b5b600082015167ffffffffffffffff8111156112eb576112ea611970565b5b6112f784828501611141565b91505092915050565b60006020828403121561131657611315611975565b5b600061132484828501611184565b91505092915050565b6000806040838503121561134457611343611975565b5b6000611352858286016111ae565b9250506020611363858286016111d8565b9150509250929050565b600060c0828403121561138357611382611975565b5b6000611391848285016111ed565b91505092915050565b6000602082840312156113b0576113af611975565b5b60006113be848285016112a2565b91505092915050565b600080600080608085870312156113e1576113e0611975565b5b60006113ef8782880161128d565b94505060206114008782880161112c565b93505060406114118782880161116f565b9250506060611422878288016111c3565b91505092959194509250565b600061143a8383611446565b60208301905092915050565b61144f8161179f565b82525050565b61145e8161179f565b82525050565b600061146f82611679565b611479818561169c565b935061148483611669565b8060005b838110156114b557815161149c888261142e565b97506114a78361168f565b925050600181019050611488565b5085935050505092915050565b60006114cd82611684565b6114d781856116ad565b93506114e7818560208601611841565b6114f08161197a565b840191505092915050565b6000611508601b836116ad565b91506115138261198b565b602082019050919050565b600061152b6021836116ad565b9150611536826119b4565b604082019050919050565b61154a81611837565b82525050565b60006020820190506115656000830184611455565b92915050565b6000602082019050818103600083015261158581846114c2565b905092915050565b600060208201905081810360008301526115a6816114fb565b9050919050565b600060208201905081810360008301526115c68161151e565b9050919050565b60006020820190506115e26000830184611541565b92915050565b60006040820190506115fd6000830185611541565b818103602083015261160f8184611464565b90509392505050565b6000611622611633565b905061162e8282611874565b919050565b6000604051905090565b600067ffffffffffffffff82111561165857611657611932565b5b602082029050602081019050919050565b6000819050602082019050919050565b600081519050919050565b600081519050919050565b6000602082019050919050565b600082825260208201905092915050565b600082825260208201905092915050565b60006116c982611837565b91506116d483611837565b9250827fffffffffffffffffffffffffffffffffffffffffffffffffffffffffffffffff03821115611709576117086118a5565b5b828201905092915050565b600061171f82611837565b915061172a83611837565b92508261173a576117396118d4565b5b828204905092915050565b600061175082611837565b915061175b83611837565b9250817fffffffffffffffffffffffffffffffffffffffffffffffffffffffffffffffff0483118215151615611794576117936118a5565b5b828202905092915050565b60006117aa82611817565b9050919050565b60008115159050919050565b60006117c88261179f565b9050919050565b60006117da8261179f565b9050919050565b60006117ec8261179f565b9050919050565b60006117fe8261179f565b9050919050565b60006118108261179f565b9050919050565b600073ffffffffffffffffffffffffffffffffffffffff82169050919050565b6000819050919050565b60005b8381101561185f578082015181840152602081019050611844565b8381111561186e576000848401525b50505050565b61187d8261197a565b810181811067ffffffffffffffff8211171561189c5761189b611932565b5b80604052505050565b7f4e487b7100000000000000000000000000000000000000000000000000000000600052601160045260246000fd5b7f4e487b7100000000000000000000000000000000000000000000000000000000600052601260045260246000fd5b7f4e487b7100000000000000000000000000000000000000000000000000000000600052603260045260246000fd5b7f4e487b7100000000000000000000000000000000000000000000000000000000600052604160045260246000fd5b600080fd5b600080fd5b600080fd5b600080fd5b600080fd5b6000601f19601f8301169050919050565b7f536166654d6174683a206164646974696f6e206f766572666c6f770000000000600082015250565b7f536166654d6174683a206d756c7469706c69636174696f6e206f766572666c6f60008201527f7700000000000000000000000000000000000000000000000000000000000000602082015250565b611a0c8161179f565b8114611a1757600080fd5b50565b611a23816117b1565b8114611a2e57600080fd5b50565b611a3a816117bd565b8114611a4557600080fd5b50565b611a51816117cf565b8114611a5c57600080fd5b50565b611a68816117e1565b8114611a7357600080fd5b50565b611a7f816117f3565b8114611a8a57600080fd5b50565b611a9681611805565b8114611aa157600080fd5b50565b611aad81611837565b8114611ab857600080fd5b5056fea26469706673582212200b551f69012995c8757636479175235d6c41d8cad8264f33dcc6076992aa12d764736f6c63430008070033",
					"opcodes": "PUSH1 0x80 PUSH1 0x40 MSTORE PUSH20 0xAE13D989DAC2F0DEBFF460AC112A837C89BAA7CD PUSH1 0x0 DUP1 PUSH2 0x100 EXP DUP2 SLOAD DUP2 PUSH20 0xFFFFFFFFFFFFFFFFFFFFFFFFFFFFFFFFFFFFFFFF MUL NOT AND SWAP1 DUP4 PUSH20 0xFFFFFFFFFFFFFFFFFFFFFFFFFFFFFFFFFFFFFFFF AND MUL OR SWAP1 SSTORE POP PUSH20 0x78867BBEEF44F2326BF8DDD1941A4439382EF2A7 PUSH1 0x1 PUSH1 0x0 PUSH2 0x100 EXP DUP2 SLOAD DUP2 PUSH20 0xFFFFFFFFFFFFFFFFFFFFFFFFFFFFFFFFFFFFFFFF MUL NOT AND SWAP1 DUP4 PUSH20 0xFFFFFFFFFFFFFFFFFFFFFFFFFFFFFFFFFFFFFFFF AND MUL OR SWAP1 SSTORE POP PUSH8 0xDE0B6B3A7640000 PUSH1 0x2 SSTORE PUSH11 0x8B200A96F8D058A000000 PUSH1 0x3 SSTORE CALLVALUE DUP1 ISZERO PUSH2 0xD4 JUMPI PUSH1 0x0 DUP1 REVERT JUMPDEST POP PUSH2 0x1AF1 DUP1 PUSH2 0xE4 PUSH1 0x0 CODECOPY PUSH1 0x0 RETURN INVALID PUSH1 0x80 PUSH1 0x40 MSTORE CALLVALUE DUP1 ISZERO PUSH2 0x10 JUMPI PUSH1 0x0 DUP1 REVERT JUMPDEST POP PUSH1 0x4 CALLDATASIZE LT PUSH2 0x4C JUMPI PUSH1 0x0 CALLDATALOAD PUSH1 0xE0 SHR DUP1 PUSH4 0x1EFF56B9 EQ PUSH2 0x51 JUMPI DUP1 PUSH4 0x344E49D9 EQ PUSH2 0x81 JUMPI DUP1 PUSH4 0x484F4EA9 EQ PUSH2 0xB1 JUMPI DUP1 PUSH4 0x8DD95002 EQ PUSH2 0xCF JUMPI JUMPDEST PUSH1 0x0 DUP1 REVERT JUMPDEST PUSH2 0x6B PUSH1 0x4 DUP1 CALLDATASIZE SUB DUP2 ADD SWAP1 PUSH2 0x66 SWAP2 SWAP1 PUSH2 0x13C7 JUMP JUMPDEST PUSH2 0xED JUMP JUMPDEST PUSH1 0x40 MLOAD PUSH2 0x78 SWAP2 SWAP1 PUSH2 0x15CD JUMP JUMPDEST PUSH1 0x40 MLOAD DUP1 SWAP2 SUB SWAP1 RETURN JUMPDEST PUSH2 0x9B PUSH1 0x4 DUP1 CALLDATASIZE SUB DUP2 ADD SWAP1 PUSH2 0x96 SWAP2 SWAP1 PUSH2 0x132D JUMP JUMPDEST PUSH2 0x216 JUMP JUMPDEST PUSH1 0x40 MLOAD PUSH2 0xA8 SWAP2 SWAP1 PUSH2 0x15CD JUMP JUMPDEST PUSH1 0x40 MLOAD DUP1 SWAP2 SUB SWAP1 RETURN JUMPDEST PUSH2 0xB9 PUSH2 0xAF3 JUMP JUMPDEST PUSH1 0x40 MLOAD PUSH2 0xC6 SWAP2 SWAP1 PUSH2 0x1550 JUMP JUMPDEST PUSH1 0x40 MLOAD DUP1 SWAP2 SUB SWAP1 RETURN JUMPDEST PUSH2 0xD7 PUSH2 0xB19 JUMP JUMPDEST PUSH1 0x40 MLOAD PUSH2 0xE4 SWAP2 SWAP1 PUSH2 0x1550 JUMP JUMPDEST PUSH1 0x40 MLOAD DUP1 SWAP2 SUB SWAP1 RETURN JUMPDEST PUSH1 0x0 DUP1 DUP3 PUSH20 0xFFFFFFFFFFFFFFFFFFFFFFFFFFFFFFFFFFFFFFFF AND PUSH4 0x1526FE27 DUP8 PUSH1 0x40 MLOAD DUP3 PUSH4 0xFFFFFFFF AND PUSH1 0xE0 SHL DUP2 MSTORE PUSH1 0x4 ADD PUSH2 0x129 SWAP2 SWAP1 PUSH2 0x15CD JUMP JUMPDEST PUSH1 0xC0 PUSH1 0x40 MLOAD DUP1 DUP4 SUB DUP2 DUP7 DUP1 EXTCODESIZE ISZERO DUP1 ISZERO PUSH2 0x141 JUMPI PUSH1 0x0 DUP1 REVERT JUMPDEST POP GAS STATICCALL ISZERO DUP1 ISZERO PUSH2 0x155 JUMPI RETURNDATASIZE PUSH1 0x0 DUP1 RETURNDATACOPY RETURNDATASIZE PUSH1 0x0 REVERT JUMPDEST POP POP POP POP PUSH1 0x40 MLOAD RETURNDATASIZE PUSH1 0x1F NOT PUSH1 0x1F DUP3 ADD AND DUP3 ADD DUP1 PUSH1 0x40 MSTORE POP DUP2 ADD SWAP1 PUSH2 0x179 SWAP2 SWAP1 PUSH2 0x136D JUMP JUMPDEST SWAP1 POP PUSH1 0x0 DUP4 PUSH20 0xFFFFFFFFFFFFFFFFFFFFFFFFFFFFFFFFFFFFFFFF AND PUSH4 0x17CAF6F1 PUSH1 0x40 MLOAD DUP2 PUSH4 0xFFFFFFFF AND PUSH1 0xE0 SHL DUP2 MSTORE PUSH1 0x4 ADD PUSH1 0x20 PUSH1 0x40 MLOAD DUP1 DUP4 SUB DUP2 DUP7 DUP1 EXTCODESIZE ISZERO DUP1 ISZERO PUSH2 0x1C3 JUMPI PUSH1 0x0 DUP1 REVERT JUMPDEST POP GAS STATICCALL ISZERO DUP1 ISZERO PUSH2 0x1D7 JUMPI RETURNDATASIZE PUSH1 0x0 DUP1 RETURNDATACOPY RETURNDATASIZE PUSH1 0x0 REVERT JUMPDEST POP POP POP POP PUSH1 0x40 MLOAD RETURNDATASIZE PUSH1 0x1F NOT PUSH1 0x1F DUP3 ADD AND DUP3 ADD DUP1 PUSH1 0x40 MSTORE POP DUP2 ADD SWAP1 PUSH2 0x1FB SWAP2 SWAP1 PUSH2 0x139A JUMP JUMPDEST DUP3 PUSH1 0x20 ADD MLOAD PUSH2 0x20A SWAP2 SWAP1 PUSH2 0x1745 JUMP JUMPDEST SWAP1 POP POP POP SWAP5 SWAP4 POP POP POP POP JUMP JUMPDEST PUSH1 0x0 DUP1 PUSH1 0x0 DUP5 PUSH20 0xFFFFFFFFFFFFFFFFFFFFFFFFFFFFFFFFFFFFFFFF AND PUSH4 0xDFE1681 PUSH1 0x40 MLOAD DUP2 PUSH4 0xFFFFFFFF AND PUSH1 0xE0 SHL DUP2 MSTORE PUSH1 0x4 ADD PUSH1 0x20 PUSH1 0x40 MLOAD DUP1 DUP4 SUB DUP2 DUP7 DUP1 EXTCODESIZE ISZERO DUP1 ISZERO PUSH2 0x261 JUMPI PUSH1 0x0 DUP1 REVERT JUMPDEST POP GAS STATICCALL ISZERO DUP1 ISZERO PUSH2 0x275 JUMPI RETURNDATASIZE PUSH1 0x0 DUP1 RETURNDATACOPY RETURNDATASIZE PUSH1 0x0 REVERT JUMPDEST POP POP POP POP PUSH1 0x40 MLOAD RETURNDATASIZE PUSH1 0x1F NOT PUSH1 0x1F DUP3 ADD AND DUP3 ADD DUP1 PUSH1 0x40 MSTORE POP DUP2 ADD SWAP1 PUSH2 0x299 SWAP2 SWAP1 PUSH2 0x1300 JUMP JUMPDEST PUSH20 0xFFFFFFFFFFFFFFFFFFFFFFFFFFFFFFFFFFFFFFFF AND PUSH1 0x0 DUP1 SLOAD SWAP1 PUSH2 0x100 EXP SWAP1 DIV PUSH20 0xFFFFFFFFFFFFFFFFFFFFFFFFFFFFFFFFFFFFFFFF AND PUSH20 0xFFFFFFFFFFFFFFFFFFFFFFFFFFFFFFFFFFFFFFFF AND EQ PUSH2 0x490 JUMPI PUSH2 0x489 PUSH2 0x375 DUP6 DUP8 PUSH20 0xFFFFFFFFFFFFFFFFFFFFFFFFFFFFFFFFFFFFFFFF AND PUSH4 0xDFE1681 PUSH1 0x40 MLOAD DUP2 PUSH4 0xFFFFFFFF AND PUSH1 0xE0 SHL DUP2 MSTORE PUSH1 0x4 ADD PUSH1 0x20 PUSH1 0x40 MLOAD DUP1 DUP4 SUB DUP2 DUP7 DUP1 EXTCODESIZE ISZERO DUP1 ISZERO PUSH2 0x338 JUMPI PUSH1 0x0 DUP1 REVERT JUMPDEST POP GAS STATICCALL ISZERO DUP1 ISZERO PUSH2 0x34C JUMPI RETURNDATASIZE PUSH1 0x0 DUP1 RETURNDATACOPY RETURNDATASIZE PUSH1 0x0 REVERT JUMPDEST POP POP POP POP PUSH1 0x40 MLOAD RETURNDATASIZE PUSH1 0x1F NOT PUSH1 0x1F DUP3 ADD AND DUP3 ADD DUP1 PUSH1 0x40 MSTORE POP DUP2 ADD SWAP1 PUSH2 0x370 SWAP2 SWAP1 PUSH2 0x1300 JUMP JUMPDEST PUSH2 0xB3D JUMP JUMPDEST DUP7 PUSH20 0xFFFFFFFFFFFFFFFFFFFFFFFFFFFFFFFFFFFFFFFF AND PUSH4 0xDFE1681 PUSH1 0x40 MLOAD DUP2 PUSH4 0xFFFFFFFF AND PUSH1 0xE0 SHL DUP2 MSTORE PUSH1 0x4 ADD PUSH1 0x20 PUSH1 0x40 MLOAD DUP1 DUP4 SUB DUP2 DUP7 DUP1 EXTCODESIZE ISZERO DUP1 ISZERO PUSH2 0x3BB JUMPI PUSH1 0x0 DUP1 REVERT JUMPDEST POP GAS STATICCALL ISZERO DUP1 ISZERO PUSH2 0x3CF JUMPI RETURNDATASIZE PUSH1 0x0 DUP1 RETURNDATACOPY RETURNDATASIZE PUSH1 0x0 REVERT JUMPDEST POP POP POP POP PUSH1 0x40 MLOAD RETURNDATASIZE PUSH1 0x1F NOT PUSH1 0x1F DUP3 ADD AND DUP3 ADD DUP1 PUSH1 0x40 MSTORE POP DUP2 ADD SWAP1 PUSH2 0x3F3 SWAP2 SWAP1 PUSH2 0x1300 JUMP JUMPDEST PUSH20 0xFFFFFFFFFFFFFFFFFFFFFFFFFFFFFFFFFFFFFFFF AND PUSH4 0x70A08231 DUP9 PUSH1 0x40 MLOAD DUP3 PUSH4 0xFFFFFFFF AND PUSH1 0xE0 SHL DUP2 MSTORE PUSH1 0x4 ADD PUSH2 0x42B SWAP2 SWAP1 PUSH2 0x1550 JUMP JUMPDEST PUSH1 0x20 PUSH1 0x40 MLOAD DUP1 DUP4 SUB DUP2 DUP7 DUP1 EXTCODESIZE ISZERO DUP1 ISZERO PUSH2 0x443 JUMPI PUSH1 0x0 DUP1 REVERT JUMPDEST POP GAS STATICCALL ISZERO DUP1 ISZERO PUSH2 0x457 JUMPI RETURNDATASIZE PUSH1 0x0 DUP1 RETURNDATACOPY RETURNDATASIZE PUSH1 0x0 REVERT JUMPDEST POP POP POP POP PUSH1 0x40 MLOAD RETURNDATASIZE PUSH1 0x1F NOT PUSH1 0x1F DUP3 ADD AND DUP3 ADD DUP1 PUSH1 0x40 MSTORE POP DUP2 ADD SWAP1 PUSH2 0x47B SWAP2 SWAP1 PUSH2 0x139A JUMP JUMPDEST PUSH2 0xD71 SWAP1 SWAP2 SWAP1 PUSH4 0xFFFFFFFF AND JUMP JUMPDEST SWAP2 POP PUSH2 0x631 JUMP JUMPDEST PUSH2 0x62E PUSH2 0x51A DUP6 DUP8 PUSH20 0xFFFFFFFFFFFFFFFFFFFFFFFFFFFFFFFFFFFFFFFF AND PUSH4 0xDFE1681 PUSH1 0x40 MLOAD DUP2 PUSH4 0xFFFFFFFF AND PUSH1 0xE0 SHL DUP2 MSTORE PUSH1 0x4 ADD PUSH1 0x20 PUSH1 0x40 MLOAD DUP1 DUP4 SUB DUP2 DUP7 DUP1 EXTCODESIZE ISZERO DUP1 ISZERO PUSH2 0x4DD JUMPI PUSH1 0x0 DUP1 REVERT JUMPDEST POP GAS STATICCALL ISZERO DUP1 ISZERO PUSH2 0x4F1 JUMPI RETURNDATASIZE PUSH1 0x0 DUP1 RETURNDATACOPY RETURNDATASIZE PUSH1 0x0 REVERT JUMPDEST POP POP POP POP PUSH1 0x40 MLOAD RETURNDATASIZE PUSH1 0x1F NOT PUSH1 0x1F DUP3 ADD AND DUP3 ADD DUP1 PUSH1 0x40 MSTORE POP DUP2 ADD SWAP1 PUSH2 0x515 SWAP2 SWAP1 PUSH2 0x1300 JUMP JUMPDEST PUSH2 0xDEC JUMP JUMPDEST DUP7 PUSH20 0xFFFFFFFFFFFFFFFFFFFFFFFFFFFFFFFFFFFFFFFF AND PUSH4 0xDFE1681 PUSH1 0x40 MLOAD DUP2 PUSH4 0xFFFFFFFF AND PUSH1 0xE0 SHL DUP2 MSTORE PUSH1 0x4 ADD PUSH1 0x20 PUSH1 0x40 MLOAD DUP1 DUP4 SUB DUP2 DUP7 DUP1 EXTCODESIZE ISZERO DUP1 ISZERO PUSH2 0x560 JUMPI PUSH1 0x0 DUP1 REVERT JUMPDEST POP GAS STATICCALL ISZERO DUP1 ISZERO PUSH2 0x574 JUMPI RETURNDATASIZE PUSH1 0x0 DUP1 RETURNDATACOPY RETURNDATASIZE PUSH1 0x0 REVERT JUMPDEST POP POP POP POP PUSH1 0x40 MLOAD RETURNDATASIZE PUSH1 0x1F NOT PUSH1 0x1F DUP3 ADD AND DUP3 ADD DUP1 PUSH1 0x40 MSTORE POP DUP2 ADD SWAP1 PUSH2 0x598 SWAP2 SWAP1 PUSH2 0x1300 JUMP JUMPDEST PUSH20 0xFFFFFFFFFFFFFFFFFFFFFFFFFFFFFFFFFFFFFFFF AND PUSH4 0x70A08231 DUP9 PUSH1 0x40 MLOAD DUP3 PUSH4 0xFFFFFFFF AND PUSH1 0xE0 SHL DUP2 MSTORE PUSH1 0x4 ADD PUSH2 0x5D0 SWAP2 SWAP1 PUSH2 0x1550 JUMP JUMPDEST PUSH1 0x20 PUSH1 0x40 MLOAD DUP1 DUP4 SUB DUP2 DUP7 DUP1 EXTCODESIZE ISZERO DUP1 ISZERO PUSH2 0x5E8 JUMPI PUSH1 0x0 DUP1 REVERT JUMPDEST POP GAS STATICCALL ISZERO DUP1 ISZERO PUSH2 0x5FC JUMPI RETURNDATASIZE PUSH1 0x0 DUP1 RETURNDATACOPY RETURNDATASIZE PUSH1 0x0 REVERT JUMPDEST POP POP POP POP PUSH1 0x40 MLOAD RETURNDATASIZE PUSH1 0x1F NOT PUSH1 0x1F DUP3 ADD AND DUP3 ADD DUP1 PUSH1 0x40 MSTORE POP DUP2 ADD SWAP1 PUSH2 0x620 SWAP2 SWAP1 PUSH2 0x139A JUMP JUMPDEST PUSH2 0xD71 SWAP1 SWAP2 SWAP1 PUSH4 0xFFFFFFFF AND JUMP JUMPDEST SWAP2 POP JUMPDEST DUP5 PUSH20 0xFFFFFFFFFFFFFFFFFFFFFFFFFFFFFFFFFFFFFFFF AND PUSH4 0xD21220A7 PUSH1 0x40 MLOAD DUP2 PUSH4 0xFFFFFFFF AND PUSH1 0xE0 SHL DUP2 MSTORE PUSH1 0x4 ADD PUSH1 0x20 PUSH1 0x40 MLOAD DUP1 DUP4 SUB DUP2 DUP7 DUP1 EXTCODESIZE ISZERO DUP1 ISZERO PUSH2 0x677 JUMPI PUSH1 0x0 DUP1 REVERT JUMPDEST POP GAS STATICCALL ISZERO DUP1 ISZERO PUSH2 0x68B JUMPI RETURNDATASIZE PUSH1 0x0 DUP1 RETURNDATACOPY RETURNDATASIZE PUSH1 0x0 REVERT JUMPDEST POP POP POP POP PUSH1 0x40 MLOAD RETURNDATASIZE PUSH1 0x1F NOT PUSH1 0x1F DUP3 ADD AND DUP3 ADD DUP1 PUSH1 0x40 MSTORE POP DUP2 ADD SWAP1 PUSH2 0x6AF SWAP2 SWAP1 PUSH2 0x1300 JUMP JUMPDEST PUSH20 0xFFFFFFFFFFFFFFFFFFFFFFFFFFFFFFFFFFFFFFFF AND PUSH1 0x0 DUP1 SLOAD SWAP1 PUSH2 0x100 EXP SWAP1 DIV PUSH20 0xFFFFFFFFFFFFFFFFFFFFFFFFFFFFFFFFFFFFFFFF AND PUSH20 0xFFFFFFFFFFFFFFFFFFFFFFFFFFFFFFFFFFFFFFFF AND EQ PUSH2 0x8A6 JUMPI PUSH2 0x89F PUSH2 0x78B DUP6 DUP8 PUSH20 0xFFFFFFFFFFFFFFFFFFFFFFFFFFFFFFFFFFFFFFFF AND PUSH4 0xD21220A7 PUSH1 0x40 MLOAD DUP2 PUSH4 0xFFFFFFFF AND PUSH1 0xE0 SHL DUP2 MSTORE PUSH1 0x4 ADD PUSH1 0x20 PUSH1 0x40 MLOAD DUP1 DUP4 SUB DUP2 DUP7 DUP1 EXTCODESIZE ISZERO DUP1 ISZERO PUSH2 0x74E JUMPI PUSH1 0x0 DUP1 REVERT JUMPDEST POP GAS STATICCALL ISZERO DUP1 ISZERO PUSH2 0x762 JUMPI RETURNDATASIZE PUSH1 0x0 DUP1 RETURNDATACOPY RETURNDATASIZE PUSH1 0x0 REVERT JUMPDEST POP POP POP POP PUSH1 0x40 MLOAD RETURNDATASIZE PUSH1 0x1F NOT PUSH1 0x1F DUP3 ADD AND DUP3 ADD DUP1 PUSH1 0x40 MSTORE POP DUP2 ADD SWAP1 PUSH2 0x786 SWAP2 SWAP1 PUSH2 0x1300 JUMP JUMPDEST PUSH2 0xB3D JUMP JUMPDEST DUP7 PUSH20 0xFFFFFFFFFFFFFFFFFFFFFFFFFFFFFFFFFFFFFFFF AND PUSH4 0xD21220A7 PUSH1 0x40 MLOAD DUP2 PUSH4 0xFFFFFFFF AND PUSH1 0xE0 SHL DUP2 MSTORE PUSH1 0x4 ADD PUSH1 0x20 PUSH1 0x40 MLOAD DUP1 DUP4 SUB DUP2 DUP7 DUP1 EXTCODESIZE ISZERO DUP1 ISZERO PUSH2 0x7D1 JUMPI PUSH1 0x0 DUP1 REVERT JUMPDEST POP GAS STATICCALL ISZERO DUP1 ISZERO PUSH2 0x7E5 JUMPI RETURNDATASIZE PUSH1 0x0 DUP1 RETURNDATACOPY RETURNDATASIZE PUSH1 0x0 REVERT JUMPDEST POP POP POP POP PUSH1 0x40 MLOAD RETURNDATASIZE PUSH1 0x1F NOT PUSH1 0x1F DUP3 ADD AND DUP3 ADD DUP1 PUSH1 0x40 MSTORE POP DUP2 ADD SWAP1 PUSH2 0x809 SWAP2 SWAP1 PUSH2 0x1300 JUMP JUMPDEST PUSH20 0xFFFFFFFFFFFFFFFFFFFFFFFFFFFFFFFFFFFFFFFF AND PUSH4 0x70A08231 DUP9 PUSH1 0x40 MLOAD DUP3 PUSH4 0xFFFFFFFF AND PUSH1 0xE0 SHL DUP2 MSTORE PUSH1 0x4 ADD PUSH2 0x841 SWAP2 SWAP1 PUSH2 0x1550 JUMP JUMPDEST PUSH1 0x20 PUSH1 0x40 MLOAD DUP1 DUP4 SUB DUP2 DUP7 DUP1 EXTCODESIZE ISZERO DUP1 ISZERO PUSH2 0x859 JUMPI PUSH1 0x0 DUP1 REVERT JUMPDEST POP GAS STATICCALL ISZERO DUP1 ISZERO PUSH2 0x86D JUMPI RETURNDATASIZE PUSH1 0x0 DUP1 RETURNDATACOPY RETURNDATASIZE PUSH1 0x0 REVERT JUMPDEST POP POP POP POP PUSH1 0x40 MLOAD RETURNDATASIZE PUSH1 0x1F NOT PUSH1 0x1F DUP3 ADD AND DUP3 ADD DUP1 PUSH1 0x40 MSTORE POP DUP2 ADD SWAP1 PUSH2 0x891 SWAP2 SWAP1 PUSH2 0x139A JUMP JUMPDEST PUSH2 0xD71 SWAP1 SWAP2 SWAP1 PUSH4 0xFFFFFFFF AND JUMP JUMPDEST SWAP1 POP PUSH2 0xA47 JUMP JUMPDEST PUSH2 0xA44 PUSH2 0x930 DUP6 DUP8 PUSH20 0xFFFFFFFFFFFFFFFFFFFFFFFFFFFFFFFFFFFFFFFF AND PUSH4 0xD21220A7 PUSH1 0x40 MLOAD DUP2 PUSH4 0xFFFFFFFF AND PUSH1 0xE0 SHL DUP2 MSTORE PUSH1 0x4 ADD PUSH1 0x20 PUSH1 0x40 MLOAD DUP1 DUP4 SUB DUP2 DUP7 DUP1 EXTCODESIZE ISZERO DUP1 ISZERO PUSH2 0x8F3 JUMPI PUSH1 0x0 DUP1 REVERT JUMPDEST POP GAS STATICCALL ISZERO DUP1 ISZERO PUSH2 0x907 JUMPI RETURNDATASIZE PUSH1 0x0 DUP1 RETURNDATACOPY RETURNDATASIZE PUSH1 0x0 REVERT JUMPDEST POP POP POP POP PUSH1 0x40 MLOAD RETURNDATASIZE PUSH1 0x1F NOT PUSH1 0x1F DUP3 ADD AND DUP3 ADD DUP1 PUSH1 0x40 MSTORE POP DUP2 ADD SWAP1 PUSH2 0x92B SWAP2 SWAP1 PUSH2 0x1300 JUMP JUMPDEST PUSH2 0xDEC JUMP JUMPDEST DUP7 PUSH20 0xFFFFFFFFFFFFFFFFFFFFFFFFFFFFFFFFFFFFFFFF AND PUSH4 0xD21220A7 PUSH1 0x40 MLOAD DUP2 PUSH4 0xFFFFFFFF AND PUSH1 0xE0 SHL DUP2 MSTORE PUSH1 0x4 ADD PUSH1 0x20 PUSH1 0x40 MLOAD DUP1 DUP4 SUB DUP2 DUP7 DUP1 EXTCODESIZE ISZERO DUP1 ISZERO PUSH2 0x976 JUMPI PUSH1 0x0 DUP1 REVERT JUMPDEST POP GAS STATICCALL ISZERO DUP1 ISZERO PUSH2 0x98A JUMPI RETURNDATASIZE PUSH1 0x0 DUP1 RETURNDATACOPY RETURNDATASIZE PUSH1 0x0 REVERT JUMPDEST POP POP POP POP PUSH1 0x40 MLOAD RETURNDATASIZE PUSH1 0x1F NOT PUSH1 0x1F DUP3 ADD AND DUP3 ADD DUP1 PUSH1 0x40 MSTORE POP DUP2 ADD SWAP1 PUSH2 0x9AE SWAP2 SWAP1 PUSH2 0x1300 JUMP JUMPDEST PUSH20 0xFFFFFFFFFFFFFFFFFFFFFFFFFFFFFFFFFFFFFFFF AND PUSH4 0x70A08231 DUP9 PUSH1 0x40 MLOAD DUP3 PUSH4 0xFFFFFFFF AND PUSH1 0xE0 SHL DUP2 MSTORE PUSH1 0x4 ADD PUSH2 0x9E6 SWAP2 SWAP1 PUSH2 0x1550 JUMP JUMPDEST PUSH1 0x20 PUSH1 0x40 MLOAD DUP1 DUP4 SUB DUP2 DUP7 DUP1 EXTCODESIZE ISZERO DUP1 ISZERO PUSH2 0x9FE JUMPI PUSH1 0x0 DUP1 REVERT JUMPDEST POP GAS STATICCALL ISZERO DUP1 ISZERO PUSH2 0xA12 JUMPI RETURNDATASIZE PUSH1 0x0 DUP1 RETURNDATACOPY RETURNDATASIZE PUSH1 0x0 REVERT JUMPDEST POP POP POP POP PUSH1 0x40 MLOAD RETURNDATASIZE PUSH1 0x1F NOT PUSH1 0x1F DUP3 ADD AND DUP3 ADD DUP1 PUSH1 0x40 MSTORE POP DUP2 ADD SWAP1 PUSH2 0xA36 SWAP2 SWAP1 PUSH2 0x139A JUMP JUMPDEST PUSH2 0xD71 SWAP1 SWAP2 SWAP1 PUSH4 0xFFFFFFFF AND JUMP JUMPDEST SWAP1 POP JUMPDEST PUSH2 0xAE9 DUP6 PUSH20 0xFFFFFFFFFFFFFFFFFFFFFFFFFFFFFFFFFFFFFFFF AND PUSH4 0x18160DDD PUSH1 0x40 MLOAD DUP2 PUSH4 0xFFFFFFFF AND PUSH1 0xE0 SHL DUP2 MSTORE PUSH1 0x4 ADD PUSH1 0x20 PUSH1 0x40 MLOAD DUP1 DUP4 SUB DUP2 DUP7 DUP1 EXTCODESIZE ISZERO DUP1 ISZERO PUSH2 0xA90 JUMPI PUSH1 0x0 DUP1 REVERT JUMPDEST POP GAS STATICCALL ISZERO DUP1 ISZERO PUSH2 0xAA4 JUMPI RETURNDATASIZE PUSH1 0x0 DUP1 RETURNDATACOPY RETURNDATASIZE PUSH1 0x0 REVERT JUMPDEST POP POP POP POP PUSH1 0x40 MLOAD RETURNDATASIZE PUSH1 0x1F NOT PUSH1 0x1F DUP3 ADD AND DUP3 ADD DUP1 PUSH1 0x40 MSTORE POP DUP2 ADD SWAP1 PUSH2 0xAC8 SWAP2 SWAP1 PUSH2 0x139A JUMP JUMPDEST PUSH2 0xADB DUP4 DUP6 PUSH2 0xFB1 SWAP1 SWAP2 SWAP1 PUSH4 0xFFFFFFFF AND JUMP JUMPDEST PUSH2 0x100F SWAP1 SWAP2 SWAP1 PUSH4 0xFFFFFFFF AND JUMP JUMPDEST SWAP3 POP POP POP SWAP3 SWAP2 POP POP JUMP JUMPDEST PUSH1 0x1 PUSH1 0x0 SWAP1 SLOAD SWAP1 PUSH2 0x100 EXP SWAP1 DIV PUSH20 0xFFFFFFFFFFFFFFFFFFFFFFFFFFFFFFFFFFFFFFFF AND DUP2 JUMP JUMPDEST PUSH1 0x0 DUP1 SLOAD SWAP1 PUSH2 0x100 EXP SWAP1 DIV PUSH20 0xFFFFFFFFFFFFFFFFFFFFFFFFFFFFFFFFFFFFFFFF AND DUP2 JUMP JUMPDEST PUSH1 0x0 DUP1 PUSH1 0x3 PUSH8 0xFFFFFFFFFFFFFFFF DUP2 GT ISZERO PUSH2 0xB5B JUMPI PUSH2 0xB5A PUSH2 0x1932 JUMP JUMPDEST JUMPDEST PUSH1 0x40 MLOAD SWAP1 DUP1 DUP3 MSTORE DUP1 PUSH1 0x20 MUL PUSH1 0x20 ADD DUP3 ADD PUSH1 0x40 MSTORE DUP1 ISZERO PUSH2 0xB89 JUMPI DUP2 PUSH1 0x20 ADD PUSH1 0x20 DUP3 MUL DUP1 CALLDATASIZE DUP4 CALLDATACOPY DUP1 DUP3 ADD SWAP2 POP POP SWAP1 POP JUMPDEST POP SWAP1 POP DUP3 DUP2 PUSH1 0x0 DUP2 MLOAD DUP2 LT PUSH2 0xBA1 JUMPI PUSH2 0xBA0 PUSH2 0x1903 JUMP JUMPDEST JUMPDEST PUSH1 0x20 MUL PUSH1 0x20 ADD ADD SWAP1 PUSH20 0xFFFFFFFFFFFFFFFFFFFFFFFFFFFFFFFFFFFFFFFF AND SWAP1 DUP2 PUSH20 0xFFFFFFFFFFFFFFFFFFFFFFFFFFFFFFFFFFFFFFFF AND DUP2 MSTORE POP POP PUSH1 0x0 DUP1 SLOAD SWAP1 PUSH2 0x100 EXP SWAP1 DIV PUSH20 0xFFFFFFFFFFFFFFFFFFFFFFFFFFFFFFFFFFFFFFFF AND DUP2 PUSH1 0x1 DUP2 MLOAD DUP2 LT PUSH2 0xC10 JUMPI PUSH2 0xC0F PUSH2 0x1903 JUMP JUMPDEST JUMPDEST PUSH1 0x20 MUL PUSH1 0x20 ADD ADD SWAP1 PUSH20 0xFFFFFFFFFFFFFFFFFFFFFFFFFFFFFFFFFFFFFFFF AND SWAP1 DUP2 PUSH20 0xFFFFFFFFFFFFFFFFFFFFFFFFFFFFFFFFFFFFFFFF AND DUP2 MSTORE POP POP PUSH1 0x1 PUSH1 0x0 SWAP1 SLOAD SWAP1 PUSH2 0x100 EXP SWAP1 DIV PUSH20 0xFFFFFFFFFFFFFFFFFFFFFFFFFFFFFFFFFFFFFFFF AND DUP2 PUSH1 0x2 DUP2 MLOAD DUP2 LT PUSH2 0xC81 JUMPI PUSH2 0xC80 PUSH2 0x1903 JUMP JUMPDEST JUMPDEST PUSH1 0x20 MUL PUSH1 0x20 ADD ADD SWAP1 PUSH20 0xFFFFFFFFFFFFFFFFFFFFFFFFFFFFFFFFFFFFFFFF AND SWAP1 DUP2 PUSH20 0xFFFFFFFFFFFFFFFFFFFFFFFFFFFFFFFFFFFFFFFF AND DUP2 MSTORE POP POP DUP4 PUSH20 0xFFFFFFFFFFFFFFFFFFFFFFFFFFFFFFFFFFFFFFFF AND PUSH4 0xD06CA61F PUSH1 0x2 SLOAD DUP4 PUSH1 0x40 MLOAD DUP4 PUSH4 0xFFFFFFFF AND PUSH1 0xE0 SHL DUP2 MSTORE PUSH1 0x4 ADD PUSH2 0xCF8 SWAP3 SWAP2 SWAP1 PUSH2 0x15E8 JUMP JUMPDEST PUSH1 0x0 PUSH1 0x40 MLOAD DUP1 DUP4 SUB DUP2 DUP7 DUP1 EXTCODESIZE ISZERO DUP1 ISZERO PUSH2 0xD10 JUMPI PUSH1 0x0 DUP1 REVERT JUMPDEST POP GAS STATICCALL ISZERO DUP1 ISZERO PUSH2 0xD24 JUMPI RETURNDATASIZE PUSH1 0x0 DUP1 RETURNDATACOPY RETURNDATASIZE PUSH1 0x0 REVERT JUMPDEST POP POP POP POP PUSH1 0x40 MLOAD RETURNDATASIZE PUSH1 0x0 DUP3 RETURNDATACOPY RETURNDATASIZE PUSH1 0x1F NOT PUSH1 0x1F DUP3 ADD AND DUP3 ADD DUP1 PUSH1 0x40 MSTORE POP DUP2 ADD SWAP1 PUSH2 0xD4D SWAP2 SWAP1 PUSH2 0x12B7 JUMP JUMPDEST PUSH1 0x2 DUP2 MLOAD DUP2 LT PUSH2 0xD60 JUMPI PUSH2 0xD5F PUSH2 0x1903 JUMP JUMPDEST JUMPDEST PUSH1 0x20 MUL PUSH1 0x20 ADD ADD MLOAD SWAP2 POP POP SWAP3 SWAP2 POP POP JUMP JUMPDEST PUSH1 0x0 DUP1 DUP4 EQ ISZERO PUSH2 0xD84 JUMPI PUSH1 0x0 SWAP1 POP PUSH2 0xDE6 JUMP JUMPDEST PUSH1 0x0 DUP3 DUP5 PUSH2 0xD92 SWAP2 SWAP1 PUSH2 0x1745 JUMP JUMPDEST SWAP1 POP DUP3 DUP5 DUP3 PUSH2 0xDA1 SWAP2 SWAP1 PUSH2 0x1714 JUMP JUMPDEST EQ PUSH2 0xDE1 JUMPI PUSH1 0x40 MLOAD PUSH32 0x8C379A000000000000000000000000000000000000000000000000000000000 DUP2 MSTORE PUSH1 0x4 ADD PUSH2 0xDD8 SWAP1 PUSH2 0x15AD JUMP JUMPDEST PUSH1 0x40 MLOAD DUP1 SWAP2 SUB SWAP1 REVERT JUMPDEST DUP1 SWAP2 POP POP JUMPDEST SWAP3 SWAP2 POP POP JUMP JUMPDEST PUSH1 0x0 DUP1 PUSH1 0x2 PUSH8 0xFFFFFFFFFFFFFFFF DUP2 GT ISZERO PUSH2 0xE0A JUMPI PUSH2 0xE09 PUSH2 0x1932 JUMP JUMPDEST JUMPDEST PUSH1 0x40 MLOAD SWAP1 DUP1 DUP3 MSTORE DUP1 PUSH1 0x20 MUL PUSH1 0x20 ADD DUP3 ADD PUSH1 0x40 MSTORE DUP1 ISZERO PUSH2 0xE38 JUMPI DUP2 PUSH1 0x20 ADD PUSH1 0x20 DUP3 MUL DUP1 CALLDATASIZE DUP4 CALLDATACOPY DUP1 DUP3 ADD SWAP2 POP POP SWAP1 POP JUMPDEST POP SWAP1 POP DUP3 DUP2 PUSH1 0x0 DUP2 MLOAD DUP2 LT PUSH2 0xE50 JUMPI PUSH2 0xE4F PUSH2 0x1903 JUMP JUMPDEST JUMPDEST PUSH1 0x20 MUL PUSH1 0x20 ADD ADD SWAP1 PUSH20 0xFFFFFFFFFFFFFFFFFFFFFFFFFFFFFFFFFFFFFFFF AND SWAP1 DUP2 PUSH20 0xFFFFFFFFFFFFFFFFFFFFFFFFFFFFFFFFFFFFFFFF AND DUP2 MSTORE POP POP PUSH1 0x1 PUSH1 0x0 SWAP1 SLOAD SWAP1 PUSH2 0x100 EXP SWAP1 DIV PUSH20 0xFFFFFFFFFFFFFFFFFFFFFFFFFFFFFFFFFFFFFFFF AND DUP2 PUSH1 0x1 DUP2 MLOAD DUP2 LT PUSH2 0xEC1 JUMPI PUSH2 0xEC0 PUSH2 0x1903 JUMP JUMPDEST JUMPDEST PUSH1 0x20 MUL PUSH1 0x20 ADD ADD SWAP1 PUSH20 0xFFFFFFFFFFFFFFFFFFFFFFFFFFFFFFFFFFFFFFFF AND SWAP1 DUP2 PUSH20 0xFFFFFFFFFFFFFFFFFFFFFFFFFFFFFFFFFFFFFFFF AND DUP2 MSTORE POP POP DUP4 PUSH20 0xFFFFFFFFFFFFFFFFFFFFFFFFFFFFFFFFFFFFFFFF AND PUSH4 0xD06CA61F PUSH1 0x2 SLOAD DUP4 PUSH1 0x40 MLOAD DUP4 PUSH4 0xFFFFFFFF AND PUSH1 0xE0 SHL DUP2 MSTORE PUSH1 0x4 ADD PUSH2 0xF38 SWAP3 SWAP2 SWAP1 PUSH2 0x15E8 JUMP JUMPDEST PUSH1 0x0 PUSH1 0x40 MLOAD DUP1 DUP4 SUB DUP2 DUP7 DUP1 EXTCODESIZE ISZERO DUP1 ISZERO PUSH2 0xF50 JUMPI PUSH1 0x0 DUP1 REVERT JUMPDEST POP GAS STATICCALL ISZERO DUP1 ISZERO PUSH2 0xF64 JUMPI RETURNDATASIZE PUSH1 0x0 DUP1 RETURNDATACOPY RETURNDATASIZE PUSH1 0x0 REVERT JUMPDEST POP POP POP POP PUSH1 0x40 MLOAD RETURNDATASIZE PUSH1 0x0 DUP3 RETURNDATACOPY RETURNDATASIZE PUSH1 0x1F NOT PUSH1 0x1F DUP3 ADD AND DUP3 ADD DUP1 PUSH1 0x40 MSTORE POP DUP2 ADD SWAP1 PUSH2 0xF8D SWAP2 SWAP1 PUSH2 0x12B7 JUMP JUMPDEST PUSH1 0x1 DUP2 MLOAD DUP2 LT PUSH2 0xFA0 JUMPI PUSH2 0xF9F PUSH2 0x1903 JUMP JUMPDEST JUMPDEST PUSH1 0x20 MUL PUSH1 0x20 ADD ADD MLOAD SWAP2 POP POP SWAP3 SWAP2 POP POP JUMP JUMPDEST PUSH1 0x0 DUP1 DUP3 DUP5 PUSH2 0xFC0 SWAP2 SWAP1 PUSH2 0x16BE JUMP JUMPDEST SWAP1 POP DUP4 DUP2 LT ISZERO PUSH2 0x1005 JUMPI PUSH1 0x40 MLOAD PUSH32 0x8C379A000000000000000000000000000000000000000000000000000000000 DUP2 MSTORE PUSH1 0x4 ADD PUSH2 0xFFC SWAP1 PUSH2 0x158D JUMP JUMPDEST PUSH1 0x40 MLOAD DUP1 SWAP2 SUB SWAP1 REVERT JUMPDEST DUP1 SWAP2 POP POP SWAP3 SWAP2 POP POP JUMP JUMPDEST PUSH1 0x0 PUSH2 0x1051 DUP4 DUP4 PUSH1 0x40 MLOAD DUP1 PUSH1 0x40 ADD PUSH1 0x40 MSTORE DUP1 PUSH1 0x1A DUP2 MSTORE PUSH1 0x20 ADD PUSH32 0x536166654D6174683A206469766973696F6E206279207A65726F000000000000 DUP2 MSTORE POP PUSH2 0x1059 JUMP JUMPDEST SWAP1 POP SWAP3 SWAP2 POP POP JUMP JUMPDEST PUSH1 0x0 DUP1 DUP4 GT DUP3 SWAP1 PUSH2 0x10A0 JUMPI PUSH1 0x40 MLOAD PUSH32 0x8C379A000000000000000000000000000000000000000000000000000000000 DUP2 MSTORE PUSH1 0x4 ADD PUSH2 0x1097 SWAP2 SWAP1 PUSH2 0x156B JUMP JUMPDEST PUSH1 0x40 MLOAD DUP1 SWAP2 SUB SWAP1 REVERT JUMPDEST POP PUSH1 0x0 DUP4 DUP6 PUSH2 0x10AF SWAP2 SWAP1 PUSH2 0x1714 JUMP JUMPDEST SWAP1 POP DUP1 SWAP2 POP POP SWAP4 SWAP3 POP POP POP JUMP JUMPDEST PUSH1 0x0 PUSH2 0x10CF PUSH2 0x10CA DUP5 PUSH2 0x163D JUMP JUMPDEST PUSH2 0x1618 JUMP JUMPDEST SWAP1 POP DUP1 DUP4 DUP3 MSTORE PUSH1 0x20 DUP3 ADD SWAP1 POP DUP3 DUP6 PUSH1 0x20 DUP7 MUL DUP3 ADD GT ISZERO PUSH2 0x10F2 JUMPI PUSH2 0x10F1 PUSH2 0x196B JUMP JUMPDEST JUMPDEST PUSH1 0x0 JUMPDEST DUP6 DUP2 LT ISZERO PUSH2 0x1122 JUMPI DUP2 PUSH2 0x1108 DUP9 DUP3 PUSH2 0x12A2 JUMP JUMPDEST DUP5 MSTORE PUSH1 0x20 DUP5 ADD SWAP4 POP PUSH1 0x20 DUP4 ADD SWAP3 POP POP PUSH1 0x1 DUP2 ADD SWAP1 POP PUSH2 0x10F5 JUMP JUMPDEST POP POP POP SWAP4 SWAP3 POP POP POP JUMP JUMPDEST PUSH1 0x0 DUP2 CALLDATALOAD SWAP1 POP PUSH2 0x113B DUP2 PUSH2 0x1A03 JUMP JUMPDEST SWAP3 SWAP2 POP POP JUMP JUMPDEST PUSH1 0x0 DUP3 PUSH1 0x1F DUP4 ADD SLT PUSH2 0x1156 JUMPI PUSH2 0x1155 PUSH2 0x1961 JUMP JUMPDEST JUMPDEST DUP2 MLOAD PUSH2 0x1166 DUP5 DUP3 PUSH1 0x20 DUP7 ADD PUSH2 0x10BC JUMP JUMPDEST SWAP2 POP POP SWAP3 SWAP2 POP POP JUMP JUMPDEST PUSH1 0x0 DUP2 CALLDATALOAD SWAP1 POP PUSH2 0x117E DUP2 PUSH2 0x1A1A JUMP JUMPDEST SWAP3 SWAP2 POP POP JUMP JUMPDEST PUSH1 0x0 DUP2 MLOAD SWAP1 POP PUSH2 0x1193 DUP2 PUSH2 0x1A31 JUMP JUMPDEST SWAP3 SWAP2 POP POP JUMP JUMPDEST PUSH1 0x0 DUP2 MLOAD SWAP1 POP PUSH2 0x11A8 DUP2 PUSH2 0x1A48 JUMP JUMPDEST SWAP3 SWAP2 POP POP JUMP JUMPDEST PUSH1 0x0 DUP2 CALLDATALOAD SWAP1 POP PUSH2 0x11BD DUP2 PUSH2 0x1A5F JUMP JUMPDEST SWAP3 SWAP2 POP POP JUMP JUMPDEST PUSH1 0x0 DUP2 CALLDATALOAD SWAP1 POP PUSH2 0x11D2 DUP2 PUSH2 0x1A76 JUMP JUMPDEST SWAP3 SWAP2 POP POP JUMP JUMPDEST PUSH1 0x0 DUP2 CALLDATALOAD SWAP1 POP PUSH2 0x11E7 DUP2 PUSH2 0x1A8D JUMP JUMPDEST SWAP3 SWAP2 POP POP JUMP JUMPDEST PUSH1 0x0 PUSH1 0xC0 DUP3 DUP5 SUB SLT ISZERO PUSH2 0x1203 JUMPI PUSH2 0x1202 PUSH2 0x1966 JUMP JUMPDEST JUMPDEST PUSH2 0x120D PUSH1 0xC0 PUSH2 0x1618 JUMP JUMPDEST SWAP1 POP PUSH1 0x0 PUSH2 0x121D DUP5 DUP3 DUP6 ADD PUSH2 0x1184 JUMP JUMPDEST PUSH1 0x0 DUP4 ADD MSTORE POP PUSH1 0x20 PUSH2 0x1231 DUP5 DUP3 DUP6 ADD PUSH2 0x12A2 JUMP JUMPDEST PUSH1 0x20 DUP4 ADD MSTORE POP PUSH1 0x40 PUSH2 0x1245 DUP5 DUP3 DUP6 ADD PUSH2 0x12A2 JUMP JUMPDEST PUSH1 0x40 DUP4 ADD MSTORE POP PUSH1 0x60 PUSH2 0x1259 DUP5 DUP3 DUP6 ADD PUSH2 0x12A2 JUMP JUMPDEST PUSH1 0x60 DUP4 ADD MSTORE POP PUSH1 0x80 PUSH2 0x126D DUP5 DUP3 DUP6 ADD PUSH2 0x1199 JUMP JUMPDEST PUSH1 0x80 DUP4 ADD MSTORE POP PUSH1 0xA0 PUSH2 0x1281 DUP5 DUP3 DUP6 ADD PUSH2 0x1184 JUMP JUMPDEST PUSH1 0xA0 DUP4 ADD MSTORE POP SWAP3 SWAP2 POP POP JUMP JUMPDEST PUSH1 0x0 DUP2 CALLDATALOAD SWAP1 POP PUSH2 0x129C DUP2 PUSH2 0x1AA4 JUMP JUMPDEST SWAP3 SWAP2 POP POP JUMP JUMPDEST PUSH1 0x0 DUP2 MLOAD SWAP1 POP PUSH2 0x12B1 DUP2 PUSH2 0x1AA4 JUMP JUMPDEST SWAP3 SWAP2 POP POP JUMP JUMPDEST PUSH1 0x0 PUSH1 0x20 DUP3 DUP5 SUB SLT ISZERO PUSH2 0x12CD JUMPI PUSH2 0x12CC PUSH2 0x1975 JUMP JUMPDEST JUMPDEST PUSH1 0x0 DUP3 ADD MLOAD PUSH8 0xFFFFFFFFFFFFFFFF DUP2 GT ISZERO PUSH2 0x12EB JUMPI PUSH2 0x12EA PUSH2 0x1970 JUMP JUMPDEST JUMPDEST PUSH2 0x12F7 DUP5 DUP3 DUP6 ADD PUSH2 0x1141 JUMP JUMPDEST SWAP2 POP POP SWAP3 SWAP2 POP POP JUMP JUMPDEST PUSH1 0x0 PUSH1 0x20 DUP3 DUP5 SUB SLT ISZERO PUSH2 0x1316 JUMPI PUSH2 0x1315 PUSH2 0x1975 JUMP JUMPDEST JUMPDEST PUSH1 0x0 PUSH2 0x1324 DUP5 DUP3 DUP6 ADD PUSH2 0x1184 JUMP JUMPDEST SWAP2 POP POP SWAP3 SWAP2 POP POP JUMP JUMPDEST PUSH1 0x0 DUP1 PUSH1 0x40 DUP4 DUP6 SUB SLT ISZERO PUSH2 0x1344 JUMPI PUSH2 0x1343 PUSH2 0x1975 JUMP JUMPDEST JUMPDEST PUSH1 0x0 PUSH2 0x1352 DUP6 DUP3 DUP7 ADD PUSH2 0x11AE JUMP JUMPDEST SWAP3 POP POP PUSH1 0x20 PUSH2 0x1363 DUP6 DUP3 DUP7 ADD PUSH2 0x11D8 JUMP JUMPDEST SWAP2 POP POP SWAP3 POP SWAP3 SWAP1 POP JUMP JUMPDEST PUSH1 0x0 PUSH1 0xC0 DUP3 DUP5 SUB SLT ISZERO PUSH2 0x1383 JUMPI PUSH2 0x1382 PUSH2 0x1975 JUMP JUMPDEST JUMPDEST PUSH1 0x0 PUSH2 0x1391 DUP5 DUP3 DUP6 ADD PUSH2 0x11ED JUMP JUMPDEST SWAP2 POP POP SWAP3 SWAP2 POP POP JUMP JUMPDEST PUSH1 0x0 PUSH1 0x20 DUP3 DUP5 SUB SLT ISZERO PUSH2 0x13B0 JUMPI PUSH2 0x13AF PUSH2 0x1975 JUMP JUMPDEST JUMPDEST PUSH1 0x0 PUSH2 0x13BE DUP5 DUP3 DUP6 ADD PUSH2 0x12A2 JUMP JUMPDEST SWAP2 POP POP SWAP3 SWAP2 POP POP JUMP JUMPDEST PUSH1 0x0 DUP1 PUSH1 0x0 DUP1 PUSH1 0x80 DUP6 DUP8 SUB SLT ISZERO PUSH2 0x13E1 JUMPI PUSH2 0x13E0 PUSH2 0x1975 JUMP JUMPDEST JUMPDEST PUSH1 0x0 PUSH2 0x13EF DUP8 DUP3 DUP9 ADD PUSH2 0x128D JUMP JUMPDEST SWAP5 POP POP PUSH1 0x20 PUSH2 0x1400 DUP8 DUP3 DUP9 ADD PUSH2 0x112C JUMP JUMPDEST SWAP4 POP POP PUSH1 0x40 PUSH2 0x1411 DUP8 DUP3 DUP9 ADD PUSH2 0x116F JUMP JUMPDEST SWAP3 POP POP PUSH1 0x60 PUSH2 0x1422 DUP8 DUP3 DUP9 ADD PUSH2 0x11C3 JUMP JUMPDEST SWAP2 POP POP SWAP3 SWAP6 SWAP2 SWAP5 POP SWAP3 POP JUMP JUMPDEST PUSH1 0x0 PUSH2 0x143A DUP4 DUP4 PUSH2 0x1446 JUMP JUMPDEST PUSH1 0x20 DUP4 ADD SWAP1 POP SWAP3 SWAP2 POP POP JUMP JUMPDEST PUSH2 0x144F DUP2 PUSH2 0x179F JUMP JUMPDEST DUP3 MSTORE POP POP JUMP JUMPDEST PUSH2 0x145E DUP2 PUSH2 0x179F JUMP JUMPDEST DUP3 MSTORE POP POP JUMP JUMPDEST PUSH1 0x0 PUSH2 0x146F DUP3 PUSH2 0x1679 JUMP JUMPDEST PUSH2 0x1479 DUP2 DUP6 PUSH2 0x169C JUMP JUMPDEST SWAP4 POP PUSH2 0x1484 DUP4 PUSH2 0x1669 JUMP JUMPDEST DUP1 PUSH1 0x0 JUMPDEST DUP4 DUP2 LT ISZERO PUSH2 0x14B5 JUMPI DUP2 MLOAD PUSH2 0x149C DUP9 DUP3 PUSH2 0x142E JUMP JUMPDEST SWAP8 POP PUSH2 0x14A7 DUP4 PUSH2 0x168F JUMP JUMPDEST SWAP3 POP POP PUSH1 0x1 DUP2 ADD SWAP1 POP PUSH2 0x1488 JUMP JUMPDEST POP DUP6 SWAP4 POP POP POP POP SWAP3 SWAP2 POP POP JUMP JUMPDEST PUSH1 0x0 PUSH2 0x14CD DUP3 PUSH2 0x1684 JUMP JUMPDEST PUSH2 0x14D7 DUP2 DUP6 PUSH2 0x16AD JUMP JUMPDEST SWAP4 POP PUSH2 0x14E7 DUP2 DUP6 PUSH1 0x20 DUP7 ADD PUSH2 0x1841 JUMP JUMPDEST PUSH2 0x14F0 DUP2 PUSH2 0x197A JUMP JUMPDEST DUP5 ADD SWAP2 POP POP SWAP3 SWAP2 POP POP JUMP JUMPDEST PUSH1 0x0 PUSH2 0x1508 PUSH1 0x1B DUP4 PUSH2 0x16AD JUMP JUMPDEST SWAP2 POP PUSH2 0x1513 DUP3 PUSH2 0x198B JUMP JUMPDEST PUSH1 0x20 DUP3 ADD SWAP1 POP SWAP2 SWAP1 POP JUMP JUMPDEST PUSH1 0x0 PUSH2 0x152B PUSH1 0x21 DUP4 PUSH2 0x16AD JUMP JUMPDEST SWAP2 POP PUSH2 0x1536 DUP3 PUSH2 0x19B4 JUMP JUMPDEST PUSH1 0x40 DUP3 ADD SWAP1 POP SWAP2 SWAP1 POP JUMP JUMPDEST PUSH2 0x154A DUP2 PUSH2 0x1837 JUMP JUMPDEST DUP3 MSTORE POP POP JUMP JUMPDEST PUSH1 0x0 PUSH1 0x20 DUP3 ADD SWAP1 POP PUSH2 0x1565 PUSH1 0x0 DUP4 ADD DUP5 PUSH2 0x1455 JUMP JUMPDEST SWAP3 SWAP2 POP POP JUMP JUMPDEST PUSH1 0x0 PUSH1 0x20 DUP3 ADD SWAP1 POP DUP2 DUP2 SUB PUSH1 0x0 DUP4 ADD MSTORE PUSH2 0x1585 DUP2 DUP5 PUSH2 0x14C2 JUMP JUMPDEST SWAP1 POP SWAP3 SWAP2 POP POP JUMP JUMPDEST PUSH1 0x0 PUSH1 0x20 DUP3 ADD SWAP1 POP DUP2 DUP2 SUB PUSH1 0x0 DUP4 ADD MSTORE PUSH2 0x15A6 DUP2 PUSH2 0x14FB JUMP JUMPDEST SWAP1 POP SWAP2 SWAP1 POP JUMP JUMPDEST PUSH1 0x0 PUSH1 0x20 DUP3 ADD SWAP1 POP DUP2 DUP2 SUB PUSH1 0x0 DUP4 ADD MSTORE PUSH2 0x15C6 DUP2 PUSH2 0x151E JUMP JUMPDEST SWAP1 POP SWAP2 SWAP1 POP JUMP JUMPDEST PUSH1 0x0 PUSH1 0x20 DUP3 ADD SWAP1 POP PUSH2 0x15E2 PUSH1 0x0 DUP4 ADD DUP5 PUSH2 0x1541 JUMP JUMPDEST SWAP3 SWAP2 POP POP JUMP JUMPDEST PUSH1 0x0 PUSH1 0x40 DUP3 ADD SWAP1 POP PUSH2 0x15FD PUSH1 0x0 DUP4 ADD DUP6 PUSH2 0x1541 JUMP JUMPDEST DUP2 DUP2 SUB PUSH1 0x20 DUP4 ADD MSTORE PUSH2 0x160F DUP2 DUP5 PUSH2 0x1464 JUMP JUMPDEST SWAP1 POP SWAP4 SWAP3 POP POP POP JUMP JUMPDEST PUSH1 0x0 PUSH2 0x1622 PUSH2 0x1633 JUMP JUMPDEST SWAP1 POP PUSH2 0x162E DUP3 DUP3 PUSH2 0x1874 JUMP JUMPDEST SWAP2 SWAP1 POP JUMP JUMPDEST PUSH1 0x0 PUSH1 0x40 MLOAD SWAP1 POP SWAP1 JUMP JUMPDEST PUSH1 0x0 PUSH8 0xFFFFFFFFFFFFFFFF DUP3 GT ISZERO PUSH2 0x1658 JUMPI PUSH2 0x1657 PUSH2 0x1932 JUMP JUMPDEST JUMPDEST PUSH1 0x20 DUP3 MUL SWAP1 POP PUSH1 0x20 DUP2 ADD SWAP1 POP SWAP2 SWAP1 POP JUMP JUMPDEST PUSH1 0x0 DUP2 SWAP1 POP PUSH1 0x20 DUP3 ADD SWAP1 POP SWAP2 SWAP1 POP JUMP JUMPDEST PUSH1 0x0 DUP2 MLOAD SWAP1 POP SWAP2 SWAP1 POP JUMP JUMPDEST PUSH1 0x0 DUP2 MLOAD SWAP1 POP SWAP2 SWAP1 POP JUMP JUMPDEST PUSH1 0x0 PUSH1 0x20 DUP3 ADD SWAP1 POP SWAP2 SWAP1 POP JUMP JUMPDEST PUSH1 0x0 DUP3 DUP3 MSTORE PUSH1 0x20 DUP3 ADD SWAP1 POP SWAP3 SWAP2 POP POP JUMP JUMPDEST PUSH1 0x0 DUP3 DUP3 MSTORE PUSH1 0x20 DUP3 ADD SWAP1 POP SWAP3 SWAP2 POP POP JUMP JUMPDEST PUSH1 0x0 PUSH2 0x16C9 DUP3 PUSH2 0x1837 JUMP JUMPDEST SWAP2 POP PUSH2 0x16D4 DUP4 PUSH2 0x1837 JUMP JUMPDEST SWAP3 POP DUP3 PUSH32 0xFFFFFFFFFFFFFFFFFFFFFFFFFFFFFFFFFFFFFFFFFFFFFFFFFFFFFFFFFFFFFFFF SUB DUP3 GT ISZERO PUSH2 0x1709 JUMPI PUSH2 0x1708 PUSH2 0x18A5 JUMP JUMPDEST JUMPDEST DUP3 DUP3 ADD SWAP1 POP SWAP3 SWAP2 POP POP JUMP JUMPDEST PUSH1 0x0 PUSH2 0x171F DUP3 PUSH2 0x1837 JUMP JUMPDEST SWAP2 POP PUSH2 0x172A DUP4 PUSH2 0x1837 JUMP JUMPDEST SWAP3 POP DUP3 PUSH2 0x173A JUMPI PUSH2 0x1739 PUSH2 0x18D4 JUMP JUMPDEST JUMPDEST DUP3 DUP3 DIV SWAP1 POP SWAP3 SWAP2 POP POP JUMP JUMPDEST PUSH1 0x0 PUSH2 0x1750 DUP3 PUSH2 0x1837 JUMP JUMPDEST SWAP2 POP PUSH2 0x175B DUP4 PUSH2 0x1837 JUMP JUMPDEST SWAP3 POP DUP2 PUSH32 0xFFFFFFFFFFFFFFFFFFFFFFFFFFFFFFFFFFFFFFFFFFFFFFFFFFFFFFFFFFFFFFFF DIV DUP4 GT DUP3 ISZERO ISZERO AND ISZERO PUSH2 0x1794 JUMPI PUSH2 0x1793 PUSH2 0x18A5 JUMP JUMPDEST JUMPDEST DUP3 DUP3 MUL SWAP1 POP SWAP3 SWAP2 POP POP JUMP JUMPDEST PUSH1 0x0 PUSH2 0x17AA DUP3 PUSH2 0x1817 JUMP JUMPDEST SWAP1 POP SWAP2 SWAP1 POP JUMP JUMPDEST PUSH1 0x0 DUP2 ISZERO ISZERO SWAP1 POP SWAP2 SWAP1 POP JUMP JUMPDEST PUSH1 0x0 PUSH2 0x17C8 DUP3 PUSH2 0x179F JUMP JUMPDEST SWAP1 POP SWAP2 SWAP1 POP JUMP JUMPDEST PUSH1 0x0 PUSH2 0x17DA DUP3 PUSH2 0x179F JUMP JUMPDEST SWAP1 POP SWAP2 SWAP1 POP JUMP JUMPDEST PUSH1 0x0 PUSH2 0x17EC DUP3 PUSH2 0x179F JUMP JUMPDEST SWAP1 POP SWAP2 SWAP1 POP JUMP JUMPDEST PUSH1 0x0 PUSH2 0x17FE DUP3 PUSH2 0x179F JUMP JUMPDEST SWAP1 POP SWAP2 SWAP1 POP JUMP JUMPDEST PUSH1 0x0 PUSH2 0x1810 DUP3 PUSH2 0x179F JUMP JUMPDEST SWAP1 POP SWAP2 SWAP1 POP JUMP JUMPDEST PUSH1 0x0 PUSH20 0xFFFFFFFFFFFFFFFFFFFFFFFFFFFFFFFFFFFFFFFF DUP3 AND SWAP1 POP SWAP2 SWAP1 POP JUMP JUMPDEST PUSH1 0x0 DUP2 SWAP1 POP SWAP2 SWAP1 POP JUMP JUMPDEST PUSH1 0x0 JUMPDEST DUP4 DUP2 LT ISZERO PUSH2 0x185F JUMPI DUP1 DUP3 ADD MLOAD DUP2 DUP5 ADD MSTORE PUSH1 0x20 DUP2 ADD SWAP1 POP PUSH2 0x1844 JUMP JUMPDEST DUP4 DUP2 GT ISZERO PUSH2 0x186E JUMPI PUSH1 0x0 DUP5 DUP5 ADD MSTORE JUMPDEST POP POP POP POP JUMP JUMPDEST PUSH2 0x187D DUP3 PUSH2 0x197A JUMP JUMPDEST DUP2 ADD DUP2 DUP2 LT PUSH8 0xFFFFFFFFFFFFFFFF DUP3 GT OR ISZERO PUSH2 0x189C JUMPI PUSH2 0x189B PUSH2 0x1932 JUMP JUMPDEST JUMPDEST DUP1 PUSH1 0x40 MSTORE POP POP POP JUMP JUMPDEST PUSH32 0x4E487B7100000000000000000000000000000000000000000000000000000000 PUSH1 0x0 MSTORE PUSH1 0x11 PUSH1 0x4 MSTORE PUSH1 0x24 PUSH1 0x0 REVERT JUMPDEST PUSH32 0x4E487B7100000000000000000000000000000000000000000000000000000000 PUSH1 0x0 MSTORE PUSH1 0x12 PUSH1 0x4 MSTORE PUSH1 0x24 PUSH1 0x0 REVERT JUMPDEST PUSH32 0x4E487B7100000000000000000000000000000000000000000000000000000000 PUSH1 0x0 MSTORE PUSH1 0x32 PUSH1 0x4 MSTORE PUSH1 0x24 PUSH1 0x0 REVERT JUMPDEST PUSH32 0x4E487B7100000000000000000000000000000000000000000000000000000000 PUSH1 0x0 MSTORE PUSH1 0x41 PUSH1 0x4 MSTORE PUSH1 0x24 PUSH1 0x0 REVERT JUMPDEST PUSH1 0x0 DUP1 REVERT JUMPDEST PUSH1 0x0 DUP1 REVERT JUMPDEST PUSH1 0x0 DUP1 REVERT JUMPDEST PUSH1 0x0 DUP1 REVERT JUMPDEST PUSH1 0x0 DUP1 REVERT JUMPDEST PUSH1 0x0 PUSH1 0x1F NOT PUSH1 0x1F DUP4 ADD AND SWAP1 POP SWAP2 SWAP1 POP JUMP JUMPDEST PUSH32 0x536166654D6174683A206164646974696F6E206F766572666C6F770000000000 PUSH1 0x0 DUP3 ADD MSTORE POP JUMP JUMPDEST PUSH32 0x536166654D6174683A206D756C7469706C69636174696F6E206F766572666C6F PUSH1 0x0 DUP3 ADD MSTORE PUSH32 0x7700000000000000000000000000000000000000000000000000000000000000 PUSH1 0x20 DUP3 ADD MSTORE POP JUMP JUMPDEST PUSH2 0x1A0C DUP2 PUSH2 0x179F JUMP JUMPDEST DUP2 EQ PUSH2 0x1A17 JUMPI PUSH1 0x0 DUP1 REVERT JUMPDEST POP JUMP JUMPDEST PUSH2 0x1A23 DUP2 PUSH2 0x17B1 JUMP JUMPDEST DUP2 EQ PUSH2 0x1A2E JUMPI PUSH1 0x0 DUP1 REVERT JUMPDEST POP JUMP JUMPDEST PUSH2 0x1A3A DUP2 PUSH2 0x17BD JUMP JUMPDEST DUP2 EQ PUSH2 0x1A45 JUMPI PUSH1 0x0 DUP1 REVERT JUMPDEST POP JUMP JUMPDEST PUSH2 0x1A51 DUP2 PUSH2 0x17CF JUMP JUMPDEST DUP2 EQ PUSH2 0x1A5C JUMPI PUSH1 0x0 DUP1 REVERT JUMPDEST POP JUMP JUMPDEST PUSH2 0x1A68 DUP2 PUSH2 0x17E1 JUMP JUMPDEST DUP2 EQ PUSH2 0x1A73 JUMPI PUSH1 0x0 DUP1 REVERT JUMPDEST POP JUMP JUMPDEST PUSH2 0x1A7F DUP2 PUSH2 0x17F3 JUMP JUMPDEST DUP2 EQ PUSH2 0x1A8A JUMPI PUSH1 0x0 DUP1 REVERT JUMPDEST POP JUMP JUMPDEST PUSH2 0x1A96 DUP2 PUSH2 0x1805 JUMP JUMPDEST DUP2 EQ PUSH2 0x1AA1 JUMPI PUSH1 0x0 DUP1 REVERT JUMPDEST POP JUMP JUMPDEST PUSH2 0x1AAD DUP2 PUSH2 0x1837 JUMP JUMPDEST DUP2 EQ PUSH2 0x1AB8 JUMPI PUSH1 0x0 DUP1 REVERT JUMPDEST POP JUMP INVALID LOG2 PUSH5 0x6970667358 0x22 SLT KECCAK256 SIGNEXTEND SSTORE 0x1F PUSH10 0x12995C8757636479175 0x23 0x5D PUSH13 0x41D8CAD8264F33DCC6076992AA SLT 0xD7 PUSH5 0x736F6C6343 STOP ADDMOD SMOD STOP CALLER "
				},
				"gasEstimates": {
					"creation": {
						"codeDepositCost": "1379400",
						"executionCost": "94184",
						"totalCost": "1473584"
					},
					"external": {
						"BUSD()": "2536",
						"CalcApy(uint256,address,bool,address)": "infinite",
						"CalcLpPrice(address,address)": "infinite",
						"WBNB()": "2555"
					},
					"internal": {
						"Tokenprice(contract Router,address)": "infinite",
						"WBNBPrice(contract Router,address)": "infinite"
					}
				},
				"methodIdentifiers": {
					"BUSD()": "484f4ea9",
					"CalcApy(uint256,address,bool,address)": "1eff56b9",
					"CalcLpPrice(address,address)": "344e49d9",
					"WBNB()": "8dd95002"
				}
			},
			"storageLayout": {
				"storage": [
					{
						"astId": 631,
						"contract": "contracts/Utils.sol:Utils",
						"label": "WBNB",
						"offset": 0,
						"slot": "0",
						"type": "t_address"
					},
					{
						"astId": 634,
						"contract": "contracts/Utils.sol:Utils",
						"label": "BUSD",
						"offset": 0,
						"slot": "1",
						"type": "t_address"
					},
					{
						"astId": 637,
						"contract": "contracts/Utils.sol:Utils",
						"label": "amount",
						"offset": 0,
						"slot": "2",
						"type": "t_uint256"
					},
					{
						"astId": 640,
						"contract": "contracts/Utils.sol:Utils",
						"label": "BLOCKS_PER_YEAR",
						"offset": 0,
						"slot": "3",
						"type": "t_uint256"
					}
				],
				"types": {
					"t_address": {
						"encoding": "inplace",
						"label": "address",
						"numberOfBytes": "20"
					},
					"t_uint256": {
						"encoding": "inplace",
						"label": "uint256",
						"numberOfBytes": "32"
					}
				}
			},
			"userdoc": {
				"kind": "user",
				"methods": {},
				"version": 1
			}
		}
	}
}