{
	"contracts/MetaMasterChef.sol": {
		"MetaMasterChef": {
			"abi": [
				{
					"inputs": [
						{
							"internalType": "contract IERC20",
							"name": "_DRG",
							"type": "address"
						},
						{
							"internalType": "address",
							"name": "_devaddr",
							"type": "address"
						},
						{
							"internalType": "uint256",
							"name": "_DRGPerBlock",
							"type": "uint256"
						},
						{
							"internalType": "uint256",
							"name": "_startBlock",
							"type": "uint256"
						},
						{
							"internalType": "contract INFTMasterChef",
							"name": "_NFTMasterChef",
							"type": "address"
						}
					],
					"stateMutability": "nonpayable",
					"type": "constructor"
				},
				{
					"anonymous": false,
					"inputs": [
						{
							"indexed": true,
							"internalType": "address",
							"name": "user",
							"type": "address"
						},
						{
							"indexed": true,
							"internalType": "uint256",
							"name": "pid",
							"type": "uint256"
						},
						{
							"indexed": false,
							"internalType": "uint256",
							"name": "amount",
							"type": "uint256"
						}
					],
					"name": "Deposit",
					"type": "event"
				},
				{
					"anonymous": false,
					"inputs": [
						{
							"indexed": true,
							"internalType": "address",
							"name": "user",
							"type": "address"
						},
						{
							"indexed": true,
							"internalType": "uint256",
							"name": "pid",
							"type": "uint256"
						},
						{
							"indexed": false,
							"internalType": "uint256",
							"name": "amount",
							"type": "uint256"
						}
					],
					"name": "EmergencyWithdraw",
					"type": "event"
				},
				{
					"anonymous": false,
					"inputs": [
						{
							"indexed": true,
							"internalType": "address",
							"name": "previousOwner",
							"type": "address"
						},
						{
							"indexed": true,
							"internalType": "address",
							"name": "newOwner",
							"type": "address"
						}
					],
					"name": "OwnershipTransferred",
					"type": "event"
				},
				{
					"anonymous": false,
					"inputs": [
						{
							"indexed": true,
							"internalType": "address",
							"name": "user",
							"type": "address"
						},
						{
							"indexed": true,
							"internalType": "uint256",
							"name": "pid",
							"type": "uint256"
						},
						{
							"indexed": false,
							"internalType": "uint256",
							"name": "amount",
							"type": "uint256"
						}
					],
					"name": "Withdraw",
					"type": "event"
				},
				{
					"inputs": [],
					"name": "BONUS_MULTIPLIER",
					"outputs": [
						{
							"internalType": "uint256",
							"name": "",
							"type": "uint256"
						}
					],
					"stateMutability": "view",
					"type": "function"
				},
				{
					"inputs": [],
					"name": "DRG",
					"outputs": [
						{
							"internalType": "contract IERC20",
							"name": "",
							"type": "address"
						}
					],
					"stateMutability": "view",
					"type": "function"
				},
				{
					"inputs": [],
					"name": "DRGPerBlock",
					"outputs": [
						{
							"internalType": "uint256",
							"name": "",
							"type": "uint256"
						}
					],
					"stateMutability": "view",
					"type": "function"
				},
				{
					"inputs": [],
					"name": "NFTMasterChef",
					"outputs": [
						{
							"internalType": "contract INFTMasterChef",
							"name": "",
							"type": "address"
						}
					],
					"stateMutability": "view",
					"type": "function"
				},
				{
					"inputs": [
						{
							"internalType": "uint256",
							"name": "_allocPoint",
							"type": "uint256"
						},
						{
							"internalType": "contract IERC20",
							"name": "_lpToken",
							"type": "address"
						},
						{
							"internalType": "bool",
							"name": "_withUpdate",
							"type": "bool"
						},
						{
							"internalType": "contract IMasterChef",
							"name": "_poolMasterChef",
							"type": "address"
						},
						{
							"internalType": "contract IERC20",
							"name": "_rewardToken",
							"type": "address"
						},
						{
							"internalType": "uint256",
							"name": "_fee",
							"type": "uint256"
						},
						{
							"internalType": "uint256",
							"name": "_method",
							"type": "uint256"
						}
					],
					"name": "add",
					"outputs": [],
					"stateMutability": "nonpayable",
					"type": "function"
				},
				{
					"inputs": [
						{
							"internalType": "uint256",
							"name": "_pid",
							"type": "uint256"
						},
						{
							"internalType": "uint256",
							"name": "_BSWPid",
							"type": "uint256"
						},
						{
							"internalType": "uint256",
							"name": "_amount",
							"type": "uint256"
						}
					],
					"name": "deposit",
					"outputs": [],
					"stateMutability": "nonpayable",
					"type": "function"
				},
				{
					"inputs": [],
					"name": "devaddr",
					"outputs": [
						{
							"internalType": "address",
							"name": "",
							"type": "address"
						}
					],
					"stateMutability": "view",
					"type": "function"
				},
				{
					"inputs": [
						{
							"internalType": "uint256",
							"name": "_pid",
							"type": "uint256"
						}
					],
					"name": "emergencyWithdraw",
					"outputs": [],
					"stateMutability": "nonpayable",
					"type": "function"
				},
				{
					"inputs": [
						{
							"internalType": "uint256",
							"name": "_pid",
							"type": "uint256"
						}
					],
					"name": "emergencyWithdrawFromBSW",
					"outputs": [],
					"stateMutability": "nonpayable",
					"type": "function"
				},
				{
					"inputs": [
						{
							"internalType": "uint256",
							"name": "_pid",
							"type": "uint256"
						}
					],
					"name": "enablePool",
					"outputs": [],
					"stateMutability": "nonpayable",
					"type": "function"
				},
				{
					"inputs": [
						{
							"internalType": "uint256",
							"name": "_from",
							"type": "uint256"
						},
						{
							"internalType": "uint256",
							"name": "_to",
							"type": "uint256"
						}
					],
					"name": "getMultiplier",
					"outputs": [
						{
							"internalType": "uint256",
							"name": "",
							"type": "uint256"
						}
					],
					"stateMutability": "view",
					"type": "function"
				},
				{
					"inputs": [],
					"name": "massUpdatePools",
					"outputs": [],
					"stateMutability": "nonpayable",
					"type": "function"
				},
				{
					"inputs": [
						{
							"internalType": "uint256",
							"name": "_pid",
							"type": "uint256"
						}
					],
					"name": "migrate",
					"outputs": [],
					"stateMutability": "nonpayable",
					"type": "function"
				},
				{
					"inputs": [],
					"name": "migrator",
					"outputs": [
						{
							"internalType": "contract IMigratorChef",
							"name": "",
							"type": "address"
						}
					],
					"stateMutability": "view",
					"type": "function"
				},
				{
					"inputs": [],
					"name": "owner",
					"outputs": [
						{
							"internalType": "address",
							"name": "",
							"type": "address"
						}
					],
					"stateMutability": "view",
					"type": "function"
				},
				{
					"inputs": [
						{
							"internalType": "uint256",
							"name": "_pid",
							"type": "uint256"
						},
						{
							"internalType": "address",
							"name": "_user",
							"type": "address"
						}
					],
					"name": "pendingDRG",
					"outputs": [
						{
							"internalType": "uint256",
							"name": "",
							"type": "uint256"
						}
					],
					"stateMutability": "view",
					"type": "function"
				},
				{
					"inputs": [
						{
							"internalType": "uint256",
							"name": "",
							"type": "uint256"
						}
					],
					"name": "poolBalance",
					"outputs": [
						{
							"internalType": "uint256",
							"name": "",
							"type": "uint256"
						}
					],
					"stateMutability": "view",
					"type": "function"
				},
				{
					"inputs": [
						{
							"internalType": "uint256",
							"name": "",
							"type": "uint256"
						}
					],
					"name": "poolInfo",
					"outputs": [
						{
							"internalType": "contract IERC20",
							"name": "lpToken",
							"type": "address"
						},
						{
							"internalType": "uint256",
							"name": "allocPoint",
							"type": "uint256"
						},
						{
							"internalType": "uint256",
							"name": "lastRewardBlock",
							"type": "uint256"
						},
						{
							"internalType": "uint256",
							"name": "accDRGPerShare",
							"type": "uint256"
						},
						{
							"internalType": "contract IMasterChef",
							"name": "poolMasterChef",
							"type": "address"
						},
						{
							"internalType": "contract IERC20",
							"name": "rewardToken",
							"type": "address"
						},
						{
							"internalType": "uint256",
							"name": "fee",
							"type": "uint256"
						},
						{
							"internalType": "uint256",
							"name": "method",
							"type": "uint256"
						}
					],
					"stateMutability": "view",
					"type": "function"
				},
				{
					"inputs": [],
					"name": "poolLength",
					"outputs": [
						{
							"internalType": "uint256",
							"name": "",
							"type": "uint256"
						}
					],
					"stateMutability": "view",
					"type": "function"
				},
				{
					"inputs": [],
					"name": "renounceOwnership",
					"outputs": [],
					"stateMutability": "nonpayable",
					"type": "function"
				},
				{
					"inputs": [
						{
							"internalType": "uint256",
							"name": "_pid",
							"type": "uint256"
						},
						{
							"internalType": "uint256",
							"name": "_allocPoint",
							"type": "uint256"
						},
						{
							"internalType": "bool",
							"name": "_withUpdate",
							"type": "bool"
						}
					],
					"name": "set",
					"outputs": [],
					"stateMutability": "nonpayable",
					"type": "function"
				},
				{
					"inputs": [
						{
							"internalType": "address",
							"name": "_devaddr",
							"type": "address"
						}
					],
					"name": "setDevAddress",
					"outputs": [],
					"stateMutability": "nonpayable",
					"type": "function"
				},
				{
					"inputs": [
						{
							"internalType": "contract IMigratorChef",
							"name": "_migrator",
							"type": "address"
						}
					],
					"name": "setMigrator",
					"outputs": [],
					"stateMutability": "nonpayable",
					"type": "function"
				},
				{
					"inputs": [],
					"name": "startBlock",
					"outputs": [
						{
							"internalType": "uint256",
							"name": "",
							"type": "uint256"
						}
					],
					"stateMutability": "view",
					"type": "function"
				},
				{
					"inputs": [],
					"name": "totalAllocPoint",
					"outputs": [
						{
							"internalType": "uint256",
							"name": "",
							"type": "uint256"
						}
					],
					"stateMutability": "view",
					"type": "function"
				},
				{
					"inputs": [
						{
							"internalType": "address",
							"name": "newOwner",
							"type": "address"
						}
					],
					"name": "transferOwnership",
					"outputs": [],
					"stateMutability": "nonpayable",
					"type": "function"
				},
				{
					"inputs": [
						{
							"internalType": "uint256",
							"name": "newAmount",
							"type": "uint256"
						}
					],
					"name": "updateDRGPerBlock",
					"outputs": [],
					"stateMutability": "nonpayable",
					"type": "function"
				},
				{
					"inputs": [
						{
							"internalType": "uint256",
							"name": "multiplierNumber",
							"type": "uint256"
						}
					],
					"name": "updateMultiplier",
					"outputs": [],
					"stateMutability": "nonpayable",
					"type": "function"
				},
				{
					"inputs": [
						{
							"internalType": "uint256",
							"name": "_pid",
							"type": "uint256"
						}
					],
					"name": "updatePool",
					"outputs": [],
					"stateMutability": "nonpayable",
					"type": "function"
				},
				{
					"inputs": [
						{
							"internalType": "uint256",
							"name": "",
							"type": "uint256"
						},
						{
							"internalType": "address",
							"name": "",
							"type": "address"
						}
					],
					"name": "userInfo",
					"outputs": [
						{
							"internalType": "uint256",
							"name": "amount",
							"type": "uint256"
						},
						{
							"internalType": "uint256",
							"name": "rewardDebt",
							"type": "uint256"
						}
					],
					"stateMutability": "view",
					"type": "function"
				},
				{
					"inputs": [
						{
							"internalType": "uint256",
							"name": "_pid",
							"type": "uint256"
						},
						{
							"internalType": "uint256",
							"name": "_BSWPid",
							"type": "uint256"
						},
						{
							"internalType": "uint256",
							"name": "_amount",
							"type": "uint256"
						}
					],
					"name": "withdraw",
					"outputs": [],
					"stateMutability": "nonpayable",
					"type": "function"
				}
			],
			"devdoc": {
				"kind": "dev",
				"methods": {
					"owner()": {
						"details": "Returns the address of the current owner."
					},
					"renounceOwnership()": {
						"details": "Leaves the contract without owner. It will not be possible to call `onlyOwner` functions anymore. Can only be called by the current owner. NOTE: Renouncing ownership will leave the contract without an owner, thereby removing any functionality that is only available to the owner."
					},
					"transferOwnership(address)": {
						"details": "Transfers ownership of the contract to a new account (`newOwner`). Can only be called by the current owner."
					}
				},
				"version": 1
			},
			"evm": {
				"assembly": "    /* \"contracts/MetaMasterChef.sol\":22755:34399  contract MetaMasterChef is Ownable {\r... */\n  mstore(0x40, 0x80)\n    /* \"contracts/MetaMasterChef.sol\":24491:24492  1 */\n  0x01\n    /* \"contracts/MetaMasterChef.sol\":24457:24492  uint256 public BONUS_MULTIPLIER = 1 */\n  0x05\n  sstore\n    /* \"contracts/MetaMasterChef.sol\":24934:24935  0 */\n  0x00\n    /* \"contracts/MetaMasterChef.sol\":24901:24935  uint256 public totalAllocPoint = 0 */\n  0x09\n  sstore\n    /* \"contracts/MetaMasterChef.sol\":25105:25155  99999999999999999999999999999999999999999999999999 */\n  0x446c3b15f9926687d2c40534fdb563ffffffffffff\n    /* \"contracts/MetaMasterChef.sol\":25081:25155  uint256 approveAmount = 99999999999999999999999999999999999999999999999999 */\n  0x0c\n  sstore\n    /* \"contracts/MetaMasterChef.sol\":25448:25788  constructor(\r... */\n  callvalue\n  dup1\n  iszero\n  tag_1\n  jumpi\n  0x00\n  dup1\n  revert\ntag_1:\n  pop\n  mload(0x40)\n  sub(codesize, bytecodeSize)\n  dup1\n  bytecodeSize\n  dup4\n  codecopy\n  dup2\n  dup2\n  add\n  0x40\n  mstore\n  dup2\n  add\n  swap1\n  tag_2\n  swap2\n  swap1\n  tag_3\n  jump\t// in\ntag_2:\n    /* \"contracts/MetaMasterChef.sol\":19984:20016  _transferOwnership(_msgSender()) */\n  tag_7\n    /* \"contracts/MetaMasterChef.sol\":20003:20015  _msgSender() */\n  tag_8\n    /* \"contracts/MetaMasterChef.sol\":20003:20013  _msgSender */\n  shl(0x20, tag_9)\n    /* \"contracts/MetaMasterChef.sol\":20003:20015  _msgSender() */\n  0x20\n  shr\n  jump\t// in\ntag_8:\n    /* \"contracts/MetaMasterChef.sol\":19984:20002  _transferOwnership */\n  shl(0x20, tag_10)\n    /* \"contracts/MetaMasterChef.sol\":19984:20016  _transferOwnership(_msgSender()) */\n  0x20\n  shr\n  jump\t// in\ntag_7:\n    /* \"contracts/MetaMasterChef.sol\":25634:25638  _DRG */\n  dup5\n    /* \"contracts/MetaMasterChef.sol\":25628:25631  DRG */\n  0x02\n  0x00\n    /* \"contracts/MetaMasterChef.sol\":25628:25638  DRG = _DRG */\n  0x0100\n  exp\n  dup2\n  sload\n  dup2\n  0xffffffffffffffffffffffffffffffffffffffff\n  mul\n  not\n  and\n  swap1\n  dup4\n  0xffffffffffffffffffffffffffffffffffffffff\n  and\n  mul\n  or\n  swap1\n  sstore\n  pop\n    /* \"contracts/MetaMasterChef.sol\":25659:25667  _devaddr */\n  dup4\n    /* \"contracts/MetaMasterChef.sol\":25649:25656  devaddr */\n  0x03\n  0x00\n    /* \"contracts/MetaMasterChef.sol\":25649:25667  devaddr = _devaddr */\n  0x0100\n  exp\n  dup2\n  sload\n  dup2\n  0xffffffffffffffffffffffffffffffffffffffff\n  mul\n  not\n  and\n  swap1\n  dup4\n  0xffffffffffffffffffffffffffffffffffffffff\n  and\n  mul\n  or\n  swap1\n  sstore\n  pop\n    /* \"contracts/MetaMasterChef.sol\":25692:25704  _DRGPerBlock */\n  dup3\n    /* \"contracts/MetaMasterChef.sol\":25678:25689  DRGPerBlock */\n  0x04\n    /* \"contracts/MetaMasterChef.sol\":25678:25704  DRGPerBlock = _DRGPerBlock */\n  dup2\n  swap1\n  sstore\n  pop\n    /* \"contracts/MetaMasterChef.sol\":25728:25739  _startBlock */\n  dup2\n    /* \"contracts/MetaMasterChef.sol\":25715:25725  startBlock */\n  0x0a\n    /* \"contracts/MetaMasterChef.sol\":25715:25739  startBlock = _startBlock */\n  dup2\n  swap1\n  sstore\n  pop\n    /* \"contracts/MetaMasterChef.sol\":25766:25780  _NFTMasterChef */\n  dup1\n    /* \"contracts/MetaMasterChef.sol\":25750:25763  NFTMasterChef */\n  0x01\n  0x00\n    /* \"contracts/MetaMasterChef.sol\":25750:25780  NFTMasterChef = _NFTMasterChef */\n  0x0100\n  exp\n  dup2\n  sload\n  dup2\n  0xffffffffffffffffffffffffffffffffffffffff\n  mul\n  not\n  and\n  swap1\n  dup4\n  0xffffffffffffffffffffffffffffffffffffffff\n  and\n  mul\n  or\n  swap1\n  sstore\n  pop\n    /* \"contracts/MetaMasterChef.sol\":25448:25788  constructor(\r... */\n  pop\n  pop\n  pop\n  pop\n  pop\n    /* \"contracts/MetaMasterChef.sol\":22755:34399  contract MetaMasterChef is Ownable {\r... */\n  jump(tag_12)\n    /* \"contracts/MetaMasterChef.sol\":19479:19577  function _msgSender() internal view virtual returns (address) {\r... */\ntag_9:\n    /* \"contracts/MetaMasterChef.sol\":19532:19539  address */\n  0x00\n    /* \"contracts/MetaMasterChef.sol\":19559:19569  msg.sender */\n  caller\n    /* \"contracts/MetaMasterChef.sol\":19552:19569  return msg.sender */\n  swap1\n  pop\n    /* \"contracts/MetaMasterChef.sol\":19479:19577  function _msgSender() internal view virtual returns (address) {\r... */\n  swap1\n  jump\t// out\n    /* \"contracts/MetaMasterChef.sol\":21375:21566  function _transferOwnership(address newOwner) internal virtual {\r... */\ntag_10:\n    /* \"contracts/MetaMasterChef.sol\":21449:21465  address oldOwner */\n  0x00\n    /* \"contracts/MetaMasterChef.sol\":21468:21474  _owner */\n  dup1\n  0x00\n  swap1\n  sload\n  swap1\n  0x0100\n  exp\n  swap1\n  div\n  0xffffffffffffffffffffffffffffffffffffffff\n  and\n    /* \"contracts/MetaMasterChef.sol\":21449:21474  address oldOwner = _owner */\n  swap1\n  pop\n    /* \"contracts/MetaMasterChef.sol\":21494:21502  newOwner */\n  dup2\n    /* \"contracts/MetaMasterChef.sol\":21485:21491  _owner */\n  0x00\n  dup1\n    /* \"contracts/MetaMasterChef.sol\":21485:21502  _owner = newOwner */\n  0x0100\n  exp\n  dup2\n  sload\n  dup2\n  0xffffffffffffffffffffffffffffffffffffffff\n  mul\n  not\n  and\n  swap1\n  dup4\n  0xffffffffffffffffffffffffffffffffffffffff\n  and\n  mul\n  or\n  swap1\n  sstore\n  pop\n    /* \"contracts/MetaMasterChef.sol\":21549:21557  newOwner */\n  dup2\n    /* \"contracts/MetaMasterChef.sol\":21518:21558  OwnershipTransferred(oldOwner, newOwner) */\n  0xffffffffffffffffffffffffffffffffffffffff\n  and\n    /* \"contracts/MetaMasterChef.sol\":21539:21547  oldOwner */\n  dup2\n    /* \"contracts/MetaMasterChef.sol\":21518:21558  OwnershipTransferred(oldOwner, newOwner) */\n  0xffffffffffffffffffffffffffffffffffffffff\n  and\n  0x8be0079c531659141344cd1fd0a4f28419497f9722a3daafe3b4186f6b6457e0\n  mload(0x40)\n  mload(0x40)\n  dup1\n  swap2\n  sub\n  swap1\n  log3\n    /* \"contracts/MetaMasterChef.sol\":21438:21566  {\r... */\n  pop\n    /* \"contracts/MetaMasterChef.sol\":21375:21566  function _transferOwnership(address newOwner) internal virtual {\r... */\n  pop\n  jump\t// out\n    /* \"#utility.yul\":7:150   */\ntag_16:\n    /* \"#utility.yul\":64:69   */\n  0x00\n    /* \"#utility.yul\":95:101   */\n  dup2\n    /* \"#utility.yul\":89:102   */\n  mload\n    /* \"#utility.yul\":80:102   */\n  swap1\n  pop\n    /* \"#utility.yul\":111:144   */\n  tag_18\n    /* \"#utility.yul\":138:143   */\n  dup2\n    /* \"#utility.yul\":111:144   */\n  tag_19\n  jump\t// in\ntag_18:\n    /* \"#utility.yul\":7:150   */\n  swap3\n  swap2\n  pop\n  pop\n  jump\t// out\n    /* \"#utility.yul\":156:327   */\ntag_20:\n    /* \"#utility.yul\":227:232   */\n  0x00\n    /* \"#utility.yul\":258:264   */\n  dup2\n    /* \"#utility.yul\":252:265   */\n  mload\n    /* \"#utility.yul\":243:265   */\n  swap1\n  pop\n    /* \"#utility.yul\":274:321   */\n  tag_22\n    /* \"#utility.yul\":315:320   */\n  dup2\n    /* \"#utility.yul\":274:321   */\n  tag_23\n  jump\t// in\ntag_22:\n    /* \"#utility.yul\":156:327   */\n  swap3\n  swap2\n  pop\n  pop\n  jump\t// out\n    /* \"#utility.yul\":333:520   */\ntag_24:\n    /* \"#utility.yul\":412:417   */\n  0x00\n    /* \"#utility.yul\":443:449   */\n  dup2\n    /* \"#utility.yul\":437:450   */\n  mload\n    /* \"#utility.yul\":428:450   */\n  swap1\n  pop\n    /* \"#utility.yul\":459:514   */\n  tag_26\n    /* \"#utility.yul\":508:513   */\n  dup2\n    /* \"#utility.yul\":459:514   */\n  tag_27\n  jump\t// in\ntag_26:\n    /* \"#utility.yul\":333:520   */\n  swap3\n  swap2\n  pop\n  pop\n  jump\t// out\n    /* \"#utility.yul\":526:669   */\ntag_28:\n    /* \"#utility.yul\":583:588   */\n  0x00\n    /* \"#utility.yul\":614:620   */\n  dup2\n    /* \"#utility.yul\":608:621   */\n  mload\n    /* \"#utility.yul\":599:621   */\n  swap1\n  pop\n    /* \"#utility.yul\":630:663   */\n  tag_30\n    /* \"#utility.yul\":657:662   */\n  dup2\n    /* \"#utility.yul\":630:663   */\n  tag_31\n  jump\t// in\ntag_30:\n    /* \"#utility.yul\":526:669   */\n  swap3\n  swap2\n  pop\n  pop\n  jump\t// out\n    /* \"#utility.yul\":675:1724   */\ntag_3:\n    /* \"#utility.yul\":817:823   */\n  0x00\n    /* \"#utility.yul\":825:831   */\n  dup1\n    /* \"#utility.yul\":833:839   */\n  0x00\n    /* \"#utility.yul\":841:847   */\n  dup1\n    /* \"#utility.yul\":849:855   */\n  0x00\n    /* \"#utility.yul\":898:901   */\n  0xa0\n    /* \"#utility.yul\":886:895   */\n  dup7\n    /* \"#utility.yul\":877:884   */\n  dup9\n    /* \"#utility.yul\":873:896   */\n  sub\n    /* \"#utility.yul\":869:902   */\n  slt\n    /* \"#utility.yul\":866:986   */\n  iszero\n  tag_33\n  jumpi\n    /* \"#utility.yul\":905:984   */\n  tag_34\n  tag_35\n  jump\t// in\ntag_34:\n    /* \"#utility.yul\":866:986   */\ntag_33:\n    /* \"#utility.yul\":1025:1026   */\n  0x00\n    /* \"#utility.yul\":1050:1128   */\n  tag_36\n    /* \"#utility.yul\":1120:1127   */\n  dup9\n    /* \"#utility.yul\":1111:1117   */\n  dup3\n    /* \"#utility.yul\":1100:1109   */\n  dup10\n    /* \"#utility.yul\":1096:1118   */\n  add\n    /* \"#utility.yul\":1050:1128   */\n  tag_20\n  jump\t// in\ntag_36:\n    /* \"#utility.yul\":1040:1128   */\n  swap6\n  pop\n    /* \"#utility.yul\":996:1138   */\n  pop\n    /* \"#utility.yul\":1177:1179   */\n  0x20\n    /* \"#utility.yul\":1203:1267   */\n  tag_37\n    /* \"#utility.yul\":1259:1266   */\n  dup9\n    /* \"#utility.yul\":1250:1256   */\n  dup3\n    /* \"#utility.yul\":1239:1248   */\n  dup10\n    /* \"#utility.yul\":1235:1257   */\n  add\n    /* \"#utility.yul\":1203:1267   */\n  tag_16\n  jump\t// in\ntag_37:\n    /* \"#utility.yul\":1193:1267   */\n  swap5\n  pop\n    /* \"#utility.yul\":1148:1277   */\n  pop\n    /* \"#utility.yul\":1316:1318   */\n  0x40\n    /* \"#utility.yul\":1342:1406   */\n  tag_38\n    /* \"#utility.yul\":1398:1405   */\n  dup9\n    /* \"#utility.yul\":1389:1395   */\n  dup3\n    /* \"#utility.yul\":1378:1387   */\n  dup10\n    /* \"#utility.yul\":1374:1396   */\n  add\n    /* \"#utility.yul\":1342:1406   */\n  tag_28\n  jump\t// in\ntag_38:\n    /* \"#utility.yul\":1332:1406   */\n  swap4\n  pop\n    /* \"#utility.yul\":1287:1416   */\n  pop\n    /* \"#utility.yul\":1455:1457   */\n  0x60\n    /* \"#utility.yul\":1481:1545   */\n  tag_39\n    /* \"#utility.yul\":1537:1544   */\n  dup9\n    /* \"#utility.yul\":1528:1534   */\n  dup3\n    /* \"#utility.yul\":1517:1526   */\n  dup10\n    /* \"#utility.yul\":1513:1535   */\n  add\n    /* \"#utility.yul\":1481:1545   */\n  tag_28\n  jump\t// in\ntag_39:\n    /* \"#utility.yul\":1471:1545   */\n  swap3\n  pop\n    /* \"#utility.yul\":1426:1555   */\n  pop\n    /* \"#utility.yul\":1594:1597   */\n  0x80\n    /* \"#utility.yul\":1621:1707   */\n  tag_40\n    /* \"#utility.yul\":1699:1706   */\n  dup9\n    /* \"#utility.yul\":1690:1696   */\n  dup3\n    /* \"#utility.yul\":1679:1688   */\n  dup10\n    /* \"#utility.yul\":1675:1697   */\n  add\n    /* \"#utility.yul\":1621:1707   */\n  tag_24\n  jump\t// in\ntag_40:\n    /* \"#utility.yul\":1611:1707   */\n  swap2\n  pop\n    /* \"#utility.yul\":1565:1717   */\n  pop\n    /* \"#utility.yul\":675:1724   */\n  swap3\n  swap6\n  pop\n  swap3\n  swap6\n  swap1\n  swap4\n  pop\n  jump\t// out\n    /* \"#utility.yul\":1811:1907   */\ntag_43:\n    /* \"#utility.yul\":1848:1855   */\n  0x00\n    /* \"#utility.yul\":1877:1901   */\n  tag_45\n    /* \"#utility.yul\":1895:1900   */\n  dup3\n    /* \"#utility.yul\":1877:1901   */\n  tag_46\n  jump\t// in\ntag_45:\n    /* \"#utility.yul\":1866:1901   */\n  swap1\n  pop\n    /* \"#utility.yul\":1811:1907   */\n  swap2\n  swap1\n  pop\n  jump\t// out\n    /* \"#utility.yul\":1913:2023   */\ntag_47:\n    /* \"#utility.yul\":1964:1971   */\n  0x00\n    /* \"#utility.yul\":1993:2017   */\n  tag_49\n    /* \"#utility.yul\":2011:2016   */\n  dup3\n    /* \"#utility.yul\":1993:2017   */\n  tag_43\n  jump\t// in\ntag_49:\n    /* \"#utility.yul\":1982:2017   */\n  swap1\n  pop\n    /* \"#utility.yul\":1913:2023   */\n  swap2\n  swap1\n  pop\n  jump\t// out\n    /* \"#utility.yul\":2029:2147   */\ntag_50:\n    /* \"#utility.yul\":2088:2095   */\n  0x00\n    /* \"#utility.yul\":2117:2141   */\n  tag_52\n    /* \"#utility.yul\":2135:2140   */\n  dup3\n    /* \"#utility.yul\":2117:2141   */\n  tag_43\n  jump\t// in\ntag_52:\n    /* \"#utility.yul\":2106:2141   */\n  swap1\n  pop\n    /* \"#utility.yul\":2029:2147   */\n  swap2\n  swap1\n  pop\n  jump\t// out\n    /* \"#utility.yul\":2153:2279   */\ntag_46:\n    /* \"#utility.yul\":2190:2197   */\n  0x00\n    /* \"#utility.yul\":2230:2272   */\n  0xffffffffffffffffffffffffffffffffffffffff\n    /* \"#utility.yul\":2223:2228   */\n  dup3\n    /* \"#utility.yul\":2219:2273   */\n  and\n    /* \"#utility.yul\":2208:2273   */\n  swap1\n  pop\n    /* \"#utility.yul\":2153:2279   */\n  swap2\n  swap1\n  pop\n  jump\t// out\n    /* \"#utility.yul\":2285:2362   */\ntag_54:\n    /* \"#utility.yul\":2322:2329   */\n  0x00\n    /* \"#utility.yul\":2351:2356   */\n  dup2\n    /* \"#utility.yul\":2340:2356   */\n  swap1\n  pop\n    /* \"#utility.yul\":2285:2362   */\n  swap2\n  swap1\n  pop\n  jump\t// out\n    /* \"#utility.yul\":2491:2608   */\ntag_35:\n    /* \"#utility.yul\":2600:2601   */\n  0x00\n    /* \"#utility.yul\":2597:2598   */\n  dup1\n    /* \"#utility.yul\":2590:2602   */\n  revert\n    /* \"#utility.yul\":2614:2736   */\ntag_19:\n    /* \"#utility.yul\":2687:2711   */\n  tag_60\n    /* \"#utility.yul\":2705:2710   */\n  dup2\n    /* \"#utility.yul\":2687:2711   */\n  tag_43\n  jump\t// in\ntag_60:\n    /* \"#utility.yul\":2680:2685   */\n  dup2\n    /* \"#utility.yul\":2677:2712   */\n  eq\n    /* \"#utility.yul\":2667:2730   */\n  tag_61\n  jumpi\n    /* \"#utility.yul\":2726:2727   */\n  0x00\n    /* \"#utility.yul\":2723:2724   */\n  dup1\n    /* \"#utility.yul\":2716:2728   */\n  revert\n    /* \"#utility.yul\":2667:2730   */\ntag_61:\n    /* \"#utility.yul\":2614:2736   */\n  pop\n  jump\t// out\n    /* \"#utility.yul\":2742:2892   */\ntag_23:\n    /* \"#utility.yul\":2829:2867   */\n  tag_63\n    /* \"#utility.yul\":2861:2866   */\n  dup2\n    /* \"#utility.yul\":2829:2867   */\n  tag_47\n  jump\t// in\ntag_63:\n    /* \"#utility.yul\":2822:2827   */\n  dup2\n    /* \"#utility.yul\":2819:2868   */\n  eq\n    /* \"#utility.yul\":2809:2886   */\n  tag_64\n  jumpi\n    /* \"#utility.yul\":2882:2883   */\n  0x00\n    /* \"#utility.yul\":2879:2880   */\n  dup1\n    /* \"#utility.yul\":2872:2884   */\n  revert\n    /* \"#utility.yul\":2809:2886   */\ntag_64:\n    /* \"#utility.yul\":2742:2892   */\n  pop\n  jump\t// out\n    /* \"#utility.yul\":2898:3064   */\ntag_27:\n    /* \"#utility.yul\":2993:3039   */\n  tag_66\n    /* \"#utility.yul\":3033:3038   */\n  dup2\n    /* \"#utility.yul\":2993:3039   */\n  tag_50\n  jump\t// in\ntag_66:\n    /* \"#utility.yul\":2986:2991   */\n  dup2\n    /* \"#utility.yul\":2983:3040   */\n  eq\n    /* \"#utility.yul\":2973:3058   */\n  tag_67\n  jumpi\n    /* \"#utility.yul\":3054:3055   */\n  0x00\n    /* \"#utility.yul\":3051:3052   */\n  dup1\n    /* \"#utility.yul\":3044:3056   */\n  revert\n    /* \"#utility.yul\":2973:3058   */\ntag_67:\n    /* \"#utility.yul\":2898:3064   */\n  pop\n  jump\t// out\n    /* \"#utility.yul\":3070:3192   */\ntag_31:\n    /* \"#utility.yul\":3143:3167   */\n  tag_69\n    /* \"#utility.yul\":3161:3166   */\n  dup2\n    /* \"#utility.yul\":3143:3167   */\n  tag_54\n  jump\t// in\ntag_69:\n    /* \"#utility.yul\":3136:3141   */\n  dup2\n    /* \"#utility.yul\":3133:3168   */\n  eq\n    /* \"#utility.yul\":3123:3186   */\n  tag_70\n  jumpi\n    /* \"#utility.yul\":3182:3183   */\n  0x00\n    /* \"#utility.yul\":3179:3180   */\n  dup1\n    /* \"#utility.yul\":3172:3184   */\n  revert\n    /* \"#utility.yul\":3123:3186   */\ntag_70:\n    /* \"#utility.yul\":3070:3192   */\n  pop\n  jump\t// out\n    /* \"contracts/MetaMasterChef.sol\":22755:34399  contract MetaMasterChef is Ownable {\r... */\ntag_12:\n  dataSize(sub_0)\n  dup1\n  dataOffset(sub_0)\n  0x00\n  codecopy\n  0x00\n  return\nstop\n\nsub_0: assembly {\n        /* \"contracts/MetaMasterChef.sol\":22755:34399  contract MetaMasterChef is Ownable {\r... */\n      mstore(0x40, 0x80)\n      callvalue\n      dup1\n      iszero\n      tag_1\n      jumpi\n      0x00\n      dup1\n      revert\n    tag_1:\n      pop\n      jumpi(tag_2, lt(calldatasize, 0x04))\n      shr(0xe0, calldataload(0x00))\n      dup1\n      0x64944193\n      gt\n      tag_34\n      jumpi\n      dup1\n      0x93f1a40b\n      gt\n      tag_35\n      jumpi\n      dup1\n      0xd49e77cd\n      gt\n      tag_36\n      jumpi\n      dup1\n      0xd49e77cd\n      eq\n      tag_30\n      jumpi\n      dup1\n      0xe4d09896\n      eq\n      tag_31\n      jumpi\n      dup1\n      0xeeac3ae8\n      eq\n      tag_32\n      jumpi\n      dup1\n      0xf2fde38b\n      eq\n      tag_33\n      jumpi\n      jump(tag_2)\n    tag_36:\n      dup1\n      0x93f1a40b\n      eq\n      tag_26\n      jumpi\n      dup1\n      0xa1eef821\n      eq\n      tag_27\n      jumpi\n      dup1\n      0xa41fe49f\n      eq\n      tag_28\n      jumpi\n      dup1\n      0xd0d41fe1\n      eq\n      tag_29\n      jumpi\n      jump(tag_2)\n    tag_35:\n      dup1\n      0x7cd07e47\n      gt\n      tag_37\n      jumpi\n      dup1\n      0x7cd07e47\n      eq\n      tag_22\n      jumpi\n      dup1\n      0x8aa28550\n      eq\n      tag_23\n      jumpi\n      dup1\n      0x8da5cb5b\n      eq\n      tag_24\n      jumpi\n      dup1\n      0x8dbb1e3a\n      eq\n      tag_25\n      jumpi\n      jump(tag_2)\n    tag_37:\n      dup1\n      0x64944193\n      eq\n      tag_18\n      jumpi\n      dup1\n      0x68382a21\n      eq\n      tag_19\n      jumpi\n      dup1\n      0x6a6d964e\n      eq\n      tag_20\n      jumpi\n      dup1\n      0x715018a6\n      eq\n      tag_21\n      jumpi\n      jump(tag_2)\n    tag_34:\n      dup1\n      0x454b0608\n      gt\n      tag_38\n      jumpi\n      dup1\n      0x5312ea8e\n      gt\n      tag_39\n      jumpi\n      dup1\n      0x5312ea8e\n      eq\n      tag_14\n      jumpi\n      dup1\n      0x5ffe6146\n      eq\n      tag_15\n      jumpi\n      dup1\n      0x630b5ba1\n      eq\n      tag_16\n      jumpi\n      dup1\n      0x64482f79\n      eq\n      tag_17\n      jumpi\n      jump(tag_2)\n    tag_39:\n      dup1\n      0x454b0608\n      eq\n      tag_10\n      jumpi\n      dup1\n      0x48cd4cb1\n      eq\n      tag_11\n      jumpi\n      dup1\n      0x4f17dbaf\n      eq\n      tag_12\n      jumpi\n      dup1\n      0x51eb05a6\n      eq\n      tag_13\n      jumpi\n      jump(tag_2)\n    tag_38:\n      dup1\n      0x141aa0ba\n      gt\n      tag_40\n      jumpi\n      dup1\n      0x141aa0ba\n      eq\n      tag_6\n      jumpi\n      dup1\n      0x1526fe27\n      eq\n      tag_7\n      jumpi\n      dup1\n      0x17caf6f1\n      eq\n      tag_8\n      jumpi\n      dup1\n      0x23cf3118\n      eq\n      tag_9\n      jumpi\n      jump(tag_2)\n    tag_40:\n      dup1\n      0xaeef8a\n      eq\n      tag_3\n      jumpi\n      dup1\n      0x081e3eda\n      eq\n      tag_4\n      jumpi\n      dup1\n      0x0fe7ea17\n      eq\n      tag_5\n      jumpi\n    tag_2:\n      0x00\n      dup1\n      revert\n        /* \"contracts/MetaMasterChef.sol\":30534:32001  function deposit(uint256 _pid,uint256 _BSWPid, uint256 _amount) public {\r... */\n    tag_3:\n      tag_41\n      0x04\n      dup1\n      calldatasize\n      sub\n      dup2\n      add\n      swap1\n      tag_42\n      swap2\n      swap1\n      tag_43\n      jump\t// in\n    tag_42:\n      tag_44\n      jump\t// in\n    tag_41:\n      stop\n        /* \"contracts/MetaMasterChef.sol\":25927:26022  function poolLength() external view returns (uint256) {\r... */\n    tag_4:\n      tag_45\n      tag_46\n      jump\t// in\n    tag_45:\n      mload(0x40)\n      tag_47\n      swap2\n      swap1\n      tag_48\n      jump\t// in\n    tag_47:\n      mload(0x40)\n      dup1\n      swap2\n      sub\n      swap1\n      return\n        /* \"contracts/MetaMasterChef.sol\":34291:34396  function updateDRGPerBlock(uint256 newAmount) public onlyOwner {\r... */\n    tag_5:\n      tag_49\n      0x04\n      dup1\n      calldatasize\n      sub\n      dup2\n      add\n      swap1\n      tag_50\n      swap2\n      swap1\n      tag_51\n      jump\t// in\n    tag_50:\n      tag_52\n      jump\t// in\n    tag_49:\n      stop\n        /* \"contracts/MetaMasterChef.sol\":24266:24283  IERC20 public DRG */\n    tag_6:\n      tag_53\n      tag_54\n      jump\t// in\n    tag_53:\n      mload(0x40)\n      tag_55\n      swap2\n      swap1\n      tag_56\n      jump\t// in\n    tag_55:\n      mload(0x40)\n      dup1\n      swap2\n      sub\n      swap1\n      return\n        /* \"contracts/MetaMasterChef.sol\":24660:24686  PoolInfo[] public poolInfo */\n    tag_7:\n      tag_57\n      0x04\n      dup1\n      calldatasize\n      sub\n      dup2\n      add\n      swap1\n      tag_58\n      swap2\n      swap1\n      tag_51\n      jump\t// in\n    tag_58:\n      tag_59\n      jump\t// in\n    tag_57:\n      mload(0x40)\n      tag_60\n      swap9\n      swap8\n      swap7\n      swap6\n      swap5\n      swap4\n      swap3\n      swap2\n      swap1\n      tag_61\n      jump\t// in\n    tag_60:\n      mload(0x40)\n      dup1\n      swap2\n      sub\n      swap1\n      return\n        /* \"contracts/MetaMasterChef.sol\":24901:24935  uint256 public totalAllocPoint = 0 */\n    tag_8:\n      tag_62\n      tag_63\n      jump\t// in\n    tag_62:\n      mload(0x40)\n      tag_64\n      swap2\n      swap1\n      tag_48\n      jump\t// in\n    tag_64:\n      mload(0x40)\n      dup1\n      swap2\n      sub\n      swap1\n      return\n        /* \"contracts/MetaMasterChef.sol\":27463:27565  function setMigrator(IMigratorChef _migrator) public onlyOwner {\r... */\n    tag_9:\n      tag_65\n      0x04\n      dup1\n      calldatasize\n      sub\n      dup2\n      add\n      swap1\n      tag_66\n      swap2\n      swap1\n      tag_67\n      jump\t// in\n    tag_66:\n      tag_68\n      jump\t// in\n    tag_65:\n      stop\n        /* \"contracts/MetaMasterChef.sol\":27688:28164  function migrate(uint256 _pid) public {\r... */\n    tag_10:\n      tag_69\n      0x04\n      dup1\n      calldatasize\n      sub\n      dup2\n      add\n      swap1\n      tag_70\n      swap2\n      swap1\n      tag_51\n      jump\t// in\n    tag_70:\n      tag_71\n      jump\t// in\n    tag_69:\n      stop\n        /* \"contracts/MetaMasterChef.sol\":24991:25016  uint256 public startBlock */\n    tag_11:\n      tag_72\n      tag_73\n      jump\t// in\n    tag_72:\n      mload(0x40)\n      tag_74\n      swap2\n      swap1\n      tag_48\n      jump\t// in\n    tag_74:\n      mload(0x40)\n      dup1\n      swap2\n      sub\n      swap1\n      return\n        /* \"contracts/MetaMasterChef.sol\":28447:29176  function pendingDRG(uint256 _pid, address _user) external view returns (uint256){\r... */\n    tag_12:\n      tag_75\n      0x04\n      dup1\n      calldatasize\n      sub\n      dup2\n      add\n      swap1\n      tag_76\n      swap2\n      swap1\n      tag_77\n      jump\t// in\n    tag_76:\n      tag_78\n      jump\t// in\n    tag_75:\n      mload(0x40)\n      tag_79\n      swap2\n      swap1\n      tag_48\n      jump\t// in\n    tag_79:\n      mload(0x40)\n      dup1\n      swap2\n      sub\n      swap1\n      return\n        /* \"contracts/MetaMasterChef.sol\":29515:30220  function updatePool(uint256 _pid) public {\r... */\n    tag_13:\n      tag_80\n      0x04\n      dup1\n      calldatasize\n      sub\n      dup2\n      add\n      swap1\n      tag_81\n      swap2\n      swap1\n      tag_51\n      jump\t// in\n    tag_81:\n      tag_82\n      jump\t// in\n    tag_80:\n      stop\n        /* \"contracts/MetaMasterChef.sol\":33437:33793  function emergencyWithdraw(uint256 _pid) public {\r... */\n    tag_14:\n      tag_83\n      0x04\n      dup1\n      calldatasize\n      sub\n      dup2\n      add\n      swap1\n      tag_84\n      swap2\n      swap1\n      tag_51\n      jump\t// in\n    tag_84:\n      tag_85\n      jump\t// in\n    tag_83:\n      stop\n        /* \"contracts/MetaMasterChef.sol\":25796:25919  function updateMultiplier(uint256 multiplierNumber) public onlyOwner {\r... */\n    tag_15:\n      tag_86\n      0x04\n      dup1\n      calldatasize\n      sub\n      dup2\n      add\n      swap1\n      tag_87\n      swap2\n      swap1\n      tag_51\n      jump\t// in\n    tag_87:\n      tag_88\n      jump\t// in\n    tag_86:\n      stop\n        /* \"contracts/MetaMasterChef.sol\":29259:29439  function massUpdatePools() public {\r... */\n    tag_16:\n      tag_89\n      tag_90\n      jump\t// in\n    tag_89:\n      stop\n        /* \"contracts/MetaMasterChef.sol\":27082:27387  function set( uint256 _pid, uint256 _allocPoint, bool _withUpdate) public onlyOwner {\r... */\n    tag_17:\n      tag_91\n      0x04\n      dup1\n      calldatasize\n      sub\n      dup2\n      add\n      swap1\n      tag_92\n      swap2\n      swap1\n      tag_93\n      jump\t// in\n    tag_92:\n      tag_94\n      jump\t// in\n    tag_91:\n      stop\n        /* \"contracts/MetaMasterChef.sol\":26193:26987  function add( uint256 _allocPoint, IERC20 _lpToken, bool _withUpdate, IMasterChef _poolMasterChef, IERC20 _rewardToken, uint256 _fee, uint256 _method) public onlyOwner {\r... */\n    tag_18:\n      tag_95\n      0x04\n      dup1\n      calldatasize\n      sub\n      dup2\n      add\n      swap1\n      tag_96\n      swap2\n      swap1\n      tag_97\n      jump\t// in\n    tag_96:\n      tag_98\n      jump\t// in\n    tag_95:\n      stop\n        /* \"contracts/MetaMasterChef.sol\":33190:33366  function emergencyWithdrawFromBSW(uint256 _pid) public onlyOwner {\r... */\n    tag_19:\n      tag_99\n      0x04\n      dup1\n      calldatasize\n      sub\n      dup2\n      add\n      swap1\n      tag_100\n      swap2\n      swap1\n      tag_51\n      jump\t// in\n    tag_100:\n      tag_101\n      jump\t// in\n    tag_99:\n      stop\n        /* \"contracts/MetaMasterChef.sol\":25025:25072  mapping (uint256 => uint256) public poolBalance */\n    tag_20:\n      tag_102\n      0x04\n      dup1\n      calldatasize\n      sub\n      dup2\n      add\n      swap1\n      tag_103\n      swap2\n      swap1\n      tag_51\n      jump\t// in\n    tag_103:\n      tag_104\n      jump\t// in\n    tag_102:\n      mload(0x40)\n      tag_105\n      swap2\n      swap1\n      tag_48\n      jump\t// in\n    tag_105:\n      mload(0x40)\n      dup1\n      swap2\n      sub\n      swap1\n      return\n        /* \"contracts/MetaMasterChef.sol\":20756:20859  function renounceOwnership() public virtual onlyOwner {\r... */\n    tag_21:\n      tag_106\n      tag_107\n      jump\t// in\n    tag_106:\n      stop\n        /* \"contracts/MetaMasterChef.sol\":24597:24626  IMigratorChef public migrator */\n    tag_22:\n      tag_108\n      tag_109\n      jump\t// in\n    tag_108:\n      mload(0x40)\n      tag_110\n      swap2\n      swap1\n      tag_111\n      jump\t// in\n    tag_110:\n      mload(0x40)\n      dup1\n      swap2\n      sub\n      swap1\n      return\n        /* \"contracts/MetaMasterChef.sol\":24457:24492  uint256 public BONUS_MULTIPLIER = 1 */\n    tag_23:\n      tag_112\n      tag_113\n      jump\t// in\n    tag_112:\n      mload(0x40)\n      tag_114\n      swap2\n      swap1\n      tag_48\n      jump\t// in\n    tag_114:\n      mload(0x40)\n      dup1\n      swap2\n      sub\n      swap1\n      return\n        /* \"contracts/MetaMasterChef.sol\":20105:20192  function owner() public view virtual returns (address) {\r... */\n    tag_24:\n      tag_115\n      tag_116\n      jump\t// in\n    tag_115:\n      mload(0x40)\n      tag_117\n      swap2\n      swap1\n      tag_118\n      jump\t// in\n    tag_117:\n      mload(0x40)\n      dup1\n      swap2\n      sub\n      swap1\n      return\n        /* \"contracts/MetaMasterChef.sol\":28240:28384  function getMultiplier(uint256 _from, uint256 _to) public view returns (uint256) {\r... */\n    tag_25:\n      tag_119\n      0x04\n      dup1\n      calldatasize\n      sub\n      dup2\n      add\n      swap1\n      tag_120\n      swap2\n      swap1\n      tag_121\n      jump\t// in\n    tag_120:\n      tag_122\n      jump\t// in\n    tag_119:\n      mload(0x40)\n      tag_123\n      swap2\n      swap1\n      tag_48\n      jump\t// in\n    tag_123:\n      mload(0x40)\n      dup1\n      swap2\n      sub\n      swap1\n      return\n        /* \"contracts/MetaMasterChef.sol\":24742:24806  mapping(uint256 => mapping(address => UserInfo)) public userInfo */\n    tag_26:\n      tag_124\n      0x04\n      dup1\n      calldatasize\n      sub\n      dup2\n      add\n      swap1\n      tag_125\n      swap2\n      swap1\n      tag_77\n      jump\t// in\n    tag_125:\n      tag_126\n      jump\t// in\n    tag_124:\n      mload(0x40)\n      tag_127\n      swap3\n      swap2\n      swap1\n      tag_128\n      jump\t// in\n    tag_127:\n      mload(0x40)\n      dup1\n      swap2\n      sub\n      swap1\n      return\n        /* \"contracts/MetaMasterChef.sol\":24378:24404  uint256 public DRGPerBlock */\n    tag_27:\n      tag_129\n      tag_130\n      jump\t// in\n    tag_129:\n      mload(0x40)\n      tag_131\n      swap2\n      swap1\n      tag_48\n      jump\t// in\n    tag_131:\n      mload(0x40)\n      dup1\n      swap2\n      sub\n      swap1\n      return\n        /* \"contracts/MetaMasterChef.sol\":32053:33182  function withdraw(uint256 _pid, uint256 _BSWPid, uint256 _amount) public {\r... */\n    tag_28:\n      tag_132\n      0x04\n      dup1\n      calldatasize\n      sub\n      dup2\n      add\n      swap1\n      tag_133\n      swap2\n      swap1\n      tag_43\n      jump\t// in\n    tag_133:\n      tag_134\n      jump\t// in\n    tag_132:\n      stop\n        /* \"contracts/MetaMasterChef.sol\":34190:34285  function setDevAddress(address _devaddr) public onlyOwner {\r... */\n    tag_29:\n      tag_135\n      0x04\n      dup1\n      calldatasize\n      sub\n      dup2\n      add\n      swap1\n      tag_136\n      swap2\n      swap1\n      tag_137\n      jump\t// in\n    tag_136:\n      tag_138\n      jump\t// in\n    tag_135:\n      stop\n        /* \"contracts/MetaMasterChef.sol\":24311:24333  address public devaddr */\n    tag_30:\n      tag_139\n      tag_140\n      jump\t// in\n    tag_139:\n      mload(0x40)\n      tag_141\n      swap2\n      swap1\n      tag_118\n      jump\t// in\n    tag_141:\n      mload(0x40)\n      dup1\n      swap2\n      sub\n      swap1\n      return\n        /* \"contracts/MetaMasterChef.sol\":24199:24234  INFTMasterChef public NFTMasterChef */\n    tag_31:\n      tag_142\n      tag_143\n      jump\t// in\n    tag_142:\n      mload(0x40)\n      tag_144\n      swap2\n      swap1\n      tag_145\n      jump\t// in\n    tag_144:\n      mload(0x40)\n      dup1\n      swap2\n      sub\n      swap1\n      return\n        /* \"contracts/MetaMasterChef.sol\":30228:30466  function enablePool(uint256 _pid) public {\r... */\n    tag_32:\n      tag_146\n      0x04\n      dup1\n      calldatasize\n      sub\n      dup2\n      add\n      swap1\n      tag_147\n      swap2\n      swap1\n      tag_51\n      jump\t// in\n    tag_147:\n      tag_148\n      jump\t// in\n    tag_146:\n      stop\n        /* \"contracts/MetaMasterChef.sol\":21014:21215  function transferOwnership(address newOwner) public virtual onlyOwner {\r... */\n    tag_33:\n      tag_149\n      0x04\n      dup1\n      calldatasize\n      sub\n      dup2\n      add\n      swap1\n      tag_150\n      swap2\n      swap1\n      tag_137\n      jump\t// in\n    tag_150:\n      tag_151\n      jump\t// in\n    tag_149:\n      stop\n        /* \"contracts/MetaMasterChef.sol\":30534:32001  function deposit(uint256 _pid,uint256 _BSWPid, uint256 _amount) public {\r... */\n    tag_44:\n        /* \"contracts/MetaMasterChef.sol\":30618:30639  PoolInfo storage pool */\n      0x00\n        /* \"contracts/MetaMasterChef.sol\":30642:30650  poolInfo */\n      0x07\n        /* \"contracts/MetaMasterChef.sol\":30651:30655  _pid */\n      dup5\n        /* \"contracts/MetaMasterChef.sol\":30642:30656  poolInfo[_pid] */\n      dup2\n      sload\n      dup2\n      lt\n      tag_153\n      jumpi\n      tag_154\n      tag_155\n      jump\t// in\n    tag_154:\n    tag_153:\n      swap1\n      0x00\n      mstore\n      keccak256(0x00, 0x20)\n      swap1\n      0x08\n      mul\n      add\n        /* \"contracts/MetaMasterChef.sol\":30618:30656  PoolInfo storage pool = poolInfo[_pid] */\n      swap1\n      pop\n        /* \"contracts/MetaMasterChef.sol\":30667:30688  UserInfo storage user */\n      0x00\n        /* \"contracts/MetaMasterChef.sol\":30691:30699  userInfo */\n      0x08\n        /* \"contracts/MetaMasterChef.sol\":30691:30705  userInfo[_pid] */\n      0x00\n        /* \"contracts/MetaMasterChef.sol\":30700:30704  _pid */\n      dup7\n        /* \"contracts/MetaMasterChef.sol\":30691:30705  userInfo[_pid] */\n      dup2\n      mstore\n      0x20\n      add\n      swap1\n      dup2\n      mstore\n      0x20\n      add\n      0x00\n      keccak256\n        /* \"contracts/MetaMasterChef.sol\":30691:30717  userInfo[_pid][msg.sender] */\n      0x00\n        /* \"contracts/MetaMasterChef.sol\":30706:30716  msg.sender */\n      caller\n        /* \"contracts/MetaMasterChef.sol\":30691:30717  userInfo[_pid][msg.sender] */\n      0xffffffffffffffffffffffffffffffffffffffff\n      and\n      0xffffffffffffffffffffffffffffffffffffffff\n      and\n      dup2\n      mstore\n      0x20\n      add\n      swap1\n      dup2\n      mstore\n      0x20\n      add\n      0x00\n      keccak256\n        /* \"contracts/MetaMasterChef.sol\":30667:30717  UserInfo storage user = userInfo[_pid][msg.sender] */\n      swap1\n      pop\n        /* \"contracts/MetaMasterChef.sol\":30728:30744  updatePool(_pid) */\n      tag_157\n        /* \"contracts/MetaMasterChef.sol\":30739:30743  _pid */\n      dup6\n        /* \"contracts/MetaMasterChef.sol\":30728:30738  updatePool */\n      tag_82\n        /* \"contracts/MetaMasterChef.sol\":30728:30744  updatePool(_pid) */\n      jump\t// in\n    tag_157:\n        /* \"contracts/MetaMasterChef.sol\":30773:30774  0 */\n      0x00\n        /* \"contracts/MetaMasterChef.sol\":30759:30763  user */\n      dup2\n        /* \"contracts/MetaMasterChef.sol\":30759:30770  user.amount */\n      0x00\n      add\n      sload\n        /* \"contracts/MetaMasterChef.sol\":30759:30774  user.amount > 0 */\n      gt\n        /* \"contracts/MetaMasterChef.sol\":30755:30997  if (user.amount > 0) {\r... */\n      iszero\n      tag_158\n      jumpi\n        /* \"contracts/MetaMasterChef.sol\":30791:30806  uint256 pending */\n      0x00\n        /* \"contracts/MetaMasterChef.sol\":30809:30876  user.amount.mul(pool.accDRGPerShare).div(1e12).sub(user.rewardDebt) */\n      tag_159\n        /* \"contracts/MetaMasterChef.sol\":30860:30864  user */\n      dup3\n        /* \"contracts/MetaMasterChef.sol\":30860:30875  user.rewardDebt */\n      0x01\n      add\n      sload\n        /* \"contracts/MetaMasterChef.sol\":30809:30855  user.amount.mul(pool.accDRGPerShare).div(1e12) */\n      tag_160\n        /* \"contracts/MetaMasterChef.sol\":30850:30854  1e12 */\n      0xe8d4a51000\n        /* \"contracts/MetaMasterChef.sol\":30809:30845  user.amount.mul(pool.accDRGPerShare) */\n      tag_161\n        /* \"contracts/MetaMasterChef.sol\":30825:30829  pool */\n      dup8\n        /* \"contracts/MetaMasterChef.sol\":30825:30844  pool.accDRGPerShare */\n      0x03\n      add\n      sload\n        /* \"contracts/MetaMasterChef.sol\":30809:30813  user */\n      dup8\n        /* \"contracts/MetaMasterChef.sol\":30809:30820  user.amount */\n      0x00\n      add\n      sload\n        /* \"contracts/MetaMasterChef.sol\":30809:30824  user.amount.mul */\n      tag_162\n      swap1\n        /* \"contracts/MetaMasterChef.sol\":30809:30845  user.amount.mul(pool.accDRGPerShare) */\n      swap2\n      swap1\n      0xffffffff\n      and\n      jump\t// in\n    tag_161:\n        /* \"contracts/MetaMasterChef.sol\":30809:30849  user.amount.mul(pool.accDRGPerShare).div */\n      tag_163\n      swap1\n        /* \"contracts/MetaMasterChef.sol\":30809:30855  user.amount.mul(pool.accDRGPerShare).div(1e12) */\n      swap2\n      swap1\n      0xffffffff\n      and\n      jump\t// in\n    tag_160:\n        /* \"contracts/MetaMasterChef.sol\":30809:30859  user.amount.mul(pool.accDRGPerShare).div(1e12).sub */\n      tag_164\n      swap1\n        /* \"contracts/MetaMasterChef.sol\":30809:30876  user.amount.mul(pool.accDRGPerShare).div(1e12).sub(user.rewardDebt) */\n      swap2\n      swap1\n      0xffffffff\n      and\n      jump\t// in\n    tag_159:\n        /* \"contracts/MetaMasterChef.sol\":30791:30876  uint256 pending = user.amount.mul(pool.accDRGPerShare).div(1e12).sub(user.rewardDebt) */\n      swap1\n      pop\n        /* \"contracts/MetaMasterChef.sol\":30904:30905  0 */\n      0x00\n        /* \"contracts/MetaMasterChef.sol\":30894:30901  pending */\n      dup2\n        /* \"contracts/MetaMasterChef.sol\":30894:30905  pending > 0 */\n      gt\n        /* \"contracts/MetaMasterChef.sol\":30891:30986  if(pending > 0){\r... */\n      iszero\n      tag_165\n      jumpi\n        /* \"contracts/MetaMasterChef.sol\":30925:30970  safeDRGTransfer(address(msg.sender), pending) */\n      tag_166\n        /* \"contracts/MetaMasterChef.sol\":30949:30959  msg.sender */\n      caller\n        /* \"contracts/MetaMasterChef.sol\":30962:30969  pending */\n      dup3\n        /* \"contracts/MetaMasterChef.sol\":30925:30940  safeDRGTransfer */\n      tag_167\n        /* \"contracts/MetaMasterChef.sol\":30925:30970  safeDRGTransfer(address(msg.sender), pending) */\n      jump\t// in\n    tag_166:\n        /* \"contracts/MetaMasterChef.sol\":30891:30986  if(pending > 0){\r... */\n    tag_165:\n        /* \"contracts/MetaMasterChef.sol\":30776:30997  {\r... */\n      pop\n        /* \"contracts/MetaMasterChef.sol\":30755:30997  if (user.amount > 0) {\r... */\n    tag_158:\n        /* \"contracts/MetaMasterChef.sol\":31081:31082  0 */\n      0x00\n        /* \"contracts/MetaMasterChef.sol\":31010:31014  pool */\n      dup3\n        /* \"contracts/MetaMasterChef.sol\":31010:31022  pool.lpToken */\n      0x00\n      add\n      0x00\n      swap1\n      sload\n      swap1\n      0x0100\n      exp\n      swap1\n      div\n      0xffffffffffffffffffffffffffffffffffffffff\n      and\n        /* \"contracts/MetaMasterChef.sol\":31010:31032  pool.lpToken.allowance */\n      0xffffffffffffffffffffffffffffffffffffffff\n      and\n      0xdd62ed3e\n        /* \"contracts/MetaMasterChef.sol\":31041:31045  this */\n      address\n        /* \"contracts/MetaMasterChef.sol\":31056:31060  pool */\n      dup6\n        /* \"contracts/MetaMasterChef.sol\":31056:31075  pool.poolMasterChef */\n      0x04\n      add\n      0x00\n      swap1\n      sload\n      swap1\n      0x0100\n      exp\n      swap1\n      div\n      0xffffffffffffffffffffffffffffffffffffffff\n      and\n        /* \"contracts/MetaMasterChef.sol\":31010:31077  pool.lpToken.allowance(address(this), address(pool.poolMasterChef)) */\n      mload(0x40)\n      dup4\n      0xffffffff\n      and\n      0xe0\n      shl\n      dup2\n      mstore\n      0x04\n      add\n      tag_168\n      swap3\n      swap2\n      swap1\n      tag_169\n      jump\t// in\n    tag_168:\n      0x20\n      mload(0x40)\n      dup1\n      dup4\n      sub\n      dup2\n      dup7\n      dup1\n      extcodesize\n      iszero\n      dup1\n      iszero\n      tag_170\n      jumpi\n      0x00\n      dup1\n      revert\n    tag_170:\n      pop\n      gas\n      staticcall\n      iszero\n      dup1\n      iszero\n      tag_172\n      jumpi\n      returndatasize\n      0x00\n      dup1\n      returndatacopy\n      revert(0x00, returndatasize)\n    tag_172:\n      pop\n      pop\n      pop\n      pop\n      mload(0x40)\n      returndatasize\n      not(0x1f)\n      0x1f\n      dup3\n      add\n      and\n      dup3\n      add\n      dup1\n      0x40\n      mstore\n      pop\n      dup2\n      add\n      swap1\n      tag_173\n      swap2\n      swap1\n      tag_174\n      jump\t// in\n    tag_173:\n        /* \"contracts/MetaMasterChef.sol\":31010:31082  pool.lpToken.allowance(address(this), address(pool.poolMasterChef)) <= 0 */\n      gt\n        /* \"contracts/MetaMasterChef.sol\":31007:31126  if(pool.lpToken.allowance(address(this), address(pool.poolMasterChef)) <= 0){\r... */\n      tag_175\n      jumpi\n        /* \"contracts/MetaMasterChef.sol\":31098:31114  enablePool(_pid) */\n      tag_176\n        /* \"contracts/MetaMasterChef.sol\":31109:31113  _pid */\n      dup6\n        /* \"contracts/MetaMasterChef.sol\":31098:31108  enablePool */\n      tag_148\n        /* \"contracts/MetaMasterChef.sol\":31098:31114  enablePool(_pid) */\n      jump\t// in\n    tag_176:\n        /* \"contracts/MetaMasterChef.sol\":31007:31126  if(pool.lpToken.allowance(address(this), address(pool.poolMasterChef)) <= 0){\r... */\n    tag_175:\n        /* \"contracts/MetaMasterChef.sol\":31136:31147  uint256 fee */\n      0x00\n        /* \"contracts/MetaMasterChef.sol\":31150:31181  _amount.mul(pool.fee).div(1000) */\n      tag_177\n        /* \"contracts/MetaMasterChef.sol\":31176:31180  1000 */\n      0x03e8\n        /* \"contracts/MetaMasterChef.sol\":31150:31171  _amount.mul(pool.fee) */\n      tag_178\n        /* \"contracts/MetaMasterChef.sol\":31162:31166  pool */\n      dup6\n        /* \"contracts/MetaMasterChef.sol\":31162:31170  pool.fee */\n      0x06\n      add\n      sload\n        /* \"contracts/MetaMasterChef.sol\":31150:31157  _amount */\n      dup8\n        /* \"contracts/MetaMasterChef.sol\":31150:31161  _amount.mul */\n      tag_162\n      swap1\n        /* \"contracts/MetaMasterChef.sol\":31150:31171  _amount.mul(pool.fee) */\n      swap2\n      swap1\n      0xffffffff\n      and\n      jump\t// in\n    tag_178:\n        /* \"contracts/MetaMasterChef.sol\":31150:31175  _amount.mul(pool.fee).div */\n      tag_163\n      swap1\n        /* \"contracts/MetaMasterChef.sol\":31150:31181  _amount.mul(pool.fee).div(1000) */\n      swap2\n      swap1\n      0xffffffff\n      and\n      jump\t// in\n    tag_177:\n        /* \"contracts/MetaMasterChef.sol\":31136:31181  uint256 fee = _amount.mul(pool.fee).div(1000) */\n      swap1\n      pop\n        /* \"contracts/MetaMasterChef.sol\":31192:31209  uint256 newAmount */\n      0x00\n        /* \"contracts/MetaMasterChef.sol\":31212:31228  _amount.sub(fee) */\n      tag_179\n        /* \"contracts/MetaMasterChef.sol\":31224:31227  fee */\n      dup3\n        /* \"contracts/MetaMasterChef.sol\":31212:31219  _amount */\n      dup7\n        /* \"contracts/MetaMasterChef.sol\":31212:31223  _amount.sub */\n      tag_164\n      swap1\n        /* \"contracts/MetaMasterChef.sol\":31212:31228  _amount.sub(fee) */\n      swap2\n      swap1\n      0xffffffff\n      and\n      jump\t// in\n    tag_179:\n        /* \"contracts/MetaMasterChef.sol\":31192:31228  uint256 newAmount = _amount.sub(fee) */\n      swap1\n      pop\n        /* \"contracts/MetaMasterChef.sol\":31239:31315  pool.lpToken.safeTransferFrom(address(msg.sender), address(this), newAmount) */\n      tag_180\n        /* \"contracts/MetaMasterChef.sol\":31277:31287  msg.sender */\n      caller\n        /* \"contracts/MetaMasterChef.sol\":31298:31302  this */\n      address\n        /* \"contracts/MetaMasterChef.sol\":31305:31314  newAmount */\n      dup4\n        /* \"contracts/MetaMasterChef.sol\":31239:31243  pool */\n      dup8\n        /* \"contracts/MetaMasterChef.sol\":31239:31251  pool.lpToken */\n      0x00\n      add\n      0x00\n      swap1\n      sload\n      swap1\n      0x0100\n      exp\n      swap1\n      div\n      0xffffffffffffffffffffffffffffffffffffffff\n      and\n        /* \"contracts/MetaMasterChef.sol\":31239:31268  pool.lpToken.safeTransferFrom */\n      0xffffffffffffffffffffffffffffffffffffffff\n      and\n      tag_181\n      swap1\n        /* \"contracts/MetaMasterChef.sol\":31239:31315  pool.lpToken.safeTransferFrom(address(msg.sender), address(this), newAmount) */\n      swap4\n      swap3\n      swap2\n      swap1\n      0xffffffff\n      and\n      jump\t// in\n    tag_180:\n        /* \"contracts/MetaMasterChef.sol\":31326:31399  pool.lpToken.safeTransferFrom(address(msg.sender), address(devaddr), fee) */\n      tag_182\n        /* \"contracts/MetaMasterChef.sol\":31364:31374  msg.sender */\n      caller\n        /* \"contracts/MetaMasterChef.sol\":31385:31392  devaddr */\n      0x03\n      0x00\n      swap1\n      sload\n      swap1\n      0x0100\n      exp\n      swap1\n      div\n      0xffffffffffffffffffffffffffffffffffffffff\n      and\n        /* \"contracts/MetaMasterChef.sol\":31395:31398  fee */\n      dup5\n        /* \"contracts/MetaMasterChef.sol\":31326:31330  pool */\n      dup8\n        /* \"contracts/MetaMasterChef.sol\":31326:31338  pool.lpToken */\n      0x00\n      add\n      0x00\n      swap1\n      sload\n      swap1\n      0x0100\n      exp\n      swap1\n      div\n      0xffffffffffffffffffffffffffffffffffffffff\n      and\n        /* \"contracts/MetaMasterChef.sol\":31326:31355  pool.lpToken.safeTransferFrom */\n      0xffffffffffffffffffffffffffffffffffffffff\n      and\n      tag_181\n      swap1\n        /* \"contracts/MetaMasterChef.sol\":31326:31399  pool.lpToken.safeTransferFrom(address(msg.sender), address(devaddr), fee) */\n      swap4\n      swap3\n      swap2\n      swap1\n      0xffffffff\n      and\n      jump\t// in\n    tag_182:\n        /* \"contracts/MetaMasterChef.sol\":31428:31429  0 */\n      0x00\n        /* \"contracts/MetaMasterChef.sol\":31413:31417  pool */\n      dup5\n        /* \"contracts/MetaMasterChef.sol\":31413:31424  pool.method */\n      0x07\n      add\n      sload\n        /* \"contracts/MetaMasterChef.sol\":31413:31429  pool.method == 0 */\n      eq\n        /* \"contracts/MetaMasterChef.sol\":31410:31578  if(pool.method == 0){\r... */\n      iszero\n      tag_183\n      jumpi\n        /* \"contracts/MetaMasterChef.sol\":31445:31449  pool */\n      dup4\n        /* \"contracts/MetaMasterChef.sol\":31445:31464  pool.poolMasterChef */\n      0x04\n      add\n      0x00\n      swap1\n      sload\n      swap1\n      0x0100\n      exp\n      swap1\n      div\n      0xffffffffffffffffffffffffffffffffffffffff\n      and\n        /* \"contracts/MetaMasterChef.sol\":31445:31477  pool.poolMasterChef.enterStaking */\n      0xffffffffffffffffffffffffffffffffffffffff\n      and\n      0x41441d3b\n        /* \"contracts/MetaMasterChef.sol\":31478:31487  newAmount */\n      dup3\n        /* \"contracts/MetaMasterChef.sol\":31445:31488  pool.poolMasterChef.enterStaking(newAmount) */\n      mload(0x40)\n      dup3\n      0xffffffff\n      and\n      0xe0\n      shl\n      dup2\n      mstore\n      0x04\n      add\n      tag_184\n      swap2\n      swap1\n      tag_48\n      jump\t// in\n    tag_184:\n      0x00\n      mload(0x40)\n      dup1\n      dup4\n      sub\n      dup2\n      0x00\n      dup8\n      dup1\n      extcodesize\n      iszero\n      dup1\n      iszero\n      tag_185\n      jumpi\n      0x00\n      dup1\n      revert\n    tag_185:\n      pop\n      gas\n      call\n      iszero\n      dup1\n      iszero\n      tag_187\n      jumpi\n      returndatasize\n      0x00\n      dup1\n      returndatacopy\n      revert(0x00, returndatasize)\n    tag_187:\n      pop\n      pop\n      pop\n      pop\n        /* \"contracts/MetaMasterChef.sol\":31410:31578  if(pool.method == 0){\r... */\n      jump(tag_188)\n    tag_183:\n        /* \"contracts/MetaMasterChef.sol\":31519:31523  pool */\n      dup4\n        /* \"contracts/MetaMasterChef.sol\":31519:31538  pool.poolMasterChef */\n      0x04\n      add\n      0x00\n      swap1\n      sload\n      swap1\n      0x0100\n      exp\n      swap1\n      div\n      0xffffffffffffffffffffffffffffffffffffffff\n      and\n        /* \"contracts/MetaMasterChef.sol\":31519:31546  pool.poolMasterChef.deposit */\n      0xffffffffffffffffffffffffffffffffffffffff\n      and\n      0xe2bbb158\n        /* \"contracts/MetaMasterChef.sol\":31547:31554  _BSWPid */\n      dup8\n        /* \"contracts/MetaMasterChef.sol\":31556:31565  newAmount */\n      dup4\n        /* \"contracts/MetaMasterChef.sol\":31519:31566  pool.poolMasterChef.deposit(_BSWPid, newAmount) */\n      mload(0x40)\n      dup4\n      0xffffffff\n      and\n      0xe0\n      shl\n      dup2\n      mstore\n      0x04\n      add\n      tag_189\n      swap3\n      swap2\n      swap1\n      tag_128\n      jump\t// in\n    tag_189:\n      0x00\n      mload(0x40)\n      dup1\n      dup4\n      sub\n      dup2\n      0x00\n      dup8\n      dup1\n      extcodesize\n      iszero\n      dup1\n      iszero\n      tag_190\n      jumpi\n      0x00\n      dup1\n      revert\n    tag_190:\n      pop\n      gas\n      call\n      iszero\n      dup1\n      iszero\n      tag_192\n      jumpi\n      returndatasize\n      0x00\n      dup1\n      returndatacopy\n      revert(0x00, returndatasize)\n    tag_192:\n      pop\n      pop\n      pop\n      pop\n        /* \"contracts/MetaMasterChef.sol\":31410:31578  if(pool.method == 0){\r... */\n    tag_188:\n        /* \"contracts/MetaMasterChef.sol\":31602:31628  user.amount.add(newAmount) */\n      tag_193\n        /* \"contracts/MetaMasterChef.sol\":31618:31627  newAmount */\n      dup2\n        /* \"contracts/MetaMasterChef.sol\":31602:31606  user */\n      dup5\n        /* \"contracts/MetaMasterChef.sol\":31602:31613  user.amount */\n      0x00\n      add\n      sload\n        /* \"contracts/MetaMasterChef.sol\":31602:31617  user.amount.add */\n      tag_194\n      swap1\n        /* \"contracts/MetaMasterChef.sol\":31602:31628  user.amount.add(newAmount) */\n      swap2\n      swap1\n      0xffffffff\n      and\n      jump\t// in\n    tag_193:\n        /* \"contracts/MetaMasterChef.sol\":31588:31592  user */\n      dup4\n        /* \"contracts/MetaMasterChef.sol\":31588:31599  user.amount */\n      0x00\n      add\n        /* \"contracts/MetaMasterChef.sol\":31588:31628  user.amount = user.amount.add(newAmount) */\n      dup2\n      swap1\n      sstore\n      pop\n        /* \"contracts/MetaMasterChef.sol\":31659:31691  poolBalance[_pid].add(newAmount) */\n      tag_195\n        /* \"contracts/MetaMasterChef.sol\":31681:31690  newAmount */\n      dup2\n        /* \"contracts/MetaMasterChef.sol\":31659:31670  poolBalance */\n      0x0b\n        /* \"contracts/MetaMasterChef.sol\":31659:31676  poolBalance[_pid] */\n      0x00\n        /* \"contracts/MetaMasterChef.sol\":31671:31675  _pid */\n      dup11\n        /* \"contracts/MetaMasterChef.sol\":31659:31676  poolBalance[_pid] */\n      dup2\n      mstore\n      0x20\n      add\n      swap1\n      dup2\n      mstore\n      0x20\n      add\n      0x00\n      keccak256\n      sload\n        /* \"contracts/MetaMasterChef.sol\":31659:31680  poolBalance[_pid].add */\n      tag_194\n      swap1\n        /* \"contracts/MetaMasterChef.sol\":31659:31691  poolBalance[_pid].add(newAmount) */\n      swap2\n      swap1\n      0xffffffff\n      and\n      jump\t// in\n    tag_195:\n        /* \"contracts/MetaMasterChef.sol\":31639:31650  poolBalance */\n      0x0b\n        /* \"contracts/MetaMasterChef.sol\":31639:31656  poolBalance[_pid] */\n      0x00\n        /* \"contracts/MetaMasterChef.sol\":31651:31655  _pid */\n      dup10\n        /* \"contracts/MetaMasterChef.sol\":31639:31656  poolBalance[_pid] */\n      dup2\n      mstore\n      0x20\n      add\n      swap1\n      dup2\n      mstore\n      0x20\n      add\n      0x00\n      keccak256\n        /* \"contracts/MetaMasterChef.sol\":31639:31691  poolBalance[_pid] = poolBalance[_pid].add(newAmount) */\n      dup2\n      swap1\n      sstore\n      pop\n        /* \"contracts/MetaMasterChef.sol\":31720:31766  user.amount.mul(pool.accDRGPerShare).div(1e12) */\n      tag_196\n        /* \"contracts/MetaMasterChef.sol\":31761:31765  1e12 */\n      0xe8d4a51000\n        /* \"contracts/MetaMasterChef.sol\":31720:31756  user.amount.mul(pool.accDRGPerShare) */\n      tag_197\n        /* \"contracts/MetaMasterChef.sol\":31736:31740  pool */\n      dup7\n        /* \"contracts/MetaMasterChef.sol\":31736:31755  pool.accDRGPerShare */\n      0x03\n      add\n      sload\n        /* \"contracts/MetaMasterChef.sol\":31720:31724  user */\n      dup7\n        /* \"contracts/MetaMasterChef.sol\":31720:31731  user.amount */\n      0x00\n      add\n      sload\n        /* \"contracts/MetaMasterChef.sol\":31720:31735  user.amount.mul */\n      tag_162\n      swap1\n        /* \"contracts/MetaMasterChef.sol\":31720:31756  user.amount.mul(pool.accDRGPerShare) */\n      swap2\n      swap1\n      0xffffffff\n      and\n      jump\t// in\n    tag_197:\n        /* \"contracts/MetaMasterChef.sol\":31720:31760  user.amount.mul(pool.accDRGPerShare).div */\n      tag_163\n      swap1\n        /* \"contracts/MetaMasterChef.sol\":31720:31766  user.amount.mul(pool.accDRGPerShare).div(1e12) */\n      swap2\n      swap1\n      0xffffffff\n      and\n      jump\t// in\n    tag_196:\n        /* \"contracts/MetaMasterChef.sol\":31702:31706  user */\n      dup4\n        /* \"contracts/MetaMasterChef.sol\":31702:31717  user.rewardDebt */\n      0x01\n      add\n        /* \"contracts/MetaMasterChef.sol\":31702:31766  user.rewardDebt = user.amount.mul(pool.accDRGPerShare).div(1e12) */\n      dup2\n      swap1\n      sstore\n      pop\n        /* \"contracts/MetaMasterChef.sol\":31777:31791  uint256 reward */\n      0x00\n        /* \"contracts/MetaMasterChef.sol\":31794:31798  pool */\n      dup5\n        /* \"contracts/MetaMasterChef.sol\":31794:31810  pool.rewardToken */\n      0x05\n      add\n      0x00\n      swap1\n      sload\n      swap1\n      0x0100\n      exp\n      swap1\n      div\n      0xffffffffffffffffffffffffffffffffffffffff\n      and\n        /* \"contracts/MetaMasterChef.sol\":31794:31820  pool.rewardToken.balanceOf */\n      0xffffffffffffffffffffffffffffffffffffffff\n      and\n      0x70a08231\n        /* \"contracts/MetaMasterChef.sol\":31829:31833  this */\n      address\n        /* \"contracts/MetaMasterChef.sol\":31794:31835  pool.rewardToken.balanceOf(address(this)) */\n      mload(0x40)\n      dup3\n      0xffffffff\n      and\n      0xe0\n      shl\n      dup2\n      mstore\n      0x04\n      add\n      tag_198\n      swap2\n      swap1\n      tag_118\n      jump\t// in\n    tag_198:\n      0x20\n      mload(0x40)\n      dup1\n      dup4\n      sub\n      dup2\n      dup7\n      dup1\n      extcodesize\n      iszero\n      dup1\n      iszero\n      tag_199\n      jumpi\n      0x00\n      dup1\n      revert\n    tag_199:\n      pop\n      gas\n      staticcall\n      iszero\n      dup1\n      iszero\n      tag_201\n      jumpi\n      returndatasize\n      0x00\n      dup1\n      returndatacopy\n      revert(0x00, returndatasize)\n    tag_201:\n      pop\n      pop\n      pop\n      pop\n      mload(0x40)\n      returndatasize\n      not(0x1f)\n      0x1f\n      dup3\n      add\n      and\n      dup3\n      add\n      dup1\n      0x40\n      mstore\n      pop\n      dup2\n      add\n      swap1\n      tag_202\n      swap2\n      swap1\n      tag_174\n      jump\t// in\n    tag_202:\n        /* \"contracts/MetaMasterChef.sol\":31777:31835  uint256 reward = pool.rewardToken.balanceOf(address(this)) */\n      swap1\n      pop\n        /* \"contracts/MetaMasterChef.sol\":31858:31859  0 */\n      0x00\n        /* \"contracts/MetaMasterChef.sol\":31849:31855  reward */\n      dup2\n        /* \"contracts/MetaMasterChef.sol\":31849:31859  reward > 0 */\n      gt\n        /* \"contracts/MetaMasterChef.sol\":31846:31942  if(reward > 0){\r... */\n      iszero\n      tag_203\n      jumpi\n        /* \"contracts/MetaMasterChef.sol\":31875:31930  pool.rewardToken.safeTransfer(address(devaddr), reward) */\n      tag_204\n        /* \"contracts/MetaMasterChef.sol\":31913:31920  devaddr */\n      0x03\n      0x00\n      swap1\n      sload\n      swap1\n      0x0100\n      exp\n      swap1\n      div\n      0xffffffffffffffffffffffffffffffffffffffff\n      and\n        /* \"contracts/MetaMasterChef.sol\":31923:31929  reward */\n      dup3\n        /* \"contracts/MetaMasterChef.sol\":31875:31879  pool */\n      dup8\n        /* \"contracts/MetaMasterChef.sol\":31875:31891  pool.rewardToken */\n      0x05\n      add\n      0x00\n      swap1\n      sload\n      swap1\n      0x0100\n      exp\n      swap1\n      div\n      0xffffffffffffffffffffffffffffffffffffffff\n      and\n        /* \"contracts/MetaMasterChef.sol\":31875:31904  pool.rewardToken.safeTransfer */\n      0xffffffffffffffffffffffffffffffffffffffff\n      and\n      tag_205\n      swap1\n        /* \"contracts/MetaMasterChef.sol\":31875:31930  pool.rewardToken.safeTransfer(address(devaddr), reward) */\n      swap3\n      swap2\n      swap1\n      0xffffffff\n      and\n      jump\t// in\n    tag_204:\n        /* \"contracts/MetaMasterChef.sol\":31846:31942  if(reward > 0){\r... */\n    tag_203:\n        /* \"contracts/MetaMasterChef.sol\":31977:31981  _pid */\n      dup8\n        /* \"contracts/MetaMasterChef.sol\":31965:31975  msg.sender */\n      caller\n        /* \"contracts/MetaMasterChef.sol\":31957:31993  Deposit(msg.sender, _pid, newAmount) */\n      0xffffffffffffffffffffffffffffffffffffffff\n      and\n      0x90890809c654f11d6e72a28fa60149770a0d11ec6c92319d6ceb2bb0a4ea1a15\n        /* \"contracts/MetaMasterChef.sol\":31983:31992  newAmount */\n      dup5\n        /* \"contracts/MetaMasterChef.sol\":31957:31993  Deposit(msg.sender, _pid, newAmount) */\n      mload(0x40)\n      tag_206\n      swap2\n      swap1\n      tag_48\n      jump\t// in\n    tag_206:\n      mload(0x40)\n      dup1\n      swap2\n      sub\n      swap1\n      log3\n        /* \"contracts/MetaMasterChef.sol\":30605:32001  {\r... */\n      pop\n      pop\n      pop\n      pop\n      pop\n        /* \"contracts/MetaMasterChef.sol\":30534:32001  function deposit(uint256 _pid,uint256 _BSWPid, uint256 _amount) public {\r... */\n      pop\n      pop\n      pop\n      jump\t// out\n        /* \"contracts/MetaMasterChef.sol\":25927:26022  function poolLength() external view returns (uint256) {\r... */\n    tag_46:\n        /* \"contracts/MetaMasterChef.sol\":25972:25979  uint256 */\n      0x00\n        /* \"contracts/MetaMasterChef.sol\":25999:26007  poolInfo */\n      0x07\n        /* \"contracts/MetaMasterChef.sol\":25999:26014  poolInfo.length */\n      dup1\n      sload\n      swap1\n      pop\n        /* \"contracts/MetaMasterChef.sol\":25992:26014  return poolInfo.length */\n      swap1\n      pop\n        /* \"contracts/MetaMasterChef.sol\":25927:26022  function poolLength() external view returns (uint256) {\r... */\n      swap1\n      jump\t// out\n        /* \"contracts/MetaMasterChef.sol\":34291:34396  function updateDRGPerBlock(uint256 newAmount) public onlyOwner {\r... */\n    tag_52:\n        /* \"contracts/MetaMasterChef.sol\":20336:20348  _msgSender() */\n      tag_209\n        /* \"contracts/MetaMasterChef.sol\":20336:20346  _msgSender */\n      tag_210\n        /* \"contracts/MetaMasterChef.sol\":20336:20348  _msgSender() */\n      jump\t// in\n    tag_209:\n        /* \"contracts/MetaMasterChef.sol\":20325:20348  owner() == _msgSender() */\n      0xffffffffffffffffffffffffffffffffffffffff\n      and\n        /* \"contracts/MetaMasterChef.sol\":20325:20332  owner() */\n      tag_211\n        /* \"contracts/MetaMasterChef.sol\":20325:20330  owner */\n      tag_116\n        /* \"contracts/MetaMasterChef.sol\":20325:20332  owner() */\n      jump\t// in\n    tag_211:\n        /* \"contracts/MetaMasterChef.sol\":20325:20348  owner() == _msgSender() */\n      0xffffffffffffffffffffffffffffffffffffffff\n      and\n      eq\n        /* \"contracts/MetaMasterChef.sol\":20317:20385  require(owner() == _msgSender(), \"Ownable: caller is not the owner\") */\n      tag_212\n      jumpi\n      mload(0x40)\n      0x08c379a000000000000000000000000000000000000000000000000000000000\n      dup2\n      mstore\n      0x04\n      add\n      tag_213\n      swap1\n      tag_214\n      jump\t// in\n    tag_213:\n      mload(0x40)\n      dup1\n      swap2\n      sub\n      swap1\n      revert\n    tag_212:\n        /* \"contracts/MetaMasterChef.sol\":34379:34388  newAmount */\n      dup1\n        /* \"contracts/MetaMasterChef.sol\":34365:34376  DRGPerBlock */\n      0x04\n        /* \"contracts/MetaMasterChef.sol\":34365:34388  DRGPerBlock = newAmount */\n      dup2\n      swap1\n      sstore\n      pop\n        /* \"contracts/MetaMasterChef.sol\":34291:34396  function updateDRGPerBlock(uint256 newAmount) public onlyOwner {\r... */\n      pop\n      jump\t// out\n        /* \"contracts/MetaMasterChef.sol\":24266:24283  IERC20 public DRG */\n    tag_54:\n      0x02\n      0x00\n      swap1\n      sload\n      swap1\n      0x0100\n      exp\n      swap1\n      div\n      0xffffffffffffffffffffffffffffffffffffffff\n      and\n      dup2\n      jump\t// out\n        /* \"contracts/MetaMasterChef.sol\":24660:24686  PoolInfo[] public poolInfo */\n    tag_59:\n      0x07\n      dup2\n      dup2\n      sload\n      dup2\n      lt\n      tag_216\n      jumpi\n      0x00\n      dup1\n      revert\n    tag_216:\n      swap1\n      0x00\n      mstore\n      keccak256(0x00, 0x20)\n      swap1\n      0x08\n      mul\n      add\n      0x00\n      swap2\n      pop\n      swap1\n      pop\n      dup1\n      0x00\n      add\n      0x00\n      swap1\n      sload\n      swap1\n      0x0100\n      exp\n      swap1\n      div\n      0xffffffffffffffffffffffffffffffffffffffff\n      and\n      swap1\n      dup1\n      0x01\n      add\n      sload\n      swap1\n      dup1\n      0x02\n      add\n      sload\n      swap1\n      dup1\n      0x03\n      add\n      sload\n      swap1\n      dup1\n      0x04\n      add\n      0x00\n      swap1\n      sload\n      swap1\n      0x0100\n      exp\n      swap1\n      div\n      0xffffffffffffffffffffffffffffffffffffffff\n      and\n      swap1\n      dup1\n      0x05\n      add\n      0x00\n      swap1\n      sload\n      swap1\n      0x0100\n      exp\n      swap1\n      div\n      0xffffffffffffffffffffffffffffffffffffffff\n      and\n      swap1\n      dup1\n      0x06\n      add\n      sload\n      swap1\n      dup1\n      0x07\n      add\n      sload\n      swap1\n      pop\n      dup9\n      jump\t// out\n        /* \"contracts/MetaMasterChef.sol\":24901:24935  uint256 public totalAllocPoint = 0 */\n    tag_63:\n      sload(0x09)\n      dup2\n      jump\t// out\n        /* \"contracts/MetaMasterChef.sol\":27463:27565  function setMigrator(IMigratorChef _migrator) public onlyOwner {\r... */\n    tag_68:\n        /* \"contracts/MetaMasterChef.sol\":20336:20348  _msgSender() */\n      tag_219\n        /* \"contracts/MetaMasterChef.sol\":20336:20346  _msgSender */\n      tag_210\n        /* \"contracts/MetaMasterChef.sol\":20336:20348  _msgSender() */\n      jump\t// in\n    tag_219:\n        /* \"contracts/MetaMasterChef.sol\":20325:20348  owner() == _msgSender() */\n      0xffffffffffffffffffffffffffffffffffffffff\n      and\n        /* \"contracts/MetaMasterChef.sol\":20325:20332  owner() */\n      tag_220\n        /* \"contracts/MetaMasterChef.sol\":20325:20330  owner */\n      tag_116\n        /* \"contracts/MetaMasterChef.sol\":20325:20332  owner() */\n      jump\t// in\n    tag_220:\n        /* \"contracts/MetaMasterChef.sol\":20325:20348  owner() == _msgSender() */\n      0xffffffffffffffffffffffffffffffffffffffff\n      and\n      eq\n        /* \"contracts/MetaMasterChef.sol\":20317:20385  require(owner() == _msgSender(), \"Ownable: caller is not the owner\") */\n      tag_221\n      jumpi\n      mload(0x40)\n      0x08c379a000000000000000000000000000000000000000000000000000000000\n      dup2\n      mstore\n      0x04\n      add\n      tag_222\n      swap1\n      tag_214\n      jump\t// in\n    tag_222:\n      mload(0x40)\n      dup1\n      swap2\n      sub\n      swap1\n      revert\n    tag_221:\n        /* \"contracts/MetaMasterChef.sol\":27548:27557  _migrator */\n      dup1\n        /* \"contracts/MetaMasterChef.sol\":27537:27545  migrator */\n      0x06\n      0x00\n        /* \"contracts/MetaMasterChef.sol\":27537:27557  migrator = _migrator */\n      0x0100\n      exp\n      dup2\n      sload\n      dup2\n      0xffffffffffffffffffffffffffffffffffffffff\n      mul\n      not\n      and\n      swap1\n      dup4\n      0xffffffffffffffffffffffffffffffffffffffff\n      and\n      mul\n      or\n      swap1\n      sstore\n      pop\n        /* \"contracts/MetaMasterChef.sol\":27463:27565  function setMigrator(IMigratorChef _migrator) public onlyOwner {\r... */\n      pop\n      jump\t// out\n        /* \"contracts/MetaMasterChef.sol\":27688:28164  function migrate(uint256 _pid) public {\r... */\n    tag_71:\n        /* \"contracts/MetaMasterChef.sol\":27774:27775  0 */\n      0x00\n        /* \"contracts/MetaMasterChef.sol\":27745:27776  address(migrator) != address(0) */\n      0xffffffffffffffffffffffffffffffffffffffff\n      and\n        /* \"contracts/MetaMasterChef.sol\":27753:27761  migrator */\n      0x06\n      0x00\n      swap1\n      sload\n      swap1\n      0x0100\n      exp\n      swap1\n      div\n      0xffffffffffffffffffffffffffffffffffffffff\n      and\n        /* \"contracts/MetaMasterChef.sol\":27745:27776  address(migrator) != address(0) */\n      0xffffffffffffffffffffffffffffffffffffffff\n      and\n      eq\n      iszero\n        /* \"contracts/MetaMasterChef.sol\":27737:27801  require(address(migrator) != address(0), \"migrate: no migrator\") */\n      tag_225\n      jumpi\n      mload(0x40)\n      0x08c379a000000000000000000000000000000000000000000000000000000000\n      dup2\n      mstore\n      0x04\n      add\n      tag_226\n      swap1\n      tag_227\n      jump\t// in\n    tag_226:\n      mload(0x40)\n      dup1\n      swap2\n      sub\n      swap1\n      revert\n    tag_225:\n        /* \"contracts/MetaMasterChef.sol\":27812:27833  PoolInfo storage pool */\n      0x00\n        /* \"contracts/MetaMasterChef.sol\":27836:27844  poolInfo */\n      0x07\n        /* \"contracts/MetaMasterChef.sol\":27845:27849  _pid */\n      dup3\n        /* \"contracts/MetaMasterChef.sol\":27836:27850  poolInfo[_pid] */\n      dup2\n      sload\n      dup2\n      lt\n      tag_228\n      jumpi\n      tag_229\n      tag_155\n      jump\t// in\n    tag_229:\n    tag_228:\n      swap1\n      0x00\n      mstore\n      keccak256(0x00, 0x20)\n      swap1\n      0x08\n      mul\n      add\n        /* \"contracts/MetaMasterChef.sol\":27812:27850  PoolInfo storage pool = poolInfo[_pid] */\n      swap1\n      pop\n        /* \"contracts/MetaMasterChef.sol\":27861:27875  IERC20 lpToken */\n      0x00\n        /* \"contracts/MetaMasterChef.sol\":27878:27882  pool */\n      dup2\n        /* \"contracts/MetaMasterChef.sol\":27878:27890  pool.lpToken */\n      0x00\n      add\n      0x00\n      swap1\n      sload\n      swap1\n      0x0100\n      exp\n      swap1\n      div\n      0xffffffffffffffffffffffffffffffffffffffff\n      and\n        /* \"contracts/MetaMasterChef.sol\":27861:27890  IERC20 lpToken = pool.lpToken */\n      swap1\n      pop\n        /* \"contracts/MetaMasterChef.sol\":27901:27912  uint256 bal */\n      0x00\n        /* \"contracts/MetaMasterChef.sol\":27915:27926  poolBalance */\n      0x0b\n        /* \"contracts/MetaMasterChef.sol\":27915:27932  poolBalance[_pid] */\n      0x00\n        /* \"contracts/MetaMasterChef.sol\":27927:27931  _pid */\n      dup6\n        /* \"contracts/MetaMasterChef.sol\":27915:27932  poolBalance[_pid] */\n      dup2\n      mstore\n      0x20\n      add\n      swap1\n      dup2\n      mstore\n      0x20\n      add\n      0x00\n      keccak256\n      sload\n        /* \"contracts/MetaMasterChef.sol\":27901:27932  uint256 bal = poolBalance[_pid] */\n      swap1\n      pop\n        /* \"contracts/MetaMasterChef.sol\":27943:27986  lpToken.safeApprove(address(migrator), bal) */\n      tag_231\n        /* \"contracts/MetaMasterChef.sol\":27971:27979  migrator */\n      0x06\n      0x00\n      swap1\n      sload\n      swap1\n      0x0100\n      exp\n      swap1\n      div\n      0xffffffffffffffffffffffffffffffffffffffff\n      and\n        /* \"contracts/MetaMasterChef.sol\":27982:27985  bal */\n      dup3\n        /* \"contracts/MetaMasterChef.sol\":27943:27950  lpToken */\n      dup5\n        /* \"contracts/MetaMasterChef.sol\":27943:27962  lpToken.safeApprove */\n      0xffffffffffffffffffffffffffffffffffffffff\n      and\n      tag_232\n      swap1\n        /* \"contracts/MetaMasterChef.sol\":27943:27986  lpToken.safeApprove(address(migrator), bal) */\n      swap3\n      swap2\n      swap1\n      0xffffffff\n      and\n      jump\t// in\n    tag_231:\n        /* \"contracts/MetaMasterChef.sol\":27997:28014  IERC20 newLpToken */\n      0x00\n        /* \"contracts/MetaMasterChef.sol\":28017:28025  migrator */\n      0x06\n      0x00\n      swap1\n      sload\n      swap1\n      0x0100\n      exp\n      swap1\n      div\n      0xffffffffffffffffffffffffffffffffffffffff\n      and\n        /* \"contracts/MetaMasterChef.sol\":28017:28033  migrator.migrate */\n      0xffffffffffffffffffffffffffffffffffffffff\n      and\n      0xce5494bb\n        /* \"contracts/MetaMasterChef.sol\":28034:28041  lpToken */\n      dup5\n        /* \"contracts/MetaMasterChef.sol\":28017:28042  migrator.migrate(lpToken) */\n      mload(0x40)\n      dup3\n      0xffffffff\n      and\n      0xe0\n      shl\n      dup2\n      mstore\n      0x04\n      add\n      tag_233\n      swap2\n      swap1\n      tag_56\n      jump\t// in\n    tag_233:\n      0x20\n      mload(0x40)\n      dup1\n      dup4\n      sub\n      dup2\n      0x00\n      dup8\n      dup1\n      extcodesize\n      iszero\n      dup1\n      iszero\n      tag_234\n      jumpi\n      0x00\n      dup1\n      revert\n    tag_234:\n      pop\n      gas\n      call\n      iszero\n      dup1\n      iszero\n      tag_236\n      jumpi\n      returndatasize\n      0x00\n      dup1\n      returndatacopy\n      revert(0x00, returndatasize)\n    tag_236:\n      pop\n      pop\n      pop\n      pop\n      mload(0x40)\n      returndatasize\n      not(0x1f)\n      0x1f\n      dup3\n      add\n      and\n      dup3\n      add\n      dup1\n      0x40\n      mstore\n      pop\n      dup2\n      add\n      swap1\n      tag_237\n      swap2\n      swap1\n      tag_238\n      jump\t// in\n    tag_237:\n        /* \"contracts/MetaMasterChef.sol\":27997:28042  IERC20 newLpToken = migrator.migrate(lpToken) */\n      swap1\n      pop\n        /* \"contracts/MetaMasterChef.sol\":28068:28078  newLpToken */\n      dup1\n        /* \"contracts/MetaMasterChef.sol\":28068:28088  newLpToken.balanceOf */\n      0xffffffffffffffffffffffffffffffffffffffff\n      and\n      0x70a08231\n        /* \"contracts/MetaMasterChef.sol\":28097:28101  this */\n      address\n        /* \"contracts/MetaMasterChef.sol\":28068:28103  newLpToken.balanceOf(address(this)) */\n      mload(0x40)\n      dup3\n      0xffffffff\n      and\n      0xe0\n      shl\n      dup2\n      mstore\n      0x04\n      add\n      tag_239\n      swap2\n      swap1\n      tag_118\n      jump\t// in\n    tag_239:\n      0x20\n      mload(0x40)\n      dup1\n      dup4\n      sub\n      dup2\n      dup7\n      dup1\n      extcodesize\n      iszero\n      dup1\n      iszero\n      tag_240\n      jumpi\n      0x00\n      dup1\n      revert\n    tag_240:\n      pop\n      gas\n      staticcall\n      iszero\n      dup1\n      iszero\n      tag_242\n      jumpi\n      returndatasize\n      0x00\n      dup1\n      returndatacopy\n      revert(0x00, returndatasize)\n    tag_242:\n      pop\n      pop\n      pop\n      pop\n      mload(0x40)\n      returndatasize\n      not(0x1f)\n      0x1f\n      dup3\n      add\n      and\n      dup3\n      add\n      dup1\n      0x40\n      mstore\n      pop\n      dup2\n      add\n      swap1\n      tag_243\n      swap2\n      swap1\n      tag_174\n      jump\t// in\n    tag_243:\n        /* \"contracts/MetaMasterChef.sol\":28061:28064  bal */\n      dup3\n        /* \"contracts/MetaMasterChef.sol\":28061:28103  bal == newLpToken.balanceOf(address(this)) */\n      eq\n        /* \"contracts/MetaMasterChef.sol\":28053:28120  require(bal == newLpToken.balanceOf(address(this)), \"migrate: bad\") */\n      tag_244\n      jumpi\n      mload(0x40)\n      0x08c379a000000000000000000000000000000000000000000000000000000000\n      dup2\n      mstore\n      0x04\n      add\n      tag_245\n      swap1\n      tag_246\n      jump\t// in\n    tag_245:\n      mload(0x40)\n      dup1\n      swap2\n      sub\n      swap1\n      revert\n    tag_244:\n        /* \"contracts/MetaMasterChef.sol\":28146:28156  newLpToken */\n      dup1\n        /* \"contracts/MetaMasterChef.sol\":28131:28135  pool */\n      dup5\n        /* \"contracts/MetaMasterChef.sol\":28131:28143  pool.lpToken */\n      0x00\n      add\n      0x00\n        /* \"contracts/MetaMasterChef.sol\":28131:28156  pool.lpToken = newLpToken */\n      0x0100\n      exp\n      dup2\n      sload\n      dup2\n      0xffffffffffffffffffffffffffffffffffffffff\n      mul\n      not\n      and\n      swap1\n      dup4\n      0xffffffffffffffffffffffffffffffffffffffff\n      and\n      mul\n      or\n      swap1\n      sstore\n      pop\n        /* \"contracts/MetaMasterChef.sol\":27726:28164  {\r... */\n      pop\n      pop\n      pop\n      pop\n        /* \"contracts/MetaMasterChef.sol\":27688:28164  function migrate(uint256 _pid) public {\r... */\n      pop\n      jump\t// out\n        /* \"contracts/MetaMasterChef.sol\":24991:25016  uint256 public startBlock */\n    tag_73:\n      sload(0x0a)\n      dup2\n      jump\t// out\n        /* \"contracts/MetaMasterChef.sol\":28447:29176  function pendingDRG(uint256 _pid, address _user) external view returns (uint256){\r... */\n    tag_78:\n        /* \"contracts/MetaMasterChef.sol\":28519:28526  uint256 */\n      0x00\n        /* \"contracts/MetaMasterChef.sol\":28538:28559  PoolInfo storage pool */\n      dup1\n        /* \"contracts/MetaMasterChef.sol\":28562:28570  poolInfo */\n      0x07\n        /* \"contracts/MetaMasterChef.sol\":28571:28575  _pid */\n      dup5\n        /* \"contracts/MetaMasterChef.sol\":28562:28576  poolInfo[_pid] */\n      dup2\n      sload\n      dup2\n      lt\n      tag_248\n      jumpi\n      tag_249\n      tag_155\n      jump\t// in\n    tag_249:\n    tag_248:\n      swap1\n      0x00\n      mstore\n      keccak256(0x00, 0x20)\n      swap1\n      0x08\n      mul\n      add\n        /* \"contracts/MetaMasterChef.sol\":28538:28576  PoolInfo storage pool = poolInfo[_pid] */\n      swap1\n      pop\n        /* \"contracts/MetaMasterChef.sol\":28587:28608  UserInfo storage user */\n      0x00\n        /* \"contracts/MetaMasterChef.sol\":28611:28619  userInfo */\n      0x08\n        /* \"contracts/MetaMasterChef.sol\":28611:28625  userInfo[_pid] */\n      0x00\n        /* \"contracts/MetaMasterChef.sol\":28620:28624  _pid */\n      dup7\n        /* \"contracts/MetaMasterChef.sol\":28611:28625  userInfo[_pid] */\n      dup2\n      mstore\n      0x20\n      add\n      swap1\n      dup2\n      mstore\n      0x20\n      add\n      0x00\n      keccak256\n        /* \"contracts/MetaMasterChef.sol\":28611:28632  userInfo[_pid][_user] */\n      0x00\n        /* \"contracts/MetaMasterChef.sol\":28626:28631  _user */\n      dup6\n        /* \"contracts/MetaMasterChef.sol\":28611:28632  userInfo[_pid][_user] */\n      0xffffffffffffffffffffffffffffffffffffffff\n      and\n      0xffffffffffffffffffffffffffffffffffffffff\n      and\n      dup2\n      mstore\n      0x20\n      add\n      swap1\n      dup2\n      mstore\n      0x20\n      add\n      0x00\n      keccak256\n        /* \"contracts/MetaMasterChef.sol\":28587:28632  UserInfo storage user = userInfo[_pid][_user] */\n      swap1\n      pop\n        /* \"contracts/MetaMasterChef.sol\":28643:28665  uint256 accDRGPerShare */\n      0x00\n        /* \"contracts/MetaMasterChef.sol\":28668:28672  pool */\n      dup3\n        /* \"contracts/MetaMasterChef.sol\":28668:28687  pool.accDRGPerShare */\n      0x03\n      add\n      sload\n        /* \"contracts/MetaMasterChef.sol\":28643:28687  uint256 accDRGPerShare = pool.accDRGPerShare */\n      swap1\n      pop\n        /* \"contracts/MetaMasterChef.sol\":28698:28714  uint256 lpSupply */\n      0x00\n        /* \"contracts/MetaMasterChef.sol\":28717:28728  poolBalance */\n      0x0b\n        /* \"contracts/MetaMasterChef.sol\":28717:28734  poolBalance[_pid] */\n      0x00\n        /* \"contracts/MetaMasterChef.sol\":28729:28733  _pid */\n      dup9\n        /* \"contracts/MetaMasterChef.sol\":28717:28734  poolBalance[_pid] */\n      dup2\n      mstore\n      0x20\n      add\n      swap1\n      dup2\n      mstore\n      0x20\n      add\n      0x00\n      keccak256\n      sload\n        /* \"contracts/MetaMasterChef.sol\":28698:28734  uint256 lpSupply = poolBalance[_pid] */\n      swap1\n      pop\n        /* \"contracts/MetaMasterChef.sol\":28764:28768  pool */\n      dup4\n        /* \"contracts/MetaMasterChef.sol\":28764:28784  pool.lastRewardBlock */\n      0x02\n      add\n      sload\n        /* \"contracts/MetaMasterChef.sol\":28749:28761  block.number */\n      number\n        /* \"contracts/MetaMasterChef.sol\":28749:28784  block.number > pool.lastRewardBlock */\n      gt\n        /* \"contracts/MetaMasterChef.sol\":28749:28801  block.number > pool.lastRewardBlock && lpSupply != 0 */\n      dup1\n      iszero\n      tag_251\n      jumpi\n      pop\n        /* \"contracts/MetaMasterChef.sol\":28800:28801  0 */\n      0x00\n        /* \"contracts/MetaMasterChef.sol\":28788:28796  lpSupply */\n      dup2\n        /* \"contracts/MetaMasterChef.sol\":28788:28801  lpSupply != 0 */\n      eq\n      iszero\n        /* \"contracts/MetaMasterChef.sol\":28749:28801  block.number > pool.lastRewardBlock && lpSupply != 0 */\n    tag_251:\n        /* \"contracts/MetaMasterChef.sol\":28745:29089  if (block.number > pool.lastRewardBlock && lpSupply != 0) {\r... */\n      iszero\n      tag_252\n      jumpi\n        /* \"contracts/MetaMasterChef.sol\":28818:28836  uint256 multiplier */\n      0x00\n        /* \"contracts/MetaMasterChef.sol\":28839:28888  getMultiplier(pool.lastRewardBlock, block.number) */\n      tag_253\n        /* \"contracts/MetaMasterChef.sol\":28853:28857  pool */\n      dup6\n        /* \"contracts/MetaMasterChef.sol\":28853:28873  pool.lastRewardBlock */\n      0x02\n      add\n      sload\n        /* \"contracts/MetaMasterChef.sol\":28875:28887  block.number */\n      number\n        /* \"contracts/MetaMasterChef.sol\":28839:28852  getMultiplier */\n      tag_122\n        /* \"contracts/MetaMasterChef.sol\":28839:28888  getMultiplier(pool.lastRewardBlock, block.number) */\n      jump\t// in\n    tag_253:\n        /* \"contracts/MetaMasterChef.sol\":28818:28888  uint256 multiplier = getMultiplier(pool.lastRewardBlock, block.number) */\n      swap1\n      pop\n        /* \"contracts/MetaMasterChef.sol\":28903:28920  uint256 DRGReward */\n      0x00\n        /* \"contracts/MetaMasterChef.sol\":28923:28992  multiplier.mul(DRGPerBlock).mul(pool.allocPoint).div(totalAllocPoint) */\n      tag_254\n        /* \"contracts/MetaMasterChef.sol\":28976:28991  totalAllocPoint */\n      sload(0x09)\n        /* \"contracts/MetaMasterChef.sol\":28923:28971  multiplier.mul(DRGPerBlock).mul(pool.allocPoint) */\n      tag_255\n        /* \"contracts/MetaMasterChef.sol\":28955:28959  pool */\n      dup9\n        /* \"contracts/MetaMasterChef.sol\":28955:28970  pool.allocPoint */\n      0x01\n      add\n      sload\n        /* \"contracts/MetaMasterChef.sol\":28923:28950  multiplier.mul(DRGPerBlock) */\n      tag_256\n        /* \"contracts/MetaMasterChef.sol\":28938:28949  DRGPerBlock */\n      sload(0x04)\n        /* \"contracts/MetaMasterChef.sol\":28923:28933  multiplier */\n      dup8\n        /* \"contracts/MetaMasterChef.sol\":28923:28937  multiplier.mul */\n      tag_162\n      swap1\n        /* \"contracts/MetaMasterChef.sol\":28923:28950  multiplier.mul(DRGPerBlock) */\n      swap2\n      swap1\n      0xffffffff\n      and\n      jump\t// in\n    tag_256:\n        /* \"contracts/MetaMasterChef.sol\":28923:28954  multiplier.mul(DRGPerBlock).mul */\n      tag_162\n      swap1\n        /* \"contracts/MetaMasterChef.sol\":28923:28971  multiplier.mul(DRGPerBlock).mul(pool.allocPoint) */\n      swap2\n      swap1\n      0xffffffff\n      and\n      jump\t// in\n    tag_255:\n        /* \"contracts/MetaMasterChef.sol\":28923:28975  multiplier.mul(DRGPerBlock).mul(pool.allocPoint).div */\n      tag_163\n      swap1\n        /* \"contracts/MetaMasterChef.sol\":28923:28992  multiplier.mul(DRGPerBlock).mul(pool.allocPoint).div(totalAllocPoint) */\n      swap2\n      swap1\n      0xffffffff\n      and\n      jump\t// in\n    tag_254:\n        /* \"contracts/MetaMasterChef.sol\":28903:28992  uint256 DRGReward = multiplier.mul(DRGPerBlock).mul(pool.allocPoint).div(totalAllocPoint) */\n      swap1\n      pop\n        /* \"contracts/MetaMasterChef.sol\":29024:29077  accDRGPerShare.add(DRGReward.mul(1e12).div(lpSupply)) */\n      tag_257\n        /* \"contracts/MetaMasterChef.sol\":29043:29076  DRGReward.mul(1e12).div(lpSupply) */\n      tag_258\n        /* \"contracts/MetaMasterChef.sol\":29067:29075  lpSupply */\n      dup5\n        /* \"contracts/MetaMasterChef.sol\":29043:29062  DRGReward.mul(1e12) */\n      tag_259\n        /* \"contracts/MetaMasterChef.sol\":29057:29061  1e12 */\n      0xe8d4a51000\n        /* \"contracts/MetaMasterChef.sol\":29043:29052  DRGReward */\n      dup6\n        /* \"contracts/MetaMasterChef.sol\":29043:29056  DRGReward.mul */\n      tag_162\n      swap1\n        /* \"contracts/MetaMasterChef.sol\":29043:29062  DRGReward.mul(1e12) */\n      swap2\n      swap1\n      0xffffffff\n      and\n      jump\t// in\n    tag_259:\n        /* \"contracts/MetaMasterChef.sol\":29043:29066  DRGReward.mul(1e12).div */\n      tag_163\n      swap1\n        /* \"contracts/MetaMasterChef.sol\":29043:29076  DRGReward.mul(1e12).div(lpSupply) */\n      swap2\n      swap1\n      0xffffffff\n      and\n      jump\t// in\n    tag_258:\n        /* \"contracts/MetaMasterChef.sol\":29024:29038  accDRGPerShare */\n      dup6\n        /* \"contracts/MetaMasterChef.sol\":29024:29042  accDRGPerShare.add */\n      tag_194\n      swap1\n        /* \"contracts/MetaMasterChef.sol\":29024:29077  accDRGPerShare.add(DRGReward.mul(1e12).div(lpSupply)) */\n      swap2\n      swap1\n      0xffffffff\n      and\n      jump\t// in\n    tag_257:\n        /* \"contracts/MetaMasterChef.sol\":29007:29077  accDRGPerShare = accDRGPerShare.add(DRGReward.mul(1e12).div(lpSupply)) */\n      swap4\n      pop\n        /* \"contracts/MetaMasterChef.sol\":28803:29089  {\r... */\n      pop\n      pop\n        /* \"contracts/MetaMasterChef.sol\":28745:29089  if (block.number > pool.lastRewardBlock && lpSupply != 0) {\r... */\n    tag_252:\n        /* \"contracts/MetaMasterChef.sol\":29106:29168  user.amount.mul(accDRGPerShare).div(1e12).sub(user.rewardDebt) */\n      tag_260\n        /* \"contracts/MetaMasterChef.sol\":29152:29156  user */\n      dup4\n        /* \"contracts/MetaMasterChef.sol\":29152:29167  user.rewardDebt */\n      0x01\n      add\n      sload\n        /* \"contracts/MetaMasterChef.sol\":29106:29147  user.amount.mul(accDRGPerShare).div(1e12) */\n      tag_261\n        /* \"contracts/MetaMasterChef.sol\":29142:29146  1e12 */\n      0xe8d4a51000\n        /* \"contracts/MetaMasterChef.sol\":29106:29137  user.amount.mul(accDRGPerShare) */\n      tag_262\n        /* \"contracts/MetaMasterChef.sol\":29122:29136  accDRGPerShare */\n      dup7\n        /* \"contracts/MetaMasterChef.sol\":29106:29110  user */\n      dup9\n        /* \"contracts/MetaMasterChef.sol\":29106:29117  user.amount */\n      0x00\n      add\n      sload\n        /* \"contracts/MetaMasterChef.sol\":29106:29121  user.amount.mul */\n      tag_162\n      swap1\n        /* \"contracts/MetaMasterChef.sol\":29106:29137  user.amount.mul(accDRGPerShare) */\n      swap2\n      swap1\n      0xffffffff\n      and\n      jump\t// in\n    tag_262:\n        /* \"contracts/MetaMasterChef.sol\":29106:29141  user.amount.mul(accDRGPerShare).div */\n      tag_163\n      swap1\n        /* \"contracts/MetaMasterChef.sol\":29106:29147  user.amount.mul(accDRGPerShare).div(1e12) */\n      swap2\n      swap1\n      0xffffffff\n      and\n      jump\t// in\n    tag_261:\n        /* \"contracts/MetaMasterChef.sol\":29106:29151  user.amount.mul(accDRGPerShare).div(1e12).sub */\n      tag_164\n      swap1\n        /* \"contracts/MetaMasterChef.sol\":29106:29168  user.amount.mul(accDRGPerShare).div(1e12).sub(user.rewardDebt) */\n      swap2\n      swap1\n      0xffffffff\n      and\n      jump\t// in\n    tag_260:\n        /* \"contracts/MetaMasterChef.sol\":29099:29168  return user.amount.mul(accDRGPerShare).div(1e12).sub(user.rewardDebt) */\n      swap5\n      pop\n      pop\n      pop\n      pop\n      pop\n        /* \"contracts/MetaMasterChef.sol\":28447:29176  function pendingDRG(uint256 _pid, address _user) external view returns (uint256){\r... */\n      swap3\n      swap2\n      pop\n      pop\n      jump\t// out\n        /* \"contracts/MetaMasterChef.sol\":29515:30220  function updatePool(uint256 _pid) public {\r... */\n    tag_82:\n        /* \"contracts/MetaMasterChef.sol\":29567:29588  PoolInfo storage pool */\n      0x00\n        /* \"contracts/MetaMasterChef.sol\":29591:29599  poolInfo */\n      0x07\n        /* \"contracts/MetaMasterChef.sol\":29600:29604  _pid */\n      dup3\n        /* \"contracts/MetaMasterChef.sol\":29591:29605  poolInfo[_pid] */\n      dup2\n      sload\n      dup2\n      lt\n      tag_264\n      jumpi\n      tag_265\n      tag_155\n      jump\t// in\n    tag_265:\n    tag_264:\n      swap1\n      0x00\n      mstore\n      keccak256(0x00, 0x20)\n      swap1\n      0x08\n      mul\n      add\n        /* \"contracts/MetaMasterChef.sol\":29567:29605  PoolInfo storage pool = poolInfo[_pid] */\n      swap1\n      pop\n        /* \"contracts/MetaMasterChef.sol\":29636:29640  pool */\n      dup1\n        /* \"contracts/MetaMasterChef.sol\":29636:29656  pool.lastRewardBlock */\n      0x02\n      add\n      sload\n        /* \"contracts/MetaMasterChef.sol\":29620:29632  block.number */\n      number\n        /* \"contracts/MetaMasterChef.sol\":29620:29656  block.number <= pool.lastRewardBlock */\n      gt\n        /* \"contracts/MetaMasterChef.sol\":29616:29691  if (block.number <= pool.lastRewardBlock) {\r... */\n      tag_267\n      jumpi\n        /* \"contracts/MetaMasterChef.sol\":29673:29680  return; */\n      pop\n      jump(tag_263)\n        /* \"contracts/MetaMasterChef.sol\":29616:29691  if (block.number <= pool.lastRewardBlock) {\r... */\n    tag_267:\n        /* \"contracts/MetaMasterChef.sol\":29701:29717  uint256 lpSupply */\n      0x00\n        /* \"contracts/MetaMasterChef.sol\":29720:29731  poolBalance */\n      0x0b\n        /* \"contracts/MetaMasterChef.sol\":29720:29737  poolBalance[_pid] */\n      0x00\n        /* \"contracts/MetaMasterChef.sol\":29732:29736  _pid */\n      dup5\n        /* \"contracts/MetaMasterChef.sol\":29720:29737  poolBalance[_pid] */\n      dup2\n      mstore\n      0x20\n      add\n      swap1\n      dup2\n      mstore\n      0x20\n      add\n      0x00\n      keccak256\n      sload\n        /* \"contracts/MetaMasterChef.sol\":29701:29737  uint256 lpSupply = poolBalance[_pid] */\n      swap1\n      pop\n        /* \"contracts/MetaMasterChef.sol\":29764:29765  0 */\n      0x00\n        /* \"contracts/MetaMasterChef.sol\":29752:29760  lpSupply */\n      dup2\n        /* \"contracts/MetaMasterChef.sol\":29752:29765  lpSupply <= 0 */\n      gt\n        /* \"contracts/MetaMasterChef.sol\":29748:29850  if (lpSupply <= 0) {\r... */\n      tag_268\n      jumpi\n        /* \"contracts/MetaMasterChef.sol\":29805:29817  block.number */\n      number\n        /* \"contracts/MetaMasterChef.sol\":29782:29786  pool */\n      dup3\n        /* \"contracts/MetaMasterChef.sol\":29782:29802  pool.lastRewardBlock */\n      0x02\n      add\n        /* \"contracts/MetaMasterChef.sol\":29782:29817  pool.lastRewardBlock = block.number */\n      dup2\n      swap1\n      sstore\n      pop\n        /* \"contracts/MetaMasterChef.sol\":29832:29839  return; */\n      pop\n      pop\n      jump(tag_263)\n        /* \"contracts/MetaMasterChef.sol\":29748:29850  if (lpSupply <= 0) {\r... */\n    tag_268:\n        /* \"contracts/MetaMasterChef.sol\":29860:29878  uint256 multiplier */\n      0x00\n        /* \"contracts/MetaMasterChef.sol\":29881:29930  getMultiplier(pool.lastRewardBlock, block.number) */\n      tag_269\n        /* \"contracts/MetaMasterChef.sol\":29895:29899  pool */\n      dup4\n        /* \"contracts/MetaMasterChef.sol\":29895:29915  pool.lastRewardBlock */\n      0x02\n      add\n      sload\n        /* \"contracts/MetaMasterChef.sol\":29917:29929  block.number */\n      number\n        /* \"contracts/MetaMasterChef.sol\":29881:29894  getMultiplier */\n      tag_122\n        /* \"contracts/MetaMasterChef.sol\":29881:29930  getMultiplier(pool.lastRewardBlock, block.number) */\n      jump\t// in\n    tag_269:\n        /* \"contracts/MetaMasterChef.sol\":29860:29930  uint256 multiplier = getMultiplier(pool.lastRewardBlock, block.number) */\n      swap1\n      pop\n        /* \"contracts/MetaMasterChef.sol\":29941:29958  uint256 DRGReward */\n      0x00\n        /* \"contracts/MetaMasterChef.sol\":29961:30030  multiplier.mul(DRGPerBlock).mul(pool.allocPoint).div(totalAllocPoint) */\n      tag_270\n        /* \"contracts/MetaMasterChef.sol\":30014:30029  totalAllocPoint */\n      sload(0x09)\n        /* \"contracts/MetaMasterChef.sol\":29961:30009  multiplier.mul(DRGPerBlock).mul(pool.allocPoint) */\n      tag_271\n        /* \"contracts/MetaMasterChef.sol\":29993:29997  pool */\n      dup7\n        /* \"contracts/MetaMasterChef.sol\":29993:30008  pool.allocPoint */\n      0x01\n      add\n      sload\n        /* \"contracts/MetaMasterChef.sol\":29961:29988  multiplier.mul(DRGPerBlock) */\n      tag_272\n        /* \"contracts/MetaMasterChef.sol\":29976:29987  DRGPerBlock */\n      sload(0x04)\n        /* \"contracts/MetaMasterChef.sol\":29961:29971  multiplier */\n      dup8\n        /* \"contracts/MetaMasterChef.sol\":29961:29975  multiplier.mul */\n      tag_162\n      swap1\n        /* \"contracts/MetaMasterChef.sol\":29961:29988  multiplier.mul(DRGPerBlock) */\n      swap2\n      swap1\n      0xffffffff\n      and\n      jump\t// in\n    tag_272:\n        /* \"contracts/MetaMasterChef.sol\":29961:29992  multiplier.mul(DRGPerBlock).mul */\n      tag_162\n      swap1\n        /* \"contracts/MetaMasterChef.sol\":29961:30009  multiplier.mul(DRGPerBlock).mul(pool.allocPoint) */\n      swap2\n      swap1\n      0xffffffff\n      and\n      jump\t// in\n    tag_271:\n        /* \"contracts/MetaMasterChef.sol\":29961:30013  multiplier.mul(DRGPerBlock).mul(pool.allocPoint).div */\n      tag_163\n      swap1\n        /* \"contracts/MetaMasterChef.sol\":29961:30030  multiplier.mul(DRGPerBlock).mul(pool.allocPoint).div(totalAllocPoint) */\n      swap2\n      swap1\n      0xffffffff\n      and\n      jump\t// in\n    tag_270:\n        /* \"contracts/MetaMasterChef.sol\":29941:30030  uint256 DRGReward = multiplier.mul(DRGPerBlock).mul(pool.allocPoint).div(totalAllocPoint) */\n      swap1\n      pop\n        /* \"contracts/MetaMasterChef.sol\":30041:30044  DRG */\n      0x02\n      0x00\n      swap1\n      sload\n      swap1\n      0x0100\n      exp\n      swap1\n      div\n      0xffffffffffffffffffffffffffffffffffffffff\n      and\n        /* \"contracts/MetaMasterChef.sol\":30041:30049  DRG.mint */\n      0xffffffffffffffffffffffffffffffffffffffff\n      and\n      0x40c10f19\n        /* \"contracts/MetaMasterChef.sol\":30058:30062  this */\n      address\n        /* \"contracts/MetaMasterChef.sol\":30065:30074  DRGReward */\n      dup4\n        /* \"contracts/MetaMasterChef.sol\":30041:30075  DRG.mint(address(this), DRGReward) */\n      mload(0x40)\n      dup4\n      0xffffffff\n      and\n      0xe0\n      shl\n      dup2\n      mstore\n      0x04\n      add\n      tag_273\n      swap3\n      swap2\n      swap1\n      tag_274\n      jump\t// in\n    tag_273:\n      0x20\n      mload(0x40)\n      dup1\n      dup4\n      sub\n      dup2\n      0x00\n      dup8\n      dup1\n      extcodesize\n      iszero\n      dup1\n      iszero\n      tag_275\n      jumpi\n      0x00\n      dup1\n      revert\n    tag_275:\n      pop\n      gas\n      call\n      iszero\n      dup1\n      iszero\n      tag_277\n      jumpi\n      returndatasize\n      0x00\n      dup1\n      returndatacopy\n      revert(0x00, returndatasize)\n    tag_277:\n      pop\n      pop\n      pop\n      pop\n      mload(0x40)\n      returndatasize\n      not(0x1f)\n      0x1f\n      dup3\n      add\n      and\n      dup3\n      add\n      dup1\n      0x40\n      mstore\n      pop\n      dup2\n      add\n      swap1\n      tag_278\n      swap2\n      swap1\n      tag_279\n      jump\t// in\n    tag_278:\n      pop\n        /* \"contracts/MetaMasterChef.sol\":30108:30166  pool.accDRGPerShare.add(DRGReward.mul(1e12).div(lpSupply)) */\n      tag_280\n        /* \"contracts/MetaMasterChef.sol\":30132:30165  DRGReward.mul(1e12).div(lpSupply) */\n      tag_281\n        /* \"contracts/MetaMasterChef.sol\":30156:30164  lpSupply */\n      dup5\n        /* \"contracts/MetaMasterChef.sol\":30132:30151  DRGReward.mul(1e12) */\n      tag_282\n        /* \"contracts/MetaMasterChef.sol\":30146:30150  1e12 */\n      0xe8d4a51000\n        /* \"contracts/MetaMasterChef.sol\":30132:30141  DRGReward */\n      dup6\n        /* \"contracts/MetaMasterChef.sol\":30132:30145  DRGReward.mul */\n      tag_162\n      swap1\n        /* \"contracts/MetaMasterChef.sol\":30132:30151  DRGReward.mul(1e12) */\n      swap2\n      swap1\n      0xffffffff\n      and\n      jump\t// in\n    tag_282:\n        /* \"contracts/MetaMasterChef.sol\":30132:30155  DRGReward.mul(1e12).div */\n      tag_163\n      swap1\n        /* \"contracts/MetaMasterChef.sol\":30132:30165  DRGReward.mul(1e12).div(lpSupply) */\n      swap2\n      swap1\n      0xffffffff\n      and\n      jump\t// in\n    tag_281:\n        /* \"contracts/MetaMasterChef.sol\":30108:30112  pool */\n      dup6\n        /* \"contracts/MetaMasterChef.sol\":30108:30127  pool.accDRGPerShare */\n      0x03\n      add\n      sload\n        /* \"contracts/MetaMasterChef.sol\":30108:30131  pool.accDRGPerShare.add */\n      tag_194\n      swap1\n        /* \"contracts/MetaMasterChef.sol\":30108:30166  pool.accDRGPerShare.add(DRGReward.mul(1e12).div(lpSupply)) */\n      swap2\n      swap1\n      0xffffffff\n      and\n      jump\t// in\n    tag_280:\n        /* \"contracts/MetaMasterChef.sol\":30086:30090  pool */\n      dup5\n        /* \"contracts/MetaMasterChef.sol\":30086:30105  pool.accDRGPerShare */\n      0x03\n      add\n        /* \"contracts/MetaMasterChef.sol\":30086:30166  pool.accDRGPerShare = pool.accDRGPerShare.add(DRGReward.mul(1e12).div(lpSupply)) */\n      dup2\n      swap1\n      sstore\n      pop\n        /* \"contracts/MetaMasterChef.sol\":30200:30212  block.number */\n      number\n        /* \"contracts/MetaMasterChef.sol\":30177:30181  pool */\n      dup5\n        /* \"contracts/MetaMasterChef.sol\":30177:30197  pool.lastRewardBlock */\n      0x02\n      add\n        /* \"contracts/MetaMasterChef.sol\":30177:30212  pool.lastRewardBlock = block.number */\n      dup2\n      swap1\n      sstore\n      pop\n        /* \"contracts/MetaMasterChef.sol\":29556:30220  {\r... */\n      pop\n      pop\n      pop\n      pop\n        /* \"contracts/MetaMasterChef.sol\":29515:30220  function updatePool(uint256 _pid) public {\r... */\n    tag_263:\n      pop\n      jump\t// out\n        /* \"contracts/MetaMasterChef.sol\":33437:33793  function emergencyWithdraw(uint256 _pid) public {\r... */\n    tag_85:\n        /* \"contracts/MetaMasterChef.sol\":33496:33517  PoolInfo storage pool */\n      0x00\n        /* \"contracts/MetaMasterChef.sol\":33520:33528  poolInfo */\n      0x07\n        /* \"contracts/MetaMasterChef.sol\":33529:33533  _pid */\n      dup3\n        /* \"contracts/MetaMasterChef.sol\":33520:33534  poolInfo[_pid] */\n      dup2\n      sload\n      dup2\n      lt\n      tag_284\n      jumpi\n      tag_285\n      tag_155\n      jump\t// in\n    tag_285:\n    tag_284:\n      swap1\n      0x00\n      mstore\n      keccak256(0x00, 0x20)\n      swap1\n      0x08\n      mul\n      add\n        /* \"contracts/MetaMasterChef.sol\":33496:33534  PoolInfo storage pool = poolInfo[_pid] */\n      swap1\n      pop\n        /* \"contracts/MetaMasterChef.sol\":33545:33566  UserInfo storage user */\n      0x00\n        /* \"contracts/MetaMasterChef.sol\":33569:33577  userInfo */\n      0x08\n        /* \"contracts/MetaMasterChef.sol\":33569:33583  userInfo[_pid] */\n      0x00\n        /* \"contracts/MetaMasterChef.sol\":33578:33582  _pid */\n      dup5\n        /* \"contracts/MetaMasterChef.sol\":33569:33583  userInfo[_pid] */\n      dup2\n      mstore\n      0x20\n      add\n      swap1\n      dup2\n      mstore\n      0x20\n      add\n      0x00\n      keccak256\n        /* \"contracts/MetaMasterChef.sol\":33569:33595  userInfo[_pid][msg.sender] */\n      0x00\n        /* \"contracts/MetaMasterChef.sol\":33584:33594  msg.sender */\n      caller\n        /* \"contracts/MetaMasterChef.sol\":33569:33595  userInfo[_pid][msg.sender] */\n      0xffffffffffffffffffffffffffffffffffffffff\n      and\n      0xffffffffffffffffffffffffffffffffffffffff\n      and\n      dup2\n      mstore\n      0x20\n      add\n      swap1\n      dup2\n      mstore\n      0x20\n      add\n      0x00\n      keccak256\n        /* \"contracts/MetaMasterChef.sol\":33545:33595  UserInfo storage user = userInfo[_pid][msg.sender] */\n      swap1\n      pop\n        /* \"contracts/MetaMasterChef.sol\":33606:33665  pool.lpToken.safeTransfer(address(msg.sender), user.amount) */\n      tag_287\n        /* \"contracts/MetaMasterChef.sol\":33640:33650  msg.sender */\n      caller\n        /* \"contracts/MetaMasterChef.sol\":33653:33657  user */\n      dup3\n        /* \"contracts/MetaMasterChef.sol\":33653:33664  user.amount */\n      0x00\n      add\n      sload\n        /* \"contracts/MetaMasterChef.sol\":33606:33610  pool */\n      dup5\n        /* \"contracts/MetaMasterChef.sol\":33606:33618  pool.lpToken */\n      0x00\n      add\n      0x00\n      swap1\n      sload\n      swap1\n      0x0100\n      exp\n      swap1\n      div\n      0xffffffffffffffffffffffffffffffffffffffff\n      and\n        /* \"contracts/MetaMasterChef.sol\":33606:33631  pool.lpToken.safeTransfer */\n      0xffffffffffffffffffffffffffffffffffffffff\n      and\n      tag_205\n      swap1\n        /* \"contracts/MetaMasterChef.sol\":33606:33665  pool.lpToken.safeTransfer(address(msg.sender), user.amount) */\n      swap3\n      swap2\n      swap1\n      0xffffffff\n      and\n      jump\t// in\n    tag_287:\n        /* \"contracts/MetaMasterChef.sol\":33711:33715  _pid */\n      dup3\n        /* \"contracts/MetaMasterChef.sol\":33699:33709  msg.sender */\n      caller\n        /* \"contracts/MetaMasterChef.sol\":33681:33729  EmergencyWithdraw(msg.sender, _pid, user.amount) */\n      0xffffffffffffffffffffffffffffffffffffffff\n      and\n      0xbb757047c2b5f3974fe26b7c10f732e7bce710b0952a71082702781e62ae0595\n        /* \"contracts/MetaMasterChef.sol\":33717:33721  user */\n      dup4\n        /* \"contracts/MetaMasterChef.sol\":33717:33728  user.amount */\n      0x00\n      add\n      sload\n        /* \"contracts/MetaMasterChef.sol\":33681:33729  EmergencyWithdraw(msg.sender, _pid, user.amount) */\n      mload(0x40)\n      tag_288\n      swap2\n      swap1\n      tag_48\n      jump\t// in\n    tag_288:\n      mload(0x40)\n      dup1\n      swap2\n      sub\n      swap1\n      log3\n        /* \"contracts/MetaMasterChef.sol\":33754:33755  0 */\n      0x00\n        /* \"contracts/MetaMasterChef.sol\":33740:33744  user */\n      dup2\n        /* \"contracts/MetaMasterChef.sol\":33740:33751  user.amount */\n      0x00\n      add\n        /* \"contracts/MetaMasterChef.sol\":33740:33755  user.amount = 0 */\n      dup2\n      swap1\n      sstore\n      pop\n        /* \"contracts/MetaMasterChef.sol\":33784:33785  0 */\n      0x00\n        /* \"contracts/MetaMasterChef.sol\":33766:33770  user */\n      dup2\n        /* \"contracts/MetaMasterChef.sol\":33766:33781  user.rewardDebt */\n      0x01\n      add\n        /* \"contracts/MetaMasterChef.sol\":33766:33785  user.rewardDebt = 0 */\n      dup2\n      swap1\n      sstore\n      pop\n        /* \"contracts/MetaMasterChef.sol\":33485:33793  {\r... */\n      pop\n      pop\n        /* \"contracts/MetaMasterChef.sol\":33437:33793  function emergencyWithdraw(uint256 _pid) public {\r... */\n      pop\n      jump\t// out\n        /* \"contracts/MetaMasterChef.sol\":25796:25919  function updateMultiplier(uint256 multiplierNumber) public onlyOwner {\r... */\n    tag_88:\n        /* \"contracts/MetaMasterChef.sol\":20336:20348  _msgSender() */\n      tag_290\n        /* \"contracts/MetaMasterChef.sol\":20336:20346  _msgSender */\n      tag_210\n        /* \"contracts/MetaMasterChef.sol\":20336:20348  _msgSender() */\n      jump\t// in\n    tag_290:\n        /* \"contracts/MetaMasterChef.sol\":20325:20348  owner() == _msgSender() */\n      0xffffffffffffffffffffffffffffffffffffffff\n      and\n        /* \"contracts/MetaMasterChef.sol\":20325:20332  owner() */\n      tag_291\n        /* \"contracts/MetaMasterChef.sol\":20325:20330  owner */\n      tag_116\n        /* \"contracts/MetaMasterChef.sol\":20325:20332  owner() */\n      jump\t// in\n    tag_291:\n        /* \"contracts/MetaMasterChef.sol\":20325:20348  owner() == _msgSender() */\n      0xffffffffffffffffffffffffffffffffffffffff\n      and\n      eq\n        /* \"contracts/MetaMasterChef.sol\":20317:20385  require(owner() == _msgSender(), \"Ownable: caller is not the owner\") */\n      tag_292\n      jumpi\n      mload(0x40)\n      0x08c379a000000000000000000000000000000000000000000000000000000000\n      dup2\n      mstore\n      0x04\n      add\n      tag_293\n      swap1\n      tag_214\n      jump\t// in\n    tag_293:\n      mload(0x40)\n      dup1\n      swap2\n      sub\n      swap1\n      revert\n    tag_292:\n        /* \"contracts/MetaMasterChef.sol\":25895:25911  multiplierNumber */\n      dup1\n        /* \"contracts/MetaMasterChef.sol\":25876:25892  BONUS_MULTIPLIER */\n      0x05\n        /* \"contracts/MetaMasterChef.sol\":25876:25911  BONUS_MULTIPLIER = multiplierNumber */\n      dup2\n      swap1\n      sstore\n      pop\n        /* \"contracts/MetaMasterChef.sol\":25796:25919  function updateMultiplier(uint256 multiplierNumber) public onlyOwner {\r... */\n      pop\n      jump\t// out\n        /* \"contracts/MetaMasterChef.sol\":29259:29439  function massUpdatePools() public {\r... */\n    tag_90:\n        /* \"contracts/MetaMasterChef.sol\":29304:29318  uint256 length */\n      0x00\n        /* \"contracts/MetaMasterChef.sol\":29321:29329  poolInfo */\n      0x07\n        /* \"contracts/MetaMasterChef.sol\":29321:29336  poolInfo.length */\n      dup1\n      sload\n      swap1\n      pop\n        /* \"contracts/MetaMasterChef.sol\":29304:29336  uint256 length = poolInfo.length */\n      swap1\n      pop\n        /* \"contracts/MetaMasterChef.sol\":29352:29363  uint256 pid */\n      0x00\n        /* \"contracts/MetaMasterChef.sol\":29347:29432  for (uint256 pid = 0; pid < length; ++pid) {\r... */\n    tag_296:\n        /* \"contracts/MetaMasterChef.sol\":29375:29381  length */\n      dup2\n        /* \"contracts/MetaMasterChef.sol\":29369:29372  pid */\n      dup2\n        /* \"contracts/MetaMasterChef.sol\":29369:29381  pid < length */\n      lt\n        /* \"contracts/MetaMasterChef.sol\":29347:29432  for (uint256 pid = 0; pid < length; ++pid) {\r... */\n      iszero\n      tag_297\n      jumpi\n        /* \"contracts/MetaMasterChef.sol\":29405:29420  updatePool(pid) */\n      tag_299\n        /* \"contracts/MetaMasterChef.sol\":29416:29419  pid */\n      dup2\n        /* \"contracts/MetaMasterChef.sol\":29405:29415  updatePool */\n      tag_82\n        /* \"contracts/MetaMasterChef.sol\":29405:29420  updatePool(pid) */\n      jump\t// in\n    tag_299:\n        /* \"contracts/MetaMasterChef.sol\":29383:29388  ++pid */\n      dup1\n      tag_300\n      swap1\n      tag_301\n      jump\t// in\n    tag_300:\n      swap1\n      pop\n        /* \"contracts/MetaMasterChef.sol\":29347:29432  for (uint256 pid = 0; pid < length; ++pid) {\r... */\n      jump(tag_296)\n    tag_297:\n      pop\n        /* \"contracts/MetaMasterChef.sol\":29293:29439  {\r... */\n      pop\n        /* \"contracts/MetaMasterChef.sol\":29259:29439  function massUpdatePools() public {\r... */\n      jump\t// out\n        /* \"contracts/MetaMasterChef.sol\":27082:27387  function set( uint256 _pid, uint256 _allocPoint, bool _withUpdate) public onlyOwner {\r... */\n    tag_94:\n        /* \"contracts/MetaMasterChef.sol\":20336:20348  _msgSender() */\n      tag_303\n        /* \"contracts/MetaMasterChef.sol\":20336:20346  _msgSender */\n      tag_210\n        /* \"contracts/MetaMasterChef.sol\":20336:20348  _msgSender() */\n      jump\t// in\n    tag_303:\n        /* \"contracts/MetaMasterChef.sol\":20325:20348  owner() == _msgSender() */\n      0xffffffffffffffffffffffffffffffffffffffff\n      and\n        /* \"contracts/MetaMasterChef.sol\":20325:20332  owner() */\n      tag_304\n        /* \"contracts/MetaMasterChef.sol\":20325:20330  owner */\n      tag_116\n        /* \"contracts/MetaMasterChef.sol\":20325:20332  owner() */\n      jump\t// in\n    tag_304:\n        /* \"contracts/MetaMasterChef.sol\":20325:20348  owner() == _msgSender() */\n      0xffffffffffffffffffffffffffffffffffffffff\n      and\n      eq\n        /* \"contracts/MetaMasterChef.sol\":20317:20385  require(owner() == _msgSender(), \"Ownable: caller is not the owner\") */\n      tag_305\n      jumpi\n      mload(0x40)\n      0x08c379a000000000000000000000000000000000000000000000000000000000\n      dup2\n      mstore\n      0x04\n      add\n      tag_306\n      swap1\n      tag_214\n      jump\t// in\n    tag_306:\n      mload(0x40)\n      dup1\n      swap2\n      sub\n      swap1\n      revert\n    tag_305:\n        /* \"contracts/MetaMasterChef.sol\":27181:27192  _withUpdate */\n      dup1\n        /* \"contracts/MetaMasterChef.sol\":27177:27238  if (_withUpdate) {\r... */\n      iszero\n      tag_308\n      jumpi\n        /* \"contracts/MetaMasterChef.sol\":27209:27226  massUpdatePools() */\n      tag_309\n        /* \"contracts/MetaMasterChef.sol\":27209:27224  massUpdatePools */\n      tag_90\n        /* \"contracts/MetaMasterChef.sol\":27209:27226  massUpdatePools() */\n      jump\t// in\n    tag_309:\n        /* \"contracts/MetaMasterChef.sol\":27177:27238  if (_withUpdate) {\r... */\n    tag_308:\n        /* \"contracts/MetaMasterChef.sol\":27266:27329  totalAllocPoint.sub(poolInfo[_pid].allocPoint).add(_allocPoint) */\n      tag_310\n        /* \"contracts/MetaMasterChef.sol\":27317:27328  _allocPoint */\n      dup3\n        /* \"contracts/MetaMasterChef.sol\":27266:27312  totalAllocPoint.sub(poolInfo[_pid].allocPoint) */\n      tag_311\n        /* \"contracts/MetaMasterChef.sol\":27286:27294  poolInfo */\n      0x07\n        /* \"contracts/MetaMasterChef.sol\":27295:27299  _pid */\n      dup7\n        /* \"contracts/MetaMasterChef.sol\":27286:27300  poolInfo[_pid] */\n      dup2\n      sload\n      dup2\n      lt\n      tag_312\n      jumpi\n      tag_313\n      tag_155\n      jump\t// in\n    tag_313:\n    tag_312:\n      swap1\n      0x00\n      mstore\n      keccak256(0x00, 0x20)\n      swap1\n      0x08\n      mul\n      add\n        /* \"contracts/MetaMasterChef.sol\":27286:27311  poolInfo[_pid].allocPoint */\n      0x01\n      add\n      sload\n        /* \"contracts/MetaMasterChef.sol\":27266:27281  totalAllocPoint */\n      sload(0x09)\n        /* \"contracts/MetaMasterChef.sol\":27266:27285  totalAllocPoint.sub */\n      tag_164\n      swap1\n        /* \"contracts/MetaMasterChef.sol\":27266:27312  totalAllocPoint.sub(poolInfo[_pid].allocPoint) */\n      swap2\n      swap1\n      0xffffffff\n      and\n      jump\t// in\n    tag_311:\n        /* \"contracts/MetaMasterChef.sol\":27266:27316  totalAllocPoint.sub(poolInfo[_pid].allocPoint).add */\n      tag_194\n      swap1\n        /* \"contracts/MetaMasterChef.sol\":27266:27329  totalAllocPoint.sub(poolInfo[_pid].allocPoint).add(_allocPoint) */\n      swap2\n      swap1\n      0xffffffff\n      and\n      jump\t// in\n    tag_310:\n        /* \"contracts/MetaMasterChef.sol\":27248:27263  totalAllocPoint */\n      0x09\n        /* \"contracts/MetaMasterChef.sol\":27248:27329  totalAllocPoint = totalAllocPoint.sub(poolInfo[_pid].allocPoint).add(_allocPoint) */\n      dup2\n      swap1\n      sstore\n      pop\n        /* \"contracts/MetaMasterChef.sol\":27368:27379  _allocPoint */\n      dup2\n        /* \"contracts/MetaMasterChef.sol\":27340:27348  poolInfo */\n      0x07\n        /* \"contracts/MetaMasterChef.sol\":27349:27353  _pid */\n      dup5\n        /* \"contracts/MetaMasterChef.sol\":27340:27354  poolInfo[_pid] */\n      dup2\n      sload\n      dup2\n      lt\n      tag_315\n      jumpi\n      tag_316\n      tag_155\n      jump\t// in\n    tag_316:\n    tag_315:\n      swap1\n      0x00\n      mstore\n      keccak256(0x00, 0x20)\n      swap1\n      0x08\n      mul\n      add\n        /* \"contracts/MetaMasterChef.sol\":27340:27365  poolInfo[_pid].allocPoint */\n      0x01\n      add\n        /* \"contracts/MetaMasterChef.sol\":27340:27379  poolInfo[_pid].allocPoint = _allocPoint */\n      dup2\n      swap1\n      sstore\n      pop\n        /* \"contracts/MetaMasterChef.sol\":27082:27387  function set( uint256 _pid, uint256 _allocPoint, bool _withUpdate) public onlyOwner {\r... */\n      pop\n      pop\n      pop\n      jump\t// out\n        /* \"contracts/MetaMasterChef.sol\":26193:26987  function add( uint256 _allocPoint, IERC20 _lpToken, bool _withUpdate, IMasterChef _poolMasterChef, IERC20 _rewardToken, uint256 _fee, uint256 _method) public onlyOwner {\r... */\n    tag_98:\n        /* \"contracts/MetaMasterChef.sol\":20336:20348  _msgSender() */\n      tag_319\n        /* \"contracts/MetaMasterChef.sol\":20336:20346  _msgSender */\n      tag_210\n        /* \"contracts/MetaMasterChef.sol\":20336:20348  _msgSender() */\n      jump\t// in\n    tag_319:\n        /* \"contracts/MetaMasterChef.sol\":20325:20348  owner() == _msgSender() */\n      0xffffffffffffffffffffffffffffffffffffffff\n      and\n        /* \"contracts/MetaMasterChef.sol\":20325:20332  owner() */\n      tag_320\n        /* \"contracts/MetaMasterChef.sol\":20325:20330  owner */\n      tag_116\n        /* \"contracts/MetaMasterChef.sol\":20325:20332  owner() */\n      jump\t// in\n    tag_320:\n        /* \"contracts/MetaMasterChef.sol\":20325:20348  owner() == _msgSender() */\n      0xffffffffffffffffffffffffffffffffffffffff\n      and\n      eq\n        /* \"contracts/MetaMasterChef.sol\":20317:20385  require(owner() == _msgSender(), \"Ownable: caller is not the owner\") */\n      tag_321\n      jumpi\n      mload(0x40)\n      0x08c379a000000000000000000000000000000000000000000000000000000000\n      dup2\n      mstore\n      0x04\n      add\n      tag_322\n      swap1\n      tag_214\n      jump\t// in\n    tag_322:\n      mload(0x40)\n      dup1\n      swap2\n      sub\n      swap1\n      revert\n    tag_321:\n        /* \"contracts/MetaMasterChef.sol\":26376:26387  _withUpdate */\n      dup5\n        /* \"contracts/MetaMasterChef.sol\":26372:26433  if (_withUpdate) {\r... */\n      iszero\n      tag_324\n      jumpi\n        /* \"contracts/MetaMasterChef.sol\":26404:26421  massUpdatePools() */\n      tag_325\n        /* \"contracts/MetaMasterChef.sol\":26404:26419  massUpdatePools */\n      tag_90\n        /* \"contracts/MetaMasterChef.sol\":26404:26421  massUpdatePools() */\n      jump\t// in\n    tag_325:\n        /* \"contracts/MetaMasterChef.sol\":26372:26433  if (_withUpdate) {\r... */\n    tag_324:\n        /* \"contracts/MetaMasterChef.sol\":26443:26466  uint256 lastRewardBlock */\n      0x00\n        /* \"contracts/MetaMasterChef.sol\":26484:26494  startBlock */\n      sload(0x0a)\n        /* \"contracts/MetaMasterChef.sol\":26469:26481  block.number */\n      number\n        /* \"contracts/MetaMasterChef.sol\":26469:26494  block.number > startBlock */\n      gt\n        /* \"contracts/MetaMasterChef.sol\":26469:26522  block.number > startBlock ? block.number : startBlock */\n      tag_326\n      jumpi\n        /* \"contracts/MetaMasterChef.sol\":26512:26522  startBlock */\n      sload(0x0a)\n        /* \"contracts/MetaMasterChef.sol\":26469:26522  block.number > startBlock ? block.number : startBlock */\n      jump(tag_327)\n    tag_326:\n        /* \"contracts/MetaMasterChef.sol\":26497:26509  block.number */\n      number\n        /* \"contracts/MetaMasterChef.sol\":26469:26522  block.number > startBlock ? block.number : startBlock */\n    tag_327:\n        /* \"contracts/MetaMasterChef.sol\":26443:26522  uint256 lastRewardBlock = block.number > startBlock ? block.number : startBlock */\n      swap1\n      pop\n        /* \"contracts/MetaMasterChef.sol\":26551:26583  totalAllocPoint.add(_allocPoint) */\n      tag_328\n        /* \"contracts/MetaMasterChef.sol\":26571:26582  _allocPoint */\n      dup9\n        /* \"contracts/MetaMasterChef.sol\":26551:26566  totalAllocPoint */\n      sload(0x09)\n        /* \"contracts/MetaMasterChef.sol\":26551:26570  totalAllocPoint.add */\n      tag_194\n      swap1\n        /* \"contracts/MetaMasterChef.sol\":26551:26583  totalAllocPoint.add(_allocPoint) */\n      swap2\n      swap1\n      0xffffffff\n      and\n      jump\t// in\n    tag_328:\n        /* \"contracts/MetaMasterChef.sol\":26533:26548  totalAllocPoint */\n      0x09\n        /* \"contracts/MetaMasterChef.sol\":26533:26583  totalAllocPoint = totalAllocPoint.add(_allocPoint) */\n      dup2\n      swap1\n      sstore\n      pop\n        /* \"contracts/MetaMasterChef.sol\":26594:26602  poolInfo */\n      0x07\n        /* \"contracts/MetaMasterChef.sol\":26622:26968  PoolInfo({\r... */\n      mload(0x40)\n      dup1\n      0x0100\n      add\n      0x40\n      mstore\n      dup1\n        /* \"contracts/MetaMasterChef.sol\":26659:26667  _lpToken */\n      dup10\n        /* \"contracts/MetaMasterChef.sol\":26622:26968  PoolInfo({\r... */\n      0xffffffffffffffffffffffffffffffffffffffff\n      and\n      dup2\n      mstore\n      0x20\n      add\n        /* \"contracts/MetaMasterChef.sol\":26698:26709  _allocPoint */\n      dup11\n        /* \"contracts/MetaMasterChef.sol\":26622:26968  PoolInfo({\r... */\n      dup2\n      mstore\n      0x20\n      add\n        /* \"contracts/MetaMasterChef.sol\":26745:26760  lastRewardBlock */\n      dup4\n        /* \"contracts/MetaMasterChef.sol\":26622:26968  PoolInfo({\r... */\n      dup2\n      mstore\n      0x20\n      add\n        /* \"contracts/MetaMasterChef.sol\":26795:26796  0 */\n      0x00\n        /* \"contracts/MetaMasterChef.sol\":26622:26968  PoolInfo({\r... */\n      dup2\n      mstore\n      0x20\n      add\n        /* \"contracts/MetaMasterChef.sol\":26831:26846  _poolMasterChef */\n      dup8\n        /* \"contracts/MetaMasterChef.sol\":26622:26968  PoolInfo({\r... */\n      0xffffffffffffffffffffffffffffffffffffffff\n      and\n      dup2\n      mstore\n      0x20\n      add\n        /* \"contracts/MetaMasterChef.sol\":26878:26890  _rewardToken */\n      dup7\n        /* \"contracts/MetaMasterChef.sol\":26622:26968  PoolInfo({\r... */\n      0xffffffffffffffffffffffffffffffffffffffff\n      and\n      dup2\n      mstore\n      0x20\n      add\n        /* \"contracts/MetaMasterChef.sol\":26914:26918  _fee */\n      dup6\n        /* \"contracts/MetaMasterChef.sol\":26622:26968  PoolInfo({\r... */\n      dup2\n      mstore\n      0x20\n      add\n        /* \"contracts/MetaMasterChef.sol\":26945:26952  _method */\n      dup5\n        /* \"contracts/MetaMasterChef.sol\":26622:26968  PoolInfo({\r... */\n      dup2\n      mstore\n      pop\n        /* \"contracts/MetaMasterChef.sol\":26594:26979  poolInfo.push(\r... */\n      swap1\n      dup1\n      0x01\n      dup2\n      sload\n      add\n      dup1\n      dup3\n      sstore\n      dup1\n      swap2\n      pop\n      pop\n      0x01\n      swap1\n      sub\n      swap1\n      0x00\n      mstore\n      keccak256(0x00, 0x20)\n      swap1\n      0x08\n      mul\n      add\n      0x00\n      swap1\n      swap2\n      swap1\n      swap2\n      swap1\n      swap2\n      pop\n      0x00\n      dup3\n      add\n      mload\n      dup2\n      0x00\n      add\n      exp(0x0100, 0x00)\n      dup2\n      sload\n      dup2\n      0xffffffffffffffffffffffffffffffffffffffff\n      mul\n      not\n      and\n      swap1\n      dup4\n      0xffffffffffffffffffffffffffffffffffffffff\n      and\n      mul\n      or\n      swap1\n      sstore\n      pop\n      0x20\n      dup3\n      add\n      mload\n      dup2\n      0x01\n      add\n      sstore\n      0x40\n      dup3\n      add\n      mload\n      dup2\n      0x02\n      add\n      sstore\n      0x60\n      dup3\n      add\n      mload\n      dup2\n      0x03\n      add\n      sstore\n      0x80\n      dup3\n      add\n      mload\n      dup2\n      0x04\n      add\n      exp(0x0100, 0x00)\n      dup2\n      sload\n      dup2\n      0xffffffffffffffffffffffffffffffffffffffff\n      mul\n      not\n      and\n      swap1\n      dup4\n      0xffffffffffffffffffffffffffffffffffffffff\n      and\n      mul\n      or\n      swap1\n      sstore\n      pop\n      0xa0\n      dup3\n      add\n      mload\n      dup2\n      0x05\n      add\n      exp(0x0100, 0x00)\n      dup2\n      sload\n      dup2\n      0xffffffffffffffffffffffffffffffffffffffff\n      mul\n      not\n      and\n      swap1\n      dup4\n      0xffffffffffffffffffffffffffffffffffffffff\n      and\n      mul\n      or\n      swap1\n      sstore\n      pop\n      0xc0\n      dup3\n      add\n      mload\n      dup2\n      0x06\n      add\n      sstore\n      0xe0\n      dup3\n      add\n      mload\n      dup2\n      0x07\n      add\n      sstore\n      pop\n      pop\n        /* \"contracts/MetaMasterChef.sol\":26361:26987  {\r... */\n      pop\n        /* \"contracts/MetaMasterChef.sol\":26193:26987  function add( uint256 _allocPoint, IERC20 _lpToken, bool _withUpdate, IMasterChef _poolMasterChef, IERC20 _rewardToken, uint256 _fee, uint256 _method) public onlyOwner {\r... */\n      pop\n      pop\n      pop\n      pop\n      pop\n      pop\n      pop\n      jump\t// out\n        /* \"contracts/MetaMasterChef.sol\":33190:33366  function emergencyWithdrawFromBSW(uint256 _pid) public onlyOwner {\r... */\n    tag_101:\n        /* \"contracts/MetaMasterChef.sol\":20336:20348  _msgSender() */\n      tag_331\n        /* \"contracts/MetaMasterChef.sol\":20336:20346  _msgSender */\n      tag_210\n        /* \"contracts/MetaMasterChef.sol\":20336:20348  _msgSender() */\n      jump\t// in\n    tag_331:\n        /* \"contracts/MetaMasterChef.sol\":20325:20348  owner() == _msgSender() */\n      0xffffffffffffffffffffffffffffffffffffffff\n      and\n        /* \"contracts/MetaMasterChef.sol\":20325:20332  owner() */\n      tag_332\n        /* \"contracts/MetaMasterChef.sol\":20325:20330  owner */\n      tag_116\n        /* \"contracts/MetaMasterChef.sol\":20325:20332  owner() */\n      jump\t// in\n    tag_332:\n        /* \"contracts/MetaMasterChef.sol\":20325:20348  owner() == _msgSender() */\n      0xffffffffffffffffffffffffffffffffffffffff\n      and\n      eq\n        /* \"contracts/MetaMasterChef.sol\":20317:20385  require(owner() == _msgSender(), \"Ownable: caller is not the owner\") */\n      tag_333\n      jumpi\n      mload(0x40)\n      0x08c379a000000000000000000000000000000000000000000000000000000000\n      dup2\n      mstore\n      0x04\n      add\n      tag_334\n      swap1\n      tag_214\n      jump\t// in\n    tag_334:\n      mload(0x40)\n      dup1\n      swap2\n      sub\n      swap1\n      revert\n    tag_333:\n        /* \"contracts/MetaMasterChef.sol\":33266:33287  PoolInfo storage pool */\n      0x00\n        /* \"contracts/MetaMasterChef.sol\":33290:33298  poolInfo */\n      0x07\n        /* \"contracts/MetaMasterChef.sol\":33299:33303  _pid */\n      dup3\n        /* \"contracts/MetaMasterChef.sol\":33290:33304  poolInfo[_pid] */\n      dup2\n      sload\n      dup2\n      lt\n      tag_336\n      jumpi\n      tag_337\n      tag_155\n      jump\t// in\n    tag_337:\n    tag_336:\n      swap1\n      0x00\n      mstore\n      keccak256(0x00, 0x20)\n      swap1\n      0x08\n      mul\n      add\n        /* \"contracts/MetaMasterChef.sol\":33266:33304  PoolInfo storage pool = poolInfo[_pid] */\n      swap1\n      pop\n        /* \"contracts/MetaMasterChef.sol\":33315:33319  pool */\n      dup1\n        /* \"contracts/MetaMasterChef.sol\":33315:33334  pool.poolMasterChef */\n      0x04\n      add\n      0x00\n      swap1\n      sload\n      swap1\n      0x0100\n      exp\n      swap1\n      div\n      0xffffffffffffffffffffffffffffffffffffffff\n      and\n        /* \"contracts/MetaMasterChef.sol\":33315:33352  pool.poolMasterChef.emergencyWithdraw */\n      0xffffffffffffffffffffffffffffffffffffffff\n      and\n      0x5312ea8e\n        /* \"contracts/MetaMasterChef.sol\":33353:33357  _pid */\n      dup4\n        /* \"contracts/MetaMasterChef.sol\":33315:33358  pool.poolMasterChef.emergencyWithdraw(_pid) */\n      mload(0x40)\n      dup3\n      0xffffffff\n      and\n      0xe0\n      shl\n      dup2\n      mstore\n      0x04\n      add\n      tag_339\n      swap2\n      swap1\n      tag_48\n      jump\t// in\n    tag_339:\n      0x00\n      mload(0x40)\n      dup1\n      dup4\n      sub\n      dup2\n      0x00\n      dup8\n      dup1\n      extcodesize\n      iszero\n      dup1\n      iszero\n      tag_340\n      jumpi\n      0x00\n      dup1\n      revert\n    tag_340:\n      pop\n      gas\n      call\n      iszero\n      dup1\n      iszero\n      tag_342\n      jumpi\n      returndatasize\n      0x00\n      dup1\n      returndatacopy\n      revert(0x00, returndatasize)\n    tag_342:\n      pop\n      pop\n      pop\n      pop\n        /* \"contracts/MetaMasterChef.sol\":33255:33366  {\r... */\n      pop\n        /* \"contracts/MetaMasterChef.sol\":33190:33366  function emergencyWithdrawFromBSW(uint256 _pid) public onlyOwner {\r... */\n      pop\n      jump\t// out\n        /* \"contracts/MetaMasterChef.sol\":25025:25072  mapping (uint256 => uint256) public poolBalance */\n    tag_104:\n      mstore(0x20, 0x0b)\n      dup1\n      0x00\n      mstore\n      keccak256(0x00, 0x40)\n      0x00\n      swap2\n      pop\n      swap1\n      pop\n      sload\n      dup2\n      jump\t// out\n        /* \"contracts/MetaMasterChef.sol\":20756:20859  function renounceOwnership() public virtual onlyOwner {\r... */\n    tag_107:\n        /* \"contracts/MetaMasterChef.sol\":20336:20348  _msgSender() */\n      tag_344\n        /* \"contracts/MetaMasterChef.sol\":20336:20346  _msgSender */\n      tag_210\n        /* \"contracts/MetaMasterChef.sol\":20336:20348  _msgSender() */\n      jump\t// in\n    tag_344:\n        /* \"contracts/MetaMasterChef.sol\":20325:20348  owner() == _msgSender() */\n      0xffffffffffffffffffffffffffffffffffffffff\n      and\n        /* \"contracts/MetaMasterChef.sol\":20325:20332  owner() */\n      tag_345\n        /* \"contracts/MetaMasterChef.sol\":20325:20330  owner */\n      tag_116\n        /* \"contracts/MetaMasterChef.sol\":20325:20332  owner() */\n      jump\t// in\n    tag_345:\n        /* \"contracts/MetaMasterChef.sol\":20325:20348  owner() == _msgSender() */\n      0xffffffffffffffffffffffffffffffffffffffff\n      and\n      eq\n        /* \"contracts/MetaMasterChef.sol\":20317:20385  require(owner() == _msgSender(), \"Ownable: caller is not the owner\") */\n      tag_346\n      jumpi\n      mload(0x40)\n      0x08c379a000000000000000000000000000000000000000000000000000000000\n      dup2\n      mstore\n      0x04\n      add\n      tag_347\n      swap1\n      tag_214\n      jump\t// in\n    tag_347:\n      mload(0x40)\n      dup1\n      swap2\n      sub\n      swap1\n      revert\n    tag_346:\n        /* \"contracts/MetaMasterChef.sol\":20821:20851  _transferOwnership(address(0)) */\n      tag_349\n        /* \"contracts/MetaMasterChef.sol\":20848:20849  0 */\n      0x00\n        /* \"contracts/MetaMasterChef.sol\":20821:20839  _transferOwnership */\n      tag_350\n        /* \"contracts/MetaMasterChef.sol\":20821:20851  _transferOwnership(address(0)) */\n      jump\t// in\n    tag_349:\n        /* \"contracts/MetaMasterChef.sol\":20756:20859  function renounceOwnership() public virtual onlyOwner {\r... */\n      jump\t// out\n        /* \"contracts/MetaMasterChef.sol\":24597:24626  IMigratorChef public migrator */\n    tag_109:\n      0x06\n      0x00\n      swap1\n      sload\n      swap1\n      0x0100\n      exp\n      swap1\n      div\n      0xffffffffffffffffffffffffffffffffffffffff\n      and\n      dup2\n      jump\t// out\n        /* \"contracts/MetaMasterChef.sol\":24457:24492  uint256 public BONUS_MULTIPLIER = 1 */\n    tag_113:\n      sload(0x05)\n      dup2\n      jump\t// out\n        /* \"contracts/MetaMasterChef.sol\":20105:20192  function owner() public view virtual returns (address) {\r... */\n    tag_116:\n        /* \"contracts/MetaMasterChef.sol\":20151:20158  address */\n      0x00\n        /* \"contracts/MetaMasterChef.sol\":20178:20184  _owner */\n      dup1\n      0x00\n      swap1\n      sload\n      swap1\n      0x0100\n      exp\n      swap1\n      div\n      0xffffffffffffffffffffffffffffffffffffffff\n      and\n        /* \"contracts/MetaMasterChef.sol\":20171:20184  return _owner */\n      swap1\n      pop\n        /* \"contracts/MetaMasterChef.sol\":20105:20192  function owner() public view virtual returns (address) {\r... */\n      swap1\n      jump\t// out\n        /* \"contracts/MetaMasterChef.sol\":28240:28384  function getMultiplier(uint256 _from, uint256 _to) public view returns (uint256) {\r... */\n    tag_122:\n        /* \"contracts/MetaMasterChef.sol\":28312:28319  uint256 */\n      0x00\n        /* \"contracts/MetaMasterChef.sol\":28340:28376  _to.sub(_from).mul(BONUS_MULTIPLIER) */\n      tag_353\n        /* \"contracts/MetaMasterChef.sol\":28359:28375  BONUS_MULTIPLIER */\n      sload(0x05)\n        /* \"contracts/MetaMasterChef.sol\":28340:28354  _to.sub(_from) */\n      tag_354\n        /* \"contracts/MetaMasterChef.sol\":28348:28353  _from */\n      dup6\n        /* \"contracts/MetaMasterChef.sol\":28340:28343  _to */\n      dup6\n        /* \"contracts/MetaMasterChef.sol\":28340:28347  _to.sub */\n      tag_164\n      swap1\n        /* \"contracts/MetaMasterChef.sol\":28340:28354  _to.sub(_from) */\n      swap2\n      swap1\n      0xffffffff\n      and\n      jump\t// in\n    tag_354:\n        /* \"contracts/MetaMasterChef.sol\":28340:28358  _to.sub(_from).mul */\n      tag_162\n      swap1\n        /* \"contracts/MetaMasterChef.sol\":28340:28376  _to.sub(_from).mul(BONUS_MULTIPLIER) */\n      swap2\n      swap1\n      0xffffffff\n      and\n      jump\t// in\n    tag_353:\n        /* \"contracts/MetaMasterChef.sol\":28333:28376  return _to.sub(_from).mul(BONUS_MULTIPLIER) */\n      swap1\n      pop\n        /* \"contracts/MetaMasterChef.sol\":28240:28384  function getMultiplier(uint256 _from, uint256 _to) public view returns (uint256) {\r... */\n      swap3\n      swap2\n      pop\n      pop\n      jump\t// out\n        /* \"contracts/MetaMasterChef.sol\":24742:24806  mapping(uint256 => mapping(address => UserInfo)) public userInfo */\n    tag_126:\n      mstore(0x20, 0x08)\n      dup2\n      0x00\n      mstore\n      mstore(0x20, keccak256(0x00, 0x40))\n      dup1\n      0x00\n      mstore\n      keccak256(0x00, 0x40)\n      0x00\n      swap2\n      pop\n      swap2\n      pop\n      pop\n      dup1\n      0x00\n      add\n      sload\n      swap1\n      dup1\n      0x01\n      add\n      sload\n      swap1\n      pop\n      dup3\n      jump\t// out\n        /* \"contracts/MetaMasterChef.sol\":24378:24404  uint256 public DRGPerBlock */\n    tag_130:\n      sload(0x04)\n      dup2\n      jump\t// out\n        /* \"contracts/MetaMasterChef.sol\":32053:33182  function withdraw(uint256 _pid, uint256 _BSWPid, uint256 _amount) public {\r... */\n    tag_134:\n        /* \"contracts/MetaMasterChef.sol\":32139:32160  PoolInfo storage pool */\n      0x00\n        /* \"contracts/MetaMasterChef.sol\":32163:32171  poolInfo */\n      0x07\n        /* \"contracts/MetaMasterChef.sol\":32172:32176  _pid */\n      dup5\n        /* \"contracts/MetaMasterChef.sol\":32163:32177  poolInfo[_pid] */\n      dup2\n      sload\n      dup2\n      lt\n      tag_356\n      jumpi\n      tag_357\n      tag_155\n      jump\t// in\n    tag_357:\n    tag_356:\n      swap1\n      0x00\n      mstore\n      keccak256(0x00, 0x20)\n      swap1\n      0x08\n      mul\n      add\n        /* \"contracts/MetaMasterChef.sol\":32139:32177  PoolInfo storage pool = poolInfo[_pid] */\n      swap1\n      pop\n        /* \"contracts/MetaMasterChef.sol\":32188:32209  UserInfo storage user */\n      0x00\n        /* \"contracts/MetaMasterChef.sol\":32212:32220  userInfo */\n      0x08\n        /* \"contracts/MetaMasterChef.sol\":32212:32226  userInfo[_pid] */\n      0x00\n        /* \"contracts/MetaMasterChef.sol\":32221:32225  _pid */\n      dup7\n        /* \"contracts/MetaMasterChef.sol\":32212:32226  userInfo[_pid] */\n      dup2\n      mstore\n      0x20\n      add\n      swap1\n      dup2\n      mstore\n      0x20\n      add\n      0x00\n      keccak256\n        /* \"contracts/MetaMasterChef.sol\":32212:32238  userInfo[_pid][msg.sender] */\n      0x00\n        /* \"contracts/MetaMasterChef.sol\":32227:32237  msg.sender */\n      caller\n        /* \"contracts/MetaMasterChef.sol\":32212:32238  userInfo[_pid][msg.sender] */\n      0xffffffffffffffffffffffffffffffffffffffff\n      and\n      0xffffffffffffffffffffffffffffffffffffffff\n      and\n      dup2\n      mstore\n      0x20\n      add\n      swap1\n      dup2\n      mstore\n      0x20\n      add\n      0x00\n      keccak256\n        /* \"contracts/MetaMasterChef.sol\":32188:32238  UserInfo storage user = userInfo[_pid][msg.sender] */\n      swap1\n      pop\n        /* \"contracts/MetaMasterChef.sol\":32272:32279  _amount */\n      dup3\n        /* \"contracts/MetaMasterChef.sol\":32257:32261  user */\n      dup2\n        /* \"contracts/MetaMasterChef.sol\":32257:32268  user.amount */\n      0x00\n      add\n      sload\n        /* \"contracts/MetaMasterChef.sol\":32257:32279  user.amount >= _amount */\n      lt\n      iszero\n        /* \"contracts/MetaMasterChef.sol\":32249:32302  require(user.amount >= _amount, \"withdraw: not good\") */\n      tag_359\n      jumpi\n      mload(0x40)\n      0x08c379a000000000000000000000000000000000000000000000000000000000\n      dup2\n      mstore\n      0x04\n      add\n      tag_360\n      swap1\n      tag_361\n      jump\t// in\n    tag_360:\n      mload(0x40)\n      dup1\n      swap2\n      sub\n      swap1\n      revert\n    tag_359:\n        /* \"contracts/MetaMasterChef.sol\":32313:32329  updatePool(_pid) */\n      tag_362\n        /* \"contracts/MetaMasterChef.sol\":32324:32328  _pid */\n      dup6\n        /* \"contracts/MetaMasterChef.sol\":32313:32323  updatePool */\n      tag_82\n        /* \"contracts/MetaMasterChef.sol\":32313:32329  updatePool(_pid) */\n      jump\t// in\n    tag_362:\n        /* \"contracts/MetaMasterChef.sol\":32340:32355  uint256 pending */\n      0x00\n        /* \"contracts/MetaMasterChef.sol\":32358:32425  user.amount.mul(pool.accDRGPerShare).div(1e12).sub(user.rewardDebt) */\n      tag_363\n        /* \"contracts/MetaMasterChef.sol\":32409:32413  user */\n      dup3\n        /* \"contracts/MetaMasterChef.sol\":32409:32424  user.rewardDebt */\n      0x01\n      add\n      sload\n        /* \"contracts/MetaMasterChef.sol\":32358:32404  user.amount.mul(pool.accDRGPerShare).div(1e12) */\n      tag_364\n        /* \"contracts/MetaMasterChef.sol\":32399:32403  1e12 */\n      0xe8d4a51000\n        /* \"contracts/MetaMasterChef.sol\":32358:32394  user.amount.mul(pool.accDRGPerShare) */\n      tag_365\n        /* \"contracts/MetaMasterChef.sol\":32374:32378  pool */\n      dup8\n        /* \"contracts/MetaMasterChef.sol\":32374:32393  pool.accDRGPerShare */\n      0x03\n      add\n      sload\n        /* \"contracts/MetaMasterChef.sol\":32358:32362  user */\n      dup8\n        /* \"contracts/MetaMasterChef.sol\":32358:32369  user.amount */\n      0x00\n      add\n      sload\n        /* \"contracts/MetaMasterChef.sol\":32358:32373  user.amount.mul */\n      tag_162\n      swap1\n        /* \"contracts/MetaMasterChef.sol\":32358:32394  user.amount.mul(pool.accDRGPerShare) */\n      swap2\n      swap1\n      0xffffffff\n      and\n      jump\t// in\n    tag_365:\n        /* \"contracts/MetaMasterChef.sol\":32358:32398  user.amount.mul(pool.accDRGPerShare).div */\n      tag_163\n      swap1\n        /* \"contracts/MetaMasterChef.sol\":32358:32404  user.amount.mul(pool.accDRGPerShare).div(1e12) */\n      swap2\n      swap1\n      0xffffffff\n      and\n      jump\t// in\n    tag_364:\n        /* \"contracts/MetaMasterChef.sol\":32358:32408  user.amount.mul(pool.accDRGPerShare).div(1e12).sub */\n      tag_164\n      swap1\n        /* \"contracts/MetaMasterChef.sol\":32358:32425  user.amount.mul(pool.accDRGPerShare).div(1e12).sub(user.rewardDebt) */\n      swap2\n      swap1\n      0xffffffff\n      and\n      jump\t// in\n    tag_363:\n        /* \"contracts/MetaMasterChef.sol\":32340:32425  uint256 pending = user.amount.mul(pool.accDRGPerShare).div(1e12).sub(user.rewardDebt) */\n      swap1\n      pop\n        /* \"contracts/MetaMasterChef.sol\":32449:32450  0 */\n      0x00\n        /* \"contracts/MetaMasterChef.sol\":32439:32446  pending */\n      dup2\n        /* \"contracts/MetaMasterChef.sol\":32439:32450  pending > 0 */\n      gt\n        /* \"contracts/MetaMasterChef.sol\":32436:32523  if(pending > 0){\r... */\n      iszero\n      tag_366\n      jumpi\n        /* \"contracts/MetaMasterChef.sol\":32466:32511  safeDRGTransfer(address(msg.sender), pending) */\n      tag_367\n        /* \"contracts/MetaMasterChef.sol\":32490:32500  msg.sender */\n      caller\n        /* \"contracts/MetaMasterChef.sol\":32503:32510  pending */\n      dup3\n        /* \"contracts/MetaMasterChef.sol\":32466:32481  safeDRGTransfer */\n      tag_167\n        /* \"contracts/MetaMasterChef.sol\":32466:32511  safeDRGTransfer(address(msg.sender), pending) */\n      jump\t// in\n    tag_367:\n        /* \"contracts/MetaMasterChef.sol\":32436:32523  if(pending > 0){\r... */\n    tag_366:\n        /* \"contracts/MetaMasterChef.sol\":32547:32571  user.amount.sub(_amount) */\n      tag_368\n        /* \"contracts/MetaMasterChef.sol\":32563:32570  _amount */\n      dup5\n        /* \"contracts/MetaMasterChef.sol\":32547:32551  user */\n      dup4\n        /* \"contracts/MetaMasterChef.sol\":32547:32558  user.amount */\n      0x00\n      add\n      sload\n        /* \"contracts/MetaMasterChef.sol\":32547:32562  user.amount.sub */\n      tag_164\n      swap1\n        /* \"contracts/MetaMasterChef.sol\":32547:32571  user.amount.sub(_amount) */\n      swap2\n      swap1\n      0xffffffff\n      and\n      jump\t// in\n    tag_368:\n        /* \"contracts/MetaMasterChef.sol\":32533:32537  user */\n      dup3\n        /* \"contracts/MetaMasterChef.sol\":32533:32544  user.amount */\n      0x00\n      add\n        /* \"contracts/MetaMasterChef.sol\":32533:32571  user.amount = user.amount.sub(_amount) */\n      dup2\n      swap1\n      sstore\n      pop\n        /* \"contracts/MetaMasterChef.sol\":32602:32632  poolBalance[_pid].sub(_amount) */\n      tag_369\n        /* \"contracts/MetaMasterChef.sol\":32624:32631  _amount */\n      dup5\n        /* \"contracts/MetaMasterChef.sol\":32602:32613  poolBalance */\n      0x0b\n        /* \"contracts/MetaMasterChef.sol\":32602:32619  poolBalance[_pid] */\n      0x00\n        /* \"contracts/MetaMasterChef.sol\":32614:32618  _pid */\n      dup10\n        /* \"contracts/MetaMasterChef.sol\":32602:32619  poolBalance[_pid] */\n      dup2\n      mstore\n      0x20\n      add\n      swap1\n      dup2\n      mstore\n      0x20\n      add\n      0x00\n      keccak256\n      sload\n        /* \"contracts/MetaMasterChef.sol\":32602:32623  poolBalance[_pid].sub */\n      tag_164\n      swap1\n        /* \"contracts/MetaMasterChef.sol\":32602:32632  poolBalance[_pid].sub(_amount) */\n      swap2\n      swap1\n      0xffffffff\n      and\n      jump\t// in\n    tag_369:\n        /* \"contracts/MetaMasterChef.sol\":32582:32593  poolBalance */\n      0x0b\n        /* \"contracts/MetaMasterChef.sol\":32582:32599  poolBalance[_pid] */\n      0x00\n        /* \"contracts/MetaMasterChef.sol\":32594:32598  _pid */\n      dup9\n        /* \"contracts/MetaMasterChef.sol\":32582:32599  poolBalance[_pid] */\n      dup2\n      mstore\n      0x20\n      add\n      swap1\n      dup2\n      mstore\n      0x20\n      add\n      0x00\n      keccak256\n        /* \"contracts/MetaMasterChef.sol\":32582:32632  poolBalance[_pid] = poolBalance[_pid].sub(_amount) */\n      dup2\n      swap1\n      sstore\n      pop\n        /* \"contracts/MetaMasterChef.sol\":32661:32707  user.amount.mul(pool.accDRGPerShare).div(1e12) */\n      tag_370\n        /* \"contracts/MetaMasterChef.sol\":32702:32706  1e12 */\n      0xe8d4a51000\n        /* \"contracts/MetaMasterChef.sol\":32661:32697  user.amount.mul(pool.accDRGPerShare) */\n      tag_371\n        /* \"contracts/MetaMasterChef.sol\":32677:32681  pool */\n      dup6\n        /* \"contracts/MetaMasterChef.sol\":32677:32696  pool.accDRGPerShare */\n      0x03\n      add\n      sload\n        /* \"contracts/MetaMasterChef.sol\":32661:32665  user */\n      dup6\n        /* \"contracts/MetaMasterChef.sol\":32661:32672  user.amount */\n      0x00\n      add\n      sload\n        /* \"contracts/MetaMasterChef.sol\":32661:32676  user.amount.mul */\n      tag_162\n      swap1\n        /* \"contracts/MetaMasterChef.sol\":32661:32697  user.amount.mul(pool.accDRGPerShare) */\n      swap2\n      swap1\n      0xffffffff\n      and\n      jump\t// in\n    tag_371:\n        /* \"contracts/MetaMasterChef.sol\":32661:32701  user.amount.mul(pool.accDRGPerShare).div */\n      tag_163\n      swap1\n        /* \"contracts/MetaMasterChef.sol\":32661:32707  user.amount.mul(pool.accDRGPerShare).div(1e12) */\n      swap2\n      swap1\n      0xffffffff\n      and\n      jump\t// in\n    tag_370:\n        /* \"contracts/MetaMasterChef.sol\":32643:32647  user */\n      dup3\n        /* \"contracts/MetaMasterChef.sol\":32643:32658  user.rewardDebt */\n      0x01\n      add\n        /* \"contracts/MetaMasterChef.sol\":32643:32707  user.rewardDebt = user.amount.mul(pool.accDRGPerShare).div(1e12) */\n      dup2\n      swap1\n      sstore\n      pop\n        /* \"contracts/MetaMasterChef.sol\":32736:32737  0 */\n      0x00\n        /* \"contracts/MetaMasterChef.sol\":32721:32725  pool */\n      dup4\n        /* \"contracts/MetaMasterChef.sol\":32721:32732  pool.method */\n      0x07\n      add\n      sload\n        /* \"contracts/MetaMasterChef.sol\":32721:32737  pool.method == 0 */\n      eq\n        /* \"contracts/MetaMasterChef.sol\":32718:32883  if(pool.method == 0){\r... */\n      iszero\n      tag_372\n      jumpi\n        /* \"contracts/MetaMasterChef.sol\":32753:32757  pool */\n      dup3\n        /* \"contracts/MetaMasterChef.sol\":32753:32772  pool.poolMasterChef */\n      0x04\n      add\n      0x00\n      swap1\n      sload\n      swap1\n      0x0100\n      exp\n      swap1\n      div\n      0xffffffffffffffffffffffffffffffffffffffff\n      and\n        /* \"contracts/MetaMasterChef.sol\":32753:32785  pool.poolMasterChef.leaveStaking */\n      0xffffffffffffffffffffffffffffffffffffffff\n      and\n      0x1058d281\n        /* \"contracts/MetaMasterChef.sol\":32786:32793  _amount */\n      dup6\n        /* \"contracts/MetaMasterChef.sol\":32753:32794  pool.poolMasterChef.leaveStaking(_amount) */\n      mload(0x40)\n      dup3\n      0xffffffff\n      and\n      0xe0\n      shl\n      dup2\n      mstore\n      0x04\n      add\n      tag_373\n      swap2\n      swap1\n      tag_48\n      jump\t// in\n    tag_373:\n      0x00\n      mload(0x40)\n      dup1\n      dup4\n      sub\n      dup2\n      0x00\n      dup8\n      dup1\n      extcodesize\n      iszero\n      dup1\n      iszero\n      tag_374\n      jumpi\n      0x00\n      dup1\n      revert\n    tag_374:\n      pop\n      gas\n      call\n      iszero\n      dup1\n      iszero\n      tag_376\n      jumpi\n      returndatasize\n      0x00\n      dup1\n      returndatacopy\n      revert(0x00, returndatasize)\n    tag_376:\n      pop\n      pop\n      pop\n      pop\n        /* \"contracts/MetaMasterChef.sol\":32718:32883  if(pool.method == 0){\r... */\n      jump(tag_377)\n    tag_372:\n        /* \"contracts/MetaMasterChef.sol\":32825:32829  pool */\n      dup3\n        /* \"contracts/MetaMasterChef.sol\":32825:32844  pool.poolMasterChef */\n      0x04\n      add\n      0x00\n      swap1\n      sload\n      swap1\n      0x0100\n      exp\n      swap1\n      div\n      0xffffffffffffffffffffffffffffffffffffffff\n      and\n        /* \"contracts/MetaMasterChef.sol\":32825:32853  pool.poolMasterChef.withdraw */\n      0xffffffffffffffffffffffffffffffffffffffff\n      and\n      0x441a3e70\n        /* \"contracts/MetaMasterChef.sol\":32854:32861  _BSWPid */\n      dup7\n        /* \"contracts/MetaMasterChef.sol\":32863:32870  _amount */\n      dup7\n        /* \"contracts/MetaMasterChef.sol\":32825:32871  pool.poolMasterChef.withdraw(_BSWPid, _amount) */\n      mload(0x40)\n      dup4\n      0xffffffff\n      and\n      0xe0\n      shl\n      dup2\n      mstore\n      0x04\n      add\n      tag_378\n      swap3\n      swap2\n      swap1\n      tag_128\n      jump\t// in\n    tag_378:\n      0x00\n      mload(0x40)\n      dup1\n      dup4\n      sub\n      dup2\n      0x00\n      dup8\n      dup1\n      extcodesize\n      iszero\n      dup1\n      iszero\n      tag_379\n      jumpi\n      0x00\n      dup1\n      revert\n    tag_379:\n      pop\n      gas\n      call\n      iszero\n      dup1\n      iszero\n      tag_381\n      jumpi\n      returndatasize\n      0x00\n      dup1\n      returndatacopy\n      revert(0x00, returndatasize)\n    tag_381:\n      pop\n      pop\n      pop\n      pop\n        /* \"contracts/MetaMasterChef.sol\":32718:32883  if(pool.method == 0){\r... */\n    tag_377:\n        /* \"contracts/MetaMasterChef.sol\":32893:32948  pool.lpToken.safeTransfer(address(msg.sender), _amount) */\n      tag_382\n        /* \"contracts/MetaMasterChef.sol\":32927:32937  msg.sender */\n      caller\n        /* \"contracts/MetaMasterChef.sol\":32940:32947  _amount */\n      dup6\n        /* \"contracts/MetaMasterChef.sol\":32893:32897  pool */\n      dup6\n        /* \"contracts/MetaMasterChef.sol\":32893:32905  pool.lpToken */\n      0x00\n      add\n      0x00\n      swap1\n      sload\n      swap1\n      0x0100\n      exp\n      swap1\n      div\n      0xffffffffffffffffffffffffffffffffffffffff\n      and\n        /* \"contracts/MetaMasterChef.sol\":32893:32918  pool.lpToken.safeTransfer */\n      0xffffffffffffffffffffffffffffffffffffffff\n      and\n      tag_205\n      swap1\n        /* \"contracts/MetaMasterChef.sol\":32893:32948  pool.lpToken.safeTransfer(address(msg.sender), _amount) */\n      swap3\n      swap2\n      swap1\n      0xffffffff\n      and\n      jump\t// in\n    tag_382:\n        /* \"contracts/MetaMasterChef.sol\":32959:32973  uint256 reward */\n      0x00\n        /* \"contracts/MetaMasterChef.sol\":32976:32980  pool */\n      dup4\n        /* \"contracts/MetaMasterChef.sol\":32976:32992  pool.rewardToken */\n      0x05\n      add\n      0x00\n      swap1\n      sload\n      swap1\n      0x0100\n      exp\n      swap1\n      div\n      0xffffffffffffffffffffffffffffffffffffffff\n      and\n        /* \"contracts/MetaMasterChef.sol\":32976:33002  pool.rewardToken.balanceOf */\n      0xffffffffffffffffffffffffffffffffffffffff\n      and\n      0x70a08231\n        /* \"contracts/MetaMasterChef.sol\":33011:33015  this */\n      address\n        /* \"contracts/MetaMasterChef.sol\":32976:33017  pool.rewardToken.balanceOf(address(this)) */\n      mload(0x40)\n      dup3\n      0xffffffff\n      and\n      0xe0\n      shl\n      dup2\n      mstore\n      0x04\n      add\n      tag_383\n      swap2\n      swap1\n      tag_118\n      jump\t// in\n    tag_383:\n      0x20\n      mload(0x40)\n      dup1\n      dup4\n      sub\n      dup2\n      dup7\n      dup1\n      extcodesize\n      iszero\n      dup1\n      iszero\n      tag_384\n      jumpi\n      0x00\n      dup1\n      revert\n    tag_384:\n      pop\n      gas\n      staticcall\n      iszero\n      dup1\n      iszero\n      tag_386\n      jumpi\n      returndatasize\n      0x00\n      dup1\n      returndatacopy\n      revert(0x00, returndatasize)\n    tag_386:\n      pop\n      pop\n      pop\n      pop\n      mload(0x40)\n      returndatasize\n      not(0x1f)\n      0x1f\n      dup3\n      add\n      and\n      dup3\n      add\n      dup1\n      0x40\n      mstore\n      pop\n      dup2\n      add\n      swap1\n      tag_387\n      swap2\n      swap1\n      tag_174\n      jump\t// in\n    tag_387:\n        /* \"contracts/MetaMasterChef.sol\":32959:33017  uint256 reward = pool.rewardToken.balanceOf(address(this)) */\n      swap1\n      pop\n        /* \"contracts/MetaMasterChef.sol\":33040:33041  0 */\n      0x00\n        /* \"contracts/MetaMasterChef.sol\":33031:33037  reward */\n      dup2\n        /* \"contracts/MetaMasterChef.sol\":33031:33041  reward > 0 */\n      gt\n        /* \"contracts/MetaMasterChef.sol\":33028:33124  if(reward > 0){\r... */\n      iszero\n      tag_388\n      jumpi\n        /* \"contracts/MetaMasterChef.sol\":33057:33112  pool.rewardToken.safeTransfer(address(devaddr), reward) */\n      tag_389\n        /* \"contracts/MetaMasterChef.sol\":33095:33102  devaddr */\n      0x03\n      0x00\n      swap1\n      sload\n      swap1\n      0x0100\n      exp\n      swap1\n      div\n      0xffffffffffffffffffffffffffffffffffffffff\n      and\n        /* \"contracts/MetaMasterChef.sol\":33105:33111  reward */\n      dup3\n        /* \"contracts/MetaMasterChef.sol\":33057:33061  pool */\n      dup7\n        /* \"contracts/MetaMasterChef.sol\":33057:33073  pool.rewardToken */\n      0x05\n      add\n      0x00\n      swap1\n      sload\n      swap1\n      0x0100\n      exp\n      swap1\n      div\n      0xffffffffffffffffffffffffffffffffffffffff\n      and\n        /* \"contracts/MetaMasterChef.sol\":33057:33086  pool.rewardToken.safeTransfer */\n      0xffffffffffffffffffffffffffffffffffffffff\n      and\n      tag_205\n      swap1\n        /* \"contracts/MetaMasterChef.sol\":33057:33112  pool.rewardToken.safeTransfer(address(devaddr), reward) */\n      swap3\n      swap2\n      swap1\n      0xffffffff\n      and\n      jump\t// in\n    tag_389:\n        /* \"contracts/MetaMasterChef.sol\":33028:33124  if(reward > 0){\r... */\n    tag_388:\n        /* \"contracts/MetaMasterChef.sol\":33160:33164  _pid */\n      dup7\n        /* \"contracts/MetaMasterChef.sol\":33148:33158  msg.sender */\n      caller\n        /* \"contracts/MetaMasterChef.sol\":33139:33174  Withdraw(msg.sender, _pid, _amount) */\n      0xffffffffffffffffffffffffffffffffffffffff\n      and\n      0xf279e6a1f5e320cca91135676d9cb6e44ca8a08c0b88342bcdb1144f6511b568\n        /* \"contracts/MetaMasterChef.sol\":33166:33173  _amount */\n      dup8\n        /* \"contracts/MetaMasterChef.sol\":33139:33174  Withdraw(msg.sender, _pid, _amount) */\n      mload(0x40)\n      tag_390\n      swap2\n      swap1\n      tag_48\n      jump\t// in\n    tag_390:\n      mload(0x40)\n      dup1\n      swap2\n      sub\n      swap1\n      log3\n        /* \"contracts/MetaMasterChef.sol\":32126:33182  {\r... */\n      pop\n      pop\n      pop\n      pop\n        /* \"contracts/MetaMasterChef.sol\":32053:33182  function withdraw(uint256 _pid, uint256 _BSWPid, uint256 _amount) public {\r... */\n      pop\n      pop\n      pop\n      jump\t// out\n        /* \"contracts/MetaMasterChef.sol\":34190:34285  function setDevAddress(address _devaddr) public onlyOwner {\r... */\n    tag_138:\n        /* \"contracts/MetaMasterChef.sol\":20336:20348  _msgSender() */\n      tag_392\n        /* \"contracts/MetaMasterChef.sol\":20336:20346  _msgSender */\n      tag_210\n        /* \"contracts/MetaMasterChef.sol\":20336:20348  _msgSender() */\n      jump\t// in\n    tag_392:\n        /* \"contracts/MetaMasterChef.sol\":20325:20348  owner() == _msgSender() */\n      0xffffffffffffffffffffffffffffffffffffffff\n      and\n        /* \"contracts/MetaMasterChef.sol\":20325:20332  owner() */\n      tag_393\n        /* \"contracts/MetaMasterChef.sol\":20325:20330  owner */\n      tag_116\n        /* \"contracts/MetaMasterChef.sol\":20325:20332  owner() */\n      jump\t// in\n    tag_393:\n        /* \"contracts/MetaMasterChef.sol\":20325:20348  owner() == _msgSender() */\n      0xffffffffffffffffffffffffffffffffffffffff\n      and\n      eq\n        /* \"contracts/MetaMasterChef.sol\":20317:20385  require(owner() == _msgSender(), \"Ownable: caller is not the owner\") */\n      tag_394\n      jumpi\n      mload(0x40)\n      0x08c379a000000000000000000000000000000000000000000000000000000000\n      dup2\n      mstore\n      0x04\n      add\n      tag_395\n      swap1\n      tag_214\n      jump\t// in\n    tag_395:\n      mload(0x40)\n      dup1\n      swap2\n      sub\n      swap1\n      revert\n    tag_394:\n        /* \"contracts/MetaMasterChef.sol\":34269:34277  _devaddr */\n      dup1\n        /* \"contracts/MetaMasterChef.sol\":34259:34266  devaddr */\n      0x03\n      0x00\n        /* \"contracts/MetaMasterChef.sol\":34259:34277  devaddr = _devaddr */\n      0x0100\n      exp\n      dup2\n      sload\n      dup2\n      0xffffffffffffffffffffffffffffffffffffffff\n      mul\n      not\n      and\n      swap1\n      dup4\n      0xffffffffffffffffffffffffffffffffffffffff\n      and\n      mul\n      or\n      swap1\n      sstore\n      pop\n        /* \"contracts/MetaMasterChef.sol\":34190:34285  function setDevAddress(address _devaddr) public onlyOwner {\r... */\n      pop\n      jump\t// out\n        /* \"contracts/MetaMasterChef.sol\":24311:24333  address public devaddr */\n    tag_140:\n      0x03\n      0x00\n      swap1\n      sload\n      swap1\n      0x0100\n      exp\n      swap1\n      div\n      0xffffffffffffffffffffffffffffffffffffffff\n      and\n      dup2\n      jump\t// out\n        /* \"contracts/MetaMasterChef.sol\":24199:24234  INFTMasterChef public NFTMasterChef */\n    tag_143:\n      0x01\n      0x00\n      swap1\n      sload\n      swap1\n      0x0100\n      exp\n      swap1\n      div\n      0xffffffffffffffffffffffffffffffffffffffff\n      and\n      dup2\n      jump\t// out\n        /* \"contracts/MetaMasterChef.sol\":30228:30466  function enablePool(uint256 _pid) public {\r... */\n    tag_148:\n        /* \"contracts/MetaMasterChef.sol\":30280:30301  PoolInfo storage pool */\n      0x00\n        /* \"contracts/MetaMasterChef.sol\":30304:30312  poolInfo */\n      0x07\n        /* \"contracts/MetaMasterChef.sol\":30313:30317  _pid */\n      dup3\n        /* \"contracts/MetaMasterChef.sol\":30304:30318  poolInfo[_pid] */\n      dup2\n      sload\n      dup2\n      lt\n      tag_398\n      jumpi\n      tag_399\n      tag_155\n      jump\t// in\n    tag_399:\n    tag_398:\n      swap1\n      0x00\n      mstore\n      keccak256(0x00, 0x20)\n      swap1\n      0x08\n      mul\n      add\n        /* \"contracts/MetaMasterChef.sol\":30280:30318  PoolInfo storage pool = poolInfo[_pid] */\n      swap1\n      pop\n        /* \"contracts/MetaMasterChef.sol\":30329:30333  pool */\n      dup1\n        /* \"contracts/MetaMasterChef.sol\":30329:30341  pool.lpToken */\n      0x00\n      add\n      0x00\n      swap1\n      sload\n      swap1\n      0x0100\n      exp\n      swap1\n      div\n      0xffffffffffffffffffffffffffffffffffffffff\n      and\n        /* \"contracts/MetaMasterChef.sol\":30329:30349  pool.lpToken.approve */\n      0xffffffffffffffffffffffffffffffffffffffff\n      and\n      0x095ea7b3\n        /* \"contracts/MetaMasterChef.sol\":30358:30362  pool */\n      dup3\n        /* \"contracts/MetaMasterChef.sol\":30358:30377  pool.poolMasterChef */\n      0x04\n      add\n      0x00\n      swap1\n      sload\n      swap1\n      0x0100\n      exp\n      swap1\n      div\n      0xffffffffffffffffffffffffffffffffffffffff\n      and\n        /* \"contracts/MetaMasterChef.sol\":30379:30392  approveAmount */\n      sload(0x0c)\n        /* \"contracts/MetaMasterChef.sol\":30329:30393  pool.lpToken.approve(address(pool.poolMasterChef),approveAmount) */\n      mload(0x40)\n      dup4\n      0xffffffff\n      and\n      0xe0\n      shl\n      dup2\n      mstore\n      0x04\n      add\n      tag_401\n      swap3\n      swap2\n      swap1\n      tag_274\n      jump\t// in\n    tag_401:\n      0x20\n      mload(0x40)\n      dup1\n      dup4\n      sub\n      dup2\n      0x00\n      dup8\n      dup1\n      extcodesize\n      iszero\n      dup1\n      iszero\n      tag_402\n      jumpi\n      0x00\n      dup1\n      revert\n    tag_402:\n      pop\n      gas\n      call\n      iszero\n      dup1\n      iszero\n      tag_404\n      jumpi\n      returndatasize\n      0x00\n      dup1\n      returndatacopy\n      revert(0x00, returndatasize)\n    tag_404:\n      pop\n      pop\n      pop\n      pop\n      mload(0x40)\n      returndatasize\n      not(0x1f)\n      0x1f\n      dup3\n      add\n      and\n      dup3\n      add\n      dup1\n      0x40\n      mstore\n      pop\n      dup2\n      add\n      swap1\n      tag_405\n      swap2\n      swap1\n      tag_279\n      jump\t// in\n    tag_405:\n      pop\n        /* \"contracts/MetaMasterChef.sol\":30404:30408  pool */\n      dup1\n        /* \"contracts/MetaMasterChef.sol\":30404:30420  pool.rewardToken */\n      0x05\n      add\n      0x00\n      swap1\n      sload\n      swap1\n      0x0100\n      exp\n      swap1\n      div\n      0xffffffffffffffffffffffffffffffffffffffff\n      and\n        /* \"contracts/MetaMasterChef.sol\":30404:30428  pool.rewardToken.approve */\n      0xffffffffffffffffffffffffffffffffffffffff\n      and\n      0x095ea7b3\n        /* \"contracts/MetaMasterChef.sol\":30437:30441  this */\n      address\n        /* \"contracts/MetaMasterChef.sol\":30444:30457  approveAmount */\n      sload(0x0c)\n        /* \"contracts/MetaMasterChef.sol\":30404:30458  pool.rewardToken.approve(address(this), approveAmount) */\n      mload(0x40)\n      dup4\n      0xffffffff\n      and\n      0xe0\n      shl\n      dup2\n      mstore\n      0x04\n      add\n      tag_406\n      swap3\n      swap2\n      swap1\n      tag_274\n      jump\t// in\n    tag_406:\n      0x20\n      mload(0x40)\n      dup1\n      dup4\n      sub\n      dup2\n      0x00\n      dup8\n      dup1\n      extcodesize\n      iszero\n      dup1\n      iszero\n      tag_407\n      jumpi\n      0x00\n      dup1\n      revert\n    tag_407:\n      pop\n      gas\n      call\n      iszero\n      dup1\n      iszero\n      tag_409\n      jumpi\n      returndatasize\n      0x00\n      dup1\n      returndatacopy\n      revert(0x00, returndatasize)\n    tag_409:\n      pop\n      pop\n      pop\n      pop\n      mload(0x40)\n      returndatasize\n      not(0x1f)\n      0x1f\n      dup3\n      add\n      and\n      dup3\n      add\n      dup1\n      0x40\n      mstore\n      pop\n      dup2\n      add\n      swap1\n      tag_410\n      swap2\n      swap1\n      tag_279\n      jump\t// in\n    tag_410:\n      pop\n        /* \"contracts/MetaMasterChef.sol\":30269:30466  {\r... */\n      pop\n        /* \"contracts/MetaMasterChef.sol\":30228:30466  function enablePool(uint256 _pid) public {\r... */\n      pop\n      jump\t// out\n        /* \"contracts/MetaMasterChef.sol\":21014:21215  function transferOwnership(address newOwner) public virtual onlyOwner {\r... */\n    tag_151:\n        /* \"contracts/MetaMasterChef.sol\":20336:20348  _msgSender() */\n      tag_412\n        /* \"contracts/MetaMasterChef.sol\":20336:20346  _msgSender */\n      tag_210\n        /* \"contracts/MetaMasterChef.sol\":20336:20348  _msgSender() */\n      jump\t// in\n    tag_412:\n        /* \"contracts/MetaMasterChef.sol\":20325:20348  owner() == _msgSender() */\n      0xffffffffffffffffffffffffffffffffffffffff\n      and\n        /* \"contracts/MetaMasterChef.sol\":20325:20332  owner() */\n      tag_413\n        /* \"contracts/MetaMasterChef.sol\":20325:20330  owner */\n      tag_116\n        /* \"contracts/MetaMasterChef.sol\":20325:20332  owner() */\n      jump\t// in\n    tag_413:\n        /* \"contracts/MetaMasterChef.sol\":20325:20348  owner() == _msgSender() */\n      0xffffffffffffffffffffffffffffffffffffffff\n      and\n      eq\n        /* \"contracts/MetaMasterChef.sol\":20317:20385  require(owner() == _msgSender(), \"Ownable: caller is not the owner\") */\n      tag_414\n      jumpi\n      mload(0x40)\n      0x08c379a000000000000000000000000000000000000000000000000000000000\n      dup2\n      mstore\n      0x04\n      add\n      tag_415\n      swap1\n      tag_214\n      jump\t// in\n    tag_415:\n      mload(0x40)\n      dup1\n      swap2\n      sub\n      swap1\n      revert\n    tag_414:\n        /* \"contracts/MetaMasterChef.sol\":21123:21124  0 */\n      0x00\n        /* \"contracts/MetaMasterChef.sol\":21103:21125  newOwner != address(0) */\n      0xffffffffffffffffffffffffffffffffffffffff\n      and\n        /* \"contracts/MetaMasterChef.sol\":21103:21111  newOwner */\n      dup2\n        /* \"contracts/MetaMasterChef.sol\":21103:21125  newOwner != address(0) */\n      0xffffffffffffffffffffffffffffffffffffffff\n      and\n      eq\n      iszero\n        /* \"contracts/MetaMasterChef.sol\":21095:21168  require(newOwner != address(0), \"Ownable: new owner is the zero address\") */\n      tag_417\n      jumpi\n      mload(0x40)\n      0x08c379a000000000000000000000000000000000000000000000000000000000\n      dup2\n      mstore\n      0x04\n      add\n      tag_418\n      swap1\n      tag_419\n      jump\t// in\n    tag_418:\n      mload(0x40)\n      dup1\n      swap2\n      sub\n      swap1\n      revert\n    tag_417:\n        /* \"contracts/MetaMasterChef.sol\":21179:21207  _transferOwnership(newOwner) */\n      tag_420\n        /* \"contracts/MetaMasterChef.sol\":21198:21206  newOwner */\n      dup2\n        /* \"contracts/MetaMasterChef.sol\":21179:21197  _transferOwnership */\n      tag_350\n        /* \"contracts/MetaMasterChef.sol\":21179:21207  _transferOwnership(newOwner) */\n      jump\t// in\n    tag_420:\n        /* \"contracts/MetaMasterChef.sol\":21014:21215  function transferOwnership(address newOwner) public virtual onlyOwner {\r... */\n      pop\n      jump\t// out\n        /* \"contracts/MetaMasterChef.sol\":1757:2228  function mul(uint256 a, uint256 b) internal pure returns (uint256) {\r... */\n    tag_162:\n        /* \"contracts/MetaMasterChef.sol\":1815:1822  uint256 */\n      0x00\n        /* \"contracts/MetaMasterChef.sol\":2065:2066  0 */\n      dup1\n        /* \"contracts/MetaMasterChef.sol\":2060:2061  a */\n      dup4\n        /* \"contracts/MetaMasterChef.sol\":2060:2066  a == 0 */\n      eq\n        /* \"contracts/MetaMasterChef.sol\":2056:2103  if (a == 0) {\r... */\n      iszero\n      tag_422\n      jumpi\n        /* \"contracts/MetaMasterChef.sol\":2090:2091  0 */\n      0x00\n        /* \"contracts/MetaMasterChef.sol\":2083:2091  return 0 */\n      swap1\n      pop\n      jump(tag_421)\n        /* \"contracts/MetaMasterChef.sol\":2056:2103  if (a == 0) {\r... */\n    tag_422:\n        /* \"contracts/MetaMasterChef.sol\":2115:2124  uint256 c */\n      0x00\n        /* \"contracts/MetaMasterChef.sol\":2131:2132  b */\n      dup3\n        /* \"contracts/MetaMasterChef.sol\":2127:2128  a */\n      dup5\n        /* \"contracts/MetaMasterChef.sol\":2127:2132  a * b */\n      tag_423\n      swap2\n      swap1\n      tag_424\n      jump\t// in\n    tag_423:\n        /* \"contracts/MetaMasterChef.sol\":2115:2132  uint256 c = a * b */\n      swap1\n      pop\n        /* \"contracts/MetaMasterChef.sol\":2160:2161  b */\n      dup3\n        /* \"contracts/MetaMasterChef.sol\":2155:2156  a */\n      dup5\n        /* \"contracts/MetaMasterChef.sol\":2151:2152  c */\n      dup3\n        /* \"contracts/MetaMasterChef.sol\":2151:2156  c / a */\n      tag_425\n      swap2\n      swap1\n      tag_426\n      jump\t// in\n    tag_425:\n        /* \"contracts/MetaMasterChef.sol\":2151:2161  c / a == b */\n      eq\n        /* \"contracts/MetaMasterChef.sol\":2143:2199  require(c / a == b, \"SafeMath: multiplication overflow\") */\n      tag_427\n      jumpi\n      mload(0x40)\n      0x08c379a000000000000000000000000000000000000000000000000000000000\n      dup2\n      mstore\n      0x04\n      add\n      tag_428\n      swap1\n      tag_429\n      jump\t// in\n    tag_428:\n      mload(0x40)\n      dup1\n      swap2\n      sub\n      swap1\n      revert\n    tag_427:\n        /* \"contracts/MetaMasterChef.sol\":2219:2220  c */\n      dup1\n        /* \"contracts/MetaMasterChef.sol\":2212:2220  return c */\n      swap2\n      pop\n      pop\n        /* \"contracts/MetaMasterChef.sol\":1757:2228  function mul(uint256 a, uint256 b) internal pure returns (uint256) {\r... */\n    tag_421:\n      swap3\n      swap2\n      pop\n      pop\n      jump\t// out\n        /* \"contracts/MetaMasterChef.sol\":2696:2828  function div(uint256 a, uint256 b) internal pure returns (uint256) {\r... */\n    tag_163:\n        /* \"contracts/MetaMasterChef.sol\":2754:2761  uint256 */\n      0x00\n        /* \"contracts/MetaMasterChef.sol\":2781:2820  div(a, b, \"SafeMath: division by zero\") */\n      tag_431\n        /* \"contracts/MetaMasterChef.sol\":2785:2786  a */\n      dup4\n        /* \"contracts/MetaMasterChef.sol\":2788:2789  b */\n      dup4\n        /* \"contracts/MetaMasterChef.sol\":2781:2820  div(a, b, \"SafeMath: division by zero\") */\n      mload(0x40)\n      dup1\n      0x40\n      add\n      0x40\n      mstore\n      dup1\n      0x1a\n      dup2\n      mstore\n      0x20\n      add\n      0x536166654d6174683a206469766973696f6e206279207a65726f000000000000\n      dup2\n      mstore\n      pop\n        /* \"contracts/MetaMasterChef.sol\":2781:2784  div */\n      tag_432\n        /* \"contracts/MetaMasterChef.sol\":2781:2820  div(a, b, \"SafeMath: division by zero\") */\n      jump\t// in\n    tag_431:\n        /* \"contracts/MetaMasterChef.sol\":2774:2820  return div(a, b, \"SafeMath: division by zero\") */\n      swap1\n      pop\n        /* \"contracts/MetaMasterChef.sol\":2696:2828  function div(uint256 a, uint256 b) internal pure returns (uint256) {\r... */\n      swap3\n      swap2\n      pop\n      pop\n      jump\t// out\n        /* \"contracts/MetaMasterChef.sol\":841:977  function sub(uint256 a, uint256 b) internal pure returns (uint256) {\r... */\n    tag_164:\n        /* \"contracts/MetaMasterChef.sol\":899:906  uint256 */\n      0x00\n        /* \"contracts/MetaMasterChef.sol\":926:969  sub(a, b, \"SafeMath: subtraction overflow\") */\n      tag_434\n        /* \"contracts/MetaMasterChef.sol\":930:931  a */\n      dup4\n        /* \"contracts/MetaMasterChef.sol\":933:934  b */\n      dup4\n        /* \"contracts/MetaMasterChef.sol\":926:969  sub(a, b, \"SafeMath: subtraction overflow\") */\n      mload(0x40)\n      dup1\n      0x40\n      add\n      0x40\n      mstore\n      dup1\n      0x1e\n      dup2\n      mstore\n      0x20\n      add\n      0x536166654d6174683a207375627472616374696f6e206f766572666c6f770000\n      dup2\n      mstore\n      pop\n        /* \"contracts/MetaMasterChef.sol\":926:929  sub */\n      tag_435\n        /* \"contracts/MetaMasterChef.sol\":926:969  sub(a, b, \"SafeMath: subtraction overflow\") */\n      jump\t// in\n    tag_434:\n        /* \"contracts/MetaMasterChef.sol\":919:969  return sub(a, b, \"SafeMath: subtraction overflow\") */\n      swap1\n      pop\n        /* \"contracts/MetaMasterChef.sol\":841:977  function sub(uint256 a, uint256 b) internal pure returns (uint256) {\r... */\n      swap3\n      swap2\n      pop\n      pop\n      jump\t// out\n        /* \"contracts/MetaMasterChef.sol\":33905:34176  function safeDRGTransfer(address _to, uint256 _amount) internal {\r... */\n    tag_167:\n        /* \"contracts/MetaMasterChef.sol\":33980:33994  uint256 DRGBal */\n      0x00\n        /* \"contracts/MetaMasterChef.sol\":33997:34000  DRG */\n      0x02\n      0x00\n      swap1\n      sload\n      swap1\n      0x0100\n      exp\n      swap1\n      div\n      0xffffffffffffffffffffffffffffffffffffffff\n      and\n        /* \"contracts/MetaMasterChef.sol\":33997:34010  DRG.balanceOf */\n      0xffffffffffffffffffffffffffffffffffffffff\n      and\n      0x70a08231\n        /* \"contracts/MetaMasterChef.sol\":34019:34023  this */\n      address\n        /* \"contracts/MetaMasterChef.sol\":33997:34025  DRG.balanceOf(address(this)) */\n      mload(0x40)\n      dup3\n      0xffffffff\n      and\n      0xe0\n      shl\n      dup2\n      mstore\n      0x04\n      add\n      tag_437\n      swap2\n      swap1\n      tag_118\n      jump\t// in\n    tag_437:\n      0x20\n      mload(0x40)\n      dup1\n      dup4\n      sub\n      dup2\n      dup7\n      dup1\n      extcodesize\n      iszero\n      dup1\n      iszero\n      tag_438\n      jumpi\n      0x00\n      dup1\n      revert\n    tag_438:\n      pop\n      gas\n      staticcall\n      iszero\n      dup1\n      iszero\n      tag_440\n      jumpi\n      returndatasize\n      0x00\n      dup1\n      returndatacopy\n      revert(0x00, returndatasize)\n    tag_440:\n      pop\n      pop\n      pop\n      pop\n      mload(0x40)\n      returndatasize\n      not(0x1f)\n      0x1f\n      dup3\n      add\n      and\n      dup3\n      add\n      dup1\n      0x40\n      mstore\n      pop\n      dup2\n      add\n      swap1\n      tag_441\n      swap2\n      swap1\n      tag_174\n      jump\t// in\n    tag_441:\n        /* \"contracts/MetaMasterChef.sol\":33980:34025  uint256 DRGBal = DRG.balanceOf(address(this)) */\n      swap1\n      pop\n        /* \"contracts/MetaMasterChef.sol\":34050:34056  DRGBal */\n      dup1\n        /* \"contracts/MetaMasterChef.sol\":34040:34047  _amount */\n      dup3\n        /* \"contracts/MetaMasterChef.sol\":34040:34056  _amount > DRGBal */\n      gt\n        /* \"contracts/MetaMasterChef.sol\":34036:34169  if (_amount > DRGBal) {\r... */\n      iszero\n      tag_442\n      jumpi\n        /* \"contracts/MetaMasterChef.sol\":34073:34076  DRG */\n      0x02\n      0x00\n      swap1\n      sload\n      swap1\n      0x0100\n      exp\n      swap1\n      div\n      0xffffffffffffffffffffffffffffffffffffffff\n      and\n        /* \"contracts/MetaMasterChef.sol\":34073:34085  DRG.transfer */\n      0xffffffffffffffffffffffffffffffffffffffff\n      and\n      0xa9059cbb\n        /* \"contracts/MetaMasterChef.sol\":34086:34089  _to */\n      dup5\n        /* \"contracts/MetaMasterChef.sol\":34091:34097  DRGBal */\n      dup4\n        /* \"contracts/MetaMasterChef.sol\":34073:34098  DRG.transfer(_to, DRGBal) */\n      mload(0x40)\n      dup4\n      0xffffffff\n      and\n      0xe0\n      shl\n      dup2\n      mstore\n      0x04\n      add\n      tag_443\n      swap3\n      swap2\n      swap1\n      tag_274\n      jump\t// in\n    tag_443:\n      0x20\n      mload(0x40)\n      dup1\n      dup4\n      sub\n      dup2\n      0x00\n      dup8\n      dup1\n      extcodesize\n      iszero\n      dup1\n      iszero\n      tag_444\n      jumpi\n      0x00\n      dup1\n      revert\n    tag_444:\n      pop\n      gas\n      call\n      iszero\n      dup1\n      iszero\n      tag_446\n      jumpi\n      returndatasize\n      0x00\n      dup1\n      returndatacopy\n      revert(0x00, returndatasize)\n    tag_446:\n      pop\n      pop\n      pop\n      pop\n      mload(0x40)\n      returndatasize\n      not(0x1f)\n      0x1f\n      dup3\n      add\n      and\n      dup3\n      add\n      dup1\n      0x40\n      mstore\n      pop\n      dup2\n      add\n      swap1\n      tag_447\n      swap2\n      swap1\n      tag_279\n      jump\t// in\n    tag_447:\n      pop\n        /* \"contracts/MetaMasterChef.sol\":34036:34169  if (_amount > DRGBal) {\r... */\n      jump(tag_448)\n    tag_442:\n        /* \"contracts/MetaMasterChef.sol\":34131:34134  DRG */\n      0x02\n      0x00\n      swap1\n      sload\n      swap1\n      0x0100\n      exp\n      swap1\n      div\n      0xffffffffffffffffffffffffffffffffffffffff\n      and\n        /* \"contracts/MetaMasterChef.sol\":34131:34143  DRG.transfer */\n      0xffffffffffffffffffffffffffffffffffffffff\n      and\n      0xa9059cbb\n        /* \"contracts/MetaMasterChef.sol\":34144:34147  _to */\n      dup5\n        /* \"contracts/MetaMasterChef.sol\":34149:34156  _amount */\n      dup5\n        /* \"contracts/MetaMasterChef.sol\":34131:34157  DRG.transfer(_to, _amount) */\n      mload(0x40)\n      dup4\n      0xffffffff\n      and\n      0xe0\n      shl\n      dup2\n      mstore\n      0x04\n      add\n      tag_449\n      swap3\n      swap2\n      swap1\n      tag_274\n      jump\t// in\n    tag_449:\n      0x20\n      mload(0x40)\n      dup1\n      dup4\n      sub\n      dup2\n      0x00\n      dup8\n      dup1\n      extcodesize\n      iszero\n      dup1\n      iszero\n      tag_450\n      jumpi\n      0x00\n      dup1\n      revert\n    tag_450:\n      pop\n      gas\n      call\n      iszero\n      dup1\n      iszero\n      tag_452\n      jumpi\n      returndatasize\n      0x00\n      dup1\n      returndatacopy\n      revert(0x00, returndatasize)\n    tag_452:\n      pop\n      pop\n      pop\n      pop\n      mload(0x40)\n      returndatasize\n      not(0x1f)\n      0x1f\n      dup3\n      add\n      and\n      dup3\n      add\n      dup1\n      0x40\n      mstore\n      pop\n      dup2\n      add\n      swap1\n      tag_453\n      swap2\n      swap1\n      tag_279\n      jump\t// in\n    tag_453:\n      pop\n        /* \"contracts/MetaMasterChef.sol\":34036:34169  if (_amount > DRGBal) {\r... */\n    tag_448:\n        /* \"contracts/MetaMasterChef.sol\":33969:34176  {\r... */\n      pop\n        /* \"contracts/MetaMasterChef.sol\":33905:34176  function safeDRGTransfer(address _to, uint256 _amount) internal {\r... */\n      pop\n      pop\n      jump\t// out\n        /* \"contracts/MetaMasterChef.sol\":16369:16617  function safeTransferFrom(\r... */\n    tag_181:\n        /* \"contracts/MetaMasterChef.sol\":16513:16609  _callOptionalReturn(token, abi.encodeWithSelector(token.transferFrom.selector, from, to, value)) */\n      tag_455\n        /* \"contracts/MetaMasterChef.sol\":16533:16538  token */\n      dup5\n        /* \"contracts/MetaMasterChef.sol\":16563:16590  token.transferFrom.selector */\n      shl(0xe0, 0x23b872dd)\n        /* \"contracts/MetaMasterChef.sol\":16592:16596  from */\n      dup6\n        /* \"contracts/MetaMasterChef.sol\":16598:16600  to */\n      dup6\n        /* \"contracts/MetaMasterChef.sol\":16602:16607  value */\n      dup6\n        /* \"contracts/MetaMasterChef.sol\":16540:16608  abi.encodeWithSelector(token.transferFrom.selector, from, to, value) */\n      add(0x24, mload(0x40))\n      tag_456\n      swap4\n      swap3\n      swap2\n      swap1\n      tag_457\n      jump\t// in\n    tag_456:\n      mload(0x40)\n      0x20\n      dup2\n      dup4\n      sub\n      sub\n      dup2\n      mstore\n      swap1\n      0x40\n      mstore\n      swap1\n      not(0xffffffffffffffffffffffffffffffffffffffffffffffffffffffff)\n      and\n      0x20\n      dup3\n      add\n      dup1\n      mload\n      0xffffffffffffffffffffffffffffffffffffffffffffffffffffffff\n      dup4\n      dup2\n      dup4\n      and\n      or\n      dup4\n      mstore\n      pop\n      pop\n      pop\n      pop\n        /* \"contracts/MetaMasterChef.sol\":16513:16532  _callOptionalReturn */\n      tag_458\n        /* \"contracts/MetaMasterChef.sol\":16513:16609  _callOptionalReturn(token, abi.encodeWithSelector(token.transferFrom.selector, from, to, value)) */\n      jump\t// in\n    tag_455:\n        /* \"contracts/MetaMasterChef.sol\":16369:16617  function safeTransferFrom(\r... */\n      pop\n      pop\n      pop\n      pop\n      jump\t// out\n        /* \"contracts/MetaMasterChef.sol\":385:566  function add(uint256 a, uint256 b) internal pure returns (uint256) {\r... */\n    tag_194:\n        /* \"contracts/MetaMasterChef.sol\":443:450  uint256 */\n      0x00\n        /* \"contracts/MetaMasterChef.sol\":463:472  uint256 c */\n      dup1\n        /* \"contracts/MetaMasterChef.sol\":479:480  b */\n      dup3\n        /* \"contracts/MetaMasterChef.sol\":475:476  a */\n      dup5\n        /* \"contracts/MetaMasterChef.sol\":475:480  a + b */\n      tag_460\n      swap2\n      swap1\n      tag_461\n      jump\t// in\n    tag_460:\n        /* \"contracts/MetaMasterChef.sol\":463:480  uint256 c = a + b */\n      swap1\n      pop\n        /* \"contracts/MetaMasterChef.sol\":504:505  a */\n      dup4\n        /* \"contracts/MetaMasterChef.sol\":499:500  c */\n      dup2\n        /* \"contracts/MetaMasterChef.sol\":499:505  c >= a */\n      lt\n      iszero\n        /* \"contracts/MetaMasterChef.sol\":491:537  require(c >= a, \"SafeMath: addition overflow\") */\n      tag_462\n      jumpi\n      mload(0x40)\n      0x08c379a000000000000000000000000000000000000000000000000000000000\n      dup2\n      mstore\n      0x04\n      add\n      tag_463\n      swap1\n      tag_464\n      jump\t// in\n    tag_463:\n      mload(0x40)\n      dup1\n      swap2\n      sub\n      swap1\n      revert\n    tag_462:\n        /* \"contracts/MetaMasterChef.sol\":557:558  c */\n      dup1\n        /* \"contracts/MetaMasterChef.sol\":550:558  return c */\n      swap2\n      pop\n      pop\n        /* \"contracts/MetaMasterChef.sol\":385:566  function add(uint256 a, uint256 b) internal pure returns (uint256) {\r... */\n      swap3\n      swap2\n      pop\n      pop\n      jump\t// out\n        /* \"contracts/MetaMasterChef.sol\":16150:16361  function safeTransfer(\r... */\n    tag_205:\n        /* \"contracts/MetaMasterChef.sol\":16267:16353  _callOptionalReturn(token, abi.encodeWithSelector(token.transfer.selector, to, value)) */\n      tag_466\n        /* \"contracts/MetaMasterChef.sol\":16287:16292  token */\n      dup4\n        /* \"contracts/MetaMasterChef.sol\":16317:16340  token.transfer.selector */\n      shl(0xe0, 0xa9059cbb)\n        /* \"contracts/MetaMasterChef.sol\":16342:16344  to */\n      dup5\n        /* \"contracts/MetaMasterChef.sol\":16346:16351  value */\n      dup5\n        /* \"contracts/MetaMasterChef.sol\":16294:16352  abi.encodeWithSelector(token.transfer.selector, to, value) */\n      add(0x24, mload(0x40))\n      tag_467\n      swap3\n      swap2\n      swap1\n      tag_274\n      jump\t// in\n    tag_467:\n      mload(0x40)\n      0x20\n      dup2\n      dup4\n      sub\n      sub\n      dup2\n      mstore\n      swap1\n      0x40\n      mstore\n      swap1\n      not(0xffffffffffffffffffffffffffffffffffffffffffffffffffffffff)\n      and\n      0x20\n      dup3\n      add\n      dup1\n      mload\n      0xffffffffffffffffffffffffffffffffffffffffffffffffffffffff\n      dup4\n      dup2\n      dup4\n      and\n      or\n      dup4\n      mstore\n      pop\n      pop\n      pop\n      pop\n        /* \"contracts/MetaMasterChef.sol\":16267:16286  _callOptionalReturn */\n      tag_458\n        /* \"contracts/MetaMasterChef.sol\":16267:16353  _callOptionalReturn(token, abi.encodeWithSelector(token.transfer.selector, to, value)) */\n      jump\t// in\n    tag_466:\n        /* \"contracts/MetaMasterChef.sol\":16150:16361  function safeTransfer(\r... */\n      pop\n      pop\n      pop\n      jump\t// out\n        /* \"contracts/MetaMasterChef.sol\":19479:19577  function _msgSender() internal view virtual returns (address) {\r... */\n    tag_210:\n        /* \"contracts/MetaMasterChef.sol\":19532:19539  address */\n      0x00\n        /* \"contracts/MetaMasterChef.sol\":19559:19569  msg.sender */\n      caller\n        /* \"contracts/MetaMasterChef.sol\":19552:19569  return msg.sender */\n      swap1\n      pop\n        /* \"contracts/MetaMasterChef.sol\":19479:19577  function _msgSender() internal view virtual returns (address) {\r... */\n      swap1\n      jump\t// out\n        /* \"contracts/MetaMasterChef.sol\":16886:17502  function safeApprove(\r... */\n    tag_232:\n        /* \"contracts/MetaMasterChef.sol\":17259:17260  0 */\n      0x00\n        /* \"contracts/MetaMasterChef.sol\":17250:17255  value */\n      dup2\n        /* \"contracts/MetaMasterChef.sol\":17250:17260  value == 0 */\n      eq\n        /* \"contracts/MetaMasterChef.sol\":17249:17311  (value == 0) || (token.allowance(address(this), spender) == 0) */\n      dup1\n      tag_470\n      jumpi\n      pop\n        /* \"contracts/MetaMasterChef.sol\":17309:17310  0 */\n      0x00\n        /* \"contracts/MetaMasterChef.sol\":17266:17271  token */\n      dup4\n        /* \"contracts/MetaMasterChef.sol\":17266:17281  token.allowance */\n      0xffffffffffffffffffffffffffffffffffffffff\n      and\n      0xdd62ed3e\n        /* \"contracts/MetaMasterChef.sol\":17290:17294  this */\n      address\n        /* \"contracts/MetaMasterChef.sol\":17297:17304  spender */\n      dup6\n        /* \"contracts/MetaMasterChef.sol\":17266:17305  token.allowance(address(this), spender) */\n      mload(0x40)\n      dup4\n      0xffffffff\n      and\n      0xe0\n      shl\n      dup2\n      mstore\n      0x04\n      add\n      tag_471\n      swap3\n      swap2\n      swap1\n      tag_169\n      jump\t// in\n    tag_471:\n      0x20\n      mload(0x40)\n      dup1\n      dup4\n      sub\n      dup2\n      dup7\n      dup1\n      extcodesize\n      iszero\n      dup1\n      iszero\n      tag_472\n      jumpi\n      0x00\n      dup1\n      revert\n    tag_472:\n      pop\n      gas\n      staticcall\n      iszero\n      dup1\n      iszero\n      tag_474\n      jumpi\n      returndatasize\n      0x00\n      dup1\n      returndatacopy\n      revert(0x00, returndatasize)\n    tag_474:\n      pop\n      pop\n      pop\n      pop\n      mload(0x40)\n      returndatasize\n      not(0x1f)\n      0x1f\n      dup3\n      add\n      and\n      dup3\n      add\n      dup1\n      0x40\n      mstore\n      pop\n      dup2\n      add\n      swap1\n      tag_475\n      swap2\n      swap1\n      tag_174\n      jump\t// in\n    tag_475:\n        /* \"contracts/MetaMasterChef.sol\":17266:17310  token.allowance(address(this), spender) == 0 */\n      eq\n        /* \"contracts/MetaMasterChef.sol\":17249:17311  (value == 0) || (token.allowance(address(this), spender) == 0) */\n    tag_470:\n        /* \"contracts/MetaMasterChef.sol\":17227:17393  require(\r... */\n      tag_476\n      jumpi\n      mload(0x40)\n      0x08c379a000000000000000000000000000000000000000000000000000000000\n      dup2\n      mstore\n      0x04\n      add\n      tag_477\n      swap1\n      tag_478\n      jump\t// in\n    tag_477:\n      mload(0x40)\n      dup1\n      swap2\n      sub\n      swap1\n      revert\n    tag_476:\n        /* \"contracts/MetaMasterChef.sol\":17404:17494  _callOptionalReturn(token, abi.encodeWithSelector(token.approve.selector, spender, value)) */\n      tag_479\n        /* \"contracts/MetaMasterChef.sol\":17424:17429  token */\n      dup4\n        /* \"contracts/MetaMasterChef.sol\":17454:17476  token.approve.selector */\n      shl(0xe0, 0x095ea7b3)\n        /* \"contracts/MetaMasterChef.sol\":17478:17485  spender */\n      dup5\n        /* \"contracts/MetaMasterChef.sol\":17487:17492  value */\n      dup5\n        /* \"contracts/MetaMasterChef.sol\":17431:17493  abi.encodeWithSelector(token.approve.selector, spender, value) */\n      add(0x24, mload(0x40))\n      tag_480\n      swap3\n      swap2\n      swap1\n      tag_274\n      jump\t// in\n    tag_480:\n      mload(0x40)\n      0x20\n      dup2\n      dup4\n      sub\n      sub\n      dup2\n      mstore\n      swap1\n      0x40\n      mstore\n      swap1\n      not(0xffffffffffffffffffffffffffffffffffffffffffffffffffffffff)\n      and\n      0x20\n      dup3\n      add\n      dup1\n      mload\n      0xffffffffffffffffffffffffffffffffffffffffffffffffffffffff\n      dup4\n      dup2\n      dup4\n      and\n      or\n      dup4\n      mstore\n      pop\n      pop\n      pop\n      pop\n        /* \"contracts/MetaMasterChef.sol\":17404:17423  _callOptionalReturn */\n      tag_458\n        /* \"contracts/MetaMasterChef.sol\":17404:17494  _callOptionalReturn(token, abi.encodeWithSelector(token.approve.selector, spender, value)) */\n      jump\t// in\n    tag_479:\n        /* \"contracts/MetaMasterChef.sol\":16886:17502  function safeApprove(\r... */\n      pop\n      pop\n      pop\n      jump\t// out\n        /* \"contracts/MetaMasterChef.sol\":21375:21566  function _transferOwnership(address newOwner) internal virtual {\r... */\n    tag_350:\n        /* \"contracts/MetaMasterChef.sol\":21449:21465  address oldOwner */\n      0x00\n        /* \"contracts/MetaMasterChef.sol\":21468:21474  _owner */\n      dup1\n      0x00\n      swap1\n      sload\n      swap1\n      0x0100\n      exp\n      swap1\n      div\n      0xffffffffffffffffffffffffffffffffffffffff\n      and\n        /* \"contracts/MetaMasterChef.sol\":21449:21474  address oldOwner = _owner */\n      swap1\n      pop\n        /* \"contracts/MetaMasterChef.sol\":21494:21502  newOwner */\n      dup2\n        /* \"contracts/MetaMasterChef.sol\":21485:21491  _owner */\n      0x00\n      dup1\n        /* \"contracts/MetaMasterChef.sol\":21485:21502  _owner = newOwner */\n      0x0100\n      exp\n      dup2\n      sload\n      dup2\n      0xffffffffffffffffffffffffffffffffffffffff\n      mul\n      not\n      and\n      swap1\n      dup4\n      0xffffffffffffffffffffffffffffffffffffffff\n      and\n      mul\n      or\n      swap1\n      sstore\n      pop\n        /* \"contracts/MetaMasterChef.sol\":21549:21557  newOwner */\n      dup2\n        /* \"contracts/MetaMasterChef.sol\":21518:21558  OwnershipTransferred(oldOwner, newOwner) */\n      0xffffffffffffffffffffffffffffffffffffffff\n      and\n        /* \"contracts/MetaMasterChef.sol\":21539:21547  oldOwner */\n      dup2\n        /* \"contracts/MetaMasterChef.sol\":21518:21558  OwnershipTransferred(oldOwner, newOwner) */\n      0xffffffffffffffffffffffffffffffffffffffff\n      and\n      0x8be0079c531659141344cd1fd0a4f28419497f9722a3daafe3b4186f6b6457e0\n      mload(0x40)\n      mload(0x40)\n      dup1\n      swap2\n      sub\n      swap1\n      log3\n        /* \"contracts/MetaMasterChef.sol\":21438:21566  {\r... */\n      pop\n        /* \"contracts/MetaMasterChef.sol\":21375:21566  function _transferOwnership(address newOwner) internal virtual {\r... */\n      pop\n      jump\t// out\n        /* \"contracts/MetaMasterChef.sol\":3358:3703  function div(uint256 a, uint256 b, string memory errorMessage) internal pure returns (uint256) {\r... */\n    tag_432:\n        /* \"contracts/MetaMasterChef.sol\":3444:3451  uint256 */\n      0x00\n        /* \"contracts/MetaMasterChef.sol\":3543:3544  0 */\n      dup1\n        /* \"contracts/MetaMasterChef.sol\":3539:3540  b */\n      dup4\n        /* \"contracts/MetaMasterChef.sol\":3539:3544  b > 0 */\n      gt\n        /* \"contracts/MetaMasterChef.sol\":3546:3558  errorMessage */\n      dup3\n        /* \"contracts/MetaMasterChef.sol\":3531:3559  require(b > 0, errorMessage) */\n      swap1\n      tag_483\n      jumpi\n      mload(0x40)\n      0x08c379a000000000000000000000000000000000000000000000000000000000\n      dup2\n      mstore\n      0x04\n      add\n      tag_484\n      swap2\n      swap1\n      tag_485\n      jump\t// in\n    tag_484:\n      mload(0x40)\n      dup1\n      swap2\n      sub\n      swap1\n      revert\n    tag_483:\n      pop\n        /* \"contracts/MetaMasterChef.sol\":3570:3579  uint256 c */\n      0x00\n        /* \"contracts/MetaMasterChef.sol\":3586:3587  b */\n      dup4\n        /* \"contracts/MetaMasterChef.sol\":3582:3583  a */\n      dup6\n        /* \"contracts/MetaMasterChef.sol\":3582:3587  a / b */\n      tag_486\n      swap2\n      swap1\n      tag_426\n      jump\t// in\n    tag_486:\n        /* \"contracts/MetaMasterChef.sol\":3570:3587  uint256 c = a / b */\n      swap1\n      pop\n        /* \"contracts/MetaMasterChef.sol\":3694:3695  c */\n      dup1\n        /* \"contracts/MetaMasterChef.sol\":3687:3695  return c */\n      swap2\n      pop\n      pop\n        /* \"contracts/MetaMasterChef.sol\":3358:3703  function div(uint256 a, uint256 b, string memory errorMessage) internal pure returns (uint256) {\r... */\n      swap4\n      swap3\n      pop\n      pop\n      pop\n      jump\t// out\n        /* \"contracts/MetaMasterChef.sol\":1314:1506  function sub(uint256 a, uint256 b, string memory errorMessage) internal pure returns (uint256) {\r... */\n    tag_435:\n        /* \"contracts/MetaMasterChef.sol\":1400:1407  uint256 */\n      0x00\n        /* \"contracts/MetaMasterChef.sol\":1433:1434  a */\n      dup4\n        /* \"contracts/MetaMasterChef.sol\":1428:1429  b */\n      dup4\n        /* \"contracts/MetaMasterChef.sol\":1428:1434  b <= a */\n      gt\n      iszero\n        /* \"contracts/MetaMasterChef.sol\":1436:1448  errorMessage */\n      dup3\n        /* \"contracts/MetaMasterChef.sol\":1420:1449  require(b <= a, errorMessage) */\n      swap1\n      tag_488\n      jumpi\n      mload(0x40)\n      0x08c379a000000000000000000000000000000000000000000000000000000000\n      dup2\n      mstore\n      0x04\n      add\n      tag_489\n      swap2\n      swap1\n      tag_485\n      jump\t// in\n    tag_489:\n      mload(0x40)\n      dup1\n      swap2\n      sub\n      swap1\n      revert\n    tag_488:\n      pop\n        /* \"contracts/MetaMasterChef.sol\":1460:1469  uint256 c */\n      0x00\n        /* \"contracts/MetaMasterChef.sol\":1476:1477  b */\n      dup4\n        /* \"contracts/MetaMasterChef.sol\":1472:1473  a */\n      dup6\n        /* \"contracts/MetaMasterChef.sol\":1472:1477  a - b */\n      tag_490\n      swap2\n      swap1\n      tag_491\n      jump\t// in\n    tag_490:\n        /* \"contracts/MetaMasterChef.sol\":1460:1477  uint256 c = a - b */\n      swap1\n      pop\n        /* \"contracts/MetaMasterChef.sol\":1497:1498  c */\n      dup1\n        /* \"contracts/MetaMasterChef.sol\":1490:1498  return c */\n      swap2\n      pop\n      pop\n        /* \"contracts/MetaMasterChef.sol\":1314:1506  function sub(uint256 a, uint256 b, string memory errorMessage) internal pure returns (uint256) {\r... */\n      swap4\n      swap3\n      pop\n      pop\n      pop\n      jump\t// out\n        /* \"contracts/MetaMasterChef.sol\":18723:19439  function _callOptionalReturn(IERC20 token, bytes memory data) private {\r... */\n    tag_458:\n        /* \"contracts/MetaMasterChef.sol\":19147:19170  bytes memory returndata */\n      0x00\n        /* \"contracts/MetaMasterChef.sol\":19173:19242  address(token).functionCall(data, \"SafeERC20: low-level call failed\") */\n      tag_493\n        /* \"contracts/MetaMasterChef.sol\":19201:19205  data */\n      dup3\n        /* \"contracts/MetaMasterChef.sol\":19173:19242  address(token).functionCall(data, \"SafeERC20: low-level call failed\") */\n      mload(0x40)\n      dup1\n      0x40\n      add\n      0x40\n      mstore\n      dup1\n      0x20\n      dup2\n      mstore\n      0x20\n      add\n      0x5361666545524332303a206c6f772d6c6576656c2063616c6c206661696c6564\n      dup2\n      mstore\n      pop\n        /* \"contracts/MetaMasterChef.sol\":19181:19186  token */\n      dup6\n        /* \"contracts/MetaMasterChef.sol\":19173:19200  address(token).functionCall */\n      0xffffffffffffffffffffffffffffffffffffffff\n      and\n      tag_494\n      swap1\n        /* \"contracts/MetaMasterChef.sol\":19173:19242  address(token).functionCall(data, \"SafeERC20: low-level call failed\") */\n      swap3\n      swap2\n      swap1\n      0xffffffff\n      and\n      jump\t// in\n    tag_493:\n        /* \"contracts/MetaMasterChef.sol\":19147:19242  bytes memory returndata = address(token).functionCall(data, \"SafeERC20: low-level call failed\") */\n      swap1\n      pop\n        /* \"contracts/MetaMasterChef.sol\":19277:19278  0 */\n      0x00\n        /* \"contracts/MetaMasterChef.sol\":19257:19267  returndata */\n      dup2\n        /* \"contracts/MetaMasterChef.sol\":19257:19274  returndata.length */\n      mload\n        /* \"contracts/MetaMasterChef.sol\":19257:19278  returndata.length > 0 */\n      gt\n        /* \"contracts/MetaMasterChef.sol\":19253:19432  if (returndata.length > 0) {\r... */\n      iszero\n      tag_495\n      jumpi\n        /* \"contracts/MetaMasterChef.sol\":19354:19364  returndata */\n      dup1\n        /* \"contracts/MetaMasterChef.sol\":19343:19373  abi.decode(returndata, (bool)) */\n      dup1\n      0x20\n      add\n      swap1\n      mload\n      dup2\n      add\n      swap1\n      tag_496\n      swap2\n      swap1\n      tag_279\n      jump\t// in\n    tag_496:\n        /* \"contracts/MetaMasterChef.sol\":19335:19420  require(abi.decode(returndata, (bool)), \"SafeERC20: ERC20 operation did not succeed\") */\n      tag_497\n      jumpi\n      mload(0x40)\n      0x08c379a000000000000000000000000000000000000000000000000000000000\n      dup2\n      mstore\n      0x04\n      add\n      tag_498\n      swap1\n      tag_499\n      jump\t// in\n    tag_498:\n      mload(0x40)\n      dup1\n      swap2\n      sub\n      swap1\n      revert\n    tag_497:\n        /* \"contracts/MetaMasterChef.sol\":19253:19432  if (returndata.length > 0) {\r... */\n    tag_495:\n        /* \"contracts/MetaMasterChef.sol\":18793:19439  {\r... */\n      pop\n        /* \"contracts/MetaMasterChef.sol\":18723:19439  function _callOptionalReturn(IERC20 token, bytes memory data) private {\r... */\n      pop\n      pop\n      jump\t// out\n        /* \"contracts/MetaMasterChef.sol\":11566:11795  function functionCall(\r... */\n    tag_494:\n        /* \"contracts/MetaMasterChef.sol\":11703:11715  bytes memory */\n      0x60\n        /* \"contracts/MetaMasterChef.sol\":11735:11787  functionCallWithValue(target, data, 0, errorMessage) */\n      tag_501\n        /* \"contracts/MetaMasterChef.sol\":11757:11763  target */\n      dup5\n        /* \"contracts/MetaMasterChef.sol\":11765:11769  data */\n      dup5\n        /* \"contracts/MetaMasterChef.sol\":11771:11772  0 */\n      0x00\n        /* \"contracts/MetaMasterChef.sol\":11774:11786  errorMessage */\n      dup6\n        /* \"contracts/MetaMasterChef.sol\":11735:11756  functionCallWithValue */\n      tag_502\n        /* \"contracts/MetaMasterChef.sol\":11735:11787  functionCallWithValue(target, data, 0, errorMessage) */\n      jump\t// in\n    tag_501:\n        /* \"contracts/MetaMasterChef.sol\":11728:11787  return functionCallWithValue(target, data, 0, errorMessage) */\n      swap1\n      pop\n        /* \"contracts/MetaMasterChef.sol\":11566:11795  function functionCall(\r... */\n      swap4\n      swap3\n      pop\n      pop\n      pop\n      jump\t// out\n        /* \"contracts/MetaMasterChef.sol\":12686:13196  function functionCallWithValue(\r... */\n    tag_502:\n        /* \"contracts/MetaMasterChef.sol\":12856:12868  bytes memory */\n      0x60\n        /* \"contracts/MetaMasterChef.sol\":12914:12919  value */\n      dup3\n        /* \"contracts/MetaMasterChef.sol\":12889:12910  address(this).balance */\n      selfbalance\n        /* \"contracts/MetaMasterChef.sol\":12889:12919  address(this).balance >= value */\n      lt\n      iszero\n        /* \"contracts/MetaMasterChef.sol\":12881:12962  require(address(this).balance >= value, \"Address: insufficient balance for call\") */\n      tag_504\n      jumpi\n      mload(0x40)\n      0x08c379a000000000000000000000000000000000000000000000000000000000\n      dup2\n      mstore\n      0x04\n      add\n      tag_505\n      swap1\n      tag_506\n      jump\t// in\n    tag_505:\n      mload(0x40)\n      dup1\n      swap2\n      sub\n      swap1\n      revert\n    tag_504:\n        /* \"contracts/MetaMasterChef.sol\":12981:12999  isContract(target) */\n      tag_507\n        /* \"contracts/MetaMasterChef.sol\":12992:12998  target */\n      dup6\n        /* \"contracts/MetaMasterChef.sol\":12981:12991  isContract */\n      tag_508\n        /* \"contracts/MetaMasterChef.sol\":12981:12999  isContract(target) */\n      jump\t// in\n    tag_507:\n        /* \"contracts/MetaMasterChef.sol\":12973:13033  require(isContract(target), \"Address: call to non-contract\") */\n      tag_509\n      jumpi\n      mload(0x40)\n      0x08c379a000000000000000000000000000000000000000000000000000000000\n      dup2\n      mstore\n      0x04\n      add\n      tag_510\n      swap1\n      tag_511\n      jump\t// in\n    tag_510:\n      mload(0x40)\n      dup1\n      swap2\n      sub\n      swap1\n      revert\n    tag_509:\n        /* \"contracts/MetaMasterChef.sol\":13047:13059  bool success */\n      0x00\n        /* \"contracts/MetaMasterChef.sol\":13061:13084  bytes memory returndata */\n      dup1\n        /* \"contracts/MetaMasterChef.sol\":13088:13094  target */\n      dup7\n        /* \"contracts/MetaMasterChef.sol\":13088:13099  target.call */\n      0xffffffffffffffffffffffffffffffffffffffff\n      and\n        /* \"contracts/MetaMasterChef.sol\":13107:13112  value */\n      dup6\n        /* \"contracts/MetaMasterChef.sol\":13114:13118  data */\n      dup8\n        /* \"contracts/MetaMasterChef.sol\":13088:13119  target.call{value: value}(data) */\n      mload(0x40)\n      tag_512\n      swap2\n      swap1\n      tag_513\n      jump\t// in\n    tag_512:\n      0x00\n      mload(0x40)\n      dup1\n      dup4\n      sub\n      dup2\n      dup6\n      dup8\n      gas\n      call\n      swap3\n      pop\n      pop\n      pop\n      returndatasize\n      dup1\n      0x00\n      dup2\n      eq\n      tag_516\n      jumpi\n      mload(0x40)\n      swap2\n      pop\n      and(add(returndatasize, 0x3f), not(0x1f))\n      dup3\n      add\n      0x40\n      mstore\n      returndatasize\n      dup3\n      mstore\n      returndatasize\n      0x00\n      0x20\n      dup5\n      add\n      returndatacopy\n      jump(tag_515)\n    tag_516:\n      0x60\n      swap2\n      pop\n    tag_515:\n      pop\n        /* \"contracts/MetaMasterChef.sol\":13046:13119  (bool success, bytes memory returndata) = target.call{value: value}(data) */\n      swap2\n      pop\n      swap2\n      pop\n        /* \"contracts/MetaMasterChef.sol\":13137:13188  verifyCallResult(success, returndata, errorMessage) */\n      tag_517\n        /* \"contracts/MetaMasterChef.sol\":13154:13161  success */\n      dup3\n        /* \"contracts/MetaMasterChef.sol\":13163:13173  returndata */\n      dup3\n        /* \"contracts/MetaMasterChef.sol\":13175:13187  errorMessage */\n      dup7\n        /* \"contracts/MetaMasterChef.sol\":13137:13153  verifyCallResult */\n      tag_518\n        /* \"contracts/MetaMasterChef.sol\":13137:13188  verifyCallResult(success, returndata, errorMessage) */\n      jump\t// in\n    tag_517:\n        /* \"contracts/MetaMasterChef.sol\":13130:13188  return verifyCallResult(success, returndata, errorMessage) */\n      swap3\n      pop\n      pop\n      pop\n        /* \"contracts/MetaMasterChef.sol\":12686:13196  function functionCallWithValue(\r... */\n      swap5\n      swap4\n      pop\n      pop\n      pop\n      pop\n      jump\t// out\n        /* \"contracts/MetaMasterChef.sol\":8821:9147  function isContract(address account) internal view returns (bool) {\r... */\n    tag_508:\n        /* \"contracts/MetaMasterChef.sol\":8881:8885  bool */\n      0x00\n        /* \"contracts/MetaMasterChef.sol\":9138:9139  0 */\n      dup1\n        /* \"contracts/MetaMasterChef.sol\":9116:9123  account */\n      dup3\n        /* \"contracts/MetaMasterChef.sol\":9116:9135  account.code.length */\n      0xffffffffffffffffffffffffffffffffffffffff\n      and\n      extcodesize\n        /* \"contracts/MetaMasterChef.sol\":9116:9139  account.code.length > 0 */\n      gt\n        /* \"contracts/MetaMasterChef.sol\":9109:9139  return account.code.length > 0 */\n      swap1\n      pop\n        /* \"contracts/MetaMasterChef.sol\":8821:9147  function isContract(address account) internal view returns (bool) {\r... */\n      swap2\n      swap1\n      pop\n      jump\t// out\n        /* \"contracts/MetaMasterChef.sol\":15372:16084  function verifyCallResult(\r... */\n    tag_518:\n        /* \"contracts/MetaMasterChef.sol\":15522:15534  bytes memory */\n      0x60\n        /* \"contracts/MetaMasterChef.sol\":15551:15558  success */\n      dup4\n        /* \"contracts/MetaMasterChef.sol\":15547:16077  if (success) {\r... */\n      iszero\n      tag_521\n      jumpi\n        /* \"contracts/MetaMasterChef.sol\":15582:15592  returndata */\n      dup3\n        /* \"contracts/MetaMasterChef.sol\":15575:15592  return returndata */\n      swap1\n      pop\n      jump(tag_520)\n        /* \"contracts/MetaMasterChef.sol\":15547:16077  if (success) {\r... */\n    tag_521:\n        /* \"contracts/MetaMasterChef.sol\":15716:15717  0 */\n      0x00\n        /* \"contracts/MetaMasterChef.sol\":15696:15706  returndata */\n      dup4\n        /* \"contracts/MetaMasterChef.sol\":15696:15713  returndata.length */\n      mload\n        /* \"contracts/MetaMasterChef.sol\":15696:15717  returndata.length > 0 */\n      gt\n        /* \"contracts/MetaMasterChef.sol\":15692:16066  if (returndata.length > 0) {\r... */\n      iszero\n      tag_523\n      jumpi\n        /* \"contracts/MetaMasterChef.sol\":15894:15904  returndata */\n      dup3\n        /* \"contracts/MetaMasterChef.sol\":15888:15905  mload(returndata) */\n      mload\n        /* \"contracts/MetaMasterChef.sol\":15955:15970  returndata_size */\n      dup1\n        /* \"contracts/MetaMasterChef.sol\":15942:15952  returndata */\n      dup5\n        /* \"contracts/MetaMasterChef.sol\":15938:15940  32 */\n      0x20\n        /* \"contracts/MetaMasterChef.sol\":15934:15953  add(32, returndata) */\n      add\n        /* \"contracts/MetaMasterChef.sol\":15927:15971  revert(add(32, returndata), returndata_size) */\n      revert\n        /* \"contracts/MetaMasterChef.sol\":15692:16066  if (returndata.length > 0) {\r... */\n    tag_523:\n        /* \"contracts/MetaMasterChef.sol\":16037:16049  errorMessage */\n      dup2\n        /* \"contracts/MetaMasterChef.sol\":16030:16050  revert(errorMessage) */\n      mload(0x40)\n      0x08c379a000000000000000000000000000000000000000000000000000000000\n      dup2\n      mstore\n      0x04\n      add\n      tag_525\n      swap2\n      swap1\n      tag_485\n      jump\t// in\n    tag_525:\n      mload(0x40)\n      dup1\n      swap2\n      sub\n      swap1\n      revert\n        /* \"contracts/MetaMasterChef.sol\":15372:16084  function verifyCallResult(\r... */\n    tag_520:\n      swap4\n      swap3\n      pop\n      pop\n      pop\n      jump\t// out\n        /* \"#utility.yul\":7:146   */\n    tag_527:\n        /* \"#utility.yul\":53:58   */\n      0x00\n        /* \"#utility.yul\":91:97   */\n      dup2\n        /* \"#utility.yul\":78:98   */\n      calldataload\n        /* \"#utility.yul\":69:98   */\n      swap1\n      pop\n        /* \"#utility.yul\":107:140   */\n      tag_529\n        /* \"#utility.yul\":134:139   */\n      dup2\n        /* \"#utility.yul\":107:140   */\n      tag_530\n      jump\t// in\n    tag_529:\n        /* \"#utility.yul\":7:146   */\n      swap3\n      swap2\n      pop\n      pop\n      jump\t// out\n        /* \"#utility.yul\":152:285   */\n    tag_531:\n        /* \"#utility.yul\":195:200   */\n      0x00\n        /* \"#utility.yul\":233:239   */\n      dup2\n        /* \"#utility.yul\":220:240   */\n      calldataload\n        /* \"#utility.yul\":211:240   */\n      swap1\n      pop\n        /* \"#utility.yul\":249:279   */\n      tag_533\n        /* \"#utility.yul\":273:278   */\n      dup2\n        /* \"#utility.yul\":249:279   */\n      tag_534\n      jump\t// in\n    tag_533:\n        /* \"#utility.yul\":152:285   */\n      swap3\n      swap2\n      pop\n      pop\n      jump\t// out\n        /* \"#utility.yul\":291:428   */\n    tag_535:\n        /* \"#utility.yul\":345:350   */\n      0x00\n        /* \"#utility.yul\":376:382   */\n      dup2\n        /* \"#utility.yul\":370:383   */\n      mload\n        /* \"#utility.yul\":361:383   */\n      swap1\n      pop\n        /* \"#utility.yul\":392:422   */\n      tag_537\n        /* \"#utility.yul\":416:421   */\n      dup2\n        /* \"#utility.yul\":392:422   */\n      tag_534\n      jump\t// in\n    tag_537:\n        /* \"#utility.yul\":291:428   */\n      swap3\n      swap2\n      pop\n      pop\n      jump\t// out\n        /* \"#utility.yul\":434:601   */\n    tag_538:\n        /* \"#utility.yul\":494:499   */\n      0x00\n        /* \"#utility.yul\":532:538   */\n      dup2\n        /* \"#utility.yul\":519:539   */\n      calldataload\n        /* \"#utility.yul\":510:539   */\n      swap1\n      pop\n        /* \"#utility.yul\":548:595   */\n      tag_540\n        /* \"#utility.yul\":589:594   */\n      dup2\n        /* \"#utility.yul\":548:595   */\n      tag_541\n      jump\t// in\n    tag_540:\n        /* \"#utility.yul\":434:601   */\n      swap3\n      swap2\n      pop\n      pop\n      jump\t// out\n        /* \"#utility.yul\":607:778   */\n    tag_542:\n        /* \"#utility.yul\":678:683   */\n      0x00\n        /* \"#utility.yul\":709:715   */\n      dup2\n        /* \"#utility.yul\":703:716   */\n      mload\n        /* \"#utility.yul\":694:716   */\n      swap1\n      pop\n        /* \"#utility.yul\":725:772   */\n      tag_544\n        /* \"#utility.yul\":766:771   */\n      dup2\n        /* \"#utility.yul\":725:772   */\n      tag_541\n      jump\t// in\n    tag_544:\n        /* \"#utility.yul\":607:778   */\n      swap3\n      swap2\n      pop\n      pop\n      jump\t// out\n        /* \"#utility.yul\":784:961   */\n    tag_545:\n        /* \"#utility.yul\":849:854   */\n      0x00\n        /* \"#utility.yul\":887:893   */\n      dup2\n        /* \"#utility.yul\":874:894   */\n      calldataload\n        /* \"#utility.yul\":865:894   */\n      swap1\n      pop\n        /* \"#utility.yul\":903:955   */\n      tag_547\n        /* \"#utility.yul\":949:954   */\n      dup2\n        /* \"#utility.yul\":903:955   */\n      tag_548\n      jump\t// in\n    tag_547:\n        /* \"#utility.yul\":784:961   */\n      swap3\n      swap2\n      pop\n      pop\n      jump\t// out\n        /* \"#utility.yul\":967:1148   */\n    tag_549:\n        /* \"#utility.yul\":1034:1039   */\n      0x00\n        /* \"#utility.yul\":1072:1078   */\n      dup2\n        /* \"#utility.yul\":1059:1079   */\n      calldataload\n        /* \"#utility.yul\":1050:1079   */\n      swap1\n      pop\n        /* \"#utility.yul\":1088:1142   */\n      tag_551\n        /* \"#utility.yul\":1136:1141   */\n      dup2\n        /* \"#utility.yul\":1088:1142   */\n      tag_552\n      jump\t// in\n    tag_551:\n        /* \"#utility.yul\":967:1148   */\n      swap3\n      swap2\n      pop\n      pop\n      jump\t// out\n        /* \"#utility.yul\":1154:1293   */\n    tag_553:\n        /* \"#utility.yul\":1200:1205   */\n      0x00\n        /* \"#utility.yul\":1238:1244   */\n      dup2\n        /* \"#utility.yul\":1225:1245   */\n      calldataload\n        /* \"#utility.yul\":1216:1245   */\n      swap1\n      pop\n        /* \"#utility.yul\":1254:1287   */\n      tag_555\n        /* \"#utility.yul\":1281:1286   */\n      dup2\n        /* \"#utility.yul\":1254:1287   */\n      tag_556\n      jump\t// in\n    tag_555:\n        /* \"#utility.yul\":1154:1293   */\n      swap3\n      swap2\n      pop\n      pop\n      jump\t// out\n        /* \"#utility.yul\":1299:1442   */\n    tag_557:\n        /* \"#utility.yul\":1356:1361   */\n      0x00\n        /* \"#utility.yul\":1387:1393   */\n      dup2\n        /* \"#utility.yul\":1381:1394   */\n      mload\n        /* \"#utility.yul\":1372:1394   */\n      swap1\n      pop\n        /* \"#utility.yul\":1403:1436   */\n      tag_559\n        /* \"#utility.yul\":1430:1435   */\n      dup2\n        /* \"#utility.yul\":1403:1436   */\n      tag_556\n      jump\t// in\n    tag_559:\n        /* \"#utility.yul\":1299:1442   */\n      swap3\n      swap2\n      pop\n      pop\n      jump\t// out\n        /* \"#utility.yul\":1448:1777   */\n    tag_137:\n        /* \"#utility.yul\":1507:1513   */\n      0x00\n        /* \"#utility.yul\":1556:1558   */\n      0x20\n        /* \"#utility.yul\":1544:1553   */\n      dup3\n        /* \"#utility.yul\":1535:1542   */\n      dup5\n        /* \"#utility.yul\":1531:1554   */\n      sub\n        /* \"#utility.yul\":1527:1559   */\n      slt\n        /* \"#utility.yul\":1524:1643   */\n      iszero\n      tag_561\n      jumpi\n        /* \"#utility.yul\":1562:1641   */\n      tag_562\n      tag_563\n      jump\t// in\n    tag_562:\n        /* \"#utility.yul\":1524:1643   */\n    tag_561:\n        /* \"#utility.yul\":1682:1683   */\n      0x00\n        /* \"#utility.yul\":1707:1760   */\n      tag_564\n        /* \"#utility.yul\":1752:1759   */\n      dup5\n        /* \"#utility.yul\":1743:1749   */\n      dup3\n        /* \"#utility.yul\":1732:1741   */\n      dup6\n        /* \"#utility.yul\":1728:1750   */\n      add\n        /* \"#utility.yul\":1707:1760   */\n      tag_527\n      jump\t// in\n    tag_564:\n        /* \"#utility.yul\":1697:1760   */\n      swap2\n      pop\n        /* \"#utility.yul\":1653:1770   */\n      pop\n        /* \"#utility.yul\":1448:1777   */\n      swap3\n      swap2\n      pop\n      pop\n      jump\t// out\n        /* \"#utility.yul\":1783:2128   */\n    tag_279:\n        /* \"#utility.yul\":1850:1856   */\n      0x00\n        /* \"#utility.yul\":1899:1901   */\n      0x20\n        /* \"#utility.yul\":1887:1896   */\n      dup3\n        /* \"#utility.yul\":1878:1885   */\n      dup5\n        /* \"#utility.yul\":1874:1897   */\n      sub\n        /* \"#utility.yul\":1870:1902   */\n      slt\n        /* \"#utility.yul\":1867:1986   */\n      iszero\n      tag_566\n      jumpi\n        /* \"#utility.yul\":1905:1984   */\n      tag_567\n      tag_563\n      jump\t// in\n    tag_567:\n        /* \"#utility.yul\":1867:1986   */\n    tag_566:\n        /* \"#utility.yul\":2025:2026   */\n      0x00\n        /* \"#utility.yul\":2050:2111   */\n      tag_568\n        /* \"#utility.yul\":2103:2110   */\n      dup5\n        /* \"#utility.yul\":2094:2100   */\n      dup3\n        /* \"#utility.yul\":2083:2092   */\n      dup6\n        /* \"#utility.yul\":2079:2101   */\n      add\n        /* \"#utility.yul\":2050:2111   */\n      tag_535\n      jump\t// in\n    tag_568:\n        /* \"#utility.yul\":2040:2111   */\n      swap2\n      pop\n        /* \"#utility.yul\":1996:2121   */\n      pop\n        /* \"#utility.yul\":1783:2128   */\n      swap3\n      swap2\n      pop\n      pop\n      jump\t// out\n        /* \"#utility.yul\":2134:2513   */\n    tag_238:\n        /* \"#utility.yul\":2218:2224   */\n      0x00\n        /* \"#utility.yul\":2267:2269   */\n      0x20\n        /* \"#utility.yul\":2255:2264   */\n      dup3\n        /* \"#utility.yul\":2246:2253   */\n      dup5\n        /* \"#utility.yul\":2242:2265   */\n      sub\n        /* \"#utility.yul\":2238:2270   */\n      slt\n        /* \"#utility.yul\":2235:2354   */\n      iszero\n      tag_570\n      jumpi\n        /* \"#utility.yul\":2273:2352   */\n      tag_571\n      tag_563\n      jump\t// in\n    tag_571:\n        /* \"#utility.yul\":2235:2354   */\n    tag_570:\n        /* \"#utility.yul\":2393:2394   */\n      0x00\n        /* \"#utility.yul\":2418:2496   */\n      tag_572\n        /* \"#utility.yul\":2488:2495   */\n      dup5\n        /* \"#utility.yul\":2479:2485   */\n      dup3\n        /* \"#utility.yul\":2468:2477   */\n      dup6\n        /* \"#utility.yul\":2464:2486   */\n      add\n        /* \"#utility.yul\":2418:2496   */\n      tag_542\n      jump\t// in\n    tag_572:\n        /* \"#utility.yul\":2408:2496   */\n      swap2\n      pop\n        /* \"#utility.yul\":2364:2506   */\n      pop\n        /* \"#utility.yul\":2134:2513   */\n      swap3\n      swap2\n      pop\n      pop\n      jump\t// out\n        /* \"#utility.yul\":2519:2890   */\n    tag_67:\n        /* \"#utility.yul\":2599:2605   */\n      0x00\n        /* \"#utility.yul\":2648:2650   */\n      0x20\n        /* \"#utility.yul\":2636:2645   */\n      dup3\n        /* \"#utility.yul\":2627:2634   */\n      dup5\n        /* \"#utility.yul\":2623:2646   */\n      sub\n        /* \"#utility.yul\":2619:2651   */\n      slt\n        /* \"#utility.yul\":2616:2735   */\n      iszero\n      tag_574\n      jumpi\n        /* \"#utility.yul\":2654:2733   */\n      tag_575\n      tag_563\n      jump\t// in\n    tag_575:\n        /* \"#utility.yul\":2616:2735   */\n    tag_574:\n        /* \"#utility.yul\":2774:2775   */\n      0x00\n        /* \"#utility.yul\":2799:2873   */\n      tag_576\n        /* \"#utility.yul\":2865:2872   */\n      dup5\n        /* \"#utility.yul\":2856:2862   */\n      dup3\n        /* \"#utility.yul\":2845:2854   */\n      dup6\n        /* \"#utility.yul\":2841:2863   */\n      add\n        /* \"#utility.yul\":2799:2873   */\n      tag_549\n      jump\t// in\n    tag_576:\n        /* \"#utility.yul\":2789:2873   */\n      swap2\n      pop\n        /* \"#utility.yul\":2745:2883   */\n      pop\n        /* \"#utility.yul\":2519:2890   */\n      swap3\n      swap2\n      pop\n      pop\n      jump\t// out\n        /* \"#utility.yul\":2896:3225   */\n    tag_51:\n        /* \"#utility.yul\":2955:2961   */\n      0x00\n        /* \"#utility.yul\":3004:3006   */\n      0x20\n        /* \"#utility.yul\":2992:3001   */\n      dup3\n        /* \"#utility.yul\":2983:2990   */\n      dup5\n        /* \"#utility.yul\":2979:3002   */\n      sub\n        /* \"#utility.yul\":2975:3007   */\n      slt\n        /* \"#utility.yul\":2972:3091   */\n      iszero\n      tag_578\n      jumpi\n        /* \"#utility.yul\":3010:3089   */\n      tag_579\n      tag_563\n      jump\t// in\n    tag_579:\n        /* \"#utility.yul\":2972:3091   */\n    tag_578:\n        /* \"#utility.yul\":3130:3131   */\n      0x00\n        /* \"#utility.yul\":3155:3208   */\n      tag_580\n        /* \"#utility.yul\":3200:3207   */\n      dup5\n        /* \"#utility.yul\":3191:3197   */\n      dup3\n        /* \"#utility.yul\":3180:3189   */\n      dup6\n        /* \"#utility.yul\":3176:3198   */\n      add\n        /* \"#utility.yul\":3155:3208   */\n      tag_553\n      jump\t// in\n    tag_580:\n        /* \"#utility.yul\":3145:3208   */\n      swap2\n      pop\n        /* \"#utility.yul\":3101:3218   */\n      pop\n        /* \"#utility.yul\":2896:3225   */\n      swap3\n      swap2\n      pop\n      pop\n      jump\t// out\n        /* \"#utility.yul\":3231:3582   */\n    tag_174:\n        /* \"#utility.yul\":3301:3307   */\n      0x00\n        /* \"#utility.yul\":3350:3352   */\n      0x20\n        /* \"#utility.yul\":3338:3347   */\n      dup3\n        /* \"#utility.yul\":3329:3336   */\n      dup5\n        /* \"#utility.yul\":3325:3348   */\n      sub\n        /* \"#utility.yul\":3321:3353   */\n      slt\n        /* \"#utility.yul\":3318:3437   */\n      iszero\n      tag_582\n      jumpi\n        /* \"#utility.yul\":3356:3435   */\n      tag_583\n      tag_563\n      jump\t// in\n    tag_583:\n        /* \"#utility.yul\":3318:3437   */\n    tag_582:\n        /* \"#utility.yul\":3476:3477   */\n      0x00\n        /* \"#utility.yul\":3501:3565   */\n      tag_584\n        /* \"#utility.yul\":3557:3564   */\n      dup5\n        /* \"#utility.yul\":3548:3554   */\n      dup3\n        /* \"#utility.yul\":3537:3546   */\n      dup6\n        /* \"#utility.yul\":3533:3555   */\n      add\n        /* \"#utility.yul\":3501:3565   */\n      tag_557\n      jump\t// in\n    tag_584:\n        /* \"#utility.yul\":3491:3565   */\n      swap2\n      pop\n        /* \"#utility.yul\":3447:3575   */\n      pop\n        /* \"#utility.yul\":3231:3582   */\n      swap3\n      swap2\n      pop\n      pop\n      jump\t// out\n        /* \"#utility.yul\":3588:4062   */\n    tag_77:\n        /* \"#utility.yul\":3656:3662   */\n      0x00\n        /* \"#utility.yul\":3664:3670   */\n      dup1\n        /* \"#utility.yul\":3713:3715   */\n      0x40\n        /* \"#utility.yul\":3701:3710   */\n      dup4\n        /* \"#utility.yul\":3692:3699   */\n      dup6\n        /* \"#utility.yul\":3688:3711   */\n      sub\n        /* \"#utility.yul\":3684:3716   */\n      slt\n        /* \"#utility.yul\":3681:3800   */\n      iszero\n      tag_586\n      jumpi\n        /* \"#utility.yul\":3719:3798   */\n      tag_587\n      tag_563\n      jump\t// in\n    tag_587:\n        /* \"#utility.yul\":3681:3800   */\n    tag_586:\n        /* \"#utility.yul\":3839:3840   */\n      0x00\n        /* \"#utility.yul\":3864:3917   */\n      tag_588\n        /* \"#utility.yul\":3909:3916   */\n      dup6\n        /* \"#utility.yul\":3900:3906   */\n      dup3\n        /* \"#utility.yul\":3889:3898   */\n      dup7\n        /* \"#utility.yul\":3885:3907   */\n      add\n        /* \"#utility.yul\":3864:3917   */\n      tag_553\n      jump\t// in\n    tag_588:\n        /* \"#utility.yul\":3854:3917   */\n      swap3\n      pop\n        /* \"#utility.yul\":3810:3927   */\n      pop\n        /* \"#utility.yul\":3966:3968   */\n      0x20\n        /* \"#utility.yul\":3992:4045   */\n      tag_589\n        /* \"#utility.yul\":4037:4044   */\n      dup6\n        /* \"#utility.yul\":4028:4034   */\n      dup3\n        /* \"#utility.yul\":4017:4026   */\n      dup7\n        /* \"#utility.yul\":4013:4035   */\n      add\n        /* \"#utility.yul\":3992:4045   */\n      tag_527\n      jump\t// in\n    tag_589:\n        /* \"#utility.yul\":3982:4045   */\n      swap2\n      pop\n        /* \"#utility.yul\":3937:4055   */\n      pop\n        /* \"#utility.yul\":3588:4062   */\n      swap3\n      pop\n      swap3\n      swap1\n      pop\n      jump\t// out\n        /* \"#utility.yul\":4068:5359   */\n    tag_97:\n        /* \"#utility.yul\":4225:4231   */\n      0x00\n        /* \"#utility.yul\":4233:4239   */\n      dup1\n        /* \"#utility.yul\":4241:4247   */\n      0x00\n        /* \"#utility.yul\":4249:4255   */\n      dup1\n        /* \"#utility.yul\":4257:4263   */\n      0x00\n        /* \"#utility.yul\":4265:4271   */\n      dup1\n        /* \"#utility.yul\":4273:4279   */\n      0x00\n        /* \"#utility.yul\":4322:4325   */\n      0xe0\n        /* \"#utility.yul\":4310:4319   */\n      dup9\n        /* \"#utility.yul\":4301:4308   */\n      dup11\n        /* \"#utility.yul\":4297:4320   */\n      sub\n        /* \"#utility.yul\":4293:4326   */\n      slt\n        /* \"#utility.yul\":4290:4410   */\n      iszero\n      tag_591\n      jumpi\n        /* \"#utility.yul\":4329:4408   */\n      tag_592\n      tag_563\n      jump\t// in\n    tag_592:\n        /* \"#utility.yul\":4290:4410   */\n    tag_591:\n        /* \"#utility.yul\":4449:4450   */\n      0x00\n        /* \"#utility.yul\":4474:4527   */\n      tag_593\n        /* \"#utility.yul\":4519:4526   */\n      dup11\n        /* \"#utility.yul\":4510:4516   */\n      dup3\n        /* \"#utility.yul\":4499:4508   */\n      dup12\n        /* \"#utility.yul\":4495:4517   */\n      add\n        /* \"#utility.yul\":4474:4527   */\n      tag_553\n      jump\t// in\n    tag_593:\n        /* \"#utility.yul\":4464:4527   */\n      swap8\n      pop\n        /* \"#utility.yul\":4420:4537   */\n      pop\n        /* \"#utility.yul\":4576:4578   */\n      0x20\n        /* \"#utility.yul\":4602:4669   */\n      tag_594\n        /* \"#utility.yul\":4661:4668   */\n      dup11\n        /* \"#utility.yul\":4652:4658   */\n      dup3\n        /* \"#utility.yul\":4641:4650   */\n      dup12\n        /* \"#utility.yul\":4637:4659   */\n      add\n        /* \"#utility.yul\":4602:4669   */\n      tag_538\n      jump\t// in\n    tag_594:\n        /* \"#utility.yul\":4592:4669   */\n      swap7\n      pop\n        /* \"#utility.yul\":4547:4679   */\n      pop\n        /* \"#utility.yul\":4718:4720   */\n      0x40\n        /* \"#utility.yul\":4744:4794   */\n      tag_595\n        /* \"#utility.yul\":4786:4793   */\n      dup11\n        /* \"#utility.yul\":4777:4783   */\n      dup3\n        /* \"#utility.yul\":4766:4775   */\n      dup12\n        /* \"#utility.yul\":4762:4784   */\n      add\n        /* \"#utility.yul\":4744:4794   */\n      tag_531\n      jump\t// in\n    tag_595:\n        /* \"#utility.yul\":4734:4794   */\n      swap6\n      pop\n        /* \"#utility.yul\":4689:4804   */\n      pop\n        /* \"#utility.yul\":4843:4845   */\n      0x60\n        /* \"#utility.yul\":4869:4941   */\n      tag_596\n        /* \"#utility.yul\":4933:4940   */\n      dup11\n        /* \"#utility.yul\":4924:4930   */\n      dup3\n        /* \"#utility.yul\":4913:4922   */\n      dup12\n        /* \"#utility.yul\":4909:4931   */\n      add\n        /* \"#utility.yul\":4869:4941   */\n      tag_545\n      jump\t// in\n    tag_596:\n        /* \"#utility.yul\":4859:4941   */\n      swap5\n      pop\n        /* \"#utility.yul\":4814:4951   */\n      pop\n        /* \"#utility.yul\":4990:4993   */\n      0x80\n        /* \"#utility.yul\":5017:5084   */\n      tag_597\n        /* \"#utility.yul\":5076:5083   */\n      dup11\n        /* \"#utility.yul\":5067:5073   */\n      dup3\n        /* \"#utility.yul\":5056:5065   */\n      dup12\n        /* \"#utility.yul\":5052:5074   */\n      add\n        /* \"#utility.yul\":5017:5084   */\n      tag_538\n      jump\t// in\n    tag_597:\n        /* \"#utility.yul\":5007:5084   */\n      swap4\n      pop\n        /* \"#utility.yul\":4961:5094   */\n      pop\n        /* \"#utility.yul\":5133:5136   */\n      0xa0\n        /* \"#utility.yul\":5160:5213   */\n      tag_598\n        /* \"#utility.yul\":5205:5212   */\n      dup11\n        /* \"#utility.yul\":5196:5202   */\n      dup3\n        /* \"#utility.yul\":5185:5194   */\n      dup12\n        /* \"#utility.yul\":5181:5203   */\n      add\n        /* \"#utility.yul\":5160:5213   */\n      tag_553\n      jump\t// in\n    tag_598:\n        /* \"#utility.yul\":5150:5213   */\n      swap3\n      pop\n        /* \"#utility.yul\":5104:5223   */\n      pop\n        /* \"#utility.yul\":5262:5265   */\n      0xc0\n        /* \"#utility.yul\":5289:5342   */\n      tag_599\n        /* \"#utility.yul\":5334:5341   */\n      dup11\n        /* \"#utility.yul\":5325:5331   */\n      dup3\n        /* \"#utility.yul\":5314:5323   */\n      dup12\n        /* \"#utility.yul\":5310:5332   */\n      add\n        /* \"#utility.yul\":5289:5342   */\n      tag_553\n      jump\t// in\n    tag_599:\n        /* \"#utility.yul\":5279:5342   */\n      swap2\n      pop\n        /* \"#utility.yul\":5233:5352   */\n      pop\n        /* \"#utility.yul\":4068:5359   */\n      swap3\n      swap6\n      swap9\n      swap2\n      swap5\n      swap8\n      pop\n      swap3\n      swap6\n      pop\n      jump\t// out\n        /* \"#utility.yul\":5365:5839   */\n    tag_121:\n        /* \"#utility.yul\":5433:5439   */\n      0x00\n        /* \"#utility.yul\":5441:5447   */\n      dup1\n        /* \"#utility.yul\":5490:5492   */\n      0x40\n        /* \"#utility.yul\":5478:5487   */\n      dup4\n        /* \"#utility.yul\":5469:5476   */\n      dup6\n        /* \"#utility.yul\":5465:5488   */\n      sub\n        /* \"#utility.yul\":5461:5493   */\n      slt\n        /* \"#utility.yul\":5458:5577   */\n      iszero\n      tag_601\n      jumpi\n        /* \"#utility.yul\":5496:5575   */\n      tag_602\n      tag_563\n      jump\t// in\n    tag_602:\n        /* \"#utility.yul\":5458:5577   */\n    tag_601:\n        /* \"#utility.yul\":5616:5617   */\n      0x00\n        /* \"#utility.yul\":5641:5694   */\n      tag_603\n        /* \"#utility.yul\":5686:5693   */\n      dup6\n        /* \"#utility.yul\":5677:5683   */\n      dup3\n        /* \"#utility.yul\":5666:5675   */\n      dup7\n        /* \"#utility.yul\":5662:5684   */\n      add\n        /* \"#utility.yul\":5641:5694   */\n      tag_553\n      jump\t// in\n    tag_603:\n        /* \"#utility.yul\":5631:5694   */\n      swap3\n      pop\n        /* \"#utility.yul\":5587:5704   */\n      pop\n        /* \"#utility.yul\":5743:5745   */\n      0x20\n        /* \"#utility.yul\":5769:5822   */\n      tag_604\n        /* \"#utility.yul\":5814:5821   */\n      dup6\n        /* \"#utility.yul\":5805:5811   */\n      dup3\n        /* \"#utility.yul\":5794:5803   */\n      dup7\n        /* \"#utility.yul\":5790:5812   */\n      add\n        /* \"#utility.yul\":5769:5822   */\n      tag_553\n      jump\t// in\n    tag_604:\n        /* \"#utility.yul\":5759:5822   */\n      swap2\n      pop\n        /* \"#utility.yul\":5714:5832   */\n      pop\n        /* \"#utility.yul\":5365:5839   */\n      swap3\n      pop\n      swap3\n      swap1\n      pop\n      jump\t// out\n        /* \"#utility.yul\":5845:6458   */\n    tag_93:\n        /* \"#utility.yul\":5919:5925   */\n      0x00\n        /* \"#utility.yul\":5927:5933   */\n      dup1\n        /* \"#utility.yul\":5935:5941   */\n      0x00\n        /* \"#utility.yul\":5984:5986   */\n      0x60\n        /* \"#utility.yul\":5972:5981   */\n      dup5\n        /* \"#utility.yul\":5963:5970   */\n      dup7\n        /* \"#utility.yul\":5959:5982   */\n      sub\n        /* \"#utility.yul\":5955:5987   */\n      slt\n        /* \"#utility.yul\":5952:6071   */\n      iszero\n      tag_606\n      jumpi\n        /* \"#utility.yul\":5990:6069   */\n      tag_607\n      tag_563\n      jump\t// in\n    tag_607:\n        /* \"#utility.yul\":5952:6071   */\n    tag_606:\n        /* \"#utility.yul\":6110:6111   */\n      0x00\n        /* \"#utility.yul\":6135:6188   */\n      tag_608\n        /* \"#utility.yul\":6180:6187   */\n      dup7\n        /* \"#utility.yul\":6171:6177   */\n      dup3\n        /* \"#utility.yul\":6160:6169   */\n      dup8\n        /* \"#utility.yul\":6156:6178   */\n      add\n        /* \"#utility.yul\":6135:6188   */\n      tag_553\n      jump\t// in\n    tag_608:\n        /* \"#utility.yul\":6125:6188   */\n      swap4\n      pop\n        /* \"#utility.yul\":6081:6198   */\n      pop\n        /* \"#utility.yul\":6237:6239   */\n      0x20\n        /* \"#utility.yul\":6263:6316   */\n      tag_609\n        /* \"#utility.yul\":6308:6315   */\n      dup7\n        /* \"#utility.yul\":6299:6305   */\n      dup3\n        /* \"#utility.yul\":6288:6297   */\n      dup8\n        /* \"#utility.yul\":6284:6306   */\n      add\n        /* \"#utility.yul\":6263:6316   */\n      tag_553\n      jump\t// in\n    tag_609:\n        /* \"#utility.yul\":6253:6316   */\n      swap3\n      pop\n        /* \"#utility.yul\":6208:6326   */\n      pop\n        /* \"#utility.yul\":6365:6367   */\n      0x40\n        /* \"#utility.yul\":6391:6441   */\n      tag_610\n        /* \"#utility.yul\":6433:6440   */\n      dup7\n        /* \"#utility.yul\":6424:6430   */\n      dup3\n        /* \"#utility.yul\":6413:6422   */\n      dup8\n        /* \"#utility.yul\":6409:6431   */\n      add\n        /* \"#utility.yul\":6391:6441   */\n      tag_531\n      jump\t// in\n    tag_610:\n        /* \"#utility.yul\":6381:6441   */\n      swap2\n      pop\n        /* \"#utility.yul\":6336:6451   */\n      pop\n        /* \"#utility.yul\":5845:6458   */\n      swap3\n      pop\n      swap3\n      pop\n      swap3\n      jump\t// out\n        /* \"#utility.yul\":6464:7083   */\n    tag_43:\n        /* \"#utility.yul\":6541:6547   */\n      0x00\n        /* \"#utility.yul\":6549:6555   */\n      dup1\n        /* \"#utility.yul\":6557:6563   */\n      0x00\n        /* \"#utility.yul\":6606:6608   */\n      0x60\n        /* \"#utility.yul\":6594:6603   */\n      dup5\n        /* \"#utility.yul\":6585:6592   */\n      dup7\n        /* \"#utility.yul\":6581:6604   */\n      sub\n        /* \"#utility.yul\":6577:6609   */\n      slt\n        /* \"#utility.yul\":6574:6693   */\n      iszero\n      tag_612\n      jumpi\n        /* \"#utility.yul\":6612:6691   */\n      tag_613\n      tag_563\n      jump\t// in\n    tag_613:\n        /* \"#utility.yul\":6574:6693   */\n    tag_612:\n        /* \"#utility.yul\":6732:6733   */\n      0x00\n        /* \"#utility.yul\":6757:6810   */\n      tag_614\n        /* \"#utility.yul\":6802:6809   */\n      dup7\n        /* \"#utility.yul\":6793:6799   */\n      dup3\n        /* \"#utility.yul\":6782:6791   */\n      dup8\n        /* \"#utility.yul\":6778:6800   */\n      add\n        /* \"#utility.yul\":6757:6810   */\n      tag_553\n      jump\t// in\n    tag_614:\n        /* \"#utility.yul\":6747:6810   */\n      swap4\n      pop\n        /* \"#utility.yul\":6703:6820   */\n      pop\n        /* \"#utility.yul\":6859:6861   */\n      0x20\n        /* \"#utility.yul\":6885:6938   */\n      tag_615\n        /* \"#utility.yul\":6930:6937   */\n      dup7\n        /* \"#utility.yul\":6921:6927   */\n      dup3\n        /* \"#utility.yul\":6910:6919   */\n      dup8\n        /* \"#utility.yul\":6906:6928   */\n      add\n        /* \"#utility.yul\":6885:6938   */\n      tag_553\n      jump\t// in\n    tag_615:\n        /* \"#utility.yul\":6875:6938   */\n      swap3\n      pop\n        /* \"#utility.yul\":6830:6948   */\n      pop\n        /* \"#utility.yul\":6987:6989   */\n      0x40\n        /* \"#utility.yul\":7013:7066   */\n      tag_616\n        /* \"#utility.yul\":7058:7065   */\n      dup7\n        /* \"#utility.yul\":7049:7055   */\n      dup3\n        /* \"#utility.yul\":7038:7047   */\n      dup8\n        /* \"#utility.yul\":7034:7056   */\n      add\n        /* \"#utility.yul\":7013:7066   */\n      tag_553\n      jump\t// in\n    tag_616:\n        /* \"#utility.yul\":7003:7066   */\n      swap2\n      pop\n        /* \"#utility.yul\":6958:7076   */\n      pop\n        /* \"#utility.yul\":6464:7083   */\n      swap3\n      pop\n      swap3\n      pop\n      swap3\n      jump\t// out\n        /* \"#utility.yul\":7089:7207   */\n    tag_617:\n        /* \"#utility.yul\":7176:7200   */\n      tag_619\n        /* \"#utility.yul\":7194:7199   */\n      dup2\n        /* \"#utility.yul\":7176:7200   */\n      tag_620\n      jump\t// in\n    tag_619:\n        /* \"#utility.yul\":7171:7174   */\n      dup3\n        /* \"#utility.yul\":7164:7201   */\n      mstore\n        /* \"#utility.yul\":7089:7207   */\n      pop\n      pop\n      jump\t// out\n        /* \"#utility.yul\":7213:7586   */\n    tag_621:\n        /* \"#utility.yul\":7317:7320   */\n      0x00\n        /* \"#utility.yul\":7345:7383   */\n      tag_623\n        /* \"#utility.yul\":7377:7382   */\n      dup3\n        /* \"#utility.yul\":7345:7383   */\n      tag_624\n      jump\t// in\n    tag_623:\n        /* \"#utility.yul\":7399:7487   */\n      tag_625\n        /* \"#utility.yul\":7480:7486   */\n      dup2\n        /* \"#utility.yul\":7475:7478   */\n      dup6\n        /* \"#utility.yul\":7399:7487   */\n      tag_626\n      jump\t// in\n    tag_625:\n        /* \"#utility.yul\":7392:7487   */\n      swap4\n      pop\n        /* \"#utility.yul\":7496:7548   */\n      tag_627\n        /* \"#utility.yul\":7541:7547   */\n      dup2\n        /* \"#utility.yul\":7536:7539   */\n      dup6\n        /* \"#utility.yul\":7529:7533   */\n      0x20\n        /* \"#utility.yul\":7522:7527   */\n      dup7\n        /* \"#utility.yul\":7518:7534   */\n      add\n        /* \"#utility.yul\":7496:7548   */\n      tag_628\n      jump\t// in\n    tag_627:\n        /* \"#utility.yul\":7573:7579   */\n      dup1\n        /* \"#utility.yul\":7568:7571   */\n      dup5\n        /* \"#utility.yul\":7564:7580   */\n      add\n        /* \"#utility.yul\":7557:7580   */\n      swap2\n      pop\n        /* \"#utility.yul\":7321:7586   */\n      pop\n        /* \"#utility.yul\":7213:7586   */\n      swap3\n      swap2\n      pop\n      pop\n      jump\t// out\n        /* \"#utility.yul\":7592:7751   */\n    tag_629:\n        /* \"#utility.yul\":7693:7744   */\n      tag_631\n        /* \"#utility.yul\":7738:7743   */\n      dup2\n        /* \"#utility.yul\":7693:7744   */\n      tag_632\n      jump\t// in\n    tag_631:\n        /* \"#utility.yul\":7688:7691   */\n      dup3\n        /* \"#utility.yul\":7681:7745   */\n      mstore\n        /* \"#utility.yul\":7592:7751   */\n      pop\n      pop\n      jump\t// out\n        /* \"#utility.yul\":7757:7926   */\n    tag_633:\n        /* \"#utility.yul\":7863:7919   */\n      tag_635\n        /* \"#utility.yul\":7913:7918   */\n      dup2\n        /* \"#utility.yul\":7863:7919   */\n      tag_636\n      jump\t// in\n    tag_635:\n        /* \"#utility.yul\":7858:7861   */\n      dup3\n        /* \"#utility.yul\":7851:7920   */\n      mstore\n        /* \"#utility.yul\":7757:7926   */\n      pop\n      pop\n      jump\t// out\n        /* \"#utility.yul\":7932:8105   */\n    tag_637:\n        /* \"#utility.yul\":8040:8098   */\n      tag_639\n        /* \"#utility.yul\":8092:8097   */\n      dup2\n        /* \"#utility.yul\":8040:8098   */\n      tag_640\n      jump\t// in\n    tag_639:\n        /* \"#utility.yul\":8035:8038   */\n      dup3\n        /* \"#utility.yul\":8028:8099   */\n      mstore\n        /* \"#utility.yul\":7932:8105   */\n      pop\n      pop\n      jump\t// out\n        /* \"#utility.yul\":8111:8286   */\n    tag_641:\n        /* \"#utility.yul\":8220:8279   */\n      tag_643\n        /* \"#utility.yul\":8273:8278   */\n      dup2\n        /* \"#utility.yul\":8220:8279   */\n      tag_644\n      jump\t// in\n    tag_643:\n        /* \"#utility.yul\":8215:8218   */\n      dup3\n        /* \"#utility.yul\":8208:8280   */\n      mstore\n        /* \"#utility.yul\":8111:8286   */\n      pop\n      pop\n      jump\t// out\n        /* \"#utility.yul\":8292:8656   */\n    tag_645:\n        /* \"#utility.yul\":8380:8383   */\n      0x00\n        /* \"#utility.yul\":8408:8447   */\n      tag_647\n        /* \"#utility.yul\":8441:8446   */\n      dup3\n        /* \"#utility.yul\":8408:8447   */\n      tag_648\n      jump\t// in\n    tag_647:\n        /* \"#utility.yul\":8463:8534   */\n      tag_649\n        /* \"#utility.yul\":8527:8533   */\n      dup2\n        /* \"#utility.yul\":8522:8525   */\n      dup6\n        /* \"#utility.yul\":8463:8534   */\n      tag_650\n      jump\t// in\n    tag_649:\n        /* \"#utility.yul\":8456:8534   */\n      swap4\n      pop\n        /* \"#utility.yul\":8543:8595   */\n      tag_651\n        /* \"#utility.yul\":8588:8594   */\n      dup2\n        /* \"#utility.yul\":8583:8586   */\n      dup6\n        /* \"#utility.yul\":8576:8580   */\n      0x20\n        /* \"#utility.yul\":8569:8574   */\n      dup7\n        /* \"#utility.yul\":8565:8581   */\n      add\n        /* \"#utility.yul\":8543:8595   */\n      tag_628\n      jump\t// in\n    tag_651:\n        /* \"#utility.yul\":8620:8649   */\n      tag_652\n        /* \"#utility.yul\":8642:8648   */\n      dup2\n        /* \"#utility.yul\":8620:8649   */\n      tag_653\n      jump\t// in\n    tag_652:\n        /* \"#utility.yul\":8615:8618   */\n      dup5\n        /* \"#utility.yul\":8611:8650   */\n      add\n        /* \"#utility.yul\":8604:8650   */\n      swap2\n      pop\n        /* \"#utility.yul\":8384:8656   */\n      pop\n        /* \"#utility.yul\":8292:8656   */\n      swap3\n      swap2\n      pop\n      pop\n      jump\t// out\n        /* \"#utility.yul\":8662:9028   */\n    tag_654:\n        /* \"#utility.yul\":8804:8807   */\n      0x00\n        /* \"#utility.yul\":8825:8892   */\n      tag_656\n        /* \"#utility.yul\":8889:8891   */\n      0x26\n        /* \"#utility.yul\":8884:8887   */\n      dup4\n        /* \"#utility.yul\":8825:8892   */\n      tag_650\n      jump\t// in\n    tag_656:\n        /* \"#utility.yul\":8818:8892   */\n      swap2\n      pop\n        /* \"#utility.yul\":8901:8994   */\n      tag_657\n        /* \"#utility.yul\":8990:8993   */\n      dup3\n        /* \"#utility.yul\":8901:8994   */\n      tag_658\n      jump\t// in\n    tag_657:\n        /* \"#utility.yul\":9019:9021   */\n      0x40\n        /* \"#utility.yul\":9014:9017   */\n      dup3\n        /* \"#utility.yul\":9010:9022   */\n      add\n        /* \"#utility.yul\":9003:9022   */\n      swap1\n      pop\n        /* \"#utility.yul\":8662:9028   */\n      swap2\n      swap1\n      pop\n      jump\t// out\n        /* \"#utility.yul\":9034:9400   */\n    tag_659:\n        /* \"#utility.yul\":9176:9179   */\n      0x00\n        /* \"#utility.yul\":9197:9264   */\n      tag_661\n        /* \"#utility.yul\":9261:9263   */\n      0x1b\n        /* \"#utility.yul\":9256:9259   */\n      dup4\n        /* \"#utility.yul\":9197:9264   */\n      tag_650\n      jump\t// in\n    tag_661:\n        /* \"#utility.yul\":9190:9264   */\n      swap2\n      pop\n        /* \"#utility.yul\":9273:9366   */\n      tag_662\n        /* \"#utility.yul\":9362:9365   */\n      dup3\n        /* \"#utility.yul\":9273:9366   */\n      tag_663\n      jump\t// in\n    tag_662:\n        /* \"#utility.yul\":9391:9393   */\n      0x20\n        /* \"#utility.yul\":9386:9389   */\n      dup3\n        /* \"#utility.yul\":9382:9394   */\n      add\n        /* \"#utility.yul\":9375:9394   */\n      swap1\n      pop\n        /* \"#utility.yul\":9034:9400   */\n      swap2\n      swap1\n      pop\n      jump\t// out\n        /* \"#utility.yul\":9406:9772   */\n    tag_664:\n        /* \"#utility.yul\":9548:9551   */\n      0x00\n        /* \"#utility.yul\":9569:9636   */\n      tag_666\n        /* \"#utility.yul\":9633:9635   */\n      0x26\n        /* \"#utility.yul\":9628:9631   */\n      dup4\n        /* \"#utility.yul\":9569:9636   */\n      tag_650\n      jump\t// in\n    tag_666:\n        /* \"#utility.yul\":9562:9636   */\n      swap2\n      pop\n        /* \"#utility.yul\":9645:9738   */\n      tag_667\n        /* \"#utility.yul\":9734:9737   */\n      dup3\n        /* \"#utility.yul\":9645:9738   */\n      tag_668\n      jump\t// in\n    tag_667:\n        /* \"#utility.yul\":9763:9765   */\n      0x40\n        /* \"#utility.yul\":9758:9761   */\n      dup3\n        /* \"#utility.yul\":9754:9766   */\n      add\n        /* \"#utility.yul\":9747:9766   */\n      swap1\n      pop\n        /* \"#utility.yul\":9406:9772   */\n      swap2\n      swap1\n      pop\n      jump\t// out\n        /* \"#utility.yul\":9778:10144   */\n    tag_669:\n        /* \"#utility.yul\":9920:9923   */\n      0x00\n        /* \"#utility.yul\":9941:10008   */\n      tag_671\n        /* \"#utility.yul\":10005:10007   */\n      0x21\n        /* \"#utility.yul\":10000:10003   */\n      dup4\n        /* \"#utility.yul\":9941:10008   */\n      tag_650\n      jump\t// in\n    tag_671:\n        /* \"#utility.yul\":9934:10008   */\n      swap2\n      pop\n        /* \"#utility.yul\":10017:10110   */\n      tag_672\n        /* \"#utility.yul\":10106:10109   */\n      dup3\n        /* \"#utility.yul\":10017:10110   */\n      tag_673\n      jump\t// in\n    tag_672:\n        /* \"#utility.yul\":10135:10137   */\n      0x40\n        /* \"#utility.yul\":10130:10133   */\n      dup3\n        /* \"#utility.yul\":10126:10138   */\n      add\n        /* \"#utility.yul\":10119:10138   */\n      swap1\n      pop\n        /* \"#utility.yul\":9778:10144   */\n      swap2\n      swap1\n      pop\n      jump\t// out\n        /* \"#utility.yul\":10150:10516   */\n    tag_674:\n        /* \"#utility.yul\":10292:10295   */\n      0x00\n        /* \"#utility.yul\":10313:10380   */\n      tag_676\n        /* \"#utility.yul\":10377:10379   */\n      0x20\n        /* \"#utility.yul\":10372:10375   */\n      dup4\n        /* \"#utility.yul\":10313:10380   */\n      tag_650\n      jump\t// in\n    tag_676:\n        /* \"#utility.yul\":10306:10380   */\n      swap2\n      pop\n        /* \"#utility.yul\":10389:10482   */\n      tag_677\n        /* \"#utility.yul\":10478:10481   */\n      dup3\n        /* \"#utility.yul\":10389:10482   */\n      tag_678\n      jump\t// in\n    tag_677:\n        /* \"#utility.yul\":10507:10509   */\n      0x20\n        /* \"#utility.yul\":10502:10505   */\n      dup3\n        /* \"#utility.yul\":10498:10510   */\n      add\n        /* \"#utility.yul\":10491:10510   */\n      swap1\n      pop\n        /* \"#utility.yul\":10150:10516   */\n      swap2\n      swap1\n      pop\n      jump\t// out\n        /* \"#utility.yul\":10522:10888   */\n    tag_679:\n        /* \"#utility.yul\":10664:10667   */\n      0x00\n        /* \"#utility.yul\":10685:10752   */\n      tag_681\n        /* \"#utility.yul\":10749:10751   */\n      0x1d\n        /* \"#utility.yul\":10744:10747   */\n      dup4\n        /* \"#utility.yul\":10685:10752   */\n      tag_650\n      jump\t// in\n    tag_681:\n        /* \"#utility.yul\":10678:10752   */\n      swap2\n      pop\n        /* \"#utility.yul\":10761:10854   */\n      tag_682\n        /* \"#utility.yul\":10850:10853   */\n      dup3\n        /* \"#utility.yul\":10761:10854   */\n      tag_683\n      jump\t// in\n    tag_682:\n        /* \"#utility.yul\":10879:10881   */\n      0x20\n        /* \"#utility.yul\":10874:10877   */\n      dup3\n        /* \"#utility.yul\":10870:10882   */\n      add\n        /* \"#utility.yul\":10863:10882   */\n      swap1\n      pop\n        /* \"#utility.yul\":10522:10888   */\n      swap2\n      swap1\n      pop\n      jump\t// out\n        /* \"#utility.yul\":10894:11260   */\n    tag_684:\n        /* \"#utility.yul\":11036:11039   */\n      0x00\n        /* \"#utility.yul\":11057:11124   */\n      tag_686\n        /* \"#utility.yul\":11121:11123   */\n      0x12\n        /* \"#utility.yul\":11116:11119   */\n      dup4\n        /* \"#utility.yul\":11057:11124   */\n      tag_650\n      jump\t// in\n    tag_686:\n        /* \"#utility.yul\":11050:11124   */\n      swap2\n      pop\n        /* \"#utility.yul\":11133:11226   */\n      tag_687\n        /* \"#utility.yul\":11222:11225   */\n      dup3\n        /* \"#utility.yul\":11133:11226   */\n      tag_688\n      jump\t// in\n    tag_687:\n        /* \"#utility.yul\":11251:11253   */\n      0x20\n        /* \"#utility.yul\":11246:11249   */\n      dup3\n        /* \"#utility.yul\":11242:11254   */\n      add\n        /* \"#utility.yul\":11235:11254   */\n      swap1\n      pop\n        /* \"#utility.yul\":10894:11260   */\n      swap2\n      swap1\n      pop\n      jump\t// out\n        /* \"#utility.yul\":11266:11632   */\n    tag_689:\n        /* \"#utility.yul\":11408:11411   */\n      0x00\n        /* \"#utility.yul\":11429:11496   */\n      tag_691\n        /* \"#utility.yul\":11493:11495   */\n      0x2a\n        /* \"#utility.yul\":11488:11491   */\n      dup4\n        /* \"#utility.yul\":11429:11496   */\n      tag_650\n      jump\t// in\n    tag_691:\n        /* \"#utility.yul\":11422:11496   */\n      swap2\n      pop\n        /* \"#utility.yul\":11505:11598   */\n      tag_692\n        /* \"#utility.yul\":11594:11597   */\n      dup3\n        /* \"#utility.yul\":11505:11598   */\n      tag_693\n      jump\t// in\n    tag_692:\n        /* \"#utility.yul\":11623:11625   */\n      0x40\n        /* \"#utility.yul\":11618:11621   */\n      dup3\n        /* \"#utility.yul\":11614:11626   */\n      add\n        /* \"#utility.yul\":11607:11626   */\n      swap1\n      pop\n        /* \"#utility.yul\":11266:11632   */\n      swap2\n      swap1\n      pop\n      jump\t// out\n        /* \"#utility.yul\":11638:12004   */\n    tag_694:\n        /* \"#utility.yul\":11780:11783   */\n      0x00\n        /* \"#utility.yul\":11801:11868   */\n      tag_696\n        /* \"#utility.yul\":11865:11867   */\n      0x0c\n        /* \"#utility.yul\":11860:11863   */\n      dup4\n        /* \"#utility.yul\":11801:11868   */\n      tag_650\n      jump\t// in\n    tag_696:\n        /* \"#utility.yul\":11794:11868   */\n      swap2\n      pop\n        /* \"#utility.yul\":11877:11970   */\n      tag_697\n        /* \"#utility.yul\":11966:11969   */\n      dup3\n        /* \"#utility.yul\":11877:11970   */\n      tag_698\n      jump\t// in\n    tag_697:\n        /* \"#utility.yul\":11995:11997   */\n      0x20\n        /* \"#utility.yul\":11990:11993   */\n      dup3\n        /* \"#utility.yul\":11986:11998   */\n      add\n        /* \"#utility.yul\":11979:11998   */\n      swap1\n      pop\n        /* \"#utility.yul\":11638:12004   */\n      swap2\n      swap1\n      pop\n      jump\t// out\n        /* \"#utility.yul\":12010:12376   */\n    tag_699:\n        /* \"#utility.yul\":12152:12155   */\n      0x00\n        /* \"#utility.yul\":12173:12240   */\n      tag_701\n        /* \"#utility.yul\":12237:12239   */\n      0x36\n        /* \"#utility.yul\":12232:12235   */\n      dup4\n        /* \"#utility.yul\":12173:12240   */\n      tag_650\n      jump\t// in\n    tag_701:\n        /* \"#utility.yul\":12166:12240   */\n      swap2\n      pop\n        /* \"#utility.yul\":12249:12342   */\n      tag_702\n        /* \"#utility.yul\":12338:12341   */\n      dup3\n        /* \"#utility.yul\":12249:12342   */\n      tag_703\n      jump\t// in\n    tag_702:\n        /* \"#utility.yul\":12367:12369   */\n      0x40\n        /* \"#utility.yul\":12362:12365   */\n      dup3\n        /* \"#utility.yul\":12358:12370   */\n      add\n        /* \"#utility.yul\":12351:12370   */\n      swap1\n      pop\n        /* \"#utility.yul\":12010:12376   */\n      swap2\n      swap1\n      pop\n      jump\t// out\n        /* \"#utility.yul\":12382:12748   */\n    tag_704:\n        /* \"#utility.yul\":12524:12527   */\n      0x00\n        /* \"#utility.yul\":12545:12612   */\n      tag_706\n        /* \"#utility.yul\":12609:12611   */\n      0x14\n        /* \"#utility.yul\":12604:12607   */\n      dup4\n        /* \"#utility.yul\":12545:12612   */\n      tag_650\n      jump\t// in\n    tag_706:\n        /* \"#utility.yul\":12538:12612   */\n      swap2\n      pop\n        /* \"#utility.yul\":12621:12714   */\n      tag_707\n        /* \"#utility.yul\":12710:12713   */\n      dup3\n        /* \"#utility.yul\":12621:12714   */\n      tag_708\n      jump\t// in\n    tag_707:\n        /* \"#utility.yul\":12739:12741   */\n      0x20\n        /* \"#utility.yul\":12734:12737   */\n      dup3\n        /* \"#utility.yul\":12730:12742   */\n      add\n        /* \"#utility.yul\":12723:12742   */\n      swap1\n      pop\n        /* \"#utility.yul\":12382:12748   */\n      swap2\n      swap1\n      pop\n      jump\t// out\n        /* \"#utility.yul\":12754:12872   */\n    tag_709:\n        /* \"#utility.yul\":12841:12865   */\n      tag_711\n        /* \"#utility.yul\":12859:12864   */\n      dup2\n        /* \"#utility.yul\":12841:12865   */\n      tag_712\n      jump\t// in\n    tag_711:\n        /* \"#utility.yul\":12836:12839   */\n      dup3\n        /* \"#utility.yul\":12829:12866   */\n      mstore\n        /* \"#utility.yul\":12754:12872   */\n      pop\n      pop\n      jump\t// out\n        /* \"#utility.yul\":12878:13149   */\n    tag_513:\n        /* \"#utility.yul\":13008:13011   */\n      0x00\n        /* \"#utility.yul\":13030:13123   */\n      tag_714\n        /* \"#utility.yul\":13119:13122   */\n      dup3\n        /* \"#utility.yul\":13110:13116   */\n      dup5\n        /* \"#utility.yul\":13030:13123   */\n      tag_621\n      jump\t// in\n    tag_714:\n        /* \"#utility.yul\":13023:13123   */\n      swap2\n      pop\n        /* \"#utility.yul\":13140:13143   */\n      dup2\n        /* \"#utility.yul\":13133:13143   */\n      swap1\n      pop\n        /* \"#utility.yul\":12878:13149   */\n      swap3\n      swap2\n      pop\n      pop\n      jump\t// out\n        /* \"#utility.yul\":13155:13377   */\n    tag_118:\n        /* \"#utility.yul\":13248:13252   */\n      0x00\n        /* \"#utility.yul\":13286:13288   */\n      0x20\n        /* \"#utility.yul\":13275:13284   */\n      dup3\n        /* \"#utility.yul\":13271:13289   */\n      add\n        /* \"#utility.yul\":13263:13289   */\n      swap1\n      pop\n        /* \"#utility.yul\":13299:13370   */\n      tag_716\n        /* \"#utility.yul\":13367:13368   */\n      0x00\n        /* \"#utility.yul\":13356:13365   */\n      dup4\n        /* \"#utility.yul\":13352:13369   */\n      add\n        /* \"#utility.yul\":13343:13349   */\n      dup5\n        /* \"#utility.yul\":13299:13370   */\n      tag_617\n      jump\t// in\n    tag_716:\n        /* \"#utility.yul\":13155:13377   */\n      swap3\n      swap2\n      pop\n      pop\n      jump\t// out\n        /* \"#utility.yul\":13383:13715   */\n    tag_169:\n        /* \"#utility.yul\":13504:13508   */\n      0x00\n        /* \"#utility.yul\":13542:13544   */\n      0x40\n        /* \"#utility.yul\":13531:13540   */\n      dup3\n        /* \"#utility.yul\":13527:13545   */\n      add\n        /* \"#utility.yul\":13519:13545   */\n      swap1\n      pop\n        /* \"#utility.yul\":13555:13626   */\n      tag_718\n        /* \"#utility.yul\":13623:13624   */\n      0x00\n        /* \"#utility.yul\":13612:13621   */\n      dup4\n        /* \"#utility.yul\":13608:13625   */\n      add\n        /* \"#utility.yul\":13599:13605   */\n      dup6\n        /* \"#utility.yul\":13555:13626   */\n      tag_617\n      jump\t// in\n    tag_718:\n        /* \"#utility.yul\":13636:13708   */\n      tag_719\n        /* \"#utility.yul\":13704:13706   */\n      0x20\n        /* \"#utility.yul\":13693:13702   */\n      dup4\n        /* \"#utility.yul\":13689:13707   */\n      add\n        /* \"#utility.yul\":13680:13686   */\n      dup5\n        /* \"#utility.yul\":13636:13708   */\n      tag_617\n      jump\t// in\n    tag_719:\n        /* \"#utility.yul\":13383:13715   */\n      swap4\n      swap3\n      pop\n      pop\n      pop\n      jump\t// out\n        /* \"#utility.yul\":13721:14163   */\n    tag_457:\n        /* \"#utility.yul\":13870:13874   */\n      0x00\n        /* \"#utility.yul\":13908:13910   */\n      0x60\n        /* \"#utility.yul\":13897:13906   */\n      dup3\n        /* \"#utility.yul\":13893:13911   */\n      add\n        /* \"#utility.yul\":13885:13911   */\n      swap1\n      pop\n        /* \"#utility.yul\":13921:13992   */\n      tag_721\n        /* \"#utility.yul\":13989:13990   */\n      0x00\n        /* \"#utility.yul\":13978:13987   */\n      dup4\n        /* \"#utility.yul\":13974:13991   */\n      add\n        /* \"#utility.yul\":13965:13971   */\n      dup7\n        /* \"#utility.yul\":13921:13992   */\n      tag_617\n      jump\t// in\n    tag_721:\n        /* \"#utility.yul\":14002:14074   */\n      tag_722\n        /* \"#utility.yul\":14070:14072   */\n      0x20\n        /* \"#utility.yul\":14059:14068   */\n      dup4\n        /* \"#utility.yul\":14055:14073   */\n      add\n        /* \"#utility.yul\":14046:14052   */\n      dup6\n        /* \"#utility.yul\":14002:14074   */\n      tag_617\n      jump\t// in\n    tag_722:\n        /* \"#utility.yul\":14084:14156   */\n      tag_723\n        /* \"#utility.yul\":14152:14154   */\n      0x40\n        /* \"#utility.yul\":14141:14150   */\n      dup4\n        /* \"#utility.yul\":14137:14155   */\n      add\n        /* \"#utility.yul\":14128:14134   */\n      dup5\n        /* \"#utility.yul\":14084:14156   */\n      tag_709\n      jump\t// in\n    tag_723:\n        /* \"#utility.yul\":13721:14163   */\n      swap5\n      swap4\n      pop\n      pop\n      pop\n      pop\n      jump\t// out\n        /* \"#utility.yul\":14169:14501   */\n    tag_274:\n        /* \"#utility.yul\":14290:14294   */\n      0x00\n        /* \"#utility.yul\":14328:14330   */\n      0x40\n        /* \"#utility.yul\":14317:14326   */\n      dup3\n        /* \"#utility.yul\":14313:14331   */\n      add\n        /* \"#utility.yul\":14305:14331   */\n      swap1\n      pop\n        /* \"#utility.yul\":14341:14412   */\n      tag_725\n        /* \"#utility.yul\":14409:14410   */\n      0x00\n        /* \"#utility.yul\":14398:14407   */\n      dup4\n        /* \"#utility.yul\":14394:14411   */\n      add\n        /* \"#utility.yul\":14385:14391   */\n      dup6\n        /* \"#utility.yul\":14341:14412   */\n      tag_617\n      jump\t// in\n    tag_725:\n        /* \"#utility.yul\":14422:14494   */\n      tag_726\n        /* \"#utility.yul\":14490:14492   */\n      0x20\n        /* \"#utility.yul\":14479:14488   */\n      dup4\n        /* \"#utility.yul\":14475:14493   */\n      add\n        /* \"#utility.yul\":14466:14472   */\n      dup5\n        /* \"#utility.yul\":14422:14494   */\n      tag_709\n      jump\t// in\n    tag_726:\n        /* \"#utility.yul\":14169:14501   */\n      swap4\n      swap3\n      pop\n      pop\n      pop\n      jump\t// out\n        /* \"#utility.yul\":14507:14757   */\n    tag_56:\n        /* \"#utility.yul\":14614:14618   */\n      0x00\n        /* \"#utility.yul\":14652:14654   */\n      0x20\n        /* \"#utility.yul\":14641:14650   */\n      dup3\n        /* \"#utility.yul\":14637:14655   */\n      add\n        /* \"#utility.yul\":14629:14655   */\n      swap1\n      pop\n        /* \"#utility.yul\":14665:14750   */\n      tag_728\n        /* \"#utility.yul\":14747:14748   */\n      0x00\n        /* \"#utility.yul\":14736:14745   */\n      dup4\n        /* \"#utility.yul\":14732:14749   */\n      add\n        /* \"#utility.yul\":14723:14729   */\n      dup5\n        /* \"#utility.yul\":14665:14750   */\n      tag_629\n      jump\t// in\n    tag_728:\n        /* \"#utility.yul\":14507:14757   */\n      swap3\n      swap2\n      pop\n      pop\n      jump\t// out\n        /* \"#utility.yul\":14763:15854   */\n    tag_61:\n        /* \"#utility.yul\":15099:15103   */\n      0x00\n        /* \"#utility.yul\":15137:15140   */\n      0x0100\n        /* \"#utility.yul\":15126:15135   */\n      dup3\n        /* \"#utility.yul\":15122:15141   */\n      add\n        /* \"#utility.yul\":15114:15141   */\n      swap1\n      pop\n        /* \"#utility.yul\":15151:15236   */\n      tag_730\n        /* \"#utility.yul\":15233:15234   */\n      0x00\n        /* \"#utility.yul\":15222:15231   */\n      dup4\n        /* \"#utility.yul\":15218:15235   */\n      add\n        /* \"#utility.yul\":15209:15215   */\n      dup12\n        /* \"#utility.yul\":15151:15236   */\n      tag_629\n      jump\t// in\n    tag_730:\n        /* \"#utility.yul\":15246:15318   */\n      tag_731\n        /* \"#utility.yul\":15314:15316   */\n      0x20\n        /* \"#utility.yul\":15303:15312   */\n      dup4\n        /* \"#utility.yul\":15299:15317   */\n      add\n        /* \"#utility.yul\":15290:15296   */\n      dup11\n        /* \"#utility.yul\":15246:15318   */\n      tag_709\n      jump\t// in\n    tag_731:\n        /* \"#utility.yul\":15328:15400   */\n      tag_732\n        /* \"#utility.yul\":15396:15398   */\n      0x40\n        /* \"#utility.yul\":15385:15394   */\n      dup4\n        /* \"#utility.yul\":15381:15399   */\n      add\n        /* \"#utility.yul\":15372:15378   */\n      dup10\n        /* \"#utility.yul\":15328:15400   */\n      tag_709\n      jump\t// in\n    tag_732:\n        /* \"#utility.yul\":15410:15482   */\n      tag_733\n        /* \"#utility.yul\":15478:15480   */\n      0x60\n        /* \"#utility.yul\":15467:15476   */\n      dup4\n        /* \"#utility.yul\":15463:15481   */\n      add\n        /* \"#utility.yul\":15454:15460   */\n      dup9\n        /* \"#utility.yul\":15410:15482   */\n      tag_709\n      jump\t// in\n    tag_733:\n        /* \"#utility.yul\":15492:15584   */\n      tag_734\n        /* \"#utility.yul\":15579:15582   */\n      0x80\n        /* \"#utility.yul\":15568:15577   */\n      dup4\n        /* \"#utility.yul\":15564:15583   */\n      add\n        /* \"#utility.yul\":15555:15561   */\n      dup8\n        /* \"#utility.yul\":15492:15584   */\n      tag_633\n      jump\t// in\n    tag_734:\n        /* \"#utility.yul\":15594:15681   */\n      tag_735\n        /* \"#utility.yul\":15676:15679   */\n      0xa0\n        /* \"#utility.yul\":15665:15674   */\n      dup4\n        /* \"#utility.yul\":15661:15680   */\n      add\n        /* \"#utility.yul\":15652:15658   */\n      dup7\n        /* \"#utility.yul\":15594:15681   */\n      tag_629\n      jump\t// in\n    tag_735:\n        /* \"#utility.yul\":15691:15764   */\n      tag_736\n        /* \"#utility.yul\":15759:15762   */\n      0xc0\n        /* \"#utility.yul\":15748:15757   */\n      dup4\n        /* \"#utility.yul\":15744:15763   */\n      add\n        /* \"#utility.yul\":15735:15741   */\n      dup6\n        /* \"#utility.yul\":15691:15764   */\n      tag_709\n      jump\t// in\n    tag_736:\n        /* \"#utility.yul\":15774:15847   */\n      tag_737\n        /* \"#utility.yul\":15842:15845   */\n      0xe0\n        /* \"#utility.yul\":15831:15840   */\n      dup4\n        /* \"#utility.yul\":15827:15846   */\n      add\n        /* \"#utility.yul\":15818:15824   */\n      dup5\n        /* \"#utility.yul\":15774:15847   */\n      tag_709\n      jump\t// in\n    tag_737:\n        /* \"#utility.yul\":14763:15854   */\n      swap10\n      swap9\n      pop\n      pop\n      pop\n      pop\n      pop\n      pop\n      pop\n      pop\n      pop\n      jump\t// out\n        /* \"#utility.yul\":15860:16124   */\n    tag_111:\n        /* \"#utility.yul\":15974:15978   */\n      0x00\n        /* \"#utility.yul\":16012:16014   */\n      0x20\n        /* \"#utility.yul\":16001:16010   */\n      dup3\n        /* \"#utility.yul\":15997:16015   */\n      add\n        /* \"#utility.yul\":15989:16015   */\n      swap1\n      pop\n        /* \"#utility.yul\":16025:16117   */\n      tag_739\n        /* \"#utility.yul\":16114:16115   */\n      0x00\n        /* \"#utility.yul\":16103:16112   */\n      dup4\n        /* \"#utility.yul\":16099:16116   */\n      add\n        /* \"#utility.yul\":16090:16096   */\n      dup5\n        /* \"#utility.yul\":16025:16117   */\n      tag_637\n      jump\t// in\n    tag_739:\n        /* \"#utility.yul\":15860:16124   */\n      swap3\n      swap2\n      pop\n      pop\n      jump\t// out\n        /* \"#utility.yul\":16130:16396   */\n    tag_145:\n        /* \"#utility.yul\":16245:16249   */\n      0x00\n        /* \"#utility.yul\":16283:16285   */\n      0x20\n        /* \"#utility.yul\":16272:16281   */\n      dup3\n        /* \"#utility.yul\":16268:16286   */\n      add\n        /* \"#utility.yul\":16260:16286   */\n      swap1\n      pop\n        /* \"#utility.yul\":16296:16389   */\n      tag_741\n        /* \"#utility.yul\":16386:16387   */\n      0x00\n        /* \"#utility.yul\":16375:16384   */\n      dup4\n        /* \"#utility.yul\":16371:16388   */\n      add\n        /* \"#utility.yul\":16362:16368   */\n      dup5\n        /* \"#utility.yul\":16296:16389   */\n      tag_641\n      jump\t// in\n    tag_741:\n        /* \"#utility.yul\":16130:16396   */\n      swap3\n      swap2\n      pop\n      pop\n      jump\t// out\n        /* \"#utility.yul\":16402:16715   */\n    tag_485:\n        /* \"#utility.yul\":16515:16519   */\n      0x00\n        /* \"#utility.yul\":16553:16555   */\n      0x20\n        /* \"#utility.yul\":16542:16551   */\n      dup3\n        /* \"#utility.yul\":16538:16556   */\n      add\n        /* \"#utility.yul\":16530:16556   */\n      swap1\n      pop\n        /* \"#utility.yul\":16602:16611   */\n      dup2\n        /* \"#utility.yul\":16596:16600   */\n      dup2\n        /* \"#utility.yul\":16592:16612   */\n      sub\n        /* \"#utility.yul\":16588:16589   */\n      0x00\n        /* \"#utility.yul\":16577:16586   */\n      dup4\n        /* \"#utility.yul\":16573:16590   */\n      add\n        /* \"#utility.yul\":16566:16613   */\n      mstore\n        /* \"#utility.yul\":16630:16708   */\n      tag_743\n        /* \"#utility.yul\":16703:16707   */\n      dup2\n        /* \"#utility.yul\":16694:16700   */\n      dup5\n        /* \"#utility.yul\":16630:16708   */\n      tag_645\n      jump\t// in\n    tag_743:\n        /* \"#utility.yul\":16622:16708   */\n      swap1\n      pop\n        /* \"#utility.yul\":16402:16715   */\n      swap3\n      swap2\n      pop\n      pop\n      jump\t// out\n        /* \"#utility.yul\":16721:17140   */\n    tag_419:\n        /* \"#utility.yul\":16887:16891   */\n      0x00\n        /* \"#utility.yul\":16925:16927   */\n      0x20\n        /* \"#utility.yul\":16914:16923   */\n      dup3\n        /* \"#utility.yul\":16910:16928   */\n      add\n        /* \"#utility.yul\":16902:16928   */\n      swap1\n      pop\n        /* \"#utility.yul\":16974:16983   */\n      dup2\n        /* \"#utility.yul\":16968:16972   */\n      dup2\n        /* \"#utility.yul\":16964:16984   */\n      sub\n        /* \"#utility.yul\":16960:16961   */\n      0x00\n        /* \"#utility.yul\":16949:16958   */\n      dup4\n        /* \"#utility.yul\":16945:16962   */\n      add\n        /* \"#utility.yul\":16938:16985   */\n      mstore\n        /* \"#utility.yul\":17002:17133   */\n      tag_745\n        /* \"#utility.yul\":17128:17132   */\n      dup2\n        /* \"#utility.yul\":17002:17133   */\n      tag_654\n      jump\t// in\n    tag_745:\n        /* \"#utility.yul\":16994:17133   */\n      swap1\n      pop\n        /* \"#utility.yul\":16721:17140   */\n      swap2\n      swap1\n      pop\n      jump\t// out\n        /* \"#utility.yul\":17146:17565   */\n    tag_464:\n        /* \"#utility.yul\":17312:17316   */\n      0x00\n        /* \"#utility.yul\":17350:17352   */\n      0x20\n        /* \"#utility.yul\":17339:17348   */\n      dup3\n        /* \"#utility.yul\":17335:17353   */\n      add\n        /* \"#utility.yul\":17327:17353   */\n      swap1\n      pop\n        /* \"#utility.yul\":17399:17408   */\n      dup2\n        /* \"#utility.yul\":17393:17397   */\n      dup2\n        /* \"#utility.yul\":17389:17409   */\n      sub\n        /* \"#utility.yul\":17385:17386   */\n      0x00\n        /* \"#utility.yul\":17374:17383   */\n      dup4\n        /* \"#utility.yul\":17370:17387   */\n      add\n        /* \"#utility.yul\":17363:17410   */\n      mstore\n        /* \"#utility.yul\":17427:17558   */\n      tag_747\n        /* \"#utility.yul\":17553:17557   */\n      dup2\n        /* \"#utility.yul\":17427:17558   */\n      tag_659\n      jump\t// in\n    tag_747:\n        /* \"#utility.yul\":17419:17558   */\n      swap1\n      pop\n        /* \"#utility.yul\":17146:17565   */\n      swap2\n      swap1\n      pop\n      jump\t// out\n        /* \"#utility.yul\":17571:17990   */\n    tag_506:\n        /* \"#utility.yul\":17737:17741   */\n      0x00\n        /* \"#utility.yul\":17775:17777   */\n      0x20\n        /* \"#utility.yul\":17764:17773   */\n      dup3\n        /* \"#utility.yul\":17760:17778   */\n      add\n        /* \"#utility.yul\":17752:17778   */\n      swap1\n      pop\n        /* \"#utility.yul\":17824:17833   */\n      dup2\n        /* \"#utility.yul\":17818:17822   */\n      dup2\n        /* \"#utility.yul\":17814:17834   */\n      sub\n        /* \"#utility.yul\":17810:17811   */\n      0x00\n        /* \"#utility.yul\":17799:17808   */\n      dup4\n        /* \"#utility.yul\":17795:17812   */\n      add\n        /* \"#utility.yul\":17788:17835   */\n      mstore\n        /* \"#utility.yul\":17852:17983   */\n      tag_749\n        /* \"#utility.yul\":17978:17982   */\n      dup2\n        /* \"#utility.yul\":17852:17983   */\n      tag_664\n      jump\t// in\n    tag_749:\n        /* \"#utility.yul\":17844:17983   */\n      swap1\n      pop\n        /* \"#utility.yul\":17571:17990   */\n      swap2\n      swap1\n      pop\n      jump\t// out\n        /* \"#utility.yul\":17996:18415   */\n    tag_429:\n        /* \"#utility.yul\":18162:18166   */\n      0x00\n        /* \"#utility.yul\":18200:18202   */\n      0x20\n        /* \"#utility.yul\":18189:18198   */\n      dup3\n        /* \"#utility.yul\":18185:18203   */\n      add\n        /* \"#utility.yul\":18177:18203   */\n      swap1\n      pop\n        /* \"#utility.yul\":18249:18258   */\n      dup2\n        /* \"#utility.yul\":18243:18247   */\n      dup2\n        /* \"#utility.yul\":18239:18259   */\n      sub\n        /* \"#utility.yul\":18235:18236   */\n      0x00\n        /* \"#utility.yul\":18224:18233   */\n      dup4\n        /* \"#utility.yul\":18220:18237   */\n      add\n        /* \"#utility.yul\":18213:18260   */\n      mstore\n        /* \"#utility.yul\":18277:18408   */\n      tag_751\n        /* \"#utility.yul\":18403:18407   */\n      dup2\n        /* \"#utility.yul\":18277:18408   */\n      tag_669\n      jump\t// in\n    tag_751:\n        /* \"#utility.yul\":18269:18408   */\n      swap1\n      pop\n        /* \"#utility.yul\":17996:18415   */\n      swap2\n      swap1\n      pop\n      jump\t// out\n        /* \"#utility.yul\":18421:18840   */\n    tag_214:\n        /* \"#utility.yul\":18587:18591   */\n      0x00\n        /* \"#utility.yul\":18625:18627   */\n      0x20\n        /* \"#utility.yul\":18614:18623   */\n      dup3\n        /* \"#utility.yul\":18610:18628   */\n      add\n        /* \"#utility.yul\":18602:18628   */\n      swap1\n      pop\n        /* \"#utility.yul\":18674:18683   */\n      dup2\n        /* \"#utility.yul\":18668:18672   */\n      dup2\n        /* \"#utility.yul\":18664:18684   */\n      sub\n        /* \"#utility.yul\":18660:18661   */\n      0x00\n        /* \"#utility.yul\":18649:18658   */\n      dup4\n        /* \"#utility.yul\":18645:18662   */\n      add\n        /* \"#utility.yul\":18638:18685   */\n      mstore\n        /* \"#utility.yul\":18702:18833   */\n      tag_753\n        /* \"#utility.yul\":18828:18832   */\n      dup2\n        /* \"#utility.yul\":18702:18833   */\n      tag_674\n      jump\t// in\n    tag_753:\n        /* \"#utility.yul\":18694:18833   */\n      swap1\n      pop\n        /* \"#utility.yul\":18421:18840   */\n      swap2\n      swap1\n      pop\n      jump\t// out\n        /* \"#utility.yul\":18846:19265   */\n    tag_511:\n        /* \"#utility.yul\":19012:19016   */\n      0x00\n        /* \"#utility.yul\":19050:19052   */\n      0x20\n        /* \"#utility.yul\":19039:19048   */\n      dup3\n        /* \"#utility.yul\":19035:19053   */\n      add\n        /* \"#utility.yul\":19027:19053   */\n      swap1\n      pop\n        /* \"#utility.yul\":19099:19108   */\n      dup2\n        /* \"#utility.yul\":19093:19097   */\n      dup2\n        /* \"#utility.yul\":19089:19109   */\n      sub\n        /* \"#utility.yul\":19085:19086   */\n      0x00\n        /* \"#utility.yul\":19074:19083   */\n      dup4\n        /* \"#utility.yul\":19070:19087   */\n      add\n        /* \"#utility.yul\":19063:19110   */\n      mstore\n        /* \"#utility.yul\":19127:19258   */\n      tag_755\n        /* \"#utility.yul\":19253:19257   */\n      dup2\n        /* \"#utility.yul\":19127:19258   */\n      tag_679\n      jump\t// in\n    tag_755:\n        /* \"#utility.yul\":19119:19258   */\n      swap1\n      pop\n        /* \"#utility.yul\":18846:19265   */\n      swap2\n      swap1\n      pop\n      jump\t// out\n        /* \"#utility.yul\":19271:19690   */\n    tag_361:\n        /* \"#utility.yul\":19437:19441   */\n      0x00\n        /* \"#utility.yul\":19475:19477   */\n      0x20\n        /* \"#utility.yul\":19464:19473   */\n      dup3\n        /* \"#utility.yul\":19460:19478   */\n      add\n        /* \"#utility.yul\":19452:19478   */\n      swap1\n      pop\n        /* \"#utility.yul\":19524:19533   */\n      dup2\n        /* \"#utility.yul\":19518:19522   */\n      dup2\n        /* \"#utility.yul\":19514:19534   */\n      sub\n        /* \"#utility.yul\":19510:19511   */\n      0x00\n        /* \"#utility.yul\":19499:19508   */\n      dup4\n        /* \"#utility.yul\":19495:19512   */\n      add\n        /* \"#utility.yul\":19488:19535   */\n      mstore\n        /* \"#utility.yul\":19552:19683   */\n      tag_757\n        /* \"#utility.yul\":19678:19682   */\n      dup2\n        /* \"#utility.yul\":19552:19683   */\n      tag_684\n      jump\t// in\n    tag_757:\n        /* \"#utility.yul\":19544:19683   */\n      swap1\n      pop\n        /* \"#utility.yul\":19271:19690   */\n      swap2\n      swap1\n      pop\n      jump\t// out\n        /* \"#utility.yul\":19696:20115   */\n    tag_499:\n        /* \"#utility.yul\":19862:19866   */\n      0x00\n        /* \"#utility.yul\":19900:19902   */\n      0x20\n        /* \"#utility.yul\":19889:19898   */\n      dup3\n        /* \"#utility.yul\":19885:19903   */\n      add\n        /* \"#utility.yul\":19877:19903   */\n      swap1\n      pop\n        /* \"#utility.yul\":19949:19958   */\n      dup2\n        /* \"#utility.yul\":19943:19947   */\n      dup2\n        /* \"#utility.yul\":19939:19959   */\n      sub\n        /* \"#utility.yul\":19935:19936   */\n      0x00\n        /* \"#utility.yul\":19924:19933   */\n      dup4\n        /* \"#utility.yul\":19920:19937   */\n      add\n        /* \"#utility.yul\":19913:19960   */\n      mstore\n        /* \"#utility.yul\":19977:20108   */\n      tag_759\n        /* \"#utility.yul\":20103:20107   */\n      dup2\n        /* \"#utility.yul\":19977:20108   */\n      tag_689\n      jump\t// in\n    tag_759:\n        /* \"#utility.yul\":19969:20108   */\n      swap1\n      pop\n        /* \"#utility.yul\":19696:20115   */\n      swap2\n      swap1\n      pop\n      jump\t// out\n        /* \"#utility.yul\":20121:20540   */\n    tag_246:\n        /* \"#utility.yul\":20287:20291   */\n      0x00\n        /* \"#utility.yul\":20325:20327   */\n      0x20\n        /* \"#utility.yul\":20314:20323   */\n      dup3\n        /* \"#utility.yul\":20310:20328   */\n      add\n        /* \"#utility.yul\":20302:20328   */\n      swap1\n      pop\n        /* \"#utility.yul\":20374:20383   */\n      dup2\n        /* \"#utility.yul\":20368:20372   */\n      dup2\n        /* \"#utility.yul\":20364:20384   */\n      sub\n        /* \"#utility.yul\":20360:20361   */\n      0x00\n        /* \"#utility.yul\":20349:20358   */\n      dup4\n        /* \"#utility.yul\":20345:20362   */\n      add\n        /* \"#utility.yul\":20338:20385   */\n      mstore\n        /* \"#utility.yul\":20402:20533   */\n      tag_761\n        /* \"#utility.yul\":20528:20532   */\n      dup2\n        /* \"#utility.yul\":20402:20533   */\n      tag_694\n      jump\t// in\n    tag_761:\n        /* \"#utility.yul\":20394:20533   */\n      swap1\n      pop\n        /* \"#utility.yul\":20121:20540   */\n      swap2\n      swap1\n      pop\n      jump\t// out\n        /* \"#utility.yul\":20546:20965   */\n    tag_478:\n        /* \"#utility.yul\":20712:20716   */\n      0x00\n        /* \"#utility.yul\":20750:20752   */\n      0x20\n        /* \"#utility.yul\":20739:20748   */\n      dup3\n        /* \"#utility.yul\":20735:20753   */\n      add\n        /* \"#utility.yul\":20727:20753   */\n      swap1\n      pop\n        /* \"#utility.yul\":20799:20808   */\n      dup2\n        /* \"#utility.yul\":20793:20797   */\n      dup2\n        /* \"#utility.yul\":20789:20809   */\n      sub\n        /* \"#utility.yul\":20785:20786   */\n      0x00\n        /* \"#utility.yul\":20774:20783   */\n      dup4\n        /* \"#utility.yul\":20770:20787   */\n      add\n        /* \"#utility.yul\":20763:20810   */\n      mstore\n        /* \"#utility.yul\":20827:20958   */\n      tag_763\n        /* \"#utility.yul\":20953:20957   */\n      dup2\n        /* \"#utility.yul\":20827:20958   */\n      tag_699\n      jump\t// in\n    tag_763:\n        /* \"#utility.yul\":20819:20958   */\n      swap1\n      pop\n        /* \"#utility.yul\":20546:20965   */\n      swap2\n      swap1\n      pop\n      jump\t// out\n        /* \"#utility.yul\":20971:21390   */\n    tag_227:\n        /* \"#utility.yul\":21137:21141   */\n      0x00\n        /* \"#utility.yul\":21175:21177   */\n      0x20\n        /* \"#utility.yul\":21164:21173   */\n      dup3\n        /* \"#utility.yul\":21160:21178   */\n      add\n        /* \"#utility.yul\":21152:21178   */\n      swap1\n      pop\n        /* \"#utility.yul\":21224:21233   */\n      dup2\n        /* \"#utility.yul\":21218:21222   */\n      dup2\n        /* \"#utility.yul\":21214:21234   */\n      sub\n        /* \"#utility.yul\":21210:21211   */\n      0x00\n        /* \"#utility.yul\":21199:21208   */\n      dup4\n        /* \"#utility.yul\":21195:21212   */\n      add\n        /* \"#utility.yul\":21188:21235   */\n      mstore\n        /* \"#utility.yul\":21252:21383   */\n      tag_765\n        /* \"#utility.yul\":21378:21382   */\n      dup2\n        /* \"#utility.yul\":21252:21383   */\n      tag_704\n      jump\t// in\n    tag_765:\n        /* \"#utility.yul\":21244:21383   */\n      swap1\n      pop\n        /* \"#utility.yul\":20971:21390   */\n      swap2\n      swap1\n      pop\n      jump\t// out\n        /* \"#utility.yul\":21396:21618   */\n    tag_48:\n        /* \"#utility.yul\":21489:21493   */\n      0x00\n        /* \"#utility.yul\":21527:21529   */\n      0x20\n        /* \"#utility.yul\":21516:21525   */\n      dup3\n        /* \"#utility.yul\":21512:21530   */\n      add\n        /* \"#utility.yul\":21504:21530   */\n      swap1\n      pop\n        /* \"#utility.yul\":21540:21611   */\n      tag_767\n        /* \"#utility.yul\":21608:21609   */\n      0x00\n        /* \"#utility.yul\":21597:21606   */\n      dup4\n        /* \"#utility.yul\":21593:21610   */\n      add\n        /* \"#utility.yul\":21584:21590   */\n      dup5\n        /* \"#utility.yul\":21540:21611   */\n      tag_709\n      jump\t// in\n    tag_767:\n        /* \"#utility.yul\":21396:21618   */\n      swap3\n      swap2\n      pop\n      pop\n      jump\t// out\n        /* \"#utility.yul\":21624:21956   */\n    tag_128:\n        /* \"#utility.yul\":21745:21749   */\n      0x00\n        /* \"#utility.yul\":21783:21785   */\n      0x40\n        /* \"#utility.yul\":21772:21781   */\n      dup3\n        /* \"#utility.yul\":21768:21786   */\n      add\n        /* \"#utility.yul\":21760:21786   */\n      swap1\n      pop\n        /* \"#utility.yul\":21796:21867   */\n      tag_769\n        /* \"#utility.yul\":21864:21865   */\n      0x00\n        /* \"#utility.yul\":21853:21862   */\n      dup4\n        /* \"#utility.yul\":21849:21866   */\n      add\n        /* \"#utility.yul\":21840:21846   */\n      dup6\n        /* \"#utility.yul\":21796:21867   */\n      tag_709\n      jump\t// in\n    tag_769:\n        /* \"#utility.yul\":21877:21949   */\n      tag_770\n        /* \"#utility.yul\":21945:21947   */\n      0x20\n        /* \"#utility.yul\":21934:21943   */\n      dup4\n        /* \"#utility.yul\":21930:21948   */\n      add\n        /* \"#utility.yul\":21921:21927   */\n      dup5\n        /* \"#utility.yul\":21877:21949   */\n      tag_709\n      jump\t// in\n    tag_770:\n        /* \"#utility.yul\":21624:21956   */\n      swap4\n      swap3\n      pop\n      pop\n      pop\n      jump\t// out\n        /* \"#utility.yul\":22043:22141   */\n    tag_624:\n        /* \"#utility.yul\":22094:22100   */\n      0x00\n        /* \"#utility.yul\":22128:22133   */\n      dup2\n        /* \"#utility.yul\":22122:22134   */\n      mload\n        /* \"#utility.yul\":22112:22134   */\n      swap1\n      pop\n        /* \"#utility.yul\":22043:22141   */\n      swap2\n      swap1\n      pop\n      jump\t// out\n        /* \"#utility.yul\":22147:22246   */\n    tag_648:\n        /* \"#utility.yul\":22199:22205   */\n      0x00\n        /* \"#utility.yul\":22233:22238   */\n      dup2\n        /* \"#utility.yul\":22227:22239   */\n      mload\n        /* \"#utility.yul\":22217:22239   */\n      swap1\n      pop\n        /* \"#utility.yul\":22147:22246   */\n      swap2\n      swap1\n      pop\n      jump\t// out\n        /* \"#utility.yul\":22252:22399   */\n    tag_626:\n        /* \"#utility.yul\":22353:22364   */\n      0x00\n        /* \"#utility.yul\":22390:22393   */\n      dup2\n        /* \"#utility.yul\":22375:22393   */\n      swap1\n      pop\n        /* \"#utility.yul\":22252:22399   */\n      swap3\n      swap2\n      pop\n      pop\n      jump\t// out\n        /* \"#utility.yul\":22405:22574   */\n    tag_650:\n        /* \"#utility.yul\":22489:22500   */\n      0x00\n        /* \"#utility.yul\":22523:22529   */\n      dup3\n        /* \"#utility.yul\":22518:22521   */\n      dup3\n        /* \"#utility.yul\":22511:22530   */\n      mstore\n        /* \"#utility.yul\":22563:22567   */\n      0x20\n        /* \"#utility.yul\":22558:22561   */\n      dup3\n        /* \"#utility.yul\":22554:22568   */\n      add\n        /* \"#utility.yul\":22539:22568   */\n      swap1\n      pop\n        /* \"#utility.yul\":22405:22574   */\n      swap3\n      swap2\n      pop\n      pop\n      jump\t// out\n        /* \"#utility.yul\":22580:22885   */\n    tag_461:\n        /* \"#utility.yul\":22620:22623   */\n      0x00\n        /* \"#utility.yul\":22639:22659   */\n      tag_778\n        /* \"#utility.yul\":22657:22658   */\n      dup3\n        /* \"#utility.yul\":22639:22659   */\n      tag_712\n      jump\t// in\n    tag_778:\n        /* \"#utility.yul\":22634:22659   */\n      swap2\n      pop\n        /* \"#utility.yul\":22673:22693   */\n      tag_779\n        /* \"#utility.yul\":22691:22692   */\n      dup4\n        /* \"#utility.yul\":22673:22693   */\n      tag_712\n      jump\t// in\n    tag_779:\n        /* \"#utility.yul\":22668:22693   */\n      swap3\n      pop\n        /* \"#utility.yul\":22827:22828   */\n      dup3\n        /* \"#utility.yul\":22759:22825   */\n      0xffffffffffffffffffffffffffffffffffffffffffffffffffffffffffffffff\n        /* \"#utility.yul\":22755:22829   */\n      sub\n        /* \"#utility.yul\":22752:22753   */\n      dup3\n        /* \"#utility.yul\":22749:22830   */\n      gt\n        /* \"#utility.yul\":22746:22853   */\n      iszero\n      tag_780\n      jumpi\n        /* \"#utility.yul\":22833:22851   */\n      tag_781\n      tag_782\n      jump\t// in\n    tag_781:\n        /* \"#utility.yul\":22746:22853   */\n    tag_780:\n        /* \"#utility.yul\":22877:22878   */\n      dup3\n        /* \"#utility.yul\":22874:22875   */\n      dup3\n        /* \"#utility.yul\":22870:22879   */\n      add\n        /* \"#utility.yul\":22863:22879   */\n      swap1\n      pop\n        /* \"#utility.yul\":22580:22885   */\n      swap3\n      swap2\n      pop\n      pop\n      jump\t// out\n        /* \"#utility.yul\":22891:23076   */\n    tag_426:\n        /* \"#utility.yul\":22931:22932   */\n      0x00\n        /* \"#utility.yul\":22948:22968   */\n      tag_784\n        /* \"#utility.yul\":22966:22967   */\n      dup3\n        /* \"#utility.yul\":22948:22968   */\n      tag_712\n      jump\t// in\n    tag_784:\n        /* \"#utility.yul\":22943:22968   */\n      swap2\n      pop\n        /* \"#utility.yul\":22982:23002   */\n      tag_785\n        /* \"#utility.yul\":23000:23001   */\n      dup4\n        /* \"#utility.yul\":22982:23002   */\n      tag_712\n      jump\t// in\n    tag_785:\n        /* \"#utility.yul\":22977:23002   */\n      swap3\n      pop\n        /* \"#utility.yul\":23021:23022   */\n      dup3\n        /* \"#utility.yul\":23011:23046   */\n      tag_786\n      jumpi\n        /* \"#utility.yul\":23026:23044   */\n      tag_787\n      tag_788\n      jump\t// in\n    tag_787:\n        /* \"#utility.yul\":23011:23046   */\n    tag_786:\n        /* \"#utility.yul\":23068:23069   */\n      dup3\n        /* \"#utility.yul\":23065:23066   */\n      dup3\n        /* \"#utility.yul\":23061:23070   */\n      div\n        /* \"#utility.yul\":23056:23070   */\n      swap1\n      pop\n        /* \"#utility.yul\":22891:23076   */\n      swap3\n      swap2\n      pop\n      pop\n      jump\t// out\n        /* \"#utility.yul\":23082:23430   */\n    tag_424:\n        /* \"#utility.yul\":23122:23129   */\n      0x00\n        /* \"#utility.yul\":23145:23165   */\n      tag_790\n        /* \"#utility.yul\":23163:23164   */\n      dup3\n        /* \"#utility.yul\":23145:23165   */\n      tag_712\n      jump\t// in\n    tag_790:\n        /* \"#utility.yul\":23140:23165   */\n      swap2\n      pop\n        /* \"#utility.yul\":23179:23199   */\n      tag_791\n        /* \"#utility.yul\":23197:23198   */\n      dup4\n        /* \"#utility.yul\":23179:23199   */\n      tag_712\n      jump\t// in\n    tag_791:\n        /* \"#utility.yul\":23174:23199   */\n      swap3\n      pop\n        /* \"#utility.yul\":23367:23368   */\n      dup2\n        /* \"#utility.yul\":23299:23365   */\n      0xffffffffffffffffffffffffffffffffffffffffffffffffffffffffffffffff\n        /* \"#utility.yul\":23295:23369   */\n      div\n        /* \"#utility.yul\":23292:23293   */\n      dup4\n        /* \"#utility.yul\":23289:23370   */\n      gt\n        /* \"#utility.yul\":23284:23285   */\n      dup3\n        /* \"#utility.yul\":23277:23286   */\n      iszero\n        /* \"#utility.yul\":23270:23287   */\n      iszero\n        /* \"#utility.yul\":23266:23371   */\n      and\n        /* \"#utility.yul\":23263:23394   */\n      iszero\n      tag_792\n      jumpi\n        /* \"#utility.yul\":23374:23392   */\n      tag_793\n      tag_782\n      jump\t// in\n    tag_793:\n        /* \"#utility.yul\":23263:23394   */\n    tag_792:\n        /* \"#utility.yul\":23422:23423   */\n      dup3\n        /* \"#utility.yul\":23419:23420   */\n      dup3\n        /* \"#utility.yul\":23415:23424   */\n      mul\n        /* \"#utility.yul\":23404:23424   */\n      swap1\n      pop\n        /* \"#utility.yul\":23082:23430   */\n      swap3\n      swap2\n      pop\n      pop\n      jump\t// out\n        /* \"#utility.yul\":23436:23627   */\n    tag_491:\n        /* \"#utility.yul\":23476:23480   */\n      0x00\n        /* \"#utility.yul\":23496:23516   */\n      tag_795\n        /* \"#utility.yul\":23514:23515   */\n      dup3\n        /* \"#utility.yul\":23496:23516   */\n      tag_712\n      jump\t// in\n    tag_795:\n        /* \"#utility.yul\":23491:23516   */\n      swap2\n      pop\n        /* \"#utility.yul\":23530:23550   */\n      tag_796\n        /* \"#utility.yul\":23548:23549   */\n      dup4\n        /* \"#utility.yul\":23530:23550   */\n      tag_712\n      jump\t// in\n    tag_796:\n        /* \"#utility.yul\":23525:23550   */\n      swap3\n      pop\n        /* \"#utility.yul\":23569:23570   */\n      dup3\n        /* \"#utility.yul\":23566:23567   */\n      dup3\n        /* \"#utility.yul\":23563:23571   */\n      lt\n        /* \"#utility.yul\":23560:23594   */\n      iszero\n      tag_797\n      jumpi\n        /* \"#utility.yul\":23574:23592   */\n      tag_798\n      tag_782\n      jump\t// in\n    tag_798:\n        /* \"#utility.yul\":23560:23594   */\n    tag_797:\n        /* \"#utility.yul\":23619:23620   */\n      dup3\n        /* \"#utility.yul\":23616:23617   */\n      dup3\n        /* \"#utility.yul\":23612:23621   */\n      sub\n        /* \"#utility.yul\":23604:23621   */\n      swap1\n      pop\n        /* \"#utility.yul\":23436:23627   */\n      swap3\n      swap2\n      pop\n      pop\n      jump\t// out\n        /* \"#utility.yul\":23633:23729   */\n    tag_620:\n        /* \"#utility.yul\":23670:23677   */\n      0x00\n        /* \"#utility.yul\":23699:23723   */\n      tag_800\n        /* \"#utility.yul\":23717:23722   */\n      dup3\n        /* \"#utility.yul\":23699:23723   */\n      tag_801\n      jump\t// in\n    tag_800:\n        /* \"#utility.yul\":23688:23723   */\n      swap1\n      pop\n        /* \"#utility.yul\":23633:23729   */\n      swap2\n      swap1\n      pop\n      jump\t// out\n        /* \"#utility.yul\":23735:23825   */\n    tag_802:\n        /* \"#utility.yul\":23769:23776   */\n      0x00\n        /* \"#utility.yul\":23812:23817   */\n      dup2\n        /* \"#utility.yul\":23805:23818   */\n      iszero\n        /* \"#utility.yul\":23798:23819   */\n      iszero\n        /* \"#utility.yul\":23787:23819   */\n      swap1\n      pop\n        /* \"#utility.yul\":23735:23825   */\n      swap2\n      swap1\n      pop\n      jump\t// out\n        /* \"#utility.yul\":23831:23941   */\n    tag_804:\n        /* \"#utility.yul\":23882:23889   */\n      0x00\n        /* \"#utility.yul\":23911:23935   */\n      tag_806\n        /* \"#utility.yul\":23929:23934   */\n      dup3\n        /* \"#utility.yul\":23911:23935   */\n      tag_620\n      jump\t// in\n    tag_806:\n        /* \"#utility.yul\":23900:23935   */\n      swap1\n      pop\n        /* \"#utility.yul\":23831:23941   */\n      swap2\n      swap1\n      pop\n      jump\t// out\n        /* \"#utility.yul\":23947:24062   */\n    tag_807:\n        /* \"#utility.yul\":24003:24010   */\n      0x00\n        /* \"#utility.yul\":24032:24056   */\n      tag_809\n        /* \"#utility.yul\":24050:24055   */\n      dup3\n        /* \"#utility.yul\":24032:24056   */\n      tag_620\n      jump\t// in\n    tag_809:\n        /* \"#utility.yul\":24021:24056   */\n      swap1\n      pop\n        /* \"#utility.yul\":23947:24062   */\n      swap2\n      swap1\n      pop\n      jump\t// out\n        /* \"#utility.yul\":24068:24185   */\n    tag_810:\n        /* \"#utility.yul\":24126:24133   */\n      0x00\n        /* \"#utility.yul\":24155:24179   */\n      tag_812\n        /* \"#utility.yul\":24173:24178   */\n      dup3\n        /* \"#utility.yul\":24155:24179   */\n      tag_620\n      jump\t// in\n    tag_812:\n        /* \"#utility.yul\":24144:24179   */\n      swap1\n      pop\n        /* \"#utility.yul\":24068:24185   */\n      swap2\n      swap1\n      pop\n      jump\t// out\n        /* \"#utility.yul\":24191:24317   */\n    tag_801:\n        /* \"#utility.yul\":24228:24235   */\n      0x00\n        /* \"#utility.yul\":24268:24310   */\n      0xffffffffffffffffffffffffffffffffffffffff\n        /* \"#utility.yul\":24261:24266   */\n      dup3\n        /* \"#utility.yul\":24257:24311   */\n      and\n        /* \"#utility.yul\":24246:24311   */\n      swap1\n      pop\n        /* \"#utility.yul\":24191:24317   */\n      swap2\n      swap1\n      pop\n      jump\t// out\n        /* \"#utility.yul\":24323:24400   */\n    tag_712:\n        /* \"#utility.yul\":24360:24367   */\n      0x00\n        /* \"#utility.yul\":24389:24394   */\n      dup2\n        /* \"#utility.yul\":24378:24394   */\n      swap1\n      pop\n        /* \"#utility.yul\":24323:24400   */\n      swap2\n      swap1\n      pop\n      jump\t// out\n        /* \"#utility.yul\":24406:24546   */\n    tag_632:\n        /* \"#utility.yul\":24470:24479   */\n      0x00\n        /* \"#utility.yul\":24503:24540   */\n      tag_816\n        /* \"#utility.yul\":24534:24539   */\n      dup3\n        /* \"#utility.yul\":24503:24540   */\n      tag_817\n      jump\t// in\n    tag_816:\n        /* \"#utility.yul\":24490:24540   */\n      swap1\n      pop\n        /* \"#utility.yul\":24406:24546   */\n      swap2\n      swap1\n      pop\n      jump\t// out\n        /* \"#utility.yul\":24552:24697   */\n    tag_636:\n        /* \"#utility.yul\":24621:24630   */\n      0x00\n        /* \"#utility.yul\":24654:24691   */\n      tag_819\n        /* \"#utility.yul\":24685:24690   */\n      dup3\n        /* \"#utility.yul\":24654:24691   */\n      tag_817\n      jump\t// in\n    tag_819:\n        /* \"#utility.yul\":24641:24691   */\n      swap1\n      pop\n        /* \"#utility.yul\":24552:24697   */\n      swap2\n      swap1\n      pop\n      jump\t// out\n        /* \"#utility.yul\":24703:24850   */\n    tag_640:\n        /* \"#utility.yul\":24774:24783   */\n      0x00\n        /* \"#utility.yul\":24807:24844   */\n      tag_821\n        /* \"#utility.yul\":24838:24843   */\n      dup3\n        /* \"#utility.yul\":24807:24844   */\n      tag_817\n      jump\t// in\n    tag_821:\n        /* \"#utility.yul\":24794:24844   */\n      swap1\n      pop\n        /* \"#utility.yul\":24703:24850   */\n      swap2\n      swap1\n      pop\n      jump\t// out\n        /* \"#utility.yul\":24856:25004   */\n    tag_644:\n        /* \"#utility.yul\":24928:24937   */\n      0x00\n        /* \"#utility.yul\":24961:24998   */\n      tag_823\n        /* \"#utility.yul\":24992:24997   */\n      dup3\n        /* \"#utility.yul\":24961:24998   */\n      tag_817\n      jump\t// in\n    tag_823:\n        /* \"#utility.yul\":24948:24998   */\n      swap1\n      pop\n        /* \"#utility.yul\":24856:25004   */\n      swap2\n      swap1\n      pop\n      jump\t// out\n        /* \"#utility.yul\":25010:25136   */\n    tag_817:\n        /* \"#utility.yul\":25060:25069   */\n      0x00\n        /* \"#utility.yul\":25093:25130   */\n      tag_825\n        /* \"#utility.yul\":25124:25129   */\n      dup3\n        /* \"#utility.yul\":25093:25130   */\n      tag_826\n      jump\t// in\n    tag_825:\n        /* \"#utility.yul\":25080:25130   */\n      swap1\n      pop\n        /* \"#utility.yul\":25010:25136   */\n      swap2\n      swap1\n      pop\n      jump\t// out\n        /* \"#utility.yul\":25142:25255   */\n    tag_826:\n        /* \"#utility.yul\":25192:25201   */\n      0x00\n        /* \"#utility.yul\":25225:25249   */\n      tag_828\n        /* \"#utility.yul\":25243:25248   */\n      dup3\n        /* \"#utility.yul\":25225:25249   */\n      tag_801\n      jump\t// in\n    tag_828:\n        /* \"#utility.yul\":25212:25249   */\n      swap1\n      pop\n        /* \"#utility.yul\":25142:25255   */\n      swap2\n      swap1\n      pop\n      jump\t// out\n        /* \"#utility.yul\":25261:25568   */\n    tag_628:\n        /* \"#utility.yul\":25329:25330   */\n      0x00\n        /* \"#utility.yul\":25339:25452   */\n    tag_830:\n        /* \"#utility.yul\":25353:25359   */\n      dup4\n        /* \"#utility.yul\":25350:25351   */\n      dup2\n        /* \"#utility.yul\":25347:25360   */\n      lt\n        /* \"#utility.yul\":25339:25452   */\n      iszero\n      tag_832\n      jumpi\n        /* \"#utility.yul\":25438:25439   */\n      dup1\n        /* \"#utility.yul\":25433:25436   */\n      dup3\n        /* \"#utility.yul\":25429:25440   */\n      add\n        /* \"#utility.yul\":25423:25441   */\n      mload\n        /* \"#utility.yul\":25419:25420   */\n      dup2\n        /* \"#utility.yul\":25414:25417   */\n      dup5\n        /* \"#utility.yul\":25410:25421   */\n      add\n        /* \"#utility.yul\":25403:25442   */\n      mstore\n        /* \"#utility.yul\":25375:25377   */\n      0x20\n        /* \"#utility.yul\":25372:25373   */\n      dup2\n        /* \"#utility.yul\":25368:25378   */\n      add\n        /* \"#utility.yul\":25363:25378   */\n      swap1\n      pop\n        /* \"#utility.yul\":25339:25452   */\n      jump(tag_830)\n    tag_832:\n        /* \"#utility.yul\":25470:25476   */\n      dup4\n        /* \"#utility.yul\":25467:25468   */\n      dup2\n        /* \"#utility.yul\":25464:25477   */\n      gt\n        /* \"#utility.yul\":25461:25562   */\n      iszero\n      tag_833\n      jumpi\n        /* \"#utility.yul\":25550:25551   */\n      0x00\n        /* \"#utility.yul\":25541:25547   */\n      dup5\n        /* \"#utility.yul\":25536:25539   */\n      dup5\n        /* \"#utility.yul\":25532:25548   */\n      add\n        /* \"#utility.yul\":25525:25552   */\n      mstore\n        /* \"#utility.yul\":25461:25562   */\n    tag_833:\n        /* \"#utility.yul\":25310:25568   */\n      pop\n        /* \"#utility.yul\":25261:25568   */\n      pop\n      pop\n      pop\n      jump\t// out\n        /* \"#utility.yul\":25574:25807   */\n    tag_301:\n        /* \"#utility.yul\":25613:25616   */\n      0x00\n        /* \"#utility.yul\":25636:25660   */\n      tag_835\n        /* \"#utility.yul\":25654:25659   */\n      dup3\n        /* \"#utility.yul\":25636:25660   */\n      tag_712\n      jump\t// in\n    tag_835:\n        /* \"#utility.yul\":25627:25660   */\n      swap2\n      pop\n        /* \"#utility.yul\":25682:25748   */\n      0xffffffffffffffffffffffffffffffffffffffffffffffffffffffffffffffff\n        /* \"#utility.yul\":25675:25680   */\n      dup3\n        /* \"#utility.yul\":25672:25749   */\n      eq\n        /* \"#utility.yul\":25669:25772   */\n      iszero\n      tag_836\n      jumpi\n        /* \"#utility.yul\":25752:25770   */\n      tag_837\n      tag_782\n      jump\t// in\n    tag_837:\n        /* \"#utility.yul\":25669:25772   */\n    tag_836:\n        /* \"#utility.yul\":25799:25800   */\n      0x01\n        /* \"#utility.yul\":25792:25797   */\n      dup3\n        /* \"#utility.yul\":25788:25801   */\n      add\n        /* \"#utility.yul\":25781:25801   */\n      swap1\n      pop\n        /* \"#utility.yul\":25574:25807   */\n      swap2\n      swap1\n      pop\n      jump\t// out\n        /* \"#utility.yul\":25813:25993   */\n    tag_782:\n        /* \"#utility.yul\":25861:25938   */\n      0x4e487b7100000000000000000000000000000000000000000000000000000000\n        /* \"#utility.yul\":25858:25859   */\n      0x00\n        /* \"#utility.yul\":25851:25939   */\n      mstore\n        /* \"#utility.yul\":25958:25962   */\n      0x11\n        /* \"#utility.yul\":25955:25956   */\n      0x04\n        /* \"#utility.yul\":25948:25963   */\n      mstore\n        /* \"#utility.yul\":25982:25986   */\n      0x24\n        /* \"#utility.yul\":25979:25980   */\n      0x00\n        /* \"#utility.yul\":25972:25987   */\n      revert\n        /* \"#utility.yul\":25999:26179   */\n    tag_788:\n        /* \"#utility.yul\":26047:26124   */\n      0x4e487b7100000000000000000000000000000000000000000000000000000000\n        /* \"#utility.yul\":26044:26045   */\n      0x00\n        /* \"#utility.yul\":26037:26125   */\n      mstore\n        /* \"#utility.yul\":26144:26148   */\n      0x12\n        /* \"#utility.yul\":26141:26142   */\n      0x04\n        /* \"#utility.yul\":26134:26149   */\n      mstore\n        /* \"#utility.yul\":26168:26172   */\n      0x24\n        /* \"#utility.yul\":26165:26166   */\n      0x00\n        /* \"#utility.yul\":26158:26173   */\n      revert\n        /* \"#utility.yul\":26185:26365   */\n    tag_155:\n        /* \"#utility.yul\":26233:26310   */\n      0x4e487b7100000000000000000000000000000000000000000000000000000000\n        /* \"#utility.yul\":26230:26231   */\n      0x00\n        /* \"#utility.yul\":26223:26311   */\n      mstore\n        /* \"#utility.yul\":26330:26334   */\n      0x32\n        /* \"#utility.yul\":26327:26328   */\n      0x04\n        /* \"#utility.yul\":26320:26335   */\n      mstore\n        /* \"#utility.yul\":26354:26358   */\n      0x24\n        /* \"#utility.yul\":26351:26352   */\n      0x00\n        /* \"#utility.yul\":26344:26359   */\n      revert\n        /* \"#utility.yul\":26494:26611   */\n    tag_563:\n        /* \"#utility.yul\":26603:26604   */\n      0x00\n        /* \"#utility.yul\":26600:26601   */\n      dup1\n        /* \"#utility.yul\":26593:26605   */\n      revert\n        /* \"#utility.yul\":26617:26719   */\n    tag_653:\n        /* \"#utility.yul\":26658:26664   */\n      0x00\n        /* \"#utility.yul\":26709:26711   */\n      0x1f\n        /* \"#utility.yul\":26705:26712   */\n      not\n        /* \"#utility.yul\":26700:26702   */\n      0x1f\n        /* \"#utility.yul\":26693:26698   */\n      dup4\n        /* \"#utility.yul\":26689:26703   */\n      add\n        /* \"#utility.yul\":26685:26713   */\n      and\n        /* \"#utility.yul\":26675:26713   */\n      swap1\n      pop\n        /* \"#utility.yul\":26617:26719   */\n      swap2\n      swap1\n      pop\n      jump\t// out\n        /* \"#utility.yul\":26725:26950   */\n    tag_658:\n        /* \"#utility.yul\":26865:26899   */\n      0x4f776e61626c653a206e6577206f776e657220697320746865207a65726f2061\n        /* \"#utility.yul\":26861:26862   */\n      0x00\n        /* \"#utility.yul\":26853:26859   */\n      dup3\n        /* \"#utility.yul\":26849:26863   */\n      add\n        /* \"#utility.yul\":26842:26900   */\n      mstore\n        /* \"#utility.yul\":26934:26942   */\n      0x6464726573730000000000000000000000000000000000000000000000000000\n        /* \"#utility.yul\":26929:26931   */\n      0x20\n        /* \"#utility.yul\":26921:26927   */\n      dup3\n        /* \"#utility.yul\":26917:26932   */\n      add\n        /* \"#utility.yul\":26910:26943   */\n      mstore\n        /* \"#utility.yul\":26725:26950   */\n      pop\n      jump\t// out\n        /* \"#utility.yul\":26956:27133   */\n    tag_663:\n        /* \"#utility.yul\":27096:27125   */\n      0x536166654d6174683a206164646974696f6e206f766572666c6f770000000000\n        /* \"#utility.yul\":27092:27093   */\n      0x00\n        /* \"#utility.yul\":27084:27090   */\n      dup3\n        /* \"#utility.yul\":27080:27094   */\n      add\n        /* \"#utility.yul\":27073:27126   */\n      mstore\n        /* \"#utility.yul\":26956:27133   */\n      pop\n      jump\t// out\n        /* \"#utility.yul\":27139:27364   */\n    tag_668:\n        /* \"#utility.yul\":27279:27313   */\n      0x416464726573733a20696e73756666696369656e742062616c616e636520666f\n        /* \"#utility.yul\":27275:27276   */\n      0x00\n        /* \"#utility.yul\":27267:27273   */\n      dup3\n        /* \"#utility.yul\":27263:27277   */\n      add\n        /* \"#utility.yul\":27256:27314   */\n      mstore\n        /* \"#utility.yul\":27348:27356   */\n      0x722063616c6c0000000000000000000000000000000000000000000000000000\n        /* \"#utility.yul\":27343:27345   */\n      0x20\n        /* \"#utility.yul\":27335:27341   */\n      dup3\n        /* \"#utility.yul\":27331:27346   */\n      add\n        /* \"#utility.yul\":27324:27357   */\n      mstore\n        /* \"#utility.yul\":27139:27364   */\n      pop\n      jump\t// out\n        /* \"#utility.yul\":27370:27590   */\n    tag_673:\n        /* \"#utility.yul\":27510:27544   */\n      0x536166654d6174683a206d756c7469706c69636174696f6e206f766572666c6f\n        /* \"#utility.yul\":27506:27507   */\n      0x00\n        /* \"#utility.yul\":27498:27504   */\n      dup3\n        /* \"#utility.yul\":27494:27508   */\n      add\n        /* \"#utility.yul\":27487:27545   */\n      mstore\n        /* \"#utility.yul\":27579:27582   */\n      0x7700000000000000000000000000000000000000000000000000000000000000\n        /* \"#utility.yul\":27574:27576   */\n      0x20\n        /* \"#utility.yul\":27566:27572   */\n      dup3\n        /* \"#utility.yul\":27562:27577   */\n      add\n        /* \"#utility.yul\":27555:27583   */\n      mstore\n        /* \"#utility.yul\":27370:27590   */\n      pop\n      jump\t// out\n        /* \"#utility.yul\":27596:27778   */\n    tag_678:\n        /* \"#utility.yul\":27736:27770   */\n      0x4f776e61626c653a2063616c6c6572206973206e6f7420746865206f776e6572\n        /* \"#utility.yul\":27732:27733   */\n      0x00\n        /* \"#utility.yul\":27724:27730   */\n      dup3\n        /* \"#utility.yul\":27720:27734   */\n      add\n        /* \"#utility.yul\":27713:27771   */\n      mstore\n        /* \"#utility.yul\":27596:27778   */\n      pop\n      jump\t// out\n        /* \"#utility.yul\":27784:27963   */\n    tag_683:\n        /* \"#utility.yul\":27924:27955   */\n      0x416464726573733a2063616c6c20746f206e6f6e2d636f6e7472616374000000\n        /* \"#utility.yul\":27920:27921   */\n      0x00\n        /* \"#utility.yul\":27912:27918   */\n      dup3\n        /* \"#utility.yul\":27908:27922   */\n      add\n        /* \"#utility.yul\":27901:27956   */\n      mstore\n        /* \"#utility.yul\":27784:27963   */\n      pop\n      jump\t// out\n        /* \"#utility.yul\":27969:28137   */\n    tag_688:\n        /* \"#utility.yul\":28109:28129   */\n      0x77697468647261773a206e6f7420676f6f640000000000000000000000000000\n        /* \"#utility.yul\":28105:28106   */\n      0x00\n        /* \"#utility.yul\":28097:28103   */\n      dup3\n        /* \"#utility.yul\":28093:28107   */\n      add\n        /* \"#utility.yul\":28086:28130   */\n      mstore\n        /* \"#utility.yul\":27969:28137   */\n      pop\n      jump\t// out\n        /* \"#utility.yul\":28143:28372   */\n    tag_693:\n        /* \"#utility.yul\":28283:28317   */\n      0x5361666545524332303a204552433230206f7065726174696f6e20646964206e\n        /* \"#utility.yul\":28279:28280   */\n      0x00\n        /* \"#utility.yul\":28271:28277   */\n      dup3\n        /* \"#utility.yul\":28267:28281   */\n      add\n        /* \"#utility.yul\":28260:28318   */\n      mstore\n        /* \"#utility.yul\":28352:28364   */\n      0x6f74207375636365656400000000000000000000000000000000000000000000\n        /* \"#utility.yul\":28347:28349   */\n      0x20\n        /* \"#utility.yul\":28339:28345   */\n      dup3\n        /* \"#utility.yul\":28335:28350   */\n      add\n        /* \"#utility.yul\":28328:28365   */\n      mstore\n        /* \"#utility.yul\":28143:28372   */\n      pop\n      jump\t// out\n        /* \"#utility.yul\":28378:28540   */\n    tag_698:\n        /* \"#utility.yul\":28518:28532   */\n      0x6d6967726174653a206261640000000000000000000000000000000000000000\n        /* \"#utility.yul\":28514:28515   */\n      0x00\n        /* \"#utility.yul\":28506:28512   */\n      dup3\n        /* \"#utility.yul\":28502:28516   */\n      add\n        /* \"#utility.yul\":28495:28533   */\n      mstore\n        /* \"#utility.yul\":28378:28540   */\n      pop\n      jump\t// out\n        /* \"#utility.yul\":28546:28787   */\n    tag_703:\n        /* \"#utility.yul\":28686:28720   */\n      0x5361666545524332303a20617070726f76652066726f6d206e6f6e2d7a65726f\n        /* \"#utility.yul\":28682:28683   */\n      0x00\n        /* \"#utility.yul\":28674:28680   */\n      dup3\n        /* \"#utility.yul\":28670:28684   */\n      add\n        /* \"#utility.yul\":28663:28721   */\n      mstore\n        /* \"#utility.yul\":28755:28779   */\n      0x20746f206e6f6e2d7a65726f20616c6c6f77616e636500000000000000000000\n        /* \"#utility.yul\":28750:28752   */\n      0x20\n        /* \"#utility.yul\":28742:28748   */\n      dup3\n        /* \"#utility.yul\":28738:28753   */\n      add\n        /* \"#utility.yul\":28731:28780   */\n      mstore\n        /* \"#utility.yul\":28546:28787   */\n      pop\n      jump\t// out\n        /* \"#utility.yul\":28793:28963   */\n    tag_708:\n        /* \"#utility.yul\":28933:28955   */\n      0x6d6967726174653a206e6f206d69677261746f72000000000000000000000000\n        /* \"#utility.yul\":28929:28930   */\n      0x00\n        /* \"#utility.yul\":28921:28927   */\n      dup3\n        /* \"#utility.yul\":28917:28931   */\n      add\n        /* \"#utility.yul\":28910:28956   */\n      mstore\n        /* \"#utility.yul\":28793:28963   */\n      pop\n      jump\t// out\n        /* \"#utility.yul\":28969:29091   */\n    tag_530:\n        /* \"#utility.yul\":29042:29066   */\n      tag_857\n        /* \"#utility.yul\":29060:29065   */\n      dup2\n        /* \"#utility.yul\":29042:29066   */\n      tag_620\n      jump\t// in\n    tag_857:\n        /* \"#utility.yul\":29035:29040   */\n      dup2\n        /* \"#utility.yul\":29032:29067   */\n      eq\n        /* \"#utility.yul\":29022:29085   */\n      tag_858\n      jumpi\n        /* \"#utility.yul\":29081:29082   */\n      0x00\n        /* \"#utility.yul\":29078:29079   */\n      dup1\n        /* \"#utility.yul\":29071:29083   */\n      revert\n        /* \"#utility.yul\":29022:29085   */\n    tag_858:\n        /* \"#utility.yul\":28969:29091   */\n      pop\n      jump\t// out\n        /* \"#utility.yul\":29097:29213   */\n    tag_534:\n        /* \"#utility.yul\":29167:29188   */\n      tag_860\n        /* \"#utility.yul\":29182:29187   */\n      dup2\n        /* \"#utility.yul\":29167:29188   */\n      tag_802\n      jump\t// in\n    tag_860:\n        /* \"#utility.yul\":29160:29165   */\n      dup2\n        /* \"#utility.yul\":29157:29189   */\n      eq\n        /* \"#utility.yul\":29147:29207   */\n      tag_861\n      jumpi\n        /* \"#utility.yul\":29203:29204   */\n      0x00\n        /* \"#utility.yul\":29200:29201   */\n      dup1\n        /* \"#utility.yul\":29193:29205   */\n      revert\n        /* \"#utility.yul\":29147:29207   */\n    tag_861:\n        /* \"#utility.yul\":29097:29213   */\n      pop\n      jump\t// out\n        /* \"#utility.yul\":29219:29369   */\n    tag_541:\n        /* \"#utility.yul\":29306:29344   */\n      tag_863\n        /* \"#utility.yul\":29338:29343   */\n      dup2\n        /* \"#utility.yul\":29306:29344   */\n      tag_804\n      jump\t// in\n    tag_863:\n        /* \"#utility.yul\":29299:29304   */\n      dup2\n        /* \"#utility.yul\":29296:29345   */\n      eq\n        /* \"#utility.yul\":29286:29363   */\n      tag_864\n      jumpi\n        /* \"#utility.yul\":29359:29360   */\n      0x00\n        /* \"#utility.yul\":29356:29357   */\n      dup1\n        /* \"#utility.yul\":29349:29361   */\n      revert\n        /* \"#utility.yul\":29286:29363   */\n    tag_864:\n        /* \"#utility.yul\":29219:29369   */\n      pop\n      jump\t// out\n        /* \"#utility.yul\":29375:29535   */\n    tag_548:\n        /* \"#utility.yul\":29467:29510   */\n      tag_866\n        /* \"#utility.yul\":29504:29509   */\n      dup2\n        /* \"#utility.yul\":29467:29510   */\n      tag_807\n      jump\t// in\n    tag_866:\n        /* \"#utility.yul\":29460:29465   */\n      dup2\n        /* \"#utility.yul\":29457:29511   */\n      eq\n        /* \"#utility.yul\":29447:29529   */\n      tag_867\n      jumpi\n        /* \"#utility.yul\":29525:29526   */\n      0x00\n        /* \"#utility.yul\":29522:29523   */\n      dup1\n        /* \"#utility.yul\":29515:29527   */\n      revert\n        /* \"#utility.yul\":29447:29529   */\n    tag_867:\n        /* \"#utility.yul\":29375:29535   */\n      pop\n      jump\t// out\n        /* \"#utility.yul\":29541:29705   */\n    tag_552:\n        /* \"#utility.yul\":29635:29680   */\n      tag_869\n        /* \"#utility.yul\":29674:29679   */\n      dup2\n        /* \"#utility.yul\":29635:29680   */\n      tag_810\n      jump\t// in\n    tag_869:\n        /* \"#utility.yul\":29628:29633   */\n      dup2\n        /* \"#utility.yul\":29625:29681   */\n      eq\n        /* \"#utility.yul\":29615:29699   */\n      tag_870\n      jumpi\n        /* \"#utility.yul\":29695:29696   */\n      0x00\n        /* \"#utility.yul\":29692:29693   */\n      dup1\n        /* \"#utility.yul\":29685:29697   */\n      revert\n        /* \"#utility.yul\":29615:29699   */\n    tag_870:\n        /* \"#utility.yul\":29541:29705   */\n      pop\n      jump\t// out\n        /* \"#utility.yul\":29711:29833   */\n    tag_556:\n        /* \"#utility.yul\":29784:29808   */\n      tag_872\n        /* \"#utility.yul\":29802:29807   */\n      dup2\n        /* \"#utility.yul\":29784:29808   */\n      tag_712\n      jump\t// in\n    tag_872:\n        /* \"#utility.yul\":29777:29782   */\n      dup2\n        /* \"#utility.yul\":29774:29809   */\n      eq\n        /* \"#utility.yul\":29764:29827   */\n      tag_873\n      jumpi\n        /* \"#utility.yul\":29823:29824   */\n      0x00\n        /* \"#utility.yul\":29820:29821   */\n      dup1\n        /* \"#utility.yul\":29813:29825   */\n      revert\n        /* \"#utility.yul\":29764:29827   */\n    tag_873:\n        /* \"#utility.yul\":29711:29833   */\n      pop\n      jump\t// out\n\n    auxdata: 0xa2646970667358221220dd0968d7623f230045ee292113f8779c09809a6786b80dd8fd648ef7198b5d0964736f6c63430008070033\n}\n",
				"bytecode": {
					"linkReferences": {},
					"object": "60806040526001600555600060095574446c3b15f9926687d2c40534fdb563ffffffffffff600c553480156200003457600080fd5b50604051620042b5380380620042b583398181016040528101906200005a91906200027e565b6200007a6200006e6200015660201b60201c565b6200015e60201b60201c565b84600260006101000a81548173ffffffffffffffffffffffffffffffffffffffff021916908373ffffffffffffffffffffffffffffffffffffffff16021790555083600360006101000a81548173ffffffffffffffffffffffffffffffffffffffff021916908373ffffffffffffffffffffffffffffffffffffffff1602179055508260048190555081600a8190555080600160006101000a81548173ffffffffffffffffffffffffffffffffffffffff021916908373ffffffffffffffffffffffffffffffffffffffff1602179055505050505050620003d9565b600033905090565b60008060009054906101000a900473ffffffffffffffffffffffffffffffffffffffff169050816000806101000a81548173ffffffffffffffffffffffffffffffffffffffff021916908373ffffffffffffffffffffffffffffffffffffffff1602179055508173ffffffffffffffffffffffffffffffffffffffff168173ffffffffffffffffffffffffffffffffffffffff167f8be0079c531659141344cd1fd0a4f28419497f9722a3daafe3b4186f6b6457e060405160405180910390a35050565b600081519050620002338162000371565b92915050565b6000815190506200024a816200038b565b92915050565b6000815190506200026181620003a5565b92915050565b6000815190506200027881620003bf565b92915050565b600080600080600060a086880312156200029d576200029c6200036c565b5b6000620002ad8882890162000239565b9550506020620002c08882890162000222565b9450506040620002d38882890162000267565b9350506060620002e68882890162000267565b9250506080620002f98882890162000250565b9150509295509295909350565b6000620003138262000342565b9050919050565b6000620003278262000306565b9050919050565b60006200033b8262000306565b9050919050565b600073ffffffffffffffffffffffffffffffffffffffff82169050919050565b6000819050919050565b600080fd5b6200037c8162000306565b81146200038857600080fd5b50565b62000396816200031a565b8114620003a257600080fd5b50565b620003b0816200032e565b8114620003bc57600080fd5b50565b620003ca8162000362565b8114620003d657600080fd5b50565b613ecc80620003e96000396000f3fe608060405234801561001057600080fd5b50600436106101e45760003560e01c8063649441931161010f57806393f1a40b116100a2578063d49e77cd11610071578063d49e77cd14610535578063e4d0989614610553578063eeac3ae814610571578063f2fde38b1461058d576101e4565b806393f1a40b146104ae578063a1eef821146104df578063a41fe49f146104fd578063d0d41fe114610519576101e4565b80637cd07e47116100de5780637cd07e47146104245780638aa28550146104425780638da5cb5b146104605780638dbb1e3a1461047e576101e4565b806364944193146103b257806368382a21146103ce5780636a6d964e146103ea578063715018a61461041a576101e4565b8063454b0608116101875780635312ea8e116101565780635312ea8e146103545780635ffe614614610370578063630b5ba11461038c57806364482f7914610396576101e4565b8063454b0608146102ce57806348cd4cb1146102ea5780634f17dbaf1461030857806351eb05a614610338576101e4565b8063141aa0ba116101c3578063141aa0ba1461023f5780631526fe271461025d57806317caf6f11461029457806323cf3118146102b2576101e4565b8062aeef8a146101e9578063081e3eda146102055780630fe7ea1714610223575b600080fd5b61020360048036038101906101fe9190613253565b6105a9565b005b61020d610bd7565b60405161021a91906137f7565b60405180910390f35b61023d60048036038101906102389190613084565b610be4565b005b610247610c6a565b60405161025491906135a6565b60405180910390f35b61027760048036038101906102729190613084565b610c90565b60405161028b9897969594939291906135c1565b60405180910390f35b61029c610d48565b6040516102a991906137f7565b60405180910390f35b6102cc60048036038101906102c79190613057565b610d4e565b005b6102e860048036038101906102e39190613084565b610e0e565b005b6102f2611119565b6040516102ff91906137f7565b60405180910390f35b610322600480360381019061031d91906130de565b61111f565b60405161032f91906137f7565b60405180910390f35b610352600480360381019061034d9190613084565b6112ba565b005b61036e60048036038101906103699190613084565b61147f565b005b61038a60048036038101906103859190613084565b6115b8565b005b61039461163e565b005b6103b060048036038101906103ab9190613200565b611671565b005b6103cc60048036038101906103c7919061311e565b61177d565b005b6103e860048036038101906103e39190613084565b6119f5565b005b61040460048036038101906103ff9190613084565b611b2a565b60405161041191906137f7565b60405180910390f35b610422611b42565b005b61042c611bca565b604051610439919061363f565b60405180910390f35b61044a611bf0565b60405161045791906137f7565b60405180910390f35b610468611bf6565b6040516104759190613502565b60405180910390f35b610498600480360381019061049391906131c0565b611c1f565b6040516104a591906137f7565b60405180910390f35b6104c860048036038101906104c391906130de565b611c50565b6040516104d6929190613812565b60405180910390f35b6104e7611c81565b6040516104f491906137f7565b60405180910390f35b61051760048036038101906105129190613253565b611c87565b005b610533600480360381019061052e9190612fd0565b61214d565b005b61053d61220d565b60405161054a9190613502565b60405180910390f35b61055b612233565b604051610568919061365a565b60405180910390f35b61058b60048036038101906105869190613084565b612259565b005b6105a760048036038101906105a29190612fd0565b61240f565b005b6000600784815481106105bf576105be613b46565b5b9060005260206000209060080201905060006008600086815260200190815260200160002060003373ffffffffffffffffffffffffffffffffffffffff1673ffffffffffffffffffffffffffffffffffffffff168152602001908152602001600020905061062c856112ba565b60008160000154111561069b576000610683826001015461067564e8d4a510006106678760030154876000015461250790919063ffffffff16565b61258290919063ffffffff16565b6125cc90919063ffffffff16565b90506000811115610699576106983382612616565b5b505b60008260000160009054906101000a900473ffffffffffffffffffffffffffffffffffffffff1673ffffffffffffffffffffffffffffffffffffffff1663dd62ed3e308560040160009054906101000a900473ffffffffffffffffffffffffffffffffffffffff166040518363ffffffff1660e01b815260040161072092919061351d565b60206040518083038186803b15801561073857600080fd5b505afa15801561074c573d6000803e3d6000fd5b505050506040513d601f19601f8201168201806040525081019061077091906130b1565b1161077f5761077e85612259565b5b60006107ac6103e861079e85600601548761250790919063ffffffff16565b61258290919063ffffffff16565b905060006107c382866125cc90919063ffffffff16565b90506108163330838760000160009054906101000a900473ffffffffffffffffffffffffffffffffffffffff1673ffffffffffffffffffffffffffffffffffffffff16612838909392919063ffffffff16565b61088933600360009054906101000a900473ffffffffffffffffffffffffffffffffffffffff16848760000160009054906101000a900473ffffffffffffffffffffffffffffffffffffffff1673ffffffffffffffffffffffffffffffffffffffff16612838909392919063ffffffff16565b60008460070154141561092a578360040160009054906101000a900473ffffffffffffffffffffffffffffffffffffffff1673ffffffffffffffffffffffffffffffffffffffff166341441d3b826040518263ffffffff1660e01b81526004016108f391906137f7565b600060405180830381600087803b15801561090d57600080fd5b505af1158015610921573d6000803e3d6000fd5b505050506109bc565b8360040160009054906101000a900473ffffffffffffffffffffffffffffffffffffffff1673ffffffffffffffffffffffffffffffffffffffff1663e2bbb15887836040518363ffffffff1660e01b8152600401610989929190613812565b600060405180830381600087803b1580156109a357600080fd5b505af11580156109b7573d6000803e3d6000fd5b505050505b6109d38184600001546128c190919063ffffffff16565b8360000181905550610a0181600b60008a8152602001908152602001600020546128c190919063ffffffff16565b600b600089815260200190815260200160002081905550610a4a64e8d4a51000610a3c8660030154866000015461250790919063ffffffff16565b61258290919063ffffffff16565b836001018190555060008460050160009054906101000a900473ffffffffffffffffffffffffffffffffffffffff1673ffffffffffffffffffffffffffffffffffffffff166370a08231306040518263ffffffff1660e01b8152600401610ab19190613502565b60206040518083038186803b158015610ac957600080fd5b505afa158015610add573d6000803e3d6000fd5b505050506040513d601f19601f82011682018060405250810190610b0191906130b1565b90506000811115610b7e57610b7d600360009054906101000a900473ffffffffffffffffffffffffffffffffffffffff16828760050160009054906101000a900473ffffffffffffffffffffffffffffffffffffffff1673ffffffffffffffffffffffffffffffffffffffff1661291f9092919063ffffffff16565b5b873373ffffffffffffffffffffffffffffffffffffffff167f90890809c654f11d6e72a28fa60149770a0d11ec6c92319d6ceb2bb0a4ea1a1584604051610bc591906137f7565b60405180910390a35050505050505050565b6000600780549050905090565b610bec6129a5565b73ffffffffffffffffffffffffffffffffffffffff16610c0a611bf6565b73ffffffffffffffffffffffffffffffffffffffff1614610c60576040517f08c379a0000000000000000000000000000000000000000000000000000000008152600401610c5790613717565b60405180910390fd5b8060048190555050565b600260009054906101000a900473ffffffffffffffffffffffffffffffffffffffff1681565b60078181548110610ca057600080fd5b90600052602060002090600802016000915090508060000160009054906101000a900473ffffffffffffffffffffffffffffffffffffffff16908060010154908060020154908060030154908060040160009054906101000a900473ffffffffffffffffffffffffffffffffffffffff16908060050160009054906101000a900473ffffffffffffffffffffffffffffffffffffffff16908060060154908060070154905088565b60095481565b610d566129a5565b73ffffffffffffffffffffffffffffffffffffffff16610d74611bf6565b73ffffffffffffffffffffffffffffffffffffffff1614610dca576040517f08c379a0000000000000000000000000000000000000000000000000000000008152600401610dc190613717565b60405180910390fd5b80600660006101000a81548173ffffffffffffffffffffffffffffffffffffffff021916908373ffffffffffffffffffffffffffffffffffffffff16021790555050565b600073ffffffffffffffffffffffffffffffffffffffff16600660009054906101000a900473ffffffffffffffffffffffffffffffffffffffff1673ffffffffffffffffffffffffffffffffffffffff161415610ea0576040517f08c379a0000000000000000000000000000000000000000000000000000000008152600401610e97906137d7565b60405180910390fd5b600060078281548110610eb657610eb5613b46565b5b9060005260206000209060080201905060008160000160009054906101000a900473ffffffffffffffffffffffffffffffffffffffff1690506000600b6000858152602001908152602001600020549050610f54600660009054906101000a900473ffffffffffffffffffffffffffffffffffffffff16828473ffffffffffffffffffffffffffffffffffffffff166129ad9092919063ffffffff16565b6000600660009054906101000a900473ffffffffffffffffffffffffffffffffffffffff1673ffffffffffffffffffffffffffffffffffffffff1663ce5494bb846040518263ffffffff1660e01b8152600401610fb191906135a6565b602060405180830381600087803b158015610fcb57600080fd5b505af1158015610fdf573d6000803e3d6000fd5b505050506040513d601f19601f82011682018060405250810190611003919061302a565b90508073ffffffffffffffffffffffffffffffffffffffff166370a08231306040518263ffffffff1660e01b815260040161103e9190613502565b60206040518083038186803b15801561105657600080fd5b505afa15801561106a573d6000803e3d6000fd5b505050506040513d601f19601f8201168201806040525081019061108e91906130b1565b82146110cf576040517f08c379a00000000000000000000000000000000000000000000000000000000081526004016110c690613797565b60405180910390fd5b808460000160006101000a81548173ffffffffffffffffffffffffffffffffffffffff021916908373ffffffffffffffffffffffffffffffffffffffff1602179055505050505050565b600a5481565b6000806007848154811061113657611135613b46565b5b9060005260206000209060080201905060006008600086815260200190815260200160002060008573ffffffffffffffffffffffffffffffffffffffff1673ffffffffffffffffffffffffffffffffffffffff16815260200190815260200160002090506000826003015490506000600b60008881526020019081526020016000205490508360020154431180156111cf575060008114155b1561126a5760006111e4856002015443611c1f565b90506000611227600954611219886001015461120b6004548761250790919063ffffffff16565b61250790919063ffffffff16565b61258290919063ffffffff16565b90506112656112568461124864e8d4a510008561250790919063ffffffff16565b61258290919063ffffffff16565b856128c190919063ffffffff16565b935050505b6112ae83600101546112a064e8d4a5100061129286886000015461250790919063ffffffff16565b61258290919063ffffffff16565b6125cc90919063ffffffff16565b94505050505092915050565b6000600782815481106112d0576112cf613b46565b5b90600052602060002090600802019050806002015443116112f1575061147c565b6000600b60008481526020019081526020016000205490506000811161132157438260020181905550505061147c565b6000611331836002015443611c1f565b9050600061137460095461136686600101546113586004548761250790919063ffffffff16565b61250790919063ffffffff16565b61258290919063ffffffff16565b9050600260009054906101000a900473ffffffffffffffffffffffffffffffffffffffff1673ffffffffffffffffffffffffffffffffffffffff166340c10f1930836040518363ffffffff1660e01b81526004016113d392919061357d565b602060405180830381600087803b1580156113ed57600080fd5b505af1158015611401573d6000803e3d6000fd5b505050506040513d601f19601f820116820180604052508101906114259190612ffd565b506114666114538461144564e8d4a510008561250790919063ffffffff16565b61258290919063ffffffff16565b85600301546128c190919063ffffffff16565b8460030181905550438460020181905550505050505b50565b60006007828154811061149557611494613b46565b5b9060005260206000209060080201905060006008600084815260200190815260200160002060003373ffffffffffffffffffffffffffffffffffffffff1673ffffffffffffffffffffffffffffffffffffffff168152602001908152602001600020905061154c3382600001548460000160009054906101000a900473ffffffffffffffffffffffffffffffffffffffff1673ffffffffffffffffffffffffffffffffffffffff1661291f9092919063ffffffff16565b823373ffffffffffffffffffffffffffffffffffffffff167fbb757047c2b5f3974fe26b7c10f732e7bce710b0952a71082702781e62ae0595836000015460405161159791906137f7565b60405180910390a36000816000018190555060008160010181905550505050565b6115c06129a5565b73ffffffffffffffffffffffffffffffffffffffff166115de611bf6565b73ffffffffffffffffffffffffffffffffffffffff1614611634576040517f08c379a000000000000000000000000000000000000000000000000000000000815260040161162b90613717565b60405180910390fd5b8060058190555050565b6000600780549050905060005b8181101561166d5761165c816112ba565b8061166690613a9f565b905061164b565b5050565b6116796129a5565b73ffffffffffffffffffffffffffffffffffffffff16611697611bf6565b73ffffffffffffffffffffffffffffffffffffffff16146116ed576040517f08c379a00000000000000000000000000000000000000000000000000000000081526004016116e490613717565b60405180910390fd5b80156116fc576116fb61163e565b5b6117488261173a6007868154811061171757611716613b46565b5b9060005260206000209060080201600101546009546125cc90919063ffffffff16565b6128c190919063ffffffff16565b600981905550816007848154811061176357611762613b46565b5b906000526020600020906008020160010181905550505050565b6117856129a5565b73ffffffffffffffffffffffffffffffffffffffff166117a3611bf6565b73ffffffffffffffffffffffffffffffffffffffff16146117f9576040517f08c379a00000000000000000000000000000000000000000000000000000000081526004016117f090613717565b60405180910390fd5b84156118085761180761163e565b5b6000600a54431161181b57600a5461181d565b435b9050611834886009546128c190919063ffffffff16565b60098190555060076040518061010001604052808973ffffffffffffffffffffffffffffffffffffffff1681526020018a8152602001838152602001600081526020018773ffffffffffffffffffffffffffffffffffffffff1681526020018673ffffffffffffffffffffffffffffffffffffffff16815260200185815260200184815250908060018154018082558091505060019003906000526020600020906008020160009091909190915060008201518160000160006101000a81548173ffffffffffffffffffffffffffffffffffffffff021916908373ffffffffffffffffffffffffffffffffffffffff16021790555060208201518160010155604082015181600201556060820151816003015560808201518160040160006101000a81548173ffffffffffffffffffffffffffffffffffffffff021916908373ffffffffffffffffffffffffffffffffffffffff16021790555060a08201518160050160006101000a81548173ffffffffffffffffffffffffffffffffffffffff021916908373ffffffffffffffffffffffffffffffffffffffff16021790555060c0820151816006015560e0820151816007015550505050505050505050565b6119fd6129a5565b73ffffffffffffffffffffffffffffffffffffffff16611a1b611bf6565b73ffffffffffffffffffffffffffffffffffffffff1614611a71576040517f08c379a0000000000000000000000000000000000000000000000000000000008152600401611a6890613717565b60405180910390fd5b600060078281548110611a8757611a86613b46565b5b906000526020600020906008020190508060040160009054906101000a900473ffffffffffffffffffffffffffffffffffffffff1673ffffffffffffffffffffffffffffffffffffffff16635312ea8e836040518263ffffffff1660e01b8152600401611af491906137f7565b600060405180830381600087803b158015611b0e57600080fd5b505af1158015611b22573d6000803e3d6000fd5b505050505050565b600b6020528060005260406000206000915090505481565b611b4a6129a5565b73ffffffffffffffffffffffffffffffffffffffff16611b68611bf6565b73ffffffffffffffffffffffffffffffffffffffff1614611bbe576040517f08c379a0000000000000000000000000000000000000000000000000000000008152600401611bb590613717565b60405180910390fd5b611bc86000612b0b565b565b600660009054906101000a900473ffffffffffffffffffffffffffffffffffffffff1681565b60055481565b60008060009054906101000a900473ffffffffffffffffffffffffffffffffffffffff16905090565b6000611c48600554611c3a85856125cc90919063ffffffff16565b61250790919063ffffffff16565b905092915050565b6008602052816000526040600020602052806000526040600020600091509150508060000154908060010154905082565b60045481565b600060078481548110611c9d57611c9c613b46565b5b9060005260206000209060080201905060006008600086815260200190815260200160002060003373ffffffffffffffffffffffffffffffffffffffff1673ffffffffffffffffffffffffffffffffffffffff16815260200190815260200160002090508281600001541015611d48576040517f08c379a0000000000000000000000000000000000000000000000000000000008152600401611d3f90613757565b60405180910390fd5b611d51856112ba565b6000611d9b8260010154611d8d64e8d4a51000611d7f8760030154876000015461250790919063ffffffff16565b61258290919063ffffffff16565b6125cc90919063ffffffff16565b90506000811115611db157611db03382612616565b5b611dc88483600001546125cc90919063ffffffff16565b8260000181905550611df684600b6000898152602001908152602001600020546125cc90919063ffffffff16565b600b600088815260200190815260200160002081905550611e3f64e8d4a51000611e318560030154856000015461250790919063ffffffff16565b61258290919063ffffffff16565b8260010181905550600083600701541415611ee8578260040160009054906101000a900473ffffffffffffffffffffffffffffffffffffffff1673ffffffffffffffffffffffffffffffffffffffff16631058d281856040518263ffffffff1660e01b8152600401611eb191906137f7565b600060405180830381600087803b158015611ecb57600080fd5b505af1158015611edf573d6000803e3d6000fd5b50505050611f7a565b8260040160009054906101000a900473ffffffffffffffffffffffffffffffffffffffff1673ffffffffffffffffffffffffffffffffffffffff1663441a3e7086866040518363ffffffff1660e01b8152600401611f47929190613812565b600060405180830381600087803b158015611f6157600080fd5b505af1158015611f75573d6000803e3d6000fd5b505050505b611fc933858560000160009054906101000a900473ffffffffffffffffffffffffffffffffffffffff1673ffffffffffffffffffffffffffffffffffffffff1661291f9092919063ffffffff16565b60008360050160009054906101000a900473ffffffffffffffffffffffffffffffffffffffff1673ffffffffffffffffffffffffffffffffffffffff166370a08231306040518263ffffffff1660e01b81526004016120289190613502565b60206040518083038186803b15801561204057600080fd5b505afa158015612054573d6000803e3d6000fd5b505050506040513d601f19601f8201168201806040525081019061207891906130b1565b905060008111156120f5576120f4600360009054906101000a900473ffffffffffffffffffffffffffffffffffffffff16828660050160009054906101000a900473ffffffffffffffffffffffffffffffffffffffff1673ffffffffffffffffffffffffffffffffffffffff1661291f9092919063ffffffff16565b5b863373ffffffffffffffffffffffffffffffffffffffff167ff279e6a1f5e320cca91135676d9cb6e44ca8a08c0b88342bcdb1144f6511b5688760405161213c91906137f7565b60405180910390a350505050505050565b6121556129a5565b73ffffffffffffffffffffffffffffffffffffffff16612173611bf6565b73ffffffffffffffffffffffffffffffffffffffff16146121c9576040517f08c379a00000000000000000000000000000000000000000000000000000000081526004016121c090613717565b60405180910390fd5b80600360006101000a81548173ffffffffffffffffffffffffffffffffffffffff021916908373ffffffffffffffffffffffffffffffffffffffff16021790555050565b600360009054906101000a900473ffffffffffffffffffffffffffffffffffffffff1681565b600160009054906101000a900473ffffffffffffffffffffffffffffffffffffffff1681565b60006007828154811061226f5761226e613b46565b5b906000526020600020906008020190508060000160009054906101000a900473ffffffffffffffffffffffffffffffffffffffff1673ffffffffffffffffffffffffffffffffffffffff1663095ea7b38260040160009054906101000a900473ffffffffffffffffffffffffffffffffffffffff16600c546040518363ffffffff1660e01b815260040161230492919061357d565b602060405180830381600087803b15801561231e57600080fd5b505af1158015612332573d6000803e3d6000fd5b505050506040513d601f19601f820116820180604052508101906123569190612ffd565b508060050160009054906101000a900473ffffffffffffffffffffffffffffffffffffffff1673ffffffffffffffffffffffffffffffffffffffff1663095ea7b330600c546040518363ffffffff1660e01b81526004016123b892919061357d565b602060405180830381600087803b1580156123d257600080fd5b505af11580156123e6573d6000803e3d6000fd5b505050506040513d601f19601f8201168201806040525081019061240a9190612ffd565b505050565b6124176129a5565b73ffffffffffffffffffffffffffffffffffffffff16612435611bf6565b73ffffffffffffffffffffffffffffffffffffffff161461248b576040517f08c379a000000000000000000000000000000000000000000000000000000000815260040161248290613717565b60405180910390fd5b600073ffffffffffffffffffffffffffffffffffffffff168173ffffffffffffffffffffffffffffffffffffffff1614156124fb576040517f08c379a00000000000000000000000000000000000000000000000000000000081526004016124f290613697565b60405180910390fd5b61250481612b0b565b50565b60008083141561251a576000905061257c565b6000828461252891906138f4565b905082848261253791906138c3565b14612577576040517f08c379a000000000000000000000000000000000000000000000000000000000815260040161256e906136f7565b60405180910390fd5b809150505b92915050565b60006125c483836040518060400160405280601a81526020017f536166654d6174683a206469766973696f6e206279207a65726f000000000000815250612bcf565b905092915050565b600061260e83836040518060400160405280601e81526020017f536166654d6174683a207375627472616374696f6e206f766572666c6f770000815250612c32565b905092915050565b6000600260009054906101000a900473ffffffffffffffffffffffffffffffffffffffff1673ffffffffffffffffffffffffffffffffffffffff166370a08231306040518263ffffffff1660e01b81526004016126739190613502565b60206040518083038186803b15801561268b57600080fd5b505afa15801561269f573d6000803e3d6000fd5b505050506040513d601f19601f820116820180604052508101906126c391906130b1565b90508082111561278257600260009054906101000a900473ffffffffffffffffffffffffffffffffffffffff1673ffffffffffffffffffffffffffffffffffffffff1663a9059cbb84836040518363ffffffff1660e01b815260040161272a92919061357d565b602060405180830381600087803b15801561274457600080fd5b505af1158015612758573d6000803e3d6000fd5b505050506040513d601f19601f8201168201806040525081019061277c9190612ffd565b50612833565b600260009054906101000a900473ffffffffffffffffffffffffffffffffffffffff1673ffffffffffffffffffffffffffffffffffffffff1663a9059cbb84846040518363ffffffff1660e01b81526004016127df92919061357d565b602060405180830381600087803b1580156127f957600080fd5b505af115801561280d573d6000803e3d6000fd5b505050506040513d601f19601f820116820180604052508101906128319190612ffd565b505b505050565b6128bb846323b872dd60e01b85858560405160240161285993929190613546565b604051602081830303815290604052907bffffffffffffffffffffffffffffffffffffffffffffffffffffffff19166020820180517bffffffffffffffffffffffffffffffffffffffffffffffffffffffff8381831617835250505050612c96565b50505050565b60008082846128d0919061386d565b905083811015612915576040517f08c379a000000000000000000000000000000000000000000000000000000000815260040161290c906136b7565b60405180910390fd5b8091505092915050565b6129a08363a9059cbb60e01b848460405160240161293e92919061357d565b604051602081830303815290604052907bffffffffffffffffffffffffffffffffffffffffffffffffffffffff19166020820180517bffffffffffffffffffffffffffffffffffffffffffffffffffffffff8381831617835250505050612c96565b505050565b600033905090565b6000811480612a46575060008373ffffffffffffffffffffffffffffffffffffffff1663dd62ed3e30856040518363ffffffff1660e01b81526004016129f492919061351d565b60206040518083038186803b158015612a0c57600080fd5b505afa158015612a20573d6000803e3d6000fd5b505050506040513d601f19601f82011682018060405250810190612a4491906130b1565b145b612a85576040517f08c379a0000000000000000000000000000000000000000000000000000000008152600401612a7c906137b7565b60405180910390fd5b612b068363095ea7b360e01b8484604051602401612aa492919061357d565b604051602081830303815290604052907bffffffffffffffffffffffffffffffffffffffffffffffffffffffff19166020820180517bffffffffffffffffffffffffffffffffffffffffffffffffffffffff8381831617835250505050612c96565b505050565b60008060009054906101000a900473ffffffffffffffffffffffffffffffffffffffff169050816000806101000a81548173ffffffffffffffffffffffffffffffffffffffff021916908373ffffffffffffffffffffffffffffffffffffffff1602179055508173ffffffffffffffffffffffffffffffffffffffff168173ffffffffffffffffffffffffffffffffffffffff167f8be0079c531659141344cd1fd0a4f28419497f9722a3daafe3b4186f6b6457e060405160405180910390a35050565b60008083118290612c16576040517f08c379a0000000000000000000000000000000000000000000000000000000008152600401612c0d9190613675565b60405180910390fd5b5060008385612c2591906138c3565b9050809150509392505050565b6000838311158290612c7a576040517f08c379a0000000000000000000000000000000000000000000000000000000008152600401612c719190613675565b60405180910390fd5b5060008385612c89919061394e565b9050809150509392505050565b6000612cf8826040518060400160405280602081526020017f5361666545524332303a206c6f772d6c6576656c2063616c6c206661696c65648152508573ffffffffffffffffffffffffffffffffffffffff16612d5d9092919063ffffffff16565b9050600081511115612d585780806020019051810190612d189190612ffd565b612d57576040517f08c379a0000000000000000000000000000000000000000000000000000000008152600401612d4e90613777565b60405180910390fd5b5b505050565b6060612d6c8484600085612d75565b90509392505050565b606082471015612dba576040517f08c379a0000000000000000000000000000000000000000000000000000000008152600401612db1906136d7565b60405180910390fd5b612dc385612e89565b612e02576040517f08c379a0000000000000000000000000000000000000000000000000000000008152600401612df990613737565b60405180910390fd5b6000808673ffffffffffffffffffffffffffffffffffffffff168587604051612e2b91906134eb565b60006040518083038185875af1925050503d8060008114612e68576040519150601f19603f3d011682016040523d82523d6000602084013e612e6d565b606091505b5091509150612e7d828286612eac565b92505050949350505050565b6000808273ffffffffffffffffffffffffffffffffffffffff163b119050919050565b60608315612ebc57829050612f0c565b600083511115612ecf5782518084602001fd5b816040517f08c379a0000000000000000000000000000000000000000000000000000000008152600401612f039190613675565b60405180910390fd5b9392505050565b600081359050612f2281613e0c565b92915050565b600081359050612f3781613e23565b92915050565b600081519050612f4c81613e23565b92915050565b600081359050612f6181613e3a565b92915050565b600081519050612f7681613e3a565b92915050565b600081359050612f8b81613e51565b92915050565b600081359050612fa081613e68565b92915050565b600081359050612fb581613e7f565b92915050565b600081519050612fca81613e7f565b92915050565b600060208284031215612fe657612fe5613b75565b5b6000612ff484828501612f13565b91505092915050565b60006020828403121561301357613012613b75565b5b600061302184828501612f3d565b91505092915050565b6000602082840312156130405761303f613b75565b5b600061304e84828501612f67565b91505092915050565b60006020828403121561306d5761306c613b75565b5b600061307b84828501612f91565b91505092915050565b60006020828403121561309a57613099613b75565b5b60006130a884828501612fa6565b91505092915050565b6000602082840312156130c7576130c6613b75565b5b60006130d584828501612fbb565b91505092915050565b600080604083850312156130f5576130f4613b75565b5b600061310385828601612fa6565b925050602061311485828601612f13565b9150509250929050565b600080600080600080600060e0888a03121561313d5761313c613b75565b5b600061314b8a828b01612fa6565b975050602061315c8a828b01612f52565b965050604061316d8a828b01612f28565b955050606061317e8a828b01612f7c565b945050608061318f8a828b01612f52565b93505060a06131a08a828b01612fa6565b92505060c06131b18a828b01612fa6565b91505092959891949750929550565b600080604083850312156131d7576131d6613b75565b5b60006131e585828601612fa6565b92505060206131f685828601612fa6565b9150509250929050565b60008060006060848603121561321957613218613b75565b5b600061322786828701612fa6565b935050602061323886828701612fa6565b925050604061324986828701612f28565b9150509250925092565b60008060006060848603121561326c5761326b613b75565b5b600061327a86828701612fa6565b935050602061328b86828701612fa6565b925050604061329c86828701612fa6565b9150509250925092565b6132af81613982565b82525050565b60006132c08261383b565b6132ca8185613851565b93506132da818560208601613a6c565b80840191505092915050565b6132ef81613a00565b82525050565b6132fe81613a12565b82525050565b61330d81613a24565b82525050565b61331c81613a36565b82525050565b600061332d82613846565b613337818561385c565b9350613347818560208601613a6c565b61335081613b7a565b840191505092915050565b600061336860268361385c565b915061337382613b8b565b604082019050919050565b600061338b601b8361385c565b915061339682613bda565b602082019050919050565b60006133ae60268361385c565b91506133b982613c03565b604082019050919050565b60006133d160218361385c565b91506133dc82613c52565b604082019050919050565b60006133f460208361385c565b91506133ff82613ca1565b602082019050919050565b6000613417601d8361385c565b915061342282613cca565b602082019050919050565b600061343a60128361385c565b915061344582613cf3565b602082019050919050565b600061345d602a8361385c565b915061346882613d1c565b604082019050919050565b6000613480600c8361385c565b915061348b82613d6b565b602082019050919050565b60006134a360368361385c565b91506134ae82613d94565b604082019050919050565b60006134c660148361385c565b91506134d182613de3565b602082019050919050565b6134e5816139f6565b82525050565b60006134f782846132b5565b915081905092915050565b600060208201905061351760008301846132a6565b92915050565b600060408201905061353260008301856132a6565b61353f60208301846132a6565b9392505050565b600060608201905061355b60008301866132a6565b61356860208301856132a6565b61357560408301846134dc565b949350505050565b600060408201905061359260008301856132a6565b61359f60208301846134dc565b9392505050565b60006020820190506135bb60008301846132e6565b92915050565b6000610100820190506135d7600083018b6132e6565b6135e4602083018a6134dc565b6135f160408301896134dc565b6135fe60608301886134dc565b61360b60808301876132f5565b61361860a08301866132e6565b61362560c08301856134dc565b61363260e08301846134dc565b9998505050505050505050565b60006020820190506136546000830184613304565b92915050565b600060208201905061366f6000830184613313565b92915050565b6000602082019050818103600083015261368f8184613322565b905092915050565b600060208201905081810360008301526136b08161335b565b9050919050565b600060208201905081810360008301526136d08161337e565b9050919050565b600060208201905081810360008301526136f0816133a1565b9050919050565b60006020820190508181036000830152613710816133c4565b9050919050565b60006020820190508181036000830152613730816133e7565b9050919050565b600060208201905081810360008301526137508161340a565b9050919050565b600060208201905081810360008301526137708161342d565b9050919050565b6000602082019050818103600083015261379081613450565b9050919050565b600060208201905081810360008301526137b081613473565b9050919050565b600060208201905081810360008301526137d081613496565b9050919050565b600060208201905081810360008301526137f0816134b9565b9050919050565b600060208201905061380c60008301846134dc565b92915050565b600060408201905061382760008301856134dc565b61383460208301846134dc565b9392505050565b600081519050919050565b600081519050919050565b600081905092915050565b600082825260208201905092915050565b6000613878826139f6565b9150613883836139f6565b9250827fffffffffffffffffffffffffffffffffffffffffffffffffffffffffffffffff038211156138b8576138b7613ae8565b5b828201905092915050565b60006138ce826139f6565b91506138d9836139f6565b9250826138e9576138e8613b17565b5b828204905092915050565b60006138ff826139f6565b915061390a836139f6565b9250817fffffffffffffffffffffffffffffffffffffffffffffffffffffffffffffffff048311821515161561394357613942613ae8565b5b828202905092915050565b6000613959826139f6565b9150613964836139f6565b92508282101561397757613976613ae8565b5b828203905092915050565b600061398d826139d6565b9050919050565b60008115159050919050565b60006139ab82613982565b9050919050565b60006139bd82613982565b9050919050565b60006139cf82613982565b9050919050565b600073ffffffffffffffffffffffffffffffffffffffff82169050919050565b6000819050919050565b6000613a0b82613a48565b9050919050565b6000613a1d82613a48565b9050919050565b6000613a2f82613a48565b9050919050565b6000613a4182613a48565b9050919050565b6000613a5382613a5a565b9050919050565b6000613a65826139d6565b9050919050565b60005b83811015613a8a578082015181840152602081019050613a6f565b83811115613a99576000848401525b50505050565b6000613aaa826139f6565b91507fffffffffffffffffffffffffffffffffffffffffffffffffffffffffffffffff821415613add57613adc613ae8565b5b600182019050919050565b7f4e487b7100000000000000000000000000000000000000000000000000000000600052601160045260246000fd5b7f4e487b7100000000000000000000000000000000000000000000000000000000600052601260045260246000fd5b7f4e487b7100000000000000000000000000000000000000000000000000000000600052603260045260246000fd5b600080fd5b6000601f19601f8301169050919050565b7f4f776e61626c653a206e6577206f776e657220697320746865207a65726f206160008201527f6464726573730000000000000000000000000000000000000000000000000000602082015250565b7f536166654d6174683a206164646974696f6e206f766572666c6f770000000000600082015250565b7f416464726573733a20696e73756666696369656e742062616c616e636520666f60008201527f722063616c6c0000000000000000000000000000000000000000000000000000602082015250565b7f536166654d6174683a206d756c7469706c69636174696f6e206f766572666c6f60008201527f7700000000000000000000000000000000000000000000000000000000000000602082015250565b7f4f776e61626c653a2063616c6c6572206973206e6f7420746865206f776e6572600082015250565b7f416464726573733a2063616c6c20746f206e6f6e2d636f6e7472616374000000600082015250565b7f77697468647261773a206e6f7420676f6f640000000000000000000000000000600082015250565b7f5361666545524332303a204552433230206f7065726174696f6e20646964206e60008201527f6f74207375636365656400000000000000000000000000000000000000000000602082015250565b7f6d6967726174653a206261640000000000000000000000000000000000000000600082015250565b7f5361666545524332303a20617070726f76652066726f6d206e6f6e2d7a65726f60008201527f20746f206e6f6e2d7a65726f20616c6c6f77616e636500000000000000000000602082015250565b7f6d6967726174653a206e6f206d69677261746f72000000000000000000000000600082015250565b613e1581613982565b8114613e2057600080fd5b50565b613e2c81613994565b8114613e3757600080fd5b50565b613e43816139a0565b8114613e4e57600080fd5b50565b613e5a816139b2565b8114613e6557600080fd5b50565b613e71816139c4565b8114613e7c57600080fd5b50565b613e88816139f6565b8114613e9357600080fd5b5056fea2646970667358221220dd0968d7623f230045ee292113f8779c09809a6786b80dd8fd648ef7198b5d0964736f6c63430008070033",
					"opcodes": "PUSH1 0x80 PUSH1 0x40 MSTORE PUSH1 0x1 PUSH1 0x5 SSTORE PUSH1 0x0 PUSH1 0x9 SSTORE PUSH21 0x446C3B15F9926687D2C40534FDB563FFFFFFFFFFFF PUSH1 0xC SSTORE CALLVALUE DUP1 ISZERO PUSH3 0x34 JUMPI PUSH1 0x0 DUP1 REVERT JUMPDEST POP PUSH1 0x40 MLOAD PUSH3 0x42B5 CODESIZE SUB DUP1 PUSH3 0x42B5 DUP4 CODECOPY DUP2 DUP2 ADD PUSH1 0x40 MSTORE DUP2 ADD SWAP1 PUSH3 0x5A SWAP2 SWAP1 PUSH3 0x27E JUMP JUMPDEST PUSH3 0x7A PUSH3 0x6E PUSH3 0x156 PUSH1 0x20 SHL PUSH1 0x20 SHR JUMP JUMPDEST PUSH3 0x15E PUSH1 0x20 SHL PUSH1 0x20 SHR JUMP JUMPDEST DUP5 PUSH1 0x2 PUSH1 0x0 PUSH2 0x100 EXP DUP2 SLOAD DUP2 PUSH20 0xFFFFFFFFFFFFFFFFFFFFFFFFFFFFFFFFFFFFFFFF MUL NOT AND SWAP1 DUP4 PUSH20 0xFFFFFFFFFFFFFFFFFFFFFFFFFFFFFFFFFFFFFFFF AND MUL OR SWAP1 SSTORE POP DUP4 PUSH1 0x3 PUSH1 0x0 PUSH2 0x100 EXP DUP2 SLOAD DUP2 PUSH20 0xFFFFFFFFFFFFFFFFFFFFFFFFFFFFFFFFFFFFFFFF MUL NOT AND SWAP1 DUP4 PUSH20 0xFFFFFFFFFFFFFFFFFFFFFFFFFFFFFFFFFFFFFFFF AND MUL OR SWAP1 SSTORE POP DUP3 PUSH1 0x4 DUP2 SWAP1 SSTORE POP DUP2 PUSH1 0xA DUP2 SWAP1 SSTORE POP DUP1 PUSH1 0x1 PUSH1 0x0 PUSH2 0x100 EXP DUP2 SLOAD DUP2 PUSH20 0xFFFFFFFFFFFFFFFFFFFFFFFFFFFFFFFFFFFFFFFF MUL NOT AND SWAP1 DUP4 PUSH20 0xFFFFFFFFFFFFFFFFFFFFFFFFFFFFFFFFFFFFFFFF AND MUL OR SWAP1 SSTORE POP POP POP POP POP POP PUSH3 0x3D9 JUMP JUMPDEST PUSH1 0x0 CALLER SWAP1 POP SWAP1 JUMP JUMPDEST PUSH1 0x0 DUP1 PUSH1 0x0 SWAP1 SLOAD SWAP1 PUSH2 0x100 EXP SWAP1 DIV PUSH20 0xFFFFFFFFFFFFFFFFFFFFFFFFFFFFFFFFFFFFFFFF AND SWAP1 POP DUP2 PUSH1 0x0 DUP1 PUSH2 0x100 EXP DUP2 SLOAD DUP2 PUSH20 0xFFFFFFFFFFFFFFFFFFFFFFFFFFFFFFFFFFFFFFFF MUL NOT AND SWAP1 DUP4 PUSH20 0xFFFFFFFFFFFFFFFFFFFFFFFFFFFFFFFFFFFFFFFF AND MUL OR SWAP1 SSTORE POP DUP2 PUSH20 0xFFFFFFFFFFFFFFFFFFFFFFFFFFFFFFFFFFFFFFFF AND DUP2 PUSH20 0xFFFFFFFFFFFFFFFFFFFFFFFFFFFFFFFFFFFFFFFF AND PUSH32 0x8BE0079C531659141344CD1FD0A4F28419497F9722A3DAAFE3B4186F6B6457E0 PUSH1 0x40 MLOAD PUSH1 0x40 MLOAD DUP1 SWAP2 SUB SWAP1 LOG3 POP POP JUMP JUMPDEST PUSH1 0x0 DUP2 MLOAD SWAP1 POP PUSH3 0x233 DUP2 PUSH3 0x371 JUMP JUMPDEST SWAP3 SWAP2 POP POP JUMP JUMPDEST PUSH1 0x0 DUP2 MLOAD SWAP1 POP PUSH3 0x24A DUP2 PUSH3 0x38B JUMP JUMPDEST SWAP3 SWAP2 POP POP JUMP JUMPDEST PUSH1 0x0 DUP2 MLOAD SWAP1 POP PUSH3 0x261 DUP2 PUSH3 0x3A5 JUMP JUMPDEST SWAP3 SWAP2 POP POP JUMP JUMPDEST PUSH1 0x0 DUP2 MLOAD SWAP1 POP PUSH3 0x278 DUP2 PUSH3 0x3BF JUMP JUMPDEST SWAP3 SWAP2 POP POP JUMP JUMPDEST PUSH1 0x0 DUP1 PUSH1 0x0 DUP1 PUSH1 0x0 PUSH1 0xA0 DUP7 DUP9 SUB SLT ISZERO PUSH3 0x29D JUMPI PUSH3 0x29C PUSH3 0x36C JUMP JUMPDEST JUMPDEST PUSH1 0x0 PUSH3 0x2AD DUP9 DUP3 DUP10 ADD PUSH3 0x239 JUMP JUMPDEST SWAP6 POP POP PUSH1 0x20 PUSH3 0x2C0 DUP9 DUP3 DUP10 ADD PUSH3 0x222 JUMP JUMPDEST SWAP5 POP POP PUSH1 0x40 PUSH3 0x2D3 DUP9 DUP3 DUP10 ADD PUSH3 0x267 JUMP JUMPDEST SWAP4 POP POP PUSH1 0x60 PUSH3 0x2E6 DUP9 DUP3 DUP10 ADD PUSH3 0x267 JUMP JUMPDEST SWAP3 POP POP PUSH1 0x80 PUSH3 0x2F9 DUP9 DUP3 DUP10 ADD PUSH3 0x250 JUMP JUMPDEST SWAP2 POP POP SWAP3 SWAP6 POP SWAP3 SWAP6 SWAP1 SWAP4 POP JUMP JUMPDEST PUSH1 0x0 PUSH3 0x313 DUP3 PUSH3 0x342 JUMP JUMPDEST SWAP1 POP SWAP2 SWAP1 POP JUMP JUMPDEST PUSH1 0x0 PUSH3 0x327 DUP3 PUSH3 0x306 JUMP JUMPDEST SWAP1 POP SWAP2 SWAP1 POP JUMP JUMPDEST PUSH1 0x0 PUSH3 0x33B DUP3 PUSH3 0x306 JUMP JUMPDEST SWAP1 POP SWAP2 SWAP1 POP JUMP JUMPDEST PUSH1 0x0 PUSH20 0xFFFFFFFFFFFFFFFFFFFFFFFFFFFFFFFFFFFFFFFF DUP3 AND SWAP1 POP SWAP2 SWAP1 POP JUMP JUMPDEST PUSH1 0x0 DUP2 SWAP1 POP SWAP2 SWAP1 POP JUMP JUMPDEST PUSH1 0x0 DUP1 REVERT JUMPDEST PUSH3 0x37C DUP2 PUSH3 0x306 JUMP JUMPDEST DUP2 EQ PUSH3 0x388 JUMPI PUSH1 0x0 DUP1 REVERT JUMPDEST POP JUMP JUMPDEST PUSH3 0x396 DUP2 PUSH3 0x31A JUMP JUMPDEST DUP2 EQ PUSH3 0x3A2 JUMPI PUSH1 0x0 DUP1 REVERT JUMPDEST POP JUMP JUMPDEST PUSH3 0x3B0 DUP2 PUSH3 0x32E JUMP JUMPDEST DUP2 EQ PUSH3 0x3BC JUMPI PUSH1 0x0 DUP1 REVERT JUMPDEST POP JUMP JUMPDEST PUSH3 0x3CA DUP2 PUSH3 0x362 JUMP JUMPDEST DUP2 EQ PUSH3 0x3D6 JUMPI PUSH1 0x0 DUP1 REVERT JUMPDEST POP JUMP JUMPDEST PUSH2 0x3ECC DUP1 PUSH3 0x3E9 PUSH1 0x0 CODECOPY PUSH1 0x0 RETURN INVALID PUSH1 0x80 PUSH1 0x40 MSTORE CALLVALUE DUP1 ISZERO PUSH2 0x10 JUMPI PUSH1 0x0 DUP1 REVERT JUMPDEST POP PUSH1 0x4 CALLDATASIZE LT PUSH2 0x1E4 JUMPI PUSH1 0x0 CALLDATALOAD PUSH1 0xE0 SHR DUP1 PUSH4 0x64944193 GT PUSH2 0x10F JUMPI DUP1 PUSH4 0x93F1A40B GT PUSH2 0xA2 JUMPI DUP1 PUSH4 0xD49E77CD GT PUSH2 0x71 JUMPI DUP1 PUSH4 0xD49E77CD EQ PUSH2 0x535 JUMPI DUP1 PUSH4 0xE4D09896 EQ PUSH2 0x553 JUMPI DUP1 PUSH4 0xEEAC3AE8 EQ PUSH2 0x571 JUMPI DUP1 PUSH4 0xF2FDE38B EQ PUSH2 0x58D JUMPI PUSH2 0x1E4 JUMP JUMPDEST DUP1 PUSH4 0x93F1A40B EQ PUSH2 0x4AE JUMPI DUP1 PUSH4 0xA1EEF821 EQ PUSH2 0x4DF JUMPI DUP1 PUSH4 0xA41FE49F EQ PUSH2 0x4FD JUMPI DUP1 PUSH4 0xD0D41FE1 EQ PUSH2 0x519 JUMPI PUSH2 0x1E4 JUMP JUMPDEST DUP1 PUSH4 0x7CD07E47 GT PUSH2 0xDE JUMPI DUP1 PUSH4 0x7CD07E47 EQ PUSH2 0x424 JUMPI DUP1 PUSH4 0x8AA28550 EQ PUSH2 0x442 JUMPI DUP1 PUSH4 0x8DA5CB5B EQ PUSH2 0x460 JUMPI DUP1 PUSH4 0x8DBB1E3A EQ PUSH2 0x47E JUMPI PUSH2 0x1E4 JUMP JUMPDEST DUP1 PUSH4 0x64944193 EQ PUSH2 0x3B2 JUMPI DUP1 PUSH4 0x68382A21 EQ PUSH2 0x3CE JUMPI DUP1 PUSH4 0x6A6D964E EQ PUSH2 0x3EA JUMPI DUP1 PUSH4 0x715018A6 EQ PUSH2 0x41A JUMPI PUSH2 0x1E4 JUMP JUMPDEST DUP1 PUSH4 0x454B0608 GT PUSH2 0x187 JUMPI DUP1 PUSH4 0x5312EA8E GT PUSH2 0x156 JUMPI DUP1 PUSH4 0x5312EA8E EQ PUSH2 0x354 JUMPI DUP1 PUSH4 0x5FFE6146 EQ PUSH2 0x370 JUMPI DUP1 PUSH4 0x630B5BA1 EQ PUSH2 0x38C JUMPI DUP1 PUSH4 0x64482F79 EQ PUSH2 0x396 JUMPI PUSH2 0x1E4 JUMP JUMPDEST DUP1 PUSH4 0x454B0608 EQ PUSH2 0x2CE JUMPI DUP1 PUSH4 0x48CD4CB1 EQ PUSH2 0x2EA JUMPI DUP1 PUSH4 0x4F17DBAF EQ PUSH2 0x308 JUMPI DUP1 PUSH4 0x51EB05A6 EQ PUSH2 0x338 JUMPI PUSH2 0x1E4 JUMP JUMPDEST DUP1 PUSH4 0x141AA0BA GT PUSH2 0x1C3 JUMPI DUP1 PUSH4 0x141AA0BA EQ PUSH2 0x23F JUMPI DUP1 PUSH4 0x1526FE27 EQ PUSH2 0x25D JUMPI DUP1 PUSH4 0x17CAF6F1 EQ PUSH2 0x294 JUMPI DUP1 PUSH4 0x23CF3118 EQ PUSH2 0x2B2 JUMPI PUSH2 0x1E4 JUMP JUMPDEST DUP1 PUSH3 0xAEEF8A EQ PUSH2 0x1E9 JUMPI DUP1 PUSH4 0x81E3EDA EQ PUSH2 0x205 JUMPI DUP1 PUSH4 0xFE7EA17 EQ PUSH2 0x223 JUMPI JUMPDEST PUSH1 0x0 DUP1 REVERT JUMPDEST PUSH2 0x203 PUSH1 0x4 DUP1 CALLDATASIZE SUB DUP2 ADD SWAP1 PUSH2 0x1FE SWAP2 SWAP1 PUSH2 0x3253 JUMP JUMPDEST PUSH2 0x5A9 JUMP JUMPDEST STOP JUMPDEST PUSH2 0x20D PUSH2 0xBD7 JUMP JUMPDEST PUSH1 0x40 MLOAD PUSH2 0x21A SWAP2 SWAP1 PUSH2 0x37F7 JUMP JUMPDEST PUSH1 0x40 MLOAD DUP1 SWAP2 SUB SWAP1 RETURN JUMPDEST PUSH2 0x23D PUSH1 0x4 DUP1 CALLDATASIZE SUB DUP2 ADD SWAP1 PUSH2 0x238 SWAP2 SWAP1 PUSH2 0x3084 JUMP JUMPDEST PUSH2 0xBE4 JUMP JUMPDEST STOP JUMPDEST PUSH2 0x247 PUSH2 0xC6A JUMP JUMPDEST PUSH1 0x40 MLOAD PUSH2 0x254 SWAP2 SWAP1 PUSH2 0x35A6 JUMP JUMPDEST PUSH1 0x40 MLOAD DUP1 SWAP2 SUB SWAP1 RETURN JUMPDEST PUSH2 0x277 PUSH1 0x4 DUP1 CALLDATASIZE SUB DUP2 ADD SWAP1 PUSH2 0x272 SWAP2 SWAP1 PUSH2 0x3084 JUMP JUMPDEST PUSH2 0xC90 JUMP JUMPDEST PUSH1 0x40 MLOAD PUSH2 0x28B SWAP9 SWAP8 SWAP7 SWAP6 SWAP5 SWAP4 SWAP3 SWAP2 SWAP1 PUSH2 0x35C1 JUMP JUMPDEST PUSH1 0x40 MLOAD DUP1 SWAP2 SUB SWAP1 RETURN JUMPDEST PUSH2 0x29C PUSH2 0xD48 JUMP JUMPDEST PUSH1 0x40 MLOAD PUSH2 0x2A9 SWAP2 SWAP1 PUSH2 0x37F7 JUMP JUMPDEST PUSH1 0x40 MLOAD DUP1 SWAP2 SUB SWAP1 RETURN JUMPDEST PUSH2 0x2CC PUSH1 0x4 DUP1 CALLDATASIZE SUB DUP2 ADD SWAP1 PUSH2 0x2C7 SWAP2 SWAP1 PUSH2 0x3057 JUMP JUMPDEST PUSH2 0xD4E JUMP JUMPDEST STOP JUMPDEST PUSH2 0x2E8 PUSH1 0x4 DUP1 CALLDATASIZE SUB DUP2 ADD SWAP1 PUSH2 0x2E3 SWAP2 SWAP1 PUSH2 0x3084 JUMP JUMPDEST PUSH2 0xE0E JUMP JUMPDEST STOP JUMPDEST PUSH2 0x2F2 PUSH2 0x1119 JUMP JUMPDEST PUSH1 0x40 MLOAD PUSH2 0x2FF SWAP2 SWAP1 PUSH2 0x37F7 JUMP JUMPDEST PUSH1 0x40 MLOAD DUP1 SWAP2 SUB SWAP1 RETURN JUMPDEST PUSH2 0x322 PUSH1 0x4 DUP1 CALLDATASIZE SUB DUP2 ADD SWAP1 PUSH2 0x31D SWAP2 SWAP1 PUSH2 0x30DE JUMP JUMPDEST PUSH2 0x111F JUMP JUMPDEST PUSH1 0x40 MLOAD PUSH2 0x32F SWAP2 SWAP1 PUSH2 0x37F7 JUMP JUMPDEST PUSH1 0x40 MLOAD DUP1 SWAP2 SUB SWAP1 RETURN JUMPDEST PUSH2 0x352 PUSH1 0x4 DUP1 CALLDATASIZE SUB DUP2 ADD SWAP1 PUSH2 0x34D SWAP2 SWAP1 PUSH2 0x3084 JUMP JUMPDEST PUSH2 0x12BA JUMP JUMPDEST STOP JUMPDEST PUSH2 0x36E PUSH1 0x4 DUP1 CALLDATASIZE SUB DUP2 ADD SWAP1 PUSH2 0x369 SWAP2 SWAP1 PUSH2 0x3084 JUMP JUMPDEST PUSH2 0x147F JUMP JUMPDEST STOP JUMPDEST PUSH2 0x38A PUSH1 0x4 DUP1 CALLDATASIZE SUB DUP2 ADD SWAP1 PUSH2 0x385 SWAP2 SWAP1 PUSH2 0x3084 JUMP JUMPDEST PUSH2 0x15B8 JUMP JUMPDEST STOP JUMPDEST PUSH2 0x394 PUSH2 0x163E JUMP JUMPDEST STOP JUMPDEST PUSH2 0x3B0 PUSH1 0x4 DUP1 CALLDATASIZE SUB DUP2 ADD SWAP1 PUSH2 0x3AB SWAP2 SWAP1 PUSH2 0x3200 JUMP JUMPDEST PUSH2 0x1671 JUMP JUMPDEST STOP JUMPDEST PUSH2 0x3CC PUSH1 0x4 DUP1 CALLDATASIZE SUB DUP2 ADD SWAP1 PUSH2 0x3C7 SWAP2 SWAP1 PUSH2 0x311E JUMP JUMPDEST PUSH2 0x177D JUMP JUMPDEST STOP JUMPDEST PUSH2 0x3E8 PUSH1 0x4 DUP1 CALLDATASIZE SUB DUP2 ADD SWAP1 PUSH2 0x3E3 SWAP2 SWAP1 PUSH2 0x3084 JUMP JUMPDEST PUSH2 0x19F5 JUMP JUMPDEST STOP JUMPDEST PUSH2 0x404 PUSH1 0x4 DUP1 CALLDATASIZE SUB DUP2 ADD SWAP1 PUSH2 0x3FF SWAP2 SWAP1 PUSH2 0x3084 JUMP JUMPDEST PUSH2 0x1B2A JUMP JUMPDEST PUSH1 0x40 MLOAD PUSH2 0x411 SWAP2 SWAP1 PUSH2 0x37F7 JUMP JUMPDEST PUSH1 0x40 MLOAD DUP1 SWAP2 SUB SWAP1 RETURN JUMPDEST PUSH2 0x422 PUSH2 0x1B42 JUMP JUMPDEST STOP JUMPDEST PUSH2 0x42C PUSH2 0x1BCA JUMP JUMPDEST PUSH1 0x40 MLOAD PUSH2 0x439 SWAP2 SWAP1 PUSH2 0x363F JUMP JUMPDEST PUSH1 0x40 MLOAD DUP1 SWAP2 SUB SWAP1 RETURN JUMPDEST PUSH2 0x44A PUSH2 0x1BF0 JUMP JUMPDEST PUSH1 0x40 MLOAD PUSH2 0x457 SWAP2 SWAP1 PUSH2 0x37F7 JUMP JUMPDEST PUSH1 0x40 MLOAD DUP1 SWAP2 SUB SWAP1 RETURN JUMPDEST PUSH2 0x468 PUSH2 0x1BF6 JUMP JUMPDEST PUSH1 0x40 MLOAD PUSH2 0x475 SWAP2 SWAP1 PUSH2 0x3502 JUMP JUMPDEST PUSH1 0x40 MLOAD DUP1 SWAP2 SUB SWAP1 RETURN JUMPDEST PUSH2 0x498 PUSH1 0x4 DUP1 CALLDATASIZE SUB DUP2 ADD SWAP1 PUSH2 0x493 SWAP2 SWAP1 PUSH2 0x31C0 JUMP JUMPDEST PUSH2 0x1C1F JUMP JUMPDEST PUSH1 0x40 MLOAD PUSH2 0x4A5 SWAP2 SWAP1 PUSH2 0x37F7 JUMP JUMPDEST PUSH1 0x40 MLOAD DUP1 SWAP2 SUB SWAP1 RETURN JUMPDEST PUSH2 0x4C8 PUSH1 0x4 DUP1 CALLDATASIZE SUB DUP2 ADD SWAP1 PUSH2 0x4C3 SWAP2 SWAP1 PUSH2 0x30DE JUMP JUMPDEST PUSH2 0x1C50 JUMP JUMPDEST PUSH1 0x40 MLOAD PUSH2 0x4D6 SWAP3 SWAP2 SWAP1 PUSH2 0x3812 JUMP JUMPDEST PUSH1 0x40 MLOAD DUP1 SWAP2 SUB SWAP1 RETURN JUMPDEST PUSH2 0x4E7 PUSH2 0x1C81 JUMP JUMPDEST PUSH1 0x40 MLOAD PUSH2 0x4F4 SWAP2 SWAP1 PUSH2 0x37F7 JUMP JUMPDEST PUSH1 0x40 MLOAD DUP1 SWAP2 SUB SWAP1 RETURN JUMPDEST PUSH2 0x517 PUSH1 0x4 DUP1 CALLDATASIZE SUB DUP2 ADD SWAP1 PUSH2 0x512 SWAP2 SWAP1 PUSH2 0x3253 JUMP JUMPDEST PUSH2 0x1C87 JUMP JUMPDEST STOP JUMPDEST PUSH2 0x533 PUSH1 0x4 DUP1 CALLDATASIZE SUB DUP2 ADD SWAP1 PUSH2 0x52E SWAP2 SWAP1 PUSH2 0x2FD0 JUMP JUMPDEST PUSH2 0x214D JUMP JUMPDEST STOP JUMPDEST PUSH2 0x53D PUSH2 0x220D JUMP JUMPDEST PUSH1 0x40 MLOAD PUSH2 0x54A SWAP2 SWAP1 PUSH2 0x3502 JUMP JUMPDEST PUSH1 0x40 MLOAD DUP1 SWAP2 SUB SWAP1 RETURN JUMPDEST PUSH2 0x55B PUSH2 0x2233 JUMP JUMPDEST PUSH1 0x40 MLOAD PUSH2 0x568 SWAP2 SWAP1 PUSH2 0x365A JUMP JUMPDEST PUSH1 0x40 MLOAD DUP1 SWAP2 SUB SWAP1 RETURN JUMPDEST PUSH2 0x58B PUSH1 0x4 DUP1 CALLDATASIZE SUB DUP2 ADD SWAP1 PUSH2 0x586 SWAP2 SWAP1 PUSH2 0x3084 JUMP JUMPDEST PUSH2 0x2259 JUMP JUMPDEST STOP JUMPDEST PUSH2 0x5A7 PUSH1 0x4 DUP1 CALLDATASIZE SUB DUP2 ADD SWAP1 PUSH2 0x5A2 SWAP2 SWAP1 PUSH2 0x2FD0 JUMP JUMPDEST PUSH2 0x240F JUMP JUMPDEST STOP JUMPDEST PUSH1 0x0 PUSH1 0x7 DUP5 DUP2 SLOAD DUP2 LT PUSH2 0x5BF JUMPI PUSH2 0x5BE PUSH2 0x3B46 JUMP JUMPDEST JUMPDEST SWAP1 PUSH1 0x0 MSTORE PUSH1 0x20 PUSH1 0x0 KECCAK256 SWAP1 PUSH1 0x8 MUL ADD SWAP1 POP PUSH1 0x0 PUSH1 0x8 PUSH1 0x0 DUP7 DUP2 MSTORE PUSH1 0x20 ADD SWAP1 DUP2 MSTORE PUSH1 0x20 ADD PUSH1 0x0 KECCAK256 PUSH1 0x0 CALLER PUSH20 0xFFFFFFFFFFFFFFFFFFFFFFFFFFFFFFFFFFFFFFFF AND PUSH20 0xFFFFFFFFFFFFFFFFFFFFFFFFFFFFFFFFFFFFFFFF AND DUP2 MSTORE PUSH1 0x20 ADD SWAP1 DUP2 MSTORE PUSH1 0x20 ADD PUSH1 0x0 KECCAK256 SWAP1 POP PUSH2 0x62C DUP6 PUSH2 0x12BA JUMP JUMPDEST PUSH1 0x0 DUP2 PUSH1 0x0 ADD SLOAD GT ISZERO PUSH2 0x69B JUMPI PUSH1 0x0 PUSH2 0x683 DUP3 PUSH1 0x1 ADD SLOAD PUSH2 0x675 PUSH5 0xE8D4A51000 PUSH2 0x667 DUP8 PUSH1 0x3 ADD SLOAD DUP8 PUSH1 0x0 ADD SLOAD PUSH2 0x2507 SWAP1 SWAP2 SWAP1 PUSH4 0xFFFFFFFF AND JUMP JUMPDEST PUSH2 0x2582 SWAP1 SWAP2 SWAP1 PUSH4 0xFFFFFFFF AND JUMP JUMPDEST PUSH2 0x25CC SWAP1 SWAP2 SWAP1 PUSH4 0xFFFFFFFF AND JUMP JUMPDEST SWAP1 POP PUSH1 0x0 DUP2 GT ISZERO PUSH2 0x699 JUMPI PUSH2 0x698 CALLER DUP3 PUSH2 0x2616 JUMP JUMPDEST JUMPDEST POP JUMPDEST PUSH1 0x0 DUP3 PUSH1 0x0 ADD PUSH1 0x0 SWAP1 SLOAD SWAP1 PUSH2 0x100 EXP SWAP1 DIV PUSH20 0xFFFFFFFFFFFFFFFFFFFFFFFFFFFFFFFFFFFFFFFF AND PUSH20 0xFFFFFFFFFFFFFFFFFFFFFFFFFFFFFFFFFFFFFFFF AND PUSH4 0xDD62ED3E ADDRESS DUP6 PUSH1 0x4 ADD PUSH1 0x0 SWAP1 SLOAD SWAP1 PUSH2 0x100 EXP SWAP1 DIV PUSH20 0xFFFFFFFFFFFFFFFFFFFFFFFFFFFFFFFFFFFFFFFF AND PUSH1 0x40 MLOAD DUP4 PUSH4 0xFFFFFFFF AND PUSH1 0xE0 SHL DUP2 MSTORE PUSH1 0x4 ADD PUSH2 0x720 SWAP3 SWAP2 SWAP1 PUSH2 0x351D JUMP JUMPDEST PUSH1 0x20 PUSH1 0x40 MLOAD DUP1 DUP4 SUB DUP2 DUP7 DUP1 EXTCODESIZE ISZERO DUP1 ISZERO PUSH2 0x738 JUMPI PUSH1 0x0 DUP1 REVERT JUMPDEST POP GAS STATICCALL ISZERO DUP1 ISZERO PUSH2 0x74C JUMPI RETURNDATASIZE PUSH1 0x0 DUP1 RETURNDATACOPY RETURNDATASIZE PUSH1 0x0 REVERT JUMPDEST POP POP POP POP PUSH1 0x40 MLOAD RETURNDATASIZE PUSH1 0x1F NOT PUSH1 0x1F DUP3 ADD AND DUP3 ADD DUP1 PUSH1 0x40 MSTORE POP DUP2 ADD SWAP1 PUSH2 0x770 SWAP2 SWAP1 PUSH2 0x30B1 JUMP JUMPDEST GT PUSH2 0x77F JUMPI PUSH2 0x77E DUP6 PUSH2 0x2259 JUMP JUMPDEST JUMPDEST PUSH1 0x0 PUSH2 0x7AC PUSH2 0x3E8 PUSH2 0x79E DUP6 PUSH1 0x6 ADD SLOAD DUP8 PUSH2 0x2507 SWAP1 SWAP2 SWAP1 PUSH4 0xFFFFFFFF AND JUMP JUMPDEST PUSH2 0x2582 SWAP1 SWAP2 SWAP1 PUSH4 0xFFFFFFFF AND JUMP JUMPDEST SWAP1 POP PUSH1 0x0 PUSH2 0x7C3 DUP3 DUP7 PUSH2 0x25CC SWAP1 SWAP2 SWAP1 PUSH4 0xFFFFFFFF AND JUMP JUMPDEST SWAP1 POP PUSH2 0x816 CALLER ADDRESS DUP4 DUP8 PUSH1 0x0 ADD PUSH1 0x0 SWAP1 SLOAD SWAP1 PUSH2 0x100 EXP SWAP1 DIV PUSH20 0xFFFFFFFFFFFFFFFFFFFFFFFFFFFFFFFFFFFFFFFF AND PUSH20 0xFFFFFFFFFFFFFFFFFFFFFFFFFFFFFFFFFFFFFFFF AND PUSH2 0x2838 SWAP1 SWAP4 SWAP3 SWAP2 SWAP1 PUSH4 0xFFFFFFFF AND JUMP JUMPDEST PUSH2 0x889 CALLER PUSH1 0x3 PUSH1 0x0 SWAP1 SLOAD SWAP1 PUSH2 0x100 EXP SWAP1 DIV PUSH20 0xFFFFFFFFFFFFFFFFFFFFFFFFFFFFFFFFFFFFFFFF AND DUP5 DUP8 PUSH1 0x0 ADD PUSH1 0x0 SWAP1 SLOAD SWAP1 PUSH2 0x100 EXP SWAP1 DIV PUSH20 0xFFFFFFFFFFFFFFFFFFFFFFFFFFFFFFFFFFFFFFFF AND PUSH20 0xFFFFFFFFFFFFFFFFFFFFFFFFFFFFFFFFFFFFFFFF AND PUSH2 0x2838 SWAP1 SWAP4 SWAP3 SWAP2 SWAP1 PUSH4 0xFFFFFFFF AND JUMP JUMPDEST PUSH1 0x0 DUP5 PUSH1 0x7 ADD SLOAD EQ ISZERO PUSH2 0x92A JUMPI DUP4 PUSH1 0x4 ADD PUSH1 0x0 SWAP1 SLOAD SWAP1 PUSH2 0x100 EXP SWAP1 DIV PUSH20 0xFFFFFFFFFFFFFFFFFFFFFFFFFFFFFFFFFFFFFFFF AND PUSH20 0xFFFFFFFFFFFFFFFFFFFFFFFFFFFFFFFFFFFFFFFF AND PUSH4 0x41441D3B DUP3 PUSH1 0x40 MLOAD DUP3 PUSH4 0xFFFFFFFF AND PUSH1 0xE0 SHL DUP2 MSTORE PUSH1 0x4 ADD PUSH2 0x8F3 SWAP2 SWAP1 PUSH2 0x37F7 JUMP JUMPDEST PUSH1 0x0 PUSH1 0x40 MLOAD DUP1 DUP4 SUB DUP2 PUSH1 0x0 DUP8 DUP1 EXTCODESIZE ISZERO DUP1 ISZERO PUSH2 0x90D JUMPI PUSH1 0x0 DUP1 REVERT JUMPDEST POP GAS CALL ISZERO DUP1 ISZERO PUSH2 0x921 JUMPI RETURNDATASIZE PUSH1 0x0 DUP1 RETURNDATACOPY RETURNDATASIZE PUSH1 0x0 REVERT JUMPDEST POP POP POP POP PUSH2 0x9BC JUMP JUMPDEST DUP4 PUSH1 0x4 ADD PUSH1 0x0 SWAP1 SLOAD SWAP1 PUSH2 0x100 EXP SWAP1 DIV PUSH20 0xFFFFFFFFFFFFFFFFFFFFFFFFFFFFFFFFFFFFFFFF AND PUSH20 0xFFFFFFFFFFFFFFFFFFFFFFFFFFFFFFFFFFFFFFFF AND PUSH4 0xE2BBB158 DUP8 DUP4 PUSH1 0x40 MLOAD DUP4 PUSH4 0xFFFFFFFF AND PUSH1 0xE0 SHL DUP2 MSTORE PUSH1 0x4 ADD PUSH2 0x989 SWAP3 SWAP2 SWAP1 PUSH2 0x3812 JUMP JUMPDEST PUSH1 0x0 PUSH1 0x40 MLOAD DUP1 DUP4 SUB DUP2 PUSH1 0x0 DUP8 DUP1 EXTCODESIZE ISZERO DUP1 ISZERO PUSH2 0x9A3 JUMPI PUSH1 0x0 DUP1 REVERT JUMPDEST POP GAS CALL ISZERO DUP1 ISZERO PUSH2 0x9B7 JUMPI RETURNDATASIZE PUSH1 0x0 DUP1 RETURNDATACOPY RETURNDATASIZE PUSH1 0x0 REVERT JUMPDEST POP POP POP POP JUMPDEST PUSH2 0x9D3 DUP2 DUP5 PUSH1 0x0 ADD SLOAD PUSH2 0x28C1 SWAP1 SWAP2 SWAP1 PUSH4 0xFFFFFFFF AND JUMP JUMPDEST DUP4 PUSH1 0x0 ADD DUP2 SWAP1 SSTORE POP PUSH2 0xA01 DUP2 PUSH1 0xB PUSH1 0x0 DUP11 DUP2 MSTORE PUSH1 0x20 ADD SWAP1 DUP2 MSTORE PUSH1 0x20 ADD PUSH1 0x0 KECCAK256 SLOAD PUSH2 0x28C1 SWAP1 SWAP2 SWAP1 PUSH4 0xFFFFFFFF AND JUMP JUMPDEST PUSH1 0xB PUSH1 0x0 DUP10 DUP2 MSTORE PUSH1 0x20 ADD SWAP1 DUP2 MSTORE PUSH1 0x20 ADD PUSH1 0x0 KECCAK256 DUP2 SWAP1 SSTORE POP PUSH2 0xA4A PUSH5 0xE8D4A51000 PUSH2 0xA3C DUP7 PUSH1 0x3 ADD SLOAD DUP7 PUSH1 0x0 ADD SLOAD PUSH2 0x2507 SWAP1 SWAP2 SWAP1 PUSH4 0xFFFFFFFF AND JUMP JUMPDEST PUSH2 0x2582 SWAP1 SWAP2 SWAP1 PUSH4 0xFFFFFFFF AND JUMP JUMPDEST DUP4 PUSH1 0x1 ADD DUP2 SWAP1 SSTORE POP PUSH1 0x0 DUP5 PUSH1 0x5 ADD PUSH1 0x0 SWAP1 SLOAD SWAP1 PUSH2 0x100 EXP SWAP1 DIV PUSH20 0xFFFFFFFFFFFFFFFFFFFFFFFFFFFFFFFFFFFFFFFF AND PUSH20 0xFFFFFFFFFFFFFFFFFFFFFFFFFFFFFFFFFFFFFFFF AND PUSH4 0x70A08231 ADDRESS PUSH1 0x40 MLOAD DUP3 PUSH4 0xFFFFFFFF AND PUSH1 0xE0 SHL DUP2 MSTORE PUSH1 0x4 ADD PUSH2 0xAB1 SWAP2 SWAP1 PUSH2 0x3502 JUMP JUMPDEST PUSH1 0x20 PUSH1 0x40 MLOAD DUP1 DUP4 SUB DUP2 DUP7 DUP1 EXTCODESIZE ISZERO DUP1 ISZERO PUSH2 0xAC9 JUMPI PUSH1 0x0 DUP1 REVERT JUMPDEST POP GAS STATICCALL ISZERO DUP1 ISZERO PUSH2 0xADD JUMPI RETURNDATASIZE PUSH1 0x0 DUP1 RETURNDATACOPY RETURNDATASIZE PUSH1 0x0 REVERT JUMPDEST POP POP POP POP PUSH1 0x40 MLOAD RETURNDATASIZE PUSH1 0x1F NOT PUSH1 0x1F DUP3 ADD AND DUP3 ADD DUP1 PUSH1 0x40 MSTORE POP DUP2 ADD SWAP1 PUSH2 0xB01 SWAP2 SWAP1 PUSH2 0x30B1 JUMP JUMPDEST SWAP1 POP PUSH1 0x0 DUP2 GT ISZERO PUSH2 0xB7E JUMPI PUSH2 0xB7D PUSH1 0x3 PUSH1 0x0 SWAP1 SLOAD SWAP1 PUSH2 0x100 EXP SWAP1 DIV PUSH20 0xFFFFFFFFFFFFFFFFFFFFFFFFFFFFFFFFFFFFFFFF AND DUP3 DUP8 PUSH1 0x5 ADD PUSH1 0x0 SWAP1 SLOAD SWAP1 PUSH2 0x100 EXP SWAP1 DIV PUSH20 0xFFFFFFFFFFFFFFFFFFFFFFFFFFFFFFFFFFFFFFFF AND PUSH20 0xFFFFFFFFFFFFFFFFFFFFFFFFFFFFFFFFFFFFFFFF AND PUSH2 0x291F SWAP1 SWAP3 SWAP2 SWAP1 PUSH4 0xFFFFFFFF AND JUMP JUMPDEST JUMPDEST DUP8 CALLER PUSH20 0xFFFFFFFFFFFFFFFFFFFFFFFFFFFFFFFFFFFFFFFF AND PUSH32 0x90890809C654F11D6E72A28FA60149770A0D11EC6C92319D6CEB2BB0A4EA1A15 DUP5 PUSH1 0x40 MLOAD PUSH2 0xBC5 SWAP2 SWAP1 PUSH2 0x37F7 JUMP JUMPDEST PUSH1 0x40 MLOAD DUP1 SWAP2 SUB SWAP1 LOG3 POP POP POP POP POP POP POP POP JUMP JUMPDEST PUSH1 0x0 PUSH1 0x7 DUP1 SLOAD SWAP1 POP SWAP1 POP SWAP1 JUMP JUMPDEST PUSH2 0xBEC PUSH2 0x29A5 JUMP JUMPDEST PUSH20 0xFFFFFFFFFFFFFFFFFFFFFFFFFFFFFFFFFFFFFFFF AND PUSH2 0xC0A PUSH2 0x1BF6 JUMP JUMPDEST PUSH20 0xFFFFFFFFFFFFFFFFFFFFFFFFFFFFFFFFFFFFFFFF AND EQ PUSH2 0xC60 JUMPI PUSH1 0x40 MLOAD PUSH32 0x8C379A000000000000000000000000000000000000000000000000000000000 DUP2 MSTORE PUSH1 0x4 ADD PUSH2 0xC57 SWAP1 PUSH2 0x3717 JUMP JUMPDEST PUSH1 0x40 MLOAD DUP1 SWAP2 SUB SWAP1 REVERT JUMPDEST DUP1 PUSH1 0x4 DUP2 SWAP1 SSTORE POP POP JUMP JUMPDEST PUSH1 0x2 PUSH1 0x0 SWAP1 SLOAD SWAP1 PUSH2 0x100 EXP SWAP1 DIV PUSH20 0xFFFFFFFFFFFFFFFFFFFFFFFFFFFFFFFFFFFFFFFF AND DUP2 JUMP JUMPDEST PUSH1 0x7 DUP2 DUP2 SLOAD DUP2 LT PUSH2 0xCA0 JUMPI PUSH1 0x0 DUP1 REVERT JUMPDEST SWAP1 PUSH1 0x0 MSTORE PUSH1 0x20 PUSH1 0x0 KECCAK256 SWAP1 PUSH1 0x8 MUL ADD PUSH1 0x0 SWAP2 POP SWAP1 POP DUP1 PUSH1 0x0 ADD PUSH1 0x0 SWAP1 SLOAD SWAP1 PUSH2 0x100 EXP SWAP1 DIV PUSH20 0xFFFFFFFFFFFFFFFFFFFFFFFFFFFFFFFFFFFFFFFF AND SWAP1 DUP1 PUSH1 0x1 ADD SLOAD SWAP1 DUP1 PUSH1 0x2 ADD SLOAD SWAP1 DUP1 PUSH1 0x3 ADD SLOAD SWAP1 DUP1 PUSH1 0x4 ADD PUSH1 0x0 SWAP1 SLOAD SWAP1 PUSH2 0x100 EXP SWAP1 DIV PUSH20 0xFFFFFFFFFFFFFFFFFFFFFFFFFFFFFFFFFFFFFFFF AND SWAP1 DUP1 PUSH1 0x5 ADD PUSH1 0x0 SWAP1 SLOAD SWAP1 PUSH2 0x100 EXP SWAP1 DIV PUSH20 0xFFFFFFFFFFFFFFFFFFFFFFFFFFFFFFFFFFFFFFFF AND SWAP1 DUP1 PUSH1 0x6 ADD SLOAD SWAP1 DUP1 PUSH1 0x7 ADD SLOAD SWAP1 POP DUP9 JUMP JUMPDEST PUSH1 0x9 SLOAD DUP2 JUMP JUMPDEST PUSH2 0xD56 PUSH2 0x29A5 JUMP JUMPDEST PUSH20 0xFFFFFFFFFFFFFFFFFFFFFFFFFFFFFFFFFFFFFFFF AND PUSH2 0xD74 PUSH2 0x1BF6 JUMP JUMPDEST PUSH20 0xFFFFFFFFFFFFFFFFFFFFFFFFFFFFFFFFFFFFFFFF AND EQ PUSH2 0xDCA JUMPI PUSH1 0x40 MLOAD PUSH32 0x8C379A000000000000000000000000000000000000000000000000000000000 DUP2 MSTORE PUSH1 0x4 ADD PUSH2 0xDC1 SWAP1 PUSH2 0x3717 JUMP JUMPDEST PUSH1 0x40 MLOAD DUP1 SWAP2 SUB SWAP1 REVERT JUMPDEST DUP1 PUSH1 0x6 PUSH1 0x0 PUSH2 0x100 EXP DUP2 SLOAD DUP2 PUSH20 0xFFFFFFFFFFFFFFFFFFFFFFFFFFFFFFFFFFFFFFFF MUL NOT AND SWAP1 DUP4 PUSH20 0xFFFFFFFFFFFFFFFFFFFFFFFFFFFFFFFFFFFFFFFF AND MUL OR SWAP1 SSTORE POP POP JUMP JUMPDEST PUSH1 0x0 PUSH20 0xFFFFFFFFFFFFFFFFFFFFFFFFFFFFFFFFFFFFFFFF AND PUSH1 0x6 PUSH1 0x0 SWAP1 SLOAD SWAP1 PUSH2 0x100 EXP SWAP1 DIV PUSH20 0xFFFFFFFFFFFFFFFFFFFFFFFFFFFFFFFFFFFFFFFF AND PUSH20 0xFFFFFFFFFFFFFFFFFFFFFFFFFFFFFFFFFFFFFFFF AND EQ ISZERO PUSH2 0xEA0 JUMPI PUSH1 0x40 MLOAD PUSH32 0x8C379A000000000000000000000000000000000000000000000000000000000 DUP2 MSTORE PUSH1 0x4 ADD PUSH2 0xE97 SWAP1 PUSH2 0x37D7 JUMP JUMPDEST PUSH1 0x40 MLOAD DUP1 SWAP2 SUB SWAP1 REVERT JUMPDEST PUSH1 0x0 PUSH1 0x7 DUP3 DUP2 SLOAD DUP2 LT PUSH2 0xEB6 JUMPI PUSH2 0xEB5 PUSH2 0x3B46 JUMP JUMPDEST JUMPDEST SWAP1 PUSH1 0x0 MSTORE PUSH1 0x20 PUSH1 0x0 KECCAK256 SWAP1 PUSH1 0x8 MUL ADD SWAP1 POP PUSH1 0x0 DUP2 PUSH1 0x0 ADD PUSH1 0x0 SWAP1 SLOAD SWAP1 PUSH2 0x100 EXP SWAP1 DIV PUSH20 0xFFFFFFFFFFFFFFFFFFFFFFFFFFFFFFFFFFFFFFFF AND SWAP1 POP PUSH1 0x0 PUSH1 0xB PUSH1 0x0 DUP6 DUP2 MSTORE PUSH1 0x20 ADD SWAP1 DUP2 MSTORE PUSH1 0x20 ADD PUSH1 0x0 KECCAK256 SLOAD SWAP1 POP PUSH2 0xF54 PUSH1 0x6 PUSH1 0x0 SWAP1 SLOAD SWAP1 PUSH2 0x100 EXP SWAP1 DIV PUSH20 0xFFFFFFFFFFFFFFFFFFFFFFFFFFFFFFFFFFFFFFFF AND DUP3 DUP5 PUSH20 0xFFFFFFFFFFFFFFFFFFFFFFFFFFFFFFFFFFFFFFFF AND PUSH2 0x29AD SWAP1 SWAP3 SWAP2 SWAP1 PUSH4 0xFFFFFFFF AND JUMP JUMPDEST PUSH1 0x0 PUSH1 0x6 PUSH1 0x0 SWAP1 SLOAD SWAP1 PUSH2 0x100 EXP SWAP1 DIV PUSH20 0xFFFFFFFFFFFFFFFFFFFFFFFFFFFFFFFFFFFFFFFF AND PUSH20 0xFFFFFFFFFFFFFFFFFFFFFFFFFFFFFFFFFFFFFFFF AND PUSH4 0xCE5494BB DUP5 PUSH1 0x40 MLOAD DUP3 PUSH4 0xFFFFFFFF AND PUSH1 0xE0 SHL DUP2 MSTORE PUSH1 0x4 ADD PUSH2 0xFB1 SWAP2 SWAP1 PUSH2 0x35A6 JUMP JUMPDEST PUSH1 0x20 PUSH1 0x40 MLOAD DUP1 DUP4 SUB DUP2 PUSH1 0x0 DUP8 DUP1 EXTCODESIZE ISZERO DUP1 ISZERO PUSH2 0xFCB JUMPI PUSH1 0x0 DUP1 REVERT JUMPDEST POP GAS CALL ISZERO DUP1 ISZERO PUSH2 0xFDF JUMPI RETURNDATASIZE PUSH1 0x0 DUP1 RETURNDATACOPY RETURNDATASIZE PUSH1 0x0 REVERT JUMPDEST POP POP POP POP PUSH1 0x40 MLOAD RETURNDATASIZE PUSH1 0x1F NOT PUSH1 0x1F DUP3 ADD AND DUP3 ADD DUP1 PUSH1 0x40 MSTORE POP DUP2 ADD SWAP1 PUSH2 0x1003 SWAP2 SWAP1 PUSH2 0x302A JUMP JUMPDEST SWAP1 POP DUP1 PUSH20 0xFFFFFFFFFFFFFFFFFFFFFFFFFFFFFFFFFFFFFFFF AND PUSH4 0x70A08231 ADDRESS PUSH1 0x40 MLOAD DUP3 PUSH4 0xFFFFFFFF AND PUSH1 0xE0 SHL DUP2 MSTORE PUSH1 0x4 ADD PUSH2 0x103E SWAP2 SWAP1 PUSH2 0x3502 JUMP JUMPDEST PUSH1 0x20 PUSH1 0x40 MLOAD DUP1 DUP4 SUB DUP2 DUP7 DUP1 EXTCODESIZE ISZERO DUP1 ISZERO PUSH2 0x1056 JUMPI PUSH1 0x0 DUP1 REVERT JUMPDEST POP GAS STATICCALL ISZERO DUP1 ISZERO PUSH2 0x106A JUMPI RETURNDATASIZE PUSH1 0x0 DUP1 RETURNDATACOPY RETURNDATASIZE PUSH1 0x0 REVERT JUMPDEST POP POP POP POP PUSH1 0x40 MLOAD RETURNDATASIZE PUSH1 0x1F NOT PUSH1 0x1F DUP3 ADD AND DUP3 ADD DUP1 PUSH1 0x40 MSTORE POP DUP2 ADD SWAP1 PUSH2 0x108E SWAP2 SWAP1 PUSH2 0x30B1 JUMP JUMPDEST DUP3 EQ PUSH2 0x10CF JUMPI PUSH1 0x40 MLOAD PUSH32 0x8C379A000000000000000000000000000000000000000000000000000000000 DUP2 MSTORE PUSH1 0x4 ADD PUSH2 0x10C6 SWAP1 PUSH2 0x3797 JUMP JUMPDEST PUSH1 0x40 MLOAD DUP1 SWAP2 SUB SWAP1 REVERT JUMPDEST DUP1 DUP5 PUSH1 0x0 ADD PUSH1 0x0 PUSH2 0x100 EXP DUP2 SLOAD DUP2 PUSH20 0xFFFFFFFFFFFFFFFFFFFFFFFFFFFFFFFFFFFFFFFF MUL NOT AND SWAP1 DUP4 PUSH20 0xFFFFFFFFFFFFFFFFFFFFFFFFFFFFFFFFFFFFFFFF AND MUL OR SWAP1 SSTORE POP POP POP POP POP POP JUMP JUMPDEST PUSH1 0xA SLOAD DUP2 JUMP JUMPDEST PUSH1 0x0 DUP1 PUSH1 0x7 DUP5 DUP2 SLOAD DUP2 LT PUSH2 0x1136 JUMPI PUSH2 0x1135 PUSH2 0x3B46 JUMP JUMPDEST JUMPDEST SWAP1 PUSH1 0x0 MSTORE PUSH1 0x20 PUSH1 0x0 KECCAK256 SWAP1 PUSH1 0x8 MUL ADD SWAP1 POP PUSH1 0x0 PUSH1 0x8 PUSH1 0x0 DUP7 DUP2 MSTORE PUSH1 0x20 ADD SWAP1 DUP2 MSTORE PUSH1 0x20 ADD PUSH1 0x0 KECCAK256 PUSH1 0x0 DUP6 PUSH20 0xFFFFFFFFFFFFFFFFFFFFFFFFFFFFFFFFFFFFFFFF AND PUSH20 0xFFFFFFFFFFFFFFFFFFFFFFFFFFFFFFFFFFFFFFFF AND DUP2 MSTORE PUSH1 0x20 ADD SWAP1 DUP2 MSTORE PUSH1 0x20 ADD PUSH1 0x0 KECCAK256 SWAP1 POP PUSH1 0x0 DUP3 PUSH1 0x3 ADD SLOAD SWAP1 POP PUSH1 0x0 PUSH1 0xB PUSH1 0x0 DUP9 DUP2 MSTORE PUSH1 0x20 ADD SWAP1 DUP2 MSTORE PUSH1 0x20 ADD PUSH1 0x0 KECCAK256 SLOAD SWAP1 POP DUP4 PUSH1 0x2 ADD SLOAD NUMBER GT DUP1 ISZERO PUSH2 0x11CF JUMPI POP PUSH1 0x0 DUP2 EQ ISZERO JUMPDEST ISZERO PUSH2 0x126A JUMPI PUSH1 0x0 PUSH2 0x11E4 DUP6 PUSH1 0x2 ADD SLOAD NUMBER PUSH2 0x1C1F JUMP JUMPDEST SWAP1 POP PUSH1 0x0 PUSH2 0x1227 PUSH1 0x9 SLOAD PUSH2 0x1219 DUP9 PUSH1 0x1 ADD SLOAD PUSH2 0x120B PUSH1 0x4 SLOAD DUP8 PUSH2 0x2507 SWAP1 SWAP2 SWAP1 PUSH4 0xFFFFFFFF AND JUMP JUMPDEST PUSH2 0x2507 SWAP1 SWAP2 SWAP1 PUSH4 0xFFFFFFFF AND JUMP JUMPDEST PUSH2 0x2582 SWAP1 SWAP2 SWAP1 PUSH4 0xFFFFFFFF AND JUMP JUMPDEST SWAP1 POP PUSH2 0x1265 PUSH2 0x1256 DUP5 PUSH2 0x1248 PUSH5 0xE8D4A51000 DUP6 PUSH2 0x2507 SWAP1 SWAP2 SWAP1 PUSH4 0xFFFFFFFF AND JUMP JUMPDEST PUSH2 0x2582 SWAP1 SWAP2 SWAP1 PUSH4 0xFFFFFFFF AND JUMP JUMPDEST DUP6 PUSH2 0x28C1 SWAP1 SWAP2 SWAP1 PUSH4 0xFFFFFFFF AND JUMP JUMPDEST SWAP4 POP POP POP JUMPDEST PUSH2 0x12AE DUP4 PUSH1 0x1 ADD SLOAD PUSH2 0x12A0 PUSH5 0xE8D4A51000 PUSH2 0x1292 DUP7 DUP9 PUSH1 0x0 ADD SLOAD PUSH2 0x2507 SWAP1 SWAP2 SWAP1 PUSH4 0xFFFFFFFF AND JUMP JUMPDEST PUSH2 0x2582 SWAP1 SWAP2 SWAP1 PUSH4 0xFFFFFFFF AND JUMP JUMPDEST PUSH2 0x25CC SWAP1 SWAP2 SWAP1 PUSH4 0xFFFFFFFF AND JUMP JUMPDEST SWAP5 POP POP POP POP POP SWAP3 SWAP2 POP POP JUMP JUMPDEST PUSH1 0x0 PUSH1 0x7 DUP3 DUP2 SLOAD DUP2 LT PUSH2 0x12D0 JUMPI PUSH2 0x12CF PUSH2 0x3B46 JUMP JUMPDEST JUMPDEST SWAP1 PUSH1 0x0 MSTORE PUSH1 0x20 PUSH1 0x0 KECCAK256 SWAP1 PUSH1 0x8 MUL ADD SWAP1 POP DUP1 PUSH1 0x2 ADD SLOAD NUMBER GT PUSH2 0x12F1 JUMPI POP PUSH2 0x147C JUMP JUMPDEST PUSH1 0x0 PUSH1 0xB PUSH1 0x0 DUP5 DUP2 MSTORE PUSH1 0x20 ADD SWAP1 DUP2 MSTORE PUSH1 0x20 ADD PUSH1 0x0 KECCAK256 SLOAD SWAP1 POP PUSH1 0x0 DUP2 GT PUSH2 0x1321 JUMPI NUMBER DUP3 PUSH1 0x2 ADD DUP2 SWAP1 SSTORE POP POP POP PUSH2 0x147C JUMP JUMPDEST PUSH1 0x0 PUSH2 0x1331 DUP4 PUSH1 0x2 ADD SLOAD NUMBER PUSH2 0x1C1F JUMP JUMPDEST SWAP1 POP PUSH1 0x0 PUSH2 0x1374 PUSH1 0x9 SLOAD PUSH2 0x1366 DUP7 PUSH1 0x1 ADD SLOAD PUSH2 0x1358 PUSH1 0x4 SLOAD DUP8 PUSH2 0x2507 SWAP1 SWAP2 SWAP1 PUSH4 0xFFFFFFFF AND JUMP JUMPDEST PUSH2 0x2507 SWAP1 SWAP2 SWAP1 PUSH4 0xFFFFFFFF AND JUMP JUMPDEST PUSH2 0x2582 SWAP1 SWAP2 SWAP1 PUSH4 0xFFFFFFFF AND JUMP JUMPDEST SWAP1 POP PUSH1 0x2 PUSH1 0x0 SWAP1 SLOAD SWAP1 PUSH2 0x100 EXP SWAP1 DIV PUSH20 0xFFFFFFFFFFFFFFFFFFFFFFFFFFFFFFFFFFFFFFFF AND PUSH20 0xFFFFFFFFFFFFFFFFFFFFFFFFFFFFFFFFFFFFFFFF AND PUSH4 0x40C10F19 ADDRESS DUP4 PUSH1 0x40 MLOAD DUP4 PUSH4 0xFFFFFFFF AND PUSH1 0xE0 SHL DUP2 MSTORE PUSH1 0x4 ADD PUSH2 0x13D3 SWAP3 SWAP2 SWAP1 PUSH2 0x357D JUMP JUMPDEST PUSH1 0x20 PUSH1 0x40 MLOAD DUP1 DUP4 SUB DUP2 PUSH1 0x0 DUP8 DUP1 EXTCODESIZE ISZERO DUP1 ISZERO PUSH2 0x13ED JUMPI PUSH1 0x0 DUP1 REVERT JUMPDEST POP GAS CALL ISZERO DUP1 ISZERO PUSH2 0x1401 JUMPI RETURNDATASIZE PUSH1 0x0 DUP1 RETURNDATACOPY RETURNDATASIZE PUSH1 0x0 REVERT JUMPDEST POP POP POP POP PUSH1 0x40 MLOAD RETURNDATASIZE PUSH1 0x1F NOT PUSH1 0x1F DUP3 ADD AND DUP3 ADD DUP1 PUSH1 0x40 MSTORE POP DUP2 ADD SWAP1 PUSH2 0x1425 SWAP2 SWAP1 PUSH2 0x2FFD JUMP JUMPDEST POP PUSH2 0x1466 PUSH2 0x1453 DUP5 PUSH2 0x1445 PUSH5 0xE8D4A51000 DUP6 PUSH2 0x2507 SWAP1 SWAP2 SWAP1 PUSH4 0xFFFFFFFF AND JUMP JUMPDEST PUSH2 0x2582 SWAP1 SWAP2 SWAP1 PUSH4 0xFFFFFFFF AND JUMP JUMPDEST DUP6 PUSH1 0x3 ADD SLOAD PUSH2 0x28C1 SWAP1 SWAP2 SWAP1 PUSH4 0xFFFFFFFF AND JUMP JUMPDEST DUP5 PUSH1 0x3 ADD DUP2 SWAP1 SSTORE POP NUMBER DUP5 PUSH1 0x2 ADD DUP2 SWAP1 SSTORE POP POP POP POP POP JUMPDEST POP JUMP JUMPDEST PUSH1 0x0 PUSH1 0x7 DUP3 DUP2 SLOAD DUP2 LT PUSH2 0x1495 JUMPI PUSH2 0x1494 PUSH2 0x3B46 JUMP JUMPDEST JUMPDEST SWAP1 PUSH1 0x0 MSTORE PUSH1 0x20 PUSH1 0x0 KECCAK256 SWAP1 PUSH1 0x8 MUL ADD SWAP1 POP PUSH1 0x0 PUSH1 0x8 PUSH1 0x0 DUP5 DUP2 MSTORE PUSH1 0x20 ADD SWAP1 DUP2 MSTORE PUSH1 0x20 ADD PUSH1 0x0 KECCAK256 PUSH1 0x0 CALLER PUSH20 0xFFFFFFFFFFFFFFFFFFFFFFFFFFFFFFFFFFFFFFFF AND PUSH20 0xFFFFFFFFFFFFFFFFFFFFFFFFFFFFFFFFFFFFFFFF AND DUP2 MSTORE PUSH1 0x20 ADD SWAP1 DUP2 MSTORE PUSH1 0x20 ADD PUSH1 0x0 KECCAK256 SWAP1 POP PUSH2 0x154C CALLER DUP3 PUSH1 0x0 ADD SLOAD DUP5 PUSH1 0x0 ADD PUSH1 0x0 SWAP1 SLOAD SWAP1 PUSH2 0x100 EXP SWAP1 DIV PUSH20 0xFFFFFFFFFFFFFFFFFFFFFFFFFFFFFFFFFFFFFFFF AND PUSH20 0xFFFFFFFFFFFFFFFFFFFFFFFFFFFFFFFFFFFFFFFF AND PUSH2 0x291F SWAP1 SWAP3 SWAP2 SWAP1 PUSH4 0xFFFFFFFF AND JUMP JUMPDEST DUP3 CALLER PUSH20 0xFFFFFFFFFFFFFFFFFFFFFFFFFFFFFFFFFFFFFFFF AND PUSH32 0xBB757047C2B5F3974FE26B7C10F732E7BCE710B0952A71082702781E62AE0595 DUP4 PUSH1 0x0 ADD SLOAD PUSH1 0x40 MLOAD PUSH2 0x1597 SWAP2 SWAP1 PUSH2 0x37F7 JUMP JUMPDEST PUSH1 0x40 MLOAD DUP1 SWAP2 SUB SWAP1 LOG3 PUSH1 0x0 DUP2 PUSH1 0x0 ADD DUP2 SWAP1 SSTORE POP PUSH1 0x0 DUP2 PUSH1 0x1 ADD DUP2 SWAP1 SSTORE POP POP POP POP JUMP JUMPDEST PUSH2 0x15C0 PUSH2 0x29A5 JUMP JUMPDEST PUSH20 0xFFFFFFFFFFFFFFFFFFFFFFFFFFFFFFFFFFFFFFFF AND PUSH2 0x15DE PUSH2 0x1BF6 JUMP JUMPDEST PUSH20 0xFFFFFFFFFFFFFFFFFFFFFFFFFFFFFFFFFFFFFFFF AND EQ PUSH2 0x1634 JUMPI PUSH1 0x40 MLOAD PUSH32 0x8C379A000000000000000000000000000000000000000000000000000000000 DUP2 MSTORE PUSH1 0x4 ADD PUSH2 0x162B SWAP1 PUSH2 0x3717 JUMP JUMPDEST PUSH1 0x40 MLOAD DUP1 SWAP2 SUB SWAP1 REVERT JUMPDEST DUP1 PUSH1 0x5 DUP2 SWAP1 SSTORE POP POP JUMP JUMPDEST PUSH1 0x0 PUSH1 0x7 DUP1 SLOAD SWAP1 POP SWAP1 POP PUSH1 0x0 JUMPDEST DUP2 DUP2 LT ISZERO PUSH2 0x166D JUMPI PUSH2 0x165C DUP2 PUSH2 0x12BA JUMP JUMPDEST DUP1 PUSH2 0x1666 SWAP1 PUSH2 0x3A9F JUMP JUMPDEST SWAP1 POP PUSH2 0x164B JUMP JUMPDEST POP POP JUMP JUMPDEST PUSH2 0x1679 PUSH2 0x29A5 JUMP JUMPDEST PUSH20 0xFFFFFFFFFFFFFFFFFFFFFFFFFFFFFFFFFFFFFFFF AND PUSH2 0x1697 PUSH2 0x1BF6 JUMP JUMPDEST PUSH20 0xFFFFFFFFFFFFFFFFFFFFFFFFFFFFFFFFFFFFFFFF AND EQ PUSH2 0x16ED JUMPI PUSH1 0x40 MLOAD PUSH32 0x8C379A000000000000000000000000000000000000000000000000000000000 DUP2 MSTORE PUSH1 0x4 ADD PUSH2 0x16E4 SWAP1 PUSH2 0x3717 JUMP JUMPDEST PUSH1 0x40 MLOAD DUP1 SWAP2 SUB SWAP1 REVERT JUMPDEST DUP1 ISZERO PUSH2 0x16FC JUMPI PUSH2 0x16FB PUSH2 0x163E JUMP JUMPDEST JUMPDEST PUSH2 0x1748 DUP3 PUSH2 0x173A PUSH1 0x7 DUP7 DUP2 SLOAD DUP2 LT PUSH2 0x1717 JUMPI PUSH2 0x1716 PUSH2 0x3B46 JUMP JUMPDEST JUMPDEST SWAP1 PUSH1 0x0 MSTORE PUSH1 0x20 PUSH1 0x0 KECCAK256 SWAP1 PUSH1 0x8 MUL ADD PUSH1 0x1 ADD SLOAD PUSH1 0x9 SLOAD PUSH2 0x25CC SWAP1 SWAP2 SWAP1 PUSH4 0xFFFFFFFF AND JUMP JUMPDEST PUSH2 0x28C1 SWAP1 SWAP2 SWAP1 PUSH4 0xFFFFFFFF AND JUMP JUMPDEST PUSH1 0x9 DUP2 SWAP1 SSTORE POP DUP2 PUSH1 0x7 DUP5 DUP2 SLOAD DUP2 LT PUSH2 0x1763 JUMPI PUSH2 0x1762 PUSH2 0x3B46 JUMP JUMPDEST JUMPDEST SWAP1 PUSH1 0x0 MSTORE PUSH1 0x20 PUSH1 0x0 KECCAK256 SWAP1 PUSH1 0x8 MUL ADD PUSH1 0x1 ADD DUP2 SWAP1 SSTORE POP POP POP POP JUMP JUMPDEST PUSH2 0x1785 PUSH2 0x29A5 JUMP JUMPDEST PUSH20 0xFFFFFFFFFFFFFFFFFFFFFFFFFFFFFFFFFFFFFFFF AND PUSH2 0x17A3 PUSH2 0x1BF6 JUMP JUMPDEST PUSH20 0xFFFFFFFFFFFFFFFFFFFFFFFFFFFFFFFFFFFFFFFF AND EQ PUSH2 0x17F9 JUMPI PUSH1 0x40 MLOAD PUSH32 0x8C379A000000000000000000000000000000000000000000000000000000000 DUP2 MSTORE PUSH1 0x4 ADD PUSH2 0x17F0 SWAP1 PUSH2 0x3717 JUMP JUMPDEST PUSH1 0x40 MLOAD DUP1 SWAP2 SUB SWAP1 REVERT JUMPDEST DUP5 ISZERO PUSH2 0x1808 JUMPI PUSH2 0x1807 PUSH2 0x163E JUMP JUMPDEST JUMPDEST PUSH1 0x0 PUSH1 0xA SLOAD NUMBER GT PUSH2 0x181B JUMPI PUSH1 0xA SLOAD PUSH2 0x181D JUMP JUMPDEST NUMBER JUMPDEST SWAP1 POP PUSH2 0x1834 DUP9 PUSH1 0x9 SLOAD PUSH2 0x28C1 SWAP1 SWAP2 SWAP1 PUSH4 0xFFFFFFFF AND JUMP JUMPDEST PUSH1 0x9 DUP2 SWAP1 SSTORE POP PUSH1 0x7 PUSH1 0x40 MLOAD DUP1 PUSH2 0x100 ADD PUSH1 0x40 MSTORE DUP1 DUP10 PUSH20 0xFFFFFFFFFFFFFFFFFFFFFFFFFFFFFFFFFFFFFFFF AND DUP2 MSTORE PUSH1 0x20 ADD DUP11 DUP2 MSTORE PUSH1 0x20 ADD DUP4 DUP2 MSTORE PUSH1 0x20 ADD PUSH1 0x0 DUP2 MSTORE PUSH1 0x20 ADD DUP8 PUSH20 0xFFFFFFFFFFFFFFFFFFFFFFFFFFFFFFFFFFFFFFFF AND DUP2 MSTORE PUSH1 0x20 ADD DUP7 PUSH20 0xFFFFFFFFFFFFFFFFFFFFFFFFFFFFFFFFFFFFFFFF AND DUP2 MSTORE PUSH1 0x20 ADD DUP6 DUP2 MSTORE PUSH1 0x20 ADD DUP5 DUP2 MSTORE POP SWAP1 DUP1 PUSH1 0x1 DUP2 SLOAD ADD DUP1 DUP3 SSTORE DUP1 SWAP2 POP POP PUSH1 0x1 SWAP1 SUB SWAP1 PUSH1 0x0 MSTORE PUSH1 0x20 PUSH1 0x0 KECCAK256 SWAP1 PUSH1 0x8 MUL ADD PUSH1 0x0 SWAP1 SWAP2 SWAP1 SWAP2 SWAP1 SWAP2 POP PUSH1 0x0 DUP3 ADD MLOAD DUP2 PUSH1 0x0 ADD PUSH1 0x0 PUSH2 0x100 EXP DUP2 SLOAD DUP2 PUSH20 0xFFFFFFFFFFFFFFFFFFFFFFFFFFFFFFFFFFFFFFFF MUL NOT AND SWAP1 DUP4 PUSH20 0xFFFFFFFFFFFFFFFFFFFFFFFFFFFFFFFFFFFFFFFF AND MUL OR SWAP1 SSTORE POP PUSH1 0x20 DUP3 ADD MLOAD DUP2 PUSH1 0x1 ADD SSTORE PUSH1 0x40 DUP3 ADD MLOAD DUP2 PUSH1 0x2 ADD SSTORE PUSH1 0x60 DUP3 ADD MLOAD DUP2 PUSH1 0x3 ADD SSTORE PUSH1 0x80 DUP3 ADD MLOAD DUP2 PUSH1 0x4 ADD PUSH1 0x0 PUSH2 0x100 EXP DUP2 SLOAD DUP2 PUSH20 0xFFFFFFFFFFFFFFFFFFFFFFFFFFFFFFFFFFFFFFFF MUL NOT AND SWAP1 DUP4 PUSH20 0xFFFFFFFFFFFFFFFFFFFFFFFFFFFFFFFFFFFFFFFF AND MUL OR SWAP1 SSTORE POP PUSH1 0xA0 DUP3 ADD MLOAD DUP2 PUSH1 0x5 ADD PUSH1 0x0 PUSH2 0x100 EXP DUP2 SLOAD DUP2 PUSH20 0xFFFFFFFFFFFFFFFFFFFFFFFFFFFFFFFFFFFFFFFF MUL NOT AND SWAP1 DUP4 PUSH20 0xFFFFFFFFFFFFFFFFFFFFFFFFFFFFFFFFFFFFFFFF AND MUL OR SWAP1 SSTORE POP PUSH1 0xC0 DUP3 ADD MLOAD DUP2 PUSH1 0x6 ADD SSTORE PUSH1 0xE0 DUP3 ADD MLOAD DUP2 PUSH1 0x7 ADD SSTORE POP POP POP POP POP POP POP POP POP POP JUMP JUMPDEST PUSH2 0x19FD PUSH2 0x29A5 JUMP JUMPDEST PUSH20 0xFFFFFFFFFFFFFFFFFFFFFFFFFFFFFFFFFFFFFFFF AND PUSH2 0x1A1B PUSH2 0x1BF6 JUMP JUMPDEST PUSH20 0xFFFFFFFFFFFFFFFFFFFFFFFFFFFFFFFFFFFFFFFF AND EQ PUSH2 0x1A71 JUMPI PUSH1 0x40 MLOAD PUSH32 0x8C379A000000000000000000000000000000000000000000000000000000000 DUP2 MSTORE PUSH1 0x4 ADD PUSH2 0x1A68 SWAP1 PUSH2 0x3717 JUMP JUMPDEST PUSH1 0x40 MLOAD DUP1 SWAP2 SUB SWAP1 REVERT JUMPDEST PUSH1 0x0 PUSH1 0x7 DUP3 DUP2 SLOAD DUP2 LT PUSH2 0x1A87 JUMPI PUSH2 0x1A86 PUSH2 0x3B46 JUMP JUMPDEST JUMPDEST SWAP1 PUSH1 0x0 MSTORE PUSH1 0x20 PUSH1 0x0 KECCAK256 SWAP1 PUSH1 0x8 MUL ADD SWAP1 POP DUP1 PUSH1 0x4 ADD PUSH1 0x0 SWAP1 SLOAD SWAP1 PUSH2 0x100 EXP SWAP1 DIV PUSH20 0xFFFFFFFFFFFFFFFFFFFFFFFFFFFFFFFFFFFFFFFF AND PUSH20 0xFFFFFFFFFFFFFFFFFFFFFFFFFFFFFFFFFFFFFFFF AND PUSH4 0x5312EA8E DUP4 PUSH1 0x40 MLOAD DUP3 PUSH4 0xFFFFFFFF AND PUSH1 0xE0 SHL DUP2 MSTORE PUSH1 0x4 ADD PUSH2 0x1AF4 SWAP2 SWAP1 PUSH2 0x37F7 JUMP JUMPDEST PUSH1 0x0 PUSH1 0x40 MLOAD DUP1 DUP4 SUB DUP2 PUSH1 0x0 DUP8 DUP1 EXTCODESIZE ISZERO DUP1 ISZERO PUSH2 0x1B0E JUMPI PUSH1 0x0 DUP1 REVERT JUMPDEST POP GAS CALL ISZERO DUP1 ISZERO PUSH2 0x1B22 JUMPI RETURNDATASIZE PUSH1 0x0 DUP1 RETURNDATACOPY RETURNDATASIZE PUSH1 0x0 REVERT JUMPDEST POP POP POP POP POP POP JUMP JUMPDEST PUSH1 0xB PUSH1 0x20 MSTORE DUP1 PUSH1 0x0 MSTORE PUSH1 0x40 PUSH1 0x0 KECCAK256 PUSH1 0x0 SWAP2 POP SWAP1 POP SLOAD DUP2 JUMP JUMPDEST PUSH2 0x1B4A PUSH2 0x29A5 JUMP JUMPDEST PUSH20 0xFFFFFFFFFFFFFFFFFFFFFFFFFFFFFFFFFFFFFFFF AND PUSH2 0x1B68 PUSH2 0x1BF6 JUMP JUMPDEST PUSH20 0xFFFFFFFFFFFFFFFFFFFFFFFFFFFFFFFFFFFFFFFF AND EQ PUSH2 0x1BBE JUMPI PUSH1 0x40 MLOAD PUSH32 0x8C379A000000000000000000000000000000000000000000000000000000000 DUP2 MSTORE PUSH1 0x4 ADD PUSH2 0x1BB5 SWAP1 PUSH2 0x3717 JUMP JUMPDEST PUSH1 0x40 MLOAD DUP1 SWAP2 SUB SWAP1 REVERT JUMPDEST PUSH2 0x1BC8 PUSH1 0x0 PUSH2 0x2B0B JUMP JUMPDEST JUMP JUMPDEST PUSH1 0x6 PUSH1 0x0 SWAP1 SLOAD SWAP1 PUSH2 0x100 EXP SWAP1 DIV PUSH20 0xFFFFFFFFFFFFFFFFFFFFFFFFFFFFFFFFFFFFFFFF AND DUP2 JUMP JUMPDEST PUSH1 0x5 SLOAD DUP2 JUMP JUMPDEST PUSH1 0x0 DUP1 PUSH1 0x0 SWAP1 SLOAD SWAP1 PUSH2 0x100 EXP SWAP1 DIV PUSH20 0xFFFFFFFFFFFFFFFFFFFFFFFFFFFFFFFFFFFFFFFF AND SWAP1 POP SWAP1 JUMP JUMPDEST PUSH1 0x0 PUSH2 0x1C48 PUSH1 0x5 SLOAD PUSH2 0x1C3A DUP6 DUP6 PUSH2 0x25CC SWAP1 SWAP2 SWAP1 PUSH4 0xFFFFFFFF AND JUMP JUMPDEST PUSH2 0x2507 SWAP1 SWAP2 SWAP1 PUSH4 0xFFFFFFFF AND JUMP JUMPDEST SWAP1 POP SWAP3 SWAP2 POP POP JUMP JUMPDEST PUSH1 0x8 PUSH1 0x20 MSTORE DUP2 PUSH1 0x0 MSTORE PUSH1 0x40 PUSH1 0x0 KECCAK256 PUSH1 0x20 MSTORE DUP1 PUSH1 0x0 MSTORE PUSH1 0x40 PUSH1 0x0 KECCAK256 PUSH1 0x0 SWAP2 POP SWAP2 POP POP DUP1 PUSH1 0x0 ADD SLOAD SWAP1 DUP1 PUSH1 0x1 ADD SLOAD SWAP1 POP DUP3 JUMP JUMPDEST PUSH1 0x4 SLOAD DUP2 JUMP JUMPDEST PUSH1 0x0 PUSH1 0x7 DUP5 DUP2 SLOAD DUP2 LT PUSH2 0x1C9D JUMPI PUSH2 0x1C9C PUSH2 0x3B46 JUMP JUMPDEST JUMPDEST SWAP1 PUSH1 0x0 MSTORE PUSH1 0x20 PUSH1 0x0 KECCAK256 SWAP1 PUSH1 0x8 MUL ADD SWAP1 POP PUSH1 0x0 PUSH1 0x8 PUSH1 0x0 DUP7 DUP2 MSTORE PUSH1 0x20 ADD SWAP1 DUP2 MSTORE PUSH1 0x20 ADD PUSH1 0x0 KECCAK256 PUSH1 0x0 CALLER PUSH20 0xFFFFFFFFFFFFFFFFFFFFFFFFFFFFFFFFFFFFFFFF AND PUSH20 0xFFFFFFFFFFFFFFFFFFFFFFFFFFFFFFFFFFFFFFFF AND DUP2 MSTORE PUSH1 0x20 ADD SWAP1 DUP2 MSTORE PUSH1 0x20 ADD PUSH1 0x0 KECCAK256 SWAP1 POP DUP3 DUP2 PUSH1 0x0 ADD SLOAD LT ISZERO PUSH2 0x1D48 JUMPI PUSH1 0x40 MLOAD PUSH32 0x8C379A000000000000000000000000000000000000000000000000000000000 DUP2 MSTORE PUSH1 0x4 ADD PUSH2 0x1D3F SWAP1 PUSH2 0x3757 JUMP JUMPDEST PUSH1 0x40 MLOAD DUP1 SWAP2 SUB SWAP1 REVERT JUMPDEST PUSH2 0x1D51 DUP6 PUSH2 0x12BA JUMP JUMPDEST PUSH1 0x0 PUSH2 0x1D9B DUP3 PUSH1 0x1 ADD SLOAD PUSH2 0x1D8D PUSH5 0xE8D4A51000 PUSH2 0x1D7F DUP8 PUSH1 0x3 ADD SLOAD DUP8 PUSH1 0x0 ADD SLOAD PUSH2 0x2507 SWAP1 SWAP2 SWAP1 PUSH4 0xFFFFFFFF AND JUMP JUMPDEST PUSH2 0x2582 SWAP1 SWAP2 SWAP1 PUSH4 0xFFFFFFFF AND JUMP JUMPDEST PUSH2 0x25CC SWAP1 SWAP2 SWAP1 PUSH4 0xFFFFFFFF AND JUMP JUMPDEST SWAP1 POP PUSH1 0x0 DUP2 GT ISZERO PUSH2 0x1DB1 JUMPI PUSH2 0x1DB0 CALLER DUP3 PUSH2 0x2616 JUMP JUMPDEST JUMPDEST PUSH2 0x1DC8 DUP5 DUP4 PUSH1 0x0 ADD SLOAD PUSH2 0x25CC SWAP1 SWAP2 SWAP1 PUSH4 0xFFFFFFFF AND JUMP JUMPDEST DUP3 PUSH1 0x0 ADD DUP2 SWAP1 SSTORE POP PUSH2 0x1DF6 DUP5 PUSH1 0xB PUSH1 0x0 DUP10 DUP2 MSTORE PUSH1 0x20 ADD SWAP1 DUP2 MSTORE PUSH1 0x20 ADD PUSH1 0x0 KECCAK256 SLOAD PUSH2 0x25CC SWAP1 SWAP2 SWAP1 PUSH4 0xFFFFFFFF AND JUMP JUMPDEST PUSH1 0xB PUSH1 0x0 DUP9 DUP2 MSTORE PUSH1 0x20 ADD SWAP1 DUP2 MSTORE PUSH1 0x20 ADD PUSH1 0x0 KECCAK256 DUP2 SWAP1 SSTORE POP PUSH2 0x1E3F PUSH5 0xE8D4A51000 PUSH2 0x1E31 DUP6 PUSH1 0x3 ADD SLOAD DUP6 PUSH1 0x0 ADD SLOAD PUSH2 0x2507 SWAP1 SWAP2 SWAP1 PUSH4 0xFFFFFFFF AND JUMP JUMPDEST PUSH2 0x2582 SWAP1 SWAP2 SWAP1 PUSH4 0xFFFFFFFF AND JUMP JUMPDEST DUP3 PUSH1 0x1 ADD DUP2 SWAP1 SSTORE POP PUSH1 0x0 DUP4 PUSH1 0x7 ADD SLOAD EQ ISZERO PUSH2 0x1EE8 JUMPI DUP3 PUSH1 0x4 ADD PUSH1 0x0 SWAP1 SLOAD SWAP1 PUSH2 0x100 EXP SWAP1 DIV PUSH20 0xFFFFFFFFFFFFFFFFFFFFFFFFFFFFFFFFFFFFFFFF AND PUSH20 0xFFFFFFFFFFFFFFFFFFFFFFFFFFFFFFFFFFFFFFFF AND PUSH4 0x1058D281 DUP6 PUSH1 0x40 MLOAD DUP3 PUSH4 0xFFFFFFFF AND PUSH1 0xE0 SHL DUP2 MSTORE PUSH1 0x4 ADD PUSH2 0x1EB1 SWAP2 SWAP1 PUSH2 0x37F7 JUMP JUMPDEST PUSH1 0x0 PUSH1 0x40 MLOAD DUP1 DUP4 SUB DUP2 PUSH1 0x0 DUP8 DUP1 EXTCODESIZE ISZERO DUP1 ISZERO PUSH2 0x1ECB JUMPI PUSH1 0x0 DUP1 REVERT JUMPDEST POP GAS CALL ISZERO DUP1 ISZERO PUSH2 0x1EDF JUMPI RETURNDATASIZE PUSH1 0x0 DUP1 RETURNDATACOPY RETURNDATASIZE PUSH1 0x0 REVERT JUMPDEST POP POP POP POP PUSH2 0x1F7A JUMP JUMPDEST DUP3 PUSH1 0x4 ADD PUSH1 0x0 SWAP1 SLOAD SWAP1 PUSH2 0x100 EXP SWAP1 DIV PUSH20 0xFFFFFFFFFFFFFFFFFFFFFFFFFFFFFFFFFFFFFFFF AND PUSH20 0xFFFFFFFFFFFFFFFFFFFFFFFFFFFFFFFFFFFFFFFF AND PUSH4 0x441A3E70 DUP7 DUP7 PUSH1 0x40 MLOAD DUP4 PUSH4 0xFFFFFFFF AND PUSH1 0xE0 SHL DUP2 MSTORE PUSH1 0x4 ADD PUSH2 0x1F47 SWAP3 SWAP2 SWAP1 PUSH2 0x3812 JUMP JUMPDEST PUSH1 0x0 PUSH1 0x40 MLOAD DUP1 DUP4 SUB DUP2 PUSH1 0x0 DUP8 DUP1 EXTCODESIZE ISZERO DUP1 ISZERO PUSH2 0x1F61 JUMPI PUSH1 0x0 DUP1 REVERT JUMPDEST POP GAS CALL ISZERO DUP1 ISZERO PUSH2 0x1F75 JUMPI RETURNDATASIZE PUSH1 0x0 DUP1 RETURNDATACOPY RETURNDATASIZE PUSH1 0x0 REVERT JUMPDEST POP POP POP POP JUMPDEST PUSH2 0x1FC9 CALLER DUP6 DUP6 PUSH1 0x0 ADD PUSH1 0x0 SWAP1 SLOAD SWAP1 PUSH2 0x100 EXP SWAP1 DIV PUSH20 0xFFFFFFFFFFFFFFFFFFFFFFFFFFFFFFFFFFFFFFFF AND PUSH20 0xFFFFFFFFFFFFFFFFFFFFFFFFFFFFFFFFFFFFFFFF AND PUSH2 0x291F SWAP1 SWAP3 SWAP2 SWAP1 PUSH4 0xFFFFFFFF AND JUMP JUMPDEST PUSH1 0x0 DUP4 PUSH1 0x5 ADD PUSH1 0x0 SWAP1 SLOAD SWAP1 PUSH2 0x100 EXP SWAP1 DIV PUSH20 0xFFFFFFFFFFFFFFFFFFFFFFFFFFFFFFFFFFFFFFFF AND PUSH20 0xFFFFFFFFFFFFFFFFFFFFFFFFFFFFFFFFFFFFFFFF AND PUSH4 0x70A08231 ADDRESS PUSH1 0x40 MLOAD DUP3 PUSH4 0xFFFFFFFF AND PUSH1 0xE0 SHL DUP2 MSTORE PUSH1 0x4 ADD PUSH2 0x2028 SWAP2 SWAP1 PUSH2 0x3502 JUMP JUMPDEST PUSH1 0x20 PUSH1 0x40 MLOAD DUP1 DUP4 SUB DUP2 DUP7 DUP1 EXTCODESIZE ISZERO DUP1 ISZERO PUSH2 0x2040 JUMPI PUSH1 0x0 DUP1 REVERT JUMPDEST POP GAS STATICCALL ISZERO DUP1 ISZERO PUSH2 0x2054 JUMPI RETURNDATASIZE PUSH1 0x0 DUP1 RETURNDATACOPY RETURNDATASIZE PUSH1 0x0 REVERT JUMPDEST POP POP POP POP PUSH1 0x40 MLOAD RETURNDATASIZE PUSH1 0x1F NOT PUSH1 0x1F DUP3 ADD AND DUP3 ADD DUP1 PUSH1 0x40 MSTORE POP DUP2 ADD SWAP1 PUSH2 0x2078 SWAP2 SWAP1 PUSH2 0x30B1 JUMP JUMPDEST SWAP1 POP PUSH1 0x0 DUP2 GT ISZERO PUSH2 0x20F5 JUMPI PUSH2 0x20F4 PUSH1 0x3 PUSH1 0x0 SWAP1 SLOAD SWAP1 PUSH2 0x100 EXP SWAP1 DIV PUSH20 0xFFFFFFFFFFFFFFFFFFFFFFFFFFFFFFFFFFFFFFFF AND DUP3 DUP7 PUSH1 0x5 ADD PUSH1 0x0 SWAP1 SLOAD SWAP1 PUSH2 0x100 EXP SWAP1 DIV PUSH20 0xFFFFFFFFFFFFFFFFFFFFFFFFFFFFFFFFFFFFFFFF AND PUSH20 0xFFFFFFFFFFFFFFFFFFFFFFFFFFFFFFFFFFFFFFFF AND PUSH2 0x291F SWAP1 SWAP3 SWAP2 SWAP1 PUSH4 0xFFFFFFFF AND JUMP JUMPDEST JUMPDEST DUP7 CALLER PUSH20 0xFFFFFFFFFFFFFFFFFFFFFFFFFFFFFFFFFFFFFFFF AND PUSH32 0xF279E6A1F5E320CCA91135676D9CB6E44CA8A08C0B88342BCDB1144F6511B568 DUP8 PUSH1 0x40 MLOAD PUSH2 0x213C SWAP2 SWAP1 PUSH2 0x37F7 JUMP JUMPDEST PUSH1 0x40 MLOAD DUP1 SWAP2 SUB SWAP1 LOG3 POP POP POP POP POP POP POP JUMP JUMPDEST PUSH2 0x2155 PUSH2 0x29A5 JUMP JUMPDEST PUSH20 0xFFFFFFFFFFFFFFFFFFFFFFFFFFFFFFFFFFFFFFFF AND PUSH2 0x2173 PUSH2 0x1BF6 JUMP JUMPDEST PUSH20 0xFFFFFFFFFFFFFFFFFFFFFFFFFFFFFFFFFFFFFFFF AND EQ PUSH2 0x21C9 JUMPI PUSH1 0x40 MLOAD PUSH32 0x8C379A000000000000000000000000000000000000000000000000000000000 DUP2 MSTORE PUSH1 0x4 ADD PUSH2 0x21C0 SWAP1 PUSH2 0x3717 JUMP JUMPDEST PUSH1 0x40 MLOAD DUP1 SWAP2 SUB SWAP1 REVERT JUMPDEST DUP1 PUSH1 0x3 PUSH1 0x0 PUSH2 0x100 EXP DUP2 SLOAD DUP2 PUSH20 0xFFFFFFFFFFFFFFFFFFFFFFFFFFFFFFFFFFFFFFFF MUL NOT AND SWAP1 DUP4 PUSH20 0xFFFFFFFFFFFFFFFFFFFFFFFFFFFFFFFFFFFFFFFF AND MUL OR SWAP1 SSTORE POP POP JUMP JUMPDEST PUSH1 0x3 PUSH1 0x0 SWAP1 SLOAD SWAP1 PUSH2 0x100 EXP SWAP1 DIV PUSH20 0xFFFFFFFFFFFFFFFFFFFFFFFFFFFFFFFFFFFFFFFF AND DUP2 JUMP JUMPDEST PUSH1 0x1 PUSH1 0x0 SWAP1 SLOAD SWAP1 PUSH2 0x100 EXP SWAP1 DIV PUSH20 0xFFFFFFFFFFFFFFFFFFFFFFFFFFFFFFFFFFFFFFFF AND DUP2 JUMP JUMPDEST PUSH1 0x0 PUSH1 0x7 DUP3 DUP2 SLOAD DUP2 LT PUSH2 0x226F JUMPI PUSH2 0x226E PUSH2 0x3B46 JUMP JUMPDEST JUMPDEST SWAP1 PUSH1 0x0 MSTORE PUSH1 0x20 PUSH1 0x0 KECCAK256 SWAP1 PUSH1 0x8 MUL ADD SWAP1 POP DUP1 PUSH1 0x0 ADD PUSH1 0x0 SWAP1 SLOAD SWAP1 PUSH2 0x100 EXP SWAP1 DIV PUSH20 0xFFFFFFFFFFFFFFFFFFFFFFFFFFFFFFFFFFFFFFFF AND PUSH20 0xFFFFFFFFFFFFFFFFFFFFFFFFFFFFFFFFFFFFFFFF AND PUSH4 0x95EA7B3 DUP3 PUSH1 0x4 ADD PUSH1 0x0 SWAP1 SLOAD SWAP1 PUSH2 0x100 EXP SWAP1 DIV PUSH20 0xFFFFFFFFFFFFFFFFFFFFFFFFFFFFFFFFFFFFFFFF AND PUSH1 0xC SLOAD PUSH1 0x40 MLOAD DUP4 PUSH4 0xFFFFFFFF AND PUSH1 0xE0 SHL DUP2 MSTORE PUSH1 0x4 ADD PUSH2 0x2304 SWAP3 SWAP2 SWAP1 PUSH2 0x357D JUMP JUMPDEST PUSH1 0x20 PUSH1 0x40 MLOAD DUP1 DUP4 SUB DUP2 PUSH1 0x0 DUP8 DUP1 EXTCODESIZE ISZERO DUP1 ISZERO PUSH2 0x231E JUMPI PUSH1 0x0 DUP1 REVERT JUMPDEST POP GAS CALL ISZERO DUP1 ISZERO PUSH2 0x2332 JUMPI RETURNDATASIZE PUSH1 0x0 DUP1 RETURNDATACOPY RETURNDATASIZE PUSH1 0x0 REVERT JUMPDEST POP POP POP POP PUSH1 0x40 MLOAD RETURNDATASIZE PUSH1 0x1F NOT PUSH1 0x1F DUP3 ADD AND DUP3 ADD DUP1 PUSH1 0x40 MSTORE POP DUP2 ADD SWAP1 PUSH2 0x2356 SWAP2 SWAP1 PUSH2 0x2FFD JUMP JUMPDEST POP DUP1 PUSH1 0x5 ADD PUSH1 0x0 SWAP1 SLOAD SWAP1 PUSH2 0x100 EXP SWAP1 DIV PUSH20 0xFFFFFFFFFFFFFFFFFFFFFFFFFFFFFFFFFFFFFFFF AND PUSH20 0xFFFFFFFFFFFFFFFFFFFFFFFFFFFFFFFFFFFFFFFF AND PUSH4 0x95EA7B3 ADDRESS PUSH1 0xC SLOAD PUSH1 0x40 MLOAD DUP4 PUSH4 0xFFFFFFFF AND PUSH1 0xE0 SHL DUP2 MSTORE PUSH1 0x4 ADD PUSH2 0x23B8 SWAP3 SWAP2 SWAP1 PUSH2 0x357D JUMP JUMPDEST PUSH1 0x20 PUSH1 0x40 MLOAD DUP1 DUP4 SUB DUP2 PUSH1 0x0 DUP8 DUP1 EXTCODESIZE ISZERO DUP1 ISZERO PUSH2 0x23D2 JUMPI PUSH1 0x0 DUP1 REVERT JUMPDEST POP GAS CALL ISZERO DUP1 ISZERO PUSH2 0x23E6 JUMPI RETURNDATASIZE PUSH1 0x0 DUP1 RETURNDATACOPY RETURNDATASIZE PUSH1 0x0 REVERT JUMPDEST POP POP POP POP PUSH1 0x40 MLOAD RETURNDATASIZE PUSH1 0x1F NOT PUSH1 0x1F DUP3 ADD AND DUP3 ADD DUP1 PUSH1 0x40 MSTORE POP DUP2 ADD SWAP1 PUSH2 0x240A SWAP2 SWAP1 PUSH2 0x2FFD JUMP JUMPDEST POP POP POP JUMP JUMPDEST PUSH2 0x2417 PUSH2 0x29A5 JUMP JUMPDEST PUSH20 0xFFFFFFFFFFFFFFFFFFFFFFFFFFFFFFFFFFFFFFFF AND PUSH2 0x2435 PUSH2 0x1BF6 JUMP JUMPDEST PUSH20 0xFFFFFFFFFFFFFFFFFFFFFFFFFFFFFFFFFFFFFFFF AND EQ PUSH2 0x248B JUMPI PUSH1 0x40 MLOAD PUSH32 0x8C379A000000000000000000000000000000000000000000000000000000000 DUP2 MSTORE PUSH1 0x4 ADD PUSH2 0x2482 SWAP1 PUSH2 0x3717 JUMP JUMPDEST PUSH1 0x40 MLOAD DUP1 SWAP2 SUB SWAP1 REVERT JUMPDEST PUSH1 0x0 PUSH20 0xFFFFFFFFFFFFFFFFFFFFFFFFFFFFFFFFFFFFFFFF AND DUP2 PUSH20 0xFFFFFFFFFFFFFFFFFFFFFFFFFFFFFFFFFFFFFFFF AND EQ ISZERO PUSH2 0x24FB JUMPI PUSH1 0x40 MLOAD PUSH32 0x8C379A000000000000000000000000000000000000000000000000000000000 DUP2 MSTORE PUSH1 0x4 ADD PUSH2 0x24F2 SWAP1 PUSH2 0x3697 JUMP JUMPDEST PUSH1 0x40 MLOAD DUP1 SWAP2 SUB SWAP1 REVERT JUMPDEST PUSH2 0x2504 DUP2 PUSH2 0x2B0B JUMP JUMPDEST POP JUMP JUMPDEST PUSH1 0x0 DUP1 DUP4 EQ ISZERO PUSH2 0x251A JUMPI PUSH1 0x0 SWAP1 POP PUSH2 0x257C JUMP JUMPDEST PUSH1 0x0 DUP3 DUP5 PUSH2 0x2528 SWAP2 SWAP1 PUSH2 0x38F4 JUMP JUMPDEST SWAP1 POP DUP3 DUP5 DUP3 PUSH2 0x2537 SWAP2 SWAP1 PUSH2 0x38C3 JUMP JUMPDEST EQ PUSH2 0x2577 JUMPI PUSH1 0x40 MLOAD PUSH32 0x8C379A000000000000000000000000000000000000000000000000000000000 DUP2 MSTORE PUSH1 0x4 ADD PUSH2 0x256E SWAP1 PUSH2 0x36F7 JUMP JUMPDEST PUSH1 0x40 MLOAD DUP1 SWAP2 SUB SWAP1 REVERT JUMPDEST DUP1 SWAP2 POP POP JUMPDEST SWAP3 SWAP2 POP POP JUMP JUMPDEST PUSH1 0x0 PUSH2 0x25C4 DUP4 DUP4 PUSH1 0x40 MLOAD DUP1 PUSH1 0x40 ADD PUSH1 0x40 MSTORE DUP1 PUSH1 0x1A DUP2 MSTORE PUSH1 0x20 ADD PUSH32 0x536166654D6174683A206469766973696F6E206279207A65726F000000000000 DUP2 MSTORE POP PUSH2 0x2BCF JUMP JUMPDEST SWAP1 POP SWAP3 SWAP2 POP POP JUMP JUMPDEST PUSH1 0x0 PUSH2 0x260E DUP4 DUP4 PUSH1 0x40 MLOAD DUP1 PUSH1 0x40 ADD PUSH1 0x40 MSTORE DUP1 PUSH1 0x1E DUP2 MSTORE PUSH1 0x20 ADD PUSH32 0x536166654D6174683A207375627472616374696F6E206F766572666C6F770000 DUP2 MSTORE POP PUSH2 0x2C32 JUMP JUMPDEST SWAP1 POP SWAP3 SWAP2 POP POP JUMP JUMPDEST PUSH1 0x0 PUSH1 0x2 PUSH1 0x0 SWAP1 SLOAD SWAP1 PUSH2 0x100 EXP SWAP1 DIV PUSH20 0xFFFFFFFFFFFFFFFFFFFFFFFFFFFFFFFFFFFFFFFF AND PUSH20 0xFFFFFFFFFFFFFFFFFFFFFFFFFFFFFFFFFFFFFFFF AND PUSH4 0x70A08231 ADDRESS PUSH1 0x40 MLOAD DUP3 PUSH4 0xFFFFFFFF AND PUSH1 0xE0 SHL DUP2 MSTORE PUSH1 0x4 ADD PUSH2 0x2673 SWAP2 SWAP1 PUSH2 0x3502 JUMP JUMPDEST PUSH1 0x20 PUSH1 0x40 MLOAD DUP1 DUP4 SUB DUP2 DUP7 DUP1 EXTCODESIZE ISZERO DUP1 ISZERO PUSH2 0x268B JUMPI PUSH1 0x0 DUP1 REVERT JUMPDEST POP GAS STATICCALL ISZERO DUP1 ISZERO PUSH2 0x269F JUMPI RETURNDATASIZE PUSH1 0x0 DUP1 RETURNDATACOPY RETURNDATASIZE PUSH1 0x0 REVERT JUMPDEST POP POP POP POP PUSH1 0x40 MLOAD RETURNDATASIZE PUSH1 0x1F NOT PUSH1 0x1F DUP3 ADD AND DUP3 ADD DUP1 PUSH1 0x40 MSTORE POP DUP2 ADD SWAP1 PUSH2 0x26C3 SWAP2 SWAP1 PUSH2 0x30B1 JUMP JUMPDEST SWAP1 POP DUP1 DUP3 GT ISZERO PUSH2 0x2782 JUMPI PUSH1 0x2 PUSH1 0x0 SWAP1 SLOAD SWAP1 PUSH2 0x100 EXP SWAP1 DIV PUSH20 0xFFFFFFFFFFFFFFFFFFFFFFFFFFFFFFFFFFFFFFFF AND PUSH20 0xFFFFFFFFFFFFFFFFFFFFFFFFFFFFFFFFFFFFFFFF AND PUSH4 0xA9059CBB DUP5 DUP4 PUSH1 0x40 MLOAD DUP4 PUSH4 0xFFFFFFFF AND PUSH1 0xE0 SHL DUP2 MSTORE PUSH1 0x4 ADD PUSH2 0x272A SWAP3 SWAP2 SWAP1 PUSH2 0x357D JUMP JUMPDEST PUSH1 0x20 PUSH1 0x40 MLOAD DUP1 DUP4 SUB DUP2 PUSH1 0x0 DUP8 DUP1 EXTCODESIZE ISZERO DUP1 ISZERO PUSH2 0x2744 JUMPI PUSH1 0x0 DUP1 REVERT JUMPDEST POP GAS CALL ISZERO DUP1 ISZERO PUSH2 0x2758 JUMPI RETURNDATASIZE PUSH1 0x0 DUP1 RETURNDATACOPY RETURNDATASIZE PUSH1 0x0 REVERT JUMPDEST POP POP POP POP PUSH1 0x40 MLOAD RETURNDATASIZE PUSH1 0x1F NOT PUSH1 0x1F DUP3 ADD AND DUP3 ADD DUP1 PUSH1 0x40 MSTORE POP DUP2 ADD SWAP1 PUSH2 0x277C SWAP2 SWAP1 PUSH2 0x2FFD JUMP JUMPDEST POP PUSH2 0x2833 JUMP JUMPDEST PUSH1 0x2 PUSH1 0x0 SWAP1 SLOAD SWAP1 PUSH2 0x100 EXP SWAP1 DIV PUSH20 0xFFFFFFFFFFFFFFFFFFFFFFFFFFFFFFFFFFFFFFFF AND PUSH20 0xFFFFFFFFFFFFFFFFFFFFFFFFFFFFFFFFFFFFFFFF AND PUSH4 0xA9059CBB DUP5 DUP5 PUSH1 0x40 MLOAD DUP4 PUSH4 0xFFFFFFFF AND PUSH1 0xE0 SHL DUP2 MSTORE PUSH1 0x4 ADD PUSH2 0x27DF SWAP3 SWAP2 SWAP1 PUSH2 0x357D JUMP JUMPDEST PUSH1 0x20 PUSH1 0x40 MLOAD DUP1 DUP4 SUB DUP2 PUSH1 0x0 DUP8 DUP1 EXTCODESIZE ISZERO DUP1 ISZERO PUSH2 0x27F9 JUMPI PUSH1 0x0 DUP1 REVERT JUMPDEST POP GAS CALL ISZERO DUP1 ISZERO PUSH2 0x280D JUMPI RETURNDATASIZE PUSH1 0x0 DUP1 RETURNDATACOPY RETURNDATASIZE PUSH1 0x0 REVERT JUMPDEST POP POP POP POP PUSH1 0x40 MLOAD RETURNDATASIZE PUSH1 0x1F NOT PUSH1 0x1F DUP3 ADD AND DUP3 ADD DUP1 PUSH1 0x40 MSTORE POP DUP2 ADD SWAP1 PUSH2 0x2831 SWAP2 SWAP1 PUSH2 0x2FFD JUMP JUMPDEST POP JUMPDEST POP POP POP JUMP JUMPDEST PUSH2 0x28BB DUP5 PUSH4 0x23B872DD PUSH1 0xE0 SHL DUP6 DUP6 DUP6 PUSH1 0x40 MLOAD PUSH1 0x24 ADD PUSH2 0x2859 SWAP4 SWAP3 SWAP2 SWAP1 PUSH2 0x3546 JUMP JUMPDEST PUSH1 0x40 MLOAD PUSH1 0x20 DUP2 DUP4 SUB SUB DUP2 MSTORE SWAP1 PUSH1 0x40 MSTORE SWAP1 PUSH28 0xFFFFFFFFFFFFFFFFFFFFFFFFFFFFFFFFFFFFFFFFFFFFFFFFFFFFFFFF NOT AND PUSH1 0x20 DUP3 ADD DUP1 MLOAD PUSH28 0xFFFFFFFFFFFFFFFFFFFFFFFFFFFFFFFFFFFFFFFFFFFFFFFFFFFFFFFF DUP4 DUP2 DUP4 AND OR DUP4 MSTORE POP POP POP POP PUSH2 0x2C96 JUMP JUMPDEST POP POP POP POP JUMP JUMPDEST PUSH1 0x0 DUP1 DUP3 DUP5 PUSH2 0x28D0 SWAP2 SWAP1 PUSH2 0x386D JUMP JUMPDEST SWAP1 POP DUP4 DUP2 LT ISZERO PUSH2 0x2915 JUMPI PUSH1 0x40 MLOAD PUSH32 0x8C379A000000000000000000000000000000000000000000000000000000000 DUP2 MSTORE PUSH1 0x4 ADD PUSH2 0x290C SWAP1 PUSH2 0x36B7 JUMP JUMPDEST PUSH1 0x40 MLOAD DUP1 SWAP2 SUB SWAP1 REVERT JUMPDEST DUP1 SWAP2 POP POP SWAP3 SWAP2 POP POP JUMP JUMPDEST PUSH2 0x29A0 DUP4 PUSH4 0xA9059CBB PUSH1 0xE0 SHL DUP5 DUP5 PUSH1 0x40 MLOAD PUSH1 0x24 ADD PUSH2 0x293E SWAP3 SWAP2 SWAP1 PUSH2 0x357D JUMP JUMPDEST PUSH1 0x40 MLOAD PUSH1 0x20 DUP2 DUP4 SUB SUB DUP2 MSTORE SWAP1 PUSH1 0x40 MSTORE SWAP1 PUSH28 0xFFFFFFFFFFFFFFFFFFFFFFFFFFFFFFFFFFFFFFFFFFFFFFFFFFFFFFFF NOT AND PUSH1 0x20 DUP3 ADD DUP1 MLOAD PUSH28 0xFFFFFFFFFFFFFFFFFFFFFFFFFFFFFFFFFFFFFFFFFFFFFFFFFFFFFFFF DUP4 DUP2 DUP4 AND OR DUP4 MSTORE POP POP POP POP PUSH2 0x2C96 JUMP JUMPDEST POP POP POP JUMP JUMPDEST PUSH1 0x0 CALLER SWAP1 POP SWAP1 JUMP JUMPDEST PUSH1 0x0 DUP2 EQ DUP1 PUSH2 0x2A46 JUMPI POP PUSH1 0x0 DUP4 PUSH20 0xFFFFFFFFFFFFFFFFFFFFFFFFFFFFFFFFFFFFFFFF AND PUSH4 0xDD62ED3E ADDRESS DUP6 PUSH1 0x40 MLOAD DUP4 PUSH4 0xFFFFFFFF AND PUSH1 0xE0 SHL DUP2 MSTORE PUSH1 0x4 ADD PUSH2 0x29F4 SWAP3 SWAP2 SWAP1 PUSH2 0x351D JUMP JUMPDEST PUSH1 0x20 PUSH1 0x40 MLOAD DUP1 DUP4 SUB DUP2 DUP7 DUP1 EXTCODESIZE ISZERO DUP1 ISZERO PUSH2 0x2A0C JUMPI PUSH1 0x0 DUP1 REVERT JUMPDEST POP GAS STATICCALL ISZERO DUP1 ISZERO PUSH2 0x2A20 JUMPI RETURNDATASIZE PUSH1 0x0 DUP1 RETURNDATACOPY RETURNDATASIZE PUSH1 0x0 REVERT JUMPDEST POP POP POP POP PUSH1 0x40 MLOAD RETURNDATASIZE PUSH1 0x1F NOT PUSH1 0x1F DUP3 ADD AND DUP3 ADD DUP1 PUSH1 0x40 MSTORE POP DUP2 ADD SWAP1 PUSH2 0x2A44 SWAP2 SWAP1 PUSH2 0x30B1 JUMP JUMPDEST EQ JUMPDEST PUSH2 0x2A85 JUMPI PUSH1 0x40 MLOAD PUSH32 0x8C379A000000000000000000000000000000000000000000000000000000000 DUP2 MSTORE PUSH1 0x4 ADD PUSH2 0x2A7C SWAP1 PUSH2 0x37B7 JUMP JUMPDEST PUSH1 0x40 MLOAD DUP1 SWAP2 SUB SWAP1 REVERT JUMPDEST PUSH2 0x2B06 DUP4 PUSH4 0x95EA7B3 PUSH1 0xE0 SHL DUP5 DUP5 PUSH1 0x40 MLOAD PUSH1 0x24 ADD PUSH2 0x2AA4 SWAP3 SWAP2 SWAP1 PUSH2 0x357D JUMP JUMPDEST PUSH1 0x40 MLOAD PUSH1 0x20 DUP2 DUP4 SUB SUB DUP2 MSTORE SWAP1 PUSH1 0x40 MSTORE SWAP1 PUSH28 0xFFFFFFFFFFFFFFFFFFFFFFFFFFFFFFFFFFFFFFFFFFFFFFFFFFFFFFFF NOT AND PUSH1 0x20 DUP3 ADD DUP1 MLOAD PUSH28 0xFFFFFFFFFFFFFFFFFFFFFFFFFFFFFFFFFFFFFFFFFFFFFFFFFFFFFFFF DUP4 DUP2 DUP4 AND OR DUP4 MSTORE POP POP POP POP PUSH2 0x2C96 JUMP JUMPDEST POP POP POP JUMP JUMPDEST PUSH1 0x0 DUP1 PUSH1 0x0 SWAP1 SLOAD SWAP1 PUSH2 0x100 EXP SWAP1 DIV PUSH20 0xFFFFFFFFFFFFFFFFFFFFFFFFFFFFFFFFFFFFFFFF AND SWAP1 POP DUP2 PUSH1 0x0 DUP1 PUSH2 0x100 EXP DUP2 SLOAD DUP2 PUSH20 0xFFFFFFFFFFFFFFFFFFFFFFFFFFFFFFFFFFFFFFFF MUL NOT AND SWAP1 DUP4 PUSH20 0xFFFFFFFFFFFFFFFFFFFFFFFFFFFFFFFFFFFFFFFF AND MUL OR SWAP1 SSTORE POP DUP2 PUSH20 0xFFFFFFFFFFFFFFFFFFFFFFFFFFFFFFFFFFFFFFFF AND DUP2 PUSH20 0xFFFFFFFFFFFFFFFFFFFFFFFFFFFFFFFFFFFFFFFF AND PUSH32 0x8BE0079C531659141344CD1FD0A4F28419497F9722A3DAAFE3B4186F6B6457E0 PUSH1 0x40 MLOAD PUSH1 0x40 MLOAD DUP1 SWAP2 SUB SWAP1 LOG3 POP POP JUMP JUMPDEST PUSH1 0x0 DUP1 DUP4 GT DUP3 SWAP1 PUSH2 0x2C16 JUMPI PUSH1 0x40 MLOAD PUSH32 0x8C379A000000000000000000000000000000000000000000000000000000000 DUP2 MSTORE PUSH1 0x4 ADD PUSH2 0x2C0D SWAP2 SWAP1 PUSH2 0x3675 JUMP JUMPDEST PUSH1 0x40 MLOAD DUP1 SWAP2 SUB SWAP1 REVERT JUMPDEST POP PUSH1 0x0 DUP4 DUP6 PUSH2 0x2C25 SWAP2 SWAP1 PUSH2 0x38C3 JUMP JUMPDEST SWAP1 POP DUP1 SWAP2 POP POP SWAP4 SWAP3 POP POP POP JUMP JUMPDEST PUSH1 0x0 DUP4 DUP4 GT ISZERO DUP3 SWAP1 PUSH2 0x2C7A JUMPI PUSH1 0x40 MLOAD PUSH32 0x8C379A000000000000000000000000000000000000000000000000000000000 DUP2 MSTORE PUSH1 0x4 ADD PUSH2 0x2C71 SWAP2 SWAP1 PUSH2 0x3675 JUMP JUMPDEST PUSH1 0x40 MLOAD DUP1 SWAP2 SUB SWAP1 REVERT JUMPDEST POP PUSH1 0x0 DUP4 DUP6 PUSH2 0x2C89 SWAP2 SWAP1 PUSH2 0x394E JUMP JUMPDEST SWAP1 POP DUP1 SWAP2 POP POP SWAP4 SWAP3 POP POP POP JUMP JUMPDEST PUSH1 0x0 PUSH2 0x2CF8 DUP3 PUSH1 0x40 MLOAD DUP1 PUSH1 0x40 ADD PUSH1 0x40 MSTORE DUP1 PUSH1 0x20 DUP2 MSTORE PUSH1 0x20 ADD PUSH32 0x5361666545524332303A206C6F772D6C6576656C2063616C6C206661696C6564 DUP2 MSTORE POP DUP6 PUSH20 0xFFFFFFFFFFFFFFFFFFFFFFFFFFFFFFFFFFFFFFFF AND PUSH2 0x2D5D SWAP1 SWAP3 SWAP2 SWAP1 PUSH4 0xFFFFFFFF AND JUMP JUMPDEST SWAP1 POP PUSH1 0x0 DUP2 MLOAD GT ISZERO PUSH2 0x2D58 JUMPI DUP1 DUP1 PUSH1 0x20 ADD SWAP1 MLOAD DUP2 ADD SWAP1 PUSH2 0x2D18 SWAP2 SWAP1 PUSH2 0x2FFD JUMP JUMPDEST PUSH2 0x2D57 JUMPI PUSH1 0x40 MLOAD PUSH32 0x8C379A000000000000000000000000000000000000000000000000000000000 DUP2 MSTORE PUSH1 0x4 ADD PUSH2 0x2D4E SWAP1 PUSH2 0x3777 JUMP JUMPDEST PUSH1 0x40 MLOAD DUP1 SWAP2 SUB SWAP1 REVERT JUMPDEST JUMPDEST POP POP POP JUMP JUMPDEST PUSH1 0x60 PUSH2 0x2D6C DUP5 DUP5 PUSH1 0x0 DUP6 PUSH2 0x2D75 JUMP JUMPDEST SWAP1 POP SWAP4 SWAP3 POP POP POP JUMP JUMPDEST PUSH1 0x60 DUP3 SELFBALANCE LT ISZERO PUSH2 0x2DBA JUMPI PUSH1 0x40 MLOAD PUSH32 0x8C379A000000000000000000000000000000000000000000000000000000000 DUP2 MSTORE PUSH1 0x4 ADD PUSH2 0x2DB1 SWAP1 PUSH2 0x36D7 JUMP JUMPDEST PUSH1 0x40 MLOAD DUP1 SWAP2 SUB SWAP1 REVERT JUMPDEST PUSH2 0x2DC3 DUP6 PUSH2 0x2E89 JUMP JUMPDEST PUSH2 0x2E02 JUMPI PUSH1 0x40 MLOAD PUSH32 0x8C379A000000000000000000000000000000000000000000000000000000000 DUP2 MSTORE PUSH1 0x4 ADD PUSH2 0x2DF9 SWAP1 PUSH2 0x3737 JUMP JUMPDEST PUSH1 0x40 MLOAD DUP1 SWAP2 SUB SWAP1 REVERT JUMPDEST PUSH1 0x0 DUP1 DUP7 PUSH20 0xFFFFFFFFFFFFFFFFFFFFFFFFFFFFFFFFFFFFFFFF AND DUP6 DUP8 PUSH1 0x40 MLOAD PUSH2 0x2E2B SWAP2 SWAP1 PUSH2 0x34EB JUMP JUMPDEST PUSH1 0x0 PUSH1 0x40 MLOAD DUP1 DUP4 SUB DUP2 DUP6 DUP8 GAS CALL SWAP3 POP POP POP RETURNDATASIZE DUP1 PUSH1 0x0 DUP2 EQ PUSH2 0x2E68 JUMPI PUSH1 0x40 MLOAD SWAP2 POP PUSH1 0x1F NOT PUSH1 0x3F RETURNDATASIZE ADD AND DUP3 ADD PUSH1 0x40 MSTORE RETURNDATASIZE DUP3 MSTORE RETURNDATASIZE PUSH1 0x0 PUSH1 0x20 DUP5 ADD RETURNDATACOPY PUSH2 0x2E6D JUMP JUMPDEST PUSH1 0x60 SWAP2 POP JUMPDEST POP SWAP2 POP SWAP2 POP PUSH2 0x2E7D DUP3 DUP3 DUP7 PUSH2 0x2EAC JUMP JUMPDEST SWAP3 POP POP POP SWAP5 SWAP4 POP POP POP POP JUMP JUMPDEST PUSH1 0x0 DUP1 DUP3 PUSH20 0xFFFFFFFFFFFFFFFFFFFFFFFFFFFFFFFFFFFFFFFF AND EXTCODESIZE GT SWAP1 POP SWAP2 SWAP1 POP JUMP JUMPDEST PUSH1 0x60 DUP4 ISZERO PUSH2 0x2EBC JUMPI DUP3 SWAP1 POP PUSH2 0x2F0C JUMP JUMPDEST PUSH1 0x0 DUP4 MLOAD GT ISZERO PUSH2 0x2ECF JUMPI DUP3 MLOAD DUP1 DUP5 PUSH1 0x20 ADD REVERT JUMPDEST DUP2 PUSH1 0x40 MLOAD PUSH32 0x8C379A000000000000000000000000000000000000000000000000000000000 DUP2 MSTORE PUSH1 0x4 ADD PUSH2 0x2F03 SWAP2 SWAP1 PUSH2 0x3675 JUMP JUMPDEST PUSH1 0x40 MLOAD DUP1 SWAP2 SUB SWAP1 REVERT JUMPDEST SWAP4 SWAP3 POP POP POP JUMP JUMPDEST PUSH1 0x0 DUP2 CALLDATALOAD SWAP1 POP PUSH2 0x2F22 DUP2 PUSH2 0x3E0C JUMP JUMPDEST SWAP3 SWAP2 POP POP JUMP JUMPDEST PUSH1 0x0 DUP2 CALLDATALOAD SWAP1 POP PUSH2 0x2F37 DUP2 PUSH2 0x3E23 JUMP JUMPDEST SWAP3 SWAP2 POP POP JUMP JUMPDEST PUSH1 0x0 DUP2 MLOAD SWAP1 POP PUSH2 0x2F4C DUP2 PUSH2 0x3E23 JUMP JUMPDEST SWAP3 SWAP2 POP POP JUMP JUMPDEST PUSH1 0x0 DUP2 CALLDATALOAD SWAP1 POP PUSH2 0x2F61 DUP2 PUSH2 0x3E3A JUMP JUMPDEST SWAP3 SWAP2 POP POP JUMP JUMPDEST PUSH1 0x0 DUP2 MLOAD SWAP1 POP PUSH2 0x2F76 DUP2 PUSH2 0x3E3A JUMP JUMPDEST SWAP3 SWAP2 POP POP JUMP JUMPDEST PUSH1 0x0 DUP2 CALLDATALOAD SWAP1 POP PUSH2 0x2F8B DUP2 PUSH2 0x3E51 JUMP JUMPDEST SWAP3 SWAP2 POP POP JUMP JUMPDEST PUSH1 0x0 DUP2 CALLDATALOAD SWAP1 POP PUSH2 0x2FA0 DUP2 PUSH2 0x3E68 JUMP JUMPDEST SWAP3 SWAP2 POP POP JUMP JUMPDEST PUSH1 0x0 DUP2 CALLDATALOAD SWAP1 POP PUSH2 0x2FB5 DUP2 PUSH2 0x3E7F JUMP JUMPDEST SWAP3 SWAP2 POP POP JUMP JUMPDEST PUSH1 0x0 DUP2 MLOAD SWAP1 POP PUSH2 0x2FCA DUP2 PUSH2 0x3E7F JUMP JUMPDEST SWAP3 SWAP2 POP POP JUMP JUMPDEST PUSH1 0x0 PUSH1 0x20 DUP3 DUP5 SUB SLT ISZERO PUSH2 0x2FE6 JUMPI PUSH2 0x2FE5 PUSH2 0x3B75 JUMP JUMPDEST JUMPDEST PUSH1 0x0 PUSH2 0x2FF4 DUP5 DUP3 DUP6 ADD PUSH2 0x2F13 JUMP JUMPDEST SWAP2 POP POP SWAP3 SWAP2 POP POP JUMP JUMPDEST PUSH1 0x0 PUSH1 0x20 DUP3 DUP5 SUB SLT ISZERO PUSH2 0x3013 JUMPI PUSH2 0x3012 PUSH2 0x3B75 JUMP JUMPDEST JUMPDEST PUSH1 0x0 PUSH2 0x3021 DUP5 DUP3 DUP6 ADD PUSH2 0x2F3D JUMP JUMPDEST SWAP2 POP POP SWAP3 SWAP2 POP POP JUMP JUMPDEST PUSH1 0x0 PUSH1 0x20 DUP3 DUP5 SUB SLT ISZERO PUSH2 0x3040 JUMPI PUSH2 0x303F PUSH2 0x3B75 JUMP JUMPDEST JUMPDEST PUSH1 0x0 PUSH2 0x304E DUP5 DUP3 DUP6 ADD PUSH2 0x2F67 JUMP JUMPDEST SWAP2 POP POP SWAP3 SWAP2 POP POP JUMP JUMPDEST PUSH1 0x0 PUSH1 0x20 DUP3 DUP5 SUB SLT ISZERO PUSH2 0x306D JUMPI PUSH2 0x306C PUSH2 0x3B75 JUMP JUMPDEST JUMPDEST PUSH1 0x0 PUSH2 0x307B DUP5 DUP3 DUP6 ADD PUSH2 0x2F91 JUMP JUMPDEST SWAP2 POP POP SWAP3 SWAP2 POP POP JUMP JUMPDEST PUSH1 0x0 PUSH1 0x20 DUP3 DUP5 SUB SLT ISZERO PUSH2 0x309A JUMPI PUSH2 0x3099 PUSH2 0x3B75 JUMP JUMPDEST JUMPDEST PUSH1 0x0 PUSH2 0x30A8 DUP5 DUP3 DUP6 ADD PUSH2 0x2FA6 JUMP JUMPDEST SWAP2 POP POP SWAP3 SWAP2 POP POP JUMP JUMPDEST PUSH1 0x0 PUSH1 0x20 DUP3 DUP5 SUB SLT ISZERO PUSH2 0x30C7 JUMPI PUSH2 0x30C6 PUSH2 0x3B75 JUMP JUMPDEST JUMPDEST PUSH1 0x0 PUSH2 0x30D5 DUP5 DUP3 DUP6 ADD PUSH2 0x2FBB JUMP JUMPDEST SWAP2 POP POP SWAP3 SWAP2 POP POP JUMP JUMPDEST PUSH1 0x0 DUP1 PUSH1 0x40 DUP4 DUP6 SUB SLT ISZERO PUSH2 0x30F5 JUMPI PUSH2 0x30F4 PUSH2 0x3B75 JUMP JUMPDEST JUMPDEST PUSH1 0x0 PUSH2 0x3103 DUP6 DUP3 DUP7 ADD PUSH2 0x2FA6 JUMP JUMPDEST SWAP3 POP POP PUSH1 0x20 PUSH2 0x3114 DUP6 DUP3 DUP7 ADD PUSH2 0x2F13 JUMP JUMPDEST SWAP2 POP POP SWAP3 POP SWAP3 SWAP1 POP JUMP JUMPDEST PUSH1 0x0 DUP1 PUSH1 0x0 DUP1 PUSH1 0x0 DUP1 PUSH1 0x0 PUSH1 0xE0 DUP9 DUP11 SUB SLT ISZERO PUSH2 0x313D JUMPI PUSH2 0x313C PUSH2 0x3B75 JUMP JUMPDEST JUMPDEST PUSH1 0x0 PUSH2 0x314B DUP11 DUP3 DUP12 ADD PUSH2 0x2FA6 JUMP JUMPDEST SWAP8 POP POP PUSH1 0x20 PUSH2 0x315C DUP11 DUP3 DUP12 ADD PUSH2 0x2F52 JUMP JUMPDEST SWAP7 POP POP PUSH1 0x40 PUSH2 0x316D DUP11 DUP3 DUP12 ADD PUSH2 0x2F28 JUMP JUMPDEST SWAP6 POP POP PUSH1 0x60 PUSH2 0x317E DUP11 DUP3 DUP12 ADD PUSH2 0x2F7C JUMP JUMPDEST SWAP5 POP POP PUSH1 0x80 PUSH2 0x318F DUP11 DUP3 DUP12 ADD PUSH2 0x2F52 JUMP JUMPDEST SWAP4 POP POP PUSH1 0xA0 PUSH2 0x31A0 DUP11 DUP3 DUP12 ADD PUSH2 0x2FA6 JUMP JUMPDEST SWAP3 POP POP PUSH1 0xC0 PUSH2 0x31B1 DUP11 DUP3 DUP12 ADD PUSH2 0x2FA6 JUMP JUMPDEST SWAP2 POP POP SWAP3 SWAP6 SWAP9 SWAP2 SWAP5 SWAP8 POP SWAP3 SWAP6 POP JUMP JUMPDEST PUSH1 0x0 DUP1 PUSH1 0x40 DUP4 DUP6 SUB SLT ISZERO PUSH2 0x31D7 JUMPI PUSH2 0x31D6 PUSH2 0x3B75 JUMP JUMPDEST JUMPDEST PUSH1 0x0 PUSH2 0x31E5 DUP6 DUP3 DUP7 ADD PUSH2 0x2FA6 JUMP JUMPDEST SWAP3 POP POP PUSH1 0x20 PUSH2 0x31F6 DUP6 DUP3 DUP7 ADD PUSH2 0x2FA6 JUMP JUMPDEST SWAP2 POP POP SWAP3 POP SWAP3 SWAP1 POP JUMP JUMPDEST PUSH1 0x0 DUP1 PUSH1 0x0 PUSH1 0x60 DUP5 DUP7 SUB SLT ISZERO PUSH2 0x3219 JUMPI PUSH2 0x3218 PUSH2 0x3B75 JUMP JUMPDEST JUMPDEST PUSH1 0x0 PUSH2 0x3227 DUP7 DUP3 DUP8 ADD PUSH2 0x2FA6 JUMP JUMPDEST SWAP4 POP POP PUSH1 0x20 PUSH2 0x3238 DUP7 DUP3 DUP8 ADD PUSH2 0x2FA6 JUMP JUMPDEST SWAP3 POP POP PUSH1 0x40 PUSH2 0x3249 DUP7 DUP3 DUP8 ADD PUSH2 0x2F28 JUMP JUMPDEST SWAP2 POP POP SWAP3 POP SWAP3 POP SWAP3 JUMP JUMPDEST PUSH1 0x0 DUP1 PUSH1 0x0 PUSH1 0x60 DUP5 DUP7 SUB SLT ISZERO PUSH2 0x326C JUMPI PUSH2 0x326B PUSH2 0x3B75 JUMP JUMPDEST JUMPDEST PUSH1 0x0 PUSH2 0x327A DUP7 DUP3 DUP8 ADD PUSH2 0x2FA6 JUMP JUMPDEST SWAP4 POP POP PUSH1 0x20 PUSH2 0x328B DUP7 DUP3 DUP8 ADD PUSH2 0x2FA6 JUMP JUMPDEST SWAP3 POP POP PUSH1 0x40 PUSH2 0x329C DUP7 DUP3 DUP8 ADD PUSH2 0x2FA6 JUMP JUMPDEST SWAP2 POP POP SWAP3 POP SWAP3 POP SWAP3 JUMP JUMPDEST PUSH2 0x32AF DUP2 PUSH2 0x3982 JUMP JUMPDEST DUP3 MSTORE POP POP JUMP JUMPDEST PUSH1 0x0 PUSH2 0x32C0 DUP3 PUSH2 0x383B JUMP JUMPDEST PUSH2 0x32CA DUP2 DUP6 PUSH2 0x3851 JUMP JUMPDEST SWAP4 POP PUSH2 0x32DA DUP2 DUP6 PUSH1 0x20 DUP7 ADD PUSH2 0x3A6C JUMP JUMPDEST DUP1 DUP5 ADD SWAP2 POP POP SWAP3 SWAP2 POP POP JUMP JUMPDEST PUSH2 0x32EF DUP2 PUSH2 0x3A00 JUMP JUMPDEST DUP3 MSTORE POP POP JUMP JUMPDEST PUSH2 0x32FE DUP2 PUSH2 0x3A12 JUMP JUMPDEST DUP3 MSTORE POP POP JUMP JUMPDEST PUSH2 0x330D DUP2 PUSH2 0x3A24 JUMP JUMPDEST DUP3 MSTORE POP POP JUMP JUMPDEST PUSH2 0x331C DUP2 PUSH2 0x3A36 JUMP JUMPDEST DUP3 MSTORE POP POP JUMP JUMPDEST PUSH1 0x0 PUSH2 0x332D DUP3 PUSH2 0x3846 JUMP JUMPDEST PUSH2 0x3337 DUP2 DUP6 PUSH2 0x385C JUMP JUMPDEST SWAP4 POP PUSH2 0x3347 DUP2 DUP6 PUSH1 0x20 DUP7 ADD PUSH2 0x3A6C JUMP JUMPDEST PUSH2 0x3350 DUP2 PUSH2 0x3B7A JUMP JUMPDEST DUP5 ADD SWAP2 POP POP SWAP3 SWAP2 POP POP JUMP JUMPDEST PUSH1 0x0 PUSH2 0x3368 PUSH1 0x26 DUP4 PUSH2 0x385C JUMP JUMPDEST SWAP2 POP PUSH2 0x3373 DUP3 PUSH2 0x3B8B JUMP JUMPDEST PUSH1 0x40 DUP3 ADD SWAP1 POP SWAP2 SWAP1 POP JUMP JUMPDEST PUSH1 0x0 PUSH2 0x338B PUSH1 0x1B DUP4 PUSH2 0x385C JUMP JUMPDEST SWAP2 POP PUSH2 0x3396 DUP3 PUSH2 0x3BDA JUMP JUMPDEST PUSH1 0x20 DUP3 ADD SWAP1 POP SWAP2 SWAP1 POP JUMP JUMPDEST PUSH1 0x0 PUSH2 0x33AE PUSH1 0x26 DUP4 PUSH2 0x385C JUMP JUMPDEST SWAP2 POP PUSH2 0x33B9 DUP3 PUSH2 0x3C03 JUMP JUMPDEST PUSH1 0x40 DUP3 ADD SWAP1 POP SWAP2 SWAP1 POP JUMP JUMPDEST PUSH1 0x0 PUSH2 0x33D1 PUSH1 0x21 DUP4 PUSH2 0x385C JUMP JUMPDEST SWAP2 POP PUSH2 0x33DC DUP3 PUSH2 0x3C52 JUMP JUMPDEST PUSH1 0x40 DUP3 ADD SWAP1 POP SWAP2 SWAP1 POP JUMP JUMPDEST PUSH1 0x0 PUSH2 0x33F4 PUSH1 0x20 DUP4 PUSH2 0x385C JUMP JUMPDEST SWAP2 POP PUSH2 0x33FF DUP3 PUSH2 0x3CA1 JUMP JUMPDEST PUSH1 0x20 DUP3 ADD SWAP1 POP SWAP2 SWAP1 POP JUMP JUMPDEST PUSH1 0x0 PUSH2 0x3417 PUSH1 0x1D DUP4 PUSH2 0x385C JUMP JUMPDEST SWAP2 POP PUSH2 0x3422 DUP3 PUSH2 0x3CCA JUMP JUMPDEST PUSH1 0x20 DUP3 ADD SWAP1 POP SWAP2 SWAP1 POP JUMP JUMPDEST PUSH1 0x0 PUSH2 0x343A PUSH1 0x12 DUP4 PUSH2 0x385C JUMP JUMPDEST SWAP2 POP PUSH2 0x3445 DUP3 PUSH2 0x3CF3 JUMP JUMPDEST PUSH1 0x20 DUP3 ADD SWAP1 POP SWAP2 SWAP1 POP JUMP JUMPDEST PUSH1 0x0 PUSH2 0x345D PUSH1 0x2A DUP4 PUSH2 0x385C JUMP JUMPDEST SWAP2 POP PUSH2 0x3468 DUP3 PUSH2 0x3D1C JUMP JUMPDEST PUSH1 0x40 DUP3 ADD SWAP1 POP SWAP2 SWAP1 POP JUMP JUMPDEST PUSH1 0x0 PUSH2 0x3480 PUSH1 0xC DUP4 PUSH2 0x385C JUMP JUMPDEST SWAP2 POP PUSH2 0x348B DUP3 PUSH2 0x3D6B JUMP JUMPDEST PUSH1 0x20 DUP3 ADD SWAP1 POP SWAP2 SWAP1 POP JUMP JUMPDEST PUSH1 0x0 PUSH2 0x34A3 PUSH1 0x36 DUP4 PUSH2 0x385C JUMP JUMPDEST SWAP2 POP PUSH2 0x34AE DUP3 PUSH2 0x3D94 JUMP JUMPDEST PUSH1 0x40 DUP3 ADD SWAP1 POP SWAP2 SWAP1 POP JUMP JUMPDEST PUSH1 0x0 PUSH2 0x34C6 PUSH1 0x14 DUP4 PUSH2 0x385C JUMP JUMPDEST SWAP2 POP PUSH2 0x34D1 DUP3 PUSH2 0x3DE3 JUMP JUMPDEST PUSH1 0x20 DUP3 ADD SWAP1 POP SWAP2 SWAP1 POP JUMP JUMPDEST PUSH2 0x34E5 DUP2 PUSH2 0x39F6 JUMP JUMPDEST DUP3 MSTORE POP POP JUMP JUMPDEST PUSH1 0x0 PUSH2 0x34F7 DUP3 DUP5 PUSH2 0x32B5 JUMP JUMPDEST SWAP2 POP DUP2 SWAP1 POP SWAP3 SWAP2 POP POP JUMP JUMPDEST PUSH1 0x0 PUSH1 0x20 DUP3 ADD SWAP1 POP PUSH2 0x3517 PUSH1 0x0 DUP4 ADD DUP5 PUSH2 0x32A6 JUMP JUMPDEST SWAP3 SWAP2 POP POP JUMP JUMPDEST PUSH1 0x0 PUSH1 0x40 DUP3 ADD SWAP1 POP PUSH2 0x3532 PUSH1 0x0 DUP4 ADD DUP6 PUSH2 0x32A6 JUMP JUMPDEST PUSH2 0x353F PUSH1 0x20 DUP4 ADD DUP5 PUSH2 0x32A6 JUMP JUMPDEST SWAP4 SWAP3 POP POP POP JUMP JUMPDEST PUSH1 0x0 PUSH1 0x60 DUP3 ADD SWAP1 POP PUSH2 0x355B PUSH1 0x0 DUP4 ADD DUP7 PUSH2 0x32A6 JUMP JUMPDEST PUSH2 0x3568 PUSH1 0x20 DUP4 ADD DUP6 PUSH2 0x32A6 JUMP JUMPDEST PUSH2 0x3575 PUSH1 0x40 DUP4 ADD DUP5 PUSH2 0x34DC JUMP JUMPDEST SWAP5 SWAP4 POP POP POP POP JUMP JUMPDEST PUSH1 0x0 PUSH1 0x40 DUP3 ADD SWAP1 POP PUSH2 0x3592 PUSH1 0x0 DUP4 ADD DUP6 PUSH2 0x32A6 JUMP JUMPDEST PUSH2 0x359F PUSH1 0x20 DUP4 ADD DUP5 PUSH2 0x34DC JUMP JUMPDEST SWAP4 SWAP3 POP POP POP JUMP JUMPDEST PUSH1 0x0 PUSH1 0x20 DUP3 ADD SWAP1 POP PUSH2 0x35BB PUSH1 0x0 DUP4 ADD DUP5 PUSH2 0x32E6 JUMP JUMPDEST SWAP3 SWAP2 POP POP JUMP JUMPDEST PUSH1 0x0 PUSH2 0x100 DUP3 ADD SWAP1 POP PUSH2 0x35D7 PUSH1 0x0 DUP4 ADD DUP12 PUSH2 0x32E6 JUMP JUMPDEST PUSH2 0x35E4 PUSH1 0x20 DUP4 ADD DUP11 PUSH2 0x34DC JUMP JUMPDEST PUSH2 0x35F1 PUSH1 0x40 DUP4 ADD DUP10 PUSH2 0x34DC JUMP JUMPDEST PUSH2 0x35FE PUSH1 0x60 DUP4 ADD DUP9 PUSH2 0x34DC JUMP JUMPDEST PUSH2 0x360B PUSH1 0x80 DUP4 ADD DUP8 PUSH2 0x32F5 JUMP JUMPDEST PUSH2 0x3618 PUSH1 0xA0 DUP4 ADD DUP7 PUSH2 0x32E6 JUMP JUMPDEST PUSH2 0x3625 PUSH1 0xC0 DUP4 ADD DUP6 PUSH2 0x34DC JUMP JUMPDEST PUSH2 0x3632 PUSH1 0xE0 DUP4 ADD DUP5 PUSH2 0x34DC JUMP JUMPDEST SWAP10 SWAP9 POP POP POP POP POP POP POP POP POP JUMP JUMPDEST PUSH1 0x0 PUSH1 0x20 DUP3 ADD SWAP1 POP PUSH2 0x3654 PUSH1 0x0 DUP4 ADD DUP5 PUSH2 0x3304 JUMP JUMPDEST SWAP3 SWAP2 POP POP JUMP JUMPDEST PUSH1 0x0 PUSH1 0x20 DUP3 ADD SWAP1 POP PUSH2 0x366F PUSH1 0x0 DUP4 ADD DUP5 PUSH2 0x3313 JUMP JUMPDEST SWAP3 SWAP2 POP POP JUMP JUMPDEST PUSH1 0x0 PUSH1 0x20 DUP3 ADD SWAP1 POP DUP2 DUP2 SUB PUSH1 0x0 DUP4 ADD MSTORE PUSH2 0x368F DUP2 DUP5 PUSH2 0x3322 JUMP JUMPDEST SWAP1 POP SWAP3 SWAP2 POP POP JUMP JUMPDEST PUSH1 0x0 PUSH1 0x20 DUP3 ADD SWAP1 POP DUP2 DUP2 SUB PUSH1 0x0 DUP4 ADD MSTORE PUSH2 0x36B0 DUP2 PUSH2 0x335B JUMP JUMPDEST SWAP1 POP SWAP2 SWAP1 POP JUMP JUMPDEST PUSH1 0x0 PUSH1 0x20 DUP3 ADD SWAP1 POP DUP2 DUP2 SUB PUSH1 0x0 DUP4 ADD MSTORE PUSH2 0x36D0 DUP2 PUSH2 0x337E JUMP JUMPDEST SWAP1 POP SWAP2 SWAP1 POP JUMP JUMPDEST PUSH1 0x0 PUSH1 0x20 DUP3 ADD SWAP1 POP DUP2 DUP2 SUB PUSH1 0x0 DUP4 ADD MSTORE PUSH2 0x36F0 DUP2 PUSH2 0x33A1 JUMP JUMPDEST SWAP1 POP SWAP2 SWAP1 POP JUMP JUMPDEST PUSH1 0x0 PUSH1 0x20 DUP3 ADD SWAP1 POP DUP2 DUP2 SUB PUSH1 0x0 DUP4 ADD MSTORE PUSH2 0x3710 DUP2 PUSH2 0x33C4 JUMP JUMPDEST SWAP1 POP SWAP2 SWAP1 POP JUMP JUMPDEST PUSH1 0x0 PUSH1 0x20 DUP3 ADD SWAP1 POP DUP2 DUP2 SUB PUSH1 0x0 DUP4 ADD MSTORE PUSH2 0x3730 DUP2 PUSH2 0x33E7 JUMP JUMPDEST SWAP1 POP SWAP2 SWAP1 POP JUMP JUMPDEST PUSH1 0x0 PUSH1 0x20 DUP3 ADD SWAP1 POP DUP2 DUP2 SUB PUSH1 0x0 DUP4 ADD MSTORE PUSH2 0x3750 DUP2 PUSH2 0x340A JUMP JUMPDEST SWAP1 POP SWAP2 SWAP1 POP JUMP JUMPDEST PUSH1 0x0 PUSH1 0x20 DUP3 ADD SWAP1 POP DUP2 DUP2 SUB PUSH1 0x0 DUP4 ADD MSTORE PUSH2 0x3770 DUP2 PUSH2 0x342D JUMP JUMPDEST SWAP1 POP SWAP2 SWAP1 POP JUMP JUMPDEST PUSH1 0x0 PUSH1 0x20 DUP3 ADD SWAP1 POP DUP2 DUP2 SUB PUSH1 0x0 DUP4 ADD MSTORE PUSH2 0x3790 DUP2 PUSH2 0x3450 JUMP JUMPDEST SWAP1 POP SWAP2 SWAP1 POP JUMP JUMPDEST PUSH1 0x0 PUSH1 0x20 DUP3 ADD SWAP1 POP DUP2 DUP2 SUB PUSH1 0x0 DUP4 ADD MSTORE PUSH2 0x37B0 DUP2 PUSH2 0x3473 JUMP JUMPDEST SWAP1 POP SWAP2 SWAP1 POP JUMP JUMPDEST PUSH1 0x0 PUSH1 0x20 DUP3 ADD SWAP1 POP DUP2 DUP2 SUB PUSH1 0x0 DUP4 ADD MSTORE PUSH2 0x37D0 DUP2 PUSH2 0x3496 JUMP JUMPDEST SWAP1 POP SWAP2 SWAP1 POP JUMP JUMPDEST PUSH1 0x0 PUSH1 0x20 DUP3 ADD SWAP1 POP DUP2 DUP2 SUB PUSH1 0x0 DUP4 ADD MSTORE PUSH2 0x37F0 DUP2 PUSH2 0x34B9 JUMP JUMPDEST SWAP1 POP SWAP2 SWAP1 POP JUMP JUMPDEST PUSH1 0x0 PUSH1 0x20 DUP3 ADD SWAP1 POP PUSH2 0x380C PUSH1 0x0 DUP4 ADD DUP5 PUSH2 0x34DC JUMP JUMPDEST SWAP3 SWAP2 POP POP JUMP JUMPDEST PUSH1 0x0 PUSH1 0x40 DUP3 ADD SWAP1 POP PUSH2 0x3827 PUSH1 0x0 DUP4 ADD DUP6 PUSH2 0x34DC JUMP JUMPDEST PUSH2 0x3834 PUSH1 0x20 DUP4 ADD DUP5 PUSH2 0x34DC JUMP JUMPDEST SWAP4 SWAP3 POP POP POP JUMP JUMPDEST PUSH1 0x0 DUP2 MLOAD SWAP1 POP SWAP2 SWAP1 POP JUMP JUMPDEST PUSH1 0x0 DUP2 MLOAD SWAP1 POP SWAP2 SWAP1 POP JUMP JUMPDEST PUSH1 0x0 DUP2 SWAP1 POP SWAP3 SWAP2 POP POP JUMP JUMPDEST PUSH1 0x0 DUP3 DUP3 MSTORE PUSH1 0x20 DUP3 ADD SWAP1 POP SWAP3 SWAP2 POP POP JUMP JUMPDEST PUSH1 0x0 PUSH2 0x3878 DUP3 PUSH2 0x39F6 JUMP JUMPDEST SWAP2 POP PUSH2 0x3883 DUP4 PUSH2 0x39F6 JUMP JUMPDEST SWAP3 POP DUP3 PUSH32 0xFFFFFFFFFFFFFFFFFFFFFFFFFFFFFFFFFFFFFFFFFFFFFFFFFFFFFFFFFFFFFFFF SUB DUP3 GT ISZERO PUSH2 0x38B8 JUMPI PUSH2 0x38B7 PUSH2 0x3AE8 JUMP JUMPDEST JUMPDEST DUP3 DUP3 ADD SWAP1 POP SWAP3 SWAP2 POP POP JUMP JUMPDEST PUSH1 0x0 PUSH2 0x38CE DUP3 PUSH2 0x39F6 JUMP JUMPDEST SWAP2 POP PUSH2 0x38D9 DUP4 PUSH2 0x39F6 JUMP JUMPDEST SWAP3 POP DUP3 PUSH2 0x38E9 JUMPI PUSH2 0x38E8 PUSH2 0x3B17 JUMP JUMPDEST JUMPDEST DUP3 DUP3 DIV SWAP1 POP SWAP3 SWAP2 POP POP JUMP JUMPDEST PUSH1 0x0 PUSH2 0x38FF DUP3 PUSH2 0x39F6 JUMP JUMPDEST SWAP2 POP PUSH2 0x390A DUP4 PUSH2 0x39F6 JUMP JUMPDEST SWAP3 POP DUP2 PUSH32 0xFFFFFFFFFFFFFFFFFFFFFFFFFFFFFFFFFFFFFFFFFFFFFFFFFFFFFFFFFFFFFFFF DIV DUP4 GT DUP3 ISZERO ISZERO AND ISZERO PUSH2 0x3943 JUMPI PUSH2 0x3942 PUSH2 0x3AE8 JUMP JUMPDEST JUMPDEST DUP3 DUP3 MUL SWAP1 POP SWAP3 SWAP2 POP POP JUMP JUMPDEST PUSH1 0x0 PUSH2 0x3959 DUP3 PUSH2 0x39F6 JUMP JUMPDEST SWAP2 POP PUSH2 0x3964 DUP4 PUSH2 0x39F6 JUMP JUMPDEST SWAP3 POP DUP3 DUP3 LT ISZERO PUSH2 0x3977 JUMPI PUSH2 0x3976 PUSH2 0x3AE8 JUMP JUMPDEST JUMPDEST DUP3 DUP3 SUB SWAP1 POP SWAP3 SWAP2 POP POP JUMP JUMPDEST PUSH1 0x0 PUSH2 0x398D DUP3 PUSH2 0x39D6 JUMP JUMPDEST SWAP1 POP SWAP2 SWAP1 POP JUMP JUMPDEST PUSH1 0x0 DUP2 ISZERO ISZERO SWAP1 POP SWAP2 SWAP1 POP JUMP JUMPDEST PUSH1 0x0 PUSH2 0x39AB DUP3 PUSH2 0x3982 JUMP JUMPDEST SWAP1 POP SWAP2 SWAP1 POP JUMP JUMPDEST PUSH1 0x0 PUSH2 0x39BD DUP3 PUSH2 0x3982 JUMP JUMPDEST SWAP1 POP SWAP2 SWAP1 POP JUMP JUMPDEST PUSH1 0x0 PUSH2 0x39CF DUP3 PUSH2 0x3982 JUMP JUMPDEST SWAP1 POP SWAP2 SWAP1 POP JUMP JUMPDEST PUSH1 0x0 PUSH20 0xFFFFFFFFFFFFFFFFFFFFFFFFFFFFFFFFFFFFFFFF DUP3 AND SWAP1 POP SWAP2 SWAP1 POP JUMP JUMPDEST PUSH1 0x0 DUP2 SWAP1 POP SWAP2 SWAP1 POP JUMP JUMPDEST PUSH1 0x0 PUSH2 0x3A0B DUP3 PUSH2 0x3A48 JUMP JUMPDEST SWAP1 POP SWAP2 SWAP1 POP JUMP JUMPDEST PUSH1 0x0 PUSH2 0x3A1D DUP3 PUSH2 0x3A48 JUMP JUMPDEST SWAP1 POP SWAP2 SWAP1 POP JUMP JUMPDEST PUSH1 0x0 PUSH2 0x3A2F DUP3 PUSH2 0x3A48 JUMP JUMPDEST SWAP1 POP SWAP2 SWAP1 POP JUMP JUMPDEST PUSH1 0x0 PUSH2 0x3A41 DUP3 PUSH2 0x3A48 JUMP JUMPDEST SWAP1 POP SWAP2 SWAP1 POP JUMP JUMPDEST PUSH1 0x0 PUSH2 0x3A53 DUP3 PUSH2 0x3A5A JUMP JUMPDEST SWAP1 POP SWAP2 SWAP1 POP JUMP JUMPDEST PUSH1 0x0 PUSH2 0x3A65 DUP3 PUSH2 0x39D6 JUMP JUMPDEST SWAP1 POP SWAP2 SWAP1 POP JUMP JUMPDEST PUSH1 0x0 JUMPDEST DUP4 DUP2 LT ISZERO PUSH2 0x3A8A JUMPI DUP1 DUP3 ADD MLOAD DUP2 DUP5 ADD MSTORE PUSH1 0x20 DUP2 ADD SWAP1 POP PUSH2 0x3A6F JUMP JUMPDEST DUP4 DUP2 GT ISZERO PUSH2 0x3A99 JUMPI PUSH1 0x0 DUP5 DUP5 ADD MSTORE JUMPDEST POP POP POP POP JUMP JUMPDEST PUSH1 0x0 PUSH2 0x3AAA DUP3 PUSH2 0x39F6 JUMP JUMPDEST SWAP2 POP PUSH32 0xFFFFFFFFFFFFFFFFFFFFFFFFFFFFFFFFFFFFFFFFFFFFFFFFFFFFFFFFFFFFFFFF DUP3 EQ ISZERO PUSH2 0x3ADD JUMPI PUSH2 0x3ADC PUSH2 0x3AE8 JUMP JUMPDEST JUMPDEST PUSH1 0x1 DUP3 ADD SWAP1 POP SWAP2 SWAP1 POP JUMP JUMPDEST PUSH32 0x4E487B7100000000000000000000000000000000000000000000000000000000 PUSH1 0x0 MSTORE PUSH1 0x11 PUSH1 0x4 MSTORE PUSH1 0x24 PUSH1 0x0 REVERT JUMPDEST PUSH32 0x4E487B7100000000000000000000000000000000000000000000000000000000 PUSH1 0x0 MSTORE PUSH1 0x12 PUSH1 0x4 MSTORE PUSH1 0x24 PUSH1 0x0 REVERT JUMPDEST PUSH32 0x4E487B7100000000000000000000000000000000000000000000000000000000 PUSH1 0x0 MSTORE PUSH1 0x32 PUSH1 0x4 MSTORE PUSH1 0x24 PUSH1 0x0 REVERT JUMPDEST PUSH1 0x0 DUP1 REVERT JUMPDEST PUSH1 0x0 PUSH1 0x1F NOT PUSH1 0x1F DUP4 ADD AND SWAP1 POP SWAP2 SWAP1 POP JUMP JUMPDEST PUSH32 0x4F776E61626C653A206E6577206F776E657220697320746865207A65726F2061 PUSH1 0x0 DUP3 ADD MSTORE PUSH32 0x6464726573730000000000000000000000000000000000000000000000000000 PUSH1 0x20 DUP3 ADD MSTORE POP JUMP JUMPDEST PUSH32 0x536166654D6174683A206164646974696F6E206F766572666C6F770000000000 PUSH1 0x0 DUP3 ADD MSTORE POP JUMP JUMPDEST PUSH32 0x416464726573733A20696E73756666696369656E742062616C616E636520666F PUSH1 0x0 DUP3 ADD MSTORE PUSH32 0x722063616C6C0000000000000000000000000000000000000000000000000000 PUSH1 0x20 DUP3 ADD MSTORE POP JUMP JUMPDEST PUSH32 0x536166654D6174683A206D756C7469706C69636174696F6E206F766572666C6F PUSH1 0x0 DUP3 ADD MSTORE PUSH32 0x7700000000000000000000000000000000000000000000000000000000000000 PUSH1 0x20 DUP3 ADD MSTORE POP JUMP JUMPDEST PUSH32 0x4F776E61626C653A2063616C6C6572206973206E6F7420746865206F776E6572 PUSH1 0x0 DUP3 ADD MSTORE POP JUMP JUMPDEST PUSH32 0x416464726573733A2063616C6C20746F206E6F6E2D636F6E7472616374000000 PUSH1 0x0 DUP3 ADD MSTORE POP JUMP JUMPDEST PUSH32 0x77697468647261773A206E6F7420676F6F640000000000000000000000000000 PUSH1 0x0 DUP3 ADD MSTORE POP JUMP JUMPDEST PUSH32 0x5361666545524332303A204552433230206F7065726174696F6E20646964206E PUSH1 0x0 DUP3 ADD MSTORE PUSH32 0x6F74207375636365656400000000000000000000000000000000000000000000 PUSH1 0x20 DUP3 ADD MSTORE POP JUMP JUMPDEST PUSH32 0x6D6967726174653A206261640000000000000000000000000000000000000000 PUSH1 0x0 DUP3 ADD MSTORE POP JUMP JUMPDEST PUSH32 0x5361666545524332303A20617070726F76652066726F6D206E6F6E2D7A65726F PUSH1 0x0 DUP3 ADD MSTORE PUSH32 0x20746F206E6F6E2D7A65726F20616C6C6F77616E636500000000000000000000 PUSH1 0x20 DUP3 ADD MSTORE POP JUMP JUMPDEST PUSH32 0x6D6967726174653A206E6F206D69677261746F72000000000000000000000000 PUSH1 0x0 DUP3 ADD MSTORE POP JUMP JUMPDEST PUSH2 0x3E15 DUP2 PUSH2 0x3982 JUMP JUMPDEST DUP2 EQ PUSH2 0x3E20 JUMPI PUSH1 0x0 DUP1 REVERT JUMPDEST POP JUMP JUMPDEST PUSH2 0x3E2C DUP2 PUSH2 0x3994 JUMP JUMPDEST DUP2 EQ PUSH2 0x3E37 JUMPI PUSH1 0x0 DUP1 REVERT JUMPDEST POP JUMP JUMPDEST PUSH2 0x3E43 DUP2 PUSH2 0x39A0 JUMP JUMPDEST DUP2 EQ PUSH2 0x3E4E JUMPI PUSH1 0x0 DUP1 REVERT JUMPDEST POP JUMP JUMPDEST PUSH2 0x3E5A DUP2 PUSH2 0x39B2 JUMP JUMPDEST DUP2 EQ PUSH2 0x3E65 JUMPI PUSH1 0x0 DUP1 REVERT JUMPDEST POP JUMP JUMPDEST PUSH2 0x3E71 DUP2 PUSH2 0x39C4 JUMP JUMPDEST DUP2 EQ PUSH2 0x3E7C JUMPI PUSH1 0x0 DUP1 REVERT JUMPDEST POP JUMP JUMPDEST PUSH2 0x3E88 DUP2 PUSH2 0x39F6 JUMP JUMPDEST DUP2 EQ PUSH2 0x3E93 JUMPI PUSH1 0x0 DUP1 REVERT JUMPDEST POP JUMP INVALID LOG2 PUSH5 0x6970667358 0x22 SLT KECCAK256 0xDD MULMOD PUSH9 0xD7623F230045EE2921 SGT 0xF8 PUSH24 0x9C09809A6786B80DD8FD648EF7198B5D0964736F6C634300 ADDMOD SMOD STOP CALLER "
				},
				"gasEstimates": {
					"creation": {
						"codeDepositCost": "3215200",
						"executionCost": "infinite",
						"totalCost": "infinite"
					},
					"external": {
						"BONUS_MULTIPLIER()": "2496",
						"DRG()": "2646",
						"DRGPerBlock()": "2496",
						"NFTMasterChef()": "2666",
						"add(uint256,address,bool,address,address,uint256,uint256)": "infinite",
						"deposit(uint256,uint256,uint256)": "infinite",
						"devaddr()": "2558",
						"emergencyWithdraw(uint256)": "infinite",
						"emergencyWithdrawFromBSW(uint256)": "infinite",
						"enablePool(uint256)": "infinite",
						"getMultiplier(uint256,uint256)": "infinite",
						"massUpdatePools()": "infinite",
						"migrate(uint256)": "infinite",
						"migrator()": "2645",
						"owner()": "2611",
						"pendingDRG(uint256,address)": "infinite",
						"poolBalance(uint256)": "infinite",
						"poolInfo(uint256)": "infinite",
						"poolLength()": "2514",
						"renounceOwnership()": "30486",
						"set(uint256,uint256,bool)": "infinite",
						"setDevAddress(address)": "27073",
						"setMigrator(address)": "27117",
						"startBlock()": "2497",
						"totalAllocPoint()": "2519",
						"transferOwnership(address)": "30833",
						"updateDRGPerBlock(uint256)": "24851",
						"updateMultiplier(uint256)": "24827",
						"updatePool(uint256)": "infinite",
						"userInfo(uint256,address)": "infinite",
						"withdraw(uint256,uint256,uint256)": "infinite"
					},
					"internal": {
						"safeDRGTransfer(address,uint256)": "infinite"
					}
				},
				"methodIdentifiers": {
					"BONUS_MULTIPLIER()": "8aa28550",
					"DRG()": "141aa0ba",
					"DRGPerBlock()": "a1eef821",
					"NFTMasterChef()": "e4d09896",
					"add(uint256,address,bool,address,address,uint256,uint256)": "64944193",
					"deposit(uint256,uint256,uint256)": "00aeef8a",
					"devaddr()": "d49e77cd",
					"emergencyWithdraw(uint256)": "5312ea8e",
					"emergencyWithdrawFromBSW(uint256)": "68382a21",
					"enablePool(uint256)": "eeac3ae8",
					"getMultiplier(uint256,uint256)": "8dbb1e3a",
					"massUpdatePools()": "630b5ba1",
					"migrate(uint256)": "454b0608",
					"migrator()": "7cd07e47",
					"owner()": "8da5cb5b",
					"pendingDRG(uint256,address)": "4f17dbaf",
					"poolBalance(uint256)": "6a6d964e",
					"poolInfo(uint256)": "1526fe27",
					"poolLength()": "081e3eda",
					"renounceOwnership()": "715018a6",
					"set(uint256,uint256,bool)": "64482f79",
					"setDevAddress(address)": "d0d41fe1",
					"setMigrator(address)": "23cf3118",
					"startBlock()": "48cd4cb1",
					"totalAllocPoint()": "17caf6f1",
					"transferOwnership(address)": "f2fde38b",
					"updateDRGPerBlock(uint256)": "0fe7ea17",
					"updateMultiplier(uint256)": "5ffe6146",
					"updatePool(uint256)": "51eb05a6",
					"userInfo(uint256,address)": "93f1a40b",
					"withdraw(uint256,uint256,uint256)": "a41fe49f"
				}
			},
			"storageLayout": {
				"storage": [
					{
						"astId": 820,
						"contract": "contracts/MetaMasterChef.sol:MetaMasterChef",
						"label": "_owner",
						"offset": 0,
						"slot": "0",
						"type": "t_address"
					},
					{
						"astId": 1026,
						"contract": "contracts/MetaMasterChef.sol:MetaMasterChef",
						"label": "NFTMasterChef",
						"offset": 0,
						"slot": "1",
						"type": "t_contract(INFTMasterChef)979"
					},
					{
						"astId": 1029,
						"contract": "contracts/MetaMasterChef.sol:MetaMasterChef",
						"label": "DRG",
						"offset": 0,
						"slot": "2",
						"type": "t_contract(IERC20)286"
					},
					{
						"astId": 1031,
						"contract": "contracts/MetaMasterChef.sol:MetaMasterChef",
						"label": "devaddr",
						"offset": 0,
						"slot": "3",
						"type": "t_address"
					},
					{
						"astId": 1033,
						"contract": "contracts/MetaMasterChef.sol:MetaMasterChef",
						"label": "DRGPerBlock",
						"offset": 0,
						"slot": "4",
						"type": "t_uint256"
					},
					{
						"astId": 1036,
						"contract": "contracts/MetaMasterChef.sol:MetaMasterChef",
						"label": "BONUS_MULTIPLIER",
						"offset": 0,
						"slot": "5",
						"type": "t_uint256"
					},
					{
						"astId": 1039,
						"contract": "contracts/MetaMasterChef.sol:MetaMasterChef",
						"label": "migrator",
						"offset": 0,
						"slot": "6",
						"type": "t_contract(IMigratorChef)989"
					},
					{
						"astId": 1043,
						"contract": "contracts/MetaMasterChef.sol:MetaMasterChef",
						"label": "poolInfo",
						"offset": 0,
						"slot": "7",
						"type": "t_array(t_struct(PoolInfo)1023_storage)dyn_storage"
					},
					{
						"astId": 1050,
						"contract": "contracts/MetaMasterChef.sol:MetaMasterChef",
						"label": "userInfo",
						"offset": 0,
						"slot": "8",
						"type": "t_mapping(t_uint256,t_mapping(t_address,t_struct(UserInfo)1003_storage))"
					},
					{
						"astId": 1053,
						"contract": "contracts/MetaMasterChef.sol:MetaMasterChef",
						"label": "totalAllocPoint",
						"offset": 0,
						"slot": "9",
						"type": "t_uint256"
					},
					{
						"astId": 1055,
						"contract": "contracts/MetaMasterChef.sol:MetaMasterChef",
						"label": "startBlock",
						"offset": 0,
						"slot": "10",
						"type": "t_uint256"
					},
					{
						"astId": 1059,
						"contract": "contracts/MetaMasterChef.sol:MetaMasterChef",
						"label": "poolBalance",
						"offset": 0,
						"slot": "11",
						"type": "t_mapping(t_uint256,t_uint256)"
					},
					{
						"astId": 1062,
						"contract": "contracts/MetaMasterChef.sol:MetaMasterChef",
						"label": "approveAmount",
						"offset": 0,
						"slot": "12",
						"type": "t_uint256"
					}
				],
				"types": {
					"t_address": {
						"encoding": "inplace",
						"label": "address",
						"numberOfBytes": "20"
					},
					"t_array(t_struct(PoolInfo)1023_storage)dyn_storage": {
						"base": "t_struct(PoolInfo)1023_storage",
						"encoding": "dynamic_array",
						"label": "struct MetaMasterChef.PoolInfo[]",
						"numberOfBytes": "32"
					},
					"t_contract(IERC20)286": {
						"encoding": "inplace",
						"label": "contract IERC20",
						"numberOfBytes": "20"
					},
					"t_contract(IMasterChef)971": {
						"encoding": "inplace",
						"label": "contract IMasterChef",
						"numberOfBytes": "20"
					},
					"t_contract(IMigratorChef)989": {
						"encoding": "inplace",
						"label": "contract IMigratorChef",
						"numberOfBytes": "20"
					},
					"t_contract(INFTMasterChef)979": {
						"encoding": "inplace",
						"label": "contract INFTMasterChef",
						"numberOfBytes": "20"
					},
					"t_mapping(t_address,t_struct(UserInfo)1003_storage)": {
						"encoding": "mapping",
						"key": "t_address",
						"label": "mapping(address => struct MetaMasterChef.UserInfo)",
						"numberOfBytes": "32",
						"value": "t_struct(UserInfo)1003_storage"
					},
					"t_mapping(t_uint256,t_mapping(t_address,t_struct(UserInfo)1003_storage))": {
						"encoding": "mapping",
						"key": "t_uint256",
						"label": "mapping(uint256 => mapping(address => struct MetaMasterChef.UserInfo))",
						"numberOfBytes": "32",
						"value": "t_mapping(t_address,t_struct(UserInfo)1003_storage)"
					},
					"t_mapping(t_uint256,t_uint256)": {
						"encoding": "mapping",
						"key": "t_uint256",
						"label": "mapping(uint256 => uint256)",
						"numberOfBytes": "32",
						"value": "t_uint256"
					},
					"t_struct(PoolInfo)1023_storage": {
						"encoding": "inplace",
						"label": "struct MetaMasterChef.PoolInfo",
						"members": [
							{
								"astId": 1006,
								"contract": "contracts/MetaMasterChef.sol:MetaMasterChef",
								"label": "lpToken",
								"offset": 0,
								"slot": "0",
								"type": "t_contract(IERC20)286"
							},
							{
								"astId": 1008,
								"contract": "contracts/MetaMasterChef.sol:MetaMasterChef",
								"label": "allocPoint",
								"offset": 0,
								"slot": "1",
								"type": "t_uint256"
							},
							{
								"astId": 1010,
								"contract": "contracts/MetaMasterChef.sol:MetaMasterChef",
								"label": "lastRewardBlock",
								"offset": 0,
								"slot": "2",
								"type": "t_uint256"
							},
							{
								"astId": 1012,
								"contract": "contracts/MetaMasterChef.sol:MetaMasterChef",
								"label": "accDRGPerShare",
								"offset": 0,
								"slot": "3",
								"type": "t_uint256"
							},
							{
								"astId": 1015,
								"contract": "contracts/MetaMasterChef.sol:MetaMasterChef",
								"label": "poolMasterChef",
								"offset": 0,
								"slot": "4",
								"type": "t_contract(IMasterChef)971"
							},
							{
								"astId": 1018,
								"contract": "contracts/MetaMasterChef.sol:MetaMasterChef",
								"label": "rewardToken",
								"offset": 0,
								"slot": "5",
								"type": "t_contract(IERC20)286"
							},
							{
								"astId": 1020,
								"contract": "contracts/MetaMasterChef.sol:MetaMasterChef",
								"label": "fee",
								"offset": 0,
								"slot": "6",
								"type": "t_uint256"
							},
							{
								"astId": 1022,
								"contract": "contracts/MetaMasterChef.sol:MetaMasterChef",
								"label": "method",
								"offset": 0,
								"slot": "7",
								"type": "t_uint256"
							}
						],
						"numberOfBytes": "256"
					},
					"t_struct(UserInfo)1003_storage": {
						"encoding": "inplace",
						"label": "struct MetaMasterChef.UserInfo",
						"members": [
							{
								"astId": 1000,
								"contract": "contracts/MetaMasterChef.sol:MetaMasterChef",
								"label": "amount",
								"offset": 0,
								"slot": "0",
								"type": "t_uint256"
							},
							{
								"astId": 1002,
								"contract": "contracts/MetaMasterChef.sol:MetaMasterChef",
								"label": "rewardDebt",
								"offset": 0,
								"slot": "1",
								"type": "t_uint256"
							}
						],
						"numberOfBytes": "64"
					},
					"t_uint256": {
						"encoding": "inplace",
						"label": "uint256",
						"numberOfBytes": "32"
					}
				}
			},
			"userdoc": {
				"kind": "user",
				"methods": {},
				"version": 1
			}
		}
	}
}