{
	"contracts/Utils.sol": {
		"Utils": {
			"abi": [
				{
					"inputs": [
						{
							"internalType": "contract Router",
							"name": "_routerAddress",
							"type": "address"
						}
					],
					"stateMutability": "nonpayable",
					"type": "constructor"
				},
				{
					"anonymous": false,
					"inputs": [
						{
							"indexed": true,
							"internalType": "address",
							"name": "previousOwner",
							"type": "address"
						},
						{
							"indexed": true,
							"internalType": "address",
							"name": "newOwner",
							"type": "address"
						}
					],
					"name": "OwnershipTransferred",
					"type": "event"
				},
				{
					"inputs": [],
					"name": "BUSD",
					"outputs": [
						{
							"internalType": "address",
							"name": "",
							"type": "address"
						}
					],
					"stateMutability": "view",
					"type": "function"
				},
				{
					"inputs": [
						{
							"internalType": "uint256",
							"name": "pid",
							"type": "uint256"
						},
						{
							"internalType": "contract LP",
							"name": "lpAddress",
							"type": "address"
						},
						{
							"internalType": "uint256",
							"name": "isLp",
							"type": "uint256"
						},
						{
							"internalType": "contract MetaMasterChef",
							"name": "MasterChef",
							"type": "address"
						}
					],
					"name": "CalcApy",
					"outputs": [
						{
							"internalType": "uint256",
							"name": "",
							"type": "uint256"
						}
					],
					"stateMutability": "view",
					"type": "function"
				},
				{
					"inputs": [
						{
							"internalType": "contract LP",
							"name": "lpAddress",
							"type": "address"
						}
					],
					"name": "CalcLpPrice",
					"outputs": [
						{
							"internalType": "uint256",
							"name": "",
							"type": "uint256"
						}
					],
					"stateMutability": "view",
					"type": "function"
				},
				{
					"inputs": [
						{
							"internalType": "address",
							"name": "token",
							"type": "address"
						}
					],
					"name": "Tokenprice",
					"outputs": [
						{
							"internalType": "uint256",
							"name": "",
							"type": "uint256"
						}
					],
					"stateMutability": "view",
					"type": "function"
				},
				{
					"inputs": [],
					"name": "WBNB",
					"outputs": [
						{
							"internalType": "address",
							"name": "",
							"type": "address"
						}
					],
					"stateMutability": "view",
					"type": "function"
				},
				{
					"inputs": [
						{
							"internalType": "address",
							"name": "token",
							"type": "address"
						}
					],
					"name": "WBNBPrice",
					"outputs": [
						{
							"internalType": "uint256",
							"name": "",
							"type": "uint256"
						}
					],
					"stateMutability": "view",
					"type": "function"
				},
				{
					"inputs": [
						{
							"internalType": "uint256",
							"name": "pid",
							"type": "uint256"
						},
						{
							"internalType": "contract LP",
							"name": "lpAddress",
							"type": "address"
						},
						{
							"internalType": "uint256",
							"name": "isLp",
							"type": "uint256"
						},
						{
							"internalType": "contract MetaMasterChef",
							"name": "MasterChef",
							"type": "address"
						}
					],
					"name": "calcPoolTVLInUSD",
					"outputs": [
						{
							"internalType": "uint256",
							"name": "",
							"type": "uint256"
						}
					],
					"stateMutability": "view",
					"type": "function"
				},
				{
					"inputs": [
						{
							"internalType": "uint256",
							"name": "pid",
							"type": "uint256"
						},
						{
							"internalType": "contract MetaMasterChef",
							"name": "MasterChef",
							"type": "address"
						}
					],
					"name": "getPoolWeight",
					"outputs": [
						{
							"internalType": "uint256",
							"name": "",
							"type": "uint256"
						}
					],
					"stateMutability": "view",
					"type": "function"
				},
				{
					"inputs": [
						{
							"internalType": "contract MetaMasterChef",
							"name": "MasterChef",
							"type": "address"
						}
					],
					"name": "getRewardTokenPrice",
					"outputs": [
						{
							"internalType": "uint256",
							"name": "",
							"type": "uint256"
						}
					],
					"stateMutability": "view",
					"type": "function"
				},
				{
					"inputs": [],
					"name": "owner",
					"outputs": [
						{
							"internalType": "address",
							"name": "",
							"type": "address"
						}
					],
					"stateMutability": "view",
					"type": "function"
				},
				{
					"inputs": [],
					"name": "renounceOwnership",
					"outputs": [],
					"stateMutability": "nonpayable",
					"type": "function"
				},
				{
					"inputs": [],
					"name": "routerAddress",
					"outputs": [
						{
							"internalType": "contract Router",
							"name": "",
							"type": "address"
						}
					],
					"stateMutability": "view",
					"type": "function"
				},
				{
					"inputs": [
						{
							"internalType": "contract Router",
							"name": "_routerAddress",
							"type": "address"
						}
					],
					"name": "setRouter",
					"outputs": [],
					"stateMutability": "nonpayable",
					"type": "function"
				},
				{
					"inputs": [
						{
							"internalType": "address",
							"name": "newOwner",
							"type": "address"
						}
					],
					"name": "transferOwnership",
					"outputs": [],
					"stateMutability": "nonpayable",
					"type": "function"
				}
			],
			"devdoc": {
				"kind": "dev",
				"methods": {
					"owner()": {
						"details": "Returns the address of the current owner."
					},
					"renounceOwnership()": {
						"details": "Leaves the contract without owner. It will not be possible to call `onlyOwner` functions anymore. Can only be called by the current owner. NOTE: Renouncing ownership will leave the contract without an owner, thereby removing any functionality that is only available to the owner."
					},
					"transferOwnership(address)": {
						"details": "Transfers ownership of the contract to a new account (`newOwner`). Can only be called by the current owner."
					}
				},
				"version": 1
			},
			"evm": {
				"assembly": "    /* \"contracts/Utils.sol\":17198:20908  contract Utils is Ownable{\r... */\n  mstore(0x40, 0x80)\n    /* \"contracts/Utils.sol\":17285:17327  0xae13d989daC2f0dEbFf460aC112a837C89BAa7cd */\n  0xae13d989dac2f0debff460ac112a837c89baa7cd\n    /* \"contracts/Utils.sol\":17263:17327  address public WBNB = 0xae13d989daC2f0dEbFf460aC112a837C89BAa7cd */\n  0x01\n  exp(0x0100, 0x00)\n  dup2\n  sload\n  dup2\n  0xffffffffffffffffffffffffffffffffffffffff\n  mul\n  not\n  and\n  swap1\n  dup4\n  0xffffffffffffffffffffffffffffffffffffffff\n  and\n  mul\n  or\n  swap1\n  sstore\n  pop\n    /* \"contracts/Utils.sol\":17356:17398  0x78867BbEeF44f2326bF8DDd1941a4439382EF2A7 */\n  0x78867bbeef44f2326bf8ddd1941a4439382ef2a7\n    /* \"contracts/Utils.sol\":17334:17398  address public BUSD = 0x78867BbEeF44f2326bF8DDd1941a4439382EF2A7 */\n  0x02\n  exp(0x0100, 0x00)\n  dup2\n  sload\n  dup2\n  0xffffffffffffffffffffffffffffffffffffffff\n  mul\n  not\n  and\n  swap1\n  dup4\n  0xffffffffffffffffffffffffffffffffffffffff\n  and\n  mul\n  or\n  swap1\n  sstore\n  pop\n    /* \"contracts/Utils.sol\":17422:17441  1000000000000000000 */\n  0x0de0b6b3a7640000\n    /* \"contracts/Utils.sol\":17405:17441  uint256 amount = 1000000000000000000 */\n  0x03\n  sstore\n    /* \"contracts/Utils.sol\":17510:17518  10512000 */\n  0xa06680\n    /* \"contracts/Utils.sol\":17484:17518  uint256 BLOCKS_PER_YEAR = 10512000 */\n  0x05\n  sstore\n    /* \"contracts/Utils.sol\":17528:17613  constructor(Router _routerAddress) {\r... */\n  callvalue\n  dup1\n  iszero\n  tag_1\n  jumpi\n  0x00\n  dup1\n  revert\ntag_1:\n  pop\n  mload(0x40)\n  sub(codesize, bytecodeSize)\n  dup1\n  bytecodeSize\n  dup4\n  codecopy\n  dup2\n  dup2\n  add\n  0x40\n  mstore\n  dup2\n  add\n  swap1\n  tag_2\n  swap2\n  swap1\n  tag_3\n  jump\t// in\ntag_2:\n    /* \"contracts/Utils.sol\":13728:13760  _transferOwnership(_msgSender()) */\n  tag_7\n    /* \"contracts/Utils.sol\":13747:13759  _msgSender() */\n  tag_8\n    /* \"contracts/Utils.sol\":13747:13757  _msgSender */\n  shl(0x20, tag_9)\n    /* \"contracts/Utils.sol\":13747:13759  _msgSender() */\n  0x20\n  shr\n  jump\t// in\ntag_8:\n    /* \"contracts/Utils.sol\":13728:13746  _transferOwnership */\n  shl(0x20, tag_10)\n    /* \"contracts/Utils.sol\":13728:13760  _transferOwnership(_msgSender()) */\n  0x20\n  shr\n  jump\t// in\ntag_7:\n    /* \"contracts/Utils.sol\":17591:17605  _routerAddress */\n  dup1\n    /* \"contracts/Utils.sol\":17575:17588  routerAddress */\n  0x04\n  0x00\n    /* \"contracts/Utils.sol\":17575:17605  routerAddress = _routerAddress */\n  0x0100\n  exp\n  dup2\n  sload\n  dup2\n  0xffffffffffffffffffffffffffffffffffffffff\n  mul\n  not\n  and\n  swap1\n  dup4\n  0xffffffffffffffffffffffffffffffffffffffff\n  and\n  mul\n  or\n  swap1\n  sstore\n  pop\n    /* \"contracts/Utils.sol\":17528:17613  constructor(Router _routerAddress) {\r... */\n  pop\n    /* \"contracts/Utils.sol\":17198:20908  contract Utils is Ownable{\r... */\n  jump(tag_12)\n    /* \"contracts/Utils.sol\":13223:13321  function _msgSender() internal view virtual returns (address) {\r... */\ntag_9:\n    /* \"contracts/Utils.sol\":13276:13283  address */\n  0x00\n    /* \"contracts/Utils.sol\":13303:13313  msg.sender */\n  caller\n    /* \"contracts/Utils.sol\":13296:13313  return msg.sender */\n  swap1\n  pop\n    /* \"contracts/Utils.sol\":13223:13321  function _msgSender() internal view virtual returns (address) {\r... */\n  swap1\n  jump\t// out\n    /* \"contracts/Utils.sol\":15119:15310  function _transferOwnership(address newOwner) internal virtual {\r... */\ntag_10:\n    /* \"contracts/Utils.sol\":15193:15209  address oldOwner */\n  0x00\n    /* \"contracts/Utils.sol\":15212:15218  _owner */\n  dup1\n  0x00\n  swap1\n  sload\n  swap1\n  0x0100\n  exp\n  swap1\n  div\n  0xffffffffffffffffffffffffffffffffffffffff\n  and\n    /* \"contracts/Utils.sol\":15193:15218  address oldOwner = _owner */\n  swap1\n  pop\n    /* \"contracts/Utils.sol\":15238:15246  newOwner */\n  dup2\n    /* \"contracts/Utils.sol\":15229:15235  _owner */\n  0x00\n  dup1\n    /* \"contracts/Utils.sol\":15229:15246  _owner = newOwner */\n  0x0100\n  exp\n  dup2\n  sload\n  dup2\n  0xffffffffffffffffffffffffffffffffffffffff\n  mul\n  not\n  and\n  swap1\n  dup4\n  0xffffffffffffffffffffffffffffffffffffffff\n  and\n  mul\n  or\n  swap1\n  sstore\n  pop\n    /* \"contracts/Utils.sol\":15293:15301  newOwner */\n  dup2\n    /* \"contracts/Utils.sol\":15262:15302  OwnershipTransferred(oldOwner, newOwner) */\n  0xffffffffffffffffffffffffffffffffffffffff\n  and\n    /* \"contracts/Utils.sol\":15283:15291  oldOwner */\n  dup2\n    /* \"contracts/Utils.sol\":15262:15302  OwnershipTransferred(oldOwner, newOwner) */\n  0xffffffffffffffffffffffffffffffffffffffff\n  and\n  0x8be0079c531659141344cd1fd0a4f28419497f9722a3daafe3b4186f6b6457e0\n  mload(0x40)\n  mload(0x40)\n  dup1\n  swap2\n  sub\n  swap1\n  log3\n    /* \"contracts/Utils.sol\":15182:15310  {\r... */\n  pop\n    /* \"contracts/Utils.sol\":15119:15310  function _transferOwnership(address newOwner) internal virtual {\r... */\n  pop\n  jump\t// out\n    /* \"#utility.yul\":7:178   */\ntag_16:\n    /* \"#utility.yul\":78:83   */\n  0x00\n    /* \"#utility.yul\":109:115   */\n  dup2\n    /* \"#utility.yul\":103:116   */\n  mload\n    /* \"#utility.yul\":94:116   */\n  swap1\n  pop\n    /* \"#utility.yul\":125:172   */\n  tag_18\n    /* \"#utility.yul\":166:171   */\n  dup2\n    /* \"#utility.yul\":125:172   */\n  tag_19\n  jump\t// in\ntag_18:\n    /* \"#utility.yul\":7:178   */\n  swap3\n  swap2\n  pop\n  pop\n  jump\t// out\n    /* \"#utility.yul\":184:563   */\ntag_3:\n    /* \"#utility.yul\":268:274   */\n  0x00\n    /* \"#utility.yul\":317:319   */\n  0x20\n    /* \"#utility.yul\":305:314   */\n  dup3\n    /* \"#utility.yul\":296:303   */\n  dup5\n    /* \"#utility.yul\":292:315   */\n  sub\n    /* \"#utility.yul\":288:320   */\n  slt\n    /* \"#utility.yul\":285:404   */\n  iszero\n  tag_21\n  jumpi\n    /* \"#utility.yul\":323:402   */\n  tag_22\n  tag_23\n  jump\t// in\ntag_22:\n    /* \"#utility.yul\":285:404   */\ntag_21:\n    /* \"#utility.yul\":443:444   */\n  0x00\n    /* \"#utility.yul\":468:546   */\n  tag_24\n    /* \"#utility.yul\":538:545   */\n  dup5\n    /* \"#utility.yul\":529:535   */\n  dup3\n    /* \"#utility.yul\":518:527   */\n  dup6\n    /* \"#utility.yul\":514:536   */\n  add\n    /* \"#utility.yul\":468:546   */\n  tag_16\n  jump\t// in\ntag_24:\n    /* \"#utility.yul\":458:546   */\n  swap2\n  pop\n    /* \"#utility.yul\":414:556   */\n  pop\n    /* \"#utility.yul\":184:563   */\n  swap3\n  swap2\n  pop\n  pop\n  jump\t// out\n    /* \"#utility.yul\":650:746   */\ntag_27:\n    /* \"#utility.yul\":687:694   */\n  0x00\n    /* \"#utility.yul\":716:740   */\n  tag_29\n    /* \"#utility.yul\":734:739   */\n  dup3\n    /* \"#utility.yul\":716:740   */\n  tag_30\n  jump\t// in\ntag_29:\n    /* \"#utility.yul\":705:740   */\n  swap1\n  pop\n    /* \"#utility.yul\":650:746   */\n  swap2\n  swap1\n  pop\n  jump\t// out\n    /* \"#utility.yul\":752:862   */\ntag_31:\n    /* \"#utility.yul\":803:810   */\n  0x00\n    /* \"#utility.yul\":832:856   */\n  tag_33\n    /* \"#utility.yul\":850:855   */\n  dup3\n    /* \"#utility.yul\":832:856   */\n  tag_27\n  jump\t// in\ntag_33:\n    /* \"#utility.yul\":821:856   */\n  swap1\n  pop\n    /* \"#utility.yul\":752:862   */\n  swap2\n  swap1\n  pop\n  jump\t// out\n    /* \"#utility.yul\":868:994   */\ntag_30:\n    /* \"#utility.yul\":905:912   */\n  0x00\n    /* \"#utility.yul\":945:987   */\n  0xffffffffffffffffffffffffffffffffffffffff\n    /* \"#utility.yul\":938:943   */\n  dup3\n    /* \"#utility.yul\":934:988   */\n  and\n    /* \"#utility.yul\":923:988   */\n  swap1\n  pop\n    /* \"#utility.yul\":868:994   */\n  swap2\n  swap1\n  pop\n  jump\t// out\n    /* \"#utility.yul\":1123:1240   */\ntag_23:\n    /* \"#utility.yul\":1232:1233   */\n  0x00\n    /* \"#utility.yul\":1229:1230   */\n  dup1\n    /* \"#utility.yul\":1222:1234   */\n  revert\n    /* \"#utility.yul\":1246:1396   */\ntag_19:\n    /* \"#utility.yul\":1333:1371   */\n  tag_39\n    /* \"#utility.yul\":1365:1370   */\n  dup2\n    /* \"#utility.yul\":1333:1371   */\n  tag_31\n  jump\t// in\ntag_39:\n    /* \"#utility.yul\":1326:1331   */\n  dup2\n    /* \"#utility.yul\":1323:1372   */\n  eq\n    /* \"#utility.yul\":1313:1390   */\n  tag_40\n  jumpi\n    /* \"#utility.yul\":1386:1387   */\n  0x00\n    /* \"#utility.yul\":1383:1384   */\n  dup1\n    /* \"#utility.yul\":1376:1388   */\n  revert\n    /* \"#utility.yul\":1313:1390   */\ntag_40:\n    /* \"#utility.yul\":1246:1396   */\n  pop\n  jump\t// out\n    /* \"contracts/Utils.sol\":17198:20908  contract Utils is Ownable{\r... */\ntag_12:\n  dataSize(sub_0)\n  dup1\n  dataOffset(sub_0)\n  0x00\n  codecopy\n  0x00\n  return\nstop\n\nsub_0: assembly {\n        /* \"contracts/Utils.sol\":17198:20908  contract Utils is Ownable{\r... */\n      mstore(0x40, 0x80)\n      callvalue\n      dup1\n      iszero\n      tag_1\n      jumpi\n      0x00\n      dup1\n      revert\n    tag_1:\n      pop\n      jumpi(tag_2, lt(calldatasize, 0x04))\n      shr(0xe0, calldataload(0x00))\n      dup1\n      0x8da5cb5b\n      gt\n      tag_17\n      jumpi\n      dup1\n      0xd979fb5f\n      gt\n      tag_18\n      jumpi\n      dup1\n      0xd979fb5f\n      eq\n      tag_13\n      jumpi\n      dup1\n      0xdba88007\n      eq\n      tag_14\n      jumpi\n      dup1\n      0xdbb79348\n      eq\n      tag_15\n      jumpi\n      dup1\n      0xf2fde38b\n      eq\n      tag_16\n      jumpi\n      jump(tag_2)\n    tag_18:\n      dup1\n      0x8da5cb5b\n      eq\n      tag_10\n      jumpi\n      dup1\n      0x8dd95002\n      eq\n      tag_11\n      jumpi\n      dup1\n      0xc0d78655\n      eq\n      tag_12\n      jumpi\n      jump(tag_2)\n    tag_17:\n      dup1\n      0x3b979d45\n      gt\n      tag_19\n      jumpi\n      dup1\n      0x3b979d45\n      eq\n      tag_6\n      jumpi\n      dup1\n      0x484f4ea9\n      eq\n      tag_7\n      jumpi\n      dup1\n      0x4abddbe3\n      eq\n      tag_8\n      jumpi\n      dup1\n      0x715018a6\n      eq\n      tag_9\n      jumpi\n      jump(tag_2)\n    tag_19:\n      dup1\n      0x19047f8a\n      eq\n      tag_3\n      jumpi\n      dup1\n      0x215cc989\n      eq\n      tag_4\n      jumpi\n      dup1\n      0x3268cc56\n      eq\n      tag_5\n      jumpi\n    tag_2:\n      0x00\n      dup1\n      revert\n        /* \"contracts/Utils.sol\":17753:18012  function Tokenprice(address token) public view returns(uint256){\r... */\n    tag_3:\n      tag_20\n      0x04\n      dup1\n      calldatasize\n      sub\n      dup2\n      add\n      swap1\n      tag_21\n      swap2\n      swap1\n      tag_22\n      jump\t// in\n    tag_21:\n      tag_23\n      jump\t// in\n    tag_20:\n      mload(0x40)\n      tag_24\n      swap2\n      swap1\n      tag_25\n      jump\t// in\n    tag_24:\n      mload(0x40)\n      dup1\n      swap2\n      sub\n      swap1\n      return\n        /* \"contracts/Utils.sol\":18295:19143  function CalcLpPrice(LP lpAddress) public view returns(uint256){\r... */\n    tag_4:\n      tag_26\n      0x04\n      dup1\n      calldatasize\n      sub\n      dup2\n      add\n      swap1\n      tag_27\n      swap2\n      swap1\n      tag_28\n      jump\t// in\n    tag_27:\n      tag_29\n      jump\t// in\n    tag_26:\n      mload(0x40)\n      tag_30\n      swap2\n      swap1\n      tag_25\n      jump\t// in\n    tag_30:\n      mload(0x40)\n      dup1\n      swap2\n      sub\n      swap1\n      return\n        /* \"contracts/Utils.sol\":17448:17475  Router public routerAddress */\n    tag_5:\n      tag_31\n      tag_32\n      jump\t// in\n    tag_31:\n      mload(0x40)\n      tag_33\n      swap2\n      swap1\n      tag_34\n      jump\t// in\n    tag_33:\n      mload(0x40)\n      dup1\n      swap2\n      sub\n      swap1\n      return\n        /* \"contracts/Utils.sol\":18037:18270  function WBNBPrice(address token) public view returns(uint256){\r... */\n    tag_6:\n      tag_35\n      0x04\n      dup1\n      calldatasize\n      sub\n      dup2\n      add\n      swap1\n      tag_36\n      swap2\n      swap1\n      tag_22\n      jump\t// in\n    tag_36:\n      tag_37\n      jump\t// in\n    tag_35:\n      mload(0x40)\n      tag_38\n      swap2\n      swap1\n      tag_25\n      jump\t// in\n    tag_38:\n      mload(0x40)\n      dup1\n      swap2\n      sub\n      swap1\n      return\n        /* \"contracts/Utils.sol\":17334:17398  address public BUSD = 0x78867BbEeF44f2326bF8DDd1941a4439382EF2A7 */\n    tag_7:\n      tag_39\n      tag_40\n      jump\t// in\n    tag_39:\n      mload(0x40)\n      tag_41\n      swap2\n      swap1\n      tag_42\n      jump\t// in\n    tag_41:\n      mload(0x40)\n      dup1\n      swap2\n      sub\n      swap1\n      return\n        /* \"contracts/Utils.sol\":19745:20029  function getPoolWeight(uint256 pid, MetaMasterChef MasterChef) external view returns(uint256){\r... */\n    tag_8:\n      tag_43\n      0x04\n      dup1\n      calldatasize\n      sub\n      dup2\n      add\n      swap1\n      tag_44\n      swap2\n      swap1\n      tag_45\n      jump\t// in\n    tag_44:\n      tag_46\n      jump\t// in\n    tag_43:\n      mload(0x40)\n      tag_47\n      swap2\n      swap1\n      tag_25\n      jump\t// in\n    tag_47:\n      mload(0x40)\n      dup1\n      swap2\n      sub\n      swap1\n      return\n        /* \"contracts/Utils.sol\":14500:14603  function renounceOwnership() public virtual onlyOwner {\r... */\n    tag_9:\n      tag_48\n      tag_49\n      jump\t// in\n    tag_48:\n      stop\n        /* \"contracts/Utils.sol\":13849:13936  function owner() public view virtual returns (address) {\r... */\n    tag_10:\n      tag_50\n      tag_51\n      jump\t// in\n    tag_50:\n      mload(0x40)\n      tag_52\n      swap2\n      swap1\n      tag_42\n      jump\t// in\n    tag_52:\n      mload(0x40)\n      dup1\n      swap2\n      sub\n      swap1\n      return\n        /* \"contracts/Utils.sol\":17263:17327  address public WBNB = 0xae13d989daC2f0dEbFf460aC112a837C89BAa7cd */\n    tag_11:\n      tag_53\n      tag_54\n      jump\t// in\n    tag_53:\n      mload(0x40)\n      tag_55\n      swap2\n      swap1\n      tag_42\n      jump\t// in\n    tag_55:\n      mload(0x40)\n      dup1\n      swap2\n      sub\n      swap1\n      return\n        /* \"contracts/Utils.sol\":17621:17728  function setRouter(Router _routerAddress) public onlyOwner{\r... */\n    tag_12:\n      tag_56\n      0x04\n      dup1\n      calldatasize\n      sub\n      dup2\n      add\n      swap1\n      tag_57\n      swap2\n      swap1\n      tag_58\n      jump\t// in\n    tag_57:\n      tag_59\n      jump\t// in\n    tag_56:\n      stop\n        /* \"contracts/Utils.sol\":19166:19737  function calcPoolTVLInUSD(uint256 pid, LP lpAddress, uint256 isLp, MetaMasterChef MasterChef) public view returns(uint256){\r... */\n    tag_13:\n      tag_60\n      0x04\n      dup1\n      calldatasize\n      sub\n      dup2\n      add\n      swap1\n      tag_61\n      swap2\n      swap1\n      tag_62\n      jump\t// in\n    tag_61:\n      tag_63\n      jump\t// in\n    tag_60:\n      mload(0x40)\n      tag_64\n      swap2\n      swap1\n      tag_25\n      jump\t// in\n    tag_64:\n      mload(0x40)\n      dup1\n      swap2\n      sub\n      swap1\n      return\n        /* \"contracts/Utils.sol\":20037:20197  function getRewardTokenPrice(MetaMasterChef MasterChef) external view returns(uint256){\r... */\n    tag_14:\n      tag_65\n      0x04\n      dup1\n      calldatasize\n      sub\n      dup2\n      add\n      swap1\n      tag_66\n      swap2\n      swap1\n      tag_67\n      jump\t// in\n    tag_66:\n      tag_68\n      jump\t// in\n    tag_65:\n      mload(0x40)\n      tag_69\n      swap2\n      swap1\n      tag_25\n      jump\t// in\n    tag_69:\n      mload(0x40)\n      dup1\n      swap2\n      sub\n      swap1\n      return\n        /* \"contracts/Utils.sol\":20205:20905  function CalcApy(uint256 pid, LP lpAddress,uint256 isLp, MetaMasterChef MasterChef) external view returns(uint256){\r... */\n    tag_15:\n      tag_70\n      0x04\n      dup1\n      calldatasize\n      sub\n      dup2\n      add\n      swap1\n      tag_71\n      swap2\n      swap1\n      tag_62\n      jump\t// in\n    tag_71:\n      tag_72\n      jump\t// in\n    tag_70:\n      mload(0x40)\n      tag_73\n      swap2\n      swap1\n      tag_25\n      jump\t// in\n    tag_73:\n      mload(0x40)\n      dup1\n      swap2\n      sub\n      swap1\n      return\n        /* \"contracts/Utils.sol\":14758:14959  function transferOwnership(address newOwner) public virtual onlyOwner {\r... */\n    tag_16:\n      tag_74\n      0x04\n      dup1\n      calldatasize\n      sub\n      dup2\n      add\n      swap1\n      tag_75\n      swap2\n      swap1\n      tag_22\n      jump\t// in\n    tag_75:\n      tag_76\n      jump\t// in\n    tag_74:\n      stop\n        /* \"contracts/Utils.sol\":17753:18012  function Tokenprice(address token) public view returns(uint256){\r... */\n    tag_23:\n        /* \"contracts/Utils.sol\":17808:17815  uint256 */\n      0x00\n        /* \"contracts/Utils.sol\":17827:17848  address[] memory path */\n      dup1\n        /* \"contracts/Utils.sol\":17865:17866  3 */\n      0x03\n        /* \"contracts/Utils.sol\":17851:17867  new address[](3) */\n      0xffffffffffffffff\n      dup2\n      gt\n      iszero\n      tag_78\n      jumpi\n      tag_79\n      tag_80\n      jump\t// in\n    tag_79:\n    tag_78:\n      mload(0x40)\n      swap1\n      dup1\n      dup3\n      mstore\n      dup1\n      0x20\n      mul\n      0x20\n      add\n      dup3\n      add\n      0x40\n      mstore\n      dup1\n      iszero\n      tag_81\n      jumpi\n      dup2\n      0x20\n      add\n      0x20\n      dup3\n      mul\n      dup1\n      calldatasize\n      dup4\n      calldatacopy\n      dup1\n      dup3\n      add\n      swap2\n      pop\n      pop\n      swap1\n      pop\n    tag_81:\n      pop\n        /* \"contracts/Utils.sol\":17827:17867  address[] memory path = new address[](3) */\n      swap1\n      pop\n        /* \"contracts/Utils.sol\":17888:17893  token */\n      dup3\n        /* \"contracts/Utils.sol\":17878:17882  path */\n      dup2\n        /* \"contracts/Utils.sol\":17883:17884  0 */\n      0x00\n        /* \"contracts/Utils.sol\":17878:17885  path[0] */\n      dup2\n      mload\n      dup2\n      lt\n      tag_82\n      jumpi\n      tag_83\n      tag_84\n      jump\t// in\n    tag_83:\n    tag_82:\n      0x20\n      mul\n      0x20\n      add\n      add\n        /* \"contracts/Utils.sol\":17878:17893  path[0] = token */\n      swap1\n      0xffffffffffffffffffffffffffffffffffffffff\n      and\n      swap1\n      dup2\n      0xffffffffffffffffffffffffffffffffffffffff\n      and\n      dup2\n      mstore\n      pop\n      pop\n        /* \"contracts/Utils.sol\":17914:17918  WBNB */\n      0x01\n      0x00\n      swap1\n      sload\n      swap1\n      0x0100\n      exp\n      swap1\n      div\n      0xffffffffffffffffffffffffffffffffffffffff\n      and\n        /* \"contracts/Utils.sol\":17904:17908  path */\n      dup2\n        /* \"contracts/Utils.sol\":17909:17910  1 */\n      0x01\n        /* \"contracts/Utils.sol\":17904:17911  path[1] */\n      dup2\n      mload\n      dup2\n      lt\n      tag_85\n      jumpi\n      tag_86\n      tag_84\n      jump\t// in\n    tag_86:\n    tag_85:\n      0x20\n      mul\n      0x20\n      add\n      add\n        /* \"contracts/Utils.sol\":17904:17918  path[1] = WBNB */\n      swap1\n      0xffffffffffffffffffffffffffffffffffffffff\n      and\n      swap1\n      dup2\n      0xffffffffffffffffffffffffffffffffffffffff\n      and\n      dup2\n      mstore\n      pop\n      pop\n        /* \"contracts/Utils.sol\":17939:17943  BUSD */\n      0x02\n      0x00\n      swap1\n      sload\n      swap1\n      0x0100\n      exp\n      swap1\n      div\n      0xffffffffffffffffffffffffffffffffffffffff\n      and\n        /* \"contracts/Utils.sol\":17929:17933  path */\n      dup2\n        /* \"contracts/Utils.sol\":17934:17935  2 */\n      0x02\n        /* \"contracts/Utils.sol\":17929:17936  path[2] */\n      dup2\n      mload\n      dup2\n      lt\n      tag_87\n      jumpi\n      tag_88\n      tag_84\n      jump\t// in\n    tag_88:\n    tag_87:\n      0x20\n      mul\n      0x20\n      add\n      add\n        /* \"contracts/Utils.sol\":17929:17943  path[2] = BUSD */\n      swap1\n      0xffffffffffffffffffffffffffffffffffffffff\n      and\n      swap1\n      dup2\n      0xffffffffffffffffffffffffffffffffffffffff\n      and\n      dup2\n      mstore\n      pop\n      pop\n        /* \"contracts/Utils.sol\":17961:17974  routerAddress */\n      0x04\n      0x00\n      swap1\n      sload\n      swap1\n      0x0100\n      exp\n      swap1\n      div\n      0xffffffffffffffffffffffffffffffffffffffff\n      and\n        /* \"contracts/Utils.sol\":17961:17988  routerAddress.getAmountsOut */\n      0xffffffffffffffffffffffffffffffffffffffff\n      and\n      0xd06ca61f\n        /* \"contracts/Utils.sol\":17989:17995  amount */\n      sload(0x03)\n        /* \"contracts/Utils.sol\":17996:18000  path */\n      dup4\n        /* \"contracts/Utils.sol\":17961:18001  routerAddress.getAmountsOut(amount,path) */\n      mload(0x40)\n      dup4\n      0xffffffff\n      and\n      0xe0\n      shl\n      dup2\n      mstore\n      0x04\n      add\n      tag_89\n      swap3\n      swap2\n      swap1\n      tag_90\n      jump\t// in\n    tag_89:\n      0x00\n      mload(0x40)\n      dup1\n      dup4\n      sub\n      dup2\n      dup7\n      dup1\n      extcodesize\n      iszero\n      dup1\n      iszero\n      tag_91\n      jumpi\n      0x00\n      dup1\n      revert\n    tag_91:\n      pop\n      gas\n      staticcall\n      iszero\n      dup1\n      iszero\n      tag_93\n      jumpi\n      returndatasize\n      0x00\n      dup1\n      returndatacopy\n      revert(0x00, returndatasize)\n    tag_93:\n      pop\n      pop\n      pop\n      pop\n      mload(0x40)\n      returndatasize\n      0x00\n      dup3\n      returndatacopy\n      returndatasize\n      not(0x1f)\n      0x1f\n      dup3\n      add\n      and\n      dup3\n      add\n      dup1\n      0x40\n      mstore\n      pop\n      dup2\n      add\n      swap1\n      tag_94\n      swap2\n      swap1\n      tag_95\n      jump\t// in\n    tag_94:\n        /* \"contracts/Utils.sol\":18002:18003  2 */\n      0x02\n        /* \"contracts/Utils.sol\":17961:18004  routerAddress.getAmountsOut(amount,path)[2] */\n      dup2\n      mload\n      dup2\n      lt\n      tag_96\n      jumpi\n      tag_97\n      tag_84\n      jump\t// in\n    tag_97:\n    tag_96:\n      0x20\n      mul\n      0x20\n      add\n      add\n      mload\n        /* \"contracts/Utils.sol\":17954:18004  return routerAddress.getAmountsOut(amount,path)[2] */\n      swap2\n      pop\n      pop\n        /* \"contracts/Utils.sol\":17753:18012  function Tokenprice(address token) public view returns(uint256){\r... */\n      swap2\n      swap1\n      pop\n      jump\t// out\n        /* \"contracts/Utils.sol\":18295:19143  function CalcLpPrice(LP lpAddress) public view returns(uint256){\r... */\n    tag_29:\n        /* \"contracts/Utils.sol\":18350:18357  uint256 */\n      0x00\n        /* \"contracts/Utils.sol\":18369:18383  uint256 phase1 */\n      dup1\n        /* \"contracts/Utils.sol\":18394:18408  uint256 phase2 */\n      0x00\n        /* \"contracts/Utils.sol\":18447:18456  lpAddress */\n      dup4\n        /* \"contracts/Utils.sol\":18447:18463  lpAddress.token0 */\n      0xffffffffffffffffffffffffffffffffffffffff\n      and\n      0x0dfe1681\n        /* \"contracts/Utils.sol\":18447:18465  lpAddress.token0() */\n      mload(0x40)\n      dup2\n      0xffffffff\n      and\n      0xe0\n      shl\n      dup2\n      mstore\n      0x04\n      add\n      0x20\n      mload(0x40)\n      dup1\n      dup4\n      sub\n      dup2\n      dup7\n      dup1\n      extcodesize\n      iszero\n      dup1\n      iszero\n      tag_99\n      jumpi\n      0x00\n      dup1\n      revert\n    tag_99:\n      pop\n      gas\n      staticcall\n      iszero\n      dup1\n      iszero\n      tag_101\n      jumpi\n      returndatasize\n      0x00\n      dup1\n      returndatacopy\n      revert(0x00, returndatasize)\n    tag_101:\n      pop\n      pop\n      pop\n      pop\n      mload(0x40)\n      returndatasize\n      not(0x1f)\n      0x1f\n      dup3\n      add\n      and\n      dup3\n      add\n      dup1\n      0x40\n      mstore\n      pop\n      dup2\n      add\n      swap1\n      tag_102\n      swap2\n      swap1\n      tag_103\n      jump\t// in\n    tag_102:\n        /* \"contracts/Utils.sol\":18422:18466  address(WBNB) == address(lpAddress.token0()) */\n      0xffffffffffffffffffffffffffffffffffffffff\n      and\n        /* \"contracts/Utils.sol\":18430:18434  WBNB */\n      0x01\n      0x00\n      swap1\n      sload\n      swap1\n      0x0100\n      exp\n      swap1\n      div\n      0xffffffffffffffffffffffffffffffffffffffff\n      and\n        /* \"contracts/Utils.sol\":18422:18466  address(WBNB) == address(lpAddress.token0()) */\n      0xffffffffffffffffffffffffffffffffffffffff\n      and\n      eq\n        /* \"contracts/Utils.sol\":18419:18732  if(address(WBNB) == address(lpAddress.token0())){\r... */\n      iszero\n      tag_104\n      jumpi\n        /* \"contracts/Utils.sol\":18492:18584  lpAddress.token0().balanceOf(address(lpAddress)).mul(WBNBPrice(address(lpAddress.token0()))) */\n      tag_105\n        /* \"contracts/Utils.sol\":18545:18583  WBNBPrice(address(lpAddress.token0())) */\n      tag_106\n        /* \"contracts/Utils.sol\":18563:18572  lpAddress */\n      dup6\n        /* \"contracts/Utils.sol\":18563:18579  lpAddress.token0 */\n      0xffffffffffffffffffffffffffffffffffffffff\n      and\n      0x0dfe1681\n        /* \"contracts/Utils.sol\":18563:18581  lpAddress.token0() */\n      mload(0x40)\n      dup2\n      0xffffffff\n      and\n      0xe0\n      shl\n      dup2\n      mstore\n      0x04\n      add\n      0x20\n      mload(0x40)\n      dup1\n      dup4\n      sub\n      dup2\n      dup7\n      dup1\n      extcodesize\n      iszero\n      dup1\n      iszero\n      tag_107\n      jumpi\n      0x00\n      dup1\n      revert\n    tag_107:\n      pop\n      gas\n      staticcall\n      iszero\n      dup1\n      iszero\n      tag_109\n      jumpi\n      returndatasize\n      0x00\n      dup1\n      returndatacopy\n      revert(0x00, returndatasize)\n    tag_109:\n      pop\n      pop\n      pop\n      pop\n      mload(0x40)\n      returndatasize\n      not(0x1f)\n      0x1f\n      dup3\n      add\n      and\n      dup3\n      add\n      dup1\n      0x40\n      mstore\n      pop\n      dup2\n      add\n      swap1\n      tag_110\n      swap2\n      swap1\n      tag_103\n      jump\t// in\n    tag_110:\n        /* \"contracts/Utils.sol\":18545:18554  WBNBPrice */\n      tag_37\n        /* \"contracts/Utils.sol\":18545:18583  WBNBPrice(address(lpAddress.token0())) */\n      jump\t// in\n    tag_106:\n        /* \"contracts/Utils.sol\":18492:18501  lpAddress */\n      dup6\n        /* \"contracts/Utils.sol\":18492:18508  lpAddress.token0 */\n      0xffffffffffffffffffffffffffffffffffffffff\n      and\n      0x0dfe1681\n        /* \"contracts/Utils.sol\":18492:18510  lpAddress.token0() */\n      mload(0x40)\n      dup2\n      0xffffffff\n      and\n      0xe0\n      shl\n      dup2\n      mstore\n      0x04\n      add\n      0x20\n      mload(0x40)\n      dup1\n      dup4\n      sub\n      dup2\n      dup7\n      dup1\n      extcodesize\n      iszero\n      dup1\n      iszero\n      tag_111\n      jumpi\n      0x00\n      dup1\n      revert\n    tag_111:\n      pop\n      gas\n      staticcall\n      iszero\n      dup1\n      iszero\n      tag_113\n      jumpi\n      returndatasize\n      0x00\n      dup1\n      returndatacopy\n      revert(0x00, returndatasize)\n    tag_113:\n      pop\n      pop\n      pop\n      pop\n      mload(0x40)\n      returndatasize\n      not(0x1f)\n      0x1f\n      dup3\n      add\n      and\n      dup3\n      add\n      dup1\n      0x40\n      mstore\n      pop\n      dup2\n      add\n      swap1\n      tag_114\n      swap2\n      swap1\n      tag_103\n      jump\t// in\n    tag_114:\n        /* \"contracts/Utils.sol\":18492:18520  lpAddress.token0().balanceOf */\n      0xffffffffffffffffffffffffffffffffffffffff\n      and\n      0x70a08231\n        /* \"contracts/Utils.sol\":18529:18538  lpAddress */\n      dup8\n        /* \"contracts/Utils.sol\":18492:18540  lpAddress.token0().balanceOf(address(lpAddress)) */\n      mload(0x40)\n      dup3\n      0xffffffff\n      and\n      0xe0\n      shl\n      dup2\n      mstore\n      0x04\n      add\n      tag_115\n      swap2\n      swap1\n      tag_42\n      jump\t// in\n    tag_115:\n      0x20\n      mload(0x40)\n      dup1\n      dup4\n      sub\n      dup2\n      dup7\n      dup1\n      extcodesize\n      iszero\n      dup1\n      iszero\n      tag_116\n      jumpi\n      0x00\n      dup1\n      revert\n    tag_116:\n      pop\n      gas\n      staticcall\n      iszero\n      dup1\n      iszero\n      tag_118\n      jumpi\n      returndatasize\n      0x00\n      dup1\n      returndatacopy\n      revert(0x00, returndatasize)\n    tag_118:\n      pop\n      pop\n      pop\n      pop\n      mload(0x40)\n      returndatasize\n      not(0x1f)\n      0x1f\n      dup3\n      add\n      and\n      dup3\n      add\n      dup1\n      0x40\n      mstore\n      pop\n      dup2\n      add\n      swap1\n      tag_119\n      swap2\n      swap1\n      tag_120\n      jump\t// in\n    tag_119:\n        /* \"contracts/Utils.sol\":18492:18544  lpAddress.token0().balanceOf(address(lpAddress)).mul */\n      tag_121\n      swap1\n        /* \"contracts/Utils.sol\":18492:18584  lpAddress.token0().balanceOf(address(lpAddress)).mul(WBNBPrice(address(lpAddress.token0()))) */\n      swap2\n      swap1\n      0xffffffff\n      and\n      jump\t// in\n    tag_105:\n        /* \"contracts/Utils.sol\":18482:18585  phase1 = (lpAddress.token0().balanceOf(address(lpAddress)).mul(WBNBPrice(address(lpAddress.token0())))) */\n      swap2\n      pop\n        /* \"contracts/Utils.sol\":18419:18732  if(address(WBNB) == address(lpAddress.token0())){\r... */\n      jump(tag_122)\n    tag_104:\n        /* \"contracts/Utils.sol\":18626:18719  lpAddress.token0().balanceOf(address(lpAddress)).mul(Tokenprice(address(lpAddress.token0()))) */\n      tag_123\n        /* \"contracts/Utils.sol\":18679:18718  Tokenprice(address(lpAddress.token0())) */\n      tag_124\n        /* \"contracts/Utils.sol\":18698:18707  lpAddress */\n      dup6\n        /* \"contracts/Utils.sol\":18698:18714  lpAddress.token0 */\n      0xffffffffffffffffffffffffffffffffffffffff\n      and\n      0x0dfe1681\n        /* \"contracts/Utils.sol\":18698:18716  lpAddress.token0() */\n      mload(0x40)\n      dup2\n      0xffffffff\n      and\n      0xe0\n      shl\n      dup2\n      mstore\n      0x04\n      add\n      0x20\n      mload(0x40)\n      dup1\n      dup4\n      sub\n      dup2\n      dup7\n      dup1\n      extcodesize\n      iszero\n      dup1\n      iszero\n      tag_125\n      jumpi\n      0x00\n      dup1\n      revert\n    tag_125:\n      pop\n      gas\n      staticcall\n      iszero\n      dup1\n      iszero\n      tag_127\n      jumpi\n      returndatasize\n      0x00\n      dup1\n      returndatacopy\n      revert(0x00, returndatasize)\n    tag_127:\n      pop\n      pop\n      pop\n      pop\n      mload(0x40)\n      returndatasize\n      not(0x1f)\n      0x1f\n      dup3\n      add\n      and\n      dup3\n      add\n      dup1\n      0x40\n      mstore\n      pop\n      dup2\n      add\n      swap1\n      tag_128\n      swap2\n      swap1\n      tag_103\n      jump\t// in\n    tag_128:\n        /* \"contracts/Utils.sol\":18679:18689  Tokenprice */\n      tag_23\n        /* \"contracts/Utils.sol\":18679:18718  Tokenprice(address(lpAddress.token0())) */\n      jump\t// in\n    tag_124:\n        /* \"contracts/Utils.sol\":18626:18635  lpAddress */\n      dup6\n        /* \"contracts/Utils.sol\":18626:18642  lpAddress.token0 */\n      0xffffffffffffffffffffffffffffffffffffffff\n      and\n      0x0dfe1681\n        /* \"contracts/Utils.sol\":18626:18644  lpAddress.token0() */\n      mload(0x40)\n      dup2\n      0xffffffff\n      and\n      0xe0\n      shl\n      dup2\n      mstore\n      0x04\n      add\n      0x20\n      mload(0x40)\n      dup1\n      dup4\n      sub\n      dup2\n      dup7\n      dup1\n      extcodesize\n      iszero\n      dup1\n      iszero\n      tag_129\n      jumpi\n      0x00\n      dup1\n      revert\n    tag_129:\n      pop\n      gas\n      staticcall\n      iszero\n      dup1\n      iszero\n      tag_131\n      jumpi\n      returndatasize\n      0x00\n      dup1\n      returndatacopy\n      revert(0x00, returndatasize)\n    tag_131:\n      pop\n      pop\n      pop\n      pop\n      mload(0x40)\n      returndatasize\n      not(0x1f)\n      0x1f\n      dup3\n      add\n      and\n      dup3\n      add\n      dup1\n      0x40\n      mstore\n      pop\n      dup2\n      add\n      swap1\n      tag_132\n      swap2\n      swap1\n      tag_103\n      jump\t// in\n    tag_132:\n        /* \"contracts/Utils.sol\":18626:18654  lpAddress.token0().balanceOf */\n      0xffffffffffffffffffffffffffffffffffffffff\n      and\n      0x70a08231\n        /* \"contracts/Utils.sol\":18663:18672  lpAddress */\n      dup8\n        /* \"contracts/Utils.sol\":18626:18674  lpAddress.token0().balanceOf(address(lpAddress)) */\n      mload(0x40)\n      dup3\n      0xffffffff\n      and\n      0xe0\n      shl\n      dup2\n      mstore\n      0x04\n      add\n      tag_133\n      swap2\n      swap1\n      tag_42\n      jump\t// in\n    tag_133:\n      0x20\n      mload(0x40)\n      dup1\n      dup4\n      sub\n      dup2\n      dup7\n      dup1\n      extcodesize\n      iszero\n      dup1\n      iszero\n      tag_134\n      jumpi\n      0x00\n      dup1\n      revert\n    tag_134:\n      pop\n      gas\n      staticcall\n      iszero\n      dup1\n      iszero\n      tag_136\n      jumpi\n      returndatasize\n      0x00\n      dup1\n      returndatacopy\n      revert(0x00, returndatasize)\n    tag_136:\n      pop\n      pop\n      pop\n      pop\n      mload(0x40)\n      returndatasize\n      not(0x1f)\n      0x1f\n      dup3\n      add\n      and\n      dup3\n      add\n      dup1\n      0x40\n      mstore\n      pop\n      dup2\n      add\n      swap1\n      tag_137\n      swap2\n      swap1\n      tag_120\n      jump\t// in\n    tag_137:\n        /* \"contracts/Utils.sol\":18626:18678  lpAddress.token0().balanceOf(address(lpAddress)).mul */\n      tag_121\n      swap1\n        /* \"contracts/Utils.sol\":18626:18719  lpAddress.token0().balanceOf(address(lpAddress)).mul(Tokenprice(address(lpAddress.token0()))) */\n      swap2\n      swap1\n      0xffffffff\n      and\n      jump\t// in\n    tag_123:\n        /* \"contracts/Utils.sol\":18616:18720  phase1 = (lpAddress.token0().balanceOf(address(lpAddress)).mul(Tokenprice(address(lpAddress.token0())))) */\n      swap2\n      pop\n        /* \"contracts/Utils.sol\":18419:18732  if(address(WBNB) == address(lpAddress.token0())){\r... */\n    tag_122:\n        /* \"contracts/Utils.sol\":18772:18781  lpAddress */\n      dup4\n        /* \"contracts/Utils.sol\":18772:18788  lpAddress.token1 */\n      0xffffffffffffffffffffffffffffffffffffffff\n      and\n      0xd21220a7\n        /* \"contracts/Utils.sol\":18772:18790  lpAddress.token1() */\n      mload(0x40)\n      dup2\n      0xffffffff\n      and\n      0xe0\n      shl\n      dup2\n      mstore\n      0x04\n      add\n      0x20\n      mload(0x40)\n      dup1\n      dup4\n      sub\n      dup2\n      dup7\n      dup1\n      extcodesize\n      iszero\n      dup1\n      iszero\n      tag_138\n      jumpi\n      0x00\n      dup1\n      revert\n    tag_138:\n      pop\n      gas\n      staticcall\n      iszero\n      dup1\n      iszero\n      tag_140\n      jumpi\n      returndatasize\n      0x00\n      dup1\n      returndatacopy\n      revert(0x00, returndatasize)\n    tag_140:\n      pop\n      pop\n      pop\n      pop\n      mload(0x40)\n      returndatasize\n      not(0x1f)\n      0x1f\n      dup3\n      add\n      and\n      dup3\n      add\n      dup1\n      0x40\n      mstore\n      pop\n      dup2\n      add\n      swap1\n      tag_141\n      swap2\n      swap1\n      tag_103\n      jump\t// in\n    tag_141:\n        /* \"contracts/Utils.sol\":18747:18791  address(WBNB) == address(lpAddress.token1()) */\n      0xffffffffffffffffffffffffffffffffffffffff\n      and\n        /* \"contracts/Utils.sol\":18755:18759  WBNB */\n      0x01\n      0x00\n      swap1\n      sload\n      swap1\n      0x0100\n      exp\n      swap1\n      div\n      0xffffffffffffffffffffffffffffffffffffffff\n      and\n        /* \"contracts/Utils.sol\":18747:18791  address(WBNB) == address(lpAddress.token1()) */\n      0xffffffffffffffffffffffffffffffffffffffff\n      and\n      eq\n        /* \"contracts/Utils.sol\":18744:19057  if(address(WBNB) == address(lpAddress.token1())){\r... */\n      iszero\n      tag_142\n      jumpi\n        /* \"contracts/Utils.sol\":18817:18909  lpAddress.token1().balanceOf(address(lpAddress)).mul(WBNBPrice(address(lpAddress.token1()))) */\n      tag_143\n        /* \"contracts/Utils.sol\":18870:18908  WBNBPrice(address(lpAddress.token1())) */\n      tag_144\n        /* \"contracts/Utils.sol\":18888:18897  lpAddress */\n      dup6\n        /* \"contracts/Utils.sol\":18888:18904  lpAddress.token1 */\n      0xffffffffffffffffffffffffffffffffffffffff\n      and\n      0xd21220a7\n        /* \"contracts/Utils.sol\":18888:18906  lpAddress.token1() */\n      mload(0x40)\n      dup2\n      0xffffffff\n      and\n      0xe0\n      shl\n      dup2\n      mstore\n      0x04\n      add\n      0x20\n      mload(0x40)\n      dup1\n      dup4\n      sub\n      dup2\n      dup7\n      dup1\n      extcodesize\n      iszero\n      dup1\n      iszero\n      tag_145\n      jumpi\n      0x00\n      dup1\n      revert\n    tag_145:\n      pop\n      gas\n      staticcall\n      iszero\n      dup1\n      iszero\n      tag_147\n      jumpi\n      returndatasize\n      0x00\n      dup1\n      returndatacopy\n      revert(0x00, returndatasize)\n    tag_147:\n      pop\n      pop\n      pop\n      pop\n      mload(0x40)\n      returndatasize\n      not(0x1f)\n      0x1f\n      dup3\n      add\n      and\n      dup3\n      add\n      dup1\n      0x40\n      mstore\n      pop\n      dup2\n      add\n      swap1\n      tag_148\n      swap2\n      swap1\n      tag_103\n      jump\t// in\n    tag_148:\n        /* \"contracts/Utils.sol\":18870:18879  WBNBPrice */\n      tag_37\n        /* \"contracts/Utils.sol\":18870:18908  WBNBPrice(address(lpAddress.token1())) */\n      jump\t// in\n    tag_144:\n        /* \"contracts/Utils.sol\":18817:18826  lpAddress */\n      dup6\n        /* \"contracts/Utils.sol\":18817:18833  lpAddress.token1 */\n      0xffffffffffffffffffffffffffffffffffffffff\n      and\n      0xd21220a7\n        /* \"contracts/Utils.sol\":18817:18835  lpAddress.token1() */\n      mload(0x40)\n      dup2\n      0xffffffff\n      and\n      0xe0\n      shl\n      dup2\n      mstore\n      0x04\n      add\n      0x20\n      mload(0x40)\n      dup1\n      dup4\n      sub\n      dup2\n      dup7\n      dup1\n      extcodesize\n      iszero\n      dup1\n      iszero\n      tag_149\n      jumpi\n      0x00\n      dup1\n      revert\n    tag_149:\n      pop\n      gas\n      staticcall\n      iszero\n      dup1\n      iszero\n      tag_151\n      jumpi\n      returndatasize\n      0x00\n      dup1\n      returndatacopy\n      revert(0x00, returndatasize)\n    tag_151:\n      pop\n      pop\n      pop\n      pop\n      mload(0x40)\n      returndatasize\n      not(0x1f)\n      0x1f\n      dup3\n      add\n      and\n      dup3\n      add\n      dup1\n      0x40\n      mstore\n      pop\n      dup2\n      add\n      swap1\n      tag_152\n      swap2\n      swap1\n      tag_103\n      jump\t// in\n    tag_152:\n        /* \"contracts/Utils.sol\":18817:18845  lpAddress.token1().balanceOf */\n      0xffffffffffffffffffffffffffffffffffffffff\n      and\n      0x70a08231\n        /* \"contracts/Utils.sol\":18854:18863  lpAddress */\n      dup8\n        /* \"contracts/Utils.sol\":18817:18865  lpAddress.token1().balanceOf(address(lpAddress)) */\n      mload(0x40)\n      dup3\n      0xffffffff\n      and\n      0xe0\n      shl\n      dup2\n      mstore\n      0x04\n      add\n      tag_153\n      swap2\n      swap1\n      tag_42\n      jump\t// in\n    tag_153:\n      0x20\n      mload(0x40)\n      dup1\n      dup4\n      sub\n      dup2\n      dup7\n      dup1\n      extcodesize\n      iszero\n      dup1\n      iszero\n      tag_154\n      jumpi\n      0x00\n      dup1\n      revert\n    tag_154:\n      pop\n      gas\n      staticcall\n      iszero\n      dup1\n      iszero\n      tag_156\n      jumpi\n      returndatasize\n      0x00\n      dup1\n      returndatacopy\n      revert(0x00, returndatasize)\n    tag_156:\n      pop\n      pop\n      pop\n      pop\n      mload(0x40)\n      returndatasize\n      not(0x1f)\n      0x1f\n      dup3\n      add\n      and\n      dup3\n      add\n      dup1\n      0x40\n      mstore\n      pop\n      dup2\n      add\n      swap1\n      tag_157\n      swap2\n      swap1\n      tag_120\n      jump\t// in\n    tag_157:\n        /* \"contracts/Utils.sol\":18817:18869  lpAddress.token1().balanceOf(address(lpAddress)).mul */\n      tag_121\n      swap1\n        /* \"contracts/Utils.sol\":18817:18909  lpAddress.token1().balanceOf(address(lpAddress)).mul(WBNBPrice(address(lpAddress.token1()))) */\n      swap2\n      swap1\n      0xffffffff\n      and\n      jump\t// in\n    tag_143:\n        /* \"contracts/Utils.sol\":18807:18910  phase2 = (lpAddress.token1().balanceOf(address(lpAddress)).mul(WBNBPrice(address(lpAddress.token1())))) */\n      swap1\n      pop\n        /* \"contracts/Utils.sol\":18744:19057  if(address(WBNB) == address(lpAddress.token1())){\r... */\n      jump(tag_158)\n    tag_142:\n        /* \"contracts/Utils.sol\":18951:19044  lpAddress.token1().balanceOf(address(lpAddress)).mul(Tokenprice(address(lpAddress.token1()))) */\n      tag_159\n        /* \"contracts/Utils.sol\":19004:19043  Tokenprice(address(lpAddress.token1())) */\n      tag_160\n        /* \"contracts/Utils.sol\":19023:19032  lpAddress */\n      dup6\n        /* \"contracts/Utils.sol\":19023:19039  lpAddress.token1 */\n      0xffffffffffffffffffffffffffffffffffffffff\n      and\n      0xd21220a7\n        /* \"contracts/Utils.sol\":19023:19041  lpAddress.token1() */\n      mload(0x40)\n      dup2\n      0xffffffff\n      and\n      0xe0\n      shl\n      dup2\n      mstore\n      0x04\n      add\n      0x20\n      mload(0x40)\n      dup1\n      dup4\n      sub\n      dup2\n      dup7\n      dup1\n      extcodesize\n      iszero\n      dup1\n      iszero\n      tag_161\n      jumpi\n      0x00\n      dup1\n      revert\n    tag_161:\n      pop\n      gas\n      staticcall\n      iszero\n      dup1\n      iszero\n      tag_163\n      jumpi\n      returndatasize\n      0x00\n      dup1\n      returndatacopy\n      revert(0x00, returndatasize)\n    tag_163:\n      pop\n      pop\n      pop\n      pop\n      mload(0x40)\n      returndatasize\n      not(0x1f)\n      0x1f\n      dup3\n      add\n      and\n      dup3\n      add\n      dup1\n      0x40\n      mstore\n      pop\n      dup2\n      add\n      swap1\n      tag_164\n      swap2\n      swap1\n      tag_103\n      jump\t// in\n    tag_164:\n        /* \"contracts/Utils.sol\":19004:19014  Tokenprice */\n      tag_23\n        /* \"contracts/Utils.sol\":19004:19043  Tokenprice(address(lpAddress.token1())) */\n      jump\t// in\n    tag_160:\n        /* \"contracts/Utils.sol\":18951:18960  lpAddress */\n      dup6\n        /* \"contracts/Utils.sol\":18951:18967  lpAddress.token1 */\n      0xffffffffffffffffffffffffffffffffffffffff\n      and\n      0xd21220a7\n        /* \"contracts/Utils.sol\":18951:18969  lpAddress.token1() */\n      mload(0x40)\n      dup2\n      0xffffffff\n      and\n      0xe0\n      shl\n      dup2\n      mstore\n      0x04\n      add\n      0x20\n      mload(0x40)\n      dup1\n      dup4\n      sub\n      dup2\n      dup7\n      dup1\n      extcodesize\n      iszero\n      dup1\n      iszero\n      tag_165\n      jumpi\n      0x00\n      dup1\n      revert\n    tag_165:\n      pop\n      gas\n      staticcall\n      iszero\n      dup1\n      iszero\n      tag_167\n      jumpi\n      returndatasize\n      0x00\n      dup1\n      returndatacopy\n      revert(0x00, returndatasize)\n    tag_167:\n      pop\n      pop\n      pop\n      pop\n      mload(0x40)\n      returndatasize\n      not(0x1f)\n      0x1f\n      dup3\n      add\n      and\n      dup3\n      add\n      dup1\n      0x40\n      mstore\n      pop\n      dup2\n      add\n      swap1\n      tag_168\n      swap2\n      swap1\n      tag_103\n      jump\t// in\n    tag_168:\n        /* \"contracts/Utils.sol\":18951:18979  lpAddress.token1().balanceOf */\n      0xffffffffffffffffffffffffffffffffffffffff\n      and\n      0x70a08231\n        /* \"contracts/Utils.sol\":18988:18997  lpAddress */\n      dup8\n        /* \"contracts/Utils.sol\":18951:18999  lpAddress.token1().balanceOf(address(lpAddress)) */\n      mload(0x40)\n      dup3\n      0xffffffff\n      and\n      0xe0\n      shl\n      dup2\n      mstore\n      0x04\n      add\n      tag_169\n      swap2\n      swap1\n      tag_42\n      jump\t// in\n    tag_169:\n      0x20\n      mload(0x40)\n      dup1\n      dup4\n      sub\n      dup2\n      dup7\n      dup1\n      extcodesize\n      iszero\n      dup1\n      iszero\n      tag_170\n      jumpi\n      0x00\n      dup1\n      revert\n    tag_170:\n      pop\n      gas\n      staticcall\n      iszero\n      dup1\n      iszero\n      tag_172\n      jumpi\n      returndatasize\n      0x00\n      dup1\n      returndatacopy\n      revert(0x00, returndatasize)\n    tag_172:\n      pop\n      pop\n      pop\n      pop\n      mload(0x40)\n      returndatasize\n      not(0x1f)\n      0x1f\n      dup3\n      add\n      and\n      dup3\n      add\n      dup1\n      0x40\n      mstore\n      pop\n      dup2\n      add\n      swap1\n      tag_173\n      swap2\n      swap1\n      tag_120\n      jump\t// in\n    tag_173:\n        /* \"contracts/Utils.sol\":18951:19003  lpAddress.token1().balanceOf(address(lpAddress)).mul */\n      tag_121\n      swap1\n        /* \"contracts/Utils.sol\":18951:19044  lpAddress.token1().balanceOf(address(lpAddress)).mul(Tokenprice(address(lpAddress.token1()))) */\n      swap2\n      swap1\n      0xffffffff\n      and\n      jump\t// in\n    tag_159:\n        /* \"contracts/Utils.sol\":18941:19045  phase2 = (lpAddress.token1().balanceOf(address(lpAddress)).mul(Tokenprice(address(lpAddress.token1())))) */\n      swap1\n      pop\n        /* \"contracts/Utils.sol\":18744:19057  if(address(WBNB) == address(lpAddress.token1())){\r... */\n    tag_158:\n        /* \"contracts/Utils.sol\":19085:19134  (phase1.add(phase2)).div(lpAddress.totalSupply()) */\n      tag_174\n        /* \"contracts/Utils.sol\":19110:19119  lpAddress */\n      dup5\n        /* \"contracts/Utils.sol\":19110:19131  lpAddress.totalSupply */\n      0xffffffffffffffffffffffffffffffffffffffff\n      and\n      0x18160ddd\n        /* \"contracts/Utils.sol\":19110:19133  lpAddress.totalSupply() */\n      mload(0x40)\n      dup2\n      0xffffffff\n      and\n      0xe0\n      shl\n      dup2\n      mstore\n      0x04\n      add\n      0x20\n      mload(0x40)\n      dup1\n      dup4\n      sub\n      dup2\n      dup7\n      dup1\n      extcodesize\n      iszero\n      dup1\n      iszero\n      tag_175\n      jumpi\n      0x00\n      dup1\n      revert\n    tag_175:\n      pop\n      gas\n      staticcall\n      iszero\n      dup1\n      iszero\n      tag_177\n      jumpi\n      returndatasize\n      0x00\n      dup1\n      returndatacopy\n      revert(0x00, returndatasize)\n    tag_177:\n      pop\n      pop\n      pop\n      pop\n      mload(0x40)\n      returndatasize\n      not(0x1f)\n      0x1f\n      dup3\n      add\n      and\n      dup3\n      add\n      dup1\n      0x40\n      mstore\n      pop\n      dup2\n      add\n      swap1\n      tag_178\n      swap2\n      swap1\n      tag_120\n      jump\t// in\n    tag_178:\n        /* \"contracts/Utils.sol\":19086:19104  phase1.add(phase2) */\n      tag_179\n        /* \"contracts/Utils.sol\":19097:19103  phase2 */\n      dup4\n        /* \"contracts/Utils.sol\":19086:19092  phase1 */\n      dup6\n        /* \"contracts/Utils.sol\":19086:19096  phase1.add */\n      tag_180\n      swap1\n        /* \"contracts/Utils.sol\":19086:19104  phase1.add(phase2) */\n      swap2\n      swap1\n      0xffffffff\n      and\n      jump\t// in\n    tag_179:\n        /* \"contracts/Utils.sol\":19085:19109  (phase1.add(phase2)).div */\n      tag_181\n      swap1\n        /* \"contracts/Utils.sol\":19085:19134  (phase1.add(phase2)).div(lpAddress.totalSupply()) */\n      swap2\n      swap1\n      0xffffffff\n      and\n      jump\t// in\n    tag_174:\n        /* \"contracts/Utils.sol\":19077:19135  return ((phase1.add(phase2)).div(lpAddress.totalSupply())) */\n      swap3\n      pop\n      pop\n      pop\n        /* \"contracts/Utils.sol\":18295:19143  function CalcLpPrice(LP lpAddress) public view returns(uint256){\r... */\n      swap2\n      swap1\n      pop\n      jump\t// out\n        /* \"contracts/Utils.sol\":17448:17475  Router public routerAddress */\n    tag_32:\n      0x04\n      0x00\n      swap1\n      sload\n      swap1\n      0x0100\n      exp\n      swap1\n      div\n      0xffffffffffffffffffffffffffffffffffffffff\n      and\n      dup2\n      jump\t// out\n        /* \"contracts/Utils.sol\":18037:18270  function WBNBPrice(address token) public view returns(uint256){\r... */\n    tag_37:\n        /* \"contracts/Utils.sol\":18091:18098  uint256 */\n      0x00\n        /* \"contracts/Utils.sol\":18110:18131  address[] memory path */\n      dup1\n        /* \"contracts/Utils.sol\":18148:18149  2 */\n      0x02\n        /* \"contracts/Utils.sol\":18134:18150  new address[](2) */\n      0xffffffffffffffff\n      dup2\n      gt\n      iszero\n      tag_183\n      jumpi\n      tag_184\n      tag_80\n      jump\t// in\n    tag_184:\n    tag_183:\n      mload(0x40)\n      swap1\n      dup1\n      dup3\n      mstore\n      dup1\n      0x20\n      mul\n      0x20\n      add\n      dup3\n      add\n      0x40\n      mstore\n      dup1\n      iszero\n      tag_185\n      jumpi\n      dup2\n      0x20\n      add\n      0x20\n      dup3\n      mul\n      dup1\n      calldatasize\n      dup4\n      calldatacopy\n      dup1\n      dup3\n      add\n      swap2\n      pop\n      pop\n      swap1\n      pop\n    tag_185:\n      pop\n        /* \"contracts/Utils.sol\":18110:18150  address[] memory path = new address[](2) */\n      swap1\n      pop\n        /* \"contracts/Utils.sol\":18171:18176  token */\n      dup3\n        /* \"contracts/Utils.sol\":18161:18165  path */\n      dup2\n        /* \"contracts/Utils.sol\":18166:18167  0 */\n      0x00\n        /* \"contracts/Utils.sol\":18161:18168  path[0] */\n      dup2\n      mload\n      dup2\n      lt\n      tag_186\n      jumpi\n      tag_187\n      tag_84\n      jump\t// in\n    tag_187:\n    tag_186:\n      0x20\n      mul\n      0x20\n      add\n      add\n        /* \"contracts/Utils.sol\":18161:18176  path[0] = token */\n      swap1\n      0xffffffffffffffffffffffffffffffffffffffff\n      and\n      swap1\n      dup2\n      0xffffffffffffffffffffffffffffffffffffffff\n      and\n      dup2\n      mstore\n      pop\n      pop\n        /* \"contracts/Utils.sol\":18197:18201  BUSD */\n      0x02\n      0x00\n      swap1\n      sload\n      swap1\n      0x0100\n      exp\n      swap1\n      div\n      0xffffffffffffffffffffffffffffffffffffffff\n      and\n        /* \"contracts/Utils.sol\":18187:18191  path */\n      dup2\n        /* \"contracts/Utils.sol\":18192:18193  1 */\n      0x01\n        /* \"contracts/Utils.sol\":18187:18194  path[1] */\n      dup2\n      mload\n      dup2\n      lt\n      tag_188\n      jumpi\n      tag_189\n      tag_84\n      jump\t// in\n    tag_189:\n    tag_188:\n      0x20\n      mul\n      0x20\n      add\n      add\n        /* \"contracts/Utils.sol\":18187:18201  path[1] = BUSD */\n      swap1\n      0xffffffffffffffffffffffffffffffffffffffff\n      and\n      swap1\n      dup2\n      0xffffffffffffffffffffffffffffffffffffffff\n      and\n      dup2\n      mstore\n      pop\n      pop\n        /* \"contracts/Utils.sol\":18219:18232  routerAddress */\n      0x04\n      0x00\n      swap1\n      sload\n      swap1\n      0x0100\n      exp\n      swap1\n      div\n      0xffffffffffffffffffffffffffffffffffffffff\n      and\n        /* \"contracts/Utils.sol\":18219:18246  routerAddress.getAmountsOut */\n      0xffffffffffffffffffffffffffffffffffffffff\n      and\n      0xd06ca61f\n        /* \"contracts/Utils.sol\":18247:18253  amount */\n      sload(0x03)\n        /* \"contracts/Utils.sol\":18254:18258  path */\n      dup4\n        /* \"contracts/Utils.sol\":18219:18259  routerAddress.getAmountsOut(amount,path) */\n      mload(0x40)\n      dup4\n      0xffffffff\n      and\n      0xe0\n      shl\n      dup2\n      mstore\n      0x04\n      add\n      tag_190\n      swap3\n      swap2\n      swap1\n      tag_90\n      jump\t// in\n    tag_190:\n      0x00\n      mload(0x40)\n      dup1\n      dup4\n      sub\n      dup2\n      dup7\n      dup1\n      extcodesize\n      iszero\n      dup1\n      iszero\n      tag_191\n      jumpi\n      0x00\n      dup1\n      revert\n    tag_191:\n      pop\n      gas\n      staticcall\n      iszero\n      dup1\n      iszero\n      tag_193\n      jumpi\n      returndatasize\n      0x00\n      dup1\n      returndatacopy\n      revert(0x00, returndatasize)\n    tag_193:\n      pop\n      pop\n      pop\n      pop\n      mload(0x40)\n      returndatasize\n      0x00\n      dup3\n      returndatacopy\n      returndatasize\n      not(0x1f)\n      0x1f\n      dup3\n      add\n      and\n      dup3\n      add\n      dup1\n      0x40\n      mstore\n      pop\n      dup2\n      add\n      swap1\n      tag_194\n      swap2\n      swap1\n      tag_95\n      jump\t// in\n    tag_194:\n        /* \"contracts/Utils.sol\":18260:18261  1 */\n      0x01\n        /* \"contracts/Utils.sol\":18219:18262  routerAddress.getAmountsOut(amount,path)[1] */\n      dup2\n      mload\n      dup2\n      lt\n      tag_195\n      jumpi\n      tag_196\n      tag_84\n      jump\t// in\n    tag_196:\n    tag_195:\n      0x20\n      mul\n      0x20\n      add\n      add\n      mload\n        /* \"contracts/Utils.sol\":18212:18262  return routerAddress.getAmountsOut(amount,path)[1] */\n      swap2\n      pop\n      pop\n        /* \"contracts/Utils.sol\":18037:18270  function WBNBPrice(address token) public view returns(uint256){\r... */\n      swap2\n      swap1\n      pop\n      jump\t// out\n        /* \"contracts/Utils.sol\":17334:17398  address public BUSD = 0x78867BbEeF44f2326bF8DDd1941a4439382EF2A7 */\n    tag_40:\n      0x02\n      0x00\n      swap1\n      sload\n      swap1\n      0x0100\n      exp\n      swap1\n      div\n      0xffffffffffffffffffffffffffffffffffffffff\n      and\n      dup2\n      jump\t// out\n        /* \"contracts/Utils.sol\":19745:20029  function getPoolWeight(uint256 pid, MetaMasterChef MasterChef) external view returns(uint256){\r... */\n    tag_46:\n        /* \"contracts/Utils.sol\":19830:19837  uint256 */\n      0x00\n        /* \"contracts/Utils.sol\":19849:19869  PoolInfo memory pool */\n      dup1\n        /* \"contracts/Utils.sol\":19872:19882  MasterChef */\n      dup3\n        /* \"contracts/Utils.sol\":19872:19891  MasterChef.poolInfo */\n      0xffffffffffffffffffffffffffffffffffffffff\n      and\n      0x1526fe27\n        /* \"contracts/Utils.sol\":19892:19895  pid */\n      dup6\n        /* \"contracts/Utils.sol\":19872:19896  MasterChef.poolInfo(pid) */\n      mload(0x40)\n      dup3\n      0xffffffff\n      and\n      0xe0\n      shl\n      dup2\n      mstore\n      0x04\n      add\n      tag_198\n      swap2\n      swap1\n      tag_25\n      jump\t// in\n    tag_198:\n      0xc0\n      mload(0x40)\n      dup1\n      dup4\n      sub\n      dup2\n      dup7\n      dup1\n      extcodesize\n      iszero\n      dup1\n      iszero\n      tag_199\n      jumpi\n      0x00\n      dup1\n      revert\n    tag_199:\n      pop\n      gas\n      staticcall\n      iszero\n      dup1\n      iszero\n      tag_201\n      jumpi\n      returndatasize\n      0x00\n      dup1\n      returndatacopy\n      revert(0x00, returndatasize)\n    tag_201:\n      pop\n      pop\n      pop\n      pop\n      mload(0x40)\n      returndatasize\n      not(0x1f)\n      0x1f\n      dup3\n      add\n      and\n      dup3\n      add\n      dup1\n      0x40\n      mstore\n      pop\n      dup2\n      add\n      swap1\n      tag_202\n      swap2\n      swap1\n      tag_203\n      jump\t// in\n    tag_202:\n        /* \"contracts/Utils.sol\":19849:19896  PoolInfo memory pool = MasterChef.poolInfo(pid) */\n      swap1\n      pop\n        /* \"contracts/Utils.sol\":19907:19925  uint256 poolWeight */\n      0x00\n        /* \"contracts/Utils.sol\":19928:19993  ((pool.allocPoint).mul(amount)).div(MasterChef.totalAllocPoint()) */\n      tag_204\n        /* \"contracts/Utils.sol\":19964:19974  MasterChef */\n      dup5\n        /* \"contracts/Utils.sol\":19964:19990  MasterChef.totalAllocPoint */\n      0xffffffffffffffffffffffffffffffffffffffff\n      and\n      0x17caf6f1\n        /* \"contracts/Utils.sol\":19964:19992  MasterChef.totalAllocPoint() */\n      mload(0x40)\n      dup2\n      0xffffffff\n      and\n      0xe0\n      shl\n      dup2\n      mstore\n      0x04\n      add\n      0x20\n      mload(0x40)\n      dup1\n      dup4\n      sub\n      dup2\n      dup7\n      dup1\n      extcodesize\n      iszero\n      dup1\n      iszero\n      tag_205\n      jumpi\n      0x00\n      dup1\n      revert\n    tag_205:\n      pop\n      gas\n      staticcall\n      iszero\n      dup1\n      iszero\n      tag_207\n      jumpi\n      returndatasize\n      0x00\n      dup1\n      returndatacopy\n      revert(0x00, returndatasize)\n    tag_207:\n      pop\n      pop\n      pop\n      pop\n      mload(0x40)\n      returndatasize\n      not(0x1f)\n      0x1f\n      dup3\n      add\n      and\n      dup3\n      add\n      dup1\n      0x40\n      mstore\n      pop\n      dup2\n      add\n      swap1\n      tag_208\n      swap2\n      swap1\n      tag_120\n      jump\t// in\n    tag_208:\n        /* \"contracts/Utils.sol\":19929:19958  (pool.allocPoint).mul(amount) */\n      tag_209\n        /* \"contracts/Utils.sol\":19951:19957  amount */\n      sload(0x03)\n        /* \"contracts/Utils.sol\":19930:19934  pool */\n      dup6\n        /* \"contracts/Utils.sol\":19930:19945  pool.allocPoint */\n      0x20\n      add\n      mload\n        /* \"contracts/Utils.sol\":19929:19950  (pool.allocPoint).mul */\n      tag_121\n      swap1\n        /* \"contracts/Utils.sol\":19929:19958  (pool.allocPoint).mul(amount) */\n      swap2\n      swap1\n      0xffffffff\n      and\n      jump\t// in\n    tag_209:\n        /* \"contracts/Utils.sol\":19928:19963  ((pool.allocPoint).mul(amount)).div */\n      tag_181\n      swap1\n        /* \"contracts/Utils.sol\":19928:19993  ((pool.allocPoint).mul(amount)).div(MasterChef.totalAllocPoint()) */\n      swap2\n      swap1\n      0xffffffff\n      and\n      jump\t// in\n    tag_204:\n        /* \"contracts/Utils.sol\":19907:19993  uint256 poolWeight = ((pool.allocPoint).mul(amount)).div(MasterChef.totalAllocPoint()) */\n      swap1\n      pop\n        /* \"contracts/Utils.sol\":20011:20021  poolWeight */\n      dup1\n        /* \"contracts/Utils.sol\":20004:20021  return poolWeight */\n      swap3\n      pop\n      pop\n      pop\n        /* \"contracts/Utils.sol\":19745:20029  function getPoolWeight(uint256 pid, MetaMasterChef MasterChef) external view returns(uint256){\r... */\n      swap3\n      swap2\n      pop\n      pop\n      jump\t// out\n        /* \"contracts/Utils.sol\":14500:14603  function renounceOwnership() public virtual onlyOwner {\r... */\n    tag_49:\n        /* \"contracts/Utils.sol\":14080:14092  _msgSender() */\n      tag_211\n        /* \"contracts/Utils.sol\":14080:14090  _msgSender */\n      tag_212\n        /* \"contracts/Utils.sol\":14080:14092  _msgSender() */\n      jump\t// in\n    tag_211:\n        /* \"contracts/Utils.sol\":14069:14092  owner() == _msgSender() */\n      0xffffffffffffffffffffffffffffffffffffffff\n      and\n        /* \"contracts/Utils.sol\":14069:14076  owner() */\n      tag_213\n        /* \"contracts/Utils.sol\":14069:14074  owner */\n      tag_51\n        /* \"contracts/Utils.sol\":14069:14076  owner() */\n      jump\t// in\n    tag_213:\n        /* \"contracts/Utils.sol\":14069:14092  owner() == _msgSender() */\n      0xffffffffffffffffffffffffffffffffffffffff\n      and\n      eq\n        /* \"contracts/Utils.sol\":14061:14129  require(owner() == _msgSender(), \"Ownable: caller is not the owner\") */\n      tag_214\n      jumpi\n      mload(0x40)\n      0x08c379a000000000000000000000000000000000000000000000000000000000\n      dup2\n      mstore\n      0x04\n      add\n      tag_215\n      swap1\n      tag_216\n      jump\t// in\n    tag_215:\n      mload(0x40)\n      dup1\n      swap2\n      sub\n      swap1\n      revert\n    tag_214:\n        /* \"contracts/Utils.sol\":14565:14595  _transferOwnership(address(0)) */\n      tag_218\n        /* \"contracts/Utils.sol\":14592:14593  0 */\n      0x00\n        /* \"contracts/Utils.sol\":14565:14583  _transferOwnership */\n      tag_219\n        /* \"contracts/Utils.sol\":14565:14595  _transferOwnership(address(0)) */\n      jump\t// in\n    tag_218:\n        /* \"contracts/Utils.sol\":14500:14603  function renounceOwnership() public virtual onlyOwner {\r... */\n      jump\t// out\n        /* \"contracts/Utils.sol\":13849:13936  function owner() public view virtual returns (address) {\r... */\n    tag_51:\n        /* \"contracts/Utils.sol\":13895:13902  address */\n      0x00\n        /* \"contracts/Utils.sol\":13922:13928  _owner */\n      dup1\n      0x00\n      swap1\n      sload\n      swap1\n      0x0100\n      exp\n      swap1\n      div\n      0xffffffffffffffffffffffffffffffffffffffff\n      and\n        /* \"contracts/Utils.sol\":13915:13928  return _owner */\n      swap1\n      pop\n        /* \"contracts/Utils.sol\":13849:13936  function owner() public view virtual returns (address) {\r... */\n      swap1\n      jump\t// out\n        /* \"contracts/Utils.sol\":17263:17327  address public WBNB = 0xae13d989daC2f0dEbFf460aC112a837C89BAa7cd */\n    tag_54:\n      0x01\n      0x00\n      swap1\n      sload\n      swap1\n      0x0100\n      exp\n      swap1\n      div\n      0xffffffffffffffffffffffffffffffffffffffff\n      and\n      dup2\n      jump\t// out\n        /* \"contracts/Utils.sol\":17621:17728  function setRouter(Router _routerAddress) public onlyOwner{\r... */\n    tag_59:\n        /* \"contracts/Utils.sol\":14080:14092  _msgSender() */\n      tag_222\n        /* \"contracts/Utils.sol\":14080:14090  _msgSender */\n      tag_212\n        /* \"contracts/Utils.sol\":14080:14092  _msgSender() */\n      jump\t// in\n    tag_222:\n        /* \"contracts/Utils.sol\":14069:14092  owner() == _msgSender() */\n      0xffffffffffffffffffffffffffffffffffffffff\n      and\n        /* \"contracts/Utils.sol\":14069:14076  owner() */\n      tag_223\n        /* \"contracts/Utils.sol\":14069:14074  owner */\n      tag_51\n        /* \"contracts/Utils.sol\":14069:14076  owner() */\n      jump\t// in\n    tag_223:\n        /* \"contracts/Utils.sol\":14069:14092  owner() == _msgSender() */\n      0xffffffffffffffffffffffffffffffffffffffff\n      and\n      eq\n        /* \"contracts/Utils.sol\":14061:14129  require(owner() == _msgSender(), \"Ownable: caller is not the owner\") */\n      tag_224\n      jumpi\n      mload(0x40)\n      0x08c379a000000000000000000000000000000000000000000000000000000000\n      dup2\n      mstore\n      0x04\n      add\n      tag_225\n      swap1\n      tag_216\n      jump\t// in\n    tag_225:\n      mload(0x40)\n      dup1\n      swap2\n      sub\n      swap1\n      revert\n    tag_224:\n        /* \"contracts/Utils.sol\":17706:17720  _routerAddress */\n      dup1\n        /* \"contracts/Utils.sol\":17690:17703  routerAddress */\n      0x04\n      0x00\n        /* \"contracts/Utils.sol\":17690:17720  routerAddress = _routerAddress */\n      0x0100\n      exp\n      dup2\n      sload\n      dup2\n      0xffffffffffffffffffffffffffffffffffffffff\n      mul\n      not\n      and\n      swap1\n      dup4\n      0xffffffffffffffffffffffffffffffffffffffff\n      and\n      mul\n      or\n      swap1\n      sstore\n      pop\n        /* \"contracts/Utils.sol\":17621:17728  function setRouter(Router _routerAddress) public onlyOwner{\r... */\n      pop\n      jump\t// out\n        /* \"contracts/Utils.sol\":19166:19737  function calcPoolTVLInUSD(uint256 pid, LP lpAddress, uint256 isLp, MetaMasterChef MasterChef) public view returns(uint256){\r... */\n    tag_63:\n        /* \"contracts/Utils.sol\":19280:19287  uint256 */\n      0x00\n        /* \"contracts/Utils.sol\":19299:19314  uint256 Balance */\n      dup1\n        /* \"contracts/Utils.sol\":19317:19327  MasterChef */\n      dup3\n        /* \"contracts/Utils.sol\":19317:19339  MasterChef.poolBalance */\n      0xffffffffffffffffffffffffffffffffffffffff\n      and\n      0x6a6d964e\n        /* \"contracts/Utils.sol\":19340:19343  pid */\n      dup8\n        /* \"contracts/Utils.sol\":19317:19344  MasterChef.poolBalance(pid) */\n      mload(0x40)\n      dup3\n      0xffffffff\n      and\n      0xe0\n      shl\n      dup2\n      mstore\n      0x04\n      add\n      tag_228\n      swap2\n      swap1\n      tag_25\n      jump\t// in\n    tag_228:\n      0x20\n      mload(0x40)\n      dup1\n      dup4\n      sub\n      dup2\n      dup7\n      dup1\n      extcodesize\n      iszero\n      dup1\n      iszero\n      tag_229\n      jumpi\n      0x00\n      dup1\n      revert\n    tag_229:\n      pop\n      gas\n      staticcall\n      iszero\n      dup1\n      iszero\n      tag_231\n      jumpi\n      returndatasize\n      0x00\n      dup1\n      returndatacopy\n      revert(0x00, returndatasize)\n    tag_231:\n      pop\n      pop\n      pop\n      pop\n      mload(0x40)\n      returndatasize\n      not(0x1f)\n      0x1f\n      dup3\n      add\n      and\n      dup3\n      add\n      dup1\n      0x40\n      mstore\n      pop\n      dup2\n      add\n      swap1\n      tag_232\n      swap2\n      swap1\n      tag_120\n      jump\t// in\n    tag_232:\n        /* \"contracts/Utils.sol\":19299:19344  uint256 Balance = MasterChef.poolBalance(pid) */\n      swap1\n      pop\n        /* \"contracts/Utils.sol\":19355:19368  uint256 price */\n      0x00\n        /* \"contracts/Utils.sol\":19390:19391  0 */\n      dup1\n        /* \"contracts/Utils.sol\":19382:19386  isLp */\n      dup6\n        /* \"contracts/Utils.sol\":19382:19391  isLp == 0 */\n      eq\n        /* \"contracts/Utils.sol\":19379:19681  if(isLp == 0){\r... */\n      iszero\n      tag_233\n      jumpi\n        /* \"contracts/Utils.sol\":19415:19437  CalcLpPrice(lpAddress) */\n      tag_234\n        /* \"contracts/Utils.sol\":19427:19436  lpAddress */\n      dup7\n        /* \"contracts/Utils.sol\":19415:19426  CalcLpPrice */\n      tag_29\n        /* \"contracts/Utils.sol\":19415:19437  CalcLpPrice(lpAddress) */\n      jump\t// in\n    tag_234:\n        /* \"contracts/Utils.sol\":19407:19437  price = CalcLpPrice(lpAddress) */\n      swap1\n      pop\n        /* \"contracts/Utils.sol\":19379:19681  if(isLp == 0){\r... */\n      jump(tag_235)\n    tag_233:\n        /* \"contracts/Utils.sol\":19465:19466  1 */\n      0x01\n        /* \"contracts/Utils.sol\":19457:19461  isLp */\n      dup6\n        /* \"contracts/Utils.sol\":19457:19466  isLp == 1 */\n      eq\n        /* \"contracts/Utils.sol\":19454:19681  if(isLp == 1){\r... */\n      iszero\n      tag_236\n      jumpi\n        /* \"contracts/Utils.sol\":19510:19519  lpAddress */\n      dup6\n        /* \"contracts/Utils.sol\":19485:19520  address(WBNB) == address(lpAddress) */\n      0xffffffffffffffffffffffffffffffffffffffff\n      and\n        /* \"contracts/Utils.sol\":19493:19497  WBNB */\n      0x01\n      0x00\n      swap1\n      sload\n      swap1\n      0x0100\n      exp\n      swap1\n      div\n      0xffffffffffffffffffffffffffffffffffffffff\n      and\n        /* \"contracts/Utils.sol\":19485:19520  address(WBNB) == address(lpAddress) */\n      0xffffffffffffffffffffffffffffffffffffffff\n      and\n      eq\n        /* \"contracts/Utils.sol\":19482:19670  if(address(WBNB) == address(lpAddress)){\r... */\n      iszero\n      tag_237\n      jumpi\n        /* \"contracts/Utils.sol\":19548:19577  WBNBPrice(address(lpAddress)) */\n      tag_238\n        /* \"contracts/Utils.sol\":19566:19575  lpAddress */\n      dup7\n        /* \"contracts/Utils.sol\":19548:19557  WBNBPrice */\n      tag_37\n        /* \"contracts/Utils.sol\":19548:19577  WBNBPrice(address(lpAddress)) */\n      jump\t// in\n    tag_238:\n        /* \"contracts/Utils.sol\":19540:19577  price = WBNBPrice(address(lpAddress)) */\n      swap1\n      pop\n        /* \"contracts/Utils.sol\":19482:19670  if(address(WBNB) == address(lpAddress)){\r... */\n      jump(tag_239)\n    tag_237:\n        /* \"contracts/Utils.sol\":19624:19654  Tokenprice(address(lpAddress)) */\n      tag_240\n        /* \"contracts/Utils.sol\":19643:19652  lpAddress */\n      dup7\n        /* \"contracts/Utils.sol\":19624:19634  Tokenprice */\n      tag_23\n        /* \"contracts/Utils.sol\":19624:19654  Tokenprice(address(lpAddress)) */\n      jump\t// in\n    tag_240:\n        /* \"contracts/Utils.sol\":19616:19654  price = Tokenprice(address(lpAddress)) */\n      swap1\n      pop\n        /* \"contracts/Utils.sol\":19482:19670  if(address(WBNB) == address(lpAddress)){\r... */\n    tag_239:\n        /* \"contracts/Utils.sol\":19454:19681  if(isLp == 1){\r... */\n    tag_236:\n        /* \"contracts/Utils.sol\":19379:19681  if(isLp == 0){\r... */\n    tag_235:\n        /* \"contracts/Utils.sol\":19700:19729  (Balance * price).div(amount) */\n      tag_241\n        /* \"contracts/Utils.sol\":19722:19728  amount */\n      sload(0x03)\n        /* \"contracts/Utils.sol\":19711:19716  price */\n      dup3\n        /* \"contracts/Utils.sol\":19701:19708  Balance */\n      dup5\n        /* \"contracts/Utils.sol\":19701:19716  Balance * price */\n      tag_242\n      swap2\n      swap1\n      tag_243\n      jump\t// in\n    tag_242:\n        /* \"contracts/Utils.sol\":19700:19721  (Balance * price).div */\n      tag_181\n      swap1\n        /* \"contracts/Utils.sol\":19700:19729  (Balance * price).div(amount) */\n      swap2\n      swap1\n      0xffffffff\n      and\n      jump\t// in\n    tag_241:\n        /* \"contracts/Utils.sol\":19693:19729  return (Balance * price).div(amount) */\n      swap3\n      pop\n      pop\n      pop\n        /* \"contracts/Utils.sol\":19166:19737  function calcPoolTVLInUSD(uint256 pid, LP lpAddress, uint256 isLp, MetaMasterChef MasterChef) public view returns(uint256){\r... */\n      swap5\n      swap4\n      pop\n      pop\n      pop\n      pop\n      jump\t// out\n        /* \"contracts/Utils.sol\":20037:20197  function getRewardTokenPrice(MetaMasterChef MasterChef) external view returns(uint256){\r... */\n    tag_68:\n        /* \"contracts/Utils.sol\":20115:20122  uint256 */\n      0x00\n        /* \"contracts/Utils.sol\":20134:20158  uint256 rewardTokenPrice */\n      dup1\n        /* \"contracts/Utils.sol\":20161:20189  Tokenprice(MasterChef.DRG()) */\n      tag_245\n        /* \"contracts/Utils.sol\":20172:20182  MasterChef */\n      dup4\n        /* \"contracts/Utils.sol\":20172:20186  MasterChef.DRG */\n      0xffffffffffffffffffffffffffffffffffffffff\n      and\n      0x141aa0ba\n        /* \"contracts/Utils.sol\":20172:20188  MasterChef.DRG() */\n      mload(0x40)\n      dup2\n      0xffffffff\n      and\n      0xe0\n      shl\n      dup2\n      mstore\n      0x04\n      add\n      0x20\n      mload(0x40)\n      dup1\n      dup4\n      sub\n      dup2\n      dup7\n      dup1\n      extcodesize\n      iszero\n      dup1\n      iszero\n      tag_246\n      jumpi\n      0x00\n      dup1\n      revert\n    tag_246:\n      pop\n      gas\n      staticcall\n      iszero\n      dup1\n      iszero\n      tag_248\n      jumpi\n      returndatasize\n      0x00\n      dup1\n      returndatacopy\n      revert(0x00, returndatasize)\n    tag_248:\n      pop\n      pop\n      pop\n      pop\n      mload(0x40)\n      returndatasize\n      not(0x1f)\n      0x1f\n      dup3\n      add\n      and\n      dup3\n      add\n      dup1\n      0x40\n      mstore\n      pop\n      dup2\n      add\n      swap1\n      tag_249\n      swap2\n      swap1\n      tag_250\n      jump\t// in\n    tag_249:\n        /* \"contracts/Utils.sol\":20161:20171  Tokenprice */\n      tag_23\n        /* \"contracts/Utils.sol\":20161:20189  Tokenprice(MasterChef.DRG()) */\n      jump\t// in\n    tag_245:\n        /* \"contracts/Utils.sol\":20134:20189  uint256 rewardTokenPrice = Tokenprice(MasterChef.DRG()) */\n      swap1\n      pop\n        /* \"contracts/Utils.sol\":20123:20197  {\r... */\n      pop\n        /* \"contracts/Utils.sol\":20037:20197  function getRewardTokenPrice(MetaMasterChef MasterChef) external view returns(uint256){\r... */\n      swap2\n      swap1\n      pop\n      jump\t// out\n        /* \"contracts/Utils.sol\":20205:20905  function CalcApy(uint256 pid, LP lpAddress,uint256 isLp, MetaMasterChef MasterChef) external view returns(uint256){\r... */\n    tag_72:\n        /* \"contracts/Utils.sol\":20311:20318  uint256 */\n      0x00\n        /* \"contracts/Utils.sol\":20330:20350  PoolInfo memory pool */\n      dup1\n        /* \"contracts/Utils.sol\":20353:20363  MasterChef */\n      dup3\n        /* \"contracts/Utils.sol\":20353:20372  MasterChef.poolInfo */\n      0xffffffffffffffffffffffffffffffffffffffff\n      and\n      0x1526fe27\n        /* \"contracts/Utils.sol\":20373:20376  pid */\n      dup8\n        /* \"contracts/Utils.sol\":20353:20377  MasterChef.poolInfo(pid) */\n      mload(0x40)\n      dup3\n      0xffffffff\n      and\n      0xe0\n      shl\n      dup2\n      mstore\n      0x04\n      add\n      tag_252\n      swap2\n      swap1\n      tag_25\n      jump\t// in\n    tag_252:\n      0xc0\n      mload(0x40)\n      dup1\n      dup4\n      sub\n      dup2\n      dup7\n      dup1\n      extcodesize\n      iszero\n      dup1\n      iszero\n      tag_253\n      jumpi\n      0x00\n      dup1\n      revert\n    tag_253:\n      pop\n      gas\n      staticcall\n      iszero\n      dup1\n      iszero\n      tag_255\n      jumpi\n      returndatasize\n      0x00\n      dup1\n      returndatacopy\n      revert(0x00, returndatasize)\n    tag_255:\n      pop\n      pop\n      pop\n      pop\n      mload(0x40)\n      returndatasize\n      not(0x1f)\n      0x1f\n      dup3\n      add\n      and\n      dup3\n      add\n      dup1\n      0x40\n      mstore\n      pop\n      dup2\n      add\n      swap1\n      tag_256\n      swap2\n      swap1\n      tag_203\n      jump\t// in\n    tag_256:\n        /* \"contracts/Utils.sol\":20330:20377  PoolInfo memory pool = MasterChef.poolInfo(pid) */\n      swap1\n      pop\n        /* \"contracts/Utils.sol\":20388:20406  uint256 poolWeight */\n      0x00\n        /* \"contracts/Utils.sol\":20409:20474  ((pool.allocPoint).mul(amount)).div(MasterChef.totalAllocPoint()) */\n      tag_257\n        /* \"contracts/Utils.sol\":20445:20455  MasterChef */\n      dup5\n        /* \"contracts/Utils.sol\":20445:20471  MasterChef.totalAllocPoint */\n      0xffffffffffffffffffffffffffffffffffffffff\n      and\n      0x17caf6f1\n        /* \"contracts/Utils.sol\":20445:20473  MasterChef.totalAllocPoint() */\n      mload(0x40)\n      dup2\n      0xffffffff\n      and\n      0xe0\n      shl\n      dup2\n      mstore\n      0x04\n      add\n      0x20\n      mload(0x40)\n      dup1\n      dup4\n      sub\n      dup2\n      dup7\n      dup1\n      extcodesize\n      iszero\n      dup1\n      iszero\n      tag_258\n      jumpi\n      0x00\n      dup1\n      revert\n    tag_258:\n      pop\n      gas\n      staticcall\n      iszero\n      dup1\n      iszero\n      tag_260\n      jumpi\n      returndatasize\n      0x00\n      dup1\n      returndatacopy\n      revert(0x00, returndatasize)\n    tag_260:\n      pop\n      pop\n      pop\n      pop\n      mload(0x40)\n      returndatasize\n      not(0x1f)\n      0x1f\n      dup3\n      add\n      and\n      dup3\n      add\n      dup1\n      0x40\n      mstore\n      pop\n      dup2\n      add\n      swap1\n      tag_261\n      swap2\n      swap1\n      tag_120\n      jump\t// in\n    tag_261:\n        /* \"contracts/Utils.sol\":20410:20439  (pool.allocPoint).mul(amount) */\n      tag_262\n        /* \"contracts/Utils.sol\":20432:20438  amount */\n      sload(0x03)\n        /* \"contracts/Utils.sol\":20411:20415  pool */\n      dup6\n        /* \"contracts/Utils.sol\":20411:20426  pool.allocPoint */\n      0x20\n      add\n      mload\n        /* \"contracts/Utils.sol\":20410:20431  (pool.allocPoint).mul */\n      tag_121\n      swap1\n        /* \"contracts/Utils.sol\":20410:20439  (pool.allocPoint).mul(amount) */\n      swap2\n      swap1\n      0xffffffff\n      and\n      jump\t// in\n    tag_262:\n        /* \"contracts/Utils.sol\":20409:20444  ((pool.allocPoint).mul(amount)).div */\n      tag_181\n      swap1\n        /* \"contracts/Utils.sol\":20409:20474  ((pool.allocPoint).mul(amount)).div(MasterChef.totalAllocPoint()) */\n      swap2\n      swap1\n      0xffffffff\n      and\n      jump\t// in\n    tag_257:\n        /* \"contracts/Utils.sol\":20388:20474  uint256 poolWeight = ((pool.allocPoint).mul(amount)).div(MasterChef.totalAllocPoint()) */\n      swap1\n      pop\n        /* \"contracts/Utils.sol\":20485:20509  uint256 rewardTokenPrice */\n      0x00\n        /* \"contracts/Utils.sol\":20512:20540  Tokenprice(MasterChef.DRG()) */\n      tag_263\n        /* \"contracts/Utils.sol\":20523:20533  MasterChef */\n      dup6\n        /* \"contracts/Utils.sol\":20523:20537  MasterChef.DRG */\n      0xffffffffffffffffffffffffffffffffffffffff\n      and\n      0x141aa0ba\n        /* \"contracts/Utils.sol\":20523:20539  MasterChef.DRG() */\n      mload(0x40)\n      dup2\n      0xffffffff\n      and\n      0xe0\n      shl\n      dup2\n      mstore\n      0x04\n      add\n      0x20\n      mload(0x40)\n      dup1\n      dup4\n      sub\n      dup2\n      dup7\n      dup1\n      extcodesize\n      iszero\n      dup1\n      iszero\n      tag_264\n      jumpi\n      0x00\n      dup1\n      revert\n    tag_264:\n      pop\n      gas\n      staticcall\n      iszero\n      dup1\n      iszero\n      tag_266\n      jumpi\n      returndatasize\n      0x00\n      dup1\n      returndatacopy\n      revert(0x00, returndatasize)\n    tag_266:\n      pop\n      pop\n      pop\n      pop\n      mload(0x40)\n      returndatasize\n      not(0x1f)\n      0x1f\n      dup3\n      add\n      and\n      dup3\n      add\n      dup1\n      0x40\n      mstore\n      pop\n      dup2\n      add\n      swap1\n      tag_267\n      swap2\n      swap1\n      tag_250\n      jump\t// in\n    tag_267:\n        /* \"contracts/Utils.sol\":20512:20522  Tokenprice */\n      tag_23\n        /* \"contracts/Utils.sol\":20512:20540  Tokenprice(MasterChef.DRG()) */\n      jump\t// in\n    tag_263:\n        /* \"contracts/Utils.sol\":20485:20540  uint256 rewardTokenPrice = Tokenprice(MasterChef.DRG()) */\n      swap1\n      pop\n        /* \"contracts/Utils.sol\":20551:20571  uint256 DRG_PER_YEAR */\n      0x00\n        /* \"contracts/Utils.sol\":20574:20619  BLOCKS_PER_YEAR.mul(MasterChef.DRGPerBlock()) */\n      tag_268\n        /* \"contracts/Utils.sol\":20594:20604  MasterChef */\n      dup7\n        /* \"contracts/Utils.sol\":20594:20616  MasterChef.DRGPerBlock */\n      0xffffffffffffffffffffffffffffffffffffffff\n      and\n      0xa1eef821\n        /* \"contracts/Utils.sol\":20594:20618  MasterChef.DRGPerBlock() */\n      mload(0x40)\n      dup2\n      0xffffffff\n      and\n      0xe0\n      shl\n      dup2\n      mstore\n      0x04\n      add\n      0x20\n      mload(0x40)\n      dup1\n      dup4\n      sub\n      dup2\n      dup7\n      dup1\n      extcodesize\n      iszero\n      dup1\n      iszero\n      tag_269\n      jumpi\n      0x00\n      dup1\n      revert\n    tag_269:\n      pop\n      gas\n      staticcall\n      iszero\n      dup1\n      iszero\n      tag_271\n      jumpi\n      returndatasize\n      0x00\n      dup1\n      returndatacopy\n      revert(0x00, returndatasize)\n    tag_271:\n      pop\n      pop\n      pop\n      pop\n      mload(0x40)\n      returndatasize\n      not(0x1f)\n      0x1f\n      dup3\n      add\n      and\n      dup3\n      add\n      dup1\n      0x40\n      mstore\n      pop\n      dup2\n      add\n      swap1\n      tag_272\n      swap2\n      swap1\n      tag_120\n      jump\t// in\n    tag_272:\n        /* \"contracts/Utils.sol\":20574:20589  BLOCKS_PER_YEAR */\n      sload(0x05)\n        /* \"contracts/Utils.sol\":20574:20593  BLOCKS_PER_YEAR.mul */\n      tag_121\n      swap1\n        /* \"contracts/Utils.sol\":20574:20619  BLOCKS_PER_YEAR.mul(MasterChef.DRGPerBlock()) */\n      swap2\n      swap1\n      0xffffffff\n      and\n      jump\t// in\n    tag_268:\n        /* \"contracts/Utils.sol\":20551:20619  uint256 DRG_PER_YEAR = BLOCKS_PER_YEAR.mul(MasterChef.DRGPerBlock()) */\n      swap1\n      pop\n        /* \"contracts/Utils.sol\":20630:20663  uint256 yearlyDRGRewardAllocation */\n      0x00\n        /* \"contracts/Utils.sol\":20666:20694  DRG_PER_YEAR.mul(poolWeight) */\n      tag_273\n        /* \"contracts/Utils.sol\":20683:20693  poolWeight */\n      dup5\n        /* \"contracts/Utils.sol\":20666:20678  DRG_PER_YEAR */\n      dup4\n        /* \"contracts/Utils.sol\":20666:20682  DRG_PER_YEAR.mul */\n      tag_121\n      swap1\n        /* \"contracts/Utils.sol\":20666:20694  DRG_PER_YEAR.mul(poolWeight) */\n      swap2\n      swap1\n      0xffffffff\n      and\n      jump\t// in\n    tag_273:\n        /* \"contracts/Utils.sol\":20630:20694  uint256 yearlyDRGRewardAllocation = DRG_PER_YEAR.mul(poolWeight) */\n      swap1\n      pop\n        /* \"contracts/Utils.sol\":20705:20729  uint256 poolLiquidityUsd */\n      0x00\n        /* \"contracts/Utils.sol\":20732:20782  calcPoolTVLInUSD(pid, lpAddress, isLp, MasterChef) */\n      tag_274\n        /* \"contracts/Utils.sol\":20749:20752  pid */\n      dup12\n        /* \"contracts/Utils.sol\":20754:20763  lpAddress */\n      dup12\n        /* \"contracts/Utils.sol\":20765:20769  isLp */\n      dup12\n        /* \"contracts/Utils.sol\":20771:20781  MasterChef */\n      dup12\n        /* \"contracts/Utils.sol\":20732:20748  calcPoolTVLInUSD */\n      tag_63\n        /* \"contracts/Utils.sol\":20732:20782  calcPoolTVLInUSD(pid, lpAddress, isLp, MasterChef) */\n      jump\t// in\n    tag_274:\n        /* \"contracts/Utils.sol\":20705:20782  uint256 poolLiquidityUsd = calcPoolTVLInUSD(pid, lpAddress, isLp, MasterChef) */\n      swap1\n      pop\n        /* \"contracts/Utils.sol\":20801:20897  (((yearlyDRGRewardAllocation.mul(rewardTokenPrice)).div(amount)).div(poolLiquidityUsd)).mul(100) */\n      tag_275\n        /* \"contracts/Utils.sol\":20893:20896  100 */\n      0x64\n        /* \"contracts/Utils.sol\":20802:20887  ((yearlyDRGRewardAllocation.mul(rewardTokenPrice)).div(amount)).div(poolLiquidityUsd) */\n      tag_276\n        /* \"contracts/Utils.sol\":20870:20886  poolLiquidityUsd */\n      dup4\n        /* \"contracts/Utils.sol\":20803:20864  (yearlyDRGRewardAllocation.mul(rewardTokenPrice)).div(amount) */\n      tag_277\n        /* \"contracts/Utils.sol\":20857:20863  amount */\n      sload(0x03)\n        /* \"contracts/Utils.sol\":20804:20851  yearlyDRGRewardAllocation.mul(rewardTokenPrice) */\n      tag_278\n        /* \"contracts/Utils.sol\":20834:20850  rewardTokenPrice */\n      dup11\n        /* \"contracts/Utils.sol\":20804:20829  yearlyDRGRewardAllocation */\n      dup10\n        /* \"contracts/Utils.sol\":20804:20833  yearlyDRGRewardAllocation.mul */\n      tag_121\n      swap1\n        /* \"contracts/Utils.sol\":20804:20851  yearlyDRGRewardAllocation.mul(rewardTokenPrice) */\n      swap2\n      swap1\n      0xffffffff\n      and\n      jump\t// in\n    tag_278:\n        /* \"contracts/Utils.sol\":20803:20856  (yearlyDRGRewardAllocation.mul(rewardTokenPrice)).div */\n      tag_181\n      swap1\n        /* \"contracts/Utils.sol\":20803:20864  (yearlyDRGRewardAllocation.mul(rewardTokenPrice)).div(amount) */\n      swap2\n      swap1\n      0xffffffff\n      and\n      jump\t// in\n    tag_277:\n        /* \"contracts/Utils.sol\":20802:20869  ((yearlyDRGRewardAllocation.mul(rewardTokenPrice)).div(amount)).div */\n      tag_181\n      swap1\n        /* \"contracts/Utils.sol\":20802:20887  ((yearlyDRGRewardAllocation.mul(rewardTokenPrice)).div(amount)).div(poolLiquidityUsd) */\n      swap2\n      swap1\n      0xffffffff\n      and\n      jump\t// in\n    tag_276:\n        /* \"contracts/Utils.sol\":20801:20892  (((yearlyDRGRewardAllocation.mul(rewardTokenPrice)).div(amount)).div(poolLiquidityUsd)).mul */\n      tag_121\n      swap1\n        /* \"contracts/Utils.sol\":20801:20897  (((yearlyDRGRewardAllocation.mul(rewardTokenPrice)).div(amount)).div(poolLiquidityUsd)).mul(100) */\n      swap2\n      swap1\n      0xffffffff\n      and\n      jump\t// in\n    tag_275:\n        /* \"contracts/Utils.sol\":20795:20897  return(((yearlyDRGRewardAllocation.mul(rewardTokenPrice)).div(amount)).div(poolLiquidityUsd)).mul(100) */\n      swap7\n      pop\n      pop\n      pop\n      pop\n      pop\n      pop\n      pop\n        /* \"contracts/Utils.sol\":20205:20905  function CalcApy(uint256 pid, LP lpAddress,uint256 isLp, MetaMasterChef MasterChef) external view returns(uint256){\r... */\n      swap5\n      swap4\n      pop\n      pop\n      pop\n      pop\n      jump\t// out\n        /* \"contracts/Utils.sol\":14758:14959  function transferOwnership(address newOwner) public virtual onlyOwner {\r... */\n    tag_76:\n        /* \"contracts/Utils.sol\":14080:14092  _msgSender() */\n      tag_280\n        /* \"contracts/Utils.sol\":14080:14090  _msgSender */\n      tag_212\n        /* \"contracts/Utils.sol\":14080:14092  _msgSender() */\n      jump\t// in\n    tag_280:\n        /* \"contracts/Utils.sol\":14069:14092  owner() == _msgSender() */\n      0xffffffffffffffffffffffffffffffffffffffff\n      and\n        /* \"contracts/Utils.sol\":14069:14076  owner() */\n      tag_281\n        /* \"contracts/Utils.sol\":14069:14074  owner */\n      tag_51\n        /* \"contracts/Utils.sol\":14069:14076  owner() */\n      jump\t// in\n    tag_281:\n        /* \"contracts/Utils.sol\":14069:14092  owner() == _msgSender() */\n      0xffffffffffffffffffffffffffffffffffffffff\n      and\n      eq\n        /* \"contracts/Utils.sol\":14061:14129  require(owner() == _msgSender(), \"Ownable: caller is not the owner\") */\n      tag_282\n      jumpi\n      mload(0x40)\n      0x08c379a000000000000000000000000000000000000000000000000000000000\n      dup2\n      mstore\n      0x04\n      add\n      tag_283\n      swap1\n      tag_216\n      jump\t// in\n    tag_283:\n      mload(0x40)\n      dup1\n      swap2\n      sub\n      swap1\n      revert\n    tag_282:\n        /* \"contracts/Utils.sol\":14867:14868  0 */\n      0x00\n        /* \"contracts/Utils.sol\":14847:14869  newOwner != address(0) */\n      0xffffffffffffffffffffffffffffffffffffffff\n      and\n        /* \"contracts/Utils.sol\":14847:14855  newOwner */\n      dup2\n        /* \"contracts/Utils.sol\":14847:14869  newOwner != address(0) */\n      0xffffffffffffffffffffffffffffffffffffffff\n      and\n      eq\n      iszero\n        /* \"contracts/Utils.sol\":14839:14912  require(newOwner != address(0), \"Ownable: new owner is the zero address\") */\n      tag_285\n      jumpi\n      mload(0x40)\n      0x08c379a000000000000000000000000000000000000000000000000000000000\n      dup2\n      mstore\n      0x04\n      add\n      tag_286\n      swap1\n      tag_287\n      jump\t// in\n    tag_286:\n      mload(0x40)\n      dup1\n      swap2\n      sub\n      swap1\n      revert\n    tag_285:\n        /* \"contracts/Utils.sol\":14923:14951  _transferOwnership(newOwner) */\n      tag_288\n        /* \"contracts/Utils.sol\":14942:14950  newOwner */\n      dup2\n        /* \"contracts/Utils.sol\":14923:14941  _transferOwnership */\n      tag_219\n        /* \"contracts/Utils.sol\":14923:14951  _transferOwnership(newOwner) */\n      jump\t// in\n    tag_288:\n        /* \"contracts/Utils.sol\":14758:14959  function transferOwnership(address newOwner) public virtual onlyOwner {\r... */\n      pop\n      jump\t// out\n        /* \"contracts/Utils.sol\":9965:10436  function mul(uint256 a, uint256 b) internal pure returns (uint256) {\r... */\n    tag_121:\n        /* \"contracts/Utils.sol\":10023:10030  uint256 */\n      0x00\n        /* \"contracts/Utils.sol\":10273:10274  0 */\n      dup1\n        /* \"contracts/Utils.sol\":10268:10269  a */\n      dup4\n        /* \"contracts/Utils.sol\":10268:10274  a == 0 */\n      eq\n        /* \"contracts/Utils.sol\":10264:10311  if (a == 0) {\r... */\n      iszero\n      tag_290\n      jumpi\n        /* \"contracts/Utils.sol\":10298:10299  0 */\n      0x00\n        /* \"contracts/Utils.sol\":10291:10299  return 0 */\n      swap1\n      pop\n      jump(tag_289)\n        /* \"contracts/Utils.sol\":10264:10311  if (a == 0) {\r... */\n    tag_290:\n        /* \"contracts/Utils.sol\":10323:10332  uint256 c */\n      0x00\n        /* \"contracts/Utils.sol\":10339:10340  b */\n      dup3\n        /* \"contracts/Utils.sol\":10335:10336  a */\n      dup5\n        /* \"contracts/Utils.sol\":10335:10340  a * b */\n      tag_291\n      swap2\n      swap1\n      tag_243\n      jump\t// in\n    tag_291:\n        /* \"contracts/Utils.sol\":10323:10340  uint256 c = a * b */\n      swap1\n      pop\n        /* \"contracts/Utils.sol\":10368:10369  b */\n      dup3\n        /* \"contracts/Utils.sol\":10363:10364  a */\n      dup5\n        /* \"contracts/Utils.sol\":10359:10360  c */\n      dup3\n        /* \"contracts/Utils.sol\":10359:10364  c / a */\n      tag_292\n      swap2\n      swap1\n      tag_293\n      jump\t// in\n    tag_292:\n        /* \"contracts/Utils.sol\":10359:10369  c / a == b */\n      eq\n        /* \"contracts/Utils.sol\":10351:10407  require(c / a == b, \"SafeMath: multiplication overflow\") */\n      tag_294\n      jumpi\n      mload(0x40)\n      0x08c379a000000000000000000000000000000000000000000000000000000000\n      dup2\n      mstore\n      0x04\n      add\n      tag_295\n      swap1\n      tag_296\n      jump\t// in\n    tag_295:\n      mload(0x40)\n      dup1\n      swap2\n      sub\n      swap1\n      revert\n    tag_294:\n        /* \"contracts/Utils.sol\":10427:10428  c */\n      dup1\n        /* \"contracts/Utils.sol\":10420:10428  return c */\n      swap2\n      pop\n      pop\n        /* \"contracts/Utils.sol\":9965:10436  function mul(uint256 a, uint256 b) internal pure returns (uint256) {\r... */\n    tag_289:\n      swap3\n      swap2\n      pop\n      pop\n      jump\t// out\n        /* \"contracts/Utils.sol\":8593:8774  function add(uint256 a, uint256 b) internal pure returns (uint256) {\r... */\n    tag_180:\n        /* \"contracts/Utils.sol\":8651:8658  uint256 */\n      0x00\n        /* \"contracts/Utils.sol\":8671:8680  uint256 c */\n      dup1\n        /* \"contracts/Utils.sol\":8687:8688  b */\n      dup3\n        /* \"contracts/Utils.sol\":8683:8684  a */\n      dup5\n        /* \"contracts/Utils.sol\":8683:8688  a + b */\n      tag_298\n      swap2\n      swap1\n      tag_299\n      jump\t// in\n    tag_298:\n        /* \"contracts/Utils.sol\":8671:8688  uint256 c = a + b */\n      swap1\n      pop\n        /* \"contracts/Utils.sol\":8712:8713  a */\n      dup4\n        /* \"contracts/Utils.sol\":8707:8708  c */\n      dup2\n        /* \"contracts/Utils.sol\":8707:8713  c >= a */\n      lt\n      iszero\n        /* \"contracts/Utils.sol\":8699:8745  require(c >= a, \"SafeMath: addition overflow\") */\n      tag_300\n      jumpi\n      mload(0x40)\n      0x08c379a000000000000000000000000000000000000000000000000000000000\n      dup2\n      mstore\n      0x04\n      add\n      tag_301\n      swap1\n      tag_302\n      jump\t// in\n    tag_301:\n      mload(0x40)\n      dup1\n      swap2\n      sub\n      swap1\n      revert\n    tag_300:\n        /* \"contracts/Utils.sol\":8765:8766  c */\n      dup1\n        /* \"contracts/Utils.sol\":8758:8766  return c */\n      swap2\n      pop\n      pop\n        /* \"contracts/Utils.sol\":8593:8774  function add(uint256 a, uint256 b) internal pure returns (uint256) {\r... */\n      swap3\n      swap2\n      pop\n      pop\n      jump\t// out\n        /* \"contracts/Utils.sol\":10904:11036  function div(uint256 a, uint256 b) internal pure returns (uint256) {\r... */\n    tag_181:\n        /* \"contracts/Utils.sol\":10962:10969  uint256 */\n      0x00\n        /* \"contracts/Utils.sol\":10989:11028  div(a, b, \"SafeMath: division by zero\") */\n      tag_304\n        /* \"contracts/Utils.sol\":10993:10994  a */\n      dup4\n        /* \"contracts/Utils.sol\":10996:10997  b */\n      dup4\n        /* \"contracts/Utils.sol\":10989:11028  div(a, b, \"SafeMath: division by zero\") */\n      mload(0x40)\n      dup1\n      0x40\n      add\n      0x40\n      mstore\n      dup1\n      0x1a\n      dup2\n      mstore\n      0x20\n      add\n      0x536166654d6174683a206469766973696f6e206279207a65726f000000000000\n      dup2\n      mstore\n      pop\n        /* \"contracts/Utils.sol\":10989:10992  div */\n      tag_305\n        /* \"contracts/Utils.sol\":10989:11028  div(a, b, \"SafeMath: division by zero\") */\n      jump\t// in\n    tag_304:\n        /* \"contracts/Utils.sol\":10982:11028  return div(a, b, \"SafeMath: division by zero\") */\n      swap1\n      pop\n        /* \"contracts/Utils.sol\":10904:11036  function div(uint256 a, uint256 b) internal pure returns (uint256) {\r... */\n      swap3\n      swap2\n      pop\n      pop\n      jump\t// out\n        /* \"contracts/Utils.sol\":13223:13321  function _msgSender() internal view virtual returns (address) {\r... */\n    tag_212:\n        /* \"contracts/Utils.sol\":13276:13283  address */\n      0x00\n        /* \"contracts/Utils.sol\":13303:13313  msg.sender */\n      caller\n        /* \"contracts/Utils.sol\":13296:13313  return msg.sender */\n      swap1\n      pop\n        /* \"contracts/Utils.sol\":13223:13321  function _msgSender() internal view virtual returns (address) {\r... */\n      swap1\n      jump\t// out\n        /* \"contracts/Utils.sol\":15119:15310  function _transferOwnership(address newOwner) internal virtual {\r... */\n    tag_219:\n        /* \"contracts/Utils.sol\":15193:15209  address oldOwner */\n      0x00\n        /* \"contracts/Utils.sol\":15212:15218  _owner */\n      dup1\n      0x00\n      swap1\n      sload\n      swap1\n      0x0100\n      exp\n      swap1\n      div\n      0xffffffffffffffffffffffffffffffffffffffff\n      and\n        /* \"contracts/Utils.sol\":15193:15218  address oldOwner = _owner */\n      swap1\n      pop\n        /* \"contracts/Utils.sol\":15238:15246  newOwner */\n      dup2\n        /* \"contracts/Utils.sol\":15229:15235  _owner */\n      0x00\n      dup1\n        /* \"contracts/Utils.sol\":15229:15246  _owner = newOwner */\n      0x0100\n      exp\n      dup2\n      sload\n      dup2\n      0xffffffffffffffffffffffffffffffffffffffff\n      mul\n      not\n      and\n      swap1\n      dup4\n      0xffffffffffffffffffffffffffffffffffffffff\n      and\n      mul\n      or\n      swap1\n      sstore\n      pop\n        /* \"contracts/Utils.sol\":15293:15301  newOwner */\n      dup2\n        /* \"contracts/Utils.sol\":15262:15302  OwnershipTransferred(oldOwner, newOwner) */\n      0xffffffffffffffffffffffffffffffffffffffff\n      and\n        /* \"contracts/Utils.sol\":15283:15291  oldOwner */\n      dup2\n        /* \"contracts/Utils.sol\":15262:15302  OwnershipTransferred(oldOwner, newOwner) */\n      0xffffffffffffffffffffffffffffffffffffffff\n      and\n      0x8be0079c531659141344cd1fd0a4f28419497f9722a3daafe3b4186f6b6457e0\n      mload(0x40)\n      mload(0x40)\n      dup1\n      swap2\n      sub\n      swap1\n      log3\n        /* \"contracts/Utils.sol\":15182:15310  {\r... */\n      pop\n        /* \"contracts/Utils.sol\":15119:15310  function _transferOwnership(address newOwner) internal virtual {\r... */\n      pop\n      jump\t// out\n        /* \"contracts/Utils.sol\":11566:11911  function div(uint256 a, uint256 b, string memory errorMessage) internal pure returns (uint256) {\r... */\n    tag_305:\n        /* \"contracts/Utils.sol\":11652:11659  uint256 */\n      0x00\n        /* \"contracts/Utils.sol\":11751:11752  0 */\n      dup1\n        /* \"contracts/Utils.sol\":11747:11748  b */\n      dup4\n        /* \"contracts/Utils.sol\":11747:11752  b > 0 */\n      gt\n        /* \"contracts/Utils.sol\":11754:11766  errorMessage */\n      dup3\n        /* \"contracts/Utils.sol\":11739:11767  require(b > 0, errorMessage) */\n      swap1\n      tag_309\n      jumpi\n      mload(0x40)\n      0x08c379a000000000000000000000000000000000000000000000000000000000\n      dup2\n      mstore\n      0x04\n      add\n      tag_310\n      swap2\n      swap1\n      tag_311\n      jump\t// in\n    tag_310:\n      mload(0x40)\n      dup1\n      swap2\n      sub\n      swap1\n      revert\n    tag_309:\n      pop\n        /* \"contracts/Utils.sol\":11778:11787  uint256 c */\n      0x00\n        /* \"contracts/Utils.sol\":11794:11795  b */\n      dup4\n        /* \"contracts/Utils.sol\":11790:11791  a */\n      dup6\n        /* \"contracts/Utils.sol\":11790:11795  a / b */\n      tag_312\n      swap2\n      swap1\n      tag_293\n      jump\t// in\n    tag_312:\n        /* \"contracts/Utils.sol\":11778:11795  uint256 c = a / b */\n      swap1\n      pop\n        /* \"contracts/Utils.sol\":11902:11903  c */\n      dup1\n        /* \"contracts/Utils.sol\":11895:11903  return c */\n      swap2\n      pop\n      pop\n        /* \"contracts/Utils.sol\":11566:11911  function div(uint256 a, uint256 b, string memory errorMessage) internal pure returns (uint256) {\r... */\n      swap4\n      swap3\n      pop\n      pop\n      pop\n      jump\t// out\n        /* \"#utility.yul\":24:768   */\n    tag_314:\n        /* \"#utility.yul\":131:136   */\n      0x00\n        /* \"#utility.yul\":156:237   */\n      tag_316\n        /* \"#utility.yul\":172:236   */\n      tag_317\n        /* \"#utility.yul\":229:235   */\n      dup5\n        /* \"#utility.yul\":172:236   */\n      tag_318\n      jump\t// in\n    tag_317:\n        /* \"#utility.yul\":156:237   */\n      tag_319\n      jump\t// in\n    tag_316:\n        /* \"#utility.yul\":147:237   */\n      swap1\n      pop\n        /* \"#utility.yul\":257:262   */\n      dup1\n        /* \"#utility.yul\":286:292   */\n      dup4\n        /* \"#utility.yul\":279:284   */\n      dup3\n        /* \"#utility.yul\":272:293   */\n      mstore\n        /* \"#utility.yul\":320:324   */\n      0x20\n        /* \"#utility.yul\":313:318   */\n      dup3\n        /* \"#utility.yul\":309:325   */\n      add\n        /* \"#utility.yul\":302:325   */\n      swap1\n      pop\n        /* \"#utility.yul\":346:352   */\n      dup3\n        /* \"#utility.yul\":396:399   */\n      dup6\n        /* \"#utility.yul\":388:392   */\n      0x20\n        /* \"#utility.yul\":380:386   */\n      dup7\n        /* \"#utility.yul\":376:393   */\n      mul\n        /* \"#utility.yul\":371:374   */\n      dup3\n        /* \"#utility.yul\":367:394   */\n      add\n        /* \"#utility.yul\":364:400   */\n      gt\n        /* \"#utility.yul\":361:504   */\n      iszero\n      tag_320\n      jumpi\n        /* \"#utility.yul\":415:494   */\n      tag_321\n      tag_322\n      jump\t// in\n    tag_321:\n        /* \"#utility.yul\":361:504   */\n    tag_320:\n        /* \"#utility.yul\":528:529   */\n      0x00\n        /* \"#utility.yul\":513:762   */\n    tag_323:\n        /* \"#utility.yul\":538:544   */\n      dup6\n        /* \"#utility.yul\":535:536   */\n      dup2\n        /* \"#utility.yul\":532:545   */\n      lt\n        /* \"#utility.yul\":513:762   */\n      iszero\n      tag_325\n      jumpi\n        /* \"#utility.yul\":606:609   */\n      dup2\n        /* \"#utility.yul\":635:683   */\n      tag_326\n        /* \"#utility.yul\":679:682   */\n      dup9\n        /* \"#utility.yul\":667:677   */\n      dup3\n        /* \"#utility.yul\":635:683   */\n      tag_327\n      jump\t// in\n    tag_326:\n        /* \"#utility.yul\":630:633   */\n      dup5\n        /* \"#utility.yul\":623:684   */\n      mstore\n        /* \"#utility.yul\":713:717   */\n      0x20\n        /* \"#utility.yul\":708:711   */\n      dup5\n        /* \"#utility.yul\":704:718   */\n      add\n        /* \"#utility.yul\":697:718   */\n      swap4\n      pop\n        /* \"#utility.yul\":747:751   */\n      0x20\n        /* \"#utility.yul\":742:745   */\n      dup4\n        /* \"#utility.yul\":738:752   */\n      add\n        /* \"#utility.yul\":731:752   */\n      swap3\n      pop\n        /* \"#utility.yul\":573:762   */\n      pop\n        /* \"#utility.yul\":560:561   */\n      0x01\n        /* \"#utility.yul\":557:558   */\n      dup2\n        /* \"#utility.yul\":553:562   */\n      add\n        /* \"#utility.yul\":548:562   */\n      swap1\n      pop\n        /* \"#utility.yul\":513:762   */\n      jump(tag_323)\n    tag_325:\n        /* \"#utility.yul\":517:531   */\n      pop\n        /* \"#utility.yul\":137:768   */\n      pop\n      pop\n        /* \"#utility.yul\":24:768   */\n      swap4\n      swap3\n      pop\n      pop\n      pop\n      jump\t// out\n        /* \"#utility.yul\":774:913   */\n    tag_328:\n        /* \"#utility.yul\":820:825   */\n      0x00\n        /* \"#utility.yul\":858:864   */\n      dup2\n        /* \"#utility.yul\":845:865   */\n      calldataload\n        /* \"#utility.yul\":836:865   */\n      swap1\n      pop\n        /* \"#utility.yul\":874:907   */\n      tag_330\n        /* \"#utility.yul\":901:906   */\n      dup2\n        /* \"#utility.yul\":874:907   */\n      tag_331\n      jump\t// in\n    tag_330:\n        /* \"#utility.yul\":774:913   */\n      swap3\n      swap2\n      pop\n      pop\n      jump\t// out\n        /* \"#utility.yul\":919:1062   */\n    tag_332:\n        /* \"#utility.yul\":976:981   */\n      0x00\n        /* \"#utility.yul\":1007:1013   */\n      dup2\n        /* \"#utility.yul\":1001:1014   */\n      mload\n        /* \"#utility.yul\":992:1014   */\n      swap1\n      pop\n        /* \"#utility.yul\":1023:1056   */\n      tag_334\n        /* \"#utility.yul\":1050:1055   */\n      dup2\n        /* \"#utility.yul\":1023:1056   */\n      tag_331\n      jump\t// in\n    tag_334:\n        /* \"#utility.yul\":919:1062   */\n      swap3\n      swap2\n      pop\n      pop\n      jump\t// out\n        /* \"#utility.yul\":1085:1470   */\n    tag_335:\n        /* \"#utility.yul\":1167:1172   */\n      0x00\n        /* \"#utility.yul\":1216:1219   */\n      dup3\n        /* \"#utility.yul\":1209:1213   */\n      0x1f\n        /* \"#utility.yul\":1201:1207   */\n      dup4\n        /* \"#utility.yul\":1197:1214   */\n      add\n        /* \"#utility.yul\":1193:1220   */\n      slt\n        /* \"#utility.yul\":1183:1305   */\n      tag_337\n      jumpi\n        /* \"#utility.yul\":1224:1303   */\n      tag_338\n      tag_339\n      jump\t// in\n    tag_338:\n        /* \"#utility.yul\":1183:1305   */\n    tag_337:\n        /* \"#utility.yul\":1334:1340   */\n      dup2\n        /* \"#utility.yul\":1328:1341   */\n      mload\n        /* \"#utility.yul\":1359:1464   */\n      tag_340\n        /* \"#utility.yul\":1460:1463   */\n      dup5\n        /* \"#utility.yul\":1452:1458   */\n      dup3\n        /* \"#utility.yul\":1445:1449   */\n      0x20\n        /* \"#utility.yul\":1437:1443   */\n      dup7\n        /* \"#utility.yul\":1433:1450   */\n      add\n        /* \"#utility.yul\":1359:1464   */\n      tag_314\n      jump\t// in\n    tag_340:\n        /* \"#utility.yul\":1350:1464   */\n      swap2\n      pop\n        /* \"#utility.yul\":1173:1470   */\n      pop\n        /* \"#utility.yul\":1085:1470   */\n      swap3\n      swap2\n      pop\n      pop\n      jump\t// out\n        /* \"#utility.yul\":1476:1647   */\n    tag_341:\n        /* \"#utility.yul\":1547:1552   */\n      0x00\n        /* \"#utility.yul\":1578:1584   */\n      dup2\n        /* \"#utility.yul\":1572:1585   */\n      mload\n        /* \"#utility.yul\":1563:1585   */\n      swap1\n      pop\n        /* \"#utility.yul\":1594:1641   */\n      tag_343\n        /* \"#utility.yul\":1635:1640   */\n      dup2\n        /* \"#utility.yul\":1594:1641   */\n      tag_344\n      jump\t// in\n    tag_343:\n        /* \"#utility.yul\":1476:1647   */\n      swap3\n      swap2\n      pop\n      pop\n      jump\t// out\n        /* \"#utility.yul\":1653:1834   */\n    tag_345:\n        /* \"#utility.yul\":1729:1734   */\n      0x00\n        /* \"#utility.yul\":1760:1766   */\n      dup2\n        /* \"#utility.yul\":1754:1767   */\n      mload\n        /* \"#utility.yul\":1745:1767   */\n      swap1\n      pop\n        /* \"#utility.yul\":1776:1828   */\n      tag_347\n        /* \"#utility.yul\":1822:1827   */\n      dup2\n        /* \"#utility.yul\":1776:1828   */\n      tag_348\n      jump\t// in\n    tag_347:\n        /* \"#utility.yul\":1653:1834   */\n      swap3\n      swap2\n      pop\n      pop\n      jump\t// out\n        /* \"#utility.yul\":1840:1999   */\n    tag_349:\n        /* \"#utility.yul\":1896:1901   */\n      0x00\n        /* \"#utility.yul\":1934:1940   */\n      dup2\n        /* \"#utility.yul\":1921:1941   */\n      calldataload\n        /* \"#utility.yul\":1912:1941   */\n      swap1\n      pop\n        /* \"#utility.yul\":1950:1993   */\n      tag_351\n        /* \"#utility.yul\":1987:1992   */\n      dup2\n        /* \"#utility.yul\":1950:1993   */\n      tag_352\n      jump\t// in\n    tag_351:\n        /* \"#utility.yul\":1840:1999   */\n      swap3\n      swap2\n      pop\n      pop\n      jump\t// out\n        /* \"#utility.yul\":2005:2188   */\n    tag_353:\n        /* \"#utility.yul\":2073:2078   */\n      0x00\n        /* \"#utility.yul\":2111:2117   */\n      dup2\n        /* \"#utility.yul\":2098:2118   */\n      calldataload\n        /* \"#utility.yul\":2089:2118   */\n      swap1\n      pop\n        /* \"#utility.yul\":2127:2182   */\n      tag_355\n        /* \"#utility.yul\":2176:2181   */\n      dup2\n        /* \"#utility.yul\":2127:2182   */\n      tag_356\n      jump\t// in\n    tag_355:\n        /* \"#utility.yul\":2005:2188   */\n      swap3\n      swap2\n      pop\n      pop\n      jump\t// out\n        /* \"#utility.yul\":2194:2361   */\n    tag_357:\n        /* \"#utility.yul\":2254:2259   */\n      0x00\n        /* \"#utility.yul\":2292:2298   */\n      dup2\n        /* \"#utility.yul\":2279:2299   */\n      calldataload\n        /* \"#utility.yul\":2270:2299   */\n      swap1\n      pop\n        /* \"#utility.yul\":2308:2355   */\n      tag_359\n        /* \"#utility.yul\":2349:2354   */\n      dup2\n        /* \"#utility.yul\":2308:2355   */\n      tag_360\n      jump\t// in\n    tag_359:\n        /* \"#utility.yul\":2194:2361   */\n      swap3\n      swap2\n      pop\n      pop\n      jump\t// out\n        /* \"#utility.yul\":2390:3781   */\n    tag_361:\n        /* \"#utility.yul\":2475:2480   */\n      0x00\n        /* \"#utility.yul\":2519:2523   */\n      0xc0\n        /* \"#utility.yul\":2507:2516   */\n      dup3\n        /* \"#utility.yul\":2502:2505   */\n      dup5\n        /* \"#utility.yul\":2498:2517   */\n      sub\n        /* \"#utility.yul\":2494:2524   */\n      slt\n        /* \"#utility.yul\":2491:2608   */\n      iszero\n      tag_363\n      jumpi\n        /* \"#utility.yul\":2527:2606   */\n      tag_364\n      tag_365\n      jump\t// in\n    tag_364:\n        /* \"#utility.yul\":2491:2608   */\n    tag_363:\n        /* \"#utility.yul\":2626:2647   */\n      tag_366\n        /* \"#utility.yul\":2642:2646   */\n      0xc0\n        /* \"#utility.yul\":2626:2647   */\n      tag_319\n      jump\t// in\n    tag_366:\n        /* \"#utility.yul\":2617:2647   */\n      swap1\n      pop\n        /* \"#utility.yul\":2709:2710   */\n      0x00\n        /* \"#utility.yul\":2749:2823   */\n      tag_367\n        /* \"#utility.yul\":2819:2822   */\n      dup5\n        /* \"#utility.yul\":2810:2816   */\n      dup3\n        /* \"#utility.yul\":2799:2808   */\n      dup6\n        /* \"#utility.yul\":2795:2817   */\n      add\n        /* \"#utility.yul\":2749:2823   */\n      tag_341\n      jump\t// in\n    tag_367:\n        /* \"#utility.yul\":2742:2746   */\n      0x00\n        /* \"#utility.yul\":2735:2740   */\n      dup4\n        /* \"#utility.yul\":2731:2747   */\n      add\n        /* \"#utility.yul\":2724:2824   */\n      mstore\n        /* \"#utility.yul\":2657:2835   */\n      pop\n        /* \"#utility.yul\":2900:2902   */\n      0x20\n        /* \"#utility.yul\":2941:3001   */\n      tag_368\n        /* \"#utility.yul\":2997:3000   */\n      dup5\n        /* \"#utility.yul\":2988:2994   */\n      dup3\n        /* \"#utility.yul\":2977:2986   */\n      dup6\n        /* \"#utility.yul\":2973:2995   */\n      add\n        /* \"#utility.yul\":2941:3001   */\n      tag_327\n      jump\t// in\n    tag_368:\n        /* \"#utility.yul\":2934:2938   */\n      0x20\n        /* \"#utility.yul\":2927:2932   */\n      dup4\n        /* \"#utility.yul\":2923:2939   */\n      add\n        /* \"#utility.yul\":2916:3002   */\n      mstore\n        /* \"#utility.yul\":2845:3013   */\n      pop\n        /* \"#utility.yul\":3083:3085   */\n      0x40\n        /* \"#utility.yul\":3124:3184   */\n      tag_369\n        /* \"#utility.yul\":3180:3183   */\n      dup5\n        /* \"#utility.yul\":3171:3177   */\n      dup3\n        /* \"#utility.yul\":3160:3169   */\n      dup6\n        /* \"#utility.yul\":3156:3178   */\n      add\n        /* \"#utility.yul\":3124:3184   */\n      tag_327\n      jump\t// in\n    tag_369:\n        /* \"#utility.yul\":3117:3121   */\n      0x40\n        /* \"#utility.yul\":3110:3115   */\n      dup4\n        /* \"#utility.yul\":3106:3122   */\n      add\n        /* \"#utility.yul\":3099:3185   */\n      mstore\n        /* \"#utility.yul\":3023:3196   */\n      pop\n        /* \"#utility.yul\":3265:3267   */\n      0x60\n        /* \"#utility.yul\":3306:3366   */\n      tag_370\n        /* \"#utility.yul\":3362:3365   */\n      dup5\n        /* \"#utility.yul\":3353:3359   */\n      dup3\n        /* \"#utility.yul\":3342:3351   */\n      dup6\n        /* \"#utility.yul\":3338:3360   */\n      add\n        /* \"#utility.yul\":3306:3366   */\n      tag_327\n      jump\t// in\n    tag_370:\n        /* \"#utility.yul\":3299:3303   */\n      0x60\n        /* \"#utility.yul\":3292:3297   */\n      dup4\n        /* \"#utility.yul\":3288:3304   */\n      add\n        /* \"#utility.yul\":3281:3367   */\n      mstore\n        /* \"#utility.yul\":3206:3378   */\n      pop\n        /* \"#utility.yul\":3447:3450   */\n      0x80\n        /* \"#utility.yul\":3489:3568   */\n      tag_371\n        /* \"#utility.yul\":3564:3567   */\n      dup5\n        /* \"#utility.yul\":3555:3561   */\n      dup3\n        /* \"#utility.yul\":3544:3553   */\n      dup6\n        /* \"#utility.yul\":3540:3562   */\n      add\n        /* \"#utility.yul\":3489:3568   */\n      tag_345\n      jump\t// in\n    tag_371:\n        /* \"#utility.yul\":3482:3486   */\n      0x80\n        /* \"#utility.yul\":3475:3480   */\n      dup4\n        /* \"#utility.yul\":3471:3487   */\n      add\n        /* \"#utility.yul\":3464:3569   */\n      mstore\n        /* \"#utility.yul\":3388:3580   */\n      pop\n        /* \"#utility.yul\":3646:3649   */\n      0xa0\n        /* \"#utility.yul\":3688:3762   */\n      tag_372\n        /* \"#utility.yul\":3758:3761   */\n      dup5\n        /* \"#utility.yul\":3749:3755   */\n      dup3\n        /* \"#utility.yul\":3738:3747   */\n      dup6\n        /* \"#utility.yul\":3734:3756   */\n      add\n        /* \"#utility.yul\":3688:3762   */\n      tag_341\n      jump\t// in\n    tag_372:\n        /* \"#utility.yul\":3681:3685   */\n      0xa0\n        /* \"#utility.yul\":3674:3679   */\n      dup4\n        /* \"#utility.yul\":3670:3686   */\n      add\n        /* \"#utility.yul\":3663:3763   */\n      mstore\n        /* \"#utility.yul\":3590:3774   */\n      pop\n        /* \"#utility.yul\":2390:3781   */\n      swap3\n      swap2\n      pop\n      pop\n      jump\t// out\n        /* \"#utility.yul\":3787:3926   */\n    tag_373:\n        /* \"#utility.yul\":3833:3838   */\n      0x00\n        /* \"#utility.yul\":3871:3877   */\n      dup2\n        /* \"#utility.yul\":3858:3878   */\n      calldataload\n        /* \"#utility.yul\":3849:3878   */\n      swap1\n      pop\n        /* \"#utility.yul\":3887:3920   */\n      tag_375\n        /* \"#utility.yul\":3914:3919   */\n      dup2\n        /* \"#utility.yul\":3887:3920   */\n      tag_376\n      jump\t// in\n    tag_375:\n        /* \"#utility.yul\":3787:3926   */\n      swap3\n      swap2\n      pop\n      pop\n      jump\t// out\n        /* \"#utility.yul\":3932:4075   */\n    tag_327:\n        /* \"#utility.yul\":3989:3994   */\n      0x00\n        /* \"#utility.yul\":4020:4026   */\n      dup2\n        /* \"#utility.yul\":4014:4027   */\n      mload\n        /* \"#utility.yul\":4005:4027   */\n      swap1\n      pop\n        /* \"#utility.yul\":4036:4069   */\n      tag_378\n        /* \"#utility.yul\":4063:4068   */\n      dup2\n        /* \"#utility.yul\":4036:4069   */\n      tag_376\n      jump\t// in\n    tag_378:\n        /* \"#utility.yul\":3932:4075   */\n      swap3\n      swap2\n      pop\n      pop\n      jump\t// out\n        /* \"#utility.yul\":4081:4410   */\n    tag_22:\n        /* \"#utility.yul\":4140:4146   */\n      0x00\n        /* \"#utility.yul\":4189:4191   */\n      0x20\n        /* \"#utility.yul\":4177:4186   */\n      dup3\n        /* \"#utility.yul\":4168:4175   */\n      dup5\n        /* \"#utility.yul\":4164:4187   */\n      sub\n        /* \"#utility.yul\":4160:4192   */\n      slt\n        /* \"#utility.yul\":4157:4276   */\n      iszero\n      tag_380\n      jumpi\n        /* \"#utility.yul\":4195:4274   */\n      tag_381\n      tag_382\n      jump\t// in\n    tag_381:\n        /* \"#utility.yul\":4157:4276   */\n    tag_380:\n        /* \"#utility.yul\":4315:4316   */\n      0x00\n        /* \"#utility.yul\":4340:4393   */\n      tag_383\n        /* \"#utility.yul\":4385:4392   */\n      dup5\n        /* \"#utility.yul\":4376:4382   */\n      dup3\n        /* \"#utility.yul\":4365:4374   */\n      dup6\n        /* \"#utility.yul\":4361:4383   */\n      add\n        /* \"#utility.yul\":4340:4393   */\n      tag_328\n      jump\t// in\n    tag_383:\n        /* \"#utility.yul\":4330:4393   */\n      swap2\n      pop\n        /* \"#utility.yul\":4286:4403   */\n      pop\n        /* \"#utility.yul\":4081:4410   */\n      swap3\n      swap2\n      pop\n      pop\n      jump\t// out\n        /* \"#utility.yul\":4416:4767   */\n    tag_250:\n        /* \"#utility.yul\":4486:4492   */\n      0x00\n        /* \"#utility.yul\":4535:4537   */\n      0x20\n        /* \"#utility.yul\":4523:4532   */\n      dup3\n        /* \"#utility.yul\":4514:4521   */\n      dup5\n        /* \"#utility.yul\":4510:4533   */\n      sub\n        /* \"#utility.yul\":4506:4538   */\n      slt\n        /* \"#utility.yul\":4503:4622   */\n      iszero\n      tag_385\n      jumpi\n        /* \"#utility.yul\":4541:4620   */\n      tag_386\n      tag_382\n      jump\t// in\n    tag_386:\n        /* \"#utility.yul\":4503:4622   */\n    tag_385:\n        /* \"#utility.yul\":4661:4662   */\n      0x00\n        /* \"#utility.yul\":4686:4750   */\n      tag_387\n        /* \"#utility.yul\":4742:4749   */\n      dup5\n        /* \"#utility.yul\":4733:4739   */\n      dup3\n        /* \"#utility.yul\":4722:4731   */\n      dup6\n        /* \"#utility.yul\":4718:4740   */\n      add\n        /* \"#utility.yul\":4686:4750   */\n      tag_332\n      jump\t// in\n    tag_387:\n        /* \"#utility.yul\":4676:4750   */\n      swap2\n      pop\n        /* \"#utility.yul\":4632:4760   */\n      pop\n        /* \"#utility.yul\":4416:4767   */\n      swap3\n      swap2\n      pop\n      pop\n      jump\t// out\n        /* \"#utility.yul\":4773:5327   */\n    tag_95:\n        /* \"#utility.yul\":4868:4874   */\n      0x00\n        /* \"#utility.yul\":4917:4919   */\n      0x20\n        /* \"#utility.yul\":4905:4914   */\n      dup3\n        /* \"#utility.yul\":4896:4903   */\n      dup5\n        /* \"#utility.yul\":4892:4915   */\n      sub\n        /* \"#utility.yul\":4888:4920   */\n      slt\n        /* \"#utility.yul\":4885:5004   */\n      iszero\n      tag_389\n      jumpi\n        /* \"#utility.yul\":4923:5002   */\n      tag_390\n      tag_382\n      jump\t// in\n    tag_390:\n        /* \"#utility.yul\":4885:5004   */\n    tag_389:\n        /* \"#utility.yul\":5064:5065   */\n      0x00\n        /* \"#utility.yul\":5053:5062   */\n      dup3\n        /* \"#utility.yul\":5049:5066   */\n      add\n        /* \"#utility.yul\":5043:5067   */\n      mload\n        /* \"#utility.yul\":5094:5112   */\n      0xffffffffffffffff\n        /* \"#utility.yul\":5086:5092   */\n      dup2\n        /* \"#utility.yul\":5083:5113   */\n      gt\n        /* \"#utility.yul\":5080:5197   */\n      iszero\n      tag_391\n      jumpi\n        /* \"#utility.yul\":5116:5195   */\n      tag_392\n      tag_393\n      jump\t// in\n    tag_392:\n        /* \"#utility.yul\":5080:5197   */\n    tag_391:\n        /* \"#utility.yul\":5221:5310   */\n      tag_394\n        /* \"#utility.yul\":5302:5309   */\n      dup5\n        /* \"#utility.yul\":5293:5299   */\n      dup3\n        /* \"#utility.yul\":5282:5291   */\n      dup6\n        /* \"#utility.yul\":5278:5300   */\n      add\n        /* \"#utility.yul\":5221:5310   */\n      tag_335\n      jump\t// in\n    tag_394:\n        /* \"#utility.yul\":5211:5310   */\n      swap2\n      pop\n        /* \"#utility.yul\":5014:5320   */\n      pop\n        /* \"#utility.yul\":4773:5327   */\n      swap3\n      swap2\n      pop\n      pop\n      jump\t// out\n        /* \"#utility.yul\":5333:5712   */\n    tag_103:\n        /* \"#utility.yul\":5417:5423   */\n      0x00\n        /* \"#utility.yul\":5466:5468   */\n      0x20\n        /* \"#utility.yul\":5454:5463   */\n      dup3\n        /* \"#utility.yul\":5445:5452   */\n      dup5\n        /* \"#utility.yul\":5441:5464   */\n      sub\n        /* \"#utility.yul\":5437:5469   */\n      slt\n        /* \"#utility.yul\":5434:5553   */\n      iszero\n      tag_396\n      jumpi\n        /* \"#utility.yul\":5472:5551   */\n      tag_397\n      tag_382\n      jump\t// in\n    tag_397:\n        /* \"#utility.yul\":5434:5553   */\n    tag_396:\n        /* \"#utility.yul\":5592:5593   */\n      0x00\n        /* \"#utility.yul\":5617:5695   */\n      tag_398\n        /* \"#utility.yul\":5687:5694   */\n      dup5\n        /* \"#utility.yul\":5678:5684   */\n      dup3\n        /* \"#utility.yul\":5667:5676   */\n      dup6\n        /* \"#utility.yul\":5663:5685   */\n      add\n        /* \"#utility.yul\":5617:5695   */\n      tag_341\n      jump\t// in\n    tag_398:\n        /* \"#utility.yul\":5607:5695   */\n      swap2\n      pop\n        /* \"#utility.yul\":5563:5705   */\n      pop\n        /* \"#utility.yul\":5333:5712   */\n      swap3\n      swap2\n      pop\n      pop\n      jump\t// out\n        /* \"#utility.yul\":5718:6067   */\n    tag_28:\n        /* \"#utility.yul\":5787:5793   */\n      0x00\n        /* \"#utility.yul\":5836:5838   */\n      0x20\n        /* \"#utility.yul\":5824:5833   */\n      dup3\n        /* \"#utility.yul\":5815:5822   */\n      dup5\n        /* \"#utility.yul\":5811:5834   */\n      sub\n        /* \"#utility.yul\":5807:5839   */\n      slt\n        /* \"#utility.yul\":5804:5923   */\n      iszero\n      tag_400\n      jumpi\n        /* \"#utility.yul\":5842:5921   */\n      tag_401\n      tag_382\n      jump\t// in\n    tag_401:\n        /* \"#utility.yul\":5804:5923   */\n    tag_400:\n        /* \"#utility.yul\":5962:5963   */\n      0x00\n        /* \"#utility.yul\":5987:6050   */\n      tag_402\n        /* \"#utility.yul\":6042:6049   */\n      dup5\n        /* \"#utility.yul\":6033:6039   */\n      dup3\n        /* \"#utility.yul\":6022:6031   */\n      dup6\n        /* \"#utility.yul\":6018:6040   */\n      add\n        /* \"#utility.yul\":5987:6050   */\n      tag_349\n      jump\t// in\n    tag_402:\n        /* \"#utility.yul\":5977:6050   */\n      swap2\n      pop\n        /* \"#utility.yul\":5933:6060   */\n      pop\n        /* \"#utility.yul\":5718:6067   */\n      swap3\n      swap2\n      pop\n      pop\n      jump\t// out\n        /* \"#utility.yul\":6073:6446   */\n    tag_67:\n        /* \"#utility.yul\":6154:6160   */\n      0x00\n        /* \"#utility.yul\":6203:6205   */\n      0x20\n        /* \"#utility.yul\":6191:6200   */\n      dup3\n        /* \"#utility.yul\":6182:6189   */\n      dup5\n        /* \"#utility.yul\":6178:6201   */\n      sub\n        /* \"#utility.yul\":6174:6206   */\n      slt\n        /* \"#utility.yul\":6171:6290   */\n      iszero\n      tag_404\n      jumpi\n        /* \"#utility.yul\":6209:6288   */\n      tag_405\n      tag_382\n      jump\t// in\n    tag_405:\n        /* \"#utility.yul\":6171:6290   */\n    tag_404:\n        /* \"#utility.yul\":6329:6330   */\n      0x00\n        /* \"#utility.yul\":6354:6429   */\n      tag_406\n        /* \"#utility.yul\":6421:6428   */\n      dup5\n        /* \"#utility.yul\":6412:6418   */\n      dup3\n        /* \"#utility.yul\":6401:6410   */\n      dup6\n        /* \"#utility.yul\":6397:6419   */\n      add\n        /* \"#utility.yul\":6354:6429   */\n      tag_353\n      jump\t// in\n    tag_406:\n        /* \"#utility.yul\":6344:6429   */\n      swap2\n      pop\n        /* \"#utility.yul\":6300:6439   */\n      pop\n        /* \"#utility.yul\":6073:6446   */\n      swap3\n      swap2\n      pop\n      pop\n      jump\t// out\n        /* \"#utility.yul\":6452:6809   */\n    tag_58:\n        /* \"#utility.yul\":6525:6531   */\n      0x00\n        /* \"#utility.yul\":6574:6576   */\n      0x20\n        /* \"#utility.yul\":6562:6571   */\n      dup3\n        /* \"#utility.yul\":6553:6560   */\n      dup5\n        /* \"#utility.yul\":6549:6572   */\n      sub\n        /* \"#utility.yul\":6545:6577   */\n      slt\n        /* \"#utility.yul\":6542:6661   */\n      iszero\n      tag_408\n      jumpi\n        /* \"#utility.yul\":6580:6659   */\n      tag_409\n      tag_382\n      jump\t// in\n    tag_409:\n        /* \"#utility.yul\":6542:6661   */\n    tag_408:\n        /* \"#utility.yul\":6700:6701   */\n      0x00\n        /* \"#utility.yul\":6725:6792   */\n      tag_410\n        /* \"#utility.yul\":6784:6791   */\n      dup5\n        /* \"#utility.yul\":6775:6781   */\n      dup3\n        /* \"#utility.yul\":6764:6773   */\n      dup6\n        /* \"#utility.yul\":6760:6782   */\n      add\n        /* \"#utility.yul\":6725:6792   */\n      tag_357\n      jump\t// in\n    tag_410:\n        /* \"#utility.yul\":6715:6792   */\n      swap2\n      pop\n        /* \"#utility.yul\":6671:6802   */\n      pop\n        /* \"#utility.yul\":6452:6809   */\n      swap3\n      swap2\n      pop\n      pop\n      jump\t// out\n        /* \"#utility.yul\":6815:7217   */\n    tag_203:\n        /* \"#utility.yul\":6910:6916   */\n      0x00\n        /* \"#utility.yul\":6959:6962   */\n      0xc0\n        /* \"#utility.yul\":6947:6956   */\n      dup3\n        /* \"#utility.yul\":6938:6945   */\n      dup5\n        /* \"#utility.yul\":6934:6957   */\n      sub\n        /* \"#utility.yul\":6930:6963   */\n      slt\n        /* \"#utility.yul\":6927:7047   */\n      iszero\n      tag_412\n      jumpi\n        /* \"#utility.yul\":6966:7045   */\n      tag_413\n      tag_382\n      jump\t// in\n    tag_413:\n        /* \"#utility.yul\":6927:7047   */\n    tag_412:\n        /* \"#utility.yul\":7086:7087   */\n      0x00\n        /* \"#utility.yul\":7111:7200   */\n      tag_414\n        /* \"#utility.yul\":7192:7199   */\n      dup5\n        /* \"#utility.yul\":7183:7189   */\n      dup3\n        /* \"#utility.yul\":7172:7181   */\n      dup6\n        /* \"#utility.yul\":7168:7190   */\n      add\n        /* \"#utility.yul\":7111:7200   */\n      tag_361\n      jump\t// in\n    tag_414:\n        /* \"#utility.yul\":7101:7200   */\n      swap2\n      pop\n        /* \"#utility.yul\":7057:7210   */\n      pop\n        /* \"#utility.yul\":6815:7217   */\n      swap3\n      swap2\n      pop\n      pop\n      jump\t// out\n        /* \"#utility.yul\":7223:7574   */\n    tag_120:\n        /* \"#utility.yul\":7293:7299   */\n      0x00\n        /* \"#utility.yul\":7342:7344   */\n      0x20\n        /* \"#utility.yul\":7330:7339   */\n      dup3\n        /* \"#utility.yul\":7321:7328   */\n      dup5\n        /* \"#utility.yul\":7317:7340   */\n      sub\n        /* \"#utility.yul\":7313:7345   */\n      slt\n        /* \"#utility.yul\":7310:7429   */\n      iszero\n      tag_416\n      jumpi\n        /* \"#utility.yul\":7348:7427   */\n      tag_417\n      tag_382\n      jump\t// in\n    tag_417:\n        /* \"#utility.yul\":7310:7429   */\n    tag_416:\n        /* \"#utility.yul\":7468:7469   */\n      0x00\n        /* \"#utility.yul\":7493:7557   */\n      tag_418\n        /* \"#utility.yul\":7549:7556   */\n      dup5\n        /* \"#utility.yul\":7540:7546   */\n      dup3\n        /* \"#utility.yul\":7529:7538   */\n      dup6\n        /* \"#utility.yul\":7525:7547   */\n      add\n        /* \"#utility.yul\":7493:7557   */\n      tag_327\n      jump\t// in\n    tag_418:\n        /* \"#utility.yul\":7483:7557   */\n      swap2\n      pop\n        /* \"#utility.yul\":7439:7567   */\n      pop\n        /* \"#utility.yul\":7223:7574   */\n      swap3\n      swap2\n      pop\n      pop\n      jump\t// out\n        /* \"#utility.yul\":7580:8409   */\n    tag_62:\n        /* \"#utility.yul\":7698:7704   */\n      0x00\n        /* \"#utility.yul\":7706:7712   */\n      dup1\n        /* \"#utility.yul\":7714:7720   */\n      0x00\n        /* \"#utility.yul\":7722:7728   */\n      dup1\n        /* \"#utility.yul\":7771:7774   */\n      0x80\n        /* \"#utility.yul\":7759:7768   */\n      dup6\n        /* \"#utility.yul\":7750:7757   */\n      dup8\n        /* \"#utility.yul\":7746:7769   */\n      sub\n        /* \"#utility.yul\":7742:7775   */\n      slt\n        /* \"#utility.yul\":7739:7859   */\n      iszero\n      tag_420\n      jumpi\n        /* \"#utility.yul\":7778:7857   */\n      tag_421\n      tag_382\n      jump\t// in\n    tag_421:\n        /* \"#utility.yul\":7739:7859   */\n    tag_420:\n        /* \"#utility.yul\":7898:7899   */\n      0x00\n        /* \"#utility.yul\":7923:7976   */\n      tag_422\n        /* \"#utility.yul\":7968:7975   */\n      dup8\n        /* \"#utility.yul\":7959:7965   */\n      dup3\n        /* \"#utility.yul\":7948:7957   */\n      dup9\n        /* \"#utility.yul\":7944:7966   */\n      add\n        /* \"#utility.yul\":7923:7976   */\n      tag_373\n      jump\t// in\n    tag_422:\n        /* \"#utility.yul\":7913:7976   */\n      swap5\n      pop\n        /* \"#utility.yul\":7869:7986   */\n      pop\n        /* \"#utility.yul\":8025:8027   */\n      0x20\n        /* \"#utility.yul\":8051:8114   */\n      tag_423\n        /* \"#utility.yul\":8106:8113   */\n      dup8\n        /* \"#utility.yul\":8097:8103   */\n      dup3\n        /* \"#utility.yul\":8086:8095   */\n      dup9\n        /* \"#utility.yul\":8082:8104   */\n      add\n        /* \"#utility.yul\":8051:8114   */\n      tag_349\n      jump\t// in\n    tag_423:\n        /* \"#utility.yul\":8041:8114   */\n      swap4\n      pop\n        /* \"#utility.yul\":7996:8124   */\n      pop\n        /* \"#utility.yul\":8163:8165   */\n      0x40\n        /* \"#utility.yul\":8189:8242   */\n      tag_424\n        /* \"#utility.yul\":8234:8241   */\n      dup8\n        /* \"#utility.yul\":8225:8231   */\n      dup3\n        /* \"#utility.yul\":8214:8223   */\n      dup9\n        /* \"#utility.yul\":8210:8232   */\n      add\n        /* \"#utility.yul\":8189:8242   */\n      tag_373\n      jump\t// in\n    tag_424:\n        /* \"#utility.yul\":8179:8242   */\n      swap3\n      pop\n        /* \"#utility.yul\":8134:8252   */\n      pop\n        /* \"#utility.yul\":8291:8293   */\n      0x60\n        /* \"#utility.yul\":8317:8392   */\n      tag_425\n        /* \"#utility.yul\":8384:8391   */\n      dup8\n        /* \"#utility.yul\":8375:8381   */\n      dup3\n        /* \"#utility.yul\":8364:8373   */\n      dup9\n        /* \"#utility.yul\":8360:8382   */\n      add\n        /* \"#utility.yul\":8317:8392   */\n      tag_353\n      jump\t// in\n    tag_425:\n        /* \"#utility.yul\":8307:8392   */\n      swap2\n      pop\n        /* \"#utility.yul\":8262:8402   */\n      pop\n        /* \"#utility.yul\":7580:8409   */\n      swap3\n      swap6\n      swap2\n      swap5\n      pop\n      swap3\n      pop\n      jump\t// out\n        /* \"#utility.yul\":8415:8933   */\n    tag_45:\n        /* \"#utility.yul\":8505:8511   */\n      0x00\n        /* \"#utility.yul\":8513:8519   */\n      dup1\n        /* \"#utility.yul\":8562:8564   */\n      0x40\n        /* \"#utility.yul\":8550:8559   */\n      dup4\n        /* \"#utility.yul\":8541:8548   */\n      dup6\n        /* \"#utility.yul\":8537:8560   */\n      sub\n        /* \"#utility.yul\":8533:8565   */\n      slt\n        /* \"#utility.yul\":8530:8649   */\n      iszero\n      tag_427\n      jumpi\n        /* \"#utility.yul\":8568:8647   */\n      tag_428\n      tag_382\n      jump\t// in\n    tag_428:\n        /* \"#utility.yul\":8530:8649   */\n    tag_427:\n        /* \"#utility.yul\":8688:8689   */\n      0x00\n        /* \"#utility.yul\":8713:8766   */\n      tag_429\n        /* \"#utility.yul\":8758:8765   */\n      dup6\n        /* \"#utility.yul\":8749:8755   */\n      dup3\n        /* \"#utility.yul\":8738:8747   */\n      dup7\n        /* \"#utility.yul\":8734:8756   */\n      add\n        /* \"#utility.yul\":8713:8766   */\n      tag_373\n      jump\t// in\n    tag_429:\n        /* \"#utility.yul\":8703:8766   */\n      swap3\n      pop\n        /* \"#utility.yul\":8659:8776   */\n      pop\n        /* \"#utility.yul\":8815:8817   */\n      0x20\n        /* \"#utility.yul\":8841:8916   */\n      tag_430\n        /* \"#utility.yul\":8908:8915   */\n      dup6\n        /* \"#utility.yul\":8899:8905   */\n      dup3\n        /* \"#utility.yul\":8888:8897   */\n      dup7\n        /* \"#utility.yul\":8884:8906   */\n      add\n        /* \"#utility.yul\":8841:8916   */\n      tag_353\n      jump\t// in\n    tag_430:\n        /* \"#utility.yul\":8831:8916   */\n      swap2\n      pop\n        /* \"#utility.yul\":8786:8926   */\n      pop\n        /* \"#utility.yul\":8415:8933   */\n      swap3\n      pop\n      swap3\n      swap1\n      pop\n      jump\t// out\n        /* \"#utility.yul\":8939:9118   */\n    tag_431:\n        /* \"#utility.yul\":9008:9018   */\n      0x00\n        /* \"#utility.yul\":9029:9075   */\n      tag_433\n        /* \"#utility.yul\":9071:9074   */\n      dup4\n        /* \"#utility.yul\":9063:9069   */\n      dup4\n        /* \"#utility.yul\":9029:9075   */\n      tag_434\n      jump\t// in\n    tag_433:\n        /* \"#utility.yul\":9107:9111   */\n      0x20\n        /* \"#utility.yul\":9102:9105   */\n      dup4\n        /* \"#utility.yul\":9098:9112   */\n      add\n        /* \"#utility.yul\":9084:9112   */\n      swap1\n      pop\n        /* \"#utility.yul\":8939:9118   */\n      swap3\n      swap2\n      pop\n      pop\n      jump\t// out\n        /* \"#utility.yul\":9124:9232   */\n    tag_434:\n        /* \"#utility.yul\":9201:9225   */\n      tag_436\n        /* \"#utility.yul\":9219:9224   */\n      dup2\n        /* \"#utility.yul\":9201:9225   */\n      tag_437\n      jump\t// in\n    tag_436:\n        /* \"#utility.yul\":9196:9199   */\n      dup3\n        /* \"#utility.yul\":9189:9226   */\n      mstore\n        /* \"#utility.yul\":9124:9232   */\n      pop\n      pop\n      jump\t// out\n        /* \"#utility.yul\":9238:9356   */\n    tag_438:\n        /* \"#utility.yul\":9325:9349   */\n      tag_440\n        /* \"#utility.yul\":9343:9348   */\n      dup2\n        /* \"#utility.yul\":9325:9349   */\n      tag_437\n      jump\t// in\n    tag_440:\n        /* \"#utility.yul\":9320:9323   */\n      dup3\n        /* \"#utility.yul\":9313:9350   */\n      mstore\n        /* \"#utility.yul\":9238:9356   */\n      pop\n      pop\n      jump\t// out\n        /* \"#utility.yul\":9392:10124   */\n    tag_441:\n        /* \"#utility.yul\":9511:9514   */\n      0x00\n        /* \"#utility.yul\":9540:9594   */\n      tag_443\n        /* \"#utility.yul\":9588:9593   */\n      dup3\n        /* \"#utility.yul\":9540:9594   */\n      tag_444\n      jump\t// in\n    tag_443:\n        /* \"#utility.yul\":9610:9696   */\n      tag_445\n        /* \"#utility.yul\":9689:9695   */\n      dup2\n        /* \"#utility.yul\":9684:9687   */\n      dup6\n        /* \"#utility.yul\":9610:9696   */\n      tag_446\n      jump\t// in\n    tag_445:\n        /* \"#utility.yul\":9603:9696   */\n      swap4\n      pop\n        /* \"#utility.yul\":9720:9776   */\n      tag_447\n        /* \"#utility.yul\":9770:9775   */\n      dup4\n        /* \"#utility.yul\":9720:9776   */\n      tag_448\n      jump\t// in\n    tag_447:\n        /* \"#utility.yul\":9799:9806   */\n      dup1\n        /* \"#utility.yul\":9830:9831   */\n      0x00\n        /* \"#utility.yul\":9815:10099   */\n    tag_449:\n        /* \"#utility.yul\":9840:9846   */\n      dup4\n        /* \"#utility.yul\":9837:9838   */\n      dup2\n        /* \"#utility.yul\":9834:9847   */\n      lt\n        /* \"#utility.yul\":9815:10099   */\n      iszero\n      tag_451\n      jumpi\n        /* \"#utility.yul\":9916:9922   */\n      dup2\n        /* \"#utility.yul\":9910:9923   */\n      mload\n        /* \"#utility.yul\":9943:10006   */\n      tag_452\n        /* \"#utility.yul\":10002:10005   */\n      dup9\n        /* \"#utility.yul\":9987:10000   */\n      dup3\n        /* \"#utility.yul\":9943:10006   */\n      tag_431\n      jump\t// in\n    tag_452:\n        /* \"#utility.yul\":9936:10006   */\n      swap8\n      pop\n        /* \"#utility.yul\":10029:10089   */\n      tag_453\n        /* \"#utility.yul\":10082:10088   */\n      dup4\n        /* \"#utility.yul\":10029:10089   */\n      tag_454\n      jump\t// in\n    tag_453:\n        /* \"#utility.yul\":10019:10089   */\n      swap3\n      pop\n        /* \"#utility.yul\":9875:10099   */\n      pop\n        /* \"#utility.yul\":9862:9863   */\n      0x01\n        /* \"#utility.yul\":9859:9860   */\n      dup2\n        /* \"#utility.yul\":9855:9864   */\n      add\n        /* \"#utility.yul\":9850:9864   */\n      swap1\n      pop\n        /* \"#utility.yul\":9815:10099   */\n      jump(tag_449)\n    tag_451:\n        /* \"#utility.yul\":9819:9833   */\n      pop\n        /* \"#utility.yul\":10115:10118   */\n      dup6\n        /* \"#utility.yul\":10108:10118   */\n      swap4\n      pop\n        /* \"#utility.yul\":9516:10124   */\n      pop\n      pop\n      pop\n        /* \"#utility.yul\":9392:10124   */\n      swap3\n      swap2\n      pop\n      pop\n      jump\t// out\n        /* \"#utility.yul\":10130:10289   */\n    tag_455:\n        /* \"#utility.yul\":10231:10282   */\n      tag_457\n        /* \"#utility.yul\":10276:10281   */\n      dup2\n        /* \"#utility.yul\":10231:10282   */\n      tag_458\n      jump\t// in\n    tag_457:\n        /* \"#utility.yul\":10226:10229   */\n      dup3\n        /* \"#utility.yul\":10219:10283   */\n      mstore\n        /* \"#utility.yul\":10130:10289   */\n      pop\n      pop\n      jump\t// out\n        /* \"#utility.yul\":10295:10659   */\n    tag_459:\n        /* \"#utility.yul\":10383:10386   */\n      0x00\n        /* \"#utility.yul\":10411:10450   */\n      tag_461\n        /* \"#utility.yul\":10444:10449   */\n      dup3\n        /* \"#utility.yul\":10411:10450   */\n      tag_462\n      jump\t// in\n    tag_461:\n        /* \"#utility.yul\":10466:10537   */\n      tag_463\n        /* \"#utility.yul\":10530:10536   */\n      dup2\n        /* \"#utility.yul\":10525:10528   */\n      dup6\n        /* \"#utility.yul\":10466:10537   */\n      tag_464\n      jump\t// in\n    tag_463:\n        /* \"#utility.yul\":10459:10537   */\n      swap4\n      pop\n        /* \"#utility.yul\":10546:10598   */\n      tag_465\n        /* \"#utility.yul\":10591:10597   */\n      dup2\n        /* \"#utility.yul\":10586:10589   */\n      dup6\n        /* \"#utility.yul\":10579:10583   */\n      0x20\n        /* \"#utility.yul\":10572:10577   */\n      dup7\n        /* \"#utility.yul\":10568:10584   */\n      add\n        /* \"#utility.yul\":10546:10598   */\n      tag_466\n      jump\t// in\n    tag_465:\n        /* \"#utility.yul\":10623:10652   */\n      tag_467\n        /* \"#utility.yul\":10645:10651   */\n      dup2\n        /* \"#utility.yul\":10623:10652   */\n      tag_468\n      jump\t// in\n    tag_467:\n        /* \"#utility.yul\":10618:10621   */\n      dup5\n        /* \"#utility.yul\":10614:10653   */\n      add\n        /* \"#utility.yul\":10607:10653   */\n      swap2\n      pop\n        /* \"#utility.yul\":10387:10659   */\n      pop\n        /* \"#utility.yul\":10295:10659   */\n      swap3\n      swap2\n      pop\n      pop\n      jump\t// out\n        /* \"#utility.yul\":10665:11031   */\n    tag_469:\n        /* \"#utility.yul\":10807:10810   */\n      0x00\n        /* \"#utility.yul\":10828:10895   */\n      tag_471\n        /* \"#utility.yul\":10892:10894   */\n      0x26\n        /* \"#utility.yul\":10887:10890   */\n      dup4\n        /* \"#utility.yul\":10828:10895   */\n      tag_464\n      jump\t// in\n    tag_471:\n        /* \"#utility.yul\":10821:10895   */\n      swap2\n      pop\n        /* \"#utility.yul\":10904:10997   */\n      tag_472\n        /* \"#utility.yul\":10993:10996   */\n      dup3\n        /* \"#utility.yul\":10904:10997   */\n      tag_473\n      jump\t// in\n    tag_472:\n        /* \"#utility.yul\":11022:11024   */\n      0x40\n        /* \"#utility.yul\":11017:11020   */\n      dup3\n        /* \"#utility.yul\":11013:11025   */\n      add\n        /* \"#utility.yul\":11006:11025   */\n      swap1\n      pop\n        /* \"#utility.yul\":10665:11031   */\n      swap2\n      swap1\n      pop\n      jump\t// out\n        /* \"#utility.yul\":11037:11403   */\n    tag_474:\n        /* \"#utility.yul\":11179:11182   */\n      0x00\n        /* \"#utility.yul\":11200:11267   */\n      tag_476\n        /* \"#utility.yul\":11264:11266   */\n      0x1b\n        /* \"#utility.yul\":11259:11262   */\n      dup4\n        /* \"#utility.yul\":11200:11267   */\n      tag_464\n      jump\t// in\n    tag_476:\n        /* \"#utility.yul\":11193:11267   */\n      swap2\n      pop\n        /* \"#utility.yul\":11276:11369   */\n      tag_477\n        /* \"#utility.yul\":11365:11368   */\n      dup3\n        /* \"#utility.yul\":11276:11369   */\n      tag_478\n      jump\t// in\n    tag_477:\n        /* \"#utility.yul\":11394:11396   */\n      0x20\n        /* \"#utility.yul\":11389:11392   */\n      dup3\n        /* \"#utility.yul\":11385:11397   */\n      add\n        /* \"#utility.yul\":11378:11397   */\n      swap1\n      pop\n        /* \"#utility.yul\":11037:11403   */\n      swap2\n      swap1\n      pop\n      jump\t// out\n        /* \"#utility.yul\":11409:11775   */\n    tag_479:\n        /* \"#utility.yul\":11551:11554   */\n      0x00\n        /* \"#utility.yul\":11572:11639   */\n      tag_481\n        /* \"#utility.yul\":11636:11638   */\n      0x21\n        /* \"#utility.yul\":11631:11634   */\n      dup4\n        /* \"#utility.yul\":11572:11639   */\n      tag_464\n      jump\t// in\n    tag_481:\n        /* \"#utility.yul\":11565:11639   */\n      swap2\n      pop\n        /* \"#utility.yul\":11648:11741   */\n      tag_482\n        /* \"#utility.yul\":11737:11740   */\n      dup3\n        /* \"#utility.yul\":11648:11741   */\n      tag_483\n      jump\t// in\n    tag_482:\n        /* \"#utility.yul\":11766:11768   */\n      0x40\n        /* \"#utility.yul\":11761:11764   */\n      dup3\n        /* \"#utility.yul\":11757:11769   */\n      add\n        /* \"#utility.yul\":11750:11769   */\n      swap1\n      pop\n        /* \"#utility.yul\":11409:11775   */\n      swap2\n      swap1\n      pop\n      jump\t// out\n        /* \"#utility.yul\":11781:12147   */\n    tag_484:\n        /* \"#utility.yul\":11923:11926   */\n      0x00\n        /* \"#utility.yul\":11944:12011   */\n      tag_486\n        /* \"#utility.yul\":12008:12010   */\n      0x20\n        /* \"#utility.yul\":12003:12006   */\n      dup4\n        /* \"#utility.yul\":11944:12011   */\n      tag_464\n      jump\t// in\n    tag_486:\n        /* \"#utility.yul\":11937:12011   */\n      swap2\n      pop\n        /* \"#utility.yul\":12020:12113   */\n      tag_487\n        /* \"#utility.yul\":12109:12112   */\n      dup3\n        /* \"#utility.yul\":12020:12113   */\n      tag_488\n      jump\t// in\n    tag_487:\n        /* \"#utility.yul\":12138:12140   */\n      0x20\n        /* \"#utility.yul\":12133:12136   */\n      dup3\n        /* \"#utility.yul\":12129:12141   */\n      add\n        /* \"#utility.yul\":12122:12141   */\n      swap1\n      pop\n        /* \"#utility.yul\":11781:12147   */\n      swap2\n      swap1\n      pop\n      jump\t// out\n        /* \"#utility.yul\":12153:12271   */\n    tag_489:\n        /* \"#utility.yul\":12240:12264   */\n      tag_491\n        /* \"#utility.yul\":12258:12263   */\n      dup2\n        /* \"#utility.yul\":12240:12264   */\n      tag_492\n      jump\t// in\n    tag_491:\n        /* \"#utility.yul\":12235:12238   */\n      dup3\n        /* \"#utility.yul\":12228:12265   */\n      mstore\n        /* \"#utility.yul\":12153:12271   */\n      pop\n      pop\n      jump\t// out\n        /* \"#utility.yul\":12277:12499   */\n    tag_42:\n        /* \"#utility.yul\":12370:12374   */\n      0x00\n        /* \"#utility.yul\":12408:12410   */\n      0x20\n        /* \"#utility.yul\":12397:12406   */\n      dup3\n        /* \"#utility.yul\":12393:12411   */\n      add\n        /* \"#utility.yul\":12385:12411   */\n      swap1\n      pop\n        /* \"#utility.yul\":12421:12492   */\n      tag_494\n        /* \"#utility.yul\":12489:12490   */\n      0x00\n        /* \"#utility.yul\":12478:12487   */\n      dup4\n        /* \"#utility.yul\":12474:12491   */\n      add\n        /* \"#utility.yul\":12465:12471   */\n      dup5\n        /* \"#utility.yul\":12421:12492   */\n      tag_438\n      jump\t// in\n    tag_494:\n        /* \"#utility.yul\":12277:12499   */\n      swap3\n      swap2\n      pop\n      pop\n      jump\t// out\n        /* \"#utility.yul\":12505:12755   */\n    tag_34:\n        /* \"#utility.yul\":12612:12616   */\n      0x00\n        /* \"#utility.yul\":12650:12652   */\n      0x20\n        /* \"#utility.yul\":12639:12648   */\n      dup3\n        /* \"#utility.yul\":12635:12653   */\n      add\n        /* \"#utility.yul\":12627:12653   */\n      swap1\n      pop\n        /* \"#utility.yul\":12663:12748   */\n      tag_496\n        /* \"#utility.yul\":12745:12746   */\n      0x00\n        /* \"#utility.yul\":12734:12743   */\n      dup4\n        /* \"#utility.yul\":12730:12747   */\n      add\n        /* \"#utility.yul\":12721:12727   */\n      dup5\n        /* \"#utility.yul\":12663:12748   */\n      tag_455\n      jump\t// in\n    tag_496:\n        /* \"#utility.yul\":12505:12755   */\n      swap3\n      swap2\n      pop\n      pop\n      jump\t// out\n        /* \"#utility.yul\":12761:13074   */\n    tag_311:\n        /* \"#utility.yul\":12874:12878   */\n      0x00\n        /* \"#utility.yul\":12912:12914   */\n      0x20\n        /* \"#utility.yul\":12901:12910   */\n      dup3\n        /* \"#utility.yul\":12897:12915   */\n      add\n        /* \"#utility.yul\":12889:12915   */\n      swap1\n      pop\n        /* \"#utility.yul\":12961:12970   */\n      dup2\n        /* \"#utility.yul\":12955:12959   */\n      dup2\n        /* \"#utility.yul\":12951:12971   */\n      sub\n        /* \"#utility.yul\":12947:12948   */\n      0x00\n        /* \"#utility.yul\":12936:12945   */\n      dup4\n        /* \"#utility.yul\":12932:12949   */\n      add\n        /* \"#utility.yul\":12925:12972   */\n      mstore\n        /* \"#utility.yul\":12989:13067   */\n      tag_498\n        /* \"#utility.yul\":13062:13066   */\n      dup2\n        /* \"#utility.yul\":13053:13059   */\n      dup5\n        /* \"#utility.yul\":12989:13067   */\n      tag_459\n      jump\t// in\n    tag_498:\n        /* \"#utility.yul\":12981:13067   */\n      swap1\n      pop\n        /* \"#utility.yul\":12761:13074   */\n      swap3\n      swap2\n      pop\n      pop\n      jump\t// out\n        /* \"#utility.yul\":13080:13499   */\n    tag_287:\n        /* \"#utility.yul\":13246:13250   */\n      0x00\n        /* \"#utility.yul\":13284:13286   */\n      0x20\n        /* \"#utility.yul\":13273:13282   */\n      dup3\n        /* \"#utility.yul\":13269:13287   */\n      add\n        /* \"#utility.yul\":13261:13287   */\n      swap1\n      pop\n        /* \"#utility.yul\":13333:13342   */\n      dup2\n        /* \"#utility.yul\":13327:13331   */\n      dup2\n        /* \"#utility.yul\":13323:13343   */\n      sub\n        /* \"#utility.yul\":13319:13320   */\n      0x00\n        /* \"#utility.yul\":13308:13317   */\n      dup4\n        /* \"#utility.yul\":13304:13321   */\n      add\n        /* \"#utility.yul\":13297:13344   */\n      mstore\n        /* \"#utility.yul\":13361:13492   */\n      tag_500\n        /* \"#utility.yul\":13487:13491   */\n      dup2\n        /* \"#utility.yul\":13361:13492   */\n      tag_469\n      jump\t// in\n    tag_500:\n        /* \"#utility.yul\":13353:13492   */\n      swap1\n      pop\n        /* \"#utility.yul\":13080:13499   */\n      swap2\n      swap1\n      pop\n      jump\t// out\n        /* \"#utility.yul\":13505:13924   */\n    tag_302:\n        /* \"#utility.yul\":13671:13675   */\n      0x00\n        /* \"#utility.yul\":13709:13711   */\n      0x20\n        /* \"#utility.yul\":13698:13707   */\n      dup3\n        /* \"#utility.yul\":13694:13712   */\n      add\n        /* \"#utility.yul\":13686:13712   */\n      swap1\n      pop\n        /* \"#utility.yul\":13758:13767   */\n      dup2\n        /* \"#utility.yul\":13752:13756   */\n      dup2\n        /* \"#utility.yul\":13748:13768   */\n      sub\n        /* \"#utility.yul\":13744:13745   */\n      0x00\n        /* \"#utility.yul\":13733:13742   */\n      dup4\n        /* \"#utility.yul\":13729:13746   */\n      add\n        /* \"#utility.yul\":13722:13769   */\n      mstore\n        /* \"#utility.yul\":13786:13917   */\n      tag_502\n        /* \"#utility.yul\":13912:13916   */\n      dup2\n        /* \"#utility.yul\":13786:13917   */\n      tag_474\n      jump\t// in\n    tag_502:\n        /* \"#utility.yul\":13778:13917   */\n      swap1\n      pop\n        /* \"#utility.yul\":13505:13924   */\n      swap2\n      swap1\n      pop\n      jump\t// out\n        /* \"#utility.yul\":13930:14349   */\n    tag_296:\n        /* \"#utility.yul\":14096:14100   */\n      0x00\n        /* \"#utility.yul\":14134:14136   */\n      0x20\n        /* \"#utility.yul\":14123:14132   */\n      dup3\n        /* \"#utility.yul\":14119:14137   */\n      add\n        /* \"#utility.yul\":14111:14137   */\n      swap1\n      pop\n        /* \"#utility.yul\":14183:14192   */\n      dup2\n        /* \"#utility.yul\":14177:14181   */\n      dup2\n        /* \"#utility.yul\":14173:14193   */\n      sub\n        /* \"#utility.yul\":14169:14170   */\n      0x00\n        /* \"#utility.yul\":14158:14167   */\n      dup4\n        /* \"#utility.yul\":14154:14171   */\n      add\n        /* \"#utility.yul\":14147:14194   */\n      mstore\n        /* \"#utility.yul\":14211:14342   */\n      tag_504\n        /* \"#utility.yul\":14337:14341   */\n      dup2\n        /* \"#utility.yul\":14211:14342   */\n      tag_479\n      jump\t// in\n    tag_504:\n        /* \"#utility.yul\":14203:14342   */\n      swap1\n      pop\n        /* \"#utility.yul\":13930:14349   */\n      swap2\n      swap1\n      pop\n      jump\t// out\n        /* \"#utility.yul\":14355:14774   */\n    tag_216:\n        /* \"#utility.yul\":14521:14525   */\n      0x00\n        /* \"#utility.yul\":14559:14561   */\n      0x20\n        /* \"#utility.yul\":14548:14557   */\n      dup3\n        /* \"#utility.yul\":14544:14562   */\n      add\n        /* \"#utility.yul\":14536:14562   */\n      swap1\n      pop\n        /* \"#utility.yul\":14608:14617   */\n      dup2\n        /* \"#utility.yul\":14602:14606   */\n      dup2\n        /* \"#utility.yul\":14598:14618   */\n      sub\n        /* \"#utility.yul\":14594:14595   */\n      0x00\n        /* \"#utility.yul\":14583:14592   */\n      dup4\n        /* \"#utility.yul\":14579:14596   */\n      add\n        /* \"#utility.yul\":14572:14619   */\n      mstore\n        /* \"#utility.yul\":14636:14767   */\n      tag_506\n        /* \"#utility.yul\":14762:14766   */\n      dup2\n        /* \"#utility.yul\":14636:14767   */\n      tag_484\n      jump\t// in\n    tag_506:\n        /* \"#utility.yul\":14628:14767   */\n      swap1\n      pop\n        /* \"#utility.yul\":14355:14774   */\n      swap2\n      swap1\n      pop\n      jump\t// out\n        /* \"#utility.yul\":14780:15002   */\n    tag_25:\n        /* \"#utility.yul\":14873:14877   */\n      0x00\n        /* \"#utility.yul\":14911:14913   */\n      0x20\n        /* \"#utility.yul\":14900:14909   */\n      dup3\n        /* \"#utility.yul\":14896:14914   */\n      add\n        /* \"#utility.yul\":14888:14914   */\n      swap1\n      pop\n        /* \"#utility.yul\":14924:14995   */\n      tag_508\n        /* \"#utility.yul\":14992:14993   */\n      0x00\n        /* \"#utility.yul\":14981:14990   */\n      dup4\n        /* \"#utility.yul\":14977:14994   */\n      add\n        /* \"#utility.yul\":14968:14974   */\n      dup5\n        /* \"#utility.yul\":14924:14995   */\n      tag_489\n      jump\t// in\n    tag_508:\n        /* \"#utility.yul\":14780:15002   */\n      swap3\n      swap2\n      pop\n      pop\n      jump\t// out\n        /* \"#utility.yul\":15008:15491   */\n    tag_90:\n        /* \"#utility.yul\":15179:15183   */\n      0x00\n        /* \"#utility.yul\":15217:15219   */\n      0x40\n        /* \"#utility.yul\":15206:15215   */\n      dup3\n        /* \"#utility.yul\":15202:15220   */\n      add\n        /* \"#utility.yul\":15194:15220   */\n      swap1\n      pop\n        /* \"#utility.yul\":15230:15301   */\n      tag_510\n        /* \"#utility.yul\":15298:15299   */\n      0x00\n        /* \"#utility.yul\":15287:15296   */\n      dup4\n        /* \"#utility.yul\":15283:15300   */\n      add\n        /* \"#utility.yul\":15274:15280   */\n      dup6\n        /* \"#utility.yul\":15230:15301   */\n      tag_489\n      jump\t// in\n    tag_510:\n        /* \"#utility.yul\":15348:15357   */\n      dup2\n        /* \"#utility.yul\":15342:15346   */\n      dup2\n        /* \"#utility.yul\":15338:15358   */\n      sub\n        /* \"#utility.yul\":15333:15335   */\n      0x20\n        /* \"#utility.yul\":15322:15331   */\n      dup4\n        /* \"#utility.yul\":15318:15336   */\n      add\n        /* \"#utility.yul\":15311:15359   */\n      mstore\n        /* \"#utility.yul\":15376:15484   */\n      tag_511\n        /* \"#utility.yul\":15479:15483   */\n      dup2\n        /* \"#utility.yul\":15470:15476   */\n      dup5\n        /* \"#utility.yul\":15376:15484   */\n      tag_441\n      jump\t// in\n    tag_511:\n        /* \"#utility.yul\":15368:15484   */\n      swap1\n      pop\n        /* \"#utility.yul\":15008:15491   */\n      swap4\n      swap3\n      pop\n      pop\n      pop\n      jump\t// out\n        /* \"#utility.yul\":15497:15626   */\n    tag_319:\n        /* \"#utility.yul\":15531:15537   */\n      0x00\n        /* \"#utility.yul\":15558:15578   */\n      tag_513\n      tag_514\n      jump\t// in\n    tag_513:\n        /* \"#utility.yul\":15548:15578   */\n      swap1\n      pop\n        /* \"#utility.yul\":15587:15620   */\n      tag_515\n        /* \"#utility.yul\":15615:15619   */\n      dup3\n        /* \"#utility.yul\":15607:15613   */\n      dup3\n        /* \"#utility.yul\":15587:15620   */\n      tag_516\n      jump\t// in\n    tag_515:\n        /* \"#utility.yul\":15497:15626   */\n      swap2\n      swap1\n      pop\n      jump\t// out\n        /* \"#utility.yul\":15632:15707   */\n    tag_514:\n        /* \"#utility.yul\":15665:15671   */\n      0x00\n        /* \"#utility.yul\":15698:15700   */\n      0x40\n        /* \"#utility.yul\":15692:15701   */\n      mload\n        /* \"#utility.yul\":15682:15701   */\n      swap1\n      pop\n        /* \"#utility.yul\":15632:15707   */\n      swap1\n      jump\t// out\n        /* \"#utility.yul\":15713:16024   */\n    tag_318:\n        /* \"#utility.yul\":15790:15794   */\n      0x00\n        /* \"#utility.yul\":15880:15898   */\n      0xffffffffffffffff\n        /* \"#utility.yul\":15872:15878   */\n      dup3\n        /* \"#utility.yul\":15869:15899   */\n      gt\n        /* \"#utility.yul\":15866:15922   */\n      iszero\n      tag_519\n      jumpi\n        /* \"#utility.yul\":15902:15920   */\n      tag_520\n      tag_80\n      jump\t// in\n    tag_520:\n        /* \"#utility.yul\":15866:15922   */\n    tag_519:\n        /* \"#utility.yul\":15952:15956   */\n      0x20\n        /* \"#utility.yul\":15944:15950   */\n      dup3\n        /* \"#utility.yul\":15940:15957   */\n      mul\n        /* \"#utility.yul\":15932:15957   */\n      swap1\n      pop\n        /* \"#utility.yul\":16012:16016   */\n      0x20\n        /* \"#utility.yul\":16006:16010   */\n      dup2\n        /* \"#utility.yul\":16002:16017   */\n      add\n        /* \"#utility.yul\":15994:16017   */\n      swap1\n      pop\n        /* \"#utility.yul\":15713:16024   */\n      swap2\n      swap1\n      pop\n      jump\t// out\n        /* \"#utility.yul\":16030:16162   */\n    tag_448:\n        /* \"#utility.yul\":16097:16101   */\n      0x00\n        /* \"#utility.yul\":16120:16123   */\n      dup2\n        /* \"#utility.yul\":16112:16123   */\n      swap1\n      pop\n        /* \"#utility.yul\":16150:16154   */\n      0x20\n        /* \"#utility.yul\":16145:16148   */\n      dup3\n        /* \"#utility.yul\":16141:16155   */\n      add\n        /* \"#utility.yul\":16133:16155   */\n      swap1\n      pop\n        /* \"#utility.yul\":16030:16162   */\n      swap2\n      swap1\n      pop\n      jump\t// out\n        /* \"#utility.yul\":16168:16282   */\n    tag_444:\n        /* \"#utility.yul\":16235:16241   */\n      0x00\n        /* \"#utility.yul\":16269:16274   */\n      dup2\n        /* \"#utility.yul\":16263:16275   */\n      mload\n        /* \"#utility.yul\":16253:16275   */\n      swap1\n      pop\n        /* \"#utility.yul\":16168:16282   */\n      swap2\n      swap1\n      pop\n      jump\t// out\n        /* \"#utility.yul\":16288:16387   */\n    tag_462:\n        /* \"#utility.yul\":16340:16346   */\n      0x00\n        /* \"#utility.yul\":16374:16379   */\n      dup2\n        /* \"#utility.yul\":16368:16380   */\n      mload\n        /* \"#utility.yul\":16358:16380   */\n      swap1\n      pop\n        /* \"#utility.yul\":16288:16387   */\n      swap2\n      swap1\n      pop\n      jump\t// out\n        /* \"#utility.yul\":16393:16506   */\n    tag_454:\n        /* \"#utility.yul\":16463:16467   */\n      0x00\n        /* \"#utility.yul\":16495:16499   */\n      0x20\n        /* \"#utility.yul\":16490:16493   */\n      dup3\n        /* \"#utility.yul\":16486:16500   */\n      add\n        /* \"#utility.yul\":16478:16500   */\n      swap1\n      pop\n        /* \"#utility.yul\":16393:16506   */\n      swap2\n      swap1\n      pop\n      jump\t// out\n        /* \"#utility.yul\":16512:16696   */\n    tag_446:\n        /* \"#utility.yul\":16611:16622   */\n      0x00\n        /* \"#utility.yul\":16645:16651   */\n      dup3\n        /* \"#utility.yul\":16640:16643   */\n      dup3\n        /* \"#utility.yul\":16633:16652   */\n      mstore\n        /* \"#utility.yul\":16685:16689   */\n      0x20\n        /* \"#utility.yul\":16680:16683   */\n      dup3\n        /* \"#utility.yul\":16676:16690   */\n      add\n        /* \"#utility.yul\":16661:16690   */\n      swap1\n      pop\n        /* \"#utility.yul\":16512:16696   */\n      swap3\n      swap2\n      pop\n      pop\n      jump\t// out\n        /* \"#utility.yul\":16702:16871   */\n    tag_464:\n        /* \"#utility.yul\":16786:16797   */\n      0x00\n        /* \"#utility.yul\":16820:16826   */\n      dup3\n        /* \"#utility.yul\":16815:16818   */\n      dup3\n        /* \"#utility.yul\":16808:16827   */\n      mstore\n        /* \"#utility.yul\":16860:16864   */\n      0x20\n        /* \"#utility.yul\":16855:16858   */\n      dup3\n        /* \"#utility.yul\":16851:16865   */\n      add\n        /* \"#utility.yul\":16836:16865   */\n      swap1\n      pop\n        /* \"#utility.yul\":16702:16871   */\n      swap3\n      swap2\n      pop\n      pop\n      jump\t// out\n        /* \"#utility.yul\":16877:17182   */\n    tag_299:\n        /* \"#utility.yul\":16917:16920   */\n      0x00\n        /* \"#utility.yul\":16936:16956   */\n      tag_528\n        /* \"#utility.yul\":16954:16955   */\n      dup3\n        /* \"#utility.yul\":16936:16956   */\n      tag_492\n      jump\t// in\n    tag_528:\n        /* \"#utility.yul\":16931:16956   */\n      swap2\n      pop\n        /* \"#utility.yul\":16970:16990   */\n      tag_529\n        /* \"#utility.yul\":16988:16989   */\n      dup4\n        /* \"#utility.yul\":16970:16990   */\n      tag_492\n      jump\t// in\n    tag_529:\n        /* \"#utility.yul\":16965:16990   */\n      swap3\n      pop\n        /* \"#utility.yul\":17124:17125   */\n      dup3\n        /* \"#utility.yul\":17056:17122   */\n      0xffffffffffffffffffffffffffffffffffffffffffffffffffffffffffffffff\n        /* \"#utility.yul\":17052:17126   */\n      sub\n        /* \"#utility.yul\":17049:17050   */\n      dup3\n        /* \"#utility.yul\":17046:17127   */\n      gt\n        /* \"#utility.yul\":17043:17150   */\n      iszero\n      tag_530\n      jumpi\n        /* \"#utility.yul\":17130:17148   */\n      tag_531\n      tag_532\n      jump\t// in\n    tag_531:\n        /* \"#utility.yul\":17043:17150   */\n    tag_530:\n        /* \"#utility.yul\":17174:17175   */\n      dup3\n        /* \"#utility.yul\":17171:17172   */\n      dup3\n        /* \"#utility.yul\":17167:17176   */\n      add\n        /* \"#utility.yul\":17160:17176   */\n      swap1\n      pop\n        /* \"#utility.yul\":16877:17182   */\n      swap3\n      swap2\n      pop\n      pop\n      jump\t// out\n        /* \"#utility.yul\":17188:17373   */\n    tag_293:\n        /* \"#utility.yul\":17228:17229   */\n      0x00\n        /* \"#utility.yul\":17245:17265   */\n      tag_534\n        /* \"#utility.yul\":17263:17264   */\n      dup3\n        /* \"#utility.yul\":17245:17265   */\n      tag_492\n      jump\t// in\n    tag_534:\n        /* \"#utility.yul\":17240:17265   */\n      swap2\n      pop\n        /* \"#utility.yul\":17279:17299   */\n      tag_535\n        /* \"#utility.yul\":17297:17298   */\n      dup4\n        /* \"#utility.yul\":17279:17299   */\n      tag_492\n      jump\t// in\n    tag_535:\n        /* \"#utility.yul\":17274:17299   */\n      swap3\n      pop\n        /* \"#utility.yul\":17318:17319   */\n      dup3\n        /* \"#utility.yul\":17308:17343   */\n      tag_536\n      jumpi\n        /* \"#utility.yul\":17323:17341   */\n      tag_537\n      tag_538\n      jump\t// in\n    tag_537:\n        /* \"#utility.yul\":17308:17343   */\n    tag_536:\n        /* \"#utility.yul\":17365:17366   */\n      dup3\n        /* \"#utility.yul\":17362:17363   */\n      dup3\n        /* \"#utility.yul\":17358:17367   */\n      div\n        /* \"#utility.yul\":17353:17367   */\n      swap1\n      pop\n        /* \"#utility.yul\":17188:17373   */\n      swap3\n      swap2\n      pop\n      pop\n      jump\t// out\n        /* \"#utility.yul\":17379:17727   */\n    tag_243:\n        /* \"#utility.yul\":17419:17426   */\n      0x00\n        /* \"#utility.yul\":17442:17462   */\n      tag_540\n        /* \"#utility.yul\":17460:17461   */\n      dup3\n        /* \"#utility.yul\":17442:17462   */\n      tag_492\n      jump\t// in\n    tag_540:\n        /* \"#utility.yul\":17437:17462   */\n      swap2\n      pop\n        /* \"#utility.yul\":17476:17496   */\n      tag_541\n        /* \"#utility.yul\":17494:17495   */\n      dup4\n        /* \"#utility.yul\":17476:17496   */\n      tag_492\n      jump\t// in\n    tag_541:\n        /* \"#utility.yul\":17471:17496   */\n      swap3\n      pop\n        /* \"#utility.yul\":17664:17665   */\n      dup2\n        /* \"#utility.yul\":17596:17662   */\n      0xffffffffffffffffffffffffffffffffffffffffffffffffffffffffffffffff\n        /* \"#utility.yul\":17592:17666   */\n      div\n        /* \"#utility.yul\":17589:17590   */\n      dup4\n        /* \"#utility.yul\":17586:17667   */\n      gt\n        /* \"#utility.yul\":17581:17582   */\n      dup3\n        /* \"#utility.yul\":17574:17583   */\n      iszero\n        /* \"#utility.yul\":17567:17584   */\n      iszero\n        /* \"#utility.yul\":17563:17668   */\n      and\n        /* \"#utility.yul\":17560:17691   */\n      iszero\n      tag_542\n      jumpi\n        /* \"#utility.yul\":17671:17689   */\n      tag_543\n      tag_532\n      jump\t// in\n    tag_543:\n        /* \"#utility.yul\":17560:17691   */\n    tag_542:\n        /* \"#utility.yul\":17719:17720   */\n      dup3\n        /* \"#utility.yul\":17716:17717   */\n      dup3\n        /* \"#utility.yul\":17712:17721   */\n      mul\n        /* \"#utility.yul\":17701:17721   */\n      swap1\n      pop\n        /* \"#utility.yul\":17379:17727   */\n      swap3\n      swap2\n      pop\n      pop\n      jump\t// out\n        /* \"#utility.yul\":17733:17829   */\n    tag_437:\n        /* \"#utility.yul\":17770:17777   */\n      0x00\n        /* \"#utility.yul\":17799:17823   */\n      tag_545\n        /* \"#utility.yul\":17817:17822   */\n      dup3\n        /* \"#utility.yul\":17799:17823   */\n      tag_546\n      jump\t// in\n    tag_545:\n        /* \"#utility.yul\":17788:17823   */\n      swap1\n      pop\n        /* \"#utility.yul\":17733:17829   */\n      swap2\n      swap1\n      pop\n      jump\t// out\n        /* \"#utility.yul\":17835:17945   */\n    tag_547:\n        /* \"#utility.yul\":17886:17893   */\n      0x00\n        /* \"#utility.yul\":17915:17939   */\n      tag_549\n        /* \"#utility.yul\":17933:17938   */\n      dup3\n        /* \"#utility.yul\":17915:17939   */\n      tag_437\n      jump\t// in\n    tag_549:\n        /* \"#utility.yul\":17904:17939   */\n      swap1\n      pop\n        /* \"#utility.yul\":17835:17945   */\n      swap2\n      swap1\n      pop\n      jump\t// out\n        /* \"#utility.yul\":17951:18066   */\n    tag_550:\n        /* \"#utility.yul\":18007:18014   */\n      0x00\n        /* \"#utility.yul\":18036:18060   */\n      tag_552\n        /* \"#utility.yul\":18054:18059   */\n      dup3\n        /* \"#utility.yul\":18036:18060   */\n      tag_437\n      jump\t// in\n    tag_552:\n        /* \"#utility.yul\":18025:18060   */\n      swap1\n      pop\n        /* \"#utility.yul\":17951:18066   */\n      swap2\n      swap1\n      pop\n      jump\t// out\n        /* \"#utility.yul\":18072:18178   */\n    tag_553:\n        /* \"#utility.yul\":18119:18126   */\n      0x00\n        /* \"#utility.yul\":18148:18172   */\n      tag_555\n        /* \"#utility.yul\":18166:18171   */\n      dup3\n        /* \"#utility.yul\":18148:18172   */\n      tag_437\n      jump\t// in\n    tag_555:\n        /* \"#utility.yul\":18137:18172   */\n      swap1\n      pop\n        /* \"#utility.yul\":18072:18178   */\n      swap2\n      swap1\n      pop\n      jump\t// out\n        /* \"#utility.yul\":18184:18302   */\n    tag_556:\n        /* \"#utility.yul\":18243:18250   */\n      0x00\n        /* \"#utility.yul\":18272:18296   */\n      tag_558\n        /* \"#utility.yul\":18290:18295   */\n      dup3\n        /* \"#utility.yul\":18272:18296   */\n      tag_437\n      jump\t// in\n    tag_558:\n        /* \"#utility.yul\":18261:18296   */\n      swap1\n      pop\n        /* \"#utility.yul\":18184:18302   */\n      swap2\n      swap1\n      pop\n      jump\t// out\n        /* \"#utility.yul\":18308:18418   */\n    tag_559:\n        /* \"#utility.yul\":18359:18366   */\n      0x00\n        /* \"#utility.yul\":18388:18412   */\n      tag_561\n        /* \"#utility.yul\":18406:18411   */\n      dup3\n        /* \"#utility.yul\":18388:18412   */\n      tag_437\n      jump\t// in\n    tag_561:\n        /* \"#utility.yul\":18377:18412   */\n      swap1\n      pop\n        /* \"#utility.yul\":18308:18418   */\n      swap2\n      swap1\n      pop\n      jump\t// out\n        /* \"#utility.yul\":18424:18550   */\n    tag_546:\n        /* \"#utility.yul\":18461:18468   */\n      0x00\n        /* \"#utility.yul\":18501:18543   */\n      0xffffffffffffffffffffffffffffffffffffffff\n        /* \"#utility.yul\":18494:18499   */\n      dup3\n        /* \"#utility.yul\":18490:18544   */\n      and\n        /* \"#utility.yul\":18479:18544   */\n      swap1\n      pop\n        /* \"#utility.yul\":18424:18550   */\n      swap2\n      swap1\n      pop\n      jump\t// out\n        /* \"#utility.yul\":18556:18633   */\n    tag_492:\n        /* \"#utility.yul\":18593:18600   */\n      0x00\n        /* \"#utility.yul\":18622:18627   */\n      dup2\n        /* \"#utility.yul\":18611:18627   */\n      swap1\n      pop\n        /* \"#utility.yul\":18556:18633   */\n      swap2\n      swap1\n      pop\n      jump\t// out\n        /* \"#utility.yul\":18639:18779   */\n    tag_458:\n        /* \"#utility.yul\":18703:18712   */\n      0x00\n        /* \"#utility.yul\":18736:18773   */\n      tag_565\n        /* \"#utility.yul\":18767:18772   */\n      dup3\n        /* \"#utility.yul\":18736:18773   */\n      tag_566\n      jump\t// in\n    tag_565:\n        /* \"#utility.yul\":18723:18773   */\n      swap1\n      pop\n        /* \"#utility.yul\":18639:18779   */\n      swap2\n      swap1\n      pop\n      jump\t// out\n        /* \"#utility.yul\":18785:18911   */\n    tag_566:\n        /* \"#utility.yul\":18835:18844   */\n      0x00\n        /* \"#utility.yul\":18868:18905   */\n      tag_568\n        /* \"#utility.yul\":18899:18904   */\n      dup3\n        /* \"#utility.yul\":18868:18905   */\n      tag_569\n      jump\t// in\n    tag_568:\n        /* \"#utility.yul\":18855:18905   */\n      swap1\n      pop\n        /* \"#utility.yul\":18785:18911   */\n      swap2\n      swap1\n      pop\n      jump\t// out\n        /* \"#utility.yul\":18917:19030   */\n    tag_569:\n        /* \"#utility.yul\":18967:18976   */\n      0x00\n        /* \"#utility.yul\":19000:19024   */\n      tag_571\n        /* \"#utility.yul\":19018:19023   */\n      dup3\n        /* \"#utility.yul\":19000:19024   */\n      tag_546\n      jump\t// in\n    tag_571:\n        /* \"#utility.yul\":18987:19024   */\n      swap1\n      pop\n        /* \"#utility.yul\":18917:19030   */\n      swap2\n      swap1\n      pop\n      jump\t// out\n        /* \"#utility.yul\":19036:19343   */\n    tag_466:\n        /* \"#utility.yul\":19104:19105   */\n      0x00\n        /* \"#utility.yul\":19114:19227   */\n    tag_573:\n        /* \"#utility.yul\":19128:19134   */\n      dup4\n        /* \"#utility.yul\":19125:19126   */\n      dup2\n        /* \"#utility.yul\":19122:19135   */\n      lt\n        /* \"#utility.yul\":19114:19227   */\n      iszero\n      tag_575\n      jumpi\n        /* \"#utility.yul\":19213:19214   */\n      dup1\n        /* \"#utility.yul\":19208:19211   */\n      dup3\n        /* \"#utility.yul\":19204:19215   */\n      add\n        /* \"#utility.yul\":19198:19216   */\n      mload\n        /* \"#utility.yul\":19194:19195   */\n      dup2\n        /* \"#utility.yul\":19189:19192   */\n      dup5\n        /* \"#utility.yul\":19185:19196   */\n      add\n        /* \"#utility.yul\":19178:19217   */\n      mstore\n        /* \"#utility.yul\":19150:19152   */\n      0x20\n        /* \"#utility.yul\":19147:19148   */\n      dup2\n        /* \"#utility.yul\":19143:19153   */\n      add\n        /* \"#utility.yul\":19138:19153   */\n      swap1\n      pop\n        /* \"#utility.yul\":19114:19227   */\n      jump(tag_573)\n    tag_575:\n        /* \"#utility.yul\":19245:19251   */\n      dup4\n        /* \"#utility.yul\":19242:19243   */\n      dup2\n        /* \"#utility.yul\":19239:19252   */\n      gt\n        /* \"#utility.yul\":19236:19337   */\n      iszero\n      tag_576\n      jumpi\n        /* \"#utility.yul\":19325:19326   */\n      0x00\n        /* \"#utility.yul\":19316:19322   */\n      dup5\n        /* \"#utility.yul\":19311:19314   */\n      dup5\n        /* \"#utility.yul\":19307:19323   */\n      add\n        /* \"#utility.yul\":19300:19327   */\n      mstore\n        /* \"#utility.yul\":19236:19337   */\n    tag_576:\n        /* \"#utility.yul\":19085:19343   */\n      pop\n        /* \"#utility.yul\":19036:19343   */\n      pop\n      pop\n      pop\n      jump\t// out\n        /* \"#utility.yul\":19349:19630   */\n    tag_516:\n        /* \"#utility.yul\":19432:19459   */\n      tag_578\n        /* \"#utility.yul\":19454:19458   */\n      dup3\n        /* \"#utility.yul\":19432:19459   */\n      tag_468\n      jump\t// in\n    tag_578:\n        /* \"#utility.yul\":19424:19430   */\n      dup2\n        /* \"#utility.yul\":19420:19460   */\n      add\n        /* \"#utility.yul\":19562:19568   */\n      dup2\n        /* \"#utility.yul\":19550:19560   */\n      dup2\n        /* \"#utility.yul\":19547:19569   */\n      lt\n        /* \"#utility.yul\":19526:19544   */\n      0xffffffffffffffff\n        /* \"#utility.yul\":19514:19524   */\n      dup3\n        /* \"#utility.yul\":19511:19545   */\n      gt\n        /* \"#utility.yul\":19508:19570   */\n      or\n        /* \"#utility.yul\":19505:19593   */\n      iszero\n      tag_579\n      jumpi\n        /* \"#utility.yul\":19573:19591   */\n      tag_580\n      tag_80\n      jump\t// in\n    tag_580:\n        /* \"#utility.yul\":19505:19593   */\n    tag_579:\n        /* \"#utility.yul\":19613:19623   */\n      dup1\n        /* \"#utility.yul\":19609:19611   */\n      0x40\n        /* \"#utility.yul\":19602:19624   */\n      mstore\n        /* \"#utility.yul\":19392:19630   */\n      pop\n        /* \"#utility.yul\":19349:19630   */\n      pop\n      pop\n      jump\t// out\n        /* \"#utility.yul\":19636:19816   */\n    tag_532:\n        /* \"#utility.yul\":19684:19761   */\n      0x4e487b7100000000000000000000000000000000000000000000000000000000\n        /* \"#utility.yul\":19681:19682   */\n      0x00\n        /* \"#utility.yul\":19674:19762   */\n      mstore\n        /* \"#utility.yul\":19781:19785   */\n      0x11\n        /* \"#utility.yul\":19778:19779   */\n      0x04\n        /* \"#utility.yul\":19771:19786   */\n      mstore\n        /* \"#utility.yul\":19805:19809   */\n      0x24\n        /* \"#utility.yul\":19802:19803   */\n      0x00\n        /* \"#utility.yul\":19795:19810   */\n      revert\n        /* \"#utility.yul\":19822:20002   */\n    tag_538:\n        /* \"#utility.yul\":19870:19947   */\n      0x4e487b7100000000000000000000000000000000000000000000000000000000\n        /* \"#utility.yul\":19867:19868   */\n      0x00\n        /* \"#utility.yul\":19860:19948   */\n      mstore\n        /* \"#utility.yul\":19967:19971   */\n      0x12\n        /* \"#utility.yul\":19964:19965   */\n      0x04\n        /* \"#utility.yul\":19957:19972   */\n      mstore\n        /* \"#utility.yul\":19991:19995   */\n      0x24\n        /* \"#utility.yul\":19988:19989   */\n      0x00\n        /* \"#utility.yul\":19981:19996   */\n      revert\n        /* \"#utility.yul\":20008:20188   */\n    tag_84:\n        /* \"#utility.yul\":20056:20133   */\n      0x4e487b7100000000000000000000000000000000000000000000000000000000\n        /* \"#utility.yul\":20053:20054   */\n      0x00\n        /* \"#utility.yul\":20046:20134   */\n      mstore\n        /* \"#utility.yul\":20153:20157   */\n      0x32\n        /* \"#utility.yul\":20150:20151   */\n      0x04\n        /* \"#utility.yul\":20143:20158   */\n      mstore\n        /* \"#utility.yul\":20177:20181   */\n      0x24\n        /* \"#utility.yul\":20174:20175   */\n      0x00\n        /* \"#utility.yul\":20167:20182   */\n      revert\n        /* \"#utility.yul\":20194:20374   */\n    tag_80:\n        /* \"#utility.yul\":20242:20319   */\n      0x4e487b7100000000000000000000000000000000000000000000000000000000\n        /* \"#utility.yul\":20239:20240   */\n      0x00\n        /* \"#utility.yul\":20232:20320   */\n      mstore\n        /* \"#utility.yul\":20339:20343   */\n      0x41\n        /* \"#utility.yul\":20336:20337   */\n      0x04\n        /* \"#utility.yul\":20329:20344   */\n      mstore\n        /* \"#utility.yul\":20363:20367   */\n      0x24\n        /* \"#utility.yul\":20360:20361   */\n      0x00\n        /* \"#utility.yul\":20353:20368   */\n      revert\n        /* \"#utility.yul\":20380:20497   */\n    tag_339:\n        /* \"#utility.yul\":20489:20490   */\n      0x00\n        /* \"#utility.yul\":20486:20487   */\n      dup1\n        /* \"#utility.yul\":20479:20491   */\n      revert\n        /* \"#utility.yul\":20503:20620   */\n    tag_365:\n        /* \"#utility.yul\":20612:20613   */\n      0x00\n        /* \"#utility.yul\":20609:20610   */\n      dup1\n        /* \"#utility.yul\":20602:20614   */\n      revert\n        /* \"#utility.yul\":20749:20866   */\n    tag_322:\n        /* \"#utility.yul\":20858:20859   */\n      0x00\n        /* \"#utility.yul\":20855:20856   */\n      dup1\n        /* \"#utility.yul\":20848:20860   */\n      revert\n        /* \"#utility.yul\":20872:20989   */\n    tag_393:\n        /* \"#utility.yul\":20981:20982   */\n      0x00\n        /* \"#utility.yul\":20978:20979   */\n      dup1\n        /* \"#utility.yul\":20971:20983   */\n      revert\n        /* \"#utility.yul\":20995:21112   */\n    tag_382:\n        /* \"#utility.yul\":21104:21105   */\n      0x00\n        /* \"#utility.yul\":21101:21102   */\n      dup1\n        /* \"#utility.yul\":21094:21106   */\n      revert\n        /* \"#utility.yul\":21118:21220   */\n    tag_468:\n        /* \"#utility.yul\":21159:21165   */\n      0x00\n        /* \"#utility.yul\":21210:21212   */\n      0x1f\n        /* \"#utility.yul\":21206:21213   */\n      not\n        /* \"#utility.yul\":21201:21203   */\n      0x1f\n        /* \"#utility.yul\":21194:21199   */\n      dup4\n        /* \"#utility.yul\":21190:21204   */\n      add\n        /* \"#utility.yul\":21186:21214   */\n      and\n        /* \"#utility.yul\":21176:21214   */\n      swap1\n      pop\n        /* \"#utility.yul\":21118:21220   */\n      swap2\n      swap1\n      pop\n      jump\t// out\n        /* \"#utility.yul\":21226:21451   */\n    tag_473:\n        /* \"#utility.yul\":21366:21400   */\n      0x4f776e61626c653a206e6577206f776e657220697320746865207a65726f2061\n        /* \"#utility.yul\":21362:21363   */\n      0x00\n        /* \"#utility.yul\":21354:21360   */\n      dup3\n        /* \"#utility.yul\":21350:21364   */\n      add\n        /* \"#utility.yul\":21343:21401   */\n      mstore\n        /* \"#utility.yul\":21435:21443   */\n      0x6464726573730000000000000000000000000000000000000000000000000000\n        /* \"#utility.yul\":21430:21432   */\n      0x20\n        /* \"#utility.yul\":21422:21428   */\n      dup3\n        /* \"#utility.yul\":21418:21433   */\n      add\n        /* \"#utility.yul\":21411:21444   */\n      mstore\n        /* \"#utility.yul\":21226:21451   */\n      pop\n      jump\t// out\n        /* \"#utility.yul\":21457:21634   */\n    tag_478:\n        /* \"#utility.yul\":21597:21626   */\n      0x536166654d6174683a206164646974696f6e206f766572666c6f770000000000\n        /* \"#utility.yul\":21593:21594   */\n      0x00\n        /* \"#utility.yul\":21585:21591   */\n      dup3\n        /* \"#utility.yul\":21581:21595   */\n      add\n        /* \"#utility.yul\":21574:21627   */\n      mstore\n        /* \"#utility.yul\":21457:21634   */\n      pop\n      jump\t// out\n        /* \"#utility.yul\":21640:21860   */\n    tag_483:\n        /* \"#utility.yul\":21780:21814   */\n      0x536166654d6174683a206d756c7469706c69636174696f6e206f766572666c6f\n        /* \"#utility.yul\":21776:21777   */\n      0x00\n        /* \"#utility.yul\":21768:21774   */\n      dup3\n        /* \"#utility.yul\":21764:21778   */\n      add\n        /* \"#utility.yul\":21757:21815   */\n      mstore\n        /* \"#utility.yul\":21849:21852   */\n      0x7700000000000000000000000000000000000000000000000000000000000000\n        /* \"#utility.yul\":21844:21846   */\n      0x20\n        /* \"#utility.yul\":21836:21842   */\n      dup3\n        /* \"#utility.yul\":21832:21847   */\n      add\n        /* \"#utility.yul\":21825:21853   */\n      mstore\n        /* \"#utility.yul\":21640:21860   */\n      pop\n      jump\t// out\n        /* \"#utility.yul\":21866:22048   */\n    tag_488:\n        /* \"#utility.yul\":22006:22040   */\n      0x4f776e61626c653a2063616c6c6572206973206e6f7420746865206f776e6572\n        /* \"#utility.yul\":22002:22003   */\n      0x00\n        /* \"#utility.yul\":21994:22000   */\n      dup3\n        /* \"#utility.yul\":21990:22004   */\n      add\n        /* \"#utility.yul\":21983:22041   */\n      mstore\n        /* \"#utility.yul\":21866:22048   */\n      pop\n      jump\t// out\n        /* \"#utility.yul\":22054:22176   */\n    tag_331:\n        /* \"#utility.yul\":22127:22151   */\n      tag_598\n        /* \"#utility.yul\":22145:22150   */\n      dup2\n        /* \"#utility.yul\":22127:22151   */\n      tag_437\n      jump\t// in\n    tag_598:\n        /* \"#utility.yul\":22120:22125   */\n      dup2\n        /* \"#utility.yul\":22117:22152   */\n      eq\n        /* \"#utility.yul\":22107:22170   */\n      tag_599\n      jumpi\n        /* \"#utility.yul\":22166:22167   */\n      0x00\n        /* \"#utility.yul\":22163:22164   */\n      dup1\n        /* \"#utility.yul\":22156:22168   */\n      revert\n        /* \"#utility.yul\":22107:22170   */\n    tag_599:\n        /* \"#utility.yul\":22054:22176   */\n      pop\n      jump\t// out\n        /* \"#utility.yul\":22182:22332   */\n    tag_344:\n        /* \"#utility.yul\":22269:22307   */\n      tag_601\n        /* \"#utility.yul\":22301:22306   */\n      dup2\n        /* \"#utility.yul\":22269:22307   */\n      tag_547\n      jump\t// in\n    tag_601:\n        /* \"#utility.yul\":22262:22267   */\n      dup2\n        /* \"#utility.yul\":22259:22308   */\n      eq\n        /* \"#utility.yul\":22249:22326   */\n      tag_602\n      jumpi\n        /* \"#utility.yul\":22322:22323   */\n      0x00\n        /* \"#utility.yul\":22319:22320   */\n      dup1\n        /* \"#utility.yul\":22312:22324   */\n      revert\n        /* \"#utility.yul\":22249:22326   */\n    tag_602:\n        /* \"#utility.yul\":22182:22332   */\n      pop\n      jump\t// out\n        /* \"#utility.yul\":22338:22498   */\n    tag_348:\n        /* \"#utility.yul\":22430:22473   */\n      tag_604\n        /* \"#utility.yul\":22467:22472   */\n      dup2\n        /* \"#utility.yul\":22430:22473   */\n      tag_550\n      jump\t// in\n    tag_604:\n        /* \"#utility.yul\":22423:22428   */\n      dup2\n        /* \"#utility.yul\":22420:22474   */\n      eq\n        /* \"#utility.yul\":22410:22492   */\n      tag_605\n      jumpi\n        /* \"#utility.yul\":22488:22489   */\n      0x00\n        /* \"#utility.yul\":22485:22486   */\n      dup1\n        /* \"#utility.yul\":22478:22490   */\n      revert\n        /* \"#utility.yul\":22410:22492   */\n    tag_605:\n        /* \"#utility.yul\":22338:22498   */\n      pop\n      jump\t// out\n        /* \"#utility.yul\":22504:22646   */\n    tag_352:\n        /* \"#utility.yul\":22587:22621   */\n      tag_607\n        /* \"#utility.yul\":22615:22620   */\n      dup2\n        /* \"#utility.yul\":22587:22621   */\n      tag_553\n      jump\t// in\n    tag_607:\n        /* \"#utility.yul\":22580:22585   */\n      dup2\n        /* \"#utility.yul\":22577:22622   */\n      eq\n        /* \"#utility.yul\":22567:22640   */\n      tag_608\n      jumpi\n        /* \"#utility.yul\":22636:22637   */\n      0x00\n        /* \"#utility.yul\":22633:22634   */\n      dup1\n        /* \"#utility.yul\":22626:22638   */\n      revert\n        /* \"#utility.yul\":22567:22640   */\n    tag_608:\n        /* \"#utility.yul\":22504:22646   */\n      pop\n      jump\t// out\n        /* \"#utility.yul\":22652:22818   */\n    tag_356:\n        /* \"#utility.yul\":22747:22793   */\n      tag_610\n        /* \"#utility.yul\":22787:22792   */\n      dup2\n        /* \"#utility.yul\":22747:22793   */\n      tag_556\n      jump\t// in\n    tag_610:\n        /* \"#utility.yul\":22740:22745   */\n      dup2\n        /* \"#utility.yul\":22737:22794   */\n      eq\n        /* \"#utility.yul\":22727:22812   */\n      tag_611\n      jumpi\n        /* \"#utility.yul\":22808:22809   */\n      0x00\n        /* \"#utility.yul\":22805:22806   */\n      dup1\n        /* \"#utility.yul\":22798:22810   */\n      revert\n        /* \"#utility.yul\":22727:22812   */\n    tag_611:\n        /* \"#utility.yul\":22652:22818   */\n      pop\n      jump\t// out\n        /* \"#utility.yul\":22824:22974   */\n    tag_360:\n        /* \"#utility.yul\":22911:22949   */\n      tag_613\n        /* \"#utility.yul\":22943:22948   */\n      dup2\n        /* \"#utility.yul\":22911:22949   */\n      tag_559\n      jump\t// in\n    tag_613:\n        /* \"#utility.yul\":22904:22909   */\n      dup2\n        /* \"#utility.yul\":22901:22950   */\n      eq\n        /* \"#utility.yul\":22891:22968   */\n      tag_614\n      jumpi\n        /* \"#utility.yul\":22964:22965   */\n      0x00\n        /* \"#utility.yul\":22961:22962   */\n      dup1\n        /* \"#utility.yul\":22954:22966   */\n      revert\n        /* \"#utility.yul\":22891:22968   */\n    tag_614:\n        /* \"#utility.yul\":22824:22974   */\n      pop\n      jump\t// out\n        /* \"#utility.yul\":22980:23102   */\n    tag_376:\n        /* \"#utility.yul\":23053:23077   */\n      tag_616\n        /* \"#utility.yul\":23071:23076   */\n      dup2\n        /* \"#utility.yul\":23053:23077   */\n      tag_492\n      jump\t// in\n    tag_616:\n        /* \"#utility.yul\":23046:23051   */\n      dup2\n        /* \"#utility.yul\":23043:23078   */\n      eq\n        /* \"#utility.yul\":23033:23096   */\n      tag_617\n      jumpi\n        /* \"#utility.yul\":23092:23093   */\n      0x00\n        /* \"#utility.yul\":23089:23090   */\n      dup1\n        /* \"#utility.yul\":23082:23094   */\n      revert\n        /* \"#utility.yul\":23033:23096   */\n    tag_617:\n        /* \"#utility.yul\":22980:23102   */\n      pop\n      jump\t// out\n\n    auxdata: 0xa26469706673582212206c885d00b150a471d5078aba2c10209dbae7cbb8d8ac57a1f449072d66895dfb64736f6c63430008070033\n}\n",
				"bytecode": {
					"linkReferences": {},
					"object": "608060405273ae13d989dac2f0debff460ac112a837c89baa7cd600160006101000a81548173ffffffffffffffffffffffffffffffffffffffff021916908373ffffffffffffffffffffffffffffffffffffffff1602179055507378867bbeef44f2326bf8ddd1941a4439382ef2a7600260006101000a81548173ffffffffffffffffffffffffffffffffffffffff021916908373ffffffffffffffffffffffffffffffffffffffff160217905550670de0b6b3a764000060035562a06680600555348015620000ce57600080fd5b5060405162002a7e38038062002a7e8339818101604052810190620000f491906200023f565b62000114620001086200015c60201b60201c565b6200016460201b60201c565b80600460006101000a81548173ffffffffffffffffffffffffffffffffffffffff021916908373ffffffffffffffffffffffffffffffffffffffff16021790555050620002d8565b600033905090565b60008060009054906101000a900473ffffffffffffffffffffffffffffffffffffffff169050816000806101000a81548173ffffffffffffffffffffffffffffffffffffffff021916908373ffffffffffffffffffffffffffffffffffffffff1602179055508173ffffffffffffffffffffffffffffffffffffffff168173ffffffffffffffffffffffffffffffffffffffff167f8be0079c531659141344cd1fd0a4f28419497f9722a3daafe3b4186f6b6457e060405160405180910390a35050565b6000815190506200023981620002be565b92915050565b600060208284031215620002585762000257620002b9565b5b6000620002688482850162000228565b91505092915050565b60006200027e8262000299565b9050919050565b6000620002928262000271565b9050919050565b600073ffffffffffffffffffffffffffffffffffffffff82169050919050565b600080fd5b620002c98162000285565b8114620002d557600080fd5b50565b61279680620002e86000396000f3fe608060405234801561001057600080fd5b50600436106100ea5760003560e01c80638da5cb5b1161008c578063d979fb5f11610066578063d979fb5f1461024d578063dba880071461027d578063dbb79348146102ad578063f2fde38b146102dd576100ea565b80638da5cb5b146101f55780638dd9500214610213578063c0d7865514610231576100ea565b80633b979d45116100c85780633b979d451461016d578063484f4ea91461019d5780634abddbe3146101bb578063715018a6146101eb576100ea565b806319047f8a146100ef578063215cc9891461011f5780633268cc561461014f575b600080fd5b61010960048036038101906101049190611d40565b6102f9565b60405161011691906121e7565b60405180910390f35b61013960048036038101906101349190611e10565b610550565b60405161014691906121e7565b60405180910390f35b610157610e2e565b604051610164919061212a565b60405180910390f35b61018760048036038101906101829190611d40565b610e54565b60405161019491906121e7565b60405180910390f35b6101a561103a565b6040516101b2919061210f565b60405180910390f35b6101d560048036038101906101d09190611f58565b611060565b6040516101e291906121e7565b60405180910390f35b6101f36111a5565b005b6101fd61122d565b60405161020a919061210f565b60405180910390f35b61021b611256565b604051610228919061210f565b60405180910390f35b61024b60048036038101906102469190611e6a565b61127c565b005b61026760048036038101906102629190611ef1565b61133c565b60405161027491906121e7565b60405180910390f35b61029760048036038101906102929190611e3d565b61148d565b6040516102a491906121e7565b60405180910390f35b6102c760048036038101906102c29190611ef1565b61151e565b6040516102d491906121e7565b60405180910390f35b6102f760048036038101906102f29190611d40565b6117fb565b005b600080600367ffffffffffffffff81111561031757610316612576565b5b6040519080825280602002602001820160405280156103455781602001602082028036833780820191505090505b509050828160008151811061035d5761035c612547565b5b602002602001019073ffffffffffffffffffffffffffffffffffffffff16908173ffffffffffffffffffffffffffffffffffffffff1681525050600160009054906101000a900473ffffffffffffffffffffffffffffffffffffffff16816001815181106103ce576103cd612547565b5b602002602001019073ffffffffffffffffffffffffffffffffffffffff16908173ffffffffffffffffffffffffffffffffffffffff1681525050600260009054906101000a900473ffffffffffffffffffffffffffffffffffffffff168160028151811061043f5761043e612547565b5b602002602001019073ffffffffffffffffffffffffffffffffffffffff16908173ffffffffffffffffffffffffffffffffffffffff1681525050600460009054906101000a900473ffffffffffffffffffffffffffffffffffffffff1673ffffffffffffffffffffffffffffffffffffffff1663d06ca61f600354836040518363ffffffff1660e01b81526004016104d8929190612202565b60006040518083038186803b1580156104f057600080fd5b505afa158015610504573d6000803e3d6000fd5b505050506040513d6000823e3d601f19601f8201168201806040525081019061052d9190611d9a565b6002815181106105405761053f612547565b5b6020026020010151915050919050565b60008060008373ffffffffffffffffffffffffffffffffffffffff16630dfe16816040518163ffffffff1660e01b815260040160206040518083038186803b15801561059b57600080fd5b505afa1580156105af573d6000803e3d6000fd5b505050506040513d601f19601f820116820180604052508101906105d39190611de3565b73ffffffffffffffffffffffffffffffffffffffff16600160009054906101000a900473ffffffffffffffffffffffffffffffffffffffff1673ffffffffffffffffffffffffffffffffffffffff1614156107cc576107c56106b18573ffffffffffffffffffffffffffffffffffffffff16630dfe16816040518163ffffffff1660e01b815260040160206040518083038186803b15801561067457600080fd5b505afa158015610688573d6000803e3d6000fd5b505050506040513d601f19601f820116820180604052508101906106ac9190611de3565b610e54565b8573ffffffffffffffffffffffffffffffffffffffff16630dfe16816040518163ffffffff1660e01b815260040160206040518083038186803b1580156106f757600080fd5b505afa15801561070b573d6000803e3d6000fd5b505050506040513d601f19601f8201168201806040525081019061072f9190611de3565b73ffffffffffffffffffffffffffffffffffffffff166370a08231876040518263ffffffff1660e01b8152600401610767919061210f565b60206040518083038186803b15801561077f57600080fd5b505afa158015610793573d6000803e3d6000fd5b505050506040513d601f19601f820116820180604052508101906107b79190611ec4565b6118f390919063ffffffff16565b915061096c565b6109696108558573ffffffffffffffffffffffffffffffffffffffff16630dfe16816040518163ffffffff1660e01b815260040160206040518083038186803b15801561081857600080fd5b505afa15801561082c573d6000803e3d6000fd5b505050506040513d601f19601f820116820180604052508101906108509190611de3565b6102f9565b8573ffffffffffffffffffffffffffffffffffffffff16630dfe16816040518163ffffffff1660e01b815260040160206040518083038186803b15801561089b57600080fd5b505afa1580156108af573d6000803e3d6000fd5b505050506040513d601f19601f820116820180604052508101906108d39190611de3565b73ffffffffffffffffffffffffffffffffffffffff166370a08231876040518263ffffffff1660e01b815260040161090b919061210f565b60206040518083038186803b15801561092357600080fd5b505afa158015610937573d6000803e3d6000fd5b505050506040513d601f19601f8201168201806040525081019061095b9190611ec4565b6118f390919063ffffffff16565b91505b8373ffffffffffffffffffffffffffffffffffffffff1663d21220a76040518163ffffffff1660e01b815260040160206040518083038186803b1580156109b257600080fd5b505afa1580156109c6573d6000803e3d6000fd5b505050506040513d601f19601f820116820180604052508101906109ea9190611de3565b73ffffffffffffffffffffffffffffffffffffffff16600160009054906101000a900473ffffffffffffffffffffffffffffffffffffffff1673ffffffffffffffffffffffffffffffffffffffff161415610be357610bdc610ac88573ffffffffffffffffffffffffffffffffffffffff1663d21220a76040518163ffffffff1660e01b815260040160206040518083038186803b158015610a8b57600080fd5b505afa158015610a9f573d6000803e3d6000fd5b505050506040513d601f19601f82011682018060405250810190610ac39190611de3565b610e54565b8573ffffffffffffffffffffffffffffffffffffffff1663d21220a76040518163ffffffff1660e01b815260040160206040518083038186803b158015610b0e57600080fd5b505afa158015610b22573d6000803e3d6000fd5b505050506040513d601f19601f82011682018060405250810190610b469190611de3565b73ffffffffffffffffffffffffffffffffffffffff166370a08231876040518263ffffffff1660e01b8152600401610b7e919061210f565b60206040518083038186803b158015610b9657600080fd5b505afa158015610baa573d6000803e3d6000fd5b505050506040513d601f19601f82011682018060405250810190610bce9190611ec4565b6118f390919063ffffffff16565b9050610d83565b610d80610c6c8573ffffffffffffffffffffffffffffffffffffffff1663d21220a76040518163ffffffff1660e01b815260040160206040518083038186803b158015610c2f57600080fd5b505afa158015610c43573d6000803e3d6000fd5b505050506040513d601f19601f82011682018060405250810190610c679190611de3565b6102f9565b8573ffffffffffffffffffffffffffffffffffffffff1663d21220a76040518163ffffffff1660e01b815260040160206040518083038186803b158015610cb257600080fd5b505afa158015610cc6573d6000803e3d6000fd5b505050506040513d601f19601f82011682018060405250810190610cea9190611de3565b73ffffffffffffffffffffffffffffffffffffffff166370a08231876040518263ffffffff1660e01b8152600401610d22919061210f565b60206040518083038186803b158015610d3a57600080fd5b505afa158015610d4e573d6000803e3d6000fd5b505050506040513d601f19601f82011682018060405250810190610d729190611ec4565b6118f390919063ffffffff16565b90505b610e258473ffffffffffffffffffffffffffffffffffffffff166318160ddd6040518163ffffffff1660e01b815260040160206040518083038186803b158015610dcc57600080fd5b505afa158015610de0573d6000803e3d6000fd5b505050506040513d601f19601f82011682018060405250810190610e049190611ec4565b610e17838561196e90919063ffffffff16565b6119cc90919063ffffffff16565b92505050919050565b600460009054906101000a900473ffffffffffffffffffffffffffffffffffffffff1681565b600080600267ffffffffffffffff811115610e7257610e71612576565b5b604051908082528060200260200182016040528015610ea05781602001602082028036833780820191505090505b5090508281600081518110610eb857610eb7612547565b5b602002602001019073ffffffffffffffffffffffffffffffffffffffff16908173ffffffffffffffffffffffffffffffffffffffff1681525050600260009054906101000a900473ffffffffffffffffffffffffffffffffffffffff1681600181518110610f2957610f28612547565b5b602002602001019073ffffffffffffffffffffffffffffffffffffffff16908173ffffffffffffffffffffffffffffffffffffffff1681525050600460009054906101000a900473ffffffffffffffffffffffffffffffffffffffff1673ffffffffffffffffffffffffffffffffffffffff1663d06ca61f600354836040518363ffffffff1660e01b8152600401610fc2929190612202565b60006040518083038186803b158015610fda57600080fd5b505afa158015610fee573d6000803e3d6000fd5b505050506040513d6000823e3d601f19601f820116820180604052508101906110179190611d9a565b60018151811061102a57611029612547565b5b6020026020010151915050919050565b600260009054906101000a900473ffffffffffffffffffffffffffffffffffffffff1681565b6000808273ffffffffffffffffffffffffffffffffffffffff16631526fe27856040518263ffffffff1660e01b815260040161109c91906121e7565b60c06040518083038186803b1580156110b457600080fd5b505afa1580156110c8573d6000803e3d6000fd5b505050506040513d601f19601f820116820180604052508101906110ec9190611e97565b905060006111988473ffffffffffffffffffffffffffffffffffffffff166317caf6f16040518163ffffffff1660e01b815260040160206040518083038186803b15801561113957600080fd5b505afa15801561114d573d6000803e3d6000fd5b505050506040513d601f19601f820116820180604052508101906111719190611ec4565b61118a60035485602001516118f390919063ffffffff16565b6119cc90919063ffffffff16565b9050809250505092915050565b6111ad611a16565b73ffffffffffffffffffffffffffffffffffffffff166111cb61122d565b73ffffffffffffffffffffffffffffffffffffffff1614611221576040517f08c379a0000000000000000000000000000000000000000000000000000000008152600401611218906121c7565b60405180910390fd5b61122b6000611a1e565b565b60008060009054906101000a900473ffffffffffffffffffffffffffffffffffffffff16905090565b600160009054906101000a900473ffffffffffffffffffffffffffffffffffffffff1681565b611284611a16565b73ffffffffffffffffffffffffffffffffffffffff166112a261122d565b73ffffffffffffffffffffffffffffffffffffffff16146112f8576040517f08c379a00000000000000000000000000000000000000000000000000000000081526004016112ef906121c7565b60405180910390fd5b80600460006101000a81548173ffffffffffffffffffffffffffffffffffffffff021916908373ffffffffffffffffffffffffffffffffffffffff16021790555050565b6000808273ffffffffffffffffffffffffffffffffffffffff16636a6d964e876040518263ffffffff1660e01b815260040161137891906121e7565b60206040518083038186803b15801561139057600080fd5b505afa1580156113a4573d6000803e3d6000fd5b505050506040513d601f19601f820116820180604052508101906113c89190611ec4565b90506000808514156113e4576113dd86610550565b9050611461565b6001851415611460578573ffffffffffffffffffffffffffffffffffffffff16600160009054906101000a900473ffffffffffffffffffffffffffffffffffffffff1673ffffffffffffffffffffffffffffffffffffffff1614156114535761144c86610e54565b905061145f565b61145c866102f9565b90505b5b5b6114816003548284611473919061235f565b6119cc90919063ffffffff16565b92505050949350505050565b6000806115168373ffffffffffffffffffffffffffffffffffffffff1663141aa0ba6040518163ffffffff1660e01b815260040160206040518083038186803b1580156114d957600080fd5b505afa1580156114ed573d6000803e3d6000fd5b505050506040513d601f19601f820116820180604052508101906115119190611d6d565b6102f9565b905050919050565b6000808273ffffffffffffffffffffffffffffffffffffffff16631526fe27876040518263ffffffff1660e01b815260040161155a91906121e7565b60c06040518083038186803b15801561157257600080fd5b505afa158015611586573d6000803e3d6000fd5b505050506040513d601f19601f820116820180604052508101906115aa9190611e97565b905060006116568473ffffffffffffffffffffffffffffffffffffffff166317caf6f16040518163ffffffff1660e01b815260040160206040518083038186803b1580156115f757600080fd5b505afa15801561160b573d6000803e3d6000fd5b505050506040513d601f19601f8201168201806040525081019061162f9190611ec4565b61164860035485602001516118f390919063ffffffff16565b6119cc90919063ffffffff16565b905060006116e08573ffffffffffffffffffffffffffffffffffffffff1663141aa0ba6040518163ffffffff1660e01b815260040160206040518083038186803b1580156116a357600080fd5b505afa1580156116b7573d6000803e3d6000fd5b505050506040513d601f19601f820116820180604052508101906116db9190611d6d565b6102f9565b905060006117768673ffffffffffffffffffffffffffffffffffffffff1663a1eef8216040518163ffffffff1660e01b815260040160206040518083038186803b15801561172d57600080fd5b505afa158015611741573d6000803e3d6000fd5b505050506040513d601f19601f820116820180604052508101906117659190611ec4565b6005546118f390919063ffffffff16565b9050600061178d84836118f390919063ffffffff16565b9050600061179d8b8b8b8b61133c565b90506117eb60646117dd836117cf6003546117c18a896118f390919063ffffffff16565b6119cc90919063ffffffff16565b6119cc90919063ffffffff16565b6118f390919063ffffffff16565b9650505050505050949350505050565b611803611a16565b73ffffffffffffffffffffffffffffffffffffffff1661182161122d565b73ffffffffffffffffffffffffffffffffffffffff1614611877576040517f08c379a000000000000000000000000000000000000000000000000000000000815260040161186e906121c7565b60405180910390fd5b600073ffffffffffffffffffffffffffffffffffffffff168173ffffffffffffffffffffffffffffffffffffffff1614156118e7576040517f08c379a00000000000000000000000000000000000000000000000000000000081526004016118de90612167565b60405180910390fd5b6118f081611a1e565b50565b6000808314156119065760009050611968565b60008284611914919061235f565b9050828482611923919061232e565b14611963576040517f08c379a000000000000000000000000000000000000000000000000000000000815260040161195a906121a7565b60405180910390fd5b809150505b92915050565b600080828461197d91906122d8565b9050838110156119c2576040517f08c379a00000000000000000000000000000000000000000000000000000000081526004016119b990612187565b60405180910390fd5b8091505092915050565b6000611a0e83836040518060400160405280601a81526020017f536166654d6174683a206469766973696f6e206279207a65726f000000000000815250611ae2565b905092915050565b600033905090565b60008060009054906101000a900473ffffffffffffffffffffffffffffffffffffffff169050816000806101000a81548173ffffffffffffffffffffffffffffffffffffffff021916908373ffffffffffffffffffffffffffffffffffffffff1602179055508173ffffffffffffffffffffffffffffffffffffffff168173ffffffffffffffffffffffffffffffffffffffff167f8be0079c531659141344cd1fd0a4f28419497f9722a3daafe3b4186f6b6457e060405160405180910390a35050565b60008083118290611b29576040517f08c379a0000000000000000000000000000000000000000000000000000000008152600401611b209190612145565b60405180910390fd5b5060008385611b38919061232e565b9050809150509392505050565b6000611b58611b5384612257565b612232565b90508083825260208201905082856020860282011115611b7b57611b7a6125af565b5b60005b85811015611bab5781611b918882611d2b565b845260208401935060208301925050600181019050611b7e565b5050509392505050565b600081359050611bc4816126bf565b92915050565b600081519050611bd9816126bf565b92915050565b600082601f830112611bf457611bf36125a5565b5b8151611c04848260208601611b45565b91505092915050565b600081519050611c1c816126d6565b92915050565b600081519050611c31816126ed565b92915050565b600081359050611c4681612704565b92915050565b600081359050611c5b8161271b565b92915050565b600081359050611c7081612732565b92915050565b600060c08284031215611c8c57611c8b6125aa565b5b611c9660c0612232565b90506000611ca684828501611c0d565b6000830152506020611cba84828501611d2b565b6020830152506040611cce84828501611d2b565b6040830152506060611ce284828501611d2b565b6060830152506080611cf684828501611c22565b60808301525060a0611d0a84828501611c0d565b60a08301525092915050565b600081359050611d2581612749565b92915050565b600081519050611d3a81612749565b92915050565b600060208284031215611d5657611d556125b9565b5b6000611d6484828501611bb5565b91505092915050565b600060208284031215611d8357611d826125b9565b5b6000611d9184828501611bca565b91505092915050565b600060208284031215611db057611daf6125b9565b5b600082015167ffffffffffffffff811115611dce57611dcd6125b4565b5b611dda84828501611bdf565b91505092915050565b600060208284031215611df957611df86125b9565b5b6000611e0784828501611c0d565b91505092915050565b600060208284031215611e2657611e256125b9565b5b6000611e3484828501611c37565b91505092915050565b600060208284031215611e5357611e526125b9565b5b6000611e6184828501611c4c565b91505092915050565b600060208284031215611e8057611e7f6125b9565b5b6000611e8e84828501611c61565b91505092915050565b600060c08284031215611ead57611eac6125b9565b5b6000611ebb84828501611c76565b91505092915050565b600060208284031215611eda57611ed96125b9565b5b6000611ee884828501611d2b565b91505092915050565b60008060008060808587031215611f0b57611f0a6125b9565b5b6000611f1987828801611d16565b9450506020611f2a87828801611c37565b9350506040611f3b87828801611d16565b9250506060611f4c87828801611c4c565b91505092959194509250565b60008060408385031215611f6f57611f6e6125b9565b5b6000611f7d85828601611d16565b9250506020611f8e85828601611c4c565b9150509250929050565b6000611fa48383611fb0565b60208301905092915050565b611fb9816123b9565b82525050565b611fc8816123b9565b82525050565b6000611fd982612293565b611fe381856122b6565b9350611fee83612283565b8060005b8381101561201f5781516120068882611f98565b9750612011836122a9565b925050600181019050611ff2565b5085935050505092915050565b6120358161244f565b82525050565b60006120468261229e565b61205081856122c7565b9350612060818560208601612485565b612069816125be565b840191505092915050565b60006120816026836122c7565b915061208c826125cf565b604082019050919050565b60006120a4601b836122c7565b91506120af8261261e565b602082019050919050565b60006120c76021836122c7565b91506120d282612647565b604082019050919050565b60006120ea6020836122c7565b91506120f582612696565b602082019050919050565b61210981612445565b82525050565b60006020820190506121246000830184611fbf565b92915050565b600060208201905061213f600083018461202c565b92915050565b6000602082019050818103600083015261215f818461203b565b905092915050565b6000602082019050818103600083015261218081612074565b9050919050565b600060208201905081810360008301526121a081612097565b9050919050565b600060208201905081810360008301526121c0816120ba565b9050919050565b600060208201905081810360008301526121e0816120dd565b9050919050565b60006020820190506121fc6000830184612100565b92915050565b60006040820190506122176000830185612100565b81810360208301526122298184611fce565b90509392505050565b600061223c61224d565b905061224882826124b8565b919050565b6000604051905090565b600067ffffffffffffffff82111561227257612271612576565b5b602082029050602081019050919050565b6000819050602082019050919050565b600081519050919050565b600081519050919050565b6000602082019050919050565b600082825260208201905092915050565b600082825260208201905092915050565b60006122e382612445565b91506122ee83612445565b9250827fffffffffffffffffffffffffffffffffffffffffffffffffffffffffffffffff03821115612323576123226124e9565b5b828201905092915050565b600061233982612445565b915061234483612445565b92508261235457612353612518565b5b828204905092915050565b600061236a82612445565b915061237583612445565b9250817fffffffffffffffffffffffffffffffffffffffffffffffffffffffffffffffff04831182151516156123ae576123ad6124e9565b5b828202905092915050565b60006123c482612425565b9050919050565b60006123d6826123b9565b9050919050565b60006123e8826123b9565b9050919050565b60006123fa826123b9565b9050919050565b600061240c826123b9565b9050919050565b600061241e826123b9565b9050919050565b600073ffffffffffffffffffffffffffffffffffffffff82169050919050565b6000819050919050565b600061245a82612461565b9050919050565b600061246c82612473565b9050919050565b600061247e82612425565b9050919050565b60005b838110156124a3578082015181840152602081019050612488565b838111156124b2576000848401525b50505050565b6124c1826125be565b810181811067ffffffffffffffff821117156124e0576124df612576565b5b80604052505050565b7f4e487b7100000000000000000000000000000000000000000000000000000000600052601160045260246000fd5b7f4e487b7100000000000000000000000000000000000000000000000000000000600052601260045260246000fd5b7f4e487b7100000000000000000000000000000000000000000000000000000000600052603260045260246000fd5b7f4e487b7100000000000000000000000000000000000000000000000000000000600052604160045260246000fd5b600080fd5b600080fd5b600080fd5b600080fd5b600080fd5b6000601f19601f8301169050919050565b7f4f776e61626c653a206e6577206f776e657220697320746865207a65726f206160008201527f6464726573730000000000000000000000000000000000000000000000000000602082015250565b7f536166654d6174683a206164646974696f6e206f766572666c6f770000000000600082015250565b7f536166654d6174683a206d756c7469706c69636174696f6e206f766572666c6f60008201527f7700000000000000000000000000000000000000000000000000000000000000602082015250565b7f4f776e61626c653a2063616c6c6572206973206e6f7420746865206f776e6572600082015250565b6126c8816123b9565b81146126d357600080fd5b50565b6126df816123cb565b81146126ea57600080fd5b50565b6126f6816123dd565b811461270157600080fd5b50565b61270d816123ef565b811461271857600080fd5b50565b61272481612401565b811461272f57600080fd5b50565b61273b81612413565b811461274657600080fd5b50565b61275281612445565b811461275d57600080fd5b5056fea26469706673582212206c885d00b150a471d5078aba2c10209dbae7cbb8d8ac57a1f449072d66895dfb64736f6c63430008070033",
					"opcodes": "PUSH1 0x80 PUSH1 0x40 MSTORE PUSH20 0xAE13D989DAC2F0DEBFF460AC112A837C89BAA7CD PUSH1 0x1 PUSH1 0x0 PUSH2 0x100 EXP DUP2 SLOAD DUP2 PUSH20 0xFFFFFFFFFFFFFFFFFFFFFFFFFFFFFFFFFFFFFFFF MUL NOT AND SWAP1 DUP4 PUSH20 0xFFFFFFFFFFFFFFFFFFFFFFFFFFFFFFFFFFFFFFFF AND MUL OR SWAP1 SSTORE POP PUSH20 0x78867BBEEF44F2326BF8DDD1941A4439382EF2A7 PUSH1 0x2 PUSH1 0x0 PUSH2 0x100 EXP DUP2 SLOAD DUP2 PUSH20 0xFFFFFFFFFFFFFFFFFFFFFFFFFFFFFFFFFFFFFFFF MUL NOT AND SWAP1 DUP4 PUSH20 0xFFFFFFFFFFFFFFFFFFFFFFFFFFFFFFFFFFFFFFFF AND MUL OR SWAP1 SSTORE POP PUSH8 0xDE0B6B3A7640000 PUSH1 0x3 SSTORE PUSH3 0xA06680 PUSH1 0x5 SSTORE CALLVALUE DUP1 ISZERO PUSH3 0xCE JUMPI PUSH1 0x0 DUP1 REVERT JUMPDEST POP PUSH1 0x40 MLOAD PUSH3 0x2A7E CODESIZE SUB DUP1 PUSH3 0x2A7E DUP4 CODECOPY DUP2 DUP2 ADD PUSH1 0x40 MSTORE DUP2 ADD SWAP1 PUSH3 0xF4 SWAP2 SWAP1 PUSH3 0x23F JUMP JUMPDEST PUSH3 0x114 PUSH3 0x108 PUSH3 0x15C PUSH1 0x20 SHL PUSH1 0x20 SHR JUMP JUMPDEST PUSH3 0x164 PUSH1 0x20 SHL PUSH1 0x20 SHR JUMP JUMPDEST DUP1 PUSH1 0x4 PUSH1 0x0 PUSH2 0x100 EXP DUP2 SLOAD DUP2 PUSH20 0xFFFFFFFFFFFFFFFFFFFFFFFFFFFFFFFFFFFFFFFF MUL NOT AND SWAP1 DUP4 PUSH20 0xFFFFFFFFFFFFFFFFFFFFFFFFFFFFFFFFFFFFFFFF AND MUL OR SWAP1 SSTORE POP POP PUSH3 0x2D8 JUMP JUMPDEST PUSH1 0x0 CALLER SWAP1 POP SWAP1 JUMP JUMPDEST PUSH1 0x0 DUP1 PUSH1 0x0 SWAP1 SLOAD SWAP1 PUSH2 0x100 EXP SWAP1 DIV PUSH20 0xFFFFFFFFFFFFFFFFFFFFFFFFFFFFFFFFFFFFFFFF AND SWAP1 POP DUP2 PUSH1 0x0 DUP1 PUSH2 0x100 EXP DUP2 SLOAD DUP2 PUSH20 0xFFFFFFFFFFFFFFFFFFFFFFFFFFFFFFFFFFFFFFFF MUL NOT AND SWAP1 DUP4 PUSH20 0xFFFFFFFFFFFFFFFFFFFFFFFFFFFFFFFFFFFFFFFF AND MUL OR SWAP1 SSTORE POP DUP2 PUSH20 0xFFFFFFFFFFFFFFFFFFFFFFFFFFFFFFFFFFFFFFFF AND DUP2 PUSH20 0xFFFFFFFFFFFFFFFFFFFFFFFFFFFFFFFFFFFFFFFF AND PUSH32 0x8BE0079C531659141344CD1FD0A4F28419497F9722A3DAAFE3B4186F6B6457E0 PUSH1 0x40 MLOAD PUSH1 0x40 MLOAD DUP1 SWAP2 SUB SWAP1 LOG3 POP POP JUMP JUMPDEST PUSH1 0x0 DUP2 MLOAD SWAP1 POP PUSH3 0x239 DUP2 PUSH3 0x2BE JUMP JUMPDEST SWAP3 SWAP2 POP POP JUMP JUMPDEST PUSH1 0x0 PUSH1 0x20 DUP3 DUP5 SUB SLT ISZERO PUSH3 0x258 JUMPI PUSH3 0x257 PUSH3 0x2B9 JUMP JUMPDEST JUMPDEST PUSH1 0x0 PUSH3 0x268 DUP5 DUP3 DUP6 ADD PUSH3 0x228 JUMP JUMPDEST SWAP2 POP POP SWAP3 SWAP2 POP POP JUMP JUMPDEST PUSH1 0x0 PUSH3 0x27E DUP3 PUSH3 0x299 JUMP JUMPDEST SWAP1 POP SWAP2 SWAP1 POP JUMP JUMPDEST PUSH1 0x0 PUSH3 0x292 DUP3 PUSH3 0x271 JUMP JUMPDEST SWAP1 POP SWAP2 SWAP1 POP JUMP JUMPDEST PUSH1 0x0 PUSH20 0xFFFFFFFFFFFFFFFFFFFFFFFFFFFFFFFFFFFFFFFF DUP3 AND SWAP1 POP SWAP2 SWAP1 POP JUMP JUMPDEST PUSH1 0x0 DUP1 REVERT JUMPDEST PUSH3 0x2C9 DUP2 PUSH3 0x285 JUMP JUMPDEST DUP2 EQ PUSH3 0x2D5 JUMPI PUSH1 0x0 DUP1 REVERT JUMPDEST POP JUMP JUMPDEST PUSH2 0x2796 DUP1 PUSH3 0x2E8 PUSH1 0x0 CODECOPY PUSH1 0x0 RETURN INVALID PUSH1 0x80 PUSH1 0x40 MSTORE CALLVALUE DUP1 ISZERO PUSH2 0x10 JUMPI PUSH1 0x0 DUP1 REVERT JUMPDEST POP PUSH1 0x4 CALLDATASIZE LT PUSH2 0xEA JUMPI PUSH1 0x0 CALLDATALOAD PUSH1 0xE0 SHR DUP1 PUSH4 0x8DA5CB5B GT PUSH2 0x8C JUMPI DUP1 PUSH4 0xD979FB5F GT PUSH2 0x66 JUMPI DUP1 PUSH4 0xD979FB5F EQ PUSH2 0x24D JUMPI DUP1 PUSH4 0xDBA88007 EQ PUSH2 0x27D JUMPI DUP1 PUSH4 0xDBB79348 EQ PUSH2 0x2AD JUMPI DUP1 PUSH4 0xF2FDE38B EQ PUSH2 0x2DD JUMPI PUSH2 0xEA JUMP JUMPDEST DUP1 PUSH4 0x8DA5CB5B EQ PUSH2 0x1F5 JUMPI DUP1 PUSH4 0x8DD95002 EQ PUSH2 0x213 JUMPI DUP1 PUSH4 0xC0D78655 EQ PUSH2 0x231 JUMPI PUSH2 0xEA JUMP JUMPDEST DUP1 PUSH4 0x3B979D45 GT PUSH2 0xC8 JUMPI DUP1 PUSH4 0x3B979D45 EQ PUSH2 0x16D JUMPI DUP1 PUSH4 0x484F4EA9 EQ PUSH2 0x19D JUMPI DUP1 PUSH4 0x4ABDDBE3 EQ PUSH2 0x1BB JUMPI DUP1 PUSH4 0x715018A6 EQ PUSH2 0x1EB JUMPI PUSH2 0xEA JUMP JUMPDEST DUP1 PUSH4 0x19047F8A EQ PUSH2 0xEF JUMPI DUP1 PUSH4 0x215CC989 EQ PUSH2 0x11F JUMPI DUP1 PUSH4 0x3268CC56 EQ PUSH2 0x14F JUMPI JUMPDEST PUSH1 0x0 DUP1 REVERT JUMPDEST PUSH2 0x109 PUSH1 0x4 DUP1 CALLDATASIZE SUB DUP2 ADD SWAP1 PUSH2 0x104 SWAP2 SWAP1 PUSH2 0x1D40 JUMP JUMPDEST PUSH2 0x2F9 JUMP JUMPDEST PUSH1 0x40 MLOAD PUSH2 0x116 SWAP2 SWAP1 PUSH2 0x21E7 JUMP JUMPDEST PUSH1 0x40 MLOAD DUP1 SWAP2 SUB SWAP1 RETURN JUMPDEST PUSH2 0x139 PUSH1 0x4 DUP1 CALLDATASIZE SUB DUP2 ADD SWAP1 PUSH2 0x134 SWAP2 SWAP1 PUSH2 0x1E10 JUMP JUMPDEST PUSH2 0x550 JUMP JUMPDEST PUSH1 0x40 MLOAD PUSH2 0x146 SWAP2 SWAP1 PUSH2 0x21E7 JUMP JUMPDEST PUSH1 0x40 MLOAD DUP1 SWAP2 SUB SWAP1 RETURN JUMPDEST PUSH2 0x157 PUSH2 0xE2E JUMP JUMPDEST PUSH1 0x40 MLOAD PUSH2 0x164 SWAP2 SWAP1 PUSH2 0x212A JUMP JUMPDEST PUSH1 0x40 MLOAD DUP1 SWAP2 SUB SWAP1 RETURN JUMPDEST PUSH2 0x187 PUSH1 0x4 DUP1 CALLDATASIZE SUB DUP2 ADD SWAP1 PUSH2 0x182 SWAP2 SWAP1 PUSH2 0x1D40 JUMP JUMPDEST PUSH2 0xE54 JUMP JUMPDEST PUSH1 0x40 MLOAD PUSH2 0x194 SWAP2 SWAP1 PUSH2 0x21E7 JUMP JUMPDEST PUSH1 0x40 MLOAD DUP1 SWAP2 SUB SWAP1 RETURN JUMPDEST PUSH2 0x1A5 PUSH2 0x103A JUMP JUMPDEST PUSH1 0x40 MLOAD PUSH2 0x1B2 SWAP2 SWAP1 PUSH2 0x210F JUMP JUMPDEST PUSH1 0x40 MLOAD DUP1 SWAP2 SUB SWAP1 RETURN JUMPDEST PUSH2 0x1D5 PUSH1 0x4 DUP1 CALLDATASIZE SUB DUP2 ADD SWAP1 PUSH2 0x1D0 SWAP2 SWAP1 PUSH2 0x1F58 JUMP JUMPDEST PUSH2 0x1060 JUMP JUMPDEST PUSH1 0x40 MLOAD PUSH2 0x1E2 SWAP2 SWAP1 PUSH2 0x21E7 JUMP JUMPDEST PUSH1 0x40 MLOAD DUP1 SWAP2 SUB SWAP1 RETURN JUMPDEST PUSH2 0x1F3 PUSH2 0x11A5 JUMP JUMPDEST STOP JUMPDEST PUSH2 0x1FD PUSH2 0x122D JUMP JUMPDEST PUSH1 0x40 MLOAD PUSH2 0x20A SWAP2 SWAP1 PUSH2 0x210F JUMP JUMPDEST PUSH1 0x40 MLOAD DUP1 SWAP2 SUB SWAP1 RETURN JUMPDEST PUSH2 0x21B PUSH2 0x1256 JUMP JUMPDEST PUSH1 0x40 MLOAD PUSH2 0x228 SWAP2 SWAP1 PUSH2 0x210F JUMP JUMPDEST PUSH1 0x40 MLOAD DUP1 SWAP2 SUB SWAP1 RETURN JUMPDEST PUSH2 0x24B PUSH1 0x4 DUP1 CALLDATASIZE SUB DUP2 ADD SWAP1 PUSH2 0x246 SWAP2 SWAP1 PUSH2 0x1E6A JUMP JUMPDEST PUSH2 0x127C JUMP JUMPDEST STOP JUMPDEST PUSH2 0x267 PUSH1 0x4 DUP1 CALLDATASIZE SUB DUP2 ADD SWAP1 PUSH2 0x262 SWAP2 SWAP1 PUSH2 0x1EF1 JUMP JUMPDEST PUSH2 0x133C JUMP JUMPDEST PUSH1 0x40 MLOAD PUSH2 0x274 SWAP2 SWAP1 PUSH2 0x21E7 JUMP JUMPDEST PUSH1 0x40 MLOAD DUP1 SWAP2 SUB SWAP1 RETURN JUMPDEST PUSH2 0x297 PUSH1 0x4 DUP1 CALLDATASIZE SUB DUP2 ADD SWAP1 PUSH2 0x292 SWAP2 SWAP1 PUSH2 0x1E3D JUMP JUMPDEST PUSH2 0x148D JUMP JUMPDEST PUSH1 0x40 MLOAD PUSH2 0x2A4 SWAP2 SWAP1 PUSH2 0x21E7 JUMP JUMPDEST PUSH1 0x40 MLOAD DUP1 SWAP2 SUB SWAP1 RETURN JUMPDEST PUSH2 0x2C7 PUSH1 0x4 DUP1 CALLDATASIZE SUB DUP2 ADD SWAP1 PUSH2 0x2C2 SWAP2 SWAP1 PUSH2 0x1EF1 JUMP JUMPDEST PUSH2 0x151E JUMP JUMPDEST PUSH1 0x40 MLOAD PUSH2 0x2D4 SWAP2 SWAP1 PUSH2 0x21E7 JUMP JUMPDEST PUSH1 0x40 MLOAD DUP1 SWAP2 SUB SWAP1 RETURN JUMPDEST PUSH2 0x2F7 PUSH1 0x4 DUP1 CALLDATASIZE SUB DUP2 ADD SWAP1 PUSH2 0x2F2 SWAP2 SWAP1 PUSH2 0x1D40 JUMP JUMPDEST PUSH2 0x17FB JUMP JUMPDEST STOP JUMPDEST PUSH1 0x0 DUP1 PUSH1 0x3 PUSH8 0xFFFFFFFFFFFFFFFF DUP2 GT ISZERO PUSH2 0x317 JUMPI PUSH2 0x316 PUSH2 0x2576 JUMP JUMPDEST JUMPDEST PUSH1 0x40 MLOAD SWAP1 DUP1 DUP3 MSTORE DUP1 PUSH1 0x20 MUL PUSH1 0x20 ADD DUP3 ADD PUSH1 0x40 MSTORE DUP1 ISZERO PUSH2 0x345 JUMPI DUP2 PUSH1 0x20 ADD PUSH1 0x20 DUP3 MUL DUP1 CALLDATASIZE DUP4 CALLDATACOPY DUP1 DUP3 ADD SWAP2 POP POP SWAP1 POP JUMPDEST POP SWAP1 POP DUP3 DUP2 PUSH1 0x0 DUP2 MLOAD DUP2 LT PUSH2 0x35D JUMPI PUSH2 0x35C PUSH2 0x2547 JUMP JUMPDEST JUMPDEST PUSH1 0x20 MUL PUSH1 0x20 ADD ADD SWAP1 PUSH20 0xFFFFFFFFFFFFFFFFFFFFFFFFFFFFFFFFFFFFFFFF AND SWAP1 DUP2 PUSH20 0xFFFFFFFFFFFFFFFFFFFFFFFFFFFFFFFFFFFFFFFF AND DUP2 MSTORE POP POP PUSH1 0x1 PUSH1 0x0 SWAP1 SLOAD SWAP1 PUSH2 0x100 EXP SWAP1 DIV PUSH20 0xFFFFFFFFFFFFFFFFFFFFFFFFFFFFFFFFFFFFFFFF AND DUP2 PUSH1 0x1 DUP2 MLOAD DUP2 LT PUSH2 0x3CE JUMPI PUSH2 0x3CD PUSH2 0x2547 JUMP JUMPDEST JUMPDEST PUSH1 0x20 MUL PUSH1 0x20 ADD ADD SWAP1 PUSH20 0xFFFFFFFFFFFFFFFFFFFFFFFFFFFFFFFFFFFFFFFF AND SWAP1 DUP2 PUSH20 0xFFFFFFFFFFFFFFFFFFFFFFFFFFFFFFFFFFFFFFFF AND DUP2 MSTORE POP POP PUSH1 0x2 PUSH1 0x0 SWAP1 SLOAD SWAP1 PUSH2 0x100 EXP SWAP1 DIV PUSH20 0xFFFFFFFFFFFFFFFFFFFFFFFFFFFFFFFFFFFFFFFF AND DUP2 PUSH1 0x2 DUP2 MLOAD DUP2 LT PUSH2 0x43F JUMPI PUSH2 0x43E PUSH2 0x2547 JUMP JUMPDEST JUMPDEST PUSH1 0x20 MUL PUSH1 0x20 ADD ADD SWAP1 PUSH20 0xFFFFFFFFFFFFFFFFFFFFFFFFFFFFFFFFFFFFFFFF AND SWAP1 DUP2 PUSH20 0xFFFFFFFFFFFFFFFFFFFFFFFFFFFFFFFFFFFFFFFF AND DUP2 MSTORE POP POP PUSH1 0x4 PUSH1 0x0 SWAP1 SLOAD SWAP1 PUSH2 0x100 EXP SWAP1 DIV PUSH20 0xFFFFFFFFFFFFFFFFFFFFFFFFFFFFFFFFFFFFFFFF AND PUSH20 0xFFFFFFFFFFFFFFFFFFFFFFFFFFFFFFFFFFFFFFFF AND PUSH4 0xD06CA61F PUSH1 0x3 SLOAD DUP4 PUSH1 0x40 MLOAD DUP4 PUSH4 0xFFFFFFFF AND PUSH1 0xE0 SHL DUP2 MSTORE PUSH1 0x4 ADD PUSH2 0x4D8 SWAP3 SWAP2 SWAP1 PUSH2 0x2202 JUMP JUMPDEST PUSH1 0x0 PUSH1 0x40 MLOAD DUP1 DUP4 SUB DUP2 DUP7 DUP1 EXTCODESIZE ISZERO DUP1 ISZERO PUSH2 0x4F0 JUMPI PUSH1 0x0 DUP1 REVERT JUMPDEST POP GAS STATICCALL ISZERO DUP1 ISZERO PUSH2 0x504 JUMPI RETURNDATASIZE PUSH1 0x0 DUP1 RETURNDATACOPY RETURNDATASIZE PUSH1 0x0 REVERT JUMPDEST POP POP POP POP PUSH1 0x40 MLOAD RETURNDATASIZE PUSH1 0x0 DUP3 RETURNDATACOPY RETURNDATASIZE PUSH1 0x1F NOT PUSH1 0x1F DUP3 ADD AND DUP3 ADD DUP1 PUSH1 0x40 MSTORE POP DUP2 ADD SWAP1 PUSH2 0x52D SWAP2 SWAP1 PUSH2 0x1D9A JUMP JUMPDEST PUSH1 0x2 DUP2 MLOAD DUP2 LT PUSH2 0x540 JUMPI PUSH2 0x53F PUSH2 0x2547 JUMP JUMPDEST JUMPDEST PUSH1 0x20 MUL PUSH1 0x20 ADD ADD MLOAD SWAP2 POP POP SWAP2 SWAP1 POP JUMP JUMPDEST PUSH1 0x0 DUP1 PUSH1 0x0 DUP4 PUSH20 0xFFFFFFFFFFFFFFFFFFFFFFFFFFFFFFFFFFFFFFFF AND PUSH4 0xDFE1681 PUSH1 0x40 MLOAD DUP2 PUSH4 0xFFFFFFFF AND PUSH1 0xE0 SHL DUP2 MSTORE PUSH1 0x4 ADD PUSH1 0x20 PUSH1 0x40 MLOAD DUP1 DUP4 SUB DUP2 DUP7 DUP1 EXTCODESIZE ISZERO DUP1 ISZERO PUSH2 0x59B JUMPI PUSH1 0x0 DUP1 REVERT JUMPDEST POP GAS STATICCALL ISZERO DUP1 ISZERO PUSH2 0x5AF JUMPI RETURNDATASIZE PUSH1 0x0 DUP1 RETURNDATACOPY RETURNDATASIZE PUSH1 0x0 REVERT JUMPDEST POP POP POP POP PUSH1 0x40 MLOAD RETURNDATASIZE PUSH1 0x1F NOT PUSH1 0x1F DUP3 ADD AND DUP3 ADD DUP1 PUSH1 0x40 MSTORE POP DUP2 ADD SWAP1 PUSH2 0x5D3 SWAP2 SWAP1 PUSH2 0x1DE3 JUMP JUMPDEST PUSH20 0xFFFFFFFFFFFFFFFFFFFFFFFFFFFFFFFFFFFFFFFF AND PUSH1 0x1 PUSH1 0x0 SWAP1 SLOAD SWAP1 PUSH2 0x100 EXP SWAP1 DIV PUSH20 0xFFFFFFFFFFFFFFFFFFFFFFFFFFFFFFFFFFFFFFFF AND PUSH20 0xFFFFFFFFFFFFFFFFFFFFFFFFFFFFFFFFFFFFFFFF AND EQ ISZERO PUSH2 0x7CC JUMPI PUSH2 0x7C5 PUSH2 0x6B1 DUP6 PUSH20 0xFFFFFFFFFFFFFFFFFFFFFFFFFFFFFFFFFFFFFFFF AND PUSH4 0xDFE1681 PUSH1 0x40 MLOAD DUP2 PUSH4 0xFFFFFFFF AND PUSH1 0xE0 SHL DUP2 MSTORE PUSH1 0x4 ADD PUSH1 0x20 PUSH1 0x40 MLOAD DUP1 DUP4 SUB DUP2 DUP7 DUP1 EXTCODESIZE ISZERO DUP1 ISZERO PUSH2 0x674 JUMPI PUSH1 0x0 DUP1 REVERT JUMPDEST POP GAS STATICCALL ISZERO DUP1 ISZERO PUSH2 0x688 JUMPI RETURNDATASIZE PUSH1 0x0 DUP1 RETURNDATACOPY RETURNDATASIZE PUSH1 0x0 REVERT JUMPDEST POP POP POP POP PUSH1 0x40 MLOAD RETURNDATASIZE PUSH1 0x1F NOT PUSH1 0x1F DUP3 ADD AND DUP3 ADD DUP1 PUSH1 0x40 MSTORE POP DUP2 ADD SWAP1 PUSH2 0x6AC SWAP2 SWAP1 PUSH2 0x1DE3 JUMP JUMPDEST PUSH2 0xE54 JUMP JUMPDEST DUP6 PUSH20 0xFFFFFFFFFFFFFFFFFFFFFFFFFFFFFFFFFFFFFFFF AND PUSH4 0xDFE1681 PUSH1 0x40 MLOAD DUP2 PUSH4 0xFFFFFFFF AND PUSH1 0xE0 SHL DUP2 MSTORE PUSH1 0x4 ADD PUSH1 0x20 PUSH1 0x40 MLOAD DUP1 DUP4 SUB DUP2 DUP7 DUP1 EXTCODESIZE ISZERO DUP1 ISZERO PUSH2 0x6F7 JUMPI PUSH1 0x0 DUP1 REVERT JUMPDEST POP GAS STATICCALL ISZERO DUP1 ISZERO PUSH2 0x70B JUMPI RETURNDATASIZE PUSH1 0x0 DUP1 RETURNDATACOPY RETURNDATASIZE PUSH1 0x0 REVERT JUMPDEST POP POP POP POP PUSH1 0x40 MLOAD RETURNDATASIZE PUSH1 0x1F NOT PUSH1 0x1F DUP3 ADD AND DUP3 ADD DUP1 PUSH1 0x40 MSTORE POP DUP2 ADD SWAP1 PUSH2 0x72F SWAP2 SWAP1 PUSH2 0x1DE3 JUMP JUMPDEST PUSH20 0xFFFFFFFFFFFFFFFFFFFFFFFFFFFFFFFFFFFFFFFF AND PUSH4 0x70A08231 DUP8 PUSH1 0x40 MLOAD DUP3 PUSH4 0xFFFFFFFF AND PUSH1 0xE0 SHL DUP2 MSTORE PUSH1 0x4 ADD PUSH2 0x767 SWAP2 SWAP1 PUSH2 0x210F JUMP JUMPDEST PUSH1 0x20 PUSH1 0x40 MLOAD DUP1 DUP4 SUB DUP2 DUP7 DUP1 EXTCODESIZE ISZERO DUP1 ISZERO PUSH2 0x77F JUMPI PUSH1 0x0 DUP1 REVERT JUMPDEST POP GAS STATICCALL ISZERO DUP1 ISZERO PUSH2 0x793 JUMPI RETURNDATASIZE PUSH1 0x0 DUP1 RETURNDATACOPY RETURNDATASIZE PUSH1 0x0 REVERT JUMPDEST POP POP POP POP PUSH1 0x40 MLOAD RETURNDATASIZE PUSH1 0x1F NOT PUSH1 0x1F DUP3 ADD AND DUP3 ADD DUP1 PUSH1 0x40 MSTORE POP DUP2 ADD SWAP1 PUSH2 0x7B7 SWAP2 SWAP1 PUSH2 0x1EC4 JUMP JUMPDEST PUSH2 0x18F3 SWAP1 SWAP2 SWAP1 PUSH4 0xFFFFFFFF AND JUMP JUMPDEST SWAP2 POP PUSH2 0x96C JUMP JUMPDEST PUSH2 0x969 PUSH2 0x855 DUP6 PUSH20 0xFFFFFFFFFFFFFFFFFFFFFFFFFFFFFFFFFFFFFFFF AND PUSH4 0xDFE1681 PUSH1 0x40 MLOAD DUP2 PUSH4 0xFFFFFFFF AND PUSH1 0xE0 SHL DUP2 MSTORE PUSH1 0x4 ADD PUSH1 0x20 PUSH1 0x40 MLOAD DUP1 DUP4 SUB DUP2 DUP7 DUP1 EXTCODESIZE ISZERO DUP1 ISZERO PUSH2 0x818 JUMPI PUSH1 0x0 DUP1 REVERT JUMPDEST POP GAS STATICCALL ISZERO DUP1 ISZERO PUSH2 0x82C JUMPI RETURNDATASIZE PUSH1 0x0 DUP1 RETURNDATACOPY RETURNDATASIZE PUSH1 0x0 REVERT JUMPDEST POP POP POP POP PUSH1 0x40 MLOAD RETURNDATASIZE PUSH1 0x1F NOT PUSH1 0x1F DUP3 ADD AND DUP3 ADD DUP1 PUSH1 0x40 MSTORE POP DUP2 ADD SWAP1 PUSH2 0x850 SWAP2 SWAP1 PUSH2 0x1DE3 JUMP JUMPDEST PUSH2 0x2F9 JUMP JUMPDEST DUP6 PUSH20 0xFFFFFFFFFFFFFFFFFFFFFFFFFFFFFFFFFFFFFFFF AND PUSH4 0xDFE1681 PUSH1 0x40 MLOAD DUP2 PUSH4 0xFFFFFFFF AND PUSH1 0xE0 SHL DUP2 MSTORE PUSH1 0x4 ADD PUSH1 0x20 PUSH1 0x40 MLOAD DUP1 DUP4 SUB DUP2 DUP7 DUP1 EXTCODESIZE ISZERO DUP1 ISZERO PUSH2 0x89B JUMPI PUSH1 0x0 DUP1 REVERT JUMPDEST POP GAS STATICCALL ISZERO DUP1 ISZERO PUSH2 0x8AF JUMPI RETURNDATASIZE PUSH1 0x0 DUP1 RETURNDATACOPY RETURNDATASIZE PUSH1 0x0 REVERT JUMPDEST POP POP POP POP PUSH1 0x40 MLOAD RETURNDATASIZE PUSH1 0x1F NOT PUSH1 0x1F DUP3 ADD AND DUP3 ADD DUP1 PUSH1 0x40 MSTORE POP DUP2 ADD SWAP1 PUSH2 0x8D3 SWAP2 SWAP1 PUSH2 0x1DE3 JUMP JUMPDEST PUSH20 0xFFFFFFFFFFFFFFFFFFFFFFFFFFFFFFFFFFFFFFFF AND PUSH4 0x70A08231 DUP8 PUSH1 0x40 MLOAD DUP3 PUSH4 0xFFFFFFFF AND PUSH1 0xE0 SHL DUP2 MSTORE PUSH1 0x4 ADD PUSH2 0x90B SWAP2 SWAP1 PUSH2 0x210F JUMP JUMPDEST PUSH1 0x20 PUSH1 0x40 MLOAD DUP1 DUP4 SUB DUP2 DUP7 DUP1 EXTCODESIZE ISZERO DUP1 ISZERO PUSH2 0x923 JUMPI PUSH1 0x0 DUP1 REVERT JUMPDEST POP GAS STATICCALL ISZERO DUP1 ISZERO PUSH2 0x937 JUMPI RETURNDATASIZE PUSH1 0x0 DUP1 RETURNDATACOPY RETURNDATASIZE PUSH1 0x0 REVERT JUMPDEST POP POP POP POP PUSH1 0x40 MLOAD RETURNDATASIZE PUSH1 0x1F NOT PUSH1 0x1F DUP3 ADD AND DUP3 ADD DUP1 PUSH1 0x40 MSTORE POP DUP2 ADD SWAP1 PUSH2 0x95B SWAP2 SWAP1 PUSH2 0x1EC4 JUMP JUMPDEST PUSH2 0x18F3 SWAP1 SWAP2 SWAP1 PUSH4 0xFFFFFFFF AND JUMP JUMPDEST SWAP2 POP JUMPDEST DUP4 PUSH20 0xFFFFFFFFFFFFFFFFFFFFFFFFFFFFFFFFFFFFFFFF AND PUSH4 0xD21220A7 PUSH1 0x40 MLOAD DUP2 PUSH4 0xFFFFFFFF AND PUSH1 0xE0 SHL DUP2 MSTORE PUSH1 0x4 ADD PUSH1 0x20 PUSH1 0x40 MLOAD DUP1 DUP4 SUB DUP2 DUP7 DUP1 EXTCODESIZE ISZERO DUP1 ISZERO PUSH2 0x9B2 JUMPI PUSH1 0x0 DUP1 REVERT JUMPDEST POP GAS STATICCALL ISZERO DUP1 ISZERO PUSH2 0x9C6 JUMPI RETURNDATASIZE PUSH1 0x0 DUP1 RETURNDATACOPY RETURNDATASIZE PUSH1 0x0 REVERT JUMPDEST POP POP POP POP PUSH1 0x40 MLOAD RETURNDATASIZE PUSH1 0x1F NOT PUSH1 0x1F DUP3 ADD AND DUP3 ADD DUP1 PUSH1 0x40 MSTORE POP DUP2 ADD SWAP1 PUSH2 0x9EA SWAP2 SWAP1 PUSH2 0x1DE3 JUMP JUMPDEST PUSH20 0xFFFFFFFFFFFFFFFFFFFFFFFFFFFFFFFFFFFFFFFF AND PUSH1 0x1 PUSH1 0x0 SWAP1 SLOAD SWAP1 PUSH2 0x100 EXP SWAP1 DIV PUSH20 0xFFFFFFFFFFFFFFFFFFFFFFFFFFFFFFFFFFFFFFFF AND PUSH20 0xFFFFFFFFFFFFFFFFFFFFFFFFFFFFFFFFFFFFFFFF AND EQ ISZERO PUSH2 0xBE3 JUMPI PUSH2 0xBDC PUSH2 0xAC8 DUP6 PUSH20 0xFFFFFFFFFFFFFFFFFFFFFFFFFFFFFFFFFFFFFFFF AND PUSH4 0xD21220A7 PUSH1 0x40 MLOAD DUP2 PUSH4 0xFFFFFFFF AND PUSH1 0xE0 SHL DUP2 MSTORE PUSH1 0x4 ADD PUSH1 0x20 PUSH1 0x40 MLOAD DUP1 DUP4 SUB DUP2 DUP7 DUP1 EXTCODESIZE ISZERO DUP1 ISZERO PUSH2 0xA8B JUMPI PUSH1 0x0 DUP1 REVERT JUMPDEST POP GAS STATICCALL ISZERO DUP1 ISZERO PUSH2 0xA9F JUMPI RETURNDATASIZE PUSH1 0x0 DUP1 RETURNDATACOPY RETURNDATASIZE PUSH1 0x0 REVERT JUMPDEST POP POP POP POP PUSH1 0x40 MLOAD RETURNDATASIZE PUSH1 0x1F NOT PUSH1 0x1F DUP3 ADD AND DUP3 ADD DUP1 PUSH1 0x40 MSTORE POP DUP2 ADD SWAP1 PUSH2 0xAC3 SWAP2 SWAP1 PUSH2 0x1DE3 JUMP JUMPDEST PUSH2 0xE54 JUMP JUMPDEST DUP6 PUSH20 0xFFFFFFFFFFFFFFFFFFFFFFFFFFFFFFFFFFFFFFFF AND PUSH4 0xD21220A7 PUSH1 0x40 MLOAD DUP2 PUSH4 0xFFFFFFFF AND PUSH1 0xE0 SHL DUP2 MSTORE PUSH1 0x4 ADD PUSH1 0x20 PUSH1 0x40 MLOAD DUP1 DUP4 SUB DUP2 DUP7 DUP1 EXTCODESIZE ISZERO DUP1 ISZERO PUSH2 0xB0E JUMPI PUSH1 0x0 DUP1 REVERT JUMPDEST POP GAS STATICCALL ISZERO DUP1 ISZERO PUSH2 0xB22 JUMPI RETURNDATASIZE PUSH1 0x0 DUP1 RETURNDATACOPY RETURNDATASIZE PUSH1 0x0 REVERT JUMPDEST POP POP POP POP PUSH1 0x40 MLOAD RETURNDATASIZE PUSH1 0x1F NOT PUSH1 0x1F DUP3 ADD AND DUP3 ADD DUP1 PUSH1 0x40 MSTORE POP DUP2 ADD SWAP1 PUSH2 0xB46 SWAP2 SWAP1 PUSH2 0x1DE3 JUMP JUMPDEST PUSH20 0xFFFFFFFFFFFFFFFFFFFFFFFFFFFFFFFFFFFFFFFF AND PUSH4 0x70A08231 DUP8 PUSH1 0x40 MLOAD DUP3 PUSH4 0xFFFFFFFF AND PUSH1 0xE0 SHL DUP2 MSTORE PUSH1 0x4 ADD PUSH2 0xB7E SWAP2 SWAP1 PUSH2 0x210F JUMP JUMPDEST PUSH1 0x20 PUSH1 0x40 MLOAD DUP1 DUP4 SUB DUP2 DUP7 DUP1 EXTCODESIZE ISZERO DUP1 ISZERO PUSH2 0xB96 JUMPI PUSH1 0x0 DUP1 REVERT JUMPDEST POP GAS STATICCALL ISZERO DUP1 ISZERO PUSH2 0xBAA JUMPI RETURNDATASIZE PUSH1 0x0 DUP1 RETURNDATACOPY RETURNDATASIZE PUSH1 0x0 REVERT JUMPDEST POP POP POP POP PUSH1 0x40 MLOAD RETURNDATASIZE PUSH1 0x1F NOT PUSH1 0x1F DUP3 ADD AND DUP3 ADD DUP1 PUSH1 0x40 MSTORE POP DUP2 ADD SWAP1 PUSH2 0xBCE SWAP2 SWAP1 PUSH2 0x1EC4 JUMP JUMPDEST PUSH2 0x18F3 SWAP1 SWAP2 SWAP1 PUSH4 0xFFFFFFFF AND JUMP JUMPDEST SWAP1 POP PUSH2 0xD83 JUMP JUMPDEST PUSH2 0xD80 PUSH2 0xC6C DUP6 PUSH20 0xFFFFFFFFFFFFFFFFFFFFFFFFFFFFFFFFFFFFFFFF AND PUSH4 0xD21220A7 PUSH1 0x40 MLOAD DUP2 PUSH4 0xFFFFFFFF AND PUSH1 0xE0 SHL DUP2 MSTORE PUSH1 0x4 ADD PUSH1 0x20 PUSH1 0x40 MLOAD DUP1 DUP4 SUB DUP2 DUP7 DUP1 EXTCODESIZE ISZERO DUP1 ISZERO PUSH2 0xC2F JUMPI PUSH1 0x0 DUP1 REVERT JUMPDEST POP GAS STATICCALL ISZERO DUP1 ISZERO PUSH2 0xC43 JUMPI RETURNDATASIZE PUSH1 0x0 DUP1 RETURNDATACOPY RETURNDATASIZE PUSH1 0x0 REVERT JUMPDEST POP POP POP POP PUSH1 0x40 MLOAD RETURNDATASIZE PUSH1 0x1F NOT PUSH1 0x1F DUP3 ADD AND DUP3 ADD DUP1 PUSH1 0x40 MSTORE POP DUP2 ADD SWAP1 PUSH2 0xC67 SWAP2 SWAP1 PUSH2 0x1DE3 JUMP JUMPDEST PUSH2 0x2F9 JUMP JUMPDEST DUP6 PUSH20 0xFFFFFFFFFFFFFFFFFFFFFFFFFFFFFFFFFFFFFFFF AND PUSH4 0xD21220A7 PUSH1 0x40 MLOAD DUP2 PUSH4 0xFFFFFFFF AND PUSH1 0xE0 SHL DUP2 MSTORE PUSH1 0x4 ADD PUSH1 0x20 PUSH1 0x40 MLOAD DUP1 DUP4 SUB DUP2 DUP7 DUP1 EXTCODESIZE ISZERO DUP1 ISZERO PUSH2 0xCB2 JUMPI PUSH1 0x0 DUP1 REVERT JUMPDEST POP GAS STATICCALL ISZERO DUP1 ISZERO PUSH2 0xCC6 JUMPI RETURNDATASIZE PUSH1 0x0 DUP1 RETURNDATACOPY RETURNDATASIZE PUSH1 0x0 REVERT JUMPDEST POP POP POP POP PUSH1 0x40 MLOAD RETURNDATASIZE PUSH1 0x1F NOT PUSH1 0x1F DUP3 ADD AND DUP3 ADD DUP1 PUSH1 0x40 MSTORE POP DUP2 ADD SWAP1 PUSH2 0xCEA SWAP2 SWAP1 PUSH2 0x1DE3 JUMP JUMPDEST PUSH20 0xFFFFFFFFFFFFFFFFFFFFFFFFFFFFFFFFFFFFFFFF AND PUSH4 0x70A08231 DUP8 PUSH1 0x40 MLOAD DUP3 PUSH4 0xFFFFFFFF AND PUSH1 0xE0 SHL DUP2 MSTORE PUSH1 0x4 ADD PUSH2 0xD22 SWAP2 SWAP1 PUSH2 0x210F JUMP JUMPDEST PUSH1 0x20 PUSH1 0x40 MLOAD DUP1 DUP4 SUB DUP2 DUP7 DUP1 EXTCODESIZE ISZERO DUP1 ISZERO PUSH2 0xD3A JUMPI PUSH1 0x0 DUP1 REVERT JUMPDEST POP GAS STATICCALL ISZERO DUP1 ISZERO PUSH2 0xD4E JUMPI RETURNDATASIZE PUSH1 0x0 DUP1 RETURNDATACOPY RETURNDATASIZE PUSH1 0x0 REVERT JUMPDEST POP POP POP POP PUSH1 0x40 MLOAD RETURNDATASIZE PUSH1 0x1F NOT PUSH1 0x1F DUP3 ADD AND DUP3 ADD DUP1 PUSH1 0x40 MSTORE POP DUP2 ADD SWAP1 PUSH2 0xD72 SWAP2 SWAP1 PUSH2 0x1EC4 JUMP JUMPDEST PUSH2 0x18F3 SWAP1 SWAP2 SWAP1 PUSH4 0xFFFFFFFF AND JUMP JUMPDEST SWAP1 POP JUMPDEST PUSH2 0xE25 DUP5 PUSH20 0xFFFFFFFFFFFFFFFFFFFFFFFFFFFFFFFFFFFFFFFF AND PUSH4 0x18160DDD PUSH1 0x40 MLOAD DUP2 PUSH4 0xFFFFFFFF AND PUSH1 0xE0 SHL DUP2 MSTORE PUSH1 0x4 ADD PUSH1 0x20 PUSH1 0x40 MLOAD DUP1 DUP4 SUB DUP2 DUP7 DUP1 EXTCODESIZE ISZERO DUP1 ISZERO PUSH2 0xDCC JUMPI PUSH1 0x0 DUP1 REVERT JUMPDEST POP GAS STATICCALL ISZERO DUP1 ISZERO PUSH2 0xDE0 JUMPI RETURNDATASIZE PUSH1 0x0 DUP1 RETURNDATACOPY RETURNDATASIZE PUSH1 0x0 REVERT JUMPDEST POP POP POP POP PUSH1 0x40 MLOAD RETURNDATASIZE PUSH1 0x1F NOT PUSH1 0x1F DUP3 ADD AND DUP3 ADD DUP1 PUSH1 0x40 MSTORE POP DUP2 ADD SWAP1 PUSH2 0xE04 SWAP2 SWAP1 PUSH2 0x1EC4 JUMP JUMPDEST PUSH2 0xE17 DUP4 DUP6 PUSH2 0x196E SWAP1 SWAP2 SWAP1 PUSH4 0xFFFFFFFF AND JUMP JUMPDEST PUSH2 0x19CC SWAP1 SWAP2 SWAP1 PUSH4 0xFFFFFFFF AND JUMP JUMPDEST SWAP3 POP POP POP SWAP2 SWAP1 POP JUMP JUMPDEST PUSH1 0x4 PUSH1 0x0 SWAP1 SLOAD SWAP1 PUSH2 0x100 EXP SWAP1 DIV PUSH20 0xFFFFFFFFFFFFFFFFFFFFFFFFFFFFFFFFFFFFFFFF AND DUP2 JUMP JUMPDEST PUSH1 0x0 DUP1 PUSH1 0x2 PUSH8 0xFFFFFFFFFFFFFFFF DUP2 GT ISZERO PUSH2 0xE72 JUMPI PUSH2 0xE71 PUSH2 0x2576 JUMP JUMPDEST JUMPDEST PUSH1 0x40 MLOAD SWAP1 DUP1 DUP3 MSTORE DUP1 PUSH1 0x20 MUL PUSH1 0x20 ADD DUP3 ADD PUSH1 0x40 MSTORE DUP1 ISZERO PUSH2 0xEA0 JUMPI DUP2 PUSH1 0x20 ADD PUSH1 0x20 DUP3 MUL DUP1 CALLDATASIZE DUP4 CALLDATACOPY DUP1 DUP3 ADD SWAP2 POP POP SWAP1 POP JUMPDEST POP SWAP1 POP DUP3 DUP2 PUSH1 0x0 DUP2 MLOAD DUP2 LT PUSH2 0xEB8 JUMPI PUSH2 0xEB7 PUSH2 0x2547 JUMP JUMPDEST JUMPDEST PUSH1 0x20 MUL PUSH1 0x20 ADD ADD SWAP1 PUSH20 0xFFFFFFFFFFFFFFFFFFFFFFFFFFFFFFFFFFFFFFFF AND SWAP1 DUP2 PUSH20 0xFFFFFFFFFFFFFFFFFFFFFFFFFFFFFFFFFFFFFFFF AND DUP2 MSTORE POP POP PUSH1 0x2 PUSH1 0x0 SWAP1 SLOAD SWAP1 PUSH2 0x100 EXP SWAP1 DIV PUSH20 0xFFFFFFFFFFFFFFFFFFFFFFFFFFFFFFFFFFFFFFFF AND DUP2 PUSH1 0x1 DUP2 MLOAD DUP2 LT PUSH2 0xF29 JUMPI PUSH2 0xF28 PUSH2 0x2547 JUMP JUMPDEST JUMPDEST PUSH1 0x20 MUL PUSH1 0x20 ADD ADD SWAP1 PUSH20 0xFFFFFFFFFFFFFFFFFFFFFFFFFFFFFFFFFFFFFFFF AND SWAP1 DUP2 PUSH20 0xFFFFFFFFFFFFFFFFFFFFFFFFFFFFFFFFFFFFFFFF AND DUP2 MSTORE POP POP PUSH1 0x4 PUSH1 0x0 SWAP1 SLOAD SWAP1 PUSH2 0x100 EXP SWAP1 DIV PUSH20 0xFFFFFFFFFFFFFFFFFFFFFFFFFFFFFFFFFFFFFFFF AND PUSH20 0xFFFFFFFFFFFFFFFFFFFFFFFFFFFFFFFFFFFFFFFF AND PUSH4 0xD06CA61F PUSH1 0x3 SLOAD DUP4 PUSH1 0x40 MLOAD DUP4 PUSH4 0xFFFFFFFF AND PUSH1 0xE0 SHL DUP2 MSTORE PUSH1 0x4 ADD PUSH2 0xFC2 SWAP3 SWAP2 SWAP1 PUSH2 0x2202 JUMP JUMPDEST PUSH1 0x0 PUSH1 0x40 MLOAD DUP1 DUP4 SUB DUP2 DUP7 DUP1 EXTCODESIZE ISZERO DUP1 ISZERO PUSH2 0xFDA JUMPI PUSH1 0x0 DUP1 REVERT JUMPDEST POP GAS STATICCALL ISZERO DUP1 ISZERO PUSH2 0xFEE JUMPI RETURNDATASIZE PUSH1 0x0 DUP1 RETURNDATACOPY RETURNDATASIZE PUSH1 0x0 REVERT JUMPDEST POP POP POP POP PUSH1 0x40 MLOAD RETURNDATASIZE PUSH1 0x0 DUP3 RETURNDATACOPY RETURNDATASIZE PUSH1 0x1F NOT PUSH1 0x1F DUP3 ADD AND DUP3 ADD DUP1 PUSH1 0x40 MSTORE POP DUP2 ADD SWAP1 PUSH2 0x1017 SWAP2 SWAP1 PUSH2 0x1D9A JUMP JUMPDEST PUSH1 0x1 DUP2 MLOAD DUP2 LT PUSH2 0x102A JUMPI PUSH2 0x1029 PUSH2 0x2547 JUMP JUMPDEST JUMPDEST PUSH1 0x20 MUL PUSH1 0x20 ADD ADD MLOAD SWAP2 POP POP SWAP2 SWAP1 POP JUMP JUMPDEST PUSH1 0x2 PUSH1 0x0 SWAP1 SLOAD SWAP1 PUSH2 0x100 EXP SWAP1 DIV PUSH20 0xFFFFFFFFFFFFFFFFFFFFFFFFFFFFFFFFFFFFFFFF AND DUP2 JUMP JUMPDEST PUSH1 0x0 DUP1 DUP3 PUSH20 0xFFFFFFFFFFFFFFFFFFFFFFFFFFFFFFFFFFFFFFFF AND PUSH4 0x1526FE27 DUP6 PUSH1 0x40 MLOAD DUP3 PUSH4 0xFFFFFFFF AND PUSH1 0xE0 SHL DUP2 MSTORE PUSH1 0x4 ADD PUSH2 0x109C SWAP2 SWAP1 PUSH2 0x21E7 JUMP JUMPDEST PUSH1 0xC0 PUSH1 0x40 MLOAD DUP1 DUP4 SUB DUP2 DUP7 DUP1 EXTCODESIZE ISZERO DUP1 ISZERO PUSH2 0x10B4 JUMPI PUSH1 0x0 DUP1 REVERT JUMPDEST POP GAS STATICCALL ISZERO DUP1 ISZERO PUSH2 0x10C8 JUMPI RETURNDATASIZE PUSH1 0x0 DUP1 RETURNDATACOPY RETURNDATASIZE PUSH1 0x0 REVERT JUMPDEST POP POP POP POP PUSH1 0x40 MLOAD RETURNDATASIZE PUSH1 0x1F NOT PUSH1 0x1F DUP3 ADD AND DUP3 ADD DUP1 PUSH1 0x40 MSTORE POP DUP2 ADD SWAP1 PUSH2 0x10EC SWAP2 SWAP1 PUSH2 0x1E97 JUMP JUMPDEST SWAP1 POP PUSH1 0x0 PUSH2 0x1198 DUP5 PUSH20 0xFFFFFFFFFFFFFFFFFFFFFFFFFFFFFFFFFFFFFFFF AND PUSH4 0x17CAF6F1 PUSH1 0x40 MLOAD DUP2 PUSH4 0xFFFFFFFF AND PUSH1 0xE0 SHL DUP2 MSTORE PUSH1 0x4 ADD PUSH1 0x20 PUSH1 0x40 MLOAD DUP1 DUP4 SUB DUP2 DUP7 DUP1 EXTCODESIZE ISZERO DUP1 ISZERO PUSH2 0x1139 JUMPI PUSH1 0x0 DUP1 REVERT JUMPDEST POP GAS STATICCALL ISZERO DUP1 ISZERO PUSH2 0x114D JUMPI RETURNDATASIZE PUSH1 0x0 DUP1 RETURNDATACOPY RETURNDATASIZE PUSH1 0x0 REVERT JUMPDEST POP POP POP POP PUSH1 0x40 MLOAD RETURNDATASIZE PUSH1 0x1F NOT PUSH1 0x1F DUP3 ADD AND DUP3 ADD DUP1 PUSH1 0x40 MSTORE POP DUP2 ADD SWAP1 PUSH2 0x1171 SWAP2 SWAP1 PUSH2 0x1EC4 JUMP JUMPDEST PUSH2 0x118A PUSH1 0x3 SLOAD DUP6 PUSH1 0x20 ADD MLOAD PUSH2 0x18F3 SWAP1 SWAP2 SWAP1 PUSH4 0xFFFFFFFF AND JUMP JUMPDEST PUSH2 0x19CC SWAP1 SWAP2 SWAP1 PUSH4 0xFFFFFFFF AND JUMP JUMPDEST SWAP1 POP DUP1 SWAP3 POP POP POP SWAP3 SWAP2 POP POP JUMP JUMPDEST PUSH2 0x11AD PUSH2 0x1A16 JUMP JUMPDEST PUSH20 0xFFFFFFFFFFFFFFFFFFFFFFFFFFFFFFFFFFFFFFFF AND PUSH2 0x11CB PUSH2 0x122D JUMP JUMPDEST PUSH20 0xFFFFFFFFFFFFFFFFFFFFFFFFFFFFFFFFFFFFFFFF AND EQ PUSH2 0x1221 JUMPI PUSH1 0x40 MLOAD PUSH32 0x8C379A000000000000000000000000000000000000000000000000000000000 DUP2 MSTORE PUSH1 0x4 ADD PUSH2 0x1218 SWAP1 PUSH2 0x21C7 JUMP JUMPDEST PUSH1 0x40 MLOAD DUP1 SWAP2 SUB SWAP1 REVERT JUMPDEST PUSH2 0x122B PUSH1 0x0 PUSH2 0x1A1E JUMP JUMPDEST JUMP JUMPDEST PUSH1 0x0 DUP1 PUSH1 0x0 SWAP1 SLOAD SWAP1 PUSH2 0x100 EXP SWAP1 DIV PUSH20 0xFFFFFFFFFFFFFFFFFFFFFFFFFFFFFFFFFFFFFFFF AND SWAP1 POP SWAP1 JUMP JUMPDEST PUSH1 0x1 PUSH1 0x0 SWAP1 SLOAD SWAP1 PUSH2 0x100 EXP SWAP1 DIV PUSH20 0xFFFFFFFFFFFFFFFFFFFFFFFFFFFFFFFFFFFFFFFF AND DUP2 JUMP JUMPDEST PUSH2 0x1284 PUSH2 0x1A16 JUMP JUMPDEST PUSH20 0xFFFFFFFFFFFFFFFFFFFFFFFFFFFFFFFFFFFFFFFF AND PUSH2 0x12A2 PUSH2 0x122D JUMP JUMPDEST PUSH20 0xFFFFFFFFFFFFFFFFFFFFFFFFFFFFFFFFFFFFFFFF AND EQ PUSH2 0x12F8 JUMPI PUSH1 0x40 MLOAD PUSH32 0x8C379A000000000000000000000000000000000000000000000000000000000 DUP2 MSTORE PUSH1 0x4 ADD PUSH2 0x12EF SWAP1 PUSH2 0x21C7 JUMP JUMPDEST PUSH1 0x40 MLOAD DUP1 SWAP2 SUB SWAP1 REVERT JUMPDEST DUP1 PUSH1 0x4 PUSH1 0x0 PUSH2 0x100 EXP DUP2 SLOAD DUP2 PUSH20 0xFFFFFFFFFFFFFFFFFFFFFFFFFFFFFFFFFFFFFFFF MUL NOT AND SWAP1 DUP4 PUSH20 0xFFFFFFFFFFFFFFFFFFFFFFFFFFFFFFFFFFFFFFFF AND MUL OR SWAP1 SSTORE POP POP JUMP JUMPDEST PUSH1 0x0 DUP1 DUP3 PUSH20 0xFFFFFFFFFFFFFFFFFFFFFFFFFFFFFFFFFFFFFFFF AND PUSH4 0x6A6D964E DUP8 PUSH1 0x40 MLOAD DUP3 PUSH4 0xFFFFFFFF AND PUSH1 0xE0 SHL DUP2 MSTORE PUSH1 0x4 ADD PUSH2 0x1378 SWAP2 SWAP1 PUSH2 0x21E7 JUMP JUMPDEST PUSH1 0x20 PUSH1 0x40 MLOAD DUP1 DUP4 SUB DUP2 DUP7 DUP1 EXTCODESIZE ISZERO DUP1 ISZERO PUSH2 0x1390 JUMPI PUSH1 0x0 DUP1 REVERT JUMPDEST POP GAS STATICCALL ISZERO DUP1 ISZERO PUSH2 0x13A4 JUMPI RETURNDATASIZE PUSH1 0x0 DUP1 RETURNDATACOPY RETURNDATASIZE PUSH1 0x0 REVERT JUMPDEST POP POP POP POP PUSH1 0x40 MLOAD RETURNDATASIZE PUSH1 0x1F NOT PUSH1 0x1F DUP3 ADD AND DUP3 ADD DUP1 PUSH1 0x40 MSTORE POP DUP2 ADD SWAP1 PUSH2 0x13C8 SWAP2 SWAP1 PUSH2 0x1EC4 JUMP JUMPDEST SWAP1 POP PUSH1 0x0 DUP1 DUP6 EQ ISZERO PUSH2 0x13E4 JUMPI PUSH2 0x13DD DUP7 PUSH2 0x550 JUMP JUMPDEST SWAP1 POP PUSH2 0x1461 JUMP JUMPDEST PUSH1 0x1 DUP6 EQ ISZERO PUSH2 0x1460 JUMPI DUP6 PUSH20 0xFFFFFFFFFFFFFFFFFFFFFFFFFFFFFFFFFFFFFFFF AND PUSH1 0x1 PUSH1 0x0 SWAP1 SLOAD SWAP1 PUSH2 0x100 EXP SWAP1 DIV PUSH20 0xFFFFFFFFFFFFFFFFFFFFFFFFFFFFFFFFFFFFFFFF AND PUSH20 0xFFFFFFFFFFFFFFFFFFFFFFFFFFFFFFFFFFFFFFFF AND EQ ISZERO PUSH2 0x1453 JUMPI PUSH2 0x144C DUP7 PUSH2 0xE54 JUMP JUMPDEST SWAP1 POP PUSH2 0x145F JUMP JUMPDEST PUSH2 0x145C DUP7 PUSH2 0x2F9 JUMP JUMPDEST SWAP1 POP JUMPDEST JUMPDEST JUMPDEST PUSH2 0x1481 PUSH1 0x3 SLOAD DUP3 DUP5 PUSH2 0x1473 SWAP2 SWAP1 PUSH2 0x235F JUMP JUMPDEST PUSH2 0x19CC SWAP1 SWAP2 SWAP1 PUSH4 0xFFFFFFFF AND JUMP JUMPDEST SWAP3 POP POP POP SWAP5 SWAP4 POP POP POP POP JUMP JUMPDEST PUSH1 0x0 DUP1 PUSH2 0x1516 DUP4 PUSH20 0xFFFFFFFFFFFFFFFFFFFFFFFFFFFFFFFFFFFFFFFF AND PUSH4 0x141AA0BA PUSH1 0x40 MLOAD DUP2 PUSH4 0xFFFFFFFF AND PUSH1 0xE0 SHL DUP2 MSTORE PUSH1 0x4 ADD PUSH1 0x20 PUSH1 0x40 MLOAD DUP1 DUP4 SUB DUP2 DUP7 DUP1 EXTCODESIZE ISZERO DUP1 ISZERO PUSH2 0x14D9 JUMPI PUSH1 0x0 DUP1 REVERT JUMPDEST POP GAS STATICCALL ISZERO DUP1 ISZERO PUSH2 0x14ED JUMPI RETURNDATASIZE PUSH1 0x0 DUP1 RETURNDATACOPY RETURNDATASIZE PUSH1 0x0 REVERT JUMPDEST POP POP POP POP PUSH1 0x40 MLOAD RETURNDATASIZE PUSH1 0x1F NOT PUSH1 0x1F DUP3 ADD AND DUP3 ADD DUP1 PUSH1 0x40 MSTORE POP DUP2 ADD SWAP1 PUSH2 0x1511 SWAP2 SWAP1 PUSH2 0x1D6D JUMP JUMPDEST PUSH2 0x2F9 JUMP JUMPDEST SWAP1 POP POP SWAP2 SWAP1 POP JUMP JUMPDEST PUSH1 0x0 DUP1 DUP3 PUSH20 0xFFFFFFFFFFFFFFFFFFFFFFFFFFFFFFFFFFFFFFFF AND PUSH4 0x1526FE27 DUP8 PUSH1 0x40 MLOAD DUP3 PUSH4 0xFFFFFFFF AND PUSH1 0xE0 SHL DUP2 MSTORE PUSH1 0x4 ADD PUSH2 0x155A SWAP2 SWAP1 PUSH2 0x21E7 JUMP JUMPDEST PUSH1 0xC0 PUSH1 0x40 MLOAD DUP1 DUP4 SUB DUP2 DUP7 DUP1 EXTCODESIZE ISZERO DUP1 ISZERO PUSH2 0x1572 JUMPI PUSH1 0x0 DUP1 REVERT JUMPDEST POP GAS STATICCALL ISZERO DUP1 ISZERO PUSH2 0x1586 JUMPI RETURNDATASIZE PUSH1 0x0 DUP1 RETURNDATACOPY RETURNDATASIZE PUSH1 0x0 REVERT JUMPDEST POP POP POP POP PUSH1 0x40 MLOAD RETURNDATASIZE PUSH1 0x1F NOT PUSH1 0x1F DUP3 ADD AND DUP3 ADD DUP1 PUSH1 0x40 MSTORE POP DUP2 ADD SWAP1 PUSH2 0x15AA SWAP2 SWAP1 PUSH2 0x1E97 JUMP JUMPDEST SWAP1 POP PUSH1 0x0 PUSH2 0x1656 DUP5 PUSH20 0xFFFFFFFFFFFFFFFFFFFFFFFFFFFFFFFFFFFFFFFF AND PUSH4 0x17CAF6F1 PUSH1 0x40 MLOAD DUP2 PUSH4 0xFFFFFFFF AND PUSH1 0xE0 SHL DUP2 MSTORE PUSH1 0x4 ADD PUSH1 0x20 PUSH1 0x40 MLOAD DUP1 DUP4 SUB DUP2 DUP7 DUP1 EXTCODESIZE ISZERO DUP1 ISZERO PUSH2 0x15F7 JUMPI PUSH1 0x0 DUP1 REVERT JUMPDEST POP GAS STATICCALL ISZERO DUP1 ISZERO PUSH2 0x160B JUMPI RETURNDATASIZE PUSH1 0x0 DUP1 RETURNDATACOPY RETURNDATASIZE PUSH1 0x0 REVERT JUMPDEST POP POP POP POP PUSH1 0x40 MLOAD RETURNDATASIZE PUSH1 0x1F NOT PUSH1 0x1F DUP3 ADD AND DUP3 ADD DUP1 PUSH1 0x40 MSTORE POP DUP2 ADD SWAP1 PUSH2 0x162F SWAP2 SWAP1 PUSH2 0x1EC4 JUMP JUMPDEST PUSH2 0x1648 PUSH1 0x3 SLOAD DUP6 PUSH1 0x20 ADD MLOAD PUSH2 0x18F3 SWAP1 SWAP2 SWAP1 PUSH4 0xFFFFFFFF AND JUMP JUMPDEST PUSH2 0x19CC SWAP1 SWAP2 SWAP1 PUSH4 0xFFFFFFFF AND JUMP JUMPDEST SWAP1 POP PUSH1 0x0 PUSH2 0x16E0 DUP6 PUSH20 0xFFFFFFFFFFFFFFFFFFFFFFFFFFFFFFFFFFFFFFFF AND PUSH4 0x141AA0BA PUSH1 0x40 MLOAD DUP2 PUSH4 0xFFFFFFFF AND PUSH1 0xE0 SHL DUP2 MSTORE PUSH1 0x4 ADD PUSH1 0x20 PUSH1 0x40 MLOAD DUP1 DUP4 SUB DUP2 DUP7 DUP1 EXTCODESIZE ISZERO DUP1 ISZERO PUSH2 0x16A3 JUMPI PUSH1 0x0 DUP1 REVERT JUMPDEST POP GAS STATICCALL ISZERO DUP1 ISZERO PUSH2 0x16B7 JUMPI RETURNDATASIZE PUSH1 0x0 DUP1 RETURNDATACOPY RETURNDATASIZE PUSH1 0x0 REVERT JUMPDEST POP POP POP POP PUSH1 0x40 MLOAD RETURNDATASIZE PUSH1 0x1F NOT PUSH1 0x1F DUP3 ADD AND DUP3 ADD DUP1 PUSH1 0x40 MSTORE POP DUP2 ADD SWAP1 PUSH2 0x16DB SWAP2 SWAP1 PUSH2 0x1D6D JUMP JUMPDEST PUSH2 0x2F9 JUMP JUMPDEST SWAP1 POP PUSH1 0x0 PUSH2 0x1776 DUP7 PUSH20 0xFFFFFFFFFFFFFFFFFFFFFFFFFFFFFFFFFFFFFFFF AND PUSH4 0xA1EEF821 PUSH1 0x40 MLOAD DUP2 PUSH4 0xFFFFFFFF AND PUSH1 0xE0 SHL DUP2 MSTORE PUSH1 0x4 ADD PUSH1 0x20 PUSH1 0x40 MLOAD DUP1 DUP4 SUB DUP2 DUP7 DUP1 EXTCODESIZE ISZERO DUP1 ISZERO PUSH2 0x172D JUMPI PUSH1 0x0 DUP1 REVERT JUMPDEST POP GAS STATICCALL ISZERO DUP1 ISZERO PUSH2 0x1741 JUMPI RETURNDATASIZE PUSH1 0x0 DUP1 RETURNDATACOPY RETURNDATASIZE PUSH1 0x0 REVERT JUMPDEST POP POP POP POP PUSH1 0x40 MLOAD RETURNDATASIZE PUSH1 0x1F NOT PUSH1 0x1F DUP3 ADD AND DUP3 ADD DUP1 PUSH1 0x40 MSTORE POP DUP2 ADD SWAP1 PUSH2 0x1765 SWAP2 SWAP1 PUSH2 0x1EC4 JUMP JUMPDEST PUSH1 0x5 SLOAD PUSH2 0x18F3 SWAP1 SWAP2 SWAP1 PUSH4 0xFFFFFFFF AND JUMP JUMPDEST SWAP1 POP PUSH1 0x0 PUSH2 0x178D DUP5 DUP4 PUSH2 0x18F3 SWAP1 SWAP2 SWAP1 PUSH4 0xFFFFFFFF AND JUMP JUMPDEST SWAP1 POP PUSH1 0x0 PUSH2 0x179D DUP12 DUP12 DUP12 DUP12 PUSH2 0x133C JUMP JUMPDEST SWAP1 POP PUSH2 0x17EB PUSH1 0x64 PUSH2 0x17DD DUP4 PUSH2 0x17CF PUSH1 0x3 SLOAD PUSH2 0x17C1 DUP11 DUP10 PUSH2 0x18F3 SWAP1 SWAP2 SWAP1 PUSH4 0xFFFFFFFF AND JUMP JUMPDEST PUSH2 0x19CC SWAP1 SWAP2 SWAP1 PUSH4 0xFFFFFFFF AND JUMP JUMPDEST PUSH2 0x19CC SWAP1 SWAP2 SWAP1 PUSH4 0xFFFFFFFF AND JUMP JUMPDEST PUSH2 0x18F3 SWAP1 SWAP2 SWAP1 PUSH4 0xFFFFFFFF AND JUMP JUMPDEST SWAP7 POP POP POP POP POP POP POP SWAP5 SWAP4 POP POP POP POP JUMP JUMPDEST PUSH2 0x1803 PUSH2 0x1A16 JUMP JUMPDEST PUSH20 0xFFFFFFFFFFFFFFFFFFFFFFFFFFFFFFFFFFFFFFFF AND PUSH2 0x1821 PUSH2 0x122D JUMP JUMPDEST PUSH20 0xFFFFFFFFFFFFFFFFFFFFFFFFFFFFFFFFFFFFFFFF AND EQ PUSH2 0x1877 JUMPI PUSH1 0x40 MLOAD PUSH32 0x8C379A000000000000000000000000000000000000000000000000000000000 DUP2 MSTORE PUSH1 0x4 ADD PUSH2 0x186E SWAP1 PUSH2 0x21C7 JUMP JUMPDEST PUSH1 0x40 MLOAD DUP1 SWAP2 SUB SWAP1 REVERT JUMPDEST PUSH1 0x0 PUSH20 0xFFFFFFFFFFFFFFFFFFFFFFFFFFFFFFFFFFFFFFFF AND DUP2 PUSH20 0xFFFFFFFFFFFFFFFFFFFFFFFFFFFFFFFFFFFFFFFF AND EQ ISZERO PUSH2 0x18E7 JUMPI PUSH1 0x40 MLOAD PUSH32 0x8C379A000000000000000000000000000000000000000000000000000000000 DUP2 MSTORE PUSH1 0x4 ADD PUSH2 0x18DE SWAP1 PUSH2 0x2167 JUMP JUMPDEST PUSH1 0x40 MLOAD DUP1 SWAP2 SUB SWAP1 REVERT JUMPDEST PUSH2 0x18F0 DUP2 PUSH2 0x1A1E JUMP JUMPDEST POP JUMP JUMPDEST PUSH1 0x0 DUP1 DUP4 EQ ISZERO PUSH2 0x1906 JUMPI PUSH1 0x0 SWAP1 POP PUSH2 0x1968 JUMP JUMPDEST PUSH1 0x0 DUP3 DUP5 PUSH2 0x1914 SWAP2 SWAP1 PUSH2 0x235F JUMP JUMPDEST SWAP1 POP DUP3 DUP5 DUP3 PUSH2 0x1923 SWAP2 SWAP1 PUSH2 0x232E JUMP JUMPDEST EQ PUSH2 0x1963 JUMPI PUSH1 0x40 MLOAD PUSH32 0x8C379A000000000000000000000000000000000000000000000000000000000 DUP2 MSTORE PUSH1 0x4 ADD PUSH2 0x195A SWAP1 PUSH2 0x21A7 JUMP JUMPDEST PUSH1 0x40 MLOAD DUP1 SWAP2 SUB SWAP1 REVERT JUMPDEST DUP1 SWAP2 POP POP JUMPDEST SWAP3 SWAP2 POP POP JUMP JUMPDEST PUSH1 0x0 DUP1 DUP3 DUP5 PUSH2 0x197D SWAP2 SWAP1 PUSH2 0x22D8 JUMP JUMPDEST SWAP1 POP DUP4 DUP2 LT ISZERO PUSH2 0x19C2 JUMPI PUSH1 0x40 MLOAD PUSH32 0x8C379A000000000000000000000000000000000000000000000000000000000 DUP2 MSTORE PUSH1 0x4 ADD PUSH2 0x19B9 SWAP1 PUSH2 0x2187 JUMP JUMPDEST PUSH1 0x40 MLOAD DUP1 SWAP2 SUB SWAP1 REVERT JUMPDEST DUP1 SWAP2 POP POP SWAP3 SWAP2 POP POP JUMP JUMPDEST PUSH1 0x0 PUSH2 0x1A0E DUP4 DUP4 PUSH1 0x40 MLOAD DUP1 PUSH1 0x40 ADD PUSH1 0x40 MSTORE DUP1 PUSH1 0x1A DUP2 MSTORE PUSH1 0x20 ADD PUSH32 0x536166654D6174683A206469766973696F6E206279207A65726F000000000000 DUP2 MSTORE POP PUSH2 0x1AE2 JUMP JUMPDEST SWAP1 POP SWAP3 SWAP2 POP POP JUMP JUMPDEST PUSH1 0x0 CALLER SWAP1 POP SWAP1 JUMP JUMPDEST PUSH1 0x0 DUP1 PUSH1 0x0 SWAP1 SLOAD SWAP1 PUSH2 0x100 EXP SWAP1 DIV PUSH20 0xFFFFFFFFFFFFFFFFFFFFFFFFFFFFFFFFFFFFFFFF AND SWAP1 POP DUP2 PUSH1 0x0 DUP1 PUSH2 0x100 EXP DUP2 SLOAD DUP2 PUSH20 0xFFFFFFFFFFFFFFFFFFFFFFFFFFFFFFFFFFFFFFFF MUL NOT AND SWAP1 DUP4 PUSH20 0xFFFFFFFFFFFFFFFFFFFFFFFFFFFFFFFFFFFFFFFF AND MUL OR SWAP1 SSTORE POP DUP2 PUSH20 0xFFFFFFFFFFFFFFFFFFFFFFFFFFFFFFFFFFFFFFFF AND DUP2 PUSH20 0xFFFFFFFFFFFFFFFFFFFFFFFFFFFFFFFFFFFFFFFF AND PUSH32 0x8BE0079C531659141344CD1FD0A4F28419497F9722A3DAAFE3B4186F6B6457E0 PUSH1 0x40 MLOAD PUSH1 0x40 MLOAD DUP1 SWAP2 SUB SWAP1 LOG3 POP POP JUMP JUMPDEST PUSH1 0x0 DUP1 DUP4 GT DUP3 SWAP1 PUSH2 0x1B29 JUMPI PUSH1 0x40 MLOAD PUSH32 0x8C379A000000000000000000000000000000000000000000000000000000000 DUP2 MSTORE PUSH1 0x4 ADD PUSH2 0x1B20 SWAP2 SWAP1 PUSH2 0x2145 JUMP JUMPDEST PUSH1 0x40 MLOAD DUP1 SWAP2 SUB SWAP1 REVERT JUMPDEST POP PUSH1 0x0 DUP4 DUP6 PUSH2 0x1B38 SWAP2 SWAP1 PUSH2 0x232E JUMP JUMPDEST SWAP1 POP DUP1 SWAP2 POP POP SWAP4 SWAP3 POP POP POP JUMP JUMPDEST PUSH1 0x0 PUSH2 0x1B58 PUSH2 0x1B53 DUP5 PUSH2 0x2257 JUMP JUMPDEST PUSH2 0x2232 JUMP JUMPDEST SWAP1 POP DUP1 DUP4 DUP3 MSTORE PUSH1 0x20 DUP3 ADD SWAP1 POP DUP3 DUP6 PUSH1 0x20 DUP7 MUL DUP3 ADD GT ISZERO PUSH2 0x1B7B JUMPI PUSH2 0x1B7A PUSH2 0x25AF JUMP JUMPDEST JUMPDEST PUSH1 0x0 JUMPDEST DUP6 DUP2 LT ISZERO PUSH2 0x1BAB JUMPI DUP2 PUSH2 0x1B91 DUP9 DUP3 PUSH2 0x1D2B JUMP JUMPDEST DUP5 MSTORE PUSH1 0x20 DUP5 ADD SWAP4 POP PUSH1 0x20 DUP4 ADD SWAP3 POP POP PUSH1 0x1 DUP2 ADD SWAP1 POP PUSH2 0x1B7E JUMP JUMPDEST POP POP POP SWAP4 SWAP3 POP POP POP JUMP JUMPDEST PUSH1 0x0 DUP2 CALLDATALOAD SWAP1 POP PUSH2 0x1BC4 DUP2 PUSH2 0x26BF JUMP JUMPDEST SWAP3 SWAP2 POP POP JUMP JUMPDEST PUSH1 0x0 DUP2 MLOAD SWAP1 POP PUSH2 0x1BD9 DUP2 PUSH2 0x26BF JUMP JUMPDEST SWAP3 SWAP2 POP POP JUMP JUMPDEST PUSH1 0x0 DUP3 PUSH1 0x1F DUP4 ADD SLT PUSH2 0x1BF4 JUMPI PUSH2 0x1BF3 PUSH2 0x25A5 JUMP JUMPDEST JUMPDEST DUP2 MLOAD PUSH2 0x1C04 DUP5 DUP3 PUSH1 0x20 DUP7 ADD PUSH2 0x1B45 JUMP JUMPDEST SWAP2 POP POP SWAP3 SWAP2 POP POP JUMP JUMPDEST PUSH1 0x0 DUP2 MLOAD SWAP1 POP PUSH2 0x1C1C DUP2 PUSH2 0x26D6 JUMP JUMPDEST SWAP3 SWAP2 POP POP JUMP JUMPDEST PUSH1 0x0 DUP2 MLOAD SWAP1 POP PUSH2 0x1C31 DUP2 PUSH2 0x26ED JUMP JUMPDEST SWAP3 SWAP2 POP POP JUMP JUMPDEST PUSH1 0x0 DUP2 CALLDATALOAD SWAP1 POP PUSH2 0x1C46 DUP2 PUSH2 0x2704 JUMP JUMPDEST SWAP3 SWAP2 POP POP JUMP JUMPDEST PUSH1 0x0 DUP2 CALLDATALOAD SWAP1 POP PUSH2 0x1C5B DUP2 PUSH2 0x271B JUMP JUMPDEST SWAP3 SWAP2 POP POP JUMP JUMPDEST PUSH1 0x0 DUP2 CALLDATALOAD SWAP1 POP PUSH2 0x1C70 DUP2 PUSH2 0x2732 JUMP JUMPDEST SWAP3 SWAP2 POP POP JUMP JUMPDEST PUSH1 0x0 PUSH1 0xC0 DUP3 DUP5 SUB SLT ISZERO PUSH2 0x1C8C JUMPI PUSH2 0x1C8B PUSH2 0x25AA JUMP JUMPDEST JUMPDEST PUSH2 0x1C96 PUSH1 0xC0 PUSH2 0x2232 JUMP JUMPDEST SWAP1 POP PUSH1 0x0 PUSH2 0x1CA6 DUP5 DUP3 DUP6 ADD PUSH2 0x1C0D JUMP JUMPDEST PUSH1 0x0 DUP4 ADD MSTORE POP PUSH1 0x20 PUSH2 0x1CBA DUP5 DUP3 DUP6 ADD PUSH2 0x1D2B JUMP JUMPDEST PUSH1 0x20 DUP4 ADD MSTORE POP PUSH1 0x40 PUSH2 0x1CCE DUP5 DUP3 DUP6 ADD PUSH2 0x1D2B JUMP JUMPDEST PUSH1 0x40 DUP4 ADD MSTORE POP PUSH1 0x60 PUSH2 0x1CE2 DUP5 DUP3 DUP6 ADD PUSH2 0x1D2B JUMP JUMPDEST PUSH1 0x60 DUP4 ADD MSTORE POP PUSH1 0x80 PUSH2 0x1CF6 DUP5 DUP3 DUP6 ADD PUSH2 0x1C22 JUMP JUMPDEST PUSH1 0x80 DUP4 ADD MSTORE POP PUSH1 0xA0 PUSH2 0x1D0A DUP5 DUP3 DUP6 ADD PUSH2 0x1C0D JUMP JUMPDEST PUSH1 0xA0 DUP4 ADD MSTORE POP SWAP3 SWAP2 POP POP JUMP JUMPDEST PUSH1 0x0 DUP2 CALLDATALOAD SWAP1 POP PUSH2 0x1D25 DUP2 PUSH2 0x2749 JUMP JUMPDEST SWAP3 SWAP2 POP POP JUMP JUMPDEST PUSH1 0x0 DUP2 MLOAD SWAP1 POP PUSH2 0x1D3A DUP2 PUSH2 0x2749 JUMP JUMPDEST SWAP3 SWAP2 POP POP JUMP JUMPDEST PUSH1 0x0 PUSH1 0x20 DUP3 DUP5 SUB SLT ISZERO PUSH2 0x1D56 JUMPI PUSH2 0x1D55 PUSH2 0x25B9 JUMP JUMPDEST JUMPDEST PUSH1 0x0 PUSH2 0x1D64 DUP5 DUP3 DUP6 ADD PUSH2 0x1BB5 JUMP JUMPDEST SWAP2 POP POP SWAP3 SWAP2 POP POP JUMP JUMPDEST PUSH1 0x0 PUSH1 0x20 DUP3 DUP5 SUB SLT ISZERO PUSH2 0x1D83 JUMPI PUSH2 0x1D82 PUSH2 0x25B9 JUMP JUMPDEST JUMPDEST PUSH1 0x0 PUSH2 0x1D91 DUP5 DUP3 DUP6 ADD PUSH2 0x1BCA JUMP JUMPDEST SWAP2 POP POP SWAP3 SWAP2 POP POP JUMP JUMPDEST PUSH1 0x0 PUSH1 0x20 DUP3 DUP5 SUB SLT ISZERO PUSH2 0x1DB0 JUMPI PUSH2 0x1DAF PUSH2 0x25B9 JUMP JUMPDEST JUMPDEST PUSH1 0x0 DUP3 ADD MLOAD PUSH8 0xFFFFFFFFFFFFFFFF DUP2 GT ISZERO PUSH2 0x1DCE JUMPI PUSH2 0x1DCD PUSH2 0x25B4 JUMP JUMPDEST JUMPDEST PUSH2 0x1DDA DUP5 DUP3 DUP6 ADD PUSH2 0x1BDF JUMP JUMPDEST SWAP2 POP POP SWAP3 SWAP2 POP POP JUMP JUMPDEST PUSH1 0x0 PUSH1 0x20 DUP3 DUP5 SUB SLT ISZERO PUSH2 0x1DF9 JUMPI PUSH2 0x1DF8 PUSH2 0x25B9 JUMP JUMPDEST JUMPDEST PUSH1 0x0 PUSH2 0x1E07 DUP5 DUP3 DUP6 ADD PUSH2 0x1C0D JUMP JUMPDEST SWAP2 POP POP SWAP3 SWAP2 POP POP JUMP JUMPDEST PUSH1 0x0 PUSH1 0x20 DUP3 DUP5 SUB SLT ISZERO PUSH2 0x1E26 JUMPI PUSH2 0x1E25 PUSH2 0x25B9 JUMP JUMPDEST JUMPDEST PUSH1 0x0 PUSH2 0x1E34 DUP5 DUP3 DUP6 ADD PUSH2 0x1C37 JUMP JUMPDEST SWAP2 POP POP SWAP3 SWAP2 POP POP JUMP JUMPDEST PUSH1 0x0 PUSH1 0x20 DUP3 DUP5 SUB SLT ISZERO PUSH2 0x1E53 JUMPI PUSH2 0x1E52 PUSH2 0x25B9 JUMP JUMPDEST JUMPDEST PUSH1 0x0 PUSH2 0x1E61 DUP5 DUP3 DUP6 ADD PUSH2 0x1C4C JUMP JUMPDEST SWAP2 POP POP SWAP3 SWAP2 POP POP JUMP JUMPDEST PUSH1 0x0 PUSH1 0x20 DUP3 DUP5 SUB SLT ISZERO PUSH2 0x1E80 JUMPI PUSH2 0x1E7F PUSH2 0x25B9 JUMP JUMPDEST JUMPDEST PUSH1 0x0 PUSH2 0x1E8E DUP5 DUP3 DUP6 ADD PUSH2 0x1C61 JUMP JUMPDEST SWAP2 POP POP SWAP3 SWAP2 POP POP JUMP JUMPDEST PUSH1 0x0 PUSH1 0xC0 DUP3 DUP5 SUB SLT ISZERO PUSH2 0x1EAD JUMPI PUSH2 0x1EAC PUSH2 0x25B9 JUMP JUMPDEST JUMPDEST PUSH1 0x0 PUSH2 0x1EBB DUP5 DUP3 DUP6 ADD PUSH2 0x1C76 JUMP JUMPDEST SWAP2 POP POP SWAP3 SWAP2 POP POP JUMP JUMPDEST PUSH1 0x0 PUSH1 0x20 DUP3 DUP5 SUB SLT ISZERO PUSH2 0x1EDA JUMPI PUSH2 0x1ED9 PUSH2 0x25B9 JUMP JUMPDEST JUMPDEST PUSH1 0x0 PUSH2 0x1EE8 DUP5 DUP3 DUP6 ADD PUSH2 0x1D2B JUMP JUMPDEST SWAP2 POP POP SWAP3 SWAP2 POP POP JUMP JUMPDEST PUSH1 0x0 DUP1 PUSH1 0x0 DUP1 PUSH1 0x80 DUP6 DUP8 SUB SLT ISZERO PUSH2 0x1F0B JUMPI PUSH2 0x1F0A PUSH2 0x25B9 JUMP JUMPDEST JUMPDEST PUSH1 0x0 PUSH2 0x1F19 DUP8 DUP3 DUP9 ADD PUSH2 0x1D16 JUMP JUMPDEST SWAP5 POP POP PUSH1 0x20 PUSH2 0x1F2A DUP8 DUP3 DUP9 ADD PUSH2 0x1C37 JUMP JUMPDEST SWAP4 POP POP PUSH1 0x40 PUSH2 0x1F3B DUP8 DUP3 DUP9 ADD PUSH2 0x1D16 JUMP JUMPDEST SWAP3 POP POP PUSH1 0x60 PUSH2 0x1F4C DUP8 DUP3 DUP9 ADD PUSH2 0x1C4C JUMP JUMPDEST SWAP2 POP POP SWAP3 SWAP6 SWAP2 SWAP5 POP SWAP3 POP JUMP JUMPDEST PUSH1 0x0 DUP1 PUSH1 0x40 DUP4 DUP6 SUB SLT ISZERO PUSH2 0x1F6F JUMPI PUSH2 0x1F6E PUSH2 0x25B9 JUMP JUMPDEST JUMPDEST PUSH1 0x0 PUSH2 0x1F7D DUP6 DUP3 DUP7 ADD PUSH2 0x1D16 JUMP JUMPDEST SWAP3 POP POP PUSH1 0x20 PUSH2 0x1F8E DUP6 DUP3 DUP7 ADD PUSH2 0x1C4C JUMP JUMPDEST SWAP2 POP POP SWAP3 POP SWAP3 SWAP1 POP JUMP JUMPDEST PUSH1 0x0 PUSH2 0x1FA4 DUP4 DUP4 PUSH2 0x1FB0 JUMP JUMPDEST PUSH1 0x20 DUP4 ADD SWAP1 POP SWAP3 SWAP2 POP POP JUMP JUMPDEST PUSH2 0x1FB9 DUP2 PUSH2 0x23B9 JUMP JUMPDEST DUP3 MSTORE POP POP JUMP JUMPDEST PUSH2 0x1FC8 DUP2 PUSH2 0x23B9 JUMP JUMPDEST DUP3 MSTORE POP POP JUMP JUMPDEST PUSH1 0x0 PUSH2 0x1FD9 DUP3 PUSH2 0x2293 JUMP JUMPDEST PUSH2 0x1FE3 DUP2 DUP6 PUSH2 0x22B6 JUMP JUMPDEST SWAP4 POP PUSH2 0x1FEE DUP4 PUSH2 0x2283 JUMP JUMPDEST DUP1 PUSH1 0x0 JUMPDEST DUP4 DUP2 LT ISZERO PUSH2 0x201F JUMPI DUP2 MLOAD PUSH2 0x2006 DUP9 DUP3 PUSH2 0x1F98 JUMP JUMPDEST SWAP8 POP PUSH2 0x2011 DUP4 PUSH2 0x22A9 JUMP JUMPDEST SWAP3 POP POP PUSH1 0x1 DUP2 ADD SWAP1 POP PUSH2 0x1FF2 JUMP JUMPDEST POP DUP6 SWAP4 POP POP POP POP SWAP3 SWAP2 POP POP JUMP JUMPDEST PUSH2 0x2035 DUP2 PUSH2 0x244F JUMP JUMPDEST DUP3 MSTORE POP POP JUMP JUMPDEST PUSH1 0x0 PUSH2 0x2046 DUP3 PUSH2 0x229E JUMP JUMPDEST PUSH2 0x2050 DUP2 DUP6 PUSH2 0x22C7 JUMP JUMPDEST SWAP4 POP PUSH2 0x2060 DUP2 DUP6 PUSH1 0x20 DUP7 ADD PUSH2 0x2485 JUMP JUMPDEST PUSH2 0x2069 DUP2 PUSH2 0x25BE JUMP JUMPDEST DUP5 ADD SWAP2 POP POP SWAP3 SWAP2 POP POP JUMP JUMPDEST PUSH1 0x0 PUSH2 0x2081 PUSH1 0x26 DUP4 PUSH2 0x22C7 JUMP JUMPDEST SWAP2 POP PUSH2 0x208C DUP3 PUSH2 0x25CF JUMP JUMPDEST PUSH1 0x40 DUP3 ADD SWAP1 POP SWAP2 SWAP1 POP JUMP JUMPDEST PUSH1 0x0 PUSH2 0x20A4 PUSH1 0x1B DUP4 PUSH2 0x22C7 JUMP JUMPDEST SWAP2 POP PUSH2 0x20AF DUP3 PUSH2 0x261E JUMP JUMPDEST PUSH1 0x20 DUP3 ADD SWAP1 POP SWAP2 SWAP1 POP JUMP JUMPDEST PUSH1 0x0 PUSH2 0x20C7 PUSH1 0x21 DUP4 PUSH2 0x22C7 JUMP JUMPDEST SWAP2 POP PUSH2 0x20D2 DUP3 PUSH2 0x2647 JUMP JUMPDEST PUSH1 0x40 DUP3 ADD SWAP1 POP SWAP2 SWAP1 POP JUMP JUMPDEST PUSH1 0x0 PUSH2 0x20EA PUSH1 0x20 DUP4 PUSH2 0x22C7 JUMP JUMPDEST SWAP2 POP PUSH2 0x20F5 DUP3 PUSH2 0x2696 JUMP JUMPDEST PUSH1 0x20 DUP3 ADD SWAP1 POP SWAP2 SWAP1 POP JUMP JUMPDEST PUSH2 0x2109 DUP2 PUSH2 0x2445 JUMP JUMPDEST DUP3 MSTORE POP POP JUMP JUMPDEST PUSH1 0x0 PUSH1 0x20 DUP3 ADD SWAP1 POP PUSH2 0x2124 PUSH1 0x0 DUP4 ADD DUP5 PUSH2 0x1FBF JUMP JUMPDEST SWAP3 SWAP2 POP POP JUMP JUMPDEST PUSH1 0x0 PUSH1 0x20 DUP3 ADD SWAP1 POP PUSH2 0x213F PUSH1 0x0 DUP4 ADD DUP5 PUSH2 0x202C JUMP JUMPDEST SWAP3 SWAP2 POP POP JUMP JUMPDEST PUSH1 0x0 PUSH1 0x20 DUP3 ADD SWAP1 POP DUP2 DUP2 SUB PUSH1 0x0 DUP4 ADD MSTORE PUSH2 0x215F DUP2 DUP5 PUSH2 0x203B JUMP JUMPDEST SWAP1 POP SWAP3 SWAP2 POP POP JUMP JUMPDEST PUSH1 0x0 PUSH1 0x20 DUP3 ADD SWAP1 POP DUP2 DUP2 SUB PUSH1 0x0 DUP4 ADD MSTORE PUSH2 0x2180 DUP2 PUSH2 0x2074 JUMP JUMPDEST SWAP1 POP SWAP2 SWAP1 POP JUMP JUMPDEST PUSH1 0x0 PUSH1 0x20 DUP3 ADD SWAP1 POP DUP2 DUP2 SUB PUSH1 0x0 DUP4 ADD MSTORE PUSH2 0x21A0 DUP2 PUSH2 0x2097 JUMP JUMPDEST SWAP1 POP SWAP2 SWAP1 POP JUMP JUMPDEST PUSH1 0x0 PUSH1 0x20 DUP3 ADD SWAP1 POP DUP2 DUP2 SUB PUSH1 0x0 DUP4 ADD MSTORE PUSH2 0x21C0 DUP2 PUSH2 0x20BA JUMP JUMPDEST SWAP1 POP SWAP2 SWAP1 POP JUMP JUMPDEST PUSH1 0x0 PUSH1 0x20 DUP3 ADD SWAP1 POP DUP2 DUP2 SUB PUSH1 0x0 DUP4 ADD MSTORE PUSH2 0x21E0 DUP2 PUSH2 0x20DD JUMP JUMPDEST SWAP1 POP SWAP2 SWAP1 POP JUMP JUMPDEST PUSH1 0x0 PUSH1 0x20 DUP3 ADD SWAP1 POP PUSH2 0x21FC PUSH1 0x0 DUP4 ADD DUP5 PUSH2 0x2100 JUMP JUMPDEST SWAP3 SWAP2 POP POP JUMP JUMPDEST PUSH1 0x0 PUSH1 0x40 DUP3 ADD SWAP1 POP PUSH2 0x2217 PUSH1 0x0 DUP4 ADD DUP6 PUSH2 0x2100 JUMP JUMPDEST DUP2 DUP2 SUB PUSH1 0x20 DUP4 ADD MSTORE PUSH2 0x2229 DUP2 DUP5 PUSH2 0x1FCE JUMP JUMPDEST SWAP1 POP SWAP4 SWAP3 POP POP POP JUMP JUMPDEST PUSH1 0x0 PUSH2 0x223C PUSH2 0x224D JUMP JUMPDEST SWAP1 POP PUSH2 0x2248 DUP3 DUP3 PUSH2 0x24B8 JUMP JUMPDEST SWAP2 SWAP1 POP JUMP JUMPDEST PUSH1 0x0 PUSH1 0x40 MLOAD SWAP1 POP SWAP1 JUMP JUMPDEST PUSH1 0x0 PUSH8 0xFFFFFFFFFFFFFFFF DUP3 GT ISZERO PUSH2 0x2272 JUMPI PUSH2 0x2271 PUSH2 0x2576 JUMP JUMPDEST JUMPDEST PUSH1 0x20 DUP3 MUL SWAP1 POP PUSH1 0x20 DUP2 ADD SWAP1 POP SWAP2 SWAP1 POP JUMP JUMPDEST PUSH1 0x0 DUP2 SWAP1 POP PUSH1 0x20 DUP3 ADD SWAP1 POP SWAP2 SWAP1 POP JUMP JUMPDEST PUSH1 0x0 DUP2 MLOAD SWAP1 POP SWAP2 SWAP1 POP JUMP JUMPDEST PUSH1 0x0 DUP2 MLOAD SWAP1 POP SWAP2 SWAP1 POP JUMP JUMPDEST PUSH1 0x0 PUSH1 0x20 DUP3 ADD SWAP1 POP SWAP2 SWAP1 POP JUMP JUMPDEST PUSH1 0x0 DUP3 DUP3 MSTORE PUSH1 0x20 DUP3 ADD SWAP1 POP SWAP3 SWAP2 POP POP JUMP JUMPDEST PUSH1 0x0 DUP3 DUP3 MSTORE PUSH1 0x20 DUP3 ADD SWAP1 POP SWAP3 SWAP2 POP POP JUMP JUMPDEST PUSH1 0x0 PUSH2 0x22E3 DUP3 PUSH2 0x2445 JUMP JUMPDEST SWAP2 POP PUSH2 0x22EE DUP4 PUSH2 0x2445 JUMP JUMPDEST SWAP3 POP DUP3 PUSH32 0xFFFFFFFFFFFFFFFFFFFFFFFFFFFFFFFFFFFFFFFFFFFFFFFFFFFFFFFFFFFFFFFF SUB DUP3 GT ISZERO PUSH2 0x2323 JUMPI PUSH2 0x2322 PUSH2 0x24E9 JUMP JUMPDEST JUMPDEST DUP3 DUP3 ADD SWAP1 POP SWAP3 SWAP2 POP POP JUMP JUMPDEST PUSH1 0x0 PUSH2 0x2339 DUP3 PUSH2 0x2445 JUMP JUMPDEST SWAP2 POP PUSH2 0x2344 DUP4 PUSH2 0x2445 JUMP JUMPDEST SWAP3 POP DUP3 PUSH2 0x2354 JUMPI PUSH2 0x2353 PUSH2 0x2518 JUMP JUMPDEST JUMPDEST DUP3 DUP3 DIV SWAP1 POP SWAP3 SWAP2 POP POP JUMP JUMPDEST PUSH1 0x0 PUSH2 0x236A DUP3 PUSH2 0x2445 JUMP JUMPDEST SWAP2 POP PUSH2 0x2375 DUP4 PUSH2 0x2445 JUMP JUMPDEST SWAP3 POP DUP2 PUSH32 0xFFFFFFFFFFFFFFFFFFFFFFFFFFFFFFFFFFFFFFFFFFFFFFFFFFFFFFFFFFFFFFFF DIV DUP4 GT DUP3 ISZERO ISZERO AND ISZERO PUSH2 0x23AE JUMPI PUSH2 0x23AD PUSH2 0x24E9 JUMP JUMPDEST JUMPDEST DUP3 DUP3 MUL SWAP1 POP SWAP3 SWAP2 POP POP JUMP JUMPDEST PUSH1 0x0 PUSH2 0x23C4 DUP3 PUSH2 0x2425 JUMP JUMPDEST SWAP1 POP SWAP2 SWAP1 POP JUMP JUMPDEST PUSH1 0x0 PUSH2 0x23D6 DUP3 PUSH2 0x23B9 JUMP JUMPDEST SWAP1 POP SWAP2 SWAP1 POP JUMP JUMPDEST PUSH1 0x0 PUSH2 0x23E8 DUP3 PUSH2 0x23B9 JUMP JUMPDEST SWAP1 POP SWAP2 SWAP1 POP JUMP JUMPDEST PUSH1 0x0 PUSH2 0x23FA DUP3 PUSH2 0x23B9 JUMP JUMPDEST SWAP1 POP SWAP2 SWAP1 POP JUMP JUMPDEST PUSH1 0x0 PUSH2 0x240C DUP3 PUSH2 0x23B9 JUMP JUMPDEST SWAP1 POP SWAP2 SWAP1 POP JUMP JUMPDEST PUSH1 0x0 PUSH2 0x241E DUP3 PUSH2 0x23B9 JUMP JUMPDEST SWAP1 POP SWAP2 SWAP1 POP JUMP JUMPDEST PUSH1 0x0 PUSH20 0xFFFFFFFFFFFFFFFFFFFFFFFFFFFFFFFFFFFFFFFF DUP3 AND SWAP1 POP SWAP2 SWAP1 POP JUMP JUMPDEST PUSH1 0x0 DUP2 SWAP1 POP SWAP2 SWAP1 POP JUMP JUMPDEST PUSH1 0x0 PUSH2 0x245A DUP3 PUSH2 0x2461 JUMP JUMPDEST SWAP1 POP SWAP2 SWAP1 POP JUMP JUMPDEST PUSH1 0x0 PUSH2 0x246C DUP3 PUSH2 0x2473 JUMP JUMPDEST SWAP1 POP SWAP2 SWAP1 POP JUMP JUMPDEST PUSH1 0x0 PUSH2 0x247E DUP3 PUSH2 0x2425 JUMP JUMPDEST SWAP1 POP SWAP2 SWAP1 POP JUMP JUMPDEST PUSH1 0x0 JUMPDEST DUP4 DUP2 LT ISZERO PUSH2 0x24A3 JUMPI DUP1 DUP3 ADD MLOAD DUP2 DUP5 ADD MSTORE PUSH1 0x20 DUP2 ADD SWAP1 POP PUSH2 0x2488 JUMP JUMPDEST DUP4 DUP2 GT ISZERO PUSH2 0x24B2 JUMPI PUSH1 0x0 DUP5 DUP5 ADD MSTORE JUMPDEST POP POP POP POP JUMP JUMPDEST PUSH2 0x24C1 DUP3 PUSH2 0x25BE JUMP JUMPDEST DUP2 ADD DUP2 DUP2 LT PUSH8 0xFFFFFFFFFFFFFFFF DUP3 GT OR ISZERO PUSH2 0x24E0 JUMPI PUSH2 0x24DF PUSH2 0x2576 JUMP JUMPDEST JUMPDEST DUP1 PUSH1 0x40 MSTORE POP POP POP JUMP JUMPDEST PUSH32 0x4E487B7100000000000000000000000000000000000000000000000000000000 PUSH1 0x0 MSTORE PUSH1 0x11 PUSH1 0x4 MSTORE PUSH1 0x24 PUSH1 0x0 REVERT JUMPDEST PUSH32 0x4E487B7100000000000000000000000000000000000000000000000000000000 PUSH1 0x0 MSTORE PUSH1 0x12 PUSH1 0x4 MSTORE PUSH1 0x24 PUSH1 0x0 REVERT JUMPDEST PUSH32 0x4E487B7100000000000000000000000000000000000000000000000000000000 PUSH1 0x0 MSTORE PUSH1 0x32 PUSH1 0x4 MSTORE PUSH1 0x24 PUSH1 0x0 REVERT JUMPDEST PUSH32 0x4E487B7100000000000000000000000000000000000000000000000000000000 PUSH1 0x0 MSTORE PUSH1 0x41 PUSH1 0x4 MSTORE PUSH1 0x24 PUSH1 0x0 REVERT JUMPDEST PUSH1 0x0 DUP1 REVERT JUMPDEST PUSH1 0x0 DUP1 REVERT JUMPDEST PUSH1 0x0 DUP1 REVERT JUMPDEST PUSH1 0x0 DUP1 REVERT JUMPDEST PUSH1 0x0 DUP1 REVERT JUMPDEST PUSH1 0x0 PUSH1 0x1F NOT PUSH1 0x1F DUP4 ADD AND SWAP1 POP SWAP2 SWAP1 POP JUMP JUMPDEST PUSH32 0x4F776E61626C653A206E6577206F776E657220697320746865207A65726F2061 PUSH1 0x0 DUP3 ADD MSTORE PUSH32 0x6464726573730000000000000000000000000000000000000000000000000000 PUSH1 0x20 DUP3 ADD MSTORE POP JUMP JUMPDEST PUSH32 0x536166654D6174683A206164646974696F6E206F766572666C6F770000000000 PUSH1 0x0 DUP3 ADD MSTORE POP JUMP JUMPDEST PUSH32 0x536166654D6174683A206D756C7469706C69636174696F6E206F766572666C6F PUSH1 0x0 DUP3 ADD MSTORE PUSH32 0x7700000000000000000000000000000000000000000000000000000000000000 PUSH1 0x20 DUP3 ADD MSTORE POP JUMP JUMPDEST PUSH32 0x4F776E61626C653A2063616C6C6572206973206E6F7420746865206F776E6572 PUSH1 0x0 DUP3 ADD MSTORE POP JUMP JUMPDEST PUSH2 0x26C8 DUP2 PUSH2 0x23B9 JUMP JUMPDEST DUP2 EQ PUSH2 0x26D3 JUMPI PUSH1 0x0 DUP1 REVERT JUMPDEST POP JUMP JUMPDEST PUSH2 0x26DF DUP2 PUSH2 0x23CB JUMP JUMPDEST DUP2 EQ PUSH2 0x26EA JUMPI PUSH1 0x0 DUP1 REVERT JUMPDEST POP JUMP JUMPDEST PUSH2 0x26F6 DUP2 PUSH2 0x23DD JUMP JUMPDEST DUP2 EQ PUSH2 0x2701 JUMPI PUSH1 0x0 DUP1 REVERT JUMPDEST POP JUMP JUMPDEST PUSH2 0x270D DUP2 PUSH2 0x23EF JUMP JUMPDEST DUP2 EQ PUSH2 0x2718 JUMPI PUSH1 0x0 DUP1 REVERT JUMPDEST POP JUMP JUMPDEST PUSH2 0x2724 DUP2 PUSH2 0x2401 JUMP JUMPDEST DUP2 EQ PUSH2 0x272F JUMPI PUSH1 0x0 DUP1 REVERT JUMPDEST POP JUMP JUMPDEST PUSH2 0x273B DUP2 PUSH2 0x2413 JUMP JUMPDEST DUP2 EQ PUSH2 0x2746 JUMPI PUSH1 0x0 DUP1 REVERT JUMPDEST POP JUMP JUMPDEST PUSH2 0x2752 DUP2 PUSH2 0x2445 JUMP JUMPDEST DUP2 EQ PUSH2 0x275D JUMPI PUSH1 0x0 DUP1 REVERT JUMPDEST POP JUMP INVALID LOG2 PUSH5 0x6970667358 0x22 SLT KECCAK256 PUSH13 0x885D00B150A471D5078ABA2C10 KECCAK256 SWAP14 0xBA 0xE7 0xCB 0xB8 0xD8 0xAC JUMPI LOG1 DELEGATECALL 0x49 SMOD 0x2D PUSH7 0x895DFB64736F6C PUSH4 0x43000807 STOP CALLER "
				},
				"gasEstimates": {
					"creation": {
						"codeDepositCost": "2026800",
						"executionCost": "infinite",
						"totalCost": "infinite"
					},
					"external": {
						"BUSD()": "2559",
						"CalcApy(uint256,address,uint256,address)": "infinite",
						"CalcLpPrice(address)": "infinite",
						"Tokenprice(address)": "infinite",
						"WBNB()": "2559",
						"WBNBPrice(address)": "infinite",
						"calcPoolTVLInUSD(uint256,address,uint256,address)": "infinite",
						"getPoolWeight(uint256,address)": "infinite",
						"getRewardTokenPrice(address)": "infinite",
						"owner()": "2545",
						"renounceOwnership()": "30463",
						"routerAddress()": "2668",
						"setRouter(address)": "27072",
						"transferOwnership(address)": "30811"
					}
				},
				"methodIdentifiers": {
					"BUSD()": "484f4ea9",
					"CalcApy(uint256,address,uint256,address)": "dbb79348",
					"CalcLpPrice(address)": "215cc989",
					"Tokenprice(address)": "19047f8a",
					"WBNB()": "8dd95002",
					"WBNBPrice(address)": "3b979d45",
					"calcPoolTVLInUSD(uint256,address,uint256,address)": "d979fb5f",
					"getPoolWeight(uint256,address)": "4abddbe3",
					"getRewardTokenPrice(address)": "dba88007",
					"owner()": "8da5cb5b",
					"renounceOwnership()": "715018a6",
					"routerAddress()": "3268cc56",
					"setRouter(address)": "c0d78655",
					"transferOwnership(address)": "f2fde38b"
				}
			},
			"storageLayout": {
				"storage": [
					{
						"astId": 509,
						"contract": "contracts/Utils.sol:Utils",
						"label": "_owner",
						"offset": 0,
						"slot": "0",
						"type": "t_address"
					},
					{
						"astId": 753,
						"contract": "contracts/Utils.sol:Utils",
						"label": "WBNB",
						"offset": 0,
						"slot": "1",
						"type": "t_address"
					},
					{
						"astId": 756,
						"contract": "contracts/Utils.sol:Utils",
						"label": "BUSD",
						"offset": 0,
						"slot": "2",
						"type": "t_address"
					},
					{
						"astId": 759,
						"contract": "contracts/Utils.sol:Utils",
						"label": "amount",
						"offset": 0,
						"slot": "3",
						"type": "t_uint256"
					},
					{
						"astId": 762,
						"contract": "contracts/Utils.sol:Utils",
						"label": "routerAddress",
						"offset": 0,
						"slot": "4",
						"type": "t_contract(Router)644"
					},
					{
						"astId": 765,
						"contract": "contracts/Utils.sol:Utils",
						"label": "BLOCKS_PER_YEAR",
						"offset": 0,
						"slot": "5",
						"type": "t_uint256"
					}
				],
				"types": {
					"t_address": {
						"encoding": "inplace",
						"label": "address",
						"numberOfBytes": "20"
					},
					"t_contract(Router)644": {
						"encoding": "inplace",
						"label": "contract Router",
						"numberOfBytes": "20"
					},
					"t_uint256": {
						"encoding": "inplace",
						"label": "uint256",
						"numberOfBytes": "32"
					}
				}
			},
			"userdoc": {
				"kind": "user",
				"methods": {},
				"version": 1
			}
		}
	}
}