{
	"contracts/DDTMasterChef.sol": {
		"MetaMasterChef": {
			"abi": [
				{
					"inputs": [
						{
							"internalType": "contract IERC20",
							"name": "_DDT",
							"type": "address"
						},
						{
							"internalType": "address",
							"name": "_devaddr",
							"type": "address"
						},
						{
							"internalType": "uint256",
							"name": "_DDTPerBlock",
							"type": "uint256"
						},
						{
							"internalType": "uint256",
							"name": "_startBlock",
							"type": "uint256"
						}
					],
					"stateMutability": "nonpayable",
					"type": "constructor"
				},
				{
					"anonymous": false,
					"inputs": [
						{
							"indexed": true,
							"internalType": "address",
							"name": "user",
							"type": "address"
						},
						{
							"indexed": true,
							"internalType": "uint256",
							"name": "pid",
							"type": "uint256"
						},
						{
							"indexed": false,
							"internalType": "uint256",
							"name": "amount",
							"type": "uint256"
						}
					],
					"name": "Deposit",
					"type": "event"
				},
				{
					"anonymous": false,
					"inputs": [
						{
							"indexed": true,
							"internalType": "address",
							"name": "user",
							"type": "address"
						},
						{
							"indexed": true,
							"internalType": "uint256",
							"name": "pid",
							"type": "uint256"
						},
						{
							"indexed": false,
							"internalType": "uint256",
							"name": "amount",
							"type": "uint256"
						}
					],
					"name": "EmergencyWithdraw",
					"type": "event"
				},
				{
					"anonymous": false,
					"inputs": [
						{
							"indexed": true,
							"internalType": "address",
							"name": "previousOwner",
							"type": "address"
						},
						{
							"indexed": true,
							"internalType": "address",
							"name": "newOwner",
							"type": "address"
						}
					],
					"name": "OwnershipTransferred",
					"type": "event"
				},
				{
					"anonymous": false,
					"inputs": [
						{
							"indexed": true,
							"internalType": "address",
							"name": "user",
							"type": "address"
						},
						{
							"indexed": true,
							"internalType": "uint256",
							"name": "pid",
							"type": "uint256"
						},
						{
							"indexed": false,
							"internalType": "uint256",
							"name": "amount",
							"type": "uint256"
						}
					],
					"name": "Withdraw",
					"type": "event"
				},
				{
					"inputs": [],
					"name": "BONUS_MULTIPLIER",
					"outputs": [
						{
							"internalType": "uint256",
							"name": "",
							"type": "uint256"
						}
					],
					"stateMutability": "view",
					"type": "function"
				},
				{
					"inputs": [],
					"name": "DDT",
					"outputs": [
						{
							"internalType": "contract IERC20",
							"name": "",
							"type": "address"
						}
					],
					"stateMutability": "view",
					"type": "function"
				},
				{
					"inputs": [],
					"name": "DDTPerBlock",
					"outputs": [
						{
							"internalType": "uint256",
							"name": "",
							"type": "uint256"
						}
					],
					"stateMutability": "view",
					"type": "function"
				},
				{
					"inputs": [
						{
							"internalType": "uint256",
							"name": "_allocPoint",
							"type": "uint256"
						},
						{
							"internalType": "contract IERC20",
							"name": "_lpToken",
							"type": "address"
						},
						{
							"internalType": "bool",
							"name": "_withUpdate",
							"type": "bool"
						},
						{
							"internalType": "contract IMasterChef",
							"name": "_poolMasterChef",
							"type": "address"
						},
						{
							"internalType": "contract IERC20",
							"name": "_rewardToken",
							"type": "address"
						},
						{
							"internalType": "uint256",
							"name": "_fee",
							"type": "uint256"
						},
						{
							"internalType": "uint256",
							"name": "_method",
							"type": "uint256"
						}
					],
					"name": "add",
					"outputs": [],
					"stateMutability": "nonpayable",
					"type": "function"
				},
				{
					"inputs": [
						{
							"internalType": "uint256",
							"name": "_pid",
							"type": "uint256"
						},
						{
							"internalType": "uint256",
							"name": "_BSWPid",
							"type": "uint256"
						},
						{
							"internalType": "uint256",
							"name": "_amount",
							"type": "uint256"
						}
					],
					"name": "deposit",
					"outputs": [],
					"stateMutability": "nonpayable",
					"type": "function"
				},
				{
					"inputs": [],
					"name": "devaddr",
					"outputs": [
						{
							"internalType": "address",
							"name": "",
							"type": "address"
						}
					],
					"stateMutability": "view",
					"type": "function"
				},
				{
					"inputs": [
						{
							"internalType": "uint256",
							"name": "_pid",
							"type": "uint256"
						}
					],
					"name": "emergencyWithdraw",
					"outputs": [],
					"stateMutability": "nonpayable",
					"type": "function"
				},
				{
					"inputs": [
						{
							"internalType": "uint256",
							"name": "_pid",
							"type": "uint256"
						}
					],
					"name": "emergencyWithdrawFromBSW",
					"outputs": [],
					"stateMutability": "nonpayable",
					"type": "function"
				},
				{
					"inputs": [
						{
							"internalType": "uint256",
							"name": "_pid",
							"type": "uint256"
						}
					],
					"name": "enablePool",
					"outputs": [],
					"stateMutability": "nonpayable",
					"type": "function"
				},
				{
					"inputs": [
						{
							"internalType": "uint256",
							"name": "_from",
							"type": "uint256"
						},
						{
							"internalType": "uint256",
							"name": "_to",
							"type": "uint256"
						}
					],
					"name": "getMultiplier",
					"outputs": [
						{
							"internalType": "uint256",
							"name": "",
							"type": "uint256"
						}
					],
					"stateMutability": "view",
					"type": "function"
				},
				{
					"inputs": [],
					"name": "massUpdatePools",
					"outputs": [],
					"stateMutability": "nonpayable",
					"type": "function"
				},
				{
					"inputs": [
						{
							"internalType": "uint256",
							"name": "_pid",
							"type": "uint256"
						}
					],
					"name": "migrate",
					"outputs": [],
					"stateMutability": "nonpayable",
					"type": "function"
				},
				{
					"inputs": [],
					"name": "migrator",
					"outputs": [
						{
							"internalType": "contract IMigratorChef",
							"name": "",
							"type": "address"
						}
					],
					"stateMutability": "view",
					"type": "function"
				},
				{
					"inputs": [],
					"name": "owner",
					"outputs": [
						{
							"internalType": "address",
							"name": "",
							"type": "address"
						}
					],
					"stateMutability": "view",
					"type": "function"
				},
				{
					"inputs": [
						{
							"internalType": "uint256",
							"name": "_pid",
							"type": "uint256"
						},
						{
							"internalType": "address",
							"name": "_user",
							"type": "address"
						}
					],
					"name": "pendingDDT",
					"outputs": [
						{
							"internalType": "uint256",
							"name": "",
							"type": "uint256"
						}
					],
					"stateMutability": "view",
					"type": "function"
				},
				{
					"inputs": [
						{
							"internalType": "uint256",
							"name": "",
							"type": "uint256"
						}
					],
					"name": "poolBalance",
					"outputs": [
						{
							"internalType": "uint256",
							"name": "",
							"type": "uint256"
						}
					],
					"stateMutability": "view",
					"type": "function"
				},
				{
					"inputs": [
						{
							"internalType": "uint256",
							"name": "",
							"type": "uint256"
						}
					],
					"name": "poolInfo",
					"outputs": [
						{
							"internalType": "contract IERC20",
							"name": "lpToken",
							"type": "address"
						},
						{
							"internalType": "uint256",
							"name": "allocPoint",
							"type": "uint256"
						},
						{
							"internalType": "uint256",
							"name": "lastRewardBlock",
							"type": "uint256"
						},
						{
							"internalType": "uint256",
							"name": "accDDTPerShare",
							"type": "uint256"
						},
						{
							"internalType": "contract IMasterChef",
							"name": "poolMasterChef",
							"type": "address"
						},
						{
							"internalType": "contract IERC20",
							"name": "rewardToken",
							"type": "address"
						},
						{
							"internalType": "uint256",
							"name": "fee",
							"type": "uint256"
						},
						{
							"internalType": "uint256",
							"name": "method",
							"type": "uint256"
						}
					],
					"stateMutability": "view",
					"type": "function"
				},
				{
					"inputs": [],
					"name": "poolLength",
					"outputs": [
						{
							"internalType": "uint256",
							"name": "",
							"type": "uint256"
						}
					],
					"stateMutability": "view",
					"type": "function"
				},
				{
					"inputs": [],
					"name": "renounceOwnership",
					"outputs": [],
					"stateMutability": "nonpayable",
					"type": "function"
				},
				{
					"inputs": [
						{
							"internalType": "uint256",
							"name": "_pid",
							"type": "uint256"
						},
						{
							"internalType": "uint256",
							"name": "_allocPoint",
							"type": "uint256"
						},
						{
							"internalType": "bool",
							"name": "_withUpdate",
							"type": "bool"
						}
					],
					"name": "set",
					"outputs": [],
					"stateMutability": "nonpayable",
					"type": "function"
				},
				{
					"inputs": [
						{
							"internalType": "address",
							"name": "_devaddr",
							"type": "address"
						}
					],
					"name": "setDevAddress",
					"outputs": [],
					"stateMutability": "nonpayable",
					"type": "function"
				},
				{
					"inputs": [
						{
							"internalType": "contract IMigratorChef",
							"name": "_migrator",
							"type": "address"
						}
					],
					"name": "setMigrator",
					"outputs": [],
					"stateMutability": "nonpayable",
					"type": "function"
				},
				{
					"inputs": [],
					"name": "startBlock",
					"outputs": [
						{
							"internalType": "uint256",
							"name": "",
							"type": "uint256"
						}
					],
					"stateMutability": "view",
					"type": "function"
				},
				{
					"inputs": [],
					"name": "totalAllocPoint",
					"outputs": [
						{
							"internalType": "uint256",
							"name": "",
							"type": "uint256"
						}
					],
					"stateMutability": "view",
					"type": "function"
				},
				{
					"inputs": [
						{
							"internalType": "address",
							"name": "newOwner",
							"type": "address"
						}
					],
					"name": "transferOwnership",
					"outputs": [],
					"stateMutability": "nonpayable",
					"type": "function"
				},
				{
					"inputs": [
						{
							"internalType": "uint256",
							"name": "newAmount",
							"type": "uint256"
						}
					],
					"name": "updateDDTPerBlock",
					"outputs": [],
					"stateMutability": "nonpayable",
					"type": "function"
				},
				{
					"inputs": [
						{
							"internalType": "uint256",
							"name": "multiplierNumber",
							"type": "uint256"
						}
					],
					"name": "updateMultiplier",
					"outputs": [],
					"stateMutability": "nonpayable",
					"type": "function"
				},
				{
					"inputs": [
						{
							"internalType": "uint256",
							"name": "_pid",
							"type": "uint256"
						}
					],
					"name": "updatePool",
					"outputs": [],
					"stateMutability": "nonpayable",
					"type": "function"
				},
				{
					"inputs": [
						{
							"internalType": "uint256",
							"name": "",
							"type": "uint256"
						},
						{
							"internalType": "address",
							"name": "",
							"type": "address"
						}
					],
					"name": "userInfo",
					"outputs": [
						{
							"internalType": "uint256",
							"name": "amount",
							"type": "uint256"
						},
						{
							"internalType": "uint256",
							"name": "rewardDebt",
							"type": "uint256"
						}
					],
					"stateMutability": "view",
					"type": "function"
				},
				{
					"inputs": [
						{
							"internalType": "uint256",
							"name": "_pid",
							"type": "uint256"
						},
						{
							"internalType": "uint256",
							"name": "_BSWPid",
							"type": "uint256"
						},
						{
							"internalType": "uint256",
							"name": "_amount",
							"type": "uint256"
						}
					],
					"name": "withdraw",
					"outputs": [],
					"stateMutability": "nonpayable",
					"type": "function"
				}
			],
			"devdoc": {
				"kind": "dev",
				"methods": {
					"owner()": {
						"details": "Returns the address of the current owner."
					},
					"renounceOwnership()": {
						"details": "Leaves the contract without owner. It will not be possible to call `onlyOwner` functions anymore. Can only be called by the current owner. NOTE: Renouncing ownership will leave the contract without an owner, thereby removing any functionality that is only available to the owner."
					},
					"transferOwnership(address)": {
						"details": "Transfers ownership of the contract to a new account (`newOwner`). Can only be called by the current owner."
					}
				},
				"version": 1
			},
			"evm": {
				"assembly": "    /* \"contracts/DDTMasterChef.sol\":22650:34217  contract MetaMasterChef is Ownable {... */\n  mstore(0x40, 0x80)\n    /* \"contracts/DDTMasterChef.sol\":24342:24343  1 */\n  0x01\n    /* \"contracts/DDTMasterChef.sol\":24308:24343  uint256 public BONUS_MULTIPLIER = 1 */\n  0x04\n  sstore\n    /* \"contracts/DDTMasterChef.sol\":24785:24786  0 */\n  0x00\n    /* \"contracts/DDTMasterChef.sol\":24752:24786  uint256 public totalAllocPoint = 0 */\n  0x08\n  sstore\n    /* \"contracts/DDTMasterChef.sol\":24956:25000  11111111111111111111111111111111111111111111 */\n  0x7f8c9ef06e25a77fe790001fac71c71c71c7\n    /* \"contracts/DDTMasterChef.sol\":24932:25000  uint256 approveAmount = 11111111111111111111111111111111111111111111 */\n  0x0b\n  sstore\n    /* \"contracts/DDTMasterChef.sol\":25025:25031  100000 */\n  0x0186a0\n    /* \"contracts/DDTMasterChef.sol\":25007:25031  uint256 percent = 100000 */\n  0x0c\n  sstore\n    /* \"contracts/DDTMasterChef.sol\":25324:25583  constructor(... */\n  callvalue\n  dup1\n  iszero\n  tag_1\n  jumpi\n  0x00\n  dup1\n  revert\ntag_1:\n  pop\n  mload(0x40)\n  sub(codesize, bytecodeSize)\n  dup1\n  bytecodeSize\n  dup4\n  codecopy\n  dup2\n  dup2\n  add\n  0x40\n  mstore\n  dup2\n  add\n  swap1\n  tag_2\n  swap2\n  swap1\n  tag_3\n  jump\t// in\ntag_2:\n    /* \"contracts/DDTMasterChef.sol\":19984:20016  _transferOwnership(_msgSender()) */\n  tag_7\n    /* \"contracts/DDTMasterChef.sol\":20003:20015  _msgSender() */\n  tag_8\n    /* \"contracts/DDTMasterChef.sol\":20003:20013  _msgSender */\n  shl(0x20, tag_9)\n    /* \"contracts/DDTMasterChef.sol\":20003:20015  _msgSender() */\n  0x20\n  shr\n  jump\t// in\ntag_8:\n    /* \"contracts/DDTMasterChef.sol\":19984:20002  _transferOwnership */\n  shl(0x20, tag_10)\n    /* \"contracts/DDTMasterChef.sol\":19984:20016  _transferOwnership(_msgSender()) */\n  0x20\n  shr\n  jump\t// in\ntag_7:\n    /* \"contracts/DDTMasterChef.sol\":25470:25474  _DDT */\n  dup4\n    /* \"contracts/DDTMasterChef.sol\":25464:25467  DDT */\n  0x01\n  0x00\n    /* \"contracts/DDTMasterChef.sol\":25464:25474  DDT = _DDT */\n  0x0100\n  exp\n  dup2\n  sload\n  dup2\n  0xffffffffffffffffffffffffffffffffffffffff\n  mul\n  not\n  and\n  swap1\n  dup4\n  0xffffffffffffffffffffffffffffffffffffffff\n  and\n  mul\n  or\n  swap1\n  sstore\n  pop\n    /* \"contracts/DDTMasterChef.sol\":25495:25503  _devaddr */\n  dup3\n    /* \"contracts/DDTMasterChef.sol\":25485:25492  devaddr */\n  0x02\n  0x00\n    /* \"contracts/DDTMasterChef.sol\":25485:25503  devaddr = _devaddr */\n  0x0100\n  exp\n  dup2\n  sload\n  dup2\n  0xffffffffffffffffffffffffffffffffffffffff\n  mul\n  not\n  and\n  swap1\n  dup4\n  0xffffffffffffffffffffffffffffffffffffffff\n  and\n  mul\n  or\n  swap1\n  sstore\n  pop\n    /* \"contracts/DDTMasterChef.sol\":25528:25540  _DDTPerBlock */\n  dup2\n    /* \"contracts/DDTMasterChef.sol\":25514:25525  DDTPerBlock */\n  0x03\n    /* \"contracts/DDTMasterChef.sol\":25514:25540  DDTPerBlock = _DDTPerBlock */\n  dup2\n  swap1\n  sstore\n  pop\n    /* \"contracts/DDTMasterChef.sol\":25564:25575  _startBlock */\n  dup1\n    /* \"contracts/DDTMasterChef.sol\":25551:25561  startBlock */\n  0x09\n    /* \"contracts/DDTMasterChef.sol\":25551:25575  startBlock = _startBlock */\n  dup2\n  swap1\n  sstore\n  pop\n    /* \"contracts/DDTMasterChef.sol\":25324:25583  constructor(... */\n  pop\n  pop\n  pop\n  pop\n    /* \"contracts/DDTMasterChef.sol\":22650:34217  contract MetaMasterChef is Ownable {... */\n  jump(tag_12)\n    /* \"contracts/DDTMasterChef.sol\":19479:19577  function _msgSender() internal view virtual returns (address) {... */\ntag_9:\n    /* \"contracts/DDTMasterChef.sol\":19532:19539  address */\n  0x00\n    /* \"contracts/DDTMasterChef.sol\":19559:19569  msg.sender */\n  caller\n    /* \"contracts/DDTMasterChef.sol\":19552:19569  return msg.sender */\n  swap1\n  pop\n    /* \"contracts/DDTMasterChef.sol\":19479:19577  function _msgSender() internal view virtual returns (address) {... */\n  swap1\n  jump\t// out\n    /* \"contracts/DDTMasterChef.sol\":21375:21566  function _transferOwnership(address newOwner) internal virtual {... */\ntag_10:\n    /* \"contracts/DDTMasterChef.sol\":21449:21465  address oldOwner */\n  0x00\n    /* \"contracts/DDTMasterChef.sol\":21468:21474  _owner */\n  dup1\n  0x00\n  swap1\n  sload\n  swap1\n  0x0100\n  exp\n  swap1\n  div\n  0xffffffffffffffffffffffffffffffffffffffff\n  and\n    /* \"contracts/DDTMasterChef.sol\":21449:21474  address oldOwner = _owner */\n  swap1\n  pop\n    /* \"contracts/DDTMasterChef.sol\":21494:21502  newOwner */\n  dup2\n    /* \"contracts/DDTMasterChef.sol\":21485:21491  _owner */\n  0x00\n  dup1\n    /* \"contracts/DDTMasterChef.sol\":21485:21502  _owner = newOwner */\n  0x0100\n  exp\n  dup2\n  sload\n  dup2\n  0xffffffffffffffffffffffffffffffffffffffff\n  mul\n  not\n  and\n  swap1\n  dup4\n  0xffffffffffffffffffffffffffffffffffffffff\n  and\n  mul\n  or\n  swap1\n  sstore\n  pop\n    /* \"contracts/DDTMasterChef.sol\":21549:21557  newOwner */\n  dup2\n    /* \"contracts/DDTMasterChef.sol\":21518:21558  OwnershipTransferred(oldOwner, newOwner) */\n  0xffffffffffffffffffffffffffffffffffffffff\n  and\n    /* \"contracts/DDTMasterChef.sol\":21539:21547  oldOwner */\n  dup2\n    /* \"contracts/DDTMasterChef.sol\":21518:21558  OwnershipTransferred(oldOwner, newOwner) */\n  0xffffffffffffffffffffffffffffffffffffffff\n  and\n  0x8be0079c531659141344cd1fd0a4f28419497f9722a3daafe3b4186f6b6457e0\n  mload(0x40)\n  mload(0x40)\n  dup1\n  swap2\n  sub\n  swap1\n  log3\n    /* \"contracts/DDTMasterChef.sol\":21438:21566  {... */\n  pop\n    /* \"contracts/DDTMasterChef.sol\":21375:21566  function _transferOwnership(address newOwner) internal virtual {... */\n  pop\n  jump\t// out\n    /* \"#utility.yul\":88:205   */\ntag_16:\n    /* \"#utility.yul\":197:198   */\n  0x00\n    /* \"#utility.yul\":194:195   */\n  dup1\n    /* \"#utility.yul\":187:199   */\n  revert\n    /* \"#utility.yul\":334:460   */\ntag_18:\n    /* \"#utility.yul\":371:378   */\n  0x00\n    /* \"#utility.yul\":411:453   */\n  0xffffffffffffffffffffffffffffffffffffffff\n    /* \"#utility.yul\":404:409   */\n  dup3\n    /* \"#utility.yul\":400:454   */\n  and\n    /* \"#utility.yul\":389:454   */\n  swap1\n  pop\n    /* \"#utility.yul\":334:460   */\n  swap2\n  swap1\n  pop\n  jump\t// out\n    /* \"#utility.yul\":466:562   */\ntag_19:\n    /* \"#utility.yul\":503:510   */\n  0x00\n    /* \"#utility.yul\":532:556   */\n  tag_34\n    /* \"#utility.yul\":550:555   */\n  dup3\n    /* \"#utility.yul\":532:556   */\n  tag_18\n  jump\t// in\ntag_34:\n    /* \"#utility.yul\":521:556   */\n  swap1\n  pop\n    /* \"#utility.yul\":466:562   */\n  swap2\n  swap1\n  pop\n  jump\t// out\n    /* \"#utility.yul\":568:678   */\ntag_20:\n    /* \"#utility.yul\":619:626   */\n  0x00\n    /* \"#utility.yul\":648:672   */\n  tag_36\n    /* \"#utility.yul\":666:671   */\n  dup3\n    /* \"#utility.yul\":648:672   */\n  tag_19\n  jump\t// in\ntag_36:\n    /* \"#utility.yul\":637:672   */\n  swap1\n  pop\n    /* \"#utility.yul\":568:678   */\n  swap2\n  swap1\n  pop\n  jump\t// out\n    /* \"#utility.yul\":684:834   */\ntag_21:\n    /* \"#utility.yul\":771:809   */\n  tag_38\n    /* \"#utility.yul\":803:808   */\n  dup2\n    /* \"#utility.yul\":771:809   */\n  tag_20\n  jump\t// in\ntag_38:\n    /* \"#utility.yul\":764:769   */\n  dup2\n    /* \"#utility.yul\":761:810   */\n  eq\n    /* \"#utility.yul\":751:828   */\n  tag_39\n  jumpi\n    /* \"#utility.yul\":824:825   */\n  0x00\n    /* \"#utility.yul\":821:822   */\n  dup1\n    /* \"#utility.yul\":814:826   */\n  revert\n    /* \"#utility.yul\":751:828   */\ntag_39:\n    /* \"#utility.yul\":684:834   */\n  pop\n  jump\t// out\n    /* \"#utility.yul\":840:1011   */\ntag_22:\n    /* \"#utility.yul\":911:916   */\n  0x00\n    /* \"#utility.yul\":942:948   */\n  dup2\n    /* \"#utility.yul\":936:949   */\n  mload\n    /* \"#utility.yul\":927:949   */\n  swap1\n  pop\n    /* \"#utility.yul\":958:1005   */\n  tag_41\n    /* \"#utility.yul\":999:1004   */\n  dup2\n    /* \"#utility.yul\":958:1005   */\n  tag_21\n  jump\t// in\ntag_41:\n    /* \"#utility.yul\":840:1011   */\n  swap3\n  swap2\n  pop\n  pop\n  jump\t// out\n    /* \"#utility.yul\":1017:1139   */\ntag_23:\n    /* \"#utility.yul\":1090:1114   */\n  tag_43\n    /* \"#utility.yul\":1108:1113   */\n  dup2\n    /* \"#utility.yul\":1090:1114   */\n  tag_19\n  jump\t// in\ntag_43:\n    /* \"#utility.yul\":1083:1088   */\n  dup2\n    /* \"#utility.yul\":1080:1115   */\n  eq\n    /* \"#utility.yul\":1070:1133   */\n  tag_44\n  jumpi\n    /* \"#utility.yul\":1129:1130   */\n  0x00\n    /* \"#utility.yul\":1126:1127   */\n  dup1\n    /* \"#utility.yul\":1119:1131   */\n  revert\n    /* \"#utility.yul\":1070:1133   */\ntag_44:\n    /* \"#utility.yul\":1017:1139   */\n  pop\n  jump\t// out\n    /* \"#utility.yul\":1145:1288   */\ntag_24:\n    /* \"#utility.yul\":1202:1207   */\n  0x00\n    /* \"#utility.yul\":1233:1239   */\n  dup2\n    /* \"#utility.yul\":1227:1240   */\n  mload\n    /* \"#utility.yul\":1218:1240   */\n  swap1\n  pop\n    /* \"#utility.yul\":1249:1282   */\n  tag_46\n    /* \"#utility.yul\":1276:1281   */\n  dup2\n    /* \"#utility.yul\":1249:1282   */\n  tag_23\n  jump\t// in\ntag_46:\n    /* \"#utility.yul\":1145:1288   */\n  swap3\n  swap2\n  pop\n  pop\n  jump\t// out\n    /* \"#utility.yul\":1294:1371   */\ntag_25:\n    /* \"#utility.yul\":1331:1338   */\n  0x00\n    /* \"#utility.yul\":1360:1365   */\n  dup2\n    /* \"#utility.yul\":1349:1365   */\n  swap1\n  pop\n    /* \"#utility.yul\":1294:1371   */\n  swap2\n  swap1\n  pop\n  jump\t// out\n    /* \"#utility.yul\":1377:1499   */\ntag_26:\n    /* \"#utility.yul\":1450:1474   */\n  tag_49\n    /* \"#utility.yul\":1468:1473   */\n  dup2\n    /* \"#utility.yul\":1450:1474   */\n  tag_25\n  jump\t// in\ntag_49:\n    /* \"#utility.yul\":1443:1448   */\n  dup2\n    /* \"#utility.yul\":1440:1475   */\n  eq\n    /* \"#utility.yul\":1430:1493   */\n  tag_50\n  jumpi\n    /* \"#utility.yul\":1489:1490   */\n  0x00\n    /* \"#utility.yul\":1486:1487   */\n  dup1\n    /* \"#utility.yul\":1479:1491   */\n  revert\n    /* \"#utility.yul\":1430:1493   */\ntag_50:\n    /* \"#utility.yul\":1377:1499   */\n  pop\n  jump\t// out\n    /* \"#utility.yul\":1505:1648   */\ntag_27:\n    /* \"#utility.yul\":1562:1567   */\n  0x00\n    /* \"#utility.yul\":1593:1599   */\n  dup2\n    /* \"#utility.yul\":1587:1600   */\n  mload\n    /* \"#utility.yul\":1578:1600   */\n  swap1\n  pop\n    /* \"#utility.yul\":1609:1642   */\n  tag_52\n    /* \"#utility.yul\":1636:1641   */\n  dup2\n    /* \"#utility.yul\":1609:1642   */\n  tag_26\n  jump\t// in\ntag_52:\n    /* \"#utility.yul\":1505:1648   */\n  swap3\n  swap2\n  pop\n  pop\n  jump\t// out\n    /* \"#utility.yul\":1654:2502   */\ntag_3:\n    /* \"#utility.yul\":1765:1771   */\n  0x00\n    /* \"#utility.yul\":1773:1779   */\n  dup1\n    /* \"#utility.yul\":1781:1787   */\n  0x00\n    /* \"#utility.yul\":1789:1795   */\n  dup1\n    /* \"#utility.yul\":1838:1841   */\n  0x80\n    /* \"#utility.yul\":1826:1835   */\n  dup6\n    /* \"#utility.yul\":1817:1824   */\n  dup8\n    /* \"#utility.yul\":1813:1836   */\n  sub\n    /* \"#utility.yul\":1809:1842   */\n  slt\n    /* \"#utility.yul\":1806:1926   */\n  iszero\n  tag_54\n  jumpi\n    /* \"#utility.yul\":1845:1924   */\n  tag_55\n  tag_16\n  jump\t// in\ntag_55:\n    /* \"#utility.yul\":1806:1926   */\ntag_54:\n    /* \"#utility.yul\":1965:1966   */\n  0x00\n    /* \"#utility.yul\":1990:2068   */\n  tag_56\n    /* \"#utility.yul\":2060:2067   */\n  dup8\n    /* \"#utility.yul\":2051:2057   */\n  dup3\n    /* \"#utility.yul\":2040:2049   */\n  dup9\n    /* \"#utility.yul\":2036:2058   */\n  add\n    /* \"#utility.yul\":1990:2068   */\n  tag_22\n  jump\t// in\ntag_56:\n    /* \"#utility.yul\":1980:2068   */\n  swap5\n  pop\n    /* \"#utility.yul\":1936:2078   */\n  pop\n    /* \"#utility.yul\":2117:2119   */\n  0x20\n    /* \"#utility.yul\":2143:2207   */\n  tag_57\n    /* \"#utility.yul\":2199:2206   */\n  dup8\n    /* \"#utility.yul\":2190:2196   */\n  dup3\n    /* \"#utility.yul\":2179:2188   */\n  dup9\n    /* \"#utility.yul\":2175:2197   */\n  add\n    /* \"#utility.yul\":2143:2207   */\n  tag_24\n  jump\t// in\ntag_57:\n    /* \"#utility.yul\":2133:2207   */\n  swap4\n  pop\n    /* \"#utility.yul\":2088:2217   */\n  pop\n    /* \"#utility.yul\":2256:2258   */\n  0x40\n    /* \"#utility.yul\":2282:2346   */\n  tag_58\n    /* \"#utility.yul\":2338:2345   */\n  dup8\n    /* \"#utility.yul\":2329:2335   */\n  dup3\n    /* \"#utility.yul\":2318:2327   */\n  dup9\n    /* \"#utility.yul\":2314:2336   */\n  add\n    /* \"#utility.yul\":2282:2346   */\n  tag_27\n  jump\t// in\ntag_58:\n    /* \"#utility.yul\":2272:2346   */\n  swap3\n  pop\n    /* \"#utility.yul\":2227:2356   */\n  pop\n    /* \"#utility.yul\":2395:2397   */\n  0x60\n    /* \"#utility.yul\":2421:2485   */\n  tag_59\n    /* \"#utility.yul\":2477:2484   */\n  dup8\n    /* \"#utility.yul\":2468:2474   */\n  dup3\n    /* \"#utility.yul\":2457:2466   */\n  dup9\n    /* \"#utility.yul\":2453:2475   */\n  add\n    /* \"#utility.yul\":2421:2485   */\n  tag_27\n  jump\t// in\ntag_59:\n    /* \"#utility.yul\":2411:2485   */\n  swap2\n  pop\n    /* \"#utility.yul\":2366:2495   */\n  pop\n    /* \"#utility.yul\":1654:2502   */\n  swap3\n  swap6\n  swap2\n  swap5\n  pop\n  swap3\n  pop\n  jump\t// out\n    /* \"contracts/DDTMasterChef.sol\":22650:34217  contract MetaMasterChef is Ownable {... */\ntag_12:\n  dataSize(sub_0)\n  dup1\n  dataOffset(sub_0)\n  0x00\n  codecopy\n  0x00\n  return\nstop\n\nsub_0: assembly {\n        /* \"contracts/DDTMasterChef.sol\":22650:34217  contract MetaMasterChef is Ownable {... */\n      mstore(0x40, 0x80)\n      callvalue\n      dup1\n      iszero\n      tag_1\n      jumpi\n      0x00\n      dup1\n      revert\n    tag_1:\n      pop\n      jumpi(tag_2, lt(calldatasize, 0x04))\n      shr(0xe0, calldataload(0x00))\n      dup1\n      0x68382a21\n      gt\n      tag_33\n      jumpi\n      dup1\n      0x93f1a40b\n      gt\n      tag_34\n      jumpi\n      dup1\n      0xd49e77cd\n      gt\n      tag_35\n      jumpi\n      dup1\n      0xd49e77cd\n      eq\n      tag_29\n      jumpi\n      dup1\n      0xeeac3ae8\n      eq\n      tag_30\n      jumpi\n      dup1\n      0xf2fde38b\n      eq\n      tag_31\n      jumpi\n      dup1\n      0xf395db2c\n      eq\n      tag_32\n      jumpi\n      jump(tag_2)\n    tag_35:\n      dup1\n      0x93f1a40b\n      eq\n      tag_25\n      jumpi\n      dup1\n      0xa41fe49f\n      eq\n      tag_26\n      jumpi\n      dup1\n      0xcb3cba55\n      eq\n      tag_27\n      jumpi\n      dup1\n      0xd0d41fe1\n      eq\n      tag_28\n      jumpi\n      jump(tag_2)\n    tag_34:\n      dup1\n      0x7cd07e47\n      gt\n      tag_36\n      jumpi\n      dup1\n      0x7cd07e47\n      eq\n      tag_21\n      jumpi\n      dup1\n      0x8aa28550\n      eq\n      tag_22\n      jumpi\n      dup1\n      0x8da5cb5b\n      eq\n      tag_23\n      jumpi\n      dup1\n      0x8dbb1e3a\n      eq\n      tag_24\n      jumpi\n      jump(tag_2)\n    tag_36:\n      dup1\n      0x68382a21\n      eq\n      tag_18\n      jumpi\n      dup1\n      0x6a6d964e\n      eq\n      tag_19\n      jumpi\n      dup1\n      0x715018a6\n      eq\n      tag_20\n      jumpi\n      jump(tag_2)\n    tag_33:\n      dup1\n      0x48cd4cb1\n      gt\n      tag_37\n      jumpi\n      dup1\n      0x612eee43\n      gt\n      tag_38\n      jumpi\n      dup1\n      0x612eee43\n      eq\n      tag_14\n      jumpi\n      dup1\n      0x630b5ba1\n      eq\n      tag_15\n      jumpi\n      dup1\n      0x64482f79\n      eq\n      tag_16\n      jumpi\n      dup1\n      0x64944193\n      eq\n      tag_17\n      jumpi\n      jump(tag_2)\n    tag_38:\n      dup1\n      0x48cd4cb1\n      eq\n      tag_10\n      jumpi\n      dup1\n      0x51eb05a6\n      eq\n      tag_11\n      jumpi\n      dup1\n      0x5312ea8e\n      eq\n      tag_12\n      jumpi\n      dup1\n      0x5ffe6146\n      eq\n      tag_13\n      jumpi\n      jump(tag_2)\n    tag_37:\n      dup1\n      0x17caf6f1\n      gt\n      tag_39\n      jumpi\n      dup1\n      0x17caf6f1\n      eq\n      tag_6\n      jumpi\n      dup1\n      0x2080baab\n      eq\n      tag_7\n      jumpi\n      dup1\n      0x23cf3118\n      eq\n      tag_8\n      jumpi\n      dup1\n      0x454b0608\n      eq\n      tag_9\n      jumpi\n      jump(tag_2)\n    tag_39:\n      dup1\n      0xaeef8a\n      eq\n      tag_3\n      jumpi\n      dup1\n      0x081e3eda\n      eq\n      tag_4\n      jumpi\n      dup1\n      0x1526fe27\n      eq\n      tag_5\n      jumpi\n    tag_2:\n      0x00\n      dup1\n      revert\n        /* \"contracts/DDTMasterChef.sol\":30329:31819  function deposit(uint256 _pid,uint256 _BSWPid, uint256 _amount) public {... */\n    tag_3:\n      tag_40\n      0x04\n      dup1\n      calldatasize\n      sub\n      dup2\n      add\n      swap1\n      tag_41\n      swap2\n      swap1\n      tag_42\n      jump\t// in\n    tag_41:\n      tag_43\n      jump\t// in\n    tag_40:\n      stop\n        /* \"contracts/DDTMasterChef.sol\":25722:25817  function poolLength() external view returns (uint256) {... */\n    tag_4:\n      tag_44\n      tag_45\n      jump\t// in\n    tag_44:\n      mload(0x40)\n      tag_46\n      swap2\n      swap1\n      tag_47\n      jump\t// in\n    tag_46:\n      mload(0x40)\n      dup1\n      swap2\n      sub\n      swap1\n      return\n        /* \"contracts/DDTMasterChef.sol\":24511:24537  PoolInfo[] public poolInfo */\n    tag_5:\n      tag_48\n      0x04\n      dup1\n      calldatasize\n      sub\n      dup2\n      add\n      swap1\n      tag_49\n      swap2\n      swap1\n      tag_50\n      jump\t// in\n    tag_49:\n      tag_51\n      jump\t// in\n    tag_48:\n      mload(0x40)\n      tag_52\n      swap9\n      swap8\n      swap7\n      swap6\n      swap5\n      swap4\n      swap3\n      swap2\n      swap1\n      tag_53\n      jump\t// in\n    tag_52:\n      mload(0x40)\n      dup1\n      swap2\n      sub\n      swap1\n      return\n        /* \"contracts/DDTMasterChef.sol\":24752:24786  uint256 public totalAllocPoint = 0 */\n    tag_6:\n      tag_54\n      tag_55\n      jump\t// in\n    tag_54:\n      mload(0x40)\n      tag_56\n      swap2\n      swap1\n      tag_47\n      jump\t// in\n    tag_56:\n      mload(0x40)\n      dup1\n      swap2\n      sub\n      swap1\n      return\n        /* \"contracts/DDTMasterChef.sol\":28242:28971  function pendingDDT(uint256 _pid, address _user) external view returns (uint256){... */\n    tag_7:\n      tag_57\n      0x04\n      dup1\n      calldatasize\n      sub\n      dup2\n      add\n      swap1\n      tag_58\n      swap2\n      swap1\n      tag_59\n      jump\t// in\n    tag_58:\n      tag_60\n      jump\t// in\n    tag_57:\n      mload(0x40)\n      tag_61\n      swap2\n      swap1\n      tag_47\n      jump\t// in\n    tag_61:\n      mload(0x40)\n      dup1\n      swap2\n      sub\n      swap1\n      return\n        /* \"contracts/DDTMasterChef.sol\":27258:27360  function setMigrator(IMigratorChef _migrator) public onlyOwner {... */\n    tag_8:\n      tag_62\n      0x04\n      dup1\n      calldatasize\n      sub\n      dup2\n      add\n      swap1\n      tag_63\n      swap2\n      swap1\n      tag_64\n      jump\t// in\n    tag_63:\n      tag_65\n      jump\t// in\n    tag_62:\n      stop\n        /* \"contracts/DDTMasterChef.sol\":27483:27959  function migrate(uint256 _pid) public {... */\n    tag_9:\n      tag_66\n      0x04\n      dup1\n      calldatasize\n      sub\n      dup2\n      add\n      swap1\n      tag_67\n      swap2\n      swap1\n      tag_50\n      jump\t// in\n    tag_67:\n      tag_68\n      jump\t// in\n    tag_66:\n      stop\n        /* \"contracts/DDTMasterChef.sol\":24842:24867  uint256 public startBlock */\n    tag_10:\n      tag_69\n      tag_70\n      jump\t// in\n    tag_69:\n      mload(0x40)\n      tag_71\n      swap2\n      swap1\n      tag_47\n      jump\t// in\n    tag_71:\n      mload(0x40)\n      dup1\n      swap2\n      sub\n      swap1\n      return\n        /* \"contracts/DDTMasterChef.sol\":29310:30015  function updatePool(uint256 _pid) public {... */\n    tag_11:\n      tag_72\n      0x04\n      dup1\n      calldatasize\n      sub\n      dup2\n      add\n      swap1\n      tag_73\n      swap2\n      swap1\n      tag_50\n      jump\t// in\n    tag_73:\n      tag_74\n      jump\t// in\n    tag_72:\n      stop\n        /* \"contracts/DDTMasterChef.sol\":33255:33611  function emergencyWithdraw(uint256 _pid) public {... */\n    tag_12:\n      tag_75\n      0x04\n      dup1\n      calldatasize\n      sub\n      dup2\n      add\n      swap1\n      tag_76\n      swap2\n      swap1\n      tag_50\n      jump\t// in\n    tag_76:\n      tag_77\n      jump\t// in\n    tag_75:\n      stop\n        /* \"contracts/DDTMasterChef.sol\":25591:25714  function updateMultiplier(uint256 multiplierNumber) public onlyOwner {... */\n    tag_13:\n      tag_78\n      0x04\n      dup1\n      calldatasize\n      sub\n      dup2\n      add\n      swap1\n      tag_79\n      swap2\n      swap1\n      tag_50\n      jump\t// in\n    tag_79:\n      tag_80\n      jump\t// in\n    tag_78:\n      stop\n        /* \"contracts/DDTMasterChef.sol\":34109:34214  function updateDDTPerBlock(uint256 newAmount) public onlyOwner {... */\n    tag_14:\n      tag_81\n      0x04\n      dup1\n      calldatasize\n      sub\n      dup2\n      add\n      swap1\n      tag_82\n      swap2\n      swap1\n      tag_50\n      jump\t// in\n    tag_82:\n      tag_83\n      jump\t// in\n    tag_81:\n      stop\n        /* \"contracts/DDTMasterChef.sol\":29054:29234  function massUpdatePools() public {... */\n    tag_15:\n      tag_84\n      tag_85\n      jump\t// in\n    tag_84:\n      stop\n        /* \"contracts/DDTMasterChef.sol\":26877:27182  function set( uint256 _pid, uint256 _allocPoint, bool _withUpdate) public onlyOwner {... */\n    tag_16:\n      tag_86\n      0x04\n      dup1\n      calldatasize\n      sub\n      dup2\n      add\n      swap1\n      tag_87\n      swap2\n      swap1\n      tag_88\n      jump\t// in\n    tag_87:\n      tag_89\n      jump\t// in\n    tag_86:\n      stop\n        /* \"contracts/DDTMasterChef.sol\":25988:26782  function add( uint256 _allocPoint, IERC20 _lpToken, bool _withUpdate, IMasterChef _poolMasterChef, IERC20 _rewardToken, uint256 _fee, uint256 _method) public onlyOwner {... */\n    tag_17:\n      tag_90\n      0x04\n      dup1\n      calldatasize\n      sub\n      dup2\n      add\n      swap1\n      tag_91\n      swap2\n      swap1\n      tag_92\n      jump\t// in\n    tag_91:\n      tag_93\n      jump\t// in\n    tag_90:\n      stop\n        /* \"contracts/DDTMasterChef.sol\":33008:33184  function emergencyWithdrawFromBSW(uint256 _pid) public onlyOwner {... */\n    tag_18:\n      tag_94\n      0x04\n      dup1\n      calldatasize\n      sub\n      dup2\n      add\n      swap1\n      tag_95\n      swap2\n      swap1\n      tag_50\n      jump\t// in\n    tag_95:\n      tag_96\n      jump\t// in\n    tag_94:\n      stop\n        /* \"contracts/DDTMasterChef.sol\":24876:24923  mapping (uint256 => uint256) public poolBalance */\n    tag_19:\n      tag_97\n      0x04\n      dup1\n      calldatasize\n      sub\n      dup2\n      add\n      swap1\n      tag_98\n      swap2\n      swap1\n      tag_50\n      jump\t// in\n    tag_98:\n      tag_99\n      jump\t// in\n    tag_97:\n      mload(0x40)\n      tag_100\n      swap2\n      swap1\n      tag_47\n      jump\t// in\n    tag_100:\n      mload(0x40)\n      dup1\n      swap2\n      sub\n      swap1\n      return\n        /* \"contracts/DDTMasterChef.sol\":20756:20859  function renounceOwnership() public virtual onlyOwner {... */\n    tag_20:\n      tag_101\n      tag_102\n      jump\t// in\n    tag_101:\n      stop\n        /* \"contracts/DDTMasterChef.sol\":24448:24477  IMigratorChef public migrator */\n    tag_21:\n      tag_103\n      tag_104\n      jump\t// in\n    tag_103:\n      mload(0x40)\n      tag_105\n      swap2\n      swap1\n      tag_106\n      jump\t// in\n    tag_105:\n      mload(0x40)\n      dup1\n      swap2\n      sub\n      swap1\n      return\n        /* \"contracts/DDTMasterChef.sol\":24308:24343  uint256 public BONUS_MULTIPLIER = 1 */\n    tag_22:\n      tag_107\n      tag_108\n      jump\t// in\n    tag_107:\n      mload(0x40)\n      tag_109\n      swap2\n      swap1\n      tag_47\n      jump\t// in\n    tag_109:\n      mload(0x40)\n      dup1\n      swap2\n      sub\n      swap1\n      return\n        /* \"contracts/DDTMasterChef.sol\":20105:20192  function owner() public view virtual returns (address) {... */\n    tag_23:\n      tag_110\n      tag_111\n      jump\t// in\n    tag_110:\n      mload(0x40)\n      tag_112\n      swap2\n      swap1\n      tag_113\n      jump\t// in\n    tag_112:\n      mload(0x40)\n      dup1\n      swap2\n      sub\n      swap1\n      return\n        /* \"contracts/DDTMasterChef.sol\":28035:28179  function getMultiplier(uint256 _from, uint256 _to) public view returns (uint256) {... */\n    tag_24:\n      tag_114\n      0x04\n      dup1\n      calldatasize\n      sub\n      dup2\n      add\n      swap1\n      tag_115\n      swap2\n      swap1\n      tag_116\n      jump\t// in\n    tag_115:\n      tag_117\n      jump\t// in\n    tag_114:\n      mload(0x40)\n      tag_118\n      swap2\n      swap1\n      tag_47\n      jump\t// in\n    tag_118:\n      mload(0x40)\n      dup1\n      swap2\n      sub\n      swap1\n      return\n        /* \"contracts/DDTMasterChef.sol\":24593:24657  mapping(uint256 => mapping(address => UserInfo)) public userInfo */\n    tag_25:\n      tag_119\n      0x04\n      dup1\n      calldatasize\n      sub\n      dup2\n      add\n      swap1\n      tag_120\n      swap2\n      swap1\n      tag_59\n      jump\t// in\n    tag_120:\n      tag_121\n      jump\t// in\n    tag_119:\n      mload(0x40)\n      tag_122\n      swap3\n      swap2\n      swap1\n      tag_123\n      jump\t// in\n    tag_122:\n      mload(0x40)\n      dup1\n      swap2\n      sub\n      swap1\n      return\n        /* \"contracts/DDTMasterChef.sol\":31871:33000  function withdraw(uint256 _pid, uint256 _BSWPid, uint256 _amount) public {... */\n    tag_26:\n      tag_124\n      0x04\n      dup1\n      calldatasize\n      sub\n      dup2\n      add\n      swap1\n      tag_125\n      swap2\n      swap1\n      tag_42\n      jump\t// in\n    tag_125:\n      tag_126\n      jump\t// in\n    tag_124:\n      stop\n        /* \"contracts/DDTMasterChef.sol\":24117:24134  IERC20 public DDT */\n    tag_27:\n      tag_127\n      tag_128\n      jump\t// in\n    tag_127:\n      mload(0x40)\n      tag_129\n      swap2\n      swap1\n      tag_130\n      jump\t// in\n    tag_129:\n      mload(0x40)\n      dup1\n      swap2\n      sub\n      swap1\n      return\n        /* \"contracts/DDTMasterChef.sol\":34008:34103  function setDevAddress(address _devaddr) public onlyOwner {... */\n    tag_28:\n      tag_131\n      0x04\n      dup1\n      calldatasize\n      sub\n      dup2\n      add\n      swap1\n      tag_132\n      swap2\n      swap1\n      tag_133\n      jump\t// in\n    tag_132:\n      tag_134\n      jump\t// in\n    tag_131:\n      stop\n        /* \"contracts/DDTMasterChef.sol\":24162:24184  address public devaddr */\n    tag_29:\n      tag_135\n      tag_136\n      jump\t// in\n    tag_135:\n      mload(0x40)\n      tag_137\n      swap2\n      swap1\n      tag_113\n      jump\t// in\n    tag_137:\n      mload(0x40)\n      dup1\n      swap2\n      sub\n      swap1\n      return\n        /* \"contracts/DDTMasterChef.sol\":30023:30261  function enablePool(uint256 _pid) public {... */\n    tag_30:\n      tag_138\n      0x04\n      dup1\n      calldatasize\n      sub\n      dup2\n      add\n      swap1\n      tag_139\n      swap2\n      swap1\n      tag_50\n      jump\t// in\n    tag_139:\n      tag_140\n      jump\t// in\n    tag_138:\n      stop\n        /* \"contracts/DDTMasterChef.sol\":21014:21215  function transferOwnership(address newOwner) public virtual onlyOwner {... */\n    tag_31:\n      tag_141\n      0x04\n      dup1\n      calldatasize\n      sub\n      dup2\n      add\n      swap1\n      tag_142\n      swap2\n      swap1\n      tag_133\n      jump\t// in\n    tag_142:\n      tag_143\n      jump\t// in\n    tag_141:\n      stop\n        /* \"contracts/DDTMasterChef.sol\":24229:24255  uint256 public DDTPerBlock */\n    tag_32:\n      tag_144\n      tag_145\n      jump\t// in\n    tag_144:\n      mload(0x40)\n      tag_146\n      swap2\n      swap1\n      tag_47\n      jump\t// in\n    tag_146:\n      mload(0x40)\n      dup1\n      swap2\n      sub\n      swap1\n      return\n        /* \"contracts/DDTMasterChef.sol\":30329:31819  function deposit(uint256 _pid,uint256 _BSWPid, uint256 _amount) public {... */\n    tag_43:\n        /* \"contracts/DDTMasterChef.sol\":30413:30434  PoolInfo storage pool */\n      0x00\n        /* \"contracts/DDTMasterChef.sol\":30437:30445  poolInfo */\n      0x06\n        /* \"contracts/DDTMasterChef.sol\":30446:30450  _pid */\n      dup5\n        /* \"contracts/DDTMasterChef.sol\":30437:30451  poolInfo[_pid] */\n      dup2\n      sload\n      dup2\n      lt\n      tag_148\n      jumpi\n      tag_149\n      tag_150\n      jump\t// in\n    tag_149:\n    tag_148:\n      swap1\n      0x00\n      mstore\n      keccak256(0x00, 0x20)\n      swap1\n      0x08\n      mul\n      add\n        /* \"contracts/DDTMasterChef.sol\":30413:30451  PoolInfo storage pool = poolInfo[_pid] */\n      swap1\n      pop\n        /* \"contracts/DDTMasterChef.sol\":30462:30483  UserInfo storage user */\n      0x00\n        /* \"contracts/DDTMasterChef.sol\":30486:30494  userInfo */\n      0x07\n        /* \"contracts/DDTMasterChef.sol\":30486:30500  userInfo[_pid] */\n      0x00\n        /* \"contracts/DDTMasterChef.sol\":30495:30499  _pid */\n      dup7\n        /* \"contracts/DDTMasterChef.sol\":30486:30500  userInfo[_pid] */\n      dup2\n      mstore\n      0x20\n      add\n      swap1\n      dup2\n      mstore\n      0x20\n      add\n      0x00\n      keccak256\n        /* \"contracts/DDTMasterChef.sol\":30486:30512  userInfo[_pid][msg.sender] */\n      0x00\n        /* \"contracts/DDTMasterChef.sol\":30501:30511  msg.sender */\n      caller\n        /* \"contracts/DDTMasterChef.sol\":30486:30512  userInfo[_pid][msg.sender] */\n      0xffffffffffffffffffffffffffffffffffffffff\n      and\n      0xffffffffffffffffffffffffffffffffffffffff\n      and\n      dup2\n      mstore\n      0x20\n      add\n      swap1\n      dup2\n      mstore\n      0x20\n      add\n      0x00\n      keccak256\n        /* \"contracts/DDTMasterChef.sol\":30462:30512  UserInfo storage user = userInfo[_pid][msg.sender] */\n      swap1\n      pop\n        /* \"contracts/DDTMasterChef.sol\":30523:30539  updatePool(_pid) */\n      tag_152\n        /* \"contracts/DDTMasterChef.sol\":30534:30538  _pid */\n      dup6\n        /* \"contracts/DDTMasterChef.sol\":30523:30533  updatePool */\n      tag_74\n        /* \"contracts/DDTMasterChef.sol\":30523:30539  updatePool(_pid) */\n      jump\t// in\n    tag_152:\n        /* \"contracts/DDTMasterChef.sol\":30568:30569  0 */\n      0x00\n        /* \"contracts/DDTMasterChef.sol\":30554:30558  user */\n      dup2\n        /* \"contracts/DDTMasterChef.sol\":30554:30565  user.amount */\n      0x00\n      add\n      sload\n        /* \"contracts/DDTMasterChef.sol\":30554:30569  user.amount > 0 */\n      gt\n        /* \"contracts/DDTMasterChef.sol\":30550:30792  if (user.amount > 0) {... */\n      iszero\n      tag_153\n      jumpi\n        /* \"contracts/DDTMasterChef.sol\":30586:30601  uint256 pending */\n      0x00\n        /* \"contracts/DDTMasterChef.sol\":30604:30671  user.amount.mul(pool.accDDTPerShare).div(1e12).sub(user.rewardDebt) */\n      tag_154\n        /* \"contracts/DDTMasterChef.sol\":30655:30659  user */\n      dup3\n        /* \"contracts/DDTMasterChef.sol\":30655:30670  user.rewardDebt */\n      0x01\n      add\n      sload\n        /* \"contracts/DDTMasterChef.sol\":30604:30650  user.amount.mul(pool.accDDTPerShare).div(1e12) */\n      tag_155\n        /* \"contracts/DDTMasterChef.sol\":30645:30649  1e12 */\n      0xe8d4a51000\n        /* \"contracts/DDTMasterChef.sol\":30604:30640  user.amount.mul(pool.accDDTPerShare) */\n      tag_156\n        /* \"contracts/DDTMasterChef.sol\":30620:30624  pool */\n      dup8\n        /* \"contracts/DDTMasterChef.sol\":30620:30639  pool.accDDTPerShare */\n      0x03\n      add\n      sload\n        /* \"contracts/DDTMasterChef.sol\":30604:30608  user */\n      dup8\n        /* \"contracts/DDTMasterChef.sol\":30604:30615  user.amount */\n      0x00\n      add\n      sload\n        /* \"contracts/DDTMasterChef.sol\":30604:30619  user.amount.mul */\n      tag_157\n      swap1\n        /* \"contracts/DDTMasterChef.sol\":30604:30640  user.amount.mul(pool.accDDTPerShare) */\n      swap2\n      swap1\n      0xffffffff\n      and\n      jump\t// in\n    tag_156:\n        /* \"contracts/DDTMasterChef.sol\":30604:30644  user.amount.mul(pool.accDDTPerShare).div */\n      tag_158\n      swap1\n        /* \"contracts/DDTMasterChef.sol\":30604:30650  user.amount.mul(pool.accDDTPerShare).div(1e12) */\n      swap2\n      swap1\n      0xffffffff\n      and\n      jump\t// in\n    tag_155:\n        /* \"contracts/DDTMasterChef.sol\":30604:30654  user.amount.mul(pool.accDDTPerShare).div(1e12).sub */\n      tag_159\n      swap1\n        /* \"contracts/DDTMasterChef.sol\":30604:30671  user.amount.mul(pool.accDDTPerShare).div(1e12).sub(user.rewardDebt) */\n      swap2\n      swap1\n      0xffffffff\n      and\n      jump\t// in\n    tag_154:\n        /* \"contracts/DDTMasterChef.sol\":30586:30671  uint256 pending = user.amount.mul(pool.accDDTPerShare).div(1e12).sub(user.rewardDebt) */\n      swap1\n      pop\n        /* \"contracts/DDTMasterChef.sol\":30699:30700  0 */\n      0x00\n        /* \"contracts/DDTMasterChef.sol\":30689:30696  pending */\n      dup2\n        /* \"contracts/DDTMasterChef.sol\":30689:30700  pending > 0 */\n      gt\n        /* \"contracts/DDTMasterChef.sol\":30686:30781  if(pending > 0){... */\n      iszero\n      tag_160\n      jumpi\n        /* \"contracts/DDTMasterChef.sol\":30720:30765  safeDDTTransfer(address(msg.sender), pending) */\n      tag_161\n        /* \"contracts/DDTMasterChef.sol\":30744:30754  msg.sender */\n      caller\n        /* \"contracts/DDTMasterChef.sol\":30757:30764  pending */\n      dup3\n        /* \"contracts/DDTMasterChef.sol\":30720:30735  safeDDTTransfer */\n      tag_162\n        /* \"contracts/DDTMasterChef.sol\":30720:30765  safeDDTTransfer(address(msg.sender), pending) */\n      jump\t// in\n    tag_161:\n        /* \"contracts/DDTMasterChef.sol\":30686:30781  if(pending > 0){... */\n    tag_160:\n        /* \"contracts/DDTMasterChef.sol\":30571:30792  {... */\n      pop\n        /* \"contracts/DDTMasterChef.sol\":30550:30792  if (user.amount > 0) {... */\n    tag_153:\n        /* \"contracts/DDTMasterChef.sol\":30876:30883  _amount */\n      dup3\n        /* \"contracts/DDTMasterChef.sol\":30805:30809  pool */\n      dup3\n        /* \"contracts/DDTMasterChef.sol\":30805:30817  pool.lpToken */\n      0x00\n      add\n      0x00\n      swap1\n      sload\n      swap1\n      0x0100\n      exp\n      swap1\n      div\n      0xffffffffffffffffffffffffffffffffffffffff\n      and\n        /* \"contracts/DDTMasterChef.sol\":30805:30827  pool.lpToken.allowance */\n      0xffffffffffffffffffffffffffffffffffffffff\n      and\n      0xdd62ed3e\n        /* \"contracts/DDTMasterChef.sol\":30836:30840  this */\n      address\n        /* \"contracts/DDTMasterChef.sol\":30851:30855  pool */\n      dup6\n        /* \"contracts/DDTMasterChef.sol\":30851:30870  pool.poolMasterChef */\n      0x04\n      add\n      0x00\n      swap1\n      sload\n      swap1\n      0x0100\n      exp\n      swap1\n      div\n      0xffffffffffffffffffffffffffffffffffffffff\n      and\n        /* \"contracts/DDTMasterChef.sol\":30805:30872  pool.lpToken.allowance(address(this), address(pool.poolMasterChef)) */\n      mload(0x40)\n      dup4\n      0xffffffff\n      and\n      0xe0\n      shl\n      dup2\n      mstore\n      0x04\n      add\n      tag_163\n      swap3\n      swap2\n      swap1\n      tag_164\n      jump\t// in\n    tag_163:\n      0x20\n      mload(0x40)\n      dup1\n      dup4\n      sub\n      dup2\n      dup7\n      gas\n      staticcall\n      iszero\n      dup1\n      iszero\n      tag_166\n      jumpi\n      returndatasize\n      0x00\n      dup1\n      returndatacopy\n      revert(0x00, returndatasize)\n    tag_166:\n      pop\n      pop\n      pop\n      pop\n      mload(0x40)\n      returndatasize\n      not(0x1f)\n      0x1f\n      dup3\n      add\n      and\n      dup3\n      add\n      dup1\n      0x40\n      mstore\n      pop\n      dup2\n      add\n      swap1\n      tag_167\n      swap2\n      swap1\n      tag_168\n      jump\t// in\n    tag_167:\n        /* \"contracts/DDTMasterChef.sol\":30805:30883  pool.lpToken.allowance(address(this), address(pool.poolMasterChef)) <= _amount */\n      gt\n        /* \"contracts/DDTMasterChef.sol\":30802:30927  if(pool.lpToken.allowance(address(this), address(pool.poolMasterChef)) <= _amount){... */\n      tag_169\n      jumpi\n        /* \"contracts/DDTMasterChef.sol\":30899:30915  enablePool(_pid) */\n      tag_170\n        /* \"contracts/DDTMasterChef.sol\":30910:30914  _pid */\n      dup6\n        /* \"contracts/DDTMasterChef.sol\":30899:30909  enablePool */\n      tag_140\n        /* \"contracts/DDTMasterChef.sol\":30899:30915  enablePool(_pid) */\n      jump\t// in\n    tag_170:\n        /* \"contracts/DDTMasterChef.sol\":30802:30927  if(pool.lpToken.allowance(address(this), address(pool.poolMasterChef)) <= _amount){... */\n    tag_169:\n        /* \"contracts/DDTMasterChef.sol\":30937:30948  uint256 fee */\n      0x00\n        /* \"contracts/DDTMasterChef.sol\":30951:30999  _amount.mul(pool.fee).div(100000000000000000000) */\n      tag_171\n        /* \"contracts/DDTMasterChef.sol\":30977:30998  100000000000000000000 */\n      0x056bc75e2d63100000\n        /* \"contracts/DDTMasterChef.sol\":30951:30972  _amount.mul(pool.fee) */\n      tag_172\n        /* \"contracts/DDTMasterChef.sol\":30963:30967  pool */\n      dup6\n        /* \"contracts/DDTMasterChef.sol\":30963:30971  pool.fee */\n      0x06\n      add\n      sload\n        /* \"contracts/DDTMasterChef.sol\":30951:30958  _amount */\n      dup8\n        /* \"contracts/DDTMasterChef.sol\":30951:30962  _amount.mul */\n      tag_157\n      swap1\n        /* \"contracts/DDTMasterChef.sol\":30951:30972  _amount.mul(pool.fee) */\n      swap2\n      swap1\n      0xffffffff\n      and\n      jump\t// in\n    tag_172:\n        /* \"contracts/DDTMasterChef.sol\":30951:30976  _amount.mul(pool.fee).div */\n      tag_158\n      swap1\n        /* \"contracts/DDTMasterChef.sol\":30951:30999  _amount.mul(pool.fee).div(100000000000000000000) */\n      swap2\n      swap1\n      0xffffffff\n      and\n      jump\t// in\n    tag_171:\n        /* \"contracts/DDTMasterChef.sol\":30937:30999  uint256 fee = _amount.mul(pool.fee).div(100000000000000000000) */\n      swap1\n      pop\n        /* \"contracts/DDTMasterChef.sol\":31010:31027  uint256 newAmount */\n      0x00\n        /* \"contracts/DDTMasterChef.sol\":31030:31046  _amount.sub(fee) */\n      tag_173\n        /* \"contracts/DDTMasterChef.sol\":31042:31045  fee */\n      dup3\n        /* \"contracts/DDTMasterChef.sol\":31030:31037  _amount */\n      dup7\n        /* \"contracts/DDTMasterChef.sol\":31030:31041  _amount.sub */\n      tag_159\n      swap1\n        /* \"contracts/DDTMasterChef.sol\":31030:31046  _amount.sub(fee) */\n      swap2\n      swap1\n      0xffffffff\n      and\n      jump\t// in\n    tag_173:\n        /* \"contracts/DDTMasterChef.sol\":31010:31046  uint256 newAmount = _amount.sub(fee) */\n      swap1\n      pop\n        /* \"contracts/DDTMasterChef.sol\":31057:31133  pool.lpToken.safeTransferFrom(address(msg.sender), address(this), newAmount) */\n      tag_174\n        /* \"contracts/DDTMasterChef.sol\":31095:31105  msg.sender */\n      caller\n        /* \"contracts/DDTMasterChef.sol\":31116:31120  this */\n      address\n        /* \"contracts/DDTMasterChef.sol\":31123:31132  newAmount */\n      dup4\n        /* \"contracts/DDTMasterChef.sol\":31057:31061  pool */\n      dup8\n        /* \"contracts/DDTMasterChef.sol\":31057:31069  pool.lpToken */\n      0x00\n      add\n      0x00\n      swap1\n      sload\n      swap1\n      0x0100\n      exp\n      swap1\n      div\n      0xffffffffffffffffffffffffffffffffffffffff\n      and\n        /* \"contracts/DDTMasterChef.sol\":31057:31086  pool.lpToken.safeTransferFrom */\n      0xffffffffffffffffffffffffffffffffffffffff\n      and\n      tag_175\n      swap1\n        /* \"contracts/DDTMasterChef.sol\":31057:31133  pool.lpToken.safeTransferFrom(address(msg.sender), address(this), newAmount) */\n      swap4\n      swap3\n      swap2\n      swap1\n      0xffffffff\n      and\n      jump\t// in\n    tag_174:\n        /* \"contracts/DDTMasterChef.sol\":31144:31217  pool.lpToken.safeTransferFrom(address(msg.sender), address(devaddr), fee) */\n      tag_176\n        /* \"contracts/DDTMasterChef.sol\":31182:31192  msg.sender */\n      caller\n        /* \"contracts/DDTMasterChef.sol\":31203:31210  devaddr */\n      0x02\n      0x00\n      swap1\n      sload\n      swap1\n      0x0100\n      exp\n      swap1\n      div\n      0xffffffffffffffffffffffffffffffffffffffff\n      and\n        /* \"contracts/DDTMasterChef.sol\":31213:31216  fee */\n      dup5\n        /* \"contracts/DDTMasterChef.sol\":31144:31148  pool */\n      dup8\n        /* \"contracts/DDTMasterChef.sol\":31144:31156  pool.lpToken */\n      0x00\n      add\n      0x00\n      swap1\n      sload\n      swap1\n      0x0100\n      exp\n      swap1\n      div\n      0xffffffffffffffffffffffffffffffffffffffff\n      and\n        /* \"contracts/DDTMasterChef.sol\":31144:31173  pool.lpToken.safeTransferFrom */\n      0xffffffffffffffffffffffffffffffffffffffff\n      and\n      tag_175\n      swap1\n        /* \"contracts/DDTMasterChef.sol\":31144:31217  pool.lpToken.safeTransferFrom(address(msg.sender), address(devaddr), fee) */\n      swap4\n      swap3\n      swap2\n      swap1\n      0xffffffff\n      and\n      jump\t// in\n    tag_176:\n        /* \"contracts/DDTMasterChef.sol\":31246:31247  0 */\n      0x00\n        /* \"contracts/DDTMasterChef.sol\":31231:31235  pool */\n      dup5\n        /* \"contracts/DDTMasterChef.sol\":31231:31242  pool.method */\n      0x07\n      add\n      sload\n        /* \"contracts/DDTMasterChef.sol\":31231:31247  pool.method == 0 */\n      sub\n        /* \"contracts/DDTMasterChef.sol\":31228:31396  if(pool.method == 0){... */\n      tag_177\n      jumpi\n        /* \"contracts/DDTMasterChef.sol\":31263:31267  pool */\n      dup4\n        /* \"contracts/DDTMasterChef.sol\":31263:31282  pool.poolMasterChef */\n      0x04\n      add\n      0x00\n      swap1\n      sload\n      swap1\n      0x0100\n      exp\n      swap1\n      div\n      0xffffffffffffffffffffffffffffffffffffffff\n      and\n        /* \"contracts/DDTMasterChef.sol\":31263:31295  pool.poolMasterChef.enterStaking */\n      0xffffffffffffffffffffffffffffffffffffffff\n      and\n      0x41441d3b\n        /* \"contracts/DDTMasterChef.sol\":31296:31305  newAmount */\n      dup3\n        /* \"contracts/DDTMasterChef.sol\":31263:31306  pool.poolMasterChef.enterStaking(newAmount) */\n      mload(0x40)\n      dup3\n      0xffffffff\n      and\n      0xe0\n      shl\n      dup2\n      mstore\n      0x04\n      add\n      tag_178\n      swap2\n      swap1\n      tag_47\n      jump\t// in\n    tag_178:\n      0x00\n      mload(0x40)\n      dup1\n      dup4\n      sub\n      dup2\n      0x00\n      dup8\n      dup1\n      extcodesize\n      iszero\n      dup1\n      iszero\n      tag_179\n      jumpi\n      0x00\n      dup1\n      revert\n    tag_179:\n      pop\n      gas\n      call\n      iszero\n      dup1\n      iszero\n      tag_181\n      jumpi\n      returndatasize\n      0x00\n      dup1\n      returndatacopy\n      revert(0x00, returndatasize)\n    tag_181:\n      pop\n      pop\n      pop\n      pop\n        /* \"contracts/DDTMasterChef.sol\":31228:31396  if(pool.method == 0){... */\n      jump(tag_182)\n    tag_177:\n        /* \"contracts/DDTMasterChef.sol\":31337:31341  pool */\n      dup4\n        /* \"contracts/DDTMasterChef.sol\":31337:31356  pool.poolMasterChef */\n      0x04\n      add\n      0x00\n      swap1\n      sload\n      swap1\n      0x0100\n      exp\n      swap1\n      div\n      0xffffffffffffffffffffffffffffffffffffffff\n      and\n        /* \"contracts/DDTMasterChef.sol\":31337:31364  pool.poolMasterChef.deposit */\n      0xffffffffffffffffffffffffffffffffffffffff\n      and\n      0xe2bbb158\n        /* \"contracts/DDTMasterChef.sol\":31365:31372  _BSWPid */\n      dup8\n        /* \"contracts/DDTMasterChef.sol\":31374:31383  newAmount */\n      dup4\n        /* \"contracts/DDTMasterChef.sol\":31337:31384  pool.poolMasterChef.deposit(_BSWPid, newAmount) */\n      mload(0x40)\n      dup4\n      0xffffffff\n      and\n      0xe0\n      shl\n      dup2\n      mstore\n      0x04\n      add\n      tag_183\n      swap3\n      swap2\n      swap1\n      tag_123\n      jump\t// in\n    tag_183:\n      0x00\n      mload(0x40)\n      dup1\n      dup4\n      sub\n      dup2\n      0x00\n      dup8\n      dup1\n      extcodesize\n      iszero\n      dup1\n      iszero\n      tag_184\n      jumpi\n      0x00\n      dup1\n      revert\n    tag_184:\n      pop\n      gas\n      call\n      iszero\n      dup1\n      iszero\n      tag_186\n      jumpi\n      returndatasize\n      0x00\n      dup1\n      returndatacopy\n      revert(0x00, returndatasize)\n    tag_186:\n      pop\n      pop\n      pop\n      pop\n        /* \"contracts/DDTMasterChef.sol\":31228:31396  if(pool.method == 0){... */\n    tag_182:\n        /* \"contracts/DDTMasterChef.sol\":31420:31446  user.amount.add(newAmount) */\n      tag_187\n        /* \"contracts/DDTMasterChef.sol\":31436:31445  newAmount */\n      dup2\n        /* \"contracts/DDTMasterChef.sol\":31420:31424  user */\n      dup5\n        /* \"contracts/DDTMasterChef.sol\":31420:31431  user.amount */\n      0x00\n      add\n      sload\n        /* \"contracts/DDTMasterChef.sol\":31420:31435  user.amount.add */\n      tag_188\n      swap1\n        /* \"contracts/DDTMasterChef.sol\":31420:31446  user.amount.add(newAmount) */\n      swap2\n      swap1\n      0xffffffff\n      and\n      jump\t// in\n    tag_187:\n        /* \"contracts/DDTMasterChef.sol\":31406:31410  user */\n      dup4\n        /* \"contracts/DDTMasterChef.sol\":31406:31417  user.amount */\n      0x00\n      add\n        /* \"contracts/DDTMasterChef.sol\":31406:31446  user.amount = user.amount.add(newAmount) */\n      dup2\n      swap1\n      sstore\n      pop\n        /* \"contracts/DDTMasterChef.sol\":31477:31509  poolBalance[_pid].add(newAmount) */\n      tag_189\n        /* \"contracts/DDTMasterChef.sol\":31499:31508  newAmount */\n      dup2\n        /* \"contracts/DDTMasterChef.sol\":31477:31488  poolBalance */\n      0x0a\n        /* \"contracts/DDTMasterChef.sol\":31477:31494  poolBalance[_pid] */\n      0x00\n        /* \"contracts/DDTMasterChef.sol\":31489:31493  _pid */\n      dup11\n        /* \"contracts/DDTMasterChef.sol\":31477:31494  poolBalance[_pid] */\n      dup2\n      mstore\n      0x20\n      add\n      swap1\n      dup2\n      mstore\n      0x20\n      add\n      0x00\n      keccak256\n      sload\n        /* \"contracts/DDTMasterChef.sol\":31477:31498  poolBalance[_pid].add */\n      tag_188\n      swap1\n        /* \"contracts/DDTMasterChef.sol\":31477:31509  poolBalance[_pid].add(newAmount) */\n      swap2\n      swap1\n      0xffffffff\n      and\n      jump\t// in\n    tag_189:\n        /* \"contracts/DDTMasterChef.sol\":31457:31468  poolBalance */\n      0x0a\n        /* \"contracts/DDTMasterChef.sol\":31457:31474  poolBalance[_pid] */\n      0x00\n        /* \"contracts/DDTMasterChef.sol\":31469:31473  _pid */\n      dup10\n        /* \"contracts/DDTMasterChef.sol\":31457:31474  poolBalance[_pid] */\n      dup2\n      mstore\n      0x20\n      add\n      swap1\n      dup2\n      mstore\n      0x20\n      add\n      0x00\n      keccak256\n        /* \"contracts/DDTMasterChef.sol\":31457:31509  poolBalance[_pid] = poolBalance[_pid].add(newAmount) */\n      dup2\n      swap1\n      sstore\n      pop\n        /* \"contracts/DDTMasterChef.sol\":31538:31584  user.amount.mul(pool.accDDTPerShare).div(1e12) */\n      tag_190\n        /* \"contracts/DDTMasterChef.sol\":31579:31583  1e12 */\n      0xe8d4a51000\n        /* \"contracts/DDTMasterChef.sol\":31538:31574  user.amount.mul(pool.accDDTPerShare) */\n      tag_191\n        /* \"contracts/DDTMasterChef.sol\":31554:31558  pool */\n      dup7\n        /* \"contracts/DDTMasterChef.sol\":31554:31573  pool.accDDTPerShare */\n      0x03\n      add\n      sload\n        /* \"contracts/DDTMasterChef.sol\":31538:31542  user */\n      dup7\n        /* \"contracts/DDTMasterChef.sol\":31538:31549  user.amount */\n      0x00\n      add\n      sload\n        /* \"contracts/DDTMasterChef.sol\":31538:31553  user.amount.mul */\n      tag_157\n      swap1\n        /* \"contracts/DDTMasterChef.sol\":31538:31574  user.amount.mul(pool.accDDTPerShare) */\n      swap2\n      swap1\n      0xffffffff\n      and\n      jump\t// in\n    tag_191:\n        /* \"contracts/DDTMasterChef.sol\":31538:31578  user.amount.mul(pool.accDDTPerShare).div */\n      tag_158\n      swap1\n        /* \"contracts/DDTMasterChef.sol\":31538:31584  user.amount.mul(pool.accDDTPerShare).div(1e12) */\n      swap2\n      swap1\n      0xffffffff\n      and\n      jump\t// in\n    tag_190:\n        /* \"contracts/DDTMasterChef.sol\":31520:31524  user */\n      dup4\n        /* \"contracts/DDTMasterChef.sol\":31520:31535  user.rewardDebt */\n      0x01\n      add\n        /* \"contracts/DDTMasterChef.sol\":31520:31584  user.rewardDebt = user.amount.mul(pool.accDDTPerShare).div(1e12) */\n      dup2\n      swap1\n      sstore\n      pop\n        /* \"contracts/DDTMasterChef.sol\":31595:31609  uint256 reward */\n      0x00\n        /* \"contracts/DDTMasterChef.sol\":31612:31616  pool */\n      dup5\n        /* \"contracts/DDTMasterChef.sol\":31612:31628  pool.rewardToken */\n      0x05\n      add\n      0x00\n      swap1\n      sload\n      swap1\n      0x0100\n      exp\n      swap1\n      div\n      0xffffffffffffffffffffffffffffffffffffffff\n      and\n        /* \"contracts/DDTMasterChef.sol\":31612:31638  pool.rewardToken.balanceOf */\n      0xffffffffffffffffffffffffffffffffffffffff\n      and\n      0x70a08231\n        /* \"contracts/DDTMasterChef.sol\":31647:31651  this */\n      address\n        /* \"contracts/DDTMasterChef.sol\":31612:31653  pool.rewardToken.balanceOf(address(this)) */\n      mload(0x40)\n      dup3\n      0xffffffff\n      and\n      0xe0\n      shl\n      dup2\n      mstore\n      0x04\n      add\n      tag_192\n      swap2\n      swap1\n      tag_113\n      jump\t// in\n    tag_192:\n      0x20\n      mload(0x40)\n      dup1\n      dup4\n      sub\n      dup2\n      dup7\n      gas\n      staticcall\n      iszero\n      dup1\n      iszero\n      tag_194\n      jumpi\n      returndatasize\n      0x00\n      dup1\n      returndatacopy\n      revert(0x00, returndatasize)\n    tag_194:\n      pop\n      pop\n      pop\n      pop\n      mload(0x40)\n      returndatasize\n      not(0x1f)\n      0x1f\n      dup3\n      add\n      and\n      dup3\n      add\n      dup1\n      0x40\n      mstore\n      pop\n      dup2\n      add\n      swap1\n      tag_195\n      swap2\n      swap1\n      tag_168\n      jump\t// in\n    tag_195:\n        /* \"contracts/DDTMasterChef.sol\":31595:31653  uint256 reward = pool.rewardToken.balanceOf(address(this)) */\n      swap1\n      pop\n        /* \"contracts/DDTMasterChef.sol\":31676:31677  0 */\n      0x00\n        /* \"contracts/DDTMasterChef.sol\":31667:31673  reward */\n      dup2\n        /* \"contracts/DDTMasterChef.sol\":31667:31677  reward > 0 */\n      gt\n        /* \"contracts/DDTMasterChef.sol\":31664:31760  if(reward > 0){... */\n      iszero\n      tag_196\n      jumpi\n        /* \"contracts/DDTMasterChef.sol\":31693:31748  pool.rewardToken.safeTransfer(address(devaddr), reward) */\n      tag_197\n        /* \"contracts/DDTMasterChef.sol\":31731:31738  devaddr */\n      0x02\n      0x00\n      swap1\n      sload\n      swap1\n      0x0100\n      exp\n      swap1\n      div\n      0xffffffffffffffffffffffffffffffffffffffff\n      and\n        /* \"contracts/DDTMasterChef.sol\":31741:31747  reward */\n      dup3\n        /* \"contracts/DDTMasterChef.sol\":31693:31697  pool */\n      dup8\n        /* \"contracts/DDTMasterChef.sol\":31693:31709  pool.rewardToken */\n      0x05\n      add\n      0x00\n      swap1\n      sload\n      swap1\n      0x0100\n      exp\n      swap1\n      div\n      0xffffffffffffffffffffffffffffffffffffffff\n      and\n        /* \"contracts/DDTMasterChef.sol\":31693:31722  pool.rewardToken.safeTransfer */\n      0xffffffffffffffffffffffffffffffffffffffff\n      and\n      tag_198\n      swap1\n        /* \"contracts/DDTMasterChef.sol\":31693:31748  pool.rewardToken.safeTransfer(address(devaddr), reward) */\n      swap3\n      swap2\n      swap1\n      0xffffffff\n      and\n      jump\t// in\n    tag_197:\n        /* \"contracts/DDTMasterChef.sol\":31664:31760  if(reward > 0){... */\n    tag_196:\n        /* \"contracts/DDTMasterChef.sol\":31795:31799  _pid */\n      dup8\n        /* \"contracts/DDTMasterChef.sol\":31783:31793  msg.sender */\n      caller\n        /* \"contracts/DDTMasterChef.sol\":31775:31811  Deposit(msg.sender, _pid, newAmount) */\n      0xffffffffffffffffffffffffffffffffffffffff\n      and\n      0x90890809c654f11d6e72a28fa60149770a0d11ec6c92319d6ceb2bb0a4ea1a15\n        /* \"contracts/DDTMasterChef.sol\":31801:31810  newAmount */\n      dup5\n        /* \"contracts/DDTMasterChef.sol\":31775:31811  Deposit(msg.sender, _pid, newAmount) */\n      mload(0x40)\n      tag_199\n      swap2\n      swap1\n      tag_47\n      jump\t// in\n    tag_199:\n      mload(0x40)\n      dup1\n      swap2\n      sub\n      swap1\n      log3\n        /* \"contracts/DDTMasterChef.sol\":30400:31819  {... */\n      pop\n      pop\n      pop\n      pop\n      pop\n        /* \"contracts/DDTMasterChef.sol\":30329:31819  function deposit(uint256 _pid,uint256 _BSWPid, uint256 _amount) public {... */\n      pop\n      pop\n      pop\n      jump\t// out\n        /* \"contracts/DDTMasterChef.sol\":25722:25817  function poolLength() external view returns (uint256) {... */\n    tag_45:\n        /* \"contracts/DDTMasterChef.sol\":25767:25774  uint256 */\n      0x00\n        /* \"contracts/DDTMasterChef.sol\":25794:25802  poolInfo */\n      0x06\n        /* \"contracts/DDTMasterChef.sol\":25794:25809  poolInfo.length */\n      dup1\n      sload\n      swap1\n      pop\n        /* \"contracts/DDTMasterChef.sol\":25787:25809  return poolInfo.length */\n      swap1\n      pop\n        /* \"contracts/DDTMasterChef.sol\":25722:25817  function poolLength() external view returns (uint256) {... */\n      swap1\n      jump\t// out\n        /* \"contracts/DDTMasterChef.sol\":24511:24537  PoolInfo[] public poolInfo */\n    tag_51:\n      0x06\n      dup2\n      dup2\n      sload\n      dup2\n      lt\n      tag_201\n      jumpi\n      0x00\n      dup1\n      revert\n    tag_201:\n      swap1\n      0x00\n      mstore\n      keccak256(0x00, 0x20)\n      swap1\n      0x08\n      mul\n      add\n      0x00\n      swap2\n      pop\n      swap1\n      pop\n      dup1\n      0x00\n      add\n      0x00\n      swap1\n      sload\n      swap1\n      0x0100\n      exp\n      swap1\n      div\n      0xffffffffffffffffffffffffffffffffffffffff\n      and\n      swap1\n      dup1\n      0x01\n      add\n      sload\n      swap1\n      dup1\n      0x02\n      add\n      sload\n      swap1\n      dup1\n      0x03\n      add\n      sload\n      swap1\n      dup1\n      0x04\n      add\n      0x00\n      swap1\n      sload\n      swap1\n      0x0100\n      exp\n      swap1\n      div\n      0xffffffffffffffffffffffffffffffffffffffff\n      and\n      swap1\n      dup1\n      0x05\n      add\n      0x00\n      swap1\n      sload\n      swap1\n      0x0100\n      exp\n      swap1\n      div\n      0xffffffffffffffffffffffffffffffffffffffff\n      and\n      swap1\n      dup1\n      0x06\n      add\n      sload\n      swap1\n      dup1\n      0x07\n      add\n      sload\n      swap1\n      pop\n      dup9\n      jump\t// out\n        /* \"contracts/DDTMasterChef.sol\":24752:24786  uint256 public totalAllocPoint = 0 */\n    tag_55:\n      sload(0x08)\n      dup2\n      jump\t// out\n        /* \"contracts/DDTMasterChef.sol\":28242:28971  function pendingDDT(uint256 _pid, address _user) external view returns (uint256){... */\n    tag_60:\n        /* \"contracts/DDTMasterChef.sol\":28314:28321  uint256 */\n      0x00\n        /* \"contracts/DDTMasterChef.sol\":28333:28354  PoolInfo storage pool */\n      dup1\n        /* \"contracts/DDTMasterChef.sol\":28357:28365  poolInfo */\n      0x06\n        /* \"contracts/DDTMasterChef.sol\":28366:28370  _pid */\n      dup5\n        /* \"contracts/DDTMasterChef.sol\":28357:28371  poolInfo[_pid] */\n      dup2\n      sload\n      dup2\n      lt\n      tag_204\n      jumpi\n      tag_205\n      tag_150\n      jump\t// in\n    tag_205:\n    tag_204:\n      swap1\n      0x00\n      mstore\n      keccak256(0x00, 0x20)\n      swap1\n      0x08\n      mul\n      add\n        /* \"contracts/DDTMasterChef.sol\":28333:28371  PoolInfo storage pool = poolInfo[_pid] */\n      swap1\n      pop\n        /* \"contracts/DDTMasterChef.sol\":28382:28403  UserInfo storage user */\n      0x00\n        /* \"contracts/DDTMasterChef.sol\":28406:28414  userInfo */\n      0x07\n        /* \"contracts/DDTMasterChef.sol\":28406:28420  userInfo[_pid] */\n      0x00\n        /* \"contracts/DDTMasterChef.sol\":28415:28419  _pid */\n      dup7\n        /* \"contracts/DDTMasterChef.sol\":28406:28420  userInfo[_pid] */\n      dup2\n      mstore\n      0x20\n      add\n      swap1\n      dup2\n      mstore\n      0x20\n      add\n      0x00\n      keccak256\n        /* \"contracts/DDTMasterChef.sol\":28406:28427  userInfo[_pid][_user] */\n      0x00\n        /* \"contracts/DDTMasterChef.sol\":28421:28426  _user */\n      dup6\n        /* \"contracts/DDTMasterChef.sol\":28406:28427  userInfo[_pid][_user] */\n      0xffffffffffffffffffffffffffffffffffffffff\n      and\n      0xffffffffffffffffffffffffffffffffffffffff\n      and\n      dup2\n      mstore\n      0x20\n      add\n      swap1\n      dup2\n      mstore\n      0x20\n      add\n      0x00\n      keccak256\n        /* \"contracts/DDTMasterChef.sol\":28382:28427  UserInfo storage user = userInfo[_pid][_user] */\n      swap1\n      pop\n        /* \"contracts/DDTMasterChef.sol\":28438:28460  uint256 accDDTPerShare */\n      0x00\n        /* \"contracts/DDTMasterChef.sol\":28463:28467  pool */\n      dup3\n        /* \"contracts/DDTMasterChef.sol\":28463:28482  pool.accDDTPerShare */\n      0x03\n      add\n      sload\n        /* \"contracts/DDTMasterChef.sol\":28438:28482  uint256 accDDTPerShare = pool.accDDTPerShare */\n      swap1\n      pop\n        /* \"contracts/DDTMasterChef.sol\":28493:28509  uint256 lpSupply */\n      0x00\n        /* \"contracts/DDTMasterChef.sol\":28512:28523  poolBalance */\n      0x0a\n        /* \"contracts/DDTMasterChef.sol\":28512:28529  poolBalance[_pid] */\n      0x00\n        /* \"contracts/DDTMasterChef.sol\":28524:28528  _pid */\n      dup9\n        /* \"contracts/DDTMasterChef.sol\":28512:28529  poolBalance[_pid] */\n      dup2\n      mstore\n      0x20\n      add\n      swap1\n      dup2\n      mstore\n      0x20\n      add\n      0x00\n      keccak256\n      sload\n        /* \"contracts/DDTMasterChef.sol\":28493:28529  uint256 lpSupply = poolBalance[_pid] */\n      swap1\n      pop\n        /* \"contracts/DDTMasterChef.sol\":28559:28563  pool */\n      dup4\n        /* \"contracts/DDTMasterChef.sol\":28559:28579  pool.lastRewardBlock */\n      0x02\n      add\n      sload\n        /* \"contracts/DDTMasterChef.sol\":28544:28556  block.number */\n      number\n        /* \"contracts/DDTMasterChef.sol\":28544:28579  block.number > pool.lastRewardBlock */\n      gt\n        /* \"contracts/DDTMasterChef.sol\":28544:28596  block.number > pool.lastRewardBlock && lpSupply != 0 */\n      dup1\n      iszero\n      tag_207\n      jumpi\n      pop\n        /* \"contracts/DDTMasterChef.sol\":28595:28596  0 */\n      0x00\n        /* \"contracts/DDTMasterChef.sol\":28583:28591  lpSupply */\n      dup2\n        /* \"contracts/DDTMasterChef.sol\":28583:28596  lpSupply != 0 */\n      eq\n      iszero\n        /* \"contracts/DDTMasterChef.sol\":28544:28596  block.number > pool.lastRewardBlock && lpSupply != 0 */\n    tag_207:\n        /* \"contracts/DDTMasterChef.sol\":28540:28884  if (block.number > pool.lastRewardBlock && lpSupply != 0) {... */\n      iszero\n      tag_208\n      jumpi\n        /* \"contracts/DDTMasterChef.sol\":28613:28631  uint256 multiplier */\n      0x00\n        /* \"contracts/DDTMasterChef.sol\":28634:28683  getMultiplier(pool.lastRewardBlock, block.number) */\n      tag_209\n        /* \"contracts/DDTMasterChef.sol\":28648:28652  pool */\n      dup6\n        /* \"contracts/DDTMasterChef.sol\":28648:28668  pool.lastRewardBlock */\n      0x02\n      add\n      sload\n        /* \"contracts/DDTMasterChef.sol\":28670:28682  block.number */\n      number\n        /* \"contracts/DDTMasterChef.sol\":28634:28647  getMultiplier */\n      tag_117\n        /* \"contracts/DDTMasterChef.sol\":28634:28683  getMultiplier(pool.lastRewardBlock, block.number) */\n      jump\t// in\n    tag_209:\n        /* \"contracts/DDTMasterChef.sol\":28613:28683  uint256 multiplier = getMultiplier(pool.lastRewardBlock, block.number) */\n      swap1\n      pop\n        /* \"contracts/DDTMasterChef.sol\":28698:28715  uint256 DDTReward */\n      0x00\n        /* \"contracts/DDTMasterChef.sol\":28718:28787  multiplier.mul(DDTPerBlock).mul(pool.allocPoint).div(totalAllocPoint) */\n      tag_210\n        /* \"contracts/DDTMasterChef.sol\":28771:28786  totalAllocPoint */\n      sload(0x08)\n        /* \"contracts/DDTMasterChef.sol\":28718:28766  multiplier.mul(DDTPerBlock).mul(pool.allocPoint) */\n      tag_211\n        /* \"contracts/DDTMasterChef.sol\":28750:28754  pool */\n      dup9\n        /* \"contracts/DDTMasterChef.sol\":28750:28765  pool.allocPoint */\n      0x01\n      add\n      sload\n        /* \"contracts/DDTMasterChef.sol\":28718:28745  multiplier.mul(DDTPerBlock) */\n      tag_212\n        /* \"contracts/DDTMasterChef.sol\":28733:28744  DDTPerBlock */\n      sload(0x03)\n        /* \"contracts/DDTMasterChef.sol\":28718:28728  multiplier */\n      dup8\n        /* \"contracts/DDTMasterChef.sol\":28718:28732  multiplier.mul */\n      tag_157\n      swap1\n        /* \"contracts/DDTMasterChef.sol\":28718:28745  multiplier.mul(DDTPerBlock) */\n      swap2\n      swap1\n      0xffffffff\n      and\n      jump\t// in\n    tag_212:\n        /* \"contracts/DDTMasterChef.sol\":28718:28749  multiplier.mul(DDTPerBlock).mul */\n      tag_157\n      swap1\n        /* \"contracts/DDTMasterChef.sol\":28718:28766  multiplier.mul(DDTPerBlock).mul(pool.allocPoint) */\n      swap2\n      swap1\n      0xffffffff\n      and\n      jump\t// in\n    tag_211:\n        /* \"contracts/DDTMasterChef.sol\":28718:28770  multiplier.mul(DDTPerBlock).mul(pool.allocPoint).div */\n      tag_158\n      swap1\n        /* \"contracts/DDTMasterChef.sol\":28718:28787  multiplier.mul(DDTPerBlock).mul(pool.allocPoint).div(totalAllocPoint) */\n      swap2\n      swap1\n      0xffffffff\n      and\n      jump\t// in\n    tag_210:\n        /* \"contracts/DDTMasterChef.sol\":28698:28787  uint256 DDTReward = multiplier.mul(DDTPerBlock).mul(pool.allocPoint).div(totalAllocPoint) */\n      swap1\n      pop\n        /* \"contracts/DDTMasterChef.sol\":28819:28872  accDDTPerShare.add(DDTReward.mul(1e12).div(lpSupply)) */\n      tag_213\n        /* \"contracts/DDTMasterChef.sol\":28838:28871  DDTReward.mul(1e12).div(lpSupply) */\n      tag_214\n        /* \"contracts/DDTMasterChef.sol\":28862:28870  lpSupply */\n      dup5\n        /* \"contracts/DDTMasterChef.sol\":28838:28857  DDTReward.mul(1e12) */\n      tag_215\n        /* \"contracts/DDTMasterChef.sol\":28852:28856  1e12 */\n      0xe8d4a51000\n        /* \"contracts/DDTMasterChef.sol\":28838:28847  DDTReward */\n      dup6\n        /* \"contracts/DDTMasterChef.sol\":28838:28851  DDTReward.mul */\n      tag_157\n      swap1\n        /* \"contracts/DDTMasterChef.sol\":28838:28857  DDTReward.mul(1e12) */\n      swap2\n      swap1\n      0xffffffff\n      and\n      jump\t// in\n    tag_215:\n        /* \"contracts/DDTMasterChef.sol\":28838:28861  DDTReward.mul(1e12).div */\n      tag_158\n      swap1\n        /* \"contracts/DDTMasterChef.sol\":28838:28871  DDTReward.mul(1e12).div(lpSupply) */\n      swap2\n      swap1\n      0xffffffff\n      and\n      jump\t// in\n    tag_214:\n        /* \"contracts/DDTMasterChef.sol\":28819:28833  accDDTPerShare */\n      dup6\n        /* \"contracts/DDTMasterChef.sol\":28819:28837  accDDTPerShare.add */\n      tag_188\n      swap1\n        /* \"contracts/DDTMasterChef.sol\":28819:28872  accDDTPerShare.add(DDTReward.mul(1e12).div(lpSupply)) */\n      swap2\n      swap1\n      0xffffffff\n      and\n      jump\t// in\n    tag_213:\n        /* \"contracts/DDTMasterChef.sol\":28802:28872  accDDTPerShare = accDDTPerShare.add(DDTReward.mul(1e12).div(lpSupply)) */\n      swap4\n      pop\n        /* \"contracts/DDTMasterChef.sol\":28598:28884  {... */\n      pop\n      pop\n        /* \"contracts/DDTMasterChef.sol\":28540:28884  if (block.number > pool.lastRewardBlock && lpSupply != 0) {... */\n    tag_208:\n        /* \"contracts/DDTMasterChef.sol\":28901:28963  user.amount.mul(accDDTPerShare).div(1e12).sub(user.rewardDebt) */\n      tag_216\n        /* \"contracts/DDTMasterChef.sol\":28947:28951  user */\n      dup4\n        /* \"contracts/DDTMasterChef.sol\":28947:28962  user.rewardDebt */\n      0x01\n      add\n      sload\n        /* \"contracts/DDTMasterChef.sol\":28901:28942  user.amount.mul(accDDTPerShare).div(1e12) */\n      tag_217\n        /* \"contracts/DDTMasterChef.sol\":28937:28941  1e12 */\n      0xe8d4a51000\n        /* \"contracts/DDTMasterChef.sol\":28901:28932  user.amount.mul(accDDTPerShare) */\n      tag_218\n        /* \"contracts/DDTMasterChef.sol\":28917:28931  accDDTPerShare */\n      dup7\n        /* \"contracts/DDTMasterChef.sol\":28901:28905  user */\n      dup9\n        /* \"contracts/DDTMasterChef.sol\":28901:28912  user.amount */\n      0x00\n      add\n      sload\n        /* \"contracts/DDTMasterChef.sol\":28901:28916  user.amount.mul */\n      tag_157\n      swap1\n        /* \"contracts/DDTMasterChef.sol\":28901:28932  user.amount.mul(accDDTPerShare) */\n      swap2\n      swap1\n      0xffffffff\n      and\n      jump\t// in\n    tag_218:\n        /* \"contracts/DDTMasterChef.sol\":28901:28936  user.amount.mul(accDDTPerShare).div */\n      tag_158\n      swap1\n        /* \"contracts/DDTMasterChef.sol\":28901:28942  user.amount.mul(accDDTPerShare).div(1e12) */\n      swap2\n      swap1\n      0xffffffff\n      and\n      jump\t// in\n    tag_217:\n        /* \"contracts/DDTMasterChef.sol\":28901:28946  user.amount.mul(accDDTPerShare).div(1e12).sub */\n      tag_159\n      swap1\n        /* \"contracts/DDTMasterChef.sol\":28901:28963  user.amount.mul(accDDTPerShare).div(1e12).sub(user.rewardDebt) */\n      swap2\n      swap1\n      0xffffffff\n      and\n      jump\t// in\n    tag_216:\n        /* \"contracts/DDTMasterChef.sol\":28894:28963  return user.amount.mul(accDDTPerShare).div(1e12).sub(user.rewardDebt) */\n      swap5\n      pop\n      pop\n      pop\n      pop\n      pop\n        /* \"contracts/DDTMasterChef.sol\":28242:28971  function pendingDDT(uint256 _pid, address _user) external view returns (uint256){... */\n      swap3\n      swap2\n      pop\n      pop\n      jump\t// out\n        /* \"contracts/DDTMasterChef.sol\":27258:27360  function setMigrator(IMigratorChef _migrator) public onlyOwner {... */\n    tag_65:\n        /* \"contracts/DDTMasterChef.sol\":20336:20348  _msgSender() */\n      tag_220\n        /* \"contracts/DDTMasterChef.sol\":20336:20346  _msgSender */\n      tag_221\n        /* \"contracts/DDTMasterChef.sol\":20336:20348  _msgSender() */\n      jump\t// in\n    tag_220:\n        /* \"contracts/DDTMasterChef.sol\":20325:20348  owner() == _msgSender() */\n      0xffffffffffffffffffffffffffffffffffffffff\n      and\n        /* \"contracts/DDTMasterChef.sol\":20325:20332  owner() */\n      tag_222\n        /* \"contracts/DDTMasterChef.sol\":20325:20330  owner */\n      tag_111\n        /* \"contracts/DDTMasterChef.sol\":20325:20332  owner() */\n      jump\t// in\n    tag_222:\n        /* \"contracts/DDTMasterChef.sol\":20325:20348  owner() == _msgSender() */\n      0xffffffffffffffffffffffffffffffffffffffff\n      and\n      eq\n        /* \"contracts/DDTMasterChef.sol\":20317:20385  require(owner() == _msgSender(), \"Ownable: caller is not the owner\") */\n      tag_223\n      jumpi\n      mload(0x40)\n      0x08c379a000000000000000000000000000000000000000000000000000000000\n      dup2\n      mstore\n      0x04\n      add\n      tag_224\n      swap1\n      tag_225\n      jump\t// in\n    tag_224:\n      mload(0x40)\n      dup1\n      swap2\n      sub\n      swap1\n      revert\n    tag_223:\n        /* \"contracts/DDTMasterChef.sol\":27343:27352  _migrator */\n      dup1\n        /* \"contracts/DDTMasterChef.sol\":27332:27340  migrator */\n      0x05\n      0x00\n        /* \"contracts/DDTMasterChef.sol\":27332:27352  migrator = _migrator */\n      0x0100\n      exp\n      dup2\n      sload\n      dup2\n      0xffffffffffffffffffffffffffffffffffffffff\n      mul\n      not\n      and\n      swap1\n      dup4\n      0xffffffffffffffffffffffffffffffffffffffff\n      and\n      mul\n      or\n      swap1\n      sstore\n      pop\n        /* \"contracts/DDTMasterChef.sol\":27258:27360  function setMigrator(IMigratorChef _migrator) public onlyOwner {... */\n      pop\n      jump\t// out\n        /* \"contracts/DDTMasterChef.sol\":27483:27959  function migrate(uint256 _pid) public {... */\n    tag_68:\n        /* \"contracts/DDTMasterChef.sol\":27569:27570  0 */\n      0x00\n        /* \"contracts/DDTMasterChef.sol\":27540:27571  address(migrator) != address(0) */\n      0xffffffffffffffffffffffffffffffffffffffff\n      and\n        /* \"contracts/DDTMasterChef.sol\":27548:27556  migrator */\n      0x05\n      0x00\n      swap1\n      sload\n      swap1\n      0x0100\n      exp\n      swap1\n      div\n      0xffffffffffffffffffffffffffffffffffffffff\n      and\n        /* \"contracts/DDTMasterChef.sol\":27540:27571  address(migrator) != address(0) */\n      0xffffffffffffffffffffffffffffffffffffffff\n      and\n      sub\n        /* \"contracts/DDTMasterChef.sol\":27532:27596  require(address(migrator) != address(0), \"migrate: no migrator\") */\n      tag_228\n      jumpi\n      mload(0x40)\n      0x08c379a000000000000000000000000000000000000000000000000000000000\n      dup2\n      mstore\n      0x04\n      add\n      tag_229\n      swap1\n      tag_230\n      jump\t// in\n    tag_229:\n      mload(0x40)\n      dup1\n      swap2\n      sub\n      swap1\n      revert\n    tag_228:\n        /* \"contracts/DDTMasterChef.sol\":27607:27628  PoolInfo storage pool */\n      0x00\n        /* \"contracts/DDTMasterChef.sol\":27631:27639  poolInfo */\n      0x06\n        /* \"contracts/DDTMasterChef.sol\":27640:27644  _pid */\n      dup3\n        /* \"contracts/DDTMasterChef.sol\":27631:27645  poolInfo[_pid] */\n      dup2\n      sload\n      dup2\n      lt\n      tag_231\n      jumpi\n      tag_232\n      tag_150\n      jump\t// in\n    tag_232:\n    tag_231:\n      swap1\n      0x00\n      mstore\n      keccak256(0x00, 0x20)\n      swap1\n      0x08\n      mul\n      add\n        /* \"contracts/DDTMasterChef.sol\":27607:27645  PoolInfo storage pool = poolInfo[_pid] */\n      swap1\n      pop\n        /* \"contracts/DDTMasterChef.sol\":27656:27670  IERC20 lpToken */\n      0x00\n        /* \"contracts/DDTMasterChef.sol\":27673:27677  pool */\n      dup2\n        /* \"contracts/DDTMasterChef.sol\":27673:27685  pool.lpToken */\n      0x00\n      add\n      0x00\n      swap1\n      sload\n      swap1\n      0x0100\n      exp\n      swap1\n      div\n      0xffffffffffffffffffffffffffffffffffffffff\n      and\n        /* \"contracts/DDTMasterChef.sol\":27656:27685  IERC20 lpToken = pool.lpToken */\n      swap1\n      pop\n        /* \"contracts/DDTMasterChef.sol\":27696:27707  uint256 bal */\n      0x00\n        /* \"contracts/DDTMasterChef.sol\":27710:27721  poolBalance */\n      0x0a\n        /* \"contracts/DDTMasterChef.sol\":27710:27727  poolBalance[_pid] */\n      0x00\n        /* \"contracts/DDTMasterChef.sol\":27722:27726  _pid */\n      dup6\n        /* \"contracts/DDTMasterChef.sol\":27710:27727  poolBalance[_pid] */\n      dup2\n      mstore\n      0x20\n      add\n      swap1\n      dup2\n      mstore\n      0x20\n      add\n      0x00\n      keccak256\n      sload\n        /* \"contracts/DDTMasterChef.sol\":27696:27727  uint256 bal = poolBalance[_pid] */\n      swap1\n      pop\n        /* \"contracts/DDTMasterChef.sol\":27738:27781  lpToken.safeApprove(address(migrator), bal) */\n      tag_234\n        /* \"contracts/DDTMasterChef.sol\":27766:27774  migrator */\n      0x05\n      0x00\n      swap1\n      sload\n      swap1\n      0x0100\n      exp\n      swap1\n      div\n      0xffffffffffffffffffffffffffffffffffffffff\n      and\n        /* \"contracts/DDTMasterChef.sol\":27777:27780  bal */\n      dup3\n        /* \"contracts/DDTMasterChef.sol\":27738:27745  lpToken */\n      dup5\n        /* \"contracts/DDTMasterChef.sol\":27738:27757  lpToken.safeApprove */\n      0xffffffffffffffffffffffffffffffffffffffff\n      and\n      tag_235\n      swap1\n        /* \"contracts/DDTMasterChef.sol\":27738:27781  lpToken.safeApprove(address(migrator), bal) */\n      swap3\n      swap2\n      swap1\n      0xffffffff\n      and\n      jump\t// in\n    tag_234:\n        /* \"contracts/DDTMasterChef.sol\":27792:27809  IERC20 newLpToken */\n      0x00\n        /* \"contracts/DDTMasterChef.sol\":27812:27820  migrator */\n      0x05\n      0x00\n      swap1\n      sload\n      swap1\n      0x0100\n      exp\n      swap1\n      div\n      0xffffffffffffffffffffffffffffffffffffffff\n      and\n        /* \"contracts/DDTMasterChef.sol\":27812:27828  migrator.migrate */\n      0xffffffffffffffffffffffffffffffffffffffff\n      and\n      0xce5494bb\n        /* \"contracts/DDTMasterChef.sol\":27829:27836  lpToken */\n      dup5\n        /* \"contracts/DDTMasterChef.sol\":27812:27837  migrator.migrate(lpToken) */\n      mload(0x40)\n      dup3\n      0xffffffff\n      and\n      0xe0\n      shl\n      dup2\n      mstore\n      0x04\n      add\n      tag_236\n      swap2\n      swap1\n      tag_130\n      jump\t// in\n    tag_236:\n      0x20\n      mload(0x40)\n      dup1\n      dup4\n      sub\n      dup2\n      0x00\n      dup8\n      gas\n      call\n      iszero\n      dup1\n      iszero\n      tag_238\n      jumpi\n      returndatasize\n      0x00\n      dup1\n      returndatacopy\n      revert(0x00, returndatasize)\n    tag_238:\n      pop\n      pop\n      pop\n      pop\n      mload(0x40)\n      returndatasize\n      not(0x1f)\n      0x1f\n      dup3\n      add\n      and\n      dup3\n      add\n      dup1\n      0x40\n      mstore\n      pop\n      dup2\n      add\n      swap1\n      tag_239\n      swap2\n      swap1\n      tag_240\n      jump\t// in\n    tag_239:\n        /* \"contracts/DDTMasterChef.sol\":27792:27837  IERC20 newLpToken = migrator.migrate(lpToken) */\n      swap1\n      pop\n        /* \"contracts/DDTMasterChef.sol\":27863:27873  newLpToken */\n      dup1\n        /* \"contracts/DDTMasterChef.sol\":27863:27883  newLpToken.balanceOf */\n      0xffffffffffffffffffffffffffffffffffffffff\n      and\n      0x70a08231\n        /* \"contracts/DDTMasterChef.sol\":27892:27896  this */\n      address\n        /* \"contracts/DDTMasterChef.sol\":27863:27898  newLpToken.balanceOf(address(this)) */\n      mload(0x40)\n      dup3\n      0xffffffff\n      and\n      0xe0\n      shl\n      dup2\n      mstore\n      0x04\n      add\n      tag_241\n      swap2\n      swap1\n      tag_113\n      jump\t// in\n    tag_241:\n      0x20\n      mload(0x40)\n      dup1\n      dup4\n      sub\n      dup2\n      dup7\n      gas\n      staticcall\n      iszero\n      dup1\n      iszero\n      tag_243\n      jumpi\n      returndatasize\n      0x00\n      dup1\n      returndatacopy\n      revert(0x00, returndatasize)\n    tag_243:\n      pop\n      pop\n      pop\n      pop\n      mload(0x40)\n      returndatasize\n      not(0x1f)\n      0x1f\n      dup3\n      add\n      and\n      dup3\n      add\n      dup1\n      0x40\n      mstore\n      pop\n      dup2\n      add\n      swap1\n      tag_244\n      swap2\n      swap1\n      tag_168\n      jump\t// in\n    tag_244:\n        /* \"contracts/DDTMasterChef.sol\":27856:27859  bal */\n      dup3\n        /* \"contracts/DDTMasterChef.sol\":27856:27898  bal == newLpToken.balanceOf(address(this)) */\n      eq\n        /* \"contracts/DDTMasterChef.sol\":27848:27915  require(bal == newLpToken.balanceOf(address(this)), \"migrate: bad\") */\n      tag_245\n      jumpi\n      mload(0x40)\n      0x08c379a000000000000000000000000000000000000000000000000000000000\n      dup2\n      mstore\n      0x04\n      add\n      tag_246\n      swap1\n      tag_247\n      jump\t// in\n    tag_246:\n      mload(0x40)\n      dup1\n      swap2\n      sub\n      swap1\n      revert\n    tag_245:\n        /* \"contracts/DDTMasterChef.sol\":27941:27951  newLpToken */\n      dup1\n        /* \"contracts/DDTMasterChef.sol\":27926:27930  pool */\n      dup5\n        /* \"contracts/DDTMasterChef.sol\":27926:27938  pool.lpToken */\n      0x00\n      add\n      0x00\n        /* \"contracts/DDTMasterChef.sol\":27926:27951  pool.lpToken = newLpToken */\n      0x0100\n      exp\n      dup2\n      sload\n      dup2\n      0xffffffffffffffffffffffffffffffffffffffff\n      mul\n      not\n      and\n      swap1\n      dup4\n      0xffffffffffffffffffffffffffffffffffffffff\n      and\n      mul\n      or\n      swap1\n      sstore\n      pop\n        /* \"contracts/DDTMasterChef.sol\":27521:27959  {... */\n      pop\n      pop\n      pop\n      pop\n        /* \"contracts/DDTMasterChef.sol\":27483:27959  function migrate(uint256 _pid) public {... */\n      pop\n      jump\t// out\n        /* \"contracts/DDTMasterChef.sol\":24842:24867  uint256 public startBlock */\n    tag_70:\n      sload(0x09)\n      dup2\n      jump\t// out\n        /* \"contracts/DDTMasterChef.sol\":29310:30015  function updatePool(uint256 _pid) public {... */\n    tag_74:\n        /* \"contracts/DDTMasterChef.sol\":29362:29383  PoolInfo storage pool */\n      0x00\n        /* \"contracts/DDTMasterChef.sol\":29386:29394  poolInfo */\n      0x06\n        /* \"contracts/DDTMasterChef.sol\":29395:29399  _pid */\n      dup3\n        /* \"contracts/DDTMasterChef.sol\":29386:29400  poolInfo[_pid] */\n      dup2\n      sload\n      dup2\n      lt\n      tag_249\n      jumpi\n      tag_250\n      tag_150\n      jump\t// in\n    tag_250:\n    tag_249:\n      swap1\n      0x00\n      mstore\n      keccak256(0x00, 0x20)\n      swap1\n      0x08\n      mul\n      add\n        /* \"contracts/DDTMasterChef.sol\":29362:29400  PoolInfo storage pool = poolInfo[_pid] */\n      swap1\n      pop\n        /* \"contracts/DDTMasterChef.sol\":29431:29435  pool */\n      dup1\n        /* \"contracts/DDTMasterChef.sol\":29431:29451  pool.lastRewardBlock */\n      0x02\n      add\n      sload\n        /* \"contracts/DDTMasterChef.sol\":29415:29427  block.number */\n      number\n        /* \"contracts/DDTMasterChef.sol\":29415:29451  block.number <= pool.lastRewardBlock */\n      gt\n        /* \"contracts/DDTMasterChef.sol\":29411:29486  if (block.number <= pool.lastRewardBlock) {... */\n      tag_252\n      jumpi\n        /* \"contracts/DDTMasterChef.sol\":29468:29475  return; */\n      pop\n      jump(tag_248)\n        /* \"contracts/DDTMasterChef.sol\":29411:29486  if (block.number <= pool.lastRewardBlock) {... */\n    tag_252:\n        /* \"contracts/DDTMasterChef.sol\":29496:29512  uint256 lpSupply */\n      0x00\n        /* \"contracts/DDTMasterChef.sol\":29515:29526  poolBalance */\n      0x0a\n        /* \"contracts/DDTMasterChef.sol\":29515:29532  poolBalance[_pid] */\n      0x00\n        /* \"contracts/DDTMasterChef.sol\":29527:29531  _pid */\n      dup5\n        /* \"contracts/DDTMasterChef.sol\":29515:29532  poolBalance[_pid] */\n      dup2\n      mstore\n      0x20\n      add\n      swap1\n      dup2\n      mstore\n      0x20\n      add\n      0x00\n      keccak256\n      sload\n        /* \"contracts/DDTMasterChef.sol\":29496:29532  uint256 lpSupply = poolBalance[_pid] */\n      swap1\n      pop\n        /* \"contracts/DDTMasterChef.sol\":29559:29560  0 */\n      0x00\n        /* \"contracts/DDTMasterChef.sol\":29547:29555  lpSupply */\n      dup2\n        /* \"contracts/DDTMasterChef.sol\":29547:29560  lpSupply <= 0 */\n      gt\n        /* \"contracts/DDTMasterChef.sol\":29543:29645  if (lpSupply <= 0) {... */\n      tag_253\n      jumpi\n        /* \"contracts/DDTMasterChef.sol\":29600:29612  block.number */\n      number\n        /* \"contracts/DDTMasterChef.sol\":29577:29581  pool */\n      dup3\n        /* \"contracts/DDTMasterChef.sol\":29577:29597  pool.lastRewardBlock */\n      0x02\n      add\n        /* \"contracts/DDTMasterChef.sol\":29577:29612  pool.lastRewardBlock = block.number */\n      dup2\n      swap1\n      sstore\n      pop\n        /* \"contracts/DDTMasterChef.sol\":29627:29634  return; */\n      pop\n      pop\n      jump(tag_248)\n        /* \"contracts/DDTMasterChef.sol\":29543:29645  if (lpSupply <= 0) {... */\n    tag_253:\n        /* \"contracts/DDTMasterChef.sol\":29655:29673  uint256 multiplier */\n      0x00\n        /* \"contracts/DDTMasterChef.sol\":29676:29725  getMultiplier(pool.lastRewardBlock, block.number) */\n      tag_254\n        /* \"contracts/DDTMasterChef.sol\":29690:29694  pool */\n      dup4\n        /* \"contracts/DDTMasterChef.sol\":29690:29710  pool.lastRewardBlock */\n      0x02\n      add\n      sload\n        /* \"contracts/DDTMasterChef.sol\":29712:29724  block.number */\n      number\n        /* \"contracts/DDTMasterChef.sol\":29676:29689  getMultiplier */\n      tag_117\n        /* \"contracts/DDTMasterChef.sol\":29676:29725  getMultiplier(pool.lastRewardBlock, block.number) */\n      jump\t// in\n    tag_254:\n        /* \"contracts/DDTMasterChef.sol\":29655:29725  uint256 multiplier = getMultiplier(pool.lastRewardBlock, block.number) */\n      swap1\n      pop\n        /* \"contracts/DDTMasterChef.sol\":29736:29753  uint256 DDTReward */\n      0x00\n        /* \"contracts/DDTMasterChef.sol\":29756:29825  multiplier.mul(DDTPerBlock).mul(pool.allocPoint).div(totalAllocPoint) */\n      tag_255\n        /* \"contracts/DDTMasterChef.sol\":29809:29824  totalAllocPoint */\n      sload(0x08)\n        /* \"contracts/DDTMasterChef.sol\":29756:29804  multiplier.mul(DDTPerBlock).mul(pool.allocPoint) */\n      tag_256\n        /* \"contracts/DDTMasterChef.sol\":29788:29792  pool */\n      dup7\n        /* \"contracts/DDTMasterChef.sol\":29788:29803  pool.allocPoint */\n      0x01\n      add\n      sload\n        /* \"contracts/DDTMasterChef.sol\":29756:29783  multiplier.mul(DDTPerBlock) */\n      tag_257\n        /* \"contracts/DDTMasterChef.sol\":29771:29782  DDTPerBlock */\n      sload(0x03)\n        /* \"contracts/DDTMasterChef.sol\":29756:29766  multiplier */\n      dup8\n        /* \"contracts/DDTMasterChef.sol\":29756:29770  multiplier.mul */\n      tag_157\n      swap1\n        /* \"contracts/DDTMasterChef.sol\":29756:29783  multiplier.mul(DDTPerBlock) */\n      swap2\n      swap1\n      0xffffffff\n      and\n      jump\t// in\n    tag_257:\n        /* \"contracts/DDTMasterChef.sol\":29756:29787  multiplier.mul(DDTPerBlock).mul */\n      tag_157\n      swap1\n        /* \"contracts/DDTMasterChef.sol\":29756:29804  multiplier.mul(DDTPerBlock).mul(pool.allocPoint) */\n      swap2\n      swap1\n      0xffffffff\n      and\n      jump\t// in\n    tag_256:\n        /* \"contracts/DDTMasterChef.sol\":29756:29808  multiplier.mul(DDTPerBlock).mul(pool.allocPoint).div */\n      tag_158\n      swap1\n        /* \"contracts/DDTMasterChef.sol\":29756:29825  multiplier.mul(DDTPerBlock).mul(pool.allocPoint).div(totalAllocPoint) */\n      swap2\n      swap1\n      0xffffffff\n      and\n      jump\t// in\n    tag_255:\n        /* \"contracts/DDTMasterChef.sol\":29736:29825  uint256 DDTReward = multiplier.mul(DDTPerBlock).mul(pool.allocPoint).div(totalAllocPoint) */\n      swap1\n      pop\n        /* \"contracts/DDTMasterChef.sol\":29836:29839  DDT */\n      0x01\n      0x00\n      swap1\n      sload\n      swap1\n      0x0100\n      exp\n      swap1\n      div\n      0xffffffffffffffffffffffffffffffffffffffff\n      and\n        /* \"contracts/DDTMasterChef.sol\":29836:29844  DDT.mint */\n      0xffffffffffffffffffffffffffffffffffffffff\n      and\n      0x40c10f19\n        /* \"contracts/DDTMasterChef.sol\":29853:29857  this */\n      address\n        /* \"contracts/DDTMasterChef.sol\":29860:29869  DDTReward */\n      dup4\n        /* \"contracts/DDTMasterChef.sol\":29836:29870  DDT.mint(address(this), DDTReward) */\n      mload(0x40)\n      dup4\n      0xffffffff\n      and\n      0xe0\n      shl\n      dup2\n      mstore\n      0x04\n      add\n      tag_258\n      swap3\n      swap2\n      swap1\n      tag_259\n      jump\t// in\n    tag_258:\n      0x20\n      mload(0x40)\n      dup1\n      dup4\n      sub\n      dup2\n      0x00\n      dup8\n      gas\n      call\n      iszero\n      dup1\n      iszero\n      tag_261\n      jumpi\n      returndatasize\n      0x00\n      dup1\n      returndatacopy\n      revert(0x00, returndatasize)\n    tag_261:\n      pop\n      pop\n      pop\n      pop\n      mload(0x40)\n      returndatasize\n      not(0x1f)\n      0x1f\n      dup3\n      add\n      and\n      dup3\n      add\n      dup1\n      0x40\n      mstore\n      pop\n      dup2\n      add\n      swap1\n      tag_262\n      swap2\n      swap1\n      tag_263\n      jump\t// in\n    tag_262:\n      pop\n        /* \"contracts/DDTMasterChef.sol\":29903:29961  pool.accDDTPerShare.add(DDTReward.mul(1e12).div(lpSupply)) */\n      tag_264\n        /* \"contracts/DDTMasterChef.sol\":29927:29960  DDTReward.mul(1e12).div(lpSupply) */\n      tag_265\n        /* \"contracts/DDTMasterChef.sol\":29951:29959  lpSupply */\n      dup5\n        /* \"contracts/DDTMasterChef.sol\":29927:29946  DDTReward.mul(1e12) */\n      tag_266\n        /* \"contracts/DDTMasterChef.sol\":29941:29945  1e12 */\n      0xe8d4a51000\n        /* \"contracts/DDTMasterChef.sol\":29927:29936  DDTReward */\n      dup6\n        /* \"contracts/DDTMasterChef.sol\":29927:29940  DDTReward.mul */\n      tag_157\n      swap1\n        /* \"contracts/DDTMasterChef.sol\":29927:29946  DDTReward.mul(1e12) */\n      swap2\n      swap1\n      0xffffffff\n      and\n      jump\t// in\n    tag_266:\n        /* \"contracts/DDTMasterChef.sol\":29927:29950  DDTReward.mul(1e12).div */\n      tag_158\n      swap1\n        /* \"contracts/DDTMasterChef.sol\":29927:29960  DDTReward.mul(1e12).div(lpSupply) */\n      swap2\n      swap1\n      0xffffffff\n      and\n      jump\t// in\n    tag_265:\n        /* \"contracts/DDTMasterChef.sol\":29903:29907  pool */\n      dup6\n        /* \"contracts/DDTMasterChef.sol\":29903:29922  pool.accDDTPerShare */\n      0x03\n      add\n      sload\n        /* \"contracts/DDTMasterChef.sol\":29903:29926  pool.accDDTPerShare.add */\n      tag_188\n      swap1\n        /* \"contracts/DDTMasterChef.sol\":29903:29961  pool.accDDTPerShare.add(DDTReward.mul(1e12).div(lpSupply)) */\n      swap2\n      swap1\n      0xffffffff\n      and\n      jump\t// in\n    tag_264:\n        /* \"contracts/DDTMasterChef.sol\":29881:29885  pool */\n      dup5\n        /* \"contracts/DDTMasterChef.sol\":29881:29900  pool.accDDTPerShare */\n      0x03\n      add\n        /* \"contracts/DDTMasterChef.sol\":29881:29961  pool.accDDTPerShare = pool.accDDTPerShare.add(DDTReward.mul(1e12).div(lpSupply)) */\n      dup2\n      swap1\n      sstore\n      pop\n        /* \"contracts/DDTMasterChef.sol\":29995:30007  block.number */\n      number\n        /* \"contracts/DDTMasterChef.sol\":29972:29976  pool */\n      dup5\n        /* \"contracts/DDTMasterChef.sol\":29972:29992  pool.lastRewardBlock */\n      0x02\n      add\n        /* \"contracts/DDTMasterChef.sol\":29972:30007  pool.lastRewardBlock = block.number */\n      dup2\n      swap1\n      sstore\n      pop\n        /* \"contracts/DDTMasterChef.sol\":29351:30015  {... */\n      pop\n      pop\n      pop\n      pop\n        /* \"contracts/DDTMasterChef.sol\":29310:30015  function updatePool(uint256 _pid) public {... */\n    tag_248:\n      pop\n      jump\t// out\n        /* \"contracts/DDTMasterChef.sol\":33255:33611  function emergencyWithdraw(uint256 _pid) public {... */\n    tag_77:\n        /* \"contracts/DDTMasterChef.sol\":33314:33335  PoolInfo storage pool */\n      0x00\n        /* \"contracts/DDTMasterChef.sol\":33338:33346  poolInfo */\n      0x06\n        /* \"contracts/DDTMasterChef.sol\":33347:33351  _pid */\n      dup3\n        /* \"contracts/DDTMasterChef.sol\":33338:33352  poolInfo[_pid] */\n      dup2\n      sload\n      dup2\n      lt\n      tag_268\n      jumpi\n      tag_269\n      tag_150\n      jump\t// in\n    tag_269:\n    tag_268:\n      swap1\n      0x00\n      mstore\n      keccak256(0x00, 0x20)\n      swap1\n      0x08\n      mul\n      add\n        /* \"contracts/DDTMasterChef.sol\":33314:33352  PoolInfo storage pool = poolInfo[_pid] */\n      swap1\n      pop\n        /* \"contracts/DDTMasterChef.sol\":33363:33384  UserInfo storage user */\n      0x00\n        /* \"contracts/DDTMasterChef.sol\":33387:33395  userInfo */\n      0x07\n        /* \"contracts/DDTMasterChef.sol\":33387:33401  userInfo[_pid] */\n      0x00\n        /* \"contracts/DDTMasterChef.sol\":33396:33400  _pid */\n      dup5\n        /* \"contracts/DDTMasterChef.sol\":33387:33401  userInfo[_pid] */\n      dup2\n      mstore\n      0x20\n      add\n      swap1\n      dup2\n      mstore\n      0x20\n      add\n      0x00\n      keccak256\n        /* \"contracts/DDTMasterChef.sol\":33387:33413  userInfo[_pid][msg.sender] */\n      0x00\n        /* \"contracts/DDTMasterChef.sol\":33402:33412  msg.sender */\n      caller\n        /* \"contracts/DDTMasterChef.sol\":33387:33413  userInfo[_pid][msg.sender] */\n      0xffffffffffffffffffffffffffffffffffffffff\n      and\n      0xffffffffffffffffffffffffffffffffffffffff\n      and\n      dup2\n      mstore\n      0x20\n      add\n      swap1\n      dup2\n      mstore\n      0x20\n      add\n      0x00\n      keccak256\n        /* \"contracts/DDTMasterChef.sol\":33363:33413  UserInfo storage user = userInfo[_pid][msg.sender] */\n      swap1\n      pop\n        /* \"contracts/DDTMasterChef.sol\":33424:33483  pool.lpToken.safeTransfer(address(msg.sender), user.amount) */\n      tag_271\n        /* \"contracts/DDTMasterChef.sol\":33458:33468  msg.sender */\n      caller\n        /* \"contracts/DDTMasterChef.sol\":33471:33475  user */\n      dup3\n        /* \"contracts/DDTMasterChef.sol\":33471:33482  user.amount */\n      0x00\n      add\n      sload\n        /* \"contracts/DDTMasterChef.sol\":33424:33428  pool */\n      dup5\n        /* \"contracts/DDTMasterChef.sol\":33424:33436  pool.lpToken */\n      0x00\n      add\n      0x00\n      swap1\n      sload\n      swap1\n      0x0100\n      exp\n      swap1\n      div\n      0xffffffffffffffffffffffffffffffffffffffff\n      and\n        /* \"contracts/DDTMasterChef.sol\":33424:33449  pool.lpToken.safeTransfer */\n      0xffffffffffffffffffffffffffffffffffffffff\n      and\n      tag_198\n      swap1\n        /* \"contracts/DDTMasterChef.sol\":33424:33483  pool.lpToken.safeTransfer(address(msg.sender), user.amount) */\n      swap3\n      swap2\n      swap1\n      0xffffffff\n      and\n      jump\t// in\n    tag_271:\n        /* \"contracts/DDTMasterChef.sol\":33529:33533  _pid */\n      dup3\n        /* \"contracts/DDTMasterChef.sol\":33517:33527  msg.sender */\n      caller\n        /* \"contracts/DDTMasterChef.sol\":33499:33547  EmergencyWithdraw(msg.sender, _pid, user.amount) */\n      0xffffffffffffffffffffffffffffffffffffffff\n      and\n      0xbb757047c2b5f3974fe26b7c10f732e7bce710b0952a71082702781e62ae0595\n        /* \"contracts/DDTMasterChef.sol\":33535:33539  user */\n      dup4\n        /* \"contracts/DDTMasterChef.sol\":33535:33546  user.amount */\n      0x00\n      add\n      sload\n        /* \"contracts/DDTMasterChef.sol\":33499:33547  EmergencyWithdraw(msg.sender, _pid, user.amount) */\n      mload(0x40)\n      tag_272\n      swap2\n      swap1\n      tag_47\n      jump\t// in\n    tag_272:\n      mload(0x40)\n      dup1\n      swap2\n      sub\n      swap1\n      log3\n        /* \"contracts/DDTMasterChef.sol\":33572:33573  0 */\n      0x00\n        /* \"contracts/DDTMasterChef.sol\":33558:33562  user */\n      dup2\n        /* \"contracts/DDTMasterChef.sol\":33558:33569  user.amount */\n      0x00\n      add\n        /* \"contracts/DDTMasterChef.sol\":33558:33573  user.amount = 0 */\n      dup2\n      swap1\n      sstore\n      pop\n        /* \"contracts/DDTMasterChef.sol\":33602:33603  0 */\n      0x00\n        /* \"contracts/DDTMasterChef.sol\":33584:33588  user */\n      dup2\n        /* \"contracts/DDTMasterChef.sol\":33584:33599  user.rewardDebt */\n      0x01\n      add\n        /* \"contracts/DDTMasterChef.sol\":33584:33603  user.rewardDebt = 0 */\n      dup2\n      swap1\n      sstore\n      pop\n        /* \"contracts/DDTMasterChef.sol\":33303:33611  {... */\n      pop\n      pop\n        /* \"contracts/DDTMasterChef.sol\":33255:33611  function emergencyWithdraw(uint256 _pid) public {... */\n      pop\n      jump\t// out\n        /* \"contracts/DDTMasterChef.sol\":25591:25714  function updateMultiplier(uint256 multiplierNumber) public onlyOwner {... */\n    tag_80:\n        /* \"contracts/DDTMasterChef.sol\":20336:20348  _msgSender() */\n      tag_274\n        /* \"contracts/DDTMasterChef.sol\":20336:20346  _msgSender */\n      tag_221\n        /* \"contracts/DDTMasterChef.sol\":20336:20348  _msgSender() */\n      jump\t// in\n    tag_274:\n        /* \"contracts/DDTMasterChef.sol\":20325:20348  owner() == _msgSender() */\n      0xffffffffffffffffffffffffffffffffffffffff\n      and\n        /* \"contracts/DDTMasterChef.sol\":20325:20332  owner() */\n      tag_275\n        /* \"contracts/DDTMasterChef.sol\":20325:20330  owner */\n      tag_111\n        /* \"contracts/DDTMasterChef.sol\":20325:20332  owner() */\n      jump\t// in\n    tag_275:\n        /* \"contracts/DDTMasterChef.sol\":20325:20348  owner() == _msgSender() */\n      0xffffffffffffffffffffffffffffffffffffffff\n      and\n      eq\n        /* \"contracts/DDTMasterChef.sol\":20317:20385  require(owner() == _msgSender(), \"Ownable: caller is not the owner\") */\n      tag_276\n      jumpi\n      mload(0x40)\n      0x08c379a000000000000000000000000000000000000000000000000000000000\n      dup2\n      mstore\n      0x04\n      add\n      tag_277\n      swap1\n      tag_225\n      jump\t// in\n    tag_277:\n      mload(0x40)\n      dup1\n      swap2\n      sub\n      swap1\n      revert\n    tag_276:\n        /* \"contracts/DDTMasterChef.sol\":25690:25706  multiplierNumber */\n      dup1\n        /* \"contracts/DDTMasterChef.sol\":25671:25687  BONUS_MULTIPLIER */\n      0x04\n        /* \"contracts/DDTMasterChef.sol\":25671:25706  BONUS_MULTIPLIER = multiplierNumber */\n      dup2\n      swap1\n      sstore\n      pop\n        /* \"contracts/DDTMasterChef.sol\":25591:25714  function updateMultiplier(uint256 multiplierNumber) public onlyOwner {... */\n      pop\n      jump\t// out\n        /* \"contracts/DDTMasterChef.sol\":34109:34214  function updateDDTPerBlock(uint256 newAmount) public onlyOwner {... */\n    tag_83:\n        /* \"contracts/DDTMasterChef.sol\":20336:20348  _msgSender() */\n      tag_280\n        /* \"contracts/DDTMasterChef.sol\":20336:20346  _msgSender */\n      tag_221\n        /* \"contracts/DDTMasterChef.sol\":20336:20348  _msgSender() */\n      jump\t// in\n    tag_280:\n        /* \"contracts/DDTMasterChef.sol\":20325:20348  owner() == _msgSender() */\n      0xffffffffffffffffffffffffffffffffffffffff\n      and\n        /* \"contracts/DDTMasterChef.sol\":20325:20332  owner() */\n      tag_281\n        /* \"contracts/DDTMasterChef.sol\":20325:20330  owner */\n      tag_111\n        /* \"contracts/DDTMasterChef.sol\":20325:20332  owner() */\n      jump\t// in\n    tag_281:\n        /* \"contracts/DDTMasterChef.sol\":20325:20348  owner() == _msgSender() */\n      0xffffffffffffffffffffffffffffffffffffffff\n      and\n      eq\n        /* \"contracts/DDTMasterChef.sol\":20317:20385  require(owner() == _msgSender(), \"Ownable: caller is not the owner\") */\n      tag_282\n      jumpi\n      mload(0x40)\n      0x08c379a000000000000000000000000000000000000000000000000000000000\n      dup2\n      mstore\n      0x04\n      add\n      tag_283\n      swap1\n      tag_225\n      jump\t// in\n    tag_283:\n      mload(0x40)\n      dup1\n      swap2\n      sub\n      swap1\n      revert\n    tag_282:\n        /* \"contracts/DDTMasterChef.sol\":34197:34206  newAmount */\n      dup1\n        /* \"contracts/DDTMasterChef.sol\":34183:34194  DDTPerBlock */\n      0x03\n        /* \"contracts/DDTMasterChef.sol\":34183:34206  DDTPerBlock = newAmount */\n      dup2\n      swap1\n      sstore\n      pop\n        /* \"contracts/DDTMasterChef.sol\":34109:34214  function updateDDTPerBlock(uint256 newAmount) public onlyOwner {... */\n      pop\n      jump\t// out\n        /* \"contracts/DDTMasterChef.sol\":29054:29234  function massUpdatePools() public {... */\n    tag_85:\n        /* \"contracts/DDTMasterChef.sol\":29099:29113  uint256 length */\n      0x00\n        /* \"contracts/DDTMasterChef.sol\":29116:29124  poolInfo */\n      0x06\n        /* \"contracts/DDTMasterChef.sol\":29116:29131  poolInfo.length */\n      dup1\n      sload\n      swap1\n      pop\n        /* \"contracts/DDTMasterChef.sol\":29099:29131  uint256 length = poolInfo.length */\n      swap1\n      pop\n        /* \"contracts/DDTMasterChef.sol\":29147:29158  uint256 pid */\n      0x00\n        /* \"contracts/DDTMasterChef.sol\":29142:29227  for (uint256 pid = 0; pid < length; ++pid) {... */\n    tag_286:\n        /* \"contracts/DDTMasterChef.sol\":29170:29176  length */\n      dup2\n        /* \"contracts/DDTMasterChef.sol\":29164:29167  pid */\n      dup2\n        /* \"contracts/DDTMasterChef.sol\":29164:29176  pid < length */\n      lt\n        /* \"contracts/DDTMasterChef.sol\":29142:29227  for (uint256 pid = 0; pid < length; ++pid) {... */\n      iszero\n      tag_287\n      jumpi\n        /* \"contracts/DDTMasterChef.sol\":29200:29215  updatePool(pid) */\n      tag_289\n        /* \"contracts/DDTMasterChef.sol\":29211:29214  pid */\n      dup2\n        /* \"contracts/DDTMasterChef.sol\":29200:29210  updatePool */\n      tag_74\n        /* \"contracts/DDTMasterChef.sol\":29200:29215  updatePool(pid) */\n      jump\t// in\n    tag_289:\n        /* \"contracts/DDTMasterChef.sol\":29178:29183  ++pid */\n      dup1\n      tag_290\n      swap1\n      tag_291\n      jump\t// in\n    tag_290:\n      swap1\n      pop\n        /* \"contracts/DDTMasterChef.sol\":29142:29227  for (uint256 pid = 0; pid < length; ++pid) {... */\n      jump(tag_286)\n    tag_287:\n      pop\n        /* \"contracts/DDTMasterChef.sol\":29088:29234  {... */\n      pop\n        /* \"contracts/DDTMasterChef.sol\":29054:29234  function massUpdatePools() public {... */\n      jump\t// out\n        /* \"contracts/DDTMasterChef.sol\":26877:27182  function set( uint256 _pid, uint256 _allocPoint, bool _withUpdate) public onlyOwner {... */\n    tag_89:\n        /* \"contracts/DDTMasterChef.sol\":20336:20348  _msgSender() */\n      tag_293\n        /* \"contracts/DDTMasterChef.sol\":20336:20346  _msgSender */\n      tag_221\n        /* \"contracts/DDTMasterChef.sol\":20336:20348  _msgSender() */\n      jump\t// in\n    tag_293:\n        /* \"contracts/DDTMasterChef.sol\":20325:20348  owner() == _msgSender() */\n      0xffffffffffffffffffffffffffffffffffffffff\n      and\n        /* \"contracts/DDTMasterChef.sol\":20325:20332  owner() */\n      tag_294\n        /* \"contracts/DDTMasterChef.sol\":20325:20330  owner */\n      tag_111\n        /* \"contracts/DDTMasterChef.sol\":20325:20332  owner() */\n      jump\t// in\n    tag_294:\n        /* \"contracts/DDTMasterChef.sol\":20325:20348  owner() == _msgSender() */\n      0xffffffffffffffffffffffffffffffffffffffff\n      and\n      eq\n        /* \"contracts/DDTMasterChef.sol\":20317:20385  require(owner() == _msgSender(), \"Ownable: caller is not the owner\") */\n      tag_295\n      jumpi\n      mload(0x40)\n      0x08c379a000000000000000000000000000000000000000000000000000000000\n      dup2\n      mstore\n      0x04\n      add\n      tag_296\n      swap1\n      tag_225\n      jump\t// in\n    tag_296:\n      mload(0x40)\n      dup1\n      swap2\n      sub\n      swap1\n      revert\n    tag_295:\n        /* \"contracts/DDTMasterChef.sol\":26976:26987  _withUpdate */\n      dup1\n        /* \"contracts/DDTMasterChef.sol\":26972:27033  if (_withUpdate) {... */\n      iszero\n      tag_298\n      jumpi\n        /* \"contracts/DDTMasterChef.sol\":27004:27021  massUpdatePools() */\n      tag_299\n        /* \"contracts/DDTMasterChef.sol\":27004:27019  massUpdatePools */\n      tag_85\n        /* \"contracts/DDTMasterChef.sol\":27004:27021  massUpdatePools() */\n      jump\t// in\n    tag_299:\n        /* \"contracts/DDTMasterChef.sol\":26972:27033  if (_withUpdate) {... */\n    tag_298:\n        /* \"contracts/DDTMasterChef.sol\":27061:27124  totalAllocPoint.sub(poolInfo[_pid].allocPoint).add(_allocPoint) */\n      tag_300\n        /* \"contracts/DDTMasterChef.sol\":27112:27123  _allocPoint */\n      dup3\n        /* \"contracts/DDTMasterChef.sol\":27061:27107  totalAllocPoint.sub(poolInfo[_pid].allocPoint) */\n      tag_301\n        /* \"contracts/DDTMasterChef.sol\":27081:27089  poolInfo */\n      0x06\n        /* \"contracts/DDTMasterChef.sol\":27090:27094  _pid */\n      dup7\n        /* \"contracts/DDTMasterChef.sol\":27081:27095  poolInfo[_pid] */\n      dup2\n      sload\n      dup2\n      lt\n      tag_302\n      jumpi\n      tag_303\n      tag_150\n      jump\t// in\n    tag_303:\n    tag_302:\n      swap1\n      0x00\n      mstore\n      keccak256(0x00, 0x20)\n      swap1\n      0x08\n      mul\n      add\n        /* \"contracts/DDTMasterChef.sol\":27081:27106  poolInfo[_pid].allocPoint */\n      0x01\n      add\n      sload\n        /* \"contracts/DDTMasterChef.sol\":27061:27076  totalAllocPoint */\n      sload(0x08)\n        /* \"contracts/DDTMasterChef.sol\":27061:27080  totalAllocPoint.sub */\n      tag_159\n      swap1\n        /* \"contracts/DDTMasterChef.sol\":27061:27107  totalAllocPoint.sub(poolInfo[_pid].allocPoint) */\n      swap2\n      swap1\n      0xffffffff\n      and\n      jump\t// in\n    tag_301:\n        /* \"contracts/DDTMasterChef.sol\":27061:27111  totalAllocPoint.sub(poolInfo[_pid].allocPoint).add */\n      tag_188\n      swap1\n        /* \"contracts/DDTMasterChef.sol\":27061:27124  totalAllocPoint.sub(poolInfo[_pid].allocPoint).add(_allocPoint) */\n      swap2\n      swap1\n      0xffffffff\n      and\n      jump\t// in\n    tag_300:\n        /* \"contracts/DDTMasterChef.sol\":27043:27058  totalAllocPoint */\n      0x08\n        /* \"contracts/DDTMasterChef.sol\":27043:27124  totalAllocPoint = totalAllocPoint.sub(poolInfo[_pid].allocPoint).add(_allocPoint) */\n      dup2\n      swap1\n      sstore\n      pop\n        /* \"contracts/DDTMasterChef.sol\":27163:27174  _allocPoint */\n      dup2\n        /* \"contracts/DDTMasterChef.sol\":27135:27143  poolInfo */\n      0x06\n        /* \"contracts/DDTMasterChef.sol\":27144:27148  _pid */\n      dup5\n        /* \"contracts/DDTMasterChef.sol\":27135:27149  poolInfo[_pid] */\n      dup2\n      sload\n      dup2\n      lt\n      tag_305\n      jumpi\n      tag_306\n      tag_150\n      jump\t// in\n    tag_306:\n    tag_305:\n      swap1\n      0x00\n      mstore\n      keccak256(0x00, 0x20)\n      swap1\n      0x08\n      mul\n      add\n        /* \"contracts/DDTMasterChef.sol\":27135:27160  poolInfo[_pid].allocPoint */\n      0x01\n      add\n        /* \"contracts/DDTMasterChef.sol\":27135:27174  poolInfo[_pid].allocPoint = _allocPoint */\n      dup2\n      swap1\n      sstore\n      pop\n        /* \"contracts/DDTMasterChef.sol\":26877:27182  function set( uint256 _pid, uint256 _allocPoint, bool _withUpdate) public onlyOwner {... */\n      pop\n      pop\n      pop\n      jump\t// out\n        /* \"contracts/DDTMasterChef.sol\":25988:26782  function add( uint256 _allocPoint, IERC20 _lpToken, bool _withUpdate, IMasterChef _poolMasterChef, IERC20 _rewardToken, uint256 _fee, uint256 _method) public onlyOwner {... */\n    tag_93:\n        /* \"contracts/DDTMasterChef.sol\":20336:20348  _msgSender() */\n      tag_309\n        /* \"contracts/DDTMasterChef.sol\":20336:20346  _msgSender */\n      tag_221\n        /* \"contracts/DDTMasterChef.sol\":20336:20348  _msgSender() */\n      jump\t// in\n    tag_309:\n        /* \"contracts/DDTMasterChef.sol\":20325:20348  owner() == _msgSender() */\n      0xffffffffffffffffffffffffffffffffffffffff\n      and\n        /* \"contracts/DDTMasterChef.sol\":20325:20332  owner() */\n      tag_310\n        /* \"contracts/DDTMasterChef.sol\":20325:20330  owner */\n      tag_111\n        /* \"contracts/DDTMasterChef.sol\":20325:20332  owner() */\n      jump\t// in\n    tag_310:\n        /* \"contracts/DDTMasterChef.sol\":20325:20348  owner() == _msgSender() */\n      0xffffffffffffffffffffffffffffffffffffffff\n      and\n      eq\n        /* \"contracts/DDTMasterChef.sol\":20317:20385  require(owner() == _msgSender(), \"Ownable: caller is not the owner\") */\n      tag_311\n      jumpi\n      mload(0x40)\n      0x08c379a000000000000000000000000000000000000000000000000000000000\n      dup2\n      mstore\n      0x04\n      add\n      tag_312\n      swap1\n      tag_225\n      jump\t// in\n    tag_312:\n      mload(0x40)\n      dup1\n      swap2\n      sub\n      swap1\n      revert\n    tag_311:\n        /* \"contracts/DDTMasterChef.sol\":26171:26182  _withUpdate */\n      dup5\n        /* \"contracts/DDTMasterChef.sol\":26167:26228  if (_withUpdate) {... */\n      iszero\n      tag_314\n      jumpi\n        /* \"contracts/DDTMasterChef.sol\":26199:26216  massUpdatePools() */\n      tag_315\n        /* \"contracts/DDTMasterChef.sol\":26199:26214  massUpdatePools */\n      tag_85\n        /* \"contracts/DDTMasterChef.sol\":26199:26216  massUpdatePools() */\n      jump\t// in\n    tag_315:\n        /* \"contracts/DDTMasterChef.sol\":26167:26228  if (_withUpdate) {... */\n    tag_314:\n        /* \"contracts/DDTMasterChef.sol\":26238:26261  uint256 lastRewardBlock */\n      0x00\n        /* \"contracts/DDTMasterChef.sol\":26279:26289  startBlock */\n      sload(0x09)\n        /* \"contracts/DDTMasterChef.sol\":26264:26276  block.number */\n      number\n        /* \"contracts/DDTMasterChef.sol\":26264:26289  block.number > startBlock */\n      gt\n        /* \"contracts/DDTMasterChef.sol\":26264:26317  block.number > startBlock ? block.number : startBlock */\n      tag_316\n      jumpi\n        /* \"contracts/DDTMasterChef.sol\":26307:26317  startBlock */\n      sload(0x09)\n        /* \"contracts/DDTMasterChef.sol\":26264:26317  block.number > startBlock ? block.number : startBlock */\n      jump(tag_317)\n    tag_316:\n        /* \"contracts/DDTMasterChef.sol\":26292:26304  block.number */\n      number\n        /* \"contracts/DDTMasterChef.sol\":26264:26317  block.number > startBlock ? block.number : startBlock */\n    tag_317:\n        /* \"contracts/DDTMasterChef.sol\":26238:26317  uint256 lastRewardBlock = block.number > startBlock ? block.number : startBlock */\n      swap1\n      pop\n        /* \"contracts/DDTMasterChef.sol\":26346:26378  totalAllocPoint.add(_allocPoint) */\n      tag_318\n        /* \"contracts/DDTMasterChef.sol\":26366:26377  _allocPoint */\n      dup9\n        /* \"contracts/DDTMasterChef.sol\":26346:26361  totalAllocPoint */\n      sload(0x08)\n        /* \"contracts/DDTMasterChef.sol\":26346:26365  totalAllocPoint.add */\n      tag_188\n      swap1\n        /* \"contracts/DDTMasterChef.sol\":26346:26378  totalAllocPoint.add(_allocPoint) */\n      swap2\n      swap1\n      0xffffffff\n      and\n      jump\t// in\n    tag_318:\n        /* \"contracts/DDTMasterChef.sol\":26328:26343  totalAllocPoint */\n      0x08\n        /* \"contracts/DDTMasterChef.sol\":26328:26378  totalAllocPoint = totalAllocPoint.add(_allocPoint) */\n      dup2\n      swap1\n      sstore\n      pop\n        /* \"contracts/DDTMasterChef.sol\":26389:26397  poolInfo */\n      0x06\n        /* \"contracts/DDTMasterChef.sol\":26417:26763  PoolInfo({... */\n      mload(0x40)\n      dup1\n      0x0100\n      add\n      0x40\n      mstore\n      dup1\n        /* \"contracts/DDTMasterChef.sol\":26454:26462  _lpToken */\n      dup10\n        /* \"contracts/DDTMasterChef.sol\":26417:26763  PoolInfo({... */\n      0xffffffffffffffffffffffffffffffffffffffff\n      and\n      dup2\n      mstore\n      0x20\n      add\n        /* \"contracts/DDTMasterChef.sol\":26493:26504  _allocPoint */\n      dup11\n        /* \"contracts/DDTMasterChef.sol\":26417:26763  PoolInfo({... */\n      dup2\n      mstore\n      0x20\n      add\n        /* \"contracts/DDTMasterChef.sol\":26540:26555  lastRewardBlock */\n      dup4\n        /* \"contracts/DDTMasterChef.sol\":26417:26763  PoolInfo({... */\n      dup2\n      mstore\n      0x20\n      add\n        /* \"contracts/DDTMasterChef.sol\":26590:26591  0 */\n      0x00\n        /* \"contracts/DDTMasterChef.sol\":26417:26763  PoolInfo({... */\n      dup2\n      mstore\n      0x20\n      add\n        /* \"contracts/DDTMasterChef.sol\":26626:26641  _poolMasterChef */\n      dup8\n        /* \"contracts/DDTMasterChef.sol\":26417:26763  PoolInfo({... */\n      0xffffffffffffffffffffffffffffffffffffffff\n      and\n      dup2\n      mstore\n      0x20\n      add\n        /* \"contracts/DDTMasterChef.sol\":26673:26685  _rewardToken */\n      dup7\n        /* \"contracts/DDTMasterChef.sol\":26417:26763  PoolInfo({... */\n      0xffffffffffffffffffffffffffffffffffffffff\n      and\n      dup2\n      mstore\n      0x20\n      add\n        /* \"contracts/DDTMasterChef.sol\":26709:26713  _fee */\n      dup6\n        /* \"contracts/DDTMasterChef.sol\":26417:26763  PoolInfo({... */\n      dup2\n      mstore\n      0x20\n      add\n        /* \"contracts/DDTMasterChef.sol\":26740:26747  _method */\n      dup5\n        /* \"contracts/DDTMasterChef.sol\":26417:26763  PoolInfo({... */\n      dup2\n      mstore\n      pop\n        /* \"contracts/DDTMasterChef.sol\":26389:26774  poolInfo.push(... */\n      swap1\n      dup1\n      0x01\n      dup2\n      sload\n      add\n      dup1\n      dup3\n      sstore\n      dup1\n      swap2\n      pop\n      pop\n      0x01\n      swap1\n      sub\n      swap1\n      0x00\n      mstore\n      keccak256(0x00, 0x20)\n      swap1\n      0x08\n      mul\n      add\n      0x00\n      swap1\n      swap2\n      swap1\n      swap2\n      swap1\n      swap2\n      pop\n      0x00\n      dup3\n      add\n      mload\n      dup2\n      0x00\n      add\n      exp(0x0100, 0x00)\n      dup2\n      sload\n      dup2\n      0xffffffffffffffffffffffffffffffffffffffff\n      mul\n      not\n      and\n      swap1\n      dup4\n      0xffffffffffffffffffffffffffffffffffffffff\n      and\n      mul\n      or\n      swap1\n      sstore\n      pop\n      0x20\n      dup3\n      add\n      mload\n      dup2\n      0x01\n      add\n      sstore\n      0x40\n      dup3\n      add\n      mload\n      dup2\n      0x02\n      add\n      sstore\n      0x60\n      dup3\n      add\n      mload\n      dup2\n      0x03\n      add\n      sstore\n      0x80\n      dup3\n      add\n      mload\n      dup2\n      0x04\n      add\n      exp(0x0100, 0x00)\n      dup2\n      sload\n      dup2\n      0xffffffffffffffffffffffffffffffffffffffff\n      mul\n      not\n      and\n      swap1\n      dup4\n      0xffffffffffffffffffffffffffffffffffffffff\n      and\n      mul\n      or\n      swap1\n      sstore\n      pop\n      0xa0\n      dup3\n      add\n      mload\n      dup2\n      0x05\n      add\n      exp(0x0100, 0x00)\n      dup2\n      sload\n      dup2\n      0xffffffffffffffffffffffffffffffffffffffff\n      mul\n      not\n      and\n      swap1\n      dup4\n      0xffffffffffffffffffffffffffffffffffffffff\n      and\n      mul\n      or\n      swap1\n      sstore\n      pop\n      0xc0\n      dup3\n      add\n      mload\n      dup2\n      0x06\n      add\n      sstore\n      0xe0\n      dup3\n      add\n      mload\n      dup2\n      0x07\n      add\n      sstore\n      pop\n      pop\n        /* \"contracts/DDTMasterChef.sol\":26156:26782  {... */\n      pop\n        /* \"contracts/DDTMasterChef.sol\":25988:26782  function add( uint256 _allocPoint, IERC20 _lpToken, bool _withUpdate, IMasterChef _poolMasterChef, IERC20 _rewardToken, uint256 _fee, uint256 _method) public onlyOwner {... */\n      pop\n      pop\n      pop\n      pop\n      pop\n      pop\n      pop\n      jump\t// out\n        /* \"contracts/DDTMasterChef.sol\":33008:33184  function emergencyWithdrawFromBSW(uint256 _pid) public onlyOwner {... */\n    tag_96:\n        /* \"contracts/DDTMasterChef.sol\":20336:20348  _msgSender() */\n      tag_321\n        /* \"contracts/DDTMasterChef.sol\":20336:20346  _msgSender */\n      tag_221\n        /* \"contracts/DDTMasterChef.sol\":20336:20348  _msgSender() */\n      jump\t// in\n    tag_321:\n        /* \"contracts/DDTMasterChef.sol\":20325:20348  owner() == _msgSender() */\n      0xffffffffffffffffffffffffffffffffffffffff\n      and\n        /* \"contracts/DDTMasterChef.sol\":20325:20332  owner() */\n      tag_322\n        /* \"contracts/DDTMasterChef.sol\":20325:20330  owner */\n      tag_111\n        /* \"contracts/DDTMasterChef.sol\":20325:20332  owner() */\n      jump\t// in\n    tag_322:\n        /* \"contracts/DDTMasterChef.sol\":20325:20348  owner() == _msgSender() */\n      0xffffffffffffffffffffffffffffffffffffffff\n      and\n      eq\n        /* \"contracts/DDTMasterChef.sol\":20317:20385  require(owner() == _msgSender(), \"Ownable: caller is not the owner\") */\n      tag_323\n      jumpi\n      mload(0x40)\n      0x08c379a000000000000000000000000000000000000000000000000000000000\n      dup2\n      mstore\n      0x04\n      add\n      tag_324\n      swap1\n      tag_225\n      jump\t// in\n    tag_324:\n      mload(0x40)\n      dup1\n      swap2\n      sub\n      swap1\n      revert\n    tag_323:\n        /* \"contracts/DDTMasterChef.sol\":33084:33105  PoolInfo storage pool */\n      0x00\n        /* \"contracts/DDTMasterChef.sol\":33108:33116  poolInfo */\n      0x06\n        /* \"contracts/DDTMasterChef.sol\":33117:33121  _pid */\n      dup3\n        /* \"contracts/DDTMasterChef.sol\":33108:33122  poolInfo[_pid] */\n      dup2\n      sload\n      dup2\n      lt\n      tag_326\n      jumpi\n      tag_327\n      tag_150\n      jump\t// in\n    tag_327:\n    tag_326:\n      swap1\n      0x00\n      mstore\n      keccak256(0x00, 0x20)\n      swap1\n      0x08\n      mul\n      add\n        /* \"contracts/DDTMasterChef.sol\":33084:33122  PoolInfo storage pool = poolInfo[_pid] */\n      swap1\n      pop\n        /* \"contracts/DDTMasterChef.sol\":33133:33137  pool */\n      dup1\n        /* \"contracts/DDTMasterChef.sol\":33133:33152  pool.poolMasterChef */\n      0x04\n      add\n      0x00\n      swap1\n      sload\n      swap1\n      0x0100\n      exp\n      swap1\n      div\n      0xffffffffffffffffffffffffffffffffffffffff\n      and\n        /* \"contracts/DDTMasterChef.sol\":33133:33170  pool.poolMasterChef.emergencyWithdraw */\n      0xffffffffffffffffffffffffffffffffffffffff\n      and\n      0x5312ea8e\n        /* \"contracts/DDTMasterChef.sol\":33171:33175  _pid */\n      dup4\n        /* \"contracts/DDTMasterChef.sol\":33133:33176  pool.poolMasterChef.emergencyWithdraw(_pid) */\n      mload(0x40)\n      dup3\n      0xffffffff\n      and\n      0xe0\n      shl\n      dup2\n      mstore\n      0x04\n      add\n      tag_329\n      swap2\n      swap1\n      tag_47\n      jump\t// in\n    tag_329:\n      0x00\n      mload(0x40)\n      dup1\n      dup4\n      sub\n      dup2\n      0x00\n      dup8\n      dup1\n      extcodesize\n      iszero\n      dup1\n      iszero\n      tag_330\n      jumpi\n      0x00\n      dup1\n      revert\n    tag_330:\n      pop\n      gas\n      call\n      iszero\n      dup1\n      iszero\n      tag_332\n      jumpi\n      returndatasize\n      0x00\n      dup1\n      returndatacopy\n      revert(0x00, returndatasize)\n    tag_332:\n      pop\n      pop\n      pop\n      pop\n        /* \"contracts/DDTMasterChef.sol\":33073:33184  {... */\n      pop\n        /* \"contracts/DDTMasterChef.sol\":33008:33184  function emergencyWithdrawFromBSW(uint256 _pid) public onlyOwner {... */\n      pop\n      jump\t// out\n        /* \"contracts/DDTMasterChef.sol\":24876:24923  mapping (uint256 => uint256) public poolBalance */\n    tag_99:\n      mstore(0x20, 0x0a)\n      dup1\n      0x00\n      mstore\n      keccak256(0x00, 0x40)\n      0x00\n      swap2\n      pop\n      swap1\n      pop\n      sload\n      dup2\n      jump\t// out\n        /* \"contracts/DDTMasterChef.sol\":20756:20859  function renounceOwnership() public virtual onlyOwner {... */\n    tag_102:\n        /* \"contracts/DDTMasterChef.sol\":20336:20348  _msgSender() */\n      tag_334\n        /* \"contracts/DDTMasterChef.sol\":20336:20346  _msgSender */\n      tag_221\n        /* \"contracts/DDTMasterChef.sol\":20336:20348  _msgSender() */\n      jump\t// in\n    tag_334:\n        /* \"contracts/DDTMasterChef.sol\":20325:20348  owner() == _msgSender() */\n      0xffffffffffffffffffffffffffffffffffffffff\n      and\n        /* \"contracts/DDTMasterChef.sol\":20325:20332  owner() */\n      tag_335\n        /* \"contracts/DDTMasterChef.sol\":20325:20330  owner */\n      tag_111\n        /* \"contracts/DDTMasterChef.sol\":20325:20332  owner() */\n      jump\t// in\n    tag_335:\n        /* \"contracts/DDTMasterChef.sol\":20325:20348  owner() == _msgSender() */\n      0xffffffffffffffffffffffffffffffffffffffff\n      and\n      eq\n        /* \"contracts/DDTMasterChef.sol\":20317:20385  require(owner() == _msgSender(), \"Ownable: caller is not the owner\") */\n      tag_336\n      jumpi\n      mload(0x40)\n      0x08c379a000000000000000000000000000000000000000000000000000000000\n      dup2\n      mstore\n      0x04\n      add\n      tag_337\n      swap1\n      tag_225\n      jump\t// in\n    tag_337:\n      mload(0x40)\n      dup1\n      swap2\n      sub\n      swap1\n      revert\n    tag_336:\n        /* \"contracts/DDTMasterChef.sol\":20821:20851  _transferOwnership(address(0)) */\n      tag_339\n        /* \"contracts/DDTMasterChef.sol\":20848:20849  0 */\n      0x00\n        /* \"contracts/DDTMasterChef.sol\":20821:20839  _transferOwnership */\n      tag_340\n        /* \"contracts/DDTMasterChef.sol\":20821:20851  _transferOwnership(address(0)) */\n      jump\t// in\n    tag_339:\n        /* \"contracts/DDTMasterChef.sol\":20756:20859  function renounceOwnership() public virtual onlyOwner {... */\n      jump\t// out\n        /* \"contracts/DDTMasterChef.sol\":24448:24477  IMigratorChef public migrator */\n    tag_104:\n      0x05\n      0x00\n      swap1\n      sload\n      swap1\n      0x0100\n      exp\n      swap1\n      div\n      0xffffffffffffffffffffffffffffffffffffffff\n      and\n      dup2\n      jump\t// out\n        /* \"contracts/DDTMasterChef.sol\":24308:24343  uint256 public BONUS_MULTIPLIER = 1 */\n    tag_108:\n      sload(0x04)\n      dup2\n      jump\t// out\n        /* \"contracts/DDTMasterChef.sol\":20105:20192  function owner() public view virtual returns (address) {... */\n    tag_111:\n        /* \"contracts/DDTMasterChef.sol\":20151:20158  address */\n      0x00\n        /* \"contracts/DDTMasterChef.sol\":20178:20184  _owner */\n      dup1\n      0x00\n      swap1\n      sload\n      swap1\n      0x0100\n      exp\n      swap1\n      div\n      0xffffffffffffffffffffffffffffffffffffffff\n      and\n        /* \"contracts/DDTMasterChef.sol\":20171:20184  return _owner */\n      swap1\n      pop\n        /* \"contracts/DDTMasterChef.sol\":20105:20192  function owner() public view virtual returns (address) {... */\n      swap1\n      jump\t// out\n        /* \"contracts/DDTMasterChef.sol\":28035:28179  function getMultiplier(uint256 _from, uint256 _to) public view returns (uint256) {... */\n    tag_117:\n        /* \"contracts/DDTMasterChef.sol\":28107:28114  uint256 */\n      0x00\n        /* \"contracts/DDTMasterChef.sol\":28135:28171  _to.sub(_from).mul(BONUS_MULTIPLIER) */\n      tag_343\n        /* \"contracts/DDTMasterChef.sol\":28154:28170  BONUS_MULTIPLIER */\n      sload(0x04)\n        /* \"contracts/DDTMasterChef.sol\":28135:28149  _to.sub(_from) */\n      tag_344\n        /* \"contracts/DDTMasterChef.sol\":28143:28148  _from */\n      dup6\n        /* \"contracts/DDTMasterChef.sol\":28135:28138  _to */\n      dup6\n        /* \"contracts/DDTMasterChef.sol\":28135:28142  _to.sub */\n      tag_159\n      swap1\n        /* \"contracts/DDTMasterChef.sol\":28135:28149  _to.sub(_from) */\n      swap2\n      swap1\n      0xffffffff\n      and\n      jump\t// in\n    tag_344:\n        /* \"contracts/DDTMasterChef.sol\":28135:28153  _to.sub(_from).mul */\n      tag_157\n      swap1\n        /* \"contracts/DDTMasterChef.sol\":28135:28171  _to.sub(_from).mul(BONUS_MULTIPLIER) */\n      swap2\n      swap1\n      0xffffffff\n      and\n      jump\t// in\n    tag_343:\n        /* \"contracts/DDTMasterChef.sol\":28128:28171  return _to.sub(_from).mul(BONUS_MULTIPLIER) */\n      swap1\n      pop\n        /* \"contracts/DDTMasterChef.sol\":28035:28179  function getMultiplier(uint256 _from, uint256 _to) public view returns (uint256) {... */\n      swap3\n      swap2\n      pop\n      pop\n      jump\t// out\n        /* \"contracts/DDTMasterChef.sol\":24593:24657  mapping(uint256 => mapping(address => UserInfo)) public userInfo */\n    tag_121:\n      mstore(0x20, 0x07)\n      dup2\n      0x00\n      mstore\n      mstore(0x20, keccak256(0x00, 0x40))\n      dup1\n      0x00\n      mstore\n      keccak256(0x00, 0x40)\n      0x00\n      swap2\n      pop\n      swap2\n      pop\n      pop\n      dup1\n      0x00\n      add\n      sload\n      swap1\n      dup1\n      0x01\n      add\n      sload\n      swap1\n      pop\n      dup3\n      jump\t// out\n        /* \"contracts/DDTMasterChef.sol\":31871:33000  function withdraw(uint256 _pid, uint256 _BSWPid, uint256 _amount) public {... */\n    tag_126:\n        /* \"contracts/DDTMasterChef.sol\":31957:31978  PoolInfo storage pool */\n      0x00\n        /* \"contracts/DDTMasterChef.sol\":31981:31989  poolInfo */\n      0x06\n        /* \"contracts/DDTMasterChef.sol\":31990:31994  _pid */\n      dup5\n        /* \"contracts/DDTMasterChef.sol\":31981:31995  poolInfo[_pid] */\n      dup2\n      sload\n      dup2\n      lt\n      tag_346\n      jumpi\n      tag_347\n      tag_150\n      jump\t// in\n    tag_347:\n    tag_346:\n      swap1\n      0x00\n      mstore\n      keccak256(0x00, 0x20)\n      swap1\n      0x08\n      mul\n      add\n        /* \"contracts/DDTMasterChef.sol\":31957:31995  PoolInfo storage pool = poolInfo[_pid] */\n      swap1\n      pop\n        /* \"contracts/DDTMasterChef.sol\":32006:32027  UserInfo storage user */\n      0x00\n        /* \"contracts/DDTMasterChef.sol\":32030:32038  userInfo */\n      0x07\n        /* \"contracts/DDTMasterChef.sol\":32030:32044  userInfo[_pid] */\n      0x00\n        /* \"contracts/DDTMasterChef.sol\":32039:32043  _pid */\n      dup7\n        /* \"contracts/DDTMasterChef.sol\":32030:32044  userInfo[_pid] */\n      dup2\n      mstore\n      0x20\n      add\n      swap1\n      dup2\n      mstore\n      0x20\n      add\n      0x00\n      keccak256\n        /* \"contracts/DDTMasterChef.sol\":32030:32056  userInfo[_pid][msg.sender] */\n      0x00\n        /* \"contracts/DDTMasterChef.sol\":32045:32055  msg.sender */\n      caller\n        /* \"contracts/DDTMasterChef.sol\":32030:32056  userInfo[_pid][msg.sender] */\n      0xffffffffffffffffffffffffffffffffffffffff\n      and\n      0xffffffffffffffffffffffffffffffffffffffff\n      and\n      dup2\n      mstore\n      0x20\n      add\n      swap1\n      dup2\n      mstore\n      0x20\n      add\n      0x00\n      keccak256\n        /* \"contracts/DDTMasterChef.sol\":32006:32056  UserInfo storage user = userInfo[_pid][msg.sender] */\n      swap1\n      pop\n        /* \"contracts/DDTMasterChef.sol\":32090:32097  _amount */\n      dup3\n        /* \"contracts/DDTMasterChef.sol\":32075:32079  user */\n      dup2\n        /* \"contracts/DDTMasterChef.sol\":32075:32086  user.amount */\n      0x00\n      add\n      sload\n        /* \"contracts/DDTMasterChef.sol\":32075:32097  user.amount >= _amount */\n      lt\n      iszero\n        /* \"contracts/DDTMasterChef.sol\":32067:32120  require(user.amount >= _amount, \"withdraw: not good\") */\n      tag_349\n      jumpi\n      mload(0x40)\n      0x08c379a000000000000000000000000000000000000000000000000000000000\n      dup2\n      mstore\n      0x04\n      add\n      tag_350\n      swap1\n      tag_351\n      jump\t// in\n    tag_350:\n      mload(0x40)\n      dup1\n      swap2\n      sub\n      swap1\n      revert\n    tag_349:\n        /* \"contracts/DDTMasterChef.sol\":32131:32147  updatePool(_pid) */\n      tag_352\n        /* \"contracts/DDTMasterChef.sol\":32142:32146  _pid */\n      dup6\n        /* \"contracts/DDTMasterChef.sol\":32131:32141  updatePool */\n      tag_74\n        /* \"contracts/DDTMasterChef.sol\":32131:32147  updatePool(_pid) */\n      jump\t// in\n    tag_352:\n        /* \"contracts/DDTMasterChef.sol\":32158:32173  uint256 pending */\n      0x00\n        /* \"contracts/DDTMasterChef.sol\":32176:32243  user.amount.mul(pool.accDDTPerShare).div(1e12).sub(user.rewardDebt) */\n      tag_353\n        /* \"contracts/DDTMasterChef.sol\":32227:32231  user */\n      dup3\n        /* \"contracts/DDTMasterChef.sol\":32227:32242  user.rewardDebt */\n      0x01\n      add\n      sload\n        /* \"contracts/DDTMasterChef.sol\":32176:32222  user.amount.mul(pool.accDDTPerShare).div(1e12) */\n      tag_354\n        /* \"contracts/DDTMasterChef.sol\":32217:32221  1e12 */\n      0xe8d4a51000\n        /* \"contracts/DDTMasterChef.sol\":32176:32212  user.amount.mul(pool.accDDTPerShare) */\n      tag_355\n        /* \"contracts/DDTMasterChef.sol\":32192:32196  pool */\n      dup8\n        /* \"contracts/DDTMasterChef.sol\":32192:32211  pool.accDDTPerShare */\n      0x03\n      add\n      sload\n        /* \"contracts/DDTMasterChef.sol\":32176:32180  user */\n      dup8\n        /* \"contracts/DDTMasterChef.sol\":32176:32187  user.amount */\n      0x00\n      add\n      sload\n        /* \"contracts/DDTMasterChef.sol\":32176:32191  user.amount.mul */\n      tag_157\n      swap1\n        /* \"contracts/DDTMasterChef.sol\":32176:32212  user.amount.mul(pool.accDDTPerShare) */\n      swap2\n      swap1\n      0xffffffff\n      and\n      jump\t// in\n    tag_355:\n        /* \"contracts/DDTMasterChef.sol\":32176:32216  user.amount.mul(pool.accDDTPerShare).div */\n      tag_158\n      swap1\n        /* \"contracts/DDTMasterChef.sol\":32176:32222  user.amount.mul(pool.accDDTPerShare).div(1e12) */\n      swap2\n      swap1\n      0xffffffff\n      and\n      jump\t// in\n    tag_354:\n        /* \"contracts/DDTMasterChef.sol\":32176:32226  user.amount.mul(pool.accDDTPerShare).div(1e12).sub */\n      tag_159\n      swap1\n        /* \"contracts/DDTMasterChef.sol\":32176:32243  user.amount.mul(pool.accDDTPerShare).div(1e12).sub(user.rewardDebt) */\n      swap2\n      swap1\n      0xffffffff\n      and\n      jump\t// in\n    tag_353:\n        /* \"contracts/DDTMasterChef.sol\":32158:32243  uint256 pending = user.amount.mul(pool.accDDTPerShare).div(1e12).sub(user.rewardDebt) */\n      swap1\n      pop\n        /* \"contracts/DDTMasterChef.sol\":32267:32268  0 */\n      0x00\n        /* \"contracts/DDTMasterChef.sol\":32257:32264  pending */\n      dup2\n        /* \"contracts/DDTMasterChef.sol\":32257:32268  pending > 0 */\n      gt\n        /* \"contracts/DDTMasterChef.sol\":32254:32341  if(pending > 0){... */\n      iszero\n      tag_356\n      jumpi\n        /* \"contracts/DDTMasterChef.sol\":32284:32329  safeDDTTransfer(address(msg.sender), pending) */\n      tag_357\n        /* \"contracts/DDTMasterChef.sol\":32308:32318  msg.sender */\n      caller\n        /* \"contracts/DDTMasterChef.sol\":32321:32328  pending */\n      dup3\n        /* \"contracts/DDTMasterChef.sol\":32284:32299  safeDDTTransfer */\n      tag_162\n        /* \"contracts/DDTMasterChef.sol\":32284:32329  safeDDTTransfer(address(msg.sender), pending) */\n      jump\t// in\n    tag_357:\n        /* \"contracts/DDTMasterChef.sol\":32254:32341  if(pending > 0){... */\n    tag_356:\n        /* \"contracts/DDTMasterChef.sol\":32365:32389  user.amount.sub(_amount) */\n      tag_358\n        /* \"contracts/DDTMasterChef.sol\":32381:32388  _amount */\n      dup5\n        /* \"contracts/DDTMasterChef.sol\":32365:32369  user */\n      dup4\n        /* \"contracts/DDTMasterChef.sol\":32365:32376  user.amount */\n      0x00\n      add\n      sload\n        /* \"contracts/DDTMasterChef.sol\":32365:32380  user.amount.sub */\n      tag_159\n      swap1\n        /* \"contracts/DDTMasterChef.sol\":32365:32389  user.amount.sub(_amount) */\n      swap2\n      swap1\n      0xffffffff\n      and\n      jump\t// in\n    tag_358:\n        /* \"contracts/DDTMasterChef.sol\":32351:32355  user */\n      dup3\n        /* \"contracts/DDTMasterChef.sol\":32351:32362  user.amount */\n      0x00\n      add\n        /* \"contracts/DDTMasterChef.sol\":32351:32389  user.amount = user.amount.sub(_amount) */\n      dup2\n      swap1\n      sstore\n      pop\n        /* \"contracts/DDTMasterChef.sol\":32420:32450  poolBalance[_pid].sub(_amount) */\n      tag_359\n        /* \"contracts/DDTMasterChef.sol\":32442:32449  _amount */\n      dup5\n        /* \"contracts/DDTMasterChef.sol\":32420:32431  poolBalance */\n      0x0a\n        /* \"contracts/DDTMasterChef.sol\":32420:32437  poolBalance[_pid] */\n      0x00\n        /* \"contracts/DDTMasterChef.sol\":32432:32436  _pid */\n      dup10\n        /* \"contracts/DDTMasterChef.sol\":32420:32437  poolBalance[_pid] */\n      dup2\n      mstore\n      0x20\n      add\n      swap1\n      dup2\n      mstore\n      0x20\n      add\n      0x00\n      keccak256\n      sload\n        /* \"contracts/DDTMasterChef.sol\":32420:32441  poolBalance[_pid].sub */\n      tag_159\n      swap1\n        /* \"contracts/DDTMasterChef.sol\":32420:32450  poolBalance[_pid].sub(_amount) */\n      swap2\n      swap1\n      0xffffffff\n      and\n      jump\t// in\n    tag_359:\n        /* \"contracts/DDTMasterChef.sol\":32400:32411  poolBalance */\n      0x0a\n        /* \"contracts/DDTMasterChef.sol\":32400:32417  poolBalance[_pid] */\n      0x00\n        /* \"contracts/DDTMasterChef.sol\":32412:32416  _pid */\n      dup9\n        /* \"contracts/DDTMasterChef.sol\":32400:32417  poolBalance[_pid] */\n      dup2\n      mstore\n      0x20\n      add\n      swap1\n      dup2\n      mstore\n      0x20\n      add\n      0x00\n      keccak256\n        /* \"contracts/DDTMasterChef.sol\":32400:32450  poolBalance[_pid] = poolBalance[_pid].sub(_amount) */\n      dup2\n      swap1\n      sstore\n      pop\n        /* \"contracts/DDTMasterChef.sol\":32479:32525  user.amount.mul(pool.accDDTPerShare).div(1e12) */\n      tag_360\n        /* \"contracts/DDTMasterChef.sol\":32520:32524  1e12 */\n      0xe8d4a51000\n        /* \"contracts/DDTMasterChef.sol\":32479:32515  user.amount.mul(pool.accDDTPerShare) */\n      tag_361\n        /* \"contracts/DDTMasterChef.sol\":32495:32499  pool */\n      dup6\n        /* \"contracts/DDTMasterChef.sol\":32495:32514  pool.accDDTPerShare */\n      0x03\n      add\n      sload\n        /* \"contracts/DDTMasterChef.sol\":32479:32483  user */\n      dup6\n        /* \"contracts/DDTMasterChef.sol\":32479:32490  user.amount */\n      0x00\n      add\n      sload\n        /* \"contracts/DDTMasterChef.sol\":32479:32494  user.amount.mul */\n      tag_157\n      swap1\n        /* \"contracts/DDTMasterChef.sol\":32479:32515  user.amount.mul(pool.accDDTPerShare) */\n      swap2\n      swap1\n      0xffffffff\n      and\n      jump\t// in\n    tag_361:\n        /* \"contracts/DDTMasterChef.sol\":32479:32519  user.amount.mul(pool.accDDTPerShare).div */\n      tag_158\n      swap1\n        /* \"contracts/DDTMasterChef.sol\":32479:32525  user.amount.mul(pool.accDDTPerShare).div(1e12) */\n      swap2\n      swap1\n      0xffffffff\n      and\n      jump\t// in\n    tag_360:\n        /* \"contracts/DDTMasterChef.sol\":32461:32465  user */\n      dup3\n        /* \"contracts/DDTMasterChef.sol\":32461:32476  user.rewardDebt */\n      0x01\n      add\n        /* \"contracts/DDTMasterChef.sol\":32461:32525  user.rewardDebt = user.amount.mul(pool.accDDTPerShare).div(1e12) */\n      dup2\n      swap1\n      sstore\n      pop\n        /* \"contracts/DDTMasterChef.sol\":32554:32555  0 */\n      0x00\n        /* \"contracts/DDTMasterChef.sol\":32539:32543  pool */\n      dup4\n        /* \"contracts/DDTMasterChef.sol\":32539:32550  pool.method */\n      0x07\n      add\n      sload\n        /* \"contracts/DDTMasterChef.sol\":32539:32555  pool.method == 0 */\n      sub\n        /* \"contracts/DDTMasterChef.sol\":32536:32701  if(pool.method == 0){... */\n      tag_362\n      jumpi\n        /* \"contracts/DDTMasterChef.sol\":32571:32575  pool */\n      dup3\n        /* \"contracts/DDTMasterChef.sol\":32571:32590  pool.poolMasterChef */\n      0x04\n      add\n      0x00\n      swap1\n      sload\n      swap1\n      0x0100\n      exp\n      swap1\n      div\n      0xffffffffffffffffffffffffffffffffffffffff\n      and\n        /* \"contracts/DDTMasterChef.sol\":32571:32603  pool.poolMasterChef.leaveStaking */\n      0xffffffffffffffffffffffffffffffffffffffff\n      and\n      0x1058d281\n        /* \"contracts/DDTMasterChef.sol\":32604:32611  _amount */\n      dup6\n        /* \"contracts/DDTMasterChef.sol\":32571:32612  pool.poolMasterChef.leaveStaking(_amount) */\n      mload(0x40)\n      dup3\n      0xffffffff\n      and\n      0xe0\n      shl\n      dup2\n      mstore\n      0x04\n      add\n      tag_363\n      swap2\n      swap1\n      tag_47\n      jump\t// in\n    tag_363:\n      0x00\n      mload(0x40)\n      dup1\n      dup4\n      sub\n      dup2\n      0x00\n      dup8\n      dup1\n      extcodesize\n      iszero\n      dup1\n      iszero\n      tag_364\n      jumpi\n      0x00\n      dup1\n      revert\n    tag_364:\n      pop\n      gas\n      call\n      iszero\n      dup1\n      iszero\n      tag_366\n      jumpi\n      returndatasize\n      0x00\n      dup1\n      returndatacopy\n      revert(0x00, returndatasize)\n    tag_366:\n      pop\n      pop\n      pop\n      pop\n        /* \"contracts/DDTMasterChef.sol\":32536:32701  if(pool.method == 0){... */\n      jump(tag_367)\n    tag_362:\n        /* \"contracts/DDTMasterChef.sol\":32643:32647  pool */\n      dup3\n        /* \"contracts/DDTMasterChef.sol\":32643:32662  pool.poolMasterChef */\n      0x04\n      add\n      0x00\n      swap1\n      sload\n      swap1\n      0x0100\n      exp\n      swap1\n      div\n      0xffffffffffffffffffffffffffffffffffffffff\n      and\n        /* \"contracts/DDTMasterChef.sol\":32643:32671  pool.poolMasterChef.withdraw */\n      0xffffffffffffffffffffffffffffffffffffffff\n      and\n      0x441a3e70\n        /* \"contracts/DDTMasterChef.sol\":32672:32679  _BSWPid */\n      dup7\n        /* \"contracts/DDTMasterChef.sol\":32681:32688  _amount */\n      dup7\n        /* \"contracts/DDTMasterChef.sol\":32643:32689  pool.poolMasterChef.withdraw(_BSWPid, _amount) */\n      mload(0x40)\n      dup4\n      0xffffffff\n      and\n      0xe0\n      shl\n      dup2\n      mstore\n      0x04\n      add\n      tag_368\n      swap3\n      swap2\n      swap1\n      tag_123\n      jump\t// in\n    tag_368:\n      0x00\n      mload(0x40)\n      dup1\n      dup4\n      sub\n      dup2\n      0x00\n      dup8\n      dup1\n      extcodesize\n      iszero\n      dup1\n      iszero\n      tag_369\n      jumpi\n      0x00\n      dup1\n      revert\n    tag_369:\n      pop\n      gas\n      call\n      iszero\n      dup1\n      iszero\n      tag_371\n      jumpi\n      returndatasize\n      0x00\n      dup1\n      returndatacopy\n      revert(0x00, returndatasize)\n    tag_371:\n      pop\n      pop\n      pop\n      pop\n        /* \"contracts/DDTMasterChef.sol\":32536:32701  if(pool.method == 0){... */\n    tag_367:\n        /* \"contracts/DDTMasterChef.sol\":32711:32766  pool.lpToken.safeTransfer(address(msg.sender), _amount) */\n      tag_372\n        /* \"contracts/DDTMasterChef.sol\":32745:32755  msg.sender */\n      caller\n        /* \"contracts/DDTMasterChef.sol\":32758:32765  _amount */\n      dup6\n        /* \"contracts/DDTMasterChef.sol\":32711:32715  pool */\n      dup6\n        /* \"contracts/DDTMasterChef.sol\":32711:32723  pool.lpToken */\n      0x00\n      add\n      0x00\n      swap1\n      sload\n      swap1\n      0x0100\n      exp\n      swap1\n      div\n      0xffffffffffffffffffffffffffffffffffffffff\n      and\n        /* \"contracts/DDTMasterChef.sol\":32711:32736  pool.lpToken.safeTransfer */\n      0xffffffffffffffffffffffffffffffffffffffff\n      and\n      tag_198\n      swap1\n        /* \"contracts/DDTMasterChef.sol\":32711:32766  pool.lpToken.safeTransfer(address(msg.sender), _amount) */\n      swap3\n      swap2\n      swap1\n      0xffffffff\n      and\n      jump\t// in\n    tag_372:\n        /* \"contracts/DDTMasterChef.sol\":32777:32791  uint256 reward */\n      0x00\n        /* \"contracts/DDTMasterChef.sol\":32794:32798  pool */\n      dup4\n        /* \"contracts/DDTMasterChef.sol\":32794:32810  pool.rewardToken */\n      0x05\n      add\n      0x00\n      swap1\n      sload\n      swap1\n      0x0100\n      exp\n      swap1\n      div\n      0xffffffffffffffffffffffffffffffffffffffff\n      and\n        /* \"contracts/DDTMasterChef.sol\":32794:32820  pool.rewardToken.balanceOf */\n      0xffffffffffffffffffffffffffffffffffffffff\n      and\n      0x70a08231\n        /* \"contracts/DDTMasterChef.sol\":32829:32833  this */\n      address\n        /* \"contracts/DDTMasterChef.sol\":32794:32835  pool.rewardToken.balanceOf(address(this)) */\n      mload(0x40)\n      dup3\n      0xffffffff\n      and\n      0xe0\n      shl\n      dup2\n      mstore\n      0x04\n      add\n      tag_373\n      swap2\n      swap1\n      tag_113\n      jump\t// in\n    tag_373:\n      0x20\n      mload(0x40)\n      dup1\n      dup4\n      sub\n      dup2\n      dup7\n      gas\n      staticcall\n      iszero\n      dup1\n      iszero\n      tag_375\n      jumpi\n      returndatasize\n      0x00\n      dup1\n      returndatacopy\n      revert(0x00, returndatasize)\n    tag_375:\n      pop\n      pop\n      pop\n      pop\n      mload(0x40)\n      returndatasize\n      not(0x1f)\n      0x1f\n      dup3\n      add\n      and\n      dup3\n      add\n      dup1\n      0x40\n      mstore\n      pop\n      dup2\n      add\n      swap1\n      tag_376\n      swap2\n      swap1\n      tag_168\n      jump\t// in\n    tag_376:\n        /* \"contracts/DDTMasterChef.sol\":32777:32835  uint256 reward = pool.rewardToken.balanceOf(address(this)) */\n      swap1\n      pop\n        /* \"contracts/DDTMasterChef.sol\":32858:32859  0 */\n      0x00\n        /* \"contracts/DDTMasterChef.sol\":32849:32855  reward */\n      dup2\n        /* \"contracts/DDTMasterChef.sol\":32849:32859  reward > 0 */\n      gt\n        /* \"contracts/DDTMasterChef.sol\":32846:32942  if(reward > 0){... */\n      iszero\n      tag_377\n      jumpi\n        /* \"contracts/DDTMasterChef.sol\":32875:32930  pool.rewardToken.safeTransfer(address(devaddr), reward) */\n      tag_378\n        /* \"contracts/DDTMasterChef.sol\":32913:32920  devaddr */\n      0x02\n      0x00\n      swap1\n      sload\n      swap1\n      0x0100\n      exp\n      swap1\n      div\n      0xffffffffffffffffffffffffffffffffffffffff\n      and\n        /* \"contracts/DDTMasterChef.sol\":32923:32929  reward */\n      dup3\n        /* \"contracts/DDTMasterChef.sol\":32875:32879  pool */\n      dup7\n        /* \"contracts/DDTMasterChef.sol\":32875:32891  pool.rewardToken */\n      0x05\n      add\n      0x00\n      swap1\n      sload\n      swap1\n      0x0100\n      exp\n      swap1\n      div\n      0xffffffffffffffffffffffffffffffffffffffff\n      and\n        /* \"contracts/DDTMasterChef.sol\":32875:32904  pool.rewardToken.safeTransfer */\n      0xffffffffffffffffffffffffffffffffffffffff\n      and\n      tag_198\n      swap1\n        /* \"contracts/DDTMasterChef.sol\":32875:32930  pool.rewardToken.safeTransfer(address(devaddr), reward) */\n      swap3\n      swap2\n      swap1\n      0xffffffff\n      and\n      jump\t// in\n    tag_378:\n        /* \"contracts/DDTMasterChef.sol\":32846:32942  if(reward > 0){... */\n    tag_377:\n        /* \"contracts/DDTMasterChef.sol\":32978:32982  _pid */\n      dup7\n        /* \"contracts/DDTMasterChef.sol\":32966:32976  msg.sender */\n      caller\n        /* \"contracts/DDTMasterChef.sol\":32957:32992  Withdraw(msg.sender, _pid, _amount) */\n      0xffffffffffffffffffffffffffffffffffffffff\n      and\n      0xf279e6a1f5e320cca91135676d9cb6e44ca8a08c0b88342bcdb1144f6511b568\n        /* \"contracts/DDTMasterChef.sol\":32984:32991  _amount */\n      dup8\n        /* \"contracts/DDTMasterChef.sol\":32957:32992  Withdraw(msg.sender, _pid, _amount) */\n      mload(0x40)\n      tag_379\n      swap2\n      swap1\n      tag_47\n      jump\t// in\n    tag_379:\n      mload(0x40)\n      dup1\n      swap2\n      sub\n      swap1\n      log3\n        /* \"contracts/DDTMasterChef.sol\":31944:33000  {... */\n      pop\n      pop\n      pop\n      pop\n        /* \"contracts/DDTMasterChef.sol\":31871:33000  function withdraw(uint256 _pid, uint256 _BSWPid, uint256 _amount) public {... */\n      pop\n      pop\n      pop\n      jump\t// out\n        /* \"contracts/DDTMasterChef.sol\":24117:24134  IERC20 public DDT */\n    tag_128:\n      0x01\n      0x00\n      swap1\n      sload\n      swap1\n      0x0100\n      exp\n      swap1\n      div\n      0xffffffffffffffffffffffffffffffffffffffff\n      and\n      dup2\n      jump\t// out\n        /* \"contracts/DDTMasterChef.sol\":34008:34103  function setDevAddress(address _devaddr) public onlyOwner {... */\n    tag_134:\n        /* \"contracts/DDTMasterChef.sol\":20336:20348  _msgSender() */\n      tag_381\n        /* \"contracts/DDTMasterChef.sol\":20336:20346  _msgSender */\n      tag_221\n        /* \"contracts/DDTMasterChef.sol\":20336:20348  _msgSender() */\n      jump\t// in\n    tag_381:\n        /* \"contracts/DDTMasterChef.sol\":20325:20348  owner() == _msgSender() */\n      0xffffffffffffffffffffffffffffffffffffffff\n      and\n        /* \"contracts/DDTMasterChef.sol\":20325:20332  owner() */\n      tag_382\n        /* \"contracts/DDTMasterChef.sol\":20325:20330  owner */\n      tag_111\n        /* \"contracts/DDTMasterChef.sol\":20325:20332  owner() */\n      jump\t// in\n    tag_382:\n        /* \"contracts/DDTMasterChef.sol\":20325:20348  owner() == _msgSender() */\n      0xffffffffffffffffffffffffffffffffffffffff\n      and\n      eq\n        /* \"contracts/DDTMasterChef.sol\":20317:20385  require(owner() == _msgSender(), \"Ownable: caller is not the owner\") */\n      tag_383\n      jumpi\n      mload(0x40)\n      0x08c379a000000000000000000000000000000000000000000000000000000000\n      dup2\n      mstore\n      0x04\n      add\n      tag_384\n      swap1\n      tag_225\n      jump\t// in\n    tag_384:\n      mload(0x40)\n      dup1\n      swap2\n      sub\n      swap1\n      revert\n    tag_383:\n        /* \"contracts/DDTMasterChef.sol\":34087:34095  _devaddr */\n      dup1\n        /* \"contracts/DDTMasterChef.sol\":34077:34084  devaddr */\n      0x02\n      0x00\n        /* \"contracts/DDTMasterChef.sol\":34077:34095  devaddr = _devaddr */\n      0x0100\n      exp\n      dup2\n      sload\n      dup2\n      0xffffffffffffffffffffffffffffffffffffffff\n      mul\n      not\n      and\n      swap1\n      dup4\n      0xffffffffffffffffffffffffffffffffffffffff\n      and\n      mul\n      or\n      swap1\n      sstore\n      pop\n        /* \"contracts/DDTMasterChef.sol\":34008:34103  function setDevAddress(address _devaddr) public onlyOwner {... */\n      pop\n      jump\t// out\n        /* \"contracts/DDTMasterChef.sol\":24162:24184  address public devaddr */\n    tag_136:\n      0x02\n      0x00\n      swap1\n      sload\n      swap1\n      0x0100\n      exp\n      swap1\n      div\n      0xffffffffffffffffffffffffffffffffffffffff\n      and\n      dup2\n      jump\t// out\n        /* \"contracts/DDTMasterChef.sol\":30023:30261  function enablePool(uint256 _pid) public {... */\n    tag_140:\n        /* \"contracts/DDTMasterChef.sol\":30075:30096  PoolInfo storage pool */\n      0x00\n        /* \"contracts/DDTMasterChef.sol\":30099:30107  poolInfo */\n      0x06\n        /* \"contracts/DDTMasterChef.sol\":30108:30112  _pid */\n      dup3\n        /* \"contracts/DDTMasterChef.sol\":30099:30113  poolInfo[_pid] */\n      dup2\n      sload\n      dup2\n      lt\n      tag_387\n      jumpi\n      tag_388\n      tag_150\n      jump\t// in\n    tag_388:\n    tag_387:\n      swap1\n      0x00\n      mstore\n      keccak256(0x00, 0x20)\n      swap1\n      0x08\n      mul\n      add\n        /* \"contracts/DDTMasterChef.sol\":30075:30113  PoolInfo storage pool = poolInfo[_pid] */\n      swap1\n      pop\n        /* \"contracts/DDTMasterChef.sol\":30124:30128  pool */\n      dup1\n        /* \"contracts/DDTMasterChef.sol\":30124:30136  pool.lpToken */\n      0x00\n      add\n      0x00\n      swap1\n      sload\n      swap1\n      0x0100\n      exp\n      swap1\n      div\n      0xffffffffffffffffffffffffffffffffffffffff\n      and\n        /* \"contracts/DDTMasterChef.sol\":30124:30144  pool.lpToken.approve */\n      0xffffffffffffffffffffffffffffffffffffffff\n      and\n      0x095ea7b3\n        /* \"contracts/DDTMasterChef.sol\":30153:30157  pool */\n      dup3\n        /* \"contracts/DDTMasterChef.sol\":30153:30172  pool.poolMasterChef */\n      0x04\n      add\n      0x00\n      swap1\n      sload\n      swap1\n      0x0100\n      exp\n      swap1\n      div\n      0xffffffffffffffffffffffffffffffffffffffff\n      and\n        /* \"contracts/DDTMasterChef.sol\":30174:30187  approveAmount */\n      sload(0x0b)\n        /* \"contracts/DDTMasterChef.sol\":30124:30188  pool.lpToken.approve(address(pool.poolMasterChef),approveAmount) */\n      mload(0x40)\n      dup4\n      0xffffffff\n      and\n      0xe0\n      shl\n      dup2\n      mstore\n      0x04\n      add\n      tag_390\n      swap3\n      swap2\n      swap1\n      tag_259\n      jump\t// in\n    tag_390:\n      0x20\n      mload(0x40)\n      dup1\n      dup4\n      sub\n      dup2\n      0x00\n      dup8\n      gas\n      call\n      iszero\n      dup1\n      iszero\n      tag_392\n      jumpi\n      returndatasize\n      0x00\n      dup1\n      returndatacopy\n      revert(0x00, returndatasize)\n    tag_392:\n      pop\n      pop\n      pop\n      pop\n      mload(0x40)\n      returndatasize\n      not(0x1f)\n      0x1f\n      dup3\n      add\n      and\n      dup3\n      add\n      dup1\n      0x40\n      mstore\n      pop\n      dup2\n      add\n      swap1\n      tag_393\n      swap2\n      swap1\n      tag_263\n      jump\t// in\n    tag_393:\n      pop\n        /* \"contracts/DDTMasterChef.sol\":30199:30203  pool */\n      dup1\n        /* \"contracts/DDTMasterChef.sol\":30199:30215  pool.rewardToken */\n      0x05\n      add\n      0x00\n      swap1\n      sload\n      swap1\n      0x0100\n      exp\n      swap1\n      div\n      0xffffffffffffffffffffffffffffffffffffffff\n      and\n        /* \"contracts/DDTMasterChef.sol\":30199:30223  pool.rewardToken.approve */\n      0xffffffffffffffffffffffffffffffffffffffff\n      and\n      0x095ea7b3\n        /* \"contracts/DDTMasterChef.sol\":30232:30236  this */\n      address\n        /* \"contracts/DDTMasterChef.sol\":30239:30252  approveAmount */\n      sload(0x0b)\n        /* \"contracts/DDTMasterChef.sol\":30199:30253  pool.rewardToken.approve(address(this), approveAmount) */\n      mload(0x40)\n      dup4\n      0xffffffff\n      and\n      0xe0\n      shl\n      dup2\n      mstore\n      0x04\n      add\n      tag_394\n      swap3\n      swap2\n      swap1\n      tag_259\n      jump\t// in\n    tag_394:\n      0x20\n      mload(0x40)\n      dup1\n      dup4\n      sub\n      dup2\n      0x00\n      dup8\n      gas\n      call\n      iszero\n      dup1\n      iszero\n      tag_396\n      jumpi\n      returndatasize\n      0x00\n      dup1\n      returndatacopy\n      revert(0x00, returndatasize)\n    tag_396:\n      pop\n      pop\n      pop\n      pop\n      mload(0x40)\n      returndatasize\n      not(0x1f)\n      0x1f\n      dup3\n      add\n      and\n      dup3\n      add\n      dup1\n      0x40\n      mstore\n      pop\n      dup2\n      add\n      swap1\n      tag_397\n      swap2\n      swap1\n      tag_263\n      jump\t// in\n    tag_397:\n      pop\n        /* \"contracts/DDTMasterChef.sol\":30064:30261  {... */\n      pop\n        /* \"contracts/DDTMasterChef.sol\":30023:30261  function enablePool(uint256 _pid) public {... */\n      pop\n      jump\t// out\n        /* \"contracts/DDTMasterChef.sol\":21014:21215  function transferOwnership(address newOwner) public virtual onlyOwner {... */\n    tag_143:\n        /* \"contracts/DDTMasterChef.sol\":20336:20348  _msgSender() */\n      tag_399\n        /* \"contracts/DDTMasterChef.sol\":20336:20346  _msgSender */\n      tag_221\n        /* \"contracts/DDTMasterChef.sol\":20336:20348  _msgSender() */\n      jump\t// in\n    tag_399:\n        /* \"contracts/DDTMasterChef.sol\":20325:20348  owner() == _msgSender() */\n      0xffffffffffffffffffffffffffffffffffffffff\n      and\n        /* \"contracts/DDTMasterChef.sol\":20325:20332  owner() */\n      tag_400\n        /* \"contracts/DDTMasterChef.sol\":20325:20330  owner */\n      tag_111\n        /* \"contracts/DDTMasterChef.sol\":20325:20332  owner() */\n      jump\t// in\n    tag_400:\n        /* \"contracts/DDTMasterChef.sol\":20325:20348  owner() == _msgSender() */\n      0xffffffffffffffffffffffffffffffffffffffff\n      and\n      eq\n        /* \"contracts/DDTMasterChef.sol\":20317:20385  require(owner() == _msgSender(), \"Ownable: caller is not the owner\") */\n      tag_401\n      jumpi\n      mload(0x40)\n      0x08c379a000000000000000000000000000000000000000000000000000000000\n      dup2\n      mstore\n      0x04\n      add\n      tag_402\n      swap1\n      tag_225\n      jump\t// in\n    tag_402:\n      mload(0x40)\n      dup1\n      swap2\n      sub\n      swap1\n      revert\n    tag_401:\n        /* \"contracts/DDTMasterChef.sol\":21123:21124  0 */\n      0x00\n        /* \"contracts/DDTMasterChef.sol\":21103:21125  newOwner != address(0) */\n      0xffffffffffffffffffffffffffffffffffffffff\n      and\n        /* \"contracts/DDTMasterChef.sol\":21103:21111  newOwner */\n      dup2\n        /* \"contracts/DDTMasterChef.sol\":21103:21125  newOwner != address(0) */\n      0xffffffffffffffffffffffffffffffffffffffff\n      and\n      sub\n        /* \"contracts/DDTMasterChef.sol\":21095:21168  require(newOwner != address(0), \"Ownable: new owner is the zero address\") */\n      tag_404\n      jumpi\n      mload(0x40)\n      0x08c379a000000000000000000000000000000000000000000000000000000000\n      dup2\n      mstore\n      0x04\n      add\n      tag_405\n      swap1\n      tag_406\n      jump\t// in\n    tag_405:\n      mload(0x40)\n      dup1\n      swap2\n      sub\n      swap1\n      revert\n    tag_404:\n        /* \"contracts/DDTMasterChef.sol\":21179:21207  _transferOwnership(newOwner) */\n      tag_407\n        /* \"contracts/DDTMasterChef.sol\":21198:21206  newOwner */\n      dup2\n        /* \"contracts/DDTMasterChef.sol\":21179:21197  _transferOwnership */\n      tag_340\n        /* \"contracts/DDTMasterChef.sol\":21179:21207  _transferOwnership(newOwner) */\n      jump\t// in\n    tag_407:\n        /* \"contracts/DDTMasterChef.sol\":21014:21215  function transferOwnership(address newOwner) public virtual onlyOwner {... */\n      pop\n      jump\t// out\n        /* \"contracts/DDTMasterChef.sol\":24229:24255  uint256 public DDTPerBlock */\n    tag_145:\n      sload(0x03)\n      dup2\n      jump\t// out\n        /* \"contracts/DDTMasterChef.sol\":1757:2228  function mul(uint256 a, uint256 b) internal pure returns (uint256) {... */\n    tag_157:\n        /* \"contracts/DDTMasterChef.sol\":1815:1822  uint256 */\n      0x00\n        /* \"contracts/DDTMasterChef.sol\":2065:2066  0 */\n      dup1\n        /* \"contracts/DDTMasterChef.sol\":2060:2061  a */\n      dup4\n        /* \"contracts/DDTMasterChef.sol\":2060:2066  a == 0 */\n      sub\n        /* \"contracts/DDTMasterChef.sol\":2056:2103  if (a == 0) {... */\n      tag_409\n      jumpi\n        /* \"contracts/DDTMasterChef.sol\":2090:2091  0 */\n      0x00\n        /* \"contracts/DDTMasterChef.sol\":2083:2091  return 0 */\n      swap1\n      pop\n      jump(tag_408)\n        /* \"contracts/DDTMasterChef.sol\":2056:2103  if (a == 0) {... */\n    tag_409:\n        /* \"contracts/DDTMasterChef.sol\":2115:2124  uint256 c */\n      0x00\n        /* \"contracts/DDTMasterChef.sol\":2131:2132  b */\n      dup3\n        /* \"contracts/DDTMasterChef.sol\":2127:2128  a */\n      dup5\n        /* \"contracts/DDTMasterChef.sol\":2127:2132  a * b */\n      tag_410\n      swap2\n      swap1\n      tag_411\n      jump\t// in\n    tag_410:\n        /* \"contracts/DDTMasterChef.sol\":2115:2132  uint256 c = a * b */\n      swap1\n      pop\n        /* \"contracts/DDTMasterChef.sol\":2160:2161  b */\n      dup3\n        /* \"contracts/DDTMasterChef.sol\":2155:2156  a */\n      dup5\n        /* \"contracts/DDTMasterChef.sol\":2151:2152  c */\n      dup3\n        /* \"contracts/DDTMasterChef.sol\":2151:2156  c / a */\n      tag_412\n      swap2\n      swap1\n      tag_413\n      jump\t// in\n    tag_412:\n        /* \"contracts/DDTMasterChef.sol\":2151:2161  c / a == b */\n      eq\n        /* \"contracts/DDTMasterChef.sol\":2143:2199  require(c / a == b, \"SafeMath: multiplication overflow\") */\n      tag_414\n      jumpi\n      mload(0x40)\n      0x08c379a000000000000000000000000000000000000000000000000000000000\n      dup2\n      mstore\n      0x04\n      add\n      tag_415\n      swap1\n      tag_416\n      jump\t// in\n    tag_415:\n      mload(0x40)\n      dup1\n      swap2\n      sub\n      swap1\n      revert\n    tag_414:\n        /* \"contracts/DDTMasterChef.sol\":2219:2220  c */\n      dup1\n        /* \"contracts/DDTMasterChef.sol\":2212:2220  return c */\n      swap2\n      pop\n      pop\n        /* \"contracts/DDTMasterChef.sol\":1757:2228  function mul(uint256 a, uint256 b) internal pure returns (uint256) {... */\n    tag_408:\n      swap3\n      swap2\n      pop\n      pop\n      jump\t// out\n        /* \"contracts/DDTMasterChef.sol\":2696:2828  function div(uint256 a, uint256 b) internal pure returns (uint256) {... */\n    tag_158:\n        /* \"contracts/DDTMasterChef.sol\":2754:2761  uint256 */\n      0x00\n        /* \"contracts/DDTMasterChef.sol\":2781:2820  div(a, b, \"SafeMath: division by zero\") */\n      tag_418\n        /* \"contracts/DDTMasterChef.sol\":2785:2786  a */\n      dup4\n        /* \"contracts/DDTMasterChef.sol\":2788:2789  b */\n      dup4\n        /* \"contracts/DDTMasterChef.sol\":2781:2820  div(a, b, \"SafeMath: division by zero\") */\n      mload(0x40)\n      dup1\n      0x40\n      add\n      0x40\n      mstore\n      dup1\n      0x1a\n      dup2\n      mstore\n      0x20\n      add\n      0x536166654d6174683a206469766973696f6e206279207a65726f000000000000\n      dup2\n      mstore\n      pop\n        /* \"contracts/DDTMasterChef.sol\":2781:2784  div */\n      tag_419\n        /* \"contracts/DDTMasterChef.sol\":2781:2820  div(a, b, \"SafeMath: division by zero\") */\n      jump\t// in\n    tag_418:\n        /* \"contracts/DDTMasterChef.sol\":2774:2820  return div(a, b, \"SafeMath: division by zero\") */\n      swap1\n      pop\n        /* \"contracts/DDTMasterChef.sol\":2696:2828  function div(uint256 a, uint256 b) internal pure returns (uint256) {... */\n      swap3\n      swap2\n      pop\n      pop\n      jump\t// out\n        /* \"contracts/DDTMasterChef.sol\":841:977  function sub(uint256 a, uint256 b) internal pure returns (uint256) {... */\n    tag_159:\n        /* \"contracts/DDTMasterChef.sol\":899:906  uint256 */\n      0x00\n        /* \"contracts/DDTMasterChef.sol\":926:969  sub(a, b, \"SafeMath: subtraction overflow\") */\n      tag_421\n        /* \"contracts/DDTMasterChef.sol\":930:931  a */\n      dup4\n        /* \"contracts/DDTMasterChef.sol\":933:934  b */\n      dup4\n        /* \"contracts/DDTMasterChef.sol\":926:969  sub(a, b, \"SafeMath: subtraction overflow\") */\n      mload(0x40)\n      dup1\n      0x40\n      add\n      0x40\n      mstore\n      dup1\n      0x1e\n      dup2\n      mstore\n      0x20\n      add\n      0x536166654d6174683a207375627472616374696f6e206f766572666c6f770000\n      dup2\n      mstore\n      pop\n        /* \"contracts/DDTMasterChef.sol\":926:929  sub */\n      tag_422\n        /* \"contracts/DDTMasterChef.sol\":926:969  sub(a, b, \"SafeMath: subtraction overflow\") */\n      jump\t// in\n    tag_421:\n        /* \"contracts/DDTMasterChef.sol\":919:969  return sub(a, b, \"SafeMath: subtraction overflow\") */\n      swap1\n      pop\n        /* \"contracts/DDTMasterChef.sol\":841:977  function sub(uint256 a, uint256 b) internal pure returns (uint256) {... */\n      swap3\n      swap2\n      pop\n      pop\n      jump\t// out\n        /* \"contracts/DDTMasterChef.sol\":33723:33994  function safeDDTTransfer(address _to, uint256 _amount) internal {... */\n    tag_162:\n        /* \"contracts/DDTMasterChef.sol\":33798:33812  uint256 DDTBal */\n      0x00\n        /* \"contracts/DDTMasterChef.sol\":33815:33818  DDT */\n      0x01\n      0x00\n      swap1\n      sload\n      swap1\n      0x0100\n      exp\n      swap1\n      div\n      0xffffffffffffffffffffffffffffffffffffffff\n      and\n        /* \"contracts/DDTMasterChef.sol\":33815:33828  DDT.balanceOf */\n      0xffffffffffffffffffffffffffffffffffffffff\n      and\n      0x70a08231\n        /* \"contracts/DDTMasterChef.sol\":33837:33841  this */\n      address\n        /* \"contracts/DDTMasterChef.sol\":33815:33843  DDT.balanceOf(address(this)) */\n      mload(0x40)\n      dup3\n      0xffffffff\n      and\n      0xe0\n      shl\n      dup2\n      mstore\n      0x04\n      add\n      tag_424\n      swap2\n      swap1\n      tag_113\n      jump\t// in\n    tag_424:\n      0x20\n      mload(0x40)\n      dup1\n      dup4\n      sub\n      dup2\n      dup7\n      gas\n      staticcall\n      iszero\n      dup1\n      iszero\n      tag_426\n      jumpi\n      returndatasize\n      0x00\n      dup1\n      returndatacopy\n      revert(0x00, returndatasize)\n    tag_426:\n      pop\n      pop\n      pop\n      pop\n      mload(0x40)\n      returndatasize\n      not(0x1f)\n      0x1f\n      dup3\n      add\n      and\n      dup3\n      add\n      dup1\n      0x40\n      mstore\n      pop\n      dup2\n      add\n      swap1\n      tag_427\n      swap2\n      swap1\n      tag_168\n      jump\t// in\n    tag_427:\n        /* \"contracts/DDTMasterChef.sol\":33798:33843  uint256 DDTBal = DDT.balanceOf(address(this)) */\n      swap1\n      pop\n        /* \"contracts/DDTMasterChef.sol\":33868:33874  DDTBal */\n      dup1\n        /* \"contracts/DDTMasterChef.sol\":33858:33865  _amount */\n      dup3\n        /* \"contracts/DDTMasterChef.sol\":33858:33874  _amount > DDTBal */\n      gt\n        /* \"contracts/DDTMasterChef.sol\":33854:33987  if (_amount > DDTBal) {... */\n      iszero\n      tag_428\n      jumpi\n        /* \"contracts/DDTMasterChef.sol\":33891:33894  DDT */\n      0x01\n      0x00\n      swap1\n      sload\n      swap1\n      0x0100\n      exp\n      swap1\n      div\n      0xffffffffffffffffffffffffffffffffffffffff\n      and\n        /* \"contracts/DDTMasterChef.sol\":33891:33903  DDT.transfer */\n      0xffffffffffffffffffffffffffffffffffffffff\n      and\n      0xa9059cbb\n        /* \"contracts/DDTMasterChef.sol\":33904:33907  _to */\n      dup5\n        /* \"contracts/DDTMasterChef.sol\":33909:33915  DDTBal */\n      dup4\n        /* \"contracts/DDTMasterChef.sol\":33891:33916  DDT.transfer(_to, DDTBal) */\n      mload(0x40)\n      dup4\n      0xffffffff\n      and\n      0xe0\n      shl\n      dup2\n      mstore\n      0x04\n      add\n      tag_429\n      swap3\n      swap2\n      swap1\n      tag_259\n      jump\t// in\n    tag_429:\n      0x20\n      mload(0x40)\n      dup1\n      dup4\n      sub\n      dup2\n      0x00\n      dup8\n      gas\n      call\n      iszero\n      dup1\n      iszero\n      tag_431\n      jumpi\n      returndatasize\n      0x00\n      dup1\n      returndatacopy\n      revert(0x00, returndatasize)\n    tag_431:\n      pop\n      pop\n      pop\n      pop\n      mload(0x40)\n      returndatasize\n      not(0x1f)\n      0x1f\n      dup3\n      add\n      and\n      dup3\n      add\n      dup1\n      0x40\n      mstore\n      pop\n      dup2\n      add\n      swap1\n      tag_432\n      swap2\n      swap1\n      tag_263\n      jump\t// in\n    tag_432:\n      pop\n        /* \"contracts/DDTMasterChef.sol\":33854:33987  if (_amount > DDTBal) {... */\n      jump(tag_433)\n    tag_428:\n        /* \"contracts/DDTMasterChef.sol\":33949:33952  DDT */\n      0x01\n      0x00\n      swap1\n      sload\n      swap1\n      0x0100\n      exp\n      swap1\n      div\n      0xffffffffffffffffffffffffffffffffffffffff\n      and\n        /* \"contracts/DDTMasterChef.sol\":33949:33961  DDT.transfer */\n      0xffffffffffffffffffffffffffffffffffffffff\n      and\n      0xa9059cbb\n        /* \"contracts/DDTMasterChef.sol\":33962:33965  _to */\n      dup5\n        /* \"contracts/DDTMasterChef.sol\":33967:33974  _amount */\n      dup5\n        /* \"contracts/DDTMasterChef.sol\":33949:33975  DDT.transfer(_to, _amount) */\n      mload(0x40)\n      dup4\n      0xffffffff\n      and\n      0xe0\n      shl\n      dup2\n      mstore\n      0x04\n      add\n      tag_434\n      swap3\n      swap2\n      swap1\n      tag_259\n      jump\t// in\n    tag_434:\n      0x20\n      mload(0x40)\n      dup1\n      dup4\n      sub\n      dup2\n      0x00\n      dup8\n      gas\n      call\n      iszero\n      dup1\n      iszero\n      tag_436\n      jumpi\n      returndatasize\n      0x00\n      dup1\n      returndatacopy\n      revert(0x00, returndatasize)\n    tag_436:\n      pop\n      pop\n      pop\n      pop\n      mload(0x40)\n      returndatasize\n      not(0x1f)\n      0x1f\n      dup3\n      add\n      and\n      dup3\n      add\n      dup1\n      0x40\n      mstore\n      pop\n      dup2\n      add\n      swap1\n      tag_437\n      swap2\n      swap1\n      tag_263\n      jump\t// in\n    tag_437:\n      pop\n        /* \"contracts/DDTMasterChef.sol\":33854:33987  if (_amount > DDTBal) {... */\n    tag_433:\n        /* \"contracts/DDTMasterChef.sol\":33787:33994  {... */\n      pop\n        /* \"contracts/DDTMasterChef.sol\":33723:33994  function safeDDTTransfer(address _to, uint256 _amount) internal {... */\n      pop\n      pop\n      jump\t// out\n        /* \"contracts/DDTMasterChef.sol\":16369:16617  function safeTransferFrom(... */\n    tag_175:\n        /* \"contracts/DDTMasterChef.sol\":16513:16609  _callOptionalReturn(token, abi.encodeWithSelector(token.transferFrom.selector, from, to, value)) */\n      tag_439\n        /* \"contracts/DDTMasterChef.sol\":16533:16538  token */\n      dup5\n        /* \"contracts/DDTMasterChef.sol\":16563:16590  token.transferFrom.selector */\n      shl(0xe0, 0x23b872dd)\n        /* \"contracts/DDTMasterChef.sol\":16592:16596  from */\n      dup6\n        /* \"contracts/DDTMasterChef.sol\":16598:16600  to */\n      dup6\n        /* \"contracts/DDTMasterChef.sol\":16602:16607  value */\n      dup6\n        /* \"contracts/DDTMasterChef.sol\":16540:16608  abi.encodeWithSelector(token.transferFrom.selector, from, to, value) */\n      add(0x24, mload(0x40))\n      tag_440\n      swap4\n      swap3\n      swap2\n      swap1\n      tag_441\n      jump\t// in\n    tag_440:\n      mload(0x40)\n      0x20\n      dup2\n      dup4\n      sub\n      sub\n      dup2\n      mstore\n      swap1\n      0x40\n      mstore\n      swap1\n      not(0xffffffffffffffffffffffffffffffffffffffffffffffffffffffff)\n      and\n      0x20\n      dup3\n      add\n      dup1\n      mload\n      0xffffffffffffffffffffffffffffffffffffffffffffffffffffffff\n      dup4\n      dup2\n      dup4\n      and\n      or\n      dup4\n      mstore\n      pop\n      pop\n      pop\n      pop\n        /* \"contracts/DDTMasterChef.sol\":16513:16532  _callOptionalReturn */\n      tag_442\n        /* \"contracts/DDTMasterChef.sol\":16513:16609  _callOptionalReturn(token, abi.encodeWithSelector(token.transferFrom.selector, from, to, value)) */\n      jump\t// in\n    tag_439:\n        /* \"contracts/DDTMasterChef.sol\":16369:16617  function safeTransferFrom(... */\n      pop\n      pop\n      pop\n      pop\n      jump\t// out\n        /* \"contracts/DDTMasterChef.sol\":385:566  function add(uint256 a, uint256 b) internal pure returns (uint256) {... */\n    tag_188:\n        /* \"contracts/DDTMasterChef.sol\":443:450  uint256 */\n      0x00\n        /* \"contracts/DDTMasterChef.sol\":463:472  uint256 c */\n      dup1\n        /* \"contracts/DDTMasterChef.sol\":479:480  b */\n      dup3\n        /* \"contracts/DDTMasterChef.sol\":475:476  a */\n      dup5\n        /* \"contracts/DDTMasterChef.sol\":475:480  a + b */\n      tag_444\n      swap2\n      swap1\n      tag_445\n      jump\t// in\n    tag_444:\n        /* \"contracts/DDTMasterChef.sol\":463:480  uint256 c = a + b */\n      swap1\n      pop\n        /* \"contracts/DDTMasterChef.sol\":504:505  a */\n      dup4\n        /* \"contracts/DDTMasterChef.sol\":499:500  c */\n      dup2\n        /* \"contracts/DDTMasterChef.sol\":499:505  c >= a */\n      lt\n      iszero\n        /* \"contracts/DDTMasterChef.sol\":491:537  require(c >= a, \"SafeMath: addition overflow\") */\n      tag_446\n      jumpi\n      mload(0x40)\n      0x08c379a000000000000000000000000000000000000000000000000000000000\n      dup2\n      mstore\n      0x04\n      add\n      tag_447\n      swap1\n      tag_448\n      jump\t// in\n    tag_447:\n      mload(0x40)\n      dup1\n      swap2\n      sub\n      swap1\n      revert\n    tag_446:\n        /* \"contracts/DDTMasterChef.sol\":557:558  c */\n      dup1\n        /* \"contracts/DDTMasterChef.sol\":550:558  return c */\n      swap2\n      pop\n      pop\n        /* \"contracts/DDTMasterChef.sol\":385:566  function add(uint256 a, uint256 b) internal pure returns (uint256) {... */\n      swap3\n      swap2\n      pop\n      pop\n      jump\t// out\n        /* \"contracts/DDTMasterChef.sol\":16150:16361  function safeTransfer(... */\n    tag_198:\n        /* \"contracts/DDTMasterChef.sol\":16267:16353  _callOptionalReturn(token, abi.encodeWithSelector(token.transfer.selector, to, value)) */\n      tag_450\n        /* \"contracts/DDTMasterChef.sol\":16287:16292  token */\n      dup4\n        /* \"contracts/DDTMasterChef.sol\":16317:16340  token.transfer.selector */\n      shl(0xe0, 0xa9059cbb)\n        /* \"contracts/DDTMasterChef.sol\":16342:16344  to */\n      dup5\n        /* \"contracts/DDTMasterChef.sol\":16346:16351  value */\n      dup5\n        /* \"contracts/DDTMasterChef.sol\":16294:16352  abi.encodeWithSelector(token.transfer.selector, to, value) */\n      add(0x24, mload(0x40))\n      tag_451\n      swap3\n      swap2\n      swap1\n      tag_259\n      jump\t// in\n    tag_451:\n      mload(0x40)\n      0x20\n      dup2\n      dup4\n      sub\n      sub\n      dup2\n      mstore\n      swap1\n      0x40\n      mstore\n      swap1\n      not(0xffffffffffffffffffffffffffffffffffffffffffffffffffffffff)\n      and\n      0x20\n      dup3\n      add\n      dup1\n      mload\n      0xffffffffffffffffffffffffffffffffffffffffffffffffffffffff\n      dup4\n      dup2\n      dup4\n      and\n      or\n      dup4\n      mstore\n      pop\n      pop\n      pop\n      pop\n        /* \"contracts/DDTMasterChef.sol\":16267:16286  _callOptionalReturn */\n      tag_442\n        /* \"contracts/DDTMasterChef.sol\":16267:16353  _callOptionalReturn(token, abi.encodeWithSelector(token.transfer.selector, to, value)) */\n      jump\t// in\n    tag_450:\n        /* \"contracts/DDTMasterChef.sol\":16150:16361  function safeTransfer(... */\n      pop\n      pop\n      pop\n      jump\t// out\n        /* \"contracts/DDTMasterChef.sol\":19479:19577  function _msgSender() internal view virtual returns (address) {... */\n    tag_221:\n        /* \"contracts/DDTMasterChef.sol\":19532:19539  address */\n      0x00\n        /* \"contracts/DDTMasterChef.sol\":19559:19569  msg.sender */\n      caller\n        /* \"contracts/DDTMasterChef.sol\":19552:19569  return msg.sender */\n      swap1\n      pop\n        /* \"contracts/DDTMasterChef.sol\":19479:19577  function _msgSender() internal view virtual returns (address) {... */\n      swap1\n      jump\t// out\n        /* \"contracts/DDTMasterChef.sol\":16886:17502  function safeApprove(... */\n    tag_235:\n        /* \"contracts/DDTMasterChef.sol\":17259:17260  0 */\n      0x00\n        /* \"contracts/DDTMasterChef.sol\":17250:17255  value */\n      dup2\n        /* \"contracts/DDTMasterChef.sol\":17250:17260  value == 0 */\n      eq\n        /* \"contracts/DDTMasterChef.sol\":17249:17311  (value == 0) || (token.allowance(address(this), spender) == 0) */\n      dup1\n      tag_454\n      jumpi\n      pop\n        /* \"contracts/DDTMasterChef.sol\":17309:17310  0 */\n      0x00\n        /* \"contracts/DDTMasterChef.sol\":17266:17271  token */\n      dup4\n        /* \"contracts/DDTMasterChef.sol\":17266:17281  token.allowance */\n      0xffffffffffffffffffffffffffffffffffffffff\n      and\n      0xdd62ed3e\n        /* \"contracts/DDTMasterChef.sol\":17290:17294  this */\n      address\n        /* \"contracts/DDTMasterChef.sol\":17297:17304  spender */\n      dup6\n        /* \"contracts/DDTMasterChef.sol\":17266:17305  token.allowance(address(this), spender) */\n      mload(0x40)\n      dup4\n      0xffffffff\n      and\n      0xe0\n      shl\n      dup2\n      mstore\n      0x04\n      add\n      tag_455\n      swap3\n      swap2\n      swap1\n      tag_164\n      jump\t// in\n    tag_455:\n      0x20\n      mload(0x40)\n      dup1\n      dup4\n      sub\n      dup2\n      dup7\n      gas\n      staticcall\n      iszero\n      dup1\n      iszero\n      tag_457\n      jumpi\n      returndatasize\n      0x00\n      dup1\n      returndatacopy\n      revert(0x00, returndatasize)\n    tag_457:\n      pop\n      pop\n      pop\n      pop\n      mload(0x40)\n      returndatasize\n      not(0x1f)\n      0x1f\n      dup3\n      add\n      and\n      dup3\n      add\n      dup1\n      0x40\n      mstore\n      pop\n      dup2\n      add\n      swap1\n      tag_458\n      swap2\n      swap1\n      tag_168\n      jump\t// in\n    tag_458:\n        /* \"contracts/DDTMasterChef.sol\":17266:17310  token.allowance(address(this), spender) == 0 */\n      eq\n        /* \"contracts/DDTMasterChef.sol\":17249:17311  (value == 0) || (token.allowance(address(this), spender) == 0) */\n    tag_454:\n        /* \"contracts/DDTMasterChef.sol\":17227:17393  require(... */\n      tag_459\n      jumpi\n      mload(0x40)\n      0x08c379a000000000000000000000000000000000000000000000000000000000\n      dup2\n      mstore\n      0x04\n      add\n      tag_460\n      swap1\n      tag_461\n      jump\t// in\n    tag_460:\n      mload(0x40)\n      dup1\n      swap2\n      sub\n      swap1\n      revert\n    tag_459:\n        /* \"contracts/DDTMasterChef.sol\":17404:17494  _callOptionalReturn(token, abi.encodeWithSelector(token.approve.selector, spender, value)) */\n      tag_462\n        /* \"contracts/DDTMasterChef.sol\":17424:17429  token */\n      dup4\n        /* \"contracts/DDTMasterChef.sol\":17454:17476  token.approve.selector */\n      shl(0xe0, 0x095ea7b3)\n        /* \"contracts/DDTMasterChef.sol\":17478:17485  spender */\n      dup5\n        /* \"contracts/DDTMasterChef.sol\":17487:17492  value */\n      dup5\n        /* \"contracts/DDTMasterChef.sol\":17431:17493  abi.encodeWithSelector(token.approve.selector, spender, value) */\n      add(0x24, mload(0x40))\n      tag_463\n      swap3\n      swap2\n      swap1\n      tag_259\n      jump\t// in\n    tag_463:\n      mload(0x40)\n      0x20\n      dup2\n      dup4\n      sub\n      sub\n      dup2\n      mstore\n      swap1\n      0x40\n      mstore\n      swap1\n      not(0xffffffffffffffffffffffffffffffffffffffffffffffffffffffff)\n      and\n      0x20\n      dup3\n      add\n      dup1\n      mload\n      0xffffffffffffffffffffffffffffffffffffffffffffffffffffffff\n      dup4\n      dup2\n      dup4\n      and\n      or\n      dup4\n      mstore\n      pop\n      pop\n      pop\n      pop\n        /* \"contracts/DDTMasterChef.sol\":17404:17423  _callOptionalReturn */\n      tag_442\n        /* \"contracts/DDTMasterChef.sol\":17404:17494  _callOptionalReturn(token, abi.encodeWithSelector(token.approve.selector, spender, value)) */\n      jump\t// in\n    tag_462:\n        /* \"contracts/DDTMasterChef.sol\":16886:17502  function safeApprove(... */\n      pop\n      pop\n      pop\n      jump\t// out\n        /* \"contracts/DDTMasterChef.sol\":21375:21566  function _transferOwnership(address newOwner) internal virtual {... */\n    tag_340:\n        /* \"contracts/DDTMasterChef.sol\":21449:21465  address oldOwner */\n      0x00\n        /* \"contracts/DDTMasterChef.sol\":21468:21474  _owner */\n      dup1\n      0x00\n      swap1\n      sload\n      swap1\n      0x0100\n      exp\n      swap1\n      div\n      0xffffffffffffffffffffffffffffffffffffffff\n      and\n        /* \"contracts/DDTMasterChef.sol\":21449:21474  address oldOwner = _owner */\n      swap1\n      pop\n        /* \"contracts/DDTMasterChef.sol\":21494:21502  newOwner */\n      dup2\n        /* \"contracts/DDTMasterChef.sol\":21485:21491  _owner */\n      0x00\n      dup1\n        /* \"contracts/DDTMasterChef.sol\":21485:21502  _owner = newOwner */\n      0x0100\n      exp\n      dup2\n      sload\n      dup2\n      0xffffffffffffffffffffffffffffffffffffffff\n      mul\n      not\n      and\n      swap1\n      dup4\n      0xffffffffffffffffffffffffffffffffffffffff\n      and\n      mul\n      or\n      swap1\n      sstore\n      pop\n        /* \"contracts/DDTMasterChef.sol\":21549:21557  newOwner */\n      dup2\n        /* \"contracts/DDTMasterChef.sol\":21518:21558  OwnershipTransferred(oldOwner, newOwner) */\n      0xffffffffffffffffffffffffffffffffffffffff\n      and\n        /* \"contracts/DDTMasterChef.sol\":21539:21547  oldOwner */\n      dup2\n        /* \"contracts/DDTMasterChef.sol\":21518:21558  OwnershipTransferred(oldOwner, newOwner) */\n      0xffffffffffffffffffffffffffffffffffffffff\n      and\n      0x8be0079c531659141344cd1fd0a4f28419497f9722a3daafe3b4186f6b6457e0\n      mload(0x40)\n      mload(0x40)\n      dup1\n      swap2\n      sub\n      swap1\n      log3\n        /* \"contracts/DDTMasterChef.sol\":21438:21566  {... */\n      pop\n        /* \"contracts/DDTMasterChef.sol\":21375:21566  function _transferOwnership(address newOwner) internal virtual {... */\n      pop\n      jump\t// out\n        /* \"contracts/DDTMasterChef.sol\":3358:3703  function div(uint256 a, uint256 b, string memory errorMessage) internal pure returns (uint256) {... */\n    tag_419:\n        /* \"contracts/DDTMasterChef.sol\":3444:3451  uint256 */\n      0x00\n        /* \"contracts/DDTMasterChef.sol\":3543:3544  0 */\n      dup1\n        /* \"contracts/DDTMasterChef.sol\":3539:3540  b */\n      dup4\n        /* \"contracts/DDTMasterChef.sol\":3539:3544  b > 0 */\n      gt\n        /* \"contracts/DDTMasterChef.sol\":3546:3558  errorMessage */\n      dup3\n        /* \"contracts/DDTMasterChef.sol\":3531:3559  require(b > 0, errorMessage) */\n      swap1\n      tag_466\n      jumpi\n      mload(0x40)\n      0x08c379a000000000000000000000000000000000000000000000000000000000\n      dup2\n      mstore\n      0x04\n      add\n      tag_467\n      swap2\n      swap1\n      tag_468\n      jump\t// in\n    tag_467:\n      mload(0x40)\n      dup1\n      swap2\n      sub\n      swap1\n      revert\n    tag_466:\n      pop\n        /* \"contracts/DDTMasterChef.sol\":3570:3579  uint256 c */\n      0x00\n        /* \"contracts/DDTMasterChef.sol\":3586:3587  b */\n      dup4\n        /* \"contracts/DDTMasterChef.sol\":3582:3583  a */\n      dup6\n        /* \"contracts/DDTMasterChef.sol\":3582:3587  a / b */\n      tag_469\n      swap2\n      swap1\n      tag_413\n      jump\t// in\n    tag_469:\n        /* \"contracts/DDTMasterChef.sol\":3570:3587  uint256 c = a / b */\n      swap1\n      pop\n        /* \"contracts/DDTMasterChef.sol\":3694:3695  c */\n      dup1\n        /* \"contracts/DDTMasterChef.sol\":3687:3695  return c */\n      swap2\n      pop\n      pop\n        /* \"contracts/DDTMasterChef.sol\":3358:3703  function div(uint256 a, uint256 b, string memory errorMessage) internal pure returns (uint256) {... */\n      swap4\n      swap3\n      pop\n      pop\n      pop\n      jump\t// out\n        /* \"contracts/DDTMasterChef.sol\":1314:1506  function sub(uint256 a, uint256 b, string memory errorMessage) internal pure returns (uint256) {... */\n    tag_422:\n        /* \"contracts/DDTMasterChef.sol\":1400:1407  uint256 */\n      0x00\n        /* \"contracts/DDTMasterChef.sol\":1433:1434  a */\n      dup4\n        /* \"contracts/DDTMasterChef.sol\":1428:1429  b */\n      dup4\n        /* \"contracts/DDTMasterChef.sol\":1428:1434  b <= a */\n      gt\n      iszero\n        /* \"contracts/DDTMasterChef.sol\":1436:1448  errorMessage */\n      dup3\n        /* \"contracts/DDTMasterChef.sol\":1420:1449  require(b <= a, errorMessage) */\n      swap1\n      tag_471\n      jumpi\n      mload(0x40)\n      0x08c379a000000000000000000000000000000000000000000000000000000000\n      dup2\n      mstore\n      0x04\n      add\n      tag_472\n      swap2\n      swap1\n      tag_468\n      jump\t// in\n    tag_472:\n      mload(0x40)\n      dup1\n      swap2\n      sub\n      swap1\n      revert\n    tag_471:\n      pop\n        /* \"contracts/DDTMasterChef.sol\":1460:1469  uint256 c */\n      0x00\n        /* \"contracts/DDTMasterChef.sol\":1476:1477  b */\n      dup4\n        /* \"contracts/DDTMasterChef.sol\":1472:1473  a */\n      dup6\n        /* \"contracts/DDTMasterChef.sol\":1472:1477  a - b */\n      tag_473\n      swap2\n      swap1\n      tag_474\n      jump\t// in\n    tag_473:\n        /* \"contracts/DDTMasterChef.sol\":1460:1477  uint256 c = a - b */\n      swap1\n      pop\n        /* \"contracts/DDTMasterChef.sol\":1497:1498  c */\n      dup1\n        /* \"contracts/DDTMasterChef.sol\":1490:1498  return c */\n      swap2\n      pop\n      pop\n        /* \"contracts/DDTMasterChef.sol\":1314:1506  function sub(uint256 a, uint256 b, string memory errorMessage) internal pure returns (uint256) {... */\n      swap4\n      swap3\n      pop\n      pop\n      pop\n      jump\t// out\n        /* \"contracts/DDTMasterChef.sol\":18723:19439  function _callOptionalReturn(IERC20 token, bytes memory data) private {... */\n    tag_442:\n        /* \"contracts/DDTMasterChef.sol\":19147:19170  bytes memory returndata */\n      0x00\n        /* \"contracts/DDTMasterChef.sol\":19173:19242  address(token).functionCall(data, \"SafeERC20: low-level call failed\") */\n      tag_476\n        /* \"contracts/DDTMasterChef.sol\":19201:19205  data */\n      dup3\n        /* \"contracts/DDTMasterChef.sol\":19173:19242  address(token).functionCall(data, \"SafeERC20: low-level call failed\") */\n      mload(0x40)\n      dup1\n      0x40\n      add\n      0x40\n      mstore\n      dup1\n      0x20\n      dup2\n      mstore\n      0x20\n      add\n      0x5361666545524332303a206c6f772d6c6576656c2063616c6c206661696c6564\n      dup2\n      mstore\n      pop\n        /* \"contracts/DDTMasterChef.sol\":19181:19186  token */\n      dup6\n        /* \"contracts/DDTMasterChef.sol\":19173:19200  address(token).functionCall */\n      0xffffffffffffffffffffffffffffffffffffffff\n      and\n      tag_477\n      swap1\n        /* \"contracts/DDTMasterChef.sol\":19173:19242  address(token).functionCall(data, \"SafeERC20: low-level call failed\") */\n      swap3\n      swap2\n      swap1\n      0xffffffff\n      and\n      jump\t// in\n    tag_476:\n        /* \"contracts/DDTMasterChef.sol\":19147:19242  bytes memory returndata = address(token).functionCall(data, \"SafeERC20: low-level call failed\") */\n      swap1\n      pop\n        /* \"contracts/DDTMasterChef.sol\":19277:19278  0 */\n      0x00\n        /* \"contracts/DDTMasterChef.sol\":19257:19267  returndata */\n      dup2\n        /* \"contracts/DDTMasterChef.sol\":19257:19274  returndata.length */\n      mload\n        /* \"contracts/DDTMasterChef.sol\":19257:19278  returndata.length > 0 */\n      gt\n        /* \"contracts/DDTMasterChef.sol\":19253:19432  if (returndata.length > 0) {... */\n      iszero\n      tag_478\n      jumpi\n        /* \"contracts/DDTMasterChef.sol\":19354:19364  returndata */\n      dup1\n        /* \"contracts/DDTMasterChef.sol\":19343:19373  abi.decode(returndata, (bool)) */\n      dup1\n      0x20\n      add\n      swap1\n      mload\n      dup2\n      add\n      swap1\n      tag_479\n      swap2\n      swap1\n      tag_263\n      jump\t// in\n    tag_479:\n        /* \"contracts/DDTMasterChef.sol\":19335:19420  require(abi.decode(returndata, (bool)), \"SafeERC20: ERC20 operation did not succeed\") */\n      tag_480\n      jumpi\n      mload(0x40)\n      0x08c379a000000000000000000000000000000000000000000000000000000000\n      dup2\n      mstore\n      0x04\n      add\n      tag_481\n      swap1\n      tag_482\n      jump\t// in\n    tag_481:\n      mload(0x40)\n      dup1\n      swap2\n      sub\n      swap1\n      revert\n    tag_480:\n        /* \"contracts/DDTMasterChef.sol\":19253:19432  if (returndata.length > 0) {... */\n    tag_478:\n        /* \"contracts/DDTMasterChef.sol\":18793:19439  {... */\n      pop\n        /* \"contracts/DDTMasterChef.sol\":18723:19439  function _callOptionalReturn(IERC20 token, bytes memory data) private {... */\n      pop\n      pop\n      jump\t// out\n        /* \"contracts/DDTMasterChef.sol\":11566:11795  function functionCall(... */\n    tag_477:\n        /* \"contracts/DDTMasterChef.sol\":11703:11715  bytes memory */\n      0x60\n        /* \"contracts/DDTMasterChef.sol\":11735:11787  functionCallWithValue(target, data, 0, errorMessage) */\n      tag_484\n        /* \"contracts/DDTMasterChef.sol\":11757:11763  target */\n      dup5\n        /* \"contracts/DDTMasterChef.sol\":11765:11769  data */\n      dup5\n        /* \"contracts/DDTMasterChef.sol\":11771:11772  0 */\n      0x00\n        /* \"contracts/DDTMasterChef.sol\":11774:11786  errorMessage */\n      dup6\n        /* \"contracts/DDTMasterChef.sol\":11735:11756  functionCallWithValue */\n      tag_485\n        /* \"contracts/DDTMasterChef.sol\":11735:11787  functionCallWithValue(target, data, 0, errorMessage) */\n      jump\t// in\n    tag_484:\n        /* \"contracts/DDTMasterChef.sol\":11728:11787  return functionCallWithValue(target, data, 0, errorMessage) */\n      swap1\n      pop\n        /* \"contracts/DDTMasterChef.sol\":11566:11795  function functionCall(... */\n      swap4\n      swap3\n      pop\n      pop\n      pop\n      jump\t// out\n        /* \"contracts/DDTMasterChef.sol\":12686:13196  function functionCallWithValue(... */\n    tag_485:\n        /* \"contracts/DDTMasterChef.sol\":12856:12868  bytes memory */\n      0x60\n        /* \"contracts/DDTMasterChef.sol\":12914:12919  value */\n      dup3\n        /* \"contracts/DDTMasterChef.sol\":12889:12910  address(this).balance */\n      selfbalance\n        /* \"contracts/DDTMasterChef.sol\":12889:12919  address(this).balance >= value */\n      lt\n      iszero\n        /* \"contracts/DDTMasterChef.sol\":12881:12962  require(address(this).balance >= value, \"Address: insufficient balance for call\") */\n      tag_487\n      jumpi\n      mload(0x40)\n      0x08c379a000000000000000000000000000000000000000000000000000000000\n      dup2\n      mstore\n      0x04\n      add\n      tag_488\n      swap1\n      tag_489\n      jump\t// in\n    tag_488:\n      mload(0x40)\n      dup1\n      swap2\n      sub\n      swap1\n      revert\n    tag_487:\n        /* \"contracts/DDTMasterChef.sol\":12981:12999  isContract(target) */\n      tag_490\n        /* \"contracts/DDTMasterChef.sol\":12992:12998  target */\n      dup6\n        /* \"contracts/DDTMasterChef.sol\":12981:12991  isContract */\n      tag_491\n        /* \"contracts/DDTMasterChef.sol\":12981:12999  isContract(target) */\n      jump\t// in\n    tag_490:\n        /* \"contracts/DDTMasterChef.sol\":12973:13033  require(isContract(target), \"Address: call to non-contract\") */\n      tag_492\n      jumpi\n      mload(0x40)\n      0x08c379a000000000000000000000000000000000000000000000000000000000\n      dup2\n      mstore\n      0x04\n      add\n      tag_493\n      swap1\n      tag_494\n      jump\t// in\n    tag_493:\n      mload(0x40)\n      dup1\n      swap2\n      sub\n      swap1\n      revert\n    tag_492:\n        /* \"contracts/DDTMasterChef.sol\":13047:13059  bool success */\n      0x00\n        /* \"contracts/DDTMasterChef.sol\":13061:13084  bytes memory returndata */\n      dup1\n        /* \"contracts/DDTMasterChef.sol\":13088:13094  target */\n      dup7\n        /* \"contracts/DDTMasterChef.sol\":13088:13099  target.call */\n      0xffffffffffffffffffffffffffffffffffffffff\n      and\n        /* \"contracts/DDTMasterChef.sol\":13107:13112  value */\n      dup6\n        /* \"contracts/DDTMasterChef.sol\":13114:13118  data */\n      dup8\n        /* \"contracts/DDTMasterChef.sol\":13088:13119  target.call{value: value}(data) */\n      mload(0x40)\n      tag_495\n      swap2\n      swap1\n      tag_496\n      jump\t// in\n    tag_495:\n      0x00\n      mload(0x40)\n      dup1\n      dup4\n      sub\n      dup2\n      dup6\n      dup8\n      gas\n      call\n      swap3\n      pop\n      pop\n      pop\n      returndatasize\n      dup1\n      0x00\n      dup2\n      eq\n      tag_499\n      jumpi\n      mload(0x40)\n      swap2\n      pop\n      and(add(returndatasize, 0x3f), not(0x1f))\n      dup3\n      add\n      0x40\n      mstore\n      returndatasize\n      dup3\n      mstore\n      returndatasize\n      0x00\n      0x20\n      dup5\n      add\n      returndatacopy\n      jump(tag_498)\n    tag_499:\n      0x60\n      swap2\n      pop\n    tag_498:\n      pop\n        /* \"contracts/DDTMasterChef.sol\":13046:13119  (bool success, bytes memory returndata) = target.call{value: value}(data) */\n      swap2\n      pop\n      swap2\n      pop\n        /* \"contracts/DDTMasterChef.sol\":13137:13188  verifyCallResult(success, returndata, errorMessage) */\n      tag_500\n        /* \"contracts/DDTMasterChef.sol\":13154:13161  success */\n      dup3\n        /* \"contracts/DDTMasterChef.sol\":13163:13173  returndata */\n      dup3\n        /* \"contracts/DDTMasterChef.sol\":13175:13187  errorMessage */\n      dup7\n        /* \"contracts/DDTMasterChef.sol\":13137:13153  verifyCallResult */\n      tag_501\n        /* \"contracts/DDTMasterChef.sol\":13137:13188  verifyCallResult(success, returndata, errorMessage) */\n      jump\t// in\n    tag_500:\n        /* \"contracts/DDTMasterChef.sol\":13130:13188  return verifyCallResult(success, returndata, errorMessage) */\n      swap3\n      pop\n      pop\n      pop\n        /* \"contracts/DDTMasterChef.sol\":12686:13196  function functionCallWithValue(... */\n      swap5\n      swap4\n      pop\n      pop\n      pop\n      pop\n      jump\t// out\n        /* \"contracts/DDTMasterChef.sol\":8821:9147  function isContract(address account) internal view returns (bool) {... */\n    tag_491:\n        /* \"contracts/DDTMasterChef.sol\":8881:8885  bool */\n      0x00\n        /* \"contracts/DDTMasterChef.sol\":9138:9139  0 */\n      dup1\n        /* \"contracts/DDTMasterChef.sol\":9116:9123  account */\n      dup3\n        /* \"contracts/DDTMasterChef.sol\":9116:9135  account.code.length */\n      0xffffffffffffffffffffffffffffffffffffffff\n      and\n      extcodesize\n        /* \"contracts/DDTMasterChef.sol\":9116:9139  account.code.length > 0 */\n      gt\n        /* \"contracts/DDTMasterChef.sol\":9109:9139  return account.code.length > 0 */\n      swap1\n      pop\n        /* \"contracts/DDTMasterChef.sol\":8821:9147  function isContract(address account) internal view returns (bool) {... */\n      swap2\n      swap1\n      pop\n      jump\t// out\n        /* \"contracts/DDTMasterChef.sol\":15372:16084  function verifyCallResult(... */\n    tag_501:\n        /* \"contracts/DDTMasterChef.sol\":15522:15534  bytes memory */\n      0x60\n        /* \"contracts/DDTMasterChef.sol\":15551:15558  success */\n      dup4\n        /* \"contracts/DDTMasterChef.sol\":15547:16077  if (success) {... */\n      iszero\n      tag_504\n      jumpi\n        /* \"contracts/DDTMasterChef.sol\":15582:15592  returndata */\n      dup3\n        /* \"contracts/DDTMasterChef.sol\":15575:15592  return returndata */\n      swap1\n      pop\n      jump(tag_503)\n        /* \"contracts/DDTMasterChef.sol\":15547:16077  if (success) {... */\n    tag_504:\n        /* \"contracts/DDTMasterChef.sol\":15716:15717  0 */\n      0x00\n        /* \"contracts/DDTMasterChef.sol\":15696:15706  returndata */\n      dup4\n        /* \"contracts/DDTMasterChef.sol\":15696:15713  returndata.length */\n      mload\n        /* \"contracts/DDTMasterChef.sol\":15696:15717  returndata.length > 0 */\n      gt\n        /* \"contracts/DDTMasterChef.sol\":15692:16066  if (returndata.length > 0) {... */\n      iszero\n      tag_506\n      jumpi\n        /* \"contracts/DDTMasterChef.sol\":15894:15904  returndata */\n      dup3\n        /* \"contracts/DDTMasterChef.sol\":15888:15905  mload(returndata) */\n      mload\n        /* \"contracts/DDTMasterChef.sol\":15955:15970  returndata_size */\n      dup1\n        /* \"contracts/DDTMasterChef.sol\":15942:15952  returndata */\n      dup5\n        /* \"contracts/DDTMasterChef.sol\":15938:15940  32 */\n      0x20\n        /* \"contracts/DDTMasterChef.sol\":15934:15953  add(32, returndata) */\n      add\n        /* \"contracts/DDTMasterChef.sol\":15927:15971  revert(add(32, returndata), returndata_size) */\n      revert\n        /* \"contracts/DDTMasterChef.sol\":15692:16066  if (returndata.length > 0) {... */\n    tag_506:\n        /* \"contracts/DDTMasterChef.sol\":16037:16049  errorMessage */\n      dup2\n        /* \"contracts/DDTMasterChef.sol\":16030:16050  revert(errorMessage) */\n      mload(0x40)\n      0x08c379a000000000000000000000000000000000000000000000000000000000\n      dup2\n      mstore\n      0x04\n      add\n      tag_508\n      swap2\n      swap1\n      tag_468\n      jump\t// in\n    tag_508:\n      mload(0x40)\n      dup1\n      swap2\n      sub\n      swap1\n      revert\n        /* \"contracts/DDTMasterChef.sol\":15372:16084  function verifyCallResult(... */\n    tag_503:\n      swap4\n      swap3\n      pop\n      pop\n      pop\n      jump\t// out\n        /* \"#utility.yul\":88:205   */\n    tag_510:\n        /* \"#utility.yul\":197:198   */\n      0x00\n        /* \"#utility.yul\":194:195   */\n      dup1\n        /* \"#utility.yul\":187:199   */\n      revert\n        /* \"#utility.yul\":334:411   */\n    tag_512:\n        /* \"#utility.yul\":371:378   */\n      0x00\n        /* \"#utility.yul\":400:405   */\n      dup2\n        /* \"#utility.yul\":389:405   */\n      swap1\n      pop\n        /* \"#utility.yul\":334:411   */\n      swap2\n      swap1\n      pop\n      jump\t// out\n        /* \"#utility.yul\":417:539   */\n    tag_513:\n        /* \"#utility.yul\":490:514   */\n      tag_583\n        /* \"#utility.yul\":508:513   */\n      dup2\n        /* \"#utility.yul\":490:514   */\n      tag_512\n      jump\t// in\n    tag_583:\n        /* \"#utility.yul\":483:488   */\n      dup2\n        /* \"#utility.yul\":480:515   */\n      eq\n        /* \"#utility.yul\":470:533   */\n      tag_584\n      jumpi\n        /* \"#utility.yul\":529:530   */\n      0x00\n        /* \"#utility.yul\":526:527   */\n      dup1\n        /* \"#utility.yul\":519:531   */\n      revert\n        /* \"#utility.yul\":470:533   */\n    tag_584:\n        /* \"#utility.yul\":417:539   */\n      pop\n      jump\t// out\n        /* \"#utility.yul\":545:684   */\n    tag_514:\n        /* \"#utility.yul\":591:596   */\n      0x00\n        /* \"#utility.yul\":629:635   */\n      dup2\n        /* \"#utility.yul\":616:636   */\n      calldataload\n        /* \"#utility.yul\":607:636   */\n      swap1\n      pop\n        /* \"#utility.yul\":645:678   */\n      tag_586\n        /* \"#utility.yul\":672:677   */\n      dup2\n        /* \"#utility.yul\":645:678   */\n      tag_513\n      jump\t// in\n    tag_586:\n        /* \"#utility.yul\":545:684   */\n      swap3\n      swap2\n      pop\n      pop\n      jump\t// out\n        /* \"#utility.yul\":690:1309   */\n    tag_42:\n        /* \"#utility.yul\":767:773   */\n      0x00\n        /* \"#utility.yul\":775:781   */\n      dup1\n        /* \"#utility.yul\":783:789   */\n      0x00\n        /* \"#utility.yul\":832:834   */\n      0x60\n        /* \"#utility.yul\":820:829   */\n      dup5\n        /* \"#utility.yul\":811:818   */\n      dup7\n        /* \"#utility.yul\":807:830   */\n      sub\n        /* \"#utility.yul\":803:835   */\n      slt\n        /* \"#utility.yul\":800:919   */\n      iszero\n      tag_588\n      jumpi\n        /* \"#utility.yul\":838:917   */\n      tag_589\n      tag_510\n      jump\t// in\n    tag_589:\n        /* \"#utility.yul\":800:919   */\n    tag_588:\n        /* \"#utility.yul\":958:959   */\n      0x00\n        /* \"#utility.yul\":983:1036   */\n      tag_590\n        /* \"#utility.yul\":1028:1035   */\n      dup7\n        /* \"#utility.yul\":1019:1025   */\n      dup3\n        /* \"#utility.yul\":1008:1017   */\n      dup8\n        /* \"#utility.yul\":1004:1026   */\n      add\n        /* \"#utility.yul\":983:1036   */\n      tag_514\n      jump\t// in\n    tag_590:\n        /* \"#utility.yul\":973:1036   */\n      swap4\n      pop\n        /* \"#utility.yul\":929:1046   */\n      pop\n        /* \"#utility.yul\":1085:1087   */\n      0x20\n        /* \"#utility.yul\":1111:1164   */\n      tag_591\n        /* \"#utility.yul\":1156:1163   */\n      dup7\n        /* \"#utility.yul\":1147:1153   */\n      dup3\n        /* \"#utility.yul\":1136:1145   */\n      dup8\n        /* \"#utility.yul\":1132:1154   */\n      add\n        /* \"#utility.yul\":1111:1164   */\n      tag_514\n      jump\t// in\n    tag_591:\n        /* \"#utility.yul\":1101:1164   */\n      swap3\n      pop\n        /* \"#utility.yul\":1056:1174   */\n      pop\n        /* \"#utility.yul\":1213:1215   */\n      0x40\n        /* \"#utility.yul\":1239:1292   */\n      tag_592\n        /* \"#utility.yul\":1284:1291   */\n      dup7\n        /* \"#utility.yul\":1275:1281   */\n      dup3\n        /* \"#utility.yul\":1264:1273   */\n      dup8\n        /* \"#utility.yul\":1260:1282   */\n      add\n        /* \"#utility.yul\":1239:1292   */\n      tag_514\n      jump\t// in\n    tag_592:\n        /* \"#utility.yul\":1229:1292   */\n      swap2\n      pop\n        /* \"#utility.yul\":1184:1302   */\n      pop\n        /* \"#utility.yul\":690:1309   */\n      swap3\n      pop\n      swap3\n      pop\n      swap3\n      jump\t// out\n        /* \"#utility.yul\":1315:1433   */\n    tag_515:\n        /* \"#utility.yul\":1402:1426   */\n      tag_594\n        /* \"#utility.yul\":1420:1425   */\n      dup2\n        /* \"#utility.yul\":1402:1426   */\n      tag_512\n      jump\t// in\n    tag_594:\n        /* \"#utility.yul\":1397:1400   */\n      dup3\n        /* \"#utility.yul\":1390:1427   */\n      mstore\n        /* \"#utility.yul\":1315:1433   */\n      pop\n      pop\n      jump\t// out\n        /* \"#utility.yul\":1439:1661   */\n    tag_47:\n        /* \"#utility.yul\":1532:1536   */\n      0x00\n        /* \"#utility.yul\":1570:1572   */\n      0x20\n        /* \"#utility.yul\":1559:1568   */\n      dup3\n        /* \"#utility.yul\":1555:1573   */\n      add\n        /* \"#utility.yul\":1547:1573   */\n      swap1\n      pop\n        /* \"#utility.yul\":1583:1654   */\n      tag_596\n        /* \"#utility.yul\":1651:1652   */\n      0x00\n        /* \"#utility.yul\":1640:1649   */\n      dup4\n        /* \"#utility.yul\":1636:1653   */\n      add\n        /* \"#utility.yul\":1627:1633   */\n      dup5\n        /* \"#utility.yul\":1583:1654   */\n      tag_515\n      jump\t// in\n    tag_596:\n        /* \"#utility.yul\":1439:1661   */\n      swap3\n      swap2\n      pop\n      pop\n      jump\t// out\n        /* \"#utility.yul\":1667:1996   */\n    tag_50:\n        /* \"#utility.yul\":1726:1732   */\n      0x00\n        /* \"#utility.yul\":1775:1777   */\n      0x20\n        /* \"#utility.yul\":1763:1772   */\n      dup3\n        /* \"#utility.yul\":1754:1761   */\n      dup5\n        /* \"#utility.yul\":1750:1773   */\n      sub\n        /* \"#utility.yul\":1746:1778   */\n      slt\n        /* \"#utility.yul\":1743:1862   */\n      iszero\n      tag_598\n      jumpi\n        /* \"#utility.yul\":1781:1860   */\n      tag_599\n      tag_510\n      jump\t// in\n    tag_599:\n        /* \"#utility.yul\":1743:1862   */\n    tag_598:\n        /* \"#utility.yul\":1901:1902   */\n      0x00\n        /* \"#utility.yul\":1926:1979   */\n      tag_600\n        /* \"#utility.yul\":1971:1978   */\n      dup5\n        /* \"#utility.yul\":1962:1968   */\n      dup3\n        /* \"#utility.yul\":1951:1960   */\n      dup6\n        /* \"#utility.yul\":1947:1969   */\n      add\n        /* \"#utility.yul\":1926:1979   */\n      tag_514\n      jump\t// in\n    tag_600:\n        /* \"#utility.yul\":1916:1979   */\n      swap2\n      pop\n        /* \"#utility.yul\":1872:1989   */\n      pop\n        /* \"#utility.yul\":1667:1996   */\n      swap3\n      swap2\n      pop\n      pop\n      jump\t// out\n        /* \"#utility.yul\":2002:2128   */\n    tag_516:\n        /* \"#utility.yul\":2039:2046   */\n      0x00\n        /* \"#utility.yul\":2079:2121   */\n      0xffffffffffffffffffffffffffffffffffffffff\n        /* \"#utility.yul\":2072:2077   */\n      dup3\n        /* \"#utility.yul\":2068:2122   */\n      and\n        /* \"#utility.yul\":2057:2122   */\n      swap1\n      pop\n        /* \"#utility.yul\":2002:2128   */\n      swap2\n      swap1\n      pop\n      jump\t// out\n        /* \"#utility.yul\":2134:2194   */\n    tag_517:\n        /* \"#utility.yul\":2162:2165   */\n      0x00\n        /* \"#utility.yul\":2183:2188   */\n      dup2\n        /* \"#utility.yul\":2176:2188   */\n      swap1\n      pop\n        /* \"#utility.yul\":2134:2194   */\n      swap2\n      swap1\n      pop\n      jump\t// out\n        /* \"#utility.yul\":2200:2342   */\n    tag_518:\n        /* \"#utility.yul\":2250:2259   */\n      0x00\n        /* \"#utility.yul\":2283:2336   */\n      tag_604\n        /* \"#utility.yul\":2301:2335   */\n      tag_605\n        /* \"#utility.yul\":2310:2334   */\n      tag_606\n        /* \"#utility.yul\":2328:2333   */\n      dup5\n        /* \"#utility.yul\":2310:2334   */\n      tag_516\n      jump\t// in\n    tag_606:\n        /* \"#utility.yul\":2301:2335   */\n      tag_517\n      jump\t// in\n    tag_605:\n        /* \"#utility.yul\":2283:2336   */\n      tag_516\n      jump\t// in\n    tag_604:\n        /* \"#utility.yul\":2270:2336   */\n      swap1\n      pop\n        /* \"#utility.yul\":2200:2342   */\n      swap2\n      swap1\n      pop\n      jump\t// out\n        /* \"#utility.yul\":2348:2474   */\n    tag_519:\n        /* \"#utility.yul\":2398:2407   */\n      0x00\n        /* \"#utility.yul\":2431:2468   */\n      tag_608\n        /* \"#utility.yul\":2462:2467   */\n      dup3\n        /* \"#utility.yul\":2431:2468   */\n      tag_518\n      jump\t// in\n    tag_608:\n        /* \"#utility.yul\":2418:2468   */\n      swap1\n      pop\n        /* \"#utility.yul\":2348:2474   */\n      swap2\n      swap1\n      pop\n      jump\t// out\n        /* \"#utility.yul\":2480:2620   */\n    tag_520:\n        /* \"#utility.yul\":2544:2553   */\n      0x00\n        /* \"#utility.yul\":2577:2614   */\n      tag_610\n        /* \"#utility.yul\":2608:2613   */\n      dup3\n        /* \"#utility.yul\":2577:2614   */\n      tag_519\n      jump\t// in\n    tag_610:\n        /* \"#utility.yul\":2564:2614   */\n      swap1\n      pop\n        /* \"#utility.yul\":2480:2620   */\n      swap2\n      swap1\n      pop\n      jump\t// out\n        /* \"#utility.yul\":2626:2785   */\n    tag_521:\n        /* \"#utility.yul\":2727:2778   */\n      tag_612\n        /* \"#utility.yul\":2772:2777   */\n      dup2\n        /* \"#utility.yul\":2727:2778   */\n      tag_520\n      jump\t// in\n    tag_612:\n        /* \"#utility.yul\":2722:2725   */\n      dup3\n        /* \"#utility.yul\":2715:2779   */\n      mstore\n        /* \"#utility.yul\":2626:2785   */\n      pop\n      pop\n      jump\t// out\n        /* \"#utility.yul\":2791:2936   */\n    tag_522:\n        /* \"#utility.yul\":2860:2869   */\n      0x00\n        /* \"#utility.yul\":2893:2930   */\n      tag_614\n        /* \"#utility.yul\":2924:2929   */\n      dup3\n        /* \"#utility.yul\":2893:2930   */\n      tag_519\n      jump\t// in\n    tag_614:\n        /* \"#utility.yul\":2880:2930   */\n      swap1\n      pop\n        /* \"#utility.yul\":2791:2936   */\n      swap2\n      swap1\n      pop\n      jump\t// out\n        /* \"#utility.yul\":2942:3111   */\n    tag_523:\n        /* \"#utility.yul\":3048:3104   */\n      tag_616\n        /* \"#utility.yul\":3098:3103   */\n      dup2\n        /* \"#utility.yul\":3048:3104   */\n      tag_522\n      jump\t// in\n    tag_616:\n        /* \"#utility.yul\":3043:3046   */\n      dup3\n        /* \"#utility.yul\":3036:3105   */\n      mstore\n        /* \"#utility.yul\":2942:3111   */\n      pop\n      pop\n      jump\t// out\n        /* \"#utility.yul\":3117:4208   */\n    tag_53:\n        /* \"#utility.yul\":3453:3457   */\n      0x00\n        /* \"#utility.yul\":3491:3494   */\n      0x0100\n        /* \"#utility.yul\":3480:3489   */\n      dup3\n        /* \"#utility.yul\":3476:3495   */\n      add\n        /* \"#utility.yul\":3468:3495   */\n      swap1\n      pop\n        /* \"#utility.yul\":3505:3590   */\n      tag_618\n        /* \"#utility.yul\":3587:3588   */\n      0x00\n        /* \"#utility.yul\":3576:3585   */\n      dup4\n        /* \"#utility.yul\":3572:3589   */\n      add\n        /* \"#utility.yul\":3563:3569   */\n      dup12\n        /* \"#utility.yul\":3505:3590   */\n      tag_521\n      jump\t// in\n    tag_618:\n        /* \"#utility.yul\":3600:3672   */\n      tag_619\n        /* \"#utility.yul\":3668:3670   */\n      0x20\n        /* \"#utility.yul\":3657:3666   */\n      dup4\n        /* \"#utility.yul\":3653:3671   */\n      add\n        /* \"#utility.yul\":3644:3650   */\n      dup11\n        /* \"#utility.yul\":3600:3672   */\n      tag_515\n      jump\t// in\n    tag_619:\n        /* \"#utility.yul\":3682:3754   */\n      tag_620\n        /* \"#utility.yul\":3750:3752   */\n      0x40\n        /* \"#utility.yul\":3739:3748   */\n      dup4\n        /* \"#utility.yul\":3735:3753   */\n      add\n        /* \"#utility.yul\":3726:3732   */\n      dup10\n        /* \"#utility.yul\":3682:3754   */\n      tag_515\n      jump\t// in\n    tag_620:\n        /* \"#utility.yul\":3764:3836   */\n      tag_621\n        /* \"#utility.yul\":3832:3834   */\n      0x60\n        /* \"#utility.yul\":3821:3830   */\n      dup4\n        /* \"#utility.yul\":3817:3835   */\n      add\n        /* \"#utility.yul\":3808:3814   */\n      dup9\n        /* \"#utility.yul\":3764:3836   */\n      tag_515\n      jump\t// in\n    tag_621:\n        /* \"#utility.yul\":3846:3938   */\n      tag_622\n        /* \"#utility.yul\":3933:3936   */\n      0x80\n        /* \"#utility.yul\":3922:3931   */\n      dup4\n        /* \"#utility.yul\":3918:3937   */\n      add\n        /* \"#utility.yul\":3909:3915   */\n      dup8\n        /* \"#utility.yul\":3846:3938   */\n      tag_523\n      jump\t// in\n    tag_622:\n        /* \"#utility.yul\":3948:4035   */\n      tag_623\n        /* \"#utility.yul\":4030:4033   */\n      0xa0\n        /* \"#utility.yul\":4019:4028   */\n      dup4\n        /* \"#utility.yul\":4015:4034   */\n      add\n        /* \"#utility.yul\":4006:4012   */\n      dup7\n        /* \"#utility.yul\":3948:4035   */\n      tag_521\n      jump\t// in\n    tag_623:\n        /* \"#utility.yul\":4045:4118   */\n      tag_624\n        /* \"#utility.yul\":4113:4116   */\n      0xc0\n        /* \"#utility.yul\":4102:4111   */\n      dup4\n        /* \"#utility.yul\":4098:4117   */\n      add\n        /* \"#utility.yul\":4089:4095   */\n      dup6\n        /* \"#utility.yul\":4045:4118   */\n      tag_515\n      jump\t// in\n    tag_624:\n        /* \"#utility.yul\":4128:4201   */\n      tag_625\n        /* \"#utility.yul\":4196:4199   */\n      0xe0\n        /* \"#utility.yul\":4185:4194   */\n      dup4\n        /* \"#utility.yul\":4181:4200   */\n      add\n        /* \"#utility.yul\":4172:4178   */\n      dup5\n        /* \"#utility.yul\":4128:4201   */\n      tag_515\n      jump\t// in\n    tag_625:\n        /* \"#utility.yul\":3117:4208   */\n      swap10\n      swap9\n      pop\n      pop\n      pop\n      pop\n      pop\n      pop\n      pop\n      pop\n      pop\n      jump\t// out\n        /* \"#utility.yul\":4214:4310   */\n    tag_524:\n        /* \"#utility.yul\":4251:4258   */\n      0x00\n        /* \"#utility.yul\":4280:4304   */\n      tag_627\n        /* \"#utility.yul\":4298:4303   */\n      dup3\n        /* \"#utility.yul\":4280:4304   */\n      tag_516\n      jump\t// in\n    tag_627:\n        /* \"#utility.yul\":4269:4304   */\n      swap1\n      pop\n        /* \"#utility.yul\":4214:4310   */\n      swap2\n      swap1\n      pop\n      jump\t// out\n        /* \"#utility.yul\":4316:4438   */\n    tag_525:\n        /* \"#utility.yul\":4389:4413   */\n      tag_629\n        /* \"#utility.yul\":4407:4412   */\n      dup2\n        /* \"#utility.yul\":4389:4413   */\n      tag_524\n      jump\t// in\n    tag_629:\n        /* \"#utility.yul\":4382:4387   */\n      dup2\n        /* \"#utility.yul\":4379:4414   */\n      eq\n        /* \"#utility.yul\":4369:4432   */\n      tag_630\n      jumpi\n        /* \"#utility.yul\":4428:4429   */\n      0x00\n        /* \"#utility.yul\":4425:4426   */\n      dup1\n        /* \"#utility.yul\":4418:4430   */\n      revert\n        /* \"#utility.yul\":4369:4432   */\n    tag_630:\n        /* \"#utility.yul\":4316:4438   */\n      pop\n      jump\t// out\n        /* \"#utility.yul\":4444:4583   */\n    tag_526:\n        /* \"#utility.yul\":4490:4495   */\n      0x00\n        /* \"#utility.yul\":4528:4534   */\n      dup2\n        /* \"#utility.yul\":4515:4535   */\n      calldataload\n        /* \"#utility.yul\":4506:4535   */\n      swap1\n      pop\n        /* \"#utility.yul\":4544:4577   */\n      tag_632\n        /* \"#utility.yul\":4571:4576   */\n      dup2\n        /* \"#utility.yul\":4544:4577   */\n      tag_525\n      jump\t// in\n    tag_632:\n        /* \"#utility.yul\":4444:4583   */\n      swap3\n      swap2\n      pop\n      pop\n      jump\t// out\n        /* \"#utility.yul\":4589:5063   */\n    tag_59:\n        /* \"#utility.yul\":4657:4663   */\n      0x00\n        /* \"#utility.yul\":4665:4671   */\n      dup1\n        /* \"#utility.yul\":4714:4716   */\n      0x40\n        /* \"#utility.yul\":4702:4711   */\n      dup4\n        /* \"#utility.yul\":4693:4700   */\n      dup6\n        /* \"#utility.yul\":4689:4712   */\n      sub\n        /* \"#utility.yul\":4685:4717   */\n      slt\n        /* \"#utility.yul\":4682:4801   */\n      iszero\n      tag_634\n      jumpi\n        /* \"#utility.yul\":4720:4799   */\n      tag_635\n      tag_510\n      jump\t// in\n    tag_635:\n        /* \"#utility.yul\":4682:4801   */\n    tag_634:\n        /* \"#utility.yul\":4840:4841   */\n      0x00\n        /* \"#utility.yul\":4865:4918   */\n      tag_636\n        /* \"#utility.yul\":4910:4917   */\n      dup6\n        /* \"#utility.yul\":4901:4907   */\n      dup3\n        /* \"#utility.yul\":4890:4899   */\n      dup7\n        /* \"#utility.yul\":4886:4908   */\n      add\n        /* \"#utility.yul\":4865:4918   */\n      tag_514\n      jump\t// in\n    tag_636:\n        /* \"#utility.yul\":4855:4918   */\n      swap3\n      pop\n        /* \"#utility.yul\":4811:4928   */\n      pop\n        /* \"#utility.yul\":4967:4969   */\n      0x20\n        /* \"#utility.yul\":4993:5046   */\n      tag_637\n        /* \"#utility.yul\":5038:5045   */\n      dup6\n        /* \"#utility.yul\":5029:5035   */\n      dup3\n        /* \"#utility.yul\":5018:5027   */\n      dup7\n        /* \"#utility.yul\":5014:5036   */\n      add\n        /* \"#utility.yul\":4993:5046   */\n      tag_526\n      jump\t// in\n    tag_637:\n        /* \"#utility.yul\":4983:5046   */\n      swap2\n      pop\n        /* \"#utility.yul\":4938:5056   */\n      pop\n        /* \"#utility.yul\":4589:5063   */\n      swap3\n      pop\n      swap3\n      swap1\n      pop\n      jump\t// out\n        /* \"#utility.yul\":5069:5186   */\n    tag_527:\n        /* \"#utility.yul\":5127:5134   */\n      0x00\n        /* \"#utility.yul\":5156:5180   */\n      tag_639\n        /* \"#utility.yul\":5174:5179   */\n      dup3\n        /* \"#utility.yul\":5156:5180   */\n      tag_524\n      jump\t// in\n    tag_639:\n        /* \"#utility.yul\":5145:5180   */\n      swap1\n      pop\n        /* \"#utility.yul\":5069:5186   */\n      swap2\n      swap1\n      pop\n      jump\t// out\n        /* \"#utility.yul\":5192:5356   */\n    tag_528:\n        /* \"#utility.yul\":5286:5331   */\n      tag_641\n        /* \"#utility.yul\":5325:5330   */\n      dup2\n        /* \"#utility.yul\":5286:5331   */\n      tag_527\n      jump\t// in\n    tag_641:\n        /* \"#utility.yul\":5279:5284   */\n      dup2\n        /* \"#utility.yul\":5276:5332   */\n      eq\n        /* \"#utility.yul\":5266:5350   */\n      tag_642\n      jumpi\n        /* \"#utility.yul\":5346:5347   */\n      0x00\n        /* \"#utility.yul\":5343:5344   */\n      dup1\n        /* \"#utility.yul\":5336:5348   */\n      revert\n        /* \"#utility.yul\":5266:5350   */\n    tag_642:\n        /* \"#utility.yul\":5192:5356   */\n      pop\n      jump\t// out\n        /* \"#utility.yul\":5362:5543   */\n    tag_529:\n        /* \"#utility.yul\":5429:5434   */\n      0x00\n        /* \"#utility.yul\":5467:5473   */\n      dup2\n        /* \"#utility.yul\":5454:5474   */\n      calldataload\n        /* \"#utility.yul\":5445:5474   */\n      swap1\n      pop\n        /* \"#utility.yul\":5483:5537   */\n      tag_644\n        /* \"#utility.yul\":5531:5536   */\n      dup2\n        /* \"#utility.yul\":5483:5537   */\n      tag_528\n      jump\t// in\n    tag_644:\n        /* \"#utility.yul\":5362:5543   */\n      swap3\n      swap2\n      pop\n      pop\n      jump\t// out\n        /* \"#utility.yul\":5549:5920   */\n    tag_64:\n        /* \"#utility.yul\":5629:5635   */\n      0x00\n        /* \"#utility.yul\":5678:5680   */\n      0x20\n        /* \"#utility.yul\":5666:5675   */\n      dup3\n        /* \"#utility.yul\":5657:5664   */\n      dup5\n        /* \"#utility.yul\":5653:5676   */\n      sub\n        /* \"#utility.yul\":5649:5681   */\n      slt\n        /* \"#utility.yul\":5646:5765   */\n      iszero\n      tag_646\n      jumpi\n        /* \"#utility.yul\":5684:5763   */\n      tag_647\n      tag_510\n      jump\t// in\n    tag_647:\n        /* \"#utility.yul\":5646:5765   */\n    tag_646:\n        /* \"#utility.yul\":5804:5805   */\n      0x00\n        /* \"#utility.yul\":5829:5903   */\n      tag_648\n        /* \"#utility.yul\":5895:5902   */\n      dup5\n        /* \"#utility.yul\":5886:5892   */\n      dup3\n        /* \"#utility.yul\":5875:5884   */\n      dup6\n        /* \"#utility.yul\":5871:5893   */\n      add\n        /* \"#utility.yul\":5829:5903   */\n      tag_529\n      jump\t// in\n    tag_648:\n        /* \"#utility.yul\":5819:5903   */\n      swap2\n      pop\n        /* \"#utility.yul\":5775:5913   */\n      pop\n        /* \"#utility.yul\":5549:5920   */\n      swap3\n      swap2\n      pop\n      pop\n      jump\t// out\n        /* \"#utility.yul\":5926:6016   */\n    tag_530:\n        /* \"#utility.yul\":5960:5967   */\n      0x00\n        /* \"#utility.yul\":6003:6008   */\n      dup2\n        /* \"#utility.yul\":5996:6009   */\n      iszero\n        /* \"#utility.yul\":5989:6010   */\n      iszero\n        /* \"#utility.yul\":5978:6010   */\n      swap1\n      pop\n        /* \"#utility.yul\":5926:6016   */\n      swap2\n      swap1\n      pop\n      jump\t// out\n        /* \"#utility.yul\":6022:6138   */\n    tag_531:\n        /* \"#utility.yul\":6092:6113   */\n      tag_651\n        /* \"#utility.yul\":6107:6112   */\n      dup2\n        /* \"#utility.yul\":6092:6113   */\n      tag_530\n      jump\t// in\n    tag_651:\n        /* \"#utility.yul\":6085:6090   */\n      dup2\n        /* \"#utility.yul\":6082:6114   */\n      eq\n        /* \"#utility.yul\":6072:6132   */\n      tag_652\n      jumpi\n        /* \"#utility.yul\":6128:6129   */\n      0x00\n        /* \"#utility.yul\":6125:6126   */\n      dup1\n        /* \"#utility.yul\":6118:6130   */\n      revert\n        /* \"#utility.yul\":6072:6132   */\n    tag_652:\n        /* \"#utility.yul\":6022:6138   */\n      pop\n      jump\t// out\n        /* \"#utility.yul\":6144:6277   */\n    tag_532:\n        /* \"#utility.yul\":6187:6192   */\n      0x00\n        /* \"#utility.yul\":6225:6231   */\n      dup2\n        /* \"#utility.yul\":6212:6232   */\n      calldataload\n        /* \"#utility.yul\":6203:6232   */\n      swap1\n      pop\n        /* \"#utility.yul\":6241:6271   */\n      tag_654\n        /* \"#utility.yul\":6265:6270   */\n      dup2\n        /* \"#utility.yul\":6241:6271   */\n      tag_531\n      jump\t// in\n    tag_654:\n        /* \"#utility.yul\":6144:6277   */\n      swap3\n      swap2\n      pop\n      pop\n      jump\t// out\n        /* \"#utility.yul\":6283:6896   */\n    tag_88:\n        /* \"#utility.yul\":6357:6363   */\n      0x00\n        /* \"#utility.yul\":6365:6371   */\n      dup1\n        /* \"#utility.yul\":6373:6379   */\n      0x00\n        /* \"#utility.yul\":6422:6424   */\n      0x60\n        /* \"#utility.yul\":6410:6419   */\n      dup5\n        /* \"#utility.yul\":6401:6408   */\n      dup7\n        /* \"#utility.yul\":6397:6420   */\n      sub\n        /* \"#utility.yul\":6393:6425   */\n      slt\n        /* \"#utility.yul\":6390:6509   */\n      iszero\n      tag_656\n      jumpi\n        /* \"#utility.yul\":6428:6507   */\n      tag_657\n      tag_510\n      jump\t// in\n    tag_657:\n        /* \"#utility.yul\":6390:6509   */\n    tag_656:\n        /* \"#utility.yul\":6548:6549   */\n      0x00\n        /* \"#utility.yul\":6573:6626   */\n      tag_658\n        /* \"#utility.yul\":6618:6625   */\n      dup7\n        /* \"#utility.yul\":6609:6615   */\n      dup3\n        /* \"#utility.yul\":6598:6607   */\n      dup8\n        /* \"#utility.yul\":6594:6616   */\n      add\n        /* \"#utility.yul\":6573:6626   */\n      tag_514\n      jump\t// in\n    tag_658:\n        /* \"#utility.yul\":6563:6626   */\n      swap4\n      pop\n        /* \"#utility.yul\":6519:6636   */\n      pop\n        /* \"#utility.yul\":6675:6677   */\n      0x20\n        /* \"#utility.yul\":6701:6754   */\n      tag_659\n        /* \"#utility.yul\":6746:6753   */\n      dup7\n        /* \"#utility.yul\":6737:6743   */\n      dup3\n        /* \"#utility.yul\":6726:6735   */\n      dup8\n        /* \"#utility.yul\":6722:6744   */\n      add\n        /* \"#utility.yul\":6701:6754   */\n      tag_514\n      jump\t// in\n    tag_659:\n        /* \"#utility.yul\":6691:6754   */\n      swap3\n      pop\n        /* \"#utility.yul\":6646:6764   */\n      pop\n        /* \"#utility.yul\":6803:6805   */\n      0x40\n        /* \"#utility.yul\":6829:6879   */\n      tag_660\n        /* \"#utility.yul\":6871:6878   */\n      dup7\n        /* \"#utility.yul\":6862:6868   */\n      dup3\n        /* \"#utility.yul\":6851:6860   */\n      dup8\n        /* \"#utility.yul\":6847:6869   */\n      add\n        /* \"#utility.yul\":6829:6879   */\n      tag_532\n      jump\t// in\n    tag_660:\n        /* \"#utility.yul\":6819:6879   */\n      swap2\n      pop\n        /* \"#utility.yul\":6774:6889   */\n      pop\n        /* \"#utility.yul\":6283:6896   */\n      swap3\n      pop\n      swap3\n      pop\n      swap3\n      jump\t// out\n        /* \"#utility.yul\":6902:7012   */\n    tag_533:\n        /* \"#utility.yul\":6953:6960   */\n      0x00\n        /* \"#utility.yul\":6982:7006   */\n      tag_662\n        /* \"#utility.yul\":7000:7005   */\n      dup3\n        /* \"#utility.yul\":6982:7006   */\n      tag_524\n      jump\t// in\n    tag_662:\n        /* \"#utility.yul\":6971:7006   */\n      swap1\n      pop\n        /* \"#utility.yul\":6902:7012   */\n      swap2\n      swap1\n      pop\n      jump\t// out\n        /* \"#utility.yul\":7018:7168   */\n    tag_534:\n        /* \"#utility.yul\":7105:7143   */\n      tag_664\n        /* \"#utility.yul\":7137:7142   */\n      dup2\n        /* \"#utility.yul\":7105:7143   */\n      tag_533\n      jump\t// in\n    tag_664:\n        /* \"#utility.yul\":7098:7103   */\n      dup2\n        /* \"#utility.yul\":7095:7144   */\n      eq\n        /* \"#utility.yul\":7085:7162   */\n      tag_665\n      jumpi\n        /* \"#utility.yul\":7158:7159   */\n      0x00\n        /* \"#utility.yul\":7155:7156   */\n      dup1\n        /* \"#utility.yul\":7148:7160   */\n      revert\n        /* \"#utility.yul\":7085:7162   */\n    tag_665:\n        /* \"#utility.yul\":7018:7168   */\n      pop\n      jump\t// out\n        /* \"#utility.yul\":7174:7341   */\n    tag_535:\n        /* \"#utility.yul\":7234:7239   */\n      0x00\n        /* \"#utility.yul\":7272:7278   */\n      dup2\n        /* \"#utility.yul\":7259:7279   */\n      calldataload\n        /* \"#utility.yul\":7250:7279   */\n      swap1\n      pop\n        /* \"#utility.yul\":7288:7335   */\n      tag_667\n        /* \"#utility.yul\":7329:7334   */\n      dup2\n        /* \"#utility.yul\":7288:7335   */\n      tag_534\n      jump\t// in\n    tag_667:\n        /* \"#utility.yul\":7174:7341   */\n      swap3\n      swap2\n      pop\n      pop\n      jump\t// out\n        /* \"#utility.yul\":7347:7462   */\n    tag_536:\n        /* \"#utility.yul\":7403:7410   */\n      0x00\n        /* \"#utility.yul\":7432:7456   */\n      tag_669\n        /* \"#utility.yul\":7450:7455   */\n      dup3\n        /* \"#utility.yul\":7432:7456   */\n      tag_524\n      jump\t// in\n    tag_669:\n        /* \"#utility.yul\":7421:7456   */\n      swap1\n      pop\n        /* \"#utility.yul\":7347:7462   */\n      swap2\n      swap1\n      pop\n      jump\t// out\n        /* \"#utility.yul\":7468:7628   */\n    tag_537:\n        /* \"#utility.yul\":7560:7603   */\n      tag_671\n        /* \"#utility.yul\":7597:7602   */\n      dup2\n        /* \"#utility.yul\":7560:7603   */\n      tag_536\n      jump\t// in\n    tag_671:\n        /* \"#utility.yul\":7553:7558   */\n      dup2\n        /* \"#utility.yul\":7550:7604   */\n      eq\n        /* \"#utility.yul\":7540:7622   */\n      tag_672\n      jumpi\n        /* \"#utility.yul\":7618:7619   */\n      0x00\n        /* \"#utility.yul\":7615:7616   */\n      dup1\n        /* \"#utility.yul\":7608:7620   */\n      revert\n        /* \"#utility.yul\":7540:7622   */\n    tag_672:\n        /* \"#utility.yul\":7468:7628   */\n      pop\n      jump\t// out\n        /* \"#utility.yul\":7634:7811   */\n    tag_538:\n        /* \"#utility.yul\":7699:7704   */\n      0x00\n        /* \"#utility.yul\":7737:7743   */\n      dup2\n        /* \"#utility.yul\":7724:7744   */\n      calldataload\n        /* \"#utility.yul\":7715:7744   */\n      swap1\n      pop\n        /* \"#utility.yul\":7753:7805   */\n      tag_674\n        /* \"#utility.yul\":7799:7804   */\n      dup2\n        /* \"#utility.yul\":7753:7805   */\n      tag_537\n      jump\t// in\n    tag_674:\n        /* \"#utility.yul\":7634:7811   */\n      swap3\n      swap2\n      pop\n      pop\n      jump\t// out\n        /* \"#utility.yul\":7817:9108   */\n    tag_92:\n        /* \"#utility.yul\":7974:7980   */\n      0x00\n        /* \"#utility.yul\":7982:7988   */\n      dup1\n        /* \"#utility.yul\":7990:7996   */\n      0x00\n        /* \"#utility.yul\":7998:8004   */\n      dup1\n        /* \"#utility.yul\":8006:8012   */\n      0x00\n        /* \"#utility.yul\":8014:8020   */\n      dup1\n        /* \"#utility.yul\":8022:8028   */\n      0x00\n        /* \"#utility.yul\":8071:8074   */\n      0xe0\n        /* \"#utility.yul\":8059:8068   */\n      dup9\n        /* \"#utility.yul\":8050:8057   */\n      dup11\n        /* \"#utility.yul\":8046:8069   */\n      sub\n        /* \"#utility.yul\":8042:8075   */\n      slt\n        /* \"#utility.yul\":8039:8159   */\n      iszero\n      tag_676\n      jumpi\n        /* \"#utility.yul\":8078:8157   */\n      tag_677\n      tag_510\n      jump\t// in\n    tag_677:\n        /* \"#utility.yul\":8039:8159   */\n    tag_676:\n        /* \"#utility.yul\":8198:8199   */\n      0x00\n        /* \"#utility.yul\":8223:8276   */\n      tag_678\n        /* \"#utility.yul\":8268:8275   */\n      dup11\n        /* \"#utility.yul\":8259:8265   */\n      dup3\n        /* \"#utility.yul\":8248:8257   */\n      dup12\n        /* \"#utility.yul\":8244:8266   */\n      add\n        /* \"#utility.yul\":8223:8276   */\n      tag_514\n      jump\t// in\n    tag_678:\n        /* \"#utility.yul\":8213:8276   */\n      swap8\n      pop\n        /* \"#utility.yul\":8169:8286   */\n      pop\n        /* \"#utility.yul\":8325:8327   */\n      0x20\n        /* \"#utility.yul\":8351:8418   */\n      tag_679\n        /* \"#utility.yul\":8410:8417   */\n      dup11\n        /* \"#utility.yul\":8401:8407   */\n      dup3\n        /* \"#utility.yul\":8390:8399   */\n      dup12\n        /* \"#utility.yul\":8386:8408   */\n      add\n        /* \"#utility.yul\":8351:8418   */\n      tag_535\n      jump\t// in\n    tag_679:\n        /* \"#utility.yul\":8341:8418   */\n      swap7\n      pop\n        /* \"#utility.yul\":8296:8428   */\n      pop\n        /* \"#utility.yul\":8467:8469   */\n      0x40\n        /* \"#utility.yul\":8493:8543   */\n      tag_680\n        /* \"#utility.yul\":8535:8542   */\n      dup11\n        /* \"#utility.yul\":8526:8532   */\n      dup3\n        /* \"#utility.yul\":8515:8524   */\n      dup12\n        /* \"#utility.yul\":8511:8533   */\n      add\n        /* \"#utility.yul\":8493:8543   */\n      tag_532\n      jump\t// in\n    tag_680:\n        /* \"#utility.yul\":8483:8543   */\n      swap6\n      pop\n        /* \"#utility.yul\":8438:8553   */\n      pop\n        /* \"#utility.yul\":8592:8594   */\n      0x60\n        /* \"#utility.yul\":8618:8690   */\n      tag_681\n        /* \"#utility.yul\":8682:8689   */\n      dup11\n        /* \"#utility.yul\":8673:8679   */\n      dup3\n        /* \"#utility.yul\":8662:8671   */\n      dup12\n        /* \"#utility.yul\":8658:8680   */\n      add\n        /* \"#utility.yul\":8618:8690   */\n      tag_538\n      jump\t// in\n    tag_681:\n        /* \"#utility.yul\":8608:8690   */\n      swap5\n      pop\n        /* \"#utility.yul\":8563:8700   */\n      pop\n        /* \"#utility.yul\":8739:8742   */\n      0x80\n        /* \"#utility.yul\":8766:8833   */\n      tag_682\n        /* \"#utility.yul\":8825:8832   */\n      dup11\n        /* \"#utility.yul\":8816:8822   */\n      dup3\n        /* \"#utility.yul\":8805:8814   */\n      dup12\n        /* \"#utility.yul\":8801:8823   */\n      add\n        /* \"#utility.yul\":8766:8833   */\n      tag_535\n      jump\t// in\n    tag_682:\n        /* \"#utility.yul\":8756:8833   */\n      swap4\n      pop\n        /* \"#utility.yul\":8710:8843   */\n      pop\n        /* \"#utility.yul\":8882:8885   */\n      0xa0\n        /* \"#utility.yul\":8909:8962   */\n      tag_683\n        /* \"#utility.yul\":8954:8961   */\n      dup11\n        /* \"#utility.yul\":8945:8951   */\n      dup3\n        /* \"#utility.yul\":8934:8943   */\n      dup12\n        /* \"#utility.yul\":8930:8952   */\n      add\n        /* \"#utility.yul\":8909:8962   */\n      tag_514\n      jump\t// in\n    tag_683:\n        /* \"#utility.yul\":8899:8962   */\n      swap3\n      pop\n        /* \"#utility.yul\":8853:8972   */\n      pop\n        /* \"#utility.yul\":9011:9014   */\n      0xc0\n        /* \"#utility.yul\":9038:9091   */\n      tag_684\n        /* \"#utility.yul\":9083:9090   */\n      dup11\n        /* \"#utility.yul\":9074:9080   */\n      dup3\n        /* \"#utility.yul\":9063:9072   */\n      dup12\n        /* \"#utility.yul\":9059:9081   */\n      add\n        /* \"#utility.yul\":9038:9091   */\n      tag_514\n      jump\t// in\n    tag_684:\n        /* \"#utility.yul\":9028:9091   */\n      swap2\n      pop\n        /* \"#utility.yul\":8982:9101   */\n      pop\n        /* \"#utility.yul\":7817:9108   */\n      swap3\n      swap6\n      swap9\n      swap2\n      swap5\n      swap8\n      pop\n      swap3\n      swap6\n      pop\n      jump\t// out\n        /* \"#utility.yul\":9114:9261   */\n    tag_539:\n        /* \"#utility.yul\":9185:9194   */\n      0x00\n        /* \"#utility.yul\":9218:9255   */\n      tag_686\n        /* \"#utility.yul\":9249:9254   */\n      dup3\n        /* \"#utility.yul\":9218:9255   */\n      tag_519\n      jump\t// in\n    tag_686:\n        /* \"#utility.yul\":9205:9255   */\n      swap1\n      pop\n        /* \"#utility.yul\":9114:9261   */\n      swap2\n      swap1\n      pop\n      jump\t// out\n        /* \"#utility.yul\":9267:9440   */\n    tag_540:\n        /* \"#utility.yul\":9375:9433   */\n      tag_688\n        /* \"#utility.yul\":9427:9432   */\n      dup2\n        /* \"#utility.yul\":9375:9433   */\n      tag_539\n      jump\t// in\n    tag_688:\n        /* \"#utility.yul\":9370:9373   */\n      dup3\n        /* \"#utility.yul\":9363:9434   */\n      mstore\n        /* \"#utility.yul\":9267:9440   */\n      pop\n      pop\n      jump\t// out\n        /* \"#utility.yul\":9446:9710   */\n    tag_106:\n        /* \"#utility.yul\":9560:9564   */\n      0x00\n        /* \"#utility.yul\":9598:9600   */\n      0x20\n        /* \"#utility.yul\":9587:9596   */\n      dup3\n        /* \"#utility.yul\":9583:9601   */\n      add\n        /* \"#utility.yul\":9575:9601   */\n      swap1\n      pop\n        /* \"#utility.yul\":9611:9703   */\n      tag_690\n        /* \"#utility.yul\":9700:9701   */\n      0x00\n        /* \"#utility.yul\":9689:9698   */\n      dup4\n        /* \"#utility.yul\":9685:9702   */\n      add\n        /* \"#utility.yul\":9676:9682   */\n      dup5\n        /* \"#utility.yul\":9611:9703   */\n      tag_540\n      jump\t// in\n    tag_690:\n        /* \"#utility.yul\":9446:9710   */\n      swap3\n      swap2\n      pop\n      pop\n      jump\t// out\n        /* \"#utility.yul\":9716:9834   */\n    tag_541:\n        /* \"#utility.yul\":9803:9827   */\n      tag_692\n        /* \"#utility.yul\":9821:9826   */\n      dup2\n        /* \"#utility.yul\":9803:9827   */\n      tag_524\n      jump\t// in\n    tag_692:\n        /* \"#utility.yul\":9798:9801   */\n      dup3\n        /* \"#utility.yul\":9791:9828   */\n      mstore\n        /* \"#utility.yul\":9716:9834   */\n      pop\n      pop\n      jump\t// out\n        /* \"#utility.yul\":9840:10062   */\n    tag_113:\n        /* \"#utility.yul\":9933:9937   */\n      0x00\n        /* \"#utility.yul\":9971:9973   */\n      0x20\n        /* \"#utility.yul\":9960:9969   */\n      dup3\n        /* \"#utility.yul\":9956:9974   */\n      add\n        /* \"#utility.yul\":9948:9974   */\n      swap1\n      pop\n        /* \"#utility.yul\":9984:10055   */\n      tag_694\n        /* \"#utility.yul\":10052:10053   */\n      0x00\n        /* \"#utility.yul\":10041:10050   */\n      dup4\n        /* \"#utility.yul\":10037:10054   */\n      add\n        /* \"#utility.yul\":10028:10034   */\n      dup5\n        /* \"#utility.yul\":9984:10055   */\n      tag_541\n      jump\t// in\n    tag_694:\n        /* \"#utility.yul\":9840:10062   */\n      swap3\n      swap2\n      pop\n      pop\n      jump\t// out\n        /* \"#utility.yul\":10068:10542   */\n    tag_116:\n        /* \"#utility.yul\":10136:10142   */\n      0x00\n        /* \"#utility.yul\":10144:10150   */\n      dup1\n        /* \"#utility.yul\":10193:10195   */\n      0x40\n        /* \"#utility.yul\":10181:10190   */\n      dup4\n        /* \"#utility.yul\":10172:10179   */\n      dup6\n        /* \"#utility.yul\":10168:10191   */\n      sub\n        /* \"#utility.yul\":10164:10196   */\n      slt\n        /* \"#utility.yul\":10161:10280   */\n      iszero\n      tag_696\n      jumpi\n        /* \"#utility.yul\":10199:10278   */\n      tag_697\n      tag_510\n      jump\t// in\n    tag_697:\n        /* \"#utility.yul\":10161:10280   */\n    tag_696:\n        /* \"#utility.yul\":10319:10320   */\n      0x00\n        /* \"#utility.yul\":10344:10397   */\n      tag_698\n        /* \"#utility.yul\":10389:10396   */\n      dup6\n        /* \"#utility.yul\":10380:10386   */\n      dup3\n        /* \"#utility.yul\":10369:10378   */\n      dup7\n        /* \"#utility.yul\":10365:10387   */\n      add\n        /* \"#utility.yul\":10344:10397   */\n      tag_514\n      jump\t// in\n    tag_698:\n        /* \"#utility.yul\":10334:10397   */\n      swap3\n      pop\n        /* \"#utility.yul\":10290:10407   */\n      pop\n        /* \"#utility.yul\":10446:10448   */\n      0x20\n        /* \"#utility.yul\":10472:10525   */\n      tag_699\n        /* \"#utility.yul\":10517:10524   */\n      dup6\n        /* \"#utility.yul\":10508:10514   */\n      dup3\n        /* \"#utility.yul\":10497:10506   */\n      dup7\n        /* \"#utility.yul\":10493:10515   */\n      add\n        /* \"#utility.yul\":10472:10525   */\n      tag_514\n      jump\t// in\n    tag_699:\n        /* \"#utility.yul\":10462:10525   */\n      swap2\n      pop\n        /* \"#utility.yul\":10417:10535   */\n      pop\n        /* \"#utility.yul\":10068:10542   */\n      swap3\n      pop\n      swap3\n      swap1\n      pop\n      jump\t// out\n        /* \"#utility.yul\":10548:10880   */\n    tag_123:\n        /* \"#utility.yul\":10669:10673   */\n      0x00\n        /* \"#utility.yul\":10707:10709   */\n      0x40\n        /* \"#utility.yul\":10696:10705   */\n      dup3\n        /* \"#utility.yul\":10692:10710   */\n      add\n        /* \"#utility.yul\":10684:10710   */\n      swap1\n      pop\n        /* \"#utility.yul\":10720:10791   */\n      tag_701\n        /* \"#utility.yul\":10788:10789   */\n      0x00\n        /* \"#utility.yul\":10777:10786   */\n      dup4\n        /* \"#utility.yul\":10773:10790   */\n      add\n        /* \"#utility.yul\":10764:10770   */\n      dup6\n        /* \"#utility.yul\":10720:10791   */\n      tag_515\n      jump\t// in\n    tag_701:\n        /* \"#utility.yul\":10801:10873   */\n      tag_702\n        /* \"#utility.yul\":10869:10871   */\n      0x20\n        /* \"#utility.yul\":10858:10867   */\n      dup4\n        /* \"#utility.yul\":10854:10872   */\n      add\n        /* \"#utility.yul\":10845:10851   */\n      dup5\n        /* \"#utility.yul\":10801:10873   */\n      tag_515\n      jump\t// in\n    tag_702:\n        /* \"#utility.yul\":10548:10880   */\n      swap4\n      swap3\n      pop\n      pop\n      pop\n      jump\t// out\n        /* \"#utility.yul\":10886:11136   */\n    tag_130:\n        /* \"#utility.yul\":10993:10997   */\n      0x00\n        /* \"#utility.yul\":11031:11033   */\n      0x20\n        /* \"#utility.yul\":11020:11029   */\n      dup3\n        /* \"#utility.yul\":11016:11034   */\n      add\n        /* \"#utility.yul\":11008:11034   */\n      swap1\n      pop\n        /* \"#utility.yul\":11044:11129   */\n      tag_704\n        /* \"#utility.yul\":11126:11127   */\n      0x00\n        /* \"#utility.yul\":11115:11124   */\n      dup4\n        /* \"#utility.yul\":11111:11128   */\n      add\n        /* \"#utility.yul\":11102:11108   */\n      dup5\n        /* \"#utility.yul\":11044:11129   */\n      tag_521\n      jump\t// in\n    tag_704:\n        /* \"#utility.yul\":10886:11136   */\n      swap3\n      swap2\n      pop\n      pop\n      jump\t// out\n        /* \"#utility.yul\":11142:11471   */\n    tag_133:\n        /* \"#utility.yul\":11201:11207   */\n      0x00\n        /* \"#utility.yul\":11250:11252   */\n      0x20\n        /* \"#utility.yul\":11238:11247   */\n      dup3\n        /* \"#utility.yul\":11229:11236   */\n      dup5\n        /* \"#utility.yul\":11225:11248   */\n      sub\n        /* \"#utility.yul\":11221:11253   */\n      slt\n        /* \"#utility.yul\":11218:11337   */\n      iszero\n      tag_706\n      jumpi\n        /* \"#utility.yul\":11256:11335   */\n      tag_707\n      tag_510\n      jump\t// in\n    tag_707:\n        /* \"#utility.yul\":11218:11337   */\n    tag_706:\n        /* \"#utility.yul\":11376:11377   */\n      0x00\n        /* \"#utility.yul\":11401:11454   */\n      tag_708\n        /* \"#utility.yul\":11446:11453   */\n      dup5\n        /* \"#utility.yul\":11437:11443   */\n      dup3\n        /* \"#utility.yul\":11426:11435   */\n      dup6\n        /* \"#utility.yul\":11422:11444   */\n      add\n        /* \"#utility.yul\":11401:11454   */\n      tag_526\n      jump\t// in\n    tag_708:\n        /* \"#utility.yul\":11391:11454   */\n      swap2\n      pop\n        /* \"#utility.yul\":11347:11464   */\n      pop\n        /* \"#utility.yul\":11142:11471   */\n      swap3\n      swap2\n      pop\n      pop\n      jump\t// out\n        /* \"#utility.yul\":11477:11657   */\n    tag_150:\n        /* \"#utility.yul\":11525:11602   */\n      0x4e487b7100000000000000000000000000000000000000000000000000000000\n        /* \"#utility.yul\":11522:11523   */\n      0x00\n        /* \"#utility.yul\":11515:11603   */\n      mstore\n        /* \"#utility.yul\":11622:11626   */\n      0x32\n        /* \"#utility.yul\":11619:11620   */\n      0x04\n        /* \"#utility.yul\":11612:11627   */\n      mstore\n        /* \"#utility.yul\":11646:11650   */\n      0x24\n        /* \"#utility.yul\":11643:11644   */\n      0x00\n        /* \"#utility.yul\":11636:11651   */\n      revert\n        /* \"#utility.yul\":11663:11995   */\n    tag_164:\n        /* \"#utility.yul\":11784:11788   */\n      0x00\n        /* \"#utility.yul\":11822:11824   */\n      0x40\n        /* \"#utility.yul\":11811:11820   */\n      dup3\n        /* \"#utility.yul\":11807:11825   */\n      add\n        /* \"#utility.yul\":11799:11825   */\n      swap1\n      pop\n        /* \"#utility.yul\":11835:11906   */\n      tag_711\n        /* \"#utility.yul\":11903:11904   */\n      0x00\n        /* \"#utility.yul\":11892:11901   */\n      dup4\n        /* \"#utility.yul\":11888:11905   */\n      add\n        /* \"#utility.yul\":11879:11885   */\n      dup6\n        /* \"#utility.yul\":11835:11906   */\n      tag_541\n      jump\t// in\n    tag_711:\n        /* \"#utility.yul\":11916:11988   */\n      tag_712\n        /* \"#utility.yul\":11984:11986   */\n      0x20\n        /* \"#utility.yul\":11973:11982   */\n      dup4\n        /* \"#utility.yul\":11969:11987   */\n      add\n        /* \"#utility.yul\":11960:11966   */\n      dup5\n        /* \"#utility.yul\":11916:11988   */\n      tag_541\n      jump\t// in\n    tag_712:\n        /* \"#utility.yul\":11663:11995   */\n      swap4\n      swap3\n      pop\n      pop\n      pop\n      jump\t// out\n        /* \"#utility.yul\":12001:12144   */\n    tag_542:\n        /* \"#utility.yul\":12058:12063   */\n      0x00\n        /* \"#utility.yul\":12089:12095   */\n      dup2\n        /* \"#utility.yul\":12083:12096   */\n      mload\n        /* \"#utility.yul\":12074:12096   */\n      swap1\n      pop\n        /* \"#utility.yul\":12105:12138   */\n      tag_714\n        /* \"#utility.yul\":12132:12137   */\n      dup2\n        /* \"#utility.yul\":12105:12138   */\n      tag_513\n      jump\t// in\n    tag_714:\n        /* \"#utility.yul\":12001:12144   */\n      swap3\n      swap2\n      pop\n      pop\n      jump\t// out\n        /* \"#utility.yul\":12150:12501   */\n    tag_168:\n        /* \"#utility.yul\":12220:12226   */\n      0x00\n        /* \"#utility.yul\":12269:12271   */\n      0x20\n        /* \"#utility.yul\":12257:12266   */\n      dup3\n        /* \"#utility.yul\":12248:12255   */\n      dup5\n        /* \"#utility.yul\":12244:12267   */\n      sub\n        /* \"#utility.yul\":12240:12272   */\n      slt\n        /* \"#utility.yul\":12237:12356   */\n      iszero\n      tag_716\n      jumpi\n        /* \"#utility.yul\":12275:12354   */\n      tag_717\n      tag_510\n      jump\t// in\n    tag_717:\n        /* \"#utility.yul\":12237:12356   */\n    tag_716:\n        /* \"#utility.yul\":12395:12396   */\n      0x00\n        /* \"#utility.yul\":12420:12484   */\n      tag_718\n        /* \"#utility.yul\":12476:12483   */\n      dup5\n        /* \"#utility.yul\":12467:12473   */\n      dup3\n        /* \"#utility.yul\":12456:12465   */\n      dup6\n        /* \"#utility.yul\":12452:12474   */\n      add\n        /* \"#utility.yul\":12420:12484   */\n      tag_542\n      jump\t// in\n    tag_718:\n        /* \"#utility.yul\":12410:12484   */\n      swap2\n      pop\n        /* \"#utility.yul\":12366:12494   */\n      pop\n        /* \"#utility.yul\":12150:12501   */\n      swap3\n      swap2\n      pop\n      pop\n      jump\t// out\n        /* \"#utility.yul\":12507:12676   */\n    tag_543:\n        /* \"#utility.yul\":12591:12602   */\n      0x00\n        /* \"#utility.yul\":12625:12631   */\n      dup3\n        /* \"#utility.yul\":12620:12623   */\n      dup3\n        /* \"#utility.yul\":12613:12632   */\n      mstore\n        /* \"#utility.yul\":12665:12669   */\n      0x20\n        /* \"#utility.yul\":12660:12663   */\n      dup3\n        /* \"#utility.yul\":12656:12670   */\n      add\n        /* \"#utility.yul\":12641:12670   */\n      swap1\n      pop\n        /* \"#utility.yul\":12507:12676   */\n      swap3\n      swap2\n      pop\n      pop\n      jump\t// out\n        /* \"#utility.yul\":12682:12864   */\n    tag_544:\n        /* \"#utility.yul\":12822:12856   */\n      0x4f776e61626c653a2063616c6c6572206973206e6f7420746865206f776e6572\n        /* \"#utility.yul\":12818:12819   */\n      0x00\n        /* \"#utility.yul\":12810:12816   */\n      dup3\n        /* \"#utility.yul\":12806:12820   */\n      add\n        /* \"#utility.yul\":12799:12857   */\n      mstore\n        /* \"#utility.yul\":12682:12864   */\n      pop\n      jump\t// out\n        /* \"#utility.yul\":12870:13236   */\n    tag_545:\n        /* \"#utility.yul\":13012:13015   */\n      0x00\n        /* \"#utility.yul\":13033:13100   */\n      tag_722\n        /* \"#utility.yul\":13097:13099   */\n      0x20\n        /* \"#utility.yul\":13092:13095   */\n      dup4\n        /* \"#utility.yul\":13033:13100   */\n      tag_543\n      jump\t// in\n    tag_722:\n        /* \"#utility.yul\":13026:13100   */\n      swap2\n      pop\n        /* \"#utility.yul\":13109:13202   */\n      tag_723\n        /* \"#utility.yul\":13198:13201   */\n      dup3\n        /* \"#utility.yul\":13109:13202   */\n      tag_544\n      jump\t// in\n    tag_723:\n        /* \"#utility.yul\":13227:13229   */\n      0x20\n        /* \"#utility.yul\":13222:13225   */\n      dup3\n        /* \"#utility.yul\":13218:13230   */\n      add\n        /* \"#utility.yul\":13211:13230   */\n      swap1\n      pop\n        /* \"#utility.yul\":12870:13236   */\n      swap2\n      swap1\n      pop\n      jump\t// out\n        /* \"#utility.yul\":13242:13661   */\n    tag_225:\n        /* \"#utility.yul\":13408:13412   */\n      0x00\n        /* \"#utility.yul\":13446:13448   */\n      0x20\n        /* \"#utility.yul\":13435:13444   */\n      dup3\n        /* \"#utility.yul\":13431:13449   */\n      add\n        /* \"#utility.yul\":13423:13449   */\n      swap1\n      pop\n        /* \"#utility.yul\":13495:13504   */\n      dup2\n        /* \"#utility.yul\":13489:13493   */\n      dup2\n        /* \"#utility.yul\":13485:13505   */\n      sub\n        /* \"#utility.yul\":13481:13482   */\n      0x00\n        /* \"#utility.yul\":13470:13479   */\n      dup4\n        /* \"#utility.yul\":13466:13483   */\n      add\n        /* \"#utility.yul\":13459:13506   */\n      mstore\n        /* \"#utility.yul\":13523:13654   */\n      tag_725\n        /* \"#utility.yul\":13649:13653   */\n      dup2\n        /* \"#utility.yul\":13523:13654   */\n      tag_545\n      jump\t// in\n    tag_725:\n        /* \"#utility.yul\":13515:13654   */\n      swap1\n      pop\n        /* \"#utility.yul\":13242:13661   */\n      swap2\n      swap1\n      pop\n      jump\t// out\n        /* \"#utility.yul\":13667:13837   */\n    tag_546:\n        /* \"#utility.yul\":13807:13829   */\n      0x6d6967726174653a206e6f206d69677261746f72000000000000000000000000\n        /* \"#utility.yul\":13803:13804   */\n      0x00\n        /* \"#utility.yul\":13795:13801   */\n      dup3\n        /* \"#utility.yul\":13791:13805   */\n      add\n        /* \"#utility.yul\":13784:13830   */\n      mstore\n        /* \"#utility.yul\":13667:13837   */\n      pop\n      jump\t// out\n        /* \"#utility.yul\":13843:14209   */\n    tag_547:\n        /* \"#utility.yul\":13985:13988   */\n      0x00\n        /* \"#utility.yul\":14006:14073   */\n      tag_728\n        /* \"#utility.yul\":14070:14072   */\n      0x14\n        /* \"#utility.yul\":14065:14068   */\n      dup4\n        /* \"#utility.yul\":14006:14073   */\n      tag_543\n      jump\t// in\n    tag_728:\n        /* \"#utility.yul\":13999:14073   */\n      swap2\n      pop\n        /* \"#utility.yul\":14082:14175   */\n      tag_729\n        /* \"#utility.yul\":14171:14174   */\n      dup3\n        /* \"#utility.yul\":14082:14175   */\n      tag_546\n      jump\t// in\n    tag_729:\n        /* \"#utility.yul\":14200:14202   */\n      0x20\n        /* \"#utility.yul\":14195:14198   */\n      dup3\n        /* \"#utility.yul\":14191:14203   */\n      add\n        /* \"#utility.yul\":14184:14203   */\n      swap1\n      pop\n        /* \"#utility.yul\":13843:14209   */\n      swap2\n      swap1\n      pop\n      jump\t// out\n        /* \"#utility.yul\":14215:14634   */\n    tag_230:\n        /* \"#utility.yul\":14381:14385   */\n      0x00\n        /* \"#utility.yul\":14419:14421   */\n      0x20\n        /* \"#utility.yul\":14408:14417   */\n      dup3\n        /* \"#utility.yul\":14404:14422   */\n      add\n        /* \"#utility.yul\":14396:14422   */\n      swap1\n      pop\n        /* \"#utility.yul\":14468:14477   */\n      dup2\n        /* \"#utility.yul\":14462:14466   */\n      dup2\n        /* \"#utility.yul\":14458:14478   */\n      sub\n        /* \"#utility.yul\":14454:14455   */\n      0x00\n        /* \"#utility.yul\":14443:14452   */\n      dup4\n        /* \"#utility.yul\":14439:14456   */\n      add\n        /* \"#utility.yul\":14432:14479   */\n      mstore\n        /* \"#utility.yul\":14496:14627   */\n      tag_731\n        /* \"#utility.yul\":14622:14626   */\n      dup2\n        /* \"#utility.yul\":14496:14627   */\n      tag_547\n      jump\t// in\n    tag_731:\n        /* \"#utility.yul\":14488:14627   */\n      swap1\n      pop\n        /* \"#utility.yul\":14215:14634   */\n      swap2\n      swap1\n      pop\n      jump\t// out\n        /* \"#utility.yul\":14640:14811   */\n    tag_548:\n        /* \"#utility.yul\":14711:14716   */\n      0x00\n        /* \"#utility.yul\":14742:14748   */\n      dup2\n        /* \"#utility.yul\":14736:14749   */\n      mload\n        /* \"#utility.yul\":14727:14749   */\n      swap1\n      pop\n        /* \"#utility.yul\":14758:14805   */\n      tag_733\n        /* \"#utility.yul\":14799:14804   */\n      dup2\n        /* \"#utility.yul\":14758:14805   */\n      tag_534\n      jump\t// in\n    tag_733:\n        /* \"#utility.yul\":14640:14811   */\n      swap3\n      swap2\n      pop\n      pop\n      jump\t// out\n        /* \"#utility.yul\":14817:15196   */\n    tag_240:\n        /* \"#utility.yul\":14901:14907   */\n      0x00\n        /* \"#utility.yul\":14950:14952   */\n      0x20\n        /* \"#utility.yul\":14938:14947   */\n      dup3\n        /* \"#utility.yul\":14929:14936   */\n      dup5\n        /* \"#utility.yul\":14925:14948   */\n      sub\n        /* \"#utility.yul\":14921:14953   */\n      slt\n        /* \"#utility.yul\":14918:15037   */\n      iszero\n      tag_735\n      jumpi\n        /* \"#utility.yul\":14956:15035   */\n      tag_736\n      tag_510\n      jump\t// in\n    tag_736:\n        /* \"#utility.yul\":14918:15037   */\n    tag_735:\n        /* \"#utility.yul\":15076:15077   */\n      0x00\n        /* \"#utility.yul\":15101:15179   */\n      tag_737\n        /* \"#utility.yul\":15171:15178   */\n      dup5\n        /* \"#utility.yul\":15162:15168   */\n      dup3\n        /* \"#utility.yul\":15151:15160   */\n      dup6\n        /* \"#utility.yul\":15147:15169   */\n      add\n        /* \"#utility.yul\":15101:15179   */\n      tag_548\n      jump\t// in\n    tag_737:\n        /* \"#utility.yul\":15091:15179   */\n      swap2\n      pop\n        /* \"#utility.yul\":15047:15189   */\n      pop\n        /* \"#utility.yul\":14817:15196   */\n      swap3\n      swap2\n      pop\n      pop\n      jump\t// out\n        /* \"#utility.yul\":15202:15364   */\n    tag_549:\n        /* \"#utility.yul\":15342:15356   */\n      0x6d6967726174653a206261640000000000000000000000000000000000000000\n        /* \"#utility.yul\":15338:15339   */\n      0x00\n        /* \"#utility.yul\":15330:15336   */\n      dup3\n        /* \"#utility.yul\":15326:15340   */\n      add\n        /* \"#utility.yul\":15319:15357   */\n      mstore\n        /* \"#utility.yul\":15202:15364   */\n      pop\n      jump\t// out\n        /* \"#utility.yul\":15370:15736   */\n    tag_550:\n        /* \"#utility.yul\":15512:15515   */\n      0x00\n        /* \"#utility.yul\":15533:15600   */\n      tag_740\n        /* \"#utility.yul\":15597:15599   */\n      0x0c\n        /* \"#utility.yul\":15592:15595   */\n      dup4\n        /* \"#utility.yul\":15533:15600   */\n      tag_543\n      jump\t// in\n    tag_740:\n        /* \"#utility.yul\":15526:15600   */\n      swap2\n      pop\n        /* \"#utility.yul\":15609:15702   */\n      tag_741\n        /* \"#utility.yul\":15698:15701   */\n      dup3\n        /* \"#utility.yul\":15609:15702   */\n      tag_549\n      jump\t// in\n    tag_741:\n        /* \"#utility.yul\":15727:15729   */\n      0x20\n        /* \"#utility.yul\":15722:15725   */\n      dup3\n        /* \"#utility.yul\":15718:15730   */\n      add\n        /* \"#utility.yul\":15711:15730   */\n      swap1\n      pop\n        /* \"#utility.yul\":15370:15736   */\n      swap2\n      swap1\n      pop\n      jump\t// out\n        /* \"#utility.yul\":15742:16161   */\n    tag_247:\n        /* \"#utility.yul\":15908:15912   */\n      0x00\n        /* \"#utility.yul\":15946:15948   */\n      0x20\n        /* \"#utility.yul\":15935:15944   */\n      dup3\n        /* \"#utility.yul\":15931:15949   */\n      add\n        /* \"#utility.yul\":15923:15949   */\n      swap1\n      pop\n        /* \"#utility.yul\":15995:16004   */\n      dup2\n        /* \"#utility.yul\":15989:15993   */\n      dup2\n        /* \"#utility.yul\":15985:16005   */\n      sub\n        /* \"#utility.yul\":15981:15982   */\n      0x00\n        /* \"#utility.yul\":15970:15979   */\n      dup4\n        /* \"#utility.yul\":15966:15983   */\n      add\n        /* \"#utility.yul\":15959:16006   */\n      mstore\n        /* \"#utility.yul\":16023:16154   */\n      tag_743\n        /* \"#utility.yul\":16149:16153   */\n      dup2\n        /* \"#utility.yul\":16023:16154   */\n      tag_550\n      jump\t// in\n    tag_743:\n        /* \"#utility.yul\":16015:16154   */\n      swap1\n      pop\n        /* \"#utility.yul\":15742:16161   */\n      swap2\n      swap1\n      pop\n      jump\t// out\n        /* \"#utility.yul\":16167:16499   */\n    tag_259:\n        /* \"#utility.yul\":16288:16292   */\n      0x00\n        /* \"#utility.yul\":16326:16328   */\n      0x40\n        /* \"#utility.yul\":16315:16324   */\n      dup3\n        /* \"#utility.yul\":16311:16329   */\n      add\n        /* \"#utility.yul\":16303:16329   */\n      swap1\n      pop\n        /* \"#utility.yul\":16339:16410   */\n      tag_745\n        /* \"#utility.yul\":16407:16408   */\n      0x00\n        /* \"#utility.yul\":16396:16405   */\n      dup4\n        /* \"#utility.yul\":16392:16409   */\n      add\n        /* \"#utility.yul\":16383:16389   */\n      dup6\n        /* \"#utility.yul\":16339:16410   */\n      tag_541\n      jump\t// in\n    tag_745:\n        /* \"#utility.yul\":16420:16492   */\n      tag_746\n        /* \"#utility.yul\":16488:16490   */\n      0x20\n        /* \"#utility.yul\":16477:16486   */\n      dup4\n        /* \"#utility.yul\":16473:16491   */\n      add\n        /* \"#utility.yul\":16464:16470   */\n      dup5\n        /* \"#utility.yul\":16420:16492   */\n      tag_515\n      jump\t// in\n    tag_746:\n        /* \"#utility.yul\":16167:16499   */\n      swap4\n      swap3\n      pop\n      pop\n      pop\n      jump\t// out\n        /* \"#utility.yul\":16505:16642   */\n    tag_551:\n        /* \"#utility.yul\":16559:16564   */\n      0x00\n        /* \"#utility.yul\":16590:16596   */\n      dup2\n        /* \"#utility.yul\":16584:16597   */\n      mload\n        /* \"#utility.yul\":16575:16597   */\n      swap1\n      pop\n        /* \"#utility.yul\":16606:16636   */\n      tag_748\n        /* \"#utility.yul\":16630:16635   */\n      dup2\n        /* \"#utility.yul\":16606:16636   */\n      tag_531\n      jump\t// in\n    tag_748:\n        /* \"#utility.yul\":16505:16642   */\n      swap3\n      swap2\n      pop\n      pop\n      jump\t// out\n        /* \"#utility.yul\":16648:16993   */\n    tag_263:\n        /* \"#utility.yul\":16715:16721   */\n      0x00\n        /* \"#utility.yul\":16764:16766   */\n      0x20\n        /* \"#utility.yul\":16752:16761   */\n      dup3\n        /* \"#utility.yul\":16743:16750   */\n      dup5\n        /* \"#utility.yul\":16739:16762   */\n      sub\n        /* \"#utility.yul\":16735:16767   */\n      slt\n        /* \"#utility.yul\":16732:16851   */\n      iszero\n      tag_750\n      jumpi\n        /* \"#utility.yul\":16770:16849   */\n      tag_751\n      tag_510\n      jump\t// in\n    tag_751:\n        /* \"#utility.yul\":16732:16851   */\n    tag_750:\n        /* \"#utility.yul\":16890:16891   */\n      0x00\n        /* \"#utility.yul\":16915:16976   */\n      tag_752\n        /* \"#utility.yul\":16968:16975   */\n      dup5\n        /* \"#utility.yul\":16959:16965   */\n      dup3\n        /* \"#utility.yul\":16948:16957   */\n      dup6\n        /* \"#utility.yul\":16944:16966   */\n      add\n        /* \"#utility.yul\":16915:16976   */\n      tag_551\n      jump\t// in\n    tag_752:\n        /* \"#utility.yul\":16905:16976   */\n      swap2\n      pop\n        /* \"#utility.yul\":16861:16986   */\n      pop\n        /* \"#utility.yul\":16648:16993   */\n      swap3\n      swap2\n      pop\n      pop\n      jump\t// out\n        /* \"#utility.yul\":16999:17179   */\n    tag_552:\n        /* \"#utility.yul\":17047:17124   */\n      0x4e487b7100000000000000000000000000000000000000000000000000000000\n        /* \"#utility.yul\":17044:17045   */\n      0x00\n        /* \"#utility.yul\":17037:17125   */\n      mstore\n        /* \"#utility.yul\":17144:17148   */\n      0x11\n        /* \"#utility.yul\":17141:17142   */\n      0x04\n        /* \"#utility.yul\":17134:17149   */\n      mstore\n        /* \"#utility.yul\":17168:17172   */\n      0x24\n        /* \"#utility.yul\":17165:17166   */\n      0x00\n        /* \"#utility.yul\":17158:17173   */\n      revert\n        /* \"#utility.yul\":17185:17418   */\n    tag_291:\n        /* \"#utility.yul\":17224:17227   */\n      0x00\n        /* \"#utility.yul\":17247:17271   */\n      tag_755\n        /* \"#utility.yul\":17265:17270   */\n      dup3\n        /* \"#utility.yul\":17247:17271   */\n      tag_512\n      jump\t// in\n    tag_755:\n        /* \"#utility.yul\":17238:17271   */\n      swap2\n      pop\n        /* \"#utility.yul\":17293:17359   */\n      0xffffffffffffffffffffffffffffffffffffffffffffffffffffffffffffffff\n        /* \"#utility.yul\":17286:17291   */\n      dup3\n        /* \"#utility.yul\":17283:17360   */\n      sub\n        /* \"#utility.yul\":17280:17383   */\n      tag_756\n      jumpi\n        /* \"#utility.yul\":17363:17381   */\n      tag_757\n      tag_552\n      jump\t// in\n    tag_757:\n        /* \"#utility.yul\":17280:17383   */\n    tag_756:\n        /* \"#utility.yul\":17410:17411   */\n      0x01\n        /* \"#utility.yul\":17403:17408   */\n      dup3\n        /* \"#utility.yul\":17399:17412   */\n      add\n        /* \"#utility.yul\":17392:17412   */\n      swap1\n      pop\n        /* \"#utility.yul\":17185:17418   */\n      swap2\n      swap1\n      pop\n      jump\t// out\n        /* \"#utility.yul\":17424:17592   */\n    tag_553:\n        /* \"#utility.yul\":17564:17584   */\n      0x77697468647261773a206e6f7420676f6f640000000000000000000000000000\n        /* \"#utility.yul\":17560:17561   */\n      0x00\n        /* \"#utility.yul\":17552:17558   */\n      dup3\n        /* \"#utility.yul\":17548:17562   */\n      add\n        /* \"#utility.yul\":17541:17585   */\n      mstore\n        /* \"#utility.yul\":17424:17592   */\n      pop\n      jump\t// out\n        /* \"#utility.yul\":17598:17964   */\n    tag_554:\n        /* \"#utility.yul\":17740:17743   */\n      0x00\n        /* \"#utility.yul\":17761:17828   */\n      tag_760\n        /* \"#utility.yul\":17825:17827   */\n      0x12\n        /* \"#utility.yul\":17820:17823   */\n      dup4\n        /* \"#utility.yul\":17761:17828   */\n      tag_543\n      jump\t// in\n    tag_760:\n        /* \"#utility.yul\":17754:17828   */\n      swap2\n      pop\n        /* \"#utility.yul\":17837:17930   */\n      tag_761\n        /* \"#utility.yul\":17926:17929   */\n      dup3\n        /* \"#utility.yul\":17837:17930   */\n      tag_553\n      jump\t// in\n    tag_761:\n        /* \"#utility.yul\":17955:17957   */\n      0x20\n        /* \"#utility.yul\":17950:17953   */\n      dup3\n        /* \"#utility.yul\":17946:17958   */\n      add\n        /* \"#utility.yul\":17939:17958   */\n      swap1\n      pop\n        /* \"#utility.yul\":17598:17964   */\n      swap2\n      swap1\n      pop\n      jump\t// out\n        /* \"#utility.yul\":17970:18389   */\n    tag_351:\n        /* \"#utility.yul\":18136:18140   */\n      0x00\n        /* \"#utility.yul\":18174:18176   */\n      0x20\n        /* \"#utility.yul\":18163:18172   */\n      dup3\n        /* \"#utility.yul\":18159:18177   */\n      add\n        /* \"#utility.yul\":18151:18177   */\n      swap1\n      pop\n        /* \"#utility.yul\":18223:18232   */\n      dup2\n        /* \"#utility.yul\":18217:18221   */\n      dup2\n        /* \"#utility.yul\":18213:18233   */\n      sub\n        /* \"#utility.yul\":18209:18210   */\n      0x00\n        /* \"#utility.yul\":18198:18207   */\n      dup4\n        /* \"#utility.yul\":18194:18211   */\n      add\n        /* \"#utility.yul\":18187:18234   */\n      mstore\n        /* \"#utility.yul\":18251:18382   */\n      tag_763\n        /* \"#utility.yul\":18377:18381   */\n      dup2\n        /* \"#utility.yul\":18251:18382   */\n      tag_554\n      jump\t// in\n    tag_763:\n        /* \"#utility.yul\":18243:18382   */\n      swap1\n      pop\n        /* \"#utility.yul\":17970:18389   */\n      swap2\n      swap1\n      pop\n      jump\t// out\n        /* \"#utility.yul\":18395:18620   */\n    tag_555:\n        /* \"#utility.yul\":18535:18569   */\n      0x4f776e61626c653a206e6577206f776e657220697320746865207a65726f2061\n        /* \"#utility.yul\":18531:18532   */\n      0x00\n        /* \"#utility.yul\":18523:18529   */\n      dup3\n        /* \"#utility.yul\":18519:18533   */\n      add\n        /* \"#utility.yul\":18512:18570   */\n      mstore\n        /* \"#utility.yul\":18604:18612   */\n      0x6464726573730000000000000000000000000000000000000000000000000000\n        /* \"#utility.yul\":18599:18601   */\n      0x20\n        /* \"#utility.yul\":18591:18597   */\n      dup3\n        /* \"#utility.yul\":18587:18602   */\n      add\n        /* \"#utility.yul\":18580:18613   */\n      mstore\n        /* \"#utility.yul\":18395:18620   */\n      pop\n      jump\t// out\n        /* \"#utility.yul\":18626:18992   */\n    tag_556:\n        /* \"#utility.yul\":18768:18771   */\n      0x00\n        /* \"#utility.yul\":18789:18856   */\n      tag_766\n        /* \"#utility.yul\":18853:18855   */\n      0x26\n        /* \"#utility.yul\":18848:18851   */\n      dup4\n        /* \"#utility.yul\":18789:18856   */\n      tag_543\n      jump\t// in\n    tag_766:\n        /* \"#utility.yul\":18782:18856   */\n      swap2\n      pop\n        /* \"#utility.yul\":18865:18958   */\n      tag_767\n        /* \"#utility.yul\":18954:18957   */\n      dup3\n        /* \"#utility.yul\":18865:18958   */\n      tag_555\n      jump\t// in\n    tag_767:\n        /* \"#utility.yul\":18983:18985   */\n      0x40\n        /* \"#utility.yul\":18978:18981   */\n      dup3\n        /* \"#utility.yul\":18974:18986   */\n      add\n        /* \"#utility.yul\":18967:18986   */\n      swap1\n      pop\n        /* \"#utility.yul\":18626:18992   */\n      swap2\n      swap1\n      pop\n      jump\t// out\n        /* \"#utility.yul\":18998:19417   */\n    tag_406:\n        /* \"#utility.yul\":19164:19168   */\n      0x00\n        /* \"#utility.yul\":19202:19204   */\n      0x20\n        /* \"#utility.yul\":19191:19200   */\n      dup3\n        /* \"#utility.yul\":19187:19205   */\n      add\n        /* \"#utility.yul\":19179:19205   */\n      swap1\n      pop\n        /* \"#utility.yul\":19251:19260   */\n      dup2\n        /* \"#utility.yul\":19245:19249   */\n      dup2\n        /* \"#utility.yul\":19241:19261   */\n      sub\n        /* \"#utility.yul\":19237:19238   */\n      0x00\n        /* \"#utility.yul\":19226:19235   */\n      dup4\n        /* \"#utility.yul\":19222:19239   */\n      add\n        /* \"#utility.yul\":19215:19262   */\n      mstore\n        /* \"#utility.yul\":19279:19410   */\n      tag_769\n        /* \"#utility.yul\":19405:19409   */\n      dup2\n        /* \"#utility.yul\":19279:19410   */\n      tag_556\n      jump\t// in\n    tag_769:\n        /* \"#utility.yul\":19271:19410   */\n      swap1\n      pop\n        /* \"#utility.yul\":18998:19417   */\n      swap2\n      swap1\n      pop\n      jump\t// out\n        /* \"#utility.yul\":19423:19771   */\n    tag_411:\n        /* \"#utility.yul\":19463:19470   */\n      0x00\n        /* \"#utility.yul\":19486:19506   */\n      tag_771\n        /* \"#utility.yul\":19504:19505   */\n      dup3\n        /* \"#utility.yul\":19486:19506   */\n      tag_512\n      jump\t// in\n    tag_771:\n        /* \"#utility.yul\":19481:19506   */\n      swap2\n      pop\n        /* \"#utility.yul\":19520:19540   */\n      tag_772\n        /* \"#utility.yul\":19538:19539   */\n      dup4\n        /* \"#utility.yul\":19520:19540   */\n      tag_512\n      jump\t// in\n    tag_772:\n        /* \"#utility.yul\":19515:19540   */\n      swap3\n      pop\n        /* \"#utility.yul\":19708:19709   */\n      dup2\n        /* \"#utility.yul\":19640:19706   */\n      0xffffffffffffffffffffffffffffffffffffffffffffffffffffffffffffffff\n        /* \"#utility.yul\":19636:19710   */\n      div\n        /* \"#utility.yul\":19633:19634   */\n      dup4\n        /* \"#utility.yul\":19630:19711   */\n      gt\n        /* \"#utility.yul\":19625:19626   */\n      dup3\n        /* \"#utility.yul\":19618:19627   */\n      iszero\n        /* \"#utility.yul\":19611:19628   */\n      iszero\n        /* \"#utility.yul\":19607:19712   */\n      and\n        /* \"#utility.yul\":19604:19735   */\n      iszero\n      tag_773\n      jumpi\n        /* \"#utility.yul\":19715:19733   */\n      tag_774\n      tag_552\n      jump\t// in\n    tag_774:\n        /* \"#utility.yul\":19604:19735   */\n    tag_773:\n        /* \"#utility.yul\":19763:19764   */\n      dup3\n        /* \"#utility.yul\":19760:19761   */\n      dup3\n        /* \"#utility.yul\":19756:19765   */\n      mul\n        /* \"#utility.yul\":19745:19765   */\n      swap1\n      pop\n        /* \"#utility.yul\":19423:19771   */\n      swap3\n      swap2\n      pop\n      pop\n      jump\t// out\n        /* \"#utility.yul\":19777:19957   */\n    tag_557:\n        /* \"#utility.yul\":19825:19902   */\n      0x4e487b7100000000000000000000000000000000000000000000000000000000\n        /* \"#utility.yul\":19822:19823   */\n      0x00\n        /* \"#utility.yul\":19815:19903   */\n      mstore\n        /* \"#utility.yul\":19922:19926   */\n      0x12\n        /* \"#utility.yul\":19919:19920   */\n      0x04\n        /* \"#utility.yul\":19912:19927   */\n      mstore\n        /* \"#utility.yul\":19946:19950   */\n      0x24\n        /* \"#utility.yul\":19943:19944   */\n      0x00\n        /* \"#utility.yul\":19936:19951   */\n      revert\n        /* \"#utility.yul\":19963:20148   */\n    tag_413:\n        /* \"#utility.yul\":20003:20004   */\n      0x00\n        /* \"#utility.yul\":20020:20040   */\n      tag_777\n        /* \"#utility.yul\":20038:20039   */\n      dup3\n        /* \"#utility.yul\":20020:20040   */\n      tag_512\n      jump\t// in\n    tag_777:\n        /* \"#utility.yul\":20015:20040   */\n      swap2\n      pop\n        /* \"#utility.yul\":20054:20074   */\n      tag_778\n        /* \"#utility.yul\":20072:20073   */\n      dup4\n        /* \"#utility.yul\":20054:20074   */\n      tag_512\n      jump\t// in\n    tag_778:\n        /* \"#utility.yul\":20049:20074   */\n      swap3\n      pop\n        /* \"#utility.yul\":20093:20094   */\n      dup3\n        /* \"#utility.yul\":20083:20118   */\n      tag_779\n      jumpi\n        /* \"#utility.yul\":20098:20116   */\n      tag_780\n      tag_557\n      jump\t// in\n    tag_780:\n        /* \"#utility.yul\":20083:20118   */\n    tag_779:\n        /* \"#utility.yul\":20140:20141   */\n      dup3\n        /* \"#utility.yul\":20137:20138   */\n      dup3\n        /* \"#utility.yul\":20133:20142   */\n      div\n        /* \"#utility.yul\":20128:20142   */\n      swap1\n      pop\n        /* \"#utility.yul\":19963:20148   */\n      swap3\n      swap2\n      pop\n      pop\n      jump\t// out\n        /* \"#utility.yul\":20154:20374   */\n    tag_558:\n        /* \"#utility.yul\":20294:20328   */\n      0x536166654d6174683a206d756c7469706c69636174696f6e206f766572666c6f\n        /* \"#utility.yul\":20290:20291   */\n      0x00\n        /* \"#utility.yul\":20282:20288   */\n      dup3\n        /* \"#utility.yul\":20278:20292   */\n      add\n        /* \"#utility.yul\":20271:20329   */\n      mstore\n        /* \"#utility.yul\":20363:20366   */\n      0x7700000000000000000000000000000000000000000000000000000000000000\n        /* \"#utility.yul\":20358:20360   */\n      0x20\n        /* \"#utility.yul\":20350:20356   */\n      dup3\n        /* \"#utility.yul\":20346:20361   */\n      add\n        /* \"#utility.yul\":20339:20367   */\n      mstore\n        /* \"#utility.yul\":20154:20374   */\n      pop\n      jump\t// out\n        /* \"#utility.yul\":20380:20746   */\n    tag_559:\n        /* \"#utility.yul\":20522:20525   */\n      0x00\n        /* \"#utility.yul\":20543:20610   */\n      tag_783\n        /* \"#utility.yul\":20607:20609   */\n      0x21\n        /* \"#utility.yul\":20602:20605   */\n      dup4\n        /* \"#utility.yul\":20543:20610   */\n      tag_543\n      jump\t// in\n    tag_783:\n        /* \"#utility.yul\":20536:20610   */\n      swap2\n      pop\n        /* \"#utility.yul\":20619:20712   */\n      tag_784\n        /* \"#utility.yul\":20708:20711   */\n      dup3\n        /* \"#utility.yul\":20619:20712   */\n      tag_558\n      jump\t// in\n    tag_784:\n        /* \"#utility.yul\":20737:20739   */\n      0x40\n        /* \"#utility.yul\":20732:20735   */\n      dup3\n        /* \"#utility.yul\":20728:20740   */\n      add\n        /* \"#utility.yul\":20721:20740   */\n      swap1\n      pop\n        /* \"#utility.yul\":20380:20746   */\n      swap2\n      swap1\n      pop\n      jump\t// out\n        /* \"#utility.yul\":20752:21171   */\n    tag_416:\n        /* \"#utility.yul\":20918:20922   */\n      0x00\n        /* \"#utility.yul\":20956:20958   */\n      0x20\n        /* \"#utility.yul\":20945:20954   */\n      dup3\n        /* \"#utility.yul\":20941:20959   */\n      add\n        /* \"#utility.yul\":20933:20959   */\n      swap1\n      pop\n        /* \"#utility.yul\":21005:21014   */\n      dup2\n        /* \"#utility.yul\":20999:21003   */\n      dup2\n        /* \"#utility.yul\":20995:21015   */\n      sub\n        /* \"#utility.yul\":20991:20992   */\n      0x00\n        /* \"#utility.yul\":20980:20989   */\n      dup4\n        /* \"#utility.yul\":20976:20993   */\n      add\n        /* \"#utility.yul\":20969:21016   */\n      mstore\n        /* \"#utility.yul\":21033:21164   */\n      tag_786\n        /* \"#utility.yul\":21159:21163   */\n      dup2\n        /* \"#utility.yul\":21033:21164   */\n      tag_559\n      jump\t// in\n    tag_786:\n        /* \"#utility.yul\":21025:21164   */\n      swap1\n      pop\n        /* \"#utility.yul\":20752:21171   */\n      swap2\n      swap1\n      pop\n      jump\t// out\n        /* \"#utility.yul\":21177:21619   */\n    tag_441:\n        /* \"#utility.yul\":21326:21330   */\n      0x00\n        /* \"#utility.yul\":21364:21366   */\n      0x60\n        /* \"#utility.yul\":21353:21362   */\n      dup3\n        /* \"#utility.yul\":21349:21367   */\n      add\n        /* \"#utility.yul\":21341:21367   */\n      swap1\n      pop\n        /* \"#utility.yul\":21377:21448   */\n      tag_788\n        /* \"#utility.yul\":21445:21446   */\n      0x00\n        /* \"#utility.yul\":21434:21443   */\n      dup4\n        /* \"#utility.yul\":21430:21447   */\n      add\n        /* \"#utility.yul\":21421:21427   */\n      dup7\n        /* \"#utility.yul\":21377:21448   */\n      tag_541\n      jump\t// in\n    tag_788:\n        /* \"#utility.yul\":21458:21530   */\n      tag_789\n        /* \"#utility.yul\":21526:21528   */\n      0x20\n        /* \"#utility.yul\":21515:21524   */\n      dup4\n        /* \"#utility.yul\":21511:21529   */\n      add\n        /* \"#utility.yul\":21502:21508   */\n      dup6\n        /* \"#utility.yul\":21458:21530   */\n      tag_541\n      jump\t// in\n    tag_789:\n        /* \"#utility.yul\":21540:21612   */\n      tag_790\n        /* \"#utility.yul\":21608:21610   */\n      0x40\n        /* \"#utility.yul\":21597:21606   */\n      dup4\n        /* \"#utility.yul\":21593:21611   */\n      add\n        /* \"#utility.yul\":21584:21590   */\n      dup5\n        /* \"#utility.yul\":21540:21612   */\n      tag_515\n      jump\t// in\n    tag_790:\n        /* \"#utility.yul\":21177:21619   */\n      swap5\n      swap4\n      pop\n      pop\n      pop\n      pop\n      jump\t// out\n        /* \"#utility.yul\":21625:21930   */\n    tag_445:\n        /* \"#utility.yul\":21665:21668   */\n      0x00\n        /* \"#utility.yul\":21684:21704   */\n      tag_792\n        /* \"#utility.yul\":21702:21703   */\n      dup3\n        /* \"#utility.yul\":21684:21704   */\n      tag_512\n      jump\t// in\n    tag_792:\n        /* \"#utility.yul\":21679:21704   */\n      swap2\n      pop\n        /* \"#utility.yul\":21718:21738   */\n      tag_793\n        /* \"#utility.yul\":21736:21737   */\n      dup4\n        /* \"#utility.yul\":21718:21738   */\n      tag_512\n      jump\t// in\n    tag_793:\n        /* \"#utility.yul\":21713:21738   */\n      swap3\n      pop\n        /* \"#utility.yul\":21872:21873   */\n      dup3\n        /* \"#utility.yul\":21804:21870   */\n      0xffffffffffffffffffffffffffffffffffffffffffffffffffffffffffffffff\n        /* \"#utility.yul\":21800:21874   */\n      sub\n        /* \"#utility.yul\":21797:21798   */\n      dup3\n        /* \"#utility.yul\":21794:21875   */\n      gt\n        /* \"#utility.yul\":21791:21898   */\n      iszero\n      tag_794\n      jumpi\n        /* \"#utility.yul\":21878:21896   */\n      tag_795\n      tag_552\n      jump\t// in\n    tag_795:\n        /* \"#utility.yul\":21791:21898   */\n    tag_794:\n        /* \"#utility.yul\":21922:21923   */\n      dup3\n        /* \"#utility.yul\":21919:21920   */\n      dup3\n        /* \"#utility.yul\":21915:21924   */\n      add\n        /* \"#utility.yul\":21908:21924   */\n      swap1\n      pop\n        /* \"#utility.yul\":21625:21930   */\n      swap3\n      swap2\n      pop\n      pop\n      jump\t// out\n        /* \"#utility.yul\":21936:22113   */\n    tag_560:\n        /* \"#utility.yul\":22076:22105   */\n      0x536166654d6174683a206164646974696f6e206f766572666c6f770000000000\n        /* \"#utility.yul\":22072:22073   */\n      0x00\n        /* \"#utility.yul\":22064:22070   */\n      dup3\n        /* \"#utility.yul\":22060:22074   */\n      add\n        /* \"#utility.yul\":22053:22106   */\n      mstore\n        /* \"#utility.yul\":21936:22113   */\n      pop\n      jump\t// out\n        /* \"#utility.yul\":22119:22485   */\n    tag_561:\n        /* \"#utility.yul\":22261:22264   */\n      0x00\n        /* \"#utility.yul\":22282:22349   */\n      tag_798\n        /* \"#utility.yul\":22346:22348   */\n      0x1b\n        /* \"#utility.yul\":22341:22344   */\n      dup4\n        /* \"#utility.yul\":22282:22349   */\n      tag_543\n      jump\t// in\n    tag_798:\n        /* \"#utility.yul\":22275:22349   */\n      swap2\n      pop\n        /* \"#utility.yul\":22358:22451   */\n      tag_799\n        /* \"#utility.yul\":22447:22450   */\n      dup3\n        /* \"#utility.yul\":22358:22451   */\n      tag_560\n      jump\t// in\n    tag_799:\n        /* \"#utility.yul\":22476:22478   */\n      0x20\n        /* \"#utility.yul\":22471:22474   */\n      dup3\n        /* \"#utility.yul\":22467:22479   */\n      add\n        /* \"#utility.yul\":22460:22479   */\n      swap1\n      pop\n        /* \"#utility.yul\":22119:22485   */\n      swap2\n      swap1\n      pop\n      jump\t// out\n        /* \"#utility.yul\":22491:22910   */\n    tag_448:\n        /* \"#utility.yul\":22657:22661   */\n      0x00\n        /* \"#utility.yul\":22695:22697   */\n      0x20\n        /* \"#utility.yul\":22684:22693   */\n      dup3\n        /* \"#utility.yul\":22680:22698   */\n      add\n        /* \"#utility.yul\":22672:22698   */\n      swap1\n      pop\n        /* \"#utility.yul\":22744:22753   */\n      dup2\n        /* \"#utility.yul\":22738:22742   */\n      dup2\n        /* \"#utility.yul\":22734:22754   */\n      sub\n        /* \"#utility.yul\":22730:22731   */\n      0x00\n        /* \"#utility.yul\":22719:22728   */\n      dup4\n        /* \"#utility.yul\":22715:22732   */\n      add\n        /* \"#utility.yul\":22708:22755   */\n      mstore\n        /* \"#utility.yul\":22772:22903   */\n      tag_801\n        /* \"#utility.yul\":22898:22902   */\n      dup2\n        /* \"#utility.yul\":22772:22903   */\n      tag_561\n      jump\t// in\n    tag_801:\n        /* \"#utility.yul\":22764:22903   */\n      swap1\n      pop\n        /* \"#utility.yul\":22491:22910   */\n      swap2\n      swap1\n      pop\n      jump\t// out\n        /* \"#utility.yul\":22916:23157   */\n    tag_562:\n        /* \"#utility.yul\":23056:23090   */\n      0x5361666545524332303a20617070726f76652066726f6d206e6f6e2d7a65726f\n        /* \"#utility.yul\":23052:23053   */\n      0x00\n        /* \"#utility.yul\":23044:23050   */\n      dup3\n        /* \"#utility.yul\":23040:23054   */\n      add\n        /* \"#utility.yul\":23033:23091   */\n      mstore\n        /* \"#utility.yul\":23125:23149   */\n      0x20746f206e6f6e2d7a65726f20616c6c6f77616e636500000000000000000000\n        /* \"#utility.yul\":23120:23122   */\n      0x20\n        /* \"#utility.yul\":23112:23118   */\n      dup3\n        /* \"#utility.yul\":23108:23123   */\n      add\n        /* \"#utility.yul\":23101:23150   */\n      mstore\n        /* \"#utility.yul\":22916:23157   */\n      pop\n      jump\t// out\n        /* \"#utility.yul\":23163:23529   */\n    tag_563:\n        /* \"#utility.yul\":23305:23308   */\n      0x00\n        /* \"#utility.yul\":23326:23393   */\n      tag_804\n        /* \"#utility.yul\":23390:23392   */\n      0x36\n        /* \"#utility.yul\":23385:23388   */\n      dup4\n        /* \"#utility.yul\":23326:23393   */\n      tag_543\n      jump\t// in\n    tag_804:\n        /* \"#utility.yul\":23319:23393   */\n      swap2\n      pop\n        /* \"#utility.yul\":23402:23495   */\n      tag_805\n        /* \"#utility.yul\":23491:23494   */\n      dup3\n        /* \"#utility.yul\":23402:23495   */\n      tag_562\n      jump\t// in\n    tag_805:\n        /* \"#utility.yul\":23520:23522   */\n      0x40\n        /* \"#utility.yul\":23515:23518   */\n      dup3\n        /* \"#utility.yul\":23511:23523   */\n      add\n        /* \"#utility.yul\":23504:23523   */\n      swap1\n      pop\n        /* \"#utility.yul\":23163:23529   */\n      swap2\n      swap1\n      pop\n      jump\t// out\n        /* \"#utility.yul\":23535:23954   */\n    tag_461:\n        /* \"#utility.yul\":23701:23705   */\n      0x00\n        /* \"#utility.yul\":23739:23741   */\n      0x20\n        /* \"#utility.yul\":23728:23737   */\n      dup3\n        /* \"#utility.yul\":23724:23742   */\n      add\n        /* \"#utility.yul\":23716:23742   */\n      swap1\n      pop\n        /* \"#utility.yul\":23788:23797   */\n      dup2\n        /* \"#utility.yul\":23782:23786   */\n      dup2\n        /* \"#utility.yul\":23778:23798   */\n      sub\n        /* \"#utility.yul\":23774:23775   */\n      0x00\n        /* \"#utility.yul\":23763:23772   */\n      dup4\n        /* \"#utility.yul\":23759:23776   */\n      add\n        /* \"#utility.yul\":23752:23799   */\n      mstore\n        /* \"#utility.yul\":23816:23947   */\n      tag_807\n        /* \"#utility.yul\":23942:23946   */\n      dup2\n        /* \"#utility.yul\":23816:23947   */\n      tag_563\n      jump\t// in\n    tag_807:\n        /* \"#utility.yul\":23808:23947   */\n      swap1\n      pop\n        /* \"#utility.yul\":23535:23954   */\n      swap2\n      swap1\n      pop\n      jump\t// out\n        /* \"#utility.yul\":23960:24059   */\n    tag_564:\n        /* \"#utility.yul\":24012:24018   */\n      0x00\n        /* \"#utility.yul\":24046:24051   */\n      dup2\n        /* \"#utility.yul\":24040:24052   */\n      mload\n        /* \"#utility.yul\":24030:24052   */\n      swap1\n      pop\n        /* \"#utility.yul\":23960:24059   */\n      swap2\n      swap1\n      pop\n      jump\t// out\n        /* \"#utility.yul\":24065:24372   */\n    tag_565:\n        /* \"#utility.yul\":24133:24134   */\n      0x00\n        /* \"#utility.yul\":24143:24256   */\n    tag_810:\n        /* \"#utility.yul\":24157:24163   */\n      dup4\n        /* \"#utility.yul\":24154:24155   */\n      dup2\n        /* \"#utility.yul\":24151:24164   */\n      lt\n        /* \"#utility.yul\":24143:24256   */\n      iszero\n      tag_812\n      jumpi\n        /* \"#utility.yul\":24242:24243   */\n      dup1\n        /* \"#utility.yul\":24237:24240   */\n      dup3\n        /* \"#utility.yul\":24233:24244   */\n      add\n        /* \"#utility.yul\":24227:24245   */\n      mload\n        /* \"#utility.yul\":24223:24224   */\n      dup2\n        /* \"#utility.yul\":24218:24221   */\n      dup5\n        /* \"#utility.yul\":24214:24225   */\n      add\n        /* \"#utility.yul\":24207:24246   */\n      mstore\n        /* \"#utility.yul\":24179:24181   */\n      0x20\n        /* \"#utility.yul\":24176:24177   */\n      dup2\n        /* \"#utility.yul\":24172:24182   */\n      add\n        /* \"#utility.yul\":24167:24182   */\n      swap1\n      pop\n        /* \"#utility.yul\":24143:24256   */\n      jump(tag_810)\n    tag_812:\n        /* \"#utility.yul\":24274:24280   */\n      dup4\n        /* \"#utility.yul\":24271:24272   */\n      dup2\n        /* \"#utility.yul\":24268:24281   */\n      gt\n        /* \"#utility.yul\":24265:24366   */\n      iszero\n      tag_813\n      jumpi\n        /* \"#utility.yul\":24354:24355   */\n      0x00\n        /* \"#utility.yul\":24345:24351   */\n      dup5\n        /* \"#utility.yul\":24340:24343   */\n      dup5\n        /* \"#utility.yul\":24336:24352   */\n      add\n        /* \"#utility.yul\":24329:24356   */\n      mstore\n        /* \"#utility.yul\":24265:24366   */\n    tag_813:\n        /* \"#utility.yul\":24114:24372   */\n      pop\n        /* \"#utility.yul\":24065:24372   */\n      pop\n      pop\n      pop\n      jump\t// out\n        /* \"#utility.yul\":24378:24480   */\n    tag_566:\n        /* \"#utility.yul\":24419:24425   */\n      0x00\n        /* \"#utility.yul\":24470:24472   */\n      0x1f\n        /* \"#utility.yul\":24466:24473   */\n      not\n        /* \"#utility.yul\":24461:24463   */\n      0x1f\n        /* \"#utility.yul\":24454:24459   */\n      dup4\n        /* \"#utility.yul\":24450:24464   */\n      add\n        /* \"#utility.yul\":24446:24474   */\n      and\n        /* \"#utility.yul\":24436:24474   */\n      swap1\n      pop\n        /* \"#utility.yul\":24378:24480   */\n      swap2\n      swap1\n      pop\n      jump\t// out\n        /* \"#utility.yul\":24486:24850   */\n    tag_567:\n        /* \"#utility.yul\":24574:24577   */\n      0x00\n        /* \"#utility.yul\":24602:24641   */\n      tag_816\n        /* \"#utility.yul\":24635:24640   */\n      dup3\n        /* \"#utility.yul\":24602:24641   */\n      tag_564\n      jump\t// in\n    tag_816:\n        /* \"#utility.yul\":24657:24728   */\n      tag_817\n        /* \"#utility.yul\":24721:24727   */\n      dup2\n        /* \"#utility.yul\":24716:24719   */\n      dup6\n        /* \"#utility.yul\":24657:24728   */\n      tag_543\n      jump\t// in\n    tag_817:\n        /* \"#utility.yul\":24650:24728   */\n      swap4\n      pop\n        /* \"#utility.yul\":24737:24789   */\n      tag_818\n        /* \"#utility.yul\":24782:24788   */\n      dup2\n        /* \"#utility.yul\":24777:24780   */\n      dup6\n        /* \"#utility.yul\":24770:24774   */\n      0x20\n        /* \"#utility.yul\":24763:24768   */\n      dup7\n        /* \"#utility.yul\":24759:24775   */\n      add\n        /* \"#utility.yul\":24737:24789   */\n      tag_565\n      jump\t// in\n    tag_818:\n        /* \"#utility.yul\":24814:24843   */\n      tag_819\n        /* \"#utility.yul\":24836:24842   */\n      dup2\n        /* \"#utility.yul\":24814:24843   */\n      tag_566\n      jump\t// in\n    tag_819:\n        /* \"#utility.yul\":24809:24812   */\n      dup5\n        /* \"#utility.yul\":24805:24844   */\n      add\n        /* \"#utility.yul\":24798:24844   */\n      swap2\n      pop\n        /* \"#utility.yul\":24578:24850   */\n      pop\n        /* \"#utility.yul\":24486:24850   */\n      swap3\n      swap2\n      pop\n      pop\n      jump\t// out\n        /* \"#utility.yul\":24856:25169   */\n    tag_468:\n        /* \"#utility.yul\":24969:24973   */\n      0x00\n        /* \"#utility.yul\":25007:25009   */\n      0x20\n        /* \"#utility.yul\":24996:25005   */\n      dup3\n        /* \"#utility.yul\":24992:25010   */\n      add\n        /* \"#utility.yul\":24984:25010   */\n      swap1\n      pop\n        /* \"#utility.yul\":25056:25065   */\n      dup2\n        /* \"#utility.yul\":25050:25054   */\n      dup2\n        /* \"#utility.yul\":25046:25066   */\n      sub\n        /* \"#utility.yul\":25042:25043   */\n      0x00\n        /* \"#utility.yul\":25031:25040   */\n      dup4\n        /* \"#utility.yul\":25027:25044   */\n      add\n        /* \"#utility.yul\":25020:25067   */\n      mstore\n        /* \"#utility.yul\":25084:25162   */\n      tag_821\n        /* \"#utility.yul\":25157:25161   */\n      dup2\n        /* \"#utility.yul\":25148:25154   */\n      dup5\n        /* \"#utility.yul\":25084:25162   */\n      tag_567\n      jump\t// in\n    tag_821:\n        /* \"#utility.yul\":25076:25162   */\n      swap1\n      pop\n        /* \"#utility.yul\":24856:25169   */\n      swap3\n      swap2\n      pop\n      pop\n      jump\t// out\n        /* \"#utility.yul\":25175:25366   */\n    tag_474:\n        /* \"#utility.yul\":25215:25219   */\n      0x00\n        /* \"#utility.yul\":25235:25255   */\n      tag_823\n        /* \"#utility.yul\":25253:25254   */\n      dup3\n        /* \"#utility.yul\":25235:25255   */\n      tag_512\n      jump\t// in\n    tag_823:\n        /* \"#utility.yul\":25230:25255   */\n      swap2\n      pop\n        /* \"#utility.yul\":25269:25289   */\n      tag_824\n        /* \"#utility.yul\":25287:25288   */\n      dup4\n        /* \"#utility.yul\":25269:25289   */\n      tag_512\n      jump\t// in\n    tag_824:\n        /* \"#utility.yul\":25264:25289   */\n      swap3\n      pop\n        /* \"#utility.yul\":25308:25309   */\n      dup3\n        /* \"#utility.yul\":25305:25306   */\n      dup3\n        /* \"#utility.yul\":25302:25310   */\n      lt\n        /* \"#utility.yul\":25299:25333   */\n      iszero\n      tag_825\n      jumpi\n        /* \"#utility.yul\":25313:25331   */\n      tag_826\n      tag_552\n      jump\t// in\n    tag_826:\n        /* \"#utility.yul\":25299:25333   */\n    tag_825:\n        /* \"#utility.yul\":25358:25359   */\n      dup3\n        /* \"#utility.yul\":25355:25356   */\n      dup3\n        /* \"#utility.yul\":25351:25360   */\n      sub\n        /* \"#utility.yul\":25343:25360   */\n      swap1\n      pop\n        /* \"#utility.yul\":25175:25366   */\n      swap3\n      swap2\n      pop\n      pop\n      jump\t// out\n        /* \"#utility.yul\":25372:25601   */\n    tag_568:\n        /* \"#utility.yul\":25512:25546   */\n      0x5361666545524332303a204552433230206f7065726174696f6e20646964206e\n        /* \"#utility.yul\":25508:25509   */\n      0x00\n        /* \"#utility.yul\":25500:25506   */\n      dup3\n        /* \"#utility.yul\":25496:25510   */\n      add\n        /* \"#utility.yul\":25489:25547   */\n      mstore\n        /* \"#utility.yul\":25581:25593   */\n      0x6f74207375636365656400000000000000000000000000000000000000000000\n        /* \"#utility.yul\":25576:25578   */\n      0x20\n        /* \"#utility.yul\":25568:25574   */\n      dup3\n        /* \"#utility.yul\":25564:25579   */\n      add\n        /* \"#utility.yul\":25557:25594   */\n      mstore\n        /* \"#utility.yul\":25372:25601   */\n      pop\n      jump\t// out\n        /* \"#utility.yul\":25607:25973   */\n    tag_569:\n        /* \"#utility.yul\":25749:25752   */\n      0x00\n        /* \"#utility.yul\":25770:25837   */\n      tag_829\n        /* \"#utility.yul\":25834:25836   */\n      0x2a\n        /* \"#utility.yul\":25829:25832   */\n      dup4\n        /* \"#utility.yul\":25770:25837   */\n      tag_543\n      jump\t// in\n    tag_829:\n        /* \"#utility.yul\":25763:25837   */\n      swap2\n      pop\n        /* \"#utility.yul\":25846:25939   */\n      tag_830\n        /* \"#utility.yul\":25935:25938   */\n      dup3\n        /* \"#utility.yul\":25846:25939   */\n      tag_568\n      jump\t// in\n    tag_830:\n        /* \"#utility.yul\":25964:25966   */\n      0x40\n        /* \"#utility.yul\":25959:25962   */\n      dup3\n        /* \"#utility.yul\":25955:25967   */\n      add\n        /* \"#utility.yul\":25948:25967   */\n      swap1\n      pop\n        /* \"#utility.yul\":25607:25973   */\n      swap2\n      swap1\n      pop\n      jump\t// out\n        /* \"#utility.yul\":25979:26398   */\n    tag_482:\n        /* \"#utility.yul\":26145:26149   */\n      0x00\n        /* \"#utility.yul\":26183:26185   */\n      0x20\n        /* \"#utility.yul\":26172:26181   */\n      dup3\n        /* \"#utility.yul\":26168:26186   */\n      add\n        /* \"#utility.yul\":26160:26186   */\n      swap1\n      pop\n        /* \"#utility.yul\":26232:26241   */\n      dup2\n        /* \"#utility.yul\":26226:26230   */\n      dup2\n        /* \"#utility.yul\":26222:26242   */\n      sub\n        /* \"#utility.yul\":26218:26219   */\n      0x00\n        /* \"#utility.yul\":26207:26216   */\n      dup4\n        /* \"#utility.yul\":26203:26220   */\n      add\n        /* \"#utility.yul\":26196:26243   */\n      mstore\n        /* \"#utility.yul\":26260:26391   */\n      tag_832\n        /* \"#utility.yul\":26386:26390   */\n      dup2\n        /* \"#utility.yul\":26260:26391   */\n      tag_569\n      jump\t// in\n    tag_832:\n        /* \"#utility.yul\":26252:26391   */\n      swap1\n      pop\n        /* \"#utility.yul\":25979:26398   */\n      swap2\n      swap1\n      pop\n      jump\t// out\n        /* \"#utility.yul\":26404:26629   */\n    tag_570:\n        /* \"#utility.yul\":26544:26578   */\n      0x416464726573733a20696e73756666696369656e742062616c616e636520666f\n        /* \"#utility.yul\":26540:26541   */\n      0x00\n        /* \"#utility.yul\":26532:26538   */\n      dup3\n        /* \"#utility.yul\":26528:26542   */\n      add\n        /* \"#utility.yul\":26521:26579   */\n      mstore\n        /* \"#utility.yul\":26613:26621   */\n      0x722063616c6c0000000000000000000000000000000000000000000000000000\n        /* \"#utility.yul\":26608:26610   */\n      0x20\n        /* \"#utility.yul\":26600:26606   */\n      dup3\n        /* \"#utility.yul\":26596:26611   */\n      add\n        /* \"#utility.yul\":26589:26622   */\n      mstore\n        /* \"#utility.yul\":26404:26629   */\n      pop\n      jump\t// out\n        /* \"#utility.yul\":26635:27001   */\n    tag_571:\n        /* \"#utility.yul\":26777:26780   */\n      0x00\n        /* \"#utility.yul\":26798:26865   */\n      tag_835\n        /* \"#utility.yul\":26862:26864   */\n      0x26\n        /* \"#utility.yul\":26857:26860   */\n      dup4\n        /* \"#utility.yul\":26798:26865   */\n      tag_543\n      jump\t// in\n    tag_835:\n        /* \"#utility.yul\":26791:26865   */\n      swap2\n      pop\n        /* \"#utility.yul\":26874:26967   */\n      tag_836\n        /* \"#utility.yul\":26963:26966   */\n      dup3\n        /* \"#utility.yul\":26874:26967   */\n      tag_570\n      jump\t// in\n    tag_836:\n        /* \"#utility.yul\":26992:26994   */\n      0x40\n        /* \"#utility.yul\":26987:26990   */\n      dup3\n        /* \"#utility.yul\":26983:26995   */\n      add\n        /* \"#utility.yul\":26976:26995   */\n      swap1\n      pop\n        /* \"#utility.yul\":26635:27001   */\n      swap2\n      swap1\n      pop\n      jump\t// out\n        /* \"#utility.yul\":27007:27426   */\n    tag_489:\n        /* \"#utility.yul\":27173:27177   */\n      0x00\n        /* \"#utility.yul\":27211:27213   */\n      0x20\n        /* \"#utility.yul\":27200:27209   */\n      dup3\n        /* \"#utility.yul\":27196:27214   */\n      add\n        /* \"#utility.yul\":27188:27214   */\n      swap1\n      pop\n        /* \"#utility.yul\":27260:27269   */\n      dup2\n        /* \"#utility.yul\":27254:27258   */\n      dup2\n        /* \"#utility.yul\":27250:27270   */\n      sub\n        /* \"#utility.yul\":27246:27247   */\n      0x00\n        /* \"#utility.yul\":27235:27244   */\n      dup4\n        /* \"#utility.yul\":27231:27248   */\n      add\n        /* \"#utility.yul\":27224:27271   */\n      mstore\n        /* \"#utility.yul\":27288:27419   */\n      tag_838\n        /* \"#utility.yul\":27414:27418   */\n      dup2\n        /* \"#utility.yul\":27288:27419   */\n      tag_571\n      jump\t// in\n    tag_838:\n        /* \"#utility.yul\":27280:27419   */\n      swap1\n      pop\n        /* \"#utility.yul\":27007:27426   */\n      swap2\n      swap1\n      pop\n      jump\t// out\n        /* \"#utility.yul\":27432:27611   */\n    tag_572:\n        /* \"#utility.yul\":27572:27603   */\n      0x416464726573733a2063616c6c20746f206e6f6e2d636f6e7472616374000000\n        /* \"#utility.yul\":27568:27569   */\n      0x00\n        /* \"#utility.yul\":27560:27566   */\n      dup3\n        /* \"#utility.yul\":27556:27570   */\n      add\n        /* \"#utility.yul\":27549:27604   */\n      mstore\n        /* \"#utility.yul\":27432:27611   */\n      pop\n      jump\t// out\n        /* \"#utility.yul\":27617:27983   */\n    tag_573:\n        /* \"#utility.yul\":27759:27762   */\n      0x00\n        /* \"#utility.yul\":27780:27847   */\n      tag_841\n        /* \"#utility.yul\":27844:27846   */\n      0x1d\n        /* \"#utility.yul\":27839:27842   */\n      dup4\n        /* \"#utility.yul\":27780:27847   */\n      tag_543\n      jump\t// in\n    tag_841:\n        /* \"#utility.yul\":27773:27847   */\n      swap2\n      pop\n        /* \"#utility.yul\":27856:27949   */\n      tag_842\n        /* \"#utility.yul\":27945:27948   */\n      dup3\n        /* \"#utility.yul\":27856:27949   */\n      tag_572\n      jump\t// in\n    tag_842:\n        /* \"#utility.yul\":27974:27976   */\n      0x20\n        /* \"#utility.yul\":27969:27972   */\n      dup3\n        /* \"#utility.yul\":27965:27977   */\n      add\n        /* \"#utility.yul\":27958:27977   */\n      swap1\n      pop\n        /* \"#utility.yul\":27617:27983   */\n      swap2\n      swap1\n      pop\n      jump\t// out\n        /* \"#utility.yul\":27989:28408   */\n    tag_494:\n        /* \"#utility.yul\":28155:28159   */\n      0x00\n        /* \"#utility.yul\":28193:28195   */\n      0x20\n        /* \"#utility.yul\":28182:28191   */\n      dup3\n        /* \"#utility.yul\":28178:28196   */\n      add\n        /* \"#utility.yul\":28170:28196   */\n      swap1\n      pop\n        /* \"#utility.yul\":28242:28251   */\n      dup2\n        /* \"#utility.yul\":28236:28240   */\n      dup2\n        /* \"#utility.yul\":28232:28252   */\n      sub\n        /* \"#utility.yul\":28228:28229   */\n      0x00\n        /* \"#utility.yul\":28217:28226   */\n      dup4\n        /* \"#utility.yul\":28213:28230   */\n      add\n        /* \"#utility.yul\":28206:28253   */\n      mstore\n        /* \"#utility.yul\":28270:28401   */\n      tag_844\n        /* \"#utility.yul\":28396:28400   */\n      dup2\n        /* \"#utility.yul\":28270:28401   */\n      tag_573\n      jump\t// in\n    tag_844:\n        /* \"#utility.yul\":28262:28401   */\n      swap1\n      pop\n        /* \"#utility.yul\":27989:28408   */\n      swap2\n      swap1\n      pop\n      jump\t// out\n        /* \"#utility.yul\":28414:28512   */\n    tag_574:\n        /* \"#utility.yul\":28465:28471   */\n      0x00\n        /* \"#utility.yul\":28499:28504   */\n      dup2\n        /* \"#utility.yul\":28493:28505   */\n      mload\n        /* \"#utility.yul\":28483:28505   */\n      swap1\n      pop\n        /* \"#utility.yul\":28414:28512   */\n      swap2\n      swap1\n      pop\n      jump\t// out\n        /* \"#utility.yul\":28518:28665   */\n    tag_575:\n        /* \"#utility.yul\":28619:28630   */\n      0x00\n        /* \"#utility.yul\":28656:28659   */\n      dup2\n        /* \"#utility.yul\":28641:28659   */\n      swap1\n      pop\n        /* \"#utility.yul\":28518:28665   */\n      swap3\n      swap2\n      pop\n      pop\n      jump\t// out\n        /* \"#utility.yul\":28671:29044   */\n    tag_576:\n        /* \"#utility.yul\":28775:28778   */\n      0x00\n        /* \"#utility.yul\":28803:28841   */\n      tag_848\n        /* \"#utility.yul\":28835:28840   */\n      dup3\n        /* \"#utility.yul\":28803:28841   */\n      tag_574\n      jump\t// in\n    tag_848:\n        /* \"#utility.yul\":28857:28945   */\n      tag_849\n        /* \"#utility.yul\":28938:28944   */\n      dup2\n        /* \"#utility.yul\":28933:28936   */\n      dup6\n        /* \"#utility.yul\":28857:28945   */\n      tag_575\n      jump\t// in\n    tag_849:\n        /* \"#utility.yul\":28850:28945   */\n      swap4\n      pop\n        /* \"#utility.yul\":28954:29006   */\n      tag_850\n        /* \"#utility.yul\":28999:29005   */\n      dup2\n        /* \"#utility.yul\":28994:28997   */\n      dup6\n        /* \"#utility.yul\":28987:28991   */\n      0x20\n        /* \"#utility.yul\":28980:28985   */\n      dup7\n        /* \"#utility.yul\":28976:28992   */\n      add\n        /* \"#utility.yul\":28954:29006   */\n      tag_565\n      jump\t// in\n    tag_850:\n        /* \"#utility.yul\":29031:29037   */\n      dup1\n        /* \"#utility.yul\":29026:29029   */\n      dup5\n        /* \"#utility.yul\":29022:29038   */\n      add\n        /* \"#utility.yul\":29015:29038   */\n      swap2\n      pop\n        /* \"#utility.yul\":28779:29044   */\n      pop\n        /* \"#utility.yul\":28671:29044   */\n      swap3\n      swap2\n      pop\n      pop\n      jump\t// out\n        /* \"#utility.yul\":29050:29321   */\n    tag_496:\n        /* \"#utility.yul\":29180:29183   */\n      0x00\n        /* \"#utility.yul\":29202:29295   */\n      tag_852\n        /* \"#utility.yul\":29291:29294   */\n      dup3\n        /* \"#utility.yul\":29282:29288   */\n      dup5\n        /* \"#utility.yul\":29202:29295   */\n      tag_576\n      jump\t// in\n    tag_852:\n        /* \"#utility.yul\":29195:29295   */\n      swap2\n      pop\n        /* \"#utility.yul\":29312:29315   */\n      dup2\n        /* \"#utility.yul\":29305:29315   */\n      swap1\n      pop\n        /* \"#utility.yul\":29050:29321   */\n      swap3\n      swap2\n      pop\n      pop\n      jump\t// out\n\n    auxdata: 0xa26469706673582212206c9837b2ad4108ed23d0e603de65fbbc3639707f9874415e1cb958324c38ecf664736f6c634300080f0033\n}\n",
				"bytecode": {
					"linkReferences": {},
					"object": "608060405260016004556000600855717f8c9ef06e25a77fe790001fac71c71c71c7600b55620186a0600c553480156200003857600080fd5b50604051620040f7380380620040f783398181016040528101906200005e9190620002ce565b6200007e620000726200011860201b60201c565b6200012060201b60201c565b83600160006101000a81548173ffffffffffffffffffffffffffffffffffffffff021916908373ffffffffffffffffffffffffffffffffffffffff16021790555082600260006101000a81548173ffffffffffffffffffffffffffffffffffffffff021916908373ffffffffffffffffffffffffffffffffffffffff16021790555081600381905550806009819055505050505062000340565b600033905090565b60008060009054906101000a900473ffffffffffffffffffffffffffffffffffffffff169050816000806101000a81548173ffffffffffffffffffffffffffffffffffffffff021916908373ffffffffffffffffffffffffffffffffffffffff1602179055508173ffffffffffffffffffffffffffffffffffffffff168173ffffffffffffffffffffffffffffffffffffffff167f8be0079c531659141344cd1fd0a4f28419497f9722a3daafe3b4186f6b6457e060405160405180910390a35050565b600080fd5b600073ffffffffffffffffffffffffffffffffffffffff82169050919050565b60006200021682620001e9565b9050919050565b60006200022a8262000209565b9050919050565b6200023c816200021d565b81146200024857600080fd5b50565b6000815190506200025c8162000231565b92915050565b6200026d8162000209565b81146200027957600080fd5b50565b6000815190506200028d8162000262565b92915050565b6000819050919050565b620002a88162000293565b8114620002b457600080fd5b50565b600081519050620002c8816200029d565b92915050565b60008060008060808587031215620002eb57620002ea620001e4565b5b6000620002fb878288016200024b565b94505060206200030e878288016200027c565b93505060406200032187828801620002b7565b92505060606200033487828801620002b7565b91505092959194509250565b613da780620003506000396000f3fe608060405234801561001057600080fd5b50600436106101d95760003560e01c806368382a211161010457806393f1a40b116100a2578063d49e77cd11610071578063d49e77cd1461050c578063eeac3ae81461052a578063f2fde38b14610546578063f395db2c14610562576101d9565b806393f1a40b14610485578063a41fe49f146104b6578063cb3cba55146104d2578063d0d41fe1146104f0576101d9565b80637cd07e47116100de5780637cd07e47146103fb5780638aa28550146104195780638da5cb5b146104375780638dbb1e3a14610455576101d9565b806368382a21146103a55780636a6d964e146103c1578063715018a6146103f1576101d9565b806348cd4cb11161017c578063612eee431161014b578063612eee4314610347578063630b5ba11461036357806364482f791461036d5780636494419314610389576101d9565b806348cd4cb1146102d557806351eb05a6146102f35780635312ea8e1461030f5780635ffe61461461032b576101d9565b806317caf6f1116101b857806317caf6f11461024f5780632080baab1461026d57806323cf31181461029d578063454b0608146102b9576101d9565b8062aeef8a146101de578063081e3eda146101fa5780631526fe2714610218575b600080fd5b6101f860048036038101906101f39190612e4c565b610580565b005b610202610b95565b60405161020f9190612eae565b60405180910390f35b610232600480360381019061022d9190612ec9565b610ba2565b604051610246989796959493929190612f96565b60405180910390f35b610257610c5a565b6040516102649190612eae565b60405180910390f35b61028760048036038101906102829190613052565b610c60565b6040516102949190612eae565b60405180910390f35b6102b760048036038101906102b291906130d0565b610dfb565b005b6102d360048036038101906102ce9190612ec9565b610ebb565b005b6102dd6111a7565b6040516102ea9190612eae565b60405180910390f35b61030d60048036038101906103089190612ec9565b6111ad565b005b61032960048036038101906103249190612ec9565b611363565b005b61034560048036038101906103409190612ec9565b61149c565b005b610361600480360381019061035c9190612ec9565b611522565b005b61036b6115a8565b005b61038760048036038101906103829190613135565b6115db565b005b6103a3600480360381019061039e9190613204565b6116e7565b005b6103bf60048036038101906103ba9190612ec9565b61195f565b005b6103db60048036038101906103d69190612ec9565b611a94565b6040516103e89190612eae565b60405180910390f35b6103f9611aac565b005b610403611b34565b60405161041091906132c7565b60405180910390f35b610421611b5a565b60405161042e9190612eae565b60405180910390f35b61043f611b60565b60405161044c91906132f1565b60405180910390f35b61046f600480360381019061046a919061330c565b611b89565b60405161047c9190612eae565b60405180910390f35b61049f600480360381019061049a9190613052565b611bba565b6040516104ad92919061334c565b60405180910390f35b6104d060048036038101906104cb9190612e4c565b611beb565b005b6104da6120a1565b6040516104e79190613375565b60405180910390f35b61050a60048036038101906105059190613390565b6120c7565b005b610514612187565b60405161052191906132f1565b60405180910390f35b610544600480360381019061053f9190612ec9565b6121ad565b005b610560600480360381019061055b9190613390565b612345565b005b61056a61243c565b6040516105779190612eae565b60405180910390f35b600060068481548110610596576105956133bd565b5b9060005260206000209060080201905060006007600086815260200190815260200160002060003373ffffffffffffffffffffffffffffffffffffffff1673ffffffffffffffffffffffffffffffffffffffff1681526020019081526020016000209050610603856111ad565b60008160000154111561067257600061065a826001015461064c64e8d4a5100061063e8760030154876000015461244290919063ffffffff16565b6124bc90919063ffffffff16565b61250690919063ffffffff16565b905060008111156106705761066f3382612550565b5b505b828260000160009054906101000a900473ffffffffffffffffffffffffffffffffffffffff1673ffffffffffffffffffffffffffffffffffffffff1663dd62ed3e308560040160009054906101000a900473ffffffffffffffffffffffffffffffffffffffff166040518363ffffffff1660e01b81526004016106f69291906133ec565b602060405180830381865afa158015610713573d6000803e3d6000fd5b505050506040513d601f19601f82011682018060405250810190610737919061342a565b1161074657610745856121ad565b5b600061077a68056bc75e2d6310000061076c85600601548761244290919063ffffffff16565b6124bc90919063ffffffff16565b90506000610791828661250690919063ffffffff16565b90506107e43330838760000160009054906101000a900473ffffffffffffffffffffffffffffffffffffffff1673ffffffffffffffffffffffffffffffffffffffff16612745909392919063ffffffff16565b61085733600260009054906101000a900473ffffffffffffffffffffffffffffffffffffffff16848760000160009054906101000a900473ffffffffffffffffffffffffffffffffffffffff1673ffffffffffffffffffffffffffffffffffffffff16612745909392919063ffffffff16565b60008460070154036108f7578360040160009054906101000a900473ffffffffffffffffffffffffffffffffffffffff1673ffffffffffffffffffffffffffffffffffffffff166341441d3b826040518263ffffffff1660e01b81526004016108c09190612eae565b600060405180830381600087803b1580156108da57600080fd5b505af11580156108ee573d6000803e3d6000fd5b50505050610989565b8360040160009054906101000a900473ffffffffffffffffffffffffffffffffffffffff1673ffffffffffffffffffffffffffffffffffffffff1663e2bbb15887836040518363ffffffff1660e01b815260040161095692919061334c565b600060405180830381600087803b15801561097057600080fd5b505af1158015610984573d6000803e3d6000fd5b505050505b6109a08184600001546127ce90919063ffffffff16565b83600001819055506109ce81600a60008a8152602001908152602001600020546127ce90919063ffffffff16565b600a600089815260200190815260200160002081905550610a1764e8d4a51000610a098660030154866000015461244290919063ffffffff16565b6124bc90919063ffffffff16565b836001018190555060008460050160009054906101000a900473ffffffffffffffffffffffffffffffffffffffff1673ffffffffffffffffffffffffffffffffffffffff166370a08231306040518263ffffffff1660e01b8152600401610a7e91906132f1565b602060405180830381865afa158015610a9b573d6000803e3d6000fd5b505050506040513d601f19601f82011682018060405250810190610abf919061342a565b90506000811115610b3c57610b3b600260009054906101000a900473ffffffffffffffffffffffffffffffffffffffff16828760050160009054906101000a900473ffffffffffffffffffffffffffffffffffffffff1673ffffffffffffffffffffffffffffffffffffffff1661282c9092919063ffffffff16565b5b873373ffffffffffffffffffffffffffffffffffffffff167f90890809c654f11d6e72a28fa60149770a0d11ec6c92319d6ceb2bb0a4ea1a1584604051610b839190612eae565b60405180910390a35050505050505050565b6000600680549050905090565b60068181548110610bb257600080fd5b90600052602060002090600802016000915090508060000160009054906101000a900473ffffffffffffffffffffffffffffffffffffffff16908060010154908060020154908060030154908060040160009054906101000a900473ffffffffffffffffffffffffffffffffffffffff16908060050160009054906101000a900473ffffffffffffffffffffffffffffffffffffffff16908060060154908060070154905088565b60085481565b60008060068481548110610c7757610c766133bd565b5b9060005260206000209060080201905060006007600086815260200190815260200160002060008573ffffffffffffffffffffffffffffffffffffffff1673ffffffffffffffffffffffffffffffffffffffff16815260200190815260200160002090506000826003015490506000600a6000888152602001908152602001600020549050836002015443118015610d10575060008114155b15610dab576000610d25856002015443611b89565b90506000610d68600854610d5a8860010154610d4c6003548761244290919063ffffffff16565b61244290919063ffffffff16565b6124bc90919063ffffffff16565b9050610da6610d9784610d8964e8d4a510008561244290919063ffffffff16565b6124bc90919063ffffffff16565b856127ce90919063ffffffff16565b935050505b610def8360010154610de164e8d4a51000610dd386886000015461244290919063ffffffff16565b6124bc90919063ffffffff16565b61250690919063ffffffff16565b94505050505092915050565b610e036128b2565b73ffffffffffffffffffffffffffffffffffffffff16610e21611b60565b73ffffffffffffffffffffffffffffffffffffffff1614610e77576040517f08c379a0000000000000000000000000000000000000000000000000000000008152600401610e6e906134b4565b60405180910390fd5b80600560006101000a81548173ffffffffffffffffffffffffffffffffffffffff021916908373ffffffffffffffffffffffffffffffffffffffff16021790555050565b600073ffffffffffffffffffffffffffffffffffffffff16600560009054906101000a900473ffffffffffffffffffffffffffffffffffffffff1673ffffffffffffffffffffffffffffffffffffffff1603610f4c576040517f08c379a0000000000000000000000000000000000000000000000000000000008152600401610f4390613520565b60405180910390fd5b600060068281548110610f6257610f616133bd565b5b9060005260206000209060080201905060008160000160009054906101000a900473ffffffffffffffffffffffffffffffffffffffff1690506000600a6000858152602001908152602001600020549050611000600560009054906101000a900473ffffffffffffffffffffffffffffffffffffffff16828473ffffffffffffffffffffffffffffffffffffffff166128ba9092919063ffffffff16565b6000600560009054906101000a900473ffffffffffffffffffffffffffffffffffffffff1673ffffffffffffffffffffffffffffffffffffffff1663ce5494bb846040518263ffffffff1660e01b815260040161105d9190613375565b6020604051808303816000875af115801561107c573d6000803e3d6000fd5b505050506040513d601f19601f820116820180604052508101906110a09190613555565b90508073ffffffffffffffffffffffffffffffffffffffff166370a08231306040518263ffffffff1660e01b81526004016110db91906132f1565b602060405180830381865afa1580156110f8573d6000803e3d6000fd5b505050506040513d601f19601f8201168201806040525081019061111c919061342a565b821461115d576040517f08c379a0000000000000000000000000000000000000000000000000000000008152600401611154906135ce565b60405180910390fd5b808460000160006101000a81548173ffffffffffffffffffffffffffffffffffffffff021916908373ffffffffffffffffffffffffffffffffffffffff1602179055505050505050565b60095481565b6000600682815481106111c3576111c26133bd565b5b90600052602060002090600802019050806002015443116111e45750611360565b6000600a600084815260200190815260200160002054905060008111611214574382600201819055505050611360565b6000611224836002015443611b89565b90506000611267600854611259866001015461124b6003548761244290919063ffffffff16565b61244290919063ffffffff16565b6124bc90919063ffffffff16565b9050600160009054906101000a900473ffffffffffffffffffffffffffffffffffffffff1673ffffffffffffffffffffffffffffffffffffffff166340c10f1930836040518363ffffffff1660e01b81526004016112c69291906135ee565b6020604051808303816000875af11580156112e5573d6000803e3d6000fd5b505050506040513d601f19601f82011682018060405250810190611309919061362c565b5061134a6113378461132964e8d4a510008561244290919063ffffffff16565b6124bc90919063ffffffff16565b85600301546127ce90919063ffffffff16565b8460030181905550438460020181905550505050505b50565b600060068281548110611379576113786133bd565b5b9060005260206000209060080201905060006007600084815260200190815260200160002060003373ffffffffffffffffffffffffffffffffffffffff1673ffffffffffffffffffffffffffffffffffffffff16815260200190815260200160002090506114303382600001548460000160009054906101000a900473ffffffffffffffffffffffffffffffffffffffff1673ffffffffffffffffffffffffffffffffffffffff1661282c9092919063ffffffff16565b823373ffffffffffffffffffffffffffffffffffffffff167fbb757047c2b5f3974fe26b7c10f732e7bce710b0952a71082702781e62ae0595836000015460405161147b9190612eae565b60405180910390a36000816000018190555060008160010181905550505050565b6114a46128b2565b73ffffffffffffffffffffffffffffffffffffffff166114c2611b60565b73ffffffffffffffffffffffffffffffffffffffff1614611518576040517f08c379a000000000000000000000000000000000000000000000000000000000815260040161150f906134b4565b60405180910390fd5b8060048190555050565b61152a6128b2565b73ffffffffffffffffffffffffffffffffffffffff16611548611b60565b73ffffffffffffffffffffffffffffffffffffffff161461159e576040517f08c379a0000000000000000000000000000000000000000000000000000000008152600401611595906134b4565b60405180910390fd5b8060038190555050565b6000600680549050905060005b818110156115d7576115c6816111ad565b806115d090613688565b90506115b5565b5050565b6115e36128b2565b73ffffffffffffffffffffffffffffffffffffffff16611601611b60565b73ffffffffffffffffffffffffffffffffffffffff1614611657576040517f08c379a000000000000000000000000000000000000000000000000000000000815260040161164e906134b4565b60405180910390fd5b8015611666576116656115a8565b5b6116b2826116a460068681548110611681576116806133bd565b5b90600052602060002090600802016001015460085461250690919063ffffffff16565b6127ce90919063ffffffff16565b60088190555081600684815481106116cd576116cc6133bd565b5b906000526020600020906008020160010181905550505050565b6116ef6128b2565b73ffffffffffffffffffffffffffffffffffffffff1661170d611b60565b73ffffffffffffffffffffffffffffffffffffffff1614611763576040517f08c379a000000000000000000000000000000000000000000000000000000000815260040161175a906134b4565b60405180910390fd5b8415611772576117716115a8565b5b6000600954431161178557600954611787565b435b905061179e886008546127ce90919063ffffffff16565b60088190555060066040518061010001604052808973ffffffffffffffffffffffffffffffffffffffff1681526020018a8152602001838152602001600081526020018773ffffffffffffffffffffffffffffffffffffffff1681526020018673ffffffffffffffffffffffffffffffffffffffff16815260200185815260200184815250908060018154018082558091505060019003906000526020600020906008020160009091909190915060008201518160000160006101000a81548173ffffffffffffffffffffffffffffffffffffffff021916908373ffffffffffffffffffffffffffffffffffffffff16021790555060208201518160010155604082015181600201556060820151816003015560808201518160040160006101000a81548173ffffffffffffffffffffffffffffffffffffffff021916908373ffffffffffffffffffffffffffffffffffffffff16021790555060a08201518160050160006101000a81548173ffffffffffffffffffffffffffffffffffffffff021916908373ffffffffffffffffffffffffffffffffffffffff16021790555060c0820151816006015560e0820151816007015550505050505050505050565b6119676128b2565b73ffffffffffffffffffffffffffffffffffffffff16611985611b60565b73ffffffffffffffffffffffffffffffffffffffff16146119db576040517f08c379a00000000000000000000000000000000000000000000000000000000081526004016119d2906134b4565b60405180910390fd5b6000600682815481106119f1576119f06133bd565b5b906000526020600020906008020190508060040160009054906101000a900473ffffffffffffffffffffffffffffffffffffffff1673ffffffffffffffffffffffffffffffffffffffff16635312ea8e836040518263ffffffff1660e01b8152600401611a5e9190612eae565b600060405180830381600087803b158015611a7857600080fd5b505af1158015611a8c573d6000803e3d6000fd5b505050505050565b600a6020528060005260406000206000915090505481565b611ab46128b2565b73ffffffffffffffffffffffffffffffffffffffff16611ad2611b60565b73ffffffffffffffffffffffffffffffffffffffff1614611b28576040517f08c379a0000000000000000000000000000000000000000000000000000000008152600401611b1f906134b4565b60405180910390fd5b611b326000612a09565b565b600560009054906101000a900473ffffffffffffffffffffffffffffffffffffffff1681565b60045481565b60008060009054906101000a900473ffffffffffffffffffffffffffffffffffffffff16905090565b6000611bb2600454611ba4858561250690919063ffffffff16565b61244290919063ffffffff16565b905092915050565b6007602052816000526040600020602052806000526040600020600091509150508060000154908060010154905082565b600060068481548110611c0157611c006133bd565b5b9060005260206000209060080201905060006007600086815260200190815260200160002060003373ffffffffffffffffffffffffffffffffffffffff1673ffffffffffffffffffffffffffffffffffffffff16815260200190815260200160002090508281600001541015611cac576040517f08c379a0000000000000000000000000000000000000000000000000000000008152600401611ca39061371c565b60405180910390fd5b611cb5856111ad565b6000611cff8260010154611cf164e8d4a51000611ce38760030154876000015461244290919063ffffffff16565b6124bc90919063ffffffff16565b61250690919063ffffffff16565b90506000811115611d1557611d143382612550565b5b611d2c84836000015461250690919063ffffffff16565b8260000181905550611d5a84600a60008981526020019081526020016000205461250690919063ffffffff16565b600a600088815260200190815260200160002081905550611da364e8d4a51000611d958560030154856000015461244290919063ffffffff16565b6124bc90919063ffffffff16565b82600101819055506000836007015403611e4b578260040160009054906101000a900473ffffffffffffffffffffffffffffffffffffffff1673ffffffffffffffffffffffffffffffffffffffff16631058d281856040518263ffffffff1660e01b8152600401611e149190612eae565b600060405180830381600087803b158015611e2e57600080fd5b505af1158015611e42573d6000803e3d6000fd5b50505050611edd565b8260040160009054906101000a900473ffffffffffffffffffffffffffffffffffffffff1673ffffffffffffffffffffffffffffffffffffffff1663441a3e7086866040518363ffffffff1660e01b8152600401611eaa92919061334c565b600060405180830381600087803b158015611ec457600080fd5b505af1158015611ed8573d6000803e3d6000fd5b505050505b611f2c33858560000160009054906101000a900473ffffffffffffffffffffffffffffffffffffffff1673ffffffffffffffffffffffffffffffffffffffff1661282c9092919063ffffffff16565b60008360050160009054906101000a900473ffffffffffffffffffffffffffffffffffffffff1673ffffffffffffffffffffffffffffffffffffffff166370a08231306040518263ffffffff1660e01b8152600401611f8b91906132f1565b602060405180830381865afa158015611fa8573d6000803e3d6000fd5b505050506040513d601f19601f82011682018060405250810190611fcc919061342a565b9050600081111561204957612048600260009054906101000a900473ffffffffffffffffffffffffffffffffffffffff16828660050160009054906101000a900473ffffffffffffffffffffffffffffffffffffffff1673ffffffffffffffffffffffffffffffffffffffff1661282c9092919063ffffffff16565b5b863373ffffffffffffffffffffffffffffffffffffffff167ff279e6a1f5e320cca91135676d9cb6e44ca8a08c0b88342bcdb1144f6511b568876040516120909190612eae565b60405180910390a350505050505050565b600160009054906101000a900473ffffffffffffffffffffffffffffffffffffffff1681565b6120cf6128b2565b73ffffffffffffffffffffffffffffffffffffffff166120ed611b60565b73ffffffffffffffffffffffffffffffffffffffff1614612143576040517f08c379a000000000000000000000000000000000000000000000000000000000815260040161213a906134b4565b60405180910390fd5b80600260006101000a81548173ffffffffffffffffffffffffffffffffffffffff021916908373ffffffffffffffffffffffffffffffffffffffff16021790555050565b600260009054906101000a900473ffffffffffffffffffffffffffffffffffffffff1681565b6000600682815481106121c3576121c26133bd565b5b906000526020600020906008020190508060000160009054906101000a900473ffffffffffffffffffffffffffffffffffffffff1673ffffffffffffffffffffffffffffffffffffffff1663095ea7b38260040160009054906101000a900473ffffffffffffffffffffffffffffffffffffffff16600b546040518363ffffffff1660e01b81526004016122589291906135ee565b6020604051808303816000875af1158015612277573d6000803e3d6000fd5b505050506040513d601f19601f8201168201806040525081019061229b919061362c565b508060050160009054906101000a900473ffffffffffffffffffffffffffffffffffffffff1673ffffffffffffffffffffffffffffffffffffffff1663095ea7b330600b546040518363ffffffff1660e01b81526004016122fd9291906135ee565b6020604051808303816000875af115801561231c573d6000803e3d6000fd5b505050506040513d601f19601f82011682018060405250810190612340919061362c565b505050565b61234d6128b2565b73ffffffffffffffffffffffffffffffffffffffff1661236b611b60565b73ffffffffffffffffffffffffffffffffffffffff16146123c1576040517f08c379a00000000000000000000000000000000000000000000000000000000081526004016123b8906134b4565b60405180910390fd5b600073ffffffffffffffffffffffffffffffffffffffff168173ffffffffffffffffffffffffffffffffffffffff1603612430576040517f08c379a0000000000000000000000000000000000000000000000000000000008152600401612427906137ae565b60405180910390fd5b61243981612a09565b50565b60035481565b600080830361245457600090506124b6565b6000828461246291906137ce565b90508284826124719190613857565b146124b1576040517f08c379a00000000000000000000000000000000000000000000000000000000081526004016124a8906138fa565b60405180910390fd5b809150505b92915050565b60006124fe83836040518060400160405280601a81526020017f536166654d6174683a206469766973696f6e206279207a65726f000000000000815250612acd565b905092915050565b600061254883836040518060400160405280601e81526020017f536166654d6174683a207375627472616374696f6e206f766572666c6f770000815250612b30565b905092915050565b6000600160009054906101000a900473ffffffffffffffffffffffffffffffffffffffff1673ffffffffffffffffffffffffffffffffffffffff166370a08231306040518263ffffffff1660e01b81526004016125ad91906132f1565b602060405180830381865afa1580156125ca573d6000803e3d6000fd5b505050506040513d601f19601f820116820180604052508101906125ee919061342a565b90508082111561269e57600160009054906101000a900473ffffffffffffffffffffffffffffffffffffffff1673ffffffffffffffffffffffffffffffffffffffff1663a9059cbb84836040518363ffffffff1660e01b81526004016126559291906135ee565b6020604051808303816000875af1158015612674573d6000803e3d6000fd5b505050506040513d601f19601f82011682018060405250810190612698919061362c565b50612740565b600160009054906101000a900473ffffffffffffffffffffffffffffffffffffffff1673ffffffffffffffffffffffffffffffffffffffff1663a9059cbb84846040518363ffffffff1660e01b81526004016126fb9291906135ee565b6020604051808303816000875af115801561271a573d6000803e3d6000fd5b505050506040513d601f19601f8201168201806040525081019061273e919061362c565b505b505050565b6127c8846323b872dd60e01b8585856040516024016127669392919061391a565b604051602081830303815290604052907bffffffffffffffffffffffffffffffffffffffffffffffffffffffff19166020820180517bffffffffffffffffffffffffffffffffffffffffffffffffffffffff8381831617835250505050612b94565b50505050565b60008082846127dd9190613951565b905083811015612822576040517f08c379a0000000000000000000000000000000000000000000000000000000008152600401612819906139f3565b60405180910390fd5b8091505092915050565b6128ad8363a9059cbb60e01b848460405160240161284b9291906135ee565b604051602081830303815290604052907bffffffffffffffffffffffffffffffffffffffffffffffffffffffff19166020820180517bffffffffffffffffffffffffffffffffffffffffffffffffffffffff8381831617835250505050612b94565b505050565b600033905090565b6000811480612944575060008373ffffffffffffffffffffffffffffffffffffffff1663dd62ed3e30856040518363ffffffff1660e01b81526004016129019291906133ec565b602060405180830381865afa15801561291e573d6000803e3d6000fd5b505050506040513d601f19601f82011682018060405250810190612942919061342a565b145b612983576040517f08c379a000000000000000000000000000000000000000000000000000000000815260040161297a90613a85565b60405180910390fd5b612a048363095ea7b360e01b84846040516024016129a29291906135ee565b604051602081830303815290604052907bffffffffffffffffffffffffffffffffffffffffffffffffffffffff19166020820180517bffffffffffffffffffffffffffffffffffffffffffffffffffffffff8381831617835250505050612b94565b505050565b60008060009054906101000a900473ffffffffffffffffffffffffffffffffffffffff169050816000806101000a81548173ffffffffffffffffffffffffffffffffffffffff021916908373ffffffffffffffffffffffffffffffffffffffff1602179055508173ffffffffffffffffffffffffffffffffffffffff168173ffffffffffffffffffffffffffffffffffffffff167f8be0079c531659141344cd1fd0a4f28419497f9722a3daafe3b4186f6b6457e060405160405180910390a35050565b60008083118290612b14576040517f08c379a0000000000000000000000000000000000000000000000000000000008152600401612b0b9190613b2d565b60405180910390fd5b5060008385612b239190613857565b9050809150509392505050565b6000838311158290612b78576040517f08c379a0000000000000000000000000000000000000000000000000000000008152600401612b6f9190613b2d565b60405180910390fd5b5060008385612b879190613b4f565b9050809150509392505050565b6000612bf6826040518060400160405280602081526020017f5361666545524332303a206c6f772d6c6576656c2063616c6c206661696c65648152508573ffffffffffffffffffffffffffffffffffffffff16612c5b9092919063ffffffff16565b9050600081511115612c565780806020019051810190612c16919061362c565b612c55576040517f08c379a0000000000000000000000000000000000000000000000000000000008152600401612c4c90613bf5565b60405180910390fd5b5b505050565b6060612c6a8484600085612c73565b90509392505050565b606082471015612cb8576040517f08c379a0000000000000000000000000000000000000000000000000000000008152600401612caf90613c87565b60405180910390fd5b612cc185612d87565b612d00576040517f08c379a0000000000000000000000000000000000000000000000000000000008152600401612cf790613cf3565b60405180910390fd5b6000808673ffffffffffffffffffffffffffffffffffffffff168587604051612d299190613d5a565b60006040518083038185875af1925050503d8060008114612d66576040519150601f19603f3d011682016040523d82523d6000602084013e612d6b565b606091505b5091509150612d7b828286612daa565b92505050949350505050565b6000808273ffffffffffffffffffffffffffffffffffffffff163b119050919050565b60608315612dba57829050612e0a565b600083511115612dcd5782518084602001fd5b816040517f08c379a0000000000000000000000000000000000000000000000000000000008152600401612e019190613b2d565b60405180910390fd5b9392505050565b600080fd5b6000819050919050565b612e2981612e16565b8114612e3457600080fd5b50565b600081359050612e4681612e20565b92915050565b600080600060608486031215612e6557612e64612e11565b5b6000612e7386828701612e37565b9350506020612e8486828701612e37565b9250506040612e9586828701612e37565b9150509250925092565b612ea881612e16565b82525050565b6000602082019050612ec36000830184612e9f565b92915050565b600060208284031215612edf57612ede612e11565b5b6000612eed84828501612e37565b91505092915050565b600073ffffffffffffffffffffffffffffffffffffffff82169050919050565b6000819050919050565b6000612f3b612f36612f3184612ef6565b612f16565b612ef6565b9050919050565b6000612f4d82612f20565b9050919050565b6000612f5f82612f42565b9050919050565b612f6f81612f54565b82525050565b6000612f8082612f42565b9050919050565b612f9081612f75565b82525050565b600061010082019050612fac600083018b612f66565b612fb9602083018a612e9f565b612fc66040830189612e9f565b612fd36060830188612e9f565b612fe06080830187612f87565b612fed60a0830186612f66565b612ffa60c0830185612e9f565b61300760e0830184612e9f565b9998505050505050505050565b600061301f82612ef6565b9050919050565b61302f81613014565b811461303a57600080fd5b50565b60008135905061304c81613026565b92915050565b6000806040838503121561306957613068612e11565b5b600061307785828601612e37565b92505060206130888582860161303d565b9150509250929050565b600061309d82613014565b9050919050565b6130ad81613092565b81146130b857600080fd5b50565b6000813590506130ca816130a4565b92915050565b6000602082840312156130e6576130e5612e11565b5b60006130f4848285016130bb565b91505092915050565b60008115159050919050565b613112816130fd565b811461311d57600080fd5b50565b60008135905061312f81613109565b92915050565b60008060006060848603121561314e5761314d612e11565b5b600061315c86828701612e37565b935050602061316d86828701612e37565b925050604061317e86828701613120565b9150509250925092565b600061319382613014565b9050919050565b6131a381613188565b81146131ae57600080fd5b50565b6000813590506131c08161319a565b92915050565b60006131d182613014565b9050919050565b6131e1816131c6565b81146131ec57600080fd5b50565b6000813590506131fe816131d8565b92915050565b600080600080600080600060e0888a03121561322357613222612e11565b5b60006132318a828b01612e37565b97505060206132428a828b016131b1565b96505060406132538a828b01613120565b95505060606132648a828b016131ef565b94505060806132758a828b016131b1565b93505060a06132868a828b01612e37565b92505060c06132978a828b01612e37565b91505092959891949750929550565b60006132b182612f42565b9050919050565b6132c1816132a6565b82525050565b60006020820190506132dc60008301846132b8565b92915050565b6132eb81613014565b82525050565b600060208201905061330660008301846132e2565b92915050565b6000806040838503121561332357613322612e11565b5b600061333185828601612e37565b925050602061334285828601612e37565b9150509250929050565b60006040820190506133616000830185612e9f565b61336e6020830184612e9f565b9392505050565b600060208201905061338a6000830184612f66565b92915050565b6000602082840312156133a6576133a5612e11565b5b60006133b48482850161303d565b91505092915050565b7f4e487b7100000000000000000000000000000000000000000000000000000000600052603260045260246000fd5b600060408201905061340160008301856132e2565b61340e60208301846132e2565b9392505050565b60008151905061342481612e20565b92915050565b6000602082840312156134405761343f612e11565b5b600061344e84828501613415565b91505092915050565b600082825260208201905092915050565b7f4f776e61626c653a2063616c6c6572206973206e6f7420746865206f776e6572600082015250565b600061349e602083613457565b91506134a982613468565b602082019050919050565b600060208201905081810360008301526134cd81613491565b9050919050565b7f6d6967726174653a206e6f206d69677261746f72000000000000000000000000600082015250565b600061350a601483613457565b9150613515826134d4565b602082019050919050565b60006020820190508181036000830152613539816134fd565b9050919050565b60008151905061354f8161319a565b92915050565b60006020828403121561356b5761356a612e11565b5b600061357984828501613540565b91505092915050565b7f6d6967726174653a206261640000000000000000000000000000000000000000600082015250565b60006135b8600c83613457565b91506135c382613582565b602082019050919050565b600060208201905081810360008301526135e7816135ab565b9050919050565b600060408201905061360360008301856132e2565b6136106020830184612e9f565b9392505050565b60008151905061362681613109565b92915050565b60006020828403121561364257613641612e11565b5b600061365084828501613617565b91505092915050565b7f4e487b7100000000000000000000000000000000000000000000000000000000600052601160045260246000fd5b600061369382612e16565b91507fffffffffffffffffffffffffffffffffffffffffffffffffffffffffffffffff82036136c5576136c4613659565b5b600182019050919050565b7f77697468647261773a206e6f7420676f6f640000000000000000000000000000600082015250565b6000613706601283613457565b9150613711826136d0565b602082019050919050565b60006020820190508181036000830152613735816136f9565b9050919050565b7f4f776e61626c653a206e6577206f776e657220697320746865207a65726f206160008201527f6464726573730000000000000000000000000000000000000000000000000000602082015250565b6000613798602683613457565b91506137a38261373c565b604082019050919050565b600060208201905081810360008301526137c78161378b565b9050919050565b60006137d982612e16565b91506137e483612e16565b9250817fffffffffffffffffffffffffffffffffffffffffffffffffffffffffffffffff048311821515161561381d5761381c613659565b5b828202905092915050565b7f4e487b7100000000000000000000000000000000000000000000000000000000600052601260045260246000fd5b600061386282612e16565b915061386d83612e16565b92508261387d5761387c613828565b5b828204905092915050565b7f536166654d6174683a206d756c7469706c69636174696f6e206f766572666c6f60008201527f7700000000000000000000000000000000000000000000000000000000000000602082015250565b60006138e4602183613457565b91506138ef82613888565b604082019050919050565b60006020820190508181036000830152613913816138d7565b9050919050565b600060608201905061392f60008301866132e2565b61393c60208301856132e2565b6139496040830184612e9f565b949350505050565b600061395c82612e16565b915061396783612e16565b9250827fffffffffffffffffffffffffffffffffffffffffffffffffffffffffffffffff0382111561399c5761399b613659565b5b828201905092915050565b7f536166654d6174683a206164646974696f6e206f766572666c6f770000000000600082015250565b60006139dd601b83613457565b91506139e8826139a7565b602082019050919050565b60006020820190508181036000830152613a0c816139d0565b9050919050565b7f5361666545524332303a20617070726f76652066726f6d206e6f6e2d7a65726f60008201527f20746f206e6f6e2d7a65726f20616c6c6f77616e636500000000000000000000602082015250565b6000613a6f603683613457565b9150613a7a82613a13565b604082019050919050565b60006020820190508181036000830152613a9e81613a62565b9050919050565b600081519050919050565b60005b83811015613ace578082015181840152602081019050613ab3565b83811115613add576000848401525b50505050565b6000601f19601f8301169050919050565b6000613aff82613aa5565b613b098185613457565b9350613b19818560208601613ab0565b613b2281613ae3565b840191505092915050565b60006020820190508181036000830152613b478184613af4565b905092915050565b6000613b5a82612e16565b9150613b6583612e16565b925082821015613b7857613b77613659565b5b828203905092915050565b7f5361666545524332303a204552433230206f7065726174696f6e20646964206e60008201527f6f74207375636365656400000000000000000000000000000000000000000000602082015250565b6000613bdf602a83613457565b9150613bea82613b83565b604082019050919050565b60006020820190508181036000830152613c0e81613bd2565b9050919050565b7f416464726573733a20696e73756666696369656e742062616c616e636520666f60008201527f722063616c6c0000000000000000000000000000000000000000000000000000602082015250565b6000613c71602683613457565b9150613c7c82613c15565b604082019050919050565b60006020820190508181036000830152613ca081613c64565b9050919050565b7f416464726573733a2063616c6c20746f206e6f6e2d636f6e7472616374000000600082015250565b6000613cdd601d83613457565b9150613ce882613ca7565b602082019050919050565b60006020820190508181036000830152613d0c81613cd0565b9050919050565b600081519050919050565b600081905092915050565b6000613d3482613d13565b613d3e8185613d1e565b9350613d4e818560208601613ab0565b80840191505092915050565b6000613d668284613d29565b91508190509291505056fea26469706673582212206c9837b2ad4108ed23d0e603de65fbbc3639707f9874415e1cb958324c38ecf664736f6c634300080f0033",
					"opcodes": "PUSH1 0x80 PUSH1 0x40 MSTORE PUSH1 0x1 PUSH1 0x4 SSTORE PUSH1 0x0 PUSH1 0x8 SSTORE PUSH18 0x7F8C9EF06E25A77FE790001FAC71C71C71C7 PUSH1 0xB SSTORE PUSH3 0x186A0 PUSH1 0xC SSTORE CALLVALUE DUP1 ISZERO PUSH3 0x38 JUMPI PUSH1 0x0 DUP1 REVERT JUMPDEST POP PUSH1 0x40 MLOAD PUSH3 0x40F7 CODESIZE SUB DUP1 PUSH3 0x40F7 DUP4 CODECOPY DUP2 DUP2 ADD PUSH1 0x40 MSTORE DUP2 ADD SWAP1 PUSH3 0x5E SWAP2 SWAP1 PUSH3 0x2CE JUMP JUMPDEST PUSH3 0x7E PUSH3 0x72 PUSH3 0x118 PUSH1 0x20 SHL PUSH1 0x20 SHR JUMP JUMPDEST PUSH3 0x120 PUSH1 0x20 SHL PUSH1 0x20 SHR JUMP JUMPDEST DUP4 PUSH1 0x1 PUSH1 0x0 PUSH2 0x100 EXP DUP2 SLOAD DUP2 PUSH20 0xFFFFFFFFFFFFFFFFFFFFFFFFFFFFFFFFFFFFFFFF MUL NOT AND SWAP1 DUP4 PUSH20 0xFFFFFFFFFFFFFFFFFFFFFFFFFFFFFFFFFFFFFFFF AND MUL OR SWAP1 SSTORE POP DUP3 PUSH1 0x2 PUSH1 0x0 PUSH2 0x100 EXP DUP2 SLOAD DUP2 PUSH20 0xFFFFFFFFFFFFFFFFFFFFFFFFFFFFFFFFFFFFFFFF MUL NOT AND SWAP1 DUP4 PUSH20 0xFFFFFFFFFFFFFFFFFFFFFFFFFFFFFFFFFFFFFFFF AND MUL OR SWAP1 SSTORE POP DUP2 PUSH1 0x3 DUP2 SWAP1 SSTORE POP DUP1 PUSH1 0x9 DUP2 SWAP1 SSTORE POP POP POP POP POP PUSH3 0x340 JUMP JUMPDEST PUSH1 0x0 CALLER SWAP1 POP SWAP1 JUMP JUMPDEST PUSH1 0x0 DUP1 PUSH1 0x0 SWAP1 SLOAD SWAP1 PUSH2 0x100 EXP SWAP1 DIV PUSH20 0xFFFFFFFFFFFFFFFFFFFFFFFFFFFFFFFFFFFFFFFF AND SWAP1 POP DUP2 PUSH1 0x0 DUP1 PUSH2 0x100 EXP DUP2 SLOAD DUP2 PUSH20 0xFFFFFFFFFFFFFFFFFFFFFFFFFFFFFFFFFFFFFFFF MUL NOT AND SWAP1 DUP4 PUSH20 0xFFFFFFFFFFFFFFFFFFFFFFFFFFFFFFFFFFFFFFFF AND MUL OR SWAP1 SSTORE POP DUP2 PUSH20 0xFFFFFFFFFFFFFFFFFFFFFFFFFFFFFFFFFFFFFFFF AND DUP2 PUSH20 0xFFFFFFFFFFFFFFFFFFFFFFFFFFFFFFFFFFFFFFFF AND PUSH32 0x8BE0079C531659141344CD1FD0A4F28419497F9722A3DAAFE3B4186F6B6457E0 PUSH1 0x40 MLOAD PUSH1 0x40 MLOAD DUP1 SWAP2 SUB SWAP1 LOG3 POP POP JUMP JUMPDEST PUSH1 0x0 DUP1 REVERT JUMPDEST PUSH1 0x0 PUSH20 0xFFFFFFFFFFFFFFFFFFFFFFFFFFFFFFFFFFFFFFFF DUP3 AND SWAP1 POP SWAP2 SWAP1 POP JUMP JUMPDEST PUSH1 0x0 PUSH3 0x216 DUP3 PUSH3 0x1E9 JUMP JUMPDEST SWAP1 POP SWAP2 SWAP1 POP JUMP JUMPDEST PUSH1 0x0 PUSH3 0x22A DUP3 PUSH3 0x209 JUMP JUMPDEST SWAP1 POP SWAP2 SWAP1 POP JUMP JUMPDEST PUSH3 0x23C DUP2 PUSH3 0x21D JUMP JUMPDEST DUP2 EQ PUSH3 0x248 JUMPI PUSH1 0x0 DUP1 REVERT JUMPDEST POP JUMP JUMPDEST PUSH1 0x0 DUP2 MLOAD SWAP1 POP PUSH3 0x25C DUP2 PUSH3 0x231 JUMP JUMPDEST SWAP3 SWAP2 POP POP JUMP JUMPDEST PUSH3 0x26D DUP2 PUSH3 0x209 JUMP JUMPDEST DUP2 EQ PUSH3 0x279 JUMPI PUSH1 0x0 DUP1 REVERT JUMPDEST POP JUMP JUMPDEST PUSH1 0x0 DUP2 MLOAD SWAP1 POP PUSH3 0x28D DUP2 PUSH3 0x262 JUMP JUMPDEST SWAP3 SWAP2 POP POP JUMP JUMPDEST PUSH1 0x0 DUP2 SWAP1 POP SWAP2 SWAP1 POP JUMP JUMPDEST PUSH3 0x2A8 DUP2 PUSH3 0x293 JUMP JUMPDEST DUP2 EQ PUSH3 0x2B4 JUMPI PUSH1 0x0 DUP1 REVERT JUMPDEST POP JUMP JUMPDEST PUSH1 0x0 DUP2 MLOAD SWAP1 POP PUSH3 0x2C8 DUP2 PUSH3 0x29D JUMP JUMPDEST SWAP3 SWAP2 POP POP JUMP JUMPDEST PUSH1 0x0 DUP1 PUSH1 0x0 DUP1 PUSH1 0x80 DUP6 DUP8 SUB SLT ISZERO PUSH3 0x2EB JUMPI PUSH3 0x2EA PUSH3 0x1E4 JUMP JUMPDEST JUMPDEST PUSH1 0x0 PUSH3 0x2FB DUP8 DUP3 DUP9 ADD PUSH3 0x24B JUMP JUMPDEST SWAP5 POP POP PUSH1 0x20 PUSH3 0x30E DUP8 DUP3 DUP9 ADD PUSH3 0x27C JUMP JUMPDEST SWAP4 POP POP PUSH1 0x40 PUSH3 0x321 DUP8 DUP3 DUP9 ADD PUSH3 0x2B7 JUMP JUMPDEST SWAP3 POP POP PUSH1 0x60 PUSH3 0x334 DUP8 DUP3 DUP9 ADD PUSH3 0x2B7 JUMP JUMPDEST SWAP2 POP POP SWAP3 SWAP6 SWAP2 SWAP5 POP SWAP3 POP JUMP JUMPDEST PUSH2 0x3DA7 DUP1 PUSH3 0x350 PUSH1 0x0 CODECOPY PUSH1 0x0 RETURN INVALID PUSH1 0x80 PUSH1 0x40 MSTORE CALLVALUE DUP1 ISZERO PUSH2 0x10 JUMPI PUSH1 0x0 DUP1 REVERT JUMPDEST POP PUSH1 0x4 CALLDATASIZE LT PUSH2 0x1D9 JUMPI PUSH1 0x0 CALLDATALOAD PUSH1 0xE0 SHR DUP1 PUSH4 0x68382A21 GT PUSH2 0x104 JUMPI DUP1 PUSH4 0x93F1A40B GT PUSH2 0xA2 JUMPI DUP1 PUSH4 0xD49E77CD GT PUSH2 0x71 JUMPI DUP1 PUSH4 0xD49E77CD EQ PUSH2 0x50C JUMPI DUP1 PUSH4 0xEEAC3AE8 EQ PUSH2 0x52A JUMPI DUP1 PUSH4 0xF2FDE38B EQ PUSH2 0x546 JUMPI DUP1 PUSH4 0xF395DB2C EQ PUSH2 0x562 JUMPI PUSH2 0x1D9 JUMP JUMPDEST DUP1 PUSH4 0x93F1A40B EQ PUSH2 0x485 JUMPI DUP1 PUSH4 0xA41FE49F EQ PUSH2 0x4B6 JUMPI DUP1 PUSH4 0xCB3CBA55 EQ PUSH2 0x4D2 JUMPI DUP1 PUSH4 0xD0D41FE1 EQ PUSH2 0x4F0 JUMPI PUSH2 0x1D9 JUMP JUMPDEST DUP1 PUSH4 0x7CD07E47 GT PUSH2 0xDE JUMPI DUP1 PUSH4 0x7CD07E47 EQ PUSH2 0x3FB JUMPI DUP1 PUSH4 0x8AA28550 EQ PUSH2 0x419 JUMPI DUP1 PUSH4 0x8DA5CB5B EQ PUSH2 0x437 JUMPI DUP1 PUSH4 0x8DBB1E3A EQ PUSH2 0x455 JUMPI PUSH2 0x1D9 JUMP JUMPDEST DUP1 PUSH4 0x68382A21 EQ PUSH2 0x3A5 JUMPI DUP1 PUSH4 0x6A6D964E EQ PUSH2 0x3C1 JUMPI DUP1 PUSH4 0x715018A6 EQ PUSH2 0x3F1 JUMPI PUSH2 0x1D9 JUMP JUMPDEST DUP1 PUSH4 0x48CD4CB1 GT PUSH2 0x17C JUMPI DUP1 PUSH4 0x612EEE43 GT PUSH2 0x14B JUMPI DUP1 PUSH4 0x612EEE43 EQ PUSH2 0x347 JUMPI DUP1 PUSH4 0x630B5BA1 EQ PUSH2 0x363 JUMPI DUP1 PUSH4 0x64482F79 EQ PUSH2 0x36D JUMPI DUP1 PUSH4 0x64944193 EQ PUSH2 0x389 JUMPI PUSH2 0x1D9 JUMP JUMPDEST DUP1 PUSH4 0x48CD4CB1 EQ PUSH2 0x2D5 JUMPI DUP1 PUSH4 0x51EB05A6 EQ PUSH2 0x2F3 JUMPI DUP1 PUSH4 0x5312EA8E EQ PUSH2 0x30F JUMPI DUP1 PUSH4 0x5FFE6146 EQ PUSH2 0x32B JUMPI PUSH2 0x1D9 JUMP JUMPDEST DUP1 PUSH4 0x17CAF6F1 GT PUSH2 0x1B8 JUMPI DUP1 PUSH4 0x17CAF6F1 EQ PUSH2 0x24F JUMPI DUP1 PUSH4 0x2080BAAB EQ PUSH2 0x26D JUMPI DUP1 PUSH4 0x23CF3118 EQ PUSH2 0x29D JUMPI DUP1 PUSH4 0x454B0608 EQ PUSH2 0x2B9 JUMPI PUSH2 0x1D9 JUMP JUMPDEST DUP1 PUSH3 0xAEEF8A EQ PUSH2 0x1DE JUMPI DUP1 PUSH4 0x81E3EDA EQ PUSH2 0x1FA JUMPI DUP1 PUSH4 0x1526FE27 EQ PUSH2 0x218 JUMPI JUMPDEST PUSH1 0x0 DUP1 REVERT JUMPDEST PUSH2 0x1F8 PUSH1 0x4 DUP1 CALLDATASIZE SUB DUP2 ADD SWAP1 PUSH2 0x1F3 SWAP2 SWAP1 PUSH2 0x2E4C JUMP JUMPDEST PUSH2 0x580 JUMP JUMPDEST STOP JUMPDEST PUSH2 0x202 PUSH2 0xB95 JUMP JUMPDEST PUSH1 0x40 MLOAD PUSH2 0x20F SWAP2 SWAP1 PUSH2 0x2EAE JUMP JUMPDEST PUSH1 0x40 MLOAD DUP1 SWAP2 SUB SWAP1 RETURN JUMPDEST PUSH2 0x232 PUSH1 0x4 DUP1 CALLDATASIZE SUB DUP2 ADD SWAP1 PUSH2 0x22D SWAP2 SWAP1 PUSH2 0x2EC9 JUMP JUMPDEST PUSH2 0xBA2 JUMP JUMPDEST PUSH1 0x40 MLOAD PUSH2 0x246 SWAP9 SWAP8 SWAP7 SWAP6 SWAP5 SWAP4 SWAP3 SWAP2 SWAP1 PUSH2 0x2F96 JUMP JUMPDEST PUSH1 0x40 MLOAD DUP1 SWAP2 SUB SWAP1 RETURN JUMPDEST PUSH2 0x257 PUSH2 0xC5A JUMP JUMPDEST PUSH1 0x40 MLOAD PUSH2 0x264 SWAP2 SWAP1 PUSH2 0x2EAE JUMP JUMPDEST PUSH1 0x40 MLOAD DUP1 SWAP2 SUB SWAP1 RETURN JUMPDEST PUSH2 0x287 PUSH1 0x4 DUP1 CALLDATASIZE SUB DUP2 ADD SWAP1 PUSH2 0x282 SWAP2 SWAP1 PUSH2 0x3052 JUMP JUMPDEST PUSH2 0xC60 JUMP JUMPDEST PUSH1 0x40 MLOAD PUSH2 0x294 SWAP2 SWAP1 PUSH2 0x2EAE JUMP JUMPDEST PUSH1 0x40 MLOAD DUP1 SWAP2 SUB SWAP1 RETURN JUMPDEST PUSH2 0x2B7 PUSH1 0x4 DUP1 CALLDATASIZE SUB DUP2 ADD SWAP1 PUSH2 0x2B2 SWAP2 SWAP1 PUSH2 0x30D0 JUMP JUMPDEST PUSH2 0xDFB JUMP JUMPDEST STOP JUMPDEST PUSH2 0x2D3 PUSH1 0x4 DUP1 CALLDATASIZE SUB DUP2 ADD SWAP1 PUSH2 0x2CE SWAP2 SWAP1 PUSH2 0x2EC9 JUMP JUMPDEST PUSH2 0xEBB JUMP JUMPDEST STOP JUMPDEST PUSH2 0x2DD PUSH2 0x11A7 JUMP JUMPDEST PUSH1 0x40 MLOAD PUSH2 0x2EA SWAP2 SWAP1 PUSH2 0x2EAE JUMP JUMPDEST PUSH1 0x40 MLOAD DUP1 SWAP2 SUB SWAP1 RETURN JUMPDEST PUSH2 0x30D PUSH1 0x4 DUP1 CALLDATASIZE SUB DUP2 ADD SWAP1 PUSH2 0x308 SWAP2 SWAP1 PUSH2 0x2EC9 JUMP JUMPDEST PUSH2 0x11AD JUMP JUMPDEST STOP JUMPDEST PUSH2 0x329 PUSH1 0x4 DUP1 CALLDATASIZE SUB DUP2 ADD SWAP1 PUSH2 0x324 SWAP2 SWAP1 PUSH2 0x2EC9 JUMP JUMPDEST PUSH2 0x1363 JUMP JUMPDEST STOP JUMPDEST PUSH2 0x345 PUSH1 0x4 DUP1 CALLDATASIZE SUB DUP2 ADD SWAP1 PUSH2 0x340 SWAP2 SWAP1 PUSH2 0x2EC9 JUMP JUMPDEST PUSH2 0x149C JUMP JUMPDEST STOP JUMPDEST PUSH2 0x361 PUSH1 0x4 DUP1 CALLDATASIZE SUB DUP2 ADD SWAP1 PUSH2 0x35C SWAP2 SWAP1 PUSH2 0x2EC9 JUMP JUMPDEST PUSH2 0x1522 JUMP JUMPDEST STOP JUMPDEST PUSH2 0x36B PUSH2 0x15A8 JUMP JUMPDEST STOP JUMPDEST PUSH2 0x387 PUSH1 0x4 DUP1 CALLDATASIZE SUB DUP2 ADD SWAP1 PUSH2 0x382 SWAP2 SWAP1 PUSH2 0x3135 JUMP JUMPDEST PUSH2 0x15DB JUMP JUMPDEST STOP JUMPDEST PUSH2 0x3A3 PUSH1 0x4 DUP1 CALLDATASIZE SUB DUP2 ADD SWAP1 PUSH2 0x39E SWAP2 SWAP1 PUSH2 0x3204 JUMP JUMPDEST PUSH2 0x16E7 JUMP JUMPDEST STOP JUMPDEST PUSH2 0x3BF PUSH1 0x4 DUP1 CALLDATASIZE SUB DUP2 ADD SWAP1 PUSH2 0x3BA SWAP2 SWAP1 PUSH2 0x2EC9 JUMP JUMPDEST PUSH2 0x195F JUMP JUMPDEST STOP JUMPDEST PUSH2 0x3DB PUSH1 0x4 DUP1 CALLDATASIZE SUB DUP2 ADD SWAP1 PUSH2 0x3D6 SWAP2 SWAP1 PUSH2 0x2EC9 JUMP JUMPDEST PUSH2 0x1A94 JUMP JUMPDEST PUSH1 0x40 MLOAD PUSH2 0x3E8 SWAP2 SWAP1 PUSH2 0x2EAE JUMP JUMPDEST PUSH1 0x40 MLOAD DUP1 SWAP2 SUB SWAP1 RETURN JUMPDEST PUSH2 0x3F9 PUSH2 0x1AAC JUMP JUMPDEST STOP JUMPDEST PUSH2 0x403 PUSH2 0x1B34 JUMP JUMPDEST PUSH1 0x40 MLOAD PUSH2 0x410 SWAP2 SWAP1 PUSH2 0x32C7 JUMP JUMPDEST PUSH1 0x40 MLOAD DUP1 SWAP2 SUB SWAP1 RETURN JUMPDEST PUSH2 0x421 PUSH2 0x1B5A JUMP JUMPDEST PUSH1 0x40 MLOAD PUSH2 0x42E SWAP2 SWAP1 PUSH2 0x2EAE JUMP JUMPDEST PUSH1 0x40 MLOAD DUP1 SWAP2 SUB SWAP1 RETURN JUMPDEST PUSH2 0x43F PUSH2 0x1B60 JUMP JUMPDEST PUSH1 0x40 MLOAD PUSH2 0x44C SWAP2 SWAP1 PUSH2 0x32F1 JUMP JUMPDEST PUSH1 0x40 MLOAD DUP1 SWAP2 SUB SWAP1 RETURN JUMPDEST PUSH2 0x46F PUSH1 0x4 DUP1 CALLDATASIZE SUB DUP2 ADD SWAP1 PUSH2 0x46A SWAP2 SWAP1 PUSH2 0x330C JUMP JUMPDEST PUSH2 0x1B89 JUMP JUMPDEST PUSH1 0x40 MLOAD PUSH2 0x47C SWAP2 SWAP1 PUSH2 0x2EAE JUMP JUMPDEST PUSH1 0x40 MLOAD DUP1 SWAP2 SUB SWAP1 RETURN JUMPDEST PUSH2 0x49F PUSH1 0x4 DUP1 CALLDATASIZE SUB DUP2 ADD SWAP1 PUSH2 0x49A SWAP2 SWAP1 PUSH2 0x3052 JUMP JUMPDEST PUSH2 0x1BBA JUMP JUMPDEST PUSH1 0x40 MLOAD PUSH2 0x4AD SWAP3 SWAP2 SWAP1 PUSH2 0x334C JUMP JUMPDEST PUSH1 0x40 MLOAD DUP1 SWAP2 SUB SWAP1 RETURN JUMPDEST PUSH2 0x4D0 PUSH1 0x4 DUP1 CALLDATASIZE SUB DUP2 ADD SWAP1 PUSH2 0x4CB SWAP2 SWAP1 PUSH2 0x2E4C JUMP JUMPDEST PUSH2 0x1BEB JUMP JUMPDEST STOP JUMPDEST PUSH2 0x4DA PUSH2 0x20A1 JUMP JUMPDEST PUSH1 0x40 MLOAD PUSH2 0x4E7 SWAP2 SWAP1 PUSH2 0x3375 JUMP JUMPDEST PUSH1 0x40 MLOAD DUP1 SWAP2 SUB SWAP1 RETURN JUMPDEST PUSH2 0x50A PUSH1 0x4 DUP1 CALLDATASIZE SUB DUP2 ADD SWAP1 PUSH2 0x505 SWAP2 SWAP1 PUSH2 0x3390 JUMP JUMPDEST PUSH2 0x20C7 JUMP JUMPDEST STOP JUMPDEST PUSH2 0x514 PUSH2 0x2187 JUMP JUMPDEST PUSH1 0x40 MLOAD PUSH2 0x521 SWAP2 SWAP1 PUSH2 0x32F1 JUMP JUMPDEST PUSH1 0x40 MLOAD DUP1 SWAP2 SUB SWAP1 RETURN JUMPDEST PUSH2 0x544 PUSH1 0x4 DUP1 CALLDATASIZE SUB DUP2 ADD SWAP1 PUSH2 0x53F SWAP2 SWAP1 PUSH2 0x2EC9 JUMP JUMPDEST PUSH2 0x21AD JUMP JUMPDEST STOP JUMPDEST PUSH2 0x560 PUSH1 0x4 DUP1 CALLDATASIZE SUB DUP2 ADD SWAP1 PUSH2 0x55B SWAP2 SWAP1 PUSH2 0x3390 JUMP JUMPDEST PUSH2 0x2345 JUMP JUMPDEST STOP JUMPDEST PUSH2 0x56A PUSH2 0x243C JUMP JUMPDEST PUSH1 0x40 MLOAD PUSH2 0x577 SWAP2 SWAP1 PUSH2 0x2EAE JUMP JUMPDEST PUSH1 0x40 MLOAD DUP1 SWAP2 SUB SWAP1 RETURN JUMPDEST PUSH1 0x0 PUSH1 0x6 DUP5 DUP2 SLOAD DUP2 LT PUSH2 0x596 JUMPI PUSH2 0x595 PUSH2 0x33BD JUMP JUMPDEST JUMPDEST SWAP1 PUSH1 0x0 MSTORE PUSH1 0x20 PUSH1 0x0 KECCAK256 SWAP1 PUSH1 0x8 MUL ADD SWAP1 POP PUSH1 0x0 PUSH1 0x7 PUSH1 0x0 DUP7 DUP2 MSTORE PUSH1 0x20 ADD SWAP1 DUP2 MSTORE PUSH1 0x20 ADD PUSH1 0x0 KECCAK256 PUSH1 0x0 CALLER PUSH20 0xFFFFFFFFFFFFFFFFFFFFFFFFFFFFFFFFFFFFFFFF AND PUSH20 0xFFFFFFFFFFFFFFFFFFFFFFFFFFFFFFFFFFFFFFFF AND DUP2 MSTORE PUSH1 0x20 ADD SWAP1 DUP2 MSTORE PUSH1 0x20 ADD PUSH1 0x0 KECCAK256 SWAP1 POP PUSH2 0x603 DUP6 PUSH2 0x11AD JUMP JUMPDEST PUSH1 0x0 DUP2 PUSH1 0x0 ADD SLOAD GT ISZERO PUSH2 0x672 JUMPI PUSH1 0x0 PUSH2 0x65A DUP3 PUSH1 0x1 ADD SLOAD PUSH2 0x64C PUSH5 0xE8D4A51000 PUSH2 0x63E DUP8 PUSH1 0x3 ADD SLOAD DUP8 PUSH1 0x0 ADD SLOAD PUSH2 0x2442 SWAP1 SWAP2 SWAP1 PUSH4 0xFFFFFFFF AND JUMP JUMPDEST PUSH2 0x24BC SWAP1 SWAP2 SWAP1 PUSH4 0xFFFFFFFF AND JUMP JUMPDEST PUSH2 0x2506 SWAP1 SWAP2 SWAP1 PUSH4 0xFFFFFFFF AND JUMP JUMPDEST SWAP1 POP PUSH1 0x0 DUP2 GT ISZERO PUSH2 0x670 JUMPI PUSH2 0x66F CALLER DUP3 PUSH2 0x2550 JUMP JUMPDEST JUMPDEST POP JUMPDEST DUP3 DUP3 PUSH1 0x0 ADD PUSH1 0x0 SWAP1 SLOAD SWAP1 PUSH2 0x100 EXP SWAP1 DIV PUSH20 0xFFFFFFFFFFFFFFFFFFFFFFFFFFFFFFFFFFFFFFFF AND PUSH20 0xFFFFFFFFFFFFFFFFFFFFFFFFFFFFFFFFFFFFFFFF AND PUSH4 0xDD62ED3E ADDRESS DUP6 PUSH1 0x4 ADD PUSH1 0x0 SWAP1 SLOAD SWAP1 PUSH2 0x100 EXP SWAP1 DIV PUSH20 0xFFFFFFFFFFFFFFFFFFFFFFFFFFFFFFFFFFFFFFFF AND PUSH1 0x40 MLOAD DUP4 PUSH4 0xFFFFFFFF AND PUSH1 0xE0 SHL DUP2 MSTORE PUSH1 0x4 ADD PUSH2 0x6F6 SWAP3 SWAP2 SWAP1 PUSH2 0x33EC JUMP JUMPDEST PUSH1 0x20 PUSH1 0x40 MLOAD DUP1 DUP4 SUB DUP2 DUP7 GAS STATICCALL ISZERO DUP1 ISZERO PUSH2 0x713 JUMPI RETURNDATASIZE PUSH1 0x0 DUP1 RETURNDATACOPY RETURNDATASIZE PUSH1 0x0 REVERT JUMPDEST POP POP POP POP PUSH1 0x40 MLOAD RETURNDATASIZE PUSH1 0x1F NOT PUSH1 0x1F DUP3 ADD AND DUP3 ADD DUP1 PUSH1 0x40 MSTORE POP DUP2 ADD SWAP1 PUSH2 0x737 SWAP2 SWAP1 PUSH2 0x342A JUMP JUMPDEST GT PUSH2 0x746 JUMPI PUSH2 0x745 DUP6 PUSH2 0x21AD JUMP JUMPDEST JUMPDEST PUSH1 0x0 PUSH2 0x77A PUSH9 0x56BC75E2D63100000 PUSH2 0x76C DUP6 PUSH1 0x6 ADD SLOAD DUP8 PUSH2 0x2442 SWAP1 SWAP2 SWAP1 PUSH4 0xFFFFFFFF AND JUMP JUMPDEST PUSH2 0x24BC SWAP1 SWAP2 SWAP1 PUSH4 0xFFFFFFFF AND JUMP JUMPDEST SWAP1 POP PUSH1 0x0 PUSH2 0x791 DUP3 DUP7 PUSH2 0x2506 SWAP1 SWAP2 SWAP1 PUSH4 0xFFFFFFFF AND JUMP JUMPDEST SWAP1 POP PUSH2 0x7E4 CALLER ADDRESS DUP4 DUP8 PUSH1 0x0 ADD PUSH1 0x0 SWAP1 SLOAD SWAP1 PUSH2 0x100 EXP SWAP1 DIV PUSH20 0xFFFFFFFFFFFFFFFFFFFFFFFFFFFFFFFFFFFFFFFF AND PUSH20 0xFFFFFFFFFFFFFFFFFFFFFFFFFFFFFFFFFFFFFFFF AND PUSH2 0x2745 SWAP1 SWAP4 SWAP3 SWAP2 SWAP1 PUSH4 0xFFFFFFFF AND JUMP JUMPDEST PUSH2 0x857 CALLER PUSH1 0x2 PUSH1 0x0 SWAP1 SLOAD SWAP1 PUSH2 0x100 EXP SWAP1 DIV PUSH20 0xFFFFFFFFFFFFFFFFFFFFFFFFFFFFFFFFFFFFFFFF AND DUP5 DUP8 PUSH1 0x0 ADD PUSH1 0x0 SWAP1 SLOAD SWAP1 PUSH2 0x100 EXP SWAP1 DIV PUSH20 0xFFFFFFFFFFFFFFFFFFFFFFFFFFFFFFFFFFFFFFFF AND PUSH20 0xFFFFFFFFFFFFFFFFFFFFFFFFFFFFFFFFFFFFFFFF AND PUSH2 0x2745 SWAP1 SWAP4 SWAP3 SWAP2 SWAP1 PUSH4 0xFFFFFFFF AND JUMP JUMPDEST PUSH1 0x0 DUP5 PUSH1 0x7 ADD SLOAD SUB PUSH2 0x8F7 JUMPI DUP4 PUSH1 0x4 ADD PUSH1 0x0 SWAP1 SLOAD SWAP1 PUSH2 0x100 EXP SWAP1 DIV PUSH20 0xFFFFFFFFFFFFFFFFFFFFFFFFFFFFFFFFFFFFFFFF AND PUSH20 0xFFFFFFFFFFFFFFFFFFFFFFFFFFFFFFFFFFFFFFFF AND PUSH4 0x41441D3B DUP3 PUSH1 0x40 MLOAD DUP3 PUSH4 0xFFFFFFFF AND PUSH1 0xE0 SHL DUP2 MSTORE PUSH1 0x4 ADD PUSH2 0x8C0 SWAP2 SWAP1 PUSH2 0x2EAE JUMP JUMPDEST PUSH1 0x0 PUSH1 0x40 MLOAD DUP1 DUP4 SUB DUP2 PUSH1 0x0 DUP8 DUP1 EXTCODESIZE ISZERO DUP1 ISZERO PUSH2 0x8DA JUMPI PUSH1 0x0 DUP1 REVERT JUMPDEST POP GAS CALL ISZERO DUP1 ISZERO PUSH2 0x8EE JUMPI RETURNDATASIZE PUSH1 0x0 DUP1 RETURNDATACOPY RETURNDATASIZE PUSH1 0x0 REVERT JUMPDEST POP POP POP POP PUSH2 0x989 JUMP JUMPDEST DUP4 PUSH1 0x4 ADD PUSH1 0x0 SWAP1 SLOAD SWAP1 PUSH2 0x100 EXP SWAP1 DIV PUSH20 0xFFFFFFFFFFFFFFFFFFFFFFFFFFFFFFFFFFFFFFFF AND PUSH20 0xFFFFFFFFFFFFFFFFFFFFFFFFFFFFFFFFFFFFFFFF AND PUSH4 0xE2BBB158 DUP8 DUP4 PUSH1 0x40 MLOAD DUP4 PUSH4 0xFFFFFFFF AND PUSH1 0xE0 SHL DUP2 MSTORE PUSH1 0x4 ADD PUSH2 0x956 SWAP3 SWAP2 SWAP1 PUSH2 0x334C JUMP JUMPDEST PUSH1 0x0 PUSH1 0x40 MLOAD DUP1 DUP4 SUB DUP2 PUSH1 0x0 DUP8 DUP1 EXTCODESIZE ISZERO DUP1 ISZERO PUSH2 0x970 JUMPI PUSH1 0x0 DUP1 REVERT JUMPDEST POP GAS CALL ISZERO DUP1 ISZERO PUSH2 0x984 JUMPI RETURNDATASIZE PUSH1 0x0 DUP1 RETURNDATACOPY RETURNDATASIZE PUSH1 0x0 REVERT JUMPDEST POP POP POP POP JUMPDEST PUSH2 0x9A0 DUP2 DUP5 PUSH1 0x0 ADD SLOAD PUSH2 0x27CE SWAP1 SWAP2 SWAP1 PUSH4 0xFFFFFFFF AND JUMP JUMPDEST DUP4 PUSH1 0x0 ADD DUP2 SWAP1 SSTORE POP PUSH2 0x9CE DUP2 PUSH1 0xA PUSH1 0x0 DUP11 DUP2 MSTORE PUSH1 0x20 ADD SWAP1 DUP2 MSTORE PUSH1 0x20 ADD PUSH1 0x0 KECCAK256 SLOAD PUSH2 0x27CE SWAP1 SWAP2 SWAP1 PUSH4 0xFFFFFFFF AND JUMP JUMPDEST PUSH1 0xA PUSH1 0x0 DUP10 DUP2 MSTORE PUSH1 0x20 ADD SWAP1 DUP2 MSTORE PUSH1 0x20 ADD PUSH1 0x0 KECCAK256 DUP2 SWAP1 SSTORE POP PUSH2 0xA17 PUSH5 0xE8D4A51000 PUSH2 0xA09 DUP7 PUSH1 0x3 ADD SLOAD DUP7 PUSH1 0x0 ADD SLOAD PUSH2 0x2442 SWAP1 SWAP2 SWAP1 PUSH4 0xFFFFFFFF AND JUMP JUMPDEST PUSH2 0x24BC SWAP1 SWAP2 SWAP1 PUSH4 0xFFFFFFFF AND JUMP JUMPDEST DUP4 PUSH1 0x1 ADD DUP2 SWAP1 SSTORE POP PUSH1 0x0 DUP5 PUSH1 0x5 ADD PUSH1 0x0 SWAP1 SLOAD SWAP1 PUSH2 0x100 EXP SWAP1 DIV PUSH20 0xFFFFFFFFFFFFFFFFFFFFFFFFFFFFFFFFFFFFFFFF AND PUSH20 0xFFFFFFFFFFFFFFFFFFFFFFFFFFFFFFFFFFFFFFFF AND PUSH4 0x70A08231 ADDRESS PUSH1 0x40 MLOAD DUP3 PUSH4 0xFFFFFFFF AND PUSH1 0xE0 SHL DUP2 MSTORE PUSH1 0x4 ADD PUSH2 0xA7E SWAP2 SWAP1 PUSH2 0x32F1 JUMP JUMPDEST PUSH1 0x20 PUSH1 0x40 MLOAD DUP1 DUP4 SUB DUP2 DUP7 GAS STATICCALL ISZERO DUP1 ISZERO PUSH2 0xA9B JUMPI RETURNDATASIZE PUSH1 0x0 DUP1 RETURNDATACOPY RETURNDATASIZE PUSH1 0x0 REVERT JUMPDEST POP POP POP POP PUSH1 0x40 MLOAD RETURNDATASIZE PUSH1 0x1F NOT PUSH1 0x1F DUP3 ADD AND DUP3 ADD DUP1 PUSH1 0x40 MSTORE POP DUP2 ADD SWAP1 PUSH2 0xABF SWAP2 SWAP1 PUSH2 0x342A JUMP JUMPDEST SWAP1 POP PUSH1 0x0 DUP2 GT ISZERO PUSH2 0xB3C JUMPI PUSH2 0xB3B PUSH1 0x2 PUSH1 0x0 SWAP1 SLOAD SWAP1 PUSH2 0x100 EXP SWAP1 DIV PUSH20 0xFFFFFFFFFFFFFFFFFFFFFFFFFFFFFFFFFFFFFFFF AND DUP3 DUP8 PUSH1 0x5 ADD PUSH1 0x0 SWAP1 SLOAD SWAP1 PUSH2 0x100 EXP SWAP1 DIV PUSH20 0xFFFFFFFFFFFFFFFFFFFFFFFFFFFFFFFFFFFFFFFF AND PUSH20 0xFFFFFFFFFFFFFFFFFFFFFFFFFFFFFFFFFFFFFFFF AND PUSH2 0x282C SWAP1 SWAP3 SWAP2 SWAP1 PUSH4 0xFFFFFFFF AND JUMP JUMPDEST JUMPDEST DUP8 CALLER PUSH20 0xFFFFFFFFFFFFFFFFFFFFFFFFFFFFFFFFFFFFFFFF AND PUSH32 0x90890809C654F11D6E72A28FA60149770A0D11EC6C92319D6CEB2BB0A4EA1A15 DUP5 PUSH1 0x40 MLOAD PUSH2 0xB83 SWAP2 SWAP1 PUSH2 0x2EAE JUMP JUMPDEST PUSH1 0x40 MLOAD DUP1 SWAP2 SUB SWAP1 LOG3 POP POP POP POP POP POP POP POP JUMP JUMPDEST PUSH1 0x0 PUSH1 0x6 DUP1 SLOAD SWAP1 POP SWAP1 POP SWAP1 JUMP JUMPDEST PUSH1 0x6 DUP2 DUP2 SLOAD DUP2 LT PUSH2 0xBB2 JUMPI PUSH1 0x0 DUP1 REVERT JUMPDEST SWAP1 PUSH1 0x0 MSTORE PUSH1 0x20 PUSH1 0x0 KECCAK256 SWAP1 PUSH1 0x8 MUL ADD PUSH1 0x0 SWAP2 POP SWAP1 POP DUP1 PUSH1 0x0 ADD PUSH1 0x0 SWAP1 SLOAD SWAP1 PUSH2 0x100 EXP SWAP1 DIV PUSH20 0xFFFFFFFFFFFFFFFFFFFFFFFFFFFFFFFFFFFFFFFF AND SWAP1 DUP1 PUSH1 0x1 ADD SLOAD SWAP1 DUP1 PUSH1 0x2 ADD SLOAD SWAP1 DUP1 PUSH1 0x3 ADD SLOAD SWAP1 DUP1 PUSH1 0x4 ADD PUSH1 0x0 SWAP1 SLOAD SWAP1 PUSH2 0x100 EXP SWAP1 DIV PUSH20 0xFFFFFFFFFFFFFFFFFFFFFFFFFFFFFFFFFFFFFFFF AND SWAP1 DUP1 PUSH1 0x5 ADD PUSH1 0x0 SWAP1 SLOAD SWAP1 PUSH2 0x100 EXP SWAP1 DIV PUSH20 0xFFFFFFFFFFFFFFFFFFFFFFFFFFFFFFFFFFFFFFFF AND SWAP1 DUP1 PUSH1 0x6 ADD SLOAD SWAP1 DUP1 PUSH1 0x7 ADD SLOAD SWAP1 POP DUP9 JUMP JUMPDEST PUSH1 0x8 SLOAD DUP2 JUMP JUMPDEST PUSH1 0x0 DUP1 PUSH1 0x6 DUP5 DUP2 SLOAD DUP2 LT PUSH2 0xC77 JUMPI PUSH2 0xC76 PUSH2 0x33BD JUMP JUMPDEST JUMPDEST SWAP1 PUSH1 0x0 MSTORE PUSH1 0x20 PUSH1 0x0 KECCAK256 SWAP1 PUSH1 0x8 MUL ADD SWAP1 POP PUSH1 0x0 PUSH1 0x7 PUSH1 0x0 DUP7 DUP2 MSTORE PUSH1 0x20 ADD SWAP1 DUP2 MSTORE PUSH1 0x20 ADD PUSH1 0x0 KECCAK256 PUSH1 0x0 DUP6 PUSH20 0xFFFFFFFFFFFFFFFFFFFFFFFFFFFFFFFFFFFFFFFF AND PUSH20 0xFFFFFFFFFFFFFFFFFFFFFFFFFFFFFFFFFFFFFFFF AND DUP2 MSTORE PUSH1 0x20 ADD SWAP1 DUP2 MSTORE PUSH1 0x20 ADD PUSH1 0x0 KECCAK256 SWAP1 POP PUSH1 0x0 DUP3 PUSH1 0x3 ADD SLOAD SWAP1 POP PUSH1 0x0 PUSH1 0xA PUSH1 0x0 DUP9 DUP2 MSTORE PUSH1 0x20 ADD SWAP1 DUP2 MSTORE PUSH1 0x20 ADD PUSH1 0x0 KECCAK256 SLOAD SWAP1 POP DUP4 PUSH1 0x2 ADD SLOAD NUMBER GT DUP1 ISZERO PUSH2 0xD10 JUMPI POP PUSH1 0x0 DUP2 EQ ISZERO JUMPDEST ISZERO PUSH2 0xDAB JUMPI PUSH1 0x0 PUSH2 0xD25 DUP6 PUSH1 0x2 ADD SLOAD NUMBER PUSH2 0x1B89 JUMP JUMPDEST SWAP1 POP PUSH1 0x0 PUSH2 0xD68 PUSH1 0x8 SLOAD PUSH2 0xD5A DUP9 PUSH1 0x1 ADD SLOAD PUSH2 0xD4C PUSH1 0x3 SLOAD DUP8 PUSH2 0x2442 SWAP1 SWAP2 SWAP1 PUSH4 0xFFFFFFFF AND JUMP JUMPDEST PUSH2 0x2442 SWAP1 SWAP2 SWAP1 PUSH4 0xFFFFFFFF AND JUMP JUMPDEST PUSH2 0x24BC SWAP1 SWAP2 SWAP1 PUSH4 0xFFFFFFFF AND JUMP JUMPDEST SWAP1 POP PUSH2 0xDA6 PUSH2 0xD97 DUP5 PUSH2 0xD89 PUSH5 0xE8D4A51000 DUP6 PUSH2 0x2442 SWAP1 SWAP2 SWAP1 PUSH4 0xFFFFFFFF AND JUMP JUMPDEST PUSH2 0x24BC SWAP1 SWAP2 SWAP1 PUSH4 0xFFFFFFFF AND JUMP JUMPDEST DUP6 PUSH2 0x27CE SWAP1 SWAP2 SWAP1 PUSH4 0xFFFFFFFF AND JUMP JUMPDEST SWAP4 POP POP POP JUMPDEST PUSH2 0xDEF DUP4 PUSH1 0x1 ADD SLOAD PUSH2 0xDE1 PUSH5 0xE8D4A51000 PUSH2 0xDD3 DUP7 DUP9 PUSH1 0x0 ADD SLOAD PUSH2 0x2442 SWAP1 SWAP2 SWAP1 PUSH4 0xFFFFFFFF AND JUMP JUMPDEST PUSH2 0x24BC SWAP1 SWAP2 SWAP1 PUSH4 0xFFFFFFFF AND JUMP JUMPDEST PUSH2 0x2506 SWAP1 SWAP2 SWAP1 PUSH4 0xFFFFFFFF AND JUMP JUMPDEST SWAP5 POP POP POP POP POP SWAP3 SWAP2 POP POP JUMP JUMPDEST PUSH2 0xE03 PUSH2 0x28B2 JUMP JUMPDEST PUSH20 0xFFFFFFFFFFFFFFFFFFFFFFFFFFFFFFFFFFFFFFFF AND PUSH2 0xE21 PUSH2 0x1B60 JUMP JUMPDEST PUSH20 0xFFFFFFFFFFFFFFFFFFFFFFFFFFFFFFFFFFFFFFFF AND EQ PUSH2 0xE77 JUMPI PUSH1 0x40 MLOAD PUSH32 0x8C379A000000000000000000000000000000000000000000000000000000000 DUP2 MSTORE PUSH1 0x4 ADD PUSH2 0xE6E SWAP1 PUSH2 0x34B4 JUMP JUMPDEST PUSH1 0x40 MLOAD DUP1 SWAP2 SUB SWAP1 REVERT JUMPDEST DUP1 PUSH1 0x5 PUSH1 0x0 PUSH2 0x100 EXP DUP2 SLOAD DUP2 PUSH20 0xFFFFFFFFFFFFFFFFFFFFFFFFFFFFFFFFFFFFFFFF MUL NOT AND SWAP1 DUP4 PUSH20 0xFFFFFFFFFFFFFFFFFFFFFFFFFFFFFFFFFFFFFFFF AND MUL OR SWAP1 SSTORE POP POP JUMP JUMPDEST PUSH1 0x0 PUSH20 0xFFFFFFFFFFFFFFFFFFFFFFFFFFFFFFFFFFFFFFFF AND PUSH1 0x5 PUSH1 0x0 SWAP1 SLOAD SWAP1 PUSH2 0x100 EXP SWAP1 DIV PUSH20 0xFFFFFFFFFFFFFFFFFFFFFFFFFFFFFFFFFFFFFFFF AND PUSH20 0xFFFFFFFFFFFFFFFFFFFFFFFFFFFFFFFFFFFFFFFF AND SUB PUSH2 0xF4C JUMPI PUSH1 0x40 MLOAD PUSH32 0x8C379A000000000000000000000000000000000000000000000000000000000 DUP2 MSTORE PUSH1 0x4 ADD PUSH2 0xF43 SWAP1 PUSH2 0x3520 JUMP JUMPDEST PUSH1 0x40 MLOAD DUP1 SWAP2 SUB SWAP1 REVERT JUMPDEST PUSH1 0x0 PUSH1 0x6 DUP3 DUP2 SLOAD DUP2 LT PUSH2 0xF62 JUMPI PUSH2 0xF61 PUSH2 0x33BD JUMP JUMPDEST JUMPDEST SWAP1 PUSH1 0x0 MSTORE PUSH1 0x20 PUSH1 0x0 KECCAK256 SWAP1 PUSH1 0x8 MUL ADD SWAP1 POP PUSH1 0x0 DUP2 PUSH1 0x0 ADD PUSH1 0x0 SWAP1 SLOAD SWAP1 PUSH2 0x100 EXP SWAP1 DIV PUSH20 0xFFFFFFFFFFFFFFFFFFFFFFFFFFFFFFFFFFFFFFFF AND SWAP1 POP PUSH1 0x0 PUSH1 0xA PUSH1 0x0 DUP6 DUP2 MSTORE PUSH1 0x20 ADD SWAP1 DUP2 MSTORE PUSH1 0x20 ADD PUSH1 0x0 KECCAK256 SLOAD SWAP1 POP PUSH2 0x1000 PUSH1 0x5 PUSH1 0x0 SWAP1 SLOAD SWAP1 PUSH2 0x100 EXP SWAP1 DIV PUSH20 0xFFFFFFFFFFFFFFFFFFFFFFFFFFFFFFFFFFFFFFFF AND DUP3 DUP5 PUSH20 0xFFFFFFFFFFFFFFFFFFFFFFFFFFFFFFFFFFFFFFFF AND PUSH2 0x28BA SWAP1 SWAP3 SWAP2 SWAP1 PUSH4 0xFFFFFFFF AND JUMP JUMPDEST PUSH1 0x0 PUSH1 0x5 PUSH1 0x0 SWAP1 SLOAD SWAP1 PUSH2 0x100 EXP SWAP1 DIV PUSH20 0xFFFFFFFFFFFFFFFFFFFFFFFFFFFFFFFFFFFFFFFF AND PUSH20 0xFFFFFFFFFFFFFFFFFFFFFFFFFFFFFFFFFFFFFFFF AND PUSH4 0xCE5494BB DUP5 PUSH1 0x40 MLOAD DUP3 PUSH4 0xFFFFFFFF AND PUSH1 0xE0 SHL DUP2 MSTORE PUSH1 0x4 ADD PUSH2 0x105D SWAP2 SWAP1 PUSH2 0x3375 JUMP JUMPDEST PUSH1 0x20 PUSH1 0x40 MLOAD DUP1 DUP4 SUB DUP2 PUSH1 0x0 DUP8 GAS CALL ISZERO DUP1 ISZERO PUSH2 0x107C JUMPI RETURNDATASIZE PUSH1 0x0 DUP1 RETURNDATACOPY RETURNDATASIZE PUSH1 0x0 REVERT JUMPDEST POP POP POP POP PUSH1 0x40 MLOAD RETURNDATASIZE PUSH1 0x1F NOT PUSH1 0x1F DUP3 ADD AND DUP3 ADD DUP1 PUSH1 0x40 MSTORE POP DUP2 ADD SWAP1 PUSH2 0x10A0 SWAP2 SWAP1 PUSH2 0x3555 JUMP JUMPDEST SWAP1 POP DUP1 PUSH20 0xFFFFFFFFFFFFFFFFFFFFFFFFFFFFFFFFFFFFFFFF AND PUSH4 0x70A08231 ADDRESS PUSH1 0x40 MLOAD DUP3 PUSH4 0xFFFFFFFF AND PUSH1 0xE0 SHL DUP2 MSTORE PUSH1 0x4 ADD PUSH2 0x10DB SWAP2 SWAP1 PUSH2 0x32F1 JUMP JUMPDEST PUSH1 0x20 PUSH1 0x40 MLOAD DUP1 DUP4 SUB DUP2 DUP7 GAS STATICCALL ISZERO DUP1 ISZERO PUSH2 0x10F8 JUMPI RETURNDATASIZE PUSH1 0x0 DUP1 RETURNDATACOPY RETURNDATASIZE PUSH1 0x0 REVERT JUMPDEST POP POP POP POP PUSH1 0x40 MLOAD RETURNDATASIZE PUSH1 0x1F NOT PUSH1 0x1F DUP3 ADD AND DUP3 ADD DUP1 PUSH1 0x40 MSTORE POP DUP2 ADD SWAP1 PUSH2 0x111C SWAP2 SWAP1 PUSH2 0x342A JUMP JUMPDEST DUP3 EQ PUSH2 0x115D JUMPI PUSH1 0x40 MLOAD PUSH32 0x8C379A000000000000000000000000000000000000000000000000000000000 DUP2 MSTORE PUSH1 0x4 ADD PUSH2 0x1154 SWAP1 PUSH2 0x35CE JUMP JUMPDEST PUSH1 0x40 MLOAD DUP1 SWAP2 SUB SWAP1 REVERT JUMPDEST DUP1 DUP5 PUSH1 0x0 ADD PUSH1 0x0 PUSH2 0x100 EXP DUP2 SLOAD DUP2 PUSH20 0xFFFFFFFFFFFFFFFFFFFFFFFFFFFFFFFFFFFFFFFF MUL NOT AND SWAP1 DUP4 PUSH20 0xFFFFFFFFFFFFFFFFFFFFFFFFFFFFFFFFFFFFFFFF AND MUL OR SWAP1 SSTORE POP POP POP POP POP POP JUMP JUMPDEST PUSH1 0x9 SLOAD DUP2 JUMP JUMPDEST PUSH1 0x0 PUSH1 0x6 DUP3 DUP2 SLOAD DUP2 LT PUSH2 0x11C3 JUMPI PUSH2 0x11C2 PUSH2 0x33BD JUMP JUMPDEST JUMPDEST SWAP1 PUSH1 0x0 MSTORE PUSH1 0x20 PUSH1 0x0 KECCAK256 SWAP1 PUSH1 0x8 MUL ADD SWAP1 POP DUP1 PUSH1 0x2 ADD SLOAD NUMBER GT PUSH2 0x11E4 JUMPI POP PUSH2 0x1360 JUMP JUMPDEST PUSH1 0x0 PUSH1 0xA PUSH1 0x0 DUP5 DUP2 MSTORE PUSH1 0x20 ADD SWAP1 DUP2 MSTORE PUSH1 0x20 ADD PUSH1 0x0 KECCAK256 SLOAD SWAP1 POP PUSH1 0x0 DUP2 GT PUSH2 0x1214 JUMPI NUMBER DUP3 PUSH1 0x2 ADD DUP2 SWAP1 SSTORE POP POP POP PUSH2 0x1360 JUMP JUMPDEST PUSH1 0x0 PUSH2 0x1224 DUP4 PUSH1 0x2 ADD SLOAD NUMBER PUSH2 0x1B89 JUMP JUMPDEST SWAP1 POP PUSH1 0x0 PUSH2 0x1267 PUSH1 0x8 SLOAD PUSH2 0x1259 DUP7 PUSH1 0x1 ADD SLOAD PUSH2 0x124B PUSH1 0x3 SLOAD DUP8 PUSH2 0x2442 SWAP1 SWAP2 SWAP1 PUSH4 0xFFFFFFFF AND JUMP JUMPDEST PUSH2 0x2442 SWAP1 SWAP2 SWAP1 PUSH4 0xFFFFFFFF AND JUMP JUMPDEST PUSH2 0x24BC SWAP1 SWAP2 SWAP1 PUSH4 0xFFFFFFFF AND JUMP JUMPDEST SWAP1 POP PUSH1 0x1 PUSH1 0x0 SWAP1 SLOAD SWAP1 PUSH2 0x100 EXP SWAP1 DIV PUSH20 0xFFFFFFFFFFFFFFFFFFFFFFFFFFFFFFFFFFFFFFFF AND PUSH20 0xFFFFFFFFFFFFFFFFFFFFFFFFFFFFFFFFFFFFFFFF AND PUSH4 0x40C10F19 ADDRESS DUP4 PUSH1 0x40 MLOAD DUP4 PUSH4 0xFFFFFFFF AND PUSH1 0xE0 SHL DUP2 MSTORE PUSH1 0x4 ADD PUSH2 0x12C6 SWAP3 SWAP2 SWAP1 PUSH2 0x35EE JUMP JUMPDEST PUSH1 0x20 PUSH1 0x40 MLOAD DUP1 DUP4 SUB DUP2 PUSH1 0x0 DUP8 GAS CALL ISZERO DUP1 ISZERO PUSH2 0x12E5 JUMPI RETURNDATASIZE PUSH1 0x0 DUP1 RETURNDATACOPY RETURNDATASIZE PUSH1 0x0 REVERT JUMPDEST POP POP POP POP PUSH1 0x40 MLOAD RETURNDATASIZE PUSH1 0x1F NOT PUSH1 0x1F DUP3 ADD AND DUP3 ADD DUP1 PUSH1 0x40 MSTORE POP DUP2 ADD SWAP1 PUSH2 0x1309 SWAP2 SWAP1 PUSH2 0x362C JUMP JUMPDEST POP PUSH2 0x134A PUSH2 0x1337 DUP5 PUSH2 0x1329 PUSH5 0xE8D4A51000 DUP6 PUSH2 0x2442 SWAP1 SWAP2 SWAP1 PUSH4 0xFFFFFFFF AND JUMP JUMPDEST PUSH2 0x24BC SWAP1 SWAP2 SWAP1 PUSH4 0xFFFFFFFF AND JUMP JUMPDEST DUP6 PUSH1 0x3 ADD SLOAD PUSH2 0x27CE SWAP1 SWAP2 SWAP1 PUSH4 0xFFFFFFFF AND JUMP JUMPDEST DUP5 PUSH1 0x3 ADD DUP2 SWAP1 SSTORE POP NUMBER DUP5 PUSH1 0x2 ADD DUP2 SWAP1 SSTORE POP POP POP POP POP JUMPDEST POP JUMP JUMPDEST PUSH1 0x0 PUSH1 0x6 DUP3 DUP2 SLOAD DUP2 LT PUSH2 0x1379 JUMPI PUSH2 0x1378 PUSH2 0x33BD JUMP JUMPDEST JUMPDEST SWAP1 PUSH1 0x0 MSTORE PUSH1 0x20 PUSH1 0x0 KECCAK256 SWAP1 PUSH1 0x8 MUL ADD SWAP1 POP PUSH1 0x0 PUSH1 0x7 PUSH1 0x0 DUP5 DUP2 MSTORE PUSH1 0x20 ADD SWAP1 DUP2 MSTORE PUSH1 0x20 ADD PUSH1 0x0 KECCAK256 PUSH1 0x0 CALLER PUSH20 0xFFFFFFFFFFFFFFFFFFFFFFFFFFFFFFFFFFFFFFFF AND PUSH20 0xFFFFFFFFFFFFFFFFFFFFFFFFFFFFFFFFFFFFFFFF AND DUP2 MSTORE PUSH1 0x20 ADD SWAP1 DUP2 MSTORE PUSH1 0x20 ADD PUSH1 0x0 KECCAK256 SWAP1 POP PUSH2 0x1430 CALLER DUP3 PUSH1 0x0 ADD SLOAD DUP5 PUSH1 0x0 ADD PUSH1 0x0 SWAP1 SLOAD SWAP1 PUSH2 0x100 EXP SWAP1 DIV PUSH20 0xFFFFFFFFFFFFFFFFFFFFFFFFFFFFFFFFFFFFFFFF AND PUSH20 0xFFFFFFFFFFFFFFFFFFFFFFFFFFFFFFFFFFFFFFFF AND PUSH2 0x282C SWAP1 SWAP3 SWAP2 SWAP1 PUSH4 0xFFFFFFFF AND JUMP JUMPDEST DUP3 CALLER PUSH20 0xFFFFFFFFFFFFFFFFFFFFFFFFFFFFFFFFFFFFFFFF AND PUSH32 0xBB757047C2B5F3974FE26B7C10F732E7BCE710B0952A71082702781E62AE0595 DUP4 PUSH1 0x0 ADD SLOAD PUSH1 0x40 MLOAD PUSH2 0x147B SWAP2 SWAP1 PUSH2 0x2EAE JUMP JUMPDEST PUSH1 0x40 MLOAD DUP1 SWAP2 SUB SWAP1 LOG3 PUSH1 0x0 DUP2 PUSH1 0x0 ADD DUP2 SWAP1 SSTORE POP PUSH1 0x0 DUP2 PUSH1 0x1 ADD DUP2 SWAP1 SSTORE POP POP POP POP JUMP JUMPDEST PUSH2 0x14A4 PUSH2 0x28B2 JUMP JUMPDEST PUSH20 0xFFFFFFFFFFFFFFFFFFFFFFFFFFFFFFFFFFFFFFFF AND PUSH2 0x14C2 PUSH2 0x1B60 JUMP JUMPDEST PUSH20 0xFFFFFFFFFFFFFFFFFFFFFFFFFFFFFFFFFFFFFFFF AND EQ PUSH2 0x1518 JUMPI PUSH1 0x40 MLOAD PUSH32 0x8C379A000000000000000000000000000000000000000000000000000000000 DUP2 MSTORE PUSH1 0x4 ADD PUSH2 0x150F SWAP1 PUSH2 0x34B4 JUMP JUMPDEST PUSH1 0x40 MLOAD DUP1 SWAP2 SUB SWAP1 REVERT JUMPDEST DUP1 PUSH1 0x4 DUP2 SWAP1 SSTORE POP POP JUMP JUMPDEST PUSH2 0x152A PUSH2 0x28B2 JUMP JUMPDEST PUSH20 0xFFFFFFFFFFFFFFFFFFFFFFFFFFFFFFFFFFFFFFFF AND PUSH2 0x1548 PUSH2 0x1B60 JUMP JUMPDEST PUSH20 0xFFFFFFFFFFFFFFFFFFFFFFFFFFFFFFFFFFFFFFFF AND EQ PUSH2 0x159E JUMPI PUSH1 0x40 MLOAD PUSH32 0x8C379A000000000000000000000000000000000000000000000000000000000 DUP2 MSTORE PUSH1 0x4 ADD PUSH2 0x1595 SWAP1 PUSH2 0x34B4 JUMP JUMPDEST PUSH1 0x40 MLOAD DUP1 SWAP2 SUB SWAP1 REVERT JUMPDEST DUP1 PUSH1 0x3 DUP2 SWAP1 SSTORE POP POP JUMP JUMPDEST PUSH1 0x0 PUSH1 0x6 DUP1 SLOAD SWAP1 POP SWAP1 POP PUSH1 0x0 JUMPDEST DUP2 DUP2 LT ISZERO PUSH2 0x15D7 JUMPI PUSH2 0x15C6 DUP2 PUSH2 0x11AD JUMP JUMPDEST DUP1 PUSH2 0x15D0 SWAP1 PUSH2 0x3688 JUMP JUMPDEST SWAP1 POP PUSH2 0x15B5 JUMP JUMPDEST POP POP JUMP JUMPDEST PUSH2 0x15E3 PUSH2 0x28B2 JUMP JUMPDEST PUSH20 0xFFFFFFFFFFFFFFFFFFFFFFFFFFFFFFFFFFFFFFFF AND PUSH2 0x1601 PUSH2 0x1B60 JUMP JUMPDEST PUSH20 0xFFFFFFFFFFFFFFFFFFFFFFFFFFFFFFFFFFFFFFFF AND EQ PUSH2 0x1657 JUMPI PUSH1 0x40 MLOAD PUSH32 0x8C379A000000000000000000000000000000000000000000000000000000000 DUP2 MSTORE PUSH1 0x4 ADD PUSH2 0x164E SWAP1 PUSH2 0x34B4 JUMP JUMPDEST PUSH1 0x40 MLOAD DUP1 SWAP2 SUB SWAP1 REVERT JUMPDEST DUP1 ISZERO PUSH2 0x1666 JUMPI PUSH2 0x1665 PUSH2 0x15A8 JUMP JUMPDEST JUMPDEST PUSH2 0x16B2 DUP3 PUSH2 0x16A4 PUSH1 0x6 DUP7 DUP2 SLOAD DUP2 LT PUSH2 0x1681 JUMPI PUSH2 0x1680 PUSH2 0x33BD JUMP JUMPDEST JUMPDEST SWAP1 PUSH1 0x0 MSTORE PUSH1 0x20 PUSH1 0x0 KECCAK256 SWAP1 PUSH1 0x8 MUL ADD PUSH1 0x1 ADD SLOAD PUSH1 0x8 SLOAD PUSH2 0x2506 SWAP1 SWAP2 SWAP1 PUSH4 0xFFFFFFFF AND JUMP JUMPDEST PUSH2 0x27CE SWAP1 SWAP2 SWAP1 PUSH4 0xFFFFFFFF AND JUMP JUMPDEST PUSH1 0x8 DUP2 SWAP1 SSTORE POP DUP2 PUSH1 0x6 DUP5 DUP2 SLOAD DUP2 LT PUSH2 0x16CD JUMPI PUSH2 0x16CC PUSH2 0x33BD JUMP JUMPDEST JUMPDEST SWAP1 PUSH1 0x0 MSTORE PUSH1 0x20 PUSH1 0x0 KECCAK256 SWAP1 PUSH1 0x8 MUL ADD PUSH1 0x1 ADD DUP2 SWAP1 SSTORE POP POP POP POP JUMP JUMPDEST PUSH2 0x16EF PUSH2 0x28B2 JUMP JUMPDEST PUSH20 0xFFFFFFFFFFFFFFFFFFFFFFFFFFFFFFFFFFFFFFFF AND PUSH2 0x170D PUSH2 0x1B60 JUMP JUMPDEST PUSH20 0xFFFFFFFFFFFFFFFFFFFFFFFFFFFFFFFFFFFFFFFF AND EQ PUSH2 0x1763 JUMPI PUSH1 0x40 MLOAD PUSH32 0x8C379A000000000000000000000000000000000000000000000000000000000 DUP2 MSTORE PUSH1 0x4 ADD PUSH2 0x175A SWAP1 PUSH2 0x34B4 JUMP JUMPDEST PUSH1 0x40 MLOAD DUP1 SWAP2 SUB SWAP1 REVERT JUMPDEST DUP5 ISZERO PUSH2 0x1772 JUMPI PUSH2 0x1771 PUSH2 0x15A8 JUMP JUMPDEST JUMPDEST PUSH1 0x0 PUSH1 0x9 SLOAD NUMBER GT PUSH2 0x1785 JUMPI PUSH1 0x9 SLOAD PUSH2 0x1787 JUMP JUMPDEST NUMBER JUMPDEST SWAP1 POP PUSH2 0x179E DUP9 PUSH1 0x8 SLOAD PUSH2 0x27CE SWAP1 SWAP2 SWAP1 PUSH4 0xFFFFFFFF AND JUMP JUMPDEST PUSH1 0x8 DUP2 SWAP1 SSTORE POP PUSH1 0x6 PUSH1 0x40 MLOAD DUP1 PUSH2 0x100 ADD PUSH1 0x40 MSTORE DUP1 DUP10 PUSH20 0xFFFFFFFFFFFFFFFFFFFFFFFFFFFFFFFFFFFFFFFF AND DUP2 MSTORE PUSH1 0x20 ADD DUP11 DUP2 MSTORE PUSH1 0x20 ADD DUP4 DUP2 MSTORE PUSH1 0x20 ADD PUSH1 0x0 DUP2 MSTORE PUSH1 0x20 ADD DUP8 PUSH20 0xFFFFFFFFFFFFFFFFFFFFFFFFFFFFFFFFFFFFFFFF AND DUP2 MSTORE PUSH1 0x20 ADD DUP7 PUSH20 0xFFFFFFFFFFFFFFFFFFFFFFFFFFFFFFFFFFFFFFFF AND DUP2 MSTORE PUSH1 0x20 ADD DUP6 DUP2 MSTORE PUSH1 0x20 ADD DUP5 DUP2 MSTORE POP SWAP1 DUP1 PUSH1 0x1 DUP2 SLOAD ADD DUP1 DUP3 SSTORE DUP1 SWAP2 POP POP PUSH1 0x1 SWAP1 SUB SWAP1 PUSH1 0x0 MSTORE PUSH1 0x20 PUSH1 0x0 KECCAK256 SWAP1 PUSH1 0x8 MUL ADD PUSH1 0x0 SWAP1 SWAP2 SWAP1 SWAP2 SWAP1 SWAP2 POP PUSH1 0x0 DUP3 ADD MLOAD DUP2 PUSH1 0x0 ADD PUSH1 0x0 PUSH2 0x100 EXP DUP2 SLOAD DUP2 PUSH20 0xFFFFFFFFFFFFFFFFFFFFFFFFFFFFFFFFFFFFFFFF MUL NOT AND SWAP1 DUP4 PUSH20 0xFFFFFFFFFFFFFFFFFFFFFFFFFFFFFFFFFFFFFFFF AND MUL OR SWAP1 SSTORE POP PUSH1 0x20 DUP3 ADD MLOAD DUP2 PUSH1 0x1 ADD SSTORE PUSH1 0x40 DUP3 ADD MLOAD DUP2 PUSH1 0x2 ADD SSTORE PUSH1 0x60 DUP3 ADD MLOAD DUP2 PUSH1 0x3 ADD SSTORE PUSH1 0x80 DUP3 ADD MLOAD DUP2 PUSH1 0x4 ADD PUSH1 0x0 PUSH2 0x100 EXP DUP2 SLOAD DUP2 PUSH20 0xFFFFFFFFFFFFFFFFFFFFFFFFFFFFFFFFFFFFFFFF MUL NOT AND SWAP1 DUP4 PUSH20 0xFFFFFFFFFFFFFFFFFFFFFFFFFFFFFFFFFFFFFFFF AND MUL OR SWAP1 SSTORE POP PUSH1 0xA0 DUP3 ADD MLOAD DUP2 PUSH1 0x5 ADD PUSH1 0x0 PUSH2 0x100 EXP DUP2 SLOAD DUP2 PUSH20 0xFFFFFFFFFFFFFFFFFFFFFFFFFFFFFFFFFFFFFFFF MUL NOT AND SWAP1 DUP4 PUSH20 0xFFFFFFFFFFFFFFFFFFFFFFFFFFFFFFFFFFFFFFFF AND MUL OR SWAP1 SSTORE POP PUSH1 0xC0 DUP3 ADD MLOAD DUP2 PUSH1 0x6 ADD SSTORE PUSH1 0xE0 DUP3 ADD MLOAD DUP2 PUSH1 0x7 ADD SSTORE POP POP POP POP POP POP POP POP POP POP JUMP JUMPDEST PUSH2 0x1967 PUSH2 0x28B2 JUMP JUMPDEST PUSH20 0xFFFFFFFFFFFFFFFFFFFFFFFFFFFFFFFFFFFFFFFF AND PUSH2 0x1985 PUSH2 0x1B60 JUMP JUMPDEST PUSH20 0xFFFFFFFFFFFFFFFFFFFFFFFFFFFFFFFFFFFFFFFF AND EQ PUSH2 0x19DB JUMPI PUSH1 0x40 MLOAD PUSH32 0x8C379A000000000000000000000000000000000000000000000000000000000 DUP2 MSTORE PUSH1 0x4 ADD PUSH2 0x19D2 SWAP1 PUSH2 0x34B4 JUMP JUMPDEST PUSH1 0x40 MLOAD DUP1 SWAP2 SUB SWAP1 REVERT JUMPDEST PUSH1 0x0 PUSH1 0x6 DUP3 DUP2 SLOAD DUP2 LT PUSH2 0x19F1 JUMPI PUSH2 0x19F0 PUSH2 0x33BD JUMP JUMPDEST JUMPDEST SWAP1 PUSH1 0x0 MSTORE PUSH1 0x20 PUSH1 0x0 KECCAK256 SWAP1 PUSH1 0x8 MUL ADD SWAP1 POP DUP1 PUSH1 0x4 ADD PUSH1 0x0 SWAP1 SLOAD SWAP1 PUSH2 0x100 EXP SWAP1 DIV PUSH20 0xFFFFFFFFFFFFFFFFFFFFFFFFFFFFFFFFFFFFFFFF AND PUSH20 0xFFFFFFFFFFFFFFFFFFFFFFFFFFFFFFFFFFFFFFFF AND PUSH4 0x5312EA8E DUP4 PUSH1 0x40 MLOAD DUP3 PUSH4 0xFFFFFFFF AND PUSH1 0xE0 SHL DUP2 MSTORE PUSH1 0x4 ADD PUSH2 0x1A5E SWAP2 SWAP1 PUSH2 0x2EAE JUMP JUMPDEST PUSH1 0x0 PUSH1 0x40 MLOAD DUP1 DUP4 SUB DUP2 PUSH1 0x0 DUP8 DUP1 EXTCODESIZE ISZERO DUP1 ISZERO PUSH2 0x1A78 JUMPI PUSH1 0x0 DUP1 REVERT JUMPDEST POP GAS CALL ISZERO DUP1 ISZERO PUSH2 0x1A8C JUMPI RETURNDATASIZE PUSH1 0x0 DUP1 RETURNDATACOPY RETURNDATASIZE PUSH1 0x0 REVERT JUMPDEST POP POP POP POP POP POP JUMP JUMPDEST PUSH1 0xA PUSH1 0x20 MSTORE DUP1 PUSH1 0x0 MSTORE PUSH1 0x40 PUSH1 0x0 KECCAK256 PUSH1 0x0 SWAP2 POP SWAP1 POP SLOAD DUP2 JUMP JUMPDEST PUSH2 0x1AB4 PUSH2 0x28B2 JUMP JUMPDEST PUSH20 0xFFFFFFFFFFFFFFFFFFFFFFFFFFFFFFFFFFFFFFFF AND PUSH2 0x1AD2 PUSH2 0x1B60 JUMP JUMPDEST PUSH20 0xFFFFFFFFFFFFFFFFFFFFFFFFFFFFFFFFFFFFFFFF AND EQ PUSH2 0x1B28 JUMPI PUSH1 0x40 MLOAD PUSH32 0x8C379A000000000000000000000000000000000000000000000000000000000 DUP2 MSTORE PUSH1 0x4 ADD PUSH2 0x1B1F SWAP1 PUSH2 0x34B4 JUMP JUMPDEST PUSH1 0x40 MLOAD DUP1 SWAP2 SUB SWAP1 REVERT JUMPDEST PUSH2 0x1B32 PUSH1 0x0 PUSH2 0x2A09 JUMP JUMPDEST JUMP JUMPDEST PUSH1 0x5 PUSH1 0x0 SWAP1 SLOAD SWAP1 PUSH2 0x100 EXP SWAP1 DIV PUSH20 0xFFFFFFFFFFFFFFFFFFFFFFFFFFFFFFFFFFFFFFFF AND DUP2 JUMP JUMPDEST PUSH1 0x4 SLOAD DUP2 JUMP JUMPDEST PUSH1 0x0 DUP1 PUSH1 0x0 SWAP1 SLOAD SWAP1 PUSH2 0x100 EXP SWAP1 DIV PUSH20 0xFFFFFFFFFFFFFFFFFFFFFFFFFFFFFFFFFFFFFFFF AND SWAP1 POP SWAP1 JUMP JUMPDEST PUSH1 0x0 PUSH2 0x1BB2 PUSH1 0x4 SLOAD PUSH2 0x1BA4 DUP6 DUP6 PUSH2 0x2506 SWAP1 SWAP2 SWAP1 PUSH4 0xFFFFFFFF AND JUMP JUMPDEST PUSH2 0x2442 SWAP1 SWAP2 SWAP1 PUSH4 0xFFFFFFFF AND JUMP JUMPDEST SWAP1 POP SWAP3 SWAP2 POP POP JUMP JUMPDEST PUSH1 0x7 PUSH1 0x20 MSTORE DUP2 PUSH1 0x0 MSTORE PUSH1 0x40 PUSH1 0x0 KECCAK256 PUSH1 0x20 MSTORE DUP1 PUSH1 0x0 MSTORE PUSH1 0x40 PUSH1 0x0 KECCAK256 PUSH1 0x0 SWAP2 POP SWAP2 POP POP DUP1 PUSH1 0x0 ADD SLOAD SWAP1 DUP1 PUSH1 0x1 ADD SLOAD SWAP1 POP DUP3 JUMP JUMPDEST PUSH1 0x0 PUSH1 0x6 DUP5 DUP2 SLOAD DUP2 LT PUSH2 0x1C01 JUMPI PUSH2 0x1C00 PUSH2 0x33BD JUMP JUMPDEST JUMPDEST SWAP1 PUSH1 0x0 MSTORE PUSH1 0x20 PUSH1 0x0 KECCAK256 SWAP1 PUSH1 0x8 MUL ADD SWAP1 POP PUSH1 0x0 PUSH1 0x7 PUSH1 0x0 DUP7 DUP2 MSTORE PUSH1 0x20 ADD SWAP1 DUP2 MSTORE PUSH1 0x20 ADD PUSH1 0x0 KECCAK256 PUSH1 0x0 CALLER PUSH20 0xFFFFFFFFFFFFFFFFFFFFFFFFFFFFFFFFFFFFFFFF AND PUSH20 0xFFFFFFFFFFFFFFFFFFFFFFFFFFFFFFFFFFFFFFFF AND DUP2 MSTORE PUSH1 0x20 ADD SWAP1 DUP2 MSTORE PUSH1 0x20 ADD PUSH1 0x0 KECCAK256 SWAP1 POP DUP3 DUP2 PUSH1 0x0 ADD SLOAD LT ISZERO PUSH2 0x1CAC JUMPI PUSH1 0x40 MLOAD PUSH32 0x8C379A000000000000000000000000000000000000000000000000000000000 DUP2 MSTORE PUSH1 0x4 ADD PUSH2 0x1CA3 SWAP1 PUSH2 0x371C JUMP JUMPDEST PUSH1 0x40 MLOAD DUP1 SWAP2 SUB SWAP1 REVERT JUMPDEST PUSH2 0x1CB5 DUP6 PUSH2 0x11AD JUMP JUMPDEST PUSH1 0x0 PUSH2 0x1CFF DUP3 PUSH1 0x1 ADD SLOAD PUSH2 0x1CF1 PUSH5 0xE8D4A51000 PUSH2 0x1CE3 DUP8 PUSH1 0x3 ADD SLOAD DUP8 PUSH1 0x0 ADD SLOAD PUSH2 0x2442 SWAP1 SWAP2 SWAP1 PUSH4 0xFFFFFFFF AND JUMP JUMPDEST PUSH2 0x24BC SWAP1 SWAP2 SWAP1 PUSH4 0xFFFFFFFF AND JUMP JUMPDEST PUSH2 0x2506 SWAP1 SWAP2 SWAP1 PUSH4 0xFFFFFFFF AND JUMP JUMPDEST SWAP1 POP PUSH1 0x0 DUP2 GT ISZERO PUSH2 0x1D15 JUMPI PUSH2 0x1D14 CALLER DUP3 PUSH2 0x2550 JUMP JUMPDEST JUMPDEST PUSH2 0x1D2C DUP5 DUP4 PUSH1 0x0 ADD SLOAD PUSH2 0x2506 SWAP1 SWAP2 SWAP1 PUSH4 0xFFFFFFFF AND JUMP JUMPDEST DUP3 PUSH1 0x0 ADD DUP2 SWAP1 SSTORE POP PUSH2 0x1D5A DUP5 PUSH1 0xA PUSH1 0x0 DUP10 DUP2 MSTORE PUSH1 0x20 ADD SWAP1 DUP2 MSTORE PUSH1 0x20 ADD PUSH1 0x0 KECCAK256 SLOAD PUSH2 0x2506 SWAP1 SWAP2 SWAP1 PUSH4 0xFFFFFFFF AND JUMP JUMPDEST PUSH1 0xA PUSH1 0x0 DUP9 DUP2 MSTORE PUSH1 0x20 ADD SWAP1 DUP2 MSTORE PUSH1 0x20 ADD PUSH1 0x0 KECCAK256 DUP2 SWAP1 SSTORE POP PUSH2 0x1DA3 PUSH5 0xE8D4A51000 PUSH2 0x1D95 DUP6 PUSH1 0x3 ADD SLOAD DUP6 PUSH1 0x0 ADD SLOAD PUSH2 0x2442 SWAP1 SWAP2 SWAP1 PUSH4 0xFFFFFFFF AND JUMP JUMPDEST PUSH2 0x24BC SWAP1 SWAP2 SWAP1 PUSH4 0xFFFFFFFF AND JUMP JUMPDEST DUP3 PUSH1 0x1 ADD DUP2 SWAP1 SSTORE POP PUSH1 0x0 DUP4 PUSH1 0x7 ADD SLOAD SUB PUSH2 0x1E4B JUMPI DUP3 PUSH1 0x4 ADD PUSH1 0x0 SWAP1 SLOAD SWAP1 PUSH2 0x100 EXP SWAP1 DIV PUSH20 0xFFFFFFFFFFFFFFFFFFFFFFFFFFFFFFFFFFFFFFFF AND PUSH20 0xFFFFFFFFFFFFFFFFFFFFFFFFFFFFFFFFFFFFFFFF AND PUSH4 0x1058D281 DUP6 PUSH1 0x40 MLOAD DUP3 PUSH4 0xFFFFFFFF AND PUSH1 0xE0 SHL DUP2 MSTORE PUSH1 0x4 ADD PUSH2 0x1E14 SWAP2 SWAP1 PUSH2 0x2EAE JUMP JUMPDEST PUSH1 0x0 PUSH1 0x40 MLOAD DUP1 DUP4 SUB DUP2 PUSH1 0x0 DUP8 DUP1 EXTCODESIZE ISZERO DUP1 ISZERO PUSH2 0x1E2E JUMPI PUSH1 0x0 DUP1 REVERT JUMPDEST POP GAS CALL ISZERO DUP1 ISZERO PUSH2 0x1E42 JUMPI RETURNDATASIZE PUSH1 0x0 DUP1 RETURNDATACOPY RETURNDATASIZE PUSH1 0x0 REVERT JUMPDEST POP POP POP POP PUSH2 0x1EDD JUMP JUMPDEST DUP3 PUSH1 0x4 ADD PUSH1 0x0 SWAP1 SLOAD SWAP1 PUSH2 0x100 EXP SWAP1 DIV PUSH20 0xFFFFFFFFFFFFFFFFFFFFFFFFFFFFFFFFFFFFFFFF AND PUSH20 0xFFFFFFFFFFFFFFFFFFFFFFFFFFFFFFFFFFFFFFFF AND PUSH4 0x441A3E70 DUP7 DUP7 PUSH1 0x40 MLOAD DUP4 PUSH4 0xFFFFFFFF AND PUSH1 0xE0 SHL DUP2 MSTORE PUSH1 0x4 ADD PUSH2 0x1EAA SWAP3 SWAP2 SWAP1 PUSH2 0x334C JUMP JUMPDEST PUSH1 0x0 PUSH1 0x40 MLOAD DUP1 DUP4 SUB DUP2 PUSH1 0x0 DUP8 DUP1 EXTCODESIZE ISZERO DUP1 ISZERO PUSH2 0x1EC4 JUMPI PUSH1 0x0 DUP1 REVERT JUMPDEST POP GAS CALL ISZERO DUP1 ISZERO PUSH2 0x1ED8 JUMPI RETURNDATASIZE PUSH1 0x0 DUP1 RETURNDATACOPY RETURNDATASIZE PUSH1 0x0 REVERT JUMPDEST POP POP POP POP JUMPDEST PUSH2 0x1F2C CALLER DUP6 DUP6 PUSH1 0x0 ADD PUSH1 0x0 SWAP1 SLOAD SWAP1 PUSH2 0x100 EXP SWAP1 DIV PUSH20 0xFFFFFFFFFFFFFFFFFFFFFFFFFFFFFFFFFFFFFFFF AND PUSH20 0xFFFFFFFFFFFFFFFFFFFFFFFFFFFFFFFFFFFFFFFF AND PUSH2 0x282C SWAP1 SWAP3 SWAP2 SWAP1 PUSH4 0xFFFFFFFF AND JUMP JUMPDEST PUSH1 0x0 DUP4 PUSH1 0x5 ADD PUSH1 0x0 SWAP1 SLOAD SWAP1 PUSH2 0x100 EXP SWAP1 DIV PUSH20 0xFFFFFFFFFFFFFFFFFFFFFFFFFFFFFFFFFFFFFFFF AND PUSH20 0xFFFFFFFFFFFFFFFFFFFFFFFFFFFFFFFFFFFFFFFF AND PUSH4 0x70A08231 ADDRESS PUSH1 0x40 MLOAD DUP3 PUSH4 0xFFFFFFFF AND PUSH1 0xE0 SHL DUP2 MSTORE PUSH1 0x4 ADD PUSH2 0x1F8B SWAP2 SWAP1 PUSH2 0x32F1 JUMP JUMPDEST PUSH1 0x20 PUSH1 0x40 MLOAD DUP1 DUP4 SUB DUP2 DUP7 GAS STATICCALL ISZERO DUP1 ISZERO PUSH2 0x1FA8 JUMPI RETURNDATASIZE PUSH1 0x0 DUP1 RETURNDATACOPY RETURNDATASIZE PUSH1 0x0 REVERT JUMPDEST POP POP POP POP PUSH1 0x40 MLOAD RETURNDATASIZE PUSH1 0x1F NOT PUSH1 0x1F DUP3 ADD AND DUP3 ADD DUP1 PUSH1 0x40 MSTORE POP DUP2 ADD SWAP1 PUSH2 0x1FCC SWAP2 SWAP1 PUSH2 0x342A JUMP JUMPDEST SWAP1 POP PUSH1 0x0 DUP2 GT ISZERO PUSH2 0x2049 JUMPI PUSH2 0x2048 PUSH1 0x2 PUSH1 0x0 SWAP1 SLOAD SWAP1 PUSH2 0x100 EXP SWAP1 DIV PUSH20 0xFFFFFFFFFFFFFFFFFFFFFFFFFFFFFFFFFFFFFFFF AND DUP3 DUP7 PUSH1 0x5 ADD PUSH1 0x0 SWAP1 SLOAD SWAP1 PUSH2 0x100 EXP SWAP1 DIV PUSH20 0xFFFFFFFFFFFFFFFFFFFFFFFFFFFFFFFFFFFFFFFF AND PUSH20 0xFFFFFFFFFFFFFFFFFFFFFFFFFFFFFFFFFFFFFFFF AND PUSH2 0x282C SWAP1 SWAP3 SWAP2 SWAP1 PUSH4 0xFFFFFFFF AND JUMP JUMPDEST JUMPDEST DUP7 CALLER PUSH20 0xFFFFFFFFFFFFFFFFFFFFFFFFFFFFFFFFFFFFFFFF AND PUSH32 0xF279E6A1F5E320CCA91135676D9CB6E44CA8A08C0B88342BCDB1144F6511B568 DUP8 PUSH1 0x40 MLOAD PUSH2 0x2090 SWAP2 SWAP1 PUSH2 0x2EAE JUMP JUMPDEST PUSH1 0x40 MLOAD DUP1 SWAP2 SUB SWAP1 LOG3 POP POP POP POP POP POP POP JUMP JUMPDEST PUSH1 0x1 PUSH1 0x0 SWAP1 SLOAD SWAP1 PUSH2 0x100 EXP SWAP1 DIV PUSH20 0xFFFFFFFFFFFFFFFFFFFFFFFFFFFFFFFFFFFFFFFF AND DUP2 JUMP JUMPDEST PUSH2 0x20CF PUSH2 0x28B2 JUMP JUMPDEST PUSH20 0xFFFFFFFFFFFFFFFFFFFFFFFFFFFFFFFFFFFFFFFF AND PUSH2 0x20ED PUSH2 0x1B60 JUMP JUMPDEST PUSH20 0xFFFFFFFFFFFFFFFFFFFFFFFFFFFFFFFFFFFFFFFF AND EQ PUSH2 0x2143 JUMPI PUSH1 0x40 MLOAD PUSH32 0x8C379A000000000000000000000000000000000000000000000000000000000 DUP2 MSTORE PUSH1 0x4 ADD PUSH2 0x213A SWAP1 PUSH2 0x34B4 JUMP JUMPDEST PUSH1 0x40 MLOAD DUP1 SWAP2 SUB SWAP1 REVERT JUMPDEST DUP1 PUSH1 0x2 PUSH1 0x0 PUSH2 0x100 EXP DUP2 SLOAD DUP2 PUSH20 0xFFFFFFFFFFFFFFFFFFFFFFFFFFFFFFFFFFFFFFFF MUL NOT AND SWAP1 DUP4 PUSH20 0xFFFFFFFFFFFFFFFFFFFFFFFFFFFFFFFFFFFFFFFF AND MUL OR SWAP1 SSTORE POP POP JUMP JUMPDEST PUSH1 0x2 PUSH1 0x0 SWAP1 SLOAD SWAP1 PUSH2 0x100 EXP SWAP1 DIV PUSH20 0xFFFFFFFFFFFFFFFFFFFFFFFFFFFFFFFFFFFFFFFF AND DUP2 JUMP JUMPDEST PUSH1 0x0 PUSH1 0x6 DUP3 DUP2 SLOAD DUP2 LT PUSH2 0x21C3 JUMPI PUSH2 0x21C2 PUSH2 0x33BD JUMP JUMPDEST JUMPDEST SWAP1 PUSH1 0x0 MSTORE PUSH1 0x20 PUSH1 0x0 KECCAK256 SWAP1 PUSH1 0x8 MUL ADD SWAP1 POP DUP1 PUSH1 0x0 ADD PUSH1 0x0 SWAP1 SLOAD SWAP1 PUSH2 0x100 EXP SWAP1 DIV PUSH20 0xFFFFFFFFFFFFFFFFFFFFFFFFFFFFFFFFFFFFFFFF AND PUSH20 0xFFFFFFFFFFFFFFFFFFFFFFFFFFFFFFFFFFFFFFFF AND PUSH4 0x95EA7B3 DUP3 PUSH1 0x4 ADD PUSH1 0x0 SWAP1 SLOAD SWAP1 PUSH2 0x100 EXP SWAP1 DIV PUSH20 0xFFFFFFFFFFFFFFFFFFFFFFFFFFFFFFFFFFFFFFFF AND PUSH1 0xB SLOAD PUSH1 0x40 MLOAD DUP4 PUSH4 0xFFFFFFFF AND PUSH1 0xE0 SHL DUP2 MSTORE PUSH1 0x4 ADD PUSH2 0x2258 SWAP3 SWAP2 SWAP1 PUSH2 0x35EE JUMP JUMPDEST PUSH1 0x20 PUSH1 0x40 MLOAD DUP1 DUP4 SUB DUP2 PUSH1 0x0 DUP8 GAS CALL ISZERO DUP1 ISZERO PUSH2 0x2277 JUMPI RETURNDATASIZE PUSH1 0x0 DUP1 RETURNDATACOPY RETURNDATASIZE PUSH1 0x0 REVERT JUMPDEST POP POP POP POP PUSH1 0x40 MLOAD RETURNDATASIZE PUSH1 0x1F NOT PUSH1 0x1F DUP3 ADD AND DUP3 ADD DUP1 PUSH1 0x40 MSTORE POP DUP2 ADD SWAP1 PUSH2 0x229B SWAP2 SWAP1 PUSH2 0x362C JUMP JUMPDEST POP DUP1 PUSH1 0x5 ADD PUSH1 0x0 SWAP1 SLOAD SWAP1 PUSH2 0x100 EXP SWAP1 DIV PUSH20 0xFFFFFFFFFFFFFFFFFFFFFFFFFFFFFFFFFFFFFFFF AND PUSH20 0xFFFFFFFFFFFFFFFFFFFFFFFFFFFFFFFFFFFFFFFF AND PUSH4 0x95EA7B3 ADDRESS PUSH1 0xB SLOAD PUSH1 0x40 MLOAD DUP4 PUSH4 0xFFFFFFFF AND PUSH1 0xE0 SHL DUP2 MSTORE PUSH1 0x4 ADD PUSH2 0x22FD SWAP3 SWAP2 SWAP1 PUSH2 0x35EE JUMP JUMPDEST PUSH1 0x20 PUSH1 0x40 MLOAD DUP1 DUP4 SUB DUP2 PUSH1 0x0 DUP8 GAS CALL ISZERO DUP1 ISZERO PUSH2 0x231C JUMPI RETURNDATASIZE PUSH1 0x0 DUP1 RETURNDATACOPY RETURNDATASIZE PUSH1 0x0 REVERT JUMPDEST POP POP POP POP PUSH1 0x40 MLOAD RETURNDATASIZE PUSH1 0x1F NOT PUSH1 0x1F DUP3 ADD AND DUP3 ADD DUP1 PUSH1 0x40 MSTORE POP DUP2 ADD SWAP1 PUSH2 0x2340 SWAP2 SWAP1 PUSH2 0x362C JUMP JUMPDEST POP POP POP JUMP JUMPDEST PUSH2 0x234D PUSH2 0x28B2 JUMP JUMPDEST PUSH20 0xFFFFFFFFFFFFFFFFFFFFFFFFFFFFFFFFFFFFFFFF AND PUSH2 0x236B PUSH2 0x1B60 JUMP JUMPDEST PUSH20 0xFFFFFFFFFFFFFFFFFFFFFFFFFFFFFFFFFFFFFFFF AND EQ PUSH2 0x23C1 JUMPI PUSH1 0x40 MLOAD PUSH32 0x8C379A000000000000000000000000000000000000000000000000000000000 DUP2 MSTORE PUSH1 0x4 ADD PUSH2 0x23B8 SWAP1 PUSH2 0x34B4 JUMP JUMPDEST PUSH1 0x40 MLOAD DUP1 SWAP2 SUB SWAP1 REVERT JUMPDEST PUSH1 0x0 PUSH20 0xFFFFFFFFFFFFFFFFFFFFFFFFFFFFFFFFFFFFFFFF AND DUP2 PUSH20 0xFFFFFFFFFFFFFFFFFFFFFFFFFFFFFFFFFFFFFFFF AND SUB PUSH2 0x2430 JUMPI PUSH1 0x40 MLOAD PUSH32 0x8C379A000000000000000000000000000000000000000000000000000000000 DUP2 MSTORE PUSH1 0x4 ADD PUSH2 0x2427 SWAP1 PUSH2 0x37AE JUMP JUMPDEST PUSH1 0x40 MLOAD DUP1 SWAP2 SUB SWAP1 REVERT JUMPDEST PUSH2 0x2439 DUP2 PUSH2 0x2A09 JUMP JUMPDEST POP JUMP JUMPDEST PUSH1 0x3 SLOAD DUP2 JUMP JUMPDEST PUSH1 0x0 DUP1 DUP4 SUB PUSH2 0x2454 JUMPI PUSH1 0x0 SWAP1 POP PUSH2 0x24B6 JUMP JUMPDEST PUSH1 0x0 DUP3 DUP5 PUSH2 0x2462 SWAP2 SWAP1 PUSH2 0x37CE JUMP JUMPDEST SWAP1 POP DUP3 DUP5 DUP3 PUSH2 0x2471 SWAP2 SWAP1 PUSH2 0x3857 JUMP JUMPDEST EQ PUSH2 0x24B1 JUMPI PUSH1 0x40 MLOAD PUSH32 0x8C379A000000000000000000000000000000000000000000000000000000000 DUP2 MSTORE PUSH1 0x4 ADD PUSH2 0x24A8 SWAP1 PUSH2 0x38FA JUMP JUMPDEST PUSH1 0x40 MLOAD DUP1 SWAP2 SUB SWAP1 REVERT JUMPDEST DUP1 SWAP2 POP POP JUMPDEST SWAP3 SWAP2 POP POP JUMP JUMPDEST PUSH1 0x0 PUSH2 0x24FE DUP4 DUP4 PUSH1 0x40 MLOAD DUP1 PUSH1 0x40 ADD PUSH1 0x40 MSTORE DUP1 PUSH1 0x1A DUP2 MSTORE PUSH1 0x20 ADD PUSH32 0x536166654D6174683A206469766973696F6E206279207A65726F000000000000 DUP2 MSTORE POP PUSH2 0x2ACD JUMP JUMPDEST SWAP1 POP SWAP3 SWAP2 POP POP JUMP JUMPDEST PUSH1 0x0 PUSH2 0x2548 DUP4 DUP4 PUSH1 0x40 MLOAD DUP1 PUSH1 0x40 ADD PUSH1 0x40 MSTORE DUP1 PUSH1 0x1E DUP2 MSTORE PUSH1 0x20 ADD PUSH32 0x536166654D6174683A207375627472616374696F6E206F766572666C6F770000 DUP2 MSTORE POP PUSH2 0x2B30 JUMP JUMPDEST SWAP1 POP SWAP3 SWAP2 POP POP JUMP JUMPDEST PUSH1 0x0 PUSH1 0x1 PUSH1 0x0 SWAP1 SLOAD SWAP1 PUSH2 0x100 EXP SWAP1 DIV PUSH20 0xFFFFFFFFFFFFFFFFFFFFFFFFFFFFFFFFFFFFFFFF AND PUSH20 0xFFFFFFFFFFFFFFFFFFFFFFFFFFFFFFFFFFFFFFFF AND PUSH4 0x70A08231 ADDRESS PUSH1 0x40 MLOAD DUP3 PUSH4 0xFFFFFFFF AND PUSH1 0xE0 SHL DUP2 MSTORE PUSH1 0x4 ADD PUSH2 0x25AD SWAP2 SWAP1 PUSH2 0x32F1 JUMP JUMPDEST PUSH1 0x20 PUSH1 0x40 MLOAD DUP1 DUP4 SUB DUP2 DUP7 GAS STATICCALL ISZERO DUP1 ISZERO PUSH2 0x25CA JUMPI RETURNDATASIZE PUSH1 0x0 DUP1 RETURNDATACOPY RETURNDATASIZE PUSH1 0x0 REVERT JUMPDEST POP POP POP POP PUSH1 0x40 MLOAD RETURNDATASIZE PUSH1 0x1F NOT PUSH1 0x1F DUP3 ADD AND DUP3 ADD DUP1 PUSH1 0x40 MSTORE POP DUP2 ADD SWAP1 PUSH2 0x25EE SWAP2 SWAP1 PUSH2 0x342A JUMP JUMPDEST SWAP1 POP DUP1 DUP3 GT ISZERO PUSH2 0x269E JUMPI PUSH1 0x1 PUSH1 0x0 SWAP1 SLOAD SWAP1 PUSH2 0x100 EXP SWAP1 DIV PUSH20 0xFFFFFFFFFFFFFFFFFFFFFFFFFFFFFFFFFFFFFFFF AND PUSH20 0xFFFFFFFFFFFFFFFFFFFFFFFFFFFFFFFFFFFFFFFF AND PUSH4 0xA9059CBB DUP5 DUP4 PUSH1 0x40 MLOAD DUP4 PUSH4 0xFFFFFFFF AND PUSH1 0xE0 SHL DUP2 MSTORE PUSH1 0x4 ADD PUSH2 0x2655 SWAP3 SWAP2 SWAP1 PUSH2 0x35EE JUMP JUMPDEST PUSH1 0x20 PUSH1 0x40 MLOAD DUP1 DUP4 SUB DUP2 PUSH1 0x0 DUP8 GAS CALL ISZERO DUP1 ISZERO PUSH2 0x2674 JUMPI RETURNDATASIZE PUSH1 0x0 DUP1 RETURNDATACOPY RETURNDATASIZE PUSH1 0x0 REVERT JUMPDEST POP POP POP POP PUSH1 0x40 MLOAD RETURNDATASIZE PUSH1 0x1F NOT PUSH1 0x1F DUP3 ADD AND DUP3 ADD DUP1 PUSH1 0x40 MSTORE POP DUP2 ADD SWAP1 PUSH2 0x2698 SWAP2 SWAP1 PUSH2 0x362C JUMP JUMPDEST POP PUSH2 0x2740 JUMP JUMPDEST PUSH1 0x1 PUSH1 0x0 SWAP1 SLOAD SWAP1 PUSH2 0x100 EXP SWAP1 DIV PUSH20 0xFFFFFFFFFFFFFFFFFFFFFFFFFFFFFFFFFFFFFFFF AND PUSH20 0xFFFFFFFFFFFFFFFFFFFFFFFFFFFFFFFFFFFFFFFF AND PUSH4 0xA9059CBB DUP5 DUP5 PUSH1 0x40 MLOAD DUP4 PUSH4 0xFFFFFFFF AND PUSH1 0xE0 SHL DUP2 MSTORE PUSH1 0x4 ADD PUSH2 0x26FB SWAP3 SWAP2 SWAP1 PUSH2 0x35EE JUMP JUMPDEST PUSH1 0x20 PUSH1 0x40 MLOAD DUP1 DUP4 SUB DUP2 PUSH1 0x0 DUP8 GAS CALL ISZERO DUP1 ISZERO PUSH2 0x271A JUMPI RETURNDATASIZE PUSH1 0x0 DUP1 RETURNDATACOPY RETURNDATASIZE PUSH1 0x0 REVERT JUMPDEST POP POP POP POP PUSH1 0x40 MLOAD RETURNDATASIZE PUSH1 0x1F NOT PUSH1 0x1F DUP3 ADD AND DUP3 ADD DUP1 PUSH1 0x40 MSTORE POP DUP2 ADD SWAP1 PUSH2 0x273E SWAP2 SWAP1 PUSH2 0x362C JUMP JUMPDEST POP JUMPDEST POP POP POP JUMP JUMPDEST PUSH2 0x27C8 DUP5 PUSH4 0x23B872DD PUSH1 0xE0 SHL DUP6 DUP6 DUP6 PUSH1 0x40 MLOAD PUSH1 0x24 ADD PUSH2 0x2766 SWAP4 SWAP3 SWAP2 SWAP1 PUSH2 0x391A JUMP JUMPDEST PUSH1 0x40 MLOAD PUSH1 0x20 DUP2 DUP4 SUB SUB DUP2 MSTORE SWAP1 PUSH1 0x40 MSTORE SWAP1 PUSH28 0xFFFFFFFFFFFFFFFFFFFFFFFFFFFFFFFFFFFFFFFFFFFFFFFFFFFFFFFF NOT AND PUSH1 0x20 DUP3 ADD DUP1 MLOAD PUSH28 0xFFFFFFFFFFFFFFFFFFFFFFFFFFFFFFFFFFFFFFFFFFFFFFFFFFFFFFFF DUP4 DUP2 DUP4 AND OR DUP4 MSTORE POP POP POP POP PUSH2 0x2B94 JUMP JUMPDEST POP POP POP POP JUMP JUMPDEST PUSH1 0x0 DUP1 DUP3 DUP5 PUSH2 0x27DD SWAP2 SWAP1 PUSH2 0x3951 JUMP JUMPDEST SWAP1 POP DUP4 DUP2 LT ISZERO PUSH2 0x2822 JUMPI PUSH1 0x40 MLOAD PUSH32 0x8C379A000000000000000000000000000000000000000000000000000000000 DUP2 MSTORE PUSH1 0x4 ADD PUSH2 0x2819 SWAP1 PUSH2 0x39F3 JUMP JUMPDEST PUSH1 0x40 MLOAD DUP1 SWAP2 SUB SWAP1 REVERT JUMPDEST DUP1 SWAP2 POP POP SWAP3 SWAP2 POP POP JUMP JUMPDEST PUSH2 0x28AD DUP4 PUSH4 0xA9059CBB PUSH1 0xE0 SHL DUP5 DUP5 PUSH1 0x40 MLOAD PUSH1 0x24 ADD PUSH2 0x284B SWAP3 SWAP2 SWAP1 PUSH2 0x35EE JUMP JUMPDEST PUSH1 0x40 MLOAD PUSH1 0x20 DUP2 DUP4 SUB SUB DUP2 MSTORE SWAP1 PUSH1 0x40 MSTORE SWAP1 PUSH28 0xFFFFFFFFFFFFFFFFFFFFFFFFFFFFFFFFFFFFFFFFFFFFFFFFFFFFFFFF NOT AND PUSH1 0x20 DUP3 ADD DUP1 MLOAD PUSH28 0xFFFFFFFFFFFFFFFFFFFFFFFFFFFFFFFFFFFFFFFFFFFFFFFFFFFFFFFF DUP4 DUP2 DUP4 AND OR DUP4 MSTORE POP POP POP POP PUSH2 0x2B94 JUMP JUMPDEST POP POP POP JUMP JUMPDEST PUSH1 0x0 CALLER SWAP1 POP SWAP1 JUMP JUMPDEST PUSH1 0x0 DUP2 EQ DUP1 PUSH2 0x2944 JUMPI POP PUSH1 0x0 DUP4 PUSH20 0xFFFFFFFFFFFFFFFFFFFFFFFFFFFFFFFFFFFFFFFF AND PUSH4 0xDD62ED3E ADDRESS DUP6 PUSH1 0x40 MLOAD DUP4 PUSH4 0xFFFFFFFF AND PUSH1 0xE0 SHL DUP2 MSTORE PUSH1 0x4 ADD PUSH2 0x2901 SWAP3 SWAP2 SWAP1 PUSH2 0x33EC JUMP JUMPDEST PUSH1 0x20 PUSH1 0x40 MLOAD DUP1 DUP4 SUB DUP2 DUP7 GAS STATICCALL ISZERO DUP1 ISZERO PUSH2 0x291E JUMPI RETURNDATASIZE PUSH1 0x0 DUP1 RETURNDATACOPY RETURNDATASIZE PUSH1 0x0 REVERT JUMPDEST POP POP POP POP PUSH1 0x40 MLOAD RETURNDATASIZE PUSH1 0x1F NOT PUSH1 0x1F DUP3 ADD AND DUP3 ADD DUP1 PUSH1 0x40 MSTORE POP DUP2 ADD SWAP1 PUSH2 0x2942 SWAP2 SWAP1 PUSH2 0x342A JUMP JUMPDEST EQ JUMPDEST PUSH2 0x2983 JUMPI PUSH1 0x40 MLOAD PUSH32 0x8C379A000000000000000000000000000000000000000000000000000000000 DUP2 MSTORE PUSH1 0x4 ADD PUSH2 0x297A SWAP1 PUSH2 0x3A85 JUMP JUMPDEST PUSH1 0x40 MLOAD DUP1 SWAP2 SUB SWAP1 REVERT JUMPDEST PUSH2 0x2A04 DUP4 PUSH4 0x95EA7B3 PUSH1 0xE0 SHL DUP5 DUP5 PUSH1 0x40 MLOAD PUSH1 0x24 ADD PUSH2 0x29A2 SWAP3 SWAP2 SWAP1 PUSH2 0x35EE JUMP JUMPDEST PUSH1 0x40 MLOAD PUSH1 0x20 DUP2 DUP4 SUB SUB DUP2 MSTORE SWAP1 PUSH1 0x40 MSTORE SWAP1 PUSH28 0xFFFFFFFFFFFFFFFFFFFFFFFFFFFFFFFFFFFFFFFFFFFFFFFFFFFFFFFF NOT AND PUSH1 0x20 DUP3 ADD DUP1 MLOAD PUSH28 0xFFFFFFFFFFFFFFFFFFFFFFFFFFFFFFFFFFFFFFFFFFFFFFFFFFFFFFFF DUP4 DUP2 DUP4 AND OR DUP4 MSTORE POP POP POP POP PUSH2 0x2B94 JUMP JUMPDEST POP POP POP JUMP JUMPDEST PUSH1 0x0 DUP1 PUSH1 0x0 SWAP1 SLOAD SWAP1 PUSH2 0x100 EXP SWAP1 DIV PUSH20 0xFFFFFFFFFFFFFFFFFFFFFFFFFFFFFFFFFFFFFFFF AND SWAP1 POP DUP2 PUSH1 0x0 DUP1 PUSH2 0x100 EXP DUP2 SLOAD DUP2 PUSH20 0xFFFFFFFFFFFFFFFFFFFFFFFFFFFFFFFFFFFFFFFF MUL NOT AND SWAP1 DUP4 PUSH20 0xFFFFFFFFFFFFFFFFFFFFFFFFFFFFFFFFFFFFFFFF AND MUL OR SWAP1 SSTORE POP DUP2 PUSH20 0xFFFFFFFFFFFFFFFFFFFFFFFFFFFFFFFFFFFFFFFF AND DUP2 PUSH20 0xFFFFFFFFFFFFFFFFFFFFFFFFFFFFFFFFFFFFFFFF AND PUSH32 0x8BE0079C531659141344CD1FD0A4F28419497F9722A3DAAFE3B4186F6B6457E0 PUSH1 0x40 MLOAD PUSH1 0x40 MLOAD DUP1 SWAP2 SUB SWAP1 LOG3 POP POP JUMP JUMPDEST PUSH1 0x0 DUP1 DUP4 GT DUP3 SWAP1 PUSH2 0x2B14 JUMPI PUSH1 0x40 MLOAD PUSH32 0x8C379A000000000000000000000000000000000000000000000000000000000 DUP2 MSTORE PUSH1 0x4 ADD PUSH2 0x2B0B SWAP2 SWAP1 PUSH2 0x3B2D JUMP JUMPDEST PUSH1 0x40 MLOAD DUP1 SWAP2 SUB SWAP1 REVERT JUMPDEST POP PUSH1 0x0 DUP4 DUP6 PUSH2 0x2B23 SWAP2 SWAP1 PUSH2 0x3857 JUMP JUMPDEST SWAP1 POP DUP1 SWAP2 POP POP SWAP4 SWAP3 POP POP POP JUMP JUMPDEST PUSH1 0x0 DUP4 DUP4 GT ISZERO DUP3 SWAP1 PUSH2 0x2B78 JUMPI PUSH1 0x40 MLOAD PUSH32 0x8C379A000000000000000000000000000000000000000000000000000000000 DUP2 MSTORE PUSH1 0x4 ADD PUSH2 0x2B6F SWAP2 SWAP1 PUSH2 0x3B2D JUMP JUMPDEST PUSH1 0x40 MLOAD DUP1 SWAP2 SUB SWAP1 REVERT JUMPDEST POP PUSH1 0x0 DUP4 DUP6 PUSH2 0x2B87 SWAP2 SWAP1 PUSH2 0x3B4F JUMP JUMPDEST SWAP1 POP DUP1 SWAP2 POP POP SWAP4 SWAP3 POP POP POP JUMP JUMPDEST PUSH1 0x0 PUSH2 0x2BF6 DUP3 PUSH1 0x40 MLOAD DUP1 PUSH1 0x40 ADD PUSH1 0x40 MSTORE DUP1 PUSH1 0x20 DUP2 MSTORE PUSH1 0x20 ADD PUSH32 0x5361666545524332303A206C6F772D6C6576656C2063616C6C206661696C6564 DUP2 MSTORE POP DUP6 PUSH20 0xFFFFFFFFFFFFFFFFFFFFFFFFFFFFFFFFFFFFFFFF AND PUSH2 0x2C5B SWAP1 SWAP3 SWAP2 SWAP1 PUSH4 0xFFFFFFFF AND JUMP JUMPDEST SWAP1 POP PUSH1 0x0 DUP2 MLOAD GT ISZERO PUSH2 0x2C56 JUMPI DUP1 DUP1 PUSH1 0x20 ADD SWAP1 MLOAD DUP2 ADD SWAP1 PUSH2 0x2C16 SWAP2 SWAP1 PUSH2 0x362C JUMP JUMPDEST PUSH2 0x2C55 JUMPI PUSH1 0x40 MLOAD PUSH32 0x8C379A000000000000000000000000000000000000000000000000000000000 DUP2 MSTORE PUSH1 0x4 ADD PUSH2 0x2C4C SWAP1 PUSH2 0x3BF5 JUMP JUMPDEST PUSH1 0x40 MLOAD DUP1 SWAP2 SUB SWAP1 REVERT JUMPDEST JUMPDEST POP POP POP JUMP JUMPDEST PUSH1 0x60 PUSH2 0x2C6A DUP5 DUP5 PUSH1 0x0 DUP6 PUSH2 0x2C73 JUMP JUMPDEST SWAP1 POP SWAP4 SWAP3 POP POP POP JUMP JUMPDEST PUSH1 0x60 DUP3 SELFBALANCE LT ISZERO PUSH2 0x2CB8 JUMPI PUSH1 0x40 MLOAD PUSH32 0x8C379A000000000000000000000000000000000000000000000000000000000 DUP2 MSTORE PUSH1 0x4 ADD PUSH2 0x2CAF SWAP1 PUSH2 0x3C87 JUMP JUMPDEST PUSH1 0x40 MLOAD DUP1 SWAP2 SUB SWAP1 REVERT JUMPDEST PUSH2 0x2CC1 DUP6 PUSH2 0x2D87 JUMP JUMPDEST PUSH2 0x2D00 JUMPI PUSH1 0x40 MLOAD PUSH32 0x8C379A000000000000000000000000000000000000000000000000000000000 DUP2 MSTORE PUSH1 0x4 ADD PUSH2 0x2CF7 SWAP1 PUSH2 0x3CF3 JUMP JUMPDEST PUSH1 0x40 MLOAD DUP1 SWAP2 SUB SWAP1 REVERT JUMPDEST PUSH1 0x0 DUP1 DUP7 PUSH20 0xFFFFFFFFFFFFFFFFFFFFFFFFFFFFFFFFFFFFFFFF AND DUP6 DUP8 PUSH1 0x40 MLOAD PUSH2 0x2D29 SWAP2 SWAP1 PUSH2 0x3D5A JUMP JUMPDEST PUSH1 0x0 PUSH1 0x40 MLOAD DUP1 DUP4 SUB DUP2 DUP6 DUP8 GAS CALL SWAP3 POP POP POP RETURNDATASIZE DUP1 PUSH1 0x0 DUP2 EQ PUSH2 0x2D66 JUMPI PUSH1 0x40 MLOAD SWAP2 POP PUSH1 0x1F NOT PUSH1 0x3F RETURNDATASIZE ADD AND DUP3 ADD PUSH1 0x40 MSTORE RETURNDATASIZE DUP3 MSTORE RETURNDATASIZE PUSH1 0x0 PUSH1 0x20 DUP5 ADD RETURNDATACOPY PUSH2 0x2D6B JUMP JUMPDEST PUSH1 0x60 SWAP2 POP JUMPDEST POP SWAP2 POP SWAP2 POP PUSH2 0x2D7B DUP3 DUP3 DUP7 PUSH2 0x2DAA JUMP JUMPDEST SWAP3 POP POP POP SWAP5 SWAP4 POP POP POP POP JUMP JUMPDEST PUSH1 0x0 DUP1 DUP3 PUSH20 0xFFFFFFFFFFFFFFFFFFFFFFFFFFFFFFFFFFFFFFFF AND EXTCODESIZE GT SWAP1 POP SWAP2 SWAP1 POP JUMP JUMPDEST PUSH1 0x60 DUP4 ISZERO PUSH2 0x2DBA JUMPI DUP3 SWAP1 POP PUSH2 0x2E0A JUMP JUMPDEST PUSH1 0x0 DUP4 MLOAD GT ISZERO PUSH2 0x2DCD JUMPI DUP3 MLOAD DUP1 DUP5 PUSH1 0x20 ADD REVERT JUMPDEST DUP2 PUSH1 0x40 MLOAD PUSH32 0x8C379A000000000000000000000000000000000000000000000000000000000 DUP2 MSTORE PUSH1 0x4 ADD PUSH2 0x2E01 SWAP2 SWAP1 PUSH2 0x3B2D JUMP JUMPDEST PUSH1 0x40 MLOAD DUP1 SWAP2 SUB SWAP1 REVERT JUMPDEST SWAP4 SWAP3 POP POP POP JUMP JUMPDEST PUSH1 0x0 DUP1 REVERT JUMPDEST PUSH1 0x0 DUP2 SWAP1 POP SWAP2 SWAP1 POP JUMP JUMPDEST PUSH2 0x2E29 DUP2 PUSH2 0x2E16 JUMP JUMPDEST DUP2 EQ PUSH2 0x2E34 JUMPI PUSH1 0x0 DUP1 REVERT JUMPDEST POP JUMP JUMPDEST PUSH1 0x0 DUP2 CALLDATALOAD SWAP1 POP PUSH2 0x2E46 DUP2 PUSH2 0x2E20 JUMP JUMPDEST SWAP3 SWAP2 POP POP JUMP JUMPDEST PUSH1 0x0 DUP1 PUSH1 0x0 PUSH1 0x60 DUP5 DUP7 SUB SLT ISZERO PUSH2 0x2E65 JUMPI PUSH2 0x2E64 PUSH2 0x2E11 JUMP JUMPDEST JUMPDEST PUSH1 0x0 PUSH2 0x2E73 DUP7 DUP3 DUP8 ADD PUSH2 0x2E37 JUMP JUMPDEST SWAP4 POP POP PUSH1 0x20 PUSH2 0x2E84 DUP7 DUP3 DUP8 ADD PUSH2 0x2E37 JUMP JUMPDEST SWAP3 POP POP PUSH1 0x40 PUSH2 0x2E95 DUP7 DUP3 DUP8 ADD PUSH2 0x2E37 JUMP JUMPDEST SWAP2 POP POP SWAP3 POP SWAP3 POP SWAP3 JUMP JUMPDEST PUSH2 0x2EA8 DUP2 PUSH2 0x2E16 JUMP JUMPDEST DUP3 MSTORE POP POP JUMP JUMPDEST PUSH1 0x0 PUSH1 0x20 DUP3 ADD SWAP1 POP PUSH2 0x2EC3 PUSH1 0x0 DUP4 ADD DUP5 PUSH2 0x2E9F JUMP JUMPDEST SWAP3 SWAP2 POP POP JUMP JUMPDEST PUSH1 0x0 PUSH1 0x20 DUP3 DUP5 SUB SLT ISZERO PUSH2 0x2EDF JUMPI PUSH2 0x2EDE PUSH2 0x2E11 JUMP JUMPDEST JUMPDEST PUSH1 0x0 PUSH2 0x2EED DUP5 DUP3 DUP6 ADD PUSH2 0x2E37 JUMP JUMPDEST SWAP2 POP POP SWAP3 SWAP2 POP POP JUMP JUMPDEST PUSH1 0x0 PUSH20 0xFFFFFFFFFFFFFFFFFFFFFFFFFFFFFFFFFFFFFFFF DUP3 AND SWAP1 POP SWAP2 SWAP1 POP JUMP JUMPDEST PUSH1 0x0 DUP2 SWAP1 POP SWAP2 SWAP1 POP JUMP JUMPDEST PUSH1 0x0 PUSH2 0x2F3B PUSH2 0x2F36 PUSH2 0x2F31 DUP5 PUSH2 0x2EF6 JUMP JUMPDEST PUSH2 0x2F16 JUMP JUMPDEST PUSH2 0x2EF6 JUMP JUMPDEST SWAP1 POP SWAP2 SWAP1 POP JUMP JUMPDEST PUSH1 0x0 PUSH2 0x2F4D DUP3 PUSH2 0x2F20 JUMP JUMPDEST SWAP1 POP SWAP2 SWAP1 POP JUMP JUMPDEST PUSH1 0x0 PUSH2 0x2F5F DUP3 PUSH2 0x2F42 JUMP JUMPDEST SWAP1 POP SWAP2 SWAP1 POP JUMP JUMPDEST PUSH2 0x2F6F DUP2 PUSH2 0x2F54 JUMP JUMPDEST DUP3 MSTORE POP POP JUMP JUMPDEST PUSH1 0x0 PUSH2 0x2F80 DUP3 PUSH2 0x2F42 JUMP JUMPDEST SWAP1 POP SWAP2 SWAP1 POP JUMP JUMPDEST PUSH2 0x2F90 DUP2 PUSH2 0x2F75 JUMP JUMPDEST DUP3 MSTORE POP POP JUMP JUMPDEST PUSH1 0x0 PUSH2 0x100 DUP3 ADD SWAP1 POP PUSH2 0x2FAC PUSH1 0x0 DUP4 ADD DUP12 PUSH2 0x2F66 JUMP JUMPDEST PUSH2 0x2FB9 PUSH1 0x20 DUP4 ADD DUP11 PUSH2 0x2E9F JUMP JUMPDEST PUSH2 0x2FC6 PUSH1 0x40 DUP4 ADD DUP10 PUSH2 0x2E9F JUMP JUMPDEST PUSH2 0x2FD3 PUSH1 0x60 DUP4 ADD DUP9 PUSH2 0x2E9F JUMP JUMPDEST PUSH2 0x2FE0 PUSH1 0x80 DUP4 ADD DUP8 PUSH2 0x2F87 JUMP JUMPDEST PUSH2 0x2FED PUSH1 0xA0 DUP4 ADD DUP7 PUSH2 0x2F66 JUMP JUMPDEST PUSH2 0x2FFA PUSH1 0xC0 DUP4 ADD DUP6 PUSH2 0x2E9F JUMP JUMPDEST PUSH2 0x3007 PUSH1 0xE0 DUP4 ADD DUP5 PUSH2 0x2E9F JUMP JUMPDEST SWAP10 SWAP9 POP POP POP POP POP POP POP POP POP JUMP JUMPDEST PUSH1 0x0 PUSH2 0x301F DUP3 PUSH2 0x2EF6 JUMP JUMPDEST SWAP1 POP SWAP2 SWAP1 POP JUMP JUMPDEST PUSH2 0x302F DUP2 PUSH2 0x3014 JUMP JUMPDEST DUP2 EQ PUSH2 0x303A JUMPI PUSH1 0x0 DUP1 REVERT JUMPDEST POP JUMP JUMPDEST PUSH1 0x0 DUP2 CALLDATALOAD SWAP1 POP PUSH2 0x304C DUP2 PUSH2 0x3026 JUMP JUMPDEST SWAP3 SWAP2 POP POP JUMP JUMPDEST PUSH1 0x0 DUP1 PUSH1 0x40 DUP4 DUP6 SUB SLT ISZERO PUSH2 0x3069 JUMPI PUSH2 0x3068 PUSH2 0x2E11 JUMP JUMPDEST JUMPDEST PUSH1 0x0 PUSH2 0x3077 DUP6 DUP3 DUP7 ADD PUSH2 0x2E37 JUMP JUMPDEST SWAP3 POP POP PUSH1 0x20 PUSH2 0x3088 DUP6 DUP3 DUP7 ADD PUSH2 0x303D JUMP JUMPDEST SWAP2 POP POP SWAP3 POP SWAP3 SWAP1 POP JUMP JUMPDEST PUSH1 0x0 PUSH2 0x309D DUP3 PUSH2 0x3014 JUMP JUMPDEST SWAP1 POP SWAP2 SWAP1 POP JUMP JUMPDEST PUSH2 0x30AD DUP2 PUSH2 0x3092 JUMP JUMPDEST DUP2 EQ PUSH2 0x30B8 JUMPI PUSH1 0x0 DUP1 REVERT JUMPDEST POP JUMP JUMPDEST PUSH1 0x0 DUP2 CALLDATALOAD SWAP1 POP PUSH2 0x30CA DUP2 PUSH2 0x30A4 JUMP JUMPDEST SWAP3 SWAP2 POP POP JUMP JUMPDEST PUSH1 0x0 PUSH1 0x20 DUP3 DUP5 SUB SLT ISZERO PUSH2 0x30E6 JUMPI PUSH2 0x30E5 PUSH2 0x2E11 JUMP JUMPDEST JUMPDEST PUSH1 0x0 PUSH2 0x30F4 DUP5 DUP3 DUP6 ADD PUSH2 0x30BB JUMP JUMPDEST SWAP2 POP POP SWAP3 SWAP2 POP POP JUMP JUMPDEST PUSH1 0x0 DUP2 ISZERO ISZERO SWAP1 POP SWAP2 SWAP1 POP JUMP JUMPDEST PUSH2 0x3112 DUP2 PUSH2 0x30FD JUMP JUMPDEST DUP2 EQ PUSH2 0x311D JUMPI PUSH1 0x0 DUP1 REVERT JUMPDEST POP JUMP JUMPDEST PUSH1 0x0 DUP2 CALLDATALOAD SWAP1 POP PUSH2 0x312F DUP2 PUSH2 0x3109 JUMP JUMPDEST SWAP3 SWAP2 POP POP JUMP JUMPDEST PUSH1 0x0 DUP1 PUSH1 0x0 PUSH1 0x60 DUP5 DUP7 SUB SLT ISZERO PUSH2 0x314E JUMPI PUSH2 0x314D PUSH2 0x2E11 JUMP JUMPDEST JUMPDEST PUSH1 0x0 PUSH2 0x315C DUP7 DUP3 DUP8 ADD PUSH2 0x2E37 JUMP JUMPDEST SWAP4 POP POP PUSH1 0x20 PUSH2 0x316D DUP7 DUP3 DUP8 ADD PUSH2 0x2E37 JUMP JUMPDEST SWAP3 POP POP PUSH1 0x40 PUSH2 0x317E DUP7 DUP3 DUP8 ADD PUSH2 0x3120 JUMP JUMPDEST SWAP2 POP POP SWAP3 POP SWAP3 POP SWAP3 JUMP JUMPDEST PUSH1 0x0 PUSH2 0x3193 DUP3 PUSH2 0x3014 JUMP JUMPDEST SWAP1 POP SWAP2 SWAP1 POP JUMP JUMPDEST PUSH2 0x31A3 DUP2 PUSH2 0x3188 JUMP JUMPDEST DUP2 EQ PUSH2 0x31AE JUMPI PUSH1 0x0 DUP1 REVERT JUMPDEST POP JUMP JUMPDEST PUSH1 0x0 DUP2 CALLDATALOAD SWAP1 POP PUSH2 0x31C0 DUP2 PUSH2 0x319A JUMP JUMPDEST SWAP3 SWAP2 POP POP JUMP JUMPDEST PUSH1 0x0 PUSH2 0x31D1 DUP3 PUSH2 0x3014 JUMP JUMPDEST SWAP1 POP SWAP2 SWAP1 POP JUMP JUMPDEST PUSH2 0x31E1 DUP2 PUSH2 0x31C6 JUMP JUMPDEST DUP2 EQ PUSH2 0x31EC JUMPI PUSH1 0x0 DUP1 REVERT JUMPDEST POP JUMP JUMPDEST PUSH1 0x0 DUP2 CALLDATALOAD SWAP1 POP PUSH2 0x31FE DUP2 PUSH2 0x31D8 JUMP JUMPDEST SWAP3 SWAP2 POP POP JUMP JUMPDEST PUSH1 0x0 DUP1 PUSH1 0x0 DUP1 PUSH1 0x0 DUP1 PUSH1 0x0 PUSH1 0xE0 DUP9 DUP11 SUB SLT ISZERO PUSH2 0x3223 JUMPI PUSH2 0x3222 PUSH2 0x2E11 JUMP JUMPDEST JUMPDEST PUSH1 0x0 PUSH2 0x3231 DUP11 DUP3 DUP12 ADD PUSH2 0x2E37 JUMP JUMPDEST SWAP8 POP POP PUSH1 0x20 PUSH2 0x3242 DUP11 DUP3 DUP12 ADD PUSH2 0x31B1 JUMP JUMPDEST SWAP7 POP POP PUSH1 0x40 PUSH2 0x3253 DUP11 DUP3 DUP12 ADD PUSH2 0x3120 JUMP JUMPDEST SWAP6 POP POP PUSH1 0x60 PUSH2 0x3264 DUP11 DUP3 DUP12 ADD PUSH2 0x31EF JUMP JUMPDEST SWAP5 POP POP PUSH1 0x80 PUSH2 0x3275 DUP11 DUP3 DUP12 ADD PUSH2 0x31B1 JUMP JUMPDEST SWAP4 POP POP PUSH1 0xA0 PUSH2 0x3286 DUP11 DUP3 DUP12 ADD PUSH2 0x2E37 JUMP JUMPDEST SWAP3 POP POP PUSH1 0xC0 PUSH2 0x3297 DUP11 DUP3 DUP12 ADD PUSH2 0x2E37 JUMP JUMPDEST SWAP2 POP POP SWAP3 SWAP6 SWAP9 SWAP2 SWAP5 SWAP8 POP SWAP3 SWAP6 POP JUMP JUMPDEST PUSH1 0x0 PUSH2 0x32B1 DUP3 PUSH2 0x2F42 JUMP JUMPDEST SWAP1 POP SWAP2 SWAP1 POP JUMP JUMPDEST PUSH2 0x32C1 DUP2 PUSH2 0x32A6 JUMP JUMPDEST DUP3 MSTORE POP POP JUMP JUMPDEST PUSH1 0x0 PUSH1 0x20 DUP3 ADD SWAP1 POP PUSH2 0x32DC PUSH1 0x0 DUP4 ADD DUP5 PUSH2 0x32B8 JUMP JUMPDEST SWAP3 SWAP2 POP POP JUMP JUMPDEST PUSH2 0x32EB DUP2 PUSH2 0x3014 JUMP JUMPDEST DUP3 MSTORE POP POP JUMP JUMPDEST PUSH1 0x0 PUSH1 0x20 DUP3 ADD SWAP1 POP PUSH2 0x3306 PUSH1 0x0 DUP4 ADD DUP5 PUSH2 0x32E2 JUMP JUMPDEST SWAP3 SWAP2 POP POP JUMP JUMPDEST PUSH1 0x0 DUP1 PUSH1 0x40 DUP4 DUP6 SUB SLT ISZERO PUSH2 0x3323 JUMPI PUSH2 0x3322 PUSH2 0x2E11 JUMP JUMPDEST JUMPDEST PUSH1 0x0 PUSH2 0x3331 DUP6 DUP3 DUP7 ADD PUSH2 0x2E37 JUMP JUMPDEST SWAP3 POP POP PUSH1 0x20 PUSH2 0x3342 DUP6 DUP3 DUP7 ADD PUSH2 0x2E37 JUMP JUMPDEST SWAP2 POP POP SWAP3 POP SWAP3 SWAP1 POP JUMP JUMPDEST PUSH1 0x0 PUSH1 0x40 DUP3 ADD SWAP1 POP PUSH2 0x3361 PUSH1 0x0 DUP4 ADD DUP6 PUSH2 0x2E9F JUMP JUMPDEST PUSH2 0x336E PUSH1 0x20 DUP4 ADD DUP5 PUSH2 0x2E9F JUMP JUMPDEST SWAP4 SWAP3 POP POP POP JUMP JUMPDEST PUSH1 0x0 PUSH1 0x20 DUP3 ADD SWAP1 POP PUSH2 0x338A PUSH1 0x0 DUP4 ADD DUP5 PUSH2 0x2F66 JUMP JUMPDEST SWAP3 SWAP2 POP POP JUMP JUMPDEST PUSH1 0x0 PUSH1 0x20 DUP3 DUP5 SUB SLT ISZERO PUSH2 0x33A6 JUMPI PUSH2 0x33A5 PUSH2 0x2E11 JUMP JUMPDEST JUMPDEST PUSH1 0x0 PUSH2 0x33B4 DUP5 DUP3 DUP6 ADD PUSH2 0x303D JUMP JUMPDEST SWAP2 POP POP SWAP3 SWAP2 POP POP JUMP JUMPDEST PUSH32 0x4E487B7100000000000000000000000000000000000000000000000000000000 PUSH1 0x0 MSTORE PUSH1 0x32 PUSH1 0x4 MSTORE PUSH1 0x24 PUSH1 0x0 REVERT JUMPDEST PUSH1 0x0 PUSH1 0x40 DUP3 ADD SWAP1 POP PUSH2 0x3401 PUSH1 0x0 DUP4 ADD DUP6 PUSH2 0x32E2 JUMP JUMPDEST PUSH2 0x340E PUSH1 0x20 DUP4 ADD DUP5 PUSH2 0x32E2 JUMP JUMPDEST SWAP4 SWAP3 POP POP POP JUMP JUMPDEST PUSH1 0x0 DUP2 MLOAD SWAP1 POP PUSH2 0x3424 DUP2 PUSH2 0x2E20 JUMP JUMPDEST SWAP3 SWAP2 POP POP JUMP JUMPDEST PUSH1 0x0 PUSH1 0x20 DUP3 DUP5 SUB SLT ISZERO PUSH2 0x3440 JUMPI PUSH2 0x343F PUSH2 0x2E11 JUMP JUMPDEST JUMPDEST PUSH1 0x0 PUSH2 0x344E DUP5 DUP3 DUP6 ADD PUSH2 0x3415 JUMP JUMPDEST SWAP2 POP POP SWAP3 SWAP2 POP POP JUMP JUMPDEST PUSH1 0x0 DUP3 DUP3 MSTORE PUSH1 0x20 DUP3 ADD SWAP1 POP SWAP3 SWAP2 POP POP JUMP JUMPDEST PUSH32 0x4F776E61626C653A2063616C6C6572206973206E6F7420746865206F776E6572 PUSH1 0x0 DUP3 ADD MSTORE POP JUMP JUMPDEST PUSH1 0x0 PUSH2 0x349E PUSH1 0x20 DUP4 PUSH2 0x3457 JUMP JUMPDEST SWAP2 POP PUSH2 0x34A9 DUP3 PUSH2 0x3468 JUMP JUMPDEST PUSH1 0x20 DUP3 ADD SWAP1 POP SWAP2 SWAP1 POP JUMP JUMPDEST PUSH1 0x0 PUSH1 0x20 DUP3 ADD SWAP1 POP DUP2 DUP2 SUB PUSH1 0x0 DUP4 ADD MSTORE PUSH2 0x34CD DUP2 PUSH2 0x3491 JUMP JUMPDEST SWAP1 POP SWAP2 SWAP1 POP JUMP JUMPDEST PUSH32 0x6D6967726174653A206E6F206D69677261746F72000000000000000000000000 PUSH1 0x0 DUP3 ADD MSTORE POP JUMP JUMPDEST PUSH1 0x0 PUSH2 0x350A PUSH1 0x14 DUP4 PUSH2 0x3457 JUMP JUMPDEST SWAP2 POP PUSH2 0x3515 DUP3 PUSH2 0x34D4 JUMP JUMPDEST PUSH1 0x20 DUP3 ADD SWAP1 POP SWAP2 SWAP1 POP JUMP JUMPDEST PUSH1 0x0 PUSH1 0x20 DUP3 ADD SWAP1 POP DUP2 DUP2 SUB PUSH1 0x0 DUP4 ADD MSTORE PUSH2 0x3539 DUP2 PUSH2 0x34FD JUMP JUMPDEST SWAP1 POP SWAP2 SWAP1 POP JUMP JUMPDEST PUSH1 0x0 DUP2 MLOAD SWAP1 POP PUSH2 0x354F DUP2 PUSH2 0x319A JUMP JUMPDEST SWAP3 SWAP2 POP POP JUMP JUMPDEST PUSH1 0x0 PUSH1 0x20 DUP3 DUP5 SUB SLT ISZERO PUSH2 0x356B JUMPI PUSH2 0x356A PUSH2 0x2E11 JUMP JUMPDEST JUMPDEST PUSH1 0x0 PUSH2 0x3579 DUP5 DUP3 DUP6 ADD PUSH2 0x3540 JUMP JUMPDEST SWAP2 POP POP SWAP3 SWAP2 POP POP JUMP JUMPDEST PUSH32 0x6D6967726174653A206261640000000000000000000000000000000000000000 PUSH1 0x0 DUP3 ADD MSTORE POP JUMP JUMPDEST PUSH1 0x0 PUSH2 0x35B8 PUSH1 0xC DUP4 PUSH2 0x3457 JUMP JUMPDEST SWAP2 POP PUSH2 0x35C3 DUP3 PUSH2 0x3582 JUMP JUMPDEST PUSH1 0x20 DUP3 ADD SWAP1 POP SWAP2 SWAP1 POP JUMP JUMPDEST PUSH1 0x0 PUSH1 0x20 DUP3 ADD SWAP1 POP DUP2 DUP2 SUB PUSH1 0x0 DUP4 ADD MSTORE PUSH2 0x35E7 DUP2 PUSH2 0x35AB JUMP JUMPDEST SWAP1 POP SWAP2 SWAP1 POP JUMP JUMPDEST PUSH1 0x0 PUSH1 0x40 DUP3 ADD SWAP1 POP PUSH2 0x3603 PUSH1 0x0 DUP4 ADD DUP6 PUSH2 0x32E2 JUMP JUMPDEST PUSH2 0x3610 PUSH1 0x20 DUP4 ADD DUP5 PUSH2 0x2E9F JUMP JUMPDEST SWAP4 SWAP3 POP POP POP JUMP JUMPDEST PUSH1 0x0 DUP2 MLOAD SWAP1 POP PUSH2 0x3626 DUP2 PUSH2 0x3109 JUMP JUMPDEST SWAP3 SWAP2 POP POP JUMP JUMPDEST PUSH1 0x0 PUSH1 0x20 DUP3 DUP5 SUB SLT ISZERO PUSH2 0x3642 JUMPI PUSH2 0x3641 PUSH2 0x2E11 JUMP JUMPDEST JUMPDEST PUSH1 0x0 PUSH2 0x3650 DUP5 DUP3 DUP6 ADD PUSH2 0x3617 JUMP JUMPDEST SWAP2 POP POP SWAP3 SWAP2 POP POP JUMP JUMPDEST PUSH32 0x4E487B7100000000000000000000000000000000000000000000000000000000 PUSH1 0x0 MSTORE PUSH1 0x11 PUSH1 0x4 MSTORE PUSH1 0x24 PUSH1 0x0 REVERT JUMPDEST PUSH1 0x0 PUSH2 0x3693 DUP3 PUSH2 0x2E16 JUMP JUMPDEST SWAP2 POP PUSH32 0xFFFFFFFFFFFFFFFFFFFFFFFFFFFFFFFFFFFFFFFFFFFFFFFFFFFFFFFFFFFFFFFF DUP3 SUB PUSH2 0x36C5 JUMPI PUSH2 0x36C4 PUSH2 0x3659 JUMP JUMPDEST JUMPDEST PUSH1 0x1 DUP3 ADD SWAP1 POP SWAP2 SWAP1 POP JUMP JUMPDEST PUSH32 0x77697468647261773A206E6F7420676F6F640000000000000000000000000000 PUSH1 0x0 DUP3 ADD MSTORE POP JUMP JUMPDEST PUSH1 0x0 PUSH2 0x3706 PUSH1 0x12 DUP4 PUSH2 0x3457 JUMP JUMPDEST SWAP2 POP PUSH2 0x3711 DUP3 PUSH2 0x36D0 JUMP JUMPDEST PUSH1 0x20 DUP3 ADD SWAP1 POP SWAP2 SWAP1 POP JUMP JUMPDEST PUSH1 0x0 PUSH1 0x20 DUP3 ADD SWAP1 POP DUP2 DUP2 SUB PUSH1 0x0 DUP4 ADD MSTORE PUSH2 0x3735 DUP2 PUSH2 0x36F9 JUMP JUMPDEST SWAP1 POP SWAP2 SWAP1 POP JUMP JUMPDEST PUSH32 0x4F776E61626C653A206E6577206F776E657220697320746865207A65726F2061 PUSH1 0x0 DUP3 ADD MSTORE PUSH32 0x6464726573730000000000000000000000000000000000000000000000000000 PUSH1 0x20 DUP3 ADD MSTORE POP JUMP JUMPDEST PUSH1 0x0 PUSH2 0x3798 PUSH1 0x26 DUP4 PUSH2 0x3457 JUMP JUMPDEST SWAP2 POP PUSH2 0x37A3 DUP3 PUSH2 0x373C JUMP JUMPDEST PUSH1 0x40 DUP3 ADD SWAP1 POP SWAP2 SWAP1 POP JUMP JUMPDEST PUSH1 0x0 PUSH1 0x20 DUP3 ADD SWAP1 POP DUP2 DUP2 SUB PUSH1 0x0 DUP4 ADD MSTORE PUSH2 0x37C7 DUP2 PUSH2 0x378B JUMP JUMPDEST SWAP1 POP SWAP2 SWAP1 POP JUMP JUMPDEST PUSH1 0x0 PUSH2 0x37D9 DUP3 PUSH2 0x2E16 JUMP JUMPDEST SWAP2 POP PUSH2 0x37E4 DUP4 PUSH2 0x2E16 JUMP JUMPDEST SWAP3 POP DUP2 PUSH32 0xFFFFFFFFFFFFFFFFFFFFFFFFFFFFFFFFFFFFFFFFFFFFFFFFFFFFFFFFFFFFFFFF DIV DUP4 GT DUP3 ISZERO ISZERO AND ISZERO PUSH2 0x381D JUMPI PUSH2 0x381C PUSH2 0x3659 JUMP JUMPDEST JUMPDEST DUP3 DUP3 MUL SWAP1 POP SWAP3 SWAP2 POP POP JUMP JUMPDEST PUSH32 0x4E487B7100000000000000000000000000000000000000000000000000000000 PUSH1 0x0 MSTORE PUSH1 0x12 PUSH1 0x4 MSTORE PUSH1 0x24 PUSH1 0x0 REVERT JUMPDEST PUSH1 0x0 PUSH2 0x3862 DUP3 PUSH2 0x2E16 JUMP JUMPDEST SWAP2 POP PUSH2 0x386D DUP4 PUSH2 0x2E16 JUMP JUMPDEST SWAP3 POP DUP3 PUSH2 0x387D JUMPI PUSH2 0x387C PUSH2 0x3828 JUMP JUMPDEST JUMPDEST DUP3 DUP3 DIV SWAP1 POP SWAP3 SWAP2 POP POP JUMP JUMPDEST PUSH32 0x536166654D6174683A206D756C7469706C69636174696F6E206F766572666C6F PUSH1 0x0 DUP3 ADD MSTORE PUSH32 0x7700000000000000000000000000000000000000000000000000000000000000 PUSH1 0x20 DUP3 ADD MSTORE POP JUMP JUMPDEST PUSH1 0x0 PUSH2 0x38E4 PUSH1 0x21 DUP4 PUSH2 0x3457 JUMP JUMPDEST SWAP2 POP PUSH2 0x38EF DUP3 PUSH2 0x3888 JUMP JUMPDEST PUSH1 0x40 DUP3 ADD SWAP1 POP SWAP2 SWAP1 POP JUMP JUMPDEST PUSH1 0x0 PUSH1 0x20 DUP3 ADD SWAP1 POP DUP2 DUP2 SUB PUSH1 0x0 DUP4 ADD MSTORE PUSH2 0x3913 DUP2 PUSH2 0x38D7 JUMP JUMPDEST SWAP1 POP SWAP2 SWAP1 POP JUMP JUMPDEST PUSH1 0x0 PUSH1 0x60 DUP3 ADD SWAP1 POP PUSH2 0x392F PUSH1 0x0 DUP4 ADD DUP7 PUSH2 0x32E2 JUMP JUMPDEST PUSH2 0x393C PUSH1 0x20 DUP4 ADD DUP6 PUSH2 0x32E2 JUMP JUMPDEST PUSH2 0x3949 PUSH1 0x40 DUP4 ADD DUP5 PUSH2 0x2E9F JUMP JUMPDEST SWAP5 SWAP4 POP POP POP POP JUMP JUMPDEST PUSH1 0x0 PUSH2 0x395C DUP3 PUSH2 0x2E16 JUMP JUMPDEST SWAP2 POP PUSH2 0x3967 DUP4 PUSH2 0x2E16 JUMP JUMPDEST SWAP3 POP DUP3 PUSH32 0xFFFFFFFFFFFFFFFFFFFFFFFFFFFFFFFFFFFFFFFFFFFFFFFFFFFFFFFFFFFFFFFF SUB DUP3 GT ISZERO PUSH2 0x399C JUMPI PUSH2 0x399B PUSH2 0x3659 JUMP JUMPDEST JUMPDEST DUP3 DUP3 ADD SWAP1 POP SWAP3 SWAP2 POP POP JUMP JUMPDEST PUSH32 0x536166654D6174683A206164646974696F6E206F766572666C6F770000000000 PUSH1 0x0 DUP3 ADD MSTORE POP JUMP JUMPDEST PUSH1 0x0 PUSH2 0x39DD PUSH1 0x1B DUP4 PUSH2 0x3457 JUMP JUMPDEST SWAP2 POP PUSH2 0x39E8 DUP3 PUSH2 0x39A7 JUMP JUMPDEST PUSH1 0x20 DUP3 ADD SWAP1 POP SWAP2 SWAP1 POP JUMP JUMPDEST PUSH1 0x0 PUSH1 0x20 DUP3 ADD SWAP1 POP DUP2 DUP2 SUB PUSH1 0x0 DUP4 ADD MSTORE PUSH2 0x3A0C DUP2 PUSH2 0x39D0 JUMP JUMPDEST SWAP1 POP SWAP2 SWAP1 POP JUMP JUMPDEST PUSH32 0x5361666545524332303A20617070726F76652066726F6D206E6F6E2D7A65726F PUSH1 0x0 DUP3 ADD MSTORE PUSH32 0x20746F206E6F6E2D7A65726F20616C6C6F77616E636500000000000000000000 PUSH1 0x20 DUP3 ADD MSTORE POP JUMP JUMPDEST PUSH1 0x0 PUSH2 0x3A6F PUSH1 0x36 DUP4 PUSH2 0x3457 JUMP JUMPDEST SWAP2 POP PUSH2 0x3A7A DUP3 PUSH2 0x3A13 JUMP JUMPDEST PUSH1 0x40 DUP3 ADD SWAP1 POP SWAP2 SWAP1 POP JUMP JUMPDEST PUSH1 0x0 PUSH1 0x20 DUP3 ADD SWAP1 POP DUP2 DUP2 SUB PUSH1 0x0 DUP4 ADD MSTORE PUSH2 0x3A9E DUP2 PUSH2 0x3A62 JUMP JUMPDEST SWAP1 POP SWAP2 SWAP1 POP JUMP JUMPDEST PUSH1 0x0 DUP2 MLOAD SWAP1 POP SWAP2 SWAP1 POP JUMP JUMPDEST PUSH1 0x0 JUMPDEST DUP4 DUP2 LT ISZERO PUSH2 0x3ACE JUMPI DUP1 DUP3 ADD MLOAD DUP2 DUP5 ADD MSTORE PUSH1 0x20 DUP2 ADD SWAP1 POP PUSH2 0x3AB3 JUMP JUMPDEST DUP4 DUP2 GT ISZERO PUSH2 0x3ADD JUMPI PUSH1 0x0 DUP5 DUP5 ADD MSTORE JUMPDEST POP POP POP POP JUMP JUMPDEST PUSH1 0x0 PUSH1 0x1F NOT PUSH1 0x1F DUP4 ADD AND SWAP1 POP SWAP2 SWAP1 POP JUMP JUMPDEST PUSH1 0x0 PUSH2 0x3AFF DUP3 PUSH2 0x3AA5 JUMP JUMPDEST PUSH2 0x3B09 DUP2 DUP6 PUSH2 0x3457 JUMP JUMPDEST SWAP4 POP PUSH2 0x3B19 DUP2 DUP6 PUSH1 0x20 DUP7 ADD PUSH2 0x3AB0 JUMP JUMPDEST PUSH2 0x3B22 DUP2 PUSH2 0x3AE3 JUMP JUMPDEST DUP5 ADD SWAP2 POP POP SWAP3 SWAP2 POP POP JUMP JUMPDEST PUSH1 0x0 PUSH1 0x20 DUP3 ADD SWAP1 POP DUP2 DUP2 SUB PUSH1 0x0 DUP4 ADD MSTORE PUSH2 0x3B47 DUP2 DUP5 PUSH2 0x3AF4 JUMP JUMPDEST SWAP1 POP SWAP3 SWAP2 POP POP JUMP JUMPDEST PUSH1 0x0 PUSH2 0x3B5A DUP3 PUSH2 0x2E16 JUMP JUMPDEST SWAP2 POP PUSH2 0x3B65 DUP4 PUSH2 0x2E16 JUMP JUMPDEST SWAP3 POP DUP3 DUP3 LT ISZERO PUSH2 0x3B78 JUMPI PUSH2 0x3B77 PUSH2 0x3659 JUMP JUMPDEST JUMPDEST DUP3 DUP3 SUB SWAP1 POP SWAP3 SWAP2 POP POP JUMP JUMPDEST PUSH32 0x5361666545524332303A204552433230206F7065726174696F6E20646964206E PUSH1 0x0 DUP3 ADD MSTORE PUSH32 0x6F74207375636365656400000000000000000000000000000000000000000000 PUSH1 0x20 DUP3 ADD MSTORE POP JUMP JUMPDEST PUSH1 0x0 PUSH2 0x3BDF PUSH1 0x2A DUP4 PUSH2 0x3457 JUMP JUMPDEST SWAP2 POP PUSH2 0x3BEA DUP3 PUSH2 0x3B83 JUMP JUMPDEST PUSH1 0x40 DUP3 ADD SWAP1 POP SWAP2 SWAP1 POP JUMP JUMPDEST PUSH1 0x0 PUSH1 0x20 DUP3 ADD SWAP1 POP DUP2 DUP2 SUB PUSH1 0x0 DUP4 ADD MSTORE PUSH2 0x3C0E DUP2 PUSH2 0x3BD2 JUMP JUMPDEST SWAP1 POP SWAP2 SWAP1 POP JUMP JUMPDEST PUSH32 0x416464726573733A20696E73756666696369656E742062616C616E636520666F PUSH1 0x0 DUP3 ADD MSTORE PUSH32 0x722063616C6C0000000000000000000000000000000000000000000000000000 PUSH1 0x20 DUP3 ADD MSTORE POP JUMP JUMPDEST PUSH1 0x0 PUSH2 0x3C71 PUSH1 0x26 DUP4 PUSH2 0x3457 JUMP JUMPDEST SWAP2 POP PUSH2 0x3C7C DUP3 PUSH2 0x3C15 JUMP JUMPDEST PUSH1 0x40 DUP3 ADD SWAP1 POP SWAP2 SWAP1 POP JUMP JUMPDEST PUSH1 0x0 PUSH1 0x20 DUP3 ADD SWAP1 POP DUP2 DUP2 SUB PUSH1 0x0 DUP4 ADD MSTORE PUSH2 0x3CA0 DUP2 PUSH2 0x3C64 JUMP JUMPDEST SWAP1 POP SWAP2 SWAP1 POP JUMP JUMPDEST PUSH32 0x416464726573733A2063616C6C20746F206E6F6E2D636F6E7472616374000000 PUSH1 0x0 DUP3 ADD MSTORE POP JUMP JUMPDEST PUSH1 0x0 PUSH2 0x3CDD PUSH1 0x1D DUP4 PUSH2 0x3457 JUMP JUMPDEST SWAP2 POP PUSH2 0x3CE8 DUP3 PUSH2 0x3CA7 JUMP JUMPDEST PUSH1 0x20 DUP3 ADD SWAP1 POP SWAP2 SWAP1 POP JUMP JUMPDEST PUSH1 0x0 PUSH1 0x20 DUP3 ADD SWAP1 POP DUP2 DUP2 SUB PUSH1 0x0 DUP4 ADD MSTORE PUSH2 0x3D0C DUP2 PUSH2 0x3CD0 JUMP JUMPDEST SWAP1 POP SWAP2 SWAP1 POP JUMP JUMPDEST PUSH1 0x0 DUP2 MLOAD SWAP1 POP SWAP2 SWAP1 POP JUMP JUMPDEST PUSH1 0x0 DUP2 SWAP1 POP SWAP3 SWAP2 POP POP JUMP JUMPDEST PUSH1 0x0 PUSH2 0x3D34 DUP3 PUSH2 0x3D13 JUMP JUMPDEST PUSH2 0x3D3E DUP2 DUP6 PUSH2 0x3D1E JUMP JUMPDEST SWAP4 POP PUSH2 0x3D4E DUP2 DUP6 PUSH1 0x20 DUP7 ADD PUSH2 0x3AB0 JUMP JUMPDEST DUP1 DUP5 ADD SWAP2 POP POP SWAP3 SWAP2 POP POP JUMP JUMPDEST PUSH1 0x0 PUSH2 0x3D66 DUP3 DUP5 PUSH2 0x3D29 JUMP JUMPDEST SWAP2 POP DUP2 SWAP1 POP SWAP3 SWAP2 POP POP JUMP INVALID LOG2 PUSH5 0x6970667358 0x22 SLT KECCAK256 PUSH13 0x9837B2AD4108ED23D0E603DE65 0xFB 0xBC CALLDATASIZE CODECOPY PUSH17 0x7F9874415E1CB958324C38ECF664736F6C PUSH4 0x4300080F STOP CALLER "
				},
				"gasEstimates": {
					"creation": {
						"codeDepositCost": "3156600",
						"executionCost": "infinite",
						"totalCost": "infinite"
					},
					"external": {
						"BONUS_MULTIPLIER()": "2496",
						"DDT()": "infinite",
						"DDTPerBlock()": "2539",
						"add(uint256,address,bool,address,address,uint256,uint256)": "infinite",
						"deposit(uint256,uint256,uint256)": "infinite",
						"devaddr()": "2558",
						"emergencyWithdraw(uint256)": "infinite",
						"emergencyWithdrawFromBSW(uint256)": "infinite",
						"enablePool(uint256)": "infinite",
						"getMultiplier(uint256,uint256)": "infinite",
						"massUpdatePools()": "infinite",
						"migrate(uint256)": "infinite",
						"migrator()": "infinite",
						"owner()": "2611",
						"pendingDDT(uint256,address)": "infinite",
						"poolBalance(uint256)": "infinite",
						"poolInfo(uint256)": "infinite",
						"poolLength()": "2514",
						"renounceOwnership()": "30464",
						"set(uint256,uint256,bool)": "infinite",
						"setDevAddress(address)": "27073",
						"setMigrator(address)": "27095",
						"startBlock()": "2475",
						"totalAllocPoint()": "2475",
						"transferOwnership(address)": "30808",
						"updateDDTPerBlock(uint256)": "24805",
						"updateMultiplier(uint256)": "24872",
						"updatePool(uint256)": "infinite",
						"userInfo(uint256,address)": "infinite",
						"withdraw(uint256,uint256,uint256)": "infinite"
					},
					"internal": {
						"safeDDTTransfer(address,uint256)": "infinite"
					}
				},
				"methodIdentifiers": {
					"BONUS_MULTIPLIER()": "8aa28550",
					"DDT()": "cb3cba55",
					"DDTPerBlock()": "f395db2c",
					"add(uint256,address,bool,address,address,uint256,uint256)": "64944193",
					"deposit(uint256,uint256,uint256)": "00aeef8a",
					"devaddr()": "d49e77cd",
					"emergencyWithdraw(uint256)": "5312ea8e",
					"emergencyWithdrawFromBSW(uint256)": "68382a21",
					"enablePool(uint256)": "eeac3ae8",
					"getMultiplier(uint256,uint256)": "8dbb1e3a",
					"massUpdatePools()": "630b5ba1",
					"migrate(uint256)": "454b0608",
					"migrator()": "7cd07e47",
					"owner()": "8da5cb5b",
					"pendingDDT(uint256,address)": "2080baab",
					"poolBalance(uint256)": "6a6d964e",
					"poolInfo(uint256)": "1526fe27",
					"poolLength()": "081e3eda",
					"renounceOwnership()": "715018a6",
					"set(uint256,uint256,bool)": "64482f79",
					"setDevAddress(address)": "d0d41fe1",
					"setMigrator(address)": "23cf3118",
					"startBlock()": "48cd4cb1",
					"totalAllocPoint()": "17caf6f1",
					"transferOwnership(address)": "f2fde38b",
					"updateDDTPerBlock(uint256)": "612eee43",
					"updateMultiplier(uint256)": "5ffe6146",
					"updatePool(uint256)": "51eb05a6",
					"userInfo(uint256,address)": "93f1a40b",
					"withdraw(uint256,uint256,uint256)": "a41fe49f"
				}
			},
			"storageLayout": {
				"storage": [
					{
						"astId": 820,
						"contract": "contracts/DDTMasterChef.sol:MetaMasterChef",
						"label": "_owner",
						"offset": 0,
						"slot": "0",
						"type": "t_address"
					},
					{
						"astId": 1018,
						"contract": "contracts/DDTMasterChef.sol:MetaMasterChef",
						"label": "DDT",
						"offset": 0,
						"slot": "1",
						"type": "t_contract(IERC20)286"
					},
					{
						"astId": 1020,
						"contract": "contracts/DDTMasterChef.sol:MetaMasterChef",
						"label": "devaddr",
						"offset": 0,
						"slot": "2",
						"type": "t_address"
					},
					{
						"astId": 1022,
						"contract": "contracts/DDTMasterChef.sol:MetaMasterChef",
						"label": "DDTPerBlock",
						"offset": 0,
						"slot": "3",
						"type": "t_uint256"
					},
					{
						"astId": 1025,
						"contract": "contracts/DDTMasterChef.sol:MetaMasterChef",
						"label": "BONUS_MULTIPLIER",
						"offset": 0,
						"slot": "4",
						"type": "t_uint256"
					},
					{
						"astId": 1028,
						"contract": "contracts/DDTMasterChef.sol:MetaMasterChef",
						"label": "migrator",
						"offset": 0,
						"slot": "5",
						"type": "t_contract(IMigratorChef)981"
					},
					{
						"astId": 1032,
						"contract": "contracts/DDTMasterChef.sol:MetaMasterChef",
						"label": "poolInfo",
						"offset": 0,
						"slot": "6",
						"type": "t_array(t_struct(PoolInfo)1015_storage)dyn_storage"
					},
					{
						"astId": 1039,
						"contract": "contracts/DDTMasterChef.sol:MetaMasterChef",
						"label": "userInfo",
						"offset": 0,
						"slot": "7",
						"type": "t_mapping(t_uint256,t_mapping(t_address,t_struct(UserInfo)995_storage))"
					},
					{
						"astId": 1042,
						"contract": "contracts/DDTMasterChef.sol:MetaMasterChef",
						"label": "totalAllocPoint",
						"offset": 0,
						"slot": "8",
						"type": "t_uint256"
					},
					{
						"astId": 1044,
						"contract": "contracts/DDTMasterChef.sol:MetaMasterChef",
						"label": "startBlock",
						"offset": 0,
						"slot": "9",
						"type": "t_uint256"
					},
					{
						"astId": 1048,
						"contract": "contracts/DDTMasterChef.sol:MetaMasterChef",
						"label": "poolBalance",
						"offset": 0,
						"slot": "10",
						"type": "t_mapping(t_uint256,t_uint256)"
					},
					{
						"astId": 1051,
						"contract": "contracts/DDTMasterChef.sol:MetaMasterChef",
						"label": "approveAmount",
						"offset": 0,
						"slot": "11",
						"type": "t_uint256"
					},
					{
						"astId": 1054,
						"contract": "contracts/DDTMasterChef.sol:MetaMasterChef",
						"label": "percent",
						"offset": 0,
						"slot": "12",
						"type": "t_uint256"
					}
				],
				"types": {
					"t_address": {
						"encoding": "inplace",
						"label": "address",
						"numberOfBytes": "20"
					},
					"t_array(t_struct(PoolInfo)1015_storage)dyn_storage": {
						"base": "t_struct(PoolInfo)1015_storage",
						"encoding": "dynamic_array",
						"label": "struct MetaMasterChef.PoolInfo[]",
						"numberOfBytes": "32"
					},
					"t_contract(IERC20)286": {
						"encoding": "inplace",
						"label": "contract IERC20",
						"numberOfBytes": "20"
					},
					"t_contract(IMasterChef)971": {
						"encoding": "inplace",
						"label": "contract IMasterChef",
						"numberOfBytes": "20"
					},
					"t_contract(IMigratorChef)981": {
						"encoding": "inplace",
						"label": "contract IMigratorChef",
						"numberOfBytes": "20"
					},
					"t_mapping(t_address,t_struct(UserInfo)995_storage)": {
						"encoding": "mapping",
						"key": "t_address",
						"label": "mapping(address => struct MetaMasterChef.UserInfo)",
						"numberOfBytes": "32",
						"value": "t_struct(UserInfo)995_storage"
					},
					"t_mapping(t_uint256,t_mapping(t_address,t_struct(UserInfo)995_storage))": {
						"encoding": "mapping",
						"key": "t_uint256",
						"label": "mapping(uint256 => mapping(address => struct MetaMasterChef.UserInfo))",
						"numberOfBytes": "32",
						"value": "t_mapping(t_address,t_struct(UserInfo)995_storage)"
					},
					"t_mapping(t_uint256,t_uint256)": {
						"encoding": "mapping",
						"key": "t_uint256",
						"label": "mapping(uint256 => uint256)",
						"numberOfBytes": "32",
						"value": "t_uint256"
					},
					"t_struct(PoolInfo)1015_storage": {
						"encoding": "inplace",
						"label": "struct MetaMasterChef.PoolInfo",
						"members": [
							{
								"astId": 998,
								"contract": "contracts/DDTMasterChef.sol:MetaMasterChef",
								"label": "lpToken",
								"offset": 0,
								"slot": "0",
								"type": "t_contract(IERC20)286"
							},
							{
								"astId": 1000,
								"contract": "contracts/DDTMasterChef.sol:MetaMasterChef",
								"label": "allocPoint",
								"offset": 0,
								"slot": "1",
								"type": "t_uint256"
							},
							{
								"astId": 1002,
								"contract": "contracts/DDTMasterChef.sol:MetaMasterChef",
								"label": "lastRewardBlock",
								"offset": 0,
								"slot": "2",
								"type": "t_uint256"
							},
							{
								"astId": 1004,
								"contract": "contracts/DDTMasterChef.sol:MetaMasterChef",
								"label": "accDDTPerShare",
								"offset": 0,
								"slot": "3",
								"type": "t_uint256"
							},
							{
								"astId": 1007,
								"contract": "contracts/DDTMasterChef.sol:MetaMasterChef",
								"label": "poolMasterChef",
								"offset": 0,
								"slot": "4",
								"type": "t_contract(IMasterChef)971"
							},
							{
								"astId": 1010,
								"contract": "contracts/DDTMasterChef.sol:MetaMasterChef",
								"label": "rewardToken",
								"offset": 0,
								"slot": "5",
								"type": "t_contract(IERC20)286"
							},
							{
								"astId": 1012,
								"contract": "contracts/DDTMasterChef.sol:MetaMasterChef",
								"label": "fee",
								"offset": 0,
								"slot": "6",
								"type": "t_uint256"
							},
							{
								"astId": 1014,
								"contract": "contracts/DDTMasterChef.sol:MetaMasterChef",
								"label": "method",
								"offset": 0,
								"slot": "7",
								"type": "t_uint256"
							}
						],
						"numberOfBytes": "256"
					},
					"t_struct(UserInfo)995_storage": {
						"encoding": "inplace",
						"label": "struct MetaMasterChef.UserInfo",
						"members": [
							{
								"astId": 992,
								"contract": "contracts/DDTMasterChef.sol:MetaMasterChef",
								"label": "amount",
								"offset": 0,
								"slot": "0",
								"type": "t_uint256"
							},
							{
								"astId": 994,
								"contract": "contracts/DDTMasterChef.sol:MetaMasterChef",
								"label": "rewardDebt",
								"offset": 0,
								"slot": "1",
								"type": "t_uint256"
							}
						],
						"numberOfBytes": "64"
					},
					"t_uint256": {
						"encoding": "inplace",
						"label": "uint256",
						"numberOfBytes": "32"
					}
				}
			},
			"userdoc": {
				"kind": "user",
				"methods": {},
				"version": 1
			}
		}
	}
}