{
	"contracts/MetaMasterChef.sol": {
		"MetaMasterChef": {
			"abi": [
				{
					"inputs": [
						{
							"internalType": "contract IERC20",
							"name": "_DRG",
							"type": "address"
						},
						{
							"internalType": "address",
							"name": "_devaddr",
							"type": "address"
						},
						{
							"internalType": "uint256",
							"name": "_DRGPerBlock",
							"type": "uint256"
						},
						{
							"internalType": "uint256",
							"name": "_startBlock",
							"type": "uint256"
						},
						{
							"internalType": "contract INFTMasterChef",
							"name": "_NFTMasterChef",
							"type": "address"
						},
						{
							"internalType": "uint256",
							"name": "_lpFee",
							"type": "uint256"
						}
					],
					"stateMutability": "nonpayable",
					"type": "constructor"
				},
				{
					"anonymous": false,
					"inputs": [
						{
							"indexed": true,
							"internalType": "address",
							"name": "user",
							"type": "address"
						},
						{
							"indexed": true,
							"internalType": "uint256",
							"name": "pid",
							"type": "uint256"
						},
						{
							"indexed": false,
							"internalType": "uint256",
							"name": "amount",
							"type": "uint256"
						}
					],
					"name": "Deposit",
					"type": "event"
				},
				{
					"anonymous": false,
					"inputs": [
						{
							"indexed": true,
							"internalType": "address",
							"name": "user",
							"type": "address"
						},
						{
							"indexed": true,
							"internalType": "uint256",
							"name": "pid",
							"type": "uint256"
						},
						{
							"indexed": false,
							"internalType": "uint256",
							"name": "amount",
							"type": "uint256"
						}
					],
					"name": "EmergencyWithdraw",
					"type": "event"
				},
				{
					"anonymous": false,
					"inputs": [
						{
							"indexed": true,
							"internalType": "address",
							"name": "previousOwner",
							"type": "address"
						},
						{
							"indexed": true,
							"internalType": "address",
							"name": "newOwner",
							"type": "address"
						}
					],
					"name": "OwnershipTransferred",
					"type": "event"
				},
				{
					"anonymous": false,
					"inputs": [
						{
							"indexed": true,
							"internalType": "address",
							"name": "user",
							"type": "address"
						},
						{
							"indexed": true,
							"internalType": "uint256",
							"name": "pid",
							"type": "uint256"
						},
						{
							"indexed": false,
							"internalType": "uint256",
							"name": "amount",
							"type": "uint256"
						}
					],
					"name": "Withdraw",
					"type": "event"
				},
				{
					"inputs": [],
					"name": "BONUS_MULTIPLIER",
					"outputs": [
						{
							"internalType": "uint256",
							"name": "",
							"type": "uint256"
						}
					],
					"stateMutability": "view",
					"type": "function"
				},
				{
					"inputs": [],
					"name": "DRG",
					"outputs": [
						{
							"internalType": "contract IERC20",
							"name": "",
							"type": "address"
						}
					],
					"stateMutability": "view",
					"type": "function"
				},
				{
					"inputs": [],
					"name": "DRGPerBlock",
					"outputs": [
						{
							"internalType": "uint256",
							"name": "",
							"type": "uint256"
						}
					],
					"stateMutability": "view",
					"type": "function"
				},
				{
					"inputs": [],
					"name": "NFTMasterChef",
					"outputs": [
						{
							"internalType": "contract INFTMasterChef",
							"name": "",
							"type": "address"
						}
					],
					"stateMutability": "view",
					"type": "function"
				},
				{
					"inputs": [
						{
							"internalType": "uint256",
							"name": "_allocPoint",
							"type": "uint256"
						},
						{
							"internalType": "contract IERC20",
							"name": "_lpToken",
							"type": "address"
						},
						{
							"internalType": "bool",
							"name": "_withUpdate",
							"type": "bool"
						},
						{
							"internalType": "contract IMasterChef",
							"name": "_poolMasterChef",
							"type": "address"
						},
						{
							"internalType": "contract IERC20",
							"name": "_rewardToken",
							"type": "address"
						}
					],
					"name": "add",
					"outputs": [],
					"stateMutability": "nonpayable",
					"type": "function"
				},
				{
					"inputs": [
						{
							"internalType": "uint256",
							"name": "_pid",
							"type": "uint256"
						},
						{
							"internalType": "uint256",
							"name": "_BSWPid",
							"type": "uint256"
						},
						{
							"internalType": "uint256",
							"name": "_amount",
							"type": "uint256"
						}
					],
					"name": "deposit",
					"outputs": [],
					"stateMutability": "nonpayable",
					"type": "function"
				},
				{
					"inputs": [],
					"name": "devaddr",
					"outputs": [
						{
							"internalType": "address",
							"name": "",
							"type": "address"
						}
					],
					"stateMutability": "view",
					"type": "function"
				},
				{
					"inputs": [
						{
							"internalType": "uint256",
							"name": "_pid",
							"type": "uint256"
						}
					],
					"name": "emergencyWithdraw",
					"outputs": [],
					"stateMutability": "nonpayable",
					"type": "function"
				},
				{
					"inputs": [
						{
							"internalType": "uint256",
							"name": "_pid",
							"type": "uint256"
						}
					],
					"name": "emergencyWithdrawFromBSW",
					"outputs": [],
					"stateMutability": "nonpayable",
					"type": "function"
				},
				{
					"inputs": [
						{
							"internalType": "uint256",
							"name": "_pid",
							"type": "uint256"
						}
					],
					"name": "enablePool",
					"outputs": [],
					"stateMutability": "nonpayable",
					"type": "function"
				},
				{
					"inputs": [
						{
							"internalType": "uint256",
							"name": "_from",
							"type": "uint256"
						},
						{
							"internalType": "uint256",
							"name": "_to",
							"type": "uint256"
						}
					],
					"name": "getMultiplier",
					"outputs": [
						{
							"internalType": "uint256",
							"name": "",
							"type": "uint256"
						}
					],
					"stateMutability": "view",
					"type": "function"
				},
				{
					"inputs": [],
					"name": "lpFee",
					"outputs": [
						{
							"internalType": "uint256",
							"name": "",
							"type": "uint256"
						}
					],
					"stateMutability": "view",
					"type": "function"
				},
				{
					"inputs": [],
					"name": "massUpdatePools",
					"outputs": [],
					"stateMutability": "nonpayable",
					"type": "function"
				},
				{
					"inputs": [
						{
							"internalType": "uint256",
							"name": "_pid",
							"type": "uint256"
						}
					],
					"name": "migrate",
					"outputs": [],
					"stateMutability": "nonpayable",
					"type": "function"
				},
				{
					"inputs": [],
					"name": "migrator",
					"outputs": [
						{
							"internalType": "contract IMigratorChef",
							"name": "",
							"type": "address"
						}
					],
					"stateMutability": "view",
					"type": "function"
				},
				{
					"inputs": [],
					"name": "owner",
					"outputs": [
						{
							"internalType": "address",
							"name": "",
							"type": "address"
						}
					],
					"stateMutability": "view",
					"type": "function"
				},
				{
					"inputs": [
						{
							"internalType": "uint256",
							"name": "_pid",
							"type": "uint256"
						},
						{
							"internalType": "address",
							"name": "_user",
							"type": "address"
						}
					],
					"name": "pendingDRG",
					"outputs": [
						{
							"internalType": "uint256",
							"name": "",
							"type": "uint256"
						}
					],
					"stateMutability": "view",
					"type": "function"
				},
				{
					"inputs": [
						{
							"internalType": "uint256",
							"name": "",
							"type": "uint256"
						}
					],
					"name": "poolBalance",
					"outputs": [
						{
							"internalType": "uint256",
							"name": "",
							"type": "uint256"
						}
					],
					"stateMutability": "view",
					"type": "function"
				},
				{
					"inputs": [
						{
							"internalType": "uint256",
							"name": "",
							"type": "uint256"
						}
					],
					"name": "poolInfo",
					"outputs": [
						{
							"internalType": "contract IERC20",
							"name": "lpToken",
							"type": "address"
						},
						{
							"internalType": "uint256",
							"name": "allocPoint",
							"type": "uint256"
						},
						{
							"internalType": "uint256",
							"name": "lastRewardBlock",
							"type": "uint256"
						},
						{
							"internalType": "uint256",
							"name": "accDRGPerShare",
							"type": "uint256"
						},
						{
							"internalType": "contract IMasterChef",
							"name": "poolMasterChef",
							"type": "address"
						},
						{
							"internalType": "contract IERC20",
							"name": "rewardToken",
							"type": "address"
						}
					],
					"stateMutability": "view",
					"type": "function"
				},
				{
					"inputs": [],
					"name": "poolLength",
					"outputs": [
						{
							"internalType": "uint256",
							"name": "",
							"type": "uint256"
						}
					],
					"stateMutability": "view",
					"type": "function"
				},
				{
					"inputs": [],
					"name": "renounceOwnership",
					"outputs": [],
					"stateMutability": "nonpayable",
					"type": "function"
				},
				{
					"inputs": [
						{
							"internalType": "uint256",
							"name": "_pid",
							"type": "uint256"
						},
						{
							"internalType": "uint256",
							"name": "_allocPoint",
							"type": "uint256"
						},
						{
							"internalType": "bool",
							"name": "_withUpdate",
							"type": "bool"
						}
					],
					"name": "set",
					"outputs": [],
					"stateMutability": "nonpayable",
					"type": "function"
				},
				{
					"inputs": [
						{
							"internalType": "address",
							"name": "_devaddr",
							"type": "address"
						}
					],
					"name": "setDevAddress",
					"outputs": [],
					"stateMutability": "nonpayable",
					"type": "function"
				},
				{
					"inputs": [
						{
							"internalType": "contract IMigratorChef",
							"name": "_migrator",
							"type": "address"
						}
					],
					"name": "setMigrator",
					"outputs": [],
					"stateMutability": "nonpayable",
					"type": "function"
				},
				{
					"inputs": [],
					"name": "startBlock",
					"outputs": [
						{
							"internalType": "uint256",
							"name": "",
							"type": "uint256"
						}
					],
					"stateMutability": "view",
					"type": "function"
				},
				{
					"inputs": [],
					"name": "totalAllocPoint",
					"outputs": [
						{
							"internalType": "uint256",
							"name": "",
							"type": "uint256"
						}
					],
					"stateMutability": "view",
					"type": "function"
				},
				{
					"inputs": [
						{
							"internalType": "address",
							"name": "newOwner",
							"type": "address"
						}
					],
					"name": "transferOwnership",
					"outputs": [],
					"stateMutability": "nonpayable",
					"type": "function"
				},
				{
					"inputs": [
						{
							"internalType": "uint256",
							"name": "newAmount",
							"type": "uint256"
						}
					],
					"name": "updateDRGPerBlock",
					"outputs": [],
					"stateMutability": "nonpayable",
					"type": "function"
				},
				{
					"inputs": [
						{
							"internalType": "uint256",
							"name": "_lpFee",
							"type": "uint256"
						}
					],
					"name": "updateLpFee",
					"outputs": [],
					"stateMutability": "nonpayable",
					"type": "function"
				},
				{
					"inputs": [
						{
							"internalType": "uint256",
							"name": "multiplierNumber",
							"type": "uint256"
						}
					],
					"name": "updateMultiplier",
					"outputs": [],
					"stateMutability": "nonpayable",
					"type": "function"
				},
				{
					"inputs": [
						{
							"internalType": "uint256",
							"name": "_pid",
							"type": "uint256"
						}
					],
					"name": "updatePool",
					"outputs": [],
					"stateMutability": "nonpayable",
					"type": "function"
				},
				{
					"inputs": [
						{
							"internalType": "uint256",
							"name": "",
							"type": "uint256"
						},
						{
							"internalType": "address",
							"name": "",
							"type": "address"
						}
					],
					"name": "userInfo",
					"outputs": [
						{
							"internalType": "uint256",
							"name": "amount",
							"type": "uint256"
						},
						{
							"internalType": "uint256",
							"name": "rewardDebt",
							"type": "uint256"
						}
					],
					"stateMutability": "view",
					"type": "function"
				},
				{
					"inputs": [
						{
							"internalType": "uint256",
							"name": "_pid",
							"type": "uint256"
						},
						{
							"internalType": "uint256",
							"name": "_BSWPid",
							"type": "uint256"
						},
						{
							"internalType": "uint256",
							"name": "_amount",
							"type": "uint256"
						}
					],
					"name": "withdraw",
					"outputs": [],
					"stateMutability": "nonpayable",
					"type": "function"
				}
			],
			"devdoc": {
				"kind": "dev",
				"methods": {
					"owner()": {
						"details": "Returns the address of the current owner."
					},
					"renounceOwnership()": {
						"details": "Leaves the contract without owner. It will not be possible to call `onlyOwner` functions anymore. Can only be called by the current owner. NOTE: Renouncing ownership will leave the contract without an owner, thereby removing any functionality that is only available to the owner."
					},
					"transferOwnership(address)": {
						"details": "Transfers ownership of the contract to a new account (`newOwner`). Can only be called by the current owner."
					}
				},
				"version": 1
			},
			"evm": {
				"assembly": "    /* \"contracts/MetaMasterChef.sol\":22755:34646  contract MetaMasterChef is Ownable {\r... */\n  mstore(0x40, 0x80)\n    /* \"contracts/MetaMasterChef.sol\":24444:24445  1 */\n  0x01\n    /* \"contracts/MetaMasterChef.sol\":24410:24445  uint256 public BONUS_MULTIPLIER = 1 */\n  0x05\n  sstore\n    /* \"contracts/MetaMasterChef.sol\":24887:24888  0 */\n  0x00\n    /* \"contracts/MetaMasterChef.sol\":24854:24888  uint256 public totalAllocPoint = 0 */\n  0x09\n  sstore\n    /* \"contracts/MetaMasterChef.sol\":25087:25137  99999999999999999999999999999999999999999999999999 */\n  0x446c3b15f9926687d2c40534fdb563ffffffffffff\n    /* \"contracts/MetaMasterChef.sol\":25063:25137  uint256 approveAmount = 99999999999999999999999999999999999999999999999999 */\n  0x0d\n  sstore\n    /* \"contracts/MetaMasterChef.sol\":25430:25820  constructor(\r... */\n  callvalue\n  dup1\n  iszero\n  tag_1\n  jumpi\n  0x00\n  dup1\n  revert\ntag_1:\n  pop\n  mload(0x40)\n  sub(codesize, bytecodeSize)\n  dup1\n  bytecodeSize\n  dup4\n  codecopy\n  dup2\n  dup2\n  add\n  0x40\n  mstore\n  dup2\n  add\n  swap1\n  tag_2\n  swap2\n  swap1\n  tag_3\n  jump\t// in\ntag_2:\n    /* \"contracts/MetaMasterChef.sol\":19984:20016  _transferOwnership(_msgSender()) */\n  tag_7\n    /* \"contracts/MetaMasterChef.sol\":20003:20015  _msgSender() */\n  tag_8\n    /* \"contracts/MetaMasterChef.sol\":20003:20013  _msgSender */\n  shl(0x20, tag_9)\n    /* \"contracts/MetaMasterChef.sol\":20003:20015  _msgSender() */\n  0x20\n  shr\n  jump\t// in\ntag_8:\n    /* \"contracts/MetaMasterChef.sol\":19984:20002  _transferOwnership */\n  shl(0x20, tag_10)\n    /* \"contracts/MetaMasterChef.sol\":19984:20016  _transferOwnership(_msgSender()) */\n  0x20\n  shr\n  jump\t// in\ntag_7:\n    /* \"contracts/MetaMasterChef.sol\":25641:25645  _DRG */\n  dup6\n    /* \"contracts/MetaMasterChef.sol\":25635:25638  DRG */\n  0x02\n  0x00\n    /* \"contracts/MetaMasterChef.sol\":25635:25645  DRG = _DRG */\n  0x0100\n  exp\n  dup2\n  sload\n  dup2\n  0xffffffffffffffffffffffffffffffffffffffff\n  mul\n  not\n  and\n  swap1\n  dup4\n  0xffffffffffffffffffffffffffffffffffffffff\n  and\n  mul\n  or\n  swap1\n  sstore\n  pop\n    /* \"contracts/MetaMasterChef.sol\":25666:25674  _devaddr */\n  dup5\n    /* \"contracts/MetaMasterChef.sol\":25656:25663  devaddr */\n  0x03\n  0x00\n    /* \"contracts/MetaMasterChef.sol\":25656:25674  devaddr = _devaddr */\n  0x0100\n  exp\n  dup2\n  sload\n  dup2\n  0xffffffffffffffffffffffffffffffffffffffff\n  mul\n  not\n  and\n  swap1\n  dup4\n  0xffffffffffffffffffffffffffffffffffffffff\n  and\n  mul\n  or\n  swap1\n  sstore\n  pop\n    /* \"contracts/MetaMasterChef.sol\":25699:25711  _DRGPerBlock */\n  dup4\n    /* \"contracts/MetaMasterChef.sol\":25685:25696  DRGPerBlock */\n  0x04\n    /* \"contracts/MetaMasterChef.sol\":25685:25711  DRGPerBlock = _DRGPerBlock */\n  dup2\n  swap1\n  sstore\n  pop\n    /* \"contracts/MetaMasterChef.sol\":25735:25746  _startBlock */\n  dup3\n    /* \"contracts/MetaMasterChef.sol\":25722:25732  startBlock */\n  0x0a\n    /* \"contracts/MetaMasterChef.sol\":25722:25746  startBlock = _startBlock */\n  dup2\n  swap1\n  sstore\n  pop\n    /* \"contracts/MetaMasterChef.sol\":25773:25787  _NFTMasterChef */\n  dup2\n    /* \"contracts/MetaMasterChef.sol\":25757:25770  NFTMasterChef */\n  0x01\n  0x00\n    /* \"contracts/MetaMasterChef.sol\":25757:25787  NFTMasterChef = _NFTMasterChef */\n  0x0100\n  exp\n  dup2\n  sload\n  dup2\n  0xffffffffffffffffffffffffffffffffffffffff\n  mul\n  not\n  and\n  swap1\n  dup4\n  0xffffffffffffffffffffffffffffffffffffffff\n  and\n  mul\n  or\n  swap1\n  sstore\n  pop\n    /* \"contracts/MetaMasterChef.sol\":25806:25812  _lpFee */\n  dup1\n    /* \"contracts/MetaMasterChef.sol\":25798:25803  lpFee */\n  0x0c\n    /* \"contracts/MetaMasterChef.sol\":25798:25812  lpFee = _lpFee */\n  dup2\n  swap1\n  sstore\n  pop\n    /* \"contracts/MetaMasterChef.sol\":25430:25820  constructor(\r... */\n  pop\n  pop\n  pop\n  pop\n  pop\n  pop\n    /* \"contracts/MetaMasterChef.sol\":22755:34646  contract MetaMasterChef is Ownable {\r... */\n  jump(tag_12)\n    /* \"contracts/MetaMasterChef.sol\":19479:19577  function _msgSender() internal view virtual returns (address) {\r... */\ntag_9:\n    /* \"contracts/MetaMasterChef.sol\":19532:19539  address */\n  0x00\n    /* \"contracts/MetaMasterChef.sol\":19559:19569  msg.sender */\n  caller\n    /* \"contracts/MetaMasterChef.sol\":19552:19569  return msg.sender */\n  swap1\n  pop\n    /* \"contracts/MetaMasterChef.sol\":19479:19577  function _msgSender() internal view virtual returns (address) {\r... */\n  swap1\n  jump\t// out\n    /* \"contracts/MetaMasterChef.sol\":21375:21566  function _transferOwnership(address newOwner) internal virtual {\r... */\ntag_10:\n    /* \"contracts/MetaMasterChef.sol\":21449:21465  address oldOwner */\n  0x00\n    /* \"contracts/MetaMasterChef.sol\":21468:21474  _owner */\n  dup1\n  0x00\n  swap1\n  sload\n  swap1\n  0x0100\n  exp\n  swap1\n  div\n  0xffffffffffffffffffffffffffffffffffffffff\n  and\n    /* \"contracts/MetaMasterChef.sol\":21449:21474  address oldOwner = _owner */\n  swap1\n  pop\n    /* \"contracts/MetaMasterChef.sol\":21494:21502  newOwner */\n  dup2\n    /* \"contracts/MetaMasterChef.sol\":21485:21491  _owner */\n  0x00\n  dup1\n    /* \"contracts/MetaMasterChef.sol\":21485:21502  _owner = newOwner */\n  0x0100\n  exp\n  dup2\n  sload\n  dup2\n  0xffffffffffffffffffffffffffffffffffffffff\n  mul\n  not\n  and\n  swap1\n  dup4\n  0xffffffffffffffffffffffffffffffffffffffff\n  and\n  mul\n  or\n  swap1\n  sstore\n  pop\n    /* \"contracts/MetaMasterChef.sol\":21549:21557  newOwner */\n  dup2\n    /* \"contracts/MetaMasterChef.sol\":21518:21558  OwnershipTransferred(oldOwner, newOwner) */\n  0xffffffffffffffffffffffffffffffffffffffff\n  and\n    /* \"contracts/MetaMasterChef.sol\":21539:21547  oldOwner */\n  dup2\n    /* \"contracts/MetaMasterChef.sol\":21518:21558  OwnershipTransferred(oldOwner, newOwner) */\n  0xffffffffffffffffffffffffffffffffffffffff\n  and\n  0x8be0079c531659141344cd1fd0a4f28419497f9722a3daafe3b4186f6b6457e0\n  mload(0x40)\n  mload(0x40)\n  dup1\n  swap2\n  sub\n  swap1\n  log3\n    /* \"contracts/MetaMasterChef.sol\":21438:21566  {\r... */\n  pop\n    /* \"contracts/MetaMasterChef.sol\":21375:21566  function _transferOwnership(address newOwner) internal virtual {\r... */\n  pop\n  jump\t// out\n    /* \"#utility.yul\":7:150   */\ntag_16:\n    /* \"#utility.yul\":64:69   */\n  0x00\n    /* \"#utility.yul\":95:101   */\n  dup2\n    /* \"#utility.yul\":89:102   */\n  mload\n    /* \"#utility.yul\":80:102   */\n  swap1\n  pop\n    /* \"#utility.yul\":111:144   */\n  tag_18\n    /* \"#utility.yul\":138:143   */\n  dup2\n    /* \"#utility.yul\":111:144   */\n  tag_19\n  jump\t// in\ntag_18:\n    /* \"#utility.yul\":7:150   */\n  swap3\n  swap2\n  pop\n  pop\n  jump\t// out\n    /* \"#utility.yul\":156:327   */\ntag_20:\n    /* \"#utility.yul\":227:232   */\n  0x00\n    /* \"#utility.yul\":258:264   */\n  dup2\n    /* \"#utility.yul\":252:265   */\n  mload\n    /* \"#utility.yul\":243:265   */\n  swap1\n  pop\n    /* \"#utility.yul\":274:321   */\n  tag_22\n    /* \"#utility.yul\":315:320   */\n  dup2\n    /* \"#utility.yul\":274:321   */\n  tag_23\n  jump\t// in\ntag_22:\n    /* \"#utility.yul\":156:327   */\n  swap3\n  swap2\n  pop\n  pop\n  jump\t// out\n    /* \"#utility.yul\":333:520   */\ntag_24:\n    /* \"#utility.yul\":412:417   */\n  0x00\n    /* \"#utility.yul\":443:449   */\n  dup2\n    /* \"#utility.yul\":437:450   */\n  mload\n    /* \"#utility.yul\":428:450   */\n  swap1\n  pop\n    /* \"#utility.yul\":459:514   */\n  tag_26\n    /* \"#utility.yul\":508:513   */\n  dup2\n    /* \"#utility.yul\":459:514   */\n  tag_27\n  jump\t// in\ntag_26:\n    /* \"#utility.yul\":333:520   */\n  swap3\n  swap2\n  pop\n  pop\n  jump\t// out\n    /* \"#utility.yul\":526:669   */\ntag_28:\n    /* \"#utility.yul\":583:588   */\n  0x00\n    /* \"#utility.yul\":614:620   */\n  dup2\n    /* \"#utility.yul\":608:621   */\n  mload\n    /* \"#utility.yul\":599:621   */\n  swap1\n  pop\n    /* \"#utility.yul\":630:663   */\n  tag_30\n    /* \"#utility.yul\":657:662   */\n  dup2\n    /* \"#utility.yul\":630:663   */\n  tag_31\n  jump\t// in\ntag_30:\n    /* \"#utility.yul\":526:669   */\n  swap3\n  swap2\n  pop\n  pop\n  jump\t// out\n    /* \"#utility.yul\":675:1881   */\ntag_3:\n    /* \"#utility.yul\":826:832   */\n  0x00\n    /* \"#utility.yul\":834:840   */\n  dup1\n    /* \"#utility.yul\":842:848   */\n  0x00\n    /* \"#utility.yul\":850:856   */\n  dup1\n    /* \"#utility.yul\":858:864   */\n  0x00\n    /* \"#utility.yul\":866:872   */\n  dup1\n    /* \"#utility.yul\":915:918   */\n  0xc0\n    /* \"#utility.yul\":903:912   */\n  dup8\n    /* \"#utility.yul\":894:901   */\n  dup10\n    /* \"#utility.yul\":890:913   */\n  sub\n    /* \"#utility.yul\":886:919   */\n  slt\n    /* \"#utility.yul\":883:1003   */\n  iszero\n  tag_33\n  jumpi\n    /* \"#utility.yul\":922:1001   */\n  tag_34\n  tag_35\n  jump\t// in\ntag_34:\n    /* \"#utility.yul\":883:1003   */\ntag_33:\n    /* \"#utility.yul\":1042:1043   */\n  0x00\n    /* \"#utility.yul\":1067:1145   */\n  tag_36\n    /* \"#utility.yul\":1137:1144   */\n  dup10\n    /* \"#utility.yul\":1128:1134   */\n  dup3\n    /* \"#utility.yul\":1117:1126   */\n  dup11\n    /* \"#utility.yul\":1113:1135   */\n  add\n    /* \"#utility.yul\":1067:1145   */\n  tag_20\n  jump\t// in\ntag_36:\n    /* \"#utility.yul\":1057:1145   */\n  swap7\n  pop\n    /* \"#utility.yul\":1013:1155   */\n  pop\n    /* \"#utility.yul\":1194:1196   */\n  0x20\n    /* \"#utility.yul\":1220:1284   */\n  tag_37\n    /* \"#utility.yul\":1276:1283   */\n  dup10\n    /* \"#utility.yul\":1267:1273   */\n  dup3\n    /* \"#utility.yul\":1256:1265   */\n  dup11\n    /* \"#utility.yul\":1252:1274   */\n  add\n    /* \"#utility.yul\":1220:1284   */\n  tag_16\n  jump\t// in\ntag_37:\n    /* \"#utility.yul\":1210:1284   */\n  swap6\n  pop\n    /* \"#utility.yul\":1165:1294   */\n  pop\n    /* \"#utility.yul\":1333:1335   */\n  0x40\n    /* \"#utility.yul\":1359:1423   */\n  tag_38\n    /* \"#utility.yul\":1415:1422   */\n  dup10\n    /* \"#utility.yul\":1406:1412   */\n  dup3\n    /* \"#utility.yul\":1395:1404   */\n  dup11\n    /* \"#utility.yul\":1391:1413   */\n  add\n    /* \"#utility.yul\":1359:1423   */\n  tag_28\n  jump\t// in\ntag_38:\n    /* \"#utility.yul\":1349:1423   */\n  swap5\n  pop\n    /* \"#utility.yul\":1304:1433   */\n  pop\n    /* \"#utility.yul\":1472:1474   */\n  0x60\n    /* \"#utility.yul\":1498:1562   */\n  tag_39\n    /* \"#utility.yul\":1554:1561   */\n  dup10\n    /* \"#utility.yul\":1545:1551   */\n  dup3\n    /* \"#utility.yul\":1534:1543   */\n  dup11\n    /* \"#utility.yul\":1530:1552   */\n  add\n    /* \"#utility.yul\":1498:1562   */\n  tag_28\n  jump\t// in\ntag_39:\n    /* \"#utility.yul\":1488:1562   */\n  swap4\n  pop\n    /* \"#utility.yul\":1443:1572   */\n  pop\n    /* \"#utility.yul\":1611:1614   */\n  0x80\n    /* \"#utility.yul\":1638:1724   */\n  tag_40\n    /* \"#utility.yul\":1716:1723   */\n  dup10\n    /* \"#utility.yul\":1707:1713   */\n  dup3\n    /* \"#utility.yul\":1696:1705   */\n  dup11\n    /* \"#utility.yul\":1692:1714   */\n  add\n    /* \"#utility.yul\":1638:1724   */\n  tag_24\n  jump\t// in\ntag_40:\n    /* \"#utility.yul\":1628:1724   */\n  swap3\n  pop\n    /* \"#utility.yul\":1582:1734   */\n  pop\n    /* \"#utility.yul\":1773:1776   */\n  0xa0\n    /* \"#utility.yul\":1800:1864   */\n  tag_41\n    /* \"#utility.yul\":1856:1863   */\n  dup10\n    /* \"#utility.yul\":1847:1853   */\n  dup3\n    /* \"#utility.yul\":1836:1845   */\n  dup11\n    /* \"#utility.yul\":1832:1854   */\n  add\n    /* \"#utility.yul\":1800:1864   */\n  tag_28\n  jump\t// in\ntag_41:\n    /* \"#utility.yul\":1790:1864   */\n  swap2\n  pop\n    /* \"#utility.yul\":1744:1874   */\n  pop\n    /* \"#utility.yul\":675:1881   */\n  swap3\n  swap6\n  pop\n  swap3\n  swap6\n  pop\n  swap3\n  swap6\n  jump\t// out\n    /* \"#utility.yul\":1968:2064   */\ntag_44:\n    /* \"#utility.yul\":2005:2012   */\n  0x00\n    /* \"#utility.yul\":2034:2058   */\n  tag_46\n    /* \"#utility.yul\":2052:2057   */\n  dup3\n    /* \"#utility.yul\":2034:2058   */\n  tag_47\n  jump\t// in\ntag_46:\n    /* \"#utility.yul\":2023:2058   */\n  swap1\n  pop\n    /* \"#utility.yul\":1968:2064   */\n  swap2\n  swap1\n  pop\n  jump\t// out\n    /* \"#utility.yul\":2070:2180   */\ntag_48:\n    /* \"#utility.yul\":2121:2128   */\n  0x00\n    /* \"#utility.yul\":2150:2174   */\n  tag_50\n    /* \"#utility.yul\":2168:2173   */\n  dup3\n    /* \"#utility.yul\":2150:2174   */\n  tag_44\n  jump\t// in\ntag_50:\n    /* \"#utility.yul\":2139:2174   */\n  swap1\n  pop\n    /* \"#utility.yul\":2070:2180   */\n  swap2\n  swap1\n  pop\n  jump\t// out\n    /* \"#utility.yul\":2186:2304   */\ntag_51:\n    /* \"#utility.yul\":2245:2252   */\n  0x00\n    /* \"#utility.yul\":2274:2298   */\n  tag_53\n    /* \"#utility.yul\":2292:2297   */\n  dup3\n    /* \"#utility.yul\":2274:2298   */\n  tag_44\n  jump\t// in\ntag_53:\n    /* \"#utility.yul\":2263:2298   */\n  swap1\n  pop\n    /* \"#utility.yul\":2186:2304   */\n  swap2\n  swap1\n  pop\n  jump\t// out\n    /* \"#utility.yul\":2310:2436   */\ntag_47:\n    /* \"#utility.yul\":2347:2354   */\n  0x00\n    /* \"#utility.yul\":2387:2429   */\n  0xffffffffffffffffffffffffffffffffffffffff\n    /* \"#utility.yul\":2380:2385   */\n  dup3\n    /* \"#utility.yul\":2376:2430   */\n  and\n    /* \"#utility.yul\":2365:2430   */\n  swap1\n  pop\n    /* \"#utility.yul\":2310:2436   */\n  swap2\n  swap1\n  pop\n  jump\t// out\n    /* \"#utility.yul\":2442:2519   */\ntag_55:\n    /* \"#utility.yul\":2479:2486   */\n  0x00\n    /* \"#utility.yul\":2508:2513   */\n  dup2\n    /* \"#utility.yul\":2497:2513   */\n  swap1\n  pop\n    /* \"#utility.yul\":2442:2519   */\n  swap2\n  swap1\n  pop\n  jump\t// out\n    /* \"#utility.yul\":2648:2765   */\ntag_35:\n    /* \"#utility.yul\":2757:2758   */\n  0x00\n    /* \"#utility.yul\":2754:2755   */\n  dup1\n    /* \"#utility.yul\":2747:2759   */\n  revert\n    /* \"#utility.yul\":2771:2893   */\ntag_19:\n    /* \"#utility.yul\":2844:2868   */\n  tag_61\n    /* \"#utility.yul\":2862:2867   */\n  dup2\n    /* \"#utility.yul\":2844:2868   */\n  tag_44\n  jump\t// in\ntag_61:\n    /* \"#utility.yul\":2837:2842   */\n  dup2\n    /* \"#utility.yul\":2834:2869   */\n  eq\n    /* \"#utility.yul\":2824:2887   */\n  tag_62\n  jumpi\n    /* \"#utility.yul\":2883:2884   */\n  0x00\n    /* \"#utility.yul\":2880:2881   */\n  dup1\n    /* \"#utility.yul\":2873:2885   */\n  revert\n    /* \"#utility.yul\":2824:2887   */\ntag_62:\n    /* \"#utility.yul\":2771:2893   */\n  pop\n  jump\t// out\n    /* \"#utility.yul\":2899:3049   */\ntag_23:\n    /* \"#utility.yul\":2986:3024   */\n  tag_64\n    /* \"#utility.yul\":3018:3023   */\n  dup2\n    /* \"#utility.yul\":2986:3024   */\n  tag_48\n  jump\t// in\ntag_64:\n    /* \"#utility.yul\":2979:2984   */\n  dup2\n    /* \"#utility.yul\":2976:3025   */\n  eq\n    /* \"#utility.yul\":2966:3043   */\n  tag_65\n  jumpi\n    /* \"#utility.yul\":3039:3040   */\n  0x00\n    /* \"#utility.yul\":3036:3037   */\n  dup1\n    /* \"#utility.yul\":3029:3041   */\n  revert\n    /* \"#utility.yul\":2966:3043   */\ntag_65:\n    /* \"#utility.yul\":2899:3049   */\n  pop\n  jump\t// out\n    /* \"#utility.yul\":3055:3221   */\ntag_27:\n    /* \"#utility.yul\":3150:3196   */\n  tag_67\n    /* \"#utility.yul\":3190:3195   */\n  dup2\n    /* \"#utility.yul\":3150:3196   */\n  tag_51\n  jump\t// in\ntag_67:\n    /* \"#utility.yul\":3143:3148   */\n  dup2\n    /* \"#utility.yul\":3140:3197   */\n  eq\n    /* \"#utility.yul\":3130:3215   */\n  tag_68\n  jumpi\n    /* \"#utility.yul\":3211:3212   */\n  0x00\n    /* \"#utility.yul\":3208:3209   */\n  dup1\n    /* \"#utility.yul\":3201:3213   */\n  revert\n    /* \"#utility.yul\":3130:3215   */\ntag_68:\n    /* \"#utility.yul\":3055:3221   */\n  pop\n  jump\t// out\n    /* \"#utility.yul\":3227:3349   */\ntag_31:\n    /* \"#utility.yul\":3300:3324   */\n  tag_70\n    /* \"#utility.yul\":3318:3323   */\n  dup2\n    /* \"#utility.yul\":3300:3324   */\n  tag_55\n  jump\t// in\ntag_70:\n    /* \"#utility.yul\":3293:3298   */\n  dup2\n    /* \"#utility.yul\":3290:3325   */\n  eq\n    /* \"#utility.yul\":3280:3343   */\n  tag_71\n  jumpi\n    /* \"#utility.yul\":3339:3340   */\n  0x00\n    /* \"#utility.yul\":3336:3337   */\n  dup1\n    /* \"#utility.yul\":3329:3341   */\n  revert\n    /* \"#utility.yul\":3280:3343   */\ntag_71:\n    /* \"#utility.yul\":3227:3349   */\n  pop\n  jump\t// out\n    /* \"contracts/MetaMasterChef.sol\":22755:34646  contract MetaMasterChef is Ownable {\r... */\ntag_12:\n  dataSize(sub_0)\n  dup1\n  dataOffset(sub_0)\n  0x00\n  codecopy\n  0x00\n  return\nstop\n\nsub_0: assembly {\n        /* \"contracts/MetaMasterChef.sol\":22755:34646  contract MetaMasterChef is Ownable {\r... */\n      mstore(0x40, 0x80)\n      callvalue\n      dup1\n      iszero\n      tag_1\n      jumpi\n      0x00\n      dup1\n      revert\n    tag_1:\n      pop\n      jumpi(tag_2, lt(calldatasize, 0x04))\n      shr(0xe0, calldataload(0x00))\n      dup1\n      0x68382a21\n      gt\n      tag_36\n      jumpi\n      dup1\n      0x93f1a40b\n      gt\n      tag_37\n      jumpi\n      dup1\n      0xd49e77cd\n      gt\n      tag_38\n      jumpi\n      dup1\n      0xd49e77cd\n      eq\n      tag_31\n      jumpi\n      dup1\n      0xe4d09896\n      eq\n      tag_32\n      jumpi\n      dup1\n      0xeeac3ae8\n      eq\n      tag_33\n      jumpi\n      dup1\n      0xf2fde38b\n      eq\n      tag_34\n      jumpi\n      dup1\n      0xfde2ec98\n      eq\n      tag_35\n      jumpi\n      jump(tag_2)\n    tag_38:\n      dup1\n      0x93f1a40b\n      eq\n      tag_27\n      jumpi\n      dup1\n      0xa1eef821\n      eq\n      tag_28\n      jumpi\n      dup1\n      0xa41fe49f\n      eq\n      tag_29\n      jumpi\n      dup1\n      0xd0d41fe1\n      eq\n      tag_30\n      jumpi\n      jump(tag_2)\n    tag_37:\n      dup1\n      0x7cd07e47\n      gt\n      tag_39\n      jumpi\n      dup1\n      0x7cd07e47\n      eq\n      tag_23\n      jumpi\n      dup1\n      0x8aa28550\n      eq\n      tag_24\n      jumpi\n      dup1\n      0x8da5cb5b\n      eq\n      tag_25\n      jumpi\n      dup1\n      0x8dbb1e3a\n      eq\n      tag_26\n      jumpi\n      jump(tag_2)\n    tag_39:\n      dup1\n      0x68382a21\n      eq\n      tag_19\n      jumpi\n      dup1\n      0x6a6d964e\n      eq\n      tag_20\n      jumpi\n      dup1\n      0x704ce43e\n      eq\n      tag_21\n      jumpi\n      dup1\n      0x715018a6\n      eq\n      tag_22\n      jumpi\n      jump(tag_2)\n    tag_36:\n      dup1\n      0x48cd4cb1\n      gt\n      tag_40\n      jumpi\n      dup1\n      0x5ffe6146\n      gt\n      tag_41\n      jumpi\n      dup1\n      0x5ffe6146\n      eq\n      tag_15\n      jumpi\n      dup1\n      0x612888f6\n      eq\n      tag_16\n      jumpi\n      dup1\n      0x630b5ba1\n      eq\n      tag_17\n      jumpi\n      dup1\n      0x64482f79\n      eq\n      tag_18\n      jumpi\n      jump(tag_2)\n    tag_41:\n      dup1\n      0x48cd4cb1\n      eq\n      tag_11\n      jumpi\n      dup1\n      0x4f17dbaf\n      eq\n      tag_12\n      jumpi\n      dup1\n      0x51eb05a6\n      eq\n      tag_13\n      jumpi\n      dup1\n      0x5312ea8e\n      eq\n      tag_14\n      jumpi\n      jump(tag_2)\n    tag_40:\n      dup1\n      0x1526fe27\n      gt\n      tag_42\n      jumpi\n      dup1\n      0x1526fe27\n      eq\n      tag_7\n      jumpi\n      dup1\n      0x17caf6f1\n      eq\n      tag_8\n      jumpi\n      dup1\n      0x23cf3118\n      eq\n      tag_9\n      jumpi\n      dup1\n      0x454b0608\n      eq\n      tag_10\n      jumpi\n      jump(tag_2)\n    tag_42:\n      dup1\n      0xaeef8a\n      eq\n      tag_3\n      jumpi\n      dup1\n      0x081e3eda\n      eq\n      tag_4\n      jumpi\n      dup1\n      0x0fe7ea17\n      eq\n      tag_5\n      jumpi\n      dup1\n      0x141aa0ba\n      eq\n      tag_6\n      jumpi\n    tag_2:\n      0x00\n      dup1\n      revert\n        /* \"contracts/MetaMasterChef.sol\":30772:32242  function deposit(uint256 _pid,uint256 _BSWPid, uint256 _amount) public {\r... */\n    tag_3:\n      tag_43\n      0x04\n      dup1\n      calldatasize\n      sub\n      dup2\n      add\n      swap1\n      tag_44\n      swap2\n      swap1\n      tag_45\n      jump\t// in\n    tag_44:\n      tag_46\n      jump\t// in\n    tag_43:\n      stop\n        /* \"contracts/MetaMasterChef.sol\":25959:26054  function poolLength() external view returns (uint256) {\r... */\n    tag_4:\n      tag_47\n      tag_48\n      jump\t// in\n    tag_47:\n      mload(0x40)\n      tag_49\n      swap2\n      swap1\n      tag_50\n      jump\t// in\n    tag_49:\n      mload(0x40)\n      dup1\n      swap2\n      sub\n      swap1\n      return\n        /* \"contracts/MetaMasterChef.sol\":34538:34643  function updateDRGPerBlock(uint256 newAmount) public onlyOwner {\r... */\n    tag_5:\n      tag_51\n      0x04\n      dup1\n      calldatasize\n      sub\n      dup2\n      add\n      swap1\n      tag_52\n      swap2\n      swap1\n      tag_53\n      jump\t// in\n    tag_52:\n      tag_54\n      jump\t// in\n    tag_51:\n      stop\n        /* \"contracts/MetaMasterChef.sol\":24219:24236  IERC20 public DRG */\n    tag_6:\n      tag_55\n      tag_56\n      jump\t// in\n    tag_55:\n      mload(0x40)\n      tag_57\n      swap2\n      swap1\n      tag_58\n      jump\t// in\n    tag_57:\n      mload(0x40)\n      dup1\n      swap2\n      sub\n      swap1\n      return\n        /* \"contracts/MetaMasterChef.sol\":24613:24639  PoolInfo[] public poolInfo */\n    tag_7:\n      tag_59\n      0x04\n      dup1\n      calldatasize\n      sub\n      dup2\n      add\n      swap1\n      tag_60\n      swap2\n      swap1\n      tag_53\n      jump\t// in\n    tag_60:\n      tag_61\n      jump\t// in\n    tag_59:\n      mload(0x40)\n      tag_62\n      swap7\n      swap6\n      swap5\n      swap4\n      swap3\n      swap2\n      swap1\n      tag_63\n      jump\t// in\n    tag_62:\n      mload(0x40)\n      dup1\n      swap2\n      sub\n      swap1\n      return\n        /* \"contracts/MetaMasterChef.sol\":24854:24888  uint256 public totalAllocPoint = 0 */\n    tag_8:\n      tag_64\n      tag_65\n      jump\t// in\n    tag_64:\n      mload(0x40)\n      tag_66\n      swap2\n      swap1\n      tag_50\n      jump\t// in\n    tag_66:\n      mload(0x40)\n      dup1\n      swap2\n      sub\n      swap1\n      return\n        /* \"contracts/MetaMasterChef.sol\":27495:27597  function setMigrator(IMigratorChef _migrator) public onlyOwner {\r... */\n    tag_9:\n      tag_67\n      0x04\n      dup1\n      calldatasize\n      sub\n      dup2\n      add\n      swap1\n      tag_68\n      swap2\n      swap1\n      tag_69\n      jump\t// in\n    tag_68:\n      tag_70\n      jump\t// in\n    tag_67:\n      stop\n        /* \"contracts/MetaMasterChef.sol\":27720:28196  function migrate(uint256 _pid) public {\r... */\n    tag_10:\n      tag_71\n      0x04\n      dup1\n      calldatasize\n      sub\n      dup2\n      add\n      swap1\n      tag_72\n      swap2\n      swap1\n      tag_53\n      jump\t// in\n    tag_72:\n      tag_73\n      jump\t// in\n    tag_71:\n      stop\n        /* \"contracts/MetaMasterChef.sol\":24944:24969  uint256 public startBlock */\n    tag_11:\n      tag_74\n      tag_75\n      jump\t// in\n    tag_74:\n      mload(0x40)\n      tag_76\n      swap2\n      swap1\n      tag_50\n      jump\t// in\n    tag_76:\n      mload(0x40)\n      dup1\n      swap2\n      sub\n      swap1\n      return\n        /* \"contracts/MetaMasterChef.sol\":28479:29208  function pendingDRG(uint256 _pid, address _user) external view returns (uint256){\r... */\n    tag_12:\n      tag_77\n      0x04\n      dup1\n      calldatasize\n      sub\n      dup2\n      add\n      swap1\n      tag_78\n      swap2\n      swap1\n      tag_79\n      jump\t// in\n    tag_78:\n      tag_80\n      jump\t// in\n    tag_77:\n      mload(0x40)\n      tag_81\n      swap2\n      swap1\n      tag_50\n      jump\t// in\n    tag_81:\n      mload(0x40)\n      dup1\n      swap2\n      sub\n      swap1\n      return\n        /* \"contracts/MetaMasterChef.sol\":29547:30252  function updatePool(uint256 _pid) public {\r... */\n    tag_13:\n      tag_82\n      0x04\n      dup1\n      calldatasize\n      sub\n      dup2\n      add\n      swap1\n      tag_83\n      swap2\n      swap1\n      tag_53\n      jump\t// in\n    tag_83:\n      tag_84\n      jump\t// in\n    tag_82:\n      stop\n        /* \"contracts/MetaMasterChef.sol\":33684:34040  function emergencyWithdraw(uint256 _pid) public {\r... */\n    tag_14:\n      tag_85\n      0x04\n      dup1\n      calldatasize\n      sub\n      dup2\n      add\n      swap1\n      tag_86\n      swap2\n      swap1\n      tag_53\n      jump\t// in\n    tag_86:\n      tag_87\n      jump\t// in\n    tag_85:\n      stop\n        /* \"contracts/MetaMasterChef.sol\":25828:25951  function updateMultiplier(uint256 multiplierNumber) public onlyOwner {\r... */\n    tag_15:\n      tag_88\n      0x04\n      dup1\n      calldatasize\n      sub\n      dup2\n      add\n      swap1\n      tag_89\n      swap2\n      swap1\n      tag_53\n      jump\t// in\n    tag_89:\n      tag_90\n      jump\t// in\n    tag_88:\n      stop\n        /* \"contracts/MetaMasterChef.sol\":26062:26149  function updateLpFee(uint256 _lpFee) public onlyOwner {\r... */\n    tag_16:\n      tag_91\n      0x04\n      dup1\n      calldatasize\n      sub\n      dup2\n      add\n      swap1\n      tag_92\n      swap2\n      swap1\n      tag_53\n      jump\t// in\n    tag_92:\n      tag_93\n      jump\t// in\n    tag_91:\n      stop\n        /* \"contracts/MetaMasterChef.sol\":29291:29471  function massUpdatePools() public {\r... */\n    tag_17:\n      tag_94\n      tag_95\n      jump\t// in\n    tag_94:\n      stop\n        /* \"contracts/MetaMasterChef.sol\":27114:27419  function set( uint256 _pid, uint256 _allocPoint, bool _withUpdate) public onlyOwner {\r... */\n    tag_18:\n      tag_96\n      0x04\n      dup1\n      calldatasize\n      sub\n      dup2\n      add\n      swap1\n      tag_97\n      swap2\n      swap1\n      tag_98\n      jump\t// in\n    tag_97:\n      tag_99\n      jump\t// in\n    tag_96:\n      stop\n        /* \"contracts/MetaMasterChef.sol\":33437:33613  function emergencyWithdrawFromBSW(uint256 _pid) public onlyOwner {\r... */\n    tag_19:\n      tag_100\n      0x04\n      dup1\n      calldatasize\n      sub\n      dup2\n      add\n      swap1\n      tag_101\n      swap2\n      swap1\n      tag_53\n      jump\t// in\n    tag_101:\n      tag_102\n      jump\t// in\n    tag_100:\n      stop\n        /* \"contracts/MetaMasterChef.sol\":24978:25025  mapping (uint256 => uint256) public poolBalance */\n    tag_20:\n      tag_103\n      0x04\n      dup1\n      calldatasize\n      sub\n      dup2\n      add\n      swap1\n      tag_104\n      swap2\n      swap1\n      tag_53\n      jump\t// in\n    tag_104:\n      tag_105\n      jump\t// in\n    tag_103:\n      mload(0x40)\n      tag_106\n      swap2\n      swap1\n      tag_50\n      jump\t// in\n    tag_106:\n      mload(0x40)\n      dup1\n      swap2\n      sub\n      swap1\n      return\n        /* \"contracts/MetaMasterChef.sol\":25034:25054  uint256 public lpFee */\n    tag_21:\n      tag_107\n      tag_108\n      jump\t// in\n    tag_107:\n      mload(0x40)\n      tag_109\n      swap2\n      swap1\n      tag_50\n      jump\t// in\n    tag_109:\n      mload(0x40)\n      dup1\n      swap2\n      sub\n      swap1\n      return\n        /* \"contracts/MetaMasterChef.sol\":20756:20859  function renounceOwnership() public virtual onlyOwner {\r... */\n    tag_22:\n      tag_110\n      tag_111\n      jump\t// in\n    tag_110:\n      stop\n        /* \"contracts/MetaMasterChef.sol\":24550:24579  IMigratorChef public migrator */\n    tag_23:\n      tag_112\n      tag_113\n      jump\t// in\n    tag_112:\n      mload(0x40)\n      tag_114\n      swap2\n      swap1\n      tag_115\n      jump\t// in\n    tag_114:\n      mload(0x40)\n      dup1\n      swap2\n      sub\n      swap1\n      return\n        /* \"contracts/MetaMasterChef.sol\":24410:24445  uint256 public BONUS_MULTIPLIER = 1 */\n    tag_24:\n      tag_116\n      tag_117\n      jump\t// in\n    tag_116:\n      mload(0x40)\n      tag_118\n      swap2\n      swap1\n      tag_50\n      jump\t// in\n    tag_118:\n      mload(0x40)\n      dup1\n      swap2\n      sub\n      swap1\n      return\n        /* \"contracts/MetaMasterChef.sol\":20105:20192  function owner() public view virtual returns (address) {\r... */\n    tag_25:\n      tag_119\n      tag_120\n      jump\t// in\n    tag_119:\n      mload(0x40)\n      tag_121\n      swap2\n      swap1\n      tag_122\n      jump\t// in\n    tag_121:\n      mload(0x40)\n      dup1\n      swap2\n      sub\n      swap1\n      return\n        /* \"contracts/MetaMasterChef.sol\":28272:28416  function getMultiplier(uint256 _from, uint256 _to) public view returns (uint256) {\r... */\n    tag_26:\n      tag_123\n      0x04\n      dup1\n      calldatasize\n      sub\n      dup2\n      add\n      swap1\n      tag_124\n      swap2\n      swap1\n      tag_125\n      jump\t// in\n    tag_124:\n      tag_126\n      jump\t// in\n    tag_123:\n      mload(0x40)\n      tag_127\n      swap2\n      swap1\n      tag_50\n      jump\t// in\n    tag_127:\n      mload(0x40)\n      dup1\n      swap2\n      sub\n      swap1\n      return\n        /* \"contracts/MetaMasterChef.sol\":24695:24759  mapping(uint256 => mapping(address => UserInfo)) public userInfo */\n    tag_27:\n      tag_128\n      0x04\n      dup1\n      calldatasize\n      sub\n      dup2\n      add\n      swap1\n      tag_129\n      swap2\n      swap1\n      tag_79\n      jump\t// in\n    tag_129:\n      tag_130\n      jump\t// in\n    tag_128:\n      mload(0x40)\n      tag_131\n      swap3\n      swap2\n      swap1\n      tag_132\n      jump\t// in\n    tag_131:\n      mload(0x40)\n      dup1\n      swap2\n      sub\n      swap1\n      return\n        /* \"contracts/MetaMasterChef.sol\":24331:24357  uint256 public DRGPerBlock */\n    tag_28:\n      tag_133\n      tag_134\n      jump\t// in\n    tag_133:\n      mload(0x40)\n      tag_135\n      swap2\n      swap1\n      tag_50\n      jump\t// in\n    tag_135:\n      mload(0x40)\n      dup1\n      swap2\n      sub\n      swap1\n      return\n        /* \"contracts/MetaMasterChef.sol\":32294:33429  function withdraw(uint256 _pid, uint256 _BSWPid, uint256 _amount) public {\r... */\n    tag_29:\n      tag_136\n      0x04\n      dup1\n      calldatasize\n      sub\n      dup2\n      add\n      swap1\n      tag_137\n      swap2\n      swap1\n      tag_45\n      jump\t// in\n    tag_137:\n      tag_138\n      jump\t// in\n    tag_136:\n      stop\n        /* \"contracts/MetaMasterChef.sol\":34437:34532  function setDevAddress(address _devaddr) public onlyOwner {\r... */\n    tag_30:\n      tag_139\n      0x04\n      dup1\n      calldatasize\n      sub\n      dup2\n      add\n      swap1\n      tag_140\n      swap2\n      swap1\n      tag_141\n      jump\t// in\n    tag_140:\n      tag_142\n      jump\t// in\n    tag_139:\n      stop\n        /* \"contracts/MetaMasterChef.sol\":24264:24286  address public devaddr */\n    tag_31:\n      tag_143\n      tag_144\n      jump\t// in\n    tag_143:\n      mload(0x40)\n      tag_145\n      swap2\n      swap1\n      tag_122\n      jump\t// in\n    tag_145:\n      mload(0x40)\n      dup1\n      swap2\n      sub\n      swap1\n      return\n        /* \"contracts/MetaMasterChef.sol\":24152:24187  INFTMasterChef public NFTMasterChef */\n    tag_32:\n      tag_146\n      tag_147\n      jump\t// in\n    tag_146:\n      mload(0x40)\n      tag_148\n      swap2\n      swap1\n      tag_149\n      jump\t// in\n    tag_148:\n      mload(0x40)\n      dup1\n      swap2\n      sub\n      swap1\n      return\n        /* \"contracts/MetaMasterChef.sol\":30466:30704  function enablePool(uint256 _pid) public {\r... */\n    tag_33:\n      tag_150\n      0x04\n      dup1\n      calldatasize\n      sub\n      dup2\n      add\n      swap1\n      tag_151\n      swap2\n      swap1\n      tag_53\n      jump\t// in\n    tag_151:\n      tag_152\n      jump\t// in\n    tag_150:\n      stop\n        /* \"contracts/MetaMasterChef.sol\":21014:21215  function transferOwnership(address newOwner) public virtual onlyOwner {\r... */\n    tag_34:\n      tag_153\n      0x04\n      dup1\n      calldatasize\n      sub\n      dup2\n      add\n      swap1\n      tag_154\n      swap2\n      swap1\n      tag_141\n      jump\t// in\n    tag_154:\n      tag_155\n      jump\t// in\n    tag_153:\n      stop\n        /* \"contracts/MetaMasterChef.sol\":26318:27019  function add( uint256 _allocPoint, IERC20 _lpToken, bool _withUpdate, IMasterChef _poolMasterChef, IERC20 _rewardToken) public onlyOwner {\r... */\n    tag_35:\n      tag_156\n      0x04\n      dup1\n      calldatasize\n      sub\n      dup2\n      add\n      swap1\n      tag_157\n      swap2\n      swap1\n      tag_158\n      jump\t// in\n    tag_157:\n      tag_159\n      jump\t// in\n    tag_156:\n      stop\n        /* \"contracts/MetaMasterChef.sol\":30772:32242  function deposit(uint256 _pid,uint256 _BSWPid, uint256 _amount) public {\r... */\n    tag_46:\n        /* \"contracts/MetaMasterChef.sol\":30856:30877  PoolInfo storage pool */\n      0x00\n        /* \"contracts/MetaMasterChef.sol\":30880:30888  poolInfo */\n      0x07\n        /* \"contracts/MetaMasterChef.sol\":30889:30893  _pid */\n      dup5\n        /* \"contracts/MetaMasterChef.sol\":30880:30894  poolInfo[_pid] */\n      dup2\n      sload\n      dup2\n      lt\n      tag_161\n      jumpi\n      tag_162\n      tag_163\n      jump\t// in\n    tag_162:\n    tag_161:\n      swap1\n      0x00\n      mstore\n      keccak256(0x00, 0x20)\n      swap1\n      0x06\n      mul\n      add\n        /* \"contracts/MetaMasterChef.sol\":30856:30894  PoolInfo storage pool = poolInfo[_pid] */\n      swap1\n      pop\n        /* \"contracts/MetaMasterChef.sol\":30905:30926  UserInfo storage user */\n      0x00\n        /* \"contracts/MetaMasterChef.sol\":30929:30937  userInfo */\n      0x08\n        /* \"contracts/MetaMasterChef.sol\":30929:30943  userInfo[_pid] */\n      0x00\n        /* \"contracts/MetaMasterChef.sol\":30938:30942  _pid */\n      dup7\n        /* \"contracts/MetaMasterChef.sol\":30929:30943  userInfo[_pid] */\n      dup2\n      mstore\n      0x20\n      add\n      swap1\n      dup2\n      mstore\n      0x20\n      add\n      0x00\n      keccak256\n        /* \"contracts/MetaMasterChef.sol\":30929:30955  userInfo[_pid][msg.sender] */\n      0x00\n        /* \"contracts/MetaMasterChef.sol\":30944:30954  msg.sender */\n      caller\n        /* \"contracts/MetaMasterChef.sol\":30929:30955  userInfo[_pid][msg.sender] */\n      0xffffffffffffffffffffffffffffffffffffffff\n      and\n      0xffffffffffffffffffffffffffffffffffffffff\n      and\n      dup2\n      mstore\n      0x20\n      add\n      swap1\n      dup2\n      mstore\n      0x20\n      add\n      0x00\n      keccak256\n        /* \"contracts/MetaMasterChef.sol\":30905:30955  UserInfo storage user = userInfo[_pid][msg.sender] */\n      swap1\n      pop\n        /* \"contracts/MetaMasterChef.sol\":30966:30982  updatePool(_pid) */\n      tag_165\n        /* \"contracts/MetaMasterChef.sol\":30977:30981  _pid */\n      dup6\n        /* \"contracts/MetaMasterChef.sol\":30966:30976  updatePool */\n      tag_84\n        /* \"contracts/MetaMasterChef.sol\":30966:30982  updatePool(_pid) */\n      jump\t// in\n    tag_165:\n        /* \"contracts/MetaMasterChef.sol\":31011:31012  0 */\n      0x00\n        /* \"contracts/MetaMasterChef.sol\":30997:31001  user */\n      dup2\n        /* \"contracts/MetaMasterChef.sol\":30997:31008  user.amount */\n      0x00\n      add\n      sload\n        /* \"contracts/MetaMasterChef.sol\":30997:31012  user.amount > 0 */\n      gt\n        /* \"contracts/MetaMasterChef.sol\":30993:31245  if (user.amount > 0) {\r... */\n      iszero\n      tag_166\n      jumpi\n        /* \"contracts/MetaMasterChef.sol\":31029:31044  uint256 pending */\n      0x00\n        /* \"contracts/MetaMasterChef.sol\":31047:31114  user.amount.mul(pool.accDRGPerShare).div(1e12).sub(user.rewardDebt) */\n      tag_167\n        /* \"contracts/MetaMasterChef.sol\":31098:31102  user */\n      dup3\n        /* \"contracts/MetaMasterChef.sol\":31098:31113  user.rewardDebt */\n      0x01\n      add\n      sload\n        /* \"contracts/MetaMasterChef.sol\":31047:31093  user.amount.mul(pool.accDRGPerShare).div(1e12) */\n      tag_168\n        /* \"contracts/MetaMasterChef.sol\":31088:31092  1e12 */\n      0xe8d4a51000\n        /* \"contracts/MetaMasterChef.sol\":31047:31083  user.amount.mul(pool.accDRGPerShare) */\n      tag_169\n        /* \"contracts/MetaMasterChef.sol\":31063:31067  pool */\n      dup8\n        /* \"contracts/MetaMasterChef.sol\":31063:31082  pool.accDRGPerShare */\n      0x03\n      add\n      sload\n        /* \"contracts/MetaMasterChef.sol\":31047:31051  user */\n      dup8\n        /* \"contracts/MetaMasterChef.sol\":31047:31058  user.amount */\n      0x00\n      add\n      sload\n        /* \"contracts/MetaMasterChef.sol\":31047:31062  user.amount.mul */\n      tag_170\n      swap1\n        /* \"contracts/MetaMasterChef.sol\":31047:31083  user.amount.mul(pool.accDRGPerShare) */\n      swap2\n      swap1\n      0xffffffff\n      and\n      jump\t// in\n    tag_169:\n        /* \"contracts/MetaMasterChef.sol\":31047:31087  user.amount.mul(pool.accDRGPerShare).div */\n      tag_171\n      swap1\n        /* \"contracts/MetaMasterChef.sol\":31047:31093  user.amount.mul(pool.accDRGPerShare).div(1e12) */\n      swap2\n      swap1\n      0xffffffff\n      and\n      jump\t// in\n    tag_168:\n        /* \"contracts/MetaMasterChef.sol\":31047:31097  user.amount.mul(pool.accDRGPerShare).div(1e12).sub */\n      tag_172\n      swap1\n        /* \"contracts/MetaMasterChef.sol\":31047:31114  user.amount.mul(pool.accDRGPerShare).div(1e12).sub(user.rewardDebt) */\n      swap2\n      swap1\n      0xffffffff\n      and\n      jump\t// in\n    tag_167:\n        /* \"contracts/MetaMasterChef.sol\":31029:31114  uint256 pending = user.amount.mul(pool.accDRGPerShare).div(1e12).sub(user.rewardDebt) */\n      swap1\n      pop\n        /* \"contracts/MetaMasterChef.sol\":31142:31143  0 */\n      0x00\n        /* \"contracts/MetaMasterChef.sol\":31132:31139  pending */\n      dup2\n        /* \"contracts/MetaMasterChef.sol\":31132:31143  pending > 0 */\n      gt\n        /* \"contracts/MetaMasterChef.sol\":31129:31234  if(pending > 0){\r... */\n      iszero\n      tag_173\n      jumpi\n        /* \"contracts/MetaMasterChef.sol\":31163:31218  NFTMasterChefEnterStaking(address(msg.sender), pending) */\n      tag_174\n        /* \"contracts/MetaMasterChef.sol\":31197:31207  msg.sender */\n      caller\n        /* \"contracts/MetaMasterChef.sol\":31210:31217  pending */\n      dup3\n        /* \"contracts/MetaMasterChef.sol\":31163:31188  NFTMasterChefEnterStaking */\n      tag_175\n        /* \"contracts/MetaMasterChef.sol\":31163:31218  NFTMasterChefEnterStaking(address(msg.sender), pending) */\n      jump\t// in\n    tag_174:\n        /* \"contracts/MetaMasterChef.sol\":31129:31234  if(pending > 0){\r... */\n    tag_173:\n        /* \"contracts/MetaMasterChef.sol\":31014:31245  {\r... */\n      pop\n        /* \"contracts/MetaMasterChef.sol\":30993:31245  if (user.amount > 0) {\r... */\n    tag_166:\n        /* \"contracts/MetaMasterChef.sol\":31329:31330  0 */\n      0x00\n        /* \"contracts/MetaMasterChef.sol\":31258:31262  pool */\n      dup3\n        /* \"contracts/MetaMasterChef.sol\":31258:31270  pool.lpToken */\n      0x00\n      add\n      0x00\n      swap1\n      sload\n      swap1\n      0x0100\n      exp\n      swap1\n      div\n      0xffffffffffffffffffffffffffffffffffffffff\n      and\n        /* \"contracts/MetaMasterChef.sol\":31258:31280  pool.lpToken.allowance */\n      0xffffffffffffffffffffffffffffffffffffffff\n      and\n      0xdd62ed3e\n        /* \"contracts/MetaMasterChef.sol\":31289:31293  this */\n      address\n        /* \"contracts/MetaMasterChef.sol\":31304:31308  pool */\n      dup6\n        /* \"contracts/MetaMasterChef.sol\":31304:31323  pool.poolMasterChef */\n      0x04\n      add\n      0x00\n      swap1\n      sload\n      swap1\n      0x0100\n      exp\n      swap1\n      div\n      0xffffffffffffffffffffffffffffffffffffffff\n      and\n        /* \"contracts/MetaMasterChef.sol\":31258:31325  pool.lpToken.allowance(address(this), address(pool.poolMasterChef)) */\n      mload(0x40)\n      dup4\n      0xffffffff\n      and\n      0xe0\n      shl\n      dup2\n      mstore\n      0x04\n      add\n      tag_176\n      swap3\n      swap2\n      swap1\n      tag_177\n      jump\t// in\n    tag_176:\n      0x20\n      mload(0x40)\n      dup1\n      dup4\n      sub\n      dup2\n      dup7\n      dup1\n      extcodesize\n      iszero\n      dup1\n      iszero\n      tag_178\n      jumpi\n      0x00\n      dup1\n      revert\n    tag_178:\n      pop\n      gas\n      staticcall\n      iszero\n      dup1\n      iszero\n      tag_180\n      jumpi\n      returndatasize\n      0x00\n      dup1\n      returndatacopy\n      revert(0x00, returndatasize)\n    tag_180:\n      pop\n      pop\n      pop\n      pop\n      mload(0x40)\n      returndatasize\n      not(0x1f)\n      0x1f\n      dup3\n      add\n      and\n      dup3\n      add\n      dup1\n      0x40\n      mstore\n      pop\n      dup2\n      add\n      swap1\n      tag_181\n      swap2\n      swap1\n      tag_182\n      jump\t// in\n    tag_181:\n        /* \"contracts/MetaMasterChef.sol\":31258:31330  pool.lpToken.allowance(address(this), address(pool.poolMasterChef)) <= 0 */\n      gt\n        /* \"contracts/MetaMasterChef.sol\":31255:31374  if(pool.lpToken.allowance(address(this), address(pool.poolMasterChef)) <= 0){\r... */\n      tag_183\n      jumpi\n        /* \"contracts/MetaMasterChef.sol\":31346:31362  enablePool(_pid) */\n      tag_184\n        /* \"contracts/MetaMasterChef.sol\":31357:31361  _pid */\n      dup6\n        /* \"contracts/MetaMasterChef.sol\":31346:31356  enablePool */\n      tag_152\n        /* \"contracts/MetaMasterChef.sol\":31346:31362  enablePool(_pid) */\n      jump\t// in\n    tag_184:\n        /* \"contracts/MetaMasterChef.sol\":31255:31374  if(pool.lpToken.allowance(address(this), address(pool.poolMasterChef)) <= 0){\r... */\n    tag_183:\n        /* \"contracts/MetaMasterChef.sol\":31384:31395  uint256 fee */\n      0x00\n        /* \"contracts/MetaMasterChef.sol\":31398:31426  _amount.mul(lpFee).div(1000) */\n      tag_185\n        /* \"contracts/MetaMasterChef.sol\":31421:31425  1000 */\n      0x03e8\n        /* \"contracts/MetaMasterChef.sol\":31398:31416  _amount.mul(lpFee) */\n      tag_186\n        /* \"contracts/MetaMasterChef.sol\":31410:31415  lpFee */\n      sload(0x0c)\n        /* \"contracts/MetaMasterChef.sol\":31398:31405  _amount */\n      dup8\n        /* \"contracts/MetaMasterChef.sol\":31398:31409  _amount.mul */\n      tag_170\n      swap1\n        /* \"contracts/MetaMasterChef.sol\":31398:31416  _amount.mul(lpFee) */\n      swap2\n      swap1\n      0xffffffff\n      and\n      jump\t// in\n    tag_186:\n        /* \"contracts/MetaMasterChef.sol\":31398:31420  _amount.mul(lpFee).div */\n      tag_171\n      swap1\n        /* \"contracts/MetaMasterChef.sol\":31398:31426  _amount.mul(lpFee).div(1000) */\n      swap2\n      swap1\n      0xffffffff\n      and\n      jump\t// in\n    tag_185:\n        /* \"contracts/MetaMasterChef.sol\":31384:31426  uint256 fee = _amount.mul(lpFee).div(1000) */\n      swap1\n      pop\n        /* \"contracts/MetaMasterChef.sol\":31437:31454  uint256 newAmount */\n      0x00\n        /* \"contracts/MetaMasterChef.sol\":31457:31473  _amount.sub(fee) */\n      tag_187\n        /* \"contracts/MetaMasterChef.sol\":31469:31472  fee */\n      dup3\n        /* \"contracts/MetaMasterChef.sol\":31457:31464  _amount */\n      dup7\n        /* \"contracts/MetaMasterChef.sol\":31457:31468  _amount.sub */\n      tag_172\n      swap1\n        /* \"contracts/MetaMasterChef.sol\":31457:31473  _amount.sub(fee) */\n      swap2\n      swap1\n      0xffffffff\n      and\n      jump\t// in\n    tag_187:\n        /* \"contracts/MetaMasterChef.sol\":31437:31473  uint256 newAmount = _amount.sub(fee) */\n      swap1\n      pop\n        /* \"contracts/MetaMasterChef.sol\":31484:31560  pool.lpToken.safeTransferFrom(address(msg.sender), address(this), newAmount) */\n      tag_188\n        /* \"contracts/MetaMasterChef.sol\":31522:31532  msg.sender */\n      caller\n        /* \"contracts/MetaMasterChef.sol\":31543:31547  this */\n      address\n        /* \"contracts/MetaMasterChef.sol\":31550:31559  newAmount */\n      dup4\n        /* \"contracts/MetaMasterChef.sol\":31484:31488  pool */\n      dup8\n        /* \"contracts/MetaMasterChef.sol\":31484:31496  pool.lpToken */\n      0x00\n      add\n      0x00\n      swap1\n      sload\n      swap1\n      0x0100\n      exp\n      swap1\n      div\n      0xffffffffffffffffffffffffffffffffffffffff\n      and\n        /* \"contracts/MetaMasterChef.sol\":31484:31513  pool.lpToken.safeTransferFrom */\n      0xffffffffffffffffffffffffffffffffffffffff\n      and\n      tag_189\n      swap1\n        /* \"contracts/MetaMasterChef.sol\":31484:31560  pool.lpToken.safeTransferFrom(address(msg.sender), address(this), newAmount) */\n      swap4\n      swap3\n      swap2\n      swap1\n      0xffffffff\n      and\n      jump\t// in\n    tag_188:\n        /* \"contracts/MetaMasterChef.sol\":31571:31644  pool.lpToken.safeTransferFrom(address(msg.sender), address(devaddr), fee) */\n      tag_190\n        /* \"contracts/MetaMasterChef.sol\":31609:31619  msg.sender */\n      caller\n        /* \"contracts/MetaMasterChef.sol\":31630:31637  devaddr */\n      0x03\n      0x00\n      swap1\n      sload\n      swap1\n      0x0100\n      exp\n      swap1\n      div\n      0xffffffffffffffffffffffffffffffffffffffff\n      and\n        /* \"contracts/MetaMasterChef.sol\":31640:31643  fee */\n      dup5\n        /* \"contracts/MetaMasterChef.sol\":31571:31575  pool */\n      dup8\n        /* \"contracts/MetaMasterChef.sol\":31571:31583  pool.lpToken */\n      0x00\n      add\n      0x00\n      swap1\n      sload\n      swap1\n      0x0100\n      exp\n      swap1\n      div\n      0xffffffffffffffffffffffffffffffffffffffff\n      and\n        /* \"contracts/MetaMasterChef.sol\":31571:31600  pool.lpToken.safeTransferFrom */\n      0xffffffffffffffffffffffffffffffffffffffff\n      and\n      tag_189\n      swap1\n        /* \"contracts/MetaMasterChef.sol\":31571:31644  pool.lpToken.safeTransferFrom(address(msg.sender), address(devaddr), fee) */\n      swap4\n      swap3\n      swap2\n      swap1\n      0xffffffff\n      and\n      jump\t// in\n    tag_190:\n        /* \"contracts/MetaMasterChef.sol\":31669:31670  0 */\n      0x00\n        /* \"contracts/MetaMasterChef.sol\":31658:31665  _BSWPid */\n      dup7\n        /* \"contracts/MetaMasterChef.sol\":31658:31670  _BSWPid == 0 */\n      eq\n        /* \"contracts/MetaMasterChef.sol\":31655:31819  if(_BSWPid == 0){\r... */\n      iszero\n      tag_191\n      jumpi\n        /* \"contracts/MetaMasterChef.sol\":31686:31690  pool */\n      dup4\n        /* \"contracts/MetaMasterChef.sol\":31686:31705  pool.poolMasterChef */\n      0x04\n      add\n      0x00\n      swap1\n      sload\n      swap1\n      0x0100\n      exp\n      swap1\n      div\n      0xffffffffffffffffffffffffffffffffffffffff\n      and\n        /* \"contracts/MetaMasterChef.sol\":31686:31718  pool.poolMasterChef.enterStaking */\n      0xffffffffffffffffffffffffffffffffffffffff\n      and\n      0x41441d3b\n        /* \"contracts/MetaMasterChef.sol\":31719:31728  newAmount */\n      dup3\n        /* \"contracts/MetaMasterChef.sol\":31686:31729  pool.poolMasterChef.enterStaking(newAmount) */\n      mload(0x40)\n      dup3\n      0xffffffff\n      and\n      0xe0\n      shl\n      dup2\n      mstore\n      0x04\n      add\n      tag_192\n      swap2\n      swap1\n      tag_50\n      jump\t// in\n    tag_192:\n      0x00\n      mload(0x40)\n      dup1\n      dup4\n      sub\n      dup2\n      0x00\n      dup8\n      dup1\n      extcodesize\n      iszero\n      dup1\n      iszero\n      tag_193\n      jumpi\n      0x00\n      dup1\n      revert\n    tag_193:\n      pop\n      gas\n      call\n      iszero\n      dup1\n      iszero\n      tag_195\n      jumpi\n      returndatasize\n      0x00\n      dup1\n      returndatacopy\n      revert(0x00, returndatasize)\n    tag_195:\n      pop\n      pop\n      pop\n      pop\n        /* \"contracts/MetaMasterChef.sol\":31655:31819  if(_BSWPid == 0){\r... */\n      jump(tag_196)\n    tag_191:\n        /* \"contracts/MetaMasterChef.sol\":31760:31764  pool */\n      dup4\n        /* \"contracts/MetaMasterChef.sol\":31760:31779  pool.poolMasterChef */\n      0x04\n      add\n      0x00\n      swap1\n      sload\n      swap1\n      0x0100\n      exp\n      swap1\n      div\n      0xffffffffffffffffffffffffffffffffffffffff\n      and\n        /* \"contracts/MetaMasterChef.sol\":31760:31787  pool.poolMasterChef.deposit */\n      0xffffffffffffffffffffffffffffffffffffffff\n      and\n      0xe2bbb158\n        /* \"contracts/MetaMasterChef.sol\":31788:31795  _BSWPid */\n      dup8\n        /* \"contracts/MetaMasterChef.sol\":31797:31806  newAmount */\n      dup4\n        /* \"contracts/MetaMasterChef.sol\":31760:31807  pool.poolMasterChef.deposit(_BSWPid, newAmount) */\n      mload(0x40)\n      dup4\n      0xffffffff\n      and\n      0xe0\n      shl\n      dup2\n      mstore\n      0x04\n      add\n      tag_197\n      swap3\n      swap2\n      swap1\n      tag_132\n      jump\t// in\n    tag_197:\n      0x00\n      mload(0x40)\n      dup1\n      dup4\n      sub\n      dup2\n      0x00\n      dup8\n      dup1\n      extcodesize\n      iszero\n      dup1\n      iszero\n      tag_198\n      jumpi\n      0x00\n      dup1\n      revert\n    tag_198:\n      pop\n      gas\n      call\n      iszero\n      dup1\n      iszero\n      tag_200\n      jumpi\n      returndatasize\n      0x00\n      dup1\n      returndatacopy\n      revert(0x00, returndatasize)\n    tag_200:\n      pop\n      pop\n      pop\n      pop\n        /* \"contracts/MetaMasterChef.sol\":31655:31819  if(_BSWPid == 0){\r... */\n    tag_196:\n        /* \"contracts/MetaMasterChef.sol\":31843:31869  user.amount.add(newAmount) */\n      tag_201\n        /* \"contracts/MetaMasterChef.sol\":31859:31868  newAmount */\n      dup2\n        /* \"contracts/MetaMasterChef.sol\":31843:31847  user */\n      dup5\n        /* \"contracts/MetaMasterChef.sol\":31843:31854  user.amount */\n      0x00\n      add\n      sload\n        /* \"contracts/MetaMasterChef.sol\":31843:31858  user.amount.add */\n      tag_202\n      swap1\n        /* \"contracts/MetaMasterChef.sol\":31843:31869  user.amount.add(newAmount) */\n      swap2\n      swap1\n      0xffffffff\n      and\n      jump\t// in\n    tag_201:\n        /* \"contracts/MetaMasterChef.sol\":31829:31833  user */\n      dup4\n        /* \"contracts/MetaMasterChef.sol\":31829:31840  user.amount */\n      0x00\n      add\n        /* \"contracts/MetaMasterChef.sol\":31829:31869  user.amount = user.amount.add(newAmount) */\n      dup2\n      swap1\n      sstore\n      pop\n        /* \"contracts/MetaMasterChef.sol\":31900:31932  poolBalance[_pid].add(newAmount) */\n      tag_203\n        /* \"contracts/MetaMasterChef.sol\":31922:31931  newAmount */\n      dup2\n        /* \"contracts/MetaMasterChef.sol\":31900:31911  poolBalance */\n      0x0b\n        /* \"contracts/MetaMasterChef.sol\":31900:31917  poolBalance[_pid] */\n      0x00\n        /* \"contracts/MetaMasterChef.sol\":31912:31916  _pid */\n      dup11\n        /* \"contracts/MetaMasterChef.sol\":31900:31917  poolBalance[_pid] */\n      dup2\n      mstore\n      0x20\n      add\n      swap1\n      dup2\n      mstore\n      0x20\n      add\n      0x00\n      keccak256\n      sload\n        /* \"contracts/MetaMasterChef.sol\":31900:31921  poolBalance[_pid].add */\n      tag_202\n      swap1\n        /* \"contracts/MetaMasterChef.sol\":31900:31932  poolBalance[_pid].add(newAmount) */\n      swap2\n      swap1\n      0xffffffff\n      and\n      jump\t// in\n    tag_203:\n        /* \"contracts/MetaMasterChef.sol\":31880:31891  poolBalance */\n      0x0b\n        /* \"contracts/MetaMasterChef.sol\":31880:31897  poolBalance[_pid] */\n      0x00\n        /* \"contracts/MetaMasterChef.sol\":31892:31896  _pid */\n      dup10\n        /* \"contracts/MetaMasterChef.sol\":31880:31897  poolBalance[_pid] */\n      dup2\n      mstore\n      0x20\n      add\n      swap1\n      dup2\n      mstore\n      0x20\n      add\n      0x00\n      keccak256\n        /* \"contracts/MetaMasterChef.sol\":31880:31932  poolBalance[_pid] = poolBalance[_pid].add(newAmount) */\n      dup2\n      swap1\n      sstore\n      pop\n        /* \"contracts/MetaMasterChef.sol\":31961:32007  user.amount.mul(pool.accDRGPerShare).div(1e12) */\n      tag_204\n        /* \"contracts/MetaMasterChef.sol\":32002:32006  1e12 */\n      0xe8d4a51000\n        /* \"contracts/MetaMasterChef.sol\":31961:31997  user.amount.mul(pool.accDRGPerShare) */\n      tag_205\n        /* \"contracts/MetaMasterChef.sol\":31977:31981  pool */\n      dup7\n        /* \"contracts/MetaMasterChef.sol\":31977:31996  pool.accDRGPerShare */\n      0x03\n      add\n      sload\n        /* \"contracts/MetaMasterChef.sol\":31961:31965  user */\n      dup7\n        /* \"contracts/MetaMasterChef.sol\":31961:31972  user.amount */\n      0x00\n      add\n      sload\n        /* \"contracts/MetaMasterChef.sol\":31961:31976  user.amount.mul */\n      tag_170\n      swap1\n        /* \"contracts/MetaMasterChef.sol\":31961:31997  user.amount.mul(pool.accDRGPerShare) */\n      swap2\n      swap1\n      0xffffffff\n      and\n      jump\t// in\n    tag_205:\n        /* \"contracts/MetaMasterChef.sol\":31961:32001  user.amount.mul(pool.accDRGPerShare).div */\n      tag_171\n      swap1\n        /* \"contracts/MetaMasterChef.sol\":31961:32007  user.amount.mul(pool.accDRGPerShare).div(1e12) */\n      swap2\n      swap1\n      0xffffffff\n      and\n      jump\t// in\n    tag_204:\n        /* \"contracts/MetaMasterChef.sol\":31943:31947  user */\n      dup4\n        /* \"contracts/MetaMasterChef.sol\":31943:31958  user.rewardDebt */\n      0x01\n      add\n        /* \"contracts/MetaMasterChef.sol\":31943:32007  user.rewardDebt = user.amount.mul(pool.accDRGPerShare).div(1e12) */\n      dup2\n      swap1\n      sstore\n      pop\n        /* \"contracts/MetaMasterChef.sol\":32018:32032  uint256 reward */\n      0x00\n        /* \"contracts/MetaMasterChef.sol\":32035:32039  pool */\n      dup5\n        /* \"contracts/MetaMasterChef.sol\":32035:32051  pool.rewardToken */\n      0x05\n      add\n      0x00\n      swap1\n      sload\n      swap1\n      0x0100\n      exp\n      swap1\n      div\n      0xffffffffffffffffffffffffffffffffffffffff\n      and\n        /* \"contracts/MetaMasterChef.sol\":32035:32061  pool.rewardToken.balanceOf */\n      0xffffffffffffffffffffffffffffffffffffffff\n      and\n      0x70a08231\n        /* \"contracts/MetaMasterChef.sol\":32070:32074  this */\n      address\n        /* \"contracts/MetaMasterChef.sol\":32035:32076  pool.rewardToken.balanceOf(address(this)) */\n      mload(0x40)\n      dup3\n      0xffffffff\n      and\n      0xe0\n      shl\n      dup2\n      mstore\n      0x04\n      add\n      tag_206\n      swap2\n      swap1\n      tag_122\n      jump\t// in\n    tag_206:\n      0x20\n      mload(0x40)\n      dup1\n      dup4\n      sub\n      dup2\n      dup7\n      dup1\n      extcodesize\n      iszero\n      dup1\n      iszero\n      tag_207\n      jumpi\n      0x00\n      dup1\n      revert\n    tag_207:\n      pop\n      gas\n      staticcall\n      iszero\n      dup1\n      iszero\n      tag_209\n      jumpi\n      returndatasize\n      0x00\n      dup1\n      returndatacopy\n      revert(0x00, returndatasize)\n    tag_209:\n      pop\n      pop\n      pop\n      pop\n      mload(0x40)\n      returndatasize\n      not(0x1f)\n      0x1f\n      dup3\n      add\n      and\n      dup3\n      add\n      dup1\n      0x40\n      mstore\n      pop\n      dup2\n      add\n      swap1\n      tag_210\n      swap2\n      swap1\n      tag_182\n      jump\t// in\n    tag_210:\n        /* \"contracts/MetaMasterChef.sol\":32018:32076  uint256 reward = pool.rewardToken.balanceOf(address(this)) */\n      swap1\n      pop\n        /* \"contracts/MetaMasterChef.sol\":32099:32100  0 */\n      0x00\n        /* \"contracts/MetaMasterChef.sol\":32090:32096  reward */\n      dup2\n        /* \"contracts/MetaMasterChef.sol\":32090:32100  reward > 0 */\n      gt\n        /* \"contracts/MetaMasterChef.sol\":32087:32183  if(reward > 0){\r... */\n      iszero\n      tag_211\n      jumpi\n        /* \"contracts/MetaMasterChef.sol\":32116:32171  pool.rewardToken.safeTransfer(address(devaddr), reward) */\n      tag_212\n        /* \"contracts/MetaMasterChef.sol\":32154:32161  devaddr */\n      0x03\n      0x00\n      swap1\n      sload\n      swap1\n      0x0100\n      exp\n      swap1\n      div\n      0xffffffffffffffffffffffffffffffffffffffff\n      and\n        /* \"contracts/MetaMasterChef.sol\":32164:32170  reward */\n      dup3\n        /* \"contracts/MetaMasterChef.sol\":32116:32120  pool */\n      dup8\n        /* \"contracts/MetaMasterChef.sol\":32116:32132  pool.rewardToken */\n      0x05\n      add\n      0x00\n      swap1\n      sload\n      swap1\n      0x0100\n      exp\n      swap1\n      div\n      0xffffffffffffffffffffffffffffffffffffffff\n      and\n        /* \"contracts/MetaMasterChef.sol\":32116:32145  pool.rewardToken.safeTransfer */\n      0xffffffffffffffffffffffffffffffffffffffff\n      and\n      tag_213\n      swap1\n        /* \"contracts/MetaMasterChef.sol\":32116:32171  pool.rewardToken.safeTransfer(address(devaddr), reward) */\n      swap3\n      swap2\n      swap1\n      0xffffffff\n      and\n      jump\t// in\n    tag_212:\n        /* \"contracts/MetaMasterChef.sol\":32087:32183  if(reward > 0){\r... */\n    tag_211:\n        /* \"contracts/MetaMasterChef.sol\":32218:32222  _pid */\n      dup8\n        /* \"contracts/MetaMasterChef.sol\":32206:32216  msg.sender */\n      caller\n        /* \"contracts/MetaMasterChef.sol\":32198:32234  Deposit(msg.sender, _pid, newAmount) */\n      0xffffffffffffffffffffffffffffffffffffffff\n      and\n      0x90890809c654f11d6e72a28fa60149770a0d11ec6c92319d6ceb2bb0a4ea1a15\n        /* \"contracts/MetaMasterChef.sol\":32224:32233  newAmount */\n      dup5\n        /* \"contracts/MetaMasterChef.sol\":32198:32234  Deposit(msg.sender, _pid, newAmount) */\n      mload(0x40)\n      tag_214\n      swap2\n      swap1\n      tag_50\n      jump\t// in\n    tag_214:\n      mload(0x40)\n      dup1\n      swap2\n      sub\n      swap1\n      log3\n        /* \"contracts/MetaMasterChef.sol\":30843:32242  {\r... */\n      pop\n      pop\n      pop\n      pop\n      pop\n        /* \"contracts/MetaMasterChef.sol\":30772:32242  function deposit(uint256 _pid,uint256 _BSWPid, uint256 _amount) public {\r... */\n      pop\n      pop\n      pop\n      jump\t// out\n        /* \"contracts/MetaMasterChef.sol\":25959:26054  function poolLength() external view returns (uint256) {\r... */\n    tag_48:\n        /* \"contracts/MetaMasterChef.sol\":26004:26011  uint256 */\n      0x00\n        /* \"contracts/MetaMasterChef.sol\":26031:26039  poolInfo */\n      0x07\n        /* \"contracts/MetaMasterChef.sol\":26031:26046  poolInfo.length */\n      dup1\n      sload\n      swap1\n      pop\n        /* \"contracts/MetaMasterChef.sol\":26024:26046  return poolInfo.length */\n      swap1\n      pop\n        /* \"contracts/MetaMasterChef.sol\":25959:26054  function poolLength() external view returns (uint256) {\r... */\n      swap1\n      jump\t// out\n        /* \"contracts/MetaMasterChef.sol\":34538:34643  function updateDRGPerBlock(uint256 newAmount) public onlyOwner {\r... */\n    tag_54:\n        /* \"contracts/MetaMasterChef.sol\":20336:20348  _msgSender() */\n      tag_217\n        /* \"contracts/MetaMasterChef.sol\":20336:20346  _msgSender */\n      tag_218\n        /* \"contracts/MetaMasterChef.sol\":20336:20348  _msgSender() */\n      jump\t// in\n    tag_217:\n        /* \"contracts/MetaMasterChef.sol\":20325:20348  owner() == _msgSender() */\n      0xffffffffffffffffffffffffffffffffffffffff\n      and\n        /* \"contracts/MetaMasterChef.sol\":20325:20332  owner() */\n      tag_219\n        /* \"contracts/MetaMasterChef.sol\":20325:20330  owner */\n      tag_120\n        /* \"contracts/MetaMasterChef.sol\":20325:20332  owner() */\n      jump\t// in\n    tag_219:\n        /* \"contracts/MetaMasterChef.sol\":20325:20348  owner() == _msgSender() */\n      0xffffffffffffffffffffffffffffffffffffffff\n      and\n      eq\n        /* \"contracts/MetaMasterChef.sol\":20317:20385  require(owner() == _msgSender(), \"Ownable: caller is not the owner\") */\n      tag_220\n      jumpi\n      mload(0x40)\n      0x08c379a000000000000000000000000000000000000000000000000000000000\n      dup2\n      mstore\n      0x04\n      add\n      tag_221\n      swap1\n      tag_222\n      jump\t// in\n    tag_221:\n      mload(0x40)\n      dup1\n      swap2\n      sub\n      swap1\n      revert\n    tag_220:\n        /* \"contracts/MetaMasterChef.sol\":34626:34635  newAmount */\n      dup1\n        /* \"contracts/MetaMasterChef.sol\":34612:34623  DRGPerBlock */\n      0x04\n        /* \"contracts/MetaMasterChef.sol\":34612:34635  DRGPerBlock = newAmount */\n      dup2\n      swap1\n      sstore\n      pop\n        /* \"contracts/MetaMasterChef.sol\":34538:34643  function updateDRGPerBlock(uint256 newAmount) public onlyOwner {\r... */\n      pop\n      jump\t// out\n        /* \"contracts/MetaMasterChef.sol\":24219:24236  IERC20 public DRG */\n    tag_56:\n      0x02\n      0x00\n      swap1\n      sload\n      swap1\n      0x0100\n      exp\n      swap1\n      div\n      0xffffffffffffffffffffffffffffffffffffffff\n      and\n      dup2\n      jump\t// out\n        /* \"contracts/MetaMasterChef.sol\":24613:24639  PoolInfo[] public poolInfo */\n    tag_61:\n      0x07\n      dup2\n      dup2\n      sload\n      dup2\n      lt\n      tag_224\n      jumpi\n      0x00\n      dup1\n      revert\n    tag_224:\n      swap1\n      0x00\n      mstore\n      keccak256(0x00, 0x20)\n      swap1\n      0x06\n      mul\n      add\n      0x00\n      swap2\n      pop\n      swap1\n      pop\n      dup1\n      0x00\n      add\n      0x00\n      swap1\n      sload\n      swap1\n      0x0100\n      exp\n      swap1\n      div\n      0xffffffffffffffffffffffffffffffffffffffff\n      and\n      swap1\n      dup1\n      0x01\n      add\n      sload\n      swap1\n      dup1\n      0x02\n      add\n      sload\n      swap1\n      dup1\n      0x03\n      add\n      sload\n      swap1\n      dup1\n      0x04\n      add\n      0x00\n      swap1\n      sload\n      swap1\n      0x0100\n      exp\n      swap1\n      div\n      0xffffffffffffffffffffffffffffffffffffffff\n      and\n      swap1\n      dup1\n      0x05\n      add\n      0x00\n      swap1\n      sload\n      swap1\n      0x0100\n      exp\n      swap1\n      div\n      0xffffffffffffffffffffffffffffffffffffffff\n      and\n      swap1\n      pop\n      dup7\n      jump\t// out\n        /* \"contracts/MetaMasterChef.sol\":24854:24888  uint256 public totalAllocPoint = 0 */\n    tag_65:\n      sload(0x09)\n      dup2\n      jump\t// out\n        /* \"contracts/MetaMasterChef.sol\":27495:27597  function setMigrator(IMigratorChef _migrator) public onlyOwner {\r... */\n    tag_70:\n        /* \"contracts/MetaMasterChef.sol\":20336:20348  _msgSender() */\n      tag_227\n        /* \"contracts/MetaMasterChef.sol\":20336:20346  _msgSender */\n      tag_218\n        /* \"contracts/MetaMasterChef.sol\":20336:20348  _msgSender() */\n      jump\t// in\n    tag_227:\n        /* \"contracts/MetaMasterChef.sol\":20325:20348  owner() == _msgSender() */\n      0xffffffffffffffffffffffffffffffffffffffff\n      and\n        /* \"contracts/MetaMasterChef.sol\":20325:20332  owner() */\n      tag_228\n        /* \"contracts/MetaMasterChef.sol\":20325:20330  owner */\n      tag_120\n        /* \"contracts/MetaMasterChef.sol\":20325:20332  owner() */\n      jump\t// in\n    tag_228:\n        /* \"contracts/MetaMasterChef.sol\":20325:20348  owner() == _msgSender() */\n      0xffffffffffffffffffffffffffffffffffffffff\n      and\n      eq\n        /* \"contracts/MetaMasterChef.sol\":20317:20385  require(owner() == _msgSender(), \"Ownable: caller is not the owner\") */\n      tag_229\n      jumpi\n      mload(0x40)\n      0x08c379a000000000000000000000000000000000000000000000000000000000\n      dup2\n      mstore\n      0x04\n      add\n      tag_230\n      swap1\n      tag_222\n      jump\t// in\n    tag_230:\n      mload(0x40)\n      dup1\n      swap2\n      sub\n      swap1\n      revert\n    tag_229:\n        /* \"contracts/MetaMasterChef.sol\":27580:27589  _migrator */\n      dup1\n        /* \"contracts/MetaMasterChef.sol\":27569:27577  migrator */\n      0x06\n      0x00\n        /* \"contracts/MetaMasterChef.sol\":27569:27589  migrator = _migrator */\n      0x0100\n      exp\n      dup2\n      sload\n      dup2\n      0xffffffffffffffffffffffffffffffffffffffff\n      mul\n      not\n      and\n      swap1\n      dup4\n      0xffffffffffffffffffffffffffffffffffffffff\n      and\n      mul\n      or\n      swap1\n      sstore\n      pop\n        /* \"contracts/MetaMasterChef.sol\":27495:27597  function setMigrator(IMigratorChef _migrator) public onlyOwner {\r... */\n      pop\n      jump\t// out\n        /* \"contracts/MetaMasterChef.sol\":27720:28196  function migrate(uint256 _pid) public {\r... */\n    tag_73:\n        /* \"contracts/MetaMasterChef.sol\":27806:27807  0 */\n      0x00\n        /* \"contracts/MetaMasterChef.sol\":27777:27808  address(migrator) != address(0) */\n      0xffffffffffffffffffffffffffffffffffffffff\n      and\n        /* \"contracts/MetaMasterChef.sol\":27785:27793  migrator */\n      0x06\n      0x00\n      swap1\n      sload\n      swap1\n      0x0100\n      exp\n      swap1\n      div\n      0xffffffffffffffffffffffffffffffffffffffff\n      and\n        /* \"contracts/MetaMasterChef.sol\":27777:27808  address(migrator) != address(0) */\n      0xffffffffffffffffffffffffffffffffffffffff\n      and\n      eq\n      iszero\n        /* \"contracts/MetaMasterChef.sol\":27769:27833  require(address(migrator) != address(0), \"migrate: no migrator\") */\n      tag_233\n      jumpi\n      mload(0x40)\n      0x08c379a000000000000000000000000000000000000000000000000000000000\n      dup2\n      mstore\n      0x04\n      add\n      tag_234\n      swap1\n      tag_235\n      jump\t// in\n    tag_234:\n      mload(0x40)\n      dup1\n      swap2\n      sub\n      swap1\n      revert\n    tag_233:\n        /* \"contracts/MetaMasterChef.sol\":27844:27865  PoolInfo storage pool */\n      0x00\n        /* \"contracts/MetaMasterChef.sol\":27868:27876  poolInfo */\n      0x07\n        /* \"contracts/MetaMasterChef.sol\":27877:27881  _pid */\n      dup3\n        /* \"contracts/MetaMasterChef.sol\":27868:27882  poolInfo[_pid] */\n      dup2\n      sload\n      dup2\n      lt\n      tag_236\n      jumpi\n      tag_237\n      tag_163\n      jump\t// in\n    tag_237:\n    tag_236:\n      swap1\n      0x00\n      mstore\n      keccak256(0x00, 0x20)\n      swap1\n      0x06\n      mul\n      add\n        /* \"contracts/MetaMasterChef.sol\":27844:27882  PoolInfo storage pool = poolInfo[_pid] */\n      swap1\n      pop\n        /* \"contracts/MetaMasterChef.sol\":27893:27907  IERC20 lpToken */\n      0x00\n        /* \"contracts/MetaMasterChef.sol\":27910:27914  pool */\n      dup2\n        /* \"contracts/MetaMasterChef.sol\":27910:27922  pool.lpToken */\n      0x00\n      add\n      0x00\n      swap1\n      sload\n      swap1\n      0x0100\n      exp\n      swap1\n      div\n      0xffffffffffffffffffffffffffffffffffffffff\n      and\n        /* \"contracts/MetaMasterChef.sol\":27893:27922  IERC20 lpToken = pool.lpToken */\n      swap1\n      pop\n        /* \"contracts/MetaMasterChef.sol\":27933:27944  uint256 bal */\n      0x00\n        /* \"contracts/MetaMasterChef.sol\":27947:27958  poolBalance */\n      0x0b\n        /* \"contracts/MetaMasterChef.sol\":27947:27964  poolBalance[_pid] */\n      0x00\n        /* \"contracts/MetaMasterChef.sol\":27959:27963  _pid */\n      dup6\n        /* \"contracts/MetaMasterChef.sol\":27947:27964  poolBalance[_pid] */\n      dup2\n      mstore\n      0x20\n      add\n      swap1\n      dup2\n      mstore\n      0x20\n      add\n      0x00\n      keccak256\n      sload\n        /* \"contracts/MetaMasterChef.sol\":27933:27964  uint256 bal = poolBalance[_pid] */\n      swap1\n      pop\n        /* \"contracts/MetaMasterChef.sol\":27975:28018  lpToken.safeApprove(address(migrator), bal) */\n      tag_239\n        /* \"contracts/MetaMasterChef.sol\":28003:28011  migrator */\n      0x06\n      0x00\n      swap1\n      sload\n      swap1\n      0x0100\n      exp\n      swap1\n      div\n      0xffffffffffffffffffffffffffffffffffffffff\n      and\n        /* \"contracts/MetaMasterChef.sol\":28014:28017  bal */\n      dup3\n        /* \"contracts/MetaMasterChef.sol\":27975:27982  lpToken */\n      dup5\n        /* \"contracts/MetaMasterChef.sol\":27975:27994  lpToken.safeApprove */\n      0xffffffffffffffffffffffffffffffffffffffff\n      and\n      tag_240\n      swap1\n        /* \"contracts/MetaMasterChef.sol\":27975:28018  lpToken.safeApprove(address(migrator), bal) */\n      swap3\n      swap2\n      swap1\n      0xffffffff\n      and\n      jump\t// in\n    tag_239:\n        /* \"contracts/MetaMasterChef.sol\":28029:28046  IERC20 newLpToken */\n      0x00\n        /* \"contracts/MetaMasterChef.sol\":28049:28057  migrator */\n      0x06\n      0x00\n      swap1\n      sload\n      swap1\n      0x0100\n      exp\n      swap1\n      div\n      0xffffffffffffffffffffffffffffffffffffffff\n      and\n        /* \"contracts/MetaMasterChef.sol\":28049:28065  migrator.migrate */\n      0xffffffffffffffffffffffffffffffffffffffff\n      and\n      0xce5494bb\n        /* \"contracts/MetaMasterChef.sol\":28066:28073  lpToken */\n      dup5\n        /* \"contracts/MetaMasterChef.sol\":28049:28074  migrator.migrate(lpToken) */\n      mload(0x40)\n      dup3\n      0xffffffff\n      and\n      0xe0\n      shl\n      dup2\n      mstore\n      0x04\n      add\n      tag_241\n      swap2\n      swap1\n      tag_58\n      jump\t// in\n    tag_241:\n      0x20\n      mload(0x40)\n      dup1\n      dup4\n      sub\n      dup2\n      0x00\n      dup8\n      dup1\n      extcodesize\n      iszero\n      dup1\n      iszero\n      tag_242\n      jumpi\n      0x00\n      dup1\n      revert\n    tag_242:\n      pop\n      gas\n      call\n      iszero\n      dup1\n      iszero\n      tag_244\n      jumpi\n      returndatasize\n      0x00\n      dup1\n      returndatacopy\n      revert(0x00, returndatasize)\n    tag_244:\n      pop\n      pop\n      pop\n      pop\n      mload(0x40)\n      returndatasize\n      not(0x1f)\n      0x1f\n      dup3\n      add\n      and\n      dup3\n      add\n      dup1\n      0x40\n      mstore\n      pop\n      dup2\n      add\n      swap1\n      tag_245\n      swap2\n      swap1\n      tag_246\n      jump\t// in\n    tag_245:\n        /* \"contracts/MetaMasterChef.sol\":28029:28074  IERC20 newLpToken = migrator.migrate(lpToken) */\n      swap1\n      pop\n        /* \"contracts/MetaMasterChef.sol\":28100:28110  newLpToken */\n      dup1\n        /* \"contracts/MetaMasterChef.sol\":28100:28120  newLpToken.balanceOf */\n      0xffffffffffffffffffffffffffffffffffffffff\n      and\n      0x70a08231\n        /* \"contracts/MetaMasterChef.sol\":28129:28133  this */\n      address\n        /* \"contracts/MetaMasterChef.sol\":28100:28135  newLpToken.balanceOf(address(this)) */\n      mload(0x40)\n      dup3\n      0xffffffff\n      and\n      0xe0\n      shl\n      dup2\n      mstore\n      0x04\n      add\n      tag_247\n      swap2\n      swap1\n      tag_122\n      jump\t// in\n    tag_247:\n      0x20\n      mload(0x40)\n      dup1\n      dup4\n      sub\n      dup2\n      dup7\n      dup1\n      extcodesize\n      iszero\n      dup1\n      iszero\n      tag_248\n      jumpi\n      0x00\n      dup1\n      revert\n    tag_248:\n      pop\n      gas\n      staticcall\n      iszero\n      dup1\n      iszero\n      tag_250\n      jumpi\n      returndatasize\n      0x00\n      dup1\n      returndatacopy\n      revert(0x00, returndatasize)\n    tag_250:\n      pop\n      pop\n      pop\n      pop\n      mload(0x40)\n      returndatasize\n      not(0x1f)\n      0x1f\n      dup3\n      add\n      and\n      dup3\n      add\n      dup1\n      0x40\n      mstore\n      pop\n      dup2\n      add\n      swap1\n      tag_251\n      swap2\n      swap1\n      tag_182\n      jump\t// in\n    tag_251:\n        /* \"contracts/MetaMasterChef.sol\":28093:28096  bal */\n      dup3\n        /* \"contracts/MetaMasterChef.sol\":28093:28135  bal == newLpToken.balanceOf(address(this)) */\n      eq\n        /* \"contracts/MetaMasterChef.sol\":28085:28152  require(bal == newLpToken.balanceOf(address(this)), \"migrate: bad\") */\n      tag_252\n      jumpi\n      mload(0x40)\n      0x08c379a000000000000000000000000000000000000000000000000000000000\n      dup2\n      mstore\n      0x04\n      add\n      tag_253\n      swap1\n      tag_254\n      jump\t// in\n    tag_253:\n      mload(0x40)\n      dup1\n      swap2\n      sub\n      swap1\n      revert\n    tag_252:\n        /* \"contracts/MetaMasterChef.sol\":28178:28188  newLpToken */\n      dup1\n        /* \"contracts/MetaMasterChef.sol\":28163:28167  pool */\n      dup5\n        /* \"contracts/MetaMasterChef.sol\":28163:28175  pool.lpToken */\n      0x00\n      add\n      0x00\n        /* \"contracts/MetaMasterChef.sol\":28163:28188  pool.lpToken = newLpToken */\n      0x0100\n      exp\n      dup2\n      sload\n      dup2\n      0xffffffffffffffffffffffffffffffffffffffff\n      mul\n      not\n      and\n      swap1\n      dup4\n      0xffffffffffffffffffffffffffffffffffffffff\n      and\n      mul\n      or\n      swap1\n      sstore\n      pop\n        /* \"contracts/MetaMasterChef.sol\":27758:28196  {\r... */\n      pop\n      pop\n      pop\n      pop\n        /* \"contracts/MetaMasterChef.sol\":27720:28196  function migrate(uint256 _pid) public {\r... */\n      pop\n      jump\t// out\n        /* \"contracts/MetaMasterChef.sol\":24944:24969  uint256 public startBlock */\n    tag_75:\n      sload(0x0a)\n      dup2\n      jump\t// out\n        /* \"contracts/MetaMasterChef.sol\":28479:29208  function pendingDRG(uint256 _pid, address _user) external view returns (uint256){\r... */\n    tag_80:\n        /* \"contracts/MetaMasterChef.sol\":28551:28558  uint256 */\n      0x00\n        /* \"contracts/MetaMasterChef.sol\":28570:28591  PoolInfo storage pool */\n      dup1\n        /* \"contracts/MetaMasterChef.sol\":28594:28602  poolInfo */\n      0x07\n        /* \"contracts/MetaMasterChef.sol\":28603:28607  _pid */\n      dup5\n        /* \"contracts/MetaMasterChef.sol\":28594:28608  poolInfo[_pid] */\n      dup2\n      sload\n      dup2\n      lt\n      tag_256\n      jumpi\n      tag_257\n      tag_163\n      jump\t// in\n    tag_257:\n    tag_256:\n      swap1\n      0x00\n      mstore\n      keccak256(0x00, 0x20)\n      swap1\n      0x06\n      mul\n      add\n        /* \"contracts/MetaMasterChef.sol\":28570:28608  PoolInfo storage pool = poolInfo[_pid] */\n      swap1\n      pop\n        /* \"contracts/MetaMasterChef.sol\":28619:28640  UserInfo storage user */\n      0x00\n        /* \"contracts/MetaMasterChef.sol\":28643:28651  userInfo */\n      0x08\n        /* \"contracts/MetaMasterChef.sol\":28643:28657  userInfo[_pid] */\n      0x00\n        /* \"contracts/MetaMasterChef.sol\":28652:28656  _pid */\n      dup7\n        /* \"contracts/MetaMasterChef.sol\":28643:28657  userInfo[_pid] */\n      dup2\n      mstore\n      0x20\n      add\n      swap1\n      dup2\n      mstore\n      0x20\n      add\n      0x00\n      keccak256\n        /* \"contracts/MetaMasterChef.sol\":28643:28664  userInfo[_pid][_user] */\n      0x00\n        /* \"contracts/MetaMasterChef.sol\":28658:28663  _user */\n      dup6\n        /* \"contracts/MetaMasterChef.sol\":28643:28664  userInfo[_pid][_user] */\n      0xffffffffffffffffffffffffffffffffffffffff\n      and\n      0xffffffffffffffffffffffffffffffffffffffff\n      and\n      dup2\n      mstore\n      0x20\n      add\n      swap1\n      dup2\n      mstore\n      0x20\n      add\n      0x00\n      keccak256\n        /* \"contracts/MetaMasterChef.sol\":28619:28664  UserInfo storage user = userInfo[_pid][_user] */\n      swap1\n      pop\n        /* \"contracts/MetaMasterChef.sol\":28675:28697  uint256 accDRGPerShare */\n      0x00\n        /* \"contracts/MetaMasterChef.sol\":28700:28704  pool */\n      dup3\n        /* \"contracts/MetaMasterChef.sol\":28700:28719  pool.accDRGPerShare */\n      0x03\n      add\n      sload\n        /* \"contracts/MetaMasterChef.sol\":28675:28719  uint256 accDRGPerShare = pool.accDRGPerShare */\n      swap1\n      pop\n        /* \"contracts/MetaMasterChef.sol\":28730:28746  uint256 lpSupply */\n      0x00\n        /* \"contracts/MetaMasterChef.sol\":28749:28760  poolBalance */\n      0x0b\n        /* \"contracts/MetaMasterChef.sol\":28749:28766  poolBalance[_pid] */\n      0x00\n        /* \"contracts/MetaMasterChef.sol\":28761:28765  _pid */\n      dup9\n        /* \"contracts/MetaMasterChef.sol\":28749:28766  poolBalance[_pid] */\n      dup2\n      mstore\n      0x20\n      add\n      swap1\n      dup2\n      mstore\n      0x20\n      add\n      0x00\n      keccak256\n      sload\n        /* \"contracts/MetaMasterChef.sol\":28730:28766  uint256 lpSupply = poolBalance[_pid] */\n      swap1\n      pop\n        /* \"contracts/MetaMasterChef.sol\":28796:28800  pool */\n      dup4\n        /* \"contracts/MetaMasterChef.sol\":28796:28816  pool.lastRewardBlock */\n      0x02\n      add\n      sload\n        /* \"contracts/MetaMasterChef.sol\":28781:28793  block.number */\n      number\n        /* \"contracts/MetaMasterChef.sol\":28781:28816  block.number > pool.lastRewardBlock */\n      gt\n        /* \"contracts/MetaMasterChef.sol\":28781:28833  block.number > pool.lastRewardBlock && lpSupply != 0 */\n      dup1\n      iszero\n      tag_259\n      jumpi\n      pop\n        /* \"contracts/MetaMasterChef.sol\":28832:28833  0 */\n      0x00\n        /* \"contracts/MetaMasterChef.sol\":28820:28828  lpSupply */\n      dup2\n        /* \"contracts/MetaMasterChef.sol\":28820:28833  lpSupply != 0 */\n      eq\n      iszero\n        /* \"contracts/MetaMasterChef.sol\":28781:28833  block.number > pool.lastRewardBlock && lpSupply != 0 */\n    tag_259:\n        /* \"contracts/MetaMasterChef.sol\":28777:29121  if (block.number > pool.lastRewardBlock && lpSupply != 0) {\r... */\n      iszero\n      tag_260\n      jumpi\n        /* \"contracts/MetaMasterChef.sol\":28850:28868  uint256 multiplier */\n      0x00\n        /* \"contracts/MetaMasterChef.sol\":28871:28920  getMultiplier(pool.lastRewardBlock, block.number) */\n      tag_261\n        /* \"contracts/MetaMasterChef.sol\":28885:28889  pool */\n      dup6\n        /* \"contracts/MetaMasterChef.sol\":28885:28905  pool.lastRewardBlock */\n      0x02\n      add\n      sload\n        /* \"contracts/MetaMasterChef.sol\":28907:28919  block.number */\n      number\n        /* \"contracts/MetaMasterChef.sol\":28871:28884  getMultiplier */\n      tag_126\n        /* \"contracts/MetaMasterChef.sol\":28871:28920  getMultiplier(pool.lastRewardBlock, block.number) */\n      jump\t// in\n    tag_261:\n        /* \"contracts/MetaMasterChef.sol\":28850:28920  uint256 multiplier = getMultiplier(pool.lastRewardBlock, block.number) */\n      swap1\n      pop\n        /* \"contracts/MetaMasterChef.sol\":28935:28952  uint256 DRGReward */\n      0x00\n        /* \"contracts/MetaMasterChef.sol\":28955:29024  multiplier.mul(DRGPerBlock).mul(pool.allocPoint).div(totalAllocPoint) */\n      tag_262\n        /* \"contracts/MetaMasterChef.sol\":29008:29023  totalAllocPoint */\n      sload(0x09)\n        /* \"contracts/MetaMasterChef.sol\":28955:29003  multiplier.mul(DRGPerBlock).mul(pool.allocPoint) */\n      tag_263\n        /* \"contracts/MetaMasterChef.sol\":28987:28991  pool */\n      dup9\n        /* \"contracts/MetaMasterChef.sol\":28987:29002  pool.allocPoint */\n      0x01\n      add\n      sload\n        /* \"contracts/MetaMasterChef.sol\":28955:28982  multiplier.mul(DRGPerBlock) */\n      tag_264\n        /* \"contracts/MetaMasterChef.sol\":28970:28981  DRGPerBlock */\n      sload(0x04)\n        /* \"contracts/MetaMasterChef.sol\":28955:28965  multiplier */\n      dup8\n        /* \"contracts/MetaMasterChef.sol\":28955:28969  multiplier.mul */\n      tag_170\n      swap1\n        /* \"contracts/MetaMasterChef.sol\":28955:28982  multiplier.mul(DRGPerBlock) */\n      swap2\n      swap1\n      0xffffffff\n      and\n      jump\t// in\n    tag_264:\n        /* \"contracts/MetaMasterChef.sol\":28955:28986  multiplier.mul(DRGPerBlock).mul */\n      tag_170\n      swap1\n        /* \"contracts/MetaMasterChef.sol\":28955:29003  multiplier.mul(DRGPerBlock).mul(pool.allocPoint) */\n      swap2\n      swap1\n      0xffffffff\n      and\n      jump\t// in\n    tag_263:\n        /* \"contracts/MetaMasterChef.sol\":28955:29007  multiplier.mul(DRGPerBlock).mul(pool.allocPoint).div */\n      tag_171\n      swap1\n        /* \"contracts/MetaMasterChef.sol\":28955:29024  multiplier.mul(DRGPerBlock).mul(pool.allocPoint).div(totalAllocPoint) */\n      swap2\n      swap1\n      0xffffffff\n      and\n      jump\t// in\n    tag_262:\n        /* \"contracts/MetaMasterChef.sol\":28935:29024  uint256 DRGReward = multiplier.mul(DRGPerBlock).mul(pool.allocPoint).div(totalAllocPoint) */\n      swap1\n      pop\n        /* \"contracts/MetaMasterChef.sol\":29056:29109  accDRGPerShare.add(DRGReward.mul(1e12).div(lpSupply)) */\n      tag_265\n        /* \"contracts/MetaMasterChef.sol\":29075:29108  DRGReward.mul(1e12).div(lpSupply) */\n      tag_266\n        /* \"contracts/MetaMasterChef.sol\":29099:29107  lpSupply */\n      dup5\n        /* \"contracts/MetaMasterChef.sol\":29075:29094  DRGReward.mul(1e12) */\n      tag_267\n        /* \"contracts/MetaMasterChef.sol\":29089:29093  1e12 */\n      0xe8d4a51000\n        /* \"contracts/MetaMasterChef.sol\":29075:29084  DRGReward */\n      dup6\n        /* \"contracts/MetaMasterChef.sol\":29075:29088  DRGReward.mul */\n      tag_170\n      swap1\n        /* \"contracts/MetaMasterChef.sol\":29075:29094  DRGReward.mul(1e12) */\n      swap2\n      swap1\n      0xffffffff\n      and\n      jump\t// in\n    tag_267:\n        /* \"contracts/MetaMasterChef.sol\":29075:29098  DRGReward.mul(1e12).div */\n      tag_171\n      swap1\n        /* \"contracts/MetaMasterChef.sol\":29075:29108  DRGReward.mul(1e12).div(lpSupply) */\n      swap2\n      swap1\n      0xffffffff\n      and\n      jump\t// in\n    tag_266:\n        /* \"contracts/MetaMasterChef.sol\":29056:29070  accDRGPerShare */\n      dup6\n        /* \"contracts/MetaMasterChef.sol\":29056:29074  accDRGPerShare.add */\n      tag_202\n      swap1\n        /* \"contracts/MetaMasterChef.sol\":29056:29109  accDRGPerShare.add(DRGReward.mul(1e12).div(lpSupply)) */\n      swap2\n      swap1\n      0xffffffff\n      and\n      jump\t// in\n    tag_265:\n        /* \"contracts/MetaMasterChef.sol\":29039:29109  accDRGPerShare = accDRGPerShare.add(DRGReward.mul(1e12).div(lpSupply)) */\n      swap4\n      pop\n        /* \"contracts/MetaMasterChef.sol\":28835:29121  {\r... */\n      pop\n      pop\n        /* \"contracts/MetaMasterChef.sol\":28777:29121  if (block.number > pool.lastRewardBlock && lpSupply != 0) {\r... */\n    tag_260:\n        /* \"contracts/MetaMasterChef.sol\":29138:29200  user.amount.mul(accDRGPerShare).div(1e12).sub(user.rewardDebt) */\n      tag_268\n        /* \"contracts/MetaMasterChef.sol\":29184:29188  user */\n      dup4\n        /* \"contracts/MetaMasterChef.sol\":29184:29199  user.rewardDebt */\n      0x01\n      add\n      sload\n        /* \"contracts/MetaMasterChef.sol\":29138:29179  user.amount.mul(accDRGPerShare).div(1e12) */\n      tag_269\n        /* \"contracts/MetaMasterChef.sol\":29174:29178  1e12 */\n      0xe8d4a51000\n        /* \"contracts/MetaMasterChef.sol\":29138:29169  user.amount.mul(accDRGPerShare) */\n      tag_270\n        /* \"contracts/MetaMasterChef.sol\":29154:29168  accDRGPerShare */\n      dup7\n        /* \"contracts/MetaMasterChef.sol\":29138:29142  user */\n      dup9\n        /* \"contracts/MetaMasterChef.sol\":29138:29149  user.amount */\n      0x00\n      add\n      sload\n        /* \"contracts/MetaMasterChef.sol\":29138:29153  user.amount.mul */\n      tag_170\n      swap1\n        /* \"contracts/MetaMasterChef.sol\":29138:29169  user.amount.mul(accDRGPerShare) */\n      swap2\n      swap1\n      0xffffffff\n      and\n      jump\t// in\n    tag_270:\n        /* \"contracts/MetaMasterChef.sol\":29138:29173  user.amount.mul(accDRGPerShare).div */\n      tag_171\n      swap1\n        /* \"contracts/MetaMasterChef.sol\":29138:29179  user.amount.mul(accDRGPerShare).div(1e12) */\n      swap2\n      swap1\n      0xffffffff\n      and\n      jump\t// in\n    tag_269:\n        /* \"contracts/MetaMasterChef.sol\":29138:29183  user.amount.mul(accDRGPerShare).div(1e12).sub */\n      tag_172\n      swap1\n        /* \"contracts/MetaMasterChef.sol\":29138:29200  user.amount.mul(accDRGPerShare).div(1e12).sub(user.rewardDebt) */\n      swap2\n      swap1\n      0xffffffff\n      and\n      jump\t// in\n    tag_268:\n        /* \"contracts/MetaMasterChef.sol\":29131:29200  return user.amount.mul(accDRGPerShare).div(1e12).sub(user.rewardDebt) */\n      swap5\n      pop\n      pop\n      pop\n      pop\n      pop\n        /* \"contracts/MetaMasterChef.sol\":28479:29208  function pendingDRG(uint256 _pid, address _user) external view returns (uint256){\r... */\n      swap3\n      swap2\n      pop\n      pop\n      jump\t// out\n        /* \"contracts/MetaMasterChef.sol\":29547:30252  function updatePool(uint256 _pid) public {\r... */\n    tag_84:\n        /* \"contracts/MetaMasterChef.sol\":29599:29620  PoolInfo storage pool */\n      0x00\n        /* \"contracts/MetaMasterChef.sol\":29623:29631  poolInfo */\n      0x07\n        /* \"contracts/MetaMasterChef.sol\":29632:29636  _pid */\n      dup3\n        /* \"contracts/MetaMasterChef.sol\":29623:29637  poolInfo[_pid] */\n      dup2\n      sload\n      dup2\n      lt\n      tag_272\n      jumpi\n      tag_273\n      tag_163\n      jump\t// in\n    tag_273:\n    tag_272:\n      swap1\n      0x00\n      mstore\n      keccak256(0x00, 0x20)\n      swap1\n      0x06\n      mul\n      add\n        /* \"contracts/MetaMasterChef.sol\":29599:29637  PoolInfo storage pool = poolInfo[_pid] */\n      swap1\n      pop\n        /* \"contracts/MetaMasterChef.sol\":29668:29672  pool */\n      dup1\n        /* \"contracts/MetaMasterChef.sol\":29668:29688  pool.lastRewardBlock */\n      0x02\n      add\n      sload\n        /* \"contracts/MetaMasterChef.sol\":29652:29664  block.number */\n      number\n        /* \"contracts/MetaMasterChef.sol\":29652:29688  block.number <= pool.lastRewardBlock */\n      gt\n        /* \"contracts/MetaMasterChef.sol\":29648:29723  if (block.number <= pool.lastRewardBlock) {\r... */\n      tag_275\n      jumpi\n        /* \"contracts/MetaMasterChef.sol\":29705:29712  return; */\n      pop\n      jump(tag_271)\n        /* \"contracts/MetaMasterChef.sol\":29648:29723  if (block.number <= pool.lastRewardBlock) {\r... */\n    tag_275:\n        /* \"contracts/MetaMasterChef.sol\":29733:29749  uint256 lpSupply */\n      0x00\n        /* \"contracts/MetaMasterChef.sol\":29752:29763  poolBalance */\n      0x0b\n        /* \"contracts/MetaMasterChef.sol\":29752:29769  poolBalance[_pid] */\n      0x00\n        /* \"contracts/MetaMasterChef.sol\":29764:29768  _pid */\n      dup5\n        /* \"contracts/MetaMasterChef.sol\":29752:29769  poolBalance[_pid] */\n      dup2\n      mstore\n      0x20\n      add\n      swap1\n      dup2\n      mstore\n      0x20\n      add\n      0x00\n      keccak256\n      sload\n        /* \"contracts/MetaMasterChef.sol\":29733:29769  uint256 lpSupply = poolBalance[_pid] */\n      swap1\n      pop\n        /* \"contracts/MetaMasterChef.sol\":29796:29797  0 */\n      0x00\n        /* \"contracts/MetaMasterChef.sol\":29784:29792  lpSupply */\n      dup2\n        /* \"contracts/MetaMasterChef.sol\":29784:29797  lpSupply <= 0 */\n      gt\n        /* \"contracts/MetaMasterChef.sol\":29780:29882  if (lpSupply <= 0) {\r... */\n      tag_276\n      jumpi\n        /* \"contracts/MetaMasterChef.sol\":29837:29849  block.number */\n      number\n        /* \"contracts/MetaMasterChef.sol\":29814:29818  pool */\n      dup3\n        /* \"contracts/MetaMasterChef.sol\":29814:29834  pool.lastRewardBlock */\n      0x02\n      add\n        /* \"contracts/MetaMasterChef.sol\":29814:29849  pool.lastRewardBlock = block.number */\n      dup2\n      swap1\n      sstore\n      pop\n        /* \"contracts/MetaMasterChef.sol\":29864:29871  return; */\n      pop\n      pop\n      jump(tag_271)\n        /* \"contracts/MetaMasterChef.sol\":29780:29882  if (lpSupply <= 0) {\r... */\n    tag_276:\n        /* \"contracts/MetaMasterChef.sol\":29892:29910  uint256 multiplier */\n      0x00\n        /* \"contracts/MetaMasterChef.sol\":29913:29962  getMultiplier(pool.lastRewardBlock, block.number) */\n      tag_277\n        /* \"contracts/MetaMasterChef.sol\":29927:29931  pool */\n      dup4\n        /* \"contracts/MetaMasterChef.sol\":29927:29947  pool.lastRewardBlock */\n      0x02\n      add\n      sload\n        /* \"contracts/MetaMasterChef.sol\":29949:29961  block.number */\n      number\n        /* \"contracts/MetaMasterChef.sol\":29913:29926  getMultiplier */\n      tag_126\n        /* \"contracts/MetaMasterChef.sol\":29913:29962  getMultiplier(pool.lastRewardBlock, block.number) */\n      jump\t// in\n    tag_277:\n        /* \"contracts/MetaMasterChef.sol\":29892:29962  uint256 multiplier = getMultiplier(pool.lastRewardBlock, block.number) */\n      swap1\n      pop\n        /* \"contracts/MetaMasterChef.sol\":29973:29990  uint256 DRGReward */\n      0x00\n        /* \"contracts/MetaMasterChef.sol\":29993:30062  multiplier.mul(DRGPerBlock).mul(pool.allocPoint).div(totalAllocPoint) */\n      tag_278\n        /* \"contracts/MetaMasterChef.sol\":30046:30061  totalAllocPoint */\n      sload(0x09)\n        /* \"contracts/MetaMasterChef.sol\":29993:30041  multiplier.mul(DRGPerBlock).mul(pool.allocPoint) */\n      tag_279\n        /* \"contracts/MetaMasterChef.sol\":30025:30029  pool */\n      dup7\n        /* \"contracts/MetaMasterChef.sol\":30025:30040  pool.allocPoint */\n      0x01\n      add\n      sload\n        /* \"contracts/MetaMasterChef.sol\":29993:30020  multiplier.mul(DRGPerBlock) */\n      tag_280\n        /* \"contracts/MetaMasterChef.sol\":30008:30019  DRGPerBlock */\n      sload(0x04)\n        /* \"contracts/MetaMasterChef.sol\":29993:30003  multiplier */\n      dup8\n        /* \"contracts/MetaMasterChef.sol\":29993:30007  multiplier.mul */\n      tag_170\n      swap1\n        /* \"contracts/MetaMasterChef.sol\":29993:30020  multiplier.mul(DRGPerBlock) */\n      swap2\n      swap1\n      0xffffffff\n      and\n      jump\t// in\n    tag_280:\n        /* \"contracts/MetaMasterChef.sol\":29993:30024  multiplier.mul(DRGPerBlock).mul */\n      tag_170\n      swap1\n        /* \"contracts/MetaMasterChef.sol\":29993:30041  multiplier.mul(DRGPerBlock).mul(pool.allocPoint) */\n      swap2\n      swap1\n      0xffffffff\n      and\n      jump\t// in\n    tag_279:\n        /* \"contracts/MetaMasterChef.sol\":29993:30045  multiplier.mul(DRGPerBlock).mul(pool.allocPoint).div */\n      tag_171\n      swap1\n        /* \"contracts/MetaMasterChef.sol\":29993:30062  multiplier.mul(DRGPerBlock).mul(pool.allocPoint).div(totalAllocPoint) */\n      swap2\n      swap1\n      0xffffffff\n      and\n      jump\t// in\n    tag_278:\n        /* \"contracts/MetaMasterChef.sol\":29973:30062  uint256 DRGReward = multiplier.mul(DRGPerBlock).mul(pool.allocPoint).div(totalAllocPoint) */\n      swap1\n      pop\n        /* \"contracts/MetaMasterChef.sol\":30073:30076  DRG */\n      0x02\n      0x00\n      swap1\n      sload\n      swap1\n      0x0100\n      exp\n      swap1\n      div\n      0xffffffffffffffffffffffffffffffffffffffff\n      and\n        /* \"contracts/MetaMasterChef.sol\":30073:30081  DRG.mint */\n      0xffffffffffffffffffffffffffffffffffffffff\n      and\n      0x40c10f19\n        /* \"contracts/MetaMasterChef.sol\":30090:30094  this */\n      address\n        /* \"contracts/MetaMasterChef.sol\":30097:30106  DRGReward */\n      dup4\n        /* \"contracts/MetaMasterChef.sol\":30073:30107  DRG.mint(address(this), DRGReward) */\n      mload(0x40)\n      dup4\n      0xffffffff\n      and\n      0xe0\n      shl\n      dup2\n      mstore\n      0x04\n      add\n      tag_281\n      swap3\n      swap2\n      swap1\n      tag_282\n      jump\t// in\n    tag_281:\n      0x20\n      mload(0x40)\n      dup1\n      dup4\n      sub\n      dup2\n      0x00\n      dup8\n      dup1\n      extcodesize\n      iszero\n      dup1\n      iszero\n      tag_283\n      jumpi\n      0x00\n      dup1\n      revert\n    tag_283:\n      pop\n      gas\n      call\n      iszero\n      dup1\n      iszero\n      tag_285\n      jumpi\n      returndatasize\n      0x00\n      dup1\n      returndatacopy\n      revert(0x00, returndatasize)\n    tag_285:\n      pop\n      pop\n      pop\n      pop\n      mload(0x40)\n      returndatasize\n      not(0x1f)\n      0x1f\n      dup3\n      add\n      and\n      dup3\n      add\n      dup1\n      0x40\n      mstore\n      pop\n      dup2\n      add\n      swap1\n      tag_286\n      swap2\n      swap1\n      tag_287\n      jump\t// in\n    tag_286:\n      pop\n        /* \"contracts/MetaMasterChef.sol\":30140:30198  pool.accDRGPerShare.add(DRGReward.mul(1e12).div(lpSupply)) */\n      tag_288\n        /* \"contracts/MetaMasterChef.sol\":30164:30197  DRGReward.mul(1e12).div(lpSupply) */\n      tag_289\n        /* \"contracts/MetaMasterChef.sol\":30188:30196  lpSupply */\n      dup5\n        /* \"contracts/MetaMasterChef.sol\":30164:30183  DRGReward.mul(1e12) */\n      tag_290\n        /* \"contracts/MetaMasterChef.sol\":30178:30182  1e12 */\n      0xe8d4a51000\n        /* \"contracts/MetaMasterChef.sol\":30164:30173  DRGReward */\n      dup6\n        /* \"contracts/MetaMasterChef.sol\":30164:30177  DRGReward.mul */\n      tag_170\n      swap1\n        /* \"contracts/MetaMasterChef.sol\":30164:30183  DRGReward.mul(1e12) */\n      swap2\n      swap1\n      0xffffffff\n      and\n      jump\t// in\n    tag_290:\n        /* \"contracts/MetaMasterChef.sol\":30164:30187  DRGReward.mul(1e12).div */\n      tag_171\n      swap1\n        /* \"contracts/MetaMasterChef.sol\":30164:30197  DRGReward.mul(1e12).div(lpSupply) */\n      swap2\n      swap1\n      0xffffffff\n      and\n      jump\t// in\n    tag_289:\n        /* \"contracts/MetaMasterChef.sol\":30140:30144  pool */\n      dup6\n        /* \"contracts/MetaMasterChef.sol\":30140:30159  pool.accDRGPerShare */\n      0x03\n      add\n      sload\n        /* \"contracts/MetaMasterChef.sol\":30140:30163  pool.accDRGPerShare.add */\n      tag_202\n      swap1\n        /* \"contracts/MetaMasterChef.sol\":30140:30198  pool.accDRGPerShare.add(DRGReward.mul(1e12).div(lpSupply)) */\n      swap2\n      swap1\n      0xffffffff\n      and\n      jump\t// in\n    tag_288:\n        /* \"contracts/MetaMasterChef.sol\":30118:30122  pool */\n      dup5\n        /* \"contracts/MetaMasterChef.sol\":30118:30137  pool.accDRGPerShare */\n      0x03\n      add\n        /* \"contracts/MetaMasterChef.sol\":30118:30198  pool.accDRGPerShare = pool.accDRGPerShare.add(DRGReward.mul(1e12).div(lpSupply)) */\n      dup2\n      swap1\n      sstore\n      pop\n        /* \"contracts/MetaMasterChef.sol\":30232:30244  block.number */\n      number\n        /* \"contracts/MetaMasterChef.sol\":30209:30213  pool */\n      dup5\n        /* \"contracts/MetaMasterChef.sol\":30209:30229  pool.lastRewardBlock */\n      0x02\n      add\n        /* \"contracts/MetaMasterChef.sol\":30209:30244  pool.lastRewardBlock = block.number */\n      dup2\n      swap1\n      sstore\n      pop\n        /* \"contracts/MetaMasterChef.sol\":29588:30252  {\r... */\n      pop\n      pop\n      pop\n      pop\n        /* \"contracts/MetaMasterChef.sol\":29547:30252  function updatePool(uint256 _pid) public {\r... */\n    tag_271:\n      pop\n      jump\t// out\n        /* \"contracts/MetaMasterChef.sol\":33684:34040  function emergencyWithdraw(uint256 _pid) public {\r... */\n    tag_87:\n        /* \"contracts/MetaMasterChef.sol\":33743:33764  PoolInfo storage pool */\n      0x00\n        /* \"contracts/MetaMasterChef.sol\":33767:33775  poolInfo */\n      0x07\n        /* \"contracts/MetaMasterChef.sol\":33776:33780  _pid */\n      dup3\n        /* \"contracts/MetaMasterChef.sol\":33767:33781  poolInfo[_pid] */\n      dup2\n      sload\n      dup2\n      lt\n      tag_292\n      jumpi\n      tag_293\n      tag_163\n      jump\t// in\n    tag_293:\n    tag_292:\n      swap1\n      0x00\n      mstore\n      keccak256(0x00, 0x20)\n      swap1\n      0x06\n      mul\n      add\n        /* \"contracts/MetaMasterChef.sol\":33743:33781  PoolInfo storage pool = poolInfo[_pid] */\n      swap1\n      pop\n        /* \"contracts/MetaMasterChef.sol\":33792:33813  UserInfo storage user */\n      0x00\n        /* \"contracts/MetaMasterChef.sol\":33816:33824  userInfo */\n      0x08\n        /* \"contracts/MetaMasterChef.sol\":33816:33830  userInfo[_pid] */\n      0x00\n        /* \"contracts/MetaMasterChef.sol\":33825:33829  _pid */\n      dup5\n        /* \"contracts/MetaMasterChef.sol\":33816:33830  userInfo[_pid] */\n      dup2\n      mstore\n      0x20\n      add\n      swap1\n      dup2\n      mstore\n      0x20\n      add\n      0x00\n      keccak256\n        /* \"contracts/MetaMasterChef.sol\":33816:33842  userInfo[_pid][msg.sender] */\n      0x00\n        /* \"contracts/MetaMasterChef.sol\":33831:33841  msg.sender */\n      caller\n        /* \"contracts/MetaMasterChef.sol\":33816:33842  userInfo[_pid][msg.sender] */\n      0xffffffffffffffffffffffffffffffffffffffff\n      and\n      0xffffffffffffffffffffffffffffffffffffffff\n      and\n      dup2\n      mstore\n      0x20\n      add\n      swap1\n      dup2\n      mstore\n      0x20\n      add\n      0x00\n      keccak256\n        /* \"contracts/MetaMasterChef.sol\":33792:33842  UserInfo storage user = userInfo[_pid][msg.sender] */\n      swap1\n      pop\n        /* \"contracts/MetaMasterChef.sol\":33853:33912  pool.lpToken.safeTransfer(address(msg.sender), user.amount) */\n      tag_295\n        /* \"contracts/MetaMasterChef.sol\":33887:33897  msg.sender */\n      caller\n        /* \"contracts/MetaMasterChef.sol\":33900:33904  user */\n      dup3\n        /* \"contracts/MetaMasterChef.sol\":33900:33911  user.amount */\n      0x00\n      add\n      sload\n        /* \"contracts/MetaMasterChef.sol\":33853:33857  pool */\n      dup5\n        /* \"contracts/MetaMasterChef.sol\":33853:33865  pool.lpToken */\n      0x00\n      add\n      0x00\n      swap1\n      sload\n      swap1\n      0x0100\n      exp\n      swap1\n      div\n      0xffffffffffffffffffffffffffffffffffffffff\n      and\n        /* \"contracts/MetaMasterChef.sol\":33853:33878  pool.lpToken.safeTransfer */\n      0xffffffffffffffffffffffffffffffffffffffff\n      and\n      tag_213\n      swap1\n        /* \"contracts/MetaMasterChef.sol\":33853:33912  pool.lpToken.safeTransfer(address(msg.sender), user.amount) */\n      swap3\n      swap2\n      swap1\n      0xffffffff\n      and\n      jump\t// in\n    tag_295:\n        /* \"contracts/MetaMasterChef.sol\":33958:33962  _pid */\n      dup3\n        /* \"contracts/MetaMasterChef.sol\":33946:33956  msg.sender */\n      caller\n        /* \"contracts/MetaMasterChef.sol\":33928:33976  EmergencyWithdraw(msg.sender, _pid, user.amount) */\n      0xffffffffffffffffffffffffffffffffffffffff\n      and\n      0xbb757047c2b5f3974fe26b7c10f732e7bce710b0952a71082702781e62ae0595\n        /* \"contracts/MetaMasterChef.sol\":33964:33968  user */\n      dup4\n        /* \"contracts/MetaMasterChef.sol\":33964:33975  user.amount */\n      0x00\n      add\n      sload\n        /* \"contracts/MetaMasterChef.sol\":33928:33976  EmergencyWithdraw(msg.sender, _pid, user.amount) */\n      mload(0x40)\n      tag_296\n      swap2\n      swap1\n      tag_50\n      jump\t// in\n    tag_296:\n      mload(0x40)\n      dup1\n      swap2\n      sub\n      swap1\n      log3\n        /* \"contracts/MetaMasterChef.sol\":34001:34002  0 */\n      0x00\n        /* \"contracts/MetaMasterChef.sol\":33987:33991  user */\n      dup2\n        /* \"contracts/MetaMasterChef.sol\":33987:33998  user.amount */\n      0x00\n      add\n        /* \"contracts/MetaMasterChef.sol\":33987:34002  user.amount = 0 */\n      dup2\n      swap1\n      sstore\n      pop\n        /* \"contracts/MetaMasterChef.sol\":34031:34032  0 */\n      0x00\n        /* \"contracts/MetaMasterChef.sol\":34013:34017  user */\n      dup2\n        /* \"contracts/MetaMasterChef.sol\":34013:34028  user.rewardDebt */\n      0x01\n      add\n        /* \"contracts/MetaMasterChef.sol\":34013:34032  user.rewardDebt = 0 */\n      dup2\n      swap1\n      sstore\n      pop\n        /* \"contracts/MetaMasterChef.sol\":33732:34040  {\r... */\n      pop\n      pop\n        /* \"contracts/MetaMasterChef.sol\":33684:34040  function emergencyWithdraw(uint256 _pid) public {\r... */\n      pop\n      jump\t// out\n        /* \"contracts/MetaMasterChef.sol\":25828:25951  function updateMultiplier(uint256 multiplierNumber) public onlyOwner {\r... */\n    tag_90:\n        /* \"contracts/MetaMasterChef.sol\":20336:20348  _msgSender() */\n      tag_298\n        /* \"contracts/MetaMasterChef.sol\":20336:20346  _msgSender */\n      tag_218\n        /* \"contracts/MetaMasterChef.sol\":20336:20348  _msgSender() */\n      jump\t// in\n    tag_298:\n        /* \"contracts/MetaMasterChef.sol\":20325:20348  owner() == _msgSender() */\n      0xffffffffffffffffffffffffffffffffffffffff\n      and\n        /* \"contracts/MetaMasterChef.sol\":20325:20332  owner() */\n      tag_299\n        /* \"contracts/MetaMasterChef.sol\":20325:20330  owner */\n      tag_120\n        /* \"contracts/MetaMasterChef.sol\":20325:20332  owner() */\n      jump\t// in\n    tag_299:\n        /* \"contracts/MetaMasterChef.sol\":20325:20348  owner() == _msgSender() */\n      0xffffffffffffffffffffffffffffffffffffffff\n      and\n      eq\n        /* \"contracts/MetaMasterChef.sol\":20317:20385  require(owner() == _msgSender(), \"Ownable: caller is not the owner\") */\n      tag_300\n      jumpi\n      mload(0x40)\n      0x08c379a000000000000000000000000000000000000000000000000000000000\n      dup2\n      mstore\n      0x04\n      add\n      tag_301\n      swap1\n      tag_222\n      jump\t// in\n    tag_301:\n      mload(0x40)\n      dup1\n      swap2\n      sub\n      swap1\n      revert\n    tag_300:\n        /* \"contracts/MetaMasterChef.sol\":25927:25943  multiplierNumber */\n      dup1\n        /* \"contracts/MetaMasterChef.sol\":25908:25924  BONUS_MULTIPLIER */\n      0x05\n        /* \"contracts/MetaMasterChef.sol\":25908:25943  BONUS_MULTIPLIER = multiplierNumber */\n      dup2\n      swap1\n      sstore\n      pop\n        /* \"contracts/MetaMasterChef.sol\":25828:25951  function updateMultiplier(uint256 multiplierNumber) public onlyOwner {\r... */\n      pop\n      jump\t// out\n        /* \"contracts/MetaMasterChef.sol\":26062:26149  function updateLpFee(uint256 _lpFee) public onlyOwner {\r... */\n    tag_93:\n        /* \"contracts/MetaMasterChef.sol\":20336:20348  _msgSender() */\n      tag_304\n        /* \"contracts/MetaMasterChef.sol\":20336:20346  _msgSender */\n      tag_218\n        /* \"contracts/MetaMasterChef.sol\":20336:20348  _msgSender() */\n      jump\t// in\n    tag_304:\n        /* \"contracts/MetaMasterChef.sol\":20325:20348  owner() == _msgSender() */\n      0xffffffffffffffffffffffffffffffffffffffff\n      and\n        /* \"contracts/MetaMasterChef.sol\":20325:20332  owner() */\n      tag_305\n        /* \"contracts/MetaMasterChef.sol\":20325:20330  owner */\n      tag_120\n        /* \"contracts/MetaMasterChef.sol\":20325:20332  owner() */\n      jump\t// in\n    tag_305:\n        /* \"contracts/MetaMasterChef.sol\":20325:20348  owner() == _msgSender() */\n      0xffffffffffffffffffffffffffffffffffffffff\n      and\n      eq\n        /* \"contracts/MetaMasterChef.sol\":20317:20385  require(owner() == _msgSender(), \"Ownable: caller is not the owner\") */\n      tag_306\n      jumpi\n      mload(0x40)\n      0x08c379a000000000000000000000000000000000000000000000000000000000\n      dup2\n      mstore\n      0x04\n      add\n      tag_307\n      swap1\n      tag_222\n      jump\t// in\n    tag_307:\n      mload(0x40)\n      dup1\n      swap2\n      sub\n      swap1\n      revert\n    tag_306:\n        /* \"contracts/MetaMasterChef.sol\":26135:26141  _lpFee */\n      dup1\n        /* \"contracts/MetaMasterChef.sol\":26127:26132  lpFee */\n      0x0c\n        /* \"contracts/MetaMasterChef.sol\":26127:26141  lpFee = _lpFee */\n      dup2\n      swap1\n      sstore\n      pop\n        /* \"contracts/MetaMasterChef.sol\":26062:26149  function updateLpFee(uint256 _lpFee) public onlyOwner {\r... */\n      pop\n      jump\t// out\n        /* \"contracts/MetaMasterChef.sol\":29291:29471  function massUpdatePools() public {\r... */\n    tag_95:\n        /* \"contracts/MetaMasterChef.sol\":29336:29350  uint256 length */\n      0x00\n        /* \"contracts/MetaMasterChef.sol\":29353:29361  poolInfo */\n      0x07\n        /* \"contracts/MetaMasterChef.sol\":29353:29368  poolInfo.length */\n      dup1\n      sload\n      swap1\n      pop\n        /* \"contracts/MetaMasterChef.sol\":29336:29368  uint256 length = poolInfo.length */\n      swap1\n      pop\n        /* \"contracts/MetaMasterChef.sol\":29384:29395  uint256 pid */\n      0x00\n        /* \"contracts/MetaMasterChef.sol\":29379:29464  for (uint256 pid = 0; pid < length; ++pid) {\r... */\n    tag_310:\n        /* \"contracts/MetaMasterChef.sol\":29407:29413  length */\n      dup2\n        /* \"contracts/MetaMasterChef.sol\":29401:29404  pid */\n      dup2\n        /* \"contracts/MetaMasterChef.sol\":29401:29413  pid < length */\n      lt\n        /* \"contracts/MetaMasterChef.sol\":29379:29464  for (uint256 pid = 0; pid < length; ++pid) {\r... */\n      iszero\n      tag_311\n      jumpi\n        /* \"contracts/MetaMasterChef.sol\":29437:29452  updatePool(pid) */\n      tag_313\n        /* \"contracts/MetaMasterChef.sol\":29448:29451  pid */\n      dup2\n        /* \"contracts/MetaMasterChef.sol\":29437:29447  updatePool */\n      tag_84\n        /* \"contracts/MetaMasterChef.sol\":29437:29452  updatePool(pid) */\n      jump\t// in\n    tag_313:\n        /* \"contracts/MetaMasterChef.sol\":29415:29420  ++pid */\n      dup1\n      tag_314\n      swap1\n      tag_315\n      jump\t// in\n    tag_314:\n      swap1\n      pop\n        /* \"contracts/MetaMasterChef.sol\":29379:29464  for (uint256 pid = 0; pid < length; ++pid) {\r... */\n      jump(tag_310)\n    tag_311:\n      pop\n        /* \"contracts/MetaMasterChef.sol\":29325:29471  {\r... */\n      pop\n        /* \"contracts/MetaMasterChef.sol\":29291:29471  function massUpdatePools() public {\r... */\n      jump\t// out\n        /* \"contracts/MetaMasterChef.sol\":27114:27419  function set( uint256 _pid, uint256 _allocPoint, bool _withUpdate) public onlyOwner {\r... */\n    tag_99:\n        /* \"contracts/MetaMasterChef.sol\":20336:20348  _msgSender() */\n      tag_317\n        /* \"contracts/MetaMasterChef.sol\":20336:20346  _msgSender */\n      tag_218\n        /* \"contracts/MetaMasterChef.sol\":20336:20348  _msgSender() */\n      jump\t// in\n    tag_317:\n        /* \"contracts/MetaMasterChef.sol\":20325:20348  owner() == _msgSender() */\n      0xffffffffffffffffffffffffffffffffffffffff\n      and\n        /* \"contracts/MetaMasterChef.sol\":20325:20332  owner() */\n      tag_318\n        /* \"contracts/MetaMasterChef.sol\":20325:20330  owner */\n      tag_120\n        /* \"contracts/MetaMasterChef.sol\":20325:20332  owner() */\n      jump\t// in\n    tag_318:\n        /* \"contracts/MetaMasterChef.sol\":20325:20348  owner() == _msgSender() */\n      0xffffffffffffffffffffffffffffffffffffffff\n      and\n      eq\n        /* \"contracts/MetaMasterChef.sol\":20317:20385  require(owner() == _msgSender(), \"Ownable: caller is not the owner\") */\n      tag_319\n      jumpi\n      mload(0x40)\n      0x08c379a000000000000000000000000000000000000000000000000000000000\n      dup2\n      mstore\n      0x04\n      add\n      tag_320\n      swap1\n      tag_222\n      jump\t// in\n    tag_320:\n      mload(0x40)\n      dup1\n      swap2\n      sub\n      swap1\n      revert\n    tag_319:\n        /* \"contracts/MetaMasterChef.sol\":27213:27224  _withUpdate */\n      dup1\n        /* \"contracts/MetaMasterChef.sol\":27209:27270  if (_withUpdate) {\r... */\n      iszero\n      tag_322\n      jumpi\n        /* \"contracts/MetaMasterChef.sol\":27241:27258  massUpdatePools() */\n      tag_323\n        /* \"contracts/MetaMasterChef.sol\":27241:27256  massUpdatePools */\n      tag_95\n        /* \"contracts/MetaMasterChef.sol\":27241:27258  massUpdatePools() */\n      jump\t// in\n    tag_323:\n        /* \"contracts/MetaMasterChef.sol\":27209:27270  if (_withUpdate) {\r... */\n    tag_322:\n        /* \"contracts/MetaMasterChef.sol\":27298:27361  totalAllocPoint.sub(poolInfo[_pid].allocPoint).add(_allocPoint) */\n      tag_324\n        /* \"contracts/MetaMasterChef.sol\":27349:27360  _allocPoint */\n      dup3\n        /* \"contracts/MetaMasterChef.sol\":27298:27344  totalAllocPoint.sub(poolInfo[_pid].allocPoint) */\n      tag_325\n        /* \"contracts/MetaMasterChef.sol\":27318:27326  poolInfo */\n      0x07\n        /* \"contracts/MetaMasterChef.sol\":27327:27331  _pid */\n      dup7\n        /* \"contracts/MetaMasterChef.sol\":27318:27332  poolInfo[_pid] */\n      dup2\n      sload\n      dup2\n      lt\n      tag_326\n      jumpi\n      tag_327\n      tag_163\n      jump\t// in\n    tag_327:\n    tag_326:\n      swap1\n      0x00\n      mstore\n      keccak256(0x00, 0x20)\n      swap1\n      0x06\n      mul\n      add\n        /* \"contracts/MetaMasterChef.sol\":27318:27343  poolInfo[_pid].allocPoint */\n      0x01\n      add\n      sload\n        /* \"contracts/MetaMasterChef.sol\":27298:27313  totalAllocPoint */\n      sload(0x09)\n        /* \"contracts/MetaMasterChef.sol\":27298:27317  totalAllocPoint.sub */\n      tag_172\n      swap1\n        /* \"contracts/MetaMasterChef.sol\":27298:27344  totalAllocPoint.sub(poolInfo[_pid].allocPoint) */\n      swap2\n      swap1\n      0xffffffff\n      and\n      jump\t// in\n    tag_325:\n        /* \"contracts/MetaMasterChef.sol\":27298:27348  totalAllocPoint.sub(poolInfo[_pid].allocPoint).add */\n      tag_202\n      swap1\n        /* \"contracts/MetaMasterChef.sol\":27298:27361  totalAllocPoint.sub(poolInfo[_pid].allocPoint).add(_allocPoint) */\n      swap2\n      swap1\n      0xffffffff\n      and\n      jump\t// in\n    tag_324:\n        /* \"contracts/MetaMasterChef.sol\":27280:27295  totalAllocPoint */\n      0x09\n        /* \"contracts/MetaMasterChef.sol\":27280:27361  totalAllocPoint = totalAllocPoint.sub(poolInfo[_pid].allocPoint).add(_allocPoint) */\n      dup2\n      swap1\n      sstore\n      pop\n        /* \"contracts/MetaMasterChef.sol\":27400:27411  _allocPoint */\n      dup2\n        /* \"contracts/MetaMasterChef.sol\":27372:27380  poolInfo */\n      0x07\n        /* \"contracts/MetaMasterChef.sol\":27381:27385  _pid */\n      dup5\n        /* \"contracts/MetaMasterChef.sol\":27372:27386  poolInfo[_pid] */\n      dup2\n      sload\n      dup2\n      lt\n      tag_329\n      jumpi\n      tag_330\n      tag_163\n      jump\t// in\n    tag_330:\n    tag_329:\n      swap1\n      0x00\n      mstore\n      keccak256(0x00, 0x20)\n      swap1\n      0x06\n      mul\n      add\n        /* \"contracts/MetaMasterChef.sol\":27372:27397  poolInfo[_pid].allocPoint */\n      0x01\n      add\n        /* \"contracts/MetaMasterChef.sol\":27372:27411  poolInfo[_pid].allocPoint = _allocPoint */\n      dup2\n      swap1\n      sstore\n      pop\n        /* \"contracts/MetaMasterChef.sol\":27114:27419  function set( uint256 _pid, uint256 _allocPoint, bool _withUpdate) public onlyOwner {\r... */\n      pop\n      pop\n      pop\n      jump\t// out\n        /* \"contracts/MetaMasterChef.sol\":33437:33613  function emergencyWithdrawFromBSW(uint256 _pid) public onlyOwner {\r... */\n    tag_102:\n        /* \"contracts/MetaMasterChef.sol\":20336:20348  _msgSender() */\n      tag_333\n        /* \"contracts/MetaMasterChef.sol\":20336:20346  _msgSender */\n      tag_218\n        /* \"contracts/MetaMasterChef.sol\":20336:20348  _msgSender() */\n      jump\t// in\n    tag_333:\n        /* \"contracts/MetaMasterChef.sol\":20325:20348  owner() == _msgSender() */\n      0xffffffffffffffffffffffffffffffffffffffff\n      and\n        /* \"contracts/MetaMasterChef.sol\":20325:20332  owner() */\n      tag_334\n        /* \"contracts/MetaMasterChef.sol\":20325:20330  owner */\n      tag_120\n        /* \"contracts/MetaMasterChef.sol\":20325:20332  owner() */\n      jump\t// in\n    tag_334:\n        /* \"contracts/MetaMasterChef.sol\":20325:20348  owner() == _msgSender() */\n      0xffffffffffffffffffffffffffffffffffffffff\n      and\n      eq\n        /* \"contracts/MetaMasterChef.sol\":20317:20385  require(owner() == _msgSender(), \"Ownable: caller is not the owner\") */\n      tag_335\n      jumpi\n      mload(0x40)\n      0x08c379a000000000000000000000000000000000000000000000000000000000\n      dup2\n      mstore\n      0x04\n      add\n      tag_336\n      swap1\n      tag_222\n      jump\t// in\n    tag_336:\n      mload(0x40)\n      dup1\n      swap2\n      sub\n      swap1\n      revert\n    tag_335:\n        /* \"contracts/MetaMasterChef.sol\":33513:33534  PoolInfo storage pool */\n      0x00\n        /* \"contracts/MetaMasterChef.sol\":33537:33545  poolInfo */\n      0x07\n        /* \"contracts/MetaMasterChef.sol\":33546:33550  _pid */\n      dup3\n        /* \"contracts/MetaMasterChef.sol\":33537:33551  poolInfo[_pid] */\n      dup2\n      sload\n      dup2\n      lt\n      tag_338\n      jumpi\n      tag_339\n      tag_163\n      jump\t// in\n    tag_339:\n    tag_338:\n      swap1\n      0x00\n      mstore\n      keccak256(0x00, 0x20)\n      swap1\n      0x06\n      mul\n      add\n        /* \"contracts/MetaMasterChef.sol\":33513:33551  PoolInfo storage pool = poolInfo[_pid] */\n      swap1\n      pop\n        /* \"contracts/MetaMasterChef.sol\":33562:33566  pool */\n      dup1\n        /* \"contracts/MetaMasterChef.sol\":33562:33581  pool.poolMasterChef */\n      0x04\n      add\n      0x00\n      swap1\n      sload\n      swap1\n      0x0100\n      exp\n      swap1\n      div\n      0xffffffffffffffffffffffffffffffffffffffff\n      and\n        /* \"contracts/MetaMasterChef.sol\":33562:33599  pool.poolMasterChef.emergencyWithdraw */\n      0xffffffffffffffffffffffffffffffffffffffff\n      and\n      0x5312ea8e\n        /* \"contracts/MetaMasterChef.sol\":33600:33604  _pid */\n      dup4\n        /* \"contracts/MetaMasterChef.sol\":33562:33605  pool.poolMasterChef.emergencyWithdraw(_pid) */\n      mload(0x40)\n      dup3\n      0xffffffff\n      and\n      0xe0\n      shl\n      dup2\n      mstore\n      0x04\n      add\n      tag_341\n      swap2\n      swap1\n      tag_50\n      jump\t// in\n    tag_341:\n      0x00\n      mload(0x40)\n      dup1\n      dup4\n      sub\n      dup2\n      0x00\n      dup8\n      dup1\n      extcodesize\n      iszero\n      dup1\n      iszero\n      tag_342\n      jumpi\n      0x00\n      dup1\n      revert\n    tag_342:\n      pop\n      gas\n      call\n      iszero\n      dup1\n      iszero\n      tag_344\n      jumpi\n      returndatasize\n      0x00\n      dup1\n      returndatacopy\n      revert(0x00, returndatasize)\n    tag_344:\n      pop\n      pop\n      pop\n      pop\n        /* \"contracts/MetaMasterChef.sol\":33502:33613  {\r... */\n      pop\n        /* \"contracts/MetaMasterChef.sol\":33437:33613  function emergencyWithdrawFromBSW(uint256 _pid) public onlyOwner {\r... */\n      pop\n      jump\t// out\n        /* \"contracts/MetaMasterChef.sol\":24978:25025  mapping (uint256 => uint256) public poolBalance */\n    tag_105:\n      mstore(0x20, 0x0b)\n      dup1\n      0x00\n      mstore\n      keccak256(0x00, 0x40)\n      0x00\n      swap2\n      pop\n      swap1\n      pop\n      sload\n      dup2\n      jump\t// out\n        /* \"contracts/MetaMasterChef.sol\":25034:25054  uint256 public lpFee */\n    tag_108:\n      sload(0x0c)\n      dup2\n      jump\t// out\n        /* \"contracts/MetaMasterChef.sol\":20756:20859  function renounceOwnership() public virtual onlyOwner {\r... */\n    tag_111:\n        /* \"contracts/MetaMasterChef.sol\":20336:20348  _msgSender() */\n      tag_346\n        /* \"contracts/MetaMasterChef.sol\":20336:20346  _msgSender */\n      tag_218\n        /* \"contracts/MetaMasterChef.sol\":20336:20348  _msgSender() */\n      jump\t// in\n    tag_346:\n        /* \"contracts/MetaMasterChef.sol\":20325:20348  owner() == _msgSender() */\n      0xffffffffffffffffffffffffffffffffffffffff\n      and\n        /* \"contracts/MetaMasterChef.sol\":20325:20332  owner() */\n      tag_347\n        /* \"contracts/MetaMasterChef.sol\":20325:20330  owner */\n      tag_120\n        /* \"contracts/MetaMasterChef.sol\":20325:20332  owner() */\n      jump\t// in\n    tag_347:\n        /* \"contracts/MetaMasterChef.sol\":20325:20348  owner() == _msgSender() */\n      0xffffffffffffffffffffffffffffffffffffffff\n      and\n      eq\n        /* \"contracts/MetaMasterChef.sol\":20317:20385  require(owner() == _msgSender(), \"Ownable: caller is not the owner\") */\n      tag_348\n      jumpi\n      mload(0x40)\n      0x08c379a000000000000000000000000000000000000000000000000000000000\n      dup2\n      mstore\n      0x04\n      add\n      tag_349\n      swap1\n      tag_222\n      jump\t// in\n    tag_349:\n      mload(0x40)\n      dup1\n      swap2\n      sub\n      swap1\n      revert\n    tag_348:\n        /* \"contracts/MetaMasterChef.sol\":20821:20851  _transferOwnership(address(0)) */\n      tag_351\n        /* \"contracts/MetaMasterChef.sol\":20848:20849  0 */\n      0x00\n        /* \"contracts/MetaMasterChef.sol\":20821:20839  _transferOwnership */\n      tag_352\n        /* \"contracts/MetaMasterChef.sol\":20821:20851  _transferOwnership(address(0)) */\n      jump\t// in\n    tag_351:\n        /* \"contracts/MetaMasterChef.sol\":20756:20859  function renounceOwnership() public virtual onlyOwner {\r... */\n      jump\t// out\n        /* \"contracts/MetaMasterChef.sol\":24550:24579  IMigratorChef public migrator */\n    tag_113:\n      0x06\n      0x00\n      swap1\n      sload\n      swap1\n      0x0100\n      exp\n      swap1\n      div\n      0xffffffffffffffffffffffffffffffffffffffff\n      and\n      dup2\n      jump\t// out\n        /* \"contracts/MetaMasterChef.sol\":24410:24445  uint256 public BONUS_MULTIPLIER = 1 */\n    tag_117:\n      sload(0x05)\n      dup2\n      jump\t// out\n        /* \"contracts/MetaMasterChef.sol\":20105:20192  function owner() public view virtual returns (address) {\r... */\n    tag_120:\n        /* \"contracts/MetaMasterChef.sol\":20151:20158  address */\n      0x00\n        /* \"contracts/MetaMasterChef.sol\":20178:20184  _owner */\n      dup1\n      0x00\n      swap1\n      sload\n      swap1\n      0x0100\n      exp\n      swap1\n      div\n      0xffffffffffffffffffffffffffffffffffffffff\n      and\n        /* \"contracts/MetaMasterChef.sol\":20171:20184  return _owner */\n      swap1\n      pop\n        /* \"contracts/MetaMasterChef.sol\":20105:20192  function owner() public view virtual returns (address) {\r... */\n      swap1\n      jump\t// out\n        /* \"contracts/MetaMasterChef.sol\":28272:28416  function getMultiplier(uint256 _from, uint256 _to) public view returns (uint256) {\r... */\n    tag_126:\n        /* \"contracts/MetaMasterChef.sol\":28344:28351  uint256 */\n      0x00\n        /* \"contracts/MetaMasterChef.sol\":28372:28408  _to.sub(_from).mul(BONUS_MULTIPLIER) */\n      tag_355\n        /* \"contracts/MetaMasterChef.sol\":28391:28407  BONUS_MULTIPLIER */\n      sload(0x05)\n        /* \"contracts/MetaMasterChef.sol\":28372:28386  _to.sub(_from) */\n      tag_356\n        /* \"contracts/MetaMasterChef.sol\":28380:28385  _from */\n      dup6\n        /* \"contracts/MetaMasterChef.sol\":28372:28375  _to */\n      dup6\n        /* \"contracts/MetaMasterChef.sol\":28372:28379  _to.sub */\n      tag_172\n      swap1\n        /* \"contracts/MetaMasterChef.sol\":28372:28386  _to.sub(_from) */\n      swap2\n      swap1\n      0xffffffff\n      and\n      jump\t// in\n    tag_356:\n        /* \"contracts/MetaMasterChef.sol\":28372:28390  _to.sub(_from).mul */\n      tag_170\n      swap1\n        /* \"contracts/MetaMasterChef.sol\":28372:28408  _to.sub(_from).mul(BONUS_MULTIPLIER) */\n      swap2\n      swap1\n      0xffffffff\n      and\n      jump\t// in\n    tag_355:\n        /* \"contracts/MetaMasterChef.sol\":28365:28408  return _to.sub(_from).mul(BONUS_MULTIPLIER) */\n      swap1\n      pop\n        /* \"contracts/MetaMasterChef.sol\":28272:28416  function getMultiplier(uint256 _from, uint256 _to) public view returns (uint256) {\r... */\n      swap3\n      swap2\n      pop\n      pop\n      jump\t// out\n        /* \"contracts/MetaMasterChef.sol\":24695:24759  mapping(uint256 => mapping(address => UserInfo)) public userInfo */\n    tag_130:\n      mstore(0x20, 0x08)\n      dup2\n      0x00\n      mstore\n      mstore(0x20, keccak256(0x00, 0x40))\n      dup1\n      0x00\n      mstore\n      keccak256(0x00, 0x40)\n      0x00\n      swap2\n      pop\n      swap2\n      pop\n      pop\n      dup1\n      0x00\n      add\n      sload\n      swap1\n      dup1\n      0x01\n      add\n      sload\n      swap1\n      pop\n      dup3\n      jump\t// out\n        /* \"contracts/MetaMasterChef.sol\":24331:24357  uint256 public DRGPerBlock */\n    tag_134:\n      sload(0x04)\n      dup2\n      jump\t// out\n        /* \"contracts/MetaMasterChef.sol\":32294:33429  function withdraw(uint256 _pid, uint256 _BSWPid, uint256 _amount) public {\r... */\n    tag_138:\n        /* \"contracts/MetaMasterChef.sol\":32380:32401  PoolInfo storage pool */\n      0x00\n        /* \"contracts/MetaMasterChef.sol\":32404:32412  poolInfo */\n      0x07\n        /* \"contracts/MetaMasterChef.sol\":32413:32417  _pid */\n      dup5\n        /* \"contracts/MetaMasterChef.sol\":32404:32418  poolInfo[_pid] */\n      dup2\n      sload\n      dup2\n      lt\n      tag_358\n      jumpi\n      tag_359\n      tag_163\n      jump\t// in\n    tag_359:\n    tag_358:\n      swap1\n      0x00\n      mstore\n      keccak256(0x00, 0x20)\n      swap1\n      0x06\n      mul\n      add\n        /* \"contracts/MetaMasterChef.sol\":32380:32418  PoolInfo storage pool = poolInfo[_pid] */\n      swap1\n      pop\n        /* \"contracts/MetaMasterChef.sol\":32429:32450  UserInfo storage user */\n      0x00\n        /* \"contracts/MetaMasterChef.sol\":32453:32461  userInfo */\n      0x08\n        /* \"contracts/MetaMasterChef.sol\":32453:32467  userInfo[_pid] */\n      0x00\n        /* \"contracts/MetaMasterChef.sol\":32462:32466  _pid */\n      dup7\n        /* \"contracts/MetaMasterChef.sol\":32453:32467  userInfo[_pid] */\n      dup2\n      mstore\n      0x20\n      add\n      swap1\n      dup2\n      mstore\n      0x20\n      add\n      0x00\n      keccak256\n        /* \"contracts/MetaMasterChef.sol\":32453:32479  userInfo[_pid][msg.sender] */\n      0x00\n        /* \"contracts/MetaMasterChef.sol\":32468:32478  msg.sender */\n      caller\n        /* \"contracts/MetaMasterChef.sol\":32453:32479  userInfo[_pid][msg.sender] */\n      0xffffffffffffffffffffffffffffffffffffffff\n      and\n      0xffffffffffffffffffffffffffffffffffffffff\n      and\n      dup2\n      mstore\n      0x20\n      add\n      swap1\n      dup2\n      mstore\n      0x20\n      add\n      0x00\n      keccak256\n        /* \"contracts/MetaMasterChef.sol\":32429:32479  UserInfo storage user = userInfo[_pid][msg.sender] */\n      swap1\n      pop\n        /* \"contracts/MetaMasterChef.sol\":32513:32520  _amount */\n      dup3\n        /* \"contracts/MetaMasterChef.sol\":32498:32502  user */\n      dup2\n        /* \"contracts/MetaMasterChef.sol\":32498:32509  user.amount */\n      0x00\n      add\n      sload\n        /* \"contracts/MetaMasterChef.sol\":32498:32520  user.amount >= _amount */\n      lt\n      iszero\n        /* \"contracts/MetaMasterChef.sol\":32490:32543  require(user.amount >= _amount, \"withdraw: not good\") */\n      tag_361\n      jumpi\n      mload(0x40)\n      0x08c379a000000000000000000000000000000000000000000000000000000000\n      dup2\n      mstore\n      0x04\n      add\n      tag_362\n      swap1\n      tag_363\n      jump\t// in\n    tag_362:\n      mload(0x40)\n      dup1\n      swap2\n      sub\n      swap1\n      revert\n    tag_361:\n        /* \"contracts/MetaMasterChef.sol\":32554:32570  updatePool(_pid) */\n      tag_364\n        /* \"contracts/MetaMasterChef.sol\":32565:32569  _pid */\n      dup6\n        /* \"contracts/MetaMasterChef.sol\":32554:32564  updatePool */\n      tag_84\n        /* \"contracts/MetaMasterChef.sol\":32554:32570  updatePool(_pid) */\n      jump\t// in\n    tag_364:\n        /* \"contracts/MetaMasterChef.sol\":32581:32596  uint256 pending */\n      0x00\n        /* \"contracts/MetaMasterChef.sol\":32599:32666  user.amount.mul(pool.accDRGPerShare).div(1e12).sub(user.rewardDebt) */\n      tag_365\n        /* \"contracts/MetaMasterChef.sol\":32650:32654  user */\n      dup3\n        /* \"contracts/MetaMasterChef.sol\":32650:32665  user.rewardDebt */\n      0x01\n      add\n      sload\n        /* \"contracts/MetaMasterChef.sol\":32599:32645  user.amount.mul(pool.accDRGPerShare).div(1e12) */\n      tag_366\n        /* \"contracts/MetaMasterChef.sol\":32640:32644  1e12 */\n      0xe8d4a51000\n        /* \"contracts/MetaMasterChef.sol\":32599:32635  user.amount.mul(pool.accDRGPerShare) */\n      tag_367\n        /* \"contracts/MetaMasterChef.sol\":32615:32619  pool */\n      dup8\n        /* \"contracts/MetaMasterChef.sol\":32615:32634  pool.accDRGPerShare */\n      0x03\n      add\n      sload\n        /* \"contracts/MetaMasterChef.sol\":32599:32603  user */\n      dup8\n        /* \"contracts/MetaMasterChef.sol\":32599:32610  user.amount */\n      0x00\n      add\n      sload\n        /* \"contracts/MetaMasterChef.sol\":32599:32614  user.amount.mul */\n      tag_170\n      swap1\n        /* \"contracts/MetaMasterChef.sol\":32599:32635  user.amount.mul(pool.accDRGPerShare) */\n      swap2\n      swap1\n      0xffffffff\n      and\n      jump\t// in\n    tag_367:\n        /* \"contracts/MetaMasterChef.sol\":32599:32639  user.amount.mul(pool.accDRGPerShare).div */\n      tag_171\n      swap1\n        /* \"contracts/MetaMasterChef.sol\":32599:32645  user.amount.mul(pool.accDRGPerShare).div(1e12) */\n      swap2\n      swap1\n      0xffffffff\n      and\n      jump\t// in\n    tag_366:\n        /* \"contracts/MetaMasterChef.sol\":32599:32649  user.amount.mul(pool.accDRGPerShare).div(1e12).sub */\n      tag_172\n      swap1\n        /* \"contracts/MetaMasterChef.sol\":32599:32666  user.amount.mul(pool.accDRGPerShare).div(1e12).sub(user.rewardDebt) */\n      swap2\n      swap1\n      0xffffffff\n      and\n      jump\t// in\n    tag_365:\n        /* \"contracts/MetaMasterChef.sol\":32581:32666  uint256 pending = user.amount.mul(pool.accDRGPerShare).div(1e12).sub(user.rewardDebt) */\n      swap1\n      pop\n        /* \"contracts/MetaMasterChef.sol\":32690:32691  0 */\n      0x00\n        /* \"contracts/MetaMasterChef.sol\":32680:32687  pending */\n      dup2\n        /* \"contracts/MetaMasterChef.sol\":32680:32691  pending > 0 */\n      gt\n        /* \"contracts/MetaMasterChef.sol\":32677:32774  if(pending > 0){\r... */\n      iszero\n      tag_368\n      jumpi\n        /* \"contracts/MetaMasterChef.sol\":32707:32762  NFTMasterChefEnterStaking(address(msg.sender), pending) */\n      tag_369\n        /* \"contracts/MetaMasterChef.sol\":32741:32751  msg.sender */\n      caller\n        /* \"contracts/MetaMasterChef.sol\":32754:32761  pending */\n      dup3\n        /* \"contracts/MetaMasterChef.sol\":32707:32732  NFTMasterChefEnterStaking */\n      tag_175\n        /* \"contracts/MetaMasterChef.sol\":32707:32762  NFTMasterChefEnterStaking(address(msg.sender), pending) */\n      jump\t// in\n    tag_369:\n        /* \"contracts/MetaMasterChef.sol\":32677:32774  if(pending > 0){\r... */\n    tag_368:\n        /* \"contracts/MetaMasterChef.sol\":32798:32822  user.amount.sub(_amount) */\n      tag_370\n        /* \"contracts/MetaMasterChef.sol\":32814:32821  _amount */\n      dup5\n        /* \"contracts/MetaMasterChef.sol\":32798:32802  user */\n      dup4\n        /* \"contracts/MetaMasterChef.sol\":32798:32809  user.amount */\n      0x00\n      add\n      sload\n        /* \"contracts/MetaMasterChef.sol\":32798:32813  user.amount.sub */\n      tag_172\n      swap1\n        /* \"contracts/MetaMasterChef.sol\":32798:32822  user.amount.sub(_amount) */\n      swap2\n      swap1\n      0xffffffff\n      and\n      jump\t// in\n    tag_370:\n        /* \"contracts/MetaMasterChef.sol\":32784:32788  user */\n      dup3\n        /* \"contracts/MetaMasterChef.sol\":32784:32795  user.amount */\n      0x00\n      add\n        /* \"contracts/MetaMasterChef.sol\":32784:32822  user.amount = user.amount.sub(_amount) */\n      dup2\n      swap1\n      sstore\n      pop\n        /* \"contracts/MetaMasterChef.sol\":32853:32883  poolBalance[_pid].sub(_amount) */\n      tag_371\n        /* \"contracts/MetaMasterChef.sol\":32875:32882  _amount */\n      dup5\n        /* \"contracts/MetaMasterChef.sol\":32853:32864  poolBalance */\n      0x0b\n        /* \"contracts/MetaMasterChef.sol\":32853:32870  poolBalance[_pid] */\n      0x00\n        /* \"contracts/MetaMasterChef.sol\":32865:32869  _pid */\n      dup10\n        /* \"contracts/MetaMasterChef.sol\":32853:32870  poolBalance[_pid] */\n      dup2\n      mstore\n      0x20\n      add\n      swap1\n      dup2\n      mstore\n      0x20\n      add\n      0x00\n      keccak256\n      sload\n        /* \"contracts/MetaMasterChef.sol\":32853:32874  poolBalance[_pid].sub */\n      tag_172\n      swap1\n        /* \"contracts/MetaMasterChef.sol\":32853:32883  poolBalance[_pid].sub(_amount) */\n      swap2\n      swap1\n      0xffffffff\n      and\n      jump\t// in\n    tag_371:\n        /* \"contracts/MetaMasterChef.sol\":32833:32844  poolBalance */\n      0x0b\n        /* \"contracts/MetaMasterChef.sol\":32833:32850  poolBalance[_pid] */\n      0x00\n        /* \"contracts/MetaMasterChef.sol\":32845:32849  _pid */\n      dup9\n        /* \"contracts/MetaMasterChef.sol\":32833:32850  poolBalance[_pid] */\n      dup2\n      mstore\n      0x20\n      add\n      swap1\n      dup2\n      mstore\n      0x20\n      add\n      0x00\n      keccak256\n        /* \"contracts/MetaMasterChef.sol\":32833:32883  poolBalance[_pid] = poolBalance[_pid].sub(_amount) */\n      dup2\n      swap1\n      sstore\n      pop\n        /* \"contracts/MetaMasterChef.sol\":32912:32958  user.amount.mul(pool.accDRGPerShare).div(1e12) */\n      tag_372\n        /* \"contracts/MetaMasterChef.sol\":32953:32957  1e12 */\n      0xe8d4a51000\n        /* \"contracts/MetaMasterChef.sol\":32912:32948  user.amount.mul(pool.accDRGPerShare) */\n      tag_373\n        /* \"contracts/MetaMasterChef.sol\":32928:32932  pool */\n      dup6\n        /* \"contracts/MetaMasterChef.sol\":32928:32947  pool.accDRGPerShare */\n      0x03\n      add\n      sload\n        /* \"contracts/MetaMasterChef.sol\":32912:32916  user */\n      dup6\n        /* \"contracts/MetaMasterChef.sol\":32912:32923  user.amount */\n      0x00\n      add\n      sload\n        /* \"contracts/MetaMasterChef.sol\":32912:32927  user.amount.mul */\n      tag_170\n      swap1\n        /* \"contracts/MetaMasterChef.sol\":32912:32948  user.amount.mul(pool.accDRGPerShare) */\n      swap2\n      swap1\n      0xffffffff\n      and\n      jump\t// in\n    tag_373:\n        /* \"contracts/MetaMasterChef.sol\":32912:32952  user.amount.mul(pool.accDRGPerShare).div */\n      tag_171\n      swap1\n        /* \"contracts/MetaMasterChef.sol\":32912:32958  user.amount.mul(pool.accDRGPerShare).div(1e12) */\n      swap2\n      swap1\n      0xffffffff\n      and\n      jump\t// in\n    tag_372:\n        /* \"contracts/MetaMasterChef.sol\":32894:32898  user */\n      dup3\n        /* \"contracts/MetaMasterChef.sol\":32894:32909  user.rewardDebt */\n      0x01\n      add\n        /* \"contracts/MetaMasterChef.sol\":32894:32958  user.rewardDebt = user.amount.mul(pool.accDRGPerShare).div(1e12) */\n      dup2\n      swap1\n      sstore\n      pop\n        /* \"contracts/MetaMasterChef.sol\":32983:32984  0 */\n      0x00\n        /* \"contracts/MetaMasterChef.sol\":32972:32979  _BSWPid */\n      dup6\n        /* \"contracts/MetaMasterChef.sol\":32972:32984  _BSWPid == 0 */\n      eq\n        /* \"contracts/MetaMasterChef.sol\":32969:33130  if(_BSWPid == 0){\r... */\n      iszero\n      tag_374\n      jumpi\n        /* \"contracts/MetaMasterChef.sol\":33000:33004  pool */\n      dup3\n        /* \"contracts/MetaMasterChef.sol\":33000:33019  pool.poolMasterChef */\n      0x04\n      add\n      0x00\n      swap1\n      sload\n      swap1\n      0x0100\n      exp\n      swap1\n      div\n      0xffffffffffffffffffffffffffffffffffffffff\n      and\n        /* \"contracts/MetaMasterChef.sol\":33000:33032  pool.poolMasterChef.leaveStaking */\n      0xffffffffffffffffffffffffffffffffffffffff\n      and\n      0x1058d281\n        /* \"contracts/MetaMasterChef.sol\":33033:33040  _amount */\n      dup6\n        /* \"contracts/MetaMasterChef.sol\":33000:33041  pool.poolMasterChef.leaveStaking(_amount) */\n      mload(0x40)\n      dup3\n      0xffffffff\n      and\n      0xe0\n      shl\n      dup2\n      mstore\n      0x04\n      add\n      tag_375\n      swap2\n      swap1\n      tag_50\n      jump\t// in\n    tag_375:\n      0x00\n      mload(0x40)\n      dup1\n      dup4\n      sub\n      dup2\n      0x00\n      dup8\n      dup1\n      extcodesize\n      iszero\n      dup1\n      iszero\n      tag_376\n      jumpi\n      0x00\n      dup1\n      revert\n    tag_376:\n      pop\n      gas\n      call\n      iszero\n      dup1\n      iszero\n      tag_378\n      jumpi\n      returndatasize\n      0x00\n      dup1\n      returndatacopy\n      revert(0x00, returndatasize)\n    tag_378:\n      pop\n      pop\n      pop\n      pop\n        /* \"contracts/MetaMasterChef.sol\":32969:33130  if(_BSWPid == 0){\r... */\n      jump(tag_379)\n    tag_374:\n        /* \"contracts/MetaMasterChef.sol\":33072:33076  pool */\n      dup3\n        /* \"contracts/MetaMasterChef.sol\":33072:33091  pool.poolMasterChef */\n      0x04\n      add\n      0x00\n      swap1\n      sload\n      swap1\n      0x0100\n      exp\n      swap1\n      div\n      0xffffffffffffffffffffffffffffffffffffffff\n      and\n        /* \"contracts/MetaMasterChef.sol\":33072:33100  pool.poolMasterChef.withdraw */\n      0xffffffffffffffffffffffffffffffffffffffff\n      and\n      0x441a3e70\n        /* \"contracts/MetaMasterChef.sol\":33101:33108  _BSWPid */\n      dup7\n        /* \"contracts/MetaMasterChef.sol\":33110:33117  _amount */\n      dup7\n        /* \"contracts/MetaMasterChef.sol\":33072:33118  pool.poolMasterChef.withdraw(_BSWPid, _amount) */\n      mload(0x40)\n      dup4\n      0xffffffff\n      and\n      0xe0\n      shl\n      dup2\n      mstore\n      0x04\n      add\n      tag_380\n      swap3\n      swap2\n      swap1\n      tag_132\n      jump\t// in\n    tag_380:\n      0x00\n      mload(0x40)\n      dup1\n      dup4\n      sub\n      dup2\n      0x00\n      dup8\n      dup1\n      extcodesize\n      iszero\n      dup1\n      iszero\n      tag_381\n      jumpi\n      0x00\n      dup1\n      revert\n    tag_381:\n      pop\n      gas\n      call\n      iszero\n      dup1\n      iszero\n      tag_383\n      jumpi\n      returndatasize\n      0x00\n      dup1\n      returndatacopy\n      revert(0x00, returndatasize)\n    tag_383:\n      pop\n      pop\n      pop\n      pop\n        /* \"contracts/MetaMasterChef.sol\":32969:33130  if(_BSWPid == 0){\r... */\n    tag_379:\n        /* \"contracts/MetaMasterChef.sol\":33140:33195  pool.lpToken.safeTransfer(address(msg.sender), _amount) */\n      tag_384\n        /* \"contracts/MetaMasterChef.sol\":33174:33184  msg.sender */\n      caller\n        /* \"contracts/MetaMasterChef.sol\":33187:33194  _amount */\n      dup6\n        /* \"contracts/MetaMasterChef.sol\":33140:33144  pool */\n      dup6\n        /* \"contracts/MetaMasterChef.sol\":33140:33152  pool.lpToken */\n      0x00\n      add\n      0x00\n      swap1\n      sload\n      swap1\n      0x0100\n      exp\n      swap1\n      div\n      0xffffffffffffffffffffffffffffffffffffffff\n      and\n        /* \"contracts/MetaMasterChef.sol\":33140:33165  pool.lpToken.safeTransfer */\n      0xffffffffffffffffffffffffffffffffffffffff\n      and\n      tag_213\n      swap1\n        /* \"contracts/MetaMasterChef.sol\":33140:33195  pool.lpToken.safeTransfer(address(msg.sender), _amount) */\n      swap3\n      swap2\n      swap1\n      0xffffffff\n      and\n      jump\t// in\n    tag_384:\n        /* \"contracts/MetaMasterChef.sol\":33206:33220  uint256 reward */\n      0x00\n        /* \"contracts/MetaMasterChef.sol\":33223:33227  pool */\n      dup4\n        /* \"contracts/MetaMasterChef.sol\":33223:33239  pool.rewardToken */\n      0x05\n      add\n      0x00\n      swap1\n      sload\n      swap1\n      0x0100\n      exp\n      swap1\n      div\n      0xffffffffffffffffffffffffffffffffffffffff\n      and\n        /* \"contracts/MetaMasterChef.sol\":33223:33249  pool.rewardToken.balanceOf */\n      0xffffffffffffffffffffffffffffffffffffffff\n      and\n      0x70a08231\n        /* \"contracts/MetaMasterChef.sol\":33258:33262  this */\n      address\n        /* \"contracts/MetaMasterChef.sol\":33223:33264  pool.rewardToken.balanceOf(address(this)) */\n      mload(0x40)\n      dup3\n      0xffffffff\n      and\n      0xe0\n      shl\n      dup2\n      mstore\n      0x04\n      add\n      tag_385\n      swap2\n      swap1\n      tag_122\n      jump\t// in\n    tag_385:\n      0x20\n      mload(0x40)\n      dup1\n      dup4\n      sub\n      dup2\n      dup7\n      dup1\n      extcodesize\n      iszero\n      dup1\n      iszero\n      tag_386\n      jumpi\n      0x00\n      dup1\n      revert\n    tag_386:\n      pop\n      gas\n      staticcall\n      iszero\n      dup1\n      iszero\n      tag_388\n      jumpi\n      returndatasize\n      0x00\n      dup1\n      returndatacopy\n      revert(0x00, returndatasize)\n    tag_388:\n      pop\n      pop\n      pop\n      pop\n      mload(0x40)\n      returndatasize\n      not(0x1f)\n      0x1f\n      dup3\n      add\n      and\n      dup3\n      add\n      dup1\n      0x40\n      mstore\n      pop\n      dup2\n      add\n      swap1\n      tag_389\n      swap2\n      swap1\n      tag_182\n      jump\t// in\n    tag_389:\n        /* \"contracts/MetaMasterChef.sol\":33206:33264  uint256 reward = pool.rewardToken.balanceOf(address(this)) */\n      swap1\n      pop\n        /* \"contracts/MetaMasterChef.sol\":33287:33288  0 */\n      0x00\n        /* \"contracts/MetaMasterChef.sol\":33278:33284  reward */\n      dup2\n        /* \"contracts/MetaMasterChef.sol\":33278:33288  reward > 0 */\n      gt\n        /* \"contracts/MetaMasterChef.sol\":33275:33371  if(reward > 0){\r... */\n      iszero\n      tag_390\n      jumpi\n        /* \"contracts/MetaMasterChef.sol\":33304:33359  pool.rewardToken.safeTransfer(address(devaddr), reward) */\n      tag_391\n        /* \"contracts/MetaMasterChef.sol\":33342:33349  devaddr */\n      0x03\n      0x00\n      swap1\n      sload\n      swap1\n      0x0100\n      exp\n      swap1\n      div\n      0xffffffffffffffffffffffffffffffffffffffff\n      and\n        /* \"contracts/MetaMasterChef.sol\":33352:33358  reward */\n      dup3\n        /* \"contracts/MetaMasterChef.sol\":33304:33308  pool */\n      dup7\n        /* \"contracts/MetaMasterChef.sol\":33304:33320  pool.rewardToken */\n      0x05\n      add\n      0x00\n      swap1\n      sload\n      swap1\n      0x0100\n      exp\n      swap1\n      div\n      0xffffffffffffffffffffffffffffffffffffffff\n      and\n        /* \"contracts/MetaMasterChef.sol\":33304:33333  pool.rewardToken.safeTransfer */\n      0xffffffffffffffffffffffffffffffffffffffff\n      and\n      tag_213\n      swap1\n        /* \"contracts/MetaMasterChef.sol\":33304:33359  pool.rewardToken.safeTransfer(address(devaddr), reward) */\n      swap3\n      swap2\n      swap1\n      0xffffffff\n      and\n      jump\t// in\n    tag_391:\n        /* \"contracts/MetaMasterChef.sol\":33275:33371  if(reward > 0){\r... */\n    tag_390:\n        /* \"contracts/MetaMasterChef.sol\":33407:33411  _pid */\n      dup7\n        /* \"contracts/MetaMasterChef.sol\":33395:33405  msg.sender */\n      caller\n        /* \"contracts/MetaMasterChef.sol\":33386:33421  Withdraw(msg.sender, _pid, _amount) */\n      0xffffffffffffffffffffffffffffffffffffffff\n      and\n      0xf279e6a1f5e320cca91135676d9cb6e44ca8a08c0b88342bcdb1144f6511b568\n        /* \"contracts/MetaMasterChef.sol\":33413:33420  _amount */\n      dup8\n        /* \"contracts/MetaMasterChef.sol\":33386:33421  Withdraw(msg.sender, _pid, _amount) */\n      mload(0x40)\n      tag_392\n      swap2\n      swap1\n      tag_50\n      jump\t// in\n    tag_392:\n      mload(0x40)\n      dup1\n      swap2\n      sub\n      swap1\n      log3\n        /* \"contracts/MetaMasterChef.sol\":32367:33429  {\r... */\n      pop\n      pop\n      pop\n      pop\n        /* \"contracts/MetaMasterChef.sol\":32294:33429  function withdraw(uint256 _pid, uint256 _BSWPid, uint256 _amount) public {\r... */\n      pop\n      pop\n      pop\n      jump\t// out\n        /* \"contracts/MetaMasterChef.sol\":34437:34532  function setDevAddress(address _devaddr) public onlyOwner {\r... */\n    tag_142:\n        /* \"contracts/MetaMasterChef.sol\":20336:20348  _msgSender() */\n      tag_394\n        /* \"contracts/MetaMasterChef.sol\":20336:20346  _msgSender */\n      tag_218\n        /* \"contracts/MetaMasterChef.sol\":20336:20348  _msgSender() */\n      jump\t// in\n    tag_394:\n        /* \"contracts/MetaMasterChef.sol\":20325:20348  owner() == _msgSender() */\n      0xffffffffffffffffffffffffffffffffffffffff\n      and\n        /* \"contracts/MetaMasterChef.sol\":20325:20332  owner() */\n      tag_395\n        /* \"contracts/MetaMasterChef.sol\":20325:20330  owner */\n      tag_120\n        /* \"contracts/MetaMasterChef.sol\":20325:20332  owner() */\n      jump\t// in\n    tag_395:\n        /* \"contracts/MetaMasterChef.sol\":20325:20348  owner() == _msgSender() */\n      0xffffffffffffffffffffffffffffffffffffffff\n      and\n      eq\n        /* \"contracts/MetaMasterChef.sol\":20317:20385  require(owner() == _msgSender(), \"Ownable: caller is not the owner\") */\n      tag_396\n      jumpi\n      mload(0x40)\n      0x08c379a000000000000000000000000000000000000000000000000000000000\n      dup2\n      mstore\n      0x04\n      add\n      tag_397\n      swap1\n      tag_222\n      jump\t// in\n    tag_397:\n      mload(0x40)\n      dup1\n      swap2\n      sub\n      swap1\n      revert\n    tag_396:\n        /* \"contracts/MetaMasterChef.sol\":34516:34524  _devaddr */\n      dup1\n        /* \"contracts/MetaMasterChef.sol\":34506:34513  devaddr */\n      0x03\n      0x00\n        /* \"contracts/MetaMasterChef.sol\":34506:34524  devaddr = _devaddr */\n      0x0100\n      exp\n      dup2\n      sload\n      dup2\n      0xffffffffffffffffffffffffffffffffffffffff\n      mul\n      not\n      and\n      swap1\n      dup4\n      0xffffffffffffffffffffffffffffffffffffffff\n      and\n      mul\n      or\n      swap1\n      sstore\n      pop\n        /* \"contracts/MetaMasterChef.sol\":34437:34532  function setDevAddress(address _devaddr) public onlyOwner {\r... */\n      pop\n      jump\t// out\n        /* \"contracts/MetaMasterChef.sol\":24264:24286  address public devaddr */\n    tag_144:\n      0x03\n      0x00\n      swap1\n      sload\n      swap1\n      0x0100\n      exp\n      swap1\n      div\n      0xffffffffffffffffffffffffffffffffffffffff\n      and\n      dup2\n      jump\t// out\n        /* \"contracts/MetaMasterChef.sol\":24152:24187  INFTMasterChef public NFTMasterChef */\n    tag_147:\n      0x01\n      0x00\n      swap1\n      sload\n      swap1\n      0x0100\n      exp\n      swap1\n      div\n      0xffffffffffffffffffffffffffffffffffffffff\n      and\n      dup2\n      jump\t// out\n        /* \"contracts/MetaMasterChef.sol\":30466:30704  function enablePool(uint256 _pid) public {\r... */\n    tag_152:\n        /* \"contracts/MetaMasterChef.sol\":30518:30539  PoolInfo storage pool */\n      0x00\n        /* \"contracts/MetaMasterChef.sol\":30542:30550  poolInfo */\n      0x07\n        /* \"contracts/MetaMasterChef.sol\":30551:30555  _pid */\n      dup3\n        /* \"contracts/MetaMasterChef.sol\":30542:30556  poolInfo[_pid] */\n      dup2\n      sload\n      dup2\n      lt\n      tag_400\n      jumpi\n      tag_401\n      tag_163\n      jump\t// in\n    tag_401:\n    tag_400:\n      swap1\n      0x00\n      mstore\n      keccak256(0x00, 0x20)\n      swap1\n      0x06\n      mul\n      add\n        /* \"contracts/MetaMasterChef.sol\":30518:30556  PoolInfo storage pool = poolInfo[_pid] */\n      swap1\n      pop\n        /* \"contracts/MetaMasterChef.sol\":30567:30571  pool */\n      dup1\n        /* \"contracts/MetaMasterChef.sol\":30567:30579  pool.lpToken */\n      0x00\n      add\n      0x00\n      swap1\n      sload\n      swap1\n      0x0100\n      exp\n      swap1\n      div\n      0xffffffffffffffffffffffffffffffffffffffff\n      and\n        /* \"contracts/MetaMasterChef.sol\":30567:30587  pool.lpToken.approve */\n      0xffffffffffffffffffffffffffffffffffffffff\n      and\n      0x095ea7b3\n        /* \"contracts/MetaMasterChef.sol\":30596:30600  pool */\n      dup3\n        /* \"contracts/MetaMasterChef.sol\":30596:30615  pool.poolMasterChef */\n      0x04\n      add\n      0x00\n      swap1\n      sload\n      swap1\n      0x0100\n      exp\n      swap1\n      div\n      0xffffffffffffffffffffffffffffffffffffffff\n      and\n        /* \"contracts/MetaMasterChef.sol\":30617:30630  approveAmount */\n      sload(0x0d)\n        /* \"contracts/MetaMasterChef.sol\":30567:30631  pool.lpToken.approve(address(pool.poolMasterChef),approveAmount) */\n      mload(0x40)\n      dup4\n      0xffffffff\n      and\n      0xe0\n      shl\n      dup2\n      mstore\n      0x04\n      add\n      tag_403\n      swap3\n      swap2\n      swap1\n      tag_282\n      jump\t// in\n    tag_403:\n      0x20\n      mload(0x40)\n      dup1\n      dup4\n      sub\n      dup2\n      0x00\n      dup8\n      dup1\n      extcodesize\n      iszero\n      dup1\n      iszero\n      tag_404\n      jumpi\n      0x00\n      dup1\n      revert\n    tag_404:\n      pop\n      gas\n      call\n      iszero\n      dup1\n      iszero\n      tag_406\n      jumpi\n      returndatasize\n      0x00\n      dup1\n      returndatacopy\n      revert(0x00, returndatasize)\n    tag_406:\n      pop\n      pop\n      pop\n      pop\n      mload(0x40)\n      returndatasize\n      not(0x1f)\n      0x1f\n      dup3\n      add\n      and\n      dup3\n      add\n      dup1\n      0x40\n      mstore\n      pop\n      dup2\n      add\n      swap1\n      tag_407\n      swap2\n      swap1\n      tag_287\n      jump\t// in\n    tag_407:\n      pop\n        /* \"contracts/MetaMasterChef.sol\":30642:30646  pool */\n      dup1\n        /* \"contracts/MetaMasterChef.sol\":30642:30658  pool.rewardToken */\n      0x05\n      add\n      0x00\n      swap1\n      sload\n      swap1\n      0x0100\n      exp\n      swap1\n      div\n      0xffffffffffffffffffffffffffffffffffffffff\n      and\n        /* \"contracts/MetaMasterChef.sol\":30642:30666  pool.rewardToken.approve */\n      0xffffffffffffffffffffffffffffffffffffffff\n      and\n      0x095ea7b3\n        /* \"contracts/MetaMasterChef.sol\":30675:30679  this */\n      address\n        /* \"contracts/MetaMasterChef.sol\":30682:30695  approveAmount */\n      sload(0x0d)\n        /* \"contracts/MetaMasterChef.sol\":30642:30696  pool.rewardToken.approve(address(this), approveAmount) */\n      mload(0x40)\n      dup4\n      0xffffffff\n      and\n      0xe0\n      shl\n      dup2\n      mstore\n      0x04\n      add\n      tag_408\n      swap3\n      swap2\n      swap1\n      tag_282\n      jump\t// in\n    tag_408:\n      0x20\n      mload(0x40)\n      dup1\n      dup4\n      sub\n      dup2\n      0x00\n      dup8\n      dup1\n      extcodesize\n      iszero\n      dup1\n      iszero\n      tag_409\n      jumpi\n      0x00\n      dup1\n      revert\n    tag_409:\n      pop\n      gas\n      call\n      iszero\n      dup1\n      iszero\n      tag_411\n      jumpi\n      returndatasize\n      0x00\n      dup1\n      returndatacopy\n      revert(0x00, returndatasize)\n    tag_411:\n      pop\n      pop\n      pop\n      pop\n      mload(0x40)\n      returndatasize\n      not(0x1f)\n      0x1f\n      dup3\n      add\n      and\n      dup3\n      add\n      dup1\n      0x40\n      mstore\n      pop\n      dup2\n      add\n      swap1\n      tag_412\n      swap2\n      swap1\n      tag_287\n      jump\t// in\n    tag_412:\n      pop\n        /* \"contracts/MetaMasterChef.sol\":30507:30704  {\r... */\n      pop\n        /* \"contracts/MetaMasterChef.sol\":30466:30704  function enablePool(uint256 _pid) public {\r... */\n      pop\n      jump\t// out\n        /* \"contracts/MetaMasterChef.sol\":21014:21215  function transferOwnership(address newOwner) public virtual onlyOwner {\r... */\n    tag_155:\n        /* \"contracts/MetaMasterChef.sol\":20336:20348  _msgSender() */\n      tag_414\n        /* \"contracts/MetaMasterChef.sol\":20336:20346  _msgSender */\n      tag_218\n        /* \"contracts/MetaMasterChef.sol\":20336:20348  _msgSender() */\n      jump\t// in\n    tag_414:\n        /* \"contracts/MetaMasterChef.sol\":20325:20348  owner() == _msgSender() */\n      0xffffffffffffffffffffffffffffffffffffffff\n      and\n        /* \"contracts/MetaMasterChef.sol\":20325:20332  owner() */\n      tag_415\n        /* \"contracts/MetaMasterChef.sol\":20325:20330  owner */\n      tag_120\n        /* \"contracts/MetaMasterChef.sol\":20325:20332  owner() */\n      jump\t// in\n    tag_415:\n        /* \"contracts/MetaMasterChef.sol\":20325:20348  owner() == _msgSender() */\n      0xffffffffffffffffffffffffffffffffffffffff\n      and\n      eq\n        /* \"contracts/MetaMasterChef.sol\":20317:20385  require(owner() == _msgSender(), \"Ownable: caller is not the owner\") */\n      tag_416\n      jumpi\n      mload(0x40)\n      0x08c379a000000000000000000000000000000000000000000000000000000000\n      dup2\n      mstore\n      0x04\n      add\n      tag_417\n      swap1\n      tag_222\n      jump\t// in\n    tag_417:\n      mload(0x40)\n      dup1\n      swap2\n      sub\n      swap1\n      revert\n    tag_416:\n        /* \"contracts/MetaMasterChef.sol\":21123:21124  0 */\n      0x00\n        /* \"contracts/MetaMasterChef.sol\":21103:21125  newOwner != address(0) */\n      0xffffffffffffffffffffffffffffffffffffffff\n      and\n        /* \"contracts/MetaMasterChef.sol\":21103:21111  newOwner */\n      dup2\n        /* \"contracts/MetaMasterChef.sol\":21103:21125  newOwner != address(0) */\n      0xffffffffffffffffffffffffffffffffffffffff\n      and\n      eq\n      iszero\n        /* \"contracts/MetaMasterChef.sol\":21095:21168  require(newOwner != address(0), \"Ownable: new owner is the zero address\") */\n      tag_419\n      jumpi\n      mload(0x40)\n      0x08c379a000000000000000000000000000000000000000000000000000000000\n      dup2\n      mstore\n      0x04\n      add\n      tag_420\n      swap1\n      tag_421\n      jump\t// in\n    tag_420:\n      mload(0x40)\n      dup1\n      swap2\n      sub\n      swap1\n      revert\n    tag_419:\n        /* \"contracts/MetaMasterChef.sol\":21179:21207  _transferOwnership(newOwner) */\n      tag_422\n        /* \"contracts/MetaMasterChef.sol\":21198:21206  newOwner */\n      dup2\n        /* \"contracts/MetaMasterChef.sol\":21179:21197  _transferOwnership */\n      tag_352\n        /* \"contracts/MetaMasterChef.sol\":21179:21207  _transferOwnership(newOwner) */\n      jump\t// in\n    tag_422:\n        /* \"contracts/MetaMasterChef.sol\":21014:21215  function transferOwnership(address newOwner) public virtual onlyOwner {\r... */\n      pop\n      jump\t// out\n        /* \"contracts/MetaMasterChef.sol\":26318:27019  function add( uint256 _allocPoint, IERC20 _lpToken, bool _withUpdate, IMasterChef _poolMasterChef, IERC20 _rewardToken) public onlyOwner {\r... */\n    tag_159:\n        /* \"contracts/MetaMasterChef.sol\":20336:20348  _msgSender() */\n      tag_424\n        /* \"contracts/MetaMasterChef.sol\":20336:20346  _msgSender */\n      tag_218\n        /* \"contracts/MetaMasterChef.sol\":20336:20348  _msgSender() */\n      jump\t// in\n    tag_424:\n        /* \"contracts/MetaMasterChef.sol\":20325:20348  owner() == _msgSender() */\n      0xffffffffffffffffffffffffffffffffffffffff\n      and\n        /* \"contracts/MetaMasterChef.sol\":20325:20332  owner() */\n      tag_425\n        /* \"contracts/MetaMasterChef.sol\":20325:20330  owner */\n      tag_120\n        /* \"contracts/MetaMasterChef.sol\":20325:20332  owner() */\n      jump\t// in\n    tag_425:\n        /* \"contracts/MetaMasterChef.sol\":20325:20348  owner() == _msgSender() */\n      0xffffffffffffffffffffffffffffffffffffffff\n      and\n      eq\n        /* \"contracts/MetaMasterChef.sol\":20317:20385  require(owner() == _msgSender(), \"Ownable: caller is not the owner\") */\n      tag_426\n      jumpi\n      mload(0x40)\n      0x08c379a000000000000000000000000000000000000000000000000000000000\n      dup2\n      mstore\n      0x04\n      add\n      tag_427\n      swap1\n      tag_222\n      jump\t// in\n    tag_427:\n      mload(0x40)\n      dup1\n      swap2\n      sub\n      swap1\n      revert\n    tag_426:\n        /* \"contracts/MetaMasterChef.sol\":26470:26481  _withUpdate */\n      dup3\n        /* \"contracts/MetaMasterChef.sol\":26466:26527  if (_withUpdate) {\r... */\n      iszero\n      tag_429\n      jumpi\n        /* \"contracts/MetaMasterChef.sol\":26498:26515  massUpdatePools() */\n      tag_430\n        /* \"contracts/MetaMasterChef.sol\":26498:26513  massUpdatePools */\n      tag_95\n        /* \"contracts/MetaMasterChef.sol\":26498:26515  massUpdatePools() */\n      jump\t// in\n    tag_430:\n        /* \"contracts/MetaMasterChef.sol\":26466:26527  if (_withUpdate) {\r... */\n    tag_429:\n        /* \"contracts/MetaMasterChef.sol\":26537:26560  uint256 lastRewardBlock */\n      0x00\n        /* \"contracts/MetaMasterChef.sol\":26578:26588  startBlock */\n      sload(0x0a)\n        /* \"contracts/MetaMasterChef.sol\":26563:26575  block.number */\n      number\n        /* \"contracts/MetaMasterChef.sol\":26563:26588  block.number > startBlock */\n      gt\n        /* \"contracts/MetaMasterChef.sol\":26563:26616  block.number > startBlock ? block.number : startBlock */\n      tag_431\n      jumpi\n        /* \"contracts/MetaMasterChef.sol\":26606:26616  startBlock */\n      sload(0x0a)\n        /* \"contracts/MetaMasterChef.sol\":26563:26616  block.number > startBlock ? block.number : startBlock */\n      jump(tag_432)\n    tag_431:\n        /* \"contracts/MetaMasterChef.sol\":26591:26603  block.number */\n      number\n        /* \"contracts/MetaMasterChef.sol\":26563:26616  block.number > startBlock ? block.number : startBlock */\n    tag_432:\n        /* \"contracts/MetaMasterChef.sol\":26537:26616  uint256 lastRewardBlock = block.number > startBlock ? block.number : startBlock */\n      swap1\n      pop\n        /* \"contracts/MetaMasterChef.sol\":26645:26677  totalAllocPoint.add(_allocPoint) */\n      tag_433\n        /* \"contracts/MetaMasterChef.sol\":26665:26676  _allocPoint */\n      dup7\n        /* \"contracts/MetaMasterChef.sol\":26645:26660  totalAllocPoint */\n      sload(0x09)\n        /* \"contracts/MetaMasterChef.sol\":26645:26664  totalAllocPoint.add */\n      tag_202\n      swap1\n        /* \"contracts/MetaMasterChef.sol\":26645:26677  totalAllocPoint.add(_allocPoint) */\n      swap2\n      swap1\n      0xffffffff\n      and\n      jump\t// in\n    tag_433:\n        /* \"contracts/MetaMasterChef.sol\":26627:26642  totalAllocPoint */\n      0x09\n        /* \"contracts/MetaMasterChef.sol\":26627:26677  totalAllocPoint = totalAllocPoint.add(_allocPoint) */\n      dup2\n      swap1\n      sstore\n      pop\n        /* \"contracts/MetaMasterChef.sol\":26688:26696  poolInfo */\n      0x07\n        /* \"contracts/MetaMasterChef.sol\":26716:27000  PoolInfo({\r... */\n      mload(0x40)\n      dup1\n      0xc0\n      add\n      0x40\n      mstore\n      dup1\n        /* \"contracts/MetaMasterChef.sol\":26753:26761  _lpToken */\n      dup8\n        /* \"contracts/MetaMasterChef.sol\":26716:27000  PoolInfo({\r... */\n      0xffffffffffffffffffffffffffffffffffffffff\n      and\n      dup2\n      mstore\n      0x20\n      add\n        /* \"contracts/MetaMasterChef.sol\":26792:26803  _allocPoint */\n      dup9\n        /* \"contracts/MetaMasterChef.sol\":26716:27000  PoolInfo({\r... */\n      dup2\n      mstore\n      0x20\n      add\n        /* \"contracts/MetaMasterChef.sol\":26839:26854  lastRewardBlock */\n      dup4\n        /* \"contracts/MetaMasterChef.sol\":26716:27000  PoolInfo({\r... */\n      dup2\n      mstore\n      0x20\n      add\n        /* \"contracts/MetaMasterChef.sol\":26889:26890  0 */\n      0x00\n        /* \"contracts/MetaMasterChef.sol\":26716:27000  PoolInfo({\r... */\n      dup2\n      mstore\n      0x20\n      add\n        /* \"contracts/MetaMasterChef.sol\":26925:26940  _poolMasterChef */\n      dup6\n        /* \"contracts/MetaMasterChef.sol\":26716:27000  PoolInfo({\r... */\n      0xffffffffffffffffffffffffffffffffffffffff\n      and\n      dup2\n      mstore\n      0x20\n      add\n        /* \"contracts/MetaMasterChef.sol\":26972:26984  _rewardToken */\n      dup5\n        /* \"contracts/MetaMasterChef.sol\":26716:27000  PoolInfo({\r... */\n      0xffffffffffffffffffffffffffffffffffffffff\n      and\n      dup2\n      mstore\n      pop\n        /* \"contracts/MetaMasterChef.sol\":26688:27011  poolInfo.push(\r... */\n      swap1\n      dup1\n      0x01\n      dup2\n      sload\n      add\n      dup1\n      dup3\n      sstore\n      dup1\n      swap2\n      pop\n      pop\n      0x01\n      swap1\n      sub\n      swap1\n      0x00\n      mstore\n      keccak256(0x00, 0x20)\n      swap1\n      0x06\n      mul\n      add\n      0x00\n      swap1\n      swap2\n      swap1\n      swap2\n      swap1\n      swap2\n      pop\n      0x00\n      dup3\n      add\n      mload\n      dup2\n      0x00\n      add\n      exp(0x0100, 0x00)\n      dup2\n      sload\n      dup2\n      0xffffffffffffffffffffffffffffffffffffffff\n      mul\n      not\n      and\n      swap1\n      dup4\n      0xffffffffffffffffffffffffffffffffffffffff\n      and\n      mul\n      or\n      swap1\n      sstore\n      pop\n      0x20\n      dup3\n      add\n      mload\n      dup2\n      0x01\n      add\n      sstore\n      0x40\n      dup3\n      add\n      mload\n      dup2\n      0x02\n      add\n      sstore\n      0x60\n      dup3\n      add\n      mload\n      dup2\n      0x03\n      add\n      sstore\n      0x80\n      dup3\n      add\n      mload\n      dup2\n      0x04\n      add\n      exp(0x0100, 0x00)\n      dup2\n      sload\n      dup2\n      0xffffffffffffffffffffffffffffffffffffffff\n      mul\n      not\n      and\n      swap1\n      dup4\n      0xffffffffffffffffffffffffffffffffffffffff\n      and\n      mul\n      or\n      swap1\n      sstore\n      pop\n      0xa0\n      dup3\n      add\n      mload\n      dup2\n      0x05\n      add\n      exp(0x0100, 0x00)\n      dup2\n      sload\n      dup2\n      0xffffffffffffffffffffffffffffffffffffffff\n      mul\n      not\n      and\n      swap1\n      dup4\n      0xffffffffffffffffffffffffffffffffffffffff\n      and\n      mul\n      or\n      swap1\n      sstore\n      pop\n      pop\n      pop\n        /* \"contracts/MetaMasterChef.sol\":26455:27019  {\r... */\n      pop\n        /* \"contracts/MetaMasterChef.sol\":26318:27019  function add( uint256 _allocPoint, IERC20 _lpToken, bool _withUpdate, IMasterChef _poolMasterChef, IERC20 _rewardToken) public onlyOwner {\r... */\n      pop\n      pop\n      pop\n      pop\n      pop\n      jump\t// out\n        /* \"contracts/MetaMasterChef.sol\":1757:2228  function mul(uint256 a, uint256 b) internal pure returns (uint256) {\r... */\n    tag_170:\n        /* \"contracts/MetaMasterChef.sol\":1815:1822  uint256 */\n      0x00\n        /* \"contracts/MetaMasterChef.sol\":2065:2066  0 */\n      dup1\n        /* \"contracts/MetaMasterChef.sol\":2060:2061  a */\n      dup4\n        /* \"contracts/MetaMasterChef.sol\":2060:2066  a == 0 */\n      eq\n        /* \"contracts/MetaMasterChef.sol\":2056:2103  if (a == 0) {\r... */\n      iszero\n      tag_436\n      jumpi\n        /* \"contracts/MetaMasterChef.sol\":2090:2091  0 */\n      0x00\n        /* \"contracts/MetaMasterChef.sol\":2083:2091  return 0 */\n      swap1\n      pop\n      jump(tag_435)\n        /* \"contracts/MetaMasterChef.sol\":2056:2103  if (a == 0) {\r... */\n    tag_436:\n        /* \"contracts/MetaMasterChef.sol\":2115:2124  uint256 c */\n      0x00\n        /* \"contracts/MetaMasterChef.sol\":2131:2132  b */\n      dup3\n        /* \"contracts/MetaMasterChef.sol\":2127:2128  a */\n      dup5\n        /* \"contracts/MetaMasterChef.sol\":2127:2132  a * b */\n      tag_437\n      swap2\n      swap1\n      tag_438\n      jump\t// in\n    tag_437:\n        /* \"contracts/MetaMasterChef.sol\":2115:2132  uint256 c = a * b */\n      swap1\n      pop\n        /* \"contracts/MetaMasterChef.sol\":2160:2161  b */\n      dup3\n        /* \"contracts/MetaMasterChef.sol\":2155:2156  a */\n      dup5\n        /* \"contracts/MetaMasterChef.sol\":2151:2152  c */\n      dup3\n        /* \"contracts/MetaMasterChef.sol\":2151:2156  c / a */\n      tag_439\n      swap2\n      swap1\n      tag_440\n      jump\t// in\n    tag_439:\n        /* \"contracts/MetaMasterChef.sol\":2151:2161  c / a == b */\n      eq\n        /* \"contracts/MetaMasterChef.sol\":2143:2199  require(c / a == b, \"SafeMath: multiplication overflow\") */\n      tag_441\n      jumpi\n      mload(0x40)\n      0x08c379a000000000000000000000000000000000000000000000000000000000\n      dup2\n      mstore\n      0x04\n      add\n      tag_442\n      swap1\n      tag_443\n      jump\t// in\n    tag_442:\n      mload(0x40)\n      dup1\n      swap2\n      sub\n      swap1\n      revert\n    tag_441:\n        /* \"contracts/MetaMasterChef.sol\":2219:2220  c */\n      dup1\n        /* \"contracts/MetaMasterChef.sol\":2212:2220  return c */\n      swap2\n      pop\n      pop\n        /* \"contracts/MetaMasterChef.sol\":1757:2228  function mul(uint256 a, uint256 b) internal pure returns (uint256) {\r... */\n    tag_435:\n      swap3\n      swap2\n      pop\n      pop\n      jump\t// out\n        /* \"contracts/MetaMasterChef.sol\":2696:2828  function div(uint256 a, uint256 b) internal pure returns (uint256) {\r... */\n    tag_171:\n        /* \"contracts/MetaMasterChef.sol\":2754:2761  uint256 */\n      0x00\n        /* \"contracts/MetaMasterChef.sol\":2781:2820  div(a, b, \"SafeMath: division by zero\") */\n      tag_445\n        /* \"contracts/MetaMasterChef.sol\":2785:2786  a */\n      dup4\n        /* \"contracts/MetaMasterChef.sol\":2788:2789  b */\n      dup4\n        /* \"contracts/MetaMasterChef.sol\":2781:2820  div(a, b, \"SafeMath: division by zero\") */\n      mload(0x40)\n      dup1\n      0x40\n      add\n      0x40\n      mstore\n      dup1\n      0x1a\n      dup2\n      mstore\n      0x20\n      add\n      0x536166654d6174683a206469766973696f6e206279207a65726f000000000000\n      dup2\n      mstore\n      pop\n        /* \"contracts/MetaMasterChef.sol\":2781:2784  div */\n      tag_446\n        /* \"contracts/MetaMasterChef.sol\":2781:2820  div(a, b, \"SafeMath: division by zero\") */\n      jump\t// in\n    tag_445:\n        /* \"contracts/MetaMasterChef.sol\":2774:2820  return div(a, b, \"SafeMath: division by zero\") */\n      swap1\n      pop\n        /* \"contracts/MetaMasterChef.sol\":2696:2828  function div(uint256 a, uint256 b) internal pure returns (uint256) {\r... */\n      swap3\n      swap2\n      pop\n      pop\n      jump\t// out\n        /* \"contracts/MetaMasterChef.sol\":841:977  function sub(uint256 a, uint256 b) internal pure returns (uint256) {\r... */\n    tag_172:\n        /* \"contracts/MetaMasterChef.sol\":899:906  uint256 */\n      0x00\n        /* \"contracts/MetaMasterChef.sol\":926:969  sub(a, b, \"SafeMath: subtraction overflow\") */\n      tag_448\n        /* \"contracts/MetaMasterChef.sol\":930:931  a */\n      dup4\n        /* \"contracts/MetaMasterChef.sol\":933:934  b */\n      dup4\n        /* \"contracts/MetaMasterChef.sol\":926:969  sub(a, b, \"SafeMath: subtraction overflow\") */\n      mload(0x40)\n      dup1\n      0x40\n      add\n      0x40\n      mstore\n      dup1\n      0x1e\n      dup2\n      mstore\n      0x20\n      add\n      0x536166654d6174683a207375627472616374696f6e206f766572666c6f770000\n      dup2\n      mstore\n      pop\n        /* \"contracts/MetaMasterChef.sol\":926:929  sub */\n      tag_449\n        /* \"contracts/MetaMasterChef.sol\":926:969  sub(a, b, \"SafeMath: subtraction overflow\") */\n      jump\t// in\n    tag_448:\n        /* \"contracts/MetaMasterChef.sol\":919:969  return sub(a, b, \"SafeMath: subtraction overflow\") */\n      swap1\n      pop\n        /* \"contracts/MetaMasterChef.sol\":841:977  function sub(uint256 a, uint256 b) internal pure returns (uint256) {\r... */\n      swap3\n      swap2\n      pop\n      pop\n      jump\t// out\n        /* \"contracts/MetaMasterChef.sol\":30260:30458  function NFTMasterChefEnterStaking(address _account, uint256 _amount) internal {\r... */\n    tag_175:\n        /* \"contracts/MetaMasterChef.sol\":30350:30353  DRG */\n      0x02\n      0x00\n      swap1\n      sload\n      swap1\n      0x0100\n      exp\n      swap1\n      div\n      0xffffffffffffffffffffffffffffffffffffffff\n      and\n        /* \"contracts/MetaMasterChef.sol\":30350:30361  DRG.approve */\n      0xffffffffffffffffffffffffffffffffffffffff\n      and\n      0x095ea7b3\n        /* \"contracts/MetaMasterChef.sol\":30370:30383  NFTMasterChef */\n      0x01\n      0x00\n      swap1\n      sload\n      swap1\n      0x0100\n      exp\n      swap1\n      div\n      0xffffffffffffffffffffffffffffffffffffffff\n      and\n        /* \"contracts/MetaMasterChef.sol\":30386:30393  _amount */\n      dup4\n        /* \"contracts/MetaMasterChef.sol\":30350:30394  DRG.approve(address(NFTMasterChef), _amount) */\n      mload(0x40)\n      dup4\n      0xffffffff\n      and\n      0xe0\n      shl\n      dup2\n      mstore\n      0x04\n      add\n      tag_451\n      swap3\n      swap2\n      swap1\n      tag_282\n      jump\t// in\n    tag_451:\n      0x20\n      mload(0x40)\n      dup1\n      dup4\n      sub\n      dup2\n      0x00\n      dup8\n      dup1\n      extcodesize\n      iszero\n      dup1\n      iszero\n      tag_452\n      jumpi\n      0x00\n      dup1\n      revert\n    tag_452:\n      pop\n      gas\n      call\n      iszero\n      dup1\n      iszero\n      tag_454\n      jumpi\n      returndatasize\n      0x00\n      dup1\n      returndatacopy\n      revert(0x00, returndatasize)\n    tag_454:\n      pop\n      pop\n      pop\n      pop\n      mload(0x40)\n      returndatasize\n      not(0x1f)\n      0x1f\n      dup3\n      add\n      and\n      dup3\n      add\n      dup1\n      0x40\n      mstore\n      pop\n      dup2\n      add\n      swap1\n      tag_455\n      swap2\n      swap1\n      tag_287\n      jump\t// in\n    tag_455:\n      pop\n        /* \"contracts/MetaMasterChef.sol\":30405:30418  NFTMasterChef */\n      0x01\n      0x00\n      swap1\n      sload\n      swap1\n      0x0100\n      exp\n      swap1\n      div\n      0xffffffffffffffffffffffffffffffffffffffff\n      and\n        /* \"contracts/MetaMasterChef.sol\":30405:30431  NFTMasterChef.enterStaking */\n      0xffffffffffffffffffffffffffffffffffffffff\n      and\n      0x849df12c\n        /* \"contracts/MetaMasterChef.sol\":30432:30439  _amount */\n      dup3\n        /* \"contracts/MetaMasterChef.sol\":30441:30449  _account */\n      dup5\n        /* \"contracts/MetaMasterChef.sol\":30405:30450  NFTMasterChef.enterStaking(_amount, _account) */\n      mload(0x40)\n      dup4\n      0xffffffff\n      and\n      0xe0\n      shl\n      dup2\n      mstore\n      0x04\n      add\n      tag_456\n      swap3\n      swap2\n      swap1\n      tag_457\n      jump\t// in\n    tag_456:\n      0x00\n      mload(0x40)\n      dup1\n      dup4\n      sub\n      dup2\n      0x00\n      dup8\n      dup1\n      extcodesize\n      iszero\n      dup1\n      iszero\n      tag_458\n      jumpi\n      0x00\n      dup1\n      revert\n    tag_458:\n      pop\n      gas\n      call\n      iszero\n      dup1\n      iszero\n      tag_460\n      jumpi\n      returndatasize\n      0x00\n      dup1\n      returndatacopy\n      revert(0x00, returndatasize)\n    tag_460:\n      pop\n      pop\n      pop\n      pop\n        /* \"contracts/MetaMasterChef.sol\":30260:30458  function NFTMasterChefEnterStaking(address _account, uint256 _amount) internal {\r... */\n      pop\n      pop\n      jump\t// out\n        /* \"contracts/MetaMasterChef.sol\":16369:16617  function safeTransferFrom(\r... */\n    tag_189:\n        /* \"contracts/MetaMasterChef.sol\":16513:16609  _callOptionalReturn(token, abi.encodeWithSelector(token.transferFrom.selector, from, to, value)) */\n      tag_462\n        /* \"contracts/MetaMasterChef.sol\":16533:16538  token */\n      dup5\n        /* \"contracts/MetaMasterChef.sol\":16563:16590  token.transferFrom.selector */\n      shl(0xe0, 0x23b872dd)\n        /* \"contracts/MetaMasterChef.sol\":16592:16596  from */\n      dup6\n        /* \"contracts/MetaMasterChef.sol\":16598:16600  to */\n      dup6\n        /* \"contracts/MetaMasterChef.sol\":16602:16607  value */\n      dup6\n        /* \"contracts/MetaMasterChef.sol\":16540:16608  abi.encodeWithSelector(token.transferFrom.selector, from, to, value) */\n      add(0x24, mload(0x40))\n      tag_463\n      swap4\n      swap3\n      swap2\n      swap1\n      tag_464\n      jump\t// in\n    tag_463:\n      mload(0x40)\n      0x20\n      dup2\n      dup4\n      sub\n      sub\n      dup2\n      mstore\n      swap1\n      0x40\n      mstore\n      swap1\n      not(0xffffffffffffffffffffffffffffffffffffffffffffffffffffffff)\n      and\n      0x20\n      dup3\n      add\n      dup1\n      mload\n      0xffffffffffffffffffffffffffffffffffffffffffffffffffffffff\n      dup4\n      dup2\n      dup4\n      and\n      or\n      dup4\n      mstore\n      pop\n      pop\n      pop\n      pop\n        /* \"contracts/MetaMasterChef.sol\":16513:16532  _callOptionalReturn */\n      tag_465\n        /* \"contracts/MetaMasterChef.sol\":16513:16609  _callOptionalReturn(token, abi.encodeWithSelector(token.transferFrom.selector, from, to, value)) */\n      jump\t// in\n    tag_462:\n        /* \"contracts/MetaMasterChef.sol\":16369:16617  function safeTransferFrom(\r... */\n      pop\n      pop\n      pop\n      pop\n      jump\t// out\n        /* \"contracts/MetaMasterChef.sol\":385:566  function add(uint256 a, uint256 b) internal pure returns (uint256) {\r... */\n    tag_202:\n        /* \"contracts/MetaMasterChef.sol\":443:450  uint256 */\n      0x00\n        /* \"contracts/MetaMasterChef.sol\":463:472  uint256 c */\n      dup1\n        /* \"contracts/MetaMasterChef.sol\":479:480  b */\n      dup3\n        /* \"contracts/MetaMasterChef.sol\":475:476  a */\n      dup5\n        /* \"contracts/MetaMasterChef.sol\":475:480  a + b */\n      tag_467\n      swap2\n      swap1\n      tag_468\n      jump\t// in\n    tag_467:\n        /* \"contracts/MetaMasterChef.sol\":463:480  uint256 c = a + b */\n      swap1\n      pop\n        /* \"contracts/MetaMasterChef.sol\":504:505  a */\n      dup4\n        /* \"contracts/MetaMasterChef.sol\":499:500  c */\n      dup2\n        /* \"contracts/MetaMasterChef.sol\":499:505  c >= a */\n      lt\n      iszero\n        /* \"contracts/MetaMasterChef.sol\":491:537  require(c >= a, \"SafeMath: addition overflow\") */\n      tag_469\n      jumpi\n      mload(0x40)\n      0x08c379a000000000000000000000000000000000000000000000000000000000\n      dup2\n      mstore\n      0x04\n      add\n      tag_470\n      swap1\n      tag_471\n      jump\t// in\n    tag_470:\n      mload(0x40)\n      dup1\n      swap2\n      sub\n      swap1\n      revert\n    tag_469:\n        /* \"contracts/MetaMasterChef.sol\":557:558  c */\n      dup1\n        /* \"contracts/MetaMasterChef.sol\":550:558  return c */\n      swap2\n      pop\n      pop\n        /* \"contracts/MetaMasterChef.sol\":385:566  function add(uint256 a, uint256 b) internal pure returns (uint256) {\r... */\n      swap3\n      swap2\n      pop\n      pop\n      jump\t// out\n        /* \"contracts/MetaMasterChef.sol\":16150:16361  function safeTransfer(\r... */\n    tag_213:\n        /* \"contracts/MetaMasterChef.sol\":16267:16353  _callOptionalReturn(token, abi.encodeWithSelector(token.transfer.selector, to, value)) */\n      tag_473\n        /* \"contracts/MetaMasterChef.sol\":16287:16292  token */\n      dup4\n        /* \"contracts/MetaMasterChef.sol\":16317:16340  token.transfer.selector */\n      shl(0xe0, 0xa9059cbb)\n        /* \"contracts/MetaMasterChef.sol\":16342:16344  to */\n      dup5\n        /* \"contracts/MetaMasterChef.sol\":16346:16351  value */\n      dup5\n        /* \"contracts/MetaMasterChef.sol\":16294:16352  abi.encodeWithSelector(token.transfer.selector, to, value) */\n      add(0x24, mload(0x40))\n      tag_474\n      swap3\n      swap2\n      swap1\n      tag_282\n      jump\t// in\n    tag_474:\n      mload(0x40)\n      0x20\n      dup2\n      dup4\n      sub\n      sub\n      dup2\n      mstore\n      swap1\n      0x40\n      mstore\n      swap1\n      not(0xffffffffffffffffffffffffffffffffffffffffffffffffffffffff)\n      and\n      0x20\n      dup3\n      add\n      dup1\n      mload\n      0xffffffffffffffffffffffffffffffffffffffffffffffffffffffff\n      dup4\n      dup2\n      dup4\n      and\n      or\n      dup4\n      mstore\n      pop\n      pop\n      pop\n      pop\n        /* \"contracts/MetaMasterChef.sol\":16267:16286  _callOptionalReturn */\n      tag_465\n        /* \"contracts/MetaMasterChef.sol\":16267:16353  _callOptionalReturn(token, abi.encodeWithSelector(token.transfer.selector, to, value)) */\n      jump\t// in\n    tag_473:\n        /* \"contracts/MetaMasterChef.sol\":16150:16361  function safeTransfer(\r... */\n      pop\n      pop\n      pop\n      jump\t// out\n        /* \"contracts/MetaMasterChef.sol\":19479:19577  function _msgSender() internal view virtual returns (address) {\r... */\n    tag_218:\n        /* \"contracts/MetaMasterChef.sol\":19532:19539  address */\n      0x00\n        /* \"contracts/MetaMasterChef.sol\":19559:19569  msg.sender */\n      caller\n        /* \"contracts/MetaMasterChef.sol\":19552:19569  return msg.sender */\n      swap1\n      pop\n        /* \"contracts/MetaMasterChef.sol\":19479:19577  function _msgSender() internal view virtual returns (address) {\r... */\n      swap1\n      jump\t// out\n        /* \"contracts/MetaMasterChef.sol\":16886:17502  function safeApprove(\r... */\n    tag_240:\n        /* \"contracts/MetaMasterChef.sol\":17259:17260  0 */\n      0x00\n        /* \"contracts/MetaMasterChef.sol\":17250:17255  value */\n      dup2\n        /* \"contracts/MetaMasterChef.sol\":17250:17260  value == 0 */\n      eq\n        /* \"contracts/MetaMasterChef.sol\":17249:17311  (value == 0) || (token.allowance(address(this), spender) == 0) */\n      dup1\n      tag_477\n      jumpi\n      pop\n        /* \"contracts/MetaMasterChef.sol\":17309:17310  0 */\n      0x00\n        /* \"contracts/MetaMasterChef.sol\":17266:17271  token */\n      dup4\n        /* \"contracts/MetaMasterChef.sol\":17266:17281  token.allowance */\n      0xffffffffffffffffffffffffffffffffffffffff\n      and\n      0xdd62ed3e\n        /* \"contracts/MetaMasterChef.sol\":17290:17294  this */\n      address\n        /* \"contracts/MetaMasterChef.sol\":17297:17304  spender */\n      dup6\n        /* \"contracts/MetaMasterChef.sol\":17266:17305  token.allowance(address(this), spender) */\n      mload(0x40)\n      dup4\n      0xffffffff\n      and\n      0xe0\n      shl\n      dup2\n      mstore\n      0x04\n      add\n      tag_478\n      swap3\n      swap2\n      swap1\n      tag_177\n      jump\t// in\n    tag_478:\n      0x20\n      mload(0x40)\n      dup1\n      dup4\n      sub\n      dup2\n      dup7\n      dup1\n      extcodesize\n      iszero\n      dup1\n      iszero\n      tag_479\n      jumpi\n      0x00\n      dup1\n      revert\n    tag_479:\n      pop\n      gas\n      staticcall\n      iszero\n      dup1\n      iszero\n      tag_481\n      jumpi\n      returndatasize\n      0x00\n      dup1\n      returndatacopy\n      revert(0x00, returndatasize)\n    tag_481:\n      pop\n      pop\n      pop\n      pop\n      mload(0x40)\n      returndatasize\n      not(0x1f)\n      0x1f\n      dup3\n      add\n      and\n      dup3\n      add\n      dup1\n      0x40\n      mstore\n      pop\n      dup2\n      add\n      swap1\n      tag_482\n      swap2\n      swap1\n      tag_182\n      jump\t// in\n    tag_482:\n        /* \"contracts/MetaMasterChef.sol\":17266:17310  token.allowance(address(this), spender) == 0 */\n      eq\n        /* \"contracts/MetaMasterChef.sol\":17249:17311  (value == 0) || (token.allowance(address(this), spender) == 0) */\n    tag_477:\n        /* \"contracts/MetaMasterChef.sol\":17227:17393  require(\r... */\n      tag_483\n      jumpi\n      mload(0x40)\n      0x08c379a000000000000000000000000000000000000000000000000000000000\n      dup2\n      mstore\n      0x04\n      add\n      tag_484\n      swap1\n      tag_485\n      jump\t// in\n    tag_484:\n      mload(0x40)\n      dup1\n      swap2\n      sub\n      swap1\n      revert\n    tag_483:\n        /* \"contracts/MetaMasterChef.sol\":17404:17494  _callOptionalReturn(token, abi.encodeWithSelector(token.approve.selector, spender, value)) */\n      tag_486\n        /* \"contracts/MetaMasterChef.sol\":17424:17429  token */\n      dup4\n        /* \"contracts/MetaMasterChef.sol\":17454:17476  token.approve.selector */\n      shl(0xe0, 0x095ea7b3)\n        /* \"contracts/MetaMasterChef.sol\":17478:17485  spender */\n      dup5\n        /* \"contracts/MetaMasterChef.sol\":17487:17492  value */\n      dup5\n        /* \"contracts/MetaMasterChef.sol\":17431:17493  abi.encodeWithSelector(token.approve.selector, spender, value) */\n      add(0x24, mload(0x40))\n      tag_487\n      swap3\n      swap2\n      swap1\n      tag_282\n      jump\t// in\n    tag_487:\n      mload(0x40)\n      0x20\n      dup2\n      dup4\n      sub\n      sub\n      dup2\n      mstore\n      swap1\n      0x40\n      mstore\n      swap1\n      not(0xffffffffffffffffffffffffffffffffffffffffffffffffffffffff)\n      and\n      0x20\n      dup3\n      add\n      dup1\n      mload\n      0xffffffffffffffffffffffffffffffffffffffffffffffffffffffff\n      dup4\n      dup2\n      dup4\n      and\n      or\n      dup4\n      mstore\n      pop\n      pop\n      pop\n      pop\n        /* \"contracts/MetaMasterChef.sol\":17404:17423  _callOptionalReturn */\n      tag_465\n        /* \"contracts/MetaMasterChef.sol\":17404:17494  _callOptionalReturn(token, abi.encodeWithSelector(token.approve.selector, spender, value)) */\n      jump\t// in\n    tag_486:\n        /* \"contracts/MetaMasterChef.sol\":16886:17502  function safeApprove(\r... */\n      pop\n      pop\n      pop\n      jump\t// out\n        /* \"contracts/MetaMasterChef.sol\":21375:21566  function _transferOwnership(address newOwner) internal virtual {\r... */\n    tag_352:\n        /* \"contracts/MetaMasterChef.sol\":21449:21465  address oldOwner */\n      0x00\n        /* \"contracts/MetaMasterChef.sol\":21468:21474  _owner */\n      dup1\n      0x00\n      swap1\n      sload\n      swap1\n      0x0100\n      exp\n      swap1\n      div\n      0xffffffffffffffffffffffffffffffffffffffff\n      and\n        /* \"contracts/MetaMasterChef.sol\":21449:21474  address oldOwner = _owner */\n      swap1\n      pop\n        /* \"contracts/MetaMasterChef.sol\":21494:21502  newOwner */\n      dup2\n        /* \"contracts/MetaMasterChef.sol\":21485:21491  _owner */\n      0x00\n      dup1\n        /* \"contracts/MetaMasterChef.sol\":21485:21502  _owner = newOwner */\n      0x0100\n      exp\n      dup2\n      sload\n      dup2\n      0xffffffffffffffffffffffffffffffffffffffff\n      mul\n      not\n      and\n      swap1\n      dup4\n      0xffffffffffffffffffffffffffffffffffffffff\n      and\n      mul\n      or\n      swap1\n      sstore\n      pop\n        /* \"contracts/MetaMasterChef.sol\":21549:21557  newOwner */\n      dup2\n        /* \"contracts/MetaMasterChef.sol\":21518:21558  OwnershipTransferred(oldOwner, newOwner) */\n      0xffffffffffffffffffffffffffffffffffffffff\n      and\n        /* \"contracts/MetaMasterChef.sol\":21539:21547  oldOwner */\n      dup2\n        /* \"contracts/MetaMasterChef.sol\":21518:21558  OwnershipTransferred(oldOwner, newOwner) */\n      0xffffffffffffffffffffffffffffffffffffffff\n      and\n      0x8be0079c531659141344cd1fd0a4f28419497f9722a3daafe3b4186f6b6457e0\n      mload(0x40)\n      mload(0x40)\n      dup1\n      swap2\n      sub\n      swap1\n      log3\n        /* \"contracts/MetaMasterChef.sol\":21438:21566  {\r... */\n      pop\n        /* \"contracts/MetaMasterChef.sol\":21375:21566  function _transferOwnership(address newOwner) internal virtual {\r... */\n      pop\n      jump\t// out\n        /* \"contracts/MetaMasterChef.sol\":3358:3703  function div(uint256 a, uint256 b, string memory errorMessage) internal pure returns (uint256) {\r... */\n    tag_446:\n        /* \"contracts/MetaMasterChef.sol\":3444:3451  uint256 */\n      0x00\n        /* \"contracts/MetaMasterChef.sol\":3543:3544  0 */\n      dup1\n        /* \"contracts/MetaMasterChef.sol\":3539:3540  b */\n      dup4\n        /* \"contracts/MetaMasterChef.sol\":3539:3544  b > 0 */\n      gt\n        /* \"contracts/MetaMasterChef.sol\":3546:3558  errorMessage */\n      dup3\n        /* \"contracts/MetaMasterChef.sol\":3531:3559  require(b > 0, errorMessage) */\n      swap1\n      tag_490\n      jumpi\n      mload(0x40)\n      0x08c379a000000000000000000000000000000000000000000000000000000000\n      dup2\n      mstore\n      0x04\n      add\n      tag_491\n      swap2\n      swap1\n      tag_492\n      jump\t// in\n    tag_491:\n      mload(0x40)\n      dup1\n      swap2\n      sub\n      swap1\n      revert\n    tag_490:\n      pop\n        /* \"contracts/MetaMasterChef.sol\":3570:3579  uint256 c */\n      0x00\n        /* \"contracts/MetaMasterChef.sol\":3586:3587  b */\n      dup4\n        /* \"contracts/MetaMasterChef.sol\":3582:3583  a */\n      dup6\n        /* \"contracts/MetaMasterChef.sol\":3582:3587  a / b */\n      tag_493\n      swap2\n      swap1\n      tag_440\n      jump\t// in\n    tag_493:\n        /* \"contracts/MetaMasterChef.sol\":3570:3587  uint256 c = a / b */\n      swap1\n      pop\n        /* \"contracts/MetaMasterChef.sol\":3694:3695  c */\n      dup1\n        /* \"contracts/MetaMasterChef.sol\":3687:3695  return c */\n      swap2\n      pop\n      pop\n        /* \"contracts/MetaMasterChef.sol\":3358:3703  function div(uint256 a, uint256 b, string memory errorMessage) internal pure returns (uint256) {\r... */\n      swap4\n      swap3\n      pop\n      pop\n      pop\n      jump\t// out\n        /* \"contracts/MetaMasterChef.sol\":1314:1506  function sub(uint256 a, uint256 b, string memory errorMessage) internal pure returns (uint256) {\r... */\n    tag_449:\n        /* \"contracts/MetaMasterChef.sol\":1400:1407  uint256 */\n      0x00\n        /* \"contracts/MetaMasterChef.sol\":1433:1434  a */\n      dup4\n        /* \"contracts/MetaMasterChef.sol\":1428:1429  b */\n      dup4\n        /* \"contracts/MetaMasterChef.sol\":1428:1434  b <= a */\n      gt\n      iszero\n        /* \"contracts/MetaMasterChef.sol\":1436:1448  errorMessage */\n      dup3\n        /* \"contracts/MetaMasterChef.sol\":1420:1449  require(b <= a, errorMessage) */\n      swap1\n      tag_495\n      jumpi\n      mload(0x40)\n      0x08c379a000000000000000000000000000000000000000000000000000000000\n      dup2\n      mstore\n      0x04\n      add\n      tag_496\n      swap2\n      swap1\n      tag_492\n      jump\t// in\n    tag_496:\n      mload(0x40)\n      dup1\n      swap2\n      sub\n      swap1\n      revert\n    tag_495:\n      pop\n        /* \"contracts/MetaMasterChef.sol\":1460:1469  uint256 c */\n      0x00\n        /* \"contracts/MetaMasterChef.sol\":1476:1477  b */\n      dup4\n        /* \"contracts/MetaMasterChef.sol\":1472:1473  a */\n      dup6\n        /* \"contracts/MetaMasterChef.sol\":1472:1477  a - b */\n      tag_497\n      swap2\n      swap1\n      tag_498\n      jump\t// in\n    tag_497:\n        /* \"contracts/MetaMasterChef.sol\":1460:1477  uint256 c = a - b */\n      swap1\n      pop\n        /* \"contracts/MetaMasterChef.sol\":1497:1498  c */\n      dup1\n        /* \"contracts/MetaMasterChef.sol\":1490:1498  return c */\n      swap2\n      pop\n      pop\n        /* \"contracts/MetaMasterChef.sol\":1314:1506  function sub(uint256 a, uint256 b, string memory errorMessage) internal pure returns (uint256) {\r... */\n      swap4\n      swap3\n      pop\n      pop\n      pop\n      jump\t// out\n        /* \"contracts/MetaMasterChef.sol\":18723:19439  function _callOptionalReturn(IERC20 token, bytes memory data) private {\r... */\n    tag_465:\n        /* \"contracts/MetaMasterChef.sol\":19147:19170  bytes memory returndata */\n      0x00\n        /* \"contracts/MetaMasterChef.sol\":19173:19242  address(token).functionCall(data, \"SafeERC20: low-level call failed\") */\n      tag_500\n        /* \"contracts/MetaMasterChef.sol\":19201:19205  data */\n      dup3\n        /* \"contracts/MetaMasterChef.sol\":19173:19242  address(token).functionCall(data, \"SafeERC20: low-level call failed\") */\n      mload(0x40)\n      dup1\n      0x40\n      add\n      0x40\n      mstore\n      dup1\n      0x20\n      dup2\n      mstore\n      0x20\n      add\n      0x5361666545524332303a206c6f772d6c6576656c2063616c6c206661696c6564\n      dup2\n      mstore\n      pop\n        /* \"contracts/MetaMasterChef.sol\":19181:19186  token */\n      dup6\n        /* \"contracts/MetaMasterChef.sol\":19173:19200  address(token).functionCall */\n      0xffffffffffffffffffffffffffffffffffffffff\n      and\n      tag_501\n      swap1\n        /* \"contracts/MetaMasterChef.sol\":19173:19242  address(token).functionCall(data, \"SafeERC20: low-level call failed\") */\n      swap3\n      swap2\n      swap1\n      0xffffffff\n      and\n      jump\t// in\n    tag_500:\n        /* \"contracts/MetaMasterChef.sol\":19147:19242  bytes memory returndata = address(token).functionCall(data, \"SafeERC20: low-level call failed\") */\n      swap1\n      pop\n        /* \"contracts/MetaMasterChef.sol\":19277:19278  0 */\n      0x00\n        /* \"contracts/MetaMasterChef.sol\":19257:19267  returndata */\n      dup2\n        /* \"contracts/MetaMasterChef.sol\":19257:19274  returndata.length */\n      mload\n        /* \"contracts/MetaMasterChef.sol\":19257:19278  returndata.length > 0 */\n      gt\n        /* \"contracts/MetaMasterChef.sol\":19253:19432  if (returndata.length > 0) {\r... */\n      iszero\n      tag_502\n      jumpi\n        /* \"contracts/MetaMasterChef.sol\":19354:19364  returndata */\n      dup1\n        /* \"contracts/MetaMasterChef.sol\":19343:19373  abi.decode(returndata, (bool)) */\n      dup1\n      0x20\n      add\n      swap1\n      mload\n      dup2\n      add\n      swap1\n      tag_503\n      swap2\n      swap1\n      tag_287\n      jump\t// in\n    tag_503:\n        /* \"contracts/MetaMasterChef.sol\":19335:19420  require(abi.decode(returndata, (bool)), \"SafeERC20: ERC20 operation did not succeed\") */\n      tag_504\n      jumpi\n      mload(0x40)\n      0x08c379a000000000000000000000000000000000000000000000000000000000\n      dup2\n      mstore\n      0x04\n      add\n      tag_505\n      swap1\n      tag_506\n      jump\t// in\n    tag_505:\n      mload(0x40)\n      dup1\n      swap2\n      sub\n      swap1\n      revert\n    tag_504:\n        /* \"contracts/MetaMasterChef.sol\":19253:19432  if (returndata.length > 0) {\r... */\n    tag_502:\n        /* \"contracts/MetaMasterChef.sol\":18793:19439  {\r... */\n      pop\n        /* \"contracts/MetaMasterChef.sol\":18723:19439  function _callOptionalReturn(IERC20 token, bytes memory data) private {\r... */\n      pop\n      pop\n      jump\t// out\n        /* \"contracts/MetaMasterChef.sol\":11566:11795  function functionCall(\r... */\n    tag_501:\n        /* \"contracts/MetaMasterChef.sol\":11703:11715  bytes memory */\n      0x60\n        /* \"contracts/MetaMasterChef.sol\":11735:11787  functionCallWithValue(target, data, 0, errorMessage) */\n      tag_508\n        /* \"contracts/MetaMasterChef.sol\":11757:11763  target */\n      dup5\n        /* \"contracts/MetaMasterChef.sol\":11765:11769  data */\n      dup5\n        /* \"contracts/MetaMasterChef.sol\":11771:11772  0 */\n      0x00\n        /* \"contracts/MetaMasterChef.sol\":11774:11786  errorMessage */\n      dup6\n        /* \"contracts/MetaMasterChef.sol\":11735:11756  functionCallWithValue */\n      tag_509\n        /* \"contracts/MetaMasterChef.sol\":11735:11787  functionCallWithValue(target, data, 0, errorMessage) */\n      jump\t// in\n    tag_508:\n        /* \"contracts/MetaMasterChef.sol\":11728:11787  return functionCallWithValue(target, data, 0, errorMessage) */\n      swap1\n      pop\n        /* \"contracts/MetaMasterChef.sol\":11566:11795  function functionCall(\r... */\n      swap4\n      swap3\n      pop\n      pop\n      pop\n      jump\t// out\n        /* \"contracts/MetaMasterChef.sol\":12686:13196  function functionCallWithValue(\r... */\n    tag_509:\n        /* \"contracts/MetaMasterChef.sol\":12856:12868  bytes memory */\n      0x60\n        /* \"contracts/MetaMasterChef.sol\":12914:12919  value */\n      dup3\n        /* \"contracts/MetaMasterChef.sol\":12889:12910  address(this).balance */\n      selfbalance\n        /* \"contracts/MetaMasterChef.sol\":12889:12919  address(this).balance >= value */\n      lt\n      iszero\n        /* \"contracts/MetaMasterChef.sol\":12881:12962  require(address(this).balance >= value, \"Address: insufficient balance for call\") */\n      tag_511\n      jumpi\n      mload(0x40)\n      0x08c379a000000000000000000000000000000000000000000000000000000000\n      dup2\n      mstore\n      0x04\n      add\n      tag_512\n      swap1\n      tag_513\n      jump\t// in\n    tag_512:\n      mload(0x40)\n      dup1\n      swap2\n      sub\n      swap1\n      revert\n    tag_511:\n        /* \"contracts/MetaMasterChef.sol\":12981:12999  isContract(target) */\n      tag_514\n        /* \"contracts/MetaMasterChef.sol\":12992:12998  target */\n      dup6\n        /* \"contracts/MetaMasterChef.sol\":12981:12991  isContract */\n      tag_515\n        /* \"contracts/MetaMasterChef.sol\":12981:12999  isContract(target) */\n      jump\t// in\n    tag_514:\n        /* \"contracts/MetaMasterChef.sol\":12973:13033  require(isContract(target), \"Address: call to non-contract\") */\n      tag_516\n      jumpi\n      mload(0x40)\n      0x08c379a000000000000000000000000000000000000000000000000000000000\n      dup2\n      mstore\n      0x04\n      add\n      tag_517\n      swap1\n      tag_518\n      jump\t// in\n    tag_517:\n      mload(0x40)\n      dup1\n      swap2\n      sub\n      swap1\n      revert\n    tag_516:\n        /* \"contracts/MetaMasterChef.sol\":13047:13059  bool success */\n      0x00\n        /* \"contracts/MetaMasterChef.sol\":13061:13084  bytes memory returndata */\n      dup1\n        /* \"contracts/MetaMasterChef.sol\":13088:13094  target */\n      dup7\n        /* \"contracts/MetaMasterChef.sol\":13088:13099  target.call */\n      0xffffffffffffffffffffffffffffffffffffffff\n      and\n        /* \"contracts/MetaMasterChef.sol\":13107:13112  value */\n      dup6\n        /* \"contracts/MetaMasterChef.sol\":13114:13118  data */\n      dup8\n        /* \"contracts/MetaMasterChef.sol\":13088:13119  target.call{value: value}(data) */\n      mload(0x40)\n      tag_519\n      swap2\n      swap1\n      tag_520\n      jump\t// in\n    tag_519:\n      0x00\n      mload(0x40)\n      dup1\n      dup4\n      sub\n      dup2\n      dup6\n      dup8\n      gas\n      call\n      swap3\n      pop\n      pop\n      pop\n      returndatasize\n      dup1\n      0x00\n      dup2\n      eq\n      tag_523\n      jumpi\n      mload(0x40)\n      swap2\n      pop\n      and(add(returndatasize, 0x3f), not(0x1f))\n      dup3\n      add\n      0x40\n      mstore\n      returndatasize\n      dup3\n      mstore\n      returndatasize\n      0x00\n      0x20\n      dup5\n      add\n      returndatacopy\n      jump(tag_522)\n    tag_523:\n      0x60\n      swap2\n      pop\n    tag_522:\n      pop\n        /* \"contracts/MetaMasterChef.sol\":13046:13119  (bool success, bytes memory returndata) = target.call{value: value}(data) */\n      swap2\n      pop\n      swap2\n      pop\n        /* \"contracts/MetaMasterChef.sol\":13137:13188  verifyCallResult(success, returndata, errorMessage) */\n      tag_524\n        /* \"contracts/MetaMasterChef.sol\":13154:13161  success */\n      dup3\n        /* \"contracts/MetaMasterChef.sol\":13163:13173  returndata */\n      dup3\n        /* \"contracts/MetaMasterChef.sol\":13175:13187  errorMessage */\n      dup7\n        /* \"contracts/MetaMasterChef.sol\":13137:13153  verifyCallResult */\n      tag_525\n        /* \"contracts/MetaMasterChef.sol\":13137:13188  verifyCallResult(success, returndata, errorMessage) */\n      jump\t// in\n    tag_524:\n        /* \"contracts/MetaMasterChef.sol\":13130:13188  return verifyCallResult(success, returndata, errorMessage) */\n      swap3\n      pop\n      pop\n      pop\n        /* \"contracts/MetaMasterChef.sol\":12686:13196  function functionCallWithValue(\r... */\n      swap5\n      swap4\n      pop\n      pop\n      pop\n      pop\n      jump\t// out\n        /* \"contracts/MetaMasterChef.sol\":8821:9147  function isContract(address account) internal view returns (bool) {\r... */\n    tag_515:\n        /* \"contracts/MetaMasterChef.sol\":8881:8885  bool */\n      0x00\n        /* \"contracts/MetaMasterChef.sol\":9138:9139  0 */\n      dup1\n        /* \"contracts/MetaMasterChef.sol\":9116:9123  account */\n      dup3\n        /* \"contracts/MetaMasterChef.sol\":9116:9135  account.code.length */\n      0xffffffffffffffffffffffffffffffffffffffff\n      and\n      extcodesize\n        /* \"contracts/MetaMasterChef.sol\":9116:9139  account.code.length > 0 */\n      gt\n        /* \"contracts/MetaMasterChef.sol\":9109:9139  return account.code.length > 0 */\n      swap1\n      pop\n        /* \"contracts/MetaMasterChef.sol\":8821:9147  function isContract(address account) internal view returns (bool) {\r... */\n      swap2\n      swap1\n      pop\n      jump\t// out\n        /* \"contracts/MetaMasterChef.sol\":15372:16084  function verifyCallResult(\r... */\n    tag_525:\n        /* \"contracts/MetaMasterChef.sol\":15522:15534  bytes memory */\n      0x60\n        /* \"contracts/MetaMasterChef.sol\":15551:15558  success */\n      dup4\n        /* \"contracts/MetaMasterChef.sol\":15547:16077  if (success) {\r... */\n      iszero\n      tag_528\n      jumpi\n        /* \"contracts/MetaMasterChef.sol\":15582:15592  returndata */\n      dup3\n        /* \"contracts/MetaMasterChef.sol\":15575:15592  return returndata */\n      swap1\n      pop\n      jump(tag_527)\n        /* \"contracts/MetaMasterChef.sol\":15547:16077  if (success) {\r... */\n    tag_528:\n        /* \"contracts/MetaMasterChef.sol\":15716:15717  0 */\n      0x00\n        /* \"contracts/MetaMasterChef.sol\":15696:15706  returndata */\n      dup4\n        /* \"contracts/MetaMasterChef.sol\":15696:15713  returndata.length */\n      mload\n        /* \"contracts/MetaMasterChef.sol\":15696:15717  returndata.length > 0 */\n      gt\n        /* \"contracts/MetaMasterChef.sol\":15692:16066  if (returndata.length > 0) {\r... */\n      iszero\n      tag_530\n      jumpi\n        /* \"contracts/MetaMasterChef.sol\":15894:15904  returndata */\n      dup3\n        /* \"contracts/MetaMasterChef.sol\":15888:15905  mload(returndata) */\n      mload\n        /* \"contracts/MetaMasterChef.sol\":15955:15970  returndata_size */\n      dup1\n        /* \"contracts/MetaMasterChef.sol\":15942:15952  returndata */\n      dup5\n        /* \"contracts/MetaMasterChef.sol\":15938:15940  32 */\n      0x20\n        /* \"contracts/MetaMasterChef.sol\":15934:15953  add(32, returndata) */\n      add\n        /* \"contracts/MetaMasterChef.sol\":15927:15971  revert(add(32, returndata), returndata_size) */\n      revert\n        /* \"contracts/MetaMasterChef.sol\":15692:16066  if (returndata.length > 0) {\r... */\n    tag_530:\n        /* \"contracts/MetaMasterChef.sol\":16037:16049  errorMessage */\n      dup2\n        /* \"contracts/MetaMasterChef.sol\":16030:16050  revert(errorMessage) */\n      mload(0x40)\n      0x08c379a000000000000000000000000000000000000000000000000000000000\n      dup2\n      mstore\n      0x04\n      add\n      tag_532\n      swap2\n      swap1\n      tag_492\n      jump\t// in\n    tag_532:\n      mload(0x40)\n      dup1\n      swap2\n      sub\n      swap1\n      revert\n        /* \"contracts/MetaMasterChef.sol\":15372:16084  function verifyCallResult(\r... */\n    tag_527:\n      swap4\n      swap3\n      pop\n      pop\n      pop\n      jump\t// out\n        /* \"#utility.yul\":7:146   */\n    tag_534:\n        /* \"#utility.yul\":53:58   */\n      0x00\n        /* \"#utility.yul\":91:97   */\n      dup2\n        /* \"#utility.yul\":78:98   */\n      calldataload\n        /* \"#utility.yul\":69:98   */\n      swap1\n      pop\n        /* \"#utility.yul\":107:140   */\n      tag_536\n        /* \"#utility.yul\":134:139   */\n      dup2\n        /* \"#utility.yul\":107:140   */\n      tag_537\n      jump\t// in\n    tag_536:\n        /* \"#utility.yul\":7:146   */\n      swap3\n      swap2\n      pop\n      pop\n      jump\t// out\n        /* \"#utility.yul\":152:285   */\n    tag_538:\n        /* \"#utility.yul\":195:200   */\n      0x00\n        /* \"#utility.yul\":233:239   */\n      dup2\n        /* \"#utility.yul\":220:240   */\n      calldataload\n        /* \"#utility.yul\":211:240   */\n      swap1\n      pop\n        /* \"#utility.yul\":249:279   */\n      tag_540\n        /* \"#utility.yul\":273:278   */\n      dup2\n        /* \"#utility.yul\":249:279   */\n      tag_541\n      jump\t// in\n    tag_540:\n        /* \"#utility.yul\":152:285   */\n      swap3\n      swap2\n      pop\n      pop\n      jump\t// out\n        /* \"#utility.yul\":291:428   */\n    tag_542:\n        /* \"#utility.yul\":345:350   */\n      0x00\n        /* \"#utility.yul\":376:382   */\n      dup2\n        /* \"#utility.yul\":370:383   */\n      mload\n        /* \"#utility.yul\":361:383   */\n      swap1\n      pop\n        /* \"#utility.yul\":392:422   */\n      tag_544\n        /* \"#utility.yul\":416:421   */\n      dup2\n        /* \"#utility.yul\":392:422   */\n      tag_541\n      jump\t// in\n    tag_544:\n        /* \"#utility.yul\":291:428   */\n      swap3\n      swap2\n      pop\n      pop\n      jump\t// out\n        /* \"#utility.yul\":434:601   */\n    tag_545:\n        /* \"#utility.yul\":494:499   */\n      0x00\n        /* \"#utility.yul\":532:538   */\n      dup2\n        /* \"#utility.yul\":519:539   */\n      calldataload\n        /* \"#utility.yul\":510:539   */\n      swap1\n      pop\n        /* \"#utility.yul\":548:595   */\n      tag_547\n        /* \"#utility.yul\":589:594   */\n      dup2\n        /* \"#utility.yul\":548:595   */\n      tag_548\n      jump\t// in\n    tag_547:\n        /* \"#utility.yul\":434:601   */\n      swap3\n      swap2\n      pop\n      pop\n      jump\t// out\n        /* \"#utility.yul\":607:778   */\n    tag_549:\n        /* \"#utility.yul\":678:683   */\n      0x00\n        /* \"#utility.yul\":709:715   */\n      dup2\n        /* \"#utility.yul\":703:716   */\n      mload\n        /* \"#utility.yul\":694:716   */\n      swap1\n      pop\n        /* \"#utility.yul\":725:772   */\n      tag_551\n        /* \"#utility.yul\":766:771   */\n      dup2\n        /* \"#utility.yul\":725:772   */\n      tag_548\n      jump\t// in\n    tag_551:\n        /* \"#utility.yul\":607:778   */\n      swap3\n      swap2\n      pop\n      pop\n      jump\t// out\n        /* \"#utility.yul\":784:961   */\n    tag_552:\n        /* \"#utility.yul\":849:854   */\n      0x00\n        /* \"#utility.yul\":887:893   */\n      dup2\n        /* \"#utility.yul\":874:894   */\n      calldataload\n        /* \"#utility.yul\":865:894   */\n      swap1\n      pop\n        /* \"#utility.yul\":903:955   */\n      tag_554\n        /* \"#utility.yul\":949:954   */\n      dup2\n        /* \"#utility.yul\":903:955   */\n      tag_555\n      jump\t// in\n    tag_554:\n        /* \"#utility.yul\":784:961   */\n      swap3\n      swap2\n      pop\n      pop\n      jump\t// out\n        /* \"#utility.yul\":967:1148   */\n    tag_556:\n        /* \"#utility.yul\":1034:1039   */\n      0x00\n        /* \"#utility.yul\":1072:1078   */\n      dup2\n        /* \"#utility.yul\":1059:1079   */\n      calldataload\n        /* \"#utility.yul\":1050:1079   */\n      swap1\n      pop\n        /* \"#utility.yul\":1088:1142   */\n      tag_558\n        /* \"#utility.yul\":1136:1141   */\n      dup2\n        /* \"#utility.yul\":1088:1142   */\n      tag_559\n      jump\t// in\n    tag_558:\n        /* \"#utility.yul\":967:1148   */\n      swap3\n      swap2\n      pop\n      pop\n      jump\t// out\n        /* \"#utility.yul\":1154:1293   */\n    tag_560:\n        /* \"#utility.yul\":1200:1205   */\n      0x00\n        /* \"#utility.yul\":1238:1244   */\n      dup2\n        /* \"#utility.yul\":1225:1245   */\n      calldataload\n        /* \"#utility.yul\":1216:1245   */\n      swap1\n      pop\n        /* \"#utility.yul\":1254:1287   */\n      tag_562\n        /* \"#utility.yul\":1281:1286   */\n      dup2\n        /* \"#utility.yul\":1254:1287   */\n      tag_563\n      jump\t// in\n    tag_562:\n        /* \"#utility.yul\":1154:1293   */\n      swap3\n      swap2\n      pop\n      pop\n      jump\t// out\n        /* \"#utility.yul\":1299:1442   */\n    tag_564:\n        /* \"#utility.yul\":1356:1361   */\n      0x00\n        /* \"#utility.yul\":1387:1393   */\n      dup2\n        /* \"#utility.yul\":1381:1394   */\n      mload\n        /* \"#utility.yul\":1372:1394   */\n      swap1\n      pop\n        /* \"#utility.yul\":1403:1436   */\n      tag_566\n        /* \"#utility.yul\":1430:1435   */\n      dup2\n        /* \"#utility.yul\":1403:1436   */\n      tag_563\n      jump\t// in\n    tag_566:\n        /* \"#utility.yul\":1299:1442   */\n      swap3\n      swap2\n      pop\n      pop\n      jump\t// out\n        /* \"#utility.yul\":1448:1777   */\n    tag_141:\n        /* \"#utility.yul\":1507:1513   */\n      0x00\n        /* \"#utility.yul\":1556:1558   */\n      0x20\n        /* \"#utility.yul\":1544:1553   */\n      dup3\n        /* \"#utility.yul\":1535:1542   */\n      dup5\n        /* \"#utility.yul\":1531:1554   */\n      sub\n        /* \"#utility.yul\":1527:1559   */\n      slt\n        /* \"#utility.yul\":1524:1643   */\n      iszero\n      tag_568\n      jumpi\n        /* \"#utility.yul\":1562:1641   */\n      tag_569\n      tag_570\n      jump\t// in\n    tag_569:\n        /* \"#utility.yul\":1524:1643   */\n    tag_568:\n        /* \"#utility.yul\":1682:1683   */\n      0x00\n        /* \"#utility.yul\":1707:1760   */\n      tag_571\n        /* \"#utility.yul\":1752:1759   */\n      dup5\n        /* \"#utility.yul\":1743:1749   */\n      dup3\n        /* \"#utility.yul\":1732:1741   */\n      dup6\n        /* \"#utility.yul\":1728:1750   */\n      add\n        /* \"#utility.yul\":1707:1760   */\n      tag_534\n      jump\t// in\n    tag_571:\n        /* \"#utility.yul\":1697:1760   */\n      swap2\n      pop\n        /* \"#utility.yul\":1653:1770   */\n      pop\n        /* \"#utility.yul\":1448:1777   */\n      swap3\n      swap2\n      pop\n      pop\n      jump\t// out\n        /* \"#utility.yul\":1783:2128   */\n    tag_287:\n        /* \"#utility.yul\":1850:1856   */\n      0x00\n        /* \"#utility.yul\":1899:1901   */\n      0x20\n        /* \"#utility.yul\":1887:1896   */\n      dup3\n        /* \"#utility.yul\":1878:1885   */\n      dup5\n        /* \"#utility.yul\":1874:1897   */\n      sub\n        /* \"#utility.yul\":1870:1902   */\n      slt\n        /* \"#utility.yul\":1867:1986   */\n      iszero\n      tag_573\n      jumpi\n        /* \"#utility.yul\":1905:1984   */\n      tag_574\n      tag_570\n      jump\t// in\n    tag_574:\n        /* \"#utility.yul\":1867:1986   */\n    tag_573:\n        /* \"#utility.yul\":2025:2026   */\n      0x00\n        /* \"#utility.yul\":2050:2111   */\n      tag_575\n        /* \"#utility.yul\":2103:2110   */\n      dup5\n        /* \"#utility.yul\":2094:2100   */\n      dup3\n        /* \"#utility.yul\":2083:2092   */\n      dup6\n        /* \"#utility.yul\":2079:2101   */\n      add\n        /* \"#utility.yul\":2050:2111   */\n      tag_542\n      jump\t// in\n    tag_575:\n        /* \"#utility.yul\":2040:2111   */\n      swap2\n      pop\n        /* \"#utility.yul\":1996:2121   */\n      pop\n        /* \"#utility.yul\":1783:2128   */\n      swap3\n      swap2\n      pop\n      pop\n      jump\t// out\n        /* \"#utility.yul\":2134:2513   */\n    tag_246:\n        /* \"#utility.yul\":2218:2224   */\n      0x00\n        /* \"#utility.yul\":2267:2269   */\n      0x20\n        /* \"#utility.yul\":2255:2264   */\n      dup3\n        /* \"#utility.yul\":2246:2253   */\n      dup5\n        /* \"#utility.yul\":2242:2265   */\n      sub\n        /* \"#utility.yul\":2238:2270   */\n      slt\n        /* \"#utility.yul\":2235:2354   */\n      iszero\n      tag_577\n      jumpi\n        /* \"#utility.yul\":2273:2352   */\n      tag_578\n      tag_570\n      jump\t// in\n    tag_578:\n        /* \"#utility.yul\":2235:2354   */\n    tag_577:\n        /* \"#utility.yul\":2393:2394   */\n      0x00\n        /* \"#utility.yul\":2418:2496   */\n      tag_579\n        /* \"#utility.yul\":2488:2495   */\n      dup5\n        /* \"#utility.yul\":2479:2485   */\n      dup3\n        /* \"#utility.yul\":2468:2477   */\n      dup6\n        /* \"#utility.yul\":2464:2486   */\n      add\n        /* \"#utility.yul\":2418:2496   */\n      tag_549\n      jump\t// in\n    tag_579:\n        /* \"#utility.yul\":2408:2496   */\n      swap2\n      pop\n        /* \"#utility.yul\":2364:2506   */\n      pop\n        /* \"#utility.yul\":2134:2513   */\n      swap3\n      swap2\n      pop\n      pop\n      jump\t// out\n        /* \"#utility.yul\":2519:2890   */\n    tag_69:\n        /* \"#utility.yul\":2599:2605   */\n      0x00\n        /* \"#utility.yul\":2648:2650   */\n      0x20\n        /* \"#utility.yul\":2636:2645   */\n      dup3\n        /* \"#utility.yul\":2627:2634   */\n      dup5\n        /* \"#utility.yul\":2623:2646   */\n      sub\n        /* \"#utility.yul\":2619:2651   */\n      slt\n        /* \"#utility.yul\":2616:2735   */\n      iszero\n      tag_581\n      jumpi\n        /* \"#utility.yul\":2654:2733   */\n      tag_582\n      tag_570\n      jump\t// in\n    tag_582:\n        /* \"#utility.yul\":2616:2735   */\n    tag_581:\n        /* \"#utility.yul\":2774:2775   */\n      0x00\n        /* \"#utility.yul\":2799:2873   */\n      tag_583\n        /* \"#utility.yul\":2865:2872   */\n      dup5\n        /* \"#utility.yul\":2856:2862   */\n      dup3\n        /* \"#utility.yul\":2845:2854   */\n      dup6\n        /* \"#utility.yul\":2841:2863   */\n      add\n        /* \"#utility.yul\":2799:2873   */\n      tag_556\n      jump\t// in\n    tag_583:\n        /* \"#utility.yul\":2789:2873   */\n      swap2\n      pop\n        /* \"#utility.yul\":2745:2883   */\n      pop\n        /* \"#utility.yul\":2519:2890   */\n      swap3\n      swap2\n      pop\n      pop\n      jump\t// out\n        /* \"#utility.yul\":2896:3225   */\n    tag_53:\n        /* \"#utility.yul\":2955:2961   */\n      0x00\n        /* \"#utility.yul\":3004:3006   */\n      0x20\n        /* \"#utility.yul\":2992:3001   */\n      dup3\n        /* \"#utility.yul\":2983:2990   */\n      dup5\n        /* \"#utility.yul\":2979:3002   */\n      sub\n        /* \"#utility.yul\":2975:3007   */\n      slt\n        /* \"#utility.yul\":2972:3091   */\n      iszero\n      tag_585\n      jumpi\n        /* \"#utility.yul\":3010:3089   */\n      tag_586\n      tag_570\n      jump\t// in\n    tag_586:\n        /* \"#utility.yul\":2972:3091   */\n    tag_585:\n        /* \"#utility.yul\":3130:3131   */\n      0x00\n        /* \"#utility.yul\":3155:3208   */\n      tag_587\n        /* \"#utility.yul\":3200:3207   */\n      dup5\n        /* \"#utility.yul\":3191:3197   */\n      dup3\n        /* \"#utility.yul\":3180:3189   */\n      dup6\n        /* \"#utility.yul\":3176:3198   */\n      add\n        /* \"#utility.yul\":3155:3208   */\n      tag_560\n      jump\t// in\n    tag_587:\n        /* \"#utility.yul\":3145:3208   */\n      swap2\n      pop\n        /* \"#utility.yul\":3101:3218   */\n      pop\n        /* \"#utility.yul\":2896:3225   */\n      swap3\n      swap2\n      pop\n      pop\n      jump\t// out\n        /* \"#utility.yul\":3231:3582   */\n    tag_182:\n        /* \"#utility.yul\":3301:3307   */\n      0x00\n        /* \"#utility.yul\":3350:3352   */\n      0x20\n        /* \"#utility.yul\":3338:3347   */\n      dup3\n        /* \"#utility.yul\":3329:3336   */\n      dup5\n        /* \"#utility.yul\":3325:3348   */\n      sub\n        /* \"#utility.yul\":3321:3353   */\n      slt\n        /* \"#utility.yul\":3318:3437   */\n      iszero\n      tag_589\n      jumpi\n        /* \"#utility.yul\":3356:3435   */\n      tag_590\n      tag_570\n      jump\t// in\n    tag_590:\n        /* \"#utility.yul\":3318:3437   */\n    tag_589:\n        /* \"#utility.yul\":3476:3477   */\n      0x00\n        /* \"#utility.yul\":3501:3565   */\n      tag_591\n        /* \"#utility.yul\":3557:3564   */\n      dup5\n        /* \"#utility.yul\":3548:3554   */\n      dup3\n        /* \"#utility.yul\":3537:3546   */\n      dup6\n        /* \"#utility.yul\":3533:3555   */\n      add\n        /* \"#utility.yul\":3501:3565   */\n      tag_564\n      jump\t// in\n    tag_591:\n        /* \"#utility.yul\":3491:3565   */\n      swap2\n      pop\n        /* \"#utility.yul\":3447:3575   */\n      pop\n        /* \"#utility.yul\":3231:3582   */\n      swap3\n      swap2\n      pop\n      pop\n      jump\t// out\n        /* \"#utility.yul\":3588:4062   */\n    tag_79:\n        /* \"#utility.yul\":3656:3662   */\n      0x00\n        /* \"#utility.yul\":3664:3670   */\n      dup1\n        /* \"#utility.yul\":3713:3715   */\n      0x40\n        /* \"#utility.yul\":3701:3710   */\n      dup4\n        /* \"#utility.yul\":3692:3699   */\n      dup6\n        /* \"#utility.yul\":3688:3711   */\n      sub\n        /* \"#utility.yul\":3684:3716   */\n      slt\n        /* \"#utility.yul\":3681:3800   */\n      iszero\n      tag_593\n      jumpi\n        /* \"#utility.yul\":3719:3798   */\n      tag_594\n      tag_570\n      jump\t// in\n    tag_594:\n        /* \"#utility.yul\":3681:3800   */\n    tag_593:\n        /* \"#utility.yul\":3839:3840   */\n      0x00\n        /* \"#utility.yul\":3864:3917   */\n      tag_595\n        /* \"#utility.yul\":3909:3916   */\n      dup6\n        /* \"#utility.yul\":3900:3906   */\n      dup3\n        /* \"#utility.yul\":3889:3898   */\n      dup7\n        /* \"#utility.yul\":3885:3907   */\n      add\n        /* \"#utility.yul\":3864:3917   */\n      tag_560\n      jump\t// in\n    tag_595:\n        /* \"#utility.yul\":3854:3917   */\n      swap3\n      pop\n        /* \"#utility.yul\":3810:3927   */\n      pop\n        /* \"#utility.yul\":3966:3968   */\n      0x20\n        /* \"#utility.yul\":3992:4045   */\n      tag_596\n        /* \"#utility.yul\":4037:4044   */\n      dup6\n        /* \"#utility.yul\":4028:4034   */\n      dup3\n        /* \"#utility.yul\":4017:4026   */\n      dup7\n        /* \"#utility.yul\":4013:4035   */\n      add\n        /* \"#utility.yul\":3992:4045   */\n      tag_534\n      jump\t// in\n    tag_596:\n        /* \"#utility.yul\":3982:4045   */\n      swap2\n      pop\n        /* \"#utility.yul\":3937:4055   */\n      pop\n        /* \"#utility.yul\":3588:4062   */\n      swap3\n      pop\n      swap3\n      swap1\n      pop\n      jump\t// out\n        /* \"#utility.yul\":4068:5067   */\n    tag_158:\n        /* \"#utility.yul\":4207:4213   */\n      0x00\n        /* \"#utility.yul\":4215:4221   */\n      dup1\n        /* \"#utility.yul\":4223:4229   */\n      0x00\n        /* \"#utility.yul\":4231:4237   */\n      dup1\n        /* \"#utility.yul\":4239:4245   */\n      0x00\n        /* \"#utility.yul\":4288:4291   */\n      0xa0\n        /* \"#utility.yul\":4276:4285   */\n      dup7\n        /* \"#utility.yul\":4267:4274   */\n      dup9\n        /* \"#utility.yul\":4263:4286   */\n      sub\n        /* \"#utility.yul\":4259:4292   */\n      slt\n        /* \"#utility.yul\":4256:4376   */\n      iszero\n      tag_598\n      jumpi\n        /* \"#utility.yul\":4295:4374   */\n      tag_599\n      tag_570\n      jump\t// in\n    tag_599:\n        /* \"#utility.yul\":4256:4376   */\n    tag_598:\n        /* \"#utility.yul\":4415:4416   */\n      0x00\n        /* \"#utility.yul\":4440:4493   */\n      tag_600\n        /* \"#utility.yul\":4485:4492   */\n      dup9\n        /* \"#utility.yul\":4476:4482   */\n      dup3\n        /* \"#utility.yul\":4465:4474   */\n      dup10\n        /* \"#utility.yul\":4461:4483   */\n      add\n        /* \"#utility.yul\":4440:4493   */\n      tag_560\n      jump\t// in\n    tag_600:\n        /* \"#utility.yul\":4430:4493   */\n      swap6\n      pop\n        /* \"#utility.yul\":4386:4503   */\n      pop\n        /* \"#utility.yul\":4542:4544   */\n      0x20\n        /* \"#utility.yul\":4568:4635   */\n      tag_601\n        /* \"#utility.yul\":4627:4634   */\n      dup9\n        /* \"#utility.yul\":4618:4624   */\n      dup3\n        /* \"#utility.yul\":4607:4616   */\n      dup10\n        /* \"#utility.yul\":4603:4625   */\n      add\n        /* \"#utility.yul\":4568:4635   */\n      tag_545\n      jump\t// in\n    tag_601:\n        /* \"#utility.yul\":4558:4635   */\n      swap5\n      pop\n        /* \"#utility.yul\":4513:4645   */\n      pop\n        /* \"#utility.yul\":4684:4686   */\n      0x40\n        /* \"#utility.yul\":4710:4760   */\n      tag_602\n        /* \"#utility.yul\":4752:4759   */\n      dup9\n        /* \"#utility.yul\":4743:4749   */\n      dup3\n        /* \"#utility.yul\":4732:4741   */\n      dup10\n        /* \"#utility.yul\":4728:4750   */\n      add\n        /* \"#utility.yul\":4710:4760   */\n      tag_538\n      jump\t// in\n    tag_602:\n        /* \"#utility.yul\":4700:4760   */\n      swap4\n      pop\n        /* \"#utility.yul\":4655:4770   */\n      pop\n        /* \"#utility.yul\":4809:4811   */\n      0x60\n        /* \"#utility.yul\":4835:4907   */\n      tag_603\n        /* \"#utility.yul\":4899:4906   */\n      dup9\n        /* \"#utility.yul\":4890:4896   */\n      dup3\n        /* \"#utility.yul\":4879:4888   */\n      dup10\n        /* \"#utility.yul\":4875:4897   */\n      add\n        /* \"#utility.yul\":4835:4907   */\n      tag_552\n      jump\t// in\n    tag_603:\n        /* \"#utility.yul\":4825:4907   */\n      swap3\n      pop\n        /* \"#utility.yul\":4780:4917   */\n      pop\n        /* \"#utility.yul\":4956:4959   */\n      0x80\n        /* \"#utility.yul\":4983:5050   */\n      tag_604\n        /* \"#utility.yul\":5042:5049   */\n      dup9\n        /* \"#utility.yul\":5033:5039   */\n      dup3\n        /* \"#utility.yul\":5022:5031   */\n      dup10\n        /* \"#utility.yul\":5018:5040   */\n      add\n        /* \"#utility.yul\":4983:5050   */\n      tag_545\n      jump\t// in\n    tag_604:\n        /* \"#utility.yul\":4973:5050   */\n      swap2\n      pop\n        /* \"#utility.yul\":4927:5060   */\n      pop\n        /* \"#utility.yul\":4068:5067   */\n      swap3\n      swap6\n      pop\n      swap3\n      swap6\n      swap1\n      swap4\n      pop\n      jump\t// out\n        /* \"#utility.yul\":5073:5547   */\n    tag_125:\n        /* \"#utility.yul\":5141:5147   */\n      0x00\n        /* \"#utility.yul\":5149:5155   */\n      dup1\n        /* \"#utility.yul\":5198:5200   */\n      0x40\n        /* \"#utility.yul\":5186:5195   */\n      dup4\n        /* \"#utility.yul\":5177:5184   */\n      dup6\n        /* \"#utility.yul\":5173:5196   */\n      sub\n        /* \"#utility.yul\":5169:5201   */\n      slt\n        /* \"#utility.yul\":5166:5285   */\n      iszero\n      tag_606\n      jumpi\n        /* \"#utility.yul\":5204:5283   */\n      tag_607\n      tag_570\n      jump\t// in\n    tag_607:\n        /* \"#utility.yul\":5166:5285   */\n    tag_606:\n        /* \"#utility.yul\":5324:5325   */\n      0x00\n        /* \"#utility.yul\":5349:5402   */\n      tag_608\n        /* \"#utility.yul\":5394:5401   */\n      dup6\n        /* \"#utility.yul\":5385:5391   */\n      dup3\n        /* \"#utility.yul\":5374:5383   */\n      dup7\n        /* \"#utility.yul\":5370:5392   */\n      add\n        /* \"#utility.yul\":5349:5402   */\n      tag_560\n      jump\t// in\n    tag_608:\n        /* \"#utility.yul\":5339:5402   */\n      swap3\n      pop\n        /* \"#utility.yul\":5295:5412   */\n      pop\n        /* \"#utility.yul\":5451:5453   */\n      0x20\n        /* \"#utility.yul\":5477:5530   */\n      tag_609\n        /* \"#utility.yul\":5522:5529   */\n      dup6\n        /* \"#utility.yul\":5513:5519   */\n      dup3\n        /* \"#utility.yul\":5502:5511   */\n      dup7\n        /* \"#utility.yul\":5498:5520   */\n      add\n        /* \"#utility.yul\":5477:5530   */\n      tag_560\n      jump\t// in\n    tag_609:\n        /* \"#utility.yul\":5467:5530   */\n      swap2\n      pop\n        /* \"#utility.yul\":5422:5540   */\n      pop\n        /* \"#utility.yul\":5073:5547   */\n      swap3\n      pop\n      swap3\n      swap1\n      pop\n      jump\t// out\n        /* \"#utility.yul\":5553:6166   */\n    tag_98:\n        /* \"#utility.yul\":5627:5633   */\n      0x00\n        /* \"#utility.yul\":5635:5641   */\n      dup1\n        /* \"#utility.yul\":5643:5649   */\n      0x00\n        /* \"#utility.yul\":5692:5694   */\n      0x60\n        /* \"#utility.yul\":5680:5689   */\n      dup5\n        /* \"#utility.yul\":5671:5678   */\n      dup7\n        /* \"#utility.yul\":5667:5690   */\n      sub\n        /* \"#utility.yul\":5663:5695   */\n      slt\n        /* \"#utility.yul\":5660:5779   */\n      iszero\n      tag_611\n      jumpi\n        /* \"#utility.yul\":5698:5777   */\n      tag_612\n      tag_570\n      jump\t// in\n    tag_612:\n        /* \"#utility.yul\":5660:5779   */\n    tag_611:\n        /* \"#utility.yul\":5818:5819   */\n      0x00\n        /* \"#utility.yul\":5843:5896   */\n      tag_613\n        /* \"#utility.yul\":5888:5895   */\n      dup7\n        /* \"#utility.yul\":5879:5885   */\n      dup3\n        /* \"#utility.yul\":5868:5877   */\n      dup8\n        /* \"#utility.yul\":5864:5886   */\n      add\n        /* \"#utility.yul\":5843:5896   */\n      tag_560\n      jump\t// in\n    tag_613:\n        /* \"#utility.yul\":5833:5896   */\n      swap4\n      pop\n        /* \"#utility.yul\":5789:5906   */\n      pop\n        /* \"#utility.yul\":5945:5947   */\n      0x20\n        /* \"#utility.yul\":5971:6024   */\n      tag_614\n        /* \"#utility.yul\":6016:6023   */\n      dup7\n        /* \"#utility.yul\":6007:6013   */\n      dup3\n        /* \"#utility.yul\":5996:6005   */\n      dup8\n        /* \"#utility.yul\":5992:6014   */\n      add\n        /* \"#utility.yul\":5971:6024   */\n      tag_560\n      jump\t// in\n    tag_614:\n        /* \"#utility.yul\":5961:6024   */\n      swap3\n      pop\n        /* \"#utility.yul\":5916:6034   */\n      pop\n        /* \"#utility.yul\":6073:6075   */\n      0x40\n        /* \"#utility.yul\":6099:6149   */\n      tag_615\n        /* \"#utility.yul\":6141:6148   */\n      dup7\n        /* \"#utility.yul\":6132:6138   */\n      dup3\n        /* \"#utility.yul\":6121:6130   */\n      dup8\n        /* \"#utility.yul\":6117:6139   */\n      add\n        /* \"#utility.yul\":6099:6149   */\n      tag_538\n      jump\t// in\n    tag_615:\n        /* \"#utility.yul\":6089:6149   */\n      swap2\n      pop\n        /* \"#utility.yul\":6044:6159   */\n      pop\n        /* \"#utility.yul\":5553:6166   */\n      swap3\n      pop\n      swap3\n      pop\n      swap3\n      jump\t// out\n        /* \"#utility.yul\":6172:6791   */\n    tag_45:\n        /* \"#utility.yul\":6249:6255   */\n      0x00\n        /* \"#utility.yul\":6257:6263   */\n      dup1\n        /* \"#utility.yul\":6265:6271   */\n      0x00\n        /* \"#utility.yul\":6314:6316   */\n      0x60\n        /* \"#utility.yul\":6302:6311   */\n      dup5\n        /* \"#utility.yul\":6293:6300   */\n      dup7\n        /* \"#utility.yul\":6289:6312   */\n      sub\n        /* \"#utility.yul\":6285:6317   */\n      slt\n        /* \"#utility.yul\":6282:6401   */\n      iszero\n      tag_617\n      jumpi\n        /* \"#utility.yul\":6320:6399   */\n      tag_618\n      tag_570\n      jump\t// in\n    tag_618:\n        /* \"#utility.yul\":6282:6401   */\n    tag_617:\n        /* \"#utility.yul\":6440:6441   */\n      0x00\n        /* \"#utility.yul\":6465:6518   */\n      tag_619\n        /* \"#utility.yul\":6510:6517   */\n      dup7\n        /* \"#utility.yul\":6501:6507   */\n      dup3\n        /* \"#utility.yul\":6490:6499   */\n      dup8\n        /* \"#utility.yul\":6486:6508   */\n      add\n        /* \"#utility.yul\":6465:6518   */\n      tag_560\n      jump\t// in\n    tag_619:\n        /* \"#utility.yul\":6455:6518   */\n      swap4\n      pop\n        /* \"#utility.yul\":6411:6528   */\n      pop\n        /* \"#utility.yul\":6567:6569   */\n      0x20\n        /* \"#utility.yul\":6593:6646   */\n      tag_620\n        /* \"#utility.yul\":6638:6645   */\n      dup7\n        /* \"#utility.yul\":6629:6635   */\n      dup3\n        /* \"#utility.yul\":6618:6627   */\n      dup8\n        /* \"#utility.yul\":6614:6636   */\n      add\n        /* \"#utility.yul\":6593:6646   */\n      tag_560\n      jump\t// in\n    tag_620:\n        /* \"#utility.yul\":6583:6646   */\n      swap3\n      pop\n        /* \"#utility.yul\":6538:6656   */\n      pop\n        /* \"#utility.yul\":6695:6697   */\n      0x40\n        /* \"#utility.yul\":6721:6774   */\n      tag_621\n        /* \"#utility.yul\":6766:6773   */\n      dup7\n        /* \"#utility.yul\":6757:6763   */\n      dup3\n        /* \"#utility.yul\":6746:6755   */\n      dup8\n        /* \"#utility.yul\":6742:6764   */\n      add\n        /* \"#utility.yul\":6721:6774   */\n      tag_560\n      jump\t// in\n    tag_621:\n        /* \"#utility.yul\":6711:6774   */\n      swap2\n      pop\n        /* \"#utility.yul\":6666:6784   */\n      pop\n        /* \"#utility.yul\":6172:6791   */\n      swap3\n      pop\n      swap3\n      pop\n      swap3\n      jump\t// out\n        /* \"#utility.yul\":6797:6915   */\n    tag_622:\n        /* \"#utility.yul\":6884:6908   */\n      tag_624\n        /* \"#utility.yul\":6902:6907   */\n      dup2\n        /* \"#utility.yul\":6884:6908   */\n      tag_625\n      jump\t// in\n    tag_624:\n        /* \"#utility.yul\":6879:6882   */\n      dup3\n        /* \"#utility.yul\":6872:6909   */\n      mstore\n        /* \"#utility.yul\":6797:6915   */\n      pop\n      pop\n      jump\t// out\n        /* \"#utility.yul\":6921:7294   */\n    tag_626:\n        /* \"#utility.yul\":7025:7028   */\n      0x00\n        /* \"#utility.yul\":7053:7091   */\n      tag_628\n        /* \"#utility.yul\":7085:7090   */\n      dup3\n        /* \"#utility.yul\":7053:7091   */\n      tag_629\n      jump\t// in\n    tag_628:\n        /* \"#utility.yul\":7107:7195   */\n      tag_630\n        /* \"#utility.yul\":7188:7194   */\n      dup2\n        /* \"#utility.yul\":7183:7186   */\n      dup6\n        /* \"#utility.yul\":7107:7195   */\n      tag_631\n      jump\t// in\n    tag_630:\n        /* \"#utility.yul\":7100:7195   */\n      swap4\n      pop\n        /* \"#utility.yul\":7204:7256   */\n      tag_632\n        /* \"#utility.yul\":7249:7255   */\n      dup2\n        /* \"#utility.yul\":7244:7247   */\n      dup6\n        /* \"#utility.yul\":7237:7241   */\n      0x20\n        /* \"#utility.yul\":7230:7235   */\n      dup7\n        /* \"#utility.yul\":7226:7242   */\n      add\n        /* \"#utility.yul\":7204:7256   */\n      tag_633\n      jump\t// in\n    tag_632:\n        /* \"#utility.yul\":7281:7287   */\n      dup1\n        /* \"#utility.yul\":7276:7279   */\n      dup5\n        /* \"#utility.yul\":7272:7288   */\n      add\n        /* \"#utility.yul\":7265:7288   */\n      swap2\n      pop\n        /* \"#utility.yul\":7029:7294   */\n      pop\n        /* \"#utility.yul\":6921:7294   */\n      swap3\n      swap2\n      pop\n      pop\n      jump\t// out\n        /* \"#utility.yul\":7300:7459   */\n    tag_634:\n        /* \"#utility.yul\":7401:7452   */\n      tag_636\n        /* \"#utility.yul\":7446:7451   */\n      dup2\n        /* \"#utility.yul\":7401:7452   */\n      tag_637\n      jump\t// in\n    tag_636:\n        /* \"#utility.yul\":7396:7399   */\n      dup3\n        /* \"#utility.yul\":7389:7453   */\n      mstore\n        /* \"#utility.yul\":7300:7459   */\n      pop\n      pop\n      jump\t// out\n        /* \"#utility.yul\":7465:7634   */\n    tag_638:\n        /* \"#utility.yul\":7571:7627   */\n      tag_640\n        /* \"#utility.yul\":7621:7626   */\n      dup2\n        /* \"#utility.yul\":7571:7627   */\n      tag_641\n      jump\t// in\n    tag_640:\n        /* \"#utility.yul\":7566:7569   */\n      dup3\n        /* \"#utility.yul\":7559:7628   */\n      mstore\n        /* \"#utility.yul\":7465:7634   */\n      pop\n      pop\n      jump\t// out\n        /* \"#utility.yul\":7640:7813   */\n    tag_642:\n        /* \"#utility.yul\":7748:7806   */\n      tag_644\n        /* \"#utility.yul\":7800:7805   */\n      dup2\n        /* \"#utility.yul\":7748:7806   */\n      tag_645\n      jump\t// in\n    tag_644:\n        /* \"#utility.yul\":7743:7746   */\n      dup3\n        /* \"#utility.yul\":7736:7807   */\n      mstore\n        /* \"#utility.yul\":7640:7813   */\n      pop\n      pop\n      jump\t// out\n        /* \"#utility.yul\":7819:7994   */\n    tag_646:\n        /* \"#utility.yul\":7928:7987   */\n      tag_648\n        /* \"#utility.yul\":7981:7986   */\n      dup2\n        /* \"#utility.yul\":7928:7987   */\n      tag_649\n      jump\t// in\n    tag_648:\n        /* \"#utility.yul\":7923:7926   */\n      dup3\n        /* \"#utility.yul\":7916:7988   */\n      mstore\n        /* \"#utility.yul\":7819:7994   */\n      pop\n      pop\n      jump\t// out\n        /* \"#utility.yul\":8000:8364   */\n    tag_650:\n        /* \"#utility.yul\":8088:8091   */\n      0x00\n        /* \"#utility.yul\":8116:8155   */\n      tag_652\n        /* \"#utility.yul\":8149:8154   */\n      dup3\n        /* \"#utility.yul\":8116:8155   */\n      tag_653\n      jump\t// in\n    tag_652:\n        /* \"#utility.yul\":8171:8242   */\n      tag_654\n        /* \"#utility.yul\":8235:8241   */\n      dup2\n        /* \"#utility.yul\":8230:8233   */\n      dup6\n        /* \"#utility.yul\":8171:8242   */\n      tag_655\n      jump\t// in\n    tag_654:\n        /* \"#utility.yul\":8164:8242   */\n      swap4\n      pop\n        /* \"#utility.yul\":8251:8303   */\n      tag_656\n        /* \"#utility.yul\":8296:8302   */\n      dup2\n        /* \"#utility.yul\":8291:8294   */\n      dup6\n        /* \"#utility.yul\":8284:8288   */\n      0x20\n        /* \"#utility.yul\":8277:8282   */\n      dup7\n        /* \"#utility.yul\":8273:8289   */\n      add\n        /* \"#utility.yul\":8251:8303   */\n      tag_633\n      jump\t// in\n    tag_656:\n        /* \"#utility.yul\":8328:8357   */\n      tag_657\n        /* \"#utility.yul\":8350:8356   */\n      dup2\n        /* \"#utility.yul\":8328:8357   */\n      tag_658\n      jump\t// in\n    tag_657:\n        /* \"#utility.yul\":8323:8326   */\n      dup5\n        /* \"#utility.yul\":8319:8358   */\n      add\n        /* \"#utility.yul\":8312:8358   */\n      swap2\n      pop\n        /* \"#utility.yul\":8092:8364   */\n      pop\n        /* \"#utility.yul\":8000:8364   */\n      swap3\n      swap2\n      pop\n      pop\n      jump\t// out\n        /* \"#utility.yul\":8370:8736   */\n    tag_659:\n        /* \"#utility.yul\":8512:8515   */\n      0x00\n        /* \"#utility.yul\":8533:8600   */\n      tag_661\n        /* \"#utility.yul\":8597:8599   */\n      0x26\n        /* \"#utility.yul\":8592:8595   */\n      dup4\n        /* \"#utility.yul\":8533:8600   */\n      tag_655\n      jump\t// in\n    tag_661:\n        /* \"#utility.yul\":8526:8600   */\n      swap2\n      pop\n        /* \"#utility.yul\":8609:8702   */\n      tag_662\n        /* \"#utility.yul\":8698:8701   */\n      dup3\n        /* \"#utility.yul\":8609:8702   */\n      tag_663\n      jump\t// in\n    tag_662:\n        /* \"#utility.yul\":8727:8729   */\n      0x40\n        /* \"#utility.yul\":8722:8725   */\n      dup3\n        /* \"#utility.yul\":8718:8730   */\n      add\n        /* \"#utility.yul\":8711:8730   */\n      swap1\n      pop\n        /* \"#utility.yul\":8370:8736   */\n      swap2\n      swap1\n      pop\n      jump\t// out\n        /* \"#utility.yul\":8742:9108   */\n    tag_664:\n        /* \"#utility.yul\":8884:8887   */\n      0x00\n        /* \"#utility.yul\":8905:8972   */\n      tag_666\n        /* \"#utility.yul\":8969:8971   */\n      0x1b\n        /* \"#utility.yul\":8964:8967   */\n      dup4\n        /* \"#utility.yul\":8905:8972   */\n      tag_655\n      jump\t// in\n    tag_666:\n        /* \"#utility.yul\":8898:8972   */\n      swap2\n      pop\n        /* \"#utility.yul\":8981:9074   */\n      tag_667\n        /* \"#utility.yul\":9070:9073   */\n      dup3\n        /* \"#utility.yul\":8981:9074   */\n      tag_668\n      jump\t// in\n    tag_667:\n        /* \"#utility.yul\":9099:9101   */\n      0x20\n        /* \"#utility.yul\":9094:9097   */\n      dup3\n        /* \"#utility.yul\":9090:9102   */\n      add\n        /* \"#utility.yul\":9083:9102   */\n      swap1\n      pop\n        /* \"#utility.yul\":8742:9108   */\n      swap2\n      swap1\n      pop\n      jump\t// out\n        /* \"#utility.yul\":9114:9480   */\n    tag_669:\n        /* \"#utility.yul\":9256:9259   */\n      0x00\n        /* \"#utility.yul\":9277:9344   */\n      tag_671\n        /* \"#utility.yul\":9341:9343   */\n      0x26\n        /* \"#utility.yul\":9336:9339   */\n      dup4\n        /* \"#utility.yul\":9277:9344   */\n      tag_655\n      jump\t// in\n    tag_671:\n        /* \"#utility.yul\":9270:9344   */\n      swap2\n      pop\n        /* \"#utility.yul\":9353:9446   */\n      tag_672\n        /* \"#utility.yul\":9442:9445   */\n      dup3\n        /* \"#utility.yul\":9353:9446   */\n      tag_673\n      jump\t// in\n    tag_672:\n        /* \"#utility.yul\":9471:9473   */\n      0x40\n        /* \"#utility.yul\":9466:9469   */\n      dup3\n        /* \"#utility.yul\":9462:9474   */\n      add\n        /* \"#utility.yul\":9455:9474   */\n      swap1\n      pop\n        /* \"#utility.yul\":9114:9480   */\n      swap2\n      swap1\n      pop\n      jump\t// out\n        /* \"#utility.yul\":9486:9852   */\n    tag_674:\n        /* \"#utility.yul\":9628:9631   */\n      0x00\n        /* \"#utility.yul\":9649:9716   */\n      tag_676\n        /* \"#utility.yul\":9713:9715   */\n      0x21\n        /* \"#utility.yul\":9708:9711   */\n      dup4\n        /* \"#utility.yul\":9649:9716   */\n      tag_655\n      jump\t// in\n    tag_676:\n        /* \"#utility.yul\":9642:9716   */\n      swap2\n      pop\n        /* \"#utility.yul\":9725:9818   */\n      tag_677\n        /* \"#utility.yul\":9814:9817   */\n      dup3\n        /* \"#utility.yul\":9725:9818   */\n      tag_678\n      jump\t// in\n    tag_677:\n        /* \"#utility.yul\":9843:9845   */\n      0x40\n        /* \"#utility.yul\":9838:9841   */\n      dup3\n        /* \"#utility.yul\":9834:9846   */\n      add\n        /* \"#utility.yul\":9827:9846   */\n      swap1\n      pop\n        /* \"#utility.yul\":9486:9852   */\n      swap2\n      swap1\n      pop\n      jump\t// out\n        /* \"#utility.yul\":9858:10224   */\n    tag_679:\n        /* \"#utility.yul\":10000:10003   */\n      0x00\n        /* \"#utility.yul\":10021:10088   */\n      tag_681\n        /* \"#utility.yul\":10085:10087   */\n      0x20\n        /* \"#utility.yul\":10080:10083   */\n      dup4\n        /* \"#utility.yul\":10021:10088   */\n      tag_655\n      jump\t// in\n    tag_681:\n        /* \"#utility.yul\":10014:10088   */\n      swap2\n      pop\n        /* \"#utility.yul\":10097:10190   */\n      tag_682\n        /* \"#utility.yul\":10186:10189   */\n      dup3\n        /* \"#utility.yul\":10097:10190   */\n      tag_683\n      jump\t// in\n    tag_682:\n        /* \"#utility.yul\":10215:10217   */\n      0x20\n        /* \"#utility.yul\":10210:10213   */\n      dup3\n        /* \"#utility.yul\":10206:10218   */\n      add\n        /* \"#utility.yul\":10199:10218   */\n      swap1\n      pop\n        /* \"#utility.yul\":9858:10224   */\n      swap2\n      swap1\n      pop\n      jump\t// out\n        /* \"#utility.yul\":10230:10596   */\n    tag_684:\n        /* \"#utility.yul\":10372:10375   */\n      0x00\n        /* \"#utility.yul\":10393:10460   */\n      tag_686\n        /* \"#utility.yul\":10457:10459   */\n      0x1d\n        /* \"#utility.yul\":10452:10455   */\n      dup4\n        /* \"#utility.yul\":10393:10460   */\n      tag_655\n      jump\t// in\n    tag_686:\n        /* \"#utility.yul\":10386:10460   */\n      swap2\n      pop\n        /* \"#utility.yul\":10469:10562   */\n      tag_687\n        /* \"#utility.yul\":10558:10561   */\n      dup3\n        /* \"#utility.yul\":10469:10562   */\n      tag_688\n      jump\t// in\n    tag_687:\n        /* \"#utility.yul\":10587:10589   */\n      0x20\n        /* \"#utility.yul\":10582:10585   */\n      dup3\n        /* \"#utility.yul\":10578:10590   */\n      add\n        /* \"#utility.yul\":10571:10590   */\n      swap1\n      pop\n        /* \"#utility.yul\":10230:10596   */\n      swap2\n      swap1\n      pop\n      jump\t// out\n        /* \"#utility.yul\":10602:10968   */\n    tag_689:\n        /* \"#utility.yul\":10744:10747   */\n      0x00\n        /* \"#utility.yul\":10765:10832   */\n      tag_691\n        /* \"#utility.yul\":10829:10831   */\n      0x12\n        /* \"#utility.yul\":10824:10827   */\n      dup4\n        /* \"#utility.yul\":10765:10832   */\n      tag_655\n      jump\t// in\n    tag_691:\n        /* \"#utility.yul\":10758:10832   */\n      swap2\n      pop\n        /* \"#utility.yul\":10841:10934   */\n      tag_692\n        /* \"#utility.yul\":10930:10933   */\n      dup3\n        /* \"#utility.yul\":10841:10934   */\n      tag_693\n      jump\t// in\n    tag_692:\n        /* \"#utility.yul\":10959:10961   */\n      0x20\n        /* \"#utility.yul\":10954:10957   */\n      dup3\n        /* \"#utility.yul\":10950:10962   */\n      add\n        /* \"#utility.yul\":10943:10962   */\n      swap1\n      pop\n        /* \"#utility.yul\":10602:10968   */\n      swap2\n      swap1\n      pop\n      jump\t// out\n        /* \"#utility.yul\":10974:11340   */\n    tag_694:\n        /* \"#utility.yul\":11116:11119   */\n      0x00\n        /* \"#utility.yul\":11137:11204   */\n      tag_696\n        /* \"#utility.yul\":11201:11203   */\n      0x2a\n        /* \"#utility.yul\":11196:11199   */\n      dup4\n        /* \"#utility.yul\":11137:11204   */\n      tag_655\n      jump\t// in\n    tag_696:\n        /* \"#utility.yul\":11130:11204   */\n      swap2\n      pop\n        /* \"#utility.yul\":11213:11306   */\n      tag_697\n        /* \"#utility.yul\":11302:11305   */\n      dup3\n        /* \"#utility.yul\":11213:11306   */\n      tag_698\n      jump\t// in\n    tag_697:\n        /* \"#utility.yul\":11331:11333   */\n      0x40\n        /* \"#utility.yul\":11326:11329   */\n      dup3\n        /* \"#utility.yul\":11322:11334   */\n      add\n        /* \"#utility.yul\":11315:11334   */\n      swap1\n      pop\n        /* \"#utility.yul\":10974:11340   */\n      swap2\n      swap1\n      pop\n      jump\t// out\n        /* \"#utility.yul\":11346:11712   */\n    tag_699:\n        /* \"#utility.yul\":11488:11491   */\n      0x00\n        /* \"#utility.yul\":11509:11576   */\n      tag_701\n        /* \"#utility.yul\":11573:11575   */\n      0x0c\n        /* \"#utility.yul\":11568:11571   */\n      dup4\n        /* \"#utility.yul\":11509:11576   */\n      tag_655\n      jump\t// in\n    tag_701:\n        /* \"#utility.yul\":11502:11576   */\n      swap2\n      pop\n        /* \"#utility.yul\":11585:11678   */\n      tag_702\n        /* \"#utility.yul\":11674:11677   */\n      dup3\n        /* \"#utility.yul\":11585:11678   */\n      tag_703\n      jump\t// in\n    tag_702:\n        /* \"#utility.yul\":11703:11705   */\n      0x20\n        /* \"#utility.yul\":11698:11701   */\n      dup3\n        /* \"#utility.yul\":11694:11706   */\n      add\n        /* \"#utility.yul\":11687:11706   */\n      swap1\n      pop\n        /* \"#utility.yul\":11346:11712   */\n      swap2\n      swap1\n      pop\n      jump\t// out\n        /* \"#utility.yul\":11718:12084   */\n    tag_704:\n        /* \"#utility.yul\":11860:11863   */\n      0x00\n        /* \"#utility.yul\":11881:11948   */\n      tag_706\n        /* \"#utility.yul\":11945:11947   */\n      0x36\n        /* \"#utility.yul\":11940:11943   */\n      dup4\n        /* \"#utility.yul\":11881:11948   */\n      tag_655\n      jump\t// in\n    tag_706:\n        /* \"#utility.yul\":11874:11948   */\n      swap2\n      pop\n        /* \"#utility.yul\":11957:12050   */\n      tag_707\n        /* \"#utility.yul\":12046:12049   */\n      dup3\n        /* \"#utility.yul\":11957:12050   */\n      tag_708\n      jump\t// in\n    tag_707:\n        /* \"#utility.yul\":12075:12077   */\n      0x40\n        /* \"#utility.yul\":12070:12073   */\n      dup3\n        /* \"#utility.yul\":12066:12078   */\n      add\n        /* \"#utility.yul\":12059:12078   */\n      swap1\n      pop\n        /* \"#utility.yul\":11718:12084   */\n      swap2\n      swap1\n      pop\n      jump\t// out\n        /* \"#utility.yul\":12090:12456   */\n    tag_709:\n        /* \"#utility.yul\":12232:12235   */\n      0x00\n        /* \"#utility.yul\":12253:12320   */\n      tag_711\n        /* \"#utility.yul\":12317:12319   */\n      0x14\n        /* \"#utility.yul\":12312:12315   */\n      dup4\n        /* \"#utility.yul\":12253:12320   */\n      tag_655\n      jump\t// in\n    tag_711:\n        /* \"#utility.yul\":12246:12320   */\n      swap2\n      pop\n        /* \"#utility.yul\":12329:12422   */\n      tag_712\n        /* \"#utility.yul\":12418:12421   */\n      dup3\n        /* \"#utility.yul\":12329:12422   */\n      tag_713\n      jump\t// in\n    tag_712:\n        /* \"#utility.yul\":12447:12449   */\n      0x20\n        /* \"#utility.yul\":12442:12445   */\n      dup3\n        /* \"#utility.yul\":12438:12450   */\n      add\n        /* \"#utility.yul\":12431:12450   */\n      swap1\n      pop\n        /* \"#utility.yul\":12090:12456   */\n      swap2\n      swap1\n      pop\n      jump\t// out\n        /* \"#utility.yul\":12462:12580   */\n    tag_714:\n        /* \"#utility.yul\":12549:12573   */\n      tag_716\n        /* \"#utility.yul\":12567:12572   */\n      dup2\n        /* \"#utility.yul\":12549:12573   */\n      tag_717\n      jump\t// in\n    tag_716:\n        /* \"#utility.yul\":12544:12547   */\n      dup3\n        /* \"#utility.yul\":12537:12574   */\n      mstore\n        /* \"#utility.yul\":12462:12580   */\n      pop\n      pop\n      jump\t// out\n        /* \"#utility.yul\":12586:12857   */\n    tag_520:\n        /* \"#utility.yul\":12716:12719   */\n      0x00\n        /* \"#utility.yul\":12738:12831   */\n      tag_719\n        /* \"#utility.yul\":12827:12830   */\n      dup3\n        /* \"#utility.yul\":12818:12824   */\n      dup5\n        /* \"#utility.yul\":12738:12831   */\n      tag_626\n      jump\t// in\n    tag_719:\n        /* \"#utility.yul\":12731:12831   */\n      swap2\n      pop\n        /* \"#utility.yul\":12848:12851   */\n      dup2\n        /* \"#utility.yul\":12841:12851   */\n      swap1\n      pop\n        /* \"#utility.yul\":12586:12857   */\n      swap3\n      swap2\n      pop\n      pop\n      jump\t// out\n        /* \"#utility.yul\":12863:13085   */\n    tag_122:\n        /* \"#utility.yul\":12956:12960   */\n      0x00\n        /* \"#utility.yul\":12994:12996   */\n      0x20\n        /* \"#utility.yul\":12983:12992   */\n      dup3\n        /* \"#utility.yul\":12979:12997   */\n      add\n        /* \"#utility.yul\":12971:12997   */\n      swap1\n      pop\n        /* \"#utility.yul\":13007:13078   */\n      tag_721\n        /* \"#utility.yul\":13075:13076   */\n      0x00\n        /* \"#utility.yul\":13064:13073   */\n      dup4\n        /* \"#utility.yul\":13060:13077   */\n      add\n        /* \"#utility.yul\":13051:13057   */\n      dup5\n        /* \"#utility.yul\":13007:13078   */\n      tag_622\n      jump\t// in\n    tag_721:\n        /* \"#utility.yul\":12863:13085   */\n      swap3\n      swap2\n      pop\n      pop\n      jump\t// out\n        /* \"#utility.yul\":13091:13423   */\n    tag_177:\n        /* \"#utility.yul\":13212:13216   */\n      0x00\n        /* \"#utility.yul\":13250:13252   */\n      0x40\n        /* \"#utility.yul\":13239:13248   */\n      dup3\n        /* \"#utility.yul\":13235:13253   */\n      add\n        /* \"#utility.yul\":13227:13253   */\n      swap1\n      pop\n        /* \"#utility.yul\":13263:13334   */\n      tag_723\n        /* \"#utility.yul\":13331:13332   */\n      0x00\n        /* \"#utility.yul\":13320:13329   */\n      dup4\n        /* \"#utility.yul\":13316:13333   */\n      add\n        /* \"#utility.yul\":13307:13313   */\n      dup6\n        /* \"#utility.yul\":13263:13334   */\n      tag_622\n      jump\t// in\n    tag_723:\n        /* \"#utility.yul\":13344:13416   */\n      tag_724\n        /* \"#utility.yul\":13412:13414   */\n      0x20\n        /* \"#utility.yul\":13401:13410   */\n      dup4\n        /* \"#utility.yul\":13397:13415   */\n      add\n        /* \"#utility.yul\":13388:13394   */\n      dup5\n        /* \"#utility.yul\":13344:13416   */\n      tag_622\n      jump\t// in\n    tag_724:\n        /* \"#utility.yul\":13091:13423   */\n      swap4\n      swap3\n      pop\n      pop\n      pop\n      jump\t// out\n        /* \"#utility.yul\":13429:13871   */\n    tag_464:\n        /* \"#utility.yul\":13578:13582   */\n      0x00\n        /* \"#utility.yul\":13616:13618   */\n      0x60\n        /* \"#utility.yul\":13605:13614   */\n      dup3\n        /* \"#utility.yul\":13601:13619   */\n      add\n        /* \"#utility.yul\":13593:13619   */\n      swap1\n      pop\n        /* \"#utility.yul\":13629:13700   */\n      tag_726\n        /* \"#utility.yul\":13697:13698   */\n      0x00\n        /* \"#utility.yul\":13686:13695   */\n      dup4\n        /* \"#utility.yul\":13682:13699   */\n      add\n        /* \"#utility.yul\":13673:13679   */\n      dup7\n        /* \"#utility.yul\":13629:13700   */\n      tag_622\n      jump\t// in\n    tag_726:\n        /* \"#utility.yul\":13710:13782   */\n      tag_727\n        /* \"#utility.yul\":13778:13780   */\n      0x20\n        /* \"#utility.yul\":13767:13776   */\n      dup4\n        /* \"#utility.yul\":13763:13781   */\n      add\n        /* \"#utility.yul\":13754:13760   */\n      dup6\n        /* \"#utility.yul\":13710:13782   */\n      tag_622\n      jump\t// in\n    tag_727:\n        /* \"#utility.yul\":13792:13864   */\n      tag_728\n        /* \"#utility.yul\":13860:13862   */\n      0x40\n        /* \"#utility.yul\":13849:13858   */\n      dup4\n        /* \"#utility.yul\":13845:13863   */\n      add\n        /* \"#utility.yul\":13836:13842   */\n      dup5\n        /* \"#utility.yul\":13792:13864   */\n      tag_714\n      jump\t// in\n    tag_728:\n        /* \"#utility.yul\":13429:13871   */\n      swap5\n      swap4\n      pop\n      pop\n      pop\n      pop\n      jump\t// out\n        /* \"#utility.yul\":13877:14209   */\n    tag_282:\n        /* \"#utility.yul\":13998:14002   */\n      0x00\n        /* \"#utility.yul\":14036:14038   */\n      0x40\n        /* \"#utility.yul\":14025:14034   */\n      dup3\n        /* \"#utility.yul\":14021:14039   */\n      add\n        /* \"#utility.yul\":14013:14039   */\n      swap1\n      pop\n        /* \"#utility.yul\":14049:14120   */\n      tag_730\n        /* \"#utility.yul\":14117:14118   */\n      0x00\n        /* \"#utility.yul\":14106:14115   */\n      dup4\n        /* \"#utility.yul\":14102:14119   */\n      add\n        /* \"#utility.yul\":14093:14099   */\n      dup6\n        /* \"#utility.yul\":14049:14120   */\n      tag_622\n      jump\t// in\n    tag_730:\n        /* \"#utility.yul\":14130:14202   */\n      tag_731\n        /* \"#utility.yul\":14198:14200   */\n      0x20\n        /* \"#utility.yul\":14187:14196   */\n      dup4\n        /* \"#utility.yul\":14183:14201   */\n      add\n        /* \"#utility.yul\":14174:14180   */\n      dup5\n        /* \"#utility.yul\":14130:14202   */\n      tag_714\n      jump\t// in\n    tag_731:\n        /* \"#utility.yul\":13877:14209   */\n      swap4\n      swap3\n      pop\n      pop\n      pop\n      jump\t// out\n        /* \"#utility.yul\":14215:14465   */\n    tag_58:\n        /* \"#utility.yul\":14322:14326   */\n      0x00\n        /* \"#utility.yul\":14360:14362   */\n      0x20\n        /* \"#utility.yul\":14349:14358   */\n      dup3\n        /* \"#utility.yul\":14345:14363   */\n      add\n        /* \"#utility.yul\":14337:14363   */\n      swap1\n      pop\n        /* \"#utility.yul\":14373:14458   */\n      tag_733\n        /* \"#utility.yul\":14455:14456   */\n      0x00\n        /* \"#utility.yul\":14444:14453   */\n      dup4\n        /* \"#utility.yul\":14440:14457   */\n      add\n        /* \"#utility.yul\":14431:14437   */\n      dup5\n        /* \"#utility.yul\":14373:14458   */\n      tag_634\n      jump\t// in\n    tag_733:\n        /* \"#utility.yul\":14215:14465   */\n      swap3\n      swap2\n      pop\n      pop\n      jump\t// out\n        /* \"#utility.yul\":14471:15340   */\n    tag_63:\n        /* \"#utility.yul\":14751:14755   */\n      0x00\n        /* \"#utility.yul\":14789:14792   */\n      0xc0\n        /* \"#utility.yul\":14778:14787   */\n      dup3\n        /* \"#utility.yul\":14774:14793   */\n      add\n        /* \"#utility.yul\":14766:14793   */\n      swap1\n      pop\n        /* \"#utility.yul\":14803:14888   */\n      tag_735\n        /* \"#utility.yul\":14885:14886   */\n      0x00\n        /* \"#utility.yul\":14874:14883   */\n      dup4\n        /* \"#utility.yul\":14870:14887   */\n      add\n        /* \"#utility.yul\":14861:14867   */\n      dup10\n        /* \"#utility.yul\":14803:14888   */\n      tag_634\n      jump\t// in\n    tag_735:\n        /* \"#utility.yul\":14898:14970   */\n      tag_736\n        /* \"#utility.yul\":14966:14968   */\n      0x20\n        /* \"#utility.yul\":14955:14964   */\n      dup4\n        /* \"#utility.yul\":14951:14969   */\n      add\n        /* \"#utility.yul\":14942:14948   */\n      dup9\n        /* \"#utility.yul\":14898:14970   */\n      tag_714\n      jump\t// in\n    tag_736:\n        /* \"#utility.yul\":14980:15052   */\n      tag_737\n        /* \"#utility.yul\":15048:15050   */\n      0x40\n        /* \"#utility.yul\":15037:15046   */\n      dup4\n        /* \"#utility.yul\":15033:15051   */\n      add\n        /* \"#utility.yul\":15024:15030   */\n      dup8\n        /* \"#utility.yul\":14980:15052   */\n      tag_714\n      jump\t// in\n    tag_737:\n        /* \"#utility.yul\":15062:15134   */\n      tag_738\n        /* \"#utility.yul\":15130:15132   */\n      0x60\n        /* \"#utility.yul\":15119:15128   */\n      dup4\n        /* \"#utility.yul\":15115:15133   */\n      add\n        /* \"#utility.yul\":15106:15112   */\n      dup7\n        /* \"#utility.yul\":15062:15134   */\n      tag_714\n      jump\t// in\n    tag_738:\n        /* \"#utility.yul\":15144:15236   */\n      tag_739\n        /* \"#utility.yul\":15231:15234   */\n      0x80\n        /* \"#utility.yul\":15220:15229   */\n      dup4\n        /* \"#utility.yul\":15216:15235   */\n      add\n        /* \"#utility.yul\":15207:15213   */\n      dup6\n        /* \"#utility.yul\":15144:15236   */\n      tag_638\n      jump\t// in\n    tag_739:\n        /* \"#utility.yul\":15246:15333   */\n      tag_740\n        /* \"#utility.yul\":15328:15331   */\n      0xa0\n        /* \"#utility.yul\":15317:15326   */\n      dup4\n        /* \"#utility.yul\":15313:15332   */\n      add\n        /* \"#utility.yul\":15304:15310   */\n      dup5\n        /* \"#utility.yul\":15246:15333   */\n      tag_634\n      jump\t// in\n    tag_740:\n        /* \"#utility.yul\":14471:15340   */\n      swap8\n      swap7\n      pop\n      pop\n      pop\n      pop\n      pop\n      pop\n      pop\n      jump\t// out\n        /* \"#utility.yul\":15346:15610   */\n    tag_115:\n        /* \"#utility.yul\":15460:15464   */\n      0x00\n        /* \"#utility.yul\":15498:15500   */\n      0x20\n        /* \"#utility.yul\":15487:15496   */\n      dup3\n        /* \"#utility.yul\":15483:15501   */\n      add\n        /* \"#utility.yul\":15475:15501   */\n      swap1\n      pop\n        /* \"#utility.yul\":15511:15603   */\n      tag_742\n        /* \"#utility.yul\":15600:15601   */\n      0x00\n        /* \"#utility.yul\":15589:15598   */\n      dup4\n        /* \"#utility.yul\":15585:15602   */\n      add\n        /* \"#utility.yul\":15576:15582   */\n      dup5\n        /* \"#utility.yul\":15511:15603   */\n      tag_642\n      jump\t// in\n    tag_742:\n        /* \"#utility.yul\":15346:15610   */\n      swap3\n      swap2\n      pop\n      pop\n      jump\t// out\n        /* \"#utility.yul\":15616:15882   */\n    tag_149:\n        /* \"#utility.yul\":15731:15735   */\n      0x00\n        /* \"#utility.yul\":15769:15771   */\n      0x20\n        /* \"#utility.yul\":15758:15767   */\n      dup3\n        /* \"#utility.yul\":15754:15772   */\n      add\n        /* \"#utility.yul\":15746:15772   */\n      swap1\n      pop\n        /* \"#utility.yul\":15782:15875   */\n      tag_744\n        /* \"#utility.yul\":15872:15873   */\n      0x00\n        /* \"#utility.yul\":15861:15870   */\n      dup4\n        /* \"#utility.yul\":15857:15874   */\n      add\n        /* \"#utility.yul\":15848:15854   */\n      dup5\n        /* \"#utility.yul\":15782:15875   */\n      tag_646\n      jump\t// in\n    tag_744:\n        /* \"#utility.yul\":15616:15882   */\n      swap3\n      swap2\n      pop\n      pop\n      jump\t// out\n        /* \"#utility.yul\":15888:16201   */\n    tag_492:\n        /* \"#utility.yul\":16001:16005   */\n      0x00\n        /* \"#utility.yul\":16039:16041   */\n      0x20\n        /* \"#utility.yul\":16028:16037   */\n      dup3\n        /* \"#utility.yul\":16024:16042   */\n      add\n        /* \"#utility.yul\":16016:16042   */\n      swap1\n      pop\n        /* \"#utility.yul\":16088:16097   */\n      dup2\n        /* \"#utility.yul\":16082:16086   */\n      dup2\n        /* \"#utility.yul\":16078:16098   */\n      sub\n        /* \"#utility.yul\":16074:16075   */\n      0x00\n        /* \"#utility.yul\":16063:16072   */\n      dup4\n        /* \"#utility.yul\":16059:16076   */\n      add\n        /* \"#utility.yul\":16052:16099   */\n      mstore\n        /* \"#utility.yul\":16116:16194   */\n      tag_746\n        /* \"#utility.yul\":16189:16193   */\n      dup2\n        /* \"#utility.yul\":16180:16186   */\n      dup5\n        /* \"#utility.yul\":16116:16194   */\n      tag_650\n      jump\t// in\n    tag_746:\n        /* \"#utility.yul\":16108:16194   */\n      swap1\n      pop\n        /* \"#utility.yul\":15888:16201   */\n      swap3\n      swap2\n      pop\n      pop\n      jump\t// out\n        /* \"#utility.yul\":16207:16626   */\n    tag_421:\n        /* \"#utility.yul\":16373:16377   */\n      0x00\n        /* \"#utility.yul\":16411:16413   */\n      0x20\n        /* \"#utility.yul\":16400:16409   */\n      dup3\n        /* \"#utility.yul\":16396:16414   */\n      add\n        /* \"#utility.yul\":16388:16414   */\n      swap1\n      pop\n        /* \"#utility.yul\":16460:16469   */\n      dup2\n        /* \"#utility.yul\":16454:16458   */\n      dup2\n        /* \"#utility.yul\":16450:16470   */\n      sub\n        /* \"#utility.yul\":16446:16447   */\n      0x00\n        /* \"#utility.yul\":16435:16444   */\n      dup4\n        /* \"#utility.yul\":16431:16448   */\n      add\n        /* \"#utility.yul\":16424:16471   */\n      mstore\n        /* \"#utility.yul\":16488:16619   */\n      tag_748\n        /* \"#utility.yul\":16614:16618   */\n      dup2\n        /* \"#utility.yul\":16488:16619   */\n      tag_659\n      jump\t// in\n    tag_748:\n        /* \"#utility.yul\":16480:16619   */\n      swap1\n      pop\n        /* \"#utility.yul\":16207:16626   */\n      swap2\n      swap1\n      pop\n      jump\t// out\n        /* \"#utility.yul\":16632:17051   */\n    tag_471:\n        /* \"#utility.yul\":16798:16802   */\n      0x00\n        /* \"#utility.yul\":16836:16838   */\n      0x20\n        /* \"#utility.yul\":16825:16834   */\n      dup3\n        /* \"#utility.yul\":16821:16839   */\n      add\n        /* \"#utility.yul\":16813:16839   */\n      swap1\n      pop\n        /* \"#utility.yul\":16885:16894   */\n      dup2\n        /* \"#utility.yul\":16879:16883   */\n      dup2\n        /* \"#utility.yul\":16875:16895   */\n      sub\n        /* \"#utility.yul\":16871:16872   */\n      0x00\n        /* \"#utility.yul\":16860:16869   */\n      dup4\n        /* \"#utility.yul\":16856:16873   */\n      add\n        /* \"#utility.yul\":16849:16896   */\n      mstore\n        /* \"#utility.yul\":16913:17044   */\n      tag_750\n        /* \"#utility.yul\":17039:17043   */\n      dup2\n        /* \"#utility.yul\":16913:17044   */\n      tag_664\n      jump\t// in\n    tag_750:\n        /* \"#utility.yul\":16905:17044   */\n      swap1\n      pop\n        /* \"#utility.yul\":16632:17051   */\n      swap2\n      swap1\n      pop\n      jump\t// out\n        /* \"#utility.yul\":17057:17476   */\n    tag_513:\n        /* \"#utility.yul\":17223:17227   */\n      0x00\n        /* \"#utility.yul\":17261:17263   */\n      0x20\n        /* \"#utility.yul\":17250:17259   */\n      dup3\n        /* \"#utility.yul\":17246:17264   */\n      add\n        /* \"#utility.yul\":17238:17264   */\n      swap1\n      pop\n        /* \"#utility.yul\":17310:17319   */\n      dup2\n        /* \"#utility.yul\":17304:17308   */\n      dup2\n        /* \"#utility.yul\":17300:17320   */\n      sub\n        /* \"#utility.yul\":17296:17297   */\n      0x00\n        /* \"#utility.yul\":17285:17294   */\n      dup4\n        /* \"#utility.yul\":17281:17298   */\n      add\n        /* \"#utility.yul\":17274:17321   */\n      mstore\n        /* \"#utility.yul\":17338:17469   */\n      tag_752\n        /* \"#utility.yul\":17464:17468   */\n      dup2\n        /* \"#utility.yul\":17338:17469   */\n      tag_669\n      jump\t// in\n    tag_752:\n        /* \"#utility.yul\":17330:17469   */\n      swap1\n      pop\n        /* \"#utility.yul\":17057:17476   */\n      swap2\n      swap1\n      pop\n      jump\t// out\n        /* \"#utility.yul\":17482:17901   */\n    tag_443:\n        /* \"#utility.yul\":17648:17652   */\n      0x00\n        /* \"#utility.yul\":17686:17688   */\n      0x20\n        /* \"#utility.yul\":17675:17684   */\n      dup3\n        /* \"#utility.yul\":17671:17689   */\n      add\n        /* \"#utility.yul\":17663:17689   */\n      swap1\n      pop\n        /* \"#utility.yul\":17735:17744   */\n      dup2\n        /* \"#utility.yul\":17729:17733   */\n      dup2\n        /* \"#utility.yul\":17725:17745   */\n      sub\n        /* \"#utility.yul\":17721:17722   */\n      0x00\n        /* \"#utility.yul\":17710:17719   */\n      dup4\n        /* \"#utility.yul\":17706:17723   */\n      add\n        /* \"#utility.yul\":17699:17746   */\n      mstore\n        /* \"#utility.yul\":17763:17894   */\n      tag_754\n        /* \"#utility.yul\":17889:17893   */\n      dup2\n        /* \"#utility.yul\":17763:17894   */\n      tag_674\n      jump\t// in\n    tag_754:\n        /* \"#utility.yul\":17755:17894   */\n      swap1\n      pop\n        /* \"#utility.yul\":17482:17901   */\n      swap2\n      swap1\n      pop\n      jump\t// out\n        /* \"#utility.yul\":17907:18326   */\n    tag_222:\n        /* \"#utility.yul\":18073:18077   */\n      0x00\n        /* \"#utility.yul\":18111:18113   */\n      0x20\n        /* \"#utility.yul\":18100:18109   */\n      dup3\n        /* \"#utility.yul\":18096:18114   */\n      add\n        /* \"#utility.yul\":18088:18114   */\n      swap1\n      pop\n        /* \"#utility.yul\":18160:18169   */\n      dup2\n        /* \"#utility.yul\":18154:18158   */\n      dup2\n        /* \"#utility.yul\":18150:18170   */\n      sub\n        /* \"#utility.yul\":18146:18147   */\n      0x00\n        /* \"#utility.yul\":18135:18144   */\n      dup4\n        /* \"#utility.yul\":18131:18148   */\n      add\n        /* \"#utility.yul\":18124:18171   */\n      mstore\n        /* \"#utility.yul\":18188:18319   */\n      tag_756\n        /* \"#utility.yul\":18314:18318   */\n      dup2\n        /* \"#utility.yul\":18188:18319   */\n      tag_679\n      jump\t// in\n    tag_756:\n        /* \"#utility.yul\":18180:18319   */\n      swap1\n      pop\n        /* \"#utility.yul\":17907:18326   */\n      swap2\n      swap1\n      pop\n      jump\t// out\n        /* \"#utility.yul\":18332:18751   */\n    tag_518:\n        /* \"#utility.yul\":18498:18502   */\n      0x00\n        /* \"#utility.yul\":18536:18538   */\n      0x20\n        /* \"#utility.yul\":18525:18534   */\n      dup3\n        /* \"#utility.yul\":18521:18539   */\n      add\n        /* \"#utility.yul\":18513:18539   */\n      swap1\n      pop\n        /* \"#utility.yul\":18585:18594   */\n      dup2\n        /* \"#utility.yul\":18579:18583   */\n      dup2\n        /* \"#utility.yul\":18575:18595   */\n      sub\n        /* \"#utility.yul\":18571:18572   */\n      0x00\n        /* \"#utility.yul\":18560:18569   */\n      dup4\n        /* \"#utility.yul\":18556:18573   */\n      add\n        /* \"#utility.yul\":18549:18596   */\n      mstore\n        /* \"#utility.yul\":18613:18744   */\n      tag_758\n        /* \"#utility.yul\":18739:18743   */\n      dup2\n        /* \"#utility.yul\":18613:18744   */\n      tag_684\n      jump\t// in\n    tag_758:\n        /* \"#utility.yul\":18605:18744   */\n      swap1\n      pop\n        /* \"#utility.yul\":18332:18751   */\n      swap2\n      swap1\n      pop\n      jump\t// out\n        /* \"#utility.yul\":18757:19176   */\n    tag_363:\n        /* \"#utility.yul\":18923:18927   */\n      0x00\n        /* \"#utility.yul\":18961:18963   */\n      0x20\n        /* \"#utility.yul\":18950:18959   */\n      dup3\n        /* \"#utility.yul\":18946:18964   */\n      add\n        /* \"#utility.yul\":18938:18964   */\n      swap1\n      pop\n        /* \"#utility.yul\":19010:19019   */\n      dup2\n        /* \"#utility.yul\":19004:19008   */\n      dup2\n        /* \"#utility.yul\":19000:19020   */\n      sub\n        /* \"#utility.yul\":18996:18997   */\n      0x00\n        /* \"#utility.yul\":18985:18994   */\n      dup4\n        /* \"#utility.yul\":18981:18998   */\n      add\n        /* \"#utility.yul\":18974:19021   */\n      mstore\n        /* \"#utility.yul\":19038:19169   */\n      tag_760\n        /* \"#utility.yul\":19164:19168   */\n      dup2\n        /* \"#utility.yul\":19038:19169   */\n      tag_689\n      jump\t// in\n    tag_760:\n        /* \"#utility.yul\":19030:19169   */\n      swap1\n      pop\n        /* \"#utility.yul\":18757:19176   */\n      swap2\n      swap1\n      pop\n      jump\t// out\n        /* \"#utility.yul\":19182:19601   */\n    tag_506:\n        /* \"#utility.yul\":19348:19352   */\n      0x00\n        /* \"#utility.yul\":19386:19388   */\n      0x20\n        /* \"#utility.yul\":19375:19384   */\n      dup3\n        /* \"#utility.yul\":19371:19389   */\n      add\n        /* \"#utility.yul\":19363:19389   */\n      swap1\n      pop\n        /* \"#utility.yul\":19435:19444   */\n      dup2\n        /* \"#utility.yul\":19429:19433   */\n      dup2\n        /* \"#utility.yul\":19425:19445   */\n      sub\n        /* \"#utility.yul\":19421:19422   */\n      0x00\n        /* \"#utility.yul\":19410:19419   */\n      dup4\n        /* \"#utility.yul\":19406:19423   */\n      add\n        /* \"#utility.yul\":19399:19446   */\n      mstore\n        /* \"#utility.yul\":19463:19594   */\n      tag_762\n        /* \"#utility.yul\":19589:19593   */\n      dup2\n        /* \"#utility.yul\":19463:19594   */\n      tag_694\n      jump\t// in\n    tag_762:\n        /* \"#utility.yul\":19455:19594   */\n      swap1\n      pop\n        /* \"#utility.yul\":19182:19601   */\n      swap2\n      swap1\n      pop\n      jump\t// out\n        /* \"#utility.yul\":19607:20026   */\n    tag_254:\n        /* \"#utility.yul\":19773:19777   */\n      0x00\n        /* \"#utility.yul\":19811:19813   */\n      0x20\n        /* \"#utility.yul\":19800:19809   */\n      dup3\n        /* \"#utility.yul\":19796:19814   */\n      add\n        /* \"#utility.yul\":19788:19814   */\n      swap1\n      pop\n        /* \"#utility.yul\":19860:19869   */\n      dup2\n        /* \"#utility.yul\":19854:19858   */\n      dup2\n        /* \"#utility.yul\":19850:19870   */\n      sub\n        /* \"#utility.yul\":19846:19847   */\n      0x00\n        /* \"#utility.yul\":19835:19844   */\n      dup4\n        /* \"#utility.yul\":19831:19848   */\n      add\n        /* \"#utility.yul\":19824:19871   */\n      mstore\n        /* \"#utility.yul\":19888:20019   */\n      tag_764\n        /* \"#utility.yul\":20014:20018   */\n      dup2\n        /* \"#utility.yul\":19888:20019   */\n      tag_699\n      jump\t// in\n    tag_764:\n        /* \"#utility.yul\":19880:20019   */\n      swap1\n      pop\n        /* \"#utility.yul\":19607:20026   */\n      swap2\n      swap1\n      pop\n      jump\t// out\n        /* \"#utility.yul\":20032:20451   */\n    tag_485:\n        /* \"#utility.yul\":20198:20202   */\n      0x00\n        /* \"#utility.yul\":20236:20238   */\n      0x20\n        /* \"#utility.yul\":20225:20234   */\n      dup3\n        /* \"#utility.yul\":20221:20239   */\n      add\n        /* \"#utility.yul\":20213:20239   */\n      swap1\n      pop\n        /* \"#utility.yul\":20285:20294   */\n      dup2\n        /* \"#utility.yul\":20279:20283   */\n      dup2\n        /* \"#utility.yul\":20275:20295   */\n      sub\n        /* \"#utility.yul\":20271:20272   */\n      0x00\n        /* \"#utility.yul\":20260:20269   */\n      dup4\n        /* \"#utility.yul\":20256:20273   */\n      add\n        /* \"#utility.yul\":20249:20296   */\n      mstore\n        /* \"#utility.yul\":20313:20444   */\n      tag_766\n        /* \"#utility.yul\":20439:20443   */\n      dup2\n        /* \"#utility.yul\":20313:20444   */\n      tag_704\n      jump\t// in\n    tag_766:\n        /* \"#utility.yul\":20305:20444   */\n      swap1\n      pop\n        /* \"#utility.yul\":20032:20451   */\n      swap2\n      swap1\n      pop\n      jump\t// out\n        /* \"#utility.yul\":20457:20876   */\n    tag_235:\n        /* \"#utility.yul\":20623:20627   */\n      0x00\n        /* \"#utility.yul\":20661:20663   */\n      0x20\n        /* \"#utility.yul\":20650:20659   */\n      dup3\n        /* \"#utility.yul\":20646:20664   */\n      add\n        /* \"#utility.yul\":20638:20664   */\n      swap1\n      pop\n        /* \"#utility.yul\":20710:20719   */\n      dup2\n        /* \"#utility.yul\":20704:20708   */\n      dup2\n        /* \"#utility.yul\":20700:20720   */\n      sub\n        /* \"#utility.yul\":20696:20697   */\n      0x00\n        /* \"#utility.yul\":20685:20694   */\n      dup4\n        /* \"#utility.yul\":20681:20698   */\n      add\n        /* \"#utility.yul\":20674:20721   */\n      mstore\n        /* \"#utility.yul\":20738:20869   */\n      tag_768\n        /* \"#utility.yul\":20864:20868   */\n      dup2\n        /* \"#utility.yul\":20738:20869   */\n      tag_709\n      jump\t// in\n    tag_768:\n        /* \"#utility.yul\":20730:20869   */\n      swap1\n      pop\n        /* \"#utility.yul\":20457:20876   */\n      swap2\n      swap1\n      pop\n      jump\t// out\n        /* \"#utility.yul\":20882:21104   */\n    tag_50:\n        /* \"#utility.yul\":20975:20979   */\n      0x00\n        /* \"#utility.yul\":21013:21015   */\n      0x20\n        /* \"#utility.yul\":21002:21011   */\n      dup3\n        /* \"#utility.yul\":20998:21016   */\n      add\n        /* \"#utility.yul\":20990:21016   */\n      swap1\n      pop\n        /* \"#utility.yul\":21026:21097   */\n      tag_770\n        /* \"#utility.yul\":21094:21095   */\n      0x00\n        /* \"#utility.yul\":21083:21092   */\n      dup4\n        /* \"#utility.yul\":21079:21096   */\n      add\n        /* \"#utility.yul\":21070:21076   */\n      dup5\n        /* \"#utility.yul\":21026:21097   */\n      tag_714\n      jump\t// in\n    tag_770:\n        /* \"#utility.yul\":20882:21104   */\n      swap3\n      swap2\n      pop\n      pop\n      jump\t// out\n        /* \"#utility.yul\":21110:21442   */\n    tag_457:\n        /* \"#utility.yul\":21231:21235   */\n      0x00\n        /* \"#utility.yul\":21269:21271   */\n      0x40\n        /* \"#utility.yul\":21258:21267   */\n      dup3\n        /* \"#utility.yul\":21254:21272   */\n      add\n        /* \"#utility.yul\":21246:21272   */\n      swap1\n      pop\n        /* \"#utility.yul\":21282:21353   */\n      tag_772\n        /* \"#utility.yul\":21350:21351   */\n      0x00\n        /* \"#utility.yul\":21339:21348   */\n      dup4\n        /* \"#utility.yul\":21335:21352   */\n      add\n        /* \"#utility.yul\":21326:21332   */\n      dup6\n        /* \"#utility.yul\":21282:21353   */\n      tag_714\n      jump\t// in\n    tag_772:\n        /* \"#utility.yul\":21363:21435   */\n      tag_773\n        /* \"#utility.yul\":21431:21433   */\n      0x20\n        /* \"#utility.yul\":21420:21429   */\n      dup4\n        /* \"#utility.yul\":21416:21434   */\n      add\n        /* \"#utility.yul\":21407:21413   */\n      dup5\n        /* \"#utility.yul\":21363:21435   */\n      tag_622\n      jump\t// in\n    tag_773:\n        /* \"#utility.yul\":21110:21442   */\n      swap4\n      swap3\n      pop\n      pop\n      pop\n      jump\t// out\n        /* \"#utility.yul\":21448:21780   */\n    tag_132:\n        /* \"#utility.yul\":21569:21573   */\n      0x00\n        /* \"#utility.yul\":21607:21609   */\n      0x40\n        /* \"#utility.yul\":21596:21605   */\n      dup3\n        /* \"#utility.yul\":21592:21610   */\n      add\n        /* \"#utility.yul\":21584:21610   */\n      swap1\n      pop\n        /* \"#utility.yul\":21620:21691   */\n      tag_775\n        /* \"#utility.yul\":21688:21689   */\n      0x00\n        /* \"#utility.yul\":21677:21686   */\n      dup4\n        /* \"#utility.yul\":21673:21690   */\n      add\n        /* \"#utility.yul\":21664:21670   */\n      dup6\n        /* \"#utility.yul\":21620:21691   */\n      tag_714\n      jump\t// in\n    tag_775:\n        /* \"#utility.yul\":21701:21773   */\n      tag_776\n        /* \"#utility.yul\":21769:21771   */\n      0x20\n        /* \"#utility.yul\":21758:21767   */\n      dup4\n        /* \"#utility.yul\":21754:21772   */\n      add\n        /* \"#utility.yul\":21745:21751   */\n      dup5\n        /* \"#utility.yul\":21701:21773   */\n      tag_714\n      jump\t// in\n    tag_776:\n        /* \"#utility.yul\":21448:21780   */\n      swap4\n      swap3\n      pop\n      pop\n      pop\n      jump\t// out\n        /* \"#utility.yul\":21867:21965   */\n    tag_629:\n        /* \"#utility.yul\":21918:21924   */\n      0x00\n        /* \"#utility.yul\":21952:21957   */\n      dup2\n        /* \"#utility.yul\":21946:21958   */\n      mload\n        /* \"#utility.yul\":21936:21958   */\n      swap1\n      pop\n        /* \"#utility.yul\":21867:21965   */\n      swap2\n      swap1\n      pop\n      jump\t// out\n        /* \"#utility.yul\":21971:22070   */\n    tag_653:\n        /* \"#utility.yul\":22023:22029   */\n      0x00\n        /* \"#utility.yul\":22057:22062   */\n      dup2\n        /* \"#utility.yul\":22051:22063   */\n      mload\n        /* \"#utility.yul\":22041:22063   */\n      swap1\n      pop\n        /* \"#utility.yul\":21971:22070   */\n      swap2\n      swap1\n      pop\n      jump\t// out\n        /* \"#utility.yul\":22076:22223   */\n    tag_631:\n        /* \"#utility.yul\":22177:22188   */\n      0x00\n        /* \"#utility.yul\":22214:22217   */\n      dup2\n        /* \"#utility.yul\":22199:22217   */\n      swap1\n      pop\n        /* \"#utility.yul\":22076:22223   */\n      swap3\n      swap2\n      pop\n      pop\n      jump\t// out\n        /* \"#utility.yul\":22229:22398   */\n    tag_655:\n        /* \"#utility.yul\":22313:22324   */\n      0x00\n        /* \"#utility.yul\":22347:22353   */\n      dup3\n        /* \"#utility.yul\":22342:22345   */\n      dup3\n        /* \"#utility.yul\":22335:22354   */\n      mstore\n        /* \"#utility.yul\":22387:22391   */\n      0x20\n        /* \"#utility.yul\":22382:22385   */\n      dup3\n        /* \"#utility.yul\":22378:22392   */\n      add\n        /* \"#utility.yul\":22363:22392   */\n      swap1\n      pop\n        /* \"#utility.yul\":22229:22398   */\n      swap3\n      swap2\n      pop\n      pop\n      jump\t// out\n        /* \"#utility.yul\":22404:22709   */\n    tag_468:\n        /* \"#utility.yul\":22444:22447   */\n      0x00\n        /* \"#utility.yul\":22463:22483   */\n      tag_784\n        /* \"#utility.yul\":22481:22482   */\n      dup3\n        /* \"#utility.yul\":22463:22483   */\n      tag_717\n      jump\t// in\n    tag_784:\n        /* \"#utility.yul\":22458:22483   */\n      swap2\n      pop\n        /* \"#utility.yul\":22497:22517   */\n      tag_785\n        /* \"#utility.yul\":22515:22516   */\n      dup4\n        /* \"#utility.yul\":22497:22517   */\n      tag_717\n      jump\t// in\n    tag_785:\n        /* \"#utility.yul\":22492:22517   */\n      swap3\n      pop\n        /* \"#utility.yul\":22651:22652   */\n      dup3\n        /* \"#utility.yul\":22583:22649   */\n      0xffffffffffffffffffffffffffffffffffffffffffffffffffffffffffffffff\n        /* \"#utility.yul\":22579:22653   */\n      sub\n        /* \"#utility.yul\":22576:22577   */\n      dup3\n        /* \"#utility.yul\":22573:22654   */\n      gt\n        /* \"#utility.yul\":22570:22677   */\n      iszero\n      tag_786\n      jumpi\n        /* \"#utility.yul\":22657:22675   */\n      tag_787\n      tag_788\n      jump\t// in\n    tag_787:\n        /* \"#utility.yul\":22570:22677   */\n    tag_786:\n        /* \"#utility.yul\":22701:22702   */\n      dup3\n        /* \"#utility.yul\":22698:22699   */\n      dup3\n        /* \"#utility.yul\":22694:22703   */\n      add\n        /* \"#utility.yul\":22687:22703   */\n      swap1\n      pop\n        /* \"#utility.yul\":22404:22709   */\n      swap3\n      swap2\n      pop\n      pop\n      jump\t// out\n        /* \"#utility.yul\":22715:22900   */\n    tag_440:\n        /* \"#utility.yul\":22755:22756   */\n      0x00\n        /* \"#utility.yul\":22772:22792   */\n      tag_790\n        /* \"#utility.yul\":22790:22791   */\n      dup3\n        /* \"#utility.yul\":22772:22792   */\n      tag_717\n      jump\t// in\n    tag_790:\n        /* \"#utility.yul\":22767:22792   */\n      swap2\n      pop\n        /* \"#utility.yul\":22806:22826   */\n      tag_791\n        /* \"#utility.yul\":22824:22825   */\n      dup4\n        /* \"#utility.yul\":22806:22826   */\n      tag_717\n      jump\t// in\n    tag_791:\n        /* \"#utility.yul\":22801:22826   */\n      swap3\n      pop\n        /* \"#utility.yul\":22845:22846   */\n      dup3\n        /* \"#utility.yul\":22835:22870   */\n      tag_792\n      jumpi\n        /* \"#utility.yul\":22850:22868   */\n      tag_793\n      tag_794\n      jump\t// in\n    tag_793:\n        /* \"#utility.yul\":22835:22870   */\n    tag_792:\n        /* \"#utility.yul\":22892:22893   */\n      dup3\n        /* \"#utility.yul\":22889:22890   */\n      dup3\n        /* \"#utility.yul\":22885:22894   */\n      div\n        /* \"#utility.yul\":22880:22894   */\n      swap1\n      pop\n        /* \"#utility.yul\":22715:22900   */\n      swap3\n      swap2\n      pop\n      pop\n      jump\t// out\n        /* \"#utility.yul\":22906:23254   */\n    tag_438:\n        /* \"#utility.yul\":22946:22953   */\n      0x00\n        /* \"#utility.yul\":22969:22989   */\n      tag_796\n        /* \"#utility.yul\":22987:22988   */\n      dup3\n        /* \"#utility.yul\":22969:22989   */\n      tag_717\n      jump\t// in\n    tag_796:\n        /* \"#utility.yul\":22964:22989   */\n      swap2\n      pop\n        /* \"#utility.yul\":23003:23023   */\n      tag_797\n        /* \"#utility.yul\":23021:23022   */\n      dup4\n        /* \"#utility.yul\":23003:23023   */\n      tag_717\n      jump\t// in\n    tag_797:\n        /* \"#utility.yul\":22998:23023   */\n      swap3\n      pop\n        /* \"#utility.yul\":23191:23192   */\n      dup2\n        /* \"#utility.yul\":23123:23189   */\n      0xffffffffffffffffffffffffffffffffffffffffffffffffffffffffffffffff\n        /* \"#utility.yul\":23119:23193   */\n      div\n        /* \"#utility.yul\":23116:23117   */\n      dup4\n        /* \"#utility.yul\":23113:23194   */\n      gt\n        /* \"#utility.yul\":23108:23109   */\n      dup3\n        /* \"#utility.yul\":23101:23110   */\n      iszero\n        /* \"#utility.yul\":23094:23111   */\n      iszero\n        /* \"#utility.yul\":23090:23195   */\n      and\n        /* \"#utility.yul\":23087:23218   */\n      iszero\n      tag_798\n      jumpi\n        /* \"#utility.yul\":23198:23216   */\n      tag_799\n      tag_788\n      jump\t// in\n    tag_799:\n        /* \"#utility.yul\":23087:23218   */\n    tag_798:\n        /* \"#utility.yul\":23246:23247   */\n      dup3\n        /* \"#utility.yul\":23243:23244   */\n      dup3\n        /* \"#utility.yul\":23239:23248   */\n      mul\n        /* \"#utility.yul\":23228:23248   */\n      swap1\n      pop\n        /* \"#utility.yul\":22906:23254   */\n      swap3\n      swap2\n      pop\n      pop\n      jump\t// out\n        /* \"#utility.yul\":23260:23451   */\n    tag_498:\n        /* \"#utility.yul\":23300:23304   */\n      0x00\n        /* \"#utility.yul\":23320:23340   */\n      tag_801\n        /* \"#utility.yul\":23338:23339   */\n      dup3\n        /* \"#utility.yul\":23320:23340   */\n      tag_717\n      jump\t// in\n    tag_801:\n        /* \"#utility.yul\":23315:23340   */\n      swap2\n      pop\n        /* \"#utility.yul\":23354:23374   */\n      tag_802\n        /* \"#utility.yul\":23372:23373   */\n      dup4\n        /* \"#utility.yul\":23354:23374   */\n      tag_717\n      jump\t// in\n    tag_802:\n        /* \"#utility.yul\":23349:23374   */\n      swap3\n      pop\n        /* \"#utility.yul\":23393:23394   */\n      dup3\n        /* \"#utility.yul\":23390:23391   */\n      dup3\n        /* \"#utility.yul\":23387:23395   */\n      lt\n        /* \"#utility.yul\":23384:23418   */\n      iszero\n      tag_803\n      jumpi\n        /* \"#utility.yul\":23398:23416   */\n      tag_804\n      tag_788\n      jump\t// in\n    tag_804:\n        /* \"#utility.yul\":23384:23418   */\n    tag_803:\n        /* \"#utility.yul\":23443:23444   */\n      dup3\n        /* \"#utility.yul\":23440:23441   */\n      dup3\n        /* \"#utility.yul\":23436:23445   */\n      sub\n        /* \"#utility.yul\":23428:23445   */\n      swap1\n      pop\n        /* \"#utility.yul\":23260:23451   */\n      swap3\n      swap2\n      pop\n      pop\n      jump\t// out\n        /* \"#utility.yul\":23457:23553   */\n    tag_625:\n        /* \"#utility.yul\":23494:23501   */\n      0x00\n        /* \"#utility.yul\":23523:23547   */\n      tag_806\n        /* \"#utility.yul\":23541:23546   */\n      dup3\n        /* \"#utility.yul\":23523:23547   */\n      tag_807\n      jump\t// in\n    tag_806:\n        /* \"#utility.yul\":23512:23547   */\n      swap1\n      pop\n        /* \"#utility.yul\":23457:23553   */\n      swap2\n      swap1\n      pop\n      jump\t// out\n        /* \"#utility.yul\":23559:23649   */\n    tag_808:\n        /* \"#utility.yul\":23593:23600   */\n      0x00\n        /* \"#utility.yul\":23636:23641   */\n      dup2\n        /* \"#utility.yul\":23629:23642   */\n      iszero\n        /* \"#utility.yul\":23622:23643   */\n      iszero\n        /* \"#utility.yul\":23611:23643   */\n      swap1\n      pop\n        /* \"#utility.yul\":23559:23649   */\n      swap2\n      swap1\n      pop\n      jump\t// out\n        /* \"#utility.yul\":23655:23765   */\n    tag_810:\n        /* \"#utility.yul\":23706:23713   */\n      0x00\n        /* \"#utility.yul\":23735:23759   */\n      tag_812\n        /* \"#utility.yul\":23753:23758   */\n      dup3\n        /* \"#utility.yul\":23735:23759   */\n      tag_625\n      jump\t// in\n    tag_812:\n        /* \"#utility.yul\":23724:23759   */\n      swap1\n      pop\n        /* \"#utility.yul\":23655:23765   */\n      swap2\n      swap1\n      pop\n      jump\t// out\n        /* \"#utility.yul\":23771:23886   */\n    tag_813:\n        /* \"#utility.yul\":23827:23834   */\n      0x00\n        /* \"#utility.yul\":23856:23880   */\n      tag_815\n        /* \"#utility.yul\":23874:23879   */\n      dup3\n        /* \"#utility.yul\":23856:23880   */\n      tag_625\n      jump\t// in\n    tag_815:\n        /* \"#utility.yul\":23845:23880   */\n      swap1\n      pop\n        /* \"#utility.yul\":23771:23886   */\n      swap2\n      swap1\n      pop\n      jump\t// out\n        /* \"#utility.yul\":23892:24009   */\n    tag_816:\n        /* \"#utility.yul\":23950:23957   */\n      0x00\n        /* \"#utility.yul\":23979:24003   */\n      tag_818\n        /* \"#utility.yul\":23997:24002   */\n      dup3\n        /* \"#utility.yul\":23979:24003   */\n      tag_625\n      jump\t// in\n    tag_818:\n        /* \"#utility.yul\":23968:24003   */\n      swap1\n      pop\n        /* \"#utility.yul\":23892:24009   */\n      swap2\n      swap1\n      pop\n      jump\t// out\n        /* \"#utility.yul\":24015:24141   */\n    tag_807:\n        /* \"#utility.yul\":24052:24059   */\n      0x00\n        /* \"#utility.yul\":24092:24134   */\n      0xffffffffffffffffffffffffffffffffffffffff\n        /* \"#utility.yul\":24085:24090   */\n      dup3\n        /* \"#utility.yul\":24081:24135   */\n      and\n        /* \"#utility.yul\":24070:24135   */\n      swap1\n      pop\n        /* \"#utility.yul\":24015:24141   */\n      swap2\n      swap1\n      pop\n      jump\t// out\n        /* \"#utility.yul\":24147:24224   */\n    tag_717:\n        /* \"#utility.yul\":24184:24191   */\n      0x00\n        /* \"#utility.yul\":24213:24218   */\n      dup2\n        /* \"#utility.yul\":24202:24218   */\n      swap1\n      pop\n        /* \"#utility.yul\":24147:24224   */\n      swap2\n      swap1\n      pop\n      jump\t// out\n        /* \"#utility.yul\":24230:24370   */\n    tag_637:\n        /* \"#utility.yul\":24294:24303   */\n      0x00\n        /* \"#utility.yul\":24327:24364   */\n      tag_822\n        /* \"#utility.yul\":24358:24363   */\n      dup3\n        /* \"#utility.yul\":24327:24364   */\n      tag_823\n      jump\t// in\n    tag_822:\n        /* \"#utility.yul\":24314:24364   */\n      swap1\n      pop\n        /* \"#utility.yul\":24230:24370   */\n      swap2\n      swap1\n      pop\n      jump\t// out\n        /* \"#utility.yul\":24376:24521   */\n    tag_641:\n        /* \"#utility.yul\":24445:24454   */\n      0x00\n        /* \"#utility.yul\":24478:24515   */\n      tag_825\n        /* \"#utility.yul\":24509:24514   */\n      dup3\n        /* \"#utility.yul\":24478:24515   */\n      tag_823\n      jump\t// in\n    tag_825:\n        /* \"#utility.yul\":24465:24515   */\n      swap1\n      pop\n        /* \"#utility.yul\":24376:24521   */\n      swap2\n      swap1\n      pop\n      jump\t// out\n        /* \"#utility.yul\":24527:24674   */\n    tag_645:\n        /* \"#utility.yul\":24598:24607   */\n      0x00\n        /* \"#utility.yul\":24631:24668   */\n      tag_827\n        /* \"#utility.yul\":24662:24667   */\n      dup3\n        /* \"#utility.yul\":24631:24668   */\n      tag_823\n      jump\t// in\n    tag_827:\n        /* \"#utility.yul\":24618:24668   */\n      swap1\n      pop\n        /* \"#utility.yul\":24527:24674   */\n      swap2\n      swap1\n      pop\n      jump\t// out\n        /* \"#utility.yul\":24680:24828   */\n    tag_649:\n        /* \"#utility.yul\":24752:24761   */\n      0x00\n        /* \"#utility.yul\":24785:24822   */\n      tag_829\n        /* \"#utility.yul\":24816:24821   */\n      dup3\n        /* \"#utility.yul\":24785:24822   */\n      tag_823\n      jump\t// in\n    tag_829:\n        /* \"#utility.yul\":24772:24822   */\n      swap1\n      pop\n        /* \"#utility.yul\":24680:24828   */\n      swap2\n      swap1\n      pop\n      jump\t// out\n        /* \"#utility.yul\":24834:24960   */\n    tag_823:\n        /* \"#utility.yul\":24884:24893   */\n      0x00\n        /* \"#utility.yul\":24917:24954   */\n      tag_831\n        /* \"#utility.yul\":24948:24953   */\n      dup3\n        /* \"#utility.yul\":24917:24954   */\n      tag_832\n      jump\t// in\n    tag_831:\n        /* \"#utility.yul\":24904:24954   */\n      swap1\n      pop\n        /* \"#utility.yul\":24834:24960   */\n      swap2\n      swap1\n      pop\n      jump\t// out\n        /* \"#utility.yul\":24966:25079   */\n    tag_832:\n        /* \"#utility.yul\":25016:25025   */\n      0x00\n        /* \"#utility.yul\":25049:25073   */\n      tag_834\n        /* \"#utility.yul\":25067:25072   */\n      dup3\n        /* \"#utility.yul\":25049:25073   */\n      tag_807\n      jump\t// in\n    tag_834:\n        /* \"#utility.yul\":25036:25073   */\n      swap1\n      pop\n        /* \"#utility.yul\":24966:25079   */\n      swap2\n      swap1\n      pop\n      jump\t// out\n        /* \"#utility.yul\":25085:25392   */\n    tag_633:\n        /* \"#utility.yul\":25153:25154   */\n      0x00\n        /* \"#utility.yul\":25163:25276   */\n    tag_836:\n        /* \"#utility.yul\":25177:25183   */\n      dup4\n        /* \"#utility.yul\":25174:25175   */\n      dup2\n        /* \"#utility.yul\":25171:25184   */\n      lt\n        /* \"#utility.yul\":25163:25276   */\n      iszero\n      tag_838\n      jumpi\n        /* \"#utility.yul\":25262:25263   */\n      dup1\n        /* \"#utility.yul\":25257:25260   */\n      dup3\n        /* \"#utility.yul\":25253:25264   */\n      add\n        /* \"#utility.yul\":25247:25265   */\n      mload\n        /* \"#utility.yul\":25243:25244   */\n      dup2\n        /* \"#utility.yul\":25238:25241   */\n      dup5\n        /* \"#utility.yul\":25234:25245   */\n      add\n        /* \"#utility.yul\":25227:25266   */\n      mstore\n        /* \"#utility.yul\":25199:25201   */\n      0x20\n        /* \"#utility.yul\":25196:25197   */\n      dup2\n        /* \"#utility.yul\":25192:25202   */\n      add\n        /* \"#utility.yul\":25187:25202   */\n      swap1\n      pop\n        /* \"#utility.yul\":25163:25276   */\n      jump(tag_836)\n    tag_838:\n        /* \"#utility.yul\":25294:25300   */\n      dup4\n        /* \"#utility.yul\":25291:25292   */\n      dup2\n        /* \"#utility.yul\":25288:25301   */\n      gt\n        /* \"#utility.yul\":25285:25386   */\n      iszero\n      tag_839\n      jumpi\n        /* \"#utility.yul\":25374:25375   */\n      0x00\n        /* \"#utility.yul\":25365:25371   */\n      dup5\n        /* \"#utility.yul\":25360:25363   */\n      dup5\n        /* \"#utility.yul\":25356:25372   */\n      add\n        /* \"#utility.yul\":25349:25376   */\n      mstore\n        /* \"#utility.yul\":25285:25386   */\n    tag_839:\n        /* \"#utility.yul\":25134:25392   */\n      pop\n        /* \"#utility.yul\":25085:25392   */\n      pop\n      pop\n      pop\n      jump\t// out\n        /* \"#utility.yul\":25398:25631   */\n    tag_315:\n        /* \"#utility.yul\":25437:25440   */\n      0x00\n        /* \"#utility.yul\":25460:25484   */\n      tag_841\n        /* \"#utility.yul\":25478:25483   */\n      dup3\n        /* \"#utility.yul\":25460:25484   */\n      tag_717\n      jump\t// in\n    tag_841:\n        /* \"#utility.yul\":25451:25484   */\n      swap2\n      pop\n        /* \"#utility.yul\":25506:25572   */\n      0xffffffffffffffffffffffffffffffffffffffffffffffffffffffffffffffff\n        /* \"#utility.yul\":25499:25504   */\n      dup3\n        /* \"#utility.yul\":25496:25573   */\n      eq\n        /* \"#utility.yul\":25493:25596   */\n      iszero\n      tag_842\n      jumpi\n        /* \"#utility.yul\":25576:25594   */\n      tag_843\n      tag_788\n      jump\t// in\n    tag_843:\n        /* \"#utility.yul\":25493:25596   */\n    tag_842:\n        /* \"#utility.yul\":25623:25624   */\n      0x01\n        /* \"#utility.yul\":25616:25621   */\n      dup3\n        /* \"#utility.yul\":25612:25625   */\n      add\n        /* \"#utility.yul\":25605:25625   */\n      swap1\n      pop\n        /* \"#utility.yul\":25398:25631   */\n      swap2\n      swap1\n      pop\n      jump\t// out\n        /* \"#utility.yul\":25637:25817   */\n    tag_788:\n        /* \"#utility.yul\":25685:25762   */\n      0x4e487b7100000000000000000000000000000000000000000000000000000000\n        /* \"#utility.yul\":25682:25683   */\n      0x00\n        /* \"#utility.yul\":25675:25763   */\n      mstore\n        /* \"#utility.yul\":25782:25786   */\n      0x11\n        /* \"#utility.yul\":25779:25780   */\n      0x04\n        /* \"#utility.yul\":25772:25787   */\n      mstore\n        /* \"#utility.yul\":25806:25810   */\n      0x24\n        /* \"#utility.yul\":25803:25804   */\n      0x00\n        /* \"#utility.yul\":25796:25811   */\n      revert\n        /* \"#utility.yul\":25823:26003   */\n    tag_794:\n        /* \"#utility.yul\":25871:25948   */\n      0x4e487b7100000000000000000000000000000000000000000000000000000000\n        /* \"#utility.yul\":25868:25869   */\n      0x00\n        /* \"#utility.yul\":25861:25949   */\n      mstore\n        /* \"#utility.yul\":25968:25972   */\n      0x12\n        /* \"#utility.yul\":25965:25966   */\n      0x04\n        /* \"#utility.yul\":25958:25973   */\n      mstore\n        /* \"#utility.yul\":25992:25996   */\n      0x24\n        /* \"#utility.yul\":25989:25990   */\n      0x00\n        /* \"#utility.yul\":25982:25997   */\n      revert\n        /* \"#utility.yul\":26009:26189   */\n    tag_163:\n        /* \"#utility.yul\":26057:26134   */\n      0x4e487b7100000000000000000000000000000000000000000000000000000000\n        /* \"#utility.yul\":26054:26055   */\n      0x00\n        /* \"#utility.yul\":26047:26135   */\n      mstore\n        /* \"#utility.yul\":26154:26158   */\n      0x32\n        /* \"#utility.yul\":26151:26152   */\n      0x04\n        /* \"#utility.yul\":26144:26159   */\n      mstore\n        /* \"#utility.yul\":26178:26182   */\n      0x24\n        /* \"#utility.yul\":26175:26176   */\n      0x00\n        /* \"#utility.yul\":26168:26183   */\n      revert\n        /* \"#utility.yul\":26318:26435   */\n    tag_570:\n        /* \"#utility.yul\":26427:26428   */\n      0x00\n        /* \"#utility.yul\":26424:26425   */\n      dup1\n        /* \"#utility.yul\":26417:26429   */\n      revert\n        /* \"#utility.yul\":26441:26543   */\n    tag_658:\n        /* \"#utility.yul\":26482:26488   */\n      0x00\n        /* \"#utility.yul\":26533:26535   */\n      0x1f\n        /* \"#utility.yul\":26529:26536   */\n      not\n        /* \"#utility.yul\":26524:26526   */\n      0x1f\n        /* \"#utility.yul\":26517:26522   */\n      dup4\n        /* \"#utility.yul\":26513:26527   */\n      add\n        /* \"#utility.yul\":26509:26537   */\n      and\n        /* \"#utility.yul\":26499:26537   */\n      swap1\n      pop\n        /* \"#utility.yul\":26441:26543   */\n      swap2\n      swap1\n      pop\n      jump\t// out\n        /* \"#utility.yul\":26549:26774   */\n    tag_663:\n        /* \"#utility.yul\":26689:26723   */\n      0x4f776e61626c653a206e6577206f776e657220697320746865207a65726f2061\n        /* \"#utility.yul\":26685:26686   */\n      0x00\n        /* \"#utility.yul\":26677:26683   */\n      dup3\n        /* \"#utility.yul\":26673:26687   */\n      add\n        /* \"#utility.yul\":26666:26724   */\n      mstore\n        /* \"#utility.yul\":26758:26766   */\n      0x6464726573730000000000000000000000000000000000000000000000000000\n        /* \"#utility.yul\":26753:26755   */\n      0x20\n        /* \"#utility.yul\":26745:26751   */\n      dup3\n        /* \"#utility.yul\":26741:26756   */\n      add\n        /* \"#utility.yul\":26734:26767   */\n      mstore\n        /* \"#utility.yul\":26549:26774   */\n      pop\n      jump\t// out\n        /* \"#utility.yul\":26780:26957   */\n    tag_668:\n        /* \"#utility.yul\":26920:26949   */\n      0x536166654d6174683a206164646974696f6e206f766572666c6f770000000000\n        /* \"#utility.yul\":26916:26917   */\n      0x00\n        /* \"#utility.yul\":26908:26914   */\n      dup3\n        /* \"#utility.yul\":26904:26918   */\n      add\n        /* \"#utility.yul\":26897:26950   */\n      mstore\n        /* \"#utility.yul\":26780:26957   */\n      pop\n      jump\t// out\n        /* \"#utility.yul\":26963:27188   */\n    tag_673:\n        /* \"#utility.yul\":27103:27137   */\n      0x416464726573733a20696e73756666696369656e742062616c616e636520666f\n        /* \"#utility.yul\":27099:27100   */\n      0x00\n        /* \"#utility.yul\":27091:27097   */\n      dup3\n        /* \"#utility.yul\":27087:27101   */\n      add\n        /* \"#utility.yul\":27080:27138   */\n      mstore\n        /* \"#utility.yul\":27172:27180   */\n      0x722063616c6c0000000000000000000000000000000000000000000000000000\n        /* \"#utility.yul\":27167:27169   */\n      0x20\n        /* \"#utility.yul\":27159:27165   */\n      dup3\n        /* \"#utility.yul\":27155:27170   */\n      add\n        /* \"#utility.yul\":27148:27181   */\n      mstore\n        /* \"#utility.yul\":26963:27188   */\n      pop\n      jump\t// out\n        /* \"#utility.yul\":27194:27414   */\n    tag_678:\n        /* \"#utility.yul\":27334:27368   */\n      0x536166654d6174683a206d756c7469706c69636174696f6e206f766572666c6f\n        /* \"#utility.yul\":27330:27331   */\n      0x00\n        /* \"#utility.yul\":27322:27328   */\n      dup3\n        /* \"#utility.yul\":27318:27332   */\n      add\n        /* \"#utility.yul\":27311:27369   */\n      mstore\n        /* \"#utility.yul\":27403:27406   */\n      0x7700000000000000000000000000000000000000000000000000000000000000\n        /* \"#utility.yul\":27398:27400   */\n      0x20\n        /* \"#utility.yul\":27390:27396   */\n      dup3\n        /* \"#utility.yul\":27386:27401   */\n      add\n        /* \"#utility.yul\":27379:27407   */\n      mstore\n        /* \"#utility.yul\":27194:27414   */\n      pop\n      jump\t// out\n        /* \"#utility.yul\":27420:27602   */\n    tag_683:\n        /* \"#utility.yul\":27560:27594   */\n      0x4f776e61626c653a2063616c6c6572206973206e6f7420746865206f776e6572\n        /* \"#utility.yul\":27556:27557   */\n      0x00\n        /* \"#utility.yul\":27548:27554   */\n      dup3\n        /* \"#utility.yul\":27544:27558   */\n      add\n        /* \"#utility.yul\":27537:27595   */\n      mstore\n        /* \"#utility.yul\":27420:27602   */\n      pop\n      jump\t// out\n        /* \"#utility.yul\":27608:27787   */\n    tag_688:\n        /* \"#utility.yul\":27748:27779   */\n      0x416464726573733a2063616c6c20746f206e6f6e2d636f6e7472616374000000\n        /* \"#utility.yul\":27744:27745   */\n      0x00\n        /* \"#utility.yul\":27736:27742   */\n      dup3\n        /* \"#utility.yul\":27732:27746   */\n      add\n        /* \"#utility.yul\":27725:27780   */\n      mstore\n        /* \"#utility.yul\":27608:27787   */\n      pop\n      jump\t// out\n        /* \"#utility.yul\":27793:27961   */\n    tag_693:\n        /* \"#utility.yul\":27933:27953   */\n      0x77697468647261773a206e6f7420676f6f640000000000000000000000000000\n        /* \"#utility.yul\":27929:27930   */\n      0x00\n        /* \"#utility.yul\":27921:27927   */\n      dup3\n        /* \"#utility.yul\":27917:27931   */\n      add\n        /* \"#utility.yul\":27910:27954   */\n      mstore\n        /* \"#utility.yul\":27793:27961   */\n      pop\n      jump\t// out\n        /* \"#utility.yul\":27967:28196   */\n    tag_698:\n        /* \"#utility.yul\":28107:28141   */\n      0x5361666545524332303a204552433230206f7065726174696f6e20646964206e\n        /* \"#utility.yul\":28103:28104   */\n      0x00\n        /* \"#utility.yul\":28095:28101   */\n      dup3\n        /* \"#utility.yul\":28091:28105   */\n      add\n        /* \"#utility.yul\":28084:28142   */\n      mstore\n        /* \"#utility.yul\":28176:28188   */\n      0x6f74207375636365656400000000000000000000000000000000000000000000\n        /* \"#utility.yul\":28171:28173   */\n      0x20\n        /* \"#utility.yul\":28163:28169   */\n      dup3\n        /* \"#utility.yul\":28159:28174   */\n      add\n        /* \"#utility.yul\":28152:28189   */\n      mstore\n        /* \"#utility.yul\":27967:28196   */\n      pop\n      jump\t// out\n        /* \"#utility.yul\":28202:28364   */\n    tag_703:\n        /* \"#utility.yul\":28342:28356   */\n      0x6d6967726174653a206261640000000000000000000000000000000000000000\n        /* \"#utility.yul\":28338:28339   */\n      0x00\n        /* \"#utility.yul\":28330:28336   */\n      dup3\n        /* \"#utility.yul\":28326:28340   */\n      add\n        /* \"#utility.yul\":28319:28357   */\n      mstore\n        /* \"#utility.yul\":28202:28364   */\n      pop\n      jump\t// out\n        /* \"#utility.yul\":28370:28611   */\n    tag_708:\n        /* \"#utility.yul\":28510:28544   */\n      0x5361666545524332303a20617070726f76652066726f6d206e6f6e2d7a65726f\n        /* \"#utility.yul\":28506:28507   */\n      0x00\n        /* \"#utility.yul\":28498:28504   */\n      dup3\n        /* \"#utility.yul\":28494:28508   */\n      add\n        /* \"#utility.yul\":28487:28545   */\n      mstore\n        /* \"#utility.yul\":28579:28603   */\n      0x20746f206e6f6e2d7a65726f20616c6c6f77616e636500000000000000000000\n        /* \"#utility.yul\":28574:28576   */\n      0x20\n        /* \"#utility.yul\":28566:28572   */\n      dup3\n        /* \"#utility.yul\":28562:28577   */\n      add\n        /* \"#utility.yul\":28555:28604   */\n      mstore\n        /* \"#utility.yul\":28370:28611   */\n      pop\n      jump\t// out\n        /* \"#utility.yul\":28617:28787   */\n    tag_713:\n        /* \"#utility.yul\":28757:28779   */\n      0x6d6967726174653a206e6f206d69677261746f72000000000000000000000000\n        /* \"#utility.yul\":28753:28754   */\n      0x00\n        /* \"#utility.yul\":28745:28751   */\n      dup3\n        /* \"#utility.yul\":28741:28755   */\n      add\n        /* \"#utility.yul\":28734:28780   */\n      mstore\n        /* \"#utility.yul\":28617:28787   */\n      pop\n      jump\t// out\n        /* \"#utility.yul\":28793:28915   */\n    tag_537:\n        /* \"#utility.yul\":28866:28890   */\n      tag_863\n        /* \"#utility.yul\":28884:28889   */\n      dup2\n        /* \"#utility.yul\":28866:28890   */\n      tag_625\n      jump\t// in\n    tag_863:\n        /* \"#utility.yul\":28859:28864   */\n      dup2\n        /* \"#utility.yul\":28856:28891   */\n      eq\n        /* \"#utility.yul\":28846:28909   */\n      tag_864\n      jumpi\n        /* \"#utility.yul\":28905:28906   */\n      0x00\n        /* \"#utility.yul\":28902:28903   */\n      dup1\n        /* \"#utility.yul\":28895:28907   */\n      revert\n        /* \"#utility.yul\":28846:28909   */\n    tag_864:\n        /* \"#utility.yul\":28793:28915   */\n      pop\n      jump\t// out\n        /* \"#utility.yul\":28921:29037   */\n    tag_541:\n        /* \"#utility.yul\":28991:29012   */\n      tag_866\n        /* \"#utility.yul\":29006:29011   */\n      dup2\n        /* \"#utility.yul\":28991:29012   */\n      tag_808\n      jump\t// in\n    tag_866:\n        /* \"#utility.yul\":28984:28989   */\n      dup2\n        /* \"#utility.yul\":28981:29013   */\n      eq\n        /* \"#utility.yul\":28971:29031   */\n      tag_867\n      jumpi\n        /* \"#utility.yul\":29027:29028   */\n      0x00\n        /* \"#utility.yul\":29024:29025   */\n      dup1\n        /* \"#utility.yul\":29017:29029   */\n      revert\n        /* \"#utility.yul\":28971:29031   */\n    tag_867:\n        /* \"#utility.yul\":28921:29037   */\n      pop\n      jump\t// out\n        /* \"#utility.yul\":29043:29193   */\n    tag_548:\n        /* \"#utility.yul\":29130:29168   */\n      tag_869\n        /* \"#utility.yul\":29162:29167   */\n      dup2\n        /* \"#utility.yul\":29130:29168   */\n      tag_810\n      jump\t// in\n    tag_869:\n        /* \"#utility.yul\":29123:29128   */\n      dup2\n        /* \"#utility.yul\":29120:29169   */\n      eq\n        /* \"#utility.yul\":29110:29187   */\n      tag_870\n      jumpi\n        /* \"#utility.yul\":29183:29184   */\n      0x00\n        /* \"#utility.yul\":29180:29181   */\n      dup1\n        /* \"#utility.yul\":29173:29185   */\n      revert\n        /* \"#utility.yul\":29110:29187   */\n    tag_870:\n        /* \"#utility.yul\":29043:29193   */\n      pop\n      jump\t// out\n        /* \"#utility.yul\":29199:29359   */\n    tag_555:\n        /* \"#utility.yul\":29291:29334   */\n      tag_872\n        /* \"#utility.yul\":29328:29333   */\n      dup2\n        /* \"#utility.yul\":29291:29334   */\n      tag_813\n      jump\t// in\n    tag_872:\n        /* \"#utility.yul\":29284:29289   */\n      dup2\n        /* \"#utility.yul\":29281:29335   */\n      eq\n        /* \"#utility.yul\":29271:29353   */\n      tag_873\n      jumpi\n        /* \"#utility.yul\":29349:29350   */\n      0x00\n        /* \"#utility.yul\":29346:29347   */\n      dup1\n        /* \"#utility.yul\":29339:29351   */\n      revert\n        /* \"#utility.yul\":29271:29353   */\n    tag_873:\n        /* \"#utility.yul\":29199:29359   */\n      pop\n      jump\t// out\n        /* \"#utility.yul\":29365:29529   */\n    tag_559:\n        /* \"#utility.yul\":29459:29504   */\n      tag_875\n        /* \"#utility.yul\":29498:29503   */\n      dup2\n        /* \"#utility.yul\":29459:29504   */\n      tag_816\n      jump\t// in\n    tag_875:\n        /* \"#utility.yul\":29452:29457   */\n      dup2\n        /* \"#utility.yul\":29449:29505   */\n      eq\n        /* \"#utility.yul\":29439:29523   */\n      tag_876\n      jumpi\n        /* \"#utility.yul\":29519:29520   */\n      0x00\n        /* \"#utility.yul\":29516:29517   */\n      dup1\n        /* \"#utility.yul\":29509:29521   */\n      revert\n        /* \"#utility.yul\":29439:29523   */\n    tag_876:\n        /* \"#utility.yul\":29365:29529   */\n      pop\n      jump\t// out\n        /* \"#utility.yul\":29535:29657   */\n    tag_563:\n        /* \"#utility.yul\":29608:29632   */\n      tag_878\n        /* \"#utility.yul\":29626:29631   */\n      dup2\n        /* \"#utility.yul\":29608:29632   */\n      tag_717\n      jump\t// in\n    tag_878:\n        /* \"#utility.yul\":29601:29606   */\n      dup2\n        /* \"#utility.yul\":29598:29633   */\n      eq\n        /* \"#utility.yul\":29588:29651   */\n      tag_879\n      jumpi\n        /* \"#utility.yul\":29647:29648   */\n      0x00\n        /* \"#utility.yul\":29644:29645   */\n      dup1\n        /* \"#utility.yul\":29637:29649   */\n      revert\n        /* \"#utility.yul\":29588:29651   */\n    tag_879:\n        /* \"#utility.yul\":29535:29657   */\n      pop\n      jump\t// out\n\n    auxdata: 0xa26469706673582212206c53fb722fb04503e022c73f6f7ab6c85916044493e25bd37c6da2778eab58e764736f6c63430008070033\n}\n",
				"bytecode": {
					"linkReferences": {},
					"object": "60806040526001600555600060095574446c3b15f9926687d2c40534fdb563ffffffffffff600d553480156200003457600080fd5b506040516200429a3803806200429a83398181016040528101906200005a919062000286565b6200007a6200006e6200015e60201b60201c565b6200016660201b60201c565b85600260006101000a81548173ffffffffffffffffffffffffffffffffffffffff021916908373ffffffffffffffffffffffffffffffffffffffff16021790555084600360006101000a81548173ffffffffffffffffffffffffffffffffffffffff021916908373ffffffffffffffffffffffffffffffffffffffff1602179055508360048190555082600a8190555081600160006101000a81548173ffffffffffffffffffffffffffffffffffffffff021916908373ffffffffffffffffffffffffffffffffffffffff16021790555080600c81905550505050505050620003f5565b600033905090565b60008060009054906101000a900473ffffffffffffffffffffffffffffffffffffffff169050816000806101000a81548173ffffffffffffffffffffffffffffffffffffffff021916908373ffffffffffffffffffffffffffffffffffffffff1602179055508173ffffffffffffffffffffffffffffffffffffffff168173ffffffffffffffffffffffffffffffffffffffff167f8be0079c531659141344cd1fd0a4f28419497f9722a3daafe3b4186f6b6457e060405160405180910390a35050565b6000815190506200023b816200038d565b92915050565b6000815190506200025281620003a7565b92915050565b6000815190506200026981620003c1565b92915050565b6000815190506200028081620003db565b92915050565b60008060008060008060c08789031215620002a657620002a562000388565b5b6000620002b689828a0162000241565b9650506020620002c989828a016200022a565b9550506040620002dc89828a016200026f565b9450506060620002ef89828a016200026f565b93505060806200030289828a0162000258565b92505060a06200031589828a016200026f565b9150509295509295509295565b60006200032f826200035e565b9050919050565b6000620003438262000322565b9050919050565b6000620003578262000322565b9050919050565b600073ffffffffffffffffffffffffffffffffffffffff82169050919050565b6000819050919050565b600080fd5b620003988162000322565b8114620003a457600080fd5b50565b620003b28162000336565b8114620003be57600080fd5b50565b620003cc816200034a565b8114620003d857600080fd5b50565b620003e6816200037e565b8114620003f257600080fd5b50565b613e9580620004056000396000f3fe608060405234801561001057600080fd5b50600436106101fa5760003560e01c806368382a211161011a57806393f1a40b116100ad578063d49e77cd1161007c578063d49e77cd14610567578063e4d0989614610585578063eeac3ae8146105a3578063f2fde38b146105bf578063fde2ec98146105db576101fa565b806393f1a40b146104e0578063a1eef82114610511578063a41fe49f1461052f578063d0d41fe11461054b576101fa565b80637cd07e47116100e95780637cd07e47146104565780638aa28550146104745780638da5cb5b146104925780638dbb1e3a146104b0576101fa565b806368382a21146103e25780636a6d964e146103fe578063704ce43e1461042e578063715018a61461044c576101fa565b806348cd4cb1116101925780635ffe6146116101615780635ffe614614610384578063612888f6146103a0578063630b5ba1146103bc57806364482f79146103c6576101fa565b806348cd4cb1146102fe5780634f17dbaf1461031c57806351eb05a61461034c5780635312ea8e14610368576101fa565b80631526fe27116101ce5780631526fe271461027357806317caf6f1146102a857806323cf3118146102c6578063454b0608146102e2576101fa565b8062aeef8a146101ff578063081e3eda1461021b5780630fe7ea1714610239578063141aa0ba14610255575b600080fd5b61021960048036038101906102149190613210565b6105f7565b005b610223610c1f565b6040516102309190613797565b60405180910390f35b610253600480360381019061024e9190613068565b610c2c565b005b61025d610cb2565b60405161026a9190613563565b60405180910390f35b61028d60048036038101906102889190613068565b610cd8565b60405161029f9695949392919061357e565b60405180910390f35b6102b0610d84565b6040516102bd9190613797565b60405180910390f35b6102e060048036038101906102db919061303b565b610d8a565b005b6102fc60048036038101906102f79190613068565b610e4a565b005b610306611155565b6040516103139190613797565b60405180910390f35b610336600480360381019061033191906130c2565b61115b565b6040516103439190613797565b60405180910390f35b61036660048036038101906103619190613068565b6112f6565b005b610382600480360381019061037d9190613068565b6114bb565b005b61039e60048036038101906103999190613068565b6115f4565b005b6103ba60048036038101906103b59190613068565b61167a565b005b6103c4611700565b005b6103e060048036038101906103db91906131bd565b611733565b005b6103fc60048036038101906103f79190613068565b61183f565b005b61041860048036038101906104139190613068565b611974565b6040516104259190613797565b60405180910390f35b61043661198c565b6040516104439190613797565b60405180910390f35b610454611992565b005b61045e611a1a565b60405161046b91906135df565b60405180910390f35b61047c611a40565b6040516104899190613797565b60405180910390f35b61049a611a46565b6040516104a791906134bf565b60405180910390f35b6104ca60048036038101906104c5919061317d565b611a6f565b6040516104d79190613797565b60405180910390f35b6104fa60048036038101906104f591906130c2565b611aa0565b6040516105089291906137db565b60405180910390f35b610519611ad1565b6040516105269190613797565b60405180910390f35b61054960048036038101906105449190613210565b611ad7565b005b61056560048036038101906105609190612fb4565b611f99565b005b61056f612059565b60405161057c91906134bf565b60405180910390f35b61058d61207f565b60405161059a91906135fa565b60405180910390f35b6105bd60048036038101906105b89190613068565b6120a5565b005b6105d960048036038101906105d49190612fb4565b61225b565b005b6105f560048036038101906105f09190613102565b612353565b005b60006007848154811061060d5761060c613b0f565b5b9060005260206000209060060201905060006008600086815260200190815260200160002060003373ffffffffffffffffffffffffffffffffffffffff1673ffffffffffffffffffffffffffffffffffffffff168152602001908152602001600020905061067a856112f6565b6000816000015411156106e95760006106d182600101546106c364e8d4a510006106b5876003015487600001546125a890919063ffffffff16565b61262390919063ffffffff16565b61266d90919063ffffffff16565b905060008111156106e7576106e633826126b7565b5b505b60008260000160009054906101000a900473ffffffffffffffffffffffffffffffffffffffff1673ffffffffffffffffffffffffffffffffffffffff1663dd62ed3e308560040160009054906101000a900473ffffffffffffffffffffffffffffffffffffffff166040518363ffffffff1660e01b815260040161076e9291906134da565b60206040518083038186803b15801561078657600080fd5b505afa15801561079a573d6000803e3d6000fd5b505050506040513d601f19601f820116820180604052508101906107be9190613095565b116107cd576107cc856120a5565b5b60006107f86103e86107ea600c54876125a890919063ffffffff16565b61262390919063ffffffff16565b9050600061080f828661266d90919063ffffffff16565b90506108623330838760000160009054906101000a900473ffffffffffffffffffffffffffffffffffffffff1673ffffffffffffffffffffffffffffffffffffffff1661281c909392919063ffffffff16565b6108d533600360009054906101000a900473ffffffffffffffffffffffffffffffffffffffff16848760000160009054906101000a900473ffffffffffffffffffffffffffffffffffffffff1673ffffffffffffffffffffffffffffffffffffffff1661281c909392919063ffffffff16565b6000861415610972578360040160009054906101000a900473ffffffffffffffffffffffffffffffffffffffff1673ffffffffffffffffffffffffffffffffffffffff166341441d3b826040518263ffffffff1660e01b815260040161093b9190613797565b600060405180830381600087803b15801561095557600080fd5b505af1158015610969573d6000803e3d6000fd5b50505050610a04565b8360040160009054906101000a900473ffffffffffffffffffffffffffffffffffffffff1673ffffffffffffffffffffffffffffffffffffffff1663e2bbb15887836040518363ffffffff1660e01b81526004016109d19291906137db565b600060405180830381600087803b1580156109eb57600080fd5b505af11580156109ff573d6000803e3d6000fd5b505050505b610a1b8184600001546128a590919063ffffffff16565b8360000181905550610a4981600b60008a8152602001908152602001600020546128a590919063ffffffff16565b600b600089815260200190815260200160002081905550610a9264e8d4a51000610a84866003015486600001546125a890919063ffffffff16565b61262390919063ffffffff16565b836001018190555060008460050160009054906101000a900473ffffffffffffffffffffffffffffffffffffffff1673ffffffffffffffffffffffffffffffffffffffff166370a08231306040518263ffffffff1660e01b8152600401610af991906134bf565b60206040518083038186803b158015610b1157600080fd5b505afa158015610b25573d6000803e3d6000fd5b505050506040513d601f19601f82011682018060405250810190610b499190613095565b90506000811115610bc657610bc5600360009054906101000a900473ffffffffffffffffffffffffffffffffffffffff16828760050160009054906101000a900473ffffffffffffffffffffffffffffffffffffffff1673ffffffffffffffffffffffffffffffffffffffff166129039092919063ffffffff16565b5b873373ffffffffffffffffffffffffffffffffffffffff167f90890809c654f11d6e72a28fa60149770a0d11ec6c92319d6ceb2bb0a4ea1a1584604051610c0d9190613797565b60405180910390a35050505050505050565b6000600780549050905090565b610c34612989565b73ffffffffffffffffffffffffffffffffffffffff16610c52611a46565b73ffffffffffffffffffffffffffffffffffffffff1614610ca8576040517f08c379a0000000000000000000000000000000000000000000000000000000008152600401610c9f906136b7565b60405180910390fd5b8060048190555050565b600260009054906101000a900473ffffffffffffffffffffffffffffffffffffffff1681565b60078181548110610ce857600080fd5b90600052602060002090600602016000915090508060000160009054906101000a900473ffffffffffffffffffffffffffffffffffffffff16908060010154908060020154908060030154908060040160009054906101000a900473ffffffffffffffffffffffffffffffffffffffff16908060050160009054906101000a900473ffffffffffffffffffffffffffffffffffffffff16905086565b60095481565b610d92612989565b73ffffffffffffffffffffffffffffffffffffffff16610db0611a46565b73ffffffffffffffffffffffffffffffffffffffff1614610e06576040517f08c379a0000000000000000000000000000000000000000000000000000000008152600401610dfd906136b7565b60405180910390fd5b80600660006101000a81548173ffffffffffffffffffffffffffffffffffffffff021916908373ffffffffffffffffffffffffffffffffffffffff16021790555050565b600073ffffffffffffffffffffffffffffffffffffffff16600660009054906101000a900473ffffffffffffffffffffffffffffffffffffffff1673ffffffffffffffffffffffffffffffffffffffff161415610edc576040517f08c379a0000000000000000000000000000000000000000000000000000000008152600401610ed390613777565b60405180910390fd5b600060078281548110610ef257610ef1613b0f565b5b9060005260206000209060060201905060008160000160009054906101000a900473ffffffffffffffffffffffffffffffffffffffff1690506000600b6000858152602001908152602001600020549050610f90600660009054906101000a900473ffffffffffffffffffffffffffffffffffffffff16828473ffffffffffffffffffffffffffffffffffffffff166129919092919063ffffffff16565b6000600660009054906101000a900473ffffffffffffffffffffffffffffffffffffffff1673ffffffffffffffffffffffffffffffffffffffff1663ce5494bb846040518263ffffffff1660e01b8152600401610fed9190613563565b602060405180830381600087803b15801561100757600080fd5b505af115801561101b573d6000803e3d6000fd5b505050506040513d601f19601f8201168201806040525081019061103f919061300e565b90508073ffffffffffffffffffffffffffffffffffffffff166370a08231306040518263ffffffff1660e01b815260040161107a91906134bf565b60206040518083038186803b15801561109257600080fd5b505afa1580156110a6573d6000803e3d6000fd5b505050506040513d601f19601f820116820180604052508101906110ca9190613095565b821461110b576040517f08c379a000000000000000000000000000000000000000000000000000000000815260040161110290613737565b60405180910390fd5b808460000160006101000a81548173ffffffffffffffffffffffffffffffffffffffff021916908373ffffffffffffffffffffffffffffffffffffffff1602179055505050505050565b600a5481565b6000806007848154811061117257611171613b0f565b5b9060005260206000209060060201905060006008600086815260200190815260200160002060008573ffffffffffffffffffffffffffffffffffffffff1673ffffffffffffffffffffffffffffffffffffffff16815260200190815260200160002090506000826003015490506000600b600088815260200190815260200160002054905083600201544311801561120b575060008114155b156112a6576000611220856002015443611a6f565b905060006112636009546112558860010154611247600454876125a890919063ffffffff16565b6125a890919063ffffffff16565b61262390919063ffffffff16565b90506112a16112928461128464e8d4a51000856125a890919063ffffffff16565b61262390919063ffffffff16565b856128a590919063ffffffff16565b935050505b6112ea83600101546112dc64e8d4a510006112ce8688600001546125a890919063ffffffff16565b61262390919063ffffffff16565b61266d90919063ffffffff16565b94505050505092915050565b60006007828154811061130c5761130b613b0f565b5b906000526020600020906006020190508060020154431161132d57506114b8565b6000600b60008481526020019081526020016000205490506000811161135d5743826002018190555050506114b8565b600061136d836002015443611a6f565b905060006113b06009546113a28660010154611394600454876125a890919063ffffffff16565b6125a890919063ffffffff16565b61262390919063ffffffff16565b9050600260009054906101000a900473ffffffffffffffffffffffffffffffffffffffff1673ffffffffffffffffffffffffffffffffffffffff166340c10f1930836040518363ffffffff1660e01b815260040161140f92919061353a565b602060405180830381600087803b15801561142957600080fd5b505af115801561143d573d6000803e3d6000fd5b505050506040513d601f19601f820116820180604052508101906114619190612fe1565b506114a261148f8461148164e8d4a51000856125a890919063ffffffff16565b61262390919063ffffffff16565b85600301546128a590919063ffffffff16565b8460030181905550438460020181905550505050505b50565b6000600782815481106114d1576114d0613b0f565b5b9060005260206000209060060201905060006008600084815260200190815260200160002060003373ffffffffffffffffffffffffffffffffffffffff1673ffffffffffffffffffffffffffffffffffffffff16815260200190815260200160002090506115883382600001548460000160009054906101000a900473ffffffffffffffffffffffffffffffffffffffff1673ffffffffffffffffffffffffffffffffffffffff166129039092919063ffffffff16565b823373ffffffffffffffffffffffffffffffffffffffff167fbb757047c2b5f3974fe26b7c10f732e7bce710b0952a71082702781e62ae059583600001546040516115d39190613797565b60405180910390a36000816000018190555060008160010181905550505050565b6115fc612989565b73ffffffffffffffffffffffffffffffffffffffff1661161a611a46565b73ffffffffffffffffffffffffffffffffffffffff1614611670576040517f08c379a0000000000000000000000000000000000000000000000000000000008152600401611667906136b7565b60405180910390fd5b8060058190555050565b611682612989565b73ffffffffffffffffffffffffffffffffffffffff166116a0611a46565b73ffffffffffffffffffffffffffffffffffffffff16146116f6576040517f08c379a00000000000000000000000000000000000000000000000000000000081526004016116ed906136b7565b60405180910390fd5b80600c8190555050565b6000600780549050905060005b8181101561172f5761171e816112f6565b8061172890613a68565b905061170d565b5050565b61173b612989565b73ffffffffffffffffffffffffffffffffffffffff16611759611a46565b73ffffffffffffffffffffffffffffffffffffffff16146117af576040517f08c379a00000000000000000000000000000000000000000000000000000000081526004016117a6906136b7565b60405180910390fd5b80156117be576117bd611700565b5b61180a826117fc600786815481106117d9576117d8613b0f565b5b90600052602060002090600602016001015460095461266d90919063ffffffff16565b6128a590919063ffffffff16565b600981905550816007848154811061182557611824613b0f565b5b906000526020600020906006020160010181905550505050565b611847612989565b73ffffffffffffffffffffffffffffffffffffffff16611865611a46565b73ffffffffffffffffffffffffffffffffffffffff16146118bb576040517f08c379a00000000000000000000000000000000000000000000000000000000081526004016118b2906136b7565b60405180910390fd5b6000600782815481106118d1576118d0613b0f565b5b906000526020600020906006020190508060040160009054906101000a900473ffffffffffffffffffffffffffffffffffffffff1673ffffffffffffffffffffffffffffffffffffffff16635312ea8e836040518263ffffffff1660e01b815260040161193e9190613797565b600060405180830381600087803b15801561195857600080fd5b505af115801561196c573d6000803e3d6000fd5b505050505050565b600b6020528060005260406000206000915090505481565b600c5481565b61199a612989565b73ffffffffffffffffffffffffffffffffffffffff166119b8611a46565b73ffffffffffffffffffffffffffffffffffffffff1614611a0e576040517f08c379a0000000000000000000000000000000000000000000000000000000008152600401611a05906136b7565b60405180910390fd5b611a186000612aef565b565b600660009054906101000a900473ffffffffffffffffffffffffffffffffffffffff1681565b60055481565b60008060009054906101000a900473ffffffffffffffffffffffffffffffffffffffff16905090565b6000611a98600554611a8a858561266d90919063ffffffff16565b6125a890919063ffffffff16565b905092915050565b6008602052816000526040600020602052806000526040600020600091509150508060000154908060010154905082565b60045481565b600060078481548110611aed57611aec613b0f565b5b9060005260206000209060060201905060006008600086815260200190815260200160002060003373ffffffffffffffffffffffffffffffffffffffff1673ffffffffffffffffffffffffffffffffffffffff16815260200190815260200160002090508281600001541015611b98576040517f08c379a0000000000000000000000000000000000000000000000000000000008152600401611b8f906136f7565b60405180910390fd5b611ba1856112f6565b6000611beb8260010154611bdd64e8d4a51000611bcf876003015487600001546125a890919063ffffffff16565b61262390919063ffffffff16565b61266d90919063ffffffff16565b90506000811115611c0157611c0033826126b7565b5b611c1884836000015461266d90919063ffffffff16565b8260000181905550611c4684600b60008981526020019081526020016000205461266d90919063ffffffff16565b600b600088815260200190815260200160002081905550611c8f64e8d4a51000611c81856003015485600001546125a890919063ffffffff16565b61262390919063ffffffff16565b82600101819055506000851415611d34578260040160009054906101000a900473ffffffffffffffffffffffffffffffffffffffff1673ffffffffffffffffffffffffffffffffffffffff16631058d281856040518263ffffffff1660e01b8152600401611cfd9190613797565b600060405180830381600087803b158015611d1757600080fd5b505af1158015611d2b573d6000803e3d6000fd5b50505050611dc6565b8260040160009054906101000a900473ffffffffffffffffffffffffffffffffffffffff1673ffffffffffffffffffffffffffffffffffffffff1663441a3e7086866040518363ffffffff1660e01b8152600401611d939291906137db565b600060405180830381600087803b158015611dad57600080fd5b505af1158015611dc1573d6000803e3d6000fd5b505050505b611e1533858560000160009054906101000a900473ffffffffffffffffffffffffffffffffffffffff1673ffffffffffffffffffffffffffffffffffffffff166129039092919063ffffffff16565b60008360050160009054906101000a900473ffffffffffffffffffffffffffffffffffffffff1673ffffffffffffffffffffffffffffffffffffffff166370a08231306040518263ffffffff1660e01b8152600401611e7491906134bf565b60206040518083038186803b158015611e8c57600080fd5b505afa158015611ea0573d6000803e3d6000fd5b505050506040513d601f19601f82011682018060405250810190611ec49190613095565b90506000811115611f4157611f40600360009054906101000a900473ffffffffffffffffffffffffffffffffffffffff16828660050160009054906101000a900473ffffffffffffffffffffffffffffffffffffffff1673ffffffffffffffffffffffffffffffffffffffff166129039092919063ffffffff16565b5b863373ffffffffffffffffffffffffffffffffffffffff167ff279e6a1f5e320cca91135676d9cb6e44ca8a08c0b88342bcdb1144f6511b56887604051611f889190613797565b60405180910390a350505050505050565b611fa1612989565b73ffffffffffffffffffffffffffffffffffffffff16611fbf611a46565b73ffffffffffffffffffffffffffffffffffffffff1614612015576040517f08c379a000000000000000000000000000000000000000000000000000000000815260040161200c906136b7565b60405180910390fd5b80600360006101000a81548173ffffffffffffffffffffffffffffffffffffffff021916908373ffffffffffffffffffffffffffffffffffffffff16021790555050565b600360009054906101000a900473ffffffffffffffffffffffffffffffffffffffff1681565b600160009054906101000a900473ffffffffffffffffffffffffffffffffffffffff1681565b6000600782815481106120bb576120ba613b0f565b5b906000526020600020906006020190508060000160009054906101000a900473ffffffffffffffffffffffffffffffffffffffff1673ffffffffffffffffffffffffffffffffffffffff1663095ea7b38260040160009054906101000a900473ffffffffffffffffffffffffffffffffffffffff16600d546040518363ffffffff1660e01b815260040161215092919061353a565b602060405180830381600087803b15801561216a57600080fd5b505af115801561217e573d6000803e3d6000fd5b505050506040513d601f19601f820116820180604052508101906121a29190612fe1565b508060050160009054906101000a900473ffffffffffffffffffffffffffffffffffffffff1673ffffffffffffffffffffffffffffffffffffffff1663095ea7b330600d546040518363ffffffff1660e01b815260040161220492919061353a565b602060405180830381600087803b15801561221e57600080fd5b505af1158015612232573d6000803e3d6000fd5b505050506040513d601f19601f820116820180604052508101906122569190612fe1565b505050565b612263612989565b73ffffffffffffffffffffffffffffffffffffffff16612281611a46565b73ffffffffffffffffffffffffffffffffffffffff16146122d7576040517f08c379a00000000000000000000000000000000000000000000000000000000081526004016122ce906136b7565b60405180910390fd5b600073ffffffffffffffffffffffffffffffffffffffff168173ffffffffffffffffffffffffffffffffffffffff161415612347576040517f08c379a000000000000000000000000000000000000000000000000000000000815260040161233e90613637565b60405180910390fd5b61235081612aef565b50565b61235b612989565b73ffffffffffffffffffffffffffffffffffffffff16612379611a46565b73ffffffffffffffffffffffffffffffffffffffff16146123cf576040517f08c379a00000000000000000000000000000000000000000000000000000000081526004016123c6906136b7565b60405180910390fd5b82156123de576123dd611700565b5b6000600a5443116123f157600a546123f3565b435b905061240a866009546128a590919063ffffffff16565b60098190555060076040518060c001604052808773ffffffffffffffffffffffffffffffffffffffff168152602001888152602001838152602001600081526020018573ffffffffffffffffffffffffffffffffffffffff1681526020018473ffffffffffffffffffffffffffffffffffffffff16815250908060018154018082558091505060019003906000526020600020906006020160009091909190915060008201518160000160006101000a81548173ffffffffffffffffffffffffffffffffffffffff021916908373ffffffffffffffffffffffffffffffffffffffff16021790555060208201518160010155604082015181600201556060820151816003015560808201518160040160006101000a81548173ffffffffffffffffffffffffffffffffffffffff021916908373ffffffffffffffffffffffffffffffffffffffff16021790555060a08201518160050160006101000a81548173ffffffffffffffffffffffffffffffffffffffff021916908373ffffffffffffffffffffffffffffffffffffffff1602179055505050505050505050565b6000808314156125bb576000905061261d565b600082846125c991906138bd565b90508284826125d8919061388c565b14612618576040517f08c379a000000000000000000000000000000000000000000000000000000000815260040161260f90613697565b60405180910390fd5b809150505b92915050565b600061266583836040518060400160405280601a81526020017f536166654d6174683a206469766973696f6e206279207a65726f000000000000815250612bb3565b905092915050565b60006126af83836040518060400160405280601e81526020017f536166654d6174683a207375627472616374696f6e206f766572666c6f770000815250612c16565b905092915050565b600260009054906101000a900473ffffffffffffffffffffffffffffffffffffffff1673ffffffffffffffffffffffffffffffffffffffff1663095ea7b3600160009054906101000a900473ffffffffffffffffffffffffffffffffffffffff16836040518363ffffffff1660e01b815260040161273692919061353a565b602060405180830381600087803b15801561275057600080fd5b505af1158015612764573d6000803e3d6000fd5b505050506040513d601f19601f820116820180604052508101906127889190612fe1565b50600160009054906101000a900473ffffffffffffffffffffffffffffffffffffffff1673ffffffffffffffffffffffffffffffffffffffff1663849df12c82846040518363ffffffff1660e01b81526004016127e69291906137b2565b600060405180830381600087803b15801561280057600080fd5b505af1158015612814573d6000803e3d6000fd5b505050505050565b61289f846323b872dd60e01b85858560405160240161283d93929190613503565b604051602081830303815290604052907bffffffffffffffffffffffffffffffffffffffffffffffffffffffff19166020820180517bffffffffffffffffffffffffffffffffffffffffffffffffffffffff8381831617835250505050612c7a565b50505050565b60008082846128b49190613836565b9050838110156128f9576040517f08c379a00000000000000000000000000000000000000000000000000000000081526004016128f090613657565b60405180910390fd5b8091505092915050565b6129848363a9059cbb60e01b848460405160240161292292919061353a565b604051602081830303815290604052907bffffffffffffffffffffffffffffffffffffffffffffffffffffffff19166020820180517bffffffffffffffffffffffffffffffffffffffffffffffffffffffff8381831617835250505050612c7a565b505050565b600033905090565b6000811480612a2a575060008373ffffffffffffffffffffffffffffffffffffffff1663dd62ed3e30856040518363ffffffff1660e01b81526004016129d89291906134da565b60206040518083038186803b1580156129f057600080fd5b505afa158015612a04573d6000803e3d6000fd5b505050506040513d601f19601f82011682018060405250810190612a289190613095565b145b612a69576040517f08c379a0000000000000000000000000000000000000000000000000000000008152600401612a6090613757565b60405180910390fd5b612aea8363095ea7b360e01b8484604051602401612a8892919061353a565b604051602081830303815290604052907bffffffffffffffffffffffffffffffffffffffffffffffffffffffff19166020820180517bffffffffffffffffffffffffffffffffffffffffffffffffffffffff8381831617835250505050612c7a565b505050565b60008060009054906101000a900473ffffffffffffffffffffffffffffffffffffffff169050816000806101000a81548173ffffffffffffffffffffffffffffffffffffffff021916908373ffffffffffffffffffffffffffffffffffffffff1602179055508173ffffffffffffffffffffffffffffffffffffffff168173ffffffffffffffffffffffffffffffffffffffff167f8be0079c531659141344cd1fd0a4f28419497f9722a3daafe3b4186f6b6457e060405160405180910390a35050565b60008083118290612bfa576040517f08c379a0000000000000000000000000000000000000000000000000000000008152600401612bf19190613615565b60405180910390fd5b5060008385612c09919061388c565b9050809150509392505050565b6000838311158290612c5e576040517f08c379a0000000000000000000000000000000000000000000000000000000008152600401612c559190613615565b60405180910390fd5b5060008385612c6d9190613917565b9050809150509392505050565b6000612cdc826040518060400160405280602081526020017f5361666545524332303a206c6f772d6c6576656c2063616c6c206661696c65648152508573ffffffffffffffffffffffffffffffffffffffff16612d419092919063ffffffff16565b9050600081511115612d3c5780806020019051810190612cfc9190612fe1565b612d3b576040517f08c379a0000000000000000000000000000000000000000000000000000000008152600401612d3290613717565b60405180910390fd5b5b505050565b6060612d508484600085612d59565b90509392505050565b606082471015612d9e576040517f08c379a0000000000000000000000000000000000000000000000000000000008152600401612d9590613677565b60405180910390fd5b612da785612e6d565b612de6576040517f08c379a0000000000000000000000000000000000000000000000000000000008152600401612ddd906136d7565b60405180910390fd5b6000808673ffffffffffffffffffffffffffffffffffffffff168587604051612e0f91906134a8565b60006040518083038185875af1925050503d8060008114612e4c576040519150601f19603f3d011682016040523d82523d6000602084013e612e51565b606091505b5091509150612e61828286612e90565b92505050949350505050565b6000808273ffffffffffffffffffffffffffffffffffffffff163b119050919050565b60608315612ea057829050612ef0565b600083511115612eb35782518084602001fd5b816040517f08c379a0000000000000000000000000000000000000000000000000000000008152600401612ee79190613615565b60405180910390fd5b9392505050565b600081359050612f0681613dd5565b92915050565b600081359050612f1b81613dec565b92915050565b600081519050612f3081613dec565b92915050565b600081359050612f4581613e03565b92915050565b600081519050612f5a81613e03565b92915050565b600081359050612f6f81613e1a565b92915050565b600081359050612f8481613e31565b92915050565b600081359050612f9981613e48565b92915050565b600081519050612fae81613e48565b92915050565b600060208284031215612fca57612fc9613b3e565b5b6000612fd884828501612ef7565b91505092915050565b600060208284031215612ff757612ff6613b3e565b5b600061300584828501612f21565b91505092915050565b60006020828403121561302457613023613b3e565b5b600061303284828501612f4b565b91505092915050565b60006020828403121561305157613050613b3e565b5b600061305f84828501612f75565b91505092915050565b60006020828403121561307e5761307d613b3e565b5b600061308c84828501612f8a565b91505092915050565b6000602082840312156130ab576130aa613b3e565b5b60006130b984828501612f9f565b91505092915050565b600080604083850312156130d9576130d8613b3e565b5b60006130e785828601612f8a565b92505060206130f885828601612ef7565b9150509250929050565b600080600080600060a0868803121561311e5761311d613b3e565b5b600061312c88828901612f8a565b955050602061313d88828901612f36565b945050604061314e88828901612f0c565b935050606061315f88828901612f60565b925050608061317088828901612f36565b9150509295509295909350565b6000806040838503121561319457613193613b3e565b5b60006131a285828601612f8a565b92505060206131b385828601612f8a565b9150509250929050565b6000806000606084860312156131d6576131d5613b3e565b5b60006131e486828701612f8a565b93505060206131f586828701612f8a565b925050604061320686828701612f0c565b9150509250925092565b60008060006060848603121561322957613228613b3e565b5b600061323786828701612f8a565b935050602061324886828701612f8a565b925050604061325986828701612f8a565b9150509250925092565b61326c8161394b565b82525050565b600061327d82613804565b613287818561381a565b9350613297818560208601613a35565b80840191505092915050565b6132ac816139c9565b82525050565b6132bb816139db565b82525050565b6132ca816139ed565b82525050565b6132d9816139ff565b82525050565b60006132ea8261380f565b6132f48185613825565b9350613304818560208601613a35565b61330d81613b43565b840191505092915050565b6000613325602683613825565b915061333082613b54565b604082019050919050565b6000613348601b83613825565b915061335382613ba3565b602082019050919050565b600061336b602683613825565b915061337682613bcc565b604082019050919050565b600061338e602183613825565b915061339982613c1b565b604082019050919050565b60006133b1602083613825565b91506133bc82613c6a565b602082019050919050565b60006133d4601d83613825565b91506133df82613c93565b602082019050919050565b60006133f7601283613825565b915061340282613cbc565b602082019050919050565b600061341a602a83613825565b915061342582613ce5565b604082019050919050565b600061343d600c83613825565b915061344882613d34565b602082019050919050565b6000613460603683613825565b915061346b82613d5d565b604082019050919050565b6000613483601483613825565b915061348e82613dac565b602082019050919050565b6134a2816139bf565b82525050565b60006134b48284613272565b915081905092915050565b60006020820190506134d46000830184613263565b92915050565b60006040820190506134ef6000830185613263565b6134fc6020830184613263565b9392505050565b60006060820190506135186000830186613263565b6135256020830185613263565b6135326040830184613499565b949350505050565b600060408201905061354f6000830185613263565b61355c6020830184613499565b9392505050565b600060208201905061357860008301846132a3565b92915050565b600060c08201905061359360008301896132a3565b6135a06020830188613499565b6135ad6040830187613499565b6135ba6060830186613499565b6135c760808301856132b2565b6135d460a08301846132a3565b979650505050505050565b60006020820190506135f460008301846132c1565b92915050565b600060208201905061360f60008301846132d0565b92915050565b6000602082019050818103600083015261362f81846132df565b905092915050565b6000602082019050818103600083015261365081613318565b9050919050565b600060208201905081810360008301526136708161333b565b9050919050565b600060208201905081810360008301526136908161335e565b9050919050565b600060208201905081810360008301526136b081613381565b9050919050565b600060208201905081810360008301526136d0816133a4565b9050919050565b600060208201905081810360008301526136f0816133c7565b9050919050565b60006020820190508181036000830152613710816133ea565b9050919050565b600060208201905081810360008301526137308161340d565b9050919050565b6000602082019050818103600083015261375081613430565b9050919050565b6000602082019050818103600083015261377081613453565b9050919050565b6000602082019050818103600083015261379081613476565b9050919050565b60006020820190506137ac6000830184613499565b92915050565b60006040820190506137c76000830185613499565b6137d46020830184613263565b9392505050565b60006040820190506137f06000830185613499565b6137fd6020830184613499565b9392505050565b600081519050919050565b600081519050919050565b600081905092915050565b600082825260208201905092915050565b6000613841826139bf565b915061384c836139bf565b9250827fffffffffffffffffffffffffffffffffffffffffffffffffffffffffffffffff0382111561388157613880613ab1565b5b828201905092915050565b6000613897826139bf565b91506138a2836139bf565b9250826138b2576138b1613ae0565b5b828204905092915050565b60006138c8826139bf565b91506138d3836139bf565b9250817fffffffffffffffffffffffffffffffffffffffffffffffffffffffffffffffff048311821515161561390c5761390b613ab1565b5b828202905092915050565b6000613922826139bf565b915061392d836139bf565b9250828210156139405761393f613ab1565b5b828203905092915050565b60006139568261399f565b9050919050565b60008115159050919050565b60006139748261394b565b9050919050565b60006139868261394b565b9050919050565b60006139988261394b565b9050919050565b600073ffffffffffffffffffffffffffffffffffffffff82169050919050565b6000819050919050565b60006139d482613a11565b9050919050565b60006139e682613a11565b9050919050565b60006139f882613a11565b9050919050565b6000613a0a82613a11565b9050919050565b6000613a1c82613a23565b9050919050565b6000613a2e8261399f565b9050919050565b60005b83811015613a53578082015181840152602081019050613a38565b83811115613a62576000848401525b50505050565b6000613a73826139bf565b91507fffffffffffffffffffffffffffffffffffffffffffffffffffffffffffffffff821415613aa657613aa5613ab1565b5b600182019050919050565b7f4e487b7100000000000000000000000000000000000000000000000000000000600052601160045260246000fd5b7f4e487b7100000000000000000000000000000000000000000000000000000000600052601260045260246000fd5b7f4e487b7100000000000000000000000000000000000000000000000000000000600052603260045260246000fd5b600080fd5b6000601f19601f8301169050919050565b7f4f776e61626c653a206e6577206f776e657220697320746865207a65726f206160008201527f6464726573730000000000000000000000000000000000000000000000000000602082015250565b7f536166654d6174683a206164646974696f6e206f766572666c6f770000000000600082015250565b7f416464726573733a20696e73756666696369656e742062616c616e636520666f60008201527f722063616c6c0000000000000000000000000000000000000000000000000000602082015250565b7f536166654d6174683a206d756c7469706c69636174696f6e206f766572666c6f60008201527f7700000000000000000000000000000000000000000000000000000000000000602082015250565b7f4f776e61626c653a2063616c6c6572206973206e6f7420746865206f776e6572600082015250565b7f416464726573733a2063616c6c20746f206e6f6e2d636f6e7472616374000000600082015250565b7f77697468647261773a206e6f7420676f6f640000000000000000000000000000600082015250565b7f5361666545524332303a204552433230206f7065726174696f6e20646964206e60008201527f6f74207375636365656400000000000000000000000000000000000000000000602082015250565b7f6d6967726174653a206261640000000000000000000000000000000000000000600082015250565b7f5361666545524332303a20617070726f76652066726f6d206e6f6e2d7a65726f60008201527f20746f206e6f6e2d7a65726f20616c6c6f77616e636500000000000000000000602082015250565b7f6d6967726174653a206e6f206d69677261746f72000000000000000000000000600082015250565b613dde8161394b565b8114613de957600080fd5b50565b613df58161395d565b8114613e0057600080fd5b50565b613e0c81613969565b8114613e1757600080fd5b50565b613e238161397b565b8114613e2e57600080fd5b50565b613e3a8161398d565b8114613e4557600080fd5b50565b613e51816139bf565b8114613e5c57600080fd5b5056fea26469706673582212206c53fb722fb04503e022c73f6f7ab6c85916044493e25bd37c6da2778eab58e764736f6c63430008070033",
					"opcodes": "PUSH1 0x80 PUSH1 0x40 MSTORE PUSH1 0x1 PUSH1 0x5 SSTORE PUSH1 0x0 PUSH1 0x9 SSTORE PUSH21 0x446C3B15F9926687D2C40534FDB563FFFFFFFFFFFF PUSH1 0xD SSTORE CALLVALUE DUP1 ISZERO PUSH3 0x34 JUMPI PUSH1 0x0 DUP1 REVERT JUMPDEST POP PUSH1 0x40 MLOAD PUSH3 0x429A CODESIZE SUB DUP1 PUSH3 0x429A DUP4 CODECOPY DUP2 DUP2 ADD PUSH1 0x40 MSTORE DUP2 ADD SWAP1 PUSH3 0x5A SWAP2 SWAP1 PUSH3 0x286 JUMP JUMPDEST PUSH3 0x7A PUSH3 0x6E PUSH3 0x15E PUSH1 0x20 SHL PUSH1 0x20 SHR JUMP JUMPDEST PUSH3 0x166 PUSH1 0x20 SHL PUSH1 0x20 SHR JUMP JUMPDEST DUP6 PUSH1 0x2 PUSH1 0x0 PUSH2 0x100 EXP DUP2 SLOAD DUP2 PUSH20 0xFFFFFFFFFFFFFFFFFFFFFFFFFFFFFFFFFFFFFFFF MUL NOT AND SWAP1 DUP4 PUSH20 0xFFFFFFFFFFFFFFFFFFFFFFFFFFFFFFFFFFFFFFFF AND MUL OR SWAP1 SSTORE POP DUP5 PUSH1 0x3 PUSH1 0x0 PUSH2 0x100 EXP DUP2 SLOAD DUP2 PUSH20 0xFFFFFFFFFFFFFFFFFFFFFFFFFFFFFFFFFFFFFFFF MUL NOT AND SWAP1 DUP4 PUSH20 0xFFFFFFFFFFFFFFFFFFFFFFFFFFFFFFFFFFFFFFFF AND MUL OR SWAP1 SSTORE POP DUP4 PUSH1 0x4 DUP2 SWAP1 SSTORE POP DUP3 PUSH1 0xA DUP2 SWAP1 SSTORE POP DUP2 PUSH1 0x1 PUSH1 0x0 PUSH2 0x100 EXP DUP2 SLOAD DUP2 PUSH20 0xFFFFFFFFFFFFFFFFFFFFFFFFFFFFFFFFFFFFFFFF MUL NOT AND SWAP1 DUP4 PUSH20 0xFFFFFFFFFFFFFFFFFFFFFFFFFFFFFFFFFFFFFFFF AND MUL OR SWAP1 SSTORE POP DUP1 PUSH1 0xC DUP2 SWAP1 SSTORE POP POP POP POP POP POP POP PUSH3 0x3F5 JUMP JUMPDEST PUSH1 0x0 CALLER SWAP1 POP SWAP1 JUMP JUMPDEST PUSH1 0x0 DUP1 PUSH1 0x0 SWAP1 SLOAD SWAP1 PUSH2 0x100 EXP SWAP1 DIV PUSH20 0xFFFFFFFFFFFFFFFFFFFFFFFFFFFFFFFFFFFFFFFF AND SWAP1 POP DUP2 PUSH1 0x0 DUP1 PUSH2 0x100 EXP DUP2 SLOAD DUP2 PUSH20 0xFFFFFFFFFFFFFFFFFFFFFFFFFFFFFFFFFFFFFFFF MUL NOT AND SWAP1 DUP4 PUSH20 0xFFFFFFFFFFFFFFFFFFFFFFFFFFFFFFFFFFFFFFFF AND MUL OR SWAP1 SSTORE POP DUP2 PUSH20 0xFFFFFFFFFFFFFFFFFFFFFFFFFFFFFFFFFFFFFFFF AND DUP2 PUSH20 0xFFFFFFFFFFFFFFFFFFFFFFFFFFFFFFFFFFFFFFFF AND PUSH32 0x8BE0079C531659141344CD1FD0A4F28419497F9722A3DAAFE3B4186F6B6457E0 PUSH1 0x40 MLOAD PUSH1 0x40 MLOAD DUP1 SWAP2 SUB SWAP1 LOG3 POP POP JUMP JUMPDEST PUSH1 0x0 DUP2 MLOAD SWAP1 POP PUSH3 0x23B DUP2 PUSH3 0x38D JUMP JUMPDEST SWAP3 SWAP2 POP POP JUMP JUMPDEST PUSH1 0x0 DUP2 MLOAD SWAP1 POP PUSH3 0x252 DUP2 PUSH3 0x3A7 JUMP JUMPDEST SWAP3 SWAP2 POP POP JUMP JUMPDEST PUSH1 0x0 DUP2 MLOAD SWAP1 POP PUSH3 0x269 DUP2 PUSH3 0x3C1 JUMP JUMPDEST SWAP3 SWAP2 POP POP JUMP JUMPDEST PUSH1 0x0 DUP2 MLOAD SWAP1 POP PUSH3 0x280 DUP2 PUSH3 0x3DB JUMP JUMPDEST SWAP3 SWAP2 POP POP JUMP JUMPDEST PUSH1 0x0 DUP1 PUSH1 0x0 DUP1 PUSH1 0x0 DUP1 PUSH1 0xC0 DUP8 DUP10 SUB SLT ISZERO PUSH3 0x2A6 JUMPI PUSH3 0x2A5 PUSH3 0x388 JUMP JUMPDEST JUMPDEST PUSH1 0x0 PUSH3 0x2B6 DUP10 DUP3 DUP11 ADD PUSH3 0x241 JUMP JUMPDEST SWAP7 POP POP PUSH1 0x20 PUSH3 0x2C9 DUP10 DUP3 DUP11 ADD PUSH3 0x22A JUMP JUMPDEST SWAP6 POP POP PUSH1 0x40 PUSH3 0x2DC DUP10 DUP3 DUP11 ADD PUSH3 0x26F JUMP JUMPDEST SWAP5 POP POP PUSH1 0x60 PUSH3 0x2EF DUP10 DUP3 DUP11 ADD PUSH3 0x26F JUMP JUMPDEST SWAP4 POP POP PUSH1 0x80 PUSH3 0x302 DUP10 DUP3 DUP11 ADD PUSH3 0x258 JUMP JUMPDEST SWAP3 POP POP PUSH1 0xA0 PUSH3 0x315 DUP10 DUP3 DUP11 ADD PUSH3 0x26F JUMP JUMPDEST SWAP2 POP POP SWAP3 SWAP6 POP SWAP3 SWAP6 POP SWAP3 SWAP6 JUMP JUMPDEST PUSH1 0x0 PUSH3 0x32F DUP3 PUSH3 0x35E JUMP JUMPDEST SWAP1 POP SWAP2 SWAP1 POP JUMP JUMPDEST PUSH1 0x0 PUSH3 0x343 DUP3 PUSH3 0x322 JUMP JUMPDEST SWAP1 POP SWAP2 SWAP1 POP JUMP JUMPDEST PUSH1 0x0 PUSH3 0x357 DUP3 PUSH3 0x322 JUMP JUMPDEST SWAP1 POP SWAP2 SWAP1 POP JUMP JUMPDEST PUSH1 0x0 PUSH20 0xFFFFFFFFFFFFFFFFFFFFFFFFFFFFFFFFFFFFFFFF DUP3 AND SWAP1 POP SWAP2 SWAP1 POP JUMP JUMPDEST PUSH1 0x0 DUP2 SWAP1 POP SWAP2 SWAP1 POP JUMP JUMPDEST PUSH1 0x0 DUP1 REVERT JUMPDEST PUSH3 0x398 DUP2 PUSH3 0x322 JUMP JUMPDEST DUP2 EQ PUSH3 0x3A4 JUMPI PUSH1 0x0 DUP1 REVERT JUMPDEST POP JUMP JUMPDEST PUSH3 0x3B2 DUP2 PUSH3 0x336 JUMP JUMPDEST DUP2 EQ PUSH3 0x3BE JUMPI PUSH1 0x0 DUP1 REVERT JUMPDEST POP JUMP JUMPDEST PUSH3 0x3CC DUP2 PUSH3 0x34A JUMP JUMPDEST DUP2 EQ PUSH3 0x3D8 JUMPI PUSH1 0x0 DUP1 REVERT JUMPDEST POP JUMP JUMPDEST PUSH3 0x3E6 DUP2 PUSH3 0x37E JUMP JUMPDEST DUP2 EQ PUSH3 0x3F2 JUMPI PUSH1 0x0 DUP1 REVERT JUMPDEST POP JUMP JUMPDEST PUSH2 0x3E95 DUP1 PUSH3 0x405 PUSH1 0x0 CODECOPY PUSH1 0x0 RETURN INVALID PUSH1 0x80 PUSH1 0x40 MSTORE CALLVALUE DUP1 ISZERO PUSH2 0x10 JUMPI PUSH1 0x0 DUP1 REVERT JUMPDEST POP PUSH1 0x4 CALLDATASIZE LT PUSH2 0x1FA JUMPI PUSH1 0x0 CALLDATALOAD PUSH1 0xE0 SHR DUP1 PUSH4 0x68382A21 GT PUSH2 0x11A JUMPI DUP1 PUSH4 0x93F1A40B GT PUSH2 0xAD JUMPI DUP1 PUSH4 0xD49E77CD GT PUSH2 0x7C JUMPI DUP1 PUSH4 0xD49E77CD EQ PUSH2 0x567 JUMPI DUP1 PUSH4 0xE4D09896 EQ PUSH2 0x585 JUMPI DUP1 PUSH4 0xEEAC3AE8 EQ PUSH2 0x5A3 JUMPI DUP1 PUSH4 0xF2FDE38B EQ PUSH2 0x5BF JUMPI DUP1 PUSH4 0xFDE2EC98 EQ PUSH2 0x5DB JUMPI PUSH2 0x1FA JUMP JUMPDEST DUP1 PUSH4 0x93F1A40B EQ PUSH2 0x4E0 JUMPI DUP1 PUSH4 0xA1EEF821 EQ PUSH2 0x511 JUMPI DUP1 PUSH4 0xA41FE49F EQ PUSH2 0x52F JUMPI DUP1 PUSH4 0xD0D41FE1 EQ PUSH2 0x54B JUMPI PUSH2 0x1FA JUMP JUMPDEST DUP1 PUSH4 0x7CD07E47 GT PUSH2 0xE9 JUMPI DUP1 PUSH4 0x7CD07E47 EQ PUSH2 0x456 JUMPI DUP1 PUSH4 0x8AA28550 EQ PUSH2 0x474 JUMPI DUP1 PUSH4 0x8DA5CB5B EQ PUSH2 0x492 JUMPI DUP1 PUSH4 0x8DBB1E3A EQ PUSH2 0x4B0 JUMPI PUSH2 0x1FA JUMP JUMPDEST DUP1 PUSH4 0x68382A21 EQ PUSH2 0x3E2 JUMPI DUP1 PUSH4 0x6A6D964E EQ PUSH2 0x3FE JUMPI DUP1 PUSH4 0x704CE43E EQ PUSH2 0x42E JUMPI DUP1 PUSH4 0x715018A6 EQ PUSH2 0x44C JUMPI PUSH2 0x1FA JUMP JUMPDEST DUP1 PUSH4 0x48CD4CB1 GT PUSH2 0x192 JUMPI DUP1 PUSH4 0x5FFE6146 GT PUSH2 0x161 JUMPI DUP1 PUSH4 0x5FFE6146 EQ PUSH2 0x384 JUMPI DUP1 PUSH4 0x612888F6 EQ PUSH2 0x3A0 JUMPI DUP1 PUSH4 0x630B5BA1 EQ PUSH2 0x3BC JUMPI DUP1 PUSH4 0x64482F79 EQ PUSH2 0x3C6 JUMPI PUSH2 0x1FA JUMP JUMPDEST DUP1 PUSH4 0x48CD4CB1 EQ PUSH2 0x2FE JUMPI DUP1 PUSH4 0x4F17DBAF EQ PUSH2 0x31C JUMPI DUP1 PUSH4 0x51EB05A6 EQ PUSH2 0x34C JUMPI DUP1 PUSH4 0x5312EA8E EQ PUSH2 0x368 JUMPI PUSH2 0x1FA JUMP JUMPDEST DUP1 PUSH4 0x1526FE27 GT PUSH2 0x1CE JUMPI DUP1 PUSH4 0x1526FE27 EQ PUSH2 0x273 JUMPI DUP1 PUSH4 0x17CAF6F1 EQ PUSH2 0x2A8 JUMPI DUP1 PUSH4 0x23CF3118 EQ PUSH2 0x2C6 JUMPI DUP1 PUSH4 0x454B0608 EQ PUSH2 0x2E2 JUMPI PUSH2 0x1FA JUMP JUMPDEST DUP1 PUSH3 0xAEEF8A EQ PUSH2 0x1FF JUMPI DUP1 PUSH4 0x81E3EDA EQ PUSH2 0x21B JUMPI DUP1 PUSH4 0xFE7EA17 EQ PUSH2 0x239 JUMPI DUP1 PUSH4 0x141AA0BA EQ PUSH2 0x255 JUMPI JUMPDEST PUSH1 0x0 DUP1 REVERT JUMPDEST PUSH2 0x219 PUSH1 0x4 DUP1 CALLDATASIZE SUB DUP2 ADD SWAP1 PUSH2 0x214 SWAP2 SWAP1 PUSH2 0x3210 JUMP JUMPDEST PUSH2 0x5F7 JUMP JUMPDEST STOP JUMPDEST PUSH2 0x223 PUSH2 0xC1F JUMP JUMPDEST PUSH1 0x40 MLOAD PUSH2 0x230 SWAP2 SWAP1 PUSH2 0x3797 JUMP JUMPDEST PUSH1 0x40 MLOAD DUP1 SWAP2 SUB SWAP1 RETURN JUMPDEST PUSH2 0x253 PUSH1 0x4 DUP1 CALLDATASIZE SUB DUP2 ADD SWAP1 PUSH2 0x24E SWAP2 SWAP1 PUSH2 0x3068 JUMP JUMPDEST PUSH2 0xC2C JUMP JUMPDEST STOP JUMPDEST PUSH2 0x25D PUSH2 0xCB2 JUMP JUMPDEST PUSH1 0x40 MLOAD PUSH2 0x26A SWAP2 SWAP1 PUSH2 0x3563 JUMP JUMPDEST PUSH1 0x40 MLOAD DUP1 SWAP2 SUB SWAP1 RETURN JUMPDEST PUSH2 0x28D PUSH1 0x4 DUP1 CALLDATASIZE SUB DUP2 ADD SWAP1 PUSH2 0x288 SWAP2 SWAP1 PUSH2 0x3068 JUMP JUMPDEST PUSH2 0xCD8 JUMP JUMPDEST PUSH1 0x40 MLOAD PUSH2 0x29F SWAP7 SWAP6 SWAP5 SWAP4 SWAP3 SWAP2 SWAP1 PUSH2 0x357E JUMP JUMPDEST PUSH1 0x40 MLOAD DUP1 SWAP2 SUB SWAP1 RETURN JUMPDEST PUSH2 0x2B0 PUSH2 0xD84 JUMP JUMPDEST PUSH1 0x40 MLOAD PUSH2 0x2BD SWAP2 SWAP1 PUSH2 0x3797 JUMP JUMPDEST PUSH1 0x40 MLOAD DUP1 SWAP2 SUB SWAP1 RETURN JUMPDEST PUSH2 0x2E0 PUSH1 0x4 DUP1 CALLDATASIZE SUB DUP2 ADD SWAP1 PUSH2 0x2DB SWAP2 SWAP1 PUSH2 0x303B JUMP JUMPDEST PUSH2 0xD8A JUMP JUMPDEST STOP JUMPDEST PUSH2 0x2FC PUSH1 0x4 DUP1 CALLDATASIZE SUB DUP2 ADD SWAP1 PUSH2 0x2F7 SWAP2 SWAP1 PUSH2 0x3068 JUMP JUMPDEST PUSH2 0xE4A JUMP JUMPDEST STOP JUMPDEST PUSH2 0x306 PUSH2 0x1155 JUMP JUMPDEST PUSH1 0x40 MLOAD PUSH2 0x313 SWAP2 SWAP1 PUSH2 0x3797 JUMP JUMPDEST PUSH1 0x40 MLOAD DUP1 SWAP2 SUB SWAP1 RETURN JUMPDEST PUSH2 0x336 PUSH1 0x4 DUP1 CALLDATASIZE SUB DUP2 ADD SWAP1 PUSH2 0x331 SWAP2 SWAP1 PUSH2 0x30C2 JUMP JUMPDEST PUSH2 0x115B JUMP JUMPDEST PUSH1 0x40 MLOAD PUSH2 0x343 SWAP2 SWAP1 PUSH2 0x3797 JUMP JUMPDEST PUSH1 0x40 MLOAD DUP1 SWAP2 SUB SWAP1 RETURN JUMPDEST PUSH2 0x366 PUSH1 0x4 DUP1 CALLDATASIZE SUB DUP2 ADD SWAP1 PUSH2 0x361 SWAP2 SWAP1 PUSH2 0x3068 JUMP JUMPDEST PUSH2 0x12F6 JUMP JUMPDEST STOP JUMPDEST PUSH2 0x382 PUSH1 0x4 DUP1 CALLDATASIZE SUB DUP2 ADD SWAP1 PUSH2 0x37D SWAP2 SWAP1 PUSH2 0x3068 JUMP JUMPDEST PUSH2 0x14BB JUMP JUMPDEST STOP JUMPDEST PUSH2 0x39E PUSH1 0x4 DUP1 CALLDATASIZE SUB DUP2 ADD SWAP1 PUSH2 0x399 SWAP2 SWAP1 PUSH2 0x3068 JUMP JUMPDEST PUSH2 0x15F4 JUMP JUMPDEST STOP JUMPDEST PUSH2 0x3BA PUSH1 0x4 DUP1 CALLDATASIZE SUB DUP2 ADD SWAP1 PUSH2 0x3B5 SWAP2 SWAP1 PUSH2 0x3068 JUMP JUMPDEST PUSH2 0x167A JUMP JUMPDEST STOP JUMPDEST PUSH2 0x3C4 PUSH2 0x1700 JUMP JUMPDEST STOP JUMPDEST PUSH2 0x3E0 PUSH1 0x4 DUP1 CALLDATASIZE SUB DUP2 ADD SWAP1 PUSH2 0x3DB SWAP2 SWAP1 PUSH2 0x31BD JUMP JUMPDEST PUSH2 0x1733 JUMP JUMPDEST STOP JUMPDEST PUSH2 0x3FC PUSH1 0x4 DUP1 CALLDATASIZE SUB DUP2 ADD SWAP1 PUSH2 0x3F7 SWAP2 SWAP1 PUSH2 0x3068 JUMP JUMPDEST PUSH2 0x183F JUMP JUMPDEST STOP JUMPDEST PUSH2 0x418 PUSH1 0x4 DUP1 CALLDATASIZE SUB DUP2 ADD SWAP1 PUSH2 0x413 SWAP2 SWAP1 PUSH2 0x3068 JUMP JUMPDEST PUSH2 0x1974 JUMP JUMPDEST PUSH1 0x40 MLOAD PUSH2 0x425 SWAP2 SWAP1 PUSH2 0x3797 JUMP JUMPDEST PUSH1 0x40 MLOAD DUP1 SWAP2 SUB SWAP1 RETURN JUMPDEST PUSH2 0x436 PUSH2 0x198C JUMP JUMPDEST PUSH1 0x40 MLOAD PUSH2 0x443 SWAP2 SWAP1 PUSH2 0x3797 JUMP JUMPDEST PUSH1 0x40 MLOAD DUP1 SWAP2 SUB SWAP1 RETURN JUMPDEST PUSH2 0x454 PUSH2 0x1992 JUMP JUMPDEST STOP JUMPDEST PUSH2 0x45E PUSH2 0x1A1A JUMP JUMPDEST PUSH1 0x40 MLOAD PUSH2 0x46B SWAP2 SWAP1 PUSH2 0x35DF JUMP JUMPDEST PUSH1 0x40 MLOAD DUP1 SWAP2 SUB SWAP1 RETURN JUMPDEST PUSH2 0x47C PUSH2 0x1A40 JUMP JUMPDEST PUSH1 0x40 MLOAD PUSH2 0x489 SWAP2 SWAP1 PUSH2 0x3797 JUMP JUMPDEST PUSH1 0x40 MLOAD DUP1 SWAP2 SUB SWAP1 RETURN JUMPDEST PUSH2 0x49A PUSH2 0x1A46 JUMP JUMPDEST PUSH1 0x40 MLOAD PUSH2 0x4A7 SWAP2 SWAP1 PUSH2 0x34BF JUMP JUMPDEST PUSH1 0x40 MLOAD DUP1 SWAP2 SUB SWAP1 RETURN JUMPDEST PUSH2 0x4CA PUSH1 0x4 DUP1 CALLDATASIZE SUB DUP2 ADD SWAP1 PUSH2 0x4C5 SWAP2 SWAP1 PUSH2 0x317D JUMP JUMPDEST PUSH2 0x1A6F JUMP JUMPDEST PUSH1 0x40 MLOAD PUSH2 0x4D7 SWAP2 SWAP1 PUSH2 0x3797 JUMP JUMPDEST PUSH1 0x40 MLOAD DUP1 SWAP2 SUB SWAP1 RETURN JUMPDEST PUSH2 0x4FA PUSH1 0x4 DUP1 CALLDATASIZE SUB DUP2 ADD SWAP1 PUSH2 0x4F5 SWAP2 SWAP1 PUSH2 0x30C2 JUMP JUMPDEST PUSH2 0x1AA0 JUMP JUMPDEST PUSH1 0x40 MLOAD PUSH2 0x508 SWAP3 SWAP2 SWAP1 PUSH2 0x37DB JUMP JUMPDEST PUSH1 0x40 MLOAD DUP1 SWAP2 SUB SWAP1 RETURN JUMPDEST PUSH2 0x519 PUSH2 0x1AD1 JUMP JUMPDEST PUSH1 0x40 MLOAD PUSH2 0x526 SWAP2 SWAP1 PUSH2 0x3797 JUMP JUMPDEST PUSH1 0x40 MLOAD DUP1 SWAP2 SUB SWAP1 RETURN JUMPDEST PUSH2 0x549 PUSH1 0x4 DUP1 CALLDATASIZE SUB DUP2 ADD SWAP1 PUSH2 0x544 SWAP2 SWAP1 PUSH2 0x3210 JUMP JUMPDEST PUSH2 0x1AD7 JUMP JUMPDEST STOP JUMPDEST PUSH2 0x565 PUSH1 0x4 DUP1 CALLDATASIZE SUB DUP2 ADD SWAP1 PUSH2 0x560 SWAP2 SWAP1 PUSH2 0x2FB4 JUMP JUMPDEST PUSH2 0x1F99 JUMP JUMPDEST STOP JUMPDEST PUSH2 0x56F PUSH2 0x2059 JUMP JUMPDEST PUSH1 0x40 MLOAD PUSH2 0x57C SWAP2 SWAP1 PUSH2 0x34BF JUMP JUMPDEST PUSH1 0x40 MLOAD DUP1 SWAP2 SUB SWAP1 RETURN JUMPDEST PUSH2 0x58D PUSH2 0x207F JUMP JUMPDEST PUSH1 0x40 MLOAD PUSH2 0x59A SWAP2 SWAP1 PUSH2 0x35FA JUMP JUMPDEST PUSH1 0x40 MLOAD DUP1 SWAP2 SUB SWAP1 RETURN JUMPDEST PUSH2 0x5BD PUSH1 0x4 DUP1 CALLDATASIZE SUB DUP2 ADD SWAP1 PUSH2 0x5B8 SWAP2 SWAP1 PUSH2 0x3068 JUMP JUMPDEST PUSH2 0x20A5 JUMP JUMPDEST STOP JUMPDEST PUSH2 0x5D9 PUSH1 0x4 DUP1 CALLDATASIZE SUB DUP2 ADD SWAP1 PUSH2 0x5D4 SWAP2 SWAP1 PUSH2 0x2FB4 JUMP JUMPDEST PUSH2 0x225B JUMP JUMPDEST STOP JUMPDEST PUSH2 0x5F5 PUSH1 0x4 DUP1 CALLDATASIZE SUB DUP2 ADD SWAP1 PUSH2 0x5F0 SWAP2 SWAP1 PUSH2 0x3102 JUMP JUMPDEST PUSH2 0x2353 JUMP JUMPDEST STOP JUMPDEST PUSH1 0x0 PUSH1 0x7 DUP5 DUP2 SLOAD DUP2 LT PUSH2 0x60D JUMPI PUSH2 0x60C PUSH2 0x3B0F JUMP JUMPDEST JUMPDEST SWAP1 PUSH1 0x0 MSTORE PUSH1 0x20 PUSH1 0x0 KECCAK256 SWAP1 PUSH1 0x6 MUL ADD SWAP1 POP PUSH1 0x0 PUSH1 0x8 PUSH1 0x0 DUP7 DUP2 MSTORE PUSH1 0x20 ADD SWAP1 DUP2 MSTORE PUSH1 0x20 ADD PUSH1 0x0 KECCAK256 PUSH1 0x0 CALLER PUSH20 0xFFFFFFFFFFFFFFFFFFFFFFFFFFFFFFFFFFFFFFFF AND PUSH20 0xFFFFFFFFFFFFFFFFFFFFFFFFFFFFFFFFFFFFFFFF AND DUP2 MSTORE PUSH1 0x20 ADD SWAP1 DUP2 MSTORE PUSH1 0x20 ADD PUSH1 0x0 KECCAK256 SWAP1 POP PUSH2 0x67A DUP6 PUSH2 0x12F6 JUMP JUMPDEST PUSH1 0x0 DUP2 PUSH1 0x0 ADD SLOAD GT ISZERO PUSH2 0x6E9 JUMPI PUSH1 0x0 PUSH2 0x6D1 DUP3 PUSH1 0x1 ADD SLOAD PUSH2 0x6C3 PUSH5 0xE8D4A51000 PUSH2 0x6B5 DUP8 PUSH1 0x3 ADD SLOAD DUP8 PUSH1 0x0 ADD SLOAD PUSH2 0x25A8 SWAP1 SWAP2 SWAP1 PUSH4 0xFFFFFFFF AND JUMP JUMPDEST PUSH2 0x2623 SWAP1 SWAP2 SWAP1 PUSH4 0xFFFFFFFF AND JUMP JUMPDEST PUSH2 0x266D SWAP1 SWAP2 SWAP1 PUSH4 0xFFFFFFFF AND JUMP JUMPDEST SWAP1 POP PUSH1 0x0 DUP2 GT ISZERO PUSH2 0x6E7 JUMPI PUSH2 0x6E6 CALLER DUP3 PUSH2 0x26B7 JUMP JUMPDEST JUMPDEST POP JUMPDEST PUSH1 0x0 DUP3 PUSH1 0x0 ADD PUSH1 0x0 SWAP1 SLOAD SWAP1 PUSH2 0x100 EXP SWAP1 DIV PUSH20 0xFFFFFFFFFFFFFFFFFFFFFFFFFFFFFFFFFFFFFFFF AND PUSH20 0xFFFFFFFFFFFFFFFFFFFFFFFFFFFFFFFFFFFFFFFF AND PUSH4 0xDD62ED3E ADDRESS DUP6 PUSH1 0x4 ADD PUSH1 0x0 SWAP1 SLOAD SWAP1 PUSH2 0x100 EXP SWAP1 DIV PUSH20 0xFFFFFFFFFFFFFFFFFFFFFFFFFFFFFFFFFFFFFFFF AND PUSH1 0x40 MLOAD DUP4 PUSH4 0xFFFFFFFF AND PUSH1 0xE0 SHL DUP2 MSTORE PUSH1 0x4 ADD PUSH2 0x76E SWAP3 SWAP2 SWAP1 PUSH2 0x34DA JUMP JUMPDEST PUSH1 0x20 PUSH1 0x40 MLOAD DUP1 DUP4 SUB DUP2 DUP7 DUP1 EXTCODESIZE ISZERO DUP1 ISZERO PUSH2 0x786 JUMPI PUSH1 0x0 DUP1 REVERT JUMPDEST POP GAS STATICCALL ISZERO DUP1 ISZERO PUSH2 0x79A JUMPI RETURNDATASIZE PUSH1 0x0 DUP1 RETURNDATACOPY RETURNDATASIZE PUSH1 0x0 REVERT JUMPDEST POP POP POP POP PUSH1 0x40 MLOAD RETURNDATASIZE PUSH1 0x1F NOT PUSH1 0x1F DUP3 ADD AND DUP3 ADD DUP1 PUSH1 0x40 MSTORE POP DUP2 ADD SWAP1 PUSH2 0x7BE SWAP2 SWAP1 PUSH2 0x3095 JUMP JUMPDEST GT PUSH2 0x7CD JUMPI PUSH2 0x7CC DUP6 PUSH2 0x20A5 JUMP JUMPDEST JUMPDEST PUSH1 0x0 PUSH2 0x7F8 PUSH2 0x3E8 PUSH2 0x7EA PUSH1 0xC SLOAD DUP8 PUSH2 0x25A8 SWAP1 SWAP2 SWAP1 PUSH4 0xFFFFFFFF AND JUMP JUMPDEST PUSH2 0x2623 SWAP1 SWAP2 SWAP1 PUSH4 0xFFFFFFFF AND JUMP JUMPDEST SWAP1 POP PUSH1 0x0 PUSH2 0x80F DUP3 DUP7 PUSH2 0x266D SWAP1 SWAP2 SWAP1 PUSH4 0xFFFFFFFF AND JUMP JUMPDEST SWAP1 POP PUSH2 0x862 CALLER ADDRESS DUP4 DUP8 PUSH1 0x0 ADD PUSH1 0x0 SWAP1 SLOAD SWAP1 PUSH2 0x100 EXP SWAP1 DIV PUSH20 0xFFFFFFFFFFFFFFFFFFFFFFFFFFFFFFFFFFFFFFFF AND PUSH20 0xFFFFFFFFFFFFFFFFFFFFFFFFFFFFFFFFFFFFFFFF AND PUSH2 0x281C SWAP1 SWAP4 SWAP3 SWAP2 SWAP1 PUSH4 0xFFFFFFFF AND JUMP JUMPDEST PUSH2 0x8D5 CALLER PUSH1 0x3 PUSH1 0x0 SWAP1 SLOAD SWAP1 PUSH2 0x100 EXP SWAP1 DIV PUSH20 0xFFFFFFFFFFFFFFFFFFFFFFFFFFFFFFFFFFFFFFFF AND DUP5 DUP8 PUSH1 0x0 ADD PUSH1 0x0 SWAP1 SLOAD SWAP1 PUSH2 0x100 EXP SWAP1 DIV PUSH20 0xFFFFFFFFFFFFFFFFFFFFFFFFFFFFFFFFFFFFFFFF AND PUSH20 0xFFFFFFFFFFFFFFFFFFFFFFFFFFFFFFFFFFFFFFFF AND PUSH2 0x281C SWAP1 SWAP4 SWAP3 SWAP2 SWAP1 PUSH4 0xFFFFFFFF AND JUMP JUMPDEST PUSH1 0x0 DUP7 EQ ISZERO PUSH2 0x972 JUMPI DUP4 PUSH1 0x4 ADD PUSH1 0x0 SWAP1 SLOAD SWAP1 PUSH2 0x100 EXP SWAP1 DIV PUSH20 0xFFFFFFFFFFFFFFFFFFFFFFFFFFFFFFFFFFFFFFFF AND PUSH20 0xFFFFFFFFFFFFFFFFFFFFFFFFFFFFFFFFFFFFFFFF AND PUSH4 0x41441D3B DUP3 PUSH1 0x40 MLOAD DUP3 PUSH4 0xFFFFFFFF AND PUSH1 0xE0 SHL DUP2 MSTORE PUSH1 0x4 ADD PUSH2 0x93B SWAP2 SWAP1 PUSH2 0x3797 JUMP JUMPDEST PUSH1 0x0 PUSH1 0x40 MLOAD DUP1 DUP4 SUB DUP2 PUSH1 0x0 DUP8 DUP1 EXTCODESIZE ISZERO DUP1 ISZERO PUSH2 0x955 JUMPI PUSH1 0x0 DUP1 REVERT JUMPDEST POP GAS CALL ISZERO DUP1 ISZERO PUSH2 0x969 JUMPI RETURNDATASIZE PUSH1 0x0 DUP1 RETURNDATACOPY RETURNDATASIZE PUSH1 0x0 REVERT JUMPDEST POP POP POP POP PUSH2 0xA04 JUMP JUMPDEST DUP4 PUSH1 0x4 ADD PUSH1 0x0 SWAP1 SLOAD SWAP1 PUSH2 0x100 EXP SWAP1 DIV PUSH20 0xFFFFFFFFFFFFFFFFFFFFFFFFFFFFFFFFFFFFFFFF AND PUSH20 0xFFFFFFFFFFFFFFFFFFFFFFFFFFFFFFFFFFFFFFFF AND PUSH4 0xE2BBB158 DUP8 DUP4 PUSH1 0x40 MLOAD DUP4 PUSH4 0xFFFFFFFF AND PUSH1 0xE0 SHL DUP2 MSTORE PUSH1 0x4 ADD PUSH2 0x9D1 SWAP3 SWAP2 SWAP1 PUSH2 0x37DB JUMP JUMPDEST PUSH1 0x0 PUSH1 0x40 MLOAD DUP1 DUP4 SUB DUP2 PUSH1 0x0 DUP8 DUP1 EXTCODESIZE ISZERO DUP1 ISZERO PUSH2 0x9EB JUMPI PUSH1 0x0 DUP1 REVERT JUMPDEST POP GAS CALL ISZERO DUP1 ISZERO PUSH2 0x9FF JUMPI RETURNDATASIZE PUSH1 0x0 DUP1 RETURNDATACOPY RETURNDATASIZE PUSH1 0x0 REVERT JUMPDEST POP POP POP POP JUMPDEST PUSH2 0xA1B DUP2 DUP5 PUSH1 0x0 ADD SLOAD PUSH2 0x28A5 SWAP1 SWAP2 SWAP1 PUSH4 0xFFFFFFFF AND JUMP JUMPDEST DUP4 PUSH1 0x0 ADD DUP2 SWAP1 SSTORE POP PUSH2 0xA49 DUP2 PUSH1 0xB PUSH1 0x0 DUP11 DUP2 MSTORE PUSH1 0x20 ADD SWAP1 DUP2 MSTORE PUSH1 0x20 ADD PUSH1 0x0 KECCAK256 SLOAD PUSH2 0x28A5 SWAP1 SWAP2 SWAP1 PUSH4 0xFFFFFFFF AND JUMP JUMPDEST PUSH1 0xB PUSH1 0x0 DUP10 DUP2 MSTORE PUSH1 0x20 ADD SWAP1 DUP2 MSTORE PUSH1 0x20 ADD PUSH1 0x0 KECCAK256 DUP2 SWAP1 SSTORE POP PUSH2 0xA92 PUSH5 0xE8D4A51000 PUSH2 0xA84 DUP7 PUSH1 0x3 ADD SLOAD DUP7 PUSH1 0x0 ADD SLOAD PUSH2 0x25A8 SWAP1 SWAP2 SWAP1 PUSH4 0xFFFFFFFF AND JUMP JUMPDEST PUSH2 0x2623 SWAP1 SWAP2 SWAP1 PUSH4 0xFFFFFFFF AND JUMP JUMPDEST DUP4 PUSH1 0x1 ADD DUP2 SWAP1 SSTORE POP PUSH1 0x0 DUP5 PUSH1 0x5 ADD PUSH1 0x0 SWAP1 SLOAD SWAP1 PUSH2 0x100 EXP SWAP1 DIV PUSH20 0xFFFFFFFFFFFFFFFFFFFFFFFFFFFFFFFFFFFFFFFF AND PUSH20 0xFFFFFFFFFFFFFFFFFFFFFFFFFFFFFFFFFFFFFFFF AND PUSH4 0x70A08231 ADDRESS PUSH1 0x40 MLOAD DUP3 PUSH4 0xFFFFFFFF AND PUSH1 0xE0 SHL DUP2 MSTORE PUSH1 0x4 ADD PUSH2 0xAF9 SWAP2 SWAP1 PUSH2 0x34BF JUMP JUMPDEST PUSH1 0x20 PUSH1 0x40 MLOAD DUP1 DUP4 SUB DUP2 DUP7 DUP1 EXTCODESIZE ISZERO DUP1 ISZERO PUSH2 0xB11 JUMPI PUSH1 0x0 DUP1 REVERT JUMPDEST POP GAS STATICCALL ISZERO DUP1 ISZERO PUSH2 0xB25 JUMPI RETURNDATASIZE PUSH1 0x0 DUP1 RETURNDATACOPY RETURNDATASIZE PUSH1 0x0 REVERT JUMPDEST POP POP POP POP PUSH1 0x40 MLOAD RETURNDATASIZE PUSH1 0x1F NOT PUSH1 0x1F DUP3 ADD AND DUP3 ADD DUP1 PUSH1 0x40 MSTORE POP DUP2 ADD SWAP1 PUSH2 0xB49 SWAP2 SWAP1 PUSH2 0x3095 JUMP JUMPDEST SWAP1 POP PUSH1 0x0 DUP2 GT ISZERO PUSH2 0xBC6 JUMPI PUSH2 0xBC5 PUSH1 0x3 PUSH1 0x0 SWAP1 SLOAD SWAP1 PUSH2 0x100 EXP SWAP1 DIV PUSH20 0xFFFFFFFFFFFFFFFFFFFFFFFFFFFFFFFFFFFFFFFF AND DUP3 DUP8 PUSH1 0x5 ADD PUSH1 0x0 SWAP1 SLOAD SWAP1 PUSH2 0x100 EXP SWAP1 DIV PUSH20 0xFFFFFFFFFFFFFFFFFFFFFFFFFFFFFFFFFFFFFFFF AND PUSH20 0xFFFFFFFFFFFFFFFFFFFFFFFFFFFFFFFFFFFFFFFF AND PUSH2 0x2903 SWAP1 SWAP3 SWAP2 SWAP1 PUSH4 0xFFFFFFFF AND JUMP JUMPDEST JUMPDEST DUP8 CALLER PUSH20 0xFFFFFFFFFFFFFFFFFFFFFFFFFFFFFFFFFFFFFFFF AND PUSH32 0x90890809C654F11D6E72A28FA60149770A0D11EC6C92319D6CEB2BB0A4EA1A15 DUP5 PUSH1 0x40 MLOAD PUSH2 0xC0D SWAP2 SWAP1 PUSH2 0x3797 JUMP JUMPDEST PUSH1 0x40 MLOAD DUP1 SWAP2 SUB SWAP1 LOG3 POP POP POP POP POP POP POP POP JUMP JUMPDEST PUSH1 0x0 PUSH1 0x7 DUP1 SLOAD SWAP1 POP SWAP1 POP SWAP1 JUMP JUMPDEST PUSH2 0xC34 PUSH2 0x2989 JUMP JUMPDEST PUSH20 0xFFFFFFFFFFFFFFFFFFFFFFFFFFFFFFFFFFFFFFFF AND PUSH2 0xC52 PUSH2 0x1A46 JUMP JUMPDEST PUSH20 0xFFFFFFFFFFFFFFFFFFFFFFFFFFFFFFFFFFFFFFFF AND EQ PUSH2 0xCA8 JUMPI PUSH1 0x40 MLOAD PUSH32 0x8C379A000000000000000000000000000000000000000000000000000000000 DUP2 MSTORE PUSH1 0x4 ADD PUSH2 0xC9F SWAP1 PUSH2 0x36B7 JUMP JUMPDEST PUSH1 0x40 MLOAD DUP1 SWAP2 SUB SWAP1 REVERT JUMPDEST DUP1 PUSH1 0x4 DUP2 SWAP1 SSTORE POP POP JUMP JUMPDEST PUSH1 0x2 PUSH1 0x0 SWAP1 SLOAD SWAP1 PUSH2 0x100 EXP SWAP1 DIV PUSH20 0xFFFFFFFFFFFFFFFFFFFFFFFFFFFFFFFFFFFFFFFF AND DUP2 JUMP JUMPDEST PUSH1 0x7 DUP2 DUP2 SLOAD DUP2 LT PUSH2 0xCE8 JUMPI PUSH1 0x0 DUP1 REVERT JUMPDEST SWAP1 PUSH1 0x0 MSTORE PUSH1 0x20 PUSH1 0x0 KECCAK256 SWAP1 PUSH1 0x6 MUL ADD PUSH1 0x0 SWAP2 POP SWAP1 POP DUP1 PUSH1 0x0 ADD PUSH1 0x0 SWAP1 SLOAD SWAP1 PUSH2 0x100 EXP SWAP1 DIV PUSH20 0xFFFFFFFFFFFFFFFFFFFFFFFFFFFFFFFFFFFFFFFF AND SWAP1 DUP1 PUSH1 0x1 ADD SLOAD SWAP1 DUP1 PUSH1 0x2 ADD SLOAD SWAP1 DUP1 PUSH1 0x3 ADD SLOAD SWAP1 DUP1 PUSH1 0x4 ADD PUSH1 0x0 SWAP1 SLOAD SWAP1 PUSH2 0x100 EXP SWAP1 DIV PUSH20 0xFFFFFFFFFFFFFFFFFFFFFFFFFFFFFFFFFFFFFFFF AND SWAP1 DUP1 PUSH1 0x5 ADD PUSH1 0x0 SWAP1 SLOAD SWAP1 PUSH2 0x100 EXP SWAP1 DIV PUSH20 0xFFFFFFFFFFFFFFFFFFFFFFFFFFFFFFFFFFFFFFFF AND SWAP1 POP DUP7 JUMP JUMPDEST PUSH1 0x9 SLOAD DUP2 JUMP JUMPDEST PUSH2 0xD92 PUSH2 0x2989 JUMP JUMPDEST PUSH20 0xFFFFFFFFFFFFFFFFFFFFFFFFFFFFFFFFFFFFFFFF AND PUSH2 0xDB0 PUSH2 0x1A46 JUMP JUMPDEST PUSH20 0xFFFFFFFFFFFFFFFFFFFFFFFFFFFFFFFFFFFFFFFF AND EQ PUSH2 0xE06 JUMPI PUSH1 0x40 MLOAD PUSH32 0x8C379A000000000000000000000000000000000000000000000000000000000 DUP2 MSTORE PUSH1 0x4 ADD PUSH2 0xDFD SWAP1 PUSH2 0x36B7 JUMP JUMPDEST PUSH1 0x40 MLOAD DUP1 SWAP2 SUB SWAP1 REVERT JUMPDEST DUP1 PUSH1 0x6 PUSH1 0x0 PUSH2 0x100 EXP DUP2 SLOAD DUP2 PUSH20 0xFFFFFFFFFFFFFFFFFFFFFFFFFFFFFFFFFFFFFFFF MUL NOT AND SWAP1 DUP4 PUSH20 0xFFFFFFFFFFFFFFFFFFFFFFFFFFFFFFFFFFFFFFFF AND MUL OR SWAP1 SSTORE POP POP JUMP JUMPDEST PUSH1 0x0 PUSH20 0xFFFFFFFFFFFFFFFFFFFFFFFFFFFFFFFFFFFFFFFF AND PUSH1 0x6 PUSH1 0x0 SWAP1 SLOAD SWAP1 PUSH2 0x100 EXP SWAP1 DIV PUSH20 0xFFFFFFFFFFFFFFFFFFFFFFFFFFFFFFFFFFFFFFFF AND PUSH20 0xFFFFFFFFFFFFFFFFFFFFFFFFFFFFFFFFFFFFFFFF AND EQ ISZERO PUSH2 0xEDC JUMPI PUSH1 0x40 MLOAD PUSH32 0x8C379A000000000000000000000000000000000000000000000000000000000 DUP2 MSTORE PUSH1 0x4 ADD PUSH2 0xED3 SWAP1 PUSH2 0x3777 JUMP JUMPDEST PUSH1 0x40 MLOAD DUP1 SWAP2 SUB SWAP1 REVERT JUMPDEST PUSH1 0x0 PUSH1 0x7 DUP3 DUP2 SLOAD DUP2 LT PUSH2 0xEF2 JUMPI PUSH2 0xEF1 PUSH2 0x3B0F JUMP JUMPDEST JUMPDEST SWAP1 PUSH1 0x0 MSTORE PUSH1 0x20 PUSH1 0x0 KECCAK256 SWAP1 PUSH1 0x6 MUL ADD SWAP1 POP PUSH1 0x0 DUP2 PUSH1 0x0 ADD PUSH1 0x0 SWAP1 SLOAD SWAP1 PUSH2 0x100 EXP SWAP1 DIV PUSH20 0xFFFFFFFFFFFFFFFFFFFFFFFFFFFFFFFFFFFFFFFF AND SWAP1 POP PUSH1 0x0 PUSH1 0xB PUSH1 0x0 DUP6 DUP2 MSTORE PUSH1 0x20 ADD SWAP1 DUP2 MSTORE PUSH1 0x20 ADD PUSH1 0x0 KECCAK256 SLOAD SWAP1 POP PUSH2 0xF90 PUSH1 0x6 PUSH1 0x0 SWAP1 SLOAD SWAP1 PUSH2 0x100 EXP SWAP1 DIV PUSH20 0xFFFFFFFFFFFFFFFFFFFFFFFFFFFFFFFFFFFFFFFF AND DUP3 DUP5 PUSH20 0xFFFFFFFFFFFFFFFFFFFFFFFFFFFFFFFFFFFFFFFF AND PUSH2 0x2991 SWAP1 SWAP3 SWAP2 SWAP1 PUSH4 0xFFFFFFFF AND JUMP JUMPDEST PUSH1 0x0 PUSH1 0x6 PUSH1 0x0 SWAP1 SLOAD SWAP1 PUSH2 0x100 EXP SWAP1 DIV PUSH20 0xFFFFFFFFFFFFFFFFFFFFFFFFFFFFFFFFFFFFFFFF AND PUSH20 0xFFFFFFFFFFFFFFFFFFFFFFFFFFFFFFFFFFFFFFFF AND PUSH4 0xCE5494BB DUP5 PUSH1 0x40 MLOAD DUP3 PUSH4 0xFFFFFFFF AND PUSH1 0xE0 SHL DUP2 MSTORE PUSH1 0x4 ADD PUSH2 0xFED SWAP2 SWAP1 PUSH2 0x3563 JUMP JUMPDEST PUSH1 0x20 PUSH1 0x40 MLOAD DUP1 DUP4 SUB DUP2 PUSH1 0x0 DUP8 DUP1 EXTCODESIZE ISZERO DUP1 ISZERO PUSH2 0x1007 JUMPI PUSH1 0x0 DUP1 REVERT JUMPDEST POP GAS CALL ISZERO DUP1 ISZERO PUSH2 0x101B JUMPI RETURNDATASIZE PUSH1 0x0 DUP1 RETURNDATACOPY RETURNDATASIZE PUSH1 0x0 REVERT JUMPDEST POP POP POP POP PUSH1 0x40 MLOAD RETURNDATASIZE PUSH1 0x1F NOT PUSH1 0x1F DUP3 ADD AND DUP3 ADD DUP1 PUSH1 0x40 MSTORE POP DUP2 ADD SWAP1 PUSH2 0x103F SWAP2 SWAP1 PUSH2 0x300E JUMP JUMPDEST SWAP1 POP DUP1 PUSH20 0xFFFFFFFFFFFFFFFFFFFFFFFFFFFFFFFFFFFFFFFF AND PUSH4 0x70A08231 ADDRESS PUSH1 0x40 MLOAD DUP3 PUSH4 0xFFFFFFFF AND PUSH1 0xE0 SHL DUP2 MSTORE PUSH1 0x4 ADD PUSH2 0x107A SWAP2 SWAP1 PUSH2 0x34BF JUMP JUMPDEST PUSH1 0x20 PUSH1 0x40 MLOAD DUP1 DUP4 SUB DUP2 DUP7 DUP1 EXTCODESIZE ISZERO DUP1 ISZERO PUSH2 0x1092 JUMPI PUSH1 0x0 DUP1 REVERT JUMPDEST POP GAS STATICCALL ISZERO DUP1 ISZERO PUSH2 0x10A6 JUMPI RETURNDATASIZE PUSH1 0x0 DUP1 RETURNDATACOPY RETURNDATASIZE PUSH1 0x0 REVERT JUMPDEST POP POP POP POP PUSH1 0x40 MLOAD RETURNDATASIZE PUSH1 0x1F NOT PUSH1 0x1F DUP3 ADD AND DUP3 ADD DUP1 PUSH1 0x40 MSTORE POP DUP2 ADD SWAP1 PUSH2 0x10CA SWAP2 SWAP1 PUSH2 0x3095 JUMP JUMPDEST DUP3 EQ PUSH2 0x110B JUMPI PUSH1 0x40 MLOAD PUSH32 0x8C379A000000000000000000000000000000000000000000000000000000000 DUP2 MSTORE PUSH1 0x4 ADD PUSH2 0x1102 SWAP1 PUSH2 0x3737 JUMP JUMPDEST PUSH1 0x40 MLOAD DUP1 SWAP2 SUB SWAP1 REVERT JUMPDEST DUP1 DUP5 PUSH1 0x0 ADD PUSH1 0x0 PUSH2 0x100 EXP DUP2 SLOAD DUP2 PUSH20 0xFFFFFFFFFFFFFFFFFFFFFFFFFFFFFFFFFFFFFFFF MUL NOT AND SWAP1 DUP4 PUSH20 0xFFFFFFFFFFFFFFFFFFFFFFFFFFFFFFFFFFFFFFFF AND MUL OR SWAP1 SSTORE POP POP POP POP POP POP JUMP JUMPDEST PUSH1 0xA SLOAD DUP2 JUMP JUMPDEST PUSH1 0x0 DUP1 PUSH1 0x7 DUP5 DUP2 SLOAD DUP2 LT PUSH2 0x1172 JUMPI PUSH2 0x1171 PUSH2 0x3B0F JUMP JUMPDEST JUMPDEST SWAP1 PUSH1 0x0 MSTORE PUSH1 0x20 PUSH1 0x0 KECCAK256 SWAP1 PUSH1 0x6 MUL ADD SWAP1 POP PUSH1 0x0 PUSH1 0x8 PUSH1 0x0 DUP7 DUP2 MSTORE PUSH1 0x20 ADD SWAP1 DUP2 MSTORE PUSH1 0x20 ADD PUSH1 0x0 KECCAK256 PUSH1 0x0 DUP6 PUSH20 0xFFFFFFFFFFFFFFFFFFFFFFFFFFFFFFFFFFFFFFFF AND PUSH20 0xFFFFFFFFFFFFFFFFFFFFFFFFFFFFFFFFFFFFFFFF AND DUP2 MSTORE PUSH1 0x20 ADD SWAP1 DUP2 MSTORE PUSH1 0x20 ADD PUSH1 0x0 KECCAK256 SWAP1 POP PUSH1 0x0 DUP3 PUSH1 0x3 ADD SLOAD SWAP1 POP PUSH1 0x0 PUSH1 0xB PUSH1 0x0 DUP9 DUP2 MSTORE PUSH1 0x20 ADD SWAP1 DUP2 MSTORE PUSH1 0x20 ADD PUSH1 0x0 KECCAK256 SLOAD SWAP1 POP DUP4 PUSH1 0x2 ADD SLOAD NUMBER GT DUP1 ISZERO PUSH2 0x120B JUMPI POP PUSH1 0x0 DUP2 EQ ISZERO JUMPDEST ISZERO PUSH2 0x12A6 JUMPI PUSH1 0x0 PUSH2 0x1220 DUP6 PUSH1 0x2 ADD SLOAD NUMBER PUSH2 0x1A6F JUMP JUMPDEST SWAP1 POP PUSH1 0x0 PUSH2 0x1263 PUSH1 0x9 SLOAD PUSH2 0x1255 DUP9 PUSH1 0x1 ADD SLOAD PUSH2 0x1247 PUSH1 0x4 SLOAD DUP8 PUSH2 0x25A8 SWAP1 SWAP2 SWAP1 PUSH4 0xFFFFFFFF AND JUMP JUMPDEST PUSH2 0x25A8 SWAP1 SWAP2 SWAP1 PUSH4 0xFFFFFFFF AND JUMP JUMPDEST PUSH2 0x2623 SWAP1 SWAP2 SWAP1 PUSH4 0xFFFFFFFF AND JUMP JUMPDEST SWAP1 POP PUSH2 0x12A1 PUSH2 0x1292 DUP5 PUSH2 0x1284 PUSH5 0xE8D4A51000 DUP6 PUSH2 0x25A8 SWAP1 SWAP2 SWAP1 PUSH4 0xFFFFFFFF AND JUMP JUMPDEST PUSH2 0x2623 SWAP1 SWAP2 SWAP1 PUSH4 0xFFFFFFFF AND JUMP JUMPDEST DUP6 PUSH2 0x28A5 SWAP1 SWAP2 SWAP1 PUSH4 0xFFFFFFFF AND JUMP JUMPDEST SWAP4 POP POP POP JUMPDEST PUSH2 0x12EA DUP4 PUSH1 0x1 ADD SLOAD PUSH2 0x12DC PUSH5 0xE8D4A51000 PUSH2 0x12CE DUP7 DUP9 PUSH1 0x0 ADD SLOAD PUSH2 0x25A8 SWAP1 SWAP2 SWAP1 PUSH4 0xFFFFFFFF AND JUMP JUMPDEST PUSH2 0x2623 SWAP1 SWAP2 SWAP1 PUSH4 0xFFFFFFFF AND JUMP JUMPDEST PUSH2 0x266D SWAP1 SWAP2 SWAP1 PUSH4 0xFFFFFFFF AND JUMP JUMPDEST SWAP5 POP POP POP POP POP SWAP3 SWAP2 POP POP JUMP JUMPDEST PUSH1 0x0 PUSH1 0x7 DUP3 DUP2 SLOAD DUP2 LT PUSH2 0x130C JUMPI PUSH2 0x130B PUSH2 0x3B0F JUMP JUMPDEST JUMPDEST SWAP1 PUSH1 0x0 MSTORE PUSH1 0x20 PUSH1 0x0 KECCAK256 SWAP1 PUSH1 0x6 MUL ADD SWAP1 POP DUP1 PUSH1 0x2 ADD SLOAD NUMBER GT PUSH2 0x132D JUMPI POP PUSH2 0x14B8 JUMP JUMPDEST PUSH1 0x0 PUSH1 0xB PUSH1 0x0 DUP5 DUP2 MSTORE PUSH1 0x20 ADD SWAP1 DUP2 MSTORE PUSH1 0x20 ADD PUSH1 0x0 KECCAK256 SLOAD SWAP1 POP PUSH1 0x0 DUP2 GT PUSH2 0x135D JUMPI NUMBER DUP3 PUSH1 0x2 ADD DUP2 SWAP1 SSTORE POP POP POP PUSH2 0x14B8 JUMP JUMPDEST PUSH1 0x0 PUSH2 0x136D DUP4 PUSH1 0x2 ADD SLOAD NUMBER PUSH2 0x1A6F JUMP JUMPDEST SWAP1 POP PUSH1 0x0 PUSH2 0x13B0 PUSH1 0x9 SLOAD PUSH2 0x13A2 DUP7 PUSH1 0x1 ADD SLOAD PUSH2 0x1394 PUSH1 0x4 SLOAD DUP8 PUSH2 0x25A8 SWAP1 SWAP2 SWAP1 PUSH4 0xFFFFFFFF AND JUMP JUMPDEST PUSH2 0x25A8 SWAP1 SWAP2 SWAP1 PUSH4 0xFFFFFFFF AND JUMP JUMPDEST PUSH2 0x2623 SWAP1 SWAP2 SWAP1 PUSH4 0xFFFFFFFF AND JUMP JUMPDEST SWAP1 POP PUSH1 0x2 PUSH1 0x0 SWAP1 SLOAD SWAP1 PUSH2 0x100 EXP SWAP1 DIV PUSH20 0xFFFFFFFFFFFFFFFFFFFFFFFFFFFFFFFFFFFFFFFF AND PUSH20 0xFFFFFFFFFFFFFFFFFFFFFFFFFFFFFFFFFFFFFFFF AND PUSH4 0x40C10F19 ADDRESS DUP4 PUSH1 0x40 MLOAD DUP4 PUSH4 0xFFFFFFFF AND PUSH1 0xE0 SHL DUP2 MSTORE PUSH1 0x4 ADD PUSH2 0x140F SWAP3 SWAP2 SWAP1 PUSH2 0x353A JUMP JUMPDEST PUSH1 0x20 PUSH1 0x40 MLOAD DUP1 DUP4 SUB DUP2 PUSH1 0x0 DUP8 DUP1 EXTCODESIZE ISZERO DUP1 ISZERO PUSH2 0x1429 JUMPI PUSH1 0x0 DUP1 REVERT JUMPDEST POP GAS CALL ISZERO DUP1 ISZERO PUSH2 0x143D JUMPI RETURNDATASIZE PUSH1 0x0 DUP1 RETURNDATACOPY RETURNDATASIZE PUSH1 0x0 REVERT JUMPDEST POP POP POP POP PUSH1 0x40 MLOAD RETURNDATASIZE PUSH1 0x1F NOT PUSH1 0x1F DUP3 ADD AND DUP3 ADD DUP1 PUSH1 0x40 MSTORE POP DUP2 ADD SWAP1 PUSH2 0x1461 SWAP2 SWAP1 PUSH2 0x2FE1 JUMP JUMPDEST POP PUSH2 0x14A2 PUSH2 0x148F DUP5 PUSH2 0x1481 PUSH5 0xE8D4A51000 DUP6 PUSH2 0x25A8 SWAP1 SWAP2 SWAP1 PUSH4 0xFFFFFFFF AND JUMP JUMPDEST PUSH2 0x2623 SWAP1 SWAP2 SWAP1 PUSH4 0xFFFFFFFF AND JUMP JUMPDEST DUP6 PUSH1 0x3 ADD SLOAD PUSH2 0x28A5 SWAP1 SWAP2 SWAP1 PUSH4 0xFFFFFFFF AND JUMP JUMPDEST DUP5 PUSH1 0x3 ADD DUP2 SWAP1 SSTORE POP NUMBER DUP5 PUSH1 0x2 ADD DUP2 SWAP1 SSTORE POP POP POP POP POP JUMPDEST POP JUMP JUMPDEST PUSH1 0x0 PUSH1 0x7 DUP3 DUP2 SLOAD DUP2 LT PUSH2 0x14D1 JUMPI PUSH2 0x14D0 PUSH2 0x3B0F JUMP JUMPDEST JUMPDEST SWAP1 PUSH1 0x0 MSTORE PUSH1 0x20 PUSH1 0x0 KECCAK256 SWAP1 PUSH1 0x6 MUL ADD SWAP1 POP PUSH1 0x0 PUSH1 0x8 PUSH1 0x0 DUP5 DUP2 MSTORE PUSH1 0x20 ADD SWAP1 DUP2 MSTORE PUSH1 0x20 ADD PUSH1 0x0 KECCAK256 PUSH1 0x0 CALLER PUSH20 0xFFFFFFFFFFFFFFFFFFFFFFFFFFFFFFFFFFFFFFFF AND PUSH20 0xFFFFFFFFFFFFFFFFFFFFFFFFFFFFFFFFFFFFFFFF AND DUP2 MSTORE PUSH1 0x20 ADD SWAP1 DUP2 MSTORE PUSH1 0x20 ADD PUSH1 0x0 KECCAK256 SWAP1 POP PUSH2 0x1588 CALLER DUP3 PUSH1 0x0 ADD SLOAD DUP5 PUSH1 0x0 ADD PUSH1 0x0 SWAP1 SLOAD SWAP1 PUSH2 0x100 EXP SWAP1 DIV PUSH20 0xFFFFFFFFFFFFFFFFFFFFFFFFFFFFFFFFFFFFFFFF AND PUSH20 0xFFFFFFFFFFFFFFFFFFFFFFFFFFFFFFFFFFFFFFFF AND PUSH2 0x2903 SWAP1 SWAP3 SWAP2 SWAP1 PUSH4 0xFFFFFFFF AND JUMP JUMPDEST DUP3 CALLER PUSH20 0xFFFFFFFFFFFFFFFFFFFFFFFFFFFFFFFFFFFFFFFF AND PUSH32 0xBB757047C2B5F3974FE26B7C10F732E7BCE710B0952A71082702781E62AE0595 DUP4 PUSH1 0x0 ADD SLOAD PUSH1 0x40 MLOAD PUSH2 0x15D3 SWAP2 SWAP1 PUSH2 0x3797 JUMP JUMPDEST PUSH1 0x40 MLOAD DUP1 SWAP2 SUB SWAP1 LOG3 PUSH1 0x0 DUP2 PUSH1 0x0 ADD DUP2 SWAP1 SSTORE POP PUSH1 0x0 DUP2 PUSH1 0x1 ADD DUP2 SWAP1 SSTORE POP POP POP POP JUMP JUMPDEST PUSH2 0x15FC PUSH2 0x2989 JUMP JUMPDEST PUSH20 0xFFFFFFFFFFFFFFFFFFFFFFFFFFFFFFFFFFFFFFFF AND PUSH2 0x161A PUSH2 0x1A46 JUMP JUMPDEST PUSH20 0xFFFFFFFFFFFFFFFFFFFFFFFFFFFFFFFFFFFFFFFF AND EQ PUSH2 0x1670 JUMPI PUSH1 0x40 MLOAD PUSH32 0x8C379A000000000000000000000000000000000000000000000000000000000 DUP2 MSTORE PUSH1 0x4 ADD PUSH2 0x1667 SWAP1 PUSH2 0x36B7 JUMP JUMPDEST PUSH1 0x40 MLOAD DUP1 SWAP2 SUB SWAP1 REVERT JUMPDEST DUP1 PUSH1 0x5 DUP2 SWAP1 SSTORE POP POP JUMP JUMPDEST PUSH2 0x1682 PUSH2 0x2989 JUMP JUMPDEST PUSH20 0xFFFFFFFFFFFFFFFFFFFFFFFFFFFFFFFFFFFFFFFF AND PUSH2 0x16A0 PUSH2 0x1A46 JUMP JUMPDEST PUSH20 0xFFFFFFFFFFFFFFFFFFFFFFFFFFFFFFFFFFFFFFFF AND EQ PUSH2 0x16F6 JUMPI PUSH1 0x40 MLOAD PUSH32 0x8C379A000000000000000000000000000000000000000000000000000000000 DUP2 MSTORE PUSH1 0x4 ADD PUSH2 0x16ED SWAP1 PUSH2 0x36B7 JUMP JUMPDEST PUSH1 0x40 MLOAD DUP1 SWAP2 SUB SWAP1 REVERT JUMPDEST DUP1 PUSH1 0xC DUP2 SWAP1 SSTORE POP POP JUMP JUMPDEST PUSH1 0x0 PUSH1 0x7 DUP1 SLOAD SWAP1 POP SWAP1 POP PUSH1 0x0 JUMPDEST DUP2 DUP2 LT ISZERO PUSH2 0x172F JUMPI PUSH2 0x171E DUP2 PUSH2 0x12F6 JUMP JUMPDEST DUP1 PUSH2 0x1728 SWAP1 PUSH2 0x3A68 JUMP JUMPDEST SWAP1 POP PUSH2 0x170D JUMP JUMPDEST POP POP JUMP JUMPDEST PUSH2 0x173B PUSH2 0x2989 JUMP JUMPDEST PUSH20 0xFFFFFFFFFFFFFFFFFFFFFFFFFFFFFFFFFFFFFFFF AND PUSH2 0x1759 PUSH2 0x1A46 JUMP JUMPDEST PUSH20 0xFFFFFFFFFFFFFFFFFFFFFFFFFFFFFFFFFFFFFFFF AND EQ PUSH2 0x17AF JUMPI PUSH1 0x40 MLOAD PUSH32 0x8C379A000000000000000000000000000000000000000000000000000000000 DUP2 MSTORE PUSH1 0x4 ADD PUSH2 0x17A6 SWAP1 PUSH2 0x36B7 JUMP JUMPDEST PUSH1 0x40 MLOAD DUP1 SWAP2 SUB SWAP1 REVERT JUMPDEST DUP1 ISZERO PUSH2 0x17BE JUMPI PUSH2 0x17BD PUSH2 0x1700 JUMP JUMPDEST JUMPDEST PUSH2 0x180A DUP3 PUSH2 0x17FC PUSH1 0x7 DUP7 DUP2 SLOAD DUP2 LT PUSH2 0x17D9 JUMPI PUSH2 0x17D8 PUSH2 0x3B0F JUMP JUMPDEST JUMPDEST SWAP1 PUSH1 0x0 MSTORE PUSH1 0x20 PUSH1 0x0 KECCAK256 SWAP1 PUSH1 0x6 MUL ADD PUSH1 0x1 ADD SLOAD PUSH1 0x9 SLOAD PUSH2 0x266D SWAP1 SWAP2 SWAP1 PUSH4 0xFFFFFFFF AND JUMP JUMPDEST PUSH2 0x28A5 SWAP1 SWAP2 SWAP1 PUSH4 0xFFFFFFFF AND JUMP JUMPDEST PUSH1 0x9 DUP2 SWAP1 SSTORE POP DUP2 PUSH1 0x7 DUP5 DUP2 SLOAD DUP2 LT PUSH2 0x1825 JUMPI PUSH2 0x1824 PUSH2 0x3B0F JUMP JUMPDEST JUMPDEST SWAP1 PUSH1 0x0 MSTORE PUSH1 0x20 PUSH1 0x0 KECCAK256 SWAP1 PUSH1 0x6 MUL ADD PUSH1 0x1 ADD DUP2 SWAP1 SSTORE POP POP POP POP JUMP JUMPDEST PUSH2 0x1847 PUSH2 0x2989 JUMP JUMPDEST PUSH20 0xFFFFFFFFFFFFFFFFFFFFFFFFFFFFFFFFFFFFFFFF AND PUSH2 0x1865 PUSH2 0x1A46 JUMP JUMPDEST PUSH20 0xFFFFFFFFFFFFFFFFFFFFFFFFFFFFFFFFFFFFFFFF AND EQ PUSH2 0x18BB JUMPI PUSH1 0x40 MLOAD PUSH32 0x8C379A000000000000000000000000000000000000000000000000000000000 DUP2 MSTORE PUSH1 0x4 ADD PUSH2 0x18B2 SWAP1 PUSH2 0x36B7 JUMP JUMPDEST PUSH1 0x40 MLOAD DUP1 SWAP2 SUB SWAP1 REVERT JUMPDEST PUSH1 0x0 PUSH1 0x7 DUP3 DUP2 SLOAD DUP2 LT PUSH2 0x18D1 JUMPI PUSH2 0x18D0 PUSH2 0x3B0F JUMP JUMPDEST JUMPDEST SWAP1 PUSH1 0x0 MSTORE PUSH1 0x20 PUSH1 0x0 KECCAK256 SWAP1 PUSH1 0x6 MUL ADD SWAP1 POP DUP1 PUSH1 0x4 ADD PUSH1 0x0 SWAP1 SLOAD SWAP1 PUSH2 0x100 EXP SWAP1 DIV PUSH20 0xFFFFFFFFFFFFFFFFFFFFFFFFFFFFFFFFFFFFFFFF AND PUSH20 0xFFFFFFFFFFFFFFFFFFFFFFFFFFFFFFFFFFFFFFFF AND PUSH4 0x5312EA8E DUP4 PUSH1 0x40 MLOAD DUP3 PUSH4 0xFFFFFFFF AND PUSH1 0xE0 SHL DUP2 MSTORE PUSH1 0x4 ADD PUSH2 0x193E SWAP2 SWAP1 PUSH2 0x3797 JUMP JUMPDEST PUSH1 0x0 PUSH1 0x40 MLOAD DUP1 DUP4 SUB DUP2 PUSH1 0x0 DUP8 DUP1 EXTCODESIZE ISZERO DUP1 ISZERO PUSH2 0x1958 JUMPI PUSH1 0x0 DUP1 REVERT JUMPDEST POP GAS CALL ISZERO DUP1 ISZERO PUSH2 0x196C JUMPI RETURNDATASIZE PUSH1 0x0 DUP1 RETURNDATACOPY RETURNDATASIZE PUSH1 0x0 REVERT JUMPDEST POP POP POP POP POP POP JUMP JUMPDEST PUSH1 0xB PUSH1 0x20 MSTORE DUP1 PUSH1 0x0 MSTORE PUSH1 0x40 PUSH1 0x0 KECCAK256 PUSH1 0x0 SWAP2 POP SWAP1 POP SLOAD DUP2 JUMP JUMPDEST PUSH1 0xC SLOAD DUP2 JUMP JUMPDEST PUSH2 0x199A PUSH2 0x2989 JUMP JUMPDEST PUSH20 0xFFFFFFFFFFFFFFFFFFFFFFFFFFFFFFFFFFFFFFFF AND PUSH2 0x19B8 PUSH2 0x1A46 JUMP JUMPDEST PUSH20 0xFFFFFFFFFFFFFFFFFFFFFFFFFFFFFFFFFFFFFFFF AND EQ PUSH2 0x1A0E JUMPI PUSH1 0x40 MLOAD PUSH32 0x8C379A000000000000000000000000000000000000000000000000000000000 DUP2 MSTORE PUSH1 0x4 ADD PUSH2 0x1A05 SWAP1 PUSH2 0x36B7 JUMP JUMPDEST PUSH1 0x40 MLOAD DUP1 SWAP2 SUB SWAP1 REVERT JUMPDEST PUSH2 0x1A18 PUSH1 0x0 PUSH2 0x2AEF JUMP JUMPDEST JUMP JUMPDEST PUSH1 0x6 PUSH1 0x0 SWAP1 SLOAD SWAP1 PUSH2 0x100 EXP SWAP1 DIV PUSH20 0xFFFFFFFFFFFFFFFFFFFFFFFFFFFFFFFFFFFFFFFF AND DUP2 JUMP JUMPDEST PUSH1 0x5 SLOAD DUP2 JUMP JUMPDEST PUSH1 0x0 DUP1 PUSH1 0x0 SWAP1 SLOAD SWAP1 PUSH2 0x100 EXP SWAP1 DIV PUSH20 0xFFFFFFFFFFFFFFFFFFFFFFFFFFFFFFFFFFFFFFFF AND SWAP1 POP SWAP1 JUMP JUMPDEST PUSH1 0x0 PUSH2 0x1A98 PUSH1 0x5 SLOAD PUSH2 0x1A8A DUP6 DUP6 PUSH2 0x266D SWAP1 SWAP2 SWAP1 PUSH4 0xFFFFFFFF AND JUMP JUMPDEST PUSH2 0x25A8 SWAP1 SWAP2 SWAP1 PUSH4 0xFFFFFFFF AND JUMP JUMPDEST SWAP1 POP SWAP3 SWAP2 POP POP JUMP JUMPDEST PUSH1 0x8 PUSH1 0x20 MSTORE DUP2 PUSH1 0x0 MSTORE PUSH1 0x40 PUSH1 0x0 KECCAK256 PUSH1 0x20 MSTORE DUP1 PUSH1 0x0 MSTORE PUSH1 0x40 PUSH1 0x0 KECCAK256 PUSH1 0x0 SWAP2 POP SWAP2 POP POP DUP1 PUSH1 0x0 ADD SLOAD SWAP1 DUP1 PUSH1 0x1 ADD SLOAD SWAP1 POP DUP3 JUMP JUMPDEST PUSH1 0x4 SLOAD DUP2 JUMP JUMPDEST PUSH1 0x0 PUSH1 0x7 DUP5 DUP2 SLOAD DUP2 LT PUSH2 0x1AED JUMPI PUSH2 0x1AEC PUSH2 0x3B0F JUMP JUMPDEST JUMPDEST SWAP1 PUSH1 0x0 MSTORE PUSH1 0x20 PUSH1 0x0 KECCAK256 SWAP1 PUSH1 0x6 MUL ADD SWAP1 POP PUSH1 0x0 PUSH1 0x8 PUSH1 0x0 DUP7 DUP2 MSTORE PUSH1 0x20 ADD SWAP1 DUP2 MSTORE PUSH1 0x20 ADD PUSH1 0x0 KECCAK256 PUSH1 0x0 CALLER PUSH20 0xFFFFFFFFFFFFFFFFFFFFFFFFFFFFFFFFFFFFFFFF AND PUSH20 0xFFFFFFFFFFFFFFFFFFFFFFFFFFFFFFFFFFFFFFFF AND DUP2 MSTORE PUSH1 0x20 ADD SWAP1 DUP2 MSTORE PUSH1 0x20 ADD PUSH1 0x0 KECCAK256 SWAP1 POP DUP3 DUP2 PUSH1 0x0 ADD SLOAD LT ISZERO PUSH2 0x1B98 JUMPI PUSH1 0x40 MLOAD PUSH32 0x8C379A000000000000000000000000000000000000000000000000000000000 DUP2 MSTORE PUSH1 0x4 ADD PUSH2 0x1B8F SWAP1 PUSH2 0x36F7 JUMP JUMPDEST PUSH1 0x40 MLOAD DUP1 SWAP2 SUB SWAP1 REVERT JUMPDEST PUSH2 0x1BA1 DUP6 PUSH2 0x12F6 JUMP JUMPDEST PUSH1 0x0 PUSH2 0x1BEB DUP3 PUSH1 0x1 ADD SLOAD PUSH2 0x1BDD PUSH5 0xE8D4A51000 PUSH2 0x1BCF DUP8 PUSH1 0x3 ADD SLOAD DUP8 PUSH1 0x0 ADD SLOAD PUSH2 0x25A8 SWAP1 SWAP2 SWAP1 PUSH4 0xFFFFFFFF AND JUMP JUMPDEST PUSH2 0x2623 SWAP1 SWAP2 SWAP1 PUSH4 0xFFFFFFFF AND JUMP JUMPDEST PUSH2 0x266D SWAP1 SWAP2 SWAP1 PUSH4 0xFFFFFFFF AND JUMP JUMPDEST SWAP1 POP PUSH1 0x0 DUP2 GT ISZERO PUSH2 0x1C01 JUMPI PUSH2 0x1C00 CALLER DUP3 PUSH2 0x26B7 JUMP JUMPDEST JUMPDEST PUSH2 0x1C18 DUP5 DUP4 PUSH1 0x0 ADD SLOAD PUSH2 0x266D SWAP1 SWAP2 SWAP1 PUSH4 0xFFFFFFFF AND JUMP JUMPDEST DUP3 PUSH1 0x0 ADD DUP2 SWAP1 SSTORE POP PUSH2 0x1C46 DUP5 PUSH1 0xB PUSH1 0x0 DUP10 DUP2 MSTORE PUSH1 0x20 ADD SWAP1 DUP2 MSTORE PUSH1 0x20 ADD PUSH1 0x0 KECCAK256 SLOAD PUSH2 0x266D SWAP1 SWAP2 SWAP1 PUSH4 0xFFFFFFFF AND JUMP JUMPDEST PUSH1 0xB PUSH1 0x0 DUP9 DUP2 MSTORE PUSH1 0x20 ADD SWAP1 DUP2 MSTORE PUSH1 0x20 ADD PUSH1 0x0 KECCAK256 DUP2 SWAP1 SSTORE POP PUSH2 0x1C8F PUSH5 0xE8D4A51000 PUSH2 0x1C81 DUP6 PUSH1 0x3 ADD SLOAD DUP6 PUSH1 0x0 ADD SLOAD PUSH2 0x25A8 SWAP1 SWAP2 SWAP1 PUSH4 0xFFFFFFFF AND JUMP JUMPDEST PUSH2 0x2623 SWAP1 SWAP2 SWAP1 PUSH4 0xFFFFFFFF AND JUMP JUMPDEST DUP3 PUSH1 0x1 ADD DUP2 SWAP1 SSTORE POP PUSH1 0x0 DUP6 EQ ISZERO PUSH2 0x1D34 JUMPI DUP3 PUSH1 0x4 ADD PUSH1 0x0 SWAP1 SLOAD SWAP1 PUSH2 0x100 EXP SWAP1 DIV PUSH20 0xFFFFFFFFFFFFFFFFFFFFFFFFFFFFFFFFFFFFFFFF AND PUSH20 0xFFFFFFFFFFFFFFFFFFFFFFFFFFFFFFFFFFFFFFFF AND PUSH4 0x1058D281 DUP6 PUSH1 0x40 MLOAD DUP3 PUSH4 0xFFFFFFFF AND PUSH1 0xE0 SHL DUP2 MSTORE PUSH1 0x4 ADD PUSH2 0x1CFD SWAP2 SWAP1 PUSH2 0x3797 JUMP JUMPDEST PUSH1 0x0 PUSH1 0x40 MLOAD DUP1 DUP4 SUB DUP2 PUSH1 0x0 DUP8 DUP1 EXTCODESIZE ISZERO DUP1 ISZERO PUSH2 0x1D17 JUMPI PUSH1 0x0 DUP1 REVERT JUMPDEST POP GAS CALL ISZERO DUP1 ISZERO PUSH2 0x1D2B JUMPI RETURNDATASIZE PUSH1 0x0 DUP1 RETURNDATACOPY RETURNDATASIZE PUSH1 0x0 REVERT JUMPDEST POP POP POP POP PUSH2 0x1DC6 JUMP JUMPDEST DUP3 PUSH1 0x4 ADD PUSH1 0x0 SWAP1 SLOAD SWAP1 PUSH2 0x100 EXP SWAP1 DIV PUSH20 0xFFFFFFFFFFFFFFFFFFFFFFFFFFFFFFFFFFFFFFFF AND PUSH20 0xFFFFFFFFFFFFFFFFFFFFFFFFFFFFFFFFFFFFFFFF AND PUSH4 0x441A3E70 DUP7 DUP7 PUSH1 0x40 MLOAD DUP4 PUSH4 0xFFFFFFFF AND PUSH1 0xE0 SHL DUP2 MSTORE PUSH1 0x4 ADD PUSH2 0x1D93 SWAP3 SWAP2 SWAP1 PUSH2 0x37DB JUMP JUMPDEST PUSH1 0x0 PUSH1 0x40 MLOAD DUP1 DUP4 SUB DUP2 PUSH1 0x0 DUP8 DUP1 EXTCODESIZE ISZERO DUP1 ISZERO PUSH2 0x1DAD JUMPI PUSH1 0x0 DUP1 REVERT JUMPDEST POP GAS CALL ISZERO DUP1 ISZERO PUSH2 0x1DC1 JUMPI RETURNDATASIZE PUSH1 0x0 DUP1 RETURNDATACOPY RETURNDATASIZE PUSH1 0x0 REVERT JUMPDEST POP POP POP POP JUMPDEST PUSH2 0x1E15 CALLER DUP6 DUP6 PUSH1 0x0 ADD PUSH1 0x0 SWAP1 SLOAD SWAP1 PUSH2 0x100 EXP SWAP1 DIV PUSH20 0xFFFFFFFFFFFFFFFFFFFFFFFFFFFFFFFFFFFFFFFF AND PUSH20 0xFFFFFFFFFFFFFFFFFFFFFFFFFFFFFFFFFFFFFFFF AND PUSH2 0x2903 SWAP1 SWAP3 SWAP2 SWAP1 PUSH4 0xFFFFFFFF AND JUMP JUMPDEST PUSH1 0x0 DUP4 PUSH1 0x5 ADD PUSH1 0x0 SWAP1 SLOAD SWAP1 PUSH2 0x100 EXP SWAP1 DIV PUSH20 0xFFFFFFFFFFFFFFFFFFFFFFFFFFFFFFFFFFFFFFFF AND PUSH20 0xFFFFFFFFFFFFFFFFFFFFFFFFFFFFFFFFFFFFFFFF AND PUSH4 0x70A08231 ADDRESS PUSH1 0x40 MLOAD DUP3 PUSH4 0xFFFFFFFF AND PUSH1 0xE0 SHL DUP2 MSTORE PUSH1 0x4 ADD PUSH2 0x1E74 SWAP2 SWAP1 PUSH2 0x34BF JUMP JUMPDEST PUSH1 0x20 PUSH1 0x40 MLOAD DUP1 DUP4 SUB DUP2 DUP7 DUP1 EXTCODESIZE ISZERO DUP1 ISZERO PUSH2 0x1E8C JUMPI PUSH1 0x0 DUP1 REVERT JUMPDEST POP GAS STATICCALL ISZERO DUP1 ISZERO PUSH2 0x1EA0 JUMPI RETURNDATASIZE PUSH1 0x0 DUP1 RETURNDATACOPY RETURNDATASIZE PUSH1 0x0 REVERT JUMPDEST POP POP POP POP PUSH1 0x40 MLOAD RETURNDATASIZE PUSH1 0x1F NOT PUSH1 0x1F DUP3 ADD AND DUP3 ADD DUP1 PUSH1 0x40 MSTORE POP DUP2 ADD SWAP1 PUSH2 0x1EC4 SWAP2 SWAP1 PUSH2 0x3095 JUMP JUMPDEST SWAP1 POP PUSH1 0x0 DUP2 GT ISZERO PUSH2 0x1F41 JUMPI PUSH2 0x1F40 PUSH1 0x3 PUSH1 0x0 SWAP1 SLOAD SWAP1 PUSH2 0x100 EXP SWAP1 DIV PUSH20 0xFFFFFFFFFFFFFFFFFFFFFFFFFFFFFFFFFFFFFFFF AND DUP3 DUP7 PUSH1 0x5 ADD PUSH1 0x0 SWAP1 SLOAD SWAP1 PUSH2 0x100 EXP SWAP1 DIV PUSH20 0xFFFFFFFFFFFFFFFFFFFFFFFFFFFFFFFFFFFFFFFF AND PUSH20 0xFFFFFFFFFFFFFFFFFFFFFFFFFFFFFFFFFFFFFFFF AND PUSH2 0x2903 SWAP1 SWAP3 SWAP2 SWAP1 PUSH4 0xFFFFFFFF AND JUMP JUMPDEST JUMPDEST DUP7 CALLER PUSH20 0xFFFFFFFFFFFFFFFFFFFFFFFFFFFFFFFFFFFFFFFF AND PUSH32 0xF279E6A1F5E320CCA91135676D9CB6E44CA8A08C0B88342BCDB1144F6511B568 DUP8 PUSH1 0x40 MLOAD PUSH2 0x1F88 SWAP2 SWAP1 PUSH2 0x3797 JUMP JUMPDEST PUSH1 0x40 MLOAD DUP1 SWAP2 SUB SWAP1 LOG3 POP POP POP POP POP POP POP JUMP JUMPDEST PUSH2 0x1FA1 PUSH2 0x2989 JUMP JUMPDEST PUSH20 0xFFFFFFFFFFFFFFFFFFFFFFFFFFFFFFFFFFFFFFFF AND PUSH2 0x1FBF PUSH2 0x1A46 JUMP JUMPDEST PUSH20 0xFFFFFFFFFFFFFFFFFFFFFFFFFFFFFFFFFFFFFFFF AND EQ PUSH2 0x2015 JUMPI PUSH1 0x40 MLOAD PUSH32 0x8C379A000000000000000000000000000000000000000000000000000000000 DUP2 MSTORE PUSH1 0x4 ADD PUSH2 0x200C SWAP1 PUSH2 0x36B7 JUMP JUMPDEST PUSH1 0x40 MLOAD DUP1 SWAP2 SUB SWAP1 REVERT JUMPDEST DUP1 PUSH1 0x3 PUSH1 0x0 PUSH2 0x100 EXP DUP2 SLOAD DUP2 PUSH20 0xFFFFFFFFFFFFFFFFFFFFFFFFFFFFFFFFFFFFFFFF MUL NOT AND SWAP1 DUP4 PUSH20 0xFFFFFFFFFFFFFFFFFFFFFFFFFFFFFFFFFFFFFFFF AND MUL OR SWAP1 SSTORE POP POP JUMP JUMPDEST PUSH1 0x3 PUSH1 0x0 SWAP1 SLOAD SWAP1 PUSH2 0x100 EXP SWAP1 DIV PUSH20 0xFFFFFFFFFFFFFFFFFFFFFFFFFFFFFFFFFFFFFFFF AND DUP2 JUMP JUMPDEST PUSH1 0x1 PUSH1 0x0 SWAP1 SLOAD SWAP1 PUSH2 0x100 EXP SWAP1 DIV PUSH20 0xFFFFFFFFFFFFFFFFFFFFFFFFFFFFFFFFFFFFFFFF AND DUP2 JUMP JUMPDEST PUSH1 0x0 PUSH1 0x7 DUP3 DUP2 SLOAD DUP2 LT PUSH2 0x20BB JUMPI PUSH2 0x20BA PUSH2 0x3B0F JUMP JUMPDEST JUMPDEST SWAP1 PUSH1 0x0 MSTORE PUSH1 0x20 PUSH1 0x0 KECCAK256 SWAP1 PUSH1 0x6 MUL ADD SWAP1 POP DUP1 PUSH1 0x0 ADD PUSH1 0x0 SWAP1 SLOAD SWAP1 PUSH2 0x100 EXP SWAP1 DIV PUSH20 0xFFFFFFFFFFFFFFFFFFFFFFFFFFFFFFFFFFFFFFFF AND PUSH20 0xFFFFFFFFFFFFFFFFFFFFFFFFFFFFFFFFFFFFFFFF AND PUSH4 0x95EA7B3 DUP3 PUSH1 0x4 ADD PUSH1 0x0 SWAP1 SLOAD SWAP1 PUSH2 0x100 EXP SWAP1 DIV PUSH20 0xFFFFFFFFFFFFFFFFFFFFFFFFFFFFFFFFFFFFFFFF AND PUSH1 0xD SLOAD PUSH1 0x40 MLOAD DUP4 PUSH4 0xFFFFFFFF AND PUSH1 0xE0 SHL DUP2 MSTORE PUSH1 0x4 ADD PUSH2 0x2150 SWAP3 SWAP2 SWAP1 PUSH2 0x353A JUMP JUMPDEST PUSH1 0x20 PUSH1 0x40 MLOAD DUP1 DUP4 SUB DUP2 PUSH1 0x0 DUP8 DUP1 EXTCODESIZE ISZERO DUP1 ISZERO PUSH2 0x216A JUMPI PUSH1 0x0 DUP1 REVERT JUMPDEST POP GAS CALL ISZERO DUP1 ISZERO PUSH2 0x217E JUMPI RETURNDATASIZE PUSH1 0x0 DUP1 RETURNDATACOPY RETURNDATASIZE PUSH1 0x0 REVERT JUMPDEST POP POP POP POP PUSH1 0x40 MLOAD RETURNDATASIZE PUSH1 0x1F NOT PUSH1 0x1F DUP3 ADD AND DUP3 ADD DUP1 PUSH1 0x40 MSTORE POP DUP2 ADD SWAP1 PUSH2 0x21A2 SWAP2 SWAP1 PUSH2 0x2FE1 JUMP JUMPDEST POP DUP1 PUSH1 0x5 ADD PUSH1 0x0 SWAP1 SLOAD SWAP1 PUSH2 0x100 EXP SWAP1 DIV PUSH20 0xFFFFFFFFFFFFFFFFFFFFFFFFFFFFFFFFFFFFFFFF AND PUSH20 0xFFFFFFFFFFFFFFFFFFFFFFFFFFFFFFFFFFFFFFFF AND PUSH4 0x95EA7B3 ADDRESS PUSH1 0xD SLOAD PUSH1 0x40 MLOAD DUP4 PUSH4 0xFFFFFFFF AND PUSH1 0xE0 SHL DUP2 MSTORE PUSH1 0x4 ADD PUSH2 0x2204 SWAP3 SWAP2 SWAP1 PUSH2 0x353A JUMP JUMPDEST PUSH1 0x20 PUSH1 0x40 MLOAD DUP1 DUP4 SUB DUP2 PUSH1 0x0 DUP8 DUP1 EXTCODESIZE ISZERO DUP1 ISZERO PUSH2 0x221E JUMPI PUSH1 0x0 DUP1 REVERT JUMPDEST POP GAS CALL ISZERO DUP1 ISZERO PUSH2 0x2232 JUMPI RETURNDATASIZE PUSH1 0x0 DUP1 RETURNDATACOPY RETURNDATASIZE PUSH1 0x0 REVERT JUMPDEST POP POP POP POP PUSH1 0x40 MLOAD RETURNDATASIZE PUSH1 0x1F NOT PUSH1 0x1F DUP3 ADD AND DUP3 ADD DUP1 PUSH1 0x40 MSTORE POP DUP2 ADD SWAP1 PUSH2 0x2256 SWAP2 SWAP1 PUSH2 0x2FE1 JUMP JUMPDEST POP POP POP JUMP JUMPDEST PUSH2 0x2263 PUSH2 0x2989 JUMP JUMPDEST PUSH20 0xFFFFFFFFFFFFFFFFFFFFFFFFFFFFFFFFFFFFFFFF AND PUSH2 0x2281 PUSH2 0x1A46 JUMP JUMPDEST PUSH20 0xFFFFFFFFFFFFFFFFFFFFFFFFFFFFFFFFFFFFFFFF AND EQ PUSH2 0x22D7 JUMPI PUSH1 0x40 MLOAD PUSH32 0x8C379A000000000000000000000000000000000000000000000000000000000 DUP2 MSTORE PUSH1 0x4 ADD PUSH2 0x22CE SWAP1 PUSH2 0x36B7 JUMP JUMPDEST PUSH1 0x40 MLOAD DUP1 SWAP2 SUB SWAP1 REVERT JUMPDEST PUSH1 0x0 PUSH20 0xFFFFFFFFFFFFFFFFFFFFFFFFFFFFFFFFFFFFFFFF AND DUP2 PUSH20 0xFFFFFFFFFFFFFFFFFFFFFFFFFFFFFFFFFFFFFFFF AND EQ ISZERO PUSH2 0x2347 JUMPI PUSH1 0x40 MLOAD PUSH32 0x8C379A000000000000000000000000000000000000000000000000000000000 DUP2 MSTORE PUSH1 0x4 ADD PUSH2 0x233E SWAP1 PUSH2 0x3637 JUMP JUMPDEST PUSH1 0x40 MLOAD DUP1 SWAP2 SUB SWAP1 REVERT JUMPDEST PUSH2 0x2350 DUP2 PUSH2 0x2AEF JUMP JUMPDEST POP JUMP JUMPDEST PUSH2 0x235B PUSH2 0x2989 JUMP JUMPDEST PUSH20 0xFFFFFFFFFFFFFFFFFFFFFFFFFFFFFFFFFFFFFFFF AND PUSH2 0x2379 PUSH2 0x1A46 JUMP JUMPDEST PUSH20 0xFFFFFFFFFFFFFFFFFFFFFFFFFFFFFFFFFFFFFFFF AND EQ PUSH2 0x23CF JUMPI PUSH1 0x40 MLOAD PUSH32 0x8C379A000000000000000000000000000000000000000000000000000000000 DUP2 MSTORE PUSH1 0x4 ADD PUSH2 0x23C6 SWAP1 PUSH2 0x36B7 JUMP JUMPDEST PUSH1 0x40 MLOAD DUP1 SWAP2 SUB SWAP1 REVERT JUMPDEST DUP3 ISZERO PUSH2 0x23DE JUMPI PUSH2 0x23DD PUSH2 0x1700 JUMP JUMPDEST JUMPDEST PUSH1 0x0 PUSH1 0xA SLOAD NUMBER GT PUSH2 0x23F1 JUMPI PUSH1 0xA SLOAD PUSH2 0x23F3 JUMP JUMPDEST NUMBER JUMPDEST SWAP1 POP PUSH2 0x240A DUP7 PUSH1 0x9 SLOAD PUSH2 0x28A5 SWAP1 SWAP2 SWAP1 PUSH4 0xFFFFFFFF AND JUMP JUMPDEST PUSH1 0x9 DUP2 SWAP1 SSTORE POP PUSH1 0x7 PUSH1 0x40 MLOAD DUP1 PUSH1 0xC0 ADD PUSH1 0x40 MSTORE DUP1 DUP8 PUSH20 0xFFFFFFFFFFFFFFFFFFFFFFFFFFFFFFFFFFFFFFFF AND DUP2 MSTORE PUSH1 0x20 ADD DUP9 DUP2 MSTORE PUSH1 0x20 ADD DUP4 DUP2 MSTORE PUSH1 0x20 ADD PUSH1 0x0 DUP2 MSTORE PUSH1 0x20 ADD DUP6 PUSH20 0xFFFFFFFFFFFFFFFFFFFFFFFFFFFFFFFFFFFFFFFF AND DUP2 MSTORE PUSH1 0x20 ADD DUP5 PUSH20 0xFFFFFFFFFFFFFFFFFFFFFFFFFFFFFFFFFFFFFFFF AND DUP2 MSTORE POP SWAP1 DUP1 PUSH1 0x1 DUP2 SLOAD ADD DUP1 DUP3 SSTORE DUP1 SWAP2 POP POP PUSH1 0x1 SWAP1 SUB SWAP1 PUSH1 0x0 MSTORE PUSH1 0x20 PUSH1 0x0 KECCAK256 SWAP1 PUSH1 0x6 MUL ADD PUSH1 0x0 SWAP1 SWAP2 SWAP1 SWAP2 SWAP1 SWAP2 POP PUSH1 0x0 DUP3 ADD MLOAD DUP2 PUSH1 0x0 ADD PUSH1 0x0 PUSH2 0x100 EXP DUP2 SLOAD DUP2 PUSH20 0xFFFFFFFFFFFFFFFFFFFFFFFFFFFFFFFFFFFFFFFF MUL NOT AND SWAP1 DUP4 PUSH20 0xFFFFFFFFFFFFFFFFFFFFFFFFFFFFFFFFFFFFFFFF AND MUL OR SWAP1 SSTORE POP PUSH1 0x20 DUP3 ADD MLOAD DUP2 PUSH1 0x1 ADD SSTORE PUSH1 0x40 DUP3 ADD MLOAD DUP2 PUSH1 0x2 ADD SSTORE PUSH1 0x60 DUP3 ADD MLOAD DUP2 PUSH1 0x3 ADD SSTORE PUSH1 0x80 DUP3 ADD MLOAD DUP2 PUSH1 0x4 ADD PUSH1 0x0 PUSH2 0x100 EXP DUP2 SLOAD DUP2 PUSH20 0xFFFFFFFFFFFFFFFFFFFFFFFFFFFFFFFFFFFFFFFF MUL NOT AND SWAP1 DUP4 PUSH20 0xFFFFFFFFFFFFFFFFFFFFFFFFFFFFFFFFFFFFFFFF AND MUL OR SWAP1 SSTORE POP PUSH1 0xA0 DUP3 ADD MLOAD DUP2 PUSH1 0x5 ADD PUSH1 0x0 PUSH2 0x100 EXP DUP2 SLOAD DUP2 PUSH20 0xFFFFFFFFFFFFFFFFFFFFFFFFFFFFFFFFFFFFFFFF MUL NOT AND SWAP1 DUP4 PUSH20 0xFFFFFFFFFFFFFFFFFFFFFFFFFFFFFFFFFFFFFFFF AND MUL OR SWAP1 SSTORE POP POP POP POP POP POP POP POP POP JUMP JUMPDEST PUSH1 0x0 DUP1 DUP4 EQ ISZERO PUSH2 0x25BB JUMPI PUSH1 0x0 SWAP1 POP PUSH2 0x261D JUMP JUMPDEST PUSH1 0x0 DUP3 DUP5 PUSH2 0x25C9 SWAP2 SWAP1 PUSH2 0x38BD JUMP JUMPDEST SWAP1 POP DUP3 DUP5 DUP3 PUSH2 0x25D8 SWAP2 SWAP1 PUSH2 0x388C JUMP JUMPDEST EQ PUSH2 0x2618 JUMPI PUSH1 0x40 MLOAD PUSH32 0x8C379A000000000000000000000000000000000000000000000000000000000 DUP2 MSTORE PUSH1 0x4 ADD PUSH2 0x260F SWAP1 PUSH2 0x3697 JUMP JUMPDEST PUSH1 0x40 MLOAD DUP1 SWAP2 SUB SWAP1 REVERT JUMPDEST DUP1 SWAP2 POP POP JUMPDEST SWAP3 SWAP2 POP POP JUMP JUMPDEST PUSH1 0x0 PUSH2 0x2665 DUP4 DUP4 PUSH1 0x40 MLOAD DUP1 PUSH1 0x40 ADD PUSH1 0x40 MSTORE DUP1 PUSH1 0x1A DUP2 MSTORE PUSH1 0x20 ADD PUSH32 0x536166654D6174683A206469766973696F6E206279207A65726F000000000000 DUP2 MSTORE POP PUSH2 0x2BB3 JUMP JUMPDEST SWAP1 POP SWAP3 SWAP2 POP POP JUMP JUMPDEST PUSH1 0x0 PUSH2 0x26AF DUP4 DUP4 PUSH1 0x40 MLOAD DUP1 PUSH1 0x40 ADD PUSH1 0x40 MSTORE DUP1 PUSH1 0x1E DUP2 MSTORE PUSH1 0x20 ADD PUSH32 0x536166654D6174683A207375627472616374696F6E206F766572666C6F770000 DUP2 MSTORE POP PUSH2 0x2C16 JUMP JUMPDEST SWAP1 POP SWAP3 SWAP2 POP POP JUMP JUMPDEST PUSH1 0x2 PUSH1 0x0 SWAP1 SLOAD SWAP1 PUSH2 0x100 EXP SWAP1 DIV PUSH20 0xFFFFFFFFFFFFFFFFFFFFFFFFFFFFFFFFFFFFFFFF AND PUSH20 0xFFFFFFFFFFFFFFFFFFFFFFFFFFFFFFFFFFFFFFFF AND PUSH4 0x95EA7B3 PUSH1 0x1 PUSH1 0x0 SWAP1 SLOAD SWAP1 PUSH2 0x100 EXP SWAP1 DIV PUSH20 0xFFFFFFFFFFFFFFFFFFFFFFFFFFFFFFFFFFFFFFFF AND DUP4 PUSH1 0x40 MLOAD DUP4 PUSH4 0xFFFFFFFF AND PUSH1 0xE0 SHL DUP2 MSTORE PUSH1 0x4 ADD PUSH2 0x2736 SWAP3 SWAP2 SWAP1 PUSH2 0x353A JUMP JUMPDEST PUSH1 0x20 PUSH1 0x40 MLOAD DUP1 DUP4 SUB DUP2 PUSH1 0x0 DUP8 DUP1 EXTCODESIZE ISZERO DUP1 ISZERO PUSH2 0x2750 JUMPI PUSH1 0x0 DUP1 REVERT JUMPDEST POP GAS CALL ISZERO DUP1 ISZERO PUSH2 0x2764 JUMPI RETURNDATASIZE PUSH1 0x0 DUP1 RETURNDATACOPY RETURNDATASIZE PUSH1 0x0 REVERT JUMPDEST POP POP POP POP PUSH1 0x40 MLOAD RETURNDATASIZE PUSH1 0x1F NOT PUSH1 0x1F DUP3 ADD AND DUP3 ADD DUP1 PUSH1 0x40 MSTORE POP DUP2 ADD SWAP1 PUSH2 0x2788 SWAP2 SWAP1 PUSH2 0x2FE1 JUMP JUMPDEST POP PUSH1 0x1 PUSH1 0x0 SWAP1 SLOAD SWAP1 PUSH2 0x100 EXP SWAP1 DIV PUSH20 0xFFFFFFFFFFFFFFFFFFFFFFFFFFFFFFFFFFFFFFFF AND PUSH20 0xFFFFFFFFFFFFFFFFFFFFFFFFFFFFFFFFFFFFFFFF AND PUSH4 0x849DF12C DUP3 DUP5 PUSH1 0x40 MLOAD DUP4 PUSH4 0xFFFFFFFF AND PUSH1 0xE0 SHL DUP2 MSTORE PUSH1 0x4 ADD PUSH2 0x27E6 SWAP3 SWAP2 SWAP1 PUSH2 0x37B2 JUMP JUMPDEST PUSH1 0x0 PUSH1 0x40 MLOAD DUP1 DUP4 SUB DUP2 PUSH1 0x0 DUP8 DUP1 EXTCODESIZE ISZERO DUP1 ISZERO PUSH2 0x2800 JUMPI PUSH1 0x0 DUP1 REVERT JUMPDEST POP GAS CALL ISZERO DUP1 ISZERO PUSH2 0x2814 JUMPI RETURNDATASIZE PUSH1 0x0 DUP1 RETURNDATACOPY RETURNDATASIZE PUSH1 0x0 REVERT JUMPDEST POP POP POP POP POP POP JUMP JUMPDEST PUSH2 0x289F DUP5 PUSH4 0x23B872DD PUSH1 0xE0 SHL DUP6 DUP6 DUP6 PUSH1 0x40 MLOAD PUSH1 0x24 ADD PUSH2 0x283D SWAP4 SWAP3 SWAP2 SWAP1 PUSH2 0x3503 JUMP JUMPDEST PUSH1 0x40 MLOAD PUSH1 0x20 DUP2 DUP4 SUB SUB DUP2 MSTORE SWAP1 PUSH1 0x40 MSTORE SWAP1 PUSH28 0xFFFFFFFFFFFFFFFFFFFFFFFFFFFFFFFFFFFFFFFFFFFFFFFFFFFFFFFF NOT AND PUSH1 0x20 DUP3 ADD DUP1 MLOAD PUSH28 0xFFFFFFFFFFFFFFFFFFFFFFFFFFFFFFFFFFFFFFFFFFFFFFFFFFFFFFFF DUP4 DUP2 DUP4 AND OR DUP4 MSTORE POP POP POP POP PUSH2 0x2C7A JUMP JUMPDEST POP POP POP POP JUMP JUMPDEST PUSH1 0x0 DUP1 DUP3 DUP5 PUSH2 0x28B4 SWAP2 SWAP1 PUSH2 0x3836 JUMP JUMPDEST SWAP1 POP DUP4 DUP2 LT ISZERO PUSH2 0x28F9 JUMPI PUSH1 0x40 MLOAD PUSH32 0x8C379A000000000000000000000000000000000000000000000000000000000 DUP2 MSTORE PUSH1 0x4 ADD PUSH2 0x28F0 SWAP1 PUSH2 0x3657 JUMP JUMPDEST PUSH1 0x40 MLOAD DUP1 SWAP2 SUB SWAP1 REVERT JUMPDEST DUP1 SWAP2 POP POP SWAP3 SWAP2 POP POP JUMP JUMPDEST PUSH2 0x2984 DUP4 PUSH4 0xA9059CBB PUSH1 0xE0 SHL DUP5 DUP5 PUSH1 0x40 MLOAD PUSH1 0x24 ADD PUSH2 0x2922 SWAP3 SWAP2 SWAP1 PUSH2 0x353A JUMP JUMPDEST PUSH1 0x40 MLOAD PUSH1 0x20 DUP2 DUP4 SUB SUB DUP2 MSTORE SWAP1 PUSH1 0x40 MSTORE SWAP1 PUSH28 0xFFFFFFFFFFFFFFFFFFFFFFFFFFFFFFFFFFFFFFFFFFFFFFFFFFFFFFFF NOT AND PUSH1 0x20 DUP3 ADD DUP1 MLOAD PUSH28 0xFFFFFFFFFFFFFFFFFFFFFFFFFFFFFFFFFFFFFFFFFFFFFFFFFFFFFFFF DUP4 DUP2 DUP4 AND OR DUP4 MSTORE POP POP POP POP PUSH2 0x2C7A JUMP JUMPDEST POP POP POP JUMP JUMPDEST PUSH1 0x0 CALLER SWAP1 POP SWAP1 JUMP JUMPDEST PUSH1 0x0 DUP2 EQ DUP1 PUSH2 0x2A2A JUMPI POP PUSH1 0x0 DUP4 PUSH20 0xFFFFFFFFFFFFFFFFFFFFFFFFFFFFFFFFFFFFFFFF AND PUSH4 0xDD62ED3E ADDRESS DUP6 PUSH1 0x40 MLOAD DUP4 PUSH4 0xFFFFFFFF AND PUSH1 0xE0 SHL DUP2 MSTORE PUSH1 0x4 ADD PUSH2 0x29D8 SWAP3 SWAP2 SWAP1 PUSH2 0x34DA JUMP JUMPDEST PUSH1 0x20 PUSH1 0x40 MLOAD DUP1 DUP4 SUB DUP2 DUP7 DUP1 EXTCODESIZE ISZERO DUP1 ISZERO PUSH2 0x29F0 JUMPI PUSH1 0x0 DUP1 REVERT JUMPDEST POP GAS STATICCALL ISZERO DUP1 ISZERO PUSH2 0x2A04 JUMPI RETURNDATASIZE PUSH1 0x0 DUP1 RETURNDATACOPY RETURNDATASIZE PUSH1 0x0 REVERT JUMPDEST POP POP POP POP PUSH1 0x40 MLOAD RETURNDATASIZE PUSH1 0x1F NOT PUSH1 0x1F DUP3 ADD AND DUP3 ADD DUP1 PUSH1 0x40 MSTORE POP DUP2 ADD SWAP1 PUSH2 0x2A28 SWAP2 SWAP1 PUSH2 0x3095 JUMP JUMPDEST EQ JUMPDEST PUSH2 0x2A69 JUMPI PUSH1 0x40 MLOAD PUSH32 0x8C379A000000000000000000000000000000000000000000000000000000000 DUP2 MSTORE PUSH1 0x4 ADD PUSH2 0x2A60 SWAP1 PUSH2 0x3757 JUMP JUMPDEST PUSH1 0x40 MLOAD DUP1 SWAP2 SUB SWAP1 REVERT JUMPDEST PUSH2 0x2AEA DUP4 PUSH4 0x95EA7B3 PUSH1 0xE0 SHL DUP5 DUP5 PUSH1 0x40 MLOAD PUSH1 0x24 ADD PUSH2 0x2A88 SWAP3 SWAP2 SWAP1 PUSH2 0x353A JUMP JUMPDEST PUSH1 0x40 MLOAD PUSH1 0x20 DUP2 DUP4 SUB SUB DUP2 MSTORE SWAP1 PUSH1 0x40 MSTORE SWAP1 PUSH28 0xFFFFFFFFFFFFFFFFFFFFFFFFFFFFFFFFFFFFFFFFFFFFFFFFFFFFFFFF NOT AND PUSH1 0x20 DUP3 ADD DUP1 MLOAD PUSH28 0xFFFFFFFFFFFFFFFFFFFFFFFFFFFFFFFFFFFFFFFFFFFFFFFFFFFFFFFF DUP4 DUP2 DUP4 AND OR DUP4 MSTORE POP POP POP POP PUSH2 0x2C7A JUMP JUMPDEST POP POP POP JUMP JUMPDEST PUSH1 0x0 DUP1 PUSH1 0x0 SWAP1 SLOAD SWAP1 PUSH2 0x100 EXP SWAP1 DIV PUSH20 0xFFFFFFFFFFFFFFFFFFFFFFFFFFFFFFFFFFFFFFFF AND SWAP1 POP DUP2 PUSH1 0x0 DUP1 PUSH2 0x100 EXP DUP2 SLOAD DUP2 PUSH20 0xFFFFFFFFFFFFFFFFFFFFFFFFFFFFFFFFFFFFFFFF MUL NOT AND SWAP1 DUP4 PUSH20 0xFFFFFFFFFFFFFFFFFFFFFFFFFFFFFFFFFFFFFFFF AND MUL OR SWAP1 SSTORE POP DUP2 PUSH20 0xFFFFFFFFFFFFFFFFFFFFFFFFFFFFFFFFFFFFFFFF AND DUP2 PUSH20 0xFFFFFFFFFFFFFFFFFFFFFFFFFFFFFFFFFFFFFFFF AND PUSH32 0x8BE0079C531659141344CD1FD0A4F28419497F9722A3DAAFE3B4186F6B6457E0 PUSH1 0x40 MLOAD PUSH1 0x40 MLOAD DUP1 SWAP2 SUB SWAP1 LOG3 POP POP JUMP JUMPDEST PUSH1 0x0 DUP1 DUP4 GT DUP3 SWAP1 PUSH2 0x2BFA JUMPI PUSH1 0x40 MLOAD PUSH32 0x8C379A000000000000000000000000000000000000000000000000000000000 DUP2 MSTORE PUSH1 0x4 ADD PUSH2 0x2BF1 SWAP2 SWAP1 PUSH2 0x3615 JUMP JUMPDEST PUSH1 0x40 MLOAD DUP1 SWAP2 SUB SWAP1 REVERT JUMPDEST POP PUSH1 0x0 DUP4 DUP6 PUSH2 0x2C09 SWAP2 SWAP1 PUSH2 0x388C JUMP JUMPDEST SWAP1 POP DUP1 SWAP2 POP POP SWAP4 SWAP3 POP POP POP JUMP JUMPDEST PUSH1 0x0 DUP4 DUP4 GT ISZERO DUP3 SWAP1 PUSH2 0x2C5E JUMPI PUSH1 0x40 MLOAD PUSH32 0x8C379A000000000000000000000000000000000000000000000000000000000 DUP2 MSTORE PUSH1 0x4 ADD PUSH2 0x2C55 SWAP2 SWAP1 PUSH2 0x3615 JUMP JUMPDEST PUSH1 0x40 MLOAD DUP1 SWAP2 SUB SWAP1 REVERT JUMPDEST POP PUSH1 0x0 DUP4 DUP6 PUSH2 0x2C6D SWAP2 SWAP1 PUSH2 0x3917 JUMP JUMPDEST SWAP1 POP DUP1 SWAP2 POP POP SWAP4 SWAP3 POP POP POP JUMP JUMPDEST PUSH1 0x0 PUSH2 0x2CDC DUP3 PUSH1 0x40 MLOAD DUP1 PUSH1 0x40 ADD PUSH1 0x40 MSTORE DUP1 PUSH1 0x20 DUP2 MSTORE PUSH1 0x20 ADD PUSH32 0x5361666545524332303A206C6F772D6C6576656C2063616C6C206661696C6564 DUP2 MSTORE POP DUP6 PUSH20 0xFFFFFFFFFFFFFFFFFFFFFFFFFFFFFFFFFFFFFFFF AND PUSH2 0x2D41 SWAP1 SWAP3 SWAP2 SWAP1 PUSH4 0xFFFFFFFF AND JUMP JUMPDEST SWAP1 POP PUSH1 0x0 DUP2 MLOAD GT ISZERO PUSH2 0x2D3C JUMPI DUP1 DUP1 PUSH1 0x20 ADD SWAP1 MLOAD DUP2 ADD SWAP1 PUSH2 0x2CFC SWAP2 SWAP1 PUSH2 0x2FE1 JUMP JUMPDEST PUSH2 0x2D3B JUMPI PUSH1 0x40 MLOAD PUSH32 0x8C379A000000000000000000000000000000000000000000000000000000000 DUP2 MSTORE PUSH1 0x4 ADD PUSH2 0x2D32 SWAP1 PUSH2 0x3717 JUMP JUMPDEST PUSH1 0x40 MLOAD DUP1 SWAP2 SUB SWAP1 REVERT JUMPDEST JUMPDEST POP POP POP JUMP JUMPDEST PUSH1 0x60 PUSH2 0x2D50 DUP5 DUP5 PUSH1 0x0 DUP6 PUSH2 0x2D59 JUMP JUMPDEST SWAP1 POP SWAP4 SWAP3 POP POP POP JUMP JUMPDEST PUSH1 0x60 DUP3 SELFBALANCE LT ISZERO PUSH2 0x2D9E JUMPI PUSH1 0x40 MLOAD PUSH32 0x8C379A000000000000000000000000000000000000000000000000000000000 DUP2 MSTORE PUSH1 0x4 ADD PUSH2 0x2D95 SWAP1 PUSH2 0x3677 JUMP JUMPDEST PUSH1 0x40 MLOAD DUP1 SWAP2 SUB SWAP1 REVERT JUMPDEST PUSH2 0x2DA7 DUP6 PUSH2 0x2E6D JUMP JUMPDEST PUSH2 0x2DE6 JUMPI PUSH1 0x40 MLOAD PUSH32 0x8C379A000000000000000000000000000000000000000000000000000000000 DUP2 MSTORE PUSH1 0x4 ADD PUSH2 0x2DDD SWAP1 PUSH2 0x36D7 JUMP JUMPDEST PUSH1 0x40 MLOAD DUP1 SWAP2 SUB SWAP1 REVERT JUMPDEST PUSH1 0x0 DUP1 DUP7 PUSH20 0xFFFFFFFFFFFFFFFFFFFFFFFFFFFFFFFFFFFFFFFF AND DUP6 DUP8 PUSH1 0x40 MLOAD PUSH2 0x2E0F SWAP2 SWAP1 PUSH2 0x34A8 JUMP JUMPDEST PUSH1 0x0 PUSH1 0x40 MLOAD DUP1 DUP4 SUB DUP2 DUP6 DUP8 GAS CALL SWAP3 POP POP POP RETURNDATASIZE DUP1 PUSH1 0x0 DUP2 EQ PUSH2 0x2E4C JUMPI PUSH1 0x40 MLOAD SWAP2 POP PUSH1 0x1F NOT PUSH1 0x3F RETURNDATASIZE ADD AND DUP3 ADD PUSH1 0x40 MSTORE RETURNDATASIZE DUP3 MSTORE RETURNDATASIZE PUSH1 0x0 PUSH1 0x20 DUP5 ADD RETURNDATACOPY PUSH2 0x2E51 JUMP JUMPDEST PUSH1 0x60 SWAP2 POP JUMPDEST POP SWAP2 POP SWAP2 POP PUSH2 0x2E61 DUP3 DUP3 DUP7 PUSH2 0x2E90 JUMP JUMPDEST SWAP3 POP POP POP SWAP5 SWAP4 POP POP POP POP JUMP JUMPDEST PUSH1 0x0 DUP1 DUP3 PUSH20 0xFFFFFFFFFFFFFFFFFFFFFFFFFFFFFFFFFFFFFFFF AND EXTCODESIZE GT SWAP1 POP SWAP2 SWAP1 POP JUMP JUMPDEST PUSH1 0x60 DUP4 ISZERO PUSH2 0x2EA0 JUMPI DUP3 SWAP1 POP PUSH2 0x2EF0 JUMP JUMPDEST PUSH1 0x0 DUP4 MLOAD GT ISZERO PUSH2 0x2EB3 JUMPI DUP3 MLOAD DUP1 DUP5 PUSH1 0x20 ADD REVERT JUMPDEST DUP2 PUSH1 0x40 MLOAD PUSH32 0x8C379A000000000000000000000000000000000000000000000000000000000 DUP2 MSTORE PUSH1 0x4 ADD PUSH2 0x2EE7 SWAP2 SWAP1 PUSH2 0x3615 JUMP JUMPDEST PUSH1 0x40 MLOAD DUP1 SWAP2 SUB SWAP1 REVERT JUMPDEST SWAP4 SWAP3 POP POP POP JUMP JUMPDEST PUSH1 0x0 DUP2 CALLDATALOAD SWAP1 POP PUSH2 0x2F06 DUP2 PUSH2 0x3DD5 JUMP JUMPDEST SWAP3 SWAP2 POP POP JUMP JUMPDEST PUSH1 0x0 DUP2 CALLDATALOAD SWAP1 POP PUSH2 0x2F1B DUP2 PUSH2 0x3DEC JUMP JUMPDEST SWAP3 SWAP2 POP POP JUMP JUMPDEST PUSH1 0x0 DUP2 MLOAD SWAP1 POP PUSH2 0x2F30 DUP2 PUSH2 0x3DEC JUMP JUMPDEST SWAP3 SWAP2 POP POP JUMP JUMPDEST PUSH1 0x0 DUP2 CALLDATALOAD SWAP1 POP PUSH2 0x2F45 DUP2 PUSH2 0x3E03 JUMP JUMPDEST SWAP3 SWAP2 POP POP JUMP JUMPDEST PUSH1 0x0 DUP2 MLOAD SWAP1 POP PUSH2 0x2F5A DUP2 PUSH2 0x3E03 JUMP JUMPDEST SWAP3 SWAP2 POP POP JUMP JUMPDEST PUSH1 0x0 DUP2 CALLDATALOAD SWAP1 POP PUSH2 0x2F6F DUP2 PUSH2 0x3E1A JUMP JUMPDEST SWAP3 SWAP2 POP POP JUMP JUMPDEST PUSH1 0x0 DUP2 CALLDATALOAD SWAP1 POP PUSH2 0x2F84 DUP2 PUSH2 0x3E31 JUMP JUMPDEST SWAP3 SWAP2 POP POP JUMP JUMPDEST PUSH1 0x0 DUP2 CALLDATALOAD SWAP1 POP PUSH2 0x2F99 DUP2 PUSH2 0x3E48 JUMP JUMPDEST SWAP3 SWAP2 POP POP JUMP JUMPDEST PUSH1 0x0 DUP2 MLOAD SWAP1 POP PUSH2 0x2FAE DUP2 PUSH2 0x3E48 JUMP JUMPDEST SWAP3 SWAP2 POP POP JUMP JUMPDEST PUSH1 0x0 PUSH1 0x20 DUP3 DUP5 SUB SLT ISZERO PUSH2 0x2FCA JUMPI PUSH2 0x2FC9 PUSH2 0x3B3E JUMP JUMPDEST JUMPDEST PUSH1 0x0 PUSH2 0x2FD8 DUP5 DUP3 DUP6 ADD PUSH2 0x2EF7 JUMP JUMPDEST SWAP2 POP POP SWAP3 SWAP2 POP POP JUMP JUMPDEST PUSH1 0x0 PUSH1 0x20 DUP3 DUP5 SUB SLT ISZERO PUSH2 0x2FF7 JUMPI PUSH2 0x2FF6 PUSH2 0x3B3E JUMP JUMPDEST JUMPDEST PUSH1 0x0 PUSH2 0x3005 DUP5 DUP3 DUP6 ADD PUSH2 0x2F21 JUMP JUMPDEST SWAP2 POP POP SWAP3 SWAP2 POP POP JUMP JUMPDEST PUSH1 0x0 PUSH1 0x20 DUP3 DUP5 SUB SLT ISZERO PUSH2 0x3024 JUMPI PUSH2 0x3023 PUSH2 0x3B3E JUMP JUMPDEST JUMPDEST PUSH1 0x0 PUSH2 0x3032 DUP5 DUP3 DUP6 ADD PUSH2 0x2F4B JUMP JUMPDEST SWAP2 POP POP SWAP3 SWAP2 POP POP JUMP JUMPDEST PUSH1 0x0 PUSH1 0x20 DUP3 DUP5 SUB SLT ISZERO PUSH2 0x3051 JUMPI PUSH2 0x3050 PUSH2 0x3B3E JUMP JUMPDEST JUMPDEST PUSH1 0x0 PUSH2 0x305F DUP5 DUP3 DUP6 ADD PUSH2 0x2F75 JUMP JUMPDEST SWAP2 POP POP SWAP3 SWAP2 POP POP JUMP JUMPDEST PUSH1 0x0 PUSH1 0x20 DUP3 DUP5 SUB SLT ISZERO PUSH2 0x307E JUMPI PUSH2 0x307D PUSH2 0x3B3E JUMP JUMPDEST JUMPDEST PUSH1 0x0 PUSH2 0x308C DUP5 DUP3 DUP6 ADD PUSH2 0x2F8A JUMP JUMPDEST SWAP2 POP POP SWAP3 SWAP2 POP POP JUMP JUMPDEST PUSH1 0x0 PUSH1 0x20 DUP3 DUP5 SUB SLT ISZERO PUSH2 0x30AB JUMPI PUSH2 0x30AA PUSH2 0x3B3E JUMP JUMPDEST JUMPDEST PUSH1 0x0 PUSH2 0x30B9 DUP5 DUP3 DUP6 ADD PUSH2 0x2F9F JUMP JUMPDEST SWAP2 POP POP SWAP3 SWAP2 POP POP JUMP JUMPDEST PUSH1 0x0 DUP1 PUSH1 0x40 DUP4 DUP6 SUB SLT ISZERO PUSH2 0x30D9 JUMPI PUSH2 0x30D8 PUSH2 0x3B3E JUMP JUMPDEST JUMPDEST PUSH1 0x0 PUSH2 0x30E7 DUP6 DUP3 DUP7 ADD PUSH2 0x2F8A JUMP JUMPDEST SWAP3 POP POP PUSH1 0x20 PUSH2 0x30F8 DUP6 DUP3 DUP7 ADD PUSH2 0x2EF7 JUMP JUMPDEST SWAP2 POP POP SWAP3 POP SWAP3 SWAP1 POP JUMP JUMPDEST PUSH1 0x0 DUP1 PUSH1 0x0 DUP1 PUSH1 0x0 PUSH1 0xA0 DUP7 DUP9 SUB SLT ISZERO PUSH2 0x311E JUMPI PUSH2 0x311D PUSH2 0x3B3E JUMP JUMPDEST JUMPDEST PUSH1 0x0 PUSH2 0x312C DUP9 DUP3 DUP10 ADD PUSH2 0x2F8A JUMP JUMPDEST SWAP6 POP POP PUSH1 0x20 PUSH2 0x313D DUP9 DUP3 DUP10 ADD PUSH2 0x2F36 JUMP JUMPDEST SWAP5 POP POP PUSH1 0x40 PUSH2 0x314E DUP9 DUP3 DUP10 ADD PUSH2 0x2F0C JUMP JUMPDEST SWAP4 POP POP PUSH1 0x60 PUSH2 0x315F DUP9 DUP3 DUP10 ADD PUSH2 0x2F60 JUMP JUMPDEST SWAP3 POP POP PUSH1 0x80 PUSH2 0x3170 DUP9 DUP3 DUP10 ADD PUSH2 0x2F36 JUMP JUMPDEST SWAP2 POP POP SWAP3 SWAP6 POP SWAP3 SWAP6 SWAP1 SWAP4 POP JUMP JUMPDEST PUSH1 0x0 DUP1 PUSH1 0x40 DUP4 DUP6 SUB SLT ISZERO PUSH2 0x3194 JUMPI PUSH2 0x3193 PUSH2 0x3B3E JUMP JUMPDEST JUMPDEST PUSH1 0x0 PUSH2 0x31A2 DUP6 DUP3 DUP7 ADD PUSH2 0x2F8A JUMP JUMPDEST SWAP3 POP POP PUSH1 0x20 PUSH2 0x31B3 DUP6 DUP3 DUP7 ADD PUSH2 0x2F8A JUMP JUMPDEST SWAP2 POP POP SWAP3 POP SWAP3 SWAP1 POP JUMP JUMPDEST PUSH1 0x0 DUP1 PUSH1 0x0 PUSH1 0x60 DUP5 DUP7 SUB SLT ISZERO PUSH2 0x31D6 JUMPI PUSH2 0x31D5 PUSH2 0x3B3E JUMP JUMPDEST JUMPDEST PUSH1 0x0 PUSH2 0x31E4 DUP7 DUP3 DUP8 ADD PUSH2 0x2F8A JUMP JUMPDEST SWAP4 POP POP PUSH1 0x20 PUSH2 0x31F5 DUP7 DUP3 DUP8 ADD PUSH2 0x2F8A JUMP JUMPDEST SWAP3 POP POP PUSH1 0x40 PUSH2 0x3206 DUP7 DUP3 DUP8 ADD PUSH2 0x2F0C JUMP JUMPDEST SWAP2 POP POP SWAP3 POP SWAP3 POP SWAP3 JUMP JUMPDEST PUSH1 0x0 DUP1 PUSH1 0x0 PUSH1 0x60 DUP5 DUP7 SUB SLT ISZERO PUSH2 0x3229 JUMPI PUSH2 0x3228 PUSH2 0x3B3E JUMP JUMPDEST JUMPDEST PUSH1 0x0 PUSH2 0x3237 DUP7 DUP3 DUP8 ADD PUSH2 0x2F8A JUMP JUMPDEST SWAP4 POP POP PUSH1 0x20 PUSH2 0x3248 DUP7 DUP3 DUP8 ADD PUSH2 0x2F8A JUMP JUMPDEST SWAP3 POP POP PUSH1 0x40 PUSH2 0x3259 DUP7 DUP3 DUP8 ADD PUSH2 0x2F8A JUMP JUMPDEST SWAP2 POP POP SWAP3 POP SWAP3 POP SWAP3 JUMP JUMPDEST PUSH2 0x326C DUP2 PUSH2 0x394B JUMP JUMPDEST DUP3 MSTORE POP POP JUMP JUMPDEST PUSH1 0x0 PUSH2 0x327D DUP3 PUSH2 0x3804 JUMP JUMPDEST PUSH2 0x3287 DUP2 DUP6 PUSH2 0x381A JUMP JUMPDEST SWAP4 POP PUSH2 0x3297 DUP2 DUP6 PUSH1 0x20 DUP7 ADD PUSH2 0x3A35 JUMP JUMPDEST DUP1 DUP5 ADD SWAP2 POP POP SWAP3 SWAP2 POP POP JUMP JUMPDEST PUSH2 0x32AC DUP2 PUSH2 0x39C9 JUMP JUMPDEST DUP3 MSTORE POP POP JUMP JUMPDEST PUSH2 0x32BB DUP2 PUSH2 0x39DB JUMP JUMPDEST DUP3 MSTORE POP POP JUMP JUMPDEST PUSH2 0x32CA DUP2 PUSH2 0x39ED JUMP JUMPDEST DUP3 MSTORE POP POP JUMP JUMPDEST PUSH2 0x32D9 DUP2 PUSH2 0x39FF JUMP JUMPDEST DUP3 MSTORE POP POP JUMP JUMPDEST PUSH1 0x0 PUSH2 0x32EA DUP3 PUSH2 0x380F JUMP JUMPDEST PUSH2 0x32F4 DUP2 DUP6 PUSH2 0x3825 JUMP JUMPDEST SWAP4 POP PUSH2 0x3304 DUP2 DUP6 PUSH1 0x20 DUP7 ADD PUSH2 0x3A35 JUMP JUMPDEST PUSH2 0x330D DUP2 PUSH2 0x3B43 JUMP JUMPDEST DUP5 ADD SWAP2 POP POP SWAP3 SWAP2 POP POP JUMP JUMPDEST PUSH1 0x0 PUSH2 0x3325 PUSH1 0x26 DUP4 PUSH2 0x3825 JUMP JUMPDEST SWAP2 POP PUSH2 0x3330 DUP3 PUSH2 0x3B54 JUMP JUMPDEST PUSH1 0x40 DUP3 ADD SWAP1 POP SWAP2 SWAP1 POP JUMP JUMPDEST PUSH1 0x0 PUSH2 0x3348 PUSH1 0x1B DUP4 PUSH2 0x3825 JUMP JUMPDEST SWAP2 POP PUSH2 0x3353 DUP3 PUSH2 0x3BA3 JUMP JUMPDEST PUSH1 0x20 DUP3 ADD SWAP1 POP SWAP2 SWAP1 POP JUMP JUMPDEST PUSH1 0x0 PUSH2 0x336B PUSH1 0x26 DUP4 PUSH2 0x3825 JUMP JUMPDEST SWAP2 POP PUSH2 0x3376 DUP3 PUSH2 0x3BCC JUMP JUMPDEST PUSH1 0x40 DUP3 ADD SWAP1 POP SWAP2 SWAP1 POP JUMP JUMPDEST PUSH1 0x0 PUSH2 0x338E PUSH1 0x21 DUP4 PUSH2 0x3825 JUMP JUMPDEST SWAP2 POP PUSH2 0x3399 DUP3 PUSH2 0x3C1B JUMP JUMPDEST PUSH1 0x40 DUP3 ADD SWAP1 POP SWAP2 SWAP1 POP JUMP JUMPDEST PUSH1 0x0 PUSH2 0x33B1 PUSH1 0x20 DUP4 PUSH2 0x3825 JUMP JUMPDEST SWAP2 POP PUSH2 0x33BC DUP3 PUSH2 0x3C6A JUMP JUMPDEST PUSH1 0x20 DUP3 ADD SWAP1 POP SWAP2 SWAP1 POP JUMP JUMPDEST PUSH1 0x0 PUSH2 0x33D4 PUSH1 0x1D DUP4 PUSH2 0x3825 JUMP JUMPDEST SWAP2 POP PUSH2 0x33DF DUP3 PUSH2 0x3C93 JUMP JUMPDEST PUSH1 0x20 DUP3 ADD SWAP1 POP SWAP2 SWAP1 POP JUMP JUMPDEST PUSH1 0x0 PUSH2 0x33F7 PUSH1 0x12 DUP4 PUSH2 0x3825 JUMP JUMPDEST SWAP2 POP PUSH2 0x3402 DUP3 PUSH2 0x3CBC JUMP JUMPDEST PUSH1 0x20 DUP3 ADD SWAP1 POP SWAP2 SWAP1 POP JUMP JUMPDEST PUSH1 0x0 PUSH2 0x341A PUSH1 0x2A DUP4 PUSH2 0x3825 JUMP JUMPDEST SWAP2 POP PUSH2 0x3425 DUP3 PUSH2 0x3CE5 JUMP JUMPDEST PUSH1 0x40 DUP3 ADD SWAP1 POP SWAP2 SWAP1 POP JUMP JUMPDEST PUSH1 0x0 PUSH2 0x343D PUSH1 0xC DUP4 PUSH2 0x3825 JUMP JUMPDEST SWAP2 POP PUSH2 0x3448 DUP3 PUSH2 0x3D34 JUMP JUMPDEST PUSH1 0x20 DUP3 ADD SWAP1 POP SWAP2 SWAP1 POP JUMP JUMPDEST PUSH1 0x0 PUSH2 0x3460 PUSH1 0x36 DUP4 PUSH2 0x3825 JUMP JUMPDEST SWAP2 POP PUSH2 0x346B DUP3 PUSH2 0x3D5D JUMP JUMPDEST PUSH1 0x40 DUP3 ADD SWAP1 POP SWAP2 SWAP1 POP JUMP JUMPDEST PUSH1 0x0 PUSH2 0x3483 PUSH1 0x14 DUP4 PUSH2 0x3825 JUMP JUMPDEST SWAP2 POP PUSH2 0x348E DUP3 PUSH2 0x3DAC JUMP JUMPDEST PUSH1 0x20 DUP3 ADD SWAP1 POP SWAP2 SWAP1 POP JUMP JUMPDEST PUSH2 0x34A2 DUP2 PUSH2 0x39BF JUMP JUMPDEST DUP3 MSTORE POP POP JUMP JUMPDEST PUSH1 0x0 PUSH2 0x34B4 DUP3 DUP5 PUSH2 0x3272 JUMP JUMPDEST SWAP2 POP DUP2 SWAP1 POP SWAP3 SWAP2 POP POP JUMP JUMPDEST PUSH1 0x0 PUSH1 0x20 DUP3 ADD SWAP1 POP PUSH2 0x34D4 PUSH1 0x0 DUP4 ADD DUP5 PUSH2 0x3263 JUMP JUMPDEST SWAP3 SWAP2 POP POP JUMP JUMPDEST PUSH1 0x0 PUSH1 0x40 DUP3 ADD SWAP1 POP PUSH2 0x34EF PUSH1 0x0 DUP4 ADD DUP6 PUSH2 0x3263 JUMP JUMPDEST PUSH2 0x34FC PUSH1 0x20 DUP4 ADD DUP5 PUSH2 0x3263 JUMP JUMPDEST SWAP4 SWAP3 POP POP POP JUMP JUMPDEST PUSH1 0x0 PUSH1 0x60 DUP3 ADD SWAP1 POP PUSH2 0x3518 PUSH1 0x0 DUP4 ADD DUP7 PUSH2 0x3263 JUMP JUMPDEST PUSH2 0x3525 PUSH1 0x20 DUP4 ADD DUP6 PUSH2 0x3263 JUMP JUMPDEST PUSH2 0x3532 PUSH1 0x40 DUP4 ADD DUP5 PUSH2 0x3499 JUMP JUMPDEST SWAP5 SWAP4 POP POP POP POP JUMP JUMPDEST PUSH1 0x0 PUSH1 0x40 DUP3 ADD SWAP1 POP PUSH2 0x354F PUSH1 0x0 DUP4 ADD DUP6 PUSH2 0x3263 JUMP JUMPDEST PUSH2 0x355C PUSH1 0x20 DUP4 ADD DUP5 PUSH2 0x3499 JUMP JUMPDEST SWAP4 SWAP3 POP POP POP JUMP JUMPDEST PUSH1 0x0 PUSH1 0x20 DUP3 ADD SWAP1 POP PUSH2 0x3578 PUSH1 0x0 DUP4 ADD DUP5 PUSH2 0x32A3 JUMP JUMPDEST SWAP3 SWAP2 POP POP JUMP JUMPDEST PUSH1 0x0 PUSH1 0xC0 DUP3 ADD SWAP1 POP PUSH2 0x3593 PUSH1 0x0 DUP4 ADD DUP10 PUSH2 0x32A3 JUMP JUMPDEST PUSH2 0x35A0 PUSH1 0x20 DUP4 ADD DUP9 PUSH2 0x3499 JUMP JUMPDEST PUSH2 0x35AD PUSH1 0x40 DUP4 ADD DUP8 PUSH2 0x3499 JUMP JUMPDEST PUSH2 0x35BA PUSH1 0x60 DUP4 ADD DUP7 PUSH2 0x3499 JUMP JUMPDEST PUSH2 0x35C7 PUSH1 0x80 DUP4 ADD DUP6 PUSH2 0x32B2 JUMP JUMPDEST PUSH2 0x35D4 PUSH1 0xA0 DUP4 ADD DUP5 PUSH2 0x32A3 JUMP JUMPDEST SWAP8 SWAP7 POP POP POP POP POP POP POP JUMP JUMPDEST PUSH1 0x0 PUSH1 0x20 DUP3 ADD SWAP1 POP PUSH2 0x35F4 PUSH1 0x0 DUP4 ADD DUP5 PUSH2 0x32C1 JUMP JUMPDEST SWAP3 SWAP2 POP POP JUMP JUMPDEST PUSH1 0x0 PUSH1 0x20 DUP3 ADD SWAP1 POP PUSH2 0x360F PUSH1 0x0 DUP4 ADD DUP5 PUSH2 0x32D0 JUMP JUMPDEST SWAP3 SWAP2 POP POP JUMP JUMPDEST PUSH1 0x0 PUSH1 0x20 DUP3 ADD SWAP1 POP DUP2 DUP2 SUB PUSH1 0x0 DUP4 ADD MSTORE PUSH2 0x362F DUP2 DUP5 PUSH2 0x32DF JUMP JUMPDEST SWAP1 POP SWAP3 SWAP2 POP POP JUMP JUMPDEST PUSH1 0x0 PUSH1 0x20 DUP3 ADD SWAP1 POP DUP2 DUP2 SUB PUSH1 0x0 DUP4 ADD MSTORE PUSH2 0x3650 DUP2 PUSH2 0x3318 JUMP JUMPDEST SWAP1 POP SWAP2 SWAP1 POP JUMP JUMPDEST PUSH1 0x0 PUSH1 0x20 DUP3 ADD SWAP1 POP DUP2 DUP2 SUB PUSH1 0x0 DUP4 ADD MSTORE PUSH2 0x3670 DUP2 PUSH2 0x333B JUMP JUMPDEST SWAP1 POP SWAP2 SWAP1 POP JUMP JUMPDEST PUSH1 0x0 PUSH1 0x20 DUP3 ADD SWAP1 POP DUP2 DUP2 SUB PUSH1 0x0 DUP4 ADD MSTORE PUSH2 0x3690 DUP2 PUSH2 0x335E JUMP JUMPDEST SWAP1 POP SWAP2 SWAP1 POP JUMP JUMPDEST PUSH1 0x0 PUSH1 0x20 DUP3 ADD SWAP1 POP DUP2 DUP2 SUB PUSH1 0x0 DUP4 ADD MSTORE PUSH2 0x36B0 DUP2 PUSH2 0x3381 JUMP JUMPDEST SWAP1 POP SWAP2 SWAP1 POP JUMP JUMPDEST PUSH1 0x0 PUSH1 0x20 DUP3 ADD SWAP1 POP DUP2 DUP2 SUB PUSH1 0x0 DUP4 ADD MSTORE PUSH2 0x36D0 DUP2 PUSH2 0x33A4 JUMP JUMPDEST SWAP1 POP SWAP2 SWAP1 POP JUMP JUMPDEST PUSH1 0x0 PUSH1 0x20 DUP3 ADD SWAP1 POP DUP2 DUP2 SUB PUSH1 0x0 DUP4 ADD MSTORE PUSH2 0x36F0 DUP2 PUSH2 0x33C7 JUMP JUMPDEST SWAP1 POP SWAP2 SWAP1 POP JUMP JUMPDEST PUSH1 0x0 PUSH1 0x20 DUP3 ADD SWAP1 POP DUP2 DUP2 SUB PUSH1 0x0 DUP4 ADD MSTORE PUSH2 0x3710 DUP2 PUSH2 0x33EA JUMP JUMPDEST SWAP1 POP SWAP2 SWAP1 POP JUMP JUMPDEST PUSH1 0x0 PUSH1 0x20 DUP3 ADD SWAP1 POP DUP2 DUP2 SUB PUSH1 0x0 DUP4 ADD MSTORE PUSH2 0x3730 DUP2 PUSH2 0x340D JUMP JUMPDEST SWAP1 POP SWAP2 SWAP1 POP JUMP JUMPDEST PUSH1 0x0 PUSH1 0x20 DUP3 ADD SWAP1 POP DUP2 DUP2 SUB PUSH1 0x0 DUP4 ADD MSTORE PUSH2 0x3750 DUP2 PUSH2 0x3430 JUMP JUMPDEST SWAP1 POP SWAP2 SWAP1 POP JUMP JUMPDEST PUSH1 0x0 PUSH1 0x20 DUP3 ADD SWAP1 POP DUP2 DUP2 SUB PUSH1 0x0 DUP4 ADD MSTORE PUSH2 0x3770 DUP2 PUSH2 0x3453 JUMP JUMPDEST SWAP1 POP SWAP2 SWAP1 POP JUMP JUMPDEST PUSH1 0x0 PUSH1 0x20 DUP3 ADD SWAP1 POP DUP2 DUP2 SUB PUSH1 0x0 DUP4 ADD MSTORE PUSH2 0x3790 DUP2 PUSH2 0x3476 JUMP JUMPDEST SWAP1 POP SWAP2 SWAP1 POP JUMP JUMPDEST PUSH1 0x0 PUSH1 0x20 DUP3 ADD SWAP1 POP PUSH2 0x37AC PUSH1 0x0 DUP4 ADD DUP5 PUSH2 0x3499 JUMP JUMPDEST SWAP3 SWAP2 POP POP JUMP JUMPDEST PUSH1 0x0 PUSH1 0x40 DUP3 ADD SWAP1 POP PUSH2 0x37C7 PUSH1 0x0 DUP4 ADD DUP6 PUSH2 0x3499 JUMP JUMPDEST PUSH2 0x37D4 PUSH1 0x20 DUP4 ADD DUP5 PUSH2 0x3263 JUMP JUMPDEST SWAP4 SWAP3 POP POP POP JUMP JUMPDEST PUSH1 0x0 PUSH1 0x40 DUP3 ADD SWAP1 POP PUSH2 0x37F0 PUSH1 0x0 DUP4 ADD DUP6 PUSH2 0x3499 JUMP JUMPDEST PUSH2 0x37FD PUSH1 0x20 DUP4 ADD DUP5 PUSH2 0x3499 JUMP JUMPDEST SWAP4 SWAP3 POP POP POP JUMP JUMPDEST PUSH1 0x0 DUP2 MLOAD SWAP1 POP SWAP2 SWAP1 POP JUMP JUMPDEST PUSH1 0x0 DUP2 MLOAD SWAP1 POP SWAP2 SWAP1 POP JUMP JUMPDEST PUSH1 0x0 DUP2 SWAP1 POP SWAP3 SWAP2 POP POP JUMP JUMPDEST PUSH1 0x0 DUP3 DUP3 MSTORE PUSH1 0x20 DUP3 ADD SWAP1 POP SWAP3 SWAP2 POP POP JUMP JUMPDEST PUSH1 0x0 PUSH2 0x3841 DUP3 PUSH2 0x39BF JUMP JUMPDEST SWAP2 POP PUSH2 0x384C DUP4 PUSH2 0x39BF JUMP JUMPDEST SWAP3 POP DUP3 PUSH32 0xFFFFFFFFFFFFFFFFFFFFFFFFFFFFFFFFFFFFFFFFFFFFFFFFFFFFFFFFFFFFFFFF SUB DUP3 GT ISZERO PUSH2 0x3881 JUMPI PUSH2 0x3880 PUSH2 0x3AB1 JUMP JUMPDEST JUMPDEST DUP3 DUP3 ADD SWAP1 POP SWAP3 SWAP2 POP POP JUMP JUMPDEST PUSH1 0x0 PUSH2 0x3897 DUP3 PUSH2 0x39BF JUMP JUMPDEST SWAP2 POP PUSH2 0x38A2 DUP4 PUSH2 0x39BF JUMP JUMPDEST SWAP3 POP DUP3 PUSH2 0x38B2 JUMPI PUSH2 0x38B1 PUSH2 0x3AE0 JUMP JUMPDEST JUMPDEST DUP3 DUP3 DIV SWAP1 POP SWAP3 SWAP2 POP POP JUMP JUMPDEST PUSH1 0x0 PUSH2 0x38C8 DUP3 PUSH2 0x39BF JUMP JUMPDEST SWAP2 POP PUSH2 0x38D3 DUP4 PUSH2 0x39BF JUMP JUMPDEST SWAP3 POP DUP2 PUSH32 0xFFFFFFFFFFFFFFFFFFFFFFFFFFFFFFFFFFFFFFFFFFFFFFFFFFFFFFFFFFFFFFFF DIV DUP4 GT DUP3 ISZERO ISZERO AND ISZERO PUSH2 0x390C JUMPI PUSH2 0x390B PUSH2 0x3AB1 JUMP JUMPDEST JUMPDEST DUP3 DUP3 MUL SWAP1 POP SWAP3 SWAP2 POP POP JUMP JUMPDEST PUSH1 0x0 PUSH2 0x3922 DUP3 PUSH2 0x39BF JUMP JUMPDEST SWAP2 POP PUSH2 0x392D DUP4 PUSH2 0x39BF JUMP JUMPDEST SWAP3 POP DUP3 DUP3 LT ISZERO PUSH2 0x3940 JUMPI PUSH2 0x393F PUSH2 0x3AB1 JUMP JUMPDEST JUMPDEST DUP3 DUP3 SUB SWAP1 POP SWAP3 SWAP2 POP POP JUMP JUMPDEST PUSH1 0x0 PUSH2 0x3956 DUP3 PUSH2 0x399F JUMP JUMPDEST SWAP1 POP SWAP2 SWAP1 POP JUMP JUMPDEST PUSH1 0x0 DUP2 ISZERO ISZERO SWAP1 POP SWAP2 SWAP1 POP JUMP JUMPDEST PUSH1 0x0 PUSH2 0x3974 DUP3 PUSH2 0x394B JUMP JUMPDEST SWAP1 POP SWAP2 SWAP1 POP JUMP JUMPDEST PUSH1 0x0 PUSH2 0x3986 DUP3 PUSH2 0x394B JUMP JUMPDEST SWAP1 POP SWAP2 SWAP1 POP JUMP JUMPDEST PUSH1 0x0 PUSH2 0x3998 DUP3 PUSH2 0x394B JUMP JUMPDEST SWAP1 POP SWAP2 SWAP1 POP JUMP JUMPDEST PUSH1 0x0 PUSH20 0xFFFFFFFFFFFFFFFFFFFFFFFFFFFFFFFFFFFFFFFF DUP3 AND SWAP1 POP SWAP2 SWAP1 POP JUMP JUMPDEST PUSH1 0x0 DUP2 SWAP1 POP SWAP2 SWAP1 POP JUMP JUMPDEST PUSH1 0x0 PUSH2 0x39D4 DUP3 PUSH2 0x3A11 JUMP JUMPDEST SWAP1 POP SWAP2 SWAP1 POP JUMP JUMPDEST PUSH1 0x0 PUSH2 0x39E6 DUP3 PUSH2 0x3A11 JUMP JUMPDEST SWAP1 POP SWAP2 SWAP1 POP JUMP JUMPDEST PUSH1 0x0 PUSH2 0x39F8 DUP3 PUSH2 0x3A11 JUMP JUMPDEST SWAP1 POP SWAP2 SWAP1 POP JUMP JUMPDEST PUSH1 0x0 PUSH2 0x3A0A DUP3 PUSH2 0x3A11 JUMP JUMPDEST SWAP1 POP SWAP2 SWAP1 POP JUMP JUMPDEST PUSH1 0x0 PUSH2 0x3A1C DUP3 PUSH2 0x3A23 JUMP JUMPDEST SWAP1 POP SWAP2 SWAP1 POP JUMP JUMPDEST PUSH1 0x0 PUSH2 0x3A2E DUP3 PUSH2 0x399F JUMP JUMPDEST SWAP1 POP SWAP2 SWAP1 POP JUMP JUMPDEST PUSH1 0x0 JUMPDEST DUP4 DUP2 LT ISZERO PUSH2 0x3A53 JUMPI DUP1 DUP3 ADD MLOAD DUP2 DUP5 ADD MSTORE PUSH1 0x20 DUP2 ADD SWAP1 POP PUSH2 0x3A38 JUMP JUMPDEST DUP4 DUP2 GT ISZERO PUSH2 0x3A62 JUMPI PUSH1 0x0 DUP5 DUP5 ADD MSTORE JUMPDEST POP POP POP POP JUMP JUMPDEST PUSH1 0x0 PUSH2 0x3A73 DUP3 PUSH2 0x39BF JUMP JUMPDEST SWAP2 POP PUSH32 0xFFFFFFFFFFFFFFFFFFFFFFFFFFFFFFFFFFFFFFFFFFFFFFFFFFFFFFFFFFFFFFFF DUP3 EQ ISZERO PUSH2 0x3AA6 JUMPI PUSH2 0x3AA5 PUSH2 0x3AB1 JUMP JUMPDEST JUMPDEST PUSH1 0x1 DUP3 ADD SWAP1 POP SWAP2 SWAP1 POP JUMP JUMPDEST PUSH32 0x4E487B7100000000000000000000000000000000000000000000000000000000 PUSH1 0x0 MSTORE PUSH1 0x11 PUSH1 0x4 MSTORE PUSH1 0x24 PUSH1 0x0 REVERT JUMPDEST PUSH32 0x4E487B7100000000000000000000000000000000000000000000000000000000 PUSH1 0x0 MSTORE PUSH1 0x12 PUSH1 0x4 MSTORE PUSH1 0x24 PUSH1 0x0 REVERT JUMPDEST PUSH32 0x4E487B7100000000000000000000000000000000000000000000000000000000 PUSH1 0x0 MSTORE PUSH1 0x32 PUSH1 0x4 MSTORE PUSH1 0x24 PUSH1 0x0 REVERT JUMPDEST PUSH1 0x0 DUP1 REVERT JUMPDEST PUSH1 0x0 PUSH1 0x1F NOT PUSH1 0x1F DUP4 ADD AND SWAP1 POP SWAP2 SWAP1 POP JUMP JUMPDEST PUSH32 0x4F776E61626C653A206E6577206F776E657220697320746865207A65726F2061 PUSH1 0x0 DUP3 ADD MSTORE PUSH32 0x6464726573730000000000000000000000000000000000000000000000000000 PUSH1 0x20 DUP3 ADD MSTORE POP JUMP JUMPDEST PUSH32 0x536166654D6174683A206164646974696F6E206F766572666C6F770000000000 PUSH1 0x0 DUP3 ADD MSTORE POP JUMP JUMPDEST PUSH32 0x416464726573733A20696E73756666696369656E742062616C616E636520666F PUSH1 0x0 DUP3 ADD MSTORE PUSH32 0x722063616C6C0000000000000000000000000000000000000000000000000000 PUSH1 0x20 DUP3 ADD MSTORE POP JUMP JUMPDEST PUSH32 0x536166654D6174683A206D756C7469706C69636174696F6E206F766572666C6F PUSH1 0x0 DUP3 ADD MSTORE PUSH32 0x7700000000000000000000000000000000000000000000000000000000000000 PUSH1 0x20 DUP3 ADD MSTORE POP JUMP JUMPDEST PUSH32 0x4F776E61626C653A2063616C6C6572206973206E6F7420746865206F776E6572 PUSH1 0x0 DUP3 ADD MSTORE POP JUMP JUMPDEST PUSH32 0x416464726573733A2063616C6C20746F206E6F6E2D636F6E7472616374000000 PUSH1 0x0 DUP3 ADD MSTORE POP JUMP JUMPDEST PUSH32 0x77697468647261773A206E6F7420676F6F640000000000000000000000000000 PUSH1 0x0 DUP3 ADD MSTORE POP JUMP JUMPDEST PUSH32 0x5361666545524332303A204552433230206F7065726174696F6E20646964206E PUSH1 0x0 DUP3 ADD MSTORE PUSH32 0x6F74207375636365656400000000000000000000000000000000000000000000 PUSH1 0x20 DUP3 ADD MSTORE POP JUMP JUMPDEST PUSH32 0x6D6967726174653A206261640000000000000000000000000000000000000000 PUSH1 0x0 DUP3 ADD MSTORE POP JUMP JUMPDEST PUSH32 0x5361666545524332303A20617070726F76652066726F6D206E6F6E2D7A65726F PUSH1 0x0 DUP3 ADD MSTORE PUSH32 0x20746F206E6F6E2D7A65726F20616C6C6F77616E636500000000000000000000 PUSH1 0x20 DUP3 ADD MSTORE POP JUMP JUMPDEST PUSH32 0x6D6967726174653A206E6F206D69677261746F72000000000000000000000000 PUSH1 0x0 DUP3 ADD MSTORE POP JUMP JUMPDEST PUSH2 0x3DDE DUP2 PUSH2 0x394B JUMP JUMPDEST DUP2 EQ PUSH2 0x3DE9 JUMPI PUSH1 0x0 DUP1 REVERT JUMPDEST POP JUMP JUMPDEST PUSH2 0x3DF5 DUP2 PUSH2 0x395D JUMP JUMPDEST DUP2 EQ PUSH2 0x3E00 JUMPI PUSH1 0x0 DUP1 REVERT JUMPDEST POP JUMP JUMPDEST PUSH2 0x3E0C DUP2 PUSH2 0x3969 JUMP JUMPDEST DUP2 EQ PUSH2 0x3E17 JUMPI PUSH1 0x0 DUP1 REVERT JUMPDEST POP JUMP JUMPDEST PUSH2 0x3E23 DUP2 PUSH2 0x397B JUMP JUMPDEST DUP2 EQ PUSH2 0x3E2E JUMPI PUSH1 0x0 DUP1 REVERT JUMPDEST POP JUMP JUMPDEST PUSH2 0x3E3A DUP2 PUSH2 0x398D JUMP JUMPDEST DUP2 EQ PUSH2 0x3E45 JUMPI PUSH1 0x0 DUP1 REVERT JUMPDEST POP JUMP JUMPDEST PUSH2 0x3E51 DUP2 PUSH2 0x39BF JUMP JUMPDEST DUP2 EQ PUSH2 0x3E5C JUMPI PUSH1 0x0 DUP1 REVERT JUMPDEST POP JUMP INVALID LOG2 PUSH5 0x6970667358 0x22 SLT KECCAK256 PUSH13 0x53FB722FB04503E022C73F6F7A 0xB6 0xC8 MSIZE AND DIV DIFFICULTY SWAP4 0xE2 JUMPDEST 0xD3 PUSH29 0x6DA2778EAB58E764736F6C634300080700330000000000000000000000 "
				},
				"gasEstimates": {
					"creation": {
						"codeDepositCost": "3204200",
						"executionCost": "infinite",
						"totalCost": "infinite"
					},
					"external": {
						"BONUS_MULTIPLIER()": "2496",
						"DRG()": "2713",
						"DRGPerBlock()": "2496",
						"NFTMasterChef()": "2666",
						"add(uint256,address,bool,address,address)": "infinite",
						"deposit(uint256,uint256,uint256)": "infinite",
						"devaddr()": "2558",
						"emergencyWithdraw(uint256)": "infinite",
						"emergencyWithdrawFromBSW(uint256)": "infinite",
						"enablePool(uint256)": "infinite",
						"getMultiplier(uint256,uint256)": "infinite",
						"lpFee()": "2519",
						"massUpdatePools()": "infinite",
						"migrate(uint256)": "infinite",
						"migrator()": "2645",
						"owner()": "2611",
						"pendingDRG(uint256,address)": "infinite",
						"poolBalance(uint256)": "infinite",
						"poolInfo(uint256)": "infinite",
						"poolLength()": "2514",
						"renounceOwnership()": "30486",
						"set(uint256,uint256,bool)": "infinite",
						"setDevAddress(address)": "27073",
						"setMigrator(address)": "27095",
						"startBlock()": "2475",
						"totalAllocPoint()": "2497",
						"transferOwnership(address)": "30833",
						"updateDRGPerBlock(uint256)": "24851",
						"updateLpFee(uint256)": "24827",
						"updateMultiplier(uint256)": "24805",
						"updatePool(uint256)": "infinite",
						"userInfo(uint256,address)": "infinite",
						"withdraw(uint256,uint256,uint256)": "infinite"
					},
					"internal": {
						"NFTMasterChefEnterStaking(address,uint256)": "infinite",
						"safeDRGTransfer(address,uint256)": "infinite"
					}
				},
				"methodIdentifiers": {
					"BONUS_MULTIPLIER()": "8aa28550",
					"DRG()": "141aa0ba",
					"DRGPerBlock()": "a1eef821",
					"NFTMasterChef()": "e4d09896",
					"add(uint256,address,bool,address,address)": "fde2ec98",
					"deposit(uint256,uint256,uint256)": "00aeef8a",
					"devaddr()": "d49e77cd",
					"emergencyWithdraw(uint256)": "5312ea8e",
					"emergencyWithdrawFromBSW(uint256)": "68382a21",
					"enablePool(uint256)": "eeac3ae8",
					"getMultiplier(uint256,uint256)": "8dbb1e3a",
					"lpFee()": "704ce43e",
					"massUpdatePools()": "630b5ba1",
					"migrate(uint256)": "454b0608",
					"migrator()": "7cd07e47",
					"owner()": "8da5cb5b",
					"pendingDRG(uint256,address)": "4f17dbaf",
					"poolBalance(uint256)": "6a6d964e",
					"poolInfo(uint256)": "1526fe27",
					"poolLength()": "081e3eda",
					"renounceOwnership()": "715018a6",
					"set(uint256,uint256,bool)": "64482f79",
					"setDevAddress(address)": "d0d41fe1",
					"setMigrator(address)": "23cf3118",
					"startBlock()": "48cd4cb1",
					"totalAllocPoint()": "17caf6f1",
					"transferOwnership(address)": "f2fde38b",
					"updateDRGPerBlock(uint256)": "0fe7ea17",
					"updateLpFee(uint256)": "612888f6",
					"updateMultiplier(uint256)": "5ffe6146",
					"updatePool(uint256)": "51eb05a6",
					"userInfo(uint256,address)": "93f1a40b",
					"withdraw(uint256,uint256,uint256)": "a41fe49f"
				}
			},
			"storageLayout": {
				"storage": [
					{
						"astId": 820,
						"contract": "contracts/MetaMasterChef.sol:MetaMasterChef",
						"label": "_owner",
						"offset": 0,
						"slot": "0",
						"type": "t_address"
					},
					{
						"astId": 1022,
						"contract": "contracts/MetaMasterChef.sol:MetaMasterChef",
						"label": "NFTMasterChef",
						"offset": 0,
						"slot": "1",
						"type": "t_contract(INFTMasterChef)979"
					},
					{
						"astId": 1025,
						"contract": "contracts/MetaMasterChef.sol:MetaMasterChef",
						"label": "DRG",
						"offset": 0,
						"slot": "2",
						"type": "t_contract(IERC20)286"
					},
					{
						"astId": 1027,
						"contract": "contracts/MetaMasterChef.sol:MetaMasterChef",
						"label": "devaddr",
						"offset": 0,
						"slot": "3",
						"type": "t_address"
					},
					{
						"astId": 1029,
						"contract": "contracts/MetaMasterChef.sol:MetaMasterChef",
						"label": "DRGPerBlock",
						"offset": 0,
						"slot": "4",
						"type": "t_uint256"
					},
					{
						"astId": 1032,
						"contract": "contracts/MetaMasterChef.sol:MetaMasterChef",
						"label": "BONUS_MULTIPLIER",
						"offset": 0,
						"slot": "5",
						"type": "t_uint256"
					},
					{
						"astId": 1035,
						"contract": "contracts/MetaMasterChef.sol:MetaMasterChef",
						"label": "migrator",
						"offset": 0,
						"slot": "6",
						"type": "t_contract(IMigratorChef)989"
					},
					{
						"astId": 1039,
						"contract": "contracts/MetaMasterChef.sol:MetaMasterChef",
						"label": "poolInfo",
						"offset": 0,
						"slot": "7",
						"type": "t_array(t_struct(PoolInfo)1019_storage)dyn_storage"
					},
					{
						"astId": 1046,
						"contract": "contracts/MetaMasterChef.sol:MetaMasterChef",
						"label": "userInfo",
						"offset": 0,
						"slot": "8",
						"type": "t_mapping(t_uint256,t_mapping(t_address,t_struct(UserInfo)1003_storage))"
					},
					{
						"astId": 1049,
						"contract": "contracts/MetaMasterChef.sol:MetaMasterChef",
						"label": "totalAllocPoint",
						"offset": 0,
						"slot": "9",
						"type": "t_uint256"
					},
					{
						"astId": 1051,
						"contract": "contracts/MetaMasterChef.sol:MetaMasterChef",
						"label": "startBlock",
						"offset": 0,
						"slot": "10",
						"type": "t_uint256"
					},
					{
						"astId": 1055,
						"contract": "contracts/MetaMasterChef.sol:MetaMasterChef",
						"label": "poolBalance",
						"offset": 0,
						"slot": "11",
						"type": "t_mapping(t_uint256,t_uint256)"
					},
					{
						"astId": 1057,
						"contract": "contracts/MetaMasterChef.sol:MetaMasterChef",
						"label": "lpFee",
						"offset": 0,
						"slot": "12",
						"type": "t_uint256"
					},
					{
						"astId": 1060,
						"contract": "contracts/MetaMasterChef.sol:MetaMasterChef",
						"label": "approveAmount",
						"offset": 0,
						"slot": "13",
						"type": "t_uint256"
					}
				],
				"types": {
					"t_address": {
						"encoding": "inplace",
						"label": "address",
						"numberOfBytes": "20"
					},
					"t_array(t_struct(PoolInfo)1019_storage)dyn_storage": {
						"base": "t_struct(PoolInfo)1019_storage",
						"encoding": "dynamic_array",
						"label": "struct MetaMasterChef.PoolInfo[]",
						"numberOfBytes": "32"
					},
					"t_contract(IERC20)286": {
						"encoding": "inplace",
						"label": "contract IERC20",
						"numberOfBytes": "20"
					},
					"t_contract(IMasterChef)971": {
						"encoding": "inplace",
						"label": "contract IMasterChef",
						"numberOfBytes": "20"
					},
					"t_contract(IMigratorChef)989": {
						"encoding": "inplace",
						"label": "contract IMigratorChef",
						"numberOfBytes": "20"
					},
					"t_contract(INFTMasterChef)979": {
						"encoding": "inplace",
						"label": "contract INFTMasterChef",
						"numberOfBytes": "20"
					},
					"t_mapping(t_address,t_struct(UserInfo)1003_storage)": {
						"encoding": "mapping",
						"key": "t_address",
						"label": "mapping(address => struct MetaMasterChef.UserInfo)",
						"numberOfBytes": "32",
						"value": "t_struct(UserInfo)1003_storage"
					},
					"t_mapping(t_uint256,t_mapping(t_address,t_struct(UserInfo)1003_storage))": {
						"encoding": "mapping",
						"key": "t_uint256",
						"label": "mapping(uint256 => mapping(address => struct MetaMasterChef.UserInfo))",
						"numberOfBytes": "32",
						"value": "t_mapping(t_address,t_struct(UserInfo)1003_storage)"
					},
					"t_mapping(t_uint256,t_uint256)": {
						"encoding": "mapping",
						"key": "t_uint256",
						"label": "mapping(uint256 => uint256)",
						"numberOfBytes": "32",
						"value": "t_uint256"
					},
					"t_struct(PoolInfo)1019_storage": {
						"encoding": "inplace",
						"label": "struct MetaMasterChef.PoolInfo",
						"members": [
							{
								"astId": 1006,
								"contract": "contracts/MetaMasterChef.sol:MetaMasterChef",
								"label": "lpToken",
								"offset": 0,
								"slot": "0",
								"type": "t_contract(IERC20)286"
							},
							{
								"astId": 1008,
								"contract": "contracts/MetaMasterChef.sol:MetaMasterChef",
								"label": "allocPoint",
								"offset": 0,
								"slot": "1",
								"type": "t_uint256"
							},
							{
								"astId": 1010,
								"contract": "contracts/MetaMasterChef.sol:MetaMasterChef",
								"label": "lastRewardBlock",
								"offset": 0,
								"slot": "2",
								"type": "t_uint256"
							},
							{
								"astId": 1012,
								"contract": "contracts/MetaMasterChef.sol:MetaMasterChef",
								"label": "accDRGPerShare",
								"offset": 0,
								"slot": "3",
								"type": "t_uint256"
							},
							{
								"astId": 1015,
								"contract": "contracts/MetaMasterChef.sol:MetaMasterChef",
								"label": "poolMasterChef",
								"offset": 0,
								"slot": "4",
								"type": "t_contract(IMasterChef)971"
							},
							{
								"astId": 1018,
								"contract": "contracts/MetaMasterChef.sol:MetaMasterChef",
								"label": "rewardToken",
								"offset": 0,
								"slot": "5",
								"type": "t_contract(IERC20)286"
							}
						],
						"numberOfBytes": "192"
					},
					"t_struct(UserInfo)1003_storage": {
						"encoding": "inplace",
						"label": "struct MetaMasterChef.UserInfo",
						"members": [
							{
								"astId": 1000,
								"contract": "contracts/MetaMasterChef.sol:MetaMasterChef",
								"label": "amount",
								"offset": 0,
								"slot": "0",
								"type": "t_uint256"
							},
							{
								"astId": 1002,
								"contract": "contracts/MetaMasterChef.sol:MetaMasterChef",
								"label": "rewardDebt",
								"offset": 0,
								"slot": "1",
								"type": "t_uint256"
							}
						],
						"numberOfBytes": "64"
					},
					"t_uint256": {
						"encoding": "inplace",
						"label": "uint256",
						"numberOfBytes": "32"
					}
				}
			},
			"userdoc": {
				"kind": "user",
				"methods": {},
				"version": 1
			}
		}
	}
}