{
	"contracts/Utils.sol": {
		"Utils": {
			"abi": [
				{
					"inputs": [
						{
							"internalType": "contract Router",
							"name": "_routerAddress",
							"type": "address"
						},
						{
							"internalType": "address",
							"name": "_WBNB",
							"type": "address"
						},
						{
							"internalType": "address",
							"name": "_BUSD",
							"type": "address"
						}
					],
					"stateMutability": "nonpayable",
					"type": "constructor"
				},
				{
					"anonymous": false,
					"inputs": [
						{
							"indexed": true,
							"internalType": "address",
							"name": "previousOwner",
							"type": "address"
						},
						{
							"indexed": true,
							"internalType": "address",
							"name": "newOwner",
							"type": "address"
						}
					],
					"name": "OwnershipTransferred",
					"type": "event"
				},
				{
					"inputs": [],
					"name": "BUSD",
					"outputs": [
						{
							"internalType": "address",
							"name": "",
							"type": "address"
						}
					],
					"stateMutability": "view",
					"type": "function"
				},
				{
					"inputs": [
						{
							"internalType": "uint256",
							"name": "pid",
							"type": "uint256"
						},
						{
							"internalType": "contract LP",
							"name": "lpAddress",
							"type": "address"
						},
						{
							"internalType": "uint256",
							"name": "isLp",
							"type": "uint256"
						},
						{
							"internalType": "contract MetaMasterChef",
							"name": "MasterChef",
							"type": "address"
						}
					],
					"name": "CalcApy",
					"outputs": [
						{
							"internalType": "uint256",
							"name": "",
							"type": "uint256"
						}
					],
					"stateMutability": "view",
					"type": "function"
				},
				{
					"inputs": [
						{
							"internalType": "contract LP",
							"name": "lpAddress",
							"type": "address"
						}
					],
					"name": "CalcLpPrice",
					"outputs": [
						{
							"internalType": "uint256",
							"name": "",
							"type": "uint256"
						}
					],
					"stateMutability": "view",
					"type": "function"
				},
				{
					"inputs": [
						{
							"internalType": "address",
							"name": "token",
							"type": "address"
						}
					],
					"name": "Tokenprice",
					"outputs": [
						{
							"internalType": "uint256",
							"name": "",
							"type": "uint256"
						}
					],
					"stateMutability": "view",
					"type": "function"
				},
				{
					"inputs": [],
					"name": "WBNB",
					"outputs": [
						{
							"internalType": "address",
							"name": "",
							"type": "address"
						}
					],
					"stateMutability": "view",
					"type": "function"
				},
				{
					"inputs": [
						{
							"internalType": "address",
							"name": "token",
							"type": "address"
						}
					],
					"name": "WBNBPrice",
					"outputs": [
						{
							"internalType": "uint256",
							"name": "",
							"type": "uint256"
						}
					],
					"stateMutability": "view",
					"type": "function"
				},
				{
					"inputs": [
						{
							"internalType": "uint256",
							"name": "pid",
							"type": "uint256"
						},
						{
							"internalType": "contract LP",
							"name": "lpAddress",
							"type": "address"
						},
						{
							"internalType": "uint256",
							"name": "isLp",
							"type": "uint256"
						},
						{
							"internalType": "contract MetaMasterChef",
							"name": "MasterChef",
							"type": "address"
						}
					],
					"name": "calcPoolTVLInUSD",
					"outputs": [
						{
							"internalType": "uint256",
							"name": "",
							"type": "uint256"
						}
					],
					"stateMutability": "view",
					"type": "function"
				},
				{
					"inputs": [
						{
							"internalType": "contract LP",
							"name": "lpAddress",
							"type": "address"
						}
					],
					"name": "isLpAddress",
					"outputs": [
						{
							"internalType": "uint256",
							"name": "",
							"type": "uint256"
						}
					],
					"stateMutability": "view",
					"type": "function"
				},
				{
					"inputs": [],
					"name": "owner",
					"outputs": [
						{
							"internalType": "address",
							"name": "",
							"type": "address"
						}
					],
					"stateMutability": "view",
					"type": "function"
				},
				{
					"inputs": [],
					"name": "renounceOwnership",
					"outputs": [],
					"stateMutability": "nonpayable",
					"type": "function"
				},
				{
					"inputs": [],
					"name": "routerAddress",
					"outputs": [
						{
							"internalType": "contract Router",
							"name": "",
							"type": "address"
						}
					],
					"stateMutability": "view",
					"type": "function"
				},
				{
					"inputs": [
						{
							"internalType": "contract Router",
							"name": "_routerAddress",
							"type": "address"
						}
					],
					"name": "setRouter",
					"outputs": [],
					"stateMutability": "nonpayable",
					"type": "function"
				},
				{
					"inputs": [
						{
							"internalType": "address",
							"name": "newOwner",
							"type": "address"
						}
					],
					"name": "transferOwnership",
					"outputs": [],
					"stateMutability": "nonpayable",
					"type": "function"
				}
			],
			"devdoc": {
				"kind": "dev",
				"methods": {
					"owner()": {
						"details": "Returns the address of the current owner."
					},
					"renounceOwnership()": {
						"details": "Leaves the contract without owner. It will not be possible to call `onlyOwner` functions anymore. Can only be called by the current owner. NOTE: Renouncing ownership will leave the contract without an owner, thereby removing any functionality that is only available to the owner."
					},
					"transferOwnership(address)": {
						"details": "Transfers ownership of the contract to a new account (`newOwner`). Can only be called by the current owner."
					}
				},
				"version": 1
			},
			"evm": {
				"assembly": "    /* \"contracts/Utils.sol\":17259:21202  contract Utils is Ownable{... */\n  mstore(0x40, 0x80)\n    /* \"contracts/Utils.sol\":17509:17528  1000000000000000000 */\n  0x0de0b6b3a7640000\n    /* \"contracts/Utils.sol\":17492:17528  uint256 amount = 1000000000000000000 */\n  0x03\n  sstore\n    /* \"contracts/Utils.sol\":17597:17605  10512000 */\n  0xa06680\n    /* \"contracts/Utils.sol\":17571:17605  uint256 BLOCKS_PER_YEAR = 10512000 */\n  0x05\n  sstore\n    /* \"contracts/Utils.sol\":17615:17778  constructor(Router _routerAddress, address _WBNB, address _BUSD) {... */\n  callvalue\n  dup1\n  iszero\n  tag_1\n  jumpi\n  0x00\n  dup1\n  revert\ntag_1:\n  pop\n  mload(0x40)\n  sub(codesize, bytecodeSize)\n  dup1\n  bytecodeSize\n  dup4\n  codecopy\n  dup2\n  dup2\n  add\n  0x40\n  mstore\n  dup2\n  add\n  swap1\n  tag_2\n  swap2\n  swap1\n  tag_3\n  jump\t// in\ntag_2:\n    /* \"contracts/Utils.sol\":13728:13760  _transferOwnership(_msgSender()) */\n  tag_7\n    /* \"contracts/Utils.sol\":13747:13759  _msgSender() */\n  tag_8\n    /* \"contracts/Utils.sol\":13747:13757  _msgSender */\n  shl(0x20, tag_9)\n    /* \"contracts/Utils.sol\":13747:13759  _msgSender() */\n  0x20\n  shr\n  jump\t// in\ntag_8:\n    /* \"contracts/Utils.sol\":13728:13746  _transferOwnership */\n  shl(0x20, tag_10)\n    /* \"contracts/Utils.sol\":13728:13760  _transferOwnership(_msgSender()) */\n  0x20\n  shr\n  jump\t// in\ntag_7:\n    /* \"contracts/Utils.sol\":17708:17722  _routerAddress */\n  dup3\n    /* \"contracts/Utils.sol\":17692:17705  routerAddress */\n  0x04\n  0x00\n    /* \"contracts/Utils.sol\":17692:17722  routerAddress = _routerAddress */\n  0x0100\n  exp\n  dup2\n  sload\n  dup2\n  0xffffffffffffffffffffffffffffffffffffffff\n  mul\n  not\n  and\n  swap1\n  dup4\n  0xffffffffffffffffffffffffffffffffffffffff\n  and\n  mul\n  or\n  swap1\n  sstore\n  pop\n    /* \"contracts/Utils.sol\":17741:17746  _WBNB */\n  dup2\n    /* \"contracts/Utils.sol\":17734:17738  WBNB */\n  0x01\n  0x00\n    /* \"contracts/Utils.sol\":17734:17746  WBNB = _WBNB */\n  0x0100\n  exp\n  dup2\n  sload\n  dup2\n  0xffffffffffffffffffffffffffffffffffffffff\n  mul\n  not\n  and\n  swap1\n  dup4\n  0xffffffffffffffffffffffffffffffffffffffff\n  and\n  mul\n  or\n  swap1\n  sstore\n  pop\n    /* \"contracts/Utils.sol\":17765:17770  _BUSD */\n  dup1\n    /* \"contracts/Utils.sol\":17758:17762  BUSD */\n  0x02\n  0x00\n    /* \"contracts/Utils.sol\":17758:17770  BUSD = _BUSD */\n  0x0100\n  exp\n  dup2\n  sload\n  dup2\n  0xffffffffffffffffffffffffffffffffffffffff\n  mul\n  not\n  and\n  swap1\n  dup4\n  0xffffffffffffffffffffffffffffffffffffffff\n  and\n  mul\n  or\n  swap1\n  sstore\n  pop\n    /* \"contracts/Utils.sol\":17615:17778  constructor(Router _routerAddress, address _WBNB, address _BUSD) {... */\n  pop\n  pop\n  pop\n    /* \"contracts/Utils.sol\":17259:21202  contract Utils is Ownable{... */\n  jump(tag_12)\n    /* \"contracts/Utils.sol\":13223:13321  function _msgSender() internal view virtual returns (address) {... */\ntag_9:\n    /* \"contracts/Utils.sol\":13276:13283  address */\n  0x00\n    /* \"contracts/Utils.sol\":13303:13313  msg.sender */\n  caller\n    /* \"contracts/Utils.sol\":13296:13313  return msg.sender */\n  swap1\n  pop\n    /* \"contracts/Utils.sol\":13223:13321  function _msgSender() internal view virtual returns (address) {... */\n  swap1\n  jump\t// out\n    /* \"contracts/Utils.sol\":15119:15310  function _transferOwnership(address newOwner) internal virtual {... */\ntag_10:\n    /* \"contracts/Utils.sol\":15193:15209  address oldOwner */\n  0x00\n    /* \"contracts/Utils.sol\":15212:15218  _owner */\n  dup1\n  0x00\n  swap1\n  sload\n  swap1\n  0x0100\n  exp\n  swap1\n  div\n  0xffffffffffffffffffffffffffffffffffffffff\n  and\n    /* \"contracts/Utils.sol\":15193:15218  address oldOwner = _owner */\n  swap1\n  pop\n    /* \"contracts/Utils.sol\":15238:15246  newOwner */\n  dup2\n    /* \"contracts/Utils.sol\":15229:15235  _owner */\n  0x00\n  dup1\n    /* \"contracts/Utils.sol\":15229:15246  _owner = newOwner */\n  0x0100\n  exp\n  dup2\n  sload\n  dup2\n  0xffffffffffffffffffffffffffffffffffffffff\n  mul\n  not\n  and\n  swap1\n  dup4\n  0xffffffffffffffffffffffffffffffffffffffff\n  and\n  mul\n  or\n  swap1\n  sstore\n  pop\n    /* \"contracts/Utils.sol\":15293:15301  newOwner */\n  dup2\n    /* \"contracts/Utils.sol\":15262:15302  OwnershipTransferred(oldOwner, newOwner) */\n  0xffffffffffffffffffffffffffffffffffffffff\n  and\n    /* \"contracts/Utils.sol\":15283:15291  oldOwner */\n  dup2\n    /* \"contracts/Utils.sol\":15262:15302  OwnershipTransferred(oldOwner, newOwner) */\n  0xffffffffffffffffffffffffffffffffffffffff\n  and\n  0x8be0079c531659141344cd1fd0a4f28419497f9722a3daafe3b4186f6b6457e0\n  mload(0x40)\n  mload(0x40)\n  dup1\n  swap2\n  sub\n  swap1\n  log3\n    /* \"contracts/Utils.sol\":15182:15310  {... */\n  pop\n    /* \"contracts/Utils.sol\":15119:15310  function _transferOwnership(address newOwner) internal virtual {... */\n  pop\n  jump\t// out\n    /* \"#utility.yul\":88:205   */\ntag_16:\n    /* \"#utility.yul\":197:198   */\n  0x00\n    /* \"#utility.yul\":194:195   */\n  dup1\n    /* \"#utility.yul\":187:199   */\n  revert\n    /* \"#utility.yul\":334:460   */\ntag_18:\n    /* \"#utility.yul\":371:378   */\n  0x00\n    /* \"#utility.yul\":411:453   */\n  0xffffffffffffffffffffffffffffffffffffffff\n    /* \"#utility.yul\":404:409   */\n  dup3\n    /* \"#utility.yul\":400:454   */\n  and\n    /* \"#utility.yul\":389:454   */\n  swap1\n  pop\n    /* \"#utility.yul\":334:460   */\n  swap2\n  swap1\n  pop\n  jump\t// out\n    /* \"#utility.yul\":466:562   */\ntag_19:\n    /* \"#utility.yul\":503:510   */\n  0x00\n    /* \"#utility.yul\":532:556   */\n  tag_31\n    /* \"#utility.yul\":550:555   */\n  dup3\n    /* \"#utility.yul\":532:556   */\n  tag_18\n  jump\t// in\ntag_31:\n    /* \"#utility.yul\":521:556   */\n  swap1\n  pop\n    /* \"#utility.yul\":466:562   */\n  swap2\n  swap1\n  pop\n  jump\t// out\n    /* \"#utility.yul\":568:678   */\ntag_20:\n    /* \"#utility.yul\":619:626   */\n  0x00\n    /* \"#utility.yul\":648:672   */\n  tag_33\n    /* \"#utility.yul\":666:671   */\n  dup3\n    /* \"#utility.yul\":648:672   */\n  tag_19\n  jump\t// in\ntag_33:\n    /* \"#utility.yul\":637:672   */\n  swap1\n  pop\n    /* \"#utility.yul\":568:678   */\n  swap2\n  swap1\n  pop\n  jump\t// out\n    /* \"#utility.yul\":684:834   */\ntag_21:\n    /* \"#utility.yul\":771:809   */\n  tag_35\n    /* \"#utility.yul\":803:808   */\n  dup2\n    /* \"#utility.yul\":771:809   */\n  tag_20\n  jump\t// in\ntag_35:\n    /* \"#utility.yul\":764:769   */\n  dup2\n    /* \"#utility.yul\":761:810   */\n  eq\n    /* \"#utility.yul\":751:828   */\n  tag_36\n  jumpi\n    /* \"#utility.yul\":824:825   */\n  0x00\n    /* \"#utility.yul\":821:822   */\n  dup1\n    /* \"#utility.yul\":814:826   */\n  revert\n    /* \"#utility.yul\":751:828   */\ntag_36:\n    /* \"#utility.yul\":684:834   */\n  pop\n  jump\t// out\n    /* \"#utility.yul\":840:1011   */\ntag_22:\n    /* \"#utility.yul\":911:916   */\n  0x00\n    /* \"#utility.yul\":942:948   */\n  dup2\n    /* \"#utility.yul\":936:949   */\n  mload\n    /* \"#utility.yul\":927:949   */\n  swap1\n  pop\n    /* \"#utility.yul\":958:1005   */\n  tag_38\n    /* \"#utility.yul\":999:1004   */\n  dup2\n    /* \"#utility.yul\":958:1005   */\n  tag_21\n  jump\t// in\ntag_38:\n    /* \"#utility.yul\":840:1011   */\n  swap3\n  swap2\n  pop\n  pop\n  jump\t// out\n    /* \"#utility.yul\":1017:1139   */\ntag_23:\n    /* \"#utility.yul\":1090:1114   */\n  tag_40\n    /* \"#utility.yul\":1108:1113   */\n  dup2\n    /* \"#utility.yul\":1090:1114   */\n  tag_19\n  jump\t// in\ntag_40:\n    /* \"#utility.yul\":1083:1088   */\n  dup2\n    /* \"#utility.yul\":1080:1115   */\n  eq\n    /* \"#utility.yul\":1070:1133   */\n  tag_41\n  jumpi\n    /* \"#utility.yul\":1129:1130   */\n  0x00\n    /* \"#utility.yul\":1126:1127   */\n  dup1\n    /* \"#utility.yul\":1119:1131   */\n  revert\n    /* \"#utility.yul\":1070:1133   */\ntag_41:\n    /* \"#utility.yul\":1017:1139   */\n  pop\n  jump\t// out\n    /* \"#utility.yul\":1145:1288   */\ntag_24:\n    /* \"#utility.yul\":1202:1207   */\n  0x00\n    /* \"#utility.yul\":1233:1239   */\n  dup2\n    /* \"#utility.yul\":1227:1240   */\n  mload\n    /* \"#utility.yul\":1218:1240   */\n  swap1\n  pop\n    /* \"#utility.yul\":1249:1282   */\n  tag_43\n    /* \"#utility.yul\":1276:1281   */\n  dup2\n    /* \"#utility.yul\":1249:1282   */\n  tag_23\n  jump\t// in\ntag_43:\n    /* \"#utility.yul\":1145:1288   */\n  swap3\n  swap2\n  pop\n  pop\n  jump\t// out\n    /* \"#utility.yul\":1294:1985   */\ntag_3:\n    /* \"#utility.yul\":1396:1402   */\n  0x00\n    /* \"#utility.yul\":1404:1410   */\n  dup1\n    /* \"#utility.yul\":1412:1418   */\n  0x00\n    /* \"#utility.yul\":1461:1463   */\n  0x60\n    /* \"#utility.yul\":1449:1458   */\n  dup5\n    /* \"#utility.yul\":1440:1447   */\n  dup7\n    /* \"#utility.yul\":1436:1459   */\n  sub\n    /* \"#utility.yul\":1432:1464   */\n  slt\n    /* \"#utility.yul\":1429:1548   */\n  iszero\n  tag_45\n  jumpi\n    /* \"#utility.yul\":1467:1546   */\n  tag_46\n  tag_16\n  jump\t// in\ntag_46:\n    /* \"#utility.yul\":1429:1548   */\ntag_45:\n    /* \"#utility.yul\":1587:1588   */\n  0x00\n    /* \"#utility.yul\":1612:1690   */\n  tag_47\n    /* \"#utility.yul\":1682:1689   */\n  dup7\n    /* \"#utility.yul\":1673:1679   */\n  dup3\n    /* \"#utility.yul\":1662:1671   */\n  dup8\n    /* \"#utility.yul\":1658:1680   */\n  add\n    /* \"#utility.yul\":1612:1690   */\n  tag_22\n  jump\t// in\ntag_47:\n    /* \"#utility.yul\":1602:1690   */\n  swap4\n  pop\n    /* \"#utility.yul\":1558:1700   */\n  pop\n    /* \"#utility.yul\":1739:1741   */\n  0x20\n    /* \"#utility.yul\":1765:1829   */\n  tag_48\n    /* \"#utility.yul\":1821:1828   */\n  dup7\n    /* \"#utility.yul\":1812:1818   */\n  dup3\n    /* \"#utility.yul\":1801:1810   */\n  dup8\n    /* \"#utility.yul\":1797:1819   */\n  add\n    /* \"#utility.yul\":1765:1829   */\n  tag_24\n  jump\t// in\ntag_48:\n    /* \"#utility.yul\":1755:1829   */\n  swap3\n  pop\n    /* \"#utility.yul\":1710:1839   */\n  pop\n    /* \"#utility.yul\":1878:1880   */\n  0x40\n    /* \"#utility.yul\":1904:1968   */\n  tag_49\n    /* \"#utility.yul\":1960:1967   */\n  dup7\n    /* \"#utility.yul\":1951:1957   */\n  dup3\n    /* \"#utility.yul\":1940:1949   */\n  dup8\n    /* \"#utility.yul\":1936:1958   */\n  add\n    /* \"#utility.yul\":1904:1968   */\n  tag_24\n  jump\t// in\ntag_49:\n    /* \"#utility.yul\":1894:1968   */\n  swap2\n  pop\n    /* \"#utility.yul\":1849:1978   */\n  pop\n    /* \"#utility.yul\":1294:1985   */\n  swap3\n  pop\n  swap3\n  pop\n  swap3\n  jump\t// out\n    /* \"contracts/Utils.sol\":17259:21202  contract Utils is Ownable{... */\ntag_12:\n  dataSize(sub_0)\n  dup1\n  dataOffset(sub_0)\n  0x00\n  codecopy\n  0x00\n  return\nstop\n\nsub_0: assembly {\n        /* \"contracts/Utils.sol\":17259:21202  contract Utils is Ownable{... */\n      mstore(0x40, 0x80)\n      callvalue\n      dup1\n      iszero\n      tag_1\n      jumpi\n      0x00\n      dup1\n      revert\n    tag_1:\n      pop\n      jumpi(tag_2, lt(calldatasize, 0x04))\n      shr(0xe0, calldataload(0x00))\n      dup1\n      0x715018a6\n      gt\n      tag_16\n      jumpi\n      dup1\n      0xc0d78655\n      gt\n      tag_17\n      jumpi\n      dup1\n      0xc0d78655\n      eq\n      tag_12\n      jumpi\n      dup1\n      0xd979fb5f\n      eq\n      tag_13\n      jumpi\n      dup1\n      0xdbb79348\n      eq\n      tag_14\n      jumpi\n      dup1\n      0xf2fde38b\n      eq\n      tag_15\n      jumpi\n      jump(tag_2)\n    tag_17:\n      dup1\n      0x715018a6\n      eq\n      tag_9\n      jumpi\n      dup1\n      0x8da5cb5b\n      eq\n      tag_10\n      jumpi\n      dup1\n      0x8dd95002\n      eq\n      tag_11\n      jumpi\n      jump(tag_2)\n    tag_16:\n      dup1\n      0x19047f8a\n      eq\n      tag_3\n      jumpi\n      dup1\n      0x215cc989\n      eq\n      tag_4\n      jumpi\n      dup1\n      0x2f7c5980\n      eq\n      tag_5\n      jumpi\n      dup1\n      0x3268cc56\n      eq\n      tag_6\n      jumpi\n      dup1\n      0x3b979d45\n      eq\n      tag_7\n      jumpi\n      dup1\n      0x484f4ea9\n      eq\n      tag_8\n      jumpi\n    tag_2:\n      0x00\n      dup1\n      revert\n        /* \"contracts/Utils.sol\":17918:18177  function Tokenprice(address token) public view returns(uint256){... */\n    tag_3:\n      tag_18\n      0x04\n      dup1\n      calldatasize\n      sub\n      dup2\n      add\n      swap1\n      tag_19\n      swap2\n      swap1\n      tag_20\n      jump\t// in\n    tag_19:\n      tag_21\n      jump\t// in\n    tag_18:\n      mload(0x40)\n      tag_22\n      swap2\n      swap1\n      tag_23\n      jump\t// in\n    tag_22:\n      mload(0x40)\n      dup1\n      swap2\n      sub\n      swap1\n      return\n        /* \"contracts/Utils.sol\":18460:19308  function CalcLpPrice(LP lpAddress) public view returns(uint256){... */\n    tag_4:\n      tag_24\n      0x04\n      dup1\n      calldatasize\n      sub\n      dup2\n      add\n      swap1\n      tag_25\n      swap2\n      swap1\n      tag_26\n      jump\t// in\n    tag_25:\n      tag_27\n      jump\t// in\n    tag_24:\n      mload(0x40)\n      tag_28\n      swap2\n      swap1\n      tag_23\n      jump\t// in\n    tag_28:\n      mload(0x40)\n      dup1\n      swap2\n      sub\n      swap1\n      return\n        /* \"contracts/Utils.sol\":20620:20801  function isLpAddress(LP lpAddress) external view returns(uint256){... */\n    tag_5:\n      tag_29\n      0x04\n      dup1\n      calldatasize\n      sub\n      dup2\n      add\n      swap1\n      tag_30\n      swap2\n      swap1\n      tag_26\n      jump\t// in\n    tag_30:\n      tag_31\n      jump\t// in\n    tag_29:\n      mload(0x40)\n      tag_32\n      swap2\n      swap1\n      tag_23\n      jump\t// in\n    tag_32:\n      mload(0x40)\n      dup1\n      swap2\n      sub\n      swap1\n      return\n        /* \"contracts/Utils.sol\":17535:17562  Router public routerAddress */\n    tag_6:\n      tag_33\n      tag_34\n      jump\t// in\n    tag_33:\n      mload(0x40)\n      tag_35\n      swap2\n      swap1\n      tag_36\n      jump\t// in\n    tag_35:\n      mload(0x40)\n      dup1\n      swap2\n      sub\n      swap1\n      return\n        /* \"contracts/Utils.sol\":18202:18435  function WBNBPrice(address token) public view returns(uint256){... */\n    tag_7:\n      tag_37\n      0x04\n      dup1\n      calldatasize\n      sub\n      dup2\n      add\n      swap1\n      tag_38\n      swap2\n      swap1\n      tag_20\n      jump\t// in\n    tag_38:\n      tag_39\n      jump\t// in\n    tag_37:\n      mload(0x40)\n      tag_40\n      swap2\n      swap1\n      tag_23\n      jump\t// in\n    tag_40:\n      mload(0x40)\n      dup1\n      swap2\n      sub\n      swap1\n      return\n        /* \"contracts/Utils.sol\":17466:17485  address public BUSD */\n    tag_8:\n      tag_41\n      tag_42\n      jump\t// in\n    tag_41:\n      mload(0x40)\n      tag_43\n      swap2\n      swap1\n      tag_44\n      jump\t// in\n    tag_43:\n      mload(0x40)\n      dup1\n      swap2\n      sub\n      swap1\n      return\n        /* \"contracts/Utils.sol\":14500:14603  function renounceOwnership() public virtual onlyOwner {... */\n    tag_9:\n      tag_45\n      tag_46\n      jump\t// in\n    tag_45:\n      stop\n        /* \"contracts/Utils.sol\":13849:13936  function owner() public view virtual returns (address) {... */\n    tag_10:\n      tag_47\n      tag_48\n      jump\t// in\n    tag_47:\n      mload(0x40)\n      tag_49\n      swap2\n      swap1\n      tag_44\n      jump\t// in\n    tag_49:\n      mload(0x40)\n      dup1\n      swap2\n      sub\n      swap1\n      return\n        /* \"contracts/Utils.sol\":17440:17459  address public WBNB */\n    tag_11:\n      tag_50\n      tag_51\n      jump\t// in\n    tag_50:\n      mload(0x40)\n      tag_52\n      swap2\n      swap1\n      tag_44\n      jump\t// in\n    tag_52:\n      mload(0x40)\n      dup1\n      swap2\n      sub\n      swap1\n      return\n        /* \"contracts/Utils.sol\":17786:17893  function setRouter(Router _routerAddress) public onlyOwner{... */\n    tag_12:\n      tag_53\n      0x04\n      dup1\n      calldatasize\n      sub\n      dup2\n      add\n      swap1\n      tag_54\n      swap2\n      swap1\n      tag_55\n      jump\t// in\n    tag_54:\n      tag_56\n      jump\t// in\n    tag_53:\n      stop\n        /* \"contracts/Utils.sol\":19331:19902  function calcPoolTVLInUSD(uint256 pid, LP lpAddress, uint256 isLp, MetaMasterChef MasterChef) public view returns(uint256){... */\n    tag_13:\n      tag_57\n      0x04\n      dup1\n      calldatasize\n      sub\n      dup2\n      add\n      swap1\n      tag_58\n      swap2\n      swap1\n      tag_59\n      jump\t// in\n    tag_58:\n      tag_60\n      jump\t// in\n    tag_57:\n      mload(0x40)\n      tag_61\n      swap2\n      swap1\n      tag_23\n      jump\t// in\n    tag_61:\n      mload(0x40)\n      dup1\n      swap2\n      sub\n      swap1\n      return\n        /* \"contracts/Utils.sol\":19910:20612  function CalcApy(uint256 pid, LP lpAddress,uint256 isLp, MetaMasterChef MasterChef) external view returns(uint256){... */\n    tag_14:\n      tag_62\n      0x04\n      dup1\n      calldatasize\n      sub\n      dup2\n      add\n      swap1\n      tag_63\n      swap2\n      swap1\n      tag_59\n      jump\t// in\n    tag_63:\n      tag_64\n      jump\t// in\n    tag_62:\n      mload(0x40)\n      tag_65\n      swap2\n      swap1\n      tag_23\n      jump\t// in\n    tag_65:\n      mload(0x40)\n      dup1\n      swap2\n      sub\n      swap1\n      return\n        /* \"contracts/Utils.sol\":14758:14959  function transferOwnership(address newOwner) public virtual onlyOwner {... */\n    tag_15:\n      tag_66\n      0x04\n      dup1\n      calldatasize\n      sub\n      dup2\n      add\n      swap1\n      tag_67\n      swap2\n      swap1\n      tag_20\n      jump\t// in\n    tag_67:\n      tag_68\n      jump\t// in\n    tag_66:\n      stop\n        /* \"contracts/Utils.sol\":17918:18177  function Tokenprice(address token) public view returns(uint256){... */\n    tag_21:\n        /* \"contracts/Utils.sol\":17973:17980  uint256 */\n      0x00\n        /* \"contracts/Utils.sol\":17992:18013  address[] memory path */\n      dup1\n        /* \"contracts/Utils.sol\":18030:18031  3 */\n      0x03\n        /* \"contracts/Utils.sol\":18016:18032  new address[](3) */\n      0xffffffffffffffff\n      dup2\n      gt\n      iszero\n      tag_70\n      jumpi\n      tag_71\n      tag_72\n      jump\t// in\n    tag_71:\n    tag_70:\n      mload(0x40)\n      swap1\n      dup1\n      dup3\n      mstore\n      dup1\n      0x20\n      mul\n      0x20\n      add\n      dup3\n      add\n      0x40\n      mstore\n      dup1\n      iszero\n      tag_73\n      jumpi\n      dup2\n      0x20\n      add\n      0x20\n      dup3\n      mul\n      dup1\n      calldatasize\n      dup4\n      calldatacopy\n      dup1\n      dup3\n      add\n      swap2\n      pop\n      pop\n      swap1\n      pop\n    tag_73:\n      pop\n        /* \"contracts/Utils.sol\":17992:18032  address[] memory path = new address[](3) */\n      swap1\n      pop\n        /* \"contracts/Utils.sol\":18053:18058  token */\n      dup3\n        /* \"contracts/Utils.sol\":18043:18047  path */\n      dup2\n        /* \"contracts/Utils.sol\":18048:18049  0 */\n      0x00\n        /* \"contracts/Utils.sol\":18043:18050  path[0] */\n      dup2\n      mload\n      dup2\n      lt\n      tag_74\n      jumpi\n      tag_75\n      tag_76\n      jump\t// in\n    tag_75:\n    tag_74:\n      0x20\n      mul\n      0x20\n      add\n      add\n        /* \"contracts/Utils.sol\":18043:18058  path[0] = token */\n      swap1\n      0xffffffffffffffffffffffffffffffffffffffff\n      and\n      swap1\n      dup2\n      0xffffffffffffffffffffffffffffffffffffffff\n      and\n      dup2\n      mstore\n      pop\n      pop\n        /* \"contracts/Utils.sol\":18079:18083  WBNB */\n      0x01\n      0x00\n      swap1\n      sload\n      swap1\n      0x0100\n      exp\n      swap1\n      div\n      0xffffffffffffffffffffffffffffffffffffffff\n      and\n        /* \"contracts/Utils.sol\":18069:18073  path */\n      dup2\n        /* \"contracts/Utils.sol\":18074:18075  1 */\n      0x01\n        /* \"contracts/Utils.sol\":18069:18076  path[1] */\n      dup2\n      mload\n      dup2\n      lt\n      tag_77\n      jumpi\n      tag_78\n      tag_76\n      jump\t// in\n    tag_78:\n    tag_77:\n      0x20\n      mul\n      0x20\n      add\n      add\n        /* \"contracts/Utils.sol\":18069:18083  path[1] = WBNB */\n      swap1\n      0xffffffffffffffffffffffffffffffffffffffff\n      and\n      swap1\n      dup2\n      0xffffffffffffffffffffffffffffffffffffffff\n      and\n      dup2\n      mstore\n      pop\n      pop\n        /* \"contracts/Utils.sol\":18104:18108  BUSD */\n      0x02\n      0x00\n      swap1\n      sload\n      swap1\n      0x0100\n      exp\n      swap1\n      div\n      0xffffffffffffffffffffffffffffffffffffffff\n      and\n        /* \"contracts/Utils.sol\":18094:18098  path */\n      dup2\n        /* \"contracts/Utils.sol\":18099:18100  2 */\n      0x02\n        /* \"contracts/Utils.sol\":18094:18101  path[2] */\n      dup2\n      mload\n      dup2\n      lt\n      tag_79\n      jumpi\n      tag_80\n      tag_76\n      jump\t// in\n    tag_80:\n    tag_79:\n      0x20\n      mul\n      0x20\n      add\n      add\n        /* \"contracts/Utils.sol\":18094:18108  path[2] = BUSD */\n      swap1\n      0xffffffffffffffffffffffffffffffffffffffff\n      and\n      swap1\n      dup2\n      0xffffffffffffffffffffffffffffffffffffffff\n      and\n      dup2\n      mstore\n      pop\n      pop\n        /* \"contracts/Utils.sol\":18126:18139  routerAddress */\n      0x04\n      0x00\n      swap1\n      sload\n      swap1\n      0x0100\n      exp\n      swap1\n      div\n      0xffffffffffffffffffffffffffffffffffffffff\n      and\n        /* \"contracts/Utils.sol\":18126:18153  routerAddress.getAmountsOut */\n      0xffffffffffffffffffffffffffffffffffffffff\n      and\n      0xd06ca61f\n        /* \"contracts/Utils.sol\":18154:18160  amount */\n      sload(0x03)\n        /* \"contracts/Utils.sol\":18161:18165  path */\n      dup4\n        /* \"contracts/Utils.sol\":18126:18166  routerAddress.getAmountsOut(amount,path) */\n      mload(0x40)\n      dup4\n      0xffffffff\n      and\n      0xe0\n      shl\n      dup2\n      mstore\n      0x04\n      add\n      tag_81\n      swap3\n      swap2\n      swap1\n      tag_82\n      jump\t// in\n    tag_81:\n      0x00\n      mload(0x40)\n      dup1\n      dup4\n      sub\n      dup2\n      dup7\n      gas\n      staticcall\n      iszero\n      dup1\n      iszero\n      tag_84\n      jumpi\n      returndatasize\n      0x00\n      dup1\n      returndatacopy\n      revert(0x00, returndatasize)\n    tag_84:\n      pop\n      pop\n      pop\n      pop\n      mload(0x40)\n      returndatasize\n      0x00\n      dup3\n      returndatacopy\n      returndatasize\n      not(0x1f)\n      0x1f\n      dup3\n      add\n      and\n      dup3\n      add\n      dup1\n      0x40\n      mstore\n      pop\n      dup2\n      add\n      swap1\n      tag_85\n      swap2\n      swap1\n      tag_86\n      jump\t// in\n    tag_85:\n        /* \"contracts/Utils.sol\":18167:18168  2 */\n      0x02\n        /* \"contracts/Utils.sol\":18126:18169  routerAddress.getAmountsOut(amount,path)[2] */\n      dup2\n      mload\n      dup2\n      lt\n      tag_87\n      jumpi\n      tag_88\n      tag_76\n      jump\t// in\n    tag_88:\n    tag_87:\n      0x20\n      mul\n      0x20\n      add\n      add\n      mload\n        /* \"contracts/Utils.sol\":18119:18169  return routerAddress.getAmountsOut(amount,path)[2] */\n      swap2\n      pop\n      pop\n        /* \"contracts/Utils.sol\":17918:18177  function Tokenprice(address token) public view returns(uint256){... */\n      swap2\n      swap1\n      pop\n      jump\t// out\n        /* \"contracts/Utils.sol\":18460:19308  function CalcLpPrice(LP lpAddress) public view returns(uint256){... */\n    tag_27:\n        /* \"contracts/Utils.sol\":18515:18522  uint256 */\n      0x00\n        /* \"contracts/Utils.sol\":18534:18548  uint256 phase1 */\n      dup1\n        /* \"contracts/Utils.sol\":18559:18573  uint256 phase2 */\n      0x00\n        /* \"contracts/Utils.sol\":18612:18621  lpAddress */\n      dup4\n        /* \"contracts/Utils.sol\":18612:18628  lpAddress.token0 */\n      0xffffffffffffffffffffffffffffffffffffffff\n      and\n      0x0dfe1681\n        /* \"contracts/Utils.sol\":18612:18630  lpAddress.token0() */\n      mload(0x40)\n      dup2\n      0xffffffff\n      and\n      0xe0\n      shl\n      dup2\n      mstore\n      0x04\n      add\n      0x20\n      mload(0x40)\n      dup1\n      dup4\n      sub\n      dup2\n      dup7\n      gas\n      staticcall\n      iszero\n      dup1\n      iszero\n      tag_91\n      jumpi\n      returndatasize\n      0x00\n      dup1\n      returndatacopy\n      revert(0x00, returndatasize)\n    tag_91:\n      pop\n      pop\n      pop\n      pop\n      mload(0x40)\n      returndatasize\n      not(0x1f)\n      0x1f\n      dup3\n      add\n      and\n      dup3\n      add\n      dup1\n      0x40\n      mstore\n      pop\n      dup2\n      add\n      swap1\n      tag_92\n      swap2\n      swap1\n      tag_93\n      jump\t// in\n    tag_92:\n        /* \"contracts/Utils.sol\":18587:18631  address(WBNB) == address(lpAddress.token0()) */\n      0xffffffffffffffffffffffffffffffffffffffff\n      and\n        /* \"contracts/Utils.sol\":18595:18599  WBNB */\n      0x01\n      0x00\n      swap1\n      sload\n      swap1\n      0x0100\n      exp\n      swap1\n      div\n      0xffffffffffffffffffffffffffffffffffffffff\n      and\n        /* \"contracts/Utils.sol\":18587:18631  address(WBNB) == address(lpAddress.token0()) */\n      0xffffffffffffffffffffffffffffffffffffffff\n      and\n      sub\n        /* \"contracts/Utils.sol\":18584:18897  if(address(WBNB) == address(lpAddress.token0())){... */\n      tag_94\n      jumpi\n        /* \"contracts/Utils.sol\":18657:18749  lpAddress.token0().balanceOf(address(lpAddress)).mul(WBNBPrice(address(lpAddress.token0()))) */\n      tag_95\n        /* \"contracts/Utils.sol\":18710:18748  WBNBPrice(address(lpAddress.token0())) */\n      tag_96\n        /* \"contracts/Utils.sol\":18728:18737  lpAddress */\n      dup6\n        /* \"contracts/Utils.sol\":18728:18744  lpAddress.token0 */\n      0xffffffffffffffffffffffffffffffffffffffff\n      and\n      0x0dfe1681\n        /* \"contracts/Utils.sol\":18728:18746  lpAddress.token0() */\n      mload(0x40)\n      dup2\n      0xffffffff\n      and\n      0xe0\n      shl\n      dup2\n      mstore\n      0x04\n      add\n      0x20\n      mload(0x40)\n      dup1\n      dup4\n      sub\n      dup2\n      dup7\n      gas\n      staticcall\n      iszero\n      dup1\n      iszero\n      tag_98\n      jumpi\n      returndatasize\n      0x00\n      dup1\n      returndatacopy\n      revert(0x00, returndatasize)\n    tag_98:\n      pop\n      pop\n      pop\n      pop\n      mload(0x40)\n      returndatasize\n      not(0x1f)\n      0x1f\n      dup3\n      add\n      and\n      dup3\n      add\n      dup1\n      0x40\n      mstore\n      pop\n      dup2\n      add\n      swap1\n      tag_99\n      swap2\n      swap1\n      tag_93\n      jump\t// in\n    tag_99:\n        /* \"contracts/Utils.sol\":18710:18719  WBNBPrice */\n      tag_39\n        /* \"contracts/Utils.sol\":18710:18748  WBNBPrice(address(lpAddress.token0())) */\n      jump\t// in\n    tag_96:\n        /* \"contracts/Utils.sol\":18657:18666  lpAddress */\n      dup6\n        /* \"contracts/Utils.sol\":18657:18673  lpAddress.token0 */\n      0xffffffffffffffffffffffffffffffffffffffff\n      and\n      0x0dfe1681\n        /* \"contracts/Utils.sol\":18657:18675  lpAddress.token0() */\n      mload(0x40)\n      dup2\n      0xffffffff\n      and\n      0xe0\n      shl\n      dup2\n      mstore\n      0x04\n      add\n      0x20\n      mload(0x40)\n      dup1\n      dup4\n      sub\n      dup2\n      dup7\n      gas\n      staticcall\n      iszero\n      dup1\n      iszero\n      tag_101\n      jumpi\n      returndatasize\n      0x00\n      dup1\n      returndatacopy\n      revert(0x00, returndatasize)\n    tag_101:\n      pop\n      pop\n      pop\n      pop\n      mload(0x40)\n      returndatasize\n      not(0x1f)\n      0x1f\n      dup3\n      add\n      and\n      dup3\n      add\n      dup1\n      0x40\n      mstore\n      pop\n      dup2\n      add\n      swap1\n      tag_102\n      swap2\n      swap1\n      tag_93\n      jump\t// in\n    tag_102:\n        /* \"contracts/Utils.sol\":18657:18685  lpAddress.token0().balanceOf */\n      0xffffffffffffffffffffffffffffffffffffffff\n      and\n      0x70a08231\n        /* \"contracts/Utils.sol\":18694:18703  lpAddress */\n      dup8\n        /* \"contracts/Utils.sol\":18657:18705  lpAddress.token0().balanceOf(address(lpAddress)) */\n      mload(0x40)\n      dup3\n      0xffffffff\n      and\n      0xe0\n      shl\n      dup2\n      mstore\n      0x04\n      add\n      tag_103\n      swap2\n      swap1\n      tag_44\n      jump\t// in\n    tag_103:\n      0x20\n      mload(0x40)\n      dup1\n      dup4\n      sub\n      dup2\n      dup7\n      gas\n      staticcall\n      iszero\n      dup1\n      iszero\n      tag_105\n      jumpi\n      returndatasize\n      0x00\n      dup1\n      returndatacopy\n      revert(0x00, returndatasize)\n    tag_105:\n      pop\n      pop\n      pop\n      pop\n      mload(0x40)\n      returndatasize\n      not(0x1f)\n      0x1f\n      dup3\n      add\n      and\n      dup3\n      add\n      dup1\n      0x40\n      mstore\n      pop\n      dup2\n      add\n      swap1\n      tag_106\n      swap2\n      swap1\n      tag_107\n      jump\t// in\n    tag_106:\n        /* \"contracts/Utils.sol\":18657:18709  lpAddress.token0().balanceOf(address(lpAddress)).mul */\n      tag_108\n      swap1\n        /* \"contracts/Utils.sol\":18657:18749  lpAddress.token0().balanceOf(address(lpAddress)).mul(WBNBPrice(address(lpAddress.token0()))) */\n      swap2\n      swap1\n      0xffffffff\n      and\n      jump\t// in\n    tag_95:\n        /* \"contracts/Utils.sol\":18647:18750  phase1 = (lpAddress.token0().balanceOf(address(lpAddress)).mul(WBNBPrice(address(lpAddress.token0())))) */\n      swap2\n      pop\n        /* \"contracts/Utils.sol\":18584:18897  if(address(WBNB) == address(lpAddress.token0())){... */\n      jump(tag_109)\n    tag_94:\n        /* \"contracts/Utils.sol\":18791:18884  lpAddress.token0().balanceOf(address(lpAddress)).mul(Tokenprice(address(lpAddress.token0()))) */\n      tag_110\n        /* \"contracts/Utils.sol\":18844:18883  Tokenprice(address(lpAddress.token0())) */\n      tag_111\n        /* \"contracts/Utils.sol\":18863:18872  lpAddress */\n      dup6\n        /* \"contracts/Utils.sol\":18863:18879  lpAddress.token0 */\n      0xffffffffffffffffffffffffffffffffffffffff\n      and\n      0x0dfe1681\n        /* \"contracts/Utils.sol\":18863:18881  lpAddress.token0() */\n      mload(0x40)\n      dup2\n      0xffffffff\n      and\n      0xe0\n      shl\n      dup2\n      mstore\n      0x04\n      add\n      0x20\n      mload(0x40)\n      dup1\n      dup4\n      sub\n      dup2\n      dup7\n      gas\n      staticcall\n      iszero\n      dup1\n      iszero\n      tag_113\n      jumpi\n      returndatasize\n      0x00\n      dup1\n      returndatacopy\n      revert(0x00, returndatasize)\n    tag_113:\n      pop\n      pop\n      pop\n      pop\n      mload(0x40)\n      returndatasize\n      not(0x1f)\n      0x1f\n      dup3\n      add\n      and\n      dup3\n      add\n      dup1\n      0x40\n      mstore\n      pop\n      dup2\n      add\n      swap1\n      tag_114\n      swap2\n      swap1\n      tag_93\n      jump\t// in\n    tag_114:\n        /* \"contracts/Utils.sol\":18844:18854  Tokenprice */\n      tag_21\n        /* \"contracts/Utils.sol\":18844:18883  Tokenprice(address(lpAddress.token0())) */\n      jump\t// in\n    tag_111:\n        /* \"contracts/Utils.sol\":18791:18800  lpAddress */\n      dup6\n        /* \"contracts/Utils.sol\":18791:18807  lpAddress.token0 */\n      0xffffffffffffffffffffffffffffffffffffffff\n      and\n      0x0dfe1681\n        /* \"contracts/Utils.sol\":18791:18809  lpAddress.token0() */\n      mload(0x40)\n      dup2\n      0xffffffff\n      and\n      0xe0\n      shl\n      dup2\n      mstore\n      0x04\n      add\n      0x20\n      mload(0x40)\n      dup1\n      dup4\n      sub\n      dup2\n      dup7\n      gas\n      staticcall\n      iszero\n      dup1\n      iszero\n      tag_116\n      jumpi\n      returndatasize\n      0x00\n      dup1\n      returndatacopy\n      revert(0x00, returndatasize)\n    tag_116:\n      pop\n      pop\n      pop\n      pop\n      mload(0x40)\n      returndatasize\n      not(0x1f)\n      0x1f\n      dup3\n      add\n      and\n      dup3\n      add\n      dup1\n      0x40\n      mstore\n      pop\n      dup2\n      add\n      swap1\n      tag_117\n      swap2\n      swap1\n      tag_93\n      jump\t// in\n    tag_117:\n        /* \"contracts/Utils.sol\":18791:18819  lpAddress.token0().balanceOf */\n      0xffffffffffffffffffffffffffffffffffffffff\n      and\n      0x70a08231\n        /* \"contracts/Utils.sol\":18828:18837  lpAddress */\n      dup8\n        /* \"contracts/Utils.sol\":18791:18839  lpAddress.token0().balanceOf(address(lpAddress)) */\n      mload(0x40)\n      dup3\n      0xffffffff\n      and\n      0xe0\n      shl\n      dup2\n      mstore\n      0x04\n      add\n      tag_118\n      swap2\n      swap1\n      tag_44\n      jump\t// in\n    tag_118:\n      0x20\n      mload(0x40)\n      dup1\n      dup4\n      sub\n      dup2\n      dup7\n      gas\n      staticcall\n      iszero\n      dup1\n      iszero\n      tag_120\n      jumpi\n      returndatasize\n      0x00\n      dup1\n      returndatacopy\n      revert(0x00, returndatasize)\n    tag_120:\n      pop\n      pop\n      pop\n      pop\n      mload(0x40)\n      returndatasize\n      not(0x1f)\n      0x1f\n      dup3\n      add\n      and\n      dup3\n      add\n      dup1\n      0x40\n      mstore\n      pop\n      dup2\n      add\n      swap1\n      tag_121\n      swap2\n      swap1\n      tag_107\n      jump\t// in\n    tag_121:\n        /* \"contracts/Utils.sol\":18791:18843  lpAddress.token0().balanceOf(address(lpAddress)).mul */\n      tag_108\n      swap1\n        /* \"contracts/Utils.sol\":18791:18884  lpAddress.token0().balanceOf(address(lpAddress)).mul(Tokenprice(address(lpAddress.token0()))) */\n      swap2\n      swap1\n      0xffffffff\n      and\n      jump\t// in\n    tag_110:\n        /* \"contracts/Utils.sol\":18781:18885  phase1 = (lpAddress.token0().balanceOf(address(lpAddress)).mul(Tokenprice(address(lpAddress.token0())))) */\n      swap2\n      pop\n        /* \"contracts/Utils.sol\":18584:18897  if(address(WBNB) == address(lpAddress.token0())){... */\n    tag_109:\n        /* \"contracts/Utils.sol\":18937:18946  lpAddress */\n      dup4\n        /* \"contracts/Utils.sol\":18937:18953  lpAddress.token1 */\n      0xffffffffffffffffffffffffffffffffffffffff\n      and\n      0xd21220a7\n        /* \"contracts/Utils.sol\":18937:18955  lpAddress.token1() */\n      mload(0x40)\n      dup2\n      0xffffffff\n      and\n      0xe0\n      shl\n      dup2\n      mstore\n      0x04\n      add\n      0x20\n      mload(0x40)\n      dup1\n      dup4\n      sub\n      dup2\n      dup7\n      gas\n      staticcall\n      iszero\n      dup1\n      iszero\n      tag_123\n      jumpi\n      returndatasize\n      0x00\n      dup1\n      returndatacopy\n      revert(0x00, returndatasize)\n    tag_123:\n      pop\n      pop\n      pop\n      pop\n      mload(0x40)\n      returndatasize\n      not(0x1f)\n      0x1f\n      dup3\n      add\n      and\n      dup3\n      add\n      dup1\n      0x40\n      mstore\n      pop\n      dup2\n      add\n      swap1\n      tag_124\n      swap2\n      swap1\n      tag_93\n      jump\t// in\n    tag_124:\n        /* \"contracts/Utils.sol\":18912:18956  address(WBNB) == address(lpAddress.token1()) */\n      0xffffffffffffffffffffffffffffffffffffffff\n      and\n        /* \"contracts/Utils.sol\":18920:18924  WBNB */\n      0x01\n      0x00\n      swap1\n      sload\n      swap1\n      0x0100\n      exp\n      swap1\n      div\n      0xffffffffffffffffffffffffffffffffffffffff\n      and\n        /* \"contracts/Utils.sol\":18912:18956  address(WBNB) == address(lpAddress.token1()) */\n      0xffffffffffffffffffffffffffffffffffffffff\n      and\n      sub\n        /* \"contracts/Utils.sol\":18909:19222  if(address(WBNB) == address(lpAddress.token1())){... */\n      tag_125\n      jumpi\n        /* \"contracts/Utils.sol\":18982:19074  lpAddress.token1().balanceOf(address(lpAddress)).mul(WBNBPrice(address(lpAddress.token1()))) */\n      tag_126\n        /* \"contracts/Utils.sol\":19035:19073  WBNBPrice(address(lpAddress.token1())) */\n      tag_127\n        /* \"contracts/Utils.sol\":19053:19062  lpAddress */\n      dup6\n        /* \"contracts/Utils.sol\":19053:19069  lpAddress.token1 */\n      0xffffffffffffffffffffffffffffffffffffffff\n      and\n      0xd21220a7\n        /* \"contracts/Utils.sol\":19053:19071  lpAddress.token1() */\n      mload(0x40)\n      dup2\n      0xffffffff\n      and\n      0xe0\n      shl\n      dup2\n      mstore\n      0x04\n      add\n      0x20\n      mload(0x40)\n      dup1\n      dup4\n      sub\n      dup2\n      dup7\n      gas\n      staticcall\n      iszero\n      dup1\n      iszero\n      tag_129\n      jumpi\n      returndatasize\n      0x00\n      dup1\n      returndatacopy\n      revert(0x00, returndatasize)\n    tag_129:\n      pop\n      pop\n      pop\n      pop\n      mload(0x40)\n      returndatasize\n      not(0x1f)\n      0x1f\n      dup3\n      add\n      and\n      dup3\n      add\n      dup1\n      0x40\n      mstore\n      pop\n      dup2\n      add\n      swap1\n      tag_130\n      swap2\n      swap1\n      tag_93\n      jump\t// in\n    tag_130:\n        /* \"contracts/Utils.sol\":19035:19044  WBNBPrice */\n      tag_39\n        /* \"contracts/Utils.sol\":19035:19073  WBNBPrice(address(lpAddress.token1())) */\n      jump\t// in\n    tag_127:\n        /* \"contracts/Utils.sol\":18982:18991  lpAddress */\n      dup6\n        /* \"contracts/Utils.sol\":18982:18998  lpAddress.token1 */\n      0xffffffffffffffffffffffffffffffffffffffff\n      and\n      0xd21220a7\n        /* \"contracts/Utils.sol\":18982:19000  lpAddress.token1() */\n      mload(0x40)\n      dup2\n      0xffffffff\n      and\n      0xe0\n      shl\n      dup2\n      mstore\n      0x04\n      add\n      0x20\n      mload(0x40)\n      dup1\n      dup4\n      sub\n      dup2\n      dup7\n      gas\n      staticcall\n      iszero\n      dup1\n      iszero\n      tag_132\n      jumpi\n      returndatasize\n      0x00\n      dup1\n      returndatacopy\n      revert(0x00, returndatasize)\n    tag_132:\n      pop\n      pop\n      pop\n      pop\n      mload(0x40)\n      returndatasize\n      not(0x1f)\n      0x1f\n      dup3\n      add\n      and\n      dup3\n      add\n      dup1\n      0x40\n      mstore\n      pop\n      dup2\n      add\n      swap1\n      tag_133\n      swap2\n      swap1\n      tag_93\n      jump\t// in\n    tag_133:\n        /* \"contracts/Utils.sol\":18982:19010  lpAddress.token1().balanceOf */\n      0xffffffffffffffffffffffffffffffffffffffff\n      and\n      0x70a08231\n        /* \"contracts/Utils.sol\":19019:19028  lpAddress */\n      dup8\n        /* \"contracts/Utils.sol\":18982:19030  lpAddress.token1().balanceOf(address(lpAddress)) */\n      mload(0x40)\n      dup3\n      0xffffffff\n      and\n      0xe0\n      shl\n      dup2\n      mstore\n      0x04\n      add\n      tag_134\n      swap2\n      swap1\n      tag_44\n      jump\t// in\n    tag_134:\n      0x20\n      mload(0x40)\n      dup1\n      dup4\n      sub\n      dup2\n      dup7\n      gas\n      staticcall\n      iszero\n      dup1\n      iszero\n      tag_136\n      jumpi\n      returndatasize\n      0x00\n      dup1\n      returndatacopy\n      revert(0x00, returndatasize)\n    tag_136:\n      pop\n      pop\n      pop\n      pop\n      mload(0x40)\n      returndatasize\n      not(0x1f)\n      0x1f\n      dup3\n      add\n      and\n      dup3\n      add\n      dup1\n      0x40\n      mstore\n      pop\n      dup2\n      add\n      swap1\n      tag_137\n      swap2\n      swap1\n      tag_107\n      jump\t// in\n    tag_137:\n        /* \"contracts/Utils.sol\":18982:19034  lpAddress.token1().balanceOf(address(lpAddress)).mul */\n      tag_108\n      swap1\n        /* \"contracts/Utils.sol\":18982:19074  lpAddress.token1().balanceOf(address(lpAddress)).mul(WBNBPrice(address(lpAddress.token1()))) */\n      swap2\n      swap1\n      0xffffffff\n      and\n      jump\t// in\n    tag_126:\n        /* \"contracts/Utils.sol\":18972:19075  phase2 = (lpAddress.token1().balanceOf(address(lpAddress)).mul(WBNBPrice(address(lpAddress.token1())))) */\n      swap1\n      pop\n        /* \"contracts/Utils.sol\":18909:19222  if(address(WBNB) == address(lpAddress.token1())){... */\n      jump(tag_138)\n    tag_125:\n        /* \"contracts/Utils.sol\":19116:19209  lpAddress.token1().balanceOf(address(lpAddress)).mul(Tokenprice(address(lpAddress.token1()))) */\n      tag_139\n        /* \"contracts/Utils.sol\":19169:19208  Tokenprice(address(lpAddress.token1())) */\n      tag_140\n        /* \"contracts/Utils.sol\":19188:19197  lpAddress */\n      dup6\n        /* \"contracts/Utils.sol\":19188:19204  lpAddress.token1 */\n      0xffffffffffffffffffffffffffffffffffffffff\n      and\n      0xd21220a7\n        /* \"contracts/Utils.sol\":19188:19206  lpAddress.token1() */\n      mload(0x40)\n      dup2\n      0xffffffff\n      and\n      0xe0\n      shl\n      dup2\n      mstore\n      0x04\n      add\n      0x20\n      mload(0x40)\n      dup1\n      dup4\n      sub\n      dup2\n      dup7\n      gas\n      staticcall\n      iszero\n      dup1\n      iszero\n      tag_142\n      jumpi\n      returndatasize\n      0x00\n      dup1\n      returndatacopy\n      revert(0x00, returndatasize)\n    tag_142:\n      pop\n      pop\n      pop\n      pop\n      mload(0x40)\n      returndatasize\n      not(0x1f)\n      0x1f\n      dup3\n      add\n      and\n      dup3\n      add\n      dup1\n      0x40\n      mstore\n      pop\n      dup2\n      add\n      swap1\n      tag_143\n      swap2\n      swap1\n      tag_93\n      jump\t// in\n    tag_143:\n        /* \"contracts/Utils.sol\":19169:19179  Tokenprice */\n      tag_21\n        /* \"contracts/Utils.sol\":19169:19208  Tokenprice(address(lpAddress.token1())) */\n      jump\t// in\n    tag_140:\n        /* \"contracts/Utils.sol\":19116:19125  lpAddress */\n      dup6\n        /* \"contracts/Utils.sol\":19116:19132  lpAddress.token1 */\n      0xffffffffffffffffffffffffffffffffffffffff\n      and\n      0xd21220a7\n        /* \"contracts/Utils.sol\":19116:19134  lpAddress.token1() */\n      mload(0x40)\n      dup2\n      0xffffffff\n      and\n      0xe0\n      shl\n      dup2\n      mstore\n      0x04\n      add\n      0x20\n      mload(0x40)\n      dup1\n      dup4\n      sub\n      dup2\n      dup7\n      gas\n      staticcall\n      iszero\n      dup1\n      iszero\n      tag_145\n      jumpi\n      returndatasize\n      0x00\n      dup1\n      returndatacopy\n      revert(0x00, returndatasize)\n    tag_145:\n      pop\n      pop\n      pop\n      pop\n      mload(0x40)\n      returndatasize\n      not(0x1f)\n      0x1f\n      dup3\n      add\n      and\n      dup3\n      add\n      dup1\n      0x40\n      mstore\n      pop\n      dup2\n      add\n      swap1\n      tag_146\n      swap2\n      swap1\n      tag_93\n      jump\t// in\n    tag_146:\n        /* \"contracts/Utils.sol\":19116:19144  lpAddress.token1().balanceOf */\n      0xffffffffffffffffffffffffffffffffffffffff\n      and\n      0x70a08231\n        /* \"contracts/Utils.sol\":19153:19162  lpAddress */\n      dup8\n        /* \"contracts/Utils.sol\":19116:19164  lpAddress.token1().balanceOf(address(lpAddress)) */\n      mload(0x40)\n      dup3\n      0xffffffff\n      and\n      0xe0\n      shl\n      dup2\n      mstore\n      0x04\n      add\n      tag_147\n      swap2\n      swap1\n      tag_44\n      jump\t// in\n    tag_147:\n      0x20\n      mload(0x40)\n      dup1\n      dup4\n      sub\n      dup2\n      dup7\n      gas\n      staticcall\n      iszero\n      dup1\n      iszero\n      tag_149\n      jumpi\n      returndatasize\n      0x00\n      dup1\n      returndatacopy\n      revert(0x00, returndatasize)\n    tag_149:\n      pop\n      pop\n      pop\n      pop\n      mload(0x40)\n      returndatasize\n      not(0x1f)\n      0x1f\n      dup3\n      add\n      and\n      dup3\n      add\n      dup1\n      0x40\n      mstore\n      pop\n      dup2\n      add\n      swap1\n      tag_150\n      swap2\n      swap1\n      tag_107\n      jump\t// in\n    tag_150:\n        /* \"contracts/Utils.sol\":19116:19168  lpAddress.token1().balanceOf(address(lpAddress)).mul */\n      tag_108\n      swap1\n        /* \"contracts/Utils.sol\":19116:19209  lpAddress.token1().balanceOf(address(lpAddress)).mul(Tokenprice(address(lpAddress.token1()))) */\n      swap2\n      swap1\n      0xffffffff\n      and\n      jump\t// in\n    tag_139:\n        /* \"contracts/Utils.sol\":19106:19210  phase2 = (lpAddress.token1().balanceOf(address(lpAddress)).mul(Tokenprice(address(lpAddress.token1())))) */\n      swap1\n      pop\n        /* \"contracts/Utils.sol\":18909:19222  if(address(WBNB) == address(lpAddress.token1())){... */\n    tag_138:\n        /* \"contracts/Utils.sol\":19250:19299  (phase1.add(phase2)).div(lpAddress.totalSupply()) */\n      tag_151\n        /* \"contracts/Utils.sol\":19275:19284  lpAddress */\n      dup5\n        /* \"contracts/Utils.sol\":19275:19296  lpAddress.totalSupply */\n      0xffffffffffffffffffffffffffffffffffffffff\n      and\n      0x18160ddd\n        /* \"contracts/Utils.sol\":19275:19298  lpAddress.totalSupply() */\n      mload(0x40)\n      dup2\n      0xffffffff\n      and\n      0xe0\n      shl\n      dup2\n      mstore\n      0x04\n      add\n      0x20\n      mload(0x40)\n      dup1\n      dup4\n      sub\n      dup2\n      dup7\n      gas\n      staticcall\n      iszero\n      dup1\n      iszero\n      tag_153\n      jumpi\n      returndatasize\n      0x00\n      dup1\n      returndatacopy\n      revert(0x00, returndatasize)\n    tag_153:\n      pop\n      pop\n      pop\n      pop\n      mload(0x40)\n      returndatasize\n      not(0x1f)\n      0x1f\n      dup3\n      add\n      and\n      dup3\n      add\n      dup1\n      0x40\n      mstore\n      pop\n      dup2\n      add\n      swap1\n      tag_154\n      swap2\n      swap1\n      tag_107\n      jump\t// in\n    tag_154:\n        /* \"contracts/Utils.sol\":19251:19269  phase1.add(phase2) */\n      tag_155\n        /* \"contracts/Utils.sol\":19262:19268  phase2 */\n      dup4\n        /* \"contracts/Utils.sol\":19251:19257  phase1 */\n      dup6\n        /* \"contracts/Utils.sol\":19251:19261  phase1.add */\n      tag_156\n      swap1\n        /* \"contracts/Utils.sol\":19251:19269  phase1.add(phase2) */\n      swap2\n      swap1\n      0xffffffff\n      and\n      jump\t// in\n    tag_155:\n        /* \"contracts/Utils.sol\":19250:19274  (phase1.add(phase2)).div */\n      tag_157\n      swap1\n        /* \"contracts/Utils.sol\":19250:19299  (phase1.add(phase2)).div(lpAddress.totalSupply()) */\n      swap2\n      swap1\n      0xffffffff\n      and\n      jump\t// in\n    tag_151:\n        /* \"contracts/Utils.sol\":19242:19300  return ((phase1.add(phase2)).div(lpAddress.totalSupply())) */\n      swap3\n      pop\n      pop\n      pop\n        /* \"contracts/Utils.sol\":18460:19308  function CalcLpPrice(LP lpAddress) public view returns(uint256){... */\n      swap2\n      swap1\n      pop\n      jump\t// out\n        /* \"contracts/Utils.sol\":20620:20801  function isLpAddress(LP lpAddress) external view returns(uint256){... */\n    tag_31:\n        /* \"contracts/Utils.sol\":20677:20684  uint256 */\n      0x00\n        /* \"contracts/Utils.sol\":20700:20709  lpAddress */\n      dup2\n        /* \"contracts/Utils.sol\":20700:20716  lpAddress.token0 */\n      0xffffffffffffffffffffffffffffffffffffffff\n      and\n      0x0dfe1681\n        /* \"contracts/Utils.sol\":20700:20718  lpAddress.token0() */\n      mload(0x40)\n      dup2\n      0xffffffff\n      and\n      0xe0\n      shl\n      dup2\n      mstore\n      0x04\n      add\n      0x20\n      mload(0x40)\n      dup1\n      dup4\n      sub\n      dup2\n      dup7\n      gas\n      staticcall\n      swap3\n      pop\n      pop\n      pop\n      dup1\n      iszero\n      tag_159\n      jumpi\n      pop\n      mload(0x40)\n      returndatasize\n      not(0x1f)\n      0x1f\n      dup3\n      add\n      and\n      dup3\n      add\n      dup1\n      0x40\n      mstore\n      pop\n      dup2\n      add\n      swap1\n      tag_160\n      swap2\n      swap1\n      tag_93\n      jump\t// in\n    tag_160:\n      0x01\n    tag_159:\n        /* \"contracts/Utils.sol\":20696:20794  try lpAddress.token0() {... */\n      tag_161\n      jumpi\n        /* \"contracts/Utils.sol\":20781:20782  0 */\n      0x00\n        /* \"contracts/Utils.sol\":20774:20782  return 0 */\n      swap1\n      pop\n      jump(tag_158)\n        /* \"contracts/Utils.sol\":20696:20794  try lpAddress.token0() {... */\n    tag_161:\n      pop\n        /* \"contracts/Utils.sol\":20741:20742  1 */\n      0x01\n        /* \"contracts/Utils.sol\":20734:20742  return 1 */\n      swap1\n      pop\n        /* \"contracts/Utils.sol\":20620:20801  function isLpAddress(LP lpAddress) external view returns(uint256){... */\n    tag_158:\n      swap2\n      swap1\n      pop\n      jump\t// out\n        /* \"contracts/Utils.sol\":17535:17562  Router public routerAddress */\n    tag_34:\n      0x04\n      0x00\n      swap1\n      sload\n      swap1\n      0x0100\n      exp\n      swap1\n      div\n      0xffffffffffffffffffffffffffffffffffffffff\n      and\n      dup2\n      jump\t// out\n        /* \"contracts/Utils.sol\":18202:18435  function WBNBPrice(address token) public view returns(uint256){... */\n    tag_39:\n        /* \"contracts/Utils.sol\":18256:18263  uint256 */\n      0x00\n        /* \"contracts/Utils.sol\":18275:18296  address[] memory path */\n      dup1\n        /* \"contracts/Utils.sol\":18313:18314  2 */\n      0x02\n        /* \"contracts/Utils.sol\":18299:18315  new address[](2) */\n      0xffffffffffffffff\n      dup2\n      gt\n      iszero\n      tag_167\n      jumpi\n      tag_168\n      tag_72\n      jump\t// in\n    tag_168:\n    tag_167:\n      mload(0x40)\n      swap1\n      dup1\n      dup3\n      mstore\n      dup1\n      0x20\n      mul\n      0x20\n      add\n      dup3\n      add\n      0x40\n      mstore\n      dup1\n      iszero\n      tag_169\n      jumpi\n      dup2\n      0x20\n      add\n      0x20\n      dup3\n      mul\n      dup1\n      calldatasize\n      dup4\n      calldatacopy\n      dup1\n      dup3\n      add\n      swap2\n      pop\n      pop\n      swap1\n      pop\n    tag_169:\n      pop\n        /* \"contracts/Utils.sol\":18275:18315  address[] memory path = new address[](2) */\n      swap1\n      pop\n        /* \"contracts/Utils.sol\":18336:18341  token */\n      dup3\n        /* \"contracts/Utils.sol\":18326:18330  path */\n      dup2\n        /* \"contracts/Utils.sol\":18331:18332  0 */\n      0x00\n        /* \"contracts/Utils.sol\":18326:18333  path[0] */\n      dup2\n      mload\n      dup2\n      lt\n      tag_170\n      jumpi\n      tag_171\n      tag_76\n      jump\t// in\n    tag_171:\n    tag_170:\n      0x20\n      mul\n      0x20\n      add\n      add\n        /* \"contracts/Utils.sol\":18326:18341  path[0] = token */\n      swap1\n      0xffffffffffffffffffffffffffffffffffffffff\n      and\n      swap1\n      dup2\n      0xffffffffffffffffffffffffffffffffffffffff\n      and\n      dup2\n      mstore\n      pop\n      pop\n        /* \"contracts/Utils.sol\":18362:18366  BUSD */\n      0x02\n      0x00\n      swap1\n      sload\n      swap1\n      0x0100\n      exp\n      swap1\n      div\n      0xffffffffffffffffffffffffffffffffffffffff\n      and\n        /* \"contracts/Utils.sol\":18352:18356  path */\n      dup2\n        /* \"contracts/Utils.sol\":18357:18358  1 */\n      0x01\n        /* \"contracts/Utils.sol\":18352:18359  path[1] */\n      dup2\n      mload\n      dup2\n      lt\n      tag_172\n      jumpi\n      tag_173\n      tag_76\n      jump\t// in\n    tag_173:\n    tag_172:\n      0x20\n      mul\n      0x20\n      add\n      add\n        /* \"contracts/Utils.sol\":18352:18366  path[1] = BUSD */\n      swap1\n      0xffffffffffffffffffffffffffffffffffffffff\n      and\n      swap1\n      dup2\n      0xffffffffffffffffffffffffffffffffffffffff\n      and\n      dup2\n      mstore\n      pop\n      pop\n        /* \"contracts/Utils.sol\":18384:18397  routerAddress */\n      0x04\n      0x00\n      swap1\n      sload\n      swap1\n      0x0100\n      exp\n      swap1\n      div\n      0xffffffffffffffffffffffffffffffffffffffff\n      and\n        /* \"contracts/Utils.sol\":18384:18411  routerAddress.getAmountsOut */\n      0xffffffffffffffffffffffffffffffffffffffff\n      and\n      0xd06ca61f\n        /* \"contracts/Utils.sol\":18412:18418  amount */\n      sload(0x03)\n        /* \"contracts/Utils.sol\":18419:18423  path */\n      dup4\n        /* \"contracts/Utils.sol\":18384:18424  routerAddress.getAmountsOut(amount,path) */\n      mload(0x40)\n      dup4\n      0xffffffff\n      and\n      0xe0\n      shl\n      dup2\n      mstore\n      0x04\n      add\n      tag_174\n      swap3\n      swap2\n      swap1\n      tag_82\n      jump\t// in\n    tag_174:\n      0x00\n      mload(0x40)\n      dup1\n      dup4\n      sub\n      dup2\n      dup7\n      gas\n      staticcall\n      iszero\n      dup1\n      iszero\n      tag_176\n      jumpi\n      returndatasize\n      0x00\n      dup1\n      returndatacopy\n      revert(0x00, returndatasize)\n    tag_176:\n      pop\n      pop\n      pop\n      pop\n      mload(0x40)\n      returndatasize\n      0x00\n      dup3\n      returndatacopy\n      returndatasize\n      not(0x1f)\n      0x1f\n      dup3\n      add\n      and\n      dup3\n      add\n      dup1\n      0x40\n      mstore\n      pop\n      dup2\n      add\n      swap1\n      tag_177\n      swap2\n      swap1\n      tag_86\n      jump\t// in\n    tag_177:\n        /* \"contracts/Utils.sol\":18425:18426  1 */\n      0x01\n        /* \"contracts/Utils.sol\":18384:18427  routerAddress.getAmountsOut(amount,path)[1] */\n      dup2\n      mload\n      dup2\n      lt\n      tag_178\n      jumpi\n      tag_179\n      tag_76\n      jump\t// in\n    tag_179:\n    tag_178:\n      0x20\n      mul\n      0x20\n      add\n      add\n      mload\n        /* \"contracts/Utils.sol\":18377:18427  return routerAddress.getAmountsOut(amount,path)[1] */\n      swap2\n      pop\n      pop\n        /* \"contracts/Utils.sol\":18202:18435  function WBNBPrice(address token) public view returns(uint256){... */\n      swap2\n      swap1\n      pop\n      jump\t// out\n        /* \"contracts/Utils.sol\":17466:17485  address public BUSD */\n    tag_42:\n      0x02\n      0x00\n      swap1\n      sload\n      swap1\n      0x0100\n      exp\n      swap1\n      div\n      0xffffffffffffffffffffffffffffffffffffffff\n      and\n      dup2\n      jump\t// out\n        /* \"contracts/Utils.sol\":14500:14603  function renounceOwnership() public virtual onlyOwner {... */\n    tag_46:\n        /* \"contracts/Utils.sol\":14080:14092  _msgSender() */\n      tag_181\n        /* \"contracts/Utils.sol\":14080:14090  _msgSender */\n      tag_182\n        /* \"contracts/Utils.sol\":14080:14092  _msgSender() */\n      jump\t// in\n    tag_181:\n        /* \"contracts/Utils.sol\":14069:14092  owner() == _msgSender() */\n      0xffffffffffffffffffffffffffffffffffffffff\n      and\n        /* \"contracts/Utils.sol\":14069:14076  owner() */\n      tag_183\n        /* \"contracts/Utils.sol\":14069:14074  owner */\n      tag_48\n        /* \"contracts/Utils.sol\":14069:14076  owner() */\n      jump\t// in\n    tag_183:\n        /* \"contracts/Utils.sol\":14069:14092  owner() == _msgSender() */\n      0xffffffffffffffffffffffffffffffffffffffff\n      and\n      eq\n        /* \"contracts/Utils.sol\":14061:14129  require(owner() == _msgSender(), \"Ownable: caller is not the owner\") */\n      tag_184\n      jumpi\n      mload(0x40)\n      0x08c379a000000000000000000000000000000000000000000000000000000000\n      dup2\n      mstore\n      0x04\n      add\n      tag_185\n      swap1\n      tag_186\n      jump\t// in\n    tag_185:\n      mload(0x40)\n      dup1\n      swap2\n      sub\n      swap1\n      revert\n    tag_184:\n        /* \"contracts/Utils.sol\":14565:14595  _transferOwnership(address(0)) */\n      tag_188\n        /* \"contracts/Utils.sol\":14592:14593  0 */\n      0x00\n        /* \"contracts/Utils.sol\":14565:14583  _transferOwnership */\n      tag_189\n        /* \"contracts/Utils.sol\":14565:14595  _transferOwnership(address(0)) */\n      jump\t// in\n    tag_188:\n        /* \"contracts/Utils.sol\":14500:14603  function renounceOwnership() public virtual onlyOwner {... */\n      jump\t// out\n        /* \"contracts/Utils.sol\":13849:13936  function owner() public view virtual returns (address) {... */\n    tag_48:\n        /* \"contracts/Utils.sol\":13895:13902  address */\n      0x00\n        /* \"contracts/Utils.sol\":13922:13928  _owner */\n      dup1\n      0x00\n      swap1\n      sload\n      swap1\n      0x0100\n      exp\n      swap1\n      div\n      0xffffffffffffffffffffffffffffffffffffffff\n      and\n        /* \"contracts/Utils.sol\":13915:13928  return _owner */\n      swap1\n      pop\n        /* \"contracts/Utils.sol\":13849:13936  function owner() public view virtual returns (address) {... */\n      swap1\n      jump\t// out\n        /* \"contracts/Utils.sol\":17440:17459  address public WBNB */\n    tag_51:\n      0x01\n      0x00\n      swap1\n      sload\n      swap1\n      0x0100\n      exp\n      swap1\n      div\n      0xffffffffffffffffffffffffffffffffffffffff\n      and\n      dup2\n      jump\t// out\n        /* \"contracts/Utils.sol\":17786:17893  function setRouter(Router _routerAddress) public onlyOwner{... */\n    tag_56:\n        /* \"contracts/Utils.sol\":14080:14092  _msgSender() */\n      tag_192\n        /* \"contracts/Utils.sol\":14080:14090  _msgSender */\n      tag_182\n        /* \"contracts/Utils.sol\":14080:14092  _msgSender() */\n      jump\t// in\n    tag_192:\n        /* \"contracts/Utils.sol\":14069:14092  owner() == _msgSender() */\n      0xffffffffffffffffffffffffffffffffffffffff\n      and\n        /* \"contracts/Utils.sol\":14069:14076  owner() */\n      tag_193\n        /* \"contracts/Utils.sol\":14069:14074  owner */\n      tag_48\n        /* \"contracts/Utils.sol\":14069:14076  owner() */\n      jump\t// in\n    tag_193:\n        /* \"contracts/Utils.sol\":14069:14092  owner() == _msgSender() */\n      0xffffffffffffffffffffffffffffffffffffffff\n      and\n      eq\n        /* \"contracts/Utils.sol\":14061:14129  require(owner() == _msgSender(), \"Ownable: caller is not the owner\") */\n      tag_194\n      jumpi\n      mload(0x40)\n      0x08c379a000000000000000000000000000000000000000000000000000000000\n      dup2\n      mstore\n      0x04\n      add\n      tag_195\n      swap1\n      tag_186\n      jump\t// in\n    tag_195:\n      mload(0x40)\n      dup1\n      swap2\n      sub\n      swap1\n      revert\n    tag_194:\n        /* \"contracts/Utils.sol\":17871:17885  _routerAddress */\n      dup1\n        /* \"contracts/Utils.sol\":17855:17868  routerAddress */\n      0x04\n      0x00\n        /* \"contracts/Utils.sol\":17855:17885  routerAddress = _routerAddress */\n      0x0100\n      exp\n      dup2\n      sload\n      dup2\n      0xffffffffffffffffffffffffffffffffffffffff\n      mul\n      not\n      and\n      swap1\n      dup4\n      0xffffffffffffffffffffffffffffffffffffffff\n      and\n      mul\n      or\n      swap1\n      sstore\n      pop\n        /* \"contracts/Utils.sol\":17786:17893  function setRouter(Router _routerAddress) public onlyOwner{... */\n      pop\n      jump\t// out\n        /* \"contracts/Utils.sol\":19331:19902  function calcPoolTVLInUSD(uint256 pid, LP lpAddress, uint256 isLp, MetaMasterChef MasterChef) public view returns(uint256){... */\n    tag_60:\n        /* \"contracts/Utils.sol\":19445:19452  uint256 */\n      0x00\n        /* \"contracts/Utils.sol\":19464:19479  uint256 Balance */\n      dup1\n        /* \"contracts/Utils.sol\":19482:19492  MasterChef */\n      dup3\n        /* \"contracts/Utils.sol\":19482:19504  MasterChef.poolBalance */\n      0xffffffffffffffffffffffffffffffffffffffff\n      and\n      0x6a6d964e\n        /* \"contracts/Utils.sol\":19505:19508  pid */\n      dup8\n        /* \"contracts/Utils.sol\":19482:19509  MasterChef.poolBalance(pid) */\n      mload(0x40)\n      dup3\n      0xffffffff\n      and\n      0xe0\n      shl\n      dup2\n      mstore\n      0x04\n      add\n      tag_198\n      swap2\n      swap1\n      tag_23\n      jump\t// in\n    tag_198:\n      0x20\n      mload(0x40)\n      dup1\n      dup4\n      sub\n      dup2\n      dup7\n      gas\n      staticcall\n      iszero\n      dup1\n      iszero\n      tag_200\n      jumpi\n      returndatasize\n      0x00\n      dup1\n      returndatacopy\n      revert(0x00, returndatasize)\n    tag_200:\n      pop\n      pop\n      pop\n      pop\n      mload(0x40)\n      returndatasize\n      not(0x1f)\n      0x1f\n      dup3\n      add\n      and\n      dup3\n      add\n      dup1\n      0x40\n      mstore\n      pop\n      dup2\n      add\n      swap1\n      tag_201\n      swap2\n      swap1\n      tag_107\n      jump\t// in\n    tag_201:\n        /* \"contracts/Utils.sol\":19464:19509  uint256 Balance = MasterChef.poolBalance(pid) */\n      swap1\n      pop\n        /* \"contracts/Utils.sol\":19520:19533  uint256 price */\n      0x00\n        /* \"contracts/Utils.sol\":19555:19556  1 */\n      0x01\n        /* \"contracts/Utils.sol\":19547:19551  isLp */\n      dup6\n        /* \"contracts/Utils.sol\":19547:19556  isLp == 1 */\n      sub\n        /* \"contracts/Utils.sol\":19544:19846  if(isLp == 1){... */\n      tag_202\n      jumpi\n        /* \"contracts/Utils.sol\":19580:19602  CalcLpPrice(lpAddress) */\n      tag_203\n        /* \"contracts/Utils.sol\":19592:19601  lpAddress */\n      dup7\n        /* \"contracts/Utils.sol\":19580:19591  CalcLpPrice */\n      tag_27\n        /* \"contracts/Utils.sol\":19580:19602  CalcLpPrice(lpAddress) */\n      jump\t// in\n    tag_203:\n        /* \"contracts/Utils.sol\":19572:19602  price = CalcLpPrice(lpAddress) */\n      swap1\n      pop\n        /* \"contracts/Utils.sol\":19544:19846  if(isLp == 1){... */\n      jump(tag_204)\n    tag_202:\n        /* \"contracts/Utils.sol\":19630:19631  0 */\n      0x00\n        /* \"contracts/Utils.sol\":19622:19626  isLp */\n      dup6\n        /* \"contracts/Utils.sol\":19622:19631  isLp == 0 */\n      sub\n        /* \"contracts/Utils.sol\":19619:19846  if(isLp == 0){... */\n      tag_205\n      jumpi\n        /* \"contracts/Utils.sol\":19675:19684  lpAddress */\n      dup6\n        /* \"contracts/Utils.sol\":19650:19685  address(WBNB) == address(lpAddress) */\n      0xffffffffffffffffffffffffffffffffffffffff\n      and\n        /* \"contracts/Utils.sol\":19658:19662  WBNB */\n      0x01\n      0x00\n      swap1\n      sload\n      swap1\n      0x0100\n      exp\n      swap1\n      div\n      0xffffffffffffffffffffffffffffffffffffffff\n      and\n        /* \"contracts/Utils.sol\":19650:19685  address(WBNB) == address(lpAddress) */\n      0xffffffffffffffffffffffffffffffffffffffff\n      and\n      sub\n        /* \"contracts/Utils.sol\":19647:19835  if(address(WBNB) == address(lpAddress)){... */\n      tag_206\n      jumpi\n        /* \"contracts/Utils.sol\":19713:19742  WBNBPrice(address(lpAddress)) */\n      tag_207\n        /* \"contracts/Utils.sol\":19731:19740  lpAddress */\n      dup7\n        /* \"contracts/Utils.sol\":19713:19722  WBNBPrice */\n      tag_39\n        /* \"contracts/Utils.sol\":19713:19742  WBNBPrice(address(lpAddress)) */\n      jump\t// in\n    tag_207:\n        /* \"contracts/Utils.sol\":19705:19742  price = WBNBPrice(address(lpAddress)) */\n      swap1\n      pop\n        /* \"contracts/Utils.sol\":19647:19835  if(address(WBNB) == address(lpAddress)){... */\n      jump(tag_208)\n    tag_206:\n        /* \"contracts/Utils.sol\":19789:19819  Tokenprice(address(lpAddress)) */\n      tag_209\n        /* \"contracts/Utils.sol\":19808:19817  lpAddress */\n      dup7\n        /* \"contracts/Utils.sol\":19789:19799  Tokenprice */\n      tag_21\n        /* \"contracts/Utils.sol\":19789:19819  Tokenprice(address(lpAddress)) */\n      jump\t// in\n    tag_209:\n        /* \"contracts/Utils.sol\":19781:19819  price = Tokenprice(address(lpAddress)) */\n      swap1\n      pop\n        /* \"contracts/Utils.sol\":19647:19835  if(address(WBNB) == address(lpAddress)){... */\n    tag_208:\n        /* \"contracts/Utils.sol\":19619:19846  if(isLp == 0){... */\n    tag_205:\n        /* \"contracts/Utils.sol\":19544:19846  if(isLp == 1){... */\n    tag_204:\n        /* \"contracts/Utils.sol\":19865:19894  (Balance * price).div(amount) */\n      tag_210\n        /* \"contracts/Utils.sol\":19887:19893  amount */\n      sload(0x03)\n        /* \"contracts/Utils.sol\":19876:19881  price */\n      dup3\n        /* \"contracts/Utils.sol\":19866:19873  Balance */\n      dup5\n        /* \"contracts/Utils.sol\":19866:19881  Balance * price */\n      tag_211\n      swap2\n      swap1\n      tag_212\n      jump\t// in\n    tag_211:\n        /* \"contracts/Utils.sol\":19865:19886  (Balance * price).div */\n      tag_157\n      swap1\n        /* \"contracts/Utils.sol\":19865:19894  (Balance * price).div(amount) */\n      swap2\n      swap1\n      0xffffffff\n      and\n      jump\t// in\n    tag_210:\n        /* \"contracts/Utils.sol\":19858:19894  return (Balance * price).div(amount) */\n      swap3\n      pop\n      pop\n      pop\n        /* \"contracts/Utils.sol\":19331:19902  function calcPoolTVLInUSD(uint256 pid, LP lpAddress, uint256 isLp, MetaMasterChef MasterChef) public view returns(uint256){... */\n      swap5\n      swap4\n      pop\n      pop\n      pop\n      pop\n      jump\t// out\n        /* \"contracts/Utils.sol\":19910:20612  function CalcApy(uint256 pid, LP lpAddress,uint256 isLp, MetaMasterChef MasterChef) external view returns(uint256){... */\n    tag_64:\n        /* \"contracts/Utils.sol\":20016:20023  uint256 */\n      0x00\n        /* \"contracts/Utils.sol\":20035:20055  PoolInfo memory pool */\n      dup1\n        /* \"contracts/Utils.sol\":20058:20068  MasterChef */\n      dup3\n        /* \"contracts/Utils.sol\":20058:20077  MasterChef.poolInfo */\n      0xffffffffffffffffffffffffffffffffffffffff\n      and\n      0x1526fe27\n        /* \"contracts/Utils.sol\":20078:20081  pid */\n      dup8\n        /* \"contracts/Utils.sol\":20058:20082  MasterChef.poolInfo(pid) */\n      mload(0x40)\n      dup3\n      0xffffffff\n      and\n      0xe0\n      shl\n      dup2\n      mstore\n      0x04\n      add\n      tag_214\n      swap2\n      swap1\n      tag_23\n      jump\t// in\n    tag_214:\n      0xc0\n      mload(0x40)\n      dup1\n      dup4\n      sub\n      dup2\n      dup7\n      gas\n      staticcall\n      iszero\n      dup1\n      iszero\n      tag_216\n      jumpi\n      returndatasize\n      0x00\n      dup1\n      returndatacopy\n      revert(0x00, returndatasize)\n    tag_216:\n      pop\n      pop\n      pop\n      pop\n      mload(0x40)\n      returndatasize\n      not(0x1f)\n      0x1f\n      dup3\n      add\n      and\n      dup3\n      add\n      dup1\n      0x40\n      mstore\n      pop\n      dup2\n      add\n      swap1\n      tag_217\n      swap2\n      swap1\n      tag_218\n      jump\t// in\n    tag_217:\n        /* \"contracts/Utils.sol\":20035:20082  PoolInfo memory pool = MasterChef.poolInfo(pid) */\n      swap1\n      pop\n        /* \"contracts/Utils.sol\":20093:20111  uint256 poolWeight */\n      0x00\n        /* \"contracts/Utils.sol\":20114:20179  ((pool.allocPoint).mul(amount)).div(MasterChef.totalAllocPoint()) */\n      tag_219\n        /* \"contracts/Utils.sol\":20150:20160  MasterChef */\n      dup5\n        /* \"contracts/Utils.sol\":20150:20176  MasterChef.totalAllocPoint */\n      0xffffffffffffffffffffffffffffffffffffffff\n      and\n      0x17caf6f1\n        /* \"contracts/Utils.sol\":20150:20178  MasterChef.totalAllocPoint() */\n      mload(0x40)\n      dup2\n      0xffffffff\n      and\n      0xe0\n      shl\n      dup2\n      mstore\n      0x04\n      add\n      0x20\n      mload(0x40)\n      dup1\n      dup4\n      sub\n      dup2\n      dup7\n      gas\n      staticcall\n      iszero\n      dup1\n      iszero\n      tag_221\n      jumpi\n      returndatasize\n      0x00\n      dup1\n      returndatacopy\n      revert(0x00, returndatasize)\n    tag_221:\n      pop\n      pop\n      pop\n      pop\n      mload(0x40)\n      returndatasize\n      not(0x1f)\n      0x1f\n      dup3\n      add\n      and\n      dup3\n      add\n      dup1\n      0x40\n      mstore\n      pop\n      dup2\n      add\n      swap1\n      tag_222\n      swap2\n      swap1\n      tag_107\n      jump\t// in\n    tag_222:\n        /* \"contracts/Utils.sol\":20115:20144  (pool.allocPoint).mul(amount) */\n      tag_223\n        /* \"contracts/Utils.sol\":20137:20143  amount */\n      sload(0x03)\n        /* \"contracts/Utils.sol\":20116:20120  pool */\n      dup6\n        /* \"contracts/Utils.sol\":20116:20131  pool.allocPoint */\n      0x20\n      add\n      mload\n        /* \"contracts/Utils.sol\":20115:20136  (pool.allocPoint).mul */\n      tag_108\n      swap1\n        /* \"contracts/Utils.sol\":20115:20144  (pool.allocPoint).mul(amount) */\n      swap2\n      swap1\n      0xffffffff\n      and\n      jump\t// in\n    tag_223:\n        /* \"contracts/Utils.sol\":20114:20149  ((pool.allocPoint).mul(amount)).div */\n      tag_157\n      swap1\n        /* \"contracts/Utils.sol\":20114:20179  ((pool.allocPoint).mul(amount)).div(MasterChef.totalAllocPoint()) */\n      swap2\n      swap1\n      0xffffffff\n      and\n      jump\t// in\n    tag_219:\n        /* \"contracts/Utils.sol\":20093:20179  uint256 poolWeight = ((pool.allocPoint).mul(amount)).div(MasterChef.totalAllocPoint()) */\n      swap1\n      pop\n        /* \"contracts/Utils.sol\":20190:20214  uint256 rewardTokenPrice */\n      0x00\n        /* \"contracts/Utils.sol\":20217:20245  Tokenprice(MasterChef.DRG()) */\n      tag_224\n        /* \"contracts/Utils.sol\":20228:20238  MasterChef */\n      dup6\n        /* \"contracts/Utils.sol\":20228:20242  MasterChef.DRG */\n      0xffffffffffffffffffffffffffffffffffffffff\n      and\n      0x141aa0ba\n        /* \"contracts/Utils.sol\":20228:20244  MasterChef.DRG() */\n      mload(0x40)\n      dup2\n      0xffffffff\n      and\n      0xe0\n      shl\n      dup2\n      mstore\n      0x04\n      add\n      0x20\n      mload(0x40)\n      dup1\n      dup4\n      sub\n      dup2\n      dup7\n      gas\n      staticcall\n      iszero\n      dup1\n      iszero\n      tag_226\n      jumpi\n      returndatasize\n      0x00\n      dup1\n      returndatacopy\n      revert(0x00, returndatasize)\n    tag_226:\n      pop\n      pop\n      pop\n      pop\n      mload(0x40)\n      returndatasize\n      not(0x1f)\n      0x1f\n      dup3\n      add\n      and\n      dup3\n      add\n      dup1\n      0x40\n      mstore\n      pop\n      dup2\n      add\n      swap1\n      tag_227\n      swap2\n      swap1\n      tag_228\n      jump\t// in\n    tag_227:\n        /* \"contracts/Utils.sol\":20217:20227  Tokenprice */\n      tag_21\n        /* \"contracts/Utils.sol\":20217:20245  Tokenprice(MasterChef.DRG()) */\n      jump\t// in\n    tag_224:\n        /* \"contracts/Utils.sol\":20190:20245  uint256 rewardTokenPrice = Tokenprice(MasterChef.DRG()) */\n      swap1\n      pop\n        /* \"contracts/Utils.sol\":20256:20276  uint256 DRG_PER_YEAR */\n      0x00\n        /* \"contracts/Utils.sol\":20279:20324  BLOCKS_PER_YEAR.mul(MasterChef.DRGPerBlock()) */\n      tag_229\n        /* \"contracts/Utils.sol\":20299:20309  MasterChef */\n      dup7\n        /* \"contracts/Utils.sol\":20299:20321  MasterChef.DRGPerBlock */\n      0xffffffffffffffffffffffffffffffffffffffff\n      and\n      0xa1eef821\n        /* \"contracts/Utils.sol\":20299:20323  MasterChef.DRGPerBlock() */\n      mload(0x40)\n      dup2\n      0xffffffff\n      and\n      0xe0\n      shl\n      dup2\n      mstore\n      0x04\n      add\n      0x20\n      mload(0x40)\n      dup1\n      dup4\n      sub\n      dup2\n      dup7\n      gas\n      staticcall\n      iszero\n      dup1\n      iszero\n      tag_231\n      jumpi\n      returndatasize\n      0x00\n      dup1\n      returndatacopy\n      revert(0x00, returndatasize)\n    tag_231:\n      pop\n      pop\n      pop\n      pop\n      mload(0x40)\n      returndatasize\n      not(0x1f)\n      0x1f\n      dup3\n      add\n      and\n      dup3\n      add\n      dup1\n      0x40\n      mstore\n      pop\n      dup2\n      add\n      swap1\n      tag_232\n      swap2\n      swap1\n      tag_107\n      jump\t// in\n    tag_232:\n        /* \"contracts/Utils.sol\":20279:20294  BLOCKS_PER_YEAR */\n      sload(0x05)\n        /* \"contracts/Utils.sol\":20279:20298  BLOCKS_PER_YEAR.mul */\n      tag_108\n      swap1\n        /* \"contracts/Utils.sol\":20279:20324  BLOCKS_PER_YEAR.mul(MasterChef.DRGPerBlock()) */\n      swap2\n      swap1\n      0xffffffff\n      and\n      jump\t// in\n    tag_229:\n        /* \"contracts/Utils.sol\":20256:20324  uint256 DRG_PER_YEAR = BLOCKS_PER_YEAR.mul(MasterChef.DRGPerBlock()) */\n      swap1\n      pop\n        /* \"contracts/Utils.sol\":20335:20368  uint256 yearlyDRGRewardAllocation */\n      0x00\n        /* \"contracts/Utils.sol\":20371:20413  (DRG_PER_YEAR.mul(poolWeight)).div(amount) */\n      tag_233\n        /* \"contracts/Utils.sol\":20406:20412  amount */\n      sload(0x03)\n        /* \"contracts/Utils.sol\":20372:20400  DRG_PER_YEAR.mul(poolWeight) */\n      tag_234\n        /* \"contracts/Utils.sol\":20389:20399  poolWeight */\n      dup7\n        /* \"contracts/Utils.sol\":20372:20384  DRG_PER_YEAR */\n      dup6\n        /* \"contracts/Utils.sol\":20372:20388  DRG_PER_YEAR.mul */\n      tag_108\n      swap1\n        /* \"contracts/Utils.sol\":20372:20400  DRG_PER_YEAR.mul(poolWeight) */\n      swap2\n      swap1\n      0xffffffff\n      and\n      jump\t// in\n    tag_234:\n        /* \"contracts/Utils.sol\":20371:20405  (DRG_PER_YEAR.mul(poolWeight)).div */\n      tag_157\n      swap1\n        /* \"contracts/Utils.sol\":20371:20413  (DRG_PER_YEAR.mul(poolWeight)).div(amount) */\n      swap2\n      swap1\n      0xffffffff\n      and\n      jump\t// in\n    tag_233:\n        /* \"contracts/Utils.sol\":20335:20413  uint256 yearlyDRGRewardAllocation = (DRG_PER_YEAR.mul(poolWeight)).div(amount) */\n      swap1\n      pop\n        /* \"contracts/Utils.sol\":20424:20448  uint256 poolLiquidityUsd */\n      0x00\n        /* \"contracts/Utils.sol\":20451:20501  calcPoolTVLInUSD(pid, lpAddress, isLp, MasterChef) */\n      tag_235\n        /* \"contracts/Utils.sol\":20468:20471  pid */\n      dup12\n        /* \"contracts/Utils.sol\":20473:20482  lpAddress */\n      dup12\n        /* \"contracts/Utils.sol\":20484:20488  isLp */\n      dup12\n        /* \"contracts/Utils.sol\":20490:20500  MasterChef */\n      dup12\n        /* \"contracts/Utils.sol\":20451:20467  calcPoolTVLInUSD */\n      tag_60\n        /* \"contracts/Utils.sol\":20451:20501  calcPoolTVLInUSD(pid, lpAddress, isLp, MasterChef) */\n      jump\t// in\n    tag_235:\n        /* \"contracts/Utils.sol\":20424:20501  uint256 poolLiquidityUsd = calcPoolTVLInUSD(pid, lpAddress, isLp, MasterChef) */\n      swap1\n      pop\n        /* \"contracts/Utils.sol\":20520:20604  (((yearlyDRGRewardAllocation.mul(rewardTokenPrice))).div(poolLiquidityUsd)).mul(100) */\n      tag_236\n        /* \"contracts/Utils.sol\":20600:20603  100 */\n      0x64\n        /* \"contracts/Utils.sol\":20521:20594  ((yearlyDRGRewardAllocation.mul(rewardTokenPrice))).div(poolLiquidityUsd) */\n      tag_237\n        /* \"contracts/Utils.sol\":20577:20593  poolLiquidityUsd */\n      dup4\n        /* \"contracts/Utils.sol\":20523:20570  yearlyDRGRewardAllocation.mul(rewardTokenPrice) */\n      tag_238\n        /* \"contracts/Utils.sol\":20553:20569  rewardTokenPrice */\n      dup9\n        /* \"contracts/Utils.sol\":20523:20548  yearlyDRGRewardAllocation */\n      dup8\n        /* \"contracts/Utils.sol\":20523:20552  yearlyDRGRewardAllocation.mul */\n      tag_108\n      swap1\n        /* \"contracts/Utils.sol\":20523:20570  yearlyDRGRewardAllocation.mul(rewardTokenPrice) */\n      swap2\n      swap1\n      0xffffffff\n      and\n      jump\t// in\n    tag_238:\n        /* \"contracts/Utils.sol\":20521:20576  ((yearlyDRGRewardAllocation.mul(rewardTokenPrice))).div */\n      tag_157\n      swap1\n        /* \"contracts/Utils.sol\":20521:20594  ((yearlyDRGRewardAllocation.mul(rewardTokenPrice))).div(poolLiquidityUsd) */\n      swap2\n      swap1\n      0xffffffff\n      and\n      jump\t// in\n    tag_237:\n        /* \"contracts/Utils.sol\":20520:20599  (((yearlyDRGRewardAllocation.mul(rewardTokenPrice))).div(poolLiquidityUsd)).mul */\n      tag_108\n      swap1\n        /* \"contracts/Utils.sol\":20520:20604  (((yearlyDRGRewardAllocation.mul(rewardTokenPrice))).div(poolLiquidityUsd)).mul(100) */\n      swap2\n      swap1\n      0xffffffff\n      and\n      jump\t// in\n    tag_236:\n        /* \"contracts/Utils.sol\":20514:20604  return(((yearlyDRGRewardAllocation.mul(rewardTokenPrice))).div(poolLiquidityUsd)).mul(100) */\n      swap7\n      pop\n      pop\n      pop\n      pop\n      pop\n      pop\n      pop\n        /* \"contracts/Utils.sol\":19910:20612  function CalcApy(uint256 pid, LP lpAddress,uint256 isLp, MetaMasterChef MasterChef) external view returns(uint256){... */\n      swap5\n      swap4\n      pop\n      pop\n      pop\n      pop\n      jump\t// out\n        /* \"contracts/Utils.sol\":14758:14959  function transferOwnership(address newOwner) public virtual onlyOwner {... */\n    tag_68:\n        /* \"contracts/Utils.sol\":14080:14092  _msgSender() */\n      tag_240\n        /* \"contracts/Utils.sol\":14080:14090  _msgSender */\n      tag_182\n        /* \"contracts/Utils.sol\":14080:14092  _msgSender() */\n      jump\t// in\n    tag_240:\n        /* \"contracts/Utils.sol\":14069:14092  owner() == _msgSender() */\n      0xffffffffffffffffffffffffffffffffffffffff\n      and\n        /* \"contracts/Utils.sol\":14069:14076  owner() */\n      tag_241\n        /* \"contracts/Utils.sol\":14069:14074  owner */\n      tag_48\n        /* \"contracts/Utils.sol\":14069:14076  owner() */\n      jump\t// in\n    tag_241:\n        /* \"contracts/Utils.sol\":14069:14092  owner() == _msgSender() */\n      0xffffffffffffffffffffffffffffffffffffffff\n      and\n      eq\n        /* \"contracts/Utils.sol\":14061:14129  require(owner() == _msgSender(), \"Ownable: caller is not the owner\") */\n      tag_242\n      jumpi\n      mload(0x40)\n      0x08c379a000000000000000000000000000000000000000000000000000000000\n      dup2\n      mstore\n      0x04\n      add\n      tag_243\n      swap1\n      tag_186\n      jump\t// in\n    tag_243:\n      mload(0x40)\n      dup1\n      swap2\n      sub\n      swap1\n      revert\n    tag_242:\n        /* \"contracts/Utils.sol\":14867:14868  0 */\n      0x00\n        /* \"contracts/Utils.sol\":14847:14869  newOwner != address(0) */\n      0xffffffffffffffffffffffffffffffffffffffff\n      and\n        /* \"contracts/Utils.sol\":14847:14855  newOwner */\n      dup2\n        /* \"contracts/Utils.sol\":14847:14869  newOwner != address(0) */\n      0xffffffffffffffffffffffffffffffffffffffff\n      and\n      sub\n        /* \"contracts/Utils.sol\":14839:14912  require(newOwner != address(0), \"Ownable: new owner is the zero address\") */\n      tag_245\n      jumpi\n      mload(0x40)\n      0x08c379a000000000000000000000000000000000000000000000000000000000\n      dup2\n      mstore\n      0x04\n      add\n      tag_246\n      swap1\n      tag_247\n      jump\t// in\n    tag_246:\n      mload(0x40)\n      dup1\n      swap2\n      sub\n      swap1\n      revert\n    tag_245:\n        /* \"contracts/Utils.sol\":14923:14951  _transferOwnership(newOwner) */\n      tag_248\n        /* \"contracts/Utils.sol\":14942:14950  newOwner */\n      dup2\n        /* \"contracts/Utils.sol\":14923:14941  _transferOwnership */\n      tag_189\n        /* \"contracts/Utils.sol\":14923:14951  _transferOwnership(newOwner) */\n      jump\t// in\n    tag_248:\n        /* \"contracts/Utils.sol\":14758:14959  function transferOwnership(address newOwner) public virtual onlyOwner {... */\n      pop\n      jump\t// out\n        /* \"contracts/Utils.sol\":9965:10436  function mul(uint256 a, uint256 b) internal pure returns (uint256) {... */\n    tag_108:\n        /* \"contracts/Utils.sol\":10023:10030  uint256 */\n      0x00\n        /* \"contracts/Utils.sol\":10273:10274  0 */\n      dup1\n        /* \"contracts/Utils.sol\":10268:10269  a */\n      dup4\n        /* \"contracts/Utils.sol\":10268:10274  a == 0 */\n      sub\n        /* \"contracts/Utils.sol\":10264:10311  if (a == 0) {... */\n      tag_250\n      jumpi\n        /* \"contracts/Utils.sol\":10298:10299  0 */\n      0x00\n        /* \"contracts/Utils.sol\":10291:10299  return 0 */\n      swap1\n      pop\n      jump(tag_249)\n        /* \"contracts/Utils.sol\":10264:10311  if (a == 0) {... */\n    tag_250:\n        /* \"contracts/Utils.sol\":10323:10332  uint256 c */\n      0x00\n        /* \"contracts/Utils.sol\":10339:10340  b */\n      dup3\n        /* \"contracts/Utils.sol\":10335:10336  a */\n      dup5\n        /* \"contracts/Utils.sol\":10335:10340  a * b */\n      tag_251\n      swap2\n      swap1\n      tag_212\n      jump\t// in\n    tag_251:\n        /* \"contracts/Utils.sol\":10323:10340  uint256 c = a * b */\n      swap1\n      pop\n        /* \"contracts/Utils.sol\":10368:10369  b */\n      dup3\n        /* \"contracts/Utils.sol\":10363:10364  a */\n      dup5\n        /* \"contracts/Utils.sol\":10359:10360  c */\n      dup3\n        /* \"contracts/Utils.sol\":10359:10364  c / a */\n      tag_252\n      swap2\n      swap1\n      tag_253\n      jump\t// in\n    tag_252:\n        /* \"contracts/Utils.sol\":10359:10369  c / a == b */\n      eq\n        /* \"contracts/Utils.sol\":10351:10407  require(c / a == b, \"SafeMath: multiplication overflow\") */\n      tag_254\n      jumpi\n      mload(0x40)\n      0x08c379a000000000000000000000000000000000000000000000000000000000\n      dup2\n      mstore\n      0x04\n      add\n      tag_255\n      swap1\n      tag_256\n      jump\t// in\n    tag_255:\n      mload(0x40)\n      dup1\n      swap2\n      sub\n      swap1\n      revert\n    tag_254:\n        /* \"contracts/Utils.sol\":10427:10428  c */\n      dup1\n        /* \"contracts/Utils.sol\":10420:10428  return c */\n      swap2\n      pop\n      pop\n        /* \"contracts/Utils.sol\":9965:10436  function mul(uint256 a, uint256 b) internal pure returns (uint256) {... */\n    tag_249:\n      swap3\n      swap2\n      pop\n      pop\n      jump\t// out\n        /* \"contracts/Utils.sol\":8593:8774  function add(uint256 a, uint256 b) internal pure returns (uint256) {... */\n    tag_156:\n        /* \"contracts/Utils.sol\":8651:8658  uint256 */\n      0x00\n        /* \"contracts/Utils.sol\":8671:8680  uint256 c */\n      dup1\n        /* \"contracts/Utils.sol\":8687:8688  b */\n      dup3\n        /* \"contracts/Utils.sol\":8683:8684  a */\n      dup5\n        /* \"contracts/Utils.sol\":8683:8688  a + b */\n      tag_258\n      swap2\n      swap1\n      tag_259\n      jump\t// in\n    tag_258:\n        /* \"contracts/Utils.sol\":8671:8688  uint256 c = a + b */\n      swap1\n      pop\n        /* \"contracts/Utils.sol\":8712:8713  a */\n      dup4\n        /* \"contracts/Utils.sol\":8707:8708  c */\n      dup2\n        /* \"contracts/Utils.sol\":8707:8713  c >= a */\n      lt\n      iszero\n        /* \"contracts/Utils.sol\":8699:8745  require(c >= a, \"SafeMath: addition overflow\") */\n      tag_260\n      jumpi\n      mload(0x40)\n      0x08c379a000000000000000000000000000000000000000000000000000000000\n      dup2\n      mstore\n      0x04\n      add\n      tag_261\n      swap1\n      tag_262\n      jump\t// in\n    tag_261:\n      mload(0x40)\n      dup1\n      swap2\n      sub\n      swap1\n      revert\n    tag_260:\n        /* \"contracts/Utils.sol\":8765:8766  c */\n      dup1\n        /* \"contracts/Utils.sol\":8758:8766  return c */\n      swap2\n      pop\n      pop\n        /* \"contracts/Utils.sol\":8593:8774  function add(uint256 a, uint256 b) internal pure returns (uint256) {... */\n      swap3\n      swap2\n      pop\n      pop\n      jump\t// out\n        /* \"contracts/Utils.sol\":10904:11036  function div(uint256 a, uint256 b) internal pure returns (uint256) {... */\n    tag_157:\n        /* \"contracts/Utils.sol\":10962:10969  uint256 */\n      0x00\n        /* \"contracts/Utils.sol\":10989:11028  div(a, b, \"SafeMath: division by zero\") */\n      tag_264\n        /* \"contracts/Utils.sol\":10993:10994  a */\n      dup4\n        /* \"contracts/Utils.sol\":10996:10997  b */\n      dup4\n        /* \"contracts/Utils.sol\":10989:11028  div(a, b, \"SafeMath: division by zero\") */\n      mload(0x40)\n      dup1\n      0x40\n      add\n      0x40\n      mstore\n      dup1\n      0x1a\n      dup2\n      mstore\n      0x20\n      add\n      0x536166654d6174683a206469766973696f6e206279207a65726f000000000000\n      dup2\n      mstore\n      pop\n        /* \"contracts/Utils.sol\":10989:10992  div */\n      tag_265\n        /* \"contracts/Utils.sol\":10989:11028  div(a, b, \"SafeMath: division by zero\") */\n      jump\t// in\n    tag_264:\n        /* \"contracts/Utils.sol\":10982:11028  return div(a, b, \"SafeMath: division by zero\") */\n      swap1\n      pop\n        /* \"contracts/Utils.sol\":10904:11036  function div(uint256 a, uint256 b) internal pure returns (uint256) {... */\n      swap3\n      swap2\n      pop\n      pop\n      jump\t// out\n        /* \"contracts/Utils.sol\":13223:13321  function _msgSender() internal view virtual returns (address) {... */\n    tag_182:\n        /* \"contracts/Utils.sol\":13276:13283  address */\n      0x00\n        /* \"contracts/Utils.sol\":13303:13313  msg.sender */\n      caller\n        /* \"contracts/Utils.sol\":13296:13313  return msg.sender */\n      swap1\n      pop\n        /* \"contracts/Utils.sol\":13223:13321  function _msgSender() internal view virtual returns (address) {... */\n      swap1\n      jump\t// out\n        /* \"contracts/Utils.sol\":15119:15310  function _transferOwnership(address newOwner) internal virtual {... */\n    tag_189:\n        /* \"contracts/Utils.sol\":15193:15209  address oldOwner */\n      0x00\n        /* \"contracts/Utils.sol\":15212:15218  _owner */\n      dup1\n      0x00\n      swap1\n      sload\n      swap1\n      0x0100\n      exp\n      swap1\n      div\n      0xffffffffffffffffffffffffffffffffffffffff\n      and\n        /* \"contracts/Utils.sol\":15193:15218  address oldOwner = _owner */\n      swap1\n      pop\n        /* \"contracts/Utils.sol\":15238:15246  newOwner */\n      dup2\n        /* \"contracts/Utils.sol\":15229:15235  _owner */\n      0x00\n      dup1\n        /* \"contracts/Utils.sol\":15229:15246  _owner = newOwner */\n      0x0100\n      exp\n      dup2\n      sload\n      dup2\n      0xffffffffffffffffffffffffffffffffffffffff\n      mul\n      not\n      and\n      swap1\n      dup4\n      0xffffffffffffffffffffffffffffffffffffffff\n      and\n      mul\n      or\n      swap1\n      sstore\n      pop\n        /* \"contracts/Utils.sol\":15293:15301  newOwner */\n      dup2\n        /* \"contracts/Utils.sol\":15262:15302  OwnershipTransferred(oldOwner, newOwner) */\n      0xffffffffffffffffffffffffffffffffffffffff\n      and\n        /* \"contracts/Utils.sol\":15283:15291  oldOwner */\n      dup2\n        /* \"contracts/Utils.sol\":15262:15302  OwnershipTransferred(oldOwner, newOwner) */\n      0xffffffffffffffffffffffffffffffffffffffff\n      and\n      0x8be0079c531659141344cd1fd0a4f28419497f9722a3daafe3b4186f6b6457e0\n      mload(0x40)\n      mload(0x40)\n      dup1\n      swap2\n      sub\n      swap1\n      log3\n        /* \"contracts/Utils.sol\":15182:15310  {... */\n      pop\n        /* \"contracts/Utils.sol\":15119:15310  function _transferOwnership(address newOwner) internal virtual {... */\n      pop\n      jump\t// out\n        /* \"contracts/Utils.sol\":11566:11911  function div(uint256 a, uint256 b, string memory errorMessage) internal pure returns (uint256) {... */\n    tag_265:\n        /* \"contracts/Utils.sol\":11652:11659  uint256 */\n      0x00\n        /* \"contracts/Utils.sol\":11751:11752  0 */\n      dup1\n        /* \"contracts/Utils.sol\":11747:11748  b */\n      dup4\n        /* \"contracts/Utils.sol\":11747:11752  b > 0 */\n      gt\n        /* \"contracts/Utils.sol\":11754:11766  errorMessage */\n      dup3\n        /* \"contracts/Utils.sol\":11739:11767  require(b > 0, errorMessage) */\n      swap1\n      tag_269\n      jumpi\n      mload(0x40)\n      0x08c379a000000000000000000000000000000000000000000000000000000000\n      dup2\n      mstore\n      0x04\n      add\n      tag_270\n      swap2\n      swap1\n      tag_271\n      jump\t// in\n    tag_270:\n      mload(0x40)\n      dup1\n      swap2\n      sub\n      swap1\n      revert\n    tag_269:\n      pop\n        /* \"contracts/Utils.sol\":11778:11787  uint256 c */\n      0x00\n        /* \"contracts/Utils.sol\":11794:11795  b */\n      dup4\n        /* \"contracts/Utils.sol\":11790:11791  a */\n      dup6\n        /* \"contracts/Utils.sol\":11790:11795  a / b */\n      tag_272\n      swap2\n      swap1\n      tag_253\n      jump\t// in\n    tag_272:\n        /* \"contracts/Utils.sol\":11778:11795  uint256 c = a / b */\n      swap1\n      pop\n        /* \"contracts/Utils.sol\":11902:11903  c */\n      dup1\n        /* \"contracts/Utils.sol\":11895:11903  return c */\n      swap2\n      pop\n      pop\n        /* \"contracts/Utils.sol\":11566:11911  function div(uint256 a, uint256 b, string memory errorMessage) internal pure returns (uint256) {... */\n      swap4\n      swap3\n      pop\n      pop\n      pop\n      jump\t// out\n        /* \"#utility.yul\":7:82   */\n    tag_273:\n        /* \"#utility.yul\":40:46   */\n      0x00\n        /* \"#utility.yul\":73:75   */\n      0x40\n        /* \"#utility.yul\":67:76   */\n      mload\n        /* \"#utility.yul\":57:76   */\n      swap1\n      pop\n        /* \"#utility.yul\":7:82   */\n      swap1\n      jump\t// out\n        /* \"#utility.yul\":88:205   */\n    tag_274:\n        /* \"#utility.yul\":197:198   */\n      0x00\n        /* \"#utility.yul\":194:195   */\n      dup1\n        /* \"#utility.yul\":187:199   */\n      revert\n        /* \"#utility.yul\":211:328   */\n    tag_275:\n        /* \"#utility.yul\":320:321   */\n      0x00\n        /* \"#utility.yul\":317:318   */\n      dup1\n        /* \"#utility.yul\":310:322   */\n      revert\n        /* \"#utility.yul\":334:460   */\n    tag_276:\n        /* \"#utility.yul\":371:378   */\n      0x00\n        /* \"#utility.yul\":411:453   */\n      0xffffffffffffffffffffffffffffffffffffffff\n        /* \"#utility.yul\":404:409   */\n      dup3\n        /* \"#utility.yul\":400:454   */\n      and\n        /* \"#utility.yul\":389:454   */\n      swap1\n      pop\n        /* \"#utility.yul\":334:460   */\n      swap2\n      swap1\n      pop\n      jump\t// out\n        /* \"#utility.yul\":466:562   */\n    tag_277:\n        /* \"#utility.yul\":503:510   */\n      0x00\n        /* \"#utility.yul\":532:556   */\n      tag_345\n        /* \"#utility.yul\":550:555   */\n      dup3\n        /* \"#utility.yul\":532:556   */\n      tag_276\n      jump\t// in\n    tag_345:\n        /* \"#utility.yul\":521:556   */\n      swap1\n      pop\n        /* \"#utility.yul\":466:562   */\n      swap2\n      swap1\n      pop\n      jump\t// out\n        /* \"#utility.yul\":568:690   */\n    tag_278:\n        /* \"#utility.yul\":641:665   */\n      tag_347\n        /* \"#utility.yul\":659:664   */\n      dup2\n        /* \"#utility.yul\":641:665   */\n      tag_277\n      jump\t// in\n    tag_347:\n        /* \"#utility.yul\":634:639   */\n      dup2\n        /* \"#utility.yul\":631:666   */\n      eq\n        /* \"#utility.yul\":621:684   */\n      tag_348\n      jumpi\n        /* \"#utility.yul\":680:681   */\n      0x00\n        /* \"#utility.yul\":677:678   */\n      dup1\n        /* \"#utility.yul\":670:682   */\n      revert\n        /* \"#utility.yul\":621:684   */\n    tag_348:\n        /* \"#utility.yul\":568:690   */\n      pop\n      jump\t// out\n        /* \"#utility.yul\":696:835   */\n    tag_279:\n        /* \"#utility.yul\":742:747   */\n      0x00\n        /* \"#utility.yul\":780:786   */\n      dup2\n        /* \"#utility.yul\":767:787   */\n      calldataload\n        /* \"#utility.yul\":758:787   */\n      swap1\n      pop\n        /* \"#utility.yul\":796:829   */\n      tag_350\n        /* \"#utility.yul\":823:828   */\n      dup2\n        /* \"#utility.yul\":796:829   */\n      tag_278\n      jump\t// in\n    tag_350:\n        /* \"#utility.yul\":696:835   */\n      swap3\n      swap2\n      pop\n      pop\n      jump\t// out\n        /* \"#utility.yul\":841:1170   */\n    tag_20:\n        /* \"#utility.yul\":900:906   */\n      0x00\n        /* \"#utility.yul\":949:951   */\n      0x20\n        /* \"#utility.yul\":937:946   */\n      dup3\n        /* \"#utility.yul\":928:935   */\n      dup5\n        /* \"#utility.yul\":924:947   */\n      sub\n        /* \"#utility.yul\":920:952   */\n      slt\n        /* \"#utility.yul\":917:1036   */\n      iszero\n      tag_352\n      jumpi\n        /* \"#utility.yul\":955:1034   */\n      tag_353\n      tag_274\n      jump\t// in\n    tag_353:\n        /* \"#utility.yul\":917:1036   */\n    tag_352:\n        /* \"#utility.yul\":1075:1076   */\n      0x00\n        /* \"#utility.yul\":1100:1153   */\n      tag_354\n        /* \"#utility.yul\":1145:1152   */\n      dup5\n        /* \"#utility.yul\":1136:1142   */\n      dup3\n        /* \"#utility.yul\":1125:1134   */\n      dup6\n        /* \"#utility.yul\":1121:1143   */\n      add\n        /* \"#utility.yul\":1100:1153   */\n      tag_279\n      jump\t// in\n    tag_354:\n        /* \"#utility.yul\":1090:1153   */\n      swap2\n      pop\n        /* \"#utility.yul\":1046:1163   */\n      pop\n        /* \"#utility.yul\":841:1170   */\n      swap3\n      swap2\n      pop\n      pop\n      jump\t// out\n        /* \"#utility.yul\":1176:1253   */\n    tag_280:\n        /* \"#utility.yul\":1213:1220   */\n      0x00\n        /* \"#utility.yul\":1242:1247   */\n      dup2\n        /* \"#utility.yul\":1231:1247   */\n      swap1\n      pop\n        /* \"#utility.yul\":1176:1253   */\n      swap2\n      swap1\n      pop\n      jump\t// out\n        /* \"#utility.yul\":1259:1377   */\n    tag_281:\n        /* \"#utility.yul\":1346:1370   */\n      tag_357\n        /* \"#utility.yul\":1364:1369   */\n      dup2\n        /* \"#utility.yul\":1346:1370   */\n      tag_280\n      jump\t// in\n    tag_357:\n        /* \"#utility.yul\":1341:1344   */\n      dup3\n        /* \"#utility.yul\":1334:1371   */\n      mstore\n        /* \"#utility.yul\":1259:1377   */\n      pop\n      pop\n      jump\t// out\n        /* \"#utility.yul\":1383:1605   */\n    tag_23:\n        /* \"#utility.yul\":1476:1480   */\n      0x00\n        /* \"#utility.yul\":1514:1516   */\n      0x20\n        /* \"#utility.yul\":1503:1512   */\n      dup3\n        /* \"#utility.yul\":1499:1517   */\n      add\n        /* \"#utility.yul\":1491:1517   */\n      swap1\n      pop\n        /* \"#utility.yul\":1527:1598   */\n      tag_359\n        /* \"#utility.yul\":1595:1596   */\n      0x00\n        /* \"#utility.yul\":1584:1593   */\n      dup4\n        /* \"#utility.yul\":1580:1597   */\n      add\n        /* \"#utility.yul\":1571:1577   */\n      dup5\n        /* \"#utility.yul\":1527:1598   */\n      tag_281\n      jump\t// in\n    tag_359:\n        /* \"#utility.yul\":1383:1605   */\n      swap3\n      swap2\n      pop\n      pop\n      jump\t// out\n        /* \"#utility.yul\":1611:1717   */\n    tag_282:\n        /* \"#utility.yul\":1658:1665   */\n      0x00\n        /* \"#utility.yul\":1687:1711   */\n      tag_361\n        /* \"#utility.yul\":1705:1710   */\n      dup3\n        /* \"#utility.yul\":1687:1711   */\n      tag_277\n      jump\t// in\n    tag_361:\n        /* \"#utility.yul\":1676:1711   */\n      swap1\n      pop\n        /* \"#utility.yul\":1611:1717   */\n      swap2\n      swap1\n      pop\n      jump\t// out\n        /* \"#utility.yul\":1723:1865   */\n    tag_283:\n        /* \"#utility.yul\":1806:1840   */\n      tag_363\n        /* \"#utility.yul\":1834:1839   */\n      dup2\n        /* \"#utility.yul\":1806:1840   */\n      tag_282\n      jump\t// in\n    tag_363:\n        /* \"#utility.yul\":1799:1804   */\n      dup2\n        /* \"#utility.yul\":1796:1841   */\n      eq\n        /* \"#utility.yul\":1786:1859   */\n      tag_364\n      jumpi\n        /* \"#utility.yul\":1855:1856   */\n      0x00\n        /* \"#utility.yul\":1852:1853   */\n      dup1\n        /* \"#utility.yul\":1845:1857   */\n      revert\n        /* \"#utility.yul\":1786:1859   */\n    tag_364:\n        /* \"#utility.yul\":1723:1865   */\n      pop\n      jump\t// out\n        /* \"#utility.yul\":1871:2030   */\n    tag_284:\n        /* \"#utility.yul\":1927:1932   */\n      0x00\n        /* \"#utility.yul\":1965:1971   */\n      dup2\n        /* \"#utility.yul\":1952:1972   */\n      calldataload\n        /* \"#utility.yul\":1943:1972   */\n      swap1\n      pop\n        /* \"#utility.yul\":1981:2024   */\n      tag_366\n        /* \"#utility.yul\":2018:2023   */\n      dup2\n        /* \"#utility.yul\":1981:2024   */\n      tag_283\n      jump\t// in\n    tag_366:\n        /* \"#utility.yul\":1871:2030   */\n      swap3\n      swap2\n      pop\n      pop\n      jump\t// out\n        /* \"#utility.yul\":2036:2385   */\n    tag_26:\n        /* \"#utility.yul\":2105:2111   */\n      0x00\n        /* \"#utility.yul\":2154:2156   */\n      0x20\n        /* \"#utility.yul\":2142:2151   */\n      dup3\n        /* \"#utility.yul\":2133:2140   */\n      dup5\n        /* \"#utility.yul\":2129:2152   */\n      sub\n        /* \"#utility.yul\":2125:2157   */\n      slt\n        /* \"#utility.yul\":2122:2241   */\n      iszero\n      tag_368\n      jumpi\n        /* \"#utility.yul\":2160:2239   */\n      tag_369\n      tag_274\n      jump\t// in\n    tag_369:\n        /* \"#utility.yul\":2122:2241   */\n    tag_368:\n        /* \"#utility.yul\":2280:2281   */\n      0x00\n        /* \"#utility.yul\":2305:2368   */\n      tag_370\n        /* \"#utility.yul\":2360:2367   */\n      dup5\n        /* \"#utility.yul\":2351:2357   */\n      dup3\n        /* \"#utility.yul\":2340:2349   */\n      dup6\n        /* \"#utility.yul\":2336:2358   */\n      add\n        /* \"#utility.yul\":2305:2368   */\n      tag_284\n      jump\t// in\n    tag_370:\n        /* \"#utility.yul\":2295:2368   */\n      swap2\n      pop\n        /* \"#utility.yul\":2251:2378   */\n      pop\n        /* \"#utility.yul\":2036:2385   */\n      swap3\n      swap2\n      pop\n      pop\n      jump\t// out\n        /* \"#utility.yul\":2391:2451   */\n    tag_285:\n        /* \"#utility.yul\":2419:2422   */\n      0x00\n        /* \"#utility.yul\":2440:2445   */\n      dup2\n        /* \"#utility.yul\":2433:2445   */\n      swap1\n      pop\n        /* \"#utility.yul\":2391:2451   */\n      swap2\n      swap1\n      pop\n      jump\t// out\n        /* \"#utility.yul\":2457:2599   */\n    tag_286:\n        /* \"#utility.yul\":2507:2516   */\n      0x00\n        /* \"#utility.yul\":2540:2593   */\n      tag_373\n        /* \"#utility.yul\":2558:2592   */\n      tag_374\n        /* \"#utility.yul\":2567:2591   */\n      tag_375\n        /* \"#utility.yul\":2585:2590   */\n      dup5\n        /* \"#utility.yul\":2567:2591   */\n      tag_276\n      jump\t// in\n    tag_375:\n        /* \"#utility.yul\":2558:2592   */\n      tag_285\n      jump\t// in\n    tag_374:\n        /* \"#utility.yul\":2540:2593   */\n      tag_276\n      jump\t// in\n    tag_373:\n        /* \"#utility.yul\":2527:2593   */\n      swap1\n      pop\n        /* \"#utility.yul\":2457:2599   */\n      swap2\n      swap1\n      pop\n      jump\t// out\n        /* \"#utility.yul\":2605:2731   */\n    tag_287:\n        /* \"#utility.yul\":2655:2664   */\n      0x00\n        /* \"#utility.yul\":2688:2725   */\n      tag_377\n        /* \"#utility.yul\":2719:2724   */\n      dup3\n        /* \"#utility.yul\":2688:2725   */\n      tag_286\n      jump\t// in\n    tag_377:\n        /* \"#utility.yul\":2675:2725   */\n      swap1\n      pop\n        /* \"#utility.yul\":2605:2731   */\n      swap2\n      swap1\n      pop\n      jump\t// out\n        /* \"#utility.yul\":2737:2877   */\n    tag_288:\n        /* \"#utility.yul\":2801:2810   */\n      0x00\n        /* \"#utility.yul\":2834:2871   */\n      tag_379\n        /* \"#utility.yul\":2865:2870   */\n      dup3\n        /* \"#utility.yul\":2834:2871   */\n      tag_287\n      jump\t// in\n    tag_379:\n        /* \"#utility.yul\":2821:2871   */\n      swap1\n      pop\n        /* \"#utility.yul\":2737:2877   */\n      swap2\n      swap1\n      pop\n      jump\t// out\n        /* \"#utility.yul\":2883:3042   */\n    tag_289:\n        /* \"#utility.yul\":2984:3035   */\n      tag_381\n        /* \"#utility.yul\":3029:3034   */\n      dup2\n        /* \"#utility.yul\":2984:3035   */\n      tag_288\n      jump\t// in\n    tag_381:\n        /* \"#utility.yul\":2979:2982   */\n      dup3\n        /* \"#utility.yul\":2972:3036   */\n      mstore\n        /* \"#utility.yul\":2883:3042   */\n      pop\n      pop\n      jump\t// out\n        /* \"#utility.yul\":3048:3298   */\n    tag_36:\n        /* \"#utility.yul\":3155:3159   */\n      0x00\n        /* \"#utility.yul\":3193:3195   */\n      0x20\n        /* \"#utility.yul\":3182:3191   */\n      dup3\n        /* \"#utility.yul\":3178:3196   */\n      add\n        /* \"#utility.yul\":3170:3196   */\n      swap1\n      pop\n        /* \"#utility.yul\":3206:3291   */\n      tag_383\n        /* \"#utility.yul\":3288:3289   */\n      0x00\n        /* \"#utility.yul\":3277:3286   */\n      dup4\n        /* \"#utility.yul\":3273:3290   */\n      add\n        /* \"#utility.yul\":3264:3270   */\n      dup5\n        /* \"#utility.yul\":3206:3291   */\n      tag_289\n      jump\t// in\n    tag_383:\n        /* \"#utility.yul\":3048:3298   */\n      swap3\n      swap2\n      pop\n      pop\n      jump\t// out\n        /* \"#utility.yul\":3304:3422   */\n    tag_290:\n        /* \"#utility.yul\":3391:3415   */\n      tag_385\n        /* \"#utility.yul\":3409:3414   */\n      dup2\n        /* \"#utility.yul\":3391:3415   */\n      tag_277\n      jump\t// in\n    tag_385:\n        /* \"#utility.yul\":3386:3389   */\n      dup3\n        /* \"#utility.yul\":3379:3416   */\n      mstore\n        /* \"#utility.yul\":3304:3422   */\n      pop\n      pop\n      jump\t// out\n        /* \"#utility.yul\":3428:3650   */\n    tag_44:\n        /* \"#utility.yul\":3521:3525   */\n      0x00\n        /* \"#utility.yul\":3559:3561   */\n      0x20\n        /* \"#utility.yul\":3548:3557   */\n      dup3\n        /* \"#utility.yul\":3544:3562   */\n      add\n        /* \"#utility.yul\":3536:3562   */\n      swap1\n      pop\n        /* \"#utility.yul\":3572:3643   */\n      tag_387\n        /* \"#utility.yul\":3640:3641   */\n      0x00\n        /* \"#utility.yul\":3629:3638   */\n      dup4\n        /* \"#utility.yul\":3625:3642   */\n      add\n        /* \"#utility.yul\":3616:3622   */\n      dup5\n        /* \"#utility.yul\":3572:3643   */\n      tag_290\n      jump\t// in\n    tag_387:\n        /* \"#utility.yul\":3428:3650   */\n      swap3\n      swap2\n      pop\n      pop\n      jump\t// out\n        /* \"#utility.yul\":3656:3766   */\n    tag_291:\n        /* \"#utility.yul\":3707:3714   */\n      0x00\n        /* \"#utility.yul\":3736:3760   */\n      tag_389\n        /* \"#utility.yul\":3754:3759   */\n      dup3\n        /* \"#utility.yul\":3736:3760   */\n      tag_277\n      jump\t// in\n    tag_389:\n        /* \"#utility.yul\":3725:3760   */\n      swap1\n      pop\n        /* \"#utility.yul\":3656:3766   */\n      swap2\n      swap1\n      pop\n      jump\t// out\n        /* \"#utility.yul\":3772:3922   */\n    tag_292:\n        /* \"#utility.yul\":3859:3897   */\n      tag_391\n        /* \"#utility.yul\":3891:3896   */\n      dup2\n        /* \"#utility.yul\":3859:3897   */\n      tag_291\n      jump\t// in\n    tag_391:\n        /* \"#utility.yul\":3852:3857   */\n      dup2\n        /* \"#utility.yul\":3849:3898   */\n      eq\n        /* \"#utility.yul\":3839:3916   */\n      tag_392\n      jumpi\n        /* \"#utility.yul\":3912:3913   */\n      0x00\n        /* \"#utility.yul\":3909:3910   */\n      dup1\n        /* \"#utility.yul\":3902:3914   */\n      revert\n        /* \"#utility.yul\":3839:3916   */\n    tag_392:\n        /* \"#utility.yul\":3772:3922   */\n      pop\n      jump\t// out\n        /* \"#utility.yul\":3928:4095   */\n    tag_293:\n        /* \"#utility.yul\":3988:3993   */\n      0x00\n        /* \"#utility.yul\":4026:4032   */\n      dup2\n        /* \"#utility.yul\":4013:4033   */\n      calldataload\n        /* \"#utility.yul\":4004:4033   */\n      swap1\n      pop\n        /* \"#utility.yul\":4042:4089   */\n      tag_394\n        /* \"#utility.yul\":4083:4088   */\n      dup2\n        /* \"#utility.yul\":4042:4089   */\n      tag_292\n      jump\t// in\n    tag_394:\n        /* \"#utility.yul\":3928:4095   */\n      swap3\n      swap2\n      pop\n      pop\n      jump\t// out\n        /* \"#utility.yul\":4101:4458   */\n    tag_55:\n        /* \"#utility.yul\":4174:4180   */\n      0x00\n        /* \"#utility.yul\":4223:4225   */\n      0x20\n        /* \"#utility.yul\":4211:4220   */\n      dup3\n        /* \"#utility.yul\":4202:4209   */\n      dup5\n        /* \"#utility.yul\":4198:4221   */\n      sub\n        /* \"#utility.yul\":4194:4226   */\n      slt\n        /* \"#utility.yul\":4191:4310   */\n      iszero\n      tag_396\n      jumpi\n        /* \"#utility.yul\":4229:4308   */\n      tag_397\n      tag_274\n      jump\t// in\n    tag_397:\n        /* \"#utility.yul\":4191:4310   */\n    tag_396:\n        /* \"#utility.yul\":4349:4350   */\n      0x00\n        /* \"#utility.yul\":4374:4441   */\n      tag_398\n        /* \"#utility.yul\":4433:4440   */\n      dup5\n        /* \"#utility.yul\":4424:4430   */\n      dup3\n        /* \"#utility.yul\":4413:4422   */\n      dup6\n        /* \"#utility.yul\":4409:4431   */\n      add\n        /* \"#utility.yul\":4374:4441   */\n      tag_293\n      jump\t// in\n    tag_398:\n        /* \"#utility.yul\":4364:4441   */\n      swap2\n      pop\n        /* \"#utility.yul\":4320:4451   */\n      pop\n        /* \"#utility.yul\":4101:4458   */\n      swap3\n      swap2\n      pop\n      pop\n      jump\t// out\n        /* \"#utility.yul\":4464:4586   */\n    tag_294:\n        /* \"#utility.yul\":4537:4561   */\n      tag_400\n        /* \"#utility.yul\":4555:4560   */\n      dup2\n        /* \"#utility.yul\":4537:4561   */\n      tag_280\n      jump\t// in\n    tag_400:\n        /* \"#utility.yul\":4530:4535   */\n      dup2\n        /* \"#utility.yul\":4527:4562   */\n      eq\n        /* \"#utility.yul\":4517:4580   */\n      tag_401\n      jumpi\n        /* \"#utility.yul\":4576:4577   */\n      0x00\n        /* \"#utility.yul\":4573:4574   */\n      dup1\n        /* \"#utility.yul\":4566:4578   */\n      revert\n        /* \"#utility.yul\":4517:4580   */\n    tag_401:\n        /* \"#utility.yul\":4464:4586   */\n      pop\n      jump\t// out\n        /* \"#utility.yul\":4592:4731   */\n    tag_295:\n        /* \"#utility.yul\":4638:4643   */\n      0x00\n        /* \"#utility.yul\":4676:4682   */\n      dup2\n        /* \"#utility.yul\":4663:4683   */\n      calldataload\n        /* \"#utility.yul\":4654:4683   */\n      swap1\n      pop\n        /* \"#utility.yul\":4692:4725   */\n      tag_403\n        /* \"#utility.yul\":4719:4724   */\n      dup2\n        /* \"#utility.yul\":4692:4725   */\n      tag_294\n      jump\t// in\n    tag_403:\n        /* \"#utility.yul\":4592:4731   */\n      swap3\n      swap2\n      pop\n      pop\n      jump\t// out\n        /* \"#utility.yul\":4737:4855   */\n    tag_296:\n        /* \"#utility.yul\":4796:4803   */\n      0x00\n        /* \"#utility.yul\":4825:4849   */\n      tag_405\n        /* \"#utility.yul\":4843:4848   */\n      dup3\n        /* \"#utility.yul\":4825:4849   */\n      tag_277\n      jump\t// in\n    tag_405:\n        /* \"#utility.yul\":4814:4849   */\n      swap1\n      pop\n        /* \"#utility.yul\":4737:4855   */\n      swap2\n      swap1\n      pop\n      jump\t// out\n        /* \"#utility.yul\":4861:5027   */\n    tag_297:\n        /* \"#utility.yul\":4956:5002   */\n      tag_407\n        /* \"#utility.yul\":4996:5001   */\n      dup2\n        /* \"#utility.yul\":4956:5002   */\n      tag_296\n      jump\t// in\n    tag_407:\n        /* \"#utility.yul\":4949:4954   */\n      dup2\n        /* \"#utility.yul\":4946:5003   */\n      eq\n        /* \"#utility.yul\":4936:5021   */\n      tag_408\n      jumpi\n        /* \"#utility.yul\":5017:5018   */\n      0x00\n        /* \"#utility.yul\":5014:5015   */\n      dup1\n        /* \"#utility.yul\":5007:5019   */\n      revert\n        /* \"#utility.yul\":4936:5021   */\n    tag_408:\n        /* \"#utility.yul\":4861:5027   */\n      pop\n      jump\t// out\n        /* \"#utility.yul\":5033:5216   */\n    tag_298:\n        /* \"#utility.yul\":5101:5106   */\n      0x00\n        /* \"#utility.yul\":5139:5145   */\n      dup2\n        /* \"#utility.yul\":5126:5146   */\n      calldataload\n        /* \"#utility.yul\":5117:5146   */\n      swap1\n      pop\n        /* \"#utility.yul\":5155:5210   */\n      tag_410\n        /* \"#utility.yul\":5204:5209   */\n      dup2\n        /* \"#utility.yul\":5155:5210   */\n      tag_297\n      jump\t// in\n    tag_410:\n        /* \"#utility.yul\":5033:5216   */\n      swap3\n      swap2\n      pop\n      pop\n      jump\t// out\n        /* \"#utility.yul\":5222:6051   */\n    tag_59:\n        /* \"#utility.yul\":5340:5346   */\n      0x00\n        /* \"#utility.yul\":5348:5354   */\n      dup1\n        /* \"#utility.yul\":5356:5362   */\n      0x00\n        /* \"#utility.yul\":5364:5370   */\n      dup1\n        /* \"#utility.yul\":5413:5416   */\n      0x80\n        /* \"#utility.yul\":5401:5410   */\n      dup6\n        /* \"#utility.yul\":5392:5399   */\n      dup8\n        /* \"#utility.yul\":5388:5411   */\n      sub\n        /* \"#utility.yul\":5384:5417   */\n      slt\n        /* \"#utility.yul\":5381:5501   */\n      iszero\n      tag_412\n      jumpi\n        /* \"#utility.yul\":5420:5499   */\n      tag_413\n      tag_274\n      jump\t// in\n    tag_413:\n        /* \"#utility.yul\":5381:5501   */\n    tag_412:\n        /* \"#utility.yul\":5540:5541   */\n      0x00\n        /* \"#utility.yul\":5565:5618   */\n      tag_414\n        /* \"#utility.yul\":5610:5617   */\n      dup8\n        /* \"#utility.yul\":5601:5607   */\n      dup3\n        /* \"#utility.yul\":5590:5599   */\n      dup9\n        /* \"#utility.yul\":5586:5608   */\n      add\n        /* \"#utility.yul\":5565:5618   */\n      tag_295\n      jump\t// in\n    tag_414:\n        /* \"#utility.yul\":5555:5618   */\n      swap5\n      pop\n        /* \"#utility.yul\":5511:5628   */\n      pop\n        /* \"#utility.yul\":5667:5669   */\n      0x20\n        /* \"#utility.yul\":5693:5756   */\n      tag_415\n        /* \"#utility.yul\":5748:5755   */\n      dup8\n        /* \"#utility.yul\":5739:5745   */\n      dup3\n        /* \"#utility.yul\":5728:5737   */\n      dup9\n        /* \"#utility.yul\":5724:5746   */\n      add\n        /* \"#utility.yul\":5693:5756   */\n      tag_284\n      jump\t// in\n    tag_415:\n        /* \"#utility.yul\":5683:5756   */\n      swap4\n      pop\n        /* \"#utility.yul\":5638:5766   */\n      pop\n        /* \"#utility.yul\":5805:5807   */\n      0x40\n        /* \"#utility.yul\":5831:5884   */\n      tag_416\n        /* \"#utility.yul\":5876:5883   */\n      dup8\n        /* \"#utility.yul\":5867:5873   */\n      dup3\n        /* \"#utility.yul\":5856:5865   */\n      dup9\n        /* \"#utility.yul\":5852:5874   */\n      add\n        /* \"#utility.yul\":5831:5884   */\n      tag_295\n      jump\t// in\n    tag_416:\n        /* \"#utility.yul\":5821:5884   */\n      swap3\n      pop\n        /* \"#utility.yul\":5776:5894   */\n      pop\n        /* \"#utility.yul\":5933:5935   */\n      0x60\n        /* \"#utility.yul\":5959:6034   */\n      tag_417\n        /* \"#utility.yul\":6026:6033   */\n      dup8\n        /* \"#utility.yul\":6017:6023   */\n      dup3\n        /* \"#utility.yul\":6006:6015   */\n      dup9\n        /* \"#utility.yul\":6002:6024   */\n      add\n        /* \"#utility.yul\":5959:6034   */\n      tag_298\n      jump\t// in\n    tag_417:\n        /* \"#utility.yul\":5949:6034   */\n      swap2\n      pop\n        /* \"#utility.yul\":5904:6044   */\n      pop\n        /* \"#utility.yul\":5222:6051   */\n      swap3\n      swap6\n      swap2\n      swap5\n      pop\n      swap3\n      pop\n      jump\t// out\n        /* \"#utility.yul\":6057:6237   */\n    tag_72:\n        /* \"#utility.yul\":6105:6182   */\n      0x4e487b7100000000000000000000000000000000000000000000000000000000\n        /* \"#utility.yul\":6102:6103   */\n      0x00\n        /* \"#utility.yul\":6095:6183   */\n      mstore\n        /* \"#utility.yul\":6202:6206   */\n      0x41\n        /* \"#utility.yul\":6199:6200   */\n      0x04\n        /* \"#utility.yul\":6192:6207   */\n      mstore\n        /* \"#utility.yul\":6226:6230   */\n      0x24\n        /* \"#utility.yul\":6223:6224   */\n      0x00\n        /* \"#utility.yul\":6216:6231   */\n      revert\n        /* \"#utility.yul\":6243:6423   */\n    tag_76:\n        /* \"#utility.yul\":6291:6368   */\n      0x4e487b7100000000000000000000000000000000000000000000000000000000\n        /* \"#utility.yul\":6288:6289   */\n      0x00\n        /* \"#utility.yul\":6281:6369   */\n      mstore\n        /* \"#utility.yul\":6388:6392   */\n      0x32\n        /* \"#utility.yul\":6385:6386   */\n      0x04\n        /* \"#utility.yul\":6378:6393   */\n      mstore\n        /* \"#utility.yul\":6412:6416   */\n      0x24\n        /* \"#utility.yul\":6409:6410   */\n      0x00\n        /* \"#utility.yul\":6402:6417   */\n      revert\n        /* \"#utility.yul\":6429:6543   */\n    tag_299:\n        /* \"#utility.yul\":6496:6502   */\n      0x00\n        /* \"#utility.yul\":6530:6535   */\n      dup2\n        /* \"#utility.yul\":6524:6536   */\n      mload\n        /* \"#utility.yul\":6514:6536   */\n      swap1\n      pop\n        /* \"#utility.yul\":6429:6543   */\n      swap2\n      swap1\n      pop\n      jump\t// out\n        /* \"#utility.yul\":6549:6733   */\n    tag_300:\n        /* \"#utility.yul\":6648:6659   */\n      0x00\n        /* \"#utility.yul\":6682:6688   */\n      dup3\n        /* \"#utility.yul\":6677:6680   */\n      dup3\n        /* \"#utility.yul\":6670:6689   */\n      mstore\n        /* \"#utility.yul\":6722:6726   */\n      0x20\n        /* \"#utility.yul\":6717:6720   */\n      dup3\n        /* \"#utility.yul\":6713:6727   */\n      add\n        /* \"#utility.yul\":6698:6727   */\n      swap1\n      pop\n        /* \"#utility.yul\":6549:6733   */\n      swap3\n      swap2\n      pop\n      pop\n      jump\t// out\n        /* \"#utility.yul\":6739:6871   */\n    tag_301:\n        /* \"#utility.yul\":6806:6810   */\n      0x00\n        /* \"#utility.yul\":6829:6832   */\n      dup2\n        /* \"#utility.yul\":6821:6832   */\n      swap1\n      pop\n        /* \"#utility.yul\":6859:6863   */\n      0x20\n        /* \"#utility.yul\":6854:6857   */\n      dup3\n        /* \"#utility.yul\":6850:6864   */\n      add\n        /* \"#utility.yul\":6842:6864   */\n      swap1\n      pop\n        /* \"#utility.yul\":6739:6871   */\n      swap2\n      swap1\n      pop\n      jump\t// out\n        /* \"#utility.yul\":6877:6985   */\n    tag_302:\n        /* \"#utility.yul\":6954:6978   */\n      tag_424\n        /* \"#utility.yul\":6972:6977   */\n      dup2\n        /* \"#utility.yul\":6954:6978   */\n      tag_277\n      jump\t// in\n    tag_424:\n        /* \"#utility.yul\":6949:6952   */\n      dup3\n        /* \"#utility.yul\":6942:6979   */\n      mstore\n        /* \"#utility.yul\":6877:6985   */\n      pop\n      pop\n      jump\t// out\n        /* \"#utility.yul\":6991:7170   */\n    tag_303:\n        /* \"#utility.yul\":7060:7070   */\n      0x00\n        /* \"#utility.yul\":7081:7127   */\n      tag_426\n        /* \"#utility.yul\":7123:7126   */\n      dup4\n        /* \"#utility.yul\":7115:7121   */\n      dup4\n        /* \"#utility.yul\":7081:7127   */\n      tag_302\n      jump\t// in\n    tag_426:\n        /* \"#utility.yul\":7159:7163   */\n      0x20\n        /* \"#utility.yul\":7154:7157   */\n      dup4\n        /* \"#utility.yul\":7150:7164   */\n      add\n        /* \"#utility.yul\":7136:7164   */\n      swap1\n      pop\n        /* \"#utility.yul\":6991:7170   */\n      swap3\n      swap2\n      pop\n      pop\n      jump\t// out\n        /* \"#utility.yul\":7176:7289   */\n    tag_304:\n        /* \"#utility.yul\":7246:7250   */\n      0x00\n        /* \"#utility.yul\":7278:7282   */\n      0x20\n        /* \"#utility.yul\":7273:7276   */\n      dup3\n        /* \"#utility.yul\":7269:7283   */\n      add\n        /* \"#utility.yul\":7261:7283   */\n      swap1\n      pop\n        /* \"#utility.yul\":7176:7289   */\n      swap2\n      swap1\n      pop\n      jump\t// out\n        /* \"#utility.yul\":7325:8057   */\n    tag_305:\n        /* \"#utility.yul\":7444:7447   */\n      0x00\n        /* \"#utility.yul\":7473:7527   */\n      tag_429\n        /* \"#utility.yul\":7521:7526   */\n      dup3\n        /* \"#utility.yul\":7473:7527   */\n      tag_299\n      jump\t// in\n    tag_429:\n        /* \"#utility.yul\":7543:7629   */\n      tag_430\n        /* \"#utility.yul\":7622:7628   */\n      dup2\n        /* \"#utility.yul\":7617:7620   */\n      dup6\n        /* \"#utility.yul\":7543:7629   */\n      tag_300\n      jump\t// in\n    tag_430:\n        /* \"#utility.yul\":7536:7629   */\n      swap4\n      pop\n        /* \"#utility.yul\":7653:7709   */\n      tag_431\n        /* \"#utility.yul\":7703:7708   */\n      dup4\n        /* \"#utility.yul\":7653:7709   */\n      tag_301\n      jump\t// in\n    tag_431:\n        /* \"#utility.yul\":7732:7739   */\n      dup1\n        /* \"#utility.yul\":7763:7764   */\n      0x00\n        /* \"#utility.yul\":7748:8032   */\n    tag_432:\n        /* \"#utility.yul\":7773:7779   */\n      dup4\n        /* \"#utility.yul\":7770:7771   */\n      dup2\n        /* \"#utility.yul\":7767:7780   */\n      lt\n        /* \"#utility.yul\":7748:8032   */\n      iszero\n      tag_434\n      jumpi\n        /* \"#utility.yul\":7849:7855   */\n      dup2\n        /* \"#utility.yul\":7843:7856   */\n      mload\n        /* \"#utility.yul\":7876:7939   */\n      tag_435\n        /* \"#utility.yul\":7935:7938   */\n      dup9\n        /* \"#utility.yul\":7920:7933   */\n      dup3\n        /* \"#utility.yul\":7876:7939   */\n      tag_303\n      jump\t// in\n    tag_435:\n        /* \"#utility.yul\":7869:7939   */\n      swap8\n      pop\n        /* \"#utility.yul\":7962:8022   */\n      tag_436\n        /* \"#utility.yul\":8015:8021   */\n      dup4\n        /* \"#utility.yul\":7962:8022   */\n      tag_304\n      jump\t// in\n    tag_436:\n        /* \"#utility.yul\":7952:8022   */\n      swap3\n      pop\n        /* \"#utility.yul\":7808:8032   */\n      pop\n        /* \"#utility.yul\":7795:7796   */\n      0x01\n        /* \"#utility.yul\":7792:7793   */\n      dup2\n        /* \"#utility.yul\":7788:7797   */\n      add\n        /* \"#utility.yul\":7783:7797   */\n      swap1\n      pop\n        /* \"#utility.yul\":7748:8032   */\n      jump(tag_432)\n    tag_434:\n        /* \"#utility.yul\":7752:7766   */\n      pop\n        /* \"#utility.yul\":8048:8051   */\n      dup6\n        /* \"#utility.yul\":8041:8051   */\n      swap4\n      pop\n        /* \"#utility.yul\":7449:8057   */\n      pop\n      pop\n      pop\n        /* \"#utility.yul\":7325:8057   */\n      swap3\n      swap2\n      pop\n      pop\n      jump\t// out\n        /* \"#utility.yul\":8063:8546   */\n    tag_82:\n        /* \"#utility.yul\":8234:8238   */\n      0x00\n        /* \"#utility.yul\":8272:8274   */\n      0x40\n        /* \"#utility.yul\":8261:8270   */\n      dup3\n        /* \"#utility.yul\":8257:8275   */\n      add\n        /* \"#utility.yul\":8249:8275   */\n      swap1\n      pop\n        /* \"#utility.yul\":8285:8356   */\n      tag_438\n        /* \"#utility.yul\":8353:8354   */\n      0x00\n        /* \"#utility.yul\":8342:8351   */\n      dup4\n        /* \"#utility.yul\":8338:8355   */\n      add\n        /* \"#utility.yul\":8329:8335   */\n      dup6\n        /* \"#utility.yul\":8285:8356   */\n      tag_281\n      jump\t// in\n    tag_438:\n        /* \"#utility.yul\":8403:8412   */\n      dup2\n        /* \"#utility.yul\":8397:8401   */\n      dup2\n        /* \"#utility.yul\":8393:8413   */\n      sub\n        /* \"#utility.yul\":8388:8390   */\n      0x20\n        /* \"#utility.yul\":8377:8386   */\n      dup4\n        /* \"#utility.yul\":8373:8391   */\n      add\n        /* \"#utility.yul\":8366:8414   */\n      mstore\n        /* \"#utility.yul\":8431:8539   */\n      tag_439\n        /* \"#utility.yul\":8534:8538   */\n      dup2\n        /* \"#utility.yul\":8525:8531   */\n      dup5\n        /* \"#utility.yul\":8431:8539   */\n      tag_305\n      jump\t// in\n    tag_439:\n        /* \"#utility.yul\":8423:8539   */\n      swap1\n      pop\n        /* \"#utility.yul\":8063:8546   */\n      swap4\n      swap3\n      pop\n      pop\n      pop\n      jump\t// out\n        /* \"#utility.yul\":8552:8669   */\n    tag_306:\n        /* \"#utility.yul\":8661:8662   */\n      0x00\n        /* \"#utility.yul\":8658:8659   */\n      dup1\n        /* \"#utility.yul\":8651:8663   */\n      revert\n        /* \"#utility.yul\":8675:8777   */\n    tag_307:\n        /* \"#utility.yul\":8716:8722   */\n      0x00\n        /* \"#utility.yul\":8767:8769   */\n      0x1f\n        /* \"#utility.yul\":8763:8770   */\n      not\n        /* \"#utility.yul\":8758:8760   */\n      0x1f\n        /* \"#utility.yul\":8751:8756   */\n      dup4\n        /* \"#utility.yul\":8747:8761   */\n      add\n        /* \"#utility.yul\":8743:8771   */\n      and\n        /* \"#utility.yul\":8733:8771   */\n      swap1\n      pop\n        /* \"#utility.yul\":8675:8777   */\n      swap2\n      swap1\n      pop\n      jump\t// out\n        /* \"#utility.yul\":8783:9064   */\n    tag_308:\n        /* \"#utility.yul\":8866:8893   */\n      tag_443\n        /* \"#utility.yul\":8888:8892   */\n      dup3\n        /* \"#utility.yul\":8866:8893   */\n      tag_307\n      jump\t// in\n    tag_443:\n        /* \"#utility.yul\":8858:8864   */\n      dup2\n        /* \"#utility.yul\":8854:8894   */\n      add\n        /* \"#utility.yul\":8996:9002   */\n      dup2\n        /* \"#utility.yul\":8984:8994   */\n      dup2\n        /* \"#utility.yul\":8981:9003   */\n      lt\n        /* \"#utility.yul\":8960:8978   */\n      0xffffffffffffffff\n        /* \"#utility.yul\":8948:8958   */\n      dup3\n        /* \"#utility.yul\":8945:8979   */\n      gt\n        /* \"#utility.yul\":8942:9004   */\n      or\n        /* \"#utility.yul\":8939:9027   */\n      iszero\n      tag_444\n      jumpi\n        /* \"#utility.yul\":9007:9025   */\n      tag_445\n      tag_72\n      jump\t// in\n    tag_445:\n        /* \"#utility.yul\":8939:9027   */\n    tag_444:\n        /* \"#utility.yul\":9047:9057   */\n      dup1\n        /* \"#utility.yul\":9043:9045   */\n      0x40\n        /* \"#utility.yul\":9036:9058   */\n      mstore\n        /* \"#utility.yul\":8826:9064   */\n      pop\n        /* \"#utility.yul\":8783:9064   */\n      pop\n      pop\n      jump\t// out\n        /* \"#utility.yul\":9070:9199   */\n    tag_309:\n        /* \"#utility.yul\":9104:9110   */\n      0x00\n        /* \"#utility.yul\":9131:9151   */\n      tag_447\n      tag_273\n      jump\t// in\n    tag_447:\n        /* \"#utility.yul\":9121:9151   */\n      swap1\n      pop\n        /* \"#utility.yul\":9160:9193   */\n      tag_448\n        /* \"#utility.yul\":9188:9192   */\n      dup3\n        /* \"#utility.yul\":9180:9186   */\n      dup3\n        /* \"#utility.yul\":9160:9193   */\n      tag_308\n      jump\t// in\n    tag_448:\n        /* \"#utility.yul\":9070:9199   */\n      swap2\n      swap1\n      pop\n      jump\t// out\n        /* \"#utility.yul\":9205:9516   */\n    tag_310:\n        /* \"#utility.yul\":9282:9286   */\n      0x00\n        /* \"#utility.yul\":9372:9390   */\n      0xffffffffffffffff\n        /* \"#utility.yul\":9364:9370   */\n      dup3\n        /* \"#utility.yul\":9361:9391   */\n      gt\n        /* \"#utility.yul\":9358:9414   */\n      iszero\n      tag_450\n      jumpi\n        /* \"#utility.yul\":9394:9412   */\n      tag_451\n      tag_72\n      jump\t// in\n    tag_451:\n        /* \"#utility.yul\":9358:9414   */\n    tag_450:\n        /* \"#utility.yul\":9444:9448   */\n      0x20\n        /* \"#utility.yul\":9436:9442   */\n      dup3\n        /* \"#utility.yul\":9432:9449   */\n      mul\n        /* \"#utility.yul\":9424:9449   */\n      swap1\n      pop\n        /* \"#utility.yul\":9504:9508   */\n      0x20\n        /* \"#utility.yul\":9498:9502   */\n      dup2\n        /* \"#utility.yul\":9494:9509   */\n      add\n        /* \"#utility.yul\":9486:9509   */\n      swap1\n      pop\n        /* \"#utility.yul\":9205:9516   */\n      swap2\n      swap1\n      pop\n      jump\t// out\n        /* \"#utility.yul\":9522:9639   */\n    tag_311:\n        /* \"#utility.yul\":9631:9632   */\n      0x00\n        /* \"#utility.yul\":9628:9629   */\n      dup1\n        /* \"#utility.yul\":9621:9633   */\n      revert\n        /* \"#utility.yul\":9645:9788   */\n    tag_312:\n        /* \"#utility.yul\":9702:9707   */\n      0x00\n        /* \"#utility.yul\":9733:9739   */\n      dup2\n        /* \"#utility.yul\":9727:9740   */\n      mload\n        /* \"#utility.yul\":9718:9740   */\n      swap1\n      pop\n        /* \"#utility.yul\":9749:9782   */\n      tag_454\n        /* \"#utility.yul\":9776:9781   */\n      dup2\n        /* \"#utility.yul\":9749:9782   */\n      tag_294\n      jump\t// in\n    tag_454:\n        /* \"#utility.yul\":9645:9788   */\n      swap3\n      swap2\n      pop\n      pop\n      jump\t// out\n        /* \"#utility.yul\":9811:10543   */\n    tag_313:\n        /* \"#utility.yul\":9918:9923   */\n      0x00\n        /* \"#utility.yul\":9943:10024   */\n      tag_456\n        /* \"#utility.yul\":9959:10023   */\n      tag_457\n        /* \"#utility.yul\":10016:10022   */\n      dup5\n        /* \"#utility.yul\":9959:10023   */\n      tag_310\n      jump\t// in\n    tag_457:\n        /* \"#utility.yul\":9943:10024   */\n      tag_309\n      jump\t// in\n    tag_456:\n        /* \"#utility.yul\":9934:10024   */\n      swap1\n      pop\n        /* \"#utility.yul\":10044:10049   */\n      dup1\n        /* \"#utility.yul\":10073:10079   */\n      dup4\n        /* \"#utility.yul\":10066:10071   */\n      dup3\n        /* \"#utility.yul\":10059:10080   */\n      mstore\n        /* \"#utility.yul\":10107:10111   */\n      0x20\n        /* \"#utility.yul\":10100:10105   */\n      dup3\n        /* \"#utility.yul\":10096:10112   */\n      add\n        /* \"#utility.yul\":10089:10112   */\n      swap1\n      pop\n        /* \"#utility.yul\":10160:10164   */\n      0x20\n        /* \"#utility.yul\":10152:10158   */\n      dup5\n        /* \"#utility.yul\":10148:10165   */\n      mul\n        /* \"#utility.yul\":10140:10146   */\n      dup4\n        /* \"#utility.yul\":10136:10166   */\n      add\n        /* \"#utility.yul\":10189:10192   */\n      dup6\n        /* \"#utility.yul\":10181:10187   */\n      dup2\n        /* \"#utility.yul\":10178:10193   */\n      gt\n        /* \"#utility.yul\":10175:10297   */\n      iszero\n      tag_458\n      jumpi\n        /* \"#utility.yul\":10208:10287   */\n      tag_459\n      tag_311\n      jump\t// in\n    tag_459:\n        /* \"#utility.yul\":10175:10297   */\n    tag_458:\n        /* \"#utility.yul\":10323:10329   */\n      dup4\n        /* \"#utility.yul\":10306:10537   */\n    tag_460:\n        /* \"#utility.yul\":10340:10346   */\n      dup2\n        /* \"#utility.yul\":10335:10338   */\n      dup2\n        /* \"#utility.yul\":10332:10347   */\n      lt\n        /* \"#utility.yul\":10306:10537   */\n      iszero\n      tag_462\n      jumpi\n        /* \"#utility.yul\":10415:10418   */\n      dup1\n        /* \"#utility.yul\":10444:10492   */\n      tag_463\n        /* \"#utility.yul\":10488:10491   */\n      dup9\n        /* \"#utility.yul\":10476:10486   */\n      dup3\n        /* \"#utility.yul\":10444:10492   */\n      tag_312\n      jump\t// in\n    tag_463:\n        /* \"#utility.yul\":10439:10442   */\n      dup5\n        /* \"#utility.yul\":10432:10493   */\n      mstore\n        /* \"#utility.yul\":10522:10526   */\n      0x20\n        /* \"#utility.yul\":10517:10520   */\n      dup5\n        /* \"#utility.yul\":10513:10527   */\n      add\n        /* \"#utility.yul\":10506:10527   */\n      swap4\n      pop\n        /* \"#utility.yul\":10382:10537   */\n      pop\n        /* \"#utility.yul\":10366:10370   */\n      0x20\n        /* \"#utility.yul\":10361:10364   */\n      dup2\n        /* \"#utility.yul\":10357:10371   */\n      add\n        /* \"#utility.yul\":10350:10371   */\n      swap1\n      pop\n        /* \"#utility.yul\":10306:10537   */\n      jump(tag_460)\n    tag_462:\n        /* \"#utility.yul\":10310:10331   */\n      pop\n        /* \"#utility.yul\":9924:10543   */\n      pop\n      pop\n        /* \"#utility.yul\":9811:10543   */\n      swap4\n      swap3\n      pop\n      pop\n      pop\n      jump\t// out\n        /* \"#utility.yul\":10566:10951   */\n    tag_314:\n        /* \"#utility.yul\":10648:10653   */\n      0x00\n        /* \"#utility.yul\":10697:10700   */\n      dup3\n        /* \"#utility.yul\":10690:10694   */\n      0x1f\n        /* \"#utility.yul\":10682:10688   */\n      dup4\n        /* \"#utility.yul\":10678:10695   */\n      add\n        /* \"#utility.yul\":10674:10701   */\n      slt\n        /* \"#utility.yul\":10664:10786   */\n      tag_465\n      jumpi\n        /* \"#utility.yul\":10705:10784   */\n      tag_466\n      tag_306\n      jump\t// in\n    tag_466:\n        /* \"#utility.yul\":10664:10786   */\n    tag_465:\n        /* \"#utility.yul\":10815:10821   */\n      dup2\n        /* \"#utility.yul\":10809:10822   */\n      mload\n        /* \"#utility.yul\":10840:10945   */\n      tag_467\n        /* \"#utility.yul\":10941:10944   */\n      dup5\n        /* \"#utility.yul\":10933:10939   */\n      dup3\n        /* \"#utility.yul\":10926:10930   */\n      0x20\n        /* \"#utility.yul\":10918:10924   */\n      dup7\n        /* \"#utility.yul\":10914:10931   */\n      add\n        /* \"#utility.yul\":10840:10945   */\n      tag_313\n      jump\t// in\n    tag_467:\n        /* \"#utility.yul\":10831:10945   */\n      swap2\n      pop\n        /* \"#utility.yul\":10654:10951   */\n      pop\n        /* \"#utility.yul\":10566:10951   */\n      swap3\n      swap2\n      pop\n      pop\n      jump\t// out\n        /* \"#utility.yul\":10957:11511   */\n    tag_86:\n        /* \"#utility.yul\":11052:11058   */\n      0x00\n        /* \"#utility.yul\":11101:11103   */\n      0x20\n        /* \"#utility.yul\":11089:11098   */\n      dup3\n        /* \"#utility.yul\":11080:11087   */\n      dup5\n        /* \"#utility.yul\":11076:11099   */\n      sub\n        /* \"#utility.yul\":11072:11104   */\n      slt\n        /* \"#utility.yul\":11069:11188   */\n      iszero\n      tag_469\n      jumpi\n        /* \"#utility.yul\":11107:11186   */\n      tag_470\n      tag_274\n      jump\t// in\n    tag_470:\n        /* \"#utility.yul\":11069:11188   */\n    tag_469:\n        /* \"#utility.yul\":11248:11249   */\n      0x00\n        /* \"#utility.yul\":11237:11246   */\n      dup3\n        /* \"#utility.yul\":11233:11250   */\n      add\n        /* \"#utility.yul\":11227:11251   */\n      mload\n        /* \"#utility.yul\":11278:11296   */\n      0xffffffffffffffff\n        /* \"#utility.yul\":11270:11276   */\n      dup2\n        /* \"#utility.yul\":11267:11297   */\n      gt\n        /* \"#utility.yul\":11264:11381   */\n      iszero\n      tag_471\n      jumpi\n        /* \"#utility.yul\":11300:11379   */\n      tag_472\n      tag_275\n      jump\t// in\n    tag_472:\n        /* \"#utility.yul\":11264:11381   */\n    tag_471:\n        /* \"#utility.yul\":11405:11494   */\n      tag_473\n        /* \"#utility.yul\":11486:11493   */\n      dup5\n        /* \"#utility.yul\":11477:11483   */\n      dup3\n        /* \"#utility.yul\":11466:11475   */\n      dup6\n        /* \"#utility.yul\":11462:11484   */\n      add\n        /* \"#utility.yul\":11405:11494   */\n      tag_314\n      jump\t// in\n    tag_473:\n        /* \"#utility.yul\":11395:11494   */\n      swap2\n      pop\n        /* \"#utility.yul\":11198:11504   */\n      pop\n        /* \"#utility.yul\":10957:11511   */\n      swap3\n      swap2\n      pop\n      pop\n      jump\t// out\n        /* \"#utility.yul\":11517:11627   */\n    tag_315:\n        /* \"#utility.yul\":11568:11575   */\n      0x00\n        /* \"#utility.yul\":11597:11621   */\n      tag_475\n        /* \"#utility.yul\":11615:11620   */\n      dup3\n        /* \"#utility.yul\":11597:11621   */\n      tag_277\n      jump\t// in\n    tag_475:\n        /* \"#utility.yul\":11586:11621   */\n      swap1\n      pop\n        /* \"#utility.yul\":11517:11627   */\n      swap2\n      swap1\n      pop\n      jump\t// out\n        /* \"#utility.yul\":11633:11783   */\n    tag_316:\n        /* \"#utility.yul\":11720:11758   */\n      tag_477\n        /* \"#utility.yul\":11752:11757   */\n      dup2\n        /* \"#utility.yul\":11720:11758   */\n      tag_315\n      jump\t// in\n    tag_477:\n        /* \"#utility.yul\":11713:11718   */\n      dup2\n        /* \"#utility.yul\":11710:11759   */\n      eq\n        /* \"#utility.yul\":11700:11777   */\n      tag_478\n      jumpi\n        /* \"#utility.yul\":11773:11774   */\n      0x00\n        /* \"#utility.yul\":11770:11771   */\n      dup1\n        /* \"#utility.yul\":11763:11775   */\n      revert\n        /* \"#utility.yul\":11700:11777   */\n    tag_478:\n        /* \"#utility.yul\":11633:11783   */\n      pop\n      jump\t// out\n        /* \"#utility.yul\":11789:11960   */\n    tag_317:\n        /* \"#utility.yul\":11860:11865   */\n      0x00\n        /* \"#utility.yul\":11891:11897   */\n      dup2\n        /* \"#utility.yul\":11885:11898   */\n      mload\n        /* \"#utility.yul\":11876:11898   */\n      swap1\n      pop\n        /* \"#utility.yul\":11907:11954   */\n      tag_480\n        /* \"#utility.yul\":11948:11953   */\n      dup2\n        /* \"#utility.yul\":11907:11954   */\n      tag_316\n      jump\t// in\n    tag_480:\n        /* \"#utility.yul\":11789:11960   */\n      swap3\n      swap2\n      pop\n      pop\n      jump\t// out\n        /* \"#utility.yul\":11966:12345   */\n    tag_93:\n        /* \"#utility.yul\":12050:12056   */\n      0x00\n        /* \"#utility.yul\":12099:12101   */\n      0x20\n        /* \"#utility.yul\":12087:12096   */\n      dup3\n        /* \"#utility.yul\":12078:12085   */\n      dup5\n        /* \"#utility.yul\":12074:12097   */\n      sub\n        /* \"#utility.yul\":12070:12102   */\n      slt\n        /* \"#utility.yul\":12067:12186   */\n      iszero\n      tag_482\n      jumpi\n        /* \"#utility.yul\":12105:12184   */\n      tag_483\n      tag_274\n      jump\t// in\n    tag_483:\n        /* \"#utility.yul\":12067:12186   */\n    tag_482:\n        /* \"#utility.yul\":12225:12226   */\n      0x00\n        /* \"#utility.yul\":12250:12328   */\n      tag_484\n        /* \"#utility.yul\":12320:12327   */\n      dup5\n        /* \"#utility.yul\":12311:12317   */\n      dup3\n        /* \"#utility.yul\":12300:12309   */\n      dup6\n        /* \"#utility.yul\":12296:12318   */\n      add\n        /* \"#utility.yul\":12250:12328   */\n      tag_317\n      jump\t// in\n    tag_484:\n        /* \"#utility.yul\":12240:12328   */\n      swap2\n      pop\n        /* \"#utility.yul\":12196:12338   */\n      pop\n        /* \"#utility.yul\":11966:12345   */\n      swap3\n      swap2\n      pop\n      pop\n      jump\t// out\n        /* \"#utility.yul\":12351:12702   */\n    tag_107:\n        /* \"#utility.yul\":12421:12427   */\n      0x00\n        /* \"#utility.yul\":12470:12472   */\n      0x20\n        /* \"#utility.yul\":12458:12467   */\n      dup3\n        /* \"#utility.yul\":12449:12456   */\n      dup5\n        /* \"#utility.yul\":12445:12468   */\n      sub\n        /* \"#utility.yul\":12441:12473   */\n      slt\n        /* \"#utility.yul\":12438:12557   */\n      iszero\n      tag_486\n      jumpi\n        /* \"#utility.yul\":12476:12555   */\n      tag_487\n      tag_274\n      jump\t// in\n    tag_487:\n        /* \"#utility.yul\":12438:12557   */\n    tag_486:\n        /* \"#utility.yul\":12596:12597   */\n      0x00\n        /* \"#utility.yul\":12621:12685   */\n      tag_488\n        /* \"#utility.yul\":12677:12684   */\n      dup5\n        /* \"#utility.yul\":12668:12674   */\n      dup3\n        /* \"#utility.yul\":12657:12666   */\n      dup6\n        /* \"#utility.yul\":12653:12675   */\n      add\n        /* \"#utility.yul\":12621:12685   */\n      tag_312\n      jump\t// in\n    tag_488:\n        /* \"#utility.yul\":12611:12685   */\n      swap2\n      pop\n        /* \"#utility.yul\":12567:12695   */\n      pop\n        /* \"#utility.yul\":12351:12702   */\n      swap3\n      swap2\n      pop\n      pop\n      jump\t// out\n        /* \"#utility.yul\":12708:12877   */\n    tag_318:\n        /* \"#utility.yul\":12792:12803   */\n      0x00\n        /* \"#utility.yul\":12826:12832   */\n      dup3\n        /* \"#utility.yul\":12821:12824   */\n      dup3\n        /* \"#utility.yul\":12814:12833   */\n      mstore\n        /* \"#utility.yul\":12866:12870   */\n      0x20\n        /* \"#utility.yul\":12861:12864   */\n      dup3\n        /* \"#utility.yul\":12857:12871   */\n      add\n        /* \"#utility.yul\":12842:12871   */\n      swap1\n      pop\n        /* \"#utility.yul\":12708:12877   */\n      swap3\n      swap2\n      pop\n      pop\n      jump\t// out\n        /* \"#utility.yul\":12883:13065   */\n    tag_319:\n        /* \"#utility.yul\":13023:13057   */\n      0x4f776e61626c653a2063616c6c6572206973206e6f7420746865206f776e6572\n        /* \"#utility.yul\":13019:13020   */\n      0x00\n        /* \"#utility.yul\":13011:13017   */\n      dup3\n        /* \"#utility.yul\":13007:13021   */\n      add\n        /* \"#utility.yul\":13000:13058   */\n      mstore\n        /* \"#utility.yul\":12883:13065   */\n      pop\n      jump\t// out\n        /* \"#utility.yul\":13071:13437   */\n    tag_320:\n        /* \"#utility.yul\":13213:13216   */\n      0x00\n        /* \"#utility.yul\":13234:13301   */\n      tag_492\n        /* \"#utility.yul\":13298:13300   */\n      0x20\n        /* \"#utility.yul\":13293:13296   */\n      dup4\n        /* \"#utility.yul\":13234:13301   */\n      tag_318\n      jump\t// in\n    tag_492:\n        /* \"#utility.yul\":13227:13301   */\n      swap2\n      pop\n        /* \"#utility.yul\":13310:13403   */\n      tag_493\n        /* \"#utility.yul\":13399:13402   */\n      dup3\n        /* \"#utility.yul\":13310:13403   */\n      tag_319\n      jump\t// in\n    tag_493:\n        /* \"#utility.yul\":13428:13430   */\n      0x20\n        /* \"#utility.yul\":13423:13426   */\n      dup3\n        /* \"#utility.yul\":13419:13431   */\n      add\n        /* \"#utility.yul\":13412:13431   */\n      swap1\n      pop\n        /* \"#utility.yul\":13071:13437   */\n      swap2\n      swap1\n      pop\n      jump\t// out\n        /* \"#utility.yul\":13443:13862   */\n    tag_186:\n        /* \"#utility.yul\":13609:13613   */\n      0x00\n        /* \"#utility.yul\":13647:13649   */\n      0x20\n        /* \"#utility.yul\":13636:13645   */\n      dup3\n        /* \"#utility.yul\":13632:13650   */\n      add\n        /* \"#utility.yul\":13624:13650   */\n      swap1\n      pop\n        /* \"#utility.yul\":13696:13705   */\n      dup2\n        /* \"#utility.yul\":13690:13694   */\n      dup2\n        /* \"#utility.yul\":13686:13706   */\n      sub\n        /* \"#utility.yul\":13682:13683   */\n      0x00\n        /* \"#utility.yul\":13671:13680   */\n      dup4\n        /* \"#utility.yul\":13667:13684   */\n      add\n        /* \"#utility.yul\":13660:13707   */\n      mstore\n        /* \"#utility.yul\":13724:13855   */\n      tag_495\n        /* \"#utility.yul\":13850:13854   */\n      dup2\n        /* \"#utility.yul\":13724:13855   */\n      tag_320\n      jump\t// in\n    tag_495:\n        /* \"#utility.yul\":13716:13855   */\n      swap1\n      pop\n        /* \"#utility.yul\":13443:13862   */\n      swap2\n      swap1\n      pop\n      jump\t// out\n        /* \"#utility.yul\":13868:14048   */\n    tag_321:\n        /* \"#utility.yul\":13916:13993   */\n      0x4e487b7100000000000000000000000000000000000000000000000000000000\n        /* \"#utility.yul\":13913:13914   */\n      0x00\n        /* \"#utility.yul\":13906:13994   */\n      mstore\n        /* \"#utility.yul\":14013:14017   */\n      0x11\n        /* \"#utility.yul\":14010:14011   */\n      0x04\n        /* \"#utility.yul\":14003:14018   */\n      mstore\n        /* \"#utility.yul\":14037:14041   */\n      0x24\n        /* \"#utility.yul\":14034:14035   */\n      0x00\n        /* \"#utility.yul\":14027:14042   */\n      revert\n        /* \"#utility.yul\":14054:14402   */\n    tag_212:\n        /* \"#utility.yul\":14094:14101   */\n      0x00\n        /* \"#utility.yul\":14117:14137   */\n      tag_498\n        /* \"#utility.yul\":14135:14136   */\n      dup3\n        /* \"#utility.yul\":14117:14137   */\n      tag_280\n      jump\t// in\n    tag_498:\n        /* \"#utility.yul\":14112:14137   */\n      swap2\n      pop\n        /* \"#utility.yul\":14151:14171   */\n      tag_499\n        /* \"#utility.yul\":14169:14170   */\n      dup4\n        /* \"#utility.yul\":14151:14171   */\n      tag_280\n      jump\t// in\n    tag_499:\n        /* \"#utility.yul\":14146:14171   */\n      swap3\n      pop\n        /* \"#utility.yul\":14339:14340   */\n      dup2\n        /* \"#utility.yul\":14271:14337   */\n      0xffffffffffffffffffffffffffffffffffffffffffffffffffffffffffffffff\n        /* \"#utility.yul\":14267:14341   */\n      div\n        /* \"#utility.yul\":14264:14265   */\n      dup4\n        /* \"#utility.yul\":14261:14342   */\n      gt\n        /* \"#utility.yul\":14256:14257   */\n      dup3\n        /* \"#utility.yul\":14249:14258   */\n      iszero\n        /* \"#utility.yul\":14242:14259   */\n      iszero\n        /* \"#utility.yul\":14238:14343   */\n      and\n        /* \"#utility.yul\":14235:14366   */\n      iszero\n      tag_500\n      jumpi\n        /* \"#utility.yul\":14346:14364   */\n      tag_501\n      tag_321\n      jump\t// in\n    tag_501:\n        /* \"#utility.yul\":14235:14366   */\n    tag_500:\n        /* \"#utility.yul\":14394:14395   */\n      dup3\n        /* \"#utility.yul\":14391:14392   */\n      dup3\n        /* \"#utility.yul\":14387:14396   */\n      mul\n        /* \"#utility.yul\":14376:14396   */\n      swap1\n      pop\n        /* \"#utility.yul\":14054:14402   */\n      swap3\n      swap2\n      pop\n      pop\n      jump\t// out\n        /* \"#utility.yul\":14408:14525   */\n    tag_322:\n        /* \"#utility.yul\":14517:14518   */\n      0x00\n        /* \"#utility.yul\":14514:14515   */\n      dup1\n        /* \"#utility.yul\":14507:14519   */\n      revert\n        /* \"#utility.yul\":14654:14769   */\n    tag_324:\n        /* \"#utility.yul\":14710:14717   */\n      0x00\n        /* \"#utility.yul\":14739:14763   */\n      tag_505\n        /* \"#utility.yul\":14757:14762   */\n      dup3\n        /* \"#utility.yul\":14739:14763   */\n      tag_277\n      jump\t// in\n    tag_505:\n        /* \"#utility.yul\":14728:14763   */\n      swap1\n      pop\n        /* \"#utility.yul\":14654:14769   */\n      swap2\n      swap1\n      pop\n      jump\t// out\n        /* \"#utility.yul\":14775:14935   */\n    tag_325:\n        /* \"#utility.yul\":14867:14910   */\n      tag_507\n        /* \"#utility.yul\":14904:14909   */\n      dup2\n        /* \"#utility.yul\":14867:14910   */\n      tag_324\n      jump\t// in\n    tag_507:\n        /* \"#utility.yul\":14860:14865   */\n      dup2\n        /* \"#utility.yul\":14857:14911   */\n      eq\n        /* \"#utility.yul\":14847:14929   */\n      tag_508\n      jumpi\n        /* \"#utility.yul\":14925:14926   */\n      0x00\n        /* \"#utility.yul\":14922:14923   */\n      dup1\n        /* \"#utility.yul\":14915:14927   */\n      revert\n        /* \"#utility.yul\":14847:14929   */\n    tag_508:\n        /* \"#utility.yul\":14775:14935   */\n      pop\n      jump\t// out\n        /* \"#utility.yul\":14941:15122   */\n    tag_326:\n        /* \"#utility.yul\":15017:15022   */\n      0x00\n        /* \"#utility.yul\":15048:15054   */\n      dup2\n        /* \"#utility.yul\":15042:15055   */\n      mload\n        /* \"#utility.yul\":15033:15055   */\n      swap1\n      pop\n        /* \"#utility.yul\":15064:15116   */\n      tag_510\n        /* \"#utility.yul\":15110:15115   */\n      dup2\n        /* \"#utility.yul\":15064:15116   */\n      tag_325\n      jump\t// in\n    tag_510:\n        /* \"#utility.yul\":14941:15122   */\n      swap3\n      swap2\n      pop\n      pop\n      jump\t// out\n        /* \"#utility.yul\":15151:16542   */\n    tag_327:\n        /* \"#utility.yul\":15236:15241   */\n      0x00\n        /* \"#utility.yul\":15280:15284   */\n      0xc0\n        /* \"#utility.yul\":15268:15277   */\n      dup3\n        /* \"#utility.yul\":15263:15266   */\n      dup5\n        /* \"#utility.yul\":15259:15278   */\n      sub\n        /* \"#utility.yul\":15255:15285   */\n      slt\n        /* \"#utility.yul\":15252:15369   */\n      iszero\n      tag_512\n      jumpi\n        /* \"#utility.yul\":15288:15367   */\n      tag_513\n      tag_322\n      jump\t// in\n    tag_513:\n        /* \"#utility.yul\":15252:15369   */\n    tag_512:\n        /* \"#utility.yul\":15387:15408   */\n      tag_514\n        /* \"#utility.yul\":15403:15407   */\n      0xc0\n        /* \"#utility.yul\":15387:15408   */\n      tag_309\n      jump\t// in\n    tag_514:\n        /* \"#utility.yul\":15378:15408   */\n      swap1\n      pop\n        /* \"#utility.yul\":15470:15471   */\n      0x00\n        /* \"#utility.yul\":15510:15584   */\n      tag_515\n        /* \"#utility.yul\":15580:15583   */\n      dup5\n        /* \"#utility.yul\":15571:15577   */\n      dup3\n        /* \"#utility.yul\":15560:15569   */\n      dup6\n        /* \"#utility.yul\":15556:15578   */\n      add\n        /* \"#utility.yul\":15510:15584   */\n      tag_317\n      jump\t// in\n    tag_515:\n        /* \"#utility.yul\":15503:15507   */\n      0x00\n        /* \"#utility.yul\":15496:15501   */\n      dup4\n        /* \"#utility.yul\":15492:15508   */\n      add\n        /* \"#utility.yul\":15485:15585   */\n      mstore\n        /* \"#utility.yul\":15418:15596   */\n      pop\n        /* \"#utility.yul\":15661:15663   */\n      0x20\n        /* \"#utility.yul\":15702:15762   */\n      tag_516\n        /* \"#utility.yul\":15758:15761   */\n      dup5\n        /* \"#utility.yul\":15749:15755   */\n      dup3\n        /* \"#utility.yul\":15738:15747   */\n      dup6\n        /* \"#utility.yul\":15734:15756   */\n      add\n        /* \"#utility.yul\":15702:15762   */\n      tag_312\n      jump\t// in\n    tag_516:\n        /* \"#utility.yul\":15695:15699   */\n      0x20\n        /* \"#utility.yul\":15688:15693   */\n      dup4\n        /* \"#utility.yul\":15684:15700   */\n      add\n        /* \"#utility.yul\":15677:15763   */\n      mstore\n        /* \"#utility.yul\":15606:15774   */\n      pop\n        /* \"#utility.yul\":15844:15846   */\n      0x40\n        /* \"#utility.yul\":15885:15945   */\n      tag_517\n        /* \"#utility.yul\":15941:15944   */\n      dup5\n        /* \"#utility.yul\":15932:15938   */\n      dup3\n        /* \"#utility.yul\":15921:15930   */\n      dup6\n        /* \"#utility.yul\":15917:15939   */\n      add\n        /* \"#utility.yul\":15885:15945   */\n      tag_312\n      jump\t// in\n    tag_517:\n        /* \"#utility.yul\":15878:15882   */\n      0x40\n        /* \"#utility.yul\":15871:15876   */\n      dup4\n        /* \"#utility.yul\":15867:15883   */\n      add\n        /* \"#utility.yul\":15860:15946   */\n      mstore\n        /* \"#utility.yul\":15784:15957   */\n      pop\n        /* \"#utility.yul\":16026:16028   */\n      0x60\n        /* \"#utility.yul\":16067:16127   */\n      tag_518\n        /* \"#utility.yul\":16123:16126   */\n      dup5\n        /* \"#utility.yul\":16114:16120   */\n      dup3\n        /* \"#utility.yul\":16103:16112   */\n      dup6\n        /* \"#utility.yul\":16099:16121   */\n      add\n        /* \"#utility.yul\":16067:16127   */\n      tag_312\n      jump\t// in\n    tag_518:\n        /* \"#utility.yul\":16060:16064   */\n      0x60\n        /* \"#utility.yul\":16053:16058   */\n      dup4\n        /* \"#utility.yul\":16049:16065   */\n      add\n        /* \"#utility.yul\":16042:16128   */\n      mstore\n        /* \"#utility.yul\":15967:16139   */\n      pop\n        /* \"#utility.yul\":16208:16211   */\n      0x80\n        /* \"#utility.yul\":16250:16329   */\n      tag_519\n        /* \"#utility.yul\":16325:16328   */\n      dup5\n        /* \"#utility.yul\":16316:16322   */\n      dup3\n        /* \"#utility.yul\":16305:16314   */\n      dup6\n        /* \"#utility.yul\":16301:16323   */\n      add\n        /* \"#utility.yul\":16250:16329   */\n      tag_326\n      jump\t// in\n    tag_519:\n        /* \"#utility.yul\":16243:16247   */\n      0x80\n        /* \"#utility.yul\":16236:16241   */\n      dup4\n        /* \"#utility.yul\":16232:16248   */\n      add\n        /* \"#utility.yul\":16225:16330   */\n      mstore\n        /* \"#utility.yul\":16149:16341   */\n      pop\n        /* \"#utility.yul\":16407:16410   */\n      0xa0\n        /* \"#utility.yul\":16449:16523   */\n      tag_520\n        /* \"#utility.yul\":16519:16522   */\n      dup5\n        /* \"#utility.yul\":16510:16516   */\n      dup3\n        /* \"#utility.yul\":16499:16508   */\n      dup6\n        /* \"#utility.yul\":16495:16517   */\n      add\n        /* \"#utility.yul\":16449:16523   */\n      tag_317\n      jump\t// in\n    tag_520:\n        /* \"#utility.yul\":16442:16446   */\n      0xa0\n        /* \"#utility.yul\":16435:16440   */\n      dup4\n        /* \"#utility.yul\":16431:16447   */\n      add\n        /* \"#utility.yul\":16424:16524   */\n      mstore\n        /* \"#utility.yul\":16351:16535   */\n      pop\n        /* \"#utility.yul\":15151:16542   */\n      swap3\n      swap2\n      pop\n      pop\n      jump\t// out\n        /* \"#utility.yul\":16548:16950   */\n    tag_218:\n        /* \"#utility.yul\":16643:16649   */\n      0x00\n        /* \"#utility.yul\":16692:16695   */\n      0xc0\n        /* \"#utility.yul\":16680:16689   */\n      dup3\n        /* \"#utility.yul\":16671:16678   */\n      dup5\n        /* \"#utility.yul\":16667:16690   */\n      sub\n        /* \"#utility.yul\":16663:16696   */\n      slt\n        /* \"#utility.yul\":16660:16780   */\n      iszero\n      tag_522\n      jumpi\n        /* \"#utility.yul\":16699:16778   */\n      tag_523\n      tag_274\n      jump\t// in\n    tag_523:\n        /* \"#utility.yul\":16660:16780   */\n    tag_522:\n        /* \"#utility.yul\":16819:16820   */\n      0x00\n        /* \"#utility.yul\":16844:16933   */\n      tag_524\n        /* \"#utility.yul\":16925:16932   */\n      dup5\n        /* \"#utility.yul\":16916:16922   */\n      dup3\n        /* \"#utility.yul\":16905:16914   */\n      dup6\n        /* \"#utility.yul\":16901:16923   */\n      add\n        /* \"#utility.yul\":16844:16933   */\n      tag_327\n      jump\t// in\n    tag_524:\n        /* \"#utility.yul\":16834:16933   */\n      swap2\n      pop\n        /* \"#utility.yul\":16790:16943   */\n      pop\n        /* \"#utility.yul\":16548:16950   */\n      swap3\n      swap2\n      pop\n      pop\n      jump\t// out\n        /* \"#utility.yul\":16956:17099   */\n    tag_328:\n        /* \"#utility.yul\":17013:17018   */\n      0x00\n        /* \"#utility.yul\":17044:17050   */\n      dup2\n        /* \"#utility.yul\":17038:17051   */\n      mload\n        /* \"#utility.yul\":17029:17051   */\n      swap1\n      pop\n        /* \"#utility.yul\":17060:17093   */\n      tag_526\n        /* \"#utility.yul\":17087:17092   */\n      dup2\n        /* \"#utility.yul\":17060:17093   */\n      tag_278\n      jump\t// in\n    tag_526:\n        /* \"#utility.yul\":16956:17099   */\n      swap3\n      swap2\n      pop\n      pop\n      jump\t// out\n        /* \"#utility.yul\":17105:17456   */\n    tag_228:\n        /* \"#utility.yul\":17175:17181   */\n      0x00\n        /* \"#utility.yul\":17224:17226   */\n      0x20\n        /* \"#utility.yul\":17212:17221   */\n      dup3\n        /* \"#utility.yul\":17203:17210   */\n      dup5\n        /* \"#utility.yul\":17199:17222   */\n      sub\n        /* \"#utility.yul\":17195:17227   */\n      slt\n        /* \"#utility.yul\":17192:17311   */\n      iszero\n      tag_528\n      jumpi\n        /* \"#utility.yul\":17230:17309   */\n      tag_529\n      tag_274\n      jump\t// in\n    tag_529:\n        /* \"#utility.yul\":17192:17311   */\n    tag_528:\n        /* \"#utility.yul\":17350:17351   */\n      0x00\n        /* \"#utility.yul\":17375:17439   */\n      tag_530\n        /* \"#utility.yul\":17431:17438   */\n      dup5\n        /* \"#utility.yul\":17422:17428   */\n      dup3\n        /* \"#utility.yul\":17411:17420   */\n      dup6\n        /* \"#utility.yul\":17407:17429   */\n      add\n        /* \"#utility.yul\":17375:17439   */\n      tag_328\n      jump\t// in\n    tag_530:\n        /* \"#utility.yul\":17365:17439   */\n      swap2\n      pop\n        /* \"#utility.yul\":17321:17449   */\n      pop\n        /* \"#utility.yul\":17105:17456   */\n      swap3\n      swap2\n      pop\n      pop\n      jump\t// out\n        /* \"#utility.yul\":17462:17687   */\n    tag_329:\n        /* \"#utility.yul\":17602:17636   */\n      0x4f776e61626c653a206e6577206f776e657220697320746865207a65726f2061\n        /* \"#utility.yul\":17598:17599   */\n      0x00\n        /* \"#utility.yul\":17590:17596   */\n      dup3\n        /* \"#utility.yul\":17586:17600   */\n      add\n        /* \"#utility.yul\":17579:17637   */\n      mstore\n        /* \"#utility.yul\":17671:17679   */\n      0x6464726573730000000000000000000000000000000000000000000000000000\n        /* \"#utility.yul\":17666:17668   */\n      0x20\n        /* \"#utility.yul\":17658:17664   */\n      dup3\n        /* \"#utility.yul\":17654:17669   */\n      add\n        /* \"#utility.yul\":17647:17680   */\n      mstore\n        /* \"#utility.yul\":17462:17687   */\n      pop\n      jump\t// out\n        /* \"#utility.yul\":17693:18059   */\n    tag_330:\n        /* \"#utility.yul\":17835:17838   */\n      0x00\n        /* \"#utility.yul\":17856:17923   */\n      tag_533\n        /* \"#utility.yul\":17920:17922   */\n      0x26\n        /* \"#utility.yul\":17915:17918   */\n      dup4\n        /* \"#utility.yul\":17856:17923   */\n      tag_318\n      jump\t// in\n    tag_533:\n        /* \"#utility.yul\":17849:17923   */\n      swap2\n      pop\n        /* \"#utility.yul\":17932:18025   */\n      tag_534\n        /* \"#utility.yul\":18021:18024   */\n      dup3\n        /* \"#utility.yul\":17932:18025   */\n      tag_329\n      jump\t// in\n    tag_534:\n        /* \"#utility.yul\":18050:18052   */\n      0x40\n        /* \"#utility.yul\":18045:18048   */\n      dup3\n        /* \"#utility.yul\":18041:18053   */\n      add\n        /* \"#utility.yul\":18034:18053   */\n      swap1\n      pop\n        /* \"#utility.yul\":17693:18059   */\n      swap2\n      swap1\n      pop\n      jump\t// out\n        /* \"#utility.yul\":18065:18484   */\n    tag_247:\n        /* \"#utility.yul\":18231:18235   */\n      0x00\n        /* \"#utility.yul\":18269:18271   */\n      0x20\n        /* \"#utility.yul\":18258:18267   */\n      dup3\n        /* \"#utility.yul\":18254:18272   */\n      add\n        /* \"#utility.yul\":18246:18272   */\n      swap1\n      pop\n        /* \"#utility.yul\":18318:18327   */\n      dup2\n        /* \"#utility.yul\":18312:18316   */\n      dup2\n        /* \"#utility.yul\":18308:18328   */\n      sub\n        /* \"#utility.yul\":18304:18305   */\n      0x00\n        /* \"#utility.yul\":18293:18302   */\n      dup4\n        /* \"#utility.yul\":18289:18306   */\n      add\n        /* \"#utility.yul\":18282:18329   */\n      mstore\n        /* \"#utility.yul\":18346:18477   */\n      tag_536\n        /* \"#utility.yul\":18472:18476   */\n      dup2\n        /* \"#utility.yul\":18346:18477   */\n      tag_330\n      jump\t// in\n    tag_536:\n        /* \"#utility.yul\":18338:18477   */\n      swap1\n      pop\n        /* \"#utility.yul\":18065:18484   */\n      swap2\n      swap1\n      pop\n      jump\t// out\n        /* \"#utility.yul\":18490:18670   */\n    tag_331:\n        /* \"#utility.yul\":18538:18615   */\n      0x4e487b7100000000000000000000000000000000000000000000000000000000\n        /* \"#utility.yul\":18535:18536   */\n      0x00\n        /* \"#utility.yul\":18528:18616   */\n      mstore\n        /* \"#utility.yul\":18635:18639   */\n      0x12\n        /* \"#utility.yul\":18632:18633   */\n      0x04\n        /* \"#utility.yul\":18625:18640   */\n      mstore\n        /* \"#utility.yul\":18659:18663   */\n      0x24\n        /* \"#utility.yul\":18656:18657   */\n      0x00\n        /* \"#utility.yul\":18649:18664   */\n      revert\n        /* \"#utility.yul\":18676:18861   */\n    tag_253:\n        /* \"#utility.yul\":18716:18717   */\n      0x00\n        /* \"#utility.yul\":18733:18753   */\n      tag_539\n        /* \"#utility.yul\":18751:18752   */\n      dup3\n        /* \"#utility.yul\":18733:18753   */\n      tag_280\n      jump\t// in\n    tag_539:\n        /* \"#utility.yul\":18728:18753   */\n      swap2\n      pop\n        /* \"#utility.yul\":18767:18787   */\n      tag_540\n        /* \"#utility.yul\":18785:18786   */\n      dup4\n        /* \"#utility.yul\":18767:18787   */\n      tag_280\n      jump\t// in\n    tag_540:\n        /* \"#utility.yul\":18762:18787   */\n      swap3\n      pop\n        /* \"#utility.yul\":18806:18807   */\n      dup3\n        /* \"#utility.yul\":18796:18831   */\n      tag_541\n      jumpi\n        /* \"#utility.yul\":18811:18829   */\n      tag_542\n      tag_331\n      jump\t// in\n    tag_542:\n        /* \"#utility.yul\":18796:18831   */\n    tag_541:\n        /* \"#utility.yul\":18853:18854   */\n      dup3\n        /* \"#utility.yul\":18850:18851   */\n      dup3\n        /* \"#utility.yul\":18846:18855   */\n      div\n        /* \"#utility.yul\":18841:18855   */\n      swap1\n      pop\n        /* \"#utility.yul\":18676:18861   */\n      swap3\n      swap2\n      pop\n      pop\n      jump\t// out\n        /* \"#utility.yul\":18867:19087   */\n    tag_332:\n        /* \"#utility.yul\":19007:19041   */\n      0x536166654d6174683a206d756c7469706c69636174696f6e206f766572666c6f\n        /* \"#utility.yul\":19003:19004   */\n      0x00\n        /* \"#utility.yul\":18995:19001   */\n      dup3\n        /* \"#utility.yul\":18991:19005   */\n      add\n        /* \"#utility.yul\":18984:19042   */\n      mstore\n        /* \"#utility.yul\":19076:19079   */\n      0x7700000000000000000000000000000000000000000000000000000000000000\n        /* \"#utility.yul\":19071:19073   */\n      0x20\n        /* \"#utility.yul\":19063:19069   */\n      dup3\n        /* \"#utility.yul\":19059:19074   */\n      add\n        /* \"#utility.yul\":19052:19080   */\n      mstore\n        /* \"#utility.yul\":18867:19087   */\n      pop\n      jump\t// out\n        /* \"#utility.yul\":19093:19459   */\n    tag_333:\n        /* \"#utility.yul\":19235:19238   */\n      0x00\n        /* \"#utility.yul\":19256:19323   */\n      tag_545\n        /* \"#utility.yul\":19320:19322   */\n      0x21\n        /* \"#utility.yul\":19315:19318   */\n      dup4\n        /* \"#utility.yul\":19256:19323   */\n      tag_318\n      jump\t// in\n    tag_545:\n        /* \"#utility.yul\":19249:19323   */\n      swap2\n      pop\n        /* \"#utility.yul\":19332:19425   */\n      tag_546\n        /* \"#utility.yul\":19421:19424   */\n      dup3\n        /* \"#utility.yul\":19332:19425   */\n      tag_332\n      jump\t// in\n    tag_546:\n        /* \"#utility.yul\":19450:19452   */\n      0x40\n        /* \"#utility.yul\":19445:19448   */\n      dup3\n        /* \"#utility.yul\":19441:19453   */\n      add\n        /* \"#utility.yul\":19434:19453   */\n      swap1\n      pop\n        /* \"#utility.yul\":19093:19459   */\n      swap2\n      swap1\n      pop\n      jump\t// out\n        /* \"#utility.yul\":19465:19884   */\n    tag_256:\n        /* \"#utility.yul\":19631:19635   */\n      0x00\n        /* \"#utility.yul\":19669:19671   */\n      0x20\n        /* \"#utility.yul\":19658:19667   */\n      dup3\n        /* \"#utility.yul\":19654:19672   */\n      add\n        /* \"#utility.yul\":19646:19672   */\n      swap1\n      pop\n        /* \"#utility.yul\":19718:19727   */\n      dup2\n        /* \"#utility.yul\":19712:19716   */\n      dup2\n        /* \"#utility.yul\":19708:19728   */\n      sub\n        /* \"#utility.yul\":19704:19705   */\n      0x00\n        /* \"#utility.yul\":19693:19702   */\n      dup4\n        /* \"#utility.yul\":19689:19706   */\n      add\n        /* \"#utility.yul\":19682:19729   */\n      mstore\n        /* \"#utility.yul\":19746:19877   */\n      tag_548\n        /* \"#utility.yul\":19872:19876   */\n      dup2\n        /* \"#utility.yul\":19746:19877   */\n      tag_333\n      jump\t// in\n    tag_548:\n        /* \"#utility.yul\":19738:19877   */\n      swap1\n      pop\n        /* \"#utility.yul\":19465:19884   */\n      swap2\n      swap1\n      pop\n      jump\t// out\n        /* \"#utility.yul\":19890:20195   */\n    tag_259:\n        /* \"#utility.yul\":19930:19933   */\n      0x00\n        /* \"#utility.yul\":19949:19969   */\n      tag_550\n        /* \"#utility.yul\":19967:19968   */\n      dup3\n        /* \"#utility.yul\":19949:19969   */\n      tag_280\n      jump\t// in\n    tag_550:\n        /* \"#utility.yul\":19944:19969   */\n      swap2\n      pop\n        /* \"#utility.yul\":19983:20003   */\n      tag_551\n        /* \"#utility.yul\":20001:20002   */\n      dup4\n        /* \"#utility.yul\":19983:20003   */\n      tag_280\n      jump\t// in\n    tag_551:\n        /* \"#utility.yul\":19978:20003   */\n      swap3\n      pop\n        /* \"#utility.yul\":20137:20138   */\n      dup3\n        /* \"#utility.yul\":20069:20135   */\n      0xffffffffffffffffffffffffffffffffffffffffffffffffffffffffffffffff\n        /* \"#utility.yul\":20065:20139   */\n      sub\n        /* \"#utility.yul\":20062:20063   */\n      dup3\n        /* \"#utility.yul\":20059:20140   */\n      gt\n        /* \"#utility.yul\":20056:20163   */\n      iszero\n      tag_552\n      jumpi\n        /* \"#utility.yul\":20143:20161   */\n      tag_553\n      tag_321\n      jump\t// in\n    tag_553:\n        /* \"#utility.yul\":20056:20163   */\n    tag_552:\n        /* \"#utility.yul\":20187:20188   */\n      dup3\n        /* \"#utility.yul\":20184:20185   */\n      dup3\n        /* \"#utility.yul\":20180:20189   */\n      add\n        /* \"#utility.yul\":20173:20189   */\n      swap1\n      pop\n        /* \"#utility.yul\":19890:20195   */\n      swap3\n      swap2\n      pop\n      pop\n      jump\t// out\n        /* \"#utility.yul\":20201:20378   */\n    tag_334:\n        /* \"#utility.yul\":20341:20370   */\n      0x536166654d6174683a206164646974696f6e206f766572666c6f770000000000\n        /* \"#utility.yul\":20337:20338   */\n      0x00\n        /* \"#utility.yul\":20329:20335   */\n      dup3\n        /* \"#utility.yul\":20325:20339   */\n      add\n        /* \"#utility.yul\":20318:20371   */\n      mstore\n        /* \"#utility.yul\":20201:20378   */\n      pop\n      jump\t// out\n        /* \"#utility.yul\":20384:20750   */\n    tag_335:\n        /* \"#utility.yul\":20526:20529   */\n      0x00\n        /* \"#utility.yul\":20547:20614   */\n      tag_556\n        /* \"#utility.yul\":20611:20613   */\n      0x1b\n        /* \"#utility.yul\":20606:20609   */\n      dup4\n        /* \"#utility.yul\":20547:20614   */\n      tag_318\n      jump\t// in\n    tag_556:\n        /* \"#utility.yul\":20540:20614   */\n      swap2\n      pop\n        /* \"#utility.yul\":20623:20716   */\n      tag_557\n        /* \"#utility.yul\":20712:20715   */\n      dup3\n        /* \"#utility.yul\":20623:20716   */\n      tag_334\n      jump\t// in\n    tag_557:\n        /* \"#utility.yul\":20741:20743   */\n      0x20\n        /* \"#utility.yul\":20736:20739   */\n      dup3\n        /* \"#utility.yul\":20732:20744   */\n      add\n        /* \"#utility.yul\":20725:20744   */\n      swap1\n      pop\n        /* \"#utility.yul\":20384:20750   */\n      swap2\n      swap1\n      pop\n      jump\t// out\n        /* \"#utility.yul\":20756:21175   */\n    tag_262:\n        /* \"#utility.yul\":20922:20926   */\n      0x00\n        /* \"#utility.yul\":20960:20962   */\n      0x20\n        /* \"#utility.yul\":20949:20958   */\n      dup3\n        /* \"#utility.yul\":20945:20963   */\n      add\n        /* \"#utility.yul\":20937:20963   */\n      swap1\n      pop\n        /* \"#utility.yul\":21009:21018   */\n      dup2\n        /* \"#utility.yul\":21003:21007   */\n      dup2\n        /* \"#utility.yul\":20999:21019   */\n      sub\n        /* \"#utility.yul\":20995:20996   */\n      0x00\n        /* \"#utility.yul\":20984:20993   */\n      dup4\n        /* \"#utility.yul\":20980:20997   */\n      add\n        /* \"#utility.yul\":20973:21020   */\n      mstore\n        /* \"#utility.yul\":21037:21168   */\n      tag_559\n        /* \"#utility.yul\":21163:21167   */\n      dup2\n        /* \"#utility.yul\":21037:21168   */\n      tag_335\n      jump\t// in\n    tag_559:\n        /* \"#utility.yul\":21029:21168   */\n      swap1\n      pop\n        /* \"#utility.yul\":20756:21175   */\n      swap2\n      swap1\n      pop\n      jump\t// out\n        /* \"#utility.yul\":21181:21280   */\n    tag_336:\n        /* \"#utility.yul\":21233:21239   */\n      0x00\n        /* \"#utility.yul\":21267:21272   */\n      dup2\n        /* \"#utility.yul\":21261:21273   */\n      mload\n        /* \"#utility.yul\":21251:21273   */\n      swap1\n      pop\n        /* \"#utility.yul\":21181:21280   */\n      swap2\n      swap1\n      pop\n      jump\t// out\n        /* \"#utility.yul\":21286:21593   */\n    tag_337:\n        /* \"#utility.yul\":21354:21355   */\n      0x00\n        /* \"#utility.yul\":21364:21477   */\n    tag_562:\n        /* \"#utility.yul\":21378:21384   */\n      dup4\n        /* \"#utility.yul\":21375:21376   */\n      dup2\n        /* \"#utility.yul\":21372:21385   */\n      lt\n        /* \"#utility.yul\":21364:21477   */\n      iszero\n      tag_564\n      jumpi\n        /* \"#utility.yul\":21463:21464   */\n      dup1\n        /* \"#utility.yul\":21458:21461   */\n      dup3\n        /* \"#utility.yul\":21454:21465   */\n      add\n        /* \"#utility.yul\":21448:21466   */\n      mload\n        /* \"#utility.yul\":21444:21445   */\n      dup2\n        /* \"#utility.yul\":21439:21442   */\n      dup5\n        /* \"#utility.yul\":21435:21446   */\n      add\n        /* \"#utility.yul\":21428:21467   */\n      mstore\n        /* \"#utility.yul\":21400:21402   */\n      0x20\n        /* \"#utility.yul\":21397:21398   */\n      dup2\n        /* \"#utility.yul\":21393:21403   */\n      add\n        /* \"#utility.yul\":21388:21403   */\n      swap1\n      pop\n        /* \"#utility.yul\":21364:21477   */\n      jump(tag_562)\n    tag_564:\n        /* \"#utility.yul\":21495:21501   */\n      dup4\n        /* \"#utility.yul\":21492:21493   */\n      dup2\n        /* \"#utility.yul\":21489:21502   */\n      gt\n        /* \"#utility.yul\":21486:21587   */\n      iszero\n      tag_565\n      jumpi\n        /* \"#utility.yul\":21575:21576   */\n      0x00\n        /* \"#utility.yul\":21566:21572   */\n      dup5\n        /* \"#utility.yul\":21561:21564   */\n      dup5\n        /* \"#utility.yul\":21557:21573   */\n      add\n        /* \"#utility.yul\":21550:21577   */\n      mstore\n        /* \"#utility.yul\":21486:21587   */\n    tag_565:\n        /* \"#utility.yul\":21335:21593   */\n      pop\n        /* \"#utility.yul\":21286:21593   */\n      pop\n      pop\n      pop\n      jump\t// out\n        /* \"#utility.yul\":21599:21963   */\n    tag_338:\n        /* \"#utility.yul\":21687:21690   */\n      0x00\n        /* \"#utility.yul\":21715:21754   */\n      tag_567\n        /* \"#utility.yul\":21748:21753   */\n      dup3\n        /* \"#utility.yul\":21715:21754   */\n      tag_336\n      jump\t// in\n    tag_567:\n        /* \"#utility.yul\":21770:21841   */\n      tag_568\n        /* \"#utility.yul\":21834:21840   */\n      dup2\n        /* \"#utility.yul\":21829:21832   */\n      dup6\n        /* \"#utility.yul\":21770:21841   */\n      tag_318\n      jump\t// in\n    tag_568:\n        /* \"#utility.yul\":21763:21841   */\n      swap4\n      pop\n        /* \"#utility.yul\":21850:21902   */\n      tag_569\n        /* \"#utility.yul\":21895:21901   */\n      dup2\n        /* \"#utility.yul\":21890:21893   */\n      dup6\n        /* \"#utility.yul\":21883:21887   */\n      0x20\n        /* \"#utility.yul\":21876:21881   */\n      dup7\n        /* \"#utility.yul\":21872:21888   */\n      add\n        /* \"#utility.yul\":21850:21902   */\n      tag_337\n      jump\t// in\n    tag_569:\n        /* \"#utility.yul\":21927:21956   */\n      tag_570\n        /* \"#utility.yul\":21949:21955   */\n      dup2\n        /* \"#utility.yul\":21927:21956   */\n      tag_307\n      jump\t// in\n    tag_570:\n        /* \"#utility.yul\":21922:21925   */\n      dup5\n        /* \"#utility.yul\":21918:21957   */\n      add\n        /* \"#utility.yul\":21911:21957   */\n      swap2\n      pop\n        /* \"#utility.yul\":21691:21963   */\n      pop\n        /* \"#utility.yul\":21599:21963   */\n      swap3\n      swap2\n      pop\n      pop\n      jump\t// out\n        /* \"#utility.yul\":21969:22282   */\n    tag_271:\n        /* \"#utility.yul\":22082:22086   */\n      0x00\n        /* \"#utility.yul\":22120:22122   */\n      0x20\n        /* \"#utility.yul\":22109:22118   */\n      dup3\n        /* \"#utility.yul\":22105:22123   */\n      add\n        /* \"#utility.yul\":22097:22123   */\n      swap1\n      pop\n        /* \"#utility.yul\":22169:22178   */\n      dup2\n        /* \"#utility.yul\":22163:22167   */\n      dup2\n        /* \"#utility.yul\":22159:22179   */\n      sub\n        /* \"#utility.yul\":22155:22156   */\n      0x00\n        /* \"#utility.yul\":22144:22153   */\n      dup4\n        /* \"#utility.yul\":22140:22157   */\n      add\n        /* \"#utility.yul\":22133:22180   */\n      mstore\n        /* \"#utility.yul\":22197:22275   */\n      tag_572\n        /* \"#utility.yul\":22270:22274   */\n      dup2\n        /* \"#utility.yul\":22261:22267   */\n      dup5\n        /* \"#utility.yul\":22197:22275   */\n      tag_338\n      jump\t// in\n    tag_572:\n        /* \"#utility.yul\":22189:22275   */\n      swap1\n      pop\n        /* \"#utility.yul\":21969:22282   */\n      swap3\n      swap2\n      pop\n      pop\n      jump\t// out\n\n    auxdata: 0xa26469706673582212209400786835f5706a1d66c63c6d677503ae22eea3ae9856fdd02c1a3881d7038d64736f6c634300080f0033\n}\n",
				"bytecode": {
					"linkReferences": {},
					"object": "6080604052670de0b6b3a764000060035562a066806005553480156200002457600080fd5b506040516200276a3803806200276a83398181016040528101906200004a9190620002b1565b6200006a6200005e6200013660201b60201c565b6200013e60201b60201c565b82600460006101000a81548173ffffffffffffffffffffffffffffffffffffffff021916908373ffffffffffffffffffffffffffffffffffffffff16021790555081600160006101000a81548173ffffffffffffffffffffffffffffffffffffffff021916908373ffffffffffffffffffffffffffffffffffffffff16021790555080600260006101000a81548173ffffffffffffffffffffffffffffffffffffffff021916908373ffffffffffffffffffffffffffffffffffffffff1602179055505050506200030d565b600033905090565b60008060009054906101000a900473ffffffffffffffffffffffffffffffffffffffff169050816000806101000a81548173ffffffffffffffffffffffffffffffffffffffff021916908373ffffffffffffffffffffffffffffffffffffffff1602179055508173ffffffffffffffffffffffffffffffffffffffff168173ffffffffffffffffffffffffffffffffffffffff167f8be0079c531659141344cd1fd0a4f28419497f9722a3daafe3b4186f6b6457e060405160405180910390a35050565b600080fd5b600073ffffffffffffffffffffffffffffffffffffffff82169050919050565b6000620002348262000207565b9050919050565b6000620002488262000227565b9050919050565b6200025a816200023b565b81146200026657600080fd5b50565b6000815190506200027a816200024f565b92915050565b6200028b8162000227565b81146200029757600080fd5b50565b600081519050620002ab8162000280565b92915050565b600080600060608486031215620002cd57620002cc62000202565b5b6000620002dd8682870162000269565b9350506020620002f0868287016200029a565b925050604062000303868287016200029a565b9150509250925092565b61244d806200031d6000396000f3fe608060405234801561001057600080fd5b50600436106100cf5760003560e01c8063715018a61161008c578063c0d7865511610066578063c0d7865514610216578063d979fb5f14610232578063dbb7934814610262578063f2fde38b14610292576100cf565b8063715018a6146101d05780638da5cb5b146101da5780638dd95002146101f8576100cf565b806319047f8a146100d4578063215cc989146101045780632f7c5980146101345780633268cc56146101645780633b979d4514610182578063484f4ea9146101b2575b600080fd5b6100ee60048036038101906100e991906118c8565b6102ae565b6040516100fb919061190e565b60405180910390f35b61011e60048036038101906101199190611967565b6104f6565b60405161012b919061190e565b60405180910390f35b61014e60048036038101906101499190611967565b610cf1565b60405161015b919061190e565b60405180910390f35b61016c610d73565b60405161017991906119f3565b60405180910390f35b61019c600480360381019061019791906118c8565b610d99565b6040516101a9919061190e565b60405180910390f35b6101ba610f70565b6040516101c79190611a1d565b60405180910390f35b6101d8610f96565b005b6101e261101e565b6040516101ef9190611a1d565b60405180910390f35b610200611047565b60405161020d9190611a1d565b60405180910390f35b610230600480360381019061022b9190611a76565b61106d565b005b61024c60048036038101906102479190611b0d565b61112d565b604051610259919061190e565b60405180910390f35b61027c60048036038101906102779190611b0d565b61126d565b604051610289919061190e565b60405180910390f35b6102ac60048036038101906102a791906118c8565b61150e565b005b600080600367ffffffffffffffff8111156102cc576102cb611b74565b5b6040519080825280602002602001820160405280156102fa5781602001602082028036833780820191505090505b509050828160008151811061031257610311611ba3565b5b602002602001019073ffffffffffffffffffffffffffffffffffffffff16908173ffffffffffffffffffffffffffffffffffffffff1681525050600160009054906101000a900473ffffffffffffffffffffffffffffffffffffffff168160018151811061038357610382611ba3565b5b602002602001019073ffffffffffffffffffffffffffffffffffffffff16908173ffffffffffffffffffffffffffffffffffffffff1681525050600260009054906101000a900473ffffffffffffffffffffffffffffffffffffffff16816002815181106103f4576103f3611ba3565b5b602002602001019073ffffffffffffffffffffffffffffffffffffffff16908173ffffffffffffffffffffffffffffffffffffffff1681525050600460009054906101000a900473ffffffffffffffffffffffffffffffffffffffff1673ffffffffffffffffffffffffffffffffffffffff1663d06ca61f600354836040518363ffffffff1660e01b815260040161048d929190611c90565b600060405180830381865afa1580156104aa573d6000803e3d6000fd5b505050506040513d6000823e3d601f19601f820116820180604052508101906104d39190611dff565b6002815181106104e6576104e5611ba3565b5b6020026020010151915050919050565b60008060008373ffffffffffffffffffffffffffffffffffffffff16630dfe16816040518163ffffffff1660e01b8152600401602060405180830381865afa158015610546573d6000803e3d6000fd5b505050506040513d601f19601f8201168201806040525081019061056a9190611e86565b73ffffffffffffffffffffffffffffffffffffffff16600160009054906101000a900473ffffffffffffffffffffffffffffffffffffffff1673ffffffffffffffffffffffffffffffffffffffff16036107355761072e6106388573ffffffffffffffffffffffffffffffffffffffff16630dfe16816040518163ffffffff1660e01b8152600401602060405180830381865afa15801561060f573d6000803e3d6000fd5b505050506040513d601f19601f820116820180604052508101906106339190611e86565b610d99565b8573ffffffffffffffffffffffffffffffffffffffff16630dfe16816040518163ffffffff1660e01b8152600401602060405180830381865afa158015610683573d6000803e3d6000fd5b505050506040513d601f19601f820116820180604052508101906106a79190611e86565b73ffffffffffffffffffffffffffffffffffffffff166370a08231876040518263ffffffff1660e01b81526004016106df9190611a1d565b602060405180830381865afa1580156106fc573d6000803e3d6000fd5b505050506040513d601f19601f820116820180604052508101906107209190611eb3565b61160590919063ffffffff16565b91506108a8565b6108a56107af8573ffffffffffffffffffffffffffffffffffffffff16630dfe16816040518163ffffffff1660e01b8152600401602060405180830381865afa158015610786573d6000803e3d6000fd5b505050506040513d601f19601f820116820180604052508101906107aa9190611e86565b6102ae565b8573ffffffffffffffffffffffffffffffffffffffff16630dfe16816040518163ffffffff1660e01b8152600401602060405180830381865afa1580156107fa573d6000803e3d6000fd5b505050506040513d601f19601f8201168201806040525081019061081e9190611e86565b73ffffffffffffffffffffffffffffffffffffffff166370a08231876040518263ffffffff1660e01b81526004016108569190611a1d565b602060405180830381865afa158015610873573d6000803e3d6000fd5b505050506040513d601f19601f820116820180604052508101906108979190611eb3565b61160590919063ffffffff16565b91505b8373ffffffffffffffffffffffffffffffffffffffff1663d21220a76040518163ffffffff1660e01b8152600401602060405180830381865afa1580156108f3573d6000803e3d6000fd5b505050506040513d601f19601f820116820180604052508101906109179190611e86565b73ffffffffffffffffffffffffffffffffffffffff16600160009054906101000a900473ffffffffffffffffffffffffffffffffffffffff1673ffffffffffffffffffffffffffffffffffffffff1603610ae257610adb6109e58573ffffffffffffffffffffffffffffffffffffffff1663d21220a76040518163ffffffff1660e01b8152600401602060405180830381865afa1580156109bc573d6000803e3d6000fd5b505050506040513d601f19601f820116820180604052508101906109e09190611e86565b610d99565b8573ffffffffffffffffffffffffffffffffffffffff1663d21220a76040518163ffffffff1660e01b8152600401602060405180830381865afa158015610a30573d6000803e3d6000fd5b505050506040513d601f19601f82011682018060405250810190610a549190611e86565b73ffffffffffffffffffffffffffffffffffffffff166370a08231876040518263ffffffff1660e01b8152600401610a8c9190611a1d565b602060405180830381865afa158015610aa9573d6000803e3d6000fd5b505050506040513d601f19601f82011682018060405250810190610acd9190611eb3565b61160590919063ffffffff16565b9050610c55565b610c52610b5c8573ffffffffffffffffffffffffffffffffffffffff1663d21220a76040518163ffffffff1660e01b8152600401602060405180830381865afa158015610b33573d6000803e3d6000fd5b505050506040513d601f19601f82011682018060405250810190610b579190611e86565b6102ae565b8573ffffffffffffffffffffffffffffffffffffffff1663d21220a76040518163ffffffff1660e01b8152600401602060405180830381865afa158015610ba7573d6000803e3d6000fd5b505050506040513d601f19601f82011682018060405250810190610bcb9190611e86565b73ffffffffffffffffffffffffffffffffffffffff166370a08231876040518263ffffffff1660e01b8152600401610c039190611a1d565b602060405180830381865afa158015610c20573d6000803e3d6000fd5b505050506040513d601f19601f82011682018060405250810190610c449190611eb3565b61160590919063ffffffff16565b90505b610ce88473ffffffffffffffffffffffffffffffffffffffff166318160ddd6040518163ffffffff1660e01b8152600401602060405180830381865afa158015610ca3573d6000803e3d6000fd5b505050506040513d601f19601f82011682018060405250810190610cc79190611eb3565b610cda838561167f90919063ffffffff16565b6116dd90919063ffffffff16565b92505050919050565b60008173ffffffffffffffffffffffffffffffffffffffff16630dfe16816040518163ffffffff1660e01b8152600401602060405180830381865afa925050508015610d5b57506040513d601f19601f82011682018060405250810190610d589190611e86565b60015b610d685760009050610d6e565b50600190505b919050565b600460009054906101000a900473ffffffffffffffffffffffffffffffffffffffff1681565b600080600267ffffffffffffffff811115610db757610db6611b74565b5b604051908082528060200260200182016040528015610de55781602001602082028036833780820191505090505b5090508281600081518110610dfd57610dfc611ba3565b5b602002602001019073ffffffffffffffffffffffffffffffffffffffff16908173ffffffffffffffffffffffffffffffffffffffff1681525050600260009054906101000a900473ffffffffffffffffffffffffffffffffffffffff1681600181518110610e6e57610e6d611ba3565b5b602002602001019073ffffffffffffffffffffffffffffffffffffffff16908173ffffffffffffffffffffffffffffffffffffffff1681525050600460009054906101000a900473ffffffffffffffffffffffffffffffffffffffff1673ffffffffffffffffffffffffffffffffffffffff1663d06ca61f600354836040518363ffffffff1660e01b8152600401610f07929190611c90565b600060405180830381865afa158015610f24573d6000803e3d6000fd5b505050506040513d6000823e3d601f19601f82011682018060405250810190610f4d9190611dff565b600181518110610f6057610f5f611ba3565b5b6020026020010151915050919050565b600260009054906101000a900473ffffffffffffffffffffffffffffffffffffffff1681565b610f9e611727565b73ffffffffffffffffffffffffffffffffffffffff16610fbc61101e565b73ffffffffffffffffffffffffffffffffffffffff1614611012576040517f08c379a000000000000000000000000000000000000000000000000000000000815260040161100990611f3d565b60405180910390fd5b61101c600061172f565b565b60008060009054906101000a900473ffffffffffffffffffffffffffffffffffffffff16905090565b600160009054906101000a900473ffffffffffffffffffffffffffffffffffffffff1681565b611075611727565b73ffffffffffffffffffffffffffffffffffffffff1661109361101e565b73ffffffffffffffffffffffffffffffffffffffff16146110e9576040517f08c379a00000000000000000000000000000000000000000000000000000000081526004016110e090611f3d565b60405180910390fd5b80600460006101000a81548173ffffffffffffffffffffffffffffffffffffffff021916908373ffffffffffffffffffffffffffffffffffffffff16021790555050565b6000808273ffffffffffffffffffffffffffffffffffffffff16636a6d964e876040518263ffffffff1660e01b8152600401611169919061190e565b602060405180830381865afa158015611186573d6000803e3d6000fd5b505050506040513d601f19601f820116820180604052508101906111aa9190611eb3565b90506000600185036111c6576111bf866104f6565b9050611241565b60008503611240578573ffffffffffffffffffffffffffffffffffffffff16600160009054906101000a900473ffffffffffffffffffffffffffffffffffffffff1673ffffffffffffffffffffffffffffffffffffffff16036112335761122c86610d99565b905061123f565b61123c866102ae565b90505b5b5b61126160035482846112539190611f8c565b6116dd90919063ffffffff16565b92505050949350505050565b6000808273ffffffffffffffffffffffffffffffffffffffff16631526fe27876040518263ffffffff1660e01b81526004016112a9919061190e565b60c060405180830381865afa1580156112c6573d6000803e3d6000fd5b505050506040513d601f19601f820116820180604052508101906112ea91906120c9565b905060006113878473ffffffffffffffffffffffffffffffffffffffff166317caf6f16040518163ffffffff1660e01b8152600401602060405180830381865afa15801561133c573d6000803e3d6000fd5b505050506040513d601f19601f820116820180604052508101906113609190611eb3565b611379600354856020015161160590919063ffffffff16565b6116dd90919063ffffffff16565b905060006114028573ffffffffffffffffffffffffffffffffffffffff1663141aa0ba6040518163ffffffff1660e01b8152600401602060405180830381865afa1580156113d9573d6000803e3d6000fd5b505050506040513d601f19601f820116820180604052508101906113fd919061210b565b6102ae565b905060006114898673ffffffffffffffffffffffffffffffffffffffff1663a1eef8216040518163ffffffff1660e01b8152600401602060405180830381865afa158015611454573d6000803e3d6000fd5b505050506040513d601f19601f820116820180604052508101906114789190611eb3565b60055461160590919063ffffffff16565b905060006114b46003546114a6868561160590919063ffffffff16565b6116dd90919063ffffffff16565b905060006114c48b8b8b8b61112d565b90506114fe60646114f0836114e2888761160590919063ffffffff16565b6116dd90919063ffffffff16565b61160590919063ffffffff16565b9650505050505050949350505050565b611516611727565b73ffffffffffffffffffffffffffffffffffffffff1661153461101e565b73ffffffffffffffffffffffffffffffffffffffff161461158a576040517f08c379a000000000000000000000000000000000000000000000000000000000815260040161158190611f3d565b60405180910390fd5b600073ffffffffffffffffffffffffffffffffffffffff168173ffffffffffffffffffffffffffffffffffffffff16036115f9576040517f08c379a00000000000000000000000000000000000000000000000000000000081526004016115f0906121aa565b60405180910390fd5b6116028161172f565b50565b60008083036116175760009050611679565b600082846116259190611f8c565b905082848261163491906121f9565b14611674576040517f08c379a000000000000000000000000000000000000000000000000000000000815260040161166b9061229c565b60405180910390fd5b809150505b92915050565b600080828461168e91906122bc565b9050838110156116d3576040517f08c379a00000000000000000000000000000000000000000000000000000000081526004016116ca9061235e565b60405180910390fd5b8091505092915050565b600061171f83836040518060400160405280601a81526020017f536166654d6174683a206469766973696f6e206279207a65726f0000000000008152506117f3565b905092915050565b600033905090565b60008060009054906101000a900473ffffffffffffffffffffffffffffffffffffffff169050816000806101000a81548173ffffffffffffffffffffffffffffffffffffffff021916908373ffffffffffffffffffffffffffffffffffffffff1602179055508173ffffffffffffffffffffffffffffffffffffffff168173ffffffffffffffffffffffffffffffffffffffff167f8be0079c531659141344cd1fd0a4f28419497f9722a3daafe3b4186f6b6457e060405160405180910390a35050565b6000808311829061183a576040517f08c379a000000000000000000000000000000000000000000000000000000000815260040161183191906123f5565b60405180910390fd5b506000838561184991906121f9565b9050809150509392505050565b6000604051905090565b600080fd5b600080fd5b600073ffffffffffffffffffffffffffffffffffffffff82169050919050565b60006118958261186a565b9050919050565b6118a58161188a565b81146118b057600080fd5b50565b6000813590506118c28161189c565b92915050565b6000602082840312156118de576118dd611860565b5b60006118ec848285016118b3565b91505092915050565b6000819050919050565b611908816118f5565b82525050565b600060208201905061192360008301846118ff565b92915050565b60006119348261188a565b9050919050565b61194481611929565b811461194f57600080fd5b50565b6000813590506119618161193b565b92915050565b60006020828403121561197d5761197c611860565b5b600061198b84828501611952565b91505092915050565b6000819050919050565b60006119b96119b46119af8461186a565b611994565b61186a565b9050919050565b60006119cb8261199e565b9050919050565b60006119dd826119c0565b9050919050565b6119ed816119d2565b82525050565b6000602082019050611a0860008301846119e4565b92915050565b611a178161188a565b82525050565b6000602082019050611a326000830184611a0e565b92915050565b6000611a438261188a565b9050919050565b611a5381611a38565b8114611a5e57600080fd5b50565b600081359050611a7081611a4a565b92915050565b600060208284031215611a8c57611a8b611860565b5b6000611a9a84828501611a61565b91505092915050565b611aac816118f5565b8114611ab757600080fd5b50565b600081359050611ac981611aa3565b92915050565b6000611ada8261188a565b9050919050565b611aea81611acf565b8114611af557600080fd5b50565b600081359050611b0781611ae1565b92915050565b60008060008060808587031215611b2757611b26611860565b5b6000611b3587828801611aba565b9450506020611b4687828801611952565b9350506040611b5787828801611aba565b9250506060611b6887828801611af8565b91505092959194509250565b7f4e487b7100000000000000000000000000000000000000000000000000000000600052604160045260246000fd5b7f4e487b7100000000000000000000000000000000000000000000000000000000600052603260045260246000fd5b600081519050919050565b600082825260208201905092915050565b6000819050602082019050919050565b611c078161188a565b82525050565b6000611c198383611bfe565b60208301905092915050565b6000602082019050919050565b6000611c3d82611bd2565b611c478185611bdd565b9350611c5283611bee565b8060005b83811015611c83578151611c6a8882611c0d565b9750611c7583611c25565b925050600181019050611c56565b5085935050505092915050565b6000604082019050611ca560008301856118ff565b8181036020830152611cb78184611c32565b90509392505050565b600080fd5b6000601f19601f8301169050919050565b611cdf82611cc5565b810181811067ffffffffffffffff82111715611cfe57611cfd611b74565b5b80604052505050565b6000611d11611856565b9050611d1d8282611cd6565b919050565b600067ffffffffffffffff821115611d3d57611d3c611b74565b5b602082029050602081019050919050565b600080fd5b600081519050611d6281611aa3565b92915050565b6000611d7b611d7684611d22565b611d07565b90508083825260208201905060208402830185811115611d9e57611d9d611d4e565b5b835b81811015611dc75780611db38882611d53565b845260208401935050602081019050611da0565b5050509392505050565b600082601f830112611de657611de5611cc0565b5b8151611df6848260208601611d68565b91505092915050565b600060208284031215611e1557611e14611860565b5b600082015167ffffffffffffffff811115611e3357611e32611865565b5b611e3f84828501611dd1565b91505092915050565b6000611e538261188a565b9050919050565b611e6381611e48565b8114611e6e57600080fd5b50565b600081519050611e8081611e5a565b92915050565b600060208284031215611e9c57611e9b611860565b5b6000611eaa84828501611e71565b91505092915050565b600060208284031215611ec957611ec8611860565b5b6000611ed784828501611d53565b91505092915050565b600082825260208201905092915050565b7f4f776e61626c653a2063616c6c6572206973206e6f7420746865206f776e6572600082015250565b6000611f27602083611ee0565b9150611f3282611ef1565b602082019050919050565b60006020820190508181036000830152611f5681611f1a565b9050919050565b7f4e487b7100000000000000000000000000000000000000000000000000000000600052601160045260246000fd5b6000611f97826118f5565b9150611fa2836118f5565b9250817fffffffffffffffffffffffffffffffffffffffffffffffffffffffffffffffff0483118215151615611fdb57611fda611f5d565b5b828202905092915050565b600080fd5b6000611ff68261188a565b9050919050565b61200681611feb565b811461201157600080fd5b50565b60008151905061202381611ffd565b92915050565b600060c0828403121561203f5761203e611fe6565b5b61204960c0611d07565b9050600061205984828501611e71565b600083015250602061206d84828501611d53565b602083015250604061208184828501611d53565b604083015250606061209584828501611d53565b60608301525060806120a984828501612014565b60808301525060a06120bd84828501611e71565b60a08301525092915050565b600060c082840312156120df576120de611860565b5b60006120ed84828501612029565b91505092915050565b6000815190506121058161189c565b92915050565b60006020828403121561212157612120611860565b5b600061212f848285016120f6565b91505092915050565b7f4f776e61626c653a206e6577206f776e657220697320746865207a65726f206160008201527f6464726573730000000000000000000000000000000000000000000000000000602082015250565b6000612194602683611ee0565b915061219f82612138565b604082019050919050565b600060208201905081810360008301526121c381612187565b9050919050565b7f4e487b7100000000000000000000000000000000000000000000000000000000600052601260045260246000fd5b6000612204826118f5565b915061220f836118f5565b92508261221f5761221e6121ca565b5b828204905092915050565b7f536166654d6174683a206d756c7469706c69636174696f6e206f766572666c6f60008201527f7700000000000000000000000000000000000000000000000000000000000000602082015250565b6000612286602183611ee0565b91506122918261222a565b604082019050919050565b600060208201905081810360008301526122b581612279565b9050919050565b60006122c7826118f5565b91506122d2836118f5565b9250827fffffffffffffffffffffffffffffffffffffffffffffffffffffffffffffffff0382111561230757612306611f5d565b5b828201905092915050565b7f536166654d6174683a206164646974696f6e206f766572666c6f770000000000600082015250565b6000612348601b83611ee0565b915061235382612312565b602082019050919050565b600060208201905081810360008301526123778161233b565b9050919050565b600081519050919050565b60005b838110156123a757808201518184015260208101905061238c565b838111156123b6576000848401525b50505050565b60006123c78261237e565b6123d18185611ee0565b93506123e1818560208601612389565b6123ea81611cc5565b840191505092915050565b6000602082019050818103600083015261240f81846123bc565b90509291505056fea26469706673582212209400786835f5706a1d66c63c6d677503ae22eea3ae9856fdd02c1a3881d7038d64736f6c634300080f0033",
					"opcodes": "PUSH1 0x80 PUSH1 0x40 MSTORE PUSH8 0xDE0B6B3A7640000 PUSH1 0x3 SSTORE PUSH3 0xA06680 PUSH1 0x5 SSTORE CALLVALUE DUP1 ISZERO PUSH3 0x24 JUMPI PUSH1 0x0 DUP1 REVERT JUMPDEST POP PUSH1 0x40 MLOAD PUSH3 0x276A CODESIZE SUB DUP1 PUSH3 0x276A DUP4 CODECOPY DUP2 DUP2 ADD PUSH1 0x40 MSTORE DUP2 ADD SWAP1 PUSH3 0x4A SWAP2 SWAP1 PUSH3 0x2B1 JUMP JUMPDEST PUSH3 0x6A PUSH3 0x5E PUSH3 0x136 PUSH1 0x20 SHL PUSH1 0x20 SHR JUMP JUMPDEST PUSH3 0x13E PUSH1 0x20 SHL PUSH1 0x20 SHR JUMP JUMPDEST DUP3 PUSH1 0x4 PUSH1 0x0 PUSH2 0x100 EXP DUP2 SLOAD DUP2 PUSH20 0xFFFFFFFFFFFFFFFFFFFFFFFFFFFFFFFFFFFFFFFF MUL NOT AND SWAP1 DUP4 PUSH20 0xFFFFFFFFFFFFFFFFFFFFFFFFFFFFFFFFFFFFFFFF AND MUL OR SWAP1 SSTORE POP DUP2 PUSH1 0x1 PUSH1 0x0 PUSH2 0x100 EXP DUP2 SLOAD DUP2 PUSH20 0xFFFFFFFFFFFFFFFFFFFFFFFFFFFFFFFFFFFFFFFF MUL NOT AND SWAP1 DUP4 PUSH20 0xFFFFFFFFFFFFFFFFFFFFFFFFFFFFFFFFFFFFFFFF AND MUL OR SWAP1 SSTORE POP DUP1 PUSH1 0x2 PUSH1 0x0 PUSH2 0x100 EXP DUP2 SLOAD DUP2 PUSH20 0xFFFFFFFFFFFFFFFFFFFFFFFFFFFFFFFFFFFFFFFF MUL NOT AND SWAP1 DUP4 PUSH20 0xFFFFFFFFFFFFFFFFFFFFFFFFFFFFFFFFFFFFFFFF AND MUL OR SWAP1 SSTORE POP POP POP POP PUSH3 0x30D JUMP JUMPDEST PUSH1 0x0 CALLER SWAP1 POP SWAP1 JUMP JUMPDEST PUSH1 0x0 DUP1 PUSH1 0x0 SWAP1 SLOAD SWAP1 PUSH2 0x100 EXP SWAP1 DIV PUSH20 0xFFFFFFFFFFFFFFFFFFFFFFFFFFFFFFFFFFFFFFFF AND SWAP1 POP DUP2 PUSH1 0x0 DUP1 PUSH2 0x100 EXP DUP2 SLOAD DUP2 PUSH20 0xFFFFFFFFFFFFFFFFFFFFFFFFFFFFFFFFFFFFFFFF MUL NOT AND SWAP1 DUP4 PUSH20 0xFFFFFFFFFFFFFFFFFFFFFFFFFFFFFFFFFFFFFFFF AND MUL OR SWAP1 SSTORE POP DUP2 PUSH20 0xFFFFFFFFFFFFFFFFFFFFFFFFFFFFFFFFFFFFFFFF AND DUP2 PUSH20 0xFFFFFFFFFFFFFFFFFFFFFFFFFFFFFFFFFFFFFFFF AND PUSH32 0x8BE0079C531659141344CD1FD0A4F28419497F9722A3DAAFE3B4186F6B6457E0 PUSH1 0x40 MLOAD PUSH1 0x40 MLOAD DUP1 SWAP2 SUB SWAP1 LOG3 POP POP JUMP JUMPDEST PUSH1 0x0 DUP1 REVERT JUMPDEST PUSH1 0x0 PUSH20 0xFFFFFFFFFFFFFFFFFFFFFFFFFFFFFFFFFFFFFFFF DUP3 AND SWAP1 POP SWAP2 SWAP1 POP JUMP JUMPDEST PUSH1 0x0 PUSH3 0x234 DUP3 PUSH3 0x207 JUMP JUMPDEST SWAP1 POP SWAP2 SWAP1 POP JUMP JUMPDEST PUSH1 0x0 PUSH3 0x248 DUP3 PUSH3 0x227 JUMP JUMPDEST SWAP1 POP SWAP2 SWAP1 POP JUMP JUMPDEST PUSH3 0x25A DUP2 PUSH3 0x23B JUMP JUMPDEST DUP2 EQ PUSH3 0x266 JUMPI PUSH1 0x0 DUP1 REVERT JUMPDEST POP JUMP JUMPDEST PUSH1 0x0 DUP2 MLOAD SWAP1 POP PUSH3 0x27A DUP2 PUSH3 0x24F JUMP JUMPDEST SWAP3 SWAP2 POP POP JUMP JUMPDEST PUSH3 0x28B DUP2 PUSH3 0x227 JUMP JUMPDEST DUP2 EQ PUSH3 0x297 JUMPI PUSH1 0x0 DUP1 REVERT JUMPDEST POP JUMP JUMPDEST PUSH1 0x0 DUP2 MLOAD SWAP1 POP PUSH3 0x2AB DUP2 PUSH3 0x280 JUMP JUMPDEST SWAP3 SWAP2 POP POP JUMP JUMPDEST PUSH1 0x0 DUP1 PUSH1 0x0 PUSH1 0x60 DUP5 DUP7 SUB SLT ISZERO PUSH3 0x2CD JUMPI PUSH3 0x2CC PUSH3 0x202 JUMP JUMPDEST JUMPDEST PUSH1 0x0 PUSH3 0x2DD DUP7 DUP3 DUP8 ADD PUSH3 0x269 JUMP JUMPDEST SWAP4 POP POP PUSH1 0x20 PUSH3 0x2F0 DUP7 DUP3 DUP8 ADD PUSH3 0x29A JUMP JUMPDEST SWAP3 POP POP PUSH1 0x40 PUSH3 0x303 DUP7 DUP3 DUP8 ADD PUSH3 0x29A JUMP JUMPDEST SWAP2 POP POP SWAP3 POP SWAP3 POP SWAP3 JUMP JUMPDEST PUSH2 0x244D DUP1 PUSH3 0x31D PUSH1 0x0 CODECOPY PUSH1 0x0 RETURN INVALID PUSH1 0x80 PUSH1 0x40 MSTORE CALLVALUE DUP1 ISZERO PUSH2 0x10 JUMPI PUSH1 0x0 DUP1 REVERT JUMPDEST POP PUSH1 0x4 CALLDATASIZE LT PUSH2 0xCF JUMPI PUSH1 0x0 CALLDATALOAD PUSH1 0xE0 SHR DUP1 PUSH4 0x715018A6 GT PUSH2 0x8C JUMPI DUP1 PUSH4 0xC0D78655 GT PUSH2 0x66 JUMPI DUP1 PUSH4 0xC0D78655 EQ PUSH2 0x216 JUMPI DUP1 PUSH4 0xD979FB5F EQ PUSH2 0x232 JUMPI DUP1 PUSH4 0xDBB79348 EQ PUSH2 0x262 JUMPI DUP1 PUSH4 0xF2FDE38B EQ PUSH2 0x292 JUMPI PUSH2 0xCF JUMP JUMPDEST DUP1 PUSH4 0x715018A6 EQ PUSH2 0x1D0 JUMPI DUP1 PUSH4 0x8DA5CB5B EQ PUSH2 0x1DA JUMPI DUP1 PUSH4 0x8DD95002 EQ PUSH2 0x1F8 JUMPI PUSH2 0xCF JUMP JUMPDEST DUP1 PUSH4 0x19047F8A EQ PUSH2 0xD4 JUMPI DUP1 PUSH4 0x215CC989 EQ PUSH2 0x104 JUMPI DUP1 PUSH4 0x2F7C5980 EQ PUSH2 0x134 JUMPI DUP1 PUSH4 0x3268CC56 EQ PUSH2 0x164 JUMPI DUP1 PUSH4 0x3B979D45 EQ PUSH2 0x182 JUMPI DUP1 PUSH4 0x484F4EA9 EQ PUSH2 0x1B2 JUMPI JUMPDEST PUSH1 0x0 DUP1 REVERT JUMPDEST PUSH2 0xEE PUSH1 0x4 DUP1 CALLDATASIZE SUB DUP2 ADD SWAP1 PUSH2 0xE9 SWAP2 SWAP1 PUSH2 0x18C8 JUMP JUMPDEST PUSH2 0x2AE JUMP JUMPDEST PUSH1 0x40 MLOAD PUSH2 0xFB SWAP2 SWAP1 PUSH2 0x190E JUMP JUMPDEST PUSH1 0x40 MLOAD DUP1 SWAP2 SUB SWAP1 RETURN JUMPDEST PUSH2 0x11E PUSH1 0x4 DUP1 CALLDATASIZE SUB DUP2 ADD SWAP1 PUSH2 0x119 SWAP2 SWAP1 PUSH2 0x1967 JUMP JUMPDEST PUSH2 0x4F6 JUMP JUMPDEST PUSH1 0x40 MLOAD PUSH2 0x12B SWAP2 SWAP1 PUSH2 0x190E JUMP JUMPDEST PUSH1 0x40 MLOAD DUP1 SWAP2 SUB SWAP1 RETURN JUMPDEST PUSH2 0x14E PUSH1 0x4 DUP1 CALLDATASIZE SUB DUP2 ADD SWAP1 PUSH2 0x149 SWAP2 SWAP1 PUSH2 0x1967 JUMP JUMPDEST PUSH2 0xCF1 JUMP JUMPDEST PUSH1 0x40 MLOAD PUSH2 0x15B SWAP2 SWAP1 PUSH2 0x190E JUMP JUMPDEST PUSH1 0x40 MLOAD DUP1 SWAP2 SUB SWAP1 RETURN JUMPDEST PUSH2 0x16C PUSH2 0xD73 JUMP JUMPDEST PUSH1 0x40 MLOAD PUSH2 0x179 SWAP2 SWAP1 PUSH2 0x19F3 JUMP JUMPDEST PUSH1 0x40 MLOAD DUP1 SWAP2 SUB SWAP1 RETURN JUMPDEST PUSH2 0x19C PUSH1 0x4 DUP1 CALLDATASIZE SUB DUP2 ADD SWAP1 PUSH2 0x197 SWAP2 SWAP1 PUSH2 0x18C8 JUMP JUMPDEST PUSH2 0xD99 JUMP JUMPDEST PUSH1 0x40 MLOAD PUSH2 0x1A9 SWAP2 SWAP1 PUSH2 0x190E JUMP JUMPDEST PUSH1 0x40 MLOAD DUP1 SWAP2 SUB SWAP1 RETURN JUMPDEST PUSH2 0x1BA PUSH2 0xF70 JUMP JUMPDEST PUSH1 0x40 MLOAD PUSH2 0x1C7 SWAP2 SWAP1 PUSH2 0x1A1D JUMP JUMPDEST PUSH1 0x40 MLOAD DUP1 SWAP2 SUB SWAP1 RETURN JUMPDEST PUSH2 0x1D8 PUSH2 0xF96 JUMP JUMPDEST STOP JUMPDEST PUSH2 0x1E2 PUSH2 0x101E JUMP JUMPDEST PUSH1 0x40 MLOAD PUSH2 0x1EF SWAP2 SWAP1 PUSH2 0x1A1D JUMP JUMPDEST PUSH1 0x40 MLOAD DUP1 SWAP2 SUB SWAP1 RETURN JUMPDEST PUSH2 0x200 PUSH2 0x1047 JUMP JUMPDEST PUSH1 0x40 MLOAD PUSH2 0x20D SWAP2 SWAP1 PUSH2 0x1A1D JUMP JUMPDEST PUSH1 0x40 MLOAD DUP1 SWAP2 SUB SWAP1 RETURN JUMPDEST PUSH2 0x230 PUSH1 0x4 DUP1 CALLDATASIZE SUB DUP2 ADD SWAP1 PUSH2 0x22B SWAP2 SWAP1 PUSH2 0x1A76 JUMP JUMPDEST PUSH2 0x106D JUMP JUMPDEST STOP JUMPDEST PUSH2 0x24C PUSH1 0x4 DUP1 CALLDATASIZE SUB DUP2 ADD SWAP1 PUSH2 0x247 SWAP2 SWAP1 PUSH2 0x1B0D JUMP JUMPDEST PUSH2 0x112D JUMP JUMPDEST PUSH1 0x40 MLOAD PUSH2 0x259 SWAP2 SWAP1 PUSH2 0x190E JUMP JUMPDEST PUSH1 0x40 MLOAD DUP1 SWAP2 SUB SWAP1 RETURN JUMPDEST PUSH2 0x27C PUSH1 0x4 DUP1 CALLDATASIZE SUB DUP2 ADD SWAP1 PUSH2 0x277 SWAP2 SWAP1 PUSH2 0x1B0D JUMP JUMPDEST PUSH2 0x126D JUMP JUMPDEST PUSH1 0x40 MLOAD PUSH2 0x289 SWAP2 SWAP1 PUSH2 0x190E JUMP JUMPDEST PUSH1 0x40 MLOAD DUP1 SWAP2 SUB SWAP1 RETURN JUMPDEST PUSH2 0x2AC PUSH1 0x4 DUP1 CALLDATASIZE SUB DUP2 ADD SWAP1 PUSH2 0x2A7 SWAP2 SWAP1 PUSH2 0x18C8 JUMP JUMPDEST PUSH2 0x150E JUMP JUMPDEST STOP JUMPDEST PUSH1 0x0 DUP1 PUSH1 0x3 PUSH8 0xFFFFFFFFFFFFFFFF DUP2 GT ISZERO PUSH2 0x2CC JUMPI PUSH2 0x2CB PUSH2 0x1B74 JUMP JUMPDEST JUMPDEST PUSH1 0x40 MLOAD SWAP1 DUP1 DUP3 MSTORE DUP1 PUSH1 0x20 MUL PUSH1 0x20 ADD DUP3 ADD PUSH1 0x40 MSTORE DUP1 ISZERO PUSH2 0x2FA JUMPI DUP2 PUSH1 0x20 ADD PUSH1 0x20 DUP3 MUL DUP1 CALLDATASIZE DUP4 CALLDATACOPY DUP1 DUP3 ADD SWAP2 POP POP SWAP1 POP JUMPDEST POP SWAP1 POP DUP3 DUP2 PUSH1 0x0 DUP2 MLOAD DUP2 LT PUSH2 0x312 JUMPI PUSH2 0x311 PUSH2 0x1BA3 JUMP JUMPDEST JUMPDEST PUSH1 0x20 MUL PUSH1 0x20 ADD ADD SWAP1 PUSH20 0xFFFFFFFFFFFFFFFFFFFFFFFFFFFFFFFFFFFFFFFF AND SWAP1 DUP2 PUSH20 0xFFFFFFFFFFFFFFFFFFFFFFFFFFFFFFFFFFFFFFFF AND DUP2 MSTORE POP POP PUSH1 0x1 PUSH1 0x0 SWAP1 SLOAD SWAP1 PUSH2 0x100 EXP SWAP1 DIV PUSH20 0xFFFFFFFFFFFFFFFFFFFFFFFFFFFFFFFFFFFFFFFF AND DUP2 PUSH1 0x1 DUP2 MLOAD DUP2 LT PUSH2 0x383 JUMPI PUSH2 0x382 PUSH2 0x1BA3 JUMP JUMPDEST JUMPDEST PUSH1 0x20 MUL PUSH1 0x20 ADD ADD SWAP1 PUSH20 0xFFFFFFFFFFFFFFFFFFFFFFFFFFFFFFFFFFFFFFFF AND SWAP1 DUP2 PUSH20 0xFFFFFFFFFFFFFFFFFFFFFFFFFFFFFFFFFFFFFFFF AND DUP2 MSTORE POP POP PUSH1 0x2 PUSH1 0x0 SWAP1 SLOAD SWAP1 PUSH2 0x100 EXP SWAP1 DIV PUSH20 0xFFFFFFFFFFFFFFFFFFFFFFFFFFFFFFFFFFFFFFFF AND DUP2 PUSH1 0x2 DUP2 MLOAD DUP2 LT PUSH2 0x3F4 JUMPI PUSH2 0x3F3 PUSH2 0x1BA3 JUMP JUMPDEST JUMPDEST PUSH1 0x20 MUL PUSH1 0x20 ADD ADD SWAP1 PUSH20 0xFFFFFFFFFFFFFFFFFFFFFFFFFFFFFFFFFFFFFFFF AND SWAP1 DUP2 PUSH20 0xFFFFFFFFFFFFFFFFFFFFFFFFFFFFFFFFFFFFFFFF AND DUP2 MSTORE POP POP PUSH1 0x4 PUSH1 0x0 SWAP1 SLOAD SWAP1 PUSH2 0x100 EXP SWAP1 DIV PUSH20 0xFFFFFFFFFFFFFFFFFFFFFFFFFFFFFFFFFFFFFFFF AND PUSH20 0xFFFFFFFFFFFFFFFFFFFFFFFFFFFFFFFFFFFFFFFF AND PUSH4 0xD06CA61F PUSH1 0x3 SLOAD DUP4 PUSH1 0x40 MLOAD DUP4 PUSH4 0xFFFFFFFF AND PUSH1 0xE0 SHL DUP2 MSTORE PUSH1 0x4 ADD PUSH2 0x48D SWAP3 SWAP2 SWAP1 PUSH2 0x1C90 JUMP JUMPDEST PUSH1 0x0 PUSH1 0x40 MLOAD DUP1 DUP4 SUB DUP2 DUP7 GAS STATICCALL ISZERO DUP1 ISZERO PUSH2 0x4AA JUMPI RETURNDATASIZE PUSH1 0x0 DUP1 RETURNDATACOPY RETURNDATASIZE PUSH1 0x0 REVERT JUMPDEST POP POP POP POP PUSH1 0x40 MLOAD RETURNDATASIZE PUSH1 0x0 DUP3 RETURNDATACOPY RETURNDATASIZE PUSH1 0x1F NOT PUSH1 0x1F DUP3 ADD AND DUP3 ADD DUP1 PUSH1 0x40 MSTORE POP DUP2 ADD SWAP1 PUSH2 0x4D3 SWAP2 SWAP1 PUSH2 0x1DFF JUMP JUMPDEST PUSH1 0x2 DUP2 MLOAD DUP2 LT PUSH2 0x4E6 JUMPI PUSH2 0x4E5 PUSH2 0x1BA3 JUMP JUMPDEST JUMPDEST PUSH1 0x20 MUL PUSH1 0x20 ADD ADD MLOAD SWAP2 POP POP SWAP2 SWAP1 POP JUMP JUMPDEST PUSH1 0x0 DUP1 PUSH1 0x0 DUP4 PUSH20 0xFFFFFFFFFFFFFFFFFFFFFFFFFFFFFFFFFFFFFFFF AND PUSH4 0xDFE1681 PUSH1 0x40 MLOAD DUP2 PUSH4 0xFFFFFFFF AND PUSH1 0xE0 SHL DUP2 MSTORE PUSH1 0x4 ADD PUSH1 0x20 PUSH1 0x40 MLOAD DUP1 DUP4 SUB DUP2 DUP7 GAS STATICCALL ISZERO DUP1 ISZERO PUSH2 0x546 JUMPI RETURNDATASIZE PUSH1 0x0 DUP1 RETURNDATACOPY RETURNDATASIZE PUSH1 0x0 REVERT JUMPDEST POP POP POP POP PUSH1 0x40 MLOAD RETURNDATASIZE PUSH1 0x1F NOT PUSH1 0x1F DUP3 ADD AND DUP3 ADD DUP1 PUSH1 0x40 MSTORE POP DUP2 ADD SWAP1 PUSH2 0x56A SWAP2 SWAP1 PUSH2 0x1E86 JUMP JUMPDEST PUSH20 0xFFFFFFFFFFFFFFFFFFFFFFFFFFFFFFFFFFFFFFFF AND PUSH1 0x1 PUSH1 0x0 SWAP1 SLOAD SWAP1 PUSH2 0x100 EXP SWAP1 DIV PUSH20 0xFFFFFFFFFFFFFFFFFFFFFFFFFFFFFFFFFFFFFFFF AND PUSH20 0xFFFFFFFFFFFFFFFFFFFFFFFFFFFFFFFFFFFFFFFF AND SUB PUSH2 0x735 JUMPI PUSH2 0x72E PUSH2 0x638 DUP6 PUSH20 0xFFFFFFFFFFFFFFFFFFFFFFFFFFFFFFFFFFFFFFFF AND PUSH4 0xDFE1681 PUSH1 0x40 MLOAD DUP2 PUSH4 0xFFFFFFFF AND PUSH1 0xE0 SHL DUP2 MSTORE PUSH1 0x4 ADD PUSH1 0x20 PUSH1 0x40 MLOAD DUP1 DUP4 SUB DUP2 DUP7 GAS STATICCALL ISZERO DUP1 ISZERO PUSH2 0x60F JUMPI RETURNDATASIZE PUSH1 0x0 DUP1 RETURNDATACOPY RETURNDATASIZE PUSH1 0x0 REVERT JUMPDEST POP POP POP POP PUSH1 0x40 MLOAD RETURNDATASIZE PUSH1 0x1F NOT PUSH1 0x1F DUP3 ADD AND DUP3 ADD DUP1 PUSH1 0x40 MSTORE POP DUP2 ADD SWAP1 PUSH2 0x633 SWAP2 SWAP1 PUSH2 0x1E86 JUMP JUMPDEST PUSH2 0xD99 JUMP JUMPDEST DUP6 PUSH20 0xFFFFFFFFFFFFFFFFFFFFFFFFFFFFFFFFFFFFFFFF AND PUSH4 0xDFE1681 PUSH1 0x40 MLOAD DUP2 PUSH4 0xFFFFFFFF AND PUSH1 0xE0 SHL DUP2 MSTORE PUSH1 0x4 ADD PUSH1 0x20 PUSH1 0x40 MLOAD DUP1 DUP4 SUB DUP2 DUP7 GAS STATICCALL ISZERO DUP1 ISZERO PUSH2 0x683 JUMPI RETURNDATASIZE PUSH1 0x0 DUP1 RETURNDATACOPY RETURNDATASIZE PUSH1 0x0 REVERT JUMPDEST POP POP POP POP PUSH1 0x40 MLOAD RETURNDATASIZE PUSH1 0x1F NOT PUSH1 0x1F DUP3 ADD AND DUP3 ADD DUP1 PUSH1 0x40 MSTORE POP DUP2 ADD SWAP1 PUSH2 0x6A7 SWAP2 SWAP1 PUSH2 0x1E86 JUMP JUMPDEST PUSH20 0xFFFFFFFFFFFFFFFFFFFFFFFFFFFFFFFFFFFFFFFF AND PUSH4 0x70A08231 DUP8 PUSH1 0x40 MLOAD DUP3 PUSH4 0xFFFFFFFF AND PUSH1 0xE0 SHL DUP2 MSTORE PUSH1 0x4 ADD PUSH2 0x6DF SWAP2 SWAP1 PUSH2 0x1A1D JUMP JUMPDEST PUSH1 0x20 PUSH1 0x40 MLOAD DUP1 DUP4 SUB DUP2 DUP7 GAS STATICCALL ISZERO DUP1 ISZERO PUSH2 0x6FC JUMPI RETURNDATASIZE PUSH1 0x0 DUP1 RETURNDATACOPY RETURNDATASIZE PUSH1 0x0 REVERT JUMPDEST POP POP POP POP PUSH1 0x40 MLOAD RETURNDATASIZE PUSH1 0x1F NOT PUSH1 0x1F DUP3 ADD AND DUP3 ADD DUP1 PUSH1 0x40 MSTORE POP DUP2 ADD SWAP1 PUSH2 0x720 SWAP2 SWAP1 PUSH2 0x1EB3 JUMP JUMPDEST PUSH2 0x1605 SWAP1 SWAP2 SWAP1 PUSH4 0xFFFFFFFF AND JUMP JUMPDEST SWAP2 POP PUSH2 0x8A8 JUMP JUMPDEST PUSH2 0x8A5 PUSH2 0x7AF DUP6 PUSH20 0xFFFFFFFFFFFFFFFFFFFFFFFFFFFFFFFFFFFFFFFF AND PUSH4 0xDFE1681 PUSH1 0x40 MLOAD DUP2 PUSH4 0xFFFFFFFF AND PUSH1 0xE0 SHL DUP2 MSTORE PUSH1 0x4 ADD PUSH1 0x20 PUSH1 0x40 MLOAD DUP1 DUP4 SUB DUP2 DUP7 GAS STATICCALL ISZERO DUP1 ISZERO PUSH2 0x786 JUMPI RETURNDATASIZE PUSH1 0x0 DUP1 RETURNDATACOPY RETURNDATASIZE PUSH1 0x0 REVERT JUMPDEST POP POP POP POP PUSH1 0x40 MLOAD RETURNDATASIZE PUSH1 0x1F NOT PUSH1 0x1F DUP3 ADD AND DUP3 ADD DUP1 PUSH1 0x40 MSTORE POP DUP2 ADD SWAP1 PUSH2 0x7AA SWAP2 SWAP1 PUSH2 0x1E86 JUMP JUMPDEST PUSH2 0x2AE JUMP JUMPDEST DUP6 PUSH20 0xFFFFFFFFFFFFFFFFFFFFFFFFFFFFFFFFFFFFFFFF AND PUSH4 0xDFE1681 PUSH1 0x40 MLOAD DUP2 PUSH4 0xFFFFFFFF AND PUSH1 0xE0 SHL DUP2 MSTORE PUSH1 0x4 ADD PUSH1 0x20 PUSH1 0x40 MLOAD DUP1 DUP4 SUB DUP2 DUP7 GAS STATICCALL ISZERO DUP1 ISZERO PUSH2 0x7FA JUMPI RETURNDATASIZE PUSH1 0x0 DUP1 RETURNDATACOPY RETURNDATASIZE PUSH1 0x0 REVERT JUMPDEST POP POP POP POP PUSH1 0x40 MLOAD RETURNDATASIZE PUSH1 0x1F NOT PUSH1 0x1F DUP3 ADD AND DUP3 ADD DUP1 PUSH1 0x40 MSTORE POP DUP2 ADD SWAP1 PUSH2 0x81E SWAP2 SWAP1 PUSH2 0x1E86 JUMP JUMPDEST PUSH20 0xFFFFFFFFFFFFFFFFFFFFFFFFFFFFFFFFFFFFFFFF AND PUSH4 0x70A08231 DUP8 PUSH1 0x40 MLOAD DUP3 PUSH4 0xFFFFFFFF AND PUSH1 0xE0 SHL DUP2 MSTORE PUSH1 0x4 ADD PUSH2 0x856 SWAP2 SWAP1 PUSH2 0x1A1D JUMP JUMPDEST PUSH1 0x20 PUSH1 0x40 MLOAD DUP1 DUP4 SUB DUP2 DUP7 GAS STATICCALL ISZERO DUP1 ISZERO PUSH2 0x873 JUMPI RETURNDATASIZE PUSH1 0x0 DUP1 RETURNDATACOPY RETURNDATASIZE PUSH1 0x0 REVERT JUMPDEST POP POP POP POP PUSH1 0x40 MLOAD RETURNDATASIZE PUSH1 0x1F NOT PUSH1 0x1F DUP3 ADD AND DUP3 ADD DUP1 PUSH1 0x40 MSTORE POP DUP2 ADD SWAP1 PUSH2 0x897 SWAP2 SWAP1 PUSH2 0x1EB3 JUMP JUMPDEST PUSH2 0x1605 SWAP1 SWAP2 SWAP1 PUSH4 0xFFFFFFFF AND JUMP JUMPDEST SWAP2 POP JUMPDEST DUP4 PUSH20 0xFFFFFFFFFFFFFFFFFFFFFFFFFFFFFFFFFFFFFFFF AND PUSH4 0xD21220A7 PUSH1 0x40 MLOAD DUP2 PUSH4 0xFFFFFFFF AND PUSH1 0xE0 SHL DUP2 MSTORE PUSH1 0x4 ADD PUSH1 0x20 PUSH1 0x40 MLOAD DUP1 DUP4 SUB DUP2 DUP7 GAS STATICCALL ISZERO DUP1 ISZERO PUSH2 0x8F3 JUMPI RETURNDATASIZE PUSH1 0x0 DUP1 RETURNDATACOPY RETURNDATASIZE PUSH1 0x0 REVERT JUMPDEST POP POP POP POP PUSH1 0x40 MLOAD RETURNDATASIZE PUSH1 0x1F NOT PUSH1 0x1F DUP3 ADD AND DUP3 ADD DUP1 PUSH1 0x40 MSTORE POP DUP2 ADD SWAP1 PUSH2 0x917 SWAP2 SWAP1 PUSH2 0x1E86 JUMP JUMPDEST PUSH20 0xFFFFFFFFFFFFFFFFFFFFFFFFFFFFFFFFFFFFFFFF AND PUSH1 0x1 PUSH1 0x0 SWAP1 SLOAD SWAP1 PUSH2 0x100 EXP SWAP1 DIV PUSH20 0xFFFFFFFFFFFFFFFFFFFFFFFFFFFFFFFFFFFFFFFF AND PUSH20 0xFFFFFFFFFFFFFFFFFFFFFFFFFFFFFFFFFFFFFFFF AND SUB PUSH2 0xAE2 JUMPI PUSH2 0xADB PUSH2 0x9E5 DUP6 PUSH20 0xFFFFFFFFFFFFFFFFFFFFFFFFFFFFFFFFFFFFFFFF AND PUSH4 0xD21220A7 PUSH1 0x40 MLOAD DUP2 PUSH4 0xFFFFFFFF AND PUSH1 0xE0 SHL DUP2 MSTORE PUSH1 0x4 ADD PUSH1 0x20 PUSH1 0x40 MLOAD DUP1 DUP4 SUB DUP2 DUP7 GAS STATICCALL ISZERO DUP1 ISZERO PUSH2 0x9BC JUMPI RETURNDATASIZE PUSH1 0x0 DUP1 RETURNDATACOPY RETURNDATASIZE PUSH1 0x0 REVERT JUMPDEST POP POP POP POP PUSH1 0x40 MLOAD RETURNDATASIZE PUSH1 0x1F NOT PUSH1 0x1F DUP3 ADD AND DUP3 ADD DUP1 PUSH1 0x40 MSTORE POP DUP2 ADD SWAP1 PUSH2 0x9E0 SWAP2 SWAP1 PUSH2 0x1E86 JUMP JUMPDEST PUSH2 0xD99 JUMP JUMPDEST DUP6 PUSH20 0xFFFFFFFFFFFFFFFFFFFFFFFFFFFFFFFFFFFFFFFF AND PUSH4 0xD21220A7 PUSH1 0x40 MLOAD DUP2 PUSH4 0xFFFFFFFF AND PUSH1 0xE0 SHL DUP2 MSTORE PUSH1 0x4 ADD PUSH1 0x20 PUSH1 0x40 MLOAD DUP1 DUP4 SUB DUP2 DUP7 GAS STATICCALL ISZERO DUP1 ISZERO PUSH2 0xA30 JUMPI RETURNDATASIZE PUSH1 0x0 DUP1 RETURNDATACOPY RETURNDATASIZE PUSH1 0x0 REVERT JUMPDEST POP POP POP POP PUSH1 0x40 MLOAD RETURNDATASIZE PUSH1 0x1F NOT PUSH1 0x1F DUP3 ADD AND DUP3 ADD DUP1 PUSH1 0x40 MSTORE POP DUP2 ADD SWAP1 PUSH2 0xA54 SWAP2 SWAP1 PUSH2 0x1E86 JUMP JUMPDEST PUSH20 0xFFFFFFFFFFFFFFFFFFFFFFFFFFFFFFFFFFFFFFFF AND PUSH4 0x70A08231 DUP8 PUSH1 0x40 MLOAD DUP3 PUSH4 0xFFFFFFFF AND PUSH1 0xE0 SHL DUP2 MSTORE PUSH1 0x4 ADD PUSH2 0xA8C SWAP2 SWAP1 PUSH2 0x1A1D JUMP JUMPDEST PUSH1 0x20 PUSH1 0x40 MLOAD DUP1 DUP4 SUB DUP2 DUP7 GAS STATICCALL ISZERO DUP1 ISZERO PUSH2 0xAA9 JUMPI RETURNDATASIZE PUSH1 0x0 DUP1 RETURNDATACOPY RETURNDATASIZE PUSH1 0x0 REVERT JUMPDEST POP POP POP POP PUSH1 0x40 MLOAD RETURNDATASIZE PUSH1 0x1F NOT PUSH1 0x1F DUP3 ADD AND DUP3 ADD DUP1 PUSH1 0x40 MSTORE POP DUP2 ADD SWAP1 PUSH2 0xACD SWAP2 SWAP1 PUSH2 0x1EB3 JUMP JUMPDEST PUSH2 0x1605 SWAP1 SWAP2 SWAP1 PUSH4 0xFFFFFFFF AND JUMP JUMPDEST SWAP1 POP PUSH2 0xC55 JUMP JUMPDEST PUSH2 0xC52 PUSH2 0xB5C DUP6 PUSH20 0xFFFFFFFFFFFFFFFFFFFFFFFFFFFFFFFFFFFFFFFF AND PUSH4 0xD21220A7 PUSH1 0x40 MLOAD DUP2 PUSH4 0xFFFFFFFF AND PUSH1 0xE0 SHL DUP2 MSTORE PUSH1 0x4 ADD PUSH1 0x20 PUSH1 0x40 MLOAD DUP1 DUP4 SUB DUP2 DUP7 GAS STATICCALL ISZERO DUP1 ISZERO PUSH2 0xB33 JUMPI RETURNDATASIZE PUSH1 0x0 DUP1 RETURNDATACOPY RETURNDATASIZE PUSH1 0x0 REVERT JUMPDEST POP POP POP POP PUSH1 0x40 MLOAD RETURNDATASIZE PUSH1 0x1F NOT PUSH1 0x1F DUP3 ADD AND DUP3 ADD DUP1 PUSH1 0x40 MSTORE POP DUP2 ADD SWAP1 PUSH2 0xB57 SWAP2 SWAP1 PUSH2 0x1E86 JUMP JUMPDEST PUSH2 0x2AE JUMP JUMPDEST DUP6 PUSH20 0xFFFFFFFFFFFFFFFFFFFFFFFFFFFFFFFFFFFFFFFF AND PUSH4 0xD21220A7 PUSH1 0x40 MLOAD DUP2 PUSH4 0xFFFFFFFF AND PUSH1 0xE0 SHL DUP2 MSTORE PUSH1 0x4 ADD PUSH1 0x20 PUSH1 0x40 MLOAD DUP1 DUP4 SUB DUP2 DUP7 GAS STATICCALL ISZERO DUP1 ISZERO PUSH2 0xBA7 JUMPI RETURNDATASIZE PUSH1 0x0 DUP1 RETURNDATACOPY RETURNDATASIZE PUSH1 0x0 REVERT JUMPDEST POP POP POP POP PUSH1 0x40 MLOAD RETURNDATASIZE PUSH1 0x1F NOT PUSH1 0x1F DUP3 ADD AND DUP3 ADD DUP1 PUSH1 0x40 MSTORE POP DUP2 ADD SWAP1 PUSH2 0xBCB SWAP2 SWAP1 PUSH2 0x1E86 JUMP JUMPDEST PUSH20 0xFFFFFFFFFFFFFFFFFFFFFFFFFFFFFFFFFFFFFFFF AND PUSH4 0x70A08231 DUP8 PUSH1 0x40 MLOAD DUP3 PUSH4 0xFFFFFFFF AND PUSH1 0xE0 SHL DUP2 MSTORE PUSH1 0x4 ADD PUSH2 0xC03 SWAP2 SWAP1 PUSH2 0x1A1D JUMP JUMPDEST PUSH1 0x20 PUSH1 0x40 MLOAD DUP1 DUP4 SUB DUP2 DUP7 GAS STATICCALL ISZERO DUP1 ISZERO PUSH2 0xC20 JUMPI RETURNDATASIZE PUSH1 0x0 DUP1 RETURNDATACOPY RETURNDATASIZE PUSH1 0x0 REVERT JUMPDEST POP POP POP POP PUSH1 0x40 MLOAD RETURNDATASIZE PUSH1 0x1F NOT PUSH1 0x1F DUP3 ADD AND DUP3 ADD DUP1 PUSH1 0x40 MSTORE POP DUP2 ADD SWAP1 PUSH2 0xC44 SWAP2 SWAP1 PUSH2 0x1EB3 JUMP JUMPDEST PUSH2 0x1605 SWAP1 SWAP2 SWAP1 PUSH4 0xFFFFFFFF AND JUMP JUMPDEST SWAP1 POP JUMPDEST PUSH2 0xCE8 DUP5 PUSH20 0xFFFFFFFFFFFFFFFFFFFFFFFFFFFFFFFFFFFFFFFF AND PUSH4 0x18160DDD PUSH1 0x40 MLOAD DUP2 PUSH4 0xFFFFFFFF AND PUSH1 0xE0 SHL DUP2 MSTORE PUSH1 0x4 ADD PUSH1 0x20 PUSH1 0x40 MLOAD DUP1 DUP4 SUB DUP2 DUP7 GAS STATICCALL ISZERO DUP1 ISZERO PUSH2 0xCA3 JUMPI RETURNDATASIZE PUSH1 0x0 DUP1 RETURNDATACOPY RETURNDATASIZE PUSH1 0x0 REVERT JUMPDEST POP POP POP POP PUSH1 0x40 MLOAD RETURNDATASIZE PUSH1 0x1F NOT PUSH1 0x1F DUP3 ADD AND DUP3 ADD DUP1 PUSH1 0x40 MSTORE POP DUP2 ADD SWAP1 PUSH2 0xCC7 SWAP2 SWAP1 PUSH2 0x1EB3 JUMP JUMPDEST PUSH2 0xCDA DUP4 DUP6 PUSH2 0x167F SWAP1 SWAP2 SWAP1 PUSH4 0xFFFFFFFF AND JUMP JUMPDEST PUSH2 0x16DD SWAP1 SWAP2 SWAP1 PUSH4 0xFFFFFFFF AND JUMP JUMPDEST SWAP3 POP POP POP SWAP2 SWAP1 POP JUMP JUMPDEST PUSH1 0x0 DUP2 PUSH20 0xFFFFFFFFFFFFFFFFFFFFFFFFFFFFFFFFFFFFFFFF AND PUSH4 0xDFE1681 PUSH1 0x40 MLOAD DUP2 PUSH4 0xFFFFFFFF AND PUSH1 0xE0 SHL DUP2 MSTORE PUSH1 0x4 ADD PUSH1 0x20 PUSH1 0x40 MLOAD DUP1 DUP4 SUB DUP2 DUP7 GAS STATICCALL SWAP3 POP POP POP DUP1 ISZERO PUSH2 0xD5B JUMPI POP PUSH1 0x40 MLOAD RETURNDATASIZE PUSH1 0x1F NOT PUSH1 0x1F DUP3 ADD AND DUP3 ADD DUP1 PUSH1 0x40 MSTORE POP DUP2 ADD SWAP1 PUSH2 0xD58 SWAP2 SWAP1 PUSH2 0x1E86 JUMP JUMPDEST PUSH1 0x1 JUMPDEST PUSH2 0xD68 JUMPI PUSH1 0x0 SWAP1 POP PUSH2 0xD6E JUMP JUMPDEST POP PUSH1 0x1 SWAP1 POP JUMPDEST SWAP2 SWAP1 POP JUMP JUMPDEST PUSH1 0x4 PUSH1 0x0 SWAP1 SLOAD SWAP1 PUSH2 0x100 EXP SWAP1 DIV PUSH20 0xFFFFFFFFFFFFFFFFFFFFFFFFFFFFFFFFFFFFFFFF AND DUP2 JUMP JUMPDEST PUSH1 0x0 DUP1 PUSH1 0x2 PUSH8 0xFFFFFFFFFFFFFFFF DUP2 GT ISZERO PUSH2 0xDB7 JUMPI PUSH2 0xDB6 PUSH2 0x1B74 JUMP JUMPDEST JUMPDEST PUSH1 0x40 MLOAD SWAP1 DUP1 DUP3 MSTORE DUP1 PUSH1 0x20 MUL PUSH1 0x20 ADD DUP3 ADD PUSH1 0x40 MSTORE DUP1 ISZERO PUSH2 0xDE5 JUMPI DUP2 PUSH1 0x20 ADD PUSH1 0x20 DUP3 MUL DUP1 CALLDATASIZE DUP4 CALLDATACOPY DUP1 DUP3 ADD SWAP2 POP POP SWAP1 POP JUMPDEST POP SWAP1 POP DUP3 DUP2 PUSH1 0x0 DUP2 MLOAD DUP2 LT PUSH2 0xDFD JUMPI PUSH2 0xDFC PUSH2 0x1BA3 JUMP JUMPDEST JUMPDEST PUSH1 0x20 MUL PUSH1 0x20 ADD ADD SWAP1 PUSH20 0xFFFFFFFFFFFFFFFFFFFFFFFFFFFFFFFFFFFFFFFF AND SWAP1 DUP2 PUSH20 0xFFFFFFFFFFFFFFFFFFFFFFFFFFFFFFFFFFFFFFFF AND DUP2 MSTORE POP POP PUSH1 0x2 PUSH1 0x0 SWAP1 SLOAD SWAP1 PUSH2 0x100 EXP SWAP1 DIV PUSH20 0xFFFFFFFFFFFFFFFFFFFFFFFFFFFFFFFFFFFFFFFF AND DUP2 PUSH1 0x1 DUP2 MLOAD DUP2 LT PUSH2 0xE6E JUMPI PUSH2 0xE6D PUSH2 0x1BA3 JUMP JUMPDEST JUMPDEST PUSH1 0x20 MUL PUSH1 0x20 ADD ADD SWAP1 PUSH20 0xFFFFFFFFFFFFFFFFFFFFFFFFFFFFFFFFFFFFFFFF AND SWAP1 DUP2 PUSH20 0xFFFFFFFFFFFFFFFFFFFFFFFFFFFFFFFFFFFFFFFF AND DUP2 MSTORE POP POP PUSH1 0x4 PUSH1 0x0 SWAP1 SLOAD SWAP1 PUSH2 0x100 EXP SWAP1 DIV PUSH20 0xFFFFFFFFFFFFFFFFFFFFFFFFFFFFFFFFFFFFFFFF AND PUSH20 0xFFFFFFFFFFFFFFFFFFFFFFFFFFFFFFFFFFFFFFFF AND PUSH4 0xD06CA61F PUSH1 0x3 SLOAD DUP4 PUSH1 0x40 MLOAD DUP4 PUSH4 0xFFFFFFFF AND PUSH1 0xE0 SHL DUP2 MSTORE PUSH1 0x4 ADD PUSH2 0xF07 SWAP3 SWAP2 SWAP1 PUSH2 0x1C90 JUMP JUMPDEST PUSH1 0x0 PUSH1 0x40 MLOAD DUP1 DUP4 SUB DUP2 DUP7 GAS STATICCALL ISZERO DUP1 ISZERO PUSH2 0xF24 JUMPI RETURNDATASIZE PUSH1 0x0 DUP1 RETURNDATACOPY RETURNDATASIZE PUSH1 0x0 REVERT JUMPDEST POP POP POP POP PUSH1 0x40 MLOAD RETURNDATASIZE PUSH1 0x0 DUP3 RETURNDATACOPY RETURNDATASIZE PUSH1 0x1F NOT PUSH1 0x1F DUP3 ADD AND DUP3 ADD DUP1 PUSH1 0x40 MSTORE POP DUP2 ADD SWAP1 PUSH2 0xF4D SWAP2 SWAP1 PUSH2 0x1DFF JUMP JUMPDEST PUSH1 0x1 DUP2 MLOAD DUP2 LT PUSH2 0xF60 JUMPI PUSH2 0xF5F PUSH2 0x1BA3 JUMP JUMPDEST JUMPDEST PUSH1 0x20 MUL PUSH1 0x20 ADD ADD MLOAD SWAP2 POP POP SWAP2 SWAP1 POP JUMP JUMPDEST PUSH1 0x2 PUSH1 0x0 SWAP1 SLOAD SWAP1 PUSH2 0x100 EXP SWAP1 DIV PUSH20 0xFFFFFFFFFFFFFFFFFFFFFFFFFFFFFFFFFFFFFFFF AND DUP2 JUMP JUMPDEST PUSH2 0xF9E PUSH2 0x1727 JUMP JUMPDEST PUSH20 0xFFFFFFFFFFFFFFFFFFFFFFFFFFFFFFFFFFFFFFFF AND PUSH2 0xFBC PUSH2 0x101E JUMP JUMPDEST PUSH20 0xFFFFFFFFFFFFFFFFFFFFFFFFFFFFFFFFFFFFFFFF AND EQ PUSH2 0x1012 JUMPI PUSH1 0x40 MLOAD PUSH32 0x8C379A000000000000000000000000000000000000000000000000000000000 DUP2 MSTORE PUSH1 0x4 ADD PUSH2 0x1009 SWAP1 PUSH2 0x1F3D JUMP JUMPDEST PUSH1 0x40 MLOAD DUP1 SWAP2 SUB SWAP1 REVERT JUMPDEST PUSH2 0x101C PUSH1 0x0 PUSH2 0x172F JUMP JUMPDEST JUMP JUMPDEST PUSH1 0x0 DUP1 PUSH1 0x0 SWAP1 SLOAD SWAP1 PUSH2 0x100 EXP SWAP1 DIV PUSH20 0xFFFFFFFFFFFFFFFFFFFFFFFFFFFFFFFFFFFFFFFF AND SWAP1 POP SWAP1 JUMP JUMPDEST PUSH1 0x1 PUSH1 0x0 SWAP1 SLOAD SWAP1 PUSH2 0x100 EXP SWAP1 DIV PUSH20 0xFFFFFFFFFFFFFFFFFFFFFFFFFFFFFFFFFFFFFFFF AND DUP2 JUMP JUMPDEST PUSH2 0x1075 PUSH2 0x1727 JUMP JUMPDEST PUSH20 0xFFFFFFFFFFFFFFFFFFFFFFFFFFFFFFFFFFFFFFFF AND PUSH2 0x1093 PUSH2 0x101E JUMP JUMPDEST PUSH20 0xFFFFFFFFFFFFFFFFFFFFFFFFFFFFFFFFFFFFFFFF AND EQ PUSH2 0x10E9 JUMPI PUSH1 0x40 MLOAD PUSH32 0x8C379A000000000000000000000000000000000000000000000000000000000 DUP2 MSTORE PUSH1 0x4 ADD PUSH2 0x10E0 SWAP1 PUSH2 0x1F3D JUMP JUMPDEST PUSH1 0x40 MLOAD DUP1 SWAP2 SUB SWAP1 REVERT JUMPDEST DUP1 PUSH1 0x4 PUSH1 0x0 PUSH2 0x100 EXP DUP2 SLOAD DUP2 PUSH20 0xFFFFFFFFFFFFFFFFFFFFFFFFFFFFFFFFFFFFFFFF MUL NOT AND SWAP1 DUP4 PUSH20 0xFFFFFFFFFFFFFFFFFFFFFFFFFFFFFFFFFFFFFFFF AND MUL OR SWAP1 SSTORE POP POP JUMP JUMPDEST PUSH1 0x0 DUP1 DUP3 PUSH20 0xFFFFFFFFFFFFFFFFFFFFFFFFFFFFFFFFFFFFFFFF AND PUSH4 0x6A6D964E DUP8 PUSH1 0x40 MLOAD DUP3 PUSH4 0xFFFFFFFF AND PUSH1 0xE0 SHL DUP2 MSTORE PUSH1 0x4 ADD PUSH2 0x1169 SWAP2 SWAP1 PUSH2 0x190E JUMP JUMPDEST PUSH1 0x20 PUSH1 0x40 MLOAD DUP1 DUP4 SUB DUP2 DUP7 GAS STATICCALL ISZERO DUP1 ISZERO PUSH2 0x1186 JUMPI RETURNDATASIZE PUSH1 0x0 DUP1 RETURNDATACOPY RETURNDATASIZE PUSH1 0x0 REVERT JUMPDEST POP POP POP POP PUSH1 0x40 MLOAD RETURNDATASIZE PUSH1 0x1F NOT PUSH1 0x1F DUP3 ADD AND DUP3 ADD DUP1 PUSH1 0x40 MSTORE POP DUP2 ADD SWAP1 PUSH2 0x11AA SWAP2 SWAP1 PUSH2 0x1EB3 JUMP JUMPDEST SWAP1 POP PUSH1 0x0 PUSH1 0x1 DUP6 SUB PUSH2 0x11C6 JUMPI PUSH2 0x11BF DUP7 PUSH2 0x4F6 JUMP JUMPDEST SWAP1 POP PUSH2 0x1241 JUMP JUMPDEST PUSH1 0x0 DUP6 SUB PUSH2 0x1240 JUMPI DUP6 PUSH20 0xFFFFFFFFFFFFFFFFFFFFFFFFFFFFFFFFFFFFFFFF AND PUSH1 0x1 PUSH1 0x0 SWAP1 SLOAD SWAP1 PUSH2 0x100 EXP SWAP1 DIV PUSH20 0xFFFFFFFFFFFFFFFFFFFFFFFFFFFFFFFFFFFFFFFF AND PUSH20 0xFFFFFFFFFFFFFFFFFFFFFFFFFFFFFFFFFFFFFFFF AND SUB PUSH2 0x1233 JUMPI PUSH2 0x122C DUP7 PUSH2 0xD99 JUMP JUMPDEST SWAP1 POP PUSH2 0x123F JUMP JUMPDEST PUSH2 0x123C DUP7 PUSH2 0x2AE JUMP JUMPDEST SWAP1 POP JUMPDEST JUMPDEST JUMPDEST PUSH2 0x1261 PUSH1 0x3 SLOAD DUP3 DUP5 PUSH2 0x1253 SWAP2 SWAP1 PUSH2 0x1F8C JUMP JUMPDEST PUSH2 0x16DD SWAP1 SWAP2 SWAP1 PUSH4 0xFFFFFFFF AND JUMP JUMPDEST SWAP3 POP POP POP SWAP5 SWAP4 POP POP POP POP JUMP JUMPDEST PUSH1 0x0 DUP1 DUP3 PUSH20 0xFFFFFFFFFFFFFFFFFFFFFFFFFFFFFFFFFFFFFFFF AND PUSH4 0x1526FE27 DUP8 PUSH1 0x40 MLOAD DUP3 PUSH4 0xFFFFFFFF AND PUSH1 0xE0 SHL DUP2 MSTORE PUSH1 0x4 ADD PUSH2 0x12A9 SWAP2 SWAP1 PUSH2 0x190E JUMP JUMPDEST PUSH1 0xC0 PUSH1 0x40 MLOAD DUP1 DUP4 SUB DUP2 DUP7 GAS STATICCALL ISZERO DUP1 ISZERO PUSH2 0x12C6 JUMPI RETURNDATASIZE PUSH1 0x0 DUP1 RETURNDATACOPY RETURNDATASIZE PUSH1 0x0 REVERT JUMPDEST POP POP POP POP PUSH1 0x40 MLOAD RETURNDATASIZE PUSH1 0x1F NOT PUSH1 0x1F DUP3 ADD AND DUP3 ADD DUP1 PUSH1 0x40 MSTORE POP DUP2 ADD SWAP1 PUSH2 0x12EA SWAP2 SWAP1 PUSH2 0x20C9 JUMP JUMPDEST SWAP1 POP PUSH1 0x0 PUSH2 0x1387 DUP5 PUSH20 0xFFFFFFFFFFFFFFFFFFFFFFFFFFFFFFFFFFFFFFFF AND PUSH4 0x17CAF6F1 PUSH1 0x40 MLOAD DUP2 PUSH4 0xFFFFFFFF AND PUSH1 0xE0 SHL DUP2 MSTORE PUSH1 0x4 ADD PUSH1 0x20 PUSH1 0x40 MLOAD DUP1 DUP4 SUB DUP2 DUP7 GAS STATICCALL ISZERO DUP1 ISZERO PUSH2 0x133C JUMPI RETURNDATASIZE PUSH1 0x0 DUP1 RETURNDATACOPY RETURNDATASIZE PUSH1 0x0 REVERT JUMPDEST POP POP POP POP PUSH1 0x40 MLOAD RETURNDATASIZE PUSH1 0x1F NOT PUSH1 0x1F DUP3 ADD AND DUP3 ADD DUP1 PUSH1 0x40 MSTORE POP DUP2 ADD SWAP1 PUSH2 0x1360 SWAP2 SWAP1 PUSH2 0x1EB3 JUMP JUMPDEST PUSH2 0x1379 PUSH1 0x3 SLOAD DUP6 PUSH1 0x20 ADD MLOAD PUSH2 0x1605 SWAP1 SWAP2 SWAP1 PUSH4 0xFFFFFFFF AND JUMP JUMPDEST PUSH2 0x16DD SWAP1 SWAP2 SWAP1 PUSH4 0xFFFFFFFF AND JUMP JUMPDEST SWAP1 POP PUSH1 0x0 PUSH2 0x1402 DUP6 PUSH20 0xFFFFFFFFFFFFFFFFFFFFFFFFFFFFFFFFFFFFFFFF AND PUSH4 0x141AA0BA PUSH1 0x40 MLOAD DUP2 PUSH4 0xFFFFFFFF AND PUSH1 0xE0 SHL DUP2 MSTORE PUSH1 0x4 ADD PUSH1 0x20 PUSH1 0x40 MLOAD DUP1 DUP4 SUB DUP2 DUP7 GAS STATICCALL ISZERO DUP1 ISZERO PUSH2 0x13D9 JUMPI RETURNDATASIZE PUSH1 0x0 DUP1 RETURNDATACOPY RETURNDATASIZE PUSH1 0x0 REVERT JUMPDEST POP POP POP POP PUSH1 0x40 MLOAD RETURNDATASIZE PUSH1 0x1F NOT PUSH1 0x1F DUP3 ADD AND DUP3 ADD DUP1 PUSH1 0x40 MSTORE POP DUP2 ADD SWAP1 PUSH2 0x13FD SWAP2 SWAP1 PUSH2 0x210B JUMP JUMPDEST PUSH2 0x2AE JUMP JUMPDEST SWAP1 POP PUSH1 0x0 PUSH2 0x1489 DUP7 PUSH20 0xFFFFFFFFFFFFFFFFFFFFFFFFFFFFFFFFFFFFFFFF AND PUSH4 0xA1EEF821 PUSH1 0x40 MLOAD DUP2 PUSH4 0xFFFFFFFF AND PUSH1 0xE0 SHL DUP2 MSTORE PUSH1 0x4 ADD PUSH1 0x20 PUSH1 0x40 MLOAD DUP1 DUP4 SUB DUP2 DUP7 GAS STATICCALL ISZERO DUP1 ISZERO PUSH2 0x1454 JUMPI RETURNDATASIZE PUSH1 0x0 DUP1 RETURNDATACOPY RETURNDATASIZE PUSH1 0x0 REVERT JUMPDEST POP POP POP POP PUSH1 0x40 MLOAD RETURNDATASIZE PUSH1 0x1F NOT PUSH1 0x1F DUP3 ADD AND DUP3 ADD DUP1 PUSH1 0x40 MSTORE POP DUP2 ADD SWAP1 PUSH2 0x1478 SWAP2 SWAP1 PUSH2 0x1EB3 JUMP JUMPDEST PUSH1 0x5 SLOAD PUSH2 0x1605 SWAP1 SWAP2 SWAP1 PUSH4 0xFFFFFFFF AND JUMP JUMPDEST SWAP1 POP PUSH1 0x0 PUSH2 0x14B4 PUSH1 0x3 SLOAD PUSH2 0x14A6 DUP7 DUP6 PUSH2 0x1605 SWAP1 SWAP2 SWAP1 PUSH4 0xFFFFFFFF AND JUMP JUMPDEST PUSH2 0x16DD SWAP1 SWAP2 SWAP1 PUSH4 0xFFFFFFFF AND JUMP JUMPDEST SWAP1 POP PUSH1 0x0 PUSH2 0x14C4 DUP12 DUP12 DUP12 DUP12 PUSH2 0x112D JUMP JUMPDEST SWAP1 POP PUSH2 0x14FE PUSH1 0x64 PUSH2 0x14F0 DUP4 PUSH2 0x14E2 DUP9 DUP8 PUSH2 0x1605 SWAP1 SWAP2 SWAP1 PUSH4 0xFFFFFFFF AND JUMP JUMPDEST PUSH2 0x16DD SWAP1 SWAP2 SWAP1 PUSH4 0xFFFFFFFF AND JUMP JUMPDEST PUSH2 0x1605 SWAP1 SWAP2 SWAP1 PUSH4 0xFFFFFFFF AND JUMP JUMPDEST SWAP7 POP POP POP POP POP POP POP SWAP5 SWAP4 POP POP POP POP JUMP JUMPDEST PUSH2 0x1516 PUSH2 0x1727 JUMP JUMPDEST PUSH20 0xFFFFFFFFFFFFFFFFFFFFFFFFFFFFFFFFFFFFFFFF AND PUSH2 0x1534 PUSH2 0x101E JUMP JUMPDEST PUSH20 0xFFFFFFFFFFFFFFFFFFFFFFFFFFFFFFFFFFFFFFFF AND EQ PUSH2 0x158A JUMPI PUSH1 0x40 MLOAD PUSH32 0x8C379A000000000000000000000000000000000000000000000000000000000 DUP2 MSTORE PUSH1 0x4 ADD PUSH2 0x1581 SWAP1 PUSH2 0x1F3D JUMP JUMPDEST PUSH1 0x40 MLOAD DUP1 SWAP2 SUB SWAP1 REVERT JUMPDEST PUSH1 0x0 PUSH20 0xFFFFFFFFFFFFFFFFFFFFFFFFFFFFFFFFFFFFFFFF AND DUP2 PUSH20 0xFFFFFFFFFFFFFFFFFFFFFFFFFFFFFFFFFFFFFFFF AND SUB PUSH2 0x15F9 JUMPI PUSH1 0x40 MLOAD PUSH32 0x8C379A000000000000000000000000000000000000000000000000000000000 DUP2 MSTORE PUSH1 0x4 ADD PUSH2 0x15F0 SWAP1 PUSH2 0x21AA JUMP JUMPDEST PUSH1 0x40 MLOAD DUP1 SWAP2 SUB SWAP1 REVERT JUMPDEST PUSH2 0x1602 DUP2 PUSH2 0x172F JUMP JUMPDEST POP JUMP JUMPDEST PUSH1 0x0 DUP1 DUP4 SUB PUSH2 0x1617 JUMPI PUSH1 0x0 SWAP1 POP PUSH2 0x1679 JUMP JUMPDEST PUSH1 0x0 DUP3 DUP5 PUSH2 0x1625 SWAP2 SWAP1 PUSH2 0x1F8C JUMP JUMPDEST SWAP1 POP DUP3 DUP5 DUP3 PUSH2 0x1634 SWAP2 SWAP1 PUSH2 0x21F9 JUMP JUMPDEST EQ PUSH2 0x1674 JUMPI PUSH1 0x40 MLOAD PUSH32 0x8C379A000000000000000000000000000000000000000000000000000000000 DUP2 MSTORE PUSH1 0x4 ADD PUSH2 0x166B SWAP1 PUSH2 0x229C JUMP JUMPDEST PUSH1 0x40 MLOAD DUP1 SWAP2 SUB SWAP1 REVERT JUMPDEST DUP1 SWAP2 POP POP JUMPDEST SWAP3 SWAP2 POP POP JUMP JUMPDEST PUSH1 0x0 DUP1 DUP3 DUP5 PUSH2 0x168E SWAP2 SWAP1 PUSH2 0x22BC JUMP JUMPDEST SWAP1 POP DUP4 DUP2 LT ISZERO PUSH2 0x16D3 JUMPI PUSH1 0x40 MLOAD PUSH32 0x8C379A000000000000000000000000000000000000000000000000000000000 DUP2 MSTORE PUSH1 0x4 ADD PUSH2 0x16CA SWAP1 PUSH2 0x235E JUMP JUMPDEST PUSH1 0x40 MLOAD DUP1 SWAP2 SUB SWAP1 REVERT JUMPDEST DUP1 SWAP2 POP POP SWAP3 SWAP2 POP POP JUMP JUMPDEST PUSH1 0x0 PUSH2 0x171F DUP4 DUP4 PUSH1 0x40 MLOAD DUP1 PUSH1 0x40 ADD PUSH1 0x40 MSTORE DUP1 PUSH1 0x1A DUP2 MSTORE PUSH1 0x20 ADD PUSH32 0x536166654D6174683A206469766973696F6E206279207A65726F000000000000 DUP2 MSTORE POP PUSH2 0x17F3 JUMP JUMPDEST SWAP1 POP SWAP3 SWAP2 POP POP JUMP JUMPDEST PUSH1 0x0 CALLER SWAP1 POP SWAP1 JUMP JUMPDEST PUSH1 0x0 DUP1 PUSH1 0x0 SWAP1 SLOAD SWAP1 PUSH2 0x100 EXP SWAP1 DIV PUSH20 0xFFFFFFFFFFFFFFFFFFFFFFFFFFFFFFFFFFFFFFFF AND SWAP1 POP DUP2 PUSH1 0x0 DUP1 PUSH2 0x100 EXP DUP2 SLOAD DUP2 PUSH20 0xFFFFFFFFFFFFFFFFFFFFFFFFFFFFFFFFFFFFFFFF MUL NOT AND SWAP1 DUP4 PUSH20 0xFFFFFFFFFFFFFFFFFFFFFFFFFFFFFFFFFFFFFFFF AND MUL OR SWAP1 SSTORE POP DUP2 PUSH20 0xFFFFFFFFFFFFFFFFFFFFFFFFFFFFFFFFFFFFFFFF AND DUP2 PUSH20 0xFFFFFFFFFFFFFFFFFFFFFFFFFFFFFFFFFFFFFFFF AND PUSH32 0x8BE0079C531659141344CD1FD0A4F28419497F9722A3DAAFE3B4186F6B6457E0 PUSH1 0x40 MLOAD PUSH1 0x40 MLOAD DUP1 SWAP2 SUB SWAP1 LOG3 POP POP JUMP JUMPDEST PUSH1 0x0 DUP1 DUP4 GT DUP3 SWAP1 PUSH2 0x183A JUMPI PUSH1 0x40 MLOAD PUSH32 0x8C379A000000000000000000000000000000000000000000000000000000000 DUP2 MSTORE PUSH1 0x4 ADD PUSH2 0x1831 SWAP2 SWAP1 PUSH2 0x23F5 JUMP JUMPDEST PUSH1 0x40 MLOAD DUP1 SWAP2 SUB SWAP1 REVERT JUMPDEST POP PUSH1 0x0 DUP4 DUP6 PUSH2 0x1849 SWAP2 SWAP1 PUSH2 0x21F9 JUMP JUMPDEST SWAP1 POP DUP1 SWAP2 POP POP SWAP4 SWAP3 POP POP POP JUMP JUMPDEST PUSH1 0x0 PUSH1 0x40 MLOAD SWAP1 POP SWAP1 JUMP JUMPDEST PUSH1 0x0 DUP1 REVERT JUMPDEST PUSH1 0x0 DUP1 REVERT JUMPDEST PUSH1 0x0 PUSH20 0xFFFFFFFFFFFFFFFFFFFFFFFFFFFFFFFFFFFFFFFF DUP3 AND SWAP1 POP SWAP2 SWAP1 POP JUMP JUMPDEST PUSH1 0x0 PUSH2 0x1895 DUP3 PUSH2 0x186A JUMP JUMPDEST SWAP1 POP SWAP2 SWAP1 POP JUMP JUMPDEST PUSH2 0x18A5 DUP2 PUSH2 0x188A JUMP JUMPDEST DUP2 EQ PUSH2 0x18B0 JUMPI PUSH1 0x0 DUP1 REVERT JUMPDEST POP JUMP JUMPDEST PUSH1 0x0 DUP2 CALLDATALOAD SWAP1 POP PUSH2 0x18C2 DUP2 PUSH2 0x189C JUMP JUMPDEST SWAP3 SWAP2 POP POP JUMP JUMPDEST PUSH1 0x0 PUSH1 0x20 DUP3 DUP5 SUB SLT ISZERO PUSH2 0x18DE JUMPI PUSH2 0x18DD PUSH2 0x1860 JUMP JUMPDEST JUMPDEST PUSH1 0x0 PUSH2 0x18EC DUP5 DUP3 DUP6 ADD PUSH2 0x18B3 JUMP JUMPDEST SWAP2 POP POP SWAP3 SWAP2 POP POP JUMP JUMPDEST PUSH1 0x0 DUP2 SWAP1 POP SWAP2 SWAP1 POP JUMP JUMPDEST PUSH2 0x1908 DUP2 PUSH2 0x18F5 JUMP JUMPDEST DUP3 MSTORE POP POP JUMP JUMPDEST PUSH1 0x0 PUSH1 0x20 DUP3 ADD SWAP1 POP PUSH2 0x1923 PUSH1 0x0 DUP4 ADD DUP5 PUSH2 0x18FF JUMP JUMPDEST SWAP3 SWAP2 POP POP JUMP JUMPDEST PUSH1 0x0 PUSH2 0x1934 DUP3 PUSH2 0x188A JUMP JUMPDEST SWAP1 POP SWAP2 SWAP1 POP JUMP JUMPDEST PUSH2 0x1944 DUP2 PUSH2 0x1929 JUMP JUMPDEST DUP2 EQ PUSH2 0x194F JUMPI PUSH1 0x0 DUP1 REVERT JUMPDEST POP JUMP JUMPDEST PUSH1 0x0 DUP2 CALLDATALOAD SWAP1 POP PUSH2 0x1961 DUP2 PUSH2 0x193B JUMP JUMPDEST SWAP3 SWAP2 POP POP JUMP JUMPDEST PUSH1 0x0 PUSH1 0x20 DUP3 DUP5 SUB SLT ISZERO PUSH2 0x197D JUMPI PUSH2 0x197C PUSH2 0x1860 JUMP JUMPDEST JUMPDEST PUSH1 0x0 PUSH2 0x198B DUP5 DUP3 DUP6 ADD PUSH2 0x1952 JUMP JUMPDEST SWAP2 POP POP SWAP3 SWAP2 POP POP JUMP JUMPDEST PUSH1 0x0 DUP2 SWAP1 POP SWAP2 SWAP1 POP JUMP JUMPDEST PUSH1 0x0 PUSH2 0x19B9 PUSH2 0x19B4 PUSH2 0x19AF DUP5 PUSH2 0x186A JUMP JUMPDEST PUSH2 0x1994 JUMP JUMPDEST PUSH2 0x186A JUMP JUMPDEST SWAP1 POP SWAP2 SWAP1 POP JUMP JUMPDEST PUSH1 0x0 PUSH2 0x19CB DUP3 PUSH2 0x199E JUMP JUMPDEST SWAP1 POP SWAP2 SWAP1 POP JUMP JUMPDEST PUSH1 0x0 PUSH2 0x19DD DUP3 PUSH2 0x19C0 JUMP JUMPDEST SWAP1 POP SWAP2 SWAP1 POP JUMP JUMPDEST PUSH2 0x19ED DUP2 PUSH2 0x19D2 JUMP JUMPDEST DUP3 MSTORE POP POP JUMP JUMPDEST PUSH1 0x0 PUSH1 0x20 DUP3 ADD SWAP1 POP PUSH2 0x1A08 PUSH1 0x0 DUP4 ADD DUP5 PUSH2 0x19E4 JUMP JUMPDEST SWAP3 SWAP2 POP POP JUMP JUMPDEST PUSH2 0x1A17 DUP2 PUSH2 0x188A JUMP JUMPDEST DUP3 MSTORE POP POP JUMP JUMPDEST PUSH1 0x0 PUSH1 0x20 DUP3 ADD SWAP1 POP PUSH2 0x1A32 PUSH1 0x0 DUP4 ADD DUP5 PUSH2 0x1A0E JUMP JUMPDEST SWAP3 SWAP2 POP POP JUMP JUMPDEST PUSH1 0x0 PUSH2 0x1A43 DUP3 PUSH2 0x188A JUMP JUMPDEST SWAP1 POP SWAP2 SWAP1 POP JUMP JUMPDEST PUSH2 0x1A53 DUP2 PUSH2 0x1A38 JUMP JUMPDEST DUP2 EQ PUSH2 0x1A5E JUMPI PUSH1 0x0 DUP1 REVERT JUMPDEST POP JUMP JUMPDEST PUSH1 0x0 DUP2 CALLDATALOAD SWAP1 POP PUSH2 0x1A70 DUP2 PUSH2 0x1A4A JUMP JUMPDEST SWAP3 SWAP2 POP POP JUMP JUMPDEST PUSH1 0x0 PUSH1 0x20 DUP3 DUP5 SUB SLT ISZERO PUSH2 0x1A8C JUMPI PUSH2 0x1A8B PUSH2 0x1860 JUMP JUMPDEST JUMPDEST PUSH1 0x0 PUSH2 0x1A9A DUP5 DUP3 DUP6 ADD PUSH2 0x1A61 JUMP JUMPDEST SWAP2 POP POP SWAP3 SWAP2 POP POP JUMP JUMPDEST PUSH2 0x1AAC DUP2 PUSH2 0x18F5 JUMP JUMPDEST DUP2 EQ PUSH2 0x1AB7 JUMPI PUSH1 0x0 DUP1 REVERT JUMPDEST POP JUMP JUMPDEST PUSH1 0x0 DUP2 CALLDATALOAD SWAP1 POP PUSH2 0x1AC9 DUP2 PUSH2 0x1AA3 JUMP JUMPDEST SWAP3 SWAP2 POP POP JUMP JUMPDEST PUSH1 0x0 PUSH2 0x1ADA DUP3 PUSH2 0x188A JUMP JUMPDEST SWAP1 POP SWAP2 SWAP1 POP JUMP JUMPDEST PUSH2 0x1AEA DUP2 PUSH2 0x1ACF JUMP JUMPDEST DUP2 EQ PUSH2 0x1AF5 JUMPI PUSH1 0x0 DUP1 REVERT JUMPDEST POP JUMP JUMPDEST PUSH1 0x0 DUP2 CALLDATALOAD SWAP1 POP PUSH2 0x1B07 DUP2 PUSH2 0x1AE1 JUMP JUMPDEST SWAP3 SWAP2 POP POP JUMP JUMPDEST PUSH1 0x0 DUP1 PUSH1 0x0 DUP1 PUSH1 0x80 DUP6 DUP8 SUB SLT ISZERO PUSH2 0x1B27 JUMPI PUSH2 0x1B26 PUSH2 0x1860 JUMP JUMPDEST JUMPDEST PUSH1 0x0 PUSH2 0x1B35 DUP8 DUP3 DUP9 ADD PUSH2 0x1ABA JUMP JUMPDEST SWAP5 POP POP PUSH1 0x20 PUSH2 0x1B46 DUP8 DUP3 DUP9 ADD PUSH2 0x1952 JUMP JUMPDEST SWAP4 POP POP PUSH1 0x40 PUSH2 0x1B57 DUP8 DUP3 DUP9 ADD PUSH2 0x1ABA JUMP JUMPDEST SWAP3 POP POP PUSH1 0x60 PUSH2 0x1B68 DUP8 DUP3 DUP9 ADD PUSH2 0x1AF8 JUMP JUMPDEST SWAP2 POP POP SWAP3 SWAP6 SWAP2 SWAP5 POP SWAP3 POP JUMP JUMPDEST PUSH32 0x4E487B7100000000000000000000000000000000000000000000000000000000 PUSH1 0x0 MSTORE PUSH1 0x41 PUSH1 0x4 MSTORE PUSH1 0x24 PUSH1 0x0 REVERT JUMPDEST PUSH32 0x4E487B7100000000000000000000000000000000000000000000000000000000 PUSH1 0x0 MSTORE PUSH1 0x32 PUSH1 0x4 MSTORE PUSH1 0x24 PUSH1 0x0 REVERT JUMPDEST PUSH1 0x0 DUP2 MLOAD SWAP1 POP SWAP2 SWAP1 POP JUMP JUMPDEST PUSH1 0x0 DUP3 DUP3 MSTORE PUSH1 0x20 DUP3 ADD SWAP1 POP SWAP3 SWAP2 POP POP JUMP JUMPDEST PUSH1 0x0 DUP2 SWAP1 POP PUSH1 0x20 DUP3 ADD SWAP1 POP SWAP2 SWAP1 POP JUMP JUMPDEST PUSH2 0x1C07 DUP2 PUSH2 0x188A JUMP JUMPDEST DUP3 MSTORE POP POP JUMP JUMPDEST PUSH1 0x0 PUSH2 0x1C19 DUP4 DUP4 PUSH2 0x1BFE JUMP JUMPDEST PUSH1 0x20 DUP4 ADD SWAP1 POP SWAP3 SWAP2 POP POP JUMP JUMPDEST PUSH1 0x0 PUSH1 0x20 DUP3 ADD SWAP1 POP SWAP2 SWAP1 POP JUMP JUMPDEST PUSH1 0x0 PUSH2 0x1C3D DUP3 PUSH2 0x1BD2 JUMP JUMPDEST PUSH2 0x1C47 DUP2 DUP6 PUSH2 0x1BDD JUMP JUMPDEST SWAP4 POP PUSH2 0x1C52 DUP4 PUSH2 0x1BEE JUMP JUMPDEST DUP1 PUSH1 0x0 JUMPDEST DUP4 DUP2 LT ISZERO PUSH2 0x1C83 JUMPI DUP2 MLOAD PUSH2 0x1C6A DUP9 DUP3 PUSH2 0x1C0D JUMP JUMPDEST SWAP8 POP PUSH2 0x1C75 DUP4 PUSH2 0x1C25 JUMP JUMPDEST SWAP3 POP POP PUSH1 0x1 DUP2 ADD SWAP1 POP PUSH2 0x1C56 JUMP JUMPDEST POP DUP6 SWAP4 POP POP POP POP SWAP3 SWAP2 POP POP JUMP JUMPDEST PUSH1 0x0 PUSH1 0x40 DUP3 ADD SWAP1 POP PUSH2 0x1CA5 PUSH1 0x0 DUP4 ADD DUP6 PUSH2 0x18FF JUMP JUMPDEST DUP2 DUP2 SUB PUSH1 0x20 DUP4 ADD MSTORE PUSH2 0x1CB7 DUP2 DUP5 PUSH2 0x1C32 JUMP JUMPDEST SWAP1 POP SWAP4 SWAP3 POP POP POP JUMP JUMPDEST PUSH1 0x0 DUP1 REVERT JUMPDEST PUSH1 0x0 PUSH1 0x1F NOT PUSH1 0x1F DUP4 ADD AND SWAP1 POP SWAP2 SWAP1 POP JUMP JUMPDEST PUSH2 0x1CDF DUP3 PUSH2 0x1CC5 JUMP JUMPDEST DUP2 ADD DUP2 DUP2 LT PUSH8 0xFFFFFFFFFFFFFFFF DUP3 GT OR ISZERO PUSH2 0x1CFE JUMPI PUSH2 0x1CFD PUSH2 0x1B74 JUMP JUMPDEST JUMPDEST DUP1 PUSH1 0x40 MSTORE POP POP POP JUMP JUMPDEST PUSH1 0x0 PUSH2 0x1D11 PUSH2 0x1856 JUMP JUMPDEST SWAP1 POP PUSH2 0x1D1D DUP3 DUP3 PUSH2 0x1CD6 JUMP JUMPDEST SWAP2 SWAP1 POP JUMP JUMPDEST PUSH1 0x0 PUSH8 0xFFFFFFFFFFFFFFFF DUP3 GT ISZERO PUSH2 0x1D3D JUMPI PUSH2 0x1D3C PUSH2 0x1B74 JUMP JUMPDEST JUMPDEST PUSH1 0x20 DUP3 MUL SWAP1 POP PUSH1 0x20 DUP2 ADD SWAP1 POP SWAP2 SWAP1 POP JUMP JUMPDEST PUSH1 0x0 DUP1 REVERT JUMPDEST PUSH1 0x0 DUP2 MLOAD SWAP1 POP PUSH2 0x1D62 DUP2 PUSH2 0x1AA3 JUMP JUMPDEST SWAP3 SWAP2 POP POP JUMP JUMPDEST PUSH1 0x0 PUSH2 0x1D7B PUSH2 0x1D76 DUP5 PUSH2 0x1D22 JUMP JUMPDEST PUSH2 0x1D07 JUMP JUMPDEST SWAP1 POP DUP1 DUP4 DUP3 MSTORE PUSH1 0x20 DUP3 ADD SWAP1 POP PUSH1 0x20 DUP5 MUL DUP4 ADD DUP6 DUP2 GT ISZERO PUSH2 0x1D9E JUMPI PUSH2 0x1D9D PUSH2 0x1D4E JUMP JUMPDEST JUMPDEST DUP4 JUMPDEST DUP2 DUP2 LT ISZERO PUSH2 0x1DC7 JUMPI DUP1 PUSH2 0x1DB3 DUP9 DUP3 PUSH2 0x1D53 JUMP JUMPDEST DUP5 MSTORE PUSH1 0x20 DUP5 ADD SWAP4 POP POP PUSH1 0x20 DUP2 ADD SWAP1 POP PUSH2 0x1DA0 JUMP JUMPDEST POP POP POP SWAP4 SWAP3 POP POP POP JUMP JUMPDEST PUSH1 0x0 DUP3 PUSH1 0x1F DUP4 ADD SLT PUSH2 0x1DE6 JUMPI PUSH2 0x1DE5 PUSH2 0x1CC0 JUMP JUMPDEST JUMPDEST DUP2 MLOAD PUSH2 0x1DF6 DUP5 DUP3 PUSH1 0x20 DUP7 ADD PUSH2 0x1D68 JUMP JUMPDEST SWAP2 POP POP SWAP3 SWAP2 POP POP JUMP JUMPDEST PUSH1 0x0 PUSH1 0x20 DUP3 DUP5 SUB SLT ISZERO PUSH2 0x1E15 JUMPI PUSH2 0x1E14 PUSH2 0x1860 JUMP JUMPDEST JUMPDEST PUSH1 0x0 DUP3 ADD MLOAD PUSH8 0xFFFFFFFFFFFFFFFF DUP2 GT ISZERO PUSH2 0x1E33 JUMPI PUSH2 0x1E32 PUSH2 0x1865 JUMP JUMPDEST JUMPDEST PUSH2 0x1E3F DUP5 DUP3 DUP6 ADD PUSH2 0x1DD1 JUMP JUMPDEST SWAP2 POP POP SWAP3 SWAP2 POP POP JUMP JUMPDEST PUSH1 0x0 PUSH2 0x1E53 DUP3 PUSH2 0x188A JUMP JUMPDEST SWAP1 POP SWAP2 SWAP1 POP JUMP JUMPDEST PUSH2 0x1E63 DUP2 PUSH2 0x1E48 JUMP JUMPDEST DUP2 EQ PUSH2 0x1E6E JUMPI PUSH1 0x0 DUP1 REVERT JUMPDEST POP JUMP JUMPDEST PUSH1 0x0 DUP2 MLOAD SWAP1 POP PUSH2 0x1E80 DUP2 PUSH2 0x1E5A JUMP JUMPDEST SWAP3 SWAP2 POP POP JUMP JUMPDEST PUSH1 0x0 PUSH1 0x20 DUP3 DUP5 SUB SLT ISZERO PUSH2 0x1E9C JUMPI PUSH2 0x1E9B PUSH2 0x1860 JUMP JUMPDEST JUMPDEST PUSH1 0x0 PUSH2 0x1EAA DUP5 DUP3 DUP6 ADD PUSH2 0x1E71 JUMP JUMPDEST SWAP2 POP POP SWAP3 SWAP2 POP POP JUMP JUMPDEST PUSH1 0x0 PUSH1 0x20 DUP3 DUP5 SUB SLT ISZERO PUSH2 0x1EC9 JUMPI PUSH2 0x1EC8 PUSH2 0x1860 JUMP JUMPDEST JUMPDEST PUSH1 0x0 PUSH2 0x1ED7 DUP5 DUP3 DUP6 ADD PUSH2 0x1D53 JUMP JUMPDEST SWAP2 POP POP SWAP3 SWAP2 POP POP JUMP JUMPDEST PUSH1 0x0 DUP3 DUP3 MSTORE PUSH1 0x20 DUP3 ADD SWAP1 POP SWAP3 SWAP2 POP POP JUMP JUMPDEST PUSH32 0x4F776E61626C653A2063616C6C6572206973206E6F7420746865206F776E6572 PUSH1 0x0 DUP3 ADD MSTORE POP JUMP JUMPDEST PUSH1 0x0 PUSH2 0x1F27 PUSH1 0x20 DUP4 PUSH2 0x1EE0 JUMP JUMPDEST SWAP2 POP PUSH2 0x1F32 DUP3 PUSH2 0x1EF1 JUMP JUMPDEST PUSH1 0x20 DUP3 ADD SWAP1 POP SWAP2 SWAP1 POP JUMP JUMPDEST PUSH1 0x0 PUSH1 0x20 DUP3 ADD SWAP1 POP DUP2 DUP2 SUB PUSH1 0x0 DUP4 ADD MSTORE PUSH2 0x1F56 DUP2 PUSH2 0x1F1A JUMP JUMPDEST SWAP1 POP SWAP2 SWAP1 POP JUMP JUMPDEST PUSH32 0x4E487B7100000000000000000000000000000000000000000000000000000000 PUSH1 0x0 MSTORE PUSH1 0x11 PUSH1 0x4 MSTORE PUSH1 0x24 PUSH1 0x0 REVERT JUMPDEST PUSH1 0x0 PUSH2 0x1F97 DUP3 PUSH2 0x18F5 JUMP JUMPDEST SWAP2 POP PUSH2 0x1FA2 DUP4 PUSH2 0x18F5 JUMP JUMPDEST SWAP3 POP DUP2 PUSH32 0xFFFFFFFFFFFFFFFFFFFFFFFFFFFFFFFFFFFFFFFFFFFFFFFFFFFFFFFFFFFFFFFF DIV DUP4 GT DUP3 ISZERO ISZERO AND ISZERO PUSH2 0x1FDB JUMPI PUSH2 0x1FDA PUSH2 0x1F5D JUMP JUMPDEST JUMPDEST DUP3 DUP3 MUL SWAP1 POP SWAP3 SWAP2 POP POP JUMP JUMPDEST PUSH1 0x0 DUP1 REVERT JUMPDEST PUSH1 0x0 PUSH2 0x1FF6 DUP3 PUSH2 0x188A JUMP JUMPDEST SWAP1 POP SWAP2 SWAP1 POP JUMP JUMPDEST PUSH2 0x2006 DUP2 PUSH2 0x1FEB JUMP JUMPDEST DUP2 EQ PUSH2 0x2011 JUMPI PUSH1 0x0 DUP1 REVERT JUMPDEST POP JUMP JUMPDEST PUSH1 0x0 DUP2 MLOAD SWAP1 POP PUSH2 0x2023 DUP2 PUSH2 0x1FFD JUMP JUMPDEST SWAP3 SWAP2 POP POP JUMP JUMPDEST PUSH1 0x0 PUSH1 0xC0 DUP3 DUP5 SUB SLT ISZERO PUSH2 0x203F JUMPI PUSH2 0x203E PUSH2 0x1FE6 JUMP JUMPDEST JUMPDEST PUSH2 0x2049 PUSH1 0xC0 PUSH2 0x1D07 JUMP JUMPDEST SWAP1 POP PUSH1 0x0 PUSH2 0x2059 DUP5 DUP3 DUP6 ADD PUSH2 0x1E71 JUMP JUMPDEST PUSH1 0x0 DUP4 ADD MSTORE POP PUSH1 0x20 PUSH2 0x206D DUP5 DUP3 DUP6 ADD PUSH2 0x1D53 JUMP JUMPDEST PUSH1 0x20 DUP4 ADD MSTORE POP PUSH1 0x40 PUSH2 0x2081 DUP5 DUP3 DUP6 ADD PUSH2 0x1D53 JUMP JUMPDEST PUSH1 0x40 DUP4 ADD MSTORE POP PUSH1 0x60 PUSH2 0x2095 DUP5 DUP3 DUP6 ADD PUSH2 0x1D53 JUMP JUMPDEST PUSH1 0x60 DUP4 ADD MSTORE POP PUSH1 0x80 PUSH2 0x20A9 DUP5 DUP3 DUP6 ADD PUSH2 0x2014 JUMP JUMPDEST PUSH1 0x80 DUP4 ADD MSTORE POP PUSH1 0xA0 PUSH2 0x20BD DUP5 DUP3 DUP6 ADD PUSH2 0x1E71 JUMP JUMPDEST PUSH1 0xA0 DUP4 ADD MSTORE POP SWAP3 SWAP2 POP POP JUMP JUMPDEST PUSH1 0x0 PUSH1 0xC0 DUP3 DUP5 SUB SLT ISZERO PUSH2 0x20DF JUMPI PUSH2 0x20DE PUSH2 0x1860 JUMP JUMPDEST JUMPDEST PUSH1 0x0 PUSH2 0x20ED DUP5 DUP3 DUP6 ADD PUSH2 0x2029 JUMP JUMPDEST SWAP2 POP POP SWAP3 SWAP2 POP POP JUMP JUMPDEST PUSH1 0x0 DUP2 MLOAD SWAP1 POP PUSH2 0x2105 DUP2 PUSH2 0x189C JUMP JUMPDEST SWAP3 SWAP2 POP POP JUMP JUMPDEST PUSH1 0x0 PUSH1 0x20 DUP3 DUP5 SUB SLT ISZERO PUSH2 0x2121 JUMPI PUSH2 0x2120 PUSH2 0x1860 JUMP JUMPDEST JUMPDEST PUSH1 0x0 PUSH2 0x212F DUP5 DUP3 DUP6 ADD PUSH2 0x20F6 JUMP JUMPDEST SWAP2 POP POP SWAP3 SWAP2 POP POP JUMP JUMPDEST PUSH32 0x4F776E61626C653A206E6577206F776E657220697320746865207A65726F2061 PUSH1 0x0 DUP3 ADD MSTORE PUSH32 0x6464726573730000000000000000000000000000000000000000000000000000 PUSH1 0x20 DUP3 ADD MSTORE POP JUMP JUMPDEST PUSH1 0x0 PUSH2 0x2194 PUSH1 0x26 DUP4 PUSH2 0x1EE0 JUMP JUMPDEST SWAP2 POP PUSH2 0x219F DUP3 PUSH2 0x2138 JUMP JUMPDEST PUSH1 0x40 DUP3 ADD SWAP1 POP SWAP2 SWAP1 POP JUMP JUMPDEST PUSH1 0x0 PUSH1 0x20 DUP3 ADD SWAP1 POP DUP2 DUP2 SUB PUSH1 0x0 DUP4 ADD MSTORE PUSH2 0x21C3 DUP2 PUSH2 0x2187 JUMP JUMPDEST SWAP1 POP SWAP2 SWAP1 POP JUMP JUMPDEST PUSH32 0x4E487B7100000000000000000000000000000000000000000000000000000000 PUSH1 0x0 MSTORE PUSH1 0x12 PUSH1 0x4 MSTORE PUSH1 0x24 PUSH1 0x0 REVERT JUMPDEST PUSH1 0x0 PUSH2 0x2204 DUP3 PUSH2 0x18F5 JUMP JUMPDEST SWAP2 POP PUSH2 0x220F DUP4 PUSH2 0x18F5 JUMP JUMPDEST SWAP3 POP DUP3 PUSH2 0x221F JUMPI PUSH2 0x221E PUSH2 0x21CA JUMP JUMPDEST JUMPDEST DUP3 DUP3 DIV SWAP1 POP SWAP3 SWAP2 POP POP JUMP JUMPDEST PUSH32 0x536166654D6174683A206D756C7469706C69636174696F6E206F766572666C6F PUSH1 0x0 DUP3 ADD MSTORE PUSH32 0x7700000000000000000000000000000000000000000000000000000000000000 PUSH1 0x20 DUP3 ADD MSTORE POP JUMP JUMPDEST PUSH1 0x0 PUSH2 0x2286 PUSH1 0x21 DUP4 PUSH2 0x1EE0 JUMP JUMPDEST SWAP2 POP PUSH2 0x2291 DUP3 PUSH2 0x222A JUMP JUMPDEST PUSH1 0x40 DUP3 ADD SWAP1 POP SWAP2 SWAP1 POP JUMP JUMPDEST PUSH1 0x0 PUSH1 0x20 DUP3 ADD SWAP1 POP DUP2 DUP2 SUB PUSH1 0x0 DUP4 ADD MSTORE PUSH2 0x22B5 DUP2 PUSH2 0x2279 JUMP JUMPDEST SWAP1 POP SWAP2 SWAP1 POP JUMP JUMPDEST PUSH1 0x0 PUSH2 0x22C7 DUP3 PUSH2 0x18F5 JUMP JUMPDEST SWAP2 POP PUSH2 0x22D2 DUP4 PUSH2 0x18F5 JUMP JUMPDEST SWAP3 POP DUP3 PUSH32 0xFFFFFFFFFFFFFFFFFFFFFFFFFFFFFFFFFFFFFFFFFFFFFFFFFFFFFFFFFFFFFFFF SUB DUP3 GT ISZERO PUSH2 0x2307 JUMPI PUSH2 0x2306 PUSH2 0x1F5D JUMP JUMPDEST JUMPDEST DUP3 DUP3 ADD SWAP1 POP SWAP3 SWAP2 POP POP JUMP JUMPDEST PUSH32 0x536166654D6174683A206164646974696F6E206F766572666C6F770000000000 PUSH1 0x0 DUP3 ADD MSTORE POP JUMP JUMPDEST PUSH1 0x0 PUSH2 0x2348 PUSH1 0x1B DUP4 PUSH2 0x1EE0 JUMP JUMPDEST SWAP2 POP PUSH2 0x2353 DUP3 PUSH2 0x2312 JUMP JUMPDEST PUSH1 0x20 DUP3 ADD SWAP1 POP SWAP2 SWAP1 POP JUMP JUMPDEST PUSH1 0x0 PUSH1 0x20 DUP3 ADD SWAP1 POP DUP2 DUP2 SUB PUSH1 0x0 DUP4 ADD MSTORE PUSH2 0x2377 DUP2 PUSH2 0x233B JUMP JUMPDEST SWAP1 POP SWAP2 SWAP1 POP JUMP JUMPDEST PUSH1 0x0 DUP2 MLOAD SWAP1 POP SWAP2 SWAP1 POP JUMP JUMPDEST PUSH1 0x0 JUMPDEST DUP4 DUP2 LT ISZERO PUSH2 0x23A7 JUMPI DUP1 DUP3 ADD MLOAD DUP2 DUP5 ADD MSTORE PUSH1 0x20 DUP2 ADD SWAP1 POP PUSH2 0x238C JUMP JUMPDEST DUP4 DUP2 GT ISZERO PUSH2 0x23B6 JUMPI PUSH1 0x0 DUP5 DUP5 ADD MSTORE JUMPDEST POP POP POP POP JUMP JUMPDEST PUSH1 0x0 PUSH2 0x23C7 DUP3 PUSH2 0x237E JUMP JUMPDEST PUSH2 0x23D1 DUP2 DUP6 PUSH2 0x1EE0 JUMP JUMPDEST SWAP4 POP PUSH2 0x23E1 DUP2 DUP6 PUSH1 0x20 DUP7 ADD PUSH2 0x2389 JUMP JUMPDEST PUSH2 0x23EA DUP2 PUSH2 0x1CC5 JUMP JUMPDEST DUP5 ADD SWAP2 POP POP SWAP3 SWAP2 POP POP JUMP JUMPDEST PUSH1 0x0 PUSH1 0x20 DUP3 ADD SWAP1 POP DUP2 DUP2 SUB PUSH1 0x0 DUP4 ADD MSTORE PUSH2 0x240F DUP2 DUP5 PUSH2 0x23BC JUMP JUMPDEST SWAP1 POP SWAP3 SWAP2 POP POP JUMP INVALID LOG2 PUSH5 0x6970667358 0x22 SLT KECCAK256 SWAP5 STOP PUSH25 0x6835F5706A1D66C63C6D677503AE22EEA3AE9856FDD02C1A38 DUP2 0xD7 SUB DUP14 PUSH5 0x736F6C6343 STOP ADDMOD 0xF STOP CALLER "
				},
				"gasEstimates": {
					"creation": {
						"codeDepositCost": "1858600",
						"executionCost": "infinite",
						"totalCost": "infinite"
					},
					"external": {
						"BUSD()": "2625",
						"CalcApy(uint256,address,uint256,address)": "infinite",
						"CalcLpPrice(address)": "infinite",
						"Tokenprice(address)": "infinite",
						"WBNB()": "2581",
						"WBNBPrice(address)": "infinite",
						"calcPoolTVLInUSD(uint256,address,uint256,address)": "infinite",
						"isLpAddress(address)": "infinite",
						"owner()": "2567",
						"renounceOwnership()": "30397",
						"routerAddress()": "infinite",
						"setRouter(address)": "27027",
						"transferOwnership(address)": "30808"
					}
				},
				"methodIdentifiers": {
					"BUSD()": "484f4ea9",
					"CalcApy(uint256,address,uint256,address)": "dbb79348",
					"CalcLpPrice(address)": "215cc989",
					"Tokenprice(address)": "19047f8a",
					"WBNB()": "8dd95002",
					"WBNBPrice(address)": "3b979d45",
					"calcPoolTVLInUSD(uint256,address,uint256,address)": "d979fb5f",
					"isLpAddress(address)": "2f7c5980",
					"owner()": "8da5cb5b",
					"renounceOwnership()": "715018a6",
					"routerAddress()": "3268cc56",
					"setRouter(address)": "c0d78655",
					"transferOwnership(address)": "f2fde38b"
				}
			},
			"storageLayout": {
				"storage": [
					{
						"astId": 509,
						"contract": "contracts/Utils.sol:Utils",
						"label": "_owner",
						"offset": 0,
						"slot": "0",
						"type": "t_address"
					},
					{
						"astId": 757,
						"contract": "contracts/Utils.sol:Utils",
						"label": "WBNB",
						"offset": 0,
						"slot": "1",
						"type": "t_address"
					},
					{
						"astId": 759,
						"contract": "contracts/Utils.sol:Utils",
						"label": "BUSD",
						"offset": 0,
						"slot": "2",
						"type": "t_address"
					},
					{
						"astId": 762,
						"contract": "contracts/Utils.sol:Utils",
						"label": "amount",
						"offset": 0,
						"slot": "3",
						"type": "t_uint256"
					},
					{
						"astId": 765,
						"contract": "contracts/Utils.sol:Utils",
						"label": "routerAddress",
						"offset": 0,
						"slot": "4",
						"type": "t_contract(Router)644"
					},
					{
						"astId": 768,
						"contract": "contracts/Utils.sol:Utils",
						"label": "BLOCKS_PER_YEAR",
						"offset": 0,
						"slot": "5",
						"type": "t_uint256"
					}
				],
				"types": {
					"t_address": {
						"encoding": "inplace",
						"label": "address",
						"numberOfBytes": "20"
					},
					"t_contract(Router)644": {
						"encoding": "inplace",
						"label": "contract Router",
						"numberOfBytes": "20"
					},
					"t_uint256": {
						"encoding": "inplace",
						"label": "uint256",
						"numberOfBytes": "32"
					}
				}
			},
			"userdoc": {
				"kind": "user",
				"methods": {},
				"version": 1
			}
		}
	}
}